{
	"data": {
		"bytecode": {
			"linkReferences": {},
			"object": "60a0604052348015600e575f80fd5b50604051610e0e380380610e0e833981016040819052602b91603b565b6001600160a01b03166080526066565b5f60208284031215604a575f80fd5b81516001600160a01b0381168114605f575f80fd5b9392505050565b608051610d8261008c5f395f81816101030152818161016701526102350152610d825ff3fe608060405260043610610057575f3560e01c80630d8f7614146100975780630f138bfe146100a15780632e31ddf1146100c05780638994dd8e146100df5780638da5cb5b146100f2578063a0c15b771461013d575f80fd5b366100935760405134815233907fe6d858f14d755446648a6e0c8ab8b5a0f58ccc7920d4c910b0454e4dcd869af09060200160405180910390a2005b5f80fd5b61009f61015c565b005b3480156100ac575f80fd5b506040514781526020015b60405180910390f35b3480156100cb575f80fd5b5061009f6100da366004610902565b61022a565b61009f6100ed3660046109a1565b610555565b3480156100fd575f80fd5b506101257f000000000000000000000000000000000000000000000000000000000000000081565b6040516001600160a01b0390911681526020016100b7565b348015610148575f80fd5b5061009f6101573660046109a1565b610693565b336001600160a01b037f000000000000000000000000000000000000000000000000000000000000000016146101d15760405162461bcd60e51b81526020600482015260156024820152744f6e6c79206f776e65722063616e2061636365737360581b60448201526064015b60405180910390fd5b5f34116101f357604051632aa1cd8d60e01b81523460048201526024016101c8565b60405134815233907fe6d858f14d755446648a6e0c8ab8b5a0f58ccc7920d4c910b0454e4dcd869af09060200160405180910390a2565b336001600160a01b037f0000000000000000000000000000000000000000000000000000000000000000161461029a5760405162461bcd60e51b81526020600482015260156024820152744f6e6c79206f776e65722063616e2061636365737360581b60448201526064016101c8565b846102bb57604051631bd0000760e11b8152600481018690526024016101c8565b826102dc5760405163179450c960e21b8152600481018490526024016101c8565b806102fd5760405163178ca9eb60e31b8152600481018290526024016101c8565b84831480159061030d5750828114155b1561033c57604051633d2832f960e01b81526004810186905260248101849052604481018290526064016101c8565b5f5b858110156104d5575f87878381811061035957610359610a0f565b905060200201602081019061036e9190610a23565b90505f86868481811061038357610383610a0f565b90506020028101906103959190610a50565b8080601f0160208091040260200160405190810160405280939291908181526020018383808284375f9201829052509394508892508791508690508181106103df576103df610a0f565b9050602002013590508060015f8282546103f99190610aa7565b90915550506001600160a01b0383165f9081526002602090815260408220805460018101825590835291200161042f8382610b58565b506001600160a01b0383165f908152600260205260408120600101805483929061045a908490610aa7565b909155505060408051808201825282815260016020808301919091526001600160a01b0386165f9081526003909152829020915190919061049c908590610c13565b90815260405160209181900382019020825181559101516001918201805460ff191691151591909117905593909301925061033e915050565b506040805160808082526017908201527f4e6f6465207374616b6520696e666f207570646174656400000000000000000060a08201525f60208201819052918101829052600160608201527f5f0fdd6f33919218d99e95dadeb52206af20443cd68b7711230c6d19282e4e2b9060c00160405180910390a2505050505050565b60323411610578576040516385d649f760e01b81523460048201526024016101c8565b3460015f8282546105899190610aa7565b9091555050335f908152600260209081526040822080546001810182559083529120016105b7828483610c29565b50335f90815260026020526040812060010180543492906105d9908490610aa7565b90915550506040805180820182523481526001602080830191909152335f908152600390915282902091519091906106149085908590610ce3565b908152604080516020928190038301812084518155938301516001948501805460ff1916911515919091179055335f81815260029094529190922083015490927f5f0fdd6f33919218d99e95dadeb52206af20443cd68b7711230c6d19282e4e2b92610687928792879234929190610cf2565b60405180910390a25050565b5f5460ff16156106e55760405162461bcd60e51b815260206004820152601f60248201527f5265656e7472616e637947756172643a207265656e7472616e742063616c6c0060448201526064016101c8565b5f805460ff1916600117815533815260036020526040808220905161070d9085908590610ce3565b908152604051908190036020019020600181015490915060ff166107515760018101546040516319e6e2c160e11b815260ff909116151560048201526024016101c8565b805447101561077557604051633e4673d160e01b81524760048201526024016101c8565b8054335f9081526002602052604081206001018054839290610798908490610d39565b925050819055508060015f8282546107b09190610d39565b909155505060018201805460ff191690555f808355604051339083908381818185875af1925050503d805f8114610802576040519150601f19603f3d011682016040523d82523d5f602084013e610807565b606091505b505090508061084c5760405162461bcd60e51b815260206004820152601160248201527015da5d1a191c985dd85b0819985a5b1959607a1b60448201526064016101c8565b8254335f818152600260205260409081902060019081015490870154915192937f5f0fdd6f33919218d99e95dadeb52206af20443cd68b7711230c6d19282e4e2b936108a2938b938b9392909160ff1690610cf2565b60405180910390a250505f805460ff19169055505050565b5f8083601f8401126108ca575f80fd5b50813567ffffffffffffffff8111156108e1575f80fd5b6020830191508360208260051b85010111156108fb575f80fd5b9250929050565b5f805f805f8060608789031215610917575f80fd5b863567ffffffffffffffff81111561092d575f80fd5b61093989828a016108ba565b909750955050602087013567ffffffffffffffff811115610958575f80fd5b61096489828a016108ba565b909550935050604087013567ffffffffffffffff811115610983575f80fd5b61098f89828a016108ba565b979a9699509497509295939492505050565b5f80602083850312156109b2575f80fd5b823567ffffffffffffffff8111156109c8575f80fd5b8301601f810185136109d8575f80fd5b803567ffffffffffffffff8111156109ee575f80fd5b8560208284010111156109ff575f80fd5b6020919091019590945092505050565b634e487b7160e01b5f52603260045260245ffd5b5f60208284031215610a33575f80fd5b81356001600160a01b0381168114610a49575f80fd5b9392505050565b5f808335601e19843603018112610a65575f80fd5b83018035915067ffffffffffffffff821115610a7f575f80fd5b6020019150368190038213156108fb575f80fd5b634e487b7160e01b5f52601160045260245ffd5b80820180821115610aba57610aba610a93565b92915050565b634e487b7160e01b5f52604160045260245ffd5b600181811c90821680610ae857607f821691505b602082108103610b0657634e487b7160e01b5f52602260045260245ffd5b50919050565b601f821115610b5357805f5260205f20601f840160051c81016020851015610b315750805b601f840160051c820191505b81811015610b50575f8155600101610b3d565b50505b505050565b815167ffffffffffffffff811115610b7257610b72610ac0565b610b8681610b808454610ad4565b84610b0c565b6020601f821160018114610bb8575f8315610ba15750848201515b5f19600385901b1c1916600184901b178455610b50565b5f84815260208120601f198516915b82811015610be75787850151825560209485019460019092019101610bc7565b5084821015610c0457868401515f19600387901b60f8161c191681555b50505050600190811b01905550565b5f82518060208501845e5f920191825250919050565b67ffffffffffffffff831115610c4157610c41610ac0565b610c5583610c4f8354610ad4565b83610b0c565b5f601f841160018114610c86575f8515610c6f5750838201355b5f19600387901b1c1916600186901b178355610b50565b5f83815260208120601f198716915b82811015610cb55786850135825560209485019460019092019101610c95565b5086821015610cd1575f1960f88860031b161c19848701351681555b505060018560011b0183555050505050565b818382375f9101908152919050565b60808152846080820152848660a08301375f60a086830101525f60a0601f19601f880116830101905084602083015283604083015282151560608301529695505050505050565b81810381811115610aba57610aba610a9356fea2646970667358221220f798536e92699e32e2b6bff882f7bd1f5f757dc74c1cda8df7a43a974baaa00364736f6c634300081a0033",
			"opcodes": "PUSH1 0xA0 PUSH1 0x40 MSTORE CALLVALUE DUP1 ISZERO PUSH1 0xE JUMPI PUSH0 DUP1 REVERT JUMPDEST POP PUSH1 0x40 MLOAD PUSH2 0xE0E CODESIZE SUB DUP1 PUSH2 0xE0E DUP4 CODECOPY DUP2 ADD PUSH1 0x40 DUP2 SWAP1 MSTORE PUSH1 0x2B SWAP2 PUSH1 0x3B JUMP JUMPDEST PUSH1 0x1 PUSH1 0x1 PUSH1 0xA0 SHL SUB AND PUSH1 0x80 MSTORE PUSH1 0x66 JUMP JUMPDEST PUSH0 PUSH1 0x20 DUP3 DUP5 SUB SLT ISZERO PUSH1 0x4A JUMPI PUSH0 DUP1 REVERT JUMPDEST DUP2 MLOAD PUSH1 0x1 PUSH1 0x1 PUSH1 0xA0 SHL SUB DUP2 AND DUP2 EQ PUSH1 0x5F JUMPI PUSH0 DUP1 REVERT JUMPDEST SWAP4 SWAP3 POP POP POP JUMP JUMPDEST PUSH1 0x80 MLOAD PUSH2 0xD82 PUSH2 0x8C PUSH0 CODECOPY PUSH0 DUP2 DUP2 PUSH2 0x103 ADD MSTORE DUP2 DUP2 PUSH2 0x167 ADD MSTORE PUSH2 0x235 ADD MSTORE PUSH2 0xD82 PUSH0 RETURN INVALID PUSH1 0x80 PUSH1 0x40 MSTORE PUSH1 0x4 CALLDATASIZE LT PUSH2 0x57 JUMPI PUSH0 CALLDATALOAD PUSH1 0xE0 SHR DUP1 PUSH4 0xD8F7614 EQ PUSH2 0x97 JUMPI DUP1 PUSH4 0xF138BFE EQ PUSH2 0xA1 JUMPI DUP1 PUSH4 0x2E31DDF1 EQ PUSH2 0xC0 JUMPI DUP1 PUSH4 0x8994DD8E EQ PUSH2 0xDF JUMPI DUP1 PUSH4 0x8DA5CB5B EQ PUSH2 0xF2 JUMPI DUP1 PUSH4 0xA0C15B77 EQ PUSH2 0x13D JUMPI PUSH0 DUP1 REVERT JUMPDEST CALLDATASIZE PUSH2 0x93 JUMPI PUSH1 0x40 MLOAD CALLVALUE DUP2 MSTORE CALLER SWAP1 PUSH32 0xE6D858F14D755446648A6E0C8AB8B5A0F58CCC7920D4C910B0454E4DCD869AF0 SWAP1 PUSH1 0x20 ADD PUSH1 0x40 MLOAD DUP1 SWAP2 SUB SWAP1 LOG2 STOP JUMPDEST PUSH0 DUP1 REVERT JUMPDEST PUSH2 0x9F PUSH2 0x15C JUMP JUMPDEST STOP JUMPDEST CALLVALUE DUP1 ISZERO PUSH2 0xAC JUMPI PUSH0 DUP1 REVERT JUMPDEST POP PUSH1 0x40 MLOAD SELFBALANCE DUP2 MSTORE PUSH1 0x20 ADD JUMPDEST PUSH1 0x40 MLOAD DUP1 SWAP2 SUB SWAP1 RETURN JUMPDEST CALLVALUE DUP1 ISZERO PUSH2 0xCB JUMPI PUSH0 DUP1 REVERT JUMPDEST POP PUSH2 0x9F PUSH2 0xDA CALLDATASIZE PUSH1 0x4 PUSH2 0x902 JUMP JUMPDEST PUSH2 0x22A JUMP JUMPDEST PUSH2 0x9F PUSH2 0xED CALLDATASIZE PUSH1 0x4 PUSH2 0x9A1 JUMP JUMPDEST PUSH2 0x555 JUMP JUMPDEST CALLVALUE DUP1 ISZERO PUSH2 0xFD JUMPI PUSH0 DUP1 REVERT JUMPDEST POP PUSH2 0x125 PUSH32 0x0 DUP2 JUMP JUMPDEST PUSH1 0x40 MLOAD PUSH1 0x1 PUSH1 0x1 PUSH1 0xA0 SHL SUB SWAP1 SWAP2 AND DUP2 MSTORE PUSH1 0x20 ADD PUSH2 0xB7 JUMP JUMPDEST CALLVALUE DUP1 ISZERO PUSH2 0x148 JUMPI PUSH0 DUP1 REVERT JUMPDEST POP PUSH2 0x9F PUSH2 0x157 CALLDATASIZE PUSH1 0x4 PUSH2 0x9A1 JUMP JUMPDEST PUSH2 0x693 JUMP JUMPDEST CALLER PUSH1 0x1 PUSH1 0x1 PUSH1 0xA0 SHL SUB PUSH32 0x0 AND EQ PUSH2 0x1D1 JUMPI PUSH1 0x40 MLOAD PUSH3 0x461BCD PUSH1 0xE5 SHL DUP2 MSTORE PUSH1 0x20 PUSH1 0x4 DUP3 ADD MSTORE PUSH1 0x15 PUSH1 0x24 DUP3 ADD MSTORE PUSH21 0x4F6E6C79206F776E65722063616E20616363657373 PUSH1 0x58 SHL PUSH1 0x44 DUP3 ADD MSTORE PUSH1 0x64 ADD JUMPDEST PUSH1 0x40 MLOAD DUP1 SWAP2 SUB SWAP1 REVERT JUMPDEST PUSH0 CALLVALUE GT PUSH2 0x1F3 JUMPI PUSH1 0x40 MLOAD PUSH4 0x2AA1CD8D PUSH1 0xE0 SHL DUP2 MSTORE CALLVALUE PUSH1 0x4 DUP3 ADD MSTORE PUSH1 0x24 ADD PUSH2 0x1C8 JUMP JUMPDEST PUSH1 0x40 MLOAD CALLVALUE DUP2 MSTORE CALLER SWAP1 PUSH32 0xE6D858F14D755446648A6E0C8AB8B5A0F58CCC7920D4C910B0454E4DCD869AF0 SWAP1 PUSH1 0x20 ADD PUSH1 0x40 MLOAD DUP1 SWAP2 SUB SWAP1 LOG2 JUMP JUMPDEST CALLER PUSH1 0x1 PUSH1 0x1 PUSH1 0xA0 SHL SUB PUSH32 0x0 AND EQ PUSH2 0x29A JUMPI PUSH1 0x40 MLOAD PUSH3 0x461BCD PUSH1 0xE5 SHL DUP2 MSTORE PUSH1 0x20 PUSH1 0x4 DUP3 ADD MSTORE PUSH1 0x15 PUSH1 0x24 DUP3 ADD MSTORE PUSH21 0x4F6E6C79206F776E65722063616E20616363657373 PUSH1 0x58 SHL PUSH1 0x44 DUP3 ADD MSTORE PUSH1 0x64 ADD PUSH2 0x1C8 JUMP JUMPDEST DUP5 PUSH2 0x2BB JUMPI PUSH1 0x40 MLOAD PUSH4 0x1BD00007 PUSH1 0xE1 SHL DUP2 MSTORE PUSH1 0x4 DUP2 ADD DUP7 SWAP1 MSTORE PUSH1 0x24 ADD PUSH2 0x1C8 JUMP JUMPDEST DUP3 PUSH2 0x2DC JUMPI PUSH1 0x40 MLOAD PUSH4 0x179450C9 PUSH1 0xE2 SHL DUP2 MSTORE PUSH1 0x4 DUP2 ADD DUP5 SWAP1 MSTORE PUSH1 0x24 ADD PUSH2 0x1C8 JUMP JUMPDEST DUP1 PUSH2 0x2FD JUMPI PUSH1 0x40 MLOAD PUSH4 0x178CA9EB PUSH1 0xE3 SHL DUP2 MSTORE PUSH1 0x4 DUP2 ADD DUP3 SWAP1 MSTORE PUSH1 0x24 ADD PUSH2 0x1C8 JUMP JUMPDEST DUP5 DUP4 EQ DUP1 ISZERO SWAP1 PUSH2 0x30D JUMPI POP DUP3 DUP2 EQ ISZERO JUMPDEST ISZERO PUSH2 0x33C JUMPI PUSH1 0x40 MLOAD PUSH4 0x3D2832F9 PUSH1 0xE0 SHL DUP2 MSTORE PUSH1 0x4 DUP2 ADD DUP7 SWAP1 MSTORE PUSH1 0x24 DUP2 ADD DUP5 SWAP1 MSTORE PUSH1 0x44 DUP2 ADD DUP3 SWAP1 MSTORE PUSH1 0x64 ADD PUSH2 0x1C8 JUMP JUMPDEST PUSH0 JUMPDEST DUP6 DUP2 LT ISZERO PUSH2 0x4D5 JUMPI PUSH0 DUP8 DUP8 DUP4 DUP2 DUP2 LT PUSH2 0x359 JUMPI PUSH2 0x359 PUSH2 0xA0F JUMP JUMPDEST SWAP1 POP PUSH1 0x20 MUL ADD PUSH1 0x20 DUP2 ADD SWAP1 PUSH2 0x36E SWAP2 SWAP1 PUSH2 0xA23 JUMP JUMPDEST SWAP1 POP PUSH0 DUP7 DUP7 DUP5 DUP2 DUP2 LT PUSH2 0x383 JUMPI PUSH2 0x383 PUSH2 0xA0F JUMP JUMPDEST SWAP1 POP PUSH1 0x20 MUL DUP2 ADD SWAP1 PUSH2 0x395 SWAP2 SWAP1 PUSH2 0xA50 JUMP JUMPDEST DUP1 DUP1 PUSH1 0x1F ADD PUSH1 0x20 DUP1 SWAP2 DIV MUL PUSH1 0x20 ADD PUSH1 0x40 MLOAD SWAP1 DUP2 ADD PUSH1 0x40 MSTORE DUP1 SWAP4 SWAP3 SWAP2 SWAP1 DUP2 DUP2 MSTORE PUSH1 0x20 ADD DUP4 DUP4 DUP1 DUP3 DUP5 CALLDATACOPY PUSH0 SWAP3 ADD DUP3 SWAP1 MSTORE POP SWAP4 SWAP5 POP DUP9 SWAP3 POP DUP8 SWAP2 POP DUP7 SWAP1 POP DUP2 DUP2 LT PUSH2 0x3DF JUMPI PUSH2 0x3DF PUSH2 0xA0F JUMP JUMPDEST SWAP1 POP PUSH1 0x20 MUL ADD CALLDATALOAD SWAP1 POP DUP1 PUSH1 0x1 PUSH0 DUP3 DUP3 SLOAD PUSH2 0x3F9 SWAP2 SWAP1 PUSH2 0xAA7 JUMP JUMPDEST SWAP1 SWAP2 SSTORE POP POP PUSH1 0x1 PUSH1 0x1 PUSH1 0xA0 SHL SUB DUP4 AND PUSH0 SWAP1 DUP2 MSTORE PUSH1 0x2 PUSH1 0x20 SWAP1 DUP2 MSTORE PUSH1 0x40 DUP3 KECCAK256 DUP1 SLOAD PUSH1 0x1 DUP2 ADD DUP3 SSTORE SWAP1 DUP4 MSTORE SWAP2 KECCAK256 ADD PUSH2 0x42F DUP4 DUP3 PUSH2 0xB58 JUMP JUMPDEST POP PUSH1 0x1 PUSH1 0x1 PUSH1 0xA0 SHL SUB DUP4 AND PUSH0 SWAP1 DUP2 MSTORE PUSH1 0x2 PUSH1 0x20 MSTORE PUSH1 0x40 DUP2 KECCAK256 PUSH1 0x1 ADD DUP1 SLOAD DUP4 SWAP3 SWAP1 PUSH2 0x45A SWAP1 DUP5 SWAP1 PUSH2 0xAA7 JUMP JUMPDEST SWAP1 SWAP2 SSTORE POP POP PUSH1 0x40 DUP1 MLOAD DUP1 DUP3 ADD DUP3 MSTORE DUP3 DUP2 MSTORE PUSH1 0x1 PUSH1 0x20 DUP1 DUP4 ADD SWAP2 SWAP1 SWAP2 MSTORE PUSH1 0x1 PUSH1 0x1 PUSH1 0xA0 SHL SUB DUP7 AND PUSH0 SWAP1 DUP2 MSTORE PUSH1 0x3 SWAP1 SWAP2 MSTORE DUP3 SWAP1 KECCAK256 SWAP2 MLOAD SWAP1 SWAP2 SWAP1 PUSH2 0x49C SWAP1 DUP6 SWAP1 PUSH2 0xC13 JUMP JUMPDEST SWAP1 DUP2 MSTORE PUSH1 0x40 MLOAD PUSH1 0x20 SWAP2 DUP2 SWAP1 SUB DUP3 ADD SWAP1 KECCAK256 DUP3 MLOAD DUP2 SSTORE SWAP2 ADD MLOAD PUSH1 0x1 SWAP2 DUP3 ADD DUP1 SLOAD PUSH1 0xFF NOT AND SWAP2 ISZERO ISZERO SWAP2 SWAP1 SWAP2 OR SWAP1 SSTORE SWAP4 SWAP1 SWAP4 ADD SWAP3 POP PUSH2 0x33E SWAP2 POP POP JUMP JUMPDEST POP PUSH1 0x40 DUP1 MLOAD PUSH1 0x80 DUP1 DUP3 MSTORE PUSH1 0x17 SWAP1 DUP3 ADD MSTORE PUSH32 0x4E6F6465207374616B6520696E666F2075706461746564000000000000000000 PUSH1 0xA0 DUP3 ADD MSTORE PUSH0 PUSH1 0x20 DUP3 ADD DUP2 SWAP1 MSTORE SWAP2 DUP2 ADD DUP3 SWAP1 MSTORE PUSH1 0x1 PUSH1 0x60 DUP3 ADD MSTORE PUSH32 0x5F0FDD6F33919218D99E95DADEB52206AF20443CD68B7711230C6D19282E4E2B SWAP1 PUSH1 0xC0 ADD PUSH1 0x40 MLOAD DUP1 SWAP2 SUB SWAP1 LOG2 POP POP POP POP POP POP JUMP JUMPDEST PUSH1 0x32 CALLVALUE GT PUSH2 0x578 JUMPI PUSH1 0x40 MLOAD PUSH4 0x85D649F7 PUSH1 0xE0 SHL DUP2 MSTORE CALLVALUE PUSH1 0x4 DUP3 ADD MSTORE PUSH1 0x24 ADD PUSH2 0x1C8 JUMP JUMPDEST CALLVALUE PUSH1 0x1 PUSH0 DUP3 DUP3 SLOAD PUSH2 0x589 SWAP2 SWAP1 PUSH2 0xAA7 JUMP JUMPDEST SWAP1 SWAP2 SSTORE POP POP CALLER PUSH0 SWAP1 DUP2 MSTORE PUSH1 0x2 PUSH1 0x20 SWAP1 DUP2 MSTORE PUSH1 0x40 DUP3 KECCAK256 DUP1 SLOAD PUSH1 0x1 DUP2 ADD DUP3 SSTORE SWAP1 DUP4 MSTORE SWAP2 KECCAK256 ADD PUSH2 0x5B7 DUP3 DUP5 DUP4 PUSH2 0xC29 JUMP JUMPDEST POP CALLER PUSH0 SWAP1 DUP2 MSTORE PUSH1 0x2 PUSH1 0x20 MSTORE PUSH1 0x40 DUP2 KECCAK256 PUSH1 0x1 ADD DUP1 SLOAD CALLVALUE SWAP3 SWAP1 PUSH2 0x5D9 SWAP1 DUP5 SWAP1 PUSH2 0xAA7 JUMP JUMPDEST SWAP1 SWAP2 SSTORE POP POP PUSH1 0x40 DUP1 MLOAD DUP1 DUP3 ADD DUP3 MSTORE CALLVALUE DUP2 MSTORE PUSH1 0x1 PUSH1 0x20 DUP1 DUP4 ADD SWAP2 SWAP1 SWAP2 MSTORE CALLER PUSH0 SWAP1 DUP2 MSTORE PUSH1 0x3 SWAP1 SWAP2 MSTORE DUP3 SWAP1 KECCAK256 SWAP2 MLOAD SWAP1 SWAP2 SWAP1 PUSH2 0x614 SWAP1 DUP6 SWAP1 DUP6 SWAP1 PUSH2 0xCE3 JUMP JUMPDEST SWAP1 DUP2 MSTORE PUSH1 0x40 DUP1 MLOAD PUSH1 0x20 SWAP3 DUP2 SWAP1 SUB DUP4 ADD DUP2 KECCAK256 DUP5 MLOAD DUP2 SSTORE SWAP4 DUP4 ADD MLOAD PUSH1 0x1 SWAP5 DUP6 ADD DUP1 SLOAD PUSH1 0xFF NOT AND SWAP2 ISZERO ISZERO SWAP2 SWAP1 SWAP2 OR SWAP1 SSTORE CALLER PUSH0 DUP2 DUP2 MSTORE PUSH1 0x2 SWAP1 SWAP5 MSTORE SWAP2 SWAP1 SWAP3 KECCAK256 DUP4 ADD SLOAD SWAP1 SWAP3 PUSH32 0x5F0FDD6F33919218D99E95DADEB52206AF20443CD68B7711230C6D19282E4E2B SWAP3 PUSH2 0x687 SWAP3 DUP8 SWAP3 DUP8 SWAP3 CALLVALUE SWAP3 SWAP2 SWAP1 PUSH2 0xCF2 JUMP JUMPDEST PUSH1 0x40 MLOAD DUP1 SWAP2 SUB SWAP1 LOG2 POP POP JUMP JUMPDEST PUSH0 SLOAD PUSH1 0xFF AND ISZERO PUSH2 0x6E5 JUMPI PUSH1 0x40 MLOAD PUSH3 0x461BCD PUSH1 0xE5 SHL DUP2 MSTORE PUSH1 0x20 PUSH1 0x4 DUP3 ADD MSTORE PUSH1 0x1F PUSH1 0x24 DUP3 ADD MSTORE PUSH32 0x5265656E7472616E637947756172643A207265656E7472616E742063616C6C00 PUSH1 0x44 DUP3 ADD MSTORE PUSH1 0x64 ADD PUSH2 0x1C8 JUMP JUMPDEST PUSH0 DUP1 SLOAD PUSH1 0xFF NOT AND PUSH1 0x1 OR DUP2 SSTORE CALLER DUP2 MSTORE PUSH1 0x3 PUSH1 0x20 MSTORE PUSH1 0x40 DUP1 DUP3 KECCAK256 SWAP1 MLOAD PUSH2 0x70D SWAP1 DUP6 SWAP1 DUP6 SWAP1 PUSH2 0xCE3 JUMP JUMPDEST SWAP1 DUP2 MSTORE PUSH1 0x40 MLOAD SWAP1 DUP2 SWAP1 SUB PUSH1 0x20 ADD SWAP1 KECCAK256 PUSH1 0x1 DUP2 ADD SLOAD SWAP1 SWAP2 POP PUSH1 0xFF AND PUSH2 0x751 JUMPI PUSH1 0x1 DUP2 ADD SLOAD PUSH1 0x40 MLOAD PUSH4 0x19E6E2C1 PUSH1 0xE1 SHL DUP2 MSTORE PUSH1 0xFF SWAP1 SWAP2 AND ISZERO ISZERO PUSH1 0x4 DUP3 ADD MSTORE PUSH1 0x24 ADD PUSH2 0x1C8 JUMP JUMPDEST DUP1 SLOAD SELFBALANCE LT ISZERO PUSH2 0x775 JUMPI PUSH1 0x40 MLOAD PUSH4 0x3E4673D1 PUSH1 0xE0 SHL DUP2 MSTORE SELFBALANCE PUSH1 0x4 DUP3 ADD MSTORE PUSH1 0x24 ADD PUSH2 0x1C8 JUMP JUMPDEST DUP1 SLOAD CALLER PUSH0 SWAP1 DUP2 MSTORE PUSH1 0x2 PUSH1 0x20 MSTORE PUSH1 0x40 DUP2 KECCAK256 PUSH1 0x1 ADD DUP1 SLOAD DUP4 SWAP3 SWAP1 PUSH2 0x798 SWAP1 DUP5 SWAP1 PUSH2 0xD39 JUMP JUMPDEST SWAP3 POP POP DUP2 SWAP1 SSTORE POP DUP1 PUSH1 0x1 PUSH0 DUP3 DUP3 SLOAD PUSH2 0x7B0 SWAP2 SWAP1 PUSH2 0xD39 JUMP JUMPDEST SWAP1 SWAP2 SSTORE POP POP PUSH1 0x1 DUP3 ADD DUP1 SLOAD PUSH1 0xFF NOT AND SWAP1 SSTORE PUSH0 DUP1 DUP4 SSTORE PUSH1 0x40 MLOAD CALLER SWAP1 DUP4 SWAP1 DUP4 DUP2 DUP2 DUP2 DUP6 DUP8 GAS CALL SWAP3 POP POP POP RETURNDATASIZE DUP1 PUSH0 DUP2 EQ PUSH2 0x802 JUMPI PUSH1 0x40 MLOAD SWAP2 POP PUSH1 0x1F NOT PUSH1 0x3F RETURNDATASIZE ADD AND DUP3 ADD PUSH1 0x40 MSTORE RETURNDATASIZE DUP3 MSTORE RETURNDATASIZE PUSH0 PUSH1 0x20 DUP5 ADD RETURNDATACOPY PUSH2 0x807 JUMP JUMPDEST PUSH1 0x60 SWAP2 POP JUMPDEST POP POP SWAP1 POP DUP1 PUSH2 0x84C JUMPI PUSH1 0x40 MLOAD PUSH3 0x461BCD PUSH1 0xE5 SHL DUP2 MSTORE PUSH1 0x20 PUSH1 0x4 DUP3 ADD MSTORE PUSH1 0x11 PUSH1 0x24 DUP3 ADD MSTORE PUSH17 0x15DA5D1A191C985DD85B0819985A5B1959 PUSH1 0x7A SHL PUSH1 0x44 DUP3 ADD MSTORE PUSH1 0x64 ADD PUSH2 0x1C8 JUMP JUMPDEST DUP3 SLOAD CALLER PUSH0 DUP2 DUP2 MSTORE PUSH1 0x2 PUSH1 0x20 MSTORE PUSH1 0x40 SWAP1 DUP2 SWAP1 KECCAK256 PUSH1 0x1 SWAP1 DUP2 ADD SLOAD SWAP1 DUP8 ADD SLOAD SWAP2 MLOAD SWAP3 SWAP4 PUSH32 0x5F0FDD6F33919218D99E95DADEB52206AF20443CD68B7711230C6D19282E4E2B SWAP4 PUSH2 0x8A2 SWAP4 DUP12 SWAP4 DUP12 SWAP4 SWAP3 SWAP1 SWAP2 PUSH1 0xFF AND SWAP1 PUSH2 0xCF2 JUMP JUMPDEST PUSH1 0x40 MLOAD DUP1 SWAP2 SUB SWAP1 LOG2 POP POP PUSH0 DUP1 SLOAD PUSH1 0xFF NOT AND SWAP1 SSTORE POP POP POP JUMP JUMPDEST PUSH0 DUP1 DUP4 PUSH1 0x1F DUP5 ADD SLT PUSH2 0x8CA JUMPI PUSH0 DUP1 REVERT JUMPDEST POP DUP2 CALLDATALOAD PUSH8 0xFFFFFFFFFFFFFFFF DUP2 GT ISZERO PUSH2 0x8E1 JUMPI PUSH0 DUP1 REVERT JUMPDEST PUSH1 0x20 DUP4 ADD SWAP2 POP DUP4 PUSH1 0x20 DUP3 PUSH1 0x5 SHL DUP6 ADD ADD GT ISZERO PUSH2 0x8FB JUMPI PUSH0 DUP1 REVERT JUMPDEST SWAP3 POP SWAP3 SWAP1 POP JUMP JUMPDEST PUSH0 DUP1 PUSH0 DUP1 PUSH0 DUP1 PUSH1 0x60 DUP8 DUP10 SUB SLT ISZERO PUSH2 0x917 JUMPI PUSH0 DUP1 REVERT JUMPDEST DUP7 CALLDATALOAD PUSH8 0xFFFFFFFFFFFFFFFF DUP2 GT ISZERO PUSH2 0x92D JUMPI PUSH0 DUP1 REVERT JUMPDEST PUSH2 0x939 DUP10 DUP3 DUP11 ADD PUSH2 0x8BA JUMP JUMPDEST SWAP1 SWAP8 POP SWAP6 POP POP PUSH1 0x20 DUP8 ADD CALLDATALOAD PUSH8 0xFFFFFFFFFFFFFFFF DUP2 GT ISZERO PUSH2 0x958 JUMPI PUSH0 DUP1 REVERT JUMPDEST PUSH2 0x964 DUP10 DUP3 DUP11 ADD PUSH2 0x8BA JUMP JUMPDEST SWAP1 SWAP6 POP SWAP4 POP POP PUSH1 0x40 DUP8 ADD CALLDATALOAD PUSH8 0xFFFFFFFFFFFFFFFF DUP2 GT ISZERO PUSH2 0x983 JUMPI PUSH0 DUP1 REVERT JUMPDEST PUSH2 0x98F DUP10 DUP3 DUP11 ADD PUSH2 0x8BA JUMP JUMPDEST SWAP8 SWAP11 SWAP7 SWAP10 POP SWAP5 SWAP8 POP SWAP3 SWAP6 SWAP4 SWAP5 SWAP3 POP POP POP JUMP JUMPDEST PUSH0 DUP1 PUSH1 0x20 DUP4 DUP6 SUB SLT ISZERO PUSH2 0x9B2 JUMPI PUSH0 DUP1 REVERT JUMPDEST DUP3 CALLDATALOAD PUSH8 0xFFFFFFFFFFFFFFFF DUP2 GT ISZERO PUSH2 0x9C8 JUMPI PUSH0 DUP1 REVERT JUMPDEST DUP4 ADD PUSH1 0x1F DUP2 ADD DUP6 SGT PUSH2 0x9D8 JUMPI PUSH0 DUP1 REVERT JUMPDEST DUP1 CALLDATALOAD PUSH8 0xFFFFFFFFFFFFFFFF DUP2 GT ISZERO PUSH2 0x9EE JUMPI PUSH0 DUP1 REVERT JUMPDEST DUP6 PUSH1 0x20 DUP3 DUP5 ADD ADD GT ISZERO PUSH2 0x9FF JUMPI PUSH0 DUP1 REVERT JUMPDEST PUSH1 0x20 SWAP2 SWAP1 SWAP2 ADD SWAP6 SWAP1 SWAP5 POP SWAP3 POP POP POP JUMP JUMPDEST PUSH4 0x4E487B71 PUSH1 0xE0 SHL PUSH0 MSTORE PUSH1 0x32 PUSH1 0x4 MSTORE PUSH1 0x24 PUSH0 REVERT JUMPDEST PUSH0 PUSH1 0x20 DUP3 DUP5 SUB SLT ISZERO PUSH2 0xA33 JUMPI PUSH0 DUP1 REVERT JUMPDEST DUP2 CALLDATALOAD PUSH1 0x1 PUSH1 0x1 PUSH1 0xA0 SHL SUB DUP2 AND DUP2 EQ PUSH2 0xA49 JUMPI PUSH0 DUP1 REVERT JUMPDEST SWAP4 SWAP3 POP POP POP JUMP JUMPDEST PUSH0 DUP1 DUP4 CALLDATALOAD PUSH1 0x1E NOT DUP5 CALLDATASIZE SUB ADD DUP2 SLT PUSH2 0xA65 JUMPI PUSH0 DUP1 REVERT JUMPDEST DUP4 ADD DUP1 CALLDATALOAD SWAP2 POP PUSH8 0xFFFFFFFFFFFFFFFF DUP3 GT ISZERO PUSH2 0xA7F JUMPI PUSH0 DUP1 REVERT JUMPDEST PUSH1 0x20 ADD SWAP2 POP CALLDATASIZE DUP2 SWAP1 SUB DUP3 SGT ISZERO PUSH2 0x8FB JUMPI PUSH0 DUP1 REVERT JUMPDEST PUSH4 0x4E487B71 PUSH1 0xE0 SHL PUSH0 MSTORE PUSH1 0x11 PUSH1 0x4 MSTORE PUSH1 0x24 PUSH0 REVERT JUMPDEST DUP1 DUP3 ADD DUP1 DUP3 GT ISZERO PUSH2 0xABA JUMPI PUSH2 0xABA PUSH2 0xA93 JUMP JUMPDEST SWAP3 SWAP2 POP POP JUMP JUMPDEST PUSH4 0x4E487B71 PUSH1 0xE0 SHL PUSH0 MSTORE PUSH1 0x41 PUSH1 0x4 MSTORE PUSH1 0x24 PUSH0 REVERT JUMPDEST PUSH1 0x1 DUP2 DUP2 SHR SWAP1 DUP3 AND DUP1 PUSH2 0xAE8 JUMPI PUSH1 0x7F DUP3 AND SWAP2 POP JUMPDEST PUSH1 0x20 DUP3 LT DUP2 SUB PUSH2 0xB06 JUMPI PUSH4 0x4E487B71 PUSH1 0xE0 SHL PUSH0 MSTORE PUSH1 0x22 PUSH1 0x4 MSTORE PUSH1 0x24 PUSH0 REVERT JUMPDEST POP SWAP2 SWAP1 POP JUMP JUMPDEST PUSH1 0x1F DUP3 GT ISZERO PUSH2 0xB53 JUMPI DUP1 PUSH0 MSTORE PUSH1 0x20 PUSH0 KECCAK256 PUSH1 0x1F DUP5 ADD PUSH1 0x5 SHR DUP2 ADD PUSH1 0x20 DUP6 LT ISZERO PUSH2 0xB31 JUMPI POP DUP1 JUMPDEST PUSH1 0x1F DUP5 ADD PUSH1 0x5 SHR DUP3 ADD SWAP2 POP JUMPDEST DUP2 DUP2 LT ISZERO PUSH2 0xB50 JUMPI PUSH0 DUP2 SSTORE PUSH1 0x1 ADD PUSH2 0xB3D JUMP JUMPDEST POP POP JUMPDEST POP POP POP JUMP JUMPDEST DUP2 MLOAD PUSH8 0xFFFFFFFFFFFFFFFF DUP2 GT ISZERO PUSH2 0xB72 JUMPI PUSH2 0xB72 PUSH2 0xAC0 JUMP JUMPDEST PUSH2 0xB86 DUP2 PUSH2 0xB80 DUP5 SLOAD PUSH2 0xAD4 JUMP JUMPDEST DUP5 PUSH2 0xB0C JUMP JUMPDEST PUSH1 0x20 PUSH1 0x1F DUP3 GT PUSH1 0x1 DUP2 EQ PUSH2 0xBB8 JUMPI PUSH0 DUP4 ISZERO PUSH2 0xBA1 JUMPI POP DUP5 DUP3 ADD MLOAD JUMPDEST PUSH0 NOT PUSH1 0x3 DUP6 SWAP1 SHL SHR NOT AND PUSH1 0x1 DUP5 SWAP1 SHL OR DUP5 SSTORE PUSH2 0xB50 JUMP JUMPDEST PUSH0 DUP5 DUP2 MSTORE PUSH1 0x20 DUP2 KECCAK256 PUSH1 0x1F NOT DUP6 AND SWAP2 JUMPDEST DUP3 DUP2 LT ISZERO PUSH2 0xBE7 JUMPI DUP8 DUP6 ADD MLOAD DUP3 SSTORE PUSH1 0x20 SWAP5 DUP6 ADD SWAP5 PUSH1 0x1 SWAP1 SWAP3 ADD SWAP2 ADD PUSH2 0xBC7 JUMP JUMPDEST POP DUP5 DUP3 LT ISZERO PUSH2 0xC04 JUMPI DUP7 DUP5 ADD MLOAD PUSH0 NOT PUSH1 0x3 DUP8 SWAP1 SHL PUSH1 0xF8 AND SHR NOT AND DUP2 SSTORE JUMPDEST POP POP POP POP PUSH1 0x1 SWAP1 DUP2 SHL ADD SWAP1 SSTORE POP JUMP JUMPDEST PUSH0 DUP3 MLOAD DUP1 PUSH1 0x20 DUP6 ADD DUP5 MCOPY PUSH0 SWAP3 ADD SWAP2 DUP3 MSTORE POP SWAP2 SWAP1 POP JUMP JUMPDEST PUSH8 0xFFFFFFFFFFFFFFFF DUP4 GT ISZERO PUSH2 0xC41 JUMPI PUSH2 0xC41 PUSH2 0xAC0 JUMP JUMPDEST PUSH2 0xC55 DUP4 PUSH2 0xC4F DUP4 SLOAD PUSH2 0xAD4 JUMP JUMPDEST DUP4 PUSH2 0xB0C JUMP JUMPDEST PUSH0 PUSH1 0x1F DUP5 GT PUSH1 0x1 DUP2 EQ PUSH2 0xC86 JUMPI PUSH0 DUP6 ISZERO PUSH2 0xC6F JUMPI POP DUP4 DUP3 ADD CALLDATALOAD JUMPDEST PUSH0 NOT PUSH1 0x3 DUP8 SWAP1 SHL SHR NOT AND PUSH1 0x1 DUP7 SWAP1 SHL OR DUP4 SSTORE PUSH2 0xB50 JUMP JUMPDEST PUSH0 DUP4 DUP2 MSTORE PUSH1 0x20 DUP2 KECCAK256 PUSH1 0x1F NOT DUP8 AND SWAP2 JUMPDEST DUP3 DUP2 LT ISZERO PUSH2 0xCB5 JUMPI DUP7 DUP6 ADD CALLDATALOAD DUP3 SSTORE PUSH1 0x20 SWAP5 DUP6 ADD SWAP5 PUSH1 0x1 SWAP1 SWAP3 ADD SWAP2 ADD PUSH2 0xC95 JUMP JUMPDEST POP DUP7 DUP3 LT ISZERO PUSH2 0xCD1 JUMPI PUSH0 NOT PUSH1 0xF8 DUP9 PUSH1 0x3 SHL AND SHR NOT DUP5 DUP8 ADD CALLDATALOAD AND DUP2 SSTORE JUMPDEST POP POP PUSH1 0x1 DUP6 PUSH1 0x1 SHL ADD DUP4 SSTORE POP POP POP POP POP JUMP JUMPDEST DUP2 DUP4 DUP3 CALLDATACOPY PUSH0 SWAP2 ADD SWAP1 DUP2 MSTORE SWAP2 SWAP1 POP JUMP JUMPDEST PUSH1 0x80 DUP2 MSTORE DUP5 PUSH1 0x80 DUP3 ADD MSTORE DUP5 DUP7 PUSH1 0xA0 DUP4 ADD CALLDATACOPY PUSH0 PUSH1 0xA0 DUP7 DUP4 ADD ADD MSTORE PUSH0 PUSH1 0xA0 PUSH1 0x1F NOT PUSH1 0x1F DUP9 ADD AND DUP4 ADD ADD SWAP1 POP DUP5 PUSH1 0x20 DUP4 ADD MSTORE DUP4 PUSH1 0x40 DUP4 ADD MSTORE DUP3 ISZERO ISZERO PUSH1 0x60 DUP4 ADD MSTORE SWAP7 SWAP6 POP POP POP POP POP POP JUMP JUMPDEST DUP2 DUP2 SUB DUP2 DUP2 GT ISZERO PUSH2 0xABA JUMPI PUSH2 0xABA PUSH2 0xA93 JUMP INVALID LOG2 PUSH5 0x6970667358 0x22 SLT KECCAK256 0xF7 SWAP9 MSTORE8 PUSH15 0x92699E32E2B6BFF882F7BD1F5F757D 0xC7 0x4C SHR 0xDA DUP14 0xF7 LOG4 GASPRICE SWAP8 0x4B 0xAA LOG0 SUB PUSH5 0x736F6C6343 STOP ADDMOD BYTE STOP CALLER "
		},
		"gasEstimates": {
			"creation": {
				"codeDepositCost": "691600",
				"executionCost": "infinite",
				"totalCost": "infinite"
			},
			"external": {
				"addNode(string)": "infinite",
				"checkTreasuryBalance()": "167",
				"deleteNode(string)": "infinite",
				"feedNodeRecord(address[],string[],uint256[])": "infinite",
				"fillTreasury()": "infinite",
				"owner()": "infinite"
			}
		},
		"methodIdentifiers": {
			"addNode(string)": "8994dd8e",
			"checkTreasuryBalance()": "0f138bfe",
			"deleteNode(string)": "a0c15b77",
			"feedNodeRecord(address[],string[],uint256[])": "2e31ddf1",
			"fillTreasury()": "0d8f7614",
			"owner()": "8da5cb5b"
		}
	},
	"abi": [
		{
			"inputs": [
				{
					"internalType": "address",
					"name": "_owner",
					"type": "address"
				}
			],
			"stateMutability": "nonpayable",
			"type": "constructor"
		},
		{
			"inputs": [
				{
					"internalType": "uint256",
					"name": "treasuryBallance",
					"type": "uint256"
				}
			],
			"name": "insuficentTrasuryBalance",
			"type": "error"
		},
		{
			"inputs": [
				{
					"internalType": "uint256",
					"name": "amount",
					"type": "uint256"
				}
			],
			"name": "invalidAmount",
			"type": "error"
		},
		{
			"inputs": [
				{
					"internalType": "uint256",
					"name": "fee",
					"type": "uint256"
				}
			],
			"name": "invalidFee",
			"type": "error"
		},
		{
			"inputs": [
				{
					"internalType": "uint256",
					"name": "addressLength",
					"type": "uint256"
				},
				{
					"internalType": "uint256",
					"name": "idsLength",
					"type": "uint256"
				},
				{
					"internalType": "uint256",
					"name": "amountsLength",
					"type": "uint256"
				}
			],
			"name": "lengthDontMatch",
			"type": "error"
		},
		{
			"inputs": [
				{
					"internalType": "bool",
					"name": "nodExist",
					"type": "bool"
				}
			],
			"name": "nodeNotExist",
			"type": "error"
		},
		{
			"inputs": [
				{
					"internalType": "uint256",
					"name": "addressLength",
					"type": "uint256"
				}
			],
			"name": "wrongAddressLength",
			"type": "error"
		},
		{
			"inputs": [
				{
					"internalType": "uint256",
					"name": "amountsLength",
					"type": "uint256"
				}
			],
			"name": "wrongAmountsLength",
			"type": "error"
		},
		{
			"inputs": [
				{
					"internalType": "uint256",
					"name": "idsLength",
					"type": "uint256"
				}
			],
			"name": "wrongIdsLength",
			"type": "error"
		},
		{
			"anonymous": false,
			"inputs": [
				{
					"indexed": false,
					"internalType": "string",
					"name": "nodeId",
					"type": "string"
				},
				{
					"indexed": true,
					"internalType": "address",
					"name": "userAddress",
					"type": "address"
				},
				{
					"indexed": false,
					"internalType": "uint256",
					"name": "stakedAmount",
					"type": "uint256"
				},
				{
					"indexed": false,
					"internalType": "uint256",
					"name": "totalStakedAmount",
					"type": "uint256"
				},
				{
					"indexed": false,
					"internalType": "bool",
					"name": "tokenStaked",
					"type": "bool"
				}
			],
			"name": "StakeEvent",
			"type": "event"
		},
		{
			"anonymous": false,
			"inputs": [
				{
					"indexed": true,
					"internalType": "address",
					"name": "sender",
					"type": "address"
				},
				{
					"indexed": false,
					"internalType": "uint256",
					"name": "value",
					"type": "uint256"
				}
			],
			"name": "Transferred",
			"type": "event"
		},
		{
			"inputs": [
				{
					"internalType": "string",
					"name": "_nodeId",
					"type": "string"
				}
			],
			"name": "addNode",
			"outputs": [],
			"stateMutability": "payable",
			"type": "function"
		},
		{
			"inputs": [],
			"name": "checkTreasuryBalance",
			"outputs": [
				{
					"internalType": "uint256",
					"name": "",
					"type": "uint256"
				}
			],
			"stateMutability": "view",
			"type": "function"
		},
		{
			"inputs": [
				{
					"internalType": "string",
					"name": "_nodeId",
					"type": "string"
				}
			],
			"name": "deleteNode",
			"outputs": [],
			"stateMutability": "nonpayable",
			"type": "function"
		},
		{
			"inputs": [
				{
					"internalType": "address[]",
					"name": "_userAddresses",
					"type": "address[]"
				},
				{
					"internalType": "string[]",
					"name": "_nodeIds",
					"type": "string[]"
				},
				{
					"internalType": "uint256[]",
					"name": "_stakedAmounts",
					"type": "uint256[]"
				}
			],
			"name": "feedNodeRecord",
			"outputs": [],
			"stateMutability": "nonpayable",
			"type": "function"
		},
		{
			"inputs": [],
			"name": "fillTreasury",
			"outputs": [],
			"stateMutability": "payable",
			"type": "function"
		},
		{
			"inputs": [],
			"name": "owner",
			"outputs": [
				{
					"internalType": "address",
					"name": "",
					"type": "address"
				}
			],
			"stateMutability": "view",
			"type": "function"
		},
		{
			"stateMutability": "payable",
			"type": "receive"
		}
	]
}