{
	"EthTesting.sol/storageChain.sol": {
		"StakingContract": {
			"abi": [
				{
					"inputs": [
						{
							"internalType": "address",
							"name": "_owner",
							"type": "address"
						}
					],
					"stateMutability": "nonpayable",
					"type": "constructor"
				},
				{
					"inputs": [],
					"name": "OnlyOwnerError",
					"type": "error"
				},
				{
					"inputs": [],
					"name": "ReentrancyError",
					"type": "error"
				},
				{
					"inputs": [
						{
							"internalType": "uint256",
							"name": "treasuryBallance",
							"type": "uint256"
						}
					],
					"name": "insuficentTrasuryBalance",
					"type": "error"
				},
				{
					"inputs": [
						{
							"internalType": "uint256",
							"name": "amount",
							"type": "uint256"
						}
					],
					"name": "invalidAmount",
					"type": "error"
				},
				{
					"inputs": [
						{
							"internalType": "uint256",
							"name": "fee",
							"type": "uint256"
						}
					],
					"name": "invalidFee",
					"type": "error"
				},
				{
					"inputs": [
						{
							"internalType": "uint256",
							"name": "addressLength",
							"type": "uint256"
						},
						{
							"internalType": "uint256",
							"name": "idsLength",
							"type": "uint256"
						},
						{
							"internalType": "uint256",
							"name": "amountsLength",
							"type": "uint256"
						}
					],
					"name": "lengthDontMatch",
					"type": "error"
				},
				{
					"inputs": [
						{
							"internalType": "bool",
							"name": "nodExist",
							"type": "bool"
						}
					],
					"name": "nodeNotExist",
					"type": "error"
				},
				{
					"inputs": [
						{
							"internalType": "bool",
							"name": "transfered",
							"type": "bool"
						}
					],
					"name": "withdrawFailed",
					"type": "error"
				},
				{
					"inputs": [
						{
							"internalType": "uint256",
							"name": "addressLength",
							"type": "uint256"
						}
					],
					"name": "wrongAddressLength",
					"type": "error"
				},
				{
					"inputs": [
						{
							"internalType": "uint256",
							"name": "amountsLength",
							"type": "uint256"
						}
					],
					"name": "wrongAmountsLength",
					"type": "error"
				},
				{
					"inputs": [
						{
							"internalType": "uint256",
							"name": "idsLength",
							"type": "uint256"
						}
					],
					"name": "wrongIdsLength",
					"type": "error"
				},
				{
					"anonymous": false,
					"inputs": [
						{
							"indexed": false,
							"internalType": "string",
							"name": "nodeId",
							"type": "string"
						},
						{
							"indexed": true,
							"internalType": "address",
							"name": "userAddress",
							"type": "address"
						},
						{
							"indexed": false,
							"internalType": "uint256",
							"name": "stakedAmount",
							"type": "uint256"
						},
						{
							"indexed": false,
							"internalType": "uint256",
							"name": "totalStakedAmount",
							"type": "uint256"
						},
						{
							"indexed": false,
							"internalType": "bool",
							"name": "tokenStaked",
							"type": "bool"
						}
					],
					"name": "StakeEvent",
					"type": "event"
				},
				{
					"anonymous": false,
					"inputs": [
						{
							"indexed": true,
							"internalType": "address",
							"name": "sender",
							"type": "address"
						},
						{
							"indexed": false,
							"internalType": "uint256",
							"name": "value",
							"type": "uint256"
						}
					],
					"name": "Transferred",
					"type": "event"
				},
				{
					"inputs": [
						{
							"internalType": "string",
							"name": "_nodeId",
							"type": "string"
						}
					],
					"name": "addNode",
					"outputs": [],
					"stateMutability": "payable",
					"type": "function"
				},
				{
					"inputs": [],
					"name": "checkTreasuryBalance",
					"outputs": [
						{
							"internalType": "uint256",
							"name": "",
							"type": "uint256"
						}
					],
					"stateMutability": "view",
					"type": "function"
				},
				{
					"inputs": [
						{
							"internalType": "string",
							"name": "_nodeId",
							"type": "string"
						}
					],
					"name": "deleteNode",
					"outputs": [],
					"stateMutability": "nonpayable",
					"type": "function"
				},
				{
					"inputs": [
						{
							"internalType": "address[]",
							"name": "_userAddresses",
							"type": "address[]"
						},
						{
							"internalType": "string[]",
							"name": "_nodeIds",
							"type": "string[]"
						},
						{
							"internalType": "uint256[]",
							"name": "_stakedAmounts",
							"type": "uint256[]"
						}
					],
					"name": "feedNodeRecord",
					"outputs": [],
					"stateMutability": "nonpayable",
					"type": "function"
				},
				{
					"inputs": [],
					"name": "fillTreasury",
					"outputs": [],
					"stateMutability": "payable",
					"type": "function"
				},
				{
					"inputs": [
						{
							"internalType": "address",
							"name": "_userAddress",
							"type": "address"
						}
					],
					"name": "getNodeIds",
					"outputs": [
						{
							"internalType": "string[]",
							"name": "",
							"type": "string[]"
						}
					],
					"stateMutability": "view",
					"type": "function"
				},
				{
					"inputs": [
						{
							"internalType": "address",
							"name": "_userAddress",
							"type": "address"
						},
						{
							"internalType": "string",
							"name": "_nodeId",
							"type": "string"
						}
					],
					"name": "getStakeAmountOfNode",
					"outputs": [
						{
							"internalType": "uint256",
							"name": "",
							"type": "uint256"
						}
					],
					"stateMutability": "view",
					"type": "function"
				},
				{
					"inputs": [
						{
							"internalType": "address",
							"name": "_userAddress",
							"type": "address"
						},
						{
							"internalType": "string",
							"name": "_nodeId",
							"type": "string"
						}
					],
					"name": "nodeExists",
					"outputs": [
						{
							"internalType": "bool",
							"name": "",
							"type": "bool"
						}
					],
					"stateMutability": "view",
					"type": "function"
				},
				{
					"inputs": [],
					"name": "owner",
					"outputs": [
						{
							"internalType": "address",
							"name": "",
							"type": "address"
						}
					],
					"stateMutability": "view",
					"type": "function"
				},
				{
					"inputs": [
						{
							"internalType": "address",
							"name": "_userAddress",
							"type": "address"
						}
					],
					"name": "totalStakedOfUser",
					"outputs": [
						{
							"internalType": "uint256",
							"name": "",
							"type": "uint256"
						}
					],
					"stateMutability": "view",
					"type": "function"
				},
				{
					"inputs": [],
					"name": "totalStakedStorCoins",
					"outputs": [
						{
							"internalType": "uint256",
							"name": "",
							"type": "uint256"
						}
					],
					"stateMutability": "view",
					"type": "function"
				},
				{
					"stateMutability": "payable",
					"type": "receive"
				}
			],
			"devdoc": {
				"kind": "dev",
				"methods": {
					"addNode(string)": {
						"details": "Adds a new node and stakes tokens to it.",
						"params": {
							"_nodeId": "The ID of the node to be added."
						}
					},
					"checkTreasuryBalance()": {
						"details": "Checks the contract's current treasury balance."
					},
					"deleteNode(string)": {
						"details": "Deletes an existing node and unstakes the associated tokens.",
						"params": {
							"_nodeId": "The ID of the node to be deleted."
						}
					},
					"feedNodeRecord(address[],string[],uint256[])": {
						"details": "Feeds old contract data into the new contract.",
						"params": {
							"_nodeIds": "Array of node IDs corresponding to users.",
							"_stakedAmounts": "Array of staked amounts corresponding to each node.",
							"_userAddresses": "Array of user addresses."
						}
					},
					"fillTreasury()": {
						"details": "Fills the contract treasury with funds."
					},
					"getNodeIds(address)": {
						"details": "Retrieves all node IDs associated with a specific user.",
						"params": {
							"_userAddress": "The address of the user."
						},
						"returns": {
							"_0": "An array of node IDs owned by the user."
						}
					},
					"getStakeAmountOfNode(address,string)": {
						"details": "Gets the staked amount for a specific node owned by a user.",
						"params": {
							"_nodeId": "The ID of the node.",
							"_userAddress": "The address of the user."
						},
						"returns": {
							"_0": "The staked amount for the given node."
						}
					},
					"nodeExists(address,string)": {
						"details": "Checks if a specific node exists for a given user.",
						"params": {
							"_nodeId": "The ID of the node to check.",
							"_userAddress": "The address of the user."
						},
						"returns": {
							"_0": "A boolean indicating if the node exists and is alive."
						}
					},
					"totalStakedOfUser(address)": {
						"details": "Gets the total staked amount for a specific user.",
						"params": {
							"_userAddress": "The address of the user."
						},
						"returns": {
							"_0": "The total staked amount by the user."
						}
					},
					"totalStakedStorCoins()": {
						"details": "Gets the total staked tokens across all users. Only the owner can view this value.",
						"returns": {
							"_0": "The total staked tokens in the contract."
						}
					}
				},
				"version": 1
			},
			"evm": {
				"assembly": "    /* \"EthTesting.sol/storageChain.sol\":60:7574  contract StakingContract  {... */\n  mstore(0x40, 0xa0)\n    /* \"EthTesting.sol/storageChain.sol\":1243:1302  constructor(address _owner) {... */\n  callvalue\n  dup1\n  iszero\n  tag_1\n  jumpi\n  0x00\n  dup1\n  revert\ntag_1:\n  pop\n  mload(0x40)\n  sub(codesize, bytecodeSize)\n  dup1\n  bytecodeSize\n  dup4\n  codecopy\n  dup2\n  add\n  0x40\n  dup2\n  swap1\n  mstore\n  tag_2\n  swap2\n  tag_3\n  jump\t// in\ntag_2:\n  sub(shl(0xa0, 0x01), 0x01)\n    /* \"EthTesting.sol/storageChain.sol\":1281:1295  owner = _owner */\n  and\n  0x80\n  mstore\n    /* \"EthTesting.sol/storageChain.sol\":60:7574  contract StakingContract  {... */\n  jump(tag_7)\n    /* \"#utility.yul\":14:304   */\ntag_3:\n    /* \"#utility.yul\":84:90   */\n  0x00\n    /* \"#utility.yul\":137:139   */\n  0x20\n    /* \"#utility.yul\":125:134   */\n  dup3\n    /* \"#utility.yul\":116:123   */\n  dup5\n    /* \"#utility.yul\":112:135   */\n  sub\n    /* \"#utility.yul\":108:140   */\n  slt\n    /* \"#utility.yul\":105:157   */\n  iszero\n  tag_9\n  jumpi\n    /* \"#utility.yul\":153:154   */\n  0x00\n    /* \"#utility.yul\":150:151   */\n  dup1\n    /* \"#utility.yul\":143:155   */\n  revert\n    /* \"#utility.yul\":105:157   */\ntag_9:\n    /* \"#utility.yul\":179:195   */\n  dup2\n  mload\n  sub(shl(0xa0, 0x01), 0x01)\n    /* \"#utility.yul\":224:255   */\n  dup2\n  and\n    /* \"#utility.yul\":214:256   */\n  dup2\n  eq\n    /* \"#utility.yul\":204:274   */\n  tag_10\n  jumpi\n    /* \"#utility.yul\":270:271   */\n  0x00\n    /* \"#utility.yul\":267:268   */\n  dup1\n    /* \"#utility.yul\":260:272   */\n  revert\n    /* \"#utility.yul\":204:274   */\ntag_10:\n    /* \"#utility.yul\":293:298   */\n  swap4\n    /* \"#utility.yul\":14:304   */\n  swap3\n  pop\n  pop\n  pop\n  jump\t// out\ntag_7:\n    /* \"EthTesting.sol/storageChain.sol\":60:7574  contract StakingContract  {... */\n  mload(0x80)\n  codecopy(0x00, dataOffset(sub_0), dataSize(sub_0))\n  0x00\n  assignImmutable(\"0x277ab82e5a4641341820a4a2933a62c1de997e42e92548657ae21b3728d580fe\")\n  return(0x00, dataSize(sub_0))\nstop\n\nsub_0: assembly {\n        /* \"EthTesting.sol/storageChain.sol\":60:7574  contract StakingContract  {... */\n      mstore(0x40, 0x80)\n      jumpi(tag_1, lt(calldatasize, 0x04))\n      shr(0xe0, calldataload(0x00))\n      dup1\n      0x4cd06072\n      gt\n      tag_14\n      jumpi\n      dup1\n      0x4cd06072\n      eq\n      tag_8\n      jumpi\n      dup1\n      0x764232bf\n      eq\n      tag_9\n      jumpi\n      dup1\n      0x83090407\n      eq\n      tag_10\n      jumpi\n      dup1\n      0x8994dd8e\n      eq\n      tag_11\n      jumpi\n      dup1\n      0x8da5cb5b\n      eq\n      tag_12\n      jumpi\n      dup1\n      0xa0c15b77\n      eq\n      tag_13\n      jumpi\n      0x00\n      dup1\n      revert\n    tag_14:\n      dup1\n      0x0d8f7614\n      eq\n      tag_3\n      jumpi\n      dup1\n      0x0f138bfe\n      eq\n      tag_4\n      jumpi\n      dup1\n      0x2e31ddf1\n      eq\n      tag_5\n      jumpi\n      dup1\n      0x2e4e2531\n      eq\n      tag_6\n      jumpi\n      dup1\n      0x4652e69b\n      eq\n      tag_7\n      jumpi\n      0x00\n      dup1\n      revert\n    tag_1:\n      jumpi(tag_2, calldatasize)\n        /* \"EthTesting.sol/storageChain.sol\":7287:7321  Transferred(msg.sender, msg.value) */\n      mload(0x40)\n        /* \"EthTesting.sol/storageChain.sol\":7311:7320  msg.value */\n      callvalue\n        /* \"#utility.yul\":160:185   */\n      dup2\n      mstore\n        /* \"EthTesting.sol/storageChain.sol\":7299:7309  msg.sender */\n      caller\n      swap1\n        /* \"EthTesting.sol/storageChain.sol\":7287:7321  Transferred(msg.sender, msg.value) */\n      0xe6d858f14d755446648a6e0c8ab8b5a0f58ccc7920d4c910b0454e4dcd869af0\n      swap1\n        /* \"#utility.yul\":148:150   */\n      0x20\n        /* \"#utility.yul\":133:151   */\n      add\n        /* \"EthTesting.sol/storageChain.sol\":7287:7321  Transferred(msg.sender, msg.value) */\n      mload(0x40)\n      dup1\n      swap2\n      sub\n      swap1\n      log2\n        /* \"EthTesting.sol/storageChain.sol\":60:7574  contract StakingContract  {... */\n      stop\n    tag_2:\n      0x00\n      dup1\n      revert\n        /* \"EthTesting.sol/storageChain.sol\":4984:5152  function fillTreasury() external payable onlyOwner {... */\n    tag_3:\n      tag_19\n      tag_20\n      jump\t// in\n    tag_19:\n      stop\n        /* \"EthTesting.sol/storageChain.sol\":5234:5343  function checkTreasuryBalance() external view returns (uint256) {... */\n    tag_4:\n      callvalue\n      dup1\n      iszero\n      tag_21\n      jumpi\n      0x00\n      dup1\n      revert\n    tag_21:\n      pop\n        /* \"EthTesting.sol/storageChain.sol\":5315:5336  address(this).balance */\n      selfbalance\n        /* \"EthTesting.sol/storageChain.sol\":5234:5343  function checkTreasuryBalance() external view returns (uint256) {... */\n    tag_22:\n      mload(0x40)\n        /* \"#utility.yul\":160:185   */\n      swap1\n      dup2\n      mstore\n        /* \"#utility.yul\":148:150   */\n      0x20\n        /* \"#utility.yul\":133:151   */\n      add\n        /* \"EthTesting.sol/storageChain.sol\":5234:5343  function checkTreasuryBalance() external view returns (uint256) {... */\n    tag_24:\n      mload(0x40)\n      dup1\n      swap2\n      sub\n      swap1\n      return\n        /* \"EthTesting.sol/storageChain.sol\":1587:2836  function feedNodeRecord(... */\n    tag_5:\n      callvalue\n      dup1\n      iszero\n      tag_25\n      jumpi\n      0x00\n      dup1\n      revert\n    tag_25:\n      pop\n      tag_19\n      tag_27\n      calldatasize\n      0x04\n      tag_28\n      jump\t// in\n    tag_27:\n      tag_29\n      jump\t// in\n        /* \"EthTesting.sol/storageChain.sol\":6594:6730  function getNodeIds(address _userAddress) external view returns (string[] memory) {... */\n    tag_6:\n      callvalue\n      dup1\n      iszero\n      tag_30\n      jumpi\n      0x00\n      dup1\n      revert\n    tag_30:\n      pop\n      tag_31\n      tag_32\n      calldatasize\n      0x04\n      tag_33\n      jump\t// in\n    tag_32:\n      tag_34\n      jump\t// in\n    tag_31:\n      mload(0x40)\n      tag_24\n      swap2\n      swap1\n      tag_36\n      jump\t// in\n        /* \"EthTesting.sol/storageChain.sol\":6970:7146  function getStakeAmountOfNode(address _userAddress, string memory _nodeId) external view returns (uint256) {... */\n    tag_7:\n      callvalue\n      dup1\n      iszero\n      tag_37\n      jumpi\n      0x00\n      dup1\n      revert\n    tag_37:\n      pop\n      tag_22\n      tag_39\n      calldatasize\n      0x04\n      tag_40\n      jump\t// in\n    tag_39:\n      tag_41\n      jump\t// in\n        /* \"EthTesting.sol/storageChain.sol\":5523:5638  function totalStakedStorCoins() external view onlyOwner returns (uint256) {... */\n    tag_8:\n      callvalue\n      dup1\n      iszero\n      tag_43\n      jumpi\n      0x00\n      dup1\n      revert\n    tag_43:\n      pop\n      tag_22\n      tag_45\n      jump\t// in\n        /* \"EthTesting.sol/storageChain.sol\":5894:6066  function nodeExists(address _userAddress, string memory _nodeId) external view onlyOwner returns (bool) {... */\n    tag_9:\n      callvalue\n      dup1\n      iszero\n      tag_47\n      jumpi\n      0x00\n      dup1\n      revert\n    tag_47:\n      pop\n      tag_48\n      tag_49\n      calldatasize\n      0x04\n      tag_40\n      jump\t// in\n    tag_49:\n      tag_50\n      jump\t// in\n    tag_48:\n      mload(0x40)\n        /* \"#utility.yul\":4397:4411   */\n      swap1\n      iszero\n        /* \"#utility.yul\":4390:4412   */\n      iszero\n        /* \"#utility.yul\":4372:4413   */\n      dup2\n      mstore\n        /* \"#utility.yul\":4360:4362   */\n      0x20\n        /* \"#utility.yul\":4345:4363   */\n      add\n        /* \"EthTesting.sol/storageChain.sol\":5894:6066  function nodeExists(address _userAddress, string memory _nodeId) external view onlyOwner returns (bool) {... */\n      tag_24\n        /* \"#utility.yul\":4232:4419   */\n      jump\n        /* \"EthTesting.sol/storageChain.sol\":6253:6398  function totalStakedOfUser(address _userAddress) external view returns (uint256) {... */\n    tag_10:\n      callvalue\n      dup1\n      iszero\n      tag_53\n      jumpi\n      0x00\n      dup1\n      revert\n    tag_53:\n      pop\n      tag_22\n      tag_55\n      calldatasize\n      0x04\n      tag_33\n      jump\t// in\n    tag_55:\n      sub(shl(0xa0, 0x01), 0x01)\n        /* \"EthTesting.sol/storageChain.sol\":6351:6373  userInfo[_userAddress] */\n      and\n        /* \"EthTesting.sol/storageChain.sol\":6325:6332  uint256 */\n      0x00\n        /* \"EthTesting.sol/storageChain.sol\":6351:6373  userInfo[_userAddress] */\n      swap1\n      dup2\n      mstore\n        /* \"EthTesting.sol/storageChain.sol\":6351:6359  userInfo */\n      0x02\n        /* \"EthTesting.sol/storageChain.sol\":6351:6373  userInfo[_userAddress] */\n      0x20\n      mstore\n      0x40\n      swap1\n      keccak256\n        /* \"EthTesting.sol/storageChain.sol\":6351:6391  userInfo[_userAddress].totalStakedAmount */\n      0x01\n      add\n      sload\n      swap1\n        /* \"EthTesting.sol/storageChain.sol\":6253:6398  function totalStakedOfUser(address _userAddress) external view returns (uint256) {... */\n      jump\n        /* \"EthTesting.sol/storageChain.sol\":2974:3607  function addNode(string calldata _nodeId) external payable {... */\n    tag_11:\n      tag_19\n      tag_59\n      calldatasize\n      0x04\n      tag_60\n      jump\t// in\n    tag_59:\n      tag_61\n      jump\t// in\n        /* \"EthTesting.sol/storageChain.sol\":297:327  address public immutable owner */\n    tag_12:\n      callvalue\n      dup1\n      iszero\n      tag_62\n      jumpi\n      0x00\n      dup1\n      revert\n    tag_62:\n      pop\n      tag_63\n      immutable(\"0x277ab82e5a4641341820a4a2933a62c1de997e42e92548657ae21b3728d580fe\")\n      dup2\n      jump\n    tag_63:\n      mload(0x40)\n      sub(shl(0xa0, 0x01), 0x01)\n        /* \"#utility.yul\":5180:5212   */\n      swap1\n      swap2\n      and\n        /* \"#utility.yul\":5162:5213   */\n      dup2\n      mstore\n        /* \"#utility.yul\":5150:5152   */\n      0x20\n        /* \"#utility.yul\":5135:5153   */\n      add\n        /* \"EthTesting.sol/storageChain.sol\":297:327  address public immutable owner */\n      tag_24\n        /* \"#utility.yul\":5016:5219   */\n      jump\n        /* \"EthTesting.sol/storageChain.sol\":3766:4909  function deleteNode(string calldata _nodeId) external nonReentrant {... */\n    tag_13:\n      callvalue\n      dup1\n      iszero\n      tag_67\n      jumpi\n      0x00\n      dup1\n      revert\n    tag_67:\n      pop\n      tag_19\n      tag_69\n      calldatasize\n      0x04\n      tag_60\n      jump\t// in\n    tag_69:\n      tag_70\n      jump\t// in\n        /* \"EthTesting.sol/storageChain.sol\":4984:5152  function fillTreasury() external payable onlyOwner {... */\n    tag_20:\n        /* \"EthTesting.sol/storageChain.sol\":7369:7379  msg.sender */\n      caller\n      sub(shl(0xa0, 0x01), 0x01)\n        /* \"EthTesting.sol/storageChain.sol\":7383:7388  owner */\n      immutable(\"0x277ab82e5a4641341820a4a2933a62c1de997e42e92548657ae21b3728d580fe\")\n        /* \"EthTesting.sol/storageChain.sol\":7369:7388  msg.sender != owner */\n      and\n      eq\n        /* \"EthTesting.sol/storageChain.sol\":7365:7413  if (msg.sender != owner) revert OnlyOwnerError() */\n      tag_72\n      jumpi\n        /* \"EthTesting.sol/storageChain.sol\":7397:7413  OnlyOwnerError() */\n      mload(0x40)\n      shl(0xe0, 0x65b48373)\n      dup2\n      mstore\n      0x04\n      add\n      mload(0x40)\n      dup1\n      swap2\n      sub\n      swap1\n      revert\n        /* \"EthTesting.sol/storageChain.sol\":7365:7413  if (msg.sender != owner) revert OnlyOwnerError() */\n    tag_72:\n        /* \"EthTesting.sol/storageChain.sol\":5062:5063  0 */\n      0x00\n        /* \"EthTesting.sol/storageChain.sol\":5049:5058  msg.value */\n      callvalue\n        /* \"EthTesting.sol/storageChain.sol\":5049:5063  msg.value <= 0 */\n      gt\n        /* \"EthTesting.sol/storageChain.sol\":5046:5096  if(msg.value <= 0) revert invalidAmount(msg.value) */\n      tag_74\n      jumpi\n        /* \"EthTesting.sol/storageChain.sol\":5072:5096  invalidAmount(msg.value) */\n      mload(0x40)\n      shl(0xe0, 0x2aa1cd8d)\n      dup2\n      mstore\n        /* \"EthTesting.sol/storageChain.sol\":5086:5095  msg.value */\n      callvalue\n        /* \"EthTesting.sol/storageChain.sol\":5072:5096  invalidAmount(msg.value) */\n      0x04\n      dup3\n      add\n        /* \"#utility.yul\":160:185   */\n      mstore\n        /* \"#utility.yul\":133:151   */\n      0x24\n      add\n        /* \"EthTesting.sol/storageChain.sol\":5072:5096  invalidAmount(msg.value) */\n    tag_75:\n      mload(0x40)\n      dup1\n      swap2\n      sub\n      swap1\n      revert\n        /* \"EthTesting.sol/storageChain.sol\":5046:5096  if(msg.value <= 0) revert invalidAmount(msg.value) */\n    tag_74:\n        /* \"EthTesting.sol/storageChain.sol\":5111:5145  Transferred(msg.sender, msg.value) */\n      mload(0x40)\n        /* \"EthTesting.sol/storageChain.sol\":5135:5144  msg.value */\n      callvalue\n        /* \"#utility.yul\":160:185   */\n      dup2\n      mstore\n        /* \"EthTesting.sol/storageChain.sol\":5123:5133  msg.sender */\n      caller\n      swap1\n        /* \"EthTesting.sol/storageChain.sol\":5111:5145  Transferred(msg.sender, msg.value) */\n      0xe6d858f14d755446648a6e0c8ab8b5a0f58ccc7920d4c910b0454e4dcd869af0\n      swap1\n        /* \"#utility.yul\":148:150   */\n      0x20\n        /* \"#utility.yul\":133:151   */\n      add\n        /* \"EthTesting.sol/storageChain.sol\":5111:5145  Transferred(msg.sender, msg.value) */\n      mload(0x40)\n      dup1\n      swap2\n      sub\n      swap1\n      log2\n        /* \"EthTesting.sol/storageChain.sol\":4984:5152  function fillTreasury() external payable onlyOwner {... */\n      jump\t// out\n        /* \"EthTesting.sol/storageChain.sol\":1587:2836  function feedNodeRecord(... */\n    tag_29:\n        /* \"EthTesting.sol/storageChain.sol\":7369:7379  msg.sender */\n      caller\n      sub(shl(0xa0, 0x01), 0x01)\n        /* \"EthTesting.sol/storageChain.sol\":7383:7388  owner */\n      immutable(\"0x277ab82e5a4641341820a4a2933a62c1de997e42e92548657ae21b3728d580fe\")\n        /* \"EthTesting.sol/storageChain.sol\":7369:7388  msg.sender != owner */\n      and\n      eq\n        /* \"EthTesting.sol/storageChain.sol\":7365:7413  if (msg.sender != owner) revert OnlyOwnerError() */\n      tag_79\n      jumpi\n        /* \"EthTesting.sol/storageChain.sol\":7397:7413  OnlyOwnerError() */\n      mload(0x40)\n      shl(0xe0, 0x65b48373)\n      dup2\n      mstore\n      0x04\n      add\n      mload(0x40)\n      dup1\n      swap2\n      sub\n      swap1\n      revert\n        /* \"EthTesting.sol/storageChain.sol\":7365:7413  if (msg.sender != owner) revert OnlyOwnerError() */\n    tag_79:\n        /* \"EthTesting.sol/storageChain.sol\":1774:1800  _userAddresses.length <= 0 */\n      dup5\n        /* \"EthTesting.sol/storageChain.sol\":1771:1874  if(_userAddresses.length <= 0){... */\n      tag_81\n      jumpi\n        /* \"EthTesting.sol/storageChain.sol\":1822:1863  wrongAddressLength(_userAddresses.length) */\n      mload(0x40)\n      shl(0xe1, 0x1bd00007)\n      dup2\n      mstore\n      0x04\n      dup2\n      add\n        /* \"#utility.yul\":160:185   */\n      dup7\n      swap1\n      mstore\n        /* \"#utility.yul\":133:151   */\n      0x24\n      add\n        /* \"EthTesting.sol/storageChain.sol\":1822:1863  wrongAddressLength(_userAddresses.length) */\n      tag_75\n        /* \"#utility.yul\":14:191   */\n      jump\n        /* \"EthTesting.sol/storageChain.sol\":1771:1874  if(_userAddresses.length <= 0){... */\n    tag_81:\n        /* \"EthTesting.sol/storageChain.sol\":1886:1906  _nodeIds.length <= 0 */\n      dup3\n        /* \"EthTesting.sol/storageChain.sol\":1883:1970  if(_nodeIds.length <= 0){... */\n      tag_83\n      jumpi\n        /* \"EthTesting.sol/storageChain.sol\":1928:1959  wrongIdsLength(_nodeIds.length) */\n      mload(0x40)\n      shl(0xe2, 0x179450c9)\n      dup2\n      mstore\n      0x04\n      dup2\n      add\n        /* \"#utility.yul\":160:185   */\n      dup5\n      swap1\n      mstore\n        /* \"#utility.yul\":133:151   */\n      0x24\n      add\n        /* \"EthTesting.sol/storageChain.sol\":1928:1959  wrongIdsLength(_nodeIds.length) */\n      tag_75\n        /* \"#utility.yul\":14:191   */\n      jump\n        /* \"EthTesting.sol/storageChain.sol\":1883:1970  if(_nodeIds.length <= 0){... */\n    tag_83:\n        /* \"EthTesting.sol/storageChain.sol\":1982:2008  _stakedAmounts.length <= 0 */\n      dup1\n        /* \"EthTesting.sol/storageChain.sol\":1979:2082  if(_stakedAmounts.length <= 0){... */\n      tag_85\n      jumpi\n        /* \"EthTesting.sol/storageChain.sol\":2030:2071  wrongAmountsLength(_stakedAmounts.length) */\n      mload(0x40)\n      shl(0xe3, 0x178ca9eb)\n      dup2\n      mstore\n      0x04\n      dup2\n      add\n        /* \"#utility.yul\":160:185   */\n      dup3\n      swap1\n      mstore\n        /* \"#utility.yul\":133:151   */\n      0x24\n      add\n        /* \"EthTesting.sol/storageChain.sol\":2030:2071  wrongAmountsLength(_stakedAmounts.length) */\n      tag_75\n        /* \"#utility.yul\":14:191   */\n      jump\n        /* \"EthTesting.sol/storageChain.sol\":1979:2082  if(_stakedAmounts.length <= 0){... */\n    tag_85:\n        /* \"EthTesting.sol/storageChain.sol\":2095:2135  _userAddresses.length != _nodeIds.length */\n      dup5\n      dup4\n      eq\n      dup1\n      iszero\n      swap1\n        /* \"EthTesting.sol/storageChain.sol\":2095:2179  _userAddresses.length != _nodeIds.length && _nodeIds.length != _stakedAmounts.length */\n      tag_87\n      jumpi\n      pop\n        /* \"EthTesting.sol/storageChain.sol\":2139:2179  _nodeIds.length != _stakedAmounts.length */\n      dup3\n      dup2\n      eq\n      iszero\n        /* \"EthTesting.sol/storageChain.sol\":2095:2179  _userAddresses.length != _nodeIds.length && _nodeIds.length != _stakedAmounts.length */\n    tag_87:\n        /* \"EthTesting.sol/storageChain.sol\":2092:2288  if(_userAddresses.length != _nodeIds.length && _nodeIds.length != _stakedAmounts.length){... */\n      iszero\n      tag_88\n      jumpi\n        /* \"EthTesting.sol/storageChain.sol\":2201:2277  lengthDontMatch(_userAddresses.length,_nodeIds.length,_stakedAmounts.length) */\n      mload(0x40)\n      shl(0xe0, 0x3d2832f9)\n      dup2\n      mstore\n      0x04\n      dup2\n      add\n        /* \"#utility.yul\":5426:5451   */\n      dup7\n      swap1\n      mstore\n        /* \"#utility.yul\":5467:5485   */\n      0x24\n      dup2\n      add\n        /* \"#utility.yul\":5460:5494   */\n      dup5\n      swap1\n      mstore\n        /* \"#utility.yul\":5510:5528   */\n      0x44\n      dup2\n      add\n        /* \"#utility.yul\":5503:5537   */\n      dup3\n      swap1\n      mstore\n        /* \"#utility.yul\":5399:5417   */\n      0x64\n      add\n        /* \"EthTesting.sol/storageChain.sol\":2201:2277  lengthDontMatch(_userAddresses.length,_nodeIds.length,_stakedAmounts.length) */\n      tag_75\n        /* \"#utility.yul\":5224:5543   */\n      jump\n        /* \"EthTesting.sol/storageChain.sol\":2092:2288  if(_userAddresses.length != _nodeIds.length && _nodeIds.length != _stakedAmounts.length){... */\n    tag_88:\n        /* \"EthTesting.sol/storageChain.sol\":2310:2316  uint i */\n      0x00\n        /* \"EthTesting.sol/storageChain.sol\":2305:2753  for (uint i = 0; i < _userAddresses.length; i++) {... */\n    tag_91:\n        /* \"EthTesting.sol/storageChain.sol\":2322:2347  i < _userAddresses.length */\n      dup6\n      dup2\n      lt\n        /* \"EthTesting.sol/storageChain.sol\":2305:2753  for (uint i = 0; i < _userAddresses.length; i++) {... */\n      iszero\n      tag_92\n      jumpi\n        /* \"EthTesting.sol/storageChain.sol\":2402:2416  _stakedAmounts */\n      dup3\n      dup3\n        /* \"EthTesting.sol/storageChain.sol\":2417:2418  i */\n      dup3\n        /* \"EthTesting.sol/storageChain.sol\":2402:2419  _stakedAmounts[i] */\n      dup2\n      dup2\n      lt\n      tag_95\n      jumpi\n      tag_95\n      tag_96\n      jump\t// in\n    tag_95:\n      swap1\n      pop\n      0x20\n      mul\n      add\n      calldataload\n        /* \"EthTesting.sol/storageChain.sol\":2381:2398  totalStakedTokens */\n      0x01\n      0x00\n        /* \"EthTesting.sol/storageChain.sol\":2381:2419  totalStakedTokens += _stakedAmounts[i] */\n      dup3\n      dup3\n      sload\n      tag_97\n      swap2\n      swap1\n      tag_98\n      jump\t// in\n    tag_97:\n      swap1\n      swap2\n      sstore\n      pop\n        /* \"EthTesting.sol/storageChain.sol\":2446:2454  userInfo */\n      0x02\n      swap1\n      pop\n        /* \"EthTesting.sol/storageChain.sol\":2446:2473  userInfo[_userAddresses[i]] */\n      0x00\n        /* \"EthTesting.sol/storageChain.sol\":2455:2469  _userAddresses */\n      dup9\n      dup9\n        /* \"EthTesting.sol/storageChain.sol\":2470:2471  i */\n      dup5\n        /* \"EthTesting.sol/storageChain.sol\":2455:2472  _userAddresses[i] */\n      dup2\n      dup2\n      lt\n      tag_100\n      jumpi\n      tag_100\n      tag_96\n      jump\t// in\n    tag_100:\n      swap1\n      pop\n      0x20\n      mul\n      add\n      0x20\n      dup2\n      add\n      swap1\n      tag_101\n      swap2\n      swap1\n      tag_33\n      jump\t// in\n    tag_101:\n      sub(shl(0xa0, 0x01), 0x01)\n        /* \"EthTesting.sol/storageChain.sol\":2446:2473  userInfo[_userAddresses[i]] */\n      and\n      dup2\n      mstore\n      0x20\n      dup2\n      add\n      swap2\n      swap1\n      swap2\n      mstore\n      0x40\n      add\n      0x00\n      keccak256\n        /* \"EthTesting.sol/storageChain.sol\":2487:2495  _nodeIds */\n      dup6\n      dup6\n        /* \"EthTesting.sol/storageChain.sol\":2496:2497  i */\n      dup4\n        /* \"EthTesting.sol/storageChain.sol\":2487:2498  _nodeIds[i] */\n      dup2\n      dup2\n      lt\n      tag_103\n      jumpi\n      tag_103\n      tag_96\n      jump\t// in\n    tag_103:\n      swap1\n      pop\n      0x20\n      mul\n      dup2\n      add\n      swap1\n      tag_104\n      swap2\n      swap1\n      tag_105\n      jump\t// in\n    tag_104:\n        /* \"EthTesting.sol/storageChain.sol\":2446:2499  userInfo[_userAddresses[i]].nodeIds.push(_nodeIds[i]) */\n      dup3\n      sload\n      0x01\n      dup2\n      add\n      dup5\n      sstore\n      0x00\n      swap4\n      dup5\n      mstore\n      0x20\n      swap1\n      swap4\n      keccak256\n      swap1\n      swap3\n      add\n      swap2\n      tag_107\n      swap2\n      dup4\n      tag_108\n      jump\t// in\n    tag_107:\n      pop\n        /* \"EthTesting.sol/storageChain.sol\":2562:2576  _stakedAmounts */\n      dup3\n      dup3\n        /* \"EthTesting.sol/storageChain.sol\":2577:2578  i */\n      dup3\n        /* \"EthTesting.sol/storageChain.sol\":2562:2579  _stakedAmounts[i] */\n      dup2\n      dup2\n      lt\n      tag_110\n      jumpi\n      tag_110\n      tag_96\n      jump\t// in\n    tag_110:\n      swap1\n      pop\n      0x20\n      mul\n      add\n      calldataload\n        /* \"EthTesting.sol/storageChain.sol\":2513:2521  userInfo */\n      0x02\n        /* \"EthTesting.sol/storageChain.sol\":2513:2540  userInfo[_userAddresses[i]] */\n      0x00\n        /* \"EthTesting.sol/storageChain.sol\":2522:2536  _userAddresses */\n      dup10\n      dup10\n        /* \"EthTesting.sol/storageChain.sol\":2537:2538  i */\n      dup6\n        /* \"EthTesting.sol/storageChain.sol\":2522:2539  _userAddresses[i] */\n      dup2\n      dup2\n      lt\n      tag_112\n      jumpi\n      tag_112\n      tag_96\n      jump\t// in\n    tag_112:\n      swap1\n      pop\n      0x20\n      mul\n      add\n      0x20\n      dup2\n      add\n      swap1\n      tag_113\n      swap2\n      swap1\n      tag_33\n      jump\t// in\n    tag_113:\n      sub(shl(0xa0, 0x01), 0x01)\n        /* \"EthTesting.sol/storageChain.sol\":2513:2540  userInfo[_userAddresses[i]] */\n      and\n      sub(shl(0xa0, 0x01), 0x01)\n      and\n      dup2\n      mstore\n      0x20\n      add\n      swap1\n      dup2\n      mstore\n      0x20\n      add\n      0x00\n      keccak256\n        /* \"EthTesting.sol/storageChain.sol\":2513:2558  userInfo[_userAddresses[i]].totalStakedAmount */\n      0x01\n      add\n      0x00\n        /* \"EthTesting.sol/storageChain.sol\":2513:2579  userInfo[_userAddresses[i]].totalStakedAmount += _stakedAmounts[i] */\n      dup3\n      dup3\n      sload\n      tag_114\n      swap2\n      swap1\n      tag_98\n      jump\t// in\n    tag_114:\n      swap1\n      swap2\n      sstore\n      pop\n        /* \"EthTesting.sol/storageChain.sol\":2650:2664  _stakedAmounts */\n      dup4\n      swap1\n      pop\n      dup3\n        /* \"EthTesting.sol/storageChain.sol\":2665:2666  i */\n      dup3\n        /* \"EthTesting.sol/storageChain.sol\":2650:2667  _stakedAmounts[i] */\n      dup2\n      dup2\n      lt\n      tag_116\n      jumpi\n      tag_116\n      tag_96\n      jump\t// in\n    tag_116:\n      swap1\n      pop\n      0x20\n      mul\n      add\n      calldataload\n        /* \"EthTesting.sol/storageChain.sol\":2593:2602  stakeInfo */\n      0x03\n        /* \"EthTesting.sol/storageChain.sol\":2593:2621  stakeInfo[_userAddresses[i]] */\n      0x00\n        /* \"EthTesting.sol/storageChain.sol\":2603:2617  _userAddresses */\n      dup10\n      dup10\n        /* \"EthTesting.sol/storageChain.sol\":2618:2619  i */\n      dup6\n        /* \"EthTesting.sol/storageChain.sol\":2603:2620  _userAddresses[i] */\n      dup2\n      dup2\n      lt\n      tag_118\n      jumpi\n      tag_118\n      tag_96\n      jump\t// in\n    tag_118:\n      swap1\n      pop\n      0x20\n      mul\n      add\n      0x20\n      dup2\n      add\n      swap1\n      tag_119\n      swap2\n      swap1\n      tag_33\n      jump\t// in\n    tag_119:\n      sub(shl(0xa0, 0x01), 0x01)\n        /* \"EthTesting.sol/storageChain.sol\":2593:2621  stakeInfo[_userAddresses[i]] */\n      and\n      sub(shl(0xa0, 0x01), 0x01)\n      and\n      dup2\n      mstore\n      0x20\n      add\n      swap1\n      dup2\n      mstore\n      0x20\n      add\n      0x00\n      keccak256\n        /* \"EthTesting.sol/storageChain.sol\":2622:2630  _nodeIds */\n      dup7\n      dup7\n        /* \"EthTesting.sol/storageChain.sol\":2631:2632  i */\n      dup5\n        /* \"EthTesting.sol/storageChain.sol\":2622:2633  _nodeIds[i] */\n      dup2\n      dup2\n      lt\n      tag_121\n      jumpi\n      tag_121\n      tag_96\n      jump\t// in\n    tag_121:\n      swap1\n      pop\n      0x20\n      mul\n      dup2\n      add\n      swap1\n      tag_122\n      swap2\n      swap1\n      tag_105\n      jump\t// in\n    tag_122:\n        /* \"EthTesting.sol/storageChain.sol\":2593:2634  stakeInfo[_userAddresses[i]][_nodeIds[i]] */\n      mload(0x40)\n      tag_123\n      swap3\n      swap2\n      swap1\n      tag_124\n      jump\t// in\n    tag_123:\n      swap1\n      dup2\n      mstore\n      0x20\n      add\n      mload(0x40)\n      dup1\n      swap2\n      sub\n      swap1\n      keccak256\n        /* \"EthTesting.sol/storageChain.sol\":2593:2647  stakeInfo[_userAddresses[i]][_nodeIds[i]].stakedAmount */\n      0x01\n      add\n        /* \"EthTesting.sol/storageChain.sol\":2593:2667  stakeInfo[_userAddresses[i]][_nodeIds[i]].stakedAmount = _stakedAmounts[i] */\n      dup2\n      swap1\n      sstore\n      pop\n        /* \"EthTesting.sol/storageChain.sol\":2737:2741  true */\n      0x01\n        /* \"EthTesting.sol/storageChain.sol\":2681:2690  stakeInfo */\n      0x03\n        /* \"EthTesting.sol/storageChain.sol\":2681:2709  stakeInfo[_userAddresses[i]] */\n      0x00\n        /* \"EthTesting.sol/storageChain.sol\":2691:2705  _userAddresses */\n      dup10\n      dup10\n        /* \"EthTesting.sol/storageChain.sol\":2706:2707  i */\n      dup6\n        /* \"EthTesting.sol/storageChain.sol\":2691:2708  _userAddresses[i] */\n      dup2\n      dup2\n      lt\n      tag_126\n      jumpi\n      tag_126\n      tag_96\n      jump\t// in\n    tag_126:\n      swap1\n      pop\n      0x20\n      mul\n      add\n      0x20\n      dup2\n      add\n      swap1\n      tag_127\n      swap2\n      swap1\n      tag_33\n      jump\t// in\n    tag_127:\n      sub(shl(0xa0, 0x01), 0x01)\n        /* \"EthTesting.sol/storageChain.sol\":2681:2709  stakeInfo[_userAddresses[i]] */\n      and\n      sub(shl(0xa0, 0x01), 0x01)\n      and\n      dup2\n      mstore\n      0x20\n      add\n      swap1\n      dup2\n      mstore\n      0x20\n      add\n      0x00\n      keccak256\n        /* \"EthTesting.sol/storageChain.sol\":2710:2718  _nodeIds */\n      dup7\n      dup7\n        /* \"EthTesting.sol/storageChain.sol\":2719:2720  i */\n      dup5\n        /* \"EthTesting.sol/storageChain.sol\":2710:2721  _nodeIds[i] */\n      dup2\n      dup2\n      lt\n      tag_129\n      jumpi\n      tag_129\n      tag_96\n      jump\t// in\n    tag_129:\n      swap1\n      pop\n      0x20\n      mul\n      dup2\n      add\n      swap1\n      tag_130\n      swap2\n      swap1\n      tag_105\n      jump\t// in\n    tag_130:\n        /* \"EthTesting.sol/storageChain.sol\":2681:2722  stakeInfo[_userAddresses[i]][_nodeIds[i]] */\n      mload(0x40)\n      tag_131\n      swap3\n      swap2\n      swap1\n      tag_124\n      jump\t// in\n    tag_131:\n      swap1\n      dup2\n      mstore\n      mload(0x40)\n      swap1\n      dup2\n      swap1\n      sub\n      0x20\n      add\n      swap1\n      keccak256\n        /* \"EthTesting.sol/storageChain.sol\":2681:2741  stakeInfo[_userAddresses[i]][_nodeIds[i]].isNodeAlive = true */\n      dup1\n      sload\n      swap2\n      iszero\n      iszero\n      not(0xff)\n      swap1\n      swap3\n      and\n      swap2\n      swap1\n      swap2\n      or\n      swap1\n      sstore\n      0x01\n        /* \"EthTesting.sol/storageChain.sol\":2349:2352  i++ */\n      add\n        /* \"EthTesting.sol/storageChain.sol\":2305:2753  for (uint i = 0; i < _userAddresses.length; i++) {... */\n      jump(tag_91)\n    tag_92:\n      pop\n        /* \"EthTesting.sol/storageChain.sol\":2768:2829  StakeEvent(\"Node stake info updated\", address(0), 0, 0, true) */\n      0x40\n      dup1\n      mload\n        /* \"#utility.yul\":9451:9454   */\n      0x80\n        /* \"#utility.yul\":9433:9455   */\n      dup1\n      dup3\n      mstore\n        /* \"#utility.yul\":9492:9494   */\n      0x17\n        /* \"#utility.yul\":9471:9490   */\n      swap1\n      dup3\n      add\n        /* \"#utility.yul\":9464:9495   */\n      mstore\n        /* \"#utility.yul\":9532:9557   */\n      0x4e6f6465207374616b6520696e666f2075706461746564000000000000000000\n        /* \"#utility.yul\":9526:9529   */\n      0xa0\n        /* \"#utility.yul\":9511:9530   */\n      dup3\n      add\n        /* \"#utility.yul\":9504:9558   */\n      mstore\n        /* \"EthTesting.sol/storageChain.sol\":2814:2815  0 */\n      0x00\n        /* \"#utility.yul\":9625:9629   */\n      0x20\n        /* \"#utility.yul\":9610:9630   */\n      dup3\n      add\n        /* \"#utility.yul\":9603:9639   */\n      dup2\n      swap1\n      mstore\n        /* \"#utility.yul\":9655:9673   */\n      swap2\n      dup2\n      add\n        /* \"#utility.yul\":9648:9682   */\n      dup3\n      swap1\n      mstore\n        /* \"EthTesting.sol/storageChain.sol\":2824:2828  true */\n      0x01\n      0x60\n        /* \"#utility.yul\":9698:9716   */\n      dup3\n      add\n        /* \"#utility.yul\":9691:9741   */\n      mstore\n        /* \"EthTesting.sol/storageChain.sol\":2768:2829  StakeEvent(\"Node stake info updated\", address(0), 0, 0, true) */\n      0x5f0fdd6f33919218d99e95dadeb52206af20443cd68b7711230c6d19282e4e2b\n      swap1\n        /* \"#utility.yul\":9590:9593   */\n      0xc0\n        /* \"#utility.yul\":9575:9594   */\n      add\n        /* \"EthTesting.sol/storageChain.sol\":2768:2829  StakeEvent(\"Node stake info updated\", address(0), 0, 0, true) */\n      mload(0x40)\n      dup1\n      swap2\n      sub\n      swap1\n      log2\n        /* \"EthTesting.sol/storageChain.sol\":1587:2836  function feedNodeRecord(... */\n      pop\n      pop\n      pop\n      pop\n      pop\n      pop\n      jump\t// out\n        /* \"EthTesting.sol/storageChain.sol\":6594:6730  function getNodeIds(address _userAddress) external view returns (string[] memory) {... */\n    tag_34:\n      sub(shl(0xa0, 0x01), 0x01)\n        /* \"EthTesting.sol/storageChain.sol\":6693:6715  userInfo[_userAddress] */\n      dup2\n      and\n      0x00\n      swap1\n      dup2\n      mstore\n        /* \"EthTesting.sol/storageChain.sol\":6693:6701  userInfo */\n      0x02\n        /* \"EthTesting.sol/storageChain.sol\":6693:6715  userInfo[_userAddress] */\n      0x20\n      swap1\n      dup2\n      mstore\n      0x40\n      dup1\n      dup4\n      keccak256\n        /* \"EthTesting.sol/storageChain.sol\":6686:6723  return userInfo[_userAddress].nodeIds */\n      dup1\n      sload\n      dup3\n      mload\n      dup2\n      dup6\n      mul\n      dup2\n      add\n      dup6\n      add\n      swap1\n      swap4\n      mstore\n      dup1\n      dup4\n      mstore\n        /* \"EthTesting.sol/storageChain.sol\":6659:6674  string[] memory */\n      0x60\n      swap5\n        /* \"EthTesting.sol/storageChain.sol\":6686:6723  return userInfo[_userAddress].nodeIds */\n      swap3\n      swap4\n        /* \"EthTesting.sol/storageChain.sol\":6693:6715  userInfo[_userAddress] */\n      swap2\n      swap3\n        /* \"EthTesting.sol/storageChain.sol\":6686:6723  return userInfo[_userAddress].nodeIds */\n      swap1\n      swap2\n      dup5\n      add\n    tag_135:\n      dup3\n      dup3\n      lt\n      iszero\n      tag_136\n      jumpi\n      dup4\n      dup3\n      swap1\n      0x00\n      mstore\n      keccak256(0x00, 0x20)\n      add\n      dup1\n      sload\n      tag_138\n      swap1\n      tag_139\n      jump\t// in\n    tag_138:\n      dup1\n      0x1f\n      add\n      0x20\n      dup1\n      swap2\n      div\n      mul\n      0x20\n      add\n      mload(0x40)\n      swap1\n      dup2\n      add\n      0x40\n      mstore\n      dup1\n      swap3\n      swap2\n      swap1\n      dup2\n      dup2\n      mstore\n      0x20\n      add\n      dup3\n      dup1\n      sload\n      tag_140\n      swap1\n      tag_139\n      jump\t// in\n    tag_140:\n      dup1\n      iszero\n      tag_141\n      jumpi\n      dup1\n      0x1f\n      lt\n      tag_142\n      jumpi\n      0x0100\n      dup1\n      dup4\n      sload\n      div\n      mul\n      dup4\n      mstore\n      swap2\n      0x20\n      add\n      swap2\n      jump(tag_141)\n    tag_142:\n      dup3\n      add\n      swap2\n      swap1\n      0x00\n      mstore\n      keccak256(0x00, 0x20)\n      swap1\n    tag_143:\n      dup2\n      sload\n      dup2\n      mstore\n      swap1\n      0x01\n      add\n      swap1\n      0x20\n      add\n      dup1\n      dup4\n      gt\n      tag_143\n      jumpi\n      dup3\n      swap1\n      sub\n      0x1f\n      and\n      dup3\n      add\n      swap2\n    tag_141:\n      pop\n      pop\n      pop\n      pop\n      pop\n      dup2\n      mstore\n      0x20\n      add\n      swap1\n      0x01\n      add\n      swap1\n      jump(tag_135)\n    tag_136:\n      pop\n      pop\n      pop\n      pop\n      swap1\n      pop\n        /* \"EthTesting.sol/storageChain.sol\":6594:6730  function getNodeIds(address _userAddress) external view returns (string[] memory) {... */\n      swap2\n      swap1\n      pop\n      jump\t// out\n        /* \"EthTesting.sol/storageChain.sol\":6970:7146  function getStakeAmountOfNode(address _userAddress, string memory _nodeId) external view returns (uint256) {... */\n    tag_41:\n      sub(shl(0xa0, 0x01), 0x01)\n        /* \"EthTesting.sol/storageChain.sol\":7094:7117  stakeInfo[_userAddress] */\n      dup3\n      and\n        /* \"EthTesting.sol/storageChain.sol\":7068:7075  uint256 */\n      0x00\n        /* \"EthTesting.sol/storageChain.sol\":7094:7117  stakeInfo[_userAddress] */\n      swap1\n      dup2\n      mstore\n        /* \"EthTesting.sol/storageChain.sol\":7094:7103  stakeInfo */\n      0x03\n        /* \"EthTesting.sol/storageChain.sol\":7094:7117  stakeInfo[_userAddress] */\n      0x20\n      mstore\n      0x40\n      dup1\n      dup3\n      keccak256\n        /* \"EthTesting.sol/storageChain.sol\":7094:7126  stakeInfo[_userAddress][_nodeId] */\n      swap1\n      mload\n      tag_145\n      swap1\n        /* \"EthTesting.sol/storageChain.sol\":7118:7125  _nodeId */\n      dup5\n      swap1\n        /* \"EthTesting.sol/storageChain.sol\":7094:7126  stakeInfo[_userAddress][_nodeId] */\n      tag_146\n      jump\t// in\n    tag_145:\n      swap1\n      dup2\n      mstore\n      0x20\n      add\n      mload(0x40)\n      dup1\n      swap2\n      sub\n      swap1\n      keccak256\n        /* \"EthTesting.sol/storageChain.sol\":7094:7139  stakeInfo[_userAddress][_nodeId].stakedAmount */\n      0x01\n      add\n      sload\n        /* \"EthTesting.sol/storageChain.sol\":7087:7139  return stakeInfo[_userAddress][_nodeId].stakedAmount */\n      swap1\n      pop\n        /* \"EthTesting.sol/storageChain.sol\":6970:7146  function getStakeAmountOfNode(address _userAddress, string memory _nodeId) external view returns (uint256) {... */\n    tag_144:\n      swap3\n      swap2\n      pop\n      pop\n      jump\t// out\n        /* \"EthTesting.sol/storageChain.sol\":5523:5638  function totalStakedStorCoins() external view onlyOwner returns (uint256) {... */\n    tag_45:\n        /* \"EthTesting.sol/storageChain.sol\":5588:5595  uint256 */\n      0x00\n        /* \"EthTesting.sol/storageChain.sol\":7369:7379  msg.sender */\n      caller\n      sub(shl(0xa0, 0x01), 0x01)\n        /* \"EthTesting.sol/storageChain.sol\":7383:7388  owner */\n      immutable(\"0x277ab82e5a4641341820a4a2933a62c1de997e42e92548657ae21b3728d580fe\")\n        /* \"EthTesting.sol/storageChain.sol\":7369:7388  msg.sender != owner */\n      and\n      eq\n        /* \"EthTesting.sol/storageChain.sol\":7365:7413  if (msg.sender != owner) revert OnlyOwnerError() */\n      tag_148\n      jumpi\n        /* \"EthTesting.sol/storageChain.sol\":7397:7413  OnlyOwnerError() */\n      mload(0x40)\n      shl(0xe0, 0x65b48373)\n      dup2\n      mstore\n      0x04\n      add\n      mload(0x40)\n      dup1\n      swap2\n      sub\n      swap1\n      revert\n        /* \"EthTesting.sol/storageChain.sol\":7365:7413  if (msg.sender != owner) revert OnlyOwnerError() */\n    tag_148:\n      pop\n        /* \"EthTesting.sol/storageChain.sol\":5614:5631  totalStakedTokens */\n      sload(0x01)\n        /* \"EthTesting.sol/storageChain.sol\":5523:5638  function totalStakedStorCoins() external view onlyOwner returns (uint256) {... */\n      swap1\n      jump\t// out\n        /* \"EthTesting.sol/storageChain.sol\":5894:6066  function nodeExists(address _userAddress, string memory _nodeId) external view onlyOwner returns (bool) {... */\n    tag_50:\n        /* \"EthTesting.sol/storageChain.sol\":5992:5996  bool */\n      0x00\n        /* \"EthTesting.sol/storageChain.sol\":7369:7379  msg.sender */\n      caller\n      sub(shl(0xa0, 0x01), 0x01)\n        /* \"EthTesting.sol/storageChain.sol\":7383:7388  owner */\n      immutable(\"0x277ab82e5a4641341820a4a2933a62c1de997e42e92548657ae21b3728d580fe\")\n        /* \"EthTesting.sol/storageChain.sol\":7369:7388  msg.sender != owner */\n      and\n      eq\n        /* \"EthTesting.sol/storageChain.sol\":7365:7413  if (msg.sender != owner) revert OnlyOwnerError() */\n      tag_151\n      jumpi\n        /* \"EthTesting.sol/storageChain.sol\":7397:7413  OnlyOwnerError() */\n      mload(0x40)\n      shl(0xe0, 0x65b48373)\n      dup2\n      mstore\n      0x04\n      add\n      mload(0x40)\n      dup1\n      swap2\n      sub\n      swap1\n      revert\n        /* \"EthTesting.sol/storageChain.sol\":7365:7413  if (msg.sender != owner) revert OnlyOwnerError() */\n    tag_151:\n      sub(shl(0xa0, 0x01), 0x01)\n        /* \"EthTesting.sol/storageChain.sol\":6015:6038  stakeInfo[_userAddress] */\n      dup4\n      and\n      0x00\n      swap1\n      dup2\n      mstore\n        /* \"EthTesting.sol/storageChain.sol\":6015:6024  stakeInfo */\n      0x03\n        /* \"EthTesting.sol/storageChain.sol\":6015:6038  stakeInfo[_userAddress] */\n      0x20\n      mstore\n      0x40\n      swap1\n      dup2\n      swap1\n      keccak256\n        /* \"EthTesting.sol/storageChain.sol\":6015:6047  stakeInfo[_userAddress][_nodeId] */\n      swap1\n      mload\n      tag_153\n      swap1\n        /* \"EthTesting.sol/storageChain.sol\":6039:6046  _nodeId */\n      dup5\n      swap1\n        /* \"EthTesting.sol/storageChain.sol\":6015:6047  stakeInfo[_userAddress][_nodeId] */\n      tag_146\n      jump\t// in\n    tag_153:\n      swap1\n      dup2\n      mstore\n      mload(0x40)\n      swap1\n      dup2\n      swap1\n      sub\n      0x20\n      add\n      swap1\n      keccak256\n        /* \"EthTesting.sol/storageChain.sol\":6015:6059  stakeInfo[_userAddress][_nodeId].isNodeAlive */\n      sload\n      0xff\n      and\n      swap1\n      pop\n        /* \"EthTesting.sol/storageChain.sol\":5894:6066  function nodeExists(address _userAddress, string memory _nodeId) external view onlyOwner returns (bool) {... */\n      swap3\n      swap2\n      pop\n      pop\n      jump\t// out\n        /* \"EthTesting.sol/storageChain.sol\":2974:3607  function addNode(string calldata _nodeId) external payable {... */\n    tag_61:\n        /* \"EthTesting.sol/storageChain.sol\":3068:3074  50 wei */\n      0x32\n        /* \"EthTesting.sol/storageChain.sol\":3055:3064  msg.value */\n      callvalue\n        /* \"EthTesting.sol/storageChain.sol\":3055:3074  msg.value <= 50 wei */\n      gt\n        /* \"EthTesting.sol/storageChain.sol\":3052:3128  if(msg.value <= 50 wei){... */\n      tag_156\n      jumpi\n        /* \"EthTesting.sol/storageChain.sol\":3096:3117  invalidFee(msg.value) */\n      mload(0x40)\n      shl(0xe0, 0x85d649f7)\n      dup2\n      mstore\n        /* \"EthTesting.sol/storageChain.sol\":3107:3116  msg.value */\n      callvalue\n        /* \"EthTesting.sol/storageChain.sol\":3096:3117  invalidFee(msg.value) */\n      0x04\n      dup3\n      add\n        /* \"#utility.yul\":160:185   */\n      mstore\n        /* \"#utility.yul\":133:151   */\n      0x24\n      add\n        /* \"EthTesting.sol/storageChain.sol\":3096:3117  invalidFee(msg.value) */\n      tag_75\n        /* \"#utility.yul\":14:191   */\n      jump\n        /* \"EthTesting.sol/storageChain.sol\":3052:3128  if(msg.value <= 50 wei){... */\n    tag_156:\n        /* \"EthTesting.sol/storageChain.sol\":3167:3176  msg.value */\n      callvalue\n        /* \"EthTesting.sol/storageChain.sol\":3146:3163  totalStakedTokens */\n      0x01\n      0x00\n        /* \"EthTesting.sol/storageChain.sol\":3146:3176  totalStakedTokens += msg.value */\n      dup3\n      dup3\n      sload\n      tag_158\n      swap2\n      swap1\n      tag_98\n      jump\t// in\n    tag_158:\n      swap1\n      swap2\n      sstore\n      pop\n      pop\n        /* \"EthTesting.sol/storageChain.sol\":3196:3206  msg.sender */\n      caller\n        /* \"EthTesting.sol/storageChain.sol\":3187:3207  userInfo[msg.sender] */\n      0x00\n      swap1\n      dup2\n      mstore\n        /* \"EthTesting.sol/storageChain.sol\":3187:3195  userInfo */\n      0x02\n        /* \"EthTesting.sol/storageChain.sol\":3187:3207  userInfo[msg.sender] */\n      0x20\n      swap1\n      dup2\n      mstore\n      0x40\n      dup3\n      keccak256\n        /* \"EthTesting.sol/storageChain.sol\":3187:3229  userInfo[msg.sender].nodeIds.push(_nodeId) */\n      dup1\n      sload\n      0x01\n      dup2\n      add\n      dup3\n      sstore\n      swap1\n      dup4\n      mstore\n      swap2\n      keccak256\n      add\n      tag_160\n        /* \"EthTesting.sol/storageChain.sol\":3221:3228  _nodeId */\n      dup3\n      dup5\n        /* \"EthTesting.sol/storageChain.sol\":3187:3229  userInfo[msg.sender].nodeIds.push(_nodeId) */\n      dup4\n      tag_108\n      jump\t// in\n    tag_160:\n      pop\n        /* \"EthTesting.sol/storageChain.sol\":3248:3258  msg.sender */\n      caller\n        /* \"EthTesting.sol/storageChain.sol\":3239:3259  userInfo[msg.sender] */\n      0x00\n      swap1\n      dup2\n      mstore\n        /* \"EthTesting.sol/storageChain.sol\":3239:3247  userInfo */\n      0x02\n        /* \"EthTesting.sol/storageChain.sol\":3239:3259  userInfo[msg.sender] */\n      0x20\n      mstore\n      0x40\n      dup2\n      keccak256\n        /* \"EthTesting.sol/storageChain.sol\":3239:3277  userInfo[msg.sender].totalStakedAmount */\n      0x01\n      add\n        /* \"EthTesting.sol/storageChain.sol\":3239:3290  userInfo[msg.sender].totalStakedAmount += msg.value */\n      dup1\n      sload\n        /* \"EthTesting.sol/storageChain.sol\":3281:3290  msg.value */\n      callvalue\n      swap3\n        /* \"EthTesting.sol/storageChain.sol\":3239:3259  userInfo[msg.sender] */\n      swap1\n        /* \"EthTesting.sol/storageChain.sol\":3239:3290  userInfo[msg.sender].totalStakedAmount += msg.value */\n      tag_161\n      swap1\n        /* \"EthTesting.sol/storageChain.sol\":3281:3290  msg.value */\n      dup5\n      swap1\n        /* \"EthTesting.sol/storageChain.sol\":3239:3290  userInfo[msg.sender].totalStakedAmount += msg.value */\n      tag_98\n      jump\t// in\n    tag_161:\n      swap1\n      swap2\n      sstore\n      pop\n      pop\n        /* \"EthTesting.sol/storageChain.sol\":3319:3329  msg.sender */\n      caller\n        /* \"EthTesting.sol/storageChain.sol\":3309:3330  stakeInfo[msg.sender] */\n      0x00\n      swap1\n      dup2\n      mstore\n        /* \"EthTesting.sol/storageChain.sol\":3309:3318  stakeInfo */\n      0x03\n        /* \"EthTesting.sol/storageChain.sol\":3309:3330  stakeInfo[msg.sender] */\n      0x20\n      mstore\n      0x40\n      swap1\n      dup2\n      swap1\n      keccak256\n        /* \"EthTesting.sol/storageChain.sol\":3309:3339  stakeInfo[msg.sender][_nodeId] */\n      swap1\n      mload\n        /* \"EthTesting.sol/storageChain.sol\":3354:3358  true */\n      0x01\n      swap2\n        /* \"EthTesting.sol/storageChain.sol\":3309:3330  stakeInfo[msg.sender] */\n      swap1\n        /* \"EthTesting.sol/storageChain.sol\":3309:3339  stakeInfo[msg.sender][_nodeId] */\n      tag_162\n      swap1\n        /* \"EthTesting.sol/storageChain.sol\":3331:3338  _nodeId */\n      dup6\n      swap1\n      dup6\n      swap1\n        /* \"EthTesting.sol/storageChain.sol\":3309:3339  stakeInfo[msg.sender][_nodeId] */\n      tag_124\n      jump\t// in\n    tag_162:\n      swap1\n      dup2\n      mstore\n      0x40\n      dup1\n      mload\n      0x20\n      swap3\n      dup2\n      swap1\n      sub\n      dup4\n      add\n      dup2\n      keccak256\n        /* \"EthTesting.sol/storageChain.sol\":3309:3358  stakeInfo[msg.sender][_nodeId].isNodeAlive = true */\n      dup1\n      sload\n      not(0xff)\n      and\n      swap5\n      iszero\n      iszero\n      swap5\n      swap1\n      swap5\n      or\n      swap1\n      swap4\n      sstore\n        /* \"EthTesting.sol/storageChain.sol\":3378:3388  msg.sender */\n      caller\n      0x00\n        /* \"EthTesting.sol/storageChain.sol\":3368:3389  stakeInfo[msg.sender] */\n      swap1\n      dup2\n      mstore\n        /* \"EthTesting.sol/storageChain.sol\":3368:3377  stakeInfo */\n      0x03\n        /* \"EthTesting.sol/storageChain.sol\":3368:3389  stakeInfo[msg.sender] */\n      swap1\n      swap3\n      mstore\n      swap1\n      keccak256\n        /* \"EthTesting.sol/storageChain.sol\":3414:3423  msg.value */\n      callvalue\n      swap2\n        /* \"EthTesting.sol/storageChain.sol\":3368:3398  stakeInfo[msg.sender][_nodeId] */\n      tag_163\n      swap1\n        /* \"EthTesting.sol/storageChain.sol\":3390:3397  _nodeId */\n      dup6\n      swap1\n      dup6\n      swap1\n        /* \"EthTesting.sol/storageChain.sol\":3368:3398  stakeInfo[msg.sender][_nodeId] */\n      tag_124\n      jump\t// in\n    tag_163:\n      swap1\n      dup2\n      mstore\n      0x40\n      dup1\n      mload\n      swap2\n      dup3\n      swap1\n      sub\n      0x20\n      swap1\n      dup2\n      add\n      dup4\n      keccak256\n        /* \"EthTesting.sol/storageChain.sol\":3368:3411  stakeInfo[msg.sender][_nodeId].stakedAmount */\n      0x01\n      swap1\n      dup2\n      add\n        /* \"EthTesting.sol/storageChain.sol\":3368:3423  stakeInfo[msg.sender][_nodeId].stakedAmount = msg.value */\n      swap5\n      swap1\n      swap5\n      sstore\n        /* \"EthTesting.sol/storageChain.sol\":3485:3495  msg.sender */\n      caller\n        /* \"EthTesting.sol/storageChain.sol\":3534:3554  userInfo[msg.sender] */\n      0x00\n      dup2\n      dup2\n      mstore\n        /* \"EthTesting.sol/storageChain.sol\":3534:3542  userInfo */\n      0x02\n        /* \"EthTesting.sol/storageChain.sol\":3534:3554  userInfo[msg.sender] */\n      swap1\n      swap3\n      mstore\n      swap2\n      swap1\n      keccak256\n        /* \"EthTesting.sol/storageChain.sol\":3534:3572  userInfo[msg.sender].totalStakedAmount */\n      dup4\n      add\n      sload\n        /* \"EthTesting.sol/storageChain.sol\":3485:3495  msg.sender */\n      swap1\n      swap3\n        /* \"EthTesting.sol/storageChain.sol\":3439:3600  StakeEvent(... */\n      0x5f0fdd6f33919218d99e95dadeb52206af20443cd68b7711230c6d19282e4e2b\n      swap3\n      tag_164\n      swap3\n        /* \"EthTesting.sol/storageChain.sol\":3463:3470  _nodeId */\n      dup8\n      swap3\n      dup8\n      swap3\n        /* \"EthTesting.sol/storageChain.sol\":3510:3519  msg.value */\n      callvalue\n      swap3\n        /* \"EthTesting.sol/storageChain.sol\":3534:3572  userInfo[msg.sender].totalStakedAmount */\n      swap2\n        /* \"EthTesting.sol/storageChain.sol\":3368:3411  stakeInfo[msg.sender][_nodeId].stakedAmount */\n      swap1\n        /* \"EthTesting.sol/storageChain.sol\":3439:3600  StakeEvent(... */\n      tag_165\n      jump\t// in\n    tag_164:\n      mload(0x40)\n      dup1\n      swap2\n      sub\n      swap1\n      log2\n        /* \"EthTesting.sol/storageChain.sol\":2974:3607  function addNode(string calldata _nodeId) external payable {... */\n      pop\n      pop\n      jump\t// out\n        /* \"EthTesting.sol/storageChain.sol\":3766:4909  function deleteNode(string calldata _nodeId) external nonReentrant {... */\n    tag_70:\n        /* \"EthTesting.sol/storageChain.sol\":7475:7481  locked */\n      and(0xff, sload(0x00))\n        /* \"EthTesting.sol/storageChain.sol\":7471:7507  if (locked) revert ReentrancyError() */\n      iszero\n      tag_167\n      jumpi\n        /* \"EthTesting.sol/storageChain.sol\":7490:7507  ReentrancyError() */\n      mload(0x40)\n      shl(0xe0, 0x29f745a7)\n      dup2\n      mstore\n      0x04\n      add\n      mload(0x40)\n      dup1\n      swap2\n      sub\n      swap1\n      revert\n        /* \"EthTesting.sol/storageChain.sol\":7471:7507  if (locked) revert ReentrancyError() */\n    tag_167:\n        /* \"EthTesting.sol/storageChain.sol\":7517:7523  locked */\n      0x00\n        /* \"EthTesting.sol/storageChain.sol\":7517:7530  locked = true */\n      dup1\n      sload\n      not(0xff)\n      and\n        /* \"EthTesting.sol/storageChain.sol\":7526:7530  true */\n      0x01\n        /* \"EthTesting.sol/storageChain.sol\":7517:7530  locked = true */\n      or\n      dup2\n      sstore\n        /* \"EthTesting.sol/storageChain.sol\":3867:3877  msg.sender */\n      caller\n        /* \"EthTesting.sol/storageChain.sol\":3857:3878  stakeInfo[msg.sender] */\n      dup2\n      mstore\n        /* \"EthTesting.sol/storageChain.sol\":3857:3866  stakeInfo */\n      0x03\n        /* \"EthTesting.sol/storageChain.sol\":3857:3878  stakeInfo[msg.sender] */\n      0x20\n      mstore\n      0x40\n      swap1\n      dup2\n      swap1\n      keccak256\n        /* \"EthTesting.sol/storageChain.sol\":3857:3887  stakeInfo[msg.sender][_nodeId] */\n      swap1\n      mload\n      tag_169\n      swap1\n        /* \"EthTesting.sol/storageChain.sol\":3879:3886  _nodeId */\n      dup5\n      swap1\n      dup5\n      swap1\n        /* \"EthTesting.sol/storageChain.sol\":3857:3887  stakeInfo[msg.sender][_nodeId] */\n      tag_124\n      jump\t// in\n    tag_169:\n      swap1\n      dup2\n      mstore\n      mload(0x40)\n      swap1\n      dup2\n      swap1\n      sub\n      0x20\n      add\n      swap1\n      keccak256\n        /* \"EthTesting.sol/storageChain.sol\":3857:3899  stakeInfo[msg.sender][_nodeId].isNodeAlive */\n      sload\n      0xff\n      and\n        /* \"EthTesting.sol/storageChain.sol\":3853:3988  if(!stakeInfo[msg.sender][_nodeId].isNodeAlive){... */\n      tag_170\n      jumpi\n        /* \"EthTesting.sol/storageChain.sol\":3944:3954  msg.sender */\n      caller\n        /* \"EthTesting.sol/storageChain.sol\":3934:3955  stakeInfo[msg.sender] */\n      0x00\n      swap1\n      dup2\n      mstore\n        /* \"EthTesting.sol/storageChain.sol\":3934:3943  stakeInfo */\n      0x03\n        /* \"EthTesting.sol/storageChain.sol\":3934:3955  stakeInfo[msg.sender] */\n      0x20\n      mstore\n      0x40\n      swap1\n      dup2\n      swap1\n      keccak256\n        /* \"EthTesting.sol/storageChain.sol\":3934:3964  stakeInfo[msg.sender][_nodeId] */\n      swap1\n      mload\n      tag_171\n      swap1\n        /* \"EthTesting.sol/storageChain.sol\":3956:3963  _nodeId */\n      dup5\n      swap1\n      dup5\n      swap1\n        /* \"EthTesting.sol/storageChain.sol\":3934:3964  stakeInfo[msg.sender][_nodeId] */\n      tag_124\n      jump\t// in\n    tag_171:\n      swap1\n      dup2\n      mstore\n      mload(0x40)\n      swap1\n      dup2\n      swap1\n      sub\n      0x20\n      add\n      dup2\n      keccak256\n        /* \"EthTesting.sol/storageChain.sol\":3934:3976  stakeInfo[msg.sender][_nodeId].isNodeAlive */\n      sload\n      shl(0xe1, 0x19e6e2c1)\n        /* \"EthTesting.sol/storageChain.sol\":3921:3977  nodeNotExist(stakeInfo[msg.sender][_nodeId].isNodeAlive) */\n      dup3\n      mstore\n        /* \"EthTesting.sol/storageChain.sol\":3934:3976  stakeInfo[msg.sender][_nodeId].isNodeAlive */\n      0xff\n      and\n        /* \"#utility.yul\":4397:4411   */\n      iszero\n        /* \"#utility.yul\":4390:4412   */\n      iszero\n        /* \"EthTesting.sol/storageChain.sol\":3921:3977  nodeNotExist(stakeInfo[msg.sender][_nodeId].isNodeAlive) */\n      0x04\n      dup3\n      add\n        /* \"#utility.yul\":4372:4413   */\n      mstore\n        /* \"#utility.yul\":4345:4363   */\n      0x24\n      add\n        /* \"EthTesting.sol/storageChain.sol\":3921:3977  nodeNotExist(stakeInfo[msg.sender][_nodeId].isNodeAlive) */\n      tag_75\n        /* \"#utility.yul\":4232:4419   */\n      jump\n        /* \"EthTesting.sol/storageChain.sol\":3853:3988  if(!stakeInfo[msg.sender][_nodeId].isNodeAlive){... */\n    tag_170:\n        /* \"EthTesting.sol/storageChain.sol\":4035:4045  msg.sender */\n      caller\n        /* \"EthTesting.sol/storageChain.sol\":4025:4046  stakeInfo[msg.sender] */\n      0x00\n      swap1\n      dup2\n      mstore\n        /* \"EthTesting.sol/storageChain.sol\":4025:4034  stakeInfo */\n      0x03\n        /* \"EthTesting.sol/storageChain.sol\":4025:4046  stakeInfo[msg.sender] */\n      0x20\n      mstore\n      0x40\n      swap1\n      dup2\n      swap1\n      keccak256\n        /* \"EthTesting.sol/storageChain.sol\":4025:4055  stakeInfo[msg.sender][_nodeId] */\n      swap1\n      mload\n      tag_173\n      swap1\n        /* \"EthTesting.sol/storageChain.sol\":4047:4054  _nodeId */\n      dup5\n      swap1\n      dup5\n      swap1\n        /* \"EthTesting.sol/storageChain.sol\":4025:4055  stakeInfo[msg.sender][_nodeId] */\n      tag_124\n      jump\t// in\n    tag_173:\n      swap1\n      dup2\n      mstore\n      0x20\n      add\n      mload(0x40)\n      dup1\n      swap2\n      sub\n      swap1\n      keccak256\n        /* \"EthTesting.sol/storageChain.sol\":4025:4068  stakeInfo[msg.sender][_nodeId].stakedAmount */\n      0x01\n      add\n      sload\n        /* \"EthTesting.sol/storageChain.sol\":4001:4022  address(this).balance */\n      selfbalance\n        /* \"EthTesting.sol/storageChain.sol\":4001:4068  address(this).balance < stakeInfo[msg.sender][_nodeId].stakedAmount */\n      lt\n        /* \"EthTesting.sol/storageChain.sol\":3998:4148  if(address(this).balance < stakeInfo[msg.sender][_nodeId].stakedAmount){... */\n      iszero\n      tag_174\n      jumpi\n        /* \"EthTesting.sol/storageChain.sol\":4090:4137  insuficentTrasuryBalance(address(this).balance) */\n      mload(0x40)\n      shl(0xe0, 0x3e4673d1)\n      dup2\n      mstore\n        /* \"EthTesting.sol/storageChain.sol\":4115:4136  address(this).balance */\n      selfbalance\n        /* \"EthTesting.sol/storageChain.sol\":4090:4137  insuficentTrasuryBalance(address(this).balance) */\n      0x04\n      dup3\n      add\n        /* \"#utility.yul\":160:185   */\n      mstore\n        /* \"#utility.yul\":133:151   */\n      0x24\n      add\n        /* \"EthTesting.sol/storageChain.sol\":4090:4137  insuficentTrasuryBalance(address(this).balance) */\n      tag_75\n        /* \"#utility.yul\":14:191   */\n      jump\n        /* \"EthTesting.sol/storageChain.sol\":3998:4148  if(address(this).balance < stakeInfo[msg.sender][_nodeId].stakedAmount){... */\n    tag_174:\n        /* \"EthTesting.sol/storageChain.sol\":4227:4237  msg.sender */\n      caller\n        /* \"EthTesting.sol/storageChain.sol\":4217:4238  stakeInfo[msg.sender] */\n      0x00\n      swap1\n      dup2\n      mstore\n        /* \"EthTesting.sol/storageChain.sol\":4217:4226  stakeInfo */\n      0x03\n        /* \"EthTesting.sol/storageChain.sol\":4217:4238  stakeInfo[msg.sender] */\n      0x20\n      mstore\n      0x40\n      swap1\n      dup2\n      swap1\n      keccak256\n        /* \"EthTesting.sol/storageChain.sol\":4217:4247  stakeInfo[msg.sender][_nodeId] */\n      swap1\n      mload\n      tag_176\n      swap1\n        /* \"EthTesting.sol/storageChain.sol\":4239:4246  _nodeId */\n      dup5\n      swap1\n      dup5\n      swap1\n        /* \"EthTesting.sol/storageChain.sol\":4217:4247  stakeInfo[msg.sender][_nodeId] */\n      tag_124\n      jump\t// in\n    tag_176:\n      swap1\n      dup2\n      mstore\n      0x20\n      add\n      mload(0x40)\n      dup1\n      swap2\n      sub\n      swap1\n      keccak256\n        /* \"EthTesting.sol/storageChain.sol\":4217:4260  stakeInfo[msg.sender][_nodeId].stakedAmount */\n      0x01\n      add\n      sload\n        /* \"EthTesting.sol/storageChain.sol\":4175:4183  userInfo */\n      0x02\n        /* \"EthTesting.sol/storageChain.sol\":4175:4195  userInfo[msg.sender] */\n      0x00\n        /* \"EthTesting.sol/storageChain.sol\":4184:4194  msg.sender */\n      caller\n      sub(shl(0xa0, 0x01), 0x01)\n        /* \"EthTesting.sol/storageChain.sol\":4175:4195  userInfo[msg.sender] */\n      and\n      sub(shl(0xa0, 0x01), 0x01)\n      and\n      dup2\n      mstore\n      0x20\n      add\n      swap1\n      dup2\n      mstore\n      0x20\n      add\n      0x00\n      keccak256\n        /* \"EthTesting.sol/storageChain.sol\":4175:4213  userInfo[msg.sender].totalStakedAmount */\n      0x01\n      add\n      0x00\n        /* \"EthTesting.sol/storageChain.sol\":4175:4260  userInfo[msg.sender].totalStakedAmount -= stakeInfo[msg.sender][_nodeId].stakedAmount */\n      dup3\n      dup3\n      sload\n      tag_177\n      swap2\n      swap1\n      tag_178\n      jump\t// in\n    tag_177:\n      swap1\n      swap2\n      sstore\n      pop\n      pop\n        /* \"EthTesting.sol/storageChain.sol\":4301:4311  msg.sender */\n      caller\n        /* \"EthTesting.sol/storageChain.sol\":4291:4312  stakeInfo[msg.sender] */\n      0x00\n      swap1\n      dup2\n      mstore\n        /* \"EthTesting.sol/storageChain.sol\":4291:4300  stakeInfo */\n      0x03\n        /* \"EthTesting.sol/storageChain.sol\":4291:4312  stakeInfo[msg.sender] */\n      0x20\n      mstore\n      0x40\n      swap1\n      dup2\n      swap1\n      keccak256\n        /* \"EthTesting.sol/storageChain.sol\":4291:4321  stakeInfo[msg.sender][_nodeId] */\n      swap1\n      mload\n      tag_179\n      swap1\n        /* \"EthTesting.sol/storageChain.sol\":4313:4320  _nodeId */\n      dup5\n      swap1\n      dup5\n      swap1\n        /* \"EthTesting.sol/storageChain.sol\":4291:4321  stakeInfo[msg.sender][_nodeId] */\n      tag_124\n      jump\t// in\n    tag_179:\n      swap1\n      dup2\n      mstore\n      0x20\n      add\n      mload(0x40)\n      dup1\n      swap2\n      sub\n      swap1\n      keccak256\n        /* \"EthTesting.sol/storageChain.sol\":4291:4334  stakeInfo[msg.sender][_nodeId].stakedAmount */\n      0x01\n      add\n      sload\n        /* \"EthTesting.sol/storageChain.sol\":4270:4287  totalStakedTokens */\n      0x01\n      0x00\n        /* \"EthTesting.sol/storageChain.sol\":4270:4334  totalStakedTokens -= stakeInfo[msg.sender][_nodeId].stakedAmount */\n      dup3\n      dup3\n      sload\n      tag_180\n      swap2\n      swap1\n      tag_178\n      jump\t// in\n    tag_180:\n      swap1\n      swap2\n      sstore\n      pop\n      pop\n        /* \"EthTesting.sol/storageChain.sol\":4355:4365  msg.sender */\n      caller\n        /* \"EthTesting.sol/storageChain.sol\":4390:4395  false */\n      0x00\n        /* \"EthTesting.sol/storageChain.sol\":4345:4366  stakeInfo[msg.sender] */\n      swap1\n      dup2\n      mstore\n        /* \"EthTesting.sol/storageChain.sol\":4345:4354  stakeInfo */\n      0x03\n        /* \"EthTesting.sol/storageChain.sol\":4345:4366  stakeInfo[msg.sender] */\n      0x20\n      mstore\n      0x40\n      dup1\n      dup3\n      keccak256\n        /* \"EthTesting.sol/storageChain.sol\":4345:4375  stakeInfo[msg.sender][_nodeId] */\n      swap1\n      mload\n      tag_181\n      swap1\n        /* \"EthTesting.sol/storageChain.sol\":4367:4374  _nodeId */\n      dup6\n      swap1\n      dup6\n      swap1\n        /* \"EthTesting.sol/storageChain.sol\":4345:4375  stakeInfo[msg.sender][_nodeId] */\n      tag_124\n      jump\t// in\n    tag_181:\n      swap1\n      dup2\n      mstore\n      0x40\n      dup1\n      mload\n      0x20\n      swap3\n      dup2\n      swap1\n      sub\n      dup4\n      add\n      dup2\n      keccak256\n        /* \"EthTesting.sol/storageChain.sol\":4345:4395  stakeInfo[msg.sender][_nodeId].isNodeAlive = false */\n      dup1\n      sload\n      not(0xff)\n      and\n      swap5\n      iszero\n      iszero\n      swap5\n      swap1\n      swap5\n      or\n      swap1\n      swap4\n      sstore\n        /* \"EthTesting.sol/storageChain.sol\":4415:4425  msg.sender */\n      caller\n      0x00\n        /* \"EthTesting.sol/storageChain.sol\":4405:4426  stakeInfo[msg.sender] */\n      swap1\n      dup2\n      mstore\n        /* \"EthTesting.sol/storageChain.sol\":4405:4414  stakeInfo */\n      0x03\n        /* \"EthTesting.sol/storageChain.sol\":4405:4426  stakeInfo[msg.sender] */\n      swap1\n      swap3\n      mstore\n      dup2\n      keccak256\n      swap1\n      swap2\n        /* \"EthTesting.sol/storageChain.sol\":4405:4435  stakeInfo[msg.sender][_nodeId] */\n      tag_182\n      swap1\n        /* \"EthTesting.sol/storageChain.sol\":4427:4434  _nodeId */\n      dup6\n      swap1\n      dup6\n      swap1\n        /* \"EthTesting.sol/storageChain.sol\":4405:4435  stakeInfo[msg.sender][_nodeId] */\n      tag_124\n      jump\t// in\n    tag_182:\n      swap1\n      dup2\n      mstore\n      0x40\n      dup1\n      mload\n      swap2\n      dup3\n      swap1\n      sub\n      0x20\n      swap1\n      dup2\n      add\n      dup4\n      keccak256\n        /* \"EthTesting.sol/storageChain.sol\":4405:4448  stakeInfo[msg.sender][_nodeId].stakedAmount */\n      0x01\n      add\n        /* \"EthTesting.sol/storageChain.sol\":4405:4452  stakeInfo[msg.sender][_nodeId].stakedAmount = 0 */\n      swap4\n      swap1\n      swap4\n      sstore\n        /* \"EthTesting.sol/storageChain.sol\":4504:4514  msg.sender */\n      caller\n        /* \"EthTesting.sol/storageChain.sol\":4478:4490  bool success */\n      0x00\n        /* \"EthTesting.sol/storageChain.sol\":4528:4549  stakeInfo[msg.sender] */\n      dup2\n      dup2\n      mstore\n        /* \"EthTesting.sol/storageChain.sol\":4528:4537  stakeInfo */\n      0x03\n        /* \"EthTesting.sol/storageChain.sol\":4528:4549  stakeInfo[msg.sender] */\n      swap1\n      swap5\n      mstore\n      swap1\n      dup4\n      keccak256\n        /* \"EthTesting.sol/storageChain.sol\":4504:4514  msg.sender */\n      swap1\n      swap2\n        /* \"EthTesting.sol/storageChain.sol\":4528:4558  stakeInfo[msg.sender][_nodeId] */\n      tag_183\n      swap1\n        /* \"EthTesting.sol/storageChain.sol\":4550:4557  _nodeId */\n      dup7\n      swap1\n      dup7\n      swap1\n        /* \"EthTesting.sol/storageChain.sol\":4528:4558  stakeInfo[msg.sender][_nodeId] */\n      tag_124\n      jump\t// in\n    tag_183:\n      swap1\n      dup2\n      mstore\n      mload(0x40)\n      swap1\n      dup2\n      swap1\n      sub\n      0x20\n      add\n      dup2\n      keccak256\n        /* \"EthTesting.sol/storageChain.sol\":4528:4571  stakeInfo[msg.sender][_nodeId].stakedAmount */\n      0x01\n      add\n      sload\n      swap1\n        /* \"EthTesting.sol/storageChain.sol\":4496:4576  payable(msg.sender).call{value: stakeInfo[msg.sender][_nodeId].stakedAmount}(\"\") */\n      0x00\n        /* \"EthTesting.sol/storageChain.sol\":4528:4558  stakeInfo[msg.sender][_nodeId] */\n      dup2\n        /* \"EthTesting.sol/storageChain.sol\":4496:4576  payable(msg.sender).call{value: stakeInfo[msg.sender][_nodeId].stakedAmount}(\"\") */\n      dup2\n        /* \"EthTesting.sol/storageChain.sol\":4528:4558  stakeInfo[msg.sender][_nodeId] */\n      dup2\n        /* \"EthTesting.sol/storageChain.sol\":4528:4571  stakeInfo[msg.sender][_nodeId].stakedAmount */\n      dup6\n        /* \"EthTesting.sol/storageChain.sol\":4496:4576  payable(msg.sender).call{value: stakeInfo[msg.sender][_nodeId].stakedAmount}(\"\") */\n      dup8\n      gas\n      call\n      swap3\n      pop\n      pop\n      pop\n      returndatasize\n      dup1\n      0x00\n      dup2\n      eq\n      tag_188\n      jumpi\n      mload(0x40)\n      swap2\n      pop\n      and(add(returndatasize, 0x3f), not(0x1f))\n      dup3\n      add\n      0x40\n      mstore\n      returndatasize\n      dup3\n      mstore\n      returndatasize\n      0x00\n      0x20\n      dup5\n      add\n      returndatacopy\n      jump(tag_187)\n    tag_188:\n      0x60\n      swap2\n      pop\n    tag_187:\n      pop\n        /* \"EthTesting.sol/storageChain.sol\":4477:4576  (bool success, ) = payable(msg.sender).call{value: stakeInfo[msg.sender][_nodeId].stakedAmount}(\"\") */\n      pop\n      swap1\n      pop\n        /* \"EthTesting.sol/storageChain.sol\":4599:4606  success */\n      dup1\n        /* \"EthTesting.sol/storageChain.sol\":4595:4662  if(!success){... */\n      tag_189\n      jumpi\n        /* \"EthTesting.sol/storageChain.sol\":4628:4651  withdrawFailed(success) */\n      mload(0x40)\n      shl(0xe1, 0x0bdef88b)\n      dup2\n      mstore\n        /* \"#utility.yul\":4397:4411   */\n      dup2\n      iszero\n        /* \"#utility.yul\":4390:4412   */\n      iszero\n        /* \"EthTesting.sol/storageChain.sol\":4628:4651  withdrawFailed(success) */\n      0x04\n      dup3\n      add\n        /* \"#utility.yul\":4372:4413   */\n      mstore\n        /* \"#utility.yul\":4345:4363   */\n      0x24\n      add\n        /* \"EthTesting.sol/storageChain.sol\":4628:4651  withdrawFailed(success) */\n      tag_75\n        /* \"#utility.yul\":4232:4419   */\n      jump\n        /* \"EthTesting.sol/storageChain.sol\":4595:4662  if(!success){... */\n    tag_189:\n        /* \"EthTesting.sol/storageChain.sol\":4717:4727  msg.sender */\n      caller\n        /* \"EthTesting.sol/storageChain.sol\":4741:4762  stakeInfo[msg.sender] */\n      0x00\n      dup2\n      dup2\n      mstore\n        /* \"EthTesting.sol/storageChain.sol\":4741:4750  stakeInfo */\n      0x03\n        /* \"EthTesting.sol/storageChain.sol\":4741:4762  stakeInfo[msg.sender] */\n      0x20\n      mstore\n      0x40\n      swap1\n      dup2\n      swap1\n      keccak256\n        /* \"EthTesting.sol/storageChain.sol\":4741:4771  stakeInfo[msg.sender][_nodeId] */\n      swap1\n      mload\n        /* \"EthTesting.sol/storageChain.sol\":4684:4902  StakeEvent(... */\n      0x5f0fdd6f33919218d99e95dadeb52206af20443cd68b7711230c6d19282e4e2b\n      swap2\n        /* \"EthTesting.sol/storageChain.sol\":4708:4715  _nodeId */\n      dup7\n      swap2\n      dup7\n      swap2\n        /* \"EthTesting.sol/storageChain.sol\":4741:4762  stakeInfo[msg.sender] */\n      swap1\n        /* \"EthTesting.sol/storageChain.sol\":4741:4771  stakeInfo[msg.sender][_nodeId] */\n      tag_191\n      swap1\n        /* \"EthTesting.sol/storageChain.sol\":4708:4715  _nodeId */\n      dup5\n      swap1\n      dup5\n      swap1\n        /* \"EthTesting.sol/storageChain.sol\":4741:4771  stakeInfo[msg.sender][_nodeId] */\n      tag_124\n      jump\t// in\n    tag_191:\n      swap1\n      dup2\n      mstore\n      0x40\n      dup1\n      mload\n      0x20\n      swap3\n      dup2\n      swap1\n      sub\n      dup4\n      add\n      dup2\n      keccak256\n        /* \"EthTesting.sol/storageChain.sol\":4741:4784  stakeInfo[msg.sender][_nodeId].stakedAmount */\n      0x01\n      swap1\n      dup2\n      add\n      sload\n        /* \"EthTesting.sol/storageChain.sol\":4807:4817  msg.sender */\n      caller\n        /* \"EthTesting.sol/storageChain.sol\":4798:4818  userInfo[msg.sender] */\n      0x00\n      swap1\n      dup2\n      mstore\n        /* \"EthTesting.sol/storageChain.sol\":4798:4806  userInfo */\n      0x02\n        /* \"EthTesting.sol/storageChain.sol\":4798:4818  userInfo[msg.sender] */\n      dup7\n      mstore\n      dup5\n      dup2\n      keccak256\n        /* \"EthTesting.sol/storageChain.sol\":4798:4836  userInfo[msg.sender].totalStakedAmount */\n      swap1\n      swap3\n      add\n      sload\n        /* \"EthTesting.sol/storageChain.sol\":4850:4859  stakeInfo */\n      0x03\n        /* \"EthTesting.sol/storageChain.sol\":4850:4871  stakeInfo[msg.sender] */\n      swap1\n      swap6\n      mstore\n      swap3\n      swap1\n      keccak256\n        /* \"EthTesting.sol/storageChain.sol\":4741:4784  stakeInfo[msg.sender][_nodeId].stakedAmount */\n      swap2\n      swap3\n        /* \"EthTesting.sol/storageChain.sol\":4798:4836  userInfo[msg.sender].totalStakedAmount */\n      swap2\n        /* \"EthTesting.sol/storageChain.sol\":4850:4871  stakeInfo[msg.sender] */\n      swap1\n        /* \"EthTesting.sol/storageChain.sol\":4850:4880  stakeInfo[msg.sender][_nodeId] */\n      tag_192\n      swap1\n        /* \"EthTesting.sol/storageChain.sol\":4872:4879  _nodeId */\n      dup12\n      swap1\n      dup12\n      swap1\n        /* \"EthTesting.sol/storageChain.sol\":4850:4880  stakeInfo[msg.sender][_nodeId] */\n      tag_124\n      jump\t// in\n    tag_192:\n      swap1\n      dup2\n      mstore\n      mload(0x40)\n      swap1\n      dup2\n      swap1\n      sub\n      0x20\n      add\n      dup2\n      keccak256\n        /* \"EthTesting.sol/storageChain.sol\":4850:4892  stakeInfo[msg.sender][_nodeId].isNodeAlive */\n      sload\n        /* \"EthTesting.sol/storageChain.sol\":4684:4902  StakeEvent(... */\n      tag_193\n      swap6\n      swap5\n      swap4\n      swap3\n      swap2\n        /* \"EthTesting.sol/storageChain.sol\":4850:4892  stakeInfo[msg.sender][_nodeId].isNodeAlive */\n      0xff\n      swap1\n      swap2\n      and\n      swap1\n        /* \"EthTesting.sol/storageChain.sol\":4684:4902  StakeEvent(... */\n      tag_165\n      jump\t// in\n    tag_193:\n      mload(0x40)\n      dup1\n      swap2\n      sub\n      swap1\n      log2\n      pop\n      pop\n        /* \"EthTesting.sol/storageChain.sol\":7560:7565  false */\n      0x00\n        /* \"EthTesting.sol/storageChain.sol\":7551:7565  locked = false */\n      dup1\n      sload\n      not(0xff)\n      and\n      swap1\n      sstore\n      pop\n        /* \"EthTesting.sol/storageChain.sol\":3766:4909  function deleteNode(string calldata _nodeId) external nonReentrant {... */\n      jump\t// out\n        /* \"#utility.yul\":196:563   */\n    tag_194:\n        /* \"#utility.yul\":259:267   */\n      0x00\n        /* \"#utility.yul\":269:275   */\n      dup1\n        /* \"#utility.yul\":323:326   */\n      dup4\n        /* \"#utility.yul\":316:320   */\n      0x1f\n        /* \"#utility.yul\":308:314   */\n      dup5\n        /* \"#utility.yul\":304:321   */\n      add\n        /* \"#utility.yul\":300:327   */\n      slt\n        /* \"#utility.yul\":290:345   */\n      tag_204\n      jumpi\n        /* \"#utility.yul\":341:342   */\n      0x00\n        /* \"#utility.yul\":338:339   */\n      dup1\n        /* \"#utility.yul\":331:343   */\n      revert\n        /* \"#utility.yul\":290:345   */\n    tag_204:\n      pop\n        /* \"#utility.yul\":364:384   */\n      dup2\n      calldataload\n        /* \"#utility.yul\":407:425   */\n      0xffffffffffffffff\n        /* \"#utility.yul\":396:426   */\n      dup2\n      gt\n        /* \"#utility.yul\":393:443   */\n      iszero\n      tag_205\n      jumpi\n        /* \"#utility.yul\":439:440   */\n      0x00\n        /* \"#utility.yul\":436:437   */\n      dup1\n        /* \"#utility.yul\":429:441   */\n      revert\n        /* \"#utility.yul\":393:443   */\n    tag_205:\n        /* \"#utility.yul\":476:480   */\n      0x20\n        /* \"#utility.yul\":468:474   */\n      dup4\n        /* \"#utility.yul\":464:481   */\n      add\n        /* \"#utility.yul\":452:481   */\n      swap2\n      pop\n        /* \"#utility.yul\":536:539   */\n      dup4\n        /* \"#utility.yul\":529:533   */\n      0x20\n        /* \"#utility.yul\":519:525   */\n      dup3\n        /* \"#utility.yul\":516:517   */\n      0x05\n        /* \"#utility.yul\":512:526   */\n      shl\n        /* \"#utility.yul\":504:510   */\n      dup6\n        /* \"#utility.yul\":500:527   */\n      add\n        /* \"#utility.yul\":496:534   */\n      add\n        /* \"#utility.yul\":493:540   */\n      gt\n        /* \"#utility.yul\":490:557   */\n      iszero\n      tag_206\n      jumpi\n        /* \"#utility.yul\":553:554   */\n      0x00\n        /* \"#utility.yul\":550:551   */\n      dup1\n        /* \"#utility.yul\":543:555   */\n      revert\n        /* \"#utility.yul\":490:557   */\n    tag_206:\n        /* \"#utility.yul\":196:563   */\n      swap3\n      pop\n      swap3\n      swap1\n      pop\n      jump\t// out\n        /* \"#utility.yul\":568:1679   */\n    tag_28:\n        /* \"#utility.yul\":738:744   */\n      0x00\n        /* \"#utility.yul\":746:752   */\n      dup1\n        /* \"#utility.yul\":754:760   */\n      0x00\n        /* \"#utility.yul\":762:768   */\n      dup1\n        /* \"#utility.yul\":770:776   */\n      0x00\n        /* \"#utility.yul\":778:784   */\n      dup1\n        /* \"#utility.yul\":831:833   */\n      0x60\n        /* \"#utility.yul\":819:828   */\n      dup8\n        /* \"#utility.yul\":810:817   */\n      dup10\n        /* \"#utility.yul\":806:829   */\n      sub\n        /* \"#utility.yul\":802:834   */\n      slt\n        /* \"#utility.yul\":799:851   */\n      iszero\n      tag_208\n      jumpi\n        /* \"#utility.yul\":847:848   */\n      0x00\n        /* \"#utility.yul\":844:845   */\n      dup1\n        /* \"#utility.yul\":837:849   */\n      revert\n        /* \"#utility.yul\":799:851   */\n    tag_208:\n        /* \"#utility.yul\":887:896   */\n      dup7\n        /* \"#utility.yul\":874:897   */\n      calldataload\n        /* \"#utility.yul\":920:938   */\n      0xffffffffffffffff\n        /* \"#utility.yul\":912:918   */\n      dup2\n        /* \"#utility.yul\":909:939   */\n      gt\n        /* \"#utility.yul\":906:956   */\n      iszero\n      tag_209\n      jumpi\n        /* \"#utility.yul\":952:953   */\n      0x00\n        /* \"#utility.yul\":949:950   */\n      dup1\n        /* \"#utility.yul\":942:954   */\n      revert\n        /* \"#utility.yul\":906:956   */\n    tag_209:\n        /* \"#utility.yul\":991:1061   */\n      tag_210\n        /* \"#utility.yul\":1053:1060   */\n      dup10\n        /* \"#utility.yul\":1044:1050   */\n      dup3\n        /* \"#utility.yul\":1033:1042   */\n      dup11\n        /* \"#utility.yul\":1029:1051   */\n      add\n        /* \"#utility.yul\":991:1061   */\n      tag_194\n      jump\t// in\n    tag_210:\n        /* \"#utility.yul\":1080:1088   */\n      swap1\n      swap8\n      pop\n        /* \"#utility.yul\":965:1061   */\n      swap6\n      pop\n      pop\n        /* \"#utility.yul\":1168:1170   */\n      0x20\n        /* \"#utility.yul\":1153:1171   */\n      dup8\n      add\n        /* \"#utility.yul\":1140:1172   */\n      calldataload\n        /* \"#utility.yul\":1197:1215   */\n      0xffffffffffffffff\n        /* \"#utility.yul\":1184:1216   */\n      dup2\n      gt\n        /* \"#utility.yul\":1181:1233   */\n      iszero\n      tag_211\n      jumpi\n        /* \"#utility.yul\":1229:1230   */\n      0x00\n        /* \"#utility.yul\":1226:1227   */\n      dup1\n        /* \"#utility.yul\":1219:1231   */\n      revert\n        /* \"#utility.yul\":1181:1233   */\n    tag_211:\n        /* \"#utility.yul\":1268:1340   */\n      tag_212\n        /* \"#utility.yul\":1332:1339   */\n      dup10\n        /* \"#utility.yul\":1321:1329   */\n      dup3\n        /* \"#utility.yul\":1310:1319   */\n      dup11\n        /* \"#utility.yul\":1306:1330   */\n      add\n        /* \"#utility.yul\":1268:1340   */\n      tag_194\n      jump\t// in\n    tag_212:\n        /* \"#utility.yul\":1359:1367   */\n      swap1\n      swap6\n      pop\n        /* \"#utility.yul\":1242:1340   */\n      swap4\n      pop\n      pop\n        /* \"#utility.yul\":1447:1449   */\n      0x40\n        /* \"#utility.yul\":1432:1450   */\n      dup8\n      add\n        /* \"#utility.yul\":1419:1451   */\n      calldataload\n        /* \"#utility.yul\":1476:1494   */\n      0xffffffffffffffff\n        /* \"#utility.yul\":1463:1495   */\n      dup2\n      gt\n        /* \"#utility.yul\":1460:1512   */\n      iszero\n      tag_213\n      jumpi\n        /* \"#utility.yul\":1508:1509   */\n      0x00\n        /* \"#utility.yul\":1505:1506   */\n      dup1\n        /* \"#utility.yul\":1498:1510   */\n      revert\n        /* \"#utility.yul\":1460:1512   */\n    tag_213:\n        /* \"#utility.yul\":1547:1619   */\n      tag_214\n        /* \"#utility.yul\":1611:1618   */\n      dup10\n        /* \"#utility.yul\":1600:1608   */\n      dup3\n        /* \"#utility.yul\":1589:1598   */\n      dup11\n        /* \"#utility.yul\":1585:1609   */\n      add\n        /* \"#utility.yul\":1547:1619   */\n      tag_194\n      jump\t// in\n    tag_214:\n        /* \"#utility.yul\":568:1679   */\n      swap8\n      swap11\n      swap7\n      swap10\n      pop\n      swap5\n      swap8\n      pop\n      swap3\n      swap6\n        /* \"#utility.yul\":1638:1646   */\n      swap4\n      swap5\n        /* \"#utility.yul\":568:1679   */\n      swap3\n      pop\n      pop\n      pop\n      jump\t// out\n        /* \"#utility.yul\":1684:1857   */\n    tag_195:\n        /* \"#utility.yul\":1752:1772   */\n      dup1\n      calldataload\n      sub(shl(0xa0, 0x01), 0x01)\n        /* \"#utility.yul\":1801:1832   */\n      dup2\n      and\n        /* \"#utility.yul\":1791:1833   */\n      dup2\n      eq\n        /* \"#utility.yul\":1781:1851   */\n      tag_216\n      jumpi\n        /* \"#utility.yul\":1847:1848   */\n      0x00\n        /* \"#utility.yul\":1844:1845   */\n      dup1\n        /* \"#utility.yul\":1837:1849   */\n      revert\n        /* \"#utility.yul\":1781:1851   */\n    tag_216:\n        /* \"#utility.yul\":1684:1857   */\n      swap2\n      swap1\n      pop\n      jump\t// out\n        /* \"#utility.yul\":1862:2048   */\n    tag_33:\n        /* \"#utility.yul\":1921:1927   */\n      0x00\n        /* \"#utility.yul\":1974:1976   */\n      0x20\n        /* \"#utility.yul\":1962:1971   */\n      dup3\n        /* \"#utility.yul\":1953:1960   */\n      dup5\n        /* \"#utility.yul\":1949:1972   */\n      sub\n        /* \"#utility.yul\":1945:1977   */\n      slt\n        /* \"#utility.yul\":1942:1994   */\n      iszero\n      tag_218\n      jumpi\n        /* \"#utility.yul\":1990:1991   */\n      0x00\n        /* \"#utility.yul\":1987:1988   */\n      dup1\n        /* \"#utility.yul\":1980:1992   */\n      revert\n        /* \"#utility.yul\":1942:1994   */\n    tag_218:\n        /* \"#utility.yul\":2013:2042   */\n      tag_219\n        /* \"#utility.yul\":2032:2041   */\n      dup3\n        /* \"#utility.yul\":2013:2042   */\n      tag_195\n      jump\t// in\n    tag_219:\n        /* \"#utility.yul\":2003:2042   */\n      swap4\n        /* \"#utility.yul\":1862:2048   */\n      swap3\n      pop\n      pop\n      pop\n      jump\t// out\n        /* \"#utility.yul\":2053:3071   */\n    tag_36:\n        /* \"#utility.yul\":2215:2219   */\n      0x00\n        /* \"#utility.yul\":2263:2265   */\n      0x20\n        /* \"#utility.yul\":2252:2261   */\n      dup3\n        /* \"#utility.yul\":2248:2266   */\n      add\n        /* \"#utility.yul\":2293:2295   */\n      0x20\n        /* \"#utility.yul\":2282:2291   */\n      dup4\n        /* \"#utility.yul\":2275:2296   */\n      mstore\n        /* \"#utility.yul\":2316:2322   */\n      dup1\n        /* \"#utility.yul\":2351:2357   */\n      dup5\n        /* \"#utility.yul\":2345:2358   */\n      mload\n        /* \"#utility.yul\":2382:2388   */\n      dup1\n        /* \"#utility.yul\":2374:2380   */\n      dup4\n        /* \"#utility.yul\":2367:2389   */\n      mstore\n        /* \"#utility.yul\":2420:2422   */\n      0x40\n        /* \"#utility.yul\":2409:2418   */\n      dup6\n        /* \"#utility.yul\":2405:2423   */\n      add\n        /* \"#utility.yul\":2398:2423   */\n      swap2\n      pop\n        /* \"#utility.yul\":2482:2484   */\n      0x40\n        /* \"#utility.yul\":2472:2478   */\n      dup2\n        /* \"#utility.yul\":2469:2470   */\n      0x05\n        /* \"#utility.yul\":2465:2479   */\n      shl\n        /* \"#utility.yul\":2454:2463   */\n      dup7\n        /* \"#utility.yul\":2450:2480   */\n      add\n        /* \"#utility.yul\":2446:2485   */\n      add\n        /* \"#utility.yul\":2432:2485   */\n      swap3\n      pop\n        /* \"#utility.yul\":2520:2522   */\n      0x20\n        /* \"#utility.yul\":2512:2518   */\n      dup7\n        /* \"#utility.yul\":2508:2523   */\n      add\n        /* \"#utility.yul\":2541:2542   */\n      0x00\n        /* \"#utility.yul\":2551:3042   */\n    tag_221:\n        /* \"#utility.yul\":2565:2571   */\n      dup3\n        /* \"#utility.yul\":2562:2563   */\n      dup2\n        /* \"#utility.yul\":2559:2572   */\n      lt\n        /* \"#utility.yul\":2551:3042   */\n      iszero\n      tag_223\n      jumpi\n        /* \"#utility.yul\":2658:2660   */\n      0x3f\n        /* \"#utility.yul\":2654:2661   */\n      not\n        /* \"#utility.yul\":2642:2651   */\n      dup8\n        /* \"#utility.yul\":2634:2640   */\n      dup7\n        /* \"#utility.yul\":2630:2652   */\n      sub\n        /* \"#utility.yul\":2626:2662   */\n      add\n        /* \"#utility.yul\":2621:2624   */\n      dup5\n        /* \"#utility.yul\":2614:2663   */\n      mstore\n        /* \"#utility.yul\":2692:2698   */\n      dup2\n        /* \"#utility.yul\":2686:2699   */\n      mload\n        /* \"#utility.yul\":2734:2736   */\n      dup1\n        /* \"#utility.yul\":2728:2737   */\n      mload\n        /* \"#utility.yul\":2765:2773   */\n      dup1\n        /* \"#utility.yul\":2757:2763   */\n      dup8\n        /* \"#utility.yul\":2750:2774   */\n      mstore\n        /* \"#utility.yul\":2823:2831   */\n      dup1\n        /* \"#utility.yul\":2818:2820   */\n      0x20\n        /* \"#utility.yul\":2814:2816   */\n      dup4\n        /* \"#utility.yul\":2810:2821   */\n      add\n        /* \"#utility.yul\":2805:2807   */\n      0x20\n        /* \"#utility.yul\":2797:2803   */\n      dup10\n        /* \"#utility.yul\":2793:2808   */\n      add\n        /* \"#utility.yul\":2787:2832   */\n      mcopy\n        /* \"#utility.yul\":2884:2885   */\n      0x00\n        /* \"#utility.yul\":2879:2881   */\n      0x20\n        /* \"#utility.yul\":2868:2876   */\n      dup3\n        /* \"#utility.yul\":2860:2866   */\n      dup10\n        /* \"#utility.yul\":2856:2877   */\n      add\n        /* \"#utility.yul\":2852:2882   */\n      add\n        /* \"#utility.yul\":2845:2886   */\n      mstore\n        /* \"#utility.yul\":2959:2961   */\n      0x20\n        /* \"#utility.yul\":2952:2954   */\n      0x1f\n        /* \"#utility.yul\":2948:2955   */\n      not\n        /* \"#utility.yul\":2943:2945   */\n      0x1f\n        /* \"#utility.yul\":2933:2941   */\n      dup4\n        /* \"#utility.yul\":2929:2946   */\n      add\n        /* \"#utility.yul\":2925:2956   */\n      and\n        /* \"#utility.yul\":2917:2923   */\n      dup9\n        /* \"#utility.yul\":2913:2957   */\n      add\n        /* \"#utility.yul\":2909:2962   */\n      add\n        /* \"#utility.yul\":2899:2962   */\n      swap7\n      pop\n      pop\n      pop\n        /* \"#utility.yul\":2997:2999   */\n      0x20\n        /* \"#utility.yul\":2989:2995   */\n      dup3\n        /* \"#utility.yul\":2985:3000   */\n      add\n        /* \"#utility.yul\":2975:3000   */\n      swap2\n      pop\n        /* \"#utility.yul\":3029:3031   */\n      0x20\n        /* \"#utility.yul\":3024:3027   */\n      dup5\n        /* \"#utility.yul\":3020:3032   */\n      add\n        /* \"#utility.yul\":3013:3032   */\n      swap4\n      pop\n        /* \"#utility.yul\":2587:2588   */\n      0x01\n        /* \"#utility.yul\":2584:2585   */\n      dup2\n        /* \"#utility.yul\":2580:2589   */\n      add\n        /* \"#utility.yul\":2575:2589   */\n      swap1\n      pop\n        /* \"#utility.yul\":2551:3042   */\n      jump(tag_221)\n    tag_223:\n      pop\n        /* \"#utility.yul\":3059:3065   */\n      swap3\n      swap7\n        /* \"#utility.yul\":2053:3071   */\n      swap6\n      pop\n      pop\n      pop\n      pop\n      pop\n      pop\n      jump\t// out\n        /* \"#utility.yul\":3076:3203   */\n    tag_196:\n        /* \"#utility.yul\":3137:3147   */\n      0x4e487b71\n        /* \"#utility.yul\":3132:3135   */\n      0xe0\n        /* \"#utility.yul\":3128:3148   */\n      shl\n        /* \"#utility.yul\":3125:3126   */\n      0x00\n        /* \"#utility.yul\":3118:3149   */\n      mstore\n        /* \"#utility.yul\":3168:3172   */\n      0x41\n        /* \"#utility.yul\":3165:3166   */\n      0x04\n        /* \"#utility.yul\":3158:3173   */\n      mstore\n        /* \"#utility.yul\":3192:3196   */\n      0x24\n        /* \"#utility.yul\":3189:3190   */\n      0x00\n        /* \"#utility.yul\":3182:3197   */\n      revert\n        /* \"#utility.yul\":3208:4227   */\n    tag_40:\n        /* \"#utility.yul\":3286:3292   */\n      0x00\n        /* \"#utility.yul\":3294:3300   */\n      dup1\n        /* \"#utility.yul\":3347:3349   */\n      0x40\n        /* \"#utility.yul\":3335:3344   */\n      dup4\n        /* \"#utility.yul\":3326:3333   */\n      dup6\n        /* \"#utility.yul\":3322:3345   */\n      sub\n        /* \"#utility.yul\":3318:3350   */\n      slt\n        /* \"#utility.yul\":3315:3367   */\n      iszero\n      tag_226\n      jumpi\n        /* \"#utility.yul\":3363:3364   */\n      0x00\n        /* \"#utility.yul\":3360:3361   */\n      dup1\n        /* \"#utility.yul\":3353:3365   */\n      revert\n        /* \"#utility.yul\":3315:3367   */\n    tag_226:\n        /* \"#utility.yul\":3386:3415   */\n      tag_227\n        /* \"#utility.yul\":3405:3414   */\n      dup4\n        /* \"#utility.yul\":3386:3415   */\n      tag_195\n      jump\t// in\n    tag_227:\n        /* \"#utility.yul\":3376:3415   */\n      swap2\n      pop\n        /* \"#utility.yul\":3466:3468   */\n      0x20\n        /* \"#utility.yul\":3455:3464   */\n      dup4\n        /* \"#utility.yul\":3451:3469   */\n      add\n        /* \"#utility.yul\":3438:3470   */\n      calldataload\n        /* \"#utility.yul\":3493:3511   */\n      0xffffffffffffffff\n        /* \"#utility.yul\":3485:3491   */\n      dup2\n        /* \"#utility.yul\":3482:3512   */\n      gt\n        /* \"#utility.yul\":3479:3529   */\n      iszero\n      tag_228\n      jumpi\n        /* \"#utility.yul\":3525:3526   */\n      0x00\n        /* \"#utility.yul\":3522:3523   */\n      dup1\n        /* \"#utility.yul\":3515:3527   */\n      revert\n        /* \"#utility.yul\":3479:3529   */\n    tag_228:\n        /* \"#utility.yul\":3548:3570   */\n      dup4\n      add\n        /* \"#utility.yul\":3601:3605   */\n      0x1f\n        /* \"#utility.yul\":3593:3606   */\n      dup2\n      add\n        /* \"#utility.yul\":3589:3616   */\n      dup6\n      sgt\n        /* \"#utility.yul\":3579:3634   */\n      tag_229\n      jumpi\n        /* \"#utility.yul\":3630:3631   */\n      0x00\n        /* \"#utility.yul\":3627:3628   */\n      dup1\n        /* \"#utility.yul\":3620:3632   */\n      revert\n        /* \"#utility.yul\":3579:3634   */\n    tag_229:\n        /* \"#utility.yul\":3670:3672   */\n      dup1\n        /* \"#utility.yul\":3657:3673   */\n      calldataload\n        /* \"#utility.yul\":3696:3714   */\n      0xffffffffffffffff\n        /* \"#utility.yul\":3688:3694   */\n      dup2\n        /* \"#utility.yul\":3685:3715   */\n      gt\n        /* \"#utility.yul\":3682:3738   */\n      iszero\n      tag_231\n      jumpi\n        /* \"#utility.yul\":3718:3736   */\n      tag_231\n      tag_196\n      jump\t// in\n    tag_231:\n        /* \"#utility.yul\":3767:3769   */\n      0x40\n        /* \"#utility.yul\":3761:3770   */\n      mload\n        /* \"#utility.yul\":3859:3861   */\n      0x1f\n        /* \"#utility.yul\":3821:3838   */\n      dup3\n      add\n      not(0x1f)\n        /* \"#utility.yul\":3817:3848   */\n      swap1\n      dup2\n      and\n        /* \"#utility.yul\":3850:3852   */\n      0x3f\n        /* \"#utility.yul\":3813:3853   */\n      add\n        /* \"#utility.yul\":3809:3863   */\n      and\n        /* \"#utility.yul\":3797:3864   */\n      dup2\n      add\n        /* \"#utility.yul\":3894:3912   */\n      0xffffffffffffffff\n        /* \"#utility.yul\":3879:3913   */\n      dup2\n      gt\n        /* \"#utility.yul\":3915:3937   */\n      dup3\n      dup3\n      lt\n        /* \"#utility.yul\":3876:3938   */\n      or\n        /* \"#utility.yul\":3873:3961   */\n      iszero\n      tag_233\n      jumpi\n        /* \"#utility.yul\":3941:3959   */\n      tag_233\n      tag_196\n      jump\t// in\n    tag_233:\n        /* \"#utility.yul\":3977:3979   */\n      0x40\n        /* \"#utility.yul\":3970:3992   */\n      mstore\n        /* \"#utility.yul\":4001:4023   */\n      dup2\n      dup2\n      mstore\n        /* \"#utility.yul\":4042:4057   */\n      dup3\n      dup3\n      add\n        /* \"#utility.yul\":4059:4061   */\n      0x20\n        /* \"#utility.yul\":4038:4062   */\n      add\n        /* \"#utility.yul\":4035:4072   */\n      dup8\n      lt\n        /* \"#utility.yul\":4032:4089   */\n      iszero\n      tag_234\n      jumpi\n        /* \"#utility.yul\":4085:4086   */\n      0x00\n        /* \"#utility.yul\":4082:4083   */\n      dup1\n        /* \"#utility.yul\":4075:4087   */\n      revert\n        /* \"#utility.yul\":4032:4089   */\n    tag_234:\n        /* \"#utility.yul\":4141:4147   */\n      dup2\n        /* \"#utility.yul\":4136:4138   */\n      0x20\n        /* \"#utility.yul\":4132:4134   */\n      dup5\n        /* \"#utility.yul\":4128:4139   */\n      add\n        /* \"#utility.yul\":4123:4125   */\n      0x20\n        /* \"#utility.yul\":4115:4121   */\n      dup4\n        /* \"#utility.yul\":4111:4126   */\n      add\n        /* \"#utility.yul\":4098:4148   */\n      calldatacopy\n        /* \"#utility.yul\":4194:4195   */\n      0x00\n        /* \"#utility.yul\":4189:4191   */\n      0x20\n        /* \"#utility.yul\":4180:4186   */\n      dup4\n        /* \"#utility.yul\":4172:4178   */\n      dup4\n        /* \"#utility.yul\":4168:4187   */\n      add\n        /* \"#utility.yul\":4164:4192   */\n      add\n        /* \"#utility.yul\":4157:4196   */\n      mstore\n        /* \"#utility.yul\":4215:4221   */\n      dup1\n        /* \"#utility.yul\":4205:4221   */\n      swap4\n      pop\n      pop\n      pop\n      pop\n        /* \"#utility.yul\":3208:4227   */\n      swap3\n      pop\n      swap3\n      swap1\n      pop\n      jump\t// out\n        /* \"#utility.yul\":4424:5011   */\n    tag_60:\n        /* \"#utility.yul\":4495:4501   */\n      0x00\n        /* \"#utility.yul\":4503:4509   */\n      dup1\n        /* \"#utility.yul\":4556:4558   */\n      0x20\n        /* \"#utility.yul\":4544:4553   */\n      dup4\n        /* \"#utility.yul\":4535:4542   */\n      dup6\n        /* \"#utility.yul\":4531:4554   */\n      sub\n        /* \"#utility.yul\":4527:4559   */\n      slt\n        /* \"#utility.yul\":4524:4576   */\n      iszero\n      tag_237\n      jumpi\n        /* \"#utility.yul\":4572:4573   */\n      0x00\n        /* \"#utility.yul\":4569:4570   */\n      dup1\n        /* \"#utility.yul\":4562:4574   */\n      revert\n        /* \"#utility.yul\":4524:4576   */\n    tag_237:\n        /* \"#utility.yul\":4612:4621   */\n      dup3\n        /* \"#utility.yul\":4599:4622   */\n      calldataload\n        /* \"#utility.yul\":4645:4663   */\n      0xffffffffffffffff\n        /* \"#utility.yul\":4637:4643   */\n      dup2\n        /* \"#utility.yul\":4634:4664   */\n      gt\n        /* \"#utility.yul\":4631:4681   */\n      iszero\n      tag_238\n      jumpi\n        /* \"#utility.yul\":4677:4678   */\n      0x00\n        /* \"#utility.yul\":4674:4675   */\n      dup1\n        /* \"#utility.yul\":4667:4679   */\n      revert\n        /* \"#utility.yul\":4631:4681   */\n    tag_238:\n        /* \"#utility.yul\":4700:4722   */\n      dup4\n      add\n        /* \"#utility.yul\":4753:4757   */\n      0x1f\n        /* \"#utility.yul\":4745:4758   */\n      dup2\n      add\n        /* \"#utility.yul\":4741:4768   */\n      dup6\n      sgt\n        /* \"#utility.yul\":4731:4786   */\n      tag_239\n      jumpi\n        /* \"#utility.yul\":4782:4783   */\n      0x00\n        /* \"#utility.yul\":4779:4780   */\n      dup1\n        /* \"#utility.yul\":4772:4784   */\n      revert\n        /* \"#utility.yul\":4731:4786   */\n    tag_239:\n        /* \"#utility.yul\":4822:4824   */\n      dup1\n        /* \"#utility.yul\":4809:4825   */\n      calldataload\n        /* \"#utility.yul\":4848:4866   */\n      0xffffffffffffffff\n        /* \"#utility.yul\":4840:4846   */\n      dup2\n        /* \"#utility.yul\":4837:4867   */\n      gt\n        /* \"#utility.yul\":4834:4884   */\n      iszero\n      tag_240\n      jumpi\n        /* \"#utility.yul\":4880:4881   */\n      0x00\n        /* \"#utility.yul\":4877:4878   */\n      dup1\n        /* \"#utility.yul\":4870:4882   */\n      revert\n        /* \"#utility.yul\":4834:4884   */\n    tag_240:\n        /* \"#utility.yul\":4925:4932   */\n      dup6\n        /* \"#utility.yul\":4920:4922   */\n      0x20\n        /* \"#utility.yul\":4911:4917   */\n      dup3\n        /* \"#utility.yul\":4907:4909   */\n      dup5\n        /* \"#utility.yul\":4903:4918   */\n      add\n        /* \"#utility.yul\":4899:4923   */\n      add\n        /* \"#utility.yul\":4896:4933   */\n      gt\n        /* \"#utility.yul\":4893:4950   */\n      iszero\n      tag_241\n      jumpi\n        /* \"#utility.yul\":4946:4947   */\n      0x00\n        /* \"#utility.yul\":4943:4944   */\n      dup1\n        /* \"#utility.yul\":4936:4948   */\n      revert\n        /* \"#utility.yul\":4893:4950   */\n    tag_241:\n        /* \"#utility.yul\":4977:4979   */\n      0x20\n        /* \"#utility.yul\":4969:4980   */\n      swap2\n      swap1\n      swap2\n      add\n      swap6\n        /* \"#utility.yul\":4999:5005   */\n      swap1\n      swap5\n      pop\n        /* \"#utility.yul\":4424:5011   */\n      swap3\n      pop\n      pop\n      pop\n      jump\t// out\n        /* \"#utility.yul\":5548:5675   */\n    tag_96:\n        /* \"#utility.yul\":5609:5619   */\n      0x4e487b71\n        /* \"#utility.yul\":5604:5607   */\n      0xe0\n        /* \"#utility.yul\":5600:5620   */\n      shl\n        /* \"#utility.yul\":5597:5598   */\n      0x00\n        /* \"#utility.yul\":5590:5621   */\n      mstore\n        /* \"#utility.yul\":5640:5644   */\n      0x32\n        /* \"#utility.yul\":5637:5638   */\n      0x04\n        /* \"#utility.yul\":5630:5645   */\n      mstore\n        /* \"#utility.yul\":5664:5668   */\n      0x24\n        /* \"#utility.yul\":5661:5662   */\n      0x00\n        /* \"#utility.yul\":5654:5669   */\n      revert\n        /* \"#utility.yul\":5680:5807   */\n    tag_197:\n        /* \"#utility.yul\":5741:5751   */\n      0x4e487b71\n        /* \"#utility.yul\":5736:5739   */\n      0xe0\n        /* \"#utility.yul\":5732:5752   */\n      shl\n        /* \"#utility.yul\":5729:5730   */\n      0x00\n        /* \"#utility.yul\":5722:5753   */\n      mstore\n        /* \"#utility.yul\":5772:5776   */\n      0x11\n        /* \"#utility.yul\":5769:5770   */\n      0x04\n        /* \"#utility.yul\":5762:5777   */\n      mstore\n        /* \"#utility.yul\":5796:5800   */\n      0x24\n        /* \"#utility.yul\":5793:5794   */\n      0x00\n        /* \"#utility.yul\":5786:5801   */\n      revert\n        /* \"#utility.yul\":5812:5937   */\n    tag_98:\n        /* \"#utility.yul\":5877:5886   */\n      dup1\n      dup3\n      add\n        /* \"#utility.yul\":5898:5908   */\n      dup1\n      dup3\n      gt\n        /* \"#utility.yul\":5895:5931   */\n      iszero\n      tag_144\n      jumpi\n        /* \"#utility.yul\":5911:5929   */\n      tag_144\n      tag_197\n      jump\t// in\n        /* \"#utility.yul\":5942:6464   */\n    tag_105:\n        /* \"#utility.yul\":6020:6024   */\n      0x00\n        /* \"#utility.yul\":6026:6032   */\n      dup1\n        /* \"#utility.yul\":6086:6097   */\n      dup4\n        /* \"#utility.yul\":6073:6098   */\n      calldataload\n        /* \"#utility.yul\":6180:6182   */\n      0x1e\n        /* \"#utility.yul\":6176:6183   */\n      not\n        /* \"#utility.yul\":6165:6173   */\n      dup5\n        /* \"#utility.yul\":6149:6163   */\n      calldatasize\n        /* \"#utility.yul\":6145:6174   */\n      sub\n        /* \"#utility.yul\":6141:6184   */\n      add\n        /* \"#utility.yul\":6121:6139   */\n      dup2\n        /* \"#utility.yul\":6117:6185   */\n      slt\n        /* \"#utility.yul\":6107:6203   */\n      tag_250\n      jumpi\n        /* \"#utility.yul\":6199:6200   */\n      0x00\n        /* \"#utility.yul\":6196:6197   */\n      dup1\n        /* \"#utility.yul\":6189:6201   */\n      revert\n        /* \"#utility.yul\":6107:6203   */\n    tag_250:\n        /* \"#utility.yul\":6226:6259   */\n      dup4\n      add\n        /* \"#utility.yul\":6278:6298   */\n      dup1\n      calldataload\n      swap2\n      pop\n        /* \"#utility.yul\":6321:6339   */\n      0xffffffffffffffff\n        /* \"#utility.yul\":6310:6340   */\n      dup3\n      gt\n        /* \"#utility.yul\":6307:6357   */\n      iszero\n      tag_251\n      jumpi\n        /* \"#utility.yul\":6353:6354   */\n      0x00\n        /* \"#utility.yul\":6350:6351   */\n      dup1\n        /* \"#utility.yul\":6343:6355   */\n      revert\n        /* \"#utility.yul\":6307:6357   */\n    tag_251:\n        /* \"#utility.yul\":6386:6390   */\n      0x20\n        /* \"#utility.yul\":6374:6391   */\n      add\n      swap2\n      pop\n        /* \"#utility.yul\":6417:6431   */\n      calldatasize\n        /* \"#utility.yul\":6413:6440   */\n      dup2\n      swap1\n      sub\n        /* \"#utility.yul\":6403:6441   */\n      dup3\n      sgt\n        /* \"#utility.yul\":6400:6458   */\n      iszero\n      tag_206\n      jumpi\n        /* \"#utility.yul\":6454:6455   */\n      0x00\n        /* \"#utility.yul\":6451:6452   */\n      dup1\n        /* \"#utility.yul\":6444:6456   */\n      revert\n        /* \"#utility.yul\":6469:6849   */\n    tag_139:\n        /* \"#utility.yul\":6548:6549   */\n      0x01\n        /* \"#utility.yul\":6544:6556   */\n      dup2\n      dup2\n      shr\n      swap1\n        /* \"#utility.yul\":6591:6603   */\n      dup3\n      and\n      dup1\n        /* \"#utility.yul\":6612:6673   */\n      tag_254\n      jumpi\n        /* \"#utility.yul\":6666:6670   */\n      0x7f\n        /* \"#utility.yul\":6658:6664   */\n      dup3\n        /* \"#utility.yul\":6654:6671   */\n      and\n        /* \"#utility.yul\":6644:6671   */\n      swap2\n      pop\n        /* \"#utility.yul\":6612:6673   */\n    tag_254:\n        /* \"#utility.yul\":6719:6721   */\n      0x20\n        /* \"#utility.yul\":6711:6717   */\n      dup3\n        /* \"#utility.yul\":6708:6722   */\n      lt\n        /* \"#utility.yul\":6688:6706   */\n      dup2\n        /* \"#utility.yul\":6685:6723   */\n      sub\n        /* \"#utility.yul\":6682:6843   */\n      tag_255\n      jumpi\n        /* \"#utility.yul\":6765:6775   */\n      0x4e487b71\n        /* \"#utility.yul\":6760:6763   */\n      0xe0\n        /* \"#utility.yul\":6756:6776   */\n      shl\n        /* \"#utility.yul\":6753:6754   */\n      0x00\n        /* \"#utility.yul\":6746:6777   */\n      mstore\n        /* \"#utility.yul\":6800:6804   */\n      0x22\n        /* \"#utility.yul\":6797:6798   */\n      0x04\n        /* \"#utility.yul\":6790:6805   */\n      mstore\n        /* \"#utility.yul\":6828:6832   */\n      0x24\n        /* \"#utility.yul\":6825:6826   */\n      0x00\n        /* \"#utility.yul\":6818:6833   */\n      revert\n        /* \"#utility.yul\":6682:6843   */\n    tag_255:\n      pop\n        /* \"#utility.yul\":6469:6849   */\n      swap2\n      swap1\n      pop\n      jump\t// out\n        /* \"#utility.yul\":6980:7498   */\n    tag_199:\n        /* \"#utility.yul\":7082:7084   */\n      0x1f\n        /* \"#utility.yul\":7077:7080   */\n      dup3\n        /* \"#utility.yul\":7074:7085   */\n      gt\n        /* \"#utility.yul\":7071:7492   */\n      iszero\n      tag_258\n      jumpi\n        /* \"#utility.yul\":7118:7123   */\n      dup1\n        /* \"#utility.yul\":7115:7116   */\n      0x00\n        /* \"#utility.yul\":7108:7124   */\n      mstore\n        /* \"#utility.yul\":7162:7166   */\n      0x20\n        /* \"#utility.yul\":7159:7160   */\n      0x00\n        /* \"#utility.yul\":7149:7167   */\n      keccak256\n        /* \"#utility.yul\":7232:7234   */\n      0x1f\n        /* \"#utility.yul\":7220:7230   */\n      dup5\n        /* \"#utility.yul\":7216:7235   */\n      add\n        /* \"#utility.yul\":7213:7214   */\n      0x05\n        /* \"#utility.yul\":7209:7236   */\n      shr\n        /* \"#utility.yul\":7203:7207   */\n      dup2\n        /* \"#utility.yul\":7199:7237   */\n      add\n        /* \"#utility.yul\":7268:7272   */\n      0x20\n        /* \"#utility.yul\":7256:7266   */\n      dup6\n        /* \"#utility.yul\":7253:7273   */\n      lt\n        /* \"#utility.yul\":7250:7297   */\n      iszero\n      tag_259\n      jumpi\n      pop\n        /* \"#utility.yul\":7291:7295   */\n      dup1\n        /* \"#utility.yul\":7250:7297   */\n    tag_259:\n        /* \"#utility.yul\":7346:7348   */\n      0x1f\n        /* \"#utility.yul\":7341:7344   */\n      dup5\n        /* \"#utility.yul\":7337:7349   */\n      add\n        /* \"#utility.yul\":7334:7335   */\n      0x05\n        /* \"#utility.yul\":7330:7350   */\n      shr\n        /* \"#utility.yul\":7324:7328   */\n      dup3\n        /* \"#utility.yul\":7320:7351   */\n      add\n        /* \"#utility.yul\":7310:7351   */\n      swap2\n      pop\n        /* \"#utility.yul\":7401:7482   */\n    tag_260:\n        /* \"#utility.yul\":7419:7421   */\n      dup2\n        /* \"#utility.yul\":7412:7417   */\n      dup2\n        /* \"#utility.yul\":7409:7422   */\n      lt\n        /* \"#utility.yul\":7401:7482   */\n      iszero\n      tag_262\n      jumpi\n        /* \"#utility.yul\":7478:7479   */\n      0x00\n        /* \"#utility.yul\":7464:7480   */\n      dup2\n      sstore\n        /* \"#utility.yul\":7445:7446   */\n      0x01\n        /* \"#utility.yul\":7434:7447   */\n      add\n        /* \"#utility.yul\":7401:7482   */\n      jump(tag_260)\n    tag_262:\n        /* \"#utility.yul\":7405:7408   */\n      pop\n      pop\n        /* \"#utility.yul\":7071:7492   */\n    tag_258:\n        /* \"#utility.yul\":6980:7498   */\n      pop\n      pop\n      pop\n      jump\t// out\n        /* \"#utility.yul\":7674:8872   */\n    tag_108:\n        /* \"#utility.yul\":7798:7816   */\n      0xffffffffffffffff\n        /* \"#utility.yul\":7793:7796   */\n      dup4\n        /* \"#utility.yul\":7790:7817   */\n      gt\n        /* \"#utility.yul\":7787:7840   */\n      iszero\n      tag_266\n      jumpi\n        /* \"#utility.yul\":7820:7838   */\n      tag_266\n      tag_196\n      jump\t// in\n    tag_266:\n        /* \"#utility.yul\":7849:7943   */\n      tag_267\n        /* \"#utility.yul\":7939:7942   */\n      dup4\n        /* \"#utility.yul\":7899:7937   */\n      tag_268\n        /* \"#utility.yul\":7931:7935   */\n      dup4\n        /* \"#utility.yul\":7925:7936   */\n      sload\n        /* \"#utility.yul\":7899:7937   */\n      tag_139\n      jump\t// in\n    tag_268:\n        /* \"#utility.yul\":7893:7897   */\n      dup4\n        /* \"#utility.yul\":7849:7943   */\n      tag_199\n      jump\t// in\n    tag_267:\n        /* \"#utility.yul\":7969:7970   */\n      0x00\n        /* \"#utility.yul\":7994:7996   */\n      0x1f\n        /* \"#utility.yul\":7989:7992   */\n      dup5\n        /* \"#utility.yul\":7986:7997   */\n      gt\n        /* \"#utility.yul\":8011:8012   */\n      0x01\n        /* \"#utility.yul\":8006:8614   */\n      dup2\n      eq\n      tag_270\n      jumpi\n        /* \"#utility.yul\":8658:8659   */\n      0x00\n        /* \"#utility.yul\":8675:8678   */\n      dup6\n        /* \"#utility.yul\":8672:8765   */\n      iszero\n      tag_271\n      jumpi\n      pop\n        /* \"#utility.yul\":8731:8750   */\n      dup4\n      dup3\n      add\n        /* \"#utility.yul\":8718:8751   */\n      calldataload\n        /* \"#utility.yul\":8672:8765   */\n    tag_271:\n      not(0x00)\n        /* \"#utility.yul\":7631:7632   */\n      0x03\n        /* \"#utility.yul\":7627:7638   */\n      dup8\n      swap1\n      shl\n        /* \"#utility.yul\":7623:7647   */\n      shr\n        /* \"#utility.yul\":7619:7648   */\n      not\n        /* \"#utility.yul\":7609:7649   */\n      and\n        /* \"#utility.yul\":7655:7656   */\n      0x01\n        /* \"#utility.yul\":7651:7662   */\n      dup7\n      swap1\n      shl\n        /* \"#utility.yul\":7606:7663   */\n      or\n        /* \"#utility.yul\":8778:8856   */\n      dup4\n      sstore\n        /* \"#utility.yul\":7979:8866   */\n      jump(tag_262)\n        /* \"#utility.yul\":8006:8614   */\n    tag_270:\n        /* \"#utility.yul\":6927:6928   */\n      0x00\n        /* \"#utility.yul\":6920:6934   */\n      dup4\n      dup2\n      mstore\n        /* \"#utility.yul\":6964:6968   */\n      0x20\n        /* \"#utility.yul\":6951:6969   */\n      dup2\n      keccak256\n      not(0x1f)\n        /* \"#utility.yul\":8042:8059   */\n      dup8\n      and\n      swap2\n        /* \"#utility.yul\":8157:8386   */\n    tag_274:\n        /* \"#utility.yul\":8171:8178   */\n      dup3\n        /* \"#utility.yul\":8168:8169   */\n      dup2\n        /* \"#utility.yul\":8165:8179   */\n      lt\n        /* \"#utility.yul\":8157:8386   */\n      iszero\n      tag_276\n      jumpi\n        /* \"#utility.yul\":8260:8279   */\n      dup7\n      dup6\n      add\n        /* \"#utility.yul\":8247:8280   */\n      calldataload\n        /* \"#utility.yul\":8232:8281   */\n      dup3\n      sstore\n        /* \"#utility.yul\":8367:8371   */\n      0x20\n        /* \"#utility.yul\":8352:8372   */\n      swap5\n      dup6\n      add\n      swap5\n        /* \"#utility.yul\":8320:8321   */\n      0x01\n        /* \"#utility.yul\":8308:8322   */\n      swap1\n      swap3\n      add\n      swap2\n        /* \"#utility.yul\":8187:8199   */\n      add\n        /* \"#utility.yul\":8157:8386   */\n      jump(tag_274)\n    tag_276:\n        /* \"#utility.yul\":8161:8164   */\n      pop\n        /* \"#utility.yul\":8414:8417   */\n      dup7\n        /* \"#utility.yul\":8405:8412   */\n      dup3\n        /* \"#utility.yul\":8402:8418   */\n      lt\n        /* \"#utility.yul\":8399:8558   */\n      iszero\n      tag_277\n      jumpi\n        /* \"#utility.yul\":8538:8539   */\n      0x00\n        /* \"#utility.yul\":8534:8540   */\n      not\n        /* \"#utility.yul\":8528:8531   */\n      0xf8\n        /* \"#utility.yul\":8522:8525   */\n      dup9\n        /* \"#utility.yul\":8519:8520   */\n      0x03\n        /* \"#utility.yul\":8515:8526   */\n      shl\n        /* \"#utility.yul\":8511:8532   */\n      and\n        /* \"#utility.yul\":8507:8541   */\n      shr\n        /* \"#utility.yul\":8503:8542   */\n      not\n        /* \"#utility.yul\":8490:8499   */\n      dup5\n        /* \"#utility.yul\":8485:8488   */\n      dup8\n        /* \"#utility.yul\":8481:8500   */\n      add\n        /* \"#utility.yul\":8468:8501   */\n      calldataload\n        /* \"#utility.yul\":8464:8543   */\n      and\n        /* \"#utility.yul\":8456:8462   */\n      dup2\n        /* \"#utility.yul\":8449:8544   */\n      sstore\n        /* \"#utility.yul\":8399:8558   */\n    tag_277:\n      pop\n      pop\n        /* \"#utility.yul\":8601:8602   */\n      0x01\n        /* \"#utility.yul\":8595:8598   */\n      dup6\n        /* \"#utility.yul\":8592:8593   */\n      0x01\n        /* \"#utility.yul\":8588:8599   */\n      shl\n        /* \"#utility.yul\":8584:8603   */\n      add\n        /* \"#utility.yul\":8578:8582   */\n      dup4\n        /* \"#utility.yul\":8571:8604   */\n      sstore\n        /* \"#utility.yul\":7979:8866   */\n      pop\n      pop\n        /* \"#utility.yul\":7674:8872   */\n      pop\n      pop\n      pop\n      jump\t// out\n        /* \"#utility.yul\":8877:9150   */\n    tag_124:\n        /* \"#utility.yul\":9062:9068   */\n      dup2\n        /* \"#utility.yul\":9054:9060   */\n      dup4\n        /* \"#utility.yul\":9049:9052   */\n      dup3\n        /* \"#utility.yul\":9036:9069   */\n      calldatacopy\n        /* \"#utility.yul\":9018:9021   */\n      0x00\n        /* \"#utility.yul\":9088:9104   */\n      swap2\n      add\n        /* \"#utility.yul\":9113:9126   */\n      swap1\n      dup2\n      mstore\n        /* \"#utility.yul\":9088:9104   */\n      swap2\n        /* \"#utility.yul\":8877:9150   */\n      swap1\n      pop\n      jump\t// out\n        /* \"#utility.yul\":9752:10055   */\n    tag_146:\n        /* \"#utility.yul\":9883:9886   */\n      0x00\n        /* \"#utility.yul\":9921:9927   */\n      dup3\n        /* \"#utility.yul\":9915:9928   */\n      mload\n        /* \"#utility.yul\":9967:9973   */\n      dup1\n        /* \"#utility.yul\":9960:9964   */\n      0x20\n        /* \"#utility.yul\":9952:9958   */\n      dup6\n        /* \"#utility.yul\":9948:9965   */\n      add\n        /* \"#utility.yul\":9943:9946   */\n      dup5\n        /* \"#utility.yul\":9937:9974   */\n      mcopy\n        /* \"#utility.yul\":10029:10030   */\n      0x00\n        /* \"#utility.yul\":9993:10009   */\n      swap3\n      add\n        /* \"#utility.yul\":10018:10031   */\n      swap2\n      dup3\n      mstore\n      pop\n        /* \"#utility.yul\":9993:10009   */\n      swap2\n        /* \"#utility.yul\":9752:10055   */\n      swap1\n      pop\n      jump\t// out\n        /* \"#utility.yul\":10060:10680   */\n    tag_165:\n        /* \"#utility.yul\":10297:10300   */\n      0x80\n        /* \"#utility.yul\":10286:10295   */\n      dup2\n        /* \"#utility.yul\":10279:10301   */\n      mstore\n        /* \"#utility.yul\":10338:10344   */\n      dup5\n        /* \"#utility.yul\":10332:10335   */\n      0x80\n        /* \"#utility.yul\":10321:10330   */\n      dup3\n        /* \"#utility.yul\":10317:10336   */\n      add\n        /* \"#utility.yul\":10310:10345   */\n      mstore\n        /* \"#utility.yul\":10396:10402   */\n      dup5\n        /* \"#utility.yul\":10388:10394   */\n      dup7\n        /* \"#utility.yul\":10382:10385   */\n      0xa0\n        /* \"#utility.yul\":10371:10380   */\n      dup4\n        /* \"#utility.yul\":10367:10386   */\n      add\n        /* \"#utility.yul\":10354:10403   */\n      calldatacopy\n        /* \"#utility.yul\":10453:10454   */\n      0x00\n        /* \"#utility.yul\":10447:10450   */\n      0xa0\n        /* \"#utility.yul\":10438:10444   */\n      dup7\n        /* \"#utility.yul\":10427:10436   */\n      dup4\n        /* \"#utility.yul\":10423:10445   */\n      add\n        /* \"#utility.yul\":10419:10451   */\n      add\n        /* \"#utility.yul\":10412:10455   */\n      mstore\n        /* \"#utility.yul\":10260:10264   */\n      0x00\n        /* \"#utility.yul\":10523:10526   */\n      0xa0\n        /* \"#utility.yul\":10516:10518   */\n      0x1f\n        /* \"#utility.yul\":10512:10519   */\n      not\n        /* \"#utility.yul\":10507:10509   */\n      0x1f\n        /* \"#utility.yul\":10499:10505   */\n      dup9\n        /* \"#utility.yul\":10495:10510   */\n      add\n        /* \"#utility.yul\":10491:10520   */\n      and\n        /* \"#utility.yul\":10480:10489   */\n      dup4\n        /* \"#utility.yul\":10476:10521   */\n      add\n        /* \"#utility.yul\":10472:10527   */\n      add\n        /* \"#utility.yul\":10464:10527   */\n      swap1\n      pop\n        /* \"#utility.yul\":10565:10571   */\n      dup5\n        /* \"#utility.yul\":10558:10562   */\n      0x20\n        /* \"#utility.yul\":10547:10556   */\n      dup4\n        /* \"#utility.yul\":10543:10563   */\n      add\n        /* \"#utility.yul\":10536:10572   */\n      mstore\n        /* \"#utility.yul\":10608:10614   */\n      dup4\n        /* \"#utility.yul\":10603:10605   */\n      0x40\n        /* \"#utility.yul\":10592:10601   */\n      dup4\n        /* \"#utility.yul\":10588:10606   */\n      add\n        /* \"#utility.yul\":10581:10615   */\n      mstore\n        /* \"#utility.yul\":10665:10671   */\n      dup3\n        /* \"#utility.yul\":10658:10672   */\n      iszero\n        /* \"#utility.yul\":10651:10673   */\n      iszero\n        /* \"#utility.yul\":10646:10648   */\n      0x60\n        /* \"#utility.yul\":10635:10644   */\n      dup4\n        /* \"#utility.yul\":10631:10649   */\n      add\n        /* \"#utility.yul\":10624:10674   */\n      mstore\n        /* \"#utility.yul\":10060:10680   */\n      swap7\n      swap6\n      pop\n      pop\n      pop\n      pop\n      pop\n      pop\n      jump\t// out\n        /* \"#utility.yul\":10685:10813   */\n    tag_178:\n        /* \"#utility.yul\":10752:10761   */\n      dup2\n      dup2\n      sub\n        /* \"#utility.yul\":10773:10784   */\n      dup2\n      dup2\n      gt\n        /* \"#utility.yul\":10770:10807   */\n      iszero\n      tag_144\n      jumpi\n        /* \"#utility.yul\":10787:10805   */\n      tag_144\n      tag_197\n      jump\t// in\n\n    auxdata: 0xa264697066735822122047779daf0e64b164c65b62fbae7e43217180d04284e8b4b108164eb03792a0ae64736f6c634300081a0033\n}\n",
				"bytecode": {
					"linkReferences": {},
					"object": "60a0604052348015600e575f80fd5b506040516113c63803806113c6833981016040819052602b91603b565b6001600160a01b03166080526066565b5f60208284031215604a575f80fd5b81516001600160a01b0381168114605f575f80fd5b9392505050565b60805161132c61009a5f395f8181610210015281816102740152818161031b015281816108370152610888015261132c5ff3fe60806040526004361061009d575f3560e01c80634cd06072116100625780634cd0607214610172578063764232bf1461018657806383090407146101b55780638994dd8e146101ec5780638da5cb5b146101ff578063a0c15b771461024a575f80fd5b80630d8f7614146100dd5780630f138bfe146100e75780632e31ddf1146101085780632e4e2531146101275780634652e69b14610153575f80fd5b366100d95760405134815233907fe6d858f14d755446648a6e0c8ab8b5a0f58ccc7920d4c910b0454e4dcd869af09060200160405180910390a2005b5f80fd5b6100e5610269565b005b3480156100f2575f80fd5b50475b6040519081526020015b60405180910390f35b348015610113575f80fd5b506100e5610122366004610e17565b610310565b348015610132575f80fd5b50610146610141366004610ed1565b610701565b6040516100ff9190610ef1565b34801561015e575f80fd5b506100f561016d366004610f89565b6107eb565b34801561017d575f80fd5b506100f561082b565b348015610191575f80fd5b506101a56101a0366004610f89565b61087c565b60405190151581526020016100ff565b3480156101c0575f80fd5b506100f56101cf366004610ed1565b6001600160a01b03165f9081526002602052604090206001015490565b6100e56101fa36600461104d565b610907565b34801561020a575f80fd5b506102327f000000000000000000000000000000000000000000000000000000000000000081565b6040516001600160a01b0390911681526020016100ff565b348015610255575f80fd5b506100e561026436600461104d565b610a5b565b336001600160a01b037f000000000000000000000000000000000000000000000000000000000000000016146102b2576040516365b4837360e01b815260040160405180910390fd5b5f34116102d957604051632aa1cd8d60e01b81523460048201526024015b60405180910390fd5b60405134815233907fe6d858f14d755446648a6e0c8ab8b5a0f58ccc7920d4c910b0454e4dcd869af09060200160405180910390a2565b336001600160a01b037f00000000000000000000000000000000000000000000000000000000000000001614610359576040516365b4837360e01b815260040160405180910390fd5b8461037a57604051631bd0000760e11b8152600481018690526024016102d0565b8261039b5760405163179450c960e21b8152600481018490526024016102d0565b806103bc5760405163178ca9eb60e31b8152600481018290526024016102d0565b8483148015906103cc5750828114155b156103fb57604051633d2832f960e01b81526004810186905260248101849052604481018290526064016102d0565b5f5b8581101561068157828282818110610417576104176110bb565b9050602002013560015f82825461042e91906110e3565b90915550600290505f888884818110610449576104496110bb565b905060200201602081019061045e9190610ed1565b6001600160a01b0316815260208101919091526040015f20858583818110610488576104886110bb565b905060200281019061049a91906110f6565b82546001810184555f9384526020909320909201916104b991836111bd565b508282828181106104cc576104cc6110bb565b9050602002013560025f8989858181106104e8576104e86110bb565b90506020020160208101906104fd9190610ed1565b6001600160a01b03166001600160a01b031681526020019081526020015f206001015f82825461052d91906110e3565b909155508390508282818110610545576105456110bb565b9050602002013560035f898985818110610561576105616110bb565b90506020020160208101906105769190610ed1565b6001600160a01b03166001600160a01b031681526020019081526020015f208686848181106105a7576105a76110bb565b90506020028101906105b991906110f6565b6040516105c7929190611277565b908152602001604051809103902060010181905550600160035f8989858181106105f3576105f36110bb565b90506020020160208101906106089190610ed1565b6001600160a01b03166001600160a01b031681526020019081526020015f20868684818110610639576106396110bb565b905060200281019061064b91906110f6565b604051610659929190611277565b908152604051908190036020019020805491151560ff199092169190911790556001016103fd565b506040805160808082526017908201527f4e6f6465207374616b6520696e666f207570646174656400000000000000000060a08201525f60208201819052918101829052600160608201527f5f0fdd6f33919218d99e95dadeb52206af20443cd68b7711230c6d19282e4e2b9060c00160405180910390a2505050505050565b6001600160a01b0381165f908152600260209081526040808320805482518185028101850190935280835260609492939192909184015b828210156107e0578382905f5260205f2001805461075590611139565b80601f016020809104026020016040519081016040528092919081815260200182805461078190611139565b80156107cc5780601f106107a3576101008083540402835291602001916107cc565b820191905f5260205f20905b8154815290600101906020018083116107af57829003601f168201915b505050505081526020019060010190610738565b505050509050919050565b6001600160a01b0382165f908152600360205260408082209051610810908490611286565b90815260200160405180910390206001015490505b92915050565b5f336001600160a01b037f00000000000000000000000000000000000000000000000000000000000000001614610875576040516365b4837360e01b815260040160405180910390fd5b5060015490565b5f336001600160a01b037f000000000000000000000000000000000000000000000000000000000000000016146108c6576040516365b4837360e01b815260040160405180910390fd5b6001600160a01b0383165f908152600360205260409081902090516108ec908490611286565b9081526040519081900360200190205460ff16905092915050565b6032341161092a576040516385d649f760e01b81523460048201526024016102d0565b3460015f82825461093b91906110e3565b9091555050335f908152600260209081526040822080546001810182559083529120016109698284836111bd565b50335f908152600260205260408120600101805434929061098b9084906110e3565b9091555050335f90815260036020526040908190209051600191906109b39085908590611277565b9081526040805160209281900383018120805460ff191694151594909417909355335f9081526003909252902034916109ef9085908590611277565b908152604080519182900360209081018320600190810194909455335f818152600290925291902083015490927f5f0fdd6f33919218d99e95dadeb52206af20443cd68b7711230c6d19282e4e2b92610a4f92879287923492919061129c565b60405180910390a25050565b5f5460ff1615610a7e576040516329f745a760e01b815260040160405180910390fd5b5f805460ff1916600117815533815260036020526040908190209051610aa79084908490611277565b9081526040519081900360200190205460ff16610b0957335f90815260036020526040908190209051610add9084908490611277565b908152604051908190036020018120546319e6e2c160e11b825260ff16151560048201526024016102d0565b335f90815260036020526040908190209051610b289084908490611277565b908152602001604051809103902060010154471015610b5c57604051633e4673d160e01b81524760048201526024016102d0565b335f90815260036020526040908190209051610b7b9084908490611277565b90815260200160405180910390206001015460025f336001600160a01b03166001600160a01b031681526020019081526020015f206001015f828254610bc191906112e3565b9091555050335f90815260036020526040908190209051610be59084908490611277565b90815260200160405180910390206001015460015f828254610c0791906112e3565b9091555050335f908152600360205260408082209051610c2a9085908590611277565b9081526040805160209281900383018120805460ff191694151594909417909355335f908152600390925281209091610c669085908590611277565b90815260408051918290036020908101832060010193909355335f81815260039094529083209091610c9b9086908690611277565b90815260405190819003602001812060010154905f81818185875af1925050503d805f8114610ce5576040519150601f19603f3d011682016040523d82523d5f602084013e610cea565b606091505b5050905080610d1057604051630bdef88b60e11b815281151560048201526024016102d0565b335f818152600360205260409081902090517f5f0fdd6f33919218d99e95dadeb52206af20443cd68b7711230c6d19282e4e2b918691869190610d569084908490611277565b9081526040805160209281900383018120600190810154335f9081526002865284812090920154600390955292902091929190610d96908b908b90611277565b90815260405190819003602001812054610db9959493929160ff9091169061129c565b60405180910390a250505f805460ff1916905550565b5f8083601f840112610ddf575f80fd5b50813567ffffffffffffffff811115610df6575f80fd5b6020830191508360208260051b8501011115610e10575f80fd5b9250929050565b5f805f805f8060608789031215610e2c575f80fd5b863567ffffffffffffffff811115610e42575f80fd5b610e4e89828a01610dcf565b909750955050602087013567ffffffffffffffff811115610e6d575f80fd5b610e7989828a01610dcf565b909550935050604087013567ffffffffffffffff811115610e98575f80fd5b610ea489828a01610dcf565b979a9699509497509295939492505050565b80356001600160a01b0381168114610ecc575f80fd5b919050565b5f60208284031215610ee1575f80fd5b610eea82610eb6565b9392505050565b5f602082016020835280845180835260408501915060408160051b8601019250602086015f5b82811015610f6957603f19878603018452815180518087528060208301602089015e5f602082890101526020601f19601f83011688010196505050602082019150602084019350600181019050610f17565b50929695505050505050565b634e487b7160e01b5f52604160045260245ffd5b5f8060408385031215610f9a575f80fd5b610fa383610eb6565b9150602083013567ffffffffffffffff811115610fbe575f80fd5b8301601f81018513610fce575f80fd5b803567ffffffffffffffff811115610fe857610fe8610f75565b604051601f8201601f19908116603f0116810167ffffffffffffffff8111828210171561101757611017610f75565b60405281815282820160200187101561102e575f80fd5b816020840160208301375f602083830101528093505050509250929050565b5f806020838503121561105e575f80fd5b823567ffffffffffffffff811115611074575f80fd5b8301601f81018513611084575f80fd5b803567ffffffffffffffff81111561109a575f80fd5b8560208284010111156110ab575f80fd5b6020919091019590945092505050565b634e487b7160e01b5f52603260045260245ffd5b634e487b7160e01b5f52601160045260245ffd5b80820180821115610825576108256110cf565b5f808335601e1984360301811261110b575f80fd5b83018035915067ffffffffffffffff821115611125575f80fd5b602001915036819003821315610e10575f80fd5b600181811c9082168061114d57607f821691505b60208210810361116b57634e487b7160e01b5f52602260045260245ffd5b50919050565b601f8211156111b857805f5260205f20601f840160051c810160208510156111965750805b601f840160051c820191505b818110156111b5575f81556001016111a2565b50505b505050565b67ffffffffffffffff8311156111d5576111d5610f75565b6111e9836111e38354611139565b83611171565b5f601f84116001811461121a575f85156112035750838201355b5f19600387901b1c1916600186901b1783556111b5565b5f83815260208120601f198716915b828110156112495786850135825560209485019460019092019101611229565b5086821015611265575f1960f88860031b161c19848701351681555b505060018560011b0183555050505050565b818382375f9101908152919050565b5f82518060208501845e5f920191825250919050565b60808152846080820152848660a08301375f60a086830101525f60a0601f19601f880116830101905084602083015283604083015282151560608301529695505050505050565b81810381811115610825576108256110cf56fea264697066735822122047779daf0e64b164c65b62fbae7e43217180d04284e8b4b108164eb03792a0ae64736f6c634300081a0033",
					"opcodes": "PUSH1 0xA0 PUSH1 0x40 MSTORE CALLVALUE DUP1 ISZERO PUSH1 0xE JUMPI PUSH0 DUP1 REVERT JUMPDEST POP PUSH1 0x40 MLOAD PUSH2 0x13C6 CODESIZE SUB DUP1 PUSH2 0x13C6 DUP4 CODECOPY DUP2 ADD PUSH1 0x40 DUP2 SWAP1 MSTORE PUSH1 0x2B SWAP2 PUSH1 0x3B JUMP JUMPDEST PUSH1 0x1 PUSH1 0x1 PUSH1 0xA0 SHL SUB AND PUSH1 0x80 MSTORE PUSH1 0x66 JUMP JUMPDEST PUSH0 PUSH1 0x20 DUP3 DUP5 SUB SLT ISZERO PUSH1 0x4A JUMPI PUSH0 DUP1 REVERT JUMPDEST DUP2 MLOAD PUSH1 0x1 PUSH1 0x1 PUSH1 0xA0 SHL SUB DUP2 AND DUP2 EQ PUSH1 0x5F JUMPI PUSH0 DUP1 REVERT JUMPDEST SWAP4 SWAP3 POP POP POP JUMP JUMPDEST PUSH1 0x80 MLOAD PUSH2 0x132C PUSH2 0x9A PUSH0 CODECOPY PUSH0 DUP2 DUP2 PUSH2 0x210 ADD MSTORE DUP2 DUP2 PUSH2 0x274 ADD MSTORE DUP2 DUP2 PUSH2 0x31B ADD MSTORE DUP2 DUP2 PUSH2 0x837 ADD MSTORE PUSH2 0x888 ADD MSTORE PUSH2 0x132C PUSH0 RETURN INVALID PUSH1 0x80 PUSH1 0x40 MSTORE PUSH1 0x4 CALLDATASIZE LT PUSH2 0x9D JUMPI PUSH0 CALLDATALOAD PUSH1 0xE0 SHR DUP1 PUSH4 0x4CD06072 GT PUSH2 0x62 JUMPI DUP1 PUSH4 0x4CD06072 EQ PUSH2 0x172 JUMPI DUP1 PUSH4 0x764232BF EQ PUSH2 0x186 JUMPI DUP1 PUSH4 0x83090407 EQ PUSH2 0x1B5 JUMPI DUP1 PUSH4 0x8994DD8E EQ PUSH2 0x1EC JUMPI DUP1 PUSH4 0x8DA5CB5B EQ PUSH2 0x1FF JUMPI DUP1 PUSH4 0xA0C15B77 EQ PUSH2 0x24A JUMPI PUSH0 DUP1 REVERT JUMPDEST DUP1 PUSH4 0xD8F7614 EQ PUSH2 0xDD JUMPI DUP1 PUSH4 0xF138BFE EQ PUSH2 0xE7 JUMPI DUP1 PUSH4 0x2E31DDF1 EQ PUSH2 0x108 JUMPI DUP1 PUSH4 0x2E4E2531 EQ PUSH2 0x127 JUMPI DUP1 PUSH4 0x4652E69B EQ PUSH2 0x153 JUMPI PUSH0 DUP1 REVERT JUMPDEST CALLDATASIZE PUSH2 0xD9 JUMPI PUSH1 0x40 MLOAD CALLVALUE DUP2 MSTORE CALLER SWAP1 PUSH32 0xE6D858F14D755446648A6E0C8AB8B5A0F58CCC7920D4C910B0454E4DCD869AF0 SWAP1 PUSH1 0x20 ADD PUSH1 0x40 MLOAD DUP1 SWAP2 SUB SWAP1 LOG2 STOP JUMPDEST PUSH0 DUP1 REVERT JUMPDEST PUSH2 0xE5 PUSH2 0x269 JUMP JUMPDEST STOP JUMPDEST CALLVALUE DUP1 ISZERO PUSH2 0xF2 JUMPI PUSH0 DUP1 REVERT JUMPDEST POP SELFBALANCE JUMPDEST PUSH1 0x40 MLOAD SWAP1 DUP2 MSTORE PUSH1 0x20 ADD JUMPDEST PUSH1 0x40 MLOAD DUP1 SWAP2 SUB SWAP1 RETURN JUMPDEST CALLVALUE DUP1 ISZERO PUSH2 0x113 JUMPI PUSH0 DUP1 REVERT JUMPDEST POP PUSH2 0xE5 PUSH2 0x122 CALLDATASIZE PUSH1 0x4 PUSH2 0xE17 JUMP JUMPDEST PUSH2 0x310 JUMP JUMPDEST CALLVALUE DUP1 ISZERO PUSH2 0x132 JUMPI PUSH0 DUP1 REVERT JUMPDEST POP PUSH2 0x146 PUSH2 0x141 CALLDATASIZE PUSH1 0x4 PUSH2 0xED1 JUMP JUMPDEST PUSH2 0x701 JUMP JUMPDEST PUSH1 0x40 MLOAD PUSH2 0xFF SWAP2 SWAP1 PUSH2 0xEF1 JUMP JUMPDEST CALLVALUE DUP1 ISZERO PUSH2 0x15E JUMPI PUSH0 DUP1 REVERT JUMPDEST POP PUSH2 0xF5 PUSH2 0x16D CALLDATASIZE PUSH1 0x4 PUSH2 0xF89 JUMP JUMPDEST PUSH2 0x7EB JUMP JUMPDEST CALLVALUE DUP1 ISZERO PUSH2 0x17D JUMPI PUSH0 DUP1 REVERT JUMPDEST POP PUSH2 0xF5 PUSH2 0x82B JUMP JUMPDEST CALLVALUE DUP1 ISZERO PUSH2 0x191 JUMPI PUSH0 DUP1 REVERT JUMPDEST POP PUSH2 0x1A5 PUSH2 0x1A0 CALLDATASIZE PUSH1 0x4 PUSH2 0xF89 JUMP JUMPDEST PUSH2 0x87C JUMP JUMPDEST PUSH1 0x40 MLOAD SWAP1 ISZERO ISZERO DUP2 MSTORE PUSH1 0x20 ADD PUSH2 0xFF JUMP JUMPDEST CALLVALUE DUP1 ISZERO PUSH2 0x1C0 JUMPI PUSH0 DUP1 REVERT JUMPDEST POP PUSH2 0xF5 PUSH2 0x1CF CALLDATASIZE PUSH1 0x4 PUSH2 0xED1 JUMP JUMPDEST PUSH1 0x1 PUSH1 0x1 PUSH1 0xA0 SHL SUB AND PUSH0 SWAP1 DUP2 MSTORE PUSH1 0x2 PUSH1 0x20 MSTORE PUSH1 0x40 SWAP1 KECCAK256 PUSH1 0x1 ADD SLOAD SWAP1 JUMP JUMPDEST PUSH2 0xE5 PUSH2 0x1FA CALLDATASIZE PUSH1 0x4 PUSH2 0x104D JUMP JUMPDEST PUSH2 0x907 JUMP JUMPDEST CALLVALUE DUP1 ISZERO PUSH2 0x20A JUMPI PUSH0 DUP1 REVERT JUMPDEST POP PUSH2 0x232 PUSH32 0x0 DUP2 JUMP JUMPDEST PUSH1 0x40 MLOAD PUSH1 0x1 PUSH1 0x1 PUSH1 0xA0 SHL SUB SWAP1 SWAP2 AND DUP2 MSTORE PUSH1 0x20 ADD PUSH2 0xFF JUMP JUMPDEST CALLVALUE DUP1 ISZERO PUSH2 0x255 JUMPI PUSH0 DUP1 REVERT JUMPDEST POP PUSH2 0xE5 PUSH2 0x264 CALLDATASIZE PUSH1 0x4 PUSH2 0x104D JUMP JUMPDEST PUSH2 0xA5B JUMP JUMPDEST CALLER PUSH1 0x1 PUSH1 0x1 PUSH1 0xA0 SHL SUB PUSH32 0x0 AND EQ PUSH2 0x2B2 JUMPI PUSH1 0x40 MLOAD PUSH4 0x65B48373 PUSH1 0xE0 SHL DUP2 MSTORE PUSH1 0x4 ADD PUSH1 0x40 MLOAD DUP1 SWAP2 SUB SWAP1 REVERT JUMPDEST PUSH0 CALLVALUE GT PUSH2 0x2D9 JUMPI PUSH1 0x40 MLOAD PUSH4 0x2AA1CD8D PUSH1 0xE0 SHL DUP2 MSTORE CALLVALUE PUSH1 0x4 DUP3 ADD MSTORE PUSH1 0x24 ADD JUMPDEST PUSH1 0x40 MLOAD DUP1 SWAP2 SUB SWAP1 REVERT JUMPDEST PUSH1 0x40 MLOAD CALLVALUE DUP2 MSTORE CALLER SWAP1 PUSH32 0xE6D858F14D755446648A6E0C8AB8B5A0F58CCC7920D4C910B0454E4DCD869AF0 SWAP1 PUSH1 0x20 ADD PUSH1 0x40 MLOAD DUP1 SWAP2 SUB SWAP1 LOG2 JUMP JUMPDEST CALLER PUSH1 0x1 PUSH1 0x1 PUSH1 0xA0 SHL SUB PUSH32 0x0 AND EQ PUSH2 0x359 JUMPI PUSH1 0x40 MLOAD PUSH4 0x65B48373 PUSH1 0xE0 SHL DUP2 MSTORE PUSH1 0x4 ADD PUSH1 0x40 MLOAD DUP1 SWAP2 SUB SWAP1 REVERT JUMPDEST DUP5 PUSH2 0x37A JUMPI PUSH1 0x40 MLOAD PUSH4 0x1BD00007 PUSH1 0xE1 SHL DUP2 MSTORE PUSH1 0x4 DUP2 ADD DUP7 SWAP1 MSTORE PUSH1 0x24 ADD PUSH2 0x2D0 JUMP JUMPDEST DUP3 PUSH2 0x39B JUMPI PUSH1 0x40 MLOAD PUSH4 0x179450C9 PUSH1 0xE2 SHL DUP2 MSTORE PUSH1 0x4 DUP2 ADD DUP5 SWAP1 MSTORE PUSH1 0x24 ADD PUSH2 0x2D0 JUMP JUMPDEST DUP1 PUSH2 0x3BC JUMPI PUSH1 0x40 MLOAD PUSH4 0x178CA9EB PUSH1 0xE3 SHL DUP2 MSTORE PUSH1 0x4 DUP2 ADD DUP3 SWAP1 MSTORE PUSH1 0x24 ADD PUSH2 0x2D0 JUMP JUMPDEST DUP5 DUP4 EQ DUP1 ISZERO SWAP1 PUSH2 0x3CC JUMPI POP DUP3 DUP2 EQ ISZERO JUMPDEST ISZERO PUSH2 0x3FB JUMPI PUSH1 0x40 MLOAD PUSH4 0x3D2832F9 PUSH1 0xE0 SHL DUP2 MSTORE PUSH1 0x4 DUP2 ADD DUP7 SWAP1 MSTORE PUSH1 0x24 DUP2 ADD DUP5 SWAP1 MSTORE PUSH1 0x44 DUP2 ADD DUP3 SWAP1 MSTORE PUSH1 0x64 ADD PUSH2 0x2D0 JUMP JUMPDEST PUSH0 JUMPDEST DUP6 DUP2 LT ISZERO PUSH2 0x681 JUMPI DUP3 DUP3 DUP3 DUP2 DUP2 LT PUSH2 0x417 JUMPI PUSH2 0x417 PUSH2 0x10BB JUMP JUMPDEST SWAP1 POP PUSH1 0x20 MUL ADD CALLDATALOAD PUSH1 0x1 PUSH0 DUP3 DUP3 SLOAD PUSH2 0x42E SWAP2 SWAP1 PUSH2 0x10E3 JUMP JUMPDEST SWAP1 SWAP2 SSTORE POP PUSH1 0x2 SWAP1 POP PUSH0 DUP9 DUP9 DUP5 DUP2 DUP2 LT PUSH2 0x449 JUMPI PUSH2 0x449 PUSH2 0x10BB JUMP JUMPDEST SWAP1 POP PUSH1 0x20 MUL ADD PUSH1 0x20 DUP2 ADD SWAP1 PUSH2 0x45E SWAP2 SWAP1 PUSH2 0xED1 JUMP JUMPDEST PUSH1 0x1 PUSH1 0x1 PUSH1 0xA0 SHL SUB AND DUP2 MSTORE PUSH1 0x20 DUP2 ADD SWAP2 SWAP1 SWAP2 MSTORE PUSH1 0x40 ADD PUSH0 KECCAK256 DUP6 DUP6 DUP4 DUP2 DUP2 LT PUSH2 0x488 JUMPI PUSH2 0x488 PUSH2 0x10BB JUMP JUMPDEST SWAP1 POP PUSH1 0x20 MUL DUP2 ADD SWAP1 PUSH2 0x49A SWAP2 SWAP1 PUSH2 0x10F6 JUMP JUMPDEST DUP3 SLOAD PUSH1 0x1 DUP2 ADD DUP5 SSTORE PUSH0 SWAP4 DUP5 MSTORE PUSH1 0x20 SWAP1 SWAP4 KECCAK256 SWAP1 SWAP3 ADD SWAP2 PUSH2 0x4B9 SWAP2 DUP4 PUSH2 0x11BD JUMP JUMPDEST POP DUP3 DUP3 DUP3 DUP2 DUP2 LT PUSH2 0x4CC JUMPI PUSH2 0x4CC PUSH2 0x10BB JUMP JUMPDEST SWAP1 POP PUSH1 0x20 MUL ADD CALLDATALOAD PUSH1 0x2 PUSH0 DUP10 DUP10 DUP6 DUP2 DUP2 LT PUSH2 0x4E8 JUMPI PUSH2 0x4E8 PUSH2 0x10BB JUMP JUMPDEST SWAP1 POP PUSH1 0x20 MUL ADD PUSH1 0x20 DUP2 ADD SWAP1 PUSH2 0x4FD SWAP2 SWAP1 PUSH2 0xED1 JUMP JUMPDEST PUSH1 0x1 PUSH1 0x1 PUSH1 0xA0 SHL SUB AND PUSH1 0x1 PUSH1 0x1 PUSH1 0xA0 SHL SUB AND DUP2 MSTORE PUSH1 0x20 ADD SWAP1 DUP2 MSTORE PUSH1 0x20 ADD PUSH0 KECCAK256 PUSH1 0x1 ADD PUSH0 DUP3 DUP3 SLOAD PUSH2 0x52D SWAP2 SWAP1 PUSH2 0x10E3 JUMP JUMPDEST SWAP1 SWAP2 SSTORE POP DUP4 SWAP1 POP DUP3 DUP3 DUP2 DUP2 LT PUSH2 0x545 JUMPI PUSH2 0x545 PUSH2 0x10BB JUMP JUMPDEST SWAP1 POP PUSH1 0x20 MUL ADD CALLDATALOAD PUSH1 0x3 PUSH0 DUP10 DUP10 DUP6 DUP2 DUP2 LT PUSH2 0x561 JUMPI PUSH2 0x561 PUSH2 0x10BB JUMP JUMPDEST SWAP1 POP PUSH1 0x20 MUL ADD PUSH1 0x20 DUP2 ADD SWAP1 PUSH2 0x576 SWAP2 SWAP1 PUSH2 0xED1 JUMP JUMPDEST PUSH1 0x1 PUSH1 0x1 PUSH1 0xA0 SHL SUB AND PUSH1 0x1 PUSH1 0x1 PUSH1 0xA0 SHL SUB AND DUP2 MSTORE PUSH1 0x20 ADD SWAP1 DUP2 MSTORE PUSH1 0x20 ADD PUSH0 KECCAK256 DUP7 DUP7 DUP5 DUP2 DUP2 LT PUSH2 0x5A7 JUMPI PUSH2 0x5A7 PUSH2 0x10BB JUMP JUMPDEST SWAP1 POP PUSH1 0x20 MUL DUP2 ADD SWAP1 PUSH2 0x5B9 SWAP2 SWAP1 PUSH2 0x10F6 JUMP JUMPDEST PUSH1 0x40 MLOAD PUSH2 0x5C7 SWAP3 SWAP2 SWAP1 PUSH2 0x1277 JUMP JUMPDEST SWAP1 DUP2 MSTORE PUSH1 0x20 ADD PUSH1 0x40 MLOAD DUP1 SWAP2 SUB SWAP1 KECCAK256 PUSH1 0x1 ADD DUP2 SWAP1 SSTORE POP PUSH1 0x1 PUSH1 0x3 PUSH0 DUP10 DUP10 DUP6 DUP2 DUP2 LT PUSH2 0x5F3 JUMPI PUSH2 0x5F3 PUSH2 0x10BB JUMP JUMPDEST SWAP1 POP PUSH1 0x20 MUL ADD PUSH1 0x20 DUP2 ADD SWAP1 PUSH2 0x608 SWAP2 SWAP1 PUSH2 0xED1 JUMP JUMPDEST PUSH1 0x1 PUSH1 0x1 PUSH1 0xA0 SHL SUB AND PUSH1 0x1 PUSH1 0x1 PUSH1 0xA0 SHL SUB AND DUP2 MSTORE PUSH1 0x20 ADD SWAP1 DUP2 MSTORE PUSH1 0x20 ADD PUSH0 KECCAK256 DUP7 DUP7 DUP5 DUP2 DUP2 LT PUSH2 0x639 JUMPI PUSH2 0x639 PUSH2 0x10BB JUMP JUMPDEST SWAP1 POP PUSH1 0x20 MUL DUP2 ADD SWAP1 PUSH2 0x64B SWAP2 SWAP1 PUSH2 0x10F6 JUMP JUMPDEST PUSH1 0x40 MLOAD PUSH2 0x659 SWAP3 SWAP2 SWAP1 PUSH2 0x1277 JUMP JUMPDEST SWAP1 DUP2 MSTORE PUSH1 0x40 MLOAD SWAP1 DUP2 SWAP1 SUB PUSH1 0x20 ADD SWAP1 KECCAK256 DUP1 SLOAD SWAP2 ISZERO ISZERO PUSH1 0xFF NOT SWAP1 SWAP3 AND SWAP2 SWAP1 SWAP2 OR SWAP1 SSTORE PUSH1 0x1 ADD PUSH2 0x3FD JUMP JUMPDEST POP PUSH1 0x40 DUP1 MLOAD PUSH1 0x80 DUP1 DUP3 MSTORE PUSH1 0x17 SWAP1 DUP3 ADD MSTORE PUSH32 0x4E6F6465207374616B6520696E666F2075706461746564000000000000000000 PUSH1 0xA0 DUP3 ADD MSTORE PUSH0 PUSH1 0x20 DUP3 ADD DUP2 SWAP1 MSTORE SWAP2 DUP2 ADD DUP3 SWAP1 MSTORE PUSH1 0x1 PUSH1 0x60 DUP3 ADD MSTORE PUSH32 0x5F0FDD6F33919218D99E95DADEB52206AF20443CD68B7711230C6D19282E4E2B SWAP1 PUSH1 0xC0 ADD PUSH1 0x40 MLOAD DUP1 SWAP2 SUB SWAP1 LOG2 POP POP POP POP POP POP JUMP JUMPDEST PUSH1 0x1 PUSH1 0x1 PUSH1 0xA0 SHL SUB DUP2 AND PUSH0 SWAP1 DUP2 MSTORE PUSH1 0x2 PUSH1 0x20 SWAP1 DUP2 MSTORE PUSH1 0x40 DUP1 DUP4 KECCAK256 DUP1 SLOAD DUP3 MLOAD DUP2 DUP6 MUL DUP2 ADD DUP6 ADD SWAP1 SWAP4 MSTORE DUP1 DUP4 MSTORE PUSH1 0x60 SWAP5 SWAP3 SWAP4 SWAP2 SWAP3 SWAP1 SWAP2 DUP5 ADD JUMPDEST DUP3 DUP3 LT ISZERO PUSH2 0x7E0 JUMPI DUP4 DUP3 SWAP1 PUSH0 MSTORE PUSH1 0x20 PUSH0 KECCAK256 ADD DUP1 SLOAD PUSH2 0x755 SWAP1 PUSH2 0x1139 JUMP JUMPDEST DUP1 PUSH1 0x1F ADD PUSH1 0x20 DUP1 SWAP2 DIV MUL PUSH1 0x20 ADD PUSH1 0x40 MLOAD SWAP1 DUP2 ADD PUSH1 0x40 MSTORE DUP1 SWAP3 SWAP2 SWAP1 DUP2 DUP2 MSTORE PUSH1 0x20 ADD DUP3 DUP1 SLOAD PUSH2 0x781 SWAP1 PUSH2 0x1139 JUMP JUMPDEST DUP1 ISZERO PUSH2 0x7CC JUMPI DUP1 PUSH1 0x1F LT PUSH2 0x7A3 JUMPI PUSH2 0x100 DUP1 DUP4 SLOAD DIV MUL DUP4 MSTORE SWAP2 PUSH1 0x20 ADD SWAP2 PUSH2 0x7CC JUMP JUMPDEST DUP3 ADD SWAP2 SWAP1 PUSH0 MSTORE PUSH1 0x20 PUSH0 KECCAK256 SWAP1 JUMPDEST DUP2 SLOAD DUP2 MSTORE SWAP1 PUSH1 0x1 ADD SWAP1 PUSH1 0x20 ADD DUP1 DUP4 GT PUSH2 0x7AF JUMPI DUP3 SWAP1 SUB PUSH1 0x1F AND DUP3 ADD SWAP2 JUMPDEST POP POP POP POP POP DUP2 MSTORE PUSH1 0x20 ADD SWAP1 PUSH1 0x1 ADD SWAP1 PUSH2 0x738 JUMP JUMPDEST POP POP POP POP SWAP1 POP SWAP2 SWAP1 POP JUMP JUMPDEST PUSH1 0x1 PUSH1 0x1 PUSH1 0xA0 SHL SUB DUP3 AND PUSH0 SWAP1 DUP2 MSTORE PUSH1 0x3 PUSH1 0x20 MSTORE PUSH1 0x40 DUP1 DUP3 KECCAK256 SWAP1 MLOAD PUSH2 0x810 SWAP1 DUP5 SWAP1 PUSH2 0x1286 JUMP JUMPDEST SWAP1 DUP2 MSTORE PUSH1 0x20 ADD PUSH1 0x40 MLOAD DUP1 SWAP2 SUB SWAP1 KECCAK256 PUSH1 0x1 ADD SLOAD SWAP1 POP JUMPDEST SWAP3 SWAP2 POP POP JUMP JUMPDEST PUSH0 CALLER PUSH1 0x1 PUSH1 0x1 PUSH1 0xA0 SHL SUB PUSH32 0x0 AND EQ PUSH2 0x875 JUMPI PUSH1 0x40 MLOAD PUSH4 0x65B48373 PUSH1 0xE0 SHL DUP2 MSTORE PUSH1 0x4 ADD PUSH1 0x40 MLOAD DUP1 SWAP2 SUB SWAP1 REVERT JUMPDEST POP PUSH1 0x1 SLOAD SWAP1 JUMP JUMPDEST PUSH0 CALLER PUSH1 0x1 PUSH1 0x1 PUSH1 0xA0 SHL SUB PUSH32 0x0 AND EQ PUSH2 0x8C6 JUMPI PUSH1 0x40 MLOAD PUSH4 0x65B48373 PUSH1 0xE0 SHL DUP2 MSTORE PUSH1 0x4 ADD PUSH1 0x40 MLOAD DUP1 SWAP2 SUB SWAP1 REVERT JUMPDEST PUSH1 0x1 PUSH1 0x1 PUSH1 0xA0 SHL SUB DUP4 AND PUSH0 SWAP1 DUP2 MSTORE PUSH1 0x3 PUSH1 0x20 MSTORE PUSH1 0x40 SWAP1 DUP2 SWAP1 KECCAK256 SWAP1 MLOAD PUSH2 0x8EC SWAP1 DUP5 SWAP1 PUSH2 0x1286 JUMP JUMPDEST SWAP1 DUP2 MSTORE PUSH1 0x40 MLOAD SWAP1 DUP2 SWAP1 SUB PUSH1 0x20 ADD SWAP1 KECCAK256 SLOAD PUSH1 0xFF AND SWAP1 POP SWAP3 SWAP2 POP POP JUMP JUMPDEST PUSH1 0x32 CALLVALUE GT PUSH2 0x92A JUMPI PUSH1 0x40 MLOAD PUSH4 0x85D649F7 PUSH1 0xE0 SHL DUP2 MSTORE CALLVALUE PUSH1 0x4 DUP3 ADD MSTORE PUSH1 0x24 ADD PUSH2 0x2D0 JUMP JUMPDEST CALLVALUE PUSH1 0x1 PUSH0 DUP3 DUP3 SLOAD PUSH2 0x93B SWAP2 SWAP1 PUSH2 0x10E3 JUMP JUMPDEST SWAP1 SWAP2 SSTORE POP POP CALLER PUSH0 SWAP1 DUP2 MSTORE PUSH1 0x2 PUSH1 0x20 SWAP1 DUP2 MSTORE PUSH1 0x40 DUP3 KECCAK256 DUP1 SLOAD PUSH1 0x1 DUP2 ADD DUP3 SSTORE SWAP1 DUP4 MSTORE SWAP2 KECCAK256 ADD PUSH2 0x969 DUP3 DUP5 DUP4 PUSH2 0x11BD JUMP JUMPDEST POP CALLER PUSH0 SWAP1 DUP2 MSTORE PUSH1 0x2 PUSH1 0x20 MSTORE PUSH1 0x40 DUP2 KECCAK256 PUSH1 0x1 ADD DUP1 SLOAD CALLVALUE SWAP3 SWAP1 PUSH2 0x98B SWAP1 DUP5 SWAP1 PUSH2 0x10E3 JUMP JUMPDEST SWAP1 SWAP2 SSTORE POP POP CALLER PUSH0 SWAP1 DUP2 MSTORE PUSH1 0x3 PUSH1 0x20 MSTORE PUSH1 0x40 SWAP1 DUP2 SWAP1 KECCAK256 SWAP1 MLOAD PUSH1 0x1 SWAP2 SWAP1 PUSH2 0x9B3 SWAP1 DUP6 SWAP1 DUP6 SWAP1 PUSH2 0x1277 JUMP JUMPDEST SWAP1 DUP2 MSTORE PUSH1 0x40 DUP1 MLOAD PUSH1 0x20 SWAP3 DUP2 SWAP1 SUB DUP4 ADD DUP2 KECCAK256 DUP1 SLOAD PUSH1 0xFF NOT AND SWAP5 ISZERO ISZERO SWAP5 SWAP1 SWAP5 OR SWAP1 SWAP4 SSTORE CALLER PUSH0 SWAP1 DUP2 MSTORE PUSH1 0x3 SWAP1 SWAP3 MSTORE SWAP1 KECCAK256 CALLVALUE SWAP2 PUSH2 0x9EF SWAP1 DUP6 SWAP1 DUP6 SWAP1 PUSH2 0x1277 JUMP JUMPDEST SWAP1 DUP2 MSTORE PUSH1 0x40 DUP1 MLOAD SWAP2 DUP3 SWAP1 SUB PUSH1 0x20 SWAP1 DUP2 ADD DUP4 KECCAK256 PUSH1 0x1 SWAP1 DUP2 ADD SWAP5 SWAP1 SWAP5 SSTORE CALLER PUSH0 DUP2 DUP2 MSTORE PUSH1 0x2 SWAP1 SWAP3 MSTORE SWAP2 SWAP1 KECCAK256 DUP4 ADD SLOAD SWAP1 SWAP3 PUSH32 0x5F0FDD6F33919218D99E95DADEB52206AF20443CD68B7711230C6D19282E4E2B SWAP3 PUSH2 0xA4F SWAP3 DUP8 SWAP3 DUP8 SWAP3 CALLVALUE SWAP3 SWAP2 SWAP1 PUSH2 0x129C JUMP JUMPDEST PUSH1 0x40 MLOAD DUP1 SWAP2 SUB SWAP1 LOG2 POP POP JUMP JUMPDEST PUSH0 SLOAD PUSH1 0xFF AND ISZERO PUSH2 0xA7E JUMPI PUSH1 0x40 MLOAD PUSH4 0x29F745A7 PUSH1 0xE0 SHL DUP2 MSTORE PUSH1 0x4 ADD PUSH1 0x40 MLOAD DUP1 SWAP2 SUB SWAP1 REVERT JUMPDEST PUSH0 DUP1 SLOAD PUSH1 0xFF NOT AND PUSH1 0x1 OR DUP2 SSTORE CALLER DUP2 MSTORE PUSH1 0x3 PUSH1 0x20 MSTORE PUSH1 0x40 SWAP1 DUP2 SWAP1 KECCAK256 SWAP1 MLOAD PUSH2 0xAA7 SWAP1 DUP5 SWAP1 DUP5 SWAP1 PUSH2 0x1277 JUMP JUMPDEST SWAP1 DUP2 MSTORE PUSH1 0x40 MLOAD SWAP1 DUP2 SWAP1 SUB PUSH1 0x20 ADD SWAP1 KECCAK256 SLOAD PUSH1 0xFF AND PUSH2 0xB09 JUMPI CALLER PUSH0 SWAP1 DUP2 MSTORE PUSH1 0x3 PUSH1 0x20 MSTORE PUSH1 0x40 SWAP1 DUP2 SWAP1 KECCAK256 SWAP1 MLOAD PUSH2 0xADD SWAP1 DUP5 SWAP1 DUP5 SWAP1 PUSH2 0x1277 JUMP JUMPDEST SWAP1 DUP2 MSTORE PUSH1 0x40 MLOAD SWAP1 DUP2 SWAP1 SUB PUSH1 0x20 ADD DUP2 KECCAK256 SLOAD PUSH4 0x19E6E2C1 PUSH1 0xE1 SHL DUP3 MSTORE PUSH1 0xFF AND ISZERO ISZERO PUSH1 0x4 DUP3 ADD MSTORE PUSH1 0x24 ADD PUSH2 0x2D0 JUMP JUMPDEST CALLER PUSH0 SWAP1 DUP2 MSTORE PUSH1 0x3 PUSH1 0x20 MSTORE PUSH1 0x40 SWAP1 DUP2 SWAP1 KECCAK256 SWAP1 MLOAD PUSH2 0xB28 SWAP1 DUP5 SWAP1 DUP5 SWAP1 PUSH2 0x1277 JUMP JUMPDEST SWAP1 DUP2 MSTORE PUSH1 0x20 ADD PUSH1 0x40 MLOAD DUP1 SWAP2 SUB SWAP1 KECCAK256 PUSH1 0x1 ADD SLOAD SELFBALANCE LT ISZERO PUSH2 0xB5C JUMPI PUSH1 0x40 MLOAD PUSH4 0x3E4673D1 PUSH1 0xE0 SHL DUP2 MSTORE SELFBALANCE PUSH1 0x4 DUP3 ADD MSTORE PUSH1 0x24 ADD PUSH2 0x2D0 JUMP JUMPDEST CALLER PUSH0 SWAP1 DUP2 MSTORE PUSH1 0x3 PUSH1 0x20 MSTORE PUSH1 0x40 SWAP1 DUP2 SWAP1 KECCAK256 SWAP1 MLOAD PUSH2 0xB7B SWAP1 DUP5 SWAP1 DUP5 SWAP1 PUSH2 0x1277 JUMP JUMPDEST SWAP1 DUP2 MSTORE PUSH1 0x20 ADD PUSH1 0x40 MLOAD DUP1 SWAP2 SUB SWAP1 KECCAK256 PUSH1 0x1 ADD SLOAD PUSH1 0x2 PUSH0 CALLER PUSH1 0x1 PUSH1 0x1 PUSH1 0xA0 SHL SUB AND PUSH1 0x1 PUSH1 0x1 PUSH1 0xA0 SHL SUB AND DUP2 MSTORE PUSH1 0x20 ADD SWAP1 DUP2 MSTORE PUSH1 0x20 ADD PUSH0 KECCAK256 PUSH1 0x1 ADD PUSH0 DUP3 DUP3 SLOAD PUSH2 0xBC1 SWAP2 SWAP1 PUSH2 0x12E3 JUMP JUMPDEST SWAP1 SWAP2 SSTORE POP POP CALLER PUSH0 SWAP1 DUP2 MSTORE PUSH1 0x3 PUSH1 0x20 MSTORE PUSH1 0x40 SWAP1 DUP2 SWAP1 KECCAK256 SWAP1 MLOAD PUSH2 0xBE5 SWAP1 DUP5 SWAP1 DUP5 SWAP1 PUSH2 0x1277 JUMP JUMPDEST SWAP1 DUP2 MSTORE PUSH1 0x20 ADD PUSH1 0x40 MLOAD DUP1 SWAP2 SUB SWAP1 KECCAK256 PUSH1 0x1 ADD SLOAD PUSH1 0x1 PUSH0 DUP3 DUP3 SLOAD PUSH2 0xC07 SWAP2 SWAP1 PUSH2 0x12E3 JUMP JUMPDEST SWAP1 SWAP2 SSTORE POP POP CALLER PUSH0 SWAP1 DUP2 MSTORE PUSH1 0x3 PUSH1 0x20 MSTORE PUSH1 0x40 DUP1 DUP3 KECCAK256 SWAP1 MLOAD PUSH2 0xC2A SWAP1 DUP6 SWAP1 DUP6 SWAP1 PUSH2 0x1277 JUMP JUMPDEST SWAP1 DUP2 MSTORE PUSH1 0x40 DUP1 MLOAD PUSH1 0x20 SWAP3 DUP2 SWAP1 SUB DUP4 ADD DUP2 KECCAK256 DUP1 SLOAD PUSH1 0xFF NOT AND SWAP5 ISZERO ISZERO SWAP5 SWAP1 SWAP5 OR SWAP1 SWAP4 SSTORE CALLER PUSH0 SWAP1 DUP2 MSTORE PUSH1 0x3 SWAP1 SWAP3 MSTORE DUP2 KECCAK256 SWAP1 SWAP2 PUSH2 0xC66 SWAP1 DUP6 SWAP1 DUP6 SWAP1 PUSH2 0x1277 JUMP JUMPDEST SWAP1 DUP2 MSTORE PUSH1 0x40 DUP1 MLOAD SWAP2 DUP3 SWAP1 SUB PUSH1 0x20 SWAP1 DUP2 ADD DUP4 KECCAK256 PUSH1 0x1 ADD SWAP4 SWAP1 SWAP4 SSTORE CALLER PUSH0 DUP2 DUP2 MSTORE PUSH1 0x3 SWAP1 SWAP5 MSTORE SWAP1 DUP4 KECCAK256 SWAP1 SWAP2 PUSH2 0xC9B SWAP1 DUP7 SWAP1 DUP7 SWAP1 PUSH2 0x1277 JUMP JUMPDEST SWAP1 DUP2 MSTORE PUSH1 0x40 MLOAD SWAP1 DUP2 SWAP1 SUB PUSH1 0x20 ADD DUP2 KECCAK256 PUSH1 0x1 ADD SLOAD SWAP1 PUSH0 DUP2 DUP2 DUP2 DUP6 DUP8 GAS CALL SWAP3 POP POP POP RETURNDATASIZE DUP1 PUSH0 DUP2 EQ PUSH2 0xCE5 JUMPI PUSH1 0x40 MLOAD SWAP2 POP PUSH1 0x1F NOT PUSH1 0x3F RETURNDATASIZE ADD AND DUP3 ADD PUSH1 0x40 MSTORE RETURNDATASIZE DUP3 MSTORE RETURNDATASIZE PUSH0 PUSH1 0x20 DUP5 ADD RETURNDATACOPY PUSH2 0xCEA JUMP JUMPDEST PUSH1 0x60 SWAP2 POP JUMPDEST POP POP SWAP1 POP DUP1 PUSH2 0xD10 JUMPI PUSH1 0x40 MLOAD PUSH4 0xBDEF88B PUSH1 0xE1 SHL DUP2 MSTORE DUP2 ISZERO ISZERO PUSH1 0x4 DUP3 ADD MSTORE PUSH1 0x24 ADD PUSH2 0x2D0 JUMP JUMPDEST CALLER PUSH0 DUP2 DUP2 MSTORE PUSH1 0x3 PUSH1 0x20 MSTORE PUSH1 0x40 SWAP1 DUP2 SWAP1 KECCAK256 SWAP1 MLOAD PUSH32 0x5F0FDD6F33919218D99E95DADEB52206AF20443CD68B7711230C6D19282E4E2B SWAP2 DUP7 SWAP2 DUP7 SWAP2 SWAP1 PUSH2 0xD56 SWAP1 DUP5 SWAP1 DUP5 SWAP1 PUSH2 0x1277 JUMP JUMPDEST SWAP1 DUP2 MSTORE PUSH1 0x40 DUP1 MLOAD PUSH1 0x20 SWAP3 DUP2 SWAP1 SUB DUP4 ADD DUP2 KECCAK256 PUSH1 0x1 SWAP1 DUP2 ADD SLOAD CALLER PUSH0 SWAP1 DUP2 MSTORE PUSH1 0x2 DUP7 MSTORE DUP5 DUP2 KECCAK256 SWAP1 SWAP3 ADD SLOAD PUSH1 0x3 SWAP1 SWAP6 MSTORE SWAP3 SWAP1 KECCAK256 SWAP2 SWAP3 SWAP2 SWAP1 PUSH2 0xD96 SWAP1 DUP12 SWAP1 DUP12 SWAP1 PUSH2 0x1277 JUMP JUMPDEST SWAP1 DUP2 MSTORE PUSH1 0x40 MLOAD SWAP1 DUP2 SWAP1 SUB PUSH1 0x20 ADD DUP2 KECCAK256 SLOAD PUSH2 0xDB9 SWAP6 SWAP5 SWAP4 SWAP3 SWAP2 PUSH1 0xFF SWAP1 SWAP2 AND SWAP1 PUSH2 0x129C JUMP JUMPDEST PUSH1 0x40 MLOAD DUP1 SWAP2 SUB SWAP1 LOG2 POP POP PUSH0 DUP1 SLOAD PUSH1 0xFF NOT AND SWAP1 SSTORE POP JUMP JUMPDEST PUSH0 DUP1 DUP4 PUSH1 0x1F DUP5 ADD SLT PUSH2 0xDDF JUMPI PUSH0 DUP1 REVERT JUMPDEST POP DUP2 CALLDATALOAD PUSH8 0xFFFFFFFFFFFFFFFF DUP2 GT ISZERO PUSH2 0xDF6 JUMPI PUSH0 DUP1 REVERT JUMPDEST PUSH1 0x20 DUP4 ADD SWAP2 POP DUP4 PUSH1 0x20 DUP3 PUSH1 0x5 SHL DUP6 ADD ADD GT ISZERO PUSH2 0xE10 JUMPI PUSH0 DUP1 REVERT JUMPDEST SWAP3 POP SWAP3 SWAP1 POP JUMP JUMPDEST PUSH0 DUP1 PUSH0 DUP1 PUSH0 DUP1 PUSH1 0x60 DUP8 DUP10 SUB SLT ISZERO PUSH2 0xE2C JUMPI PUSH0 DUP1 REVERT JUMPDEST DUP7 CALLDATALOAD PUSH8 0xFFFFFFFFFFFFFFFF DUP2 GT ISZERO PUSH2 0xE42 JUMPI PUSH0 DUP1 REVERT JUMPDEST PUSH2 0xE4E DUP10 DUP3 DUP11 ADD PUSH2 0xDCF JUMP JUMPDEST SWAP1 SWAP8 POP SWAP6 POP POP PUSH1 0x20 DUP8 ADD CALLDATALOAD PUSH8 0xFFFFFFFFFFFFFFFF DUP2 GT ISZERO PUSH2 0xE6D JUMPI PUSH0 DUP1 REVERT JUMPDEST PUSH2 0xE79 DUP10 DUP3 DUP11 ADD PUSH2 0xDCF JUMP JUMPDEST SWAP1 SWAP6 POP SWAP4 POP POP PUSH1 0x40 DUP8 ADD CALLDATALOAD PUSH8 0xFFFFFFFFFFFFFFFF DUP2 GT ISZERO PUSH2 0xE98 JUMPI PUSH0 DUP1 REVERT JUMPDEST PUSH2 0xEA4 DUP10 DUP3 DUP11 ADD PUSH2 0xDCF JUMP JUMPDEST SWAP8 SWAP11 SWAP7 SWAP10 POP SWAP5 SWAP8 POP SWAP3 SWAP6 SWAP4 SWAP5 SWAP3 POP POP POP JUMP JUMPDEST DUP1 CALLDATALOAD PUSH1 0x1 PUSH1 0x1 PUSH1 0xA0 SHL SUB DUP2 AND DUP2 EQ PUSH2 0xECC JUMPI PUSH0 DUP1 REVERT JUMPDEST SWAP2 SWAP1 POP JUMP JUMPDEST PUSH0 PUSH1 0x20 DUP3 DUP5 SUB SLT ISZERO PUSH2 0xEE1 JUMPI PUSH0 DUP1 REVERT JUMPDEST PUSH2 0xEEA DUP3 PUSH2 0xEB6 JUMP JUMPDEST SWAP4 SWAP3 POP POP POP JUMP JUMPDEST PUSH0 PUSH1 0x20 DUP3 ADD PUSH1 0x20 DUP4 MSTORE DUP1 DUP5 MLOAD DUP1 DUP4 MSTORE PUSH1 0x40 DUP6 ADD SWAP2 POP PUSH1 0x40 DUP2 PUSH1 0x5 SHL DUP7 ADD ADD SWAP3 POP PUSH1 0x20 DUP7 ADD PUSH0 JUMPDEST DUP3 DUP2 LT ISZERO PUSH2 0xF69 JUMPI PUSH1 0x3F NOT DUP8 DUP7 SUB ADD DUP5 MSTORE DUP2 MLOAD DUP1 MLOAD DUP1 DUP8 MSTORE DUP1 PUSH1 0x20 DUP4 ADD PUSH1 0x20 DUP10 ADD MCOPY PUSH0 PUSH1 0x20 DUP3 DUP10 ADD ADD MSTORE PUSH1 0x20 PUSH1 0x1F NOT PUSH1 0x1F DUP4 ADD AND DUP9 ADD ADD SWAP7 POP POP POP PUSH1 0x20 DUP3 ADD SWAP2 POP PUSH1 0x20 DUP5 ADD SWAP4 POP PUSH1 0x1 DUP2 ADD SWAP1 POP PUSH2 0xF17 JUMP JUMPDEST POP SWAP3 SWAP7 SWAP6 POP POP POP POP POP POP JUMP JUMPDEST PUSH4 0x4E487B71 PUSH1 0xE0 SHL PUSH0 MSTORE PUSH1 0x41 PUSH1 0x4 MSTORE PUSH1 0x24 PUSH0 REVERT JUMPDEST PUSH0 DUP1 PUSH1 0x40 DUP4 DUP6 SUB SLT ISZERO PUSH2 0xF9A JUMPI PUSH0 DUP1 REVERT JUMPDEST PUSH2 0xFA3 DUP4 PUSH2 0xEB6 JUMP JUMPDEST SWAP2 POP PUSH1 0x20 DUP4 ADD CALLDATALOAD PUSH8 0xFFFFFFFFFFFFFFFF DUP2 GT ISZERO PUSH2 0xFBE JUMPI PUSH0 DUP1 REVERT JUMPDEST DUP4 ADD PUSH1 0x1F DUP2 ADD DUP6 SGT PUSH2 0xFCE JUMPI PUSH0 DUP1 REVERT JUMPDEST DUP1 CALLDATALOAD PUSH8 0xFFFFFFFFFFFFFFFF DUP2 GT ISZERO PUSH2 0xFE8 JUMPI PUSH2 0xFE8 PUSH2 0xF75 JUMP JUMPDEST PUSH1 0x40 MLOAD PUSH1 0x1F DUP3 ADD PUSH1 0x1F NOT SWAP1 DUP2 AND PUSH1 0x3F ADD AND DUP2 ADD PUSH8 0xFFFFFFFFFFFFFFFF DUP2 GT DUP3 DUP3 LT OR ISZERO PUSH2 0x1017 JUMPI PUSH2 0x1017 PUSH2 0xF75 JUMP JUMPDEST PUSH1 0x40 MSTORE DUP2 DUP2 MSTORE DUP3 DUP3 ADD PUSH1 0x20 ADD DUP8 LT ISZERO PUSH2 0x102E JUMPI PUSH0 DUP1 REVERT JUMPDEST DUP2 PUSH1 0x20 DUP5 ADD PUSH1 0x20 DUP4 ADD CALLDATACOPY PUSH0 PUSH1 0x20 DUP4 DUP4 ADD ADD MSTORE DUP1 SWAP4 POP POP POP POP SWAP3 POP SWAP3 SWAP1 POP JUMP JUMPDEST PUSH0 DUP1 PUSH1 0x20 DUP4 DUP6 SUB SLT ISZERO PUSH2 0x105E JUMPI PUSH0 DUP1 REVERT JUMPDEST DUP3 CALLDATALOAD PUSH8 0xFFFFFFFFFFFFFFFF DUP2 GT ISZERO PUSH2 0x1074 JUMPI PUSH0 DUP1 REVERT JUMPDEST DUP4 ADD PUSH1 0x1F DUP2 ADD DUP6 SGT PUSH2 0x1084 JUMPI PUSH0 DUP1 REVERT JUMPDEST DUP1 CALLDATALOAD PUSH8 0xFFFFFFFFFFFFFFFF DUP2 GT ISZERO PUSH2 0x109A JUMPI PUSH0 DUP1 REVERT JUMPDEST DUP6 PUSH1 0x20 DUP3 DUP5 ADD ADD GT ISZERO PUSH2 0x10AB JUMPI PUSH0 DUP1 REVERT JUMPDEST PUSH1 0x20 SWAP2 SWAP1 SWAP2 ADD SWAP6 SWAP1 SWAP5 POP SWAP3 POP POP POP JUMP JUMPDEST PUSH4 0x4E487B71 PUSH1 0xE0 SHL PUSH0 MSTORE PUSH1 0x32 PUSH1 0x4 MSTORE PUSH1 0x24 PUSH0 REVERT JUMPDEST PUSH4 0x4E487B71 PUSH1 0xE0 SHL PUSH0 MSTORE PUSH1 0x11 PUSH1 0x4 MSTORE PUSH1 0x24 PUSH0 REVERT JUMPDEST DUP1 DUP3 ADD DUP1 DUP3 GT ISZERO PUSH2 0x825 JUMPI PUSH2 0x825 PUSH2 0x10CF JUMP JUMPDEST PUSH0 DUP1 DUP4 CALLDATALOAD PUSH1 0x1E NOT DUP5 CALLDATASIZE SUB ADD DUP2 SLT PUSH2 0x110B JUMPI PUSH0 DUP1 REVERT JUMPDEST DUP4 ADD DUP1 CALLDATALOAD SWAP2 POP PUSH8 0xFFFFFFFFFFFFFFFF DUP3 GT ISZERO PUSH2 0x1125 JUMPI PUSH0 DUP1 REVERT JUMPDEST PUSH1 0x20 ADD SWAP2 POP CALLDATASIZE DUP2 SWAP1 SUB DUP3 SGT ISZERO PUSH2 0xE10 JUMPI PUSH0 DUP1 REVERT JUMPDEST PUSH1 0x1 DUP2 DUP2 SHR SWAP1 DUP3 AND DUP1 PUSH2 0x114D JUMPI PUSH1 0x7F DUP3 AND SWAP2 POP JUMPDEST PUSH1 0x20 DUP3 LT DUP2 SUB PUSH2 0x116B JUMPI PUSH4 0x4E487B71 PUSH1 0xE0 SHL PUSH0 MSTORE PUSH1 0x22 PUSH1 0x4 MSTORE PUSH1 0x24 PUSH0 REVERT JUMPDEST POP SWAP2 SWAP1 POP JUMP JUMPDEST PUSH1 0x1F DUP3 GT ISZERO PUSH2 0x11B8 JUMPI DUP1 PUSH0 MSTORE PUSH1 0x20 PUSH0 KECCAK256 PUSH1 0x1F DUP5 ADD PUSH1 0x5 SHR DUP2 ADD PUSH1 0x20 DUP6 LT ISZERO PUSH2 0x1196 JUMPI POP DUP1 JUMPDEST PUSH1 0x1F DUP5 ADD PUSH1 0x5 SHR DUP3 ADD SWAP2 POP JUMPDEST DUP2 DUP2 LT ISZERO PUSH2 0x11B5 JUMPI PUSH0 DUP2 SSTORE PUSH1 0x1 ADD PUSH2 0x11A2 JUMP JUMPDEST POP POP JUMPDEST POP POP POP JUMP JUMPDEST PUSH8 0xFFFFFFFFFFFFFFFF DUP4 GT ISZERO PUSH2 0x11D5 JUMPI PUSH2 0x11D5 PUSH2 0xF75 JUMP JUMPDEST PUSH2 0x11E9 DUP4 PUSH2 0x11E3 DUP4 SLOAD PUSH2 0x1139 JUMP JUMPDEST DUP4 PUSH2 0x1171 JUMP JUMPDEST PUSH0 PUSH1 0x1F DUP5 GT PUSH1 0x1 DUP2 EQ PUSH2 0x121A JUMPI PUSH0 DUP6 ISZERO PUSH2 0x1203 JUMPI POP DUP4 DUP3 ADD CALLDATALOAD JUMPDEST PUSH0 NOT PUSH1 0x3 DUP8 SWAP1 SHL SHR NOT AND PUSH1 0x1 DUP7 SWAP1 SHL OR DUP4 SSTORE PUSH2 0x11B5 JUMP JUMPDEST PUSH0 DUP4 DUP2 MSTORE PUSH1 0x20 DUP2 KECCAK256 PUSH1 0x1F NOT DUP8 AND SWAP2 JUMPDEST DUP3 DUP2 LT ISZERO PUSH2 0x1249 JUMPI DUP7 DUP6 ADD CALLDATALOAD DUP3 SSTORE PUSH1 0x20 SWAP5 DUP6 ADD SWAP5 PUSH1 0x1 SWAP1 SWAP3 ADD SWAP2 ADD PUSH2 0x1229 JUMP JUMPDEST POP DUP7 DUP3 LT ISZERO PUSH2 0x1265 JUMPI PUSH0 NOT PUSH1 0xF8 DUP9 PUSH1 0x3 SHL AND SHR NOT DUP5 DUP8 ADD CALLDATALOAD AND DUP2 SSTORE JUMPDEST POP POP PUSH1 0x1 DUP6 PUSH1 0x1 SHL ADD DUP4 SSTORE POP POP POP POP POP JUMP JUMPDEST DUP2 DUP4 DUP3 CALLDATACOPY PUSH0 SWAP2 ADD SWAP1 DUP2 MSTORE SWAP2 SWAP1 POP JUMP JUMPDEST PUSH0 DUP3 MLOAD DUP1 PUSH1 0x20 DUP6 ADD DUP5 MCOPY PUSH0 SWAP3 ADD SWAP2 DUP3 MSTORE POP SWAP2 SWAP1 POP JUMP JUMPDEST PUSH1 0x80 DUP2 MSTORE DUP5 PUSH1 0x80 DUP3 ADD MSTORE DUP5 DUP7 PUSH1 0xA0 DUP4 ADD CALLDATACOPY PUSH0 PUSH1 0xA0 DUP7 DUP4 ADD ADD MSTORE PUSH0 PUSH1 0xA0 PUSH1 0x1F NOT PUSH1 0x1F DUP9 ADD AND DUP4 ADD ADD SWAP1 POP DUP5 PUSH1 0x20 DUP4 ADD MSTORE DUP4 PUSH1 0x40 DUP4 ADD MSTORE DUP3 ISZERO ISZERO PUSH1 0x60 DUP4 ADD MSTORE SWAP7 SWAP6 POP POP POP POP POP POP JUMP JUMPDEST DUP2 DUP2 SUB DUP2 DUP2 GT ISZERO PUSH2 0x825 JUMPI PUSH2 0x825 PUSH2 0x10CF JUMP INVALID LOG2 PUSH5 0x6970667358 0x22 SLT KECCAK256 SELFBALANCE PUSH24 0x9DAF0E64B164C65B62FBAE7E43217180D04284E8B4B10816 0x4E 0xB0 CALLDATACOPY SWAP3 LOG0 0xAE PUSH5 0x736F6C6343 STOP ADDMOD BYTE STOP CALLER "
				},
				"gasEstimates": {
					"creation": {
						"codeDepositCost": "981600",
						"executionCost": "infinite",
						"totalCost": "infinite"
					},
					"external": {
						"addNode(string)": "infinite",
						"checkTreasuryBalance()": "194",
						"deleteNode(string)": "infinite",
						"feedNodeRecord(address[],string[],uint256[])": "infinite",
						"fillTreasury()": "infinite",
						"getNodeIds(address)": "infinite",
						"getStakeAmountOfNode(address,string)": "infinite",
						"nodeExists(address,string)": "infinite",
						"owner()": "infinite",
						"totalStakedOfUser(address)": "2573",
						"totalStakedStorCoins()": "infinite"
					}
				},
				"methodIdentifiers": {
					"addNode(string)": "8994dd8e",
					"checkTreasuryBalance()": "0f138bfe",
					"deleteNode(string)": "a0c15b77",
					"feedNodeRecord(address[],string[],uint256[])": "2e31ddf1",
					"fillTreasury()": "0d8f7614",
					"getNodeIds(address)": "2e4e2531",
					"getStakeAmountOfNode(address,string)": "4652e69b",
					"nodeExists(address,string)": "764232bf",
					"owner()": "8da5cb5b",
					"totalStakedOfUser(address)": "83090407",
					"totalStakedStorCoins()": "4cd06072"
				}
			},
			"storageLayout": {
				"storage": [
					{
						"astId": 14,
						"contract": "EthTesting.sol/storageChain.sol:StakingContract",
						"label": "locked",
						"offset": 0,
						"slot": "0",
						"type": "t_bool"
					},
					{
						"astId": 18,
						"contract": "EthTesting.sol/storageChain.sol:StakingContract",
						"label": "totalStakedTokens",
						"offset": 0,
						"slot": "1",
						"type": "t_uint256"
					},
					{
						"astId": 23,
						"contract": "EthTesting.sol/storageChain.sol:StakingContract",
						"label": "userInfo",
						"offset": 0,
						"slot": "2",
						"type": "t_mapping(t_address,t_struct(UserInfo)7_storage)"
					},
					{
						"astId": 30,
						"contract": "EthTesting.sol/storageChain.sol:StakingContract",
						"label": "stakeInfo",
						"offset": 0,
						"slot": "3",
						"type": "t_mapping(t_address,t_mapping(t_string_memory_ptr,t_struct(StakeInfo)12_storage))"
					}
				],
				"types": {
					"t_address": {
						"encoding": "inplace",
						"label": "address",
						"numberOfBytes": "20"
					},
					"t_array(t_string_storage)dyn_storage": {
						"base": "t_string_storage",
						"encoding": "dynamic_array",
						"label": "string[]",
						"numberOfBytes": "32"
					},
					"t_bool": {
						"encoding": "inplace",
						"label": "bool",
						"numberOfBytes": "1"
					},
					"t_mapping(t_address,t_mapping(t_string_memory_ptr,t_struct(StakeInfo)12_storage))": {
						"encoding": "mapping",
						"key": "t_address",
						"label": "mapping(address => mapping(string => struct StakingContract.StakeInfo))",
						"numberOfBytes": "32",
						"value": "t_mapping(t_string_memory_ptr,t_struct(StakeInfo)12_storage)"
					},
					"t_mapping(t_address,t_struct(UserInfo)7_storage)": {
						"encoding": "mapping",
						"key": "t_address",
						"label": "mapping(address => struct StakingContract.UserInfo)",
						"numberOfBytes": "32",
						"value": "t_struct(UserInfo)7_storage"
					},
					"t_mapping(t_string_memory_ptr,t_struct(StakeInfo)12_storage)": {
						"encoding": "mapping",
						"key": "t_string_memory_ptr",
						"label": "mapping(string => struct StakingContract.StakeInfo)",
						"numberOfBytes": "32",
						"value": "t_struct(StakeInfo)12_storage"
					},
					"t_string_memory_ptr": {
						"encoding": "bytes",
						"label": "string",
						"numberOfBytes": "32"
					},
					"t_string_storage": {
						"encoding": "bytes",
						"label": "string",
						"numberOfBytes": "32"
					},
					"t_struct(StakeInfo)12_storage": {
						"encoding": "inplace",
						"label": "struct StakingContract.StakeInfo",
						"members": [
							{
								"astId": 9,
								"contract": "EthTesting.sol/storageChain.sol:StakingContract",
								"label": "isNodeAlive",
								"offset": 0,
								"slot": "0",
								"type": "t_bool"
							},
							{
								"astId": 11,
								"contract": "EthTesting.sol/storageChain.sol:StakingContract",
								"label": "stakedAmount",
								"offset": 0,
								"slot": "1",
								"type": "t_uint256"
							}
						],
						"numberOfBytes": "64"
					},
					"t_struct(UserInfo)7_storage": {
						"encoding": "inplace",
						"label": "struct StakingContract.UserInfo",
						"members": [
							{
								"astId": 4,
								"contract": "EthTesting.sol/storageChain.sol:StakingContract",
								"label": "nodeIds",
								"offset": 0,
								"slot": "0",
								"type": "t_array(t_string_storage)dyn_storage"
							},
							{
								"astId": 6,
								"contract": "EthTesting.sol/storageChain.sol:StakingContract",
								"label": "totalStakedAmount",
								"offset": 0,
								"slot": "1",
								"type": "t_uint256"
							}
						],
						"numberOfBytes": "64"
					},
					"t_uint256": {
						"encoding": "inplace",
						"label": "uint256",
						"numberOfBytes": "32"
					}
				}
			},
			"userdoc": {
				"kind": "user",
				"methods": {},
				"version": 1
			}
		}
	}
}