{
	"EthTesting.sol/checkRenterncy.sol": {
		"StakingContract": {
			"abi": [
				{
					"inputs": [],
					"stateMutability": "nonpayable",
					"type": "constructor"
				},
				{
					"anonymous": false,
					"inputs": [
						{
							"indexed": false,
							"internalType": "string",
							"name": "nodeId",
							"type": "string"
						},
						{
							"indexed": true,
							"internalType": "address",
							"name": "userAddress",
							"type": "address"
						},
						{
							"indexed": false,
							"internalType": "uint256",
							"name": "stakedAmount",
							"type": "uint256"
						},
						{
							"indexed": false,
							"internalType": "uint256",
							"name": "totalStakedAmount",
							"type": "uint256"
						},
						{
							"indexed": false,
							"internalType": "bool",
							"name": "tokenStaked",
							"type": "bool"
						}
					],
					"name": "StakeEvent",
					"type": "event"
				},
				{
					"anonymous": false,
					"inputs": [
						{
							"indexed": true,
							"internalType": "address",
							"name": "sender",
							"type": "address"
						},
						{
							"indexed": false,
							"internalType": "uint256",
							"name": "value",
							"type": "uint256"
						}
					],
					"name": "Transferred",
					"type": "event"
				},
				{
					"inputs": [
						{
							"internalType": "string",
							"name": "_nodeId",
							"type": "string"
						}
					],
					"name": "addNode",
					"outputs": [],
					"stateMutability": "payable",
					"type": "function"
				},
				{
					"inputs": [],
					"name": "checkTreasuryBalance",
					"outputs": [
						{
							"internalType": "uint256",
							"name": "",
							"type": "uint256"
						}
					],
					"stateMutability": "view",
					"type": "function"
				},
				{
					"inputs": [
						{
							"internalType": "string",
							"name": "_nodeId",
							"type": "string"
						}
					],
					"name": "deleteNode",
					"outputs": [],
					"stateMutability": "nonpayable",
					"type": "function"
				},
				{
					"inputs": [
						{
							"internalType": "address[]",
							"name": "_userAddresses",
							"type": "address[]"
						},
						{
							"internalType": "string[]",
							"name": "_nodeIds",
							"type": "string[]"
						},
						{
							"internalType": "uint256[]",
							"name": "_stakedAmounts",
							"type": "uint256[]"
						}
					],
					"name": "feedNodeRecord",
					"outputs": [],
					"stateMutability": "nonpayable",
					"type": "function"
				},
				{
					"inputs": [],
					"name": "fillTreasury",
					"outputs": [],
					"stateMutability": "payable",
					"type": "function"
				},
				{
					"inputs": [],
					"name": "owner",
					"outputs": [
						{
							"internalType": "address",
							"name": "",
							"type": "address"
						}
					],
					"stateMutability": "view",
					"type": "function"
				},
				{
					"stateMutability": "payable",
					"type": "receive"
				}
			],
			"devdoc": {
				"kind": "dev",
				"methods": {
					"addNode(string)": {
						"details": "Adds a new node and stakes tokens to it.",
						"params": {
							"_nodeId": "The ID of the node to be added."
						}
					},
					"checkTreasuryBalance()": {
						"details": "Checks the contract's current treasury balance."
					},
					"deleteNode(string)": {
						"details": "Deletes an existing node and unstakes the associated tokens.",
						"params": {
							"_nodeId": "The ID of the node to be deleted."
						}
					},
					"feedNodeRecord(address[],string[],uint256[])": {
						"details": "Feeds old contract data into the new contract.",
						"params": {
							"_nodeIds": "Array of node IDs corresponding to users.",
							"_stakedAmounts": "Array of staked amounts corresponding to each node.",
							"_userAddresses": "Array of user addresses."
						}
					},
					"fillTreasury()": {
						"details": "Fills the contract treasury with funds."
					}
				},
				"version": 1
			},
			"evm": {
				"assembly": "    /* \"EthTesting.sol/checkRenterncy.sol\":60:4353  contract StakingContract  {... */\n  mstore(0x40, 0xa0)\n    /* \"EthTesting.sol/checkRenterncy.sol\":771:820  constructor() {... */\n  callvalue\n  dup1\n  iszero\n  tag_1\n  jumpi\n  0x00\n  dup1\n  revert\ntag_1:\n  pop\n    /* \"EthTesting.sol/checkRenterncy.sol\":803:813  msg.sender */\n  caller\n    /* \"EthTesting.sol/checkRenterncy.sol\":795:813  owner = msg.sender */\n  0x80\n  mstore\n    /* \"EthTesting.sol/checkRenterncy.sol\":60:4353  contract StakingContract  {... */\n  mload(0x80)\n  codecopy(0x00, dataOffset(sub_0), dataSize(sub_0))\n  0x00\n  assignImmutable(\"0x277ab82e5a4641341820a4a2933a62c1de997e42e92548657ae21b3728d580fe\")\n  return(0x00, dataSize(sub_0))\nstop\n\nsub_0: assembly {\n        /* \"EthTesting.sol/checkRenterncy.sol\":60:4353  contract StakingContract  {... */\n      mstore(0x40, 0x80)\n      jumpi(tag_1, lt(calldatasize, 0x04))\n      shr(0xe0, calldataload(0x00))\n      dup1\n      0x0d8f7614\n      eq\n      tag_3\n      jumpi\n      dup1\n      0x0f138bfe\n      eq\n      tag_4\n      jumpi\n      dup1\n      0x2e31ddf1\n      eq\n      tag_5\n      jumpi\n      dup1\n      0x8994dd8e\n      eq\n      tag_6\n      jumpi\n      dup1\n      0x8da5cb5b\n      eq\n      tag_7\n      jumpi\n      dup1\n      0xa0c15b77\n      eq\n      tag_8\n      jumpi\n      0x00\n      dup1\n      revert\n    tag_1:\n      jumpi(tag_2, calldatasize)\n        /* \"EthTesting.sol/checkRenterncy.sol\":4310:4344  Transferred(msg.sender, msg.value) */\n      mload(0x40)\n        /* \"EthTesting.sol/checkRenterncy.sol\":4334:4343  msg.value */\n      callvalue\n        /* \"#utility.yul\":160:185   */\n      dup2\n      mstore\n        /* \"EthTesting.sol/checkRenterncy.sol\":4322:4332  msg.sender */\n      caller\n      swap1\n        /* \"EthTesting.sol/checkRenterncy.sol\":4310:4344  Transferred(msg.sender, msg.value) */\n      0xe6d858f14d755446648a6e0c8ab8b5a0f58ccc7920d4c910b0454e4dcd869af0\n      swap1\n        /* \"#utility.yul\":148:150   */\n      0x20\n        /* \"#utility.yul\":133:151   */\n      add\n        /* \"EthTesting.sol/checkRenterncy.sol\":4310:4344  Transferred(msg.sender, msg.value) */\n      mload(0x40)\n      dup1\n      swap2\n      sub\n      swap1\n      log2\n        /* \"EthTesting.sol/checkRenterncy.sol\":60:4353  contract StakingContract  {... */\n      stop\n    tag_2:\n      0x00\n      dup1\n      revert\n        /* \"EthTesting.sol/checkRenterncy.sol\":3644:3801  function fillTreasury() external payable onlyOwner {... */\n    tag_3:\n      tag_13\n      tag_14\n      jump\t// in\n    tag_13:\n      stop\n        /* \"EthTesting.sol/checkRenterncy.sol\":3884:3993  function checkTreasuryBalance() external view returns (uint256) {... */\n    tag_4:\n      callvalue\n      dup1\n      iszero\n      tag_15\n      jumpi\n      0x00\n      dup1\n      revert\n    tag_15:\n      pop\n      mload(0x40)\n        /* \"EthTesting.sol/checkRenterncy.sol\":3965:3986  address(this).balance */\n      selfbalance\n        /* \"#utility.yul\":160:185   */\n      dup2\n      mstore\n        /* \"#utility.yul\":148:150   */\n      0x20\n        /* \"#utility.yul\":133:151   */\n      add\n        /* \"EthTesting.sol/checkRenterncy.sol\":3884:3993  function checkTreasuryBalance() external view returns (uint256) {... */\n    tag_18:\n      mload(0x40)\n      dup1\n      swap2\n      sub\n      swap1\n      return\n        /* \"EthTesting.sol/checkRenterncy.sol\":1114:1850  function feedNodeRecord(... */\n    tag_5:\n      callvalue\n      dup1\n      iszero\n      tag_19\n      jumpi\n      0x00\n      dup1\n      revert\n    tag_19:\n      pop\n      tag_13\n      tag_21\n      calldatasize\n      0x04\n      tag_22\n      jump\t// in\n    tag_21:\n      tag_23\n      jump\t// in\n        /* \"EthTesting.sol/checkRenterncy.sol\":1988:2517  function addNode(string calldata _nodeId) external payable nonReentrant {... */\n    tag_6:\n      tag_13\n      tag_25\n      calldatasize\n      0x04\n      tag_26\n      jump\t// in\n    tag_25:\n      tag_27\n      jump\t// in\n        /* \"EthTesting.sol/checkRenterncy.sol\":359:389  address public immutable owner */\n    tag_7:\n      callvalue\n      dup1\n      iszero\n      tag_28\n      jumpi\n      0x00\n      dup1\n      revert\n    tag_28:\n      pop\n      tag_29\n      immutable(\"0x277ab82e5a4641341820a4a2933a62c1de997e42e92548657ae21b3728d580fe\")\n      dup2\n      jump\n    tag_29:\n      mload(0x40)\n      sub(shl(0xa0, 0x01), 0x01)\n        /* \"#utility.yul\":2440:2472   */\n      swap1\n      swap2\n      and\n        /* \"#utility.yul\":2422:2473   */\n      dup2\n      mstore\n        /* \"#utility.yul\":2410:2412   */\n      0x20\n        /* \"#utility.yul\":2395:2413   */\n      add\n        /* \"EthTesting.sol/checkRenterncy.sol\":359:389  address public immutable owner */\n      tag_18\n        /* \"#utility.yul\":2276:2479   */\n      jump\n        /* \"EthTesting.sol/checkRenterncy.sol\":2677:3569  function deleteNode(string calldata _nodeId) external nonReentrant {... */\n    tag_8:\n      callvalue\n      dup1\n      iszero\n      tag_33\n      jumpi\n      0x00\n      dup1\n      revert\n    tag_33:\n      pop\n      tag_13\n      tag_35\n      calldatasize\n      0x04\n      tag_26\n      jump\t// in\n    tag_35:\n      tag_36\n      jump\t// in\n        /* \"EthTesting.sol/checkRenterncy.sol\":3644:3801  function fillTreasury() external payable onlyOwner {... */\n    tag_14:\n        /* \"EthTesting.sol/checkRenterncy.sol\":4038:4048  msg.sender */\n      caller\n      sub(shl(0xa0, 0x01), 0x01)\n        /* \"EthTesting.sol/checkRenterncy.sol\":4052:4057  owner */\n      immutable(\"0x277ab82e5a4641341820a4a2933a62c1de997e42e92548657ae21b3728d580fe\")\n        /* \"EthTesting.sol/checkRenterncy.sol\":4038:4057  msg.sender == owner */\n      and\n      eq\n        /* \"EthTesting.sol/checkRenterncy.sol\":4030:4083  require(msg.sender == owner, \"Only owner can access\") */\n      tag_38\n      jumpi\n      mload(0x40)\n      shl(0xe5, 0x461bcd)\n      dup2\n      mstore\n        /* \"#utility.yul\":2686:2688   */\n      0x20\n        /* \"EthTesting.sol/checkRenterncy.sol\":4030:4083  require(msg.sender == owner, \"Only owner can access\") */\n      0x04\n      dup3\n      add\n        /* \"#utility.yul\":2668:2689   */\n      mstore\n        /* \"#utility.yul\":2725:2727   */\n      0x15\n        /* \"#utility.yul\":2705:2723   */\n      0x24\n      dup3\n      add\n        /* \"#utility.yul\":2698:2728   */\n      mstore\n      shl(0x58, 0x4f6e6c79206f776e65722063616e20616363657373)\n        /* \"#utility.yul\":2744:2762   */\n      0x44\n      dup3\n      add\n        /* \"#utility.yul\":2737:2788   */\n      mstore\n        /* \"#utility.yul\":2805:2823   */\n      0x64\n      add\n        /* \"EthTesting.sol/checkRenterncy.sol\":4030:4083  require(msg.sender == owner, \"Only owner can access\") */\n    tag_39:\n      mload(0x40)\n      dup1\n      swap2\n      sub\n      swap1\n      revert\n    tag_38:\n        /* \"EthTesting.sol/checkRenterncy.sol\":3725:3726  0 */\n      0x00\n        /* \"EthTesting.sol/checkRenterncy.sol\":3713:3722  msg.value */\n      callvalue\n        /* \"EthTesting.sol/checkRenterncy.sol\":3713:3726  msg.value > 0 */\n      gt\n        /* \"EthTesting.sol/checkRenterncy.sol\":3705:3745  require(msg.value > 0, \"Invalid Amount\") */\n      tag_42\n      jumpi\n      mload(0x40)\n      shl(0xe5, 0x461bcd)\n      dup2\n      mstore\n        /* \"#utility.yul\":3036:3038   */\n      0x20\n        /* \"EthTesting.sol/checkRenterncy.sol\":3705:3745  require(msg.value > 0, \"Invalid Amount\") */\n      0x04\n      dup3\n      add\n        /* \"#utility.yul\":3018:3039   */\n      mstore\n        /* \"#utility.yul\":3075:3077   */\n      0x0e\n        /* \"#utility.yul\":3055:3073   */\n      0x24\n      dup3\n      add\n        /* \"#utility.yul\":3048:3078   */\n      mstore\n      shl(0x92, 0x125b9d985b1a5908105b5bdd5b9d)\n        /* \"#utility.yul\":3094:3112   */\n      0x44\n      dup3\n      add\n        /* \"#utility.yul\":3087:3131   */\n      mstore\n        /* \"#utility.yul\":3148:3166   */\n      0x64\n      add\n        /* \"EthTesting.sol/checkRenterncy.sol\":3705:3745  require(msg.value > 0, \"Invalid Amount\") */\n      tag_39\n        /* \"#utility.yul\":2834:3172   */\n      jump\n        /* \"EthTesting.sol/checkRenterncy.sol\":3705:3745  require(msg.value > 0, \"Invalid Amount\") */\n    tag_42:\n        /* \"EthTesting.sol/checkRenterncy.sol\":3760:3794  Transferred(msg.sender, msg.value) */\n      mload(0x40)\n        /* \"EthTesting.sol/checkRenterncy.sol\":3784:3793  msg.value */\n      callvalue\n        /* \"#utility.yul\":160:185   */\n      dup2\n      mstore\n        /* \"EthTesting.sol/checkRenterncy.sol\":3772:3782  msg.sender */\n      caller\n      swap1\n        /* \"EthTesting.sol/checkRenterncy.sol\":3760:3794  Transferred(msg.sender, msg.value) */\n      0xe6d858f14d755446648a6e0c8ab8b5a0f58ccc7920d4c910b0454e4dcd869af0\n      swap1\n        /* \"#utility.yul\":148:150   */\n      0x20\n        /* \"#utility.yul\":133:151   */\n      add\n        /* \"EthTesting.sol/checkRenterncy.sol\":3760:3794  Transferred(msg.sender, msg.value) */\n      mload(0x40)\n      dup1\n      swap2\n      sub\n      swap1\n      log2\n        /* \"EthTesting.sol/checkRenterncy.sol\":3644:3801  function fillTreasury() external payable onlyOwner {... */\n      jump\t// out\n        /* \"EthTesting.sol/checkRenterncy.sol\":1114:1850  function feedNodeRecord(... */\n    tag_23:\n        /* \"EthTesting.sol/checkRenterncy.sol\":4038:4048  msg.sender */\n      caller\n      sub(shl(0xa0, 0x01), 0x01)\n        /* \"EthTesting.sol/checkRenterncy.sol\":4052:4057  owner */\n      immutable(\"0x277ab82e5a4641341820a4a2933a62c1de997e42e92548657ae21b3728d580fe\")\n        /* \"EthTesting.sol/checkRenterncy.sol\":4038:4057  msg.sender == owner */\n      and\n      eq\n        /* \"EthTesting.sol/checkRenterncy.sol\":4030:4083  require(msg.sender == owner, \"Only owner can access\") */\n      tag_48\n      jumpi\n      mload(0x40)\n      shl(0xe5, 0x461bcd)\n      dup2\n      mstore\n        /* \"#utility.yul\":2686:2688   */\n      0x20\n        /* \"EthTesting.sol/checkRenterncy.sol\":4030:4083  require(msg.sender == owner, \"Only owner can access\") */\n      0x04\n      dup3\n      add\n        /* \"#utility.yul\":2668:2689   */\n      mstore\n        /* \"#utility.yul\":2725:2727   */\n      0x15\n        /* \"#utility.yul\":2705:2723   */\n      0x24\n      dup3\n      add\n        /* \"#utility.yul\":2698:2728   */\n      mstore\n      shl(0x58, 0x4f6e6c79206f776e65722063616e20616363657373)\n        /* \"#utility.yul\":2744:2762   */\n      0x44\n      dup3\n      add\n        /* \"#utility.yul\":2737:2788   */\n      mstore\n        /* \"#utility.yul\":2805:2823   */\n      0x64\n      add\n        /* \"EthTesting.sol/checkRenterncy.sol\":4030:4083  require(msg.sender == owner, \"Only owner can access\") */\n      tag_39\n        /* \"#utility.yul\":2484:2829   */\n      jump\n        /* \"EthTesting.sol/checkRenterncy.sol\":4030:4083  require(msg.sender == owner, \"Only owner can access\") */\n    tag_48:\n        /* \"EthTesting.sol/checkRenterncy.sol\":1310:1316  uint i */\n      0x00\n        /* \"EthTesting.sol/checkRenterncy.sol\":1305:1768  for (uint i = 0; i < _userAddresses.length; i++) {... */\n    tag_51:\n        /* \"EthTesting.sol/checkRenterncy.sol\":1322:1347  i < _userAddresses.length */\n      dup6\n      dup2\n      lt\n        /* \"EthTesting.sol/checkRenterncy.sol\":1305:1768  for (uint i = 0; i < _userAddresses.length; i++) {... */\n      iszero\n      tag_52\n      jumpi\n        /* \"EthTesting.sol/checkRenterncy.sol\":1368:1387  address userAddress */\n      0x00\n        /* \"EthTesting.sol/checkRenterncy.sol\":1390:1404  _userAddresses */\n      dup8\n      dup8\n        /* \"EthTesting.sol/checkRenterncy.sol\":1405:1406  i */\n      dup4\n        /* \"EthTesting.sol/checkRenterncy.sol\":1390:1407  _userAddresses[i] */\n      dup2\n      dup2\n      lt\n      tag_55\n      jumpi\n      tag_55\n      tag_56\n      jump\t// in\n    tag_55:\n      swap1\n      pop\n      0x20\n      mul\n      add\n      0x20\n      dup2\n      add\n      swap1\n      tag_57\n      swap2\n      swap1\n      tag_58\n      jump\t// in\n    tag_57:\n        /* \"EthTesting.sol/checkRenterncy.sol\":1368:1407  address userAddress = _userAddresses[i] */\n      swap1\n      pop\n        /* \"EthTesting.sol/checkRenterncy.sol\":1421:1441  string memory nodeId */\n      0x00\n        /* \"EthTesting.sol/checkRenterncy.sol\":1444:1452  _nodeIds */\n      dup7\n      dup7\n        /* \"EthTesting.sol/checkRenterncy.sol\":1453:1454  i */\n      dup5\n        /* \"EthTesting.sol/checkRenterncy.sol\":1444:1455  _nodeIds[i] */\n      dup2\n      dup2\n      lt\n      tag_60\n      jumpi\n      tag_60\n      tag_56\n      jump\t// in\n    tag_60:\n      swap1\n      pop\n      0x20\n      mul\n      dup2\n      add\n      swap1\n      tag_61\n      swap2\n      swap1\n      tag_62\n      jump\t// in\n    tag_61:\n        /* \"EthTesting.sol/checkRenterncy.sol\":1421:1455  string memory nodeId = _nodeIds[i] */\n      dup1\n      dup1\n      0x1f\n      add\n      0x20\n      dup1\n      swap2\n      div\n      mul\n      0x20\n      add\n      mload(0x40)\n      swap1\n      dup2\n      add\n      0x40\n      mstore\n      dup1\n      swap4\n      swap3\n      swap2\n      swap1\n      dup2\n      dup2\n      mstore\n      0x20\n      add\n      dup4\n      dup4\n      dup1\n      dup3\n      dup5\n      calldatacopy\n      0x00\n      swap3\n      add\n      dup3\n      swap1\n      mstore\n      pop\n      swap4\n      swap5\n      pop\n        /* \"EthTesting.sol/checkRenterncy.sol\":1492:1506  _stakedAmounts */\n      dup9\n      swap3\n      pop\n      dup8\n      swap2\n      pop\n        /* \"EthTesting.sol/checkRenterncy.sol\":1507:1508  i */\n      dup7\n      swap1\n      pop\n        /* \"EthTesting.sol/checkRenterncy.sol\":1492:1509  _stakedAmounts[i] */\n      dup2\n      dup2\n      lt\n      tag_64\n      jumpi\n      tag_64\n      tag_56\n      jump\t// in\n    tag_64:\n      swap1\n      pop\n      0x20\n      mul\n      add\n      calldataload\n        /* \"EthTesting.sol/checkRenterncy.sol\":1469:1509  uint256 stakedAmount = _stakedAmounts[i] */\n      swap1\n      pop\n        /* \"EthTesting.sol/checkRenterncy.sol\":1544:1556  stakedAmount */\n      dup1\n        /* \"EthTesting.sol/checkRenterncy.sol\":1523:1540  totalStakedTokens */\n      0x01\n      0x00\n        /* \"EthTesting.sol/checkRenterncy.sol\":1523:1556  totalStakedTokens += stakedAmount */\n      dup3\n      dup3\n      sload\n      tag_65\n      swap2\n      swap1\n      tag_66\n      jump\t// in\n    tag_65:\n      swap1\n      swap2\n      sstore\n      pop\n      pop\n      sub(shl(0xa0, 0x01), 0x01)\n        /* \"EthTesting.sol/checkRenterncy.sol\":1570:1591  userInfo[userAddress] */\n      dup4\n      and\n      0x00\n      swap1\n      dup2\n      mstore\n        /* \"EthTesting.sol/checkRenterncy.sol\":1570:1578  userInfo */\n      0x03\n        /* \"EthTesting.sol/checkRenterncy.sol\":1570:1591  userInfo[userAddress] */\n      0x20\n      mstore\n      0x40\n      dup2\n      keccak256\n        /* \"EthTesting.sol/checkRenterncy.sol\":1570:1609  userInfo[userAddress].totalStakedAmount */\n      0x01\n      add\n        /* \"EthTesting.sol/checkRenterncy.sol\":1570:1625  userInfo[userAddress].totalStakedAmount += stakedAmount */\n      dup1\n      sload\n        /* \"EthTesting.sol/checkRenterncy.sol\":1613:1625  stakedAmount */\n      dup4\n      swap3\n        /* \"EthTesting.sol/checkRenterncy.sol\":1570:1591  userInfo[userAddress] */\n      swap1\n        /* \"EthTesting.sol/checkRenterncy.sol\":1570:1625  userInfo[userAddress].totalStakedAmount += stakedAmount */\n      tag_67\n      swap1\n        /* \"EthTesting.sol/checkRenterncy.sol\":1613:1625  stakedAmount */\n      dup5\n      swap1\n        /* \"EthTesting.sol/checkRenterncy.sol\":1570:1625  userInfo[userAddress].totalStakedAmount += stakedAmount */\n      tag_66\n      jump\t// in\n    tag_67:\n      swap1\n      swap2\n      sstore\n      pop\n      pop\n      sub(shl(0xa0, 0x01), 0x01)\n        /* \"EthTesting.sol/checkRenterncy.sol\":1639:1660  userInfo[userAddress] */\n      dup4\n      and\n      0x00\n      swap1\n      dup2\n      mstore\n        /* \"EthTesting.sol/checkRenterncy.sol\":1639:1647  userInfo */\n      0x03\n        /* \"EthTesting.sol/checkRenterncy.sol\":1639:1660  userInfo[userAddress] */\n      0x20\n      swap1\n      dup2\n      mstore\n      0x40\n      dup3\n      keccak256\n        /* \"EthTesting.sol/checkRenterncy.sol\":1639:1681  userInfo[userAddress].nodeIds.push(nodeId) */\n      dup1\n      sload\n      0x01\n      dup2\n      add\n      dup3\n      sstore\n      swap1\n      dup4\n      mstore\n      swap2\n      keccak256\n      add\n      tag_69\n        /* \"EthTesting.sol/checkRenterncy.sol\":1674:1680  nodeId */\n      dup4\n        /* \"EthTesting.sol/checkRenterncy.sol\":1639:1681  userInfo[userAddress].nodeIds.push(nodeId) */\n      dup3\n      tag_70\n      jump\t// in\n    tag_69:\n      pop\n        /* \"EthTesting.sol/checkRenterncy.sol\":1728:1757  StakeInfo(stakedAmount, true) */\n      mload(0x40)\n      dup1\n      0x40\n      add\n      0x40\n      mstore\n      dup1\n        /* \"EthTesting.sol/checkRenterncy.sol\":1738:1750  stakedAmount */\n      dup3\n        /* \"EthTesting.sol/checkRenterncy.sol\":1728:1757  StakeInfo(stakedAmount, true) */\n      dup2\n      mstore\n      0x20\n      add\n        /* \"EthTesting.sol/checkRenterncy.sol\":1752:1756  true */\n      0x01\n        /* \"EthTesting.sol/checkRenterncy.sol\":1728:1757  StakeInfo(stakedAmount, true) */\n      iszero\n      iszero\n      dup2\n      mstore\n      pop\n        /* \"EthTesting.sol/checkRenterncy.sol\":1695:1704  stakeInfo */\n      0x02\n        /* \"EthTesting.sol/checkRenterncy.sol\":1695:1717  stakeInfo[userAddress] */\n      0x00\n        /* \"EthTesting.sol/checkRenterncy.sol\":1705:1716  userAddress */\n      dup6\n      sub(shl(0xa0, 0x01), 0x01)\n        /* \"EthTesting.sol/checkRenterncy.sol\":1695:1717  stakeInfo[userAddress] */\n      and\n      sub(shl(0xa0, 0x01), 0x01)\n      and\n      dup2\n      mstore\n      0x20\n      add\n      swap1\n      dup2\n      mstore\n      0x20\n      add\n      0x00\n      keccak256\n        /* \"EthTesting.sol/checkRenterncy.sol\":1718:1724  nodeId */\n      dup4\n        /* \"EthTesting.sol/checkRenterncy.sol\":1695:1725  stakeInfo[userAddress][nodeId] */\n      mload(0x40)\n      tag_71\n      swap2\n      swap1\n      tag_72\n      jump\t// in\n    tag_71:\n      swap1\n      dup2\n      mstore\n      mload(0x40)\n      0x20\n      swap2\n      dup2\n      swap1\n      sub\n      dup3\n      add\n      swap1\n      keccak256\n        /* \"EthTesting.sol/checkRenterncy.sol\":1695:1757  stakeInfo[userAddress][nodeId] = StakeInfo(stakedAmount, true) */\n      dup3\n      mload\n      dup2\n      sstore\n      swap2\n      add\n      mload\n      0x01\n      swap2\n      dup3\n      add\n      dup1\n      sload\n      not(0xff)\n      and\n      swap2\n      iszero\n      iszero\n      swap2\n      swap1\n      swap2\n      or\n      swap1\n      sstore\n        /* \"EthTesting.sol/checkRenterncy.sol\":1349:1352  i++ */\n      swap4\n      swap1\n      swap4\n      add\n      swap3\n      pop\n        /* \"EthTesting.sol/checkRenterncy.sol\":1305:1768  for (uint i = 0; i < _userAddresses.length; i++) {... */\n      tag_51\n      swap2\n      pop\n      pop\n      jump\n    tag_52:\n      pop\n        /* \"EthTesting.sol/checkRenterncy.sol\":1782:1843  StakeEvent(\"Node stake info updated\", address(0), 0, 0, true) */\n      0x40\n      dup1\n      mload\n        /* \"#utility.yul\":7634:7637   */\n      0x80\n        /* \"#utility.yul\":7616:7638   */\n      dup1\n      dup3\n      mstore\n        /* \"#utility.yul\":7675:7677   */\n      0x17\n        /* \"#utility.yul\":7654:7673   */\n      swap1\n      dup3\n      add\n        /* \"#utility.yul\":7647:7678   */\n      mstore\n        /* \"#utility.yul\":7715:7740   */\n      0x4e6f6465207374616b6520696e666f2075706461746564000000000000000000\n        /* \"#utility.yul\":7709:7712   */\n      0xa0\n        /* \"#utility.yul\":7694:7713   */\n      dup3\n      add\n        /* \"#utility.yul\":7687:7741   */\n      mstore\n        /* \"EthTesting.sol/checkRenterncy.sol\":1828:1829  0 */\n      0x00\n        /* \"#utility.yul\":7808:7812   */\n      0x20\n        /* \"#utility.yul\":7793:7813   */\n      dup3\n      add\n        /* \"#utility.yul\":7786:7822   */\n      dup2\n      swap1\n      mstore\n        /* \"#utility.yul\":7838:7856   */\n      swap2\n      dup2\n      add\n        /* \"#utility.yul\":7831:7865   */\n      dup3\n      swap1\n      mstore\n        /* \"EthTesting.sol/checkRenterncy.sol\":1838:1842  true */\n      0x01\n      0x60\n        /* \"#utility.yul\":7881:7899   */\n      dup3\n      add\n        /* \"#utility.yul\":7874:7924   */\n      mstore\n        /* \"EthTesting.sol/checkRenterncy.sol\":1782:1843  StakeEvent(\"Node stake info updated\", address(0), 0, 0, true) */\n      0x5f0fdd6f33919218d99e95dadeb52206af20443cd68b7711230c6d19282e4e2b\n      swap1\n        /* \"#utility.yul\":7773:7776   */\n      0xc0\n        /* \"#utility.yul\":7758:7777   */\n      add\n        /* \"EthTesting.sol/checkRenterncy.sol\":1782:1843  StakeEvent(\"Node stake info updated\", address(0), 0, 0, true) */\n      mload(0x40)\n      dup1\n      swap2\n      sub\n      swap1\n      log2\n        /* \"EthTesting.sol/checkRenterncy.sol\":1114:1850  function feedNodeRecord(... */\n      pop\n      pop\n      pop\n      pop\n      pop\n      pop\n      jump\t// out\n        /* \"EthTesting.sol/checkRenterncy.sol\":1988:2517  function addNode(string calldata _nodeId) external payable nonReentrant {... */\n    tag_27:\n        /* \"EthTesting.sol/checkRenterncy.sol\":4150:4156  locked */\n      and(0xff, sload(0x00))\n        /* \"EthTesting.sol/checkRenterncy.sol\":4149:4156  !locked */\n      iszero\n        /* \"EthTesting.sol/checkRenterncy.sol\":4141:4192  require(!locked, \"ReentrancyGuard: reentrant call\") */\n      tag_76\n      jumpi\n      mload(0x40)\n      shl(0xe5, 0x461bcd)\n      dup2\n      mstore\n        /* \"#utility.yul\":8137:8139   */\n      0x20\n        /* \"EthTesting.sol/checkRenterncy.sol\":4141:4192  require(!locked, \"ReentrancyGuard: reentrant call\") */\n      0x04\n      dup3\n      add\n        /* \"#utility.yul\":8119:8140   */\n      mstore\n        /* \"#utility.yul\":8176:8178   */\n      0x1f\n        /* \"#utility.yul\":8156:8174   */\n      0x24\n      dup3\n      add\n        /* \"#utility.yul\":8149:8179   */\n      mstore\n        /* \"#utility.yul\":8215:8248   */\n      0x5265656e7472616e637947756172643a207265656e7472616e742063616c6c00\n        /* \"#utility.yul\":8195:8213   */\n      0x44\n      dup3\n      add\n        /* \"#utility.yul\":8188:8249   */\n      mstore\n        /* \"#utility.yul\":8266:8284   */\n      0x64\n      add\n        /* \"EthTesting.sol/checkRenterncy.sol\":4141:4192  require(!locked, \"ReentrancyGuard: reentrant call\") */\n      tag_39\n        /* \"#utility.yul\":7935:8290   */\n      jump\n        /* \"EthTesting.sol/checkRenterncy.sol\":4141:4192  require(!locked, \"ReentrancyGuard: reentrant call\") */\n    tag_76:\n        /* \"EthTesting.sol/checkRenterncy.sol\":4202:4208  locked */\n      0x00\n        /* \"EthTesting.sol/checkRenterncy.sol\":4202:4215  locked = true */\n      dup1\n      sload\n      not(0xff)\n      and\n        /* \"EthTesting.sol/checkRenterncy.sol\":4211:4215  true */\n      0x01\n        /* \"EthTesting.sol/checkRenterncy.sol\":4202:4215  locked = true */\n      or\n      swap1\n      sstore\n        /* \"EthTesting.sol/checkRenterncy.sol\":2090:2096  50 wei */\n      0x32\n        /* \"EthTesting.sol/checkRenterncy.sol\":2078:2087  msg.value */\n      callvalue\n        /* \"EthTesting.sol/checkRenterncy.sol\":2078:2096  msg.value > 50 wei */\n      gt\n        /* \"EthTesting.sol/checkRenterncy.sol\":2070:2141  require(msg.value > 50 wei, \"Stake amount must be greater than 50 wei\") */\n      tag_80\n      jumpi\n      mload(0x40)\n      shl(0xe5, 0x461bcd)\n      dup2\n      mstore\n        /* \"#utility.yul\":8497:8499   */\n      0x20\n        /* \"EthTesting.sol/checkRenterncy.sol\":2070:2141  require(msg.value > 50 wei, \"Stake amount must be greater than 50 wei\") */\n      0x04\n      dup3\n      add\n        /* \"#utility.yul\":8479:8500   */\n      mstore\n        /* \"#utility.yul\":8536:8538   */\n      0x28\n        /* \"#utility.yul\":8516:8534   */\n      0x24\n      dup3\n      add\n        /* \"#utility.yul\":8509:8539   */\n      mstore\n        /* \"#utility.yul\":8575:8609   */\n      0x5374616b6520616d6f756e74206d757374206265206772656174657220746861\n        /* \"#utility.yul\":8555:8573   */\n      0x44\n      dup3\n      add\n        /* \"#utility.yul\":8548:8610   */\n      mstore\n      shl(0xc0, 0x6e20353020776569)\n        /* \"#utility.yul\":8626:8644   */\n      0x64\n      dup3\n      add\n        /* \"#utility.yul\":8619:8657   */\n      mstore\n        /* \"#utility.yul\":8674:8693   */\n      0x84\n      add\n        /* \"EthTesting.sol/checkRenterncy.sol\":2070:2141  require(msg.value > 50 wei, \"Stake amount must be greater than 50 wei\") */\n      tag_39\n        /* \"#utility.yul\":8295:8699   */\n      jump\n        /* \"EthTesting.sol/checkRenterncy.sol\":2070:2141  require(msg.value > 50 wei, \"Stake amount must be greater than 50 wei\") */\n    tag_80:\n        /* \"EthTesting.sol/checkRenterncy.sol\":2216:2225  msg.value */\n      callvalue\n        /* \"EthTesting.sol/checkRenterncy.sol\":2195:2212  totalStakedTokens */\n      0x01\n      0x00\n        /* \"EthTesting.sol/checkRenterncy.sol\":2195:2225  totalStakedTokens += msg.value */\n      dup3\n      dup3\n      sload\n      tag_83\n      swap2\n      swap1\n      tag_66\n      jump\t// in\n    tag_83:\n      swap1\n      swap2\n      sstore\n      pop\n      pop\n        /* \"EthTesting.sol/checkRenterncy.sol\":2244:2254  msg.sender */\n      caller\n        /* \"EthTesting.sol/checkRenterncy.sol\":2235:2255  userInfo[msg.sender] */\n      0x00\n      swap1\n      dup2\n      mstore\n        /* \"EthTesting.sol/checkRenterncy.sol\":2235:2243  userInfo */\n      0x03\n        /* \"EthTesting.sol/checkRenterncy.sol\":2235:2255  userInfo[msg.sender] */\n      0x20\n      mstore\n      0x40\n      dup2\n      keccak256\n        /* \"EthTesting.sol/checkRenterncy.sol\":2235:2273  userInfo[msg.sender].totalStakedAmount */\n      0x01\n      add\n        /* \"EthTesting.sol/checkRenterncy.sol\":2235:2286  userInfo[msg.sender].totalStakedAmount += msg.value */\n      dup1\n      sload\n        /* \"EthTesting.sol/checkRenterncy.sol\":2277:2286  msg.value */\n      callvalue\n      swap3\n        /* \"EthTesting.sol/checkRenterncy.sol\":2235:2255  userInfo[msg.sender] */\n      swap1\n        /* \"EthTesting.sol/checkRenterncy.sol\":2235:2286  userInfo[msg.sender].totalStakedAmount += msg.value */\n      tag_84\n      swap1\n        /* \"EthTesting.sol/checkRenterncy.sol\":2277:2286  msg.value */\n      dup5\n      swap1\n        /* \"EthTesting.sol/checkRenterncy.sol\":2235:2286  userInfo[msg.sender].totalStakedAmount += msg.value */\n      tag_66\n      jump\t// in\n    tag_84:\n      swap1\n      swap2\n      sstore\n      pop\n      pop\n        /* \"EthTesting.sol/checkRenterncy.sol\":2305:2315  msg.sender */\n      caller\n        /* \"EthTesting.sol/checkRenterncy.sol\":2296:2316  userInfo[msg.sender] */\n      0x00\n      swap1\n      dup2\n      mstore\n        /* \"EthTesting.sol/checkRenterncy.sol\":2296:2304  userInfo */\n      0x03\n        /* \"EthTesting.sol/checkRenterncy.sol\":2296:2316  userInfo[msg.sender] */\n      0x20\n      swap1\n      dup2\n      mstore\n      0x40\n      dup3\n      keccak256\n        /* \"EthTesting.sol/checkRenterncy.sol\":2296:2338  userInfo[msg.sender].nodeIds.push(_nodeId) */\n      dup1\n      sload\n      0x01\n      dup2\n      add\n      dup3\n      sstore\n      swap1\n      dup4\n      mstore\n      swap2\n      keccak256\n      add\n      tag_86\n        /* \"EthTesting.sol/checkRenterncy.sol\":2330:2337  _nodeId */\n      dup3\n      dup5\n        /* \"EthTesting.sol/checkRenterncy.sol\":2296:2338  userInfo[msg.sender].nodeIds.push(_nodeId) */\n      dup4\n      tag_87\n      jump\t// in\n    tag_86:\n      pop\n        /* \"EthTesting.sol/checkRenterncy.sol\":2381:2407  StakeInfo(msg.value, true) */\n      0x40\n      dup1\n      mload\n      dup1\n      dup3\n      add\n      dup3\n      mstore\n        /* \"EthTesting.sol/checkRenterncy.sol\":2391:2400  msg.value */\n      callvalue\n        /* \"EthTesting.sol/checkRenterncy.sol\":2381:2407  StakeInfo(msg.value, true) */\n      dup2\n      mstore\n        /* \"EthTesting.sol/checkRenterncy.sol\":2402:2406  true */\n      0x01\n        /* \"EthTesting.sol/checkRenterncy.sol\":2381:2407  StakeInfo(msg.value, true) */\n      0x20\n      dup1\n      dup4\n      add\n      swap2\n      swap1\n      swap2\n      mstore\n        /* \"EthTesting.sol/checkRenterncy.sol\":2358:2368  msg.sender */\n      caller\n      0x00\n        /* \"EthTesting.sol/checkRenterncy.sol\":2348:2369  stakeInfo[msg.sender] */\n      swap1\n      dup2\n      mstore\n        /* \"EthTesting.sol/checkRenterncy.sol\":2348:2357  stakeInfo */\n      0x02\n        /* \"EthTesting.sol/checkRenterncy.sol\":2348:2369  stakeInfo[msg.sender] */\n      swap1\n      swap2\n      mstore\n      dup3\n      swap1\n      keccak256\n        /* \"EthTesting.sol/checkRenterncy.sol\":2348:2378  stakeInfo[msg.sender][_nodeId] */\n      swap2\n      mload\n        /* \"EthTesting.sol/checkRenterncy.sol\":2381:2407  StakeInfo(msg.value, true) */\n      swap1\n      swap2\n        /* \"EthTesting.sol/checkRenterncy.sol\":2348:2369  stakeInfo[msg.sender] */\n      swap1\n        /* \"EthTesting.sol/checkRenterncy.sol\":2348:2378  stakeInfo[msg.sender][_nodeId] */\n      tag_88\n      swap1\n        /* \"EthTesting.sol/checkRenterncy.sol\":2370:2377  _nodeId */\n      dup6\n      swap1\n      dup6\n      swap1\n        /* \"EthTesting.sol/checkRenterncy.sol\":2348:2378  stakeInfo[msg.sender][_nodeId] */\n      tag_89\n      jump\t// in\n    tag_88:\n      swap1\n      dup2\n      mstore\n      0x40\n      dup1\n      mload\n      0x20\n      swap3\n      dup2\n      swap1\n      sub\n      dup4\n      add\n      dup2\n      keccak256\n        /* \"EthTesting.sol/checkRenterncy.sol\":2348:2407  stakeInfo[msg.sender][_nodeId] = StakeInfo(msg.value, true) */\n      dup5\n      mload\n      dup2\n      sstore\n      swap4\n      dup4\n      add\n      mload\n      0x01\n      swap5\n      dup6\n      add\n      dup1\n      sload\n      not(0xff)\n      and\n      swap2\n      iszero\n      iszero\n      swap2\n      swap1\n      swap2\n      or\n      swap1\n      sstore\n        /* \"EthTesting.sol/checkRenterncy.sol\":2442:2452  msg.sender */\n      caller\n      0x00\n        /* \"EthTesting.sol/checkRenterncy.sol\":2465:2485  userInfo[msg.sender] */\n      dup2\n      dup2\n      mstore\n        /* \"EthTesting.sol/checkRenterncy.sol\":2465:2473  userInfo */\n      0x03\n        /* \"EthTesting.sol/checkRenterncy.sol\":2465:2485  userInfo[msg.sender] */\n      swap1\n      swap5\n      mstore\n      swap2\n      swap1\n      swap3\n      keccak256\n        /* \"EthTesting.sol/checkRenterncy.sol\":2465:2503  userInfo[msg.sender].totalStakedAmount */\n      dup4\n      add\n      sload\n        /* \"EthTesting.sol/checkRenterncy.sol\":2442:2452  msg.sender */\n      swap1\n      swap3\n        /* \"EthTesting.sol/checkRenterncy.sol\":2422:2510  StakeEvent(_nodeId, msg.sender, msg.value, userInfo[msg.sender].totalStakedAmount, true) */\n      0x5f0fdd6f33919218d99e95dadeb52206af20443cd68b7711230c6d19282e4e2b\n      swap3\n      tag_90\n      swap3\n        /* \"EthTesting.sol/checkRenterncy.sol\":2433:2440  _nodeId */\n      dup8\n      swap3\n      dup8\n      swap3\n        /* \"EthTesting.sol/checkRenterncy.sol\":2454:2463  msg.value */\n      callvalue\n      swap3\n        /* \"EthTesting.sol/checkRenterncy.sol\":2465:2503  userInfo[msg.sender].totalStakedAmount */\n      swap2\n        /* \"EthTesting.sol/checkRenterncy.sol\":2348:2407  stakeInfo[msg.sender][_nodeId] = StakeInfo(msg.value, true) */\n      swap1\n        /* \"EthTesting.sol/checkRenterncy.sol\":2422:2510  StakeEvent(_nodeId, msg.sender, msg.value, userInfo[msg.sender].totalStakedAmount, true) */\n      tag_91\n      jump\t// in\n    tag_90:\n      mload(0x40)\n      dup1\n      swap2\n      sub\n      swap1\n      log2\n      pop\n      pop\n        /* \"EthTesting.sol/checkRenterncy.sol\":4245:4250  false */\n      0x00\n        /* \"EthTesting.sol/checkRenterncy.sol\":4236:4250  locked = false */\n      dup1\n      sload\n      not(0xff)\n      and\n      swap1\n      sstore\n        /* \"EthTesting.sol/checkRenterncy.sol\":1988:2517  function addNode(string calldata _nodeId) external payable nonReentrant {... */\n      jump\t// out\n        /* \"EthTesting.sol/checkRenterncy.sol\":2677:3569  function deleteNode(string calldata _nodeId) external nonReentrant {... */\n    tag_36:\n        /* \"EthTesting.sol/checkRenterncy.sol\":4150:4156  locked */\n      and(0xff, sload(0x00))\n        /* \"EthTesting.sol/checkRenterncy.sol\":4149:4156  !locked */\n      iszero\n        /* \"EthTesting.sol/checkRenterncy.sol\":4141:4192  require(!locked, \"ReentrancyGuard: reentrant call\") */\n      tag_93\n      jumpi\n      mload(0x40)\n      shl(0xe5, 0x461bcd)\n      dup2\n      mstore\n        /* \"#utility.yul\":8137:8139   */\n      0x20\n        /* \"EthTesting.sol/checkRenterncy.sol\":4141:4192  require(!locked, \"ReentrancyGuard: reentrant call\") */\n      0x04\n      dup3\n      add\n        /* \"#utility.yul\":8119:8140   */\n      mstore\n        /* \"#utility.yul\":8176:8178   */\n      0x1f\n        /* \"#utility.yul\":8156:8174   */\n      0x24\n      dup3\n      add\n        /* \"#utility.yul\":8149:8179   */\n      mstore\n        /* \"#utility.yul\":8215:8248   */\n      0x5265656e7472616e637947756172643a207265656e7472616e742063616c6c00\n        /* \"#utility.yul\":8195:8213   */\n      0x44\n      dup3\n      add\n        /* \"#utility.yul\":8188:8249   */\n      mstore\n        /* \"#utility.yul\":8266:8284   */\n      0x64\n      add\n        /* \"EthTesting.sol/checkRenterncy.sol\":4141:4192  require(!locked, \"ReentrancyGuard: reentrant call\") */\n      tag_39\n        /* \"#utility.yul\":7935:8290   */\n      jump\n        /* \"EthTesting.sol/checkRenterncy.sol\":4141:4192  require(!locked, \"ReentrancyGuard: reentrant call\") */\n    tag_93:\n        /* \"EthTesting.sol/checkRenterncy.sol\":4202:4208  locked */\n      0x00\n        /* \"EthTesting.sol/checkRenterncy.sol\":4202:4215  locked = true */\n      dup1\n      sload\n      not(0xff)\n      and\n        /* \"EthTesting.sol/checkRenterncy.sol\":4211:4215  true */\n      0x01\n        /* \"EthTesting.sol/checkRenterncy.sol\":4202:4215  locked = true */\n      or\n      dup2\n      sstore\n        /* \"EthTesting.sol/checkRenterncy.sol\":2799:2809  msg.sender */\n      caller\n        /* \"EthTesting.sol/checkRenterncy.sol\":2789:2810  stakeInfo[msg.sender] */\n      dup2\n      mstore\n        /* \"EthTesting.sol/checkRenterncy.sol\":2789:2798  stakeInfo */\n      0x02\n        /* \"EthTesting.sol/checkRenterncy.sol\":2789:2810  stakeInfo[msg.sender] */\n      0x20\n      mstore\n      0x40\n      dup1\n      dup3\n      keccak256\n        /* \"EthTesting.sol/checkRenterncy.sol\":2789:2819  stakeInfo[msg.sender][_nodeId] */\n      swap1\n      mload\n      tag_96\n      swap1\n        /* \"EthTesting.sol/checkRenterncy.sol\":2811:2818  _nodeId */\n      dup6\n      swap1\n      dup6\n      swap1\n        /* \"EthTesting.sol/checkRenterncy.sol\":2789:2819  stakeInfo[msg.sender][_nodeId] */\n      tag_89\n      jump\t// in\n    tag_96:\n      swap1\n      dup2\n      mstore\n      mload(0x40)\n      swap1\n      dup2\n      swap1\n      sub\n      0x20\n      add\n      swap1\n      keccak256\n        /* \"EthTesting.sol/checkRenterncy.sol\":2846:2863  stake.isNodeAlive */\n      0x01\n      dup2\n      add\n      sload\n        /* \"EthTesting.sol/checkRenterncy.sol\":2789:2819  stakeInfo[msg.sender][_nodeId] */\n      swap1\n      swap2\n      pop\n        /* \"EthTesting.sol/checkRenterncy.sol\":2846:2863  stake.isNodeAlive */\n      0xff\n      and\n        /* \"EthTesting.sol/checkRenterncy.sol\":2838:2887  require(stake.isNodeAlive, \"Node does not exist\") */\n      tag_97\n      jumpi\n      mload(0x40)\n      shl(0xe5, 0x461bcd)\n      dup2\n      mstore\n        /* \"#utility.yul\":11012:11014   */\n      0x20\n        /* \"EthTesting.sol/checkRenterncy.sol\":2838:2887  require(stake.isNodeAlive, \"Node does not exist\") */\n      0x04\n      dup3\n      add\n        /* \"#utility.yul\":10994:11015   */\n      mstore\n        /* \"#utility.yul\":11051:11053   */\n      0x13\n        /* \"#utility.yul\":11031:11049   */\n      0x24\n      dup3\n      add\n        /* \"#utility.yul\":11024:11054   */\n      mstore\n      shl(0x6a, 0x139bd91948191bd95cc81b9bdd08195e1a5cdd)\n        /* \"#utility.yul\":11070:11088   */\n      0x44\n      dup3\n      add\n        /* \"#utility.yul\":11063:11112   */\n      mstore\n        /* \"#utility.yul\":11129:11147   */\n      0x64\n      add\n        /* \"EthTesting.sol/checkRenterncy.sol\":2838:2887  require(stake.isNodeAlive, \"Node does not exist\") */\n      tag_39\n        /* \"#utility.yul\":10810:11153   */\n      jump\n        /* \"EthTesting.sol/checkRenterncy.sol\":2838:2887  require(stake.isNodeAlive, \"Node does not exist\") */\n    tag_97:\n        /* \"EthTesting.sol/checkRenterncy.sol\":2920:2938  stake.stakedAmount */\n      dup1\n      sload\n        /* \"EthTesting.sol/checkRenterncy.sol\":2965:2986  address(this).balance */\n      selfbalance\n        /* \"EthTesting.sol/checkRenterncy.sol\":2965:3002  address(this).balance >= stakedAmount */\n      dup2\n      gt\n      iszero\n        /* \"EthTesting.sol/checkRenterncy.sol\":2957:3036  require(address(this).balance >= stakedAmount, \"Insufficient treasury balance\") */\n      tag_100\n      jumpi\n      mload(0x40)\n      shl(0xe5, 0x461bcd)\n      dup2\n      mstore\n        /* \"#utility.yul\":11360:11362   */\n      0x20\n        /* \"EthTesting.sol/checkRenterncy.sol\":2957:3036  require(address(this).balance >= stakedAmount, \"Insufficient treasury balance\") */\n      0x04\n      dup3\n      add\n        /* \"#utility.yul\":11342:11363   */\n      mstore\n        /* \"#utility.yul\":11399:11401   */\n      0x1d\n        /* \"#utility.yul\":11379:11397   */\n      0x24\n      dup3\n      add\n        /* \"#utility.yul\":11372:11402   */\n      mstore\n        /* \"#utility.yul\":11438:11469   */\n      0x496e73756666696369656e742074726561737572792062616c616e6365000000\n        /* \"#utility.yul\":11418:11436   */\n      0x44\n      dup3\n      add\n        /* \"#utility.yul\":11411:11470   */\n      mstore\n        /* \"#utility.yul\":11487:11505   */\n      0x64\n      add\n        /* \"EthTesting.sol/checkRenterncy.sol\":2957:3036  require(address(this).balance >= stakedAmount, \"Insufficient treasury balance\") */\n      tag_39\n        /* \"#utility.yul\":11158:11511   */\n      jump\n        /* \"EthTesting.sol/checkRenterncy.sol\":2957:3036  require(address(this).balance >= stakedAmount, \"Insufficient treasury balance\") */\n    tag_100:\n        /* \"EthTesting.sol/checkRenterncy.sol\":3108:3118  msg.sender */\n      caller\n        /* \"EthTesting.sol/checkRenterncy.sol\":3099:3119  userInfo[msg.sender] */\n      0x00\n      swap1\n      dup2\n      mstore\n        /* \"EthTesting.sol/checkRenterncy.sol\":3099:3107  userInfo */\n      0x03\n        /* \"EthTesting.sol/checkRenterncy.sol\":3099:3119  userInfo[msg.sender] */\n      0x20\n      mstore\n      0x40\n      dup2\n      keccak256\n        /* \"EthTesting.sol/checkRenterncy.sol\":3099:3137  userInfo[msg.sender].totalStakedAmount */\n      0x01\n      add\n        /* \"EthTesting.sol/checkRenterncy.sol\":3099:3153  userInfo[msg.sender].totalStakedAmount -= stakedAmount */\n      dup1\n      sload\n        /* \"EthTesting.sol/checkRenterncy.sol\":3141:3153  stakedAmount */\n      dup4\n      swap3\n        /* \"EthTesting.sol/checkRenterncy.sol\":3099:3119  userInfo[msg.sender] */\n      swap1\n        /* \"EthTesting.sol/checkRenterncy.sol\":3099:3153  userInfo[msg.sender].totalStakedAmount -= stakedAmount */\n      tag_103\n      swap1\n        /* \"EthTesting.sol/checkRenterncy.sol\":3141:3153  stakedAmount */\n      dup5\n      swap1\n        /* \"EthTesting.sol/checkRenterncy.sol\":3099:3153  userInfo[msg.sender].totalStakedAmount -= stakedAmount */\n      tag_104\n      jump\t// in\n    tag_103:\n      swap3\n      pop\n      pop\n      dup2\n      swap1\n      sstore\n      pop\n        /* \"EthTesting.sol/checkRenterncy.sol\":3184:3196  stakedAmount */\n      dup1\n        /* \"EthTesting.sol/checkRenterncy.sol\":3163:3180  totalStakedTokens */\n      0x01\n      0x00\n        /* \"EthTesting.sol/checkRenterncy.sol\":3163:3196  totalStakedTokens -= stakedAmount */\n      dup3\n      dup3\n      sload\n      tag_105\n      swap2\n      swap1\n      tag_104\n      jump\t// in\n    tag_105:\n      swap1\n      swap2\n      sstore\n      pop\n      pop\n        /* \"EthTesting.sol/checkRenterncy.sol\":3206:3223  stake.isNodeAlive */\n      0x01\n      dup3\n      add\n        /* \"EthTesting.sol/checkRenterncy.sol\":3206:3231  stake.isNodeAlive = false */\n      dup1\n      sload\n      not(0xff)\n      and\n      swap1\n      sstore\n      0x00\n        /* \"EthTesting.sol/checkRenterncy.sol\":3241:3263  stake.stakedAmount = 0 */\n      dup1\n      dup4\n      sstore\n        /* \"EthTesting.sol/checkRenterncy.sol\":3351:3400  payable(msg.sender).call{value: stakedAmount}(\"\") */\n      mload(0x40)\n        /* \"EthTesting.sol/checkRenterncy.sol\":3359:3369  msg.sender */\n      caller\n      swap1\n        /* \"EthTesting.sol/checkRenterncy.sol\":3383:3395  stakedAmount */\n      dup4\n      swap1\n      dup4\n        /* \"EthTesting.sol/checkRenterncy.sol\":3351:3400  payable(msg.sender).call{value: stakedAmount}(\"\") */\n      dup2\n      dup2\n      dup2\n        /* \"EthTesting.sol/checkRenterncy.sol\":3383:3395  stakedAmount */\n      dup6\n        /* \"EthTesting.sol/checkRenterncy.sol\":3359:3369  msg.sender */\n      dup8\n        /* \"EthTesting.sol/checkRenterncy.sol\":3351:3400  payable(msg.sender).call{value: stakedAmount}(\"\") */\n      gas\n      call\n      swap3\n      pop\n      pop\n      pop\n      returndatasize\n      dup1\n      0x00\n      dup2\n      eq\n      tag_110\n      jumpi\n      mload(0x40)\n      swap2\n      pop\n      and(add(returndatasize, 0x3f), not(0x1f))\n      dup3\n      add\n      0x40\n      mstore\n      returndatasize\n      dup3\n      mstore\n      returndatasize\n      0x00\n      0x20\n      dup5\n      add\n      returndatacopy\n      jump(tag_109)\n    tag_110:\n      0x60\n      swap2\n      pop\n    tag_109:\n      pop\n        /* \"EthTesting.sol/checkRenterncy.sol\":3332:3400  (bool success, ) = payable(msg.sender).call{value: stakedAmount}(\"\") */\n      pop\n      swap1\n      pop\n        /* \"EthTesting.sol/checkRenterncy.sol\":3418:3425  success */\n      dup1\n        /* \"EthTesting.sol/checkRenterncy.sol\":3410:3447  require(success, \"Withdrawal failed\") */\n      tag_111\n      jumpi\n      mload(0x40)\n      shl(0xe5, 0x461bcd)\n      dup2\n      mstore\n        /* \"#utility.yul\":12061:12063   */\n      0x20\n        /* \"EthTesting.sol/checkRenterncy.sol\":3410:3447  require(success, \"Withdrawal failed\") */\n      0x04\n      dup3\n      add\n        /* \"#utility.yul\":12043:12064   */\n      mstore\n        /* \"#utility.yul\":12100:12102   */\n      0x11\n        /* \"#utility.yul\":12080:12098   */\n      0x24\n      dup3\n      add\n        /* \"#utility.yul\":12073:12103   */\n      mstore\n      shl(0x7a, 0x15da5d1a191c985dd85b0819985a5b1959)\n        /* \"#utility.yul\":12119:12137   */\n      0x44\n      dup3\n      add\n        /* \"#utility.yul\":12112:12159   */\n      mstore\n        /* \"#utility.yul\":12176:12194   */\n      0x64\n      add\n        /* \"EthTesting.sol/checkRenterncy.sol\":3410:3447  require(success, \"Withdrawal failed\") */\n      tag_39\n        /* \"#utility.yul\":11859:12200   */\n      jump\n        /* \"EthTesting.sol/checkRenterncy.sol\":3410:3447  require(success, \"Withdrawal failed\") */\n    tag_111:\n        /* \"EthTesting.sol/checkRenterncy.sol\":3490:3500  msg.sender */\n      caller\n        /* \"EthTesting.sol/checkRenterncy.sol\":3516:3536  userInfo[msg.sender] */\n      0x00\n      dup2\n      dup2\n      mstore\n        /* \"EthTesting.sol/checkRenterncy.sol\":3516:3524  userInfo */\n      0x03\n        /* \"EthTesting.sol/checkRenterncy.sol\":3516:3536  userInfo[msg.sender] */\n      0x20\n      mstore\n      0x40\n      dup1\n      dup3\n      keccak256\n        /* \"EthTesting.sol/checkRenterncy.sol\":3516:3554  userInfo[msg.sender].totalStakedAmount */\n      0x01\n      add\n      sload\n        /* \"EthTesting.sol/checkRenterncy.sol\":3470:3562  StakeEvent(_nodeId, msg.sender, stakedAmount, userInfo[msg.sender].totalStakedAmount, false) */\n      swap1\n      mload\n      0x5f0fdd6f33919218d99e95dadeb52206af20443cd68b7711230c6d19282e4e2b\n      swap3\n      tag_114\n      swap3\n        /* \"EthTesting.sol/checkRenterncy.sol\":3481:3488  _nodeId */\n      dup11\n      swap3\n      dup11\n      swap3\n        /* \"EthTesting.sol/checkRenterncy.sol\":3502:3514  stakedAmount */\n      dup10\n      swap3\n        /* \"EthTesting.sol/checkRenterncy.sol\":3516:3554  userInfo[msg.sender].totalStakedAmount */\n      swap2\n        /* \"EthTesting.sol/checkRenterncy.sol\":3470:3562  StakeEvent(_nodeId, msg.sender, stakedAmount, userInfo[msg.sender].totalStakedAmount, false) */\n      tag_91\n      jump\t// in\n    tag_114:\n      mload(0x40)\n      dup1\n      swap2\n      sub\n      swap1\n      log2\n      pop\n      pop\n        /* \"EthTesting.sol/checkRenterncy.sol\":4245:4250  false */\n      0x00\n        /* \"EthTesting.sol/checkRenterncy.sol\":4236:4250  locked = false */\n      dup1\n      sload\n      not(0xff)\n      and\n      swap1\n      sstore\n      pop\n      pop\n      pop\n        /* \"EthTesting.sol/checkRenterncy.sol\":2677:3569  function deleteNode(string calldata _nodeId) external nonReentrant {... */\n      jump\t// out\n        /* \"#utility.yul\":196:563   */\n    tag_115:\n        /* \"#utility.yul\":259:267   */\n      0x00\n        /* \"#utility.yul\":269:275   */\n      dup1\n        /* \"#utility.yul\":323:326   */\n      dup4\n        /* \"#utility.yul\":316:320   */\n      0x1f\n        /* \"#utility.yul\":308:314   */\n      dup5\n        /* \"#utility.yul\":304:321   */\n      add\n        /* \"#utility.yul\":300:327   */\n      slt\n        /* \"#utility.yul\":290:345   */\n      tag_125\n      jumpi\n        /* \"#utility.yul\":341:342   */\n      0x00\n        /* \"#utility.yul\":338:339   */\n      dup1\n        /* \"#utility.yul\":331:343   */\n      revert\n        /* \"#utility.yul\":290:345   */\n    tag_125:\n      pop\n        /* \"#utility.yul\":364:384   */\n      dup2\n      calldataload\n        /* \"#utility.yul\":407:425   */\n      0xffffffffffffffff\n        /* \"#utility.yul\":396:426   */\n      dup2\n      gt\n        /* \"#utility.yul\":393:443   */\n      iszero\n      tag_126\n      jumpi\n        /* \"#utility.yul\":439:440   */\n      0x00\n        /* \"#utility.yul\":436:437   */\n      dup1\n        /* \"#utility.yul\":429:441   */\n      revert\n        /* \"#utility.yul\":393:443   */\n    tag_126:\n        /* \"#utility.yul\":476:480   */\n      0x20\n        /* \"#utility.yul\":468:474   */\n      dup4\n        /* \"#utility.yul\":464:481   */\n      add\n        /* \"#utility.yul\":452:481   */\n      swap2\n      pop\n        /* \"#utility.yul\":536:539   */\n      dup4\n        /* \"#utility.yul\":529:533   */\n      0x20\n        /* \"#utility.yul\":519:525   */\n      dup3\n        /* \"#utility.yul\":516:517   */\n      0x05\n        /* \"#utility.yul\":512:526   */\n      shl\n        /* \"#utility.yul\":504:510   */\n      dup6\n        /* \"#utility.yul\":500:527   */\n      add\n        /* \"#utility.yul\":496:534   */\n      add\n        /* \"#utility.yul\":493:540   */\n      gt\n        /* \"#utility.yul\":490:557   */\n      iszero\n      tag_127\n      jumpi\n        /* \"#utility.yul\":553:554   */\n      0x00\n        /* \"#utility.yul\":550:551   */\n      dup1\n        /* \"#utility.yul\":543:555   */\n      revert\n        /* \"#utility.yul\":490:557   */\n    tag_127:\n        /* \"#utility.yul\":196:563   */\n      swap3\n      pop\n      swap3\n      swap1\n      pop\n      jump\t// out\n        /* \"#utility.yul\":568:1679   */\n    tag_22:\n        /* \"#utility.yul\":738:744   */\n      0x00\n        /* \"#utility.yul\":746:752   */\n      dup1\n        /* \"#utility.yul\":754:760   */\n      0x00\n        /* \"#utility.yul\":762:768   */\n      dup1\n        /* \"#utility.yul\":770:776   */\n      0x00\n        /* \"#utility.yul\":778:784   */\n      dup1\n        /* \"#utility.yul\":831:833   */\n      0x60\n        /* \"#utility.yul\":819:828   */\n      dup8\n        /* \"#utility.yul\":810:817   */\n      dup10\n        /* \"#utility.yul\":806:829   */\n      sub\n        /* \"#utility.yul\":802:834   */\n      slt\n        /* \"#utility.yul\":799:851   */\n      iszero\n      tag_129\n      jumpi\n        /* \"#utility.yul\":847:848   */\n      0x00\n        /* \"#utility.yul\":844:845   */\n      dup1\n        /* \"#utility.yul\":837:849   */\n      revert\n        /* \"#utility.yul\":799:851   */\n    tag_129:\n        /* \"#utility.yul\":887:896   */\n      dup7\n        /* \"#utility.yul\":874:897   */\n      calldataload\n        /* \"#utility.yul\":920:938   */\n      0xffffffffffffffff\n        /* \"#utility.yul\":912:918   */\n      dup2\n        /* \"#utility.yul\":909:939   */\n      gt\n        /* \"#utility.yul\":906:956   */\n      iszero\n      tag_130\n      jumpi\n        /* \"#utility.yul\":952:953   */\n      0x00\n        /* \"#utility.yul\":949:950   */\n      dup1\n        /* \"#utility.yul\":942:954   */\n      revert\n        /* \"#utility.yul\":906:956   */\n    tag_130:\n        /* \"#utility.yul\":991:1061   */\n      tag_131\n        /* \"#utility.yul\":1053:1060   */\n      dup10\n        /* \"#utility.yul\":1044:1050   */\n      dup3\n        /* \"#utility.yul\":1033:1042   */\n      dup11\n        /* \"#utility.yul\":1029:1051   */\n      add\n        /* \"#utility.yul\":991:1061   */\n      tag_115\n      jump\t// in\n    tag_131:\n        /* \"#utility.yul\":1080:1088   */\n      swap1\n      swap8\n      pop\n        /* \"#utility.yul\":965:1061   */\n      swap6\n      pop\n      pop\n        /* \"#utility.yul\":1168:1170   */\n      0x20\n        /* \"#utility.yul\":1153:1171   */\n      dup8\n      add\n        /* \"#utility.yul\":1140:1172   */\n      calldataload\n        /* \"#utility.yul\":1197:1215   */\n      0xffffffffffffffff\n        /* \"#utility.yul\":1184:1216   */\n      dup2\n      gt\n        /* \"#utility.yul\":1181:1233   */\n      iszero\n      tag_132\n      jumpi\n        /* \"#utility.yul\":1229:1230   */\n      0x00\n        /* \"#utility.yul\":1226:1227   */\n      dup1\n        /* \"#utility.yul\":1219:1231   */\n      revert\n        /* \"#utility.yul\":1181:1233   */\n    tag_132:\n        /* \"#utility.yul\":1268:1340   */\n      tag_133\n        /* \"#utility.yul\":1332:1339   */\n      dup10\n        /* \"#utility.yul\":1321:1329   */\n      dup3\n        /* \"#utility.yul\":1310:1319   */\n      dup11\n        /* \"#utility.yul\":1306:1330   */\n      add\n        /* \"#utility.yul\":1268:1340   */\n      tag_115\n      jump\t// in\n    tag_133:\n        /* \"#utility.yul\":1359:1367   */\n      swap1\n      swap6\n      pop\n        /* \"#utility.yul\":1242:1340   */\n      swap4\n      pop\n      pop\n        /* \"#utility.yul\":1447:1449   */\n      0x40\n        /* \"#utility.yul\":1432:1450   */\n      dup8\n      add\n        /* \"#utility.yul\":1419:1451   */\n      calldataload\n        /* \"#utility.yul\":1476:1494   */\n      0xffffffffffffffff\n        /* \"#utility.yul\":1463:1495   */\n      dup2\n      gt\n        /* \"#utility.yul\":1460:1512   */\n      iszero\n      tag_134\n      jumpi\n        /* \"#utility.yul\":1508:1509   */\n      0x00\n        /* \"#utility.yul\":1505:1506   */\n      dup1\n        /* \"#utility.yul\":1498:1510   */\n      revert\n        /* \"#utility.yul\":1460:1512   */\n    tag_134:\n        /* \"#utility.yul\":1547:1619   */\n      tag_135\n        /* \"#utility.yul\":1611:1618   */\n      dup10\n        /* \"#utility.yul\":1600:1608   */\n      dup3\n        /* \"#utility.yul\":1589:1598   */\n      dup11\n        /* \"#utility.yul\":1585:1609   */\n      add\n        /* \"#utility.yul\":1547:1619   */\n      tag_115\n      jump\t// in\n    tag_135:\n        /* \"#utility.yul\":568:1679   */\n      swap8\n      swap11\n      swap7\n      swap10\n      pop\n      swap5\n      swap8\n      pop\n      swap3\n      swap6\n        /* \"#utility.yul\":1638:1646   */\n      swap4\n      swap5\n        /* \"#utility.yul\":568:1679   */\n      swap3\n      pop\n      pop\n      pop\n      jump\t// out\n        /* \"#utility.yul\":1684:2271   */\n    tag_26:\n        /* \"#utility.yul\":1755:1761   */\n      0x00\n        /* \"#utility.yul\":1763:1769   */\n      dup1\n        /* \"#utility.yul\":1816:1818   */\n      0x20\n        /* \"#utility.yul\":1804:1813   */\n      dup4\n        /* \"#utility.yul\":1795:1802   */\n      dup6\n        /* \"#utility.yul\":1791:1814   */\n      sub\n        /* \"#utility.yul\":1787:1819   */\n      slt\n        /* \"#utility.yul\":1784:1836   */\n      iszero\n      tag_137\n      jumpi\n        /* \"#utility.yul\":1832:1833   */\n      0x00\n        /* \"#utility.yul\":1829:1830   */\n      dup1\n        /* \"#utility.yul\":1822:1834   */\n      revert\n        /* \"#utility.yul\":1784:1836   */\n    tag_137:\n        /* \"#utility.yul\":1872:1881   */\n      dup3\n        /* \"#utility.yul\":1859:1882   */\n      calldataload\n        /* \"#utility.yul\":1905:1923   */\n      0xffffffffffffffff\n        /* \"#utility.yul\":1897:1903   */\n      dup2\n        /* \"#utility.yul\":1894:1924   */\n      gt\n        /* \"#utility.yul\":1891:1941   */\n      iszero\n      tag_138\n      jumpi\n        /* \"#utility.yul\":1937:1938   */\n      0x00\n        /* \"#utility.yul\":1934:1935   */\n      dup1\n        /* \"#utility.yul\":1927:1939   */\n      revert\n        /* \"#utility.yul\":1891:1941   */\n    tag_138:\n        /* \"#utility.yul\":1960:1982   */\n      dup4\n      add\n        /* \"#utility.yul\":2013:2017   */\n      0x1f\n        /* \"#utility.yul\":2005:2018   */\n      dup2\n      add\n        /* \"#utility.yul\":2001:2028   */\n      dup6\n      sgt\n        /* \"#utility.yul\":1991:2046   */\n      tag_139\n      jumpi\n        /* \"#utility.yul\":2042:2043   */\n      0x00\n        /* \"#utility.yul\":2039:2040   */\n      dup1\n        /* \"#utility.yul\":2032:2044   */\n      revert\n        /* \"#utility.yul\":1991:2046   */\n    tag_139:\n        /* \"#utility.yul\":2082:2084   */\n      dup1\n        /* \"#utility.yul\":2069:2085   */\n      calldataload\n        /* \"#utility.yul\":2108:2126   */\n      0xffffffffffffffff\n        /* \"#utility.yul\":2100:2106   */\n      dup2\n        /* \"#utility.yul\":2097:2127   */\n      gt\n        /* \"#utility.yul\":2094:2144   */\n      iszero\n      tag_140\n      jumpi\n        /* \"#utility.yul\":2140:2141   */\n      0x00\n        /* \"#utility.yul\":2137:2138   */\n      dup1\n        /* \"#utility.yul\":2130:2142   */\n      revert\n        /* \"#utility.yul\":2094:2144   */\n    tag_140:\n        /* \"#utility.yul\":2185:2192   */\n      dup6\n        /* \"#utility.yul\":2180:2182   */\n      0x20\n        /* \"#utility.yul\":2171:2177   */\n      dup3\n        /* \"#utility.yul\":2167:2169   */\n      dup5\n        /* \"#utility.yul\":2163:2178   */\n      add\n        /* \"#utility.yul\":2159:2183   */\n      add\n        /* \"#utility.yul\":2156:2193   */\n      gt\n        /* \"#utility.yul\":2153:2210   */\n      iszero\n      tag_141\n      jumpi\n        /* \"#utility.yul\":2206:2207   */\n      0x00\n        /* \"#utility.yul\":2203:2204   */\n      dup1\n        /* \"#utility.yul\":2196:2208   */\n      revert\n        /* \"#utility.yul\":2153:2210   */\n    tag_141:\n        /* \"#utility.yul\":2237:2239   */\n      0x20\n        /* \"#utility.yul\":2229:2240   */\n      swap2\n      swap1\n      swap2\n      add\n      swap6\n        /* \"#utility.yul\":2259:2265   */\n      swap1\n      swap5\n      pop\n        /* \"#utility.yul\":1684:2271   */\n      swap3\n      pop\n      pop\n      pop\n      jump\t// out\n        /* \"#utility.yul\":3177:3304   */\n    tag_56:\n        /* \"#utility.yul\":3238:3248   */\n      0x4e487b71\n        /* \"#utility.yul\":3233:3236   */\n      0xe0\n        /* \"#utility.yul\":3229:3249   */\n      shl\n        /* \"#utility.yul\":3226:3227   */\n      0x00\n        /* \"#utility.yul\":3219:3250   */\n      mstore\n        /* \"#utility.yul\":3269:3273   */\n      0x32\n        /* \"#utility.yul\":3266:3267   */\n      0x04\n        /* \"#utility.yul\":3259:3274   */\n      mstore\n        /* \"#utility.yul\":3293:3297   */\n      0x24\n        /* \"#utility.yul\":3290:3291   */\n      0x00\n        /* \"#utility.yul\":3283:3298   */\n      revert\n        /* \"#utility.yul\":3309:3595   */\n    tag_58:\n        /* \"#utility.yul\":3368:3374   */\n      0x00\n        /* \"#utility.yul\":3421:3423   */\n      0x20\n        /* \"#utility.yul\":3409:3418   */\n      dup3\n        /* \"#utility.yul\":3400:3407   */\n      dup5\n        /* \"#utility.yul\":3396:3419   */\n      sub\n        /* \"#utility.yul\":3392:3424   */\n      slt\n        /* \"#utility.yul\":3389:3441   */\n      iszero\n      tag_147\n      jumpi\n        /* \"#utility.yul\":3437:3438   */\n      0x00\n        /* \"#utility.yul\":3434:3435   */\n      dup1\n        /* \"#utility.yul\":3427:3439   */\n      revert\n        /* \"#utility.yul\":3389:3441   */\n    tag_147:\n        /* \"#utility.yul\":3463:3486   */\n      dup2\n      calldataload\n      sub(shl(0xa0, 0x01), 0x01)\n        /* \"#utility.yul\":3515:3546   */\n      dup2\n      and\n        /* \"#utility.yul\":3505:3547   */\n      dup2\n      eq\n        /* \"#utility.yul\":3495:3565   */\n      tag_148\n      jumpi\n        /* \"#utility.yul\":3561:3562   */\n      0x00\n        /* \"#utility.yul\":3558:3559   */\n      dup1\n        /* \"#utility.yul\":3551:3563   */\n      revert\n        /* \"#utility.yul\":3495:3565   */\n    tag_148:\n        /* \"#utility.yul\":3584:3589   */\n      swap4\n        /* \"#utility.yul\":3309:3595   */\n      swap3\n      pop\n      pop\n      pop\n      jump\t// out\n        /* \"#utility.yul\":3600:4122   */\n    tag_62:\n        /* \"#utility.yul\":3678:3682   */\n      0x00\n        /* \"#utility.yul\":3684:3690   */\n      dup1\n        /* \"#utility.yul\":3744:3755   */\n      dup4\n        /* \"#utility.yul\":3731:3756   */\n      calldataload\n        /* \"#utility.yul\":3838:3840   */\n      0x1e\n        /* \"#utility.yul\":3834:3841   */\n      not\n        /* \"#utility.yul\":3823:3831   */\n      dup5\n        /* \"#utility.yul\":3807:3821   */\n      calldatasize\n        /* \"#utility.yul\":3803:3832   */\n      sub\n        /* \"#utility.yul\":3799:3842   */\n      add\n        /* \"#utility.yul\":3779:3797   */\n      dup2\n        /* \"#utility.yul\":3775:3843   */\n      slt\n        /* \"#utility.yul\":3765:3861   */\n      tag_150\n      jumpi\n        /* \"#utility.yul\":3857:3858   */\n      0x00\n        /* \"#utility.yul\":3854:3855   */\n      dup1\n        /* \"#utility.yul\":3847:3859   */\n      revert\n        /* \"#utility.yul\":3765:3861   */\n    tag_150:\n        /* \"#utility.yul\":3884:3917   */\n      dup4\n      add\n        /* \"#utility.yul\":3936:3956   */\n      dup1\n      calldataload\n      swap2\n      pop\n        /* \"#utility.yul\":3979:3997   */\n      0xffffffffffffffff\n        /* \"#utility.yul\":3968:3998   */\n      dup3\n      gt\n        /* \"#utility.yul\":3965:4015   */\n      iszero\n      tag_151\n      jumpi\n        /* \"#utility.yul\":4011:4012   */\n      0x00\n        /* \"#utility.yul\":4008:4009   */\n      dup1\n        /* \"#utility.yul\":4001:4013   */\n      revert\n        /* \"#utility.yul\":3965:4015   */\n    tag_151:\n        /* \"#utility.yul\":4044:4048   */\n      0x20\n        /* \"#utility.yul\":4032:4049   */\n      add\n      swap2\n      pop\n        /* \"#utility.yul\":4075:4089   */\n      calldatasize\n        /* \"#utility.yul\":4071:4098   */\n      dup2\n      swap1\n      sub\n        /* \"#utility.yul\":4061:4099   */\n      dup3\n      sgt\n        /* \"#utility.yul\":4058:4116   */\n      iszero\n      tag_127\n      jumpi\n        /* \"#utility.yul\":4112:4113   */\n      0x00\n        /* \"#utility.yul\":4109:4110   */\n      dup1\n        /* \"#utility.yul\":4102:4114   */\n      revert\n        /* \"#utility.yul\":4127:4254   */\n    tag_116:\n        /* \"#utility.yul\":4188:4198   */\n      0x4e487b71\n        /* \"#utility.yul\":4183:4186   */\n      0xe0\n        /* \"#utility.yul\":4179:4199   */\n      shl\n        /* \"#utility.yul\":4176:4177   */\n      0x00\n        /* \"#utility.yul\":4169:4200   */\n      mstore\n        /* \"#utility.yul\":4219:4223   */\n      0x11\n        /* \"#utility.yul\":4216:4217   */\n      0x04\n        /* \"#utility.yul\":4209:4224   */\n      mstore\n        /* \"#utility.yul\":4243:4247   */\n      0x24\n        /* \"#utility.yul\":4240:4241   */\n      0x00\n        /* \"#utility.yul\":4233:4248   */\n      revert\n        /* \"#utility.yul\":4259:4384   */\n    tag_66:\n        /* \"#utility.yul\":4324:4333   */\n      dup1\n      dup3\n      add\n        /* \"#utility.yul\":4345:4355   */\n      dup1\n      dup3\n      gt\n        /* \"#utility.yul\":4342:4378   */\n      iszero\n      tag_156\n      jumpi\n        /* \"#utility.yul\":4358:4376   */\n      tag_156\n      tag_116\n      jump\t// in\n    tag_156:\n        /* \"#utility.yul\":4259:4384   */\n      swap3\n      swap2\n      pop\n      pop\n      jump\t// out\n        /* \"#utility.yul\":4389:4516   */\n    tag_117:\n        /* \"#utility.yul\":4450:4460   */\n      0x4e487b71\n        /* \"#utility.yul\":4445:4448   */\n      0xe0\n        /* \"#utility.yul\":4441:4461   */\n      shl\n        /* \"#utility.yul\":4438:4439   */\n      0x00\n        /* \"#utility.yul\":4431:4462   */\n      mstore\n        /* \"#utility.yul\":4481:4485   */\n      0x41\n        /* \"#utility.yul\":4478:4479   */\n      0x04\n        /* \"#utility.yul\":4471:4486   */\n      mstore\n        /* \"#utility.yul\":4505:4509   */\n      0x24\n        /* \"#utility.yul\":4502:4503   */\n      0x00\n        /* \"#utility.yul\":4495:4510   */\n      revert\n        /* \"#utility.yul\":4521:4901   */\n    tag_118:\n        /* \"#utility.yul\":4600:4601   */\n      0x01\n        /* \"#utility.yul\":4596:4608   */\n      dup2\n      dup2\n      shr\n      swap1\n        /* \"#utility.yul\":4643:4655   */\n      dup3\n      and\n      dup1\n        /* \"#utility.yul\":4664:4725   */\n      tag_159\n      jumpi\n        /* \"#utility.yul\":4718:4722   */\n      0x7f\n        /* \"#utility.yul\":4710:4716   */\n      dup3\n        /* \"#utility.yul\":4706:4723   */\n      and\n        /* \"#utility.yul\":4696:4723   */\n      swap2\n      pop\n        /* \"#utility.yul\":4664:4725   */\n    tag_159:\n        /* \"#utility.yul\":4771:4773   */\n      0x20\n        /* \"#utility.yul\":4763:4769   */\n      dup3\n        /* \"#utility.yul\":4760:4774   */\n      lt\n        /* \"#utility.yul\":4740:4758   */\n      dup2\n        /* \"#utility.yul\":4737:4775   */\n      sub\n        /* \"#utility.yul\":4734:4895   */\n      tag_160\n      jumpi\n        /* \"#utility.yul\":4817:4827   */\n      0x4e487b71\n        /* \"#utility.yul\":4812:4815   */\n      0xe0\n        /* \"#utility.yul\":4808:4828   */\n      shl\n        /* \"#utility.yul\":4805:4806   */\n      0x00\n        /* \"#utility.yul\":4798:4829   */\n      mstore\n        /* \"#utility.yul\":4852:4856   */\n      0x22\n        /* \"#utility.yul\":4849:4850   */\n      0x04\n        /* \"#utility.yul\":4842:4857   */\n      mstore\n        /* \"#utility.yul\":4880:4884   */\n      0x24\n        /* \"#utility.yul\":4877:4878   */\n      0x00\n        /* \"#utility.yul\":4870:4885   */\n      revert\n        /* \"#utility.yul\":4734:4895   */\n    tag_160:\n      pop\n        /* \"#utility.yul\":4521:4901   */\n      swap2\n      swap1\n      pop\n      jump\t// out\n        /* \"#utility.yul\":5032:5550   */\n    tag_120:\n        /* \"#utility.yul\":5134:5136   */\n      0x1f\n        /* \"#utility.yul\":5129:5132   */\n      dup3\n        /* \"#utility.yul\":5126:5137   */\n      gt\n        /* \"#utility.yul\":5123:5544   */\n      iszero\n      tag_163\n      jumpi\n        /* \"#utility.yul\":5170:5175   */\n      dup1\n        /* \"#utility.yul\":5167:5168   */\n      0x00\n        /* \"#utility.yul\":5160:5176   */\n      mstore\n        /* \"#utility.yul\":5214:5218   */\n      0x20\n        /* \"#utility.yul\":5211:5212   */\n      0x00\n        /* \"#utility.yul\":5201:5219   */\n      keccak256\n        /* \"#utility.yul\":5284:5286   */\n      0x1f\n        /* \"#utility.yul\":5272:5282   */\n      dup5\n        /* \"#utility.yul\":5268:5287   */\n      add\n        /* \"#utility.yul\":5265:5266   */\n      0x05\n        /* \"#utility.yul\":5261:5288   */\n      shr\n        /* \"#utility.yul\":5255:5259   */\n      dup2\n        /* \"#utility.yul\":5251:5289   */\n      add\n        /* \"#utility.yul\":5320:5324   */\n      0x20\n        /* \"#utility.yul\":5308:5318   */\n      dup6\n        /* \"#utility.yul\":5305:5325   */\n      lt\n        /* \"#utility.yul\":5302:5349   */\n      iszero\n      tag_164\n      jumpi\n      pop\n        /* \"#utility.yul\":5343:5347   */\n      dup1\n        /* \"#utility.yul\":5302:5349   */\n    tag_164:\n        /* \"#utility.yul\":5398:5400   */\n      0x1f\n        /* \"#utility.yul\":5393:5396   */\n      dup5\n        /* \"#utility.yul\":5389:5401   */\n      add\n        /* \"#utility.yul\":5386:5387   */\n      0x05\n        /* \"#utility.yul\":5382:5402   */\n      shr\n        /* \"#utility.yul\":5376:5380   */\n      dup3\n        /* \"#utility.yul\":5372:5403   */\n      add\n        /* \"#utility.yul\":5362:5403   */\n      swap2\n      pop\n        /* \"#utility.yul\":5453:5534   */\n    tag_165:\n        /* \"#utility.yul\":5471:5473   */\n      dup2\n        /* \"#utility.yul\":5464:5469   */\n      dup2\n        /* \"#utility.yul\":5461:5474   */\n      lt\n        /* \"#utility.yul\":5453:5534   */\n      iszero\n      tag_167\n      jumpi\n        /* \"#utility.yul\":5530:5531   */\n      0x00\n        /* \"#utility.yul\":5516:5532   */\n      dup2\n      sstore\n        /* \"#utility.yul\":5497:5498   */\n      0x01\n        /* \"#utility.yul\":5486:5499   */\n      add\n        /* \"#utility.yul\":5453:5534   */\n      jump(tag_165)\n    tag_167:\n        /* \"#utility.yul\":5457:5460   */\n      pop\n      pop\n        /* \"#utility.yul\":5123:5544   */\n    tag_163:\n        /* \"#utility.yul\":5032:5550   */\n      pop\n      pop\n      pop\n      jump\t// out\n        /* \"#utility.yul\":5726:7025   */\n    tag_70:\n        /* \"#utility.yul\":5852:5855   */\n      dup2\n        /* \"#utility.yul\":5846:5856   */\n      mload\n        /* \"#utility.yul\":5879:5897   */\n      0xffffffffffffffff\n        /* \"#utility.yul\":5871:5877   */\n      dup2\n        /* \"#utility.yul\":5868:5898   */\n      gt\n        /* \"#utility.yul\":5865:5921   */\n      iszero\n      tag_171\n      jumpi\n        /* \"#utility.yul\":5901:5919   */\n      tag_171\n      tag_117\n      jump\t// in\n    tag_171:\n        /* \"#utility.yul\":5930:6027   */\n      tag_172\n        /* \"#utility.yul\":6020:6026   */\n      dup2\n        /* \"#utility.yul\":5980:6018   */\n      tag_173\n        /* \"#utility.yul\":6012:6016   */\n      dup5\n        /* \"#utility.yul\":6006:6017   */\n      sload\n        /* \"#utility.yul\":5980:6018   */\n      tag_118\n      jump\t// in\n    tag_173:\n        /* \"#utility.yul\":5974:5978   */\n      dup5\n        /* \"#utility.yul\":5930:6027   */\n      tag_120\n      jump\t// in\n    tag_172:\n        /* \"#utility.yul\":6076:6080   */\n      0x20\n        /* \"#utility.yul\":6107:6109   */\n      0x1f\n        /* \"#utility.yul\":6096:6110   */\n      dup3\n      gt\n        /* \"#utility.yul\":6124:6125   */\n      0x01\n        /* \"#utility.yul\":6119:6768   */\n      dup2\n      eq\n      tag_175\n      jumpi\n        /* \"#utility.yul\":6812:6813   */\n      0x00\n        /* \"#utility.yul\":6829:6835   */\n      dup4\n        /* \"#utility.yul\":6826:6915   */\n      iszero\n      tag_176\n      jumpi\n      pop\n        /* \"#utility.yul\":6881:6900   */\n      dup5\n      dup3\n      add\n        /* \"#utility.yul\":6875:6901   */\n      mload\n        /* \"#utility.yul\":6826:6915   */\n    tag_176:\n      not(0x00)\n        /* \"#utility.yul\":5683:5684   */\n      0x03\n        /* \"#utility.yul\":5679:5690   */\n      dup6\n      swap1\n      shl\n        /* \"#utility.yul\":5675:5699   */\n      shr\n        /* \"#utility.yul\":5671:5700   */\n      not\n        /* \"#utility.yul\":5661:5701   */\n      and\n        /* \"#utility.yul\":5707:5708   */\n      0x01\n        /* \"#utility.yul\":5703:5714   */\n      dup5\n      swap1\n      shl\n        /* \"#utility.yul\":5658:5715   */\n      or\n        /* \"#utility.yul\":6928:7009   */\n      dup5\n      sstore\n        /* \"#utility.yul\":6089:7019   */\n      jump(tag_167)\n        /* \"#utility.yul\":6119:6768   */\n    tag_175:\n        /* \"#utility.yul\":4979:4980   */\n      0x00\n        /* \"#utility.yul\":4972:4986   */\n      dup5\n      dup2\n      mstore\n        /* \"#utility.yul\":5016:5020   */\n      0x20\n        /* \"#utility.yul\":5003:5021   */\n      dup2\n      keccak256\n      not(0x1f)\n        /* \"#utility.yul\":6155:6175   */\n      dup6\n      and\n      swap2\n        /* \"#utility.yul\":6273:6495   */\n    tag_179:\n        /* \"#utility.yul\":6287:6294   */\n      dup3\n        /* \"#utility.yul\":6284:6285   */\n      dup2\n        /* \"#utility.yul\":6281:6295   */\n      lt\n        /* \"#utility.yul\":6273:6495   */\n      iszero\n      tag_181\n      jumpi\n        /* \"#utility.yul\":6369:6388   */\n      dup8\n      dup6\n      add\n        /* \"#utility.yul\":6363:6389   */\n      mload\n        /* \"#utility.yul\":6348:6390   */\n      dup3\n      sstore\n        /* \"#utility.yul\":6476:6480   */\n      0x20\n        /* \"#utility.yul\":6461:6481   */\n      swap5\n      dup6\n      add\n      swap5\n        /* \"#utility.yul\":6429:6430   */\n      0x01\n        /* \"#utility.yul\":6417:6431   */\n      swap1\n      swap3\n      add\n      swap2\n        /* \"#utility.yul\":6303:6315   */\n      add\n        /* \"#utility.yul\":6273:6495   */\n      jump(tag_179)\n    tag_181:\n        /* \"#utility.yul\":6277:6280   */\n      pop\n        /* \"#utility.yul\":6523:6529   */\n      dup5\n        /* \"#utility.yul\":6514:6521   */\n      dup3\n        /* \"#utility.yul\":6511:6530   */\n      lt\n        /* \"#utility.yul\":6508:6709   */\n      iszero\n      tag_182\n      jumpi\n        /* \"#utility.yul\":6584:6603   */\n      dup7\n      dup5\n      add\n        /* \"#utility.yul\":6578:6604   */\n      mload\n      not(0x00)\n        /* \"#utility.yul\":6667:6668   */\n      0x03\n        /* \"#utility.yul\":6663:6677   */\n      dup8\n      swap1\n      shl\n        /* \"#utility.yul\":6679:6682   */\n      0xf8\n        /* \"#utility.yul\":6659:6683   */\n      and\n        /* \"#utility.yul\":6655:6692   */\n      shr\n        /* \"#utility.yul\":6651:6693   */\n      not\n        /* \"#utility.yul\":6636:6694   */\n      and\n        /* \"#utility.yul\":6621:6695   */\n      dup2\n      sstore\n        /* \"#utility.yul\":6508:6709   */\n    tag_182:\n      pop\n      pop\n      pop\n      pop\n        /* \"#utility.yul\":6755:6756   */\n      0x01\n        /* \"#utility.yul\":6739:6753   */\n      swap1\n      dup2\n      shl\n        /* \"#utility.yul\":6735:6757   */\n      add\n        /* \"#utility.yul\":6722:6758   */\n      swap1\n      sstore\n      pop\n        /* \"#utility.yul\":5726:7025   */\n      jump\t// out\n        /* \"#utility.yul\":7030:7333   */\n    tag_72:\n        /* \"#utility.yul\":7161:7164   */\n      0x00\n        /* \"#utility.yul\":7199:7205   */\n      dup3\n        /* \"#utility.yul\":7193:7206   */\n      mload\n        /* \"#utility.yul\":7245:7251   */\n      dup1\n        /* \"#utility.yul\":7238:7242   */\n      0x20\n        /* \"#utility.yul\":7230:7236   */\n      dup6\n        /* \"#utility.yul\":7226:7243   */\n      add\n        /* \"#utility.yul\":7221:7224   */\n      dup5\n        /* \"#utility.yul\":7215:7252   */\n      mcopy\n        /* \"#utility.yul\":7307:7308   */\n      0x00\n        /* \"#utility.yul\":7271:7287   */\n      swap3\n      add\n        /* \"#utility.yul\":7296:7309   */\n      swap2\n      dup3\n      mstore\n      pop\n        /* \"#utility.yul\":7271:7287   */\n      swap2\n        /* \"#utility.yul\":7030:7333   */\n      swap1\n      pop\n      jump\t// out\n        /* \"#utility.yul\":8704:9902   */\n    tag_87:\n        /* \"#utility.yul\":8828:8846   */\n      0xffffffffffffffff\n        /* \"#utility.yul\":8823:8826   */\n      dup4\n        /* \"#utility.yul\":8820:8847   */\n      gt\n        /* \"#utility.yul\":8817:8870   */\n      iszero\n      tag_189\n      jumpi\n        /* \"#utility.yul\":8850:8868   */\n      tag_189\n      tag_117\n      jump\t// in\n    tag_189:\n        /* \"#utility.yul\":8879:8973   */\n      tag_190\n        /* \"#utility.yul\":8969:8972   */\n      dup4\n        /* \"#utility.yul\":8929:8967   */\n      tag_191\n        /* \"#utility.yul\":8961:8965   */\n      dup4\n        /* \"#utility.yul\":8955:8966   */\n      sload\n        /* \"#utility.yul\":8929:8967   */\n      tag_118\n      jump\t// in\n    tag_191:\n        /* \"#utility.yul\":8923:8927   */\n      dup4\n        /* \"#utility.yul\":8879:8973   */\n      tag_120\n      jump\t// in\n    tag_190:\n        /* \"#utility.yul\":8999:9000   */\n      0x00\n        /* \"#utility.yul\":9024:9026   */\n      0x1f\n        /* \"#utility.yul\":9019:9022   */\n      dup5\n        /* \"#utility.yul\":9016:9027   */\n      gt\n        /* \"#utility.yul\":9041:9042   */\n      0x01\n        /* \"#utility.yul\":9036:9644   */\n      dup2\n      eq\n      tag_193\n      jumpi\n        /* \"#utility.yul\":9688:9689   */\n      0x00\n        /* \"#utility.yul\":9705:9708   */\n      dup6\n        /* \"#utility.yul\":9702:9795   */\n      iszero\n      tag_194\n      jumpi\n      pop\n        /* \"#utility.yul\":9761:9780   */\n      dup4\n      dup3\n      add\n        /* \"#utility.yul\":9748:9781   */\n      calldataload\n        /* \"#utility.yul\":9702:9795   */\n    tag_194:\n      not(0x00)\n        /* \"#utility.yul\":5683:5684   */\n      0x03\n        /* \"#utility.yul\":5679:5690   */\n      dup8\n      swap1\n      shl\n        /* \"#utility.yul\":5675:5699   */\n      shr\n        /* \"#utility.yul\":5671:5700   */\n      not\n        /* \"#utility.yul\":5661:5701   */\n      and\n        /* \"#utility.yul\":5707:5708   */\n      0x01\n        /* \"#utility.yul\":5703:5714   */\n      dup7\n      swap1\n      shl\n        /* \"#utility.yul\":5658:5715   */\n      or\n        /* \"#utility.yul\":9808:9886   */\n      dup4\n      sstore\n        /* \"#utility.yul\":9009:9896   */\n      jump(tag_167)\n        /* \"#utility.yul\":9036:9644   */\n    tag_193:\n        /* \"#utility.yul\":4979:4980   */\n      0x00\n        /* \"#utility.yul\":4972:4986   */\n      dup4\n      dup2\n      mstore\n        /* \"#utility.yul\":5016:5020   */\n      0x20\n        /* \"#utility.yul\":5003:5021   */\n      dup2\n      keccak256\n      not(0x1f)\n        /* \"#utility.yul\":9072:9089   */\n      dup8\n      and\n      swap2\n        /* \"#utility.yul\":9187:9416   */\n    tag_197:\n        /* \"#utility.yul\":9201:9208   */\n      dup3\n        /* \"#utility.yul\":9198:9199   */\n      dup2\n        /* \"#utility.yul\":9195:9209   */\n      lt\n        /* \"#utility.yul\":9187:9416   */\n      iszero\n      tag_199\n      jumpi\n        /* \"#utility.yul\":9290:9309   */\n      dup7\n      dup6\n      add\n        /* \"#utility.yul\":9277:9310   */\n      calldataload\n        /* \"#utility.yul\":9262:9311   */\n      dup3\n      sstore\n        /* \"#utility.yul\":9397:9401   */\n      0x20\n        /* \"#utility.yul\":9382:9402   */\n      swap5\n      dup6\n      add\n      swap5\n        /* \"#utility.yul\":9350:9351   */\n      0x01\n        /* \"#utility.yul\":9338:9352   */\n      swap1\n      swap3\n      add\n      swap2\n        /* \"#utility.yul\":9217:9229   */\n      add\n        /* \"#utility.yul\":9187:9416   */\n      jump(tag_197)\n    tag_199:\n        /* \"#utility.yul\":9191:9194   */\n      pop\n        /* \"#utility.yul\":9444:9447   */\n      dup7\n        /* \"#utility.yul\":9435:9442   */\n      dup3\n        /* \"#utility.yul\":9432:9448   */\n      lt\n        /* \"#utility.yul\":9429:9588   */\n      iszero\n      tag_200\n      jumpi\n        /* \"#utility.yul\":9568:9569   */\n      0x00\n        /* \"#utility.yul\":9564:9570   */\n      not\n        /* \"#utility.yul\":9558:9561   */\n      0xf8\n        /* \"#utility.yul\":9552:9555   */\n      dup9\n        /* \"#utility.yul\":9549:9550   */\n      0x03\n        /* \"#utility.yul\":9545:9556   */\n      shl\n        /* \"#utility.yul\":9541:9562   */\n      and\n        /* \"#utility.yul\":9537:9571   */\n      shr\n        /* \"#utility.yul\":9533:9572   */\n      not\n        /* \"#utility.yul\":9520:9529   */\n      dup5\n        /* \"#utility.yul\":9515:9518   */\n      dup8\n        /* \"#utility.yul\":9511:9530   */\n      add\n        /* \"#utility.yul\":9498:9531   */\n      calldataload\n        /* \"#utility.yul\":9494:9573   */\n      and\n        /* \"#utility.yul\":9486:9492   */\n      dup2\n        /* \"#utility.yul\":9479:9574   */\n      sstore\n        /* \"#utility.yul\":9429:9588   */\n    tag_200:\n      pop\n      pop\n        /* \"#utility.yul\":9631:9632   */\n      0x01\n        /* \"#utility.yul\":9625:9628   */\n      dup6\n        /* \"#utility.yul\":9622:9623   */\n      0x01\n        /* \"#utility.yul\":9618:9629   */\n      shl\n        /* \"#utility.yul\":9614:9633   */\n      add\n        /* \"#utility.yul\":9608:9612   */\n      dup4\n        /* \"#utility.yul\":9601:9634   */\n      sstore\n        /* \"#utility.yul\":9009:9896   */\n      pop\n      pop\n        /* \"#utility.yul\":8704:9902   */\n      pop\n      pop\n      pop\n      jump\t// out\n        /* \"#utility.yul\":9907:10180   */\n    tag_89:\n        /* \"#utility.yul\":10092:10098   */\n      dup2\n        /* \"#utility.yul\":10084:10090   */\n      dup4\n        /* \"#utility.yul\":10079:10082   */\n      dup3\n        /* \"#utility.yul\":10066:10099   */\n      calldatacopy\n        /* \"#utility.yul\":10048:10051   */\n      0x00\n        /* \"#utility.yul\":10118:10134   */\n      swap2\n      add\n        /* \"#utility.yul\":10143:10156   */\n      swap1\n      dup2\n      mstore\n        /* \"#utility.yul\":10118:10134   */\n      swap2\n        /* \"#utility.yul\":9907:10180   */\n      swap1\n      pop\n      jump\t// out\n        /* \"#utility.yul\":10185:10805   */\n    tag_91:\n        /* \"#utility.yul\":10422:10425   */\n      0x80\n        /* \"#utility.yul\":10411:10420   */\n      dup2\n        /* \"#utility.yul\":10404:10426   */\n      mstore\n        /* \"#utility.yul\":10463:10469   */\n      dup5\n        /* \"#utility.yul\":10457:10460   */\n      0x80\n        /* \"#utility.yul\":10446:10455   */\n      dup3\n        /* \"#utility.yul\":10442:10461   */\n      add\n        /* \"#utility.yul\":10435:10470   */\n      mstore\n        /* \"#utility.yul\":10521:10527   */\n      dup5\n        /* \"#utility.yul\":10513:10519   */\n      dup7\n        /* \"#utility.yul\":10507:10510   */\n      0xa0\n        /* \"#utility.yul\":10496:10505   */\n      dup4\n        /* \"#utility.yul\":10492:10511   */\n      add\n        /* \"#utility.yul\":10479:10528   */\n      calldatacopy\n        /* \"#utility.yul\":10578:10579   */\n      0x00\n        /* \"#utility.yul\":10572:10575   */\n      0xa0\n        /* \"#utility.yul\":10563:10569   */\n      dup7\n        /* \"#utility.yul\":10552:10561   */\n      dup4\n        /* \"#utility.yul\":10548:10570   */\n      add\n        /* \"#utility.yul\":10544:10576   */\n      add\n        /* \"#utility.yul\":10537:10580   */\n      mstore\n        /* \"#utility.yul\":10385:10389   */\n      0x00\n        /* \"#utility.yul\":10648:10651   */\n      0xa0\n        /* \"#utility.yul\":10641:10643   */\n      0x1f\n        /* \"#utility.yul\":10637:10644   */\n      not\n        /* \"#utility.yul\":10632:10634   */\n      0x1f\n        /* \"#utility.yul\":10624:10630   */\n      dup9\n        /* \"#utility.yul\":10620:10635   */\n      add\n        /* \"#utility.yul\":10616:10645   */\n      and\n        /* \"#utility.yul\":10605:10614   */\n      dup4\n        /* \"#utility.yul\":10601:10646   */\n      add\n        /* \"#utility.yul\":10597:10652   */\n      add\n        /* \"#utility.yul\":10589:10652   */\n      swap1\n      pop\n        /* \"#utility.yul\":10690:10696   */\n      dup5\n        /* \"#utility.yul\":10683:10687   */\n      0x20\n        /* \"#utility.yul\":10672:10681   */\n      dup4\n        /* \"#utility.yul\":10668:10688   */\n      add\n        /* \"#utility.yul\":10661:10697   */\n      mstore\n        /* \"#utility.yul\":10733:10739   */\n      dup4\n        /* \"#utility.yul\":10728:10730   */\n      0x40\n        /* \"#utility.yul\":10717:10726   */\n      dup4\n        /* \"#utility.yul\":10713:10731   */\n      add\n        /* \"#utility.yul\":10706:10740   */\n      mstore\n        /* \"#utility.yul\":10790:10796   */\n      dup3\n        /* \"#utility.yul\":10783:10797   */\n      iszero\n        /* \"#utility.yul\":10776:10798   */\n      iszero\n        /* \"#utility.yul\":10771:10773   */\n      0x60\n        /* \"#utility.yul\":10760:10769   */\n      dup4\n        /* \"#utility.yul\":10756:10774   */\n      add\n        /* \"#utility.yul\":10749:10799   */\n      mstore\n        /* \"#utility.yul\":10185:10805   */\n      swap7\n      swap6\n      pop\n      pop\n      pop\n      pop\n      pop\n      pop\n      jump\t// out\n        /* \"#utility.yul\":11516:11644   */\n    tag_104:\n        /* \"#utility.yul\":11583:11592   */\n      dup2\n      dup2\n      sub\n        /* \"#utility.yul\":11604:11615   */\n      dup2\n      dup2\n      gt\n        /* \"#utility.yul\":11601:11638   */\n      iszero\n      tag_156\n      jumpi\n        /* \"#utility.yul\":11618:11636   */\n      tag_156\n      tag_116\n      jump\t// in\n\n    auxdata: 0xa2646970667358221220010b32079e417aa21b257b2152281cc134ed24578a8b3f7b45ed925af4290cf664736f6c634300081a0033\n}\n",
				"bytecode": {
					"linkReferences": {},
					"object": "60a0604052348015600e575f80fd5b5033608052608051610de46100395f395f81816101030152818161016701526102530152610de45ff3fe608060405260043610610057575f3560e01c80630d8f7614146100975780630f138bfe146100a15780632e31ddf1146100c05780638994dd8e146100df5780638da5cb5b146100f2578063a0c15b771461013d575f80fd5b366100935760405134815233907fe6d858f14d755446648a6e0c8ab8b5a0f58ccc7920d4c910b0454e4dcd869af09060200160405180910390a2005b5f80fd5b61009f61015c565b005b3480156100ac575f80fd5b506040514781526020015b60405180910390f35b3480156100cb575f80fd5b5061009f6100da366004610964565b610248565b61009f6100ed366004610a03565b6104dd565b3480156100fd575f80fd5b506101257f000000000000000000000000000000000000000000000000000000000000000081565b6040516001600160a01b0390911681526020016100b7565b348015610148575f80fd5b5061009f610157366004610a03565b6106c0565b336001600160a01b037f000000000000000000000000000000000000000000000000000000000000000016146101d15760405162461bcd60e51b81526020600482015260156024820152744f6e6c79206f776e65722063616e2061636365737360581b60448201526064015b60405180910390fd5b5f34116102115760405162461bcd60e51b815260206004820152600e60248201526d125b9d985b1a5908105b5bdd5b9d60921b60448201526064016101c8565b60405134815233907fe6d858f14d755446648a6e0c8ab8b5a0f58ccc7920d4c910b0454e4dcd869af09060200160405180910390a2565b336001600160a01b037f000000000000000000000000000000000000000000000000000000000000000016146102b85760405162461bcd60e51b81526020600482015260156024820152744f6e6c79206f776e65722063616e2061636365737360581b60448201526064016101c8565b5f5b8581101561045d575f8787838181106102d5576102d5610a71565b90506020020160208101906102ea9190610a85565b90505f8686848181106102ff576102ff610a71565b90506020028101906103119190610ab2565b8080601f0160208091040260200160405190810160405280939291908181526020018383808284375f92018290525093945088925087915086905081811061035b5761035b610a71565b9050602002013590508060015f8282546103759190610b09565b90915550506001600160a01b0383165f90815260036020526040812060010180548392906103a4908490610b09565b90915550506001600160a01b0383165f908152600360209081526040822080546001810182559083529120016103da8382610bba565b5060405180604001604052808281526020016001151581525060025f856001600160a01b03166001600160a01b031681526020019081526020015f20836040516104249190610c75565b90815260405160209181900382019020825181559101516001918201805460ff19169115159190911790559390930192506102ba915050565b506040805160808082526017908201527f4e6f6465207374616b6520696e666f207570646174656400000000000000000060a08201525f60208201819052918101829052600160608201527f5f0fdd6f33919218d99e95dadeb52206af20443cd68b7711230c6d19282e4e2b9060c00160405180910390a2505050505050565b5f5460ff161561052f5760405162461bcd60e51b815260206004820152601f60248201527f5265656e7472616e637947756172643a207265656e7472616e742063616c6c0060448201526064016101c8565b5f805460ff191660011790556032341161059c5760405162461bcd60e51b815260206004820152602860248201527f5374616b6520616d6f756e74206d7573742062652067726561746572207468616044820152676e2035302077656960c01b60648201526084016101c8565b3460015f8282546105ad9190610b09565b9091555050335f90815260036020526040812060010180543492906105d3908490610b09565b9091555050335f90815260036020908152604082208054600181018255908352912001610601828483610c8b565b506040805180820182523481526001602080830191909152335f908152600290915282902091519091906106389085908590610d45565b908152604080516020928190038301812084518155938301516001948501805460ff1916911515919091179055335f81815260039094529190922083015490927f5f0fdd6f33919218d99e95dadeb52206af20443cd68b7711230c6d19282e4e2b926106ab928792879234929190610d54565b60405180910390a250505f805460ff19169055565b5f5460ff16156107125760405162461bcd60e51b815260206004820152601f60248201527f5265656e7472616e637947756172643a207265656e7472616e742063616c6c0060448201526064016101c8565b5f805460ff1916600117815533815260026020526040808220905161073a9085908590610d45565b908152604051908190036020019020600181015490915060ff166107965760405162461bcd60e51b8152602060048201526013602482015272139bd91948191bd95cc81b9bdd08195e1a5cdd606a1b60448201526064016101c8565b8054478111156107e85760405162461bcd60e51b815260206004820152601d60248201527f496e73756666696369656e742074726561737572792062616c616e636500000060448201526064016101c8565b335f9081526003602052604081206001018054839290610809908490610d9b565b925050819055508060015f8282546108219190610d9b565b909155505060018201805460ff191690555f808355604051339083908381818185875af1925050503d805f8114610873576040519150601f19603f3d011682016040523d82523d5f602084013e610878565b606091505b50509050806108bd5760405162461bcd60e51b815260206004820152601160248201527015da5d1a191c985dd85b0819985a5b1959607a1b60448201526064016101c8565b335f818152600360205260408082206001015490517f5f0fdd6f33919218d99e95dadeb52206af20443cd68b7711230c6d19282e4e2b92610904928a928a92899291610d54565b60405180910390a250505f805460ff19169055505050565b5f8083601f84011261092c575f80fd5b50813567ffffffffffffffff811115610943575f80fd5b6020830191508360208260051b850101111561095d575f80fd5b9250929050565b5f805f805f8060608789031215610979575f80fd5b863567ffffffffffffffff81111561098f575f80fd5b61099b89828a0161091c565b909750955050602087013567ffffffffffffffff8111156109ba575f80fd5b6109c689828a0161091c565b909550935050604087013567ffffffffffffffff8111156109e5575f80fd5b6109f189828a0161091c565b979a9699509497509295939492505050565b5f8060208385031215610a14575f80fd5b823567ffffffffffffffff811115610a2a575f80fd5b8301601f81018513610a3a575f80fd5b803567ffffffffffffffff811115610a50575f80fd5b856020828401011115610a61575f80fd5b6020919091019590945092505050565b634e487b7160e01b5f52603260045260245ffd5b5f60208284031215610a95575f80fd5b81356001600160a01b0381168114610aab575f80fd5b9392505050565b5f808335601e19843603018112610ac7575f80fd5b83018035915067ffffffffffffffff821115610ae1575f80fd5b60200191503681900382131561095d575f80fd5b634e487b7160e01b5f52601160045260245ffd5b80820180821115610b1c57610b1c610af5565b92915050565b634e487b7160e01b5f52604160045260245ffd5b600181811c90821680610b4a57607f821691505b602082108103610b6857634e487b7160e01b5f52602260045260245ffd5b50919050565b601f821115610bb557805f5260205f20601f840160051c81016020851015610b935750805b601f840160051c820191505b81811015610bb2575f8155600101610b9f565b50505b505050565b815167ffffffffffffffff811115610bd457610bd4610b22565b610be881610be28454610b36565b84610b6e565b6020601f821160018114610c1a575f8315610c035750848201515b5f19600385901b1c1916600184901b178455610bb2565b5f84815260208120601f198516915b82811015610c495787850151825560209485019460019092019101610c29565b5084821015610c6657868401515f19600387901b60f8161c191681555b50505050600190811b01905550565b5f82518060208501845e5f920191825250919050565b67ffffffffffffffff831115610ca357610ca3610b22565b610cb783610cb18354610b36565b83610b6e565b5f601f841160018114610ce8575f8515610cd15750838201355b5f19600387901b1c1916600186901b178355610bb2565b5f83815260208120601f198716915b82811015610d175786850135825560209485019460019092019101610cf7565b5086821015610d33575f1960f88860031b161c19848701351681555b505060018560011b0183555050505050565b818382375f9101908152919050565b60808152846080820152848660a08301375f60a086830101525f60a0601f19601f880116830101905084602083015283604083015282151560608301529695505050505050565b81810381811115610b1c57610b1c610af556fea2646970667358221220010b32079e417aa21b257b2152281cc134ed24578a8b3f7b45ed925af4290cf664736f6c634300081a0033",
					"opcodes": "PUSH1 0xA0 PUSH1 0x40 MSTORE CALLVALUE DUP1 ISZERO PUSH1 0xE JUMPI PUSH0 DUP1 REVERT JUMPDEST POP CALLER PUSH1 0x80 MSTORE PUSH1 0x80 MLOAD PUSH2 0xDE4 PUSH2 0x39 PUSH0 CODECOPY PUSH0 DUP2 DUP2 PUSH2 0x103 ADD MSTORE DUP2 DUP2 PUSH2 0x167 ADD MSTORE PUSH2 0x253 ADD MSTORE PUSH2 0xDE4 PUSH0 RETURN INVALID PUSH1 0x80 PUSH1 0x40 MSTORE PUSH1 0x4 CALLDATASIZE LT PUSH2 0x57 JUMPI PUSH0 CALLDATALOAD PUSH1 0xE0 SHR DUP1 PUSH4 0xD8F7614 EQ PUSH2 0x97 JUMPI DUP1 PUSH4 0xF138BFE EQ PUSH2 0xA1 JUMPI DUP1 PUSH4 0x2E31DDF1 EQ PUSH2 0xC0 JUMPI DUP1 PUSH4 0x8994DD8E EQ PUSH2 0xDF JUMPI DUP1 PUSH4 0x8DA5CB5B EQ PUSH2 0xF2 JUMPI DUP1 PUSH4 0xA0C15B77 EQ PUSH2 0x13D JUMPI PUSH0 DUP1 REVERT JUMPDEST CALLDATASIZE PUSH2 0x93 JUMPI PUSH1 0x40 MLOAD CALLVALUE DUP2 MSTORE CALLER SWAP1 PUSH32 0xE6D858F14D755446648A6E0C8AB8B5A0F58CCC7920D4C910B0454E4DCD869AF0 SWAP1 PUSH1 0x20 ADD PUSH1 0x40 MLOAD DUP1 SWAP2 SUB SWAP1 LOG2 STOP JUMPDEST PUSH0 DUP1 REVERT JUMPDEST PUSH2 0x9F PUSH2 0x15C JUMP JUMPDEST STOP JUMPDEST CALLVALUE DUP1 ISZERO PUSH2 0xAC JUMPI PUSH0 DUP1 REVERT JUMPDEST POP PUSH1 0x40 MLOAD SELFBALANCE DUP2 MSTORE PUSH1 0x20 ADD JUMPDEST PUSH1 0x40 MLOAD DUP1 SWAP2 SUB SWAP1 RETURN JUMPDEST CALLVALUE DUP1 ISZERO PUSH2 0xCB JUMPI PUSH0 DUP1 REVERT JUMPDEST POP PUSH2 0x9F PUSH2 0xDA CALLDATASIZE PUSH1 0x4 PUSH2 0x964 JUMP JUMPDEST PUSH2 0x248 JUMP JUMPDEST PUSH2 0x9F PUSH2 0xED CALLDATASIZE PUSH1 0x4 PUSH2 0xA03 JUMP JUMPDEST PUSH2 0x4DD JUMP JUMPDEST CALLVALUE DUP1 ISZERO PUSH2 0xFD JUMPI PUSH0 DUP1 REVERT JUMPDEST POP PUSH2 0x125 PUSH32 0x0 DUP2 JUMP JUMPDEST PUSH1 0x40 MLOAD PUSH1 0x1 PUSH1 0x1 PUSH1 0xA0 SHL SUB SWAP1 SWAP2 AND DUP2 MSTORE PUSH1 0x20 ADD PUSH2 0xB7 JUMP JUMPDEST CALLVALUE DUP1 ISZERO PUSH2 0x148 JUMPI PUSH0 DUP1 REVERT JUMPDEST POP PUSH2 0x9F PUSH2 0x157 CALLDATASIZE PUSH1 0x4 PUSH2 0xA03 JUMP JUMPDEST PUSH2 0x6C0 JUMP JUMPDEST CALLER PUSH1 0x1 PUSH1 0x1 PUSH1 0xA0 SHL SUB PUSH32 0x0 AND EQ PUSH2 0x1D1 JUMPI PUSH1 0x40 MLOAD PUSH3 0x461BCD PUSH1 0xE5 SHL DUP2 MSTORE PUSH1 0x20 PUSH1 0x4 DUP3 ADD MSTORE PUSH1 0x15 PUSH1 0x24 DUP3 ADD MSTORE PUSH21 0x4F6E6C79206F776E65722063616E20616363657373 PUSH1 0x58 SHL PUSH1 0x44 DUP3 ADD MSTORE PUSH1 0x64 ADD JUMPDEST PUSH1 0x40 MLOAD DUP1 SWAP2 SUB SWAP1 REVERT JUMPDEST PUSH0 CALLVALUE GT PUSH2 0x211 JUMPI PUSH1 0x40 MLOAD PUSH3 0x461BCD PUSH1 0xE5 SHL DUP2 MSTORE PUSH1 0x20 PUSH1 0x4 DUP3 ADD MSTORE PUSH1 0xE PUSH1 0x24 DUP3 ADD MSTORE PUSH14 0x125B9D985B1A5908105B5BDD5B9D PUSH1 0x92 SHL PUSH1 0x44 DUP3 ADD MSTORE PUSH1 0x64 ADD PUSH2 0x1C8 JUMP JUMPDEST PUSH1 0x40 MLOAD CALLVALUE DUP2 MSTORE CALLER SWAP1 PUSH32 0xE6D858F14D755446648A6E0C8AB8B5A0F58CCC7920D4C910B0454E4DCD869AF0 SWAP1 PUSH1 0x20 ADD PUSH1 0x40 MLOAD DUP1 SWAP2 SUB SWAP1 LOG2 JUMP JUMPDEST CALLER PUSH1 0x1 PUSH1 0x1 PUSH1 0xA0 SHL SUB PUSH32 0x0 AND EQ PUSH2 0x2B8 JUMPI PUSH1 0x40 MLOAD PUSH3 0x461BCD PUSH1 0xE5 SHL DUP2 MSTORE PUSH1 0x20 PUSH1 0x4 DUP3 ADD MSTORE PUSH1 0x15 PUSH1 0x24 DUP3 ADD MSTORE PUSH21 0x4F6E6C79206F776E65722063616E20616363657373 PUSH1 0x58 SHL PUSH1 0x44 DUP3 ADD MSTORE PUSH1 0x64 ADD PUSH2 0x1C8 JUMP JUMPDEST PUSH0 JUMPDEST DUP6 DUP2 LT ISZERO PUSH2 0x45D JUMPI PUSH0 DUP8 DUP8 DUP4 DUP2 DUP2 LT PUSH2 0x2D5 JUMPI PUSH2 0x2D5 PUSH2 0xA71 JUMP JUMPDEST SWAP1 POP PUSH1 0x20 MUL ADD PUSH1 0x20 DUP2 ADD SWAP1 PUSH2 0x2EA SWAP2 SWAP1 PUSH2 0xA85 JUMP JUMPDEST SWAP1 POP PUSH0 DUP7 DUP7 DUP5 DUP2 DUP2 LT PUSH2 0x2FF JUMPI PUSH2 0x2FF PUSH2 0xA71 JUMP JUMPDEST SWAP1 POP PUSH1 0x20 MUL DUP2 ADD SWAP1 PUSH2 0x311 SWAP2 SWAP1 PUSH2 0xAB2 JUMP JUMPDEST DUP1 DUP1 PUSH1 0x1F ADD PUSH1 0x20 DUP1 SWAP2 DIV MUL PUSH1 0x20 ADD PUSH1 0x40 MLOAD SWAP1 DUP2 ADD PUSH1 0x40 MSTORE DUP1 SWAP4 SWAP3 SWAP2 SWAP1 DUP2 DUP2 MSTORE PUSH1 0x20 ADD DUP4 DUP4 DUP1 DUP3 DUP5 CALLDATACOPY PUSH0 SWAP3 ADD DUP3 SWAP1 MSTORE POP SWAP4 SWAP5 POP DUP9 SWAP3 POP DUP8 SWAP2 POP DUP7 SWAP1 POP DUP2 DUP2 LT PUSH2 0x35B JUMPI PUSH2 0x35B PUSH2 0xA71 JUMP JUMPDEST SWAP1 POP PUSH1 0x20 MUL ADD CALLDATALOAD SWAP1 POP DUP1 PUSH1 0x1 PUSH0 DUP3 DUP3 SLOAD PUSH2 0x375 SWAP2 SWAP1 PUSH2 0xB09 JUMP JUMPDEST SWAP1 SWAP2 SSTORE POP POP PUSH1 0x1 PUSH1 0x1 PUSH1 0xA0 SHL SUB DUP4 AND PUSH0 SWAP1 DUP2 MSTORE PUSH1 0x3 PUSH1 0x20 MSTORE PUSH1 0x40 DUP2 KECCAK256 PUSH1 0x1 ADD DUP1 SLOAD DUP4 SWAP3 SWAP1 PUSH2 0x3A4 SWAP1 DUP5 SWAP1 PUSH2 0xB09 JUMP JUMPDEST SWAP1 SWAP2 SSTORE POP POP PUSH1 0x1 PUSH1 0x1 PUSH1 0xA0 SHL SUB DUP4 AND PUSH0 SWAP1 DUP2 MSTORE PUSH1 0x3 PUSH1 0x20 SWAP1 DUP2 MSTORE PUSH1 0x40 DUP3 KECCAK256 DUP1 SLOAD PUSH1 0x1 DUP2 ADD DUP3 SSTORE SWAP1 DUP4 MSTORE SWAP2 KECCAK256 ADD PUSH2 0x3DA DUP4 DUP3 PUSH2 0xBBA JUMP JUMPDEST POP PUSH1 0x40 MLOAD DUP1 PUSH1 0x40 ADD PUSH1 0x40 MSTORE DUP1 DUP3 DUP2 MSTORE PUSH1 0x20 ADD PUSH1 0x1 ISZERO ISZERO DUP2 MSTORE POP PUSH1 0x2 PUSH0 DUP6 PUSH1 0x1 PUSH1 0x1 PUSH1 0xA0 SHL SUB AND PUSH1 0x1 PUSH1 0x1 PUSH1 0xA0 SHL SUB AND DUP2 MSTORE PUSH1 0x20 ADD SWAP1 DUP2 MSTORE PUSH1 0x20 ADD PUSH0 KECCAK256 DUP4 PUSH1 0x40 MLOAD PUSH2 0x424 SWAP2 SWAP1 PUSH2 0xC75 JUMP JUMPDEST SWAP1 DUP2 MSTORE PUSH1 0x40 MLOAD PUSH1 0x20 SWAP2 DUP2 SWAP1 SUB DUP3 ADD SWAP1 KECCAK256 DUP3 MLOAD DUP2 SSTORE SWAP2 ADD MLOAD PUSH1 0x1 SWAP2 DUP3 ADD DUP1 SLOAD PUSH1 0xFF NOT AND SWAP2 ISZERO ISZERO SWAP2 SWAP1 SWAP2 OR SWAP1 SSTORE SWAP4 SWAP1 SWAP4 ADD SWAP3 POP PUSH2 0x2BA SWAP2 POP POP JUMP JUMPDEST POP PUSH1 0x40 DUP1 MLOAD PUSH1 0x80 DUP1 DUP3 MSTORE PUSH1 0x17 SWAP1 DUP3 ADD MSTORE PUSH32 0x4E6F6465207374616B6520696E666F2075706461746564000000000000000000 PUSH1 0xA0 DUP3 ADD MSTORE PUSH0 PUSH1 0x20 DUP3 ADD DUP2 SWAP1 MSTORE SWAP2 DUP2 ADD DUP3 SWAP1 MSTORE PUSH1 0x1 PUSH1 0x60 DUP3 ADD MSTORE PUSH32 0x5F0FDD6F33919218D99E95DADEB52206AF20443CD68B7711230C6D19282E4E2B SWAP1 PUSH1 0xC0 ADD PUSH1 0x40 MLOAD DUP1 SWAP2 SUB SWAP1 LOG2 POP POP POP POP POP POP JUMP JUMPDEST PUSH0 SLOAD PUSH1 0xFF AND ISZERO PUSH2 0x52F JUMPI PUSH1 0x40 MLOAD PUSH3 0x461BCD PUSH1 0xE5 SHL DUP2 MSTORE PUSH1 0x20 PUSH1 0x4 DUP3 ADD MSTORE PUSH1 0x1F PUSH1 0x24 DUP3 ADD MSTORE PUSH32 0x5265656E7472616E637947756172643A207265656E7472616E742063616C6C00 PUSH1 0x44 DUP3 ADD MSTORE PUSH1 0x64 ADD PUSH2 0x1C8 JUMP JUMPDEST PUSH0 DUP1 SLOAD PUSH1 0xFF NOT AND PUSH1 0x1 OR SWAP1 SSTORE PUSH1 0x32 CALLVALUE GT PUSH2 0x59C JUMPI PUSH1 0x40 MLOAD PUSH3 0x461BCD PUSH1 0xE5 SHL DUP2 MSTORE PUSH1 0x20 PUSH1 0x4 DUP3 ADD MSTORE PUSH1 0x28 PUSH1 0x24 DUP3 ADD MSTORE PUSH32 0x5374616B6520616D6F756E74206D757374206265206772656174657220746861 PUSH1 0x44 DUP3 ADD MSTORE PUSH8 0x6E20353020776569 PUSH1 0xC0 SHL PUSH1 0x64 DUP3 ADD MSTORE PUSH1 0x84 ADD PUSH2 0x1C8 JUMP JUMPDEST CALLVALUE PUSH1 0x1 PUSH0 DUP3 DUP3 SLOAD PUSH2 0x5AD SWAP2 SWAP1 PUSH2 0xB09 JUMP JUMPDEST SWAP1 SWAP2 SSTORE POP POP CALLER PUSH0 SWAP1 DUP2 MSTORE PUSH1 0x3 PUSH1 0x20 MSTORE PUSH1 0x40 DUP2 KECCAK256 PUSH1 0x1 ADD DUP1 SLOAD CALLVALUE SWAP3 SWAP1 PUSH2 0x5D3 SWAP1 DUP5 SWAP1 PUSH2 0xB09 JUMP JUMPDEST SWAP1 SWAP2 SSTORE POP POP CALLER PUSH0 SWAP1 DUP2 MSTORE PUSH1 0x3 PUSH1 0x20 SWAP1 DUP2 MSTORE PUSH1 0x40 DUP3 KECCAK256 DUP1 SLOAD PUSH1 0x1 DUP2 ADD DUP3 SSTORE SWAP1 DUP4 MSTORE SWAP2 KECCAK256 ADD PUSH2 0x601 DUP3 DUP5 DUP4 PUSH2 0xC8B JUMP JUMPDEST POP PUSH1 0x40 DUP1 MLOAD DUP1 DUP3 ADD DUP3 MSTORE CALLVALUE DUP2 MSTORE PUSH1 0x1 PUSH1 0x20 DUP1 DUP4 ADD SWAP2 SWAP1 SWAP2 MSTORE CALLER PUSH0 SWAP1 DUP2 MSTORE PUSH1 0x2 SWAP1 SWAP2 MSTORE DUP3 SWAP1 KECCAK256 SWAP2 MLOAD SWAP1 SWAP2 SWAP1 PUSH2 0x638 SWAP1 DUP6 SWAP1 DUP6 SWAP1 PUSH2 0xD45 JUMP JUMPDEST SWAP1 DUP2 MSTORE PUSH1 0x40 DUP1 MLOAD PUSH1 0x20 SWAP3 DUP2 SWAP1 SUB DUP4 ADD DUP2 KECCAK256 DUP5 MLOAD DUP2 SSTORE SWAP4 DUP4 ADD MLOAD PUSH1 0x1 SWAP5 DUP6 ADD DUP1 SLOAD PUSH1 0xFF NOT AND SWAP2 ISZERO ISZERO SWAP2 SWAP1 SWAP2 OR SWAP1 SSTORE CALLER PUSH0 DUP2 DUP2 MSTORE PUSH1 0x3 SWAP1 SWAP5 MSTORE SWAP2 SWAP1 SWAP3 KECCAK256 DUP4 ADD SLOAD SWAP1 SWAP3 PUSH32 0x5F0FDD6F33919218D99E95DADEB52206AF20443CD68B7711230C6D19282E4E2B SWAP3 PUSH2 0x6AB SWAP3 DUP8 SWAP3 DUP8 SWAP3 CALLVALUE SWAP3 SWAP2 SWAP1 PUSH2 0xD54 JUMP JUMPDEST PUSH1 0x40 MLOAD DUP1 SWAP2 SUB SWAP1 LOG2 POP POP PUSH0 DUP1 SLOAD PUSH1 0xFF NOT AND SWAP1 SSTORE JUMP JUMPDEST PUSH0 SLOAD PUSH1 0xFF AND ISZERO PUSH2 0x712 JUMPI PUSH1 0x40 MLOAD PUSH3 0x461BCD PUSH1 0xE5 SHL DUP2 MSTORE PUSH1 0x20 PUSH1 0x4 DUP3 ADD MSTORE PUSH1 0x1F PUSH1 0x24 DUP3 ADD MSTORE PUSH32 0x5265656E7472616E637947756172643A207265656E7472616E742063616C6C00 PUSH1 0x44 DUP3 ADD MSTORE PUSH1 0x64 ADD PUSH2 0x1C8 JUMP JUMPDEST PUSH0 DUP1 SLOAD PUSH1 0xFF NOT AND PUSH1 0x1 OR DUP2 SSTORE CALLER DUP2 MSTORE PUSH1 0x2 PUSH1 0x20 MSTORE PUSH1 0x40 DUP1 DUP3 KECCAK256 SWAP1 MLOAD PUSH2 0x73A SWAP1 DUP6 SWAP1 DUP6 SWAP1 PUSH2 0xD45 JUMP JUMPDEST SWAP1 DUP2 MSTORE PUSH1 0x40 MLOAD SWAP1 DUP2 SWAP1 SUB PUSH1 0x20 ADD SWAP1 KECCAK256 PUSH1 0x1 DUP2 ADD SLOAD SWAP1 SWAP2 POP PUSH1 0xFF AND PUSH2 0x796 JUMPI PUSH1 0x40 MLOAD PUSH3 0x461BCD PUSH1 0xE5 SHL DUP2 MSTORE PUSH1 0x20 PUSH1 0x4 DUP3 ADD MSTORE PUSH1 0x13 PUSH1 0x24 DUP3 ADD MSTORE PUSH19 0x139BD91948191BD95CC81B9BDD08195E1A5CDD PUSH1 0x6A SHL PUSH1 0x44 DUP3 ADD MSTORE PUSH1 0x64 ADD PUSH2 0x1C8 JUMP JUMPDEST DUP1 SLOAD SELFBALANCE DUP2 GT ISZERO PUSH2 0x7E8 JUMPI PUSH1 0x40 MLOAD PUSH3 0x461BCD PUSH1 0xE5 SHL DUP2 MSTORE PUSH1 0x20 PUSH1 0x4 DUP3 ADD MSTORE PUSH1 0x1D PUSH1 0x24 DUP3 ADD MSTORE PUSH32 0x496E73756666696369656E742074726561737572792062616C616E6365000000 PUSH1 0x44 DUP3 ADD MSTORE PUSH1 0x64 ADD PUSH2 0x1C8 JUMP JUMPDEST CALLER PUSH0 SWAP1 DUP2 MSTORE PUSH1 0x3 PUSH1 0x20 MSTORE PUSH1 0x40 DUP2 KECCAK256 PUSH1 0x1 ADD DUP1 SLOAD DUP4 SWAP3 SWAP1 PUSH2 0x809 SWAP1 DUP5 SWAP1 PUSH2 0xD9B JUMP JUMPDEST SWAP3 POP POP DUP2 SWAP1 SSTORE POP DUP1 PUSH1 0x1 PUSH0 DUP3 DUP3 SLOAD PUSH2 0x821 SWAP2 SWAP1 PUSH2 0xD9B JUMP JUMPDEST SWAP1 SWAP2 SSTORE POP POP PUSH1 0x1 DUP3 ADD DUP1 SLOAD PUSH1 0xFF NOT AND SWAP1 SSTORE PUSH0 DUP1 DUP4 SSTORE PUSH1 0x40 MLOAD CALLER SWAP1 DUP4 SWAP1 DUP4 DUP2 DUP2 DUP2 DUP6 DUP8 GAS CALL SWAP3 POP POP POP RETURNDATASIZE DUP1 PUSH0 DUP2 EQ PUSH2 0x873 JUMPI PUSH1 0x40 MLOAD SWAP2 POP PUSH1 0x1F NOT PUSH1 0x3F RETURNDATASIZE ADD AND DUP3 ADD PUSH1 0x40 MSTORE RETURNDATASIZE DUP3 MSTORE RETURNDATASIZE PUSH0 PUSH1 0x20 DUP5 ADD RETURNDATACOPY PUSH2 0x878 JUMP JUMPDEST PUSH1 0x60 SWAP2 POP JUMPDEST POP POP SWAP1 POP DUP1 PUSH2 0x8BD JUMPI PUSH1 0x40 MLOAD PUSH3 0x461BCD PUSH1 0xE5 SHL DUP2 MSTORE PUSH1 0x20 PUSH1 0x4 DUP3 ADD MSTORE PUSH1 0x11 PUSH1 0x24 DUP3 ADD MSTORE PUSH17 0x15DA5D1A191C985DD85B0819985A5B1959 PUSH1 0x7A SHL PUSH1 0x44 DUP3 ADD MSTORE PUSH1 0x64 ADD PUSH2 0x1C8 JUMP JUMPDEST CALLER PUSH0 DUP2 DUP2 MSTORE PUSH1 0x3 PUSH1 0x20 MSTORE PUSH1 0x40 DUP1 DUP3 KECCAK256 PUSH1 0x1 ADD SLOAD SWAP1 MLOAD PUSH32 0x5F0FDD6F33919218D99E95DADEB52206AF20443CD68B7711230C6D19282E4E2B SWAP3 PUSH2 0x904 SWAP3 DUP11 SWAP3 DUP11 SWAP3 DUP10 SWAP3 SWAP2 PUSH2 0xD54 JUMP JUMPDEST PUSH1 0x40 MLOAD DUP1 SWAP2 SUB SWAP1 LOG2 POP POP PUSH0 DUP1 SLOAD PUSH1 0xFF NOT AND SWAP1 SSTORE POP POP POP JUMP JUMPDEST PUSH0 DUP1 DUP4 PUSH1 0x1F DUP5 ADD SLT PUSH2 0x92C JUMPI PUSH0 DUP1 REVERT JUMPDEST POP DUP2 CALLDATALOAD PUSH8 0xFFFFFFFFFFFFFFFF DUP2 GT ISZERO PUSH2 0x943 JUMPI PUSH0 DUP1 REVERT JUMPDEST PUSH1 0x20 DUP4 ADD SWAP2 POP DUP4 PUSH1 0x20 DUP3 PUSH1 0x5 SHL DUP6 ADD ADD GT ISZERO PUSH2 0x95D JUMPI PUSH0 DUP1 REVERT JUMPDEST SWAP3 POP SWAP3 SWAP1 POP JUMP JUMPDEST PUSH0 DUP1 PUSH0 DUP1 PUSH0 DUP1 PUSH1 0x60 DUP8 DUP10 SUB SLT ISZERO PUSH2 0x979 JUMPI PUSH0 DUP1 REVERT JUMPDEST DUP7 CALLDATALOAD PUSH8 0xFFFFFFFFFFFFFFFF DUP2 GT ISZERO PUSH2 0x98F JUMPI PUSH0 DUP1 REVERT JUMPDEST PUSH2 0x99B DUP10 DUP3 DUP11 ADD PUSH2 0x91C JUMP JUMPDEST SWAP1 SWAP8 POP SWAP6 POP POP PUSH1 0x20 DUP8 ADD CALLDATALOAD PUSH8 0xFFFFFFFFFFFFFFFF DUP2 GT ISZERO PUSH2 0x9BA JUMPI PUSH0 DUP1 REVERT JUMPDEST PUSH2 0x9C6 DUP10 DUP3 DUP11 ADD PUSH2 0x91C JUMP JUMPDEST SWAP1 SWAP6 POP SWAP4 POP POP PUSH1 0x40 DUP8 ADD CALLDATALOAD PUSH8 0xFFFFFFFFFFFFFFFF DUP2 GT ISZERO PUSH2 0x9E5 JUMPI PUSH0 DUP1 REVERT JUMPDEST PUSH2 0x9F1 DUP10 DUP3 DUP11 ADD PUSH2 0x91C JUMP JUMPDEST SWAP8 SWAP11 SWAP7 SWAP10 POP SWAP5 SWAP8 POP SWAP3 SWAP6 SWAP4 SWAP5 SWAP3 POP POP POP JUMP JUMPDEST PUSH0 DUP1 PUSH1 0x20 DUP4 DUP6 SUB SLT ISZERO PUSH2 0xA14 JUMPI PUSH0 DUP1 REVERT JUMPDEST DUP3 CALLDATALOAD PUSH8 0xFFFFFFFFFFFFFFFF DUP2 GT ISZERO PUSH2 0xA2A JUMPI PUSH0 DUP1 REVERT JUMPDEST DUP4 ADD PUSH1 0x1F DUP2 ADD DUP6 SGT PUSH2 0xA3A JUMPI PUSH0 DUP1 REVERT JUMPDEST DUP1 CALLDATALOAD PUSH8 0xFFFFFFFFFFFFFFFF DUP2 GT ISZERO PUSH2 0xA50 JUMPI PUSH0 DUP1 REVERT JUMPDEST DUP6 PUSH1 0x20 DUP3 DUP5 ADD ADD GT ISZERO PUSH2 0xA61 JUMPI PUSH0 DUP1 REVERT JUMPDEST PUSH1 0x20 SWAP2 SWAP1 SWAP2 ADD SWAP6 SWAP1 SWAP5 POP SWAP3 POP POP POP JUMP JUMPDEST PUSH4 0x4E487B71 PUSH1 0xE0 SHL PUSH0 MSTORE PUSH1 0x32 PUSH1 0x4 MSTORE PUSH1 0x24 PUSH0 REVERT JUMPDEST PUSH0 PUSH1 0x20 DUP3 DUP5 SUB SLT ISZERO PUSH2 0xA95 JUMPI PUSH0 DUP1 REVERT JUMPDEST DUP2 CALLDATALOAD PUSH1 0x1 PUSH1 0x1 PUSH1 0xA0 SHL SUB DUP2 AND DUP2 EQ PUSH2 0xAAB JUMPI PUSH0 DUP1 REVERT JUMPDEST SWAP4 SWAP3 POP POP POP JUMP JUMPDEST PUSH0 DUP1 DUP4 CALLDATALOAD PUSH1 0x1E NOT DUP5 CALLDATASIZE SUB ADD DUP2 SLT PUSH2 0xAC7 JUMPI PUSH0 DUP1 REVERT JUMPDEST DUP4 ADD DUP1 CALLDATALOAD SWAP2 POP PUSH8 0xFFFFFFFFFFFFFFFF DUP3 GT ISZERO PUSH2 0xAE1 JUMPI PUSH0 DUP1 REVERT JUMPDEST PUSH1 0x20 ADD SWAP2 POP CALLDATASIZE DUP2 SWAP1 SUB DUP3 SGT ISZERO PUSH2 0x95D JUMPI PUSH0 DUP1 REVERT JUMPDEST PUSH4 0x4E487B71 PUSH1 0xE0 SHL PUSH0 MSTORE PUSH1 0x11 PUSH1 0x4 MSTORE PUSH1 0x24 PUSH0 REVERT JUMPDEST DUP1 DUP3 ADD DUP1 DUP3 GT ISZERO PUSH2 0xB1C JUMPI PUSH2 0xB1C PUSH2 0xAF5 JUMP JUMPDEST SWAP3 SWAP2 POP POP JUMP JUMPDEST PUSH4 0x4E487B71 PUSH1 0xE0 SHL PUSH0 MSTORE PUSH1 0x41 PUSH1 0x4 MSTORE PUSH1 0x24 PUSH0 REVERT JUMPDEST PUSH1 0x1 DUP2 DUP2 SHR SWAP1 DUP3 AND DUP1 PUSH2 0xB4A JUMPI PUSH1 0x7F DUP3 AND SWAP2 POP JUMPDEST PUSH1 0x20 DUP3 LT DUP2 SUB PUSH2 0xB68 JUMPI PUSH4 0x4E487B71 PUSH1 0xE0 SHL PUSH0 MSTORE PUSH1 0x22 PUSH1 0x4 MSTORE PUSH1 0x24 PUSH0 REVERT JUMPDEST POP SWAP2 SWAP1 POP JUMP JUMPDEST PUSH1 0x1F DUP3 GT ISZERO PUSH2 0xBB5 JUMPI DUP1 PUSH0 MSTORE PUSH1 0x20 PUSH0 KECCAK256 PUSH1 0x1F DUP5 ADD PUSH1 0x5 SHR DUP2 ADD PUSH1 0x20 DUP6 LT ISZERO PUSH2 0xB93 JUMPI POP DUP1 JUMPDEST PUSH1 0x1F DUP5 ADD PUSH1 0x5 SHR DUP3 ADD SWAP2 POP JUMPDEST DUP2 DUP2 LT ISZERO PUSH2 0xBB2 JUMPI PUSH0 DUP2 SSTORE PUSH1 0x1 ADD PUSH2 0xB9F JUMP JUMPDEST POP POP JUMPDEST POP POP POP JUMP JUMPDEST DUP2 MLOAD PUSH8 0xFFFFFFFFFFFFFFFF DUP2 GT ISZERO PUSH2 0xBD4 JUMPI PUSH2 0xBD4 PUSH2 0xB22 JUMP JUMPDEST PUSH2 0xBE8 DUP2 PUSH2 0xBE2 DUP5 SLOAD PUSH2 0xB36 JUMP JUMPDEST DUP5 PUSH2 0xB6E JUMP JUMPDEST PUSH1 0x20 PUSH1 0x1F DUP3 GT PUSH1 0x1 DUP2 EQ PUSH2 0xC1A JUMPI PUSH0 DUP4 ISZERO PUSH2 0xC03 JUMPI POP DUP5 DUP3 ADD MLOAD JUMPDEST PUSH0 NOT PUSH1 0x3 DUP6 SWAP1 SHL SHR NOT AND PUSH1 0x1 DUP5 SWAP1 SHL OR DUP5 SSTORE PUSH2 0xBB2 JUMP JUMPDEST PUSH0 DUP5 DUP2 MSTORE PUSH1 0x20 DUP2 KECCAK256 PUSH1 0x1F NOT DUP6 AND SWAP2 JUMPDEST DUP3 DUP2 LT ISZERO PUSH2 0xC49 JUMPI DUP8 DUP6 ADD MLOAD DUP3 SSTORE PUSH1 0x20 SWAP5 DUP6 ADD SWAP5 PUSH1 0x1 SWAP1 SWAP3 ADD SWAP2 ADD PUSH2 0xC29 JUMP JUMPDEST POP DUP5 DUP3 LT ISZERO PUSH2 0xC66 JUMPI DUP7 DUP5 ADD MLOAD PUSH0 NOT PUSH1 0x3 DUP8 SWAP1 SHL PUSH1 0xF8 AND SHR NOT AND DUP2 SSTORE JUMPDEST POP POP POP POP PUSH1 0x1 SWAP1 DUP2 SHL ADD SWAP1 SSTORE POP JUMP JUMPDEST PUSH0 DUP3 MLOAD DUP1 PUSH1 0x20 DUP6 ADD DUP5 MCOPY PUSH0 SWAP3 ADD SWAP2 DUP3 MSTORE POP SWAP2 SWAP1 POP JUMP JUMPDEST PUSH8 0xFFFFFFFFFFFFFFFF DUP4 GT ISZERO PUSH2 0xCA3 JUMPI PUSH2 0xCA3 PUSH2 0xB22 JUMP JUMPDEST PUSH2 0xCB7 DUP4 PUSH2 0xCB1 DUP4 SLOAD PUSH2 0xB36 JUMP JUMPDEST DUP4 PUSH2 0xB6E JUMP JUMPDEST PUSH0 PUSH1 0x1F DUP5 GT PUSH1 0x1 DUP2 EQ PUSH2 0xCE8 JUMPI PUSH0 DUP6 ISZERO PUSH2 0xCD1 JUMPI POP DUP4 DUP3 ADD CALLDATALOAD JUMPDEST PUSH0 NOT PUSH1 0x3 DUP8 SWAP1 SHL SHR NOT AND PUSH1 0x1 DUP7 SWAP1 SHL OR DUP4 SSTORE PUSH2 0xBB2 JUMP JUMPDEST PUSH0 DUP4 DUP2 MSTORE PUSH1 0x20 DUP2 KECCAK256 PUSH1 0x1F NOT DUP8 AND SWAP2 JUMPDEST DUP3 DUP2 LT ISZERO PUSH2 0xD17 JUMPI DUP7 DUP6 ADD CALLDATALOAD DUP3 SSTORE PUSH1 0x20 SWAP5 DUP6 ADD SWAP5 PUSH1 0x1 SWAP1 SWAP3 ADD SWAP2 ADD PUSH2 0xCF7 JUMP JUMPDEST POP DUP7 DUP3 LT ISZERO PUSH2 0xD33 JUMPI PUSH0 NOT PUSH1 0xF8 DUP9 PUSH1 0x3 SHL AND SHR NOT DUP5 DUP8 ADD CALLDATALOAD AND DUP2 SSTORE JUMPDEST POP POP PUSH1 0x1 DUP6 PUSH1 0x1 SHL ADD DUP4 SSTORE POP POP POP POP POP JUMP JUMPDEST DUP2 DUP4 DUP3 CALLDATACOPY PUSH0 SWAP2 ADD SWAP1 DUP2 MSTORE SWAP2 SWAP1 POP JUMP JUMPDEST PUSH1 0x80 DUP2 MSTORE DUP5 PUSH1 0x80 DUP3 ADD MSTORE DUP5 DUP7 PUSH1 0xA0 DUP4 ADD CALLDATACOPY PUSH0 PUSH1 0xA0 DUP7 DUP4 ADD ADD MSTORE PUSH0 PUSH1 0xA0 PUSH1 0x1F NOT PUSH1 0x1F DUP9 ADD AND DUP4 ADD ADD SWAP1 POP DUP5 PUSH1 0x20 DUP4 ADD MSTORE DUP4 PUSH1 0x40 DUP4 ADD MSTORE DUP3 ISZERO ISZERO PUSH1 0x60 DUP4 ADD MSTORE SWAP7 SWAP6 POP POP POP POP POP POP JUMP JUMPDEST DUP2 DUP2 SUB DUP2 DUP2 GT ISZERO PUSH2 0xB1C JUMPI PUSH2 0xB1C PUSH2 0xAF5 JUMP INVALID LOG2 PUSH5 0x6970667358 0x22 SLT KECCAK256 ADD SIGNEXTEND ORIGIN SMOD SWAP15 COINBASE PUSH27 0xA21B257B2152281CC134ED24578A8B3F7B45ED925AF4290CF66473 PUSH16 0x6C634300081A00330000000000000000 "
				},
				"gasEstimates": {
					"creation": {
						"codeDepositCost": "711200",
						"executionCost": "infinite",
						"totalCost": "infinite"
					},
					"external": {
						"addNode(string)": "infinite",
						"checkTreasuryBalance()": "167",
						"deleteNode(string)": "infinite",
						"feedNodeRecord(address[],string[],uint256[])": "infinite",
						"fillTreasury()": "infinite",
						"owner()": "infinite"
					}
				},
				"methodIdentifiers": {
					"addNode(string)": "8994dd8e",
					"checkTreasuryBalance()": "0f138bfe",
					"deleteNode(string)": "a0c15b77",
					"feedNodeRecord(address[],string[],uint256[])": "2e31ddf1",
					"fillTreasury()": "0d8f7614",
					"owner()": "8da5cb5b"
				}
			},
			"storageLayout": {
				"storage": [
					{
						"astId": 14,
						"contract": "EthTesting.sol/checkRenterncy.sol:StakingContract",
						"label": "locked",
						"offset": 0,
						"slot": "0",
						"type": "t_bool"
					},
					{
						"astId": 18,
						"contract": "EthTesting.sol/checkRenterncy.sol:StakingContract",
						"label": "totalStakedTokens",
						"offset": 0,
						"slot": "1",
						"type": "t_uint256"
					},
					{
						"astId": 25,
						"contract": "EthTesting.sol/checkRenterncy.sol:StakingContract",
						"label": "stakeInfo",
						"offset": 0,
						"slot": "2",
						"type": "t_mapping(t_address,t_mapping(t_string_memory_ptr,t_struct(StakeInfo)12_storage))"
					},
					{
						"astId": 30,
						"contract": "EthTesting.sol/checkRenterncy.sol:StakingContract",
						"label": "userInfo",
						"offset": 0,
						"slot": "3",
						"type": "t_mapping(t_address,t_struct(UserInfo)7_storage)"
					}
				],
				"types": {
					"t_address": {
						"encoding": "inplace",
						"label": "address",
						"numberOfBytes": "20"
					},
					"t_array(t_string_storage)dyn_storage": {
						"base": "t_string_storage",
						"encoding": "dynamic_array",
						"label": "string[]",
						"numberOfBytes": "32"
					},
					"t_bool": {
						"encoding": "inplace",
						"label": "bool",
						"numberOfBytes": "1"
					},
					"t_mapping(t_address,t_mapping(t_string_memory_ptr,t_struct(StakeInfo)12_storage))": {
						"encoding": "mapping",
						"key": "t_address",
						"label": "mapping(address => mapping(string => struct StakingContract.StakeInfo))",
						"numberOfBytes": "32",
						"value": "t_mapping(t_string_memory_ptr,t_struct(StakeInfo)12_storage)"
					},
					"t_mapping(t_address,t_struct(UserInfo)7_storage)": {
						"encoding": "mapping",
						"key": "t_address",
						"label": "mapping(address => struct StakingContract.UserInfo)",
						"numberOfBytes": "32",
						"value": "t_struct(UserInfo)7_storage"
					},
					"t_mapping(t_string_memory_ptr,t_struct(StakeInfo)12_storage)": {
						"encoding": "mapping",
						"key": "t_string_memory_ptr",
						"label": "mapping(string => struct StakingContract.StakeInfo)",
						"numberOfBytes": "32",
						"value": "t_struct(StakeInfo)12_storage"
					},
					"t_string_memory_ptr": {
						"encoding": "bytes",
						"label": "string",
						"numberOfBytes": "32"
					},
					"t_string_storage": {
						"encoding": "bytes",
						"label": "string",
						"numberOfBytes": "32"
					},
					"t_struct(StakeInfo)12_storage": {
						"encoding": "inplace",
						"label": "struct StakingContract.StakeInfo",
						"members": [
							{
								"astId": 9,
								"contract": "EthTesting.sol/checkRenterncy.sol:StakingContract",
								"label": "stakedAmount",
								"offset": 0,
								"slot": "0",
								"type": "t_uint256"
							},
							{
								"astId": 11,
								"contract": "EthTesting.sol/checkRenterncy.sol:StakingContract",
								"label": "isNodeAlive",
								"offset": 0,
								"slot": "1",
								"type": "t_bool"
							}
						],
						"numberOfBytes": "64"
					},
					"t_struct(UserInfo)7_storage": {
						"encoding": "inplace",
						"label": "struct StakingContract.UserInfo",
						"members": [
							{
								"astId": 4,
								"contract": "EthTesting.sol/checkRenterncy.sol:StakingContract",
								"label": "nodeIds",
								"offset": 0,
								"slot": "0",
								"type": "t_array(t_string_storage)dyn_storage"
							},
							{
								"astId": 6,
								"contract": "EthTesting.sol/checkRenterncy.sol:StakingContract",
								"label": "totalStakedAmount",
								"offset": 0,
								"slot": "1",
								"type": "t_uint256"
							}
						],
						"numberOfBytes": "64"
					},
					"t_uint256": {
						"encoding": "inplace",
						"label": "uint256",
						"numberOfBytes": "32"
					}
				}
			},
			"userdoc": {
				"kind": "user",
				"methods": {},
				"version": 1
			}
		}
	}
}