{
	"EthTesting.sol/storageChain.sol": {
		"StakingContract": {
			"abi": [
				{
					"inputs": [
						{
							"internalType": "address",
							"name": "_owner",
							"type": "address"
						}
					],
					"stateMutability": "nonpayable",
					"type": "constructor"
				},
				{
					"inputs": [],
					"name": "OnlyOwnerError",
					"type": "error"
				},
				{
					"inputs": [],
					"name": "ReentrancyError",
					"type": "error"
				},
				{
					"inputs": [
						{
							"internalType": "uint256",
							"name": "treasuryBallance",
							"type": "uint256"
						}
					],
					"name": "insuficentTrasuryBalance",
					"type": "error"
				},
				{
					"inputs": [
						{
							"internalType": "uint256",
							"name": "amount",
							"type": "uint256"
						}
					],
					"name": "invalidAmount",
					"type": "error"
				},
				{
					"inputs": [
						{
							"internalType": "uint256",
							"name": "fee",
							"type": "uint256"
						}
					],
					"name": "invalidFee",
					"type": "error"
				},
				{
					"inputs": [
						{
							"internalType": "uint256",
							"name": "addressLength",
							"type": "uint256"
						},
						{
							"internalType": "uint256",
							"name": "idsLength",
							"type": "uint256"
						},
						{
							"internalType": "uint256",
							"name": "amountsLength",
							"type": "uint256"
						}
					],
					"name": "lengthDontMatch",
					"type": "error"
				},
				{
					"inputs": [
						{
							"internalType": "bool",
							"name": "nodExist",
							"type": "bool"
						}
					],
					"name": "nodeNotExist",
					"type": "error"
				},
				{
					"inputs": [
						{
							"internalType": "bool",
							"name": "transfered",
							"type": "bool"
						}
					],
					"name": "withdrawFailed",
					"type": "error"
				},
				{
					"inputs": [
						{
							"internalType": "uint256",
							"name": "addressLength",
							"type": "uint256"
						}
					],
					"name": "wrongAddressLength",
					"type": "error"
				},
				{
					"inputs": [
						{
							"internalType": "uint256",
							"name": "amountsLength",
							"type": "uint256"
						}
					],
					"name": "wrongAmountsLength",
					"type": "error"
				},
				{
					"inputs": [
						{
							"internalType": "uint256",
							"name": "idsLength",
							"type": "uint256"
						}
					],
					"name": "wrongIdsLength",
					"type": "error"
				},
				{
					"anonymous": false,
					"inputs": [
						{
							"indexed": false,
							"internalType": "string",
							"name": "nodeId",
							"type": "string"
						},
						{
							"indexed": true,
							"internalType": "address",
							"name": "userAddress",
							"type": "address"
						},
						{
							"indexed": false,
							"internalType": "uint256",
							"name": "stakedAmount",
							"type": "uint256"
						},
						{
							"indexed": false,
							"internalType": "uint256",
							"name": "totalStakedAmount",
							"type": "uint256"
						},
						{
							"indexed": false,
							"internalType": "bool",
							"name": "tokenStaked",
							"type": "bool"
						}
					],
					"name": "StakeEvent",
					"type": "event"
				},
				{
					"anonymous": false,
					"inputs": [
						{
							"indexed": true,
							"internalType": "address",
							"name": "sender",
							"type": "address"
						},
						{
							"indexed": false,
							"internalType": "uint256",
							"name": "value",
							"type": "uint256"
						}
					],
					"name": "Transferred",
					"type": "event"
				},
				{
					"inputs": [
						{
							"internalType": "string",
							"name": "_nodeId",
							"type": "string"
						}
					],
					"name": "addNode",
					"outputs": [],
					"stateMutability": "payable",
					"type": "function"
				},
				{
					"inputs": [],
					"name": "checkTreasuryBalance",
					"outputs": [
						{
							"internalType": "uint256",
							"name": "",
							"type": "uint256"
						}
					],
					"stateMutability": "view",
					"type": "function"
				},
				{
					"inputs": [
						{
							"internalType": "string",
							"name": "_nodeId",
							"type": "string"
						}
					],
					"name": "deleteNode",
					"outputs": [],
					"stateMutability": "nonpayable",
					"type": "function"
				},
				{
					"inputs": [
						{
							"internalType": "address[]",
							"name": "_userAddresses",
							"type": "address[]"
						},
						{
							"internalType": "string[]",
							"name": "_nodeIds",
							"type": "string[]"
						},
						{
							"internalType": "uint256[]",
							"name": "_stakedAmounts",
							"type": "uint256[]"
						}
					],
					"name": "feedNodeRecord",
					"outputs": [],
					"stateMutability": "nonpayable",
					"type": "function"
				},
				{
					"inputs": [],
					"name": "fillTreasury",
					"outputs": [],
					"stateMutability": "payable",
					"type": "function"
				},
				{
					"inputs": [
						{
							"internalType": "address",
							"name": "_userAddress",
							"type": "address"
						}
					],
					"name": "getNodeIds",
					"outputs": [
						{
							"internalType": "string[]",
							"name": "",
							"type": "string[]"
						}
					],
					"stateMutability": "view",
					"type": "function"
				},
				{
					"inputs": [
						{
							"internalType": "address",
							"name": "_userAddress",
							"type": "address"
						},
						{
							"internalType": "string",
							"name": "_nodeId",
							"type": "string"
						}
					],
					"name": "getStakeAmountOfNode",
					"outputs": [
						{
							"internalType": "uint256",
							"name": "",
							"type": "uint256"
						}
					],
					"stateMutability": "view",
					"type": "function"
				},
				{
					"inputs": [
						{
							"internalType": "address",
							"name": "_userAddress",
							"type": "address"
						},
						{
							"internalType": "string",
							"name": "_nodeId",
							"type": "string"
						}
					],
					"name": "nodeExists",
					"outputs": [
						{
							"internalType": "bool",
							"name": "",
							"type": "bool"
						}
					],
					"stateMutability": "view",
					"type": "function"
				},
				{
					"inputs": [],
					"name": "owner",
					"outputs": [
						{
							"internalType": "address",
							"name": "",
							"type": "address"
						}
					],
					"stateMutability": "view",
					"type": "function"
				},
				{
					"inputs": [
						{
							"internalType": "address",
							"name": "_userAddress",
							"type": "address"
						}
					],
					"name": "totalStakedOfUser",
					"outputs": [
						{
							"internalType": "uint256",
							"name": "",
							"type": "uint256"
						}
					],
					"stateMutability": "view",
					"type": "function"
				},
				{
					"inputs": [],
					"name": "totalStakedStorCoins",
					"outputs": [
						{
							"internalType": "uint256",
							"name": "",
							"type": "uint256"
						}
					],
					"stateMutability": "view",
					"type": "function"
				},
				{
					"stateMutability": "payable",
					"type": "receive"
				}
			],
			"devdoc": {
				"kind": "dev",
				"methods": {
					"addNode(string)": {
						"details": "Adds a new node and stakes tokens to it.",
						"params": {
							"_nodeId": "The ID of the node to be added."
						}
					},
					"checkTreasuryBalance()": {
						"details": "Checks the contract's current treasury balance."
					},
					"deleteNode(string)": {
						"details": "Deletes an existing node and unstakes the associated tokens.",
						"params": {
							"_nodeId": "The ID of the node to be deleted."
						}
					},
					"feedNodeRecord(address[],string[],uint256[])": {
						"details": "Feeds old contract data into the new contract.",
						"params": {
							"_nodeIds": "Array of node IDs corresponding to users.",
							"_stakedAmounts": "Array of staked amounts corresponding to each node.",
							"_userAddresses": "Array of user addresses."
						}
					},
					"fillTreasury()": {
						"details": "Fills the contract treasury with funds."
					},
					"getNodeIds(address)": {
						"details": "Retrieves all node IDs associated with a specific user.",
						"params": {
							"_userAddress": "The address of the user."
						},
						"returns": {
							"_0": "An array of node IDs owned by the user."
						}
					},
					"getStakeAmountOfNode(address,string)": {
						"details": "Gets the staked amount for a specific node owned by a user.",
						"params": {
							"_nodeId": "The ID of the node.",
							"_userAddress": "The address of the user."
						},
						"returns": {
							"_0": "The staked amount for the given node."
						}
					},
					"nodeExists(address,string)": {
						"details": "Checks if a specific node exists for a given user.",
						"params": {
							"_nodeId": "The ID of the node to check.",
							"_userAddress": "The address of the user."
						},
						"returns": {
							"_0": "A boolean indicating if the node exists and is alive."
						}
					},
					"totalStakedOfUser(address)": {
						"details": "Gets the total staked amount for a specific user.",
						"params": {
							"_userAddress": "The address of the user."
						},
						"returns": {
							"_0": "The total staked amount by the user."
						}
					},
					"totalStakedStorCoins()": {
						"details": "Gets the total staked tokens across all users. Only the owner can view this value.",
						"returns": {
							"_0": "The total staked tokens in the contract."
						}
					}
				},
				"version": 1
			},
			"evm": {
				"assembly": "    /* \"EthTesting.sol/storageChain.sol\":60:7574  contract StakingContract  {... */\n  mstore(0x40, 0xa0)\n    /* \"EthTesting.sol/storageChain.sol\":1243:1302  constructor(address _owner) {... */\n  callvalue\n  dup1\n  iszero\n  tag_1\n  jumpi\n  0x00\n  dup1\n  revert\ntag_1:\n  pop\n  mload(0x40)\n  sub(codesize, bytecodeSize)\n  dup1\n  bytecodeSize\n  dup4\n  codecopy\n  dup2\n  add\n  0x40\n  dup2\n  swap1\n  mstore\n  tag_2\n  swap2\n  tag_3\n  jump\t// in\ntag_2:\n  sub(shl(0xa0, 0x01), 0x01)\n    /* \"EthTesting.sol/storageChain.sol\":1281:1295  owner = _owner */\n  and\n  0x80\n  mstore\n    /* \"EthTesting.sol/storageChain.sol\":60:7574  contract StakingContract  {... */\n  jump(tag_7)\n    /* \"#utility.yul\":14:304   */\ntag_3:\n    /* \"#utility.yul\":84:90   */\n  0x00\n    /* \"#utility.yul\":137:139   */\n  0x20\n    /* \"#utility.yul\":125:134   */\n  dup3\n    /* \"#utility.yul\":116:123   */\n  dup5\n    /* \"#utility.yul\":112:135   */\n  sub\n    /* \"#utility.yul\":108:140   */\n  slt\n    /* \"#utility.yul\":105:157   */\n  iszero\n  tag_9\n  jumpi\n    /* \"#utility.yul\":153:154   */\n  0x00\n    /* \"#utility.yul\":150:151   */\n  dup1\n    /* \"#utility.yul\":143:155   */\n  revert\n    /* \"#utility.yul\":105:157   */\ntag_9:\n    /* \"#utility.yul\":179:195   */\n  dup2\n  mload\n  sub(shl(0xa0, 0x01), 0x01)\n    /* \"#utility.yul\":224:255   */\n  dup2\n  and\n    /* \"#utility.yul\":214:256   */\n  dup2\n  eq\n    /* \"#utility.yul\":204:274   */\n  tag_10\n  jumpi\n    /* \"#utility.yul\":270:271   */\n  0x00\n    /* \"#utility.yul\":267:268   */\n  dup1\n    /* \"#utility.yul\":260:272   */\n  revert\n    /* \"#utility.yul\":204:274   */\ntag_10:\n    /* \"#utility.yul\":293:298   */\n  swap4\n    /* \"#utility.yul\":14:304   */\n  swap3\n  pop\n  pop\n  pop\n  jump\t// out\ntag_7:\n    /* \"EthTesting.sol/storageChain.sol\":60:7574  contract StakingContract  {... */\n  mload(0x80)\n  codecopy(0x00, dataOffset(sub_0), dataSize(sub_0))\n  0x00\n  assignImmutable(\"0x277ab82e5a4641341820a4a2933a62c1de997e42e92548657ae21b3728d580fe\")\n  return(0x00, dataSize(sub_0))\nstop\n\nsub_0: assembly {\n        /* \"EthTesting.sol/storageChain.sol\":60:7574  contract StakingContract  {... */\n      mstore(0x40, 0x80)\n      jumpi(tag_1, lt(calldatasize, 0x04))\n      shr(0xe0, calldataload(0x00))\n      dup1\n      0x4cd06072\n      gt\n      tag_14\n      jumpi\n      dup1\n      0x4cd06072\n      eq\n      tag_8\n      jumpi\n      dup1\n      0x764232bf\n      eq\n      tag_9\n      jumpi\n      dup1\n      0x83090407\n      eq\n      tag_10\n      jumpi\n      dup1\n      0x8994dd8e\n      eq\n      tag_11\n      jumpi\n      dup1\n      0x8da5cb5b\n      eq\n      tag_12\n      jumpi\n      dup1\n      0xa0c15b77\n      eq\n      tag_13\n      jumpi\n      0x00\n      dup1\n      revert\n    tag_14:\n      dup1\n      0x0d8f7614\n      eq\n      tag_3\n      jumpi\n      dup1\n      0x0f138bfe\n      eq\n      tag_4\n      jumpi\n      dup1\n      0x2e31ddf1\n      eq\n      tag_5\n      jumpi\n      dup1\n      0x2e4e2531\n      eq\n      tag_6\n      jumpi\n      dup1\n      0x4652e69b\n      eq\n      tag_7\n      jumpi\n      0x00\n      dup1\n      revert\n    tag_1:\n      jumpi(tag_2, calldatasize)\n        /* \"EthTesting.sol/storageChain.sol\":7287:7321  Transferred(msg.sender, msg.value) */\n      mload(0x40)\n        /* \"EthTesting.sol/storageChain.sol\":7311:7320  msg.value */\n      callvalue\n        /* \"#utility.yul\":160:185   */\n      dup2\n      mstore\n        /* \"EthTesting.sol/storageChain.sol\":7299:7309  msg.sender */\n      caller\n      swap1\n        /* \"EthTesting.sol/storageChain.sol\":7287:7321  Transferred(msg.sender, msg.value) */\n      0xe6d858f14d755446648a6e0c8ab8b5a0f58ccc7920d4c910b0454e4dcd869af0\n      swap1\n        /* \"#utility.yul\":148:150   */\n      0x20\n        /* \"#utility.yul\":133:151   */\n      add\n        /* \"EthTesting.sol/storageChain.sol\":7287:7321  Transferred(msg.sender, msg.value) */\n      mload(0x40)\n      dup1\n      swap2\n      sub\n      swap1\n      log2\n        /* \"EthTesting.sol/storageChain.sol\":60:7574  contract StakingContract  {... */\n      stop\n    tag_2:\n      0x00\n      dup1\n      revert\n        /* \"EthTesting.sol/storageChain.sol\":4984:5152  function fillTreasury() external payable onlyOwner {... */\n    tag_3:\n      tag_19\n      tag_20\n      jump\t// in\n    tag_19:\n      stop\n        /* \"EthTesting.sol/storageChain.sol\":5234:5343  function checkTreasuryBalance() external view returns (uint256) {... */\n    tag_4:\n      callvalue\n      dup1\n      iszero\n      tag_21\n      jumpi\n      0x00\n      dup1\n      revert\n    tag_21:\n      pop\n        /* \"EthTesting.sol/storageChain.sol\":5315:5336  address(this).balance */\n      selfbalance\n        /* \"EthTesting.sol/storageChain.sol\":5234:5343  function checkTreasuryBalance() external view returns (uint256) {... */\n    tag_22:\n      mload(0x40)\n        /* \"#utility.yul\":160:185   */\n      swap1\n      dup2\n      mstore\n        /* \"#utility.yul\":148:150   */\n      0x20\n        /* \"#utility.yul\":133:151   */\n      add\n        /* \"EthTesting.sol/storageChain.sol\":5234:5343  function checkTreasuryBalance() external view returns (uint256) {... */\n    tag_24:\n      mload(0x40)\n      dup1\n      swap2\n      sub\n      swap1\n      return\n        /* \"EthTesting.sol/storageChain.sol\":1587:2836  function feedNodeRecord(... */\n    tag_5:\n      callvalue\n      dup1\n      iszero\n      tag_25\n      jumpi\n      0x00\n      dup1\n      revert\n    tag_25:\n      pop\n      tag_19\n      tag_27\n      calldatasize\n      0x04\n      tag_28\n      jump\t// in\n    tag_27:\n      tag_29\n      jump\t// in\n        /* \"EthTesting.sol/storageChain.sol\":6594:6730  function getNodeIds(address _userAddress) external view returns (string[] memory) {... */\n    tag_6:\n      callvalue\n      dup1\n      iszero\n      tag_30\n      jumpi\n      0x00\n      dup1\n      revert\n    tag_30:\n      pop\n      tag_31\n      tag_32\n      calldatasize\n      0x04\n      tag_33\n      jump\t// in\n    tag_32:\n      tag_34\n      jump\t// in\n    tag_31:\n      mload(0x40)\n      tag_24\n      swap2\n      swap1\n      tag_36\n      jump\t// in\n        /* \"EthTesting.sol/storageChain.sol\":6970:7146  function getStakeAmountOfNode(address _userAddress, string memory _nodeId) external view returns (uint256) {... */\n    tag_7:\n      callvalue\n      dup1\n      iszero\n      tag_37\n      jumpi\n      0x00\n      dup1\n      revert\n    tag_37:\n      pop\n      tag_22\n      tag_39\n      calldatasize\n      0x04\n      tag_40\n      jump\t// in\n    tag_39:\n      tag_41\n      jump\t// in\n        /* \"EthTesting.sol/storageChain.sol\":5523:5638  function totalStakedStorCoins() external view onlyOwner returns (uint256) {... */\n    tag_8:\n      callvalue\n      dup1\n      iszero\n      tag_43\n      jumpi\n      0x00\n      dup1\n      revert\n    tag_43:\n      pop\n      tag_22\n      tag_45\n      jump\t// in\n        /* \"EthTesting.sol/storageChain.sol\":5894:6066  function nodeExists(address _userAddress, string memory _nodeId) external view onlyOwner returns (bool) {... */\n    tag_9:\n      callvalue\n      dup1\n      iszero\n      tag_47\n      jumpi\n      0x00\n      dup1\n      revert\n    tag_47:\n      pop\n      tag_48\n      tag_49\n      calldatasize\n      0x04\n      tag_40\n      jump\t// in\n    tag_49:\n      tag_50\n      jump\t// in\n    tag_48:\n      mload(0x40)\n        /* \"#utility.yul\":4627:4641   */\n      swap1\n      iszero\n        /* \"#utility.yul\":4620:4642   */\n      iszero\n        /* \"#utility.yul\":4602:4643   */\n      dup2\n      mstore\n        /* \"#utility.yul\":4590:4592   */\n      0x20\n        /* \"#utility.yul\":4575:4593   */\n      add\n        /* \"EthTesting.sol/storageChain.sol\":5894:6066  function nodeExists(address _userAddress, string memory _nodeId) external view onlyOwner returns (bool) {... */\n      tag_24\n        /* \"#utility.yul\":4462:4649   */\n      jump\n        /* \"EthTesting.sol/storageChain.sol\":6253:6398  function totalStakedOfUser(address _userAddress) external view returns (uint256) {... */\n    tag_10:\n      callvalue\n      dup1\n      iszero\n      tag_53\n      jumpi\n      0x00\n      dup1\n      revert\n    tag_53:\n      pop\n      tag_22\n      tag_55\n      calldatasize\n      0x04\n      tag_33\n      jump\t// in\n    tag_55:\n      sub(shl(0xa0, 0x01), 0x01)\n        /* \"EthTesting.sol/storageChain.sol\":6351:6373  userInfo[_userAddress] */\n      and\n        /* \"EthTesting.sol/storageChain.sol\":6325:6332  uint256 */\n      0x00\n        /* \"EthTesting.sol/storageChain.sol\":6351:6373  userInfo[_userAddress] */\n      swap1\n      dup2\n      mstore\n        /* \"EthTesting.sol/storageChain.sol\":6351:6359  userInfo */\n      0x02\n        /* \"EthTesting.sol/storageChain.sol\":6351:6373  userInfo[_userAddress] */\n      0x20\n      mstore\n      0x40\n      swap1\n      keccak256\n        /* \"EthTesting.sol/storageChain.sol\":6351:6391  userInfo[_userAddress].totalStakedAmount */\n      0x01\n      add\n      sload\n      swap1\n        /* \"EthTesting.sol/storageChain.sol\":6253:6398  function totalStakedOfUser(address _userAddress) external view returns (uint256) {... */\n      jump\n        /* \"EthTesting.sol/storageChain.sol\":2974:3607  function addNode(string calldata _nodeId) external payable {... */\n    tag_11:\n      tag_19\n      tag_59\n      calldatasize\n      0x04\n      tag_60\n      jump\t// in\n    tag_59:\n      tag_61\n      jump\t// in\n        /* \"EthTesting.sol/storageChain.sol\":297:327  address public immutable owner */\n    tag_12:\n      callvalue\n      dup1\n      iszero\n      tag_62\n      jumpi\n      0x00\n      dup1\n      revert\n    tag_62:\n      pop\n      tag_63\n      immutable(\"0x277ab82e5a4641341820a4a2933a62c1de997e42e92548657ae21b3728d580fe\")\n      dup2\n      jump\n    tag_63:\n      mload(0x40)\n      sub(shl(0xa0, 0x01), 0x01)\n        /* \"#utility.yul\":5410:5442   */\n      swap1\n      swap2\n      and\n        /* \"#utility.yul\":5392:5443   */\n      dup2\n      mstore\n        /* \"#utility.yul\":5380:5382   */\n      0x20\n        /* \"#utility.yul\":5365:5383   */\n      add\n        /* \"EthTesting.sol/storageChain.sol\":297:327  address public immutable owner */\n      tag_24\n        /* \"#utility.yul\":5246:5449   */\n      jump\n        /* \"EthTesting.sol/storageChain.sol\":3766:4909  function deleteNode(string calldata _nodeId) external nonReentrant {... */\n    tag_13:\n      callvalue\n      dup1\n      iszero\n      tag_67\n      jumpi\n      0x00\n      dup1\n      revert\n    tag_67:\n      pop\n      tag_19\n      tag_69\n      calldatasize\n      0x04\n      tag_60\n      jump\t// in\n    tag_69:\n      tag_70\n      jump\t// in\n        /* \"EthTesting.sol/storageChain.sol\":4984:5152  function fillTreasury() external payable onlyOwner {... */\n    tag_20:\n        /* \"EthTesting.sol/storageChain.sol\":7369:7379  msg.sender */\n      caller\n      sub(shl(0xa0, 0x01), 0x01)\n        /* \"EthTesting.sol/storageChain.sol\":7383:7388  owner */\n      immutable(\"0x277ab82e5a4641341820a4a2933a62c1de997e42e92548657ae21b3728d580fe\")\n        /* \"EthTesting.sol/storageChain.sol\":7369:7388  msg.sender != owner */\n      and\n      eq\n        /* \"EthTesting.sol/storageChain.sol\":7365:7413  if (msg.sender != owner) revert OnlyOwnerError() */\n      tag_72\n      jumpi\n        /* \"EthTesting.sol/storageChain.sol\":7397:7413  OnlyOwnerError() */\n      mload(0x40)\n      shl(0xe0, 0x65b48373)\n      dup2\n      mstore\n      0x04\n      add\n      mload(0x40)\n      dup1\n      swap2\n      sub\n      swap1\n      revert\n        /* \"EthTesting.sol/storageChain.sol\":7365:7413  if (msg.sender != owner) revert OnlyOwnerError() */\n    tag_72:\n        /* \"EthTesting.sol/storageChain.sol\":5062:5063  0 */\n      0x00\n        /* \"EthTesting.sol/storageChain.sol\":5049:5058  msg.value */\n      callvalue\n        /* \"EthTesting.sol/storageChain.sol\":5049:5063  msg.value <= 0 */\n      gt\n        /* \"EthTesting.sol/storageChain.sol\":5046:5096  if(msg.value <= 0) revert invalidAmount(msg.value) */\n      tag_74\n      jumpi\n        /* \"EthTesting.sol/storageChain.sol\":5072:5096  invalidAmount(msg.value) */\n      mload(0x40)\n      shl(0xe0, 0x2aa1cd8d)\n      dup2\n      mstore\n        /* \"EthTesting.sol/storageChain.sol\":5086:5095  msg.value */\n      callvalue\n        /* \"EthTesting.sol/storageChain.sol\":5072:5096  invalidAmount(msg.value) */\n      0x04\n      dup3\n      add\n        /* \"#utility.yul\":160:185   */\n      mstore\n        /* \"#utility.yul\":133:151   */\n      0x24\n      add\n        /* \"EthTesting.sol/storageChain.sol\":5072:5096  invalidAmount(msg.value) */\n    tag_75:\n      mload(0x40)\n      dup1\n      swap2\n      sub\n      swap1\n      revert\n        /* \"EthTesting.sol/storageChain.sol\":5046:5096  if(msg.value <= 0) revert invalidAmount(msg.value) */\n    tag_74:\n        /* \"EthTesting.sol/storageChain.sol\":5111:5145  Transferred(msg.sender, msg.value) */\n      mload(0x40)\n        /* \"EthTesting.sol/storageChain.sol\":5135:5144  msg.value */\n      callvalue\n        /* \"#utility.yul\":160:185   */\n      dup2\n      mstore\n        /* \"EthTesting.sol/storageChain.sol\":5123:5133  msg.sender */\n      caller\n      swap1\n        /* \"EthTesting.sol/storageChain.sol\":5111:5145  Transferred(msg.sender, msg.value) */\n      0xe6d858f14d755446648a6e0c8ab8b5a0f58ccc7920d4c910b0454e4dcd869af0\n      swap1\n        /* \"#utility.yul\":148:150   */\n      0x20\n        /* \"#utility.yul\":133:151   */\n      add\n        /* \"EthTesting.sol/storageChain.sol\":5111:5145  Transferred(msg.sender, msg.value) */\n      mload(0x40)\n      dup1\n      swap2\n      sub\n      swap1\n      log2\n        /* \"EthTesting.sol/storageChain.sol\":4984:5152  function fillTreasury() external payable onlyOwner {... */\n      jump\t// out\n        /* \"EthTesting.sol/storageChain.sol\":1587:2836  function feedNodeRecord(... */\n    tag_29:\n        /* \"EthTesting.sol/storageChain.sol\":7369:7379  msg.sender */\n      caller\n      sub(shl(0xa0, 0x01), 0x01)\n        /* \"EthTesting.sol/storageChain.sol\":7383:7388  owner */\n      immutable(\"0x277ab82e5a4641341820a4a2933a62c1de997e42e92548657ae21b3728d580fe\")\n        /* \"EthTesting.sol/storageChain.sol\":7369:7388  msg.sender != owner */\n      and\n      eq\n        /* \"EthTesting.sol/storageChain.sol\":7365:7413  if (msg.sender != owner) revert OnlyOwnerError() */\n      tag_79\n      jumpi\n        /* \"EthTesting.sol/storageChain.sol\":7397:7413  OnlyOwnerError() */\n      mload(0x40)\n      shl(0xe0, 0x65b48373)\n      dup2\n      mstore\n      0x04\n      add\n      mload(0x40)\n      dup1\n      swap2\n      sub\n      swap1\n      revert\n        /* \"EthTesting.sol/storageChain.sol\":7365:7413  if (msg.sender != owner) revert OnlyOwnerError() */\n    tag_79:\n        /* \"EthTesting.sol/storageChain.sol\":1774:1800  _userAddresses.length <= 0 */\n      dup5\n        /* \"EthTesting.sol/storageChain.sol\":1771:1874  if(_userAddresses.length <= 0){... */\n      tag_81\n      jumpi\n        /* \"EthTesting.sol/storageChain.sol\":1822:1863  wrongAddressLength(_userAddresses.length) */\n      mload(0x40)\n      shl(0xe1, 0x1bd00007)\n      dup2\n      mstore\n      0x04\n      dup2\n      add\n        /* \"#utility.yul\":160:185   */\n      dup7\n      swap1\n      mstore\n        /* \"#utility.yul\":133:151   */\n      0x24\n      add\n        /* \"EthTesting.sol/storageChain.sol\":1822:1863  wrongAddressLength(_userAddresses.length) */\n      tag_75\n        /* \"#utility.yul\":14:191   */\n      jump\n        /* \"EthTesting.sol/storageChain.sol\":1771:1874  if(_userAddresses.length <= 0){... */\n    tag_81:\n        /* \"EthTesting.sol/storageChain.sol\":1886:1906  _nodeIds.length <= 0 */\n      dup3\n        /* \"EthTesting.sol/storageChain.sol\":1883:1970  if(_nodeIds.length <= 0){... */\n      tag_83\n      jumpi\n        /* \"EthTesting.sol/storageChain.sol\":1928:1959  wrongIdsLength(_nodeIds.length) */\n      mload(0x40)\n      shl(0xe2, 0x179450c9)\n      dup2\n      mstore\n      0x04\n      dup2\n      add\n        /* \"#utility.yul\":160:185   */\n      dup5\n      swap1\n      mstore\n        /* \"#utility.yul\":133:151   */\n      0x24\n      add\n        /* \"EthTesting.sol/storageChain.sol\":1928:1959  wrongIdsLength(_nodeIds.length) */\n      tag_75\n        /* \"#utility.yul\":14:191   */\n      jump\n        /* \"EthTesting.sol/storageChain.sol\":1883:1970  if(_nodeIds.length <= 0){... */\n    tag_83:\n        /* \"EthTesting.sol/storageChain.sol\":1982:2008  _stakedAmounts.length <= 0 */\n      dup1\n        /* \"EthTesting.sol/storageChain.sol\":1979:2082  if(_stakedAmounts.length <= 0){... */\n      tag_85\n      jumpi\n        /* \"EthTesting.sol/storageChain.sol\":2030:2071  wrongAmountsLength(_stakedAmounts.length) */\n      mload(0x40)\n      shl(0xe3, 0x178ca9eb)\n      dup2\n      mstore\n      0x04\n      dup2\n      add\n        /* \"#utility.yul\":160:185   */\n      dup3\n      swap1\n      mstore\n        /* \"#utility.yul\":133:151   */\n      0x24\n      add\n        /* \"EthTesting.sol/storageChain.sol\":2030:2071  wrongAmountsLength(_stakedAmounts.length) */\n      tag_75\n        /* \"#utility.yul\":14:191   */\n      jump\n        /* \"EthTesting.sol/storageChain.sol\":1979:2082  if(_stakedAmounts.length <= 0){... */\n    tag_85:\n        /* \"EthTesting.sol/storageChain.sol\":2095:2135  _userAddresses.length != _nodeIds.length */\n      dup5\n      dup4\n      eq\n      dup1\n      iszero\n      swap1\n        /* \"EthTesting.sol/storageChain.sol\":2095:2179  _userAddresses.length != _nodeIds.length && _nodeIds.length != _stakedAmounts.length */\n      tag_87\n      jumpi\n      pop\n        /* \"EthTesting.sol/storageChain.sol\":2139:2179  _nodeIds.length != _stakedAmounts.length */\n      dup3\n      dup2\n      eq\n      iszero\n        /* \"EthTesting.sol/storageChain.sol\":2095:2179  _userAddresses.length != _nodeIds.length && _nodeIds.length != _stakedAmounts.length */\n    tag_87:\n        /* \"EthTesting.sol/storageChain.sol\":2092:2288  if(_userAddresses.length != _nodeIds.length && _nodeIds.length != _stakedAmounts.length){... */\n      iszero\n      tag_88\n      jumpi\n        /* \"EthTesting.sol/storageChain.sol\":2201:2277  lengthDontMatch(_userAddresses.length,_nodeIds.length,_stakedAmounts.length) */\n      mload(0x40)\n      shl(0xe0, 0x3d2832f9)\n      dup2\n      mstore\n      0x04\n      dup2\n      add\n        /* \"#utility.yul\":5656:5681   */\n      dup7\n      swap1\n      mstore\n        /* \"#utility.yul\":5697:5715   */\n      0x24\n      dup2\n      add\n        /* \"#utility.yul\":5690:5724   */\n      dup5\n      swap1\n      mstore\n        /* \"#utility.yul\":5740:5758   */\n      0x44\n      dup2\n      add\n        /* \"#utility.yul\":5733:5767   */\n      dup3\n      swap1\n      mstore\n        /* \"#utility.yul\":5629:5647   */\n      0x64\n      add\n        /* \"EthTesting.sol/storageChain.sol\":2201:2277  lengthDontMatch(_userAddresses.length,_nodeIds.length,_stakedAmounts.length) */\n      tag_75\n        /* \"#utility.yul\":5454:5773   */\n      jump\n        /* \"EthTesting.sol/storageChain.sol\":2092:2288  if(_userAddresses.length != _nodeIds.length && _nodeIds.length != _stakedAmounts.length){... */\n    tag_88:\n        /* \"EthTesting.sol/storageChain.sol\":2310:2316  uint i */\n      0x00\n        /* \"EthTesting.sol/storageChain.sol\":2305:2753  for (uint i = 0; i < _userAddresses.length; i++) {... */\n    tag_91:\n        /* \"EthTesting.sol/storageChain.sol\":2322:2347  i < _userAddresses.length */\n      dup6\n      dup2\n      lt\n        /* \"EthTesting.sol/storageChain.sol\":2305:2753  for (uint i = 0; i < _userAddresses.length; i++) {... */\n      iszero\n      tag_92\n      jumpi\n        /* \"EthTesting.sol/storageChain.sol\":2402:2416  _stakedAmounts */\n      dup3\n      dup3\n        /* \"EthTesting.sol/storageChain.sol\":2417:2418  i */\n      dup3\n        /* \"EthTesting.sol/storageChain.sol\":2402:2419  _stakedAmounts[i] */\n      dup2\n      dup2\n      lt\n      tag_95\n      jumpi\n      tag_95\n      tag_96\n      jump\t// in\n    tag_95:\n      swap1\n      pop\n      0x20\n      mul\n      add\n      calldataload\n        /* \"EthTesting.sol/storageChain.sol\":2381:2398  totalStakedTokens */\n      0x01\n      0x00\n        /* \"EthTesting.sol/storageChain.sol\":2381:2419  totalStakedTokens += _stakedAmounts[i] */\n      dup3\n      dup3\n      sload\n      tag_97\n      swap2\n      swap1\n      tag_98\n      jump\t// in\n    tag_97:\n      swap1\n      swap2\n      sstore\n      pop\n        /* \"EthTesting.sol/storageChain.sol\":2446:2454  userInfo */\n      0x02\n      swap1\n      pop\n        /* \"EthTesting.sol/storageChain.sol\":2446:2473  userInfo[_userAddresses[i]] */\n      0x00\n        /* \"EthTesting.sol/storageChain.sol\":2455:2469  _userAddresses */\n      dup9\n      dup9\n        /* \"EthTesting.sol/storageChain.sol\":2470:2471  i */\n      dup5\n        /* \"EthTesting.sol/storageChain.sol\":2455:2472  _userAddresses[i] */\n      dup2\n      dup2\n      lt\n      tag_100\n      jumpi\n      tag_100\n      tag_96\n      jump\t// in\n    tag_100:\n      swap1\n      pop\n      0x20\n      mul\n      add\n      0x20\n      dup2\n      add\n      swap1\n      tag_101\n      swap2\n      swap1\n      tag_33\n      jump\t// in\n    tag_101:\n      sub(shl(0xa0, 0x01), 0x01)\n        /* \"EthTesting.sol/storageChain.sol\":2446:2473  userInfo[_userAddresses[i]] */\n      and\n      dup2\n      mstore\n      0x20\n      dup2\n      add\n      swap2\n      swap1\n      swap2\n      mstore\n      0x40\n      add\n      0x00\n      keccak256\n        /* \"EthTesting.sol/storageChain.sol\":2487:2495  _nodeIds */\n      dup6\n      dup6\n        /* \"EthTesting.sol/storageChain.sol\":2496:2497  i */\n      dup4\n        /* \"EthTesting.sol/storageChain.sol\":2487:2498  _nodeIds[i] */\n      dup2\n      dup2\n      lt\n      tag_103\n      jumpi\n      tag_103\n      tag_96\n      jump\t// in\n    tag_103:\n      swap1\n      pop\n      0x20\n      mul\n      dup2\n      add\n      swap1\n      tag_104\n      swap2\n      swap1\n      tag_105\n      jump\t// in\n    tag_104:\n        /* \"EthTesting.sol/storageChain.sol\":2446:2499  userInfo[_userAddresses[i]].nodeIds.push(_nodeIds[i]) */\n      dup3\n      sload\n      0x01\n      dup2\n      add\n      dup5\n      sstore\n      0x00\n      swap4\n      dup5\n      mstore\n      0x20\n      swap1\n      swap4\n      keccak256\n      swap1\n      swap3\n      add\n      swap2\n      tag_107\n      swap2\n      dup4\n      tag_108\n      jump\t// in\n    tag_107:\n      pop\n        /* \"EthTesting.sol/storageChain.sol\":2562:2576  _stakedAmounts */\n      dup3\n      dup3\n        /* \"EthTesting.sol/storageChain.sol\":2577:2578  i */\n      dup3\n        /* \"EthTesting.sol/storageChain.sol\":2562:2579  _stakedAmounts[i] */\n      dup2\n      dup2\n      lt\n      tag_110\n      jumpi\n      tag_110\n      tag_96\n      jump\t// in\n    tag_110:\n      swap1\n      pop\n      0x20\n      mul\n      add\n      calldataload\n        /* \"EthTesting.sol/storageChain.sol\":2513:2521  userInfo */\n      0x02\n        /* \"EthTesting.sol/storageChain.sol\":2513:2540  userInfo[_userAddresses[i]] */\n      0x00\n        /* \"EthTesting.sol/storageChain.sol\":2522:2536  _userAddresses */\n      dup10\n      dup10\n        /* \"EthTesting.sol/storageChain.sol\":2537:2538  i */\n      dup6\n        /* \"EthTesting.sol/storageChain.sol\":2522:2539  _userAddresses[i] */\n      dup2\n      dup2\n      lt\n      tag_112\n      jumpi\n      tag_112\n      tag_96\n      jump\t// in\n    tag_112:\n      swap1\n      pop\n      0x20\n      mul\n      add\n      0x20\n      dup2\n      add\n      swap1\n      tag_113\n      swap2\n      swap1\n      tag_33\n      jump\t// in\n    tag_113:\n      sub(shl(0xa0, 0x01), 0x01)\n        /* \"EthTesting.sol/storageChain.sol\":2513:2540  userInfo[_userAddresses[i]] */\n      and\n      sub(shl(0xa0, 0x01), 0x01)\n      and\n      dup2\n      mstore\n      0x20\n      add\n      swap1\n      dup2\n      mstore\n      0x20\n      add\n      0x00\n      keccak256\n        /* \"EthTesting.sol/storageChain.sol\":2513:2558  userInfo[_userAddresses[i]].totalStakedAmount */\n      0x01\n      add\n      0x00\n        /* \"EthTesting.sol/storageChain.sol\":2513:2579  userInfo[_userAddresses[i]].totalStakedAmount += _stakedAmounts[i] */\n      dup3\n      dup3\n      sload\n      tag_114\n      swap2\n      swap1\n      tag_98\n      jump\t// in\n    tag_114:\n      swap1\n      swap2\n      sstore\n      pop\n        /* \"EthTesting.sol/storageChain.sol\":2650:2664  _stakedAmounts */\n      dup4\n      swap1\n      pop\n      dup3\n        /* \"EthTesting.sol/storageChain.sol\":2665:2666  i */\n      dup3\n        /* \"EthTesting.sol/storageChain.sol\":2650:2667  _stakedAmounts[i] */\n      dup2\n      dup2\n      lt\n      tag_116\n      jumpi\n      tag_116\n      tag_96\n      jump\t// in\n    tag_116:\n      swap1\n      pop\n      0x20\n      mul\n      add\n      calldataload\n        /* \"EthTesting.sol/storageChain.sol\":2593:2602  stakeInfo */\n      0x03\n        /* \"EthTesting.sol/storageChain.sol\":2593:2621  stakeInfo[_userAddresses[i]] */\n      0x00\n        /* \"EthTesting.sol/storageChain.sol\":2603:2617  _userAddresses */\n      dup10\n      dup10\n        /* \"EthTesting.sol/storageChain.sol\":2618:2619  i */\n      dup6\n        /* \"EthTesting.sol/storageChain.sol\":2603:2620  _userAddresses[i] */\n      dup2\n      dup2\n      lt\n      tag_118\n      jumpi\n      tag_118\n      tag_96\n      jump\t// in\n    tag_118:\n      swap1\n      pop\n      0x20\n      mul\n      add\n      0x20\n      dup2\n      add\n      swap1\n      tag_119\n      swap2\n      swap1\n      tag_33\n      jump\t// in\n    tag_119:\n      sub(shl(0xa0, 0x01), 0x01)\n        /* \"EthTesting.sol/storageChain.sol\":2593:2621  stakeInfo[_userAddresses[i]] */\n      and\n      sub(shl(0xa0, 0x01), 0x01)\n      and\n      dup2\n      mstore\n      0x20\n      add\n      swap1\n      dup2\n      mstore\n      0x20\n      add\n      0x00\n      keccak256\n        /* \"EthTesting.sol/storageChain.sol\":2622:2630  _nodeIds */\n      dup7\n      dup7\n        /* \"EthTesting.sol/storageChain.sol\":2631:2632  i */\n      dup5\n        /* \"EthTesting.sol/storageChain.sol\":2622:2633  _nodeIds[i] */\n      dup2\n      dup2\n      lt\n      tag_121\n      jumpi\n      tag_121\n      tag_96\n      jump\t// in\n    tag_121:\n      swap1\n      pop\n      0x20\n      mul\n      dup2\n      add\n      swap1\n      tag_122\n      swap2\n      swap1\n      tag_105\n      jump\t// in\n    tag_122:\n        /* \"EthTesting.sol/storageChain.sol\":2593:2634  stakeInfo[_userAddresses[i]][_nodeIds[i]] */\n      mload(0x40)\n      tag_123\n      swap3\n      swap2\n      swap1\n      tag_124\n      jump\t// in\n    tag_123:\n      swap1\n      dup2\n      mstore\n      0x20\n      add\n      mload(0x40)\n      dup1\n      swap2\n      sub\n      swap1\n      keccak256\n        /* \"EthTesting.sol/storageChain.sol\":2593:2647  stakeInfo[_userAddresses[i]][_nodeIds[i]].stakedAmount */\n      0x01\n      add\n        /* \"EthTesting.sol/storageChain.sol\":2593:2667  stakeInfo[_userAddresses[i]][_nodeIds[i]].stakedAmount = _stakedAmounts[i] */\n      dup2\n      swap1\n      sstore\n      pop\n        /* \"EthTesting.sol/storageChain.sol\":2737:2741  true */\n      0x01\n        /* \"EthTesting.sol/storageChain.sol\":2681:2690  stakeInfo */\n      0x03\n        /* \"EthTesting.sol/storageChain.sol\":2681:2709  stakeInfo[_userAddresses[i]] */\n      0x00\n        /* \"EthTesting.sol/storageChain.sol\":2691:2705  _userAddresses */\n      dup10\n      dup10\n        /* \"EthTesting.sol/storageChain.sol\":2706:2707  i */\n      dup6\n        /* \"EthTesting.sol/storageChain.sol\":2691:2708  _userAddresses[i] */\n      dup2\n      dup2\n      lt\n      tag_126\n      jumpi\n      tag_126\n      tag_96\n      jump\t// in\n    tag_126:\n      swap1\n      pop\n      0x20\n      mul\n      add\n      0x20\n      dup2\n      add\n      swap1\n      tag_127\n      swap2\n      swap1\n      tag_33\n      jump\t// in\n    tag_127:\n      sub(shl(0xa0, 0x01), 0x01)\n        /* \"EthTesting.sol/storageChain.sol\":2681:2709  stakeInfo[_userAddresses[i]] */\n      and\n      sub(shl(0xa0, 0x01), 0x01)\n      and\n      dup2\n      mstore\n      0x20\n      add\n      swap1\n      dup2\n      mstore\n      0x20\n      add\n      0x00\n      keccak256\n        /* \"EthTesting.sol/storageChain.sol\":2710:2718  _nodeIds */\n      dup7\n      dup7\n        /* \"EthTesting.sol/storageChain.sol\":2719:2720  i */\n      dup5\n        /* \"EthTesting.sol/storageChain.sol\":2710:2721  _nodeIds[i] */\n      dup2\n      dup2\n      lt\n      tag_129\n      jumpi\n      tag_129\n      tag_96\n      jump\t// in\n    tag_129:\n      swap1\n      pop\n      0x20\n      mul\n      dup2\n      add\n      swap1\n      tag_130\n      swap2\n      swap1\n      tag_105\n      jump\t// in\n    tag_130:\n        /* \"EthTesting.sol/storageChain.sol\":2681:2722  stakeInfo[_userAddresses[i]][_nodeIds[i]] */\n      mload(0x40)\n      tag_131\n      swap3\n      swap2\n      swap1\n      tag_124\n      jump\t// in\n    tag_131:\n      swap1\n      dup2\n      mstore\n      mload(0x40)\n      swap1\n      dup2\n      swap1\n      sub\n      0x20\n      add\n      swap1\n      keccak256\n        /* \"EthTesting.sol/storageChain.sol\":2681:2741  stakeInfo[_userAddresses[i]][_nodeIds[i]].isNodeAlive = true */\n      dup1\n      sload\n      swap2\n      iszero\n      iszero\n      not(0xff)\n      swap1\n      swap3\n      and\n      swap2\n      swap1\n      swap2\n      or\n      swap1\n      sstore\n      0x01\n        /* \"EthTesting.sol/storageChain.sol\":2349:2352  i++ */\n      add\n        /* \"EthTesting.sol/storageChain.sol\":2305:2753  for (uint i = 0; i < _userAddresses.length; i++) {... */\n      jump(tag_91)\n    tag_92:\n      pop\n        /* \"EthTesting.sol/storageChain.sol\":2768:2829  StakeEvent(\"Node stake info updated\", address(0), 0, 0, true) */\n      0x40\n      dup1\n      mload\n        /* \"#utility.yul\":9689:9692   */\n      0x80\n        /* \"#utility.yul\":9671:9693   */\n      dup1\n      dup3\n      mstore\n        /* \"#utility.yul\":9730:9732   */\n      0x17\n        /* \"#utility.yul\":9709:9728   */\n      swap1\n      dup3\n      add\n        /* \"#utility.yul\":9702:9733   */\n      mstore\n        /* \"#utility.yul\":9770:9795   */\n      0x4e6f6465207374616b6520696e666f2075706461746564000000000000000000\n        /* \"#utility.yul\":9764:9767   */\n      0xa0\n        /* \"#utility.yul\":9749:9768   */\n      dup3\n      add\n        /* \"#utility.yul\":9742:9796   */\n      mstore\n        /* \"EthTesting.sol/storageChain.sol\":2814:2815  0 */\n      0x00\n        /* \"#utility.yul\":9863:9867   */\n      0x20\n        /* \"#utility.yul\":9848:9868   */\n      dup3\n      add\n        /* \"#utility.yul\":9841:9877   */\n      dup2\n      swap1\n      mstore\n        /* \"#utility.yul\":9893:9911   */\n      swap2\n      dup2\n      add\n        /* \"#utility.yul\":9886:9920   */\n      dup3\n      swap1\n      mstore\n        /* \"EthTesting.sol/storageChain.sol\":2824:2828  true */\n      0x01\n      0x60\n        /* \"#utility.yul\":9936:9954   */\n      dup3\n      add\n        /* \"#utility.yul\":9929:9979   */\n      mstore\n        /* \"EthTesting.sol/storageChain.sol\":2768:2829  StakeEvent(\"Node stake info updated\", address(0), 0, 0, true) */\n      0x5f0fdd6f33919218d99e95dadeb52206af20443cd68b7711230c6d19282e4e2b\n      swap1\n        /* \"#utility.yul\":9828:9831   */\n      0xc0\n        /* \"#utility.yul\":9813:9832   */\n      add\n        /* \"EthTesting.sol/storageChain.sol\":2768:2829  StakeEvent(\"Node stake info updated\", address(0), 0, 0, true) */\n      mload(0x40)\n      dup1\n      swap2\n      sub\n      swap1\n      log2\n        /* \"EthTesting.sol/storageChain.sol\":1587:2836  function feedNodeRecord(... */\n      pop\n      pop\n      pop\n      pop\n      pop\n      pop\n      jump\t// out\n        /* \"EthTesting.sol/storageChain.sol\":6594:6730  function getNodeIds(address _userAddress) external view returns (string[] memory) {... */\n    tag_34:\n      sub(shl(0xa0, 0x01), 0x01)\n        /* \"EthTesting.sol/storageChain.sol\":6693:6715  userInfo[_userAddress] */\n      dup2\n      and\n      0x00\n      swap1\n      dup2\n      mstore\n        /* \"EthTesting.sol/storageChain.sol\":6693:6701  userInfo */\n      0x02\n        /* \"EthTesting.sol/storageChain.sol\":6693:6715  userInfo[_userAddress] */\n      0x20\n      swap1\n      dup2\n      mstore\n      0x40\n      dup1\n      dup4\n      keccak256\n        /* \"EthTesting.sol/storageChain.sol\":6686:6723  return userInfo[_userAddress].nodeIds */\n      dup1\n      sload\n      dup3\n      mload\n      dup2\n      dup6\n      mul\n      dup2\n      add\n      dup6\n      add\n      swap1\n      swap4\n      mstore\n      dup1\n      dup4\n      mstore\n        /* \"EthTesting.sol/storageChain.sol\":6659:6674  string[] memory */\n      0x60\n      swap5\n        /* \"EthTesting.sol/storageChain.sol\":6686:6723  return userInfo[_userAddress].nodeIds */\n      swap3\n      swap4\n        /* \"EthTesting.sol/storageChain.sol\":6693:6715  userInfo[_userAddress] */\n      swap2\n      swap3\n        /* \"EthTesting.sol/storageChain.sol\":6686:6723  return userInfo[_userAddress].nodeIds */\n      swap1\n      swap2\n      dup5\n      add\n    tag_135:\n      dup3\n      dup3\n      lt\n      iszero\n      tag_136\n      jumpi\n      dup4\n      dup3\n      swap1\n      0x00\n      mstore\n      keccak256(0x00, 0x20)\n      add\n      dup1\n      sload\n      tag_138\n      swap1\n      tag_139\n      jump\t// in\n    tag_138:\n      dup1\n      0x1f\n      add\n      0x20\n      dup1\n      swap2\n      div\n      mul\n      0x20\n      add\n      mload(0x40)\n      swap1\n      dup2\n      add\n      0x40\n      mstore\n      dup1\n      swap3\n      swap2\n      swap1\n      dup2\n      dup2\n      mstore\n      0x20\n      add\n      dup3\n      dup1\n      sload\n      tag_140\n      swap1\n      tag_139\n      jump\t// in\n    tag_140:\n      dup1\n      iszero\n      tag_141\n      jumpi\n      dup1\n      0x1f\n      lt\n      tag_142\n      jumpi\n      0x0100\n      dup1\n      dup4\n      sload\n      div\n      mul\n      dup4\n      mstore\n      swap2\n      0x20\n      add\n      swap2\n      jump(tag_141)\n    tag_142:\n      dup3\n      add\n      swap2\n      swap1\n      0x00\n      mstore\n      keccak256(0x00, 0x20)\n      swap1\n    tag_143:\n      dup2\n      sload\n      dup2\n      mstore\n      swap1\n      0x01\n      add\n      swap1\n      0x20\n      add\n      dup1\n      dup4\n      gt\n      tag_143\n      jumpi\n      dup3\n      swap1\n      sub\n      0x1f\n      and\n      dup3\n      add\n      swap2\n    tag_141:\n      pop\n      pop\n      pop\n      pop\n      pop\n      dup2\n      mstore\n      0x20\n      add\n      swap1\n      0x01\n      add\n      swap1\n      jump(tag_135)\n    tag_136:\n      pop\n      pop\n      pop\n      pop\n      swap1\n      pop\n        /* \"EthTesting.sol/storageChain.sol\":6594:6730  function getNodeIds(address _userAddress) external view returns (string[] memory) {... */\n      swap2\n      swap1\n      pop\n      jump\t// out\n        /* \"EthTesting.sol/storageChain.sol\":6970:7146  function getStakeAmountOfNode(address _userAddress, string memory _nodeId) external view returns (uint256) {... */\n    tag_41:\n      sub(shl(0xa0, 0x01), 0x01)\n        /* \"EthTesting.sol/storageChain.sol\":7094:7117  stakeInfo[_userAddress] */\n      dup3\n      and\n        /* \"EthTesting.sol/storageChain.sol\":7068:7075  uint256 */\n      0x00\n        /* \"EthTesting.sol/storageChain.sol\":7094:7117  stakeInfo[_userAddress] */\n      swap1\n      dup2\n      mstore\n        /* \"EthTesting.sol/storageChain.sol\":7094:7103  stakeInfo */\n      0x03\n        /* \"EthTesting.sol/storageChain.sol\":7094:7117  stakeInfo[_userAddress] */\n      0x20\n      mstore\n      0x40\n      dup1\n      dup3\n      keccak256\n        /* \"EthTesting.sol/storageChain.sol\":7094:7126  stakeInfo[_userAddress][_nodeId] */\n      swap1\n      mload\n      tag_145\n      swap1\n        /* \"EthTesting.sol/storageChain.sol\":7118:7125  _nodeId */\n      dup5\n      swap1\n        /* \"EthTesting.sol/storageChain.sol\":7094:7126  stakeInfo[_userAddress][_nodeId] */\n      tag_146\n      jump\t// in\n    tag_145:\n      swap1\n      dup2\n      mstore\n      0x20\n      add\n      mload(0x40)\n      dup1\n      swap2\n      sub\n      swap1\n      keccak256\n        /* \"EthTesting.sol/storageChain.sol\":7094:7139  stakeInfo[_userAddress][_nodeId].stakedAmount */\n      0x01\n      add\n      sload\n        /* \"EthTesting.sol/storageChain.sol\":7087:7139  return stakeInfo[_userAddress][_nodeId].stakedAmount */\n      swap1\n      pop\n        /* \"EthTesting.sol/storageChain.sol\":6970:7146  function getStakeAmountOfNode(address _userAddress, string memory _nodeId) external view returns (uint256) {... */\n    tag_144:\n      swap3\n      swap2\n      pop\n      pop\n      jump\t// out\n        /* \"EthTesting.sol/storageChain.sol\":5523:5638  function totalStakedStorCoins() external view onlyOwner returns (uint256) {... */\n    tag_45:\n        /* \"EthTesting.sol/storageChain.sol\":5588:5595  uint256 */\n      0x00\n        /* \"EthTesting.sol/storageChain.sol\":7369:7379  msg.sender */\n      caller\n      sub(shl(0xa0, 0x01), 0x01)\n        /* \"EthTesting.sol/storageChain.sol\":7383:7388  owner */\n      immutable(\"0x277ab82e5a4641341820a4a2933a62c1de997e42e92548657ae21b3728d580fe\")\n        /* \"EthTesting.sol/storageChain.sol\":7369:7388  msg.sender != owner */\n      and\n      eq\n        /* \"EthTesting.sol/storageChain.sol\":7365:7413  if (msg.sender != owner) revert OnlyOwnerError() */\n      tag_148\n      jumpi\n        /* \"EthTesting.sol/storageChain.sol\":7397:7413  OnlyOwnerError() */\n      mload(0x40)\n      shl(0xe0, 0x65b48373)\n      dup2\n      mstore\n      0x04\n      add\n      mload(0x40)\n      dup1\n      swap2\n      sub\n      swap1\n      revert\n        /* \"EthTesting.sol/storageChain.sol\":7365:7413  if (msg.sender != owner) revert OnlyOwnerError() */\n    tag_148:\n      pop\n        /* \"EthTesting.sol/storageChain.sol\":5614:5631  totalStakedTokens */\n      sload(0x01)\n        /* \"EthTesting.sol/storageChain.sol\":5523:5638  function totalStakedStorCoins() external view onlyOwner returns (uint256) {... */\n      swap1\n      jump\t// out\n        /* \"EthTesting.sol/storageChain.sol\":5894:6066  function nodeExists(address _userAddress, string memory _nodeId) external view onlyOwner returns (bool) {... */\n    tag_50:\n        /* \"EthTesting.sol/storageChain.sol\":5992:5996  bool */\n      0x00\n        /* \"EthTesting.sol/storageChain.sol\":7369:7379  msg.sender */\n      caller\n      sub(shl(0xa0, 0x01), 0x01)\n        /* \"EthTesting.sol/storageChain.sol\":7383:7388  owner */\n      immutable(\"0x277ab82e5a4641341820a4a2933a62c1de997e42e92548657ae21b3728d580fe\")\n        /* \"EthTesting.sol/storageChain.sol\":7369:7388  msg.sender != owner */\n      and\n      eq\n        /* \"EthTesting.sol/storageChain.sol\":7365:7413  if (msg.sender != owner) revert OnlyOwnerError() */\n      tag_151\n      jumpi\n        /* \"EthTesting.sol/storageChain.sol\":7397:7413  OnlyOwnerError() */\n      mload(0x40)\n      shl(0xe0, 0x65b48373)\n      dup2\n      mstore\n      0x04\n      add\n      mload(0x40)\n      dup1\n      swap2\n      sub\n      swap1\n      revert\n        /* \"EthTesting.sol/storageChain.sol\":7365:7413  if (msg.sender != owner) revert OnlyOwnerError() */\n    tag_151:\n      sub(shl(0xa0, 0x01), 0x01)\n        /* \"EthTesting.sol/storageChain.sol\":6015:6038  stakeInfo[_userAddress] */\n      dup4\n      and\n      0x00\n      swap1\n      dup2\n      mstore\n        /* \"EthTesting.sol/storageChain.sol\":6015:6024  stakeInfo */\n      0x03\n        /* \"EthTesting.sol/storageChain.sol\":6015:6038  stakeInfo[_userAddress] */\n      0x20\n      mstore\n      0x40\n      swap1\n      dup2\n      swap1\n      keccak256\n        /* \"EthTesting.sol/storageChain.sol\":6015:6047  stakeInfo[_userAddress][_nodeId] */\n      swap1\n      mload\n      tag_153\n      swap1\n        /* \"EthTesting.sol/storageChain.sol\":6039:6046  _nodeId */\n      dup5\n      swap1\n        /* \"EthTesting.sol/storageChain.sol\":6015:6047  stakeInfo[_userAddress][_nodeId] */\n      tag_146\n      jump\t// in\n    tag_153:\n      swap1\n      dup2\n      mstore\n      mload(0x40)\n      swap1\n      dup2\n      swap1\n      sub\n      0x20\n      add\n      swap1\n      keccak256\n        /* \"EthTesting.sol/storageChain.sol\":6015:6059  stakeInfo[_userAddress][_nodeId].isNodeAlive */\n      sload\n      0xff\n      and\n      swap1\n      pop\n        /* \"EthTesting.sol/storageChain.sol\":5894:6066  function nodeExists(address _userAddress, string memory _nodeId) external view onlyOwner returns (bool) {... */\n      swap3\n      swap2\n      pop\n      pop\n      jump\t// out\n        /* \"EthTesting.sol/storageChain.sol\":2974:3607  function addNode(string calldata _nodeId) external payable {... */\n    tag_61:\n        /* \"EthTesting.sol/storageChain.sol\":3068:3074  50 wei */\n      0x32\n        /* \"EthTesting.sol/storageChain.sol\":3055:3064  msg.value */\n      callvalue\n        /* \"EthTesting.sol/storageChain.sol\":3055:3074  msg.value <= 50 wei */\n      gt\n        /* \"EthTesting.sol/storageChain.sol\":3052:3128  if(msg.value <= 50 wei){... */\n      tag_156\n      jumpi\n        /* \"EthTesting.sol/storageChain.sol\":3096:3117  invalidFee(msg.value) */\n      mload(0x40)\n      shl(0xe0, 0x85d649f7)\n      dup2\n      mstore\n        /* \"EthTesting.sol/storageChain.sol\":3107:3116  msg.value */\n      callvalue\n        /* \"EthTesting.sol/storageChain.sol\":3096:3117  invalidFee(msg.value) */\n      0x04\n      dup3\n      add\n        /* \"#utility.yul\":160:185   */\n      mstore\n        /* \"#utility.yul\":133:151   */\n      0x24\n      add\n        /* \"EthTesting.sol/storageChain.sol\":3096:3117  invalidFee(msg.value) */\n      tag_75\n        /* \"#utility.yul\":14:191   */\n      jump\n        /* \"EthTesting.sol/storageChain.sol\":3052:3128  if(msg.value <= 50 wei){... */\n    tag_156:\n        /* \"EthTesting.sol/storageChain.sol\":3167:3176  msg.value */\n      callvalue\n        /* \"EthTesting.sol/storageChain.sol\":3146:3163  totalStakedTokens */\n      0x01\n      0x00\n        /* \"EthTesting.sol/storageChain.sol\":3146:3176  totalStakedTokens += msg.value */\n      dup3\n      dup3\n      sload\n      tag_158\n      swap2\n      swap1\n      tag_98\n      jump\t// in\n    tag_158:\n      swap1\n      swap2\n      sstore\n      pop\n      pop\n        /* \"EthTesting.sol/storageChain.sol\":3196:3206  msg.sender */\n      caller\n        /* \"EthTesting.sol/storageChain.sol\":3187:3207  userInfo[msg.sender] */\n      0x00\n      swap1\n      dup2\n      mstore\n        /* \"EthTesting.sol/storageChain.sol\":3187:3195  userInfo */\n      0x02\n        /* \"EthTesting.sol/storageChain.sol\":3187:3207  userInfo[msg.sender] */\n      0x20\n      swap1\n      dup2\n      mstore\n      0x40\n      dup3\n      keccak256\n        /* \"EthTesting.sol/storageChain.sol\":3187:3229  userInfo[msg.sender].nodeIds.push(_nodeId) */\n      dup1\n      sload\n      0x01\n      dup2\n      add\n      dup3\n      sstore\n      swap1\n      dup4\n      mstore\n      swap2\n      keccak256\n      add\n      tag_160\n        /* \"EthTesting.sol/storageChain.sol\":3221:3228  _nodeId */\n      dup3\n      dup5\n        /* \"EthTesting.sol/storageChain.sol\":3187:3229  userInfo[msg.sender].nodeIds.push(_nodeId) */\n      dup4\n      tag_108\n      jump\t// in\n    tag_160:\n      pop\n        /* \"EthTesting.sol/storageChain.sol\":3248:3258  msg.sender */\n      caller\n        /* \"EthTesting.sol/storageChain.sol\":3239:3259  userInfo[msg.sender] */\n      0x00\n      swap1\n      dup2\n      mstore\n        /* \"EthTesting.sol/storageChain.sol\":3239:3247  userInfo */\n      0x02\n        /* \"EthTesting.sol/storageChain.sol\":3239:3259  userInfo[msg.sender] */\n      0x20\n      mstore\n      0x40\n      dup2\n      keccak256\n        /* \"EthTesting.sol/storageChain.sol\":3239:3277  userInfo[msg.sender].totalStakedAmount */\n      0x01\n      add\n        /* \"EthTesting.sol/storageChain.sol\":3239:3290  userInfo[msg.sender].totalStakedAmount += msg.value */\n      dup1\n      sload\n        /* \"EthTesting.sol/storageChain.sol\":3281:3290  msg.value */\n      callvalue\n      swap3\n        /* \"EthTesting.sol/storageChain.sol\":3239:3259  userInfo[msg.sender] */\n      swap1\n        /* \"EthTesting.sol/storageChain.sol\":3239:3290  userInfo[msg.sender].totalStakedAmount += msg.value */\n      tag_161\n      swap1\n        /* \"EthTesting.sol/storageChain.sol\":3281:3290  msg.value */\n      dup5\n      swap1\n        /* \"EthTesting.sol/storageChain.sol\":3239:3290  userInfo[msg.sender].totalStakedAmount += msg.value */\n      tag_98\n      jump\t// in\n    tag_161:\n      swap1\n      swap2\n      sstore\n      pop\n      pop\n        /* \"EthTesting.sol/storageChain.sol\":3319:3329  msg.sender */\n      caller\n        /* \"EthTesting.sol/storageChain.sol\":3309:3330  stakeInfo[msg.sender] */\n      0x00\n      swap1\n      dup2\n      mstore\n        /* \"EthTesting.sol/storageChain.sol\":3309:3318  stakeInfo */\n      0x03\n        /* \"EthTesting.sol/storageChain.sol\":3309:3330  stakeInfo[msg.sender] */\n      0x20\n      mstore\n      0x40\n      swap1\n      dup2\n      swap1\n      keccak256\n        /* \"EthTesting.sol/storageChain.sol\":3309:3339  stakeInfo[msg.sender][_nodeId] */\n      swap1\n      mload\n        /* \"EthTesting.sol/storageChain.sol\":3354:3358  true */\n      0x01\n      swap2\n        /* \"EthTesting.sol/storageChain.sol\":3309:3330  stakeInfo[msg.sender] */\n      swap1\n        /* \"EthTesting.sol/storageChain.sol\":3309:3339  stakeInfo[msg.sender][_nodeId] */\n      tag_162\n      swap1\n        /* \"EthTesting.sol/storageChain.sol\":3331:3338  _nodeId */\n      dup6\n      swap1\n      dup6\n      swap1\n        /* \"EthTesting.sol/storageChain.sol\":3309:3339  stakeInfo[msg.sender][_nodeId] */\n      tag_124\n      jump\t// in\n    tag_162:\n      swap1\n      dup2\n      mstore\n      0x40\n      dup1\n      mload\n      0x20\n      swap3\n      dup2\n      swap1\n      sub\n      dup4\n      add\n      dup2\n      keccak256\n        /* \"EthTesting.sol/storageChain.sol\":3309:3358  stakeInfo[msg.sender][_nodeId].isNodeAlive = true */\n      dup1\n      sload\n      not(0xff)\n      and\n      swap5\n      iszero\n      iszero\n      swap5\n      swap1\n      swap5\n      or\n      swap1\n      swap4\n      sstore\n        /* \"EthTesting.sol/storageChain.sol\":3378:3388  msg.sender */\n      caller\n      0x00\n        /* \"EthTesting.sol/storageChain.sol\":3368:3389  stakeInfo[msg.sender] */\n      swap1\n      dup2\n      mstore\n        /* \"EthTesting.sol/storageChain.sol\":3368:3377  stakeInfo */\n      0x03\n        /* \"EthTesting.sol/storageChain.sol\":3368:3389  stakeInfo[msg.sender] */\n      swap1\n      swap3\n      mstore\n      swap1\n      keccak256\n        /* \"EthTesting.sol/storageChain.sol\":3414:3423  msg.value */\n      callvalue\n      swap2\n        /* \"EthTesting.sol/storageChain.sol\":3368:3398  stakeInfo[msg.sender][_nodeId] */\n      tag_163\n      swap1\n        /* \"EthTesting.sol/storageChain.sol\":3390:3397  _nodeId */\n      dup6\n      swap1\n      dup6\n      swap1\n        /* \"EthTesting.sol/storageChain.sol\":3368:3398  stakeInfo[msg.sender][_nodeId] */\n      tag_124\n      jump\t// in\n    tag_163:\n      swap1\n      dup2\n      mstore\n      0x40\n      dup1\n      mload\n      swap2\n      dup3\n      swap1\n      sub\n      0x20\n      swap1\n      dup2\n      add\n      dup4\n      keccak256\n        /* \"EthTesting.sol/storageChain.sol\":3368:3411  stakeInfo[msg.sender][_nodeId].stakedAmount */\n      0x01\n      swap1\n      dup2\n      add\n        /* \"EthTesting.sol/storageChain.sol\":3368:3423  stakeInfo[msg.sender][_nodeId].stakedAmount = msg.value */\n      swap5\n      swap1\n      swap5\n      sstore\n        /* \"EthTesting.sol/storageChain.sol\":3485:3495  msg.sender */\n      caller\n        /* \"EthTesting.sol/storageChain.sol\":3534:3554  userInfo[msg.sender] */\n      0x00\n      dup2\n      dup2\n      mstore\n        /* \"EthTesting.sol/storageChain.sol\":3534:3542  userInfo */\n      0x02\n        /* \"EthTesting.sol/storageChain.sol\":3534:3554  userInfo[msg.sender] */\n      swap1\n      swap3\n      mstore\n      swap2\n      swap1\n      keccak256\n        /* \"EthTesting.sol/storageChain.sol\":3534:3572  userInfo[msg.sender].totalStakedAmount */\n      dup4\n      add\n      sload\n        /* \"EthTesting.sol/storageChain.sol\":3485:3495  msg.sender */\n      swap1\n      swap3\n        /* \"EthTesting.sol/storageChain.sol\":3439:3600  StakeEvent(... */\n      0x5f0fdd6f33919218d99e95dadeb52206af20443cd68b7711230c6d19282e4e2b\n      swap3\n      tag_164\n      swap3\n        /* \"EthTesting.sol/storageChain.sol\":3463:3470  _nodeId */\n      dup8\n      swap3\n      dup8\n      swap3\n        /* \"EthTesting.sol/storageChain.sol\":3510:3519  msg.value */\n      callvalue\n      swap3\n        /* \"EthTesting.sol/storageChain.sol\":3534:3572  userInfo[msg.sender].totalStakedAmount */\n      swap2\n        /* \"EthTesting.sol/storageChain.sol\":3368:3411  stakeInfo[msg.sender][_nodeId].stakedAmount */\n      swap1\n        /* \"EthTesting.sol/storageChain.sol\":3439:3600  StakeEvent(... */\n      tag_165\n      jump\t// in\n    tag_164:\n      mload(0x40)\n      dup1\n      swap2\n      sub\n      swap1\n      log2\n        /* \"EthTesting.sol/storageChain.sol\":2974:3607  function addNode(string calldata _nodeId) external payable {... */\n      pop\n      pop\n      jump\t// out\n        /* \"EthTesting.sol/storageChain.sol\":3766:4909  function deleteNode(string calldata _nodeId) external nonReentrant {... */\n    tag_70:\n        /* \"EthTesting.sol/storageChain.sol\":7475:7481  locked */\n      and(0xff, sload(0x00))\n        /* \"EthTesting.sol/storageChain.sol\":7471:7507  if (locked) revert ReentrancyError() */\n      iszero\n      tag_167\n      jumpi\n        /* \"EthTesting.sol/storageChain.sol\":7490:7507  ReentrancyError() */\n      mload(0x40)\n      shl(0xe0, 0x29f745a7)\n      dup2\n      mstore\n      0x04\n      add\n      mload(0x40)\n      dup1\n      swap2\n      sub\n      swap1\n      revert\n        /* \"EthTesting.sol/storageChain.sol\":7471:7507  if (locked) revert ReentrancyError() */\n    tag_167:\n        /* \"EthTesting.sol/storageChain.sol\":7517:7523  locked */\n      0x00\n        /* \"EthTesting.sol/storageChain.sol\":7517:7530  locked = true */\n      dup1\n      sload\n      not(0xff)\n      and\n        /* \"EthTesting.sol/storageChain.sol\":7526:7530  true */\n      0x01\n        /* \"EthTesting.sol/storageChain.sol\":7517:7530  locked = true */\n      or\n      dup2\n      sstore\n        /* \"EthTesting.sol/storageChain.sol\":3867:3877  msg.sender */\n      caller\n        /* \"EthTesting.sol/storageChain.sol\":3857:3878  stakeInfo[msg.sender] */\n      dup2\n      mstore\n        /* \"EthTesting.sol/storageChain.sol\":3857:3866  stakeInfo */\n      0x03\n        /* \"EthTesting.sol/storageChain.sol\":3857:3878  stakeInfo[msg.sender] */\n      0x20\n      mstore\n      0x40\n      swap1\n      dup2\n      swap1\n      keccak256\n        /* \"EthTesting.sol/storageChain.sol\":3857:3887  stakeInfo[msg.sender][_nodeId] */\n      swap1\n      mload\n      tag_169\n      swap1\n        /* \"EthTesting.sol/storageChain.sol\":3879:3886  _nodeId */\n      dup5\n      swap1\n      dup5\n      swap1\n        /* \"EthTesting.sol/storageChain.sol\":3857:3887  stakeInfo[msg.sender][_nodeId] */\n      tag_124\n      jump\t// in\n    tag_169:\n      swap1\n      dup2\n      mstore\n      mload(0x40)\n      swap1\n      dup2\n      swap1\n      sub\n      0x20\n      add\n      swap1\n      keccak256\n        /* \"EthTesting.sol/storageChain.sol\":3857:3899  stakeInfo[msg.sender][_nodeId].isNodeAlive */\n      sload\n      0xff\n      and\n        /* \"EthTesting.sol/storageChain.sol\":3853:3988  if(!stakeInfo[msg.sender][_nodeId].isNodeAlive){... */\n      tag_170\n      jumpi\n        /* \"EthTesting.sol/storageChain.sol\":3944:3954  msg.sender */\n      caller\n        /* \"EthTesting.sol/storageChain.sol\":3934:3955  stakeInfo[msg.sender] */\n      0x00\n      swap1\n      dup2\n      mstore\n        /* \"EthTesting.sol/storageChain.sol\":3934:3943  stakeInfo */\n      0x03\n        /* \"EthTesting.sol/storageChain.sol\":3934:3955  stakeInfo[msg.sender] */\n      0x20\n      mstore\n      0x40\n      swap1\n      dup2\n      swap1\n      keccak256\n        /* \"EthTesting.sol/storageChain.sol\":3934:3964  stakeInfo[msg.sender][_nodeId] */\n      swap1\n      mload\n      tag_171\n      swap1\n        /* \"EthTesting.sol/storageChain.sol\":3956:3963  _nodeId */\n      dup5\n      swap1\n      dup5\n      swap1\n        /* \"EthTesting.sol/storageChain.sol\":3934:3964  stakeInfo[msg.sender][_nodeId] */\n      tag_124\n      jump\t// in\n    tag_171:\n      swap1\n      dup2\n      mstore\n      mload(0x40)\n      swap1\n      dup2\n      swap1\n      sub\n      0x20\n      add\n      dup2\n      keccak256\n        /* \"EthTesting.sol/storageChain.sol\":3934:3976  stakeInfo[msg.sender][_nodeId].isNodeAlive */\n      sload\n      shl(0xe1, 0x19e6e2c1)\n        /* \"EthTesting.sol/storageChain.sol\":3921:3977  nodeNotExist(stakeInfo[msg.sender][_nodeId].isNodeAlive) */\n      dup3\n      mstore\n        /* \"EthTesting.sol/storageChain.sol\":3934:3976  stakeInfo[msg.sender][_nodeId].isNodeAlive */\n      0xff\n      and\n        /* \"#utility.yul\":4627:4641   */\n      iszero\n        /* \"#utility.yul\":4620:4642   */\n      iszero\n        /* \"EthTesting.sol/storageChain.sol\":3921:3977  nodeNotExist(stakeInfo[msg.sender][_nodeId].isNodeAlive) */\n      0x04\n      dup3\n      add\n        /* \"#utility.yul\":4602:4643   */\n      mstore\n        /* \"#utility.yul\":4575:4593   */\n      0x24\n      add\n        /* \"EthTesting.sol/storageChain.sol\":3921:3977  nodeNotExist(stakeInfo[msg.sender][_nodeId].isNodeAlive) */\n      tag_75\n        /* \"#utility.yul\":4462:4649   */\n      jump\n        /* \"EthTesting.sol/storageChain.sol\":3853:3988  if(!stakeInfo[msg.sender][_nodeId].isNodeAlive){... */\n    tag_170:\n        /* \"EthTesting.sol/storageChain.sol\":4035:4045  msg.sender */\n      caller\n        /* \"EthTesting.sol/storageChain.sol\":4025:4046  stakeInfo[msg.sender] */\n      0x00\n      swap1\n      dup2\n      mstore\n        /* \"EthTesting.sol/storageChain.sol\":4025:4034  stakeInfo */\n      0x03\n        /* \"EthTesting.sol/storageChain.sol\":4025:4046  stakeInfo[msg.sender] */\n      0x20\n      mstore\n      0x40\n      swap1\n      dup2\n      swap1\n      keccak256\n        /* \"EthTesting.sol/storageChain.sol\":4025:4055  stakeInfo[msg.sender][_nodeId] */\n      swap1\n      mload\n      tag_173\n      swap1\n        /* \"EthTesting.sol/storageChain.sol\":4047:4054  _nodeId */\n      dup5\n      swap1\n      dup5\n      swap1\n        /* \"EthTesting.sol/storageChain.sol\":4025:4055  stakeInfo[msg.sender][_nodeId] */\n      tag_124\n      jump\t// in\n    tag_173:\n      swap1\n      dup2\n      mstore\n      0x20\n      add\n      mload(0x40)\n      dup1\n      swap2\n      sub\n      swap1\n      keccak256\n        /* \"EthTesting.sol/storageChain.sol\":4025:4068  stakeInfo[msg.sender][_nodeId].stakedAmount */\n      0x01\n      add\n      sload\n        /* \"EthTesting.sol/storageChain.sol\":4001:4022  address(this).balance */\n      selfbalance\n        /* \"EthTesting.sol/storageChain.sol\":4001:4068  address(this).balance < stakeInfo[msg.sender][_nodeId].stakedAmount */\n      lt\n        /* \"EthTesting.sol/storageChain.sol\":3998:4148  if(address(this).balance < stakeInfo[msg.sender][_nodeId].stakedAmount){... */\n      iszero\n      tag_174\n      jumpi\n        /* \"EthTesting.sol/storageChain.sol\":4090:4137  insuficentTrasuryBalance(address(this).balance) */\n      mload(0x40)\n      shl(0xe0, 0x3e4673d1)\n      dup2\n      mstore\n        /* \"EthTesting.sol/storageChain.sol\":4115:4136  address(this).balance */\n      selfbalance\n        /* \"EthTesting.sol/storageChain.sol\":4090:4137  insuficentTrasuryBalance(address(this).balance) */\n      0x04\n      dup3\n      add\n        /* \"#utility.yul\":160:185   */\n      mstore\n        /* \"#utility.yul\":133:151   */\n      0x24\n      add\n        /* \"EthTesting.sol/storageChain.sol\":4090:4137  insuficentTrasuryBalance(address(this).balance) */\n      tag_75\n        /* \"#utility.yul\":14:191   */\n      jump\n        /* \"EthTesting.sol/storageChain.sol\":3998:4148  if(address(this).balance < stakeInfo[msg.sender][_nodeId].stakedAmount){... */\n    tag_174:\n        /* \"EthTesting.sol/storageChain.sol\":4227:4237  msg.sender */\n      caller\n        /* \"EthTesting.sol/storageChain.sol\":4217:4238  stakeInfo[msg.sender] */\n      0x00\n      swap1\n      dup2\n      mstore\n        /* \"EthTesting.sol/storageChain.sol\":4217:4226  stakeInfo */\n      0x03\n        /* \"EthTesting.sol/storageChain.sol\":4217:4238  stakeInfo[msg.sender] */\n      0x20\n      mstore\n      0x40\n      swap1\n      dup2\n      swap1\n      keccak256\n        /* \"EthTesting.sol/storageChain.sol\":4217:4247  stakeInfo[msg.sender][_nodeId] */\n      swap1\n      mload\n      tag_176\n      swap1\n        /* \"EthTesting.sol/storageChain.sol\":4239:4246  _nodeId */\n      dup5\n      swap1\n      dup5\n      swap1\n        /* \"EthTesting.sol/storageChain.sol\":4217:4247  stakeInfo[msg.sender][_nodeId] */\n      tag_124\n      jump\t// in\n    tag_176:\n      swap1\n      dup2\n      mstore\n      0x20\n      add\n      mload(0x40)\n      dup1\n      swap2\n      sub\n      swap1\n      keccak256\n        /* \"EthTesting.sol/storageChain.sol\":4217:4260  stakeInfo[msg.sender][_nodeId].stakedAmount */\n      0x01\n      add\n      sload\n        /* \"EthTesting.sol/storageChain.sol\":4175:4183  userInfo */\n      0x02\n        /* \"EthTesting.sol/storageChain.sol\":4175:4195  userInfo[msg.sender] */\n      0x00\n        /* \"EthTesting.sol/storageChain.sol\":4184:4194  msg.sender */\n      caller\n      sub(shl(0xa0, 0x01), 0x01)\n        /* \"EthTesting.sol/storageChain.sol\":4175:4195  userInfo[msg.sender] */\n      and\n      sub(shl(0xa0, 0x01), 0x01)\n      and\n      dup2\n      mstore\n      0x20\n      add\n      swap1\n      dup2\n      mstore\n      0x20\n      add\n      0x00\n      keccak256\n        /* \"EthTesting.sol/storageChain.sol\":4175:4213  userInfo[msg.sender].totalStakedAmount */\n      0x01\n      add\n      0x00\n        /* \"EthTesting.sol/storageChain.sol\":4175:4260  userInfo[msg.sender].totalStakedAmount -= stakeInfo[msg.sender][_nodeId].stakedAmount */\n      dup3\n      dup3\n      sload\n      tag_177\n      swap2\n      swap1\n      tag_178\n      jump\t// in\n    tag_177:\n      swap1\n      swap2\n      sstore\n      pop\n      pop\n        /* \"EthTesting.sol/storageChain.sol\":4301:4311  msg.sender */\n      caller\n        /* \"EthTesting.sol/storageChain.sol\":4291:4312  stakeInfo[msg.sender] */\n      0x00\n      swap1\n      dup2\n      mstore\n        /* \"EthTesting.sol/storageChain.sol\":4291:4300  stakeInfo */\n      0x03\n        /* \"EthTesting.sol/storageChain.sol\":4291:4312  stakeInfo[msg.sender] */\n      0x20\n      mstore\n      0x40\n      swap1\n      dup2\n      swap1\n      keccak256\n        /* \"EthTesting.sol/storageChain.sol\":4291:4321  stakeInfo[msg.sender][_nodeId] */\n      swap1\n      mload\n      tag_179\n      swap1\n        /* \"EthTesting.sol/storageChain.sol\":4313:4320  _nodeId */\n      dup5\n      swap1\n      dup5\n      swap1\n        /* \"EthTesting.sol/storageChain.sol\":4291:4321  stakeInfo[msg.sender][_nodeId] */\n      tag_124\n      jump\t// in\n    tag_179:\n      swap1\n      dup2\n      mstore\n      0x20\n      add\n      mload(0x40)\n      dup1\n      swap2\n      sub\n      swap1\n      keccak256\n        /* \"EthTesting.sol/storageChain.sol\":4291:4334  stakeInfo[msg.sender][_nodeId].stakedAmount */\n      0x01\n      add\n      sload\n        /* \"EthTesting.sol/storageChain.sol\":4270:4287  totalStakedTokens */\n      0x01\n      0x00\n        /* \"EthTesting.sol/storageChain.sol\":4270:4334  totalStakedTokens -= stakeInfo[msg.sender][_nodeId].stakedAmount */\n      dup3\n      dup3\n      sload\n      tag_180\n      swap2\n      swap1\n      tag_178\n      jump\t// in\n    tag_180:\n      swap1\n      swap2\n      sstore\n      pop\n      pop\n        /* \"EthTesting.sol/storageChain.sol\":4355:4365  msg.sender */\n      caller\n        /* \"EthTesting.sol/storageChain.sol\":4390:4395  false */\n      0x00\n        /* \"EthTesting.sol/storageChain.sol\":4345:4366  stakeInfo[msg.sender] */\n      swap1\n      dup2\n      mstore\n        /* \"EthTesting.sol/storageChain.sol\":4345:4354  stakeInfo */\n      0x03\n        /* \"EthTesting.sol/storageChain.sol\":4345:4366  stakeInfo[msg.sender] */\n      0x20\n      mstore\n      0x40\n      dup1\n      dup3\n      keccak256\n        /* \"EthTesting.sol/storageChain.sol\":4345:4375  stakeInfo[msg.sender][_nodeId] */\n      swap1\n      mload\n      tag_181\n      swap1\n        /* \"EthTesting.sol/storageChain.sol\":4367:4374  _nodeId */\n      dup6\n      swap1\n      dup6\n      swap1\n        /* \"EthTesting.sol/storageChain.sol\":4345:4375  stakeInfo[msg.sender][_nodeId] */\n      tag_124\n      jump\t// in\n    tag_181:\n      swap1\n      dup2\n      mstore\n      0x40\n      dup1\n      mload\n      0x20\n      swap3\n      dup2\n      swap1\n      sub\n      dup4\n      add\n      dup2\n      keccak256\n        /* \"EthTesting.sol/storageChain.sol\":4345:4395  stakeInfo[msg.sender][_nodeId].isNodeAlive = false */\n      dup1\n      sload\n      not(0xff)\n      and\n      swap5\n      iszero\n      iszero\n      swap5\n      swap1\n      swap5\n      or\n      swap1\n      swap4\n      sstore\n        /* \"EthTesting.sol/storageChain.sol\":4415:4425  msg.sender */\n      caller\n      0x00\n        /* \"EthTesting.sol/storageChain.sol\":4405:4426  stakeInfo[msg.sender] */\n      swap1\n      dup2\n      mstore\n        /* \"EthTesting.sol/storageChain.sol\":4405:4414  stakeInfo */\n      0x03\n        /* \"EthTesting.sol/storageChain.sol\":4405:4426  stakeInfo[msg.sender] */\n      swap1\n      swap3\n      mstore\n      dup2\n      keccak256\n      swap1\n      swap2\n        /* \"EthTesting.sol/storageChain.sol\":4405:4435  stakeInfo[msg.sender][_nodeId] */\n      tag_182\n      swap1\n        /* \"EthTesting.sol/storageChain.sol\":4427:4434  _nodeId */\n      dup6\n      swap1\n      dup6\n      swap1\n        /* \"EthTesting.sol/storageChain.sol\":4405:4435  stakeInfo[msg.sender][_nodeId] */\n      tag_124\n      jump\t// in\n    tag_182:\n      swap1\n      dup2\n      mstore\n      0x40\n      dup1\n      mload\n      swap2\n      dup3\n      swap1\n      sub\n      0x20\n      swap1\n      dup2\n      add\n      dup4\n      keccak256\n        /* \"EthTesting.sol/storageChain.sol\":4405:4448  stakeInfo[msg.sender][_nodeId].stakedAmount */\n      0x01\n      add\n        /* \"EthTesting.sol/storageChain.sol\":4405:4452  stakeInfo[msg.sender][_nodeId].stakedAmount = 0 */\n      swap4\n      swap1\n      swap4\n      sstore\n        /* \"EthTesting.sol/storageChain.sol\":4504:4514  msg.sender */\n      caller\n        /* \"EthTesting.sol/storageChain.sol\":4478:4490  bool success */\n      0x00\n        /* \"EthTesting.sol/storageChain.sol\":4528:4549  stakeInfo[msg.sender] */\n      dup2\n      dup2\n      mstore\n        /* \"EthTesting.sol/storageChain.sol\":4528:4537  stakeInfo */\n      0x03\n        /* \"EthTesting.sol/storageChain.sol\":4528:4549  stakeInfo[msg.sender] */\n      swap1\n      swap5\n      mstore\n      swap1\n      dup4\n      keccak256\n        /* \"EthTesting.sol/storageChain.sol\":4504:4514  msg.sender */\n      swap1\n      swap2\n        /* \"EthTesting.sol/storageChain.sol\":4528:4558  stakeInfo[msg.sender][_nodeId] */\n      tag_183\n      swap1\n        /* \"EthTesting.sol/storageChain.sol\":4550:4557  _nodeId */\n      dup7\n      swap1\n      dup7\n      swap1\n        /* \"EthTesting.sol/storageChain.sol\":4528:4558  stakeInfo[msg.sender][_nodeId] */\n      tag_124\n      jump\t// in\n    tag_183:\n      swap1\n      dup2\n      mstore\n      mload(0x40)\n      swap1\n      dup2\n      swap1\n      sub\n      0x20\n      add\n      dup2\n      keccak256\n        /* \"EthTesting.sol/storageChain.sol\":4528:4571  stakeInfo[msg.sender][_nodeId].stakedAmount */\n      0x01\n      add\n      sload\n      swap1\n        /* \"EthTesting.sol/storageChain.sol\":4496:4576  payable(msg.sender).call{value: stakeInfo[msg.sender][_nodeId].stakedAmount}(\"\") */\n      0x00\n        /* \"EthTesting.sol/storageChain.sol\":4528:4558  stakeInfo[msg.sender][_nodeId] */\n      dup2\n        /* \"EthTesting.sol/storageChain.sol\":4496:4576  payable(msg.sender).call{value: stakeInfo[msg.sender][_nodeId].stakedAmount}(\"\") */\n      dup2\n        /* \"EthTesting.sol/storageChain.sol\":4528:4558  stakeInfo[msg.sender][_nodeId] */\n      dup2\n        /* \"EthTesting.sol/storageChain.sol\":4528:4571  stakeInfo[msg.sender][_nodeId].stakedAmount */\n      dup6\n        /* \"EthTesting.sol/storageChain.sol\":4496:4576  payable(msg.sender).call{value: stakeInfo[msg.sender][_nodeId].stakedAmount}(\"\") */\n      dup8\n      gas\n      call\n      swap3\n      pop\n      pop\n      pop\n      returndatasize\n      dup1\n      0x00\n      dup2\n      eq\n      tag_188\n      jumpi\n      mload(0x40)\n      swap2\n      pop\n      and(add(returndatasize, 0x3f), not(0x1f))\n      dup3\n      add\n      0x40\n      mstore\n      returndatasize\n      dup3\n      mstore\n      returndatasize\n      0x00\n      0x20\n      dup5\n      add\n      returndatacopy\n      jump(tag_187)\n    tag_188:\n      0x60\n      swap2\n      pop\n    tag_187:\n      pop\n        /* \"EthTesting.sol/storageChain.sol\":4477:4576  (bool success, ) = payable(msg.sender).call{value: stakeInfo[msg.sender][_nodeId].stakedAmount}(\"\") */\n      pop\n      swap1\n      pop\n        /* \"EthTesting.sol/storageChain.sol\":4599:4606  success */\n      dup1\n        /* \"EthTesting.sol/storageChain.sol\":4595:4662  if(!success){... */\n      tag_189\n      jumpi\n        /* \"EthTesting.sol/storageChain.sol\":4628:4651  withdrawFailed(success) */\n      mload(0x40)\n      shl(0xe1, 0x0bdef88b)\n      dup2\n      mstore\n        /* \"#utility.yul\":4627:4641   */\n      dup2\n      iszero\n        /* \"#utility.yul\":4620:4642   */\n      iszero\n        /* \"EthTesting.sol/storageChain.sol\":4628:4651  withdrawFailed(success) */\n      0x04\n      dup3\n      add\n        /* \"#utility.yul\":4602:4643   */\n      mstore\n        /* \"#utility.yul\":4575:4593   */\n      0x24\n      add\n        /* \"EthTesting.sol/storageChain.sol\":4628:4651  withdrawFailed(success) */\n      tag_75\n        /* \"#utility.yul\":4462:4649   */\n      jump\n        /* \"EthTesting.sol/storageChain.sol\":4595:4662  if(!success){... */\n    tag_189:\n        /* \"EthTesting.sol/storageChain.sol\":4717:4727  msg.sender */\n      caller\n        /* \"EthTesting.sol/storageChain.sol\":4741:4762  stakeInfo[msg.sender] */\n      0x00\n      dup2\n      dup2\n      mstore\n        /* \"EthTesting.sol/storageChain.sol\":4741:4750  stakeInfo */\n      0x03\n        /* \"EthTesting.sol/storageChain.sol\":4741:4762  stakeInfo[msg.sender] */\n      0x20\n      mstore\n      0x40\n      swap1\n      dup2\n      swap1\n      keccak256\n        /* \"EthTesting.sol/storageChain.sol\":4741:4771  stakeInfo[msg.sender][_nodeId] */\n      swap1\n      mload\n        /* \"EthTesting.sol/storageChain.sol\":4684:4902  StakeEvent(... */\n      0x5f0fdd6f33919218d99e95dadeb52206af20443cd68b7711230c6d19282e4e2b\n      swap2\n        /* \"EthTesting.sol/storageChain.sol\":4708:4715  _nodeId */\n      dup7\n      swap2\n      dup7\n      swap2\n        /* \"EthTesting.sol/storageChain.sol\":4741:4762  stakeInfo[msg.sender] */\n      swap1\n        /* \"EthTesting.sol/storageChain.sol\":4741:4771  stakeInfo[msg.sender][_nodeId] */\n      tag_191\n      swap1\n        /* \"EthTesting.sol/storageChain.sol\":4708:4715  _nodeId */\n      dup5\n      swap1\n      dup5\n      swap1\n        /* \"EthTesting.sol/storageChain.sol\":4741:4771  stakeInfo[msg.sender][_nodeId] */\n      tag_124\n      jump\t// in\n    tag_191:\n      swap1\n      dup2\n      mstore\n      0x40\n      dup1\n      mload\n      0x20\n      swap3\n      dup2\n      swap1\n      sub\n      dup4\n      add\n      dup2\n      keccak256\n        /* \"EthTesting.sol/storageChain.sol\":4741:4784  stakeInfo[msg.sender][_nodeId].stakedAmount */\n      0x01\n      swap1\n      dup2\n      add\n      sload\n        /* \"EthTesting.sol/storageChain.sol\":4807:4817  msg.sender */\n      caller\n        /* \"EthTesting.sol/storageChain.sol\":4798:4818  userInfo[msg.sender] */\n      0x00\n      swap1\n      dup2\n      mstore\n        /* \"EthTesting.sol/storageChain.sol\":4798:4806  userInfo */\n      0x02\n        /* \"EthTesting.sol/storageChain.sol\":4798:4818  userInfo[msg.sender] */\n      dup7\n      mstore\n      dup5\n      dup2\n      keccak256\n        /* \"EthTesting.sol/storageChain.sol\":4798:4836  userInfo[msg.sender].totalStakedAmount */\n      swap1\n      swap3\n      add\n      sload\n        /* \"EthTesting.sol/storageChain.sol\":4850:4859  stakeInfo */\n      0x03\n        /* \"EthTesting.sol/storageChain.sol\":4850:4871  stakeInfo[msg.sender] */\n      swap1\n      swap6\n      mstore\n      swap3\n      swap1\n      keccak256\n        /* \"EthTesting.sol/storageChain.sol\":4741:4784  stakeInfo[msg.sender][_nodeId].stakedAmount */\n      swap2\n      swap3\n        /* \"EthTesting.sol/storageChain.sol\":4798:4836  userInfo[msg.sender].totalStakedAmount */\n      swap2\n        /* \"EthTesting.sol/storageChain.sol\":4850:4871  stakeInfo[msg.sender] */\n      swap1\n        /* \"EthTesting.sol/storageChain.sol\":4850:4880  stakeInfo[msg.sender][_nodeId] */\n      tag_192\n      swap1\n        /* \"EthTesting.sol/storageChain.sol\":4872:4879  _nodeId */\n      dup12\n      swap1\n      dup12\n      swap1\n        /* \"EthTesting.sol/storageChain.sol\":4850:4880  stakeInfo[msg.sender][_nodeId] */\n      tag_124\n      jump\t// in\n    tag_192:\n      swap1\n      dup2\n      mstore\n      mload(0x40)\n      swap1\n      dup2\n      swap1\n      sub\n      0x20\n      add\n      dup2\n      keccak256\n        /* \"EthTesting.sol/storageChain.sol\":4850:4892  stakeInfo[msg.sender][_nodeId].isNodeAlive */\n      sload\n        /* \"EthTesting.sol/storageChain.sol\":4684:4902  StakeEvent(... */\n      tag_193\n      swap6\n      swap5\n      swap4\n      swap3\n      swap2\n        /* \"EthTesting.sol/storageChain.sol\":4850:4892  stakeInfo[msg.sender][_nodeId].isNodeAlive */\n      0xff\n      swap1\n      swap2\n      and\n      swap1\n        /* \"EthTesting.sol/storageChain.sol\":4684:4902  StakeEvent(... */\n      tag_165\n      jump\t// in\n    tag_193:\n      mload(0x40)\n      dup1\n      swap2\n      sub\n      swap1\n      log2\n      pop\n      pop\n        /* \"EthTesting.sol/storageChain.sol\":7560:7565  false */\n      0x00\n        /* \"EthTesting.sol/storageChain.sol\":7551:7565  locked = false */\n      dup1\n      sload\n      not(0xff)\n      and\n      swap1\n      sstore\n      pop\n        /* \"EthTesting.sol/storageChain.sol\":3766:4909  function deleteNode(string calldata _nodeId) external nonReentrant {... */\n      jump\t// out\n        /* \"#utility.yul\":196:563   */\n    tag_194:\n        /* \"#utility.yul\":259:267   */\n      0x00\n        /* \"#utility.yul\":269:275   */\n      dup1\n        /* \"#utility.yul\":323:326   */\n      dup4\n        /* \"#utility.yul\":316:320   */\n      0x1f\n        /* \"#utility.yul\":308:314   */\n      dup5\n        /* \"#utility.yul\":304:321   */\n      add\n        /* \"#utility.yul\":300:327   */\n      slt\n        /* \"#utility.yul\":290:345   */\n      tag_205\n      jumpi\n        /* \"#utility.yul\":341:342   */\n      0x00\n        /* \"#utility.yul\":338:339   */\n      dup1\n        /* \"#utility.yul\":331:343   */\n      revert\n        /* \"#utility.yul\":290:345   */\n    tag_205:\n      pop\n        /* \"#utility.yul\":364:384   */\n      dup2\n      calldataload\n        /* \"#utility.yul\":407:425   */\n      0xffffffffffffffff\n        /* \"#utility.yul\":396:426   */\n      dup2\n      gt\n        /* \"#utility.yul\":393:443   */\n      iszero\n      tag_206\n      jumpi\n        /* \"#utility.yul\":439:440   */\n      0x00\n        /* \"#utility.yul\":436:437   */\n      dup1\n        /* \"#utility.yul\":429:441   */\n      revert\n        /* \"#utility.yul\":393:443   */\n    tag_206:\n        /* \"#utility.yul\":476:480   */\n      0x20\n        /* \"#utility.yul\":468:474   */\n      dup4\n        /* \"#utility.yul\":464:481   */\n      add\n        /* \"#utility.yul\":452:481   */\n      swap2\n      pop\n        /* \"#utility.yul\":536:539   */\n      dup4\n        /* \"#utility.yul\":529:533   */\n      0x20\n        /* \"#utility.yul\":519:525   */\n      dup3\n        /* \"#utility.yul\":516:517   */\n      0x05\n        /* \"#utility.yul\":512:526   */\n      shl\n        /* \"#utility.yul\":504:510   */\n      dup6\n        /* \"#utility.yul\":500:527   */\n      add\n        /* \"#utility.yul\":496:534   */\n      add\n        /* \"#utility.yul\":493:540   */\n      gt\n        /* \"#utility.yul\":490:557   */\n      iszero\n      tag_207\n      jumpi\n        /* \"#utility.yul\":553:554   */\n      0x00\n        /* \"#utility.yul\":550:551   */\n      dup1\n        /* \"#utility.yul\":543:555   */\n      revert\n        /* \"#utility.yul\":490:557   */\n    tag_207:\n        /* \"#utility.yul\":196:563   */\n      swap3\n      pop\n      swap3\n      swap1\n      pop\n      jump\t// out\n        /* \"#utility.yul\":568:1679   */\n    tag_28:\n        /* \"#utility.yul\":738:744   */\n      0x00\n        /* \"#utility.yul\":746:752   */\n      dup1\n        /* \"#utility.yul\":754:760   */\n      0x00\n        /* \"#utility.yul\":762:768   */\n      dup1\n        /* \"#utility.yul\":770:776   */\n      0x00\n        /* \"#utility.yul\":778:784   */\n      dup1\n        /* \"#utility.yul\":831:833   */\n      0x60\n        /* \"#utility.yul\":819:828   */\n      dup8\n        /* \"#utility.yul\":810:817   */\n      dup10\n        /* \"#utility.yul\":806:829   */\n      sub\n        /* \"#utility.yul\":802:834   */\n      slt\n        /* \"#utility.yul\":799:851   */\n      iszero\n      tag_209\n      jumpi\n        /* \"#utility.yul\":847:848   */\n      0x00\n        /* \"#utility.yul\":844:845   */\n      dup1\n        /* \"#utility.yul\":837:849   */\n      revert\n        /* \"#utility.yul\":799:851   */\n    tag_209:\n        /* \"#utility.yul\":887:896   */\n      dup7\n        /* \"#utility.yul\":874:897   */\n      calldataload\n        /* \"#utility.yul\":920:938   */\n      0xffffffffffffffff\n        /* \"#utility.yul\":912:918   */\n      dup2\n        /* \"#utility.yul\":909:939   */\n      gt\n        /* \"#utility.yul\":906:956   */\n      iszero\n      tag_210\n      jumpi\n        /* \"#utility.yul\":952:953   */\n      0x00\n        /* \"#utility.yul\":949:950   */\n      dup1\n        /* \"#utility.yul\":942:954   */\n      revert\n        /* \"#utility.yul\":906:956   */\n    tag_210:\n        /* \"#utility.yul\":991:1061   */\n      tag_211\n        /* \"#utility.yul\":1053:1060   */\n      dup10\n        /* \"#utility.yul\":1044:1050   */\n      dup3\n        /* \"#utility.yul\":1033:1042   */\n      dup11\n        /* \"#utility.yul\":1029:1051   */\n      add\n        /* \"#utility.yul\":991:1061   */\n      tag_194\n      jump\t// in\n    tag_211:\n        /* \"#utility.yul\":1080:1088   */\n      swap1\n      swap8\n      pop\n        /* \"#utility.yul\":965:1061   */\n      swap6\n      pop\n      pop\n        /* \"#utility.yul\":1168:1170   */\n      0x20\n        /* \"#utility.yul\":1153:1171   */\n      dup8\n      add\n        /* \"#utility.yul\":1140:1172   */\n      calldataload\n        /* \"#utility.yul\":1197:1215   */\n      0xffffffffffffffff\n        /* \"#utility.yul\":1184:1216   */\n      dup2\n      gt\n        /* \"#utility.yul\":1181:1233   */\n      iszero\n      tag_212\n      jumpi\n        /* \"#utility.yul\":1229:1230   */\n      0x00\n        /* \"#utility.yul\":1226:1227   */\n      dup1\n        /* \"#utility.yul\":1219:1231   */\n      revert\n        /* \"#utility.yul\":1181:1233   */\n    tag_212:\n        /* \"#utility.yul\":1268:1340   */\n      tag_213\n        /* \"#utility.yul\":1332:1339   */\n      dup10\n        /* \"#utility.yul\":1321:1329   */\n      dup3\n        /* \"#utility.yul\":1310:1319   */\n      dup11\n        /* \"#utility.yul\":1306:1330   */\n      add\n        /* \"#utility.yul\":1268:1340   */\n      tag_194\n      jump\t// in\n    tag_213:\n        /* \"#utility.yul\":1359:1367   */\n      swap1\n      swap6\n      pop\n        /* \"#utility.yul\":1242:1340   */\n      swap4\n      pop\n      pop\n        /* \"#utility.yul\":1447:1449   */\n      0x40\n        /* \"#utility.yul\":1432:1450   */\n      dup8\n      add\n        /* \"#utility.yul\":1419:1451   */\n      calldataload\n        /* \"#utility.yul\":1476:1494   */\n      0xffffffffffffffff\n        /* \"#utility.yul\":1463:1495   */\n      dup2\n      gt\n        /* \"#utility.yul\":1460:1512   */\n      iszero\n      tag_214\n      jumpi\n        /* \"#utility.yul\":1508:1509   */\n      0x00\n        /* \"#utility.yul\":1505:1506   */\n      dup1\n        /* \"#utility.yul\":1498:1510   */\n      revert\n        /* \"#utility.yul\":1460:1512   */\n    tag_214:\n        /* \"#utility.yul\":1547:1619   */\n      tag_215\n        /* \"#utility.yul\":1611:1618   */\n      dup10\n        /* \"#utility.yul\":1600:1608   */\n      dup3\n        /* \"#utility.yul\":1589:1598   */\n      dup11\n        /* \"#utility.yul\":1585:1609   */\n      add\n        /* \"#utility.yul\":1547:1619   */\n      tag_194\n      jump\t// in\n    tag_215:\n        /* \"#utility.yul\":568:1679   */\n      swap8\n      swap11\n      swap7\n      swap10\n      pop\n      swap5\n      swap8\n      pop\n      swap3\n      swap6\n        /* \"#utility.yul\":1638:1646   */\n      swap4\n      swap5\n        /* \"#utility.yul\":568:1679   */\n      swap3\n      pop\n      pop\n      pop\n      jump\t// out\n        /* \"#utility.yul\":1684:1857   */\n    tag_195:\n        /* \"#utility.yul\":1752:1772   */\n      dup1\n      calldataload\n      sub(shl(0xa0, 0x01), 0x01)\n        /* \"#utility.yul\":1801:1832   */\n      dup2\n      and\n        /* \"#utility.yul\":1791:1833   */\n      dup2\n      eq\n        /* \"#utility.yul\":1781:1851   */\n      tag_217\n      jumpi\n        /* \"#utility.yul\":1847:1848   */\n      0x00\n        /* \"#utility.yul\":1844:1845   */\n      dup1\n        /* \"#utility.yul\":1837:1849   */\n      revert\n        /* \"#utility.yul\":1781:1851   */\n    tag_217:\n        /* \"#utility.yul\":1684:1857   */\n      swap2\n      swap1\n      pop\n      jump\t// out\n        /* \"#utility.yul\":1862:2048   */\n    tag_33:\n        /* \"#utility.yul\":1921:1927   */\n      0x00\n        /* \"#utility.yul\":1974:1976   */\n      0x20\n        /* \"#utility.yul\":1962:1971   */\n      dup3\n        /* \"#utility.yul\":1953:1960   */\n      dup5\n        /* \"#utility.yul\":1949:1972   */\n      sub\n        /* \"#utility.yul\":1945:1977   */\n      slt\n        /* \"#utility.yul\":1942:1994   */\n      iszero\n      tag_219\n      jumpi\n        /* \"#utility.yul\":1990:1991   */\n      0x00\n        /* \"#utility.yul\":1987:1988   */\n      dup1\n        /* \"#utility.yul\":1980:1992   */\n      revert\n        /* \"#utility.yul\":1942:1994   */\n    tag_219:\n        /* \"#utility.yul\":2013:2042   */\n      tag_220\n        /* \"#utility.yul\":2032:2041   */\n      dup3\n        /* \"#utility.yul\":2013:2042   */\n      tag_195\n      jump\t// in\n    tag_220:\n        /* \"#utility.yul\":2003:2042   */\n      swap4\n        /* \"#utility.yul\":1862:2048   */\n      swap3\n      pop\n      pop\n      pop\n      jump\t// out\n        /* \"#utility.yul\":2053:2303   */\n    tag_196:\n        /* \"#utility.yul\":2138:2139   */\n      0x00\n        /* \"#utility.yul\":2148:2261   */\n    tag_222:\n        /* \"#utility.yul\":2162:2168   */\n      dup4\n        /* \"#utility.yul\":2159:2160   */\n      dup2\n        /* \"#utility.yul\":2156:2169   */\n      lt\n        /* \"#utility.yul\":2148:2261   */\n      iszero\n      tag_224\n      jumpi\n        /* \"#utility.yul\":2238:2249   */\n      dup2\n      dup2\n      add\n        /* \"#utility.yul\":2232:2250   */\n      mload\n        /* \"#utility.yul\":2219:2230   */\n      dup4\n      dup3\n      add\n        /* \"#utility.yul\":2212:2251   */\n      mstore\n        /* \"#utility.yul\":2184:2186   */\n      0x20\n        /* \"#utility.yul\":2177:2187   */\n      add\n        /* \"#utility.yul\":2148:2261   */\n      jump(tag_222)\n    tag_224:\n      pop\n      pop\n        /* \"#utility.yul\":2295:2296   */\n      0x00\n        /* \"#utility.yul\":2277:2293   */\n      swap2\n      add\n        /* \"#utility.yul\":2270:2297   */\n      mstore\n        /* \"#utility.yul\":2053:2303   */\n      jump\t// out\n        /* \"#utility.yul\":2308:3301   */\n    tag_36:\n        /* \"#utility.yul\":2470:2474   */\n      0x00\n        /* \"#utility.yul\":2518:2520   */\n      0x20\n        /* \"#utility.yul\":2507:2516   */\n      dup3\n        /* \"#utility.yul\":2503:2521   */\n      add\n        /* \"#utility.yul\":2548:2550   */\n      0x20\n        /* \"#utility.yul\":2537:2546   */\n      dup4\n        /* \"#utility.yul\":2530:2551   */\n      mstore\n        /* \"#utility.yul\":2571:2577   */\n      dup1\n        /* \"#utility.yul\":2606:2612   */\n      dup5\n        /* \"#utility.yul\":2600:2613   */\n      mload\n        /* \"#utility.yul\":2637:2643   */\n      dup1\n        /* \"#utility.yul\":2629:2635   */\n      dup4\n        /* \"#utility.yul\":2622:2644   */\n      mstore\n        /* \"#utility.yul\":2675:2677   */\n      0x40\n        /* \"#utility.yul\":2664:2673   */\n      dup6\n        /* \"#utility.yul\":2660:2678   */\n      add\n        /* \"#utility.yul\":2653:2678   */\n      swap2\n      pop\n        /* \"#utility.yul\":2737:2739   */\n      0x40\n        /* \"#utility.yul\":2727:2733   */\n      dup2\n        /* \"#utility.yul\":2724:2725   */\n      0x05\n        /* \"#utility.yul\":2720:2734   */\n      shl\n        /* \"#utility.yul\":2709:2718   */\n      dup7\n        /* \"#utility.yul\":2705:2735   */\n      add\n        /* \"#utility.yul\":2701:2740   */\n      add\n        /* \"#utility.yul\":2687:2740   */\n      swap3\n      pop\n        /* \"#utility.yul\":2775:2777   */\n      0x20\n        /* \"#utility.yul\":2767:2773   */\n      dup7\n        /* \"#utility.yul\":2763:2778   */\n      add\n        /* \"#utility.yul\":2796:2797   */\n      0x00\n        /* \"#utility.yul\":2806:3272   */\n    tag_226:\n        /* \"#utility.yul\":2820:2826   */\n      dup3\n        /* \"#utility.yul\":2817:2818   */\n      dup2\n        /* \"#utility.yul\":2814:2827   */\n      lt\n        /* \"#utility.yul\":2806:3272   */\n      iszero\n      tag_228\n      jumpi\n        /* \"#utility.yul\":2913:2915   */\n      0x3f\n        /* \"#utility.yul\":2909:2916   */\n      not\n        /* \"#utility.yul\":2897:2906   */\n      dup8\n        /* \"#utility.yul\":2889:2895   */\n      dup7\n        /* \"#utility.yul\":2885:2907   */\n      sub\n        /* \"#utility.yul\":2881:2917   */\n      add\n        /* \"#utility.yul\":2876:2879   */\n      dup5\n        /* \"#utility.yul\":2869:2918   */\n      mstore\n        /* \"#utility.yul\":2947:2953   */\n      dup2\n        /* \"#utility.yul\":2941:2954   */\n      mload\n        /* \"#utility.yul\":2989:2991   */\n      dup1\n        /* \"#utility.yul\":2983:2992   */\n      mload\n        /* \"#utility.yul\":3020:3028   */\n      dup1\n        /* \"#utility.yul\":3012:3018   */\n      dup8\n        /* \"#utility.yul\":3005:3029   */\n      mstore\n        /* \"#utility.yul\":3042:3116   */\n      tag_229\n        /* \"#utility.yul\":3107:3115   */\n      dup2\n        /* \"#utility.yul\":3102:3104   */\n      0x20\n        /* \"#utility.yul\":3094:3100   */\n      dup10\n        /* \"#utility.yul\":3090:3105   */\n      add\n        /* \"#utility.yul\":3085:3087   */\n      0x20\n        /* \"#utility.yul\":3081:3083   */\n      dup6\n        /* \"#utility.yul\":3077:3088   */\n      add\n        /* \"#utility.yul\":3042:3116   */\n      tag_196\n      jump\t// in\n    tag_229:\n        /* \"#utility.yul\":3182:3184   */\n      0x1f\n        /* \"#utility.yul\":3159:3176   */\n      add\n      not(0x1f)\n        /* \"#utility.yul\":3155:3186   */\n      and\n        /* \"#utility.yul\":3143:3187   */\n      swap6\n      swap1\n      swap6\n      add\n        /* \"#utility.yul\":3189:3191   */\n      0x20\n        /* \"#utility.yul\":3139:3192   */\n      swap1\n      dup2\n      add\n      swap6\n      pop\n        /* \"#utility.yul\":3250:3262   */\n      swap4\n      dup5\n      add\n      swap4\n        /* \"#utility.yul\":3215:3230   */\n      swap2\n      swap1\n      swap2\n      add\n      swap1\n        /* \"#utility.yul\":2842:2843   */\n      0x01\n        /* \"#utility.yul\":2835:2844   */\n      add\n        /* \"#utility.yul\":2806:3272   */\n      jump(tag_226)\n    tag_228:\n      pop\n        /* \"#utility.yul\":3289:3295   */\n      swap3\n      swap7\n        /* \"#utility.yul\":2308:3301   */\n      swap6\n      pop\n      pop\n      pop\n      pop\n      pop\n      pop\n      jump\t// out\n        /* \"#utility.yul\":3306:3433   */\n    tag_197:\n        /* \"#utility.yul\":3367:3377   */\n      0x4e487b71\n        /* \"#utility.yul\":3362:3365   */\n      0xe0\n        /* \"#utility.yul\":3358:3378   */\n      shl\n        /* \"#utility.yul\":3355:3356   */\n      0x00\n        /* \"#utility.yul\":3348:3379   */\n      mstore\n        /* \"#utility.yul\":3398:3402   */\n      0x41\n        /* \"#utility.yul\":3395:3396   */\n      0x04\n        /* \"#utility.yul\":3388:3403   */\n      mstore\n        /* \"#utility.yul\":3422:3426   */\n      0x24\n        /* \"#utility.yul\":3419:3420   */\n      0x00\n        /* \"#utility.yul\":3412:3427   */\n      revert\n        /* \"#utility.yul\":3438:4457   */\n    tag_40:\n        /* \"#utility.yul\":3516:3522   */\n      0x00\n        /* \"#utility.yul\":3524:3530   */\n      dup1\n        /* \"#utility.yul\":3577:3579   */\n      0x40\n        /* \"#utility.yul\":3565:3574   */\n      dup4\n        /* \"#utility.yul\":3556:3563   */\n      dup6\n        /* \"#utility.yul\":3552:3575   */\n      sub\n        /* \"#utility.yul\":3548:3580   */\n      slt\n        /* \"#utility.yul\":3545:3597   */\n      iszero\n      tag_232\n      jumpi\n        /* \"#utility.yul\":3593:3594   */\n      0x00\n        /* \"#utility.yul\":3590:3591   */\n      dup1\n        /* \"#utility.yul\":3583:3595   */\n      revert\n        /* \"#utility.yul\":3545:3597   */\n    tag_232:\n        /* \"#utility.yul\":3616:3645   */\n      tag_233\n        /* \"#utility.yul\":3635:3644   */\n      dup4\n        /* \"#utility.yul\":3616:3645   */\n      tag_195\n      jump\t// in\n    tag_233:\n        /* \"#utility.yul\":3606:3645   */\n      swap2\n      pop\n        /* \"#utility.yul\":3696:3698   */\n      0x20\n        /* \"#utility.yul\":3685:3694   */\n      dup4\n        /* \"#utility.yul\":3681:3699   */\n      add\n        /* \"#utility.yul\":3668:3700   */\n      calldataload\n        /* \"#utility.yul\":3723:3741   */\n      0xffffffffffffffff\n        /* \"#utility.yul\":3715:3721   */\n      dup2\n        /* \"#utility.yul\":3712:3742   */\n      gt\n        /* \"#utility.yul\":3709:3759   */\n      iszero\n      tag_234\n      jumpi\n        /* \"#utility.yul\":3755:3756   */\n      0x00\n        /* \"#utility.yul\":3752:3753   */\n      dup1\n        /* \"#utility.yul\":3745:3757   */\n      revert\n        /* \"#utility.yul\":3709:3759   */\n    tag_234:\n        /* \"#utility.yul\":3778:3800   */\n      dup4\n      add\n        /* \"#utility.yul\":3831:3835   */\n      0x1f\n        /* \"#utility.yul\":3823:3836   */\n      dup2\n      add\n        /* \"#utility.yul\":3819:3846   */\n      dup6\n      sgt\n        /* \"#utility.yul\":3809:3864   */\n      tag_235\n      jumpi\n        /* \"#utility.yul\":3860:3861   */\n      0x00\n        /* \"#utility.yul\":3857:3858   */\n      dup1\n        /* \"#utility.yul\":3850:3862   */\n      revert\n        /* \"#utility.yul\":3809:3864   */\n    tag_235:\n        /* \"#utility.yul\":3900:3902   */\n      dup1\n        /* \"#utility.yul\":3887:3903   */\n      calldataload\n        /* \"#utility.yul\":3926:3944   */\n      0xffffffffffffffff\n        /* \"#utility.yul\":3918:3924   */\n      dup2\n        /* \"#utility.yul\":3915:3945   */\n      gt\n        /* \"#utility.yul\":3912:3968   */\n      iszero\n      tag_237\n      jumpi\n        /* \"#utility.yul\":3948:3966   */\n      tag_237\n      tag_197\n      jump\t// in\n    tag_237:\n        /* \"#utility.yul\":3997:3999   */\n      0x40\n        /* \"#utility.yul\":3991:4000   */\n      mload\n        /* \"#utility.yul\":4089:4091   */\n      0x1f\n        /* \"#utility.yul\":4051:4068   */\n      dup3\n      add\n      not(0x1f)\n        /* \"#utility.yul\":4047:4078   */\n      swap1\n      dup2\n      and\n        /* \"#utility.yul\":4080:4082   */\n      0x3f\n        /* \"#utility.yul\":4043:4083   */\n      add\n        /* \"#utility.yul\":4039:4093   */\n      and\n        /* \"#utility.yul\":4027:4094   */\n      dup2\n      add\n        /* \"#utility.yul\":4124:4142   */\n      0xffffffffffffffff\n        /* \"#utility.yul\":4109:4143   */\n      dup2\n      gt\n        /* \"#utility.yul\":4145:4167   */\n      dup3\n      dup3\n      lt\n        /* \"#utility.yul\":4106:4168   */\n      or\n        /* \"#utility.yul\":4103:4191   */\n      iszero\n      tag_239\n      jumpi\n        /* \"#utility.yul\":4171:4189   */\n      tag_239\n      tag_197\n      jump\t// in\n    tag_239:\n        /* \"#utility.yul\":4207:4209   */\n      0x40\n        /* \"#utility.yul\":4200:4222   */\n      mstore\n        /* \"#utility.yul\":4231:4253   */\n      dup2\n      dup2\n      mstore\n        /* \"#utility.yul\":4272:4287   */\n      dup3\n      dup3\n      add\n        /* \"#utility.yul\":4289:4291   */\n      0x20\n        /* \"#utility.yul\":4268:4292   */\n      add\n        /* \"#utility.yul\":4265:4302   */\n      dup8\n      lt\n        /* \"#utility.yul\":4262:4319   */\n      iszero\n      tag_240\n      jumpi\n        /* \"#utility.yul\":4315:4316   */\n      0x00\n        /* \"#utility.yul\":4312:4313   */\n      dup1\n        /* \"#utility.yul\":4305:4317   */\n      revert\n        /* \"#utility.yul\":4262:4319   */\n    tag_240:\n        /* \"#utility.yul\":4371:4377   */\n      dup2\n        /* \"#utility.yul\":4366:4368   */\n      0x20\n        /* \"#utility.yul\":4362:4364   */\n      dup5\n        /* \"#utility.yul\":4358:4369   */\n      add\n        /* \"#utility.yul\":4353:4355   */\n      0x20\n        /* \"#utility.yul\":4345:4351   */\n      dup4\n        /* \"#utility.yul\":4341:4356   */\n      add\n        /* \"#utility.yul\":4328:4378   */\n      calldatacopy\n        /* \"#utility.yul\":4424:4425   */\n      0x00\n        /* \"#utility.yul\":4419:4421   */\n      0x20\n        /* \"#utility.yul\":4410:4416   */\n      dup4\n        /* \"#utility.yul\":4402:4408   */\n      dup4\n        /* \"#utility.yul\":4398:4417   */\n      add\n        /* \"#utility.yul\":4394:4422   */\n      add\n        /* \"#utility.yul\":4387:4426   */\n      mstore\n        /* \"#utility.yul\":4445:4451   */\n      dup1\n        /* \"#utility.yul\":4435:4451   */\n      swap4\n      pop\n      pop\n      pop\n      pop\n        /* \"#utility.yul\":3438:4457   */\n      swap3\n      pop\n      swap3\n      swap1\n      pop\n      jump\t// out\n        /* \"#utility.yul\":4654:5241   */\n    tag_60:\n        /* \"#utility.yul\":4725:4731   */\n      0x00\n        /* \"#utility.yul\":4733:4739   */\n      dup1\n        /* \"#utility.yul\":4786:4788   */\n      0x20\n        /* \"#utility.yul\":4774:4783   */\n      dup4\n        /* \"#utility.yul\":4765:4772   */\n      dup6\n        /* \"#utility.yul\":4761:4784   */\n      sub\n        /* \"#utility.yul\":4757:4789   */\n      slt\n        /* \"#utility.yul\":4754:4806   */\n      iszero\n      tag_243\n      jumpi\n        /* \"#utility.yul\":4802:4803   */\n      0x00\n        /* \"#utility.yul\":4799:4800   */\n      dup1\n        /* \"#utility.yul\":4792:4804   */\n      revert\n        /* \"#utility.yul\":4754:4806   */\n    tag_243:\n        /* \"#utility.yul\":4842:4851   */\n      dup3\n        /* \"#utility.yul\":4829:4852   */\n      calldataload\n        /* \"#utility.yul\":4875:4893   */\n      0xffffffffffffffff\n        /* \"#utility.yul\":4867:4873   */\n      dup2\n        /* \"#utility.yul\":4864:4894   */\n      gt\n        /* \"#utility.yul\":4861:4911   */\n      iszero\n      tag_244\n      jumpi\n        /* \"#utility.yul\":4907:4908   */\n      0x00\n        /* \"#utility.yul\":4904:4905   */\n      dup1\n        /* \"#utility.yul\":4897:4909   */\n      revert\n        /* \"#utility.yul\":4861:4911   */\n    tag_244:\n        /* \"#utility.yul\":4930:4952   */\n      dup4\n      add\n        /* \"#utility.yul\":4983:4987   */\n      0x1f\n        /* \"#utility.yul\":4975:4988   */\n      dup2\n      add\n        /* \"#utility.yul\":4971:4998   */\n      dup6\n      sgt\n        /* \"#utility.yul\":4961:5016   */\n      tag_245\n      jumpi\n        /* \"#utility.yul\":5012:5013   */\n      0x00\n        /* \"#utility.yul\":5009:5010   */\n      dup1\n        /* \"#utility.yul\":5002:5014   */\n      revert\n        /* \"#utility.yul\":4961:5016   */\n    tag_245:\n        /* \"#utility.yul\":5052:5054   */\n      dup1\n        /* \"#utility.yul\":5039:5055   */\n      calldataload\n        /* \"#utility.yul\":5078:5096   */\n      0xffffffffffffffff\n        /* \"#utility.yul\":5070:5076   */\n      dup2\n        /* \"#utility.yul\":5067:5097   */\n      gt\n        /* \"#utility.yul\":5064:5114   */\n      iszero\n      tag_246\n      jumpi\n        /* \"#utility.yul\":5110:5111   */\n      0x00\n        /* \"#utility.yul\":5107:5108   */\n      dup1\n        /* \"#utility.yul\":5100:5112   */\n      revert\n        /* \"#utility.yul\":5064:5114   */\n    tag_246:\n        /* \"#utility.yul\":5155:5162   */\n      dup6\n        /* \"#utility.yul\":5150:5152   */\n      0x20\n        /* \"#utility.yul\":5141:5147   */\n      dup3\n        /* \"#utility.yul\":5137:5139   */\n      dup5\n        /* \"#utility.yul\":5133:5148   */\n      add\n        /* \"#utility.yul\":5129:5153   */\n      add\n        /* \"#utility.yul\":5126:5163   */\n      gt\n        /* \"#utility.yul\":5123:5180   */\n      iszero\n      tag_247\n      jumpi\n        /* \"#utility.yul\":5176:5177   */\n      0x00\n        /* \"#utility.yul\":5173:5174   */\n      dup1\n        /* \"#utility.yul\":5166:5178   */\n      revert\n        /* \"#utility.yul\":5123:5180   */\n    tag_247:\n        /* \"#utility.yul\":5207:5209   */\n      0x20\n        /* \"#utility.yul\":5199:5210   */\n      swap2\n      swap1\n      swap2\n      add\n      swap6\n        /* \"#utility.yul\":5229:5235   */\n      swap1\n      swap5\n      pop\n        /* \"#utility.yul\":4654:5241   */\n      swap3\n      pop\n      pop\n      pop\n      jump\t// out\n        /* \"#utility.yul\":5778:5905   */\n    tag_96:\n        /* \"#utility.yul\":5839:5849   */\n      0x4e487b71\n        /* \"#utility.yul\":5834:5837   */\n      0xe0\n        /* \"#utility.yul\":5830:5850   */\n      shl\n        /* \"#utility.yul\":5827:5828   */\n      0x00\n        /* \"#utility.yul\":5820:5851   */\n      mstore\n        /* \"#utility.yul\":5870:5874   */\n      0x32\n        /* \"#utility.yul\":5867:5868   */\n      0x04\n        /* \"#utility.yul\":5860:5875   */\n      mstore\n        /* \"#utility.yul\":5894:5898   */\n      0x24\n        /* \"#utility.yul\":5891:5892   */\n      0x00\n        /* \"#utility.yul\":5884:5899   */\n      revert\n        /* \"#utility.yul\":5910:6037   */\n    tag_198:\n        /* \"#utility.yul\":5971:5981   */\n      0x4e487b71\n        /* \"#utility.yul\":5966:5969   */\n      0xe0\n        /* \"#utility.yul\":5962:5982   */\n      shl\n        /* \"#utility.yul\":5959:5960   */\n      0x00\n        /* \"#utility.yul\":5952:5983   */\n      mstore\n        /* \"#utility.yul\":6002:6006   */\n      0x11\n        /* \"#utility.yul\":5999:6000   */\n      0x04\n        /* \"#utility.yul\":5992:6007   */\n      mstore\n        /* \"#utility.yul\":6026:6030   */\n      0x24\n        /* \"#utility.yul\":6023:6024   */\n      0x00\n        /* \"#utility.yul\":6016:6031   */\n      revert\n        /* \"#utility.yul\":6042:6167   */\n    tag_98:\n        /* \"#utility.yul\":6107:6116   */\n      dup1\n      dup3\n      add\n        /* \"#utility.yul\":6128:6138   */\n      dup1\n      dup3\n      gt\n        /* \"#utility.yul\":6125:6161   */\n      iszero\n      tag_144\n      jumpi\n        /* \"#utility.yul\":6141:6159   */\n      tag_144\n      tag_198\n      jump\t// in\n        /* \"#utility.yul\":6172:6694   */\n    tag_105:\n        /* \"#utility.yul\":6250:6254   */\n      0x00\n        /* \"#utility.yul\":6256:6262   */\n      dup1\n        /* \"#utility.yul\":6316:6327   */\n      dup4\n        /* \"#utility.yul\":6303:6328   */\n      calldataload\n        /* \"#utility.yul\":6410:6412   */\n      0x1e\n        /* \"#utility.yul\":6406:6413   */\n      not\n        /* \"#utility.yul\":6395:6403   */\n      dup5\n        /* \"#utility.yul\":6379:6393   */\n      calldatasize\n        /* \"#utility.yul\":6375:6404   */\n      sub\n        /* \"#utility.yul\":6371:6414   */\n      add\n        /* \"#utility.yul\":6351:6369   */\n      dup2\n        /* \"#utility.yul\":6347:6415   */\n      slt\n        /* \"#utility.yul\":6337:6433   */\n      tag_256\n      jumpi\n        /* \"#utility.yul\":6429:6430   */\n      0x00\n        /* \"#utility.yul\":6426:6427   */\n      dup1\n        /* \"#utility.yul\":6419:6431   */\n      revert\n        /* \"#utility.yul\":6337:6433   */\n    tag_256:\n        /* \"#utility.yul\":6456:6489   */\n      dup4\n      add\n        /* \"#utility.yul\":6508:6528   */\n      dup1\n      calldataload\n      swap2\n      pop\n        /* \"#utility.yul\":6551:6569   */\n      0xffffffffffffffff\n        /* \"#utility.yul\":6540:6570   */\n      dup3\n      gt\n        /* \"#utility.yul\":6537:6587   */\n      iszero\n      tag_257\n      jumpi\n        /* \"#utility.yul\":6583:6584   */\n      0x00\n        /* \"#utility.yul\":6580:6581   */\n      dup1\n        /* \"#utility.yul\":6573:6585   */\n      revert\n        /* \"#utility.yul\":6537:6587   */\n    tag_257:\n        /* \"#utility.yul\":6616:6620   */\n      0x20\n        /* \"#utility.yul\":6604:6621   */\n      add\n      swap2\n      pop\n        /* \"#utility.yul\":6647:6661   */\n      calldatasize\n        /* \"#utility.yul\":6643:6670   */\n      dup2\n      swap1\n      sub\n        /* \"#utility.yul\":6633:6671   */\n      dup3\n      sgt\n        /* \"#utility.yul\":6630:6688   */\n      iszero\n      tag_207\n      jumpi\n        /* \"#utility.yul\":6684:6685   */\n      0x00\n        /* \"#utility.yul\":6681:6682   */\n      dup1\n        /* \"#utility.yul\":6674:6686   */\n      revert\n        /* \"#utility.yul\":6699:7079   */\n    tag_139:\n        /* \"#utility.yul\":6778:6779   */\n      0x01\n        /* \"#utility.yul\":6774:6786   */\n      dup2\n      dup2\n      shr\n      swap1\n        /* \"#utility.yul\":6821:6833   */\n      dup3\n      and\n      dup1\n        /* \"#utility.yul\":6842:6903   */\n      tag_260\n      jumpi\n        /* \"#utility.yul\":6896:6900   */\n      0x7f\n        /* \"#utility.yul\":6888:6894   */\n      dup3\n        /* \"#utility.yul\":6884:6901   */\n      and\n        /* \"#utility.yul\":6874:6901   */\n      swap2\n      pop\n        /* \"#utility.yul\":6842:6903   */\n    tag_260:\n        /* \"#utility.yul\":6949:6951   */\n      0x20\n        /* \"#utility.yul\":6941:6947   */\n      dup3\n        /* \"#utility.yul\":6938:6952   */\n      lt\n        /* \"#utility.yul\":6918:6936   */\n      dup2\n        /* \"#utility.yul\":6915:6953   */\n      sub\n        /* \"#utility.yul\":6912:7073   */\n      tag_261\n      jumpi\n        /* \"#utility.yul\":6995:7005   */\n      0x4e487b71\n        /* \"#utility.yul\":6990:6993   */\n      0xe0\n        /* \"#utility.yul\":6986:7006   */\n      shl\n        /* \"#utility.yul\":6983:6984   */\n      0x00\n        /* \"#utility.yul\":6976:7007   */\n      mstore\n        /* \"#utility.yul\":7030:7034   */\n      0x22\n        /* \"#utility.yul\":7027:7028   */\n      0x04\n        /* \"#utility.yul\":7020:7035   */\n      mstore\n        /* \"#utility.yul\":7058:7062   */\n      0x24\n        /* \"#utility.yul\":7055:7056   */\n      0x00\n        /* \"#utility.yul\":7048:7063   */\n      revert\n        /* \"#utility.yul\":6912:7073   */\n    tag_261:\n      pop\n        /* \"#utility.yul\":6699:7079   */\n      swap2\n      swap1\n      pop\n      jump\t// out\n        /* \"#utility.yul\":7210:7728   */\n    tag_200:\n        /* \"#utility.yul\":7312:7314   */\n      0x1f\n        /* \"#utility.yul\":7307:7310   */\n      dup3\n        /* \"#utility.yul\":7304:7315   */\n      gt\n        /* \"#utility.yul\":7301:7722   */\n      iszero\n      tag_264\n      jumpi\n        /* \"#utility.yul\":7348:7353   */\n      dup1\n        /* \"#utility.yul\":7345:7346   */\n      0x00\n        /* \"#utility.yul\":7338:7354   */\n      mstore\n        /* \"#utility.yul\":7392:7396   */\n      0x20\n        /* \"#utility.yul\":7389:7390   */\n      0x00\n        /* \"#utility.yul\":7379:7397   */\n      keccak256\n        /* \"#utility.yul\":7462:7464   */\n      0x1f\n        /* \"#utility.yul\":7450:7460   */\n      dup5\n        /* \"#utility.yul\":7446:7465   */\n      add\n        /* \"#utility.yul\":7443:7444   */\n      0x05\n        /* \"#utility.yul\":7439:7466   */\n      shr\n        /* \"#utility.yul\":7433:7437   */\n      dup2\n        /* \"#utility.yul\":7429:7467   */\n      add\n        /* \"#utility.yul\":7498:7502   */\n      0x20\n        /* \"#utility.yul\":7486:7496   */\n      dup6\n        /* \"#utility.yul\":7483:7503   */\n      lt\n        /* \"#utility.yul\":7480:7527   */\n      iszero\n      tag_265\n      jumpi\n      pop\n        /* \"#utility.yul\":7521:7525   */\n      dup1\n        /* \"#utility.yul\":7480:7527   */\n    tag_265:\n        /* \"#utility.yul\":7576:7578   */\n      0x1f\n        /* \"#utility.yul\":7571:7574   */\n      dup5\n        /* \"#utility.yul\":7567:7579   */\n      add\n        /* \"#utility.yul\":7564:7565   */\n      0x05\n        /* \"#utility.yul\":7560:7580   */\n      shr\n        /* \"#utility.yul\":7554:7558   */\n      dup3\n        /* \"#utility.yul\":7550:7581   */\n      add\n        /* \"#utility.yul\":7540:7581   */\n      swap2\n      pop\n        /* \"#utility.yul\":7631:7712   */\n    tag_266:\n        /* \"#utility.yul\":7649:7651   */\n      dup2\n        /* \"#utility.yul\":7642:7647   */\n      dup2\n        /* \"#utility.yul\":7639:7652   */\n      lt\n        /* \"#utility.yul\":7631:7712   */\n      iszero\n      tag_268\n      jumpi\n        /* \"#utility.yul\":7708:7709   */\n      0x00\n        /* \"#utility.yul\":7694:7710   */\n      dup2\n      sstore\n        /* \"#utility.yul\":7675:7676   */\n      0x01\n        /* \"#utility.yul\":7664:7677   */\n      add\n        /* \"#utility.yul\":7631:7712   */\n      jump(tag_266)\n    tag_268:\n        /* \"#utility.yul\":7635:7638   */\n      pop\n      pop\n        /* \"#utility.yul\":7301:7722   */\n    tag_264:\n        /* \"#utility.yul\":7210:7728   */\n      pop\n      pop\n      pop\n      jump\t// out\n        /* \"#utility.yul\":7904:9110   */\n    tag_108:\n        /* \"#utility.yul\":8028:8046   */\n      0xffffffffffffffff\n        /* \"#utility.yul\":8023:8026   */\n      dup4\n        /* \"#utility.yul\":8020:8047   */\n      gt\n        /* \"#utility.yul\":8017:8070   */\n      iszero\n      tag_272\n      jumpi\n        /* \"#utility.yul\":8050:8068   */\n      tag_272\n      tag_197\n      jump\t// in\n    tag_272:\n        /* \"#utility.yul\":8079:8173   */\n      tag_273\n        /* \"#utility.yul\":8169:8172   */\n      dup4\n        /* \"#utility.yul\":8129:8167   */\n      tag_274\n        /* \"#utility.yul\":8161:8165   */\n      dup4\n        /* \"#utility.yul\":8155:8166   */\n      sload\n        /* \"#utility.yul\":8129:8167   */\n      tag_139\n      jump\t// in\n    tag_274:\n        /* \"#utility.yul\":8123:8127   */\n      dup4\n        /* \"#utility.yul\":8079:8173   */\n      tag_200\n      jump\t// in\n    tag_273:\n        /* \"#utility.yul\":8199:8200   */\n      0x00\n        /* \"#utility.yul\":8224:8226   */\n      0x1f\n        /* \"#utility.yul\":8219:8222   */\n      dup5\n        /* \"#utility.yul\":8216:8227   */\n      gt\n        /* \"#utility.yul\":8241:8242   */\n      0x01\n        /* \"#utility.yul\":8236:8852   */\n      dup2\n      eq\n      tag_276\n      jumpi\n        /* \"#utility.yul\":8896:8897   */\n      0x00\n        /* \"#utility.yul\":8913:8916   */\n      dup6\n        /* \"#utility.yul\":8910:9003   */\n      iszero\n      tag_277\n      jumpi\n      pop\n        /* \"#utility.yul\":8969:8988   */\n      dup4\n      dup3\n      add\n        /* \"#utility.yul\":8956:8989   */\n      calldataload\n        /* \"#utility.yul\":8910:9003   */\n    tag_277:\n      not(0x00)\n        /* \"#utility.yul\":7861:7862   */\n      0x03\n        /* \"#utility.yul\":7857:7868   */\n      dup8\n      swap1\n      shl\n        /* \"#utility.yul\":7853:7877   */\n      shr\n        /* \"#utility.yul\":7849:7878   */\n      not\n        /* \"#utility.yul\":7839:7879   */\n      and\n        /* \"#utility.yul\":7885:7886   */\n      0x01\n        /* \"#utility.yul\":7881:7892   */\n      dup7\n      swap1\n      shl\n        /* \"#utility.yul\":7836:7893   */\n      or\n        /* \"#utility.yul\":9016:9094   */\n      dup4\n      sstore\n        /* \"#utility.yul\":8209:9104   */\n      jump(tag_268)\n        /* \"#utility.yul\":8236:8852   */\n    tag_276:\n        /* \"#utility.yul\":7157:7158   */\n      0x00\n        /* \"#utility.yul\":7150:7164   */\n      dup4\n      dup2\n      mstore\n        /* \"#utility.yul\":7194:7198   */\n      0x20\n        /* \"#utility.yul\":7181:7199   */\n      swap1\n      keccak256\n      not(0x1f)\n        /* \"#utility.yul\":8272:8289   */\n      dup7\n      and\n      swap1\n        /* \"#utility.yul\":8373:8382   */\n      dup4\n        /* \"#utility.yul\":8395:8624   */\n    tag_280:\n        /* \"#utility.yul\":8409:8416   */\n      dup3\n        /* \"#utility.yul\":8406:8407   */\n      dup2\n        /* \"#utility.yul\":8403:8417   */\n      lt\n        /* \"#utility.yul\":8395:8624   */\n      iszero\n      tag_282\n      jumpi\n        /* \"#utility.yul\":8498:8517   */\n      dup7\n      dup6\n      add\n        /* \"#utility.yul\":8485:8518   */\n      calldataload\n        /* \"#utility.yul\":8470:8519   */\n      dup3\n      sstore\n        /* \"#utility.yul\":8605:8609   */\n      0x20\n        /* \"#utility.yul\":8590:8610   */\n      swap5\n      dup6\n      add\n      swap5\n        /* \"#utility.yul\":8558:8559   */\n      0x01\n        /* \"#utility.yul\":8546:8560   */\n      swap1\n      swap3\n      add\n      swap2\n        /* \"#utility.yul\":8425:8437   */\n      add\n        /* \"#utility.yul\":8395:8624   */\n      jump(tag_280)\n    tag_282:\n        /* \"#utility.yul\":8399:8402   */\n      pop\n        /* \"#utility.yul\":8652:8655   */\n      dup7\n        /* \"#utility.yul\":8643:8650   */\n      dup3\n        /* \"#utility.yul\":8640:8656   */\n      lt\n        /* \"#utility.yul\":8637:8796   */\n      iszero\n      tag_283\n      jumpi\n        /* \"#utility.yul\":8776:8777   */\n      0x00\n        /* \"#utility.yul\":8772:8778   */\n      not\n        /* \"#utility.yul\":8766:8769   */\n      0xf8\n        /* \"#utility.yul\":8760:8763   */\n      dup9\n        /* \"#utility.yul\":8757:8758   */\n      0x03\n        /* \"#utility.yul\":8753:8764   */\n      shl\n        /* \"#utility.yul\":8749:8770   */\n      and\n        /* \"#utility.yul\":8745:8779   */\n      shr\n        /* \"#utility.yul\":8741:8780   */\n      not\n        /* \"#utility.yul\":8728:8737   */\n      dup5\n        /* \"#utility.yul\":8723:8726   */\n      dup8\n        /* \"#utility.yul\":8719:8738   */\n      add\n        /* \"#utility.yul\":8706:8739   */\n      calldataload\n        /* \"#utility.yul\":8702:8781   */\n      and\n        /* \"#utility.yul\":8694:8700   */\n      dup2\n        /* \"#utility.yul\":8687:8782   */\n      sstore\n        /* \"#utility.yul\":8637:8796   */\n    tag_283:\n      pop\n      pop\n        /* \"#utility.yul\":8839:8840   */\n      0x01\n        /* \"#utility.yul\":8833:8836   */\n      dup6\n        /* \"#utility.yul\":8830:8831   */\n      0x01\n        /* \"#utility.yul\":8826:8837   */\n      shl\n        /* \"#utility.yul\":8822:8841   */\n      add\n        /* \"#utility.yul\":8816:8820   */\n      dup4\n        /* \"#utility.yul\":8809:8842   */\n      sstore\n        /* \"#utility.yul\":8209:9104   */\n      pop\n      pop\n        /* \"#utility.yul\":7904:9110   */\n      pop\n      pop\n      pop\n      jump\t// out\n        /* \"#utility.yul\":9115:9388   */\n    tag_124:\n        /* \"#utility.yul\":9300:9306   */\n      dup2\n        /* \"#utility.yul\":9292:9298   */\n      dup4\n        /* \"#utility.yul\":9287:9290   */\n      dup3\n        /* \"#utility.yul\":9274:9307   */\n      calldatacopy\n        /* \"#utility.yul\":9256:9259   */\n      0x00\n        /* \"#utility.yul\":9326:9342   */\n      swap2\n      add\n        /* \"#utility.yul\":9351:9364   */\n      swap1\n      dup2\n      mstore\n        /* \"#utility.yul\":9326:9342   */\n      swap2\n        /* \"#utility.yul\":9115:9388   */\n      swap1\n      pop\n      jump\t// out\n        /* \"#utility.yul\":9990:10279   */\n    tag_146:\n        /* \"#utility.yul\":10121:10124   */\n      0x00\n        /* \"#utility.yul\":10159:10165   */\n      dup3\n        /* \"#utility.yul\":10153:10166   */\n      mload\n        /* \"#utility.yul\":10175:10241   */\n      tag_287\n        /* \"#utility.yul\":10234:10240   */\n      dup2\n        /* \"#utility.yul\":10229:10232   */\n      dup5\n        /* \"#utility.yul\":10222:10226   */\n      0x20\n        /* \"#utility.yul\":10214:10220   */\n      dup8\n        /* \"#utility.yul\":10210:10227   */\n      add\n        /* \"#utility.yul\":10175:10241   */\n      tag_196\n      jump\t// in\n    tag_287:\n        /* \"#utility.yul\":10257:10273   */\n      swap2\n      swap1\n      swap2\n      add\n      swap3\n        /* \"#utility.yul\":9990:10279   */\n      swap2\n      pop\n      pop\n      jump\t// out\n        /* \"#utility.yul\":10284:10904   */\n    tag_165:\n        /* \"#utility.yul\":10521:10524   */\n      0x80\n        /* \"#utility.yul\":10510:10519   */\n      dup2\n        /* \"#utility.yul\":10503:10525   */\n      mstore\n        /* \"#utility.yul\":10562:10568   */\n      dup5\n        /* \"#utility.yul\":10556:10559   */\n      0x80\n        /* \"#utility.yul\":10545:10554   */\n      dup3\n        /* \"#utility.yul\":10541:10560   */\n      add\n        /* \"#utility.yul\":10534:10569   */\n      mstore\n        /* \"#utility.yul\":10620:10626   */\n      dup5\n        /* \"#utility.yul\":10612:10618   */\n      dup7\n        /* \"#utility.yul\":10606:10609   */\n      0xa0\n        /* \"#utility.yul\":10595:10604   */\n      dup4\n        /* \"#utility.yul\":10591:10610   */\n      add\n        /* \"#utility.yul\":10578:10627   */\n      calldatacopy\n        /* \"#utility.yul\":10677:10678   */\n      0x00\n        /* \"#utility.yul\":10671:10674   */\n      0xa0\n        /* \"#utility.yul\":10662:10668   */\n      dup7\n        /* \"#utility.yul\":10651:10660   */\n      dup4\n        /* \"#utility.yul\":10647:10669   */\n      add\n        /* \"#utility.yul\":10643:10675   */\n      add\n        /* \"#utility.yul\":10636:10679   */\n      mstore\n        /* \"#utility.yul\":10484:10488   */\n      0x00\n        /* \"#utility.yul\":10747:10750   */\n      0xa0\n        /* \"#utility.yul\":10740:10742   */\n      0x1f\n        /* \"#utility.yul\":10736:10743   */\n      not\n        /* \"#utility.yul\":10731:10733   */\n      0x1f\n        /* \"#utility.yul\":10723:10729   */\n      dup9\n        /* \"#utility.yul\":10719:10734   */\n      add\n        /* \"#utility.yul\":10715:10744   */\n      and\n        /* \"#utility.yul\":10704:10713   */\n      dup4\n        /* \"#utility.yul\":10700:10745   */\n      add\n        /* \"#utility.yul\":10696:10751   */\n      add\n        /* \"#utility.yul\":10688:10751   */\n      swap1\n      pop\n        /* \"#utility.yul\":10789:10795   */\n      dup5\n        /* \"#utility.yul\":10782:10786   */\n      0x20\n        /* \"#utility.yul\":10771:10780   */\n      dup4\n        /* \"#utility.yul\":10767:10787   */\n      add\n        /* \"#utility.yul\":10760:10796   */\n      mstore\n        /* \"#utility.yul\":10832:10838   */\n      dup4\n        /* \"#utility.yul\":10827:10829   */\n      0x40\n        /* \"#utility.yul\":10816:10825   */\n      dup4\n        /* \"#utility.yul\":10812:10830   */\n      add\n        /* \"#utility.yul\":10805:10839   */\n      mstore\n        /* \"#utility.yul\":10889:10895   */\n      dup3\n        /* \"#utility.yul\":10882:10896   */\n      iszero\n        /* \"#utility.yul\":10875:10897   */\n      iszero\n        /* \"#utility.yul\":10870:10872   */\n      0x60\n        /* \"#utility.yul\":10859:10868   */\n      dup4\n        /* \"#utility.yul\":10855:10873   */\n      add\n        /* \"#utility.yul\":10848:10898   */\n      mstore\n        /* \"#utility.yul\":10284:10904   */\n      swap7\n      swap6\n      pop\n      pop\n      pop\n      pop\n      pop\n      pop\n      jump\t// out\n        /* \"#utility.yul\":10909:11037   */\n    tag_178:\n        /* \"#utility.yul\":10976:10985   */\n      dup2\n      dup2\n      sub\n        /* \"#utility.yul\":10997:11008   */\n      dup2\n      dup2\n      gt\n        /* \"#utility.yul\":10994:11031   */\n      iszero\n      tag_144\n      jumpi\n        /* \"#utility.yul\":11011:11029   */\n      tag_144\n      tag_198\n      jump\t// in\n\n    auxdata: 0xa264697066735822122018f69dc1182329f02bfedeb2167f464d81c71e2e7567c1a1a9f4bf2a9789357d64736f6c634300081a0033\n}\n",
				"bytecode": {
					"linkReferences": {},
					"object": "60a0604052348015600f57600080fd5b50604051611463380380611463833981016040819052602c91603c565b6001600160a01b0316608052606a565b600060208284031215604d57600080fd5b81516001600160a01b0381168114606357600080fd5b9392505050565b6080516113c26100a16000396000818161021d015281816102820152818161032a0152818161085a01526108ac01526113c26000f3fe6080604052600436106100a05760003560e01c80634cd06072116100645780634cd060721461017a578063764232bf1461018f57806383090407146101bf5780638994dd8e146101f85780638da5cb5b1461020b578063a0c15b771461025757600080fd5b80630d8f7614146100e15780630f138bfe146100eb5780632e31ddf11461010d5780632e4e25311461012d5780634652e69b1461015a57600080fd5b366100dc5760405134815233907fe6d858f14d755446648a6e0c8ab8b5a0f58ccc7920d4c910b0454e4dcd869af09060200160405180910390a2005b600080fd5b6100e9610277565b005b3480156100f757600080fd5b50475b6040519081526020015b60405180910390f35b34801561011957600080fd5b506100e9610128366004610e59565b61031f565b34801561013957600080fd5b5061014d610148366004610f1b565b61071d565b6040516101049190610f61565b34801561016657600080fd5b506100fa610175366004610ff7565b61080c565b34801561018657600080fd5b506100fa61084d565b34801561019b57600080fd5b506101af6101aa366004610ff7565b61089f565b6040519015158152602001610104565b3480156101cb57600080fd5b506100fa6101da366004610f1b565b6001600160a01b031660009081526002602052604090206001015490565b6100e96102063660046110c1565b61092c565b34801561021757600080fd5b5061023f7f000000000000000000000000000000000000000000000000000000000000000081565b6040516001600160a01b039091168152602001610104565b34801561026357600080fd5b506100e96102723660046110c1565b610a86565b336001600160a01b037f000000000000000000000000000000000000000000000000000000000000000016146102c0576040516365b4837360e01b815260040160405180910390fd5b600034116102e857604051632aa1cd8d60e01b81523460048201526024015b60405180910390fd5b60405134815233907fe6d858f14d755446648a6e0c8ab8b5a0f58ccc7920d4c910b0454e4dcd869af09060200160405180910390a2565b336001600160a01b037f00000000000000000000000000000000000000000000000000000000000000001614610368576040516365b4837360e01b815260040160405180910390fd5b8461038957604051631bd0000760e11b8152600481018690526024016102df565b826103aa5760405163179450c960e21b8152600481018490526024016102df565b806103cb5760405163178ca9eb60e31b8152600481018290526024016102df565b8483148015906103db5750828114155b1561040a57604051633d2832f960e01b81526004810186905260248101849052604481018290526064016102df565b60005b8581101561069c5782828281811061042757610427611135565b905060200201356001600082825461043f9190611161565b9091555060029050600088888481811061045b5761045b611135565b90506020020160208101906104709190610f1b565b6001600160a01b03168152602081019190915260400160002085858381811061049b5761049b611135565b90506020028101906104ad9190611174565b825460018101845560009384526020909320909201916104cd9183611244565b508282828181106104e0576104e0611135565b90506020020135600260008989858181106104fd576104fd611135565b90506020020160208101906105129190610f1b565b6001600160a01b03166001600160a01b0316815260200190815260200160002060010160008282546105449190611161565b90915550839050828281811061055c5761055c611135565b905060200201356003600089898581811061057957610579611135565b905060200201602081019061058e9190610f1b565b6001600160a01b03166001600160a01b031681526020019081526020016000208686848181106105c0576105c0611135565b90506020028101906105d29190611174565b6040516105e0929190611304565b90815260200160405180910390206001018190555060016003600089898581811061060d5761060d611135565b90506020020160208101906106229190610f1b565b6001600160a01b03166001600160a01b0316815260200190815260200160002086868481811061065457610654611135565b90506020028101906106669190611174565b604051610674929190611304565b908152604051908190036020019020805491151560ff1990921691909117905560010161040d565b506040805160808082526017908201527f4e6f6465207374616b6520696e666f207570646174656400000000000000000060a0820152600060208201819052918101829052600160608201527f5f0fdd6f33919218d99e95dadeb52206af20443cd68b7711230c6d19282e4e2b9060c00160405180910390a2505050505050565b6001600160a01b0381166000908152600260209081526040808320805482518185028101850190935280835260609492939192909184015b82821015610801578382906000526020600020018054610774906111bb565b80601f01602080910402602001604051908101604052809291908181526020018280546107a0906111bb565b80156107ed5780601f106107c2576101008083540402835291602001916107ed565b820191906000526020600020905b8154815290600101906020018083116107d057829003601f168201915b505050505081526020019060010190610755565b505050509050919050565b6001600160a01b0382166000908152600360205260408082209051610832908490611314565b90815260200160405180910390206001015490505b92915050565b6000336001600160a01b037f00000000000000000000000000000000000000000000000000000000000000001614610898576040516365b4837360e01b815260040160405180910390fd5b5060015490565b6000336001600160a01b037f000000000000000000000000000000000000000000000000000000000000000016146108ea576040516365b4837360e01b815260040160405180910390fd5b6001600160a01b038316600090815260036020526040908190209051610911908490611314565b9081526040519081900360200190205460ff16905092915050565b6032341161094f576040516385d649f760e01b81523460048201526024016102df565b34600160008282546109619190611161565b909155505033600090815260026020908152604082208054600181018255908352912001610990828483611244565b5033600090815260026020526040812060010180543492906109b3908490611161565b909155505033600090815260036020526040908190209051600191906109dc9085908590611304565b9081526040805160209281900383018120805460ff191694151594909417909355336000908152600390925290203491610a199085908590611304565b908152604080519182900360209081018320600190810194909455336000818152600290925291902083015490927f5f0fdd6f33919218d99e95dadeb52206af20443cd68b7711230c6d19282e4e2b92610a7a928792879234929190611330565b60405180910390a25050565b60005460ff1615610aaa576040516329f745a760e01b815260040160405180910390fd5b6000805460ff1916600117815533815260036020526040908190209051610ad49084908490611304565b9081526040519081900360200190205460ff16610b375733600090815260036020526040908190209051610b0b9084908490611304565b908152604051908190036020018120546319e6e2c160e11b825260ff16151560048201526024016102df565b33600090815260036020526040908190209051610b579084908490611304565b908152602001604051809103902060010154471015610b8b57604051633e4673d160e01b81524760048201526024016102df565b33600090815260036020526040908190209051610bab9084908490611304565b90815260200160405180910390206001015460026000336001600160a01b03166001600160a01b031681526020019081526020016000206001016000828254610bf49190611379565b909155505033600090815260036020526040908190209051610c199084908490611304565b90815260200160405180910390206001015460016000828254610c3c9190611379565b9091555050336000908152600360205260408082209051610c609085908590611304565b9081526040805160209281900383018120805460ff191694151594909417909355336000908152600390925281209091610c9d9085908590611304565b9081526040805191829003602090810183206001019390935533600081815260039094529083209091610cd39086908690611304565b9081526040519081900360200181206001015490600081818185875af1925050503d8060008114610d20576040519150601f19603f3d011682016040523d82523d6000602084013e610d25565b606091505b5050905080610d4b57604051630bdef88b60e11b815281151560048201526024016102df565b336000818152600360205260409081902090517f5f0fdd6f33919218d99e95dadeb52206af20443cd68b7711230c6d19282e4e2b918691869190610d929084908490611304565b90815260408051602092819003830181206001908101543360009081526002865284812090920154600390955292902091929190610dd3908b908b90611304565b90815260405190819003602001812054610df6959493929160ff90911690611330565b60405180910390a250506000805460ff1916905550565b60008083601f840112610e1f57600080fd5b50813567ffffffffffffffff811115610e3757600080fd5b6020830191508360208260051b8501011115610e5257600080fd5b9250929050565b60008060008060008060608789031215610e7257600080fd5b863567ffffffffffffffff811115610e8957600080fd5b610e9589828a01610e0d565b909750955050602087013567ffffffffffffffff811115610eb557600080fd5b610ec189828a01610e0d565b909550935050604087013567ffffffffffffffff811115610ee157600080fd5b610eed89828a01610e0d565b979a9699509497509295939492505050565b80356001600160a01b0381168114610f1657600080fd5b919050565b600060208284031215610f2d57600080fd5b610f3682610eff565b9392505050565b60005b83811015610f58578181015183820152602001610f40565b50506000910152565b6000602082016020835280845180835260408501915060408160051b86010192506020860160005b82811015610fd557603f1987860301845281518051808752610fb2816020890160208501610f3d565b601f01601f19169590950160209081019550938401939190910190600101610f89565b50929695505050505050565b634e487b7160e01b600052604160045260246000fd5b6000806040838503121561100a57600080fd5b61101383610eff565b9150602083013567ffffffffffffffff81111561102f57600080fd5b8301601f8101851361104057600080fd5b803567ffffffffffffffff81111561105a5761105a610fe1565b604051601f8201601f19908116603f0116810167ffffffffffffffff8111828210171561108957611089610fe1565b6040528181528282016020018710156110a157600080fd5b816020840160208301376000602083830101528093505050509250929050565b600080602083850312156110d457600080fd5b823567ffffffffffffffff8111156110eb57600080fd5b8301601f810185136110fc57600080fd5b803567ffffffffffffffff81111561111357600080fd5b85602082840101111561112557600080fd5b6020919091019590945092505050565b634e487b7160e01b600052603260045260246000fd5b634e487b7160e01b600052601160045260246000fd5b808201808211156108475761084761114b565b6000808335601e1984360301811261118b57600080fd5b83018035915067ffffffffffffffff8211156111a657600080fd5b602001915036819003821315610e5257600080fd5b600181811c908216806111cf57607f821691505b6020821081036111ef57634e487b7160e01b600052602260045260246000fd5b50919050565b601f82111561123f57806000526020600020601f840160051c8101602085101561121c5750805b601f840160051c820191505b8181101561123c5760008155600101611228565b50505b505050565b67ffffffffffffffff83111561125c5761125c610fe1565b6112708361126a83546111bb565b836111f5565b6000601f8411600181146112a4576000851561128c5750838201355b600019600387901b1c1916600186901b17835561123c565b600083815260209020601f19861690835b828110156112d557868501358255602094850194600190920191016112b5565b50868210156112f25760001960f88860031b161c19848701351681555b505060018560011b0183555050505050565b8183823760009101908152919050565b60008251611326818460208701610f3d565b9190910192915050565b60808152846080820152848660a0830137600060a08683010152600060a0601f19601f880116830101905084602083015283604083015282151560608301529695505050505050565b818103818111156108475761084761114b56fea264697066735822122018f69dc1182329f02bfedeb2167f464d81c71e2e7567c1a1a9f4bf2a9789357d64736f6c634300081a0033",
					"opcodes": "PUSH1 0xA0 PUSH1 0x40 MSTORE CALLVALUE DUP1 ISZERO PUSH1 0xF JUMPI PUSH1 0x0 DUP1 REVERT JUMPDEST POP PUSH1 0x40 MLOAD PUSH2 0x1463 CODESIZE SUB DUP1 PUSH2 0x1463 DUP4 CODECOPY DUP2 ADD PUSH1 0x40 DUP2 SWAP1 MSTORE PUSH1 0x2C SWAP2 PUSH1 0x3C JUMP JUMPDEST PUSH1 0x1 PUSH1 0x1 PUSH1 0xA0 SHL SUB AND PUSH1 0x80 MSTORE PUSH1 0x6A JUMP JUMPDEST PUSH1 0x0 PUSH1 0x20 DUP3 DUP5 SUB SLT ISZERO PUSH1 0x4D JUMPI PUSH1 0x0 DUP1 REVERT JUMPDEST DUP2 MLOAD PUSH1 0x1 PUSH1 0x1 PUSH1 0xA0 SHL SUB DUP2 AND DUP2 EQ PUSH1 0x63 JUMPI PUSH1 0x0 DUP1 REVERT JUMPDEST SWAP4 SWAP3 POP POP POP JUMP JUMPDEST PUSH1 0x80 MLOAD PUSH2 0x13C2 PUSH2 0xA1 PUSH1 0x0 CODECOPY PUSH1 0x0 DUP2 DUP2 PUSH2 0x21D ADD MSTORE DUP2 DUP2 PUSH2 0x282 ADD MSTORE DUP2 DUP2 PUSH2 0x32A ADD MSTORE DUP2 DUP2 PUSH2 0x85A ADD MSTORE PUSH2 0x8AC ADD MSTORE PUSH2 0x13C2 PUSH1 0x0 RETURN INVALID PUSH1 0x80 PUSH1 0x40 MSTORE PUSH1 0x4 CALLDATASIZE LT PUSH2 0xA0 JUMPI PUSH1 0x0 CALLDATALOAD PUSH1 0xE0 SHR DUP1 PUSH4 0x4CD06072 GT PUSH2 0x64 JUMPI DUP1 PUSH4 0x4CD06072 EQ PUSH2 0x17A JUMPI DUP1 PUSH4 0x764232BF EQ PUSH2 0x18F JUMPI DUP1 PUSH4 0x83090407 EQ PUSH2 0x1BF JUMPI DUP1 PUSH4 0x8994DD8E EQ PUSH2 0x1F8 JUMPI DUP1 PUSH4 0x8DA5CB5B EQ PUSH2 0x20B JUMPI DUP1 PUSH4 0xA0C15B77 EQ PUSH2 0x257 JUMPI PUSH1 0x0 DUP1 REVERT JUMPDEST DUP1 PUSH4 0xD8F7614 EQ PUSH2 0xE1 JUMPI DUP1 PUSH4 0xF138BFE EQ PUSH2 0xEB JUMPI DUP1 PUSH4 0x2E31DDF1 EQ PUSH2 0x10D JUMPI DUP1 PUSH4 0x2E4E2531 EQ PUSH2 0x12D JUMPI DUP1 PUSH4 0x4652E69B EQ PUSH2 0x15A JUMPI PUSH1 0x0 DUP1 REVERT JUMPDEST CALLDATASIZE PUSH2 0xDC JUMPI PUSH1 0x40 MLOAD CALLVALUE DUP2 MSTORE CALLER SWAP1 PUSH32 0xE6D858F14D755446648A6E0C8AB8B5A0F58CCC7920D4C910B0454E4DCD869AF0 SWAP1 PUSH1 0x20 ADD PUSH1 0x40 MLOAD DUP1 SWAP2 SUB SWAP1 LOG2 STOP JUMPDEST PUSH1 0x0 DUP1 REVERT JUMPDEST PUSH2 0xE9 PUSH2 0x277 JUMP JUMPDEST STOP JUMPDEST CALLVALUE DUP1 ISZERO PUSH2 0xF7 JUMPI PUSH1 0x0 DUP1 REVERT JUMPDEST POP SELFBALANCE JUMPDEST PUSH1 0x40 MLOAD SWAP1 DUP2 MSTORE PUSH1 0x20 ADD JUMPDEST PUSH1 0x40 MLOAD DUP1 SWAP2 SUB SWAP1 RETURN JUMPDEST CALLVALUE DUP1 ISZERO PUSH2 0x119 JUMPI PUSH1 0x0 DUP1 REVERT JUMPDEST POP PUSH2 0xE9 PUSH2 0x128 CALLDATASIZE PUSH1 0x4 PUSH2 0xE59 JUMP JUMPDEST PUSH2 0x31F JUMP JUMPDEST CALLVALUE DUP1 ISZERO PUSH2 0x139 JUMPI PUSH1 0x0 DUP1 REVERT JUMPDEST POP PUSH2 0x14D PUSH2 0x148 CALLDATASIZE PUSH1 0x4 PUSH2 0xF1B JUMP JUMPDEST PUSH2 0x71D JUMP JUMPDEST PUSH1 0x40 MLOAD PUSH2 0x104 SWAP2 SWAP1 PUSH2 0xF61 JUMP JUMPDEST CALLVALUE DUP1 ISZERO PUSH2 0x166 JUMPI PUSH1 0x0 DUP1 REVERT JUMPDEST POP PUSH2 0xFA PUSH2 0x175 CALLDATASIZE PUSH1 0x4 PUSH2 0xFF7 JUMP JUMPDEST PUSH2 0x80C JUMP JUMPDEST CALLVALUE DUP1 ISZERO PUSH2 0x186 JUMPI PUSH1 0x0 DUP1 REVERT JUMPDEST POP PUSH2 0xFA PUSH2 0x84D JUMP JUMPDEST CALLVALUE DUP1 ISZERO PUSH2 0x19B JUMPI PUSH1 0x0 DUP1 REVERT JUMPDEST POP PUSH2 0x1AF PUSH2 0x1AA CALLDATASIZE PUSH1 0x4 PUSH2 0xFF7 JUMP JUMPDEST PUSH2 0x89F JUMP JUMPDEST PUSH1 0x40 MLOAD SWAP1 ISZERO ISZERO DUP2 MSTORE PUSH1 0x20 ADD PUSH2 0x104 JUMP JUMPDEST CALLVALUE DUP1 ISZERO PUSH2 0x1CB JUMPI PUSH1 0x0 DUP1 REVERT JUMPDEST POP PUSH2 0xFA PUSH2 0x1DA CALLDATASIZE PUSH1 0x4 PUSH2 0xF1B JUMP JUMPDEST PUSH1 0x1 PUSH1 0x1 PUSH1 0xA0 SHL SUB AND PUSH1 0x0 SWAP1 DUP2 MSTORE PUSH1 0x2 PUSH1 0x20 MSTORE PUSH1 0x40 SWAP1 KECCAK256 PUSH1 0x1 ADD SLOAD SWAP1 JUMP JUMPDEST PUSH2 0xE9 PUSH2 0x206 CALLDATASIZE PUSH1 0x4 PUSH2 0x10C1 JUMP JUMPDEST PUSH2 0x92C JUMP JUMPDEST CALLVALUE DUP1 ISZERO PUSH2 0x217 JUMPI PUSH1 0x0 DUP1 REVERT JUMPDEST POP PUSH2 0x23F PUSH32 0x0 DUP2 JUMP JUMPDEST PUSH1 0x40 MLOAD PUSH1 0x1 PUSH1 0x1 PUSH1 0xA0 SHL SUB SWAP1 SWAP2 AND DUP2 MSTORE PUSH1 0x20 ADD PUSH2 0x104 JUMP JUMPDEST CALLVALUE DUP1 ISZERO PUSH2 0x263 JUMPI PUSH1 0x0 DUP1 REVERT JUMPDEST POP PUSH2 0xE9 PUSH2 0x272 CALLDATASIZE PUSH1 0x4 PUSH2 0x10C1 JUMP JUMPDEST PUSH2 0xA86 JUMP JUMPDEST CALLER PUSH1 0x1 PUSH1 0x1 PUSH1 0xA0 SHL SUB PUSH32 0x0 AND EQ PUSH2 0x2C0 JUMPI PUSH1 0x40 MLOAD PUSH4 0x65B48373 PUSH1 0xE0 SHL DUP2 MSTORE PUSH1 0x4 ADD PUSH1 0x40 MLOAD DUP1 SWAP2 SUB SWAP1 REVERT JUMPDEST PUSH1 0x0 CALLVALUE GT PUSH2 0x2E8 JUMPI PUSH1 0x40 MLOAD PUSH4 0x2AA1CD8D PUSH1 0xE0 SHL DUP2 MSTORE CALLVALUE PUSH1 0x4 DUP3 ADD MSTORE PUSH1 0x24 ADD JUMPDEST PUSH1 0x40 MLOAD DUP1 SWAP2 SUB SWAP1 REVERT JUMPDEST PUSH1 0x40 MLOAD CALLVALUE DUP2 MSTORE CALLER SWAP1 PUSH32 0xE6D858F14D755446648A6E0C8AB8B5A0F58CCC7920D4C910B0454E4DCD869AF0 SWAP1 PUSH1 0x20 ADD PUSH1 0x40 MLOAD DUP1 SWAP2 SUB SWAP1 LOG2 JUMP JUMPDEST CALLER PUSH1 0x1 PUSH1 0x1 PUSH1 0xA0 SHL SUB PUSH32 0x0 AND EQ PUSH2 0x368 JUMPI PUSH1 0x40 MLOAD PUSH4 0x65B48373 PUSH1 0xE0 SHL DUP2 MSTORE PUSH1 0x4 ADD PUSH1 0x40 MLOAD DUP1 SWAP2 SUB SWAP1 REVERT JUMPDEST DUP5 PUSH2 0x389 JUMPI PUSH1 0x40 MLOAD PUSH4 0x1BD00007 PUSH1 0xE1 SHL DUP2 MSTORE PUSH1 0x4 DUP2 ADD DUP7 SWAP1 MSTORE PUSH1 0x24 ADD PUSH2 0x2DF JUMP JUMPDEST DUP3 PUSH2 0x3AA JUMPI PUSH1 0x40 MLOAD PUSH4 0x179450C9 PUSH1 0xE2 SHL DUP2 MSTORE PUSH1 0x4 DUP2 ADD DUP5 SWAP1 MSTORE PUSH1 0x24 ADD PUSH2 0x2DF JUMP JUMPDEST DUP1 PUSH2 0x3CB JUMPI PUSH1 0x40 MLOAD PUSH4 0x178CA9EB PUSH1 0xE3 SHL DUP2 MSTORE PUSH1 0x4 DUP2 ADD DUP3 SWAP1 MSTORE PUSH1 0x24 ADD PUSH2 0x2DF JUMP JUMPDEST DUP5 DUP4 EQ DUP1 ISZERO SWAP1 PUSH2 0x3DB JUMPI POP DUP3 DUP2 EQ ISZERO JUMPDEST ISZERO PUSH2 0x40A JUMPI PUSH1 0x40 MLOAD PUSH4 0x3D2832F9 PUSH1 0xE0 SHL DUP2 MSTORE PUSH1 0x4 DUP2 ADD DUP7 SWAP1 MSTORE PUSH1 0x24 DUP2 ADD DUP5 SWAP1 MSTORE PUSH1 0x44 DUP2 ADD DUP3 SWAP1 MSTORE PUSH1 0x64 ADD PUSH2 0x2DF JUMP JUMPDEST PUSH1 0x0 JUMPDEST DUP6 DUP2 LT ISZERO PUSH2 0x69C JUMPI DUP3 DUP3 DUP3 DUP2 DUP2 LT PUSH2 0x427 JUMPI PUSH2 0x427 PUSH2 0x1135 JUMP JUMPDEST SWAP1 POP PUSH1 0x20 MUL ADD CALLDATALOAD PUSH1 0x1 PUSH1 0x0 DUP3 DUP3 SLOAD PUSH2 0x43F SWAP2 SWAP1 PUSH2 0x1161 JUMP JUMPDEST SWAP1 SWAP2 SSTORE POP PUSH1 0x2 SWAP1 POP PUSH1 0x0 DUP9 DUP9 DUP5 DUP2 DUP2 LT PUSH2 0x45B JUMPI PUSH2 0x45B PUSH2 0x1135 JUMP JUMPDEST SWAP1 POP PUSH1 0x20 MUL ADD PUSH1 0x20 DUP2 ADD SWAP1 PUSH2 0x470 SWAP2 SWAP1 PUSH2 0xF1B JUMP JUMPDEST PUSH1 0x1 PUSH1 0x1 PUSH1 0xA0 SHL SUB AND DUP2 MSTORE PUSH1 0x20 DUP2 ADD SWAP2 SWAP1 SWAP2 MSTORE PUSH1 0x40 ADD PUSH1 0x0 KECCAK256 DUP6 DUP6 DUP4 DUP2 DUP2 LT PUSH2 0x49B JUMPI PUSH2 0x49B PUSH2 0x1135 JUMP JUMPDEST SWAP1 POP PUSH1 0x20 MUL DUP2 ADD SWAP1 PUSH2 0x4AD SWAP2 SWAP1 PUSH2 0x1174 JUMP JUMPDEST DUP3 SLOAD PUSH1 0x1 DUP2 ADD DUP5 SSTORE PUSH1 0x0 SWAP4 DUP5 MSTORE PUSH1 0x20 SWAP1 SWAP4 KECCAK256 SWAP1 SWAP3 ADD SWAP2 PUSH2 0x4CD SWAP2 DUP4 PUSH2 0x1244 JUMP JUMPDEST POP DUP3 DUP3 DUP3 DUP2 DUP2 LT PUSH2 0x4E0 JUMPI PUSH2 0x4E0 PUSH2 0x1135 JUMP JUMPDEST SWAP1 POP PUSH1 0x20 MUL ADD CALLDATALOAD PUSH1 0x2 PUSH1 0x0 DUP10 DUP10 DUP6 DUP2 DUP2 LT PUSH2 0x4FD JUMPI PUSH2 0x4FD PUSH2 0x1135 JUMP JUMPDEST SWAP1 POP PUSH1 0x20 MUL ADD PUSH1 0x20 DUP2 ADD SWAP1 PUSH2 0x512 SWAP2 SWAP1 PUSH2 0xF1B JUMP JUMPDEST PUSH1 0x1 PUSH1 0x1 PUSH1 0xA0 SHL SUB AND PUSH1 0x1 PUSH1 0x1 PUSH1 0xA0 SHL SUB AND DUP2 MSTORE PUSH1 0x20 ADD SWAP1 DUP2 MSTORE PUSH1 0x20 ADD PUSH1 0x0 KECCAK256 PUSH1 0x1 ADD PUSH1 0x0 DUP3 DUP3 SLOAD PUSH2 0x544 SWAP2 SWAP1 PUSH2 0x1161 JUMP JUMPDEST SWAP1 SWAP2 SSTORE POP DUP4 SWAP1 POP DUP3 DUP3 DUP2 DUP2 LT PUSH2 0x55C JUMPI PUSH2 0x55C PUSH2 0x1135 JUMP JUMPDEST SWAP1 POP PUSH1 0x20 MUL ADD CALLDATALOAD PUSH1 0x3 PUSH1 0x0 DUP10 DUP10 DUP6 DUP2 DUP2 LT PUSH2 0x579 JUMPI PUSH2 0x579 PUSH2 0x1135 JUMP JUMPDEST SWAP1 POP PUSH1 0x20 MUL ADD PUSH1 0x20 DUP2 ADD SWAP1 PUSH2 0x58E SWAP2 SWAP1 PUSH2 0xF1B JUMP JUMPDEST PUSH1 0x1 PUSH1 0x1 PUSH1 0xA0 SHL SUB AND PUSH1 0x1 PUSH1 0x1 PUSH1 0xA0 SHL SUB AND DUP2 MSTORE PUSH1 0x20 ADD SWAP1 DUP2 MSTORE PUSH1 0x20 ADD PUSH1 0x0 KECCAK256 DUP7 DUP7 DUP5 DUP2 DUP2 LT PUSH2 0x5C0 JUMPI PUSH2 0x5C0 PUSH2 0x1135 JUMP JUMPDEST SWAP1 POP PUSH1 0x20 MUL DUP2 ADD SWAP1 PUSH2 0x5D2 SWAP2 SWAP1 PUSH2 0x1174 JUMP JUMPDEST PUSH1 0x40 MLOAD PUSH2 0x5E0 SWAP3 SWAP2 SWAP1 PUSH2 0x1304 JUMP JUMPDEST SWAP1 DUP2 MSTORE PUSH1 0x20 ADD PUSH1 0x40 MLOAD DUP1 SWAP2 SUB SWAP1 KECCAK256 PUSH1 0x1 ADD DUP2 SWAP1 SSTORE POP PUSH1 0x1 PUSH1 0x3 PUSH1 0x0 DUP10 DUP10 DUP6 DUP2 DUP2 LT PUSH2 0x60D JUMPI PUSH2 0x60D PUSH2 0x1135 JUMP JUMPDEST SWAP1 POP PUSH1 0x20 MUL ADD PUSH1 0x20 DUP2 ADD SWAP1 PUSH2 0x622 SWAP2 SWAP1 PUSH2 0xF1B JUMP JUMPDEST PUSH1 0x1 PUSH1 0x1 PUSH1 0xA0 SHL SUB AND PUSH1 0x1 PUSH1 0x1 PUSH1 0xA0 SHL SUB AND DUP2 MSTORE PUSH1 0x20 ADD SWAP1 DUP2 MSTORE PUSH1 0x20 ADD PUSH1 0x0 KECCAK256 DUP7 DUP7 DUP5 DUP2 DUP2 LT PUSH2 0x654 JUMPI PUSH2 0x654 PUSH2 0x1135 JUMP JUMPDEST SWAP1 POP PUSH1 0x20 MUL DUP2 ADD SWAP1 PUSH2 0x666 SWAP2 SWAP1 PUSH2 0x1174 JUMP JUMPDEST PUSH1 0x40 MLOAD PUSH2 0x674 SWAP3 SWAP2 SWAP1 PUSH2 0x1304 JUMP JUMPDEST SWAP1 DUP2 MSTORE PUSH1 0x40 MLOAD SWAP1 DUP2 SWAP1 SUB PUSH1 0x20 ADD SWAP1 KECCAK256 DUP1 SLOAD SWAP2 ISZERO ISZERO PUSH1 0xFF NOT SWAP1 SWAP3 AND SWAP2 SWAP1 SWAP2 OR SWAP1 SSTORE PUSH1 0x1 ADD PUSH2 0x40D JUMP JUMPDEST POP PUSH1 0x40 DUP1 MLOAD PUSH1 0x80 DUP1 DUP3 MSTORE PUSH1 0x17 SWAP1 DUP3 ADD MSTORE PUSH32 0x4E6F6465207374616B6520696E666F2075706461746564000000000000000000 PUSH1 0xA0 DUP3 ADD MSTORE PUSH1 0x0 PUSH1 0x20 DUP3 ADD DUP2 SWAP1 MSTORE SWAP2 DUP2 ADD DUP3 SWAP1 MSTORE PUSH1 0x1 PUSH1 0x60 DUP3 ADD MSTORE PUSH32 0x5F0FDD6F33919218D99E95DADEB52206AF20443CD68B7711230C6D19282E4E2B SWAP1 PUSH1 0xC0 ADD PUSH1 0x40 MLOAD DUP1 SWAP2 SUB SWAP1 LOG2 POP POP POP POP POP POP JUMP JUMPDEST PUSH1 0x1 PUSH1 0x1 PUSH1 0xA0 SHL SUB DUP2 AND PUSH1 0x0 SWAP1 DUP2 MSTORE PUSH1 0x2 PUSH1 0x20 SWAP1 DUP2 MSTORE PUSH1 0x40 DUP1 DUP4 KECCAK256 DUP1 SLOAD DUP3 MLOAD DUP2 DUP6 MUL DUP2 ADD DUP6 ADD SWAP1 SWAP4 MSTORE DUP1 DUP4 MSTORE PUSH1 0x60 SWAP5 SWAP3 SWAP4 SWAP2 SWAP3 SWAP1 SWAP2 DUP5 ADD JUMPDEST DUP3 DUP3 LT ISZERO PUSH2 0x801 JUMPI DUP4 DUP3 SWAP1 PUSH1 0x0 MSTORE PUSH1 0x20 PUSH1 0x0 KECCAK256 ADD DUP1 SLOAD PUSH2 0x774 SWAP1 PUSH2 0x11BB JUMP JUMPDEST DUP1 PUSH1 0x1F ADD PUSH1 0x20 DUP1 SWAP2 DIV MUL PUSH1 0x20 ADD PUSH1 0x40 MLOAD SWAP1 DUP2 ADD PUSH1 0x40 MSTORE DUP1 SWAP3 SWAP2 SWAP1 DUP2 DUP2 MSTORE PUSH1 0x20 ADD DUP3 DUP1 SLOAD PUSH2 0x7A0 SWAP1 PUSH2 0x11BB JUMP JUMPDEST DUP1 ISZERO PUSH2 0x7ED JUMPI DUP1 PUSH1 0x1F LT PUSH2 0x7C2 JUMPI PUSH2 0x100 DUP1 DUP4 SLOAD DIV MUL DUP4 MSTORE SWAP2 PUSH1 0x20 ADD SWAP2 PUSH2 0x7ED JUMP JUMPDEST DUP3 ADD SWAP2 SWAP1 PUSH1 0x0 MSTORE PUSH1 0x20 PUSH1 0x0 KECCAK256 SWAP1 JUMPDEST DUP2 SLOAD DUP2 MSTORE SWAP1 PUSH1 0x1 ADD SWAP1 PUSH1 0x20 ADD DUP1 DUP4 GT PUSH2 0x7D0 JUMPI DUP3 SWAP1 SUB PUSH1 0x1F AND DUP3 ADD SWAP2 JUMPDEST POP POP POP POP POP DUP2 MSTORE PUSH1 0x20 ADD SWAP1 PUSH1 0x1 ADD SWAP1 PUSH2 0x755 JUMP JUMPDEST POP POP POP POP SWAP1 POP SWAP2 SWAP1 POP JUMP JUMPDEST PUSH1 0x1 PUSH1 0x1 PUSH1 0xA0 SHL SUB DUP3 AND PUSH1 0x0 SWAP1 DUP2 MSTORE PUSH1 0x3 PUSH1 0x20 MSTORE PUSH1 0x40 DUP1 DUP3 KECCAK256 SWAP1 MLOAD PUSH2 0x832 SWAP1 DUP5 SWAP1 PUSH2 0x1314 JUMP JUMPDEST SWAP1 DUP2 MSTORE PUSH1 0x20 ADD PUSH1 0x40 MLOAD DUP1 SWAP2 SUB SWAP1 KECCAK256 PUSH1 0x1 ADD SLOAD SWAP1 POP JUMPDEST SWAP3 SWAP2 POP POP JUMP JUMPDEST PUSH1 0x0 CALLER PUSH1 0x1 PUSH1 0x1 PUSH1 0xA0 SHL SUB PUSH32 0x0 AND EQ PUSH2 0x898 JUMPI PUSH1 0x40 MLOAD PUSH4 0x65B48373 PUSH1 0xE0 SHL DUP2 MSTORE PUSH1 0x4 ADD PUSH1 0x40 MLOAD DUP1 SWAP2 SUB SWAP1 REVERT JUMPDEST POP PUSH1 0x1 SLOAD SWAP1 JUMP JUMPDEST PUSH1 0x0 CALLER PUSH1 0x1 PUSH1 0x1 PUSH1 0xA0 SHL SUB PUSH32 0x0 AND EQ PUSH2 0x8EA JUMPI PUSH1 0x40 MLOAD PUSH4 0x65B48373 PUSH1 0xE0 SHL DUP2 MSTORE PUSH1 0x4 ADD PUSH1 0x40 MLOAD DUP1 SWAP2 SUB SWAP1 REVERT JUMPDEST PUSH1 0x1 PUSH1 0x1 PUSH1 0xA0 SHL SUB DUP4 AND PUSH1 0x0 SWAP1 DUP2 MSTORE PUSH1 0x3 PUSH1 0x20 MSTORE PUSH1 0x40 SWAP1 DUP2 SWAP1 KECCAK256 SWAP1 MLOAD PUSH2 0x911 SWAP1 DUP5 SWAP1 PUSH2 0x1314 JUMP JUMPDEST SWAP1 DUP2 MSTORE PUSH1 0x40 MLOAD SWAP1 DUP2 SWAP1 SUB PUSH1 0x20 ADD SWAP1 KECCAK256 SLOAD PUSH1 0xFF AND SWAP1 POP SWAP3 SWAP2 POP POP JUMP JUMPDEST PUSH1 0x32 CALLVALUE GT PUSH2 0x94F JUMPI PUSH1 0x40 MLOAD PUSH4 0x85D649F7 PUSH1 0xE0 SHL DUP2 MSTORE CALLVALUE PUSH1 0x4 DUP3 ADD MSTORE PUSH1 0x24 ADD PUSH2 0x2DF JUMP JUMPDEST CALLVALUE PUSH1 0x1 PUSH1 0x0 DUP3 DUP3 SLOAD PUSH2 0x961 SWAP2 SWAP1 PUSH2 0x1161 JUMP JUMPDEST SWAP1 SWAP2 SSTORE POP POP CALLER PUSH1 0x0 SWAP1 DUP2 MSTORE PUSH1 0x2 PUSH1 0x20 SWAP1 DUP2 MSTORE PUSH1 0x40 DUP3 KECCAK256 DUP1 SLOAD PUSH1 0x1 DUP2 ADD DUP3 SSTORE SWAP1 DUP4 MSTORE SWAP2 KECCAK256 ADD PUSH2 0x990 DUP3 DUP5 DUP4 PUSH2 0x1244 JUMP JUMPDEST POP CALLER PUSH1 0x0 SWAP1 DUP2 MSTORE PUSH1 0x2 PUSH1 0x20 MSTORE PUSH1 0x40 DUP2 KECCAK256 PUSH1 0x1 ADD DUP1 SLOAD CALLVALUE SWAP3 SWAP1 PUSH2 0x9B3 SWAP1 DUP5 SWAP1 PUSH2 0x1161 JUMP JUMPDEST SWAP1 SWAP2 SSTORE POP POP CALLER PUSH1 0x0 SWAP1 DUP2 MSTORE PUSH1 0x3 PUSH1 0x20 MSTORE PUSH1 0x40 SWAP1 DUP2 SWAP1 KECCAK256 SWAP1 MLOAD PUSH1 0x1 SWAP2 SWAP1 PUSH2 0x9DC SWAP1 DUP6 SWAP1 DUP6 SWAP1 PUSH2 0x1304 JUMP JUMPDEST SWAP1 DUP2 MSTORE PUSH1 0x40 DUP1 MLOAD PUSH1 0x20 SWAP3 DUP2 SWAP1 SUB DUP4 ADD DUP2 KECCAK256 DUP1 SLOAD PUSH1 0xFF NOT AND SWAP5 ISZERO ISZERO SWAP5 SWAP1 SWAP5 OR SWAP1 SWAP4 SSTORE CALLER PUSH1 0x0 SWAP1 DUP2 MSTORE PUSH1 0x3 SWAP1 SWAP3 MSTORE SWAP1 KECCAK256 CALLVALUE SWAP2 PUSH2 0xA19 SWAP1 DUP6 SWAP1 DUP6 SWAP1 PUSH2 0x1304 JUMP JUMPDEST SWAP1 DUP2 MSTORE PUSH1 0x40 DUP1 MLOAD SWAP2 DUP3 SWAP1 SUB PUSH1 0x20 SWAP1 DUP2 ADD DUP4 KECCAK256 PUSH1 0x1 SWAP1 DUP2 ADD SWAP5 SWAP1 SWAP5 SSTORE CALLER PUSH1 0x0 DUP2 DUP2 MSTORE PUSH1 0x2 SWAP1 SWAP3 MSTORE SWAP2 SWAP1 KECCAK256 DUP4 ADD SLOAD SWAP1 SWAP3 PUSH32 0x5F0FDD6F33919218D99E95DADEB52206AF20443CD68B7711230C6D19282E4E2B SWAP3 PUSH2 0xA7A SWAP3 DUP8 SWAP3 DUP8 SWAP3 CALLVALUE SWAP3 SWAP2 SWAP1 PUSH2 0x1330 JUMP JUMPDEST PUSH1 0x40 MLOAD DUP1 SWAP2 SUB SWAP1 LOG2 POP POP JUMP JUMPDEST PUSH1 0x0 SLOAD PUSH1 0xFF AND ISZERO PUSH2 0xAAA JUMPI PUSH1 0x40 MLOAD PUSH4 0x29F745A7 PUSH1 0xE0 SHL DUP2 MSTORE PUSH1 0x4 ADD PUSH1 0x40 MLOAD DUP1 SWAP2 SUB SWAP1 REVERT JUMPDEST PUSH1 0x0 DUP1 SLOAD PUSH1 0xFF NOT AND PUSH1 0x1 OR DUP2 SSTORE CALLER DUP2 MSTORE PUSH1 0x3 PUSH1 0x20 MSTORE PUSH1 0x40 SWAP1 DUP2 SWAP1 KECCAK256 SWAP1 MLOAD PUSH2 0xAD4 SWAP1 DUP5 SWAP1 DUP5 SWAP1 PUSH2 0x1304 JUMP JUMPDEST SWAP1 DUP2 MSTORE PUSH1 0x40 MLOAD SWAP1 DUP2 SWAP1 SUB PUSH1 0x20 ADD SWAP1 KECCAK256 SLOAD PUSH1 0xFF AND PUSH2 0xB37 JUMPI CALLER PUSH1 0x0 SWAP1 DUP2 MSTORE PUSH1 0x3 PUSH1 0x20 MSTORE PUSH1 0x40 SWAP1 DUP2 SWAP1 KECCAK256 SWAP1 MLOAD PUSH2 0xB0B SWAP1 DUP5 SWAP1 DUP5 SWAP1 PUSH2 0x1304 JUMP JUMPDEST SWAP1 DUP2 MSTORE PUSH1 0x40 MLOAD SWAP1 DUP2 SWAP1 SUB PUSH1 0x20 ADD DUP2 KECCAK256 SLOAD PUSH4 0x19E6E2C1 PUSH1 0xE1 SHL DUP3 MSTORE PUSH1 0xFF AND ISZERO ISZERO PUSH1 0x4 DUP3 ADD MSTORE PUSH1 0x24 ADD PUSH2 0x2DF JUMP JUMPDEST CALLER PUSH1 0x0 SWAP1 DUP2 MSTORE PUSH1 0x3 PUSH1 0x20 MSTORE PUSH1 0x40 SWAP1 DUP2 SWAP1 KECCAK256 SWAP1 MLOAD PUSH2 0xB57 SWAP1 DUP5 SWAP1 DUP5 SWAP1 PUSH2 0x1304 JUMP JUMPDEST SWAP1 DUP2 MSTORE PUSH1 0x20 ADD PUSH1 0x40 MLOAD DUP1 SWAP2 SUB SWAP1 KECCAK256 PUSH1 0x1 ADD SLOAD SELFBALANCE LT ISZERO PUSH2 0xB8B JUMPI PUSH1 0x40 MLOAD PUSH4 0x3E4673D1 PUSH1 0xE0 SHL DUP2 MSTORE SELFBALANCE PUSH1 0x4 DUP3 ADD MSTORE PUSH1 0x24 ADD PUSH2 0x2DF JUMP JUMPDEST CALLER PUSH1 0x0 SWAP1 DUP2 MSTORE PUSH1 0x3 PUSH1 0x20 MSTORE PUSH1 0x40 SWAP1 DUP2 SWAP1 KECCAK256 SWAP1 MLOAD PUSH2 0xBAB SWAP1 DUP5 SWAP1 DUP5 SWAP1 PUSH2 0x1304 JUMP JUMPDEST SWAP1 DUP2 MSTORE PUSH1 0x20 ADD PUSH1 0x40 MLOAD DUP1 SWAP2 SUB SWAP1 KECCAK256 PUSH1 0x1 ADD SLOAD PUSH1 0x2 PUSH1 0x0 CALLER PUSH1 0x1 PUSH1 0x1 PUSH1 0xA0 SHL SUB AND PUSH1 0x1 PUSH1 0x1 PUSH1 0xA0 SHL SUB AND DUP2 MSTORE PUSH1 0x20 ADD SWAP1 DUP2 MSTORE PUSH1 0x20 ADD PUSH1 0x0 KECCAK256 PUSH1 0x1 ADD PUSH1 0x0 DUP3 DUP3 SLOAD PUSH2 0xBF4 SWAP2 SWAP1 PUSH2 0x1379 JUMP JUMPDEST SWAP1 SWAP2 SSTORE POP POP CALLER PUSH1 0x0 SWAP1 DUP2 MSTORE PUSH1 0x3 PUSH1 0x20 MSTORE PUSH1 0x40 SWAP1 DUP2 SWAP1 KECCAK256 SWAP1 MLOAD PUSH2 0xC19 SWAP1 DUP5 SWAP1 DUP5 SWAP1 PUSH2 0x1304 JUMP JUMPDEST SWAP1 DUP2 MSTORE PUSH1 0x20 ADD PUSH1 0x40 MLOAD DUP1 SWAP2 SUB SWAP1 KECCAK256 PUSH1 0x1 ADD SLOAD PUSH1 0x1 PUSH1 0x0 DUP3 DUP3 SLOAD PUSH2 0xC3C SWAP2 SWAP1 PUSH2 0x1379 JUMP JUMPDEST SWAP1 SWAP2 SSTORE POP POP CALLER PUSH1 0x0 SWAP1 DUP2 MSTORE PUSH1 0x3 PUSH1 0x20 MSTORE PUSH1 0x40 DUP1 DUP3 KECCAK256 SWAP1 MLOAD PUSH2 0xC60 SWAP1 DUP6 SWAP1 DUP6 SWAP1 PUSH2 0x1304 JUMP JUMPDEST SWAP1 DUP2 MSTORE PUSH1 0x40 DUP1 MLOAD PUSH1 0x20 SWAP3 DUP2 SWAP1 SUB DUP4 ADD DUP2 KECCAK256 DUP1 SLOAD PUSH1 0xFF NOT AND SWAP5 ISZERO ISZERO SWAP5 SWAP1 SWAP5 OR SWAP1 SWAP4 SSTORE CALLER PUSH1 0x0 SWAP1 DUP2 MSTORE PUSH1 0x3 SWAP1 SWAP3 MSTORE DUP2 KECCAK256 SWAP1 SWAP2 PUSH2 0xC9D SWAP1 DUP6 SWAP1 DUP6 SWAP1 PUSH2 0x1304 JUMP JUMPDEST SWAP1 DUP2 MSTORE PUSH1 0x40 DUP1 MLOAD SWAP2 DUP3 SWAP1 SUB PUSH1 0x20 SWAP1 DUP2 ADD DUP4 KECCAK256 PUSH1 0x1 ADD SWAP4 SWAP1 SWAP4 SSTORE CALLER PUSH1 0x0 DUP2 DUP2 MSTORE PUSH1 0x3 SWAP1 SWAP5 MSTORE SWAP1 DUP4 KECCAK256 SWAP1 SWAP2 PUSH2 0xCD3 SWAP1 DUP7 SWAP1 DUP7 SWAP1 PUSH2 0x1304 JUMP JUMPDEST SWAP1 DUP2 MSTORE PUSH1 0x40 MLOAD SWAP1 DUP2 SWAP1 SUB PUSH1 0x20 ADD DUP2 KECCAK256 PUSH1 0x1 ADD SLOAD SWAP1 PUSH1 0x0 DUP2 DUP2 DUP2 DUP6 DUP8 GAS CALL SWAP3 POP POP POP RETURNDATASIZE DUP1 PUSH1 0x0 DUP2 EQ PUSH2 0xD20 JUMPI PUSH1 0x40 MLOAD SWAP2 POP PUSH1 0x1F NOT PUSH1 0x3F RETURNDATASIZE ADD AND DUP3 ADD PUSH1 0x40 MSTORE RETURNDATASIZE DUP3 MSTORE RETURNDATASIZE PUSH1 0x0 PUSH1 0x20 DUP5 ADD RETURNDATACOPY PUSH2 0xD25 JUMP JUMPDEST PUSH1 0x60 SWAP2 POP JUMPDEST POP POP SWAP1 POP DUP1 PUSH2 0xD4B JUMPI PUSH1 0x40 MLOAD PUSH4 0xBDEF88B PUSH1 0xE1 SHL DUP2 MSTORE DUP2 ISZERO ISZERO PUSH1 0x4 DUP3 ADD MSTORE PUSH1 0x24 ADD PUSH2 0x2DF JUMP JUMPDEST CALLER PUSH1 0x0 DUP2 DUP2 MSTORE PUSH1 0x3 PUSH1 0x20 MSTORE PUSH1 0x40 SWAP1 DUP2 SWAP1 KECCAK256 SWAP1 MLOAD PUSH32 0x5F0FDD6F33919218D99E95DADEB52206AF20443CD68B7711230C6D19282E4E2B SWAP2 DUP7 SWAP2 DUP7 SWAP2 SWAP1 PUSH2 0xD92 SWAP1 DUP5 SWAP1 DUP5 SWAP1 PUSH2 0x1304 JUMP JUMPDEST SWAP1 DUP2 MSTORE PUSH1 0x40 DUP1 MLOAD PUSH1 0x20 SWAP3 DUP2 SWAP1 SUB DUP4 ADD DUP2 KECCAK256 PUSH1 0x1 SWAP1 DUP2 ADD SLOAD CALLER PUSH1 0x0 SWAP1 DUP2 MSTORE PUSH1 0x2 DUP7 MSTORE DUP5 DUP2 KECCAK256 SWAP1 SWAP3 ADD SLOAD PUSH1 0x3 SWAP1 SWAP6 MSTORE SWAP3 SWAP1 KECCAK256 SWAP2 SWAP3 SWAP2 SWAP1 PUSH2 0xDD3 SWAP1 DUP12 SWAP1 DUP12 SWAP1 PUSH2 0x1304 JUMP JUMPDEST SWAP1 DUP2 MSTORE PUSH1 0x40 MLOAD SWAP1 DUP2 SWAP1 SUB PUSH1 0x20 ADD DUP2 KECCAK256 SLOAD PUSH2 0xDF6 SWAP6 SWAP5 SWAP4 SWAP3 SWAP2 PUSH1 0xFF SWAP1 SWAP2 AND SWAP1 PUSH2 0x1330 JUMP JUMPDEST PUSH1 0x40 MLOAD DUP1 SWAP2 SUB SWAP1 LOG2 POP POP PUSH1 0x0 DUP1 SLOAD PUSH1 0xFF NOT AND SWAP1 SSTORE POP JUMP JUMPDEST PUSH1 0x0 DUP1 DUP4 PUSH1 0x1F DUP5 ADD SLT PUSH2 0xE1F JUMPI PUSH1 0x0 DUP1 REVERT JUMPDEST POP DUP2 CALLDATALOAD PUSH8 0xFFFFFFFFFFFFFFFF DUP2 GT ISZERO PUSH2 0xE37 JUMPI PUSH1 0x0 DUP1 REVERT JUMPDEST PUSH1 0x20 DUP4 ADD SWAP2 POP DUP4 PUSH1 0x20 DUP3 PUSH1 0x5 SHL DUP6 ADD ADD GT ISZERO PUSH2 0xE52 JUMPI PUSH1 0x0 DUP1 REVERT JUMPDEST SWAP3 POP SWAP3 SWAP1 POP JUMP JUMPDEST PUSH1 0x0 DUP1 PUSH1 0x0 DUP1 PUSH1 0x0 DUP1 PUSH1 0x60 DUP8 DUP10 SUB SLT ISZERO PUSH2 0xE72 JUMPI PUSH1 0x0 DUP1 REVERT JUMPDEST DUP7 CALLDATALOAD PUSH8 0xFFFFFFFFFFFFFFFF DUP2 GT ISZERO PUSH2 0xE89 JUMPI PUSH1 0x0 DUP1 REVERT JUMPDEST PUSH2 0xE95 DUP10 DUP3 DUP11 ADD PUSH2 0xE0D JUMP JUMPDEST SWAP1 SWAP8 POP SWAP6 POP POP PUSH1 0x20 DUP8 ADD CALLDATALOAD PUSH8 0xFFFFFFFFFFFFFFFF DUP2 GT ISZERO PUSH2 0xEB5 JUMPI PUSH1 0x0 DUP1 REVERT JUMPDEST PUSH2 0xEC1 DUP10 DUP3 DUP11 ADD PUSH2 0xE0D JUMP JUMPDEST SWAP1 SWAP6 POP SWAP4 POP POP PUSH1 0x40 DUP8 ADD CALLDATALOAD PUSH8 0xFFFFFFFFFFFFFFFF DUP2 GT ISZERO PUSH2 0xEE1 JUMPI PUSH1 0x0 DUP1 REVERT JUMPDEST PUSH2 0xEED DUP10 DUP3 DUP11 ADD PUSH2 0xE0D JUMP JUMPDEST SWAP8 SWAP11 SWAP7 SWAP10 POP SWAP5 SWAP8 POP SWAP3 SWAP6 SWAP4 SWAP5 SWAP3 POP POP POP JUMP JUMPDEST DUP1 CALLDATALOAD PUSH1 0x1 PUSH1 0x1 PUSH1 0xA0 SHL SUB DUP2 AND DUP2 EQ PUSH2 0xF16 JUMPI PUSH1 0x0 DUP1 REVERT JUMPDEST SWAP2 SWAP1 POP JUMP JUMPDEST PUSH1 0x0 PUSH1 0x20 DUP3 DUP5 SUB SLT ISZERO PUSH2 0xF2D JUMPI PUSH1 0x0 DUP1 REVERT JUMPDEST PUSH2 0xF36 DUP3 PUSH2 0xEFF JUMP JUMPDEST SWAP4 SWAP3 POP POP POP JUMP JUMPDEST PUSH1 0x0 JUMPDEST DUP4 DUP2 LT ISZERO PUSH2 0xF58 JUMPI DUP2 DUP2 ADD MLOAD DUP4 DUP3 ADD MSTORE PUSH1 0x20 ADD PUSH2 0xF40 JUMP JUMPDEST POP POP PUSH1 0x0 SWAP2 ADD MSTORE JUMP JUMPDEST PUSH1 0x0 PUSH1 0x20 DUP3 ADD PUSH1 0x20 DUP4 MSTORE DUP1 DUP5 MLOAD DUP1 DUP4 MSTORE PUSH1 0x40 DUP6 ADD SWAP2 POP PUSH1 0x40 DUP2 PUSH1 0x5 SHL DUP7 ADD ADD SWAP3 POP PUSH1 0x20 DUP7 ADD PUSH1 0x0 JUMPDEST DUP3 DUP2 LT ISZERO PUSH2 0xFD5 JUMPI PUSH1 0x3F NOT DUP8 DUP7 SUB ADD DUP5 MSTORE DUP2 MLOAD DUP1 MLOAD DUP1 DUP8 MSTORE PUSH2 0xFB2 DUP2 PUSH1 0x20 DUP10 ADD PUSH1 0x20 DUP6 ADD PUSH2 0xF3D JUMP JUMPDEST PUSH1 0x1F ADD PUSH1 0x1F NOT AND SWAP6 SWAP1 SWAP6 ADD PUSH1 0x20 SWAP1 DUP2 ADD SWAP6 POP SWAP4 DUP5 ADD SWAP4 SWAP2 SWAP1 SWAP2 ADD SWAP1 PUSH1 0x1 ADD PUSH2 0xF89 JUMP JUMPDEST POP SWAP3 SWAP7 SWAP6 POP POP POP POP POP POP JUMP JUMPDEST PUSH4 0x4E487B71 PUSH1 0xE0 SHL PUSH1 0x0 MSTORE PUSH1 0x41 PUSH1 0x4 MSTORE PUSH1 0x24 PUSH1 0x0 REVERT JUMPDEST PUSH1 0x0 DUP1 PUSH1 0x40 DUP4 DUP6 SUB SLT ISZERO PUSH2 0x100A JUMPI PUSH1 0x0 DUP1 REVERT JUMPDEST PUSH2 0x1013 DUP4 PUSH2 0xEFF JUMP JUMPDEST SWAP2 POP PUSH1 0x20 DUP4 ADD CALLDATALOAD PUSH8 0xFFFFFFFFFFFFFFFF DUP2 GT ISZERO PUSH2 0x102F JUMPI PUSH1 0x0 DUP1 REVERT JUMPDEST DUP4 ADD PUSH1 0x1F DUP2 ADD DUP6 SGT PUSH2 0x1040 JUMPI PUSH1 0x0 DUP1 REVERT JUMPDEST DUP1 CALLDATALOAD PUSH8 0xFFFFFFFFFFFFFFFF DUP2 GT ISZERO PUSH2 0x105A JUMPI PUSH2 0x105A PUSH2 0xFE1 JUMP JUMPDEST PUSH1 0x40 MLOAD PUSH1 0x1F DUP3 ADD PUSH1 0x1F NOT SWAP1 DUP2 AND PUSH1 0x3F ADD AND DUP2 ADD PUSH8 0xFFFFFFFFFFFFFFFF DUP2 GT DUP3 DUP3 LT OR ISZERO PUSH2 0x1089 JUMPI PUSH2 0x1089 PUSH2 0xFE1 JUMP JUMPDEST PUSH1 0x40 MSTORE DUP2 DUP2 MSTORE DUP3 DUP3 ADD PUSH1 0x20 ADD DUP8 LT ISZERO PUSH2 0x10A1 JUMPI PUSH1 0x0 DUP1 REVERT JUMPDEST DUP2 PUSH1 0x20 DUP5 ADD PUSH1 0x20 DUP4 ADD CALLDATACOPY PUSH1 0x0 PUSH1 0x20 DUP4 DUP4 ADD ADD MSTORE DUP1 SWAP4 POP POP POP POP SWAP3 POP SWAP3 SWAP1 POP JUMP JUMPDEST PUSH1 0x0 DUP1 PUSH1 0x20 DUP4 DUP6 SUB SLT ISZERO PUSH2 0x10D4 JUMPI PUSH1 0x0 DUP1 REVERT JUMPDEST DUP3 CALLDATALOAD PUSH8 0xFFFFFFFFFFFFFFFF DUP2 GT ISZERO PUSH2 0x10EB JUMPI PUSH1 0x0 DUP1 REVERT JUMPDEST DUP4 ADD PUSH1 0x1F DUP2 ADD DUP6 SGT PUSH2 0x10FC JUMPI PUSH1 0x0 DUP1 REVERT JUMPDEST DUP1 CALLDATALOAD PUSH8 0xFFFFFFFFFFFFFFFF DUP2 GT ISZERO PUSH2 0x1113 JUMPI PUSH1 0x0 DUP1 REVERT JUMPDEST DUP6 PUSH1 0x20 DUP3 DUP5 ADD ADD GT ISZERO PUSH2 0x1125 JUMPI PUSH1 0x0 DUP1 REVERT JUMPDEST PUSH1 0x20 SWAP2 SWAP1 SWAP2 ADD SWAP6 SWAP1 SWAP5 POP SWAP3 POP POP POP JUMP JUMPDEST PUSH4 0x4E487B71 PUSH1 0xE0 SHL PUSH1 0x0 MSTORE PUSH1 0x32 PUSH1 0x4 MSTORE PUSH1 0x24 PUSH1 0x0 REVERT JUMPDEST PUSH4 0x4E487B71 PUSH1 0xE0 SHL PUSH1 0x0 MSTORE PUSH1 0x11 PUSH1 0x4 MSTORE PUSH1 0x24 PUSH1 0x0 REVERT JUMPDEST DUP1 DUP3 ADD DUP1 DUP3 GT ISZERO PUSH2 0x847 JUMPI PUSH2 0x847 PUSH2 0x114B JUMP JUMPDEST PUSH1 0x0 DUP1 DUP4 CALLDATALOAD PUSH1 0x1E NOT DUP5 CALLDATASIZE SUB ADD DUP2 SLT PUSH2 0x118B JUMPI PUSH1 0x0 DUP1 REVERT JUMPDEST DUP4 ADD DUP1 CALLDATALOAD SWAP2 POP PUSH8 0xFFFFFFFFFFFFFFFF DUP3 GT ISZERO PUSH2 0x11A6 JUMPI PUSH1 0x0 DUP1 REVERT JUMPDEST PUSH1 0x20 ADD SWAP2 POP CALLDATASIZE DUP2 SWAP1 SUB DUP3 SGT ISZERO PUSH2 0xE52 JUMPI PUSH1 0x0 DUP1 REVERT JUMPDEST PUSH1 0x1 DUP2 DUP2 SHR SWAP1 DUP3 AND DUP1 PUSH2 0x11CF JUMPI PUSH1 0x7F DUP3 AND SWAP2 POP JUMPDEST PUSH1 0x20 DUP3 LT DUP2 SUB PUSH2 0x11EF JUMPI PUSH4 0x4E487B71 PUSH1 0xE0 SHL PUSH1 0x0 MSTORE PUSH1 0x22 PUSH1 0x4 MSTORE PUSH1 0x24 PUSH1 0x0 REVERT JUMPDEST POP SWAP2 SWAP1 POP JUMP JUMPDEST PUSH1 0x1F DUP3 GT ISZERO PUSH2 0x123F JUMPI DUP1 PUSH1 0x0 MSTORE PUSH1 0x20 PUSH1 0x0 KECCAK256 PUSH1 0x1F DUP5 ADD PUSH1 0x5 SHR DUP2 ADD PUSH1 0x20 DUP6 LT ISZERO PUSH2 0x121C JUMPI POP DUP1 JUMPDEST PUSH1 0x1F DUP5 ADD PUSH1 0x5 SHR DUP3 ADD SWAP2 POP JUMPDEST DUP2 DUP2 LT ISZERO PUSH2 0x123C JUMPI PUSH1 0x0 DUP2 SSTORE PUSH1 0x1 ADD PUSH2 0x1228 JUMP JUMPDEST POP POP JUMPDEST POP POP POP JUMP JUMPDEST PUSH8 0xFFFFFFFFFFFFFFFF DUP4 GT ISZERO PUSH2 0x125C JUMPI PUSH2 0x125C PUSH2 0xFE1 JUMP JUMPDEST PUSH2 0x1270 DUP4 PUSH2 0x126A DUP4 SLOAD PUSH2 0x11BB JUMP JUMPDEST DUP4 PUSH2 0x11F5 JUMP JUMPDEST PUSH1 0x0 PUSH1 0x1F DUP5 GT PUSH1 0x1 DUP2 EQ PUSH2 0x12A4 JUMPI PUSH1 0x0 DUP6 ISZERO PUSH2 0x128C JUMPI POP DUP4 DUP3 ADD CALLDATALOAD JUMPDEST PUSH1 0x0 NOT PUSH1 0x3 DUP8 SWAP1 SHL SHR NOT AND PUSH1 0x1 DUP7 SWAP1 SHL OR DUP4 SSTORE PUSH2 0x123C JUMP JUMPDEST PUSH1 0x0 DUP4 DUP2 MSTORE PUSH1 0x20 SWAP1 KECCAK256 PUSH1 0x1F NOT DUP7 AND SWAP1 DUP4 JUMPDEST DUP3 DUP2 LT ISZERO PUSH2 0x12D5 JUMPI DUP7 DUP6 ADD CALLDATALOAD DUP3 SSTORE PUSH1 0x20 SWAP5 DUP6 ADD SWAP5 PUSH1 0x1 SWAP1 SWAP3 ADD SWAP2 ADD PUSH2 0x12B5 JUMP JUMPDEST POP DUP7 DUP3 LT ISZERO PUSH2 0x12F2 JUMPI PUSH1 0x0 NOT PUSH1 0xF8 DUP9 PUSH1 0x3 SHL AND SHR NOT DUP5 DUP8 ADD CALLDATALOAD AND DUP2 SSTORE JUMPDEST POP POP PUSH1 0x1 DUP6 PUSH1 0x1 SHL ADD DUP4 SSTORE POP POP POP POP POP JUMP JUMPDEST DUP2 DUP4 DUP3 CALLDATACOPY PUSH1 0x0 SWAP2 ADD SWAP1 DUP2 MSTORE SWAP2 SWAP1 POP JUMP JUMPDEST PUSH1 0x0 DUP3 MLOAD PUSH2 0x1326 DUP2 DUP5 PUSH1 0x20 DUP8 ADD PUSH2 0xF3D JUMP JUMPDEST SWAP2 SWAP1 SWAP2 ADD SWAP3 SWAP2 POP POP JUMP JUMPDEST PUSH1 0x80 DUP2 MSTORE DUP5 PUSH1 0x80 DUP3 ADD MSTORE DUP5 DUP7 PUSH1 0xA0 DUP4 ADD CALLDATACOPY PUSH1 0x0 PUSH1 0xA0 DUP7 DUP4 ADD ADD MSTORE PUSH1 0x0 PUSH1 0xA0 PUSH1 0x1F NOT PUSH1 0x1F DUP9 ADD AND DUP4 ADD ADD SWAP1 POP DUP5 PUSH1 0x20 DUP4 ADD MSTORE DUP4 PUSH1 0x40 DUP4 ADD MSTORE DUP3 ISZERO ISZERO PUSH1 0x60 DUP4 ADD MSTORE SWAP7 SWAP6 POP POP POP POP POP POP JUMP JUMPDEST DUP2 DUP2 SUB DUP2 DUP2 GT ISZERO PUSH2 0x847 JUMPI PUSH2 0x847 PUSH2 0x114B JUMP INVALID LOG2 PUSH5 0x6970667358 0x22 SLT KECCAK256 XOR 0xF6 SWAP14 0xC1 XOR 0x23 0x29 CREATE 0x2B INVALID 0xDE 0xB2 AND PUSH32 0x464D81C71E2E7567C1A1A9F4BF2A9789357D64736F6C634300081A0033000000 "
				},
				"gasEstimates": {
					"creation": {
						"codeDepositCost": "1011600",
						"executionCost": "infinite",
						"totalCost": "infinite"
					},
					"external": {
						"addNode(string)": "infinite",
						"checkTreasuryBalance()": "195",
						"deleteNode(string)": "infinite",
						"feedNodeRecord(address[],string[],uint256[])": "infinite",
						"fillTreasury()": "infinite",
						"getNodeIds(address)": "infinite",
						"getStakeAmountOfNode(address,string)": "infinite",
						"nodeExists(address,string)": "infinite",
						"owner()": "infinite",
						"totalStakedOfUser(address)": "2576",
						"totalStakedStorCoins()": "infinite"
					}
				},
				"methodIdentifiers": {
					"addNode(string)": "8994dd8e",
					"checkTreasuryBalance()": "0f138bfe",
					"deleteNode(string)": "a0c15b77",
					"feedNodeRecord(address[],string[],uint256[])": "2e31ddf1",
					"fillTreasury()": "0d8f7614",
					"getNodeIds(address)": "2e4e2531",
					"getStakeAmountOfNode(address,string)": "4652e69b",
					"nodeExists(address,string)": "764232bf",
					"owner()": "8da5cb5b",
					"totalStakedOfUser(address)": "83090407",
					"totalStakedStorCoins()": "4cd06072"
				}
			},
			"storageLayout": {
				"storage": [
					{
						"astId": 14,
						"contract": "EthTesting.sol/storageChain.sol:StakingContract",
						"label": "locked",
						"offset": 0,
						"slot": "0",
						"type": "t_bool"
					},
					{
						"astId": 18,
						"contract": "EthTesting.sol/storageChain.sol:StakingContract",
						"label": "totalStakedTokens",
						"offset": 0,
						"slot": "1",
						"type": "t_uint256"
					},
					{
						"astId": 23,
						"contract": "EthTesting.sol/storageChain.sol:StakingContract",
						"label": "userInfo",
						"offset": 0,
						"slot": "2",
						"type": "t_mapping(t_address,t_struct(UserInfo)7_storage)"
					},
					{
						"astId": 30,
						"contract": "EthTesting.sol/storageChain.sol:StakingContract",
						"label": "stakeInfo",
						"offset": 0,
						"slot": "3",
						"type": "t_mapping(t_address,t_mapping(t_string_memory_ptr,t_struct(StakeInfo)12_storage))"
					}
				],
				"types": {
					"t_address": {
						"encoding": "inplace",
						"label": "address",
						"numberOfBytes": "20"
					},
					"t_array(t_string_storage)dyn_storage": {
						"base": "t_string_storage",
						"encoding": "dynamic_array",
						"label": "string[]",
						"numberOfBytes": "32"
					},
					"t_bool": {
						"encoding": "inplace",
						"label": "bool",
						"numberOfBytes": "1"
					},
					"t_mapping(t_address,t_mapping(t_string_memory_ptr,t_struct(StakeInfo)12_storage))": {
						"encoding": "mapping",
						"key": "t_address",
						"label": "mapping(address => mapping(string => struct StakingContract.StakeInfo))",
						"numberOfBytes": "32",
						"value": "t_mapping(t_string_memory_ptr,t_struct(StakeInfo)12_storage)"
					},
					"t_mapping(t_address,t_struct(UserInfo)7_storage)": {
						"encoding": "mapping",
						"key": "t_address",
						"label": "mapping(address => struct StakingContract.UserInfo)",
						"numberOfBytes": "32",
						"value": "t_struct(UserInfo)7_storage"
					},
					"t_mapping(t_string_memory_ptr,t_struct(StakeInfo)12_storage)": {
						"encoding": "mapping",
						"key": "t_string_memory_ptr",
						"label": "mapping(string => struct StakingContract.StakeInfo)",
						"numberOfBytes": "32",
						"value": "t_struct(StakeInfo)12_storage"
					},
					"t_string_memory_ptr": {
						"encoding": "bytes",
						"label": "string",
						"numberOfBytes": "32"
					},
					"t_string_storage": {
						"encoding": "bytes",
						"label": "string",
						"numberOfBytes": "32"
					},
					"t_struct(StakeInfo)12_storage": {
						"encoding": "inplace",
						"label": "struct StakingContract.StakeInfo",
						"members": [
							{
								"astId": 9,
								"contract": "EthTesting.sol/storageChain.sol:StakingContract",
								"label": "isNodeAlive",
								"offset": 0,
								"slot": "0",
								"type": "t_bool"
							},
							{
								"astId": 11,
								"contract": "EthTesting.sol/storageChain.sol:StakingContract",
								"label": "stakedAmount",
								"offset": 0,
								"slot": "1",
								"type": "t_uint256"
							}
						],
						"numberOfBytes": "64"
					},
					"t_struct(UserInfo)7_storage": {
						"encoding": "inplace",
						"label": "struct StakingContract.UserInfo",
						"members": [
							{
								"astId": 4,
								"contract": "EthTesting.sol/storageChain.sol:StakingContract",
								"label": "nodeIds",
								"offset": 0,
								"slot": "0",
								"type": "t_array(t_string_storage)dyn_storage"
							},
							{
								"astId": 6,
								"contract": "EthTesting.sol/storageChain.sol:StakingContract",
								"label": "totalStakedAmount",
								"offset": 0,
								"slot": "1",
								"type": "t_uint256"
							}
						],
						"numberOfBytes": "64"
					},
					"t_uint256": {
						"encoding": "inplace",
						"label": "uint256",
						"numberOfBytes": "32"
					}
				}
			},
			"userdoc": {
				"kind": "user",
				"methods": {},
				"version": 1
			}
		}
	}
}