{
	"data": {
		"bytecode": {
			"linkReferences": {},
			"object": "608060405234801561000f575f80fd5b50604051611b7c380380611b7c83398101604081905261002e91610127565b826001600160a01b03811661005c57604051631e4fbdf760e01b81525f600482015260240160405180910390fd5b610065816100bd565b50305f9081526006602052604090206001808201929092556706f05b59d3b200006004820181905560059091015580546001600160a01b0319166001600160a01b0392909216919091179055506103e8600355610160565b5f80546001600160a01b038381166001600160a01b0319831681178455604051919092169283917f8be0079c531659141344cd1fd0a4f28419497f9722a3daafe3b4186f6b6457e09190a35050565b80516001600160a01b0381168114610122575f80fd5b919050565b5f805f60608486031215610139575f80fd5b6101428461010c565b92506101506020850161010c565b9150604084015190509250925092565b611a0f8061016d5f395ff3fe608060405234801561000f575f80fd5b506004361061011c575f3560e01c80636399d03d116100a9578063b677d9d21161006e578063b677d9d2146103ad578063bff1f9e1146103b6578063c4351386146103bf578063f2fde38b14610434578063fbea0b0614610447575f80fd5b80636399d03d1461034e5780636ffcc71914610361578063715018a6146103745780638da5cb5b1461037c578063b3c740e81461038c575f80fd5b8063208c86a4116100ef578063208c86a4146101ff57806321d0d9af1461022e5780633774ca2514610241578063456e62ba146102de57806361d464ef146102f3575f80fd5b806308ef962e146101205780630efa82f61461016557806311eac855146101885780631959a0021461019b575b5f80fd5b61014861012e366004611821565b60046020525f90815260409020546001600160a01b031681565b6040516001600160a01b0390911681526020015b60405180910390f35b610178610173366004611853565b61045a565b604051901515815260200161015c565b600154610148906001600160a01b031681565b6101d76101a936600461187b565b60056020525f9081526040902080546001820154600283015460038401546004909401549293919290919085565b604080519586526020860194909452928401919091526060830152608082015260a00161015c565b305f90815260066020526040902060048101546005909101545b6040805192835260208301919091520161015c565b61021961023c366004611894565b610489565b6102a161024f366004611853565b6001600160a01b039182165f9081526007602090815260408083209383529290522080546001820154600283015460039093015460ff8084169661010085049091169562010000909404909316939192565b60408051961515875294151560208701526001600160a01b03909316938501939093526060840152608083019190915260a082015260c00161015c565b6102f16102ec3660046118b4565b610554565b005b6102a1610301366004611853565b600760209081525f9283526040808420909152908252902080546001820154600283015460039093015460ff808416946101008504909116936201000090046001600160a01b0316929186565b6102f161035c366004611821565b6107d7565b6102f161036f366004611894565b610ecf565b6102f16111d6565b5f546001600160a01b0316610148565b61039f61039a366004611894565b6111e9565b60405190815260200161015c565b61039f60035481565b61039f60025481565b6104056103cd36600461187b565b600660208190525f918252604090912080546001820154600283015460038401549484015460079094015460ff909316949193909286565b6040805196151587526020870195909552938501929092526060840152608083015260a082015260c00161015c565b6102f161044236600461187b565b611278565b6102f16104553660046118dd565b6112b5565b6001600160a01b0382165f908152600560208181526040808420858552909201905290205460ff165b92915050565b5f8080610496848661192f565b9050805f036104b3576706f05b59d3b2000080925092505061054d565b5f816104c0866064611942565b6104ca9190611959565b90505f826104d9886064611942565b6104e39190611959565b905061051360646104f5846063611942565b6104ff9190611959565b61050a90600161192f565b60016064611716565b61052490662386f26fc10000611942565b945061053660646104f5836063611942565b61054790662386f26fc10000611942565b93505050505b9250929050565b8015801590610564575080600114155b1561058a5760405163d7acbe8960e01b8152600481018290526024015b60405180910390fd5b5f83116105ad576040516302ff478360e41b815260048101849052602401610581565b305f9081526006602052604090205460ff16156105dd5760405163853fd42160e01b815260040160405180910390fd5b335f908152600560208181526040808420858552909201905290205460ff1661063e57335f908152600560208181526040808420858552909201905290819020549051630787462560e31b815260ff90911615156004820152602401610581565b5f821161066157604051635fe0ca4160e11b815260048101839052602401610581565b805f036106b657335f908152600560205260409020600101548311156106b157335f90815260056020526040908190206001015490516398e712c360e01b81526004810191909152602401610581565b6106ff565b335f908152600560205260409020600101548311156106ff57335f90815260056020526040908190206001015490516398e712c360e01b81526004810191909152602401610581565b335f90815260056020526040812080549161071983611978565b9091555050335f8181526007602090815260408083206005808452828520805486529184528285208054600160ff1990911681179091558254865283862001889055815485528285206002018990558154855282852060030187905581548552828520805462010000600160b01b03191662010000880217905593859052928252915482519081529081018590527f578d9bb67ff50e6081576125ad4c2410d6e82de6dbc1a5dcac37f8e5aa9ca4f4910160405180910390a2505050565b80158015906107e7575080600114155b156108085760405163d7acbe8960e01b815260048101829052602401610581565b305f9081526006602052604090205460ff16156108385760405163853fd42160e01b815260040160405180910390fd5b305f9081526006602052604090206001015442101561088157305f90815260066020526040908190206001015490516379073e7b60e01b81526004810191909152602401610581565b5f805b6002548110156109f2575f818152600460209081526040808320546001600160a01b0316835260058083528184208785520190915290205460ff16156109ea57821580156108f757505f818152600460209081526040808320546001600160a01b03168352600590915290206001015415155b15610975575f818152600460209081526040808320546001600160a01b03168352600590915290206001015461092d90846111e9565b5f82815260046020818152604080842080546001600160a01b03908116865260059093528185208401959095559354168252919020015461096e908361192f565b91506109ea565b5f818152600460209081526040808320546001600160a01b0316835260059091529020600301546109a690846111e9565b5f82815260046020818152604080842080546001600160a01b0390811686526005909352818520840195909555935416825291902001546109e7908361192f565b91505b600101610884565b50305f90815260066020526040812060030154610a10908390611959565b90505f805b600254811015610ca2575f818152600460209081526040808320546001600160a01b0316835260058083528184208985520190915290205460ff1615610c9a575f818152600460208181526040808420546001600160a01b03168452600590915282200154610a85908590611942565b5f838152600460208181526040808420546001600160a01b0316845260059091528220015491925090610ab89083611990565b90505f610ac78260035461173f565b9050610ad3818661192f565b9450610adf8184611990565b6001546040516370a0823160e01b81523060048201526001600160a01b03909116906370a0823190602401602060405180830381865afa158015610b25573d5f803e3d5ffd5b505050506040513d601f19601f82011682018060405250810190610b4991906119a3565b1015610bd5576001546040516370a0823160e01b81523060048201526001600160a01b03909116906370a0823190602401602060405180830381865afa158015610b95573d5f803e3d5ffd5b505050506040513d601f19601f82011682018060405250810190610bb991906119a3565b604051633e6b832d60e21b815260040161058191815260200190565b6001545f8581526004602052604081205490916001600160a01b039081169163a9059cbb9116610c058588611990565b6040516001600160e01b031960e085901b1681526001600160a01b03909216600483015260248201526044016020604051808303815f875af1158015610c4d573d5f803e3d5ffd5b505050506040513d601f19601f82011682018060405250810190610c7191906119ba565b905080610c95576040516339fec78360e11b81528115156004820152602401610581565b505050505b600101610a15565b506001546040516370a0823160e01b815230600482015282916001600160a01b0316906370a0823190602401602060405180830381865afa158015610ce9573d5f803e3d5ffd5b505050506040513d601f19601f82011682018060405250810190610d0d91906119a3565b1015610d99576001546040516370a0823160e01b81523060048201526001600160a01b03909116906370a0823190602401602060405180830381865afa158015610d59573d5f803e3d5ffd5b505050506040513d601f19601f82011682018060405250810190610d7d91906119a3565b60405163ba9c3e4f60e01b815260040161058191815260200190565b305f908152600660205260408120805460ff19166001908117909155546001600160a01b031663a9059cbb610dd55f546001600160a01b031690565b6040516001600160e01b031960e084901b1681526001600160a01b039091166004820152602481018590526044016020604051808303815f875af1158015610e1f573d5f803e3d5ffd5b505050506040513d601f19601f82011682018060405250810190610e4391906119ba565b905080610e67576040516339fec78360e11b81528115156004820152602401610581565b7f4d21af759c8d2f25c6246594b4cfc2edeb2b901bc0c6e87f5e21c212a12ca1fd610e995f546001600160a01b031690565b604080516001600160a01b0390921682526020820185905281018590526060810187905260800160405180910390a15050505050565b8015801590610edf575080600114155b15610f005760405163d7acbe8960e01b815260048101829052602401610581565b5f8211610f23576040516302ff478360e41b815260048101839052602401610581565b305f9081526006602052604090205460ff1615610f535760405163853fd42160e01b815260040160405180910390fd5b335f908152600560208181526040808420858552909201905290205460ff16610faa57600280545f90815260046020526040812080546001600160a01b0319163317905581549190610fa483611978565b91905055505b805f0361100357305f9081526006602052604081206007018054849290610fd290849061192f565b9091555050335f9081526005602052604081206001018054849290610ff890849061192f565b909155506110509050565b305f908152600660208190526040822001805484929061102490849061192f565b9091555050335f908152600560205260408120600301805484929061104a90849061192f565b90915550505b305f908152600660205260408120600301805484929061107190849061192f565b9091555050305f90815260066020526040812060020180549161109383611978565b9091555050335f9081526005602081815260408084208585529092018152818320805460ff19166001179055308352600690819052912060078101549101546110dc9190610489565b305f81815260066020526040808220600581019490945560049384019490945560015493516323b872dd60e01b81523393810193909352602483019190915260448201859052916001600160a01b0316906323b872dd906064016020604051808303815f875af1158015611152573d5f803e3d5ffd5b505050506040513d601f19601f8201168201806040525081019061117691906119ba565b90508061119a5760405163d85d3cef60e01b81528115156004820152602401610581565b604051828152839033907ff41b7910e085d0992d604fd470931728fd77cc8eb504d99e50e51a0a30fcfd1a9060200160405180910390a3505050565b6111de6117a6565b6111e75f6117d2565b565b305f9081526006602052604081208190600401836002811061120d5761120d611907565b01549050805f036112585760405162461bcd60e51b81526020600482015260156024820152745f70726963652063616e6e6f74206265207a65726f60581b6044820152606401610581565b5f81611265866064611942565b61126f9190611959565b95945050505050565b6112806117a6565b6001600160a01b0381166112a957604051631e4fbdf760e01b81525f6004820152602401610581565b6112b2816117d2565b50565b6001600160a01b0381165f90815260076020908152604080832085845290915290205460ff166112fb576040516302b32e0d60e31b815260048101839052602401610581565b6001600160a01b0381165f908152600760209081526040808320858452909152902054610100900460ff1615611374576001600160a01b0381165f9081526007602090815260408083208584529091529081902054905163ca1c6eb360e01b815261010090910460ff1615156004820152602401610581565b305f9081526006602052604090205460ff16156113a45760405163853fd42160e01b815260040160405180910390fd5b6001600160a01b038082165f818152600760209081526040808320878452909152902054620100009004909116146113fa57604051631ed6f38b60e31b81526001600160a01b0382166004820152602401610581565b6001600160a01b0381165f90815260076020908152604080832085845290915281208054610100610100600160b01b0319909116336201000002171781556003015490036114d9576001600160a01b0381165f9081526007602090815260408083208584528252808320600201543384526005909252822060010180549192909161148690849061192f565b90915550506001600160a01b0381165f8181526007602090815260408083208684528252808320600201549383526005909152812060010180549091906114ce908490611990565b9091555061156b9050565b6001600160a01b0381165f81815260076020908152604080832086845282528083206002015493835260059091528120600301805490919061151c908490611990565b90915550506001600160a01b0381165f9081526007602090815260408083208584528252808320600201543384526005909252822060030180549192909161156590849061192f565b90915550505b335f8181526005602081815260408084206001600160a01b03871685526007835281852088865283528185206003015485529092018152818320805460ff19166001179055600280548452600490915290822080546001600160a01b031916909317909255815491906115dd83611978565b9091555050600180546001600160a01b038381165f8181526007602090815260408083208984529091528082209095015494516323b872dd60e01b8152336004820152602481019290925260448201949094529116906323b872dd906064016020604051808303815f875af1158015611658573d5f803e3d5ffd5b505050506040513d601f19601f8201168201806040525081019061167c91906119ba565b9050806116a0576040516339fec78360e11b81528115156004820152602401610581565b6001600160a01b0382165f8181526007602090815260408083208784528252918290206002810154600190910154835133815292830194909452818301526060810192909252517f4ef696cf4aae43c49f3cc815f4721ba5e44e2468e6512ecca3d4730be569a90a9181900360800190a1505050565b5f82841015611726575081611738565b81841115611735575080611738565b50825b9392505050565b5f8083116117635760405163a55196d360e01b815260048101849052602401610581565b5f83116117865760405163084857ef60e41b815260048101839052602401610581565b5f6127106117948486611942565b61179e9190611959565b949350505050565b5f546001600160a01b031633146111e75760405163118cdaa760e01b8152336004820152602401610581565b5f80546001600160a01b038381166001600160a01b0319831681178455604051919092169283917f8be0079c531659141344cd1fd0a4f28419497f9722a3daafe3b4186f6b6457e09190a35050565b5f60208284031215611831575f80fd5b5035919050565b80356001600160a01b038116811461184e575f80fd5b919050565b5f8060408385031215611864575f80fd5b61186d83611838565b946020939093013593505050565b5f6020828403121561188b575f80fd5b61173882611838565b5f80604083850312156118a5575f80fd5b50508035926020909101359150565b5f805f606084860312156118c6575f80fd5b505081359360208301359350604090920135919050565b5f80604083850312156118ee575f80fd5b823591506118fe60208401611838565b90509250929050565b634e487b7160e01b5f52603260045260245ffd5b634e487b7160e01b5f52601160045260245ffd5b808201808211156104835761048361191b565b80820281158282048414176104835761048361191b565b5f8261197357634e487b7160e01b5f52601260045260245ffd5b500490565b5f600182016119895761198961191b565b5060010190565b818103818111156104835761048361191b565b5f602082840312156119b3575f80fd5b5051919050565b5f602082840312156119ca575f80fd5b81518015158114611738575f80fdfea264697066735822122008635b177bc863e0d1fd0fc8d05608f780686eb988c15e4f5c7df6b64c9425c064736f6c634300081a0033",
			"opcodes": "PUSH1 0x80 PUSH1 0x40 MSTORE CALLVALUE DUP1 ISZERO PUSH2 0xF JUMPI PUSH0 DUP1 REVERT JUMPDEST POP PUSH1 0x40 MLOAD PUSH2 0x1B7C CODESIZE SUB DUP1 PUSH2 0x1B7C DUP4 CODECOPY DUP2 ADD PUSH1 0x40 DUP2 SWAP1 MSTORE PUSH2 0x2E SWAP2 PUSH2 0x127 JUMP JUMPDEST DUP3 PUSH1 0x1 PUSH1 0x1 PUSH1 0xA0 SHL SUB DUP2 AND PUSH2 0x5C JUMPI PUSH1 0x40 MLOAD PUSH4 0x1E4FBDF7 PUSH1 0xE0 SHL DUP2 MSTORE PUSH0 PUSH1 0x4 DUP3 ADD MSTORE PUSH1 0x24 ADD PUSH1 0x40 MLOAD DUP1 SWAP2 SUB SWAP1 REVERT JUMPDEST PUSH2 0x65 DUP2 PUSH2 0xBD JUMP JUMPDEST POP ADDRESS PUSH0 SWAP1 DUP2 MSTORE PUSH1 0x6 PUSH1 0x20 MSTORE PUSH1 0x40 SWAP1 KECCAK256 PUSH1 0x1 DUP1 DUP3 ADD SWAP3 SWAP1 SWAP3 SSTORE PUSH8 0x6F05B59D3B20000 PUSH1 0x4 DUP3 ADD DUP2 SWAP1 SSTORE PUSH1 0x5 SWAP1 SWAP2 ADD SSTORE DUP1 SLOAD PUSH1 0x1 PUSH1 0x1 PUSH1 0xA0 SHL SUB NOT AND PUSH1 0x1 PUSH1 0x1 PUSH1 0xA0 SHL SUB SWAP3 SWAP1 SWAP3 AND SWAP2 SWAP1 SWAP2 OR SWAP1 SSTORE POP PUSH2 0x3E8 PUSH1 0x3 SSTORE PUSH2 0x160 JUMP JUMPDEST PUSH0 DUP1 SLOAD PUSH1 0x1 PUSH1 0x1 PUSH1 0xA0 SHL SUB DUP4 DUP2 AND PUSH1 0x1 PUSH1 0x1 PUSH1 0xA0 SHL SUB NOT DUP4 AND DUP2 OR DUP5 SSTORE PUSH1 0x40 MLOAD SWAP2 SWAP1 SWAP3 AND SWAP3 DUP4 SWAP2 PUSH32 0x8BE0079C531659141344CD1FD0A4F28419497F9722A3DAAFE3B4186F6B6457E0 SWAP2 SWAP1 LOG3 POP POP JUMP JUMPDEST DUP1 MLOAD PUSH1 0x1 PUSH1 0x1 PUSH1 0xA0 SHL SUB DUP2 AND DUP2 EQ PUSH2 0x122 JUMPI PUSH0 DUP1 REVERT JUMPDEST SWAP2 SWAP1 POP JUMP JUMPDEST PUSH0 DUP1 PUSH0 PUSH1 0x60 DUP5 DUP7 SUB SLT ISZERO PUSH2 0x139 JUMPI PUSH0 DUP1 REVERT JUMPDEST PUSH2 0x142 DUP5 PUSH2 0x10C JUMP JUMPDEST SWAP3 POP PUSH2 0x150 PUSH1 0x20 DUP6 ADD PUSH2 0x10C JUMP JUMPDEST SWAP2 POP PUSH1 0x40 DUP5 ADD MLOAD SWAP1 POP SWAP3 POP SWAP3 POP SWAP3 JUMP JUMPDEST PUSH2 0x1A0F DUP1 PUSH2 0x16D PUSH0 CODECOPY PUSH0 RETURN INVALID PUSH1 0x80 PUSH1 0x40 MSTORE CALLVALUE DUP1 ISZERO PUSH2 0xF JUMPI PUSH0 DUP1 REVERT JUMPDEST POP PUSH1 0x4 CALLDATASIZE LT PUSH2 0x11C JUMPI PUSH0 CALLDATALOAD PUSH1 0xE0 SHR DUP1 PUSH4 0x6399D03D GT PUSH2 0xA9 JUMPI DUP1 PUSH4 0xB677D9D2 GT PUSH2 0x6E JUMPI DUP1 PUSH4 0xB677D9D2 EQ PUSH2 0x3AD JUMPI DUP1 PUSH4 0xBFF1F9E1 EQ PUSH2 0x3B6 JUMPI DUP1 PUSH4 0xC4351386 EQ PUSH2 0x3BF JUMPI DUP1 PUSH4 0xF2FDE38B EQ PUSH2 0x434 JUMPI DUP1 PUSH4 0xFBEA0B06 EQ PUSH2 0x447 JUMPI PUSH0 DUP1 REVERT JUMPDEST DUP1 PUSH4 0x6399D03D EQ PUSH2 0x34E JUMPI DUP1 PUSH4 0x6FFCC719 EQ PUSH2 0x361 JUMPI DUP1 PUSH4 0x715018A6 EQ PUSH2 0x374 JUMPI DUP1 PUSH4 0x8DA5CB5B EQ PUSH2 0x37C JUMPI DUP1 PUSH4 0xB3C740E8 EQ PUSH2 0x38C JUMPI PUSH0 DUP1 REVERT JUMPDEST DUP1 PUSH4 0x208C86A4 GT PUSH2 0xEF JUMPI DUP1 PUSH4 0x208C86A4 EQ PUSH2 0x1FF JUMPI DUP1 PUSH4 0x21D0D9AF EQ PUSH2 0x22E JUMPI DUP1 PUSH4 0x3774CA25 EQ PUSH2 0x241 JUMPI DUP1 PUSH4 0x456E62BA EQ PUSH2 0x2DE JUMPI DUP1 PUSH4 0x61D464EF EQ PUSH2 0x2F3 JUMPI PUSH0 DUP1 REVERT JUMPDEST DUP1 PUSH4 0x8EF962E EQ PUSH2 0x120 JUMPI DUP1 PUSH4 0xEFA82F6 EQ PUSH2 0x165 JUMPI DUP1 PUSH4 0x11EAC855 EQ PUSH2 0x188 JUMPI DUP1 PUSH4 0x1959A002 EQ PUSH2 0x19B JUMPI JUMPDEST PUSH0 DUP1 REVERT JUMPDEST PUSH2 0x148 PUSH2 0x12E CALLDATASIZE PUSH1 0x4 PUSH2 0x1821 JUMP JUMPDEST PUSH1 0x4 PUSH1 0x20 MSTORE PUSH0 SWAP1 DUP2 MSTORE PUSH1 0x40 SWAP1 KECCAK256 SLOAD PUSH1 0x1 PUSH1 0x1 PUSH1 0xA0 SHL SUB AND DUP2 JUMP JUMPDEST PUSH1 0x40 MLOAD PUSH1 0x1 PUSH1 0x1 PUSH1 0xA0 SHL SUB SWAP1 SWAP2 AND DUP2 MSTORE PUSH1 0x20 ADD JUMPDEST PUSH1 0x40 MLOAD DUP1 SWAP2 SUB SWAP1 RETURN JUMPDEST PUSH2 0x178 PUSH2 0x173 CALLDATASIZE PUSH1 0x4 PUSH2 0x1853 JUMP JUMPDEST PUSH2 0x45A JUMP JUMPDEST PUSH1 0x40 MLOAD SWAP1 ISZERO ISZERO DUP2 MSTORE PUSH1 0x20 ADD PUSH2 0x15C JUMP JUMPDEST PUSH1 0x1 SLOAD PUSH2 0x148 SWAP1 PUSH1 0x1 PUSH1 0x1 PUSH1 0xA0 SHL SUB AND DUP2 JUMP JUMPDEST PUSH2 0x1D7 PUSH2 0x1A9 CALLDATASIZE PUSH1 0x4 PUSH2 0x187B JUMP JUMPDEST PUSH1 0x5 PUSH1 0x20 MSTORE PUSH0 SWAP1 DUP2 MSTORE PUSH1 0x40 SWAP1 KECCAK256 DUP1 SLOAD PUSH1 0x1 DUP3 ADD SLOAD PUSH1 0x2 DUP4 ADD SLOAD PUSH1 0x3 DUP5 ADD SLOAD PUSH1 0x4 SWAP1 SWAP5 ADD SLOAD SWAP3 SWAP4 SWAP2 SWAP3 SWAP1 SWAP2 SWAP1 DUP6 JUMP JUMPDEST PUSH1 0x40 DUP1 MLOAD SWAP6 DUP7 MSTORE PUSH1 0x20 DUP7 ADD SWAP5 SWAP1 SWAP5 MSTORE SWAP3 DUP5 ADD SWAP2 SWAP1 SWAP2 MSTORE PUSH1 0x60 DUP4 ADD MSTORE PUSH1 0x80 DUP3 ADD MSTORE PUSH1 0xA0 ADD PUSH2 0x15C JUMP JUMPDEST ADDRESS PUSH0 SWAP1 DUP2 MSTORE PUSH1 0x6 PUSH1 0x20 MSTORE PUSH1 0x40 SWAP1 KECCAK256 PUSH1 0x4 DUP2 ADD SLOAD PUSH1 0x5 SWAP1 SWAP2 ADD SLOAD JUMPDEST PUSH1 0x40 DUP1 MLOAD SWAP3 DUP4 MSTORE PUSH1 0x20 DUP4 ADD SWAP2 SWAP1 SWAP2 MSTORE ADD PUSH2 0x15C JUMP JUMPDEST PUSH2 0x219 PUSH2 0x23C CALLDATASIZE PUSH1 0x4 PUSH2 0x1894 JUMP JUMPDEST PUSH2 0x489 JUMP JUMPDEST PUSH2 0x2A1 PUSH2 0x24F CALLDATASIZE PUSH1 0x4 PUSH2 0x1853 JUMP JUMPDEST PUSH1 0x1 PUSH1 0x1 PUSH1 0xA0 SHL SUB SWAP2 DUP3 AND PUSH0 SWAP1 DUP2 MSTORE PUSH1 0x7 PUSH1 0x20 SWAP1 DUP2 MSTORE PUSH1 0x40 DUP1 DUP4 KECCAK256 SWAP4 DUP4 MSTORE SWAP3 SWAP1 MSTORE KECCAK256 DUP1 SLOAD PUSH1 0x1 DUP3 ADD SLOAD PUSH1 0x2 DUP4 ADD SLOAD PUSH1 0x3 SWAP1 SWAP4 ADD SLOAD PUSH1 0xFF DUP1 DUP5 AND SWAP7 PUSH2 0x100 DUP6 DIV SWAP1 SWAP2 AND SWAP6 PUSH3 0x10000 SWAP1 SWAP5 DIV SWAP1 SWAP4 AND SWAP4 SWAP2 SWAP3 JUMP JUMPDEST PUSH1 0x40 DUP1 MLOAD SWAP7 ISZERO ISZERO DUP8 MSTORE SWAP5 ISZERO ISZERO PUSH1 0x20 DUP8 ADD MSTORE PUSH1 0x1 PUSH1 0x1 PUSH1 0xA0 SHL SUB SWAP1 SWAP4 AND SWAP4 DUP6 ADD SWAP4 SWAP1 SWAP4 MSTORE PUSH1 0x60 DUP5 ADD MSTORE PUSH1 0x80 DUP4 ADD SWAP2 SWAP1 SWAP2 MSTORE PUSH1 0xA0 DUP3 ADD MSTORE PUSH1 0xC0 ADD PUSH2 0x15C JUMP JUMPDEST PUSH2 0x2F1 PUSH2 0x2EC CALLDATASIZE PUSH1 0x4 PUSH2 0x18B4 JUMP JUMPDEST PUSH2 0x554 JUMP JUMPDEST STOP JUMPDEST PUSH2 0x2A1 PUSH2 0x301 CALLDATASIZE PUSH1 0x4 PUSH2 0x1853 JUMP JUMPDEST PUSH1 0x7 PUSH1 0x20 SWAP1 DUP2 MSTORE PUSH0 SWAP3 DUP4 MSTORE PUSH1 0x40 DUP1 DUP5 KECCAK256 SWAP1 SWAP2 MSTORE SWAP1 DUP3 MSTORE SWAP1 KECCAK256 DUP1 SLOAD PUSH1 0x1 DUP3 ADD SLOAD PUSH1 0x2 DUP4 ADD SLOAD PUSH1 0x3 SWAP1 SWAP4 ADD SLOAD PUSH1 0xFF DUP1 DUP5 AND SWAP5 PUSH2 0x100 DUP6 DIV SWAP1 SWAP2 AND SWAP4 PUSH3 0x10000 SWAP1 DIV PUSH1 0x1 PUSH1 0x1 PUSH1 0xA0 SHL SUB AND SWAP3 SWAP2 DUP7 JUMP JUMPDEST PUSH2 0x2F1 PUSH2 0x35C CALLDATASIZE PUSH1 0x4 PUSH2 0x1821 JUMP JUMPDEST PUSH2 0x7D7 JUMP JUMPDEST PUSH2 0x2F1 PUSH2 0x36F CALLDATASIZE PUSH1 0x4 PUSH2 0x1894 JUMP JUMPDEST PUSH2 0xECF JUMP JUMPDEST PUSH2 0x2F1 PUSH2 0x11D6 JUMP JUMPDEST PUSH0 SLOAD PUSH1 0x1 PUSH1 0x1 PUSH1 0xA0 SHL SUB AND PUSH2 0x148 JUMP JUMPDEST PUSH2 0x39F PUSH2 0x39A CALLDATASIZE PUSH1 0x4 PUSH2 0x1894 JUMP JUMPDEST PUSH2 0x11E9 JUMP JUMPDEST PUSH1 0x40 MLOAD SWAP1 DUP2 MSTORE PUSH1 0x20 ADD PUSH2 0x15C JUMP JUMPDEST PUSH2 0x39F PUSH1 0x3 SLOAD DUP2 JUMP JUMPDEST PUSH2 0x39F PUSH1 0x2 SLOAD DUP2 JUMP JUMPDEST PUSH2 0x405 PUSH2 0x3CD CALLDATASIZE PUSH1 0x4 PUSH2 0x187B JUMP JUMPDEST PUSH1 0x6 PUSH1 0x20 DUP2 SWAP1 MSTORE PUSH0 SWAP2 DUP3 MSTORE PUSH1 0x40 SWAP1 SWAP2 KECCAK256 DUP1 SLOAD PUSH1 0x1 DUP3 ADD SLOAD PUSH1 0x2 DUP4 ADD SLOAD PUSH1 0x3 DUP5 ADD SLOAD SWAP5 DUP5 ADD SLOAD PUSH1 0x7 SWAP1 SWAP5 ADD SLOAD PUSH1 0xFF SWAP1 SWAP4 AND SWAP5 SWAP2 SWAP4 SWAP1 SWAP3 DUP7 JUMP JUMPDEST PUSH1 0x40 DUP1 MLOAD SWAP7 ISZERO ISZERO DUP8 MSTORE PUSH1 0x20 DUP8 ADD SWAP6 SWAP1 SWAP6 MSTORE SWAP4 DUP6 ADD SWAP3 SWAP1 SWAP3 MSTORE PUSH1 0x60 DUP5 ADD MSTORE PUSH1 0x80 DUP4 ADD MSTORE PUSH1 0xA0 DUP3 ADD MSTORE PUSH1 0xC0 ADD PUSH2 0x15C JUMP JUMPDEST PUSH2 0x2F1 PUSH2 0x442 CALLDATASIZE PUSH1 0x4 PUSH2 0x187B JUMP JUMPDEST PUSH2 0x1278 JUMP JUMPDEST PUSH2 0x2F1 PUSH2 0x455 CALLDATASIZE PUSH1 0x4 PUSH2 0x18DD JUMP JUMPDEST PUSH2 0x12B5 JUMP JUMPDEST PUSH1 0x1 PUSH1 0x1 PUSH1 0xA0 SHL SUB DUP3 AND PUSH0 SWAP1 DUP2 MSTORE PUSH1 0x5 PUSH1 0x20 DUP2 DUP2 MSTORE PUSH1 0x40 DUP1 DUP5 KECCAK256 DUP6 DUP6 MSTORE SWAP1 SWAP3 ADD SWAP1 MSTORE SWAP1 KECCAK256 SLOAD PUSH1 0xFF AND JUMPDEST SWAP3 SWAP2 POP POP JUMP JUMPDEST PUSH0 DUP1 DUP1 PUSH2 0x496 DUP5 DUP7 PUSH2 0x192F JUMP JUMPDEST SWAP1 POP DUP1 PUSH0 SUB PUSH2 0x4B3 JUMPI PUSH8 0x6F05B59D3B20000 DUP1 SWAP3 POP SWAP3 POP POP PUSH2 0x54D JUMP JUMPDEST PUSH0 DUP2 PUSH2 0x4C0 DUP7 PUSH1 0x64 PUSH2 0x1942 JUMP JUMPDEST PUSH2 0x4CA SWAP2 SWAP1 PUSH2 0x1959 JUMP JUMPDEST SWAP1 POP PUSH0 DUP3 PUSH2 0x4D9 DUP9 PUSH1 0x64 PUSH2 0x1942 JUMP JUMPDEST PUSH2 0x4E3 SWAP2 SWAP1 PUSH2 0x1959 JUMP JUMPDEST SWAP1 POP PUSH2 0x513 PUSH1 0x64 PUSH2 0x4F5 DUP5 PUSH1 0x63 PUSH2 0x1942 JUMP JUMPDEST PUSH2 0x4FF SWAP2 SWAP1 PUSH2 0x1959 JUMP JUMPDEST PUSH2 0x50A SWAP1 PUSH1 0x1 PUSH2 0x192F JUMP JUMPDEST PUSH1 0x1 PUSH1 0x64 PUSH2 0x1716 JUMP JUMPDEST PUSH2 0x524 SWAP1 PUSH7 0x2386F26FC10000 PUSH2 0x1942 JUMP JUMPDEST SWAP5 POP PUSH2 0x536 PUSH1 0x64 PUSH2 0x4F5 DUP4 PUSH1 0x63 PUSH2 0x1942 JUMP JUMPDEST PUSH2 0x547 SWAP1 PUSH7 0x2386F26FC10000 PUSH2 0x1942 JUMP JUMPDEST SWAP4 POP POP POP POP JUMPDEST SWAP3 POP SWAP3 SWAP1 POP JUMP JUMPDEST DUP1 ISZERO DUP1 ISZERO SWAP1 PUSH2 0x564 JUMPI POP DUP1 PUSH1 0x1 EQ ISZERO JUMPDEST ISZERO PUSH2 0x58A JUMPI PUSH1 0x40 MLOAD PUSH4 0xD7ACBE89 PUSH1 0xE0 SHL DUP2 MSTORE PUSH1 0x4 DUP2 ADD DUP3 SWAP1 MSTORE PUSH1 0x24 ADD JUMPDEST PUSH1 0x40 MLOAD DUP1 SWAP2 SUB SWAP1 REVERT JUMPDEST PUSH0 DUP4 GT PUSH2 0x5AD JUMPI PUSH1 0x40 MLOAD PUSH4 0x2FF4783 PUSH1 0xE4 SHL DUP2 MSTORE PUSH1 0x4 DUP2 ADD DUP5 SWAP1 MSTORE PUSH1 0x24 ADD PUSH2 0x581 JUMP JUMPDEST ADDRESS PUSH0 SWAP1 DUP2 MSTORE PUSH1 0x6 PUSH1 0x20 MSTORE PUSH1 0x40 SWAP1 KECCAK256 SLOAD PUSH1 0xFF AND ISZERO PUSH2 0x5DD JUMPI PUSH1 0x40 MLOAD PUSH4 0x853FD421 PUSH1 0xE0 SHL DUP2 MSTORE PUSH1 0x4 ADD PUSH1 0x40 MLOAD DUP1 SWAP2 SUB SWAP1 REVERT JUMPDEST CALLER PUSH0 SWAP1 DUP2 MSTORE PUSH1 0x5 PUSH1 0x20 DUP2 DUP2 MSTORE PUSH1 0x40 DUP1 DUP5 KECCAK256 DUP6 DUP6 MSTORE SWAP1 SWAP3 ADD SWAP1 MSTORE SWAP1 KECCAK256 SLOAD PUSH1 0xFF AND PUSH2 0x63E JUMPI CALLER PUSH0 SWAP1 DUP2 MSTORE PUSH1 0x5 PUSH1 0x20 DUP2 DUP2 MSTORE PUSH1 0x40 DUP1 DUP5 KECCAK256 DUP6 DUP6 MSTORE SWAP1 SWAP3 ADD SWAP1 MSTORE SWAP1 DUP2 SWAP1 KECCAK256 SLOAD SWAP1 MLOAD PUSH4 0x7874625 PUSH1 0xE3 SHL DUP2 MSTORE PUSH1 0xFF SWAP1 SWAP2 AND ISZERO ISZERO PUSH1 0x4 DUP3 ADD MSTORE PUSH1 0x24 ADD PUSH2 0x581 JUMP JUMPDEST PUSH0 DUP3 GT PUSH2 0x661 JUMPI PUSH1 0x40 MLOAD PUSH4 0x5FE0CA41 PUSH1 0xE1 SHL DUP2 MSTORE PUSH1 0x4 DUP2 ADD DUP4 SWAP1 MSTORE PUSH1 0x24 ADD PUSH2 0x581 JUMP JUMPDEST DUP1 PUSH0 SUB PUSH2 0x6B6 JUMPI CALLER PUSH0 SWAP1 DUP2 MSTORE PUSH1 0x5 PUSH1 0x20 MSTORE PUSH1 0x40 SWAP1 KECCAK256 PUSH1 0x1 ADD SLOAD DUP4 GT ISZERO PUSH2 0x6B1 JUMPI CALLER PUSH0 SWAP1 DUP2 MSTORE PUSH1 0x5 PUSH1 0x20 MSTORE PUSH1 0x40 SWAP1 DUP2 SWAP1 KECCAK256 PUSH1 0x1 ADD SLOAD SWAP1 MLOAD PUSH4 0x98E712C3 PUSH1 0xE0 SHL DUP2 MSTORE PUSH1 0x4 DUP2 ADD SWAP2 SWAP1 SWAP2 MSTORE PUSH1 0x24 ADD PUSH2 0x581 JUMP JUMPDEST PUSH2 0x6FF JUMP JUMPDEST CALLER PUSH0 SWAP1 DUP2 MSTORE PUSH1 0x5 PUSH1 0x20 MSTORE PUSH1 0x40 SWAP1 KECCAK256 PUSH1 0x1 ADD SLOAD DUP4 GT ISZERO PUSH2 0x6FF JUMPI CALLER PUSH0 SWAP1 DUP2 MSTORE PUSH1 0x5 PUSH1 0x20 MSTORE PUSH1 0x40 SWAP1 DUP2 SWAP1 KECCAK256 PUSH1 0x1 ADD SLOAD SWAP1 MLOAD PUSH4 0x98E712C3 PUSH1 0xE0 SHL DUP2 MSTORE PUSH1 0x4 DUP2 ADD SWAP2 SWAP1 SWAP2 MSTORE PUSH1 0x24 ADD PUSH2 0x581 JUMP JUMPDEST CALLER PUSH0 SWAP1 DUP2 MSTORE PUSH1 0x5 PUSH1 0x20 MSTORE PUSH1 0x40 DUP2 KECCAK256 DUP1 SLOAD SWAP2 PUSH2 0x719 DUP4 PUSH2 0x1978 JUMP JUMPDEST SWAP1 SWAP2 SSTORE POP POP CALLER PUSH0 DUP2 DUP2 MSTORE PUSH1 0x7 PUSH1 0x20 SWAP1 DUP2 MSTORE PUSH1 0x40 DUP1 DUP4 KECCAK256 PUSH1 0x5 DUP1 DUP5 MSTORE DUP3 DUP6 KECCAK256 DUP1 SLOAD DUP7 MSTORE SWAP2 DUP5 MSTORE DUP3 DUP6 KECCAK256 DUP1 SLOAD PUSH1 0x1 PUSH1 0xFF NOT SWAP1 SWAP2 AND DUP2 OR SWAP1 SWAP2 SSTORE DUP3 SLOAD DUP7 MSTORE DUP4 DUP7 KECCAK256 ADD DUP9 SWAP1 SSTORE DUP2 SLOAD DUP6 MSTORE DUP3 DUP6 KECCAK256 PUSH1 0x2 ADD DUP10 SWAP1 SSTORE DUP2 SLOAD DUP6 MSTORE DUP3 DUP6 KECCAK256 PUSH1 0x3 ADD DUP8 SWAP1 SSTORE DUP2 SLOAD DUP6 MSTORE DUP3 DUP6 KECCAK256 DUP1 SLOAD PUSH3 0x10000 PUSH1 0x1 PUSH1 0xB0 SHL SUB NOT AND PUSH3 0x10000 DUP9 MUL OR SWAP1 SSTORE SWAP4 DUP6 SWAP1 MSTORE SWAP3 DUP3 MSTORE SWAP2 SLOAD DUP3 MLOAD SWAP1 DUP2 MSTORE SWAP1 DUP2 ADD DUP6 SWAP1 MSTORE PUSH32 0x578D9BB67FF50E6081576125AD4C2410D6E82DE6DBC1A5DCAC37F8E5AA9CA4F4 SWAP2 ADD PUSH1 0x40 MLOAD DUP1 SWAP2 SUB SWAP1 LOG2 POP POP POP JUMP JUMPDEST DUP1 ISZERO DUP1 ISZERO SWAP1 PUSH2 0x7E7 JUMPI POP DUP1 PUSH1 0x1 EQ ISZERO JUMPDEST ISZERO PUSH2 0x808 JUMPI PUSH1 0x40 MLOAD PUSH4 0xD7ACBE89 PUSH1 0xE0 SHL DUP2 MSTORE PUSH1 0x4 DUP2 ADD DUP3 SWAP1 MSTORE PUSH1 0x24 ADD PUSH2 0x581 JUMP JUMPDEST ADDRESS PUSH0 SWAP1 DUP2 MSTORE PUSH1 0x6 PUSH1 0x20 MSTORE PUSH1 0x40 SWAP1 KECCAK256 SLOAD PUSH1 0xFF AND ISZERO PUSH2 0x838 JUMPI PUSH1 0x40 MLOAD PUSH4 0x853FD421 PUSH1 0xE0 SHL DUP2 MSTORE PUSH1 0x4 ADD PUSH1 0x40 MLOAD DUP1 SWAP2 SUB SWAP1 REVERT JUMPDEST ADDRESS PUSH0 SWAP1 DUP2 MSTORE PUSH1 0x6 PUSH1 0x20 MSTORE PUSH1 0x40 SWAP1 KECCAK256 PUSH1 0x1 ADD SLOAD TIMESTAMP LT ISZERO PUSH2 0x881 JUMPI ADDRESS PUSH0 SWAP1 DUP2 MSTORE PUSH1 0x6 PUSH1 0x20 MSTORE PUSH1 0x40 SWAP1 DUP2 SWAP1 KECCAK256 PUSH1 0x1 ADD SLOAD SWAP1 MLOAD PUSH4 0x79073E7B PUSH1 0xE0 SHL DUP2 MSTORE PUSH1 0x4 DUP2 ADD SWAP2 SWAP1 SWAP2 MSTORE PUSH1 0x24 ADD PUSH2 0x581 JUMP JUMPDEST PUSH0 DUP1 JUMPDEST PUSH1 0x2 SLOAD DUP2 LT ISZERO PUSH2 0x9F2 JUMPI PUSH0 DUP2 DUP2 MSTORE PUSH1 0x4 PUSH1 0x20 SWAP1 DUP2 MSTORE PUSH1 0x40 DUP1 DUP4 KECCAK256 SLOAD PUSH1 0x1 PUSH1 0x1 PUSH1 0xA0 SHL SUB AND DUP4 MSTORE PUSH1 0x5 DUP1 DUP4 MSTORE DUP2 DUP5 KECCAK256 DUP8 DUP6 MSTORE ADD SWAP1 SWAP2 MSTORE SWAP1 KECCAK256 SLOAD PUSH1 0xFF AND ISZERO PUSH2 0x9EA JUMPI DUP3 ISZERO DUP1 ISZERO PUSH2 0x8F7 JUMPI POP PUSH0 DUP2 DUP2 MSTORE PUSH1 0x4 PUSH1 0x20 SWAP1 DUP2 MSTORE PUSH1 0x40 DUP1 DUP4 KECCAK256 SLOAD PUSH1 0x1 PUSH1 0x1 PUSH1 0xA0 SHL SUB AND DUP4 MSTORE PUSH1 0x5 SWAP1 SWAP2 MSTORE SWAP1 KECCAK256 PUSH1 0x1 ADD SLOAD ISZERO ISZERO JUMPDEST ISZERO PUSH2 0x975 JUMPI PUSH0 DUP2 DUP2 MSTORE PUSH1 0x4 PUSH1 0x20 SWAP1 DUP2 MSTORE PUSH1 0x40 DUP1 DUP4 KECCAK256 SLOAD PUSH1 0x1 PUSH1 0x1 PUSH1 0xA0 SHL SUB AND DUP4 MSTORE PUSH1 0x5 SWAP1 SWAP2 MSTORE SWAP1 KECCAK256 PUSH1 0x1 ADD SLOAD PUSH2 0x92D SWAP1 DUP5 PUSH2 0x11E9 JUMP JUMPDEST PUSH0 DUP3 DUP2 MSTORE PUSH1 0x4 PUSH1 0x20 DUP2 DUP2 MSTORE PUSH1 0x40 DUP1 DUP5 KECCAK256 DUP1 SLOAD PUSH1 0x1 PUSH1 0x1 PUSH1 0xA0 SHL SUB SWAP1 DUP2 AND DUP7 MSTORE PUSH1 0x5 SWAP1 SWAP4 MSTORE DUP2 DUP6 KECCAK256 DUP5 ADD SWAP6 SWAP1 SWAP6 SSTORE SWAP4 SLOAD AND DUP3 MSTORE SWAP2 SWAP1 KECCAK256 ADD SLOAD PUSH2 0x96E SWAP1 DUP4 PUSH2 0x192F JUMP JUMPDEST SWAP2 POP PUSH2 0x9EA JUMP JUMPDEST PUSH0 DUP2 DUP2 MSTORE PUSH1 0x4 PUSH1 0x20 SWAP1 DUP2 MSTORE PUSH1 0x40 DUP1 DUP4 KECCAK256 SLOAD PUSH1 0x1 PUSH1 0x1 PUSH1 0xA0 SHL SUB AND DUP4 MSTORE PUSH1 0x5 SWAP1 SWAP2 MSTORE SWAP1 KECCAK256 PUSH1 0x3 ADD SLOAD PUSH2 0x9A6 SWAP1 DUP5 PUSH2 0x11E9 JUMP JUMPDEST PUSH0 DUP3 DUP2 MSTORE PUSH1 0x4 PUSH1 0x20 DUP2 DUP2 MSTORE PUSH1 0x40 DUP1 DUP5 KECCAK256 DUP1 SLOAD PUSH1 0x1 PUSH1 0x1 PUSH1 0xA0 SHL SUB SWAP1 DUP2 AND DUP7 MSTORE PUSH1 0x5 SWAP1 SWAP4 MSTORE DUP2 DUP6 KECCAK256 DUP5 ADD SWAP6 SWAP1 SWAP6 SSTORE SWAP4 SLOAD AND DUP3 MSTORE SWAP2 SWAP1 KECCAK256 ADD SLOAD PUSH2 0x9E7 SWAP1 DUP4 PUSH2 0x192F JUMP JUMPDEST SWAP2 POP JUMPDEST PUSH1 0x1 ADD PUSH2 0x884 JUMP JUMPDEST POP ADDRESS PUSH0 SWAP1 DUP2 MSTORE PUSH1 0x6 PUSH1 0x20 MSTORE PUSH1 0x40 DUP2 KECCAK256 PUSH1 0x3 ADD SLOAD PUSH2 0xA10 SWAP1 DUP4 SWAP1 PUSH2 0x1959 JUMP JUMPDEST SWAP1 POP PUSH0 DUP1 JUMPDEST PUSH1 0x2 SLOAD DUP2 LT ISZERO PUSH2 0xCA2 JUMPI PUSH0 DUP2 DUP2 MSTORE PUSH1 0x4 PUSH1 0x20 SWAP1 DUP2 MSTORE PUSH1 0x40 DUP1 DUP4 KECCAK256 SLOAD PUSH1 0x1 PUSH1 0x1 PUSH1 0xA0 SHL SUB AND DUP4 MSTORE PUSH1 0x5 DUP1 DUP4 MSTORE DUP2 DUP5 KECCAK256 DUP10 DUP6 MSTORE ADD SWAP1 SWAP2 MSTORE SWAP1 KECCAK256 SLOAD PUSH1 0xFF AND ISZERO PUSH2 0xC9A JUMPI PUSH0 DUP2 DUP2 MSTORE PUSH1 0x4 PUSH1 0x20 DUP2 DUP2 MSTORE PUSH1 0x40 DUP1 DUP5 KECCAK256 SLOAD PUSH1 0x1 PUSH1 0x1 PUSH1 0xA0 SHL SUB AND DUP5 MSTORE PUSH1 0x5 SWAP1 SWAP2 MSTORE DUP3 KECCAK256 ADD SLOAD PUSH2 0xA85 SWAP1 DUP6 SWAP1 PUSH2 0x1942 JUMP JUMPDEST PUSH0 DUP4 DUP2 MSTORE PUSH1 0x4 PUSH1 0x20 DUP2 DUP2 MSTORE PUSH1 0x40 DUP1 DUP5 KECCAK256 SLOAD PUSH1 0x1 PUSH1 0x1 PUSH1 0xA0 SHL SUB AND DUP5 MSTORE PUSH1 0x5 SWAP1 SWAP2 MSTORE DUP3 KECCAK256 ADD SLOAD SWAP2 SWAP3 POP SWAP1 PUSH2 0xAB8 SWAP1 DUP4 PUSH2 0x1990 JUMP JUMPDEST SWAP1 POP PUSH0 PUSH2 0xAC7 DUP3 PUSH1 0x3 SLOAD PUSH2 0x173F JUMP JUMPDEST SWAP1 POP PUSH2 0xAD3 DUP2 DUP7 PUSH2 0x192F JUMP JUMPDEST SWAP5 POP PUSH2 0xADF DUP2 DUP5 PUSH2 0x1990 JUMP JUMPDEST PUSH1 0x1 SLOAD PUSH1 0x40 MLOAD PUSH4 0x70A08231 PUSH1 0xE0 SHL DUP2 MSTORE ADDRESS PUSH1 0x4 DUP3 ADD MSTORE PUSH1 0x1 PUSH1 0x1 PUSH1 0xA0 SHL SUB SWAP1 SWAP2 AND SWAP1 PUSH4 0x70A08231 SWAP1 PUSH1 0x24 ADD PUSH1 0x20 PUSH1 0x40 MLOAD DUP1 DUP4 SUB DUP2 DUP7 GAS STATICCALL ISZERO DUP1 ISZERO PUSH2 0xB25 JUMPI RETURNDATASIZE PUSH0 DUP1 RETURNDATACOPY RETURNDATASIZE PUSH0 REVERT JUMPDEST POP POP POP POP PUSH1 0x40 MLOAD RETURNDATASIZE PUSH1 0x1F NOT PUSH1 0x1F DUP3 ADD AND DUP3 ADD DUP1 PUSH1 0x40 MSTORE POP DUP2 ADD SWAP1 PUSH2 0xB49 SWAP2 SWAP1 PUSH2 0x19A3 JUMP JUMPDEST LT ISZERO PUSH2 0xBD5 JUMPI PUSH1 0x1 SLOAD PUSH1 0x40 MLOAD PUSH4 0x70A08231 PUSH1 0xE0 SHL DUP2 MSTORE ADDRESS PUSH1 0x4 DUP3 ADD MSTORE PUSH1 0x1 PUSH1 0x1 PUSH1 0xA0 SHL SUB SWAP1 SWAP2 AND SWAP1 PUSH4 0x70A08231 SWAP1 PUSH1 0x24 ADD PUSH1 0x20 PUSH1 0x40 MLOAD DUP1 DUP4 SUB DUP2 DUP7 GAS STATICCALL ISZERO DUP1 ISZERO PUSH2 0xB95 JUMPI RETURNDATASIZE PUSH0 DUP1 RETURNDATACOPY RETURNDATASIZE PUSH0 REVERT JUMPDEST POP POP POP POP PUSH1 0x40 MLOAD RETURNDATASIZE PUSH1 0x1F NOT PUSH1 0x1F DUP3 ADD AND DUP3 ADD DUP1 PUSH1 0x40 MSTORE POP DUP2 ADD SWAP1 PUSH2 0xBB9 SWAP2 SWAP1 PUSH2 0x19A3 JUMP JUMPDEST PUSH1 0x40 MLOAD PUSH4 0x3E6B832D PUSH1 0xE2 SHL DUP2 MSTORE PUSH1 0x4 ADD PUSH2 0x581 SWAP2 DUP2 MSTORE PUSH1 0x20 ADD SWAP1 JUMP JUMPDEST PUSH1 0x1 SLOAD PUSH0 DUP6 DUP2 MSTORE PUSH1 0x4 PUSH1 0x20 MSTORE PUSH1 0x40 DUP2 KECCAK256 SLOAD SWAP1 SWAP2 PUSH1 0x1 PUSH1 0x1 PUSH1 0xA0 SHL SUB SWAP1 DUP2 AND SWAP2 PUSH4 0xA9059CBB SWAP2 AND PUSH2 0xC05 DUP6 DUP9 PUSH2 0x1990 JUMP JUMPDEST PUSH1 0x40 MLOAD PUSH1 0x1 PUSH1 0x1 PUSH1 0xE0 SHL SUB NOT PUSH1 0xE0 DUP6 SWAP1 SHL AND DUP2 MSTORE PUSH1 0x1 PUSH1 0x1 PUSH1 0xA0 SHL SUB SWAP1 SWAP3 AND PUSH1 0x4 DUP4 ADD MSTORE PUSH1 0x24 DUP3 ADD MSTORE PUSH1 0x44 ADD PUSH1 0x20 PUSH1 0x40 MLOAD DUP1 DUP4 SUB DUP2 PUSH0 DUP8 GAS CALL ISZERO DUP1 ISZERO PUSH2 0xC4D JUMPI RETURNDATASIZE PUSH0 DUP1 RETURNDATACOPY RETURNDATASIZE PUSH0 REVERT JUMPDEST POP POP POP POP PUSH1 0x40 MLOAD RETURNDATASIZE PUSH1 0x1F NOT PUSH1 0x1F DUP3 ADD AND DUP3 ADD DUP1 PUSH1 0x40 MSTORE POP DUP2 ADD SWAP1 PUSH2 0xC71 SWAP2 SWAP1 PUSH2 0x19BA JUMP JUMPDEST SWAP1 POP DUP1 PUSH2 0xC95 JUMPI PUSH1 0x40 MLOAD PUSH4 0x39FEC783 PUSH1 0xE1 SHL DUP2 MSTORE DUP2 ISZERO ISZERO PUSH1 0x4 DUP3 ADD MSTORE PUSH1 0x24 ADD PUSH2 0x581 JUMP JUMPDEST POP POP POP POP JUMPDEST PUSH1 0x1 ADD PUSH2 0xA15 JUMP JUMPDEST POP PUSH1 0x1 SLOAD PUSH1 0x40 MLOAD PUSH4 0x70A08231 PUSH1 0xE0 SHL DUP2 MSTORE ADDRESS PUSH1 0x4 DUP3 ADD MSTORE DUP3 SWAP2 PUSH1 0x1 PUSH1 0x1 PUSH1 0xA0 SHL SUB AND SWAP1 PUSH4 0x70A08231 SWAP1 PUSH1 0x24 ADD PUSH1 0x20 PUSH1 0x40 MLOAD DUP1 DUP4 SUB DUP2 DUP7 GAS STATICCALL ISZERO DUP1 ISZERO PUSH2 0xCE9 JUMPI RETURNDATASIZE PUSH0 DUP1 RETURNDATACOPY RETURNDATASIZE PUSH0 REVERT JUMPDEST POP POP POP POP PUSH1 0x40 MLOAD RETURNDATASIZE PUSH1 0x1F NOT PUSH1 0x1F DUP3 ADD AND DUP3 ADD DUP1 PUSH1 0x40 MSTORE POP DUP2 ADD SWAP1 PUSH2 0xD0D SWAP2 SWAP1 PUSH2 0x19A3 JUMP JUMPDEST LT ISZERO PUSH2 0xD99 JUMPI PUSH1 0x1 SLOAD PUSH1 0x40 MLOAD PUSH4 0x70A08231 PUSH1 0xE0 SHL DUP2 MSTORE ADDRESS PUSH1 0x4 DUP3 ADD MSTORE PUSH1 0x1 PUSH1 0x1 PUSH1 0xA0 SHL SUB SWAP1 SWAP2 AND SWAP1 PUSH4 0x70A08231 SWAP1 PUSH1 0x24 ADD PUSH1 0x20 PUSH1 0x40 MLOAD DUP1 DUP4 SUB DUP2 DUP7 GAS STATICCALL ISZERO DUP1 ISZERO PUSH2 0xD59 JUMPI RETURNDATASIZE PUSH0 DUP1 RETURNDATACOPY RETURNDATASIZE PUSH0 REVERT JUMPDEST POP POP POP POP PUSH1 0x40 MLOAD RETURNDATASIZE PUSH1 0x1F NOT PUSH1 0x1F DUP3 ADD AND DUP3 ADD DUP1 PUSH1 0x40 MSTORE POP DUP2 ADD SWAP1 PUSH2 0xD7D SWAP2 SWAP1 PUSH2 0x19A3 JUMP JUMPDEST PUSH1 0x40 MLOAD PUSH4 0xBA9C3E4F PUSH1 0xE0 SHL DUP2 MSTORE PUSH1 0x4 ADD PUSH2 0x581 SWAP2 DUP2 MSTORE PUSH1 0x20 ADD SWAP1 JUMP JUMPDEST ADDRESS PUSH0 SWAP1 DUP2 MSTORE PUSH1 0x6 PUSH1 0x20 MSTORE PUSH1 0x40 DUP2 KECCAK256 DUP1 SLOAD PUSH1 0xFF NOT AND PUSH1 0x1 SWAP1 DUP2 OR SWAP1 SWAP2 SSTORE SLOAD PUSH1 0x1 PUSH1 0x1 PUSH1 0xA0 SHL SUB AND PUSH4 0xA9059CBB PUSH2 0xDD5 PUSH0 SLOAD PUSH1 0x1 PUSH1 0x1 PUSH1 0xA0 SHL SUB AND SWAP1 JUMP JUMPDEST PUSH1 0x40 MLOAD PUSH1 0x1 PUSH1 0x1 PUSH1 0xE0 SHL SUB NOT PUSH1 0xE0 DUP5 SWAP1 SHL AND DUP2 MSTORE PUSH1 0x1 PUSH1 0x1 PUSH1 0xA0 SHL SUB SWAP1 SWAP2 AND PUSH1 0x4 DUP3 ADD MSTORE PUSH1 0x24 DUP2 ADD DUP6 SWAP1 MSTORE PUSH1 0x44 ADD PUSH1 0x20 PUSH1 0x40 MLOAD DUP1 DUP4 SUB DUP2 PUSH0 DUP8 GAS CALL ISZERO DUP1 ISZERO PUSH2 0xE1F JUMPI RETURNDATASIZE PUSH0 DUP1 RETURNDATACOPY RETURNDATASIZE PUSH0 REVERT JUMPDEST POP POP POP POP PUSH1 0x40 MLOAD RETURNDATASIZE PUSH1 0x1F NOT PUSH1 0x1F DUP3 ADD AND DUP3 ADD DUP1 PUSH1 0x40 MSTORE POP DUP2 ADD SWAP1 PUSH2 0xE43 SWAP2 SWAP1 PUSH2 0x19BA JUMP JUMPDEST SWAP1 POP DUP1 PUSH2 0xE67 JUMPI PUSH1 0x40 MLOAD PUSH4 0x39FEC783 PUSH1 0xE1 SHL DUP2 MSTORE DUP2 ISZERO ISZERO PUSH1 0x4 DUP3 ADD MSTORE PUSH1 0x24 ADD PUSH2 0x581 JUMP JUMPDEST PUSH32 0x4D21AF759C8D2F25C6246594B4CFC2EDEB2B901BC0C6E87F5E21C212A12CA1FD PUSH2 0xE99 PUSH0 SLOAD PUSH1 0x1 PUSH1 0x1 PUSH1 0xA0 SHL SUB AND SWAP1 JUMP JUMPDEST PUSH1 0x40 DUP1 MLOAD PUSH1 0x1 PUSH1 0x1 PUSH1 0xA0 SHL SUB SWAP1 SWAP3 AND DUP3 MSTORE PUSH1 0x20 DUP3 ADD DUP6 SWAP1 MSTORE DUP2 ADD DUP6 SWAP1 MSTORE PUSH1 0x60 DUP2 ADD DUP8 SWAP1 MSTORE PUSH1 0x80 ADD PUSH1 0x40 MLOAD DUP1 SWAP2 SUB SWAP1 LOG1 POP POP POP POP POP JUMP JUMPDEST DUP1 ISZERO DUP1 ISZERO SWAP1 PUSH2 0xEDF JUMPI POP DUP1 PUSH1 0x1 EQ ISZERO JUMPDEST ISZERO PUSH2 0xF00 JUMPI PUSH1 0x40 MLOAD PUSH4 0xD7ACBE89 PUSH1 0xE0 SHL DUP2 MSTORE PUSH1 0x4 DUP2 ADD DUP3 SWAP1 MSTORE PUSH1 0x24 ADD PUSH2 0x581 JUMP JUMPDEST PUSH0 DUP3 GT PUSH2 0xF23 JUMPI PUSH1 0x40 MLOAD PUSH4 0x2FF4783 PUSH1 0xE4 SHL DUP2 MSTORE PUSH1 0x4 DUP2 ADD DUP4 SWAP1 MSTORE PUSH1 0x24 ADD PUSH2 0x581 JUMP JUMPDEST ADDRESS PUSH0 SWAP1 DUP2 MSTORE PUSH1 0x6 PUSH1 0x20 MSTORE PUSH1 0x40 SWAP1 KECCAK256 SLOAD PUSH1 0xFF AND ISZERO PUSH2 0xF53 JUMPI PUSH1 0x40 MLOAD PUSH4 0x853FD421 PUSH1 0xE0 SHL DUP2 MSTORE PUSH1 0x4 ADD PUSH1 0x40 MLOAD DUP1 SWAP2 SUB SWAP1 REVERT JUMPDEST CALLER PUSH0 SWAP1 DUP2 MSTORE PUSH1 0x5 PUSH1 0x20 DUP2 DUP2 MSTORE PUSH1 0x40 DUP1 DUP5 KECCAK256 DUP6 DUP6 MSTORE SWAP1 SWAP3 ADD SWAP1 MSTORE SWAP1 KECCAK256 SLOAD PUSH1 0xFF AND PUSH2 0xFAA JUMPI PUSH1 0x2 DUP1 SLOAD PUSH0 SWAP1 DUP2 MSTORE PUSH1 0x4 PUSH1 0x20 MSTORE PUSH1 0x40 DUP2 KECCAK256 DUP1 SLOAD PUSH1 0x1 PUSH1 0x1 PUSH1 0xA0 SHL SUB NOT AND CALLER OR SWAP1 SSTORE DUP2 SLOAD SWAP2 SWAP1 PUSH2 0xFA4 DUP4 PUSH2 0x1978 JUMP JUMPDEST SWAP2 SWAP1 POP SSTORE POP JUMPDEST DUP1 PUSH0 SUB PUSH2 0x1003 JUMPI ADDRESS PUSH0 SWAP1 DUP2 MSTORE PUSH1 0x6 PUSH1 0x20 MSTORE PUSH1 0x40 DUP2 KECCAK256 PUSH1 0x7 ADD DUP1 SLOAD DUP5 SWAP3 SWAP1 PUSH2 0xFD2 SWAP1 DUP5 SWAP1 PUSH2 0x192F JUMP JUMPDEST SWAP1 SWAP2 SSTORE POP POP CALLER PUSH0 SWAP1 DUP2 MSTORE PUSH1 0x5 PUSH1 0x20 MSTORE PUSH1 0x40 DUP2 KECCAK256 PUSH1 0x1 ADD DUP1 SLOAD DUP5 SWAP3 SWAP1 PUSH2 0xFF8 SWAP1 DUP5 SWAP1 PUSH2 0x192F JUMP JUMPDEST SWAP1 SWAP2 SSTORE POP PUSH2 0x1050 SWAP1 POP JUMP JUMPDEST ADDRESS PUSH0 SWAP1 DUP2 MSTORE PUSH1 0x6 PUSH1 0x20 DUP2 SWAP1 MSTORE PUSH1 0x40 DUP3 KECCAK256 ADD DUP1 SLOAD DUP5 SWAP3 SWAP1 PUSH2 0x1024 SWAP1 DUP5 SWAP1 PUSH2 0x192F JUMP JUMPDEST SWAP1 SWAP2 SSTORE POP POP CALLER PUSH0 SWAP1 DUP2 MSTORE PUSH1 0x5 PUSH1 0x20 MSTORE PUSH1 0x40 DUP2 KECCAK256 PUSH1 0x3 ADD DUP1 SLOAD DUP5 SWAP3 SWAP1 PUSH2 0x104A SWAP1 DUP5 SWAP1 PUSH2 0x192F JUMP JUMPDEST SWAP1 SWAP2 SSTORE POP POP JUMPDEST ADDRESS PUSH0 SWAP1 DUP2 MSTORE PUSH1 0x6 PUSH1 0x20 MSTORE PUSH1 0x40 DUP2 KECCAK256 PUSH1 0x3 ADD DUP1 SLOAD DUP5 SWAP3 SWAP1 PUSH2 0x1071 SWAP1 DUP5 SWAP1 PUSH2 0x192F JUMP JUMPDEST SWAP1 SWAP2 SSTORE POP POP ADDRESS PUSH0 SWAP1 DUP2 MSTORE PUSH1 0x6 PUSH1 0x20 MSTORE PUSH1 0x40 DUP2 KECCAK256 PUSH1 0x2 ADD DUP1 SLOAD SWAP2 PUSH2 0x1093 DUP4 PUSH2 0x1978 JUMP JUMPDEST SWAP1 SWAP2 SSTORE POP POP CALLER PUSH0 SWAP1 DUP2 MSTORE PUSH1 0x5 PUSH1 0x20 DUP2 DUP2 MSTORE PUSH1 0x40 DUP1 DUP5 KECCAK256 DUP6 DUP6 MSTORE SWAP1 SWAP3 ADD DUP2 MSTORE DUP2 DUP4 KECCAK256 DUP1 SLOAD PUSH1 0xFF NOT AND PUSH1 0x1 OR SWAP1 SSTORE ADDRESS DUP4 MSTORE PUSH1 0x6 SWAP1 DUP2 SWAP1 MSTORE SWAP2 KECCAK256 PUSH1 0x7 DUP2 ADD SLOAD SWAP2 ADD SLOAD PUSH2 0x10DC SWAP2 SWAP1 PUSH2 0x489 JUMP JUMPDEST ADDRESS PUSH0 DUP2 DUP2 MSTORE PUSH1 0x6 PUSH1 0x20 MSTORE PUSH1 0x40 DUP1 DUP3 KECCAK256 PUSH1 0x5 DUP2 ADD SWAP5 SWAP1 SWAP5 SSTORE PUSH1 0x4 SWAP4 DUP5 ADD SWAP5 SWAP1 SWAP5 SSTORE PUSH1 0x1 SLOAD SWAP4 MLOAD PUSH4 0x23B872DD PUSH1 0xE0 SHL DUP2 MSTORE CALLER SWAP4 DUP2 ADD SWAP4 SWAP1 SWAP4 MSTORE PUSH1 0x24 DUP4 ADD SWAP2 SWAP1 SWAP2 MSTORE PUSH1 0x44 DUP3 ADD DUP6 SWAP1 MSTORE SWAP2 PUSH1 0x1 PUSH1 0x1 PUSH1 0xA0 SHL SUB AND SWAP1 PUSH4 0x23B872DD SWAP1 PUSH1 0x64 ADD PUSH1 0x20 PUSH1 0x40 MLOAD DUP1 DUP4 SUB DUP2 PUSH0 DUP8 GAS CALL ISZERO DUP1 ISZERO PUSH2 0x1152 JUMPI RETURNDATASIZE PUSH0 DUP1 RETURNDATACOPY RETURNDATASIZE PUSH0 REVERT JUMPDEST POP POP POP POP PUSH1 0x40 MLOAD RETURNDATASIZE PUSH1 0x1F NOT PUSH1 0x1F DUP3 ADD AND DUP3 ADD DUP1 PUSH1 0x40 MSTORE POP DUP2 ADD SWAP1 PUSH2 0x1176 SWAP2 SWAP1 PUSH2 0x19BA JUMP JUMPDEST SWAP1 POP DUP1 PUSH2 0x119A JUMPI PUSH1 0x40 MLOAD PUSH4 0xD85D3CEF PUSH1 0xE0 SHL DUP2 MSTORE DUP2 ISZERO ISZERO PUSH1 0x4 DUP3 ADD MSTORE PUSH1 0x24 ADD PUSH2 0x581 JUMP JUMPDEST PUSH1 0x40 MLOAD DUP3 DUP2 MSTORE DUP4 SWAP1 CALLER SWAP1 PUSH32 0xF41B7910E085D0992D604FD470931728FD77CC8EB504D99E50E51A0A30FCFD1A SWAP1 PUSH1 0x20 ADD PUSH1 0x40 MLOAD DUP1 SWAP2 SUB SWAP1 LOG3 POP POP POP JUMP JUMPDEST PUSH2 0x11DE PUSH2 0x17A6 JUMP JUMPDEST PUSH2 0x11E7 PUSH0 PUSH2 0x17D2 JUMP JUMPDEST JUMP JUMPDEST ADDRESS PUSH0 SWAP1 DUP2 MSTORE PUSH1 0x6 PUSH1 0x20 MSTORE PUSH1 0x40 DUP2 KECCAK256 DUP2 SWAP1 PUSH1 0x4 ADD DUP4 PUSH1 0x2 DUP2 LT PUSH2 0x120D JUMPI PUSH2 0x120D PUSH2 0x1907 JUMP JUMPDEST ADD SLOAD SWAP1 POP DUP1 PUSH0 SUB PUSH2 0x1258 JUMPI PUSH1 0x40 MLOAD PUSH3 0x461BCD PUSH1 0xE5 SHL DUP2 MSTORE PUSH1 0x20 PUSH1 0x4 DUP3 ADD MSTORE PUSH1 0x15 PUSH1 0x24 DUP3 ADD MSTORE PUSH21 0x5F70726963652063616E6E6F74206265207A65726F PUSH1 0x58 SHL PUSH1 0x44 DUP3 ADD MSTORE PUSH1 0x64 ADD PUSH2 0x581 JUMP JUMPDEST PUSH0 DUP2 PUSH2 0x1265 DUP7 PUSH1 0x64 PUSH2 0x1942 JUMP JUMPDEST PUSH2 0x126F SWAP2 SWAP1 PUSH2 0x1959 JUMP JUMPDEST SWAP6 SWAP5 POP POP POP POP POP JUMP JUMPDEST PUSH2 0x1280 PUSH2 0x17A6 JUMP JUMPDEST PUSH1 0x1 PUSH1 0x1 PUSH1 0xA0 SHL SUB DUP2 AND PUSH2 0x12A9 JUMPI PUSH1 0x40 MLOAD PUSH4 0x1E4FBDF7 PUSH1 0xE0 SHL DUP2 MSTORE PUSH0 PUSH1 0x4 DUP3 ADD MSTORE PUSH1 0x24 ADD PUSH2 0x581 JUMP JUMPDEST PUSH2 0x12B2 DUP2 PUSH2 0x17D2 JUMP JUMPDEST POP JUMP JUMPDEST PUSH1 0x1 PUSH1 0x1 PUSH1 0xA0 SHL SUB DUP2 AND PUSH0 SWAP1 DUP2 MSTORE PUSH1 0x7 PUSH1 0x20 SWAP1 DUP2 MSTORE PUSH1 0x40 DUP1 DUP4 KECCAK256 DUP6 DUP5 MSTORE SWAP1 SWAP2 MSTORE SWAP1 KECCAK256 SLOAD PUSH1 0xFF AND PUSH2 0x12FB JUMPI PUSH1 0x40 MLOAD PUSH4 0x2B32E0D PUSH1 0xE3 SHL DUP2 MSTORE PUSH1 0x4 DUP2 ADD DUP4 SWAP1 MSTORE PUSH1 0x24 ADD PUSH2 0x581 JUMP JUMPDEST PUSH1 0x1 PUSH1 0x1 PUSH1 0xA0 SHL SUB DUP2 AND PUSH0 SWAP1 DUP2 MSTORE PUSH1 0x7 PUSH1 0x20 SWAP1 DUP2 MSTORE PUSH1 0x40 DUP1 DUP4 KECCAK256 DUP6 DUP5 MSTORE SWAP1 SWAP2 MSTORE SWAP1 KECCAK256 SLOAD PUSH2 0x100 SWAP1 DIV PUSH1 0xFF AND ISZERO PUSH2 0x1374 JUMPI PUSH1 0x1 PUSH1 0x1 PUSH1 0xA0 SHL SUB DUP2 AND PUSH0 SWAP1 DUP2 MSTORE PUSH1 0x7 PUSH1 0x20 SWAP1 DUP2 MSTORE PUSH1 0x40 DUP1 DUP4 KECCAK256 DUP6 DUP5 MSTORE SWAP1 SWAP2 MSTORE SWAP1 DUP2 SWAP1 KECCAK256 SLOAD SWAP1 MLOAD PUSH4 0xCA1C6EB3 PUSH1 0xE0 SHL DUP2 MSTORE PUSH2 0x100 SWAP1 SWAP2 DIV PUSH1 0xFF AND ISZERO ISZERO PUSH1 0x4 DUP3 ADD MSTORE PUSH1 0x24 ADD PUSH2 0x581 JUMP JUMPDEST ADDRESS PUSH0 SWAP1 DUP2 MSTORE PUSH1 0x6 PUSH1 0x20 MSTORE PUSH1 0x40 SWAP1 KECCAK256 SLOAD PUSH1 0xFF AND ISZERO PUSH2 0x13A4 JUMPI PUSH1 0x40 MLOAD PUSH4 0x853FD421 PUSH1 0xE0 SHL DUP2 MSTORE PUSH1 0x4 ADD PUSH1 0x40 MLOAD DUP1 SWAP2 SUB SWAP1 REVERT JUMPDEST PUSH1 0x1 PUSH1 0x1 PUSH1 0xA0 SHL SUB DUP1 DUP3 AND PUSH0 DUP2 DUP2 MSTORE PUSH1 0x7 PUSH1 0x20 SWAP1 DUP2 MSTORE PUSH1 0x40 DUP1 DUP4 KECCAK256 DUP8 DUP5 MSTORE SWAP1 SWAP2 MSTORE SWAP1 KECCAK256 SLOAD PUSH3 0x10000 SWAP1 DIV SWAP1 SWAP2 AND EQ PUSH2 0x13FA JUMPI PUSH1 0x40 MLOAD PUSH4 0x1ED6F38B PUSH1 0xE3 SHL DUP2 MSTORE PUSH1 0x1 PUSH1 0x1 PUSH1 0xA0 SHL SUB DUP3 AND PUSH1 0x4 DUP3 ADD MSTORE PUSH1 0x24 ADD PUSH2 0x581 JUMP JUMPDEST PUSH1 0x1 PUSH1 0x1 PUSH1 0xA0 SHL SUB DUP2 AND PUSH0 SWAP1 DUP2 MSTORE PUSH1 0x7 PUSH1 0x20 SWAP1 DUP2 MSTORE PUSH1 0x40 DUP1 DUP4 KECCAK256 DUP6 DUP5 MSTORE SWAP1 SWAP2 MSTORE DUP2 KECCAK256 DUP1 SLOAD PUSH2 0x100 PUSH2 0x100 PUSH1 0x1 PUSH1 0xB0 SHL SUB NOT SWAP1 SWAP2 AND CALLER PUSH3 0x10000 MUL OR OR DUP2 SSTORE PUSH1 0x3 ADD SLOAD SWAP1 SUB PUSH2 0x14D9 JUMPI PUSH1 0x1 PUSH1 0x1 PUSH1 0xA0 SHL SUB DUP2 AND PUSH0 SWAP1 DUP2 MSTORE PUSH1 0x7 PUSH1 0x20 SWAP1 DUP2 MSTORE PUSH1 0x40 DUP1 DUP4 KECCAK256 DUP6 DUP5 MSTORE DUP3 MSTORE DUP1 DUP4 KECCAK256 PUSH1 0x2 ADD SLOAD CALLER DUP5 MSTORE PUSH1 0x5 SWAP1 SWAP3 MSTORE DUP3 KECCAK256 PUSH1 0x1 ADD DUP1 SLOAD SWAP2 SWAP3 SWAP1 SWAP2 PUSH2 0x1486 SWAP1 DUP5 SWAP1 PUSH2 0x192F JUMP JUMPDEST SWAP1 SWAP2 SSTORE POP POP PUSH1 0x1 PUSH1 0x1 PUSH1 0xA0 SHL SUB DUP2 AND PUSH0 DUP2 DUP2 MSTORE PUSH1 0x7 PUSH1 0x20 SWAP1 DUP2 MSTORE PUSH1 0x40 DUP1 DUP4 KECCAK256 DUP7 DUP5 MSTORE DUP3 MSTORE DUP1 DUP4 KECCAK256 PUSH1 0x2 ADD SLOAD SWAP4 DUP4 MSTORE PUSH1 0x5 SWAP1 SWAP2 MSTORE DUP2 KECCAK256 PUSH1 0x1 ADD DUP1 SLOAD SWAP1 SWAP2 SWAP1 PUSH2 0x14CE SWAP1 DUP5 SWAP1 PUSH2 0x1990 JUMP JUMPDEST SWAP1 SWAP2 SSTORE POP PUSH2 0x156B SWAP1 POP JUMP JUMPDEST PUSH1 0x1 PUSH1 0x1 PUSH1 0xA0 SHL SUB DUP2 AND PUSH0 DUP2 DUP2 MSTORE PUSH1 0x7 PUSH1 0x20 SWAP1 DUP2 MSTORE PUSH1 0x40 DUP1 DUP4 KECCAK256 DUP7 DUP5 MSTORE DUP3 MSTORE DUP1 DUP4 KECCAK256 PUSH1 0x2 ADD SLOAD SWAP4 DUP4 MSTORE PUSH1 0x5 SWAP1 SWAP2 MSTORE DUP2 KECCAK256 PUSH1 0x3 ADD DUP1 SLOAD SWAP1 SWAP2 SWAP1 PUSH2 0x151C SWAP1 DUP5 SWAP1 PUSH2 0x1990 JUMP JUMPDEST SWAP1 SWAP2 SSTORE POP POP PUSH1 0x1 PUSH1 0x1 PUSH1 0xA0 SHL SUB DUP2 AND PUSH0 SWAP1 DUP2 MSTORE PUSH1 0x7 PUSH1 0x20 SWAP1 DUP2 MSTORE PUSH1 0x40 DUP1 DUP4 KECCAK256 DUP6 DUP5 MSTORE DUP3 MSTORE DUP1 DUP4 KECCAK256 PUSH1 0x2 ADD SLOAD CALLER DUP5 MSTORE PUSH1 0x5 SWAP1 SWAP3 MSTORE DUP3 KECCAK256 PUSH1 0x3 ADD DUP1 SLOAD SWAP2 SWAP3 SWAP1 SWAP2 PUSH2 0x1565 SWAP1 DUP5 SWAP1 PUSH2 0x192F JUMP JUMPDEST SWAP1 SWAP2 SSTORE POP POP JUMPDEST CALLER PUSH0 DUP2 DUP2 MSTORE PUSH1 0x5 PUSH1 0x20 DUP2 DUP2 MSTORE PUSH1 0x40 DUP1 DUP5 KECCAK256 PUSH1 0x1 PUSH1 0x1 PUSH1 0xA0 SHL SUB DUP8 AND DUP6 MSTORE PUSH1 0x7 DUP4 MSTORE DUP2 DUP6 KECCAK256 DUP9 DUP7 MSTORE DUP4 MSTORE DUP2 DUP6 KECCAK256 PUSH1 0x3 ADD SLOAD DUP6 MSTORE SWAP1 SWAP3 ADD DUP2 MSTORE DUP2 DUP4 KECCAK256 DUP1 SLOAD PUSH1 0xFF NOT AND PUSH1 0x1 OR SWAP1 SSTORE PUSH1 0x2 DUP1 SLOAD DUP5 MSTORE PUSH1 0x4 SWAP1 SWAP2 MSTORE SWAP1 DUP3 KECCAK256 DUP1 SLOAD PUSH1 0x1 PUSH1 0x1 PUSH1 0xA0 SHL SUB NOT AND SWAP1 SWAP4 OR SWAP1 SWAP3 SSTORE DUP2 SLOAD SWAP2 SWAP1 PUSH2 0x15DD DUP4 PUSH2 0x1978 JUMP JUMPDEST SWAP1 SWAP2 SSTORE POP POP PUSH1 0x1 DUP1 SLOAD PUSH1 0x1 PUSH1 0x1 PUSH1 0xA0 SHL SUB DUP4 DUP2 AND PUSH0 DUP2 DUP2 MSTORE PUSH1 0x7 PUSH1 0x20 SWAP1 DUP2 MSTORE PUSH1 0x40 DUP1 DUP4 KECCAK256 DUP10 DUP5 MSTORE SWAP1 SWAP2 MSTORE DUP1 DUP3 KECCAK256 SWAP1 SWAP6 ADD SLOAD SWAP5 MLOAD PUSH4 0x23B872DD PUSH1 0xE0 SHL DUP2 MSTORE CALLER PUSH1 0x4 DUP3 ADD MSTORE PUSH1 0x24 DUP2 ADD SWAP3 SWAP1 SWAP3 MSTORE PUSH1 0x44 DUP3 ADD SWAP5 SWAP1 SWAP5 MSTORE SWAP2 AND SWAP1 PUSH4 0x23B872DD SWAP1 PUSH1 0x64 ADD PUSH1 0x20 PUSH1 0x40 MLOAD DUP1 DUP4 SUB DUP2 PUSH0 DUP8 GAS CALL ISZERO DUP1 ISZERO PUSH2 0x1658 JUMPI RETURNDATASIZE PUSH0 DUP1 RETURNDATACOPY RETURNDATASIZE PUSH0 REVERT JUMPDEST POP POP POP POP PUSH1 0x40 MLOAD RETURNDATASIZE PUSH1 0x1F NOT PUSH1 0x1F DUP3 ADD AND DUP3 ADD DUP1 PUSH1 0x40 MSTORE POP DUP2 ADD SWAP1 PUSH2 0x167C SWAP2 SWAP1 PUSH2 0x19BA JUMP JUMPDEST SWAP1 POP DUP1 PUSH2 0x16A0 JUMPI PUSH1 0x40 MLOAD PUSH4 0x39FEC783 PUSH1 0xE1 SHL DUP2 MSTORE DUP2 ISZERO ISZERO PUSH1 0x4 DUP3 ADD MSTORE PUSH1 0x24 ADD PUSH2 0x581 JUMP JUMPDEST PUSH1 0x1 PUSH1 0x1 PUSH1 0xA0 SHL SUB DUP3 AND PUSH0 DUP2 DUP2 MSTORE PUSH1 0x7 PUSH1 0x20 SWAP1 DUP2 MSTORE PUSH1 0x40 DUP1 DUP4 KECCAK256 DUP8 DUP5 MSTORE DUP3 MSTORE SWAP2 DUP3 SWAP1 KECCAK256 PUSH1 0x2 DUP2 ADD SLOAD PUSH1 0x1 SWAP1 SWAP2 ADD SLOAD DUP4 MLOAD CALLER DUP2 MSTORE SWAP3 DUP4 ADD SWAP5 SWAP1 SWAP5 MSTORE DUP2 DUP4 ADD MSTORE PUSH1 0x60 DUP2 ADD SWAP3 SWAP1 SWAP3 MSTORE MLOAD PUSH32 0x4EF696CF4AAE43C49F3CC815F4721BA5E44E2468E6512ECCA3D4730BE569A90A SWAP2 DUP2 SWAP1 SUB PUSH1 0x80 ADD SWAP1 LOG1 POP POP POP JUMP JUMPDEST PUSH0 DUP3 DUP5 LT ISZERO PUSH2 0x1726 JUMPI POP DUP2 PUSH2 0x1738 JUMP JUMPDEST DUP2 DUP5 GT ISZERO PUSH2 0x1735 JUMPI POP DUP1 PUSH2 0x1738 JUMP JUMPDEST POP DUP3 JUMPDEST SWAP4 SWAP3 POP POP POP JUMP JUMPDEST PUSH0 DUP1 DUP4 GT PUSH2 0x1763 JUMPI PUSH1 0x40 MLOAD PUSH4 0xA55196D3 PUSH1 0xE0 SHL DUP2 MSTORE PUSH1 0x4 DUP2 ADD DUP5 SWAP1 MSTORE PUSH1 0x24 ADD PUSH2 0x581 JUMP JUMPDEST PUSH0 DUP4 GT PUSH2 0x1786 JUMPI PUSH1 0x40 MLOAD PUSH4 0x84857EF PUSH1 0xE4 SHL DUP2 MSTORE PUSH1 0x4 DUP2 ADD DUP4 SWAP1 MSTORE PUSH1 0x24 ADD PUSH2 0x581 JUMP JUMPDEST PUSH0 PUSH2 0x2710 PUSH2 0x1794 DUP5 DUP7 PUSH2 0x1942 JUMP JUMPDEST PUSH2 0x179E SWAP2 SWAP1 PUSH2 0x1959 JUMP JUMPDEST SWAP5 SWAP4 POP POP POP POP JUMP JUMPDEST PUSH0 SLOAD PUSH1 0x1 PUSH1 0x1 PUSH1 0xA0 SHL SUB AND CALLER EQ PUSH2 0x11E7 JUMPI PUSH1 0x40 MLOAD PUSH4 0x118CDAA7 PUSH1 0xE0 SHL DUP2 MSTORE CALLER PUSH1 0x4 DUP3 ADD MSTORE PUSH1 0x24 ADD PUSH2 0x581 JUMP JUMPDEST PUSH0 DUP1 SLOAD PUSH1 0x1 PUSH1 0x1 PUSH1 0xA0 SHL SUB DUP4 DUP2 AND PUSH1 0x1 PUSH1 0x1 PUSH1 0xA0 SHL SUB NOT DUP4 AND DUP2 OR DUP5 SSTORE PUSH1 0x40 MLOAD SWAP2 SWAP1 SWAP3 AND SWAP3 DUP4 SWAP2 PUSH32 0x8BE0079C531659141344CD1FD0A4F28419497F9722A3DAAFE3B4186F6B6457E0 SWAP2 SWAP1 LOG3 POP POP JUMP JUMPDEST PUSH0 PUSH1 0x20 DUP3 DUP5 SUB SLT ISZERO PUSH2 0x1831 JUMPI PUSH0 DUP1 REVERT JUMPDEST POP CALLDATALOAD SWAP2 SWAP1 POP JUMP JUMPDEST DUP1 CALLDATALOAD PUSH1 0x1 PUSH1 0x1 PUSH1 0xA0 SHL SUB DUP2 AND DUP2 EQ PUSH2 0x184E JUMPI PUSH0 DUP1 REVERT JUMPDEST SWAP2 SWAP1 POP JUMP JUMPDEST PUSH0 DUP1 PUSH1 0x40 DUP4 DUP6 SUB SLT ISZERO PUSH2 0x1864 JUMPI PUSH0 DUP1 REVERT JUMPDEST PUSH2 0x186D DUP4 PUSH2 0x1838 JUMP JUMPDEST SWAP5 PUSH1 0x20 SWAP4 SWAP1 SWAP4 ADD CALLDATALOAD SWAP4 POP POP POP JUMP JUMPDEST PUSH0 PUSH1 0x20 DUP3 DUP5 SUB SLT ISZERO PUSH2 0x188B JUMPI PUSH0 DUP1 REVERT JUMPDEST PUSH2 0x1738 DUP3 PUSH2 0x1838 JUMP JUMPDEST PUSH0 DUP1 PUSH1 0x40 DUP4 DUP6 SUB SLT ISZERO PUSH2 0x18A5 JUMPI PUSH0 DUP1 REVERT JUMPDEST POP POP DUP1 CALLDATALOAD SWAP3 PUSH1 0x20 SWAP1 SWAP2 ADD CALLDATALOAD SWAP2 POP JUMP JUMPDEST PUSH0 DUP1 PUSH0 PUSH1 0x60 DUP5 DUP7 SUB SLT ISZERO PUSH2 0x18C6 JUMPI PUSH0 DUP1 REVERT JUMPDEST POP POP DUP2 CALLDATALOAD SWAP4 PUSH1 0x20 DUP4 ADD CALLDATALOAD SWAP4 POP PUSH1 0x40 SWAP1 SWAP3 ADD CALLDATALOAD SWAP2 SWAP1 POP JUMP JUMPDEST PUSH0 DUP1 PUSH1 0x40 DUP4 DUP6 SUB SLT ISZERO PUSH2 0x18EE JUMPI PUSH0 DUP1 REVERT JUMPDEST DUP3 CALLDATALOAD SWAP2 POP PUSH2 0x18FE PUSH1 0x20 DUP5 ADD PUSH2 0x1838 JUMP JUMPDEST SWAP1 POP SWAP3 POP SWAP3 SWAP1 POP JUMP JUMPDEST PUSH4 0x4E487B71 PUSH1 0xE0 SHL PUSH0 MSTORE PUSH1 0x32 PUSH1 0x4 MSTORE PUSH1 0x24 PUSH0 REVERT JUMPDEST PUSH4 0x4E487B71 PUSH1 0xE0 SHL PUSH0 MSTORE PUSH1 0x11 PUSH1 0x4 MSTORE PUSH1 0x24 PUSH0 REVERT JUMPDEST DUP1 DUP3 ADD DUP1 DUP3 GT ISZERO PUSH2 0x483 JUMPI PUSH2 0x483 PUSH2 0x191B JUMP JUMPDEST DUP1 DUP3 MUL DUP2 ISZERO DUP3 DUP3 DIV DUP5 EQ OR PUSH2 0x483 JUMPI PUSH2 0x483 PUSH2 0x191B JUMP JUMPDEST PUSH0 DUP3 PUSH2 0x1973 JUMPI PUSH4 0x4E487B71 PUSH1 0xE0 SHL PUSH0 MSTORE PUSH1 0x12 PUSH1 0x4 MSTORE PUSH1 0x24 PUSH0 REVERT JUMPDEST POP DIV SWAP1 JUMP JUMPDEST PUSH0 PUSH1 0x1 DUP3 ADD PUSH2 0x1989 JUMPI PUSH2 0x1989 PUSH2 0x191B JUMP JUMPDEST POP PUSH1 0x1 ADD SWAP1 JUMP JUMPDEST DUP2 DUP2 SUB DUP2 DUP2 GT ISZERO PUSH2 0x483 JUMPI PUSH2 0x483 PUSH2 0x191B JUMP JUMPDEST PUSH0 PUSH1 0x20 DUP3 DUP5 SUB SLT ISZERO PUSH2 0x19B3 JUMPI PUSH0 DUP1 REVERT JUMPDEST POP MLOAD SWAP2 SWAP1 POP JUMP JUMPDEST PUSH0 PUSH1 0x20 DUP3 DUP5 SUB SLT ISZERO PUSH2 0x19CA JUMPI PUSH0 DUP1 REVERT JUMPDEST DUP2 MLOAD DUP1 ISZERO ISZERO DUP2 EQ PUSH2 0x1738 JUMPI PUSH0 DUP1 REVERT INVALID LOG2 PUSH5 0x6970667358 0x22 SLT KECCAK256 ADDMOD PUSH4 0x5B177BC8 PUSH4 0xE0D1FD0F 0xC8 0xD0 JUMP ADDMOD 0xF7 DUP1 PUSH9 0x6EB988C15E4F5C7DF6 0xB6 0x4C SWAP5 0x25 0xC0 PUSH5 0x736F6C6343 STOP ADDMOD BYTE STOP CALLER "
		},
		"gasEstimates": {
			"creation": {
				"codeDepositCost": "1334200",
				"executionCost": "infinite",
				"totalCost": "infinite"
			},
			"external": {
				"PriceCalculation(uint256,uint256)": "infinite",
				"bet(uint256,uint256)": "infinite",
				"buyShare(uint256,address)": "infinite",
				"calculateShares(uint256,uint256)": "2819",
				"eachUser(uint256)": "2487",
				"getInitialPrices()": "4515",
				"marketInfo(address)": "13271",
				"owner()": "2407",
				"profitPercentage()": "2316",
				"readSellInfo(address,uint256)": "9232",
				"renounceOwnership()": "infinite",
				"resolveMarket(uint256)": "infinite",
				"sellInfo(address,uint256)": "9261",
				"sellShare(uint256,uint256,uint256)": "161075",
				"totalUsers()": "2338",
				"transferOwnership(address)": "28417",
				"usdcToken()": "2393",
				"userBetOn(address,uint256)": "2714",
				"userInfo(address)": "11150"
			},
			"internal": {
				"calculatePercentage(uint256,uint256)": "infinite",
				"clamp(uint256,uint256,uint256)": "91"
			}
		},
		"methodIdentifiers": {
			"PriceCalculation(uint256,uint256)": "21d0d9af",
			"bet(uint256,uint256)": "6ffcc719",
			"buyShare(uint256,address)": "fbea0b06",
			"calculateShares(uint256,uint256)": "b3c740e8",
			"eachUser(uint256)": "08ef962e",
			"getInitialPrices()": "208c86a4",
			"marketInfo(address)": "c4351386",
			"owner()": "8da5cb5b",
			"profitPercentage()": "b677d9d2",
			"readSellInfo(address,uint256)": "3774ca25",
			"renounceOwnership()": "715018a6",
			"resolveMarket(uint256)": "6399d03d",
			"sellInfo(address,uint256)": "61d464ef",
			"sellShare(uint256,uint256,uint256)": "456e62ba",
			"totalUsers()": "bff1f9e1",
			"transferOwnership(address)": "f2fde38b",
			"usdcToken()": "11eac855",
			"userBetOn(address,uint256)": "0efa82f6",
			"userInfo(address)": "1959a002"
		}
	},
	"abi": [
		{
			"inputs": [
				{
					"internalType": "address",
					"name": "initialOwner",
					"type": "address"
				},
				{
					"internalType": "address",
					"name": "_usdcToken",
					"type": "address"
				},
				{
					"internalType": "uint256",
					"name": "_endTime",
					"type": "uint256"
				}
			],
			"stateMutability": "nonpayable",
			"type": "constructor"
		},
		{
			"inputs": [
				{
					"internalType": "address",
					"name": "owner",
					"type": "address"
				}
			],
			"name": "OwnableInvalidOwner",
			"type": "error"
		},
		{
			"inputs": [
				{
					"internalType": "address",
					"name": "account",
					"type": "address"
				}
			],
			"name": "OwnableUnauthorizedAccount",
			"type": "error"
		},
		{
			"inputs": [
				{
					"internalType": "bool",
					"name": "sold",
					"type": "bool"
				}
			],
			"name": "alreadySold",
			"type": "error"
		},
		{
			"inputs": [
				{
					"internalType": "uint256",
					"name": "contractBalance",
					"type": "uint256"
				}
			],
			"name": "contractLowbalance",
			"type": "error"
		},
		{
			"inputs": [
				{
					"internalType": "uint256",
					"name": "contractBalance",
					"type": "uint256"
				}
			],
			"name": "contractLowbalanceForOwner",
			"type": "error"
		},
		{
			"inputs": [],
			"name": "marketResolved",
			"type": "error"
		},
		{
			"inputs": [
				{
					"internalType": "bool",
					"name": "beted",
					"type": "bool"
				}
			],
			"name": "notBet",
			"type": "error"
		},
		{
			"inputs": [
				{
					"internalType": "uint256",
					"name": "_useerAmount",
					"type": "uint256"
				}
			],
			"name": "notEnoughAmount",
			"type": "error"
		},
		{
			"inputs": [
				{
					"internalType": "uint256",
					"name": "listNo",
					"type": "uint256"
				}
			],
			"name": "notListed",
			"type": "error"
		},
		{
			"inputs": [
				{
					"internalType": "uint256",
					"name": "endTime",
					"type": "uint256"
				}
			],
			"name": "notResolvedBeforeTime",
			"type": "error"
		},
		{
			"inputs": [
				{
					"internalType": "bool",
					"name": "transferd",
					"type": "bool"
				}
			],
			"name": "transferFaild",
			"type": "error"
		},
		{
			"inputs": [
				{
					"internalType": "bool",
					"name": "transfered",
					"type": "bool"
				}
			],
			"name": "transferFailed",
			"type": "error"
		},
		{
			"inputs": [
				{
					"internalType": "uint256",
					"name": "amount",
					"type": "uint256"
				}
			],
			"name": "wrongAmount",
			"type": "error"
		},
		{
			"inputs": [
				{
					"internalType": "uint256",
					"name": "betIndex",
					"type": "uint256"
				}
			],
			"name": "wrongBetIndex",
			"type": "error"
		},
		{
			"inputs": [
				{
					"internalType": "address",
					"name": "owner",
					"type": "address"
				}
			],
			"name": "wrongOwner",
			"type": "error"
		},
		{
			"inputs": [
				{
					"internalType": "uint256",
					"name": "price",
					"type": "uint256"
				}
			],
			"name": "wrongPrice",
			"type": "error"
		},
		{
			"inputs": [
				{
					"internalType": "uint256",
					"name": "_amount",
					"type": "uint256"
				}
			],
			"name": "zeroPercentageAmount",
			"type": "error"
		},
		{
			"inputs": [
				{
					"internalType": "uint256",
					"name": "percentageNumber",
					"type": "uint256"
				}
			],
			"name": "zeropercentageNumber",
			"type": "error"
		},
		{
			"anonymous": false,
			"inputs": [
				{
					"indexed": true,
					"internalType": "address",
					"name": "user",
					"type": "address"
				},
				{
					"indexed": true,
					"internalType": "uint256",
					"name": "_amount",
					"type": "uint256"
				},
				{
					"indexed": false,
					"internalType": "uint256",
					"name": "_betOn",
					"type": "uint256"
				}
			],
			"name": "Bet",
			"type": "event"
		},
		{
			"anonymous": false,
			"inputs": [
				{
					"indexed": false,
					"internalType": "address",
					"name": "buyer",
					"type": "address"
				},
				{
					"indexed": false,
					"internalType": "address",
					"name": "seller",
					"type": "address"
				},
				{
					"indexed": false,
					"internalType": "uint256",
					"name": "_amountBBuyed",
					"type": "uint256"
				},
				{
					"indexed": false,
					"internalType": "uint256",
					"name": "onPrice",
					"type": "uint256"
				}
			],
			"name": "BuyShares",
			"type": "event"
		},
		{
			"anonymous": false,
			"inputs": [
				{
					"indexed": true,
					"internalType": "address",
					"name": "previousOwner",
					"type": "address"
				},
				{
					"indexed": true,
					"internalType": "address",
					"name": "newOwner",
					"type": "address"
				}
			],
			"name": "OwnershipTransferred",
			"type": "event"
		},
		{
			"anonymous": false,
			"inputs": [
				{
					"indexed": false,
					"internalType": "address",
					"name": "ownerAddress",
					"type": "address"
				},
				{
					"indexed": false,
					"internalType": "uint256",
					"name": "ownerAmount",
					"type": "uint256"
				},
				{
					"indexed": false,
					"internalType": "uint256",
					"name": "perShareAmount",
					"type": "uint256"
				},
				{
					"indexed": false,
					"internalType": "uint256",
					"name": "winningIndex",
					"type": "uint256"
				}
			],
			"name": "ResolveMarket",
			"type": "event"
		},
		{
			"anonymous": false,
			"inputs": [
				{
					"indexed": true,
					"internalType": "address",
					"name": "user",
					"type": "address"
				},
				{
					"indexed": false,
					"internalType": "uint256",
					"name": "listNo",
					"type": "uint256"
				},
				{
					"indexed": false,
					"internalType": "uint256",
					"name": "onPrice",
					"type": "uint256"
				}
			],
			"name": "SellShare",
			"type": "event"
		},
		{
			"inputs": [
				{
					"internalType": "uint256",
					"name": "_totalBetAmountOnNo",
					"type": "uint256"
				},
				{
					"internalType": "uint256",
					"name": "_totalBetAmountOnYes",
					"type": "uint256"
				}
			],
			"name": "PriceCalculation",
			"outputs": [
				{
					"internalType": "uint256",
					"name": "yesSharePrice",
					"type": "uint256"
				},
				{
					"internalType": "uint256",
					"name": "noSharePrice",
					"type": "uint256"
				}
			],
			"stateMutability": "pure",
			"type": "function"
		},
		{
			"inputs": [
				{
					"internalType": "uint256",
					"name": "_amount",
					"type": "uint256"
				},
				{
					"internalType": "uint256",
					"name": "_betOn",
					"type": "uint256"
				}
			],
			"name": "bet",
			"outputs": [],
			"stateMutability": "nonpayable",
			"type": "function"
		},
		{
			"inputs": [
				{
					"internalType": "uint256",
					"name": "_listNo",
					"type": "uint256"
				},
				{
					"internalType": "address",
					"name": "_owner",
					"type": "address"
				}
			],
			"name": "buyShare",
			"outputs": [],
			"stateMutability": "nonpayable",
			"type": "function"
		},
		{
			"inputs": [
				{
					"internalType": "uint256",
					"name": "_amount",
					"type": "uint256"
				},
				{
					"internalType": "uint256",
					"name": "_betOn",
					"type": "uint256"
				}
			],
			"name": "calculateShares",
			"outputs": [
				{
					"internalType": "uint256",
					"name": "",
					"type": "uint256"
				}
			],
			"stateMutability": "view",
			"type": "function"
		},
		{
			"inputs": [
				{
					"internalType": "uint256",
					"name": "",
					"type": "uint256"
				}
			],
			"name": "eachUser",
			"outputs": [
				{
					"internalType": "address",
					"name": "",
					"type": "address"
				}
			],
			"stateMutability": "view",
			"type": "function"
		},
		{
			"inputs": [],
			"name": "getInitialPrices",
			"outputs": [
				{
					"internalType": "uint256",
					"name": "",
					"type": "uint256"
				},
				{
					"internalType": "uint256",
					"name": "",
					"type": "uint256"
				}
			],
			"stateMutability": "view",
			"type": "function"
		},
		{
			"inputs": [
				{
					"internalType": "address",
					"name": "",
					"type": "address"
				}
			],
			"name": "marketInfo",
			"outputs": [
				{
					"internalType": "bool",
					"name": "resolved",
					"type": "bool"
				},
				{
					"internalType": "uint256",
					"name": "endTime",
					"type": "uint256"
				},
				{
					"internalType": "uint256",
					"name": "totalBets",
					"type": "uint256"
				},
				{
					"internalType": "uint256",
					"name": "totalAmount",
					"type": "uint256"
				},
				{
					"internalType": "uint256",
					"name": "totalBetAmountOnYes",
					"type": "uint256"
				},
				{
					"internalType": "uint256",
					"name": "totalBetAmountOnNo",
					"type": "uint256"
				}
			],
			"stateMutability": "view",
			"type": "function"
		},
		{
			"inputs": [],
			"name": "owner",
			"outputs": [
				{
					"internalType": "address",
					"name": "",
					"type": "address"
				}
			],
			"stateMutability": "view",
			"type": "function"
		},
		{
			"inputs": [],
			"name": "profitPercentage",
			"outputs": [
				{
					"internalType": "uint256",
					"name": "",
					"type": "uint256"
				}
			],
			"stateMutability": "view",
			"type": "function"
		},
		{
			"inputs": [
				{
					"internalType": "address",
					"name": "_owner",
					"type": "address"
				},
				{
					"internalType": "uint256",
					"name": "_id",
					"type": "uint256"
				}
			],
			"name": "readSellInfo",
			"outputs": [
				{
					"internalType": "bool",
					"name": "list",
					"type": "bool"
				},
				{
					"internalType": "bool",
					"name": "sold",
					"type": "bool"
				},
				{
					"internalType": "address",
					"name": "owner",
					"type": "address"
				},
				{
					"internalType": "uint256",
					"name": "price",
					"type": "uint256"
				},
				{
					"internalType": "uint256",
					"name": "amount",
					"type": "uint256"
				},
				{
					"internalType": "uint256",
					"name": "listOn",
					"type": "uint256"
				}
			],
			"stateMutability": "view",
			"type": "function"
		},
		{
			"inputs": [],
			"name": "renounceOwnership",
			"outputs": [],
			"stateMutability": "nonpayable",
			"type": "function"
		},
		{
			"inputs": [
				{
					"internalType": "uint256",
					"name": "winningIndex",
					"type": "uint256"
				}
			],
			"name": "resolveMarket",
			"outputs": [],
			"stateMutability": "nonpayable",
			"type": "function"
		},
		{
			"inputs": [
				{
					"internalType": "address",
					"name": "",
					"type": "address"
				},
				{
					"internalType": "uint256",
					"name": "",
					"type": "uint256"
				}
			],
			"name": "sellInfo",
			"outputs": [
				{
					"internalType": "bool",
					"name": "list",
					"type": "bool"
				},
				{
					"internalType": "bool",
					"name": "sold",
					"type": "bool"
				},
				{
					"internalType": "address",
					"name": "owner",
					"type": "address"
				},
				{
					"internalType": "uint256",
					"name": "price",
					"type": "uint256"
				},
				{
					"internalType": "uint256",
					"name": "amount",
					"type": "uint256"
				},
				{
					"internalType": "uint256",
					"name": "listOn",
					"type": "uint256"
				}
			],
			"stateMutability": "view",
			"type": "function"
		},
		{
			"inputs": [
				{
					"internalType": "uint256",
					"name": "_amount",
					"type": "uint256"
				},
				{
					"internalType": "uint256",
					"name": "_price",
					"type": "uint256"
				},
				{
					"internalType": "uint256",
					"name": "_sellOf",
					"type": "uint256"
				}
			],
			"name": "sellShare",
			"outputs": [],
			"stateMutability": "nonpayable",
			"type": "function"
		},
		{
			"inputs": [],
			"name": "totalUsers",
			"outputs": [
				{
					"internalType": "uint256",
					"name": "",
					"type": "uint256"
				}
			],
			"stateMutability": "view",
			"type": "function"
		},
		{
			"inputs": [
				{
					"internalType": "address",
					"name": "newOwner",
					"type": "address"
				}
			],
			"name": "transferOwnership",
			"outputs": [],
			"stateMutability": "nonpayable",
			"type": "function"
		},
		{
			"inputs": [],
			"name": "usdcToken",
			"outputs": [
				{
					"internalType": "contract ERC20",
					"name": "",
					"type": "address"
				}
			],
			"stateMutability": "view",
			"type": "function"
		},
		{
			"inputs": [
				{
					"internalType": "address",
					"name": "_user",
					"type": "address"
				},
				{
					"internalType": "uint256",
					"name": "_betIndex",
					"type": "uint256"
				}
			],
			"name": "userBetOn",
			"outputs": [
				{
					"internalType": "bool",
					"name": "",
					"type": "bool"
				}
			],
			"stateMutability": "view",
			"type": "function"
		},
		{
			"inputs": [
				{
					"internalType": "address",
					"name": "",
					"type": "address"
				}
			],
			"name": "userInfo",
			"outputs": [
				{
					"internalType": "uint256",
					"name": "listNo",
					"type": "uint256"
				},
				{
					"internalType": "uint256",
					"name": "noBetAmount",
					"type": "uint256"
				},
				{
					"internalType": "uint256",
					"name": "rewardAmount",
					"type": "uint256"
				},
				{
					"internalType": "uint256",
					"name": "yesBetAmount",
					"type": "uint256"
				},
				{
					"internalType": "uint256",
					"name": "shareAmount",
					"type": "uint256"
				}
			],
			"stateMutability": "view",
			"type": "function"
		}
	]
}