{
	"data": {
		"bytecode": {
			"linkReferences": {},
			"object": "6080604052348015600e575f80fd5b50305f9081526001602052604090206706f05b59d3b2000060048201819055600590910155610397806100405f395ff3fe608060405234801561000f575f80fd5b5060043610610055575f3560e01c8063208c86a414610059578063613f45941461008d5780636a7f4d58146100a3578063b3c740e8146100b6578063dbd3a401146100c9575b5f80fd5b305f90815260016020526040902060048101546005909101545b604080519283526020830191909152015b60405180910390f35b6100955f5481565b604051908152602001610084565b6100736100b13660046102b9565b6100dc565b6100956100c43660046102b9565b61012f565b6100956100d73660046102d9565b6101b8565b5f806100e88385610318565b5f808282546100f79190610318565b90915550610107905084846101c6565b305f9081526001602052604090206005810182905560040182905590925090505b9250929050565b305f90815260016020526040812081906004018360028110610153576101536102f0565b01549050805f036101a25760405162461bcd60e51b81526020600482015260156024820152745f70726963652063616e6e6f74206265207a65726f60581b604482015260640160405180910390fd5b5f6101ad828661032b565b925050505b92915050565b5f815f546101b2919061032b565b5f80806101d38486610318565b9050805f036101f0576706f05b59d3b20000809250925050610128565b5f816101fd87606461034a565b610207919061032b565b90505f8261021687606461034a565b610220919061032b565b9050610250606461023284606361034a565b61023c919061032b565b610247906001610318565b60016064610290565b61026190662386f26fc1000061034a565b9450610273606461023283606361034a565b61028490662386f26fc1000061034a565b93505050509250929050565b5f828410156102a05750816102b2565b818411156102af5750806102b2565b50825b9392505050565b5f80604083850312156102ca575f80fd5b50508035926020909101359150565b5f602082840312156102e9575f80fd5b5035919050565b634e487b7160e01b5f52603260045260245ffd5b634e487b7160e01b5f52601160045260245ffd5b808201808211156101b2576101b2610304565b5f8261034557634e487b7160e01b5f52601260045260245ffd5b500490565b80820281158282048414176101b2576101b261030456fea2646970667358221220d25a0b652778405878b9d62254f9ff91c74148ad33605a574ea57ce00cfa55d964736f6c634300081a0033",
			"opcodes": "PUSH1 0x80 PUSH1 0x40 MSTORE CALLVALUE DUP1 ISZERO PUSH1 0xE JUMPI PUSH0 DUP1 REVERT JUMPDEST POP ADDRESS PUSH0 SWAP1 DUP2 MSTORE PUSH1 0x1 PUSH1 0x20 MSTORE PUSH1 0x40 SWAP1 KECCAK256 PUSH8 0x6F05B59D3B20000 PUSH1 0x4 DUP3 ADD DUP2 SWAP1 SSTORE PUSH1 0x5 SWAP1 SWAP2 ADD SSTORE PUSH2 0x397 DUP1 PUSH2 0x40 PUSH0 CODECOPY PUSH0 RETURN INVALID PUSH1 0x80 PUSH1 0x40 MSTORE CALLVALUE DUP1 ISZERO PUSH2 0xF JUMPI PUSH0 DUP1 REVERT JUMPDEST POP PUSH1 0x4 CALLDATASIZE LT PUSH2 0x55 JUMPI PUSH0 CALLDATALOAD PUSH1 0xE0 SHR DUP1 PUSH4 0x208C86A4 EQ PUSH2 0x59 JUMPI DUP1 PUSH4 0x613F4594 EQ PUSH2 0x8D JUMPI DUP1 PUSH4 0x6A7F4D58 EQ PUSH2 0xA3 JUMPI DUP1 PUSH4 0xB3C740E8 EQ PUSH2 0xB6 JUMPI DUP1 PUSH4 0xDBD3A401 EQ PUSH2 0xC9 JUMPI JUMPDEST PUSH0 DUP1 REVERT JUMPDEST ADDRESS PUSH0 SWAP1 DUP2 MSTORE PUSH1 0x1 PUSH1 0x20 MSTORE PUSH1 0x40 SWAP1 KECCAK256 PUSH1 0x4 DUP2 ADD SLOAD PUSH1 0x5 SWAP1 SWAP2 ADD SLOAD JUMPDEST PUSH1 0x40 DUP1 MLOAD SWAP3 DUP4 MSTORE PUSH1 0x20 DUP4 ADD SWAP2 SWAP1 SWAP2 MSTORE ADD JUMPDEST PUSH1 0x40 MLOAD DUP1 SWAP2 SUB SWAP1 RETURN JUMPDEST PUSH2 0x95 PUSH0 SLOAD DUP2 JUMP JUMPDEST PUSH1 0x40 MLOAD SWAP1 DUP2 MSTORE PUSH1 0x20 ADD PUSH2 0x84 JUMP JUMPDEST PUSH2 0x73 PUSH2 0xB1 CALLDATASIZE PUSH1 0x4 PUSH2 0x2B9 JUMP JUMPDEST PUSH2 0xDC JUMP JUMPDEST PUSH2 0x95 PUSH2 0xC4 CALLDATASIZE PUSH1 0x4 PUSH2 0x2B9 JUMP JUMPDEST PUSH2 0x12F JUMP JUMPDEST PUSH2 0x95 PUSH2 0xD7 CALLDATASIZE PUSH1 0x4 PUSH2 0x2D9 JUMP JUMPDEST PUSH2 0x1B8 JUMP JUMPDEST PUSH0 DUP1 PUSH2 0xE8 DUP4 DUP6 PUSH2 0x318 JUMP JUMPDEST PUSH0 DUP1 DUP3 DUP3 SLOAD PUSH2 0xF7 SWAP2 SWAP1 PUSH2 0x318 JUMP JUMPDEST SWAP1 SWAP2 SSTORE POP PUSH2 0x107 SWAP1 POP DUP5 DUP5 PUSH2 0x1C6 JUMP JUMPDEST ADDRESS PUSH0 SWAP1 DUP2 MSTORE PUSH1 0x1 PUSH1 0x20 MSTORE PUSH1 0x40 SWAP1 KECCAK256 PUSH1 0x5 DUP2 ADD DUP3 SWAP1 SSTORE PUSH1 0x4 ADD DUP3 SWAP1 SSTORE SWAP1 SWAP3 POP SWAP1 POP JUMPDEST SWAP3 POP SWAP3 SWAP1 POP JUMP JUMPDEST ADDRESS PUSH0 SWAP1 DUP2 MSTORE PUSH1 0x1 PUSH1 0x20 MSTORE PUSH1 0x40 DUP2 KECCAK256 DUP2 SWAP1 PUSH1 0x4 ADD DUP4 PUSH1 0x2 DUP2 LT PUSH2 0x153 JUMPI PUSH2 0x153 PUSH2 0x2F0 JUMP JUMPDEST ADD SLOAD SWAP1 POP DUP1 PUSH0 SUB PUSH2 0x1A2 JUMPI PUSH1 0x40 MLOAD PUSH3 0x461BCD PUSH1 0xE5 SHL DUP2 MSTORE PUSH1 0x20 PUSH1 0x4 DUP3 ADD MSTORE PUSH1 0x15 PUSH1 0x24 DUP3 ADD MSTORE PUSH21 0x5F70726963652063616E6E6F74206265207A65726F PUSH1 0x58 SHL PUSH1 0x44 DUP3 ADD MSTORE PUSH1 0x64 ADD PUSH1 0x40 MLOAD DUP1 SWAP2 SUB SWAP1 REVERT JUMPDEST PUSH0 PUSH2 0x1AD DUP3 DUP7 PUSH2 0x32B JUMP JUMPDEST SWAP3 POP POP POP JUMPDEST SWAP3 SWAP2 POP POP JUMP JUMPDEST PUSH0 DUP2 PUSH0 SLOAD PUSH2 0x1B2 SWAP2 SWAP1 PUSH2 0x32B JUMP JUMPDEST PUSH0 DUP1 DUP1 PUSH2 0x1D3 DUP5 DUP7 PUSH2 0x318 JUMP JUMPDEST SWAP1 POP DUP1 PUSH0 SUB PUSH2 0x1F0 JUMPI PUSH8 0x6F05B59D3B20000 DUP1 SWAP3 POP SWAP3 POP POP PUSH2 0x128 JUMP JUMPDEST PUSH0 DUP2 PUSH2 0x1FD DUP8 PUSH1 0x64 PUSH2 0x34A JUMP JUMPDEST PUSH2 0x207 SWAP2 SWAP1 PUSH2 0x32B JUMP JUMPDEST SWAP1 POP PUSH0 DUP3 PUSH2 0x216 DUP8 PUSH1 0x64 PUSH2 0x34A JUMP JUMPDEST PUSH2 0x220 SWAP2 SWAP1 PUSH2 0x32B JUMP JUMPDEST SWAP1 POP PUSH2 0x250 PUSH1 0x64 PUSH2 0x232 DUP5 PUSH1 0x63 PUSH2 0x34A JUMP JUMPDEST PUSH2 0x23C SWAP2 SWAP1 PUSH2 0x32B JUMP JUMPDEST PUSH2 0x247 SWAP1 PUSH1 0x1 PUSH2 0x318 JUMP JUMPDEST PUSH1 0x1 PUSH1 0x64 PUSH2 0x290 JUMP JUMPDEST PUSH2 0x261 SWAP1 PUSH7 0x2386F26FC10000 PUSH2 0x34A JUMP JUMPDEST SWAP5 POP PUSH2 0x273 PUSH1 0x64 PUSH2 0x232 DUP4 PUSH1 0x63 PUSH2 0x34A JUMP JUMPDEST PUSH2 0x284 SWAP1 PUSH7 0x2386F26FC10000 PUSH2 0x34A JUMP JUMPDEST SWAP4 POP POP POP POP SWAP3 POP SWAP3 SWAP1 POP JUMP JUMPDEST PUSH0 DUP3 DUP5 LT ISZERO PUSH2 0x2A0 JUMPI POP DUP2 PUSH2 0x2B2 JUMP JUMPDEST DUP2 DUP5 GT ISZERO PUSH2 0x2AF JUMPI POP DUP1 PUSH2 0x2B2 JUMP JUMPDEST POP DUP3 JUMPDEST SWAP4 SWAP3 POP POP POP JUMP JUMPDEST PUSH0 DUP1 PUSH1 0x40 DUP4 DUP6 SUB SLT ISZERO PUSH2 0x2CA JUMPI PUSH0 DUP1 REVERT JUMPDEST POP POP DUP1 CALLDATALOAD SWAP3 PUSH1 0x20 SWAP1 SWAP2 ADD CALLDATALOAD SWAP2 POP JUMP JUMPDEST PUSH0 PUSH1 0x20 DUP3 DUP5 SUB SLT ISZERO PUSH2 0x2E9 JUMPI PUSH0 DUP1 REVERT JUMPDEST POP CALLDATALOAD SWAP2 SWAP1 POP JUMP JUMPDEST PUSH4 0x4E487B71 PUSH1 0xE0 SHL PUSH0 MSTORE PUSH1 0x32 PUSH1 0x4 MSTORE PUSH1 0x24 PUSH0 REVERT JUMPDEST PUSH4 0x4E487B71 PUSH1 0xE0 SHL PUSH0 MSTORE PUSH1 0x11 PUSH1 0x4 MSTORE PUSH1 0x24 PUSH0 REVERT JUMPDEST DUP1 DUP3 ADD DUP1 DUP3 GT ISZERO PUSH2 0x1B2 JUMPI PUSH2 0x1B2 PUSH2 0x304 JUMP JUMPDEST PUSH0 DUP3 PUSH2 0x345 JUMPI PUSH4 0x4E487B71 PUSH1 0xE0 SHL PUSH0 MSTORE PUSH1 0x12 PUSH1 0x4 MSTORE PUSH1 0x24 PUSH0 REVERT JUMPDEST POP DIV SWAP1 JUMP JUMPDEST DUP1 DUP3 MUL DUP2 ISZERO DUP3 DUP3 DIV DUP5 EQ OR PUSH2 0x1B2 JUMPI PUSH2 0x1B2 PUSH2 0x304 JUMP INVALID LOG2 PUSH5 0x6970667358 0x22 SLT KECCAK256 0xD2 GAS SIGNEXTEND PUSH6 0x2778405878B9 0xD6 0x22 SLOAD 0xF9 SELFDESTRUCT SWAP2 0xC7 COINBASE BASEFEE 0xAD CALLER PUSH1 0x5A JUMPI 0x4E 0xA5 PUSH29 0xE00CFA55D964736F6C634300081A003300000000000000000000000000 "
		},
		"gasEstimates": {
			"creation": {
				"codeDepositCost": "183800",
				"executionCost": "44524",
				"totalCost": "228324"
			},
			"external": {
				"PriceCalculation1(uint256,uint256)": "infinite",
				"calculateShares(uint256,uint256)": "2662",
				"getInitialPrices()": "4459",
				"perPeerson(uint256)": "2518",
				"totalBetAmount()": "2293"
			},
			"internal": {
				"PriceCalculation(uint256,uint256)": "infinite",
				"clamp(uint256,uint256,uint256)": "91"
			}
		},
		"methodIdentifiers": {
			"PriceCalculation1(uint256,uint256)": "6a7f4d58",
			"calculateShares(uint256,uint256)": "b3c740e8",
			"getInitialPrices()": "208c86a4",
			"perPeerson(uint256)": "dbd3a401",
			"totalBetAmount()": "613f4594"
		}
	},
	"abi": [
		{
			"inputs": [],
			"stateMutability": "nonpayable",
			"type": "constructor"
		},
		{
			"inputs": [
				{
					"internalType": "uint256",
					"name": "totalBetAmountOnNo",
					"type": "uint256"
				},
				{
					"internalType": "uint256",
					"name": "totalBetAmountOnYes",
					"type": "uint256"
				}
			],
			"name": "PriceCalculation1",
			"outputs": [
				{
					"internalType": "uint256",
					"name": "",
					"type": "uint256"
				},
				{
					"internalType": "uint256",
					"name": "",
					"type": "uint256"
				}
			],
			"stateMutability": "nonpayable",
			"type": "function"
		},
		{
			"inputs": [
				{
					"internalType": "uint256",
					"name": "_amount",
					"type": "uint256"
				},
				{
					"internalType": "uint256",
					"name": "_betOn",
					"type": "uint256"
				}
			],
			"name": "calculateShares",
			"outputs": [
				{
					"internalType": "uint256",
					"name": "",
					"type": "uint256"
				}
			],
			"stateMutability": "view",
			"type": "function"
		},
		{
			"inputs": [],
			"name": "getInitialPrices",
			"outputs": [
				{
					"internalType": "uint256",
					"name": "",
					"type": "uint256"
				},
				{
					"internalType": "uint256",
					"name": "",
					"type": "uint256"
				}
			],
			"stateMutability": "view",
			"type": "function"
		},
		{
			"inputs": [
				{
					"internalType": "uint256",
					"name": "totalWinnerShare",
					"type": "uint256"
				}
			],
			"name": "perPeerson",
			"outputs": [
				{
					"internalType": "uint256",
					"name": "_perShare",
					"type": "uint256"
				}
			],
			"stateMutability": "view",
			"type": "function"
		},
		{
			"inputs": [],
			"name": "totalBetAmount",
			"outputs": [
				{
					"internalType": "uint256",
					"name": "",
					"type": "uint256"
				}
			],
			"stateMutability": "view",
			"type": "function"
		}
	]
}