{
	"data": {
		"bytecode": {
			"linkReferences": {},
			"object": "6080604052348015600e575f80fd5b50305f9081526001602052604090206706f05b59d3b2000060048201819055600590910155610396806100405f395ff3fe608060405234801561000f575f80fd5b5060043610610055575f3560e01c8063208c86a41461005957806322be77f01461008d578063613f4594146100a05780636a7f4d58146100b6578063b3c740e8146100c9575b5f80fd5b305f90815260016020526040902060048101546005909101545b604080519283526020830191909152015b60405180910390f35b61007361009b3660046102cf565b6100dc565b6100a85f5481565b604051908152602001610084565b6100736100c43660046102cf565b610100565b6100a86100d73660046102cf565b610153565b5f80835f546100eb9190610317565b91506100f78284610336565b90509250929050565b5f8061010c838561034d565b5f8082825461011b919061034d565b9091555061012b905084846101dc565b305f9081526001602052604090206005810182905560040182905590925090505b9250929050565b305f90815260016020526040812081906004018360028110610177576101776102ef565b01549050805f036101c65760405162461bcd60e51b81526020600482015260156024820152745f70726963652063616e6e6f74206265207a65726f60581b604482015260640160405180910390fd5b5f6101d18286610317565b925050505b92915050565b5f80806101e9848661034d565b9050805f03610206576706f05b59d3b2000080925092505061014c565b5f81610213876064610336565b61021d9190610317565b90505f8261022c876064610336565b6102369190610317565b90506102666064610248846063610336565b6102529190610317565b61025d90600161034d565b600160646102a6565b61027790662386f26fc10000610336565b94506102896064610248836063610336565b61029a90662386f26fc10000610336565b93505050509250929050565b5f828410156102b65750816102c8565b818411156102c55750806102c8565b50825b9392505050565b5f80604083850312156102e0575f80fd5b50508035926020909101359150565b634e487b7160e01b5f52603260045260245ffd5b634e487b7160e01b5f52601160045260245ffd5b5f8261033157634e487b7160e01b5f52601260045260245ffd5b500490565b80820281158282048414176101d6576101d6610303565b808201808211156101d6576101d661030356fea264697066735822122078d52d38fb9ac26ac847102ed30d75d8c501614e164461f13369c225ab87348064736f6c634300081a0033",
			"opcodes": "PUSH1 0x80 PUSH1 0x40 MSTORE CALLVALUE DUP1 ISZERO PUSH1 0xE JUMPI PUSH0 DUP1 REVERT JUMPDEST POP ADDRESS PUSH0 SWAP1 DUP2 MSTORE PUSH1 0x1 PUSH1 0x20 MSTORE PUSH1 0x40 SWAP1 KECCAK256 PUSH8 0x6F05B59D3B20000 PUSH1 0x4 DUP3 ADD DUP2 SWAP1 SSTORE PUSH1 0x5 SWAP1 SWAP2 ADD SSTORE PUSH2 0x396 DUP1 PUSH2 0x40 PUSH0 CODECOPY PUSH0 RETURN INVALID PUSH1 0x80 PUSH1 0x40 MSTORE CALLVALUE DUP1 ISZERO PUSH2 0xF JUMPI PUSH0 DUP1 REVERT JUMPDEST POP PUSH1 0x4 CALLDATASIZE LT PUSH2 0x55 JUMPI PUSH0 CALLDATALOAD PUSH1 0xE0 SHR DUP1 PUSH4 0x208C86A4 EQ PUSH2 0x59 JUMPI DUP1 PUSH4 0x22BE77F0 EQ PUSH2 0x8D JUMPI DUP1 PUSH4 0x613F4594 EQ PUSH2 0xA0 JUMPI DUP1 PUSH4 0x6A7F4D58 EQ PUSH2 0xB6 JUMPI DUP1 PUSH4 0xB3C740E8 EQ PUSH2 0xC9 JUMPI JUMPDEST PUSH0 DUP1 REVERT JUMPDEST ADDRESS PUSH0 SWAP1 DUP2 MSTORE PUSH1 0x1 PUSH1 0x20 MSTORE PUSH1 0x40 SWAP1 KECCAK256 PUSH1 0x4 DUP2 ADD SLOAD PUSH1 0x5 SWAP1 SWAP2 ADD SLOAD JUMPDEST PUSH1 0x40 DUP1 MLOAD SWAP3 DUP4 MSTORE PUSH1 0x20 DUP4 ADD SWAP2 SWAP1 SWAP2 MSTORE ADD JUMPDEST PUSH1 0x40 MLOAD DUP1 SWAP2 SUB SWAP1 RETURN JUMPDEST PUSH2 0x73 PUSH2 0x9B CALLDATASIZE PUSH1 0x4 PUSH2 0x2CF JUMP JUMPDEST PUSH2 0xDC JUMP JUMPDEST PUSH2 0xA8 PUSH0 SLOAD DUP2 JUMP JUMPDEST PUSH1 0x40 MLOAD SWAP1 DUP2 MSTORE PUSH1 0x20 ADD PUSH2 0x84 JUMP JUMPDEST PUSH2 0x73 PUSH2 0xC4 CALLDATASIZE PUSH1 0x4 PUSH2 0x2CF JUMP JUMPDEST PUSH2 0x100 JUMP JUMPDEST PUSH2 0xA8 PUSH2 0xD7 CALLDATASIZE PUSH1 0x4 PUSH2 0x2CF JUMP JUMPDEST PUSH2 0x153 JUMP JUMPDEST PUSH0 DUP1 DUP4 PUSH0 SLOAD PUSH2 0xEB SWAP2 SWAP1 PUSH2 0x317 JUMP JUMPDEST SWAP2 POP PUSH2 0xF7 DUP3 DUP5 PUSH2 0x336 JUMP JUMPDEST SWAP1 POP SWAP3 POP SWAP3 SWAP1 POP JUMP JUMPDEST PUSH0 DUP1 PUSH2 0x10C DUP4 DUP6 PUSH2 0x34D JUMP JUMPDEST PUSH0 DUP1 DUP3 DUP3 SLOAD PUSH2 0x11B SWAP2 SWAP1 PUSH2 0x34D JUMP JUMPDEST SWAP1 SWAP2 SSTORE POP PUSH2 0x12B SWAP1 POP DUP5 DUP5 PUSH2 0x1DC JUMP JUMPDEST ADDRESS PUSH0 SWAP1 DUP2 MSTORE PUSH1 0x1 PUSH1 0x20 MSTORE PUSH1 0x40 SWAP1 KECCAK256 PUSH1 0x5 DUP2 ADD DUP3 SWAP1 SSTORE PUSH1 0x4 ADD DUP3 SWAP1 SSTORE SWAP1 SWAP3 POP SWAP1 POP JUMPDEST SWAP3 POP SWAP3 SWAP1 POP JUMP JUMPDEST ADDRESS PUSH0 SWAP1 DUP2 MSTORE PUSH1 0x1 PUSH1 0x20 MSTORE PUSH1 0x40 DUP2 KECCAK256 DUP2 SWAP1 PUSH1 0x4 ADD DUP4 PUSH1 0x2 DUP2 LT PUSH2 0x177 JUMPI PUSH2 0x177 PUSH2 0x2EF JUMP JUMPDEST ADD SLOAD SWAP1 POP DUP1 PUSH0 SUB PUSH2 0x1C6 JUMPI PUSH1 0x40 MLOAD PUSH3 0x461BCD PUSH1 0xE5 SHL DUP2 MSTORE PUSH1 0x20 PUSH1 0x4 DUP3 ADD MSTORE PUSH1 0x15 PUSH1 0x24 DUP3 ADD MSTORE PUSH21 0x5F70726963652063616E6E6F74206265207A65726F PUSH1 0x58 SHL PUSH1 0x44 DUP3 ADD MSTORE PUSH1 0x64 ADD PUSH1 0x40 MLOAD DUP1 SWAP2 SUB SWAP1 REVERT JUMPDEST PUSH0 PUSH2 0x1D1 DUP3 DUP7 PUSH2 0x317 JUMP JUMPDEST SWAP3 POP POP POP JUMPDEST SWAP3 SWAP2 POP POP JUMP JUMPDEST PUSH0 DUP1 DUP1 PUSH2 0x1E9 DUP5 DUP7 PUSH2 0x34D JUMP JUMPDEST SWAP1 POP DUP1 PUSH0 SUB PUSH2 0x206 JUMPI PUSH8 0x6F05B59D3B20000 DUP1 SWAP3 POP SWAP3 POP POP PUSH2 0x14C JUMP JUMPDEST PUSH0 DUP2 PUSH2 0x213 DUP8 PUSH1 0x64 PUSH2 0x336 JUMP JUMPDEST PUSH2 0x21D SWAP2 SWAP1 PUSH2 0x317 JUMP JUMPDEST SWAP1 POP PUSH0 DUP3 PUSH2 0x22C DUP8 PUSH1 0x64 PUSH2 0x336 JUMP JUMPDEST PUSH2 0x236 SWAP2 SWAP1 PUSH2 0x317 JUMP JUMPDEST SWAP1 POP PUSH2 0x266 PUSH1 0x64 PUSH2 0x248 DUP5 PUSH1 0x63 PUSH2 0x336 JUMP JUMPDEST PUSH2 0x252 SWAP2 SWAP1 PUSH2 0x317 JUMP JUMPDEST PUSH2 0x25D SWAP1 PUSH1 0x1 PUSH2 0x34D JUMP JUMPDEST PUSH1 0x1 PUSH1 0x64 PUSH2 0x2A6 JUMP JUMPDEST PUSH2 0x277 SWAP1 PUSH7 0x2386F26FC10000 PUSH2 0x336 JUMP JUMPDEST SWAP5 POP PUSH2 0x289 PUSH1 0x64 PUSH2 0x248 DUP4 PUSH1 0x63 PUSH2 0x336 JUMP JUMPDEST PUSH2 0x29A SWAP1 PUSH7 0x2386F26FC10000 PUSH2 0x336 JUMP JUMPDEST SWAP4 POP POP POP POP SWAP3 POP SWAP3 SWAP1 POP JUMP JUMPDEST PUSH0 DUP3 DUP5 LT ISZERO PUSH2 0x2B6 JUMPI POP DUP2 PUSH2 0x2C8 JUMP JUMPDEST DUP2 DUP5 GT ISZERO PUSH2 0x2C5 JUMPI POP DUP1 PUSH2 0x2C8 JUMP JUMPDEST POP DUP3 JUMPDEST SWAP4 SWAP3 POP POP POP JUMP JUMPDEST PUSH0 DUP1 PUSH1 0x40 DUP4 DUP6 SUB SLT ISZERO PUSH2 0x2E0 JUMPI PUSH0 DUP1 REVERT JUMPDEST POP POP DUP1 CALLDATALOAD SWAP3 PUSH1 0x20 SWAP1 SWAP2 ADD CALLDATALOAD SWAP2 POP JUMP JUMPDEST PUSH4 0x4E487B71 PUSH1 0xE0 SHL PUSH0 MSTORE PUSH1 0x32 PUSH1 0x4 MSTORE PUSH1 0x24 PUSH0 REVERT JUMPDEST PUSH4 0x4E487B71 PUSH1 0xE0 SHL PUSH0 MSTORE PUSH1 0x11 PUSH1 0x4 MSTORE PUSH1 0x24 PUSH0 REVERT JUMPDEST PUSH0 DUP3 PUSH2 0x331 JUMPI PUSH4 0x4E487B71 PUSH1 0xE0 SHL PUSH0 MSTORE PUSH1 0x12 PUSH1 0x4 MSTORE PUSH1 0x24 PUSH0 REVERT JUMPDEST POP DIV SWAP1 JUMP JUMPDEST DUP1 DUP3 MUL DUP2 ISZERO DUP3 DUP3 DIV DUP5 EQ OR PUSH2 0x1D6 JUMPI PUSH2 0x1D6 PUSH2 0x303 JUMP JUMPDEST DUP1 DUP3 ADD DUP1 DUP3 GT ISZERO PUSH2 0x1D6 JUMPI PUSH2 0x1D6 PUSH2 0x303 JUMP INVALID LOG2 PUSH5 0x6970667358 0x22 SLT KECCAK256 PUSH25 0xD52D38FB9AC26AC847102ED30D75D8C501614E164461F13369 0xC2 0x25 0xAB DUP8 CALLVALUE DUP1 PUSH5 0x736F6C6343 STOP ADDMOD BYTE STOP CALLER "
		},
		"gasEstimates": {
			"creation": {
				"codeDepositCost": "183600",
				"executionCost": "44524",
				"totalCost": "228124"
			},
			"external": {
				"PriceCalculation1(uint256,uint256)": "infinite",
				"calculateShares(uint256,uint256)": "2684",
				"getInitialPrices()": "4459",
				"perPeerson(uint256,uint256)": "2595",
				"totalBetAmount()": "2315"
			},
			"internal": {
				"PriceCalculation(uint256,uint256)": "infinite",
				"clamp(uint256,uint256,uint256)": "91"
			}
		},
		"methodIdentifiers": {
			"PriceCalculation1(uint256,uint256)": "6a7f4d58",
			"calculateShares(uint256,uint256)": "b3c740e8",
			"getInitialPrices()": "208c86a4",
			"perPeerson(uint256,uint256)": "22be77f0",
			"totalBetAmount()": "613f4594"
		}
	},
	"abi": [
		{
			"inputs": [],
			"stateMutability": "nonpayable",
			"type": "constructor"
		},
		{
			"inputs": [
				{
					"internalType": "uint256",
					"name": "totalBetAmountOnNo",
					"type": "uint256"
				},
				{
					"internalType": "uint256",
					"name": "totalBetAmountOnYes",
					"type": "uint256"
				}
			],
			"name": "PriceCalculation1",
			"outputs": [
				{
					"internalType": "uint256",
					"name": "",
					"type": "uint256"
				},
				{
					"internalType": "uint256",
					"name": "",
					"type": "uint256"
				}
			],
			"stateMutability": "nonpayable",
			"type": "function"
		},
		{
			"inputs": [
				{
					"internalType": "uint256",
					"name": "_amount",
					"type": "uint256"
				},
				{
					"internalType": "uint256",
					"name": "_betOn",
					"type": "uint256"
				}
			],
			"name": "calculateShares",
			"outputs": [
				{
					"internalType": "uint256",
					"name": "",
					"type": "uint256"
				}
			],
			"stateMutability": "view",
			"type": "function"
		},
		{
			"inputs": [],
			"name": "getInitialPrices",
			"outputs": [
				{
					"internalType": "uint256",
					"name": "",
					"type": "uint256"
				},
				{
					"internalType": "uint256",
					"name": "",
					"type": "uint256"
				}
			],
			"stateMutability": "view",
			"type": "function"
		},
		{
			"inputs": [
				{
					"internalType": "uint256",
					"name": "totalWinnerShare",
					"type": "uint256"
				},
				{
					"internalType": "uint256",
					"name": "userShareAmount",
					"type": "uint256"
				}
			],
			"name": "perPeerson",
			"outputs": [
				{
					"internalType": "uint256",
					"name": "_perShare",
					"type": "uint256"
				},
				{
					"internalType": "uint256",
					"name": "userTotalAmount",
					"type": "uint256"
				}
			],
			"stateMutability": "view",
			"type": "function"
		},
		{
			"inputs": [],
			"name": "totalBetAmount",
			"outputs": [
				{
					"internalType": "uint256",
					"name": "",
					"type": "uint256"
				}
			],
			"stateMutability": "view",
			"type": "function"
		}
	]
}