{
	"data": {
		"bytecode": {
			"linkReferences": {},
			"object": "608060405234801561000f575f80fd5b506040516134f13803806134f183398181016040528101906100319190610351565b825f73ffffffffffffffffffffffffffffffffffffffff168173ffffffffffffffffffffffffffffffffffffffff16036100a2575f6040517f1e4fbdf700000000000000000000000000000000000000000000000000000000815260040161009991906103b0565b60405180910390fd5b6100b1816101ff60201b60201c565b508060055f3073ffffffffffffffffffffffffffffffffffffffff1673ffffffffffffffffffffffffffffffffffffffff1681526020019081526020015f205f01819055506706f05b59d3b2000060055f3073ffffffffffffffffffffffffffffffffffffffff1673ffffffffffffffffffffffffffffffffffffffff1681526020019081526020015f206003015f60028110610151576101506103c9565b5b01819055506706f05b59d3b2000060055f3073ffffffffffffffffffffffffffffffffffffffff1673ffffffffffffffffffffffffffffffffffffffff1681526020019081526020015f206003016001600281106101b2576101b16103c9565b5b01819055508160015f6101000a81548173ffffffffffffffffffffffffffffffffffffffff021916908373ffffffffffffffffffffffffffffffffffffffff1602179055505050506103f6565b5f805f9054906101000a900473ffffffffffffffffffffffffffffffffffffffff169050815f806101000a81548173ffffffffffffffffffffffffffffffffffffffff021916908373ffffffffffffffffffffffffffffffffffffffff1602179055508173ffffffffffffffffffffffffffffffffffffffff168173ffffffffffffffffffffffffffffffffffffffff167f8be0079c531659141344cd1fd0a4f28419497f9722a3daafe3b4186f6b6457e060405160405180910390a35050565b5f80fd5b5f73ffffffffffffffffffffffffffffffffffffffff82169050919050565b5f6102ed826102c4565b9050919050565b6102fd816102e3565b8114610307575f80fd5b50565b5f81519050610318816102f4565b92915050565b5f819050919050565b6103308161031e565b811461033a575f80fd5b50565b5f8151905061034b81610327565b92915050565b5f805f60608486031215610368576103676102c0565b5b5f6103758682870161030a565b93505060206103868682870161030a565b92505060406103978682870161033d565b9150509250925092565b6103aa816102e3565b82525050565b5f6020820190506103c35f8301846103a1565b92915050565b7f4e487b71000000000000000000000000000000000000000000000000000000005f52603260045260245ffd5b6130ee806104035f395ff3fe608060405234801561000f575f80fd5b5060043610610109575f3560e01c80636ffcc719116100a0578063b3c740e81161006f578063b3c740e8146102bf578063bff1f9e1146102ef578063c43513861461030d578063f2fde38b14610341578063fbea0b061461035d57610109565b80636ffcc7191461024b578063715018a61461026757806384b5aca6146102715780638da5cb5b146102a157610109565b806321d0d9af116100dc57806321d0d9af146101ad578063456e62ba146101de57806361d464ef146101fa5780636399d03d1461022f57610109565b806308ef962e1461010d57806311eac8551461013d5780631959a0021461015b578063208c86a41461018e575b5f80fd5b61012760048036038101906101229190612366565b610379565b60405161013491906123d0565b60405180910390f35b6101456103a9565b6040516101529190612444565b60405180910390f35b61017560048036038101906101709190612487565b6103ce565b60405161018594939291906124c1565b60405180910390f35b6101966103fa565b6040516101a4929190612504565b60405180910390f35b6101c760048036038101906101c2919061252b565b6104ad565b6040516101d5929190612504565b60405180910390f35b6101f860048036038101906101f39190612569565b6105eb565b005b610214600480360381019061020f91906125b9565b610bea565b60405161022696959493929190612611565b60405180910390f35b61024960048036038101906102449190612366565b610c64565b005b6102656004803603810190610260919061252b565b610dd9565b005b61026f6115d2565b005b61028b6004803603810190610286919061252b565b6115e5565b6040516102989190612670565b60405180910390f35b6102a96116a0565b6040516102b691906123d0565b60405180910390f35b6102d960048036038101906102d4919061252b565b6116c7565b6040516102e69190612670565b60405180910390f35b6102f7611787565b6040516103049190612670565b60405180910390f35b61032760048036038101906103229190612487565b61178d565b604051610338959493929190612689565b60405180910390f35b61035b60048036038101906103569190612487565b6117bf565b005b610377600480360381019061037291906126da565b611843565b005b6003602052805f5260405f205f915054906101000a900473ffffffffffffffffffffffffffffffffffffffff1681565b60015f9054906101000a900473ffffffffffffffffffffffffffffffffffffffff1681565b6004602052805f5260405f205f91509050805f0154908060010154908060020154908060030154905084565b5f8060055f3073ffffffffffffffffffffffffffffffffffffffff1673ffffffffffffffffffffffffffffffffffffffff1681526020019081526020015f206003015f6002811061044e5761044d612718565b5b015460055f3073ffffffffffffffffffffffffffffffffffffffff1673ffffffffffffffffffffffffffffffffffffffff1681526020019081526020015f206003016001600281106104a3576104a2612718565b5b0154915091509091565b5f805f60055f3073ffffffffffffffffffffffffffffffffffffffff1673ffffffffffffffffffffffffffffffffffffffff1681526020019081526020015f206003015f6002811061050257610501612718565b5b015490505f60055f3073ffffffffffffffffffffffffffffffffffffffff1673ffffffffffffffffffffffffffffffffffffffff1681526020019081526020015f2060030160016002811061055a57610559612718565b5b015490505f858761056b9190612772565b90505f87146105a4578060648861058291906127a5565b61058c9190612813565b9250662386f26fc10000836105a191906127a5565b92505b5f86146105db57806064876105b991906127a5565b6105c39190612813565b9150662386f26fc10000826105d891906127a5565b91505b8282945094505050509250929050565b60045f3373ffffffffffffffffffffffffffffffffffffffff1673ffffffffffffffffffffffffffffffffffffffff1681526020019081526020015f206004015f8281526020019081526020015f205f9054906101000a900460ff16610686576040517f08c379a000000000000000000000000000000000000000000000000000000000815260040161067d9061289d565b60405180910390fd5b5f82116106c8576040517f08c379a00000000000000000000000000000000000000000000000000000000081526004016106bf90612905565b60405180910390fd5b5f831161070a576040517f08c379a00000000000000000000000000000000000000000000000000000000081526004016107019061296d565b60405180910390fd5b5f8114806107185750600181145b610757576040517f08c379a000000000000000000000000000000000000000000000000000000000815260040161074e906129d5565b60405180910390fd5b60055f3073ffffffffffffffffffffffffffffffffffffffff1673ffffffffffffffffffffffffffffffffffffffff1681526020019081526020015f205f015442106107d8576040517f08c379a00000000000000000000000000000000000000000000000000000000081526004016107cf90612a3d565b60405180910390fd5b60045f3373ffffffffffffffffffffffffffffffffffffffff1673ffffffffffffffffffffffffffffffffffffffff1681526020019081526020015f205f015f81548092919061082790612a5b565b9190505550600160065f3373ffffffffffffffffffffffffffffffffffffffff1673ffffffffffffffffffffffffffffffffffffffff1681526020019081526020015f205f60045f3373ffffffffffffffffffffffffffffffffffffffff1673ffffffffffffffffffffffffffffffffffffffff1681526020019081526020015f205f015481526020019081526020015f205f015f6101000a81548160ff0219169083151502179055508160065f3373ffffffffffffffffffffffffffffffffffffffff1673ffffffffffffffffffffffffffffffffffffffff1681526020019081526020015f205f60045f3373ffffffffffffffffffffffffffffffffffffffff1673ffffffffffffffffffffffffffffffffffffffff1681526020019081526020015f205f015481526020019081526020015f20600101819055508260065f3373ffffffffffffffffffffffffffffffffffffffff1673ffffffffffffffffffffffffffffffffffffffff1681526020019081526020015f205f60045f3373ffffffffffffffffffffffffffffffffffffffff1673ffffffffffffffffffffffffffffffffffffffff1681526020019081526020015f205f015481526020019081526020015f20600201819055503360065f3373ffffffffffffffffffffffffffffffffffffffff1673ffffffffffffffffffffffffffffffffffffffff1681526020019081526020015f205f60045f3373ffffffffffffffffffffffffffffffffffffffff1673ffffffffffffffffffffffffffffffffffffffff1681526020019081526020015f205f015481526020019081526020015f205f0160026101000a81548173ffffffffffffffffffffffffffffffffffffffff021916908373ffffffffffffffffffffffffffffffffffffffff1602179055508060065f3373ffffffffffffffffffffffffffffffffffffffff1673ffffffffffffffffffffffffffffffffffffffff1681526020019081526020015f205f60045f3373ffffffffffffffffffffffffffffffffffffffff1673ffffffffffffffffffffffffffffffffffffffff1681526020019081526020015f205f015481526020019081526020015f20600301819055503373ffffffffffffffffffffffffffffffffffffffff167f578d9bb67ff50e6081576125ad4c2410d6e82de6dbc1a5dcac37f8e5aa9ca4f460045f3373ffffffffffffffffffffffffffffffffffffffff1673ffffffffffffffffffffffffffffffffffffffff1681526020019081526020015f205f015484604051610bdd929190612504565b60405180910390a2505050565b6006602052815f5260405f20602052805f5260405f205f9150915050805f015f9054906101000a900460ff1690805f0160019054906101000a900460ff1690805f0160029054906101000a900473ffffffffffffffffffffffffffffffffffffffff16908060010154908060020154908060030154905086565b5f811480610c725750600181145b610cb1576040517f08c379a0000000000000000000000000000000000000000000000000000000008152600401610ca890612aec565b60405180910390fd5b60055f3073ffffffffffffffffffffffffffffffffffffffff1673ffffffffffffffffffffffffffffffffffffffff1681526020019081526020015f205f01544211610d32576040517f08c379a0000000000000000000000000000000000000000000000000000000008152600401610d2990612b54565b60405180910390fd5b5f5b600254811015610dd55760045f60035f8481526020019081526020015f205f9054906101000a900473ffffffffffffffffffffffffffffffffffffffff1673ffffffffffffffffffffffffffffffffffffffff1673ffffffffffffffffffffffffffffffffffffffff1681526020019081526020015f206004015f8381526020019081526020015f205f9054906101000a9050508080600101915050610d34565b5050565b5f811480610de75750600181145b610e26576040517f08c379a0000000000000000000000000000000000000000000000000000000008152600401610e1d90612bbc565b60405180910390fd5b5f8211610e68576040517f08c379a0000000000000000000000000000000000000000000000000000000008152600401610e5f90612c4a565b60405180910390fd5b60055f3073ffffffffffffffffffffffffffffffffffffffff1673ffffffffffffffffffffffffffffffffffffffff1681526020019081526020015f205f01544210610ee9576040517f08c379a0000000000000000000000000000000000000000000000000000000008152600401610ee090612cb2565b60405180910390fd5b60045f3373ffffffffffffffffffffffffffffffffffffffff1673ffffffffffffffffffffffffffffffffffffffff1681526020019081526020015f206004015f8281526020019081526020015f205f9054906101000a900460ff16158015610fab575060045f3373ffffffffffffffffffffffffffffffffffffffff1673ffffffffffffffffffffffffffffffffffffffff1681526020019081526020015f206004015f8281526020019081526020015f205f9054906101000a900460ff16155b15611019573360035f60025481526020019081526020015f205f6101000a81548173ffffffffffffffffffffffffffffffffffffffff021916908373ffffffffffffffffffffffffffffffffffffffff16021790555060025f81548092919061101390612a5b565b91905055505b5f81036110d05760055f3073ffffffffffffffffffffffffffffffffffffffff1673ffffffffffffffffffffffffffffffffffffffff1681526020019081526020015f206006015f81548092919061107090612a5b565b91905055508160045f3373ffffffffffffffffffffffffffffffffffffffff1673ffffffffffffffffffffffffffffffffffffffff1681526020019081526020015f206001015f8282546110c49190612772565b9250508190555061117c565b60055f3073ffffffffffffffffffffffffffffffffffffffff1673ffffffffffffffffffffffffffffffffffffffff1681526020019081526020015f206005015f81548092919061112090612a5b565b91905055508160045f3373ffffffffffffffffffffffffffffffffffffffff1673ffffffffffffffffffffffffffffffffffffffff1681526020019081526020015f206003015f8282546111749190612772565b925050819055505b8160055f3073ffffffffffffffffffffffffffffffffffffffff1673ffffffffffffffffffffffffffffffffffffffff1681526020019081526020015f206002015f8282546111cb9190612772565b92505081905550600160045f3373ffffffffffffffffffffffffffffffffffffffff1673ffffffffffffffffffffffffffffffffffffffff1681526020019081526020015f206004015f8381526020019081526020015f205f6101000a81548160ff0219169083151502179055506112c360055f3073ffffffffffffffffffffffffffffffffffffffff1673ffffffffffffffffffffffffffffffffffffffff1681526020019081526020015f206006015460055f3073ffffffffffffffffffffffffffffffffffffffff1673ffffffffffffffffffffffffffffffffffffffff1681526020019081526020015f20600501546104ad565b60055f3073ffffffffffffffffffffffffffffffffffffffff1673ffffffffffffffffffffffffffffffffffffffff1681526020019081526020015f206003015f6002811061131557611314612718565b5b015f60055f3073ffffffffffffffffffffffffffffffffffffffff1673ffffffffffffffffffffffffffffffffffffffff1681526020019081526020015f2060030160016002811061136a57611369612718565b5b015f84919050558391905055505061140a6040518060400160405280600981526020017f4e6f50726963653a20000000000000000000000000000000000000000000000081525060055f3073ffffffffffffffffffffffffffffffffffffffff1673ffffffffffffffffffffffffffffffffffffffff1681526020019081526020015f206003015f6002811061140357611402612718565b5b01546120f6565b61149d6040518060400160405280600a81526020017f59657350726963653a200000000000000000000000000000000000000000000081525060055f3073ffffffffffffffffffffffffffffffffffffffff1673ffffffffffffffffffffffffffffffffffffffff1681526020019081526020015f2060030160016002811061149657611495612718565b5b01546120f6565b5f60015f9054906101000a900473ffffffffffffffffffffffffffffffffffffffff1673ffffffffffffffffffffffffffffffffffffffff166323b872dd3330866040518463ffffffff1660e01b81526004016114fc93929190612cd0565b6020604051808303815f875af1158015611518573d5f803e3d5ffd5b505050506040513d601f19601f8201168201806040525081019061153c9190612d2f565b90508061157e576040517f08c379a000000000000000000000000000000000000000000000000000000000815260040161157590612da4565b60405180910390fd5b823373ffffffffffffffffffffffffffffffffffffffff167ff41b7910e085d0992d604fd470931728fd77cc8eb504d99e50e51a0a30fcfd1a846040516115c59190612670565b60405180910390a3505050565b6115da612192565b6115e35f612219565b565b5f808311611628576040517f08c379a000000000000000000000000000000000000000000000000000000000815260040161161f90612e0c565b60405180910390fd5b5f606460055f3073ffffffffffffffffffffffffffffffffffffffff1673ffffffffffffffffffffffffffffffffffffffff1681526020019081526020015f20600301846002811061167d5761167c612718565b5b01548561168a91906127a5565b6116949190612813565b90508091505092915050565b5f805f9054906101000a900473ffffffffffffffffffffffffffffffffffffffff16905090565b5f8060055f3073ffffffffffffffffffffffffffffffffffffffff1673ffffffffffffffffffffffffffffffffffffffff1681526020019081526020015f20600301836002811061171b5761171a612718565b5b015490505f8103611761576040517f08c379a000000000000000000000000000000000000000000000000000000000815260040161175890612e74565b60405180910390fd5b5f8160648661177091906127a5565b61177a9190612813565b9050809250505092915050565b60025481565b6005602052805f5260405f205f91509050805f0154908060010154908060020154908060050154908060060154905085565b6117c7612192565b5f73ffffffffffffffffffffffffffffffffffffffff168173ffffffffffffffffffffffffffffffffffffffff1603611837575f6040517f1e4fbdf700000000000000000000000000000000000000000000000000000000815260040161182e91906123d0565b60405180910390fd5b61184081612219565b50565b60065f8273ffffffffffffffffffffffffffffffffffffffff1673ffffffffffffffffffffffffffffffffffffffff1681526020019081526020015f205f8381526020019081526020015f205f015f9054906101000a900460ff166118dd576040517f08c379a00000000000000000000000000000000000000000000000000000000081526004016118d490612edc565b60405180910390fd5b60065f8273ffffffffffffffffffffffffffffffffffffffff1673ffffffffffffffffffffffffffffffffffffffff1681526020019081526020015f205f8381526020019081526020015f205f0160019054906101000a900460ff1615611979576040517f08c379a000000000000000000000000000000000000000000000000000000000815260040161197090612f44565b60405180910390fd5b8073ffffffffffffffffffffffffffffffffffffffff1660065f8373ffffffffffffffffffffffffffffffffffffffff1673ffffffffffffffffffffffffffffffffffffffff1681526020019081526020015f205f8481526020019081526020015f205f0160029054906101000a900473ffffffffffffffffffffffffffffffffffffffff1673ffffffffffffffffffffffffffffffffffffffff1614611a55576040517f08c379a0000000000000000000000000000000000000000000000000000000008152600401611a4c90612fac565b60405180910390fd5b60055f3073ffffffffffffffffffffffffffffffffffffffff1673ffffffffffffffffffffffffffffffffffffffff1681526020019081526020015f205f01544210611ad6576040517f08c379a0000000000000000000000000000000000000000000000000000000008152600401611acd90612a3d565b60405180910390fd5b600160065f3373ffffffffffffffffffffffffffffffffffffffff1673ffffffffffffffffffffffffffffffffffffffff1681526020019081526020015f205f8481526020019081526020015f205f0160016101000a81548160ff0219169083151502179055503360065f3373ffffffffffffffffffffffffffffffffffffffff1673ffffffffffffffffffffffffffffffffffffffff1681526020019081526020015f205f8481526020019081526020015f205f0160026101000a81548173ffffffffffffffffffffffffffffffffffffffff021916908373ffffffffffffffffffffffffffffffffffffffff1602179055505f60065f3373ffffffffffffffffffffffffffffffffffffffff1673ffffffffffffffffffffffffffffffffffffffff1681526020019081526020015f205f8481526020019081526020015f206003015403611d6f5760065f3373ffffffffffffffffffffffffffffffffffffffff1673ffffffffffffffffffffffffffffffffffffffff1681526020019081526020015f205f8381526020019081526020015f206002015460045f3373ffffffffffffffffffffffffffffffffffffffff1673ffffffffffffffffffffffffffffffffffffffff1681526020019081526020015f206001015f828254611cbe9190612772565b9250508190555060065f3373ffffffffffffffffffffffffffffffffffffffff1673ffffffffffffffffffffffffffffffffffffffff1681526020019081526020015f205f8381526020019081526020015f206002015460045f8373ffffffffffffffffffffffffffffffffffffffff1673ffffffffffffffffffffffffffffffffffffffff1681526020019081526020015f206001015f828254611d639190612fca565b92505081905550611eba565b60065f3373ffffffffffffffffffffffffffffffffffffffff1673ffffffffffffffffffffffffffffffffffffffff1681526020019081526020015f205f8381526020019081526020015f206002015460045f3373ffffffffffffffffffffffffffffffffffffffff1673ffffffffffffffffffffffffffffffffffffffff1681526020019081526020015f206003015f828254611e0d9190612772565b9250508190555060065f3373ffffffffffffffffffffffffffffffffffffffff1673ffffffffffffffffffffffffffffffffffffffff1681526020019081526020015f205f8381526020019081526020015f206002015460045f8373ffffffffffffffffffffffffffffffffffffffff1673ffffffffffffffffffffffffffffffffffffffff1681526020019081526020015f206003015f828254611eb29190612fca565b925050819055505b600160045f3373ffffffffffffffffffffffffffffffffffffffff1673ffffffffffffffffffffffffffffffffffffffff1681526020019081526020015f206004015f60065f3373ffffffffffffffffffffffffffffffffffffffff1673ffffffffffffffffffffffffffffffffffffffff1681526020019081526020015f205f8681526020019081526020015f206003015481526020019081526020015f205f6101000a81548160ff0219169083151502179055503360035f60025481526020019081526020015f205f6101000a81548173ffffffffffffffffffffffffffffffffffffffff021916908373ffffffffffffffffffffffffffffffffffffffff1602179055505f60015f9054906101000a900473ffffffffffffffffffffffffffffffffffffffff1673ffffffffffffffffffffffffffffffffffffffff166323b872dd338460065f3373ffffffffffffffffffffffffffffffffffffffff1673ffffffffffffffffffffffffffffffffffffffff1681526020019081526020015f205f8881526020019081526020015f20600101546040518463ffffffff1660e01b815260040161206f93929190612cd0565b6020604051808303815f875af115801561208b573d5f803e3d5ffd5b505050506040513d601f19601f820116820180604052508101906120af9190612d2f565b9050806120f1576040517f08c379a00000000000000000000000000000000000000000000000000000000081526004016120e890612da4565b60405180910390fd5b505050565b61218e828260405160240161210c92919061305d565b6040516020818303038152906040527fb60e72cc000000000000000000000000000000000000000000000000000000007bffffffffffffffffffffffffffffffffffffffffffffffffffffffff19166020820180517bffffffffffffffffffffffffffffffffffffffffffffffffffffffff83818316178352505050506122da565b5050565b61219a6122f4565b73ffffffffffffffffffffffffffffffffffffffff166121b86116a0565b73ffffffffffffffffffffffffffffffffffffffff1614612217576121db6122f4565b6040517f118cdaa700000000000000000000000000000000000000000000000000000000815260040161220e91906123d0565b60405180910390fd5b565b5f805f9054906101000a900473ffffffffffffffffffffffffffffffffffffffff169050815f806101000a81548173ffffffffffffffffffffffffffffffffffffffff021916908373ffffffffffffffffffffffffffffffffffffffff1602179055508173ffffffffffffffffffffffffffffffffffffffff168173ffffffffffffffffffffffffffffffffffffffff167f8be0079c531659141344cd1fd0a4f28419497f9722a3daafe3b4186f6b6457e060405160405180910390a35050565b6122f1816122e96122fb61231a565b63ffffffff16565b50565b5f33905090565b5f6a636f6e736f6c652e6c6f6790505f80835160208501845afa505050565b612325819050919050565b61232d61308b565b565b5f80fd5b5f819050919050565b61234581612333565b811461234f575f80fd5b50565b5f813590506123608161233c565b92915050565b5f6020828403121561237b5761237a61232f565b5b5f61238884828501612352565b91505092915050565b5f73ffffffffffffffffffffffffffffffffffffffff82169050919050565b5f6123ba82612391565b9050919050565b6123ca816123b0565b82525050565b5f6020820190506123e35f8301846123c1565b92915050565b5f819050919050565b5f61240c61240761240284612391565b6123e9565b612391565b9050919050565b5f61241d826123f2565b9050919050565b5f61242e82612413565b9050919050565b61243e81612424565b82525050565b5f6020820190506124575f830184612435565b92915050565b612466816123b0565b8114612470575f80fd5b50565b5f813590506124818161245d565b92915050565b5f6020828403121561249c5761249b61232f565b5b5f6124a984828501612473565b91505092915050565b6124bb81612333565b82525050565b5f6080820190506124d45f8301876124b2565b6124e160208301866124b2565b6124ee60408301856124b2565b6124fb60608301846124b2565b95945050505050565b5f6040820190506125175f8301856124b2565b61252460208301846124b2565b9392505050565b5f80604083850312156125415761254061232f565b5b5f61254e85828601612352565b925050602061255f85828601612352565b9150509250929050565b5f805f606084860312156125805761257f61232f565b5b5f61258d86828701612352565b935050602061259e86828701612352565b92505060406125af86828701612352565b9150509250925092565b5f80604083850312156125cf576125ce61232f565b5b5f6125dc85828601612473565b92505060206125ed85828601612352565b9150509250929050565b5f8115159050919050565b61260b816125f7565b82525050565b5f60c0820190506126245f830189612602565b6126316020830188612602565b61263e60408301876123c1565b61264b60608301866124b2565b61265860808301856124b2565b61266560a08301846124b2565b979650505050505050565b5f6020820190506126835f8301846124b2565b92915050565b5f60a08201905061269c5f8301886124b2565b6126a960208301876124b2565b6126b660408301866124b2565b6126c360608301856124b2565b6126d060808301846124b2565b9695505050505050565b5f80604083850312156126f0576126ef61232f565b5b5f6126fd85828601612352565b925050602061270e85828601612473565b9150509250929050565b7f4e487b71000000000000000000000000000000000000000000000000000000005f52603260045260245ffd5b7f4e487b71000000000000000000000000000000000000000000000000000000005f52601160045260245ffd5b5f61277c82612333565b915061278783612333565b925082820190508082111561279f5761279e612745565b5b92915050565b5f6127af82612333565b91506127ba83612333565b92508282026127c881612333565b915082820484148315176127df576127de612745565b5b5092915050565b7f4e487b71000000000000000000000000000000000000000000000000000000005f52601260045260245ffd5b5f61281d82612333565b915061282883612333565b925082612838576128376127e6565b5b828204905092915050565b5f82825260208201905092915050565b7f77726f6e6720757365722e0000000000000000000000000000000000000000005f82015250565b5f612887600b83612843565b915061289282612853565b602082019050919050565b5f6020820190508181035f8301526128b48161287b565b9050919050565b7f7072696365206d7573742062652067726561746572207468616e2030000000005f82015250565b5f6128ef601c83612843565b91506128fa826128bb565b602082019050919050565b5f6020820190508181035f83015261291c816128e3565b9050919050565b7f616d6f756e74206d7573742062652067726561746572207468616e20300000005f82015250565b5f612957601d83612843565b915061296282612923565b602082019050919050565b5f6020820190508181035f8301526129848161294b565b9050919050565b7f796f7520656974686572206c69737420796573206f72206e6f2e0000000000005f82015250565b5f6129bf601a83612843565b91506129ca8261298b565b602082019050919050565b5f6020820190508181035f8301526129ec816129b3565b9050919050565b7f4d61726b65742068617320656e646564000000000000000000000000000000005f82015250565b5f612a27601083612843565b9150612a32826129f3565b602082019050919050565b5f6020820190508181035f830152612a5481612a1b565b9050919050565b5f612a6582612333565b91507fffffffffffffffffffffffffffffffffffffffffffffffffffffffffffffffff8203612a9757612a96612745565b5b600182019050919050565b7f206569746865722062657420796573206f72206e6f2e000000000000000000005f82015250565b5f612ad6601683612843565b9150612ae182612aa2565b602082019050919050565b5f6020820190508181035f830152612b0381612aca565b9050919050565b7f4d61726b657420686173206e6f7420656e6465640000000000000000000000005f82015250565b5f612b3e601483612843565b9150612b4982612b0a565b602082019050919050565b5f6020820190508181035f830152612b6b81612b32565b9050919050565b7f796f75206569746865722062657420796573206f72206e6f2e000000000000005f82015250565b5f612ba6601983612843565b9150612bb182612b72565b602082019050919050565b5f6020820190508181035f830152612bd381612b9a565b9050919050565b7f42657420616d6f756e74206d7573742062652067726561746572207468616e205f8201527f3000000000000000000000000000000000000000000000000000000000000000602082015250565b5f612c34602183612843565b9150612c3f82612bda565b604082019050919050565b5f6020820190508181035f830152612c6181612c28565b9050919050565b7f4d61726b657420697320636c6f7365642e0000000000000000000000000000005f82015250565b5f612c9c601183612843565b9150612ca782612c68565b602082019050919050565b5f6020820190508181035f830152612cc981612c90565b9050919050565b5f606082019050612ce35f8301866123c1565b612cf060208301856123c1565b612cfd60408301846124b2565b949350505050565b612d0e816125f7565b8114612d18575f80fd5b50565b5f81519050612d2981612d05565b92915050565b5f60208284031215612d4457612d4361232f565b5b5f612d5184828501612d1b565b91505092915050565b7f5472616e73666572206661696c656400000000000000000000000000000000005f82015250565b5f612d8e600f83612843565b9150612d9982612d5a565b602082019050919050565b5f6020820190508181035f830152612dbb81612d82565b9050919050565b7f536861726573206d7573742062652067726561746572207468616e207a65726f5f82015250565b5f612df6602083612843565b9150612e0182612dc2565b602082019050919050565b5f6020820190508181035f830152612e2381612dea565b9050919050565b7f5f70726963652063616e6e6f74206265207a65726f00000000000000000000005f82015250565b5f612e5e601583612843565b9150612e6982612e2a565b602082019050919050565b5f6020820190508181035f830152612e8b81612e52565b9050919050565b7f4e6f74206c6973746565642100000000000000000000000000000000000000005f82015250565b5f612ec6600c83612843565b9150612ed182612e92565b602082019050919050565b5f6020820190508181035f830152612ef381612eba565b9050919050565b7f616c6c726561647920536f6c642e0000000000000000000000000000000000005f82015250565b5f612f2e600e83612843565b9150612f3982612efa565b602082019050919050565b5f6020820190508181035f830152612f5b81612f22565b9050919050565b7f77726f6e67204f776e65722e00000000000000000000000000000000000000005f82015250565b5f612f96600c83612843565b9150612fa182612f62565b602082019050919050565b5f6020820190508181035f830152612fc381612f8a565b9050919050565b5f612fd482612333565b9150612fdf83612333565b9250828203905081811115612ff757612ff6612745565b5b92915050565b5f81519050919050565b8281835e5f83830152505050565b5f601f19601f8301169050919050565b5f61302f82612ffd565b6130398185612843565b9350613049818560208601613007565b61305281613015565b840191505092915050565b5f6040820190508181035f8301526130758185613025565b905061308460208301846124b2565b9392505050565b7f4e487b71000000000000000000000000000000000000000000000000000000005f52605160045260245ffdfea2646970667358221220bf6ea511c0647227a885826d03d129b5a3326e863efef8dafbe16c1da14ca82364736f6c634300081a0033",
			"opcodes": "PUSH1 0x80 PUSH1 0x40 MSTORE CALLVALUE DUP1 ISZERO PUSH2 0xF JUMPI PUSH0 DUP1 REVERT JUMPDEST POP PUSH1 0x40 MLOAD PUSH2 0x34F1 CODESIZE SUB DUP1 PUSH2 0x34F1 DUP4 CODECOPY DUP2 DUP2 ADD PUSH1 0x40 MSTORE DUP2 ADD SWAP1 PUSH2 0x31 SWAP2 SWAP1 PUSH2 0x351 JUMP JUMPDEST DUP3 PUSH0 PUSH20 0xFFFFFFFFFFFFFFFFFFFFFFFFFFFFFFFFFFFFFFFF AND DUP2 PUSH20 0xFFFFFFFFFFFFFFFFFFFFFFFFFFFFFFFFFFFFFFFF AND SUB PUSH2 0xA2 JUMPI PUSH0 PUSH1 0x40 MLOAD PUSH32 0x1E4FBDF700000000000000000000000000000000000000000000000000000000 DUP2 MSTORE PUSH1 0x4 ADD PUSH2 0x99 SWAP2 SWAP1 PUSH2 0x3B0 JUMP JUMPDEST PUSH1 0x40 MLOAD DUP1 SWAP2 SUB SWAP1 REVERT JUMPDEST PUSH2 0xB1 DUP2 PUSH2 0x1FF PUSH1 0x20 SHL PUSH1 0x20 SHR JUMP JUMPDEST POP DUP1 PUSH1 0x5 PUSH0 ADDRESS PUSH20 0xFFFFFFFFFFFFFFFFFFFFFFFFFFFFFFFFFFFFFFFF AND PUSH20 0xFFFFFFFFFFFFFFFFFFFFFFFFFFFFFFFFFFFFFFFF AND DUP2 MSTORE PUSH1 0x20 ADD SWAP1 DUP2 MSTORE PUSH1 0x20 ADD PUSH0 KECCAK256 PUSH0 ADD DUP2 SWAP1 SSTORE POP PUSH8 0x6F05B59D3B20000 PUSH1 0x5 PUSH0 ADDRESS PUSH20 0xFFFFFFFFFFFFFFFFFFFFFFFFFFFFFFFFFFFFFFFF AND PUSH20 0xFFFFFFFFFFFFFFFFFFFFFFFFFFFFFFFFFFFFFFFF AND DUP2 MSTORE PUSH1 0x20 ADD SWAP1 DUP2 MSTORE PUSH1 0x20 ADD PUSH0 KECCAK256 PUSH1 0x3 ADD PUSH0 PUSH1 0x2 DUP2 LT PUSH2 0x151 JUMPI PUSH2 0x150 PUSH2 0x3C9 JUMP JUMPDEST JUMPDEST ADD DUP2 SWAP1 SSTORE POP PUSH8 0x6F05B59D3B20000 PUSH1 0x5 PUSH0 ADDRESS PUSH20 0xFFFFFFFFFFFFFFFFFFFFFFFFFFFFFFFFFFFFFFFF AND PUSH20 0xFFFFFFFFFFFFFFFFFFFFFFFFFFFFFFFFFFFFFFFF AND DUP2 MSTORE PUSH1 0x20 ADD SWAP1 DUP2 MSTORE PUSH1 0x20 ADD PUSH0 KECCAK256 PUSH1 0x3 ADD PUSH1 0x1 PUSH1 0x2 DUP2 LT PUSH2 0x1B2 JUMPI PUSH2 0x1B1 PUSH2 0x3C9 JUMP JUMPDEST JUMPDEST ADD DUP2 SWAP1 SSTORE POP DUP2 PUSH1 0x1 PUSH0 PUSH2 0x100 EXP DUP2 SLOAD DUP2 PUSH20 0xFFFFFFFFFFFFFFFFFFFFFFFFFFFFFFFFFFFFFFFF MUL NOT AND SWAP1 DUP4 PUSH20 0xFFFFFFFFFFFFFFFFFFFFFFFFFFFFFFFFFFFFFFFF AND MUL OR SWAP1 SSTORE POP POP POP POP PUSH2 0x3F6 JUMP JUMPDEST PUSH0 DUP1 PUSH0 SWAP1 SLOAD SWAP1 PUSH2 0x100 EXP SWAP1 DIV PUSH20 0xFFFFFFFFFFFFFFFFFFFFFFFFFFFFFFFFFFFFFFFF AND SWAP1 POP DUP2 PUSH0 DUP1 PUSH2 0x100 EXP DUP2 SLOAD DUP2 PUSH20 0xFFFFFFFFFFFFFFFFFFFFFFFFFFFFFFFFFFFFFFFF MUL NOT AND SWAP1 DUP4 PUSH20 0xFFFFFFFFFFFFFFFFFFFFFFFFFFFFFFFFFFFFFFFF AND MUL OR SWAP1 SSTORE POP DUP2 PUSH20 0xFFFFFFFFFFFFFFFFFFFFFFFFFFFFFFFFFFFFFFFF AND DUP2 PUSH20 0xFFFFFFFFFFFFFFFFFFFFFFFFFFFFFFFFFFFFFFFF AND PUSH32 0x8BE0079C531659141344CD1FD0A4F28419497F9722A3DAAFE3B4186F6B6457E0 PUSH1 0x40 MLOAD PUSH1 0x40 MLOAD DUP1 SWAP2 SUB SWAP1 LOG3 POP POP JUMP JUMPDEST PUSH0 DUP1 REVERT JUMPDEST PUSH0 PUSH20 0xFFFFFFFFFFFFFFFFFFFFFFFFFFFFFFFFFFFFFFFF DUP3 AND SWAP1 POP SWAP2 SWAP1 POP JUMP JUMPDEST PUSH0 PUSH2 0x2ED DUP3 PUSH2 0x2C4 JUMP JUMPDEST SWAP1 POP SWAP2 SWAP1 POP JUMP JUMPDEST PUSH2 0x2FD DUP2 PUSH2 0x2E3 JUMP JUMPDEST DUP2 EQ PUSH2 0x307 JUMPI PUSH0 DUP1 REVERT JUMPDEST POP JUMP JUMPDEST PUSH0 DUP2 MLOAD SWAP1 POP PUSH2 0x318 DUP2 PUSH2 0x2F4 JUMP JUMPDEST SWAP3 SWAP2 POP POP JUMP JUMPDEST PUSH0 DUP2 SWAP1 POP SWAP2 SWAP1 POP JUMP JUMPDEST PUSH2 0x330 DUP2 PUSH2 0x31E JUMP JUMPDEST DUP2 EQ PUSH2 0x33A JUMPI PUSH0 DUP1 REVERT JUMPDEST POP JUMP JUMPDEST PUSH0 DUP2 MLOAD SWAP1 POP PUSH2 0x34B DUP2 PUSH2 0x327 JUMP JUMPDEST SWAP3 SWAP2 POP POP JUMP JUMPDEST PUSH0 DUP1 PUSH0 PUSH1 0x60 DUP5 DUP7 SUB SLT ISZERO PUSH2 0x368 JUMPI PUSH2 0x367 PUSH2 0x2C0 JUMP JUMPDEST JUMPDEST PUSH0 PUSH2 0x375 DUP7 DUP3 DUP8 ADD PUSH2 0x30A JUMP JUMPDEST SWAP4 POP POP PUSH1 0x20 PUSH2 0x386 DUP7 DUP3 DUP8 ADD PUSH2 0x30A JUMP JUMPDEST SWAP3 POP POP PUSH1 0x40 PUSH2 0x397 DUP7 DUP3 DUP8 ADD PUSH2 0x33D JUMP JUMPDEST SWAP2 POP POP SWAP3 POP SWAP3 POP SWAP3 JUMP JUMPDEST PUSH2 0x3AA DUP2 PUSH2 0x2E3 JUMP JUMPDEST DUP3 MSTORE POP POP JUMP JUMPDEST PUSH0 PUSH1 0x20 DUP3 ADD SWAP1 POP PUSH2 0x3C3 PUSH0 DUP4 ADD DUP5 PUSH2 0x3A1 JUMP JUMPDEST SWAP3 SWAP2 POP POP JUMP JUMPDEST PUSH32 0x4E487B7100000000000000000000000000000000000000000000000000000000 PUSH0 MSTORE PUSH1 0x32 PUSH1 0x4 MSTORE PUSH1 0x24 PUSH0 REVERT JUMPDEST PUSH2 0x30EE DUP1 PUSH2 0x403 PUSH0 CODECOPY PUSH0 RETURN INVALID PUSH1 0x80 PUSH1 0x40 MSTORE CALLVALUE DUP1 ISZERO PUSH2 0xF JUMPI PUSH0 DUP1 REVERT JUMPDEST POP PUSH1 0x4 CALLDATASIZE LT PUSH2 0x109 JUMPI PUSH0 CALLDATALOAD PUSH1 0xE0 SHR DUP1 PUSH4 0x6FFCC719 GT PUSH2 0xA0 JUMPI DUP1 PUSH4 0xB3C740E8 GT PUSH2 0x6F JUMPI DUP1 PUSH4 0xB3C740E8 EQ PUSH2 0x2BF JUMPI DUP1 PUSH4 0xBFF1F9E1 EQ PUSH2 0x2EF JUMPI DUP1 PUSH4 0xC4351386 EQ PUSH2 0x30D JUMPI DUP1 PUSH4 0xF2FDE38B EQ PUSH2 0x341 JUMPI DUP1 PUSH4 0xFBEA0B06 EQ PUSH2 0x35D JUMPI PUSH2 0x109 JUMP JUMPDEST DUP1 PUSH4 0x6FFCC719 EQ PUSH2 0x24B JUMPI DUP1 PUSH4 0x715018A6 EQ PUSH2 0x267 JUMPI DUP1 PUSH4 0x84B5ACA6 EQ PUSH2 0x271 JUMPI DUP1 PUSH4 0x8DA5CB5B EQ PUSH2 0x2A1 JUMPI PUSH2 0x109 JUMP JUMPDEST DUP1 PUSH4 0x21D0D9AF GT PUSH2 0xDC JUMPI DUP1 PUSH4 0x21D0D9AF EQ PUSH2 0x1AD JUMPI DUP1 PUSH4 0x456E62BA EQ PUSH2 0x1DE JUMPI DUP1 PUSH4 0x61D464EF EQ PUSH2 0x1FA JUMPI DUP1 PUSH4 0x6399D03D EQ PUSH2 0x22F JUMPI PUSH2 0x109 JUMP JUMPDEST DUP1 PUSH4 0x8EF962E EQ PUSH2 0x10D JUMPI DUP1 PUSH4 0x11EAC855 EQ PUSH2 0x13D JUMPI DUP1 PUSH4 0x1959A002 EQ PUSH2 0x15B JUMPI DUP1 PUSH4 0x208C86A4 EQ PUSH2 0x18E JUMPI JUMPDEST PUSH0 DUP1 REVERT JUMPDEST PUSH2 0x127 PUSH1 0x4 DUP1 CALLDATASIZE SUB DUP2 ADD SWAP1 PUSH2 0x122 SWAP2 SWAP1 PUSH2 0x2366 JUMP JUMPDEST PUSH2 0x379 JUMP JUMPDEST PUSH1 0x40 MLOAD PUSH2 0x134 SWAP2 SWAP1 PUSH2 0x23D0 JUMP JUMPDEST PUSH1 0x40 MLOAD DUP1 SWAP2 SUB SWAP1 RETURN JUMPDEST PUSH2 0x145 PUSH2 0x3A9 JUMP JUMPDEST PUSH1 0x40 MLOAD PUSH2 0x152 SWAP2 SWAP1 PUSH2 0x2444 JUMP JUMPDEST PUSH1 0x40 MLOAD DUP1 SWAP2 SUB SWAP1 RETURN JUMPDEST PUSH2 0x175 PUSH1 0x4 DUP1 CALLDATASIZE SUB DUP2 ADD SWAP1 PUSH2 0x170 SWAP2 SWAP1 PUSH2 0x2487 JUMP JUMPDEST PUSH2 0x3CE JUMP JUMPDEST PUSH1 0x40 MLOAD PUSH2 0x185 SWAP5 SWAP4 SWAP3 SWAP2 SWAP1 PUSH2 0x24C1 JUMP JUMPDEST PUSH1 0x40 MLOAD DUP1 SWAP2 SUB SWAP1 RETURN JUMPDEST PUSH2 0x196 PUSH2 0x3FA JUMP JUMPDEST PUSH1 0x40 MLOAD PUSH2 0x1A4 SWAP3 SWAP2 SWAP1 PUSH2 0x2504 JUMP JUMPDEST PUSH1 0x40 MLOAD DUP1 SWAP2 SUB SWAP1 RETURN JUMPDEST PUSH2 0x1C7 PUSH1 0x4 DUP1 CALLDATASIZE SUB DUP2 ADD SWAP1 PUSH2 0x1C2 SWAP2 SWAP1 PUSH2 0x252B JUMP JUMPDEST PUSH2 0x4AD JUMP JUMPDEST PUSH1 0x40 MLOAD PUSH2 0x1D5 SWAP3 SWAP2 SWAP1 PUSH2 0x2504 JUMP JUMPDEST PUSH1 0x40 MLOAD DUP1 SWAP2 SUB SWAP1 RETURN JUMPDEST PUSH2 0x1F8 PUSH1 0x4 DUP1 CALLDATASIZE SUB DUP2 ADD SWAP1 PUSH2 0x1F3 SWAP2 SWAP1 PUSH2 0x2569 JUMP JUMPDEST PUSH2 0x5EB JUMP JUMPDEST STOP JUMPDEST PUSH2 0x214 PUSH1 0x4 DUP1 CALLDATASIZE SUB DUP2 ADD SWAP1 PUSH2 0x20F SWAP2 SWAP1 PUSH2 0x25B9 JUMP JUMPDEST PUSH2 0xBEA JUMP JUMPDEST PUSH1 0x40 MLOAD PUSH2 0x226 SWAP7 SWAP6 SWAP5 SWAP4 SWAP3 SWAP2 SWAP1 PUSH2 0x2611 JUMP JUMPDEST PUSH1 0x40 MLOAD DUP1 SWAP2 SUB SWAP1 RETURN JUMPDEST PUSH2 0x249 PUSH1 0x4 DUP1 CALLDATASIZE SUB DUP2 ADD SWAP1 PUSH2 0x244 SWAP2 SWAP1 PUSH2 0x2366 JUMP JUMPDEST PUSH2 0xC64 JUMP JUMPDEST STOP JUMPDEST PUSH2 0x265 PUSH1 0x4 DUP1 CALLDATASIZE SUB DUP2 ADD SWAP1 PUSH2 0x260 SWAP2 SWAP1 PUSH2 0x252B JUMP JUMPDEST PUSH2 0xDD9 JUMP JUMPDEST STOP JUMPDEST PUSH2 0x26F PUSH2 0x15D2 JUMP JUMPDEST STOP JUMPDEST PUSH2 0x28B PUSH1 0x4 DUP1 CALLDATASIZE SUB DUP2 ADD SWAP1 PUSH2 0x286 SWAP2 SWAP1 PUSH2 0x252B JUMP JUMPDEST PUSH2 0x15E5 JUMP JUMPDEST PUSH1 0x40 MLOAD PUSH2 0x298 SWAP2 SWAP1 PUSH2 0x2670 JUMP JUMPDEST PUSH1 0x40 MLOAD DUP1 SWAP2 SUB SWAP1 RETURN JUMPDEST PUSH2 0x2A9 PUSH2 0x16A0 JUMP JUMPDEST PUSH1 0x40 MLOAD PUSH2 0x2B6 SWAP2 SWAP1 PUSH2 0x23D0 JUMP JUMPDEST PUSH1 0x40 MLOAD DUP1 SWAP2 SUB SWAP1 RETURN JUMPDEST PUSH2 0x2D9 PUSH1 0x4 DUP1 CALLDATASIZE SUB DUP2 ADD SWAP1 PUSH2 0x2D4 SWAP2 SWAP1 PUSH2 0x252B JUMP JUMPDEST PUSH2 0x16C7 JUMP JUMPDEST PUSH1 0x40 MLOAD PUSH2 0x2E6 SWAP2 SWAP1 PUSH2 0x2670 JUMP JUMPDEST PUSH1 0x40 MLOAD DUP1 SWAP2 SUB SWAP1 RETURN JUMPDEST PUSH2 0x2F7 PUSH2 0x1787 JUMP JUMPDEST PUSH1 0x40 MLOAD PUSH2 0x304 SWAP2 SWAP1 PUSH2 0x2670 JUMP JUMPDEST PUSH1 0x40 MLOAD DUP1 SWAP2 SUB SWAP1 RETURN JUMPDEST PUSH2 0x327 PUSH1 0x4 DUP1 CALLDATASIZE SUB DUP2 ADD SWAP1 PUSH2 0x322 SWAP2 SWAP1 PUSH2 0x2487 JUMP JUMPDEST PUSH2 0x178D JUMP JUMPDEST PUSH1 0x40 MLOAD PUSH2 0x338 SWAP6 SWAP5 SWAP4 SWAP3 SWAP2 SWAP1 PUSH2 0x2689 JUMP JUMPDEST PUSH1 0x40 MLOAD DUP1 SWAP2 SUB SWAP1 RETURN JUMPDEST PUSH2 0x35B PUSH1 0x4 DUP1 CALLDATASIZE SUB DUP2 ADD SWAP1 PUSH2 0x356 SWAP2 SWAP1 PUSH2 0x2487 JUMP JUMPDEST PUSH2 0x17BF JUMP JUMPDEST STOP JUMPDEST PUSH2 0x377 PUSH1 0x4 DUP1 CALLDATASIZE SUB DUP2 ADD SWAP1 PUSH2 0x372 SWAP2 SWAP1 PUSH2 0x26DA JUMP JUMPDEST PUSH2 0x1843 JUMP JUMPDEST STOP JUMPDEST PUSH1 0x3 PUSH1 0x20 MSTORE DUP1 PUSH0 MSTORE PUSH1 0x40 PUSH0 KECCAK256 PUSH0 SWAP2 POP SLOAD SWAP1 PUSH2 0x100 EXP SWAP1 DIV PUSH20 0xFFFFFFFFFFFFFFFFFFFFFFFFFFFFFFFFFFFFFFFF AND DUP2 JUMP JUMPDEST PUSH1 0x1 PUSH0 SWAP1 SLOAD SWAP1 PUSH2 0x100 EXP SWAP1 DIV PUSH20 0xFFFFFFFFFFFFFFFFFFFFFFFFFFFFFFFFFFFFFFFF AND DUP2 JUMP JUMPDEST PUSH1 0x4 PUSH1 0x20 MSTORE DUP1 PUSH0 MSTORE PUSH1 0x40 PUSH0 KECCAK256 PUSH0 SWAP2 POP SWAP1 POP DUP1 PUSH0 ADD SLOAD SWAP1 DUP1 PUSH1 0x1 ADD SLOAD SWAP1 DUP1 PUSH1 0x2 ADD SLOAD SWAP1 DUP1 PUSH1 0x3 ADD SLOAD SWAP1 POP DUP5 JUMP JUMPDEST PUSH0 DUP1 PUSH1 0x5 PUSH0 ADDRESS PUSH20 0xFFFFFFFFFFFFFFFFFFFFFFFFFFFFFFFFFFFFFFFF AND PUSH20 0xFFFFFFFFFFFFFFFFFFFFFFFFFFFFFFFFFFFFFFFF AND DUP2 MSTORE PUSH1 0x20 ADD SWAP1 DUP2 MSTORE PUSH1 0x20 ADD PUSH0 KECCAK256 PUSH1 0x3 ADD PUSH0 PUSH1 0x2 DUP2 LT PUSH2 0x44E JUMPI PUSH2 0x44D PUSH2 0x2718 JUMP JUMPDEST JUMPDEST ADD SLOAD PUSH1 0x5 PUSH0 ADDRESS PUSH20 0xFFFFFFFFFFFFFFFFFFFFFFFFFFFFFFFFFFFFFFFF AND PUSH20 0xFFFFFFFFFFFFFFFFFFFFFFFFFFFFFFFFFFFFFFFF AND DUP2 MSTORE PUSH1 0x20 ADD SWAP1 DUP2 MSTORE PUSH1 0x20 ADD PUSH0 KECCAK256 PUSH1 0x3 ADD PUSH1 0x1 PUSH1 0x2 DUP2 LT PUSH2 0x4A3 JUMPI PUSH2 0x4A2 PUSH2 0x2718 JUMP JUMPDEST JUMPDEST ADD SLOAD SWAP2 POP SWAP2 POP SWAP1 SWAP2 JUMP JUMPDEST PUSH0 DUP1 PUSH0 PUSH1 0x5 PUSH0 ADDRESS PUSH20 0xFFFFFFFFFFFFFFFFFFFFFFFFFFFFFFFFFFFFFFFF AND PUSH20 0xFFFFFFFFFFFFFFFFFFFFFFFFFFFFFFFFFFFFFFFF AND DUP2 MSTORE PUSH1 0x20 ADD SWAP1 DUP2 MSTORE PUSH1 0x20 ADD PUSH0 KECCAK256 PUSH1 0x3 ADD PUSH0 PUSH1 0x2 DUP2 LT PUSH2 0x502 JUMPI PUSH2 0x501 PUSH2 0x2718 JUMP JUMPDEST JUMPDEST ADD SLOAD SWAP1 POP PUSH0 PUSH1 0x5 PUSH0 ADDRESS PUSH20 0xFFFFFFFFFFFFFFFFFFFFFFFFFFFFFFFFFFFFFFFF AND PUSH20 0xFFFFFFFFFFFFFFFFFFFFFFFFFFFFFFFFFFFFFFFF AND DUP2 MSTORE PUSH1 0x20 ADD SWAP1 DUP2 MSTORE PUSH1 0x20 ADD PUSH0 KECCAK256 PUSH1 0x3 ADD PUSH1 0x1 PUSH1 0x2 DUP2 LT PUSH2 0x55A JUMPI PUSH2 0x559 PUSH2 0x2718 JUMP JUMPDEST JUMPDEST ADD SLOAD SWAP1 POP PUSH0 DUP6 DUP8 PUSH2 0x56B SWAP2 SWAP1 PUSH2 0x2772 JUMP JUMPDEST SWAP1 POP PUSH0 DUP8 EQ PUSH2 0x5A4 JUMPI DUP1 PUSH1 0x64 DUP9 PUSH2 0x582 SWAP2 SWAP1 PUSH2 0x27A5 JUMP JUMPDEST PUSH2 0x58C SWAP2 SWAP1 PUSH2 0x2813 JUMP JUMPDEST SWAP3 POP PUSH7 0x2386F26FC10000 DUP4 PUSH2 0x5A1 SWAP2 SWAP1 PUSH2 0x27A5 JUMP JUMPDEST SWAP3 POP JUMPDEST PUSH0 DUP7 EQ PUSH2 0x5DB JUMPI DUP1 PUSH1 0x64 DUP8 PUSH2 0x5B9 SWAP2 SWAP1 PUSH2 0x27A5 JUMP JUMPDEST PUSH2 0x5C3 SWAP2 SWAP1 PUSH2 0x2813 JUMP JUMPDEST SWAP2 POP PUSH7 0x2386F26FC10000 DUP3 PUSH2 0x5D8 SWAP2 SWAP1 PUSH2 0x27A5 JUMP JUMPDEST SWAP2 POP JUMPDEST DUP3 DUP3 SWAP5 POP SWAP5 POP POP POP POP SWAP3 POP SWAP3 SWAP1 POP JUMP JUMPDEST PUSH1 0x4 PUSH0 CALLER PUSH20 0xFFFFFFFFFFFFFFFFFFFFFFFFFFFFFFFFFFFFFFFF AND PUSH20 0xFFFFFFFFFFFFFFFFFFFFFFFFFFFFFFFFFFFFFFFF AND DUP2 MSTORE PUSH1 0x20 ADD SWAP1 DUP2 MSTORE PUSH1 0x20 ADD PUSH0 KECCAK256 PUSH1 0x4 ADD PUSH0 DUP3 DUP2 MSTORE PUSH1 0x20 ADD SWAP1 DUP2 MSTORE PUSH1 0x20 ADD PUSH0 KECCAK256 PUSH0 SWAP1 SLOAD SWAP1 PUSH2 0x100 EXP SWAP1 DIV PUSH1 0xFF AND PUSH2 0x686 JUMPI PUSH1 0x40 MLOAD PUSH32 0x8C379A000000000000000000000000000000000000000000000000000000000 DUP2 MSTORE PUSH1 0x4 ADD PUSH2 0x67D SWAP1 PUSH2 0x289D JUMP JUMPDEST PUSH1 0x40 MLOAD DUP1 SWAP2 SUB SWAP1 REVERT JUMPDEST PUSH0 DUP3 GT PUSH2 0x6C8 JUMPI PUSH1 0x40 MLOAD PUSH32 0x8C379A000000000000000000000000000000000000000000000000000000000 DUP2 MSTORE PUSH1 0x4 ADD PUSH2 0x6BF SWAP1 PUSH2 0x2905 JUMP JUMPDEST PUSH1 0x40 MLOAD DUP1 SWAP2 SUB SWAP1 REVERT JUMPDEST PUSH0 DUP4 GT PUSH2 0x70A JUMPI PUSH1 0x40 MLOAD PUSH32 0x8C379A000000000000000000000000000000000000000000000000000000000 DUP2 MSTORE PUSH1 0x4 ADD PUSH2 0x701 SWAP1 PUSH2 0x296D JUMP JUMPDEST PUSH1 0x40 MLOAD DUP1 SWAP2 SUB SWAP1 REVERT JUMPDEST PUSH0 DUP2 EQ DUP1 PUSH2 0x718 JUMPI POP PUSH1 0x1 DUP2 EQ JUMPDEST PUSH2 0x757 JUMPI PUSH1 0x40 MLOAD PUSH32 0x8C379A000000000000000000000000000000000000000000000000000000000 DUP2 MSTORE PUSH1 0x4 ADD PUSH2 0x74E SWAP1 PUSH2 0x29D5 JUMP JUMPDEST PUSH1 0x40 MLOAD DUP1 SWAP2 SUB SWAP1 REVERT JUMPDEST PUSH1 0x5 PUSH0 ADDRESS PUSH20 0xFFFFFFFFFFFFFFFFFFFFFFFFFFFFFFFFFFFFFFFF AND PUSH20 0xFFFFFFFFFFFFFFFFFFFFFFFFFFFFFFFFFFFFFFFF AND DUP2 MSTORE PUSH1 0x20 ADD SWAP1 DUP2 MSTORE PUSH1 0x20 ADD PUSH0 KECCAK256 PUSH0 ADD SLOAD TIMESTAMP LT PUSH2 0x7D8 JUMPI PUSH1 0x40 MLOAD PUSH32 0x8C379A000000000000000000000000000000000000000000000000000000000 DUP2 MSTORE PUSH1 0x4 ADD PUSH2 0x7CF SWAP1 PUSH2 0x2A3D JUMP JUMPDEST PUSH1 0x40 MLOAD DUP1 SWAP2 SUB SWAP1 REVERT JUMPDEST PUSH1 0x4 PUSH0 CALLER PUSH20 0xFFFFFFFFFFFFFFFFFFFFFFFFFFFFFFFFFFFFFFFF AND PUSH20 0xFFFFFFFFFFFFFFFFFFFFFFFFFFFFFFFFFFFFFFFF AND DUP2 MSTORE PUSH1 0x20 ADD SWAP1 DUP2 MSTORE PUSH1 0x20 ADD PUSH0 KECCAK256 PUSH0 ADD PUSH0 DUP2 SLOAD DUP1 SWAP3 SWAP2 SWAP1 PUSH2 0x827 SWAP1 PUSH2 0x2A5B JUMP JUMPDEST SWAP2 SWAP1 POP SSTORE POP PUSH1 0x1 PUSH1 0x6 PUSH0 CALLER PUSH20 0xFFFFFFFFFFFFFFFFFFFFFFFFFFFFFFFFFFFFFFFF AND PUSH20 0xFFFFFFFFFFFFFFFFFFFFFFFFFFFFFFFFFFFFFFFF AND DUP2 MSTORE PUSH1 0x20 ADD SWAP1 DUP2 MSTORE PUSH1 0x20 ADD PUSH0 KECCAK256 PUSH0 PUSH1 0x4 PUSH0 CALLER PUSH20 0xFFFFFFFFFFFFFFFFFFFFFFFFFFFFFFFFFFFFFFFF AND PUSH20 0xFFFFFFFFFFFFFFFFFFFFFFFFFFFFFFFFFFFFFFFF AND DUP2 MSTORE PUSH1 0x20 ADD SWAP1 DUP2 MSTORE PUSH1 0x20 ADD PUSH0 KECCAK256 PUSH0 ADD SLOAD DUP2 MSTORE PUSH1 0x20 ADD SWAP1 DUP2 MSTORE PUSH1 0x20 ADD PUSH0 KECCAK256 PUSH0 ADD PUSH0 PUSH2 0x100 EXP DUP2 SLOAD DUP2 PUSH1 0xFF MUL NOT AND SWAP1 DUP4 ISZERO ISZERO MUL OR SWAP1 SSTORE POP DUP2 PUSH1 0x6 PUSH0 CALLER PUSH20 0xFFFFFFFFFFFFFFFFFFFFFFFFFFFFFFFFFFFFFFFF AND PUSH20 0xFFFFFFFFFFFFFFFFFFFFFFFFFFFFFFFFFFFFFFFF AND DUP2 MSTORE PUSH1 0x20 ADD SWAP1 DUP2 MSTORE PUSH1 0x20 ADD PUSH0 KECCAK256 PUSH0 PUSH1 0x4 PUSH0 CALLER PUSH20 0xFFFFFFFFFFFFFFFFFFFFFFFFFFFFFFFFFFFFFFFF AND PUSH20 0xFFFFFFFFFFFFFFFFFFFFFFFFFFFFFFFFFFFFFFFF AND DUP2 MSTORE PUSH1 0x20 ADD SWAP1 DUP2 MSTORE PUSH1 0x20 ADD PUSH0 KECCAK256 PUSH0 ADD SLOAD DUP2 MSTORE PUSH1 0x20 ADD SWAP1 DUP2 MSTORE PUSH1 0x20 ADD PUSH0 KECCAK256 PUSH1 0x1 ADD DUP2 SWAP1 SSTORE POP DUP3 PUSH1 0x6 PUSH0 CALLER PUSH20 0xFFFFFFFFFFFFFFFFFFFFFFFFFFFFFFFFFFFFFFFF AND PUSH20 0xFFFFFFFFFFFFFFFFFFFFFFFFFFFFFFFFFFFFFFFF AND DUP2 MSTORE PUSH1 0x20 ADD SWAP1 DUP2 MSTORE PUSH1 0x20 ADD PUSH0 KECCAK256 PUSH0 PUSH1 0x4 PUSH0 CALLER PUSH20 0xFFFFFFFFFFFFFFFFFFFFFFFFFFFFFFFFFFFFFFFF AND PUSH20 0xFFFFFFFFFFFFFFFFFFFFFFFFFFFFFFFFFFFFFFFF AND DUP2 MSTORE PUSH1 0x20 ADD SWAP1 DUP2 MSTORE PUSH1 0x20 ADD PUSH0 KECCAK256 PUSH0 ADD SLOAD DUP2 MSTORE PUSH1 0x20 ADD SWAP1 DUP2 MSTORE PUSH1 0x20 ADD PUSH0 KECCAK256 PUSH1 0x2 ADD DUP2 SWAP1 SSTORE POP CALLER PUSH1 0x6 PUSH0 CALLER PUSH20 0xFFFFFFFFFFFFFFFFFFFFFFFFFFFFFFFFFFFFFFFF AND PUSH20 0xFFFFFFFFFFFFFFFFFFFFFFFFFFFFFFFFFFFFFFFF AND DUP2 MSTORE PUSH1 0x20 ADD SWAP1 DUP2 MSTORE PUSH1 0x20 ADD PUSH0 KECCAK256 PUSH0 PUSH1 0x4 PUSH0 CALLER PUSH20 0xFFFFFFFFFFFFFFFFFFFFFFFFFFFFFFFFFFFFFFFF AND PUSH20 0xFFFFFFFFFFFFFFFFFFFFFFFFFFFFFFFFFFFFFFFF AND DUP2 MSTORE PUSH1 0x20 ADD SWAP1 DUP2 MSTORE PUSH1 0x20 ADD PUSH0 KECCAK256 PUSH0 ADD SLOAD DUP2 MSTORE PUSH1 0x20 ADD SWAP1 DUP2 MSTORE PUSH1 0x20 ADD PUSH0 KECCAK256 PUSH0 ADD PUSH1 0x2 PUSH2 0x100 EXP DUP2 SLOAD DUP2 PUSH20 0xFFFFFFFFFFFFFFFFFFFFFFFFFFFFFFFFFFFFFFFF MUL NOT AND SWAP1 DUP4 PUSH20 0xFFFFFFFFFFFFFFFFFFFFFFFFFFFFFFFFFFFFFFFF AND MUL OR SWAP1 SSTORE POP DUP1 PUSH1 0x6 PUSH0 CALLER PUSH20 0xFFFFFFFFFFFFFFFFFFFFFFFFFFFFFFFFFFFFFFFF AND PUSH20 0xFFFFFFFFFFFFFFFFFFFFFFFFFFFFFFFFFFFFFFFF AND DUP2 MSTORE PUSH1 0x20 ADD SWAP1 DUP2 MSTORE PUSH1 0x20 ADD PUSH0 KECCAK256 PUSH0 PUSH1 0x4 PUSH0 CALLER PUSH20 0xFFFFFFFFFFFFFFFFFFFFFFFFFFFFFFFFFFFFFFFF AND PUSH20 0xFFFFFFFFFFFFFFFFFFFFFFFFFFFFFFFFFFFFFFFF AND DUP2 MSTORE PUSH1 0x20 ADD SWAP1 DUP2 MSTORE PUSH1 0x20 ADD PUSH0 KECCAK256 PUSH0 ADD SLOAD DUP2 MSTORE PUSH1 0x20 ADD SWAP1 DUP2 MSTORE PUSH1 0x20 ADD PUSH0 KECCAK256 PUSH1 0x3 ADD DUP2 SWAP1 SSTORE POP CALLER PUSH20 0xFFFFFFFFFFFFFFFFFFFFFFFFFFFFFFFFFFFFFFFF AND PUSH32 0x578D9BB67FF50E6081576125AD4C2410D6E82DE6DBC1A5DCAC37F8E5AA9CA4F4 PUSH1 0x4 PUSH0 CALLER PUSH20 0xFFFFFFFFFFFFFFFFFFFFFFFFFFFFFFFFFFFFFFFF AND PUSH20 0xFFFFFFFFFFFFFFFFFFFFFFFFFFFFFFFFFFFFFFFF AND DUP2 MSTORE PUSH1 0x20 ADD SWAP1 DUP2 MSTORE PUSH1 0x20 ADD PUSH0 KECCAK256 PUSH0 ADD SLOAD DUP5 PUSH1 0x40 MLOAD PUSH2 0xBDD SWAP3 SWAP2 SWAP1 PUSH2 0x2504 JUMP JUMPDEST PUSH1 0x40 MLOAD DUP1 SWAP2 SUB SWAP1 LOG2 POP POP POP JUMP JUMPDEST PUSH1 0x6 PUSH1 0x20 MSTORE DUP2 PUSH0 MSTORE PUSH1 0x40 PUSH0 KECCAK256 PUSH1 0x20 MSTORE DUP1 PUSH0 MSTORE PUSH1 0x40 PUSH0 KECCAK256 PUSH0 SWAP2 POP SWAP2 POP POP DUP1 PUSH0 ADD PUSH0 SWAP1 SLOAD SWAP1 PUSH2 0x100 EXP SWAP1 DIV PUSH1 0xFF AND SWAP1 DUP1 PUSH0 ADD PUSH1 0x1 SWAP1 SLOAD SWAP1 PUSH2 0x100 EXP SWAP1 DIV PUSH1 0xFF AND SWAP1 DUP1 PUSH0 ADD PUSH1 0x2 SWAP1 SLOAD SWAP1 PUSH2 0x100 EXP SWAP1 DIV PUSH20 0xFFFFFFFFFFFFFFFFFFFFFFFFFFFFFFFFFFFFFFFF AND SWAP1 DUP1 PUSH1 0x1 ADD SLOAD SWAP1 DUP1 PUSH1 0x2 ADD SLOAD SWAP1 DUP1 PUSH1 0x3 ADD SLOAD SWAP1 POP DUP7 JUMP JUMPDEST PUSH0 DUP2 EQ DUP1 PUSH2 0xC72 JUMPI POP PUSH1 0x1 DUP2 EQ JUMPDEST PUSH2 0xCB1 JUMPI PUSH1 0x40 MLOAD PUSH32 0x8C379A000000000000000000000000000000000000000000000000000000000 DUP2 MSTORE PUSH1 0x4 ADD PUSH2 0xCA8 SWAP1 PUSH2 0x2AEC JUMP JUMPDEST PUSH1 0x40 MLOAD DUP1 SWAP2 SUB SWAP1 REVERT JUMPDEST PUSH1 0x5 PUSH0 ADDRESS PUSH20 0xFFFFFFFFFFFFFFFFFFFFFFFFFFFFFFFFFFFFFFFF AND PUSH20 0xFFFFFFFFFFFFFFFFFFFFFFFFFFFFFFFFFFFFFFFF AND DUP2 MSTORE PUSH1 0x20 ADD SWAP1 DUP2 MSTORE PUSH1 0x20 ADD PUSH0 KECCAK256 PUSH0 ADD SLOAD TIMESTAMP GT PUSH2 0xD32 JUMPI PUSH1 0x40 MLOAD PUSH32 0x8C379A000000000000000000000000000000000000000000000000000000000 DUP2 MSTORE PUSH1 0x4 ADD PUSH2 0xD29 SWAP1 PUSH2 0x2B54 JUMP JUMPDEST PUSH1 0x40 MLOAD DUP1 SWAP2 SUB SWAP1 REVERT JUMPDEST PUSH0 JUMPDEST PUSH1 0x2 SLOAD DUP2 LT ISZERO PUSH2 0xDD5 JUMPI PUSH1 0x4 PUSH0 PUSH1 0x3 PUSH0 DUP5 DUP2 MSTORE PUSH1 0x20 ADD SWAP1 DUP2 MSTORE PUSH1 0x20 ADD PUSH0 KECCAK256 PUSH0 SWAP1 SLOAD SWAP1 PUSH2 0x100 EXP SWAP1 DIV PUSH20 0xFFFFFFFFFFFFFFFFFFFFFFFFFFFFFFFFFFFFFFFF AND PUSH20 0xFFFFFFFFFFFFFFFFFFFFFFFFFFFFFFFFFFFFFFFF AND PUSH20 0xFFFFFFFFFFFFFFFFFFFFFFFFFFFFFFFFFFFFFFFF AND DUP2 MSTORE PUSH1 0x20 ADD SWAP1 DUP2 MSTORE PUSH1 0x20 ADD PUSH0 KECCAK256 PUSH1 0x4 ADD PUSH0 DUP4 DUP2 MSTORE PUSH1 0x20 ADD SWAP1 DUP2 MSTORE PUSH1 0x20 ADD PUSH0 KECCAK256 PUSH0 SWAP1 SLOAD SWAP1 PUSH2 0x100 EXP SWAP1 POP POP DUP1 DUP1 PUSH1 0x1 ADD SWAP2 POP POP PUSH2 0xD34 JUMP JUMPDEST POP POP JUMP JUMPDEST PUSH0 DUP2 EQ DUP1 PUSH2 0xDE7 JUMPI POP PUSH1 0x1 DUP2 EQ JUMPDEST PUSH2 0xE26 JUMPI PUSH1 0x40 MLOAD PUSH32 0x8C379A000000000000000000000000000000000000000000000000000000000 DUP2 MSTORE PUSH1 0x4 ADD PUSH2 0xE1D SWAP1 PUSH2 0x2BBC JUMP JUMPDEST PUSH1 0x40 MLOAD DUP1 SWAP2 SUB SWAP1 REVERT JUMPDEST PUSH0 DUP3 GT PUSH2 0xE68 JUMPI PUSH1 0x40 MLOAD PUSH32 0x8C379A000000000000000000000000000000000000000000000000000000000 DUP2 MSTORE PUSH1 0x4 ADD PUSH2 0xE5F SWAP1 PUSH2 0x2C4A JUMP JUMPDEST PUSH1 0x40 MLOAD DUP1 SWAP2 SUB SWAP1 REVERT JUMPDEST PUSH1 0x5 PUSH0 ADDRESS PUSH20 0xFFFFFFFFFFFFFFFFFFFFFFFFFFFFFFFFFFFFFFFF AND PUSH20 0xFFFFFFFFFFFFFFFFFFFFFFFFFFFFFFFFFFFFFFFF AND DUP2 MSTORE PUSH1 0x20 ADD SWAP1 DUP2 MSTORE PUSH1 0x20 ADD PUSH0 KECCAK256 PUSH0 ADD SLOAD TIMESTAMP LT PUSH2 0xEE9 JUMPI PUSH1 0x40 MLOAD PUSH32 0x8C379A000000000000000000000000000000000000000000000000000000000 DUP2 MSTORE PUSH1 0x4 ADD PUSH2 0xEE0 SWAP1 PUSH2 0x2CB2 JUMP JUMPDEST PUSH1 0x40 MLOAD DUP1 SWAP2 SUB SWAP1 REVERT JUMPDEST PUSH1 0x4 PUSH0 CALLER PUSH20 0xFFFFFFFFFFFFFFFFFFFFFFFFFFFFFFFFFFFFFFFF AND PUSH20 0xFFFFFFFFFFFFFFFFFFFFFFFFFFFFFFFFFFFFFFFF AND DUP2 MSTORE PUSH1 0x20 ADD SWAP1 DUP2 MSTORE PUSH1 0x20 ADD PUSH0 KECCAK256 PUSH1 0x4 ADD PUSH0 DUP3 DUP2 MSTORE PUSH1 0x20 ADD SWAP1 DUP2 MSTORE PUSH1 0x20 ADD PUSH0 KECCAK256 PUSH0 SWAP1 SLOAD SWAP1 PUSH2 0x100 EXP SWAP1 DIV PUSH1 0xFF AND ISZERO DUP1 ISZERO PUSH2 0xFAB JUMPI POP PUSH1 0x4 PUSH0 CALLER PUSH20 0xFFFFFFFFFFFFFFFFFFFFFFFFFFFFFFFFFFFFFFFF AND PUSH20 0xFFFFFFFFFFFFFFFFFFFFFFFFFFFFFFFFFFFFFFFF AND DUP2 MSTORE PUSH1 0x20 ADD SWAP1 DUP2 MSTORE PUSH1 0x20 ADD PUSH0 KECCAK256 PUSH1 0x4 ADD PUSH0 DUP3 DUP2 MSTORE PUSH1 0x20 ADD SWAP1 DUP2 MSTORE PUSH1 0x20 ADD PUSH0 KECCAK256 PUSH0 SWAP1 SLOAD SWAP1 PUSH2 0x100 EXP SWAP1 DIV PUSH1 0xFF AND ISZERO JUMPDEST ISZERO PUSH2 0x1019 JUMPI CALLER PUSH1 0x3 PUSH0 PUSH1 0x2 SLOAD DUP2 MSTORE PUSH1 0x20 ADD SWAP1 DUP2 MSTORE PUSH1 0x20 ADD PUSH0 KECCAK256 PUSH0 PUSH2 0x100 EXP DUP2 SLOAD DUP2 PUSH20 0xFFFFFFFFFFFFFFFFFFFFFFFFFFFFFFFFFFFFFFFF MUL NOT AND SWAP1 DUP4 PUSH20 0xFFFFFFFFFFFFFFFFFFFFFFFFFFFFFFFFFFFFFFFF AND MUL OR SWAP1 SSTORE POP PUSH1 0x2 PUSH0 DUP2 SLOAD DUP1 SWAP3 SWAP2 SWAP1 PUSH2 0x1013 SWAP1 PUSH2 0x2A5B JUMP JUMPDEST SWAP2 SWAP1 POP SSTORE POP JUMPDEST PUSH0 DUP2 SUB PUSH2 0x10D0 JUMPI PUSH1 0x5 PUSH0 ADDRESS PUSH20 0xFFFFFFFFFFFFFFFFFFFFFFFFFFFFFFFFFFFFFFFF AND PUSH20 0xFFFFFFFFFFFFFFFFFFFFFFFFFFFFFFFFFFFFFFFF AND DUP2 MSTORE PUSH1 0x20 ADD SWAP1 DUP2 MSTORE PUSH1 0x20 ADD PUSH0 KECCAK256 PUSH1 0x6 ADD PUSH0 DUP2 SLOAD DUP1 SWAP3 SWAP2 SWAP1 PUSH2 0x1070 SWAP1 PUSH2 0x2A5B JUMP JUMPDEST SWAP2 SWAP1 POP SSTORE POP DUP2 PUSH1 0x4 PUSH0 CALLER PUSH20 0xFFFFFFFFFFFFFFFFFFFFFFFFFFFFFFFFFFFFFFFF AND PUSH20 0xFFFFFFFFFFFFFFFFFFFFFFFFFFFFFFFFFFFFFFFF AND DUP2 MSTORE PUSH1 0x20 ADD SWAP1 DUP2 MSTORE PUSH1 0x20 ADD PUSH0 KECCAK256 PUSH1 0x1 ADD PUSH0 DUP3 DUP3 SLOAD PUSH2 0x10C4 SWAP2 SWAP1 PUSH2 0x2772 JUMP JUMPDEST SWAP3 POP POP DUP2 SWAP1 SSTORE POP PUSH2 0x117C JUMP JUMPDEST PUSH1 0x5 PUSH0 ADDRESS PUSH20 0xFFFFFFFFFFFFFFFFFFFFFFFFFFFFFFFFFFFFFFFF AND PUSH20 0xFFFFFFFFFFFFFFFFFFFFFFFFFFFFFFFFFFFFFFFF AND DUP2 MSTORE PUSH1 0x20 ADD SWAP1 DUP2 MSTORE PUSH1 0x20 ADD PUSH0 KECCAK256 PUSH1 0x5 ADD PUSH0 DUP2 SLOAD DUP1 SWAP3 SWAP2 SWAP1 PUSH2 0x1120 SWAP1 PUSH2 0x2A5B JUMP JUMPDEST SWAP2 SWAP1 POP SSTORE POP DUP2 PUSH1 0x4 PUSH0 CALLER PUSH20 0xFFFFFFFFFFFFFFFFFFFFFFFFFFFFFFFFFFFFFFFF AND PUSH20 0xFFFFFFFFFFFFFFFFFFFFFFFFFFFFFFFFFFFFFFFF AND DUP2 MSTORE PUSH1 0x20 ADD SWAP1 DUP2 MSTORE PUSH1 0x20 ADD PUSH0 KECCAK256 PUSH1 0x3 ADD PUSH0 DUP3 DUP3 SLOAD PUSH2 0x1174 SWAP2 SWAP1 PUSH2 0x2772 JUMP JUMPDEST SWAP3 POP POP DUP2 SWAP1 SSTORE POP JUMPDEST DUP2 PUSH1 0x5 PUSH0 ADDRESS PUSH20 0xFFFFFFFFFFFFFFFFFFFFFFFFFFFFFFFFFFFFFFFF AND PUSH20 0xFFFFFFFFFFFFFFFFFFFFFFFFFFFFFFFFFFFFFFFF AND DUP2 MSTORE PUSH1 0x20 ADD SWAP1 DUP2 MSTORE PUSH1 0x20 ADD PUSH0 KECCAK256 PUSH1 0x2 ADD PUSH0 DUP3 DUP3 SLOAD PUSH2 0x11CB SWAP2 SWAP1 PUSH2 0x2772 JUMP JUMPDEST SWAP3 POP POP DUP2 SWAP1 SSTORE POP PUSH1 0x1 PUSH1 0x4 PUSH0 CALLER PUSH20 0xFFFFFFFFFFFFFFFFFFFFFFFFFFFFFFFFFFFFFFFF AND PUSH20 0xFFFFFFFFFFFFFFFFFFFFFFFFFFFFFFFFFFFFFFFF AND DUP2 MSTORE PUSH1 0x20 ADD SWAP1 DUP2 MSTORE PUSH1 0x20 ADD PUSH0 KECCAK256 PUSH1 0x4 ADD PUSH0 DUP4 DUP2 MSTORE PUSH1 0x20 ADD SWAP1 DUP2 MSTORE PUSH1 0x20 ADD PUSH0 KECCAK256 PUSH0 PUSH2 0x100 EXP DUP2 SLOAD DUP2 PUSH1 0xFF MUL NOT AND SWAP1 DUP4 ISZERO ISZERO MUL OR SWAP1 SSTORE POP PUSH2 0x12C3 PUSH1 0x5 PUSH0 ADDRESS PUSH20 0xFFFFFFFFFFFFFFFFFFFFFFFFFFFFFFFFFFFFFFFF AND PUSH20 0xFFFFFFFFFFFFFFFFFFFFFFFFFFFFFFFFFFFFFFFF AND DUP2 MSTORE PUSH1 0x20 ADD SWAP1 DUP2 MSTORE PUSH1 0x20 ADD PUSH0 KECCAK256 PUSH1 0x6 ADD SLOAD PUSH1 0x5 PUSH0 ADDRESS PUSH20 0xFFFFFFFFFFFFFFFFFFFFFFFFFFFFFFFFFFFFFFFF AND PUSH20 0xFFFFFFFFFFFFFFFFFFFFFFFFFFFFFFFFFFFFFFFF AND DUP2 MSTORE PUSH1 0x20 ADD SWAP1 DUP2 MSTORE PUSH1 0x20 ADD PUSH0 KECCAK256 PUSH1 0x5 ADD SLOAD PUSH2 0x4AD JUMP JUMPDEST PUSH1 0x5 PUSH0 ADDRESS PUSH20 0xFFFFFFFFFFFFFFFFFFFFFFFFFFFFFFFFFFFFFFFF AND PUSH20 0xFFFFFFFFFFFFFFFFFFFFFFFFFFFFFFFFFFFFFFFF AND DUP2 MSTORE PUSH1 0x20 ADD SWAP1 DUP2 MSTORE PUSH1 0x20 ADD PUSH0 KECCAK256 PUSH1 0x3 ADD PUSH0 PUSH1 0x2 DUP2 LT PUSH2 0x1315 JUMPI PUSH2 0x1314 PUSH2 0x2718 JUMP JUMPDEST JUMPDEST ADD PUSH0 PUSH1 0x5 PUSH0 ADDRESS PUSH20 0xFFFFFFFFFFFFFFFFFFFFFFFFFFFFFFFFFFFFFFFF AND PUSH20 0xFFFFFFFFFFFFFFFFFFFFFFFFFFFFFFFFFFFFFFFF AND DUP2 MSTORE PUSH1 0x20 ADD SWAP1 DUP2 MSTORE PUSH1 0x20 ADD PUSH0 KECCAK256 PUSH1 0x3 ADD PUSH1 0x1 PUSH1 0x2 DUP2 LT PUSH2 0x136A JUMPI PUSH2 0x1369 PUSH2 0x2718 JUMP JUMPDEST JUMPDEST ADD PUSH0 DUP5 SWAP2 SWAP1 POP SSTORE DUP4 SWAP2 SWAP1 POP SSTORE POP POP PUSH2 0x140A PUSH1 0x40 MLOAD DUP1 PUSH1 0x40 ADD PUSH1 0x40 MSTORE DUP1 PUSH1 0x9 DUP2 MSTORE PUSH1 0x20 ADD PUSH32 0x4E6F50726963653A200000000000000000000000000000000000000000000000 DUP2 MSTORE POP PUSH1 0x5 PUSH0 ADDRESS PUSH20 0xFFFFFFFFFFFFFFFFFFFFFFFFFFFFFFFFFFFFFFFF AND PUSH20 0xFFFFFFFFFFFFFFFFFFFFFFFFFFFFFFFFFFFFFFFF AND DUP2 MSTORE PUSH1 0x20 ADD SWAP1 DUP2 MSTORE PUSH1 0x20 ADD PUSH0 KECCAK256 PUSH1 0x3 ADD PUSH0 PUSH1 0x2 DUP2 LT PUSH2 0x1403 JUMPI PUSH2 0x1402 PUSH2 0x2718 JUMP JUMPDEST JUMPDEST ADD SLOAD PUSH2 0x20F6 JUMP JUMPDEST PUSH2 0x149D PUSH1 0x40 MLOAD DUP1 PUSH1 0x40 ADD PUSH1 0x40 MSTORE DUP1 PUSH1 0xA DUP2 MSTORE PUSH1 0x20 ADD PUSH32 0x59657350726963653A2000000000000000000000000000000000000000000000 DUP2 MSTORE POP PUSH1 0x5 PUSH0 ADDRESS PUSH20 0xFFFFFFFFFFFFFFFFFFFFFFFFFFFFFFFFFFFFFFFF AND PUSH20 0xFFFFFFFFFFFFFFFFFFFFFFFFFFFFFFFFFFFFFFFF AND DUP2 MSTORE PUSH1 0x20 ADD SWAP1 DUP2 MSTORE PUSH1 0x20 ADD PUSH0 KECCAK256 PUSH1 0x3 ADD PUSH1 0x1 PUSH1 0x2 DUP2 LT PUSH2 0x1496 JUMPI PUSH2 0x1495 PUSH2 0x2718 JUMP JUMPDEST JUMPDEST ADD SLOAD PUSH2 0x20F6 JUMP JUMPDEST PUSH0 PUSH1 0x1 PUSH0 SWAP1 SLOAD SWAP1 PUSH2 0x100 EXP SWAP1 DIV PUSH20 0xFFFFFFFFFFFFFFFFFFFFFFFFFFFFFFFFFFFFFFFF AND PUSH20 0xFFFFFFFFFFFFFFFFFFFFFFFFFFFFFFFFFFFFFFFF AND PUSH4 0x23B872DD CALLER ADDRESS DUP7 PUSH1 0x40 MLOAD DUP5 PUSH4 0xFFFFFFFF AND PUSH1 0xE0 SHL DUP2 MSTORE PUSH1 0x4 ADD PUSH2 0x14FC SWAP4 SWAP3 SWAP2 SWAP1 PUSH2 0x2CD0 JUMP JUMPDEST PUSH1 0x20 PUSH1 0x40 MLOAD DUP1 DUP4 SUB DUP2 PUSH0 DUP8 GAS CALL ISZERO DUP1 ISZERO PUSH2 0x1518 JUMPI RETURNDATASIZE PUSH0 DUP1 RETURNDATACOPY RETURNDATASIZE PUSH0 REVERT JUMPDEST POP POP POP POP PUSH1 0x40 MLOAD RETURNDATASIZE PUSH1 0x1F NOT PUSH1 0x1F DUP3 ADD AND DUP3 ADD DUP1 PUSH1 0x40 MSTORE POP DUP2 ADD SWAP1 PUSH2 0x153C SWAP2 SWAP1 PUSH2 0x2D2F JUMP JUMPDEST SWAP1 POP DUP1 PUSH2 0x157E JUMPI PUSH1 0x40 MLOAD PUSH32 0x8C379A000000000000000000000000000000000000000000000000000000000 DUP2 MSTORE PUSH1 0x4 ADD PUSH2 0x1575 SWAP1 PUSH2 0x2DA4 JUMP JUMPDEST PUSH1 0x40 MLOAD DUP1 SWAP2 SUB SWAP1 REVERT JUMPDEST DUP3 CALLER PUSH20 0xFFFFFFFFFFFFFFFFFFFFFFFFFFFFFFFFFFFFFFFF AND PUSH32 0xF41B7910E085D0992D604FD470931728FD77CC8EB504D99E50E51A0A30FCFD1A DUP5 PUSH1 0x40 MLOAD PUSH2 0x15C5 SWAP2 SWAP1 PUSH2 0x2670 JUMP JUMPDEST PUSH1 0x40 MLOAD DUP1 SWAP2 SUB SWAP1 LOG3 POP POP POP JUMP JUMPDEST PUSH2 0x15DA PUSH2 0x2192 JUMP JUMPDEST PUSH2 0x15E3 PUSH0 PUSH2 0x2219 JUMP JUMPDEST JUMP JUMPDEST PUSH0 DUP1 DUP4 GT PUSH2 0x1628 JUMPI PUSH1 0x40 MLOAD PUSH32 0x8C379A000000000000000000000000000000000000000000000000000000000 DUP2 MSTORE PUSH1 0x4 ADD PUSH2 0x161F SWAP1 PUSH2 0x2E0C JUMP JUMPDEST PUSH1 0x40 MLOAD DUP1 SWAP2 SUB SWAP1 REVERT JUMPDEST PUSH0 PUSH1 0x64 PUSH1 0x5 PUSH0 ADDRESS PUSH20 0xFFFFFFFFFFFFFFFFFFFFFFFFFFFFFFFFFFFFFFFF AND PUSH20 0xFFFFFFFFFFFFFFFFFFFFFFFFFFFFFFFFFFFFFFFF AND DUP2 MSTORE PUSH1 0x20 ADD SWAP1 DUP2 MSTORE PUSH1 0x20 ADD PUSH0 KECCAK256 PUSH1 0x3 ADD DUP5 PUSH1 0x2 DUP2 LT PUSH2 0x167D JUMPI PUSH2 0x167C PUSH2 0x2718 JUMP JUMPDEST JUMPDEST ADD SLOAD DUP6 PUSH2 0x168A SWAP2 SWAP1 PUSH2 0x27A5 JUMP JUMPDEST PUSH2 0x1694 SWAP2 SWAP1 PUSH2 0x2813 JUMP JUMPDEST SWAP1 POP DUP1 SWAP2 POP POP SWAP3 SWAP2 POP POP JUMP JUMPDEST PUSH0 DUP1 PUSH0 SWAP1 SLOAD SWAP1 PUSH2 0x100 EXP SWAP1 DIV PUSH20 0xFFFFFFFFFFFFFFFFFFFFFFFFFFFFFFFFFFFFFFFF AND SWAP1 POP SWAP1 JUMP JUMPDEST PUSH0 DUP1 PUSH1 0x5 PUSH0 ADDRESS PUSH20 0xFFFFFFFFFFFFFFFFFFFFFFFFFFFFFFFFFFFFFFFF AND PUSH20 0xFFFFFFFFFFFFFFFFFFFFFFFFFFFFFFFFFFFFFFFF AND DUP2 MSTORE PUSH1 0x20 ADD SWAP1 DUP2 MSTORE PUSH1 0x20 ADD PUSH0 KECCAK256 PUSH1 0x3 ADD DUP4 PUSH1 0x2 DUP2 LT PUSH2 0x171B JUMPI PUSH2 0x171A PUSH2 0x2718 JUMP JUMPDEST JUMPDEST ADD SLOAD SWAP1 POP PUSH0 DUP2 SUB PUSH2 0x1761 JUMPI PUSH1 0x40 MLOAD PUSH32 0x8C379A000000000000000000000000000000000000000000000000000000000 DUP2 MSTORE PUSH1 0x4 ADD PUSH2 0x1758 SWAP1 PUSH2 0x2E74 JUMP JUMPDEST PUSH1 0x40 MLOAD DUP1 SWAP2 SUB SWAP1 REVERT JUMPDEST PUSH0 DUP2 PUSH1 0x64 DUP7 PUSH2 0x1770 SWAP2 SWAP1 PUSH2 0x27A5 JUMP JUMPDEST PUSH2 0x177A SWAP2 SWAP1 PUSH2 0x2813 JUMP JUMPDEST SWAP1 POP DUP1 SWAP3 POP POP POP SWAP3 SWAP2 POP POP JUMP JUMPDEST PUSH1 0x2 SLOAD DUP2 JUMP JUMPDEST PUSH1 0x5 PUSH1 0x20 MSTORE DUP1 PUSH0 MSTORE PUSH1 0x40 PUSH0 KECCAK256 PUSH0 SWAP2 POP SWAP1 POP DUP1 PUSH0 ADD SLOAD SWAP1 DUP1 PUSH1 0x1 ADD SLOAD SWAP1 DUP1 PUSH1 0x2 ADD SLOAD SWAP1 DUP1 PUSH1 0x5 ADD SLOAD SWAP1 DUP1 PUSH1 0x6 ADD SLOAD SWAP1 POP DUP6 JUMP JUMPDEST PUSH2 0x17C7 PUSH2 0x2192 JUMP JUMPDEST PUSH0 PUSH20 0xFFFFFFFFFFFFFFFFFFFFFFFFFFFFFFFFFFFFFFFF AND DUP2 PUSH20 0xFFFFFFFFFFFFFFFFFFFFFFFFFFFFFFFFFFFFFFFF AND SUB PUSH2 0x1837 JUMPI PUSH0 PUSH1 0x40 MLOAD PUSH32 0x1E4FBDF700000000000000000000000000000000000000000000000000000000 DUP2 MSTORE PUSH1 0x4 ADD PUSH2 0x182E SWAP2 SWAP1 PUSH2 0x23D0 JUMP JUMPDEST PUSH1 0x40 MLOAD DUP1 SWAP2 SUB SWAP1 REVERT JUMPDEST PUSH2 0x1840 DUP2 PUSH2 0x2219 JUMP JUMPDEST POP JUMP JUMPDEST PUSH1 0x6 PUSH0 DUP3 PUSH20 0xFFFFFFFFFFFFFFFFFFFFFFFFFFFFFFFFFFFFFFFF AND PUSH20 0xFFFFFFFFFFFFFFFFFFFFFFFFFFFFFFFFFFFFFFFF AND DUP2 MSTORE PUSH1 0x20 ADD SWAP1 DUP2 MSTORE PUSH1 0x20 ADD PUSH0 KECCAK256 PUSH0 DUP4 DUP2 MSTORE PUSH1 0x20 ADD SWAP1 DUP2 MSTORE PUSH1 0x20 ADD PUSH0 KECCAK256 PUSH0 ADD PUSH0 SWAP1 SLOAD SWAP1 PUSH2 0x100 EXP SWAP1 DIV PUSH1 0xFF AND PUSH2 0x18DD JUMPI PUSH1 0x40 MLOAD PUSH32 0x8C379A000000000000000000000000000000000000000000000000000000000 DUP2 MSTORE PUSH1 0x4 ADD PUSH2 0x18D4 SWAP1 PUSH2 0x2EDC JUMP JUMPDEST PUSH1 0x40 MLOAD DUP1 SWAP2 SUB SWAP1 REVERT JUMPDEST PUSH1 0x6 PUSH0 DUP3 PUSH20 0xFFFFFFFFFFFFFFFFFFFFFFFFFFFFFFFFFFFFFFFF AND PUSH20 0xFFFFFFFFFFFFFFFFFFFFFFFFFFFFFFFFFFFFFFFF AND DUP2 MSTORE PUSH1 0x20 ADD SWAP1 DUP2 MSTORE PUSH1 0x20 ADD PUSH0 KECCAK256 PUSH0 DUP4 DUP2 MSTORE PUSH1 0x20 ADD SWAP1 DUP2 MSTORE PUSH1 0x20 ADD PUSH0 KECCAK256 PUSH0 ADD PUSH1 0x1 SWAP1 SLOAD SWAP1 PUSH2 0x100 EXP SWAP1 DIV PUSH1 0xFF AND ISZERO PUSH2 0x1979 JUMPI PUSH1 0x40 MLOAD PUSH32 0x8C379A000000000000000000000000000000000000000000000000000000000 DUP2 MSTORE PUSH1 0x4 ADD PUSH2 0x1970 SWAP1 PUSH2 0x2F44 JUMP JUMPDEST PUSH1 0x40 MLOAD DUP1 SWAP2 SUB SWAP1 REVERT JUMPDEST DUP1 PUSH20 0xFFFFFFFFFFFFFFFFFFFFFFFFFFFFFFFFFFFFFFFF AND PUSH1 0x6 PUSH0 DUP4 PUSH20 0xFFFFFFFFFFFFFFFFFFFFFFFFFFFFFFFFFFFFFFFF AND PUSH20 0xFFFFFFFFFFFFFFFFFFFFFFFFFFFFFFFFFFFFFFFF AND DUP2 MSTORE PUSH1 0x20 ADD SWAP1 DUP2 MSTORE PUSH1 0x20 ADD PUSH0 KECCAK256 PUSH0 DUP5 DUP2 MSTORE PUSH1 0x20 ADD SWAP1 DUP2 MSTORE PUSH1 0x20 ADD PUSH0 KECCAK256 PUSH0 ADD PUSH1 0x2 SWAP1 SLOAD SWAP1 PUSH2 0x100 EXP SWAP1 DIV PUSH20 0xFFFFFFFFFFFFFFFFFFFFFFFFFFFFFFFFFFFFFFFF AND PUSH20 0xFFFFFFFFFFFFFFFFFFFFFFFFFFFFFFFFFFFFFFFF AND EQ PUSH2 0x1A55 JUMPI PUSH1 0x40 MLOAD PUSH32 0x8C379A000000000000000000000000000000000000000000000000000000000 DUP2 MSTORE PUSH1 0x4 ADD PUSH2 0x1A4C SWAP1 PUSH2 0x2FAC JUMP JUMPDEST PUSH1 0x40 MLOAD DUP1 SWAP2 SUB SWAP1 REVERT JUMPDEST PUSH1 0x5 PUSH0 ADDRESS PUSH20 0xFFFFFFFFFFFFFFFFFFFFFFFFFFFFFFFFFFFFFFFF AND PUSH20 0xFFFFFFFFFFFFFFFFFFFFFFFFFFFFFFFFFFFFFFFF AND DUP2 MSTORE PUSH1 0x20 ADD SWAP1 DUP2 MSTORE PUSH1 0x20 ADD PUSH0 KECCAK256 PUSH0 ADD SLOAD TIMESTAMP LT PUSH2 0x1AD6 JUMPI PUSH1 0x40 MLOAD PUSH32 0x8C379A000000000000000000000000000000000000000000000000000000000 DUP2 MSTORE PUSH1 0x4 ADD PUSH2 0x1ACD SWAP1 PUSH2 0x2A3D JUMP JUMPDEST PUSH1 0x40 MLOAD DUP1 SWAP2 SUB SWAP1 REVERT JUMPDEST PUSH1 0x1 PUSH1 0x6 PUSH0 CALLER PUSH20 0xFFFFFFFFFFFFFFFFFFFFFFFFFFFFFFFFFFFFFFFF AND PUSH20 0xFFFFFFFFFFFFFFFFFFFFFFFFFFFFFFFFFFFFFFFF AND DUP2 MSTORE PUSH1 0x20 ADD SWAP1 DUP2 MSTORE PUSH1 0x20 ADD PUSH0 KECCAK256 PUSH0 DUP5 DUP2 MSTORE PUSH1 0x20 ADD SWAP1 DUP2 MSTORE PUSH1 0x20 ADD PUSH0 KECCAK256 PUSH0 ADD PUSH1 0x1 PUSH2 0x100 EXP DUP2 SLOAD DUP2 PUSH1 0xFF MUL NOT AND SWAP1 DUP4 ISZERO ISZERO MUL OR SWAP1 SSTORE POP CALLER PUSH1 0x6 PUSH0 CALLER PUSH20 0xFFFFFFFFFFFFFFFFFFFFFFFFFFFFFFFFFFFFFFFF AND PUSH20 0xFFFFFFFFFFFFFFFFFFFFFFFFFFFFFFFFFFFFFFFF AND DUP2 MSTORE PUSH1 0x20 ADD SWAP1 DUP2 MSTORE PUSH1 0x20 ADD PUSH0 KECCAK256 PUSH0 DUP5 DUP2 MSTORE PUSH1 0x20 ADD SWAP1 DUP2 MSTORE PUSH1 0x20 ADD PUSH0 KECCAK256 PUSH0 ADD PUSH1 0x2 PUSH2 0x100 EXP DUP2 SLOAD DUP2 PUSH20 0xFFFFFFFFFFFFFFFFFFFFFFFFFFFFFFFFFFFFFFFF MUL NOT AND SWAP1 DUP4 PUSH20 0xFFFFFFFFFFFFFFFFFFFFFFFFFFFFFFFFFFFFFFFF AND MUL OR SWAP1 SSTORE POP PUSH0 PUSH1 0x6 PUSH0 CALLER PUSH20 0xFFFFFFFFFFFFFFFFFFFFFFFFFFFFFFFFFFFFFFFF AND PUSH20 0xFFFFFFFFFFFFFFFFFFFFFFFFFFFFFFFFFFFFFFFF AND DUP2 MSTORE PUSH1 0x20 ADD SWAP1 DUP2 MSTORE PUSH1 0x20 ADD PUSH0 KECCAK256 PUSH0 DUP5 DUP2 MSTORE PUSH1 0x20 ADD SWAP1 DUP2 MSTORE PUSH1 0x20 ADD PUSH0 KECCAK256 PUSH1 0x3 ADD SLOAD SUB PUSH2 0x1D6F JUMPI PUSH1 0x6 PUSH0 CALLER PUSH20 0xFFFFFFFFFFFFFFFFFFFFFFFFFFFFFFFFFFFFFFFF AND PUSH20 0xFFFFFFFFFFFFFFFFFFFFFFFFFFFFFFFFFFFFFFFF AND DUP2 MSTORE PUSH1 0x20 ADD SWAP1 DUP2 MSTORE PUSH1 0x20 ADD PUSH0 KECCAK256 PUSH0 DUP4 DUP2 MSTORE PUSH1 0x20 ADD SWAP1 DUP2 MSTORE PUSH1 0x20 ADD PUSH0 KECCAK256 PUSH1 0x2 ADD SLOAD PUSH1 0x4 PUSH0 CALLER PUSH20 0xFFFFFFFFFFFFFFFFFFFFFFFFFFFFFFFFFFFFFFFF AND PUSH20 0xFFFFFFFFFFFFFFFFFFFFFFFFFFFFFFFFFFFFFFFF AND DUP2 MSTORE PUSH1 0x20 ADD SWAP1 DUP2 MSTORE PUSH1 0x20 ADD PUSH0 KECCAK256 PUSH1 0x1 ADD PUSH0 DUP3 DUP3 SLOAD PUSH2 0x1CBE SWAP2 SWAP1 PUSH2 0x2772 JUMP JUMPDEST SWAP3 POP POP DUP2 SWAP1 SSTORE POP PUSH1 0x6 PUSH0 CALLER PUSH20 0xFFFFFFFFFFFFFFFFFFFFFFFFFFFFFFFFFFFFFFFF AND PUSH20 0xFFFFFFFFFFFFFFFFFFFFFFFFFFFFFFFFFFFFFFFF AND DUP2 MSTORE PUSH1 0x20 ADD SWAP1 DUP2 MSTORE PUSH1 0x20 ADD PUSH0 KECCAK256 PUSH0 DUP4 DUP2 MSTORE PUSH1 0x20 ADD SWAP1 DUP2 MSTORE PUSH1 0x20 ADD PUSH0 KECCAK256 PUSH1 0x2 ADD SLOAD PUSH1 0x4 PUSH0 DUP4 PUSH20 0xFFFFFFFFFFFFFFFFFFFFFFFFFFFFFFFFFFFFFFFF AND PUSH20 0xFFFFFFFFFFFFFFFFFFFFFFFFFFFFFFFFFFFFFFFF AND DUP2 MSTORE PUSH1 0x20 ADD SWAP1 DUP2 MSTORE PUSH1 0x20 ADD PUSH0 KECCAK256 PUSH1 0x1 ADD PUSH0 DUP3 DUP3 SLOAD PUSH2 0x1D63 SWAP2 SWAP1 PUSH2 0x2FCA JUMP JUMPDEST SWAP3 POP POP DUP2 SWAP1 SSTORE POP PUSH2 0x1EBA JUMP JUMPDEST PUSH1 0x6 PUSH0 CALLER PUSH20 0xFFFFFFFFFFFFFFFFFFFFFFFFFFFFFFFFFFFFFFFF AND PUSH20 0xFFFFFFFFFFFFFFFFFFFFFFFFFFFFFFFFFFFFFFFF AND DUP2 MSTORE PUSH1 0x20 ADD SWAP1 DUP2 MSTORE PUSH1 0x20 ADD PUSH0 KECCAK256 PUSH0 DUP4 DUP2 MSTORE PUSH1 0x20 ADD SWAP1 DUP2 MSTORE PUSH1 0x20 ADD PUSH0 KECCAK256 PUSH1 0x2 ADD SLOAD PUSH1 0x4 PUSH0 CALLER PUSH20 0xFFFFFFFFFFFFFFFFFFFFFFFFFFFFFFFFFFFFFFFF AND PUSH20 0xFFFFFFFFFFFFFFFFFFFFFFFFFFFFFFFFFFFFFFFF AND DUP2 MSTORE PUSH1 0x20 ADD SWAP1 DUP2 MSTORE PUSH1 0x20 ADD PUSH0 KECCAK256 PUSH1 0x3 ADD PUSH0 DUP3 DUP3 SLOAD PUSH2 0x1E0D SWAP2 SWAP1 PUSH2 0x2772 JUMP JUMPDEST SWAP3 POP POP DUP2 SWAP1 SSTORE POP PUSH1 0x6 PUSH0 CALLER PUSH20 0xFFFFFFFFFFFFFFFFFFFFFFFFFFFFFFFFFFFFFFFF AND PUSH20 0xFFFFFFFFFFFFFFFFFFFFFFFFFFFFFFFFFFFFFFFF AND DUP2 MSTORE PUSH1 0x20 ADD SWAP1 DUP2 MSTORE PUSH1 0x20 ADD PUSH0 KECCAK256 PUSH0 DUP4 DUP2 MSTORE PUSH1 0x20 ADD SWAP1 DUP2 MSTORE PUSH1 0x20 ADD PUSH0 KECCAK256 PUSH1 0x2 ADD SLOAD PUSH1 0x4 PUSH0 DUP4 PUSH20 0xFFFFFFFFFFFFFFFFFFFFFFFFFFFFFFFFFFFFFFFF AND PUSH20 0xFFFFFFFFFFFFFFFFFFFFFFFFFFFFFFFFFFFFFFFF AND DUP2 MSTORE PUSH1 0x20 ADD SWAP1 DUP2 MSTORE PUSH1 0x20 ADD PUSH0 KECCAK256 PUSH1 0x3 ADD PUSH0 DUP3 DUP3 SLOAD PUSH2 0x1EB2 SWAP2 SWAP1 PUSH2 0x2FCA JUMP JUMPDEST SWAP3 POP POP DUP2 SWAP1 SSTORE POP JUMPDEST PUSH1 0x1 PUSH1 0x4 PUSH0 CALLER PUSH20 0xFFFFFFFFFFFFFFFFFFFFFFFFFFFFFFFFFFFFFFFF AND PUSH20 0xFFFFFFFFFFFFFFFFFFFFFFFFFFFFFFFFFFFFFFFF AND DUP2 MSTORE PUSH1 0x20 ADD SWAP1 DUP2 MSTORE PUSH1 0x20 ADD PUSH0 KECCAK256 PUSH1 0x4 ADD PUSH0 PUSH1 0x6 PUSH0 CALLER PUSH20 0xFFFFFFFFFFFFFFFFFFFFFFFFFFFFFFFFFFFFFFFF AND PUSH20 0xFFFFFFFFFFFFFFFFFFFFFFFFFFFFFFFFFFFFFFFF AND DUP2 MSTORE PUSH1 0x20 ADD SWAP1 DUP2 MSTORE PUSH1 0x20 ADD PUSH0 KECCAK256 PUSH0 DUP7 DUP2 MSTORE PUSH1 0x20 ADD SWAP1 DUP2 MSTORE PUSH1 0x20 ADD PUSH0 KECCAK256 PUSH1 0x3 ADD SLOAD DUP2 MSTORE PUSH1 0x20 ADD SWAP1 DUP2 MSTORE PUSH1 0x20 ADD PUSH0 KECCAK256 PUSH0 PUSH2 0x100 EXP DUP2 SLOAD DUP2 PUSH1 0xFF MUL NOT AND SWAP1 DUP4 ISZERO ISZERO MUL OR SWAP1 SSTORE POP CALLER PUSH1 0x3 PUSH0 PUSH1 0x2 SLOAD DUP2 MSTORE PUSH1 0x20 ADD SWAP1 DUP2 MSTORE PUSH1 0x20 ADD PUSH0 KECCAK256 PUSH0 PUSH2 0x100 EXP DUP2 SLOAD DUP2 PUSH20 0xFFFFFFFFFFFFFFFFFFFFFFFFFFFFFFFFFFFFFFFF MUL NOT AND SWAP1 DUP4 PUSH20 0xFFFFFFFFFFFFFFFFFFFFFFFFFFFFFFFFFFFFFFFF AND MUL OR SWAP1 SSTORE POP PUSH0 PUSH1 0x1 PUSH0 SWAP1 SLOAD SWAP1 PUSH2 0x100 EXP SWAP1 DIV PUSH20 0xFFFFFFFFFFFFFFFFFFFFFFFFFFFFFFFFFFFFFFFF AND PUSH20 0xFFFFFFFFFFFFFFFFFFFFFFFFFFFFFFFFFFFFFFFF AND PUSH4 0x23B872DD CALLER DUP5 PUSH1 0x6 PUSH0 CALLER PUSH20 0xFFFFFFFFFFFFFFFFFFFFFFFFFFFFFFFFFFFFFFFF AND PUSH20 0xFFFFFFFFFFFFFFFFFFFFFFFFFFFFFFFFFFFFFFFF AND DUP2 MSTORE PUSH1 0x20 ADD SWAP1 DUP2 MSTORE PUSH1 0x20 ADD PUSH0 KECCAK256 PUSH0 DUP9 DUP2 MSTORE PUSH1 0x20 ADD SWAP1 DUP2 MSTORE PUSH1 0x20 ADD PUSH0 KECCAK256 PUSH1 0x1 ADD SLOAD PUSH1 0x40 MLOAD DUP5 PUSH4 0xFFFFFFFF AND PUSH1 0xE0 SHL DUP2 MSTORE PUSH1 0x4 ADD PUSH2 0x206F SWAP4 SWAP3 SWAP2 SWAP1 PUSH2 0x2CD0 JUMP JUMPDEST PUSH1 0x20 PUSH1 0x40 MLOAD DUP1 DUP4 SUB DUP2 PUSH0 DUP8 GAS CALL ISZERO DUP1 ISZERO PUSH2 0x208B JUMPI RETURNDATASIZE PUSH0 DUP1 RETURNDATACOPY RETURNDATASIZE PUSH0 REVERT JUMPDEST POP POP POP POP PUSH1 0x40 MLOAD RETURNDATASIZE PUSH1 0x1F NOT PUSH1 0x1F DUP3 ADD AND DUP3 ADD DUP1 PUSH1 0x40 MSTORE POP DUP2 ADD SWAP1 PUSH2 0x20AF SWAP2 SWAP1 PUSH2 0x2D2F JUMP JUMPDEST SWAP1 POP DUP1 PUSH2 0x20F1 JUMPI PUSH1 0x40 MLOAD PUSH32 0x8C379A000000000000000000000000000000000000000000000000000000000 DUP2 MSTORE PUSH1 0x4 ADD PUSH2 0x20E8 SWAP1 PUSH2 0x2DA4 JUMP JUMPDEST PUSH1 0x40 MLOAD DUP1 SWAP2 SUB SWAP1 REVERT JUMPDEST POP POP POP JUMP JUMPDEST PUSH2 0x218E DUP3 DUP3 PUSH1 0x40 MLOAD PUSH1 0x24 ADD PUSH2 0x210C SWAP3 SWAP2 SWAP1 PUSH2 0x305D JUMP JUMPDEST PUSH1 0x40 MLOAD PUSH1 0x20 DUP2 DUP4 SUB SUB DUP2 MSTORE SWAP1 PUSH1 0x40 MSTORE PUSH32 0xB60E72CC00000000000000000000000000000000000000000000000000000000 PUSH28 0xFFFFFFFFFFFFFFFFFFFFFFFFFFFFFFFFFFFFFFFFFFFFFFFFFFFFFFFF NOT AND PUSH1 0x20 DUP3 ADD DUP1 MLOAD PUSH28 0xFFFFFFFFFFFFFFFFFFFFFFFFFFFFFFFFFFFFFFFFFFFFFFFFFFFFFFFF DUP4 DUP2 DUP4 AND OR DUP4 MSTORE POP POP POP POP PUSH2 0x22DA JUMP JUMPDEST POP POP JUMP JUMPDEST PUSH2 0x219A PUSH2 0x22F4 JUMP JUMPDEST PUSH20 0xFFFFFFFFFFFFFFFFFFFFFFFFFFFFFFFFFFFFFFFF AND PUSH2 0x21B8 PUSH2 0x16A0 JUMP JUMPDEST PUSH20 0xFFFFFFFFFFFFFFFFFFFFFFFFFFFFFFFFFFFFFFFF AND EQ PUSH2 0x2217 JUMPI PUSH2 0x21DB PUSH2 0x22F4 JUMP JUMPDEST PUSH1 0x40 MLOAD PUSH32 0x118CDAA700000000000000000000000000000000000000000000000000000000 DUP2 MSTORE PUSH1 0x4 ADD PUSH2 0x220E SWAP2 SWAP1 PUSH2 0x23D0 JUMP JUMPDEST PUSH1 0x40 MLOAD DUP1 SWAP2 SUB SWAP1 REVERT JUMPDEST JUMP JUMPDEST PUSH0 DUP1 PUSH0 SWAP1 SLOAD SWAP1 PUSH2 0x100 EXP SWAP1 DIV PUSH20 0xFFFFFFFFFFFFFFFFFFFFFFFFFFFFFFFFFFFFFFFF AND SWAP1 POP DUP2 PUSH0 DUP1 PUSH2 0x100 EXP DUP2 SLOAD DUP2 PUSH20 0xFFFFFFFFFFFFFFFFFFFFFFFFFFFFFFFFFFFFFFFF MUL NOT AND SWAP1 DUP4 PUSH20 0xFFFFFFFFFFFFFFFFFFFFFFFFFFFFFFFFFFFFFFFF AND MUL OR SWAP1 SSTORE POP DUP2 PUSH20 0xFFFFFFFFFFFFFFFFFFFFFFFFFFFFFFFFFFFFFFFF AND DUP2 PUSH20 0xFFFFFFFFFFFFFFFFFFFFFFFFFFFFFFFFFFFFFFFF AND PUSH32 0x8BE0079C531659141344CD1FD0A4F28419497F9722A3DAAFE3B4186F6B6457E0 PUSH1 0x40 MLOAD PUSH1 0x40 MLOAD DUP1 SWAP2 SUB SWAP1 LOG3 POP POP JUMP JUMPDEST PUSH2 0x22F1 DUP2 PUSH2 0x22E9 PUSH2 0x22FB PUSH2 0x231A JUMP JUMPDEST PUSH4 0xFFFFFFFF AND JUMP JUMPDEST POP JUMP JUMPDEST PUSH0 CALLER SWAP1 POP SWAP1 JUMP JUMPDEST PUSH0 PUSH11 0x636F6E736F6C652E6C6F67 SWAP1 POP PUSH0 DUP1 DUP4 MLOAD PUSH1 0x20 DUP6 ADD DUP5 GAS STATICCALL POP POP POP JUMP JUMPDEST PUSH2 0x2325 DUP2 SWAP1 POP SWAP2 SWAP1 POP JUMP JUMPDEST PUSH2 0x232D PUSH2 0x308B JUMP JUMPDEST JUMP JUMPDEST PUSH0 DUP1 REVERT JUMPDEST PUSH0 DUP2 SWAP1 POP SWAP2 SWAP1 POP JUMP JUMPDEST PUSH2 0x2345 DUP2 PUSH2 0x2333 JUMP JUMPDEST DUP2 EQ PUSH2 0x234F JUMPI PUSH0 DUP1 REVERT JUMPDEST POP JUMP JUMPDEST PUSH0 DUP2 CALLDATALOAD SWAP1 POP PUSH2 0x2360 DUP2 PUSH2 0x233C JUMP JUMPDEST SWAP3 SWAP2 POP POP JUMP JUMPDEST PUSH0 PUSH1 0x20 DUP3 DUP5 SUB SLT ISZERO PUSH2 0x237B JUMPI PUSH2 0x237A PUSH2 0x232F JUMP JUMPDEST JUMPDEST PUSH0 PUSH2 0x2388 DUP5 DUP3 DUP6 ADD PUSH2 0x2352 JUMP JUMPDEST SWAP2 POP POP SWAP3 SWAP2 POP POP JUMP JUMPDEST PUSH0 PUSH20 0xFFFFFFFFFFFFFFFFFFFFFFFFFFFFFFFFFFFFFFFF DUP3 AND SWAP1 POP SWAP2 SWAP1 POP JUMP JUMPDEST PUSH0 PUSH2 0x23BA DUP3 PUSH2 0x2391 JUMP JUMPDEST SWAP1 POP SWAP2 SWAP1 POP JUMP JUMPDEST PUSH2 0x23CA DUP2 PUSH2 0x23B0 JUMP JUMPDEST DUP3 MSTORE POP POP JUMP JUMPDEST PUSH0 PUSH1 0x20 DUP3 ADD SWAP1 POP PUSH2 0x23E3 PUSH0 DUP4 ADD DUP5 PUSH2 0x23C1 JUMP JUMPDEST SWAP3 SWAP2 POP POP JUMP JUMPDEST PUSH0 DUP2 SWAP1 POP SWAP2 SWAP1 POP JUMP JUMPDEST PUSH0 PUSH2 0x240C PUSH2 0x2407 PUSH2 0x2402 DUP5 PUSH2 0x2391 JUMP JUMPDEST PUSH2 0x23E9 JUMP JUMPDEST PUSH2 0x2391 JUMP JUMPDEST SWAP1 POP SWAP2 SWAP1 POP JUMP JUMPDEST PUSH0 PUSH2 0x241D DUP3 PUSH2 0x23F2 JUMP JUMPDEST SWAP1 POP SWAP2 SWAP1 POP JUMP JUMPDEST PUSH0 PUSH2 0x242E DUP3 PUSH2 0x2413 JUMP JUMPDEST SWAP1 POP SWAP2 SWAP1 POP JUMP JUMPDEST PUSH2 0x243E DUP2 PUSH2 0x2424 JUMP JUMPDEST DUP3 MSTORE POP POP JUMP JUMPDEST PUSH0 PUSH1 0x20 DUP3 ADD SWAP1 POP PUSH2 0x2457 PUSH0 DUP4 ADD DUP5 PUSH2 0x2435 JUMP JUMPDEST SWAP3 SWAP2 POP POP JUMP JUMPDEST PUSH2 0x2466 DUP2 PUSH2 0x23B0 JUMP JUMPDEST DUP2 EQ PUSH2 0x2470 JUMPI PUSH0 DUP1 REVERT JUMPDEST POP JUMP JUMPDEST PUSH0 DUP2 CALLDATALOAD SWAP1 POP PUSH2 0x2481 DUP2 PUSH2 0x245D JUMP JUMPDEST SWAP3 SWAP2 POP POP JUMP JUMPDEST PUSH0 PUSH1 0x20 DUP3 DUP5 SUB SLT ISZERO PUSH2 0x249C JUMPI PUSH2 0x249B PUSH2 0x232F JUMP JUMPDEST JUMPDEST PUSH0 PUSH2 0x24A9 DUP5 DUP3 DUP6 ADD PUSH2 0x2473 JUMP JUMPDEST SWAP2 POP POP SWAP3 SWAP2 POP POP JUMP JUMPDEST PUSH2 0x24BB DUP2 PUSH2 0x2333 JUMP JUMPDEST DUP3 MSTORE POP POP JUMP JUMPDEST PUSH0 PUSH1 0x80 DUP3 ADD SWAP1 POP PUSH2 0x24D4 PUSH0 DUP4 ADD DUP8 PUSH2 0x24B2 JUMP JUMPDEST PUSH2 0x24E1 PUSH1 0x20 DUP4 ADD DUP7 PUSH2 0x24B2 JUMP JUMPDEST PUSH2 0x24EE PUSH1 0x40 DUP4 ADD DUP6 PUSH2 0x24B2 JUMP JUMPDEST PUSH2 0x24FB PUSH1 0x60 DUP4 ADD DUP5 PUSH2 0x24B2 JUMP JUMPDEST SWAP6 SWAP5 POP POP POP POP POP JUMP JUMPDEST PUSH0 PUSH1 0x40 DUP3 ADD SWAP1 POP PUSH2 0x2517 PUSH0 DUP4 ADD DUP6 PUSH2 0x24B2 JUMP JUMPDEST PUSH2 0x2524 PUSH1 0x20 DUP4 ADD DUP5 PUSH2 0x24B2 JUMP JUMPDEST SWAP4 SWAP3 POP POP POP JUMP JUMPDEST PUSH0 DUP1 PUSH1 0x40 DUP4 DUP6 SUB SLT ISZERO PUSH2 0x2541 JUMPI PUSH2 0x2540 PUSH2 0x232F JUMP JUMPDEST JUMPDEST PUSH0 PUSH2 0x254E DUP6 DUP3 DUP7 ADD PUSH2 0x2352 JUMP JUMPDEST SWAP3 POP POP PUSH1 0x20 PUSH2 0x255F DUP6 DUP3 DUP7 ADD PUSH2 0x2352 JUMP JUMPDEST SWAP2 POP POP SWAP3 POP SWAP3 SWAP1 POP JUMP JUMPDEST PUSH0 DUP1 PUSH0 PUSH1 0x60 DUP5 DUP7 SUB SLT ISZERO PUSH2 0x2580 JUMPI PUSH2 0x257F PUSH2 0x232F JUMP JUMPDEST JUMPDEST PUSH0 PUSH2 0x258D DUP7 DUP3 DUP8 ADD PUSH2 0x2352 JUMP JUMPDEST SWAP4 POP POP PUSH1 0x20 PUSH2 0x259E DUP7 DUP3 DUP8 ADD PUSH2 0x2352 JUMP JUMPDEST SWAP3 POP POP PUSH1 0x40 PUSH2 0x25AF DUP7 DUP3 DUP8 ADD PUSH2 0x2352 JUMP JUMPDEST SWAP2 POP POP SWAP3 POP SWAP3 POP SWAP3 JUMP JUMPDEST PUSH0 DUP1 PUSH1 0x40 DUP4 DUP6 SUB SLT ISZERO PUSH2 0x25CF JUMPI PUSH2 0x25CE PUSH2 0x232F JUMP JUMPDEST JUMPDEST PUSH0 PUSH2 0x25DC DUP6 DUP3 DUP7 ADD PUSH2 0x2473 JUMP JUMPDEST SWAP3 POP POP PUSH1 0x20 PUSH2 0x25ED DUP6 DUP3 DUP7 ADD PUSH2 0x2352 JUMP JUMPDEST SWAP2 POP POP SWAP3 POP SWAP3 SWAP1 POP JUMP JUMPDEST PUSH0 DUP2 ISZERO ISZERO SWAP1 POP SWAP2 SWAP1 POP JUMP JUMPDEST PUSH2 0x260B DUP2 PUSH2 0x25F7 JUMP JUMPDEST DUP3 MSTORE POP POP JUMP JUMPDEST PUSH0 PUSH1 0xC0 DUP3 ADD SWAP1 POP PUSH2 0x2624 PUSH0 DUP4 ADD DUP10 PUSH2 0x2602 JUMP JUMPDEST PUSH2 0x2631 PUSH1 0x20 DUP4 ADD DUP9 PUSH2 0x2602 JUMP JUMPDEST PUSH2 0x263E PUSH1 0x40 DUP4 ADD DUP8 PUSH2 0x23C1 JUMP JUMPDEST PUSH2 0x264B PUSH1 0x60 DUP4 ADD DUP7 PUSH2 0x24B2 JUMP JUMPDEST PUSH2 0x2658 PUSH1 0x80 DUP4 ADD DUP6 PUSH2 0x24B2 JUMP JUMPDEST PUSH2 0x2665 PUSH1 0xA0 DUP4 ADD DUP5 PUSH2 0x24B2 JUMP JUMPDEST SWAP8 SWAP7 POP POP POP POP POP POP POP JUMP JUMPDEST PUSH0 PUSH1 0x20 DUP3 ADD SWAP1 POP PUSH2 0x2683 PUSH0 DUP4 ADD DUP5 PUSH2 0x24B2 JUMP JUMPDEST SWAP3 SWAP2 POP POP JUMP JUMPDEST PUSH0 PUSH1 0xA0 DUP3 ADD SWAP1 POP PUSH2 0x269C PUSH0 DUP4 ADD DUP9 PUSH2 0x24B2 JUMP JUMPDEST PUSH2 0x26A9 PUSH1 0x20 DUP4 ADD DUP8 PUSH2 0x24B2 JUMP JUMPDEST PUSH2 0x26B6 PUSH1 0x40 DUP4 ADD DUP7 PUSH2 0x24B2 JUMP JUMPDEST PUSH2 0x26C3 PUSH1 0x60 DUP4 ADD DUP6 PUSH2 0x24B2 JUMP JUMPDEST PUSH2 0x26D0 PUSH1 0x80 DUP4 ADD DUP5 PUSH2 0x24B2 JUMP JUMPDEST SWAP7 SWAP6 POP POP POP POP POP POP JUMP JUMPDEST PUSH0 DUP1 PUSH1 0x40 DUP4 DUP6 SUB SLT ISZERO PUSH2 0x26F0 JUMPI PUSH2 0x26EF PUSH2 0x232F JUMP JUMPDEST JUMPDEST PUSH0 PUSH2 0x26FD DUP6 DUP3 DUP7 ADD PUSH2 0x2352 JUMP JUMPDEST SWAP3 POP POP PUSH1 0x20 PUSH2 0x270E DUP6 DUP3 DUP7 ADD PUSH2 0x2473 JUMP JUMPDEST SWAP2 POP POP SWAP3 POP SWAP3 SWAP1 POP JUMP JUMPDEST PUSH32 0x4E487B7100000000000000000000000000000000000000000000000000000000 PUSH0 MSTORE PUSH1 0x32 PUSH1 0x4 MSTORE PUSH1 0x24 PUSH0 REVERT JUMPDEST PUSH32 0x4E487B7100000000000000000000000000000000000000000000000000000000 PUSH0 MSTORE PUSH1 0x11 PUSH1 0x4 MSTORE PUSH1 0x24 PUSH0 REVERT JUMPDEST PUSH0 PUSH2 0x277C DUP3 PUSH2 0x2333 JUMP JUMPDEST SWAP2 POP PUSH2 0x2787 DUP4 PUSH2 0x2333 JUMP JUMPDEST SWAP3 POP DUP3 DUP3 ADD SWAP1 POP DUP1 DUP3 GT ISZERO PUSH2 0x279F JUMPI PUSH2 0x279E PUSH2 0x2745 JUMP JUMPDEST JUMPDEST SWAP3 SWAP2 POP POP JUMP JUMPDEST PUSH0 PUSH2 0x27AF DUP3 PUSH2 0x2333 JUMP JUMPDEST SWAP2 POP PUSH2 0x27BA DUP4 PUSH2 0x2333 JUMP JUMPDEST SWAP3 POP DUP3 DUP3 MUL PUSH2 0x27C8 DUP2 PUSH2 0x2333 JUMP JUMPDEST SWAP2 POP DUP3 DUP3 DIV DUP5 EQ DUP4 ISZERO OR PUSH2 0x27DF JUMPI PUSH2 0x27DE PUSH2 0x2745 JUMP JUMPDEST JUMPDEST POP SWAP3 SWAP2 POP POP JUMP JUMPDEST PUSH32 0x4E487B7100000000000000000000000000000000000000000000000000000000 PUSH0 MSTORE PUSH1 0x12 PUSH1 0x4 MSTORE PUSH1 0x24 PUSH0 REVERT JUMPDEST PUSH0 PUSH2 0x281D DUP3 PUSH2 0x2333 JUMP JUMPDEST SWAP2 POP PUSH2 0x2828 DUP4 PUSH2 0x2333 JUMP JUMPDEST SWAP3 POP DUP3 PUSH2 0x2838 JUMPI PUSH2 0x2837 PUSH2 0x27E6 JUMP JUMPDEST JUMPDEST DUP3 DUP3 DIV SWAP1 POP SWAP3 SWAP2 POP POP JUMP JUMPDEST PUSH0 DUP3 DUP3 MSTORE PUSH1 0x20 DUP3 ADD SWAP1 POP SWAP3 SWAP2 POP POP JUMP JUMPDEST PUSH32 0x77726F6E6720757365722E000000000000000000000000000000000000000000 PUSH0 DUP3 ADD MSTORE POP JUMP JUMPDEST PUSH0 PUSH2 0x2887 PUSH1 0xB DUP4 PUSH2 0x2843 JUMP JUMPDEST SWAP2 POP PUSH2 0x2892 DUP3 PUSH2 0x2853 JUMP JUMPDEST PUSH1 0x20 DUP3 ADD SWAP1 POP SWAP2 SWAP1 POP JUMP JUMPDEST PUSH0 PUSH1 0x20 DUP3 ADD SWAP1 POP DUP2 DUP2 SUB PUSH0 DUP4 ADD MSTORE PUSH2 0x28B4 DUP2 PUSH2 0x287B JUMP JUMPDEST SWAP1 POP SWAP2 SWAP1 POP JUMP JUMPDEST PUSH32 0x7072696365206D7573742062652067726561746572207468616E203000000000 PUSH0 DUP3 ADD MSTORE POP JUMP JUMPDEST PUSH0 PUSH2 0x28EF PUSH1 0x1C DUP4 PUSH2 0x2843 JUMP JUMPDEST SWAP2 POP PUSH2 0x28FA DUP3 PUSH2 0x28BB JUMP JUMPDEST PUSH1 0x20 DUP3 ADD SWAP1 POP SWAP2 SWAP1 POP JUMP JUMPDEST PUSH0 PUSH1 0x20 DUP3 ADD SWAP1 POP DUP2 DUP2 SUB PUSH0 DUP4 ADD MSTORE PUSH2 0x291C DUP2 PUSH2 0x28E3 JUMP JUMPDEST SWAP1 POP SWAP2 SWAP1 POP JUMP JUMPDEST PUSH32 0x616D6F756E74206D7573742062652067726561746572207468616E2030000000 PUSH0 DUP3 ADD MSTORE POP JUMP JUMPDEST PUSH0 PUSH2 0x2957 PUSH1 0x1D DUP4 PUSH2 0x2843 JUMP JUMPDEST SWAP2 POP PUSH2 0x2962 DUP3 PUSH2 0x2923 JUMP JUMPDEST PUSH1 0x20 DUP3 ADD SWAP1 POP SWAP2 SWAP1 POP JUMP JUMPDEST PUSH0 PUSH1 0x20 DUP3 ADD SWAP1 POP DUP2 DUP2 SUB PUSH0 DUP4 ADD MSTORE PUSH2 0x2984 DUP2 PUSH2 0x294B JUMP JUMPDEST SWAP1 POP SWAP2 SWAP1 POP JUMP JUMPDEST PUSH32 0x796F7520656974686572206C69737420796573206F72206E6F2E000000000000 PUSH0 DUP3 ADD MSTORE POP JUMP JUMPDEST PUSH0 PUSH2 0x29BF PUSH1 0x1A DUP4 PUSH2 0x2843 JUMP JUMPDEST SWAP2 POP PUSH2 0x29CA DUP3 PUSH2 0x298B JUMP JUMPDEST PUSH1 0x20 DUP3 ADD SWAP1 POP SWAP2 SWAP1 POP JUMP JUMPDEST PUSH0 PUSH1 0x20 DUP3 ADD SWAP1 POP DUP2 DUP2 SUB PUSH0 DUP4 ADD MSTORE PUSH2 0x29EC DUP2 PUSH2 0x29B3 JUMP JUMPDEST SWAP1 POP SWAP2 SWAP1 POP JUMP JUMPDEST PUSH32 0x4D61726B65742068617320656E64656400000000000000000000000000000000 PUSH0 DUP3 ADD MSTORE POP JUMP JUMPDEST PUSH0 PUSH2 0x2A27 PUSH1 0x10 DUP4 PUSH2 0x2843 JUMP JUMPDEST SWAP2 POP PUSH2 0x2A32 DUP3 PUSH2 0x29F3 JUMP JUMPDEST PUSH1 0x20 DUP3 ADD SWAP1 POP SWAP2 SWAP1 POP JUMP JUMPDEST PUSH0 PUSH1 0x20 DUP3 ADD SWAP1 POP DUP2 DUP2 SUB PUSH0 DUP4 ADD MSTORE PUSH2 0x2A54 DUP2 PUSH2 0x2A1B JUMP JUMPDEST SWAP1 POP SWAP2 SWAP1 POP JUMP JUMPDEST PUSH0 PUSH2 0x2A65 DUP3 PUSH2 0x2333 JUMP JUMPDEST SWAP2 POP PUSH32 0xFFFFFFFFFFFFFFFFFFFFFFFFFFFFFFFFFFFFFFFFFFFFFFFFFFFFFFFFFFFFFFFF DUP3 SUB PUSH2 0x2A97 JUMPI PUSH2 0x2A96 PUSH2 0x2745 JUMP JUMPDEST JUMPDEST PUSH1 0x1 DUP3 ADD SWAP1 POP SWAP2 SWAP1 POP JUMP JUMPDEST PUSH32 0x206569746865722062657420796573206F72206E6F2E00000000000000000000 PUSH0 DUP3 ADD MSTORE POP JUMP JUMPDEST PUSH0 PUSH2 0x2AD6 PUSH1 0x16 DUP4 PUSH2 0x2843 JUMP JUMPDEST SWAP2 POP PUSH2 0x2AE1 DUP3 PUSH2 0x2AA2 JUMP JUMPDEST PUSH1 0x20 DUP3 ADD SWAP1 POP SWAP2 SWAP1 POP JUMP JUMPDEST PUSH0 PUSH1 0x20 DUP3 ADD SWAP1 POP DUP2 DUP2 SUB PUSH0 DUP4 ADD MSTORE PUSH2 0x2B03 DUP2 PUSH2 0x2ACA JUMP JUMPDEST SWAP1 POP SWAP2 SWAP1 POP JUMP JUMPDEST PUSH32 0x4D61726B657420686173206E6F7420656E646564000000000000000000000000 PUSH0 DUP3 ADD MSTORE POP JUMP JUMPDEST PUSH0 PUSH2 0x2B3E PUSH1 0x14 DUP4 PUSH2 0x2843 JUMP JUMPDEST SWAP2 POP PUSH2 0x2B49 DUP3 PUSH2 0x2B0A JUMP JUMPDEST PUSH1 0x20 DUP3 ADD SWAP1 POP SWAP2 SWAP1 POP JUMP JUMPDEST PUSH0 PUSH1 0x20 DUP3 ADD SWAP1 POP DUP2 DUP2 SUB PUSH0 DUP4 ADD MSTORE PUSH2 0x2B6B DUP2 PUSH2 0x2B32 JUMP JUMPDEST SWAP1 POP SWAP2 SWAP1 POP JUMP JUMPDEST PUSH32 0x796F75206569746865722062657420796573206F72206E6F2E00000000000000 PUSH0 DUP3 ADD MSTORE POP JUMP JUMPDEST PUSH0 PUSH2 0x2BA6 PUSH1 0x19 DUP4 PUSH2 0x2843 JUMP JUMPDEST SWAP2 POP PUSH2 0x2BB1 DUP3 PUSH2 0x2B72 JUMP JUMPDEST PUSH1 0x20 DUP3 ADD SWAP1 POP SWAP2 SWAP1 POP JUMP JUMPDEST PUSH0 PUSH1 0x20 DUP3 ADD SWAP1 POP DUP2 DUP2 SUB PUSH0 DUP4 ADD MSTORE PUSH2 0x2BD3 DUP2 PUSH2 0x2B9A JUMP JUMPDEST SWAP1 POP SWAP2 SWAP1 POP JUMP JUMPDEST PUSH32 0x42657420616D6F756E74206D7573742062652067726561746572207468616E20 PUSH0 DUP3 ADD MSTORE PUSH32 0x3000000000000000000000000000000000000000000000000000000000000000 PUSH1 0x20 DUP3 ADD MSTORE POP JUMP JUMPDEST PUSH0 PUSH2 0x2C34 PUSH1 0x21 DUP4 PUSH2 0x2843 JUMP JUMPDEST SWAP2 POP PUSH2 0x2C3F DUP3 PUSH2 0x2BDA JUMP JUMPDEST PUSH1 0x40 DUP3 ADD SWAP1 POP SWAP2 SWAP1 POP JUMP JUMPDEST PUSH0 PUSH1 0x20 DUP3 ADD SWAP1 POP DUP2 DUP2 SUB PUSH0 DUP4 ADD MSTORE PUSH2 0x2C61 DUP2 PUSH2 0x2C28 JUMP JUMPDEST SWAP1 POP SWAP2 SWAP1 POP JUMP JUMPDEST PUSH32 0x4D61726B657420697320636C6F7365642E000000000000000000000000000000 PUSH0 DUP3 ADD MSTORE POP JUMP JUMPDEST PUSH0 PUSH2 0x2C9C PUSH1 0x11 DUP4 PUSH2 0x2843 JUMP JUMPDEST SWAP2 POP PUSH2 0x2CA7 DUP3 PUSH2 0x2C68 JUMP JUMPDEST PUSH1 0x20 DUP3 ADD SWAP1 POP SWAP2 SWAP1 POP JUMP JUMPDEST PUSH0 PUSH1 0x20 DUP3 ADD SWAP1 POP DUP2 DUP2 SUB PUSH0 DUP4 ADD MSTORE PUSH2 0x2CC9 DUP2 PUSH2 0x2C90 JUMP JUMPDEST SWAP1 POP SWAP2 SWAP1 POP JUMP JUMPDEST PUSH0 PUSH1 0x60 DUP3 ADD SWAP1 POP PUSH2 0x2CE3 PUSH0 DUP4 ADD DUP7 PUSH2 0x23C1 JUMP JUMPDEST PUSH2 0x2CF0 PUSH1 0x20 DUP4 ADD DUP6 PUSH2 0x23C1 JUMP JUMPDEST PUSH2 0x2CFD PUSH1 0x40 DUP4 ADD DUP5 PUSH2 0x24B2 JUMP JUMPDEST SWAP5 SWAP4 POP POP POP POP JUMP JUMPDEST PUSH2 0x2D0E DUP2 PUSH2 0x25F7 JUMP JUMPDEST DUP2 EQ PUSH2 0x2D18 JUMPI PUSH0 DUP1 REVERT JUMPDEST POP JUMP JUMPDEST PUSH0 DUP2 MLOAD SWAP1 POP PUSH2 0x2D29 DUP2 PUSH2 0x2D05 JUMP JUMPDEST SWAP3 SWAP2 POP POP JUMP JUMPDEST PUSH0 PUSH1 0x20 DUP3 DUP5 SUB SLT ISZERO PUSH2 0x2D44 JUMPI PUSH2 0x2D43 PUSH2 0x232F JUMP JUMPDEST JUMPDEST PUSH0 PUSH2 0x2D51 DUP5 DUP3 DUP6 ADD PUSH2 0x2D1B JUMP JUMPDEST SWAP2 POP POP SWAP3 SWAP2 POP POP JUMP JUMPDEST PUSH32 0x5472616E73666572206661696C65640000000000000000000000000000000000 PUSH0 DUP3 ADD MSTORE POP JUMP JUMPDEST PUSH0 PUSH2 0x2D8E PUSH1 0xF DUP4 PUSH2 0x2843 JUMP JUMPDEST SWAP2 POP PUSH2 0x2D99 DUP3 PUSH2 0x2D5A JUMP JUMPDEST PUSH1 0x20 DUP3 ADD SWAP1 POP SWAP2 SWAP1 POP JUMP JUMPDEST PUSH0 PUSH1 0x20 DUP3 ADD SWAP1 POP DUP2 DUP2 SUB PUSH0 DUP4 ADD MSTORE PUSH2 0x2DBB DUP2 PUSH2 0x2D82 JUMP JUMPDEST SWAP1 POP SWAP2 SWAP1 POP JUMP JUMPDEST PUSH32 0x536861726573206D7573742062652067726561746572207468616E207A65726F PUSH0 DUP3 ADD MSTORE POP JUMP JUMPDEST PUSH0 PUSH2 0x2DF6 PUSH1 0x20 DUP4 PUSH2 0x2843 JUMP JUMPDEST SWAP2 POP PUSH2 0x2E01 DUP3 PUSH2 0x2DC2 JUMP JUMPDEST PUSH1 0x20 DUP3 ADD SWAP1 POP SWAP2 SWAP1 POP JUMP JUMPDEST PUSH0 PUSH1 0x20 DUP3 ADD SWAP1 POP DUP2 DUP2 SUB PUSH0 DUP4 ADD MSTORE PUSH2 0x2E23 DUP2 PUSH2 0x2DEA JUMP JUMPDEST SWAP1 POP SWAP2 SWAP1 POP JUMP JUMPDEST PUSH32 0x5F70726963652063616E6E6F74206265207A65726F0000000000000000000000 PUSH0 DUP3 ADD MSTORE POP JUMP JUMPDEST PUSH0 PUSH2 0x2E5E PUSH1 0x15 DUP4 PUSH2 0x2843 JUMP JUMPDEST SWAP2 POP PUSH2 0x2E69 DUP3 PUSH2 0x2E2A JUMP JUMPDEST PUSH1 0x20 DUP3 ADD SWAP1 POP SWAP2 SWAP1 POP JUMP JUMPDEST PUSH0 PUSH1 0x20 DUP3 ADD SWAP1 POP DUP2 DUP2 SUB PUSH0 DUP4 ADD MSTORE PUSH2 0x2E8B DUP2 PUSH2 0x2E52 JUMP JUMPDEST SWAP1 POP SWAP2 SWAP1 POP JUMP JUMPDEST PUSH32 0x4E6F74206C697374656564210000000000000000000000000000000000000000 PUSH0 DUP3 ADD MSTORE POP JUMP JUMPDEST PUSH0 PUSH2 0x2EC6 PUSH1 0xC DUP4 PUSH2 0x2843 JUMP JUMPDEST SWAP2 POP PUSH2 0x2ED1 DUP3 PUSH2 0x2E92 JUMP JUMPDEST PUSH1 0x20 DUP3 ADD SWAP1 POP SWAP2 SWAP1 POP JUMP JUMPDEST PUSH0 PUSH1 0x20 DUP3 ADD SWAP1 POP DUP2 DUP2 SUB PUSH0 DUP4 ADD MSTORE PUSH2 0x2EF3 DUP2 PUSH2 0x2EBA JUMP JUMPDEST SWAP1 POP SWAP2 SWAP1 POP JUMP JUMPDEST PUSH32 0x616C6C726561647920536F6C642E000000000000000000000000000000000000 PUSH0 DUP3 ADD MSTORE POP JUMP JUMPDEST PUSH0 PUSH2 0x2F2E PUSH1 0xE DUP4 PUSH2 0x2843 JUMP JUMPDEST SWAP2 POP PUSH2 0x2F39 DUP3 PUSH2 0x2EFA JUMP JUMPDEST PUSH1 0x20 DUP3 ADD SWAP1 POP SWAP2 SWAP1 POP JUMP JUMPDEST PUSH0 PUSH1 0x20 DUP3 ADD SWAP1 POP DUP2 DUP2 SUB PUSH0 DUP4 ADD MSTORE PUSH2 0x2F5B DUP2 PUSH2 0x2F22 JUMP JUMPDEST SWAP1 POP SWAP2 SWAP1 POP JUMP JUMPDEST PUSH32 0x77726F6E67204F776E65722E0000000000000000000000000000000000000000 PUSH0 DUP3 ADD MSTORE POP JUMP JUMPDEST PUSH0 PUSH2 0x2F96 PUSH1 0xC DUP4 PUSH2 0x2843 JUMP JUMPDEST SWAP2 POP PUSH2 0x2FA1 DUP3 PUSH2 0x2F62 JUMP JUMPDEST PUSH1 0x20 DUP3 ADD SWAP1 POP SWAP2 SWAP1 POP JUMP JUMPDEST PUSH0 PUSH1 0x20 DUP3 ADD SWAP1 POP DUP2 DUP2 SUB PUSH0 DUP4 ADD MSTORE PUSH2 0x2FC3 DUP2 PUSH2 0x2F8A JUMP JUMPDEST SWAP1 POP SWAP2 SWAP1 POP JUMP JUMPDEST PUSH0 PUSH2 0x2FD4 DUP3 PUSH2 0x2333 JUMP JUMPDEST SWAP2 POP PUSH2 0x2FDF DUP4 PUSH2 0x2333 JUMP JUMPDEST SWAP3 POP DUP3 DUP3 SUB SWAP1 POP DUP2 DUP2 GT ISZERO PUSH2 0x2FF7 JUMPI PUSH2 0x2FF6 PUSH2 0x2745 JUMP JUMPDEST JUMPDEST SWAP3 SWAP2 POP POP JUMP JUMPDEST PUSH0 DUP2 MLOAD SWAP1 POP SWAP2 SWAP1 POP JUMP JUMPDEST DUP3 DUP2 DUP4 MCOPY PUSH0 DUP4 DUP4 ADD MSTORE POP POP POP JUMP JUMPDEST PUSH0 PUSH1 0x1F NOT PUSH1 0x1F DUP4 ADD AND SWAP1 POP SWAP2 SWAP1 POP JUMP JUMPDEST PUSH0 PUSH2 0x302F DUP3 PUSH2 0x2FFD JUMP JUMPDEST PUSH2 0x3039 DUP2 DUP6 PUSH2 0x2843 JUMP JUMPDEST SWAP4 POP PUSH2 0x3049 DUP2 DUP6 PUSH1 0x20 DUP7 ADD PUSH2 0x3007 JUMP JUMPDEST PUSH2 0x3052 DUP2 PUSH2 0x3015 JUMP JUMPDEST DUP5 ADD SWAP2 POP POP SWAP3 SWAP2 POP POP JUMP JUMPDEST PUSH0 PUSH1 0x40 DUP3 ADD SWAP1 POP DUP2 DUP2 SUB PUSH0 DUP4 ADD MSTORE PUSH2 0x3075 DUP2 DUP6 PUSH2 0x3025 JUMP JUMPDEST SWAP1 POP PUSH2 0x3084 PUSH1 0x20 DUP4 ADD DUP5 PUSH2 0x24B2 JUMP JUMPDEST SWAP4 SWAP3 POP POP POP JUMP JUMPDEST PUSH32 0x4E487B7100000000000000000000000000000000000000000000000000000000 PUSH0 MSTORE PUSH1 0x51 PUSH1 0x4 MSTORE PUSH1 0x24 PUSH0 REVERT INVALID LOG2 PUSH5 0x6970667358 0x22 SLT KECCAK256 0xBF PUSH15 0xA511C0647227A885826D03D129B5A3 ORIGIN PUSH15 0x863EFEF8DAFBE16C1DA14CA8236473 PUSH16 0x6C634300081A00330000000000000000 "
		},
		"gasEstimates": {
			"creation": {
				"codeDepositCost": "2505200",
				"executionCost": "infinite",
				"totalCost": "infinite"
			},
			"external": {
				"PriceCalculation(uint256,uint256)": "infinite",
				"bet(uint256,uint256)": "infinite",
				"buyShare(uint256,address)": "infinite",
				"calculateInvestment(uint256,uint256)": "infinite",
				"calculateShares(uint256,uint256)": "infinite",
				"eachUser(uint256)": "2851",
				"getInitialPrices()": "infinite",
				"marketInfo(address)": "infinite",
				"owner()": "2604",
				"renounceOwnership()": "infinite",
				"resolveMarket(uint256)": "infinite",
				"sellInfo(address,uint256)": "infinite",
				"sellShare(uint256,uint256,uint256)": "infinite",
				"totalUsers()": "2469",
				"transferOwnership(address)": "infinite",
				"usdcToken()": "infinite",
				"userInfo(address)": "infinite"
			},
			"internal": {
				"calculatePotentialReturn(uint256)": "infinite"
			}
		},
		"methodIdentifiers": {
			"PriceCalculation(uint256,uint256)": "21d0d9af",
			"bet(uint256,uint256)": "6ffcc719",
			"buyShare(uint256,address)": "fbea0b06",
			"calculateInvestment(uint256,uint256)": "84b5aca6",
			"calculateShares(uint256,uint256)": "b3c740e8",
			"eachUser(uint256)": "08ef962e",
			"getInitialPrices()": "208c86a4",
			"marketInfo(address)": "c4351386",
			"owner()": "8da5cb5b",
			"renounceOwnership()": "715018a6",
			"resolveMarket(uint256)": "6399d03d",
			"sellInfo(address,uint256)": "61d464ef",
			"sellShare(uint256,uint256,uint256)": "456e62ba",
			"totalUsers()": "bff1f9e1",
			"transferOwnership(address)": "f2fde38b",
			"usdcToken()": "11eac855",
			"userInfo(address)": "1959a002"
		}
	},
	"abi": [
		{
			"inputs": [
				{
					"internalType": "address",
					"name": "initialOwner",
					"type": "address"
				},
				{
					"internalType": "address",
					"name": "_usdcToken",
					"type": "address"
				},
				{
					"internalType": "uint256",
					"name": "_endTime",
					"type": "uint256"
				}
			],
			"stateMutability": "nonpayable",
			"type": "constructor"
		},
		{
			"inputs": [
				{
					"internalType": "address",
					"name": "owner",
					"type": "address"
				}
			],
			"name": "OwnableInvalidOwner",
			"type": "error"
		},
		{
			"inputs": [
				{
					"internalType": "address",
					"name": "account",
					"type": "address"
				}
			],
			"name": "OwnableUnauthorizedAccount",
			"type": "error"
		},
		{
			"anonymous": false,
			"inputs": [
				{
					"indexed": true,
					"internalType": "address",
					"name": "user",
					"type": "address"
				},
				{
					"indexed": true,
					"internalType": "uint256",
					"name": "_amount",
					"type": "uint256"
				},
				{
					"indexed": false,
					"internalType": "uint256",
					"name": "_betOn",
					"type": "uint256"
				}
			],
			"name": "Bet",
			"type": "event"
		},
		{
			"anonymous": false,
			"inputs": [
				{
					"indexed": false,
					"internalType": "address",
					"name": "buyer",
					"type": "address"
				},
				{
					"indexed": false,
					"internalType": "address",
					"name": "seller",
					"type": "address"
				},
				{
					"indexed": false,
					"internalType": "uint256",
					"name": "_noOfShares",
					"type": "uint256"
				},
				{
					"indexed": false,
					"internalType": "uint256",
					"name": "ofBet",
					"type": "uint256"
				},
				{
					"indexed": false,
					"internalType": "uint256",
					"name": "onPrice",
					"type": "uint256"
				}
			],
			"name": "BuyShare",
			"type": "event"
		},
		{
			"anonymous": false,
			"inputs": [
				{
					"indexed": true,
					"internalType": "uint256",
					"name": "winningOutcomeIndex",
					"type": "uint256"
				}
			],
			"name": "MarketResolved",
			"type": "event"
		},
		{
			"anonymous": false,
			"inputs": [
				{
					"indexed": true,
					"internalType": "address",
					"name": "previousOwner",
					"type": "address"
				},
				{
					"indexed": true,
					"internalType": "address",
					"name": "newOwner",
					"type": "address"
				}
			],
			"name": "OwnershipTransferred",
			"type": "event"
		},
		{
			"anonymous": false,
			"inputs": [
				{
					"indexed": false,
					"internalType": "address",
					"name": "owner",
					"type": "address"
				},
				{
					"indexed": false,
					"internalType": "uint256",
					"name": "remainingBalance",
					"type": "uint256"
				}
			],
			"name": "RemainingTransfer",
			"type": "event"
		},
		{
			"anonymous": false,
			"inputs": [
				{
					"indexed": true,
					"internalType": "address",
					"name": "user",
					"type": "address"
				},
				{
					"indexed": false,
					"internalType": "uint256",
					"name": "listNo",
					"type": "uint256"
				},
				{
					"indexed": false,
					"internalType": "uint256",
					"name": "onPrice",
					"type": "uint256"
				}
			],
			"name": "SellShare",
			"type": "event"
		},
		{
			"anonymous": false,
			"inputs": [
				{
					"indexed": true,
					"internalType": "uint256",
					"name": "outcomeIndex",
					"type": "uint256"
				}
			],
			"name": "WithdrawWinner",
			"type": "event"
		},
		{
			"inputs": [
				{
					"internalType": "uint256",
					"name": "totalBetsOnNo",
					"type": "uint256"
				},
				{
					"internalType": "uint256",
					"name": "totalBetsOnYes",
					"type": "uint256"
				}
			],
			"name": "PriceCalculation",
			"outputs": [
				{
					"internalType": "uint256",
					"name": "",
					"type": "uint256"
				},
				{
					"internalType": "uint256",
					"name": "",
					"type": "uint256"
				}
			],
			"stateMutability": "view",
			"type": "function"
		},
		{
			"inputs": [
				{
					"internalType": "uint256",
					"name": "_amount",
					"type": "uint256"
				},
				{
					"internalType": "uint256",
					"name": "_betOn",
					"type": "uint256"
				}
			],
			"name": "bet",
			"outputs": [],
			"stateMutability": "nonpayable",
			"type": "function"
		},
		{
			"inputs": [
				{
					"internalType": "uint256",
					"name": "_listNo",
					"type": "uint256"
				},
				{
					"internalType": "address",
					"name": "_owner",
					"type": "address"
				}
			],
			"name": "buyShare",
			"outputs": [],
			"stateMutability": "nonpayable",
			"type": "function"
		},
		{
			"inputs": [
				{
					"internalType": "uint256",
					"name": "shares",
					"type": "uint256"
				},
				{
					"internalType": "uint256",
					"name": "_betOn",
					"type": "uint256"
				}
			],
			"name": "calculateInvestment",
			"outputs": [
				{
					"internalType": "uint256",
					"name": "",
					"type": "uint256"
				}
			],
			"stateMutability": "view",
			"type": "function"
		},
		{
			"inputs": [
				{
					"internalType": "uint256",
					"name": "_amount",
					"type": "uint256"
				},
				{
					"internalType": "uint256",
					"name": "_betOn",
					"type": "uint256"
				}
			],
			"name": "calculateShares",
			"outputs": [
				{
					"internalType": "uint256",
					"name": "",
					"type": "uint256"
				}
			],
			"stateMutability": "view",
			"type": "function"
		},
		{
			"inputs": [
				{
					"internalType": "uint256",
					"name": "",
					"type": "uint256"
				}
			],
			"name": "eachUser",
			"outputs": [
				{
					"internalType": "address",
					"name": "",
					"type": "address"
				}
			],
			"stateMutability": "view",
			"type": "function"
		},
		{
			"inputs": [],
			"name": "getInitialPrices",
			"outputs": [
				{
					"internalType": "uint256",
					"name": "",
					"type": "uint256"
				},
				{
					"internalType": "uint256",
					"name": "",
					"type": "uint256"
				}
			],
			"stateMutability": "view",
			"type": "function"
		},
		{
			"inputs": [
				{
					"internalType": "address",
					"name": "",
					"type": "address"
				}
			],
			"name": "marketInfo",
			"outputs": [
				{
					"internalType": "uint256",
					"name": "endTime",
					"type": "uint256"
				},
				{
					"internalType": "uint256",
					"name": "totalBets",
					"type": "uint256"
				},
				{
					"internalType": "uint256",
					"name": "totalAmount",
					"type": "uint256"
				},
				{
					"internalType": "uint256",
					"name": "totalBetsOnYes",
					"type": "uint256"
				},
				{
					"internalType": "uint256",
					"name": "totalBetsOnNo",
					"type": "uint256"
				}
			],
			"stateMutability": "view",
			"type": "function"
		},
		{
			"inputs": [],
			"name": "owner",
			"outputs": [
				{
					"internalType": "address",
					"name": "",
					"type": "address"
				}
			],
			"stateMutability": "view",
			"type": "function"
		},
		{
			"inputs": [],
			"name": "renounceOwnership",
			"outputs": [],
			"stateMutability": "nonpayable",
			"type": "function"
		},
		{
			"inputs": [
				{
					"internalType": "uint256",
					"name": "winningIndex",
					"type": "uint256"
				}
			],
			"name": "resolveMarket",
			"outputs": [],
			"stateMutability": "nonpayable",
			"type": "function"
		},
		{
			"inputs": [
				{
					"internalType": "address",
					"name": "",
					"type": "address"
				},
				{
					"internalType": "uint256",
					"name": "",
					"type": "uint256"
				}
			],
			"name": "sellInfo",
			"outputs": [
				{
					"internalType": "bool",
					"name": "list",
					"type": "bool"
				},
				{
					"internalType": "bool",
					"name": "sold",
					"type": "bool"
				},
				{
					"internalType": "address",
					"name": "owner",
					"type": "address"
				},
				{
					"internalType": "uint256",
					"name": "price",
					"type": "uint256"
				},
				{
					"internalType": "uint256",
					"name": "amount",
					"type": "uint256"
				},
				{
					"internalType": "uint256",
					"name": "listOn",
					"type": "uint256"
				}
			],
			"stateMutability": "view",
			"type": "function"
		},
		{
			"inputs": [
				{
					"internalType": "uint256",
					"name": "_amount",
					"type": "uint256"
				},
				{
					"internalType": "uint256",
					"name": "_price",
					"type": "uint256"
				},
				{
					"internalType": "uint256",
					"name": "_sellOf",
					"type": "uint256"
				}
			],
			"name": "sellShare",
			"outputs": [],
			"stateMutability": "nonpayable",
			"type": "function"
		},
		{
			"inputs": [],
			"name": "totalUsers",
			"outputs": [
				{
					"internalType": "uint256",
					"name": "",
					"type": "uint256"
				}
			],
			"stateMutability": "view",
			"type": "function"
		},
		{
			"inputs": [
				{
					"internalType": "address",
					"name": "newOwner",
					"type": "address"
				}
			],
			"name": "transferOwnership",
			"outputs": [],
			"stateMutability": "nonpayable",
			"type": "function"
		},
		{
			"inputs": [],
			"name": "usdcToken",
			"outputs": [
				{
					"internalType": "contract ERC20",
					"name": "",
					"type": "address"
				}
			],
			"stateMutability": "view",
			"type": "function"
		},
		{
			"inputs": [
				{
					"internalType": "address",
					"name": "",
					"type": "address"
				}
			],
			"name": "userInfo",
			"outputs": [
				{
					"internalType": "uint256",
					"name": "listNo",
					"type": "uint256"
				},
				{
					"internalType": "uint256",
					"name": "noBetAmount",
					"type": "uint256"
				},
				{
					"internalType": "uint256",
					"name": "rewardAmount",
					"type": "uint256"
				},
				{
					"internalType": "uint256",
					"name": "yesBetAmount",
					"type": "uint256"
				}
			],
			"stateMutability": "view",
			"type": "function"
		}
	]
}