{
	"SmartContractsInterview/Token.sol": {
		"Token": {
			"abi": [
				{
					"inputs": [
						{
							"internalType": "string",
							"name": "_tokenName",
							"type": "string"
						},
						{
							"internalType": "string",
							"name": "_tokenSymbol",
							"type": "string"
						},
						{
							"internalType": "uint256",
							"name": "_tSupply",
							"type": "uint256"
						},
						{
							"internalType": "address",
							"name": "_tokenOwner",
							"type": "address"
						},
						{
							"internalType": "uint256",
							"name": "_sellTaxRate",
							"type": "uint256"
						},
						{
							"internalType": "uint256",
							"name": "_debaseRate",
							"type": "uint256"
						},
						{
							"internalType": "address",
							"name": "_treasuryWallet",
							"type": "address"
						}
					],
					"stateMutability": "nonpayable",
					"type": "constructor"
				},
				{
					"inputs": [],
					"name": "OnlySimulatedBackend",
					"type": "error"
				},
				{
					"inputs": [
						{
							"internalType": "address",
							"name": "owner",
							"type": "address"
						}
					],
					"name": "OwnableInvalidOwner",
					"type": "error"
				},
				{
					"inputs": [
						{
							"internalType": "address",
							"name": "account",
							"type": "address"
						}
					],
					"name": "OwnableUnauthorizedAccount",
					"type": "error"
				},
				{
					"anonymous": false,
					"inputs": [
						{
							"indexed": true,
							"internalType": "address",
							"name": "owner",
							"type": "address"
						},
						{
							"indexed": true,
							"internalType": "address",
							"name": "spender",
							"type": "address"
						},
						{
							"indexed": false,
							"internalType": "uint256",
							"name": "value",
							"type": "uint256"
						}
					],
					"name": "Approval",
					"type": "event"
				},
				{
					"anonymous": false,
					"inputs": [
						{
							"indexed": true,
							"internalType": "address",
							"name": "from",
							"type": "address"
						},
						{
							"indexed": false,
							"internalType": "uint256",
							"name": "amount",
							"type": "uint256"
						}
					],
					"name": "Burn",
					"type": "event"
				},
				{
					"anonymous": false,
					"inputs": [
						{
							"indexed": true,
							"internalType": "address",
							"name": "to",
							"type": "address"
						},
						{
							"indexed": false,
							"internalType": "uint256",
							"name": "amount",
							"type": "uint256"
						}
					],
					"name": "Mint",
					"type": "event"
				},
				{
					"anonymous": false,
					"inputs": [
						{
							"indexed": true,
							"internalType": "address",
							"name": "previousOwner",
							"type": "address"
						},
						{
							"indexed": true,
							"internalType": "address",
							"name": "newOwner",
							"type": "address"
						}
					],
					"name": "OwnershipTransferred",
					"type": "event"
				},
				{
					"anonymous": false,
					"inputs": [
						{
							"indexed": false,
							"internalType": "address",
							"name": "account",
							"type": "address"
						}
					],
					"name": "Paused",
					"type": "event"
				},
				{
					"anonymous": false,
					"inputs": [
						{
							"indexed": true,
							"internalType": "address",
							"name": "from",
							"type": "address"
						},
						{
							"indexed": true,
							"internalType": "address",
							"name": "to",
							"type": "address"
						},
						{
							"indexed": false,
							"internalType": "uint256",
							"name": "value",
							"type": "uint256"
						}
					],
					"name": "Transfer",
					"type": "event"
				},
				{
					"anonymous": false,
					"inputs": [
						{
							"indexed": false,
							"internalType": "address",
							"name": "account",
							"type": "address"
						}
					],
					"name": "Unpaused",
					"type": "event"
				},
				{
					"inputs": [],
					"name": "PERCENTAGE_DENOMINATOR",
					"outputs": [
						{
							"internalType": "uint256",
							"name": "",
							"type": "uint256"
						}
					],
					"stateMutability": "view",
					"type": "function"
				},
				{
					"inputs": [],
					"name": "TOKEN_DECIMALS",
					"outputs": [
						{
							"internalType": "uint256",
							"name": "",
							"type": "uint256"
						}
					],
					"stateMutability": "view",
					"type": "function"
				},
				{
					"inputs": [],
					"name": "TOKEN_public_DECIMALS",
					"outputs": [
						{
							"internalType": "uint256",
							"name": "",
							"type": "uint256"
						}
					],
					"stateMutability": "view",
					"type": "function"
				},
				{
					"inputs": [
						{
							"internalType": "address",
							"name": "_holder",
							"type": "address"
						},
						{
							"internalType": "address",
							"name": "_spender",
							"type": "address"
						},
						{
							"internalType": "uint256",
							"name": "_amount",
							"type": "uint256"
						}
					],
					"name": "_approve",
					"outputs": [],
					"stateMutability": "nonpayable",
					"type": "function"
				},
				{
					"inputs": [
						{
							"internalType": "address",
							"name": "_from",
							"type": "address"
						},
						{
							"internalType": "uint256",
							"name": "_amount",
							"type": "uint256"
						}
					],
					"name": "_burn",
					"outputs": [],
					"stateMutability": "nonpayable",
					"type": "function"
				},
				{
					"inputs": [
						{
							"internalType": "uint256",
							"name": "_debaseToken",
							"type": "uint256"
						}
					],
					"name": "_debaseTokenToFragment",
					"outputs": [
						{
							"internalType": "uint256",
							"name": "",
							"type": "uint256"
						}
					],
					"stateMutability": "view",
					"type": "function"
				},
				{
					"inputs": [
						{
							"internalType": "address",
							"name": "_account",
							"type": "address"
						},
						{
							"internalType": "bool",
							"name": "_isExcluded",
							"type": "bool"
						}
					],
					"name": "_excludedFromDebasing",
					"outputs": [],
					"stateMutability": "nonpayable",
					"type": "function"
				},
				{
					"inputs": [
						{
							"internalType": "address",
							"name": "_account",
							"type": "address"
						},
						{
							"internalType": "bool",
							"name": "_isExcluded",
							"type": "bool"
						}
					],
					"name": "_excludedFromHoldingLimit",
					"outputs": [],
					"stateMutability": "nonpayable",
					"type": "function"
				},
				{
					"inputs": [
						{
							"internalType": "uint256",
							"name": "_value",
							"type": "uint256"
						}
					],
					"name": "_fragmentToDebaseToken",
					"outputs": [
						{
							"internalType": "uint256",
							"name": "",
							"type": "uint256"
						}
					],
					"stateMutability": "pure",
					"type": "function"
				},
				{
					"inputs": [
						{
							"internalType": "address",
							"name": "_to",
							"type": "address"
						},
						{
							"internalType": "uint256",
							"name": "_amount",
							"type": "uint256"
						}
					],
					"name": "_mint",
					"outputs": [],
					"stateMutability": "nonpayable",
					"type": "function"
				},
				{
					"inputs": [
						{
							"internalType": "uint256",
							"name": "_amount",
							"type": "uint256"
						},
						{
							"internalType": "address",
							"name": "_to",
							"type": "address"
						}
					],
					"name": "_sendTokensTreasuryWallet",
					"outputs": [],
					"stateMutability": "nonpayable",
					"type": "function"
				},
				{
					"inputs": [
						{
							"internalType": "address",
							"name": "_from",
							"type": "address"
						},
						{
							"internalType": "address",
							"name": "_to",
							"type": "address"
						},
						{
							"internalType": "uint256",
							"name": "_amount",
							"type": "uint256"
						}
					],
					"name": "_transfer",
					"outputs": [],
					"stateMutability": "nonpayable",
					"type": "function"
				},
				{
					"inputs": [],
					"name": "_treasuryBalanceOf",
					"outputs": [
						{
							"internalType": "uint256",
							"name": "",
							"type": "uint256"
						}
					],
					"stateMutability": "view",
					"type": "function"
				},
				{
					"inputs": [
						{
							"internalType": "address",
							"name": "_holder",
							"type": "address"
						},
						{
							"internalType": "address",
							"name": "_spender",
							"type": "address"
						}
					],
					"name": "allowance",
					"outputs": [
						{
							"internalType": "uint256",
							"name": "",
							"type": "uint256"
						}
					],
					"stateMutability": "view",
					"type": "function"
				},
				{
					"inputs": [
						{
							"internalType": "address",
							"name": "_spender",
							"type": "address"
						},
						{
							"internalType": "uint256",
							"name": "_amount",
							"type": "uint256"
						}
					],
					"name": "approve",
					"outputs": [
						{
							"internalType": "bool",
							"name": "",
							"type": "bool"
						}
					],
					"stateMutability": "nonpayable",
					"type": "function"
				},
				{
					"inputs": [
						{
							"internalType": "address",
							"name": "_account",
							"type": "address"
						}
					],
					"name": "balanceOf",
					"outputs": [
						{
							"internalType": "uint256",
							"name": "",
							"type": "uint256"
						}
					],
					"stateMutability": "view",
					"type": "function"
				},
				{
					"inputs": [
						{
							"internalType": "address",
							"name": "_account",
							"type": "address"
						}
					],
					"name": "balanceOfUnderlying",
					"outputs": [
						{
							"internalType": "uint256",
							"name": "",
							"type": "uint256"
						}
					],
					"stateMutability": "view",
					"type": "function"
				},
				{
					"inputs": [
						{
							"internalType": "bytes",
							"name": "checkData",
							"type": "bytes"
						}
					],
					"name": "checkUpkeep",
					"outputs": [
						{
							"internalType": "bool",
							"name": "upkeepNeeded",
							"type": "bool"
						},
						{
							"internalType": "bytes",
							"name": "performData",
							"type": "bytes"
						}
					],
					"stateMutability": "view",
					"type": "function"
				},
				{
					"inputs": [
						{
							"internalType": "address",
							"name": "_to",
							"type": "address"
						},
						{
							"internalType": "uint256",
							"name": "_amount",
							"type": "uint256"
						}
					],
					"name": "claimFromTreasury",
					"outputs": [],
					"stateMutability": "nonpayable",
					"type": "function"
				},
				{
					"inputs": [],
					"name": "debaseDuration",
					"outputs": [
						{
							"internalType": "uint256",
							"name": "",
							"type": "uint256"
						}
					],
					"stateMutability": "view",
					"type": "function"
				},
				{
					"inputs": [],
					"name": "debaseRate",
					"outputs": [
						{
							"internalType": "uint256",
							"name": "",
							"type": "uint256"
						}
					],
					"stateMutability": "view",
					"type": "function"
				},
				{
					"inputs": [],
					"name": "decimals",
					"outputs": [
						{
							"internalType": "uint8",
							"name": "",
							"type": "uint8"
						}
					],
					"stateMutability": "view",
					"type": "function"
				},
				{
					"inputs": [
						{
							"internalType": "address",
							"name": "_spender",
							"type": "address"
						},
						{
							"internalType": "uint256",
							"name": "_subtractedValue",
							"type": "uint256"
						}
					],
					"name": "decreaseAllowance",
					"outputs": [
						{
							"internalType": "bool",
							"name": "",
							"type": "bool"
						}
					],
					"stateMutability": "nonpayable",
					"type": "function"
				},
				{
					"inputs": [],
					"name": "excludeDebasingSupply",
					"outputs": [
						{
							"internalType": "uint256",
							"name": "",
							"type": "uint256"
						}
					],
					"stateMutability": "view",
					"type": "function"
				},
				{
					"inputs": [],
					"name": "getOwner",
					"outputs": [
						{
							"internalType": "address",
							"name": "",
							"type": "address"
						}
					],
					"stateMutability": "view",
					"type": "function"
				},
				{
					"inputs": [],
					"name": "holdingLimit",
					"outputs": [
						{
							"internalType": "uint256",
							"name": "",
							"type": "uint256"
						}
					],
					"stateMutability": "view",
					"type": "function"
				},
				{
					"inputs": [
						{
							"internalType": "address",
							"name": "_spender",
							"type": "address"
						},
						{
							"internalType": "uint256",
							"name": "_addedValue",
							"type": "uint256"
						}
					],
					"name": "increaseAllowance",
					"outputs": [
						{
							"internalType": "bool",
							"name": "",
							"type": "bool"
						}
					],
					"stateMutability": "nonpayable",
					"type": "function"
				},
				{
					"inputs": [
						{
							"internalType": "address",
							"name": "",
							"type": "address"
						}
					],
					"name": "isExcludedFromDebasing",
					"outputs": [
						{
							"internalType": "bool",
							"name": "",
							"type": "bool"
						}
					],
					"stateMutability": "view",
					"type": "function"
				},
				{
					"inputs": [
						{
							"internalType": "address",
							"name": "",
							"type": "address"
						}
					],
					"name": "isExcludedFromHoldingLimit",
					"outputs": [
						{
							"internalType": "bool",
							"name": "",
							"type": "bool"
						}
					],
					"stateMutability": "view",
					"type": "function"
				},
				{
					"inputs": [],
					"name": "lastTimeStamp",
					"outputs": [
						{
							"internalType": "uint256",
							"name": "",
							"type": "uint256"
						}
					],
					"stateMutability": "view",
					"type": "function"
				},
				{
					"inputs": [
						{
							"internalType": "address",
							"name": "",
							"type": "address"
						}
					],
					"name": "lpPools",
					"outputs": [
						{
							"internalType": "bool",
							"name": "",
							"type": "bool"
						}
					],
					"stateMutability": "view",
					"type": "function"
				},
				{
					"inputs": [
						{
							"internalType": "address[]",
							"name": "_airdroppers",
							"type": "address[]"
						},
						{
							"internalType": "uint256[]",
							"name": "_amounts",
							"type": "uint256[]"
						}
					],
					"name": "multiAirdropTokenRequested",
					"outputs": [],
					"stateMutability": "nonpayable",
					"type": "function"
				},
				{
					"inputs": [
						{
							"internalType": "address[]",
							"name": "_accounts",
							"type": "address[]"
						},
						{
							"internalType": "bool",
							"name": "_isExcluded",
							"type": "bool"
						}
					],
					"name": "multiExcludedFromDebasing",
					"outputs": [],
					"stateMutability": "nonpayable",
					"type": "function"
				},
				{
					"inputs": [
						{
							"internalType": "address[]",
							"name": "_accounts",
							"type": "address[]"
						},
						{
							"internalType": "bool",
							"name": "_isExcluded",
							"type": "bool"
						}
					],
					"name": "multiExcludedFromHoldingLimit",
					"outputs": [],
					"stateMutability": "nonpayable",
					"type": "function"
				},
				{
					"inputs": [],
					"name": "name",
					"outputs": [
						{
							"internalType": "string",
							"name": "",
							"type": "string"
						}
					],
					"stateMutability": "view",
					"type": "function"
				},
				{
					"inputs": [],
					"name": "owner",
					"outputs": [
						{
							"internalType": "address",
							"name": "",
							"type": "address"
						}
					],
					"stateMutability": "view",
					"type": "function"
				},
				{
					"inputs": [],
					"name": "pause",
					"outputs": [],
					"stateMutability": "nonpayable",
					"type": "function"
				},
				{
					"inputs": [],
					"name": "paused",
					"outputs": [
						{
							"internalType": "bool",
							"name": "",
							"type": "bool"
						}
					],
					"stateMutability": "view",
					"type": "function"
				},
				{
					"inputs": [
						{
							"internalType": "bytes",
							"name": "",
							"type": "bytes"
						}
					],
					"name": "performUpkeep",
					"outputs": [],
					"stateMutability": "nonpayable",
					"type": "function"
				},
				{
					"inputs": [],
					"name": "renounceOwnership",
					"outputs": [],
					"stateMutability": "nonpayable",
					"type": "function"
				},
				{
					"inputs": [],
					"name": "sellTaxRate",
					"outputs": [
						{
							"internalType": "uint256",
							"name": "",
							"type": "uint256"
						}
					],
					"stateMutability": "view",
					"type": "function"
				},
				{
					"inputs": [],
					"name": "setLastTime",
					"outputs": [],
					"stateMutability": "nonpayable",
					"type": "function"
				},
				{
					"inputs": [],
					"name": "symbol",
					"outputs": [
						{
							"internalType": "string",
							"name": "",
							"type": "string"
						}
					],
					"stateMutability": "view",
					"type": "function"
				},
				{
					"inputs": [],
					"name": "tokenScalingFactor",
					"outputs": [
						{
							"internalType": "uint256",
							"name": "",
							"type": "uint256"
						}
					],
					"stateMutability": "view",
					"type": "function"
				},
				{
					"inputs": [],
					"name": "totalSupply",
					"outputs": [
						{
							"internalType": "uint256",
							"name": "",
							"type": "uint256"
						}
					],
					"stateMutability": "view",
					"type": "function"
				},
				{
					"inputs": [
						{
							"internalType": "address",
							"name": "_recipient",
							"type": "address"
						},
						{
							"internalType": "uint256",
							"name": "_amount",
							"type": "uint256"
						}
					],
					"name": "transfer",
					"outputs": [
						{
							"internalType": "bool",
							"name": "",
							"type": "bool"
						}
					],
					"stateMutability": "nonpayable",
					"type": "function"
				},
				{
					"inputs": [
						{
							"internalType": "address",
							"name": "_sender",
							"type": "address"
						},
						{
							"internalType": "address",
							"name": "_recipient",
							"type": "address"
						},
						{
							"internalType": "uint256",
							"name": "_amount",
							"type": "uint256"
						}
					],
					"name": "transferFrom",
					"outputs": [
						{
							"internalType": "bool",
							"name": "",
							"type": "bool"
						}
					],
					"stateMutability": "nonpayable",
					"type": "function"
				},
				{
					"inputs": [
						{
							"internalType": "address",
							"name": "newOwner",
							"type": "address"
						}
					],
					"name": "transferOwnership",
					"outputs": [],
					"stateMutability": "nonpayable",
					"type": "function"
				},
				{
					"inputs": [
						{
							"internalType": "address",
							"name": "",
							"type": "address"
						}
					],
					"name": "treasuryOperator",
					"outputs": [
						{
							"internalType": "bool",
							"name": "",
							"type": "bool"
						}
					],
					"stateMutability": "view",
					"type": "function"
				},
				{
					"inputs": [],
					"name": "treasuryWallet",
					"outputs": [
						{
							"internalType": "address",
							"name": "",
							"type": "address"
						}
					],
					"stateMutability": "view",
					"type": "function"
				},
				{
					"inputs": [],
					"name": "unpause",
					"outputs": [],
					"stateMutability": "nonpayable",
					"type": "function"
				},
				{
					"inputs": [
						{
							"internalType": "uint256",
							"name": "_debaseDuration",
							"type": "uint256"
						}
					],
					"name": "updateDebaseDuration",
					"outputs": [],
					"stateMutability": "nonpayable",
					"type": "function"
				},
				{
					"inputs": [
						{
							"internalType": "uint256",
							"name": "_debaseRate",
							"type": "uint256"
						}
					],
					"name": "updateDebaseRate",
					"outputs": [],
					"stateMutability": "nonpayable",
					"type": "function"
				},
				{
					"inputs": [
						{
							"internalType": "uint256",
							"name": "_holdingLimit",
							"type": "uint256"
						}
					],
					"name": "updateHoldingLimit",
					"outputs": [],
					"stateMutability": "nonpayable",
					"type": "function"
				},
				{
					"inputs": [
						{
							"internalType": "address",
							"name": "_lpPool",
							"type": "address"
						},
						{
							"internalType": "bool",
							"name": "_isLPPool",
							"type": "bool"
						}
					],
					"name": "updateLPPool",
					"outputs": [],
					"stateMutability": "nonpayable",
					"type": "function"
				},
				{
					"inputs": [
						{
							"internalType": "uint256",
							"name": "_sellTaxRate",
							"type": "uint256"
						}
					],
					"name": "updateSellTaxRate",
					"outputs": [],
					"stateMutability": "nonpayable",
					"type": "function"
				},
				{
					"inputs": [
						{
							"internalType": "address",
							"name": "_addr",
							"type": "address"
						},
						{
							"internalType": "bool",
							"name": "_isOperator",
							"type": "bool"
						}
					],
					"name": "updateTreasuryOperator",
					"outputs": [],
					"stateMutability": "nonpayable",
					"type": "function"
				},
				{
					"inputs": [
						{
							"internalType": "address",
							"name": "_to",
							"type": "address"
						}
					],
					"name": "withdrawETH",
					"outputs": [],
					"stateMutability": "nonpayable",
					"type": "function"
				},
				{
					"stateMutability": "payable",
					"type": "receive"
				}
			],
			"devdoc": {
				"errors": {
					"OwnableInvalidOwner(address)": [
						{
							"details": "The owner is not a valid owner account. (eg. `address(0)`)"
						}
					],
					"OwnableUnauthorizedAccount(address)": [
						{
							"details": "The caller account is not authorized to perform an operation."
						}
					]
				},
				"events": {
					"Approval(address,address,uint256)": {
						"details": "Emitted when the allowance of a `spender` for an `owner` is set by a call to {approve}. `value` is the new allowance."
					},
					"Paused(address)": {
						"details": "Emitted when the pause is triggered by `account`."
					},
					"Transfer(address,address,uint256)": {
						"details": "Emitted when `value` tokens are moved from one account (`from`) to another (`to`). Note that `value` may be zero."
					},
					"Unpaused(address)": {
						"details": "Emitted when the pause is lifted by `account`."
					}
				},
				"kind": "dev",
				"methods": {
					"checkUpkeep(bytes)": {
						"details": "To ensure that it is never called, you may want to add the cannotExecute modifier from KeeperBase to your implementation of this method.",
						"params": {
							"checkData": "specified in the upkeep registration so it is always the same for a registered upkeep. This can easily be broken down into specific arguments using `abi.decode`, so multiple upkeeps can be registered on the same contract and easily differentiated by the contract."
						},
						"returns": {
							"performData": "bytes that the keeper should call performUpkeep with, if upkeep is needed. If you would like to encode data to decode later, try `abi.encode`.",
							"upkeepNeeded": "boolean to indicate whether the keeper should call performUpkeep or not."
						}
					},
					"decimals()": {
						"details": "Returns the decimals places of the token."
					},
					"owner()": {
						"details": "Returns the address of the current owner."
					},
					"paused()": {
						"details": "Returns true if the contract is paused, and false otherwise."
					},
					"renounceOwnership()": {
						"details": "Leaves the contract without owner. It will not be possible to call `onlyOwner` functions. Can only be called by the current owner. NOTE: Renouncing ownership will leave the contract without an owner, thereby disabling any functionality that is only available to the owner."
					},
					"totalSupply()": {
						"details": "Returns the value of tokens in existence."
					},
					"transferOwnership(address)": {
						"details": "Transfers ownership of the contract to a new account (`newOwner`). Can only be called by the current owner."
					}
				},
				"stateVariables": {
					"name": {
						"details": "Returns the name of the token."
					},
					"symbol": {
						"details": "Returns the symbol of the token."
					}
				},
				"version": 1
			},
			"evm": {
				"assembly": "    /* \"SmartContractsInterview/Token.sol\":559:17443  contract Token is... */\n  mstore(0x40, 0x80)\n    /* \"SmartContractsInterview/Token.sol\":1968:3125  constructor(... */\n  callvalue\n  dup1\n  iszero\n  tag_1\n  jumpi\n  0x00\n  dup1\n  revert\ntag_1:\n  pop\n  mload(0x40)\n  sub(codesize, bytecodeSize)\n  dup1\n  bytecodeSize\n  dup4\n  codecopy\n  dup2\n  add\n  0x40\n  dup2\n  swap1\n  mstore\n  tag_2\n  swap2\n  tag_3\n  jump\t// in\ntag_2:\n    /* \"@openzeppelin/contracts/security/Pausable.sol\":1006:1011  false */\n  0x00\n    /* \"@openzeppelin/contracts/security/Pausable.sol\":996:1011  _paused = false */\n  dup1\n  sload\n  not(0xff)\n  and\n  swap1\n  sstore\n  0x01\n    /* \"@openzeppelin/contracts/security/ReentrancyGuard.sol\":1821:1843  _status = _NOT_ENTERED */\n  dup1\n  sstore\n    /* \"SmartContractsInterview/Token.sol\":2211:2221  msg.sender */\n  caller\n  dup1\n    /* \"@openzeppelin/contracts/access/Ownable.sol\":1269:1364  if (initialOwner == address(0)) {... */\n  tag_11\n  jumpi\n    /* \"@openzeppelin/contracts/access/Ownable.sol\":1322:1353  OwnableInvalidOwner(address(0)) */\n  mload(0x40)\n  shl(0xe0, 0x1e4fbdf7)\n  dup2\n  mstore\n    /* \"@openzeppelin/contracts/access/Ownable.sol\":1350:1351  0 */\n  0x00\n    /* \"@openzeppelin/contracts/access/Ownable.sol\":1322:1353  OwnableInvalidOwner(address(0)) */\n  0x04\n  dup3\n  add\n    /* \"#utility.yul\":2271:2322   */\n  mstore\n    /* \"#utility.yul\":2244:2262   */\n  0x24\n  add\n    /* \"@openzeppelin/contracts/access/Ownable.sol\":1322:1353  OwnableInvalidOwner(address(0)) */\ntag_12:\n  mload(0x40)\n  dup1\n  swap2\n  sub\n  swap1\n  revert\n    /* \"@openzeppelin/contracts/access/Ownable.sol\":1269:1364  if (initialOwner == address(0)) {... */\ntag_11:\n    /* \"@openzeppelin/contracts/access/Ownable.sol\":1373:1405  _transferOwnership(initialOwner) */\n  tag_14\n    /* \"@openzeppelin/contracts/access/Ownable.sol\":1392:1404  initialOwner */\n  dup2\n    /* \"@openzeppelin/contracts/access/Ownable.sol\":1373:1391  _transferOwnership */\n  tag_15\n    /* \"@openzeppelin/contracts/access/Ownable.sol\":1373:1405  _transferOwnership(initialOwner) */\n  jump\t// in\ntag_14:\n  pop\n    /* \"SmartContractsInterview/Token.sol\":2232:2236  name */\n  0x03\n    /* \"SmartContractsInterview/Token.sol\":2232:2249  name = _tokenName */\n  tag_17\n    /* \"SmartContractsInterview/Token.sol\":2239:2249  _tokenName */\n  dup9\n    /* \"SmartContractsInterview/Token.sol\":2232:2236  name */\n  dup3\n    /* \"SmartContractsInterview/Token.sol\":2232:2249  name = _tokenName */\n  tag_18\n  jump\t// in\ntag_17:\n  pop\n    /* \"SmartContractsInterview/Token.sol\":2259:2265  symbol */\n  0x04\n    /* \"SmartContractsInterview/Token.sol\":2259:2280  symbol = _tokenSymbol */\n  tag_19\n    /* \"SmartContractsInterview/Token.sol\":2268:2280  _tokenSymbol */\n  dup8\n    /* \"SmartContractsInterview/Token.sol\":2259:2265  symbol */\n  dup3\n    /* \"SmartContractsInterview/Token.sol\":2259:2280  symbol = _tokenSymbol */\n  tag_18\n  jump\t// in\ntag_19:\n  pop\n    /* \"SmartContractsInterview/Token.sol\":2302:2304  18 */\n  0x12\n    /* \"SmartContractsInterview/Token.sol\":2290:2299  _decimals */\n  0x05\n    /* \"SmartContractsInterview/Token.sol\":2290:2304  _decimals = 18 */\n  sstore\n    /* \"SmartContractsInterview/Token.sol\":2325:2350  _tSupply * TOKEN_DECIMALS */\n  tag_20\n    /* \"SmartContractsInterview/Token.sol\":860:864  1e18 */\n  0x0de0b6b3a7640000\n    /* \"SmartContractsInterview/Token.sol\":2325:2333  _tSupply */\n  dup7\n    /* \"SmartContractsInterview/Token.sol\":2325:2350  _tSupply * TOKEN_DECIMALS */\n  tag_21\n  jump\t// in\ntag_20:\n    /* \"SmartContractsInterview/Token.sol\":2315:2322  tSupply */\n  0x06\n    /* \"SmartContractsInterview/Token.sol\":2315:2350  tSupply = _tSupply * TOKEN_DECIMALS */\n  dup2\n  swap1\n  sstore\n    /* \"SmartContractsInterview/Token.sol\":2360:2381  excludeDebasingSupply */\n  0x07\n    /* \"SmartContractsInterview/Token.sol\":2360:2391  excludeDebasingSupply = tSupply */\n  dup2\n  swap1\n  sstore\n    /* \"SmartContractsInterview/Token.sol\":808:813  10000 */\n  0x2710\n  swap1\n    /* \"SmartContractsInterview/Token.sol\":2418:2431  tSupply * 100 */\n  tag_22\n  swap1\n    /* \"SmartContractsInterview/Token.sol\":2428:2431  100 */\n  0x64\n    /* \"SmartContractsInterview/Token.sol\":2418:2431  tSupply * 100 */\n  tag_21\n  jump\t// in\ntag_22:\n    /* \"SmartContractsInterview/Token.sol\":2417:2457  (tSupply * 100) / PERCENTAGE_DENOMINATOR */\n  tag_23\n  swap2\n  swap1\n  tag_24\n  jump\t// in\ntag_23:\n    /* \"SmartContractsInterview/Token.sol\":2402:2414  holdingLimit */\n  0x10\n    /* \"SmartContractsInterview/Token.sol\":2402:2457  holdingLimit = (tSupply * 100) / PERCENTAGE_DENOMINATOR */\n  sstore\n    /* \"SmartContractsInterview/Token.sol\":2468:2479  sellTaxRate */\n  0x0c\n    /* \"SmartContractsInterview/Token.sol\":2468:2494  sellTaxRate = _sellTaxRate */\n  dup4\n  swap1\n  sstore\n    /* \"SmartContractsInterview/Token.sol\":2504:2514  debaseRate */\n  0x0d\n    /* \"SmartContractsInterview/Token.sol\":2504:2528  debaseRate = _debaseRate */\n  dup3\n  swap1\n  sstore\n    /* \"SmartContractsInterview/Token.sol\":860:864  1e18 */\n  0x0de0b6b3a7640000\n    /* \"SmartContractsInterview/Token.sol\":2539:2557  tokenScalingFactor */\n  0x0e\n    /* \"SmartContractsInterview/Token.sol\":2539:2574  tokenScalingFactor = TOKEN_DECIMALS */\n  sstore\n    /* \"SmartContractsInterview/Token.sol\":2601:2606  86400 */\n  0x015180\n    /* \"SmartContractsInterview/Token.sol\":2584:2598  debaseDuration */\n  0x0f\n    /* \"SmartContractsInterview/Token.sol\":2584:2606  debaseDuration = 86400 */\n  sstore\n  0x00\n    /* \"SmartContractsInterview/Token.sol\":2616:2631  treasuryBalance */\n  0x0a\n    /* \"SmartContractsInterview/Token.sol\":2616:2635  treasuryBalance = 0 */\n  sstore\n    /* \"SmartContractsInterview/Token.sol\":2662:2677  block.timestamp */\n  timestamp\n    /* \"SmartContractsInterview/Token.sol\":2646:2659  lastTimeStamp */\n  0x15\n    /* \"SmartContractsInterview/Token.sol\":2646:2677  lastTimeStamp = block.timestamp */\n  sstore\n    /* \"SmartContractsInterview/Token.sol\":2688:2702  treasuryWallet */\n  0x0b\n    /* \"SmartContractsInterview/Token.sol\":2688:2720  treasuryWallet = _treasuryWallet */\n  dup1\n  sload\n  not(sub(shl(0xa0, 0x01), 0x01))\n  and\n  sub(shl(0xa0, 0x01), 0x01)\n  dup4\n  and\n  or\n  swap1\n  sstore\n    /* \"SmartContractsInterview/Token.sol\":2731:2771  _excludedFromDebasing(_tokenOwner, true) */\n  tag_25\n    /* \"SmartContractsInterview/Token.sol\":2753:2764  _tokenOwner */\n  dup5\n  0x01\n    /* \"SmartContractsInterview/Token.sol\":2731:2752  _excludedFromDebasing */\n  tag_26\n    /* \"SmartContractsInterview/Token.sol\":2731:2771  _excludedFromDebasing(_tokenOwner, true) */\n  jump\t// in\ntag_25:\n    /* \"SmartContractsInterview/Token.sol\":2781:2825  _excludedFromHoldingLimit(_tokenOwner, true) */\n  tag_27\n    /* \"SmartContractsInterview/Token.sol\":2807:2818  _tokenOwner */\n  dup5\n    /* \"SmartContractsInterview/Token.sol\":2820:2824  true */\n  0x01\n    /* \"SmartContractsInterview/Token.sol\":2781:2806  _excludedFromHoldingLimit */\n  tag_28\n    /* \"SmartContractsInterview/Token.sol\":2781:2825  _excludedFromHoldingLimit(_tokenOwner, true) */\n  jump\t// in\ntag_27:\n    /* \"SmartContractsInterview/Token.sol\":2857:2871  treasuryWallet */\n  sload(0x0b)\n    /* \"SmartContractsInterview/Token.sol\":2835:2878  _excludedFromDebasing(treasuryWallet, true) */\n  tag_29\n  swap1\n  sub(shl(0xa0, 0x01), 0x01)\n    /* \"SmartContractsInterview/Token.sol\":2857:2871  treasuryWallet */\n  and\n  0x01\n    /* \"SmartContractsInterview/Token.sol\":2835:2856  _excludedFromDebasing */\n  tag_26\n    /* \"SmartContractsInterview/Token.sol\":2835:2878  _excludedFromDebasing(treasuryWallet, true) */\n  jump\t// in\ntag_29:\n    /* \"SmartContractsInterview/Token.sol\":2914:2928  treasuryWallet */\n  sload(0x0b)\n    /* \"SmartContractsInterview/Token.sol\":2888:2935  _excludedFromHoldingLimit(treasuryWallet, true) */\n  tag_30\n  swap1\n  sub(shl(0xa0, 0x01), 0x01)\n    /* \"SmartContractsInterview/Token.sol\":2914:2928  treasuryWallet */\n  and\n  0x01\n    /* \"SmartContractsInterview/Token.sol\":2888:2913  _excludedFromHoldingLimit */\n  tag_28\n    /* \"SmartContractsInterview/Token.sol\":2888:2935  _excludedFromHoldingLimit(treasuryWallet, true) */\n  jump\t// in\ntag_30:\n    /* \"SmartContractsInterview/Token.sol\":2994:3001  tSupply */\n  sload(0x06)\n    /* \"SmartContractsInterview/Token.sol\":2971:3002  _fragmentToDebaseToken(tSupply) */\n  tag_31\n  swap1\n    /* \"SmartContractsInterview/Token.sol\":2971:2993  _fragmentToDebaseToken */\n  tag_32\n    /* \"SmartContractsInterview/Token.sol\":2971:3002  _fragmentToDebaseToken(tSupply) */\n  jump\t// in\ntag_31:\n  sub(shl(0xa0, 0x01), 0x01)\n    /* \"SmartContractsInterview/Token.sol\":2946:2968  _balances[_tokenOwner] */\n  dup6\n  and\n  0x00\n  swap1\n  dup2\n  mstore\n    /* \"SmartContractsInterview/Token.sol\":2946:2955  _balances */\n  0x09\n    /* \"SmartContractsInterview/Token.sol\":2946:2968  _balances[_tokenOwner] */\n  0x20\n  mstore\n  0x40\n  swap1\n  keccak256\n    /* \"SmartContractsInterview/Token.sol\":2946:3002  _balances[_tokenOwner] = _fragmentToDebaseToken(tSupply) */\n  sstore\n    /* \"SmartContractsInterview/Token.sol\":3013:3020  pause() */\n  tag_33\n    /* \"SmartContractsInterview/Token.sol\":3013:3018  pause */\n  tag_34\n    /* \"SmartContractsInterview/Token.sol\":3013:3020  pause() */\n  jump\t// in\ntag_33:\n    /* \"SmartContractsInterview/Token.sol\":3057:3068  _tokenOwner */\n  dup4\n  sub(shl(0xa0, 0x01), 0x01)\n    /* \"SmartContractsInterview/Token.sol\":3036:3078  Transfer(address(0), _tokenOwner, tSupply) */\n  and\n    /* \"SmartContractsInterview/Token.sol\":3053:3054  0 */\n  0x00\n  sub(shl(0xa0, 0x01), 0x01)\n    /* \"SmartContractsInterview/Token.sol\":3036:3078  Transfer(address(0), _tokenOwner, tSupply) */\n  and\n  0xddf252ad1be2c89b69c2b068fc378daa952ba7f163c4a11628f55a4df523b3ef\n    /* \"SmartContractsInterview/Token.sol\":3070:3077  tSupply */\n  sload(0x06)\n    /* \"SmartContractsInterview/Token.sol\":3036:3078  Transfer(address(0), _tokenOwner, tSupply) */\n  mload(0x40)\n  tag_35\n  swap2\n    /* \"#utility.yul\":5515:5540   */\n  dup2\n  mstore\n    /* \"#utility.yul\":5503:5505   */\n  0x20\n    /* \"#utility.yul\":5488:5506   */\n  add\n  swap1\n    /* \"#utility.yul\":5369:5546   */\n  jump\n    /* \"SmartContractsInterview/Token.sol\":3036:3078  Transfer(address(0), _tokenOwner, tSupply) */\ntag_35:\n  mload(0x40)\n  dup1\n  swap2\n  sub\n  swap1\n  log3\n    /* \"SmartContractsInterview/Token.sol\":3088:3118  transferOwnership(_tokenOwner) */\n  tag_37\n    /* \"SmartContractsInterview/Token.sol\":3106:3117  _tokenOwner */\n  dup5\n    /* \"SmartContractsInterview/Token.sol\":3088:3105  transferOwnership */\n  tag_38\n    /* \"SmartContractsInterview/Token.sol\":3088:3118  transferOwnership(_tokenOwner) */\n  jump\t// in\ntag_37:\n    /* \"SmartContractsInterview/Token.sol\":1968:3125  constructor(... */\n  pop\n  pop\n  pop\n  pop\n  pop\n  pop\n  pop\n    /* \"SmartContractsInterview/Token.sol\":559:17443  contract Token is... */\n  jump(tag_126)\n    /* \"@openzeppelin/contracts/access/Ownable.sol\":2912:3099  function _transferOwnership(address newOwner) internal virtual {... */\ntag_15:\n    /* \"@openzeppelin/contracts/access/Ownable.sol\":3004:3010  _owner */\n  0x02\n  dup1\n  sload\n  sub(shl(0xa0, 0x01), 0x01)\n    /* \"@openzeppelin/contracts/access/Ownable.sol\":3020:3037  _owner = newOwner */\n  dup4\n  dup2\n  and\n  not(sub(shl(0xa0, 0x01), 0x01))\n  dup4\n  and\n  dup2\n  or\n  swap1\n  swap4\n  sstore\n    /* \"@openzeppelin/contracts/access/Ownable.sol\":3052:3092  OwnershipTransferred(oldOwner, newOwner) */\n  mload(0x40)\n    /* \"@openzeppelin/contracts/access/Ownable.sol\":3004:3010  _owner */\n  swap2\n  and\n  swap2\n    /* \"@openzeppelin/contracts/access/Ownable.sol\":3020:3037  _owner = newOwner */\n  swap1\n    /* \"@openzeppelin/contracts/access/Ownable.sol\":3004:3010  _owner */\n  dup3\n  swap1\n    /* \"@openzeppelin/contracts/access/Ownable.sol\":3052:3092  OwnershipTransferred(oldOwner, newOwner) */\n  0x8be0079c531659141344cd1fd0a4f28419497f9722a3daafe3b4186f6b6457e0\n  swap1\n    /* \"@openzeppelin/contracts/access/Ownable.sol\":2985:3001  address oldOwner */\n  0x00\n  swap1\n    /* \"@openzeppelin/contracts/access/Ownable.sol\":3052:3092  OwnershipTransferred(oldOwner, newOwner) */\n  log3\n    /* \"@openzeppelin/contracts/access/Ownable.sol\":2975:3099  {... */\n  pop\n    /* \"@openzeppelin/contracts/access/Ownable.sol\":2912:3099  function _transferOwnership(address newOwner) internal virtual {... */\n  pop\n  jump\t// out\n    /* \"SmartContractsInterview/Token.sol\":13779:14434  function _excludedFromDebasing(address _account,bool _isExcluded) public {... */\ntag_26:\n  sub(shl(0xa0, 0x01), 0x01)\n    /* \"SmartContractsInterview/Token.sol\":13879:13901  _account != address(0) */\n  dup3\n  and\n    /* \"SmartContractsInterview/Token.sol\":13871:13932  require(_account != address(0), \"Account shouldn't be zero.\") */\n  tag_42\n  jumpi\n  mload(0x40)\n  shl(0xe5, 0x461bcd)\n  dup2\n  mstore\n    /* \"#utility.yul\":5753:5755   */\n  0x20\n    /* \"SmartContractsInterview/Token.sol\":13871:13932  require(_account != address(0), \"Account shouldn't be zero.\") */\n  0x04\n  dup3\n  add\n    /* \"#utility.yul\":5735:5756   */\n  mstore\n    /* \"#utility.yul\":5792:5794   */\n  0x1a\n    /* \"#utility.yul\":5772:5790   */\n  0x24\n  dup3\n  add\n    /* \"#utility.yul\":5765:5795   */\n  mstore\n    /* \"#utility.yul\":5831:5859   */\n  0x4163636f756e742073686f756c646e2774206265207a65726f2e000000000000\n    /* \"#utility.yul\":5811:5829   */\n  0x44\n  dup3\n  add\n    /* \"#utility.yul\":5804:5860   */\n  mstore\n    /* \"#utility.yul\":5877:5895   */\n  0x64\n  add\n    /* \"SmartContractsInterview/Token.sol\":13871:13932  require(_account != address(0), \"Account shouldn't be zero.\") */\n  tag_12\n    /* \"#utility.yul\":5551:5901   */\n  jump\n    /* \"SmartContractsInterview/Token.sol\":13871:13932  require(_account != address(0), \"Account shouldn't be zero.\") */\ntag_42:\n  sub(shl(0xa0, 0x01), 0x01)\n    /* \"SmartContractsInterview/Token.sol\":13964:13996  isExcludedFromDebasing[_account] */\n  dup3\n  and\n    /* \"SmartContractsInterview/Token.sol\":13942:13961  bool prevIsExcluded */\n  0x00\n    /* \"SmartContractsInterview/Token.sol\":13964:13996  isExcludedFromDebasing[_account] */\n  swap1\n  dup2\n  mstore\n    /* \"SmartContractsInterview/Token.sol\":13964:13986  isExcludedFromDebasing */\n  0x12\n    /* \"SmartContractsInterview/Token.sol\":13964:13996  isExcludedFromDebasing[_account] */\n  0x20\n  mstore\n  0x40\n  dup2\n  keccak256\n  sload\n  0xff\n  and\n  swap1\n    /* \"SmartContractsInterview/Token.sol\":14028:14047  balanceOf(_account) */\n  tag_45\n    /* \"SmartContractsInterview/Token.sol\":13987:13995  _account */\n  dup5\n    /* \"SmartContractsInterview/Token.sol\":14028:14037  balanceOf */\n  tag_46\n    /* \"SmartContractsInterview/Token.sol\":14028:14047  balanceOf(_account) */\n  jump\t// in\ntag_45:\n    /* \"SmartContractsInterview/Token.sol\":14006:14047  uint256 prevBalance = balanceOf(_account) */\n  swap1\n  pop\n    /* \"SmartContractsInterview/Token.sol\":14089:14100  _isExcluded */\n  dup3\n    /* \"SmartContractsInterview/Token.sol\":14071:14100  prevIsExcluded != _isExcluded */\n  iszero\n  iszero\n    /* \"SmartContractsInterview/Token.sol\":14071:14085  prevIsExcluded */\n  dup3\n    /* \"SmartContractsInterview/Token.sol\":14071:14100  prevIsExcluded != _isExcluded */\n  iszero\n  iszero\n  eq\n    /* \"SmartContractsInterview/Token.sol\":14067:14428  if (prevIsExcluded != _isExcluded) {... */\n  tag_54\n  jumpi\n  sub(shl(0xa0, 0x01), 0x01)\n    /* \"SmartContractsInterview/Token.sol\":14116:14148  isExcludedFromDebasing[_account] */\n  dup5\n  and\n  0x00\n  swap1\n  dup2\n  mstore\n    /* \"SmartContractsInterview/Token.sol\":14116:14138  isExcludedFromDebasing */\n  0x12\n    /* \"SmartContractsInterview/Token.sol\":14116:14148  isExcludedFromDebasing[_account] */\n  0x20\n  mstore\n  0x40\n  swap1\n  keccak256\n    /* \"SmartContractsInterview/Token.sol\":14116:14162  isExcludedFromDebasing[_account] = _isExcluded */\n  dup1\n  sload\n  not(0xff)\n  and\n  dup5\n  iszero\n  iszero\n  or\n  swap1\n  sstore\n    /* \"SmartContractsInterview/Token.sol\":14185:14200  !prevIsExcluded */\n  dup2\n  iszero\n    /* \"SmartContractsInterview/Token.sol\":14185:14215  !prevIsExcluded && _isExcluded */\n  dup1\n  iszero\n  tag_48\n  jumpi\n  pop\n    /* \"SmartContractsInterview/Token.sol\":14204:14215  _isExcluded */\n  dup3\n    /* \"SmartContractsInterview/Token.sol\":14185:14215  !prevIsExcluded && _isExcluded */\ntag_48:\n    /* \"SmartContractsInterview/Token.sol\":14181:14418  if (!prevIsExcluded && _isExcluded) {... */\n  iszero\n  tag_49\n  jumpi\n    /* \"SmartContractsInterview/Token.sol\":14263:14274  prevBalance */\n  dup1\n    /* \"SmartContractsInterview/Token.sol\":14238:14259  excludeDebasingSupply */\n  0x07\n  0x00\n    /* \"SmartContractsInterview/Token.sol\":14238:14274  excludeDebasingSupply += prevBalance */\n  dup3\n  dup3\n  sload\n  tag_50\n  swap2\n  swap1\n  tag_51\n  jump\t// in\ntag_50:\n  swap1\n  swap2\n  sstore\n  pop\n    /* \"SmartContractsInterview/Token.sol\":14181:14418  if (!prevIsExcluded && _isExcluded) {... */\n  tag_54\n  swap1\n  pop\n  jump\ntag_49:\n    /* \"SmartContractsInterview/Token.sol\":14316:14330  prevIsExcluded */\n  dup2\n    /* \"SmartContractsInterview/Token.sol\":14316:14346  prevIsExcluded && !_isExcluded */\n  dup1\n  iszero\n  tag_53\n  jumpi\n  pop\n    /* \"SmartContractsInterview/Token.sol\":14335:14346  _isExcluded */\n  dup3\n    /* \"SmartContractsInterview/Token.sol\":14334:14346  !_isExcluded */\n  iszero\n    /* \"SmartContractsInterview/Token.sol\":14316:14346  prevIsExcluded && !_isExcluded */\ntag_53:\n    /* \"SmartContractsInterview/Token.sol\":14312:14418  if (prevIsExcluded && !_isExcluded) {... */\n  iszero\n  tag_54\n  jumpi\n    /* \"SmartContractsInterview/Token.sol\":14392:14403  prevBalance */\n  dup1\n    /* \"SmartContractsInterview/Token.sol\":14367:14388  excludeDebasingSupply */\n  0x07\n  0x00\n    /* \"SmartContractsInterview/Token.sol\":14367:14403  excludeDebasingSupply -= prevBalance */\n  dup3\n  dup3\n  sload\n  tag_55\n  swap2\n  swap1\n  tag_56\n  jump\t// in\ntag_55:\n  swap1\n  swap2\n  sstore\n  pop\n  pop\n    /* \"SmartContractsInterview/Token.sol\":14312:14418  if (prevIsExcluded && !_isExcluded) {... */\ntag_54:\n    /* \"SmartContractsInterview/Token.sol\":13852:14434  {... */\n  pop\n  pop\n    /* \"SmartContractsInterview/Token.sol\":13779:14434  function _excludedFromDebasing(address _account,bool _isExcluded) public {... */\n  pop\n  pop\n  jump\t// out\n    /* \"SmartContractsInterview/Token.sol\":14802:15026  function _excludedFromHoldingLimit(address _account,bool _isExcluded) public {... */\ntag_28:\n  sub(shl(0xa0, 0x01), 0x01)\n    /* \"SmartContractsInterview/Token.sol\":14906:14928  _account != address(0) */\n  dup3\n  and\n    /* \"SmartContractsInterview/Token.sol\":14898:14959  require(_account != address(0), \"Account shouldn't be zero.\") */\n  tag_58\n  jumpi\n  mload(0x40)\n  shl(0xe5, 0x461bcd)\n  dup2\n  mstore\n    /* \"#utility.yul\":5753:5755   */\n  0x20\n    /* \"SmartContractsInterview/Token.sol\":14898:14959  require(_account != address(0), \"Account shouldn't be zero.\") */\n  0x04\n  dup3\n  add\n    /* \"#utility.yul\":5735:5756   */\n  mstore\n    /* \"#utility.yul\":5792:5794   */\n  0x1a\n    /* \"#utility.yul\":5772:5790   */\n  0x24\n  dup3\n  add\n    /* \"#utility.yul\":5765:5795   */\n  mstore\n    /* \"#utility.yul\":5831:5859   */\n  0x4163636f756e742073686f756c646e2774206265207a65726f2e000000000000\n    /* \"#utility.yul\":5811:5829   */\n  0x44\n  dup3\n  add\n    /* \"#utility.yul\":5804:5860   */\n  mstore\n    /* \"#utility.yul\":5877:5895   */\n  0x64\n  add\n    /* \"SmartContractsInterview/Token.sol\":14898:14959  require(_account != address(0), \"Account shouldn't be zero.\") */\n  tag_12\n    /* \"#utility.yul\":5551:5901   */\n  jump\n    /* \"SmartContractsInterview/Token.sol\":14898:14959  require(_account != address(0), \"Account shouldn't be zero.\") */\ntag_58:\n  sub(shl(0xa0, 0x01), 0x01)\n    /* \"SmartContractsInterview/Token.sol\":14969:15005  isExcludedFromHoldingLimit[_account] */\n  swap2\n  swap1\n  swap2\n  and\n  0x00\n  swap1\n  dup2\n  mstore\n    /* \"SmartContractsInterview/Token.sol\":14969:14995  isExcludedFromHoldingLimit */\n  0x13\n    /* \"SmartContractsInterview/Token.sol\":14969:15005  isExcludedFromHoldingLimit[_account] */\n  0x20\n  mstore\n  0x40\n  swap1\n  keccak256\n    /* \"SmartContractsInterview/Token.sol\":14969:15019  isExcludedFromHoldingLimit[_account] = _isExcluded */\n  dup1\n  sload\n  not(0xff)\n  and\n  swap2\n  iszero\n  iszero\n  swap2\n  swap1\n  swap2\n  or\n  swap1\n  sstore\n    /* \"SmartContractsInterview/Token.sol\":14802:15026  function _excludedFromHoldingLimit(address _account,bool _isExcluded) public {... */\n  jump\t// out\n    /* \"SmartContractsInterview/Token.sol\":12297:12452  function _fragmentToDebaseToken(uint256 _value) public pure returns (uint256) {... */\ntag_32:\n    /* \"SmartContractsInterview/Token.sol\":12366:12373  uint256 */\n  0x00\n    /* \"SmartContractsInterview/Token.sol\":12392:12445  _value.mul(TOKEN_public_DECIMALS).div(TOKEN_DECIMALS) */\n  tag_61\n    /* \"SmartContractsInterview/Token.sol\":860:864  1e18 */\n  0x0de0b6b3a7640000\n    /* \"SmartContractsInterview/Token.sol\":12392:12425  _value.mul(TOKEN_public_DECIMALS) */\n  tag_62\n    /* \"SmartContractsInterview/Token.sol\":12392:12398  _value */\n  dup5\n    /* \"SmartContractsInterview/Token.sol\":918:922  1e24 */\n  0xd3c21bcecceda1000000\n    /* \"SmartContractsInterview/Token.sol\":12392:12402  _value.mul */\n  tag_63\n    /* \"SmartContractsInterview/Token.sol\":12392:12425  _value.mul(TOKEN_public_DECIMALS) */\n  jump\t// in\ntag_62:\n    /* \"SmartContractsInterview/Token.sol\":12392:12429  _value.mul(TOKEN_public_DECIMALS).div */\n  swap1\n  tag_64\n    /* \"SmartContractsInterview/Token.sol\":12392:12445  _value.mul(TOKEN_public_DECIMALS).div(TOKEN_DECIMALS) */\n  jump\t// in\ntag_61:\n    /* \"SmartContractsInterview/Token.sol\":12385:12445  return _value.mul(TOKEN_public_DECIMALS).div(TOKEN_DECIMALS) */\n  swap3\n    /* \"SmartContractsInterview/Token.sol\":12297:12452  function _fragmentToDebaseToken(uint256 _value) public pure returns (uint256) {... */\n  swap2\n  pop\n  pop\n  jump\t// out\n    /* \"SmartContractsInterview/Token.sol\":16965:17024  function pause() public onlyOwner {... */\ntag_34:\n    /* \"@openzeppelin/contracts/access/Ownable.sol\":1531:1544  _checkOwner() */\n  tag_66\n    /* \"@openzeppelin/contracts/access/Ownable.sol\":1531:1542  _checkOwner */\n  tag_67\n    /* \"@openzeppelin/contracts/access/Ownable.sol\":1531:1544  _checkOwner() */\n  jump\t// in\ntag_66:\n    /* \"SmartContractsInterview/Token.sol\":17009:17017  _pause() */\n  tag_69\n    /* \"SmartContractsInterview/Token.sol\":17009:17015  _pause */\n  tag_70\n    /* \"SmartContractsInterview/Token.sol\":17009:17017  _pause() */\n  jump\t// in\ntag_69:\n    /* \"SmartContractsInterview/Token.sol\":16965:17024  function pause() public onlyOwner {... */\n  jump\t// out\n    /* \"@openzeppelin/contracts/access/Ownable.sol\":2543:2758  function transferOwnership(address newOwner) public virtual onlyOwner {... */\ntag_38:\n    /* \"@openzeppelin/contracts/access/Ownable.sol\":1531:1544  _checkOwner() */\n  tag_72\n    /* \"@openzeppelin/contracts/access/Ownable.sol\":1531:1542  _checkOwner */\n  tag_67\n    /* \"@openzeppelin/contracts/access/Ownable.sol\":1531:1544  _checkOwner() */\n  jump\t// in\ntag_72:\n  sub(shl(0xa0, 0x01), 0x01)\n    /* \"@openzeppelin/contracts/access/Ownable.sol\":2627:2649  newOwner == address(0) */\n  dup2\n  and\n    /* \"@openzeppelin/contracts/access/Ownable.sol\":2623:2714  if (newOwner == address(0)) {... */\n  tag_74\n  jumpi\n    /* \"@openzeppelin/contracts/access/Ownable.sol\":2672:2703  OwnableInvalidOwner(address(0)) */\n  mload(0x40)\n  shl(0xe0, 0x1e4fbdf7)\n  dup2\n  mstore\n    /* \"@openzeppelin/contracts/access/Ownable.sol\":2700:2701  0 */\n  0x00\n    /* \"@openzeppelin/contracts/access/Ownable.sol\":2672:2703  OwnableInvalidOwner(address(0)) */\n  0x04\n  dup3\n  add\n    /* \"#utility.yul\":2271:2322   */\n  mstore\n    /* \"#utility.yul\":2244:2262   */\n  0x24\n  add\n    /* \"@openzeppelin/contracts/access/Ownable.sol\":2672:2703  OwnableInvalidOwner(address(0)) */\n  tag_12\n    /* \"#utility.yul\":2125:2328   */\n  jump\n    /* \"@openzeppelin/contracts/access/Ownable.sol\":2623:2714  if (newOwner == address(0)) {... */\ntag_74:\n    /* \"@openzeppelin/contracts/access/Ownable.sol\":2723:2751  _transferOwnership(newOwner) */\n  tag_76\n    /* \"@openzeppelin/contracts/access/Ownable.sol\":2742:2750  newOwner */\n  dup2\n    /* \"@openzeppelin/contracts/access/Ownable.sol\":2723:2741  _transferOwnership */\n  tag_15\n    /* \"@openzeppelin/contracts/access/Ownable.sol\":2723:2751  _transferOwnership(newOwner) */\n  jump\t// in\ntag_76:\n    /* \"@openzeppelin/contracts/access/Ownable.sol\":2543:2758  function transferOwnership(address newOwner) public virtual onlyOwner {... */\n  pop\n  jump\t// out\n    /* \"SmartContractsInterview/Token.sol\":3675:4059  function balanceOf(... */\ntag_46:\n  sub(shl(0xa0, 0x01), 0x01)\n    /* \"SmartContractsInterview/Token.sol\":3779:3811  isExcludedFromDebasing[_account] */\n  dup2\n  and\n    /* \"SmartContractsInterview/Token.sol\":3756:3763  uint256 */\n  0x00\n    /* \"SmartContractsInterview/Token.sol\":3779:3811  isExcludedFromDebasing[_account] */\n  swap1\n  dup2\n  mstore\n    /* \"SmartContractsInterview/Token.sol\":3779:3801  isExcludedFromDebasing */\n  0x12\n    /* \"SmartContractsInterview/Token.sol\":3779:3811  isExcludedFromDebasing[_account] */\n  0x20\n  mstore\n  0x40\n  dup2\n  keccak256\n  sload\n  0xff\n  and\n    /* \"SmartContractsInterview/Token.sol\":3775:3993  if (isExcludedFromDebasing[_account]) {... */\n  iszero\n  tag_79\n  jumpi\n    /* \"SmartContractsInterview/Token.sol\":3843:3857  treasuryWallet */\n  sload(0x0b)\n  sub(shl(0xa0, 0x01), 0x01)\n  swap1\n  dup2\n  and\n    /* \"SmartContractsInterview/Token.sol\":3831:3857  _account == treasuryWallet */\n  swap1\n  dup4\n  and\n  sub\n    /* \"SmartContractsInterview/Token.sol\":3827:3919  if (_account == treasuryWallet) {... */\n  tag_79\n  jumpi\n    /* \"SmartContractsInterview/Token.sol\":3884:3904  _treasuryBalanceOf() */\n  tag_61\n    /* \"SmartContractsInterview/Token.sol\":3884:3902  _treasuryBalanceOf */\n  tag_81\n    /* \"SmartContractsInterview/Token.sol\":3884:3904  _treasuryBalanceOf() */\n  jump\t// in\n    /* \"SmartContractsInterview/Token.sol\":3827:3919  if (_account == treasuryWallet) {... */\ntag_79:\n  sub(shl(0xa0, 0x01), 0x01)\n    /* \"SmartContractsInterview/Token.sol\":3962:3981  _balances[_account] */\n  dup3\n  and\n  0x00\n  swap1\n  dup2\n  mstore\n    /* \"SmartContractsInterview/Token.sol\":3962:3971  _balances */\n  0x09\n    /* \"SmartContractsInterview/Token.sol\":3962:3981  _balances[_account] */\n  0x20\n  mstore\n  0x40\n  swap1\n  keccak256\n  sload\n    /* \"SmartContractsInterview/Token.sol\":3939:3982  _debaseTokenToFragment(_balances[_account]) */\n  tag_61\n  swap1\n    /* \"SmartContractsInterview/Token.sol\":3939:3961  _debaseTokenToFragment */\n  tag_83\n    /* \"SmartContractsInterview/Token.sol\":3939:3982  _debaseTokenToFragment(_balances[_account]) */\n  jump\t// in\n    /* \"@openzeppelin/contracts/utils/math/SafeMath.sol\":3465:3561  function mul(uint256 a, uint256 b) internal pure returns (uint256) {... */\ntag_63:\n    /* \"@openzeppelin/contracts/utils/math/SafeMath.sol\":3523:3530  uint256 */\n  0x00\n    /* \"@openzeppelin/contracts/utils/math/SafeMath.sol\":3549:3554  a * b */\n  tag_86\n    /* \"@openzeppelin/contracts/utils/math/SafeMath.sol\":3553:3554  b */\n  dup3\n    /* \"@openzeppelin/contracts/utils/math/SafeMath.sol\":3549:3550  a */\n  dup5\n    /* \"@openzeppelin/contracts/utils/math/SafeMath.sol\":3549:3554  a * b */\n  tag_21\n  jump\t// in\ntag_86:\n    /* \"@openzeppelin/contracts/utils/math/SafeMath.sol\":3542:3554  return a * b */\n  swap4\n    /* \"@openzeppelin/contracts/utils/math/SafeMath.sol\":3465:3561  function mul(uint256 a, uint256 b) internal pure returns (uint256) {... */\n  swap3\n  pop\n  pop\n  pop\n  jump\t// out\n    /* \"@openzeppelin/contracts/utils/math/SafeMath.sol\":3850:3946  function div(uint256 a, uint256 b) internal pure returns (uint256) {... */\ntag_64:\n    /* \"@openzeppelin/contracts/utils/math/SafeMath.sol\":3908:3915  uint256 */\n  0x00\n    /* \"@openzeppelin/contracts/utils/math/SafeMath.sol\":3934:3939  a / b */\n  tag_86\n    /* \"@openzeppelin/contracts/utils/math/SafeMath.sol\":3938:3939  b */\n  dup3\n    /* \"@openzeppelin/contracts/utils/math/SafeMath.sol\":3934:3935  a */\n  dup5\n    /* \"@openzeppelin/contracts/utils/math/SafeMath.sol\":3934:3939  a / b */\n  tag_24\n  jump\t// in\n    /* \"@openzeppelin/contracts/access/Ownable.sol\":1796:1958  function _checkOwner() internal view virtual {... */\ntag_67:\n    /* \"@openzeppelin/contracts/access/Ownable.sol\":1710:1716  _owner */\n  and(sub(shl(0xa0, 0x01), 0x01), sload(0x02))\n    /* \"@openzeppelin/contracts/utils/Context.sol\":735:745  msg.sender */\n  caller\n    /* \"@openzeppelin/contracts/access/Ownable.sol\":1855:1878  owner() != _msgSender() */\n  eq\n    /* \"@openzeppelin/contracts/access/Ownable.sol\":1851:1952  if (owner() != _msgSender()) {... */\n  tag_69\n  jumpi\n    /* \"@openzeppelin/contracts/access/Ownable.sol\":1901:1941  OwnableUnauthorizedAccount(_msgSender()) */\n  mload(0x40)\n  shl(0xe0, 0x118cdaa7)\n  dup2\n  mstore\n    /* \"@openzeppelin/contracts/utils/Context.sol\":735:745  msg.sender */\n  caller\n    /* \"@openzeppelin/contracts/access/Ownable.sol\":1901:1941  OwnableUnauthorizedAccount(_msgSender()) */\n  0x04\n  dup3\n  add\n    /* \"#utility.yul\":2271:2322   */\n  mstore\n    /* \"#utility.yul\":2244:2262   */\n  0x24\n  add\n    /* \"@openzeppelin/contracts/access/Ownable.sol\":1901:1941  OwnableUnauthorizedAccount(_msgSender()) */\n  tag_12\n    /* \"#utility.yul\":2125:2328   */\n  jump\n    /* \"@openzeppelin/contracts/security/Pausable.sol\":2186:2301  function _pause() internal virtual whenNotPaused {... */\ntag_70:\n    /* \"@openzeppelin/contracts/security/Pausable.sol\":1239:1258  _requireNotPaused() */\n  tag_98\n    /* \"@openzeppelin/contracts/security/Pausable.sol\":1239:1256  _requireNotPaused */\n  tag_99\n    /* \"@openzeppelin/contracts/security/Pausable.sol\":1239:1258  _requireNotPaused() */\n  jump\t// in\ntag_98:\n    /* \"@openzeppelin/contracts/security/Pausable.sol\":2245:2252  _paused */\n  0x00\n    /* \"@openzeppelin/contracts/security/Pausable.sol\":2245:2259  _paused = true */\n  dup1\n  sload\n  not(0xff)\n  and\n    /* \"@openzeppelin/contracts/security/Pausable.sol\":2255:2259  true */\n  0x01\n    /* \"@openzeppelin/contracts/security/Pausable.sol\":2245:2259  _paused = true */\n  or\n  swap1\n  sstore\n    /* \"@openzeppelin/contracts/security/Pausable.sol\":2274:2294  Paused(_msgSender()) */\n  0x62e78cea01bee320cd4e420270b5ea74000d11b0c9f74754ebdbfc544b05a258\n    /* \"@openzeppelin/contracts/security/Pausable.sol\":2281:2293  _msgSender() */\n  tag_101\n    /* \"@openzeppelin/contracts/utils/Context.sol\":735:745  msg.sender */\n  caller\n  swap1\n    /* \"@openzeppelin/contracts/utils/Context.sol\":656:752  function _msgSender() internal view virtual returns (address) {... */\n  jump\n    /* \"@openzeppelin/contracts/security/Pausable.sol\":2281:2293  _msgSender() */\ntag_101:\n    /* \"@openzeppelin/contracts/security/Pausable.sol\":2274:2294  Paused(_msgSender()) */\n  mload(0x40)\n  sub(shl(0xa0, 0x01), 0x01)\n    /* \"#utility.yul\":2289:2321   */\n  swap1\n  swap2\n  and\n    /* \"#utility.yul\":2271:2322   */\n  dup2\n  mstore\n    /* \"#utility.yul\":2259:2261   */\n  0x20\n    /* \"#utility.yul\":2244:2262   */\n  add\n    /* \"@openzeppelin/contracts/security/Pausable.sol\":2274:2294  Paused(_msgSender()) */\n  mload(0x40)\n  dup1\n  swap2\n  sub\n  swap1\n  log1\n    /* \"@openzeppelin/contracts/security/Pausable.sol\":2186:2301  function _pause() internal virtual whenNotPaused {... */\n  jump\t// out\n    /* \"SmartContractsInterview/Token.sol\":17225:17441  function _treasuryBalanceOf() public view returns (uint256) {... */\ntag_81:\n    /* \"SmartContractsInterview/Token.sol\":17363:17377  treasuryWallet */\n  and(sub(shl(0xa0, 0x01), 0x01), sload(0x0b))\n    /* \"SmartContractsInterview/Token.sol\":17276:17283  uint256 */\n  0x00\n    /* \"SmartContractsInterview/Token.sol\":17353:17378  _balances[treasuryWallet] */\n  swap1\n  dup2\n  mstore\n    /* \"SmartContractsInterview/Token.sol\":17353:17362  _balances */\n  0x09\n    /* \"SmartContractsInterview/Token.sol\":17353:17378  _balances[treasuryWallet] */\n  0x20\n  mstore\n  0x40\n  dup2\n  keccak256\n  sload\n    /* \"SmartContractsInterview/Token.sol\":17276:17283  uint256 */\n  dup2\n  swap1\n    /* \"SmartContractsInterview/Token.sol\":17317:17388  _debaseTokenToFragment(... */\n  tag_104\n  swap1\n    /* \"SmartContractsInterview/Token.sol\":17317:17339  _debaseTokenToFragment */\n  tag_83\n    /* \"SmartContractsInterview/Token.sol\":17317:17388  _debaseTokenToFragment(... */\n  jump\t// in\ntag_104:\n    /* \"SmartContractsInterview/Token.sol\":17295:17388  uint256 realBalance = _debaseTokenToFragment(... */\n  swap1\n  pop\n    /* \"SmartContractsInterview/Token.sol\":17423:17434  realBalance */\n  dup1\n    /* \"SmartContractsInterview/Token.sol\":17405:17420  treasuryBalance */\n  sload(0x0a)\n    /* \"SmartContractsInterview/Token.sol\":17405:17434  treasuryBalance + realBalance */\n  tag_105\n  swap2\n  swap1\n  tag_51\n  jump\t// in\ntag_105:\n    /* \"SmartContractsInterview/Token.sol\":17398:17434  return treasuryBalance + realBalance */\n  swap2\n  pop\n  pop\n    /* \"SmartContractsInterview/Token.sol\":17225:17441  function _treasuryBalanceOf() public view returns (uint256) {... */\n  swap1\n  jump\t// out\n    /* \"SmartContractsInterview/Token.sol\":12116:12287  function _debaseTokenToFragment(uint256 _debaseToken) public view returns (uint256) {... */\ntag_83:\n    /* \"SmartContractsInterview/Token.sol\":12191:12198  uint256 */\n  0x00\n    /* \"SmartContractsInterview/Token.sol\":12217:12280  _debaseToken.mul(tokenScalingFactor).div(TOKEN_public_DECIMALS) */\n  tag_61\n    /* \"SmartContractsInterview/Token.sol\":918:922  1e24 */\n  0xd3c21bcecceda1000000\n    /* \"SmartContractsInterview/Token.sol\":12217:12253  _debaseToken.mul(tokenScalingFactor) */\n  tag_62\n    /* \"SmartContractsInterview/Token.sol\":12234:12252  tokenScalingFactor */\n  sload(0x0e)\n    /* \"SmartContractsInterview/Token.sol\":12217:12229  _debaseToken */\n  dup6\n    /* \"SmartContractsInterview/Token.sol\":12217:12233  _debaseToken.mul */\n  shl(0x20, tag_63)\n  swap1\n    /* \"SmartContractsInterview/Token.sol\":12217:12253  _debaseToken.mul(tokenScalingFactor) */\n  swap2\n  swap1\n  0x20\n  shr\n  jump\t// in\n    /* \"@openzeppelin/contracts/security/Pausable.sol\":1767:1873  function _requireNotPaused() internal view virtual {... */\ntag_99:\n    /* \"@openzeppelin/contracts/security/Pausable.sol\":1662:1666  bool */\n  0x00\n    /* \"@openzeppelin/contracts/security/Pausable.sol\":1685:1692  _paused */\n  sload\n  0xff\n  and\n    /* \"@openzeppelin/contracts/security/Pausable.sol\":1836:1845  !paused() */\n  iszero\n    /* \"@openzeppelin/contracts/security/Pausable.sol\":1828:1866  require(!paused(), \"Pausable: paused\") */\n  tag_69\n  jumpi\n  mload(0x40)\n  shl(0xe5, 0x461bcd)\n  dup2\n  mstore\n    /* \"#utility.yul\":6371:6373   */\n  0x20\n    /* \"@openzeppelin/contracts/security/Pausable.sol\":1828:1866  require(!paused(), \"Pausable: paused\") */\n  0x04\n  dup3\n  add\n    /* \"#utility.yul\":6353:6374   */\n  mstore\n    /* \"#utility.yul\":6410:6412   */\n  0x10\n    /* \"#utility.yul\":6390:6408   */\n  0x24\n  dup3\n  add\n    /* \"#utility.yul\":6383:6413   */\n  mstore\n  shl(0x82, 0x14185d5cd8589b194e881c185d5cd959)\n    /* \"#utility.yul\":6429:6447   */\n  0x44\n  dup3\n  add\n    /* \"#utility.yul\":6422:6468   */\n  mstore\n    /* \"#utility.yul\":6485:6503   */\n  0x64\n  add\n    /* \"@openzeppelin/contracts/security/Pausable.sol\":1828:1866  require(!paused(), \"Pausable: paused\") */\n  tag_12\n    /* \"#utility.yul\":6169:6509   */\n  jump\n    /* \"#utility.yul\":14:141   */\ntag_118:\n    /* \"#utility.yul\":75:85   */\n  0x4e487b71\n    /* \"#utility.yul\":70:73   */\n  0xe0\n    /* \"#utility.yul\":66:86   */\n  shl\n    /* \"#utility.yul\":63:64   */\n  0x00\n    /* \"#utility.yul\":56:87   */\n  mstore\n    /* \"#utility.yul\":106:110   */\n  0x41\n    /* \"#utility.yul\":103:104   */\n  0x04\n    /* \"#utility.yul\":96:111   */\n  mstore\n    /* \"#utility.yul\":130:134   */\n  0x24\n    /* \"#utility.yul\":127:128   */\n  0x00\n    /* \"#utility.yul\":120:135   */\n  revert\n    /* \"#utility.yul\":146:869   */\ntag_119:\n    /* \"#utility.yul\":200:205   */\n  0x00\n    /* \"#utility.yul\":253:256   */\n  dup3\n    /* \"#utility.yul\":246:250   */\n  0x1f\n    /* \"#utility.yul\":238:244   */\n  dup4\n    /* \"#utility.yul\":234:251   */\n  add\n    /* \"#utility.yul\":230:257   */\n  slt\n    /* \"#utility.yul\":220:275   */\n  tag_129\n  jumpi\n    /* \"#utility.yul\":271:272   */\n  0x00\n    /* \"#utility.yul\":268:269   */\n  dup1\n    /* \"#utility.yul\":261:273   */\n  revert\n    /* \"#utility.yul\":220:275   */\ntag_129:\n    /* \"#utility.yul\":298:311   */\n  dup2\n  mload\n  sub(shl(0x40, 0x01), 0x01)\n    /* \"#utility.yul\":323:353   */\n  dup2\n  gt\n    /* \"#utility.yul\":320:376   */\n  iszero\n  tag_131\n  jumpi\n    /* \"#utility.yul\":356:374   */\n  tag_131\n  tag_118\n  jump\t// in\ntag_131:\n    /* \"#utility.yul\":405:407   */\n  0x40\n    /* \"#utility.yul\":399:408   */\n  mload\n    /* \"#utility.yul\":497:499   */\n  0x1f\n    /* \"#utility.yul\":459:476   */\n  dup3\n  add\n  not(0x1f)\n    /* \"#utility.yul\":455:486   */\n  swap1\n  dup2\n  and\n    /* \"#utility.yul\":488:490   */\n  0x3f\n    /* \"#utility.yul\":451:491   */\n  add\n    /* \"#utility.yul\":447:501   */\n  and\n    /* \"#utility.yul\":435:502   */\n  dup2\n  add\n  sub(shl(0x40, 0x01), 0x01)\n    /* \"#utility.yul\":517:551   */\n  dup2\n  gt\n    /* \"#utility.yul\":553:575   */\n  dup3\n  dup3\n  lt\n    /* \"#utility.yul\":514:576   */\n  or\n    /* \"#utility.yul\":511:599   */\n  iszero\n  tag_133\n  jumpi\n    /* \"#utility.yul\":579:597   */\n  tag_133\n  tag_118\n  jump\t// in\ntag_133:\n    /* \"#utility.yul\":615:617   */\n  0x40\n    /* \"#utility.yul\":608:630   */\n  mstore\n    /* \"#utility.yul\":639:661   */\n  dup2\n  dup2\n  mstore\n    /* \"#utility.yul\":680:699   */\n  dup4\n  dup3\n  add\n    /* \"#utility.yul\":701:705   */\n  0x20\n    /* \"#utility.yul\":676:706   */\n  add\n    /* \"#utility.yul\":673:712   */\n  dup6\n  lt\n    /* \"#utility.yul\":670:729   */\n  iszero\n  tag_134\n  jumpi\n    /* \"#utility.yul\":725:726   */\n  0x00\n    /* \"#utility.yul\":722:723   */\n  dup1\n    /* \"#utility.yul\":715:727   */\n  revert\n    /* \"#utility.yul\":670:729   */\ntag_134:\n    /* \"#utility.yul\":782:788   */\n  dup2\n    /* \"#utility.yul\":775:779   */\n  0x20\n    /* \"#utility.yul\":767:773   */\n  dup6\n    /* \"#utility.yul\":763:780   */\n  add\n    /* \"#utility.yul\":756:760   */\n  0x20\n    /* \"#utility.yul\":748:754   */\n  dup4\n    /* \"#utility.yul\":744:761   */\n  add\n    /* \"#utility.yul\":738:789   */\n  mcopy\n    /* \"#utility.yul\":837:838   */\n  0x00\n    /* \"#utility.yul\":809:828   */\n  swap2\n  dup2\n  add\n    /* \"#utility.yul\":830:834   */\n  0x20\n    /* \"#utility.yul\":805:835   */\n  add\n    /* \"#utility.yul\":798:839   */\n  swap2\n  swap1\n  swap2\n  mstore\n    /* \"#utility.yul\":813:819   */\n  swap4\n    /* \"#utility.yul\":146:869   */\n  swap3\n  pop\n  pop\n  pop\n  jump\t// out\n    /* \"#utility.yul\":874:1051   */\ntag_120:\n    /* \"#utility.yul\":953:966   */\n  dup1\n  mload\n  sub(shl(0xa0, 0x01), 0x01)\n    /* \"#utility.yul\":995:1026   */\n  dup2\n  and\n    /* \"#utility.yul\":985:1027   */\n  dup2\n  eq\n    /* \"#utility.yul\":975:1045   */\n  tag_136\n  jumpi\n    /* \"#utility.yul\":1041:1042   */\n  0x00\n    /* \"#utility.yul\":1038:1039   */\n  dup1\n    /* \"#utility.yul\":1031:1043   */\n  revert\n    /* \"#utility.yul\":975:1045   */\ntag_136:\n    /* \"#utility.yul\":874:1051   */\n  swap2\n  swap1\n  pop\n  jump\t// out\n    /* \"#utility.yul\":1056:2120   */\ntag_3:\n    /* \"#utility.yul\":1200:1206   */\n  0x00\n    /* \"#utility.yul\":1208:1214   */\n  dup1\n    /* \"#utility.yul\":1216:1222   */\n  0x00\n    /* \"#utility.yul\":1224:1230   */\n  dup1\n    /* \"#utility.yul\":1232:1238   */\n  0x00\n    /* \"#utility.yul\":1240:1246   */\n  dup1\n    /* \"#utility.yul\":1248:1254   */\n  0x00\n    /* \"#utility.yul\":1301:1304   */\n  0xe0\n    /* \"#utility.yul\":1289:1298   */\n  dup9\n    /* \"#utility.yul\":1280:1287   */\n  dup11\n    /* \"#utility.yul\":1276:1299   */\n  sub\n    /* \"#utility.yul\":1272:1305   */\n  slt\n    /* \"#utility.yul\":1269:1322   */\n  iszero\n  tag_138\n  jumpi\n    /* \"#utility.yul\":1318:1319   */\n  0x00\n    /* \"#utility.yul\":1315:1316   */\n  dup1\n    /* \"#utility.yul\":1308:1320   */\n  revert\n    /* \"#utility.yul\":1269:1322   */\ntag_138:\n    /* \"#utility.yul\":1345:1361   */\n  dup8\n  mload\n  sub(shl(0x40, 0x01), 0x01)\n    /* \"#utility.yul\":1373:1403   */\n  dup2\n  gt\n    /* \"#utility.yul\":1370:1420   */\n  iszero\n  tag_139\n  jumpi\n    /* \"#utility.yul\":1416:1417   */\n  0x00\n    /* \"#utility.yul\":1413:1414   */\n  dup1\n    /* \"#utility.yul\":1406:1418   */\n  revert\n    /* \"#utility.yul\":1370:1420   */\ntag_139:\n    /* \"#utility.yul\":1439:1500   */\n  tag_140\n    /* \"#utility.yul\":1492:1499   */\n  dup11\n    /* \"#utility.yul\":1483:1489   */\n  dup3\n    /* \"#utility.yul\":1472:1481   */\n  dup12\n    /* \"#utility.yul\":1468:1490   */\n  add\n    /* \"#utility.yul\":1439:1500   */\n  tag_119\n  jump\t// in\ntag_140:\n    /* \"#utility.yul\":1546:1548   */\n  0x20\n    /* \"#utility.yul\":1531:1549   */\n  dup11\n  add\n    /* \"#utility.yul\":1525:1550   */\n  mload\n    /* \"#utility.yul\":1429:1500   */\n  swap1\n  swap9\n  pop\n    /* \"#utility.yul\":1525:1550   */\n  swap1\n  pop\n  sub(shl(0x40, 0x01), 0x01)\n    /* \"#utility.yul\":1562:1594   */\n  dup2\n  gt\n    /* \"#utility.yul\":1559:1611   */\n  iszero\n  tag_141\n  jumpi\n    /* \"#utility.yul\":1607:1608   */\n  0x00\n    /* \"#utility.yul\":1604:1605   */\n  dup1\n    /* \"#utility.yul\":1597:1609   */\n  revert\n    /* \"#utility.yul\":1559:1611   */\ntag_141:\n    /* \"#utility.yul\":1630:1693   */\n  tag_142\n    /* \"#utility.yul\":1685:1692   */\n  dup11\n    /* \"#utility.yul\":1674:1682   */\n  dup3\n    /* \"#utility.yul\":1663:1672   */\n  dup12\n    /* \"#utility.yul\":1659:1683   */\n  add\n    /* \"#utility.yul\":1630:1693   */\n  tag_119\n  jump\t// in\ntag_142:\n    /* \"#utility.yul\":1755:1757   */\n  0x40\n    /* \"#utility.yul\":1740:1758   */\n  dup11\n  add\n    /* \"#utility.yul\":1734:1759   */\n  mload\n    /* \"#utility.yul\":1620:1693   */\n  swap1\n  swap8\n  pop\n    /* \"#utility.yul\":1734:1759   */\n  swap6\n  pop\n    /* \"#utility.yul\":1802:1851   */\n  tag_143\n  swap1\n  pop\n    /* \"#utility.yul\":1847:1849   */\n  0x60\n    /* \"#utility.yul\":1832:1850   */\n  dup10\n  add\n    /* \"#utility.yul\":1802:1851   */\n  tag_120\n  jump\t// in\ntag_143:\n    /* \"#utility.yul\":1917:1920   */\n  0x80\n    /* \"#utility.yul\":1902:1921   */\n  dup10\n  add\n    /* \"#utility.yul\":1896:1922   */\n  mload\n    /* \"#utility.yul\":2014:2017   */\n  0xa0\n    /* \"#utility.yul\":1999:2018   */\n  dup11\n  add\n    /* \"#utility.yul\":1993:2019   */\n  mload\n    /* \"#utility.yul\":1792:1851   */\n  swap2\n  swap6\n  pop\n    /* \"#utility.yul\":1896:1922   */\n  swap4\n  pop\n    /* \"#utility.yul\":1993:2019   */\n  swap2\n  pop\n    /* \"#utility.yul\":2064:2114   */\n  tag_144\n    /* \"#utility.yul\":2109:2112   */\n  0xc0\n    /* \"#utility.yul\":2094:2113   */\n  dup10\n  add\n    /* \"#utility.yul\":2064:2114   */\n  tag_120\n  jump\t// in\ntag_144:\n    /* \"#utility.yul\":2054:2114   */\n  swap1\n  pop\n    /* \"#utility.yul\":1056:2120   */\n  swap3\n  swap6\n  swap9\n  swap2\n  swap5\n  swap8\n  pop\n  swap3\n  swap6\n  pop\n  jump\t// out\n    /* \"#utility.yul\":2333:2713   */\ntag_121:\n    /* \"#utility.yul\":2412:2413   */\n  0x01\n    /* \"#utility.yul\":2408:2420   */\n  dup2\n  dup2\n  shr\n  swap1\n    /* \"#utility.yul\":2455:2467   */\n  dup3\n  and\n  dup1\n    /* \"#utility.yul\":2476:2537   */\n  tag_147\n  jumpi\n    /* \"#utility.yul\":2530:2534   */\n  0x7f\n    /* \"#utility.yul\":2522:2528   */\n  dup3\n    /* \"#utility.yul\":2518:2535   */\n  and\n    /* \"#utility.yul\":2508:2535   */\n  swap2\n  pop\n    /* \"#utility.yul\":2476:2537   */\ntag_147:\n    /* \"#utility.yul\":2583:2585   */\n  0x20\n    /* \"#utility.yul\":2575:2581   */\n  dup3\n    /* \"#utility.yul\":2572:2586   */\n  lt\n    /* \"#utility.yul\":2552:2570   */\n  dup2\n    /* \"#utility.yul\":2549:2587   */\n  sub\n    /* \"#utility.yul\":2546:2707   */\n  tag_148\n  jumpi\n    /* \"#utility.yul\":2629:2639   */\n  0x4e487b71\n    /* \"#utility.yul\":2624:2627   */\n  0xe0\n    /* \"#utility.yul\":2620:2640   */\n  shl\n    /* \"#utility.yul\":2617:2618   */\n  0x00\n    /* \"#utility.yul\":2610:2641   */\n  mstore\n    /* \"#utility.yul\":2664:2668   */\n  0x22\n    /* \"#utility.yul\":2661:2662   */\n  0x04\n    /* \"#utility.yul\":2654:2669   */\n  mstore\n    /* \"#utility.yul\":2692:2696   */\n  0x24\n    /* \"#utility.yul\":2689:2690   */\n  0x00\n    /* \"#utility.yul\":2682:2697   */\n  revert\n    /* \"#utility.yul\":2546:2707   */\ntag_148:\n  pop\n    /* \"#utility.yul\":2333:2713   */\n  swap2\n  swap1\n  pop\n  jump\t// out\n    /* \"#utility.yul\":2844:3362   */\ntag_123:\n    /* \"#utility.yul\":2946:2948   */\n  0x1f\n    /* \"#utility.yul\":2941:2944   */\n  dup3\n    /* \"#utility.yul\":2938:2949   */\n  gt\n    /* \"#utility.yul\":2935:3356   */\n  iszero\n  tag_151\n  jumpi\n    /* \"#utility.yul\":2982:2987   */\n  dup1\n    /* \"#utility.yul\":2979:2980   */\n  0x00\n    /* \"#utility.yul\":2972:2988   */\n  mstore\n    /* \"#utility.yul\":3026:3030   */\n  0x20\n    /* \"#utility.yul\":3023:3024   */\n  0x00\n    /* \"#utility.yul\":3013:3031   */\n  keccak256\n    /* \"#utility.yul\":3096:3098   */\n  0x1f\n    /* \"#utility.yul\":3084:3094   */\n  dup5\n    /* \"#utility.yul\":3080:3099   */\n  add\n    /* \"#utility.yul\":3077:3078   */\n  0x05\n    /* \"#utility.yul\":3073:3100   */\n  shr\n    /* \"#utility.yul\":3067:3071   */\n  dup2\n    /* \"#utility.yul\":3063:3101   */\n  add\n    /* \"#utility.yul\":3132:3136   */\n  0x20\n    /* \"#utility.yul\":3120:3130   */\n  dup6\n    /* \"#utility.yul\":3117:3137   */\n  lt\n    /* \"#utility.yul\":3114:3161   */\n  iszero\n  tag_152\n  jumpi\n  pop\n    /* \"#utility.yul\":3155:3159   */\n  dup1\n    /* \"#utility.yul\":3114:3161   */\ntag_152:\n    /* \"#utility.yul\":3210:3212   */\n  0x1f\n    /* \"#utility.yul\":3205:3208   */\n  dup5\n    /* \"#utility.yul\":3201:3213   */\n  add\n    /* \"#utility.yul\":3198:3199   */\n  0x05\n    /* \"#utility.yul\":3194:3214   */\n  shr\n    /* \"#utility.yul\":3188:3192   */\n  dup3\n    /* \"#utility.yul\":3184:3215   */\n  add\n    /* \"#utility.yul\":3174:3215   */\n  swap2\n  pop\n    /* \"#utility.yul\":3265:3346   */\ntag_153:\n    /* \"#utility.yul\":3283:3285   */\n  dup2\n    /* \"#utility.yul\":3276:3281   */\n  dup2\n    /* \"#utility.yul\":3273:3286   */\n  lt\n    /* \"#utility.yul\":3265:3346   */\n  iszero\n  tag_155\n  jumpi\n    /* \"#utility.yul\":3342:3343   */\n  0x00\n    /* \"#utility.yul\":3328:3344   */\n  dup2\n  sstore\n    /* \"#utility.yul\":3309:3310   */\n  0x01\n    /* \"#utility.yul\":3298:3311   */\n  add\n    /* \"#utility.yul\":3265:3346   */\n  jump(tag_153)\ntag_155:\n    /* \"#utility.yul\":3269:3272   */\n  pop\n  pop\n    /* \"#utility.yul\":2935:3356   */\ntag_151:\n    /* \"#utility.yul\":2844:3362   */\n  pop\n  pop\n  pop\n  jump\t// out\n    /* \"#utility.yul\":3538:4837   */\ntag_18:\n    /* \"#utility.yul\":3658:3668   */\n  dup2\n  mload\n  sub(shl(0x40, 0x01), 0x01)\n    /* \"#utility.yul\":3680:3710   */\n  dup2\n  gt\n    /* \"#utility.yul\":3677:3733   */\n  iszero\n  tag_159\n  jumpi\n    /* \"#utility.yul\":3713:3731   */\n  tag_159\n  tag_118\n  jump\t// in\ntag_159:\n    /* \"#utility.yul\":3742:3839   */\n  tag_160\n    /* \"#utility.yul\":3832:3838   */\n  dup2\n    /* \"#utility.yul\":3792:3830   */\n  tag_161\n    /* \"#utility.yul\":3824:3828   */\n  dup5\n    /* \"#utility.yul\":3818:3829   */\n  sload\n    /* \"#utility.yul\":3792:3830   */\n  tag_121\n  jump\t// in\ntag_161:\n    /* \"#utility.yul\":3786:3790   */\n  dup5\n    /* \"#utility.yul\":3742:3839   */\n  tag_123\n  jump\t// in\ntag_160:\n    /* \"#utility.yul\":3888:3892   */\n  0x20\n    /* \"#utility.yul\":3919:3921   */\n  0x1f\n    /* \"#utility.yul\":3908:3922   */\n  dup3\n  gt\n    /* \"#utility.yul\":3936:3937   */\n  0x01\n    /* \"#utility.yul\":3931:4580   */\n  dup2\n  eq\n  tag_163\n  jumpi\n    /* \"#utility.yul\":4624:4625   */\n  0x00\n    /* \"#utility.yul\":4641:4647   */\n  dup4\n    /* \"#utility.yul\":4638:4727   */\n  iszero\n  tag_164\n  jumpi\n  pop\n    /* \"#utility.yul\":4693:4712   */\n  dup5\n  dup3\n  add\n    /* \"#utility.yul\":4687:4713   */\n  mload\n    /* \"#utility.yul\":4638:4727   */\ntag_164:\n  not(0x00)\n    /* \"#utility.yul\":3495:3496   */\n  0x03\n    /* \"#utility.yul\":3491:3502   */\n  dup6\n  swap1\n  shl\n    /* \"#utility.yul\":3487:3511   */\n  shr\n    /* \"#utility.yul\":3483:3512   */\n  not\n    /* \"#utility.yul\":3473:3513   */\n  and\n    /* \"#utility.yul\":3519:3520   */\n  0x01\n    /* \"#utility.yul\":3515:3526   */\n  dup5\n  swap1\n  shl\n    /* \"#utility.yul\":3470:3527   */\n  or\n    /* \"#utility.yul\":4740:4821   */\n  dup5\n  sstore\n    /* \"#utility.yul\":3901:4831   */\n  jump(tag_155)\n    /* \"#utility.yul\":3931:4580   */\ntag_163:\n    /* \"#utility.yul\":2791:2792   */\n  0x00\n    /* \"#utility.yul\":2784:2798   */\n  dup5\n  dup2\n  mstore\n    /* \"#utility.yul\":2828:2832   */\n  0x20\n    /* \"#utility.yul\":2815:2833   */\n  dup2\n  keccak256\n  not(0x1f)\n    /* \"#utility.yul\":3967:3987   */\n  dup6\n  and\n  swap2\n    /* \"#utility.yul\":4085:4307   */\ntag_167:\n    /* \"#utility.yul\":4099:4106   */\n  dup3\n    /* \"#utility.yul\":4096:4097   */\n  dup2\n    /* \"#utility.yul\":4093:4107   */\n  lt\n    /* \"#utility.yul\":4085:4307   */\n  iszero\n  tag_169\n  jumpi\n    /* \"#utility.yul\":4181:4200   */\n  dup8\n  dup6\n  add\n    /* \"#utility.yul\":4175:4201   */\n  mload\n    /* \"#utility.yul\":4160:4202   */\n  dup3\n  sstore\n    /* \"#utility.yul\":4288:4292   */\n  0x20\n    /* \"#utility.yul\":4273:4293   */\n  swap5\n  dup6\n  add\n  swap5\n    /* \"#utility.yul\":4241:4242   */\n  0x01\n    /* \"#utility.yul\":4229:4243   */\n  swap1\n  swap3\n  add\n  swap2\n    /* \"#utility.yul\":4115:4127   */\n  add\n    /* \"#utility.yul\":4085:4307   */\n  jump(tag_167)\ntag_169:\n    /* \"#utility.yul\":4089:4092   */\n  pop\n    /* \"#utility.yul\":4335:4341   */\n  dup5\n    /* \"#utility.yul\":4326:4333   */\n  dup3\n    /* \"#utility.yul\":4323:4342   */\n  lt\n    /* \"#utility.yul\":4320:4521   */\n  iszero\n  tag_170\n  jumpi\n    /* \"#utility.yul\":4396:4415   */\n  dup7\n  dup5\n  add\n    /* \"#utility.yul\":4390:4416   */\n  mload\n  not(0x00)\n    /* \"#utility.yul\":4479:4480   */\n  0x03\n    /* \"#utility.yul\":4475:4489   */\n  dup8\n  swap1\n  shl\n    /* \"#utility.yul\":4491:4494   */\n  0xf8\n    /* \"#utility.yul\":4471:4495   */\n  and\n    /* \"#utility.yul\":4467:4504   */\n  shr\n    /* \"#utility.yul\":4463:4505   */\n  not\n    /* \"#utility.yul\":4448:4506   */\n  and\n    /* \"#utility.yul\":4433:4507   */\n  dup2\n  sstore\n    /* \"#utility.yul\":4320:4521   */\ntag_170:\n  pop\n  pop\n  pop\n  pop\n    /* \"#utility.yul\":4567:4568   */\n  0x01\n    /* \"#utility.yul\":4551:4565   */\n  swap1\n  dup2\n  shl\n    /* \"#utility.yul\":4547:4569   */\n  add\n    /* \"#utility.yul\":4534:4570   */\n  swap1\n  sstore\n  pop\n    /* \"#utility.yul\":3538:4837   */\n  jump\t// out\n    /* \"#utility.yul\":4842:4969   */\ntag_125:\n    /* \"#utility.yul\":4903:4913   */\n  0x4e487b71\n    /* \"#utility.yul\":4898:4901   */\n  0xe0\n    /* \"#utility.yul\":4894:4914   */\n  shl\n    /* \"#utility.yul\":4891:4892   */\n  0x00\n    /* \"#utility.yul\":4884:4915   */\n  mstore\n    /* \"#utility.yul\":4934:4938   */\n  0x11\n    /* \"#utility.yul\":4931:4932   */\n  0x04\n    /* \"#utility.yul\":4924:4939   */\n  mstore\n    /* \"#utility.yul\":4958:4962   */\n  0x24\n    /* \"#utility.yul\":4955:4956   */\n  0x00\n    /* \"#utility.yul\":4948:4963   */\n  revert\n    /* \"#utility.yul\":4974:5142   */\ntag_21:\n    /* \"#utility.yul\":5047:5056   */\n  dup1\n  dup3\n  mul\n    /* \"#utility.yul\":5078:5087   */\n  dup2\n  iszero\n    /* \"#utility.yul\":5095:5110   */\n  dup3\n  dup3\n  div\n    /* \"#utility.yul\":5089:5111   */\n  dup5\n  eq\n    /* \"#utility.yul\":5075:5112   */\n  or\n    /* \"#utility.yul\":5065:5136   */\n  tag_61\n  jumpi\n    /* \"#utility.yul\":5116:5134   */\n  tag_61\n  tag_125\n  jump\t// in\n    /* \"#utility.yul\":5147:5364   */\ntag_24:\n    /* \"#utility.yul\":5187:5188   */\n  0x00\n    /* \"#utility.yul\":5213:5214   */\n  dup3\n    /* \"#utility.yul\":5203:5335   */\n  tag_176\n  jumpi\n    /* \"#utility.yul\":5257:5267   */\n  0x4e487b71\n    /* \"#utility.yul\":5252:5255   */\n  0xe0\n    /* \"#utility.yul\":5248:5268   */\n  shl\n    /* \"#utility.yul\":5245:5246   */\n  0x00\n    /* \"#utility.yul\":5238:5269   */\n  mstore\n    /* \"#utility.yul\":5292:5296   */\n  0x12\n    /* \"#utility.yul\":5289:5290   */\n  0x04\n    /* \"#utility.yul\":5282:5297   */\n  mstore\n    /* \"#utility.yul\":5320:5324   */\n  0x24\n    /* \"#utility.yul\":5317:5318   */\n  0x00\n    /* \"#utility.yul\":5310:5325   */\n  revert\n    /* \"#utility.yul\":5203:5335   */\ntag_176:\n  pop\n    /* \"#utility.yul\":5349:5358   */\n  div\n  swap1\n    /* \"#utility.yul\":5147:5364   */\n  jump\t// out\n    /* \"#utility.yul\":5906:6031   */\ntag_51:\n    /* \"#utility.yul\":5971:5980   */\n  dup1\n  dup3\n  add\n    /* \"#utility.yul\":5992:6002   */\n  dup1\n  dup3\n  gt\n    /* \"#utility.yul\":5989:6025   */\n  iszero\n  tag_61\n  jumpi\n    /* \"#utility.yul\":6005:6023   */\n  tag_61\n  tag_125\n  jump\t// in\n    /* \"#utility.yul\":6036:6164   */\ntag_56:\n    /* \"#utility.yul\":6103:6112   */\n  dup2\n  dup2\n  sub\n    /* \"#utility.yul\":6124:6135   */\n  dup2\n  dup2\n  gt\n    /* \"#utility.yul\":6121:6158   */\n  iszero\n  tag_61\n  jumpi\n    /* \"#utility.yul\":6138:6156   */\n  tag_61\n  tag_125\n  jump\t// in\n    /* \"#utility.yul\":6169:6509   */\ntag_126:\n    /* \"SmartContractsInterview/Token.sol\":559:17443  contract Token is... */\n  dataSize(sub_0)\n  dup1\n  dataOffset(sub_0)\n  0x00\n  codecopy\n  0x00\n  return\nstop\n\nsub_0: assembly {\n        /* \"SmartContractsInterview/Token.sol\":559:17443  contract Token is... */\n      mstore(0x40, 0x80)\n      jumpi(tag_1, lt(calldatasize, 0x04))\n      shr(0xe0, calldataload(0x00))\n      dup1\n      0x702115dd\n      gt\n      tag_61\n      jumpi\n      dup1\n      0x9220d3ed\n      gt\n      tag_62\n      jumpi\n      dup1\n      0xb3cd4254\n      gt\n      tag_63\n      jumpi\n      dup1\n      0xdf0ab308\n      gt\n      tag_64\n      jumpi\n      dup1\n      0xdf0ab308\n      eq\n      tag_57\n      jumpi\n      dup1\n      0xe2ff2440\n      eq\n      tag_58\n      jumpi\n      dup1\n      0xe5a5e318\n      eq\n      tag_59\n      jumpi\n      dup1\n      0xf2fde38b\n      eq\n      tag_60\n      jumpi\n      0x00\n      dup1\n      revert\n    tag_64:\n      dup1\n      0xb3cd4254\n      eq\n      tag_53\n      jumpi\n      dup1\n      0xb4dade59\n      eq\n      tag_54\n      jumpi\n      dup1\n      0xdc90b442\n      eq\n      tag_55\n      jumpi\n      dup1\n      0xdd62ed3e\n      eq\n      tag_56\n      jumpi\n      0x00\n      dup1\n      revert\n    tag_63:\n      dup1\n      0x9cc2921c\n      gt\n      tag_65\n      jumpi\n      dup1\n      0x9cc2921c\n      eq\n      tag_49\n      jumpi\n      dup1\n      0xa457c2d7\n      eq\n      tag_50\n      jumpi\n      dup1\n      0xa6d1b891\n      eq\n      tag_51\n      jumpi\n      dup1\n      0xa9059cbb\n      eq\n      tag_52\n      jumpi\n      0x00\n      dup1\n      revert\n    tag_65:\n      dup1\n      0x9220d3ed\n      eq\n      tag_46\n      jumpi\n      dup1\n      0x924c2ead\n      eq\n      tag_47\n      jumpi\n      dup1\n      0x95d89b41\n      eq\n      tag_48\n      jumpi\n      0x00\n      dup1\n      revert\n    tag_62:\n      dup1\n      0x8456cb59\n      gt\n      tag_66\n      jumpi\n      dup1\n      0x89eec0f1\n      gt\n      tag_67\n      jumpi\n      dup1\n      0x89eec0f1\n      eq\n      tag_42\n      jumpi\n      dup1\n      0x8cf66b16\n      eq\n      tag_43\n      jumpi\n      dup1\n      0x8da5cb5b\n      eq\n      tag_44\n      jumpi\n      dup1\n      0x8f372fa3\n      eq\n      tag_45\n      jumpi\n      0x00\n      dup1\n      revert\n    tag_67:\n      dup1\n      0x8456cb59\n      eq\n      tag_39\n      jumpi\n      dup1\n      0x874a6ae7\n      eq\n      tag_40\n      jumpi\n      dup1\n      0x893d20e8\n      eq\n      tag_41\n      jumpi\n      0x00\n      dup1\n      revert\n    tag_66:\n      dup1\n      0x75c2b13f\n      gt\n      tag_68\n      jumpi\n      dup1\n      0x75c2b13f\n      eq\n      tag_35\n      jumpi\n      dup1\n      0x7819f36f\n      eq\n      tag_36\n      jumpi\n      dup1\n      0x79825ede\n      eq\n      tag_37\n      jumpi\n      dup1\n      0x81cea332\n      eq\n      tag_38\n      jumpi\n      0x00\n      dup1\n      revert\n    tag_68:\n      dup1\n      0x702115dd\n      eq\n      tag_32\n      jumpi\n      dup1\n      0x70a08231\n      eq\n      tag_33\n      jumpi\n      dup1\n      0x715018a6\n      eq\n      tag_34\n      jumpi\n      0x00\n      dup1\n      revert\n    tag_61:\n      dup1\n      0x3f3b3b27\n      gt\n      tag_69\n      jumpi\n      dup1\n      0x5d70dde6\n      gt\n      tag_70\n      jumpi\n      dup1\n      0x690d8320\n      gt\n      tag_71\n      jumpi\n      dup1\n      0x690d8320\n      eq\n      tag_28\n      jumpi\n      dup1\n      0x6aa3773f\n      eq\n      tag_29\n      jumpi\n      dup1\n      0x6c5ed03e\n      eq\n      tag_30\n      jumpi\n      dup1\n      0x6e04ff0d\n      eq\n      tag_31\n      jumpi\n      0x00\n      dup1\n      revert\n    tag_71:\n      dup1\n      0x5d70dde6\n      eq\n      tag_24\n      jumpi\n      dup1\n      0x6161eb18\n      eq\n      tag_25\n      jumpi\n      dup1\n      0x639f3cc7\n      eq\n      tag_26\n      jumpi\n      dup1\n      0x685f59de\n      eq\n      tag_27\n      jumpi\n      0x00\n      dup1\n      revert\n    tag_70:\n      dup1\n      0x4626402b\n      gt\n      tag_72\n      jumpi\n      dup1\n      0x4626402b\n      eq\n      tag_20\n      jumpi\n      dup1\n      0x4e6ec247\n      eq\n      tag_21\n      jumpi\n      dup1\n      0x5b7f415c\n      eq\n      tag_22\n      jumpi\n      dup1\n      0x5c975abb\n      eq\n      tag_23\n      jumpi\n      0x00\n      dup1\n      revert\n    tag_72:\n      dup1\n      0x3f3b3b27\n      eq\n      tag_17\n      jumpi\n      dup1\n      0x3f4ba83a\n      eq\n      tag_18\n      jumpi\n      dup1\n      0x4585e33b\n      eq\n      tag_19\n      jumpi\n      0x00\n      dup1\n      revert\n    tag_69:\n      dup1\n      0x2ce8bd56\n      gt\n      tag_73\n      jumpi\n      dup1\n      0x35c85a34\n      gt\n      tag_74\n      jumpi\n      dup1\n      0x35c85a34\n      eq\n      tag_13\n      jumpi\n      dup1\n      0x39509351\n      eq\n      tag_14\n      jumpi\n      dup1\n      0x3af9e669\n      eq\n      tag_15\n      jumpi\n      dup1\n      0x3cde0c0f\n      eq\n      tag_16\n      jumpi\n      0x00\n      dup1\n      revert\n    tag_74:\n      dup1\n      0x2ce8bd56\n      eq\n      tag_10\n      jumpi\n      dup1\n      0x30e0789e\n      eq\n      tag_11\n      jumpi\n      dup1\n      0x313ce567\n      eq\n      tag_12\n      jumpi\n      0x00\n      dup1\n      revert\n    tag_73:\n      dup1\n      0x1658a700\n      gt\n      tag_75\n      jumpi\n      dup1\n      0x1658a700\n      eq\n      tag_6\n      jumpi\n      dup1\n      0x18160ddd\n      eq\n      tag_7\n      jumpi\n      dup1\n      0x23b872dd\n      eq\n      tag_8\n      jumpi\n      dup1\n      0x24024efd\n      eq\n      tag_9\n      jumpi\n      0x00\n      dup1\n      revert\n    tag_75:\n      dup1\n      0x06fdde03\n      eq\n      tag_3\n      jumpi\n      dup1\n      0x095ea7b3\n      eq\n      tag_4\n      jumpi\n      dup1\n      0x104e81ff\n      eq\n      tag_5\n      jumpi\n      0x00\n      dup1\n      revert\n    tag_1:\n      jumpi(tag_2, calldatasize)\n      stop\n    tag_2:\n      0x00\n      dup1\n      revert\n        /* \"SmartContractsInterview/Token.sol\":929:956  string public override name */\n    tag_3:\n      callvalue\n      dup1\n      iszero\n      tag_78\n      jumpi\n      0x00\n      dup1\n      revert\n    tag_78:\n      pop\n      tag_79\n      tag_80\n      jump\t// in\n    tag_79:\n      mload(0x40)\n      tag_81\n      swap2\n      swap1\n      tag_82\n      jump\t// in\n    tag_81:\n      mload(0x40)\n      dup1\n      swap2\n      sub\n      swap1\n      return\n        /* \"SmartContractsInterview/Token.sol\":4537:4719  function approve(... */\n    tag_4:\n      callvalue\n      dup1\n      iszero\n      tag_83\n      jumpi\n      0x00\n      dup1\n      revert\n    tag_83:\n      pop\n      tag_84\n      tag_85\n      calldatasize\n      0x04\n      tag_86\n      jump\t// in\n    tag_85:\n      tag_87\n      jump\t// in\n    tag_84:\n      mload(0x40)\n        /* \"#utility.yul\":1181:1195   */\n      swap1\n      iszero\n        /* \"#utility.yul\":1174:1196   */\n      iszero\n        /* \"#utility.yul\":1156:1197   */\n      dup2\n      mstore\n        /* \"#utility.yul\":1144:1146   */\n      0x20\n        /* \"#utility.yul\":1129:1147   */\n      add\n        /* \"SmartContractsInterview/Token.sol\":4537:4719  function approve(... */\n      tag_81\n        /* \"#utility.yul\":1016:1203   */\n      jump\n        /* \"SmartContractsInterview/Token.sol\":5723:6106  function _approve(... */\n    tag_5:\n      callvalue\n      dup1\n      iszero\n      tag_90\n      jumpi\n      0x00\n      dup1\n      revert\n    tag_90:\n      pop\n      tag_91\n      tag_92\n      calldatasize\n      0x04\n      tag_93\n      jump\t// in\n    tag_92:\n      tag_94\n      jump\t// in\n    tag_91:\n      stop\n        /* \"SmartContractsInterview/Token.sol\":1473:1512  mapping(address => bool) public lpPools */\n    tag_6:\n      callvalue\n      dup1\n      iszero\n      tag_95\n      jumpi\n      0x00\n      dup1\n      revert\n    tag_95:\n      pop\n      tag_84\n      tag_97\n      calldatasize\n      0x04\n      tag_98\n      jump\t// in\n    tag_97:\n      mstore(0x20, 0x11)\n      0x00\n      swap1\n      dup2\n      mstore\n      0x40\n      swap1\n      keccak256\n      sload\n      0xff\n      and\n      dup2\n      jump\n        /* \"SmartContractsInterview/Token.sol\":3453:3564  function totalSupply() public view override returns (uint256) {... */\n    tag_7:\n      callvalue\n      dup1\n      iszero\n      tag_101\n      jumpi\n      0x00\n      dup1\n      revert\n    tag_101:\n      pop\n      tag_102\n      tag_103\n      jump\t// in\n    tag_102:\n      mload(0x40)\n        /* \"#utility.yul\":1924:1949   */\n      swap1\n      dup2\n      mstore\n        /* \"#utility.yul\":1912:1914   */\n      0x20\n        /* \"#utility.yul\":1897:1915   */\n      add\n        /* \"SmartContractsInterview/Token.sol\":3453:3564  function totalSupply() public view override returns (uint256) {... */\n      tag_81\n        /* \"#utility.yul\":1778:1955   */\n      jump\n        /* \"SmartContractsInterview/Token.sol\":4725:5148  function transferFrom(... */\n    tag_8:\n      callvalue\n      dup1\n      iszero\n      tag_106\n      jumpi\n      0x00\n      dup1\n      revert\n    tag_106:\n      pop\n      tag_84\n      tag_108\n      calldatasize\n      0x04\n      tag_93\n      jump\t// in\n    tag_108:\n      tag_109\n      jump\t// in\n        /* \"SmartContractsInterview/Token.sol\":1300:1326  uint256 public sellTaxRate */\n    tag_9:\n      callvalue\n      dup1\n      iszero\n      tag_111\n      jumpi\n      0x00\n      dup1\n      revert\n    tag_111:\n      pop\n      tag_102\n      sload(0x0c)\n      dup2\n      jump\n        /* \"SmartContractsInterview/Token.sol\":1332:1357  uint256 public debaseRate */\n    tag_10:\n      callvalue\n      dup1\n      iszero\n      tag_115\n      jumpi\n      0x00\n      dup1\n      revert\n    tag_115:\n      pop\n      tag_102\n      sload(0x0d)\n      dup2\n      jump\n        /* \"SmartContractsInterview/Token.sol\":7233:9758  function _transfer(... */\n    tag_11:\n      callvalue\n      dup1\n      iszero\n      tag_119\n      jumpi\n      0x00\n      dup1\n      revert\n    tag_119:\n      pop\n      tag_91\n      tag_121\n      calldatasize\n      0x04\n      tag_93\n      jump\t// in\n    tag_121:\n      tag_122\n      jump\t// in\n        /* \"SmartContractsInterview/Token.sol\":3570:3669  function decimals() external view override returns (uint8) {... */\n    tag_12:\n      callvalue\n      dup1\n      iszero\n      tag_123\n      jumpi\n      0x00\n      dup1\n      revert\n    tag_123:\n      pop\n        /* \"SmartContractsInterview/Token.sol\":3652:3661  _decimals */\n      sload(0x05)\n        /* \"SmartContractsInterview/Token.sol\":3570:3669  function decimals() external view override returns (uint8) {... */\n      mload(0x40)\n        /* \"#utility.yul\":2132:2136   */\n      0xff\n        /* \"#utility.yul\":2120:2137   */\n      swap1\n      swap2\n      and\n        /* \"#utility.yul\":2102:2138   */\n      dup2\n      mstore\n        /* \"#utility.yul\":2090:2092   */\n      0x20\n        /* \"#utility.yul\":2075:2093   */\n      add\n        /* \"SmartContractsInterview/Token.sol\":3570:3669  function decimals() external view override returns (uint8) {... */\n      tag_81\n        /* \"#utility.yul\":1960:2144   */\n      jump\n        /* \"SmartContractsInterview/Token.sol\":14802:15026  function _excludedFromHoldingLimit(address _account,bool _isExcluded) public {... */\n    tag_13:\n      callvalue\n      dup1\n      iszero\n      tag_128\n      jumpi\n      0x00\n      dup1\n      revert\n    tag_128:\n      pop\n      tag_91\n      tag_130\n      calldatasize\n      0x04\n      tag_131\n      jump\t// in\n    tag_130:\n      tag_132\n      jump\t// in\n        /* \"SmartContractsInterview/Token.sol\":5154:5438  function increaseAllowance(... */\n    tag_14:\n      callvalue\n      dup1\n      iszero\n      tag_133\n      jumpi\n      0x00\n      dup1\n      revert\n    tag_133:\n      pop\n      tag_84\n      tag_135\n      calldatasize\n      0x04\n      tag_86\n      jump\t// in\n    tag_135:\n      tag_136\n      jump\t// in\n        /* \"SmartContractsInterview/Token.sol\":4065:4185  function balanceOfUnderlying(address _account) public view returns (uint256) {... */\n    tag_15:\n      callvalue\n      dup1\n      iszero\n      tag_138\n      jumpi\n      0x00\n      dup1\n      revert\n    tag_138:\n      pop\n      tag_102\n      tag_140\n      calldatasize\n      0x04\n      tag_98\n      jump\t// in\n    tag_140:\n      sub(shl(0xa0, 0x01), 0x01)\n        /* \"SmartContractsInterview/Token.sol\":4159:4178  _balances[_account] */\n      and\n        /* \"SmartContractsInterview/Token.sol\":4133:4140  uint256 */\n      0x00\n        /* \"SmartContractsInterview/Token.sol\":4159:4178  _balances[_account] */\n      swap1\n      dup2\n      mstore\n        /* \"SmartContractsInterview/Token.sol\":4159:4168  _balances */\n      0x09\n        /* \"SmartContractsInterview/Token.sol\":4159:4178  _balances[_account] */\n      0x20\n      mstore\n      0x40\n      swap1\n      keccak256\n      sload\n      swap1\n        /* \"SmartContractsInterview/Token.sol\":4065:4185  function balanceOfUnderlying(address _account) public view returns (uint256) {... */\n      jump\n        /* \"SmartContractsInterview/Token.sol\":12766:12881  function updateHoldingLimit(uint256 _holdingLimit) external onlyOwner {... */\n    tag_16:\n      callvalue\n      dup1\n      iszero\n      tag_143\n      jumpi\n      0x00\n      dup1\n      revert\n    tag_143:\n      pop\n      tag_91\n      tag_145\n      calldatasize\n      0x04\n      tag_146\n      jump\t// in\n    tag_145:\n      tag_147\n      jump\t// in\n        /* \"SmartContractsInterview/Token.sol\":1698:1726  uint256 public lastTimeStamp */\n    tag_17:\n      callvalue\n      dup1\n      iszero\n      tag_148\n      jumpi\n      0x00\n      dup1\n      revert\n    tag_148:\n      pop\n      tag_102\n      sload(0x15)\n      dup2\n      jump\n        /* \"SmartContractsInterview/Token.sol\":17030:17093  function unpause() public onlyOwner {... */\n    tag_18:\n      callvalue\n      dup1\n      iszero\n      tag_152\n      jumpi\n      0x00\n      dup1\n      revert\n    tag_152:\n      pop\n      tag_91\n      tag_154\n      jump\t// in\n        /* \"SmartContractsInterview/Token.sol\":10999:11483  function performUpkeep(bytes calldata /* performData */) external override {... */\n    tag_19:\n      callvalue\n      dup1\n      iszero\n      tag_155\n      jumpi\n      0x00\n      dup1\n      revert\n    tag_155:\n      pop\n      tag_91\n      tag_157\n      calldatasize\n      0x04\n      tag_158\n      jump\t// in\n    tag_157:\n      tag_159\n      jump\t// in\n        /* \"SmartContractsInterview/Token.sol\":1264:1293  address public treasuryWallet */\n    tag_20:\n      callvalue\n      dup1\n      iszero\n      tag_160\n      jumpi\n      0x00\n      dup1\n      revert\n    tag_160:\n      pop\n      sload(0x0b)\n      tag_161\n      swap1\n      sub(shl(0xa0, 0x01), 0x01)\n      and\n      dup2\n      jump\n    tag_161:\n      mload(0x40)\n      sub(shl(0xa0, 0x01), 0x01)\n        /* \"#utility.yul\":3559:3591   */\n      swap1\n      swap2\n      and\n        /* \"#utility.yul\":3541:3592   */\n      dup2\n      mstore\n        /* \"#utility.yul\":3529:3531   */\n      0x20\n        /* \"#utility.yul\":3514:3532   */\n      add\n        /* \"SmartContractsInterview/Token.sol\":1264:1293  address public treasuryWallet */\n      tag_81\n        /* \"#utility.yul\":3395:3598   */\n      jump\n        /* \"SmartContractsInterview/Token.sol\":6112:6685  function _mint(address _to, uint256 _amount) public {... */\n    tag_21:\n      callvalue\n      dup1\n      iszero\n      tag_165\n      jumpi\n      0x00\n      dup1\n      revert\n    tag_165:\n      pop\n      tag_91\n      tag_167\n      calldatasize\n      0x04\n      tag_86\n      jump\t// in\n    tag_167:\n      tag_168\n      jump\t// in\n        /* \"SmartContractsInterview/Token.sol\":819:864  uint256 public constant TOKEN_DECIMALS = 1e18 */\n    tag_22:\n      callvalue\n      dup1\n      iszero\n      tag_169\n      jumpi\n      0x00\n      dup1\n      revert\n    tag_169:\n      pop\n      tag_102\n        /* \"SmartContractsInterview/Token.sol\":860:864  1e18 */\n      0x0de0b6b3a7640000\n        /* \"SmartContractsInterview/Token.sol\":819:864  uint256 public constant TOKEN_DECIMALS = 1e18 */\n      dup2\n      jump\n        /* \"@openzeppelin/contracts/security/Pausable.sol\":1615:1699  function paused() public view virtual returns (bool) {... */\n    tag_23:\n      callvalue\n      dup1\n      iszero\n      tag_173\n      jumpi\n      0x00\n      dup1\n      revert\n    tag_173:\n      pop\n        /* \"@openzeppelin/contracts/security/Pausable.sol\":1662:1666  bool */\n      0x00\n        /* \"@openzeppelin/contracts/security/Pausable.sol\":1685:1692  _paused */\n      sload\n      0xff\n      and\n        /* \"@openzeppelin/contracts/security/Pausable.sol\":1615:1699  function paused() public view virtual returns (bool) {... */\n      jump(tag_84)\n        /* \"SmartContractsInterview/Token.sol\":16818:16959  function setLastTime() external onlyOwner {... */\n    tag_24:\n      callvalue\n      dup1\n      iszero\n      tag_177\n      jumpi\n      0x00\n      dup1\n      revert\n    tag_177:\n      pop\n      tag_91\n      tag_179\n      jump\t// in\n        /* \"SmartContractsInterview/Token.sol\":6691:7227  function _burn(address _from, uint256 _amount) public {... */\n    tag_25:\n      callvalue\n      dup1\n      iszero\n      tag_180\n      jumpi\n      0x00\n      dup1\n      revert\n    tag_180:\n      pop\n      tag_91\n      tag_182\n      calldatasize\n      0x04\n      tag_86\n      jump\t// in\n    tag_182:\n      tag_183\n      jump\t// in\n        /* \"SmartContractsInterview/Token.sol\":12116:12287  function _debaseTokenToFragment(uint256 _debaseToken) public view returns (uint256) {... */\n    tag_26:\n      callvalue\n      dup1\n      iszero\n      tag_184\n      jumpi\n      0x00\n      dup1\n      revert\n    tag_184:\n      pop\n      tag_102\n      tag_186\n      calldatasize\n      0x04\n      tag_146\n      jump\t// in\n    tag_186:\n      tag_187\n      jump\t// in\n        /* \"SmartContractsInterview/Token.sol\":1403:1432  uint256 public debaseDuration */\n    tag_27:\n      callvalue\n      dup1\n      iszero\n      tag_189\n      jumpi\n      0x00\n      dup1\n      revert\n    tag_189:\n      pop\n      tag_102\n      sload(0x0f)\n      dup2\n      jump\n        /* \"SmartContractsInterview/Token.sol\":3166:3447  function withdrawETH(address _to) external onlyOwner {... */\n    tag_28:\n      callvalue\n      dup1\n      iszero\n      tag_193\n      jumpi\n      0x00\n      dup1\n      revert\n    tag_193:\n      pop\n      tag_91\n      tag_195\n      calldatasize\n      0x04\n      tag_98\n      jump\t// in\n    tag_195:\n      tag_196\n      jump\t// in\n        /* \"SmartContractsInterview/Token.sol\":9992:10653  function claimFromTreasury(... */\n    tag_29:\n      callvalue\n      dup1\n      iszero\n      tag_197\n      jumpi\n      0x00\n      dup1\n      revert\n    tag_197:\n      pop\n      tag_91\n      tag_199\n      calldatasize\n      0x04\n      tag_86\n      jump\t// in\n    tag_199:\n      tag_200\n      jump\t// in\n        /* \"SmartContractsInterview/Token.sol\":14440:14796  function multiExcludedFromDebasing(... */\n    tag_30:\n      callvalue\n      dup1\n      iszero\n      tag_201\n      jumpi\n      0x00\n      dup1\n      revert\n    tag_201:\n      pop\n      tag_91\n      tag_203\n      calldatasize\n      0x04\n      tag_204\n      jump\t// in\n    tag_203:\n      tag_205\n      jump\t// in\n        /* \"SmartContractsInterview/Token.sol\":10659:10993  function checkUpkeep(... */\n    tag_31:\n      callvalue\n      dup1\n      iszero\n      tag_206\n      jumpi\n      0x00\n      dup1\n      revert\n    tag_206:\n      pop\n      tag_207\n      tag_208\n      calldatasize\n      0x04\n      tag_158\n      jump\t// in\n    tag_208:\n      tag_209\n      jump\t// in\n    tag_207:\n      mload(0x40)\n      tag_81\n      swap3\n      swap2\n      swap1\n      tag_211\n      jump\t// in\n        /* \"SmartContractsInterview/Token.sol\":13779:14434  function _excludedFromDebasing(address _account,bool _isExcluded) public {... */\n    tag_32:\n      callvalue\n      dup1\n      iszero\n      tag_212\n      jumpi\n      0x00\n      dup1\n      revert\n    tag_212:\n      pop\n      tag_91\n      tag_214\n      calldatasize\n      0x04\n      tag_131\n      jump\t// in\n    tag_214:\n      tag_215\n      jump\t// in\n        /* \"SmartContractsInterview/Token.sol\":3675:4059  function balanceOf(... */\n    tag_33:\n      callvalue\n      dup1\n      iszero\n      tag_216\n      jumpi\n      0x00\n      dup1\n      revert\n    tag_216:\n      pop\n      tag_102\n      tag_218\n      calldatasize\n      0x04\n      tag_98\n      jump\t// in\n    tag_218:\n      tag_219\n      jump\t// in\n        /* \"@openzeppelin/contracts/access/Ownable.sol\":2293:2394  function renounceOwnership() public virtual onlyOwner {... */\n    tag_34:\n      callvalue\n      dup1\n      iszero\n      tag_221\n      jumpi\n      0x00\n      dup1\n      revert\n    tag_221:\n      pop\n      tag_91\n      tag_223\n      jump\t// in\n        /* \"SmartContractsInterview/Token.sol\":13564:13773  function updateTreasuryOperator( address _addr,  bool _isOperator) external onlyOwner {... */\n    tag_35:\n      callvalue\n      dup1\n      iszero\n      tag_224\n      jumpi\n      0x00\n      dup1\n      revert\n    tag_224:\n      pop\n      tag_91\n      tag_226\n      calldatasize\n      0x04\n      tag_131\n      jump\t// in\n    tag_226:\n      tag_227\n      jump\t// in\n        /* \"SmartContractsInterview/Token.sol\":15032:15280  function multiExcludedFromHoldingLimit(address[] memory _accounts, bool _isExcluded) public onlyOwner {... */\n    tag_36:\n      callvalue\n      dup1\n      iszero\n      tag_228\n      jumpi\n      0x00\n      dup1\n      revert\n    tag_228:\n      pop\n      tag_91\n      tag_230\n      calldatasize\n      0x04\n      tag_204\n      jump\t// in\n    tag_230:\n      tag_231\n      jump\t// in\n        /* \"SmartContractsInterview/Token.sol\":13255:13558  function updateLPPool(address _lpPool, bool _isLPPool) external onlyOwner {... */\n    tag_37:\n      callvalue\n      dup1\n      iszero\n      tag_232\n      jumpi\n      0x00\n      dup1\n      revert\n    tag_232:\n      pop\n      tag_91\n      tag_234\n      calldatasize\n      0x04\n      tag_131\n      jump\t// in\n    tag_234:\n      tag_235\n      jump\t// in\n        /* \"SmartContractsInterview/Token.sol\":12887:13120  function updateDebaseRate(uint256 _debaseRate) external onlyOwner {... */\n    tag_38:\n      callvalue\n      dup1\n      iszero\n      tag_236\n      jumpi\n      0x00\n      dup1\n      revert\n    tag_236:\n      pop\n      tag_91\n      tag_238\n      calldatasize\n      0x04\n      tag_146\n      jump\t// in\n    tag_238:\n      tag_239\n      jump\t// in\n        /* \"SmartContractsInterview/Token.sol\":16965:17024  function pause() public onlyOwner {... */\n    tag_39:\n      callvalue\n      dup1\n      iszero\n      tag_240\n      jumpi\n      0x00\n      dup1\n      revert\n    tag_240:\n      pop\n      tag_91\n      tag_242\n      jump\t// in\n        /* \"SmartContractsInterview/Token.sol\":1439:1466  uint256 public holdingLimit */\n    tag_40:\n      callvalue\n      dup1\n      iszero\n      tag_243\n      jumpi\n      0x00\n      dup1\n      revert\n    tag_243:\n      pop\n      tag_102\n      sload(0x10)\n      dup2\n      jump\n        /* \"SmartContractsInterview/Token.sol\":17136:17219  function getOwner() external view returns (address) {... */\n    tag_41:\n      callvalue\n      dup1\n      iszero\n      tag_247\n      jumpi\n      0x00\n      dup1\n      revert\n    tag_247:\n      pop\n      tag_161\n      tag_249\n      jump\t// in\n        /* \"SmartContractsInterview/Token.sol\":12297:12452  function _fragmentToDebaseToken(uint256 _value) public pure returns (uint256) {... */\n    tag_42:\n      callvalue\n      dup1\n      iszero\n      tag_251\n      jumpi\n      0x00\n      dup1\n      revert\n    tag_251:\n      pop\n      tag_102\n      tag_253\n      calldatasize\n      0x04\n      tag_146\n      jump\t// in\n    tag_253:\n      tag_254\n      jump\t// in\n        /* \"SmartContractsInterview/Token.sol\":1578:1636  mapping(address => bool) public isExcludedFromHoldingLimit */\n    tag_43:\n      callvalue\n      dup1\n      iszero\n      tag_256\n      jumpi\n      0x00\n      dup1\n      revert\n    tag_256:\n      pop\n      tag_84\n      tag_258\n      calldatasize\n      0x04\n      tag_98\n      jump\t// in\n    tag_258:\n      mstore(0x20, 0x13)\n      0x00\n      swap1\n      dup2\n      mstore\n      0x40\n      swap1\n      keccak256\n      sload\n      0xff\n      and\n      dup2\n      jump\n        /* \"@openzeppelin/contracts/access/Ownable.sol\":1638:1723  function owner() public view virtual returns (address) {... */\n    tag_44:\n      callvalue\n      dup1\n      iszero\n      tag_261\n      jumpi\n      0x00\n      dup1\n      revert\n    tag_261:\n      pop\n        /* \"@openzeppelin/contracts/access/Ownable.sol\":1710:1716  _owner */\n      and(sub(shl(0xa0, 0x01), 0x01), sload(0x02))\n        /* \"@openzeppelin/contracts/access/Ownable.sol\":1638:1723  function owner() public view virtual returns (address) {... */\n      jump(tag_161)\n        /* \"SmartContractsInterview/Token.sol\":1058:1094  uint256 public excludeDebasingSupply */\n    tag_45:\n      callvalue\n      dup1\n      iszero\n      tag_265\n      jumpi\n      0x00\n      dup1\n      revert\n    tag_265:\n      pop\n      tag_102\n      sload(0x07)\n      dup2\n      jump\n        /* \"SmartContractsInterview/Token.sol\":1643:1691  mapping(address => bool) public treasuryOperator */\n    tag_46:\n      callvalue\n      dup1\n      iszero\n      tag_269\n      jumpi\n      0x00\n      dup1\n      revert\n    tag_269:\n      pop\n      tag_84\n      tag_271\n      calldatasize\n      0x04\n      tag_98\n      jump\t// in\n    tag_271:\n      mstore(0x20, 0x14)\n      0x00\n      swap1\n      dup2\n      mstore\n      0x40\n      swap1\n      keccak256\n      sload\n      0xff\n      and\n      dup2\n      jump\n        /* \"SmartContractsInterview/Token.sol\":1518:1572  mapping(address => bool) public isExcludedFromDebasing */\n    tag_47:\n      callvalue\n      dup1\n      iszero\n      tag_274\n      jumpi\n      0x00\n      dup1\n      revert\n    tag_274:\n      pop\n      tag_84\n      tag_276\n      calldatasize\n      0x04\n      tag_98\n      jump\t// in\n    tag_276:\n      mstore(0x20, 0x12)\n      0x00\n      swap1\n      dup2\n      mstore\n      0x40\n      swap1\n      keccak256\n      sload\n      0xff\n      and\n      dup2\n      jump\n        /* \"SmartContractsInterview/Token.sol\":962:991  string public override symbol */\n    tag_48:\n      callvalue\n      dup1\n      iszero\n      tag_279\n      jumpi\n      0x00\n      dup1\n      revert\n    tag_279:\n      pop\n      tag_79\n      tag_281\n      jump\t// in\n        /* \"SmartContractsInterview/Token.sol\":9764:9986  function _sendTokensTreasuryWallet(uint256 _amount, address _to) public {... */\n    tag_49:\n      callvalue\n      dup1\n      iszero\n      tag_283\n      jumpi\n      0x00\n      dup1\n      revert\n    tag_283:\n      pop\n      tag_91\n      tag_285\n      calldatasize\n      0x04\n      tag_286\n      jump\t// in\n    tag_285:\n      tag_287\n      jump\t// in\n        /* \"SmartContractsInterview/Token.sol\":5444:5717  function decreaseAllowance(address _spender,uint256 _subtractedValue) public virtual returns (bool) {... */\n    tag_50:\n      callvalue\n      dup1\n      iszero\n      tag_288\n      jumpi\n      0x00\n      dup1\n      revert\n    tag_288:\n      pop\n      tag_84\n      tag_290\n      calldatasize\n      0x04\n      tag_86\n      jump\t// in\n    tag_290:\n      tag_291\n      jump\t// in\n        /* \"SmartContractsInterview/Token.sol\":870:922  uint256 public constant TOKEN_public_DECIMALS = 1e24 */\n    tag_51:\n      callvalue\n      dup1\n      iszero\n      tag_293\n      jumpi\n      0x00\n      dup1\n      revert\n    tag_293:\n      pop\n      tag_102\n        /* \"SmartContractsInterview/Token.sol\":918:922  1e24 */\n      0xd3c21bcecceda1000000\n        /* \"SmartContractsInterview/Token.sol\":870:922  uint256 public constant TOKEN_public_DECIMALS = 1e24 */\n      dup2\n      jump\n        /* \"SmartContractsInterview/Token.sol\":4191:4356  function transfer(address _recipient,uint256 _amount) public override returns (bool) {... */\n    tag_52:\n      callvalue\n      dup1\n      iszero\n      tag_297\n      jumpi\n      0x00\n      dup1\n      revert\n    tag_297:\n      pop\n      tag_84\n      tag_299\n      calldatasize\n      0x04\n      tag_86\n      jump\t// in\n    tag_299:\n      tag_300\n      jump\t// in\n        /* \"SmartContractsInterview/Token.sol\":759:813  uint256 public constant PERCENTAGE_DENOMINATOR = 10000 */\n    tag_53:\n      callvalue\n      dup1\n      iszero\n      tag_302\n      jumpi\n      0x00\n      dup1\n      revert\n    tag_302:\n      pop\n      tag_102\n        /* \"SmartContractsInterview/Token.sol\":808:813  10000 */\n      0x2710\n        /* \"SmartContractsInterview/Token.sol\":759:813  uint256 public constant PERCENTAGE_DENOMINATOR = 10000 */\n      dup2\n      jump\n        /* \"SmartContractsInterview/Token.sol\":12505:12760  function updateSellTaxRate(uint256 _sellTaxRate) external onlyOwner {... */\n    tag_54:\n      callvalue\n      dup1\n      iszero\n      tag_306\n      jumpi\n      0x00\n      dup1\n      revert\n    tag_306:\n      pop\n      tag_91\n      tag_308\n      calldatasize\n      0x04\n      tag_146\n      jump\t// in\n    tag_308:\n      tag_309\n      jump\t// in\n        /* \"SmartContractsInterview/Token.sol\":1364:1397  uint256 public tokenScalingFactor */\n    tag_55:\n      callvalue\n      dup1\n      iszero\n      tag_310\n      jumpi\n      0x00\n      dup1\n      revert\n    tag_310:\n      pop\n      tag_102\n      sload(0x0e)\n      dup2\n      jump\n        /* \"SmartContractsInterview/Token.sol\":4362:4531  function allowance(... */\n    tag_56:\n      callvalue\n      dup1\n      iszero\n      tag_314\n      jumpi\n      0x00\n      dup1\n      revert\n    tag_314:\n      pop\n      tag_102\n      tag_316\n      calldatasize\n      0x04\n      tag_317\n      jump\t// in\n    tag_316:\n      sub(shl(0xa0, 0x01), 0x01)\n        /* \"SmartContractsInterview/Token.sol\":4494:4514  _allowances[_holder] */\n      swap2\n      dup3\n      and\n        /* \"SmartContractsInterview/Token.sol\":4468:4475  uint256 */\n      0x00\n        /* \"SmartContractsInterview/Token.sol\":4494:4514  _allowances[_holder] */\n      swap1\n      dup2\n      mstore\n        /* \"SmartContractsInterview/Token.sol\":4494:4505  _allowances */\n      0x08\n        /* \"SmartContractsInterview/Token.sol\":4494:4514  _allowances[_holder] */\n      0x20\n      swap1\n      dup2\n      mstore\n      0x40\n      dup1\n      dup4\n      keccak256\n        /* \"SmartContractsInterview/Token.sol\":4494:4524  _allowances[_holder][_spender] */\n      swap4\n      swap1\n      swap5\n      and\n      dup3\n      mstore\n      swap2\n      swap1\n      swap2\n      mstore\n      keccak256\n      sload\n      swap1\n        /* \"SmartContractsInterview/Token.sol\":4362:4531  function allowance(... */\n      jump\n        /* \"SmartContractsInterview/Token.sol\":13126:13249  function updateDebaseDuration(uint256 _debaseDuration) external onlyOwner {... */\n    tag_57:\n      callvalue\n      dup1\n      iszero\n      tag_320\n      jumpi\n      0x00\n      dup1\n      revert\n    tag_320:\n      pop\n      tag_91\n      tag_322\n      calldatasize\n      0x04\n      tag_146\n      jump\t// in\n    tag_322:\n      tag_323\n      jump\t// in\n        /* \"SmartContractsInterview/Token.sol\":17225:17441  function _treasuryBalanceOf() public view returns (uint256) {... */\n    tag_58:\n      callvalue\n      dup1\n      iszero\n      tag_324\n      jumpi\n      0x00\n      dup1\n      revert\n    tag_324:\n      pop\n      tag_102\n      tag_326\n      jump\t// in\n        /* \"SmartContractsInterview/Token.sol\":15286:16812  function multiAirdropTokenRequested(... */\n    tag_59:\n      callvalue\n      dup1\n      iszero\n      tag_328\n      jumpi\n      0x00\n      dup1\n      revert\n    tag_328:\n      pop\n      tag_91\n      tag_330\n      calldatasize\n      0x04\n      tag_331\n      jump\t// in\n    tag_330:\n      tag_332\n      jump\t// in\n        /* \"@openzeppelin/contracts/access/Ownable.sol\":2543:2758  function transferOwnership(address newOwner) public virtual onlyOwner {... */\n    tag_60:\n      callvalue\n      dup1\n      iszero\n      tag_333\n      jumpi\n      0x00\n      dup1\n      revert\n    tag_333:\n      pop\n      tag_91\n      tag_335\n      calldatasize\n      0x04\n      tag_98\n      jump\t// in\n    tag_335:\n      tag_336\n      jump\t// in\n        /* \"SmartContractsInterview/Token.sol\":929:956  string public override name */\n    tag_80:\n      0x03\n      dup1\n      sload\n      tag_337\n      swap1\n      tag_338\n      jump\t// in\n    tag_337:\n      dup1\n      0x1f\n      add\n      0x20\n      dup1\n      swap2\n      div\n      mul\n      0x20\n      add\n      mload(0x40)\n      swap1\n      dup2\n      add\n      0x40\n      mstore\n      dup1\n      swap3\n      swap2\n      swap1\n      dup2\n      dup2\n      mstore\n      0x20\n      add\n      dup3\n      dup1\n      sload\n      tag_339\n      swap1\n      tag_338\n      jump\t// in\n    tag_339:\n      dup1\n      iszero\n      tag_340\n      jumpi\n      dup1\n      0x1f\n      lt\n      tag_341\n      jumpi\n      0x0100\n      dup1\n      dup4\n      sload\n      div\n      mul\n      dup4\n      mstore\n      swap2\n      0x20\n      add\n      swap2\n      jump(tag_340)\n    tag_341:\n      dup3\n      add\n      swap2\n      swap1\n      0x00\n      mstore\n      keccak256(0x00, 0x20)\n      swap1\n    tag_342:\n      dup2\n      sload\n      dup2\n      mstore\n      swap1\n      0x01\n      add\n      swap1\n      0x20\n      add\n      dup1\n      dup4\n      gt\n      tag_342\n      jumpi\n      dup3\n      swap1\n      sub\n      0x1f\n      and\n      dup3\n      add\n      swap2\n    tag_340:\n      pop\n      pop\n      pop\n      pop\n      pop\n      dup2\n      jump\t// out\n        /* \"SmartContractsInterview/Token.sol\":4537:4719  function approve(... */\n    tag_87:\n        /* \"SmartContractsInterview/Token.sol\":4636:4640  bool */\n      0x00\n        /* \"SmartContractsInterview/Token.sol\":4652:4691  _approve(msg.sender, _spender, _amount) */\n      tag_344\n        /* \"SmartContractsInterview/Token.sol\":4661:4671  msg.sender */\n      caller\n        /* \"SmartContractsInterview/Token.sol\":4673:4681  _spender */\n      dup5\n        /* \"SmartContractsInterview/Token.sol\":4683:4690  _amount */\n      dup5\n        /* \"SmartContractsInterview/Token.sol\":4652:4660  _approve */\n      tag_94\n        /* \"SmartContractsInterview/Token.sol\":4652:4691  _approve(msg.sender, _spender, _amount) */\n      jump\t// in\n    tag_344:\n      pop\n        /* \"SmartContractsInterview/Token.sol\":4708:4712  true */\n      0x01\n        /* \"SmartContractsInterview/Token.sol\":4537:4719  function approve(... */\n    tag_343:\n      swap3\n      swap2\n      pop\n      pop\n      jump\t// out\n        /* \"SmartContractsInterview/Token.sol\":5723:6106  function _approve(... */\n    tag_94:\n      sub(shl(0xa0, 0x01), 0x01)\n        /* \"SmartContractsInterview/Token.sol\":5856:5877  _holder != address(0) */\n      dup4\n      and\n        /* \"SmartContractsInterview/Token.sol\":5848:5918  require(_holder != address(0), \"ERC20: approve from the zero address\") */\n      tag_346\n      jumpi\n      mload(0x40)\n      shl(0xe5, 0x461bcd)\n      dup2\n      mstore\n        /* \"#utility.yul\":7952:7954   */\n      0x20\n        /* \"SmartContractsInterview/Token.sol\":5848:5918  require(_holder != address(0), \"ERC20: approve from the zero address\") */\n      0x04\n      dup3\n      add\n        /* \"#utility.yul\":7934:7955   */\n      mstore\n        /* \"#utility.yul\":7991:7993   */\n      0x24\n        /* \"#utility.yul\":7971:7989   */\n      dup1\n      dup3\n      add\n        /* \"#utility.yul\":7964:7994   */\n      mstore\n        /* \"#utility.yul\":8030:8064   */\n      0x45524332303a20617070726f76652066726f6d20746865207a65726f20616464\n        /* \"#utility.yul\":8010:8028   */\n      0x44\n      dup3\n      add\n        /* \"#utility.yul\":8003:8065   */\n      mstore\n      shl(0xe0, 0x72657373)\n        /* \"#utility.yul\":8081:8099   */\n      0x64\n      dup3\n      add\n        /* \"#utility.yul\":8074:8108   */\n      mstore\n        /* \"#utility.yul\":8125:8144   */\n      0x84\n      add\n        /* \"SmartContractsInterview/Token.sol\":5848:5918  require(_holder != address(0), \"ERC20: approve from the zero address\") */\n    tag_347:\n      mload(0x40)\n      dup1\n      swap2\n      sub\n      swap1\n      revert\n    tag_346:\n      sub(shl(0xa0, 0x01), 0x01)\n        /* \"SmartContractsInterview/Token.sol\":5936:5958  _spender != address(0) */\n      dup3\n      and\n        /* \"SmartContractsInterview/Token.sol\":5928:5997  require(_spender != address(0), \"ERC20: approve to the zero address\") */\n      tag_349\n      jumpi\n      mload(0x40)\n      shl(0xe5, 0x461bcd)\n      dup2\n      mstore\n        /* \"#utility.yul\":8357:8359   */\n      0x20\n        /* \"SmartContractsInterview/Token.sol\":5928:5997  require(_spender != address(0), \"ERC20: approve to the zero address\") */\n      0x04\n      dup3\n      add\n        /* \"#utility.yul\":8339:8360   */\n      mstore\n        /* \"#utility.yul\":8396:8398   */\n      0x22\n        /* \"#utility.yul\":8376:8394   */\n      0x24\n      dup3\n      add\n        /* \"#utility.yul\":8369:8399   */\n      mstore\n        /* \"#utility.yul\":8435:8469   */\n      0x45524332303a20617070726f766520746f20746865207a65726f206164647265\n        /* \"#utility.yul\":8415:8433   */\n      0x44\n      dup3\n      add\n        /* \"#utility.yul\":8408:8470   */\n      mstore\n      shl(0xf0, 0x7373)\n        /* \"#utility.yul\":8486:8504   */\n      0x64\n      dup3\n      add\n        /* \"#utility.yul\":8479:8511   */\n      mstore\n        /* \"#utility.yul\":8528:8547   */\n      0x84\n      add\n        /* \"SmartContractsInterview/Token.sol\":5928:5997  require(_spender != address(0), \"ERC20: approve to the zero address\") */\n      tag_347\n        /* \"#utility.yul\":8155:8553   */\n      jump\n        /* \"SmartContractsInterview/Token.sol\":5928:5997  require(_spender != address(0), \"ERC20: approve to the zero address\") */\n    tag_349:\n      sub(shl(0xa0, 0x01), 0x01)\n        /* \"SmartContractsInterview/Token.sol\":6008:6028  _allowances[_holder] */\n      dup4\n      dup2\n      and\n      0x00\n      dup2\n      dup2\n      mstore\n        /* \"SmartContractsInterview/Token.sol\":6008:6019  _allowances */\n      0x08\n        /* \"SmartContractsInterview/Token.sol\":6008:6028  _allowances[_holder] */\n      0x20\n      swap1\n      dup2\n      mstore\n      0x40\n      dup1\n      dup4\n      keccak256\n        /* \"SmartContractsInterview/Token.sol\":6008:6038  _allowances[_holder][_spender] */\n      swap5\n      dup8\n      and\n      dup1\n      dup5\n      mstore\n      swap5\n      dup3\n      mstore\n      swap2\n      dup3\n      swap1\n      keccak256\n        /* \"SmartContractsInterview/Token.sol\":6008:6048  _allowances[_holder][_spender] = _amount */\n      dup6\n      swap1\n      sstore\n        /* \"SmartContractsInterview/Token.sol\":6063:6099  Approval(_holder, _spender, _amount) */\n      swap1\n      mload\n        /* \"#utility.yul\":1924:1949   */\n      dup5\n      dup2\n      mstore\n        /* \"SmartContractsInterview/Token.sol\":6063:6099  Approval(_holder, _spender, _amount) */\n      0x8c5be1e5ebec7d5bd14f71427d1e84f3dd0314c0f7b2291e5b200ac8c7c3b925\n      swap2\n        /* \"#utility.yul\":1897:1915   */\n      add\n        /* \"SmartContractsInterview/Token.sol\":6063:6099  Approval(_holder, _spender, _amount) */\n    tag_352:\n      mload(0x40)\n      dup1\n      swap2\n      sub\n      swap1\n      log3\n        /* \"SmartContractsInterview/Token.sol\":5723:6106  function _approve(... */\n      pop\n      pop\n      pop\n      jump\t// out\n        /* \"SmartContractsInterview/Token.sol\":3453:3564  function totalSupply() public view override returns (uint256) {... */\n    tag_103:\n        /* \"SmartContractsInterview/Token.sol\":3506:3513  uint256 */\n      0x00\n        /* \"SmartContractsInterview/Token.sol\":3542:3557  treasuryBalance */\n      sload(0x0a)\n        /* \"SmartContractsInterview/Token.sol\":3532:3539  tSupply */\n      sload(0x06)\n        /* \"SmartContractsInterview/Token.sol\":3532:3557  tSupply + treasuryBalance */\n      tag_354\n      swap2\n      swap1\n      tag_355\n      jump\t// in\n    tag_354:\n        /* \"SmartContractsInterview/Token.sol\":3525:3557  return tSupply + treasuryBalance */\n      swap1\n      pop\n        /* \"SmartContractsInterview/Token.sol\":3453:3564  function totalSupply() public view override returns (uint256) {... */\n      swap1\n      jump\t// out\n        /* \"SmartContractsInterview/Token.sol\":4725:5148  function transferFrom(... */\n    tag_109:\n        /* \"SmartContractsInterview/Token.sol\":4856:4860  bool */\n      0x00\n        /* \"SmartContractsInterview/Token.sol\":4872:4911  _transfer(_sender, _recipient, _amount) */\n      tag_357\n        /* \"SmartContractsInterview/Token.sol\":4882:4889  _sender */\n      dup5\n        /* \"SmartContractsInterview/Token.sol\":4891:4901  _recipient */\n      dup5\n        /* \"SmartContractsInterview/Token.sol\":4903:4910  _amount */\n      dup5\n        /* \"SmartContractsInterview/Token.sol\":4872:4881  _transfer */\n      tag_122\n        /* \"SmartContractsInterview/Token.sol\":4872:4911  _transfer(_sender, _recipient, _amount) */\n      jump\t// in\n    tag_357:\n        /* \"SmartContractsInterview/Token.sol\":4921:5120  _approve(_sender,... */\n      tag_358\n        /* \"SmartContractsInterview/Token.sol\":4930:4937  _sender */\n      dup5\n        /* \"SmartContractsInterview/Token.sol\":4951:4961  msg.sender */\n      caller\n        /* \"SmartContractsInterview/Token.sol\":4975:5110  _allowances[_sender][msg.sender].sub(... */\n      tag_92\n        /* \"SmartContractsInterview/Token.sol\":5029:5036  _amount */\n      dup6\n        /* \"SmartContractsInterview/Token.sol\":4975:5110  _allowances[_sender][msg.sender].sub(... */\n      mload(0x40)\n      dup1\n      0x60\n      add\n      0x40\n      mstore\n      dup1\n      0x28\n      dup2\n      mstore\n      0x20\n      add\n      data_974d1b4421da69cc60b481194f0dad36a5bb4e23da810da7a7fb30cdba178330\n      0x28\n      swap2\n      codecopy\n      sub(shl(0xa0, 0x01), 0x01)\n        /* \"SmartContractsInterview/Token.sol\":4975:4995  _allowances[_sender] */\n      dup11\n      and\n      0x00\n      swap1\n      dup2\n      mstore\n        /* \"SmartContractsInterview/Token.sol\":4975:4986  _allowances */\n      0x08\n        /* \"SmartContractsInterview/Token.sol\":4975:4995  _allowances[_sender] */\n      0x20\n      swap1\n      dup2\n      mstore\n      0x40\n      dup1\n      dup4\n      keccak256\n        /* \"SmartContractsInterview/Token.sol\":4996:5006  msg.sender */\n      caller\n        /* \"SmartContractsInterview/Token.sol\":4975:5007  _allowances[_sender][msg.sender] */\n      dup5\n      mstore\n      swap1\n      swap2\n      mstore\n      swap1\n      keccak256\n      sload\n      swap2\n        /* \"SmartContractsInterview/Token.sol\":4975:5110  _allowances[_sender][msg.sender].sub(... */\n      swap1\n        /* \"SmartContractsInterview/Token.sol\":4975:5011  _allowances[_sender][msg.sender].sub */\n      tag_360\n        /* \"SmartContractsInterview/Token.sol\":4975:5110  _allowances[_sender][msg.sender].sub(... */\n      jump\t// in\n        /* \"SmartContractsInterview/Token.sol\":4921:5120  _approve(_sender,... */\n    tag_358:\n      pop\n        /* \"SmartContractsInterview/Token.sol\":5137:5141  true */\n      0x01\n        /* \"SmartContractsInterview/Token.sol\":4725:5148  function transferFrom(... */\n      swap4\n      swap3\n      pop\n      pop\n      pop\n      jump\t// out\n        /* \"SmartContractsInterview/Token.sol\":7233:9758  function _transfer(... */\n    tag_122:\n        /* \"@openzeppelin/contracts/security/Pausable.sol\":1239:1258  _requireNotPaused() */\n      tag_362\n        /* \"@openzeppelin/contracts/security/Pausable.sol\":1239:1256  _requireNotPaused */\n      tag_363\n        /* \"@openzeppelin/contracts/security/Pausable.sol\":1239:1258  _requireNotPaused() */\n      jump\t// in\n    tag_362:\n      sub(shl(0xa0, 0x01), 0x01)\n        /* \"SmartContractsInterview/Token.sol\":7366:7385  _from != address(0) */\n      dup4\n      and\n        /* \"SmartContractsInterview/Token.sol\":7358:7427  require(_from != address(0), \"ERC20: transfer from the zero address\") */\n      tag_365\n      jumpi\n      mload(0x40)\n      shl(0xe5, 0x461bcd)\n      dup2\n      mstore\n        /* \"#utility.yul\":9022:9024   */\n      0x20\n        /* \"SmartContractsInterview/Token.sol\":7358:7427  require(_from != address(0), \"ERC20: transfer from the zero address\") */\n      0x04\n      dup3\n      add\n        /* \"#utility.yul\":9004:9025   */\n      mstore\n        /* \"#utility.yul\":9061:9063   */\n      0x25\n        /* \"#utility.yul\":9041:9059   */\n      0x24\n      dup3\n      add\n        /* \"#utility.yul\":9034:9064   */\n      mstore\n        /* \"#utility.yul\":9100:9134   */\n      0x45524332303a207472616e736665722066726f6d20746865207a65726f206164\n        /* \"#utility.yul\":9080:9098   */\n      0x44\n      dup3\n      add\n        /* \"#utility.yul\":9073:9135   */\n      mstore\n      shl(0xd8, 0x6472657373)\n        /* \"#utility.yul\":9151:9169   */\n      0x64\n      dup3\n      add\n        /* \"#utility.yul\":9144:9179   */\n      mstore\n        /* \"#utility.yul\":9196:9215   */\n      0x84\n      add\n        /* \"SmartContractsInterview/Token.sol\":7358:7427  require(_from != address(0), \"ERC20: transfer from the zero address\") */\n      tag_347\n        /* \"#utility.yul\":8820:9221   */\n      jump\n        /* \"SmartContractsInterview/Token.sol\":7358:7427  require(_from != address(0), \"ERC20: transfer from the zero address\") */\n    tag_365:\n      sub(shl(0xa0, 0x01), 0x01)\n        /* \"SmartContractsInterview/Token.sol\":7445:7462  _to != address(0) */\n      dup3\n      and\n        /* \"SmartContractsInterview/Token.sol\":7437:7502  require(_to != address(0), \"ERC20: transfer to the zero address\") */\n      tag_368\n      jumpi\n      mload(0x40)\n      shl(0xe5, 0x461bcd)\n      dup2\n      mstore\n        /* \"#utility.yul\":9428:9430   */\n      0x20\n        /* \"SmartContractsInterview/Token.sol\":7437:7502  require(_to != address(0), \"ERC20: transfer to the zero address\") */\n      0x04\n      dup3\n      add\n        /* \"#utility.yul\":9410:9431   */\n      mstore\n        /* \"#utility.yul\":9467:9469   */\n      0x23\n        /* \"#utility.yul\":9447:9465   */\n      0x24\n      dup3\n      add\n        /* \"#utility.yul\":9440:9470   */\n      mstore\n        /* \"#utility.yul\":9506:9540   */\n      0x45524332303a207472616e7366657220746f20746865207a65726f2061646472\n        /* \"#utility.yul\":9486:9504   */\n      0x44\n      dup3\n      add\n        /* \"#utility.yul\":9479:9541   */\n      mstore\n      shl(0xe8, 0x657373)\n        /* \"#utility.yul\":9557:9575   */\n      0x64\n      dup3\n      add\n        /* \"#utility.yul\":9550:9583   */\n      mstore\n        /* \"#utility.yul\":9600:9619   */\n      0x84\n      add\n        /* \"SmartContractsInterview/Token.sol\":7437:7502  require(_to != address(0), \"ERC20: transfer to the zero address\") */\n      tag_347\n        /* \"#utility.yul\":9226:9625   */\n      jump\n        /* \"SmartContractsInterview/Token.sol\":7437:7502  require(_to != address(0), \"ERC20: transfer to the zero address\") */\n    tag_368:\n        /* \"SmartContractsInterview/Token.sol\":7536:7543  _amount */\n      dup1\n        /* \"SmartContractsInterview/Token.sol\":7517:7533  balanceOf(_from) */\n      tag_371\n        /* \"SmartContractsInterview/Token.sol\":7527:7532  _from */\n      dup5\n        /* \"SmartContractsInterview/Token.sol\":7517:7526  balanceOf */\n      tag_219\n        /* \"SmartContractsInterview/Token.sol\":7517:7533  balanceOf(_from) */\n      jump\t// in\n    tag_371:\n        /* \"SmartContractsInterview/Token.sol\":7517:7543  balanceOf(_from) < _amount */\n      lt\n        /* \"SmartContractsInterview/Token.sol\":7513:7611  if (balanceOf(_from) < _amount) {... */\n      iszero\n      tag_372\n      jumpi\n        /* \"SmartContractsInterview/Token.sol\":7559:7600  revert(\"Insufficient Funds For Transfer\") */\n      mload(0x40)\n      shl(0xe5, 0x461bcd)\n      dup2\n      mstore\n        /* \"#utility.yul\":9832:9834   */\n      0x20\n        /* \"SmartContractsInterview/Token.sol\":7559:7600  revert(\"Insufficient Funds For Transfer\") */\n      0x04\n      dup3\n      add\n        /* \"#utility.yul\":9814:9835   */\n      mstore\n        /* \"#utility.yul\":9871:9873   */\n      0x1f\n        /* \"#utility.yul\":9851:9869   */\n      0x24\n      dup3\n      add\n        /* \"#utility.yul\":9844:9874   */\n      mstore\n        /* \"#utility.yul\":9910:9943   */\n      0x496e73756666696369656e742046756e647320466f72205472616e7366657200\n        /* \"#utility.yul\":9890:9908   */\n      0x44\n      dup3\n      add\n        /* \"#utility.yul\":9883:9944   */\n      mstore\n        /* \"#utility.yul\":9961:9979   */\n      0x64\n      add\n        /* \"SmartContractsInterview/Token.sol\":7559:7600  revert(\"Insufficient Funds For Transfer\") */\n      tag_347\n        /* \"#utility.yul\":9630:9985   */\n      jump\n        /* \"SmartContractsInterview/Token.sol\":7513:7611  if (balanceOf(_from) < _amount) {... */\n    tag_372:\n        /* \"SmartContractsInterview/Token.sol\":7656:7668  holdingLimit */\n      sload(0x10)\n        /* \"SmartContractsInterview/Token.sol\":7638:7652  balanceOf(_to) */\n      tag_375\n        /* \"SmartContractsInterview/Token.sol\":7648:7651  _to */\n      dup4\n        /* \"SmartContractsInterview/Token.sol\":7638:7647  balanceOf */\n      tag_219\n        /* \"SmartContractsInterview/Token.sol\":7638:7652  balanceOf(_to) */\n      jump\t// in\n    tag_375:\n        /* \"SmartContractsInterview/Token.sol\":7638:7668  balanceOf(_to) >= holdingLimit */\n      lt\n      iszero\n        /* \"SmartContractsInterview/Token.sol\":7638:7704  balanceOf(_to) >= holdingLimit && !isExcludedFromHoldingLimit[_to] */\n      dup1\n      iszero\n      tag_376\n      jumpi\n      pop\n      sub(shl(0xa0, 0x01), 0x01)\n        /* \"SmartContractsInterview/Token.sol\":7673:7704  isExcludedFromHoldingLimit[_to] */\n      dup3\n      and\n      0x00\n      swap1\n      dup2\n      mstore\n        /* \"SmartContractsInterview/Token.sol\":7673:7699  isExcludedFromHoldingLimit */\n      0x13\n        /* \"SmartContractsInterview/Token.sol\":7673:7704  isExcludedFromHoldingLimit[_to] */\n      0x20\n      mstore\n      0x40\n      swap1\n      keccak256\n      sload\n      0xff\n      and\n        /* \"SmartContractsInterview/Token.sol\":7672:7704  !isExcludedFromHoldingLimit[_to] */\n      iszero\n        /* \"SmartContractsInterview/Token.sol\":7638:7704  balanceOf(_to) >= holdingLimit && !isExcludedFromHoldingLimit[_to] */\n    tag_376:\n        /* \"SmartContractsInterview/Token.sol\":7621:7774  if (... */\n      iszero\n      tag_377\n      jumpi\n        /* \"SmartContractsInterview/Token.sol\":7729:7763  revert(\"Holding Tokens exceeded!\") */\n      mload(0x40)\n      shl(0xe5, 0x461bcd)\n      dup2\n      mstore\n        /* \"#utility.yul\":10192:10194   */\n      0x20\n        /* \"SmartContractsInterview/Token.sol\":7729:7763  revert(\"Holding Tokens exceeded!\") */\n      0x04\n      dup3\n      add\n        /* \"#utility.yul\":10174:10195   */\n      mstore\n        /* \"#utility.yul\":10231:10233   */\n      0x18\n        /* \"#utility.yul\":10211:10229   */\n      0x24\n      dup3\n      add\n        /* \"#utility.yul\":10204:10234   */\n      mstore\n        /* \"#utility.yul\":10270:10296   */\n      0x486f6c64696e6720546f6b656e73206578636565646564210000000000000000\n        /* \"#utility.yul\":10250:10268   */\n      0x44\n      dup3\n      add\n        /* \"#utility.yul\":10243:10297   */\n      mstore\n        /* \"#utility.yul\":10314:10332   */\n      0x64\n      add\n        /* \"SmartContractsInterview/Token.sol\":7729:7763  revert(\"Holding Tokens exceeded!\") */\n      tag_347\n        /* \"#utility.yul\":9990:10338   */\n      jump\n        /* \"SmartContractsInterview/Token.sol\":7621:7774  if (... */\n    tag_377:\n      sub(shl(0xa0, 0x01), 0x01)\n        /* \"SmartContractsInterview/Token.sol\":7837:7868  isExcludedFromHoldingLimit[_to] */\n      dup3\n      and\n        /* \"SmartContractsInterview/Token.sol\":7784:7798  uint256 amount */\n      0x00\n        /* \"SmartContractsInterview/Token.sol\":7837:7868  isExcludedFromHoldingLimit[_to] */\n      swap1\n      dup2\n      mstore\n        /* \"SmartContractsInterview/Token.sol\":7837:7863  isExcludedFromHoldingLimit */\n      0x13\n        /* \"SmartContractsInterview/Token.sol\":7837:7868  isExcludedFromHoldingLimit[_to] */\n      0x20\n      mstore\n      0x40\n      swap1\n      keccak256\n      sload\n        /* \"SmartContractsInterview/Token.sol\":7801:7808  _amount */\n      dup2\n      swap1\n        /* \"SmartContractsInterview/Token.sol\":7837:7868  isExcludedFromHoldingLimit[_to] */\n      0xff\n      and\n        /* \"SmartContractsInterview/Token.sol\":7836:7868  !isExcludedFromHoldingLimit[_to] */\n      iszero\n        /* \"SmartContractsInterview/Token.sol\":7836:7922  !isExcludedFromHoldingLimit[_to] &&... */\n      dup1\n      iszero\n      tag_380\n      jumpi\n      pop\n        /* \"SmartContractsInterview/Token.sol\":7910:7922  holdingLimit */\n      sload(0x10)\n        /* \"SmartContractsInterview/Token.sol\":7901:7907  amount */\n      dup2\n        /* \"SmartContractsInterview/Token.sol\":7884:7898  balanceOf(_to) */\n      tag_381\n        /* \"SmartContractsInterview/Token.sol\":7894:7897  _to */\n      dup6\n        /* \"SmartContractsInterview/Token.sol\":7884:7893  balanceOf */\n      tag_219\n        /* \"SmartContractsInterview/Token.sol\":7884:7898  balanceOf(_to) */\n      jump\t// in\n    tag_381:\n        /* \"SmartContractsInterview/Token.sol\":7884:7907  balanceOf(_to) + amount */\n      tag_382\n      swap2\n      swap1\n      tag_355\n      jump\t// in\n    tag_382:\n        /* \"SmartContractsInterview/Token.sol\":7884:7922  balanceOf(_to) + amount > holdingLimit */\n      gt\n        /* \"SmartContractsInterview/Token.sol\":7836:7922  !isExcludedFromHoldingLimit[_to] &&... */\n    tag_380:\n        /* \"SmartContractsInterview/Token.sol\":7819:8016  if (... */\n      iszero\n      tag_383\n      jumpi\n        /* \"SmartContractsInterview/Token.sol\":7992:8004  holdingLimit */\n      sload(0x10)\n        /* \"SmartContractsInterview/Token.sol\":7983:7989  amount */\n      dup2\n        /* \"SmartContractsInterview/Token.sol\":7966:7980  balanceOf(_to) */\n      tag_384\n        /* \"SmartContractsInterview/Token.sol\":7976:7979  _to */\n      dup6\n        /* \"SmartContractsInterview/Token.sol\":7966:7975  balanceOf */\n      tag_219\n        /* \"SmartContractsInterview/Token.sol\":7966:7980  balanceOf(_to) */\n      jump\t// in\n    tag_384:\n        /* \"SmartContractsInterview/Token.sol\":7966:7989  balanceOf(_to) + amount */\n      tag_385\n      swap2\n      swap1\n      tag_355\n      jump\t// in\n    tag_385:\n        /* \"SmartContractsInterview/Token.sol\":7966:8004  balanceOf(_to) + amount - holdingLimit */\n      tag_386\n      swap2\n      swap1\n      tag_387\n      jump\t// in\n    tag_386:\n        /* \"SmartContractsInterview/Token.sol\":7956:8005  amount - (balanceOf(_to) + amount - holdingLimit) */\n      tag_388\n      swap1\n        /* \"SmartContractsInterview/Token.sol\":7956:7962  amount */\n      dup3\n        /* \"SmartContractsInterview/Token.sol\":7956:8005  amount - (balanceOf(_to) + amount - holdingLimit) */\n      tag_387\n      jump\t// in\n    tag_388:\n        /* \"SmartContractsInterview/Token.sol\":7947:8005  amount = amount - (balanceOf(_to) + amount - holdingLimit) */\n      swap1\n      pop\n        /* \"SmartContractsInterview/Token.sol\":7819:8016  if (... */\n    tag_383:\n        /* \"SmartContractsInterview/Token.sol\":8026:8045  uint256 debaseToken */\n      0x00\n        /* \"SmartContractsInterview/Token.sol\":8048:8078  _fragmentToDebaseToken(amount) */\n      tag_389\n        /* \"SmartContractsInterview/Token.sol\":8071:8077  amount */\n      dup3\n        /* \"SmartContractsInterview/Token.sol\":8048:8070  _fragmentToDebaseToken */\n      tag_254\n        /* \"SmartContractsInterview/Token.sol\":8048:8078  _fragmentToDebaseToken(amount) */\n      jump\t// in\n    tag_389:\n      sub(shl(0xa0, 0x01), 0x01)\n        /* \"SmartContractsInterview/Token.sol\":8092:8121  isExcludedFromDebasing[_from] */\n      dup7\n      and\n      0x00\n      swap1\n      dup2\n      mstore\n        /* \"SmartContractsInterview/Token.sol\":8092:8114  isExcludedFromDebasing */\n      0x12\n        /* \"SmartContractsInterview/Token.sol\":8092:8121  isExcludedFromDebasing[_from] */\n      0x20\n      mstore\n      0x40\n      swap1\n      keccak256\n      sload\n        /* \"SmartContractsInterview/Token.sol\":8026:8078  uint256 debaseToken = _fragmentToDebaseToken(amount) */\n      swap1\n      swap2\n      pop\n        /* \"SmartContractsInterview/Token.sol\":8092:8121  isExcludedFromDebasing[_from] */\n      0xff\n      and\n        /* \"SmartContractsInterview/Token.sol\":8088:8192  if (isExcludedFromDebasing[_from]) {... */\n      iszero\n      tag_390\n      jumpi\n        /* \"SmartContractsInterview/Token.sol\":8151:8181  _fragmentToDebaseToken(amount) */\n      tag_391\n        /* \"SmartContractsInterview/Token.sol\":8174:8180  amount */\n      dup3\n        /* \"SmartContractsInterview/Token.sol\":8151:8173  _fragmentToDebaseToken */\n      tag_254\n        /* \"SmartContractsInterview/Token.sol\":8151:8181  _fragmentToDebaseToken(amount) */\n      jump\t// in\n    tag_391:\n        /* \"SmartContractsInterview/Token.sol\":8137:8181  debaseToken = _fragmentToDebaseToken(amount) */\n      swap1\n      pop\n        /* \"SmartContractsInterview/Token.sol\":8088:8192  if (isExcludedFromDebasing[_from]) {... */\n    tag_390:\n        /* \"SmartContractsInterview/Token.sol\":8202:8217  uint256 sellTax */\n      0x00\n        /* \"SmartContractsInterview/Token.sol\":8245:8252  owner() */\n      tag_392\n        /* \"@openzeppelin/contracts/access/Ownable.sol\":1710:1716  _owner */\n      and(sub(shl(0xa0, 0x01), 0x01), sload(0x02))\n      swap1\n        /* \"@openzeppelin/contracts/access/Ownable.sol\":1638:1723  function owner() public view virtual returns (address) {... */\n      jump\n        /* \"SmartContractsInterview/Token.sol\":8245:8252  owner() */\n    tag_392:\n      sub(shl(0xa0, 0x01), 0x01)\n        /* \"SmartContractsInterview/Token.sol\":8236:8252  _from != owner() */\n      and\n        /* \"SmartContractsInterview/Token.sol\":8236:8241  _from */\n      dup7\n      sub(shl(0xa0, 0x01), 0x01)\n        /* \"SmartContractsInterview/Token.sol\":8236:8252  _from != owner() */\n      and\n      eq\n      iszero\n        /* \"SmartContractsInterview/Token.sol\":8236:8268  _from != owner() && lpPools[_to] */\n      dup1\n      iszero\n      tag_393\n      jumpi\n      pop\n      sub(shl(0xa0, 0x01), 0x01)\n        /* \"SmartContractsInterview/Token.sol\":8256:8268  lpPools[_to] */\n      dup6\n      and\n      0x00\n      swap1\n      dup2\n      mstore\n        /* \"SmartContractsInterview/Token.sol\":8256:8263  lpPools */\n      0x11\n        /* \"SmartContractsInterview/Token.sol\":8256:8268  lpPools[_to] */\n      0x20\n      mstore\n      0x40\n      swap1\n      keccak256\n      sload\n      0xff\n      and\n        /* \"SmartContractsInterview/Token.sol\":8236:8268  _from != owner() && lpPools[_to] */\n    tag_393:\n        /* \"SmartContractsInterview/Token.sol\":8232:8352  if (_from != owner() && lpPools[_to]) {... */\n      iszero\n      tag_394\n      jumpi\n        /* \"SmartContractsInterview/Token.sol\":808:813  10000 */\n      0x2710\n        /* \"SmartContractsInterview/Token.sol\":8304:8315  sellTaxRate */\n      sload(0x0c)\n        /* \"SmartContractsInterview/Token.sol\":8295:8301  amount */\n      dup5\n        /* \"SmartContractsInterview/Token.sol\":8295:8315  amount * sellTaxRate */\n      tag_395\n      swap2\n      swap1\n      tag_396\n      jump\t// in\n    tag_395:\n        /* \"SmartContractsInterview/Token.sol\":8294:8341  (amount * sellTaxRate) / PERCENTAGE_DENOMINATOR */\n      tag_397\n      swap2\n      swap1\n      tag_398\n      jump\t// in\n    tag_397:\n        /* \"SmartContractsInterview/Token.sol\":8284:8341  sellTax = (amount * sellTaxRate) / PERCENTAGE_DENOMINATOR */\n      swap1\n      pop\n        /* \"SmartContractsInterview/Token.sol\":8232:8352  if (_from != owner() && lpPools[_to]) {... */\n    tag_394:\n        /* \"SmartContractsInterview/Token.sol\":8362:8384  uint256 amountAfterTax */\n      0x00\n        /* \"SmartContractsInterview/Token.sol\":8387:8403  amount - sellTax */\n      tag_399\n        /* \"SmartContractsInterview/Token.sol\":8396:8403  sellTax */\n      dup3\n        /* \"SmartContractsInterview/Token.sol\":8387:8393  amount */\n      dup6\n        /* \"SmartContractsInterview/Token.sol\":8387:8403  amount - sellTax */\n      tag_387\n      jump\t// in\n    tag_399:\n        /* \"SmartContractsInterview/Token.sol\":8362:8403  uint256 amountAfterTax = amount - sellTax */\n      swap1\n      pop\n        /* \"SmartContractsInterview/Token.sol\":8413:8440  uint256 debaseTokenAfterTax */\n      0x00\n        /* \"SmartContractsInterview/Token.sol\":8443:8481  _fragmentToDebaseToken(amountAfterTax) */\n      tag_400\n        /* \"SmartContractsInterview/Token.sol\":8466:8480  amountAfterTax */\n      dup3\n        /* \"SmartContractsInterview/Token.sol\":8443:8465  _fragmentToDebaseToken */\n      tag_254\n        /* \"SmartContractsInterview/Token.sol\":8443:8481  _fragmentToDebaseToken(amountAfterTax) */\n      jump\t// in\n    tag_400:\n      sub(shl(0xa0, 0x01), 0x01)\n        /* \"SmartContractsInterview/Token.sol\":8517:8544  isExcludedFromDebasing[_to] */\n      dup9\n      and\n        /* \"SmartContractsInterview/Token.sol\":8491:8514  uint256 adjustedBalance */\n      0x00\n        /* \"SmartContractsInterview/Token.sol\":8517:8544  isExcludedFromDebasing[_to] */\n      swap1\n      dup2\n      mstore\n        /* \"SmartContractsInterview/Token.sol\":8517:8539  isExcludedFromDebasing */\n      0x12\n        /* \"SmartContractsInterview/Token.sol\":8517:8544  isExcludedFromDebasing[_to] */\n      0x20\n      mstore\n      0x40\n      dup2\n      keccak256\n      sload\n        /* \"SmartContractsInterview/Token.sol\":8413:8481  uint256 debaseTokenAfterTax = _fragmentToDebaseToken(amountAfterTax) */\n      swap2\n      swap3\n      pop\n        /* \"SmartContractsInterview/Token.sol\":8491:8514  uint256 adjustedBalance */\n      swap1\n        /* \"SmartContractsInterview/Token.sol\":8517:8544  isExcludedFromDebasing[_to] */\n      0xff\n      and\n        /* \"SmartContractsInterview/Token.sol\":8517:8631  isExcludedFromDebasing[_to]... */\n      tag_401\n      jumpi\n        /* \"SmartContractsInterview/Token.sol\":8612:8631  debaseTokenAfterTax */\n      dup2\n        /* \"SmartContractsInterview/Token.sol\":8517:8631  isExcludedFromDebasing[_to]... */\n      jump(tag_403)\n    tag_401:\n        /* \"SmartContractsInterview/Token.sol\":8559:8597  _fragmentToDebaseToken(amountAfterTax) */\n      tag_403\n        /* \"SmartContractsInterview/Token.sol\":8582:8596  amountAfterTax */\n      dup4\n        /* \"SmartContractsInterview/Token.sol\":8559:8581  _fragmentToDebaseToken */\n      tag_254\n        /* \"SmartContractsInterview/Token.sol\":8559:8597  _fragmentToDebaseToken(amountAfterTax) */\n      jump\t// in\n    tag_403:\n      sub(shl(0xa0, 0x01), 0x01)\n        /* \"SmartContractsInterview/Token.sol\":8642:8658  _balances[_from] */\n      dup11\n      and\n      0x00\n      swap1\n      dup2\n      mstore\n        /* \"SmartContractsInterview/Token.sol\":8642:8651  _balances */\n      0x09\n        /* \"SmartContractsInterview/Token.sol\":8642:8658  _balances[_from] */\n      0x20\n      mstore\n      0x40\n      dup2\n      keccak256\n        /* \"SmartContractsInterview/Token.sol\":8642:8673  _balances[_from] -= debaseToken */\n      dup1\n      sload\n        /* \"SmartContractsInterview/Token.sol\":8491:8631  uint256 adjustedBalance = isExcludedFromDebasing[_to]... */\n      swap3\n      swap4\n      pop\n        /* \"SmartContractsInterview/Token.sol\":8662:8673  debaseToken */\n      dup8\n      swap3\n        /* \"SmartContractsInterview/Token.sol\":8642:8658  _balances[_from] */\n      swap1\n      swap2\n      swap1\n        /* \"SmartContractsInterview/Token.sol\":8642:8673  _balances[_from] -= debaseToken */\n      tag_404\n      swap1\n        /* \"SmartContractsInterview/Token.sol\":8662:8673  debaseToken */\n      dup5\n      swap1\n        /* \"SmartContractsInterview/Token.sol\":8642:8673  _balances[_from] -= debaseToken */\n      tag_387\n      jump\t// in\n    tag_404:\n      swap1\n      swap2\n      sstore\n      pop\n      pop\n      sub(shl(0xa0, 0x01), 0x01)\n        /* \"SmartContractsInterview/Token.sol\":8688:8715  isExcludedFromDebasing[_to] */\n      dup9\n      and\n      0x00\n      swap1\n      dup2\n      mstore\n        /* \"SmartContractsInterview/Token.sol\":8688:8710  isExcludedFromDebasing */\n      0x12\n        /* \"SmartContractsInterview/Token.sol\":8688:8715  isExcludedFromDebasing[_to] */\n      0x20\n      mstore\n      0x40\n      swap1\n      keccak256\n      sload\n      0xff\n      and\n        /* \"SmartContractsInterview/Token.sol\":8684:8843  if (isExcludedFromDebasing[_to]) {... */\n      iszero\n      tag_405\n      jumpi\n      sub(shl(0xa0, 0x01), 0x01)\n        /* \"SmartContractsInterview/Token.sol\":8731:8745  _balances[_to] */\n      dup9\n      and\n      0x00\n      swap1\n      dup2\n      mstore\n        /* \"SmartContractsInterview/Token.sol\":8731:8740  _balances */\n      0x09\n        /* \"SmartContractsInterview/Token.sol\":8731:8745  _balances[_to] */\n      0x20\n      mstore\n      0x40\n      dup2\n      keccak256\n        /* \"SmartContractsInterview/Token.sol\":8731:8764  _balances[_to] += adjustedBalance */\n      dup1\n      sload\n        /* \"SmartContractsInterview/Token.sol\":8749:8764  adjustedBalance */\n      dup4\n      swap3\n        /* \"SmartContractsInterview/Token.sol\":8731:8745  _balances[_to] */\n      swap1\n        /* \"SmartContractsInterview/Token.sol\":8731:8764  _balances[_to] += adjustedBalance */\n      tag_406\n      swap1\n        /* \"SmartContractsInterview/Token.sol\":8749:8764  adjustedBalance */\n      dup5\n      swap1\n        /* \"SmartContractsInterview/Token.sol\":8731:8764  _balances[_to] += adjustedBalance */\n      tag_355\n      jump\t// in\n    tag_406:\n      swap1\n      swap2\n      sstore\n      pop\n        /* \"SmartContractsInterview/Token.sol\":8684:8843  if (isExcludedFromDebasing[_to]) {... */\n      tag_407\n      swap1\n      pop\n      jump\n    tag_405:\n      sub(shl(0xa0, 0x01), 0x01)\n        /* \"SmartContractsInterview/Token.sol\":8795:8809  _balances[_to] */\n      dup9\n      and\n      0x00\n      swap1\n      dup2\n      mstore\n        /* \"SmartContractsInterview/Token.sol\":8795:8804  _balances */\n      0x09\n        /* \"SmartContractsInterview/Token.sol\":8795:8809  _balances[_to] */\n      0x20\n      mstore\n      0x40\n      dup2\n      keccak256\n        /* \"SmartContractsInterview/Token.sol\":8795:8832  _balances[_to] += debaseTokenAfterTax */\n      dup1\n      sload\n        /* \"SmartContractsInterview/Token.sol\":8813:8832  debaseTokenAfterTax */\n      dup5\n      swap3\n        /* \"SmartContractsInterview/Token.sol\":8795:8809  _balances[_to] */\n      swap1\n        /* \"SmartContractsInterview/Token.sol\":8795:8832  _balances[_to] += debaseTokenAfterTax */\n      tag_408\n      swap1\n        /* \"SmartContractsInterview/Token.sol\":8813:8832  debaseTokenAfterTax */\n      dup5\n      swap1\n        /* \"SmartContractsInterview/Token.sol\":8795:8832  _balances[_to] += debaseTokenAfterTax */\n      tag_355\n      jump\t// in\n    tag_408:\n      swap1\n      swap2\n      sstore\n      pop\n      pop\n        /* \"SmartContractsInterview/Token.sol\":8684:8843  if (isExcludedFromDebasing[_to]) {... */\n    tag_407:\n        /* \"SmartContractsInterview/Token.sol\":8872:8879  sellTax */\n      dup4\n        /* \"SmartContractsInterview/Token.sol\":8853:8868  treasuryBalance */\n      0x0a\n      0x00\n        /* \"SmartContractsInterview/Token.sol\":8853:8879  treasuryBalance += sellTax */\n      dup3\n      dup3\n      sload\n      tag_409\n      swap2\n      swap1\n      tag_355\n      jump\t// in\n    tag_409:\n      swap3\n      pop\n      pop\n      dup2\n      swap1\n      sstore\n      pop\n        /* \"SmartContractsInterview/Token.sol\":8900:8907  sellTax */\n      dup4\n        /* \"SmartContractsInterview/Token.sol\":8889:8896  tSupply */\n      0x06\n      0x00\n        /* \"SmartContractsInterview/Token.sol\":8889:8907  tSupply -= sellTax */\n      dup3\n      dup3\n      sload\n      tag_410\n      swap2\n      swap1\n      tag_387\n      jump\t// in\n    tag_410:\n      swap3\n      pop\n      pop\n      dup2\n      swap1\n      sstore\n      pop\n        /* \"SmartContractsInterview/Token.sol\":8939:8942  _to */\n      dup8\n      sub(shl(0xa0, 0x01), 0x01)\n        /* \"SmartContractsInterview/Token.sol\":8923:8959  Transfer(_from, _to, amountAfterTax) */\n      and\n        /* \"SmartContractsInterview/Token.sol\":8932:8937  _from */\n      dup10\n      sub(shl(0xa0, 0x01), 0x01)\n        /* \"SmartContractsInterview/Token.sol\":8923:8959  Transfer(_from, _to, amountAfterTax) */\n      and\n      0x00\n      dup1\n      mload\n      0x20\n      data_ada389e1fc24a8587c776340efb91b36e675792ab631816100d55df0b5cf3cbc\n      dup4\n      codecopy\n      dup2\n      mload\n      swap2\n      mstore\n        /* \"SmartContractsInterview/Token.sol\":8944:8958  amountAfterTax */\n      dup6\n        /* \"SmartContractsInterview/Token.sol\":8923:8959  Transfer(_from, _to, amountAfterTax) */\n      mload(0x40)\n      tag_411\n      swap2\n        /* \"#utility.yul\":1924:1949   */\n      dup2\n      mstore\n        /* \"#utility.yul\":1912:1914   */\n      0x20\n        /* \"#utility.yul\":1897:1915   */\n      add\n      swap1\n        /* \"#utility.yul\":1778:1955   */\n      jump\n        /* \"SmartContractsInterview/Token.sol\":8923:8959  Transfer(_from, _to, amountAfterTax) */\n    tag_411:\n      mload(0x40)\n      dup1\n      swap2\n      sub\n      swap1\n      log3\n        /* \"SmartContractsInterview/Token.sol\":8974:8985  sellTax > 0 */\n      dup4\n      iszero\n        /* \"SmartContractsInterview/Token.sol\":8970:9057  if (sellTax > 0) {... */\n      tag_412\n      jumpi\n        /* \"SmartContractsInterview/Token.sol\":9022:9036  treasuryWallet */\n      sload(0x0b)\n        /* \"SmartContractsInterview/Token.sol\":9006:9046  Transfer(_from, treasuryWallet, sellTax) */\n      mload(0x40)\n        /* \"#utility.yul\":1924:1949   */\n      dup6\n      dup2\n      mstore\n      sub(shl(0xa0, 0x01), 0x01)\n        /* \"SmartContractsInterview/Token.sol\":9022:9036  treasuryWallet */\n      swap2\n      dup3\n      and\n      swap2\n        /* \"SmartContractsInterview/Token.sol\":9006:9046  Transfer(_from, treasuryWallet, sellTax) */\n      dup12\n      and\n      swap1\n      0x00\n      dup1\n      mload\n      0x20\n      data_ada389e1fc24a8587c776340efb91b36e675792ab631816100d55df0b5cf3cbc\n      dup4\n      codecopy\n      dup2\n      mload\n      swap2\n      mstore\n      swap1\n        /* \"#utility.yul\":1912:1914   */\n      0x20\n        /* \"#utility.yul\":1897:1915   */\n      add\n        /* \"SmartContractsInterview/Token.sol\":9006:9046  Transfer(_from, treasuryWallet, sellTax) */\n      mload(0x40)\n      dup1\n      swap2\n      sub\n      swap1\n      log3\n        /* \"SmartContractsInterview/Token.sol\":8970:9057  if (sellTax > 0) {... */\n    tag_412:\n      sub(shl(0xa0, 0x01), 0x01)\n        /* \"SmartContractsInterview/Token.sol\":9113:9142  isExcludedFromDebasing[_from] */\n      dup10\n      and\n      0x00\n      swap1\n      dup2\n      mstore\n        /* \"SmartContractsInterview/Token.sol\":9113:9135  isExcludedFromDebasing */\n      0x12\n        /* \"SmartContractsInterview/Token.sol\":9113:9142  isExcludedFromDebasing[_from] */\n      0x20\n      mstore\n      0x40\n      swap1\n      keccak256\n      sload\n      0xff\n      and\n        /* \"SmartContractsInterview/Token.sol\":9112:9142  !isExcludedFromDebasing[_from] */\n      iszero\n        /* \"SmartContractsInterview/Token.sol\":9112:9173  !isExcludedFromDebasing[_from] && isExcludedFromDebasing[_to] */\n      dup1\n      iszero\n      tag_414\n      jumpi\n      pop\n      sub(shl(0xa0, 0x01), 0x01)\n        /* \"SmartContractsInterview/Token.sol\":9146:9173  isExcludedFromDebasing[_to] */\n      dup9\n      and\n      0x00\n      swap1\n      dup2\n      mstore\n        /* \"SmartContractsInterview/Token.sol\":9146:9168  isExcludedFromDebasing */\n      0x12\n        /* \"SmartContractsInterview/Token.sol\":9146:9173  isExcludedFromDebasing[_to] */\n      0x20\n      mstore\n      0x40\n      swap1\n      keccak256\n      sload\n      0xff\n      and\n        /* \"SmartContractsInterview/Token.sol\":9112:9173  !isExcludedFromDebasing[_from] && isExcludedFromDebasing[_to] */\n    tag_414:\n        /* \"SmartContractsInterview/Token.sol\":9108:9634  if (!isExcludedFromDebasing[_from] && isExcludedFromDebasing[_to]) {... */\n      iszero\n      tag_415\n      jumpi\n        /* \"SmartContractsInterview/Token.sol\":9214:9228  amountAfterTax */\n      dup3\n        /* \"SmartContractsInterview/Token.sol\":9189:9210  excludeDebasingSupply */\n      0x07\n      0x00\n        /* \"SmartContractsInterview/Token.sol\":9189:9228  excludeDebasingSupply += amountAfterTax */\n      dup3\n      dup3\n      sload\n      tag_416\n      swap2\n      swap1\n      tag_355\n      jump\t// in\n    tag_416:\n      swap1\n      swap2\n      sstore\n      pop\n        /* \"SmartContractsInterview/Token.sol\":9108:9634  if (!isExcludedFromDebasing[_from] && isExcludedFromDebasing[_to]) {... */\n      tag_423\n      swap1\n      pop\n      jump\n    tag_415:\n      sub(shl(0xa0, 0x01), 0x01)\n        /* \"SmartContractsInterview/Token.sol\":9249:9278  isExcludedFromDebasing[_from] */\n      dup10\n      and\n      0x00\n      swap1\n      dup2\n      mstore\n        /* \"SmartContractsInterview/Token.sol\":9249:9271  isExcludedFromDebasing */\n      0x12\n        /* \"SmartContractsInterview/Token.sol\":9249:9278  isExcludedFromDebasing[_from] */\n      0x20\n      mstore\n      0x40\n      swap1\n      keccak256\n      sload\n      0xff\n      and\n        /* \"SmartContractsInterview/Token.sol\":9249:9310  isExcludedFromDebasing[_from] && !isExcludedFromDebasing[_to] */\n      dup1\n      iszero\n      tag_418\n      jumpi\n      pop\n      sub(shl(0xa0, 0x01), 0x01)\n        /* \"SmartContractsInterview/Token.sol\":9283:9310  isExcludedFromDebasing[_to] */\n      dup9\n      and\n      0x00\n      swap1\n      dup2\n      mstore\n        /* \"SmartContractsInterview/Token.sol\":9283:9305  isExcludedFromDebasing */\n      0x12\n        /* \"SmartContractsInterview/Token.sol\":9283:9310  isExcludedFromDebasing[_to] */\n      0x20\n      mstore\n      0x40\n      swap1\n      keccak256\n      sload\n      0xff\n      and\n        /* \"SmartContractsInterview/Token.sol\":9282:9310  !isExcludedFromDebasing[_to] */\n      iszero\n        /* \"SmartContractsInterview/Token.sol\":9249:9310  isExcludedFromDebasing[_from] && !isExcludedFromDebasing[_to] */\n    tag_418:\n        /* \"SmartContractsInterview/Token.sol\":9245:9634  if (isExcludedFromDebasing[_from] && !isExcludedFromDebasing[_to]) {... */\n      iszero\n      tag_419\n      jumpi\n        /* \"SmartContractsInterview/Token.sol\":9351:9365  amountAfterTax */\n      dup3\n        /* \"SmartContractsInterview/Token.sol\":9326:9347  excludeDebasingSupply */\n      0x07\n      0x00\n        /* \"SmartContractsInterview/Token.sol\":9326:9365  excludeDebasingSupply -= amountAfterTax */\n      dup3\n      dup3\n      sload\n      tag_416\n      swap2\n      swap1\n      tag_387\n      jump\t// in\n        /* \"SmartContractsInterview/Token.sol\":9245:9634  if (isExcludedFromDebasing[_from] && !isExcludedFromDebasing[_to]) {... */\n    tag_419:\n      sub(shl(0xa0, 0x01), 0x01)\n        /* \"SmartContractsInterview/Token.sol\":9386:9415  isExcludedFromDebasing[_from] */\n      dup10\n      and\n      0x00\n      swap1\n      dup2\n      mstore\n        /* \"SmartContractsInterview/Token.sol\":9386:9408  isExcludedFromDebasing */\n      0x12\n        /* \"SmartContractsInterview/Token.sol\":9386:9415  isExcludedFromDebasing[_from] */\n      0x20\n      mstore\n      0x40\n      swap1\n      keccak256\n      sload\n      0xff\n      and\n        /* \"SmartContractsInterview/Token.sol\":9386:9446  isExcludedFromDebasing[_from] && isExcludedFromDebasing[_to] */\n      dup1\n      iszero\n      tag_422\n      jumpi\n      pop\n      sub(shl(0xa0, 0x01), 0x01)\n        /* \"SmartContractsInterview/Token.sol\":9419:9446  isExcludedFromDebasing[_to] */\n      dup9\n      and\n      0x00\n      swap1\n      dup2\n      mstore\n        /* \"SmartContractsInterview/Token.sol\":9419:9441  isExcludedFromDebasing */\n      0x12\n        /* \"SmartContractsInterview/Token.sol\":9419:9446  isExcludedFromDebasing[_to] */\n      0x20\n      mstore\n      0x40\n      swap1\n      keccak256\n      sload\n      0xff\n      and\n        /* \"SmartContractsInterview/Token.sol\":9386:9446  isExcludedFromDebasing[_from] && isExcludedFromDebasing[_to] */\n    tag_422:\n        /* \"SmartContractsInterview/Token.sol\":9382:9634  if (isExcludedFromDebasing[_from] && isExcludedFromDebasing[_to]) {... */\n      pop\n    tag_423:\n        /* \"SmartContractsInterview/Token.sol\":9648:9663  treasuryBalance */\n      sload(0x0a)\n        /* \"SmartContractsInterview/Token.sol\":9648:9667  treasuryBalance > 0 */\n      iszero\n        /* \"SmartContractsInterview/Token.sol\":9644:9752  if (treasuryBalance > 0) {... */\n      tag_426\n      jumpi\n        /* \"SmartContractsInterview/Token.sol\":9709:9724  treasuryBalance */\n      sload(0x0a)\n        /* \"SmartContractsInterview/Token.sol\":9726:9740  treasuryWallet */\n      sload(0x0b)\n        /* \"SmartContractsInterview/Token.sol\":9683:9741  _sendTokensTreasuryWallet(treasuryBalance, treasuryWallet) */\n      tag_426\n      swap2\n        /* \"SmartContractsInterview/Token.sol\":9709:9724  treasuryBalance */\n      swap1\n      sub(shl(0xa0, 0x01), 0x01)\n        /* \"SmartContractsInterview/Token.sol\":9726:9740  treasuryWallet */\n      and\n        /* \"SmartContractsInterview/Token.sol\":9683:9708  _sendTokensTreasuryWallet */\n      tag_287\n        /* \"SmartContractsInterview/Token.sol\":9683:9741  _sendTokensTreasuryWallet(treasuryBalance, treasuryWallet) */\n      jump\t// in\n    tag_426:\n        /* \"SmartContractsInterview/Token.sol\":7348:9758  {... */\n      pop\n      pop\n      pop\n      pop\n      pop\n      pop\n        /* \"SmartContractsInterview/Token.sol\":7233:9758  function _transfer(... */\n      pop\n      pop\n      pop\n      jump\t// out\n        /* \"SmartContractsInterview/Token.sol\":14802:15026  function _excludedFromHoldingLimit(address _account,bool _isExcluded) public {... */\n    tag_132:\n      sub(shl(0xa0, 0x01), 0x01)\n        /* \"SmartContractsInterview/Token.sol\":14906:14928  _account != address(0) */\n      dup3\n      and\n        /* \"SmartContractsInterview/Token.sol\":14898:14959  require(_account != address(0), \"Account shouldn't be zero.\") */\n      tag_429\n      jumpi\n      mload(0x40)\n      shl(0xe5, 0x461bcd)\n      dup2\n      mstore\n        /* \"#utility.yul\":11073:11075   */\n      0x20\n        /* \"SmartContractsInterview/Token.sol\":14898:14959  require(_account != address(0), \"Account shouldn't be zero.\") */\n      0x04\n      dup3\n      add\n        /* \"#utility.yul\":11055:11076   */\n      mstore\n        /* \"#utility.yul\":11112:11114   */\n      0x1a\n        /* \"#utility.yul\":11092:11110   */\n      0x24\n      dup3\n      add\n        /* \"#utility.yul\":11085:11115   */\n      mstore\n        /* \"#utility.yul\":11151:11179   */\n      0x4163636f756e742073686f756c646e2774206265207a65726f2e000000000000\n        /* \"#utility.yul\":11131:11149   */\n      0x44\n      dup3\n      add\n        /* \"#utility.yul\":11124:11180   */\n      mstore\n        /* \"#utility.yul\":11197:11215   */\n      0x64\n      add\n        /* \"SmartContractsInterview/Token.sol\":14898:14959  require(_account != address(0), \"Account shouldn't be zero.\") */\n      tag_347\n        /* \"#utility.yul\":10871:11221   */\n      jump\n        /* \"SmartContractsInterview/Token.sol\":14898:14959  require(_account != address(0), \"Account shouldn't be zero.\") */\n    tag_429:\n      sub(shl(0xa0, 0x01), 0x01)\n        /* \"SmartContractsInterview/Token.sol\":14969:15005  isExcludedFromHoldingLimit[_account] */\n      swap2\n      swap1\n      swap2\n      and\n      0x00\n      swap1\n      dup2\n      mstore\n        /* \"SmartContractsInterview/Token.sol\":14969:14995  isExcludedFromHoldingLimit */\n      0x13\n        /* \"SmartContractsInterview/Token.sol\":14969:15005  isExcludedFromHoldingLimit[_account] */\n      0x20\n      mstore\n      0x40\n      swap1\n      keccak256\n        /* \"SmartContractsInterview/Token.sol\":14969:15019  isExcludedFromHoldingLimit[_account] = _isExcluded */\n      dup1\n      sload\n      not(0xff)\n      and\n      swap2\n      iszero\n      iszero\n      swap2\n      swap1\n      swap2\n      or\n      swap1\n      sstore\n        /* \"SmartContractsInterview/Token.sol\":14802:15026  function _excludedFromHoldingLimit(address _account,bool _isExcluded) public {... */\n      jump\t// out\n        /* \"SmartContractsInterview/Token.sol\":5154:5438  function increaseAllowance(... */\n    tag_136:\n        /* \"SmartContractsInterview/Token.sol\":5304:5314  msg.sender */\n      caller\n        /* \"SmartContractsInterview/Token.sol\":5266:5270  bool */\n      0x00\n        /* \"SmartContractsInterview/Token.sol\":5350:5373  _allowances[msg.sender] */\n      dup2\n      dup2\n      mstore\n        /* \"SmartContractsInterview/Token.sol\":5350:5361  _allowances */\n      0x08\n        /* \"SmartContractsInterview/Token.sol\":5350:5373  _allowances[msg.sender] */\n      0x20\n      swap1\n      dup2\n      mstore\n      0x40\n      dup1\n      dup4\n      keccak256\n      sub(shl(0xa0, 0x01), 0x01)\n        /* \"SmartContractsInterview/Token.sol\":5350:5383  _allowances[msg.sender][_spender] */\n      dup8\n      and\n      dup5\n      mstore\n      swap1\n      swap2\n      mstore\n      dup2\n      keccak256\n      sload\n        /* \"SmartContractsInterview/Token.sol\":5266:5270  bool */\n      swap1\n      swap2\n        /* \"SmartContractsInterview/Token.sol\":5282:5410  _approve(... */\n      tag_344\n      swap2\n        /* \"SmartContractsInterview/Token.sol\":5328:5336  _spender */\n      dup6\n      swap1\n        /* \"SmartContractsInterview/Token.sol\":5350:5400  _allowances[msg.sender][_spender].add(_addedValue) */\n      tag_92\n      swap1\n        /* \"SmartContractsInterview/Token.sol\":5388:5399  _addedValue */\n      dup7\n        /* \"SmartContractsInterview/Token.sol\":5350:5387  _allowances[msg.sender][_spender].add */\n      tag_435\n        /* \"SmartContractsInterview/Token.sol\":5350:5400  _allowances[msg.sender][_spender].add(_addedValue) */\n      jump\t// in\n        /* \"SmartContractsInterview/Token.sol\":12766:12881  function updateHoldingLimit(uint256 _holdingLimit) external onlyOwner {... */\n    tag_147:\n        /* \"@openzeppelin/contracts/access/Ownable.sol\":1531:1544  _checkOwner() */\n      tag_438\n        /* \"@openzeppelin/contracts/access/Ownable.sol\":1531:1542  _checkOwner */\n      tag_439\n        /* \"@openzeppelin/contracts/access/Ownable.sol\":1531:1544  _checkOwner() */\n      jump\t// in\n    tag_438:\n        /* \"SmartContractsInterview/Token.sol\":12846:12858  holdingLimit */\n      0x10\n        /* \"SmartContractsInterview/Token.sol\":12846:12874  holdingLimit = _holdingLimit */\n      sstore\n        /* \"SmartContractsInterview/Token.sol\":12766:12881  function updateHoldingLimit(uint256 _holdingLimit) external onlyOwner {... */\n      jump\t// out\n        /* \"SmartContractsInterview/Token.sol\":17030:17093  function unpause() public onlyOwner {... */\n    tag_154:\n        /* \"@openzeppelin/contracts/access/Ownable.sol\":1531:1544  _checkOwner() */\n      tag_442\n        /* \"@openzeppelin/contracts/access/Ownable.sol\":1531:1542  _checkOwner */\n      tag_439\n        /* \"@openzeppelin/contracts/access/Ownable.sol\":1531:1544  _checkOwner() */\n      jump\t// in\n    tag_442:\n        /* \"SmartContractsInterview/Token.sol\":17076:17086  _unpause() */\n      tag_444\n        /* \"SmartContractsInterview/Token.sol\":17076:17084  _unpause */\n      tag_445\n        /* \"SmartContractsInterview/Token.sol\":17076:17086  _unpause() */\n      jump\t// in\n    tag_444:\n        /* \"SmartContractsInterview/Token.sol\":17030:17093  function unpause() public onlyOwner {... */\n      jump\t// out\n        /* \"SmartContractsInterview/Token.sol\":10999:11483  function performUpkeep(bytes calldata /* performData */) external override {... */\n    tag_159:\n        /* \"SmartContractsInterview/Token.sol\":11225:11239  debaseDuration */\n      sload(0x0f)\n        /* \"SmartContractsInterview/Token.sol\":11208:11221  lastTimeStamp */\n      sload(0x15)\n        /* \"SmartContractsInterview/Token.sol\":11190:11221  block.timestamp - lastTimeStamp */\n      tag_447\n      swap1\n        /* \"SmartContractsInterview/Token.sol\":11190:11205  block.timestamp */\n      timestamp\n        /* \"SmartContractsInterview/Token.sol\":11190:11221  block.timestamp - lastTimeStamp */\n      tag_387\n      jump\t// in\n    tag_447:\n        /* \"SmartContractsInterview/Token.sol\":11189:11239  (block.timestamp - lastTimeStamp) > debaseDuration */\n      gt\n        /* \"SmartContractsInterview/Token.sol\":11168:11295  require(... */\n      tag_448\n      jumpi\n      mload(0x40)\n      shl(0xe5, 0x461bcd)\n      dup2\n      mstore\n        /* \"#utility.yul\":11428:11430   */\n      0x20\n        /* \"SmartContractsInterview/Token.sol\":11168:11295  require(... */\n      0x04\n      dup3\n      add\n        /* \"#utility.yul\":11410:11431   */\n      mstore\n        /* \"#utility.yul\":11467:11469   */\n      0x1e\n        /* \"#utility.yul\":11447:11465   */\n      0x24\n      dup3\n      add\n        /* \"#utility.yul\":11440:11470   */\n      mstore\n        /* \"#utility.yul\":11506:11538   */\n      0x4b656570557020726571756972656d656e74206973206e6f74206d6574210000\n        /* \"#utility.yul\":11486:11504   */\n      0x44\n      dup3\n      add\n        /* \"#utility.yul\":11479:11539   */\n      mstore\n        /* \"#utility.yul\":11556:11574   */\n      0x64\n      add\n        /* \"SmartContractsInterview/Token.sol\":11168:11295  require(... */\n      tag_347\n        /* \"#utility.yul\":11226:11580   */\n      jump\n        /* \"SmartContractsInterview/Token.sol\":11168:11295  require(... */\n    tag_448:\n        /* \"SmartContractsInterview/Token.sol\":11325:11346  excludeDebasingSupply */\n      sload(0x07)\n        /* \"SmartContractsInterview/Token.sol\":11314:11321  tSupply */\n      sload(0x06)\n        /* \"SmartContractsInterview/Token.sol\":11314:11346  tSupply >= excludeDebasingSupply */\n      lt\n      iszero\n        /* \"SmartContractsInterview/Token.sol\":11306:11413  require(tSupply >= excludeDebasingSupply, \"tSupply must be greater than or equal to excludeDebasingSupply\") */\n      tag_451\n      jumpi\n      mload(0x40)\n      shl(0xe5, 0x461bcd)\n      dup2\n      mstore\n        /* \"#utility.yul\":11787:11789   */\n      0x20\n        /* \"SmartContractsInterview/Token.sol\":11306:11413  require(tSupply >= excludeDebasingSupply, \"tSupply must be greater than or equal to excludeDebasingSupply\") */\n      0x04\n      dup3\n      add\n        /* \"#utility.yul\":11769:11790   */\n      mstore\n        /* \"#utility.yul\":11826:11828   */\n      0x3e\n        /* \"#utility.yul\":11806:11824   */\n      0x24\n      dup3\n      add\n        /* \"#utility.yul\":11799:11829   */\n      mstore\n        /* \"#utility.yul\":11865:11899   */\n      0x74537570706c79206d7573742062652067726561746572207468616e206f7220\n        /* \"#utility.yul\":11845:11863   */\n      0x44\n      dup3\n      add\n        /* \"#utility.yul\":11838:11900   */\n      mstore\n        /* \"#utility.yul\":11936:11968   */\n      0x657175616c20746f206578636c7564654465626173696e67537570706c790000\n        /* \"#utility.yul\":11916:11934   */\n      0x64\n      dup3\n      add\n        /* \"#utility.yul\":11909:11969   */\n      mstore\n        /* \"#utility.yul\":11986:12005   */\n      0x84\n      add\n        /* \"SmartContractsInterview/Token.sol\":11306:11413  require(tSupply >= excludeDebasingSupply, \"tSupply must be greater than or equal to excludeDebasingSupply\") */\n      tag_347\n        /* \"#utility.yul\":11585:12011   */\n      jump\n        /* \"SmartContractsInterview/Token.sol\":11306:11413  require(tSupply >= excludeDebasingSupply, \"tSupply must be greater than or equal to excludeDebasingSupply\") */\n    tag_451:\n        /* \"SmartContractsInterview/Token.sol\":11425:11434  _debase() */\n      tag_454\n        /* \"SmartContractsInterview/Token.sol\":11425:11432  _debase */\n      tag_455\n        /* \"SmartContractsInterview/Token.sol\":11425:11434  _debase() */\n      jump\t// in\n    tag_454:\n      pop\n      pop\n        /* \"SmartContractsInterview/Token.sol\":11461:11476  block.timestamp */\n      timestamp\n        /* \"SmartContractsInterview/Token.sol\":11445:11458  lastTimeStamp */\n      0x15\n        /* \"SmartContractsInterview/Token.sol\":11445:11476  lastTimeStamp = block.timestamp */\n      sstore\n        /* \"SmartContractsInterview/Token.sol\":10999:11483  function performUpkeep(bytes calldata /* performData */) external override {... */\n      jump\t// out\n        /* \"SmartContractsInterview/Token.sol\":6112:6685  function _mint(address _to, uint256 _amount) public {... */\n    tag_168:\n      sub(shl(0xa0, 0x01), 0x01)\n        /* \"SmartContractsInterview/Token.sol\":6182:6199  _to != address(0) */\n      dup3\n      and\n        /* \"SmartContractsInterview/Token.sol\":6174:6235  require(_to != address(0), \"ERC20: mint to the zero address\") */\n      tag_457\n      jumpi\n      mload(0x40)\n      shl(0xe5, 0x461bcd)\n      dup2\n      mstore\n        /* \"#utility.yul\":12218:12220   */\n      0x20\n        /* \"SmartContractsInterview/Token.sol\":6174:6235  require(_to != address(0), \"ERC20: mint to the zero address\") */\n      0x04\n      dup3\n      add\n        /* \"#utility.yul\":12200:12221   */\n      mstore\n        /* \"#utility.yul\":12257:12259   */\n      0x1f\n        /* \"#utility.yul\":12237:12255   */\n      0x24\n      dup3\n      add\n        /* \"#utility.yul\":12230:12260   */\n      mstore\n        /* \"#utility.yul\":12296:12329   */\n      0x45524332303a206d696e7420746f20746865207a65726f206164647265737300\n        /* \"#utility.yul\":12276:12294   */\n      0x44\n      dup3\n      add\n        /* \"#utility.yul\":12269:12330   */\n      mstore\n        /* \"#utility.yul\":12347:12365   */\n      0x64\n      add\n        /* \"SmartContractsInterview/Token.sol\":6174:6235  require(_to != address(0), \"ERC20: mint to the zero address\") */\n      tag_347\n        /* \"#utility.yul\":12016:12371   */\n      jump\n        /* \"SmartContractsInterview/Token.sol\":6174:6235  require(_to != address(0), \"ERC20: mint to the zero address\") */\n    tag_457:\n        /* \"SmartContractsInterview/Token.sol\":6257:6264  _amount */\n      dup1\n        /* \"SmartContractsInterview/Token.sol\":6246:6253  tSupply */\n      0x06\n      0x00\n        /* \"SmartContractsInterview/Token.sol\":6246:6264  tSupply += _amount */\n      dup3\n      dup3\n      sload\n      tag_460\n      swap2\n      swap1\n      tag_355\n      jump\t// in\n    tag_460:\n      swap1\n      swap2\n      sstore\n      pop\n        /* \"SmartContractsInterview/Token.sol\":6275:6300  uint256 debaseTokenAmount */\n      0x00\n      swap1\n      pop\n        /* \"SmartContractsInterview/Token.sol\":6303:6334  _fragmentToDebaseToken(_amount) */\n      tag_461\n        /* \"SmartContractsInterview/Token.sol\":6326:6333  _amount */\n      dup3\n        /* \"SmartContractsInterview/Token.sol\":6303:6325  _fragmentToDebaseToken */\n      tag_254\n        /* \"SmartContractsInterview/Token.sol\":6303:6334  _fragmentToDebaseToken(_amount) */\n      jump\t// in\n    tag_461:\n      sub(shl(0xa0, 0x01), 0x01)\n        /* \"SmartContractsInterview/Token.sol\":6348:6375  isExcludedFromDebasing[_to] */\n      dup5\n      and\n      0x00\n      swap1\n      dup2\n      mstore\n        /* \"SmartContractsInterview/Token.sol\":6348:6370  isExcludedFromDebasing */\n      0x12\n        /* \"SmartContractsInterview/Token.sol\":6348:6375  isExcludedFromDebasing[_to] */\n      0x20\n      mstore\n      0x40\n      swap1\n      keccak256\n      sload\n        /* \"SmartContractsInterview/Token.sol\":6275:6334  uint256 debaseTokenAmount = _fragmentToDebaseToken(_amount) */\n      swap1\n      swap2\n      pop\n        /* \"SmartContractsInterview/Token.sol\":6348:6375  isExcludedFromDebasing[_to] */\n      0xff\n      and\n        /* \"SmartContractsInterview/Token.sol\":6344:6499  if (isExcludedFromDebasing[_to]) {... */\n      iszero\n      tag_462\n      jumpi\n        /* \"SmartContractsInterview/Token.sol\":6416:6423  _amount */\n      dup2\n        /* \"SmartContractsInterview/Token.sol\":6391:6412  excludeDebasingSupply */\n      0x07\n      0x00\n        /* \"SmartContractsInterview/Token.sol\":6391:6423  excludeDebasingSupply += _amount */\n      dup3\n      dup3\n      sload\n      tag_463\n      swap2\n      swap1\n      tag_355\n      jump\t// in\n    tag_463:\n      swap1\n      swap2\n      sstore\n      pop\n        /* \"SmartContractsInterview/Token.sol\":6457:6488  _fragmentToDebaseToken(_amount) */\n      tag_464\n      swap1\n      pop\n        /* \"SmartContractsInterview/Token.sol\":6480:6487  _amount */\n      dup3\n        /* \"SmartContractsInterview/Token.sol\":6457:6479  _fragmentToDebaseToken */\n      tag_254\n        /* \"SmartContractsInterview/Token.sol\":6457:6488  _fragmentToDebaseToken(_amount) */\n      jump\t// in\n    tag_464:\n        /* \"SmartContractsInterview/Token.sol\":6437:6488  debaseTokenAmount = _fragmentToDebaseToken(_amount) */\n      swap1\n      pop\n        /* \"SmartContractsInterview/Token.sol\":6344:6499  if (isExcludedFromDebasing[_to]) {... */\n    tag_462:\n      sub(shl(0xa0, 0x01), 0x01)\n        /* \"SmartContractsInterview/Token.sol\":6509:6523  _balances[_to] */\n      dup4\n      and\n      0x00\n      swap1\n      dup2\n      mstore\n        /* \"SmartContractsInterview/Token.sol\":6509:6518  _balances */\n      0x09\n        /* \"SmartContractsInterview/Token.sol\":6509:6523  _balances[_to] */\n      0x20\n      mstore\n      0x40\n      dup2\n      keccak256\n        /* \"SmartContractsInterview/Token.sol\":6509:6544  _balances[_to] += debaseTokenAmount */\n      dup1\n      sload\n        /* \"SmartContractsInterview/Token.sol\":6527:6544  debaseTokenAmount */\n      dup4\n      swap3\n        /* \"SmartContractsInterview/Token.sol\":6509:6523  _balances[_to] */\n      swap1\n        /* \"SmartContractsInterview/Token.sol\":6509:6544  _balances[_to] += debaseTokenAmount */\n      tag_465\n      swap1\n        /* \"SmartContractsInterview/Token.sol\":6527:6544  debaseTokenAmount */\n      dup5\n      swap1\n        /* \"SmartContractsInterview/Token.sol\":6509:6544  _balances[_to] += debaseTokenAmount */\n      tag_355\n      jump\t// in\n    tag_465:\n      swap1\n      swap2\n      sstore\n      pop\n      pop\n        /* \"SmartContractsInterview/Token.sol\":6560:6578  Mint(_to, _amount) */\n      mload(0x40)\n        /* \"#utility.yul\":1924:1949   */\n      dup3\n      dup2\n      mstore\n      sub(shl(0xa0, 0x01), 0x01)\n        /* \"SmartContractsInterview/Token.sol\":6560:6578  Mint(_to, _amount) */\n      dup5\n      and\n      swap1\n      0x0f6798a560793a54c3bcfe86a93cde1e73087d944c0ea20544137d4121396885\n      swap1\n        /* \"#utility.yul\":1912:1914   */\n      0x20\n        /* \"#utility.yul\":1897:1915   */\n      add\n        /* \"SmartContractsInterview/Token.sol\":6560:6578  Mint(_to, _amount) */\n      mload(0x40)\n      dup1\n      swap2\n      sub\n      swap1\n      log2\n        /* \"SmartContractsInterview/Token.sol\":6599:6613  treasuryWallet */\n      sload(0x0b)\n      sub(shl(0xa0, 0x01), 0x01)\n        /* \"SmartContractsInterview/Token.sol\":6592:6613  _to != treasuryWallet */\n      dup5\n      dup2\n      and\n        /* \"SmartContractsInterview/Token.sol\":6599:6613  treasuryWallet */\n      swap2\n      and\n        /* \"SmartContractsInterview/Token.sol\":6592:6613  _to != treasuryWallet */\n      eq\n        /* \"SmartContractsInterview/Token.sol\":6588:6679  if (_to != treasuryWallet) {... */\n      tag_467\n      jumpi\n        /* \"SmartContractsInterview/Token.sol\":6634:6668  Transfer(address(0), _to, _amount) */\n      mload(0x40)\n        /* \"#utility.yul\":1924:1949   */\n      dup3\n      dup2\n      mstore\n      sub(shl(0xa0, 0x01), 0x01)\n        /* \"SmartContractsInterview/Token.sol\":6634:6668  Transfer(address(0), _to, _amount) */\n      dup5\n      and\n      swap1\n        /* \"SmartContractsInterview/Token.sol\":6651:6652  0 */\n      0x00\n      swap1\n      0x00\n      dup1\n      mload\n      0x20\n      data_ada389e1fc24a8587c776340efb91b36e675792ab631816100d55df0b5cf3cbc\n      dup4\n      codecopy\n      dup2\n      mload\n      swap2\n      mstore\n        /* \"SmartContractsInterview/Token.sol\":6634:6668  Transfer(address(0), _to, _amount) */\n      swap1\n        /* \"#utility.yul\":1912:1914   */\n      0x20\n        /* \"#utility.yul\":1897:1915   */\n      add\n        /* \"SmartContractsInterview/Token.sol\":6634:6668  Transfer(address(0), _to, _amount) */\n      tag_352\n        /* \"#utility.yul\":1778:1955   */\n      jump\n        /* \"SmartContractsInterview/Token.sol\":6588:6679  if (_to != treasuryWallet) {... */\n    tag_467:\n        /* \"SmartContractsInterview/Token.sol\":6164:6685  {... */\n      pop\n        /* \"SmartContractsInterview/Token.sol\":6112:6685  function _mint(address _to, uint256 _amount) public {... */\n      pop\n      pop\n      jump\t// out\n        /* \"SmartContractsInterview/Token.sol\":16818:16959  function setLastTime() external onlyOwner {... */\n    tag_179:\n        /* \"@openzeppelin/contracts/access/Ownable.sol\":1531:1544  _checkOwner() */\n      tag_471\n        /* \"@openzeppelin/contracts/access/Ownable.sol\":1531:1542  _checkOwner */\n      tag_439\n        /* \"@openzeppelin/contracts/access/Ownable.sol\":1531:1544  _checkOwner() */\n      jump\t// in\n    tag_471:\n        /* \"SmartContractsInterview/Token.sol\":16895:16910  block.timestamp */\n      timestamp\n        /* \"SmartContractsInterview/Token.sol\":16878:16891  lastTimeStamp */\n      sload(0x15)\n        /* \"SmartContractsInterview/Token.sol\":16878:16910  lastTimeStamp <= block.timestamp */\n      gt\n      iszero\n        /* \"SmartContractsInterview/Token.sol\":16870:16911  require(lastTimeStamp <= block.timestamp) */\n      tag_473\n      jumpi\n      0x00\n      dup1\n      revert\n    tag_473:\n        /* \"SmartContractsInterview/Token.sol\":16937:16952  block.timestamp */\n      timestamp\n        /* \"SmartContractsInterview/Token.sol\":16921:16934  lastTimeStamp */\n      0x15\n        /* \"SmartContractsInterview/Token.sol\":16921:16952  lastTimeStamp = block.timestamp */\n      sstore\n        /* \"SmartContractsInterview/Token.sol\":16818:16959  function setLastTime() external onlyOwner {... */\n      jump\t// out\n        /* \"SmartContractsInterview/Token.sol\":6691:7227  function _burn(address _from, uint256 _amount) public {... */\n    tag_183:\n      sub(shl(0xa0, 0x01), 0x01)\n        /* \"SmartContractsInterview/Token.sol\":6763:6782  _from != address(0) */\n      dup3\n      and\n        /* \"SmartContractsInterview/Token.sol\":6755:6820  require(_from != address(0), \"ERC20: burn from the zero address\") */\n      tag_475\n      jumpi\n      mload(0x40)\n      shl(0xe5, 0x461bcd)\n      dup2\n      mstore\n        /* \"#utility.yul\":12578:12580   */\n      0x20\n        /* \"SmartContractsInterview/Token.sol\":6755:6820  require(_from != address(0), \"ERC20: burn from the zero address\") */\n      0x04\n      dup3\n      add\n        /* \"#utility.yul\":12560:12581   */\n      mstore\n        /* \"#utility.yul\":12617:12619   */\n      0x21\n        /* \"#utility.yul\":12597:12615   */\n      0x24\n      dup3\n      add\n        /* \"#utility.yul\":12590:12620   */\n      mstore\n        /* \"#utility.yul\":12656:12690   */\n      0x45524332303a206275726e2066726f6d20746865207a65726f20616464726573\n        /* \"#utility.yul\":12636:12654   */\n      0x44\n      dup3\n      add\n        /* \"#utility.yul\":12629:12691   */\n      mstore\n      shl(0xf8, 0x73)\n        /* \"#utility.yul\":12707:12725   */\n      0x64\n      dup3\n      add\n        /* \"#utility.yul\":12700:12731   */\n      mstore\n        /* \"#utility.yul\":12748:12767   */\n      0x84\n      add\n        /* \"SmartContractsInterview/Token.sol\":6755:6820  require(_from != address(0), \"ERC20: burn from the zero address\") */\n      tag_347\n        /* \"#utility.yul\":12376:12773   */\n      jump\n        /* \"SmartContractsInterview/Token.sol\":6755:6820  require(_from != address(0), \"ERC20: burn from the zero address\") */\n    tag_475:\n        /* \"SmartContractsInterview/Token.sol\":6842:6849  _amount */\n      dup1\n        /* \"SmartContractsInterview/Token.sol\":6831:6838  tSupply */\n      0x06\n      0x00\n        /* \"SmartContractsInterview/Token.sol\":6831:6849  tSupply -= _amount */\n      dup3\n      dup3\n      sload\n      tag_478\n      swap2\n      swap1\n      tag_387\n      jump\t// in\n    tag_478:\n      swap1\n      swap2\n      sstore\n      pop\n        /* \"SmartContractsInterview/Token.sol\":6860:6885  uint256 debaseTokenAmount */\n      0x00\n      swap1\n      pop\n        /* \"SmartContractsInterview/Token.sol\":6888:6919  _fragmentToDebaseToken(_amount) */\n      tag_479\n        /* \"SmartContractsInterview/Token.sol\":6911:6918  _amount */\n      dup3\n        /* \"SmartContractsInterview/Token.sol\":6888:6910  _fragmentToDebaseToken */\n      tag_254\n        /* \"SmartContractsInterview/Token.sol\":6888:6919  _fragmentToDebaseToken(_amount) */\n      jump\t// in\n    tag_479:\n      sub(shl(0xa0, 0x01), 0x01)\n        /* \"SmartContractsInterview/Token.sol\":6933:6962  isExcludedFromDebasing[_from] */\n      dup5\n      and\n      0x00\n      swap1\n      dup2\n      mstore\n        /* \"SmartContractsInterview/Token.sol\":6933:6955  isExcludedFromDebasing */\n      0x12\n        /* \"SmartContractsInterview/Token.sol\":6933:6962  isExcludedFromDebasing[_from] */\n      0x20\n      mstore\n      0x40\n      swap1\n      keccak256\n      sload\n        /* \"SmartContractsInterview/Token.sol\":6860:6919  uint256 debaseTokenAmount = _fragmentToDebaseToken(_amount) */\n      swap1\n      swap2\n      pop\n        /* \"SmartContractsInterview/Token.sol\":6933:6962  isExcludedFromDebasing[_from] */\n      0xff\n      and\n        /* \"SmartContractsInterview/Token.sol\":6929:7086  if (isExcludedFromDebasing[_from]) {... */\n      iszero\n      tag_480\n      jumpi\n        /* \"SmartContractsInterview/Token.sol\":7003:7010  _amount */\n      dup2\n        /* \"SmartContractsInterview/Token.sol\":6978:6999  excludeDebasingSupply */\n      0x07\n      0x00\n        /* \"SmartContractsInterview/Token.sol\":6978:7010  excludeDebasingSupply -= _amount */\n      dup3\n      dup3\n      sload\n      tag_481\n      swap2\n      swap1\n      tag_387\n      jump\t// in\n    tag_481:\n      swap1\n      swap2\n      sstore\n      pop\n        /* \"SmartContractsInterview/Token.sol\":7044:7075  _fragmentToDebaseToken(_amount) */\n      tag_482\n      swap1\n      pop\n        /* \"SmartContractsInterview/Token.sol\":7067:7074  _amount */\n      dup3\n        /* \"SmartContractsInterview/Token.sol\":7044:7066  _fragmentToDebaseToken */\n      tag_254\n        /* \"SmartContractsInterview/Token.sol\":7044:7075  _fragmentToDebaseToken(_amount) */\n      jump\t// in\n    tag_482:\n        /* \"SmartContractsInterview/Token.sol\":7024:7075  debaseTokenAmount = _fragmentToDebaseToken(_amount) */\n      swap1\n      pop\n        /* \"SmartContractsInterview/Token.sol\":6929:7086  if (isExcludedFromDebasing[_from]) {... */\n    tag_480:\n      sub(shl(0xa0, 0x01), 0x01)\n        /* \"SmartContractsInterview/Token.sol\":7096:7112  _balances[_from] */\n      dup4\n      and\n      0x00\n      swap1\n      dup2\n      mstore\n        /* \"SmartContractsInterview/Token.sol\":7096:7105  _balances */\n      0x09\n        /* \"SmartContractsInterview/Token.sol\":7096:7112  _balances[_from] */\n      0x20\n      mstore\n      0x40\n      dup2\n      keccak256\n        /* \"SmartContractsInterview/Token.sol\":7096:7133  _balances[_from] -= debaseTokenAmount */\n      dup1\n      sload\n        /* \"SmartContractsInterview/Token.sol\":7116:7133  debaseTokenAmount */\n      dup4\n      swap3\n        /* \"SmartContractsInterview/Token.sol\":7096:7112  _balances[_from] */\n      swap1\n        /* \"SmartContractsInterview/Token.sol\":7096:7133  _balances[_from] -= debaseTokenAmount */\n      tag_483\n      swap1\n        /* \"SmartContractsInterview/Token.sol\":7116:7133  debaseTokenAmount */\n      dup5\n      swap1\n        /* \"SmartContractsInterview/Token.sol\":7096:7133  _balances[_from] -= debaseTokenAmount */\n      tag_387\n      jump\t// in\n    tag_483:\n      swap1\n      swap2\n      sstore\n      pop\n      pop\n        /* \"SmartContractsInterview/Token.sol\":7149:7169  Burn(_from, _amount) */\n      mload(0x40)\n        /* \"#utility.yul\":1924:1949   */\n      dup3\n      dup2\n      mstore\n      sub(shl(0xa0, 0x01), 0x01)\n        /* \"SmartContractsInterview/Token.sol\":7149:7169  Burn(_from, _amount) */\n      dup5\n      and\n      swap1\n      0xcc16f5dbb4873280815c1ee09dbd06736cffcc184412cf7a71a0fdb75d397ca5\n      swap1\n        /* \"#utility.yul\":1912:1914   */\n      0x20\n        /* \"#utility.yul\":1897:1915   */\n      add\n        /* \"SmartContractsInterview/Token.sol\":7149:7169  Burn(_from, _amount) */\n      mload(0x40)\n      dup1\n      swap2\n      sub\n      swap1\n      log2\n        /* \"SmartContractsInterview/Token.sol\":7184:7220  Transfer(_from, address(0), _amount) */\n      mload(0x40)\n        /* \"#utility.yul\":1924:1949   */\n      dup3\n      dup2\n      mstore\n        /* \"SmartContractsInterview/Token.sol\":7208:7209  0 */\n      0x00\n      swap1\n      sub(shl(0xa0, 0x01), 0x01)\n        /* \"SmartContractsInterview/Token.sol\":7184:7220  Transfer(_from, address(0), _amount) */\n      dup6\n      and\n      swap1\n      0x00\n      dup1\n      mload\n      0x20\n      data_ada389e1fc24a8587c776340efb91b36e675792ab631816100d55df0b5cf3cbc\n      dup4\n      codecopy\n      dup2\n      mload\n      swap2\n      mstore\n      swap1\n        /* \"#utility.yul\":1912:1914   */\n      0x20\n        /* \"#utility.yul\":1897:1915   */\n      add\n        /* \"SmartContractsInterview/Token.sol\":7184:7220  Transfer(_from, address(0), _amount) */\n      tag_352\n        /* \"#utility.yul\":1778:1955   */\n      jump\n        /* \"SmartContractsInterview/Token.sol\":12116:12287  function _debaseTokenToFragment(uint256 _debaseToken) public view returns (uint256) {... */\n    tag_187:\n        /* \"SmartContractsInterview/Token.sol\":12191:12198  uint256 */\n      0x00\n        /* \"SmartContractsInterview/Token.sol\":12217:12280  _debaseToken.mul(tokenScalingFactor).div(TOKEN_public_DECIMALS) */\n      tag_343\n        /* \"SmartContractsInterview/Token.sol\":918:922  1e24 */\n      0xd3c21bcecceda1000000\n        /* \"SmartContractsInterview/Token.sol\":12217:12253  _debaseToken.mul(tokenScalingFactor) */\n      tag_488\n        /* \"SmartContractsInterview/Token.sol\":12234:12252  tokenScalingFactor */\n      sload(0x0e)\n        /* \"SmartContractsInterview/Token.sol\":12217:12229  _debaseToken */\n      dup6\n        /* \"SmartContractsInterview/Token.sol\":12217:12233  _debaseToken.mul */\n      tag_489\n      swap1\n        /* \"SmartContractsInterview/Token.sol\":12217:12253  _debaseToken.mul(tokenScalingFactor) */\n      swap2\n      swap1\n      0xffffffff\n      and\n      jump\t// in\n    tag_488:\n        /* \"SmartContractsInterview/Token.sol\":12217:12257  _debaseToken.mul(tokenScalingFactor).div */\n      swap1\n      tag_490\n        /* \"SmartContractsInterview/Token.sol\":12217:12280  _debaseToken.mul(tokenScalingFactor).div(TOKEN_public_DECIMALS) */\n      jump\t// in\n        /* \"SmartContractsInterview/Token.sol\":3166:3447  function withdrawETH(address _to) external onlyOwner {... */\n    tag_196:\n        /* \"@openzeppelin/contracts/access/Ownable.sol\":1531:1544  _checkOwner() */\n      tag_492\n        /* \"@openzeppelin/contracts/access/Ownable.sol\":1531:1542  _checkOwner */\n      tag_439\n        /* \"@openzeppelin/contracts/access/Ownable.sol\":1531:1544  _checkOwner() */\n      jump\t// in\n    tag_492:\n      sub(shl(0xa0, 0x01), 0x01)\n        /* \"SmartContractsInterview/Token.sol\":3237:3254  _to != address(0) */\n      dup2\n      and\n        /* \"SmartContractsInterview/Token.sol\":3229:3288  require(_to != address(0), \"Invalid address: zero address\") */\n      tag_494\n      jumpi\n      mload(0x40)\n      shl(0xe5, 0x461bcd)\n      dup2\n      mstore\n        /* \"#utility.yul\":12980:12982   */\n      0x20\n        /* \"SmartContractsInterview/Token.sol\":3229:3288  require(_to != address(0), \"Invalid address: zero address\") */\n      0x04\n      dup3\n      add\n        /* \"#utility.yul\":12962:12983   */\n      mstore\n        /* \"#utility.yul\":13019:13021   */\n      0x1d\n        /* \"#utility.yul\":12999:13017   */\n      0x24\n      dup3\n      add\n        /* \"#utility.yul\":12992:13022   */\n      mstore\n        /* \"#utility.yul\":13058:13089   */\n      0x496e76616c696420616464726573733a207a65726f2061646472657373000000\n        /* \"#utility.yul\":13038:13056   */\n      0x44\n      dup3\n      add\n        /* \"#utility.yul\":13031:13090   */\n      mstore\n        /* \"#utility.yul\":13107:13125   */\n      0x64\n      add\n        /* \"SmartContractsInterview/Token.sol\":3229:3288  require(_to != address(0), \"Invalid address: zero address\") */\n      tag_347\n        /* \"#utility.yul\":12778:13131   */\n      jump\n        /* \"SmartContractsInterview/Token.sol\":3229:3288  require(_to != address(0), \"Invalid address: zero address\") */\n    tag_494:\n        /* \"SmartContractsInterview/Token.sol\":3299:3311  bool success */\n      0x00\n        /* \"SmartContractsInterview/Token.sol\":3325:3328  _to */\n      dup2\n      sub(shl(0xa0, 0x01), 0x01)\n        /* \"SmartContractsInterview/Token.sol\":3317:3334  payable(_to).call */\n      and\n        /* \"SmartContractsInterview/Token.sol\":3342:3363  address(this).balance */\n      selfbalance\n        /* \"SmartContractsInterview/Token.sol\":3317:3368  payable(_to).call{value: address(this).balance}(\"\") */\n      mload(0x40)\n      0x00\n      mload(0x40)\n      dup1\n      dup4\n      sub\n      dup2\n      dup6\n      dup8\n      gas\n      call\n      swap3\n      pop\n      pop\n      pop\n      returndatasize\n      dup1\n      0x00\n      dup2\n      eq\n      tag_501\n      jumpi\n      mload(0x40)\n      swap2\n      pop\n      and(add(returndatasize, 0x3f), not(0x1f))\n      dup3\n      add\n      0x40\n      mstore\n      returndatasize\n      dup3\n      mstore\n      returndatasize\n      0x00\n      0x20\n      dup5\n      add\n      returndatacopy\n      jump(tag_500)\n    tag_501:\n      0x60\n      swap2\n      pop\n    tag_500:\n      pop\n        /* \"SmartContractsInterview/Token.sol\":3298:3368  (bool success, ) = payable(_to).call{value: address(this).balance}(\"\") */\n      pop\n      swap1\n      pop\n        /* \"SmartContractsInterview/Token.sol\":3382:3389  success */\n      dup1\n        /* \"SmartContractsInterview/Token.sol\":3378:3441  if(!success) {... */\n      tag_502\n      jumpi\n        /* \"SmartContractsInterview/Token.sol\":3405:3430  revert(\"Transfer Failed\") */\n      mload(0x40)\n      shl(0xe5, 0x461bcd)\n      dup2\n      mstore\n        /* \"#utility.yul\":13548:13550   */\n      0x20\n        /* \"SmartContractsInterview/Token.sol\":3405:3430  revert(\"Transfer Failed\") */\n      0x04\n      dup3\n      add\n        /* \"#utility.yul\":13530:13551   */\n      mstore\n        /* \"#utility.yul\":13587:13589   */\n      0x0f\n        /* \"#utility.yul\":13567:13585   */\n      0x24\n      dup3\n      add\n        /* \"#utility.yul\":13560:13590   */\n      mstore\n      shl(0x8a, 0x151c985b9cd9995c8811985a5b1959)\n        /* \"#utility.yul\":13606:13624   */\n      0x44\n      dup3\n      add\n        /* \"#utility.yul\":13599:13644   */\n      mstore\n        /* \"#utility.yul\":13661:13679   */\n      0x64\n      add\n        /* \"SmartContractsInterview/Token.sol\":3405:3430  revert(\"Transfer Failed\") */\n      tag_347\n        /* \"#utility.yul\":13346:13685   */\n      jump\n        /* \"SmartContractsInterview/Token.sol\":3378:3441  if(!success) {... */\n    tag_502:\n        /* \"SmartContractsInterview/Token.sol\":3219:3447  {... */\n      pop\n        /* \"SmartContractsInterview/Token.sol\":3166:3447  function withdrawETH(address _to) external onlyOwner {... */\n      pop\n      jump\t// out\n        /* \"SmartContractsInterview/Token.sol\":9992:10653  function claimFromTreasury(... */\n    tag_200:\n        /* \"@openzeppelin/contracts/security/Pausable.sol\":1239:1258  _requireNotPaused() */\n      tag_506\n        /* \"@openzeppelin/contracts/security/Pausable.sol\":1239:1256  _requireNotPaused */\n      tag_363\n        /* \"@openzeppelin/contracts/security/Pausable.sol\":1239:1258  _requireNotPaused() */\n      jump\t// in\n    tag_506:\n        /* \"SmartContractsInterview/Token.sol\":1907:1917  msg.sender */\n      caller\n        /* \"SmartContractsInterview/Token.sol\":1890:1918  treasuryOperator[msg.sender] */\n      0x00\n      swap1\n      dup2\n      mstore\n        /* \"SmartContractsInterview/Token.sol\":1890:1906  treasuryOperator */\n      0x14\n        /* \"SmartContractsInterview/Token.sol\":1890:1918  treasuryOperator[msg.sender] */\n      0x20\n      mstore\n      0x40\n      swap1\n      keccak256\n      sload\n      0xff\n      and\n      dup1\n        /* \"SmartContractsInterview/Token.sol\":1890:1943  treasuryOperator[msg.sender] || msg.sender == owner() */\n      tag_508\n      jumpi\n      pop\n        /* \"@openzeppelin/contracts/access/Ownable.sol\":1710:1716  _owner */\n      and(sub(shl(0xa0, 0x01), 0x01), sload(0x02))\n        /* \"SmartContractsInterview/Token.sol\":1922:1932  msg.sender */\n      caller\n        /* \"SmartContractsInterview/Token.sol\":1922:1943  msg.sender == owner() */\n      eq\n        /* \"SmartContractsInterview/Token.sol\":1890:1943  treasuryOperator[msg.sender] || msg.sender == owner() */\n    tag_508:\n        /* \"SmartContractsInterview/Token.sol\":1882:1944  require(treasuryOperator[msg.sender] || msg.sender == owner()) */\n      tag_510\n      jumpi\n      0x00\n      dup1\n      revert\n    tag_510:\n        /* \"SmartContractsInterview/Token.sol\":10129:10144  treasuryBalance */\n      sload(0x0a)\n        /* \"SmartContractsInterview/Token.sol\":10129:10148  treasuryBalance > 0 */\n      iszero\n        /* \"SmartContractsInterview/Token.sol\":10125:10233  if (treasuryBalance > 0) {... */\n      tag_513\n      jumpi\n        /* \"SmartContractsInterview/Token.sol\":10190:10205  treasuryBalance */\n      sload(0x0a)\n        /* \"SmartContractsInterview/Token.sol\":10207:10221  treasuryWallet */\n      sload(0x0b)\n        /* \"SmartContractsInterview/Token.sol\":10164:10222  _sendTokensTreasuryWallet(treasuryBalance, treasuryWallet) */\n      tag_513\n      swap2\n        /* \"SmartContractsInterview/Token.sol\":10190:10205  treasuryBalance */\n      swap1\n      sub(shl(0xa0, 0x01), 0x01)\n        /* \"SmartContractsInterview/Token.sol\":10207:10221  treasuryWallet */\n      and\n        /* \"SmartContractsInterview/Token.sol\":10164:10189  _sendTokensTreasuryWallet */\n      tag_287\n        /* \"SmartContractsInterview/Token.sol\":10164:10222  _sendTokensTreasuryWallet(treasuryBalance, treasuryWallet) */\n      jump\t// in\n    tag_513:\n      sub(shl(0xa0, 0x01), 0x01)\n        /* \"SmartContractsInterview/Token.sol\":10247:10274  isExcludedFromDebasing[_to] */\n      dup3\n      and\n      0x00\n      swap1\n      dup2\n      mstore\n        /* \"SmartContractsInterview/Token.sol\":10247:10269  isExcludedFromDebasing */\n      0x12\n        /* \"SmartContractsInterview/Token.sol\":10247:10274  isExcludedFromDebasing[_to] */\n      0x20\n      mstore\n      0x40\n      swap1\n      keccak256\n      sload\n      0xff\n      and\n        /* \"SmartContractsInterview/Token.sol\":10243:10522  if (isExcludedFromDebasing[_to]) {... */\n      iszero\n      tag_514\n      jumpi\n        /* \"SmartContractsInterview/Token.sol\":10308:10339  _fragmentToDebaseToken(_amount) */\n      tag_515\n        /* \"SmartContractsInterview/Token.sol\":10331:10338  _amount */\n      dup2\n        /* \"SmartContractsInterview/Token.sol\":10308:10330  _fragmentToDebaseToken */\n      tag_254\n        /* \"SmartContractsInterview/Token.sol\":10308:10339  _fragmentToDebaseToken(_amount) */\n      jump\t// in\n    tag_515:\n      sub(shl(0xa0, 0x01), 0x01)\n        /* \"SmartContractsInterview/Token.sol\":10290:10304  _balances[_to] */\n      dup4\n      and\n      0x00\n      swap1\n      dup2\n      mstore\n        /* \"SmartContractsInterview/Token.sol\":10290:10299  _balances */\n      0x09\n        /* \"SmartContractsInterview/Token.sol\":10290:10304  _balances[_to] */\n      0x20\n      mstore\n      0x40\n      dup2\n      keccak256\n        /* \"SmartContractsInterview/Token.sol\":10290:10339  _balances[_to] += _fragmentToDebaseToken(_amount) */\n      dup1\n      sload\n        /* \"SmartContractsInterview/Token.sol\":10290:10304  _balances[_to] */\n      swap1\n      swap2\n      swap1\n        /* \"SmartContractsInterview/Token.sol\":10290:10339  _balances[_to] += _fragmentToDebaseToken(_amount) */\n      tag_516\n      swap1\n      dup5\n      swap1\n      tag_355\n      jump\t// in\n    tag_516:\n      swap1\n      swap2\n      sstore\n      pop\n        /* \"SmartContractsInterview/Token.sol\":10243:10522  if (isExcludedFromDebasing[_to]) {... */\n      tag_517\n      swap1\n      pop\n      jump\n    tag_514:\n        /* \"SmartContractsInterview/Token.sol\":10388:10419  _fragmentToDebaseToken(_amount) */\n      tag_518\n        /* \"SmartContractsInterview/Token.sol\":10411:10418  _amount */\n      dup2\n        /* \"SmartContractsInterview/Token.sol\":10388:10410  _fragmentToDebaseToken */\n      tag_254\n        /* \"SmartContractsInterview/Token.sol\":10388:10419  _fragmentToDebaseToken(_amount) */\n      jump\t// in\n    tag_518:\n      sub(shl(0xa0, 0x01), 0x01)\n        /* \"SmartContractsInterview/Token.sol\":10370:10384  _balances[_to] */\n      dup4\n      and\n      0x00\n      swap1\n      dup2\n      mstore\n        /* \"SmartContractsInterview/Token.sol\":10370:10379  _balances */\n      0x09\n        /* \"SmartContractsInterview/Token.sol\":10370:10384  _balances[_to] */\n      0x20\n      mstore\n      0x40\n      dup2\n      keccak256\n        /* \"SmartContractsInterview/Token.sol\":10370:10419  _balances[_to] += _fragmentToDebaseToken(_amount) */\n      dup1\n      sload\n        /* \"SmartContractsInterview/Token.sol\":10370:10384  _balances[_to] */\n      swap1\n      swap2\n      swap1\n        /* \"SmartContractsInterview/Token.sol\":10370:10419  _balances[_to] += _fragmentToDebaseToken(_amount) */\n      tag_519\n      swap1\n      dup5\n      swap1\n      tag_355\n      jump\t// in\n    tag_519:\n      swap3\n      pop\n      pop\n      dup2\n      swap1\n      sstore\n      pop\n        /* \"SmartContractsInterview/Token.sol\":10504:10511  _amount */\n      dup1\n        /* \"SmartContractsInterview/Token.sol\":10479:10500  excludeDebasingSupply */\n      0x07\n      0x00\n        /* \"SmartContractsInterview/Token.sol\":10479:10511  excludeDebasingSupply -= _amount */\n      dup3\n      dup3\n      sload\n      tag_520\n      swap2\n      swap1\n      tag_387\n      jump\t// in\n    tag_520:\n      swap1\n      swap2\n      sstore\n      pop\n      pop\n        /* \"SmartContractsInterview/Token.sol\":10243:10522  if (isExcludedFromDebasing[_to]) {... */\n    tag_517:\n        /* \"SmartContractsInterview/Token.sol\":10561:10592  _fragmentToDebaseToken(_amount) */\n      tag_521\n        /* \"SmartContractsInterview/Token.sol\":10584:10591  _amount */\n      dup2\n        /* \"SmartContractsInterview/Token.sol\":10561:10583  _fragmentToDebaseToken */\n      tag_254\n        /* \"SmartContractsInterview/Token.sol\":10561:10592  _fragmentToDebaseToken(_amount) */\n      jump\t// in\n    tag_521:\n        /* \"SmartContractsInterview/Token.sol\":10542:10556  treasuryWallet */\n      and(sub(shl(0xa0, 0x01), 0x01), sload(0x0b))\n        /* \"SmartContractsInterview/Token.sol\":10532:10557  _balances[treasuryWallet] */\n      0x00\n      swap1\n      dup2\n      mstore\n        /* \"SmartContractsInterview/Token.sol\":10532:10541  _balances */\n      0x09\n        /* \"SmartContractsInterview/Token.sol\":10532:10557  _balances[treasuryWallet] */\n      0x20\n      mstore\n      0x40\n      dup2\n      keccak256\n        /* \"SmartContractsInterview/Token.sol\":10532:10592  _balances[treasuryWallet] -= _fragmentToDebaseToken(_amount) */\n      dup1\n      sload\n        /* \"SmartContractsInterview/Token.sol\":10532:10557  _balances[treasuryWallet] */\n      swap1\n      swap2\n      swap1\n        /* \"SmartContractsInterview/Token.sol\":10532:10592  _balances[treasuryWallet] -= _fragmentToDebaseToken(_amount) */\n      tag_522\n      swap1\n      dup5\n      swap1\n      tag_387\n      jump\t// in\n    tag_522:\n      swap1\n      swap2\n      sstore\n      pop\n      pop\n        /* \"SmartContractsInterview/Token.sol\":10617:10631  treasuryWallet */\n      sload(0x0b)\n        /* \"SmartContractsInterview/Token.sol\":10608:10646  Transfer(treasuryWallet, _to, _amount) */\n      mload(0x40)\n        /* \"#utility.yul\":1924:1949   */\n      dup3\n      dup2\n      mstore\n      sub(shl(0xa0, 0x01), 0x01)\n        /* \"SmartContractsInterview/Token.sol\":10608:10646  Transfer(treasuryWallet, _to, _amount) */\n      dup5\n      dup2\n      and\n      swap3\n        /* \"SmartContractsInterview/Token.sol\":10617:10631  treasuryWallet */\n      and\n      swap1\n      0x00\n      dup1\n      mload\n      0x20\n      data_ada389e1fc24a8587c776340efb91b36e675792ab631816100d55df0b5cf3cbc\n      dup4\n      codecopy\n      dup2\n      mload\n      swap2\n      mstore\n        /* \"SmartContractsInterview/Token.sol\":10608:10646  Transfer(treasuryWallet, _to, _amount) */\n      swap1\n        /* \"#utility.yul\":1912:1914   */\n      0x20\n        /* \"#utility.yul\":1897:1915   */\n      add\n        /* \"SmartContractsInterview/Token.sol\":10608:10646  Transfer(treasuryWallet, _to, _amount) */\n      mload(0x40)\n      dup1\n      swap2\n      sub\n      swap1\n      log3\n        /* \"SmartContractsInterview/Token.sol\":9992:10653  function claimFromTreasury(... */\n      pop\n      pop\n      jump\t// out\n        /* \"SmartContractsInterview/Token.sol\":14440:14796  function multiExcludedFromDebasing(... */\n    tag_205:\n        /* \"@openzeppelin/contracts/access/Ownable.sol\":1531:1544  _checkOwner() */\n      tag_525\n        /* \"@openzeppelin/contracts/access/Ownable.sol\":1531:1542  _checkOwner */\n      tag_439\n        /* \"@openzeppelin/contracts/access/Ownable.sol\":1531:1544  _checkOwner() */\n      jump\t// in\n    tag_525:\n        /* \"SmartContractsInterview/Token.sol\":14575:14581  uint i */\n      0x00\n        /* \"SmartContractsInterview/Token.sol\":14570:14790  for (uint i = 0; i < _accounts.length; ++i) {... */\n    tag_527:\n        /* \"SmartContractsInterview/Token.sol\":14591:14600  _accounts */\n      dup3\n        /* \"SmartContractsInterview/Token.sol\":14591:14607  _accounts.length */\n      mload\n        /* \"SmartContractsInterview/Token.sol\":14587:14588  i */\n      dup2\n        /* \"SmartContractsInterview/Token.sol\":14587:14607  i < _accounts.length */\n      lt\n        /* \"SmartContractsInterview/Token.sol\":14570:14790  for (uint i = 0; i < _accounts.length; ++i) {... */\n      iszero\n      tag_467\n      jumpi\n        /* \"SmartContractsInterview/Token.sol\":14652:14666  treasuryWallet */\n      sload(0x0b)\n        /* \"SmartContractsInterview/Token.sol\":14636:14648  _accounts[i] */\n      dup4\n      mload\n      sub(shl(0xa0, 0x01), 0x01)\n        /* \"SmartContractsInterview/Token.sol\":14652:14666  treasuryWallet */\n      swap1\n      swap2\n      and\n      swap1\n        /* \"SmartContractsInterview/Token.sol\":14636:14645  _accounts */\n      dup5\n      swap1\n        /* \"SmartContractsInterview/Token.sol\":14646:14647  i */\n      dup4\n      swap1\n        /* \"SmartContractsInterview/Token.sol\":14636:14648  _accounts[i] */\n      dup2\n      lt\n      tag_531\n      jumpi\n      tag_531\n      tag_532\n      jump\t// in\n    tag_531:\n      0x20\n      mul\n      0x20\n      add\n      add\n      mload\n      sub(shl(0xa0, 0x01), 0x01)\n        /* \"SmartContractsInterview/Token.sol\":14636:14666  _accounts[i] != treasuryWallet */\n      and\n      sub\n        /* \"SmartContractsInterview/Token.sol\":14628:14717  require(_accounts[i] != treasuryWallet, \"Treasury wallet cannot be included in debasing\") */\n      tag_533\n      jumpi\n      mload(0x40)\n      shl(0xe5, 0x461bcd)\n      dup2\n      mstore\n        /* \"#utility.yul\":14024:14026   */\n      0x20\n        /* \"SmartContractsInterview/Token.sol\":14628:14717  require(_accounts[i] != treasuryWallet, \"Treasury wallet cannot be included in debasing\") */\n      0x04\n      dup3\n      add\n        /* \"#utility.yul\":14006:14027   */\n      mstore\n        /* \"#utility.yul\":14063:14065   */\n      0x2e\n        /* \"#utility.yul\":14043:14061   */\n      0x24\n      dup3\n      add\n        /* \"#utility.yul\":14036:14066   */\n      mstore\n        /* \"#utility.yul\":14102:14136   */\n      0x54726561737572792077616c6c65742063616e6e6f7420626520696e636c7564\n        /* \"#utility.yul\":14082:14100   */\n      0x44\n      dup3\n      add\n        /* \"#utility.yul\":14075:14137   */\n      mstore\n      shl(0x90, 0x656420696e206465626173696e67)\n        /* \"#utility.yul\":14153:14171   */\n      0x64\n      dup3\n      add\n        /* \"#utility.yul\":14146:14190   */\n      mstore\n        /* \"#utility.yul\":14207:14226   */\n      0x84\n      add\n        /* \"SmartContractsInterview/Token.sol\":14628:14717  require(_accounts[i] != treasuryWallet, \"Treasury wallet cannot be included in debasing\") */\n      tag_347\n        /* \"#utility.yul\":13822:14232   */\n      jump\n        /* \"SmartContractsInterview/Token.sol\":14628:14717  require(_accounts[i] != treasuryWallet, \"Treasury wallet cannot be included in debasing\") */\n    tag_533:\n        /* \"SmartContractsInterview/Token.sol\":14731:14779  _excludedFromDebasing(_accounts[i], _isExcluded) */\n      tag_536\n        /* \"SmartContractsInterview/Token.sol\":14753:14762  _accounts */\n      dup4\n        /* \"SmartContractsInterview/Token.sol\":14763:14764  i */\n      dup3\n        /* \"SmartContractsInterview/Token.sol\":14753:14765  _accounts[i] */\n      dup2\n      mload\n      dup2\n      lt\n      tag_538\n      jumpi\n      tag_538\n      tag_532\n      jump\t// in\n    tag_538:\n      0x20\n      mul\n      0x20\n      add\n      add\n      mload\n        /* \"SmartContractsInterview/Token.sol\":14767:14778  _isExcluded */\n      dup4\n        /* \"SmartContractsInterview/Token.sol\":14731:14752  _excludedFromDebasing */\n      tag_215\n        /* \"SmartContractsInterview/Token.sol\":14731:14779  _excludedFromDebasing(_accounts[i], _isExcluded) */\n      jump\t// in\n    tag_536:\n        /* \"SmartContractsInterview/Token.sol\":14609:14612  ++i */\n      0x01\n      add\n        /* \"SmartContractsInterview/Token.sol\":14570:14790  for (uint i = 0; i < _accounts.length; ++i) {... */\n      jump(tag_527)\n        /* \"SmartContractsInterview/Token.sol\":10659:10993  function checkUpkeep(... */\n    tag_209:\n        /* \"SmartContractsInterview/Token.sol\":10784:10801  bool upkeepNeeded */\n      0x00\n        /* \"SmartContractsInterview/Token.sol\":10803:10827  bytes memory performData */\n      0x60\n        /* \"SmartContractsInterview/Token.sol\":10894:10908  debaseDuration */\n      sload(0x0f)\n        /* \"SmartContractsInterview/Token.sol\":10877:10890  lastTimeStamp */\n      sload(0x15)\n        /* \"SmartContractsInterview/Token.sol\":10859:10874  block.timestamp */\n      timestamp\n        /* \"SmartContractsInterview/Token.sol\":10859:10890  block.timestamp - lastTimeStamp */\n      tag_540\n      swap2\n      swap1\n      tag_387\n      jump\t// in\n    tag_540:\n        /* \"SmartContractsInterview/Token.sol\":10858:10908  (block.timestamp - lastTimeStamp) > debaseDuration */\n      gt\n        /* \"SmartContractsInterview/Token.sol\":10843:10908  upkeepNeeded = (block.timestamp - lastTimeStamp) > debaseDuration */\n      swap2\n      pop\n        /* \"SmartContractsInterview/Token.sol\":10932:10941  checkData */\n      dup4\n      dup4\n        /* \"SmartContractsInterview/Token.sol\":10918:10941  performData = checkData */\n      dup1\n      dup1\n      0x1f\n      add\n      0x20\n      dup1\n      swap2\n      div\n      mul\n      0x20\n      add\n      mload(0x40)\n      swap1\n      dup2\n      add\n      0x40\n      mstore\n      dup1\n      swap4\n      swap3\n      swap2\n      swap1\n      dup2\n      dup2\n      mstore\n      0x20\n      add\n      dup4\n      dup4\n      dup1\n      dup3\n      dup5\n      calldatacopy\n      0x00\n      swap3\n      add\n      swap2\n      swap1\n      swap2\n      mstore\n      pop\n      swap3\n      swap4\n      pop\n      pop\n      pop\n      pop\n        /* \"SmartContractsInterview/Token.sol\":10659:10993  function checkUpkeep(... */\n      swap3\n      pop\n      swap3\n      swap1\n      pop\n      jump\t// out\n        /* \"SmartContractsInterview/Token.sol\":13779:14434  function _excludedFromDebasing(address _account,bool _isExcluded) public {... */\n    tag_215:\n      sub(shl(0xa0, 0x01), 0x01)\n        /* \"SmartContractsInterview/Token.sol\":13879:13901  _account != address(0) */\n      dup3\n      and\n        /* \"SmartContractsInterview/Token.sol\":13871:13932  require(_account != address(0), \"Account shouldn't be zero.\") */\n      tag_542\n      jumpi\n      mload(0x40)\n      shl(0xe5, 0x461bcd)\n      dup2\n      mstore\n        /* \"#utility.yul\":11073:11075   */\n      0x20\n        /* \"SmartContractsInterview/Token.sol\":13871:13932  require(_account != address(0), \"Account shouldn't be zero.\") */\n      0x04\n      dup3\n      add\n        /* \"#utility.yul\":11055:11076   */\n      mstore\n        /* \"#utility.yul\":11112:11114   */\n      0x1a\n        /* \"#utility.yul\":11092:11110   */\n      0x24\n      dup3\n      add\n        /* \"#utility.yul\":11085:11115   */\n      mstore\n        /* \"#utility.yul\":11151:11179   */\n      0x4163636f756e742073686f756c646e2774206265207a65726f2e000000000000\n        /* \"#utility.yul\":11131:11149   */\n      0x44\n      dup3\n      add\n        /* \"#utility.yul\":11124:11180   */\n      mstore\n        /* \"#utility.yul\":11197:11215   */\n      0x64\n      add\n        /* \"SmartContractsInterview/Token.sol\":13871:13932  require(_account != address(0), \"Account shouldn't be zero.\") */\n      tag_347\n        /* \"#utility.yul\":10871:11221   */\n      jump\n        /* \"SmartContractsInterview/Token.sol\":13871:13932  require(_account != address(0), \"Account shouldn't be zero.\") */\n    tag_542:\n      sub(shl(0xa0, 0x01), 0x01)\n        /* \"SmartContractsInterview/Token.sol\":13964:13996  isExcludedFromDebasing[_account] */\n      dup3\n      and\n        /* \"SmartContractsInterview/Token.sol\":13942:13961  bool prevIsExcluded */\n      0x00\n        /* \"SmartContractsInterview/Token.sol\":13964:13996  isExcludedFromDebasing[_account] */\n      swap1\n      dup2\n      mstore\n        /* \"SmartContractsInterview/Token.sol\":13964:13986  isExcludedFromDebasing */\n      0x12\n        /* \"SmartContractsInterview/Token.sol\":13964:13996  isExcludedFromDebasing[_account] */\n      0x20\n      mstore\n      0x40\n      dup2\n      keccak256\n      sload\n      0xff\n      and\n      swap1\n        /* \"SmartContractsInterview/Token.sol\":14028:14047  balanceOf(_account) */\n      tag_544\n        /* \"SmartContractsInterview/Token.sol\":13987:13995  _account */\n      dup5\n        /* \"SmartContractsInterview/Token.sol\":14028:14037  balanceOf */\n      tag_219\n        /* \"SmartContractsInterview/Token.sol\":14028:14047  balanceOf(_account) */\n      jump\t// in\n    tag_544:\n        /* \"SmartContractsInterview/Token.sol\":14006:14047  uint256 prevBalance = balanceOf(_account) */\n      swap1\n      pop\n        /* \"SmartContractsInterview/Token.sol\":14089:14100  _isExcluded */\n      dup3\n        /* \"SmartContractsInterview/Token.sol\":14071:14100  prevIsExcluded != _isExcluded */\n      iszero\n      iszero\n        /* \"SmartContractsInterview/Token.sol\":14071:14085  prevIsExcluded */\n      dup3\n        /* \"SmartContractsInterview/Token.sol\":14071:14100  prevIsExcluded != _isExcluded */\n      iszero\n      iszero\n      eq\n        /* \"SmartContractsInterview/Token.sol\":14067:14428  if (prevIsExcluded != _isExcluded) {... */\n      tag_551\n      jumpi\n      sub(shl(0xa0, 0x01), 0x01)\n        /* \"SmartContractsInterview/Token.sol\":14116:14148  isExcludedFromDebasing[_account] */\n      dup5\n      and\n      0x00\n      swap1\n      dup2\n      mstore\n        /* \"SmartContractsInterview/Token.sol\":14116:14138  isExcludedFromDebasing */\n      0x12\n        /* \"SmartContractsInterview/Token.sol\":14116:14148  isExcludedFromDebasing[_account] */\n      0x20\n      mstore\n      0x40\n      swap1\n      keccak256\n        /* \"SmartContractsInterview/Token.sol\":14116:14162  isExcludedFromDebasing[_account] = _isExcluded */\n      dup1\n      sload\n      not(0xff)\n      and\n      dup5\n      iszero\n      iszero\n      or\n      swap1\n      sstore\n        /* \"SmartContractsInterview/Token.sol\":14185:14200  !prevIsExcluded */\n      dup2\n      iszero\n        /* \"SmartContractsInterview/Token.sol\":14185:14215  !prevIsExcluded && _isExcluded */\n      dup1\n      iszero\n      tag_546\n      jumpi\n      pop\n        /* \"SmartContractsInterview/Token.sol\":14204:14215  _isExcluded */\n      dup3\n        /* \"SmartContractsInterview/Token.sol\":14185:14215  !prevIsExcluded && _isExcluded */\n    tag_546:\n        /* \"SmartContractsInterview/Token.sol\":14181:14418  if (!prevIsExcluded && _isExcluded) {... */\n      iszero\n      tag_547\n      jumpi\n        /* \"SmartContractsInterview/Token.sol\":14263:14274  prevBalance */\n      dup1\n        /* \"SmartContractsInterview/Token.sol\":14238:14259  excludeDebasingSupply */\n      0x07\n      0x00\n        /* \"SmartContractsInterview/Token.sol\":14238:14274  excludeDebasingSupply += prevBalance */\n      dup3\n      dup3\n      sload\n      tag_548\n      swap2\n      swap1\n      tag_355\n      jump\t// in\n    tag_548:\n      swap1\n      swap2\n      sstore\n      pop\n        /* \"SmartContractsInterview/Token.sol\":14181:14418  if (!prevIsExcluded && _isExcluded) {... */\n      tag_551\n      swap1\n      pop\n      jump\n    tag_547:\n        /* \"SmartContractsInterview/Token.sol\":14316:14330  prevIsExcluded */\n      dup2\n        /* \"SmartContractsInterview/Token.sol\":14316:14346  prevIsExcluded && !_isExcluded */\n      dup1\n      iszero\n      tag_550\n      jumpi\n      pop\n        /* \"SmartContractsInterview/Token.sol\":14335:14346  _isExcluded */\n      dup3\n        /* \"SmartContractsInterview/Token.sol\":14334:14346  !_isExcluded */\n      iszero\n        /* \"SmartContractsInterview/Token.sol\":14316:14346  prevIsExcluded && !_isExcluded */\n    tag_550:\n        /* \"SmartContractsInterview/Token.sol\":14312:14418  if (prevIsExcluded && !_isExcluded) {... */\n      iszero\n      tag_551\n      jumpi\n        /* \"SmartContractsInterview/Token.sol\":14392:14403  prevBalance */\n      dup1\n        /* \"SmartContractsInterview/Token.sol\":14367:14388  excludeDebasingSupply */\n      0x07\n      0x00\n        /* \"SmartContractsInterview/Token.sol\":14367:14403  excludeDebasingSupply -= prevBalance */\n      dup3\n      dup3\n      sload\n      tag_552\n      swap2\n      swap1\n      tag_387\n      jump\t// in\n    tag_552:\n      swap1\n      swap2\n      sstore\n      pop\n      pop\n        /* \"SmartContractsInterview/Token.sol\":14312:14418  if (prevIsExcluded && !_isExcluded) {... */\n    tag_551:\n        /* \"SmartContractsInterview/Token.sol\":13852:14434  {... */\n      pop\n      pop\n        /* \"SmartContractsInterview/Token.sol\":13779:14434  function _excludedFromDebasing(address _account,bool _isExcluded) public {... */\n      pop\n      pop\n      jump\t// out\n        /* \"SmartContractsInterview/Token.sol\":3675:4059  function balanceOf(... */\n    tag_219:\n      sub(shl(0xa0, 0x01), 0x01)\n        /* \"SmartContractsInterview/Token.sol\":3779:3811  isExcludedFromDebasing[_account] */\n      dup2\n      and\n        /* \"SmartContractsInterview/Token.sol\":3756:3763  uint256 */\n      0x00\n        /* \"SmartContractsInterview/Token.sol\":3779:3811  isExcludedFromDebasing[_account] */\n      swap1\n      dup2\n      mstore\n        /* \"SmartContractsInterview/Token.sol\":3779:3801  isExcludedFromDebasing */\n      0x12\n        /* \"SmartContractsInterview/Token.sol\":3779:3811  isExcludedFromDebasing[_account] */\n      0x20\n      mstore\n      0x40\n      dup2\n      keccak256\n      sload\n      0xff\n      and\n        /* \"SmartContractsInterview/Token.sol\":3775:3993  if (isExcludedFromDebasing[_account]) {... */\n      iszero\n      tag_555\n      jumpi\n        /* \"SmartContractsInterview/Token.sol\":3843:3857  treasuryWallet */\n      sload(0x0b)\n      sub(shl(0xa0, 0x01), 0x01)\n      swap1\n      dup2\n      and\n        /* \"SmartContractsInterview/Token.sol\":3831:3857  _account == treasuryWallet */\n      swap1\n      dup4\n      and\n      sub\n        /* \"SmartContractsInterview/Token.sol\":3827:3919  if (_account == treasuryWallet) {... */\n      tag_555\n      jumpi\n        /* \"SmartContractsInterview/Token.sol\":3884:3904  _treasuryBalanceOf() */\n      tag_343\n        /* \"SmartContractsInterview/Token.sol\":3884:3902  _treasuryBalanceOf */\n      tag_326\n        /* \"SmartContractsInterview/Token.sol\":3884:3904  _treasuryBalanceOf() */\n      jump\t// in\n        /* \"SmartContractsInterview/Token.sol\":3827:3919  if (_account == treasuryWallet) {... */\n    tag_555:\n      sub(shl(0xa0, 0x01), 0x01)\n        /* \"SmartContractsInterview/Token.sol\":3962:3981  _balances[_account] */\n      dup3\n      and\n      0x00\n      swap1\n      dup2\n      mstore\n        /* \"SmartContractsInterview/Token.sol\":3962:3971  _balances */\n      0x09\n        /* \"SmartContractsInterview/Token.sol\":3962:3981  _balances[_account] */\n      0x20\n      mstore\n      0x40\n      swap1\n      keccak256\n      sload\n        /* \"SmartContractsInterview/Token.sol\":3939:3982  _debaseTokenToFragment(_balances[_account]) */\n      tag_343\n      swap1\n        /* \"SmartContractsInterview/Token.sol\":3939:3961  _debaseTokenToFragment */\n      tag_187\n        /* \"SmartContractsInterview/Token.sol\":3939:3982  _debaseTokenToFragment(_balances[_account]) */\n      jump\t// in\n        /* \"@openzeppelin/contracts/access/Ownable.sol\":2293:2394  function renounceOwnership() public virtual onlyOwner {... */\n    tag_223:\n        /* \"@openzeppelin/contracts/access/Ownable.sol\":1531:1544  _checkOwner() */\n      tag_560\n        /* \"@openzeppelin/contracts/access/Ownable.sol\":1531:1542  _checkOwner */\n      tag_439\n        /* \"@openzeppelin/contracts/access/Ownable.sol\":1531:1544  _checkOwner() */\n      jump\t// in\n    tag_560:\n        /* \"@openzeppelin/contracts/access/Ownable.sol\":2357:2387  _transferOwnership(address(0)) */\n      tag_444\n        /* \"@openzeppelin/contracts/access/Ownable.sol\":2384:2385  0 */\n      0x00\n        /* \"@openzeppelin/contracts/access/Ownable.sol\":2357:2375  _transferOwnership */\n      tag_563\n        /* \"@openzeppelin/contracts/access/Ownable.sol\":2357:2387  _transferOwnership(address(0)) */\n      jump\t// in\n        /* \"SmartContractsInterview/Token.sol\":13564:13773  function updateTreasuryOperator( address _addr,  bool _isOperator) external onlyOwner {... */\n    tag_227:\n        /* \"@openzeppelin/contracts/access/Ownable.sol\":1531:1544  _checkOwner() */\n      tag_565\n        /* \"@openzeppelin/contracts/access/Ownable.sol\":1531:1542  _checkOwner */\n      tag_439\n        /* \"@openzeppelin/contracts/access/Ownable.sol\":1531:1544  _checkOwner() */\n      jump\t// in\n    tag_565:\n      sub(shl(0xa0, 0x01), 0x01)\n        /* \"SmartContractsInterview/Token.sol\":13668:13687  _addr != address(0) */\n      dup3\n      and\n        /* \"SmartContractsInterview/Token.sol\":13660:13719  require(_addr != address(0), \"Operator shouldn't be zero.\") */\n      tag_567\n      jumpi\n      mload(0x40)\n      shl(0xe5, 0x461bcd)\n      dup2\n      mstore\n        /* \"#utility.yul\":14439:14441   */\n      0x20\n        /* \"SmartContractsInterview/Token.sol\":13660:13719  require(_addr != address(0), \"Operator shouldn't be zero.\") */\n      0x04\n      dup3\n      add\n        /* \"#utility.yul\":14421:14442   */\n      mstore\n        /* \"#utility.yul\":14478:14480   */\n      0x1b\n        /* \"#utility.yul\":14458:14476   */\n      0x24\n      dup3\n      add\n        /* \"#utility.yul\":14451:14481   */\n      mstore\n        /* \"#utility.yul\":14517:14546   */\n      0x4f70657261746f722073686f756c646e2774206265207a65726f2e0000000000\n        /* \"#utility.yul\":14497:14515   */\n      0x44\n      dup3\n      add\n        /* \"#utility.yul\":14490:14547   */\n      mstore\n        /* \"#utility.yul\":14564:14582   */\n      0x64\n      add\n        /* \"SmartContractsInterview/Token.sol\":13660:13719  require(_addr != address(0), \"Operator shouldn't be zero.\") */\n      tag_347\n        /* \"#utility.yul\":14237:14588   */\n      jump\n        /* \"SmartContractsInterview/Token.sol\":13660:13719  require(_addr != address(0), \"Operator shouldn't be zero.\") */\n    tag_567:\n      sub(shl(0xa0, 0x01), 0x01)\n        /* \"SmartContractsInterview/Token.sol\":13729:13752  treasuryOperator[_addr] */\n      swap2\n      swap1\n      swap2\n      and\n      0x00\n      swap1\n      dup2\n      mstore\n        /* \"SmartContractsInterview/Token.sol\":13729:13745  treasuryOperator */\n      0x14\n        /* \"SmartContractsInterview/Token.sol\":13729:13752  treasuryOperator[_addr] */\n      0x20\n      mstore\n      0x40\n      swap1\n      keccak256\n        /* \"SmartContractsInterview/Token.sol\":13729:13766  treasuryOperator[_addr] = _isOperator */\n      dup1\n      sload\n      not(0xff)\n      and\n      swap2\n      iszero\n      iszero\n      swap2\n      swap1\n      swap2\n      or\n      swap1\n      sstore\n        /* \"SmartContractsInterview/Token.sol\":13564:13773  function updateTreasuryOperator( address _addr,  bool _isOperator) external onlyOwner {... */\n      jump\t// out\n        /* \"SmartContractsInterview/Token.sol\":15032:15280  function multiExcludedFromHoldingLimit(address[] memory _accounts, bool _isExcluded) public onlyOwner {... */\n    tag_231:\n        /* \"@openzeppelin/contracts/access/Ownable.sol\":1531:1544  _checkOwner() */\n      tag_571\n        /* \"@openzeppelin/contracts/access/Ownable.sol\":1531:1542  _checkOwner */\n      tag_439\n        /* \"@openzeppelin/contracts/access/Ownable.sol\":1531:1544  _checkOwner() */\n      jump\t// in\n    tag_571:\n        /* \"SmartContractsInterview/Token.sol\":15158:15164  uint i */\n      0x00\n        /* \"SmartContractsInterview/Token.sol\":15153:15274  for (uint i = 0; i < _accounts.length; ++i) {... */\n    tag_573:\n        /* \"SmartContractsInterview/Token.sol\":15174:15183  _accounts */\n      dup3\n        /* \"SmartContractsInterview/Token.sol\":15174:15190  _accounts.length */\n      mload\n        /* \"SmartContractsInterview/Token.sol\":15170:15171  i */\n      dup2\n        /* \"SmartContractsInterview/Token.sol\":15170:15190  i < _accounts.length */\n      lt\n        /* \"SmartContractsInterview/Token.sol\":15153:15274  for (uint i = 0; i < _accounts.length; ++i) {... */\n      iszero\n      tag_467\n      jumpi\n        /* \"SmartContractsInterview/Token.sol\":15211:15263  _excludedFromHoldingLimit(_accounts[i], _isExcluded) */\n      tag_576\n        /* \"SmartContractsInterview/Token.sol\":15237:15246  _accounts */\n      dup4\n        /* \"SmartContractsInterview/Token.sol\":15247:15248  i */\n      dup3\n        /* \"SmartContractsInterview/Token.sol\":15237:15249  _accounts[i] */\n      dup2\n      mload\n      dup2\n      lt\n      tag_578\n      jumpi\n      tag_578\n      tag_532\n      jump\t// in\n    tag_578:\n      0x20\n      mul\n      0x20\n      add\n      add\n      mload\n        /* \"SmartContractsInterview/Token.sol\":15251:15262  _isExcluded */\n      dup4\n        /* \"SmartContractsInterview/Token.sol\":15211:15236  _excludedFromHoldingLimit */\n      tag_132\n        /* \"SmartContractsInterview/Token.sol\":15211:15263  _excludedFromHoldingLimit(_accounts[i], _isExcluded) */\n      jump\t// in\n    tag_576:\n        /* \"SmartContractsInterview/Token.sol\":15192:15195  ++i */\n      0x01\n      add\n        /* \"SmartContractsInterview/Token.sol\":15153:15274  for (uint i = 0; i < _accounts.length; ++i) {... */\n      jump(tag_573)\n        /* \"SmartContractsInterview/Token.sol\":13255:13558  function updateLPPool(address _lpPool, bool _isLPPool) external onlyOwner {... */\n    tag_235:\n        /* \"@openzeppelin/contracts/access/Ownable.sol\":1531:1544  _checkOwner() */\n      tag_580\n        /* \"@openzeppelin/contracts/access/Ownable.sol\":1531:1542  _checkOwner */\n      tag_439\n        /* \"@openzeppelin/contracts/access/Ownable.sol\":1531:1544  _checkOwner() */\n      jump\t// in\n    tag_580:\n      sub(shl(0xa0, 0x01), 0x01)\n        /* \"SmartContractsInterview/Token.sol\":13347:13368  _lpPool != address(0) */\n      dup3\n      and\n        /* \"SmartContractsInterview/Token.sol\":13339:13407  require(_lpPool != address(0), \"LP Pool address shouldn't be zero!\") */\n      tag_582\n      jumpi\n      mload(0x40)\n      shl(0xe5, 0x461bcd)\n      dup2\n      mstore\n        /* \"#utility.yul\":14795:14797   */\n      0x20\n        /* \"SmartContractsInterview/Token.sol\":13339:13407  require(_lpPool != address(0), \"LP Pool address shouldn't be zero!\") */\n      0x04\n      dup3\n      add\n        /* \"#utility.yul\":14777:14798   */\n      mstore\n        /* \"#utility.yul\":14834:14836   */\n      0x22\n        /* \"#utility.yul\":14814:14832   */\n      0x24\n      dup3\n      add\n        /* \"#utility.yul\":14807:14837   */\n      mstore\n        /* \"#utility.yul\":14873:14907   */\n      0x4c5020506f6f6c20616464726573732073686f756c646e2774206265207a6572\n        /* \"#utility.yul\":14853:14871   */\n      0x44\n      dup3\n      add\n        /* \"#utility.yul\":14846:14908   */\n      mstore\n      shl(0xf0, 0x6f21)\n        /* \"#utility.yul\":14924:14942   */\n      0x64\n      dup3\n      add\n        /* \"#utility.yul\":14917:14949   */\n      mstore\n        /* \"#utility.yul\":14966:14985   */\n      0x84\n      add\n        /* \"SmartContractsInterview/Token.sol\":13339:13407  require(_lpPool != address(0), \"LP Pool address shouldn't be zero!\") */\n      tag_347\n        /* \"#utility.yul\":14593:14991   */\n      jump\n        /* \"SmartContractsInterview/Token.sol\":13339:13407  require(_lpPool != address(0), \"LP Pool address shouldn't be zero!\") */\n    tag_582:\n      sub(shl(0xa0, 0x01), 0x01)\n        /* \"SmartContractsInterview/Token.sol\":13417:13433  lpPools[_lpPool] */\n      dup3\n      and\n      0x00\n      swap1\n      dup2\n      mstore\n        /* \"SmartContractsInterview/Token.sol\":13417:13424  lpPools */\n      0x11\n        /* \"SmartContractsInterview/Token.sol\":13417:13433  lpPools[_lpPool] */\n      0x20\n      mstore\n      0x40\n      swap1\n      keccak256\n        /* \"SmartContractsInterview/Token.sol\":13417:13445  lpPools[_lpPool] = _isLPPool */\n      dup1\n      sload\n      not(0xff)\n      and\n      dup3\n      iszero\n      iszero\n      or\n      swap1\n      sstore\n        /* \"SmartContractsInterview/Token.sol\":13455:13496  _excludedFromDebasing(_lpPool, _isLPPool) */\n      tag_585\n        /* \"SmartContractsInterview/Token.sol\":13417:13433  lpPools[_lpPool] */\n      dup3\n        /* \"SmartContractsInterview/Token.sol\":13417:13445  lpPools[_lpPool] = _isLPPool */\n      dup3\n        /* \"SmartContractsInterview/Token.sol\":13455:13476  _excludedFromDebasing */\n      tag_215\n        /* \"SmartContractsInterview/Token.sol\":13455:13496  _excludedFromDebasing(_lpPool, _isLPPool) */\n      jump\t// in\n    tag_585:\n        /* \"SmartContractsInterview/Token.sol\":13506:13551  _excludedFromHoldingLimit(_lpPool, _isLPPool) */\n      tag_502\n        /* \"SmartContractsInterview/Token.sol\":13532:13539  _lpPool */\n      dup3\n        /* \"SmartContractsInterview/Token.sol\":13541:13550  _isLPPool */\n      dup3\n        /* \"SmartContractsInterview/Token.sol\":13506:13531  _excludedFromHoldingLimit */\n      tag_132\n        /* \"SmartContractsInterview/Token.sol\":13506:13551  _excludedFromHoldingLimit(_lpPool, _isLPPool) */\n      jump\t// in\n        /* \"SmartContractsInterview/Token.sol\":12887:13120  function updateDebaseRate(uint256 _debaseRate) external onlyOwner {... */\n    tag_239:\n        /* \"@openzeppelin/contracts/access/Ownable.sol\":1531:1544  _checkOwner() */\n      tag_588\n        /* \"@openzeppelin/contracts/access/Ownable.sol\":1531:1542  _checkOwner */\n      tag_439\n        /* \"@openzeppelin/contracts/access/Ownable.sol\":1531:1544  _checkOwner() */\n      jump\t// in\n    tag_588:\n        /* \"SmartContractsInterview/Token.sol\":808:813  10000 */\n      0x2710\n        /* \"SmartContractsInterview/Token.sol\":12991:13002  _debaseRate */\n      dup2\n        /* \"SmartContractsInterview/Token.sol\":12991:13028  _debaseRate <= PERCENTAGE_DENOMINATOR */\n      gt\n      iszero\n        /* \"SmartContractsInterview/Token.sol\":12983:13079  require(_debaseRate <= PERCENTAGE_DENOMINATOR,\"Rate should be less than PERCENTAGE_DENOMINATOR\") */\n      tag_590\n      jumpi\n      mload(0x40)\n      shl(0xe5, 0x461bcd)\n      dup2\n      mstore\n      0x04\n      add\n      tag_347\n      swap1\n      tag_592\n      jump\t// in\n    tag_590:\n        /* \"SmartContractsInterview/Token.sol\":13089:13099  debaseRate */\n      0x0d\n        /* \"SmartContractsInterview/Token.sol\":13089:13113  debaseRate = _debaseRate */\n      sstore\n        /* \"SmartContractsInterview/Token.sol\":12887:13120  function updateDebaseRate(uint256 _debaseRate) external onlyOwner {... */\n      jump\t// out\n        /* \"SmartContractsInterview/Token.sol\":16965:17024  function pause() public onlyOwner {... */\n    tag_242:\n        /* \"@openzeppelin/contracts/access/Ownable.sol\":1531:1544  _checkOwner() */\n      tag_594\n        /* \"@openzeppelin/contracts/access/Ownable.sol\":1531:1542  _checkOwner */\n      tag_439\n        /* \"@openzeppelin/contracts/access/Ownable.sol\":1531:1544  _checkOwner() */\n      jump\t// in\n    tag_594:\n        /* \"SmartContractsInterview/Token.sol\":17009:17017  _pause() */\n      tag_444\n        /* \"SmartContractsInterview/Token.sol\":17009:17015  _pause */\n      tag_597\n        /* \"SmartContractsInterview/Token.sol\":17009:17017  _pause() */\n      jump\t// in\n        /* \"SmartContractsInterview/Token.sol\":17136:17219  function getOwner() external view returns (address) {... */\n    tag_249:\n        /* \"SmartContractsInterview/Token.sol\":17179:17186  address */\n      0x00\n        /* \"SmartContractsInterview/Token.sol\":17205:17212  owner() */\n      tag_354\n        /* \"@openzeppelin/contracts/access/Ownable.sol\":1710:1716  _owner */\n      and(sub(shl(0xa0, 0x01), 0x01), sload(0x02))\n      swap1\n        /* \"@openzeppelin/contracts/access/Ownable.sol\":1638:1723  function owner() public view virtual returns (address) {... */\n      jump\n        /* \"SmartContractsInterview/Token.sol\":12297:12452  function _fragmentToDebaseToken(uint256 _value) public pure returns (uint256) {... */\n    tag_254:\n        /* \"SmartContractsInterview/Token.sol\":12366:12373  uint256 */\n      0x00\n        /* \"SmartContractsInterview/Token.sol\":12392:12445  _value.mul(TOKEN_public_DECIMALS).div(TOKEN_DECIMALS) */\n      tag_343\n        /* \"SmartContractsInterview/Token.sol\":860:864  1e18 */\n      0x0de0b6b3a7640000\n        /* \"SmartContractsInterview/Token.sol\":12392:12425  _value.mul(TOKEN_public_DECIMALS) */\n      tag_488\n        /* \"SmartContractsInterview/Token.sol\":12392:12398  _value */\n      dup5\n        /* \"SmartContractsInterview/Token.sol\":918:922  1e24 */\n      0xd3c21bcecceda1000000\n        /* \"SmartContractsInterview/Token.sol\":12392:12402  _value.mul */\n      tag_489\n        /* \"SmartContractsInterview/Token.sol\":12392:12425  _value.mul(TOKEN_public_DECIMALS) */\n      jump\t// in\n        /* \"SmartContractsInterview/Token.sol\":962:991  string public override symbol */\n    tag_281:\n      0x04\n      dup1\n      sload\n      tag_337\n      swap1\n      tag_338\n      jump\t// in\n        /* \"SmartContractsInterview/Token.sol\":9764:9986  function _sendTokensTreasuryWallet(uint256 _amount, address _to) public {... */\n    tag_287:\n        /* \"SmartContractsInterview/Token.sol\":9873:9880  _amount */\n      dup2\n        /* \"SmartContractsInterview/Token.sol\":9854:9869  treasuryBalance */\n      sload(0x0a)\n        /* \"SmartContractsInterview/Token.sol\":9854:9880  treasuryBalance >= _amount */\n      lt\n      iszero\n        /* \"SmartContractsInterview/Token.sol\":9846:9914  require(treasuryBalance >= _amount, \"Insufficient Balance to claim\") */\n      tag_610\n      jumpi\n      mload(0x40)\n      shl(0xe5, 0x461bcd)\n      dup2\n      mstore\n        /* \"#utility.yul\":15614:15616   */\n      0x20\n        /* \"SmartContractsInterview/Token.sol\":9846:9914  require(treasuryBalance >= _amount, \"Insufficient Balance to claim\") */\n      0x04\n      dup3\n      add\n        /* \"#utility.yul\":15596:15617   */\n      mstore\n        /* \"#utility.yul\":15653:15655   */\n      0x1d\n        /* \"#utility.yul\":15633:15651   */\n      0x24\n      dup3\n      add\n        /* \"#utility.yul\":15626:15656   */\n      mstore\n        /* \"#utility.yul\":15692:15723   */\n      0x496e73756666696369656e742042616c616e636520746f20636c61696d000000\n        /* \"#utility.yul\":15672:15690   */\n      0x44\n      dup3\n      add\n        /* \"#utility.yul\":15665:15724   */\n      mstore\n        /* \"#utility.yul\":15741:15759   */\n      0x64\n      add\n        /* \"SmartContractsInterview/Token.sol\":9846:9914  require(treasuryBalance >= _amount, \"Insufficient Balance to claim\") */\n      tag_347\n        /* \"#utility.yul\":15412:15765   */\n      jump\n        /* \"SmartContractsInterview/Token.sol\":9846:9914  require(treasuryBalance >= _amount, \"Insufficient Balance to claim\") */\n    tag_610:\n        /* \"SmartContractsInterview/Token.sol\":9943:9950  _amount */\n      dup2\n        /* \"SmartContractsInterview/Token.sol\":9924:9939  treasuryBalance */\n      0x0a\n      0x00\n        /* \"SmartContractsInterview/Token.sol\":9924:9950  treasuryBalance -= _amount */\n      dup3\n      dup3\n      sload\n      tag_613\n      swap2\n      swap1\n      tag_387\n      jump\t// in\n    tag_613:\n      swap1\n      swap2\n      sstore\n      pop\n        /* \"SmartContractsInterview/Token.sol\":9960:9979  _mint(_to, _amount) */\n      tag_502\n      swap1\n      pop\n        /* \"SmartContractsInterview/Token.sol\":9966:9969  _to */\n      dup2\n        /* \"SmartContractsInterview/Token.sol\":9971:9978  _amount */\n      dup4\n        /* \"SmartContractsInterview/Token.sol\":9960:9965  _mint */\n      tag_168\n        /* \"SmartContractsInterview/Token.sol\":9960:9979  _mint(_to, _amount) */\n      jump\t// in\n        /* \"SmartContractsInterview/Token.sol\":5444:5717  function decreaseAllowance(address _spender,uint256 _subtractedValue) public virtual returns (bool) {... */\n    tag_291:\n        /* \"SmartContractsInterview/Token.sol\":5538:5542  bool */\n      0x00\n        /* \"SmartContractsInterview/Token.sol\":5554:5689  _approve(msg.sender, _spender,_allowances[msg.sender][_spender].sub(_subtractedValue,\"ERC20: decreased allowance below zero\")... */\n      tag_344\n        /* \"SmartContractsInterview/Token.sol\":5563:5573  msg.sender */\n      caller\n        /* \"SmartContractsInterview/Token.sol\":5575:5583  _spender */\n      dup5\n        /* \"SmartContractsInterview/Token.sol\":5584:5679  _allowances[msg.sender][_spender].sub(_subtractedValue,\"ERC20: decreased allowance below zero\") */\n      tag_92\n        /* \"SmartContractsInterview/Token.sol\":5622:5638  _subtractedValue */\n      dup6\n        /* \"SmartContractsInterview/Token.sol\":5584:5679  _allowances[msg.sender][_spender].sub(_subtractedValue,\"ERC20: decreased allowance below zero\") */\n      mload(0x40)\n      dup1\n      0x60\n      add\n      0x40\n      mstore\n      dup1\n      0x25\n      dup2\n      mstore\n      0x20\n      add\n      data_f8b476f7d28209d77d4a4ac1fe36b9f8259aa1bb6bddfa6e89de7e51615cf8a8\n      0x25\n      swap2\n      codecopy\n        /* \"SmartContractsInterview/Token.sol\":5596:5606  msg.sender */\n      caller\n        /* \"SmartContractsInterview/Token.sol\":5584:5607  _allowances[msg.sender] */\n      0x00\n      swap1\n      dup2\n      mstore\n        /* \"SmartContractsInterview/Token.sol\":5584:5595  _allowances */\n      0x08\n        /* \"SmartContractsInterview/Token.sol\":5584:5607  _allowances[msg.sender] */\n      0x20\n      swap1\n      dup2\n      mstore\n      0x40\n      dup1\n      dup4\n      keccak256\n      sub(shl(0xa0, 0x01), 0x01)\n        /* \"SmartContractsInterview/Token.sol\":5584:5617  _allowances[msg.sender][_spender] */\n      dup14\n      and\n      dup5\n      mstore\n      swap1\n      swap2\n      mstore\n      swap1\n      keccak256\n      sload\n      swap2\n        /* \"SmartContractsInterview/Token.sol\":5584:5679  _allowances[msg.sender][_spender].sub(_subtractedValue,\"ERC20: decreased allowance below zero\") */\n      swap1\n        /* \"SmartContractsInterview/Token.sol\":5584:5621  _allowances[msg.sender][_spender].sub */\n      tag_360\n        /* \"SmartContractsInterview/Token.sol\":5584:5679  _allowances[msg.sender][_spender].sub(_subtractedValue,\"ERC20: decreased allowance below zero\") */\n      jump\t// in\n        /* \"SmartContractsInterview/Token.sol\":4191:4356  function transfer(address _recipient,uint256 _amount) public override returns (bool) {... */\n    tag_300:\n        /* \"SmartContractsInterview/Token.sol\":4270:4274  bool */\n      0x00\n        /* \"SmartContractsInterview/Token.sol\":4286:4328  _transfer(msg.sender, _recipient, _amount) */\n      tag_344\n        /* \"SmartContractsInterview/Token.sol\":4296:4306  msg.sender */\n      caller\n        /* \"SmartContractsInterview/Token.sol\":4308:4318  _recipient */\n      dup5\n        /* \"SmartContractsInterview/Token.sol\":4320:4327  _amount */\n      dup5\n        /* \"SmartContractsInterview/Token.sol\":4286:4295  _transfer */\n      tag_122\n        /* \"SmartContractsInterview/Token.sol\":4286:4328  _transfer(msg.sender, _recipient, _amount) */\n      jump\t// in\n        /* \"SmartContractsInterview/Token.sol\":12505:12760  function updateSellTaxRate(uint256 _sellTaxRate) external onlyOwner {... */\n    tag_309:\n        /* \"@openzeppelin/contracts/access/Ownable.sol\":1531:1544  _checkOwner() */\n      tag_621\n        /* \"@openzeppelin/contracts/access/Ownable.sol\":1531:1542  _checkOwner */\n      tag_439\n        /* \"@openzeppelin/contracts/access/Ownable.sol\":1531:1544  _checkOwner() */\n      jump\t// in\n    tag_621:\n        /* \"SmartContractsInterview/Token.sol\":12640:12644  5000 */\n      0x1388\n        /* \"SmartContractsInterview/Token.sol\":12624:12636  _sellTaxRate */\n      dup2\n        /* \"SmartContractsInterview/Token.sol\":12624:12644  _sellTaxRate <= 5000 */\n      gt\n      iszero\n        /* \"SmartContractsInterview/Token.sol\":12603:12717  require(... */\n      tag_623\n      jumpi\n      mload(0x40)\n      shl(0xe5, 0x461bcd)\n      dup2\n      mstore\n      0x04\n      add\n      tag_347\n      swap1\n      tag_592\n      jump\t// in\n    tag_623:\n        /* \"SmartContractsInterview/Token.sol\":12727:12738  sellTaxRate */\n      0x0c\n        /* \"SmartContractsInterview/Token.sol\":12727:12753  sellTaxRate = _sellTaxRate */\n      sstore\n        /* \"SmartContractsInterview/Token.sol\":12505:12760  function updateSellTaxRate(uint256 _sellTaxRate) external onlyOwner {... */\n      jump\t// out\n        /* \"SmartContractsInterview/Token.sol\":13126:13249  function updateDebaseDuration(uint256 _debaseDuration) external onlyOwner {... */\n    tag_323:\n        /* \"@openzeppelin/contracts/access/Ownable.sol\":1531:1544  _checkOwner() */\n      tag_627\n        /* \"@openzeppelin/contracts/access/Ownable.sol\":1531:1542  _checkOwner */\n      tag_439\n        /* \"@openzeppelin/contracts/access/Ownable.sol\":1531:1544  _checkOwner() */\n      jump\t// in\n    tag_627:\n        /* \"SmartContractsInterview/Token.sol\":13210:13224  debaseDuration */\n      0x0f\n        /* \"SmartContractsInterview/Token.sol\":13210:13242  debaseDuration = _debaseDuration */\n      sstore\n        /* \"SmartContractsInterview/Token.sol\":13126:13249  function updateDebaseDuration(uint256 _debaseDuration) external onlyOwner {... */\n      jump\t// out\n        /* \"SmartContractsInterview/Token.sol\":17225:17441  function _treasuryBalanceOf() public view returns (uint256) {... */\n    tag_326:\n        /* \"SmartContractsInterview/Token.sol\":17363:17377  treasuryWallet */\n      and(sub(shl(0xa0, 0x01), 0x01), sload(0x0b))\n        /* \"SmartContractsInterview/Token.sol\":17276:17283  uint256 */\n      0x00\n        /* \"SmartContractsInterview/Token.sol\":17353:17378  _balances[treasuryWallet] */\n      swap1\n      dup2\n      mstore\n        /* \"SmartContractsInterview/Token.sol\":17353:17362  _balances */\n      0x09\n        /* \"SmartContractsInterview/Token.sol\":17353:17378  _balances[treasuryWallet] */\n      0x20\n      mstore\n      0x40\n      dup2\n      keccak256\n      sload\n        /* \"SmartContractsInterview/Token.sol\":17276:17283  uint256 */\n      dup2\n      swap1\n        /* \"SmartContractsInterview/Token.sol\":17317:17388  _debaseTokenToFragment(... */\n      tag_630\n      swap1\n        /* \"SmartContractsInterview/Token.sol\":17317:17339  _debaseTokenToFragment */\n      tag_187\n        /* \"SmartContractsInterview/Token.sol\":17317:17388  _debaseTokenToFragment(... */\n      jump\t// in\n    tag_630:\n        /* \"SmartContractsInterview/Token.sol\":17295:17388  uint256 realBalance = _debaseTokenToFragment(... */\n      swap1\n      pop\n        /* \"SmartContractsInterview/Token.sol\":17423:17434  realBalance */\n      dup1\n        /* \"SmartContractsInterview/Token.sol\":17405:17420  treasuryBalance */\n      sload(0x0a)\n        /* \"SmartContractsInterview/Token.sol\":17405:17434  treasuryBalance + realBalance */\n      tag_631\n      swap2\n      swap1\n      tag_355\n      jump\t// in\n    tag_631:\n        /* \"SmartContractsInterview/Token.sol\":17398:17434  return treasuryBalance + realBalance */\n      swap2\n      pop\n      pop\n        /* \"SmartContractsInterview/Token.sol\":17225:17441  function _treasuryBalanceOf() public view returns (uint256) {... */\n      swap1\n      jump\t// out\n        /* \"SmartContractsInterview/Token.sol\":15286:16812  function multiAirdropTokenRequested(... */\n    tag_332:\n        /* \"@openzeppelin/contracts/security/ReentrancyGuard.sol\":2261:2282  _nonReentrantBefore() */\n      tag_633\n        /* \"@openzeppelin/contracts/security/ReentrancyGuard.sol\":2261:2280  _nonReentrantBefore */\n      tag_634\n        /* \"@openzeppelin/contracts/security/ReentrancyGuard.sol\":2261:2282  _nonReentrantBefore() */\n      jump\t// in\n    tag_633:\n        /* \"@openzeppelin/contracts/security/Pausable.sol\":1239:1258  _requireNotPaused() */\n      tag_636\n        /* \"@openzeppelin/contracts/security/Pausable.sol\":1239:1256  _requireNotPaused */\n      tag_363\n        /* \"@openzeppelin/contracts/security/Pausable.sol\":1239:1258  _requireNotPaused() */\n      jump\t// in\n    tag_636:\n        /* \"SmartContractsInterview/Token.sol\":15479:15487  _amounts */\n      dup1\n        /* \"SmartContractsInterview/Token.sol\":15479:15494  _amounts.length */\n      mload\n        /* \"SmartContractsInterview/Token.sol\":15456:15468  _airdroppers */\n      dup3\n        /* \"SmartContractsInterview/Token.sol\":15456:15475  _airdroppers.length */\n      mload\n        /* \"SmartContractsInterview/Token.sol\":15456:15494  _airdroppers.length == _amounts.length */\n      eq\n        /* \"SmartContractsInterview/Token.sol\":15448:15521  require(_airdroppers.length == _amounts.length, \"Arrays length mismatch\") */\n      tag_638\n      jumpi\n      mload(0x40)\n      shl(0xe5, 0x461bcd)\n      dup2\n      mstore\n        /* \"#utility.yul\":15972:15974   */\n      0x20\n        /* \"SmartContractsInterview/Token.sol\":15448:15521  require(_airdroppers.length == _amounts.length, \"Arrays length mismatch\") */\n      0x04\n      dup3\n      add\n        /* \"#utility.yul\":15954:15975   */\n      mstore\n        /* \"#utility.yul\":16011:16013   */\n      0x16\n        /* \"#utility.yul\":15991:16009   */\n      0x24\n      dup3\n      add\n        /* \"#utility.yul\":15984:16014   */\n      mstore\n      shl(0x53, 0x082e4e4c2f2e640d8cadccee8d040dad2e6dac2e8c6d)\n        /* \"#utility.yul\":16030:16048   */\n      0x44\n      dup3\n      add\n        /* \"#utility.yul\":16023:16075   */\n      mstore\n        /* \"#utility.yul\":16092:16110   */\n      0x64\n      add\n        /* \"SmartContractsInterview/Token.sol\":15448:15521  require(_airdroppers.length == _amounts.length, \"Arrays length mismatch\") */\n      tag_347\n        /* \"#utility.yul\":15770:16116   */\n      jump\n        /* \"SmartContractsInterview/Token.sol\":15448:15521  require(_airdroppers.length == _amounts.length, \"Arrays length mismatch\") */\n    tag_638:\n        /* \"SmartContractsInterview/Token.sol\":15532:15551  uint256 totalAmount */\n      0x00\n        /* \"SmartContractsInterview/Token.sol\":15570:15579  uint256 i */\n      dup1\n        /* \"SmartContractsInterview/Token.sol\":15565:15662  for (uint256 i = 0; i < _amounts.length; ++i) {... */\n    tag_641:\n        /* \"SmartContractsInterview/Token.sol\":15589:15597  _amounts */\n      dup3\n        /* \"SmartContractsInterview/Token.sol\":15589:15604  _amounts.length */\n      mload\n        /* \"SmartContractsInterview/Token.sol\":15585:15586  i */\n      dup2\n        /* \"SmartContractsInterview/Token.sol\":15585:15604  i < _amounts.length */\n      lt\n        /* \"SmartContractsInterview/Token.sol\":15565:15662  for (uint256 i = 0; i < _amounts.length; ++i) {... */\n      iszero\n      tag_642\n      jumpi\n        /* \"SmartContractsInterview/Token.sol\":15640:15648  _amounts */\n      dup3\n        /* \"SmartContractsInterview/Token.sol\":15649:15650  i */\n      dup2\n        /* \"SmartContractsInterview/Token.sol\":15640:15651  _amounts[i] */\n      dup2\n      mload\n      dup2\n      lt\n      tag_645\n      jumpi\n      tag_645\n      tag_532\n      jump\t// in\n    tag_645:\n      0x20\n      mul\n      0x20\n      add\n      add\n      mload\n        /* \"SmartContractsInterview/Token.sol\":15625:15651  totalAmount += _amounts[i] */\n      dup3\n      tag_646\n      swap2\n      swap1\n      tag_355\n      jump\t// in\n    tag_646:\n      swap2\n      pop\n        /* \"SmartContractsInterview/Token.sol\":15606:15609  ++i */\n      0x01\n      add\n        /* \"SmartContractsInterview/Token.sol\":15565:15662  for (uint256 i = 0; i < _amounts.length; ++i) {... */\n      jump(tag_641)\n    tag_642:\n      pop\n        /* \"SmartContractsInterview/Token.sol\":15709:15720  totalAmount */\n      dup1\n        /* \"SmartContractsInterview/Token.sol\":15684:15705  balanceOf(msg.sender) */\n      tag_647\n        /* \"SmartContractsInterview/Token.sol\":15694:15704  msg.sender */\n      caller\n        /* \"SmartContractsInterview/Token.sol\":15684:15693  balanceOf */\n      tag_219\n        /* \"SmartContractsInterview/Token.sol\":15684:15705  balanceOf(msg.sender) */\n      jump\t// in\n    tag_647:\n        /* \"SmartContractsInterview/Token.sol\":15684:15720  balanceOf(msg.sender) >= totalAmount */\n      lt\n      iszero\n        /* \"SmartContractsInterview/Token.sol\":15676:15745  require(balanceOf(msg.sender) >= totalAmount, \"Insufficient balance\") */\n      tag_648\n      jumpi\n      mload(0x40)\n      shl(0xe5, 0x461bcd)\n      dup2\n      mstore\n        /* \"#utility.yul\":16323:16325   */\n      0x20\n        /* \"SmartContractsInterview/Token.sol\":15676:15745  require(balanceOf(msg.sender) >= totalAmount, \"Insufficient balance\") */\n      0x04\n      dup3\n      add\n        /* \"#utility.yul\":16305:16326   */\n      mstore\n        /* \"#utility.yul\":16362:16364   */\n      0x14\n        /* \"#utility.yul\":16342:16360   */\n      0x24\n      dup3\n      add\n        /* \"#utility.yul\":16335:16365   */\n      mstore\n      shl(0x60, 0x496e73756666696369656e742062616c616e6365)\n        /* \"#utility.yul\":16381:16399   */\n      0x44\n      dup3\n      add\n        /* \"#utility.yul\":16374:16424   */\n      mstore\n        /* \"#utility.yul\":16441:16459   */\n      0x64\n      add\n        /* \"SmartContractsInterview/Token.sol\":15676:15745  require(balanceOf(msg.sender) >= totalAmount, \"Insufficient balance\") */\n      tag_347\n        /* \"#utility.yul\":16121:16465   */\n      jump\n        /* \"SmartContractsInterview/Token.sol\":15676:15745  require(balanceOf(msg.sender) >= totalAmount, \"Insufficient balance\") */\n    tag_648:\n        /* \"SmartContractsInterview/Token.sol\":15761:15770  uint256 i */\n      0x00\n        /* \"SmartContractsInterview/Token.sol\":15756:16806  for (uint256 i = 0; i < _airdroppers.length; ++i) {... */\n    tag_651:\n        /* \"SmartContractsInterview/Token.sol\":15780:15792  _airdroppers */\n      dup4\n        /* \"SmartContractsInterview/Token.sol\":15780:15799  _airdroppers.length */\n      mload\n        /* \"SmartContractsInterview/Token.sol\":15776:15777  i */\n      dup2\n        /* \"SmartContractsInterview/Token.sol\":15776:15799  i < _airdroppers.length */\n      lt\n        /* \"SmartContractsInterview/Token.sol\":15756:16806  for (uint256 i = 0; i < _airdroppers.length; ++i) {... */\n      iszero\n      tag_652\n      jumpi\n        /* \"SmartContractsInterview/Token.sol\":15848:15856  _amounts */\n      dup3\n        /* \"SmartContractsInterview/Token.sol\":15857:15858  i */\n      dup2\n        /* \"SmartContractsInterview/Token.sol\":15848:15859  _amounts[i] */\n      dup2\n      mload\n      dup2\n      lt\n      tag_655\n      jumpi\n      tag_655\n      tag_532\n      jump\t// in\n    tag_655:\n      0x20\n      mul\n      0x20\n      add\n      add\n      mload\n        /* \"SmartContractsInterview/Token.sol\":15824:15845  balanceOf(msg.sender) */\n      tag_656\n        /* \"SmartContractsInterview/Token.sol\":15834:15844  msg.sender */\n      caller\n        /* \"SmartContractsInterview/Token.sol\":15824:15833  balanceOf */\n      tag_219\n        /* \"SmartContractsInterview/Token.sol\":15824:15845  balanceOf(msg.sender) */\n      jump\t// in\n    tag_656:\n        /* \"SmartContractsInterview/Token.sol\":15824:15859  balanceOf(msg.sender) > _amounts[i] */\n      gt\n        /* \"SmartContractsInterview/Token.sol\":15820:16796  if (balanceOf(msg.sender) > _amounts[i]) {... */\n      iszero\n      tag_657\n      jumpi\n        /* \"SmartContractsInterview/Token.sol\":15906:15916  msg.sender */\n      caller\n        /* \"SmartContractsInterview/Token.sol\":15883:15917  isExcludedFromDebasing[msg.sender] */\n      0x00\n      swap1\n      dup2\n      mstore\n        /* \"SmartContractsInterview/Token.sol\":15883:15905  isExcludedFromDebasing */\n      0x12\n        /* \"SmartContractsInterview/Token.sol\":15883:15917  isExcludedFromDebasing[msg.sender] */\n      0x20\n      mstore\n      0x40\n      swap1\n      keccak256\n      sload\n      0xff\n      and\n        /* \"SmartContractsInterview/Token.sol\":15879:16277  if (isExcludedFromDebasing[msg.sender]) {... */\n      iszero\n      tag_658\n      jumpi\n        /* \"SmartContractsInterview/Token.sol\":15966:16047  _fragmentToDebaseToken(... */\n      tag_659\n        /* \"SmartContractsInterview/Token.sol\":16014:16022  _amounts */\n      dup4\n        /* \"SmartContractsInterview/Token.sol\":16023:16024  i */\n      dup3\n        /* \"SmartContractsInterview/Token.sol\":16014:16025  _amounts[i] */\n      dup2\n      mload\n      dup2\n      lt\n      tag_661\n      jumpi\n      tag_661\n      tag_532\n      jump\t// in\n    tag_661:\n      0x20\n      mul\n      0x20\n      add\n      add\n      mload\n        /* \"SmartContractsInterview/Token.sol\":15966:15988  _fragmentToDebaseToken */\n      tag_254\n        /* \"SmartContractsInterview/Token.sol\":15966:16047  _fragmentToDebaseToken(... */\n      jump\t// in\n    tag_659:\n        /* \"SmartContractsInterview/Token.sol\":15951:15961  msg.sender */\n      caller\n        /* \"SmartContractsInterview/Token.sol\":15941:15962  _balances[msg.sender] */\n      0x00\n      swap1\n      dup2\n      mstore\n        /* \"SmartContractsInterview/Token.sol\":15941:15950  _balances */\n      0x09\n        /* \"SmartContractsInterview/Token.sol\":15941:15962  _balances[msg.sender] */\n      0x20\n      mstore\n      0x40\n      dup2\n      keccak256\n        /* \"SmartContractsInterview/Token.sol\":15941:16047  _balances[msg.sender] -= _fragmentToDebaseToken(... */\n      dup1\n      sload\n        /* \"SmartContractsInterview/Token.sol\":15941:15962  _balances[msg.sender] */\n      swap1\n      swap2\n      swap1\n        /* \"SmartContractsInterview/Token.sol\":15941:16047  _balances[msg.sender] -= _fragmentToDebaseToken(... */\n      tag_662\n      swap1\n      dup5\n      swap1\n      tag_387\n      jump\t// in\n    tag_662:\n      swap3\n      pop\n      pop\n      dup2\n      swap1\n      sstore\n      pop\n        /* \"SmartContractsInterview/Token.sol\":16094:16102  _amounts */\n      dup3\n        /* \"SmartContractsInterview/Token.sol\":16103:16104  i */\n      dup2\n        /* \"SmartContractsInterview/Token.sol\":16094:16105  _amounts[i] */\n      dup2\n      mload\n      dup2\n      lt\n      tag_664\n      jumpi\n      tag_664\n      tag_532\n      jump\t// in\n    tag_664:\n      0x20\n      mul\n      0x20\n      add\n      add\n      mload\n        /* \"SmartContractsInterview/Token.sol\":16069:16090  excludeDebasingSupply */\n      0x07\n      0x00\n        /* \"SmartContractsInterview/Token.sol\":16069:16105  excludeDebasingSupply -= _amounts[i] */\n      dup3\n      dup3\n      sload\n      tag_665\n      swap2\n      swap1\n      tag_387\n      jump\t// in\n    tag_665:\n      swap1\n      swap2\n      sstore\n      pop\n        /* \"SmartContractsInterview/Token.sol\":15879:16277  if (isExcludedFromDebasing[msg.sender]) {... */\n      tag_666\n      swap1\n      pop\n      jump\n    tag_658:\n        /* \"SmartContractsInterview/Token.sol\":16177:16258  _fragmentToDebaseToken(... */\n      tag_667\n        /* \"SmartContractsInterview/Token.sol\":16225:16233  _amounts */\n      dup4\n        /* \"SmartContractsInterview/Token.sol\":16234:16235  i */\n      dup3\n        /* \"SmartContractsInterview/Token.sol\":16225:16236  _amounts[i] */\n      dup2\n      mload\n      dup2\n      lt\n      tag_661\n      jumpi\n      tag_661\n      tag_532\n      jump\t// in\n        /* \"SmartContractsInterview/Token.sol\":16177:16258  _fragmentToDebaseToken(... */\n    tag_667:\n        /* \"SmartContractsInterview/Token.sol\":16162:16172  msg.sender */\n      caller\n        /* \"SmartContractsInterview/Token.sol\":16152:16173  _balances[msg.sender] */\n      0x00\n      swap1\n      dup2\n      mstore\n        /* \"SmartContractsInterview/Token.sol\":16152:16161  _balances */\n      0x09\n        /* \"SmartContractsInterview/Token.sol\":16152:16173  _balances[msg.sender] */\n      0x20\n      mstore\n      0x40\n      dup2\n      keccak256\n        /* \"SmartContractsInterview/Token.sol\":16152:16258  _balances[msg.sender] -= _fragmentToDebaseToken(... */\n      dup1\n      sload\n        /* \"SmartContractsInterview/Token.sol\":16152:16173  _balances[msg.sender] */\n      swap1\n      swap2\n      swap1\n        /* \"SmartContractsInterview/Token.sol\":16152:16258  _balances[msg.sender] -= _fragmentToDebaseToken(... */\n      tag_670\n      swap1\n      dup5\n      swap1\n      tag_387\n      jump\t// in\n    tag_670:\n      swap1\n      swap2\n      sstore\n      pop\n      pop\n        /* \"SmartContractsInterview/Token.sol\":15879:16277  if (isExcludedFromDebasing[msg.sender]) {... */\n    tag_666:\n        /* \"SmartContractsInterview/Token.sol\":16299:16321  isExcludedFromDebasing */\n      0x12\n        /* \"SmartContractsInterview/Token.sol\":16299:16338  isExcludedFromDebasing[_airdroppers[i]] */\n      0x00\n        /* \"SmartContractsInterview/Token.sol\":16322:16334  _airdroppers */\n      dup6\n        /* \"SmartContractsInterview/Token.sol\":16335:16336  i */\n      dup4\n        /* \"SmartContractsInterview/Token.sol\":16322:16337  _airdroppers[i] */\n      dup2\n      mload\n      dup2\n      lt\n      tag_672\n      jumpi\n      tag_672\n      tag_532\n      jump\t// in\n    tag_672:\n      0x20\n      swap1\n      dup2\n      mul\n      swap2\n      swap1\n      swap2\n      add\n      dup2\n      add\n      mload\n      sub(shl(0xa0, 0x01), 0x01)\n        /* \"SmartContractsInterview/Token.sol\":16299:16338  isExcludedFromDebasing[_airdroppers[i]] */\n      and\n      dup3\n      mstore\n      dup2\n      add\n      swap2\n      swap1\n      swap2\n      mstore\n      0x40\n      add\n      0x00\n      keccak256\n      sload\n      0xff\n      and\n        /* \"SmartContractsInterview/Token.sol\":16295:16708  if (isExcludedFromDebasing[_airdroppers[i]]) {... */\n      iszero\n      tag_673\n      jumpi\n        /* \"SmartContractsInterview/Token.sol\":16438:16473  _fragmentToDebaseToken(_amounts[i]) */\n      tag_674\n        /* \"SmartContractsInterview/Token.sol\":16461:16469  _amounts */\n      dup4\n        /* \"SmartContractsInterview/Token.sol\":16470:16471  i */\n      dup3\n        /* \"SmartContractsInterview/Token.sol\":16461:16472  _amounts[i] */\n      dup2\n      mload\n      dup2\n      lt\n      tag_661\n      jumpi\n      tag_661\n      tag_532\n      jump\t// in\n        /* \"SmartContractsInterview/Token.sol\":16438:16473  _fragmentToDebaseToken(_amounts[i]) */\n    tag_674:\n        /* \"SmartContractsInterview/Token.sol\":16362:16371  _balances */\n      0x09\n        /* \"SmartContractsInterview/Token.sol\":16362:16434  _balances[... */\n      0x00\n        /* \"SmartContractsInterview/Token.sol\":16397:16409  _airdroppers */\n      dup7\n        /* \"SmartContractsInterview/Token.sol\":16410:16411  i */\n      dup5\n        /* \"SmartContractsInterview/Token.sol\":16397:16412  _airdroppers[i] */\n      dup2\n      mload\n      dup2\n      lt\n      tag_678\n      jumpi\n      tag_678\n      tag_532\n      jump\t// in\n    tag_678:\n      0x20\n      mul\n      0x20\n      add\n      add\n      mload\n      sub(shl(0xa0, 0x01), 0x01)\n        /* \"SmartContractsInterview/Token.sol\":16362:16434  _balances[... */\n      and\n      sub(shl(0xa0, 0x01), 0x01)\n      and\n      dup2\n      mstore\n      0x20\n      add\n      swap1\n      dup2\n      mstore\n      0x20\n      add\n      0x00\n      keccak256\n      0x00\n        /* \"SmartContractsInterview/Token.sol\":16362:16473  _balances[... */\n      dup3\n      dup3\n      sload\n      tag_679\n      swap2\n      swap1\n      tag_355\n      jump\t// in\n    tag_679:\n      swap3\n      pop\n      pop\n      dup2\n      swap1\n      sstore\n      pop\n        /* \"SmartContractsInterview/Token.sol\":16520:16528  _amounts */\n      dup3\n        /* \"SmartContractsInterview/Token.sol\":16529:16530  i */\n      dup2\n        /* \"SmartContractsInterview/Token.sol\":16520:16531  _amounts[i] */\n      dup2\n      mload\n      dup2\n      lt\n      tag_681\n      jumpi\n      tag_681\n      tag_532\n      jump\t// in\n    tag_681:\n      0x20\n      mul\n      0x20\n      add\n      add\n      mload\n        /* \"SmartContractsInterview/Token.sol\":16495:16516  excludeDebasingSupply */\n      0x07\n      0x00\n        /* \"SmartContractsInterview/Token.sol\":16495:16531  excludeDebasingSupply += _amounts[i] */\n      dup3\n      dup3\n      sload\n      tag_682\n      swap2\n      swap1\n      tag_355\n      jump\t// in\n    tag_682:\n      swap1\n      swap2\n      sstore\n      pop\n        /* \"SmartContractsInterview/Token.sol\":16295:16708  if (isExcludedFromDebasing[_airdroppers[i]]) {... */\n      tag_683\n      swap1\n      pop\n      jump\n    tag_673:\n        /* \"SmartContractsInterview/Token.sol\":16608:16689  _fragmentToDebaseToken(... */\n      tag_684\n        /* \"SmartContractsInterview/Token.sol\":16656:16664  _amounts */\n      dup4\n        /* \"SmartContractsInterview/Token.sol\":16665:16666  i */\n      dup3\n        /* \"SmartContractsInterview/Token.sol\":16656:16667  _amounts[i] */\n      dup2\n      mload\n      dup2\n      lt\n      tag_661\n      jumpi\n      tag_661\n      tag_532\n      jump\t// in\n        /* \"SmartContractsInterview/Token.sol\":16608:16689  _fragmentToDebaseToken(... */\n    tag_684:\n        /* \"SmartContractsInterview/Token.sol\":16578:16587  _balances */\n      0x09\n        /* \"SmartContractsInterview/Token.sol\":16578:16604  _balances[_airdroppers[i]] */\n      0x00\n        /* \"SmartContractsInterview/Token.sol\":16588:16600  _airdroppers */\n      dup7\n        /* \"SmartContractsInterview/Token.sol\":16601:16602  i */\n      dup5\n        /* \"SmartContractsInterview/Token.sol\":16588:16603  _airdroppers[i] */\n      dup2\n      mload\n      dup2\n      lt\n      tag_688\n      jumpi\n      tag_688\n      tag_532\n      jump\t// in\n    tag_688:\n      0x20\n      mul\n      0x20\n      add\n      add\n      mload\n      sub(shl(0xa0, 0x01), 0x01)\n        /* \"SmartContractsInterview/Token.sol\":16578:16604  _balances[_airdroppers[i]] */\n      and\n      sub(shl(0xa0, 0x01), 0x01)\n      and\n      dup2\n      mstore\n      0x20\n      add\n      swap1\n      dup2\n      mstore\n      0x20\n      add\n      0x00\n      keccak256\n      0x00\n        /* \"SmartContractsInterview/Token.sol\":16578:16689  _balances[_airdroppers[i]] += _fragmentToDebaseToken(... */\n      dup3\n      dup3\n      sload\n      tag_689\n      swap2\n      swap1\n      tag_355\n      jump\t// in\n    tag_689:\n      swap1\n      swap2\n      sstore\n      pop\n      pop\n        /* \"SmartContractsInterview/Token.sol\":16295:16708  if (isExcludedFromDebasing[_airdroppers[i]]) {... */\n    tag_683:\n        /* \"SmartContractsInterview/Token.sol\":16752:16764  _airdroppers */\n      dup4\n        /* \"SmartContractsInterview/Token.sol\":16765:16766  i */\n      dup2\n        /* \"SmartContractsInterview/Token.sol\":16752:16767  _airdroppers[i] */\n      dup2\n      mload\n      dup2\n      lt\n      tag_691\n      jumpi\n      tag_691\n      tag_532\n      jump\t// in\n    tag_691:\n      0x20\n      mul\n      0x20\n      add\n      add\n      mload\n      sub(shl(0xa0, 0x01), 0x01)\n        /* \"SmartContractsInterview/Token.sol\":16731:16781  Transfer(msg.sender, _airdroppers[i], _amounts[i]) */\n      and\n        /* \"SmartContractsInterview/Token.sol\":16740:16750  msg.sender */\n      caller\n      sub(shl(0xa0, 0x01), 0x01)\n        /* \"SmartContractsInterview/Token.sol\":16731:16781  Transfer(msg.sender, _airdroppers[i], _amounts[i]) */\n      and\n      0x00\n      dup1\n      mload\n      0x20\n      data_ada389e1fc24a8587c776340efb91b36e675792ab631816100d55df0b5cf3cbc\n      dup4\n      codecopy\n      dup2\n      mload\n      swap2\n      mstore\n        /* \"SmartContractsInterview/Token.sol\":16769:16777  _amounts */\n      dup6\n        /* \"SmartContractsInterview/Token.sol\":16778:16779  i */\n      dup5\n        /* \"SmartContractsInterview/Token.sol\":16769:16780  _amounts[i] */\n      dup2\n      mload\n      dup2\n      lt\n      tag_693\n      jumpi\n      tag_693\n      tag_532\n      jump\t// in\n    tag_693:\n      0x20\n      mul\n      0x20\n      add\n      add\n      mload\n        /* \"SmartContractsInterview/Token.sol\":16731:16781  Transfer(msg.sender, _airdroppers[i], _amounts[i]) */\n      mload(0x40)\n      tag_694\n      swap2\n        /* \"#utility.yul\":1924:1949   */\n      dup2\n      mstore\n        /* \"#utility.yul\":1912:1914   */\n      0x20\n        /* \"#utility.yul\":1897:1915   */\n      add\n      swap1\n        /* \"#utility.yul\":1778:1955   */\n      jump\n        /* \"SmartContractsInterview/Token.sol\":16731:16781  Transfer(msg.sender, _airdroppers[i], _amounts[i]) */\n    tag_694:\n      mload(0x40)\n      dup1\n      swap2\n      sub\n      swap1\n      log3\n        /* \"SmartContractsInterview/Token.sol\":15820:16796  if (balanceOf(msg.sender) > _amounts[i]) {... */\n    tag_657:\n        /* \"SmartContractsInterview/Token.sol\":15801:15804  ++i */\n      0x01\n      add\n        /* \"SmartContractsInterview/Token.sol\":15756:16806  for (uint256 i = 0; i < _airdroppers.length; ++i) {... */\n      jump(tag_651)\n    tag_652:\n      pop\n        /* \"SmartContractsInterview/Token.sol\":15438:16812  {... */\n      pop\n        /* \"@openzeppelin/contracts/security/ReentrancyGuard.sol\":2303:2323  _nonReentrantAfter() */\n      tag_502\n        /* \"@openzeppelin/contracts/security/ReentrancyGuard.sol\":1716:1717  1 */\n      0x01\n        /* \"@openzeppelin/contracts/security/ReentrancyGuard.sol\":2809:2831  _status = _NOT_ENTERED */\n      dup1\n      sstore\n        /* \"@openzeppelin/contracts/security/ReentrancyGuard.sol\":2629:2838  function _nonReentrantAfter() private {... */\n      jump\n        /* \"@openzeppelin/contracts/access/Ownable.sol\":2543:2758  function transferOwnership(address newOwner) public virtual onlyOwner {... */\n    tag_336:\n        /* \"@openzeppelin/contracts/access/Ownable.sol\":1531:1544  _checkOwner() */\n      tag_698\n        /* \"@openzeppelin/contracts/access/Ownable.sol\":1531:1542  _checkOwner */\n      tag_439\n        /* \"@openzeppelin/contracts/access/Ownable.sol\":1531:1544  _checkOwner() */\n      jump\t// in\n    tag_698:\n      sub(shl(0xa0, 0x01), 0x01)\n        /* \"@openzeppelin/contracts/access/Ownable.sol\":2627:2649  newOwner == address(0) */\n      dup2\n      and\n        /* \"@openzeppelin/contracts/access/Ownable.sol\":2623:2714  if (newOwner == address(0)) {... */\n      tag_700\n      jumpi\n        /* \"@openzeppelin/contracts/access/Ownable.sol\":2672:2703  OwnableInvalidOwner(address(0)) */\n      mload(0x40)\n      shl(0xe0, 0x1e4fbdf7)\n      dup2\n      mstore\n        /* \"@openzeppelin/contracts/access/Ownable.sol\":2700:2701  0 */\n      0x00\n        /* \"@openzeppelin/contracts/access/Ownable.sol\":2672:2703  OwnableInvalidOwner(address(0)) */\n      0x04\n      dup3\n      add\n        /* \"#utility.yul\":3541:3592   */\n      mstore\n        /* \"#utility.yul\":3514:3532   */\n      0x24\n      add\n        /* \"@openzeppelin/contracts/access/Ownable.sol\":2672:2703  OwnableInvalidOwner(address(0)) */\n      tag_347\n        /* \"#utility.yul\":3395:3598   */\n      jump\n        /* \"@openzeppelin/contracts/access/Ownable.sol\":2623:2714  if (newOwner == address(0)) {... */\n    tag_700:\n        /* \"@openzeppelin/contracts/access/Ownable.sol\":2723:2751  _transferOwnership(newOwner) */\n      tag_702\n        /* \"@openzeppelin/contracts/access/Ownable.sol\":2742:2750  newOwner */\n      dup2\n        /* \"@openzeppelin/contracts/access/Ownable.sol\":2723:2741  _transferOwnership */\n      tag_563\n        /* \"@openzeppelin/contracts/access/Ownable.sol\":2723:2751  _transferOwnership(newOwner) */\n      jump\t// in\n    tag_702:\n        /* \"@openzeppelin/contracts/access/Ownable.sol\":2543:2758  function transferOwnership(address newOwner) public virtual onlyOwner {... */\n      pop\n      jump\t// out\n        /* \"@openzeppelin/contracts/utils/math/SafeMath.sol\":4959:5160  function sub(uint256 a, uint256 b, string memory errorMessage) internal pure returns (uint256) {... */\n    tag_360:\n        /* \"@openzeppelin/contracts/utils/math/SafeMath.sol\":5045:5052  uint256 */\n      0x00\n        /* \"@openzeppelin/contracts/utils/math/SafeMath.sol\":5104:5116  errorMessage */\n      dup2\n        /* \"@openzeppelin/contracts/utils/math/SafeMath.sol\":5096:5102  b <= a */\n      dup5\n      dup5\n      gt\n      iszero\n        /* \"@openzeppelin/contracts/utils/math/SafeMath.sol\":5088:5117  require(b <= a, errorMessage) */\n      tag_704\n      jumpi\n      mload(0x40)\n      shl(0xe5, 0x461bcd)\n      dup2\n      mstore\n      0x04\n      add\n      tag_347\n      swap2\n      swap1\n      tag_82\n      jump\t// in\n    tag_704:\n      pop\n      pop\n      pop\n        /* \"@openzeppelin/contracts/utils/math/SafeMath.sol\":5138:5143  a - b */\n      swap1\n      sub\n      swap1\n        /* \"@openzeppelin/contracts/utils/math/SafeMath.sol\":4959:5160  function sub(uint256 a, uint256 b, string memory errorMessage) internal pure returns (uint256) {... */\n      jump\t// out\n        /* \"@openzeppelin/contracts/security/Pausable.sol\":1767:1873  function _requireNotPaused() internal view virtual {... */\n    tag_363:\n        /* \"@openzeppelin/contracts/security/Pausable.sol\":1662:1666  bool */\n      0x00\n        /* \"@openzeppelin/contracts/security/Pausable.sol\":1685:1692  _paused */\n      sload\n      0xff\n      and\n        /* \"@openzeppelin/contracts/security/Pausable.sol\":1836:1845  !paused() */\n      iszero\n        /* \"@openzeppelin/contracts/security/Pausable.sol\":1828:1866  require(!paused(), \"Pausable: paused\") */\n      tag_444\n      jumpi\n      mload(0x40)\n      shl(0xe5, 0x461bcd)\n      dup2\n      mstore\n        /* \"#utility.yul\":16672:16674   */\n      0x20\n        /* \"@openzeppelin/contracts/security/Pausable.sol\":1828:1866  require(!paused(), \"Pausable: paused\") */\n      0x04\n      dup3\n      add\n        /* \"#utility.yul\":16654:16675   */\n      mstore\n        /* \"#utility.yul\":16711:16713   */\n      0x10\n        /* \"#utility.yul\":16691:16709   */\n      0x24\n      dup3\n      add\n        /* \"#utility.yul\":16684:16714   */\n      mstore\n      shl(0x82, 0x14185d5cd8589b194e881c185d5cd959)\n        /* \"#utility.yul\":16730:16748   */\n      0x44\n      dup3\n      add\n        /* \"#utility.yul\":16723:16769   */\n      mstore\n        /* \"#utility.yul\":16786:16804   */\n      0x64\n      add\n        /* \"@openzeppelin/contracts/security/Pausable.sol\":1828:1866  require(!paused(), \"Pausable: paused\") */\n      tag_347\n        /* \"#utility.yul\":16470:16810   */\n      jump\n        /* \"@openzeppelin/contracts/utils/math/SafeMath.sol\":2755:2851  function add(uint256 a, uint256 b) internal pure returns (uint256) {... */\n    tag_435:\n        /* \"@openzeppelin/contracts/utils/math/SafeMath.sol\":2813:2820  uint256 */\n      0x00\n        /* \"@openzeppelin/contracts/utils/math/SafeMath.sol\":2839:2844  a + b */\n      tag_712\n        /* \"@openzeppelin/contracts/utils/math/SafeMath.sol\":2843:2844  b */\n      dup3\n        /* \"@openzeppelin/contracts/utils/math/SafeMath.sol\":2839:2840  a */\n      dup5\n        /* \"@openzeppelin/contracts/utils/math/SafeMath.sol\":2839:2844  a + b */\n      tag_355\n      jump\t// in\n    tag_712:\n        /* \"@openzeppelin/contracts/utils/math/SafeMath.sol\":2832:2844  return a + b */\n      swap4\n        /* \"@openzeppelin/contracts/utils/math/SafeMath.sol\":2755:2851  function add(uint256 a, uint256 b) internal pure returns (uint256) {... */\n      swap3\n      pop\n      pop\n      pop\n      jump\t// out\n        /* \"@openzeppelin/contracts/access/Ownable.sol\":1796:1958  function _checkOwner() internal view virtual {... */\n    tag_439:\n        /* \"@openzeppelin/contracts/access/Ownable.sol\":1710:1716  _owner */\n      and(sub(shl(0xa0, 0x01), 0x01), sload(0x02))\n        /* \"@openzeppelin/contracts/utils/Context.sol\":735:745  msg.sender */\n      caller\n        /* \"@openzeppelin/contracts/access/Ownable.sol\":1855:1878  owner() != _msgSender() */\n      eq\n        /* \"@openzeppelin/contracts/access/Ownable.sol\":1851:1952  if (owner() != _msgSender()) {... */\n      tag_444\n      jumpi\n        /* \"@openzeppelin/contracts/access/Ownable.sol\":1901:1941  OwnableUnauthorizedAccount(_msgSender()) */\n      mload(0x40)\n      shl(0xe0, 0x118cdaa7)\n      dup2\n      mstore\n        /* \"@openzeppelin/contracts/utils/Context.sol\":735:745  msg.sender */\n      caller\n        /* \"@openzeppelin/contracts/access/Ownable.sol\":1901:1941  OwnableUnauthorizedAccount(_msgSender()) */\n      0x04\n      dup3\n      add\n        /* \"#utility.yul\":3541:3592   */\n      mstore\n        /* \"#utility.yul\":3514:3532   */\n      0x24\n      add\n        /* \"@openzeppelin/contracts/access/Ownable.sol\":1901:1941  OwnableUnauthorizedAccount(_msgSender()) */\n      tag_347\n        /* \"#utility.yul\":3395:3598   */\n      jump\n        /* \"@openzeppelin/contracts/security/Pausable.sol\":2433:2550  function _unpause() internal virtual whenPaused {... */\n    tag_445:\n        /* \"@openzeppelin/contracts/security/Pausable.sol\":1486:1502  _requirePaused() */\n      tag_721\n        /* \"@openzeppelin/contracts/security/Pausable.sol\":1486:1500  _requirePaused */\n      tag_722\n        /* \"@openzeppelin/contracts/security/Pausable.sol\":1486:1502  _requirePaused() */\n      jump\t// in\n    tag_721:\n        /* \"@openzeppelin/contracts/security/Pausable.sol\":2501:2506  false */\n      0x00\n        /* \"@openzeppelin/contracts/security/Pausable.sol\":2491:2506  _paused = false */\n      dup1\n      sload\n      not(0xff)\n      and\n      swap1\n      sstore\n        /* \"@openzeppelin/contracts/security/Pausable.sol\":2521:2543  Unpaused(_msgSender()) */\n      0x5db9ee0a495bf2e6ff9c91a7834c1ba4fdd244a5e8aa4e537bd38aeae4b073aa\n        /* \"@openzeppelin/contracts/utils/Context.sol\":735:745  msg.sender */\n      caller\n        /* \"@openzeppelin/contracts/security/Pausable.sol\":2530:2542  _msgSender() */\n    tag_724:\n        /* \"@openzeppelin/contracts/security/Pausable.sol\":2521:2543  Unpaused(_msgSender()) */\n      mload(0x40)\n      sub(shl(0xa0, 0x01), 0x01)\n        /* \"#utility.yul\":3559:3591   */\n      swap1\n      swap2\n      and\n        /* \"#utility.yul\":3541:3592   */\n      dup2\n      mstore\n        /* \"#utility.yul\":3529:3531   */\n      0x20\n        /* \"#utility.yul\":3514:3532   */\n      add\n        /* \"@openzeppelin/contracts/security/Pausable.sol\":2521:2543  Unpaused(_msgSender()) */\n      mload(0x40)\n      dup1\n      swap2\n      sub\n      swap1\n      log1\n        /* \"@openzeppelin/contracts/security/Pausable.sol\":2433:2550  function _unpause() internal virtual whenPaused {... */\n      jump\t// out\n        /* \"SmartContractsInterview/Token.sol\":11489:12087  function _debase() private whenNotPaused {... */\n    tag_455:\n        /* \"@openzeppelin/contracts/security/Pausable.sol\":1239:1258  _requireNotPaused() */\n      tag_727\n        /* \"@openzeppelin/contracts/security/Pausable.sol\":1239:1256  _requireNotPaused */\n      tag_363\n        /* \"@openzeppelin/contracts/security/Pausable.sol\":1239:1258  _requireNotPaused() */\n      jump\t// in\n    tag_727:\n        /* \"SmartContractsInterview/Token.sol\":11549:11562  uint256 ratio */\n      0x00\n        /* \"SmartContractsInterview/Token.sol\":808:813  10000 */\n      0x2710\n        /* \"SmartContractsInterview/Token.sol\":860:864  1e18 */\n      0x0de0b6b3a7640000\n        /* \"SmartContractsInterview/Token.sol\":11566:11576  debaseRate */\n      sload(0x0d)\n        /* \"SmartContractsInterview/Token.sol\":11566:11593  debaseRate * TOKEN_DECIMALS */\n      tag_729\n      swap2\n      swap1\n      tag_396\n      jump\t// in\n    tag_729:\n        /* \"SmartContractsInterview/Token.sol\":11565:11619  (debaseRate * TOKEN_DECIMALS) / PERCENTAGE_DENOMINATOR */\n      tag_730\n      swap2\n      swap1\n      tag_398\n      jump\t// in\n    tag_730:\n        /* \"SmartContractsInterview/Token.sol\":11549:11619  uint256 ratio = (debaseRate * TOKEN_DECIMALS) / PERCENTAGE_DENOMINATOR */\n      swap1\n      pop\n        /* \"SmartContractsInterview/Token.sol\":11630:11655  uint256 preDebasingSupply */\n      0x00\n        /* \"SmartContractsInterview/Token.sol\":11668:11689  excludeDebasingSupply */\n      sload(0x07)\n        /* \"SmartContractsInterview/Token.sol\":11658:11665  tSupply */\n      sload(0x06)\n        /* \"SmartContractsInterview/Token.sol\":11658:11689  tSupply - excludeDebasingSupply */\n      tag_731\n      swap2\n      swap1\n      tag_387\n      jump\t// in\n    tag_731:\n        /* \"SmartContractsInterview/Token.sol\":11630:11689  uint256 preDebasingSupply = tSupply - excludeDebasingSupply */\n      swap1\n      pop\n        /* \"SmartContractsInterview/Token.sol\":860:864  1e18 */\n      0x0de0b6b3a7640000\n        /* \"SmartContractsInterview/Token.sol\":11756:11778  TOKEN_DECIMALS - ratio */\n      tag_732\n        /* \"SmartContractsInterview/Token.sol\":11773:11778  ratio */\n      dup4\n        /* \"SmartContractsInterview/Token.sol\":860:864  1e18 */\n      dup3\n        /* \"SmartContractsInterview/Token.sol\":11756:11778  TOKEN_DECIMALS - ratio */\n      tag_387\n      jump\t// in\n    tag_732:\n        /* \"SmartContractsInterview/Token.sol\":11734:11752  tokenScalingFactor */\n      sload(0x0e)\n        /* \"SmartContractsInterview/Token.sol\":11734:11779  tokenScalingFactor * (TOKEN_DECIMALS - ratio) */\n      tag_733\n      swap2\n      swap1\n      tag_396\n      jump\t// in\n    tag_733:\n        /* \"SmartContractsInterview/Token.sol\":11733:11809  (tokenScalingFactor * (TOKEN_DECIMALS - ratio)) /... */\n      tag_734\n      swap2\n      swap1\n      tag_398\n      jump\t// in\n    tag_734:\n        /* \"SmartContractsInterview/Token.sol\":11700:11718  tokenScalingFactor */\n      0x0e\n        /* \"SmartContractsInterview/Token.sol\":11700:11809  tokenScalingFactor =... */\n      sstore\n        /* \"SmartContractsInterview/Token.sol\":11819:11841  uint256 debasingSupply */\n      0x00\n        /* \"SmartContractsInterview/Token.sol\":860:864  1e18 */\n      0x0de0b6b3a7640000\n        /* \"SmartContractsInterview/Token.sol\":11878:11900  TOKEN_DECIMALS - ratio */\n      tag_735\n        /* \"SmartContractsInterview/Token.sol\":11895:11900  ratio */\n      dup5\n        /* \"SmartContractsInterview/Token.sol\":860:864  1e18 */\n      dup3\n        /* \"SmartContractsInterview/Token.sol\":11878:11900  TOKEN_DECIMALS - ratio */\n      tag_387\n      jump\t// in\n    tag_735:\n        /* \"SmartContractsInterview/Token.sol\":11845:11901  preDebasingSupply *... */\n      tag_736\n      swap1\n        /* \"SmartContractsInterview/Token.sol\":11845:11862  preDebasingSupply */\n      dup5\n        /* \"SmartContractsInterview/Token.sol\":11845:11901  preDebasingSupply *... */\n      tag_396\n      jump\t// in\n    tag_736:\n        /* \"SmartContractsInterview/Token.sol\":11844:11919  (preDebasingSupply *... */\n      tag_737\n      swap2\n      swap1\n      tag_398\n      jump\t// in\n    tag_737:\n        /* \"SmartContractsInterview/Token.sol\":11819:11919  uint256 debasingSupply = (preDebasingSupply *... */\n      swap1\n      pop\n        /* \"SmartContractsInterview/Token.sol\":11930:11956  uint256 debasedTokenAmount */\n      0x00\n        /* \"SmartContractsInterview/Token.sol\":11959:11993  preDebasingSupply - debasingSupply */\n      tag_738\n        /* \"SmartContractsInterview/Token.sol\":11819:11919  uint256 debasingSupply = (preDebasingSupply *... */\n      dup3\n        /* \"SmartContractsInterview/Token.sol\":11959:11976  preDebasingSupply */\n      dup5\n        /* \"SmartContractsInterview/Token.sol\":11959:11993  preDebasingSupply - debasingSupply */\n      tag_387\n      jump\t// in\n    tag_738:\n        /* \"SmartContractsInterview/Token.sol\":11930:11993  uint256 debasedTokenAmount = preDebasingSupply - debasingSupply */\n      swap1\n      pop\n        /* \"SmartContractsInterview/Token.sol\":12023:12041  debasedTokenAmount */\n      dup1\n        /* \"SmartContractsInterview/Token.sol\":12004:12019  treasuryBalance */\n      0x0a\n      0x00\n        /* \"SmartContractsInterview/Token.sol\":12004:12041  treasuryBalance += debasedTokenAmount */\n      dup3\n      dup3\n      sload\n      tag_739\n      swap2\n      swap1\n      tag_355\n      jump\t// in\n    tag_739:\n      swap3\n      pop\n      pop\n      dup2\n      swap1\n      sstore\n      pop\n        /* \"SmartContractsInterview/Token.sol\":12062:12080  debasedTokenAmount */\n      dup1\n        /* \"SmartContractsInterview/Token.sol\":12051:12058  tSupply */\n      0x06\n      0x00\n        /* \"SmartContractsInterview/Token.sol\":12051:12080  tSupply -= debasedTokenAmount */\n      dup3\n      dup3\n      sload\n      tag_552\n      swap2\n      swap1\n      tag_387\n      jump\t// in\n        /* \"@openzeppelin/contracts/utils/math/SafeMath.sol\":3465:3561  function mul(uint256 a, uint256 b) internal pure returns (uint256) {... */\n    tag_489:\n        /* \"@openzeppelin/contracts/utils/math/SafeMath.sol\":3523:3530  uint256 */\n      0x00\n        /* \"@openzeppelin/contracts/utils/math/SafeMath.sol\":3549:3554  a * b */\n      tag_712\n        /* \"@openzeppelin/contracts/utils/math/SafeMath.sol\":3553:3554  b */\n      dup3\n        /* \"@openzeppelin/contracts/utils/math/SafeMath.sol\":3549:3550  a */\n      dup5\n        /* \"@openzeppelin/contracts/utils/math/SafeMath.sol\":3549:3554  a * b */\n      tag_396\n      jump\t// in\n        /* \"@openzeppelin/contracts/utils/math/SafeMath.sol\":3850:3946  function div(uint256 a, uint256 b) internal pure returns (uint256) {... */\n    tag_490:\n        /* \"@openzeppelin/contracts/utils/math/SafeMath.sol\":3908:3915  uint256 */\n      0x00\n        /* \"@openzeppelin/contracts/utils/math/SafeMath.sol\":3934:3939  a / b */\n      tag_712\n        /* \"@openzeppelin/contracts/utils/math/SafeMath.sol\":3938:3939  b */\n      dup3\n        /* \"@openzeppelin/contracts/utils/math/SafeMath.sol\":3934:3935  a */\n      dup5\n        /* \"@openzeppelin/contracts/utils/math/SafeMath.sol\":3934:3939  a / b */\n      tag_398\n      jump\t// in\n        /* \"@openzeppelin/contracts/access/Ownable.sol\":2912:3099  function _transferOwnership(address newOwner) internal virtual {... */\n    tag_563:\n        /* \"@openzeppelin/contracts/access/Ownable.sol\":3004:3010  _owner */\n      0x02\n      dup1\n      sload\n      sub(shl(0xa0, 0x01), 0x01)\n        /* \"@openzeppelin/contracts/access/Ownable.sol\":3020:3037  _owner = newOwner */\n      dup4\n      dup2\n      and\n      not(sub(shl(0xa0, 0x01), 0x01))\n      dup4\n      and\n      dup2\n      or\n      swap1\n      swap4\n      sstore\n        /* \"@openzeppelin/contracts/access/Ownable.sol\":3052:3092  OwnershipTransferred(oldOwner, newOwner) */\n      mload(0x40)\n        /* \"@openzeppelin/contracts/access/Ownable.sol\":3004:3010  _owner */\n      swap2\n      and\n      swap2\n        /* \"@openzeppelin/contracts/access/Ownable.sol\":3020:3037  _owner = newOwner */\n      swap1\n        /* \"@openzeppelin/contracts/access/Ownable.sol\":3004:3010  _owner */\n      dup3\n      swap1\n        /* \"@openzeppelin/contracts/access/Ownable.sol\":3052:3092  OwnershipTransferred(oldOwner, newOwner) */\n      0x8be0079c531659141344cd1fd0a4f28419497f9722a3daafe3b4186f6b6457e0\n      swap1\n        /* \"@openzeppelin/contracts/access/Ownable.sol\":2985:3001  address oldOwner */\n      0x00\n      swap1\n        /* \"@openzeppelin/contracts/access/Ownable.sol\":3052:3092  OwnershipTransferred(oldOwner, newOwner) */\n      log3\n        /* \"@openzeppelin/contracts/access/Ownable.sol\":2975:3099  {... */\n      pop\n        /* \"@openzeppelin/contracts/access/Ownable.sol\":2912:3099  function _transferOwnership(address newOwner) internal virtual {... */\n      pop\n      jump\t// out\n        /* \"@openzeppelin/contracts/security/Pausable.sol\":2186:2301  function _pause() internal virtual whenNotPaused {... */\n    tag_597:\n        /* \"@openzeppelin/contracts/security/Pausable.sol\":1239:1258  _requireNotPaused() */\n      tag_747\n        /* \"@openzeppelin/contracts/security/Pausable.sol\":1239:1256  _requireNotPaused */\n      tag_363\n        /* \"@openzeppelin/contracts/security/Pausable.sol\":1239:1258  _requireNotPaused() */\n      jump\t// in\n    tag_747:\n        /* \"@openzeppelin/contracts/security/Pausable.sol\":2245:2252  _paused */\n      0x00\n        /* \"@openzeppelin/contracts/security/Pausable.sol\":2245:2259  _paused = true */\n      dup1\n      sload\n      not(0xff)\n      and\n        /* \"@openzeppelin/contracts/security/Pausable.sol\":2255:2259  true */\n      0x01\n        /* \"@openzeppelin/contracts/security/Pausable.sol\":2245:2259  _paused = true */\n      or\n      swap1\n      sstore\n        /* \"@openzeppelin/contracts/security/Pausable.sol\":2274:2294  Paused(_msgSender()) */\n      0x62e78cea01bee320cd4e420270b5ea74000d11b0c9f74754ebdbfc544b05a258\n        /* \"@openzeppelin/contracts/security/Pausable.sol\":2281:2293  _msgSender() */\n      tag_724\n        /* \"@openzeppelin/contracts/utils/Context.sol\":735:745  msg.sender */\n      caller\n      swap1\n        /* \"@openzeppelin/contracts/utils/Context.sol\":656:752  function _msgSender() internal view virtual returns (address) {... */\n      jump\n        /* \"@openzeppelin/contracts/security/ReentrancyGuard.sol\":2336:2623  function _nonReentrantBefore() private {... */\n    tag_634:\n        /* \"@openzeppelin/contracts/security/ReentrancyGuard.sol\":1759:1760  2 */\n      0x02\n        /* \"@openzeppelin/contracts/security/ReentrancyGuard.sol\":2468:2475  _status */\n      sload(0x01)\n        /* \"@openzeppelin/contracts/security/ReentrancyGuard.sol\":2468:2487  _status != _ENTERED */\n      sub\n        /* \"@openzeppelin/contracts/security/ReentrancyGuard.sol\":2460:2523  require(_status != _ENTERED, \"ReentrancyGuard: reentrant call\") */\n      tag_752\n      jumpi\n      mload(0x40)\n      shl(0xe5, 0x461bcd)\n      dup2\n      mstore\n        /* \"#utility.yul\":17017:17019   */\n      0x20\n        /* \"@openzeppelin/contracts/security/ReentrancyGuard.sol\":2460:2523  require(_status != _ENTERED, \"ReentrancyGuard: reentrant call\") */\n      0x04\n      dup3\n      add\n        /* \"#utility.yul\":16999:17020   */\n      mstore\n        /* \"#utility.yul\":17056:17058   */\n      0x1f\n        /* \"#utility.yul\":17036:17054   */\n      0x24\n      dup3\n      add\n        /* \"#utility.yul\":17029:17059   */\n      mstore\n        /* \"#utility.yul\":17095:17128   */\n      0x5265656e7472616e637947756172643a207265656e7472616e742063616c6c00\n        /* \"#utility.yul\":17075:17093   */\n      0x44\n      dup3\n      add\n        /* \"#utility.yul\":17068:17129   */\n      mstore\n        /* \"#utility.yul\":17146:17164   */\n      0x64\n      add\n        /* \"@openzeppelin/contracts/security/ReentrancyGuard.sol\":2460:2523  require(_status != _ENTERED, \"ReentrancyGuard: reentrant call\") */\n      tag_347\n        /* \"#utility.yul\":16815:17170   */\n      jump\n        /* \"@openzeppelin/contracts/security/ReentrancyGuard.sol\":2460:2523  require(_status != _ENTERED, \"ReentrancyGuard: reentrant call\") */\n    tag_752:\n        /* \"@openzeppelin/contracts/security/ReentrancyGuard.sol\":1759:1760  2 */\n      0x02\n        /* \"@openzeppelin/contracts/security/ReentrancyGuard.sol\":2598:2605  _status */\n      0x01\n        /* \"@openzeppelin/contracts/security/ReentrancyGuard.sol\":2598:2616  _status = _ENTERED */\n      sstore\n        /* \"@openzeppelin/contracts/security/ReentrancyGuard.sol\":2336:2623  function _nonReentrantBefore() private {... */\n      jump\t// out\n        /* \"@openzeppelin/contracts/security/Pausable.sol\":1945:2051  function _requirePaused() internal view virtual {... */\n    tag_722:\n        /* \"@openzeppelin/contracts/security/Pausable.sol\":1662:1666  bool */\n      0x00\n        /* \"@openzeppelin/contracts/security/Pausable.sol\":1685:1692  _paused */\n      sload\n      0xff\n      and\n        /* \"@openzeppelin/contracts/security/Pausable.sol\":2003:2044  require(paused(), \"Pausable: not paused\") */\n      tag_444\n      jumpi\n      mload(0x40)\n      shl(0xe5, 0x461bcd)\n      dup2\n      mstore\n        /* \"#utility.yul\":17377:17379   */\n      0x20\n        /* \"@openzeppelin/contracts/security/Pausable.sol\":2003:2044  require(paused(), \"Pausable: not paused\") */\n      0x04\n      dup3\n      add\n        /* \"#utility.yul\":17359:17380   */\n      mstore\n        /* \"#utility.yul\":17416:17418   */\n      0x14\n        /* \"#utility.yul\":17396:17414   */\n      0x24\n      dup3\n      add\n        /* \"#utility.yul\":17389:17419   */\n      mstore\n      shl(0x62, 0x14185d5cd8589b194e881b9bdd081c185d5cd959)\n        /* \"#utility.yul\":17435:17453   */\n      0x44\n      dup3\n      add\n        /* \"#utility.yul\":17428:17478   */\n      mstore\n        /* \"#utility.yul\":17495:17513   */\n      0x64\n      add\n        /* \"@openzeppelin/contracts/security/Pausable.sol\":2003:2044  require(paused(), \"Pausable: not paused\") */\n      tag_347\n        /* \"#utility.yul\":17175:17519   */\n      jump\n        /* \"#utility.yul\":14:303   */\n    tag_762:\n        /* \"#utility.yul\":56:59   */\n      0x00\n        /* \"#utility.yul\":94:99   */\n      dup2\n        /* \"#utility.yul\":88:100   */\n      mload\n        /* \"#utility.yul\":121:127   */\n      dup1\n        /* \"#utility.yul\":116:119   */\n      dup5\n        /* \"#utility.yul\":109:128   */\n      mstore\n        /* \"#utility.yul\":177:183   */\n      dup1\n        /* \"#utility.yul\":170:174   */\n      0x20\n        /* \"#utility.yul\":163:168   */\n      dup5\n        /* \"#utility.yul\":159:175   */\n      add\n        /* \"#utility.yul\":152:156   */\n      0x20\n        /* \"#utility.yul\":147:150   */\n      dup7\n        /* \"#utility.yul\":143:157   */\n      add\n        /* \"#utility.yul\":137:184   */\n      mcopy\n        /* \"#utility.yul\":229:230   */\n      0x00\n        /* \"#utility.yul\":222:226   */\n      0x20\n        /* \"#utility.yul\":213:219   */\n      dup3\n        /* \"#utility.yul\":208:211   */\n      dup7\n        /* \"#utility.yul\":204:220   */\n      add\n        /* \"#utility.yul\":200:227   */\n      add\n        /* \"#utility.yul\":193:231   */\n      mstore\n        /* \"#utility.yul\":292:296   */\n      0x20\n        /* \"#utility.yul\":285:287   */\n      0x1f\n        /* \"#utility.yul\":281:288   */\n      not\n        /* \"#utility.yul\":276:278   */\n      0x1f\n        /* \"#utility.yul\":268:274   */\n      dup4\n        /* \"#utility.yul\":264:279   */\n      add\n        /* \"#utility.yul\":260:289   */\n      and\n        /* \"#utility.yul\":255:258   */\n      dup6\n        /* \"#utility.yul\":251:290   */\n      add\n        /* \"#utility.yul\":247:297   */\n      add\n        /* \"#utility.yul\":240:297   */\n      swap2\n      pop\n      pop\n        /* \"#utility.yul\":14:303   */\n      swap3\n      swap2\n      pop\n      pop\n      jump\t// out\n        /* \"#utility.yul\":308:528   */\n    tag_82:\n        /* \"#utility.yul\":457:459   */\n      0x20\n        /* \"#utility.yul\":446:455   */\n      dup2\n        /* \"#utility.yul\":439:460   */\n      mstore\n        /* \"#utility.yul\":420:424   */\n      0x00\n        /* \"#utility.yul\":477:522   */\n      tag_712\n        /* \"#utility.yul\":518:520   */\n      0x20\n        /* \"#utility.yul\":507:516   */\n      dup4\n        /* \"#utility.yul\":503:521   */\n      add\n        /* \"#utility.yul\":495:501   */\n      dup5\n        /* \"#utility.yul\":477:522   */\n      tag_762\n      jump\t// in\n        /* \"#utility.yul\":533:706   */\n    tag_763:\n        /* \"#utility.yul\":601:621   */\n      dup1\n      calldataload\n      sub(shl(0xa0, 0x01), 0x01)\n        /* \"#utility.yul\":650:681   */\n      dup2\n      and\n        /* \"#utility.yul\":640:682   */\n      dup2\n      eq\n        /* \"#utility.yul\":630:700   */\n      tag_775\n      jumpi\n        /* \"#utility.yul\":696:697   */\n      0x00\n        /* \"#utility.yul\":693:694   */\n      dup1\n        /* \"#utility.yul\":686:698   */\n      revert\n        /* \"#utility.yul\":630:700   */\n    tag_775:\n        /* \"#utility.yul\":533:706   */\n      swap2\n      swap1\n      pop\n      jump\t// out\n        /* \"#utility.yul\":711:1011   */\n    tag_86:\n        /* \"#utility.yul\":779:785   */\n      0x00\n        /* \"#utility.yul\":787:793   */\n      dup1\n        /* \"#utility.yul\":840:842   */\n      0x40\n        /* \"#utility.yul\":828:837   */\n      dup4\n        /* \"#utility.yul\":819:826   */\n      dup6\n        /* \"#utility.yul\":815:838   */\n      sub\n        /* \"#utility.yul\":811:843   */\n      slt\n        /* \"#utility.yul\":808:860   */\n      iszero\n      tag_777\n      jumpi\n        /* \"#utility.yul\":856:857   */\n      0x00\n        /* \"#utility.yul\":853:854   */\n      dup1\n        /* \"#utility.yul\":846:858   */\n      revert\n        /* \"#utility.yul\":808:860   */\n    tag_777:\n        /* \"#utility.yul\":879:908   */\n      tag_778\n        /* \"#utility.yul\":898:907   */\n      dup4\n        /* \"#utility.yul\":879:908   */\n      tag_763\n      jump\t// in\n    tag_778:\n        /* \"#utility.yul\":869:908   */\n      swap5\n        /* \"#utility.yul\":977:979   */\n      0x20\n        /* \"#utility.yul\":962:980   */\n      swap4\n      swap1\n      swap4\n      add\n        /* \"#utility.yul\":949:981   */\n      calldataload\n      swap4\n      pop\n      pop\n      pop\n        /* \"#utility.yul\":711:1011   */\n      jump\t// out\n        /* \"#utility.yul\":1208:1582   */\n    tag_93:\n        /* \"#utility.yul\":1285:1291   */\n      0x00\n        /* \"#utility.yul\":1293:1299   */\n      dup1\n        /* \"#utility.yul\":1301:1307   */\n      0x00\n        /* \"#utility.yul\":1354:1356   */\n      0x60\n        /* \"#utility.yul\":1342:1351   */\n      dup5\n        /* \"#utility.yul\":1333:1340   */\n      dup7\n        /* \"#utility.yul\":1329:1352   */\n      sub\n        /* \"#utility.yul\":1325:1357   */\n      slt\n        /* \"#utility.yul\":1322:1374   */\n      iszero\n      tag_781\n      jumpi\n        /* \"#utility.yul\":1370:1371   */\n      0x00\n        /* \"#utility.yul\":1367:1368   */\n      dup1\n        /* \"#utility.yul\":1360:1372   */\n      revert\n        /* \"#utility.yul\":1322:1374   */\n    tag_781:\n        /* \"#utility.yul\":1393:1422   */\n      tag_782\n        /* \"#utility.yul\":1412:1421   */\n      dup5\n        /* \"#utility.yul\":1393:1422   */\n      tag_763\n      jump\t// in\n    tag_782:\n        /* \"#utility.yul\":1383:1422   */\n      swap3\n      pop\n        /* \"#utility.yul\":1441:1479   */\n      tag_783\n        /* \"#utility.yul\":1475:1477   */\n      0x20\n        /* \"#utility.yul\":1464:1473   */\n      dup6\n        /* \"#utility.yul\":1460:1478   */\n      add\n        /* \"#utility.yul\":1441:1479   */\n      tag_763\n      jump\t// in\n    tag_783:\n        /* \"#utility.yul\":1208:1582   */\n      swap3\n      swap6\n        /* \"#utility.yul\":1431:1479   */\n      swap3\n      swap5\n      pop\n      pop\n      pop\n        /* \"#utility.yul\":1548:1550   */\n      0x40\n        /* \"#utility.yul\":1533:1551   */\n      swap2\n      swap1\n      swap2\n      add\n        /* \"#utility.yul\":1520:1552   */\n      calldataload\n      swap1\n        /* \"#utility.yul\":1208:1582   */\n      jump\t// out\n        /* \"#utility.yul\":1587:1773   */\n    tag_98:\n        /* \"#utility.yul\":1646:1652   */\n      0x00\n        /* \"#utility.yul\":1699:1701   */\n      0x20\n        /* \"#utility.yul\":1687:1696   */\n      dup3\n        /* \"#utility.yul\":1678:1685   */\n      dup5\n        /* \"#utility.yul\":1674:1697   */\n      sub\n        /* \"#utility.yul\":1670:1702   */\n      slt\n        /* \"#utility.yul\":1667:1719   */\n      iszero\n      tag_785\n      jumpi\n        /* \"#utility.yul\":1715:1716   */\n      0x00\n        /* \"#utility.yul\":1712:1713   */\n      dup1\n        /* \"#utility.yul\":1705:1717   */\n      revert\n        /* \"#utility.yul\":1667:1719   */\n    tag_785:\n        /* \"#utility.yul\":1738:1767   */\n      tag_712\n        /* \"#utility.yul\":1757:1766   */\n      dup3\n        /* \"#utility.yul\":1738:1767   */\n      tag_763\n      jump\t// in\n        /* \"#utility.yul\":2149:2309   */\n    tag_764:\n        /* \"#utility.yul\":2214:2234   */\n      dup1\n      calldataload\n        /* \"#utility.yul\":2270:2283   */\n      dup1\n      iszero\n        /* \"#utility.yul\":2263:2284   */\n      iszero\n        /* \"#utility.yul\":2253:2285   */\n      dup2\n      eq\n        /* \"#utility.yul\":2243:2303   */\n      tag_775\n      jumpi\n        /* \"#utility.yul\":2299:2300   */\n      0x00\n        /* \"#utility.yul\":2296:2297   */\n      dup1\n        /* \"#utility.yul\":2289:2301   */\n      revert\n        /* \"#utility.yul\":2314:2568   */\n    tag_131:\n        /* \"#utility.yul\":2379:2385   */\n      0x00\n        /* \"#utility.yul\":2387:2393   */\n      dup1\n        /* \"#utility.yul\":2440:2442   */\n      0x40\n        /* \"#utility.yul\":2428:2437   */\n      dup4\n        /* \"#utility.yul\":2419:2426   */\n      dup6\n        /* \"#utility.yul\":2415:2438   */\n      sub\n        /* \"#utility.yul\":2411:2443   */\n      slt\n        /* \"#utility.yul\":2408:2460   */\n      iszero\n      tag_792\n      jumpi\n        /* \"#utility.yul\":2456:2457   */\n      0x00\n        /* \"#utility.yul\":2453:2454   */\n      dup1\n        /* \"#utility.yul\":2446:2458   */\n      revert\n        /* \"#utility.yul\":2408:2460   */\n    tag_792:\n        /* \"#utility.yul\":2479:2508   */\n      tag_793\n        /* \"#utility.yul\":2498:2507   */\n      dup4\n        /* \"#utility.yul\":2479:2508   */\n      tag_763\n      jump\t// in\n    tag_793:\n        /* \"#utility.yul\":2469:2508   */\n      swap2\n      pop\n        /* \"#utility.yul\":2527:2562   */\n      tag_794\n        /* \"#utility.yul\":2558:2560   */\n      0x20\n        /* \"#utility.yul\":2547:2556   */\n      dup5\n        /* \"#utility.yul\":2543:2561   */\n      add\n        /* \"#utility.yul\":2527:2562   */\n      tag_764\n      jump\t// in\n    tag_794:\n        /* \"#utility.yul\":2517:2562   */\n      swap1\n      pop\n        /* \"#utility.yul\":2314:2568   */\n      swap3\n      pop\n      swap3\n      swap1\n      pop\n      jump\t// out\n        /* \"#utility.yul\":2573:2799   */\n    tag_146:\n        /* \"#utility.yul\":2632:2638   */\n      0x00\n        /* \"#utility.yul\":2685:2687   */\n      0x20\n        /* \"#utility.yul\":2673:2682   */\n      dup3\n        /* \"#utility.yul\":2664:2671   */\n      dup5\n        /* \"#utility.yul\":2660:2683   */\n      sub\n        /* \"#utility.yul\":2656:2688   */\n      slt\n        /* \"#utility.yul\":2653:2705   */\n      iszero\n      tag_796\n      jumpi\n        /* \"#utility.yul\":2701:2702   */\n      0x00\n        /* \"#utility.yul\":2698:2699   */\n      dup1\n        /* \"#utility.yul\":2691:2703   */\n      revert\n        /* \"#utility.yul\":2653:2705   */\n    tag_796:\n      pop\n        /* \"#utility.yul\":2746:2769   */\n      calldataload\n      swap2\n        /* \"#utility.yul\":2573:2799   */\n      swap1\n      pop\n      jump\t// out\n        /* \"#utility.yul\":2804:3390   */\n    tag_158:\n        /* \"#utility.yul\":2874:2880   */\n      0x00\n        /* \"#utility.yul\":2882:2888   */\n      dup1\n        /* \"#utility.yul\":2935:2937   */\n      0x20\n        /* \"#utility.yul\":2923:2932   */\n      dup4\n        /* \"#utility.yul\":2914:2921   */\n      dup6\n        /* \"#utility.yul\":2910:2933   */\n      sub\n        /* \"#utility.yul\":2906:2938   */\n      slt\n        /* \"#utility.yul\":2903:2955   */\n      iszero\n      tag_798\n      jumpi\n        /* \"#utility.yul\":2951:2952   */\n      0x00\n        /* \"#utility.yul\":2948:2949   */\n      dup1\n        /* \"#utility.yul\":2941:2953   */\n      revert\n        /* \"#utility.yul\":2903:2955   */\n    tag_798:\n        /* \"#utility.yul\":2991:3000   */\n      dup3\n        /* \"#utility.yul\":2978:3001   */\n      calldataload\n        /* \"#utility.yul\":3024:3042   */\n      0xffffffffffffffff\n        /* \"#utility.yul\":3016:3022   */\n      dup2\n        /* \"#utility.yul\":3013:3043   */\n      gt\n        /* \"#utility.yul\":3010:3060   */\n      iszero\n      tag_799\n      jumpi\n        /* \"#utility.yul\":3056:3057   */\n      0x00\n        /* \"#utility.yul\":3053:3054   */\n      dup1\n        /* \"#utility.yul\":3046:3058   */\n      revert\n        /* \"#utility.yul\":3010:3060   */\n    tag_799:\n        /* \"#utility.yul\":3079:3101   */\n      dup4\n      add\n        /* \"#utility.yul\":3132:3136   */\n      0x1f\n        /* \"#utility.yul\":3124:3137   */\n      dup2\n      add\n        /* \"#utility.yul\":3120:3147   */\n      dup6\n      sgt\n        /* \"#utility.yul\":3110:3165   */\n      tag_800\n      jumpi\n        /* \"#utility.yul\":3161:3162   */\n      0x00\n        /* \"#utility.yul\":3158:3159   */\n      dup1\n        /* \"#utility.yul\":3151:3163   */\n      revert\n        /* \"#utility.yul\":3110:3165   */\n    tag_800:\n        /* \"#utility.yul\":3201:3203   */\n      dup1\n        /* \"#utility.yul\":3188:3204   */\n      calldataload\n        /* \"#utility.yul\":3227:3245   */\n      0xffffffffffffffff\n        /* \"#utility.yul\":3219:3225   */\n      dup2\n        /* \"#utility.yul\":3216:3246   */\n      gt\n        /* \"#utility.yul\":3213:3263   */\n      iszero\n      tag_801\n      jumpi\n        /* \"#utility.yul\":3259:3260   */\n      0x00\n        /* \"#utility.yul\":3256:3257   */\n      dup1\n        /* \"#utility.yul\":3249:3261   */\n      revert\n        /* \"#utility.yul\":3213:3263   */\n    tag_801:\n        /* \"#utility.yul\":3304:3311   */\n      dup6\n        /* \"#utility.yul\":3299:3301   */\n      0x20\n        /* \"#utility.yul\":3290:3296   */\n      dup3\n        /* \"#utility.yul\":3286:3288   */\n      dup5\n        /* \"#utility.yul\":3282:3297   */\n      add\n        /* \"#utility.yul\":3278:3302   */\n      add\n        /* \"#utility.yul\":3275:3312   */\n      gt\n        /* \"#utility.yul\":3272:3329   */\n      iszero\n      tag_802\n      jumpi\n        /* \"#utility.yul\":3325:3326   */\n      0x00\n        /* \"#utility.yul\":3322:3323   */\n      dup1\n        /* \"#utility.yul\":3315:3327   */\n      revert\n        /* \"#utility.yul\":3272:3329   */\n    tag_802:\n        /* \"#utility.yul\":3356:3358   */\n      0x20\n        /* \"#utility.yul\":3348:3359   */\n      swap2\n      swap1\n      swap2\n      add\n      swap6\n        /* \"#utility.yul\":3378:3384   */\n      swap1\n      swap5\n      pop\n        /* \"#utility.yul\":2804:3390   */\n      swap3\n      pop\n      pop\n      pop\n      jump\t// out\n        /* \"#utility.yul\":3603:3730   */\n    tag_765:\n        /* \"#utility.yul\":3664:3674   */\n      0x4e487b71\n        /* \"#utility.yul\":3659:3662   */\n      0xe0\n        /* \"#utility.yul\":3655:3675   */\n      shl\n        /* \"#utility.yul\":3652:3653   */\n      0x00\n        /* \"#utility.yul\":3645:3676   */\n      mstore\n        /* \"#utility.yul\":3695:3699   */\n      0x41\n        /* \"#utility.yul\":3692:3693   */\n      0x04\n        /* \"#utility.yul\":3685:3700   */\n      mstore\n        /* \"#utility.yul\":3719:3723   */\n      0x24\n        /* \"#utility.yul\":3716:3717   */\n      0x00\n        /* \"#utility.yul\":3709:3724   */\n      revert\n        /* \"#utility.yul\":3735:4010   */\n    tag_766:\n        /* \"#utility.yul\":3806:3808   */\n      0x40\n        /* \"#utility.yul\":3800:3809   */\n      mload\n        /* \"#utility.yul\":3871:3873   */\n      0x1f\n        /* \"#utility.yul\":3852:3865   */\n      dup3\n      add\n      not(0x1f)\n        /* \"#utility.yul\":3848:3875   */\n      and\n        /* \"#utility.yul\":3836:3876   */\n      dup2\n      add\n        /* \"#utility.yul\":3906:3924   */\n      0xffffffffffffffff\n        /* \"#utility.yul\":3891:3925   */\n      dup2\n      gt\n        /* \"#utility.yul\":3927:3949   */\n      dup3\n      dup3\n      lt\n        /* \"#utility.yul\":3888:3950   */\n      or\n        /* \"#utility.yul\":3885:3973   */\n      iszero\n      tag_807\n      jumpi\n        /* \"#utility.yul\":3953:3971   */\n      tag_807\n      tag_765\n      jump\t// in\n    tag_807:\n        /* \"#utility.yul\":3989:3991   */\n      0x40\n        /* \"#utility.yul\":3982:4004   */\n      mstore\n        /* \"#utility.yul\":3735:4010   */\n      swap2\n      swap1\n      pop\n      jump\t// out\n        /* \"#utility.yul\":4015:4198   */\n    tag_767:\n        /* \"#utility.yul\":4075:4079   */\n      0x00\n        /* \"#utility.yul\":4108:4126   */\n      0xffffffffffffffff\n        /* \"#utility.yul\":4100:4106   */\n      dup3\n        /* \"#utility.yul\":4097:4127   */\n      gt\n        /* \"#utility.yul\":4094:4150   */\n      iszero\n      tag_810\n      jumpi\n        /* \"#utility.yul\":4130:4148   */\n      tag_810\n      tag_765\n      jump\t// in\n    tag_810:\n      pop\n        /* \"#utility.yul\":4175:4176   */\n      0x05\n        /* \"#utility.yul\":4171:4185   */\n      shl\n        /* \"#utility.yul\":4187:4191   */\n      0x20\n        /* \"#utility.yul\":4167:4192   */\n      add\n      swap1\n        /* \"#utility.yul\":4015:4198   */\n      jump\t// out\n        /* \"#utility.yul\":4203:4878   */\n    tag_768:\n        /* \"#utility.yul\":4257:4262   */\n      0x00\n        /* \"#utility.yul\":4310:4313   */\n      dup3\n        /* \"#utility.yul\":4303:4307   */\n      0x1f\n        /* \"#utility.yul\":4295:4301   */\n      dup4\n        /* \"#utility.yul\":4291:4308   */\n      add\n        /* \"#utility.yul\":4287:4314   */\n      slt\n        /* \"#utility.yul\":4277:4332   */\n      tag_812\n      jumpi\n        /* \"#utility.yul\":4328:4329   */\n      0x00\n        /* \"#utility.yul\":4325:4326   */\n      dup1\n        /* \"#utility.yul\":4318:4330   */\n      revert\n        /* \"#utility.yul\":4277:4332   */\n    tag_812:\n        /* \"#utility.yul\":4368:4374   */\n      dup2\n        /* \"#utility.yul\":4355:4375   */\n      calldataload\n        /* \"#utility.yul\":4395:4459   */\n      tag_813\n        /* \"#utility.yul\":4411:4458   */\n      tag_814\n        /* \"#utility.yul\":4451:4457   */\n      dup3\n        /* \"#utility.yul\":4411:4458   */\n      tag_767\n      jump\t// in\n    tag_814:\n        /* \"#utility.yul\":4395:4459   */\n      tag_766\n      jump\t// in\n    tag_813:\n        /* \"#utility.yul\":4483:4486   */\n      dup1\n        /* \"#utility.yul\":4507:4513   */\n      dup3\n        /* \"#utility.yul\":4502:4505   */\n      dup3\n        /* \"#utility.yul\":4495:4514   */\n      mstore\n        /* \"#utility.yul\":4539:4543   */\n      0x20\n        /* \"#utility.yul\":4534:4537   */\n      dup3\n        /* \"#utility.yul\":4530:4544   */\n      add\n        /* \"#utility.yul\":4523:4544   */\n      swap2\n      pop\n        /* \"#utility.yul\":4600:4604   */\n      0x20\n        /* \"#utility.yul\":4590:4596   */\n      dup4\n        /* \"#utility.yul\":4587:4588   */\n      0x05\n        /* \"#utility.yul\":4583:4597   */\n      shl\n        /* \"#utility.yul\":4575:4581   */\n      dup7\n        /* \"#utility.yul\":4571:4598   */\n      add\n        /* \"#utility.yul\":4567:4605   */\n      add\n        /* \"#utility.yul\":4553:4605   */\n      swap3\n      pop\n        /* \"#utility.yul\":4628:4631   */\n      dup6\n        /* \"#utility.yul\":4620:4626   */\n      dup4\n        /* \"#utility.yul\":4617:4632   */\n      gt\n        /* \"#utility.yul\":4614:4649   */\n      iszero\n      tag_815\n      jumpi\n        /* \"#utility.yul\":4645:4646   */\n      0x00\n        /* \"#utility.yul\":4642:4643   */\n      dup1\n        /* \"#utility.yul\":4635:4647   */\n      revert\n        /* \"#utility.yul\":4614:4649   */\n    tag_815:\n        /* \"#utility.yul\":4681:4685   */\n      0x20\n        /* \"#utility.yul\":4673:4679   */\n      dup6\n        /* \"#utility.yul\":4669:4686   */\n      add\n        /* \"#utility.yul\":4695:4847   */\n    tag_816:\n        /* \"#utility.yul\":4711:4717   */\n      dup4\n        /* \"#utility.yul\":4706:4709   */\n      dup2\n        /* \"#utility.yul\":4703:4718   */\n      lt\n        /* \"#utility.yul\":4695:4847   */\n      iszero\n      tag_818\n      jumpi\n        /* \"#utility.yul\":4779:4802   */\n      tag_819\n        /* \"#utility.yul\":4798:4801   */\n      dup2\n        /* \"#utility.yul\":4779:4802   */\n      tag_763\n      jump\t// in\n    tag_819:\n        /* \"#utility.yul\":4767:4803   */\n      dup4\n      mstore\n        /* \"#utility.yul\":4832:4836   */\n      0x20\n        /* \"#utility.yul\":4823:4837   */\n      swap3\n      dup4\n      add\n      swap3\n        /* \"#utility.yul\":4728:4742   */\n      add\n        /* \"#utility.yul\":4695:4847   */\n      jump(tag_816)\n    tag_818:\n      pop\n        /* \"#utility.yul\":4865:4872   */\n      swap6\n        /* \"#utility.yul\":4203:4878   */\n      swap5\n      pop\n      pop\n      pop\n      pop\n      pop\n      jump\t// out\n        /* \"#utility.yul\":4883:5299   */\n    tag_204:\n        /* \"#utility.yul\":4973:4979   */\n      0x00\n        /* \"#utility.yul\":4981:4987   */\n      dup1\n        /* \"#utility.yul\":5034:5036   */\n      0x40\n        /* \"#utility.yul\":5022:5031   */\n      dup4\n        /* \"#utility.yul\":5013:5020   */\n      dup6\n        /* \"#utility.yul\":5009:5032   */\n      sub\n        /* \"#utility.yul\":5005:5037   */\n      slt\n        /* \"#utility.yul\":5002:5054   */\n      iszero\n      tag_821\n      jumpi\n        /* \"#utility.yul\":5050:5051   */\n      0x00\n        /* \"#utility.yul\":5047:5048   */\n      dup1\n        /* \"#utility.yul\":5040:5052   */\n      revert\n        /* \"#utility.yul\":5002:5054   */\n    tag_821:\n        /* \"#utility.yul\":5090:5099   */\n      dup3\n        /* \"#utility.yul\":5077:5100   */\n      calldataload\n        /* \"#utility.yul\":5123:5141   */\n      0xffffffffffffffff\n        /* \"#utility.yul\":5115:5121   */\n      dup2\n        /* \"#utility.yul\":5112:5142   */\n      gt\n        /* \"#utility.yul\":5109:5159   */\n      iszero\n      tag_822\n      jumpi\n        /* \"#utility.yul\":5155:5156   */\n      0x00\n        /* \"#utility.yul\":5152:5153   */\n      dup1\n        /* \"#utility.yul\":5145:5157   */\n      revert\n        /* \"#utility.yul\":5109:5159   */\n    tag_822:\n        /* \"#utility.yul\":5178:5239   */\n      tag_823\n        /* \"#utility.yul\":5231:5238   */\n      dup6\n        /* \"#utility.yul\":5222:5228   */\n      dup3\n        /* \"#utility.yul\":5211:5220   */\n      dup7\n        /* \"#utility.yul\":5207:5229   */\n      add\n        /* \"#utility.yul\":5178:5239   */\n      tag_768\n      jump\t// in\n    tag_823:\n        /* \"#utility.yul\":5168:5239   */\n      swap3\n      pop\n      pop\n        /* \"#utility.yul\":5258:5293   */\n      tag_794\n        /* \"#utility.yul\":5289:5291   */\n      0x20\n        /* \"#utility.yul\":5278:5287   */\n      dup5\n        /* \"#utility.yul\":5274:5292   */\n      add\n        /* \"#utility.yul\":5258:5293   */\n      tag_764\n      jump\t// in\n        /* \"#utility.yul\":5304:5603   */\n    tag_211:\n        /* \"#utility.yul\":5487:5493   */\n      dup3\n        /* \"#utility.yul\":5480:5494   */\n      iszero\n        /* \"#utility.yul\":5473:5495   */\n      iszero\n        /* \"#utility.yul\":5462:5471   */\n      dup2\n        /* \"#utility.yul\":5455:5496   */\n      mstore\n        /* \"#utility.yul\":5532:5534   */\n      0x40\n        /* \"#utility.yul\":5527:5529   */\n      0x20\n        /* \"#utility.yul\":5516:5525   */\n      dup3\n        /* \"#utility.yul\":5512:5530   */\n      add\n        /* \"#utility.yul\":5505:5535   */\n      mstore\n        /* \"#utility.yul\":5436:5440   */\n      0x00\n        /* \"#utility.yul\":5552:5597   */\n      tag_826\n        /* \"#utility.yul\":5593:5595   */\n      0x40\n        /* \"#utility.yul\":5582:5591   */\n      dup4\n        /* \"#utility.yul\":5578:5596   */\n      add\n        /* \"#utility.yul\":5570:5576   */\n      dup5\n        /* \"#utility.yul\":5552:5597   */\n      tag_762\n      jump\t// in\n    tag_826:\n        /* \"#utility.yul\":5544:5597   */\n      swap5\n        /* \"#utility.yul\":5304:5603   */\n      swap4\n      pop\n      pop\n      pop\n      pop\n      jump\t// out\n        /* \"#utility.yul\":5608:5908   */\n    tag_286:\n        /* \"#utility.yul\":5676:5682   */\n      0x00\n        /* \"#utility.yul\":5684:5690   */\n      dup1\n        /* \"#utility.yul\":5737:5739   */\n      0x40\n        /* \"#utility.yul\":5725:5734   */\n      dup4\n        /* \"#utility.yul\":5716:5723   */\n      dup6\n        /* \"#utility.yul\":5712:5735   */\n      sub\n        /* \"#utility.yul\":5708:5740   */\n      slt\n        /* \"#utility.yul\":5705:5757   */\n      iszero\n      tag_828\n      jumpi\n        /* \"#utility.yul\":5753:5754   */\n      0x00\n        /* \"#utility.yul\":5750:5751   */\n      dup1\n        /* \"#utility.yul\":5743:5755   */\n      revert\n        /* \"#utility.yul\":5705:5757   */\n    tag_828:\n        /* \"#utility.yul\":5798:5821   */\n      dup3\n      calldataload\n      swap2\n      pop\n        /* \"#utility.yul\":5864:5902   */\n      tag_794\n        /* \"#utility.yul\":5898:5900   */\n      0x20\n        /* \"#utility.yul\":5883:5901   */\n      dup5\n      add\n        /* \"#utility.yul\":5864:5902   */\n      tag_763\n      jump\t// in\n        /* \"#utility.yul\":5913:6173   */\n    tag_317:\n        /* \"#utility.yul\":5981:5987   */\n      0x00\n        /* \"#utility.yul\":5989:5995   */\n      dup1\n        /* \"#utility.yul\":6042:6044   */\n      0x40\n        /* \"#utility.yul\":6030:6039   */\n      dup4\n        /* \"#utility.yul\":6021:6028   */\n      dup6\n        /* \"#utility.yul\":6017:6040   */\n      sub\n        /* \"#utility.yul\":6013:6045   */\n      slt\n        /* \"#utility.yul\":6010:6062   */\n      iszero\n      tag_831\n      jumpi\n        /* \"#utility.yul\":6058:6059   */\n      0x00\n        /* \"#utility.yul\":6055:6056   */\n      dup1\n        /* \"#utility.yul\":6048:6060   */\n      revert\n        /* \"#utility.yul\":6010:6062   */\n    tag_831:\n        /* \"#utility.yul\":6081:6110   */\n      tag_832\n        /* \"#utility.yul\":6100:6109   */\n      dup4\n        /* \"#utility.yul\":6081:6110   */\n      tag_763\n      jump\t// in\n    tag_832:\n        /* \"#utility.yul\":6071:6110   */\n      swap2\n      pop\n        /* \"#utility.yul\":6129:6167   */\n      tag_794\n        /* \"#utility.yul\":6163:6165   */\n      0x20\n        /* \"#utility.yul\":6152:6161   */\n      dup5\n        /* \"#utility.yul\":6148:6166   */\n      add\n        /* \"#utility.yul\":6129:6167   */\n      tag_763\n      jump\t// in\n        /* \"#utility.yul\":6178:7360   */\n    tag_331:\n        /* \"#utility.yul\":6296:6302   */\n      0x00\n        /* \"#utility.yul\":6304:6310   */\n      dup1\n        /* \"#utility.yul\":6357:6359   */\n      0x40\n        /* \"#utility.yul\":6345:6354   */\n      dup4\n        /* \"#utility.yul\":6336:6343   */\n      dup6\n        /* \"#utility.yul\":6332:6355   */\n      sub\n        /* \"#utility.yul\":6328:6360   */\n      slt\n        /* \"#utility.yul\":6325:6377   */\n      iszero\n      tag_835\n      jumpi\n        /* \"#utility.yul\":6373:6374   */\n      0x00\n        /* \"#utility.yul\":6370:6371   */\n      dup1\n        /* \"#utility.yul\":6363:6375   */\n      revert\n        /* \"#utility.yul\":6325:6377   */\n    tag_835:\n        /* \"#utility.yul\":6413:6422   */\n      dup3\n        /* \"#utility.yul\":6400:6423   */\n      calldataload\n        /* \"#utility.yul\":6446:6464   */\n      0xffffffffffffffff\n        /* \"#utility.yul\":6438:6444   */\n      dup2\n        /* \"#utility.yul\":6435:6465   */\n      gt\n        /* \"#utility.yul\":6432:6482   */\n      iszero\n      tag_836\n      jumpi\n        /* \"#utility.yul\":6478:6479   */\n      0x00\n        /* \"#utility.yul\":6475:6476   */\n      dup1\n        /* \"#utility.yul\":6468:6480   */\n      revert\n        /* \"#utility.yul\":6432:6482   */\n    tag_836:\n        /* \"#utility.yul\":6501:6562   */\n      tag_837\n        /* \"#utility.yul\":6554:6561   */\n      dup6\n        /* \"#utility.yul\":6545:6551   */\n      dup3\n        /* \"#utility.yul\":6534:6543   */\n      dup7\n        /* \"#utility.yul\":6530:6552   */\n      add\n        /* \"#utility.yul\":6501:6562   */\n      tag_768\n      jump\t// in\n    tag_837:\n        /* \"#utility.yul\":6491:6562   */\n      swap3\n      pop\n      pop\n        /* \"#utility.yul\":6615:6617   */\n      0x20\n        /* \"#utility.yul\":6604:6613   */\n      dup4\n        /* \"#utility.yul\":6600:6618   */\n      add\n        /* \"#utility.yul\":6587:6619   */\n      calldataload\n        /* \"#utility.yul\":6644:6662   */\n      0xffffffffffffffff\n        /* \"#utility.yul\":6634:6642   */\n      dup2\n        /* \"#utility.yul\":6631:6663   */\n      gt\n        /* \"#utility.yul\":6628:6680   */\n      iszero\n      tag_838\n      jumpi\n        /* \"#utility.yul\":6676:6677   */\n      0x00\n        /* \"#utility.yul\":6673:6674   */\n      dup1\n        /* \"#utility.yul\":6666:6678   */\n      revert\n        /* \"#utility.yul\":6628:6680   */\n    tag_838:\n        /* \"#utility.yul\":6699:6723   */\n      dup4\n      add\n        /* \"#utility.yul\":6754:6758   */\n      0x1f\n        /* \"#utility.yul\":6746:6759   */\n      dup2\n      add\n        /* \"#utility.yul\":6742:6769   */\n      dup6\n      sgt\n        /* \"#utility.yul\":6732:6787   */\n      tag_839\n      jumpi\n        /* \"#utility.yul\":6783:6784   */\n      0x00\n        /* \"#utility.yul\":6780:6781   */\n      dup1\n        /* \"#utility.yul\":6773:6785   */\n      revert\n        /* \"#utility.yul\":6732:6787   */\n    tag_839:\n        /* \"#utility.yul\":6823:6825   */\n      dup1\n        /* \"#utility.yul\":6810:6826   */\n      calldataload\n        /* \"#utility.yul\":6846:6910   */\n      tag_840\n        /* \"#utility.yul\":6862:6909   */\n      tag_814\n        /* \"#utility.yul\":6902:6908   */\n      dup3\n        /* \"#utility.yul\":6862:6909   */\n      tag_767\n      jump\t// in\n        /* \"#utility.yul\":6846:6910   */\n    tag_840:\n        /* \"#utility.yul\":6932:6935   */\n      dup1\n        /* \"#utility.yul\":6956:6962   */\n      dup3\n        /* \"#utility.yul\":6951:6954   */\n      dup3\n        /* \"#utility.yul\":6944:6963   */\n      mstore\n        /* \"#utility.yul\":6988:6990   */\n      0x20\n        /* \"#utility.yul\":6983:6986   */\n      dup3\n        /* \"#utility.yul\":6979:6991   */\n      add\n        /* \"#utility.yul\":6972:6991   */\n      swap2\n      pop\n        /* \"#utility.yul\":7043:7045   */\n      0x20\n        /* \"#utility.yul\":7033:7039   */\n      dup4\n        /* \"#utility.yul\":7030:7031   */\n      0x05\n        /* \"#utility.yul\":7026:7040   */\n      shl\n        /* \"#utility.yul\":7022:7024   */\n      dup6\n        /* \"#utility.yul\":7018:7041   */\n      add\n        /* \"#utility.yul\":7014:7046   */\n      add\n        /* \"#utility.yul\":7000:7046   */\n      swap3\n      pop\n        /* \"#utility.yul\":7069:7076   */\n      dup8\n        /* \"#utility.yul\":7061:7067   */\n      dup4\n        /* \"#utility.yul\":7058:7077   */\n      gt\n        /* \"#utility.yul\":7055:7094   */\n      iszero\n      tag_842\n      jumpi\n        /* \"#utility.yul\":7090:7091   */\n      0x00\n        /* \"#utility.yul\":7087:7088   */\n      dup1\n        /* \"#utility.yul\":7080:7092   */\n      revert\n        /* \"#utility.yul\":7055:7094   */\n    tag_842:\n        /* \"#utility.yul\":7122:7124   */\n      0x20\n        /* \"#utility.yul\":7118:7120   */\n      dup5\n        /* \"#utility.yul\":7114:7125   */\n      add\n        /* \"#utility.yul\":7103:7125   */\n      swap4\n      pop\n        /* \"#utility.yul\":7134:7330   */\n    tag_843:\n        /* \"#utility.yul\":7150:7156   */\n      dup3\n        /* \"#utility.yul\":7145:7148   */\n      dup5\n        /* \"#utility.yul\":7142:7157   */\n      lt\n        /* \"#utility.yul\":7134:7330   */\n      iszero\n      tag_845\n      jumpi\n        /* \"#utility.yul\":7240:7257   */\n      dup4\n      calldataload\n        /* \"#utility.yul\":7270:7288   */\n      dup3\n      mstore\n        /* \"#utility.yul\":7317:7319   */\n      0x20\n        /* \"#utility.yul\":7167:7179   */\n      swap4\n      dup5\n      add\n      swap4\n        /* \"#utility.yul\":7308:7320   */\n      swap1\n      swap2\n      add\n      swap1\n        /* \"#utility.yul\":7134:7330   */\n      jump(tag_843)\n    tag_845:\n        /* \"#utility.yul\":7349:7354   */\n      dup1\n        /* \"#utility.yul\":7339:7354   */\n      swap5\n      pop\n      pop\n      pop\n      pop\n      pop\n        /* \"#utility.yul\":6178:7360   */\n      swap3\n      pop\n      swap3\n      swap1\n      pop\n      jump\t// out\n        /* \"#utility.yul\":7365:7745   */\n    tag_338:\n        /* \"#utility.yul\":7444:7445   */\n      0x01\n        /* \"#utility.yul\":7440:7452   */\n      dup2\n      dup2\n      shr\n      swap1\n        /* \"#utility.yul\":7487:7499   */\n      dup3\n      and\n      dup1\n        /* \"#utility.yul\":7508:7569   */\n      tag_847\n      jumpi\n        /* \"#utility.yul\":7562:7566   */\n      0x7f\n        /* \"#utility.yul\":7554:7560   */\n      dup3\n        /* \"#utility.yul\":7550:7567   */\n      and\n        /* \"#utility.yul\":7540:7567   */\n      swap2\n      pop\n        /* \"#utility.yul\":7508:7569   */\n    tag_847:\n        /* \"#utility.yul\":7615:7617   */\n      0x20\n        /* \"#utility.yul\":7607:7613   */\n      dup3\n        /* \"#utility.yul\":7604:7618   */\n      lt\n        /* \"#utility.yul\":7584:7602   */\n      dup2\n        /* \"#utility.yul\":7581:7619   */\n      sub\n        /* \"#utility.yul\":7578:7739   */\n      tag_848\n      jumpi\n        /* \"#utility.yul\":7661:7671   */\n      0x4e487b71\n        /* \"#utility.yul\":7656:7659   */\n      0xe0\n        /* \"#utility.yul\":7652:7672   */\n      shl\n        /* \"#utility.yul\":7649:7650   */\n      0x00\n        /* \"#utility.yul\":7642:7673   */\n      mstore\n        /* \"#utility.yul\":7696:7700   */\n      0x22\n        /* \"#utility.yul\":7693:7694   */\n      0x04\n        /* \"#utility.yul\":7686:7701   */\n      mstore\n        /* \"#utility.yul\":7724:7728   */\n      0x24\n        /* \"#utility.yul\":7721:7722   */\n      0x00\n        /* \"#utility.yul\":7714:7729   */\n      revert\n        /* \"#utility.yul\":7578:7739   */\n    tag_848:\n      pop\n        /* \"#utility.yul\":7365:7745   */\n      swap2\n      swap1\n      pop\n      jump\t// out\n        /* \"#utility.yul\":8558:8685   */\n    tag_769:\n        /* \"#utility.yul\":8619:8629   */\n      0x4e487b71\n        /* \"#utility.yul\":8614:8617   */\n      0xe0\n        /* \"#utility.yul\":8610:8630   */\n      shl\n        /* \"#utility.yul\":8607:8608   */\n      0x00\n        /* \"#utility.yul\":8600:8631   */\n      mstore\n        /* \"#utility.yul\":8650:8654   */\n      0x11\n        /* \"#utility.yul\":8647:8648   */\n      0x04\n        /* \"#utility.yul\":8640:8655   */\n      mstore\n        /* \"#utility.yul\":8674:8678   */\n      0x24\n        /* \"#utility.yul\":8671:8672   */\n      0x00\n        /* \"#utility.yul\":8664:8679   */\n      revert\n        /* \"#utility.yul\":8690:8815   */\n    tag_355:\n        /* \"#utility.yul\":8755:8764   */\n      dup1\n      dup3\n      add\n        /* \"#utility.yul\":8776:8786   */\n      dup1\n      dup3\n      gt\n        /* \"#utility.yul\":8773:8809   */\n      iszero\n      tag_343\n      jumpi\n        /* \"#utility.yul\":8789:8807   */\n      tag_343\n      tag_769\n      jump\t// in\n        /* \"#utility.yul\":10343:10471   */\n    tag_387:\n        /* \"#utility.yul\":10410:10419   */\n      dup2\n      dup2\n      sub\n        /* \"#utility.yul\":10431:10442   */\n      dup2\n      dup2\n      gt\n        /* \"#utility.yul\":10428:10465   */\n      iszero\n      tag_343\n      jumpi\n        /* \"#utility.yul\":10445:10463   */\n      tag_343\n      tag_769\n      jump\t// in\n        /* \"#utility.yul\":10476:10644   */\n    tag_396:\n        /* \"#utility.yul\":10549:10558   */\n      dup1\n      dup3\n      mul\n        /* \"#utility.yul\":10580:10589   */\n      dup2\n      iszero\n        /* \"#utility.yul\":10597:10612   */\n      dup3\n      dup3\n      div\n        /* \"#utility.yul\":10591:10613   */\n      dup5\n      eq\n        /* \"#utility.yul\":10577:10614   */\n      or\n        /* \"#utility.yul\":10567:10638   */\n      tag_343\n      jumpi\n        /* \"#utility.yul\":10618:10636   */\n      tag_343\n      tag_769\n      jump\t// in\n        /* \"#utility.yul\":10649:10866   */\n    tag_398:\n        /* \"#utility.yul\":10689:10690   */\n      0x00\n        /* \"#utility.yul\":10715:10716   */\n      dup3\n        /* \"#utility.yul\":10705:10837   */\n      tag_866\n      jumpi\n        /* \"#utility.yul\":10759:10769   */\n      0x4e487b71\n        /* \"#utility.yul\":10754:10757   */\n      0xe0\n        /* \"#utility.yul\":10750:10770   */\n      shl\n        /* \"#utility.yul\":10747:10748   */\n      0x00\n        /* \"#utility.yul\":10740:10771   */\n      mstore\n        /* \"#utility.yul\":10794:10798   */\n      0x12\n        /* \"#utility.yul\":10791:10792   */\n      0x04\n        /* \"#utility.yul\":10784:10799   */\n      mstore\n        /* \"#utility.yul\":10822:10826   */\n      0x24\n        /* \"#utility.yul\":10819:10820   */\n      0x00\n        /* \"#utility.yul\":10812:10827   */\n      revert\n        /* \"#utility.yul\":10705:10837   */\n    tag_866:\n      pop\n        /* \"#utility.yul\":10851:10860   */\n      div\n      swap1\n        /* \"#utility.yul\":10649:10866   */\n      jump\t// out\n        /* \"#utility.yul\":13690:13817   */\n    tag_532:\n        /* \"#utility.yul\":13751:13761   */\n      0x4e487b71\n        /* \"#utility.yul\":13746:13749   */\n      0xe0\n        /* \"#utility.yul\":13742:13762   */\n      shl\n        /* \"#utility.yul\":13739:13740   */\n      0x00\n        /* \"#utility.yul\":13732:13763   */\n      mstore\n        /* \"#utility.yul\":13782:13786   */\n      0x32\n        /* \"#utility.yul\":13779:13780   */\n      0x04\n        /* \"#utility.yul\":13772:13787   */\n      mstore\n        /* \"#utility.yul\":13806:13810   */\n      0x24\n        /* \"#utility.yul\":13803:13804   */\n      0x00\n        /* \"#utility.yul\":13796:13811   */\n      revert\n        /* \"#utility.yul\":14996:15407   */\n    tag_592:\n        /* \"#utility.yul\":15198:15200   */\n      0x20\n        /* \"#utility.yul\":15180:15201   */\n      dup1\n      dup3\n      mstore\n        /* \"#utility.yul\":15237:15239   */\n      0x2f\n        /* \"#utility.yul\":15217:15235   */\n      swap1\n      dup3\n      add\n        /* \"#utility.yul\":15210:15240   */\n      mstore\n        /* \"#utility.yul\":15276:15310   */\n      0x526174652073686f756c64206265206c657373207468616e2050455243454e54\n        /* \"#utility.yul\":15271:15273   */\n      0x40\n        /* \"#utility.yul\":15256:15274   */\n      dup3\n      add\n        /* \"#utility.yul\":15249:15311   */\n      mstore\n      shl(0x89, 0x20a3a2afa222a727a6a4a720aa27a9)\n        /* \"#utility.yul\":15342:15344   */\n      0x60\n        /* \"#utility.yul\":15327:15345   */\n      dup3\n      add\n        /* \"#utility.yul\":15320:15365   */\n      mstore\n        /* \"#utility.yul\":15397:15400   */\n      0x80\n        /* \"#utility.yul\":15382:15401   */\n      add\n      swap1\n        /* \"#utility.yul\":14996:15407   */\n      jump\t// out\n    stop\n    data_974d1b4421da69cc60b481194f0dad36a5bb4e23da810da7a7fb30cdba178330 45524332303a207472616e7366657220616d6f756e74206578636565647320616c6c6f77616e6365\n    data_ada389e1fc24a8587c776340efb91b36e675792ab631816100d55df0b5cf3cbc ddf252ad1be2c89b69c2b068fc378daa952ba7f163c4a11628f55a4df523b3ef\n    data_f8b476f7d28209d77d4a4ac1fe36b9f8259aa1bb6bddfa6e89de7e51615cf8a8 45524332303a2064656372656173656420616c6c6f77616e63652062656c6f77207a65726f\n\n    auxdata: 0xa26469706673582212205372ef03b5eb7a4b0db0845b3856162fb806ffa8277192ccfe2519b503eaa89064736f6c634300081a0033\n}\n",
				"bytecode": {
					"linkReferences": {},
					"object": "608060405234801561000f575f80fd5b506040516134a63803806134a683398101604081905261002e91610685565b5f805460ff1916905560018055338061006157604051631e4fbdf760e01b81525f60048201526024015b60405180910390fd5b61006a816101d6565b50600361007788826107ac565b50600461008487826107ac565b50601260055561009c670de0b6b3a76400008661087a565b60068190556007819055612710906100b590606461087a565b6100bf9190610891565b601055600c839055600d829055670de0b6b3a7640000600e5562015180600f555f600a5542601555600b80546001600160a01b0319166001600160a01b03831617905561010d846001610227565b61011884600161032b565b600b5461012f906001600160a01b03166001610227565b600b54610146906001600160a01b0316600161032b565b600654610152906103ab565b6001600160a01b0385165f908152600960205260409020556101726103d8565b836001600160a01b03165f6001600160a01b03167fddf252ad1be2c89b69c2b068fc378daa952ba7f163c4a11628f55a4df523b3ef6006546040516101b991815260200190565b60405180910390a36101ca846103ea565b505050505050506108d6565b600280546001600160a01b038381166001600160a01b0319831681179093556040519116919082907f8be0079c531659141344cd1fd0a4f28419497f9722a3daafe3b4186f6b6457e0905f90a35050565b6001600160a01b03821661027d5760405162461bcd60e51b815260206004820152601a60248201527f4163636f756e742073686f756c646e2774206265207a65726f2e0000000000006044820152606401610058565b6001600160a01b0382165f9081526012602052604081205460ff16906102a284610427565b905082151582151514610325576001600160a01b0384165f908152601260205260409020805460ff1916841515179055811580156102dd5750825b156102fe578060075f8282546102f391906108b0565b909155506103259050565b818015610309575082155b15610325578060075f82825461031f91906108c3565b90915550505b50505050565b6001600160a01b0382166103815760405162461bcd60e51b815260206004820152601a60248201527f4163636f756e742073686f756c646e2774206265207a65726f2e0000000000006044820152606401610058565b6001600160a01b03919091165f908152601360205260409020805460ff1916911515919091179055565b5f6103d2670de0b6b3a76400006103cc8469d3c21bcecceda1000000610486565b90610498565b92915050565b6103e06104a3565b6103e86104d0565b565b6103f26104a3565b6001600160a01b03811661041b57604051631e4fbdf760e01b81525f6004820152602401610058565b610424816101d6565b50565b6001600160a01b0381165f9081526012602052604081205460ff161561046557600b546001600160a01b0390811690831603610465576103d2610529565b6001600160a01b0382165f908152600960205260409020546103d290610564565b5f610491828461087a565b9392505050565b5f6104918284610891565b6002546001600160a01b031633146103e85760405163118cdaa760e01b8152336004820152602401610058565b6104d8610588565b5f805460ff191660011790557f62e78cea01bee320cd4e420270b5ea74000d11b0c9f74754ebdbfc544b05a25861050c3390565b6040516001600160a01b03909116815260200160405180910390a1565b600b546001600160a01b03165f90815260096020526040812054819061054e90610564565b905080600a5461055e91906108b0565b91505090565b5f6103d269d3c21bcecceda10000006103cc600e548561048660201b90919060201c565b5f5460ff16156103e85760405162461bcd60e51b815260206004820152601060248201526f14185d5cd8589b194e881c185d5cd95960821b6044820152606401610058565b634e487b7160e01b5f52604160045260245ffd5b5f82601f8301126105f0575f80fd5b81516001600160401b03811115610609576106096105cd565b604051601f8201601f19908116603f011681016001600160401b0381118282101715610637576106376105cd565b60405281815283820160200185101561064e575f80fd5b8160208501602083015e5f918101602001919091529392505050565b80516001600160a01b0381168114610680575f80fd5b919050565b5f805f805f805f60e0888a03121561069b575f80fd5b87516001600160401b038111156106b0575f80fd5b6106bc8a828b016105e1565b60208a015190985090506001600160401b038111156106d9575f80fd5b6106e58a828b016105e1565b60408a015190975095506106fd90506060890161066a565b608089015160a08a01519195509350915061071a60c0890161066a565b905092959891949750929550565b600181811c9082168061073c57607f821691505b60208210810361075a57634e487b7160e01b5f52602260045260245ffd5b50919050565b601f8211156107a757805f5260205f20601f840160051c810160208510156107855750805b601f840160051c820191505b818110156107a4575f8155600101610791565b50505b505050565b81516001600160401b038111156107c5576107c56105cd565b6107d9816107d38454610728565b84610760565b6020601f82116001811461080b575f83156107f45750848201515b5f19600385901b1c1916600184901b1784556107a4565b5f84815260208120601f198516915b8281101561083a578785015182556020948501946001909201910161081a565b508482101561085757868401515f19600387901b60f8161c191681555b50505050600190811b01905550565b634e487b7160e01b5f52601160045260245ffd5b80820281158282048414176103d2576103d2610866565b5f826108ab57634e487b7160e01b5f52601260045260245ffd5b500490565b808201808211156103d2576103d2610866565b818103818111156103d2576103d2610866565b612bc3806108e35f395ff3fe608060405260043610610374575f3560e01c8063702115dd116101c85780639220d3ed116100fd578063b3cd42541161009d578063df0ab3081161006d578063df0ab30814610a24578063e2ff244014610a43578063e5a5e31814610a57578063f2fde38b14610a76575f80fd5b8063b3cd425414610997578063b4dade59146109ac578063dc90b442146109cb578063dd62ed3e146109e0575f80fd5b80639cc2921c116100d85780639cc2921c1461091d578063a457c2d71461093c578063a6d1b8911461095b578063a9059cbb14610978575f80fd5b80639220d3ed146108ad578063924c2ead146108db57806395d89b4114610909575f80fd5b80638456cb591161016857806389eec0f11161014357806389eec0f11461082e5780638cf66b161461084d5780638da5cb5b1461087b5780638f372fa314610898575f80fd5b80638456cb59146107f1578063874a6ae714610805578063893d20e81461081a575f80fd5b806375c2b13f116101a357806375c2b13f146107755780637819f36f1461079457806379825ede146107b357806381cea332146107d2575f80fd5b8063702115dd1461072357806370a0823114610742578063715018a614610761575f80fd5b80633f3b3b27116102a95780635d70dde611610249578063690d832011610219578063690d8320146106995780636aa3773f146106b85780636c5ed03e146106d75780636e04ff0d146106f6575f80fd5b80635d70dde6146106325780636161eb1814610646578063639f3cc714610665578063685f59de14610684575f80fd5b80634626402b116102845780634626402b146105ab5780634e6ec247146105e25780635b7f415c146106015780635c975abb1461061c575f80fd5b80633f3b3b27146105635780633f4ba83a146105785780634585e33b1461058c575f80fd5b80632ce8bd561161031457806335c85a34116102ef57806335c85a34146104d257806339509351146104f15780633af9e669146105105780633cde0c0f14610544575f80fd5b80632ce8bd561461047d57806330e0789e14610492578063313ce567146104b1575f80fd5b80631658a7001161034f5780631658a700146103f957806318160ddd1461042757806323b872dd1461044957806324024efd14610468575f80fd5b806306fdde031461037f578063095ea7b3146103a9578063104e81ff146103d8575f80fd5b3661037b57005b5f80fd5b34801561038a575f80fd5b50610393610a95565b6040516103a09190612664565b60405180910390f35b3480156103b4575f80fd5b506103c86103c3366004612691565b610b21565b60405190151581526020016103a0565b3480156103e3575f80fd5b506103f76103f23660046126b9565b610b37565b005b348015610404575f80fd5b506103c86104133660046126f3565b60116020525f908152604090205460ff1681565b348015610432575f80fd5b5061043b610c60565b6040519081526020016103a0565b348015610454575f80fd5b506103c86104633660046126b9565b610c76565b348015610473575f80fd5b5061043b600c5481565b348015610488575f80fd5b5061043b600d5481565b34801561049d575f80fd5b506103f76104ac3660046126b9565b610cd8565b3480156104bc575f80fd5b5060055460405160ff90911681526020016103a0565b3480156104dd575f80fd5b506103f76104ec36600461271b565b611252565b3480156104fc575f80fd5b506103c861050b366004612691565b6112d2565b34801561051b575f80fd5b5061043b61052a3660046126f3565b6001600160a01b03165f9081526009602052604090205490565b34801561054f575f80fd5b506103f761055e36600461274c565b611307565b34801561056e575f80fd5b5061043b60155481565b348015610583575f80fd5b506103f7611314565b348015610597575f80fd5b506103f76105a6366004612763565b611326565b3480156105b6575f80fd5b50600b546105ca906001600160a01b031681565b6040516001600160a01b0390911681526020016103a0565b3480156105ed575f80fd5b506103f76105fc366004612691565b61140d565b34801561060c575f80fd5b5061043b670de0b6b3a764000081565b348015610627575f80fd5b505f5460ff166103c8565b34801561063d575f80fd5b506103f7611578565b348015610651575f80fd5b506103f7610660366004612691565b611594565b348015610670575f80fd5b5061043b61067f36600461274c565b6116ef565b34801561068f575f80fd5b5061043b600f5481565b3480156106a4575f80fd5b506103f76106b33660046126f3565b611719565b3480156106c3575f80fd5b506103f76106d2366004612691565b61180c565b3480156106e2575f80fd5b506103f76106f13660046128aa565b611979565b348015610701575f80fd5b50610715610710366004612763565b611a4f565b6040516103a09291906128ec565b34801561072e575f80fd5b506103f761073d36600461271b565b611aa5565b34801561074d575f80fd5b5061043b61075c3660046126f3565b611ba9565b34801561076c575f80fd5b506103f7611c08565b348015610780575f80fd5b506103f761078f36600461271b565b611c19565b34801561079f575f80fd5b506103f76107ae3660046128aa565b611ca1565b3480156107be575f80fd5b506103f76107cd36600461271b565b611cdf565b3480156107dd575f80fd5b506103f76107ec36600461274c565b611d7f565b3480156107fc575f80fd5b506103f7611dae565b348015610810575f80fd5b5061043b60105481565b348015610825575f80fd5b506105ca611dbe565b348015610839575f80fd5b5061043b61084836600461274c565b611dd1565b348015610858575f80fd5b506103c86108673660046126f3565b60136020525f908152604090205460ff1681565b348015610886575f80fd5b506002546001600160a01b03166105ca565b3480156108a3575f80fd5b5061043b60075481565b3480156108b8575f80fd5b506103c86108c73660046126f3565b60146020525f908152604090205460ff1681565b3480156108e6575f80fd5b506103c86108f53660046126f3565b60126020525f908152604090205460ff1681565b348015610914575f80fd5b50610393611df2565b348015610928575f80fd5b506103f761093736600461290e565b611dff565b348015610947575f80fd5b506103c8610956366004612691565b611e72565b348015610966575f80fd5b5061043b69d3c21bcecceda100000081565b348015610983575f80fd5b506103c8610992366004612691565b611ebf565b3480156109a2575f80fd5b5061043b61271081565b3480156109b7575f80fd5b506103f76109c636600461274c565b611ecb565b3480156109d6575f80fd5b5061043b600e5481565b3480156109eb575f80fd5b5061043b6109fa36600461292f565b6001600160a01b039182165f90815260086020908152604080832093909416825291909152205490565b348015610a2f575f80fd5b506103f7610a3e36600461274c565b611efa565b348015610a4e575f80fd5b5061043b611f07565b348015610a62575f80fd5b506103f7610a71366004612957565b611f42565b348015610a81575f80fd5b506103f7610a903660046126f3565b6122e7565b60038054610aa290612a15565b80601f0160208091040260200160405190810160405280929190818152602001828054610ace90612a15565b8015610b195780601f10610af057610100808354040283529160200191610b19565b820191905f5260205f20905b815481529060010190602001808311610afc57829003601f168201915b505050505081565b5f610b2d338484610b37565b5060015b92915050565b6001600160a01b038316610b9e5760405162461bcd60e51b8152602060048201526024808201527f45524332303a20617070726f76652066726f6d20746865207a65726f206164646044820152637265737360e01b60648201526084015b60405180910390fd5b6001600160a01b038216610bff5760405162461bcd60e51b815260206004820152602260248201527f45524332303a20617070726f766520746f20746865207a65726f206164647265604482015261737360f01b6064820152608401610b95565b6001600160a01b038381165f8181526008602090815260408083209487168084529482529182902085905590518481527f8c5be1e5ebec7d5bd14f71427d1e84f3dd0314c0f7b2291e5b200ac8c7c3b92591015b60405180910390a3505050565b5f600a54600654610c719190612a61565b905090565b5f610c82848484610cd8565b610cce84336103f285604051806060016040528060288152602001612b21602891396001600160a01b038a165f9081526008602090815260408083203384529091529020549190612324565b5060019392505050565b610ce061234f565b6001600160a01b038316610d445760405162461bcd60e51b815260206004820152602560248201527f45524332303a207472616e736665722066726f6d20746865207a65726f206164604482015264647265737360d81b6064820152608401610b95565b6001600160a01b038216610da65760405162461bcd60e51b815260206004820152602360248201527f45524332303a207472616e7366657220746f20746865207a65726f206164647260448201526265737360e81b6064820152608401610b95565b80610db084611ba9565b1015610dfe5760405162461bcd60e51b815260206004820152601f60248201527f496e73756666696369656e742046756e647320466f72205472616e73666572006044820152606401610b95565b601054610e0a83611ba9565b10158015610e3057506001600160a01b0382165f9081526013602052604090205460ff16155b15610e7d5760405162461bcd60e51b815260206004820152601860248201527f486f6c64696e6720546f6b656e732065786365656465642100000000000000006044820152606401610b95565b6001600160a01b0382165f90815260136020526040902054819060ff16158015610ebb575060105481610eaf85611ba9565b610eb99190612a61565b115b15610eee5760105481610ecd85611ba9565b610ed79190612a61565b610ee19190612a74565b610eeb9082612a74565b90505b5f610ef882611dd1565b6001600160a01b0386165f9081526012602052604090205490915060ff1615610f2757610f2482611dd1565b90505b5f610f3a6002546001600160a01b031690565b6001600160a01b0316866001600160a01b031614158015610f7257506001600160a01b0385165f9081526011602052604090205460ff165b15610f9557612710600c5484610f889190612a87565b610f929190612a9e565b90505b5f610fa08285612a74565b90505f610fac82611dd1565b6001600160a01b0388165f908152601260205260408120549192509060ff16610fd55781610fde565b610fde83611dd1565b6001600160a01b038a165f9081526009602052604081208054929350879290919061100a908490612a74565b90915550506001600160a01b0388165f9081526012602052604090205460ff1615611061576001600160a01b0388165f9081526009602052604081208054839290611056908490612a61565b9091555061108e9050565b6001600160a01b0388165f9081526009602052604081208054849290611088908490612a61565b90915550505b83600a5f82825461109f9190612a61565b925050819055508360065f8282546110b79190612a74565b92505081905550876001600160a01b0316896001600160a01b03165f80516020612b49833981519152856040516110f091815260200190565b60405180910390a3831561113157600b546040518581526001600160a01b03918216918b16905f80516020612b498339815191529060200160405180910390a35b6001600160a01b0389165f9081526012602052604090205460ff1615801561117057506001600160a01b0388165f9081526012602052604090205460ff165b15611191578260075f8282546111869190612a61565b909155506112269050565b6001600160a01b0389165f9081526012602052604090205460ff1680156111d057506001600160a01b0388165f9081526012602052604090205460ff16155b156111e6578260075f8282546111869190612a74565b6001600160a01b0389165f9081526012602052604090205460ff16801561122457506001600160a01b0388165f9081526012602052604090205460ff165b505b600a541561124757600a54600b5461124791906001600160a01b0316611dff565b505050505050505050565b6001600160a01b0382166112a85760405162461bcd60e51b815260206004820152601a60248201527f4163636f756e742073686f756c646e2774206265207a65726f2e0000000000006044820152606401610b95565b6001600160a01b03919091165f908152601360205260409020805460ff1916911515919091179055565b335f8181526008602090815260408083206001600160a01b03871684529091528120549091610b2d9185906103f29086612394565b61130f6123a6565b601055565b61131c6123a6565b6113246123d3565b565b600f546015546113369042612a74565b116113835760405162461bcd60e51b815260206004820152601e60248201527f4b656570557020726571756972656d656e74206973206e6f74206d65742100006044820152606401610b95565b60075460065410156113fd5760405162461bcd60e51b815260206004820152603e60248201527f74537570706c79206d7573742062652067726561746572207468616e206f722060448201527f657175616c20746f206578636c7564654465626173696e67537570706c7900006064820152608401610b95565b611405612424565b505042601555565b6001600160a01b0382166114635760405162461bcd60e51b815260206004820152601f60248201527f45524332303a206d696e7420746f20746865207a65726f2061646472657373006044820152606401610b95565b8060065f8282546114749190612a61565b909155505f905061148482611dd1565b6001600160a01b0384165f9081526012602052604090205490915060ff16156114ca578160075f8282546114b89190612a61565b909155506114c7905082611dd1565b90505b6001600160a01b0383165f90815260096020526040812080548392906114f1908490612a61565b90915550506040518281526001600160a01b038416907f0f6798a560793a54c3bcfe86a93cde1e73087d944c0ea20544137d41213968859060200160405180910390a2600b546001600160a01b03848116911614611573576040518281526001600160a01b038416905f905f80516020612b4983398151915290602001610c53565b505050565b6115806123a6565b42601554111561158e575f80fd5b42601555565b6001600160a01b0382166115f45760405162461bcd60e51b815260206004820152602160248201527f45524332303a206275726e2066726f6d20746865207a65726f206164647265736044820152607360f81b6064820152608401610b95565b8060065f8282546116059190612a74565b909155505f905061161582611dd1565b6001600160a01b0384165f9081526012602052604090205490915060ff161561165b578160075f8282546116499190612a74565b90915550611658905082611dd1565b90505b6001600160a01b0383165f9081526009602052604081208054839290611682908490612a74565b90915550506040518281526001600160a01b038416907fcc16f5dbb4873280815c1ee09dbd06736cffcc184412cf7a71a0fdb75d397ca59060200160405180910390a26040518281525f906001600160a01b038516905f80516020612b4983398151915290602001610c53565b5f610b3169d3c21bcecceda1000000611713600e54856124f290919063ffffffff16565b906124fd565b6117216123a6565b6001600160a01b0381166117775760405162461bcd60e51b815260206004820152601d60248201527f496e76616c696420616464726573733a207a65726f20616464726573730000006044820152606401610b95565b5f816001600160a01b0316476040515f6040518083038185875af1925050503d805f81146117c0576040519150601f19603f3d011682016040523d82523d5f602084013e6117c5565b606091505b50509050806118085760405162461bcd60e51b815260206004820152600f60248201526e151c985b9cd9995c8811985a5b1959608a1b6044820152606401610b95565b5050565b61181461234f565b335f9081526014602052604090205460ff168061183b57506002546001600160a01b031633145b611843575f80fd5b600a541561186457600a54600b5461186491906001600160a01b0316611dff565b6001600160a01b0382165f9081526012602052604090205460ff16156118bf5761188d81611dd1565b6001600160a01b0383165f90815260096020526040812080549091906118b4908490612a61565b9091555061190d9050565b6118c881611dd1565b6001600160a01b0383165f90815260096020526040812080549091906118ef908490612a61565b925050819055508060075f8282546119079190612a74565b90915550505b61191681611dd1565b600b546001600160a01b03165f908152600960205260408120805490919061193f908490612a74565b9091555050600b546040518281526001600160a01b038481169216905f80516020612b498339815191529060200160405180910390a35050565b6119816123a6565b5f5b825181101561157357600b5483516001600160a01b03909116908490839081106119af576119af612abd565b60200260200101516001600160a01b031603611a245760405162461bcd60e51b815260206004820152602e60248201527f54726561737572792077616c6c65742063616e6e6f7420626520696e636c756460448201526d656420696e206465626173696e6760901b6064820152608401610b95565b611a47838281518110611a3957611a39612abd565b602002602001015183611aa5565b600101611983565b5f6060600f5460155442611a639190612a74565b11915083838080601f0160208091040260200160405190810160405280939291908181526020018383808284375f920191909152509293505050509250929050565b6001600160a01b038216611afb5760405162461bcd60e51b815260206004820152601a60248201527f4163636f756e742073686f756c646e2774206265207a65726f2e0000000000006044820152606401610b95565b6001600160a01b0382165f9081526012602052604081205460ff1690611b2084611ba9565b905082151582151514611ba3576001600160a01b0384165f908152601260205260409020805460ff191684151517905581158015611b5b5750825b15611b7c578060075f828254611b719190612a61565b90915550611ba39050565b818015611b87575082155b15611ba3578060075f828254611b9d9190612a74565b90915550505b50505050565b6001600160a01b0381165f9081526012602052604081205460ff1615611be757600b546001600160a01b0390811690831603611be757610b31611f07565b6001600160a01b0382165f90815260096020526040902054610b31906116ef565b611c106123a6565b6113245f612508565b611c216123a6565b6001600160a01b038216611c775760405162461bcd60e51b815260206004820152601b60248201527f4f70657261746f722073686f756c646e2774206265207a65726f2e00000000006044820152606401610b95565b6001600160a01b03919091165f908152601460205260409020805460ff1916911515919091179055565b611ca96123a6565b5f5b825181101561157357611cd7838281518110611cc957611cc9612abd565b602002602001015183611252565b600101611cab565b611ce76123a6565b6001600160a01b038216611d485760405162461bcd60e51b815260206004820152602260248201527f4c5020506f6f6c20616464726573732073686f756c646e2774206265207a65726044820152616f2160f01b6064820152608401610b95565b6001600160a01b0382165f908152601160205260409020805460ff1916821515179055611d758282611aa5565b6118088282611252565b611d876123a6565b612710811115611da95760405162461bcd60e51b8152600401610b9590612ad1565b600d55565b611db66123a6565b611324612559565b5f610c716002546001600160a01b031690565b5f610b31670de0b6b3a76400006117138469d3c21bcecceda10000006124f2565b60048054610aa290612a15565b81600a541015611e515760405162461bcd60e51b815260206004820152601d60248201527f496e73756666696369656e742042616c616e636520746f20636c61696d0000006044820152606401610b95565b81600a5f828254611e629190612a74565b909155506118089050818361140d565b5f610b2d33846103f285604051806060016040528060258152602001612b6960259139335f9081526008602090815260408083206001600160a01b038d1684529091529020549190612324565b5f610b2d338484610cd8565b611ed36123a6565b611388811115611ef55760405162461bcd60e51b8152600401610b9590612ad1565b600c55565b611f026123a6565b600f55565b600b546001600160a01b03165f908152600960205260408120548190611f2c906116ef565b905080600a54611f3c9190612a61565b91505090565b611f4a612595565b611f5261234f565b8051825114611f9c5760405162461bcd60e51b8152602060048201526016602482015275082e4e4c2f2e640d8cadccee8d040dad2e6dac2e8c6d60531b6044820152606401610b95565b5f805b8251811015611fd757828181518110611fba57611fba612abd565b602002602001015182611fcd9190612a61565b9150600101611f9f565b5080611fe233611ba9565b10156120275760405162461bcd60e51b8152602060048201526014602482015273496e73756666696369656e742062616c616e636560601b6044820152606401610b95565b5f5b83518110156122dc5782818151811061204457612044612abd565b602002602001015161205533611ba9565b11156122d457335f9081526012602052604090205460ff16156120ee5761209483828151811061208757612087612abd565b6020026020010151611dd1565b335f90815260096020526040812080549091906120b2908490612a74565b925050819055508281815181106120cb576120cb612abd565b602002602001015160075f8282546120e39190612a74565b909155506121279050565b61210383828151811061208757612087612abd565b335f9081526009602052604081208054909190612121908490612a74565b90915550505b60125f85838151811061213c5761213c612abd565b6020908102919091018101516001600160a01b031682528101919091526040015f205460ff16156122025761217c83828151811061208757612087612abd565b60095f86848151811061219157612191612abd565b60200260200101516001600160a01b03166001600160a01b031681526020019081526020015f205f8282546121c69190612a61565b925050819055508281815181106121df576121df612abd565b602002602001015160075f8282546121f79190612a61565b909155506122679050565b61221783828151811061208757612087612abd565b60095f86848151811061222c5761222c612abd565b60200260200101516001600160a01b03166001600160a01b031681526020019081526020015f205f8282546122619190612a61565b90915550505b83818151811061227957612279612abd565b60200260200101516001600160a01b0316336001600160a01b03165f80516020612b498339815191528584815181106122b4576122b4612abd565b60200260200101516040516122cb91815260200190565b60405180910390a35b600101612029565b505061180860018055565b6122ef6123a6565b6001600160a01b03811661231857604051631e4fbdf760e01b81525f6004820152602401610b95565b61232181612508565b50565b5f81848411156123475760405162461bcd60e51b8152600401610b959190612664565b505050900390565b5f5460ff16156113245760405162461bcd60e51b815260206004820152601060248201526f14185d5cd8589b194e881c185d5cd95960821b6044820152606401610b95565b5f61239f8284612a61565b9392505050565b6002546001600160a01b031633146113245760405163118cdaa760e01b8152336004820152602401610b95565b6123db6125ee565b5f805460ff191690557f5db9ee0a495bf2e6ff9c91a7834c1ba4fdd244a5e8aa4e537bd38aeae4b073aa335b6040516001600160a01b03909116815260200160405180910390a1565b61242c61234f565b5f612710670de0b6b3a7640000600d546124469190612a87565b6124509190612a9e565b90505f6007546006546124639190612a74565b9050670de0b6b3a76400006124788382612a74565b600e546124859190612a87565b61248f9190612a9e565b600e555f670de0b6b3a76400006124a68482612a74565b6124b09084612a87565b6124ba9190612a9e565b90505f6124c78284612a74565b905080600a5f8282546124da9190612a61565b925050819055508060065f828254611b9d9190612a74565b5f61239f8284612a87565b5f61239f8284612a9e565b600280546001600160a01b038381166001600160a01b0319831681179093556040519116919082907f8be0079c531659141344cd1fd0a4f28419497f9722a3daafe3b4186f6b6457e0905f90a35050565b61256161234f565b5f805460ff191660011790557f62e78cea01bee320cd4e420270b5ea74000d11b0c9f74754ebdbfc544b05a2586124073390565b6002600154036125e75760405162461bcd60e51b815260206004820152601f60248201527f5265656e7472616e637947756172643a207265656e7472616e742063616c6c006044820152606401610b95565b6002600155565b5f5460ff166113245760405162461bcd60e51b815260206004820152601460248201527314185d5cd8589b194e881b9bdd081c185d5cd95960621b6044820152606401610b95565b5f81518084528060208401602086015e5f602082860101526020601f19601f83011685010191505092915050565b602081525f61239f6020830184612636565b80356001600160a01b038116811461268c575f80fd5b919050565b5f80604083850312156126a2575f80fd5b6126ab83612676565b946020939093013593505050565b5f805f606084860312156126cb575f80fd5b6126d484612676565b92506126e260208501612676565b929592945050506040919091013590565b5f60208284031215612703575f80fd5b61239f82612676565b8035801515811461268c575f80fd5b5f806040838503121561272c575f80fd5b61273583612676565b91506127436020840161270c565b90509250929050565b5f6020828403121561275c575f80fd5b5035919050565b5f8060208385031215612774575f80fd5b823567ffffffffffffffff81111561278a575f80fd5b8301601f8101851361279a575f80fd5b803567ffffffffffffffff8111156127b0575f80fd5b8560208284010111156127c1575f80fd5b6020919091019590945092505050565b634e487b7160e01b5f52604160045260245ffd5b604051601f8201601f1916810167ffffffffffffffff8111828210171561280e5761280e6127d1565b604052919050565b5f67ffffffffffffffff82111561282f5761282f6127d1565b5060051b60200190565b5f82601f830112612848575f80fd5b813561285b61285682612816565b6127e5565b8082825260208201915060208360051b86010192508583111561287c575f80fd5b602085015b838110156128a05761289281612676565b835260209283019201612881565b5095945050505050565b5f80604083850312156128bb575f80fd5b823567ffffffffffffffff8111156128d1575f80fd5b6128dd85828601612839565b9250506127436020840161270c565b8215158152604060208201525f6129066040830184612636565b949350505050565b5f806040838503121561291f575f80fd5b8235915061274360208401612676565b5f8060408385031215612940575f80fd5b61294983612676565b915061274360208401612676565b5f8060408385031215612968575f80fd5b823567ffffffffffffffff81111561297e575f80fd5b61298a85828601612839565b925050602083013567ffffffffffffffff8111156129a6575f80fd5b8301601f810185136129b6575f80fd5b80356129c461285682612816565b8082825260208201915060208360051b8501019250878311156129e5575f80fd5b6020840193505b82841015612a075783358252602093840193909101906129ec565b809450505050509250929050565b600181811c90821680612a2957607f821691505b602082108103612a4757634e487b7160e01b5f52602260045260245ffd5b50919050565b634e487b7160e01b5f52601160045260245ffd5b80820180821115610b3157610b31612a4d565b81810381811115610b3157610b31612a4d565b8082028115828204841417610b3157610b31612a4d565b5f82612ab857634e487b7160e01b5f52601260045260245ffd5b500490565b634e487b7160e01b5f52603260045260245ffd5b6020808252602f908201527f526174652073686f756c64206265206c657373207468616e2050455243454e5460408201526e20a3a2afa222a727a6a4a720aa27a960891b60608201526080019056fe45524332303a207472616e7366657220616d6f756e74206578636565647320616c6c6f77616e6365ddf252ad1be2c89b69c2b068fc378daa952ba7f163c4a11628f55a4df523b3ef45524332303a2064656372656173656420616c6c6f77616e63652062656c6f77207a65726fa26469706673582212205372ef03b5eb7a4b0db0845b3856162fb806ffa8277192ccfe2519b503eaa89064736f6c634300081a0033",
					"opcodes": "PUSH1 0x80 PUSH1 0x40 MSTORE CALLVALUE DUP1 ISZERO PUSH2 0xF JUMPI PUSH0 DUP1 REVERT JUMPDEST POP PUSH1 0x40 MLOAD PUSH2 0x34A6 CODESIZE SUB DUP1 PUSH2 0x34A6 DUP4 CODECOPY DUP2 ADD PUSH1 0x40 DUP2 SWAP1 MSTORE PUSH2 0x2E SWAP2 PUSH2 0x685 JUMP JUMPDEST PUSH0 DUP1 SLOAD PUSH1 0xFF NOT AND SWAP1 SSTORE PUSH1 0x1 DUP1 SSTORE CALLER DUP1 PUSH2 0x61 JUMPI PUSH1 0x40 MLOAD PUSH4 0x1E4FBDF7 PUSH1 0xE0 SHL DUP2 MSTORE PUSH0 PUSH1 0x4 DUP3 ADD MSTORE PUSH1 0x24 ADD JUMPDEST PUSH1 0x40 MLOAD DUP1 SWAP2 SUB SWAP1 REVERT JUMPDEST PUSH2 0x6A DUP2 PUSH2 0x1D6 JUMP JUMPDEST POP PUSH1 0x3 PUSH2 0x77 DUP9 DUP3 PUSH2 0x7AC JUMP JUMPDEST POP PUSH1 0x4 PUSH2 0x84 DUP8 DUP3 PUSH2 0x7AC JUMP JUMPDEST POP PUSH1 0x12 PUSH1 0x5 SSTORE PUSH2 0x9C PUSH8 0xDE0B6B3A7640000 DUP7 PUSH2 0x87A JUMP JUMPDEST PUSH1 0x6 DUP2 SWAP1 SSTORE PUSH1 0x7 DUP2 SWAP1 SSTORE PUSH2 0x2710 SWAP1 PUSH2 0xB5 SWAP1 PUSH1 0x64 PUSH2 0x87A JUMP JUMPDEST PUSH2 0xBF SWAP2 SWAP1 PUSH2 0x891 JUMP JUMPDEST PUSH1 0x10 SSTORE PUSH1 0xC DUP4 SWAP1 SSTORE PUSH1 0xD DUP3 SWAP1 SSTORE PUSH8 0xDE0B6B3A7640000 PUSH1 0xE SSTORE PUSH3 0x15180 PUSH1 0xF SSTORE PUSH0 PUSH1 0xA SSTORE TIMESTAMP PUSH1 0x15 SSTORE PUSH1 0xB DUP1 SLOAD PUSH1 0x1 PUSH1 0x1 PUSH1 0xA0 SHL SUB NOT AND PUSH1 0x1 PUSH1 0x1 PUSH1 0xA0 SHL SUB DUP4 AND OR SWAP1 SSTORE PUSH2 0x10D DUP5 PUSH1 0x1 PUSH2 0x227 JUMP JUMPDEST PUSH2 0x118 DUP5 PUSH1 0x1 PUSH2 0x32B JUMP JUMPDEST PUSH1 0xB SLOAD PUSH2 0x12F SWAP1 PUSH1 0x1 PUSH1 0x1 PUSH1 0xA0 SHL SUB AND PUSH1 0x1 PUSH2 0x227 JUMP JUMPDEST PUSH1 0xB SLOAD PUSH2 0x146 SWAP1 PUSH1 0x1 PUSH1 0x1 PUSH1 0xA0 SHL SUB AND PUSH1 0x1 PUSH2 0x32B JUMP JUMPDEST PUSH1 0x6 SLOAD PUSH2 0x152 SWAP1 PUSH2 0x3AB JUMP JUMPDEST PUSH1 0x1 PUSH1 0x1 PUSH1 0xA0 SHL SUB DUP6 AND PUSH0 SWAP1 DUP2 MSTORE PUSH1 0x9 PUSH1 0x20 MSTORE PUSH1 0x40 SWAP1 KECCAK256 SSTORE PUSH2 0x172 PUSH2 0x3D8 JUMP JUMPDEST DUP4 PUSH1 0x1 PUSH1 0x1 PUSH1 0xA0 SHL SUB AND PUSH0 PUSH1 0x1 PUSH1 0x1 PUSH1 0xA0 SHL SUB AND PUSH32 0xDDF252AD1BE2C89B69C2B068FC378DAA952BA7F163C4A11628F55A4DF523B3EF PUSH1 0x6 SLOAD PUSH1 0x40 MLOAD PUSH2 0x1B9 SWAP2 DUP2 MSTORE PUSH1 0x20 ADD SWAP1 JUMP JUMPDEST PUSH1 0x40 MLOAD DUP1 SWAP2 SUB SWAP1 LOG3 PUSH2 0x1CA DUP5 PUSH2 0x3EA JUMP JUMPDEST POP POP POP POP POP POP POP PUSH2 0x8D6 JUMP JUMPDEST PUSH1 0x2 DUP1 SLOAD PUSH1 0x1 PUSH1 0x1 PUSH1 0xA0 SHL SUB DUP4 DUP2 AND PUSH1 0x1 PUSH1 0x1 PUSH1 0xA0 SHL SUB NOT DUP4 AND DUP2 OR SWAP1 SWAP4 SSTORE PUSH1 0x40 MLOAD SWAP2 AND SWAP2 SWAP1 DUP3 SWAP1 PUSH32 0x8BE0079C531659141344CD1FD0A4F28419497F9722A3DAAFE3B4186F6B6457E0 SWAP1 PUSH0 SWAP1 LOG3 POP POP JUMP JUMPDEST PUSH1 0x1 PUSH1 0x1 PUSH1 0xA0 SHL SUB DUP3 AND PUSH2 0x27D JUMPI PUSH1 0x40 MLOAD PUSH3 0x461BCD PUSH1 0xE5 SHL DUP2 MSTORE PUSH1 0x20 PUSH1 0x4 DUP3 ADD MSTORE PUSH1 0x1A PUSH1 0x24 DUP3 ADD MSTORE PUSH32 0x4163636F756E742073686F756C646E2774206265207A65726F2E000000000000 PUSH1 0x44 DUP3 ADD MSTORE PUSH1 0x64 ADD PUSH2 0x58 JUMP JUMPDEST PUSH1 0x1 PUSH1 0x1 PUSH1 0xA0 SHL SUB DUP3 AND PUSH0 SWAP1 DUP2 MSTORE PUSH1 0x12 PUSH1 0x20 MSTORE PUSH1 0x40 DUP2 KECCAK256 SLOAD PUSH1 0xFF AND SWAP1 PUSH2 0x2A2 DUP5 PUSH2 0x427 JUMP JUMPDEST SWAP1 POP DUP3 ISZERO ISZERO DUP3 ISZERO ISZERO EQ PUSH2 0x325 JUMPI PUSH1 0x1 PUSH1 0x1 PUSH1 0xA0 SHL SUB DUP5 AND PUSH0 SWAP1 DUP2 MSTORE PUSH1 0x12 PUSH1 0x20 MSTORE PUSH1 0x40 SWAP1 KECCAK256 DUP1 SLOAD PUSH1 0xFF NOT AND DUP5 ISZERO ISZERO OR SWAP1 SSTORE DUP2 ISZERO DUP1 ISZERO PUSH2 0x2DD JUMPI POP DUP3 JUMPDEST ISZERO PUSH2 0x2FE JUMPI DUP1 PUSH1 0x7 PUSH0 DUP3 DUP3 SLOAD PUSH2 0x2F3 SWAP2 SWAP1 PUSH2 0x8B0 JUMP JUMPDEST SWAP1 SWAP2 SSTORE POP PUSH2 0x325 SWAP1 POP JUMP JUMPDEST DUP2 DUP1 ISZERO PUSH2 0x309 JUMPI POP DUP3 ISZERO JUMPDEST ISZERO PUSH2 0x325 JUMPI DUP1 PUSH1 0x7 PUSH0 DUP3 DUP3 SLOAD PUSH2 0x31F SWAP2 SWAP1 PUSH2 0x8C3 JUMP JUMPDEST SWAP1 SWAP2 SSTORE POP POP JUMPDEST POP POP POP POP JUMP JUMPDEST PUSH1 0x1 PUSH1 0x1 PUSH1 0xA0 SHL SUB DUP3 AND PUSH2 0x381 JUMPI PUSH1 0x40 MLOAD PUSH3 0x461BCD PUSH1 0xE5 SHL DUP2 MSTORE PUSH1 0x20 PUSH1 0x4 DUP3 ADD MSTORE PUSH1 0x1A PUSH1 0x24 DUP3 ADD MSTORE PUSH32 0x4163636F756E742073686F756C646E2774206265207A65726F2E000000000000 PUSH1 0x44 DUP3 ADD MSTORE PUSH1 0x64 ADD PUSH2 0x58 JUMP JUMPDEST PUSH1 0x1 PUSH1 0x1 PUSH1 0xA0 SHL SUB SWAP2 SWAP1 SWAP2 AND PUSH0 SWAP1 DUP2 MSTORE PUSH1 0x13 PUSH1 0x20 MSTORE PUSH1 0x40 SWAP1 KECCAK256 DUP1 SLOAD PUSH1 0xFF NOT AND SWAP2 ISZERO ISZERO SWAP2 SWAP1 SWAP2 OR SWAP1 SSTORE JUMP JUMPDEST PUSH0 PUSH2 0x3D2 PUSH8 0xDE0B6B3A7640000 PUSH2 0x3CC DUP5 PUSH10 0xD3C21BCECCEDA1000000 PUSH2 0x486 JUMP JUMPDEST SWAP1 PUSH2 0x498 JUMP JUMPDEST SWAP3 SWAP2 POP POP JUMP JUMPDEST PUSH2 0x3E0 PUSH2 0x4A3 JUMP JUMPDEST PUSH2 0x3E8 PUSH2 0x4D0 JUMP JUMPDEST JUMP JUMPDEST PUSH2 0x3F2 PUSH2 0x4A3 JUMP JUMPDEST PUSH1 0x1 PUSH1 0x1 PUSH1 0xA0 SHL SUB DUP2 AND PUSH2 0x41B JUMPI PUSH1 0x40 MLOAD PUSH4 0x1E4FBDF7 PUSH1 0xE0 SHL DUP2 MSTORE PUSH0 PUSH1 0x4 DUP3 ADD MSTORE PUSH1 0x24 ADD PUSH2 0x58 JUMP JUMPDEST PUSH2 0x424 DUP2 PUSH2 0x1D6 JUMP JUMPDEST POP JUMP JUMPDEST PUSH1 0x1 PUSH1 0x1 PUSH1 0xA0 SHL SUB DUP2 AND PUSH0 SWAP1 DUP2 MSTORE PUSH1 0x12 PUSH1 0x20 MSTORE PUSH1 0x40 DUP2 KECCAK256 SLOAD PUSH1 0xFF AND ISZERO PUSH2 0x465 JUMPI PUSH1 0xB SLOAD PUSH1 0x1 PUSH1 0x1 PUSH1 0xA0 SHL SUB SWAP1 DUP2 AND SWAP1 DUP4 AND SUB PUSH2 0x465 JUMPI PUSH2 0x3D2 PUSH2 0x529 JUMP JUMPDEST PUSH1 0x1 PUSH1 0x1 PUSH1 0xA0 SHL SUB DUP3 AND PUSH0 SWAP1 DUP2 MSTORE PUSH1 0x9 PUSH1 0x20 MSTORE PUSH1 0x40 SWAP1 KECCAK256 SLOAD PUSH2 0x3D2 SWAP1 PUSH2 0x564 JUMP JUMPDEST PUSH0 PUSH2 0x491 DUP3 DUP5 PUSH2 0x87A JUMP JUMPDEST SWAP4 SWAP3 POP POP POP JUMP JUMPDEST PUSH0 PUSH2 0x491 DUP3 DUP5 PUSH2 0x891 JUMP JUMPDEST PUSH1 0x2 SLOAD PUSH1 0x1 PUSH1 0x1 PUSH1 0xA0 SHL SUB AND CALLER EQ PUSH2 0x3E8 JUMPI PUSH1 0x40 MLOAD PUSH4 0x118CDAA7 PUSH1 0xE0 SHL DUP2 MSTORE CALLER PUSH1 0x4 DUP3 ADD MSTORE PUSH1 0x24 ADD PUSH2 0x58 JUMP JUMPDEST PUSH2 0x4D8 PUSH2 0x588 JUMP JUMPDEST PUSH0 DUP1 SLOAD PUSH1 0xFF NOT AND PUSH1 0x1 OR SWAP1 SSTORE PUSH32 0x62E78CEA01BEE320CD4E420270B5EA74000D11B0C9F74754EBDBFC544B05A258 PUSH2 0x50C CALLER SWAP1 JUMP JUMPDEST PUSH1 0x40 MLOAD PUSH1 0x1 PUSH1 0x1 PUSH1 0xA0 SHL SUB SWAP1 SWAP2 AND DUP2 MSTORE PUSH1 0x20 ADD PUSH1 0x40 MLOAD DUP1 SWAP2 SUB SWAP1 LOG1 JUMP JUMPDEST PUSH1 0xB SLOAD PUSH1 0x1 PUSH1 0x1 PUSH1 0xA0 SHL SUB AND PUSH0 SWAP1 DUP2 MSTORE PUSH1 0x9 PUSH1 0x20 MSTORE PUSH1 0x40 DUP2 KECCAK256 SLOAD DUP2 SWAP1 PUSH2 0x54E SWAP1 PUSH2 0x564 JUMP JUMPDEST SWAP1 POP DUP1 PUSH1 0xA SLOAD PUSH2 0x55E SWAP2 SWAP1 PUSH2 0x8B0 JUMP JUMPDEST SWAP2 POP POP SWAP1 JUMP JUMPDEST PUSH0 PUSH2 0x3D2 PUSH10 0xD3C21BCECCEDA1000000 PUSH2 0x3CC PUSH1 0xE SLOAD DUP6 PUSH2 0x486 PUSH1 0x20 SHL SWAP1 SWAP2 SWAP1 PUSH1 0x20 SHR JUMP JUMPDEST PUSH0 SLOAD PUSH1 0xFF AND ISZERO PUSH2 0x3E8 JUMPI PUSH1 0x40 MLOAD PUSH3 0x461BCD PUSH1 0xE5 SHL DUP2 MSTORE PUSH1 0x20 PUSH1 0x4 DUP3 ADD MSTORE PUSH1 0x10 PUSH1 0x24 DUP3 ADD MSTORE PUSH16 0x14185D5CD8589B194E881C185D5CD959 PUSH1 0x82 SHL PUSH1 0x44 DUP3 ADD MSTORE PUSH1 0x64 ADD PUSH2 0x58 JUMP JUMPDEST PUSH4 0x4E487B71 PUSH1 0xE0 SHL PUSH0 MSTORE PUSH1 0x41 PUSH1 0x4 MSTORE PUSH1 0x24 PUSH0 REVERT JUMPDEST PUSH0 DUP3 PUSH1 0x1F DUP4 ADD SLT PUSH2 0x5F0 JUMPI PUSH0 DUP1 REVERT JUMPDEST DUP2 MLOAD PUSH1 0x1 PUSH1 0x1 PUSH1 0x40 SHL SUB DUP2 GT ISZERO PUSH2 0x609 JUMPI PUSH2 0x609 PUSH2 0x5CD JUMP JUMPDEST PUSH1 0x40 MLOAD PUSH1 0x1F DUP3 ADD PUSH1 0x1F NOT SWAP1 DUP2 AND PUSH1 0x3F ADD AND DUP2 ADD PUSH1 0x1 PUSH1 0x1 PUSH1 0x40 SHL SUB DUP2 GT DUP3 DUP3 LT OR ISZERO PUSH2 0x637 JUMPI PUSH2 0x637 PUSH2 0x5CD JUMP JUMPDEST PUSH1 0x40 MSTORE DUP2 DUP2 MSTORE DUP4 DUP3 ADD PUSH1 0x20 ADD DUP6 LT ISZERO PUSH2 0x64E JUMPI PUSH0 DUP1 REVERT JUMPDEST DUP2 PUSH1 0x20 DUP6 ADD PUSH1 0x20 DUP4 ADD MCOPY PUSH0 SWAP2 DUP2 ADD PUSH1 0x20 ADD SWAP2 SWAP1 SWAP2 MSTORE SWAP4 SWAP3 POP POP POP JUMP JUMPDEST DUP1 MLOAD PUSH1 0x1 PUSH1 0x1 PUSH1 0xA0 SHL SUB DUP2 AND DUP2 EQ PUSH2 0x680 JUMPI PUSH0 DUP1 REVERT JUMPDEST SWAP2 SWAP1 POP JUMP JUMPDEST PUSH0 DUP1 PUSH0 DUP1 PUSH0 DUP1 PUSH0 PUSH1 0xE0 DUP9 DUP11 SUB SLT ISZERO PUSH2 0x69B JUMPI PUSH0 DUP1 REVERT JUMPDEST DUP8 MLOAD PUSH1 0x1 PUSH1 0x1 PUSH1 0x40 SHL SUB DUP2 GT ISZERO PUSH2 0x6B0 JUMPI PUSH0 DUP1 REVERT JUMPDEST PUSH2 0x6BC DUP11 DUP3 DUP12 ADD PUSH2 0x5E1 JUMP JUMPDEST PUSH1 0x20 DUP11 ADD MLOAD SWAP1 SWAP9 POP SWAP1 POP PUSH1 0x1 PUSH1 0x1 PUSH1 0x40 SHL SUB DUP2 GT ISZERO PUSH2 0x6D9 JUMPI PUSH0 DUP1 REVERT JUMPDEST PUSH2 0x6E5 DUP11 DUP3 DUP12 ADD PUSH2 0x5E1 JUMP JUMPDEST PUSH1 0x40 DUP11 ADD MLOAD SWAP1 SWAP8 POP SWAP6 POP PUSH2 0x6FD SWAP1 POP PUSH1 0x60 DUP10 ADD PUSH2 0x66A JUMP JUMPDEST PUSH1 0x80 DUP10 ADD MLOAD PUSH1 0xA0 DUP11 ADD MLOAD SWAP2 SWAP6 POP SWAP4 POP SWAP2 POP PUSH2 0x71A PUSH1 0xC0 DUP10 ADD PUSH2 0x66A JUMP JUMPDEST SWAP1 POP SWAP3 SWAP6 SWAP9 SWAP2 SWAP5 SWAP8 POP SWAP3 SWAP6 POP JUMP JUMPDEST PUSH1 0x1 DUP2 DUP2 SHR SWAP1 DUP3 AND DUP1 PUSH2 0x73C JUMPI PUSH1 0x7F DUP3 AND SWAP2 POP JUMPDEST PUSH1 0x20 DUP3 LT DUP2 SUB PUSH2 0x75A JUMPI PUSH4 0x4E487B71 PUSH1 0xE0 SHL PUSH0 MSTORE PUSH1 0x22 PUSH1 0x4 MSTORE PUSH1 0x24 PUSH0 REVERT JUMPDEST POP SWAP2 SWAP1 POP JUMP JUMPDEST PUSH1 0x1F DUP3 GT ISZERO PUSH2 0x7A7 JUMPI DUP1 PUSH0 MSTORE PUSH1 0x20 PUSH0 KECCAK256 PUSH1 0x1F DUP5 ADD PUSH1 0x5 SHR DUP2 ADD PUSH1 0x20 DUP6 LT ISZERO PUSH2 0x785 JUMPI POP DUP1 JUMPDEST PUSH1 0x1F DUP5 ADD PUSH1 0x5 SHR DUP3 ADD SWAP2 POP JUMPDEST DUP2 DUP2 LT ISZERO PUSH2 0x7A4 JUMPI PUSH0 DUP2 SSTORE PUSH1 0x1 ADD PUSH2 0x791 JUMP JUMPDEST POP POP JUMPDEST POP POP POP JUMP JUMPDEST DUP2 MLOAD PUSH1 0x1 PUSH1 0x1 PUSH1 0x40 SHL SUB DUP2 GT ISZERO PUSH2 0x7C5 JUMPI PUSH2 0x7C5 PUSH2 0x5CD JUMP JUMPDEST PUSH2 0x7D9 DUP2 PUSH2 0x7D3 DUP5 SLOAD PUSH2 0x728 JUMP JUMPDEST DUP5 PUSH2 0x760 JUMP JUMPDEST PUSH1 0x20 PUSH1 0x1F DUP3 GT PUSH1 0x1 DUP2 EQ PUSH2 0x80B JUMPI PUSH0 DUP4 ISZERO PUSH2 0x7F4 JUMPI POP DUP5 DUP3 ADD MLOAD JUMPDEST PUSH0 NOT PUSH1 0x3 DUP6 SWAP1 SHL SHR NOT AND PUSH1 0x1 DUP5 SWAP1 SHL OR DUP5 SSTORE PUSH2 0x7A4 JUMP JUMPDEST PUSH0 DUP5 DUP2 MSTORE PUSH1 0x20 DUP2 KECCAK256 PUSH1 0x1F NOT DUP6 AND SWAP2 JUMPDEST DUP3 DUP2 LT ISZERO PUSH2 0x83A JUMPI DUP8 DUP6 ADD MLOAD DUP3 SSTORE PUSH1 0x20 SWAP5 DUP6 ADD SWAP5 PUSH1 0x1 SWAP1 SWAP3 ADD SWAP2 ADD PUSH2 0x81A JUMP JUMPDEST POP DUP5 DUP3 LT ISZERO PUSH2 0x857 JUMPI DUP7 DUP5 ADD MLOAD PUSH0 NOT PUSH1 0x3 DUP8 SWAP1 SHL PUSH1 0xF8 AND SHR NOT AND DUP2 SSTORE JUMPDEST POP POP POP POP PUSH1 0x1 SWAP1 DUP2 SHL ADD SWAP1 SSTORE POP JUMP JUMPDEST PUSH4 0x4E487B71 PUSH1 0xE0 SHL PUSH0 MSTORE PUSH1 0x11 PUSH1 0x4 MSTORE PUSH1 0x24 PUSH0 REVERT JUMPDEST DUP1 DUP3 MUL DUP2 ISZERO DUP3 DUP3 DIV DUP5 EQ OR PUSH2 0x3D2 JUMPI PUSH2 0x3D2 PUSH2 0x866 JUMP JUMPDEST PUSH0 DUP3 PUSH2 0x8AB JUMPI PUSH4 0x4E487B71 PUSH1 0xE0 SHL PUSH0 MSTORE PUSH1 0x12 PUSH1 0x4 MSTORE PUSH1 0x24 PUSH0 REVERT JUMPDEST POP DIV SWAP1 JUMP JUMPDEST DUP1 DUP3 ADD DUP1 DUP3 GT ISZERO PUSH2 0x3D2 JUMPI PUSH2 0x3D2 PUSH2 0x866 JUMP JUMPDEST DUP2 DUP2 SUB DUP2 DUP2 GT ISZERO PUSH2 0x3D2 JUMPI PUSH2 0x3D2 PUSH2 0x866 JUMP JUMPDEST PUSH2 0x2BC3 DUP1 PUSH2 0x8E3 PUSH0 CODECOPY PUSH0 RETURN INVALID PUSH1 0x80 PUSH1 0x40 MSTORE PUSH1 0x4 CALLDATASIZE LT PUSH2 0x374 JUMPI PUSH0 CALLDATALOAD PUSH1 0xE0 SHR DUP1 PUSH4 0x702115DD GT PUSH2 0x1C8 JUMPI DUP1 PUSH4 0x9220D3ED GT PUSH2 0xFD JUMPI DUP1 PUSH4 0xB3CD4254 GT PUSH2 0x9D JUMPI DUP1 PUSH4 0xDF0AB308 GT PUSH2 0x6D JUMPI DUP1 PUSH4 0xDF0AB308 EQ PUSH2 0xA24 JUMPI DUP1 PUSH4 0xE2FF2440 EQ PUSH2 0xA43 JUMPI DUP1 PUSH4 0xE5A5E318 EQ PUSH2 0xA57 JUMPI DUP1 PUSH4 0xF2FDE38B EQ PUSH2 0xA76 JUMPI PUSH0 DUP1 REVERT JUMPDEST DUP1 PUSH4 0xB3CD4254 EQ PUSH2 0x997 JUMPI DUP1 PUSH4 0xB4DADE59 EQ PUSH2 0x9AC JUMPI DUP1 PUSH4 0xDC90B442 EQ PUSH2 0x9CB JUMPI DUP1 PUSH4 0xDD62ED3E EQ PUSH2 0x9E0 JUMPI PUSH0 DUP1 REVERT JUMPDEST DUP1 PUSH4 0x9CC2921C GT PUSH2 0xD8 JUMPI DUP1 PUSH4 0x9CC2921C EQ PUSH2 0x91D JUMPI DUP1 PUSH4 0xA457C2D7 EQ PUSH2 0x93C JUMPI DUP1 PUSH4 0xA6D1B891 EQ PUSH2 0x95B JUMPI DUP1 PUSH4 0xA9059CBB EQ PUSH2 0x978 JUMPI PUSH0 DUP1 REVERT JUMPDEST DUP1 PUSH4 0x9220D3ED EQ PUSH2 0x8AD JUMPI DUP1 PUSH4 0x924C2EAD EQ PUSH2 0x8DB JUMPI DUP1 PUSH4 0x95D89B41 EQ PUSH2 0x909 JUMPI PUSH0 DUP1 REVERT JUMPDEST DUP1 PUSH4 0x8456CB59 GT PUSH2 0x168 JUMPI DUP1 PUSH4 0x89EEC0F1 GT PUSH2 0x143 JUMPI DUP1 PUSH4 0x89EEC0F1 EQ PUSH2 0x82E JUMPI DUP1 PUSH4 0x8CF66B16 EQ PUSH2 0x84D JUMPI DUP1 PUSH4 0x8DA5CB5B EQ PUSH2 0x87B JUMPI DUP1 PUSH4 0x8F372FA3 EQ PUSH2 0x898 JUMPI PUSH0 DUP1 REVERT JUMPDEST DUP1 PUSH4 0x8456CB59 EQ PUSH2 0x7F1 JUMPI DUP1 PUSH4 0x874A6AE7 EQ PUSH2 0x805 JUMPI DUP1 PUSH4 0x893D20E8 EQ PUSH2 0x81A JUMPI PUSH0 DUP1 REVERT JUMPDEST DUP1 PUSH4 0x75C2B13F GT PUSH2 0x1A3 JUMPI DUP1 PUSH4 0x75C2B13F EQ PUSH2 0x775 JUMPI DUP1 PUSH4 0x7819F36F EQ PUSH2 0x794 JUMPI DUP1 PUSH4 0x79825EDE EQ PUSH2 0x7B3 JUMPI DUP1 PUSH4 0x81CEA332 EQ PUSH2 0x7D2 JUMPI PUSH0 DUP1 REVERT JUMPDEST DUP1 PUSH4 0x702115DD EQ PUSH2 0x723 JUMPI DUP1 PUSH4 0x70A08231 EQ PUSH2 0x742 JUMPI DUP1 PUSH4 0x715018A6 EQ PUSH2 0x761 JUMPI PUSH0 DUP1 REVERT JUMPDEST DUP1 PUSH4 0x3F3B3B27 GT PUSH2 0x2A9 JUMPI DUP1 PUSH4 0x5D70DDE6 GT PUSH2 0x249 JUMPI DUP1 PUSH4 0x690D8320 GT PUSH2 0x219 JUMPI DUP1 PUSH4 0x690D8320 EQ PUSH2 0x699 JUMPI DUP1 PUSH4 0x6AA3773F EQ PUSH2 0x6B8 JUMPI DUP1 PUSH4 0x6C5ED03E EQ PUSH2 0x6D7 JUMPI DUP1 PUSH4 0x6E04FF0D EQ PUSH2 0x6F6 JUMPI PUSH0 DUP1 REVERT JUMPDEST DUP1 PUSH4 0x5D70DDE6 EQ PUSH2 0x632 JUMPI DUP1 PUSH4 0x6161EB18 EQ PUSH2 0x646 JUMPI DUP1 PUSH4 0x639F3CC7 EQ PUSH2 0x665 JUMPI DUP1 PUSH4 0x685F59DE EQ PUSH2 0x684 JUMPI PUSH0 DUP1 REVERT JUMPDEST DUP1 PUSH4 0x4626402B GT PUSH2 0x284 JUMPI DUP1 PUSH4 0x4626402B EQ PUSH2 0x5AB JUMPI DUP1 PUSH4 0x4E6EC247 EQ PUSH2 0x5E2 JUMPI DUP1 PUSH4 0x5B7F415C EQ PUSH2 0x601 JUMPI DUP1 PUSH4 0x5C975ABB EQ PUSH2 0x61C JUMPI PUSH0 DUP1 REVERT JUMPDEST DUP1 PUSH4 0x3F3B3B27 EQ PUSH2 0x563 JUMPI DUP1 PUSH4 0x3F4BA83A EQ PUSH2 0x578 JUMPI DUP1 PUSH4 0x4585E33B EQ PUSH2 0x58C JUMPI PUSH0 DUP1 REVERT JUMPDEST DUP1 PUSH4 0x2CE8BD56 GT PUSH2 0x314 JUMPI DUP1 PUSH4 0x35C85A34 GT PUSH2 0x2EF JUMPI DUP1 PUSH4 0x35C85A34 EQ PUSH2 0x4D2 JUMPI DUP1 PUSH4 0x39509351 EQ PUSH2 0x4F1 JUMPI DUP1 PUSH4 0x3AF9E669 EQ PUSH2 0x510 JUMPI DUP1 PUSH4 0x3CDE0C0F EQ PUSH2 0x544 JUMPI PUSH0 DUP1 REVERT JUMPDEST DUP1 PUSH4 0x2CE8BD56 EQ PUSH2 0x47D JUMPI DUP1 PUSH4 0x30E0789E EQ PUSH2 0x492 JUMPI DUP1 PUSH4 0x313CE567 EQ PUSH2 0x4B1 JUMPI PUSH0 DUP1 REVERT JUMPDEST DUP1 PUSH4 0x1658A700 GT PUSH2 0x34F JUMPI DUP1 PUSH4 0x1658A700 EQ PUSH2 0x3F9 JUMPI DUP1 PUSH4 0x18160DDD EQ PUSH2 0x427 JUMPI DUP1 PUSH4 0x23B872DD EQ PUSH2 0x449 JUMPI DUP1 PUSH4 0x24024EFD EQ PUSH2 0x468 JUMPI PUSH0 DUP1 REVERT JUMPDEST DUP1 PUSH4 0x6FDDE03 EQ PUSH2 0x37F JUMPI DUP1 PUSH4 0x95EA7B3 EQ PUSH2 0x3A9 JUMPI DUP1 PUSH4 0x104E81FF EQ PUSH2 0x3D8 JUMPI PUSH0 DUP1 REVERT JUMPDEST CALLDATASIZE PUSH2 0x37B JUMPI STOP JUMPDEST PUSH0 DUP1 REVERT JUMPDEST CALLVALUE DUP1 ISZERO PUSH2 0x38A JUMPI PUSH0 DUP1 REVERT JUMPDEST POP PUSH2 0x393 PUSH2 0xA95 JUMP JUMPDEST PUSH1 0x40 MLOAD PUSH2 0x3A0 SWAP2 SWAP1 PUSH2 0x2664 JUMP JUMPDEST PUSH1 0x40 MLOAD DUP1 SWAP2 SUB SWAP1 RETURN JUMPDEST CALLVALUE DUP1 ISZERO PUSH2 0x3B4 JUMPI PUSH0 DUP1 REVERT JUMPDEST POP PUSH2 0x3C8 PUSH2 0x3C3 CALLDATASIZE PUSH1 0x4 PUSH2 0x2691 JUMP JUMPDEST PUSH2 0xB21 JUMP JUMPDEST PUSH1 0x40 MLOAD SWAP1 ISZERO ISZERO DUP2 MSTORE PUSH1 0x20 ADD PUSH2 0x3A0 JUMP JUMPDEST CALLVALUE DUP1 ISZERO PUSH2 0x3E3 JUMPI PUSH0 DUP1 REVERT JUMPDEST POP PUSH2 0x3F7 PUSH2 0x3F2 CALLDATASIZE PUSH1 0x4 PUSH2 0x26B9 JUMP JUMPDEST PUSH2 0xB37 JUMP JUMPDEST STOP JUMPDEST CALLVALUE DUP1 ISZERO PUSH2 0x404 JUMPI PUSH0 DUP1 REVERT JUMPDEST POP PUSH2 0x3C8 PUSH2 0x413 CALLDATASIZE PUSH1 0x4 PUSH2 0x26F3 JUMP JUMPDEST PUSH1 0x11 PUSH1 0x20 MSTORE PUSH0 SWAP1 DUP2 MSTORE PUSH1 0x40 SWAP1 KECCAK256 SLOAD PUSH1 0xFF AND DUP2 JUMP JUMPDEST CALLVALUE DUP1 ISZERO PUSH2 0x432 JUMPI PUSH0 DUP1 REVERT JUMPDEST POP PUSH2 0x43B PUSH2 0xC60 JUMP JUMPDEST PUSH1 0x40 MLOAD SWAP1 DUP2 MSTORE PUSH1 0x20 ADD PUSH2 0x3A0 JUMP JUMPDEST CALLVALUE DUP1 ISZERO PUSH2 0x454 JUMPI PUSH0 DUP1 REVERT JUMPDEST POP PUSH2 0x3C8 PUSH2 0x463 CALLDATASIZE PUSH1 0x4 PUSH2 0x26B9 JUMP JUMPDEST PUSH2 0xC76 JUMP JUMPDEST CALLVALUE DUP1 ISZERO PUSH2 0x473 JUMPI PUSH0 DUP1 REVERT JUMPDEST POP PUSH2 0x43B PUSH1 0xC SLOAD DUP2 JUMP JUMPDEST CALLVALUE DUP1 ISZERO PUSH2 0x488 JUMPI PUSH0 DUP1 REVERT JUMPDEST POP PUSH2 0x43B PUSH1 0xD SLOAD DUP2 JUMP JUMPDEST CALLVALUE DUP1 ISZERO PUSH2 0x49D JUMPI PUSH0 DUP1 REVERT JUMPDEST POP PUSH2 0x3F7 PUSH2 0x4AC CALLDATASIZE PUSH1 0x4 PUSH2 0x26B9 JUMP JUMPDEST PUSH2 0xCD8 JUMP JUMPDEST CALLVALUE DUP1 ISZERO PUSH2 0x4BC JUMPI PUSH0 DUP1 REVERT JUMPDEST POP PUSH1 0x5 SLOAD PUSH1 0x40 MLOAD PUSH1 0xFF SWAP1 SWAP2 AND DUP2 MSTORE PUSH1 0x20 ADD PUSH2 0x3A0 JUMP JUMPDEST CALLVALUE DUP1 ISZERO PUSH2 0x4DD JUMPI PUSH0 DUP1 REVERT JUMPDEST POP PUSH2 0x3F7 PUSH2 0x4EC CALLDATASIZE PUSH1 0x4 PUSH2 0x271B JUMP JUMPDEST PUSH2 0x1252 JUMP JUMPDEST CALLVALUE DUP1 ISZERO PUSH2 0x4FC JUMPI PUSH0 DUP1 REVERT JUMPDEST POP PUSH2 0x3C8 PUSH2 0x50B CALLDATASIZE PUSH1 0x4 PUSH2 0x2691 JUMP JUMPDEST PUSH2 0x12D2 JUMP JUMPDEST CALLVALUE DUP1 ISZERO PUSH2 0x51B JUMPI PUSH0 DUP1 REVERT JUMPDEST POP PUSH2 0x43B PUSH2 0x52A CALLDATASIZE PUSH1 0x4 PUSH2 0x26F3 JUMP JUMPDEST PUSH1 0x1 PUSH1 0x1 PUSH1 0xA0 SHL SUB AND PUSH0 SWAP1 DUP2 MSTORE PUSH1 0x9 PUSH1 0x20 MSTORE PUSH1 0x40 SWAP1 KECCAK256 SLOAD SWAP1 JUMP JUMPDEST CALLVALUE DUP1 ISZERO PUSH2 0x54F JUMPI PUSH0 DUP1 REVERT JUMPDEST POP PUSH2 0x3F7 PUSH2 0x55E CALLDATASIZE PUSH1 0x4 PUSH2 0x274C JUMP JUMPDEST PUSH2 0x1307 JUMP JUMPDEST CALLVALUE DUP1 ISZERO PUSH2 0x56E JUMPI PUSH0 DUP1 REVERT JUMPDEST POP PUSH2 0x43B PUSH1 0x15 SLOAD DUP2 JUMP JUMPDEST CALLVALUE DUP1 ISZERO PUSH2 0x583 JUMPI PUSH0 DUP1 REVERT JUMPDEST POP PUSH2 0x3F7 PUSH2 0x1314 JUMP JUMPDEST CALLVALUE DUP1 ISZERO PUSH2 0x597 JUMPI PUSH0 DUP1 REVERT JUMPDEST POP PUSH2 0x3F7 PUSH2 0x5A6 CALLDATASIZE PUSH1 0x4 PUSH2 0x2763 JUMP JUMPDEST PUSH2 0x1326 JUMP JUMPDEST CALLVALUE DUP1 ISZERO PUSH2 0x5B6 JUMPI PUSH0 DUP1 REVERT JUMPDEST POP PUSH1 0xB SLOAD PUSH2 0x5CA SWAP1 PUSH1 0x1 PUSH1 0x1 PUSH1 0xA0 SHL SUB AND DUP2 JUMP JUMPDEST PUSH1 0x40 MLOAD PUSH1 0x1 PUSH1 0x1 PUSH1 0xA0 SHL SUB SWAP1 SWAP2 AND DUP2 MSTORE PUSH1 0x20 ADD PUSH2 0x3A0 JUMP JUMPDEST CALLVALUE DUP1 ISZERO PUSH2 0x5ED JUMPI PUSH0 DUP1 REVERT JUMPDEST POP PUSH2 0x3F7 PUSH2 0x5FC CALLDATASIZE PUSH1 0x4 PUSH2 0x2691 JUMP JUMPDEST PUSH2 0x140D JUMP JUMPDEST CALLVALUE DUP1 ISZERO PUSH2 0x60C JUMPI PUSH0 DUP1 REVERT JUMPDEST POP PUSH2 0x43B PUSH8 0xDE0B6B3A7640000 DUP2 JUMP JUMPDEST CALLVALUE DUP1 ISZERO PUSH2 0x627 JUMPI PUSH0 DUP1 REVERT JUMPDEST POP PUSH0 SLOAD PUSH1 0xFF AND PUSH2 0x3C8 JUMP JUMPDEST CALLVALUE DUP1 ISZERO PUSH2 0x63D JUMPI PUSH0 DUP1 REVERT JUMPDEST POP PUSH2 0x3F7 PUSH2 0x1578 JUMP JUMPDEST CALLVALUE DUP1 ISZERO PUSH2 0x651 JUMPI PUSH0 DUP1 REVERT JUMPDEST POP PUSH2 0x3F7 PUSH2 0x660 CALLDATASIZE PUSH1 0x4 PUSH2 0x2691 JUMP JUMPDEST PUSH2 0x1594 JUMP JUMPDEST CALLVALUE DUP1 ISZERO PUSH2 0x670 JUMPI PUSH0 DUP1 REVERT JUMPDEST POP PUSH2 0x43B PUSH2 0x67F CALLDATASIZE PUSH1 0x4 PUSH2 0x274C JUMP JUMPDEST PUSH2 0x16EF JUMP JUMPDEST CALLVALUE DUP1 ISZERO PUSH2 0x68F JUMPI PUSH0 DUP1 REVERT JUMPDEST POP PUSH2 0x43B PUSH1 0xF SLOAD DUP2 JUMP JUMPDEST CALLVALUE DUP1 ISZERO PUSH2 0x6A4 JUMPI PUSH0 DUP1 REVERT JUMPDEST POP PUSH2 0x3F7 PUSH2 0x6B3 CALLDATASIZE PUSH1 0x4 PUSH2 0x26F3 JUMP JUMPDEST PUSH2 0x1719 JUMP JUMPDEST CALLVALUE DUP1 ISZERO PUSH2 0x6C3 JUMPI PUSH0 DUP1 REVERT JUMPDEST POP PUSH2 0x3F7 PUSH2 0x6D2 CALLDATASIZE PUSH1 0x4 PUSH2 0x2691 JUMP JUMPDEST PUSH2 0x180C JUMP JUMPDEST CALLVALUE DUP1 ISZERO PUSH2 0x6E2 JUMPI PUSH0 DUP1 REVERT JUMPDEST POP PUSH2 0x3F7 PUSH2 0x6F1 CALLDATASIZE PUSH1 0x4 PUSH2 0x28AA JUMP JUMPDEST PUSH2 0x1979 JUMP JUMPDEST CALLVALUE DUP1 ISZERO PUSH2 0x701 JUMPI PUSH0 DUP1 REVERT JUMPDEST POP PUSH2 0x715 PUSH2 0x710 CALLDATASIZE PUSH1 0x4 PUSH2 0x2763 JUMP JUMPDEST PUSH2 0x1A4F JUMP JUMPDEST PUSH1 0x40 MLOAD PUSH2 0x3A0 SWAP3 SWAP2 SWAP1 PUSH2 0x28EC JUMP JUMPDEST CALLVALUE DUP1 ISZERO PUSH2 0x72E JUMPI PUSH0 DUP1 REVERT JUMPDEST POP PUSH2 0x3F7 PUSH2 0x73D CALLDATASIZE PUSH1 0x4 PUSH2 0x271B JUMP JUMPDEST PUSH2 0x1AA5 JUMP JUMPDEST CALLVALUE DUP1 ISZERO PUSH2 0x74D JUMPI PUSH0 DUP1 REVERT JUMPDEST POP PUSH2 0x43B PUSH2 0x75C CALLDATASIZE PUSH1 0x4 PUSH2 0x26F3 JUMP JUMPDEST PUSH2 0x1BA9 JUMP JUMPDEST CALLVALUE DUP1 ISZERO PUSH2 0x76C JUMPI PUSH0 DUP1 REVERT JUMPDEST POP PUSH2 0x3F7 PUSH2 0x1C08 JUMP JUMPDEST CALLVALUE DUP1 ISZERO PUSH2 0x780 JUMPI PUSH0 DUP1 REVERT JUMPDEST POP PUSH2 0x3F7 PUSH2 0x78F CALLDATASIZE PUSH1 0x4 PUSH2 0x271B JUMP JUMPDEST PUSH2 0x1C19 JUMP JUMPDEST CALLVALUE DUP1 ISZERO PUSH2 0x79F JUMPI PUSH0 DUP1 REVERT JUMPDEST POP PUSH2 0x3F7 PUSH2 0x7AE CALLDATASIZE PUSH1 0x4 PUSH2 0x28AA JUMP JUMPDEST PUSH2 0x1CA1 JUMP JUMPDEST CALLVALUE DUP1 ISZERO PUSH2 0x7BE JUMPI PUSH0 DUP1 REVERT JUMPDEST POP PUSH2 0x3F7 PUSH2 0x7CD CALLDATASIZE PUSH1 0x4 PUSH2 0x271B JUMP JUMPDEST PUSH2 0x1CDF JUMP JUMPDEST CALLVALUE DUP1 ISZERO PUSH2 0x7DD JUMPI PUSH0 DUP1 REVERT JUMPDEST POP PUSH2 0x3F7 PUSH2 0x7EC CALLDATASIZE PUSH1 0x4 PUSH2 0x274C JUMP JUMPDEST PUSH2 0x1D7F JUMP JUMPDEST CALLVALUE DUP1 ISZERO PUSH2 0x7FC JUMPI PUSH0 DUP1 REVERT JUMPDEST POP PUSH2 0x3F7 PUSH2 0x1DAE JUMP JUMPDEST CALLVALUE DUP1 ISZERO PUSH2 0x810 JUMPI PUSH0 DUP1 REVERT JUMPDEST POP PUSH2 0x43B PUSH1 0x10 SLOAD DUP2 JUMP JUMPDEST CALLVALUE DUP1 ISZERO PUSH2 0x825 JUMPI PUSH0 DUP1 REVERT JUMPDEST POP PUSH2 0x5CA PUSH2 0x1DBE JUMP JUMPDEST CALLVALUE DUP1 ISZERO PUSH2 0x839 JUMPI PUSH0 DUP1 REVERT JUMPDEST POP PUSH2 0x43B PUSH2 0x848 CALLDATASIZE PUSH1 0x4 PUSH2 0x274C JUMP JUMPDEST PUSH2 0x1DD1 JUMP JUMPDEST CALLVALUE DUP1 ISZERO PUSH2 0x858 JUMPI PUSH0 DUP1 REVERT JUMPDEST POP PUSH2 0x3C8 PUSH2 0x867 CALLDATASIZE PUSH1 0x4 PUSH2 0x26F3 JUMP JUMPDEST PUSH1 0x13 PUSH1 0x20 MSTORE PUSH0 SWAP1 DUP2 MSTORE PUSH1 0x40 SWAP1 KECCAK256 SLOAD PUSH1 0xFF AND DUP2 JUMP JUMPDEST CALLVALUE DUP1 ISZERO PUSH2 0x886 JUMPI PUSH0 DUP1 REVERT JUMPDEST POP PUSH1 0x2 SLOAD PUSH1 0x1 PUSH1 0x1 PUSH1 0xA0 SHL SUB AND PUSH2 0x5CA JUMP JUMPDEST CALLVALUE DUP1 ISZERO PUSH2 0x8A3 JUMPI PUSH0 DUP1 REVERT JUMPDEST POP PUSH2 0x43B PUSH1 0x7 SLOAD DUP2 JUMP JUMPDEST CALLVALUE DUP1 ISZERO PUSH2 0x8B8 JUMPI PUSH0 DUP1 REVERT JUMPDEST POP PUSH2 0x3C8 PUSH2 0x8C7 CALLDATASIZE PUSH1 0x4 PUSH2 0x26F3 JUMP JUMPDEST PUSH1 0x14 PUSH1 0x20 MSTORE PUSH0 SWAP1 DUP2 MSTORE PUSH1 0x40 SWAP1 KECCAK256 SLOAD PUSH1 0xFF AND DUP2 JUMP JUMPDEST CALLVALUE DUP1 ISZERO PUSH2 0x8E6 JUMPI PUSH0 DUP1 REVERT JUMPDEST POP PUSH2 0x3C8 PUSH2 0x8F5 CALLDATASIZE PUSH1 0x4 PUSH2 0x26F3 JUMP JUMPDEST PUSH1 0x12 PUSH1 0x20 MSTORE PUSH0 SWAP1 DUP2 MSTORE PUSH1 0x40 SWAP1 KECCAK256 SLOAD PUSH1 0xFF AND DUP2 JUMP JUMPDEST CALLVALUE DUP1 ISZERO PUSH2 0x914 JUMPI PUSH0 DUP1 REVERT JUMPDEST POP PUSH2 0x393 PUSH2 0x1DF2 JUMP JUMPDEST CALLVALUE DUP1 ISZERO PUSH2 0x928 JUMPI PUSH0 DUP1 REVERT JUMPDEST POP PUSH2 0x3F7 PUSH2 0x937 CALLDATASIZE PUSH1 0x4 PUSH2 0x290E JUMP JUMPDEST PUSH2 0x1DFF JUMP JUMPDEST CALLVALUE DUP1 ISZERO PUSH2 0x947 JUMPI PUSH0 DUP1 REVERT JUMPDEST POP PUSH2 0x3C8 PUSH2 0x956 CALLDATASIZE PUSH1 0x4 PUSH2 0x2691 JUMP JUMPDEST PUSH2 0x1E72 JUMP JUMPDEST CALLVALUE DUP1 ISZERO PUSH2 0x966 JUMPI PUSH0 DUP1 REVERT JUMPDEST POP PUSH2 0x43B PUSH10 0xD3C21BCECCEDA1000000 DUP2 JUMP JUMPDEST CALLVALUE DUP1 ISZERO PUSH2 0x983 JUMPI PUSH0 DUP1 REVERT JUMPDEST POP PUSH2 0x3C8 PUSH2 0x992 CALLDATASIZE PUSH1 0x4 PUSH2 0x2691 JUMP JUMPDEST PUSH2 0x1EBF JUMP JUMPDEST CALLVALUE DUP1 ISZERO PUSH2 0x9A2 JUMPI PUSH0 DUP1 REVERT JUMPDEST POP PUSH2 0x43B PUSH2 0x2710 DUP2 JUMP JUMPDEST CALLVALUE DUP1 ISZERO PUSH2 0x9B7 JUMPI PUSH0 DUP1 REVERT JUMPDEST POP PUSH2 0x3F7 PUSH2 0x9C6 CALLDATASIZE PUSH1 0x4 PUSH2 0x274C JUMP JUMPDEST PUSH2 0x1ECB JUMP JUMPDEST CALLVALUE DUP1 ISZERO PUSH2 0x9D6 JUMPI PUSH0 DUP1 REVERT JUMPDEST POP PUSH2 0x43B PUSH1 0xE SLOAD DUP2 JUMP JUMPDEST CALLVALUE DUP1 ISZERO PUSH2 0x9EB JUMPI PUSH0 DUP1 REVERT JUMPDEST POP PUSH2 0x43B PUSH2 0x9FA CALLDATASIZE PUSH1 0x4 PUSH2 0x292F JUMP JUMPDEST PUSH1 0x1 PUSH1 0x1 PUSH1 0xA0 SHL SUB SWAP2 DUP3 AND PUSH0 SWAP1 DUP2 MSTORE PUSH1 0x8 PUSH1 0x20 SWAP1 DUP2 MSTORE PUSH1 0x40 DUP1 DUP4 KECCAK256 SWAP4 SWAP1 SWAP5 AND DUP3 MSTORE SWAP2 SWAP1 SWAP2 MSTORE KECCAK256 SLOAD SWAP1 JUMP JUMPDEST CALLVALUE DUP1 ISZERO PUSH2 0xA2F JUMPI PUSH0 DUP1 REVERT JUMPDEST POP PUSH2 0x3F7 PUSH2 0xA3E CALLDATASIZE PUSH1 0x4 PUSH2 0x274C JUMP JUMPDEST PUSH2 0x1EFA JUMP JUMPDEST CALLVALUE DUP1 ISZERO PUSH2 0xA4E JUMPI PUSH0 DUP1 REVERT JUMPDEST POP PUSH2 0x43B PUSH2 0x1F07 JUMP JUMPDEST CALLVALUE DUP1 ISZERO PUSH2 0xA62 JUMPI PUSH0 DUP1 REVERT JUMPDEST POP PUSH2 0x3F7 PUSH2 0xA71 CALLDATASIZE PUSH1 0x4 PUSH2 0x2957 JUMP JUMPDEST PUSH2 0x1F42 JUMP JUMPDEST CALLVALUE DUP1 ISZERO PUSH2 0xA81 JUMPI PUSH0 DUP1 REVERT JUMPDEST POP PUSH2 0x3F7 PUSH2 0xA90 CALLDATASIZE PUSH1 0x4 PUSH2 0x26F3 JUMP JUMPDEST PUSH2 0x22E7 JUMP JUMPDEST PUSH1 0x3 DUP1 SLOAD PUSH2 0xAA2 SWAP1 PUSH2 0x2A15 JUMP JUMPDEST DUP1 PUSH1 0x1F ADD PUSH1 0x20 DUP1 SWAP2 DIV MUL PUSH1 0x20 ADD PUSH1 0x40 MLOAD SWAP1 DUP2 ADD PUSH1 0x40 MSTORE DUP1 SWAP3 SWAP2 SWAP1 DUP2 DUP2 MSTORE PUSH1 0x20 ADD DUP3 DUP1 SLOAD PUSH2 0xACE SWAP1 PUSH2 0x2A15 JUMP JUMPDEST DUP1 ISZERO PUSH2 0xB19 JUMPI DUP1 PUSH1 0x1F LT PUSH2 0xAF0 JUMPI PUSH2 0x100 DUP1 DUP4 SLOAD DIV MUL DUP4 MSTORE SWAP2 PUSH1 0x20 ADD SWAP2 PUSH2 0xB19 JUMP JUMPDEST DUP3 ADD SWAP2 SWAP1 PUSH0 MSTORE PUSH1 0x20 PUSH0 KECCAK256 SWAP1 JUMPDEST DUP2 SLOAD DUP2 MSTORE SWAP1 PUSH1 0x1 ADD SWAP1 PUSH1 0x20 ADD DUP1 DUP4 GT PUSH2 0xAFC JUMPI DUP3 SWAP1 SUB PUSH1 0x1F AND DUP3 ADD SWAP2 JUMPDEST POP POP POP POP POP DUP2 JUMP JUMPDEST PUSH0 PUSH2 0xB2D CALLER DUP5 DUP5 PUSH2 0xB37 JUMP JUMPDEST POP PUSH1 0x1 JUMPDEST SWAP3 SWAP2 POP POP JUMP JUMPDEST PUSH1 0x1 PUSH1 0x1 PUSH1 0xA0 SHL SUB DUP4 AND PUSH2 0xB9E JUMPI PUSH1 0x40 MLOAD PUSH3 0x461BCD PUSH1 0xE5 SHL DUP2 MSTORE PUSH1 0x20 PUSH1 0x4 DUP3 ADD MSTORE PUSH1 0x24 DUP1 DUP3 ADD MSTORE PUSH32 0x45524332303A20617070726F76652066726F6D20746865207A65726F20616464 PUSH1 0x44 DUP3 ADD MSTORE PUSH4 0x72657373 PUSH1 0xE0 SHL PUSH1 0x64 DUP3 ADD MSTORE PUSH1 0x84 ADD JUMPDEST PUSH1 0x40 MLOAD DUP1 SWAP2 SUB SWAP1 REVERT JUMPDEST PUSH1 0x1 PUSH1 0x1 PUSH1 0xA0 SHL SUB DUP3 AND PUSH2 0xBFF JUMPI PUSH1 0x40 MLOAD PUSH3 0x461BCD PUSH1 0xE5 SHL DUP2 MSTORE PUSH1 0x20 PUSH1 0x4 DUP3 ADD MSTORE PUSH1 0x22 PUSH1 0x24 DUP3 ADD MSTORE PUSH32 0x45524332303A20617070726F766520746F20746865207A65726F206164647265 PUSH1 0x44 DUP3 ADD MSTORE PUSH2 0x7373 PUSH1 0xF0 SHL PUSH1 0x64 DUP3 ADD MSTORE PUSH1 0x84 ADD PUSH2 0xB95 JUMP JUMPDEST PUSH1 0x1 PUSH1 0x1 PUSH1 0xA0 SHL SUB DUP4 DUP2 AND PUSH0 DUP2 DUP2 MSTORE PUSH1 0x8 PUSH1 0x20 SWAP1 DUP2 MSTORE PUSH1 0x40 DUP1 DUP4 KECCAK256 SWAP5 DUP8 AND DUP1 DUP5 MSTORE SWAP5 DUP3 MSTORE SWAP2 DUP3 SWAP1 KECCAK256 DUP6 SWAP1 SSTORE SWAP1 MLOAD DUP5 DUP2 MSTORE PUSH32 0x8C5BE1E5EBEC7D5BD14F71427D1E84F3DD0314C0F7B2291E5B200AC8C7C3B925 SWAP2 ADD JUMPDEST PUSH1 0x40 MLOAD DUP1 SWAP2 SUB SWAP1 LOG3 POP POP POP JUMP JUMPDEST PUSH0 PUSH1 0xA SLOAD PUSH1 0x6 SLOAD PUSH2 0xC71 SWAP2 SWAP1 PUSH2 0x2A61 JUMP JUMPDEST SWAP1 POP SWAP1 JUMP JUMPDEST PUSH0 PUSH2 0xC82 DUP5 DUP5 DUP5 PUSH2 0xCD8 JUMP JUMPDEST PUSH2 0xCCE DUP5 CALLER PUSH2 0x3F2 DUP6 PUSH1 0x40 MLOAD DUP1 PUSH1 0x60 ADD PUSH1 0x40 MSTORE DUP1 PUSH1 0x28 DUP2 MSTORE PUSH1 0x20 ADD PUSH2 0x2B21 PUSH1 0x28 SWAP2 CODECOPY PUSH1 0x1 PUSH1 0x1 PUSH1 0xA0 SHL SUB DUP11 AND PUSH0 SWAP1 DUP2 MSTORE PUSH1 0x8 PUSH1 0x20 SWAP1 DUP2 MSTORE PUSH1 0x40 DUP1 DUP4 KECCAK256 CALLER DUP5 MSTORE SWAP1 SWAP2 MSTORE SWAP1 KECCAK256 SLOAD SWAP2 SWAP1 PUSH2 0x2324 JUMP JUMPDEST POP PUSH1 0x1 SWAP4 SWAP3 POP POP POP JUMP JUMPDEST PUSH2 0xCE0 PUSH2 0x234F JUMP JUMPDEST PUSH1 0x1 PUSH1 0x1 PUSH1 0xA0 SHL SUB DUP4 AND PUSH2 0xD44 JUMPI PUSH1 0x40 MLOAD PUSH3 0x461BCD PUSH1 0xE5 SHL DUP2 MSTORE PUSH1 0x20 PUSH1 0x4 DUP3 ADD MSTORE PUSH1 0x25 PUSH1 0x24 DUP3 ADD MSTORE PUSH32 0x45524332303A207472616E736665722066726F6D20746865207A65726F206164 PUSH1 0x44 DUP3 ADD MSTORE PUSH5 0x6472657373 PUSH1 0xD8 SHL PUSH1 0x64 DUP3 ADD MSTORE PUSH1 0x84 ADD PUSH2 0xB95 JUMP JUMPDEST PUSH1 0x1 PUSH1 0x1 PUSH1 0xA0 SHL SUB DUP3 AND PUSH2 0xDA6 JUMPI PUSH1 0x40 MLOAD PUSH3 0x461BCD PUSH1 0xE5 SHL DUP2 MSTORE PUSH1 0x20 PUSH1 0x4 DUP3 ADD MSTORE PUSH1 0x23 PUSH1 0x24 DUP3 ADD MSTORE PUSH32 0x45524332303A207472616E7366657220746F20746865207A65726F2061646472 PUSH1 0x44 DUP3 ADD MSTORE PUSH3 0x657373 PUSH1 0xE8 SHL PUSH1 0x64 DUP3 ADD MSTORE PUSH1 0x84 ADD PUSH2 0xB95 JUMP JUMPDEST DUP1 PUSH2 0xDB0 DUP5 PUSH2 0x1BA9 JUMP JUMPDEST LT ISZERO PUSH2 0xDFE JUMPI PUSH1 0x40 MLOAD PUSH3 0x461BCD PUSH1 0xE5 SHL DUP2 MSTORE PUSH1 0x20 PUSH1 0x4 DUP3 ADD MSTORE PUSH1 0x1F PUSH1 0x24 DUP3 ADD MSTORE PUSH32 0x496E73756666696369656E742046756E647320466F72205472616E7366657200 PUSH1 0x44 DUP3 ADD MSTORE PUSH1 0x64 ADD PUSH2 0xB95 JUMP JUMPDEST PUSH1 0x10 SLOAD PUSH2 0xE0A DUP4 PUSH2 0x1BA9 JUMP JUMPDEST LT ISZERO DUP1 ISZERO PUSH2 0xE30 JUMPI POP PUSH1 0x1 PUSH1 0x1 PUSH1 0xA0 SHL SUB DUP3 AND PUSH0 SWAP1 DUP2 MSTORE PUSH1 0x13 PUSH1 0x20 MSTORE PUSH1 0x40 SWAP1 KECCAK256 SLOAD PUSH1 0xFF AND ISZERO JUMPDEST ISZERO PUSH2 0xE7D JUMPI PUSH1 0x40 MLOAD PUSH3 0x461BCD PUSH1 0xE5 SHL DUP2 MSTORE PUSH1 0x20 PUSH1 0x4 DUP3 ADD MSTORE PUSH1 0x18 PUSH1 0x24 DUP3 ADD MSTORE PUSH32 0x486F6C64696E6720546F6B656E73206578636565646564210000000000000000 PUSH1 0x44 DUP3 ADD MSTORE PUSH1 0x64 ADD PUSH2 0xB95 JUMP JUMPDEST PUSH1 0x1 PUSH1 0x1 PUSH1 0xA0 SHL SUB DUP3 AND PUSH0 SWAP1 DUP2 MSTORE PUSH1 0x13 PUSH1 0x20 MSTORE PUSH1 0x40 SWAP1 KECCAK256 SLOAD DUP2 SWAP1 PUSH1 0xFF AND ISZERO DUP1 ISZERO PUSH2 0xEBB JUMPI POP PUSH1 0x10 SLOAD DUP2 PUSH2 0xEAF DUP6 PUSH2 0x1BA9 JUMP JUMPDEST PUSH2 0xEB9 SWAP2 SWAP1 PUSH2 0x2A61 JUMP JUMPDEST GT JUMPDEST ISZERO PUSH2 0xEEE JUMPI PUSH1 0x10 SLOAD DUP2 PUSH2 0xECD DUP6 PUSH2 0x1BA9 JUMP JUMPDEST PUSH2 0xED7 SWAP2 SWAP1 PUSH2 0x2A61 JUMP JUMPDEST PUSH2 0xEE1 SWAP2 SWAP1 PUSH2 0x2A74 JUMP JUMPDEST PUSH2 0xEEB SWAP1 DUP3 PUSH2 0x2A74 JUMP JUMPDEST SWAP1 POP JUMPDEST PUSH0 PUSH2 0xEF8 DUP3 PUSH2 0x1DD1 JUMP JUMPDEST PUSH1 0x1 PUSH1 0x1 PUSH1 0xA0 SHL SUB DUP7 AND PUSH0 SWAP1 DUP2 MSTORE PUSH1 0x12 PUSH1 0x20 MSTORE PUSH1 0x40 SWAP1 KECCAK256 SLOAD SWAP1 SWAP2 POP PUSH1 0xFF AND ISZERO PUSH2 0xF27 JUMPI PUSH2 0xF24 DUP3 PUSH2 0x1DD1 JUMP JUMPDEST SWAP1 POP JUMPDEST PUSH0 PUSH2 0xF3A PUSH1 0x2 SLOAD PUSH1 0x1 PUSH1 0x1 PUSH1 0xA0 SHL SUB AND SWAP1 JUMP JUMPDEST PUSH1 0x1 PUSH1 0x1 PUSH1 0xA0 SHL SUB AND DUP7 PUSH1 0x1 PUSH1 0x1 PUSH1 0xA0 SHL SUB AND EQ ISZERO DUP1 ISZERO PUSH2 0xF72 JUMPI POP PUSH1 0x1 PUSH1 0x1 PUSH1 0xA0 SHL SUB DUP6 AND PUSH0 SWAP1 DUP2 MSTORE PUSH1 0x11 PUSH1 0x20 MSTORE PUSH1 0x40 SWAP1 KECCAK256 SLOAD PUSH1 0xFF AND JUMPDEST ISZERO PUSH2 0xF95 JUMPI PUSH2 0x2710 PUSH1 0xC SLOAD DUP5 PUSH2 0xF88 SWAP2 SWAP1 PUSH2 0x2A87 JUMP JUMPDEST PUSH2 0xF92 SWAP2 SWAP1 PUSH2 0x2A9E JUMP JUMPDEST SWAP1 POP JUMPDEST PUSH0 PUSH2 0xFA0 DUP3 DUP6 PUSH2 0x2A74 JUMP JUMPDEST SWAP1 POP PUSH0 PUSH2 0xFAC DUP3 PUSH2 0x1DD1 JUMP JUMPDEST PUSH1 0x1 PUSH1 0x1 PUSH1 0xA0 SHL SUB DUP9 AND PUSH0 SWAP1 DUP2 MSTORE PUSH1 0x12 PUSH1 0x20 MSTORE PUSH1 0x40 DUP2 KECCAK256 SLOAD SWAP2 SWAP3 POP SWAP1 PUSH1 0xFF AND PUSH2 0xFD5 JUMPI DUP2 PUSH2 0xFDE JUMP JUMPDEST PUSH2 0xFDE DUP4 PUSH2 0x1DD1 JUMP JUMPDEST PUSH1 0x1 PUSH1 0x1 PUSH1 0xA0 SHL SUB DUP11 AND PUSH0 SWAP1 DUP2 MSTORE PUSH1 0x9 PUSH1 0x20 MSTORE PUSH1 0x40 DUP2 KECCAK256 DUP1 SLOAD SWAP3 SWAP4 POP DUP8 SWAP3 SWAP1 SWAP2 SWAP1 PUSH2 0x100A SWAP1 DUP5 SWAP1 PUSH2 0x2A74 JUMP JUMPDEST SWAP1 SWAP2 SSTORE POP POP PUSH1 0x1 PUSH1 0x1 PUSH1 0xA0 SHL SUB DUP9 AND PUSH0 SWAP1 DUP2 MSTORE PUSH1 0x12 PUSH1 0x20 MSTORE PUSH1 0x40 SWAP1 KECCAK256 SLOAD PUSH1 0xFF AND ISZERO PUSH2 0x1061 JUMPI PUSH1 0x1 PUSH1 0x1 PUSH1 0xA0 SHL SUB DUP9 AND PUSH0 SWAP1 DUP2 MSTORE PUSH1 0x9 PUSH1 0x20 MSTORE PUSH1 0x40 DUP2 KECCAK256 DUP1 SLOAD DUP4 SWAP3 SWAP1 PUSH2 0x1056 SWAP1 DUP5 SWAP1 PUSH2 0x2A61 JUMP JUMPDEST SWAP1 SWAP2 SSTORE POP PUSH2 0x108E SWAP1 POP JUMP JUMPDEST PUSH1 0x1 PUSH1 0x1 PUSH1 0xA0 SHL SUB DUP9 AND PUSH0 SWAP1 DUP2 MSTORE PUSH1 0x9 PUSH1 0x20 MSTORE PUSH1 0x40 DUP2 KECCAK256 DUP1 SLOAD DUP5 SWAP3 SWAP1 PUSH2 0x1088 SWAP1 DUP5 SWAP1 PUSH2 0x2A61 JUMP JUMPDEST SWAP1 SWAP2 SSTORE POP POP JUMPDEST DUP4 PUSH1 0xA PUSH0 DUP3 DUP3 SLOAD PUSH2 0x109F SWAP2 SWAP1 PUSH2 0x2A61 JUMP JUMPDEST SWAP3 POP POP DUP2 SWAP1 SSTORE POP DUP4 PUSH1 0x6 PUSH0 DUP3 DUP3 SLOAD PUSH2 0x10B7 SWAP2 SWAP1 PUSH2 0x2A74 JUMP JUMPDEST SWAP3 POP POP DUP2 SWAP1 SSTORE POP DUP8 PUSH1 0x1 PUSH1 0x1 PUSH1 0xA0 SHL SUB AND DUP10 PUSH1 0x1 PUSH1 0x1 PUSH1 0xA0 SHL SUB AND PUSH0 DUP1 MLOAD PUSH1 0x20 PUSH2 0x2B49 DUP4 CODECOPY DUP2 MLOAD SWAP2 MSTORE DUP6 PUSH1 0x40 MLOAD PUSH2 0x10F0 SWAP2 DUP2 MSTORE PUSH1 0x20 ADD SWAP1 JUMP JUMPDEST PUSH1 0x40 MLOAD DUP1 SWAP2 SUB SWAP1 LOG3 DUP4 ISZERO PUSH2 0x1131 JUMPI PUSH1 0xB SLOAD PUSH1 0x40 MLOAD DUP6 DUP2 MSTORE PUSH1 0x1 PUSH1 0x1 PUSH1 0xA0 SHL SUB SWAP2 DUP3 AND SWAP2 DUP12 AND SWAP1 PUSH0 DUP1 MLOAD PUSH1 0x20 PUSH2 0x2B49 DUP4 CODECOPY DUP2 MLOAD SWAP2 MSTORE SWAP1 PUSH1 0x20 ADD PUSH1 0x40 MLOAD DUP1 SWAP2 SUB SWAP1 LOG3 JUMPDEST PUSH1 0x1 PUSH1 0x1 PUSH1 0xA0 SHL SUB DUP10 AND PUSH0 SWAP1 DUP2 MSTORE PUSH1 0x12 PUSH1 0x20 MSTORE PUSH1 0x40 SWAP1 KECCAK256 SLOAD PUSH1 0xFF AND ISZERO DUP1 ISZERO PUSH2 0x1170 JUMPI POP PUSH1 0x1 PUSH1 0x1 PUSH1 0xA0 SHL SUB DUP9 AND PUSH0 SWAP1 DUP2 MSTORE PUSH1 0x12 PUSH1 0x20 MSTORE PUSH1 0x40 SWAP1 KECCAK256 SLOAD PUSH1 0xFF AND JUMPDEST ISZERO PUSH2 0x1191 JUMPI DUP3 PUSH1 0x7 PUSH0 DUP3 DUP3 SLOAD PUSH2 0x1186 SWAP2 SWAP1 PUSH2 0x2A61 JUMP JUMPDEST SWAP1 SWAP2 SSTORE POP PUSH2 0x1226 SWAP1 POP JUMP JUMPDEST PUSH1 0x1 PUSH1 0x1 PUSH1 0xA0 SHL SUB DUP10 AND PUSH0 SWAP1 DUP2 MSTORE PUSH1 0x12 PUSH1 0x20 MSTORE PUSH1 0x40 SWAP1 KECCAK256 SLOAD PUSH1 0xFF AND DUP1 ISZERO PUSH2 0x11D0 JUMPI POP PUSH1 0x1 PUSH1 0x1 PUSH1 0xA0 SHL SUB DUP9 AND PUSH0 SWAP1 DUP2 MSTORE PUSH1 0x12 PUSH1 0x20 MSTORE PUSH1 0x40 SWAP1 KECCAK256 SLOAD PUSH1 0xFF AND ISZERO JUMPDEST ISZERO PUSH2 0x11E6 JUMPI DUP3 PUSH1 0x7 PUSH0 DUP3 DUP3 SLOAD PUSH2 0x1186 SWAP2 SWAP1 PUSH2 0x2A74 JUMP JUMPDEST PUSH1 0x1 PUSH1 0x1 PUSH1 0xA0 SHL SUB DUP10 AND PUSH0 SWAP1 DUP2 MSTORE PUSH1 0x12 PUSH1 0x20 MSTORE PUSH1 0x40 SWAP1 KECCAK256 SLOAD PUSH1 0xFF AND DUP1 ISZERO PUSH2 0x1224 JUMPI POP PUSH1 0x1 PUSH1 0x1 PUSH1 0xA0 SHL SUB DUP9 AND PUSH0 SWAP1 DUP2 MSTORE PUSH1 0x12 PUSH1 0x20 MSTORE PUSH1 0x40 SWAP1 KECCAK256 SLOAD PUSH1 0xFF AND JUMPDEST POP JUMPDEST PUSH1 0xA SLOAD ISZERO PUSH2 0x1247 JUMPI PUSH1 0xA SLOAD PUSH1 0xB SLOAD PUSH2 0x1247 SWAP2 SWAP1 PUSH1 0x1 PUSH1 0x1 PUSH1 0xA0 SHL SUB AND PUSH2 0x1DFF JUMP JUMPDEST POP POP POP POP POP POP POP POP POP JUMP JUMPDEST PUSH1 0x1 PUSH1 0x1 PUSH1 0xA0 SHL SUB DUP3 AND PUSH2 0x12A8 JUMPI PUSH1 0x40 MLOAD PUSH3 0x461BCD PUSH1 0xE5 SHL DUP2 MSTORE PUSH1 0x20 PUSH1 0x4 DUP3 ADD MSTORE PUSH1 0x1A PUSH1 0x24 DUP3 ADD MSTORE PUSH32 0x4163636F756E742073686F756C646E2774206265207A65726F2E000000000000 PUSH1 0x44 DUP3 ADD MSTORE PUSH1 0x64 ADD PUSH2 0xB95 JUMP JUMPDEST PUSH1 0x1 PUSH1 0x1 PUSH1 0xA0 SHL SUB SWAP2 SWAP1 SWAP2 AND PUSH0 SWAP1 DUP2 MSTORE PUSH1 0x13 PUSH1 0x20 MSTORE PUSH1 0x40 SWAP1 KECCAK256 DUP1 SLOAD PUSH1 0xFF NOT AND SWAP2 ISZERO ISZERO SWAP2 SWAP1 SWAP2 OR SWAP1 SSTORE JUMP JUMPDEST CALLER PUSH0 DUP2 DUP2 MSTORE PUSH1 0x8 PUSH1 0x20 SWAP1 DUP2 MSTORE PUSH1 0x40 DUP1 DUP4 KECCAK256 PUSH1 0x1 PUSH1 0x1 PUSH1 0xA0 SHL SUB DUP8 AND DUP5 MSTORE SWAP1 SWAP2 MSTORE DUP2 KECCAK256 SLOAD SWAP1 SWAP2 PUSH2 0xB2D SWAP2 DUP6 SWAP1 PUSH2 0x3F2 SWAP1 DUP7 PUSH2 0x2394 JUMP JUMPDEST PUSH2 0x130F PUSH2 0x23A6 JUMP JUMPDEST PUSH1 0x10 SSTORE JUMP JUMPDEST PUSH2 0x131C PUSH2 0x23A6 JUMP JUMPDEST PUSH2 0x1324 PUSH2 0x23D3 JUMP JUMPDEST JUMP JUMPDEST PUSH1 0xF SLOAD PUSH1 0x15 SLOAD PUSH2 0x1336 SWAP1 TIMESTAMP PUSH2 0x2A74 JUMP JUMPDEST GT PUSH2 0x1383 JUMPI PUSH1 0x40 MLOAD PUSH3 0x461BCD PUSH1 0xE5 SHL DUP2 MSTORE PUSH1 0x20 PUSH1 0x4 DUP3 ADD MSTORE PUSH1 0x1E PUSH1 0x24 DUP3 ADD MSTORE PUSH32 0x4B656570557020726571756972656D656E74206973206E6F74206D6574210000 PUSH1 0x44 DUP3 ADD MSTORE PUSH1 0x64 ADD PUSH2 0xB95 JUMP JUMPDEST PUSH1 0x7 SLOAD PUSH1 0x6 SLOAD LT ISZERO PUSH2 0x13FD JUMPI PUSH1 0x40 MLOAD PUSH3 0x461BCD PUSH1 0xE5 SHL DUP2 MSTORE PUSH1 0x20 PUSH1 0x4 DUP3 ADD MSTORE PUSH1 0x3E PUSH1 0x24 DUP3 ADD MSTORE PUSH32 0x74537570706C79206D7573742062652067726561746572207468616E206F7220 PUSH1 0x44 DUP3 ADD MSTORE PUSH32 0x657175616C20746F206578636C7564654465626173696E67537570706C790000 PUSH1 0x64 DUP3 ADD MSTORE PUSH1 0x84 ADD PUSH2 0xB95 JUMP JUMPDEST PUSH2 0x1405 PUSH2 0x2424 JUMP JUMPDEST POP POP TIMESTAMP PUSH1 0x15 SSTORE JUMP JUMPDEST PUSH1 0x1 PUSH1 0x1 PUSH1 0xA0 SHL SUB DUP3 AND PUSH2 0x1463 JUMPI PUSH1 0x40 MLOAD PUSH3 0x461BCD PUSH1 0xE5 SHL DUP2 MSTORE PUSH1 0x20 PUSH1 0x4 DUP3 ADD MSTORE PUSH1 0x1F PUSH1 0x24 DUP3 ADD MSTORE PUSH32 0x45524332303A206D696E7420746F20746865207A65726F206164647265737300 PUSH1 0x44 DUP3 ADD MSTORE PUSH1 0x64 ADD PUSH2 0xB95 JUMP JUMPDEST DUP1 PUSH1 0x6 PUSH0 DUP3 DUP3 SLOAD PUSH2 0x1474 SWAP2 SWAP1 PUSH2 0x2A61 JUMP JUMPDEST SWAP1 SWAP2 SSTORE POP PUSH0 SWAP1 POP PUSH2 0x1484 DUP3 PUSH2 0x1DD1 JUMP JUMPDEST PUSH1 0x1 PUSH1 0x1 PUSH1 0xA0 SHL SUB DUP5 AND PUSH0 SWAP1 DUP2 MSTORE PUSH1 0x12 PUSH1 0x20 MSTORE PUSH1 0x40 SWAP1 KECCAK256 SLOAD SWAP1 SWAP2 POP PUSH1 0xFF AND ISZERO PUSH2 0x14CA JUMPI DUP2 PUSH1 0x7 PUSH0 DUP3 DUP3 SLOAD PUSH2 0x14B8 SWAP2 SWAP1 PUSH2 0x2A61 JUMP JUMPDEST SWAP1 SWAP2 SSTORE POP PUSH2 0x14C7 SWAP1 POP DUP3 PUSH2 0x1DD1 JUMP JUMPDEST SWAP1 POP JUMPDEST PUSH1 0x1 PUSH1 0x1 PUSH1 0xA0 SHL SUB DUP4 AND PUSH0 SWAP1 DUP2 MSTORE PUSH1 0x9 PUSH1 0x20 MSTORE PUSH1 0x40 DUP2 KECCAK256 DUP1 SLOAD DUP4 SWAP3 SWAP1 PUSH2 0x14F1 SWAP1 DUP5 SWAP1 PUSH2 0x2A61 JUMP JUMPDEST SWAP1 SWAP2 SSTORE POP POP PUSH1 0x40 MLOAD DUP3 DUP2 MSTORE PUSH1 0x1 PUSH1 0x1 PUSH1 0xA0 SHL SUB DUP5 AND SWAP1 PUSH32 0xF6798A560793A54C3BCFE86A93CDE1E73087D944C0EA20544137D4121396885 SWAP1 PUSH1 0x20 ADD PUSH1 0x40 MLOAD DUP1 SWAP2 SUB SWAP1 LOG2 PUSH1 0xB SLOAD PUSH1 0x1 PUSH1 0x1 PUSH1 0xA0 SHL SUB DUP5 DUP2 AND SWAP2 AND EQ PUSH2 0x1573 JUMPI PUSH1 0x40 MLOAD DUP3 DUP2 MSTORE PUSH1 0x1 PUSH1 0x1 PUSH1 0xA0 SHL SUB DUP5 AND SWAP1 PUSH0 SWAP1 PUSH0 DUP1 MLOAD PUSH1 0x20 PUSH2 0x2B49 DUP4 CODECOPY DUP2 MLOAD SWAP2 MSTORE SWAP1 PUSH1 0x20 ADD PUSH2 0xC53 JUMP JUMPDEST POP POP POP JUMP JUMPDEST PUSH2 0x1580 PUSH2 0x23A6 JUMP JUMPDEST TIMESTAMP PUSH1 0x15 SLOAD GT ISZERO PUSH2 0x158E JUMPI PUSH0 DUP1 REVERT JUMPDEST TIMESTAMP PUSH1 0x15 SSTORE JUMP JUMPDEST PUSH1 0x1 PUSH1 0x1 PUSH1 0xA0 SHL SUB DUP3 AND PUSH2 0x15F4 JUMPI PUSH1 0x40 MLOAD PUSH3 0x461BCD PUSH1 0xE5 SHL DUP2 MSTORE PUSH1 0x20 PUSH1 0x4 DUP3 ADD MSTORE PUSH1 0x21 PUSH1 0x24 DUP3 ADD MSTORE PUSH32 0x45524332303A206275726E2066726F6D20746865207A65726F20616464726573 PUSH1 0x44 DUP3 ADD MSTORE PUSH1 0x73 PUSH1 0xF8 SHL PUSH1 0x64 DUP3 ADD MSTORE PUSH1 0x84 ADD PUSH2 0xB95 JUMP JUMPDEST DUP1 PUSH1 0x6 PUSH0 DUP3 DUP3 SLOAD PUSH2 0x1605 SWAP2 SWAP1 PUSH2 0x2A74 JUMP JUMPDEST SWAP1 SWAP2 SSTORE POP PUSH0 SWAP1 POP PUSH2 0x1615 DUP3 PUSH2 0x1DD1 JUMP JUMPDEST PUSH1 0x1 PUSH1 0x1 PUSH1 0xA0 SHL SUB DUP5 AND PUSH0 SWAP1 DUP2 MSTORE PUSH1 0x12 PUSH1 0x20 MSTORE PUSH1 0x40 SWAP1 KECCAK256 SLOAD SWAP1 SWAP2 POP PUSH1 0xFF AND ISZERO PUSH2 0x165B JUMPI DUP2 PUSH1 0x7 PUSH0 DUP3 DUP3 SLOAD PUSH2 0x1649 SWAP2 SWAP1 PUSH2 0x2A74 JUMP JUMPDEST SWAP1 SWAP2 SSTORE POP PUSH2 0x1658 SWAP1 POP DUP3 PUSH2 0x1DD1 JUMP JUMPDEST SWAP1 POP JUMPDEST PUSH1 0x1 PUSH1 0x1 PUSH1 0xA0 SHL SUB DUP4 AND PUSH0 SWAP1 DUP2 MSTORE PUSH1 0x9 PUSH1 0x20 MSTORE PUSH1 0x40 DUP2 KECCAK256 DUP1 SLOAD DUP4 SWAP3 SWAP1 PUSH2 0x1682 SWAP1 DUP5 SWAP1 PUSH2 0x2A74 JUMP JUMPDEST SWAP1 SWAP2 SSTORE POP POP PUSH1 0x40 MLOAD DUP3 DUP2 MSTORE PUSH1 0x1 PUSH1 0x1 PUSH1 0xA0 SHL SUB DUP5 AND SWAP1 PUSH32 0xCC16F5DBB4873280815C1EE09DBD06736CFFCC184412CF7A71A0FDB75D397CA5 SWAP1 PUSH1 0x20 ADD PUSH1 0x40 MLOAD DUP1 SWAP2 SUB SWAP1 LOG2 PUSH1 0x40 MLOAD DUP3 DUP2 MSTORE PUSH0 SWAP1 PUSH1 0x1 PUSH1 0x1 PUSH1 0xA0 SHL SUB DUP6 AND SWAP1 PUSH0 DUP1 MLOAD PUSH1 0x20 PUSH2 0x2B49 DUP4 CODECOPY DUP2 MLOAD SWAP2 MSTORE SWAP1 PUSH1 0x20 ADD PUSH2 0xC53 JUMP JUMPDEST PUSH0 PUSH2 0xB31 PUSH10 0xD3C21BCECCEDA1000000 PUSH2 0x1713 PUSH1 0xE SLOAD DUP6 PUSH2 0x24F2 SWAP1 SWAP2 SWAP1 PUSH4 0xFFFFFFFF AND JUMP JUMPDEST SWAP1 PUSH2 0x24FD JUMP JUMPDEST PUSH2 0x1721 PUSH2 0x23A6 JUMP JUMPDEST PUSH1 0x1 PUSH1 0x1 PUSH1 0xA0 SHL SUB DUP2 AND PUSH2 0x1777 JUMPI PUSH1 0x40 MLOAD PUSH3 0x461BCD PUSH1 0xE5 SHL DUP2 MSTORE PUSH1 0x20 PUSH1 0x4 DUP3 ADD MSTORE PUSH1 0x1D PUSH1 0x24 DUP3 ADD MSTORE PUSH32 0x496E76616C696420616464726573733A207A65726F2061646472657373000000 PUSH1 0x44 DUP3 ADD MSTORE PUSH1 0x64 ADD PUSH2 0xB95 JUMP JUMPDEST PUSH0 DUP2 PUSH1 0x1 PUSH1 0x1 PUSH1 0xA0 SHL SUB AND SELFBALANCE PUSH1 0x40 MLOAD PUSH0 PUSH1 0x40 MLOAD DUP1 DUP4 SUB DUP2 DUP6 DUP8 GAS CALL SWAP3 POP POP POP RETURNDATASIZE DUP1 PUSH0 DUP2 EQ PUSH2 0x17C0 JUMPI PUSH1 0x40 MLOAD SWAP2 POP PUSH1 0x1F NOT PUSH1 0x3F RETURNDATASIZE ADD AND DUP3 ADD PUSH1 0x40 MSTORE RETURNDATASIZE DUP3 MSTORE RETURNDATASIZE PUSH0 PUSH1 0x20 DUP5 ADD RETURNDATACOPY PUSH2 0x17C5 JUMP JUMPDEST PUSH1 0x60 SWAP2 POP JUMPDEST POP POP SWAP1 POP DUP1 PUSH2 0x1808 JUMPI PUSH1 0x40 MLOAD PUSH3 0x461BCD PUSH1 0xE5 SHL DUP2 MSTORE PUSH1 0x20 PUSH1 0x4 DUP3 ADD MSTORE PUSH1 0xF PUSH1 0x24 DUP3 ADD MSTORE PUSH15 0x151C985B9CD9995C8811985A5B1959 PUSH1 0x8A SHL PUSH1 0x44 DUP3 ADD MSTORE PUSH1 0x64 ADD PUSH2 0xB95 JUMP JUMPDEST POP POP JUMP JUMPDEST PUSH2 0x1814 PUSH2 0x234F JUMP JUMPDEST CALLER PUSH0 SWAP1 DUP2 MSTORE PUSH1 0x14 PUSH1 0x20 MSTORE PUSH1 0x40 SWAP1 KECCAK256 SLOAD PUSH1 0xFF AND DUP1 PUSH2 0x183B JUMPI POP PUSH1 0x2 SLOAD PUSH1 0x1 PUSH1 0x1 PUSH1 0xA0 SHL SUB AND CALLER EQ JUMPDEST PUSH2 0x1843 JUMPI PUSH0 DUP1 REVERT JUMPDEST PUSH1 0xA SLOAD ISZERO PUSH2 0x1864 JUMPI PUSH1 0xA SLOAD PUSH1 0xB SLOAD PUSH2 0x1864 SWAP2 SWAP1 PUSH1 0x1 PUSH1 0x1 PUSH1 0xA0 SHL SUB AND PUSH2 0x1DFF JUMP JUMPDEST PUSH1 0x1 PUSH1 0x1 PUSH1 0xA0 SHL SUB DUP3 AND PUSH0 SWAP1 DUP2 MSTORE PUSH1 0x12 PUSH1 0x20 MSTORE PUSH1 0x40 SWAP1 KECCAK256 SLOAD PUSH1 0xFF AND ISZERO PUSH2 0x18BF JUMPI PUSH2 0x188D DUP2 PUSH2 0x1DD1 JUMP JUMPDEST PUSH1 0x1 PUSH1 0x1 PUSH1 0xA0 SHL SUB DUP4 AND PUSH0 SWAP1 DUP2 MSTORE PUSH1 0x9 PUSH1 0x20 MSTORE PUSH1 0x40 DUP2 KECCAK256 DUP1 SLOAD SWAP1 SWAP2 SWAP1 PUSH2 0x18B4 SWAP1 DUP5 SWAP1 PUSH2 0x2A61 JUMP JUMPDEST SWAP1 SWAP2 SSTORE POP PUSH2 0x190D SWAP1 POP JUMP JUMPDEST PUSH2 0x18C8 DUP2 PUSH2 0x1DD1 JUMP JUMPDEST PUSH1 0x1 PUSH1 0x1 PUSH1 0xA0 SHL SUB DUP4 AND PUSH0 SWAP1 DUP2 MSTORE PUSH1 0x9 PUSH1 0x20 MSTORE PUSH1 0x40 DUP2 KECCAK256 DUP1 SLOAD SWAP1 SWAP2 SWAP1 PUSH2 0x18EF SWAP1 DUP5 SWAP1 PUSH2 0x2A61 JUMP JUMPDEST SWAP3 POP POP DUP2 SWAP1 SSTORE POP DUP1 PUSH1 0x7 PUSH0 DUP3 DUP3 SLOAD PUSH2 0x1907 SWAP2 SWAP1 PUSH2 0x2A74 JUMP JUMPDEST SWAP1 SWAP2 SSTORE POP POP JUMPDEST PUSH2 0x1916 DUP2 PUSH2 0x1DD1 JUMP JUMPDEST PUSH1 0xB SLOAD PUSH1 0x1 PUSH1 0x1 PUSH1 0xA0 SHL SUB AND PUSH0 SWAP1 DUP2 MSTORE PUSH1 0x9 PUSH1 0x20 MSTORE PUSH1 0x40 DUP2 KECCAK256 DUP1 SLOAD SWAP1 SWAP2 SWAP1 PUSH2 0x193F SWAP1 DUP5 SWAP1 PUSH2 0x2A74 JUMP JUMPDEST SWAP1 SWAP2 SSTORE POP POP PUSH1 0xB SLOAD PUSH1 0x40 MLOAD DUP3 DUP2 MSTORE PUSH1 0x1 PUSH1 0x1 PUSH1 0xA0 SHL SUB DUP5 DUP2 AND SWAP3 AND SWAP1 PUSH0 DUP1 MLOAD PUSH1 0x20 PUSH2 0x2B49 DUP4 CODECOPY DUP2 MLOAD SWAP2 MSTORE SWAP1 PUSH1 0x20 ADD PUSH1 0x40 MLOAD DUP1 SWAP2 SUB SWAP1 LOG3 POP POP JUMP JUMPDEST PUSH2 0x1981 PUSH2 0x23A6 JUMP JUMPDEST PUSH0 JUMPDEST DUP3 MLOAD DUP2 LT ISZERO PUSH2 0x1573 JUMPI PUSH1 0xB SLOAD DUP4 MLOAD PUSH1 0x1 PUSH1 0x1 PUSH1 0xA0 SHL SUB SWAP1 SWAP2 AND SWAP1 DUP5 SWAP1 DUP4 SWAP1 DUP2 LT PUSH2 0x19AF JUMPI PUSH2 0x19AF PUSH2 0x2ABD JUMP JUMPDEST PUSH1 0x20 MUL PUSH1 0x20 ADD ADD MLOAD PUSH1 0x1 PUSH1 0x1 PUSH1 0xA0 SHL SUB AND SUB PUSH2 0x1A24 JUMPI PUSH1 0x40 MLOAD PUSH3 0x461BCD PUSH1 0xE5 SHL DUP2 MSTORE PUSH1 0x20 PUSH1 0x4 DUP3 ADD MSTORE PUSH1 0x2E PUSH1 0x24 DUP3 ADD MSTORE PUSH32 0x54726561737572792077616C6C65742063616E6E6F7420626520696E636C7564 PUSH1 0x44 DUP3 ADD MSTORE PUSH14 0x656420696E206465626173696E67 PUSH1 0x90 SHL PUSH1 0x64 DUP3 ADD MSTORE PUSH1 0x84 ADD PUSH2 0xB95 JUMP JUMPDEST PUSH2 0x1A47 DUP4 DUP3 DUP2 MLOAD DUP2 LT PUSH2 0x1A39 JUMPI PUSH2 0x1A39 PUSH2 0x2ABD JUMP JUMPDEST PUSH1 0x20 MUL PUSH1 0x20 ADD ADD MLOAD DUP4 PUSH2 0x1AA5 JUMP JUMPDEST PUSH1 0x1 ADD PUSH2 0x1983 JUMP JUMPDEST PUSH0 PUSH1 0x60 PUSH1 0xF SLOAD PUSH1 0x15 SLOAD TIMESTAMP PUSH2 0x1A63 SWAP2 SWAP1 PUSH2 0x2A74 JUMP JUMPDEST GT SWAP2 POP DUP4 DUP4 DUP1 DUP1 PUSH1 0x1F ADD PUSH1 0x20 DUP1 SWAP2 DIV MUL PUSH1 0x20 ADD PUSH1 0x40 MLOAD SWAP1 DUP2 ADD PUSH1 0x40 MSTORE DUP1 SWAP4 SWAP3 SWAP2 SWAP1 DUP2 DUP2 MSTORE PUSH1 0x20 ADD DUP4 DUP4 DUP1 DUP3 DUP5 CALLDATACOPY PUSH0 SWAP3 ADD SWAP2 SWAP1 SWAP2 MSTORE POP SWAP3 SWAP4 POP POP POP POP SWAP3 POP SWAP3 SWAP1 POP JUMP JUMPDEST PUSH1 0x1 PUSH1 0x1 PUSH1 0xA0 SHL SUB DUP3 AND PUSH2 0x1AFB JUMPI PUSH1 0x40 MLOAD PUSH3 0x461BCD PUSH1 0xE5 SHL DUP2 MSTORE PUSH1 0x20 PUSH1 0x4 DUP3 ADD MSTORE PUSH1 0x1A PUSH1 0x24 DUP3 ADD MSTORE PUSH32 0x4163636F756E742073686F756C646E2774206265207A65726F2E000000000000 PUSH1 0x44 DUP3 ADD MSTORE PUSH1 0x64 ADD PUSH2 0xB95 JUMP JUMPDEST PUSH1 0x1 PUSH1 0x1 PUSH1 0xA0 SHL SUB DUP3 AND PUSH0 SWAP1 DUP2 MSTORE PUSH1 0x12 PUSH1 0x20 MSTORE PUSH1 0x40 DUP2 KECCAK256 SLOAD PUSH1 0xFF AND SWAP1 PUSH2 0x1B20 DUP5 PUSH2 0x1BA9 JUMP JUMPDEST SWAP1 POP DUP3 ISZERO ISZERO DUP3 ISZERO ISZERO EQ PUSH2 0x1BA3 JUMPI PUSH1 0x1 PUSH1 0x1 PUSH1 0xA0 SHL SUB DUP5 AND PUSH0 SWAP1 DUP2 MSTORE PUSH1 0x12 PUSH1 0x20 MSTORE PUSH1 0x40 SWAP1 KECCAK256 DUP1 SLOAD PUSH1 0xFF NOT AND DUP5 ISZERO ISZERO OR SWAP1 SSTORE DUP2 ISZERO DUP1 ISZERO PUSH2 0x1B5B JUMPI POP DUP3 JUMPDEST ISZERO PUSH2 0x1B7C JUMPI DUP1 PUSH1 0x7 PUSH0 DUP3 DUP3 SLOAD PUSH2 0x1B71 SWAP2 SWAP1 PUSH2 0x2A61 JUMP JUMPDEST SWAP1 SWAP2 SSTORE POP PUSH2 0x1BA3 SWAP1 POP JUMP JUMPDEST DUP2 DUP1 ISZERO PUSH2 0x1B87 JUMPI POP DUP3 ISZERO JUMPDEST ISZERO PUSH2 0x1BA3 JUMPI DUP1 PUSH1 0x7 PUSH0 DUP3 DUP3 SLOAD PUSH2 0x1B9D SWAP2 SWAP1 PUSH2 0x2A74 JUMP JUMPDEST SWAP1 SWAP2 SSTORE POP POP JUMPDEST POP POP POP POP JUMP JUMPDEST PUSH1 0x1 PUSH1 0x1 PUSH1 0xA0 SHL SUB DUP2 AND PUSH0 SWAP1 DUP2 MSTORE PUSH1 0x12 PUSH1 0x20 MSTORE PUSH1 0x40 DUP2 KECCAK256 SLOAD PUSH1 0xFF AND ISZERO PUSH2 0x1BE7 JUMPI PUSH1 0xB SLOAD PUSH1 0x1 PUSH1 0x1 PUSH1 0xA0 SHL SUB SWAP1 DUP2 AND SWAP1 DUP4 AND SUB PUSH2 0x1BE7 JUMPI PUSH2 0xB31 PUSH2 0x1F07 JUMP JUMPDEST PUSH1 0x1 PUSH1 0x1 PUSH1 0xA0 SHL SUB DUP3 AND PUSH0 SWAP1 DUP2 MSTORE PUSH1 0x9 PUSH1 0x20 MSTORE PUSH1 0x40 SWAP1 KECCAK256 SLOAD PUSH2 0xB31 SWAP1 PUSH2 0x16EF JUMP JUMPDEST PUSH2 0x1C10 PUSH2 0x23A6 JUMP JUMPDEST PUSH2 0x1324 PUSH0 PUSH2 0x2508 JUMP JUMPDEST PUSH2 0x1C21 PUSH2 0x23A6 JUMP JUMPDEST PUSH1 0x1 PUSH1 0x1 PUSH1 0xA0 SHL SUB DUP3 AND PUSH2 0x1C77 JUMPI PUSH1 0x40 MLOAD PUSH3 0x461BCD PUSH1 0xE5 SHL DUP2 MSTORE PUSH1 0x20 PUSH1 0x4 DUP3 ADD MSTORE PUSH1 0x1B PUSH1 0x24 DUP3 ADD MSTORE PUSH32 0x4F70657261746F722073686F756C646E2774206265207A65726F2E0000000000 PUSH1 0x44 DUP3 ADD MSTORE PUSH1 0x64 ADD PUSH2 0xB95 JUMP JUMPDEST PUSH1 0x1 PUSH1 0x1 PUSH1 0xA0 SHL SUB SWAP2 SWAP1 SWAP2 AND PUSH0 SWAP1 DUP2 MSTORE PUSH1 0x14 PUSH1 0x20 MSTORE PUSH1 0x40 SWAP1 KECCAK256 DUP1 SLOAD PUSH1 0xFF NOT AND SWAP2 ISZERO ISZERO SWAP2 SWAP1 SWAP2 OR SWAP1 SSTORE JUMP JUMPDEST PUSH2 0x1CA9 PUSH2 0x23A6 JUMP JUMPDEST PUSH0 JUMPDEST DUP3 MLOAD DUP2 LT ISZERO PUSH2 0x1573 JUMPI PUSH2 0x1CD7 DUP4 DUP3 DUP2 MLOAD DUP2 LT PUSH2 0x1CC9 JUMPI PUSH2 0x1CC9 PUSH2 0x2ABD JUMP JUMPDEST PUSH1 0x20 MUL PUSH1 0x20 ADD ADD MLOAD DUP4 PUSH2 0x1252 JUMP JUMPDEST PUSH1 0x1 ADD PUSH2 0x1CAB JUMP JUMPDEST PUSH2 0x1CE7 PUSH2 0x23A6 JUMP JUMPDEST PUSH1 0x1 PUSH1 0x1 PUSH1 0xA0 SHL SUB DUP3 AND PUSH2 0x1D48 JUMPI PUSH1 0x40 MLOAD PUSH3 0x461BCD PUSH1 0xE5 SHL DUP2 MSTORE PUSH1 0x20 PUSH1 0x4 DUP3 ADD MSTORE PUSH1 0x22 PUSH1 0x24 DUP3 ADD MSTORE PUSH32 0x4C5020506F6F6C20616464726573732073686F756C646E2774206265207A6572 PUSH1 0x44 DUP3 ADD MSTORE PUSH2 0x6F21 PUSH1 0xF0 SHL PUSH1 0x64 DUP3 ADD MSTORE PUSH1 0x84 ADD PUSH2 0xB95 JUMP JUMPDEST PUSH1 0x1 PUSH1 0x1 PUSH1 0xA0 SHL SUB DUP3 AND PUSH0 SWAP1 DUP2 MSTORE PUSH1 0x11 PUSH1 0x20 MSTORE PUSH1 0x40 SWAP1 KECCAK256 DUP1 SLOAD PUSH1 0xFF NOT AND DUP3 ISZERO ISZERO OR SWAP1 SSTORE PUSH2 0x1D75 DUP3 DUP3 PUSH2 0x1AA5 JUMP JUMPDEST PUSH2 0x1808 DUP3 DUP3 PUSH2 0x1252 JUMP JUMPDEST PUSH2 0x1D87 PUSH2 0x23A6 JUMP JUMPDEST PUSH2 0x2710 DUP2 GT ISZERO PUSH2 0x1DA9 JUMPI PUSH1 0x40 MLOAD PUSH3 0x461BCD PUSH1 0xE5 SHL DUP2 MSTORE PUSH1 0x4 ADD PUSH2 0xB95 SWAP1 PUSH2 0x2AD1 JUMP JUMPDEST PUSH1 0xD SSTORE JUMP JUMPDEST PUSH2 0x1DB6 PUSH2 0x23A6 JUMP JUMPDEST PUSH2 0x1324 PUSH2 0x2559 JUMP JUMPDEST PUSH0 PUSH2 0xC71 PUSH1 0x2 SLOAD PUSH1 0x1 PUSH1 0x1 PUSH1 0xA0 SHL SUB AND SWAP1 JUMP JUMPDEST PUSH0 PUSH2 0xB31 PUSH8 0xDE0B6B3A7640000 PUSH2 0x1713 DUP5 PUSH10 0xD3C21BCECCEDA1000000 PUSH2 0x24F2 JUMP JUMPDEST PUSH1 0x4 DUP1 SLOAD PUSH2 0xAA2 SWAP1 PUSH2 0x2A15 JUMP JUMPDEST DUP2 PUSH1 0xA SLOAD LT ISZERO PUSH2 0x1E51 JUMPI PUSH1 0x40 MLOAD PUSH3 0x461BCD PUSH1 0xE5 SHL DUP2 MSTORE PUSH1 0x20 PUSH1 0x4 DUP3 ADD MSTORE PUSH1 0x1D PUSH1 0x24 DUP3 ADD MSTORE PUSH32 0x496E73756666696369656E742042616C616E636520746F20636C61696D000000 PUSH1 0x44 DUP3 ADD MSTORE PUSH1 0x64 ADD PUSH2 0xB95 JUMP JUMPDEST DUP2 PUSH1 0xA PUSH0 DUP3 DUP3 SLOAD PUSH2 0x1E62 SWAP2 SWAP1 PUSH2 0x2A74 JUMP JUMPDEST SWAP1 SWAP2 SSTORE POP PUSH2 0x1808 SWAP1 POP DUP2 DUP4 PUSH2 0x140D JUMP JUMPDEST PUSH0 PUSH2 0xB2D CALLER DUP5 PUSH2 0x3F2 DUP6 PUSH1 0x40 MLOAD DUP1 PUSH1 0x60 ADD PUSH1 0x40 MSTORE DUP1 PUSH1 0x25 DUP2 MSTORE PUSH1 0x20 ADD PUSH2 0x2B69 PUSH1 0x25 SWAP2 CODECOPY CALLER PUSH0 SWAP1 DUP2 MSTORE PUSH1 0x8 PUSH1 0x20 SWAP1 DUP2 MSTORE PUSH1 0x40 DUP1 DUP4 KECCAK256 PUSH1 0x1 PUSH1 0x1 PUSH1 0xA0 SHL SUB DUP14 AND DUP5 MSTORE SWAP1 SWAP2 MSTORE SWAP1 KECCAK256 SLOAD SWAP2 SWAP1 PUSH2 0x2324 JUMP JUMPDEST PUSH0 PUSH2 0xB2D CALLER DUP5 DUP5 PUSH2 0xCD8 JUMP JUMPDEST PUSH2 0x1ED3 PUSH2 0x23A6 JUMP JUMPDEST PUSH2 0x1388 DUP2 GT ISZERO PUSH2 0x1EF5 JUMPI PUSH1 0x40 MLOAD PUSH3 0x461BCD PUSH1 0xE5 SHL DUP2 MSTORE PUSH1 0x4 ADD PUSH2 0xB95 SWAP1 PUSH2 0x2AD1 JUMP JUMPDEST PUSH1 0xC SSTORE JUMP JUMPDEST PUSH2 0x1F02 PUSH2 0x23A6 JUMP JUMPDEST PUSH1 0xF SSTORE JUMP JUMPDEST PUSH1 0xB SLOAD PUSH1 0x1 PUSH1 0x1 PUSH1 0xA0 SHL SUB AND PUSH0 SWAP1 DUP2 MSTORE PUSH1 0x9 PUSH1 0x20 MSTORE PUSH1 0x40 DUP2 KECCAK256 SLOAD DUP2 SWAP1 PUSH2 0x1F2C SWAP1 PUSH2 0x16EF JUMP JUMPDEST SWAP1 POP DUP1 PUSH1 0xA SLOAD PUSH2 0x1F3C SWAP2 SWAP1 PUSH2 0x2A61 JUMP JUMPDEST SWAP2 POP POP SWAP1 JUMP JUMPDEST PUSH2 0x1F4A PUSH2 0x2595 JUMP JUMPDEST PUSH2 0x1F52 PUSH2 0x234F JUMP JUMPDEST DUP1 MLOAD DUP3 MLOAD EQ PUSH2 0x1F9C JUMPI PUSH1 0x40 MLOAD PUSH3 0x461BCD PUSH1 0xE5 SHL DUP2 MSTORE PUSH1 0x20 PUSH1 0x4 DUP3 ADD MSTORE PUSH1 0x16 PUSH1 0x24 DUP3 ADD MSTORE PUSH22 0x82E4E4C2F2E640D8CADCCEE8D040DAD2E6DAC2E8C6D PUSH1 0x53 SHL PUSH1 0x44 DUP3 ADD MSTORE PUSH1 0x64 ADD PUSH2 0xB95 JUMP JUMPDEST PUSH0 DUP1 JUMPDEST DUP3 MLOAD DUP2 LT ISZERO PUSH2 0x1FD7 JUMPI DUP3 DUP2 DUP2 MLOAD DUP2 LT PUSH2 0x1FBA JUMPI PUSH2 0x1FBA PUSH2 0x2ABD JUMP JUMPDEST PUSH1 0x20 MUL PUSH1 0x20 ADD ADD MLOAD DUP3 PUSH2 0x1FCD SWAP2 SWAP1 PUSH2 0x2A61 JUMP JUMPDEST SWAP2 POP PUSH1 0x1 ADD PUSH2 0x1F9F JUMP JUMPDEST POP DUP1 PUSH2 0x1FE2 CALLER PUSH2 0x1BA9 JUMP JUMPDEST LT ISZERO PUSH2 0x2027 JUMPI PUSH1 0x40 MLOAD PUSH3 0x461BCD PUSH1 0xE5 SHL DUP2 MSTORE PUSH1 0x20 PUSH1 0x4 DUP3 ADD MSTORE PUSH1 0x14 PUSH1 0x24 DUP3 ADD MSTORE PUSH20 0x496E73756666696369656E742062616C616E6365 PUSH1 0x60 SHL PUSH1 0x44 DUP3 ADD MSTORE PUSH1 0x64 ADD PUSH2 0xB95 JUMP JUMPDEST PUSH0 JUMPDEST DUP4 MLOAD DUP2 LT ISZERO PUSH2 0x22DC JUMPI DUP3 DUP2 DUP2 MLOAD DUP2 LT PUSH2 0x2044 JUMPI PUSH2 0x2044 PUSH2 0x2ABD JUMP JUMPDEST PUSH1 0x20 MUL PUSH1 0x20 ADD ADD MLOAD PUSH2 0x2055 CALLER PUSH2 0x1BA9 JUMP JUMPDEST GT ISZERO PUSH2 0x22D4 JUMPI CALLER PUSH0 SWAP1 DUP2 MSTORE PUSH1 0x12 PUSH1 0x20 MSTORE PUSH1 0x40 SWAP1 KECCAK256 SLOAD PUSH1 0xFF AND ISZERO PUSH2 0x20EE JUMPI PUSH2 0x2094 DUP4 DUP3 DUP2 MLOAD DUP2 LT PUSH2 0x2087 JUMPI PUSH2 0x2087 PUSH2 0x2ABD JUMP JUMPDEST PUSH1 0x20 MUL PUSH1 0x20 ADD ADD MLOAD PUSH2 0x1DD1 JUMP JUMPDEST CALLER PUSH0 SWAP1 DUP2 MSTORE PUSH1 0x9 PUSH1 0x20 MSTORE PUSH1 0x40 DUP2 KECCAK256 DUP1 SLOAD SWAP1 SWAP2 SWAP1 PUSH2 0x20B2 SWAP1 DUP5 SWAP1 PUSH2 0x2A74 JUMP JUMPDEST SWAP3 POP POP DUP2 SWAP1 SSTORE POP DUP3 DUP2 DUP2 MLOAD DUP2 LT PUSH2 0x20CB JUMPI PUSH2 0x20CB PUSH2 0x2ABD JUMP JUMPDEST PUSH1 0x20 MUL PUSH1 0x20 ADD ADD MLOAD PUSH1 0x7 PUSH0 DUP3 DUP3 SLOAD PUSH2 0x20E3 SWAP2 SWAP1 PUSH2 0x2A74 JUMP JUMPDEST SWAP1 SWAP2 SSTORE POP PUSH2 0x2127 SWAP1 POP JUMP JUMPDEST PUSH2 0x2103 DUP4 DUP3 DUP2 MLOAD DUP2 LT PUSH2 0x2087 JUMPI PUSH2 0x2087 PUSH2 0x2ABD JUMP JUMPDEST CALLER PUSH0 SWAP1 DUP2 MSTORE PUSH1 0x9 PUSH1 0x20 MSTORE PUSH1 0x40 DUP2 KECCAK256 DUP1 SLOAD SWAP1 SWAP2 SWAP1 PUSH2 0x2121 SWAP1 DUP5 SWAP1 PUSH2 0x2A74 JUMP JUMPDEST SWAP1 SWAP2 SSTORE POP POP JUMPDEST PUSH1 0x12 PUSH0 DUP6 DUP4 DUP2 MLOAD DUP2 LT PUSH2 0x213C JUMPI PUSH2 0x213C PUSH2 0x2ABD JUMP JUMPDEST PUSH1 0x20 SWAP1 DUP2 MUL SWAP2 SWAP1 SWAP2 ADD DUP2 ADD MLOAD PUSH1 0x1 PUSH1 0x1 PUSH1 0xA0 SHL SUB AND DUP3 MSTORE DUP2 ADD SWAP2 SWAP1 SWAP2 MSTORE PUSH1 0x40 ADD PUSH0 KECCAK256 SLOAD PUSH1 0xFF AND ISZERO PUSH2 0x2202 JUMPI PUSH2 0x217C DUP4 DUP3 DUP2 MLOAD DUP2 LT PUSH2 0x2087 JUMPI PUSH2 0x2087 PUSH2 0x2ABD JUMP JUMPDEST PUSH1 0x9 PUSH0 DUP7 DUP5 DUP2 MLOAD DUP2 LT PUSH2 0x2191 JUMPI PUSH2 0x2191 PUSH2 0x2ABD JUMP JUMPDEST PUSH1 0x20 MUL PUSH1 0x20 ADD ADD MLOAD PUSH1 0x1 PUSH1 0x1 PUSH1 0xA0 SHL SUB AND PUSH1 0x1 PUSH1 0x1 PUSH1 0xA0 SHL SUB AND DUP2 MSTORE PUSH1 0x20 ADD SWAP1 DUP2 MSTORE PUSH1 0x20 ADD PUSH0 KECCAK256 PUSH0 DUP3 DUP3 SLOAD PUSH2 0x21C6 SWAP2 SWAP1 PUSH2 0x2A61 JUMP JUMPDEST SWAP3 POP POP DUP2 SWAP1 SSTORE POP DUP3 DUP2 DUP2 MLOAD DUP2 LT PUSH2 0x21DF JUMPI PUSH2 0x21DF PUSH2 0x2ABD JUMP JUMPDEST PUSH1 0x20 MUL PUSH1 0x20 ADD ADD MLOAD PUSH1 0x7 PUSH0 DUP3 DUP3 SLOAD PUSH2 0x21F7 SWAP2 SWAP1 PUSH2 0x2A61 JUMP JUMPDEST SWAP1 SWAP2 SSTORE POP PUSH2 0x2267 SWAP1 POP JUMP JUMPDEST PUSH2 0x2217 DUP4 DUP3 DUP2 MLOAD DUP2 LT PUSH2 0x2087 JUMPI PUSH2 0x2087 PUSH2 0x2ABD JUMP JUMPDEST PUSH1 0x9 PUSH0 DUP7 DUP5 DUP2 MLOAD DUP2 LT PUSH2 0x222C JUMPI PUSH2 0x222C PUSH2 0x2ABD JUMP JUMPDEST PUSH1 0x20 MUL PUSH1 0x20 ADD ADD MLOAD PUSH1 0x1 PUSH1 0x1 PUSH1 0xA0 SHL SUB AND PUSH1 0x1 PUSH1 0x1 PUSH1 0xA0 SHL SUB AND DUP2 MSTORE PUSH1 0x20 ADD SWAP1 DUP2 MSTORE PUSH1 0x20 ADD PUSH0 KECCAK256 PUSH0 DUP3 DUP3 SLOAD PUSH2 0x2261 SWAP2 SWAP1 PUSH2 0x2A61 JUMP JUMPDEST SWAP1 SWAP2 SSTORE POP POP JUMPDEST DUP4 DUP2 DUP2 MLOAD DUP2 LT PUSH2 0x2279 JUMPI PUSH2 0x2279 PUSH2 0x2ABD JUMP JUMPDEST PUSH1 0x20 MUL PUSH1 0x20 ADD ADD MLOAD PUSH1 0x1 PUSH1 0x1 PUSH1 0xA0 SHL SUB AND CALLER PUSH1 0x1 PUSH1 0x1 PUSH1 0xA0 SHL SUB AND PUSH0 DUP1 MLOAD PUSH1 0x20 PUSH2 0x2B49 DUP4 CODECOPY DUP2 MLOAD SWAP2 MSTORE DUP6 DUP5 DUP2 MLOAD DUP2 LT PUSH2 0x22B4 JUMPI PUSH2 0x22B4 PUSH2 0x2ABD JUMP JUMPDEST PUSH1 0x20 MUL PUSH1 0x20 ADD ADD MLOAD PUSH1 0x40 MLOAD PUSH2 0x22CB SWAP2 DUP2 MSTORE PUSH1 0x20 ADD SWAP1 JUMP JUMPDEST PUSH1 0x40 MLOAD DUP1 SWAP2 SUB SWAP1 LOG3 JUMPDEST PUSH1 0x1 ADD PUSH2 0x2029 JUMP JUMPDEST POP POP PUSH2 0x1808 PUSH1 0x1 DUP1 SSTORE JUMP JUMPDEST PUSH2 0x22EF PUSH2 0x23A6 JUMP JUMPDEST PUSH1 0x1 PUSH1 0x1 PUSH1 0xA0 SHL SUB DUP2 AND PUSH2 0x2318 JUMPI PUSH1 0x40 MLOAD PUSH4 0x1E4FBDF7 PUSH1 0xE0 SHL DUP2 MSTORE PUSH0 PUSH1 0x4 DUP3 ADD MSTORE PUSH1 0x24 ADD PUSH2 0xB95 JUMP JUMPDEST PUSH2 0x2321 DUP2 PUSH2 0x2508 JUMP JUMPDEST POP JUMP JUMPDEST PUSH0 DUP2 DUP5 DUP5 GT ISZERO PUSH2 0x2347 JUMPI PUSH1 0x40 MLOAD PUSH3 0x461BCD PUSH1 0xE5 SHL DUP2 MSTORE PUSH1 0x4 ADD PUSH2 0xB95 SWAP2 SWAP1 PUSH2 0x2664 JUMP JUMPDEST POP POP POP SWAP1 SUB SWAP1 JUMP JUMPDEST PUSH0 SLOAD PUSH1 0xFF AND ISZERO PUSH2 0x1324 JUMPI PUSH1 0x40 MLOAD PUSH3 0x461BCD PUSH1 0xE5 SHL DUP2 MSTORE PUSH1 0x20 PUSH1 0x4 DUP3 ADD MSTORE PUSH1 0x10 PUSH1 0x24 DUP3 ADD MSTORE PUSH16 0x14185D5CD8589B194E881C185D5CD959 PUSH1 0x82 SHL PUSH1 0x44 DUP3 ADD MSTORE PUSH1 0x64 ADD PUSH2 0xB95 JUMP JUMPDEST PUSH0 PUSH2 0x239F DUP3 DUP5 PUSH2 0x2A61 JUMP JUMPDEST SWAP4 SWAP3 POP POP POP JUMP JUMPDEST PUSH1 0x2 SLOAD PUSH1 0x1 PUSH1 0x1 PUSH1 0xA0 SHL SUB AND CALLER EQ PUSH2 0x1324 JUMPI PUSH1 0x40 MLOAD PUSH4 0x118CDAA7 PUSH1 0xE0 SHL DUP2 MSTORE CALLER PUSH1 0x4 DUP3 ADD MSTORE PUSH1 0x24 ADD PUSH2 0xB95 JUMP JUMPDEST PUSH2 0x23DB PUSH2 0x25EE JUMP JUMPDEST PUSH0 DUP1 SLOAD PUSH1 0xFF NOT AND SWAP1 SSTORE PUSH32 0x5DB9EE0A495BF2E6FF9C91A7834C1BA4FDD244A5E8AA4E537BD38AEAE4B073AA CALLER JUMPDEST PUSH1 0x40 MLOAD PUSH1 0x1 PUSH1 0x1 PUSH1 0xA0 SHL SUB SWAP1 SWAP2 AND DUP2 MSTORE PUSH1 0x20 ADD PUSH1 0x40 MLOAD DUP1 SWAP2 SUB SWAP1 LOG1 JUMP JUMPDEST PUSH2 0x242C PUSH2 0x234F JUMP JUMPDEST PUSH0 PUSH2 0x2710 PUSH8 0xDE0B6B3A7640000 PUSH1 0xD SLOAD PUSH2 0x2446 SWAP2 SWAP1 PUSH2 0x2A87 JUMP JUMPDEST PUSH2 0x2450 SWAP2 SWAP1 PUSH2 0x2A9E JUMP JUMPDEST SWAP1 POP PUSH0 PUSH1 0x7 SLOAD PUSH1 0x6 SLOAD PUSH2 0x2463 SWAP2 SWAP1 PUSH2 0x2A74 JUMP JUMPDEST SWAP1 POP PUSH8 0xDE0B6B3A7640000 PUSH2 0x2478 DUP4 DUP3 PUSH2 0x2A74 JUMP JUMPDEST PUSH1 0xE SLOAD PUSH2 0x2485 SWAP2 SWAP1 PUSH2 0x2A87 JUMP JUMPDEST PUSH2 0x248F SWAP2 SWAP1 PUSH2 0x2A9E JUMP JUMPDEST PUSH1 0xE SSTORE PUSH0 PUSH8 0xDE0B6B3A7640000 PUSH2 0x24A6 DUP5 DUP3 PUSH2 0x2A74 JUMP JUMPDEST PUSH2 0x24B0 SWAP1 DUP5 PUSH2 0x2A87 JUMP JUMPDEST PUSH2 0x24BA SWAP2 SWAP1 PUSH2 0x2A9E JUMP JUMPDEST SWAP1 POP PUSH0 PUSH2 0x24C7 DUP3 DUP5 PUSH2 0x2A74 JUMP JUMPDEST SWAP1 POP DUP1 PUSH1 0xA PUSH0 DUP3 DUP3 SLOAD PUSH2 0x24DA SWAP2 SWAP1 PUSH2 0x2A61 JUMP JUMPDEST SWAP3 POP POP DUP2 SWAP1 SSTORE POP DUP1 PUSH1 0x6 PUSH0 DUP3 DUP3 SLOAD PUSH2 0x1B9D SWAP2 SWAP1 PUSH2 0x2A74 JUMP JUMPDEST PUSH0 PUSH2 0x239F DUP3 DUP5 PUSH2 0x2A87 JUMP JUMPDEST PUSH0 PUSH2 0x239F DUP3 DUP5 PUSH2 0x2A9E JUMP JUMPDEST PUSH1 0x2 DUP1 SLOAD PUSH1 0x1 PUSH1 0x1 PUSH1 0xA0 SHL SUB DUP4 DUP2 AND PUSH1 0x1 PUSH1 0x1 PUSH1 0xA0 SHL SUB NOT DUP4 AND DUP2 OR SWAP1 SWAP4 SSTORE PUSH1 0x40 MLOAD SWAP2 AND SWAP2 SWAP1 DUP3 SWAP1 PUSH32 0x8BE0079C531659141344CD1FD0A4F28419497F9722A3DAAFE3B4186F6B6457E0 SWAP1 PUSH0 SWAP1 LOG3 POP POP JUMP JUMPDEST PUSH2 0x2561 PUSH2 0x234F JUMP JUMPDEST PUSH0 DUP1 SLOAD PUSH1 0xFF NOT AND PUSH1 0x1 OR SWAP1 SSTORE PUSH32 0x62E78CEA01BEE320CD4E420270B5EA74000D11B0C9F74754EBDBFC544B05A258 PUSH2 0x2407 CALLER SWAP1 JUMP JUMPDEST PUSH1 0x2 PUSH1 0x1 SLOAD SUB PUSH2 0x25E7 JUMPI PUSH1 0x40 MLOAD PUSH3 0x461BCD PUSH1 0xE5 SHL DUP2 MSTORE PUSH1 0x20 PUSH1 0x4 DUP3 ADD MSTORE PUSH1 0x1F PUSH1 0x24 DUP3 ADD MSTORE PUSH32 0x5265656E7472616E637947756172643A207265656E7472616E742063616C6C00 PUSH1 0x44 DUP3 ADD MSTORE PUSH1 0x64 ADD PUSH2 0xB95 JUMP JUMPDEST PUSH1 0x2 PUSH1 0x1 SSTORE JUMP JUMPDEST PUSH0 SLOAD PUSH1 0xFF AND PUSH2 0x1324 JUMPI PUSH1 0x40 MLOAD PUSH3 0x461BCD PUSH1 0xE5 SHL DUP2 MSTORE PUSH1 0x20 PUSH1 0x4 DUP3 ADD MSTORE PUSH1 0x14 PUSH1 0x24 DUP3 ADD MSTORE PUSH20 0x14185D5CD8589B194E881B9BDD081C185D5CD959 PUSH1 0x62 SHL PUSH1 0x44 DUP3 ADD MSTORE PUSH1 0x64 ADD PUSH2 0xB95 JUMP JUMPDEST PUSH0 DUP2 MLOAD DUP1 DUP5 MSTORE DUP1 PUSH1 0x20 DUP5 ADD PUSH1 0x20 DUP7 ADD MCOPY PUSH0 PUSH1 0x20 DUP3 DUP7 ADD ADD MSTORE PUSH1 0x20 PUSH1 0x1F NOT PUSH1 0x1F DUP4 ADD AND DUP6 ADD ADD SWAP2 POP POP SWAP3 SWAP2 POP POP JUMP JUMPDEST PUSH1 0x20 DUP2 MSTORE PUSH0 PUSH2 0x239F PUSH1 0x20 DUP4 ADD DUP5 PUSH2 0x2636 JUMP JUMPDEST DUP1 CALLDATALOAD PUSH1 0x1 PUSH1 0x1 PUSH1 0xA0 SHL SUB DUP2 AND DUP2 EQ PUSH2 0x268C JUMPI PUSH0 DUP1 REVERT JUMPDEST SWAP2 SWAP1 POP JUMP JUMPDEST PUSH0 DUP1 PUSH1 0x40 DUP4 DUP6 SUB SLT ISZERO PUSH2 0x26A2 JUMPI PUSH0 DUP1 REVERT JUMPDEST PUSH2 0x26AB DUP4 PUSH2 0x2676 JUMP JUMPDEST SWAP5 PUSH1 0x20 SWAP4 SWAP1 SWAP4 ADD CALLDATALOAD SWAP4 POP POP POP JUMP JUMPDEST PUSH0 DUP1 PUSH0 PUSH1 0x60 DUP5 DUP7 SUB SLT ISZERO PUSH2 0x26CB JUMPI PUSH0 DUP1 REVERT JUMPDEST PUSH2 0x26D4 DUP5 PUSH2 0x2676 JUMP JUMPDEST SWAP3 POP PUSH2 0x26E2 PUSH1 0x20 DUP6 ADD PUSH2 0x2676 JUMP JUMPDEST SWAP3 SWAP6 SWAP3 SWAP5 POP POP POP PUSH1 0x40 SWAP2 SWAP1 SWAP2 ADD CALLDATALOAD SWAP1 JUMP JUMPDEST PUSH0 PUSH1 0x20 DUP3 DUP5 SUB SLT ISZERO PUSH2 0x2703 JUMPI PUSH0 DUP1 REVERT JUMPDEST PUSH2 0x239F DUP3 PUSH2 0x2676 JUMP JUMPDEST DUP1 CALLDATALOAD DUP1 ISZERO ISZERO DUP2 EQ PUSH2 0x268C JUMPI PUSH0 DUP1 REVERT JUMPDEST PUSH0 DUP1 PUSH1 0x40 DUP4 DUP6 SUB SLT ISZERO PUSH2 0x272C JUMPI PUSH0 DUP1 REVERT JUMPDEST PUSH2 0x2735 DUP4 PUSH2 0x2676 JUMP JUMPDEST SWAP2 POP PUSH2 0x2743 PUSH1 0x20 DUP5 ADD PUSH2 0x270C JUMP JUMPDEST SWAP1 POP SWAP3 POP SWAP3 SWAP1 POP JUMP JUMPDEST PUSH0 PUSH1 0x20 DUP3 DUP5 SUB SLT ISZERO PUSH2 0x275C JUMPI PUSH0 DUP1 REVERT JUMPDEST POP CALLDATALOAD SWAP2 SWAP1 POP JUMP JUMPDEST PUSH0 DUP1 PUSH1 0x20 DUP4 DUP6 SUB SLT ISZERO PUSH2 0x2774 JUMPI PUSH0 DUP1 REVERT JUMPDEST DUP3 CALLDATALOAD PUSH8 0xFFFFFFFFFFFFFFFF DUP2 GT ISZERO PUSH2 0x278A JUMPI PUSH0 DUP1 REVERT JUMPDEST DUP4 ADD PUSH1 0x1F DUP2 ADD DUP6 SGT PUSH2 0x279A JUMPI PUSH0 DUP1 REVERT JUMPDEST DUP1 CALLDATALOAD PUSH8 0xFFFFFFFFFFFFFFFF DUP2 GT ISZERO PUSH2 0x27B0 JUMPI PUSH0 DUP1 REVERT JUMPDEST DUP6 PUSH1 0x20 DUP3 DUP5 ADD ADD GT ISZERO PUSH2 0x27C1 JUMPI PUSH0 DUP1 REVERT JUMPDEST PUSH1 0x20 SWAP2 SWAP1 SWAP2 ADD SWAP6 SWAP1 SWAP5 POP SWAP3 POP POP POP JUMP JUMPDEST PUSH4 0x4E487B71 PUSH1 0xE0 SHL PUSH0 MSTORE PUSH1 0x41 PUSH1 0x4 MSTORE PUSH1 0x24 PUSH0 REVERT JUMPDEST PUSH1 0x40 MLOAD PUSH1 0x1F DUP3 ADD PUSH1 0x1F NOT AND DUP2 ADD PUSH8 0xFFFFFFFFFFFFFFFF DUP2 GT DUP3 DUP3 LT OR ISZERO PUSH2 0x280E JUMPI PUSH2 0x280E PUSH2 0x27D1 JUMP JUMPDEST PUSH1 0x40 MSTORE SWAP2 SWAP1 POP JUMP JUMPDEST PUSH0 PUSH8 0xFFFFFFFFFFFFFFFF DUP3 GT ISZERO PUSH2 0x282F JUMPI PUSH2 0x282F PUSH2 0x27D1 JUMP JUMPDEST POP PUSH1 0x5 SHL PUSH1 0x20 ADD SWAP1 JUMP JUMPDEST PUSH0 DUP3 PUSH1 0x1F DUP4 ADD SLT PUSH2 0x2848 JUMPI PUSH0 DUP1 REVERT JUMPDEST DUP2 CALLDATALOAD PUSH2 0x285B PUSH2 0x2856 DUP3 PUSH2 0x2816 JUMP JUMPDEST PUSH2 0x27E5 JUMP JUMPDEST DUP1 DUP3 DUP3 MSTORE PUSH1 0x20 DUP3 ADD SWAP2 POP PUSH1 0x20 DUP4 PUSH1 0x5 SHL DUP7 ADD ADD SWAP3 POP DUP6 DUP4 GT ISZERO PUSH2 0x287C JUMPI PUSH0 DUP1 REVERT JUMPDEST PUSH1 0x20 DUP6 ADD JUMPDEST DUP4 DUP2 LT ISZERO PUSH2 0x28A0 JUMPI PUSH2 0x2892 DUP2 PUSH2 0x2676 JUMP JUMPDEST DUP4 MSTORE PUSH1 0x20 SWAP3 DUP4 ADD SWAP3 ADD PUSH2 0x2881 JUMP JUMPDEST POP SWAP6 SWAP5 POP POP POP POP POP JUMP JUMPDEST PUSH0 DUP1 PUSH1 0x40 DUP4 DUP6 SUB SLT ISZERO PUSH2 0x28BB JUMPI PUSH0 DUP1 REVERT JUMPDEST DUP3 CALLDATALOAD PUSH8 0xFFFFFFFFFFFFFFFF DUP2 GT ISZERO PUSH2 0x28D1 JUMPI PUSH0 DUP1 REVERT JUMPDEST PUSH2 0x28DD DUP6 DUP3 DUP7 ADD PUSH2 0x2839 JUMP JUMPDEST SWAP3 POP POP PUSH2 0x2743 PUSH1 0x20 DUP5 ADD PUSH2 0x270C JUMP JUMPDEST DUP3 ISZERO ISZERO DUP2 MSTORE PUSH1 0x40 PUSH1 0x20 DUP3 ADD MSTORE PUSH0 PUSH2 0x2906 PUSH1 0x40 DUP4 ADD DUP5 PUSH2 0x2636 JUMP JUMPDEST SWAP5 SWAP4 POP POP POP POP JUMP JUMPDEST PUSH0 DUP1 PUSH1 0x40 DUP4 DUP6 SUB SLT ISZERO PUSH2 0x291F JUMPI PUSH0 DUP1 REVERT JUMPDEST DUP3 CALLDATALOAD SWAP2 POP PUSH2 0x2743 PUSH1 0x20 DUP5 ADD PUSH2 0x2676 JUMP JUMPDEST PUSH0 DUP1 PUSH1 0x40 DUP4 DUP6 SUB SLT ISZERO PUSH2 0x2940 JUMPI PUSH0 DUP1 REVERT JUMPDEST PUSH2 0x2949 DUP4 PUSH2 0x2676 JUMP JUMPDEST SWAP2 POP PUSH2 0x2743 PUSH1 0x20 DUP5 ADD PUSH2 0x2676 JUMP JUMPDEST PUSH0 DUP1 PUSH1 0x40 DUP4 DUP6 SUB SLT ISZERO PUSH2 0x2968 JUMPI PUSH0 DUP1 REVERT JUMPDEST DUP3 CALLDATALOAD PUSH8 0xFFFFFFFFFFFFFFFF DUP2 GT ISZERO PUSH2 0x297E JUMPI PUSH0 DUP1 REVERT JUMPDEST PUSH2 0x298A DUP6 DUP3 DUP7 ADD PUSH2 0x2839 JUMP JUMPDEST SWAP3 POP POP PUSH1 0x20 DUP4 ADD CALLDATALOAD PUSH8 0xFFFFFFFFFFFFFFFF DUP2 GT ISZERO PUSH2 0x29A6 JUMPI PUSH0 DUP1 REVERT JUMPDEST DUP4 ADD PUSH1 0x1F DUP2 ADD DUP6 SGT PUSH2 0x29B6 JUMPI PUSH0 DUP1 REVERT JUMPDEST DUP1 CALLDATALOAD PUSH2 0x29C4 PUSH2 0x2856 DUP3 PUSH2 0x2816 JUMP JUMPDEST DUP1 DUP3 DUP3 MSTORE PUSH1 0x20 DUP3 ADD SWAP2 POP PUSH1 0x20 DUP4 PUSH1 0x5 SHL DUP6 ADD ADD SWAP3 POP DUP8 DUP4 GT ISZERO PUSH2 0x29E5 JUMPI PUSH0 DUP1 REVERT JUMPDEST PUSH1 0x20 DUP5 ADD SWAP4 POP JUMPDEST DUP3 DUP5 LT ISZERO PUSH2 0x2A07 JUMPI DUP4 CALLDATALOAD DUP3 MSTORE PUSH1 0x20 SWAP4 DUP5 ADD SWAP4 SWAP1 SWAP2 ADD SWAP1 PUSH2 0x29EC JUMP JUMPDEST DUP1 SWAP5 POP POP POP POP POP SWAP3 POP SWAP3 SWAP1 POP JUMP JUMPDEST PUSH1 0x1 DUP2 DUP2 SHR SWAP1 DUP3 AND DUP1 PUSH2 0x2A29 JUMPI PUSH1 0x7F DUP3 AND SWAP2 POP JUMPDEST PUSH1 0x20 DUP3 LT DUP2 SUB PUSH2 0x2A47 JUMPI PUSH4 0x4E487B71 PUSH1 0xE0 SHL PUSH0 MSTORE PUSH1 0x22 PUSH1 0x4 MSTORE PUSH1 0x24 PUSH0 REVERT JUMPDEST POP SWAP2 SWAP1 POP JUMP JUMPDEST PUSH4 0x4E487B71 PUSH1 0xE0 SHL PUSH0 MSTORE PUSH1 0x11 PUSH1 0x4 MSTORE PUSH1 0x24 PUSH0 REVERT JUMPDEST DUP1 DUP3 ADD DUP1 DUP3 GT ISZERO PUSH2 0xB31 JUMPI PUSH2 0xB31 PUSH2 0x2A4D JUMP JUMPDEST DUP2 DUP2 SUB DUP2 DUP2 GT ISZERO PUSH2 0xB31 JUMPI PUSH2 0xB31 PUSH2 0x2A4D JUMP JUMPDEST DUP1 DUP3 MUL DUP2 ISZERO DUP3 DUP3 DIV DUP5 EQ OR PUSH2 0xB31 JUMPI PUSH2 0xB31 PUSH2 0x2A4D JUMP JUMPDEST PUSH0 DUP3 PUSH2 0x2AB8 JUMPI PUSH4 0x4E487B71 PUSH1 0xE0 SHL PUSH0 MSTORE PUSH1 0x12 PUSH1 0x4 MSTORE PUSH1 0x24 PUSH0 REVERT JUMPDEST POP DIV SWAP1 JUMP JUMPDEST PUSH4 0x4E487B71 PUSH1 0xE0 SHL PUSH0 MSTORE PUSH1 0x32 PUSH1 0x4 MSTORE PUSH1 0x24 PUSH0 REVERT JUMPDEST PUSH1 0x20 DUP1 DUP3 MSTORE PUSH1 0x2F SWAP1 DUP3 ADD MSTORE PUSH32 0x526174652073686F756C64206265206C657373207468616E2050455243454E54 PUSH1 0x40 DUP3 ADD MSTORE PUSH15 0x20A3A2AFA222A727A6A4A720AA27A9 PUSH1 0x89 SHL PUSH1 0x60 DUP3 ADD MSTORE PUSH1 0x80 ADD SWAP1 JUMP INVALID GASLIMIT MSTORE NUMBER ORIGIN ADDRESS GASPRICE KECCAK256 PUSH21 0x72616E7366657220616D6F756E7420657863656564 PUSH20 0x20616C6C6F77616E6365DDF252AD1BE2C89B69C2 0xB0 PUSH9 0xFC378DAA952BA7F163 0xC4 LOG1 AND 0x28 CREATE2 GAS 0x4D CREATE2 0x23 0xB3 0xEF GASLIMIT MSTORE NUMBER ORIGIN ADDRESS GASPRICE KECCAK256 PUSH5 0x6563726561 PUSH20 0x656420616C6C6F77616E63652062656C6F77207A PUSH6 0x726FA2646970 PUSH7 0x73582212205372 0xEF SUB 0xB5 0xEB PUSH27 0x4B0DB0845B3856162FB806FFA8277192CCFE2519B503EAA8906473 PUSH16 0x6C634300081A00330000000000000000 "
				},
				"gasEstimates": {
					"creation": {
						"codeDepositCost": "2240600",
						"executionCost": "infinite",
						"totalCost": "infinite"
					},
					"external": {
						"PERCENTAGE_DENOMINATOR()": "261",
						"TOKEN_DECIMALS()": "306",
						"TOKEN_public_DECIMALS()": "305",
						"_approve(address,address,uint256)": "infinite",
						"_burn(address,uint256)": "infinite",
						"_debaseTokenToFragment(uint256)": "infinite",
						"_excludedFromDebasing(address,bool)": "infinite",
						"_excludedFromHoldingLimit(address,bool)": "infinite",
						"_fragmentToDebaseToken(uint256)": "infinite",
						"_mint(address,uint256)": "infinite",
						"_sendTokensTreasuryWallet(uint256,address)": "infinite",
						"_transfer(address,address,uint256)": "infinite",
						"_treasuryBalanceOf()": "infinite",
						"allowance(address,address)": "infinite",
						"approve(address,uint256)": "24686",
						"balanceOf(address)": "infinite",
						"balanceOfUnderlying(address)": "2646",
						"checkUpkeep(bytes)": "infinite",
						"claimFromTreasury(address,uint256)": "infinite",
						"debaseDuration()": "2428",
						"debaseRate()": "2363",
						"decimals()": "2401",
						"decreaseAllowance(address,uint256)": "infinite",
						"excludeDebasingSupply()": "2427",
						"getOwner()": "2479",
						"holdingLimit()": "2384",
						"increaseAllowance(address,uint256)": "infinite",
						"isExcludedFromDebasing(address)": "2618",
						"isExcludedFromHoldingLimit(address)": "2617",
						"lastTimeStamp()": "2363",
						"lpPools(address)": "2597",
						"multiAirdropTokenRequested(address[],uint256[])": "infinite",
						"multiExcludedFromDebasing(address[],bool)": "infinite",
						"multiExcludedFromHoldingLimit(address[],bool)": "infinite",
						"name()": "infinite",
						"owner()": "2441",
						"pause()": "infinite",
						"paused()": "2436",
						"performUpkeep(bytes)": "infinite",
						"renounceOwnership()": "infinite",
						"sellTaxRate()": "2429",
						"setLastTime()": "26605",
						"symbol()": "infinite",
						"tokenScalingFactor()": "2405",
						"totalSupply()": "4582",
						"transfer(address,uint256)": "infinite",
						"transferFrom(address,address,uint256)": "infinite",
						"transferOwnership(address)": "28465",
						"treasuryOperator(address)": "2596",
						"treasuryWallet()": "2404",
						"unpause()": "infinite",
						"updateDebaseDuration(uint256)": "24552",
						"updateDebaseRate(uint256)": "24646",
						"updateHoldingLimit(uint256)": "24620",
						"updateLPPool(address,bool)": "infinite",
						"updateSellTaxRate(uint256)": "24601",
						"updateTreasuryOperator(address,bool)": "infinite",
						"withdrawETH(address)": "infinite"
					},
					"internal": {
						"_debase()": "infinite"
					}
				},
				"methodIdentifiers": {
					"PERCENTAGE_DENOMINATOR()": "b3cd4254",
					"TOKEN_DECIMALS()": "5b7f415c",
					"TOKEN_public_DECIMALS()": "a6d1b891",
					"_approve(address,address,uint256)": "104e81ff",
					"_burn(address,uint256)": "6161eb18",
					"_debaseTokenToFragment(uint256)": "639f3cc7",
					"_excludedFromDebasing(address,bool)": "702115dd",
					"_excludedFromHoldingLimit(address,bool)": "35c85a34",
					"_fragmentToDebaseToken(uint256)": "89eec0f1",
					"_mint(address,uint256)": "4e6ec247",
					"_sendTokensTreasuryWallet(uint256,address)": "9cc2921c",
					"_transfer(address,address,uint256)": "30e0789e",
					"_treasuryBalanceOf()": "e2ff2440",
					"allowance(address,address)": "dd62ed3e",
					"approve(address,uint256)": "095ea7b3",
					"balanceOf(address)": "70a08231",
					"balanceOfUnderlying(address)": "3af9e669",
					"checkUpkeep(bytes)": "6e04ff0d",
					"claimFromTreasury(address,uint256)": "6aa3773f",
					"debaseDuration()": "685f59de",
					"debaseRate()": "2ce8bd56",
					"decimals()": "313ce567",
					"decreaseAllowance(address,uint256)": "a457c2d7",
					"excludeDebasingSupply()": "8f372fa3",
					"getOwner()": "893d20e8",
					"holdingLimit()": "874a6ae7",
					"increaseAllowance(address,uint256)": "39509351",
					"isExcludedFromDebasing(address)": "924c2ead",
					"isExcludedFromHoldingLimit(address)": "8cf66b16",
					"lastTimeStamp()": "3f3b3b27",
					"lpPools(address)": "1658a700",
					"multiAirdropTokenRequested(address[],uint256[])": "e5a5e318",
					"multiExcludedFromDebasing(address[],bool)": "6c5ed03e",
					"multiExcludedFromHoldingLimit(address[],bool)": "7819f36f",
					"name()": "06fdde03",
					"owner()": "8da5cb5b",
					"pause()": "8456cb59",
					"paused()": "5c975abb",
					"performUpkeep(bytes)": "4585e33b",
					"renounceOwnership()": "715018a6",
					"sellTaxRate()": "24024efd",
					"setLastTime()": "5d70dde6",
					"symbol()": "95d89b41",
					"tokenScalingFactor()": "dc90b442",
					"totalSupply()": "18160ddd",
					"transfer(address,uint256)": "a9059cbb",
					"transferFrom(address,address,uint256)": "23b872dd",
					"transferOwnership(address)": "f2fde38b",
					"treasuryOperator(address)": "9220d3ed",
					"treasuryWallet()": "4626402b",
					"unpause()": "3f4ba83a",
					"updateDebaseDuration(uint256)": "df0ab308",
					"updateDebaseRate(uint256)": "81cea332",
					"updateHoldingLimit(uint256)": "3cde0c0f",
					"updateLPPool(address,bool)": "79825ede",
					"updateSellTaxRate(uint256)": "b4dade59",
					"updateTreasuryOperator(address,bool)": "75c2b13f",
					"withdrawETH(address)": "690d8320"
				}
			},
			"storageLayout": {
				"storage": [
					{
						"astId": 241,
						"contract": "SmartContractsInterview/Token.sol:Token",
						"label": "_paused",
						"offset": 0,
						"slot": "0",
						"type": "t_bool"
					},
					{
						"astId": 342,
						"contract": "SmartContractsInterview/Token.sol:Token",
						"label": "_status",
						"offset": 0,
						"slot": "1",
						"type": "t_uint256"
					},
					{
						"astId": 84,
						"contract": "SmartContractsInterview/Token.sol:Token",
						"label": "_owner",
						"offset": 0,
						"slot": "2",
						"type": "t_address"
					},
					{
						"astId": 1494,
						"contract": "SmartContractsInterview/Token.sol:Token",
						"label": "name",
						"offset": 0,
						"slot": "3",
						"type": "t_string_storage"
					},
					{
						"astId": 1497,
						"contract": "SmartContractsInterview/Token.sol:Token",
						"label": "symbol",
						"offset": 0,
						"slot": "4",
						"type": "t_string_storage"
					},
					{
						"astId": 1499,
						"contract": "SmartContractsInterview/Token.sol:Token",
						"label": "_decimals",
						"offset": 0,
						"slot": "5",
						"type": "t_uint256"
					},
					{
						"astId": 1501,
						"contract": "SmartContractsInterview/Token.sol:Token",
						"label": "tSupply",
						"offset": 0,
						"slot": "6",
						"type": "t_uint256"
					},
					{
						"astId": 1503,
						"contract": "SmartContractsInterview/Token.sol:Token",
						"label": "excludeDebasingSupply",
						"offset": 0,
						"slot": "7",
						"type": "t_uint256"
					},
					{
						"astId": 1509,
						"contract": "SmartContractsInterview/Token.sol:Token",
						"label": "_allowances",
						"offset": 0,
						"slot": "8",
						"type": "t_mapping(t_address,t_mapping(t_address,t_uint256))"
					},
					{
						"astId": 1513,
						"contract": "SmartContractsInterview/Token.sol:Token",
						"label": "_balances",
						"offset": 0,
						"slot": "9",
						"type": "t_mapping(t_address,t_uint256)"
					},
					{
						"astId": 1515,
						"contract": "SmartContractsInterview/Token.sol:Token",
						"label": "treasuryBalance",
						"offset": 0,
						"slot": "10",
						"type": "t_uint256"
					},
					{
						"astId": 1517,
						"contract": "SmartContractsInterview/Token.sol:Token",
						"label": "treasuryWallet",
						"offset": 0,
						"slot": "11",
						"type": "t_address"
					},
					{
						"astId": 1519,
						"contract": "SmartContractsInterview/Token.sol:Token",
						"label": "sellTaxRate",
						"offset": 0,
						"slot": "12",
						"type": "t_uint256"
					},
					{
						"astId": 1521,
						"contract": "SmartContractsInterview/Token.sol:Token",
						"label": "debaseRate",
						"offset": 0,
						"slot": "13",
						"type": "t_uint256"
					},
					{
						"astId": 1523,
						"contract": "SmartContractsInterview/Token.sol:Token",
						"label": "tokenScalingFactor",
						"offset": 0,
						"slot": "14",
						"type": "t_uint256"
					},
					{
						"astId": 1525,
						"contract": "SmartContractsInterview/Token.sol:Token",
						"label": "debaseDuration",
						"offset": 0,
						"slot": "15",
						"type": "t_uint256"
					},
					{
						"astId": 1527,
						"contract": "SmartContractsInterview/Token.sol:Token",
						"label": "holdingLimit",
						"offset": 0,
						"slot": "16",
						"type": "t_uint256"
					},
					{
						"astId": 1531,
						"contract": "SmartContractsInterview/Token.sol:Token",
						"label": "lpPools",
						"offset": 0,
						"slot": "17",
						"type": "t_mapping(t_address,t_bool)"
					},
					{
						"astId": 1535,
						"contract": "SmartContractsInterview/Token.sol:Token",
						"label": "isExcludedFromDebasing",
						"offset": 0,
						"slot": "18",
						"type": "t_mapping(t_address,t_bool)"
					},
					{
						"astId": 1539,
						"contract": "SmartContractsInterview/Token.sol:Token",
						"label": "isExcludedFromHoldingLimit",
						"offset": 0,
						"slot": "19",
						"type": "t_mapping(t_address,t_bool)"
					},
					{
						"astId": 1543,
						"contract": "SmartContractsInterview/Token.sol:Token",
						"label": "treasuryOperator",
						"offset": 0,
						"slot": "20",
						"type": "t_mapping(t_address,t_bool)"
					},
					{
						"astId": 1545,
						"contract": "SmartContractsInterview/Token.sol:Token",
						"label": "lastTimeStamp",
						"offset": 0,
						"slot": "21",
						"type": "t_uint256"
					}
				],
				"types": {
					"t_address": {
						"encoding": "inplace",
						"label": "address",
						"numberOfBytes": "20"
					},
					"t_bool": {
						"encoding": "inplace",
						"label": "bool",
						"numberOfBytes": "1"
					},
					"t_mapping(t_address,t_bool)": {
						"encoding": "mapping",
						"key": "t_address",
						"label": "mapping(address => bool)",
						"numberOfBytes": "32",
						"value": "t_bool"
					},
					"t_mapping(t_address,t_mapping(t_address,t_uint256))": {
						"encoding": "mapping",
						"key": "t_address",
						"label": "mapping(address => mapping(address => uint256))",
						"numberOfBytes": "32",
						"value": "t_mapping(t_address,t_uint256)"
					},
					"t_mapping(t_address,t_uint256)": {
						"encoding": "mapping",
						"key": "t_address",
						"label": "mapping(address => uint256)",
						"numberOfBytes": "32",
						"value": "t_uint256"
					},
					"t_string_storage": {
						"encoding": "bytes",
						"label": "string",
						"numberOfBytes": "32"
					},
					"t_uint256": {
						"encoding": "inplace",
						"label": "uint256",
						"numberOfBytes": "32"
					}
				}
			},
			"userdoc": {
				"kind": "user",
				"methods": {
					"checkUpkeep(bytes)": {
						"notice": "method that is simulated by the keepers to see if any work actually needs to be performed. This method does does not actually need to be executable, and since it is only ever simulated it can consume lots of gas."
					}
				},
				"version": 1
			}
		}
	}
}