{
	"SmartContractsInterview/MerkleDistribution.sol": {
		"MerkleDistributor": {
			"abi": [
				{
					"inputs": [
						{
							"internalType": "address",
							"name": "_owner",
							"type": "address"
						},
						{
							"internalType": "address",
							"name": "_treasury",
							"type": "address"
						}
					],
					"stateMutability": "nonpayable",
					"type": "constructor"
				},
				{
					"inputs": [
						{
							"internalType": "address",
							"name": "owner",
							"type": "address"
						}
					],
					"name": "OwnableInvalidOwner",
					"type": "error"
				},
				{
					"inputs": [
						{
							"internalType": "address",
							"name": "account",
							"type": "address"
						}
					],
					"name": "OwnableUnauthorizedAccount",
					"type": "error"
				},
				{
					"anonymous": false,
					"inputs": [
						{
							"indexed": true,
							"internalType": "address",
							"name": "account",
							"type": "address"
						},
						{
							"indexed": false,
							"internalType": "uint256",
							"name": "amount",
							"type": "uint256"
						}
					],
					"name": "Claimed",
					"type": "event"
				},
				{
					"anonymous": false,
					"inputs": [
						{
							"indexed": true,
							"internalType": "address",
							"name": "previousOwner",
							"type": "address"
						},
						{
							"indexed": true,
							"internalType": "address",
							"name": "newOwner",
							"type": "address"
						}
					],
					"name": "OwnershipTransferred",
					"type": "event"
				},
				{
					"anonymous": false,
					"inputs": [
						{
							"indexed": false,
							"internalType": "address",
							"name": "account",
							"type": "address"
						}
					],
					"name": "Paused",
					"type": "event"
				},
				{
					"anonymous": false,
					"inputs": [
						{
							"indexed": false,
							"internalType": "address",
							"name": "account",
							"type": "address"
						}
					],
					"name": "Unpaused",
					"type": "event"
				},
				{
					"inputs": [],
					"name": "checkClaimingRound",
					"outputs": [
						{
							"internalType": "bool",
							"name": "",
							"type": "bool"
						}
					],
					"stateMutability": "view",
					"type": "function"
				},
				{
					"inputs": [
						{
							"internalType": "uint256",
							"name": "_amount",
							"type": "uint256"
						},
						{
							"internalType": "bytes32[]",
							"name": "_merkleProof",
							"type": "bytes32[]"
						}
					],
					"name": "claim",
					"outputs": [],
					"stateMutability": "nonpayable",
					"type": "function"
				},
				{
					"inputs": [
						{
							"internalType": "address",
							"name": "",
							"type": "address"
						}
					],
					"name": "claimed",
					"outputs": [
						{
							"internalType": "bool",
							"name": "",
							"type": "bool"
						}
					],
					"stateMutability": "view",
					"type": "function"
				},
				{
					"inputs": [],
					"name": "claimingRoundDuration",
					"outputs": [
						{
							"internalType": "uint256",
							"name": "",
							"type": "uint256"
						}
					],
					"stateMutability": "view",
					"type": "function"
				},
				{
					"inputs": [],
					"name": "endClaimingRound",
					"outputs": [],
					"stateMutability": "nonpayable",
					"type": "function"
				},
				{
					"inputs": [],
					"name": "isClaiming",
					"outputs": [
						{
							"internalType": "bool",
							"name": "",
							"type": "bool"
						}
					],
					"stateMutability": "view",
					"type": "function"
				},
				{
					"inputs": [],
					"name": "merkleRoot",
					"outputs": [
						{
							"internalType": "bytes32",
							"name": "",
							"type": "bytes32"
						}
					],
					"stateMutability": "view",
					"type": "function"
				},
				{
					"inputs": [],
					"name": "owner",
					"outputs": [
						{
							"internalType": "address",
							"name": "",
							"type": "address"
						}
					],
					"stateMutability": "view",
					"type": "function"
				},
				{
					"inputs": [],
					"name": "pause",
					"outputs": [],
					"stateMutability": "nonpayable",
					"type": "function"
				},
				{
					"inputs": [],
					"name": "paused",
					"outputs": [
						{
							"internalType": "bool",
							"name": "",
							"type": "bool"
						}
					],
					"stateMutability": "view",
					"type": "function"
				},
				{
					"inputs": [],
					"name": "renounceOwnership",
					"outputs": [],
					"stateMutability": "nonpayable",
					"type": "function"
				},
				{
					"inputs": [
						{
							"internalType": "uint256",
							"name": "_duration",
							"type": "uint256"
						}
					],
					"name": "setClaimingRoundDuration",
					"outputs": [],
					"stateMutability": "nonpayable",
					"type": "function"
				},
				{
					"inputs": [
						{
							"internalType": "bytes32",
							"name": "_merkleRoot",
							"type": "bytes32"
						}
					],
					"name": "setMerkleRoot",
					"outputs": [],
					"stateMutability": "nonpayable",
					"type": "function"
				},
				{
					"inputs": [],
					"name": "setStartClaimingRound",
					"outputs": [],
					"stateMutability": "nonpayable",
					"type": "function"
				},
				{
					"inputs": [
						{
							"internalType": "address",
							"name": "_token",
							"type": "address"
						}
					],
					"name": "setToken",
					"outputs": [],
					"stateMutability": "nonpayable",
					"type": "function"
				},
				{
					"inputs": [],
					"name": "startClaimingRound",
					"outputs": [
						{
							"internalType": "uint256",
							"name": "",
							"type": "uint256"
						}
					],
					"stateMutability": "view",
					"type": "function"
				},
				{
					"inputs": [],
					"name": "token",
					"outputs": [
						{
							"internalType": "address",
							"name": "",
							"type": "address"
						}
					],
					"stateMutability": "view",
					"type": "function"
				},
				{
					"inputs": [
						{
							"internalType": "address",
							"name": "newOwner",
							"type": "address"
						}
					],
					"name": "transferOwnership",
					"outputs": [],
					"stateMutability": "nonpayable",
					"type": "function"
				},
				{
					"inputs": [],
					"name": "treasury",
					"outputs": [
						{
							"internalType": "address",
							"name": "",
							"type": "address"
						}
					],
					"stateMutability": "view",
					"type": "function"
				},
				{
					"inputs": [],
					"name": "unClaimedTokenToTreasury",
					"outputs": [],
					"stateMutability": "nonpayable",
					"type": "function"
				},
				{
					"inputs": [],
					"name": "unpause",
					"outputs": [],
					"stateMutability": "nonpayable",
					"type": "function"
				},
				{
					"inputs": [
						{
							"internalType": "address",
							"name": "_user",
							"type": "address"
						},
						{
							"internalType": "uint256",
							"name": "_amount",
							"type": "uint256"
						},
						{
							"internalType": "bytes32[]",
							"name": "_merkleProof",
							"type": "bytes32[]"
						}
					],
					"name": "verifyUser",
					"outputs": [
						{
							"internalType": "bool",
							"name": "",
							"type": "bool"
						}
					],
					"stateMutability": "view",
					"type": "function"
				}
			],
			"devdoc": {
				"errors": {
					"OwnableInvalidOwner(address)": [
						{
							"details": "The owner is not a valid owner account. (eg. `address(0)`)"
						}
					],
					"OwnableUnauthorizedAccount(address)": [
						{
							"details": "The caller account is not authorized to perform an operation."
						}
					]
				},
				"events": {
					"Paused(address)": {
						"details": "Emitted when the pause is triggered by `account`."
					},
					"Unpaused(address)": {
						"details": "Emitted when the pause is lifted by `account`."
					}
				},
				"kind": "dev",
				"methods": {
					"owner()": {
						"details": "Returns the address of the current owner."
					},
					"paused()": {
						"details": "Returns true if the contract is paused, and false otherwise."
					},
					"renounceOwnership()": {
						"details": "Leaves the contract without owner. It will not be possible to call `onlyOwner` functions. Can only be called by the current owner. NOTE: Renouncing ownership will leave the contract without an owner, thereby disabling any functionality that is only available to the owner."
					},
					"transferOwnership(address)": {
						"details": "Transfers ownership of the contract to a new account (`newOwner`). Can only be called by the current owner."
					}
				},
				"version": 1
			},
			"evm": {
				"assembly": "    /* \"SmartContractsInterview/MerkleDistribution.sol\":356:3676  contract MerkleDistributor is Pausable, Ownable, ReentrancyGuard {... */\n  mstore(0x40, 0x80)\n    /* \"SmartContractsInterview/MerkleDistribution.sol\":1001:1238  constructor(address _owner, address _treasury) Ownable(msg.sender) {... */\n  callvalue\n  dup1\n  iszero\n  tag_1\n  jumpi\n  0x00\n  dup1\n  revert\ntag_1:\n  pop\n  mload(0x40)\n  sub(codesize, bytecodeSize)\n  dup1\n  bytecodeSize\n  dup4\n  codecopy\n  dup2\n  dup2\n  add\n  0x40\n  mstore\n  dup2\n  add\n  swap1\n  tag_2\n  swap2\n  swap1\n  tag_3\n  jump\t// in\ntag_2:\n    /* \"SmartContractsInterview/MerkleDistribution.sol\":1056:1066  msg.sender */\n  caller\n    /* \"@openzeppelin/contracts/security/Pausable.sol\":1006:1011  false */\n  0x00\n    /* \"@openzeppelin/contracts/security/Pausable.sol\":996:1003  _paused */\n  dup1\n  0x00\n    /* \"@openzeppelin/contracts/security/Pausable.sol\":996:1011  _paused = false */\n  0x0100\n  exp\n  dup2\n  sload\n  dup2\n  0xff\n  mul\n  not\n  and\n  swap1\n  dup4\n  iszero\n  iszero\n  mul\n  or\n  swap1\n  sstore\n  pop\n    /* \"@openzeppelin/contracts/access/Ownable.sol\":1297:1298  0 */\n  0x00\n    /* \"@openzeppelin/contracts/access/Ownable.sol\":1273:1299  initialOwner == address(0) */\n  0xffffffffffffffffffffffffffffffffffffffff\n  and\n    /* \"@openzeppelin/contracts/access/Ownable.sol\":1273:1285  initialOwner */\n  dup2\n    /* \"@openzeppelin/contracts/access/Ownable.sol\":1273:1299  initialOwner == address(0) */\n  0xffffffffffffffffffffffffffffffffffffffff\n  and\n  sub\n    /* \"@openzeppelin/contracts/access/Ownable.sol\":1269:1364  if (initialOwner == address(0)) {... */\n  tag_10\n  jumpi\n    /* \"@openzeppelin/contracts/access/Ownable.sol\":1350:1351  0 */\n  0x00\n    /* \"@openzeppelin/contracts/access/Ownable.sol\":1322:1353  OwnableInvalidOwner(address(0)) */\n  mload(0x40)\n  0x1e4fbdf700000000000000000000000000000000000000000000000000000000\n  dup2\n  mstore\n  0x04\n  add\n  tag_11\n  swap2\n  swap1\n  tag_12\n  jump\t// in\ntag_11:\n  mload(0x40)\n  dup1\n  swap2\n  sub\n  swap1\n  revert\n    /* \"@openzeppelin/contracts/access/Ownable.sol\":1269:1364  if (initialOwner == address(0)) {... */\ntag_10:\n    /* \"@openzeppelin/contracts/access/Ownable.sol\":1373:1405  _transferOwnership(initialOwner) */\n  tag_13\n    /* \"@openzeppelin/contracts/access/Ownable.sol\":1392:1404  initialOwner */\n  dup2\n    /* \"@openzeppelin/contracts/access/Ownable.sol\":1373:1391  _transferOwnership */\n  shl(0x20, tag_14)\n    /* \"@openzeppelin/contracts/access/Ownable.sol\":1373:1405  _transferOwnership(initialOwner) */\n  0x20\n  shr\n  jump\t// in\ntag_13:\n    /* \"@openzeppelin/contracts/access/Ownable.sol\":1225:1412  constructor(address initialOwner) {... */\n  pop\n    /* \"@openzeppelin/contracts/security/ReentrancyGuard.sol\":1716:1717  1 */\n  0x01\n    /* \"@openzeppelin/contracts/security/ReentrancyGuard.sol\":1821:1828  _status */\n  dup1\n    /* \"@openzeppelin/contracts/security/ReentrancyGuard.sol\":1821:1843  _status = _NOT_ENTERED */\n  dup2\n  swap1\n  sstore\n  pop\n    /* \"SmartContractsInterview/MerkleDistribution.sol\":1089:1098  _treasury */\n  dup1\n    /* \"SmartContractsInterview/MerkleDistribution.sol\":1078:1086  treasury */\n  0x04\n  0x00\n    /* \"SmartContractsInterview/MerkleDistribution.sol\":1078:1098  treasury = _treasury */\n  0x0100\n  exp\n  dup2\n  sload\n  dup2\n  0xffffffffffffffffffffffffffffffffffffffff\n  mul\n  not\n  and\n  swap1\n  dup4\n  0xffffffffffffffffffffffffffffffffffffffff\n  and\n  mul\n  or\n  swap1\n  sstore\n  pop\n    /* \"SmartContractsInterview/MerkleDistribution.sol\":1132:1141  86400 * 7 */\n  0x093a80\n    /* \"SmartContractsInterview/MerkleDistribution.sol\":1108:1129  claimingRoundDuration */\n  0x06\n    /* \"SmartContractsInterview/MerkleDistribution.sol\":1108:1141  claimingRoundDuration = 86400 * 7 */\n  dup2\n  swap1\n  sstore\n  pop\n    /* \"SmartContractsInterview/MerkleDistribution.sol\":1174:1179  false */\n  0x00\n    /* \"SmartContractsInterview/MerkleDistribution.sol\":1161:1171  isClaiming */\n  0x04\n  0x14\n    /* \"SmartContractsInterview/MerkleDistribution.sol\":1161:1179  isClaiming = false */\n  0x0100\n  exp\n  dup2\n  sload\n  dup2\n  0xff\n  mul\n  not\n  and\n  swap1\n  dup4\n  iszero\n  iszero\n  mul\n  or\n  swap1\n  sstore\n  pop\n    /* \"SmartContractsInterview/MerkleDistribution.sol\":1189:1214  transferOwnership(_owner) */\n  tag_17\n    /* \"SmartContractsInterview/MerkleDistribution.sol\":1207:1213  _owner */\n  dup3\n    /* \"SmartContractsInterview/MerkleDistribution.sol\":1189:1206  transferOwnership */\n  shl(0x20, tag_18)\n    /* \"SmartContractsInterview/MerkleDistribution.sol\":1189:1214  transferOwnership(_owner) */\n  0x20\n  shr\n  jump\t// in\ntag_17:\n    /* \"SmartContractsInterview/MerkleDistribution.sol\":1224:1231  pause() */\n  tag_19\n    /* \"SmartContractsInterview/MerkleDistribution.sol\":1224:1229  pause */\n  shl(0x20, tag_20)\n    /* \"SmartContractsInterview/MerkleDistribution.sol\":1224:1231  pause() */\n  0x20\n  shr\n  jump\t// in\ntag_19:\n    /* \"SmartContractsInterview/MerkleDistribution.sol\":1001:1238  constructor(address _owner, address _treasury) Ownable(msg.sender) {... */\n  pop\n  pop\n    /* \"SmartContractsInterview/MerkleDistribution.sol\":356:3676  contract MerkleDistributor is Pausable, Ownable, ReentrancyGuard {... */\n  jump(tag_21)\n    /* \"@openzeppelin/contracts/access/Ownable.sol\":2912:3099  function _transferOwnership(address newOwner) internal virtual {... */\ntag_14:\n    /* \"@openzeppelin/contracts/access/Ownable.sol\":2985:3001  address oldOwner */\n  0x00\n    /* \"@openzeppelin/contracts/access/Ownable.sol\":3004:3010  _owner */\n  dup1\n  0x01\n  swap1\n  sload\n  swap1\n  0x0100\n  exp\n  swap1\n  div\n  0xffffffffffffffffffffffffffffffffffffffff\n  and\n    /* \"@openzeppelin/contracts/access/Ownable.sol\":2985:3010  address oldOwner = _owner */\n  swap1\n  pop\n    /* \"@openzeppelin/contracts/access/Ownable.sol\":3029:3037  newOwner */\n  dup2\n    /* \"@openzeppelin/contracts/access/Ownable.sol\":3020:3026  _owner */\n  0x00\n  0x01\n    /* \"@openzeppelin/contracts/access/Ownable.sol\":3020:3037  _owner = newOwner */\n  0x0100\n  exp\n  dup2\n  sload\n  dup2\n  0xffffffffffffffffffffffffffffffffffffffff\n  mul\n  not\n  and\n  swap1\n  dup4\n  0xffffffffffffffffffffffffffffffffffffffff\n  and\n  mul\n  or\n  swap1\n  sstore\n  pop\n    /* \"@openzeppelin/contracts/access/Ownable.sol\":3083:3091  newOwner */\n  dup2\n    /* \"@openzeppelin/contracts/access/Ownable.sol\":3052:3092  OwnershipTransferred(oldOwner, newOwner) */\n  0xffffffffffffffffffffffffffffffffffffffff\n  and\n    /* \"@openzeppelin/contracts/access/Ownable.sol\":3073:3081  oldOwner */\n  dup2\n    /* \"@openzeppelin/contracts/access/Ownable.sol\":3052:3092  OwnershipTransferred(oldOwner, newOwner) */\n  0xffffffffffffffffffffffffffffffffffffffff\n  and\n  0x8be0079c531659141344cd1fd0a4f28419497f9722a3daafe3b4186f6b6457e0\n  mload(0x40)\n  mload(0x40)\n  dup1\n  swap2\n  sub\n  swap1\n  log3\n    /* \"@openzeppelin/contracts/access/Ownable.sol\":2975:3099  {... */\n  pop\n    /* \"@openzeppelin/contracts/access/Ownable.sol\":2912:3099  function _transferOwnership(address newOwner) internal virtual {... */\n  pop\n  jump\t// out\n    /* \"@openzeppelin/contracts/access/Ownable.sol\":2543:2758  function transferOwnership(address newOwner) public virtual onlyOwner {... */\ntag_18:\n    /* \"@openzeppelin/contracts/access/Ownable.sol\":1531:1544  _checkOwner() */\n  tag_24\n    /* \"@openzeppelin/contracts/access/Ownable.sol\":1531:1542  _checkOwner */\n  shl(0x20, tag_25)\n    /* \"@openzeppelin/contracts/access/Ownable.sol\":1531:1544  _checkOwner() */\n  0x20\n  shr\n  jump\t// in\ntag_24:\n    /* \"@openzeppelin/contracts/access/Ownable.sol\":2647:2648  0 */\n  0x00\n    /* \"@openzeppelin/contracts/access/Ownable.sol\":2627:2649  newOwner == address(0) */\n  0xffffffffffffffffffffffffffffffffffffffff\n  and\n    /* \"@openzeppelin/contracts/access/Ownable.sol\":2627:2635  newOwner */\n  dup2\n    /* \"@openzeppelin/contracts/access/Ownable.sol\":2627:2649  newOwner == address(0) */\n  0xffffffffffffffffffffffffffffffffffffffff\n  and\n  sub\n    /* \"@openzeppelin/contracts/access/Ownable.sol\":2623:2714  if (newOwner == address(0)) {... */\n  tag_27\n  jumpi\n    /* \"@openzeppelin/contracts/access/Ownable.sol\":2700:2701  0 */\n  0x00\n    /* \"@openzeppelin/contracts/access/Ownable.sol\":2672:2703  OwnableInvalidOwner(address(0)) */\n  mload(0x40)\n  0x1e4fbdf700000000000000000000000000000000000000000000000000000000\n  dup2\n  mstore\n  0x04\n  add\n  tag_28\n  swap2\n  swap1\n  tag_12\n  jump\t// in\ntag_28:\n  mload(0x40)\n  dup1\n  swap2\n  sub\n  swap1\n  revert\n    /* \"@openzeppelin/contracts/access/Ownable.sol\":2623:2714  if (newOwner == address(0)) {... */\ntag_27:\n    /* \"@openzeppelin/contracts/access/Ownable.sol\":2723:2751  _transferOwnership(newOwner) */\n  tag_29\n    /* \"@openzeppelin/contracts/access/Ownable.sol\":2742:2750  newOwner */\n  dup2\n    /* \"@openzeppelin/contracts/access/Ownable.sol\":2723:2741  _transferOwnership */\n  shl(0x20, tag_14)\n    /* \"@openzeppelin/contracts/access/Ownable.sol\":2723:2751  _transferOwnership(newOwner) */\n  0x20\n  shr\n  jump\t// in\ntag_29:\n    /* \"@openzeppelin/contracts/access/Ownable.sol\":2543:2758  function transferOwnership(address newOwner) public virtual onlyOwner {... */\n  pop\n  jump\t// out\n    /* \"SmartContractsInterview/MerkleDistribution.sol\":3311:3370  function pause() public onlyOwner {... */\ntag_20:\n    /* \"@openzeppelin/contracts/access/Ownable.sol\":1531:1544  _checkOwner() */\n  tag_31\n    /* \"@openzeppelin/contracts/access/Ownable.sol\":1531:1542  _checkOwner */\n  shl(0x20, tag_25)\n    /* \"@openzeppelin/contracts/access/Ownable.sol\":1531:1544  _checkOwner() */\n  0x20\n  shr\n  jump\t// in\ntag_31:\n    /* \"SmartContractsInterview/MerkleDistribution.sol\":3355:3363  _pause() */\n  tag_33\n    /* \"SmartContractsInterview/MerkleDistribution.sol\":3355:3361  _pause */\n  shl(0x20, tag_34)\n    /* \"SmartContractsInterview/MerkleDistribution.sol\":3355:3363  _pause() */\n  0x20\n  shr\n  jump\t// in\ntag_33:\n    /* \"SmartContractsInterview/MerkleDistribution.sol\":3311:3370  function pause() public onlyOwner {... */\n  jump\t// out\n    /* \"@openzeppelin/contracts/access/Ownable.sol\":1796:1958  function _checkOwner() internal view virtual {... */\ntag_25:\n    /* \"@openzeppelin/contracts/access/Ownable.sol\":1866:1878  _msgSender() */\n  tag_36\n    /* \"@openzeppelin/contracts/access/Ownable.sol\":1866:1876  _msgSender */\n  shl(0x20, tag_37)\n    /* \"@openzeppelin/contracts/access/Ownable.sol\":1866:1878  _msgSender() */\n  0x20\n  shr\n  jump\t// in\ntag_36:\n    /* \"@openzeppelin/contracts/access/Ownable.sol\":1855:1878  owner() != _msgSender() */\n  0xffffffffffffffffffffffffffffffffffffffff\n  and\n    /* \"@openzeppelin/contracts/access/Ownable.sol\":1855:1862  owner() */\n  tag_38\n    /* \"@openzeppelin/contracts/access/Ownable.sol\":1855:1860  owner */\n  shl(0x20, tag_39)\n    /* \"@openzeppelin/contracts/access/Ownable.sol\":1855:1862  owner() */\n  0x20\n  shr\n  jump\t// in\ntag_38:\n    /* \"@openzeppelin/contracts/access/Ownable.sol\":1855:1878  owner() != _msgSender() */\n  0xffffffffffffffffffffffffffffffffffffffff\n  and\n  eq\n    /* \"@openzeppelin/contracts/access/Ownable.sol\":1851:1952  if (owner() != _msgSender()) {... */\n  tag_40\n  jumpi\n    /* \"@openzeppelin/contracts/access/Ownable.sol\":1928:1940  _msgSender() */\n  tag_41\n    /* \"@openzeppelin/contracts/access/Ownable.sol\":1928:1938  _msgSender */\n  shl(0x20, tag_37)\n    /* \"@openzeppelin/contracts/access/Ownable.sol\":1928:1940  _msgSender() */\n  0x20\n  shr\n  jump\t// in\ntag_41:\n    /* \"@openzeppelin/contracts/access/Ownable.sol\":1901:1941  OwnableUnauthorizedAccount(_msgSender()) */\n  mload(0x40)\n  0x118cdaa700000000000000000000000000000000000000000000000000000000\n  dup2\n  mstore\n  0x04\n  add\n  tag_42\n  swap2\n  swap1\n  tag_12\n  jump\t// in\ntag_42:\n  mload(0x40)\n  dup1\n  swap2\n  sub\n  swap1\n  revert\n    /* \"@openzeppelin/contracts/access/Ownable.sol\":1851:1952  if (owner() != _msgSender()) {... */\ntag_40:\n    /* \"@openzeppelin/contracts/access/Ownable.sol\":1796:1958  function _checkOwner() internal view virtual {... */\n  jump\t// out\n    /* \"@openzeppelin/contracts/security/Pausable.sol\":2186:2301  function _pause() internal virtual whenNotPaused {... */\ntag_34:\n    /* \"@openzeppelin/contracts/security/Pausable.sol\":1239:1258  _requireNotPaused() */\n  tag_44\n    /* \"@openzeppelin/contracts/security/Pausable.sol\":1239:1256  _requireNotPaused */\n  shl(0x20, tag_45)\n    /* \"@openzeppelin/contracts/security/Pausable.sol\":1239:1258  _requireNotPaused() */\n  0x20\n  shr\n  jump\t// in\ntag_44:\n    /* \"@openzeppelin/contracts/security/Pausable.sol\":2255:2259  true */\n  0x01\n    /* \"@openzeppelin/contracts/security/Pausable.sol\":2245:2252  _paused */\n  0x00\n  dup1\n    /* \"@openzeppelin/contracts/security/Pausable.sol\":2245:2259  _paused = true */\n  0x0100\n  exp\n  dup2\n  sload\n  dup2\n  0xff\n  mul\n  not\n  and\n  swap1\n  dup4\n  iszero\n  iszero\n  mul\n  or\n  swap1\n  sstore\n  pop\n    /* \"@openzeppelin/contracts/security/Pausable.sol\":2274:2294  Paused(_msgSender()) */\n  0x62e78cea01bee320cd4e420270b5ea74000d11b0c9f74754ebdbfc544b05a258\n    /* \"@openzeppelin/contracts/security/Pausable.sol\":2281:2293  _msgSender() */\n  tag_47\n    /* \"@openzeppelin/contracts/security/Pausable.sol\":2281:2291  _msgSender */\n  shl(0x20, tag_37)\n    /* \"@openzeppelin/contracts/security/Pausable.sol\":2281:2293  _msgSender() */\n  0x20\n  shr\n  jump\t// in\ntag_47:\n    /* \"@openzeppelin/contracts/security/Pausable.sol\":2274:2294  Paused(_msgSender()) */\n  mload(0x40)\n  tag_48\n  swap2\n  swap1\n  tag_12\n  jump\t// in\ntag_48:\n  mload(0x40)\n  dup1\n  swap2\n  sub\n  swap1\n  log1\n    /* \"@openzeppelin/contracts/security/Pausable.sol\":2186:2301  function _pause() internal virtual whenNotPaused {... */\n  jump\t// out\n    /* \"@openzeppelin/contracts/utils/Context.sol\":656:752  function _msgSender() internal view virtual returns (address) {... */\ntag_37:\n    /* \"@openzeppelin/contracts/utils/Context.sol\":709:716  address */\n  0x00\n    /* \"@openzeppelin/contracts/utils/Context.sol\":735:745  msg.sender */\n  caller\n    /* \"@openzeppelin/contracts/utils/Context.sol\":728:745  return msg.sender */\n  swap1\n  pop\n    /* \"@openzeppelin/contracts/utils/Context.sol\":656:752  function _msgSender() internal view virtual returns (address) {... */\n  swap1\n  jump\t// out\n    /* \"@openzeppelin/contracts/access/Ownable.sol\":1638:1723  function owner() public view virtual returns (address) {... */\ntag_39:\n    /* \"@openzeppelin/contracts/access/Ownable.sol\":1684:1691  address */\n  0x00\n    /* \"@openzeppelin/contracts/access/Ownable.sol\":1710:1716  _owner */\n  dup1\n  0x01\n  swap1\n  sload\n  swap1\n  0x0100\n  exp\n  swap1\n  div\n  0xffffffffffffffffffffffffffffffffffffffff\n  and\n    /* \"@openzeppelin/contracts/access/Ownable.sol\":1703:1716  return _owner */\n  swap1\n  pop\n    /* \"@openzeppelin/contracts/access/Ownable.sol\":1638:1723  function owner() public view virtual returns (address) {... */\n  swap1\n  jump\t// out\n    /* \"@openzeppelin/contracts/security/Pausable.sol\":1767:1873  function _requireNotPaused() internal view virtual {... */\ntag_45:\n    /* \"@openzeppelin/contracts/security/Pausable.sol\":1837:1845  paused() */\n  tag_52\n    /* \"@openzeppelin/contracts/security/Pausable.sol\":1837:1843  paused */\n  shl(0x20, tag_53)\n    /* \"@openzeppelin/contracts/security/Pausable.sol\":1837:1845  paused() */\n  0x20\n  shr\n  jump\t// in\ntag_52:\n    /* \"@openzeppelin/contracts/security/Pausable.sol\":1836:1845  !paused() */\n  iszero\n    /* \"@openzeppelin/contracts/security/Pausable.sol\":1828:1866  require(!paused(), \"Pausable: paused\") */\n  tag_54\n  jumpi\n  mload(0x40)\n  0x08c379a000000000000000000000000000000000000000000000000000000000\n  dup2\n  mstore\n  0x04\n  add\n  tag_55\n  swap1\n  tag_56\n  jump\t// in\ntag_55:\n  mload(0x40)\n  dup1\n  swap2\n  sub\n  swap1\n  revert\ntag_54:\n    /* \"@openzeppelin/contracts/security/Pausable.sol\":1767:1873  function _requireNotPaused() internal view virtual {... */\n  jump\t// out\n    /* \"@openzeppelin/contracts/security/Pausable.sol\":1615:1699  function paused() public view virtual returns (bool) {... */\ntag_53:\n    /* \"@openzeppelin/contracts/security/Pausable.sol\":1662:1666  bool */\n  0x00\n    /* \"@openzeppelin/contracts/security/Pausable.sol\":1685:1692  _paused */\n  dup1\n  0x00\n  swap1\n  sload\n  swap1\n  0x0100\n  exp\n  swap1\n  div\n  0xff\n  and\n    /* \"@openzeppelin/contracts/security/Pausable.sol\":1678:1692  return _paused */\n  swap1\n  pop\n    /* \"@openzeppelin/contracts/security/Pausable.sol\":1615:1699  function paused() public view virtual returns (bool) {... */\n  swap1\n  jump\t// out\n    /* \"#utility.yul\":88:205   */\ntag_59:\n    /* \"#utility.yul\":197:198   */\n  0x00\n    /* \"#utility.yul\":194:195   */\n  dup1\n    /* \"#utility.yul\":187:199   */\n  revert\n    /* \"#utility.yul\":334:460   */\ntag_61:\n    /* \"#utility.yul\":371:378   */\n  0x00\n    /* \"#utility.yul\":411:453   */\n  0xffffffffffffffffffffffffffffffffffffffff\n    /* \"#utility.yul\":404:409   */\n  dup3\n    /* \"#utility.yul\":400:454   */\n  and\n    /* \"#utility.yul\":389:454   */\n  swap1\n  pop\n    /* \"#utility.yul\":334:460   */\n  swap2\n  swap1\n  pop\n  jump\t// out\n    /* \"#utility.yul\":466:562   */\ntag_62:\n    /* \"#utility.yul\":503:510   */\n  0x00\n    /* \"#utility.yul\":532:556   */\n  tag_75\n    /* \"#utility.yul\":550:555   */\n  dup3\n    /* \"#utility.yul\":532:556   */\n  tag_61\n  jump\t// in\ntag_75:\n    /* \"#utility.yul\":521:556   */\n  swap1\n  pop\n    /* \"#utility.yul\":466:562   */\n  swap2\n  swap1\n  pop\n  jump\t// out\n    /* \"#utility.yul\":568:690   */\ntag_63:\n    /* \"#utility.yul\":641:665   */\n  tag_77\n    /* \"#utility.yul\":659:664   */\n  dup2\n    /* \"#utility.yul\":641:665   */\n  tag_62\n  jump\t// in\ntag_77:\n    /* \"#utility.yul\":634:639   */\n  dup2\n    /* \"#utility.yul\":631:666   */\n  eq\n    /* \"#utility.yul\":621:684   */\n  tag_78\n  jumpi\n    /* \"#utility.yul\":680:681   */\n  0x00\n    /* \"#utility.yul\":677:678   */\n  dup1\n    /* \"#utility.yul\":670:682   */\n  revert\n    /* \"#utility.yul\":621:684   */\ntag_78:\n    /* \"#utility.yul\":568:690   */\n  pop\n  jump\t// out\n    /* \"#utility.yul\":696:839   */\ntag_64:\n    /* \"#utility.yul\":753:758   */\n  0x00\n    /* \"#utility.yul\":784:790   */\n  dup2\n    /* \"#utility.yul\":778:791   */\n  mload\n    /* \"#utility.yul\":769:791   */\n  swap1\n  pop\n    /* \"#utility.yul\":800:833   */\n  tag_80\n    /* \"#utility.yul\":827:832   */\n  dup2\n    /* \"#utility.yul\":800:833   */\n  tag_63\n  jump\t// in\ntag_80:\n    /* \"#utility.yul\":696:839   */\n  swap3\n  swap2\n  pop\n  pop\n  jump\t// out\n    /* \"#utility.yul\":845:1352   */\ntag_3:\n    /* \"#utility.yul\":924:930   */\n  0x00\n    /* \"#utility.yul\":932:938   */\n  dup1\n    /* \"#utility.yul\":981:983   */\n  0x40\n    /* \"#utility.yul\":969:978   */\n  dup4\n    /* \"#utility.yul\":960:967   */\n  dup6\n    /* \"#utility.yul\":956:979   */\n  sub\n    /* \"#utility.yul\":952:984   */\n  slt\n    /* \"#utility.yul\":949:1068   */\n  iszero\n  tag_82\n  jumpi\n    /* \"#utility.yul\":987:1066   */\n  tag_83\n  tag_59\n  jump\t// in\ntag_83:\n    /* \"#utility.yul\":949:1068   */\ntag_82:\n    /* \"#utility.yul\":1107:1108   */\n  0x00\n    /* \"#utility.yul\":1132:1196   */\n  tag_84\n    /* \"#utility.yul\":1188:1195   */\n  dup6\n    /* \"#utility.yul\":1179:1185   */\n  dup3\n    /* \"#utility.yul\":1168:1177   */\n  dup7\n    /* \"#utility.yul\":1164:1186   */\n  add\n    /* \"#utility.yul\":1132:1196   */\n  tag_64\n  jump\t// in\ntag_84:\n    /* \"#utility.yul\":1122:1196   */\n  swap3\n  pop\n    /* \"#utility.yul\":1078:1206   */\n  pop\n    /* \"#utility.yul\":1245:1247   */\n  0x20\n    /* \"#utility.yul\":1271:1335   */\n  tag_85\n    /* \"#utility.yul\":1327:1334   */\n  dup6\n    /* \"#utility.yul\":1318:1324   */\n  dup3\n    /* \"#utility.yul\":1307:1316   */\n  dup7\n    /* \"#utility.yul\":1303:1325   */\n  add\n    /* \"#utility.yul\":1271:1335   */\n  tag_64\n  jump\t// in\ntag_85:\n    /* \"#utility.yul\":1261:1335   */\n  swap2\n  pop\n    /* \"#utility.yul\":1216:1345   */\n  pop\n    /* \"#utility.yul\":845:1352   */\n  swap3\n  pop\n  swap3\n  swap1\n  pop\n  jump\t// out\n    /* \"#utility.yul\":1358:1476   */\ntag_65:\n    /* \"#utility.yul\":1445:1469   */\n  tag_87\n    /* \"#utility.yul\":1463:1468   */\n  dup2\n    /* \"#utility.yul\":1445:1469   */\n  tag_62\n  jump\t// in\ntag_87:\n    /* \"#utility.yul\":1440:1443   */\n  dup3\n    /* \"#utility.yul\":1433:1470   */\n  mstore\n    /* \"#utility.yul\":1358:1476   */\n  pop\n  pop\n  jump\t// out\n    /* \"#utility.yul\":1482:1704   */\ntag_12:\n    /* \"#utility.yul\":1575:1579   */\n  0x00\n    /* \"#utility.yul\":1613:1615   */\n  0x20\n    /* \"#utility.yul\":1602:1611   */\n  dup3\n    /* \"#utility.yul\":1598:1616   */\n  add\n    /* \"#utility.yul\":1590:1616   */\n  swap1\n  pop\n    /* \"#utility.yul\":1626:1697   */\n  tag_89\n    /* \"#utility.yul\":1694:1695   */\n  0x00\n    /* \"#utility.yul\":1683:1692   */\n  dup4\n    /* \"#utility.yul\":1679:1696   */\n  add\n    /* \"#utility.yul\":1670:1676   */\n  dup5\n    /* \"#utility.yul\":1626:1697   */\n  tag_65\n  jump\t// in\ntag_89:\n    /* \"#utility.yul\":1482:1704   */\n  swap3\n  swap2\n  pop\n  pop\n  jump\t// out\n    /* \"#utility.yul\":1710:1879   */\ntag_66:\n    /* \"#utility.yul\":1794:1805   */\n  0x00\n    /* \"#utility.yul\":1828:1834   */\n  dup3\n    /* \"#utility.yul\":1823:1826   */\n  dup3\n    /* \"#utility.yul\":1816:1835   */\n  mstore\n    /* \"#utility.yul\":1868:1872   */\n  0x20\n    /* \"#utility.yul\":1863:1866   */\n  dup3\n    /* \"#utility.yul\":1859:1873   */\n  add\n    /* \"#utility.yul\":1844:1873   */\n  swap1\n  pop\n    /* \"#utility.yul\":1710:1879   */\n  swap3\n  swap2\n  pop\n  pop\n  jump\t// out\n    /* \"#utility.yul\":1885:2051   */\ntag_67:\n    /* \"#utility.yul\":2025:2043   */\n  0x5061757361626c653a2070617573656400000000000000000000000000000000\n    /* \"#utility.yul\":2021:2022   */\n  0x00\n    /* \"#utility.yul\":2013:2019   */\n  dup3\n    /* \"#utility.yul\":2009:2023   */\n  add\n    /* \"#utility.yul\":2002:2044   */\n  mstore\n    /* \"#utility.yul\":1885:2051   */\n  pop\n  jump\t// out\n    /* \"#utility.yul\":2057:2423   */\ntag_68:\n    /* \"#utility.yul\":2199:2202   */\n  0x00\n    /* \"#utility.yul\":2220:2287   */\n  tag_93\n    /* \"#utility.yul\":2284:2286   */\n  0x10\n    /* \"#utility.yul\":2279:2282   */\n  dup4\n    /* \"#utility.yul\":2220:2287   */\n  tag_66\n  jump\t// in\ntag_93:\n    /* \"#utility.yul\":2213:2287   */\n  swap2\n  pop\n    /* \"#utility.yul\":2296:2389   */\n  tag_94\n    /* \"#utility.yul\":2385:2388   */\n  dup3\n    /* \"#utility.yul\":2296:2389   */\n  tag_67\n  jump\t// in\ntag_94:\n    /* \"#utility.yul\":2414:2416   */\n  0x20\n    /* \"#utility.yul\":2409:2412   */\n  dup3\n    /* \"#utility.yul\":2405:2417   */\n  add\n    /* \"#utility.yul\":2398:2417   */\n  swap1\n  pop\n    /* \"#utility.yul\":2057:2423   */\n  swap2\n  swap1\n  pop\n  jump\t// out\n    /* \"#utility.yul\":2429:2848   */\ntag_56:\n    /* \"#utility.yul\":2595:2599   */\n  0x00\n    /* \"#utility.yul\":2633:2635   */\n  0x20\n    /* \"#utility.yul\":2622:2631   */\n  dup3\n    /* \"#utility.yul\":2618:2636   */\n  add\n    /* \"#utility.yul\":2610:2636   */\n  swap1\n  pop\n    /* \"#utility.yul\":2682:2691   */\n  dup2\n    /* \"#utility.yul\":2676:2680   */\n  dup2\n    /* \"#utility.yul\":2672:2692   */\n  sub\n    /* \"#utility.yul\":2668:2669   */\n  0x00\n    /* \"#utility.yul\":2657:2666   */\n  dup4\n    /* \"#utility.yul\":2653:2670   */\n  add\n    /* \"#utility.yul\":2646:2693   */\n  mstore\n    /* \"#utility.yul\":2710:2841   */\n  tag_96\n    /* \"#utility.yul\":2836:2840   */\n  dup2\n    /* \"#utility.yul\":2710:2841   */\n  tag_68\n  jump\t// in\ntag_96:\n    /* \"#utility.yul\":2702:2841   */\n  swap1\n  pop\n    /* \"#utility.yul\":2429:2848   */\n  swap2\n  swap1\n  pop\n  jump\t// out\n    /* \"SmartContractsInterview/MerkleDistribution.sol\":356:3676  contract MerkleDistributor is Pausable, Ownable, ReentrancyGuard {... */\ntag_21:\n  dataSize(sub_0)\n  dup1\n  dataOffset(sub_0)\n  0x00\n  codecopy\n  0x00\n  return\nstop\n\nsub_0: assembly {\n        /* \"SmartContractsInterview/MerkleDistribution.sol\":356:3676  contract MerkleDistributor is Pausable, Ownable, ReentrancyGuard {... */\n      mstore(0x40, 0x80)\n      callvalue\n      dup1\n      iszero\n      tag_1\n      jumpi\n      0x00\n      dup1\n      revert\n    tag_1:\n      pop\n      jumpi(tag_2, lt(calldatasize, 0x04))\n      shr(0xe0, calldataload(0x00))\n      dup1\n      0x7cb64759\n      gt\n      tag_25\n      jumpi\n      dup1\n      0xb6cd5d1a\n      gt\n      tag_26\n      jumpi\n      dup1\n      0xb6cd5d1a\n      eq\n      tag_19\n      jumpi\n      dup1\n      0xc27f7e26\n      eq\n      tag_20\n      jumpi\n      dup1\n      0xc884ef83\n      eq\n      tag_21\n      jumpi\n      dup1\n      0xde805da7\n      eq\n      tag_22\n      jumpi\n      dup1\n      0xf2fde38b\n      eq\n      tag_23\n      jumpi\n      dup1\n      0xfc0c546a\n      eq\n      tag_24\n      jumpi\n      jump(tag_2)\n    tag_26:\n      dup1\n      0x7cb64759\n      eq\n      tag_14\n      jumpi\n      dup1\n      0x7cc6cb7a\n      eq\n      tag_15\n      jumpi\n      dup1\n      0x8456cb59\n      eq\n      tag_16\n      jumpi\n      dup1\n      0x8da5cb5b\n      eq\n      tag_17\n      jumpi\n      dup1\n      0xa0074c67\n      eq\n      tag_18\n      jumpi\n      jump(tag_2)\n    tag_25:\n      dup1\n      0x49039527\n      gt\n      tag_27\n      jumpi\n      dup1\n      0x49039527\n      eq\n      tag_8\n      jumpi\n      dup1\n      0x5c975abb\n      eq\n      tag_9\n      jumpi\n      dup1\n      0x5e4f3a9c\n      eq\n      tag_10\n      jumpi\n      dup1\n      0x6038efad\n      eq\n      tag_11\n      jumpi\n      dup1\n      0x61d027b3\n      eq\n      tag_12\n      jumpi\n      dup1\n      0x715018a6\n      eq\n      tag_13\n      jumpi\n      jump(tag_2)\n    tag_27:\n      dup1\n      0x144fa6d7\n      eq\n      tag_3\n      jumpi\n      dup1\n      0x2eb4a7ab\n      eq\n      tag_4\n      jumpi\n      dup1\n      0x2f52ebb7\n      eq\n      tag_5\n      jumpi\n      dup1\n      0x3f4ba83a\n      eq\n      tag_6\n      jumpi\n      dup1\n      0x428e7565\n      eq\n      tag_7\n      jumpi\n    tag_2:\n      0x00\n      dup1\n      revert\n        /* \"SmartContractsInterview/MerkleDistribution.sol\":1354:1504  function setToken(address _token) external onlyOwner {... */\n    tag_3:\n      tag_28\n      0x04\n      dup1\n      calldatasize\n      sub\n      dup2\n      add\n      swap1\n      tag_29\n      swap2\n      swap1\n      tag_30\n      jump\t// in\n    tag_29:\n      tag_31\n      jump\t// in\n    tag_28:\n      stop\n        /* \"SmartContractsInterview/MerkleDistribution.sol\":427:452  bytes32 public merkleRoot */\n    tag_4:\n      tag_32\n      tag_33\n      jump\t// in\n    tag_32:\n      mload(0x40)\n      tag_34\n      swap2\n      swap1\n      tag_35\n      jump\t// in\n    tag_34:\n      mload(0x40)\n      dup1\n      swap2\n      sub\n      swap1\n      return\n        /* \"SmartContractsInterview/MerkleDistribution.sol\":2188:3083  function claim(... */\n    tag_5:\n      tag_36\n      0x04\n      dup1\n      calldatasize\n      sub\n      dup2\n      add\n      swap1\n      tag_37\n      swap2\n      swap1\n      tag_38\n      jump\t// in\n    tag_37:\n      tag_39\n      jump\t// in\n    tag_36:\n      stop\n        /* \"SmartContractsInterview/MerkleDistribution.sol\":3376:3439  function unpause() public onlyOwner {... */\n    tag_6:\n      tag_40\n      tag_41\n      jump\t// in\n    tag_40:\n      stop\n        /* \"SmartContractsInterview/MerkleDistribution.sol\":543:576  uint256 public startClaimingRound */\n    tag_7:\n      tag_42\n      tag_43\n      jump\t// in\n    tag_42:\n      mload(0x40)\n      tag_44\n      swap2\n      swap1\n      tag_45\n      jump\t// in\n    tag_44:\n      mload(0x40)\n      dup1\n      swap2\n      sub\n      swap1\n      return\n        /* \"SmartContractsInterview/MerkleDistribution.sol\":582:618  uint256 public claimingRoundDuration */\n    tag_8:\n      tag_46\n      tag_47\n      jump\t// in\n    tag_46:\n      mload(0x40)\n      tag_48\n      swap2\n      swap1\n      tag_45\n      jump\t// in\n    tag_48:\n      mload(0x40)\n      dup1\n      swap2\n      sub\n      swap1\n      return\n        /* \"@openzeppelin/contracts/security/Pausable.sol\":1615:1699  function paused() public view virtual returns (bool) {... */\n    tag_9:\n      tag_49\n      tag_50\n      jump\t// in\n    tag_49:\n      mload(0x40)\n      tag_51\n      swap2\n      swap1\n      tag_52\n      jump\t// in\n    tag_51:\n      mload(0x40)\n      dup1\n      swap2\n      sub\n      swap1\n      return\n        /* \"SmartContractsInterview/MerkleDistribution.sol\":1648:1762  function endClaimingRound() external onlyOwner {... */\n    tag_10:\n      tag_53\n      tag_54\n      jump\t// in\n    tag_53:\n      stop\n        /* \"SmartContractsInterview/MerkleDistribution.sol\":1768:1890  function setClaimingRoundDuration(uint256 _duration) external onlyOwner {... */\n    tag_11:\n      tag_55\n      0x04\n      dup1\n      calldatasize\n      sub\n      dup2\n      add\n      swap1\n      tag_56\n      swap2\n      swap1\n      tag_57\n      jump\t// in\n    tag_56:\n      tag_58\n      jump\t// in\n    tag_55:\n      stop\n        /* \"SmartContractsInterview/MerkleDistribution.sol\":485:508  address public treasury */\n    tag_12:\n      tag_59\n      tag_60\n      jump\t// in\n    tag_59:\n      mload(0x40)\n      tag_61\n      swap2\n      swap1\n      tag_62\n      jump\t// in\n    tag_61:\n      mload(0x40)\n      dup1\n      swap2\n      sub\n      swap1\n      return\n        /* \"@openzeppelin/contracts/access/Ownable.sol\":2293:2394  function renounceOwnership() public virtual onlyOwner {... */\n    tag_13:\n      tag_63\n      tag_64\n      jump\t// in\n    tag_63:\n      stop\n        /* \"SmartContractsInterview/MerkleDistribution.sol\":1244:1348  function setMerkleRoot(bytes32 _merkleRoot) external onlyOwner {... */\n    tag_14:\n      tag_65\n      0x04\n      dup1\n      calldatasize\n      sub\n      dup2\n      add\n      swap1\n      tag_66\n      swap2\n      swap1\n      tag_67\n      jump\t// in\n    tag_66:\n      tag_68\n      jump\t// in\n    tag_65:\n      stop\n        /* \"SmartContractsInterview/MerkleDistribution.sol\":515:537  bool public isClaiming */\n    tag_15:\n      tag_69\n      tag_70\n      jump\t// in\n    tag_69:\n      mload(0x40)\n      tag_71\n      swap2\n      swap1\n      tag_52\n      jump\t// in\n    tag_71:\n      mload(0x40)\n      dup1\n      swap2\n      sub\n      swap1\n      return\n        /* \"SmartContractsInterview/MerkleDistribution.sol\":3311:3370  function pause() public onlyOwner {... */\n    tag_16:\n      tag_72\n      tag_73\n      jump\t// in\n    tag_72:\n      stop\n        /* \"@openzeppelin/contracts/access/Ownable.sol\":1638:1723  function owner() public view virtual returns (address) {... */\n    tag_17:\n      tag_74\n      tag_75\n      jump\t// in\n    tag_74:\n      mload(0x40)\n      tag_76\n      swap2\n      swap1\n      tag_62\n      jump\t// in\n    tag_76:\n      mload(0x40)\n      dup1\n      swap2\n      sub\n      swap1\n      return\n        /* \"SmartContractsInterview/MerkleDistribution.sol\":1896:2182  function verifyUser(... */\n    tag_18:\n      tag_77\n      0x04\n      dup1\n      calldatasize\n      sub\n      dup2\n      add\n      swap1\n      tag_78\n      swap2\n      swap1\n      tag_79\n      jump\t// in\n    tag_78:\n      tag_80\n      jump\t// in\n    tag_77:\n      mload(0x40)\n      tag_81\n      swap2\n      swap1\n      tag_52\n      jump\t// in\n    tag_81:\n      mload(0x40)\n      dup1\n      swap2\n      sub\n      swap1\n      return\n        /* \"SmartContractsInterview/MerkleDistribution.sol\":1510:1642  function setStartClaimingRound() external onlyOwner {... */\n    tag_19:\n      tag_82\n      tag_83\n      jump\t// in\n    tag_82:\n      stop\n        /* \"SmartContractsInterview/MerkleDistribution.sol\":3445:3674  function checkClaimingRound() external view returns (bool) {... */\n    tag_20:\n      tag_84\n      tag_85\n      jump\t// in\n    tag_84:\n      mload(0x40)\n      tag_86\n      swap2\n      swap1\n      tag_52\n      jump\t// in\n    tag_86:\n      mload(0x40)\n      dup1\n      swap2\n      sub\n      swap1\n      return\n        /* \"SmartContractsInterview/MerkleDistribution.sol\":625:664  mapping(address => bool) public claimed */\n    tag_21:\n      tag_87\n      0x04\n      dup1\n      calldatasize\n      sub\n      dup2\n      add\n      swap1\n      tag_88\n      swap2\n      swap1\n      tag_30\n      jump\t// in\n    tag_88:\n      tag_89\n      jump\t// in\n    tag_87:\n      mload(0x40)\n      tag_90\n      swap2\n      swap1\n      tag_52\n      jump\t// in\n    tag_90:\n      mload(0x40)\n      dup1\n      swap2\n      sub\n      swap1\n      return\n        /* \"SmartContractsInterview/MerkleDistribution.sol\":3089:3305  function unClaimedTokenToTreasury() external onlyOwner {... */\n    tag_22:\n      tag_91\n      tag_92\n      jump\t// in\n    tag_91:\n      stop\n        /* \"@openzeppelin/contracts/access/Ownable.sol\":2543:2758  function transferOwnership(address newOwner) public virtual onlyOwner {... */\n    tag_23:\n      tag_93\n      0x04\n      dup1\n      calldatasize\n      sub\n      dup2\n      add\n      swap1\n      tag_94\n      swap2\n      swap1\n      tag_30\n      jump\t// in\n    tag_94:\n      tag_95\n      jump\t// in\n    tag_93:\n      stop\n        /* \"SmartContractsInterview/MerkleDistribution.sol\":459:479  address public token */\n    tag_24:\n      tag_96\n      tag_97\n      jump\t// in\n    tag_96:\n      mload(0x40)\n      tag_98\n      swap2\n      swap1\n      tag_62\n      jump\t// in\n    tag_98:\n      mload(0x40)\n      dup1\n      swap2\n      sub\n      swap1\n      return\n        /* \"SmartContractsInterview/MerkleDistribution.sol\":1354:1504  function setToken(address _token) external onlyOwner {... */\n    tag_31:\n        /* \"@openzeppelin/contracts/access/Ownable.sol\":1531:1544  _checkOwner() */\n      tag_100\n        /* \"@openzeppelin/contracts/access/Ownable.sol\":1531:1542  _checkOwner */\n      tag_101\n        /* \"@openzeppelin/contracts/access/Ownable.sol\":1531:1544  _checkOwner() */\n      jump\t// in\n    tag_100:\n        /* \"SmartContractsInterview/MerkleDistribution.sol\":1443:1444  0 */\n      0x00\n        /* \"SmartContractsInterview/MerkleDistribution.sol\":1425:1445  _token != address(0) */\n      0xffffffffffffffffffffffffffffffffffffffff\n      and\n        /* \"SmartContractsInterview/MerkleDistribution.sol\":1425:1431  _token */\n      dup2\n        /* \"SmartContractsInterview/MerkleDistribution.sol\":1425:1445  _token != address(0) */\n      0xffffffffffffffffffffffffffffffffffffffff\n      and\n      sub\n        /* \"SmartContractsInterview/MerkleDistribution.sol\":1417:1473  require(_token != address(0), \"Token shouldn't be zero\") */\n      tag_103\n      jumpi\n      mload(0x40)\n      0x08c379a000000000000000000000000000000000000000000000000000000000\n      dup2\n      mstore\n      0x04\n      add\n      tag_104\n      swap1\n      tag_105\n      jump\t// in\n    tag_104:\n      mload(0x40)\n      dup1\n      swap2\n      sub\n      swap1\n      revert\n    tag_103:\n        /* \"SmartContractsInterview/MerkleDistribution.sol\":1491:1497  _token */\n      dup1\n        /* \"SmartContractsInterview/MerkleDistribution.sol\":1483:1488  token */\n      0x03\n      0x00\n        /* \"SmartContractsInterview/MerkleDistribution.sol\":1483:1497  token = _token */\n      0x0100\n      exp\n      dup2\n      sload\n      dup2\n      0xffffffffffffffffffffffffffffffffffffffff\n      mul\n      not\n      and\n      swap1\n      dup4\n      0xffffffffffffffffffffffffffffffffffffffff\n      and\n      mul\n      or\n      swap1\n      sstore\n      pop\n        /* \"SmartContractsInterview/MerkleDistribution.sol\":1354:1504  function setToken(address _token) external onlyOwner {... */\n      pop\n      jump\t// out\n        /* \"SmartContractsInterview/MerkleDistribution.sol\":427:452  bytes32 public merkleRoot */\n    tag_33:\n      sload(0x02)\n      dup2\n      jump\t// out\n        /* \"SmartContractsInterview/MerkleDistribution.sol\":2188:3083  function claim(... */\n    tag_39:\n        /* \"@openzeppelin/contracts/security/Pausable.sol\":1239:1258  _requireNotPaused() */\n      tag_107\n        /* \"@openzeppelin/contracts/security/Pausable.sol\":1239:1256  _requireNotPaused */\n      tag_108\n        /* \"@openzeppelin/contracts/security/Pausable.sol\":1239:1258  _requireNotPaused() */\n      jump\t// in\n    tag_107:\n        /* \"@openzeppelin/contracts/security/ReentrancyGuard.sol\":2261:2282  _nonReentrantBefore() */\n      tag_110\n        /* \"@openzeppelin/contracts/security/ReentrancyGuard.sol\":2261:2280  _nonReentrantBefore */\n      tag_111\n        /* \"@openzeppelin/contracts/security/ReentrancyGuard.sol\":2261:2282  _nonReentrantBefore() */\n      jump\t// in\n    tag_110:\n        /* \"SmartContractsInterview/MerkleDistribution.sol\":792:802  isClaiming */\n      0x04\n      0x14\n      swap1\n      sload\n      swap1\n      0x0100\n      exp\n      swap1\n      div\n      0xff\n      and\n        /* \"SmartContractsInterview/MerkleDistribution.sol\":792:926  isClaiming && (block.timestamp >= startClaimingRound &&... */\n      dup1\n      iszero\n      tag_113\n      jumpi\n      pop\n        /* \"SmartContractsInterview/MerkleDistribution.sol\":826:844  startClaimingRound */\n      sload(0x05)\n        /* \"SmartContractsInterview/MerkleDistribution.sol\":807:822  block.timestamp */\n      timestamp\n        /* \"SmartContractsInterview/MerkleDistribution.sol\":807:844  block.timestamp >= startClaimingRound */\n      lt\n      iszero\n        /* \"SmartContractsInterview/MerkleDistribution.sol\":807:925  block.timestamp >= startClaimingRound &&... */\n      dup1\n      iszero\n      tag_114\n      jumpi\n      pop\n        /* \"SmartContractsInterview/MerkleDistribution.sol\":904:925  claimingRoundDuration */\n      sload(0x06)\n        /* \"SmartContractsInterview/MerkleDistribution.sol\":883:901  startClaimingRound */\n      sload(0x05)\n        /* \"SmartContractsInterview/MerkleDistribution.sol\":883:925  startClaimingRound + claimingRoundDuration */\n      tag_115\n      swap2\n      swap1\n      tag_116\n      jump\t// in\n    tag_115:\n        /* \"SmartContractsInterview/MerkleDistribution.sol\":864:879  block.timestamp */\n      timestamp\n        /* \"SmartContractsInterview/MerkleDistribution.sol\":864:925  block.timestamp <= startClaimingRound + claimingRoundDuration */\n      gt\n      iszero\n        /* \"SmartContractsInterview/MerkleDistribution.sol\":807:925  block.timestamp >= startClaimingRound &&... */\n    tag_114:\n        /* \"SmartContractsInterview/MerkleDistribution.sol\":792:926  isClaiming && (block.timestamp >= startClaimingRound &&... */\n    tag_113:\n        /* \"SmartContractsInterview/MerkleDistribution.sol\":771:977  require(... */\n      tag_117\n      jumpi\n      mload(0x40)\n      0x08c379a000000000000000000000000000000000000000000000000000000000\n      dup2\n      mstore\n      0x04\n      add\n      tag_118\n      swap1\n      tag_119\n      jump\t// in\n    tag_118:\n      mload(0x40)\n      dup1\n      swap2\n      sub\n      swap1\n      revert\n    tag_117:\n        /* \"SmartContractsInterview/MerkleDistribution.sol\":2357:2364  claimed */\n      0x07\n        /* \"SmartContractsInterview/MerkleDistribution.sol\":2357:2376  claimed[msg.sender] */\n      0x00\n        /* \"SmartContractsInterview/MerkleDistribution.sol\":2365:2375  msg.sender */\n      caller\n        /* \"SmartContractsInterview/MerkleDistribution.sol\":2357:2376  claimed[msg.sender] */\n      0xffffffffffffffffffffffffffffffffffffffff\n      and\n      0xffffffffffffffffffffffffffffffffffffffff\n      and\n      dup2\n      mstore\n      0x20\n      add\n      swap1\n      dup2\n      mstore\n      0x20\n      add\n      0x00\n      keccak256\n      0x00\n      swap1\n      sload\n      swap1\n      0x0100\n      exp\n      swap1\n      div\n      0xff\n      and\n        /* \"SmartContractsInterview/MerkleDistribution.sol\":2356:2376  !claimed[msg.sender] */\n      iszero\n        /* \"SmartContractsInterview/MerkleDistribution.sol\":2348:2396  require(!claimed[msg.sender], \"Already claimed\") */\n      tag_121\n      jumpi\n      mload(0x40)\n      0x08c379a000000000000000000000000000000000000000000000000000000000\n      dup2\n      mstore\n      0x04\n      add\n      tag_122\n      swap1\n      tag_123\n      jump\t// in\n    tag_122:\n      mload(0x40)\n      dup1\n      swap2\n      sub\n      swap1\n      revert\n    tag_121:\n        /* \"SmartContractsInterview/MerkleDistribution.sol\":2442:2454  bytes32 node */\n      0x00\n        /* \"SmartContractsInterview/MerkleDistribution.sol\":2484:2494  msg.sender */\n      caller\n        /* \"SmartContractsInterview/MerkleDistribution.sol\":2496:2503  _amount */\n      dup5\n        /* \"SmartContractsInterview/MerkleDistribution.sol\":2467:2504  abi.encodePacked(msg.sender, _amount) */\n      add(0x20, mload(0x40))\n      tag_124\n      swap3\n      swap2\n      swap1\n      tag_125\n      jump\t// in\n    tag_124:\n      mload(0x40)\n      0x20\n      dup2\n      dup4\n      sub\n      sub\n      dup2\n      mstore\n      swap1\n      0x40\n      mstore\n        /* \"SmartContractsInterview/MerkleDistribution.sol\":2457:2505  keccak256(abi.encodePacked(msg.sender, _amount)) */\n      dup1\n      mload\n      swap1\n      0x20\n      add\n      keccak256\n        /* \"SmartContractsInterview/MerkleDistribution.sol\":2442:2505  bytes32 node = keccak256(abi.encodePacked(msg.sender, _amount)) */\n      swap1\n      pop\n        /* \"SmartContractsInterview/MerkleDistribution.sol\":2536:2586  MerkleProof.verify(_merkleProof, merkleRoot, node) */\n      tag_126\n        /* \"SmartContractsInterview/MerkleDistribution.sol\":2555:2567  _merkleProof */\n      dup4\n      dup4\n        /* \"SmartContractsInterview/MerkleDistribution.sol\":2536:2586  MerkleProof.verify(_merkleProof, merkleRoot, node) */\n      dup1\n      dup1\n      0x20\n      mul\n      0x20\n      add\n      mload(0x40)\n      swap1\n      dup2\n      add\n      0x40\n      mstore\n      dup1\n      swap4\n      swap3\n      swap2\n      swap1\n      dup2\n      dup2\n      mstore\n      0x20\n      add\n      dup4\n      dup4\n      0x20\n      mul\n      dup1\n      dup3\n      dup5\n      calldatacopy\n      0x00\n      dup2\n      dup5\n      add\n      mstore\n      not(0x1f)\n      0x1f\n      dup3\n      add\n      and\n      swap1\n      pop\n      dup1\n      dup4\n      add\n      swap3\n      pop\n      pop\n      pop\n      pop\n      pop\n      pop\n      pop\n        /* \"SmartContractsInterview/MerkleDistribution.sol\":2569:2579  merkleRoot */\n      sload(0x02)\n        /* \"SmartContractsInterview/MerkleDistribution.sol\":2581:2585  node */\n      dup4\n        /* \"SmartContractsInterview/MerkleDistribution.sol\":2536:2554  MerkleProof.verify */\n      tag_127\n        /* \"SmartContractsInterview/MerkleDistribution.sol\":2536:2586  MerkleProof.verify(_merkleProof, merkleRoot, node) */\n      jump\t// in\n    tag_126:\n        /* \"SmartContractsInterview/MerkleDistribution.sol\":2515:2625  require(... */\n      tag_128\n      jumpi\n      mload(0x40)\n      0x08c379a000000000000000000000000000000000000000000000000000000000\n      dup2\n      mstore\n      0x04\n      add\n      tag_129\n      swap1\n      tag_130\n      jump\t// in\n    tag_129:\n      mload(0x40)\n      dup1\n      swap2\n      sub\n      swap1\n      revert\n    tag_128:\n        /* \"SmartContractsInterview/MerkleDistribution.sol\":2661:2662  0 */\n      0x00\n        /* \"SmartContractsInterview/MerkleDistribution.sol\":2644:2663  token != address(0) */\n      0xffffffffffffffffffffffffffffffffffffffff\n      and\n        /* \"SmartContractsInterview/MerkleDistribution.sol\":2644:2649  token */\n      0x03\n      0x00\n      swap1\n      sload\n      swap1\n      0x0100\n      exp\n      swap1\n      div\n      0xffffffffffffffffffffffffffffffffffffffff\n      and\n        /* \"SmartContractsInterview/MerkleDistribution.sol\":2644:2663  token != address(0) */\n      0xffffffffffffffffffffffffffffffffffffffff\n      and\n      sub\n        /* \"SmartContractsInterview/MerkleDistribution.sol\":2636:2700  require(token != address(0), \"Token address shouldn't be zero!\") */\n      tag_131\n      jumpi\n      mload(0x40)\n      0x08c379a000000000000000000000000000000000000000000000000000000000\n      dup2\n      mstore\n      0x04\n      add\n      tag_132\n      swap1\n      tag_133\n      jump\t// in\n    tag_132:\n      mload(0x40)\n      dup1\n      swap2\n      sub\n      swap1\n      revert\n    tag_131:\n        /* \"SmartContractsInterview/MerkleDistribution.sol\":2797:2804  _amount */\n      dup4\n        /* \"SmartContractsInterview/MerkleDistribution.sol\":2763:2768  token */\n      0x03\n      0x00\n      swap1\n      sload\n      swap1\n      0x0100\n      exp\n      swap1\n      div\n      0xffffffffffffffffffffffffffffffffffffffff\n      and\n        /* \"SmartContractsInterview/MerkleDistribution.sol\":2756:2779  IERC20(token).balanceOf */\n      0xffffffffffffffffffffffffffffffffffffffff\n      and\n      0x70a08231\n        /* \"SmartContractsInterview/MerkleDistribution.sol\":2788:2792  this */\n      address\n        /* \"SmartContractsInterview/MerkleDistribution.sol\":2756:2794  IERC20(token).balanceOf(address(this)) */\n      mload(0x40)\n      dup3\n      0xffffffff\n      and\n      0xe0\n      shl\n      dup2\n      mstore\n      0x04\n      add\n      tag_134\n      swap2\n      swap1\n      tag_62\n      jump\t// in\n    tag_134:\n      0x20\n      mload(0x40)\n      dup1\n      dup4\n      sub\n      dup2\n      dup7\n      gas\n      staticcall\n      iszero\n      dup1\n      iszero\n      tag_136\n      jumpi\n      returndatasize\n      0x00\n      dup1\n      returndatacopy\n      revert(0x00, returndatasize)\n    tag_136:\n      pop\n      pop\n      pop\n      pop\n      mload(0x40)\n      returndatasize\n      not(0x1f)\n      0x1f\n      dup3\n      add\n      and\n      dup3\n      add\n      dup1\n      0x40\n      mstore\n      pop\n      dup2\n      add\n      swap1\n      tag_137\n      swap2\n      swap1\n      tag_138\n      jump\t// in\n    tag_137:\n        /* \"SmartContractsInterview/MerkleDistribution.sol\":2756:2804  IERC20(token).balanceOf(address(this)) > _amount */\n      gt\n        /* \"SmartContractsInterview/MerkleDistribution.sol\":2735:2851  require(... */\n      tag_139\n      jumpi\n      mload(0x40)\n      0x08c379a000000000000000000000000000000000000000000000000000000000\n      dup2\n      mstore\n      0x04\n      add\n      tag_140\n      swap1\n      tag_141\n      jump\t// in\n    tag_140:\n      mload(0x40)\n      dup1\n      swap2\n      sub\n      swap1\n      revert\n    tag_139:\n        /* \"SmartContractsInterview/MerkleDistribution.sol\":2875:2876  0 */\n      0x00\n        /* \"SmartContractsInterview/MerkleDistribution.sol\":2865:2872  _amount */\n      dup5\n        /* \"SmartContractsInterview/MerkleDistribution.sol\":2865:2876  _amount > 0 */\n      gt\n        /* \"SmartContractsInterview/MerkleDistribution.sol\":2861:2946  if (_amount > 0) {... */\n      iszero\n      tag_142\n      jumpi\n        /* \"SmartContractsInterview/MerkleDistribution.sol\":2899:2904  token */\n      0x03\n      0x00\n      swap1\n      sload\n      swap1\n      0x0100\n      exp\n      swap1\n      div\n      0xffffffffffffffffffffffffffffffffffffffff\n      and\n        /* \"SmartContractsInterview/MerkleDistribution.sol\":2892:2914  IERC20(token).transfer */\n      0xffffffffffffffffffffffffffffffffffffffff\n      and\n      0xa9059cbb\n        /* \"SmartContractsInterview/MerkleDistribution.sol\":2915:2925  msg.sender */\n      caller\n        /* \"SmartContractsInterview/MerkleDistribution.sol\":2927:2934  _amount */\n      dup7\n        /* \"SmartContractsInterview/MerkleDistribution.sol\":2892:2935  IERC20(token).transfer(msg.sender, _amount) */\n      mload(0x40)\n      dup4\n      0xffffffff\n      and\n      0xe0\n      shl\n      dup2\n      mstore\n      0x04\n      add\n      tag_143\n      swap3\n      swap2\n      swap1\n      tag_144\n      jump\t// in\n    tag_143:\n      0x20\n      mload(0x40)\n      dup1\n      dup4\n      sub\n      dup2\n      0x00\n      dup8\n      gas\n      call\n      iszero\n      dup1\n      iszero\n      tag_146\n      jumpi\n      returndatasize\n      0x00\n      dup1\n      returndatacopy\n      revert(0x00, returndatasize)\n    tag_146:\n      pop\n      pop\n      pop\n      pop\n      mload(0x40)\n      returndatasize\n      not(0x1f)\n      0x1f\n      dup3\n      add\n      and\n      dup3\n      add\n      dup1\n      0x40\n      mstore\n      pop\n      dup2\n      add\n      swap1\n      tag_147\n      swap2\n      swap1\n      tag_148\n      jump\t// in\n    tag_147:\n      pop\n        /* \"SmartContractsInterview/MerkleDistribution.sol\":2861:2946  if (_amount > 0) {... */\n    tag_142:\n        /* \"SmartContractsInterview/MerkleDistribution.sol\":3028:3032  true */\n      0x01\n        /* \"SmartContractsInterview/MerkleDistribution.sol\":3006:3013  claimed */\n      0x07\n        /* \"SmartContractsInterview/MerkleDistribution.sol\":3006:3025  claimed[msg.sender] */\n      0x00\n        /* \"SmartContractsInterview/MerkleDistribution.sol\":3014:3024  msg.sender */\n      caller\n        /* \"SmartContractsInterview/MerkleDistribution.sol\":3006:3025  claimed[msg.sender] */\n      0xffffffffffffffffffffffffffffffffffffffff\n      and\n      0xffffffffffffffffffffffffffffffffffffffff\n      and\n      dup2\n      mstore\n      0x20\n      add\n      swap1\n      dup2\n      mstore\n      0x20\n      add\n      0x00\n      keccak256\n      0x00\n        /* \"SmartContractsInterview/MerkleDistribution.sol\":3006:3032  claimed[msg.sender] = true */\n      0x0100\n      exp\n      dup2\n      sload\n      dup2\n      0xff\n      mul\n      not\n      and\n      swap1\n      dup4\n      iszero\n      iszero\n      mul\n      or\n      swap1\n      sstore\n      pop\n        /* \"SmartContractsInterview/MerkleDistribution.sol\":3056:3066  msg.sender */\n      caller\n        /* \"SmartContractsInterview/MerkleDistribution.sol\":3048:3076  Claimed(msg.sender, _amount) */\n      0xffffffffffffffffffffffffffffffffffffffff\n      and\n      0xd8138f8a3f377c5259ca548e70e4c2de94f129f5a11036a15b69513cba2b426a\n        /* \"SmartContractsInterview/MerkleDistribution.sol\":3068:3075  _amount */\n      dup6\n        /* \"SmartContractsInterview/MerkleDistribution.sol\":3048:3076  Claimed(msg.sender, _amount) */\n      mload(0x40)\n      tag_149\n      swap2\n      swap1\n      tag_45\n      jump\t// in\n    tag_149:\n      mload(0x40)\n      dup1\n      swap2\n      sub\n      swap1\n      log2\n        /* \"SmartContractsInterview/MerkleDistribution.sol\":2329:3083  {... */\n      pop\n        /* \"@openzeppelin/contracts/security/ReentrancyGuard.sol\":2303:2323  _nonReentrantAfter() */\n      tag_150\n        /* \"@openzeppelin/contracts/security/ReentrancyGuard.sol\":2303:2321  _nonReentrantAfter */\n      tag_151\n        /* \"@openzeppelin/contracts/security/ReentrancyGuard.sol\":2303:2323  _nonReentrantAfter() */\n      jump\t// in\n    tag_150:\n        /* \"SmartContractsInterview/MerkleDistribution.sol\":2188:3083  function claim(... */\n      pop\n      pop\n      pop\n      jump\t// out\n        /* \"SmartContractsInterview/MerkleDistribution.sol\":3376:3439  function unpause() public onlyOwner {... */\n    tag_41:\n        /* \"@openzeppelin/contracts/access/Ownable.sol\":1531:1544  _checkOwner() */\n      tag_153\n        /* \"@openzeppelin/contracts/access/Ownable.sol\":1531:1542  _checkOwner */\n      tag_101\n        /* \"@openzeppelin/contracts/access/Ownable.sol\":1531:1544  _checkOwner() */\n      jump\t// in\n    tag_153:\n        /* \"SmartContractsInterview/MerkleDistribution.sol\":3422:3432  _unpause() */\n      tag_155\n        /* \"SmartContractsInterview/MerkleDistribution.sol\":3422:3430  _unpause */\n      tag_156\n        /* \"SmartContractsInterview/MerkleDistribution.sol\":3422:3432  _unpause() */\n      jump\t// in\n    tag_155:\n        /* \"SmartContractsInterview/MerkleDistribution.sol\":3376:3439  function unpause() public onlyOwner {... */\n      jump\t// out\n        /* \"SmartContractsInterview/MerkleDistribution.sol\":543:576  uint256 public startClaimingRound */\n    tag_43:\n      sload(0x05)\n      dup2\n      jump\t// out\n        /* \"SmartContractsInterview/MerkleDistribution.sol\":582:618  uint256 public claimingRoundDuration */\n    tag_47:\n      sload(0x06)\n      dup2\n      jump\t// out\n        /* \"@openzeppelin/contracts/security/Pausable.sol\":1615:1699  function paused() public view virtual returns (bool) {... */\n    tag_50:\n        /* \"@openzeppelin/contracts/security/Pausable.sol\":1662:1666  bool */\n      0x00\n        /* \"@openzeppelin/contracts/security/Pausable.sol\":1685:1692  _paused */\n      dup1\n      0x00\n      swap1\n      sload\n      swap1\n      0x0100\n      exp\n      swap1\n      div\n      0xff\n      and\n        /* \"@openzeppelin/contracts/security/Pausable.sol\":1678:1692  return _paused */\n      swap1\n      pop\n        /* \"@openzeppelin/contracts/security/Pausable.sol\":1615:1699  function paused() public view virtual returns (bool) {... */\n      swap1\n      jump\t// out\n        /* \"SmartContractsInterview/MerkleDistribution.sol\":1648:1762  function endClaimingRound() external onlyOwner {... */\n    tag_54:\n        /* \"@openzeppelin/contracts/access/Ownable.sol\":1531:1544  _checkOwner() */\n      tag_159\n        /* \"@openzeppelin/contracts/access/Ownable.sol\":1531:1542  _checkOwner */\n      tag_101\n        /* \"@openzeppelin/contracts/access/Ownable.sol\":1531:1544  _checkOwner() */\n      jump\t// in\n    tag_159:\n        /* \"SmartContractsInterview/MerkleDistribution.sol\":1718:1723  false */\n      0x00\n        /* \"SmartContractsInterview/MerkleDistribution.sol\":1705:1715  isClaiming */\n      0x04\n      0x14\n        /* \"SmartContractsInterview/MerkleDistribution.sol\":1705:1723  isClaiming = false */\n      0x0100\n      exp\n      dup2\n      sload\n      dup2\n      0xff\n      mul\n      not\n      and\n      swap1\n      dup4\n      iszero\n      iszero\n      mul\n      or\n      swap1\n      sstore\n      pop\n        /* \"SmartContractsInterview/MerkleDistribution.sol\":1754:1755  0 */\n      0x00\n        /* \"SmartContractsInterview/MerkleDistribution.sol\":1733:1751  startClaimingRound */\n      0x05\n        /* \"SmartContractsInterview/MerkleDistribution.sol\":1733:1755  startClaimingRound = 0 */\n      dup2\n      swap1\n      sstore\n      pop\n        /* \"SmartContractsInterview/MerkleDistribution.sol\":1648:1762  function endClaimingRound() external onlyOwner {... */\n      jump\t// out\n        /* \"SmartContractsInterview/MerkleDistribution.sol\":1768:1890  function setClaimingRoundDuration(uint256 _duration) external onlyOwner {... */\n    tag_58:\n        /* \"@openzeppelin/contracts/access/Ownable.sol\":1531:1544  _checkOwner() */\n      tag_162\n        /* \"@openzeppelin/contracts/access/Ownable.sol\":1531:1542  _checkOwner */\n      tag_101\n        /* \"@openzeppelin/contracts/access/Ownable.sol\":1531:1544  _checkOwner() */\n      jump\t// in\n    tag_162:\n        /* \"SmartContractsInterview/MerkleDistribution.sol\":1874:1883  _duration */\n      dup1\n        /* \"SmartContractsInterview/MerkleDistribution.sol\":1850:1871  claimingRoundDuration */\n      0x06\n        /* \"SmartContractsInterview/MerkleDistribution.sol\":1850:1883  claimingRoundDuration = _duration */\n      dup2\n      swap1\n      sstore\n      pop\n        /* \"SmartContractsInterview/MerkleDistribution.sol\":1768:1890  function setClaimingRoundDuration(uint256 _duration) external onlyOwner {... */\n      pop\n      jump\t// out\n        /* \"SmartContractsInterview/MerkleDistribution.sol\":485:508  address public treasury */\n    tag_60:\n      0x04\n      0x00\n      swap1\n      sload\n      swap1\n      0x0100\n      exp\n      swap1\n      div\n      0xffffffffffffffffffffffffffffffffffffffff\n      and\n      dup2\n      jump\t// out\n        /* \"@openzeppelin/contracts/access/Ownable.sol\":2293:2394  function renounceOwnership() public virtual onlyOwner {... */\n    tag_64:\n        /* \"@openzeppelin/contracts/access/Ownable.sol\":1531:1544  _checkOwner() */\n      tag_165\n        /* \"@openzeppelin/contracts/access/Ownable.sol\":1531:1542  _checkOwner */\n      tag_101\n        /* \"@openzeppelin/contracts/access/Ownable.sol\":1531:1544  _checkOwner() */\n      jump\t// in\n    tag_165:\n        /* \"@openzeppelin/contracts/access/Ownable.sol\":2357:2387  _transferOwnership(address(0)) */\n      tag_167\n        /* \"@openzeppelin/contracts/access/Ownable.sol\":2384:2385  0 */\n      0x00\n        /* \"@openzeppelin/contracts/access/Ownable.sol\":2357:2375  _transferOwnership */\n      tag_168\n        /* \"@openzeppelin/contracts/access/Ownable.sol\":2357:2387  _transferOwnership(address(0)) */\n      jump\t// in\n    tag_167:\n        /* \"@openzeppelin/contracts/access/Ownable.sol\":2293:2394  function renounceOwnership() public virtual onlyOwner {... */\n      jump\t// out\n        /* \"SmartContractsInterview/MerkleDistribution.sol\":1244:1348  function setMerkleRoot(bytes32 _merkleRoot) external onlyOwner {... */\n    tag_68:\n        /* \"@openzeppelin/contracts/access/Ownable.sol\":1531:1544  _checkOwner() */\n      tag_170\n        /* \"@openzeppelin/contracts/access/Ownable.sol\":1531:1542  _checkOwner */\n      tag_101\n        /* \"@openzeppelin/contracts/access/Ownable.sol\":1531:1544  _checkOwner() */\n      jump\t// in\n    tag_170:\n        /* \"SmartContractsInterview/MerkleDistribution.sol\":1330:1341  _merkleRoot */\n      dup1\n        /* \"SmartContractsInterview/MerkleDistribution.sol\":1317:1327  merkleRoot */\n      0x02\n        /* \"SmartContractsInterview/MerkleDistribution.sol\":1317:1341  merkleRoot = _merkleRoot */\n      dup2\n      swap1\n      sstore\n      pop\n        /* \"SmartContractsInterview/MerkleDistribution.sol\":1244:1348  function setMerkleRoot(bytes32 _merkleRoot) external onlyOwner {... */\n      pop\n      jump\t// out\n        /* \"SmartContractsInterview/MerkleDistribution.sol\":515:537  bool public isClaiming */\n    tag_70:\n      0x04\n      0x14\n      swap1\n      sload\n      swap1\n      0x0100\n      exp\n      swap1\n      div\n      0xff\n      and\n      dup2\n      jump\t// out\n        /* \"SmartContractsInterview/MerkleDistribution.sol\":3311:3370  function pause() public onlyOwner {... */\n    tag_73:\n        /* \"@openzeppelin/contracts/access/Ownable.sol\":1531:1544  _checkOwner() */\n      tag_173\n        /* \"@openzeppelin/contracts/access/Ownable.sol\":1531:1542  _checkOwner */\n      tag_101\n        /* \"@openzeppelin/contracts/access/Ownable.sol\":1531:1544  _checkOwner() */\n      jump\t// in\n    tag_173:\n        /* \"SmartContractsInterview/MerkleDistribution.sol\":3355:3363  _pause() */\n      tag_175\n        /* \"SmartContractsInterview/MerkleDistribution.sol\":3355:3361  _pause */\n      tag_176\n        /* \"SmartContractsInterview/MerkleDistribution.sol\":3355:3363  _pause() */\n      jump\t// in\n    tag_175:\n        /* \"SmartContractsInterview/MerkleDistribution.sol\":3311:3370  function pause() public onlyOwner {... */\n      jump\t// out\n        /* \"@openzeppelin/contracts/access/Ownable.sol\":1638:1723  function owner() public view virtual returns (address) {... */\n    tag_75:\n        /* \"@openzeppelin/contracts/access/Ownable.sol\":1684:1691  address */\n      0x00\n        /* \"@openzeppelin/contracts/access/Ownable.sol\":1710:1716  _owner */\n      dup1\n      0x01\n      swap1\n      sload\n      swap1\n      0x0100\n      exp\n      swap1\n      div\n      0xffffffffffffffffffffffffffffffffffffffff\n      and\n        /* \"@openzeppelin/contracts/access/Ownable.sol\":1703:1716  return _owner */\n      swap1\n      pop\n        /* \"@openzeppelin/contracts/access/Ownable.sol\":1638:1723  function owner() public view virtual returns (address) {... */\n      swap1\n      jump\t// out\n        /* \"SmartContractsInterview/MerkleDistribution.sol\":1896:2182  function verifyUser(... */\n    tag_80:\n        /* \"SmartContractsInterview/MerkleDistribution.sol\":2034:2038  bool */\n      0x00\n        /* \"SmartContractsInterview/MerkleDistribution.sol\":2050:2062  bytes32 node */\n      dup1\n        /* \"SmartContractsInterview/MerkleDistribution.sol\":2092:2097  _user */\n      dup6\n        /* \"SmartContractsInterview/MerkleDistribution.sol\":2099:2106  _amount */\n      dup6\n        /* \"SmartContractsInterview/MerkleDistribution.sol\":2075:2107  abi.encodePacked(_user, _amount) */\n      add(0x20, mload(0x40))\n      tag_179\n      swap3\n      swap2\n      swap1\n      tag_125\n      jump\t// in\n    tag_179:\n      mload(0x40)\n      0x20\n      dup2\n      dup4\n      sub\n      sub\n      dup2\n      mstore\n      swap1\n      0x40\n      mstore\n        /* \"SmartContractsInterview/MerkleDistribution.sol\":2065:2108  keccak256(abi.encodePacked(_user, _amount)) */\n      dup1\n      mload\n      swap1\n      0x20\n      add\n      keccak256\n        /* \"SmartContractsInterview/MerkleDistribution.sol\":2050:2108  bytes32 node = keccak256(abi.encodePacked(_user, _amount)) */\n      swap1\n      pop\n        /* \"SmartContractsInterview/MerkleDistribution.sol\":2125:2175  MerkleProof.verify(_merkleProof, merkleRoot, node) */\n      tag_180\n        /* \"SmartContractsInterview/MerkleDistribution.sol\":2144:2156  _merkleProof */\n      dup5\n      dup5\n        /* \"SmartContractsInterview/MerkleDistribution.sol\":2125:2175  MerkleProof.verify(_merkleProof, merkleRoot, node) */\n      dup1\n      dup1\n      0x20\n      mul\n      0x20\n      add\n      mload(0x40)\n      swap1\n      dup2\n      add\n      0x40\n      mstore\n      dup1\n      swap4\n      swap3\n      swap2\n      swap1\n      dup2\n      dup2\n      mstore\n      0x20\n      add\n      dup4\n      dup4\n      0x20\n      mul\n      dup1\n      dup3\n      dup5\n      calldatacopy\n      0x00\n      dup2\n      dup5\n      add\n      mstore\n      not(0x1f)\n      0x1f\n      dup3\n      add\n      and\n      swap1\n      pop\n      dup1\n      dup4\n      add\n      swap3\n      pop\n      pop\n      pop\n      pop\n      pop\n      pop\n      pop\n        /* \"SmartContractsInterview/MerkleDistribution.sol\":2158:2168  merkleRoot */\n      sload(0x02)\n        /* \"SmartContractsInterview/MerkleDistribution.sol\":2170:2174  node */\n      dup4\n        /* \"SmartContractsInterview/MerkleDistribution.sol\":2125:2143  MerkleProof.verify */\n      tag_127\n        /* \"SmartContractsInterview/MerkleDistribution.sol\":2125:2175  MerkleProof.verify(_merkleProof, merkleRoot, node) */\n      jump\t// in\n    tag_180:\n        /* \"SmartContractsInterview/MerkleDistribution.sol\":2118:2175  return MerkleProof.verify(_merkleProof, merkleRoot, node) */\n      swap2\n      pop\n      pop\n        /* \"SmartContractsInterview/MerkleDistribution.sol\":1896:2182  function verifyUser(... */\n      swap5\n      swap4\n      pop\n      pop\n      pop\n      pop\n      jump\t// out\n        /* \"SmartContractsInterview/MerkleDistribution.sol\":1510:1642  function setStartClaimingRound() external onlyOwner {... */\n    tag_83:\n        /* \"@openzeppelin/contracts/access/Ownable.sol\":1531:1544  _checkOwner() */\n      tag_182\n        /* \"@openzeppelin/contracts/access/Ownable.sol\":1531:1542  _checkOwner */\n      tag_101\n        /* \"@openzeppelin/contracts/access/Ownable.sol\":1531:1544  _checkOwner() */\n      jump\t// in\n    tag_182:\n        /* \"SmartContractsInterview/MerkleDistribution.sol\":1585:1589  true */\n      0x01\n        /* \"SmartContractsInterview/MerkleDistribution.sol\":1572:1582  isClaiming */\n      0x04\n      0x14\n        /* \"SmartContractsInterview/MerkleDistribution.sol\":1572:1589  isClaiming = true */\n      0x0100\n      exp\n      dup2\n      sload\n      dup2\n      0xff\n      mul\n      not\n      and\n      swap1\n      dup4\n      iszero\n      iszero\n      mul\n      or\n      swap1\n      sstore\n      pop\n        /* \"SmartContractsInterview/MerkleDistribution.sol\":1620:1635  block.timestamp */\n      timestamp\n        /* \"SmartContractsInterview/MerkleDistribution.sol\":1599:1617  startClaimingRound */\n      0x05\n        /* \"SmartContractsInterview/MerkleDistribution.sol\":1599:1635  startClaimingRound = block.timestamp */\n      dup2\n      swap1\n      sstore\n      pop\n        /* \"SmartContractsInterview/MerkleDistribution.sol\":1510:1642  function setStartClaimingRound() external onlyOwner {... */\n      jump\t// out\n        /* \"SmartContractsInterview/MerkleDistribution.sol\":3445:3674  function checkClaimingRound() external view returns (bool) {... */\n    tag_85:\n        /* \"SmartContractsInterview/MerkleDistribution.sol\":3498:3502  bool */\n      0x00\n        /* \"SmartContractsInterview/MerkleDistribution.sol\":3533:3543  isClaiming */\n      0x04\n      0x14\n      swap1\n      sload\n      swap1\n      0x0100\n      exp\n      swap1\n      div\n      0xff\n      and\n        /* \"SmartContractsInterview/MerkleDistribution.sol\":3533:3612  isClaiming && ((startClaimingRound + claimingRoundDuration) >= block.timestamp) */\n      dup1\n      iszero\n      tag_185\n      jumpi\n      pop\n        /* \"SmartContractsInterview/MerkleDistribution.sol\":3596:3611  block.timestamp */\n      timestamp\n        /* \"SmartContractsInterview/MerkleDistribution.sol\":3570:3591  claimingRoundDuration */\n      sload(0x06)\n        /* \"SmartContractsInterview/MerkleDistribution.sol\":3549:3567  startClaimingRound */\n      sload(0x05)\n        /* \"SmartContractsInterview/MerkleDistribution.sol\":3549:3591  startClaimingRound + claimingRoundDuration */\n      tag_186\n      swap2\n      swap1\n      tag_116\n      jump\t// in\n    tag_186:\n        /* \"SmartContractsInterview/MerkleDistribution.sol\":3548:3611  (startClaimingRound + claimingRoundDuration) >= block.timestamp */\n      lt\n      iszero\n        /* \"SmartContractsInterview/MerkleDistribution.sol\":3533:3612  isClaiming && ((startClaimingRound + claimingRoundDuration) >= block.timestamp) */\n    tag_185:\n        /* \"SmartContractsInterview/MerkleDistribution.sol\":3533:3667  isClaiming && ((startClaimingRound + claimingRoundDuration) >= block.timestamp) &&... */\n      dup1\n      iszero\n      tag_187\n      jumpi\n      pop\n        /* \"SmartContractsInterview/MerkleDistribution.sol\":3648:3666  startClaimingRound */\n      sload(0x05)\n        /* \"SmartContractsInterview/MerkleDistribution.sol\":3629:3644  block.timestamp */\n      timestamp\n        /* \"SmartContractsInterview/MerkleDistribution.sol\":3629:3666  block.timestamp >= startClaimingRound */\n      lt\n      iszero\n        /* \"SmartContractsInterview/MerkleDistribution.sol\":3533:3667  isClaiming && ((startClaimingRound + claimingRoundDuration) >= block.timestamp) &&... */\n    tag_187:\n        /* \"SmartContractsInterview/MerkleDistribution.sol\":3514:3667  return... */\n      swap1\n      pop\n        /* \"SmartContractsInterview/MerkleDistribution.sol\":3445:3674  function checkClaimingRound() external view returns (bool) {... */\n      swap1\n      jump\t// out\n        /* \"SmartContractsInterview/MerkleDistribution.sol\":625:664  mapping(address => bool) public claimed */\n    tag_89:\n      mstore(0x20, 0x07)\n      dup1\n      0x00\n      mstore\n      keccak256(0x00, 0x40)\n      0x00\n      swap2\n      pop\n      sload\n      swap1\n      0x0100\n      exp\n      swap1\n      div\n      0xff\n      and\n      dup2\n      jump\t// out\n        /* \"SmartContractsInterview/MerkleDistribution.sol\":3089:3305  function unClaimedTokenToTreasury() external onlyOwner {... */\n    tag_92:\n        /* \"@openzeppelin/contracts/access/Ownable.sol\":1531:1544  _checkOwner() */\n      tag_189\n        /* \"@openzeppelin/contracts/access/Ownable.sol\":1531:1542  _checkOwner */\n      tag_101\n        /* \"@openzeppelin/contracts/access/Ownable.sol\":1531:1544  _checkOwner() */\n      jump\t// in\n    tag_189:\n        /* \"SmartContractsInterview/MerkleDistribution.sol\":3154:3171  IERC20 tokenERC20 */\n      0x00\n        /* \"SmartContractsInterview/MerkleDistribution.sol\":3181:3186  token */\n      0x03\n      0x00\n      swap1\n      sload\n      swap1\n      0x0100\n      exp\n      swap1\n      div\n      0xffffffffffffffffffffffffffffffffffffffff\n      and\n        /* \"SmartContractsInterview/MerkleDistribution.sol\":3154:3187  IERC20 tokenERC20 = IERC20(token) */\n      swap1\n      pop\n        /* \"SmartContractsInterview/MerkleDistribution.sol\":3197:3212  uint256 balance */\n      0x00\n        /* \"SmartContractsInterview/MerkleDistribution.sol\":3215:3225  tokenERC20 */\n      dup2\n        /* \"SmartContractsInterview/MerkleDistribution.sol\":3215:3235  tokenERC20.balanceOf */\n      0xffffffffffffffffffffffffffffffffffffffff\n      and\n      0x70a08231\n        /* \"SmartContractsInterview/MerkleDistribution.sol\":3244:3248  this */\n      address\n        /* \"SmartContractsInterview/MerkleDistribution.sol\":3215:3250  tokenERC20.balanceOf(address(this)) */\n      mload(0x40)\n      dup3\n      0xffffffff\n      and\n      0xe0\n      shl\n      dup2\n      mstore\n      0x04\n      add\n      tag_191\n      swap2\n      swap1\n      tag_62\n      jump\t// in\n    tag_191:\n      0x20\n      mload(0x40)\n      dup1\n      dup4\n      sub\n      dup2\n      dup7\n      gas\n      staticcall\n      iszero\n      dup1\n      iszero\n      tag_193\n      jumpi\n      returndatasize\n      0x00\n      dup1\n      returndatacopy\n      revert(0x00, returndatasize)\n    tag_193:\n      pop\n      pop\n      pop\n      pop\n      mload(0x40)\n      returndatasize\n      not(0x1f)\n      0x1f\n      dup3\n      add\n      and\n      dup3\n      add\n      dup1\n      0x40\n      mstore\n      pop\n      dup2\n      add\n      swap1\n      tag_194\n      swap2\n      swap1\n      tag_138\n      jump\t// in\n    tag_194:\n        /* \"SmartContractsInterview/MerkleDistribution.sol\":3197:3250  uint256 balance = tokenERC20.balanceOf(address(this)) */\n      swap1\n      pop\n        /* \"SmartContractsInterview/MerkleDistribution.sol\":3260:3270  tokenERC20 */\n      dup2\n        /* \"SmartContractsInterview/MerkleDistribution.sol\":3260:3279  tokenERC20.transfer */\n      0xffffffffffffffffffffffffffffffffffffffff\n      and\n      0xa9059cbb\n        /* \"SmartContractsInterview/MerkleDistribution.sol\":3280:3288  treasury */\n      0x04\n      0x00\n      swap1\n      sload\n      swap1\n      0x0100\n      exp\n      swap1\n      div\n      0xffffffffffffffffffffffffffffffffffffffff\n      and\n        /* \"SmartContractsInterview/MerkleDistribution.sol\":3290:3297  balance */\n      dup4\n        /* \"SmartContractsInterview/MerkleDistribution.sol\":3260:3298  tokenERC20.transfer(treasury, balance) */\n      mload(0x40)\n      dup4\n      0xffffffff\n      and\n      0xe0\n      shl\n      dup2\n      mstore\n      0x04\n      add\n      tag_195\n      swap3\n      swap2\n      swap1\n      tag_144\n      jump\t// in\n    tag_195:\n      0x20\n      mload(0x40)\n      dup1\n      dup4\n      sub\n      dup2\n      0x00\n      dup8\n      gas\n      call\n      iszero\n      dup1\n      iszero\n      tag_197\n      jumpi\n      returndatasize\n      0x00\n      dup1\n      returndatacopy\n      revert(0x00, returndatasize)\n    tag_197:\n      pop\n      pop\n      pop\n      pop\n      mload(0x40)\n      returndatasize\n      not(0x1f)\n      0x1f\n      dup3\n      add\n      and\n      dup3\n      add\n      dup1\n      0x40\n      mstore\n      pop\n      dup2\n      add\n      swap1\n      tag_198\n      swap2\n      swap1\n      tag_148\n      jump\t// in\n    tag_198:\n      pop\n        /* \"SmartContractsInterview/MerkleDistribution.sol\":3144:3305  {... */\n      pop\n      pop\n        /* \"SmartContractsInterview/MerkleDistribution.sol\":3089:3305  function unClaimedTokenToTreasury() external onlyOwner {... */\n      jump\t// out\n        /* \"@openzeppelin/contracts/access/Ownable.sol\":2543:2758  function transferOwnership(address newOwner) public virtual onlyOwner {... */\n    tag_95:\n        /* \"@openzeppelin/contracts/access/Ownable.sol\":1531:1544  _checkOwner() */\n      tag_200\n        /* \"@openzeppelin/contracts/access/Ownable.sol\":1531:1542  _checkOwner */\n      tag_101\n        /* \"@openzeppelin/contracts/access/Ownable.sol\":1531:1544  _checkOwner() */\n      jump\t// in\n    tag_200:\n        /* \"@openzeppelin/contracts/access/Ownable.sol\":2647:2648  0 */\n      0x00\n        /* \"@openzeppelin/contracts/access/Ownable.sol\":2627:2649  newOwner == address(0) */\n      0xffffffffffffffffffffffffffffffffffffffff\n      and\n        /* \"@openzeppelin/contracts/access/Ownable.sol\":2627:2635  newOwner */\n      dup2\n        /* \"@openzeppelin/contracts/access/Ownable.sol\":2627:2649  newOwner == address(0) */\n      0xffffffffffffffffffffffffffffffffffffffff\n      and\n      sub\n        /* \"@openzeppelin/contracts/access/Ownable.sol\":2623:2714  if (newOwner == address(0)) {... */\n      tag_202\n      jumpi\n        /* \"@openzeppelin/contracts/access/Ownable.sol\":2700:2701  0 */\n      0x00\n        /* \"@openzeppelin/contracts/access/Ownable.sol\":2672:2703  OwnableInvalidOwner(address(0)) */\n      mload(0x40)\n      0x1e4fbdf700000000000000000000000000000000000000000000000000000000\n      dup2\n      mstore\n      0x04\n      add\n      tag_203\n      swap2\n      swap1\n      tag_62\n      jump\t// in\n    tag_203:\n      mload(0x40)\n      dup1\n      swap2\n      sub\n      swap1\n      revert\n        /* \"@openzeppelin/contracts/access/Ownable.sol\":2623:2714  if (newOwner == address(0)) {... */\n    tag_202:\n        /* \"@openzeppelin/contracts/access/Ownable.sol\":2723:2751  _transferOwnership(newOwner) */\n      tag_204\n        /* \"@openzeppelin/contracts/access/Ownable.sol\":2742:2750  newOwner */\n      dup2\n        /* \"@openzeppelin/contracts/access/Ownable.sol\":2723:2741  _transferOwnership */\n      tag_168\n        /* \"@openzeppelin/contracts/access/Ownable.sol\":2723:2751  _transferOwnership(newOwner) */\n      jump\t// in\n    tag_204:\n        /* \"@openzeppelin/contracts/access/Ownable.sol\":2543:2758  function transferOwnership(address newOwner) public virtual onlyOwner {... */\n      pop\n      jump\t// out\n        /* \"SmartContractsInterview/MerkleDistribution.sol\":459:479  address public token */\n    tag_97:\n      0x03\n      0x00\n      swap1\n      sload\n      swap1\n      0x0100\n      exp\n      swap1\n      div\n      0xffffffffffffffffffffffffffffffffffffffff\n      and\n      dup2\n      jump\t// out\n        /* \"@openzeppelin/contracts/access/Ownable.sol\":1796:1958  function _checkOwner() internal view virtual {... */\n    tag_101:\n        /* \"@openzeppelin/contracts/access/Ownable.sol\":1866:1878  _msgSender() */\n      tag_206\n        /* \"@openzeppelin/contracts/access/Ownable.sol\":1866:1876  _msgSender */\n      tag_207\n        /* \"@openzeppelin/contracts/access/Ownable.sol\":1866:1878  _msgSender() */\n      jump\t// in\n    tag_206:\n        /* \"@openzeppelin/contracts/access/Ownable.sol\":1855:1878  owner() != _msgSender() */\n      0xffffffffffffffffffffffffffffffffffffffff\n      and\n        /* \"@openzeppelin/contracts/access/Ownable.sol\":1855:1862  owner() */\n      tag_208\n        /* \"@openzeppelin/contracts/access/Ownable.sol\":1855:1860  owner */\n      tag_75\n        /* \"@openzeppelin/contracts/access/Ownable.sol\":1855:1862  owner() */\n      jump\t// in\n    tag_208:\n        /* \"@openzeppelin/contracts/access/Ownable.sol\":1855:1878  owner() != _msgSender() */\n      0xffffffffffffffffffffffffffffffffffffffff\n      and\n      eq\n        /* \"@openzeppelin/contracts/access/Ownable.sol\":1851:1952  if (owner() != _msgSender()) {... */\n      tag_209\n      jumpi\n        /* \"@openzeppelin/contracts/access/Ownable.sol\":1928:1940  _msgSender() */\n      tag_210\n        /* \"@openzeppelin/contracts/access/Ownable.sol\":1928:1938  _msgSender */\n      tag_207\n        /* \"@openzeppelin/contracts/access/Ownable.sol\":1928:1940  _msgSender() */\n      jump\t// in\n    tag_210:\n        /* \"@openzeppelin/contracts/access/Ownable.sol\":1901:1941  OwnableUnauthorizedAccount(_msgSender()) */\n      mload(0x40)\n      0x118cdaa700000000000000000000000000000000000000000000000000000000\n      dup2\n      mstore\n      0x04\n      add\n      tag_211\n      swap2\n      swap1\n      tag_62\n      jump\t// in\n    tag_211:\n      mload(0x40)\n      dup1\n      swap2\n      sub\n      swap1\n      revert\n        /* \"@openzeppelin/contracts/access/Ownable.sol\":1851:1952  if (owner() != _msgSender()) {... */\n    tag_209:\n        /* \"@openzeppelin/contracts/access/Ownable.sol\":1796:1958  function _checkOwner() internal view virtual {... */\n      jump\t// out\n        /* \"@openzeppelin/contracts/security/Pausable.sol\":1767:1873  function _requireNotPaused() internal view virtual {... */\n    tag_108:\n        /* \"@openzeppelin/contracts/security/Pausable.sol\":1837:1845  paused() */\n      tag_213\n        /* \"@openzeppelin/contracts/security/Pausable.sol\":1837:1843  paused */\n      tag_50\n        /* \"@openzeppelin/contracts/security/Pausable.sol\":1837:1845  paused() */\n      jump\t// in\n    tag_213:\n        /* \"@openzeppelin/contracts/security/Pausable.sol\":1836:1845  !paused() */\n      iszero\n        /* \"@openzeppelin/contracts/security/Pausable.sol\":1828:1866  require(!paused(), \"Pausable: paused\") */\n      tag_214\n      jumpi\n      mload(0x40)\n      0x08c379a000000000000000000000000000000000000000000000000000000000\n      dup2\n      mstore\n      0x04\n      add\n      tag_215\n      swap1\n      tag_216\n      jump\t// in\n    tag_215:\n      mload(0x40)\n      dup1\n      swap2\n      sub\n      swap1\n      revert\n    tag_214:\n        /* \"@openzeppelin/contracts/security/Pausable.sol\":1767:1873  function _requireNotPaused() internal view virtual {... */\n      jump\t// out\n        /* \"@openzeppelin/contracts/security/ReentrancyGuard.sol\":2336:2623  function _nonReentrantBefore() private {... */\n    tag_111:\n        /* \"@openzeppelin/contracts/security/ReentrancyGuard.sol\":1759:1760  2 */\n      0x02\n        /* \"@openzeppelin/contracts/security/ReentrancyGuard.sol\":2468:2475  _status */\n      sload(0x01)\n        /* \"@openzeppelin/contracts/security/ReentrancyGuard.sol\":2468:2487  _status != _ENTERED */\n      sub\n        /* \"@openzeppelin/contracts/security/ReentrancyGuard.sol\":2460:2523  require(_status != _ENTERED, \"ReentrancyGuard: reentrant call\") */\n      tag_218\n      jumpi\n      mload(0x40)\n      0x08c379a000000000000000000000000000000000000000000000000000000000\n      dup2\n      mstore\n      0x04\n      add\n      tag_219\n      swap1\n      tag_220\n      jump\t// in\n    tag_219:\n      mload(0x40)\n      dup1\n      swap2\n      sub\n      swap1\n      revert\n    tag_218:\n        /* \"@openzeppelin/contracts/security/ReentrancyGuard.sol\":1759:1760  2 */\n      0x02\n        /* \"@openzeppelin/contracts/security/ReentrancyGuard.sol\":2598:2605  _status */\n      0x01\n        /* \"@openzeppelin/contracts/security/ReentrancyGuard.sol\":2598:2616  _status = _ENTERED */\n      dup2\n      swap1\n      sstore\n      pop\n        /* \"@openzeppelin/contracts/security/ReentrancyGuard.sol\":2336:2623  function _nonReentrantBefore() private {... */\n      jump\t// out\n        /* \"@openzeppelin/contracts/utils/cryptography/MerkleProof.sol\":1265:1419  function verify(bytes32[] memory proof, bytes32 root, bytes32 leaf) internal pure returns (bool) {... */\n    tag_127:\n        /* \"@openzeppelin/contracts/utils/cryptography/MerkleProof.sol\":1356:1360  bool */\n      0x00\n        /* \"@openzeppelin/contracts/utils/cryptography/MerkleProof.sol\":1408:1412  root */\n      dup3\n        /* \"@openzeppelin/contracts/utils/cryptography/MerkleProof.sol\":1379:1404  processProof(proof, leaf) */\n      tag_222\n        /* \"@openzeppelin/contracts/utils/cryptography/MerkleProof.sol\":1392:1397  proof */\n      dup6\n        /* \"@openzeppelin/contracts/utils/cryptography/MerkleProof.sol\":1399:1403  leaf */\n      dup5\n        /* \"@openzeppelin/contracts/utils/cryptography/MerkleProof.sol\":1379:1391  processProof */\n      tag_223\n        /* \"@openzeppelin/contracts/utils/cryptography/MerkleProof.sol\":1379:1404  processProof(proof, leaf) */\n      jump\t// in\n    tag_222:\n        /* \"@openzeppelin/contracts/utils/cryptography/MerkleProof.sol\":1379:1412  processProof(proof, leaf) == root */\n      eq\n        /* \"@openzeppelin/contracts/utils/cryptography/MerkleProof.sol\":1372:1412  return processProof(proof, leaf) == root */\n      swap1\n      pop\n        /* \"@openzeppelin/contracts/utils/cryptography/MerkleProof.sol\":1265:1419  function verify(bytes32[] memory proof, bytes32 root, bytes32 leaf) internal pure returns (bool) {... */\n      swap4\n      swap3\n      pop\n      pop\n      pop\n      jump\t// out\n        /* \"@openzeppelin/contracts/security/ReentrancyGuard.sol\":2629:2838  function _nonReentrantAfter() private {... */\n    tag_151:\n        /* \"@openzeppelin/contracts/security/ReentrancyGuard.sol\":1716:1717  1 */\n      0x01\n        /* \"@openzeppelin/contracts/security/ReentrancyGuard.sol\":2809:2816  _status */\n      dup1\n        /* \"@openzeppelin/contracts/security/ReentrancyGuard.sol\":2809:2831  _status = _NOT_ENTERED */\n      dup2\n      swap1\n      sstore\n      pop\n        /* \"@openzeppelin/contracts/security/ReentrancyGuard.sol\":2629:2838  function _nonReentrantAfter() private {... */\n      jump\t// out\n        /* \"@openzeppelin/contracts/security/Pausable.sol\":2433:2550  function _unpause() internal virtual whenPaused {... */\n    tag_156:\n        /* \"@openzeppelin/contracts/security/Pausable.sol\":1486:1502  _requirePaused() */\n      tag_226\n        /* \"@openzeppelin/contracts/security/Pausable.sol\":1486:1500  _requirePaused */\n      tag_227\n        /* \"@openzeppelin/contracts/security/Pausable.sol\":1486:1502  _requirePaused() */\n      jump\t// in\n    tag_226:\n        /* \"@openzeppelin/contracts/security/Pausable.sol\":2501:2506  false */\n      0x00\n        /* \"@openzeppelin/contracts/security/Pausable.sol\":2491:2498  _paused */\n      dup1\n      0x00\n        /* \"@openzeppelin/contracts/security/Pausable.sol\":2491:2506  _paused = false */\n      0x0100\n      exp\n      dup2\n      sload\n      dup2\n      0xff\n      mul\n      not\n      and\n      swap1\n      dup4\n      iszero\n      iszero\n      mul\n      or\n      swap1\n      sstore\n      pop\n        /* \"@openzeppelin/contracts/security/Pausable.sol\":2521:2543  Unpaused(_msgSender()) */\n      0x5db9ee0a495bf2e6ff9c91a7834c1ba4fdd244a5e8aa4e537bd38aeae4b073aa\n        /* \"@openzeppelin/contracts/security/Pausable.sol\":2530:2542  _msgSender() */\n      tag_229\n        /* \"@openzeppelin/contracts/security/Pausable.sol\":2530:2540  _msgSender */\n      tag_207\n        /* \"@openzeppelin/contracts/security/Pausable.sol\":2530:2542  _msgSender() */\n      jump\t// in\n    tag_229:\n        /* \"@openzeppelin/contracts/security/Pausable.sol\":2521:2543  Unpaused(_msgSender()) */\n      mload(0x40)\n      tag_230\n      swap2\n      swap1\n      tag_62\n      jump\t// in\n    tag_230:\n      mload(0x40)\n      dup1\n      swap2\n      sub\n      swap1\n      log1\n        /* \"@openzeppelin/contracts/security/Pausable.sol\":2433:2550  function _unpause() internal virtual whenPaused {... */\n      jump\t// out\n        /* \"@openzeppelin/contracts/access/Ownable.sol\":2912:3099  function _transferOwnership(address newOwner) internal virtual {... */\n    tag_168:\n        /* \"@openzeppelin/contracts/access/Ownable.sol\":2985:3001  address oldOwner */\n      0x00\n        /* \"@openzeppelin/contracts/access/Ownable.sol\":3004:3010  _owner */\n      dup1\n      0x01\n      swap1\n      sload\n      swap1\n      0x0100\n      exp\n      swap1\n      div\n      0xffffffffffffffffffffffffffffffffffffffff\n      and\n        /* \"@openzeppelin/contracts/access/Ownable.sol\":2985:3010  address oldOwner = _owner */\n      swap1\n      pop\n        /* \"@openzeppelin/contracts/access/Ownable.sol\":3029:3037  newOwner */\n      dup2\n        /* \"@openzeppelin/contracts/access/Ownable.sol\":3020:3026  _owner */\n      0x00\n      0x01\n        /* \"@openzeppelin/contracts/access/Ownable.sol\":3020:3037  _owner = newOwner */\n      0x0100\n      exp\n      dup2\n      sload\n      dup2\n      0xffffffffffffffffffffffffffffffffffffffff\n      mul\n      not\n      and\n      swap1\n      dup4\n      0xffffffffffffffffffffffffffffffffffffffff\n      and\n      mul\n      or\n      swap1\n      sstore\n      pop\n        /* \"@openzeppelin/contracts/access/Ownable.sol\":3083:3091  newOwner */\n      dup2\n        /* \"@openzeppelin/contracts/access/Ownable.sol\":3052:3092  OwnershipTransferred(oldOwner, newOwner) */\n      0xffffffffffffffffffffffffffffffffffffffff\n      and\n        /* \"@openzeppelin/contracts/access/Ownable.sol\":3073:3081  oldOwner */\n      dup2\n        /* \"@openzeppelin/contracts/access/Ownable.sol\":3052:3092  OwnershipTransferred(oldOwner, newOwner) */\n      0xffffffffffffffffffffffffffffffffffffffff\n      and\n      0x8be0079c531659141344cd1fd0a4f28419497f9722a3daafe3b4186f6b6457e0\n      mload(0x40)\n      mload(0x40)\n      dup1\n      swap2\n      sub\n      swap1\n      log3\n        /* \"@openzeppelin/contracts/access/Ownable.sol\":2975:3099  {... */\n      pop\n        /* \"@openzeppelin/contracts/access/Ownable.sol\":2912:3099  function _transferOwnership(address newOwner) internal virtual {... */\n      pop\n      jump\t// out\n        /* \"@openzeppelin/contracts/security/Pausable.sol\":2186:2301  function _pause() internal virtual whenNotPaused {... */\n    tag_176:\n        /* \"@openzeppelin/contracts/security/Pausable.sol\":1239:1258  _requireNotPaused() */\n      tag_233\n        /* \"@openzeppelin/contracts/security/Pausable.sol\":1239:1256  _requireNotPaused */\n      tag_108\n        /* \"@openzeppelin/contracts/security/Pausable.sol\":1239:1258  _requireNotPaused() */\n      jump\t// in\n    tag_233:\n        /* \"@openzeppelin/contracts/security/Pausable.sol\":2255:2259  true */\n      0x01\n        /* \"@openzeppelin/contracts/security/Pausable.sol\":2245:2252  _paused */\n      0x00\n      dup1\n        /* \"@openzeppelin/contracts/security/Pausable.sol\":2245:2259  _paused = true */\n      0x0100\n      exp\n      dup2\n      sload\n      dup2\n      0xff\n      mul\n      not\n      and\n      swap1\n      dup4\n      iszero\n      iszero\n      mul\n      or\n      swap1\n      sstore\n      pop\n        /* \"@openzeppelin/contracts/security/Pausable.sol\":2274:2294  Paused(_msgSender()) */\n      0x62e78cea01bee320cd4e420270b5ea74000d11b0c9f74754ebdbfc544b05a258\n        /* \"@openzeppelin/contracts/security/Pausable.sol\":2281:2293  _msgSender() */\n      tag_235\n        /* \"@openzeppelin/contracts/security/Pausable.sol\":2281:2291  _msgSender */\n      tag_207\n        /* \"@openzeppelin/contracts/security/Pausable.sol\":2281:2293  _msgSender() */\n      jump\t// in\n    tag_235:\n        /* \"@openzeppelin/contracts/security/Pausable.sol\":2274:2294  Paused(_msgSender()) */\n      mload(0x40)\n      tag_236\n      swap2\n      swap1\n      tag_62\n      jump\t// in\n    tag_236:\n      mload(0x40)\n      dup1\n      swap2\n      sub\n      swap1\n      log1\n        /* \"@openzeppelin/contracts/security/Pausable.sol\":2186:2301  function _pause() internal virtual whenNotPaused {... */\n      jump\t// out\n        /* \"@openzeppelin/contracts/utils/Context.sol\":656:752  function _msgSender() internal view virtual returns (address) {... */\n    tag_207:\n        /* \"@openzeppelin/contracts/utils/Context.sol\":709:716  address */\n      0x00\n        /* \"@openzeppelin/contracts/utils/Context.sol\":735:745  msg.sender */\n      caller\n        /* \"@openzeppelin/contracts/utils/Context.sol\":728:745  return msg.sender */\n      swap1\n      pop\n        /* \"@openzeppelin/contracts/utils/Context.sol\":656:752  function _msgSender() internal view virtual returns (address) {... */\n      swap1\n      jump\t// out\n        /* \"@openzeppelin/contracts/utils/cryptography/MerkleProof.sol\":1967:2257  function processProof(bytes32[] memory proof, bytes32 leaf) internal pure returns (bytes32) {... */\n    tag_223:\n        /* \"@openzeppelin/contracts/utils/cryptography/MerkleProof.sol\":2050:2057  bytes32 */\n      0x00\n        /* \"@openzeppelin/contracts/utils/cryptography/MerkleProof.sol\":2069:2089  bytes32 computedHash */\n      dup1\n        /* \"@openzeppelin/contracts/utils/cryptography/MerkleProof.sol\":2092:2096  leaf */\n      dup3\n        /* \"@openzeppelin/contracts/utils/cryptography/MerkleProof.sol\":2069:2096  bytes32 computedHash = leaf */\n      swap1\n      pop\n        /* \"@openzeppelin/contracts/utils/cryptography/MerkleProof.sol\":2111:2120  uint256 i */\n      0x00\n        /* \"@openzeppelin/contracts/utils/cryptography/MerkleProof.sol\":2106:2222  for (uint256 i = 0; i < proof.length; i++) {... */\n    tag_239:\n        /* \"@openzeppelin/contracts/utils/cryptography/MerkleProof.sol\":2130:2135  proof */\n      dup5\n        /* \"@openzeppelin/contracts/utils/cryptography/MerkleProof.sol\":2130:2142  proof.length */\n      mload\n        /* \"@openzeppelin/contracts/utils/cryptography/MerkleProof.sol\":2126:2127  i */\n      dup2\n        /* \"@openzeppelin/contracts/utils/cryptography/MerkleProof.sol\":2126:2142  i < proof.length */\n      lt\n        /* \"@openzeppelin/contracts/utils/cryptography/MerkleProof.sol\":2106:2222  for (uint256 i = 0; i < proof.length; i++) {... */\n      iszero\n      tag_240\n      jumpi\n        /* \"@openzeppelin/contracts/utils/cryptography/MerkleProof.sol\":2178:2211  _hashPair(computedHash, proof[i]) */\n      tag_242\n        /* \"@openzeppelin/contracts/utils/cryptography/MerkleProof.sol\":2188:2200  computedHash */\n      dup3\n        /* \"@openzeppelin/contracts/utils/cryptography/MerkleProof.sol\":2202:2207  proof */\n      dup7\n        /* \"@openzeppelin/contracts/utils/cryptography/MerkleProof.sol\":2208:2209  i */\n      dup4\n        /* \"@openzeppelin/contracts/utils/cryptography/MerkleProof.sol\":2202:2210  proof[i] */\n      dup2\n      mload\n      dup2\n      lt\n      tag_243\n      jumpi\n      tag_244\n      tag_245\n      jump\t// in\n    tag_244:\n    tag_243:\n      0x20\n      mul\n      0x20\n      add\n      add\n      mload\n        /* \"@openzeppelin/contracts/utils/cryptography/MerkleProof.sol\":2178:2187  _hashPair */\n      tag_246\n        /* \"@openzeppelin/contracts/utils/cryptography/MerkleProof.sol\":2178:2211  _hashPair(computedHash, proof[i]) */\n      jump\t// in\n    tag_242:\n        /* \"@openzeppelin/contracts/utils/cryptography/MerkleProof.sol\":2163:2211  computedHash = _hashPair(computedHash, proof[i]) */\n      swap2\n      pop\n        /* \"@openzeppelin/contracts/utils/cryptography/MerkleProof.sol\":2144:2147  i++ */\n      dup1\n      dup1\n      0x01\n      add\n      swap2\n      pop\n      pop\n        /* \"@openzeppelin/contracts/utils/cryptography/MerkleProof.sol\":2106:2222  for (uint256 i = 0; i < proof.length; i++) {... */\n      jump(tag_239)\n    tag_240:\n      pop\n        /* \"@openzeppelin/contracts/utils/cryptography/MerkleProof.sol\":2238:2250  computedHash */\n      dup1\n        /* \"@openzeppelin/contracts/utils/cryptography/MerkleProof.sol\":2231:2250  return computedHash */\n      swap2\n      pop\n      pop\n        /* \"@openzeppelin/contracts/utils/cryptography/MerkleProof.sol\":1967:2257  function processProof(bytes32[] memory proof, bytes32 leaf) internal pure returns (bytes32) {... */\n      swap3\n      swap2\n      pop\n      pop\n      jump\t// out\n        /* \"@openzeppelin/contracts/security/Pausable.sol\":1945:2051  function _requirePaused() internal view virtual {... */\n    tag_227:\n        /* \"@openzeppelin/contracts/security/Pausable.sol\":2011:2019  paused() */\n      tag_248\n        /* \"@openzeppelin/contracts/security/Pausable.sol\":2011:2017  paused */\n      tag_50\n        /* \"@openzeppelin/contracts/security/Pausable.sol\":2011:2019  paused() */\n      jump\t// in\n    tag_248:\n        /* \"@openzeppelin/contracts/security/Pausable.sol\":2003:2044  require(paused(), \"Pausable: not paused\") */\n      tag_249\n      jumpi\n      mload(0x40)\n      0x08c379a000000000000000000000000000000000000000000000000000000000\n      dup2\n      mstore\n      0x04\n      add\n      tag_250\n      swap1\n      tag_251\n      jump\t// in\n    tag_250:\n      mload(0x40)\n      dup1\n      swap2\n      sub\n      swap1\n      revert\n    tag_249:\n        /* \"@openzeppelin/contracts/security/Pausable.sol\":1945:2051  function _requirePaused() internal view virtual {... */\n      jump\t// out\n        /* \"@openzeppelin/contracts/utils/cryptography/MerkleProof.sol\":9229:9376  function _hashPair(bytes32 a, bytes32 b) private pure returns (bytes32) {... */\n    tag_246:\n        /* \"@openzeppelin/contracts/utils/cryptography/MerkleProof.sol\":9292:9299  bytes32 */\n      0x00\n        /* \"@openzeppelin/contracts/utils/cryptography/MerkleProof.sol\":9322:9323  b */\n      dup2\n        /* \"@openzeppelin/contracts/utils/cryptography/MerkleProof.sol\":9318:9319  a */\n      dup4\n        /* \"@openzeppelin/contracts/utils/cryptography/MerkleProof.sol\":9318:9323  a < b */\n      lt\n        /* \"@openzeppelin/contracts/utils/cryptography/MerkleProof.sol\":9318:9369  a < b ? _efficientHash(a, b) : _efficientHash(b, a) */\n      tag_253\n      jumpi\n        /* \"@openzeppelin/contracts/utils/cryptography/MerkleProof.sol\":9349:9369  _efficientHash(b, a) */\n      tag_254\n        /* \"@openzeppelin/contracts/utils/cryptography/MerkleProof.sol\":9364:9365  b */\n      dup3\n        /* \"@openzeppelin/contracts/utils/cryptography/MerkleProof.sol\":9367:9368  a */\n      dup5\n        /* \"@openzeppelin/contracts/utils/cryptography/MerkleProof.sol\":9349:9363  _efficientHash */\n      tag_255\n        /* \"@openzeppelin/contracts/utils/cryptography/MerkleProof.sol\":9349:9369  _efficientHash(b, a) */\n      jump\t// in\n    tag_254:\n        /* \"@openzeppelin/contracts/utils/cryptography/MerkleProof.sol\":9318:9369  a < b ? _efficientHash(a, b) : _efficientHash(b, a) */\n      jump(tag_256)\n    tag_253:\n        /* \"@openzeppelin/contracts/utils/cryptography/MerkleProof.sol\":9326:9346  _efficientHash(a, b) */\n      tag_257\n        /* \"@openzeppelin/contracts/utils/cryptography/MerkleProof.sol\":9341:9342  a */\n      dup4\n        /* \"@openzeppelin/contracts/utils/cryptography/MerkleProof.sol\":9344:9345  b */\n      dup4\n        /* \"@openzeppelin/contracts/utils/cryptography/MerkleProof.sol\":9326:9340  _efficientHash */\n      tag_255\n        /* \"@openzeppelin/contracts/utils/cryptography/MerkleProof.sol\":9326:9346  _efficientHash(a, b) */\n      jump\t// in\n    tag_257:\n        /* \"@openzeppelin/contracts/utils/cryptography/MerkleProof.sol\":9318:9369  a < b ? _efficientHash(a, b) : _efficientHash(b, a) */\n    tag_256:\n        /* \"@openzeppelin/contracts/utils/cryptography/MerkleProof.sol\":9311:9369  return a < b ? _efficientHash(a, b) : _efficientHash(b, a) */\n      swap1\n      pop\n        /* \"@openzeppelin/contracts/utils/cryptography/MerkleProof.sol\":9229:9376  function _hashPair(bytes32 a, bytes32 b) private pure returns (bytes32) {... */\n      swap3\n      swap2\n      pop\n      pop\n      jump\t// out\n        /* \"@openzeppelin/contracts/utils/cryptography/MerkleProof.sol\":9496:9757  function _efficientHash(bytes32 a, bytes32 b) private pure returns (bytes32 value) {... */\n    tag_255:\n        /* \"@openzeppelin/contracts/utils/cryptography/MerkleProof.sol\":9564:9577  bytes32 value */\n      0x00\n        /* \"@openzeppelin/contracts/utils/cryptography/MerkleProof.sol\":9668:9669  a */\n      dup3\n        /* \"@openzeppelin/contracts/utils/cryptography/MerkleProof.sol\":9662:9666  0x00 */\n      0x00\n        /* \"@openzeppelin/contracts/utils/cryptography/MerkleProof.sol\":9655:9670  mstore(0x00, a) */\n      mstore\n        /* \"@openzeppelin/contracts/utils/cryptography/MerkleProof.sol\":9696:9697  b */\n      dup2\n        /* \"@openzeppelin/contracts/utils/cryptography/MerkleProof.sol\":9690:9694  0x20 */\n      0x20\n        /* \"@openzeppelin/contracts/utils/cryptography/MerkleProof.sol\":9683:9698  mstore(0x20, b) */\n      mstore\n        /* \"@openzeppelin/contracts/utils/cryptography/MerkleProof.sol\":9736:9740  0x40 */\n      0x40\n        /* \"@openzeppelin/contracts/utils/cryptography/MerkleProof.sol\":9730:9734  0x00 */\n      0x00\n        /* \"@openzeppelin/contracts/utils/cryptography/MerkleProof.sol\":9720:9741  keccak256(0x00, 0x40) */\n      keccak256\n        /* \"@openzeppelin/contracts/utils/cryptography/MerkleProof.sol\":9711:9741  value := keccak256(0x00, 0x40) */\n      swap1\n      pop\n        /* \"@openzeppelin/contracts/utils/cryptography/MerkleProof.sol\":9496:9757  function _efficientHash(bytes32 a, bytes32 b) private pure returns (bytes32 value) {... */\n      swap3\n      swap2\n      pop\n      pop\n      jump\t// out\n        /* \"#utility.yul\":88:205   */\n    tag_260:\n        /* \"#utility.yul\":197:198   */\n      0x00\n        /* \"#utility.yul\":194:195   */\n      dup1\n        /* \"#utility.yul\":187:199   */\n      revert\n        /* \"#utility.yul\":211:328   */\n    tag_261:\n        /* \"#utility.yul\":320:321   */\n      0x00\n        /* \"#utility.yul\":317:318   */\n      dup1\n        /* \"#utility.yul\":310:322   */\n      revert\n        /* \"#utility.yul\":334:460   */\n    tag_262:\n        /* \"#utility.yul\":371:378   */\n      0x00\n        /* \"#utility.yul\":411:453   */\n      0xffffffffffffffffffffffffffffffffffffffff\n        /* \"#utility.yul\":404:409   */\n      dup3\n        /* \"#utility.yul\":400:454   */\n      and\n        /* \"#utility.yul\":389:454   */\n      swap1\n      pop\n        /* \"#utility.yul\":334:460   */\n      swap2\n      swap1\n      pop\n      jump\t// out\n        /* \"#utility.yul\":466:562   */\n    tag_263:\n        /* \"#utility.yul\":503:510   */\n      0x00\n        /* \"#utility.yul\":532:556   */\n      tag_316\n        /* \"#utility.yul\":550:555   */\n      dup3\n        /* \"#utility.yul\":532:556   */\n      tag_262\n      jump\t// in\n    tag_316:\n        /* \"#utility.yul\":521:556   */\n      swap1\n      pop\n        /* \"#utility.yul\":466:562   */\n      swap2\n      swap1\n      pop\n      jump\t// out\n        /* \"#utility.yul\":568:690   */\n    tag_264:\n        /* \"#utility.yul\":641:665   */\n      tag_318\n        /* \"#utility.yul\":659:664   */\n      dup2\n        /* \"#utility.yul\":641:665   */\n      tag_263\n      jump\t// in\n    tag_318:\n        /* \"#utility.yul\":634:639   */\n      dup2\n        /* \"#utility.yul\":631:666   */\n      eq\n        /* \"#utility.yul\":621:684   */\n      tag_319\n      jumpi\n        /* \"#utility.yul\":680:681   */\n      0x00\n        /* \"#utility.yul\":677:678   */\n      dup1\n        /* \"#utility.yul\":670:682   */\n      revert\n        /* \"#utility.yul\":621:684   */\n    tag_319:\n        /* \"#utility.yul\":568:690   */\n      pop\n      jump\t// out\n        /* \"#utility.yul\":696:835   */\n    tag_265:\n        /* \"#utility.yul\":742:747   */\n      0x00\n        /* \"#utility.yul\":780:786   */\n      dup2\n        /* \"#utility.yul\":767:787   */\n      calldataload\n        /* \"#utility.yul\":758:787   */\n      swap1\n      pop\n        /* \"#utility.yul\":796:829   */\n      tag_321\n        /* \"#utility.yul\":823:828   */\n      dup2\n        /* \"#utility.yul\":796:829   */\n      tag_264\n      jump\t// in\n    tag_321:\n        /* \"#utility.yul\":696:835   */\n      swap3\n      swap2\n      pop\n      pop\n      jump\t// out\n        /* \"#utility.yul\":841:1170   */\n    tag_30:\n        /* \"#utility.yul\":900:906   */\n      0x00\n        /* \"#utility.yul\":949:951   */\n      0x20\n        /* \"#utility.yul\":937:946   */\n      dup3\n        /* \"#utility.yul\":928:935   */\n      dup5\n        /* \"#utility.yul\":924:947   */\n      sub\n        /* \"#utility.yul\":920:952   */\n      slt\n        /* \"#utility.yul\":917:1036   */\n      iszero\n      tag_323\n      jumpi\n        /* \"#utility.yul\":955:1034   */\n      tag_324\n      tag_260\n      jump\t// in\n    tag_324:\n        /* \"#utility.yul\":917:1036   */\n    tag_323:\n        /* \"#utility.yul\":1075:1076   */\n      0x00\n        /* \"#utility.yul\":1100:1153   */\n      tag_325\n        /* \"#utility.yul\":1145:1152   */\n      dup5\n        /* \"#utility.yul\":1136:1142   */\n      dup3\n        /* \"#utility.yul\":1125:1134   */\n      dup6\n        /* \"#utility.yul\":1121:1143   */\n      add\n        /* \"#utility.yul\":1100:1153   */\n      tag_265\n      jump\t// in\n    tag_325:\n        /* \"#utility.yul\":1090:1153   */\n      swap2\n      pop\n        /* \"#utility.yul\":1046:1163   */\n      pop\n        /* \"#utility.yul\":841:1170   */\n      swap3\n      swap2\n      pop\n      pop\n      jump\t// out\n        /* \"#utility.yul\":1176:1253   */\n    tag_266:\n        /* \"#utility.yul\":1213:1220   */\n      0x00\n        /* \"#utility.yul\":1242:1247   */\n      dup2\n        /* \"#utility.yul\":1231:1247   */\n      swap1\n      pop\n        /* \"#utility.yul\":1176:1253   */\n      swap2\n      swap1\n      pop\n      jump\t// out\n        /* \"#utility.yul\":1259:1377   */\n    tag_267:\n        /* \"#utility.yul\":1346:1370   */\n      tag_328\n        /* \"#utility.yul\":1364:1369   */\n      dup2\n        /* \"#utility.yul\":1346:1370   */\n      tag_266\n      jump\t// in\n    tag_328:\n        /* \"#utility.yul\":1341:1344   */\n      dup3\n        /* \"#utility.yul\":1334:1371   */\n      mstore\n        /* \"#utility.yul\":1259:1377   */\n      pop\n      pop\n      jump\t// out\n        /* \"#utility.yul\":1383:1605   */\n    tag_35:\n        /* \"#utility.yul\":1476:1480   */\n      0x00\n        /* \"#utility.yul\":1514:1516   */\n      0x20\n        /* \"#utility.yul\":1503:1512   */\n      dup3\n        /* \"#utility.yul\":1499:1517   */\n      add\n        /* \"#utility.yul\":1491:1517   */\n      swap1\n      pop\n        /* \"#utility.yul\":1527:1598   */\n      tag_330\n        /* \"#utility.yul\":1595:1596   */\n      0x00\n        /* \"#utility.yul\":1584:1593   */\n      dup4\n        /* \"#utility.yul\":1580:1597   */\n      add\n        /* \"#utility.yul\":1571:1577   */\n      dup5\n        /* \"#utility.yul\":1527:1598   */\n      tag_267\n      jump\t// in\n    tag_330:\n        /* \"#utility.yul\":1383:1605   */\n      swap3\n      swap2\n      pop\n      pop\n      jump\t// out\n        /* \"#utility.yul\":1611:1688   */\n    tag_268:\n        /* \"#utility.yul\":1648:1655   */\n      0x00\n        /* \"#utility.yul\":1677:1682   */\n      dup2\n        /* \"#utility.yul\":1666:1682   */\n      swap1\n      pop\n        /* \"#utility.yul\":1611:1688   */\n      swap2\n      swap1\n      pop\n      jump\t// out\n        /* \"#utility.yul\":1694:1816   */\n    tag_269:\n        /* \"#utility.yul\":1767:1791   */\n      tag_333\n        /* \"#utility.yul\":1785:1790   */\n      dup2\n        /* \"#utility.yul\":1767:1791   */\n      tag_268\n      jump\t// in\n    tag_333:\n        /* \"#utility.yul\":1760:1765   */\n      dup2\n        /* \"#utility.yul\":1757:1792   */\n      eq\n        /* \"#utility.yul\":1747:1810   */\n      tag_334\n      jumpi\n        /* \"#utility.yul\":1806:1807   */\n      0x00\n        /* \"#utility.yul\":1803:1804   */\n      dup1\n        /* \"#utility.yul\":1796:1808   */\n      revert\n        /* \"#utility.yul\":1747:1810   */\n    tag_334:\n        /* \"#utility.yul\":1694:1816   */\n      pop\n      jump\t// out\n        /* \"#utility.yul\":1822:1961   */\n    tag_270:\n        /* \"#utility.yul\":1868:1873   */\n      0x00\n        /* \"#utility.yul\":1906:1912   */\n      dup2\n        /* \"#utility.yul\":1893:1913   */\n      calldataload\n        /* \"#utility.yul\":1884:1913   */\n      swap1\n      pop\n        /* \"#utility.yul\":1922:1955   */\n      tag_336\n        /* \"#utility.yul\":1949:1954   */\n      dup2\n        /* \"#utility.yul\":1922:1955   */\n      tag_269\n      jump\t// in\n    tag_336:\n        /* \"#utility.yul\":1822:1961   */\n      swap3\n      swap2\n      pop\n      pop\n      jump\t// out\n        /* \"#utility.yul\":1967:2084   */\n    tag_271:\n        /* \"#utility.yul\":2076:2077   */\n      0x00\n        /* \"#utility.yul\":2073:2074   */\n      dup1\n        /* \"#utility.yul\":2066:2078   */\n      revert\n        /* \"#utility.yul\":2090:2207   */\n    tag_272:\n        /* \"#utility.yul\":2199:2200   */\n      0x00\n        /* \"#utility.yul\":2196:2197   */\n      dup1\n        /* \"#utility.yul\":2189:2201   */\n      revert\n        /* \"#utility.yul\":2213:2330   */\n    tag_273:\n        /* \"#utility.yul\":2322:2323   */\n      0x00\n        /* \"#utility.yul\":2319:2320   */\n      dup1\n        /* \"#utility.yul\":2312:2324   */\n      revert\n        /* \"#utility.yul\":2353:2921   */\n    tag_274:\n        /* \"#utility.yul\":2426:2434   */\n      0x00\n        /* \"#utility.yul\":2436:2442   */\n      dup1\n        /* \"#utility.yul\":2486:2489   */\n      dup4\n        /* \"#utility.yul\":2479:2483   */\n      0x1f\n        /* \"#utility.yul\":2471:2477   */\n      dup5\n        /* \"#utility.yul\":2467:2484   */\n      add\n        /* \"#utility.yul\":2463:2490   */\n      slt\n        /* \"#utility.yul\":2453:2575   */\n      tag_341\n      jumpi\n        /* \"#utility.yul\":2494:2573   */\n      tag_342\n      tag_271\n      jump\t// in\n    tag_342:\n        /* \"#utility.yul\":2453:2575   */\n    tag_341:\n        /* \"#utility.yul\":2607:2613   */\n      dup3\n        /* \"#utility.yul\":2594:2614   */\n      calldataload\n        /* \"#utility.yul\":2584:2614   */\n      swap1\n      pop\n        /* \"#utility.yul\":2637:2655   */\n      0xffffffffffffffff\n        /* \"#utility.yul\":2629:2635   */\n      dup2\n        /* \"#utility.yul\":2626:2656   */\n      gt\n        /* \"#utility.yul\":2623:2740   */\n      iszero\n      tag_343\n      jumpi\n        /* \"#utility.yul\":2659:2738   */\n      tag_344\n      tag_272\n      jump\t// in\n    tag_344:\n        /* \"#utility.yul\":2623:2740   */\n    tag_343:\n        /* \"#utility.yul\":2773:2777   */\n      0x20\n        /* \"#utility.yul\":2765:2771   */\n      dup4\n        /* \"#utility.yul\":2761:2778   */\n      add\n        /* \"#utility.yul\":2749:2778   */\n      swap2\n      pop\n        /* \"#utility.yul\":2827:2830   */\n      dup4\n        /* \"#utility.yul\":2819:2823   */\n      0x20\n        /* \"#utility.yul\":2811:2817   */\n      dup3\n        /* \"#utility.yul\":2807:2824   */\n      mul\n        /* \"#utility.yul\":2797:2805   */\n      dup4\n        /* \"#utility.yul\":2793:2825   */\n      add\n        /* \"#utility.yul\":2790:2831   */\n      gt\n        /* \"#utility.yul\":2787:2915   */\n      iszero\n      tag_345\n      jumpi\n        /* \"#utility.yul\":2834:2913   */\n      tag_346\n      tag_273\n      jump\t// in\n    tag_346:\n        /* \"#utility.yul\":2787:2915   */\n    tag_345:\n        /* \"#utility.yul\":2353:2921   */\n      swap3\n      pop\n      swap3\n      swap1\n      pop\n      jump\t// out\n        /* \"#utility.yul\":2927:3631   */\n    tag_38:\n        /* \"#utility.yul\":3022:3028   */\n      0x00\n        /* \"#utility.yul\":3030:3036   */\n      dup1\n        /* \"#utility.yul\":3038:3044   */\n      0x00\n        /* \"#utility.yul\":3087:3089   */\n      0x40\n        /* \"#utility.yul\":3075:3084   */\n      dup5\n        /* \"#utility.yul\":3066:3073   */\n      dup7\n        /* \"#utility.yul\":3062:3085   */\n      sub\n        /* \"#utility.yul\":3058:3090   */\n      slt\n        /* \"#utility.yul\":3055:3174   */\n      iszero\n      tag_348\n      jumpi\n        /* \"#utility.yul\":3093:3172   */\n      tag_349\n      tag_260\n      jump\t// in\n    tag_349:\n        /* \"#utility.yul\":3055:3174   */\n    tag_348:\n        /* \"#utility.yul\":3213:3214   */\n      0x00\n        /* \"#utility.yul\":3238:3291   */\n      tag_350\n        /* \"#utility.yul\":3283:3290   */\n      dup7\n        /* \"#utility.yul\":3274:3280   */\n      dup3\n        /* \"#utility.yul\":3263:3272   */\n      dup8\n        /* \"#utility.yul\":3259:3281   */\n      add\n        /* \"#utility.yul\":3238:3291   */\n      tag_270\n      jump\t// in\n    tag_350:\n        /* \"#utility.yul\":3228:3291   */\n      swap4\n      pop\n        /* \"#utility.yul\":3184:3301   */\n      pop\n        /* \"#utility.yul\":3368:3370   */\n      0x20\n        /* \"#utility.yul\":3357:3366   */\n      dup5\n        /* \"#utility.yul\":3353:3371   */\n      add\n        /* \"#utility.yul\":3340:3372   */\n      calldataload\n        /* \"#utility.yul\":3399:3417   */\n      0xffffffffffffffff\n        /* \"#utility.yul\":3391:3397   */\n      dup2\n        /* \"#utility.yul\":3388:3418   */\n      gt\n        /* \"#utility.yul\":3385:3502   */\n      iszero\n      tag_351\n      jumpi\n        /* \"#utility.yul\":3421:3500   */\n      tag_352\n      tag_261\n      jump\t// in\n    tag_352:\n        /* \"#utility.yul\":3385:3502   */\n    tag_351:\n        /* \"#utility.yul\":3534:3614   */\n      tag_353\n        /* \"#utility.yul\":3606:3613   */\n      dup7\n        /* \"#utility.yul\":3597:3603   */\n      dup3\n        /* \"#utility.yul\":3586:3595   */\n      dup8\n        /* \"#utility.yul\":3582:3604   */\n      add\n        /* \"#utility.yul\":3534:3614   */\n      tag_274\n      jump\t// in\n    tag_353:\n        /* \"#utility.yul\":3516:3614   */\n      swap3\n      pop\n      swap3\n      pop\n        /* \"#utility.yul\":3311:3624   */\n      pop\n        /* \"#utility.yul\":2927:3631   */\n      swap3\n      pop\n      swap3\n      pop\n      swap3\n      jump\t// out\n        /* \"#utility.yul\":3637:3755   */\n    tag_275:\n        /* \"#utility.yul\":3724:3748   */\n      tag_355\n        /* \"#utility.yul\":3742:3747   */\n      dup2\n        /* \"#utility.yul\":3724:3748   */\n      tag_268\n      jump\t// in\n    tag_355:\n        /* \"#utility.yul\":3719:3722   */\n      dup3\n        /* \"#utility.yul\":3712:3749   */\n      mstore\n        /* \"#utility.yul\":3637:3755   */\n      pop\n      pop\n      jump\t// out\n        /* \"#utility.yul\":3761:3983   */\n    tag_45:\n        /* \"#utility.yul\":3854:3858   */\n      0x00\n        /* \"#utility.yul\":3892:3894   */\n      0x20\n        /* \"#utility.yul\":3881:3890   */\n      dup3\n        /* \"#utility.yul\":3877:3895   */\n      add\n        /* \"#utility.yul\":3869:3895   */\n      swap1\n      pop\n        /* \"#utility.yul\":3905:3976   */\n      tag_357\n        /* \"#utility.yul\":3973:3974   */\n      0x00\n        /* \"#utility.yul\":3962:3971   */\n      dup4\n        /* \"#utility.yul\":3958:3975   */\n      add\n        /* \"#utility.yul\":3949:3955   */\n      dup5\n        /* \"#utility.yul\":3905:3976   */\n      tag_275\n      jump\t// in\n    tag_357:\n        /* \"#utility.yul\":3761:3983   */\n      swap3\n      swap2\n      pop\n      pop\n      jump\t// out\n        /* \"#utility.yul\":3989:4079   */\n    tag_276:\n        /* \"#utility.yul\":4023:4030   */\n      0x00\n        /* \"#utility.yul\":4066:4071   */\n      dup2\n        /* \"#utility.yul\":4059:4072   */\n      iszero\n        /* \"#utility.yul\":4052:4073   */\n      iszero\n        /* \"#utility.yul\":4041:4073   */\n      swap1\n      pop\n        /* \"#utility.yul\":3989:4079   */\n      swap2\n      swap1\n      pop\n      jump\t// out\n        /* \"#utility.yul\":4085:4194   */\n    tag_277:\n        /* \"#utility.yul\":4166:4187   */\n      tag_360\n        /* \"#utility.yul\":4181:4186   */\n      dup2\n        /* \"#utility.yul\":4166:4187   */\n      tag_276\n      jump\t// in\n    tag_360:\n        /* \"#utility.yul\":4161:4164   */\n      dup3\n        /* \"#utility.yul\":4154:4188   */\n      mstore\n        /* \"#utility.yul\":4085:4194   */\n      pop\n      pop\n      jump\t// out\n        /* \"#utility.yul\":4200:4410   */\n    tag_52:\n        /* \"#utility.yul\":4287:4291   */\n      0x00\n        /* \"#utility.yul\":4325:4327   */\n      0x20\n        /* \"#utility.yul\":4314:4323   */\n      dup3\n        /* \"#utility.yul\":4310:4328   */\n      add\n        /* \"#utility.yul\":4302:4328   */\n      swap1\n      pop\n        /* \"#utility.yul\":4338:4403   */\n      tag_362\n        /* \"#utility.yul\":4400:4401   */\n      0x00\n        /* \"#utility.yul\":4389:4398   */\n      dup4\n        /* \"#utility.yul\":4385:4402   */\n      add\n        /* \"#utility.yul\":4376:4382   */\n      dup5\n        /* \"#utility.yul\":4338:4403   */\n      tag_277\n      jump\t// in\n    tag_362:\n        /* \"#utility.yul\":4200:4410   */\n      swap3\n      swap2\n      pop\n      pop\n      jump\t// out\n        /* \"#utility.yul\":4416:4745   */\n    tag_57:\n        /* \"#utility.yul\":4475:4481   */\n      0x00\n        /* \"#utility.yul\":4524:4526   */\n      0x20\n        /* \"#utility.yul\":4512:4521   */\n      dup3\n        /* \"#utility.yul\":4503:4510   */\n      dup5\n        /* \"#utility.yul\":4499:4522   */\n      sub\n        /* \"#utility.yul\":4495:4527   */\n      slt\n        /* \"#utility.yul\":4492:4611   */\n      iszero\n      tag_364\n      jumpi\n        /* \"#utility.yul\":4530:4609   */\n      tag_365\n      tag_260\n      jump\t// in\n    tag_365:\n        /* \"#utility.yul\":4492:4611   */\n    tag_364:\n        /* \"#utility.yul\":4650:4651   */\n      0x00\n        /* \"#utility.yul\":4675:4728   */\n      tag_366\n        /* \"#utility.yul\":4720:4727   */\n      dup5\n        /* \"#utility.yul\":4711:4717   */\n      dup3\n        /* \"#utility.yul\":4700:4709   */\n      dup6\n        /* \"#utility.yul\":4696:4718   */\n      add\n        /* \"#utility.yul\":4675:4728   */\n      tag_270\n      jump\t// in\n    tag_366:\n        /* \"#utility.yul\":4665:4728   */\n      swap2\n      pop\n        /* \"#utility.yul\":4621:4738   */\n      pop\n        /* \"#utility.yul\":4416:4745   */\n      swap3\n      swap2\n      pop\n      pop\n      jump\t// out\n        /* \"#utility.yul\":4751:4869   */\n    tag_278:\n        /* \"#utility.yul\":4838:4862   */\n      tag_368\n        /* \"#utility.yul\":4856:4861   */\n      dup2\n        /* \"#utility.yul\":4838:4862   */\n      tag_263\n      jump\t// in\n    tag_368:\n        /* \"#utility.yul\":4833:4836   */\n      dup3\n        /* \"#utility.yul\":4826:4863   */\n      mstore\n        /* \"#utility.yul\":4751:4869   */\n      pop\n      pop\n      jump\t// out\n        /* \"#utility.yul\":4875:5097   */\n    tag_62:\n        /* \"#utility.yul\":4968:4972   */\n      0x00\n        /* \"#utility.yul\":5006:5008   */\n      0x20\n        /* \"#utility.yul\":4995:5004   */\n      dup3\n        /* \"#utility.yul\":4991:5009   */\n      add\n        /* \"#utility.yul\":4983:5009   */\n      swap1\n      pop\n        /* \"#utility.yul\":5019:5090   */\n      tag_370\n        /* \"#utility.yul\":5087:5088   */\n      0x00\n        /* \"#utility.yul\":5076:5085   */\n      dup4\n        /* \"#utility.yul\":5072:5089   */\n      add\n        /* \"#utility.yul\":5063:5069   */\n      dup5\n        /* \"#utility.yul\":5019:5090   */\n      tag_278\n      jump\t// in\n    tag_370:\n        /* \"#utility.yul\":4875:5097   */\n      swap3\n      swap2\n      pop\n      pop\n      jump\t// out\n        /* \"#utility.yul\":5103:5225   */\n    tag_279:\n        /* \"#utility.yul\":5176:5200   */\n      tag_372\n        /* \"#utility.yul\":5194:5199   */\n      dup2\n        /* \"#utility.yul\":5176:5200   */\n      tag_266\n      jump\t// in\n    tag_372:\n        /* \"#utility.yul\":5169:5174   */\n      dup2\n        /* \"#utility.yul\":5166:5201   */\n      eq\n        /* \"#utility.yul\":5156:5219   */\n      tag_373\n      jumpi\n        /* \"#utility.yul\":5215:5216   */\n      0x00\n        /* \"#utility.yul\":5212:5213   */\n      dup1\n        /* \"#utility.yul\":5205:5217   */\n      revert\n        /* \"#utility.yul\":5156:5219   */\n    tag_373:\n        /* \"#utility.yul\":5103:5225   */\n      pop\n      jump\t// out\n        /* \"#utility.yul\":5231:5370   */\n    tag_280:\n        /* \"#utility.yul\":5277:5282   */\n      0x00\n        /* \"#utility.yul\":5315:5321   */\n      dup2\n        /* \"#utility.yul\":5302:5322   */\n      calldataload\n        /* \"#utility.yul\":5293:5322   */\n      swap1\n      pop\n        /* \"#utility.yul\":5331:5364   */\n      tag_375\n        /* \"#utility.yul\":5358:5363   */\n      dup2\n        /* \"#utility.yul\":5331:5364   */\n      tag_279\n      jump\t// in\n    tag_375:\n        /* \"#utility.yul\":5231:5370   */\n      swap3\n      swap2\n      pop\n      pop\n      jump\t// out\n        /* \"#utility.yul\":5376:5705   */\n    tag_67:\n        /* \"#utility.yul\":5435:5441   */\n      0x00\n        /* \"#utility.yul\":5484:5486   */\n      0x20\n        /* \"#utility.yul\":5472:5481   */\n      dup3\n        /* \"#utility.yul\":5463:5470   */\n      dup5\n        /* \"#utility.yul\":5459:5482   */\n      sub\n        /* \"#utility.yul\":5455:5487   */\n      slt\n        /* \"#utility.yul\":5452:5571   */\n      iszero\n      tag_377\n      jumpi\n        /* \"#utility.yul\":5490:5569   */\n      tag_378\n      tag_260\n      jump\t// in\n    tag_378:\n        /* \"#utility.yul\":5452:5571   */\n    tag_377:\n        /* \"#utility.yul\":5610:5611   */\n      0x00\n        /* \"#utility.yul\":5635:5688   */\n      tag_379\n        /* \"#utility.yul\":5680:5687   */\n      dup5\n        /* \"#utility.yul\":5671:5677   */\n      dup3\n        /* \"#utility.yul\":5660:5669   */\n      dup6\n        /* \"#utility.yul\":5656:5678   */\n      add\n        /* \"#utility.yul\":5635:5688   */\n      tag_280\n      jump\t// in\n    tag_379:\n        /* \"#utility.yul\":5625:5688   */\n      swap2\n      pop\n        /* \"#utility.yul\":5581:5698   */\n      pop\n        /* \"#utility.yul\":5376:5705   */\n      swap3\n      swap2\n      pop\n      pop\n      jump\t// out\n        /* \"#utility.yul\":5711:6560   */\n    tag_79:\n        /* \"#utility.yul\":5815:5821   */\n      0x00\n        /* \"#utility.yul\":5823:5829   */\n      dup1\n        /* \"#utility.yul\":5831:5837   */\n      0x00\n        /* \"#utility.yul\":5839:5845   */\n      dup1\n        /* \"#utility.yul\":5888:5890   */\n      0x60\n        /* \"#utility.yul\":5876:5885   */\n      dup6\n        /* \"#utility.yul\":5867:5874   */\n      dup8\n        /* \"#utility.yul\":5863:5886   */\n      sub\n        /* \"#utility.yul\":5859:5891   */\n      slt\n        /* \"#utility.yul\":5856:5975   */\n      iszero\n      tag_381\n      jumpi\n        /* \"#utility.yul\":5894:5973   */\n      tag_382\n      tag_260\n      jump\t// in\n    tag_382:\n        /* \"#utility.yul\":5856:5975   */\n    tag_381:\n        /* \"#utility.yul\":6014:6015   */\n      0x00\n        /* \"#utility.yul\":6039:6092   */\n      tag_383\n        /* \"#utility.yul\":6084:6091   */\n      dup8\n        /* \"#utility.yul\":6075:6081   */\n      dup3\n        /* \"#utility.yul\":6064:6073   */\n      dup9\n        /* \"#utility.yul\":6060:6082   */\n      add\n        /* \"#utility.yul\":6039:6092   */\n      tag_265\n      jump\t// in\n    tag_383:\n        /* \"#utility.yul\":6029:6092   */\n      swap5\n      pop\n        /* \"#utility.yul\":5985:6102   */\n      pop\n        /* \"#utility.yul\":6141:6143   */\n      0x20\n        /* \"#utility.yul\":6167:6220   */\n      tag_384\n        /* \"#utility.yul\":6212:6219   */\n      dup8\n        /* \"#utility.yul\":6203:6209   */\n      dup3\n        /* \"#utility.yul\":6192:6201   */\n      dup9\n        /* \"#utility.yul\":6188:6210   */\n      add\n        /* \"#utility.yul\":6167:6220   */\n      tag_270\n      jump\t// in\n    tag_384:\n        /* \"#utility.yul\":6157:6220   */\n      swap4\n      pop\n        /* \"#utility.yul\":6112:6230   */\n      pop\n        /* \"#utility.yul\":6297:6299   */\n      0x40\n        /* \"#utility.yul\":6286:6295   */\n      dup6\n        /* \"#utility.yul\":6282:6300   */\n      add\n        /* \"#utility.yul\":6269:6301   */\n      calldataload\n        /* \"#utility.yul\":6328:6346   */\n      0xffffffffffffffff\n        /* \"#utility.yul\":6320:6326   */\n      dup2\n        /* \"#utility.yul\":6317:6347   */\n      gt\n        /* \"#utility.yul\":6314:6431   */\n      iszero\n      tag_385\n      jumpi\n        /* \"#utility.yul\":6350:6429   */\n      tag_386\n      tag_261\n      jump\t// in\n    tag_386:\n        /* \"#utility.yul\":6314:6431   */\n    tag_385:\n        /* \"#utility.yul\":6463:6543   */\n      tag_387\n        /* \"#utility.yul\":6535:6542   */\n      dup8\n        /* \"#utility.yul\":6526:6532   */\n      dup3\n        /* \"#utility.yul\":6515:6524   */\n      dup9\n        /* \"#utility.yul\":6511:6533   */\n      add\n        /* \"#utility.yul\":6463:6543   */\n      tag_274\n      jump\t// in\n    tag_387:\n        /* \"#utility.yul\":6445:6543   */\n      swap3\n      pop\n      swap3\n      pop\n        /* \"#utility.yul\":6240:6553   */\n      pop\n        /* \"#utility.yul\":5711:6560   */\n      swap3\n      swap6\n      swap2\n      swap5\n      pop\n      swap3\n      pop\n      jump\t// out\n        /* \"#utility.yul\":6566:6735   */\n    tag_281:\n        /* \"#utility.yul\":6650:6661   */\n      0x00\n        /* \"#utility.yul\":6684:6690   */\n      dup3\n        /* \"#utility.yul\":6679:6682   */\n      dup3\n        /* \"#utility.yul\":6672:6691   */\n      mstore\n        /* \"#utility.yul\":6724:6728   */\n      0x20\n        /* \"#utility.yul\":6719:6722   */\n      dup3\n        /* \"#utility.yul\":6715:6729   */\n      add\n        /* \"#utility.yul\":6700:6729   */\n      swap1\n      pop\n        /* \"#utility.yul\":6566:6735   */\n      swap3\n      swap2\n      pop\n      pop\n      jump\t// out\n        /* \"#utility.yul\":6741:6914   */\n    tag_282:\n        /* \"#utility.yul\":6881:6906   */\n      0x546f6b656e2073686f756c646e2774206265207a65726f000000000000000000\n        /* \"#utility.yul\":6877:6878   */\n      0x00\n        /* \"#utility.yul\":6869:6875   */\n      dup3\n        /* \"#utility.yul\":6865:6879   */\n      add\n        /* \"#utility.yul\":6858:6907   */\n      mstore\n        /* \"#utility.yul\":6741:6914   */\n      pop\n      jump\t// out\n        /* \"#utility.yul\":6920:7286   */\n    tag_283:\n        /* \"#utility.yul\":7062:7065   */\n      0x00\n        /* \"#utility.yul\":7083:7150   */\n      tag_391\n        /* \"#utility.yul\":7147:7149   */\n      0x17\n        /* \"#utility.yul\":7142:7145   */\n      dup4\n        /* \"#utility.yul\":7083:7150   */\n      tag_281\n      jump\t// in\n    tag_391:\n        /* \"#utility.yul\":7076:7150   */\n      swap2\n      pop\n        /* \"#utility.yul\":7159:7252   */\n      tag_392\n        /* \"#utility.yul\":7248:7251   */\n      dup3\n        /* \"#utility.yul\":7159:7252   */\n      tag_282\n      jump\t// in\n    tag_392:\n        /* \"#utility.yul\":7277:7279   */\n      0x20\n        /* \"#utility.yul\":7272:7275   */\n      dup3\n        /* \"#utility.yul\":7268:7280   */\n      add\n        /* \"#utility.yul\":7261:7280   */\n      swap1\n      pop\n        /* \"#utility.yul\":6920:7286   */\n      swap2\n      swap1\n      pop\n      jump\t// out\n        /* \"#utility.yul\":7292:7711   */\n    tag_105:\n        /* \"#utility.yul\":7458:7462   */\n      0x00\n        /* \"#utility.yul\":7496:7498   */\n      0x20\n        /* \"#utility.yul\":7485:7494   */\n      dup3\n        /* \"#utility.yul\":7481:7499   */\n      add\n        /* \"#utility.yul\":7473:7499   */\n      swap1\n      pop\n        /* \"#utility.yul\":7545:7554   */\n      dup2\n        /* \"#utility.yul\":7539:7543   */\n      dup2\n        /* \"#utility.yul\":7535:7555   */\n      sub\n        /* \"#utility.yul\":7531:7532   */\n      0x00\n        /* \"#utility.yul\":7520:7529   */\n      dup4\n        /* \"#utility.yul\":7516:7533   */\n      add\n        /* \"#utility.yul\":7509:7556   */\n      mstore\n        /* \"#utility.yul\":7573:7704   */\n      tag_394\n        /* \"#utility.yul\":7699:7703   */\n      dup2\n        /* \"#utility.yul\":7573:7704   */\n      tag_283\n      jump\t// in\n    tag_394:\n        /* \"#utility.yul\":7565:7704   */\n      swap1\n      pop\n        /* \"#utility.yul\":7292:7711   */\n      swap2\n      swap1\n      pop\n      jump\t// out\n        /* \"#utility.yul\":7717:7897   */\n    tag_284:\n        /* \"#utility.yul\":7765:7842   */\n      0x4e487b7100000000000000000000000000000000000000000000000000000000\n        /* \"#utility.yul\":7762:7763   */\n      0x00\n        /* \"#utility.yul\":7755:7843   */\n      mstore\n        /* \"#utility.yul\":7862:7866   */\n      0x11\n        /* \"#utility.yul\":7859:7860   */\n      0x04\n        /* \"#utility.yul\":7852:7867   */\n      mstore\n        /* \"#utility.yul\":7886:7890   */\n      0x24\n        /* \"#utility.yul\":7883:7884   */\n      0x00\n        /* \"#utility.yul\":7876:7891   */\n      revert\n        /* \"#utility.yul\":7903:8094   */\n    tag_116:\n        /* \"#utility.yul\":7943:7946   */\n      0x00\n        /* \"#utility.yul\":7962:7982   */\n      tag_397\n        /* \"#utility.yul\":7980:7981   */\n      dup3\n        /* \"#utility.yul\":7962:7982   */\n      tag_268\n      jump\t// in\n    tag_397:\n        /* \"#utility.yul\":7957:7982   */\n      swap2\n      pop\n        /* \"#utility.yul\":7996:8016   */\n      tag_398\n        /* \"#utility.yul\":8014:8015   */\n      dup4\n        /* \"#utility.yul\":7996:8016   */\n      tag_268\n      jump\t// in\n    tag_398:\n        /* \"#utility.yul\":7991:8016   */\n      swap3\n      pop\n        /* \"#utility.yul\":8039:8040   */\n      dup3\n        /* \"#utility.yul\":8036:8037   */\n      dup3\n        /* \"#utility.yul\":8032:8041   */\n      add\n        /* \"#utility.yul\":8025:8041   */\n      swap1\n      pop\n        /* \"#utility.yul\":8060:8063   */\n      dup1\n        /* \"#utility.yul\":8057:8058   */\n      dup3\n        /* \"#utility.yul\":8054:8064   */\n      gt\n        /* \"#utility.yul\":8051:8087   */\n      iszero\n      tag_399\n      jumpi\n        /* \"#utility.yul\":8067:8085   */\n      tag_400\n      tag_284\n      jump\t// in\n    tag_400:\n        /* \"#utility.yul\":8051:8087   */\n    tag_399:\n        /* \"#utility.yul\":7903:8094   */\n      swap3\n      swap2\n      pop\n      pop\n      jump\t// out\n        /* \"#utility.yul\":8100:8275   */\n    tag_285:\n        /* \"#utility.yul\":8240:8267   */\n      0x4974206973206e6f20706572696f6420746f20636c61696d2100000000000000\n        /* \"#utility.yul\":8236:8237   */\n      0x00\n        /* \"#utility.yul\":8228:8234   */\n      dup3\n        /* \"#utility.yul\":8224:8238   */\n      add\n        /* \"#utility.yul\":8217:8268   */\n      mstore\n        /* \"#utility.yul\":8100:8275   */\n      pop\n      jump\t// out\n        /* \"#utility.yul\":8281:8647   */\n    tag_286:\n        /* \"#utility.yul\":8423:8426   */\n      0x00\n        /* \"#utility.yul\":8444:8511   */\n      tag_403\n        /* \"#utility.yul\":8508:8510   */\n      0x19\n        /* \"#utility.yul\":8503:8506   */\n      dup4\n        /* \"#utility.yul\":8444:8511   */\n      tag_281\n      jump\t// in\n    tag_403:\n        /* \"#utility.yul\":8437:8511   */\n      swap2\n      pop\n        /* \"#utility.yul\":8520:8613   */\n      tag_404\n        /* \"#utility.yul\":8609:8612   */\n      dup3\n        /* \"#utility.yul\":8520:8613   */\n      tag_285\n      jump\t// in\n    tag_404:\n        /* \"#utility.yul\":8638:8640   */\n      0x20\n        /* \"#utility.yul\":8633:8636   */\n      dup3\n        /* \"#utility.yul\":8629:8641   */\n      add\n        /* \"#utility.yul\":8622:8641   */\n      swap1\n      pop\n        /* \"#utility.yul\":8281:8647   */\n      swap2\n      swap1\n      pop\n      jump\t// out\n        /* \"#utility.yul\":8653:9072   */\n    tag_119:\n        /* \"#utility.yul\":8819:8823   */\n      0x00\n        /* \"#utility.yul\":8857:8859   */\n      0x20\n        /* \"#utility.yul\":8846:8855   */\n      dup3\n        /* \"#utility.yul\":8842:8860   */\n      add\n        /* \"#utility.yul\":8834:8860   */\n      swap1\n      pop\n        /* \"#utility.yul\":8906:8915   */\n      dup2\n        /* \"#utility.yul\":8900:8904   */\n      dup2\n        /* \"#utility.yul\":8896:8916   */\n      sub\n        /* \"#utility.yul\":8892:8893   */\n      0x00\n        /* \"#utility.yul\":8881:8890   */\n      dup4\n        /* \"#utility.yul\":8877:8894   */\n      add\n        /* \"#utility.yul\":8870:8917   */\n      mstore\n        /* \"#utility.yul\":8934:9065   */\n      tag_406\n        /* \"#utility.yul\":9060:9064   */\n      dup2\n        /* \"#utility.yul\":8934:9065   */\n      tag_286\n      jump\t// in\n    tag_406:\n        /* \"#utility.yul\":8926:9065   */\n      swap1\n      pop\n        /* \"#utility.yul\":8653:9072   */\n      swap2\n      swap1\n      pop\n      jump\t// out\n        /* \"#utility.yul\":9078:9243   */\n    tag_287:\n        /* \"#utility.yul\":9218:9235   */\n      0x416c726561647920636c61696d65640000000000000000000000000000000000\n        /* \"#utility.yul\":9214:9215   */\n      0x00\n        /* \"#utility.yul\":9206:9212   */\n      dup3\n        /* \"#utility.yul\":9202:9216   */\n      add\n        /* \"#utility.yul\":9195:9236   */\n      mstore\n        /* \"#utility.yul\":9078:9243   */\n      pop\n      jump\t// out\n        /* \"#utility.yul\":9249:9615   */\n    tag_288:\n        /* \"#utility.yul\":9391:9394   */\n      0x00\n        /* \"#utility.yul\":9412:9479   */\n      tag_409\n        /* \"#utility.yul\":9476:9478   */\n      0x0f\n        /* \"#utility.yul\":9471:9474   */\n      dup4\n        /* \"#utility.yul\":9412:9479   */\n      tag_281\n      jump\t// in\n    tag_409:\n        /* \"#utility.yul\":9405:9479   */\n      swap2\n      pop\n        /* \"#utility.yul\":9488:9581   */\n      tag_410\n        /* \"#utility.yul\":9577:9580   */\n      dup3\n        /* \"#utility.yul\":9488:9581   */\n      tag_287\n      jump\t// in\n    tag_410:\n        /* \"#utility.yul\":9606:9608   */\n      0x20\n        /* \"#utility.yul\":9601:9604   */\n      dup3\n        /* \"#utility.yul\":9597:9609   */\n      add\n        /* \"#utility.yul\":9590:9609   */\n      swap1\n      pop\n        /* \"#utility.yul\":9249:9615   */\n      swap2\n      swap1\n      pop\n      jump\t// out\n        /* \"#utility.yul\":9621:10040   */\n    tag_123:\n        /* \"#utility.yul\":9787:9791   */\n      0x00\n        /* \"#utility.yul\":9825:9827   */\n      0x20\n        /* \"#utility.yul\":9814:9823   */\n      dup3\n        /* \"#utility.yul\":9810:9828   */\n      add\n        /* \"#utility.yul\":9802:9828   */\n      swap1\n      pop\n        /* \"#utility.yul\":9874:9883   */\n      dup2\n        /* \"#utility.yul\":9868:9872   */\n      dup2\n        /* \"#utility.yul\":9864:9884   */\n      sub\n        /* \"#utility.yul\":9860:9861   */\n      0x00\n        /* \"#utility.yul\":9849:9858   */\n      dup4\n        /* \"#utility.yul\":9845:9862   */\n      add\n        /* \"#utility.yul\":9838:9885   */\n      mstore\n        /* \"#utility.yul\":9902:10033   */\n      tag_412\n        /* \"#utility.yul\":10028:10032   */\n      dup2\n        /* \"#utility.yul\":9902:10033   */\n      tag_288\n      jump\t// in\n    tag_412:\n        /* \"#utility.yul\":9894:10033   */\n      swap1\n      pop\n        /* \"#utility.yul\":9621:10040   */\n      swap2\n      swap1\n      pop\n      jump\t// out\n        /* \"#utility.yul\":10046:10140   */\n    tag_289:\n        /* \"#utility.yul\":10079:10087   */\n      0x00\n        /* \"#utility.yul\":10127:10132   */\n      dup2\n        /* \"#utility.yul\":10123:10125   */\n      0x60\n        /* \"#utility.yul\":10119:10133   */\n      shl\n        /* \"#utility.yul\":10098:10133   */\n      swap1\n      pop\n        /* \"#utility.yul\":10046:10140   */\n      swap2\n      swap1\n      pop\n      jump\t// out\n        /* \"#utility.yul\":10146:10240   */\n    tag_290:\n        /* \"#utility.yul\":10185:10192   */\n      0x00\n        /* \"#utility.yul\":10214:10234   */\n      tag_415\n        /* \"#utility.yul\":10228:10233   */\n      dup3\n        /* \"#utility.yul\":10214:10234   */\n      tag_289\n      jump\t// in\n    tag_415:\n        /* \"#utility.yul\":10203:10234   */\n      swap1\n      pop\n        /* \"#utility.yul\":10146:10240   */\n      swap2\n      swap1\n      pop\n      jump\t// out\n        /* \"#utility.yul\":10246:10346   */\n    tag_291:\n        /* \"#utility.yul\":10285:10292   */\n      0x00\n        /* \"#utility.yul\":10314:10340   */\n      tag_417\n        /* \"#utility.yul\":10334:10339   */\n      dup3\n        /* \"#utility.yul\":10314:10340   */\n      tag_290\n      jump\t// in\n    tag_417:\n        /* \"#utility.yul\":10303:10340   */\n      swap1\n      pop\n        /* \"#utility.yul\":10246:10346   */\n      swap2\n      swap1\n      pop\n      jump\t// out\n        /* \"#utility.yul\":10352:10509   */\n    tag_292:\n        /* \"#utility.yul\":10457:10502   */\n      tag_419\n        /* \"#utility.yul\":10477:10501   */\n      tag_420\n        /* \"#utility.yul\":10495:10500   */\n      dup3\n        /* \"#utility.yul\":10477:10501   */\n      tag_263\n      jump\t// in\n    tag_420:\n        /* \"#utility.yul\":10457:10502   */\n      tag_291\n      jump\t// in\n    tag_419:\n        /* \"#utility.yul\":10452:10455   */\n      dup3\n        /* \"#utility.yul\":10445:10503   */\n      mstore\n        /* \"#utility.yul\":10352:10509   */\n      pop\n      pop\n      jump\t// out\n        /* \"#utility.yul\":10515:10594   */\n    tag_293:\n        /* \"#utility.yul\":10554:10561   */\n      0x00\n        /* \"#utility.yul\":10583:10588   */\n      dup2\n        /* \"#utility.yul\":10572:10588   */\n      swap1\n      pop\n        /* \"#utility.yul\":10515:10594   */\n      swap2\n      swap1\n      pop\n      jump\t// out\n        /* \"#utility.yul\":10600:10757   */\n    tag_294:\n        /* \"#utility.yul\":10705:10750   */\n      tag_423\n        /* \"#utility.yul\":10725:10749   */\n      tag_424\n        /* \"#utility.yul\":10743:10748   */\n      dup3\n        /* \"#utility.yul\":10725:10749   */\n      tag_268\n      jump\t// in\n    tag_424:\n        /* \"#utility.yul\":10705:10750   */\n      tag_293\n      jump\t// in\n    tag_423:\n        /* \"#utility.yul\":10700:10703   */\n      dup3\n        /* \"#utility.yul\":10693:10751   */\n      mstore\n        /* \"#utility.yul\":10600:10757   */\n      pop\n      pop\n      jump\t// out\n        /* \"#utility.yul\":10763:11160   */\n    tag_125:\n        /* \"#utility.yul\":10903:10906   */\n      0x00\n        /* \"#utility.yul\":10918:10993   */\n      tag_426\n        /* \"#utility.yul\":10989:10992   */\n      dup3\n        /* \"#utility.yul\":10980:10986   */\n      dup6\n        /* \"#utility.yul\":10918:10993   */\n      tag_292\n      jump\t// in\n    tag_426:\n        /* \"#utility.yul\":11018:11020   */\n      0x14\n        /* \"#utility.yul\":11013:11016   */\n      dup3\n        /* \"#utility.yul\":11009:11021   */\n      add\n        /* \"#utility.yul\":11002:11021   */\n      swap2\n      pop\n        /* \"#utility.yul\":11031:11106   */\n      tag_427\n        /* \"#utility.yul\":11102:11105   */\n      dup3\n        /* \"#utility.yul\":11093:11099   */\n      dup5\n        /* \"#utility.yul\":11031:11106   */\n      tag_294\n      jump\t// in\n    tag_427:\n        /* \"#utility.yul\":11131:11133   */\n      0x20\n        /* \"#utility.yul\":11126:11129   */\n      dup3\n        /* \"#utility.yul\":11122:11134   */\n      add\n        /* \"#utility.yul\":11115:11134   */\n      swap2\n      pop\n        /* \"#utility.yul\":11151:11154   */\n      dup2\n        /* \"#utility.yul\":11144:11154   */\n      swap1\n      pop\n        /* \"#utility.yul\":10763:11160   */\n      swap4\n      swap3\n      pop\n      pop\n      pop\n      jump\t// out\n        /* \"#utility.yul\":11166:11329   */\n    tag_295:\n        /* \"#utility.yul\":11306:11321   */\n      0x496e76616c69642070726f6f6600000000000000000000000000000000000000\n        /* \"#utility.yul\":11302:11303   */\n      0x00\n        /* \"#utility.yul\":11294:11300   */\n      dup3\n        /* \"#utility.yul\":11290:11304   */\n      add\n        /* \"#utility.yul\":11283:11322   */\n      mstore\n        /* \"#utility.yul\":11166:11329   */\n      pop\n      jump\t// out\n        /* \"#utility.yul\":11335:11701   */\n    tag_296:\n        /* \"#utility.yul\":11477:11480   */\n      0x00\n        /* \"#utility.yul\":11498:11565   */\n      tag_430\n        /* \"#utility.yul\":11562:11564   */\n      0x0d\n        /* \"#utility.yul\":11557:11560   */\n      dup4\n        /* \"#utility.yul\":11498:11565   */\n      tag_281\n      jump\t// in\n    tag_430:\n        /* \"#utility.yul\":11491:11565   */\n      swap2\n      pop\n        /* \"#utility.yul\":11574:11667   */\n      tag_431\n        /* \"#utility.yul\":11663:11666   */\n      dup3\n        /* \"#utility.yul\":11574:11667   */\n      tag_295\n      jump\t// in\n    tag_431:\n        /* \"#utility.yul\":11692:11694   */\n      0x20\n        /* \"#utility.yul\":11687:11690   */\n      dup3\n        /* \"#utility.yul\":11683:11695   */\n      add\n        /* \"#utility.yul\":11676:11695   */\n      swap1\n      pop\n        /* \"#utility.yul\":11335:11701   */\n      swap2\n      swap1\n      pop\n      jump\t// out\n        /* \"#utility.yul\":11707:12126   */\n    tag_130:\n        /* \"#utility.yul\":11873:11877   */\n      0x00\n        /* \"#utility.yul\":11911:11913   */\n      0x20\n        /* \"#utility.yul\":11900:11909   */\n      dup3\n        /* \"#utility.yul\":11896:11914   */\n      add\n        /* \"#utility.yul\":11888:11914   */\n      swap1\n      pop\n        /* \"#utility.yul\":11960:11969   */\n      dup2\n        /* \"#utility.yul\":11954:11958   */\n      dup2\n        /* \"#utility.yul\":11950:11970   */\n      sub\n        /* \"#utility.yul\":11946:11947   */\n      0x00\n        /* \"#utility.yul\":11935:11944   */\n      dup4\n        /* \"#utility.yul\":11931:11948   */\n      add\n        /* \"#utility.yul\":11924:11971   */\n      mstore\n        /* \"#utility.yul\":11988:12119   */\n      tag_433\n        /* \"#utility.yul\":12114:12118   */\n      dup2\n        /* \"#utility.yul\":11988:12119   */\n      tag_296\n      jump\t// in\n    tag_433:\n        /* \"#utility.yul\":11980:12119   */\n      swap1\n      pop\n        /* \"#utility.yul\":11707:12126   */\n      swap2\n      swap1\n      pop\n      jump\t// out\n        /* \"#utility.yul\":12132:12314   */\n    tag_297:\n        /* \"#utility.yul\":12272:12306   */\n      0x546f6b656e20616464726573732073686f756c646e2774206265207a65726f21\n        /* \"#utility.yul\":12268:12269   */\n      0x00\n        /* \"#utility.yul\":12260:12266   */\n      dup3\n        /* \"#utility.yul\":12256:12270   */\n      add\n        /* \"#utility.yul\":12249:12307   */\n      mstore\n        /* \"#utility.yul\":12132:12314   */\n      pop\n      jump\t// out\n        /* \"#utility.yul\":12320:12686   */\n    tag_298:\n        /* \"#utility.yul\":12462:12465   */\n      0x00\n        /* \"#utility.yul\":12483:12550   */\n      tag_436\n        /* \"#utility.yul\":12547:12549   */\n      0x20\n        /* \"#utility.yul\":12542:12545   */\n      dup4\n        /* \"#utility.yul\":12483:12550   */\n      tag_281\n      jump\t// in\n    tag_436:\n        /* \"#utility.yul\":12476:12550   */\n      swap2\n      pop\n        /* \"#utility.yul\":12559:12652   */\n      tag_437\n        /* \"#utility.yul\":12648:12651   */\n      dup3\n        /* \"#utility.yul\":12559:12652   */\n      tag_297\n      jump\t// in\n    tag_437:\n        /* \"#utility.yul\":12677:12679   */\n      0x20\n        /* \"#utility.yul\":12672:12675   */\n      dup3\n        /* \"#utility.yul\":12668:12680   */\n      add\n        /* \"#utility.yul\":12661:12680   */\n      swap1\n      pop\n        /* \"#utility.yul\":12320:12686   */\n      swap2\n      swap1\n      pop\n      jump\t// out\n        /* \"#utility.yul\":12692:13111   */\n    tag_133:\n        /* \"#utility.yul\":12858:12862   */\n      0x00\n        /* \"#utility.yul\":12896:12898   */\n      0x20\n        /* \"#utility.yul\":12885:12894   */\n      dup3\n        /* \"#utility.yul\":12881:12899   */\n      add\n        /* \"#utility.yul\":12873:12899   */\n      swap1\n      pop\n        /* \"#utility.yul\":12945:12954   */\n      dup2\n        /* \"#utility.yul\":12939:12943   */\n      dup2\n        /* \"#utility.yul\":12935:12955   */\n      sub\n        /* \"#utility.yul\":12931:12932   */\n      0x00\n        /* \"#utility.yul\":12920:12929   */\n      dup4\n        /* \"#utility.yul\":12916:12933   */\n      add\n        /* \"#utility.yul\":12909:12956   */\n      mstore\n        /* \"#utility.yul\":12973:13104   */\n      tag_439\n        /* \"#utility.yul\":13099:13103   */\n      dup2\n        /* \"#utility.yul\":12973:13104   */\n      tag_298\n      jump\t// in\n    tag_439:\n        /* \"#utility.yul\":12965:13104   */\n      swap1\n      pop\n        /* \"#utility.yul\":12692:13111   */\n      swap2\n      swap1\n      pop\n      jump\t// out\n        /* \"#utility.yul\":13117:13260   */\n    tag_299:\n        /* \"#utility.yul\":13174:13179   */\n      0x00\n        /* \"#utility.yul\":13205:13211   */\n      dup2\n        /* \"#utility.yul\":13199:13212   */\n      mload\n        /* \"#utility.yul\":13190:13212   */\n      swap1\n      pop\n        /* \"#utility.yul\":13221:13254   */\n      tag_441\n        /* \"#utility.yul\":13248:13253   */\n      dup2\n        /* \"#utility.yul\":13221:13254   */\n      tag_269\n      jump\t// in\n    tag_441:\n        /* \"#utility.yul\":13117:13260   */\n      swap3\n      swap2\n      pop\n      pop\n      jump\t// out\n        /* \"#utility.yul\":13266:13617   */\n    tag_138:\n        /* \"#utility.yul\":13336:13342   */\n      0x00\n        /* \"#utility.yul\":13385:13387   */\n      0x20\n        /* \"#utility.yul\":13373:13382   */\n      dup3\n        /* \"#utility.yul\":13364:13371   */\n      dup5\n        /* \"#utility.yul\":13360:13383   */\n      sub\n        /* \"#utility.yul\":13356:13388   */\n      slt\n        /* \"#utility.yul\":13353:13472   */\n      iszero\n      tag_443\n      jumpi\n        /* \"#utility.yul\":13391:13470   */\n      tag_444\n      tag_260\n      jump\t// in\n    tag_444:\n        /* \"#utility.yul\":13353:13472   */\n    tag_443:\n        /* \"#utility.yul\":13511:13512   */\n      0x00\n        /* \"#utility.yul\":13536:13600   */\n      tag_445\n        /* \"#utility.yul\":13592:13599   */\n      dup5\n        /* \"#utility.yul\":13583:13589   */\n      dup3\n        /* \"#utility.yul\":13572:13581   */\n      dup6\n        /* \"#utility.yul\":13568:13590   */\n      add\n        /* \"#utility.yul\":13536:13600   */\n      tag_299\n      jump\t// in\n    tag_445:\n        /* \"#utility.yul\":13526:13600   */\n      swap2\n      pop\n        /* \"#utility.yul\":13482:13610   */\n      pop\n        /* \"#utility.yul\":13266:13617   */\n      swap3\n      swap2\n      pop\n      pop\n      jump\t// out\n        /* \"#utility.yul\":13623:13794   */\n    tag_300:\n        /* \"#utility.yul\":13763:13786   */\n      0x496e73756666696369656e742042616c616e6365210000000000000000000000\n        /* \"#utility.yul\":13759:13760   */\n      0x00\n        /* \"#utility.yul\":13751:13757   */\n      dup3\n        /* \"#utility.yul\":13747:13761   */\n      add\n        /* \"#utility.yul\":13740:13787   */\n      mstore\n        /* \"#utility.yul\":13623:13794   */\n      pop\n      jump\t// out\n        /* \"#utility.yul\":13800:14166   */\n    tag_301:\n        /* \"#utility.yul\":13942:13945   */\n      0x00\n        /* \"#utility.yul\":13963:14030   */\n      tag_448\n        /* \"#utility.yul\":14027:14029   */\n      0x15\n        /* \"#utility.yul\":14022:14025   */\n      dup4\n        /* \"#utility.yul\":13963:14030   */\n      tag_281\n      jump\t// in\n    tag_448:\n        /* \"#utility.yul\":13956:14030   */\n      swap2\n      pop\n        /* \"#utility.yul\":14039:14132   */\n      tag_449\n        /* \"#utility.yul\":14128:14131   */\n      dup3\n        /* \"#utility.yul\":14039:14132   */\n      tag_300\n      jump\t// in\n    tag_449:\n        /* \"#utility.yul\":14157:14159   */\n      0x20\n        /* \"#utility.yul\":14152:14155   */\n      dup3\n        /* \"#utility.yul\":14148:14160   */\n      add\n        /* \"#utility.yul\":14141:14160   */\n      swap1\n      pop\n        /* \"#utility.yul\":13800:14166   */\n      swap2\n      swap1\n      pop\n      jump\t// out\n        /* \"#utility.yul\":14172:14591   */\n    tag_141:\n        /* \"#utility.yul\":14338:14342   */\n      0x00\n        /* \"#utility.yul\":14376:14378   */\n      0x20\n        /* \"#utility.yul\":14365:14374   */\n      dup3\n        /* \"#utility.yul\":14361:14379   */\n      add\n        /* \"#utility.yul\":14353:14379   */\n      swap1\n      pop\n        /* \"#utility.yul\":14425:14434   */\n      dup2\n        /* \"#utility.yul\":14419:14423   */\n      dup2\n        /* \"#utility.yul\":14415:14435   */\n      sub\n        /* \"#utility.yul\":14411:14412   */\n      0x00\n        /* \"#utility.yul\":14400:14409   */\n      dup4\n        /* \"#utility.yul\":14396:14413   */\n      add\n        /* \"#utility.yul\":14389:14436   */\n      mstore\n        /* \"#utility.yul\":14453:14584   */\n      tag_451\n        /* \"#utility.yul\":14579:14583   */\n      dup2\n        /* \"#utility.yul\":14453:14584   */\n      tag_301\n      jump\t// in\n    tag_451:\n        /* \"#utility.yul\":14445:14584   */\n      swap1\n      pop\n        /* \"#utility.yul\":14172:14591   */\n      swap2\n      swap1\n      pop\n      jump\t// out\n        /* \"#utility.yul\":14597:14929   */\n    tag_144:\n        /* \"#utility.yul\":14718:14722   */\n      0x00\n        /* \"#utility.yul\":14756:14758   */\n      0x40\n        /* \"#utility.yul\":14745:14754   */\n      dup3\n        /* \"#utility.yul\":14741:14759   */\n      add\n        /* \"#utility.yul\":14733:14759   */\n      swap1\n      pop\n        /* \"#utility.yul\":14769:14840   */\n      tag_453\n        /* \"#utility.yul\":14837:14838   */\n      0x00\n        /* \"#utility.yul\":14826:14835   */\n      dup4\n        /* \"#utility.yul\":14822:14839   */\n      add\n        /* \"#utility.yul\":14813:14819   */\n      dup6\n        /* \"#utility.yul\":14769:14840   */\n      tag_278\n      jump\t// in\n    tag_453:\n        /* \"#utility.yul\":14850:14922   */\n      tag_454\n        /* \"#utility.yul\":14918:14920   */\n      0x20\n        /* \"#utility.yul\":14907:14916   */\n      dup4\n        /* \"#utility.yul\":14903:14921   */\n      add\n        /* \"#utility.yul\":14894:14900   */\n      dup5\n        /* \"#utility.yul\":14850:14922   */\n      tag_275\n      jump\t// in\n    tag_454:\n        /* \"#utility.yul\":14597:14929   */\n      swap4\n      swap3\n      pop\n      pop\n      pop\n      jump\t// out\n        /* \"#utility.yul\":14935:15051   */\n    tag_302:\n        /* \"#utility.yul\":15005:15026   */\n      tag_456\n        /* \"#utility.yul\":15020:15025   */\n      dup2\n        /* \"#utility.yul\":15005:15026   */\n      tag_276\n      jump\t// in\n    tag_456:\n        /* \"#utility.yul\":14998:15003   */\n      dup2\n        /* \"#utility.yul\":14995:15027   */\n      eq\n        /* \"#utility.yul\":14985:15045   */\n      tag_457\n      jumpi\n        /* \"#utility.yul\":15041:15042   */\n      0x00\n        /* \"#utility.yul\":15038:15039   */\n      dup1\n        /* \"#utility.yul\":15031:15043   */\n      revert\n        /* \"#utility.yul\":14985:15045   */\n    tag_457:\n        /* \"#utility.yul\":14935:15051   */\n      pop\n      jump\t// out\n        /* \"#utility.yul\":15057:15194   */\n    tag_303:\n        /* \"#utility.yul\":15111:15116   */\n      0x00\n        /* \"#utility.yul\":15142:15148   */\n      dup2\n        /* \"#utility.yul\":15136:15149   */\n      mload\n        /* \"#utility.yul\":15127:15149   */\n      swap1\n      pop\n        /* \"#utility.yul\":15158:15188   */\n      tag_459\n        /* \"#utility.yul\":15182:15187   */\n      dup2\n        /* \"#utility.yul\":15158:15188   */\n      tag_302\n      jump\t// in\n    tag_459:\n        /* \"#utility.yul\":15057:15194   */\n      swap3\n      swap2\n      pop\n      pop\n      jump\t// out\n        /* \"#utility.yul\":15200:15545   */\n    tag_148:\n        /* \"#utility.yul\":15267:15273   */\n      0x00\n        /* \"#utility.yul\":15316:15318   */\n      0x20\n        /* \"#utility.yul\":15304:15313   */\n      dup3\n        /* \"#utility.yul\":15295:15302   */\n      dup5\n        /* \"#utility.yul\":15291:15314   */\n      sub\n        /* \"#utility.yul\":15287:15319   */\n      slt\n        /* \"#utility.yul\":15284:15403   */\n      iszero\n      tag_461\n      jumpi\n        /* \"#utility.yul\":15322:15401   */\n      tag_462\n      tag_260\n      jump\t// in\n    tag_462:\n        /* \"#utility.yul\":15284:15403   */\n    tag_461:\n        /* \"#utility.yul\":15442:15443   */\n      0x00\n        /* \"#utility.yul\":15467:15528   */\n      tag_463\n        /* \"#utility.yul\":15520:15527   */\n      dup5\n        /* \"#utility.yul\":15511:15517   */\n      dup3\n        /* \"#utility.yul\":15500:15509   */\n      dup6\n        /* \"#utility.yul\":15496:15518   */\n      add\n        /* \"#utility.yul\":15467:15528   */\n      tag_303\n      jump\t// in\n    tag_463:\n        /* \"#utility.yul\":15457:15528   */\n      swap2\n      pop\n        /* \"#utility.yul\":15413:15538   */\n      pop\n        /* \"#utility.yul\":15200:15545   */\n      swap3\n      swap2\n      pop\n      pop\n      jump\t// out\n        /* \"#utility.yul\":15551:15717   */\n    tag_304:\n        /* \"#utility.yul\":15691:15709   */\n      0x5061757361626c653a2070617573656400000000000000000000000000000000\n        /* \"#utility.yul\":15687:15688   */\n      0x00\n        /* \"#utility.yul\":15679:15685   */\n      dup3\n        /* \"#utility.yul\":15675:15689   */\n      add\n        /* \"#utility.yul\":15668:15710   */\n      mstore\n        /* \"#utility.yul\":15551:15717   */\n      pop\n      jump\t// out\n        /* \"#utility.yul\":15723:16089   */\n    tag_305:\n        /* \"#utility.yul\":15865:15868   */\n      0x00\n        /* \"#utility.yul\":15886:15953   */\n      tag_466\n        /* \"#utility.yul\":15950:15952   */\n      0x10\n        /* \"#utility.yul\":15945:15948   */\n      dup4\n        /* \"#utility.yul\":15886:15953   */\n      tag_281\n      jump\t// in\n    tag_466:\n        /* \"#utility.yul\":15879:15953   */\n      swap2\n      pop\n        /* \"#utility.yul\":15962:16055   */\n      tag_467\n        /* \"#utility.yul\":16051:16054   */\n      dup3\n        /* \"#utility.yul\":15962:16055   */\n      tag_304\n      jump\t// in\n    tag_467:\n        /* \"#utility.yul\":16080:16082   */\n      0x20\n        /* \"#utility.yul\":16075:16078   */\n      dup3\n        /* \"#utility.yul\":16071:16083   */\n      add\n        /* \"#utility.yul\":16064:16083   */\n      swap1\n      pop\n        /* \"#utility.yul\":15723:16089   */\n      swap2\n      swap1\n      pop\n      jump\t// out\n        /* \"#utility.yul\":16095:16514   */\n    tag_216:\n        /* \"#utility.yul\":16261:16265   */\n      0x00\n        /* \"#utility.yul\":16299:16301   */\n      0x20\n        /* \"#utility.yul\":16288:16297   */\n      dup3\n        /* \"#utility.yul\":16284:16302   */\n      add\n        /* \"#utility.yul\":16276:16302   */\n      swap1\n      pop\n        /* \"#utility.yul\":16348:16357   */\n      dup2\n        /* \"#utility.yul\":16342:16346   */\n      dup2\n        /* \"#utility.yul\":16338:16358   */\n      sub\n        /* \"#utility.yul\":16334:16335   */\n      0x00\n        /* \"#utility.yul\":16323:16332   */\n      dup4\n        /* \"#utility.yul\":16319:16336   */\n      add\n        /* \"#utility.yul\":16312:16359   */\n      mstore\n        /* \"#utility.yul\":16376:16507   */\n      tag_469\n        /* \"#utility.yul\":16502:16506   */\n      dup2\n        /* \"#utility.yul\":16376:16507   */\n      tag_305\n      jump\t// in\n    tag_469:\n        /* \"#utility.yul\":16368:16507   */\n      swap1\n      pop\n        /* \"#utility.yul\":16095:16514   */\n      swap2\n      swap1\n      pop\n      jump\t// out\n        /* \"#utility.yul\":16520:16701   */\n    tag_306:\n        /* \"#utility.yul\":16660:16693   */\n      0x5265656e7472616e637947756172643a207265656e7472616e742063616c6c00\n        /* \"#utility.yul\":16656:16657   */\n      0x00\n        /* \"#utility.yul\":16648:16654   */\n      dup3\n        /* \"#utility.yul\":16644:16658   */\n      add\n        /* \"#utility.yul\":16637:16694   */\n      mstore\n        /* \"#utility.yul\":16520:16701   */\n      pop\n      jump\t// out\n        /* \"#utility.yul\":16707:17073   */\n    tag_307:\n        /* \"#utility.yul\":16849:16852   */\n      0x00\n        /* \"#utility.yul\":16870:16937   */\n      tag_472\n        /* \"#utility.yul\":16934:16936   */\n      0x1f\n        /* \"#utility.yul\":16929:16932   */\n      dup4\n        /* \"#utility.yul\":16870:16937   */\n      tag_281\n      jump\t// in\n    tag_472:\n        /* \"#utility.yul\":16863:16937   */\n      swap2\n      pop\n        /* \"#utility.yul\":16946:17039   */\n      tag_473\n        /* \"#utility.yul\":17035:17038   */\n      dup3\n        /* \"#utility.yul\":16946:17039   */\n      tag_306\n      jump\t// in\n    tag_473:\n        /* \"#utility.yul\":17064:17066   */\n      0x20\n        /* \"#utility.yul\":17059:17062   */\n      dup3\n        /* \"#utility.yul\":17055:17067   */\n      add\n        /* \"#utility.yul\":17048:17067   */\n      swap1\n      pop\n        /* \"#utility.yul\":16707:17073   */\n      swap2\n      swap1\n      pop\n      jump\t// out\n        /* \"#utility.yul\":17079:17498   */\n    tag_220:\n        /* \"#utility.yul\":17245:17249   */\n      0x00\n        /* \"#utility.yul\":17283:17285   */\n      0x20\n        /* \"#utility.yul\":17272:17281   */\n      dup3\n        /* \"#utility.yul\":17268:17286   */\n      add\n        /* \"#utility.yul\":17260:17286   */\n      swap1\n      pop\n        /* \"#utility.yul\":17332:17341   */\n      dup2\n        /* \"#utility.yul\":17326:17330   */\n      dup2\n        /* \"#utility.yul\":17322:17342   */\n      sub\n        /* \"#utility.yul\":17318:17319   */\n      0x00\n        /* \"#utility.yul\":17307:17316   */\n      dup4\n        /* \"#utility.yul\":17303:17320   */\n      add\n        /* \"#utility.yul\":17296:17343   */\n      mstore\n        /* \"#utility.yul\":17360:17491   */\n      tag_475\n        /* \"#utility.yul\":17486:17490   */\n      dup2\n        /* \"#utility.yul\":17360:17491   */\n      tag_307\n      jump\t// in\n    tag_475:\n        /* \"#utility.yul\":17352:17491   */\n      swap1\n      pop\n        /* \"#utility.yul\":17079:17498   */\n      swap2\n      swap1\n      pop\n      jump\t// out\n        /* \"#utility.yul\":17504:17684   */\n    tag_245:\n        /* \"#utility.yul\":17552:17629   */\n      0x4e487b7100000000000000000000000000000000000000000000000000000000\n        /* \"#utility.yul\":17549:17550   */\n      0x00\n        /* \"#utility.yul\":17542:17630   */\n      mstore\n        /* \"#utility.yul\":17649:17653   */\n      0x32\n        /* \"#utility.yul\":17646:17647   */\n      0x04\n        /* \"#utility.yul\":17639:17654   */\n      mstore\n        /* \"#utility.yul\":17673:17677   */\n      0x24\n        /* \"#utility.yul\":17670:17671   */\n      0x00\n        /* \"#utility.yul\":17663:17678   */\n      revert\n        /* \"#utility.yul\":17690:17860   */\n    tag_308:\n        /* \"#utility.yul\":17830:17852   */\n      0x5061757361626c653a206e6f7420706175736564000000000000000000000000\n        /* \"#utility.yul\":17826:17827   */\n      0x00\n        /* \"#utility.yul\":17818:17824   */\n      dup3\n        /* \"#utility.yul\":17814:17828   */\n      add\n        /* \"#utility.yul\":17807:17853   */\n      mstore\n        /* \"#utility.yul\":17690:17860   */\n      pop\n      jump\t// out\n        /* \"#utility.yul\":17866:18232   */\n    tag_309:\n        /* \"#utility.yul\":18008:18011   */\n      0x00\n        /* \"#utility.yul\":18029:18096   */\n      tag_479\n        /* \"#utility.yul\":18093:18095   */\n      0x14\n        /* \"#utility.yul\":18088:18091   */\n      dup4\n        /* \"#utility.yul\":18029:18096   */\n      tag_281\n      jump\t// in\n    tag_479:\n        /* \"#utility.yul\":18022:18096   */\n      swap2\n      pop\n        /* \"#utility.yul\":18105:18198   */\n      tag_480\n        /* \"#utility.yul\":18194:18197   */\n      dup3\n        /* \"#utility.yul\":18105:18198   */\n      tag_308\n      jump\t// in\n    tag_480:\n        /* \"#utility.yul\":18223:18225   */\n      0x20\n        /* \"#utility.yul\":18218:18221   */\n      dup3\n        /* \"#utility.yul\":18214:18226   */\n      add\n        /* \"#utility.yul\":18207:18226   */\n      swap1\n      pop\n        /* \"#utility.yul\":17866:18232   */\n      swap2\n      swap1\n      pop\n      jump\t// out\n        /* \"#utility.yul\":18238:18657   */\n    tag_251:\n        /* \"#utility.yul\":18404:18408   */\n      0x00\n        /* \"#utility.yul\":18442:18444   */\n      0x20\n        /* \"#utility.yul\":18431:18440   */\n      dup3\n        /* \"#utility.yul\":18427:18445   */\n      add\n        /* \"#utility.yul\":18419:18445   */\n      swap1\n      pop\n        /* \"#utility.yul\":18491:18500   */\n      dup2\n        /* \"#utility.yul\":18485:18489   */\n      dup2\n        /* \"#utility.yul\":18481:18501   */\n      sub\n        /* \"#utility.yul\":18477:18478   */\n      0x00\n        /* \"#utility.yul\":18466:18475   */\n      dup4\n        /* \"#utility.yul\":18462:18479   */\n      add\n        /* \"#utility.yul\":18455:18502   */\n      mstore\n        /* \"#utility.yul\":18519:18650   */\n      tag_482\n        /* \"#utility.yul\":18645:18649   */\n      dup2\n        /* \"#utility.yul\":18519:18650   */\n      tag_309\n      jump\t// in\n    tag_482:\n        /* \"#utility.yul\":18511:18650   */\n      swap1\n      pop\n        /* \"#utility.yul\":18238:18657   */\n      swap2\n      swap1\n      pop\n      jump\t// out\n\n    auxdata: 0xa26469706673582212201768ab8756a032afe2d5ce8dd40b5398ab44069eecd4c94255484e0715cfd64a64736f6c634300081a0033\n}\n",
				"bytecode": {
					"linkReferences": {},
					"object": "608060405234801561000f575f80fd5b50604051611efc380380611efc833981810160405281019061003191906104c1565b335f805f6101000a81548160ff0219169083151502179055505f73ffffffffffffffffffffffffffffffffffffffff168173ffffffffffffffffffffffffffffffffffffffff16036100ba575f6040517f1e4fbdf70000000000000000000000000000000000000000000000000000000081526004016100b1919061050e565b60405180910390fd5b6100c98161015960201b60201c565b50600180819055508060045f6101000a81548173ffffffffffffffffffffffffffffffffffffffff021916908373ffffffffffffffffffffffffffffffffffffffff16021790555062093a806006819055505f600460146101000a81548160ff0219169083151502179055506101448261021c60201b60201c565b6101526102ac60201b60201c565b505061059f565b5f8060019054906101000a900473ffffffffffffffffffffffffffffffffffffffff169050815f60016101000a81548173ffffffffffffffffffffffffffffffffffffffff021916908373ffffffffffffffffffffffffffffffffffffffff1602179055508173ffffffffffffffffffffffffffffffffffffffff168173ffffffffffffffffffffffffffffffffffffffff167f8be0079c531659141344cd1fd0a4f28419497f9722a3daafe3b4186f6b6457e060405160405180910390a35050565b61022a6102ca60201b60201c565b5f73ffffffffffffffffffffffffffffffffffffffff168173ffffffffffffffffffffffffffffffffffffffff160361029a575f6040517f1e4fbdf7000000000000000000000000000000000000000000000000000000008152600401610291919061050e565b60405180910390fd5b6102a98161015960201b60201c565b50565b6102ba6102ca60201b60201c565b6102c861036360201b60201c565b565b6102d86103d060201b60201c565b73ffffffffffffffffffffffffffffffffffffffff166102fc6103d760201b60201c565b73ffffffffffffffffffffffffffffffffffffffff1614610361576103256103d060201b60201c565b6040517f118cdaa7000000000000000000000000000000000000000000000000000000008152600401610358919061050e565b60405180910390fd5b565b6103716103ff60201b60201c565b60015f806101000a81548160ff0219169083151502179055507f62e78cea01bee320cd4e420270b5ea74000d11b0c9f74754ebdbfc544b05a2586103b96103d060201b60201c565b6040516103c6919061050e565b60405180910390a1565b5f33905090565b5f8060019054906101000a900473ffffffffffffffffffffffffffffffffffffffff16905090565b61040d61044f60201b60201c565b1561044d576040517f08c379a000000000000000000000000000000000000000000000000000000000815260040161044490610581565b60405180910390fd5b565b5f805f9054906101000a900460ff16905090565b5f80fd5b5f73ffffffffffffffffffffffffffffffffffffffff82169050919050565b5f61049082610467565b9050919050565b6104a081610486565b81146104aa575f80fd5b50565b5f815190506104bb81610497565b92915050565b5f80604083850312156104d7576104d6610463565b5b5f6104e4858286016104ad565b92505060206104f5858286016104ad565b9150509250929050565b61050881610486565b82525050565b5f6020820190506105215f8301846104ff565b92915050565b5f82825260208201905092915050565b7f5061757361626c653a20706175736564000000000000000000000000000000005f82015250565b5f61056b601083610527565b915061057682610537565b602082019050919050565b5f6020820190508181035f8301526105988161055f565b9050919050565b611950806105ac5f395ff3fe608060405234801561000f575f80fd5b5060043610610140575f3560e01c80637cb64759116100b6578063b6cd5d1a1161007a578063b6cd5d1a146102de578063c27f7e26146102e8578063c884ef8314610306578063de805da714610336578063f2fde38b14610340578063fc0c546a1461035c57610140565b80637cb647591461024c5780637cc6cb7a146102685780638456cb59146102865780638da5cb5b14610290578063a0074c67146102ae57610140565b8063490395271161010857806349039527146101c25780635c975abb146101e05780635e4f3a9c146101fe5780636038efad1461020857806361d027b314610224578063715018a61461024257610140565b8063144fa6d7146101445780632eb4a7ab146101605780632f52ebb71461017e5780633f4ba83a1461019a578063428e7565146101a4575b5f80fd5b61015e600480360381019061015991906110c9565b61037a565b005b610168610433565b604051610175919061110c565b60405180910390f35b610198600480360381019061019391906111b9565b610439565b005b6101a26108c3565b005b6101ac6108d5565b6040516101b99190611225565b60405180910390f35b6101ca6108db565b6040516101d79190611225565b60405180910390f35b6101e86108e1565b6040516101f59190611258565b60405180910390f35b6102066108f5565b005b610222600480360381019061021d9190611271565b610920565b005b61022c610932565b60405161023991906112ab565b60405180910390f35b61024a610957565b005b610266600480360381019061026191906112ee565b61096a565b005b61027061097c565b60405161027d9190611258565b60405180910390f35b61028e61098f565b005b6102986109a1565b6040516102a591906112ab565b60405180910390f35b6102c860048036038101906102c39190611319565b6109c9565b6040516102d59190611258565b60405180910390f35b6102e6610a4e565b005b6102f0610a7a565b6040516102fd9190611258565b60405180910390f35b610320600480360381019061031b91906110c9565b610ab9565b60405161032d9190611258565b60405180910390f35b61033e610ad6565b005b61035a600480360381019061035591906110c9565b610c1f565b005b610364610ca3565b60405161037191906112ab565b60405180910390f35b610382610cc8565b5f73ffffffffffffffffffffffffffffffffffffffff168173ffffffffffffffffffffffffffffffffffffffff16036103f0576040517f08c379a00000000000000000000000000000000000000000000000000000000081526004016103e7906113e4565b60405180910390fd5b8060035f6101000a81548173ffffffffffffffffffffffffffffffffffffffff021916908373ffffffffffffffffffffffffffffffffffffffff16021790555050565b60025481565b610441610d4f565b610449610d99565b600460149054906101000a900460ff16801561048257506005544210158015610481575060065460055461047d919061142f565b4211155b5b6104c1576040517f08c379a00000000000000000000000000000000000000000000000000000000081526004016104b8906114ac565b60405180910390fd5b60075f3373ffffffffffffffffffffffffffffffffffffffff1673ffffffffffffffffffffffffffffffffffffffff1681526020019081526020015f205f9054906101000a900460ff161561054b576040517f08c379a000000000000000000000000000000000000000000000000000000000815260040161054290611514565b60405180910390fd5b5f338460405160200161055f929190611597565b6040516020818303038152906040528051906020012090506105c48383808060200260200160405190810160405280939291908181526020018383602002808284375f81840152601f19601f8201169050808301925050505050505060025483610de8565b610603576040517f08c379a00000000000000000000000000000000000000000000000000000000081526004016105fa9061160c565b60405180910390fd5b5f73ffffffffffffffffffffffffffffffffffffffff1660035f9054906101000a900473ffffffffffffffffffffffffffffffffffffffff1673ffffffffffffffffffffffffffffffffffffffff1603610692576040517f08c379a000000000000000000000000000000000000000000000000000000000815260040161068990611674565b60405180910390fd5b8360035f9054906101000a900473ffffffffffffffffffffffffffffffffffffffff1673ffffffffffffffffffffffffffffffffffffffff166370a08231306040518263ffffffff1660e01b81526004016106ed91906112ab565b602060405180830381865afa158015610708573d5f803e3d5ffd5b505050506040513d601f19601f8201168201806040525081019061072c91906116a6565b1161076c576040517f08c379a00000000000000000000000000000000000000000000000000000000081526004016107639061171b565b60405180910390fd5b5f8411156108125760035f9054906101000a900473ffffffffffffffffffffffffffffffffffffffff1673ffffffffffffffffffffffffffffffffffffffff1663a9059cbb33866040518363ffffffff1660e01b81526004016107d0929190611739565b6020604051808303815f875af11580156107ec573d5f803e3d5ffd5b505050506040513d601f19601f82011682018060405250810190610810919061178a565b505b600160075f3373ffffffffffffffffffffffffffffffffffffffff1673ffffffffffffffffffffffffffffffffffffffff1681526020019081526020015f205f6101000a81548160ff0219169083151502179055503373ffffffffffffffffffffffffffffffffffffffff167fd8138f8a3f377c5259ca548e70e4c2de94f129f5a11036a15b69513cba2b426a856040516108ad9190611225565b60405180910390a2506108be610dfe565b505050565b6108cb610cc8565b6108d3610e07565b565b60055481565b60065481565b5f805f9054906101000a900460ff16905090565b6108fd610cc8565b5f600460146101000a81548160ff0219169083151502179055505f600581905550565b610928610cc8565b8060068190555050565b60045f9054906101000a900473ffffffffffffffffffffffffffffffffffffffff1681565b61095f610cc8565b6109685f610e67565b565b610972610cc8565b8060028190555050565b600460149054906101000a900460ff1681565b610997610cc8565b61099f610f2a565b565b5f8060019054906101000a900473ffffffffffffffffffffffffffffffffffffffff16905090565b5f8085856040516020016109de929190611597565b604051602081830303815290604052805190602001209050610a438484808060200260200160405190810160405280939291908181526020018383602002808284375f81840152601f19601f8201169050808301925050505050505060025483610de8565b915050949350505050565b610a56610cc8565b6001600460146101000a81548160ff02191690831515021790555042600581905550565b5f600460149054906101000a900460ff168015610aa6575042600654600554610aa3919061142f565b10155b8015610ab457506005544210155b905090565b6007602052805f5260405f205f915054906101000a900460ff1681565b610ade610cc8565b5f60035f9054906101000a900473ffffffffffffffffffffffffffffffffffffffff1690505f8173ffffffffffffffffffffffffffffffffffffffff166370a08231306040518263ffffffff1660e01b8152600401610b3d91906112ab565b602060405180830381865afa158015610b58573d5f803e3d5ffd5b505050506040513d601f19601f82011682018060405250810190610b7c91906116a6565b90508173ffffffffffffffffffffffffffffffffffffffff1663a9059cbb60045f9054906101000a900473ffffffffffffffffffffffffffffffffffffffff16836040518363ffffffff1660e01b8152600401610bda929190611739565b6020604051808303815f875af1158015610bf6573d5f803e3d5ffd5b505050506040513d601f19601f82011682018060405250810190610c1a919061178a565b505050565b610c27610cc8565b5f73ffffffffffffffffffffffffffffffffffffffff168173ffffffffffffffffffffffffffffffffffffffff1603610c97575f6040517f1e4fbdf7000000000000000000000000000000000000000000000000000000008152600401610c8e91906112ab565b60405180910390fd5b610ca081610e67565b50565b60035f9054906101000a900473ffffffffffffffffffffffffffffffffffffffff1681565b610cd0610f8b565b73ffffffffffffffffffffffffffffffffffffffff16610cee6109a1565b73ffffffffffffffffffffffffffffffffffffffff1614610d4d57610d11610f8b565b6040517f118cdaa7000000000000000000000000000000000000000000000000000000008152600401610d4491906112ab565b60405180910390fd5b565b610d576108e1565b15610d97576040517f08c379a0000000000000000000000000000000000000000000000000000000008152600401610d8e906117ff565b60405180910390fd5b565b600260015403610dde576040517f08c379a0000000000000000000000000000000000000000000000000000000008152600401610dd590611867565b60405180910390fd5b6002600181905550565b5f82610df48584610f92565b1490509392505050565b60018081905550565b610e0f610fe0565b5f805f6101000a81548160ff0219169083151502179055507f5db9ee0a495bf2e6ff9c91a7834c1ba4fdd244a5e8aa4e537bd38aeae4b073aa610e50610f8b565b604051610e5d91906112ab565b60405180910390a1565b5f8060019054906101000a900473ffffffffffffffffffffffffffffffffffffffff169050815f60016101000a81548173ffffffffffffffffffffffffffffffffffffffff021916908373ffffffffffffffffffffffffffffffffffffffff1602179055508173ffffffffffffffffffffffffffffffffffffffff168173ffffffffffffffffffffffffffffffffffffffff167f8be0079c531659141344cd1fd0a4f28419497f9722a3daafe3b4186f6b6457e060405160405180910390a35050565b610f32610d4f565b60015f806101000a81548160ff0219169083151502179055507f62e78cea01bee320cd4e420270b5ea74000d11b0c9f74754ebdbfc544b05a258610f74610f8b565b604051610f8191906112ab565b60405180910390a1565b5f33905090565b5f808290505f5b8451811015610fd557610fc682868381518110610fb957610fb8611885565b5b6020026020010151611029565b91508080600101915050610f99565b508091505092915050565b610fe86108e1565b611027576040517f08c379a000000000000000000000000000000000000000000000000000000000815260040161101e906118fc565b60405180910390fd5b565b5f8183106110405761103b8284611053565b61104b565b61104a8383611053565b5b905092915050565b5f825f528160205260405f20905092915050565b5f80fd5b5f80fd5b5f73ffffffffffffffffffffffffffffffffffffffff82169050919050565b5f6110988261106f565b9050919050565b6110a88161108e565b81146110b2575f80fd5b50565b5f813590506110c38161109f565b92915050565b5f602082840312156110de576110dd611067565b5b5f6110eb848285016110b5565b91505092915050565b5f819050919050565b611106816110f4565b82525050565b5f60208201905061111f5f8301846110fd565b92915050565b5f819050919050565b61113781611125565b8114611141575f80fd5b50565b5f813590506111528161112e565b92915050565b5f80fd5b5f80fd5b5f80fd5b5f8083601f84011261117957611178611158565b5b8235905067ffffffffffffffff8111156111965761119561115c565b5b6020830191508360208202830111156111b2576111b1611160565b5b9250929050565b5f805f604084860312156111d0576111cf611067565b5b5f6111dd86828701611144565b935050602084013567ffffffffffffffff8111156111fe576111fd61106b565b5b61120a86828701611164565b92509250509250925092565b61121f81611125565b82525050565b5f6020820190506112385f830184611216565b92915050565b5f8115159050919050565b6112528161123e565b82525050565b5f60208201905061126b5f830184611249565b92915050565b5f6020828403121561128657611285611067565b5b5f61129384828501611144565b91505092915050565b6112a58161108e565b82525050565b5f6020820190506112be5f83018461129c565b92915050565b6112cd816110f4565b81146112d7575f80fd5b50565b5f813590506112e8816112c4565b92915050565b5f6020828403121561130357611302611067565b5b5f611310848285016112da565b91505092915050565b5f805f806060858703121561133157611330611067565b5b5f61133e878288016110b5565b945050602061134f87828801611144565b935050604085013567ffffffffffffffff8111156113705761136f61106b565b5b61137c87828801611164565b925092505092959194509250565b5f82825260208201905092915050565b7f546f6b656e2073686f756c646e2774206265207a65726f0000000000000000005f82015250565b5f6113ce60178361138a565b91506113d98261139a565b602082019050919050565b5f6020820190508181035f8301526113fb816113c2565b9050919050565b7f4e487b71000000000000000000000000000000000000000000000000000000005f52601160045260245ffd5b5f61143982611125565b915061144483611125565b925082820190508082111561145c5761145b611402565b5b92915050565b7f4974206973206e6f20706572696f6420746f20636c61696d21000000000000005f82015250565b5f61149660198361138a565b91506114a182611462565b602082019050919050565b5f6020820190508181035f8301526114c38161148a565b9050919050565b7f416c726561647920636c61696d656400000000000000000000000000000000005f82015250565b5f6114fe600f8361138a565b9150611509826114ca565b602082019050919050565b5f6020820190508181035f83015261152b816114f2565b9050919050565b5f8160601b9050919050565b5f61154882611532565b9050919050565b5f6115598261153e565b9050919050565b61157161156c8261108e565b61154f565b82525050565b5f819050919050565b61159161158c82611125565b611577565b82525050565b5f6115a28285611560565b6014820191506115b28284611580565b6020820191508190509392505050565b7f496e76616c69642070726f6f66000000000000000000000000000000000000005f82015250565b5f6115f6600d8361138a565b9150611601826115c2565b602082019050919050565b5f6020820190508181035f830152611623816115ea565b9050919050565b7f546f6b656e20616464726573732073686f756c646e2774206265207a65726f215f82015250565b5f61165e60208361138a565b91506116698261162a565b602082019050919050565b5f6020820190508181035f83015261168b81611652565b9050919050565b5f815190506116a08161112e565b92915050565b5f602082840312156116bb576116ba611067565b5b5f6116c884828501611692565b91505092915050565b7f496e73756666696369656e742042616c616e63652100000000000000000000005f82015250565b5f61170560158361138a565b9150611710826116d1565b602082019050919050565b5f6020820190508181035f830152611732816116f9565b9050919050565b5f60408201905061174c5f83018561129c565b6117596020830184611216565b9392505050565b6117698161123e565b8114611773575f80fd5b50565b5f8151905061178481611760565b92915050565b5f6020828403121561179f5761179e611067565b5b5f6117ac84828501611776565b91505092915050565b7f5061757361626c653a20706175736564000000000000000000000000000000005f82015250565b5f6117e960108361138a565b91506117f4826117b5565b602082019050919050565b5f6020820190508181035f830152611816816117dd565b9050919050565b7f5265656e7472616e637947756172643a207265656e7472616e742063616c6c005f82015250565b5f611851601f8361138a565b915061185c8261181d565b602082019050919050565b5f6020820190508181035f83015261187e81611845565b9050919050565b7f4e487b71000000000000000000000000000000000000000000000000000000005f52603260045260245ffd5b7f5061757361626c653a206e6f74207061757365640000000000000000000000005f82015250565b5f6118e660148361138a565b91506118f1826118b2565b602082019050919050565b5f6020820190508181035f830152611913816118da565b905091905056fea26469706673582212201768ab8756a032afe2d5ce8dd40b5398ab44069eecd4c94255484e0715cfd64a64736f6c634300081a0033",
					"opcodes": "PUSH1 0x80 PUSH1 0x40 MSTORE CALLVALUE DUP1 ISZERO PUSH2 0xF JUMPI PUSH0 DUP1 REVERT JUMPDEST POP PUSH1 0x40 MLOAD PUSH2 0x1EFC CODESIZE SUB DUP1 PUSH2 0x1EFC DUP4 CODECOPY DUP2 DUP2 ADD PUSH1 0x40 MSTORE DUP2 ADD SWAP1 PUSH2 0x31 SWAP2 SWAP1 PUSH2 0x4C1 JUMP JUMPDEST CALLER PUSH0 DUP1 PUSH0 PUSH2 0x100 EXP DUP2 SLOAD DUP2 PUSH1 0xFF MUL NOT AND SWAP1 DUP4 ISZERO ISZERO MUL OR SWAP1 SSTORE POP PUSH0 PUSH20 0xFFFFFFFFFFFFFFFFFFFFFFFFFFFFFFFFFFFFFFFF AND DUP2 PUSH20 0xFFFFFFFFFFFFFFFFFFFFFFFFFFFFFFFFFFFFFFFF AND SUB PUSH2 0xBA JUMPI PUSH0 PUSH1 0x40 MLOAD PUSH32 0x1E4FBDF700000000000000000000000000000000000000000000000000000000 DUP2 MSTORE PUSH1 0x4 ADD PUSH2 0xB1 SWAP2 SWAP1 PUSH2 0x50E JUMP JUMPDEST PUSH1 0x40 MLOAD DUP1 SWAP2 SUB SWAP1 REVERT JUMPDEST PUSH2 0xC9 DUP2 PUSH2 0x159 PUSH1 0x20 SHL PUSH1 0x20 SHR JUMP JUMPDEST POP PUSH1 0x1 DUP1 DUP2 SWAP1 SSTORE POP DUP1 PUSH1 0x4 PUSH0 PUSH2 0x100 EXP DUP2 SLOAD DUP2 PUSH20 0xFFFFFFFFFFFFFFFFFFFFFFFFFFFFFFFFFFFFFFFF MUL NOT AND SWAP1 DUP4 PUSH20 0xFFFFFFFFFFFFFFFFFFFFFFFFFFFFFFFFFFFFFFFF AND MUL OR SWAP1 SSTORE POP PUSH3 0x93A80 PUSH1 0x6 DUP2 SWAP1 SSTORE POP PUSH0 PUSH1 0x4 PUSH1 0x14 PUSH2 0x100 EXP DUP2 SLOAD DUP2 PUSH1 0xFF MUL NOT AND SWAP1 DUP4 ISZERO ISZERO MUL OR SWAP1 SSTORE POP PUSH2 0x144 DUP3 PUSH2 0x21C PUSH1 0x20 SHL PUSH1 0x20 SHR JUMP JUMPDEST PUSH2 0x152 PUSH2 0x2AC PUSH1 0x20 SHL PUSH1 0x20 SHR JUMP JUMPDEST POP POP PUSH2 0x59F JUMP JUMPDEST PUSH0 DUP1 PUSH1 0x1 SWAP1 SLOAD SWAP1 PUSH2 0x100 EXP SWAP1 DIV PUSH20 0xFFFFFFFFFFFFFFFFFFFFFFFFFFFFFFFFFFFFFFFF AND SWAP1 POP DUP2 PUSH0 PUSH1 0x1 PUSH2 0x100 EXP DUP2 SLOAD DUP2 PUSH20 0xFFFFFFFFFFFFFFFFFFFFFFFFFFFFFFFFFFFFFFFF MUL NOT AND SWAP1 DUP4 PUSH20 0xFFFFFFFFFFFFFFFFFFFFFFFFFFFFFFFFFFFFFFFF AND MUL OR SWAP1 SSTORE POP DUP2 PUSH20 0xFFFFFFFFFFFFFFFFFFFFFFFFFFFFFFFFFFFFFFFF AND DUP2 PUSH20 0xFFFFFFFFFFFFFFFFFFFFFFFFFFFFFFFFFFFFFFFF AND PUSH32 0x8BE0079C531659141344CD1FD0A4F28419497F9722A3DAAFE3B4186F6B6457E0 PUSH1 0x40 MLOAD PUSH1 0x40 MLOAD DUP1 SWAP2 SUB SWAP1 LOG3 POP POP JUMP JUMPDEST PUSH2 0x22A PUSH2 0x2CA PUSH1 0x20 SHL PUSH1 0x20 SHR JUMP JUMPDEST PUSH0 PUSH20 0xFFFFFFFFFFFFFFFFFFFFFFFFFFFFFFFFFFFFFFFF AND DUP2 PUSH20 0xFFFFFFFFFFFFFFFFFFFFFFFFFFFFFFFFFFFFFFFF AND SUB PUSH2 0x29A JUMPI PUSH0 PUSH1 0x40 MLOAD PUSH32 0x1E4FBDF700000000000000000000000000000000000000000000000000000000 DUP2 MSTORE PUSH1 0x4 ADD PUSH2 0x291 SWAP2 SWAP1 PUSH2 0x50E JUMP JUMPDEST PUSH1 0x40 MLOAD DUP1 SWAP2 SUB SWAP1 REVERT JUMPDEST PUSH2 0x2A9 DUP2 PUSH2 0x159 PUSH1 0x20 SHL PUSH1 0x20 SHR JUMP JUMPDEST POP JUMP JUMPDEST PUSH2 0x2BA PUSH2 0x2CA PUSH1 0x20 SHL PUSH1 0x20 SHR JUMP JUMPDEST PUSH2 0x2C8 PUSH2 0x363 PUSH1 0x20 SHL PUSH1 0x20 SHR JUMP JUMPDEST JUMP JUMPDEST PUSH2 0x2D8 PUSH2 0x3D0 PUSH1 0x20 SHL PUSH1 0x20 SHR JUMP JUMPDEST PUSH20 0xFFFFFFFFFFFFFFFFFFFFFFFFFFFFFFFFFFFFFFFF AND PUSH2 0x2FC PUSH2 0x3D7 PUSH1 0x20 SHL PUSH1 0x20 SHR JUMP JUMPDEST PUSH20 0xFFFFFFFFFFFFFFFFFFFFFFFFFFFFFFFFFFFFFFFF AND EQ PUSH2 0x361 JUMPI PUSH2 0x325 PUSH2 0x3D0 PUSH1 0x20 SHL PUSH1 0x20 SHR JUMP JUMPDEST PUSH1 0x40 MLOAD PUSH32 0x118CDAA700000000000000000000000000000000000000000000000000000000 DUP2 MSTORE PUSH1 0x4 ADD PUSH2 0x358 SWAP2 SWAP1 PUSH2 0x50E JUMP JUMPDEST PUSH1 0x40 MLOAD DUP1 SWAP2 SUB SWAP1 REVERT JUMPDEST JUMP JUMPDEST PUSH2 0x371 PUSH2 0x3FF PUSH1 0x20 SHL PUSH1 0x20 SHR JUMP JUMPDEST PUSH1 0x1 PUSH0 DUP1 PUSH2 0x100 EXP DUP2 SLOAD DUP2 PUSH1 0xFF MUL NOT AND SWAP1 DUP4 ISZERO ISZERO MUL OR SWAP1 SSTORE POP PUSH32 0x62E78CEA01BEE320CD4E420270B5EA74000D11B0C9F74754EBDBFC544B05A258 PUSH2 0x3B9 PUSH2 0x3D0 PUSH1 0x20 SHL PUSH1 0x20 SHR JUMP JUMPDEST PUSH1 0x40 MLOAD PUSH2 0x3C6 SWAP2 SWAP1 PUSH2 0x50E JUMP JUMPDEST PUSH1 0x40 MLOAD DUP1 SWAP2 SUB SWAP1 LOG1 JUMP JUMPDEST PUSH0 CALLER SWAP1 POP SWAP1 JUMP JUMPDEST PUSH0 DUP1 PUSH1 0x1 SWAP1 SLOAD SWAP1 PUSH2 0x100 EXP SWAP1 DIV PUSH20 0xFFFFFFFFFFFFFFFFFFFFFFFFFFFFFFFFFFFFFFFF AND SWAP1 POP SWAP1 JUMP JUMPDEST PUSH2 0x40D PUSH2 0x44F PUSH1 0x20 SHL PUSH1 0x20 SHR JUMP JUMPDEST ISZERO PUSH2 0x44D JUMPI PUSH1 0x40 MLOAD PUSH32 0x8C379A000000000000000000000000000000000000000000000000000000000 DUP2 MSTORE PUSH1 0x4 ADD PUSH2 0x444 SWAP1 PUSH2 0x581 JUMP JUMPDEST PUSH1 0x40 MLOAD DUP1 SWAP2 SUB SWAP1 REVERT JUMPDEST JUMP JUMPDEST PUSH0 DUP1 PUSH0 SWAP1 SLOAD SWAP1 PUSH2 0x100 EXP SWAP1 DIV PUSH1 0xFF AND SWAP1 POP SWAP1 JUMP JUMPDEST PUSH0 DUP1 REVERT JUMPDEST PUSH0 PUSH20 0xFFFFFFFFFFFFFFFFFFFFFFFFFFFFFFFFFFFFFFFF DUP3 AND SWAP1 POP SWAP2 SWAP1 POP JUMP JUMPDEST PUSH0 PUSH2 0x490 DUP3 PUSH2 0x467 JUMP JUMPDEST SWAP1 POP SWAP2 SWAP1 POP JUMP JUMPDEST PUSH2 0x4A0 DUP2 PUSH2 0x486 JUMP JUMPDEST DUP2 EQ PUSH2 0x4AA JUMPI PUSH0 DUP1 REVERT JUMPDEST POP JUMP JUMPDEST PUSH0 DUP2 MLOAD SWAP1 POP PUSH2 0x4BB DUP2 PUSH2 0x497 JUMP JUMPDEST SWAP3 SWAP2 POP POP JUMP JUMPDEST PUSH0 DUP1 PUSH1 0x40 DUP4 DUP6 SUB SLT ISZERO PUSH2 0x4D7 JUMPI PUSH2 0x4D6 PUSH2 0x463 JUMP JUMPDEST JUMPDEST PUSH0 PUSH2 0x4E4 DUP6 DUP3 DUP7 ADD PUSH2 0x4AD JUMP JUMPDEST SWAP3 POP POP PUSH1 0x20 PUSH2 0x4F5 DUP6 DUP3 DUP7 ADD PUSH2 0x4AD JUMP JUMPDEST SWAP2 POP POP SWAP3 POP SWAP3 SWAP1 POP JUMP JUMPDEST PUSH2 0x508 DUP2 PUSH2 0x486 JUMP JUMPDEST DUP3 MSTORE POP POP JUMP JUMPDEST PUSH0 PUSH1 0x20 DUP3 ADD SWAP1 POP PUSH2 0x521 PUSH0 DUP4 ADD DUP5 PUSH2 0x4FF JUMP JUMPDEST SWAP3 SWAP2 POP POP JUMP JUMPDEST PUSH0 DUP3 DUP3 MSTORE PUSH1 0x20 DUP3 ADD SWAP1 POP SWAP3 SWAP2 POP POP JUMP JUMPDEST PUSH32 0x5061757361626C653A2070617573656400000000000000000000000000000000 PUSH0 DUP3 ADD MSTORE POP JUMP JUMPDEST PUSH0 PUSH2 0x56B PUSH1 0x10 DUP4 PUSH2 0x527 JUMP JUMPDEST SWAP2 POP PUSH2 0x576 DUP3 PUSH2 0x537 JUMP JUMPDEST PUSH1 0x20 DUP3 ADD SWAP1 POP SWAP2 SWAP1 POP JUMP JUMPDEST PUSH0 PUSH1 0x20 DUP3 ADD SWAP1 POP DUP2 DUP2 SUB PUSH0 DUP4 ADD MSTORE PUSH2 0x598 DUP2 PUSH2 0x55F JUMP JUMPDEST SWAP1 POP SWAP2 SWAP1 POP JUMP JUMPDEST PUSH2 0x1950 DUP1 PUSH2 0x5AC PUSH0 CODECOPY PUSH0 RETURN INVALID PUSH1 0x80 PUSH1 0x40 MSTORE CALLVALUE DUP1 ISZERO PUSH2 0xF JUMPI PUSH0 DUP1 REVERT JUMPDEST POP PUSH1 0x4 CALLDATASIZE LT PUSH2 0x140 JUMPI PUSH0 CALLDATALOAD PUSH1 0xE0 SHR DUP1 PUSH4 0x7CB64759 GT PUSH2 0xB6 JUMPI DUP1 PUSH4 0xB6CD5D1A GT PUSH2 0x7A JUMPI DUP1 PUSH4 0xB6CD5D1A EQ PUSH2 0x2DE JUMPI DUP1 PUSH4 0xC27F7E26 EQ PUSH2 0x2E8 JUMPI DUP1 PUSH4 0xC884EF83 EQ PUSH2 0x306 JUMPI DUP1 PUSH4 0xDE805DA7 EQ PUSH2 0x336 JUMPI DUP1 PUSH4 0xF2FDE38B EQ PUSH2 0x340 JUMPI DUP1 PUSH4 0xFC0C546A EQ PUSH2 0x35C JUMPI PUSH2 0x140 JUMP JUMPDEST DUP1 PUSH4 0x7CB64759 EQ PUSH2 0x24C JUMPI DUP1 PUSH4 0x7CC6CB7A EQ PUSH2 0x268 JUMPI DUP1 PUSH4 0x8456CB59 EQ PUSH2 0x286 JUMPI DUP1 PUSH4 0x8DA5CB5B EQ PUSH2 0x290 JUMPI DUP1 PUSH4 0xA0074C67 EQ PUSH2 0x2AE JUMPI PUSH2 0x140 JUMP JUMPDEST DUP1 PUSH4 0x49039527 GT PUSH2 0x108 JUMPI DUP1 PUSH4 0x49039527 EQ PUSH2 0x1C2 JUMPI DUP1 PUSH4 0x5C975ABB EQ PUSH2 0x1E0 JUMPI DUP1 PUSH4 0x5E4F3A9C EQ PUSH2 0x1FE JUMPI DUP1 PUSH4 0x6038EFAD EQ PUSH2 0x208 JUMPI DUP1 PUSH4 0x61D027B3 EQ PUSH2 0x224 JUMPI DUP1 PUSH4 0x715018A6 EQ PUSH2 0x242 JUMPI PUSH2 0x140 JUMP JUMPDEST DUP1 PUSH4 0x144FA6D7 EQ PUSH2 0x144 JUMPI DUP1 PUSH4 0x2EB4A7AB EQ PUSH2 0x160 JUMPI DUP1 PUSH4 0x2F52EBB7 EQ PUSH2 0x17E JUMPI DUP1 PUSH4 0x3F4BA83A EQ PUSH2 0x19A JUMPI DUP1 PUSH4 0x428E7565 EQ PUSH2 0x1A4 JUMPI JUMPDEST PUSH0 DUP1 REVERT JUMPDEST PUSH2 0x15E PUSH1 0x4 DUP1 CALLDATASIZE SUB DUP2 ADD SWAP1 PUSH2 0x159 SWAP2 SWAP1 PUSH2 0x10C9 JUMP JUMPDEST PUSH2 0x37A JUMP JUMPDEST STOP JUMPDEST PUSH2 0x168 PUSH2 0x433 JUMP JUMPDEST PUSH1 0x40 MLOAD PUSH2 0x175 SWAP2 SWAP1 PUSH2 0x110C JUMP JUMPDEST PUSH1 0x40 MLOAD DUP1 SWAP2 SUB SWAP1 RETURN JUMPDEST PUSH2 0x198 PUSH1 0x4 DUP1 CALLDATASIZE SUB DUP2 ADD SWAP1 PUSH2 0x193 SWAP2 SWAP1 PUSH2 0x11B9 JUMP JUMPDEST PUSH2 0x439 JUMP JUMPDEST STOP JUMPDEST PUSH2 0x1A2 PUSH2 0x8C3 JUMP JUMPDEST STOP JUMPDEST PUSH2 0x1AC PUSH2 0x8D5 JUMP JUMPDEST PUSH1 0x40 MLOAD PUSH2 0x1B9 SWAP2 SWAP1 PUSH2 0x1225 JUMP JUMPDEST PUSH1 0x40 MLOAD DUP1 SWAP2 SUB SWAP1 RETURN JUMPDEST PUSH2 0x1CA PUSH2 0x8DB JUMP JUMPDEST PUSH1 0x40 MLOAD PUSH2 0x1D7 SWAP2 SWAP1 PUSH2 0x1225 JUMP JUMPDEST PUSH1 0x40 MLOAD DUP1 SWAP2 SUB SWAP1 RETURN JUMPDEST PUSH2 0x1E8 PUSH2 0x8E1 JUMP JUMPDEST PUSH1 0x40 MLOAD PUSH2 0x1F5 SWAP2 SWAP1 PUSH2 0x1258 JUMP JUMPDEST PUSH1 0x40 MLOAD DUP1 SWAP2 SUB SWAP1 RETURN JUMPDEST PUSH2 0x206 PUSH2 0x8F5 JUMP JUMPDEST STOP JUMPDEST PUSH2 0x222 PUSH1 0x4 DUP1 CALLDATASIZE SUB DUP2 ADD SWAP1 PUSH2 0x21D SWAP2 SWAP1 PUSH2 0x1271 JUMP JUMPDEST PUSH2 0x920 JUMP JUMPDEST STOP JUMPDEST PUSH2 0x22C PUSH2 0x932 JUMP JUMPDEST PUSH1 0x40 MLOAD PUSH2 0x239 SWAP2 SWAP1 PUSH2 0x12AB JUMP JUMPDEST PUSH1 0x40 MLOAD DUP1 SWAP2 SUB SWAP1 RETURN JUMPDEST PUSH2 0x24A PUSH2 0x957 JUMP JUMPDEST STOP JUMPDEST PUSH2 0x266 PUSH1 0x4 DUP1 CALLDATASIZE SUB DUP2 ADD SWAP1 PUSH2 0x261 SWAP2 SWAP1 PUSH2 0x12EE JUMP JUMPDEST PUSH2 0x96A JUMP JUMPDEST STOP JUMPDEST PUSH2 0x270 PUSH2 0x97C JUMP JUMPDEST PUSH1 0x40 MLOAD PUSH2 0x27D SWAP2 SWAP1 PUSH2 0x1258 JUMP JUMPDEST PUSH1 0x40 MLOAD DUP1 SWAP2 SUB SWAP1 RETURN JUMPDEST PUSH2 0x28E PUSH2 0x98F JUMP JUMPDEST STOP JUMPDEST PUSH2 0x298 PUSH2 0x9A1 JUMP JUMPDEST PUSH1 0x40 MLOAD PUSH2 0x2A5 SWAP2 SWAP1 PUSH2 0x12AB JUMP JUMPDEST PUSH1 0x40 MLOAD DUP1 SWAP2 SUB SWAP1 RETURN JUMPDEST PUSH2 0x2C8 PUSH1 0x4 DUP1 CALLDATASIZE SUB DUP2 ADD SWAP1 PUSH2 0x2C3 SWAP2 SWAP1 PUSH2 0x1319 JUMP JUMPDEST PUSH2 0x9C9 JUMP JUMPDEST PUSH1 0x40 MLOAD PUSH2 0x2D5 SWAP2 SWAP1 PUSH2 0x1258 JUMP JUMPDEST PUSH1 0x40 MLOAD DUP1 SWAP2 SUB SWAP1 RETURN JUMPDEST PUSH2 0x2E6 PUSH2 0xA4E JUMP JUMPDEST STOP JUMPDEST PUSH2 0x2F0 PUSH2 0xA7A JUMP JUMPDEST PUSH1 0x40 MLOAD PUSH2 0x2FD SWAP2 SWAP1 PUSH2 0x1258 JUMP JUMPDEST PUSH1 0x40 MLOAD DUP1 SWAP2 SUB SWAP1 RETURN JUMPDEST PUSH2 0x320 PUSH1 0x4 DUP1 CALLDATASIZE SUB DUP2 ADD SWAP1 PUSH2 0x31B SWAP2 SWAP1 PUSH2 0x10C9 JUMP JUMPDEST PUSH2 0xAB9 JUMP JUMPDEST PUSH1 0x40 MLOAD PUSH2 0x32D SWAP2 SWAP1 PUSH2 0x1258 JUMP JUMPDEST PUSH1 0x40 MLOAD DUP1 SWAP2 SUB SWAP1 RETURN JUMPDEST PUSH2 0x33E PUSH2 0xAD6 JUMP JUMPDEST STOP JUMPDEST PUSH2 0x35A PUSH1 0x4 DUP1 CALLDATASIZE SUB DUP2 ADD SWAP1 PUSH2 0x355 SWAP2 SWAP1 PUSH2 0x10C9 JUMP JUMPDEST PUSH2 0xC1F JUMP JUMPDEST STOP JUMPDEST PUSH2 0x364 PUSH2 0xCA3 JUMP JUMPDEST PUSH1 0x40 MLOAD PUSH2 0x371 SWAP2 SWAP1 PUSH2 0x12AB JUMP JUMPDEST PUSH1 0x40 MLOAD DUP1 SWAP2 SUB SWAP1 RETURN JUMPDEST PUSH2 0x382 PUSH2 0xCC8 JUMP JUMPDEST PUSH0 PUSH20 0xFFFFFFFFFFFFFFFFFFFFFFFFFFFFFFFFFFFFFFFF AND DUP2 PUSH20 0xFFFFFFFFFFFFFFFFFFFFFFFFFFFFFFFFFFFFFFFF AND SUB PUSH2 0x3F0 JUMPI PUSH1 0x40 MLOAD PUSH32 0x8C379A000000000000000000000000000000000000000000000000000000000 DUP2 MSTORE PUSH1 0x4 ADD PUSH2 0x3E7 SWAP1 PUSH2 0x13E4 JUMP JUMPDEST PUSH1 0x40 MLOAD DUP1 SWAP2 SUB SWAP1 REVERT JUMPDEST DUP1 PUSH1 0x3 PUSH0 PUSH2 0x100 EXP DUP2 SLOAD DUP2 PUSH20 0xFFFFFFFFFFFFFFFFFFFFFFFFFFFFFFFFFFFFFFFF MUL NOT AND SWAP1 DUP4 PUSH20 0xFFFFFFFFFFFFFFFFFFFFFFFFFFFFFFFFFFFFFFFF AND MUL OR SWAP1 SSTORE POP POP JUMP JUMPDEST PUSH1 0x2 SLOAD DUP2 JUMP JUMPDEST PUSH2 0x441 PUSH2 0xD4F JUMP JUMPDEST PUSH2 0x449 PUSH2 0xD99 JUMP JUMPDEST PUSH1 0x4 PUSH1 0x14 SWAP1 SLOAD SWAP1 PUSH2 0x100 EXP SWAP1 DIV PUSH1 0xFF AND DUP1 ISZERO PUSH2 0x482 JUMPI POP PUSH1 0x5 SLOAD TIMESTAMP LT ISZERO DUP1 ISZERO PUSH2 0x481 JUMPI POP PUSH1 0x6 SLOAD PUSH1 0x5 SLOAD PUSH2 0x47D SWAP2 SWAP1 PUSH2 0x142F JUMP JUMPDEST TIMESTAMP GT ISZERO JUMPDEST JUMPDEST PUSH2 0x4C1 JUMPI PUSH1 0x40 MLOAD PUSH32 0x8C379A000000000000000000000000000000000000000000000000000000000 DUP2 MSTORE PUSH1 0x4 ADD PUSH2 0x4B8 SWAP1 PUSH2 0x14AC JUMP JUMPDEST PUSH1 0x40 MLOAD DUP1 SWAP2 SUB SWAP1 REVERT JUMPDEST PUSH1 0x7 PUSH0 CALLER PUSH20 0xFFFFFFFFFFFFFFFFFFFFFFFFFFFFFFFFFFFFFFFF AND PUSH20 0xFFFFFFFFFFFFFFFFFFFFFFFFFFFFFFFFFFFFFFFF AND DUP2 MSTORE PUSH1 0x20 ADD SWAP1 DUP2 MSTORE PUSH1 0x20 ADD PUSH0 KECCAK256 PUSH0 SWAP1 SLOAD SWAP1 PUSH2 0x100 EXP SWAP1 DIV PUSH1 0xFF AND ISZERO PUSH2 0x54B JUMPI PUSH1 0x40 MLOAD PUSH32 0x8C379A000000000000000000000000000000000000000000000000000000000 DUP2 MSTORE PUSH1 0x4 ADD PUSH2 0x542 SWAP1 PUSH2 0x1514 JUMP JUMPDEST PUSH1 0x40 MLOAD DUP1 SWAP2 SUB SWAP1 REVERT JUMPDEST PUSH0 CALLER DUP5 PUSH1 0x40 MLOAD PUSH1 0x20 ADD PUSH2 0x55F SWAP3 SWAP2 SWAP1 PUSH2 0x1597 JUMP JUMPDEST PUSH1 0x40 MLOAD PUSH1 0x20 DUP2 DUP4 SUB SUB DUP2 MSTORE SWAP1 PUSH1 0x40 MSTORE DUP1 MLOAD SWAP1 PUSH1 0x20 ADD KECCAK256 SWAP1 POP PUSH2 0x5C4 DUP4 DUP4 DUP1 DUP1 PUSH1 0x20 MUL PUSH1 0x20 ADD PUSH1 0x40 MLOAD SWAP1 DUP2 ADD PUSH1 0x40 MSTORE DUP1 SWAP4 SWAP3 SWAP2 SWAP1 DUP2 DUP2 MSTORE PUSH1 0x20 ADD DUP4 DUP4 PUSH1 0x20 MUL DUP1 DUP3 DUP5 CALLDATACOPY PUSH0 DUP2 DUP5 ADD MSTORE PUSH1 0x1F NOT PUSH1 0x1F DUP3 ADD AND SWAP1 POP DUP1 DUP4 ADD SWAP3 POP POP POP POP POP POP POP PUSH1 0x2 SLOAD DUP4 PUSH2 0xDE8 JUMP JUMPDEST PUSH2 0x603 JUMPI PUSH1 0x40 MLOAD PUSH32 0x8C379A000000000000000000000000000000000000000000000000000000000 DUP2 MSTORE PUSH1 0x4 ADD PUSH2 0x5FA SWAP1 PUSH2 0x160C JUMP JUMPDEST PUSH1 0x40 MLOAD DUP1 SWAP2 SUB SWAP1 REVERT JUMPDEST PUSH0 PUSH20 0xFFFFFFFFFFFFFFFFFFFFFFFFFFFFFFFFFFFFFFFF AND PUSH1 0x3 PUSH0 SWAP1 SLOAD SWAP1 PUSH2 0x100 EXP SWAP1 DIV PUSH20 0xFFFFFFFFFFFFFFFFFFFFFFFFFFFFFFFFFFFFFFFF AND PUSH20 0xFFFFFFFFFFFFFFFFFFFFFFFFFFFFFFFFFFFFFFFF AND SUB PUSH2 0x692 JUMPI PUSH1 0x40 MLOAD PUSH32 0x8C379A000000000000000000000000000000000000000000000000000000000 DUP2 MSTORE PUSH1 0x4 ADD PUSH2 0x689 SWAP1 PUSH2 0x1674 JUMP JUMPDEST PUSH1 0x40 MLOAD DUP1 SWAP2 SUB SWAP1 REVERT JUMPDEST DUP4 PUSH1 0x3 PUSH0 SWAP1 SLOAD SWAP1 PUSH2 0x100 EXP SWAP1 DIV PUSH20 0xFFFFFFFFFFFFFFFFFFFFFFFFFFFFFFFFFFFFFFFF AND PUSH20 0xFFFFFFFFFFFFFFFFFFFFFFFFFFFFFFFFFFFFFFFF AND PUSH4 0x70A08231 ADDRESS PUSH1 0x40 MLOAD DUP3 PUSH4 0xFFFFFFFF AND PUSH1 0xE0 SHL DUP2 MSTORE PUSH1 0x4 ADD PUSH2 0x6ED SWAP2 SWAP1 PUSH2 0x12AB JUMP JUMPDEST PUSH1 0x20 PUSH1 0x40 MLOAD DUP1 DUP4 SUB DUP2 DUP7 GAS STATICCALL ISZERO DUP1 ISZERO PUSH2 0x708 JUMPI RETURNDATASIZE PUSH0 DUP1 RETURNDATACOPY RETURNDATASIZE PUSH0 REVERT JUMPDEST POP POP POP POP PUSH1 0x40 MLOAD RETURNDATASIZE PUSH1 0x1F NOT PUSH1 0x1F DUP3 ADD AND DUP3 ADD DUP1 PUSH1 0x40 MSTORE POP DUP2 ADD SWAP1 PUSH2 0x72C SWAP2 SWAP1 PUSH2 0x16A6 JUMP JUMPDEST GT PUSH2 0x76C JUMPI PUSH1 0x40 MLOAD PUSH32 0x8C379A000000000000000000000000000000000000000000000000000000000 DUP2 MSTORE PUSH1 0x4 ADD PUSH2 0x763 SWAP1 PUSH2 0x171B JUMP JUMPDEST PUSH1 0x40 MLOAD DUP1 SWAP2 SUB SWAP1 REVERT JUMPDEST PUSH0 DUP5 GT ISZERO PUSH2 0x812 JUMPI PUSH1 0x3 PUSH0 SWAP1 SLOAD SWAP1 PUSH2 0x100 EXP SWAP1 DIV PUSH20 0xFFFFFFFFFFFFFFFFFFFFFFFFFFFFFFFFFFFFFFFF AND PUSH20 0xFFFFFFFFFFFFFFFFFFFFFFFFFFFFFFFFFFFFFFFF AND PUSH4 0xA9059CBB CALLER DUP7 PUSH1 0x40 MLOAD DUP4 PUSH4 0xFFFFFFFF AND PUSH1 0xE0 SHL DUP2 MSTORE PUSH1 0x4 ADD PUSH2 0x7D0 SWAP3 SWAP2 SWAP1 PUSH2 0x1739 JUMP JUMPDEST PUSH1 0x20 PUSH1 0x40 MLOAD DUP1 DUP4 SUB DUP2 PUSH0 DUP8 GAS CALL ISZERO DUP1 ISZERO PUSH2 0x7EC JUMPI RETURNDATASIZE PUSH0 DUP1 RETURNDATACOPY RETURNDATASIZE PUSH0 REVERT JUMPDEST POP POP POP POP PUSH1 0x40 MLOAD RETURNDATASIZE PUSH1 0x1F NOT PUSH1 0x1F DUP3 ADD AND DUP3 ADD DUP1 PUSH1 0x40 MSTORE POP DUP2 ADD SWAP1 PUSH2 0x810 SWAP2 SWAP1 PUSH2 0x178A JUMP JUMPDEST POP JUMPDEST PUSH1 0x1 PUSH1 0x7 PUSH0 CALLER PUSH20 0xFFFFFFFFFFFFFFFFFFFFFFFFFFFFFFFFFFFFFFFF AND PUSH20 0xFFFFFFFFFFFFFFFFFFFFFFFFFFFFFFFFFFFFFFFF AND DUP2 MSTORE PUSH1 0x20 ADD SWAP1 DUP2 MSTORE PUSH1 0x20 ADD PUSH0 KECCAK256 PUSH0 PUSH2 0x100 EXP DUP2 SLOAD DUP2 PUSH1 0xFF MUL NOT AND SWAP1 DUP4 ISZERO ISZERO MUL OR SWAP1 SSTORE POP CALLER PUSH20 0xFFFFFFFFFFFFFFFFFFFFFFFFFFFFFFFFFFFFFFFF AND PUSH32 0xD8138F8A3F377C5259CA548E70E4C2DE94F129F5A11036A15B69513CBA2B426A DUP6 PUSH1 0x40 MLOAD PUSH2 0x8AD SWAP2 SWAP1 PUSH2 0x1225 JUMP JUMPDEST PUSH1 0x40 MLOAD DUP1 SWAP2 SUB SWAP1 LOG2 POP PUSH2 0x8BE PUSH2 0xDFE JUMP JUMPDEST POP POP POP JUMP JUMPDEST PUSH2 0x8CB PUSH2 0xCC8 JUMP JUMPDEST PUSH2 0x8D3 PUSH2 0xE07 JUMP JUMPDEST JUMP JUMPDEST PUSH1 0x5 SLOAD DUP2 JUMP JUMPDEST PUSH1 0x6 SLOAD DUP2 JUMP JUMPDEST PUSH0 DUP1 PUSH0 SWAP1 SLOAD SWAP1 PUSH2 0x100 EXP SWAP1 DIV PUSH1 0xFF AND SWAP1 POP SWAP1 JUMP JUMPDEST PUSH2 0x8FD PUSH2 0xCC8 JUMP JUMPDEST PUSH0 PUSH1 0x4 PUSH1 0x14 PUSH2 0x100 EXP DUP2 SLOAD DUP2 PUSH1 0xFF MUL NOT AND SWAP1 DUP4 ISZERO ISZERO MUL OR SWAP1 SSTORE POP PUSH0 PUSH1 0x5 DUP2 SWAP1 SSTORE POP JUMP JUMPDEST PUSH2 0x928 PUSH2 0xCC8 JUMP JUMPDEST DUP1 PUSH1 0x6 DUP2 SWAP1 SSTORE POP POP JUMP JUMPDEST PUSH1 0x4 PUSH0 SWAP1 SLOAD SWAP1 PUSH2 0x100 EXP SWAP1 DIV PUSH20 0xFFFFFFFFFFFFFFFFFFFFFFFFFFFFFFFFFFFFFFFF AND DUP2 JUMP JUMPDEST PUSH2 0x95F PUSH2 0xCC8 JUMP JUMPDEST PUSH2 0x968 PUSH0 PUSH2 0xE67 JUMP JUMPDEST JUMP JUMPDEST PUSH2 0x972 PUSH2 0xCC8 JUMP JUMPDEST DUP1 PUSH1 0x2 DUP2 SWAP1 SSTORE POP POP JUMP JUMPDEST PUSH1 0x4 PUSH1 0x14 SWAP1 SLOAD SWAP1 PUSH2 0x100 EXP SWAP1 DIV PUSH1 0xFF AND DUP2 JUMP JUMPDEST PUSH2 0x997 PUSH2 0xCC8 JUMP JUMPDEST PUSH2 0x99F PUSH2 0xF2A JUMP JUMPDEST JUMP JUMPDEST PUSH0 DUP1 PUSH1 0x1 SWAP1 SLOAD SWAP1 PUSH2 0x100 EXP SWAP1 DIV PUSH20 0xFFFFFFFFFFFFFFFFFFFFFFFFFFFFFFFFFFFFFFFF AND SWAP1 POP SWAP1 JUMP JUMPDEST PUSH0 DUP1 DUP6 DUP6 PUSH1 0x40 MLOAD PUSH1 0x20 ADD PUSH2 0x9DE SWAP3 SWAP2 SWAP1 PUSH2 0x1597 JUMP JUMPDEST PUSH1 0x40 MLOAD PUSH1 0x20 DUP2 DUP4 SUB SUB DUP2 MSTORE SWAP1 PUSH1 0x40 MSTORE DUP1 MLOAD SWAP1 PUSH1 0x20 ADD KECCAK256 SWAP1 POP PUSH2 0xA43 DUP5 DUP5 DUP1 DUP1 PUSH1 0x20 MUL PUSH1 0x20 ADD PUSH1 0x40 MLOAD SWAP1 DUP2 ADD PUSH1 0x40 MSTORE DUP1 SWAP4 SWAP3 SWAP2 SWAP1 DUP2 DUP2 MSTORE PUSH1 0x20 ADD DUP4 DUP4 PUSH1 0x20 MUL DUP1 DUP3 DUP5 CALLDATACOPY PUSH0 DUP2 DUP5 ADD MSTORE PUSH1 0x1F NOT PUSH1 0x1F DUP3 ADD AND SWAP1 POP DUP1 DUP4 ADD SWAP3 POP POP POP POP POP POP POP PUSH1 0x2 SLOAD DUP4 PUSH2 0xDE8 JUMP JUMPDEST SWAP2 POP POP SWAP5 SWAP4 POP POP POP POP JUMP JUMPDEST PUSH2 0xA56 PUSH2 0xCC8 JUMP JUMPDEST PUSH1 0x1 PUSH1 0x4 PUSH1 0x14 PUSH2 0x100 EXP DUP2 SLOAD DUP2 PUSH1 0xFF MUL NOT AND SWAP1 DUP4 ISZERO ISZERO MUL OR SWAP1 SSTORE POP TIMESTAMP PUSH1 0x5 DUP2 SWAP1 SSTORE POP JUMP JUMPDEST PUSH0 PUSH1 0x4 PUSH1 0x14 SWAP1 SLOAD SWAP1 PUSH2 0x100 EXP SWAP1 DIV PUSH1 0xFF AND DUP1 ISZERO PUSH2 0xAA6 JUMPI POP TIMESTAMP PUSH1 0x6 SLOAD PUSH1 0x5 SLOAD PUSH2 0xAA3 SWAP2 SWAP1 PUSH2 0x142F JUMP JUMPDEST LT ISZERO JUMPDEST DUP1 ISZERO PUSH2 0xAB4 JUMPI POP PUSH1 0x5 SLOAD TIMESTAMP LT ISZERO JUMPDEST SWAP1 POP SWAP1 JUMP JUMPDEST PUSH1 0x7 PUSH1 0x20 MSTORE DUP1 PUSH0 MSTORE PUSH1 0x40 PUSH0 KECCAK256 PUSH0 SWAP2 POP SLOAD SWAP1 PUSH2 0x100 EXP SWAP1 DIV PUSH1 0xFF AND DUP2 JUMP JUMPDEST PUSH2 0xADE PUSH2 0xCC8 JUMP JUMPDEST PUSH0 PUSH1 0x3 PUSH0 SWAP1 SLOAD SWAP1 PUSH2 0x100 EXP SWAP1 DIV PUSH20 0xFFFFFFFFFFFFFFFFFFFFFFFFFFFFFFFFFFFFFFFF AND SWAP1 POP PUSH0 DUP2 PUSH20 0xFFFFFFFFFFFFFFFFFFFFFFFFFFFFFFFFFFFFFFFF AND PUSH4 0x70A08231 ADDRESS PUSH1 0x40 MLOAD DUP3 PUSH4 0xFFFFFFFF AND PUSH1 0xE0 SHL DUP2 MSTORE PUSH1 0x4 ADD PUSH2 0xB3D SWAP2 SWAP1 PUSH2 0x12AB JUMP JUMPDEST PUSH1 0x20 PUSH1 0x40 MLOAD DUP1 DUP4 SUB DUP2 DUP7 GAS STATICCALL ISZERO DUP1 ISZERO PUSH2 0xB58 JUMPI RETURNDATASIZE PUSH0 DUP1 RETURNDATACOPY RETURNDATASIZE PUSH0 REVERT JUMPDEST POP POP POP POP PUSH1 0x40 MLOAD RETURNDATASIZE PUSH1 0x1F NOT PUSH1 0x1F DUP3 ADD AND DUP3 ADD DUP1 PUSH1 0x40 MSTORE POP DUP2 ADD SWAP1 PUSH2 0xB7C SWAP2 SWAP1 PUSH2 0x16A6 JUMP JUMPDEST SWAP1 POP DUP2 PUSH20 0xFFFFFFFFFFFFFFFFFFFFFFFFFFFFFFFFFFFFFFFF AND PUSH4 0xA9059CBB PUSH1 0x4 PUSH0 SWAP1 SLOAD SWAP1 PUSH2 0x100 EXP SWAP1 DIV PUSH20 0xFFFFFFFFFFFFFFFFFFFFFFFFFFFFFFFFFFFFFFFF AND DUP4 PUSH1 0x40 MLOAD DUP4 PUSH4 0xFFFFFFFF AND PUSH1 0xE0 SHL DUP2 MSTORE PUSH1 0x4 ADD PUSH2 0xBDA SWAP3 SWAP2 SWAP1 PUSH2 0x1739 JUMP JUMPDEST PUSH1 0x20 PUSH1 0x40 MLOAD DUP1 DUP4 SUB DUP2 PUSH0 DUP8 GAS CALL ISZERO DUP1 ISZERO PUSH2 0xBF6 JUMPI RETURNDATASIZE PUSH0 DUP1 RETURNDATACOPY RETURNDATASIZE PUSH0 REVERT JUMPDEST POP POP POP POP PUSH1 0x40 MLOAD RETURNDATASIZE PUSH1 0x1F NOT PUSH1 0x1F DUP3 ADD AND DUP3 ADD DUP1 PUSH1 0x40 MSTORE POP DUP2 ADD SWAP1 PUSH2 0xC1A SWAP2 SWAP1 PUSH2 0x178A JUMP JUMPDEST POP POP POP JUMP JUMPDEST PUSH2 0xC27 PUSH2 0xCC8 JUMP JUMPDEST PUSH0 PUSH20 0xFFFFFFFFFFFFFFFFFFFFFFFFFFFFFFFFFFFFFFFF AND DUP2 PUSH20 0xFFFFFFFFFFFFFFFFFFFFFFFFFFFFFFFFFFFFFFFF AND SUB PUSH2 0xC97 JUMPI PUSH0 PUSH1 0x40 MLOAD PUSH32 0x1E4FBDF700000000000000000000000000000000000000000000000000000000 DUP2 MSTORE PUSH1 0x4 ADD PUSH2 0xC8E SWAP2 SWAP1 PUSH2 0x12AB JUMP JUMPDEST PUSH1 0x40 MLOAD DUP1 SWAP2 SUB SWAP1 REVERT JUMPDEST PUSH2 0xCA0 DUP2 PUSH2 0xE67 JUMP JUMPDEST POP JUMP JUMPDEST PUSH1 0x3 PUSH0 SWAP1 SLOAD SWAP1 PUSH2 0x100 EXP SWAP1 DIV PUSH20 0xFFFFFFFFFFFFFFFFFFFFFFFFFFFFFFFFFFFFFFFF AND DUP2 JUMP JUMPDEST PUSH2 0xCD0 PUSH2 0xF8B JUMP JUMPDEST PUSH20 0xFFFFFFFFFFFFFFFFFFFFFFFFFFFFFFFFFFFFFFFF AND PUSH2 0xCEE PUSH2 0x9A1 JUMP JUMPDEST PUSH20 0xFFFFFFFFFFFFFFFFFFFFFFFFFFFFFFFFFFFFFFFF AND EQ PUSH2 0xD4D JUMPI PUSH2 0xD11 PUSH2 0xF8B JUMP JUMPDEST PUSH1 0x40 MLOAD PUSH32 0x118CDAA700000000000000000000000000000000000000000000000000000000 DUP2 MSTORE PUSH1 0x4 ADD PUSH2 0xD44 SWAP2 SWAP1 PUSH2 0x12AB JUMP JUMPDEST PUSH1 0x40 MLOAD DUP1 SWAP2 SUB SWAP1 REVERT JUMPDEST JUMP JUMPDEST PUSH2 0xD57 PUSH2 0x8E1 JUMP JUMPDEST ISZERO PUSH2 0xD97 JUMPI PUSH1 0x40 MLOAD PUSH32 0x8C379A000000000000000000000000000000000000000000000000000000000 DUP2 MSTORE PUSH1 0x4 ADD PUSH2 0xD8E SWAP1 PUSH2 0x17FF JUMP JUMPDEST PUSH1 0x40 MLOAD DUP1 SWAP2 SUB SWAP1 REVERT JUMPDEST JUMP JUMPDEST PUSH1 0x2 PUSH1 0x1 SLOAD SUB PUSH2 0xDDE JUMPI PUSH1 0x40 MLOAD PUSH32 0x8C379A000000000000000000000000000000000000000000000000000000000 DUP2 MSTORE PUSH1 0x4 ADD PUSH2 0xDD5 SWAP1 PUSH2 0x1867 JUMP JUMPDEST PUSH1 0x40 MLOAD DUP1 SWAP2 SUB SWAP1 REVERT JUMPDEST PUSH1 0x2 PUSH1 0x1 DUP2 SWAP1 SSTORE POP JUMP JUMPDEST PUSH0 DUP3 PUSH2 0xDF4 DUP6 DUP5 PUSH2 0xF92 JUMP JUMPDEST EQ SWAP1 POP SWAP4 SWAP3 POP POP POP JUMP JUMPDEST PUSH1 0x1 DUP1 DUP2 SWAP1 SSTORE POP JUMP JUMPDEST PUSH2 0xE0F PUSH2 0xFE0 JUMP JUMPDEST PUSH0 DUP1 PUSH0 PUSH2 0x100 EXP DUP2 SLOAD DUP2 PUSH1 0xFF MUL NOT AND SWAP1 DUP4 ISZERO ISZERO MUL OR SWAP1 SSTORE POP PUSH32 0x5DB9EE0A495BF2E6FF9C91A7834C1BA4FDD244A5E8AA4E537BD38AEAE4B073AA PUSH2 0xE50 PUSH2 0xF8B JUMP JUMPDEST PUSH1 0x40 MLOAD PUSH2 0xE5D SWAP2 SWAP1 PUSH2 0x12AB JUMP JUMPDEST PUSH1 0x40 MLOAD DUP1 SWAP2 SUB SWAP1 LOG1 JUMP JUMPDEST PUSH0 DUP1 PUSH1 0x1 SWAP1 SLOAD SWAP1 PUSH2 0x100 EXP SWAP1 DIV PUSH20 0xFFFFFFFFFFFFFFFFFFFFFFFFFFFFFFFFFFFFFFFF AND SWAP1 POP DUP2 PUSH0 PUSH1 0x1 PUSH2 0x100 EXP DUP2 SLOAD DUP2 PUSH20 0xFFFFFFFFFFFFFFFFFFFFFFFFFFFFFFFFFFFFFFFF MUL NOT AND SWAP1 DUP4 PUSH20 0xFFFFFFFFFFFFFFFFFFFFFFFFFFFFFFFFFFFFFFFF AND MUL OR SWAP1 SSTORE POP DUP2 PUSH20 0xFFFFFFFFFFFFFFFFFFFFFFFFFFFFFFFFFFFFFFFF AND DUP2 PUSH20 0xFFFFFFFFFFFFFFFFFFFFFFFFFFFFFFFFFFFFFFFF AND PUSH32 0x8BE0079C531659141344CD1FD0A4F28419497F9722A3DAAFE3B4186F6B6457E0 PUSH1 0x40 MLOAD PUSH1 0x40 MLOAD DUP1 SWAP2 SUB SWAP1 LOG3 POP POP JUMP JUMPDEST PUSH2 0xF32 PUSH2 0xD4F JUMP JUMPDEST PUSH1 0x1 PUSH0 DUP1 PUSH2 0x100 EXP DUP2 SLOAD DUP2 PUSH1 0xFF MUL NOT AND SWAP1 DUP4 ISZERO ISZERO MUL OR SWAP1 SSTORE POP PUSH32 0x62E78CEA01BEE320CD4E420270B5EA74000D11B0C9F74754EBDBFC544B05A258 PUSH2 0xF74 PUSH2 0xF8B JUMP JUMPDEST PUSH1 0x40 MLOAD PUSH2 0xF81 SWAP2 SWAP1 PUSH2 0x12AB JUMP JUMPDEST PUSH1 0x40 MLOAD DUP1 SWAP2 SUB SWAP1 LOG1 JUMP JUMPDEST PUSH0 CALLER SWAP1 POP SWAP1 JUMP JUMPDEST PUSH0 DUP1 DUP3 SWAP1 POP PUSH0 JUMPDEST DUP5 MLOAD DUP2 LT ISZERO PUSH2 0xFD5 JUMPI PUSH2 0xFC6 DUP3 DUP7 DUP4 DUP2 MLOAD DUP2 LT PUSH2 0xFB9 JUMPI PUSH2 0xFB8 PUSH2 0x1885 JUMP JUMPDEST JUMPDEST PUSH1 0x20 MUL PUSH1 0x20 ADD ADD MLOAD PUSH2 0x1029 JUMP JUMPDEST SWAP2 POP DUP1 DUP1 PUSH1 0x1 ADD SWAP2 POP POP PUSH2 0xF99 JUMP JUMPDEST POP DUP1 SWAP2 POP POP SWAP3 SWAP2 POP POP JUMP JUMPDEST PUSH2 0xFE8 PUSH2 0x8E1 JUMP JUMPDEST PUSH2 0x1027 JUMPI PUSH1 0x40 MLOAD PUSH32 0x8C379A000000000000000000000000000000000000000000000000000000000 DUP2 MSTORE PUSH1 0x4 ADD PUSH2 0x101E SWAP1 PUSH2 0x18FC JUMP JUMPDEST PUSH1 0x40 MLOAD DUP1 SWAP2 SUB SWAP1 REVERT JUMPDEST JUMP JUMPDEST PUSH0 DUP2 DUP4 LT PUSH2 0x1040 JUMPI PUSH2 0x103B DUP3 DUP5 PUSH2 0x1053 JUMP JUMPDEST PUSH2 0x104B JUMP JUMPDEST PUSH2 0x104A DUP4 DUP4 PUSH2 0x1053 JUMP JUMPDEST JUMPDEST SWAP1 POP SWAP3 SWAP2 POP POP JUMP JUMPDEST PUSH0 DUP3 PUSH0 MSTORE DUP2 PUSH1 0x20 MSTORE PUSH1 0x40 PUSH0 KECCAK256 SWAP1 POP SWAP3 SWAP2 POP POP JUMP JUMPDEST PUSH0 DUP1 REVERT JUMPDEST PUSH0 DUP1 REVERT JUMPDEST PUSH0 PUSH20 0xFFFFFFFFFFFFFFFFFFFFFFFFFFFFFFFFFFFFFFFF DUP3 AND SWAP1 POP SWAP2 SWAP1 POP JUMP JUMPDEST PUSH0 PUSH2 0x1098 DUP3 PUSH2 0x106F JUMP JUMPDEST SWAP1 POP SWAP2 SWAP1 POP JUMP JUMPDEST PUSH2 0x10A8 DUP2 PUSH2 0x108E JUMP JUMPDEST DUP2 EQ PUSH2 0x10B2 JUMPI PUSH0 DUP1 REVERT JUMPDEST POP JUMP JUMPDEST PUSH0 DUP2 CALLDATALOAD SWAP1 POP PUSH2 0x10C3 DUP2 PUSH2 0x109F JUMP JUMPDEST SWAP3 SWAP2 POP POP JUMP JUMPDEST PUSH0 PUSH1 0x20 DUP3 DUP5 SUB SLT ISZERO PUSH2 0x10DE JUMPI PUSH2 0x10DD PUSH2 0x1067 JUMP JUMPDEST JUMPDEST PUSH0 PUSH2 0x10EB DUP5 DUP3 DUP6 ADD PUSH2 0x10B5 JUMP JUMPDEST SWAP2 POP POP SWAP3 SWAP2 POP POP JUMP JUMPDEST PUSH0 DUP2 SWAP1 POP SWAP2 SWAP1 POP JUMP JUMPDEST PUSH2 0x1106 DUP2 PUSH2 0x10F4 JUMP JUMPDEST DUP3 MSTORE POP POP JUMP JUMPDEST PUSH0 PUSH1 0x20 DUP3 ADD SWAP1 POP PUSH2 0x111F PUSH0 DUP4 ADD DUP5 PUSH2 0x10FD JUMP JUMPDEST SWAP3 SWAP2 POP POP JUMP JUMPDEST PUSH0 DUP2 SWAP1 POP SWAP2 SWAP1 POP JUMP JUMPDEST PUSH2 0x1137 DUP2 PUSH2 0x1125 JUMP JUMPDEST DUP2 EQ PUSH2 0x1141 JUMPI PUSH0 DUP1 REVERT JUMPDEST POP JUMP JUMPDEST PUSH0 DUP2 CALLDATALOAD SWAP1 POP PUSH2 0x1152 DUP2 PUSH2 0x112E JUMP JUMPDEST SWAP3 SWAP2 POP POP JUMP JUMPDEST PUSH0 DUP1 REVERT JUMPDEST PUSH0 DUP1 REVERT JUMPDEST PUSH0 DUP1 REVERT JUMPDEST PUSH0 DUP1 DUP4 PUSH1 0x1F DUP5 ADD SLT PUSH2 0x1179 JUMPI PUSH2 0x1178 PUSH2 0x1158 JUMP JUMPDEST JUMPDEST DUP3 CALLDATALOAD SWAP1 POP PUSH8 0xFFFFFFFFFFFFFFFF DUP2 GT ISZERO PUSH2 0x1196 JUMPI PUSH2 0x1195 PUSH2 0x115C JUMP JUMPDEST JUMPDEST PUSH1 0x20 DUP4 ADD SWAP2 POP DUP4 PUSH1 0x20 DUP3 MUL DUP4 ADD GT ISZERO PUSH2 0x11B2 JUMPI PUSH2 0x11B1 PUSH2 0x1160 JUMP JUMPDEST JUMPDEST SWAP3 POP SWAP3 SWAP1 POP JUMP JUMPDEST PUSH0 DUP1 PUSH0 PUSH1 0x40 DUP5 DUP7 SUB SLT ISZERO PUSH2 0x11D0 JUMPI PUSH2 0x11CF PUSH2 0x1067 JUMP JUMPDEST JUMPDEST PUSH0 PUSH2 0x11DD DUP7 DUP3 DUP8 ADD PUSH2 0x1144 JUMP JUMPDEST SWAP4 POP POP PUSH1 0x20 DUP5 ADD CALLDATALOAD PUSH8 0xFFFFFFFFFFFFFFFF DUP2 GT ISZERO PUSH2 0x11FE JUMPI PUSH2 0x11FD PUSH2 0x106B JUMP JUMPDEST JUMPDEST PUSH2 0x120A DUP7 DUP3 DUP8 ADD PUSH2 0x1164 JUMP JUMPDEST SWAP3 POP SWAP3 POP POP SWAP3 POP SWAP3 POP SWAP3 JUMP JUMPDEST PUSH2 0x121F DUP2 PUSH2 0x1125 JUMP JUMPDEST DUP3 MSTORE POP POP JUMP JUMPDEST PUSH0 PUSH1 0x20 DUP3 ADD SWAP1 POP PUSH2 0x1238 PUSH0 DUP4 ADD DUP5 PUSH2 0x1216 JUMP JUMPDEST SWAP3 SWAP2 POP POP JUMP JUMPDEST PUSH0 DUP2 ISZERO ISZERO SWAP1 POP SWAP2 SWAP1 POP JUMP JUMPDEST PUSH2 0x1252 DUP2 PUSH2 0x123E JUMP JUMPDEST DUP3 MSTORE POP POP JUMP JUMPDEST PUSH0 PUSH1 0x20 DUP3 ADD SWAP1 POP PUSH2 0x126B PUSH0 DUP4 ADD DUP5 PUSH2 0x1249 JUMP JUMPDEST SWAP3 SWAP2 POP POP JUMP JUMPDEST PUSH0 PUSH1 0x20 DUP3 DUP5 SUB SLT ISZERO PUSH2 0x1286 JUMPI PUSH2 0x1285 PUSH2 0x1067 JUMP JUMPDEST JUMPDEST PUSH0 PUSH2 0x1293 DUP5 DUP3 DUP6 ADD PUSH2 0x1144 JUMP JUMPDEST SWAP2 POP POP SWAP3 SWAP2 POP POP JUMP JUMPDEST PUSH2 0x12A5 DUP2 PUSH2 0x108E JUMP JUMPDEST DUP3 MSTORE POP POP JUMP JUMPDEST PUSH0 PUSH1 0x20 DUP3 ADD SWAP1 POP PUSH2 0x12BE PUSH0 DUP4 ADD DUP5 PUSH2 0x129C JUMP JUMPDEST SWAP3 SWAP2 POP POP JUMP JUMPDEST PUSH2 0x12CD DUP2 PUSH2 0x10F4 JUMP JUMPDEST DUP2 EQ PUSH2 0x12D7 JUMPI PUSH0 DUP1 REVERT JUMPDEST POP JUMP JUMPDEST PUSH0 DUP2 CALLDATALOAD SWAP1 POP PUSH2 0x12E8 DUP2 PUSH2 0x12C4 JUMP JUMPDEST SWAP3 SWAP2 POP POP JUMP JUMPDEST PUSH0 PUSH1 0x20 DUP3 DUP5 SUB SLT ISZERO PUSH2 0x1303 JUMPI PUSH2 0x1302 PUSH2 0x1067 JUMP JUMPDEST JUMPDEST PUSH0 PUSH2 0x1310 DUP5 DUP3 DUP6 ADD PUSH2 0x12DA JUMP JUMPDEST SWAP2 POP POP SWAP3 SWAP2 POP POP JUMP JUMPDEST PUSH0 DUP1 PUSH0 DUP1 PUSH1 0x60 DUP6 DUP8 SUB SLT ISZERO PUSH2 0x1331 JUMPI PUSH2 0x1330 PUSH2 0x1067 JUMP JUMPDEST JUMPDEST PUSH0 PUSH2 0x133E DUP8 DUP3 DUP9 ADD PUSH2 0x10B5 JUMP JUMPDEST SWAP5 POP POP PUSH1 0x20 PUSH2 0x134F DUP8 DUP3 DUP9 ADD PUSH2 0x1144 JUMP JUMPDEST SWAP4 POP POP PUSH1 0x40 DUP6 ADD CALLDATALOAD PUSH8 0xFFFFFFFFFFFFFFFF DUP2 GT ISZERO PUSH2 0x1370 JUMPI PUSH2 0x136F PUSH2 0x106B JUMP JUMPDEST JUMPDEST PUSH2 0x137C DUP8 DUP3 DUP9 ADD PUSH2 0x1164 JUMP JUMPDEST SWAP3 POP SWAP3 POP POP SWAP3 SWAP6 SWAP2 SWAP5 POP SWAP3 POP JUMP JUMPDEST PUSH0 DUP3 DUP3 MSTORE PUSH1 0x20 DUP3 ADD SWAP1 POP SWAP3 SWAP2 POP POP JUMP JUMPDEST PUSH32 0x546F6B656E2073686F756C646E2774206265207A65726F000000000000000000 PUSH0 DUP3 ADD MSTORE POP JUMP JUMPDEST PUSH0 PUSH2 0x13CE PUSH1 0x17 DUP4 PUSH2 0x138A JUMP JUMPDEST SWAP2 POP PUSH2 0x13D9 DUP3 PUSH2 0x139A JUMP JUMPDEST PUSH1 0x20 DUP3 ADD SWAP1 POP SWAP2 SWAP1 POP JUMP JUMPDEST PUSH0 PUSH1 0x20 DUP3 ADD SWAP1 POP DUP2 DUP2 SUB PUSH0 DUP4 ADD MSTORE PUSH2 0x13FB DUP2 PUSH2 0x13C2 JUMP JUMPDEST SWAP1 POP SWAP2 SWAP1 POP JUMP JUMPDEST PUSH32 0x4E487B7100000000000000000000000000000000000000000000000000000000 PUSH0 MSTORE PUSH1 0x11 PUSH1 0x4 MSTORE PUSH1 0x24 PUSH0 REVERT JUMPDEST PUSH0 PUSH2 0x1439 DUP3 PUSH2 0x1125 JUMP JUMPDEST SWAP2 POP PUSH2 0x1444 DUP4 PUSH2 0x1125 JUMP JUMPDEST SWAP3 POP DUP3 DUP3 ADD SWAP1 POP DUP1 DUP3 GT ISZERO PUSH2 0x145C JUMPI PUSH2 0x145B PUSH2 0x1402 JUMP JUMPDEST JUMPDEST SWAP3 SWAP2 POP POP JUMP JUMPDEST PUSH32 0x4974206973206E6F20706572696F6420746F20636C61696D2100000000000000 PUSH0 DUP3 ADD MSTORE POP JUMP JUMPDEST PUSH0 PUSH2 0x1496 PUSH1 0x19 DUP4 PUSH2 0x138A JUMP JUMPDEST SWAP2 POP PUSH2 0x14A1 DUP3 PUSH2 0x1462 JUMP JUMPDEST PUSH1 0x20 DUP3 ADD SWAP1 POP SWAP2 SWAP1 POP JUMP JUMPDEST PUSH0 PUSH1 0x20 DUP3 ADD SWAP1 POP DUP2 DUP2 SUB PUSH0 DUP4 ADD MSTORE PUSH2 0x14C3 DUP2 PUSH2 0x148A JUMP JUMPDEST SWAP1 POP SWAP2 SWAP1 POP JUMP JUMPDEST PUSH32 0x416C726561647920636C61696D65640000000000000000000000000000000000 PUSH0 DUP3 ADD MSTORE POP JUMP JUMPDEST PUSH0 PUSH2 0x14FE PUSH1 0xF DUP4 PUSH2 0x138A JUMP JUMPDEST SWAP2 POP PUSH2 0x1509 DUP3 PUSH2 0x14CA JUMP JUMPDEST PUSH1 0x20 DUP3 ADD SWAP1 POP SWAP2 SWAP1 POP JUMP JUMPDEST PUSH0 PUSH1 0x20 DUP3 ADD SWAP1 POP DUP2 DUP2 SUB PUSH0 DUP4 ADD MSTORE PUSH2 0x152B DUP2 PUSH2 0x14F2 JUMP JUMPDEST SWAP1 POP SWAP2 SWAP1 POP JUMP JUMPDEST PUSH0 DUP2 PUSH1 0x60 SHL SWAP1 POP SWAP2 SWAP1 POP JUMP JUMPDEST PUSH0 PUSH2 0x1548 DUP3 PUSH2 0x1532 JUMP JUMPDEST SWAP1 POP SWAP2 SWAP1 POP JUMP JUMPDEST PUSH0 PUSH2 0x1559 DUP3 PUSH2 0x153E JUMP JUMPDEST SWAP1 POP SWAP2 SWAP1 POP JUMP JUMPDEST PUSH2 0x1571 PUSH2 0x156C DUP3 PUSH2 0x108E JUMP JUMPDEST PUSH2 0x154F JUMP JUMPDEST DUP3 MSTORE POP POP JUMP JUMPDEST PUSH0 DUP2 SWAP1 POP SWAP2 SWAP1 POP JUMP JUMPDEST PUSH2 0x1591 PUSH2 0x158C DUP3 PUSH2 0x1125 JUMP JUMPDEST PUSH2 0x1577 JUMP JUMPDEST DUP3 MSTORE POP POP JUMP JUMPDEST PUSH0 PUSH2 0x15A2 DUP3 DUP6 PUSH2 0x1560 JUMP JUMPDEST PUSH1 0x14 DUP3 ADD SWAP2 POP PUSH2 0x15B2 DUP3 DUP5 PUSH2 0x1580 JUMP JUMPDEST PUSH1 0x20 DUP3 ADD SWAP2 POP DUP2 SWAP1 POP SWAP4 SWAP3 POP POP POP JUMP JUMPDEST PUSH32 0x496E76616C69642070726F6F6600000000000000000000000000000000000000 PUSH0 DUP3 ADD MSTORE POP JUMP JUMPDEST PUSH0 PUSH2 0x15F6 PUSH1 0xD DUP4 PUSH2 0x138A JUMP JUMPDEST SWAP2 POP PUSH2 0x1601 DUP3 PUSH2 0x15C2 JUMP JUMPDEST PUSH1 0x20 DUP3 ADD SWAP1 POP SWAP2 SWAP1 POP JUMP JUMPDEST PUSH0 PUSH1 0x20 DUP3 ADD SWAP1 POP DUP2 DUP2 SUB PUSH0 DUP4 ADD MSTORE PUSH2 0x1623 DUP2 PUSH2 0x15EA JUMP JUMPDEST SWAP1 POP SWAP2 SWAP1 POP JUMP JUMPDEST PUSH32 0x546F6B656E20616464726573732073686F756C646E2774206265207A65726F21 PUSH0 DUP3 ADD MSTORE POP JUMP JUMPDEST PUSH0 PUSH2 0x165E PUSH1 0x20 DUP4 PUSH2 0x138A JUMP JUMPDEST SWAP2 POP PUSH2 0x1669 DUP3 PUSH2 0x162A JUMP JUMPDEST PUSH1 0x20 DUP3 ADD SWAP1 POP SWAP2 SWAP1 POP JUMP JUMPDEST PUSH0 PUSH1 0x20 DUP3 ADD SWAP1 POP DUP2 DUP2 SUB PUSH0 DUP4 ADD MSTORE PUSH2 0x168B DUP2 PUSH2 0x1652 JUMP JUMPDEST SWAP1 POP SWAP2 SWAP1 POP JUMP JUMPDEST PUSH0 DUP2 MLOAD SWAP1 POP PUSH2 0x16A0 DUP2 PUSH2 0x112E JUMP JUMPDEST SWAP3 SWAP2 POP POP JUMP JUMPDEST PUSH0 PUSH1 0x20 DUP3 DUP5 SUB SLT ISZERO PUSH2 0x16BB JUMPI PUSH2 0x16BA PUSH2 0x1067 JUMP JUMPDEST JUMPDEST PUSH0 PUSH2 0x16C8 DUP5 DUP3 DUP6 ADD PUSH2 0x1692 JUMP JUMPDEST SWAP2 POP POP SWAP3 SWAP2 POP POP JUMP JUMPDEST PUSH32 0x496E73756666696369656E742042616C616E6365210000000000000000000000 PUSH0 DUP3 ADD MSTORE POP JUMP JUMPDEST PUSH0 PUSH2 0x1705 PUSH1 0x15 DUP4 PUSH2 0x138A JUMP JUMPDEST SWAP2 POP PUSH2 0x1710 DUP3 PUSH2 0x16D1 JUMP JUMPDEST PUSH1 0x20 DUP3 ADD SWAP1 POP SWAP2 SWAP1 POP JUMP JUMPDEST PUSH0 PUSH1 0x20 DUP3 ADD SWAP1 POP DUP2 DUP2 SUB PUSH0 DUP4 ADD MSTORE PUSH2 0x1732 DUP2 PUSH2 0x16F9 JUMP JUMPDEST SWAP1 POP SWAP2 SWAP1 POP JUMP JUMPDEST PUSH0 PUSH1 0x40 DUP3 ADD SWAP1 POP PUSH2 0x174C PUSH0 DUP4 ADD DUP6 PUSH2 0x129C JUMP JUMPDEST PUSH2 0x1759 PUSH1 0x20 DUP4 ADD DUP5 PUSH2 0x1216 JUMP JUMPDEST SWAP4 SWAP3 POP POP POP JUMP JUMPDEST PUSH2 0x1769 DUP2 PUSH2 0x123E JUMP JUMPDEST DUP2 EQ PUSH2 0x1773 JUMPI PUSH0 DUP1 REVERT JUMPDEST POP JUMP JUMPDEST PUSH0 DUP2 MLOAD SWAP1 POP PUSH2 0x1784 DUP2 PUSH2 0x1760 JUMP JUMPDEST SWAP3 SWAP2 POP POP JUMP JUMPDEST PUSH0 PUSH1 0x20 DUP3 DUP5 SUB SLT ISZERO PUSH2 0x179F JUMPI PUSH2 0x179E PUSH2 0x1067 JUMP JUMPDEST JUMPDEST PUSH0 PUSH2 0x17AC DUP5 DUP3 DUP6 ADD PUSH2 0x1776 JUMP JUMPDEST SWAP2 POP POP SWAP3 SWAP2 POP POP JUMP JUMPDEST PUSH32 0x5061757361626C653A2070617573656400000000000000000000000000000000 PUSH0 DUP3 ADD MSTORE POP JUMP JUMPDEST PUSH0 PUSH2 0x17E9 PUSH1 0x10 DUP4 PUSH2 0x138A JUMP JUMPDEST SWAP2 POP PUSH2 0x17F4 DUP3 PUSH2 0x17B5 JUMP JUMPDEST PUSH1 0x20 DUP3 ADD SWAP1 POP SWAP2 SWAP1 POP JUMP JUMPDEST PUSH0 PUSH1 0x20 DUP3 ADD SWAP1 POP DUP2 DUP2 SUB PUSH0 DUP4 ADD MSTORE PUSH2 0x1816 DUP2 PUSH2 0x17DD JUMP JUMPDEST SWAP1 POP SWAP2 SWAP1 POP JUMP JUMPDEST PUSH32 0x5265656E7472616E637947756172643A207265656E7472616E742063616C6C00 PUSH0 DUP3 ADD MSTORE POP JUMP JUMPDEST PUSH0 PUSH2 0x1851 PUSH1 0x1F DUP4 PUSH2 0x138A JUMP JUMPDEST SWAP2 POP PUSH2 0x185C DUP3 PUSH2 0x181D JUMP JUMPDEST PUSH1 0x20 DUP3 ADD SWAP1 POP SWAP2 SWAP1 POP JUMP JUMPDEST PUSH0 PUSH1 0x20 DUP3 ADD SWAP1 POP DUP2 DUP2 SUB PUSH0 DUP4 ADD MSTORE PUSH2 0x187E DUP2 PUSH2 0x1845 JUMP JUMPDEST SWAP1 POP SWAP2 SWAP1 POP JUMP JUMPDEST PUSH32 0x4E487B7100000000000000000000000000000000000000000000000000000000 PUSH0 MSTORE PUSH1 0x32 PUSH1 0x4 MSTORE PUSH1 0x24 PUSH0 REVERT JUMPDEST PUSH32 0x5061757361626C653A206E6F7420706175736564000000000000000000000000 PUSH0 DUP3 ADD MSTORE POP JUMP JUMPDEST PUSH0 PUSH2 0x18E6 PUSH1 0x14 DUP4 PUSH2 0x138A JUMP JUMPDEST SWAP2 POP PUSH2 0x18F1 DUP3 PUSH2 0x18B2 JUMP JUMPDEST PUSH1 0x20 DUP3 ADD SWAP1 POP SWAP2 SWAP1 POP JUMP JUMPDEST PUSH0 PUSH1 0x20 DUP3 ADD SWAP1 POP DUP2 DUP2 SUB PUSH0 DUP4 ADD MSTORE PUSH2 0x1913 DUP2 PUSH2 0x18DA JUMP JUMPDEST SWAP1 POP SWAP2 SWAP1 POP JUMP INVALID LOG2 PUSH5 0x6970667358 0x22 SLT KECCAK256 OR PUSH9 0xAB8756A032AFE2D5CE DUP14 0xD4 SIGNEXTEND MSTORE8 SWAP9 0xAB PREVRANDAO MOD SWAP15 0xEC 0xD4 0xC9 TIMESTAMP SSTORE BASEFEE 0x4E SMOD ISZERO 0xCF 0xD6 BLOBBASEFEE PUSH5 0x736F6C6343 STOP ADDMOD BYTE STOP CALLER "
				},
				"gasEstimates": {
					"creation": {
						"codeDepositCost": "1296000",
						"executionCost": "infinite",
						"totalCost": "infinite"
					},
					"external": {
						"checkClaimingRound()": "infinite",
						"claim(uint256,bytes32[])": "infinite",
						"claimed(address)": "2899",
						"claimingRoundDuration()": "2448",
						"endClaimingRound()": "infinite",
						"isClaiming()": "2562",
						"merkleRoot()": "2471",
						"owner()": "2655",
						"pause()": "infinite",
						"paused()": "2518",
						"renounceOwnership()": "infinite",
						"setClaimingRoundDuration(uint256)": "infinite",
						"setMerkleRoot(bytes32)": "infinite",
						"setStartClaimingRound()": "infinite",
						"setToken(address)": "infinite",
						"startClaimingRound()": "2537",
						"token()": "2640",
						"transferOwnership(address)": "infinite",
						"treasury()": "2619",
						"unClaimedTokenToTreasury()": "infinite",
						"unpause()": "infinite",
						"verifyUser(address,uint256,bytes32[])": "infinite"
					}
				},
				"methodIdentifiers": {
					"checkClaimingRound()": "c27f7e26",
					"claim(uint256,bytes32[])": "2f52ebb7",
					"claimed(address)": "c884ef83",
					"claimingRoundDuration()": "49039527",
					"endClaimingRound()": "5e4f3a9c",
					"isClaiming()": "7cc6cb7a",
					"merkleRoot()": "2eb4a7ab",
					"owner()": "8da5cb5b",
					"pause()": "8456cb59",
					"paused()": "5c975abb",
					"renounceOwnership()": "715018a6",
					"setClaimingRoundDuration(uint256)": "6038efad",
					"setMerkleRoot(bytes32)": "7cb64759",
					"setStartClaimingRound()": "b6cd5d1a",
					"setToken(address)": "144fa6d7",
					"startClaimingRound()": "428e7565",
					"token()": "fc0c546a",
					"transferOwnership(address)": "f2fde38b",
					"treasury()": "61d027b3",
					"unClaimedTokenToTreasury()": "de805da7",
					"unpause()": "3f4ba83a",
					"verifyUser(address,uint256,bytes32[])": "a0074c67"
				}
			},
			"storageLayout": {
				"storage": [
					{
						"astId": 165,
						"contract": "SmartContractsInterview/MerkleDistribution.sol:MerkleDistributor",
						"label": "_paused",
						"offset": 0,
						"slot": "0",
						"type": "t_bool"
					},
					{
						"astId": 8,
						"contract": "SmartContractsInterview/MerkleDistribution.sol:MerkleDistributor",
						"label": "_owner",
						"offset": 1,
						"slot": "0",
						"type": "t_address"
					},
					{
						"astId": 266,
						"contract": "SmartContractsInterview/MerkleDistribution.sol:MerkleDistributor",
						"label": "_status",
						"offset": 0,
						"slot": "1",
						"type": "t_uint256"
					},
					{
						"astId": 980,
						"contract": "SmartContractsInterview/MerkleDistribution.sol:MerkleDistributor",
						"label": "merkleRoot",
						"offset": 0,
						"slot": "2",
						"type": "t_bytes32"
					},
					{
						"astId": 982,
						"contract": "SmartContractsInterview/MerkleDistribution.sol:MerkleDistributor",
						"label": "token",
						"offset": 0,
						"slot": "3",
						"type": "t_address"
					},
					{
						"astId": 984,
						"contract": "SmartContractsInterview/MerkleDistribution.sol:MerkleDistributor",
						"label": "treasury",
						"offset": 0,
						"slot": "4",
						"type": "t_address"
					},
					{
						"astId": 986,
						"contract": "SmartContractsInterview/MerkleDistribution.sol:MerkleDistributor",
						"label": "isClaiming",
						"offset": 20,
						"slot": "4",
						"type": "t_bool"
					},
					{
						"astId": 988,
						"contract": "SmartContractsInterview/MerkleDistribution.sol:MerkleDistributor",
						"label": "startClaimingRound",
						"offset": 0,
						"slot": "5",
						"type": "t_uint256"
					},
					{
						"astId": 990,
						"contract": "SmartContractsInterview/MerkleDistribution.sol:MerkleDistributor",
						"label": "claimingRoundDuration",
						"offset": 0,
						"slot": "6",
						"type": "t_uint256"
					},
					{
						"astId": 994,
						"contract": "SmartContractsInterview/MerkleDistribution.sol:MerkleDistributor",
						"label": "claimed",
						"offset": 0,
						"slot": "7",
						"type": "t_mapping(t_address,t_bool)"
					}
				],
				"types": {
					"t_address": {
						"encoding": "inplace",
						"label": "address",
						"numberOfBytes": "20"
					},
					"t_bool": {
						"encoding": "inplace",
						"label": "bool",
						"numberOfBytes": "1"
					},
					"t_bytes32": {
						"encoding": "inplace",
						"label": "bytes32",
						"numberOfBytes": "32"
					},
					"t_mapping(t_address,t_bool)": {
						"encoding": "mapping",
						"key": "t_address",
						"label": "mapping(address => bool)",
						"numberOfBytes": "32",
						"value": "t_bool"
					},
					"t_uint256": {
						"encoding": "inplace",
						"label": "uint256",
						"numberOfBytes": "32"
					}
				}
			},
			"userdoc": {
				"kind": "user",
				"methods": {},
				"version": 1
			}
		}
	}
}