{
	"SmartContractsInterview/MerkleDistribution.sol": {
		"MerkleDistributor": {
			"abi": [
				{
					"inputs": [
						{
							"internalType": "address",
							"name": "_owner",
							"type": "address"
						},
						{
							"internalType": "address",
							"name": "_treasury",
							"type": "address"
						}
					],
					"stateMutability": "nonpayable",
					"type": "constructor"
				},
				{
					"inputs": [
						{
							"internalType": "address",
							"name": "owner",
							"type": "address"
						}
					],
					"name": "OwnableInvalidOwner",
					"type": "error"
				},
				{
					"inputs": [
						{
							"internalType": "address",
							"name": "account",
							"type": "address"
						}
					],
					"name": "OwnableUnauthorizedAccount",
					"type": "error"
				},
				{
					"anonymous": false,
					"inputs": [
						{
							"indexed": true,
							"internalType": "address",
							"name": "account",
							"type": "address"
						},
						{
							"indexed": false,
							"internalType": "uint256",
							"name": "amount",
							"type": "uint256"
						}
					],
					"name": "Claimed",
					"type": "event"
				},
				{
					"anonymous": false,
					"inputs": [
						{
							"indexed": true,
							"internalType": "address",
							"name": "previousOwner",
							"type": "address"
						},
						{
							"indexed": true,
							"internalType": "address",
							"name": "newOwner",
							"type": "address"
						}
					],
					"name": "OwnershipTransferred",
					"type": "event"
				},
				{
					"anonymous": false,
					"inputs": [
						{
							"indexed": false,
							"internalType": "address",
							"name": "account",
							"type": "address"
						}
					],
					"name": "Paused",
					"type": "event"
				},
				{
					"anonymous": false,
					"inputs": [
						{
							"indexed": false,
							"internalType": "address",
							"name": "account",
							"type": "address"
						}
					],
					"name": "Unpaused",
					"type": "event"
				},
				{
					"inputs": [],
					"name": "checkClaimingRound",
					"outputs": [
						{
							"internalType": "bool",
							"name": "",
							"type": "bool"
						}
					],
					"stateMutability": "view",
					"type": "function"
				},
				{
					"inputs": [
						{
							"internalType": "uint256",
							"name": "_amount",
							"type": "uint256"
						},
						{
							"internalType": "bytes32[]",
							"name": "_merkleProof",
							"type": "bytes32[]"
						}
					],
					"name": "claim",
					"outputs": [],
					"stateMutability": "nonpayable",
					"type": "function"
				},
				{
					"inputs": [
						{
							"internalType": "address",
							"name": "",
							"type": "address"
						}
					],
					"name": "claimed",
					"outputs": [
						{
							"internalType": "bool",
							"name": "",
							"type": "bool"
						}
					],
					"stateMutability": "view",
					"type": "function"
				},
				{
					"inputs": [],
					"name": "claimingRoundDuration",
					"outputs": [
						{
							"internalType": "uint256",
							"name": "",
							"type": "uint256"
						}
					],
					"stateMutability": "view",
					"type": "function"
				},
				{
					"inputs": [],
					"name": "endClaimingRound",
					"outputs": [],
					"stateMutability": "nonpayable",
					"type": "function"
				},
				{
					"inputs": [],
					"name": "isClaiming",
					"outputs": [
						{
							"internalType": "bool",
							"name": "",
							"type": "bool"
						}
					],
					"stateMutability": "view",
					"type": "function"
				},
				{
					"inputs": [],
					"name": "merkleRoot",
					"outputs": [
						{
							"internalType": "bytes32",
							"name": "",
							"type": "bytes32"
						}
					],
					"stateMutability": "view",
					"type": "function"
				},
				{
					"inputs": [],
					"name": "owner",
					"outputs": [
						{
							"internalType": "address",
							"name": "",
							"type": "address"
						}
					],
					"stateMutability": "view",
					"type": "function"
				},
				{
					"inputs": [],
					"name": "pause",
					"outputs": [],
					"stateMutability": "nonpayable",
					"type": "function"
				},
				{
					"inputs": [],
					"name": "paused",
					"outputs": [
						{
							"internalType": "bool",
							"name": "",
							"type": "bool"
						}
					],
					"stateMutability": "view",
					"type": "function"
				},
				{
					"inputs": [],
					"name": "renounceOwnership",
					"outputs": [],
					"stateMutability": "nonpayable",
					"type": "function"
				},
				{
					"inputs": [
						{
							"internalType": "uint256",
							"name": "_duration",
							"type": "uint256"
						}
					],
					"name": "setClaimingRoundDuration",
					"outputs": [],
					"stateMutability": "nonpayable",
					"type": "function"
				},
				{
					"inputs": [
						{
							"internalType": "bytes32",
							"name": "_merkleRoot",
							"type": "bytes32"
						}
					],
					"name": "setMerkleRoot",
					"outputs": [],
					"stateMutability": "nonpayable",
					"type": "function"
				},
				{
					"inputs": [],
					"name": "setStartClaimingRound",
					"outputs": [],
					"stateMutability": "nonpayable",
					"type": "function"
				},
				{
					"inputs": [
						{
							"internalType": "address",
							"name": "_token",
							"type": "address"
						}
					],
					"name": "setToken",
					"outputs": [],
					"stateMutability": "nonpayable",
					"type": "function"
				},
				{
					"inputs": [],
					"name": "startClaimingRound",
					"outputs": [
						{
							"internalType": "uint256",
							"name": "",
							"type": "uint256"
						}
					],
					"stateMutability": "view",
					"type": "function"
				},
				{
					"inputs": [],
					"name": "token",
					"outputs": [
						{
							"internalType": "address",
							"name": "",
							"type": "address"
						}
					],
					"stateMutability": "view",
					"type": "function"
				},
				{
					"inputs": [
						{
							"internalType": "address",
							"name": "newOwner",
							"type": "address"
						}
					],
					"name": "transferOwnership",
					"outputs": [],
					"stateMutability": "nonpayable",
					"type": "function"
				},
				{
					"inputs": [],
					"name": "treasury",
					"outputs": [
						{
							"internalType": "address",
							"name": "",
							"type": "address"
						}
					],
					"stateMutability": "view",
					"type": "function"
				},
				{
					"inputs": [],
					"name": "unClaimedTokenToTreasury",
					"outputs": [],
					"stateMutability": "nonpayable",
					"type": "function"
				},
				{
					"inputs": [],
					"name": "unpause",
					"outputs": [],
					"stateMutability": "nonpayable",
					"type": "function"
				},
				{
					"inputs": [
						{
							"internalType": "address",
							"name": "_user",
							"type": "address"
						},
						{
							"internalType": "uint256",
							"name": "_amount",
							"type": "uint256"
						},
						{
							"internalType": "bytes32[]",
							"name": "_merkleProof",
							"type": "bytes32[]"
						}
					],
					"name": "verifyUser",
					"outputs": [
						{
							"internalType": "bool",
							"name": "",
							"type": "bool"
						}
					],
					"stateMutability": "view",
					"type": "function"
				}
			],
			"devdoc": {
				"errors": {
					"OwnableInvalidOwner(address)": [
						{
							"details": "The owner is not a valid owner account. (eg. `address(0)`)"
						}
					],
					"OwnableUnauthorizedAccount(address)": [
						{
							"details": "The caller account is not authorized to perform an operation."
						}
					]
				},
				"events": {
					"Paused(address)": {
						"details": "Emitted when the pause is triggered by `account`."
					},
					"Unpaused(address)": {
						"details": "Emitted when the pause is lifted by `account`."
					}
				},
				"kind": "dev",
				"methods": {
					"owner()": {
						"details": "Returns the address of the current owner."
					},
					"paused()": {
						"details": "Returns true if the contract is paused, and false otherwise."
					},
					"renounceOwnership()": {
						"details": "Leaves the contract without owner. It will not be possible to call `onlyOwner` functions. Can only be called by the current owner. NOTE: Renouncing ownership will leave the contract without an owner, thereby disabling any functionality that is only available to the owner."
					},
					"transferOwnership(address)": {
						"details": "Transfers ownership of the contract to a new account (`newOwner`). Can only be called by the current owner."
					}
				},
				"version": 1
			},
			"evm": {
				"assembly": "    /* \"SmartContractsInterview/MerkleDistribution.sol\":356:3676  contract MerkleDistributor is Pausable, Ownable, ReentrancyGuard {... */\n  mstore(0x40, 0x80)\n    /* \"SmartContractsInterview/MerkleDistribution.sol\":1001:1238  constructor(address _owner, address _treasury) Ownable(msg.sender) {... */\n  callvalue\n  dup1\n  iszero\n  tag_1\n  jumpi\n  0x00\n  dup1\n  revert\ntag_1:\n  pop\n  mload(0x40)\n  sub(codesize, bytecodeSize)\n  dup1\n  bytecodeSize\n  dup4\n  codecopy\n  dup2\n  add\n  0x40\n  dup2\n  swap1\n  mstore\n  tag_2\n  swap2\n  tag_3\n  jump\t// in\ntag_2:\n    /* \"@openzeppelin/contracts/security/Pausable.sol\":1006:1011  false */\n  0x00\n    /* \"@openzeppelin/contracts/security/Pausable.sol\":996:1011  _paused = false */\n  dup1\n  sload\n  not(0xff)\n  and\n  swap1\n  sstore\n    /* \"SmartContractsInterview/MerkleDistribution.sol\":1056:1066  msg.sender */\n  caller\n  dup1\n    /* \"@openzeppelin/contracts/access/Ownable.sol\":1269:1364  if (initialOwner == address(0)) {... */\n  tag_10\n  jumpi\n    /* \"@openzeppelin/contracts/access/Ownable.sol\":1322:1353  OwnableInvalidOwner(address(0)) */\n  mload(0x40)\n  shl(0xe0, 0x1e4fbdf7)\n  dup2\n  mstore\n    /* \"@openzeppelin/contracts/access/Ownable.sol\":1350:1351  0 */\n  0x00\n    /* \"@openzeppelin/contracts/access/Ownable.sol\":1322:1353  OwnableInvalidOwner(address(0)) */\n  0x04\n  dup3\n  add\n    /* \"#utility.yul\":640:691   */\n  mstore\n    /* \"#utility.yul\":613:631   */\n  0x24\n  add\n    /* \"@openzeppelin/contracts/access/Ownable.sol\":1322:1353  OwnableInvalidOwner(address(0)) */\ntag_11:\n  mload(0x40)\n  dup1\n  swap2\n  sub\n  swap1\n  revert\n    /* \"@openzeppelin/contracts/access/Ownable.sol\":1269:1364  if (initialOwner == address(0)) {... */\ntag_10:\n    /* \"@openzeppelin/contracts/access/Ownable.sol\":1373:1405  _transferOwnership(initialOwner) */\n  tag_13\n    /* \"@openzeppelin/contracts/access/Ownable.sol\":1392:1404  initialOwner */\n  dup2\n    /* \"@openzeppelin/contracts/access/Ownable.sol\":1373:1391  _transferOwnership */\n  tag_14\n    /* \"@openzeppelin/contracts/access/Ownable.sol\":1373:1405  _transferOwnership(initialOwner) */\n  jump\t// in\ntag_13:\n  pop\n    /* \"@openzeppelin/contracts/security/ReentrancyGuard.sol\":1716:1717  1 */\n  0x01\n    /* \"@openzeppelin/contracts/security/ReentrancyGuard.sol\":1821:1843  _status = _NOT_ENTERED */\n  dup1\n  sstore\n    /* \"SmartContractsInterview/MerkleDistribution.sol\":1078:1086  treasury */\n  0x04\n    /* \"SmartContractsInterview/MerkleDistribution.sol\":1078:1098  treasury = _treasury */\n  dup1\n  sload\n    /* \"SmartContractsInterview/MerkleDistribution.sol\":1132:1141  86400 * 7 */\n  0x093a80\n    /* \"SmartContractsInterview/MerkleDistribution.sol\":1108:1129  claimingRoundDuration */\n  0x06\n    /* \"SmartContractsInterview/MerkleDistribution.sol\":1108:1141  claimingRoundDuration = 86400 * 7 */\n  sstore\n  not(sub(shl(0xa8, 0x01), 0x01))\n    /* \"SmartContractsInterview/MerkleDistribution.sol\":1161:1179  isClaiming = false */\n  and\n  sub(shl(0xa0, 0x01), 0x01)\n    /* \"SmartContractsInterview/MerkleDistribution.sol\":1078:1098  treasury = _treasury */\n  dup4\n  and\n    /* \"SmartContractsInterview/MerkleDistribution.sol\":1161:1179  isClaiming = false */\n  or\n  swap1\n  sstore\n    /* \"SmartContractsInterview/MerkleDistribution.sol\":1189:1214  transferOwnership(_owner) */\n  tag_17\n    /* \"SmartContractsInterview/MerkleDistribution.sol\":1207:1213  _owner */\n  dup3\n    /* \"SmartContractsInterview/MerkleDistribution.sol\":1189:1206  transferOwnership */\n  tag_18\n    /* \"SmartContractsInterview/MerkleDistribution.sol\":1189:1214  transferOwnership(_owner) */\n  jump\t// in\ntag_17:\n    /* \"SmartContractsInterview/MerkleDistribution.sol\":1224:1231  pause() */\n  tag_19\n    /* \"SmartContractsInterview/MerkleDistribution.sol\":1224:1229  pause */\n  tag_20\n    /* \"SmartContractsInterview/MerkleDistribution.sol\":1224:1231  pause() */\n  jump\t// in\ntag_19:\n    /* \"SmartContractsInterview/MerkleDistribution.sol\":1001:1238  constructor(address _owner, address _treasury) Ownable(msg.sender) {... */\n  pop\n  pop\n    /* \"SmartContractsInterview/MerkleDistribution.sol\":356:3676  contract MerkleDistributor is Pausable, Ownable, ReentrancyGuard {... */\n  jump(tag_59)\n    /* \"@openzeppelin/contracts/access/Ownable.sol\":2912:3099  function _transferOwnership(address newOwner) internal virtual {... */\ntag_14:\n    /* \"@openzeppelin/contracts/access/Ownable.sol\":2985:3001  address oldOwner */\n  0x00\n    /* \"@openzeppelin/contracts/access/Ownable.sol\":3004:3010  _owner */\n  dup1\n  sload\n  sub(shl(0xa0, 0x01), 0x01)\n    /* \"@openzeppelin/contracts/access/Ownable.sol\":3020:3037  _owner = newOwner */\n  dup4\n  dup2\n  and\n    /* \"@openzeppelin/contracts/access/Ownable.sol\":3004:3010  _owner */\n  0x0100\n    /* \"@openzeppelin/contracts/access/Ownable.sol\":3020:3037  _owner = newOwner */\n  dup2\n  dup2\n  mul\n  not(sub(shl(0xa8, 0x01), 0x0100))\n  dup6\n  and\n  or\n  dup6\n  sstore\n    /* \"@openzeppelin/contracts/access/Ownable.sol\":3052:3092  OwnershipTransferred(oldOwner, newOwner) */\n  mload(0x40)\n    /* \"@openzeppelin/contracts/access/Ownable.sol\":3004:3010  _owner */\n  swap4\n  div\n  swap2\n  swap1\n  swap2\n  and\n  swap3\n    /* \"@openzeppelin/contracts/access/Ownable.sol\":3020:3037  _owner = newOwner */\n  swap1\n  swap2\n    /* \"@openzeppelin/contracts/access/Ownable.sol\":3004:3010  _owner */\n  dup4\n  swap2\n    /* \"@openzeppelin/contracts/access/Ownable.sol\":3052:3092  OwnershipTransferred(oldOwner, newOwner) */\n  0x8be0079c531659141344cd1fd0a4f28419497f9722a3daafe3b4186f6b6457e0\n  swap2\n  log3\n    /* \"@openzeppelin/contracts/access/Ownable.sol\":2975:3099  {... */\n  pop\n    /* \"@openzeppelin/contracts/access/Ownable.sol\":2912:3099  function _transferOwnership(address newOwner) internal virtual {... */\n  pop\n  jump\t// out\n    /* \"@openzeppelin/contracts/access/Ownable.sol\":2543:2758  function transferOwnership(address newOwner) public virtual onlyOwner {... */\ntag_18:\n    /* \"@openzeppelin/contracts/access/Ownable.sol\":1531:1544  _checkOwner() */\n  tag_24\n    /* \"@openzeppelin/contracts/access/Ownable.sol\":1531:1542  _checkOwner */\n  tag_25\n    /* \"@openzeppelin/contracts/access/Ownable.sol\":1531:1544  _checkOwner() */\n  jump\t// in\ntag_24:\n  sub(shl(0xa0, 0x01), 0x01)\n    /* \"@openzeppelin/contracts/access/Ownable.sol\":2627:2649  newOwner == address(0) */\n  dup2\n  and\n    /* \"@openzeppelin/contracts/access/Ownable.sol\":2623:2714  if (newOwner == address(0)) {... */\n  tag_27\n  jumpi\n    /* \"@openzeppelin/contracts/access/Ownable.sol\":2672:2703  OwnableInvalidOwner(address(0)) */\n  mload(0x40)\n  shl(0xe0, 0x1e4fbdf7)\n  dup2\n  mstore\n    /* \"@openzeppelin/contracts/access/Ownable.sol\":2700:2701  0 */\n  0x00\n    /* \"@openzeppelin/contracts/access/Ownable.sol\":2672:2703  OwnableInvalidOwner(address(0)) */\n  0x04\n  dup3\n  add\n    /* \"#utility.yul\":640:691   */\n  mstore\n    /* \"#utility.yul\":613:631   */\n  0x24\n  add\n    /* \"@openzeppelin/contracts/access/Ownable.sol\":2672:2703  OwnableInvalidOwner(address(0)) */\n  tag_11\n    /* \"#utility.yul\":494:697   */\n  jump\n    /* \"@openzeppelin/contracts/access/Ownable.sol\":2623:2714  if (newOwner == address(0)) {... */\ntag_27:\n    /* \"@openzeppelin/contracts/access/Ownable.sol\":2723:2751  _transferOwnership(newOwner) */\n  tag_29\n    /* \"@openzeppelin/contracts/access/Ownable.sol\":2742:2750  newOwner */\n  dup2\n    /* \"@openzeppelin/contracts/access/Ownable.sol\":2723:2741  _transferOwnership */\n  tag_14\n    /* \"@openzeppelin/contracts/access/Ownable.sol\":2723:2751  _transferOwnership(newOwner) */\n  jump\t// in\ntag_29:\n    /* \"@openzeppelin/contracts/access/Ownable.sol\":2543:2758  function transferOwnership(address newOwner) public virtual onlyOwner {... */\n  pop\n  jump\t// out\n    /* \"SmartContractsInterview/MerkleDistribution.sol\":3311:3370  function pause() public onlyOwner {... */\ntag_20:\n    /* \"@openzeppelin/contracts/access/Ownable.sol\":1531:1544  _checkOwner() */\n  tag_31\n    /* \"@openzeppelin/contracts/access/Ownable.sol\":1531:1542  _checkOwner */\n  tag_25\n    /* \"@openzeppelin/contracts/access/Ownable.sol\":1531:1544  _checkOwner() */\n  jump\t// in\ntag_31:\n    /* \"SmartContractsInterview/MerkleDistribution.sol\":3355:3363  _pause() */\n  tag_33\n    /* \"SmartContractsInterview/MerkleDistribution.sol\":3355:3361  _pause */\n  tag_34\n    /* \"SmartContractsInterview/MerkleDistribution.sol\":3355:3363  _pause() */\n  jump\t// in\ntag_33:\n    /* \"SmartContractsInterview/MerkleDistribution.sol\":3311:3370  function pause() public onlyOwner {... */\n  jump\t// out\n    /* \"@openzeppelin/contracts/access/Ownable.sol\":1796:1958  function _checkOwner() internal view virtual {... */\ntag_25:\n    /* \"@openzeppelin/contracts/access/Ownable.sol\":1684:1691  address */\n  0x00\n    /* \"@openzeppelin/contracts/access/Ownable.sol\":1710:1716  _owner */\n  sload\n  sub(shl(0xa0, 0x01), 0x01)\n  0x0100\n  swap1\n  swap2\n  div\n  and\n    /* \"@openzeppelin/contracts/utils/Context.sol\":735:745  msg.sender */\n  caller\n    /* \"@openzeppelin/contracts/access/Ownable.sol\":1855:1878  owner() != _msgSender() */\n  eq\n    /* \"@openzeppelin/contracts/access/Ownable.sol\":1851:1952  if (owner() != _msgSender()) {... */\n  tag_33\n  jumpi\n    /* \"@openzeppelin/contracts/access/Ownable.sol\":1901:1941  OwnableUnauthorizedAccount(_msgSender()) */\n  mload(0x40)\n  shl(0xe0, 0x118cdaa7)\n  dup2\n  mstore\n    /* \"@openzeppelin/contracts/utils/Context.sol\":735:745  msg.sender */\n  caller\n    /* \"@openzeppelin/contracts/access/Ownable.sol\":1901:1941  OwnableUnauthorizedAccount(_msgSender()) */\n  0x04\n  dup3\n  add\n    /* \"#utility.yul\":640:691   */\n  mstore\n    /* \"#utility.yul\":613:631   */\n  0x24\n  add\n    /* \"@openzeppelin/contracts/access/Ownable.sol\":1901:1941  OwnableUnauthorizedAccount(_msgSender()) */\n  tag_11\n    /* \"#utility.yul\":494:697   */\n  jump\n    /* \"@openzeppelin/contracts/security/Pausable.sol\":2186:2301  function _pause() internal virtual whenNotPaused {... */\ntag_34:\n    /* \"@openzeppelin/contracts/security/Pausable.sol\":1239:1258  _requireNotPaused() */\n  tag_44\n    /* \"@openzeppelin/contracts/security/Pausable.sol\":1239:1256  _requireNotPaused */\n  tag_45\n    /* \"@openzeppelin/contracts/security/Pausable.sol\":1239:1258  _requireNotPaused() */\n  jump\t// in\ntag_44:\n    /* \"@openzeppelin/contracts/security/Pausable.sol\":2245:2252  _paused */\n  0x00\n    /* \"@openzeppelin/contracts/security/Pausable.sol\":2245:2259  _paused = true */\n  dup1\n  sload\n  not(0xff)\n  and\n    /* \"@openzeppelin/contracts/security/Pausable.sol\":2255:2259  true */\n  0x01\n    /* \"@openzeppelin/contracts/security/Pausable.sol\":2245:2259  _paused = true */\n  or\n  swap1\n  sstore\n    /* \"@openzeppelin/contracts/security/Pausable.sol\":2274:2294  Paused(_msgSender()) */\n  0x62e78cea01bee320cd4e420270b5ea74000d11b0c9f74754ebdbfc544b05a258\n    /* \"@openzeppelin/contracts/security/Pausable.sol\":2281:2293  _msgSender() */\n  tag_47\n    /* \"@openzeppelin/contracts/utils/Context.sol\":735:745  msg.sender */\n  caller\n  swap1\n    /* \"@openzeppelin/contracts/utils/Context.sol\":656:752  function _msgSender() internal view virtual returns (address) {... */\n  jump\n    /* \"@openzeppelin/contracts/security/Pausable.sol\":2281:2293  _msgSender() */\ntag_47:\n    /* \"@openzeppelin/contracts/security/Pausable.sol\":2274:2294  Paused(_msgSender()) */\n  mload(0x40)\n  sub(shl(0xa0, 0x01), 0x01)\n    /* \"#utility.yul\":658:690   */\n  swap1\n  swap2\n  and\n    /* \"#utility.yul\":640:691   */\n  dup2\n  mstore\n    /* \"#utility.yul\":628:630   */\n  0x20\n    /* \"#utility.yul\":613:631   */\n  add\n    /* \"@openzeppelin/contracts/security/Pausable.sol\":2274:2294  Paused(_msgSender()) */\n  mload(0x40)\n  dup1\n  swap2\n  sub\n  swap1\n  log1\n    /* \"@openzeppelin/contracts/security/Pausable.sol\":2186:2301  function _pause() internal virtual whenNotPaused {... */\n  jump\t// out\n    /* \"@openzeppelin/contracts/security/Pausable.sol\":1767:1873  function _requireNotPaused() internal view virtual {... */\ntag_45:\n    /* \"@openzeppelin/contracts/security/Pausable.sol\":1662:1666  bool */\n  0x00\n    /* \"@openzeppelin/contracts/security/Pausable.sol\":1685:1692  _paused */\n  sload\n  0xff\n  and\n    /* \"@openzeppelin/contracts/security/Pausable.sol\":1836:1845  !paused() */\n  iszero\n    /* \"@openzeppelin/contracts/security/Pausable.sol\":1828:1866  require(!paused(), \"Pausable: paused\") */\n  tag_33\n  jumpi\n  mload(0x40)\n  shl(0xe5, 0x461bcd)\n  dup2\n  mstore\n    /* \"#utility.yul\":904:906   */\n  0x20\n    /* \"@openzeppelin/contracts/security/Pausable.sol\":1828:1866  require(!paused(), \"Pausable: paused\") */\n  0x04\n  dup3\n  add\n    /* \"#utility.yul\":886:907   */\n  mstore\n    /* \"#utility.yul\":943:945   */\n  0x10\n    /* \"#utility.yul\":923:941   */\n  0x24\n  dup3\n  add\n    /* \"#utility.yul\":916:946   */\n  mstore\n  shl(0x82, 0x14185d5cd8589b194e881c185d5cd959)\n    /* \"#utility.yul\":962:980   */\n  0x44\n  dup3\n  add\n    /* \"#utility.yul\":955:1001   */\n  mstore\n    /* \"#utility.yul\":1018:1036   */\n  0x64\n  add\n    /* \"@openzeppelin/contracts/security/Pausable.sol\":1828:1866  require(!paused(), \"Pausable: paused\") */\n  tag_11\n    /* \"#utility.yul\":702:1042   */\n  jump\n    /* \"#utility.yul\":14:191   */\ntag_58:\n    /* \"#utility.yul\":93:106   */\n  dup1\n  mload\n  sub(shl(0xa0, 0x01), 0x01)\n    /* \"#utility.yul\":135:166   */\n  dup2\n  and\n    /* \"#utility.yul\":125:167   */\n  dup2\n  eq\n    /* \"#utility.yul\":115:185   */\n  tag_61\n  jumpi\n    /* \"#utility.yul\":181:182   */\n  0x00\n    /* \"#utility.yul\":178:179   */\n  dup1\n    /* \"#utility.yul\":171:183   */\n  revert\n    /* \"#utility.yul\":115:185   */\ntag_61:\n    /* \"#utility.yul\":14:191   */\n  swap2\n  swap1\n  pop\n  jump\t// out\n    /* \"#utility.yul\":196:489   */\ntag_3:\n    /* \"#utility.yul\":275:281   */\n  0x00\n    /* \"#utility.yul\":283:289   */\n  dup1\n    /* \"#utility.yul\":336:338   */\n  0x40\n    /* \"#utility.yul\":324:333   */\n  dup4\n    /* \"#utility.yul\":315:322   */\n  dup6\n    /* \"#utility.yul\":311:334   */\n  sub\n    /* \"#utility.yul\":307:339   */\n  slt\n    /* \"#utility.yul\":304:356   */\n  iszero\n  tag_63\n  jumpi\n    /* \"#utility.yul\":352:353   */\n  0x00\n    /* \"#utility.yul\":349:350   */\n  dup1\n    /* \"#utility.yul\":342:354   */\n  revert\n    /* \"#utility.yul\":304:356   */\ntag_63:\n    /* \"#utility.yul\":375:415   */\n  tag_64\n    /* \"#utility.yul\":405:414   */\n  dup4\n    /* \"#utility.yul\":375:415   */\n  tag_58\n  jump\t// in\ntag_64:\n    /* \"#utility.yul\":365:415   */\n  swap2\n  pop\n    /* \"#utility.yul\":434:483   */\n  tag_65\n    /* \"#utility.yul\":479:481   */\n  0x20\n    /* \"#utility.yul\":468:477   */\n  dup5\n    /* \"#utility.yul\":464:482   */\n  add\n    /* \"#utility.yul\":434:483   */\n  tag_58\n  jump\t// in\ntag_65:\n    /* \"#utility.yul\":424:483   */\n  swap1\n  pop\n    /* \"#utility.yul\":196:489   */\n  swap3\n  pop\n  swap3\n  swap1\n  pop\n  jump\t// out\n    /* \"#utility.yul\":702:1042   */\ntag_59:\n    /* \"SmartContractsInterview/MerkleDistribution.sol\":356:3676  contract MerkleDistributor is Pausable, Ownable, ReentrancyGuard {... */\n  dataSize(sub_0)\n  dup1\n  dataOffset(sub_0)\n  0x00\n  codecopy\n  0x00\n  return\nstop\n\nsub_0: assembly {\n        /* \"SmartContractsInterview/MerkleDistribution.sol\":356:3676  contract MerkleDistributor is Pausable, Ownable, ReentrancyGuard {... */\n      mstore(0x40, 0x80)\n      callvalue\n      dup1\n      iszero\n      tag_1\n      jumpi\n      0x00\n      dup1\n      revert\n    tag_1:\n      pop\n      jumpi(tag_2, lt(calldatasize, 0x04))\n      shr(0xe0, calldataload(0x00))\n      dup1\n      0x7cb64759\n      gt\n      tag_25\n      jumpi\n      dup1\n      0xb6cd5d1a\n      gt\n      tag_26\n      jumpi\n      dup1\n      0xb6cd5d1a\n      eq\n      tag_19\n      jumpi\n      dup1\n      0xc27f7e26\n      eq\n      tag_20\n      jumpi\n      dup1\n      0xc884ef83\n      eq\n      tag_21\n      jumpi\n      dup1\n      0xde805da7\n      eq\n      tag_22\n      jumpi\n      dup1\n      0xf2fde38b\n      eq\n      tag_23\n      jumpi\n      dup1\n      0xfc0c546a\n      eq\n      tag_24\n      jumpi\n      0x00\n      dup1\n      revert\n    tag_26:\n      dup1\n      0x7cb64759\n      eq\n      tag_14\n      jumpi\n      dup1\n      0x7cc6cb7a\n      eq\n      tag_15\n      jumpi\n      dup1\n      0x8456cb59\n      eq\n      tag_16\n      jumpi\n      dup1\n      0x8da5cb5b\n      eq\n      tag_17\n      jumpi\n      dup1\n      0xa0074c67\n      eq\n      tag_18\n      jumpi\n      0x00\n      dup1\n      revert\n    tag_25:\n      dup1\n      0x49039527\n      gt\n      tag_27\n      jumpi\n      dup1\n      0x49039527\n      eq\n      tag_8\n      jumpi\n      dup1\n      0x5c975abb\n      eq\n      tag_9\n      jumpi\n      dup1\n      0x5e4f3a9c\n      eq\n      tag_10\n      jumpi\n      dup1\n      0x6038efad\n      eq\n      tag_11\n      jumpi\n      dup1\n      0x61d027b3\n      eq\n      tag_12\n      jumpi\n      dup1\n      0x715018a6\n      eq\n      tag_13\n      jumpi\n      0x00\n      dup1\n      revert\n    tag_27:\n      dup1\n      0x144fa6d7\n      eq\n      tag_3\n      jumpi\n      dup1\n      0x2eb4a7ab\n      eq\n      tag_4\n      jumpi\n      dup1\n      0x2f52ebb7\n      eq\n      tag_5\n      jumpi\n      dup1\n      0x3f4ba83a\n      eq\n      tag_6\n      jumpi\n      dup1\n      0x428e7565\n      eq\n      tag_7\n      jumpi\n    tag_2:\n      0x00\n      dup1\n      revert\n        /* \"SmartContractsInterview/MerkleDistribution.sol\":1354:1504  function setToken(address _token) external onlyOwner {... */\n    tag_3:\n      tag_28\n      tag_29\n      calldatasize\n      0x04\n      tag_30\n      jump\t// in\n    tag_29:\n      tag_31\n      jump\t// in\n    tag_28:\n      stop\n        /* \"SmartContractsInterview/MerkleDistribution.sol\":427:452  bytes32 public merkleRoot */\n    tag_4:\n      tag_32\n      sload(0x02)\n      dup2\n      jump\n    tag_32:\n      mload(0x40)\n        /* \"#utility.yul\":529:554   */\n      swap1\n      dup2\n      mstore\n        /* \"#utility.yul\":517:519   */\n      0x20\n        /* \"#utility.yul\":502:520   */\n      add\n        /* \"SmartContractsInterview/MerkleDistribution.sol\":427:452  bytes32 public merkleRoot */\n    tag_34:\n      mload(0x40)\n      dup1\n      swap2\n      sub\n      swap1\n      return\n        /* \"SmartContractsInterview/MerkleDistribution.sol\":2188:3083  function claim(... */\n    tag_5:\n      tag_28\n      tag_37\n      calldatasize\n      0x04\n      tag_38\n      jump\t// in\n    tag_37:\n      tag_39\n      jump\t// in\n        /* \"SmartContractsInterview/MerkleDistribution.sol\":3376:3439  function unpause() public onlyOwner {... */\n    tag_6:\n      tag_28\n      tag_41\n      jump\t// in\n        /* \"SmartContractsInterview/MerkleDistribution.sol\":543:576  uint256 public startClaimingRound */\n    tag_7:\n      tag_32\n      sload(0x05)\n      dup2\n      jump\n        /* \"SmartContractsInterview/MerkleDistribution.sol\":582:618  uint256 public claimingRoundDuration */\n    tag_8:\n      tag_32\n      sload(0x06)\n      dup2\n      jump\n        /* \"@openzeppelin/contracts/security/Pausable.sol\":1615:1699  function paused() public view virtual returns (bool) {... */\n    tag_9:\n        /* \"@openzeppelin/contracts/security/Pausable.sol\":1662:1666  bool */\n      0x00\n        /* \"@openzeppelin/contracts/security/Pausable.sol\":1685:1692  _paused */\n      sload\n      0xff\n      and\n        /* \"@openzeppelin/contracts/security/Pausable.sol\":1615:1699  function paused() public view virtual returns (bool) {... */\n    tag_49:\n      mload(0x40)\n        /* \"#utility.yul\":1840:1854   */\n      swap1\n      iszero\n        /* \"#utility.yul\":1833:1855   */\n      iszero\n        /* \"#utility.yul\":1815:1856   */\n      dup2\n      mstore\n        /* \"#utility.yul\":1803:1805   */\n      0x20\n        /* \"#utility.yul\":1788:1806   */\n      add\n        /* \"@openzeppelin/contracts/security/Pausable.sol\":1615:1699  function paused() public view virtual returns (bool) {... */\n      tag_34\n        /* \"#utility.yul\":1675:1862   */\n      jump\n        /* \"SmartContractsInterview/MerkleDistribution.sol\":1648:1762  function endClaimingRound() external onlyOwner {... */\n    tag_10:\n      tag_28\n      tag_54\n      jump\t// in\n        /* \"SmartContractsInterview/MerkleDistribution.sol\":1768:1890  function setClaimingRoundDuration(uint256 _duration) external onlyOwner {... */\n    tag_11:\n      tag_28\n      tag_56\n      calldatasize\n      0x04\n      tag_57\n      jump\t// in\n    tag_56:\n      tag_58\n      jump\t// in\n        /* \"SmartContractsInterview/MerkleDistribution.sol\":485:508  address public treasury */\n    tag_12:\n      sload(0x04)\n      tag_59\n      swap1\n      sub(shl(0xa0, 0x01), 0x01)\n      and\n      dup2\n      jump\n    tag_59:\n      mload(0x40)\n      sub(shl(0xa0, 0x01), 0x01)\n        /* \"#utility.yul\":2262:2294   */\n      swap1\n      swap2\n      and\n        /* \"#utility.yul\":2244:2295   */\n      dup2\n      mstore\n        /* \"#utility.yul\":2232:2234   */\n      0x20\n        /* \"#utility.yul\":2217:2235   */\n      add\n        /* \"SmartContractsInterview/MerkleDistribution.sol\":485:508  address public treasury */\n      tag_34\n        /* \"#utility.yul\":2098:2301   */\n      jump\n        /* \"@openzeppelin/contracts/access/Ownable.sol\":2293:2394  function renounceOwnership() public virtual onlyOwner {... */\n    tag_13:\n      tag_28\n      tag_64\n      jump\t// in\n        /* \"SmartContractsInterview/MerkleDistribution.sol\":1244:1348  function setMerkleRoot(bytes32 _merkleRoot) external onlyOwner {... */\n    tag_14:\n      tag_28\n      tag_66\n      calldatasize\n      0x04\n      tag_57\n      jump\t// in\n    tag_66:\n      tag_68\n      jump\t// in\n        /* \"SmartContractsInterview/MerkleDistribution.sol\":515:537  bool public isClaiming */\n    tag_15:\n      sload(0x04)\n      tag_49\n      swap1\n      shl(0xa0, 0x01)\n      swap1\n      div\n      0xff\n      and\n      dup2\n      jump\n        /* \"SmartContractsInterview/MerkleDistribution.sol\":3311:3370  function pause() public onlyOwner {... */\n    tag_16:\n      tag_28\n      tag_73\n      jump\t// in\n        /* \"@openzeppelin/contracts/access/Ownable.sol\":1638:1723  function owner() public view virtual returns (address) {... */\n    tag_17:\n        /* \"@openzeppelin/contracts/access/Ownable.sol\":1684:1691  address */\n      0x00\n        /* \"@openzeppelin/contracts/access/Ownable.sol\":1710:1716  _owner */\n      sload\n      0x0100\n      swap1\n      div\n      sub(shl(0xa0, 0x01), 0x01)\n      and\n        /* \"@openzeppelin/contracts/access/Ownable.sol\":1638:1723  function owner() public view virtual returns (address) {... */\n      jump(tag_59)\n        /* \"SmartContractsInterview/MerkleDistribution.sol\":1896:2182  function verifyUser(... */\n    tag_18:\n      tag_49\n      tag_78\n      calldatasize\n      0x04\n      tag_79\n      jump\t// in\n    tag_78:\n      tag_80\n      jump\t// in\n        /* \"SmartContractsInterview/MerkleDistribution.sol\":1510:1642  function setStartClaimingRound() external onlyOwner {... */\n    tag_19:\n      tag_28\n      tag_83\n      jump\t// in\n        /* \"SmartContractsInterview/MerkleDistribution.sol\":3445:3674  function checkClaimingRound() external view returns (bool) {... */\n    tag_20:\n      tag_49\n      tag_85\n      jump\t// in\n        /* \"SmartContractsInterview/MerkleDistribution.sol\":625:664  mapping(address => bool) public claimed */\n    tag_21:\n      tag_49\n      tag_88\n      calldatasize\n      0x04\n      tag_30\n      jump\t// in\n    tag_88:\n      mstore(0x20, 0x07)\n      0x00\n      swap1\n      dup2\n      mstore\n      0x40\n      swap1\n      keccak256\n      sload\n      0xff\n      and\n      dup2\n      jump\n        /* \"SmartContractsInterview/MerkleDistribution.sol\":3089:3305  function unClaimedTokenToTreasury() external onlyOwner {... */\n    tag_22:\n      tag_28\n      tag_92\n      jump\t// in\n        /* \"@openzeppelin/contracts/access/Ownable.sol\":2543:2758  function transferOwnership(address newOwner) public virtual onlyOwner {... */\n    tag_23:\n      tag_28\n      tag_94\n      calldatasize\n      0x04\n      tag_30\n      jump\t// in\n    tag_94:\n      tag_95\n      jump\t// in\n        /* \"SmartContractsInterview/MerkleDistribution.sol\":459:479  address public token */\n    tag_24:\n      sload(0x03)\n      tag_59\n      swap1\n      sub(shl(0xa0, 0x01), 0x01)\n      and\n      dup2\n      jump\n        /* \"SmartContractsInterview/MerkleDistribution.sol\":1354:1504  function setToken(address _token) external onlyOwner {... */\n    tag_31:\n        /* \"@openzeppelin/contracts/access/Ownable.sol\":1531:1544  _checkOwner() */\n      tag_100\n        /* \"@openzeppelin/contracts/access/Ownable.sol\":1531:1542  _checkOwner */\n      tag_101\n        /* \"@openzeppelin/contracts/access/Ownable.sol\":1531:1544  _checkOwner() */\n      jump\t// in\n    tag_100:\n      sub(shl(0xa0, 0x01), 0x01)\n        /* \"SmartContractsInterview/MerkleDistribution.sol\":1425:1445  _token != address(0) */\n      dup2\n      and\n        /* \"SmartContractsInterview/MerkleDistribution.sol\":1417:1473  require(_token != address(0), \"Token shouldn't be zero\") */\n      tag_103\n      jumpi\n      mload(0x40)\n      shl(0xe5, 0x461bcd)\n      dup2\n      mstore\n        /* \"#utility.yul\":3323:3325   */\n      0x20\n        /* \"SmartContractsInterview/MerkleDistribution.sol\":1417:1473  require(_token != address(0), \"Token shouldn't be zero\") */\n      0x04\n      dup3\n      add\n        /* \"#utility.yul\":3305:3326   */\n      mstore\n        /* \"#utility.yul\":3362:3364   */\n      0x17\n        /* \"#utility.yul\":3342:3360   */\n      0x24\n      dup3\n      add\n        /* \"#utility.yul\":3335:3365   */\n      mstore\n        /* \"#utility.yul\":3401:3426   */\n      0x546f6b656e2073686f756c646e2774206265207a65726f000000000000000000\n        /* \"#utility.yul\":3381:3399   */\n      0x44\n      dup3\n      add\n        /* \"#utility.yul\":3374:3427   */\n      mstore\n        /* \"#utility.yul\":3444:3462   */\n      0x64\n      add\n        /* \"SmartContractsInterview/MerkleDistribution.sol\":1417:1473  require(_token != address(0), \"Token shouldn't be zero\") */\n    tag_104:\n      mload(0x40)\n      dup1\n      swap2\n      sub\n      swap1\n      revert\n    tag_103:\n        /* \"SmartContractsInterview/MerkleDistribution.sol\":1483:1488  token */\n      0x03\n        /* \"SmartContractsInterview/MerkleDistribution.sol\":1483:1497  token = _token */\n      dup1\n      sload\n      not(sub(shl(0xa0, 0x01), 0x01))\n      and\n      sub(shl(0xa0, 0x01), 0x01)\n      swap3\n      swap1\n      swap3\n      and\n      swap2\n      swap1\n      swap2\n      or\n      swap1\n      sstore\n        /* \"SmartContractsInterview/MerkleDistribution.sol\":1354:1504  function setToken(address _token) external onlyOwner {... */\n      jump\t// out\n        /* \"SmartContractsInterview/MerkleDistribution.sol\":2188:3083  function claim(... */\n    tag_39:\n        /* \"@openzeppelin/contracts/security/Pausable.sol\":1239:1258  _requireNotPaused() */\n      tag_107\n        /* \"@openzeppelin/contracts/security/Pausable.sol\":1239:1256  _requireNotPaused */\n      tag_108\n        /* \"@openzeppelin/contracts/security/Pausable.sol\":1239:1258  _requireNotPaused() */\n      jump\t// in\n    tag_107:\n        /* \"@openzeppelin/contracts/security/ReentrancyGuard.sol\":2261:2282  _nonReentrantBefore() */\n      tag_110\n        /* \"@openzeppelin/contracts/security/ReentrancyGuard.sol\":2261:2280  _nonReentrantBefore */\n      tag_111\n        /* \"@openzeppelin/contracts/security/ReentrancyGuard.sol\":2261:2282  _nonReentrantBefore() */\n      jump\t// in\n    tag_110:\n        /* \"SmartContractsInterview/MerkleDistribution.sol\":792:802  isClaiming */\n      sload(0x04)\n      shl(0xa0, 0x01)\n      swap1\n      div\n      0xff\n      and\n        /* \"SmartContractsInterview/MerkleDistribution.sol\":792:926  isClaiming && (block.timestamp >= startClaimingRound &&... */\n      dup1\n      iszero\n      tag_114\n      jumpi\n      pop\n        /* \"SmartContractsInterview/MerkleDistribution.sol\":826:844  startClaimingRound */\n      sload(0x05)\n        /* \"SmartContractsInterview/MerkleDistribution.sol\":807:822  block.timestamp */\n      timestamp\n        /* \"SmartContractsInterview/MerkleDistribution.sol\":807:844  block.timestamp >= startClaimingRound */\n      lt\n      iszero\n        /* \"SmartContractsInterview/MerkleDistribution.sol\":807:925  block.timestamp >= startClaimingRound &&... */\n      dup1\n      iszero\n      tag_114\n      jumpi\n      pop\n        /* \"SmartContractsInterview/MerkleDistribution.sol\":904:925  claimingRoundDuration */\n      sload(0x06)\n        /* \"SmartContractsInterview/MerkleDistribution.sol\":883:901  startClaimingRound */\n      sload(0x05)\n        /* \"SmartContractsInterview/MerkleDistribution.sol\":883:925  startClaimingRound + claimingRoundDuration */\n      tag_115\n      swap2\n      swap1\n      tag_116\n      jump\t// in\n    tag_115:\n        /* \"SmartContractsInterview/MerkleDistribution.sol\":864:879  block.timestamp */\n      timestamp\n        /* \"SmartContractsInterview/MerkleDistribution.sol\":864:925  block.timestamp <= startClaimingRound + claimingRoundDuration */\n      gt\n      iszero\n        /* \"SmartContractsInterview/MerkleDistribution.sol\":807:925  block.timestamp >= startClaimingRound &&... */\n    tag_114:\n        /* \"SmartContractsInterview/MerkleDistribution.sol\":771:977  require(... */\n      tag_117\n      jumpi\n      mload(0x40)\n      shl(0xe5, 0x461bcd)\n      dup2\n      mstore\n        /* \"#utility.yul\":3902:3904   */\n      0x20\n        /* \"SmartContractsInterview/MerkleDistribution.sol\":771:977  require(... */\n      0x04\n      dup3\n      add\n        /* \"#utility.yul\":3884:3905   */\n      mstore\n        /* \"#utility.yul\":3941:3943   */\n      0x19\n        /* \"#utility.yul\":3921:3939   */\n      0x24\n      dup3\n      add\n        /* \"#utility.yul\":3914:3944   */\n      mstore\n        /* \"#utility.yul\":3980:4007   */\n      0x4974206973206e6f20706572696f6420746f20636c61696d2100000000000000\n        /* \"#utility.yul\":3960:3978   */\n      0x44\n      dup3\n      add\n        /* \"#utility.yul\":3953:4008   */\n      mstore\n        /* \"#utility.yul\":4025:4043   */\n      0x64\n      add\n        /* \"SmartContractsInterview/MerkleDistribution.sol\":771:977  require(... */\n      tag_104\n        /* \"#utility.yul\":3700:4049   */\n      jump\n        /* \"SmartContractsInterview/MerkleDistribution.sol\":771:977  require(... */\n    tag_117:\n        /* \"SmartContractsInterview/MerkleDistribution.sol\":2365:2375  msg.sender */\n      caller\n        /* \"SmartContractsInterview/MerkleDistribution.sol\":2357:2376  claimed[msg.sender] */\n      0x00\n      swap1\n      dup2\n      mstore\n        /* \"SmartContractsInterview/MerkleDistribution.sol\":2357:2364  claimed */\n      0x07\n        /* \"SmartContractsInterview/MerkleDistribution.sol\":2357:2376  claimed[msg.sender] */\n      0x20\n      mstore\n      0x40\n      swap1\n      keccak256\n      sload\n      0xff\n      and\n        /* \"SmartContractsInterview/MerkleDistribution.sol\":2356:2376  !claimed[msg.sender] */\n      iszero\n        /* \"SmartContractsInterview/MerkleDistribution.sol\":2348:2396  require(!claimed[msg.sender], \"Already claimed\") */\n      tag_121\n      jumpi\n      mload(0x40)\n      shl(0xe5, 0x461bcd)\n      dup2\n      mstore\n        /* \"#utility.yul\":4256:4258   */\n      0x20\n        /* \"SmartContractsInterview/MerkleDistribution.sol\":2348:2396  require(!claimed[msg.sender], \"Already claimed\") */\n      0x04\n      dup3\n      add\n        /* \"#utility.yul\":4238:4259   */\n      mstore\n        /* \"#utility.yul\":4295:4297   */\n      0x0f\n        /* \"#utility.yul\":4275:4293   */\n      0x24\n      dup3\n      add\n        /* \"#utility.yul\":4268:4298   */\n      mstore\n      shl(0x8a, 0x105b1c9958591e4818db185a5b5959)\n        /* \"#utility.yul\":4314:4332   */\n      0x44\n      dup3\n      add\n        /* \"#utility.yul\":4307:4352   */\n      mstore\n        /* \"#utility.yul\":4369:4387   */\n      0x64\n      add\n        /* \"SmartContractsInterview/MerkleDistribution.sol\":2348:2396  require(!claimed[msg.sender], \"Already claimed\") */\n      tag_104\n        /* \"#utility.yul\":4054:4393   */\n      jump\n        /* \"SmartContractsInterview/MerkleDistribution.sol\":2348:2396  require(!claimed[msg.sender], \"Already claimed\") */\n    tag_121:\n        /* \"SmartContractsInterview/MerkleDistribution.sol\":2467:2504  abi.encodePacked(msg.sender, _amount) */\n      mload(0x40)\n      not(0xffffffffffffffffffffffff)\n        /* \"SmartContractsInterview/MerkleDistribution.sol\":2484:2494  msg.sender */\n      caller\n        /* \"#utility.yul\":4575:4577   */\n      0x60\n        /* \"#utility.yul\":4571:4586   */\n      shl\n        /* \"#utility.yul\":4567:4620   */\n      and\n        /* \"SmartContractsInterview/MerkleDistribution.sol\":2467:2504  abi.encodePacked(msg.sender, _amount) */\n      0x20\n      dup3\n      add\n        /* \"#utility.yul\":4555:4621   */\n      mstore\n        /* \"#utility.yul\":4637:4649   */\n      0x34\n      dup2\n      add\n        /* \"#utility.yul\":4630:4658   */\n      dup5\n      swap1\n      mstore\n        /* \"SmartContractsInterview/MerkleDistribution.sol\":2442:2454  bytes32 node */\n      0x00\n      swap1\n        /* \"#utility.yul\":4674:4686   */\n      0x54\n      add\n        /* \"SmartContractsInterview/MerkleDistribution.sol\":2467:2504  abi.encodePacked(msg.sender, _amount) */\n      mload(0x40)\n      0x20\n      dup2\n      dup4\n      sub\n      sub\n      dup2\n      mstore\n      swap1\n      0x40\n      mstore\n        /* \"SmartContractsInterview/MerkleDistribution.sol\":2457:2505  keccak256(abi.encodePacked(msg.sender, _amount)) */\n      dup1\n      mload\n      swap1\n      0x20\n      add\n      keccak256\n        /* \"SmartContractsInterview/MerkleDistribution.sol\":2442:2505  bytes32 node = keccak256(abi.encodePacked(msg.sender, _amount)) */\n      swap1\n      pop\n        /* \"SmartContractsInterview/MerkleDistribution.sol\":2536:2586  MerkleProof.verify(_merkleProof, merkleRoot, node) */\n      tag_126\n        /* \"SmartContractsInterview/MerkleDistribution.sol\":2555:2567  _merkleProof */\n      dup4\n      dup4\n        /* \"SmartContractsInterview/MerkleDistribution.sol\":2536:2586  MerkleProof.verify(_merkleProof, merkleRoot, node) */\n      dup1\n      dup1\n      0x20\n      mul\n      0x20\n      add\n      mload(0x40)\n      swap1\n      dup2\n      add\n      0x40\n      mstore\n      dup1\n      swap4\n      swap3\n      swap2\n      swap1\n      dup2\n      dup2\n      mstore\n      0x20\n      add\n      dup4\n      dup4\n      0x20\n      mul\n      dup1\n      dup3\n      dup5\n      calldatacopy\n      0x00\n      swap3\n      add\n      swap2\n      swap1\n      swap2\n      mstore\n      pop\n      pop\n        /* \"SmartContractsInterview/MerkleDistribution.sol\":2569:2579  merkleRoot */\n      sload(0x02)\n      swap2\n      pop\n        /* \"SmartContractsInterview/MerkleDistribution.sol\":2581:2585  node */\n      dup5\n      swap1\n      pop\n        /* \"SmartContractsInterview/MerkleDistribution.sol\":2536:2554  MerkleProof.verify */\n      tag_127\n        /* \"SmartContractsInterview/MerkleDistribution.sol\":2536:2586  MerkleProof.verify(_merkleProof, merkleRoot, node) */\n      jump\t// in\n    tag_126:\n        /* \"SmartContractsInterview/MerkleDistribution.sol\":2515:2625  require(... */\n      tag_128\n      jumpi\n      mload(0x40)\n      shl(0xe5, 0x461bcd)\n      dup2\n      mstore\n        /* \"#utility.yul\":4899:4901   */\n      0x20\n        /* \"SmartContractsInterview/MerkleDistribution.sol\":2515:2625  require(... */\n      0x04\n      dup3\n      add\n        /* \"#utility.yul\":4881:4902   */\n      mstore\n        /* \"#utility.yul\":4938:4940   */\n      0x0d\n        /* \"#utility.yul\":4918:4936   */\n      0x24\n      dup3\n      add\n        /* \"#utility.yul\":4911:4941   */\n      mstore\n      shl(0x99, 0x24b73b30b634b210383937b7b3)\n        /* \"#utility.yul\":4957:4975   */\n      0x44\n      dup3\n      add\n        /* \"#utility.yul\":4950:4993   */\n      mstore\n        /* \"#utility.yul\":5010:5028   */\n      0x64\n      add\n        /* \"SmartContractsInterview/MerkleDistribution.sol\":2515:2625  require(... */\n      tag_104\n        /* \"#utility.yul\":4697:5034   */\n      jump\n        /* \"SmartContractsInterview/MerkleDistribution.sol\":2515:2625  require(... */\n    tag_128:\n        /* \"SmartContractsInterview/MerkleDistribution.sol\":2644:2649  token */\n      and(sub(shl(0xa0, 0x01), 0x01), sload(0x03))\n        /* \"SmartContractsInterview/MerkleDistribution.sol\":2636:2700  require(token != address(0), \"Token address shouldn't be zero!\") */\n      tag_131\n      jumpi\n      mload(0x40)\n      shl(0xe5, 0x461bcd)\n      dup2\n      mstore\n        /* \"#utility.yul\":5241:5243   */\n      0x20\n        /* \"SmartContractsInterview/MerkleDistribution.sol\":2636:2700  require(token != address(0), \"Token address shouldn't be zero!\") */\n      0x04\n      dup3\n      add\n        /* \"#utility.yul\":5223:5244   */\n      dup2\n      swap1\n      mstore\n        /* \"#utility.yul\":5260:5278   */\n      0x24\n      dup3\n      add\n        /* \"#utility.yul\":5253:5283   */\n      mstore\n        /* \"#utility.yul\":5319:5353   */\n      0x546f6b656e20616464726573732073686f756c646e2774206265207a65726f21\n        /* \"#utility.yul\":5299:5317   */\n      0x44\n      dup3\n      add\n        /* \"#utility.yul\":5292:5354   */\n      mstore\n        /* \"#utility.yul\":5371:5389   */\n      0x64\n      add\n        /* \"SmartContractsInterview/MerkleDistribution.sol\":2636:2700  require(token != address(0), \"Token address shouldn't be zero!\") */\n      tag_104\n        /* \"#utility.yul\":5039:5395   */\n      jump\n        /* \"SmartContractsInterview/MerkleDistribution.sol\":2636:2700  require(token != address(0), \"Token address shouldn't be zero!\") */\n    tag_131:\n        /* \"SmartContractsInterview/MerkleDistribution.sol\":2763:2768  token */\n      sload(0x03)\n        /* \"SmartContractsInterview/MerkleDistribution.sol\":2756:2794  IERC20(token).balanceOf(address(this)) */\n      mload(0x40)\n      shl(0xe0, 0x70a08231)\n      dup2\n      mstore\n        /* \"SmartContractsInterview/MerkleDistribution.sol\":2788:2792  this */\n      address\n        /* \"SmartContractsInterview/MerkleDistribution.sol\":2756:2794  IERC20(token).balanceOf(address(this)) */\n      0x04\n      dup3\n      add\n        /* \"#utility.yul\":2244:2295   */\n      mstore\n        /* \"SmartContractsInterview/MerkleDistribution.sol\":2797:2804  _amount */\n      dup6\n      swap2\n      sub(shl(0xa0, 0x01), 0x01)\n        /* \"SmartContractsInterview/MerkleDistribution.sol\":2763:2768  token */\n      and\n      swap1\n        /* \"SmartContractsInterview/MerkleDistribution.sol\":2756:2779  IERC20(token).balanceOf */\n      0x70a08231\n      swap1\n        /* \"#utility.yul\":2217:2235   */\n      0x24\n      add\n        /* \"SmartContractsInterview/MerkleDistribution.sol\":2756:2794  IERC20(token).balanceOf(address(this)) */\n      0x20\n      mload(0x40)\n      dup1\n      dup4\n      sub\n      dup2\n      dup7\n      gas\n      staticcall\n      iszero\n      dup1\n      iszero\n      tag_136\n      jumpi\n      returndatasize\n      0x00\n      dup1\n      returndatacopy\n      revert(0x00, returndatasize)\n    tag_136:\n      pop\n      pop\n      pop\n      pop\n      mload(0x40)\n      returndatasize\n      not(0x1f)\n      0x1f\n      dup3\n      add\n      and\n      dup3\n      add\n      dup1\n      0x40\n      mstore\n      pop\n      dup2\n      add\n      swap1\n      tag_137\n      swap2\n      swap1\n      tag_138\n      jump\t// in\n    tag_137:\n        /* \"SmartContractsInterview/MerkleDistribution.sol\":2756:2804  IERC20(token).balanceOf(address(this)) > _amount */\n      gt\n        /* \"SmartContractsInterview/MerkleDistribution.sol\":2735:2851  require(... */\n      tag_139\n      jumpi\n      mload(0x40)\n      shl(0xe5, 0x461bcd)\n      dup2\n      mstore\n        /* \"#utility.yul\":5791:5793   */\n      0x20\n        /* \"SmartContractsInterview/MerkleDistribution.sol\":2735:2851  require(... */\n      0x04\n      dup3\n      add\n        /* \"#utility.yul\":5773:5794   */\n      mstore\n        /* \"#utility.yul\":5830:5832   */\n      0x15\n        /* \"#utility.yul\":5810:5828   */\n      0x24\n      dup3\n      add\n        /* \"#utility.yul\":5803:5833   */\n      mstore\n      shl(0x58, 0x496e73756666696369656e742042616c616e636521)\n        /* \"#utility.yul\":5849:5867   */\n      0x44\n      dup3\n      add\n        /* \"#utility.yul\":5842:5893   */\n      mstore\n        /* \"#utility.yul\":5910:5928   */\n      0x64\n      add\n        /* \"SmartContractsInterview/MerkleDistribution.sol\":2735:2851  require(... */\n      tag_104\n        /* \"#utility.yul\":5589:5934   */\n      jump\n        /* \"SmartContractsInterview/MerkleDistribution.sol\":2735:2851  require(... */\n    tag_139:\n        /* \"SmartContractsInterview/MerkleDistribution.sol\":2865:2876  _amount > 0 */\n      dup4\n      iszero\n        /* \"SmartContractsInterview/MerkleDistribution.sol\":2861:2946  if (_amount > 0) {... */\n      tag_142\n      jumpi\n        /* \"SmartContractsInterview/MerkleDistribution.sol\":2899:2904  token */\n      sload(0x03)\n        /* \"SmartContractsInterview/MerkleDistribution.sol\":2892:2935  IERC20(token).transfer(msg.sender, _amount) */\n      mload(0x40)\n      shl(0xe0, 0xa9059cbb)\n      dup2\n      mstore\n        /* \"SmartContractsInterview/MerkleDistribution.sol\":2915:2925  msg.sender */\n      caller\n        /* \"SmartContractsInterview/MerkleDistribution.sol\":2892:2935  IERC20(token).transfer(msg.sender, _amount) */\n      0x04\n      dup3\n      add\n        /* \"#utility.yul\":6113:6164   */\n      mstore\n        /* \"#utility.yul\":6180:6198   */\n      0x24\n      dup2\n      add\n        /* \"#utility.yul\":6173:6207   */\n      dup7\n      swap1\n      mstore\n      sub(shl(0xa0, 0x01), 0x01)\n        /* \"SmartContractsInterview/MerkleDistribution.sol\":2899:2904  token */\n      swap1\n      swap2\n      and\n      swap1\n        /* \"SmartContractsInterview/MerkleDistribution.sol\":2892:2914  IERC20(token).transfer */\n      0xa9059cbb\n      swap1\n        /* \"#utility.yul\":6086:6104   */\n      0x44\n      add\n        /* \"SmartContractsInterview/MerkleDistribution.sol\":2892:2935  IERC20(token).transfer(msg.sender, _amount) */\n      0x20\n      mload(0x40)\n      dup1\n      dup4\n      sub\n      dup2\n      0x00\n      dup8\n      gas\n      call\n      iszero\n      dup1\n      iszero\n      tag_146\n      jumpi\n      returndatasize\n      0x00\n      dup1\n      returndatacopy\n      revert(0x00, returndatasize)\n    tag_146:\n      pop\n      pop\n      pop\n      pop\n      mload(0x40)\n      returndatasize\n      not(0x1f)\n      0x1f\n      dup3\n      add\n      and\n      dup3\n      add\n      dup1\n      0x40\n      mstore\n      pop\n      dup2\n      add\n      swap1\n      tag_147\n      swap2\n      swap1\n      tag_148\n      jump\t// in\n    tag_147:\n      pop\n        /* \"SmartContractsInterview/MerkleDistribution.sol\":2861:2946  if (_amount > 0) {... */\n    tag_142:\n        /* \"SmartContractsInterview/MerkleDistribution.sol\":3014:3024  msg.sender */\n      caller\n        /* \"SmartContractsInterview/MerkleDistribution.sol\":3006:3025  claimed[msg.sender] */\n      0x00\n      dup2\n      dup2\n      mstore\n        /* \"SmartContractsInterview/MerkleDistribution.sol\":3006:3013  claimed */\n      0x07\n        /* \"SmartContractsInterview/MerkleDistribution.sol\":3006:3025  claimed[msg.sender] */\n      0x20\n      mstore\n      0x40\n      swap1\n      dup2\n      swap1\n      keccak256\n        /* \"SmartContractsInterview/MerkleDistribution.sol\":3006:3032  claimed[msg.sender] = true */\n      dup1\n      sload\n      not(0xff)\n      and\n        /* \"SmartContractsInterview/MerkleDistribution.sol\":3028:3032  true */\n      0x01\n        /* \"SmartContractsInterview/MerkleDistribution.sol\":3006:3032  claimed[msg.sender] = true */\n      or\n      swap1\n      sstore\n        /* \"SmartContractsInterview/MerkleDistribution.sol\":3048:3076  Claimed(msg.sender, _amount) */\n      mload\n      0xd8138f8a3f377c5259ca548e70e4c2de94f129f5a11036a15b69513cba2b426a\n      swap1\n      tag_149\n      swap1\n        /* \"SmartContractsInterview/MerkleDistribution.sol\":3068:3075  _amount */\n      dup8\n        /* \"#utility.yul\":529:554   */\n      dup2\n      mstore\n        /* \"#utility.yul\":517:519   */\n      0x20\n        /* \"#utility.yul\":502:520   */\n      add\n      swap1\n        /* \"#utility.yul\":383:560   */\n      jump\n        /* \"SmartContractsInterview/MerkleDistribution.sol\":3048:3076  Claimed(msg.sender, _amount) */\n    tag_149:\n      mload(0x40)\n      dup1\n      swap2\n      sub\n      swap1\n      log2\n        /* \"SmartContractsInterview/MerkleDistribution.sol\":2329:3083  {... */\n      pop\n        /* \"@openzeppelin/contracts/security/ReentrancyGuard.sol\":2303:2323  _nonReentrantAfter() */\n      tag_150\n        /* \"@openzeppelin/contracts/security/ReentrancyGuard.sol\":1716:1717  1 */\n      0x01\n        /* \"@openzeppelin/contracts/security/ReentrancyGuard.sol\":2809:2831  _status = _NOT_ENTERED */\n      dup1\n      sstore\n        /* \"@openzeppelin/contracts/security/ReentrancyGuard.sol\":2629:2838  function _nonReentrantAfter() private {... */\n      jump\n        /* \"@openzeppelin/contracts/security/ReentrancyGuard.sol\":2303:2323  _nonReentrantAfter() */\n    tag_150:\n        /* \"SmartContractsInterview/MerkleDistribution.sol\":2188:3083  function claim(... */\n      pop\n      pop\n      pop\n      jump\t// out\n        /* \"SmartContractsInterview/MerkleDistribution.sol\":3376:3439  function unpause() public onlyOwner {... */\n    tag_41:\n        /* \"@openzeppelin/contracts/access/Ownable.sol\":1531:1544  _checkOwner() */\n      tag_153\n        /* \"@openzeppelin/contracts/access/Ownable.sol\":1531:1542  _checkOwner */\n      tag_101\n        /* \"@openzeppelin/contracts/access/Ownable.sol\":1531:1544  _checkOwner() */\n      jump\t// in\n    tag_153:\n        /* \"SmartContractsInterview/MerkleDistribution.sol\":3422:3432  _unpause() */\n      tag_155\n        /* \"SmartContractsInterview/MerkleDistribution.sol\":3422:3430  _unpause */\n      tag_156\n        /* \"SmartContractsInterview/MerkleDistribution.sol\":3422:3432  _unpause() */\n      jump\t// in\n    tag_155:\n        /* \"SmartContractsInterview/MerkleDistribution.sol\":3376:3439  function unpause() public onlyOwner {... */\n      jump\t// out\n        /* \"SmartContractsInterview/MerkleDistribution.sol\":1648:1762  function endClaimingRound() external onlyOwner {... */\n    tag_54:\n        /* \"@openzeppelin/contracts/access/Ownable.sol\":1531:1544  _checkOwner() */\n      tag_159\n        /* \"@openzeppelin/contracts/access/Ownable.sol\":1531:1542  _checkOwner */\n      tag_101\n        /* \"@openzeppelin/contracts/access/Ownable.sol\":1531:1544  _checkOwner() */\n      jump\t// in\n    tag_159:\n        /* \"SmartContractsInterview/MerkleDistribution.sol\":1705:1715  isClaiming */\n      0x04\n        /* \"SmartContractsInterview/MerkleDistribution.sol\":1705:1723  isClaiming = false */\n      dup1\n      sload\n      not(shl(0xa0, 0xff))\n      and\n      swap1\n      sstore\n        /* \"SmartContractsInterview/MerkleDistribution.sol\":1718:1723  false */\n      0x00\n        /* \"SmartContractsInterview/MerkleDistribution.sol\":1733:1751  startClaimingRound */\n      0x05\n        /* \"SmartContractsInterview/MerkleDistribution.sol\":1733:1755  startClaimingRound = 0 */\n      sstore\n        /* \"SmartContractsInterview/MerkleDistribution.sol\":1648:1762  function endClaimingRound() external onlyOwner {... */\n      jump\t// out\n        /* \"SmartContractsInterview/MerkleDistribution.sol\":1768:1890  function setClaimingRoundDuration(uint256 _duration) external onlyOwner {... */\n    tag_58:\n        /* \"@openzeppelin/contracts/access/Ownable.sol\":1531:1544  _checkOwner() */\n      tag_162\n        /* \"@openzeppelin/contracts/access/Ownable.sol\":1531:1542  _checkOwner */\n      tag_101\n        /* \"@openzeppelin/contracts/access/Ownable.sol\":1531:1544  _checkOwner() */\n      jump\t// in\n    tag_162:\n        /* \"SmartContractsInterview/MerkleDistribution.sol\":1850:1871  claimingRoundDuration */\n      0x06\n        /* \"SmartContractsInterview/MerkleDistribution.sol\":1850:1883  claimingRoundDuration = _duration */\n      sstore\n        /* \"SmartContractsInterview/MerkleDistribution.sol\":1768:1890  function setClaimingRoundDuration(uint256 _duration) external onlyOwner {... */\n      jump\t// out\n        /* \"@openzeppelin/contracts/access/Ownable.sol\":2293:2394  function renounceOwnership() public virtual onlyOwner {... */\n    tag_64:\n        /* \"@openzeppelin/contracts/access/Ownable.sol\":1531:1544  _checkOwner() */\n      tag_165\n        /* \"@openzeppelin/contracts/access/Ownable.sol\":1531:1542  _checkOwner */\n      tag_101\n        /* \"@openzeppelin/contracts/access/Ownable.sol\":1531:1544  _checkOwner() */\n      jump\t// in\n    tag_165:\n        /* \"@openzeppelin/contracts/access/Ownable.sol\":2357:2387  _transferOwnership(address(0)) */\n      tag_155\n        /* \"@openzeppelin/contracts/access/Ownable.sol\":2384:2385  0 */\n      0x00\n        /* \"@openzeppelin/contracts/access/Ownable.sol\":2357:2375  _transferOwnership */\n      tag_168\n        /* \"@openzeppelin/contracts/access/Ownable.sol\":2357:2387  _transferOwnership(address(0)) */\n      jump\t// in\n        /* \"SmartContractsInterview/MerkleDistribution.sol\":1244:1348  function setMerkleRoot(bytes32 _merkleRoot) external onlyOwner {... */\n    tag_68:\n        /* \"@openzeppelin/contracts/access/Ownable.sol\":1531:1544  _checkOwner() */\n      tag_170\n        /* \"@openzeppelin/contracts/access/Ownable.sol\":1531:1542  _checkOwner */\n      tag_101\n        /* \"@openzeppelin/contracts/access/Ownable.sol\":1531:1544  _checkOwner() */\n      jump\t// in\n    tag_170:\n        /* \"SmartContractsInterview/MerkleDistribution.sol\":1317:1327  merkleRoot */\n      0x02\n        /* \"SmartContractsInterview/MerkleDistribution.sol\":1317:1341  merkleRoot = _merkleRoot */\n      sstore\n        /* \"SmartContractsInterview/MerkleDistribution.sol\":1244:1348  function setMerkleRoot(bytes32 _merkleRoot) external onlyOwner {... */\n      jump\t// out\n        /* \"SmartContractsInterview/MerkleDistribution.sol\":3311:3370  function pause() public onlyOwner {... */\n    tag_73:\n        /* \"@openzeppelin/contracts/access/Ownable.sol\":1531:1544  _checkOwner() */\n      tag_173\n        /* \"@openzeppelin/contracts/access/Ownable.sol\":1531:1542  _checkOwner */\n      tag_101\n        /* \"@openzeppelin/contracts/access/Ownable.sol\":1531:1544  _checkOwner() */\n      jump\t// in\n    tag_173:\n        /* \"SmartContractsInterview/MerkleDistribution.sol\":3355:3363  _pause() */\n      tag_155\n        /* \"SmartContractsInterview/MerkleDistribution.sol\":3355:3361  _pause */\n      tag_176\n        /* \"SmartContractsInterview/MerkleDistribution.sol\":3355:3363  _pause() */\n      jump\t// in\n        /* \"SmartContractsInterview/MerkleDistribution.sol\":1896:2182  function verifyUser(... */\n    tag_80:\n        /* \"SmartContractsInterview/MerkleDistribution.sol\":2075:2107  abi.encodePacked(_user, _amount) */\n      mload(0x40)\n      not(0xffffffffffffffffffffffff)\n        /* \"#utility.yul\":4575:4577   */\n      0x60\n        /* \"#utility.yul\":4571:4586   */\n      dup7\n      swap1\n      shl\n        /* \"#utility.yul\":4567:4620   */\n      and\n        /* \"SmartContractsInterview/MerkleDistribution.sol\":2075:2107  abi.encodePacked(_user, _amount) */\n      0x20\n      dup3\n      add\n        /* \"#utility.yul\":4555:4621   */\n      mstore\n        /* \"#utility.yul\":4637:4649   */\n      0x34\n      dup2\n      add\n        /* \"#utility.yul\":4630:4658   */\n      dup5\n      swap1\n      mstore\n        /* \"SmartContractsInterview/MerkleDistribution.sol\":2034:2038  bool */\n      0x00\n      swap1\n      dup2\n      swap1\n        /* \"#utility.yul\":4674:4686   */\n      0x54\n      add\n        /* \"SmartContractsInterview/MerkleDistribution.sol\":2075:2107  abi.encodePacked(_user, _amount) */\n      mload(0x40)\n      0x20\n      dup2\n      dup4\n      sub\n      sub\n      dup2\n      mstore\n      swap1\n      0x40\n      mstore\n        /* \"SmartContractsInterview/MerkleDistribution.sol\":2065:2108  keccak256(abi.encodePacked(_user, _amount)) */\n      dup1\n      mload\n      swap1\n      0x20\n      add\n      keccak256\n        /* \"SmartContractsInterview/MerkleDistribution.sol\":2050:2108  bytes32 node = keccak256(abi.encodePacked(_user, _amount)) */\n      swap1\n      pop\n        /* \"SmartContractsInterview/MerkleDistribution.sol\":2125:2175  MerkleProof.verify(_merkleProof, merkleRoot, node) */\n      tag_180\n        /* \"SmartContractsInterview/MerkleDistribution.sol\":2144:2156  _merkleProof */\n      dup5\n      dup5\n        /* \"SmartContractsInterview/MerkleDistribution.sol\":2125:2175  MerkleProof.verify(_merkleProof, merkleRoot, node) */\n      dup1\n      dup1\n      0x20\n      mul\n      0x20\n      add\n      mload(0x40)\n      swap1\n      dup2\n      add\n      0x40\n      mstore\n      dup1\n      swap4\n      swap3\n      swap2\n      swap1\n      dup2\n      dup2\n      mstore\n      0x20\n      add\n      dup4\n      dup4\n      0x20\n      mul\n      dup1\n      dup3\n      dup5\n      calldatacopy\n      0x00\n      swap3\n      add\n      swap2\n      swap1\n      swap2\n      mstore\n      pop\n      pop\n        /* \"SmartContractsInterview/MerkleDistribution.sol\":2158:2168  merkleRoot */\n      sload(0x02)\n      swap2\n      pop\n        /* \"SmartContractsInterview/MerkleDistribution.sol\":2170:2174  node */\n      dup5\n      swap1\n      pop\n        /* \"SmartContractsInterview/MerkleDistribution.sol\":2125:2143  MerkleProof.verify */\n      tag_127\n        /* \"SmartContractsInterview/MerkleDistribution.sol\":2125:2175  MerkleProof.verify(_merkleProof, merkleRoot, node) */\n      jump\t// in\n    tag_180:\n        /* \"SmartContractsInterview/MerkleDistribution.sol\":2118:2175  return MerkleProof.verify(_merkleProof, merkleRoot, node) */\n      swap7\n        /* \"SmartContractsInterview/MerkleDistribution.sol\":1896:2182  function verifyUser(... */\n      swap6\n      pop\n      pop\n      pop\n      pop\n      pop\n      pop\n      jump\t// out\n        /* \"SmartContractsInterview/MerkleDistribution.sol\":1510:1642  function setStartClaimingRound() external onlyOwner {... */\n    tag_83:\n        /* \"@openzeppelin/contracts/access/Ownable.sol\":1531:1544  _checkOwner() */\n      tag_182\n        /* \"@openzeppelin/contracts/access/Ownable.sol\":1531:1542  _checkOwner */\n      tag_101\n        /* \"@openzeppelin/contracts/access/Ownable.sol\":1531:1544  _checkOwner() */\n      jump\t// in\n    tag_182:\n        /* \"SmartContractsInterview/MerkleDistribution.sol\":1572:1582  isClaiming */\n      0x04\n        /* \"SmartContractsInterview/MerkleDistribution.sol\":1572:1589  isClaiming = true */\n      dup1\n      sload\n      not(shl(0xa0, 0xff))\n      and\n      shl(0xa0, 0x01)\n      or\n      swap1\n      sstore\n        /* \"SmartContractsInterview/MerkleDistribution.sol\":1620:1635  block.timestamp */\n      timestamp\n        /* \"SmartContractsInterview/MerkleDistribution.sol\":1599:1617  startClaimingRound */\n      0x05\n        /* \"SmartContractsInterview/MerkleDistribution.sol\":1599:1635  startClaimingRound = block.timestamp */\n      sstore\n        /* \"SmartContractsInterview/MerkleDistribution.sol\":1510:1642  function setStartClaimingRound() external onlyOwner {... */\n      jump\t// out\n        /* \"SmartContractsInterview/MerkleDistribution.sol\":3445:3674  function checkClaimingRound() external view returns (bool) {... */\n    tag_85:\n        /* \"SmartContractsInterview/MerkleDistribution.sol\":3533:3543  isClaiming */\n      sload(0x04)\n        /* \"SmartContractsInterview/MerkleDistribution.sol\":3498:3502  bool */\n      0x00\n      swap1\n      shl(0xa0, 0x01)\n        /* \"SmartContractsInterview/MerkleDistribution.sol\":3533:3543  isClaiming */\n      swap1\n      div\n      0xff\n      and\n        /* \"SmartContractsInterview/MerkleDistribution.sol\":3533:3612  isClaiming && ((startClaimingRound + claimingRoundDuration) >= block.timestamp) */\n      dup1\n      iszero\n      tag_185\n      jumpi\n      pop\n        /* \"SmartContractsInterview/MerkleDistribution.sol\":3596:3611  block.timestamp */\n      timestamp\n        /* \"SmartContractsInterview/MerkleDistribution.sol\":3570:3591  claimingRoundDuration */\n      sload(0x06)\n        /* \"SmartContractsInterview/MerkleDistribution.sol\":3549:3567  startClaimingRound */\n      sload(0x05)\n        /* \"SmartContractsInterview/MerkleDistribution.sol\":3549:3591  startClaimingRound + claimingRoundDuration */\n      tag_186\n      swap2\n      swap1\n      tag_116\n      jump\t// in\n    tag_186:\n        /* \"SmartContractsInterview/MerkleDistribution.sol\":3548:3611  (startClaimingRound + claimingRoundDuration) >= block.timestamp */\n      lt\n      iszero\n        /* \"SmartContractsInterview/MerkleDistribution.sol\":3533:3612  isClaiming && ((startClaimingRound + claimingRoundDuration) >= block.timestamp) */\n    tag_185:\n        /* \"SmartContractsInterview/MerkleDistribution.sol\":3533:3667  isClaiming && ((startClaimingRound + claimingRoundDuration) >= block.timestamp) &&... */\n      dup1\n      iszero\n      tag_187\n      jumpi\n      pop\n        /* \"SmartContractsInterview/MerkleDistribution.sol\":3648:3666  startClaimingRound */\n      sload(0x05)\n        /* \"SmartContractsInterview/MerkleDistribution.sol\":3629:3644  block.timestamp */\n      timestamp\n        /* \"SmartContractsInterview/MerkleDistribution.sol\":3629:3666  block.timestamp >= startClaimingRound */\n      lt\n      iszero\n        /* \"SmartContractsInterview/MerkleDistribution.sol\":3533:3667  isClaiming && ((startClaimingRound + claimingRoundDuration) >= block.timestamp) &&... */\n    tag_187:\n        /* \"SmartContractsInterview/MerkleDistribution.sol\":3514:3667  return... */\n      swap1\n      pop\n        /* \"SmartContractsInterview/MerkleDistribution.sol\":3445:3674  function checkClaimingRound() external view returns (bool) {... */\n      swap1\n      jump\t// out\n        /* \"SmartContractsInterview/MerkleDistribution.sol\":3089:3305  function unClaimedTokenToTreasury() external onlyOwner {... */\n    tag_92:\n        /* \"@openzeppelin/contracts/access/Ownable.sol\":1531:1544  _checkOwner() */\n      tag_189\n        /* \"@openzeppelin/contracts/access/Ownable.sol\":1531:1542  _checkOwner */\n      tag_101\n        /* \"@openzeppelin/contracts/access/Ownable.sol\":1531:1544  _checkOwner() */\n      jump\t// in\n    tag_189:\n        /* \"SmartContractsInterview/MerkleDistribution.sol\":3181:3186  token */\n      sload(0x03)\n        /* \"SmartContractsInterview/MerkleDistribution.sol\":3215:3250  tokenERC20.balanceOf(address(this)) */\n      mload(0x40)\n      shl(0xe0, 0x70a08231)\n      dup2\n      mstore\n        /* \"SmartContractsInterview/MerkleDistribution.sol\":3244:3248  this */\n      address\n        /* \"SmartContractsInterview/MerkleDistribution.sol\":3215:3250  tokenERC20.balanceOf(address(this)) */\n      0x04\n      dup3\n      add\n        /* \"#utility.yul\":2244:2295   */\n      mstore\n      sub(shl(0xa0, 0x01), 0x01)\n        /* \"SmartContractsInterview/MerkleDistribution.sol\":3181:3186  token */\n      swap1\n      swap2\n      and\n      swap1\n        /* \"SmartContractsInterview/MerkleDistribution.sol\":3154:3171  IERC20 tokenERC20 */\n      0x00\n      swap1\n        /* \"SmartContractsInterview/MerkleDistribution.sol\":3181:3186  token */\n      dup3\n      swap1\n        /* \"SmartContractsInterview/MerkleDistribution.sol\":3215:3235  tokenERC20.balanceOf */\n      0x70a08231\n      swap1\n        /* \"#utility.yul\":2217:2235   */\n      0x24\n      add\n        /* \"SmartContractsInterview/MerkleDistribution.sol\":3215:3250  tokenERC20.balanceOf(address(this)) */\n      0x20\n      mload(0x40)\n      dup1\n      dup4\n      sub\n      dup2\n      dup7\n      gas\n      staticcall\n      iszero\n      dup1\n      iszero\n      tag_193\n      jumpi\n      returndatasize\n      0x00\n      dup1\n      returndatacopy\n      revert(0x00, returndatasize)\n    tag_193:\n      pop\n      pop\n      pop\n      pop\n      mload(0x40)\n      returndatasize\n      not(0x1f)\n      0x1f\n      dup3\n      add\n      and\n      dup3\n      add\n      dup1\n      0x40\n      mstore\n      pop\n      dup2\n      add\n      swap1\n      tag_194\n      swap2\n      swap1\n      tag_138\n      jump\t// in\n    tag_194:\n        /* \"SmartContractsInterview/MerkleDistribution.sol\":3280:3288  treasury */\n      0x04\n      dup1\n      sload\n        /* \"SmartContractsInterview/MerkleDistribution.sol\":3260:3298  tokenERC20.transfer(treasury, balance) */\n      mload(0x40)\n      shl(0xe0, 0xa9059cbb)\n      dup2\n      mstore\n      sub(shl(0xa0, 0x01), 0x01)\n        /* \"SmartContractsInterview/MerkleDistribution.sol\":3280:3288  treasury */\n      swap2\n      dup3\n      and\n        /* \"SmartContractsInterview/MerkleDistribution.sol\":3260:3298  tokenERC20.transfer(treasury, balance) */\n      swap3\n      dup2\n      add\n        /* \"#utility.yul\":6113:6164   */\n      swap3\n      swap1\n      swap3\n      mstore\n        /* \"#utility.yul\":6180:6198   */\n      0x24\n      dup3\n      add\n        /* \"#utility.yul\":6173:6207   */\n      dup4\n      swap1\n      mstore\n        /* \"SmartContractsInterview/MerkleDistribution.sol\":3197:3250  uint256 balance = tokenERC20.balanceOf(address(this)) */\n      swap2\n      swap3\n      pop\n        /* \"SmartContractsInterview/MerkleDistribution.sol\":3260:3279  tokenERC20.transfer */\n      swap1\n      dup4\n      and\n      swap1\n      0xa9059cbb\n      swap1\n        /* \"#utility.yul\":6086:6104   */\n      0x44\n      add\n        /* \"SmartContractsInterview/MerkleDistribution.sol\":3260:3298  tokenERC20.transfer(treasury, balance) */\n      0x20\n      mload(0x40)\n      dup1\n      dup4\n      sub\n      dup2\n      0x00\n      dup8\n      gas\n      call\n      iszero\n      dup1\n      iszero\n      tag_197\n      jumpi\n      returndatasize\n      0x00\n      dup1\n      returndatacopy\n      revert(0x00, returndatasize)\n    tag_197:\n      pop\n      pop\n      pop\n      pop\n      mload(0x40)\n      returndatasize\n      not(0x1f)\n      0x1f\n      dup3\n      add\n      and\n      dup3\n      add\n      dup1\n      0x40\n      mstore\n      pop\n      dup2\n      add\n      swap1\n      tag_150\n      swap2\n      swap1\n      tag_148\n      jump\t// in\n        /* \"@openzeppelin/contracts/access/Ownable.sol\":2543:2758  function transferOwnership(address newOwner) public virtual onlyOwner {... */\n    tag_95:\n        /* \"@openzeppelin/contracts/access/Ownable.sol\":1531:1544  _checkOwner() */\n      tag_200\n        /* \"@openzeppelin/contracts/access/Ownable.sol\":1531:1542  _checkOwner */\n      tag_101\n        /* \"@openzeppelin/contracts/access/Ownable.sol\":1531:1544  _checkOwner() */\n      jump\t// in\n    tag_200:\n      sub(shl(0xa0, 0x01), 0x01)\n        /* \"@openzeppelin/contracts/access/Ownable.sol\":2627:2649  newOwner == address(0) */\n      dup2\n      and\n        /* \"@openzeppelin/contracts/access/Ownable.sol\":2623:2714  if (newOwner == address(0)) {... */\n      tag_202\n      jumpi\n        /* \"@openzeppelin/contracts/access/Ownable.sol\":2672:2703  OwnableInvalidOwner(address(0)) */\n      mload(0x40)\n      shl(0xe0, 0x1e4fbdf7)\n      dup2\n      mstore\n        /* \"@openzeppelin/contracts/access/Ownable.sol\":2700:2701  0 */\n      0x00\n        /* \"@openzeppelin/contracts/access/Ownable.sol\":2672:2703  OwnableInvalidOwner(address(0)) */\n      0x04\n      dup3\n      add\n        /* \"#utility.yul\":2244:2295   */\n      mstore\n        /* \"#utility.yul\":2217:2235   */\n      0x24\n      add\n        /* \"@openzeppelin/contracts/access/Ownable.sol\":2672:2703  OwnableInvalidOwner(address(0)) */\n      tag_104\n        /* \"#utility.yul\":2098:2301   */\n      jump\n        /* \"@openzeppelin/contracts/access/Ownable.sol\":2623:2714  if (newOwner == address(0)) {... */\n    tag_202:\n        /* \"@openzeppelin/contracts/access/Ownable.sol\":2723:2751  _transferOwnership(newOwner) */\n      tag_204\n        /* \"@openzeppelin/contracts/access/Ownable.sol\":2742:2750  newOwner */\n      dup2\n        /* \"@openzeppelin/contracts/access/Ownable.sol\":2723:2741  _transferOwnership */\n      tag_168\n        /* \"@openzeppelin/contracts/access/Ownable.sol\":2723:2751  _transferOwnership(newOwner) */\n      jump\t// in\n    tag_204:\n        /* \"@openzeppelin/contracts/access/Ownable.sol\":2543:2758  function transferOwnership(address newOwner) public virtual onlyOwner {... */\n      pop\n      jump\t// out\n        /* \"@openzeppelin/contracts/access/Ownable.sol\":1796:1958  function _checkOwner() internal view virtual {... */\n    tag_101:\n        /* \"@openzeppelin/contracts/access/Ownable.sol\":1684:1691  address */\n      0x00\n        /* \"@openzeppelin/contracts/access/Ownable.sol\":1710:1716  _owner */\n      sload\n      sub(shl(0xa0, 0x01), 0x01)\n      0x0100\n      swap1\n      swap2\n      div\n      and\n        /* \"@openzeppelin/contracts/utils/Context.sol\":735:745  msg.sender */\n      caller\n        /* \"@openzeppelin/contracts/access/Ownable.sol\":1855:1878  owner() != _msgSender() */\n      eq\n        /* \"@openzeppelin/contracts/access/Ownable.sol\":1851:1952  if (owner() != _msgSender()) {... */\n      tag_155\n      jumpi\n        /* \"@openzeppelin/contracts/access/Ownable.sol\":1901:1941  OwnableUnauthorizedAccount(_msgSender()) */\n      mload(0x40)\n      shl(0xe0, 0x118cdaa7)\n      dup2\n      mstore\n        /* \"@openzeppelin/contracts/utils/Context.sol\":735:745  msg.sender */\n      caller\n        /* \"@openzeppelin/contracts/access/Ownable.sol\":1901:1941  OwnableUnauthorizedAccount(_msgSender()) */\n      0x04\n      dup3\n      add\n        /* \"#utility.yul\":2244:2295   */\n      mstore\n        /* \"#utility.yul\":2217:2235   */\n      0x24\n      add\n        /* \"@openzeppelin/contracts/access/Ownable.sol\":1901:1941  OwnableUnauthorizedAccount(_msgSender()) */\n      tag_104\n        /* \"#utility.yul\":2098:2301   */\n      jump\n        /* \"@openzeppelin/contracts/security/Pausable.sol\":1767:1873  function _requireNotPaused() internal view virtual {... */\n    tag_108:\n        /* \"@openzeppelin/contracts/security/Pausable.sol\":1662:1666  bool */\n      0x00\n        /* \"@openzeppelin/contracts/security/Pausable.sol\":1685:1692  _paused */\n      sload\n      0xff\n      and\n        /* \"@openzeppelin/contracts/security/Pausable.sol\":1836:1845  !paused() */\n      iszero\n        /* \"@openzeppelin/contracts/security/Pausable.sol\":1828:1866  require(!paused(), \"Pausable: paused\") */\n      tag_155\n      jumpi\n      mload(0x40)\n      shl(0xe5, 0x461bcd)\n      dup2\n      mstore\n        /* \"#utility.yul\":6702:6704   */\n      0x20\n        /* \"@openzeppelin/contracts/security/Pausable.sol\":1828:1866  require(!paused(), \"Pausable: paused\") */\n      0x04\n      dup3\n      add\n        /* \"#utility.yul\":6684:6705   */\n      mstore\n        /* \"#utility.yul\":6741:6743   */\n      0x10\n        /* \"#utility.yul\":6721:6739   */\n      0x24\n      dup3\n      add\n        /* \"#utility.yul\":6714:6744   */\n      mstore\n      shl(0x82, 0x14185d5cd8589b194e881c185d5cd959)\n        /* \"#utility.yul\":6760:6778   */\n      0x44\n      dup3\n      add\n        /* \"#utility.yul\":6753:6799   */\n      mstore\n        /* \"#utility.yul\":6816:6834   */\n      0x64\n      add\n        /* \"@openzeppelin/contracts/security/Pausable.sol\":1828:1866  require(!paused(), \"Pausable: paused\") */\n      tag_104\n        /* \"#utility.yul\":6500:6840   */\n      jump\n        /* \"@openzeppelin/contracts/security/ReentrancyGuard.sol\":2336:2623  function _nonReentrantBefore() private {... */\n    tag_111:\n        /* \"@openzeppelin/contracts/security/ReentrancyGuard.sol\":1759:1760  2 */\n      0x02\n        /* \"@openzeppelin/contracts/security/ReentrancyGuard.sol\":2468:2475  _status */\n      sload(0x01)\n        /* \"@openzeppelin/contracts/security/ReentrancyGuard.sol\":2468:2487  _status != _ENTERED */\n      sub\n        /* \"@openzeppelin/contracts/security/ReentrancyGuard.sol\":2460:2523  require(_status != _ENTERED, \"ReentrancyGuard: reentrant call\") */\n      tag_218\n      jumpi\n      mload(0x40)\n      shl(0xe5, 0x461bcd)\n      dup2\n      mstore\n        /* \"#utility.yul\":7047:7049   */\n      0x20\n        /* \"@openzeppelin/contracts/security/ReentrancyGuard.sol\":2460:2523  require(_status != _ENTERED, \"ReentrancyGuard: reentrant call\") */\n      0x04\n      dup3\n      add\n        /* \"#utility.yul\":7029:7050   */\n      mstore\n        /* \"#utility.yul\":7086:7088   */\n      0x1f\n        /* \"#utility.yul\":7066:7084   */\n      0x24\n      dup3\n      add\n        /* \"#utility.yul\":7059:7089   */\n      mstore\n        /* \"#utility.yul\":7125:7158   */\n      0x5265656e7472616e637947756172643a207265656e7472616e742063616c6c00\n        /* \"#utility.yul\":7105:7123   */\n      0x44\n      dup3\n      add\n        /* \"#utility.yul\":7098:7159   */\n      mstore\n        /* \"#utility.yul\":7176:7194   */\n      0x64\n      add\n        /* \"@openzeppelin/contracts/security/ReentrancyGuard.sol\":2460:2523  require(_status != _ENTERED, \"ReentrancyGuard: reentrant call\") */\n      tag_104\n        /* \"#utility.yul\":6845:7200   */\n      jump\n        /* \"@openzeppelin/contracts/security/ReentrancyGuard.sol\":2460:2523  require(_status != _ENTERED, \"ReentrancyGuard: reentrant call\") */\n    tag_218:\n        /* \"@openzeppelin/contracts/security/ReentrancyGuard.sol\":1759:1760  2 */\n      0x02\n        /* \"@openzeppelin/contracts/security/ReentrancyGuard.sol\":2598:2605  _status */\n      0x01\n        /* \"@openzeppelin/contracts/security/ReentrancyGuard.sol\":2598:2616  _status = _ENTERED */\n      sstore\n        /* \"@openzeppelin/contracts/security/ReentrancyGuard.sol\":2336:2623  function _nonReentrantBefore() private {... */\n      jump\t// out\n        /* \"@openzeppelin/contracts/utils/cryptography/MerkleProof.sol\":1265:1419  function verify(bytes32[] memory proof, bytes32 root, bytes32 leaf) internal pure returns (bool) {... */\n    tag_127:\n        /* \"@openzeppelin/contracts/utils/cryptography/MerkleProof.sol\":1356:1360  bool */\n      0x00\n        /* \"@openzeppelin/contracts/utils/cryptography/MerkleProof.sol\":1408:1412  root */\n      dup3\n        /* \"@openzeppelin/contracts/utils/cryptography/MerkleProof.sol\":1379:1404  processProof(proof, leaf) */\n      tag_222\n        /* \"@openzeppelin/contracts/utils/cryptography/MerkleProof.sol\":1392:1397  proof */\n      dup6\n        /* \"@openzeppelin/contracts/utils/cryptography/MerkleProof.sol\":1399:1403  leaf */\n      dup5\n        /* \"@openzeppelin/contracts/utils/cryptography/MerkleProof.sol\":1379:1391  processProof */\n      tag_223\n        /* \"@openzeppelin/contracts/utils/cryptography/MerkleProof.sol\":1379:1404  processProof(proof, leaf) */\n      jump\t// in\n    tag_222:\n        /* \"@openzeppelin/contracts/utils/cryptography/MerkleProof.sol\":1379:1412  processProof(proof, leaf) == root */\n      eq\n      swap5\n        /* \"@openzeppelin/contracts/utils/cryptography/MerkleProof.sol\":1265:1419  function verify(bytes32[] memory proof, bytes32 root, bytes32 leaf) internal pure returns (bool) {... */\n      swap4\n      pop\n      pop\n      pop\n      pop\n      jump\t// out\n        /* \"@openzeppelin/contracts/security/Pausable.sol\":2433:2550  function _unpause() internal virtual whenPaused {... */\n    tag_156:\n        /* \"@openzeppelin/contracts/security/Pausable.sol\":1486:1502  _requirePaused() */\n      tag_226\n        /* \"@openzeppelin/contracts/security/Pausable.sol\":1486:1500  _requirePaused */\n      tag_227\n        /* \"@openzeppelin/contracts/security/Pausable.sol\":1486:1502  _requirePaused() */\n      jump\t// in\n    tag_226:\n        /* \"@openzeppelin/contracts/security/Pausable.sol\":2501:2506  false */\n      0x00\n        /* \"@openzeppelin/contracts/security/Pausable.sol\":2491:2506  _paused = false */\n      dup1\n      sload\n      not(0xff)\n      and\n      swap1\n      sstore\n        /* \"@openzeppelin/contracts/security/Pausable.sol\":2521:2543  Unpaused(_msgSender()) */\n      0x5db9ee0a495bf2e6ff9c91a7834c1ba4fdd244a5e8aa4e537bd38aeae4b073aa\n        /* \"@openzeppelin/contracts/utils/Context.sol\":735:745  msg.sender */\n      caller\n        /* \"@openzeppelin/contracts/security/Pausable.sol\":2530:2542  _msgSender() */\n    tag_229:\n        /* \"@openzeppelin/contracts/security/Pausable.sol\":2521:2543  Unpaused(_msgSender()) */\n      mload(0x40)\n      sub(shl(0xa0, 0x01), 0x01)\n        /* \"#utility.yul\":2262:2294   */\n      swap1\n      swap2\n      and\n        /* \"#utility.yul\":2244:2295   */\n      dup2\n      mstore\n        /* \"#utility.yul\":2232:2234   */\n      0x20\n        /* \"#utility.yul\":2217:2235   */\n      add\n        /* \"@openzeppelin/contracts/security/Pausable.sol\":2521:2543  Unpaused(_msgSender()) */\n      mload(0x40)\n      dup1\n      swap2\n      sub\n      swap1\n      log1\n        /* \"@openzeppelin/contracts/security/Pausable.sol\":2433:2550  function _unpause() internal virtual whenPaused {... */\n      jump\t// out\n        /* \"@openzeppelin/contracts/access/Ownable.sol\":2912:3099  function _transferOwnership(address newOwner) internal virtual {... */\n    tag_168:\n        /* \"@openzeppelin/contracts/access/Ownable.sol\":2985:3001  address oldOwner */\n      0x00\n        /* \"@openzeppelin/contracts/access/Ownable.sol\":3004:3010  _owner */\n      dup1\n      sload\n      sub(shl(0xa0, 0x01), 0x01)\n        /* \"@openzeppelin/contracts/access/Ownable.sol\":3020:3037  _owner = newOwner */\n      dup4\n      dup2\n      and\n        /* \"@openzeppelin/contracts/access/Ownable.sol\":3004:3010  _owner */\n      0x0100\n        /* \"@openzeppelin/contracts/access/Ownable.sol\":3020:3037  _owner = newOwner */\n      dup2\n      dup2\n      mul\n      not(sub(shl(0xa8, 0x01), 0x0100))\n      dup6\n      and\n      or\n      dup6\n      sstore\n        /* \"@openzeppelin/contracts/access/Ownable.sol\":3052:3092  OwnershipTransferred(oldOwner, newOwner) */\n      mload(0x40)\n        /* \"@openzeppelin/contracts/access/Ownable.sol\":3004:3010  _owner */\n      swap4\n      div\n      swap2\n      swap1\n      swap2\n      and\n      swap3\n        /* \"@openzeppelin/contracts/access/Ownable.sol\":3020:3037  _owner = newOwner */\n      swap1\n      swap2\n        /* \"@openzeppelin/contracts/access/Ownable.sol\":3004:3010  _owner */\n      dup4\n      swap2\n        /* \"@openzeppelin/contracts/access/Ownable.sol\":3052:3092  OwnershipTransferred(oldOwner, newOwner) */\n      0x8be0079c531659141344cd1fd0a4f28419497f9722a3daafe3b4186f6b6457e0\n      swap2\n      log3\n        /* \"@openzeppelin/contracts/access/Ownable.sol\":2975:3099  {... */\n      pop\n        /* \"@openzeppelin/contracts/access/Ownable.sol\":2912:3099  function _transferOwnership(address newOwner) internal virtual {... */\n      pop\n      jump\t// out\n        /* \"@openzeppelin/contracts/security/Pausable.sol\":2186:2301  function _pause() internal virtual whenNotPaused {... */\n    tag_176:\n        /* \"@openzeppelin/contracts/security/Pausable.sol\":1239:1258  _requireNotPaused() */\n      tag_233\n        /* \"@openzeppelin/contracts/security/Pausable.sol\":1239:1256  _requireNotPaused */\n      tag_108\n        /* \"@openzeppelin/contracts/security/Pausable.sol\":1239:1258  _requireNotPaused() */\n      jump\t// in\n    tag_233:\n        /* \"@openzeppelin/contracts/security/Pausable.sol\":2245:2252  _paused */\n      0x00\n        /* \"@openzeppelin/contracts/security/Pausable.sol\":2245:2259  _paused = true */\n      dup1\n      sload\n      not(0xff)\n      and\n        /* \"@openzeppelin/contracts/security/Pausable.sol\":2255:2259  true */\n      0x01\n        /* \"@openzeppelin/contracts/security/Pausable.sol\":2245:2259  _paused = true */\n      or\n      swap1\n      sstore\n        /* \"@openzeppelin/contracts/security/Pausable.sol\":2274:2294  Paused(_msgSender()) */\n      0x62e78cea01bee320cd4e420270b5ea74000d11b0c9f74754ebdbfc544b05a258\n        /* \"@openzeppelin/contracts/security/Pausable.sol\":2281:2293  _msgSender() */\n      tag_229\n        /* \"@openzeppelin/contracts/utils/Context.sol\":735:745  msg.sender */\n      caller\n      swap1\n        /* \"@openzeppelin/contracts/utils/Context.sol\":656:752  function _msgSender() internal view virtual returns (address) {... */\n      jump\n        /* \"@openzeppelin/contracts/utils/cryptography/MerkleProof.sol\":1967:2257  function processProof(bytes32[] memory proof, bytes32 leaf) internal pure returns (bytes32) {... */\n    tag_223:\n        /* \"@openzeppelin/contracts/utils/cryptography/MerkleProof.sol\":2050:2057  bytes32 */\n      0x00\n        /* \"@openzeppelin/contracts/utils/cryptography/MerkleProof.sol\":2092:2096  leaf */\n      dup2\n        /* \"@openzeppelin/contracts/utils/cryptography/MerkleProof.sol\":2050:2057  bytes32 */\n      dup2\n        /* \"@openzeppelin/contracts/utils/cryptography/MerkleProof.sol\":2106:2222  for (uint256 i = 0; i < proof.length; i++) {... */\n    tag_239:\n        /* \"@openzeppelin/contracts/utils/cryptography/MerkleProof.sol\":2130:2135  proof */\n      dup5\n        /* \"@openzeppelin/contracts/utils/cryptography/MerkleProof.sol\":2130:2142  proof.length */\n      mload\n        /* \"@openzeppelin/contracts/utils/cryptography/MerkleProof.sol\":2126:2127  i */\n      dup2\n        /* \"@openzeppelin/contracts/utils/cryptography/MerkleProof.sol\":2126:2142  i < proof.length */\n      lt\n        /* \"@openzeppelin/contracts/utils/cryptography/MerkleProof.sol\":2106:2222  for (uint256 i = 0; i < proof.length; i++) {... */\n      iszero\n      tag_240\n      jumpi\n        /* \"@openzeppelin/contracts/utils/cryptography/MerkleProof.sol\":2178:2211  _hashPair(computedHash, proof[i]) */\n      tag_242\n        /* \"@openzeppelin/contracts/utils/cryptography/MerkleProof.sol\":2188:2200  computedHash */\n      dup3\n        /* \"@openzeppelin/contracts/utils/cryptography/MerkleProof.sol\":2202:2207  proof */\n      dup7\n        /* \"@openzeppelin/contracts/utils/cryptography/MerkleProof.sol\":2208:2209  i */\n      dup4\n        /* \"@openzeppelin/contracts/utils/cryptography/MerkleProof.sol\":2202:2210  proof[i] */\n      dup2\n      mload\n      dup2\n      lt\n      tag_244\n      jumpi\n      tag_244\n      tag_245\n      jump\t// in\n    tag_244:\n      0x20\n      mul\n      0x20\n      add\n      add\n      mload\n        /* \"@openzeppelin/contracts/utils/cryptography/MerkleProof.sol\":2178:2187  _hashPair */\n      tag_246\n        /* \"@openzeppelin/contracts/utils/cryptography/MerkleProof.sol\":2178:2211  _hashPair(computedHash, proof[i]) */\n      jump\t// in\n    tag_242:\n        /* \"@openzeppelin/contracts/utils/cryptography/MerkleProof.sol\":2163:2211  computedHash = _hashPair(computedHash, proof[i]) */\n      swap2\n      pop\n        /* \"@openzeppelin/contracts/utils/cryptography/MerkleProof.sol\":2144:2147  i++ */\n      0x01\n      add\n        /* \"@openzeppelin/contracts/utils/cryptography/MerkleProof.sol\":2106:2222  for (uint256 i = 0; i < proof.length; i++) {... */\n      jump(tag_239)\n    tag_240:\n      pop\n        /* \"@openzeppelin/contracts/utils/cryptography/MerkleProof.sol\":2238:2250  computedHash */\n      swap1\n      pop\n        /* \"@openzeppelin/contracts/utils/cryptography/MerkleProof.sol\":1967:2257  function processProof(bytes32[] memory proof, bytes32 leaf) internal pure returns (bytes32) {... */\n    tag_238:\n      swap3\n      swap2\n      pop\n      pop\n      jump\t// out\n        /* \"@openzeppelin/contracts/security/Pausable.sol\":1945:2051  function _requirePaused() internal view virtual {... */\n    tag_227:\n        /* \"@openzeppelin/contracts/security/Pausable.sol\":1662:1666  bool */\n      0x00\n        /* \"@openzeppelin/contracts/security/Pausable.sol\":1685:1692  _paused */\n      sload\n      0xff\n      and\n        /* \"@openzeppelin/contracts/security/Pausable.sol\":2003:2044  require(paused(), \"Pausable: not paused\") */\n      tag_155\n      jumpi\n      mload(0x40)\n      shl(0xe5, 0x461bcd)\n      dup2\n      mstore\n        /* \"#utility.yul\":7539:7541   */\n      0x20\n        /* \"@openzeppelin/contracts/security/Pausable.sol\":2003:2044  require(paused(), \"Pausable: not paused\") */\n      0x04\n      dup3\n      add\n        /* \"#utility.yul\":7521:7542   */\n      mstore\n        /* \"#utility.yul\":7578:7580   */\n      0x14\n        /* \"#utility.yul\":7558:7576   */\n      0x24\n      dup3\n      add\n        /* \"#utility.yul\":7551:7581   */\n      mstore\n      shl(0x62, 0x14185d5cd8589b194e881b9bdd081c185d5cd959)\n        /* \"#utility.yul\":7597:7615   */\n      0x44\n      dup3\n      add\n        /* \"#utility.yul\":7590:7640   */\n      mstore\n        /* \"#utility.yul\":7657:7675   */\n      0x64\n      add\n        /* \"@openzeppelin/contracts/security/Pausable.sol\":2003:2044  require(paused(), \"Pausable: not paused\") */\n      tag_104\n        /* \"#utility.yul\":7337:7681   */\n      jump\n        /* \"@openzeppelin/contracts/utils/cryptography/MerkleProof.sol\":9229:9376  function _hashPair(bytes32 a, bytes32 b) private pure returns (bytes32) {... */\n    tag_246:\n        /* \"@openzeppelin/contracts/utils/cryptography/MerkleProof.sol\":9292:9299  bytes32 */\n      0x00\n        /* \"@openzeppelin/contracts/utils/cryptography/MerkleProof.sol\":9322:9323  b */\n      dup2\n        /* \"@openzeppelin/contracts/utils/cryptography/MerkleProof.sol\":9318:9319  a */\n      dup4\n        /* \"@openzeppelin/contracts/utils/cryptography/MerkleProof.sol\":9318:9323  a < b */\n      lt\n        /* \"@openzeppelin/contracts/utils/cryptography/MerkleProof.sol\":9318:9369  a < b ? _efficientHash(a, b) : _efficientHash(b, a) */\n      tag_253\n      jumpi\n        /* \"@openzeppelin/contracts/utils/cryptography/MerkleProof.sol\":9564:9577  bytes32 value */\n      0x00\n        /* \"@openzeppelin/contracts/utils/cryptography/MerkleProof.sol\":9655:9670  mstore(0x00, a) */\n      dup3\n      dup2\n      mstore\n        /* \"@openzeppelin/contracts/utils/cryptography/MerkleProof.sol\":9690:9694  0x20 */\n      0x20\n        /* \"@openzeppelin/contracts/utils/cryptography/MerkleProof.sol\":9683:9698  mstore(0x20, b) */\n      dup5\n      swap1\n      mstore\n        /* \"@openzeppelin/contracts/utils/cryptography/MerkleProof.sol\":9736:9740  0x40 */\n      0x40\n        /* \"@openzeppelin/contracts/utils/cryptography/MerkleProof.sol\":9720:9741  keccak256(0x00, 0x40) */\n      swap1\n      keccak256\n        /* \"@openzeppelin/contracts/utils/cryptography/MerkleProof.sol\":9318:9369  a < b ? _efficientHash(a, b) : _efficientHash(b, a) */\n      jump(tag_257)\n    tag_253:\n        /* \"@openzeppelin/contracts/utils/cryptography/MerkleProof.sol\":9564:9577  bytes32 value */\n      0x00\n        /* \"@openzeppelin/contracts/utils/cryptography/MerkleProof.sol\":9655:9670  mstore(0x00, a) */\n      dup4\n      dup2\n      mstore\n        /* \"@openzeppelin/contracts/utils/cryptography/MerkleProof.sol\":9690:9694  0x20 */\n      0x20\n        /* \"@openzeppelin/contracts/utils/cryptography/MerkleProof.sol\":9683:9698  mstore(0x20, b) */\n      dup4\n      swap1\n      mstore\n        /* \"@openzeppelin/contracts/utils/cryptography/MerkleProof.sol\":9736:9740  0x40 */\n      0x40\n        /* \"@openzeppelin/contracts/utils/cryptography/MerkleProof.sol\":9720:9741  keccak256(0x00, 0x40) */\n      swap1\n      keccak256\n        /* \"@openzeppelin/contracts/utils/cryptography/MerkleProof.sol\":9326:9346  _efficientHash(a, b) */\n    tag_257:\n        /* \"@openzeppelin/contracts/utils/cryptography/MerkleProof.sol\":9311:9369  return a < b ? _efficientHash(a, b) : _efficientHash(b, a) */\n      swap4\n        /* \"@openzeppelin/contracts/utils/cryptography/MerkleProof.sol\":9229:9376  function _hashPair(bytes32 a, bytes32 b) private pure returns (bytes32) {... */\n      swap3\n      pop\n      pop\n      pop\n      jump\t// out\n        /* \"#utility.yul\":14:187   */\n    tag_259:\n        /* \"#utility.yul\":82:102   */\n      dup1\n      calldataload\n      sub(shl(0xa0, 0x01), 0x01)\n        /* \"#utility.yul\":131:162   */\n      dup2\n      and\n        /* \"#utility.yul\":121:163   */\n      dup2\n      eq\n        /* \"#utility.yul\":111:181   */\n      tag_263\n      jumpi\n        /* \"#utility.yul\":177:178   */\n      0x00\n        /* \"#utility.yul\":174:175   */\n      dup1\n        /* \"#utility.yul\":167:179   */\n      revert\n        /* \"#utility.yul\":111:181   */\n    tag_263:\n        /* \"#utility.yul\":14:187   */\n      swap2\n      swap1\n      pop\n      jump\t// out\n        /* \"#utility.yul\":192:378   */\n    tag_30:\n        /* \"#utility.yul\":251:257   */\n      0x00\n        /* \"#utility.yul\":304:306   */\n      0x20\n        /* \"#utility.yul\":292:301   */\n      dup3\n        /* \"#utility.yul\":283:290   */\n      dup5\n        /* \"#utility.yul\":279:302   */\n      sub\n        /* \"#utility.yul\":275:307   */\n      slt\n        /* \"#utility.yul\":272:324   */\n      iszero\n      tag_265\n      jumpi\n        /* \"#utility.yul\":320:321   */\n      0x00\n        /* \"#utility.yul\":317:318   */\n      dup1\n        /* \"#utility.yul\":310:322   */\n      revert\n        /* \"#utility.yul\":272:324   */\n    tag_265:\n        /* \"#utility.yul\":343:372   */\n      tag_257\n        /* \"#utility.yul\":362:371   */\n      dup3\n        /* \"#utility.yul\":343:372   */\n      tag_259\n      jump\t// in\n        /* \"#utility.yul\":565:932   */\n    tag_260:\n        /* \"#utility.yul\":628:636   */\n      0x00\n        /* \"#utility.yul\":638:644   */\n      dup1\n        /* \"#utility.yul\":692:695   */\n      dup4\n        /* \"#utility.yul\":685:689   */\n      0x1f\n        /* \"#utility.yul\":677:683   */\n      dup5\n        /* \"#utility.yul\":673:690   */\n      add\n        /* \"#utility.yul\":669:696   */\n      slt\n        /* \"#utility.yul\":659:714   */\n      tag_269\n      jumpi\n        /* \"#utility.yul\":710:711   */\n      0x00\n        /* \"#utility.yul\":707:708   */\n      dup1\n        /* \"#utility.yul\":700:712   */\n      revert\n        /* \"#utility.yul\":659:714   */\n    tag_269:\n      pop\n        /* \"#utility.yul\":733:753   */\n      dup2\n      calldataload\n        /* \"#utility.yul\":776:794   */\n      0xffffffffffffffff\n        /* \"#utility.yul\":765:795   */\n      dup2\n      gt\n        /* \"#utility.yul\":762:812   */\n      iszero\n      tag_270\n      jumpi\n        /* \"#utility.yul\":808:809   */\n      0x00\n        /* \"#utility.yul\":805:806   */\n      dup1\n        /* \"#utility.yul\":798:810   */\n      revert\n        /* \"#utility.yul\":762:812   */\n    tag_270:\n        /* \"#utility.yul\":845:849   */\n      0x20\n        /* \"#utility.yul\":837:843   */\n      dup4\n        /* \"#utility.yul\":833:850   */\n      add\n        /* \"#utility.yul\":821:850   */\n      swap2\n      pop\n        /* \"#utility.yul\":905:908   */\n      dup4\n        /* \"#utility.yul\":898:902   */\n      0x20\n        /* \"#utility.yul\":888:894   */\n      dup3\n        /* \"#utility.yul\":885:886   */\n      0x05\n        /* \"#utility.yul\":881:895   */\n      shl\n        /* \"#utility.yul\":873:879   */\n      dup6\n        /* \"#utility.yul\":869:896   */\n      add\n        /* \"#utility.yul\":865:903   */\n      add\n        /* \"#utility.yul\":862:909   */\n      gt\n        /* \"#utility.yul\":859:926   */\n      iszero\n      tag_271\n      jumpi\n        /* \"#utility.yul\":922:923   */\n      0x00\n        /* \"#utility.yul\":919:920   */\n      dup1\n        /* \"#utility.yul\":912:924   */\n      revert\n        /* \"#utility.yul\":859:926   */\n    tag_271:\n        /* \"#utility.yul\":565:932   */\n      swap3\n      pop\n      swap3\n      swap1\n      pop\n      jump\t// out\n        /* \"#utility.yul\":937:1488   */\n    tag_38:\n        /* \"#utility.yul\":1032:1038   */\n      0x00\n        /* \"#utility.yul\":1040:1046   */\n      dup1\n        /* \"#utility.yul\":1048:1054   */\n      0x00\n        /* \"#utility.yul\":1101:1103   */\n      0x40\n        /* \"#utility.yul\":1089:1098   */\n      dup5\n        /* \"#utility.yul\":1080:1087   */\n      dup7\n        /* \"#utility.yul\":1076:1099   */\n      sub\n        /* \"#utility.yul\":1072:1104   */\n      slt\n        /* \"#utility.yul\":1069:1121   */\n      iszero\n      tag_273\n      jumpi\n        /* \"#utility.yul\":1117:1118   */\n      0x00\n        /* \"#utility.yul\":1114:1115   */\n      dup1\n        /* \"#utility.yul\":1107:1119   */\n      revert\n        /* \"#utility.yul\":1069:1121   */\n    tag_273:\n        /* \"#utility.yul\":1162:1185   */\n      dup4\n      calldataload\n      swap3\n      pop\n        /* \"#utility.yul\":1260:1262   */\n      0x20\n        /* \"#utility.yul\":1245:1263   */\n      dup5\n      add\n        /* \"#utility.yul\":1232:1264   */\n      calldataload\n        /* \"#utility.yul\":1287:1305   */\n      0xffffffffffffffff\n        /* \"#utility.yul\":1276:1306   */\n      dup2\n      gt\n        /* \"#utility.yul\":1273:1323   */\n      iszero\n      tag_274\n      jumpi\n        /* \"#utility.yul\":1319:1320   */\n      0x00\n        /* \"#utility.yul\":1316:1317   */\n      dup1\n        /* \"#utility.yul\":1309:1321   */\n      revert\n        /* \"#utility.yul\":1273:1323   */\n    tag_274:\n        /* \"#utility.yul\":1358:1428   */\n      tag_275\n        /* \"#utility.yul\":1420:1427   */\n      dup7\n        /* \"#utility.yul\":1411:1417   */\n      dup3\n        /* \"#utility.yul\":1400:1409   */\n      dup8\n        /* \"#utility.yul\":1396:1418   */\n      add\n        /* \"#utility.yul\":1358:1428   */\n      tag_260\n      jump\t// in\n    tag_275:\n        /* \"#utility.yul\":937:1488   */\n      swap5\n      swap8\n        /* \"#utility.yul\":1447:1455   */\n      swap1\n      swap7\n      pop\n        /* \"#utility.yul\":1332:1428   */\n      swap4\n      swap5\n      pop\n      pop\n      pop\n      pop\n        /* \"#utility.yul\":937:1488   */\n      jump\t// out\n        /* \"#utility.yul\":1867:2093   */\n    tag_57:\n        /* \"#utility.yul\":1926:1932   */\n      0x00\n        /* \"#utility.yul\":1979:1981   */\n      0x20\n        /* \"#utility.yul\":1967:1976   */\n      dup3\n        /* \"#utility.yul\":1958:1965   */\n      dup5\n        /* \"#utility.yul\":1954:1977   */\n      sub\n        /* \"#utility.yul\":1950:1982   */\n      slt\n        /* \"#utility.yul\":1947:1999   */\n      iszero\n      tag_279\n      jumpi\n        /* \"#utility.yul\":1995:1996   */\n      0x00\n        /* \"#utility.yul\":1992:1993   */\n      dup1\n        /* \"#utility.yul\":1985:1997   */\n      revert\n        /* \"#utility.yul\":1947:1999   */\n    tag_279:\n      pop\n        /* \"#utility.yul\":2040:2063   */\n      calldataload\n      swap2\n        /* \"#utility.yul\":1867:2093   */\n      swap1\n      pop\n      jump\t// out\n        /* \"#utility.yul\":2491:3116   */\n    tag_79:\n        /* \"#utility.yul\":2595:2601   */\n      0x00\n        /* \"#utility.yul\":2603:2609   */\n      dup1\n        /* \"#utility.yul\":2611:2617   */\n      0x00\n        /* \"#utility.yul\":2619:2625   */\n      dup1\n        /* \"#utility.yul\":2672:2674   */\n      0x60\n        /* \"#utility.yul\":2660:2669   */\n      dup6\n        /* \"#utility.yul\":2651:2658   */\n      dup8\n        /* \"#utility.yul\":2647:2670   */\n      sub\n        /* \"#utility.yul\":2643:2675   */\n      slt\n        /* \"#utility.yul\":2640:2692   */\n      iszero\n      tag_284\n      jumpi\n        /* \"#utility.yul\":2688:2689   */\n      0x00\n        /* \"#utility.yul\":2685:2686   */\n      dup1\n        /* \"#utility.yul\":2678:2690   */\n      revert\n        /* \"#utility.yul\":2640:2692   */\n    tag_284:\n        /* \"#utility.yul\":2711:2740   */\n      tag_285\n        /* \"#utility.yul\":2730:2739   */\n      dup6\n        /* \"#utility.yul\":2711:2740   */\n      tag_259\n      jump\t// in\n    tag_285:\n        /* \"#utility.yul\":2701:2740   */\n      swap4\n      pop\n        /* \"#utility.yul\":2809:2811   */\n      0x20\n        /* \"#utility.yul\":2794:2812   */\n      dup6\n      add\n        /* \"#utility.yul\":2781:2813   */\n      calldataload\n      swap3\n      pop\n        /* \"#utility.yul\":2888:2890   */\n      0x40\n        /* \"#utility.yul\":2873:2891   */\n      dup6\n      add\n        /* \"#utility.yul\":2860:2892   */\n      calldataload\n        /* \"#utility.yul\":2915:2933   */\n      0xffffffffffffffff\n        /* \"#utility.yul\":2904:2934   */\n      dup2\n      gt\n        /* \"#utility.yul\":2901:2951   */\n      iszero\n      tag_286\n      jumpi\n        /* \"#utility.yul\":2947:2948   */\n      0x00\n        /* \"#utility.yul\":2944:2945   */\n      dup1\n        /* \"#utility.yul\":2937:2949   */\n      revert\n        /* \"#utility.yul\":2901:2951   */\n    tag_286:\n        /* \"#utility.yul\":2986:3056   */\n      tag_287\n        /* \"#utility.yul\":3048:3055   */\n      dup8\n        /* \"#utility.yul\":3039:3045   */\n      dup3\n        /* \"#utility.yul\":3028:3037   */\n      dup9\n        /* \"#utility.yul\":3024:3046   */\n      add\n        /* \"#utility.yul\":2986:3056   */\n      tag_260\n      jump\t// in\n    tag_287:\n        /* \"#utility.yul\":2491:3116   */\n      swap6\n      swap9\n      swap5\n      swap8\n      pop\n        /* \"#utility.yul\":3075:3083   */\n      swap6\n      pop\n      pop\n      pop\n      pop\n        /* \"#utility.yul\":2491:3116   */\n      jump\t// out\n        /* \"#utility.yul\":3473:3695   */\n    tag_116:\n        /* \"#utility.yul\":3538:3547   */\n      dup1\n      dup3\n      add\n        /* \"#utility.yul\":3559:3569   */\n      dup1\n      dup3\n      gt\n        /* \"#utility.yul\":3556:3689   */\n      iszero\n      tag_238\n      jumpi\n        /* \"#utility.yul\":3611:3621   */\n      0x4e487b71\n        /* \"#utility.yul\":3606:3609   */\n      0xe0\n        /* \"#utility.yul\":3602:3622   */\n      shl\n        /* \"#utility.yul\":3599:3600   */\n      0x00\n        /* \"#utility.yul\":3592:3623   */\n      mstore\n        /* \"#utility.yul\":3646:3650   */\n      0x11\n        /* \"#utility.yul\":3643:3644   */\n      0x04\n        /* \"#utility.yul\":3636:3651   */\n      mstore\n        /* \"#utility.yul\":3674:3678   */\n      0x24\n        /* \"#utility.yul\":3671:3672   */\n      0x00\n        /* \"#utility.yul\":3664:3679   */\n      revert\n        /* \"#utility.yul\":5400:5584   */\n    tag_138:\n        /* \"#utility.yul\":5470:5476   */\n      0x00\n        /* \"#utility.yul\":5523:5525   */\n      0x20\n        /* \"#utility.yul\":5511:5520   */\n      dup3\n        /* \"#utility.yul\":5502:5509   */\n      dup5\n        /* \"#utility.yul\":5498:5521   */\n      sub\n        /* \"#utility.yul\":5494:5526   */\n      slt\n        /* \"#utility.yul\":5491:5543   */\n      iszero\n      tag_297\n      jumpi\n        /* \"#utility.yul\":5539:5540   */\n      0x00\n        /* \"#utility.yul\":5536:5537   */\n      dup1\n        /* \"#utility.yul\":5529:5541   */\n      revert\n        /* \"#utility.yul\":5491:5543   */\n    tag_297:\n      pop\n        /* \"#utility.yul\":5562:5578   */\n      mload\n      swap2\n        /* \"#utility.yul\":5400:5584   */\n      swap1\n      pop\n      jump\t// out\n        /* \"#utility.yul\":6218:6495   */\n    tag_148:\n        /* \"#utility.yul\":6285:6291   */\n      0x00\n        /* \"#utility.yul\":6338:6340   */\n      0x20\n        /* \"#utility.yul\":6326:6335   */\n      dup3\n        /* \"#utility.yul\":6317:6324   */\n      dup5\n        /* \"#utility.yul\":6313:6336   */\n      sub\n        /* \"#utility.yul\":6309:6341   */\n      slt\n        /* \"#utility.yul\":6306:6358   */\n      iszero\n      tag_301\n      jumpi\n        /* \"#utility.yul\":6354:6355   */\n      0x00\n        /* \"#utility.yul\":6351:6352   */\n      dup1\n        /* \"#utility.yul\":6344:6356   */\n      revert\n        /* \"#utility.yul\":6306:6358   */\n    tag_301:\n        /* \"#utility.yul\":6386:6395   */\n      dup2\n        /* \"#utility.yul\":6380:6396   */\n      mload\n        /* \"#utility.yul\":6439:6444   */\n      dup1\n        /* \"#utility.yul\":6432:6445   */\n      iszero\n        /* \"#utility.yul\":6425:6446   */\n      iszero\n        /* \"#utility.yul\":6418:6423   */\n      dup2\n        /* \"#utility.yul\":6415:6447   */\n      eq\n        /* \"#utility.yul\":6405:6465   */\n      tag_257\n      jumpi\n        /* \"#utility.yul\":6461:6462   */\n      0x00\n        /* \"#utility.yul\":6458:6459   */\n      dup1\n        /* \"#utility.yul\":6451:6463   */\n      revert\n        /* \"#utility.yul\":7205:7332   */\n    tag_245:\n        /* \"#utility.yul\":7266:7276   */\n      0x4e487b71\n        /* \"#utility.yul\":7261:7264   */\n      0xe0\n        /* \"#utility.yul\":7257:7277   */\n      shl\n        /* \"#utility.yul\":7254:7255   */\n      0x00\n        /* \"#utility.yul\":7247:7278   */\n      mstore\n        /* \"#utility.yul\":7297:7301   */\n      0x32\n        /* \"#utility.yul\":7294:7295   */\n      0x04\n        /* \"#utility.yul\":7287:7302   */\n      mstore\n        /* \"#utility.yul\":7321:7325   */\n      0x24\n        /* \"#utility.yul\":7318:7319   */\n      0x00\n        /* \"#utility.yul\":7311:7326   */\n      revert\n\n    auxdata: 0xa2646970667358221220b24f23ab3eeb44dd50a9499034daaff673fe0a3fc42196c3c5307a18f603014864736f6c634300081a0033\n}\n",
				"bytecode": {
					"linkReferences": {},
					"object": "608060405234801561000f575f80fd5b5060405161100838038061100883398101604081905261002e91610237565b5f805460ff19169055338061005d57604051631e4fbdf760e01b81525f60048201526024015b60405180910390fd5b610066816100a5565b50600180556004805462093a806006556001600160a81b0319166001600160a01b038316179055610096826100fd565b61009e61013a565b5050610268565b5f80546001600160a01b03838116610100818102610100600160a81b0319851617855560405193049190911692909183917f8be0079c531659141344cd1fd0a4f28419497f9722a3daafe3b4186f6b6457e091a35050565b61010561014c565b6001600160a01b03811661012e57604051631e4fbdf760e01b81525f6004820152602401610054565b610137816100a5565b50565b61014261014c565b61014a61017e565b565b5f546001600160a01b0361010090910416331461014a5760405163118cdaa760e01b8152336004820152602401610054565b6101866101d7565b5f805460ff191660011790557f62e78cea01bee320cd4e420270b5ea74000d11b0c9f74754ebdbfc544b05a2586101ba3390565b6040516001600160a01b03909116815260200160405180910390a1565b5f5460ff161561014a5760405162461bcd60e51b815260206004820152601060248201526f14185d5cd8589b194e881c185d5cd95960821b6044820152606401610054565b80516001600160a01b0381168114610232575f80fd5b919050565b5f8060408385031215610248575f80fd5b6102518361021c565b915061025f6020840161021c565b90509250929050565b610d93806102755f395ff3fe608060405234801561000f575f80fd5b506004361061013d575f3560e01c80637cb64759116100b4578063b6cd5d1a11610079578063b6cd5d1a1461025a578063c27f7e2614610262578063c884ef831461026a578063de805da71461028c578063f2fde38b14610294578063fc0c546a146102a7575f80fd5b80637cb64759146102035780637cc6cb7a146102165780638456cb591461022a5780638da5cb5b14610232578063a0074c6714610247575f80fd5b8063490395271161010557806349039527146101965780635c975abb1461019f5780635e4f3a9c146101b55780636038efad146101bd57806361d027b3146101d0578063715018a6146101fb575f80fd5b8063144fa6d7146101415780632eb4a7ab146101565780632f52ebb7146101725780633f4ba83a14610185578063428e75651461018d575b5f80fd5b61015461014f366004610bde565b6102ba565b005b61015f60025481565b6040519081526020015b60405180910390f35b610154610180366004610c3f565b61033f565b6101546106bf565b61015f60055481565b61015f60065481565b5f5460ff165b6040519015158152602001610169565b6101546106d1565b6101546101cb366004610c87565b6106ec565b6004546101e3906001600160a01b031681565b6040516001600160a01b039091168152602001610169565b6101546106f9565b610154610211366004610c87565b61070a565b6004546101a590600160a01b900460ff1681565b610154610717565b5f5461010090046001600160a01b03166101e3565b6101a5610255366004610c9e565b610727565b6101546107b3565b6101a56107d4565b6101a5610278366004610bde565b60076020525f908152604090205460ff1681565b610154610811565b6101546102a2366004610bde565b610901565b6003546101e3906001600160a01b031681565b6102c261093e565b6001600160a01b03811661031d5760405162461bcd60e51b815260206004820152601760248201527f546f6b656e2073686f756c646e2774206265207a65726f00000000000000000060448201526064015b60405180910390fd5b600380546001600160a01b0319166001600160a01b0392909216919091179055565b610347610970565b61034f6109b5565b600454600160a01b900460ff1680156103845750600554421015801561038457506006546005546103809190610cf4565b4211155b6103d05760405162461bcd60e51b815260206004820152601960248201527f4974206973206e6f20706572696f6420746f20636c61696d21000000000000006044820152606401610314565b335f9081526007602052604090205460ff16156104215760405162461bcd60e51b815260206004820152600f60248201526e105b1c9958591e4818db185a5b5959608a1b6044820152606401610314565b6040516bffffffffffffffffffffffff193360601b166020820152603481018490525f906054016040516020818303038152906040528051906020012090506104a08383808060200260200160405190810160405280939291908181526020018383602002808284375f92019190915250506002549150849050610a0e565b6104dc5760405162461bcd60e51b815260206004820152600d60248201526c24b73b30b634b210383937b7b360991b6044820152606401610314565b6003546001600160a01b03166105345760405162461bcd60e51b815260206004820181905260248201527f546f6b656e20616464726573732073686f756c646e2774206265207a65726f216044820152606401610314565b6003546040516370a0823160e01b815230600482015285916001600160a01b0316906370a0823190602401602060405180830381865afa15801561057a573d5f803e3d5ffd5b505050506040513d601f19601f8201168201806040525081019061059e9190610d13565b116105e35760405162461bcd60e51b8152602060048201526015602482015274496e73756666696369656e742042616c616e63652160581b6044820152606401610314565b831561065d5760035460405163a9059cbb60e01b8152336004820152602481018690526001600160a01b039091169063a9059cbb906044016020604051808303815f875af1158015610637573d5f803e3d5ffd5b505050506040513d601f19601f8201168201806040525081019061065b9190610d2a565b505b335f8181526007602052604090819020805460ff19166001179055517fd8138f8a3f377c5259ca548e70e4c2de94f129f5a11036a15b69513cba2b426a906106a89087815260200190565b60405180910390a2506106ba60018055565b505050565b6106c761093e565b6106cf610a23565b565b6106d961093e565b6004805460ff60a01b191690555f600555565b6106f461093e565b600655565b61070161093e565b6106cf5f610a74565b61071261093e565b600255565b61071f61093e565b6106cf610acc565b6040516bffffffffffffffffffffffff19606086901b166020820152603481018490525f9081906054016040516020818303038152906040528051906020012090506107a98484808060200260200160405190810160405280939291908181526020018383602002808284375f92019190915250506002549150849050610a0e565b9695505050505050565b6107bb61093e565b6004805460ff60a01b1916600160a01b17905542600555565b6004545f90600160a01b900460ff1680156107fe5750426006546005546107fb9190610cf4565b10155b801561080c57506005544210155b905090565b61081961093e565b6003546040516370a0823160e01b81523060048201526001600160a01b03909116905f9082906370a0823190602401602060405180830381865afa158015610863573d5f803e3d5ffd5b505050506040513d601f19601f820116820180604052508101906108879190610d13565b6004805460405163a9059cbb60e01b81526001600160a01b0391821692810192909252602482018390529192509083169063a9059cbb906044016020604051808303815f875af11580156108dd573d5f803e3d5ffd5b505050506040513d601f19601f820116820180604052508101906106ba9190610d2a565b61090961093e565b6001600160a01b03811661093257604051631e4fbdf760e01b81525f6004820152602401610314565b61093b81610a74565b50565b5f546001600160a01b036101009091041633146106cf5760405163118cdaa760e01b8152336004820152602401610314565b5f5460ff16156106cf5760405162461bcd60e51b815260206004820152601060248201526f14185d5cd8589b194e881c185d5cd95960821b6044820152606401610314565b600260015403610a075760405162461bcd60e51b815260206004820152601f60248201527f5265656e7472616e637947756172643a207265656e7472616e742063616c6c006044820152606401610314565b6002600155565b5f82610a1a8584610b08565b14949350505050565b610a2b610b4c565b5f805460ff191690557f5db9ee0a495bf2e6ff9c91a7834c1ba4fdd244a5e8aa4e537bd38aeae4b073aa335b6040516001600160a01b03909116815260200160405180910390a1565b5f80546001600160a01b03838116610100818102610100600160a81b0319851617855560405193049190911692909183917f8be0079c531659141344cd1fd0a4f28419497f9722a3daafe3b4186f6b6457e091a35050565b610ad4610970565b5f805460ff191660011790557f62e78cea01bee320cd4e420270b5ea74000d11b0c9f74754ebdbfc544b05a258610a573390565b5f81815b8451811015610b4257610b3882868381518110610b2b57610b2b610d49565b6020026020010151610b94565b9150600101610b0c565b5090505b92915050565b5f5460ff166106cf5760405162461bcd60e51b815260206004820152601460248201527314185d5cd8589b194e881b9bdd081c185d5cd95960621b6044820152606401610314565b5f818310610bae575f828152602084905260409020610bbc565b5f8381526020839052604090205b9392505050565b80356001600160a01b0381168114610bd9575f80fd5b919050565b5f60208284031215610bee575f80fd5b610bbc82610bc3565b5f8083601f840112610c07575f80fd5b50813567ffffffffffffffff811115610c1e575f80fd5b6020830191508360208260051b8501011115610c38575f80fd5b9250929050565b5f805f60408486031215610c51575f80fd5b83359250602084013567ffffffffffffffff811115610c6e575f80fd5b610c7a86828701610bf7565b9497909650939450505050565b5f60208284031215610c97575f80fd5b5035919050565b5f805f8060608587031215610cb1575f80fd5b610cba85610bc3565b935060208501359250604085013567ffffffffffffffff811115610cdc575f80fd5b610ce887828801610bf7565b95989497509550505050565b80820180821115610b4657634e487b7160e01b5f52601160045260245ffd5b5f60208284031215610d23575f80fd5b5051919050565b5f60208284031215610d3a575f80fd5b81518015158114610bbc575f80fd5b634e487b7160e01b5f52603260045260245ffdfea2646970667358221220b24f23ab3eeb44dd50a9499034daaff673fe0a3fc42196c3c5307a18f603014864736f6c634300081a0033",
					"opcodes": "PUSH1 0x80 PUSH1 0x40 MSTORE CALLVALUE DUP1 ISZERO PUSH2 0xF JUMPI PUSH0 DUP1 REVERT JUMPDEST POP PUSH1 0x40 MLOAD PUSH2 0x1008 CODESIZE SUB DUP1 PUSH2 0x1008 DUP4 CODECOPY DUP2 ADD PUSH1 0x40 DUP2 SWAP1 MSTORE PUSH2 0x2E SWAP2 PUSH2 0x237 JUMP JUMPDEST PUSH0 DUP1 SLOAD PUSH1 0xFF NOT AND SWAP1 SSTORE CALLER DUP1 PUSH2 0x5D JUMPI PUSH1 0x40 MLOAD PUSH4 0x1E4FBDF7 PUSH1 0xE0 SHL DUP2 MSTORE PUSH0 PUSH1 0x4 DUP3 ADD MSTORE PUSH1 0x24 ADD JUMPDEST PUSH1 0x40 MLOAD DUP1 SWAP2 SUB SWAP1 REVERT JUMPDEST PUSH2 0x66 DUP2 PUSH2 0xA5 JUMP JUMPDEST POP PUSH1 0x1 DUP1 SSTORE PUSH1 0x4 DUP1 SLOAD PUSH3 0x93A80 PUSH1 0x6 SSTORE PUSH1 0x1 PUSH1 0x1 PUSH1 0xA8 SHL SUB NOT AND PUSH1 0x1 PUSH1 0x1 PUSH1 0xA0 SHL SUB DUP4 AND OR SWAP1 SSTORE PUSH2 0x96 DUP3 PUSH2 0xFD JUMP JUMPDEST PUSH2 0x9E PUSH2 0x13A JUMP JUMPDEST POP POP PUSH2 0x268 JUMP JUMPDEST PUSH0 DUP1 SLOAD PUSH1 0x1 PUSH1 0x1 PUSH1 0xA0 SHL SUB DUP4 DUP2 AND PUSH2 0x100 DUP2 DUP2 MUL PUSH2 0x100 PUSH1 0x1 PUSH1 0xA8 SHL SUB NOT DUP6 AND OR DUP6 SSTORE PUSH1 0x40 MLOAD SWAP4 DIV SWAP2 SWAP1 SWAP2 AND SWAP3 SWAP1 SWAP2 DUP4 SWAP2 PUSH32 0x8BE0079C531659141344CD1FD0A4F28419497F9722A3DAAFE3B4186F6B6457E0 SWAP2 LOG3 POP POP JUMP JUMPDEST PUSH2 0x105 PUSH2 0x14C JUMP JUMPDEST PUSH1 0x1 PUSH1 0x1 PUSH1 0xA0 SHL SUB DUP2 AND PUSH2 0x12E JUMPI PUSH1 0x40 MLOAD PUSH4 0x1E4FBDF7 PUSH1 0xE0 SHL DUP2 MSTORE PUSH0 PUSH1 0x4 DUP3 ADD MSTORE PUSH1 0x24 ADD PUSH2 0x54 JUMP JUMPDEST PUSH2 0x137 DUP2 PUSH2 0xA5 JUMP JUMPDEST POP JUMP JUMPDEST PUSH2 0x142 PUSH2 0x14C JUMP JUMPDEST PUSH2 0x14A PUSH2 0x17E JUMP JUMPDEST JUMP JUMPDEST PUSH0 SLOAD PUSH1 0x1 PUSH1 0x1 PUSH1 0xA0 SHL SUB PUSH2 0x100 SWAP1 SWAP2 DIV AND CALLER EQ PUSH2 0x14A JUMPI PUSH1 0x40 MLOAD PUSH4 0x118CDAA7 PUSH1 0xE0 SHL DUP2 MSTORE CALLER PUSH1 0x4 DUP3 ADD MSTORE PUSH1 0x24 ADD PUSH2 0x54 JUMP JUMPDEST PUSH2 0x186 PUSH2 0x1D7 JUMP JUMPDEST PUSH0 DUP1 SLOAD PUSH1 0xFF NOT AND PUSH1 0x1 OR SWAP1 SSTORE PUSH32 0x62E78CEA01BEE320CD4E420270B5EA74000D11B0C9F74754EBDBFC544B05A258 PUSH2 0x1BA CALLER SWAP1 JUMP JUMPDEST PUSH1 0x40 MLOAD PUSH1 0x1 PUSH1 0x1 PUSH1 0xA0 SHL SUB SWAP1 SWAP2 AND DUP2 MSTORE PUSH1 0x20 ADD PUSH1 0x40 MLOAD DUP1 SWAP2 SUB SWAP1 LOG1 JUMP JUMPDEST PUSH0 SLOAD PUSH1 0xFF AND ISZERO PUSH2 0x14A JUMPI PUSH1 0x40 MLOAD PUSH3 0x461BCD PUSH1 0xE5 SHL DUP2 MSTORE PUSH1 0x20 PUSH1 0x4 DUP3 ADD MSTORE PUSH1 0x10 PUSH1 0x24 DUP3 ADD MSTORE PUSH16 0x14185D5CD8589B194E881C185D5CD959 PUSH1 0x82 SHL PUSH1 0x44 DUP3 ADD MSTORE PUSH1 0x64 ADD PUSH2 0x54 JUMP JUMPDEST DUP1 MLOAD PUSH1 0x1 PUSH1 0x1 PUSH1 0xA0 SHL SUB DUP2 AND DUP2 EQ PUSH2 0x232 JUMPI PUSH0 DUP1 REVERT JUMPDEST SWAP2 SWAP1 POP JUMP JUMPDEST PUSH0 DUP1 PUSH1 0x40 DUP4 DUP6 SUB SLT ISZERO PUSH2 0x248 JUMPI PUSH0 DUP1 REVERT JUMPDEST PUSH2 0x251 DUP4 PUSH2 0x21C JUMP JUMPDEST SWAP2 POP PUSH2 0x25F PUSH1 0x20 DUP5 ADD PUSH2 0x21C JUMP JUMPDEST SWAP1 POP SWAP3 POP SWAP3 SWAP1 POP JUMP JUMPDEST PUSH2 0xD93 DUP1 PUSH2 0x275 PUSH0 CODECOPY PUSH0 RETURN INVALID PUSH1 0x80 PUSH1 0x40 MSTORE CALLVALUE DUP1 ISZERO PUSH2 0xF JUMPI PUSH0 DUP1 REVERT JUMPDEST POP PUSH1 0x4 CALLDATASIZE LT PUSH2 0x13D JUMPI PUSH0 CALLDATALOAD PUSH1 0xE0 SHR DUP1 PUSH4 0x7CB64759 GT PUSH2 0xB4 JUMPI DUP1 PUSH4 0xB6CD5D1A GT PUSH2 0x79 JUMPI DUP1 PUSH4 0xB6CD5D1A EQ PUSH2 0x25A JUMPI DUP1 PUSH4 0xC27F7E26 EQ PUSH2 0x262 JUMPI DUP1 PUSH4 0xC884EF83 EQ PUSH2 0x26A JUMPI DUP1 PUSH4 0xDE805DA7 EQ PUSH2 0x28C JUMPI DUP1 PUSH4 0xF2FDE38B EQ PUSH2 0x294 JUMPI DUP1 PUSH4 0xFC0C546A EQ PUSH2 0x2A7 JUMPI PUSH0 DUP1 REVERT JUMPDEST DUP1 PUSH4 0x7CB64759 EQ PUSH2 0x203 JUMPI DUP1 PUSH4 0x7CC6CB7A EQ PUSH2 0x216 JUMPI DUP1 PUSH4 0x8456CB59 EQ PUSH2 0x22A JUMPI DUP1 PUSH4 0x8DA5CB5B EQ PUSH2 0x232 JUMPI DUP1 PUSH4 0xA0074C67 EQ PUSH2 0x247 JUMPI PUSH0 DUP1 REVERT JUMPDEST DUP1 PUSH4 0x49039527 GT PUSH2 0x105 JUMPI DUP1 PUSH4 0x49039527 EQ PUSH2 0x196 JUMPI DUP1 PUSH4 0x5C975ABB EQ PUSH2 0x19F JUMPI DUP1 PUSH4 0x5E4F3A9C EQ PUSH2 0x1B5 JUMPI DUP1 PUSH4 0x6038EFAD EQ PUSH2 0x1BD JUMPI DUP1 PUSH4 0x61D027B3 EQ PUSH2 0x1D0 JUMPI DUP1 PUSH4 0x715018A6 EQ PUSH2 0x1FB JUMPI PUSH0 DUP1 REVERT JUMPDEST DUP1 PUSH4 0x144FA6D7 EQ PUSH2 0x141 JUMPI DUP1 PUSH4 0x2EB4A7AB EQ PUSH2 0x156 JUMPI DUP1 PUSH4 0x2F52EBB7 EQ PUSH2 0x172 JUMPI DUP1 PUSH4 0x3F4BA83A EQ PUSH2 0x185 JUMPI DUP1 PUSH4 0x428E7565 EQ PUSH2 0x18D JUMPI JUMPDEST PUSH0 DUP1 REVERT JUMPDEST PUSH2 0x154 PUSH2 0x14F CALLDATASIZE PUSH1 0x4 PUSH2 0xBDE JUMP JUMPDEST PUSH2 0x2BA JUMP JUMPDEST STOP JUMPDEST PUSH2 0x15F PUSH1 0x2 SLOAD DUP2 JUMP JUMPDEST PUSH1 0x40 MLOAD SWAP1 DUP2 MSTORE PUSH1 0x20 ADD JUMPDEST PUSH1 0x40 MLOAD DUP1 SWAP2 SUB SWAP1 RETURN JUMPDEST PUSH2 0x154 PUSH2 0x180 CALLDATASIZE PUSH1 0x4 PUSH2 0xC3F JUMP JUMPDEST PUSH2 0x33F JUMP JUMPDEST PUSH2 0x154 PUSH2 0x6BF JUMP JUMPDEST PUSH2 0x15F PUSH1 0x5 SLOAD DUP2 JUMP JUMPDEST PUSH2 0x15F PUSH1 0x6 SLOAD DUP2 JUMP JUMPDEST PUSH0 SLOAD PUSH1 0xFF AND JUMPDEST PUSH1 0x40 MLOAD SWAP1 ISZERO ISZERO DUP2 MSTORE PUSH1 0x20 ADD PUSH2 0x169 JUMP JUMPDEST PUSH2 0x154 PUSH2 0x6D1 JUMP JUMPDEST PUSH2 0x154 PUSH2 0x1CB CALLDATASIZE PUSH1 0x4 PUSH2 0xC87 JUMP JUMPDEST PUSH2 0x6EC JUMP JUMPDEST PUSH1 0x4 SLOAD PUSH2 0x1E3 SWAP1 PUSH1 0x1 PUSH1 0x1 PUSH1 0xA0 SHL SUB AND DUP2 JUMP JUMPDEST PUSH1 0x40 MLOAD PUSH1 0x1 PUSH1 0x1 PUSH1 0xA0 SHL SUB SWAP1 SWAP2 AND DUP2 MSTORE PUSH1 0x20 ADD PUSH2 0x169 JUMP JUMPDEST PUSH2 0x154 PUSH2 0x6F9 JUMP JUMPDEST PUSH2 0x154 PUSH2 0x211 CALLDATASIZE PUSH1 0x4 PUSH2 0xC87 JUMP JUMPDEST PUSH2 0x70A JUMP JUMPDEST PUSH1 0x4 SLOAD PUSH2 0x1A5 SWAP1 PUSH1 0x1 PUSH1 0xA0 SHL SWAP1 DIV PUSH1 0xFF AND DUP2 JUMP JUMPDEST PUSH2 0x154 PUSH2 0x717 JUMP JUMPDEST PUSH0 SLOAD PUSH2 0x100 SWAP1 DIV PUSH1 0x1 PUSH1 0x1 PUSH1 0xA0 SHL SUB AND PUSH2 0x1E3 JUMP JUMPDEST PUSH2 0x1A5 PUSH2 0x255 CALLDATASIZE PUSH1 0x4 PUSH2 0xC9E JUMP JUMPDEST PUSH2 0x727 JUMP JUMPDEST PUSH2 0x154 PUSH2 0x7B3 JUMP JUMPDEST PUSH2 0x1A5 PUSH2 0x7D4 JUMP JUMPDEST PUSH2 0x1A5 PUSH2 0x278 CALLDATASIZE PUSH1 0x4 PUSH2 0xBDE JUMP JUMPDEST PUSH1 0x7 PUSH1 0x20 MSTORE PUSH0 SWAP1 DUP2 MSTORE PUSH1 0x40 SWAP1 KECCAK256 SLOAD PUSH1 0xFF AND DUP2 JUMP JUMPDEST PUSH2 0x154 PUSH2 0x811 JUMP JUMPDEST PUSH2 0x154 PUSH2 0x2A2 CALLDATASIZE PUSH1 0x4 PUSH2 0xBDE JUMP JUMPDEST PUSH2 0x901 JUMP JUMPDEST PUSH1 0x3 SLOAD PUSH2 0x1E3 SWAP1 PUSH1 0x1 PUSH1 0x1 PUSH1 0xA0 SHL SUB AND DUP2 JUMP JUMPDEST PUSH2 0x2C2 PUSH2 0x93E JUMP JUMPDEST PUSH1 0x1 PUSH1 0x1 PUSH1 0xA0 SHL SUB DUP2 AND PUSH2 0x31D JUMPI PUSH1 0x40 MLOAD PUSH3 0x461BCD PUSH1 0xE5 SHL DUP2 MSTORE PUSH1 0x20 PUSH1 0x4 DUP3 ADD MSTORE PUSH1 0x17 PUSH1 0x24 DUP3 ADD MSTORE PUSH32 0x546F6B656E2073686F756C646E2774206265207A65726F000000000000000000 PUSH1 0x44 DUP3 ADD MSTORE PUSH1 0x64 ADD JUMPDEST PUSH1 0x40 MLOAD DUP1 SWAP2 SUB SWAP1 REVERT JUMPDEST PUSH1 0x3 DUP1 SLOAD PUSH1 0x1 PUSH1 0x1 PUSH1 0xA0 SHL SUB NOT AND PUSH1 0x1 PUSH1 0x1 PUSH1 0xA0 SHL SUB SWAP3 SWAP1 SWAP3 AND SWAP2 SWAP1 SWAP2 OR SWAP1 SSTORE JUMP JUMPDEST PUSH2 0x347 PUSH2 0x970 JUMP JUMPDEST PUSH2 0x34F PUSH2 0x9B5 JUMP JUMPDEST PUSH1 0x4 SLOAD PUSH1 0x1 PUSH1 0xA0 SHL SWAP1 DIV PUSH1 0xFF AND DUP1 ISZERO PUSH2 0x384 JUMPI POP PUSH1 0x5 SLOAD TIMESTAMP LT ISZERO DUP1 ISZERO PUSH2 0x384 JUMPI POP PUSH1 0x6 SLOAD PUSH1 0x5 SLOAD PUSH2 0x380 SWAP2 SWAP1 PUSH2 0xCF4 JUMP JUMPDEST TIMESTAMP GT ISZERO JUMPDEST PUSH2 0x3D0 JUMPI PUSH1 0x40 MLOAD PUSH3 0x461BCD PUSH1 0xE5 SHL DUP2 MSTORE PUSH1 0x20 PUSH1 0x4 DUP3 ADD MSTORE PUSH1 0x19 PUSH1 0x24 DUP3 ADD MSTORE PUSH32 0x4974206973206E6F20706572696F6420746F20636C61696D2100000000000000 PUSH1 0x44 DUP3 ADD MSTORE PUSH1 0x64 ADD PUSH2 0x314 JUMP JUMPDEST CALLER PUSH0 SWAP1 DUP2 MSTORE PUSH1 0x7 PUSH1 0x20 MSTORE PUSH1 0x40 SWAP1 KECCAK256 SLOAD PUSH1 0xFF AND ISZERO PUSH2 0x421 JUMPI PUSH1 0x40 MLOAD PUSH3 0x461BCD PUSH1 0xE5 SHL DUP2 MSTORE PUSH1 0x20 PUSH1 0x4 DUP3 ADD MSTORE PUSH1 0xF PUSH1 0x24 DUP3 ADD MSTORE PUSH15 0x105B1C9958591E4818DB185A5B5959 PUSH1 0x8A SHL PUSH1 0x44 DUP3 ADD MSTORE PUSH1 0x64 ADD PUSH2 0x314 JUMP JUMPDEST PUSH1 0x40 MLOAD PUSH12 0xFFFFFFFFFFFFFFFFFFFFFFFF NOT CALLER PUSH1 0x60 SHL AND PUSH1 0x20 DUP3 ADD MSTORE PUSH1 0x34 DUP2 ADD DUP5 SWAP1 MSTORE PUSH0 SWAP1 PUSH1 0x54 ADD PUSH1 0x40 MLOAD PUSH1 0x20 DUP2 DUP4 SUB SUB DUP2 MSTORE SWAP1 PUSH1 0x40 MSTORE DUP1 MLOAD SWAP1 PUSH1 0x20 ADD KECCAK256 SWAP1 POP PUSH2 0x4A0 DUP4 DUP4 DUP1 DUP1 PUSH1 0x20 MUL PUSH1 0x20 ADD PUSH1 0x40 MLOAD SWAP1 DUP2 ADD PUSH1 0x40 MSTORE DUP1 SWAP4 SWAP3 SWAP2 SWAP1 DUP2 DUP2 MSTORE PUSH1 0x20 ADD DUP4 DUP4 PUSH1 0x20 MUL DUP1 DUP3 DUP5 CALLDATACOPY PUSH0 SWAP3 ADD SWAP2 SWAP1 SWAP2 MSTORE POP POP PUSH1 0x2 SLOAD SWAP2 POP DUP5 SWAP1 POP PUSH2 0xA0E JUMP JUMPDEST PUSH2 0x4DC JUMPI PUSH1 0x40 MLOAD PUSH3 0x461BCD PUSH1 0xE5 SHL DUP2 MSTORE PUSH1 0x20 PUSH1 0x4 DUP3 ADD MSTORE PUSH1 0xD PUSH1 0x24 DUP3 ADD MSTORE PUSH13 0x24B73B30B634B210383937B7B3 PUSH1 0x99 SHL PUSH1 0x44 DUP3 ADD MSTORE PUSH1 0x64 ADD PUSH2 0x314 JUMP JUMPDEST PUSH1 0x3 SLOAD PUSH1 0x1 PUSH1 0x1 PUSH1 0xA0 SHL SUB AND PUSH2 0x534 JUMPI PUSH1 0x40 MLOAD PUSH3 0x461BCD PUSH1 0xE5 SHL DUP2 MSTORE PUSH1 0x20 PUSH1 0x4 DUP3 ADD DUP2 SWAP1 MSTORE PUSH1 0x24 DUP3 ADD MSTORE PUSH32 0x546F6B656E20616464726573732073686F756C646E2774206265207A65726F21 PUSH1 0x44 DUP3 ADD MSTORE PUSH1 0x64 ADD PUSH2 0x314 JUMP JUMPDEST PUSH1 0x3 SLOAD PUSH1 0x40 MLOAD PUSH4 0x70A08231 PUSH1 0xE0 SHL DUP2 MSTORE ADDRESS PUSH1 0x4 DUP3 ADD MSTORE DUP6 SWAP2 PUSH1 0x1 PUSH1 0x1 PUSH1 0xA0 SHL SUB AND SWAP1 PUSH4 0x70A08231 SWAP1 PUSH1 0x24 ADD PUSH1 0x20 PUSH1 0x40 MLOAD DUP1 DUP4 SUB DUP2 DUP7 GAS STATICCALL ISZERO DUP1 ISZERO PUSH2 0x57A JUMPI RETURNDATASIZE PUSH0 DUP1 RETURNDATACOPY RETURNDATASIZE PUSH0 REVERT JUMPDEST POP POP POP POP PUSH1 0x40 MLOAD RETURNDATASIZE PUSH1 0x1F NOT PUSH1 0x1F DUP3 ADD AND DUP3 ADD DUP1 PUSH1 0x40 MSTORE POP DUP2 ADD SWAP1 PUSH2 0x59E SWAP2 SWAP1 PUSH2 0xD13 JUMP JUMPDEST GT PUSH2 0x5E3 JUMPI PUSH1 0x40 MLOAD PUSH3 0x461BCD PUSH1 0xE5 SHL DUP2 MSTORE PUSH1 0x20 PUSH1 0x4 DUP3 ADD MSTORE PUSH1 0x15 PUSH1 0x24 DUP3 ADD MSTORE PUSH21 0x496E73756666696369656E742042616C616E636521 PUSH1 0x58 SHL PUSH1 0x44 DUP3 ADD MSTORE PUSH1 0x64 ADD PUSH2 0x314 JUMP JUMPDEST DUP4 ISZERO PUSH2 0x65D JUMPI PUSH1 0x3 SLOAD PUSH1 0x40 MLOAD PUSH4 0xA9059CBB PUSH1 0xE0 SHL DUP2 MSTORE CALLER PUSH1 0x4 DUP3 ADD MSTORE PUSH1 0x24 DUP2 ADD DUP7 SWAP1 MSTORE PUSH1 0x1 PUSH1 0x1 PUSH1 0xA0 SHL SUB SWAP1 SWAP2 AND SWAP1 PUSH4 0xA9059CBB SWAP1 PUSH1 0x44 ADD PUSH1 0x20 PUSH1 0x40 MLOAD DUP1 DUP4 SUB DUP2 PUSH0 DUP8 GAS CALL ISZERO DUP1 ISZERO PUSH2 0x637 JUMPI RETURNDATASIZE PUSH0 DUP1 RETURNDATACOPY RETURNDATASIZE PUSH0 REVERT JUMPDEST POP POP POP POP PUSH1 0x40 MLOAD RETURNDATASIZE PUSH1 0x1F NOT PUSH1 0x1F DUP3 ADD AND DUP3 ADD DUP1 PUSH1 0x40 MSTORE POP DUP2 ADD SWAP1 PUSH2 0x65B SWAP2 SWAP1 PUSH2 0xD2A JUMP JUMPDEST POP JUMPDEST CALLER PUSH0 DUP2 DUP2 MSTORE PUSH1 0x7 PUSH1 0x20 MSTORE PUSH1 0x40 SWAP1 DUP2 SWAP1 KECCAK256 DUP1 SLOAD PUSH1 0xFF NOT AND PUSH1 0x1 OR SWAP1 SSTORE MLOAD PUSH32 0xD8138F8A3F377C5259CA548E70E4C2DE94F129F5A11036A15B69513CBA2B426A SWAP1 PUSH2 0x6A8 SWAP1 DUP8 DUP2 MSTORE PUSH1 0x20 ADD SWAP1 JUMP JUMPDEST PUSH1 0x40 MLOAD DUP1 SWAP2 SUB SWAP1 LOG2 POP PUSH2 0x6BA PUSH1 0x1 DUP1 SSTORE JUMP JUMPDEST POP POP POP JUMP JUMPDEST PUSH2 0x6C7 PUSH2 0x93E JUMP JUMPDEST PUSH2 0x6CF PUSH2 0xA23 JUMP JUMPDEST JUMP JUMPDEST PUSH2 0x6D9 PUSH2 0x93E JUMP JUMPDEST PUSH1 0x4 DUP1 SLOAD PUSH1 0xFF PUSH1 0xA0 SHL NOT AND SWAP1 SSTORE PUSH0 PUSH1 0x5 SSTORE JUMP JUMPDEST PUSH2 0x6F4 PUSH2 0x93E JUMP JUMPDEST PUSH1 0x6 SSTORE JUMP JUMPDEST PUSH2 0x701 PUSH2 0x93E JUMP JUMPDEST PUSH2 0x6CF PUSH0 PUSH2 0xA74 JUMP JUMPDEST PUSH2 0x712 PUSH2 0x93E JUMP JUMPDEST PUSH1 0x2 SSTORE JUMP JUMPDEST PUSH2 0x71F PUSH2 0x93E JUMP JUMPDEST PUSH2 0x6CF PUSH2 0xACC JUMP JUMPDEST PUSH1 0x40 MLOAD PUSH12 0xFFFFFFFFFFFFFFFFFFFFFFFF NOT PUSH1 0x60 DUP7 SWAP1 SHL AND PUSH1 0x20 DUP3 ADD MSTORE PUSH1 0x34 DUP2 ADD DUP5 SWAP1 MSTORE PUSH0 SWAP1 DUP2 SWAP1 PUSH1 0x54 ADD PUSH1 0x40 MLOAD PUSH1 0x20 DUP2 DUP4 SUB SUB DUP2 MSTORE SWAP1 PUSH1 0x40 MSTORE DUP1 MLOAD SWAP1 PUSH1 0x20 ADD KECCAK256 SWAP1 POP PUSH2 0x7A9 DUP5 DUP5 DUP1 DUP1 PUSH1 0x20 MUL PUSH1 0x20 ADD PUSH1 0x40 MLOAD SWAP1 DUP2 ADD PUSH1 0x40 MSTORE DUP1 SWAP4 SWAP3 SWAP2 SWAP1 DUP2 DUP2 MSTORE PUSH1 0x20 ADD DUP4 DUP4 PUSH1 0x20 MUL DUP1 DUP3 DUP5 CALLDATACOPY PUSH0 SWAP3 ADD SWAP2 SWAP1 SWAP2 MSTORE POP POP PUSH1 0x2 SLOAD SWAP2 POP DUP5 SWAP1 POP PUSH2 0xA0E JUMP JUMPDEST SWAP7 SWAP6 POP POP POP POP POP POP JUMP JUMPDEST PUSH2 0x7BB PUSH2 0x93E JUMP JUMPDEST PUSH1 0x4 DUP1 SLOAD PUSH1 0xFF PUSH1 0xA0 SHL NOT AND PUSH1 0x1 PUSH1 0xA0 SHL OR SWAP1 SSTORE TIMESTAMP PUSH1 0x5 SSTORE JUMP JUMPDEST PUSH1 0x4 SLOAD PUSH0 SWAP1 PUSH1 0x1 PUSH1 0xA0 SHL SWAP1 DIV PUSH1 0xFF AND DUP1 ISZERO PUSH2 0x7FE JUMPI POP TIMESTAMP PUSH1 0x6 SLOAD PUSH1 0x5 SLOAD PUSH2 0x7FB SWAP2 SWAP1 PUSH2 0xCF4 JUMP JUMPDEST LT ISZERO JUMPDEST DUP1 ISZERO PUSH2 0x80C JUMPI POP PUSH1 0x5 SLOAD TIMESTAMP LT ISZERO JUMPDEST SWAP1 POP SWAP1 JUMP JUMPDEST PUSH2 0x819 PUSH2 0x93E JUMP JUMPDEST PUSH1 0x3 SLOAD PUSH1 0x40 MLOAD PUSH4 0x70A08231 PUSH1 0xE0 SHL DUP2 MSTORE ADDRESS PUSH1 0x4 DUP3 ADD MSTORE PUSH1 0x1 PUSH1 0x1 PUSH1 0xA0 SHL SUB SWAP1 SWAP2 AND SWAP1 PUSH0 SWAP1 DUP3 SWAP1 PUSH4 0x70A08231 SWAP1 PUSH1 0x24 ADD PUSH1 0x20 PUSH1 0x40 MLOAD DUP1 DUP4 SUB DUP2 DUP7 GAS STATICCALL ISZERO DUP1 ISZERO PUSH2 0x863 JUMPI RETURNDATASIZE PUSH0 DUP1 RETURNDATACOPY RETURNDATASIZE PUSH0 REVERT JUMPDEST POP POP POP POP PUSH1 0x40 MLOAD RETURNDATASIZE PUSH1 0x1F NOT PUSH1 0x1F DUP3 ADD AND DUP3 ADD DUP1 PUSH1 0x40 MSTORE POP DUP2 ADD SWAP1 PUSH2 0x887 SWAP2 SWAP1 PUSH2 0xD13 JUMP JUMPDEST PUSH1 0x4 DUP1 SLOAD PUSH1 0x40 MLOAD PUSH4 0xA9059CBB PUSH1 0xE0 SHL DUP2 MSTORE PUSH1 0x1 PUSH1 0x1 PUSH1 0xA0 SHL SUB SWAP2 DUP3 AND SWAP3 DUP2 ADD SWAP3 SWAP1 SWAP3 MSTORE PUSH1 0x24 DUP3 ADD DUP4 SWAP1 MSTORE SWAP2 SWAP3 POP SWAP1 DUP4 AND SWAP1 PUSH4 0xA9059CBB SWAP1 PUSH1 0x44 ADD PUSH1 0x20 PUSH1 0x40 MLOAD DUP1 DUP4 SUB DUP2 PUSH0 DUP8 GAS CALL ISZERO DUP1 ISZERO PUSH2 0x8DD JUMPI RETURNDATASIZE PUSH0 DUP1 RETURNDATACOPY RETURNDATASIZE PUSH0 REVERT JUMPDEST POP POP POP POP PUSH1 0x40 MLOAD RETURNDATASIZE PUSH1 0x1F NOT PUSH1 0x1F DUP3 ADD AND DUP3 ADD DUP1 PUSH1 0x40 MSTORE POP DUP2 ADD SWAP1 PUSH2 0x6BA SWAP2 SWAP1 PUSH2 0xD2A JUMP JUMPDEST PUSH2 0x909 PUSH2 0x93E JUMP JUMPDEST PUSH1 0x1 PUSH1 0x1 PUSH1 0xA0 SHL SUB DUP2 AND PUSH2 0x932 JUMPI PUSH1 0x40 MLOAD PUSH4 0x1E4FBDF7 PUSH1 0xE0 SHL DUP2 MSTORE PUSH0 PUSH1 0x4 DUP3 ADD MSTORE PUSH1 0x24 ADD PUSH2 0x314 JUMP JUMPDEST PUSH2 0x93B DUP2 PUSH2 0xA74 JUMP JUMPDEST POP JUMP JUMPDEST PUSH0 SLOAD PUSH1 0x1 PUSH1 0x1 PUSH1 0xA0 SHL SUB PUSH2 0x100 SWAP1 SWAP2 DIV AND CALLER EQ PUSH2 0x6CF JUMPI PUSH1 0x40 MLOAD PUSH4 0x118CDAA7 PUSH1 0xE0 SHL DUP2 MSTORE CALLER PUSH1 0x4 DUP3 ADD MSTORE PUSH1 0x24 ADD PUSH2 0x314 JUMP JUMPDEST PUSH0 SLOAD PUSH1 0xFF AND ISZERO PUSH2 0x6CF JUMPI PUSH1 0x40 MLOAD PUSH3 0x461BCD PUSH1 0xE5 SHL DUP2 MSTORE PUSH1 0x20 PUSH1 0x4 DUP3 ADD MSTORE PUSH1 0x10 PUSH1 0x24 DUP3 ADD MSTORE PUSH16 0x14185D5CD8589B194E881C185D5CD959 PUSH1 0x82 SHL PUSH1 0x44 DUP3 ADD MSTORE PUSH1 0x64 ADD PUSH2 0x314 JUMP JUMPDEST PUSH1 0x2 PUSH1 0x1 SLOAD SUB PUSH2 0xA07 JUMPI PUSH1 0x40 MLOAD PUSH3 0x461BCD PUSH1 0xE5 SHL DUP2 MSTORE PUSH1 0x20 PUSH1 0x4 DUP3 ADD MSTORE PUSH1 0x1F PUSH1 0x24 DUP3 ADD MSTORE PUSH32 0x5265656E7472616E637947756172643A207265656E7472616E742063616C6C00 PUSH1 0x44 DUP3 ADD MSTORE PUSH1 0x64 ADD PUSH2 0x314 JUMP JUMPDEST PUSH1 0x2 PUSH1 0x1 SSTORE JUMP JUMPDEST PUSH0 DUP3 PUSH2 0xA1A DUP6 DUP5 PUSH2 0xB08 JUMP JUMPDEST EQ SWAP5 SWAP4 POP POP POP POP JUMP JUMPDEST PUSH2 0xA2B PUSH2 0xB4C JUMP JUMPDEST PUSH0 DUP1 SLOAD PUSH1 0xFF NOT AND SWAP1 SSTORE PUSH32 0x5DB9EE0A495BF2E6FF9C91A7834C1BA4FDD244A5E8AA4E537BD38AEAE4B073AA CALLER JUMPDEST PUSH1 0x40 MLOAD PUSH1 0x1 PUSH1 0x1 PUSH1 0xA0 SHL SUB SWAP1 SWAP2 AND DUP2 MSTORE PUSH1 0x20 ADD PUSH1 0x40 MLOAD DUP1 SWAP2 SUB SWAP1 LOG1 JUMP JUMPDEST PUSH0 DUP1 SLOAD PUSH1 0x1 PUSH1 0x1 PUSH1 0xA0 SHL SUB DUP4 DUP2 AND PUSH2 0x100 DUP2 DUP2 MUL PUSH2 0x100 PUSH1 0x1 PUSH1 0xA8 SHL SUB NOT DUP6 AND OR DUP6 SSTORE PUSH1 0x40 MLOAD SWAP4 DIV SWAP2 SWAP1 SWAP2 AND SWAP3 SWAP1 SWAP2 DUP4 SWAP2 PUSH32 0x8BE0079C531659141344CD1FD0A4F28419497F9722A3DAAFE3B4186F6B6457E0 SWAP2 LOG3 POP POP JUMP JUMPDEST PUSH2 0xAD4 PUSH2 0x970 JUMP JUMPDEST PUSH0 DUP1 SLOAD PUSH1 0xFF NOT AND PUSH1 0x1 OR SWAP1 SSTORE PUSH32 0x62E78CEA01BEE320CD4E420270B5EA74000D11B0C9F74754EBDBFC544B05A258 PUSH2 0xA57 CALLER SWAP1 JUMP JUMPDEST PUSH0 DUP2 DUP2 JUMPDEST DUP5 MLOAD DUP2 LT ISZERO PUSH2 0xB42 JUMPI PUSH2 0xB38 DUP3 DUP7 DUP4 DUP2 MLOAD DUP2 LT PUSH2 0xB2B JUMPI PUSH2 0xB2B PUSH2 0xD49 JUMP JUMPDEST PUSH1 0x20 MUL PUSH1 0x20 ADD ADD MLOAD PUSH2 0xB94 JUMP JUMPDEST SWAP2 POP PUSH1 0x1 ADD PUSH2 0xB0C JUMP JUMPDEST POP SWAP1 POP JUMPDEST SWAP3 SWAP2 POP POP JUMP JUMPDEST PUSH0 SLOAD PUSH1 0xFF AND PUSH2 0x6CF JUMPI PUSH1 0x40 MLOAD PUSH3 0x461BCD PUSH1 0xE5 SHL DUP2 MSTORE PUSH1 0x20 PUSH1 0x4 DUP3 ADD MSTORE PUSH1 0x14 PUSH1 0x24 DUP3 ADD MSTORE PUSH20 0x14185D5CD8589B194E881B9BDD081C185D5CD959 PUSH1 0x62 SHL PUSH1 0x44 DUP3 ADD MSTORE PUSH1 0x64 ADD PUSH2 0x314 JUMP JUMPDEST PUSH0 DUP2 DUP4 LT PUSH2 0xBAE JUMPI PUSH0 DUP3 DUP2 MSTORE PUSH1 0x20 DUP5 SWAP1 MSTORE PUSH1 0x40 SWAP1 KECCAK256 PUSH2 0xBBC JUMP JUMPDEST PUSH0 DUP4 DUP2 MSTORE PUSH1 0x20 DUP4 SWAP1 MSTORE PUSH1 0x40 SWAP1 KECCAK256 JUMPDEST SWAP4 SWAP3 POP POP POP JUMP JUMPDEST DUP1 CALLDATALOAD PUSH1 0x1 PUSH1 0x1 PUSH1 0xA0 SHL SUB DUP2 AND DUP2 EQ PUSH2 0xBD9 JUMPI PUSH0 DUP1 REVERT JUMPDEST SWAP2 SWAP1 POP JUMP JUMPDEST PUSH0 PUSH1 0x20 DUP3 DUP5 SUB SLT ISZERO PUSH2 0xBEE JUMPI PUSH0 DUP1 REVERT JUMPDEST PUSH2 0xBBC DUP3 PUSH2 0xBC3 JUMP JUMPDEST PUSH0 DUP1 DUP4 PUSH1 0x1F DUP5 ADD SLT PUSH2 0xC07 JUMPI PUSH0 DUP1 REVERT JUMPDEST POP DUP2 CALLDATALOAD PUSH8 0xFFFFFFFFFFFFFFFF DUP2 GT ISZERO PUSH2 0xC1E JUMPI PUSH0 DUP1 REVERT JUMPDEST PUSH1 0x20 DUP4 ADD SWAP2 POP DUP4 PUSH1 0x20 DUP3 PUSH1 0x5 SHL DUP6 ADD ADD GT ISZERO PUSH2 0xC38 JUMPI PUSH0 DUP1 REVERT JUMPDEST SWAP3 POP SWAP3 SWAP1 POP JUMP JUMPDEST PUSH0 DUP1 PUSH0 PUSH1 0x40 DUP5 DUP7 SUB SLT ISZERO PUSH2 0xC51 JUMPI PUSH0 DUP1 REVERT JUMPDEST DUP4 CALLDATALOAD SWAP3 POP PUSH1 0x20 DUP5 ADD CALLDATALOAD PUSH8 0xFFFFFFFFFFFFFFFF DUP2 GT ISZERO PUSH2 0xC6E JUMPI PUSH0 DUP1 REVERT JUMPDEST PUSH2 0xC7A DUP7 DUP3 DUP8 ADD PUSH2 0xBF7 JUMP JUMPDEST SWAP5 SWAP8 SWAP1 SWAP7 POP SWAP4 SWAP5 POP POP POP POP JUMP JUMPDEST PUSH0 PUSH1 0x20 DUP3 DUP5 SUB SLT ISZERO PUSH2 0xC97 JUMPI PUSH0 DUP1 REVERT JUMPDEST POP CALLDATALOAD SWAP2 SWAP1 POP JUMP JUMPDEST PUSH0 DUP1 PUSH0 DUP1 PUSH1 0x60 DUP6 DUP8 SUB SLT ISZERO PUSH2 0xCB1 JUMPI PUSH0 DUP1 REVERT JUMPDEST PUSH2 0xCBA DUP6 PUSH2 0xBC3 JUMP JUMPDEST SWAP4 POP PUSH1 0x20 DUP6 ADD CALLDATALOAD SWAP3 POP PUSH1 0x40 DUP6 ADD CALLDATALOAD PUSH8 0xFFFFFFFFFFFFFFFF DUP2 GT ISZERO PUSH2 0xCDC JUMPI PUSH0 DUP1 REVERT JUMPDEST PUSH2 0xCE8 DUP8 DUP3 DUP9 ADD PUSH2 0xBF7 JUMP JUMPDEST SWAP6 SWAP9 SWAP5 SWAP8 POP SWAP6 POP POP POP POP JUMP JUMPDEST DUP1 DUP3 ADD DUP1 DUP3 GT ISZERO PUSH2 0xB46 JUMPI PUSH4 0x4E487B71 PUSH1 0xE0 SHL PUSH0 MSTORE PUSH1 0x11 PUSH1 0x4 MSTORE PUSH1 0x24 PUSH0 REVERT JUMPDEST PUSH0 PUSH1 0x20 DUP3 DUP5 SUB SLT ISZERO PUSH2 0xD23 JUMPI PUSH0 DUP1 REVERT JUMPDEST POP MLOAD SWAP2 SWAP1 POP JUMP JUMPDEST PUSH0 PUSH1 0x20 DUP3 DUP5 SUB SLT ISZERO PUSH2 0xD3A JUMPI PUSH0 DUP1 REVERT JUMPDEST DUP2 MLOAD DUP1 ISZERO ISZERO DUP2 EQ PUSH2 0xBBC JUMPI PUSH0 DUP1 REVERT JUMPDEST PUSH4 0x4E487B71 PUSH1 0xE0 SHL PUSH0 MSTORE PUSH1 0x32 PUSH1 0x4 MSTORE PUSH1 0x24 PUSH0 REVERT INVALID LOG2 PUSH5 0x6970667358 0x22 SLT KECCAK256 0xB2 0x4F 0x23 0xAB RETURNDATACOPY 0xEB PREVRANDAO 0xDD POP 0xA9 BLOBHASH SWAP1 CALLVALUE 0xDA 0xAF 0xF6 PUSH20 0xFE0A3FC42196C3C5307A18F603014864736F6C63 NUMBER STOP ADDMOD BYTE STOP CALLER "
				},
				"gasEstimates": {
					"creation": {
						"codeDepositCost": "695000",
						"executionCost": "infinite",
						"totalCost": "infinite"
					},
					"external": {
						"checkClaimingRound()": "8833",
						"claim(uint256,bytes32[])": "infinite",
						"claimed(address)": "2594",
						"claimingRoundDuration()": "2306",
						"endClaimingRound()": "31616",
						"isClaiming()": "2371",
						"merkleRoot()": "2329",
						"owner()": "2429",
						"pause()": "infinite",
						"paused()": "2336",
						"renounceOwnership()": "infinite",
						"setClaimingRoundDuration(uint256)": "24588",
						"setMerkleRoot(bytes32)": "24522",
						"setStartClaimingRound()": "48683",
						"setToken(address)": "26805",
						"startClaimingRound()": "2395",
						"token()": "2468",
						"transferOwnership(address)": "28475",
						"treasury()": "2447",
						"unClaimedTokenToTreasury()": "infinite",
						"unpause()": "infinite",
						"verifyUser(address,uint256,bytes32[])": "infinite"
					}
				},
				"methodIdentifiers": {
					"checkClaimingRound()": "c27f7e26",
					"claim(uint256,bytes32[])": "2f52ebb7",
					"claimed(address)": "c884ef83",
					"claimingRoundDuration()": "49039527",
					"endClaimingRound()": "5e4f3a9c",
					"isClaiming()": "7cc6cb7a",
					"merkleRoot()": "2eb4a7ab",
					"owner()": "8da5cb5b",
					"pause()": "8456cb59",
					"paused()": "5c975abb",
					"renounceOwnership()": "715018a6",
					"setClaimingRoundDuration(uint256)": "6038efad",
					"setMerkleRoot(bytes32)": "7cb64759",
					"setStartClaimingRound()": "b6cd5d1a",
					"setToken(address)": "144fa6d7",
					"startClaimingRound()": "428e7565",
					"token()": "fc0c546a",
					"transferOwnership(address)": "f2fde38b",
					"treasury()": "61d027b3",
					"unClaimedTokenToTreasury()": "de805da7",
					"unpause()": "3f4ba83a",
					"verifyUser(address,uint256,bytes32[])": "a0074c67"
				}
			},
			"storageLayout": {
				"storage": [
					{
						"astId": 165,
						"contract": "SmartContractsInterview/MerkleDistribution.sol:MerkleDistributor",
						"label": "_paused",
						"offset": 0,
						"slot": "0",
						"type": "t_bool"
					},
					{
						"astId": 8,
						"contract": "SmartContractsInterview/MerkleDistribution.sol:MerkleDistributor",
						"label": "_owner",
						"offset": 1,
						"slot": "0",
						"type": "t_address"
					},
					{
						"astId": 266,
						"contract": "SmartContractsInterview/MerkleDistribution.sol:MerkleDistributor",
						"label": "_status",
						"offset": 0,
						"slot": "1",
						"type": "t_uint256"
					},
					{
						"astId": 980,
						"contract": "SmartContractsInterview/MerkleDistribution.sol:MerkleDistributor",
						"label": "merkleRoot",
						"offset": 0,
						"slot": "2",
						"type": "t_bytes32"
					},
					{
						"astId": 982,
						"contract": "SmartContractsInterview/MerkleDistribution.sol:MerkleDistributor",
						"label": "token",
						"offset": 0,
						"slot": "3",
						"type": "t_address"
					},
					{
						"astId": 984,
						"contract": "SmartContractsInterview/MerkleDistribution.sol:MerkleDistributor",
						"label": "treasury",
						"offset": 0,
						"slot": "4",
						"type": "t_address"
					},
					{
						"astId": 986,
						"contract": "SmartContractsInterview/MerkleDistribution.sol:MerkleDistributor",
						"label": "isClaiming",
						"offset": 20,
						"slot": "4",
						"type": "t_bool"
					},
					{
						"astId": 988,
						"contract": "SmartContractsInterview/MerkleDistribution.sol:MerkleDistributor",
						"label": "startClaimingRound",
						"offset": 0,
						"slot": "5",
						"type": "t_uint256"
					},
					{
						"astId": 990,
						"contract": "SmartContractsInterview/MerkleDistribution.sol:MerkleDistributor",
						"label": "claimingRoundDuration",
						"offset": 0,
						"slot": "6",
						"type": "t_uint256"
					},
					{
						"astId": 994,
						"contract": "SmartContractsInterview/MerkleDistribution.sol:MerkleDistributor",
						"label": "claimed",
						"offset": 0,
						"slot": "7",
						"type": "t_mapping(t_address,t_bool)"
					}
				],
				"types": {
					"t_address": {
						"encoding": "inplace",
						"label": "address",
						"numberOfBytes": "20"
					},
					"t_bool": {
						"encoding": "inplace",
						"label": "bool",
						"numberOfBytes": "1"
					},
					"t_bytes32": {
						"encoding": "inplace",
						"label": "bytes32",
						"numberOfBytes": "32"
					},
					"t_mapping(t_address,t_bool)": {
						"encoding": "mapping",
						"key": "t_address",
						"label": "mapping(address => bool)",
						"numberOfBytes": "32",
						"value": "t_bool"
					},
					"t_uint256": {
						"encoding": "inplace",
						"label": "uint256",
						"numberOfBytes": "32"
					}
				}
			},
			"userdoc": {
				"kind": "user",
				"methods": {},
				"version": 1
			}
		}
	}
}