{
	"data": {
		"bytecode": {
			"linkReferences": {},
			"object": "60806040526009805460ff191690556801158e460913d00000600b556064600c55710b7abc627050305adf1495f92d4c589c0000600d819055600e5560c8600f819055601081905560118190556012553480156059575f80fd5b503380607e57604051631e4fbdf760e01b81525f600482015260240160405180910390fd5b608581608a565b5060d9565b5f80546001600160a01b038381166001600160a01b0319831681178455604051919092169283917f8be0079c531659141344cd1fd0a4f28419497f9722a3daafe3b4186f6b6457e09190a35050565b610847806100e65f395ff3fe608060405234801561000f575f80fd5b50600436106100fb575f3560e01c80636626b26d11610093578063947a36fb11610063578063947a36fb146101ee578063d777cc6d146101f7578063e9c68e2c1461020a578063f2fde38b14610212575f80fd5b80636626b26d146101ad5780636e04ff0d146101b5578063715018a6146101d65780638da5cb5b146101de575f80fd5b80633f3b3b27116100ce5780633f3b3b27146101735780634585e33b1461017c5780635f17e6161461019157806361bc221a146101a4575f80fd5b80633070fbf8146100ff57806330cac9721461012f57806330e3f8f81461014657806339518b5e1461016a575b5f80fd5b600654610112906001600160a01b031681565b6040516001600160a01b0390911681526020015b60405180910390f35b61013860035481565b604051908152602001610126565b60065461015a90600160a01b900460ff1681565b6040519015158152602001610126565b61013860045481565b61013860055481565b61018f61018a3660046106a8565b610225565b005b61018f61019f366004610716565b610330565b61013860015481565b61018f61039b565b6101c86101c33660046106a8565b6103b6565b604051610126929190610736565b61018f6103e6565b5f546001600160a01b0316610112565b61013860025481565b61018f610205366004610774565b6103f9565b61018f610423565b61018f610220366004610774565b610524565b6006546001600160a01b031633146102aa5760405162461bcd60e51b815260206004820152603b60248201527f54686973206164647265737320646f6573206e6f742068617665207065726d6960448201527f7373696f6e20746f2063616c6c20706572666f726d55706b656570000000000060648201526084015b60405180910390fd5b6002545f036102d257600254604051637154000760e01b81526004016102a191815260200190565b600454421061030f574260058190556102e9610423565b5f6102f482426107b5565b90508060035461030491906107b5565b6002555061032c9050565b600480546040516354593e7560e01b8152918201526024016102a1565b5050565b610338610561565b5f811161035b57604051637154000760e01b8152600481018290526024016102a1565b4282101561037f576040516354593e7560e01b8152600481018390526024016102a1565b61038942836107b5565b60025560049190915542600555600355565b6103a3610561565b5f6002556006805460ff60a01b19169055565b5f60605f600254600554426103cb91906107b5565b60408051602081019091525f81529110969095509350505050565b6103ee610561565b6103f75f61058d565b565b610401610561565b600680546001600160a01b0319166001600160a01b0392909216919091179055565b5f805f61042e6105dc565b919450925090505f805b600c5481101561051d5760095460ff1661051557600b545f9061045d816127106107c8565b61046791906107df565b90505f6104748683610685565b90505f6104818884610685565b905081600d5f82825461049491906107b5565b909155506104a4905082866107fe565b945085600e5f8282546104b791906107b5565b925050819055508560075f8282546104cf91906107fe565b925050819055508160085f8282546104e791906107fe565b909155505f90506104f887846107fe565b905080600a5f82825461050b91906107fe565b9091555050505050505b600101610438565b5050505050565b61052c610561565b6001600160a01b03811661055557604051631e4fbdf760e01b81525f60048201526024016102a1565b61055e8161058d565b50565b5f546001600160a01b031633146103f75760405163118cdaa760e01b81523360048201526024016102a1565b5f80546001600160a01b038381166001600160a01b0319831681178455604051919092169283917f8be0079c531659141344cd1fd0a4f28419497f9722a3daafe3b4186f6b6457e09190a35050565b5f805f806105ee600d54611388610685565b90505f6105fd82600f54610685565b90505f61060c83601054610685565b90505f61061b84601154610685565b90505f61062c600e54601254610685565b90505f600c548261063d91906107df565b905061064983856107fe565b600d5f82825461065991906107b5565b9250508190555083600e5f82825461067191906107fe565b909155509599949850965092945050505050565b5f8061271061069484866107c8565b61069e91906107df565b9150505b92915050565b5f80602083850312156106b9575f80fd5b823567ffffffffffffffff8111156106cf575f80fd5b8301601f810185136106df575f80fd5b803567ffffffffffffffff8111156106f5575f80fd5b856020828401011115610706575f80fd5b6020919091019590945092505050565b5f8060408385031215610727575f80fd5b50508035926020909101359150565b8215158152604060208201525f82518060408401528060208501606085015e5f606082850101526060601f19601f8301168401019150509392505050565b5f60208284031215610784575f80fd5b81356001600160a01b038116811461079a575f80fd5b9392505050565b634e487b7160e01b5f52601160045260245ffd5b818103818111156106a2576106a26107a1565b80820281158282048414176106a2576106a26107a1565b5f826107f957634e487b7160e01b5f52601260045260245ffd5b500490565b808201808211156106a2576106a26107a156fea26469706673582212209120a310dae1205a957815b459e1251be6b70cc35bfc17a2d9ed5f829eccedb964736f6c634300081a0033",
			"opcodes": "PUSH1 0x80 PUSH1 0x40 MSTORE PUSH1 0x9 DUP1 SLOAD PUSH1 0xFF NOT AND SWAP1 SSTORE PUSH9 0x1158E460913D00000 PUSH1 0xB SSTORE PUSH1 0x64 PUSH1 0xC SSTORE PUSH18 0xB7ABC627050305ADF1495F92D4C589C0000 PUSH1 0xD DUP2 SWAP1 SSTORE PUSH1 0xE SSTORE PUSH1 0xC8 PUSH1 0xF DUP2 SWAP1 SSTORE PUSH1 0x10 DUP2 SWAP1 SSTORE PUSH1 0x11 DUP2 SWAP1 SSTORE PUSH1 0x12 SSTORE CALLVALUE DUP1 ISZERO PUSH1 0x59 JUMPI PUSH0 DUP1 REVERT JUMPDEST POP CALLER DUP1 PUSH1 0x7E JUMPI PUSH1 0x40 MLOAD PUSH4 0x1E4FBDF7 PUSH1 0xE0 SHL DUP2 MSTORE PUSH0 PUSH1 0x4 DUP3 ADD MSTORE PUSH1 0x24 ADD PUSH1 0x40 MLOAD DUP1 SWAP2 SUB SWAP1 REVERT JUMPDEST PUSH1 0x85 DUP2 PUSH1 0x8A JUMP JUMPDEST POP PUSH1 0xD9 JUMP JUMPDEST PUSH0 DUP1 SLOAD PUSH1 0x1 PUSH1 0x1 PUSH1 0xA0 SHL SUB DUP4 DUP2 AND PUSH1 0x1 PUSH1 0x1 PUSH1 0xA0 SHL SUB NOT DUP4 AND DUP2 OR DUP5 SSTORE PUSH1 0x40 MLOAD SWAP2 SWAP1 SWAP3 AND SWAP3 DUP4 SWAP2 PUSH32 0x8BE0079C531659141344CD1FD0A4F28419497F9722A3DAAFE3B4186F6B6457E0 SWAP2 SWAP1 LOG3 POP POP JUMP JUMPDEST PUSH2 0x847 DUP1 PUSH2 0xE6 PUSH0 CODECOPY PUSH0 RETURN INVALID PUSH1 0x80 PUSH1 0x40 MSTORE CALLVALUE DUP1 ISZERO PUSH2 0xF JUMPI PUSH0 DUP1 REVERT JUMPDEST POP PUSH1 0x4 CALLDATASIZE LT PUSH2 0xFB JUMPI PUSH0 CALLDATALOAD PUSH1 0xE0 SHR DUP1 PUSH4 0x6626B26D GT PUSH2 0x93 JUMPI DUP1 PUSH4 0x947A36FB GT PUSH2 0x63 JUMPI DUP1 PUSH4 0x947A36FB EQ PUSH2 0x1EE JUMPI DUP1 PUSH4 0xD777CC6D EQ PUSH2 0x1F7 JUMPI DUP1 PUSH4 0xE9C68E2C EQ PUSH2 0x20A JUMPI DUP1 PUSH4 0xF2FDE38B EQ PUSH2 0x212 JUMPI PUSH0 DUP1 REVERT JUMPDEST DUP1 PUSH4 0x6626B26D EQ PUSH2 0x1AD JUMPI DUP1 PUSH4 0x6E04FF0D EQ PUSH2 0x1B5 JUMPI DUP1 PUSH4 0x715018A6 EQ PUSH2 0x1D6 JUMPI DUP1 PUSH4 0x8DA5CB5B EQ PUSH2 0x1DE JUMPI PUSH0 DUP1 REVERT JUMPDEST DUP1 PUSH4 0x3F3B3B27 GT PUSH2 0xCE JUMPI DUP1 PUSH4 0x3F3B3B27 EQ PUSH2 0x173 JUMPI DUP1 PUSH4 0x4585E33B EQ PUSH2 0x17C JUMPI DUP1 PUSH4 0x5F17E616 EQ PUSH2 0x191 JUMPI DUP1 PUSH4 0x61BC221A EQ PUSH2 0x1A4 JUMPI PUSH0 DUP1 REVERT JUMPDEST DUP1 PUSH4 0x3070FBF8 EQ PUSH2 0xFF JUMPI DUP1 PUSH4 0x30CAC972 EQ PUSH2 0x12F JUMPI DUP1 PUSH4 0x30E3F8F8 EQ PUSH2 0x146 JUMPI DUP1 PUSH4 0x39518B5E EQ PUSH2 0x16A JUMPI JUMPDEST PUSH0 DUP1 REVERT JUMPDEST PUSH1 0x6 SLOAD PUSH2 0x112 SWAP1 PUSH1 0x1 PUSH1 0x1 PUSH1 0xA0 SHL SUB AND DUP2 JUMP JUMPDEST PUSH1 0x40 MLOAD PUSH1 0x1 PUSH1 0x1 PUSH1 0xA0 SHL SUB SWAP1 SWAP2 AND DUP2 MSTORE PUSH1 0x20 ADD JUMPDEST PUSH1 0x40 MLOAD DUP1 SWAP2 SUB SWAP1 RETURN JUMPDEST PUSH2 0x138 PUSH1 0x3 SLOAD DUP2 JUMP JUMPDEST PUSH1 0x40 MLOAD SWAP1 DUP2 MSTORE PUSH1 0x20 ADD PUSH2 0x126 JUMP JUMPDEST PUSH1 0x6 SLOAD PUSH2 0x15A SWAP1 PUSH1 0x1 PUSH1 0xA0 SHL SWAP1 DIV PUSH1 0xFF AND DUP2 JUMP JUMPDEST PUSH1 0x40 MLOAD SWAP1 ISZERO ISZERO DUP2 MSTORE PUSH1 0x20 ADD PUSH2 0x126 JUMP JUMPDEST PUSH2 0x138 PUSH1 0x4 SLOAD DUP2 JUMP JUMPDEST PUSH2 0x138 PUSH1 0x5 SLOAD DUP2 JUMP JUMPDEST PUSH2 0x18F PUSH2 0x18A CALLDATASIZE PUSH1 0x4 PUSH2 0x6A8 JUMP JUMPDEST PUSH2 0x225 JUMP JUMPDEST STOP JUMPDEST PUSH2 0x18F PUSH2 0x19F CALLDATASIZE PUSH1 0x4 PUSH2 0x716 JUMP JUMPDEST PUSH2 0x330 JUMP JUMPDEST PUSH2 0x138 PUSH1 0x1 SLOAD DUP2 JUMP JUMPDEST PUSH2 0x18F PUSH2 0x39B JUMP JUMPDEST PUSH2 0x1C8 PUSH2 0x1C3 CALLDATASIZE PUSH1 0x4 PUSH2 0x6A8 JUMP JUMPDEST PUSH2 0x3B6 JUMP JUMPDEST PUSH1 0x40 MLOAD PUSH2 0x126 SWAP3 SWAP2 SWAP1 PUSH2 0x736 JUMP JUMPDEST PUSH2 0x18F PUSH2 0x3E6 JUMP JUMPDEST PUSH0 SLOAD PUSH1 0x1 PUSH1 0x1 PUSH1 0xA0 SHL SUB AND PUSH2 0x112 JUMP JUMPDEST PUSH2 0x138 PUSH1 0x2 SLOAD DUP2 JUMP JUMPDEST PUSH2 0x18F PUSH2 0x205 CALLDATASIZE PUSH1 0x4 PUSH2 0x774 JUMP JUMPDEST PUSH2 0x3F9 JUMP JUMPDEST PUSH2 0x18F PUSH2 0x423 JUMP JUMPDEST PUSH2 0x18F PUSH2 0x220 CALLDATASIZE PUSH1 0x4 PUSH2 0x774 JUMP JUMPDEST PUSH2 0x524 JUMP JUMPDEST PUSH1 0x6 SLOAD PUSH1 0x1 PUSH1 0x1 PUSH1 0xA0 SHL SUB AND CALLER EQ PUSH2 0x2AA JUMPI PUSH1 0x40 MLOAD PUSH3 0x461BCD PUSH1 0xE5 SHL DUP2 MSTORE PUSH1 0x20 PUSH1 0x4 DUP3 ADD MSTORE PUSH1 0x3B PUSH1 0x24 DUP3 ADD MSTORE PUSH32 0x54686973206164647265737320646F6573206E6F742068617665207065726D69 PUSH1 0x44 DUP3 ADD MSTORE PUSH32 0x7373696F6E20746F2063616C6C20706572666F726D55706B6565700000000000 PUSH1 0x64 DUP3 ADD MSTORE PUSH1 0x84 ADD JUMPDEST PUSH1 0x40 MLOAD DUP1 SWAP2 SUB SWAP1 REVERT JUMPDEST PUSH1 0x2 SLOAD PUSH0 SUB PUSH2 0x2D2 JUMPI PUSH1 0x2 SLOAD PUSH1 0x40 MLOAD PUSH4 0x71540007 PUSH1 0xE0 SHL DUP2 MSTORE PUSH1 0x4 ADD PUSH2 0x2A1 SWAP2 DUP2 MSTORE PUSH1 0x20 ADD SWAP1 JUMP JUMPDEST PUSH1 0x4 SLOAD TIMESTAMP LT PUSH2 0x30F JUMPI TIMESTAMP PUSH1 0x5 DUP2 SWAP1 SSTORE PUSH2 0x2E9 PUSH2 0x423 JUMP JUMPDEST PUSH0 PUSH2 0x2F4 DUP3 TIMESTAMP PUSH2 0x7B5 JUMP JUMPDEST SWAP1 POP DUP1 PUSH1 0x3 SLOAD PUSH2 0x304 SWAP2 SWAP1 PUSH2 0x7B5 JUMP JUMPDEST PUSH1 0x2 SSTORE POP PUSH2 0x32C SWAP1 POP JUMP JUMPDEST PUSH1 0x4 DUP1 SLOAD PUSH1 0x40 MLOAD PUSH4 0x54593E75 PUSH1 0xE0 SHL DUP2 MSTORE SWAP2 DUP3 ADD MSTORE PUSH1 0x24 ADD PUSH2 0x2A1 JUMP JUMPDEST POP POP JUMP JUMPDEST PUSH2 0x338 PUSH2 0x561 JUMP JUMPDEST PUSH0 DUP2 GT PUSH2 0x35B JUMPI PUSH1 0x40 MLOAD PUSH4 0x71540007 PUSH1 0xE0 SHL DUP2 MSTORE PUSH1 0x4 DUP2 ADD DUP3 SWAP1 MSTORE PUSH1 0x24 ADD PUSH2 0x2A1 JUMP JUMPDEST TIMESTAMP DUP3 LT ISZERO PUSH2 0x37F JUMPI PUSH1 0x40 MLOAD PUSH4 0x54593E75 PUSH1 0xE0 SHL DUP2 MSTORE PUSH1 0x4 DUP2 ADD DUP4 SWAP1 MSTORE PUSH1 0x24 ADD PUSH2 0x2A1 JUMP JUMPDEST PUSH2 0x389 TIMESTAMP DUP4 PUSH2 0x7B5 JUMP JUMPDEST PUSH1 0x2 SSTORE PUSH1 0x4 SWAP2 SWAP1 SWAP2 SSTORE TIMESTAMP PUSH1 0x5 SSTORE PUSH1 0x3 SSTORE JUMP JUMPDEST PUSH2 0x3A3 PUSH2 0x561 JUMP JUMPDEST PUSH0 PUSH1 0x2 SSTORE PUSH1 0x6 DUP1 SLOAD PUSH1 0xFF PUSH1 0xA0 SHL NOT AND SWAP1 SSTORE JUMP JUMPDEST PUSH0 PUSH1 0x60 PUSH0 PUSH1 0x2 SLOAD PUSH1 0x5 SLOAD TIMESTAMP PUSH2 0x3CB SWAP2 SWAP1 PUSH2 0x7B5 JUMP JUMPDEST PUSH1 0x40 DUP1 MLOAD PUSH1 0x20 DUP2 ADD SWAP1 SWAP2 MSTORE PUSH0 DUP2 MSTORE SWAP2 LT SWAP7 SWAP1 SWAP6 POP SWAP4 POP POP POP POP JUMP JUMPDEST PUSH2 0x3EE PUSH2 0x561 JUMP JUMPDEST PUSH2 0x3F7 PUSH0 PUSH2 0x58D JUMP JUMPDEST JUMP JUMPDEST PUSH2 0x401 PUSH2 0x561 JUMP JUMPDEST PUSH1 0x6 DUP1 SLOAD PUSH1 0x1 PUSH1 0x1 PUSH1 0xA0 SHL SUB NOT AND PUSH1 0x1 PUSH1 0x1 PUSH1 0xA0 SHL SUB SWAP3 SWAP1 SWAP3 AND SWAP2 SWAP1 SWAP2 OR SWAP1 SSTORE JUMP JUMPDEST PUSH0 DUP1 PUSH0 PUSH2 0x42E PUSH2 0x5DC JUMP JUMPDEST SWAP2 SWAP5 POP SWAP3 POP SWAP1 POP PUSH0 DUP1 JUMPDEST PUSH1 0xC SLOAD DUP2 LT ISZERO PUSH2 0x51D JUMPI PUSH1 0x9 SLOAD PUSH1 0xFF AND PUSH2 0x515 JUMPI PUSH1 0xB SLOAD PUSH0 SWAP1 PUSH2 0x45D DUP2 PUSH2 0x2710 PUSH2 0x7C8 JUMP JUMPDEST PUSH2 0x467 SWAP2 SWAP1 PUSH2 0x7DF JUMP JUMPDEST SWAP1 POP PUSH0 PUSH2 0x474 DUP7 DUP4 PUSH2 0x685 JUMP JUMPDEST SWAP1 POP PUSH0 PUSH2 0x481 DUP9 DUP5 PUSH2 0x685 JUMP JUMPDEST SWAP1 POP DUP2 PUSH1 0xD PUSH0 DUP3 DUP3 SLOAD PUSH2 0x494 SWAP2 SWAP1 PUSH2 0x7B5 JUMP JUMPDEST SWAP1 SWAP2 SSTORE POP PUSH2 0x4A4 SWAP1 POP DUP3 DUP7 PUSH2 0x7FE JUMP JUMPDEST SWAP5 POP DUP6 PUSH1 0xE PUSH0 DUP3 DUP3 SLOAD PUSH2 0x4B7 SWAP2 SWAP1 PUSH2 0x7B5 JUMP JUMPDEST SWAP3 POP POP DUP2 SWAP1 SSTORE POP DUP6 PUSH1 0x7 PUSH0 DUP3 DUP3 SLOAD PUSH2 0x4CF SWAP2 SWAP1 PUSH2 0x7FE JUMP JUMPDEST SWAP3 POP POP DUP2 SWAP1 SSTORE POP DUP2 PUSH1 0x8 PUSH0 DUP3 DUP3 SLOAD PUSH2 0x4E7 SWAP2 SWAP1 PUSH2 0x7FE JUMP JUMPDEST SWAP1 SWAP2 SSTORE POP PUSH0 SWAP1 POP PUSH2 0x4F8 DUP8 DUP5 PUSH2 0x7FE JUMP JUMPDEST SWAP1 POP DUP1 PUSH1 0xA PUSH0 DUP3 DUP3 SLOAD PUSH2 0x50B SWAP2 SWAP1 PUSH2 0x7FE JUMP JUMPDEST SWAP1 SWAP2 SSTORE POP POP POP POP POP POP JUMPDEST PUSH1 0x1 ADD PUSH2 0x438 JUMP JUMPDEST POP POP POP POP POP JUMP JUMPDEST PUSH2 0x52C PUSH2 0x561 JUMP JUMPDEST PUSH1 0x1 PUSH1 0x1 PUSH1 0xA0 SHL SUB DUP2 AND PUSH2 0x555 JUMPI PUSH1 0x40 MLOAD PUSH4 0x1E4FBDF7 PUSH1 0xE0 SHL DUP2 MSTORE PUSH0 PUSH1 0x4 DUP3 ADD MSTORE PUSH1 0x24 ADD PUSH2 0x2A1 JUMP JUMPDEST PUSH2 0x55E DUP2 PUSH2 0x58D JUMP JUMPDEST POP JUMP JUMPDEST PUSH0 SLOAD PUSH1 0x1 PUSH1 0x1 PUSH1 0xA0 SHL SUB AND CALLER EQ PUSH2 0x3F7 JUMPI PUSH1 0x40 MLOAD PUSH4 0x118CDAA7 PUSH1 0xE0 SHL DUP2 MSTORE CALLER PUSH1 0x4 DUP3 ADD MSTORE PUSH1 0x24 ADD PUSH2 0x2A1 JUMP JUMPDEST PUSH0 DUP1 SLOAD PUSH1 0x1 PUSH1 0x1 PUSH1 0xA0 SHL SUB DUP4 DUP2 AND PUSH1 0x1 PUSH1 0x1 PUSH1 0xA0 SHL SUB NOT DUP4 AND DUP2 OR DUP5 SSTORE PUSH1 0x40 MLOAD SWAP2 SWAP1 SWAP3 AND SWAP3 DUP4 SWAP2 PUSH32 0x8BE0079C531659141344CD1FD0A4F28419497F9722A3DAAFE3B4186F6B6457E0 SWAP2 SWAP1 LOG3 POP POP JUMP JUMPDEST PUSH0 DUP1 PUSH0 DUP1 PUSH2 0x5EE PUSH1 0xD SLOAD PUSH2 0x1388 PUSH2 0x685 JUMP JUMPDEST SWAP1 POP PUSH0 PUSH2 0x5FD DUP3 PUSH1 0xF SLOAD PUSH2 0x685 JUMP JUMPDEST SWAP1 POP PUSH0 PUSH2 0x60C DUP4 PUSH1 0x10 SLOAD PUSH2 0x685 JUMP JUMPDEST SWAP1 POP PUSH0 PUSH2 0x61B DUP5 PUSH1 0x11 SLOAD PUSH2 0x685 JUMP JUMPDEST SWAP1 POP PUSH0 PUSH2 0x62C PUSH1 0xE SLOAD PUSH1 0x12 SLOAD PUSH2 0x685 JUMP JUMPDEST SWAP1 POP PUSH0 PUSH1 0xC SLOAD DUP3 PUSH2 0x63D SWAP2 SWAP1 PUSH2 0x7DF JUMP JUMPDEST SWAP1 POP PUSH2 0x649 DUP4 DUP6 PUSH2 0x7FE JUMP JUMPDEST PUSH1 0xD PUSH0 DUP3 DUP3 SLOAD PUSH2 0x659 SWAP2 SWAP1 PUSH2 0x7B5 JUMP JUMPDEST SWAP3 POP POP DUP2 SWAP1 SSTORE POP DUP4 PUSH1 0xE PUSH0 DUP3 DUP3 SLOAD PUSH2 0x671 SWAP2 SWAP1 PUSH2 0x7FE JUMP JUMPDEST SWAP1 SWAP2 SSTORE POP SWAP6 SWAP10 SWAP5 SWAP9 POP SWAP7 POP SWAP3 SWAP5 POP POP POP POP POP JUMP JUMPDEST PUSH0 DUP1 PUSH2 0x2710 PUSH2 0x694 DUP5 DUP7 PUSH2 0x7C8 JUMP JUMPDEST PUSH2 0x69E SWAP2 SWAP1 PUSH2 0x7DF JUMP JUMPDEST SWAP2 POP POP JUMPDEST SWAP3 SWAP2 POP POP JUMP JUMPDEST PUSH0 DUP1 PUSH1 0x20 DUP4 DUP6 SUB SLT ISZERO PUSH2 0x6B9 JUMPI PUSH0 DUP1 REVERT JUMPDEST DUP3 CALLDATALOAD PUSH8 0xFFFFFFFFFFFFFFFF DUP2 GT ISZERO PUSH2 0x6CF JUMPI PUSH0 DUP1 REVERT JUMPDEST DUP4 ADD PUSH1 0x1F DUP2 ADD DUP6 SGT PUSH2 0x6DF JUMPI PUSH0 DUP1 REVERT JUMPDEST DUP1 CALLDATALOAD PUSH8 0xFFFFFFFFFFFFFFFF DUP2 GT ISZERO PUSH2 0x6F5 JUMPI PUSH0 DUP1 REVERT JUMPDEST DUP6 PUSH1 0x20 DUP3 DUP5 ADD ADD GT ISZERO PUSH2 0x706 JUMPI PUSH0 DUP1 REVERT JUMPDEST PUSH1 0x20 SWAP2 SWAP1 SWAP2 ADD SWAP6 SWAP1 SWAP5 POP SWAP3 POP POP POP JUMP JUMPDEST PUSH0 DUP1 PUSH1 0x40 DUP4 DUP6 SUB SLT ISZERO PUSH2 0x727 JUMPI PUSH0 DUP1 REVERT JUMPDEST POP POP DUP1 CALLDATALOAD SWAP3 PUSH1 0x20 SWAP1 SWAP2 ADD CALLDATALOAD SWAP2 POP JUMP JUMPDEST DUP3 ISZERO ISZERO DUP2 MSTORE PUSH1 0x40 PUSH1 0x20 DUP3 ADD MSTORE PUSH0 DUP3 MLOAD DUP1 PUSH1 0x40 DUP5 ADD MSTORE DUP1 PUSH1 0x20 DUP6 ADD PUSH1 0x60 DUP6 ADD MCOPY PUSH0 PUSH1 0x60 DUP3 DUP6 ADD ADD MSTORE PUSH1 0x60 PUSH1 0x1F NOT PUSH1 0x1F DUP4 ADD AND DUP5 ADD ADD SWAP2 POP POP SWAP4 SWAP3 POP POP POP JUMP JUMPDEST PUSH0 PUSH1 0x20 DUP3 DUP5 SUB SLT ISZERO PUSH2 0x784 JUMPI PUSH0 DUP1 REVERT JUMPDEST DUP2 CALLDATALOAD PUSH1 0x1 PUSH1 0x1 PUSH1 0xA0 SHL SUB DUP2 AND DUP2 EQ PUSH2 0x79A JUMPI PUSH0 DUP1 REVERT JUMPDEST SWAP4 SWAP3 POP POP POP JUMP JUMPDEST PUSH4 0x4E487B71 PUSH1 0xE0 SHL PUSH0 MSTORE PUSH1 0x11 PUSH1 0x4 MSTORE PUSH1 0x24 PUSH0 REVERT JUMPDEST DUP2 DUP2 SUB DUP2 DUP2 GT ISZERO PUSH2 0x6A2 JUMPI PUSH2 0x6A2 PUSH2 0x7A1 JUMP JUMPDEST DUP1 DUP3 MUL DUP2 ISZERO DUP3 DUP3 DIV DUP5 EQ OR PUSH2 0x6A2 JUMPI PUSH2 0x6A2 PUSH2 0x7A1 JUMP JUMPDEST PUSH0 DUP3 PUSH2 0x7F9 JUMPI PUSH4 0x4E487B71 PUSH1 0xE0 SHL PUSH0 MSTORE PUSH1 0x12 PUSH1 0x4 MSTORE PUSH1 0x24 PUSH0 REVERT JUMPDEST POP DIV SWAP1 JUMP JUMPDEST DUP1 DUP3 ADD DUP1 DUP3 GT ISZERO PUSH2 0x6A2 JUMPI PUSH2 0x6A2 PUSH2 0x7A1 JUMP INVALID LOG2 PUSH5 0x6970667358 0x22 SLT KECCAK256 SWAP2 KECCAK256 LOG3 LT 0xDA 0xE1 KECCAK256 GAS SWAP6 PUSH25 0x15B459E1251BE6B70CC35BFC17A2D9ED5F829ECCEDB964736F PUSH13 0x634300081A0033000000000000 "
		},
		"gasEstimates": {
			"creation": {
				"codeDepositCost": "423800",
				"executionCost": "227399",
				"totalCost": "651199"
			},
			"external": {
				"checkOnce()": "2394",
				"checkUpkeep(bytes)": "infinite",
				"counter()": "2383",
				"interval()": "2316",
				"lastTimeStamp()": "2317",
				"off()": "31558",
				"owner()": "2407",
				"performUpkeep(bytes)": "infinite",
				"realInterval()": "2340",
				"renounceOwnership()": "infinite",
				"s_forwarderAddress()": "2349",
				"setForwarderAddress(address)": "26741",
				"setInterval(uint256,uint256)": "91016",
				"startingTime()": "2384",
				"transferOwnership(address)": "28382",
				"weeklyTransfer()": "infinite"
			},
			"internal": {
				"calculatePercentage(uint256,uint256)": "infinite",
				"perPoolCalculation()": "infinite"
			}
		},
		"methodIdentifiers": {
			"checkOnce()": "30e3f8f8",
			"checkUpkeep(bytes)": "6e04ff0d",
			"counter()": "61bc221a",
			"interval()": "947a36fb",
			"lastTimeStamp()": "3f3b3b27",
			"off()": "6626b26d",
			"owner()": "8da5cb5b",
			"performUpkeep(bytes)": "4585e33b",
			"realInterval()": "30cac972",
			"renounceOwnership()": "715018a6",
			"s_forwarderAddress()": "3070fbf8",
			"setForwarderAddress(address)": "d777cc6d",
			"setInterval(uint256,uint256)": "5f17e616",
			"startingTime()": "39518b5e",
			"transferOwnership(address)": "f2fde38b",
			"weeklyTransfer()": "e9c68e2c"
		}
	},
	"abi": [
		{
			"inputs": [],
			"stateMutability": "nonpayable",
			"type": "constructor"
		},
		{
			"inputs": [
				{
					"internalType": "address",
					"name": "owner",
					"type": "address"
				}
			],
			"name": "OwnableInvalidOwner",
			"type": "error"
		},
		{
			"inputs": [
				{
					"internalType": "address",
					"name": "account",
					"type": "address"
				}
			],
			"name": "OwnableUnauthorizedAccount",
			"type": "error"
		},
		{
			"inputs": [
				{
					"internalType": "uint256",
					"name": "updateInterval",
					"type": "uint256"
				}
			],
			"name": "wrongInterval",
			"type": "error"
		},
		{
			"inputs": [
				{
					"internalType": "uint256",
					"name": "time",
					"type": "uint256"
				}
			],
			"name": "wrongTime",
			"type": "error"
		},
		{
			"anonymous": false,
			"inputs": [
				{
					"indexed": true,
					"internalType": "address",
					"name": "previousOwner",
					"type": "address"
				},
				{
					"indexed": true,
					"internalType": "address",
					"name": "newOwner",
					"type": "address"
				}
			],
			"name": "OwnershipTransferred",
			"type": "event"
		},
		{
			"inputs": [],
			"name": "checkOnce",
			"outputs": [
				{
					"internalType": "bool",
					"name": "",
					"type": "bool"
				}
			],
			"stateMutability": "view",
			"type": "function"
		},
		{
			"inputs": [
				{
					"internalType": "bytes",
					"name": "",
					"type": "bytes"
				}
			],
			"name": "checkUpkeep",
			"outputs": [
				{
					"internalType": "bool",
					"name": "",
					"type": "bool"
				},
				{
					"internalType": "bytes",
					"name": "",
					"type": "bytes"
				}
			],
			"stateMutability": "view",
			"type": "function"
		},
		{
			"inputs": [],
			"name": "counter",
			"outputs": [
				{
					"internalType": "uint256",
					"name": "",
					"type": "uint256"
				}
			],
			"stateMutability": "view",
			"type": "function"
		},
		{
			"inputs": [],
			"name": "interval",
			"outputs": [
				{
					"internalType": "uint256",
					"name": "",
					"type": "uint256"
				}
			],
			"stateMutability": "view",
			"type": "function"
		},
		{
			"inputs": [],
			"name": "lastTimeStamp",
			"outputs": [
				{
					"internalType": "uint256",
					"name": "",
					"type": "uint256"
				}
			],
			"stateMutability": "view",
			"type": "function"
		},
		{
			"inputs": [],
			"name": "off",
			"outputs": [],
			"stateMutability": "nonpayable",
			"type": "function"
		},
		{
			"inputs": [],
			"name": "owner",
			"outputs": [
				{
					"internalType": "address",
					"name": "",
					"type": "address"
				}
			],
			"stateMutability": "view",
			"type": "function"
		},
		{
			"inputs": [
				{
					"internalType": "bytes",
					"name": "",
					"type": "bytes"
				}
			],
			"name": "performUpkeep",
			"outputs": [],
			"stateMutability": "nonpayable",
			"type": "function"
		},
		{
			"inputs": [],
			"name": "realInterval",
			"outputs": [
				{
					"internalType": "uint256",
					"name": "",
					"type": "uint256"
				}
			],
			"stateMutability": "view",
			"type": "function"
		},
		{
			"inputs": [],
			"name": "renounceOwnership",
			"outputs": [],
			"stateMutability": "nonpayable",
			"type": "function"
		},
		{
			"inputs": [],
			"name": "s_forwarderAddress",
			"outputs": [
				{
					"internalType": "address",
					"name": "",
					"type": "address"
				}
			],
			"stateMutability": "view",
			"type": "function"
		},
		{
			"inputs": [
				{
					"internalType": "address",
					"name": "forwarderAddress",
					"type": "address"
				}
			],
			"name": "setForwarderAddress",
			"outputs": [],
			"stateMutability": "nonpayable",
			"type": "function"
		},
		{
			"inputs": [
				{
					"internalType": "uint256",
					"name": "_startingTime",
					"type": "uint256"
				},
				{
					"internalType": "uint256",
					"name": "updateInterval",
					"type": "uint256"
				}
			],
			"name": "setInterval",
			"outputs": [],
			"stateMutability": "nonpayable",
			"type": "function"
		},
		{
			"inputs": [],
			"name": "startingTime",
			"outputs": [
				{
					"internalType": "uint256",
					"name": "",
					"type": "uint256"
				}
			],
			"stateMutability": "view",
			"type": "function"
		},
		{
			"inputs": [
				{
					"internalType": "address",
					"name": "newOwner",
					"type": "address"
				}
			],
			"name": "transferOwnership",
			"outputs": [],
			"stateMutability": "nonpayable",
			"type": "function"
		},
		{
			"inputs": [],
			"name": "weeklyTransfer",
			"outputs": [],
			"stateMutability": "nonpayable",
			"type": "function"
		}
	]
}