{
	"data": {
		"bytecode": {
			"linkReferences": {},
			"object": "608060405234801561000f575f80fd5b50335f73ffffffffffffffffffffffffffffffffffffffff168173ffffffffffffffffffffffffffffffffffffffff1603610081575f6040517f1e4fbdf70000000000000000000000000000000000000000000000000000000081526004016100789190610196565b60405180910390fd5b6100908161009660201b60201c565b506101af565b5f805f9054906101000a900473ffffffffffffffffffffffffffffffffffffffff169050815f806101000a81548173ffffffffffffffffffffffffffffffffffffffff021916908373ffffffffffffffffffffffffffffffffffffffff1602179055508173ffffffffffffffffffffffffffffffffffffffff168173ffffffffffffffffffffffffffffffffffffffff167f8be0079c531659141344cd1fd0a4f28419497f9722a3daafe3b4186f6b6457e060405160405180910390a35050565b5f73ffffffffffffffffffffffffffffffffffffffff82169050919050565b5f61018082610157565b9050919050565b61019081610176565b82525050565b5f6020820190506101a95f830184610187565b92915050565b610cfe806101bc5f395ff3fe608060405234801561000f575f80fd5b50600436106100fe575f3560e01c80636e04ff0d11610095578063b7106f9e11610064578063b7106f9e14610251578063d777cc6d1461025b578063e9c68e2c14610277578063f2fde38b14610281576100fe565b80636e04ff0d146101da578063715018a61461020b5780638da5cb5b14610215578063947a36fb14610233576100fe565b80634585e33b116100d15780634585e33b1461017a5780635f17e6161461019657806361bc221a146101b25780636626b26d146101d0576100fe565b80633070fbf81461010257806330e3f8f81461012057806339518b5e1461013e5780633f3b3b271461015c575b5f80fd5b61010a61029d565b60405161011791906108f7565b60405180910390f35b6101286102c2565b604051610135919061092a565b60405180910390f35b6101466102d5565b604051610153919061095b565b60405180910390f35b6101646102db565b604051610171919061095b565b60405180910390f35b610194600480360381019061018f91906109dd565b6102e1565b005b6101b060048036038101906101ab9190610a52565b610471565b005b6101ba61051b565b6040516101c7919061095b565b60405180910390f35b6101d8610521565b005b6101f460048036038101906101ef91906109dd565b61054c565b604051610202929190610b00565b60405180910390f35b610213610580565b005b61021d610593565b60405161022a91906108f7565b60405180910390f35b61023b6105ba565b604051610248919061095b565b60405180910390f35b6102596105c0565b005b61027560048036038101906102709190610b58565b6105f2565b005b61027f61063d565b005b61029b60048036038101906102969190610b58565b6106e5565b005b60045f9054906101000a900473ffffffffffffffffffffffffffffffffffffffff1681565b600460149054906101000a900460ff1681565b60055481565b60035481565b60045f9054906101000a900473ffffffffffffffffffffffffffffffffffffffff1673ffffffffffffffffffffffffffffffffffffffff163373ffffffffffffffffffffffffffffffffffffffff1614610370576040517f08c379a000000000000000000000000000000000000000000000000000000000815260040161036790610c03565b60405180910390fd5b5f600254036103b8576002546040517f715400070000000000000000000000000000000000000000000000000000000081526004016103af919061095b565b60405180910390fd5b600460149054906101000a900460ff1661042d5760055442106103e957426003819055506103e461063d565b610428565b6005546040517f54593e7500000000000000000000000000000000000000000000000000000000815260040161041f919061095b565b60405180910390fd5b61043d565b4260038190555061043c61063d565b5b600460149054906101000a900460ff1661046d576001600460146101000a81548160ff0219169083151502179055505b5050565b610479610769565b5f81116104bd57806040517f715400070000000000000000000000000000000000000000000000000000000081526004016104b4919061095b565b60405180910390fd5b4282101561050257816040517f54593e750000000000000000000000000000000000000000000000000000000081526004016104f9919061095b565b60405180910390fd5b8060028190555081600581905550426003819055505050565b60015481565b610529610769565b5f6002819055505f600460146101000a81548160ff021916908315150217905550565b5f60605f600254600354426105619190610c4e565b1190508060405180602001604052805f81525092509250509250929050565b610588610769565b6105915f6107f0565b565b5f805f9054906101000a900473ffffffffffffffffffffffffffffffffffffffff16905090565b60025481565b600460149054906101000a900460ff166105f0576001600460146101000a81548160ff0219169083151502179055505b565b6105fa610769565b8060045f6101000a81548173ffffffffffffffffffffffffffffffffffffffff021916908373ffffffffffffffffffffffffffffffffffffffff16021790555050565b60045f9054906101000a900473ffffffffffffffffffffffffffffffffffffffff1673ffffffffffffffffffffffffffffffffffffffff163373ffffffffffffffffffffffffffffffffffffffff16146106cc576040517f08c379a00000000000000000000000000000000000000000000000000000000081526004016106c390610c03565b60405180910390fd5b60015f8154809291906106de90610c81565b9190505550565b6106ed610769565b5f73ffffffffffffffffffffffffffffffffffffffff168173ffffffffffffffffffffffffffffffffffffffff160361075d575f6040517f1e4fbdf700000000000000000000000000000000000000000000000000000000815260040161075491906108f7565b60405180910390fd5b610766816107f0565b50565b6107716108b1565b73ffffffffffffffffffffffffffffffffffffffff1661078f610593565b73ffffffffffffffffffffffffffffffffffffffff16146107ee576107b26108b1565b6040517f118cdaa70000000000000000000000000000000000000000000000000000000081526004016107e591906108f7565b60405180910390fd5b565b5f805f9054906101000a900473ffffffffffffffffffffffffffffffffffffffff169050815f806101000a81548173ffffffffffffffffffffffffffffffffffffffff021916908373ffffffffffffffffffffffffffffffffffffffff1602179055508173ffffffffffffffffffffffffffffffffffffffff168173ffffffffffffffffffffffffffffffffffffffff167f8be0079c531659141344cd1fd0a4f28419497f9722a3daafe3b4186f6b6457e060405160405180910390a35050565b5f33905090565b5f73ffffffffffffffffffffffffffffffffffffffff82169050919050565b5f6108e1826108b8565b9050919050565b6108f1816108d7565b82525050565b5f60208201905061090a5f8301846108e8565b92915050565b5f8115159050919050565b61092481610910565b82525050565b5f60208201905061093d5f83018461091b565b92915050565b5f819050919050565b61095581610943565b82525050565b5f60208201905061096e5f83018461094c565b92915050565b5f80fd5b5f80fd5b5f80fd5b5f80fd5b5f80fd5b5f8083601f84011261099d5761099c61097c565b5b8235905067ffffffffffffffff8111156109ba576109b9610980565b5b6020830191508360018202830111156109d6576109d5610984565b5b9250929050565b5f80602083850312156109f3576109f2610974565b5b5f83013567ffffffffffffffff811115610a1057610a0f610978565b5b610a1c85828601610988565b92509250509250929050565b610a3181610943565b8114610a3b575f80fd5b50565b5f81359050610a4c81610a28565b92915050565b5f8060408385031215610a6857610a67610974565b5b5f610a7585828601610a3e565b9250506020610a8685828601610a3e565b9150509250929050565b5f81519050919050565b5f82825260208201905092915050565b8281835e5f83830152505050565b5f601f19601f8301169050919050565b5f610ad282610a90565b610adc8185610a9a565b9350610aec818560208601610aaa565b610af581610ab8565b840191505092915050565b5f604082019050610b135f83018561091b565b8181036020830152610b258184610ac8565b90509392505050565b610b37816108d7565b8114610b41575f80fd5b50565b5f81359050610b5281610b2e565b92915050565b5f60208284031215610b6d57610b6c610974565b5b5f610b7a84828501610b44565b91505092915050565b5f82825260208201905092915050565b7f54686973206164647265737320646f6573206e6f742068617665207065726d695f8201527f7373696f6e20746f2063616c6c20706572666f726d55706b6565700000000000602082015250565b5f610bed603b83610b83565b9150610bf882610b93565b604082019050919050565b5f6020820190508181035f830152610c1a81610be1565b9050919050565b7f4e487b71000000000000000000000000000000000000000000000000000000005f52601160045260245ffd5b5f610c5882610943565b9150610c6383610943565b9250828203905081811115610c7b57610c7a610c21565b5b92915050565b5f610c8b82610943565b91507fffffffffffffffffffffffffffffffffffffffffffffffffffffffffffffffff8203610cbd57610cbc610c21565b5b60018201905091905056fea264697066735822122062476116b98f8c70f33f219c33cb77209113928b8c94b7c7aabb573d7698b36664736f6c634300081a0033",
			"opcodes": "PUSH1 0x80 PUSH1 0x40 MSTORE CALLVALUE DUP1 ISZERO PUSH2 0xF JUMPI PUSH0 DUP1 REVERT JUMPDEST POP CALLER PUSH0 PUSH20 0xFFFFFFFFFFFFFFFFFFFFFFFFFFFFFFFFFFFFFFFF AND DUP2 PUSH20 0xFFFFFFFFFFFFFFFFFFFFFFFFFFFFFFFFFFFFFFFF AND SUB PUSH2 0x81 JUMPI PUSH0 PUSH1 0x40 MLOAD PUSH32 0x1E4FBDF700000000000000000000000000000000000000000000000000000000 DUP2 MSTORE PUSH1 0x4 ADD PUSH2 0x78 SWAP2 SWAP1 PUSH2 0x196 JUMP JUMPDEST PUSH1 0x40 MLOAD DUP1 SWAP2 SUB SWAP1 REVERT JUMPDEST PUSH2 0x90 DUP2 PUSH2 0x96 PUSH1 0x20 SHL PUSH1 0x20 SHR JUMP JUMPDEST POP PUSH2 0x1AF JUMP JUMPDEST PUSH0 DUP1 PUSH0 SWAP1 SLOAD SWAP1 PUSH2 0x100 EXP SWAP1 DIV PUSH20 0xFFFFFFFFFFFFFFFFFFFFFFFFFFFFFFFFFFFFFFFF AND SWAP1 POP DUP2 PUSH0 DUP1 PUSH2 0x100 EXP DUP2 SLOAD DUP2 PUSH20 0xFFFFFFFFFFFFFFFFFFFFFFFFFFFFFFFFFFFFFFFF MUL NOT AND SWAP1 DUP4 PUSH20 0xFFFFFFFFFFFFFFFFFFFFFFFFFFFFFFFFFFFFFFFF AND MUL OR SWAP1 SSTORE POP DUP2 PUSH20 0xFFFFFFFFFFFFFFFFFFFFFFFFFFFFFFFFFFFFFFFF AND DUP2 PUSH20 0xFFFFFFFFFFFFFFFFFFFFFFFFFFFFFFFFFFFFFFFF AND PUSH32 0x8BE0079C531659141344CD1FD0A4F28419497F9722A3DAAFE3B4186F6B6457E0 PUSH1 0x40 MLOAD PUSH1 0x40 MLOAD DUP1 SWAP2 SUB SWAP1 LOG3 POP POP JUMP JUMPDEST PUSH0 PUSH20 0xFFFFFFFFFFFFFFFFFFFFFFFFFFFFFFFFFFFFFFFF DUP3 AND SWAP1 POP SWAP2 SWAP1 POP JUMP JUMPDEST PUSH0 PUSH2 0x180 DUP3 PUSH2 0x157 JUMP JUMPDEST SWAP1 POP SWAP2 SWAP1 POP JUMP JUMPDEST PUSH2 0x190 DUP2 PUSH2 0x176 JUMP JUMPDEST DUP3 MSTORE POP POP JUMP JUMPDEST PUSH0 PUSH1 0x20 DUP3 ADD SWAP1 POP PUSH2 0x1A9 PUSH0 DUP4 ADD DUP5 PUSH2 0x187 JUMP JUMPDEST SWAP3 SWAP2 POP POP JUMP JUMPDEST PUSH2 0xCFE DUP1 PUSH2 0x1BC PUSH0 CODECOPY PUSH0 RETURN INVALID PUSH1 0x80 PUSH1 0x40 MSTORE CALLVALUE DUP1 ISZERO PUSH2 0xF JUMPI PUSH0 DUP1 REVERT JUMPDEST POP PUSH1 0x4 CALLDATASIZE LT PUSH2 0xFE JUMPI PUSH0 CALLDATALOAD PUSH1 0xE0 SHR DUP1 PUSH4 0x6E04FF0D GT PUSH2 0x95 JUMPI DUP1 PUSH4 0xB7106F9E GT PUSH2 0x64 JUMPI DUP1 PUSH4 0xB7106F9E EQ PUSH2 0x251 JUMPI DUP1 PUSH4 0xD777CC6D EQ PUSH2 0x25B JUMPI DUP1 PUSH4 0xE9C68E2C EQ PUSH2 0x277 JUMPI DUP1 PUSH4 0xF2FDE38B EQ PUSH2 0x281 JUMPI PUSH2 0xFE JUMP JUMPDEST DUP1 PUSH4 0x6E04FF0D EQ PUSH2 0x1DA JUMPI DUP1 PUSH4 0x715018A6 EQ PUSH2 0x20B JUMPI DUP1 PUSH4 0x8DA5CB5B EQ PUSH2 0x215 JUMPI DUP1 PUSH4 0x947A36FB EQ PUSH2 0x233 JUMPI PUSH2 0xFE JUMP JUMPDEST DUP1 PUSH4 0x4585E33B GT PUSH2 0xD1 JUMPI DUP1 PUSH4 0x4585E33B EQ PUSH2 0x17A JUMPI DUP1 PUSH4 0x5F17E616 EQ PUSH2 0x196 JUMPI DUP1 PUSH4 0x61BC221A EQ PUSH2 0x1B2 JUMPI DUP1 PUSH4 0x6626B26D EQ PUSH2 0x1D0 JUMPI PUSH2 0xFE JUMP JUMPDEST DUP1 PUSH4 0x3070FBF8 EQ PUSH2 0x102 JUMPI DUP1 PUSH4 0x30E3F8F8 EQ PUSH2 0x120 JUMPI DUP1 PUSH4 0x39518B5E EQ PUSH2 0x13E JUMPI DUP1 PUSH4 0x3F3B3B27 EQ PUSH2 0x15C JUMPI JUMPDEST PUSH0 DUP1 REVERT JUMPDEST PUSH2 0x10A PUSH2 0x29D JUMP JUMPDEST PUSH1 0x40 MLOAD PUSH2 0x117 SWAP2 SWAP1 PUSH2 0x8F7 JUMP JUMPDEST PUSH1 0x40 MLOAD DUP1 SWAP2 SUB SWAP1 RETURN JUMPDEST PUSH2 0x128 PUSH2 0x2C2 JUMP JUMPDEST PUSH1 0x40 MLOAD PUSH2 0x135 SWAP2 SWAP1 PUSH2 0x92A JUMP JUMPDEST PUSH1 0x40 MLOAD DUP1 SWAP2 SUB SWAP1 RETURN JUMPDEST PUSH2 0x146 PUSH2 0x2D5 JUMP JUMPDEST PUSH1 0x40 MLOAD PUSH2 0x153 SWAP2 SWAP1 PUSH2 0x95B JUMP JUMPDEST PUSH1 0x40 MLOAD DUP1 SWAP2 SUB SWAP1 RETURN JUMPDEST PUSH2 0x164 PUSH2 0x2DB JUMP JUMPDEST PUSH1 0x40 MLOAD PUSH2 0x171 SWAP2 SWAP1 PUSH2 0x95B JUMP JUMPDEST PUSH1 0x40 MLOAD DUP1 SWAP2 SUB SWAP1 RETURN JUMPDEST PUSH2 0x194 PUSH1 0x4 DUP1 CALLDATASIZE SUB DUP2 ADD SWAP1 PUSH2 0x18F SWAP2 SWAP1 PUSH2 0x9DD JUMP JUMPDEST PUSH2 0x2E1 JUMP JUMPDEST STOP JUMPDEST PUSH2 0x1B0 PUSH1 0x4 DUP1 CALLDATASIZE SUB DUP2 ADD SWAP1 PUSH2 0x1AB SWAP2 SWAP1 PUSH2 0xA52 JUMP JUMPDEST PUSH2 0x471 JUMP JUMPDEST STOP JUMPDEST PUSH2 0x1BA PUSH2 0x51B JUMP JUMPDEST PUSH1 0x40 MLOAD PUSH2 0x1C7 SWAP2 SWAP1 PUSH2 0x95B JUMP JUMPDEST PUSH1 0x40 MLOAD DUP1 SWAP2 SUB SWAP1 RETURN JUMPDEST PUSH2 0x1D8 PUSH2 0x521 JUMP JUMPDEST STOP JUMPDEST PUSH2 0x1F4 PUSH1 0x4 DUP1 CALLDATASIZE SUB DUP2 ADD SWAP1 PUSH2 0x1EF SWAP2 SWAP1 PUSH2 0x9DD JUMP JUMPDEST PUSH2 0x54C JUMP JUMPDEST PUSH1 0x40 MLOAD PUSH2 0x202 SWAP3 SWAP2 SWAP1 PUSH2 0xB00 JUMP JUMPDEST PUSH1 0x40 MLOAD DUP1 SWAP2 SUB SWAP1 RETURN JUMPDEST PUSH2 0x213 PUSH2 0x580 JUMP JUMPDEST STOP JUMPDEST PUSH2 0x21D PUSH2 0x593 JUMP JUMPDEST PUSH1 0x40 MLOAD PUSH2 0x22A SWAP2 SWAP1 PUSH2 0x8F7 JUMP JUMPDEST PUSH1 0x40 MLOAD DUP1 SWAP2 SUB SWAP1 RETURN JUMPDEST PUSH2 0x23B PUSH2 0x5BA JUMP JUMPDEST PUSH1 0x40 MLOAD PUSH2 0x248 SWAP2 SWAP1 PUSH2 0x95B JUMP JUMPDEST PUSH1 0x40 MLOAD DUP1 SWAP2 SUB SWAP1 RETURN JUMPDEST PUSH2 0x259 PUSH2 0x5C0 JUMP JUMPDEST STOP JUMPDEST PUSH2 0x275 PUSH1 0x4 DUP1 CALLDATASIZE SUB DUP2 ADD SWAP1 PUSH2 0x270 SWAP2 SWAP1 PUSH2 0xB58 JUMP JUMPDEST PUSH2 0x5F2 JUMP JUMPDEST STOP JUMPDEST PUSH2 0x27F PUSH2 0x63D JUMP JUMPDEST STOP JUMPDEST PUSH2 0x29B PUSH1 0x4 DUP1 CALLDATASIZE SUB DUP2 ADD SWAP1 PUSH2 0x296 SWAP2 SWAP1 PUSH2 0xB58 JUMP JUMPDEST PUSH2 0x6E5 JUMP JUMPDEST STOP JUMPDEST PUSH1 0x4 PUSH0 SWAP1 SLOAD SWAP1 PUSH2 0x100 EXP SWAP1 DIV PUSH20 0xFFFFFFFFFFFFFFFFFFFFFFFFFFFFFFFFFFFFFFFF AND DUP2 JUMP JUMPDEST PUSH1 0x4 PUSH1 0x14 SWAP1 SLOAD SWAP1 PUSH2 0x100 EXP SWAP1 DIV PUSH1 0xFF AND DUP2 JUMP JUMPDEST PUSH1 0x5 SLOAD DUP2 JUMP JUMPDEST PUSH1 0x3 SLOAD DUP2 JUMP JUMPDEST PUSH1 0x4 PUSH0 SWAP1 SLOAD SWAP1 PUSH2 0x100 EXP SWAP1 DIV PUSH20 0xFFFFFFFFFFFFFFFFFFFFFFFFFFFFFFFFFFFFFFFF AND PUSH20 0xFFFFFFFFFFFFFFFFFFFFFFFFFFFFFFFFFFFFFFFF AND CALLER PUSH20 0xFFFFFFFFFFFFFFFFFFFFFFFFFFFFFFFFFFFFFFFF AND EQ PUSH2 0x370 JUMPI PUSH1 0x40 MLOAD PUSH32 0x8C379A000000000000000000000000000000000000000000000000000000000 DUP2 MSTORE PUSH1 0x4 ADD PUSH2 0x367 SWAP1 PUSH2 0xC03 JUMP JUMPDEST PUSH1 0x40 MLOAD DUP1 SWAP2 SUB SWAP1 REVERT JUMPDEST PUSH0 PUSH1 0x2 SLOAD SUB PUSH2 0x3B8 JUMPI PUSH1 0x2 SLOAD PUSH1 0x40 MLOAD PUSH32 0x7154000700000000000000000000000000000000000000000000000000000000 DUP2 MSTORE PUSH1 0x4 ADD PUSH2 0x3AF SWAP2 SWAP1 PUSH2 0x95B JUMP JUMPDEST PUSH1 0x40 MLOAD DUP1 SWAP2 SUB SWAP1 REVERT JUMPDEST PUSH1 0x4 PUSH1 0x14 SWAP1 SLOAD SWAP1 PUSH2 0x100 EXP SWAP1 DIV PUSH1 0xFF AND PUSH2 0x42D JUMPI PUSH1 0x5 SLOAD TIMESTAMP LT PUSH2 0x3E9 JUMPI TIMESTAMP PUSH1 0x3 DUP2 SWAP1 SSTORE POP PUSH2 0x3E4 PUSH2 0x63D JUMP JUMPDEST PUSH2 0x428 JUMP JUMPDEST PUSH1 0x5 SLOAD PUSH1 0x40 MLOAD PUSH32 0x54593E7500000000000000000000000000000000000000000000000000000000 DUP2 MSTORE PUSH1 0x4 ADD PUSH2 0x41F SWAP2 SWAP1 PUSH2 0x95B JUMP JUMPDEST PUSH1 0x40 MLOAD DUP1 SWAP2 SUB SWAP1 REVERT JUMPDEST PUSH2 0x43D JUMP JUMPDEST TIMESTAMP PUSH1 0x3 DUP2 SWAP1 SSTORE POP PUSH2 0x43C PUSH2 0x63D JUMP JUMPDEST JUMPDEST PUSH1 0x4 PUSH1 0x14 SWAP1 SLOAD SWAP1 PUSH2 0x100 EXP SWAP1 DIV PUSH1 0xFF AND PUSH2 0x46D JUMPI PUSH1 0x1 PUSH1 0x4 PUSH1 0x14 PUSH2 0x100 EXP DUP2 SLOAD DUP2 PUSH1 0xFF MUL NOT AND SWAP1 DUP4 ISZERO ISZERO MUL OR SWAP1 SSTORE POP JUMPDEST POP POP JUMP JUMPDEST PUSH2 0x479 PUSH2 0x769 JUMP JUMPDEST PUSH0 DUP2 GT PUSH2 0x4BD JUMPI DUP1 PUSH1 0x40 MLOAD PUSH32 0x7154000700000000000000000000000000000000000000000000000000000000 DUP2 MSTORE PUSH1 0x4 ADD PUSH2 0x4B4 SWAP2 SWAP1 PUSH2 0x95B JUMP JUMPDEST PUSH1 0x40 MLOAD DUP1 SWAP2 SUB SWAP1 REVERT JUMPDEST TIMESTAMP DUP3 LT ISZERO PUSH2 0x502 JUMPI DUP2 PUSH1 0x40 MLOAD PUSH32 0x54593E7500000000000000000000000000000000000000000000000000000000 DUP2 MSTORE PUSH1 0x4 ADD PUSH2 0x4F9 SWAP2 SWAP1 PUSH2 0x95B JUMP JUMPDEST PUSH1 0x40 MLOAD DUP1 SWAP2 SUB SWAP1 REVERT JUMPDEST DUP1 PUSH1 0x2 DUP2 SWAP1 SSTORE POP DUP2 PUSH1 0x5 DUP2 SWAP1 SSTORE POP TIMESTAMP PUSH1 0x3 DUP2 SWAP1 SSTORE POP POP POP JUMP JUMPDEST PUSH1 0x1 SLOAD DUP2 JUMP JUMPDEST PUSH2 0x529 PUSH2 0x769 JUMP JUMPDEST PUSH0 PUSH1 0x2 DUP2 SWAP1 SSTORE POP PUSH0 PUSH1 0x4 PUSH1 0x14 PUSH2 0x100 EXP DUP2 SLOAD DUP2 PUSH1 0xFF MUL NOT AND SWAP1 DUP4 ISZERO ISZERO MUL OR SWAP1 SSTORE POP JUMP JUMPDEST PUSH0 PUSH1 0x60 PUSH0 PUSH1 0x2 SLOAD PUSH1 0x3 SLOAD TIMESTAMP PUSH2 0x561 SWAP2 SWAP1 PUSH2 0xC4E JUMP JUMPDEST GT SWAP1 POP DUP1 PUSH1 0x40 MLOAD DUP1 PUSH1 0x20 ADD PUSH1 0x40 MSTORE DUP1 PUSH0 DUP2 MSTORE POP SWAP3 POP SWAP3 POP POP SWAP3 POP SWAP3 SWAP1 POP JUMP JUMPDEST PUSH2 0x588 PUSH2 0x769 JUMP JUMPDEST PUSH2 0x591 PUSH0 PUSH2 0x7F0 JUMP JUMPDEST JUMP JUMPDEST PUSH0 DUP1 PUSH0 SWAP1 SLOAD SWAP1 PUSH2 0x100 EXP SWAP1 DIV PUSH20 0xFFFFFFFFFFFFFFFFFFFFFFFFFFFFFFFFFFFFFFFF AND SWAP1 POP SWAP1 JUMP JUMPDEST PUSH1 0x2 SLOAD DUP2 JUMP JUMPDEST PUSH1 0x4 PUSH1 0x14 SWAP1 SLOAD SWAP1 PUSH2 0x100 EXP SWAP1 DIV PUSH1 0xFF AND PUSH2 0x5F0 JUMPI PUSH1 0x1 PUSH1 0x4 PUSH1 0x14 PUSH2 0x100 EXP DUP2 SLOAD DUP2 PUSH1 0xFF MUL NOT AND SWAP1 DUP4 ISZERO ISZERO MUL OR SWAP1 SSTORE POP JUMPDEST JUMP JUMPDEST PUSH2 0x5FA PUSH2 0x769 JUMP JUMPDEST DUP1 PUSH1 0x4 PUSH0 PUSH2 0x100 EXP DUP2 SLOAD DUP2 PUSH20 0xFFFFFFFFFFFFFFFFFFFFFFFFFFFFFFFFFFFFFFFF MUL NOT AND SWAP1 DUP4 PUSH20 0xFFFFFFFFFFFFFFFFFFFFFFFFFFFFFFFFFFFFFFFF AND MUL OR SWAP1 SSTORE POP POP JUMP JUMPDEST PUSH1 0x4 PUSH0 SWAP1 SLOAD SWAP1 PUSH2 0x100 EXP SWAP1 DIV PUSH20 0xFFFFFFFFFFFFFFFFFFFFFFFFFFFFFFFFFFFFFFFF AND PUSH20 0xFFFFFFFFFFFFFFFFFFFFFFFFFFFFFFFFFFFFFFFF AND CALLER PUSH20 0xFFFFFFFFFFFFFFFFFFFFFFFFFFFFFFFFFFFFFFFF AND EQ PUSH2 0x6CC JUMPI PUSH1 0x40 MLOAD PUSH32 0x8C379A000000000000000000000000000000000000000000000000000000000 DUP2 MSTORE PUSH1 0x4 ADD PUSH2 0x6C3 SWAP1 PUSH2 0xC03 JUMP JUMPDEST PUSH1 0x40 MLOAD DUP1 SWAP2 SUB SWAP1 REVERT JUMPDEST PUSH1 0x1 PUSH0 DUP2 SLOAD DUP1 SWAP3 SWAP2 SWAP1 PUSH2 0x6DE SWAP1 PUSH2 0xC81 JUMP JUMPDEST SWAP2 SWAP1 POP SSTORE POP JUMP JUMPDEST PUSH2 0x6ED PUSH2 0x769 JUMP JUMPDEST PUSH0 PUSH20 0xFFFFFFFFFFFFFFFFFFFFFFFFFFFFFFFFFFFFFFFF AND DUP2 PUSH20 0xFFFFFFFFFFFFFFFFFFFFFFFFFFFFFFFFFFFFFFFF AND SUB PUSH2 0x75D JUMPI PUSH0 PUSH1 0x40 MLOAD PUSH32 0x1E4FBDF700000000000000000000000000000000000000000000000000000000 DUP2 MSTORE PUSH1 0x4 ADD PUSH2 0x754 SWAP2 SWAP1 PUSH2 0x8F7 JUMP JUMPDEST PUSH1 0x40 MLOAD DUP1 SWAP2 SUB SWAP1 REVERT JUMPDEST PUSH2 0x766 DUP2 PUSH2 0x7F0 JUMP JUMPDEST POP JUMP JUMPDEST PUSH2 0x771 PUSH2 0x8B1 JUMP JUMPDEST PUSH20 0xFFFFFFFFFFFFFFFFFFFFFFFFFFFFFFFFFFFFFFFF AND PUSH2 0x78F PUSH2 0x593 JUMP JUMPDEST PUSH20 0xFFFFFFFFFFFFFFFFFFFFFFFFFFFFFFFFFFFFFFFF AND EQ PUSH2 0x7EE JUMPI PUSH2 0x7B2 PUSH2 0x8B1 JUMP JUMPDEST PUSH1 0x40 MLOAD PUSH32 0x118CDAA700000000000000000000000000000000000000000000000000000000 DUP2 MSTORE PUSH1 0x4 ADD PUSH2 0x7E5 SWAP2 SWAP1 PUSH2 0x8F7 JUMP JUMPDEST PUSH1 0x40 MLOAD DUP1 SWAP2 SUB SWAP1 REVERT JUMPDEST JUMP JUMPDEST PUSH0 DUP1 PUSH0 SWAP1 SLOAD SWAP1 PUSH2 0x100 EXP SWAP1 DIV PUSH20 0xFFFFFFFFFFFFFFFFFFFFFFFFFFFFFFFFFFFFFFFF AND SWAP1 POP DUP2 PUSH0 DUP1 PUSH2 0x100 EXP DUP2 SLOAD DUP2 PUSH20 0xFFFFFFFFFFFFFFFFFFFFFFFFFFFFFFFFFFFFFFFF MUL NOT AND SWAP1 DUP4 PUSH20 0xFFFFFFFFFFFFFFFFFFFFFFFFFFFFFFFFFFFFFFFF AND MUL OR SWAP1 SSTORE POP DUP2 PUSH20 0xFFFFFFFFFFFFFFFFFFFFFFFFFFFFFFFFFFFFFFFF AND DUP2 PUSH20 0xFFFFFFFFFFFFFFFFFFFFFFFFFFFFFFFFFFFFFFFF AND PUSH32 0x8BE0079C531659141344CD1FD0A4F28419497F9722A3DAAFE3B4186F6B6457E0 PUSH1 0x40 MLOAD PUSH1 0x40 MLOAD DUP1 SWAP2 SUB SWAP1 LOG3 POP POP JUMP JUMPDEST PUSH0 CALLER SWAP1 POP SWAP1 JUMP JUMPDEST PUSH0 PUSH20 0xFFFFFFFFFFFFFFFFFFFFFFFFFFFFFFFFFFFFFFFF DUP3 AND SWAP1 POP SWAP2 SWAP1 POP JUMP JUMPDEST PUSH0 PUSH2 0x8E1 DUP3 PUSH2 0x8B8 JUMP JUMPDEST SWAP1 POP SWAP2 SWAP1 POP JUMP JUMPDEST PUSH2 0x8F1 DUP2 PUSH2 0x8D7 JUMP JUMPDEST DUP3 MSTORE POP POP JUMP JUMPDEST PUSH0 PUSH1 0x20 DUP3 ADD SWAP1 POP PUSH2 0x90A PUSH0 DUP4 ADD DUP5 PUSH2 0x8E8 JUMP JUMPDEST SWAP3 SWAP2 POP POP JUMP JUMPDEST PUSH0 DUP2 ISZERO ISZERO SWAP1 POP SWAP2 SWAP1 POP JUMP JUMPDEST PUSH2 0x924 DUP2 PUSH2 0x910 JUMP JUMPDEST DUP3 MSTORE POP POP JUMP JUMPDEST PUSH0 PUSH1 0x20 DUP3 ADD SWAP1 POP PUSH2 0x93D PUSH0 DUP4 ADD DUP5 PUSH2 0x91B JUMP JUMPDEST SWAP3 SWAP2 POP POP JUMP JUMPDEST PUSH0 DUP2 SWAP1 POP SWAP2 SWAP1 POP JUMP JUMPDEST PUSH2 0x955 DUP2 PUSH2 0x943 JUMP JUMPDEST DUP3 MSTORE POP POP JUMP JUMPDEST PUSH0 PUSH1 0x20 DUP3 ADD SWAP1 POP PUSH2 0x96E PUSH0 DUP4 ADD DUP5 PUSH2 0x94C JUMP JUMPDEST SWAP3 SWAP2 POP POP JUMP JUMPDEST PUSH0 DUP1 REVERT JUMPDEST PUSH0 DUP1 REVERT JUMPDEST PUSH0 DUP1 REVERT JUMPDEST PUSH0 DUP1 REVERT JUMPDEST PUSH0 DUP1 REVERT JUMPDEST PUSH0 DUP1 DUP4 PUSH1 0x1F DUP5 ADD SLT PUSH2 0x99D JUMPI PUSH2 0x99C PUSH2 0x97C JUMP JUMPDEST JUMPDEST DUP3 CALLDATALOAD SWAP1 POP PUSH8 0xFFFFFFFFFFFFFFFF DUP2 GT ISZERO PUSH2 0x9BA JUMPI PUSH2 0x9B9 PUSH2 0x980 JUMP JUMPDEST JUMPDEST PUSH1 0x20 DUP4 ADD SWAP2 POP DUP4 PUSH1 0x1 DUP3 MUL DUP4 ADD GT ISZERO PUSH2 0x9D6 JUMPI PUSH2 0x9D5 PUSH2 0x984 JUMP JUMPDEST JUMPDEST SWAP3 POP SWAP3 SWAP1 POP JUMP JUMPDEST PUSH0 DUP1 PUSH1 0x20 DUP4 DUP6 SUB SLT ISZERO PUSH2 0x9F3 JUMPI PUSH2 0x9F2 PUSH2 0x974 JUMP JUMPDEST JUMPDEST PUSH0 DUP4 ADD CALLDATALOAD PUSH8 0xFFFFFFFFFFFFFFFF DUP2 GT ISZERO PUSH2 0xA10 JUMPI PUSH2 0xA0F PUSH2 0x978 JUMP JUMPDEST JUMPDEST PUSH2 0xA1C DUP6 DUP3 DUP7 ADD PUSH2 0x988 JUMP JUMPDEST SWAP3 POP SWAP3 POP POP SWAP3 POP SWAP3 SWAP1 POP JUMP JUMPDEST PUSH2 0xA31 DUP2 PUSH2 0x943 JUMP JUMPDEST DUP2 EQ PUSH2 0xA3B JUMPI PUSH0 DUP1 REVERT JUMPDEST POP JUMP JUMPDEST PUSH0 DUP2 CALLDATALOAD SWAP1 POP PUSH2 0xA4C DUP2 PUSH2 0xA28 JUMP JUMPDEST SWAP3 SWAP2 POP POP JUMP JUMPDEST PUSH0 DUP1 PUSH1 0x40 DUP4 DUP6 SUB SLT ISZERO PUSH2 0xA68 JUMPI PUSH2 0xA67 PUSH2 0x974 JUMP JUMPDEST JUMPDEST PUSH0 PUSH2 0xA75 DUP6 DUP3 DUP7 ADD PUSH2 0xA3E JUMP JUMPDEST SWAP3 POP POP PUSH1 0x20 PUSH2 0xA86 DUP6 DUP3 DUP7 ADD PUSH2 0xA3E JUMP JUMPDEST SWAP2 POP POP SWAP3 POP SWAP3 SWAP1 POP JUMP JUMPDEST PUSH0 DUP2 MLOAD SWAP1 POP SWAP2 SWAP1 POP JUMP JUMPDEST PUSH0 DUP3 DUP3 MSTORE PUSH1 0x20 DUP3 ADD SWAP1 POP SWAP3 SWAP2 POP POP JUMP JUMPDEST DUP3 DUP2 DUP4 MCOPY PUSH0 DUP4 DUP4 ADD MSTORE POP POP POP JUMP JUMPDEST PUSH0 PUSH1 0x1F NOT PUSH1 0x1F DUP4 ADD AND SWAP1 POP SWAP2 SWAP1 POP JUMP JUMPDEST PUSH0 PUSH2 0xAD2 DUP3 PUSH2 0xA90 JUMP JUMPDEST PUSH2 0xADC DUP2 DUP6 PUSH2 0xA9A JUMP JUMPDEST SWAP4 POP PUSH2 0xAEC DUP2 DUP6 PUSH1 0x20 DUP7 ADD PUSH2 0xAAA JUMP JUMPDEST PUSH2 0xAF5 DUP2 PUSH2 0xAB8 JUMP JUMPDEST DUP5 ADD SWAP2 POP POP SWAP3 SWAP2 POP POP JUMP JUMPDEST PUSH0 PUSH1 0x40 DUP3 ADD SWAP1 POP PUSH2 0xB13 PUSH0 DUP4 ADD DUP6 PUSH2 0x91B JUMP JUMPDEST DUP2 DUP2 SUB PUSH1 0x20 DUP4 ADD MSTORE PUSH2 0xB25 DUP2 DUP5 PUSH2 0xAC8 JUMP JUMPDEST SWAP1 POP SWAP4 SWAP3 POP POP POP JUMP JUMPDEST PUSH2 0xB37 DUP2 PUSH2 0x8D7 JUMP JUMPDEST DUP2 EQ PUSH2 0xB41 JUMPI PUSH0 DUP1 REVERT JUMPDEST POP JUMP JUMPDEST PUSH0 DUP2 CALLDATALOAD SWAP1 POP PUSH2 0xB52 DUP2 PUSH2 0xB2E JUMP JUMPDEST SWAP3 SWAP2 POP POP JUMP JUMPDEST PUSH0 PUSH1 0x20 DUP3 DUP5 SUB SLT ISZERO PUSH2 0xB6D JUMPI PUSH2 0xB6C PUSH2 0x974 JUMP JUMPDEST JUMPDEST PUSH0 PUSH2 0xB7A DUP5 DUP3 DUP6 ADD PUSH2 0xB44 JUMP JUMPDEST SWAP2 POP POP SWAP3 SWAP2 POP POP JUMP JUMPDEST PUSH0 DUP3 DUP3 MSTORE PUSH1 0x20 DUP3 ADD SWAP1 POP SWAP3 SWAP2 POP POP JUMP JUMPDEST PUSH32 0x54686973206164647265737320646F6573206E6F742068617665207065726D69 PUSH0 DUP3 ADD MSTORE PUSH32 0x7373696F6E20746F2063616C6C20706572666F726D55706B6565700000000000 PUSH1 0x20 DUP3 ADD MSTORE POP JUMP JUMPDEST PUSH0 PUSH2 0xBED PUSH1 0x3B DUP4 PUSH2 0xB83 JUMP JUMPDEST SWAP2 POP PUSH2 0xBF8 DUP3 PUSH2 0xB93 JUMP JUMPDEST PUSH1 0x40 DUP3 ADD SWAP1 POP SWAP2 SWAP1 POP JUMP JUMPDEST PUSH0 PUSH1 0x20 DUP3 ADD SWAP1 POP DUP2 DUP2 SUB PUSH0 DUP4 ADD MSTORE PUSH2 0xC1A DUP2 PUSH2 0xBE1 JUMP JUMPDEST SWAP1 POP SWAP2 SWAP1 POP JUMP JUMPDEST PUSH32 0x4E487B7100000000000000000000000000000000000000000000000000000000 PUSH0 MSTORE PUSH1 0x11 PUSH1 0x4 MSTORE PUSH1 0x24 PUSH0 REVERT JUMPDEST PUSH0 PUSH2 0xC58 DUP3 PUSH2 0x943 JUMP JUMPDEST SWAP2 POP PUSH2 0xC63 DUP4 PUSH2 0x943 JUMP JUMPDEST SWAP3 POP DUP3 DUP3 SUB SWAP1 POP DUP2 DUP2 GT ISZERO PUSH2 0xC7B JUMPI PUSH2 0xC7A PUSH2 0xC21 JUMP JUMPDEST JUMPDEST SWAP3 SWAP2 POP POP JUMP JUMPDEST PUSH0 PUSH2 0xC8B DUP3 PUSH2 0x943 JUMP JUMPDEST SWAP2 POP PUSH32 0xFFFFFFFFFFFFFFFFFFFFFFFFFFFFFFFFFFFFFFFFFFFFFFFFFFFFFFFFFFFFFFFF DUP3 SUB PUSH2 0xCBD JUMPI PUSH2 0xCBC PUSH2 0xC21 JUMP JUMPDEST JUMPDEST PUSH1 0x1 DUP3 ADD SWAP1 POP SWAP2 SWAP1 POP JUMP INVALID LOG2 PUSH5 0x6970667358 0x22 SLT KECCAK256 PUSH3 0x476116 0xB9 DUP16 DUP13 PUSH17 0xF33F219C33CB77209113928B8C94B7C7AA 0xBB JUMPI RETURNDATASIZE PUSH23 0x98B36664736F6C634300081A0033000000000000000000 "
		},
		"gasEstimates": {
			"creation": {
				"codeDepositCost": "665200",
				"executionCost": "infinite",
				"totalCost": "infinite"
			},
			"external": {
				"checkOnce()": "2563",
				"checkUpkeep(bytes)": "infinite",
				"counter()": "2492",
				"doWee()": "26685",
				"interval()": "2514",
				"lastTimeStamp()": "2515",
				"off()": "infinite",
				"owner()": "2582",
				"performUpkeep(bytes)": "84311",
				"renounceOwnership()": "infinite",
				"s_forwarderAddress()": "2532",
				"setForwarderAddress(address)": "infinite",
				"setInterval(uint256,uint256)": "infinite",
				"startingTime()": "2493",
				"transferOwnership(address)": "infinite",
				"weeklyTransfer()": "26732"
			}
		},
		"methodIdentifiers": {
			"checkOnce()": "30e3f8f8",
			"checkUpkeep(bytes)": "6e04ff0d",
			"counter()": "61bc221a",
			"doWee()": "b7106f9e",
			"interval()": "947a36fb",
			"lastTimeStamp()": "3f3b3b27",
			"off()": "6626b26d",
			"owner()": "8da5cb5b",
			"performUpkeep(bytes)": "4585e33b",
			"renounceOwnership()": "715018a6",
			"s_forwarderAddress()": "3070fbf8",
			"setForwarderAddress(address)": "d777cc6d",
			"setInterval(uint256,uint256)": "5f17e616",
			"startingTime()": "39518b5e",
			"transferOwnership(address)": "f2fde38b",
			"weeklyTransfer()": "e9c68e2c"
		}
	},
	"abi": [
		{
			"inputs": [],
			"stateMutability": "nonpayable",
			"type": "constructor"
		},
		{
			"inputs": [
				{
					"internalType": "address",
					"name": "owner",
					"type": "address"
				}
			],
			"name": "OwnableInvalidOwner",
			"type": "error"
		},
		{
			"inputs": [
				{
					"internalType": "address",
					"name": "account",
					"type": "address"
				}
			],
			"name": "OwnableUnauthorizedAccount",
			"type": "error"
		},
		{
			"inputs": [
				{
					"internalType": "uint256",
					"name": "updateInterval",
					"type": "uint256"
				}
			],
			"name": "wrongInterval",
			"type": "error"
		},
		{
			"inputs": [
				{
					"internalType": "uint256",
					"name": "time",
					"type": "uint256"
				}
			],
			"name": "wrongTime",
			"type": "error"
		},
		{
			"anonymous": false,
			"inputs": [
				{
					"indexed": true,
					"internalType": "address",
					"name": "previousOwner",
					"type": "address"
				},
				{
					"indexed": true,
					"internalType": "address",
					"name": "newOwner",
					"type": "address"
				}
			],
			"name": "OwnershipTransferred",
			"type": "event"
		},
		{
			"inputs": [],
			"name": "checkOnce",
			"outputs": [
				{
					"internalType": "bool",
					"name": "",
					"type": "bool"
				}
			],
			"stateMutability": "view",
			"type": "function"
		},
		{
			"inputs": [
				{
					"internalType": "bytes",
					"name": "",
					"type": "bytes"
				}
			],
			"name": "checkUpkeep",
			"outputs": [
				{
					"internalType": "bool",
					"name": "",
					"type": "bool"
				},
				{
					"internalType": "bytes",
					"name": "",
					"type": "bytes"
				}
			],
			"stateMutability": "view",
			"type": "function"
		},
		{
			"inputs": [],
			"name": "counter",
			"outputs": [
				{
					"internalType": "uint256",
					"name": "",
					"type": "uint256"
				}
			],
			"stateMutability": "view",
			"type": "function"
		},
		{
			"inputs": [],
			"name": "doWee",
			"outputs": [],
			"stateMutability": "nonpayable",
			"type": "function"
		},
		{
			"inputs": [],
			"name": "interval",
			"outputs": [
				{
					"internalType": "uint256",
					"name": "",
					"type": "uint256"
				}
			],
			"stateMutability": "view",
			"type": "function"
		},
		{
			"inputs": [],
			"name": "lastTimeStamp",
			"outputs": [
				{
					"internalType": "uint256",
					"name": "",
					"type": "uint256"
				}
			],
			"stateMutability": "view",
			"type": "function"
		},
		{
			"inputs": [],
			"name": "off",
			"outputs": [],
			"stateMutability": "nonpayable",
			"type": "function"
		},
		{
			"inputs": [],
			"name": "owner",
			"outputs": [
				{
					"internalType": "address",
					"name": "",
					"type": "address"
				}
			],
			"stateMutability": "view",
			"type": "function"
		},
		{
			"inputs": [
				{
					"internalType": "bytes",
					"name": "",
					"type": "bytes"
				}
			],
			"name": "performUpkeep",
			"outputs": [],
			"stateMutability": "nonpayable",
			"type": "function"
		},
		{
			"inputs": [],
			"name": "renounceOwnership",
			"outputs": [],
			"stateMutability": "nonpayable",
			"type": "function"
		},
		{
			"inputs": [],
			"name": "s_forwarderAddress",
			"outputs": [
				{
					"internalType": "address",
					"name": "",
					"type": "address"
				}
			],
			"stateMutability": "view",
			"type": "function"
		},
		{
			"inputs": [
				{
					"internalType": "address",
					"name": "forwarderAddress",
					"type": "address"
				}
			],
			"name": "setForwarderAddress",
			"outputs": [],
			"stateMutability": "nonpayable",
			"type": "function"
		},
		{
			"inputs": [
				{
					"internalType": "uint256",
					"name": "_startingTime",
					"type": "uint256"
				},
				{
					"internalType": "uint256",
					"name": "updateInterval",
					"type": "uint256"
				}
			],
			"name": "setInterval",
			"outputs": [],
			"stateMutability": "nonpayable",
			"type": "function"
		},
		{
			"inputs": [],
			"name": "startingTime",
			"outputs": [
				{
					"internalType": "uint256",
					"name": "",
					"type": "uint256"
				}
			],
			"stateMutability": "view",
			"type": "function"
		},
		{
			"inputs": [
				{
					"internalType": "address",
					"name": "newOwner",
					"type": "address"
				}
			],
			"name": "transferOwnership",
			"outputs": [],
			"stateMutability": "nonpayable",
			"type": "function"
		},
		{
			"inputs": [],
			"name": "weeklyTransfer",
			"outputs": [],
			"stateMutability": "nonpayable",
			"type": "function"
		}
	]
}