{
	"data": {
		"bytecode": {
			"linkReferences": {},
			"object": "60806040526009805460ff191690556801158e460913d00000600b55601e600c55710b7abc627050305adf1495f92d4c589c0000600d819055600e5560c8600f819055601081905560118190556012553480156059575f80fd5b503380607e57604051631e4fbdf760e01b81525f600482015260240160405180910390fd5b608581608a565b5060d9565b5f80546001600160a01b038381166001600160a01b0319831681178455604051919092169283917f8be0079c531659141344cd1fd0a4f28419497f9722a3daafe3b4186f6b6457e09190a35050565b610954806100e65f395ff3fe608060405234801561000f575f80fd5b5060043610610106575f3560e01c80636626b26d1161009e578063947a36fb1161006e578063947a36fb146101f9578063cc53b66b14610202578063d777cc6d14610225578063e9c68e2c14610238578063f2fde38b14610240575f80fd5b80636626b26d146101b85780636e04ff0d146101c0578063715018a6146101e15780638da5cb5b146101e9575f80fd5b80633f3b3b27116100d95780633f3b3b271461017e5780634585e33b146101875780635f17e6161461019c57806361bc221a146101af575f80fd5b80633070fbf81461010a57806330cac9721461013a57806330e3f8f81461015157806339518b5e14610175575b5f80fd5b60065461011d906001600160a01b031681565b6040516001600160a01b0390911681526020015b60405180910390f35b61014360035481565b604051908152602001610131565b60065461016590600160a01b900460ff1681565b6040519015158152602001610131565b61014360045481565b61014360055481565b61019a6101953660046107b5565b610253565b005b61019a6101aa366004610823565b610400565b61014360015481565b61019a6104bf565b6101d36101ce3660046107b5565b6104da565b604051610131929190610843565b61019a61050a565b5f546001600160a01b031661011d565b61014360025481565b61020a61051d565b60408051938452602084019290925290820152606001610131565b61019a610233366004610881565b6105c6565b61019a6105f0565b61019a61024e366004610881565b6106da565b6006546001600160a01b031633146102d85760405162461bcd60e51b815260206004820152603b60248201527f54686973206164647265737320646f6573206e6f742068617665207065726d6960448201527f7373696f6e20746f2063616c6c20706572666f726d55706b656570000000000060648201526084015b60405180910390fd5b6002545f0361030057600254604051637154000760e01b81526004016102cf91815260200190565b60045442106103e35742600581905560408051828152602081018390527f0efae2ad6e21b425c8c2b84f50efaa8cf6b19e7b3a0a99525e76170d42dd3c89910160405180910390a16103506105f0565b5f61035b82426108c2565b60408051428152602081018390529192507f744f15d942b14ddb7ddc0c80e591347478849b79aeebd69335083b366088cd9f910160405180910390a1806003546103a591906108c2565b60028190556040519081527fa7697424ba6094d5c4ec76a939cbf89b344c44b620263c06dbda69db1dd1e3fc9060200160405180910390a150505050565b600480546040516354593e7560e01b8152918201526024016102cf565b610408610717565b5f811161042b57604051637154000760e01b8152600481018290526024016102cf565b4282101561044f576040516354593e7560e01b8152600481018390526024016102cf565b61045942836108c2565b60028190556004839055426005819055600383905560408051338152602081019390935282018490526060820152608081018290527f3916f83c2a18163f566b8f682ca7a7578e9c0154ad389a89b99d7a199053b3a89060a00160405180910390a15050565b6104c7610717565b5f6002556006805460ff60a01b19169055565b5f60605f600254600554426104ef91906108c2565b60408051602081019091525f81529110969095509350505050565b610512610717565b61051b5f610743565b565b5f805f8061052f600d54611388610792565b90505f61053e82600f54610792565b90505f61054d83601054610792565b90505f61055c84601154610792565b90505f61056d600e54601254610792565b90505f600c548261057e91906108d5565b905061058a83856108f4565b600d5f82825461059a91906108c2565b9250508190555083600e5f8282546105b291906108f4565b909155509599949850965092945050505050565b6105ce610717565b600680546001600160a01b0319166001600160a01b0392909216919091179055565b5f806105fa61051d565b90935091505f9050805b600c548110156106d457600b545f9061061f816127106108f4565b61062991906108f4565b90505f6106368683610792565b905080600d5f82825461064991906108f4565b90915550610659905081856108f4565b935084600e5f82825461066c91906108f4565b925050819055508460075f82825461068491906108f4565b925050819055508060085f82825461069c91906108f4565b909155505f90506106ad86836108f4565b905080600a5f8282546106c091906108f4565b909155505060019093019250610604915050565b50505050565b6106e2610717565b6001600160a01b03811661070b57604051631e4fbdf760e01b81525f60048201526024016102cf565b61071481610743565b50565b5f546001600160a01b0316331461051b5760405163118cdaa760e01b81523360048201526024016102cf565b5f80546001600160a01b038381166001600160a01b0319831681178455604051919092169283917f8be0079c531659141344cd1fd0a4f28419497f9722a3daafe3b4186f6b6457e09190a35050565b5f806127106107a18486610907565b6107ab91906108d5565b9150505b92915050565b5f80602083850312156107c6575f80fd5b823567ffffffffffffffff8111156107dc575f80fd5b8301601f810185136107ec575f80fd5b803567ffffffffffffffff811115610802575f80fd5b856020828401011115610813575f80fd5b6020919091019590945092505050565b5f8060408385031215610834575f80fd5b50508035926020909101359150565b8215158152604060208201525f82518060408401528060208501606085015e5f606082850101526060601f19601f8301168401019150509392505050565b5f60208284031215610891575f80fd5b81356001600160a01b03811681146108a7575f80fd5b9392505050565b634e487b7160e01b5f52601160045260245ffd5b818103818111156107af576107af6108ae565b5f826108ef57634e487b7160e01b5f52601260045260245ffd5b500490565b808201808211156107af576107af6108ae565b80820281158282048414176107af576107af6108ae56fea26469706673582212205a7ae599bc089a114a3c4390bf06c68f58d155f021c643ab082a70faa572c58a64736f6c634300081a0033",
			"opcodes": "PUSH1 0x80 PUSH1 0x40 MSTORE PUSH1 0x9 DUP1 SLOAD PUSH1 0xFF NOT AND SWAP1 SSTORE PUSH9 0x1158E460913D00000 PUSH1 0xB SSTORE PUSH1 0x1E PUSH1 0xC SSTORE PUSH18 0xB7ABC627050305ADF1495F92D4C589C0000 PUSH1 0xD DUP2 SWAP1 SSTORE PUSH1 0xE SSTORE PUSH1 0xC8 PUSH1 0xF DUP2 SWAP1 SSTORE PUSH1 0x10 DUP2 SWAP1 SSTORE PUSH1 0x11 DUP2 SWAP1 SSTORE PUSH1 0x12 SSTORE CALLVALUE DUP1 ISZERO PUSH1 0x59 JUMPI PUSH0 DUP1 REVERT JUMPDEST POP CALLER DUP1 PUSH1 0x7E JUMPI PUSH1 0x40 MLOAD PUSH4 0x1E4FBDF7 PUSH1 0xE0 SHL DUP2 MSTORE PUSH0 PUSH1 0x4 DUP3 ADD MSTORE PUSH1 0x24 ADD PUSH1 0x40 MLOAD DUP1 SWAP2 SUB SWAP1 REVERT JUMPDEST PUSH1 0x85 DUP2 PUSH1 0x8A JUMP JUMPDEST POP PUSH1 0xD9 JUMP JUMPDEST PUSH0 DUP1 SLOAD PUSH1 0x1 PUSH1 0x1 PUSH1 0xA0 SHL SUB DUP4 DUP2 AND PUSH1 0x1 PUSH1 0x1 PUSH1 0xA0 SHL SUB NOT DUP4 AND DUP2 OR DUP5 SSTORE PUSH1 0x40 MLOAD SWAP2 SWAP1 SWAP3 AND SWAP3 DUP4 SWAP2 PUSH32 0x8BE0079C531659141344CD1FD0A4F28419497F9722A3DAAFE3B4186F6B6457E0 SWAP2 SWAP1 LOG3 POP POP JUMP JUMPDEST PUSH2 0x954 DUP1 PUSH2 0xE6 PUSH0 CODECOPY PUSH0 RETURN INVALID PUSH1 0x80 PUSH1 0x40 MSTORE CALLVALUE DUP1 ISZERO PUSH2 0xF JUMPI PUSH0 DUP1 REVERT JUMPDEST POP PUSH1 0x4 CALLDATASIZE LT PUSH2 0x106 JUMPI PUSH0 CALLDATALOAD PUSH1 0xE0 SHR DUP1 PUSH4 0x6626B26D GT PUSH2 0x9E JUMPI DUP1 PUSH4 0x947A36FB GT PUSH2 0x6E JUMPI DUP1 PUSH4 0x947A36FB EQ PUSH2 0x1F9 JUMPI DUP1 PUSH4 0xCC53B66B EQ PUSH2 0x202 JUMPI DUP1 PUSH4 0xD777CC6D EQ PUSH2 0x225 JUMPI DUP1 PUSH4 0xE9C68E2C EQ PUSH2 0x238 JUMPI DUP1 PUSH4 0xF2FDE38B EQ PUSH2 0x240 JUMPI PUSH0 DUP1 REVERT JUMPDEST DUP1 PUSH4 0x6626B26D EQ PUSH2 0x1B8 JUMPI DUP1 PUSH4 0x6E04FF0D EQ PUSH2 0x1C0 JUMPI DUP1 PUSH4 0x715018A6 EQ PUSH2 0x1E1 JUMPI DUP1 PUSH4 0x8DA5CB5B EQ PUSH2 0x1E9 JUMPI PUSH0 DUP1 REVERT JUMPDEST DUP1 PUSH4 0x3F3B3B27 GT PUSH2 0xD9 JUMPI DUP1 PUSH4 0x3F3B3B27 EQ PUSH2 0x17E JUMPI DUP1 PUSH4 0x4585E33B EQ PUSH2 0x187 JUMPI DUP1 PUSH4 0x5F17E616 EQ PUSH2 0x19C JUMPI DUP1 PUSH4 0x61BC221A EQ PUSH2 0x1AF JUMPI PUSH0 DUP1 REVERT JUMPDEST DUP1 PUSH4 0x3070FBF8 EQ PUSH2 0x10A JUMPI DUP1 PUSH4 0x30CAC972 EQ PUSH2 0x13A JUMPI DUP1 PUSH4 0x30E3F8F8 EQ PUSH2 0x151 JUMPI DUP1 PUSH4 0x39518B5E EQ PUSH2 0x175 JUMPI JUMPDEST PUSH0 DUP1 REVERT JUMPDEST PUSH1 0x6 SLOAD PUSH2 0x11D SWAP1 PUSH1 0x1 PUSH1 0x1 PUSH1 0xA0 SHL SUB AND DUP2 JUMP JUMPDEST PUSH1 0x40 MLOAD PUSH1 0x1 PUSH1 0x1 PUSH1 0xA0 SHL SUB SWAP1 SWAP2 AND DUP2 MSTORE PUSH1 0x20 ADD JUMPDEST PUSH1 0x40 MLOAD DUP1 SWAP2 SUB SWAP1 RETURN JUMPDEST PUSH2 0x143 PUSH1 0x3 SLOAD DUP2 JUMP JUMPDEST PUSH1 0x40 MLOAD SWAP1 DUP2 MSTORE PUSH1 0x20 ADD PUSH2 0x131 JUMP JUMPDEST PUSH1 0x6 SLOAD PUSH2 0x165 SWAP1 PUSH1 0x1 PUSH1 0xA0 SHL SWAP1 DIV PUSH1 0xFF AND DUP2 JUMP JUMPDEST PUSH1 0x40 MLOAD SWAP1 ISZERO ISZERO DUP2 MSTORE PUSH1 0x20 ADD PUSH2 0x131 JUMP JUMPDEST PUSH2 0x143 PUSH1 0x4 SLOAD DUP2 JUMP JUMPDEST PUSH2 0x143 PUSH1 0x5 SLOAD DUP2 JUMP JUMPDEST PUSH2 0x19A PUSH2 0x195 CALLDATASIZE PUSH1 0x4 PUSH2 0x7B5 JUMP JUMPDEST PUSH2 0x253 JUMP JUMPDEST STOP JUMPDEST PUSH2 0x19A PUSH2 0x1AA CALLDATASIZE PUSH1 0x4 PUSH2 0x823 JUMP JUMPDEST PUSH2 0x400 JUMP JUMPDEST PUSH2 0x143 PUSH1 0x1 SLOAD DUP2 JUMP JUMPDEST PUSH2 0x19A PUSH2 0x4BF JUMP JUMPDEST PUSH2 0x1D3 PUSH2 0x1CE CALLDATASIZE PUSH1 0x4 PUSH2 0x7B5 JUMP JUMPDEST PUSH2 0x4DA JUMP JUMPDEST PUSH1 0x40 MLOAD PUSH2 0x131 SWAP3 SWAP2 SWAP1 PUSH2 0x843 JUMP JUMPDEST PUSH2 0x19A PUSH2 0x50A JUMP JUMPDEST PUSH0 SLOAD PUSH1 0x1 PUSH1 0x1 PUSH1 0xA0 SHL SUB AND PUSH2 0x11D JUMP JUMPDEST PUSH2 0x143 PUSH1 0x2 SLOAD DUP2 JUMP JUMPDEST PUSH2 0x20A PUSH2 0x51D JUMP JUMPDEST PUSH1 0x40 DUP1 MLOAD SWAP4 DUP5 MSTORE PUSH1 0x20 DUP5 ADD SWAP3 SWAP1 SWAP3 MSTORE SWAP1 DUP3 ADD MSTORE PUSH1 0x60 ADD PUSH2 0x131 JUMP JUMPDEST PUSH2 0x19A PUSH2 0x233 CALLDATASIZE PUSH1 0x4 PUSH2 0x881 JUMP JUMPDEST PUSH2 0x5C6 JUMP JUMPDEST PUSH2 0x19A PUSH2 0x5F0 JUMP JUMPDEST PUSH2 0x19A PUSH2 0x24E CALLDATASIZE PUSH1 0x4 PUSH2 0x881 JUMP JUMPDEST PUSH2 0x6DA JUMP JUMPDEST PUSH1 0x6 SLOAD PUSH1 0x1 PUSH1 0x1 PUSH1 0xA0 SHL SUB AND CALLER EQ PUSH2 0x2D8 JUMPI PUSH1 0x40 MLOAD PUSH3 0x461BCD PUSH1 0xE5 SHL DUP2 MSTORE PUSH1 0x20 PUSH1 0x4 DUP3 ADD MSTORE PUSH1 0x3B PUSH1 0x24 DUP3 ADD MSTORE PUSH32 0x54686973206164647265737320646F6573206E6F742068617665207065726D69 PUSH1 0x44 DUP3 ADD MSTORE PUSH32 0x7373696F6E20746F2063616C6C20706572666F726D55706B6565700000000000 PUSH1 0x64 DUP3 ADD MSTORE PUSH1 0x84 ADD JUMPDEST PUSH1 0x40 MLOAD DUP1 SWAP2 SUB SWAP1 REVERT JUMPDEST PUSH1 0x2 SLOAD PUSH0 SUB PUSH2 0x300 JUMPI PUSH1 0x2 SLOAD PUSH1 0x40 MLOAD PUSH4 0x71540007 PUSH1 0xE0 SHL DUP2 MSTORE PUSH1 0x4 ADD PUSH2 0x2CF SWAP2 DUP2 MSTORE PUSH1 0x20 ADD SWAP1 JUMP JUMPDEST PUSH1 0x4 SLOAD TIMESTAMP LT PUSH2 0x3E3 JUMPI TIMESTAMP PUSH1 0x5 DUP2 SWAP1 SSTORE PUSH1 0x40 DUP1 MLOAD DUP3 DUP2 MSTORE PUSH1 0x20 DUP2 ADD DUP4 SWAP1 MSTORE PUSH32 0xEFAE2AD6E21B425C8C2B84F50EFAA8CF6B19E7B3A0A99525E76170D42DD3C89 SWAP2 ADD PUSH1 0x40 MLOAD DUP1 SWAP2 SUB SWAP1 LOG1 PUSH2 0x350 PUSH2 0x5F0 JUMP JUMPDEST PUSH0 PUSH2 0x35B DUP3 TIMESTAMP PUSH2 0x8C2 JUMP JUMPDEST PUSH1 0x40 DUP1 MLOAD TIMESTAMP DUP2 MSTORE PUSH1 0x20 DUP2 ADD DUP4 SWAP1 MSTORE SWAP2 SWAP3 POP PUSH32 0x744F15D942B14DDB7DDC0C80E591347478849B79AEEBD69335083B366088CD9F SWAP2 ADD PUSH1 0x40 MLOAD DUP1 SWAP2 SUB SWAP1 LOG1 DUP1 PUSH1 0x3 SLOAD PUSH2 0x3A5 SWAP2 SWAP1 PUSH2 0x8C2 JUMP JUMPDEST PUSH1 0x2 DUP2 SWAP1 SSTORE PUSH1 0x40 MLOAD SWAP1 DUP2 MSTORE PUSH32 0xA7697424BA6094D5C4EC76A939CBF89B344C44B620263C06DBDA69DB1DD1E3FC SWAP1 PUSH1 0x20 ADD PUSH1 0x40 MLOAD DUP1 SWAP2 SUB SWAP1 LOG1 POP POP POP POP JUMP JUMPDEST PUSH1 0x4 DUP1 SLOAD PUSH1 0x40 MLOAD PUSH4 0x54593E75 PUSH1 0xE0 SHL DUP2 MSTORE SWAP2 DUP3 ADD MSTORE PUSH1 0x24 ADD PUSH2 0x2CF JUMP JUMPDEST PUSH2 0x408 PUSH2 0x717 JUMP JUMPDEST PUSH0 DUP2 GT PUSH2 0x42B JUMPI PUSH1 0x40 MLOAD PUSH4 0x71540007 PUSH1 0xE0 SHL DUP2 MSTORE PUSH1 0x4 DUP2 ADD DUP3 SWAP1 MSTORE PUSH1 0x24 ADD PUSH2 0x2CF JUMP JUMPDEST TIMESTAMP DUP3 LT ISZERO PUSH2 0x44F JUMPI PUSH1 0x40 MLOAD PUSH4 0x54593E75 PUSH1 0xE0 SHL DUP2 MSTORE PUSH1 0x4 DUP2 ADD DUP4 SWAP1 MSTORE PUSH1 0x24 ADD PUSH2 0x2CF JUMP JUMPDEST PUSH2 0x459 TIMESTAMP DUP4 PUSH2 0x8C2 JUMP JUMPDEST PUSH1 0x2 DUP2 SWAP1 SSTORE PUSH1 0x4 DUP4 SWAP1 SSTORE TIMESTAMP PUSH1 0x5 DUP2 SWAP1 SSTORE PUSH1 0x3 DUP4 SWAP1 SSTORE PUSH1 0x40 DUP1 MLOAD CALLER DUP2 MSTORE PUSH1 0x20 DUP2 ADD SWAP4 SWAP1 SWAP4 MSTORE DUP3 ADD DUP5 SWAP1 MSTORE PUSH1 0x60 DUP3 ADD MSTORE PUSH1 0x80 DUP2 ADD DUP3 SWAP1 MSTORE PUSH32 0x3916F83C2A18163F566B8F682CA7A7578E9C0154AD389A89B99D7A199053B3A8 SWAP1 PUSH1 0xA0 ADD PUSH1 0x40 MLOAD DUP1 SWAP2 SUB SWAP1 LOG1 POP POP JUMP JUMPDEST PUSH2 0x4C7 PUSH2 0x717 JUMP JUMPDEST PUSH0 PUSH1 0x2 SSTORE PUSH1 0x6 DUP1 SLOAD PUSH1 0xFF PUSH1 0xA0 SHL NOT AND SWAP1 SSTORE JUMP JUMPDEST PUSH0 PUSH1 0x60 PUSH0 PUSH1 0x2 SLOAD PUSH1 0x5 SLOAD TIMESTAMP PUSH2 0x4EF SWAP2 SWAP1 PUSH2 0x8C2 JUMP JUMPDEST PUSH1 0x40 DUP1 MLOAD PUSH1 0x20 DUP2 ADD SWAP1 SWAP2 MSTORE PUSH0 DUP2 MSTORE SWAP2 LT SWAP7 SWAP1 SWAP6 POP SWAP4 POP POP POP POP JUMP JUMPDEST PUSH2 0x512 PUSH2 0x717 JUMP JUMPDEST PUSH2 0x51B PUSH0 PUSH2 0x743 JUMP JUMPDEST JUMP JUMPDEST PUSH0 DUP1 PUSH0 DUP1 PUSH2 0x52F PUSH1 0xD SLOAD PUSH2 0x1388 PUSH2 0x792 JUMP JUMPDEST SWAP1 POP PUSH0 PUSH2 0x53E DUP3 PUSH1 0xF SLOAD PUSH2 0x792 JUMP JUMPDEST SWAP1 POP PUSH0 PUSH2 0x54D DUP4 PUSH1 0x10 SLOAD PUSH2 0x792 JUMP JUMPDEST SWAP1 POP PUSH0 PUSH2 0x55C DUP5 PUSH1 0x11 SLOAD PUSH2 0x792 JUMP JUMPDEST SWAP1 POP PUSH0 PUSH2 0x56D PUSH1 0xE SLOAD PUSH1 0x12 SLOAD PUSH2 0x792 JUMP JUMPDEST SWAP1 POP PUSH0 PUSH1 0xC SLOAD DUP3 PUSH2 0x57E SWAP2 SWAP1 PUSH2 0x8D5 JUMP JUMPDEST SWAP1 POP PUSH2 0x58A DUP4 DUP6 PUSH2 0x8F4 JUMP JUMPDEST PUSH1 0xD PUSH0 DUP3 DUP3 SLOAD PUSH2 0x59A SWAP2 SWAP1 PUSH2 0x8C2 JUMP JUMPDEST SWAP3 POP POP DUP2 SWAP1 SSTORE POP DUP4 PUSH1 0xE PUSH0 DUP3 DUP3 SLOAD PUSH2 0x5B2 SWAP2 SWAP1 PUSH2 0x8F4 JUMP JUMPDEST SWAP1 SWAP2 SSTORE POP SWAP6 SWAP10 SWAP5 SWAP9 POP SWAP7 POP SWAP3 SWAP5 POP POP POP POP POP JUMP JUMPDEST PUSH2 0x5CE PUSH2 0x717 JUMP JUMPDEST PUSH1 0x6 DUP1 SLOAD PUSH1 0x1 PUSH1 0x1 PUSH1 0xA0 SHL SUB NOT AND PUSH1 0x1 PUSH1 0x1 PUSH1 0xA0 SHL SUB SWAP3 SWAP1 SWAP3 AND SWAP2 SWAP1 SWAP2 OR SWAP1 SSTORE JUMP JUMPDEST PUSH0 DUP1 PUSH2 0x5FA PUSH2 0x51D JUMP JUMPDEST SWAP1 SWAP4 POP SWAP2 POP PUSH0 SWAP1 POP DUP1 JUMPDEST PUSH1 0xC SLOAD DUP2 LT ISZERO PUSH2 0x6D4 JUMPI PUSH1 0xB SLOAD PUSH0 SWAP1 PUSH2 0x61F DUP2 PUSH2 0x2710 PUSH2 0x8F4 JUMP JUMPDEST PUSH2 0x629 SWAP2 SWAP1 PUSH2 0x8F4 JUMP JUMPDEST SWAP1 POP PUSH0 PUSH2 0x636 DUP7 DUP4 PUSH2 0x792 JUMP JUMPDEST SWAP1 POP DUP1 PUSH1 0xD PUSH0 DUP3 DUP3 SLOAD PUSH2 0x649 SWAP2 SWAP1 PUSH2 0x8F4 JUMP JUMPDEST SWAP1 SWAP2 SSTORE POP PUSH2 0x659 SWAP1 POP DUP2 DUP6 PUSH2 0x8F4 JUMP JUMPDEST SWAP4 POP DUP5 PUSH1 0xE PUSH0 DUP3 DUP3 SLOAD PUSH2 0x66C SWAP2 SWAP1 PUSH2 0x8F4 JUMP JUMPDEST SWAP3 POP POP DUP2 SWAP1 SSTORE POP DUP5 PUSH1 0x7 PUSH0 DUP3 DUP3 SLOAD PUSH2 0x684 SWAP2 SWAP1 PUSH2 0x8F4 JUMP JUMPDEST SWAP3 POP POP DUP2 SWAP1 SSTORE POP DUP1 PUSH1 0x8 PUSH0 DUP3 DUP3 SLOAD PUSH2 0x69C SWAP2 SWAP1 PUSH2 0x8F4 JUMP JUMPDEST SWAP1 SWAP2 SSTORE POP PUSH0 SWAP1 POP PUSH2 0x6AD DUP7 DUP4 PUSH2 0x8F4 JUMP JUMPDEST SWAP1 POP DUP1 PUSH1 0xA PUSH0 DUP3 DUP3 SLOAD PUSH2 0x6C0 SWAP2 SWAP1 PUSH2 0x8F4 JUMP JUMPDEST SWAP1 SWAP2 SSTORE POP POP PUSH1 0x1 SWAP1 SWAP4 ADD SWAP3 POP PUSH2 0x604 SWAP2 POP POP JUMP JUMPDEST POP POP POP POP JUMP JUMPDEST PUSH2 0x6E2 PUSH2 0x717 JUMP JUMPDEST PUSH1 0x1 PUSH1 0x1 PUSH1 0xA0 SHL SUB DUP2 AND PUSH2 0x70B JUMPI PUSH1 0x40 MLOAD PUSH4 0x1E4FBDF7 PUSH1 0xE0 SHL DUP2 MSTORE PUSH0 PUSH1 0x4 DUP3 ADD MSTORE PUSH1 0x24 ADD PUSH2 0x2CF JUMP JUMPDEST PUSH2 0x714 DUP2 PUSH2 0x743 JUMP JUMPDEST POP JUMP JUMPDEST PUSH0 SLOAD PUSH1 0x1 PUSH1 0x1 PUSH1 0xA0 SHL SUB AND CALLER EQ PUSH2 0x51B JUMPI PUSH1 0x40 MLOAD PUSH4 0x118CDAA7 PUSH1 0xE0 SHL DUP2 MSTORE CALLER PUSH1 0x4 DUP3 ADD MSTORE PUSH1 0x24 ADD PUSH2 0x2CF JUMP JUMPDEST PUSH0 DUP1 SLOAD PUSH1 0x1 PUSH1 0x1 PUSH1 0xA0 SHL SUB DUP4 DUP2 AND PUSH1 0x1 PUSH1 0x1 PUSH1 0xA0 SHL SUB NOT DUP4 AND DUP2 OR DUP5 SSTORE PUSH1 0x40 MLOAD SWAP2 SWAP1 SWAP3 AND SWAP3 DUP4 SWAP2 PUSH32 0x8BE0079C531659141344CD1FD0A4F28419497F9722A3DAAFE3B4186F6B6457E0 SWAP2 SWAP1 LOG3 POP POP JUMP JUMPDEST PUSH0 DUP1 PUSH2 0x2710 PUSH2 0x7A1 DUP5 DUP7 PUSH2 0x907 JUMP JUMPDEST PUSH2 0x7AB SWAP2 SWAP1 PUSH2 0x8D5 JUMP JUMPDEST SWAP2 POP POP JUMPDEST SWAP3 SWAP2 POP POP JUMP JUMPDEST PUSH0 DUP1 PUSH1 0x20 DUP4 DUP6 SUB SLT ISZERO PUSH2 0x7C6 JUMPI PUSH0 DUP1 REVERT JUMPDEST DUP3 CALLDATALOAD PUSH8 0xFFFFFFFFFFFFFFFF DUP2 GT ISZERO PUSH2 0x7DC JUMPI PUSH0 DUP1 REVERT JUMPDEST DUP4 ADD PUSH1 0x1F DUP2 ADD DUP6 SGT PUSH2 0x7EC JUMPI PUSH0 DUP1 REVERT JUMPDEST DUP1 CALLDATALOAD PUSH8 0xFFFFFFFFFFFFFFFF DUP2 GT ISZERO PUSH2 0x802 JUMPI PUSH0 DUP1 REVERT JUMPDEST DUP6 PUSH1 0x20 DUP3 DUP5 ADD ADD GT ISZERO PUSH2 0x813 JUMPI PUSH0 DUP1 REVERT JUMPDEST PUSH1 0x20 SWAP2 SWAP1 SWAP2 ADD SWAP6 SWAP1 SWAP5 POP SWAP3 POP POP POP JUMP JUMPDEST PUSH0 DUP1 PUSH1 0x40 DUP4 DUP6 SUB SLT ISZERO PUSH2 0x834 JUMPI PUSH0 DUP1 REVERT JUMPDEST POP POP DUP1 CALLDATALOAD SWAP3 PUSH1 0x20 SWAP1 SWAP2 ADD CALLDATALOAD SWAP2 POP JUMP JUMPDEST DUP3 ISZERO ISZERO DUP2 MSTORE PUSH1 0x40 PUSH1 0x20 DUP3 ADD MSTORE PUSH0 DUP3 MLOAD DUP1 PUSH1 0x40 DUP5 ADD MSTORE DUP1 PUSH1 0x20 DUP6 ADD PUSH1 0x60 DUP6 ADD MCOPY PUSH0 PUSH1 0x60 DUP3 DUP6 ADD ADD MSTORE PUSH1 0x60 PUSH1 0x1F NOT PUSH1 0x1F DUP4 ADD AND DUP5 ADD ADD SWAP2 POP POP SWAP4 SWAP3 POP POP POP JUMP JUMPDEST PUSH0 PUSH1 0x20 DUP3 DUP5 SUB SLT ISZERO PUSH2 0x891 JUMPI PUSH0 DUP1 REVERT JUMPDEST DUP2 CALLDATALOAD PUSH1 0x1 PUSH1 0x1 PUSH1 0xA0 SHL SUB DUP2 AND DUP2 EQ PUSH2 0x8A7 JUMPI PUSH0 DUP1 REVERT JUMPDEST SWAP4 SWAP3 POP POP POP JUMP JUMPDEST PUSH4 0x4E487B71 PUSH1 0xE0 SHL PUSH0 MSTORE PUSH1 0x11 PUSH1 0x4 MSTORE PUSH1 0x24 PUSH0 REVERT JUMPDEST DUP2 DUP2 SUB DUP2 DUP2 GT ISZERO PUSH2 0x7AF JUMPI PUSH2 0x7AF PUSH2 0x8AE JUMP JUMPDEST PUSH0 DUP3 PUSH2 0x8EF JUMPI PUSH4 0x4E487B71 PUSH1 0xE0 SHL PUSH0 MSTORE PUSH1 0x12 PUSH1 0x4 MSTORE PUSH1 0x24 PUSH0 REVERT JUMPDEST POP DIV SWAP1 JUMP JUMPDEST DUP1 DUP3 ADD DUP1 DUP3 GT ISZERO PUSH2 0x7AF JUMPI PUSH2 0x7AF PUSH2 0x8AE JUMP JUMPDEST DUP1 DUP3 MUL DUP2 ISZERO DUP3 DUP3 DIV DUP5 EQ OR PUSH2 0x7AF JUMPI PUSH2 0x7AF PUSH2 0x8AE JUMP INVALID LOG2 PUSH5 0x6970667358 0x22 SLT KECCAK256 GAS PUSH27 0xE599BC089A114A3C4390BF06C68F58D155F021C643AB082A70FAA5 PUSH19 0xC58A64736F6C634300081A0033000000000000 "
		},
		"gasEstimates": {
			"creation": {
				"codeDepositCost": "477600",
				"executionCost": "227449",
				"totalCost": "705049"
			},
			"external": {
				"checkOnce()": "2394",
				"checkUpkeep(bytes)": "infinite",
				"counter()": "2383",
				"interval()": "2316",
				"lastTimeStamp()": "2317",
				"off()": "31558",
				"owner()": "2407",
				"perPoolCalculation()": "infinite",
				"performUpkeep(bytes)": "infinite",
				"realInterval()": "2340",
				"renounceOwnership()": "infinite",
				"s_forwarderAddress()": "2349",
				"setForwarderAddress(address)": "26763",
				"setInterval(uint256,uint256)": "93196",
				"startingTime()": "2384",
				"transferOwnership(address)": "28404",
				"weeklyTransfer()": "infinite"
			},
			"internal": {
				"calculatePercentage(uint256,uint256)": "infinite"
			}
		},
		"methodIdentifiers": {
			"checkOnce()": "30e3f8f8",
			"checkUpkeep(bytes)": "6e04ff0d",
			"counter()": "61bc221a",
			"interval()": "947a36fb",
			"lastTimeStamp()": "3f3b3b27",
			"off()": "6626b26d",
			"owner()": "8da5cb5b",
			"perPoolCalculation()": "cc53b66b",
			"performUpkeep(bytes)": "4585e33b",
			"realInterval()": "30cac972",
			"renounceOwnership()": "715018a6",
			"s_forwarderAddress()": "3070fbf8",
			"setForwarderAddress(address)": "d777cc6d",
			"setInterval(uint256,uint256)": "5f17e616",
			"startingTime()": "39518b5e",
			"transferOwnership(address)": "f2fde38b",
			"weeklyTransfer()": "e9c68e2c"
		}
	},
	"abi": [
		{
			"inputs": [],
			"stateMutability": "nonpayable",
			"type": "constructor"
		},
		{
			"inputs": [
				{
					"internalType": "address",
					"name": "owner",
					"type": "address"
				}
			],
			"name": "OwnableInvalidOwner",
			"type": "error"
		},
		{
			"inputs": [
				{
					"internalType": "address",
					"name": "account",
					"type": "address"
				}
			],
			"name": "OwnableUnauthorizedAccount",
			"type": "error"
		},
		{
			"inputs": [
				{
					"internalType": "uint256",
					"name": "updateInterval",
					"type": "uint256"
				}
			],
			"name": "wrongInterval",
			"type": "error"
		},
		{
			"inputs": [
				{
					"internalType": "uint256",
					"name": "time",
					"type": "uint256"
				}
			],
			"name": "wrongTime",
			"type": "error"
		},
		{
			"anonymous": false,
			"inputs": [
				{
					"indexed": true,
					"internalType": "address",
					"name": "previousOwner",
					"type": "address"
				},
				{
					"indexed": true,
					"internalType": "address",
					"name": "newOwner",
					"type": "address"
				}
			],
			"name": "OwnershipTransferred",
			"type": "event"
		},
		{
			"anonymous": false,
			"inputs": [
				{
					"indexed": false,
					"internalType": "address",
					"name": "msgsender",
					"type": "address"
				},
				{
					"indexed": false,
					"internalType": "uint256",
					"name": "interval",
					"type": "uint256"
				},
				{
					"indexed": false,
					"internalType": "uint256",
					"name": "startingTime",
					"type": "uint256"
				},
				{
					"indexed": false,
					"internalType": "uint256",
					"name": "lastTimeStamp",
					"type": "uint256"
				},
				{
					"indexed": false,
					"internalType": "uint256",
					"name": "realInterval",
					"type": "uint256"
				}
			],
			"name": "SetInterval",
			"type": "event"
		},
		{
			"anonymous": false,
			"inputs": [
				{
					"indexed": false,
					"internalType": "uint256",
					"name": "startExecutionTime",
					"type": "uint256"
				},
				{
					"indexed": false,
					"internalType": "uint256",
					"name": "lastTimeStamp",
					"type": "uint256"
				}
			],
			"name": "first",
			"type": "event"
		},
		{
			"anonymous": false,
			"inputs": [
				{
					"indexed": false,
					"internalType": "uint256",
					"name": "interval",
					"type": "uint256"
				}
			],
			"name": "three",
			"type": "event"
		},
		{
			"anonymous": false,
			"inputs": [
				{
					"indexed": false,
					"internalType": "uint256",
					"name": "blocktimestamp",
					"type": "uint256"
				},
				{
					"indexed": false,
					"internalType": "uint256",
					"name": "executionDuration",
					"type": "uint256"
				}
			],
			"name": "two",
			"type": "event"
		},
		{
			"inputs": [],
			"name": "checkOnce",
			"outputs": [
				{
					"internalType": "bool",
					"name": "",
					"type": "bool"
				}
			],
			"stateMutability": "view",
			"type": "function"
		},
		{
			"inputs": [
				{
					"internalType": "bytes",
					"name": "",
					"type": "bytes"
				}
			],
			"name": "checkUpkeep",
			"outputs": [
				{
					"internalType": "bool",
					"name": "",
					"type": "bool"
				},
				{
					"internalType": "bytes",
					"name": "",
					"type": "bytes"
				}
			],
			"stateMutability": "view",
			"type": "function"
		},
		{
			"inputs": [],
			"name": "counter",
			"outputs": [
				{
					"internalType": "uint256",
					"name": "",
					"type": "uint256"
				}
			],
			"stateMutability": "view",
			"type": "function"
		},
		{
			"inputs": [],
			"name": "interval",
			"outputs": [
				{
					"internalType": "uint256",
					"name": "",
					"type": "uint256"
				}
			],
			"stateMutability": "view",
			"type": "function"
		},
		{
			"inputs": [],
			"name": "lastTimeStamp",
			"outputs": [
				{
					"internalType": "uint256",
					"name": "",
					"type": "uint256"
				}
			],
			"stateMutability": "view",
			"type": "function"
		},
		{
			"inputs": [],
			"name": "off",
			"outputs": [],
			"stateMutability": "nonpayable",
			"type": "function"
		},
		{
			"inputs": [],
			"name": "owner",
			"outputs": [
				{
					"internalType": "address",
					"name": "",
					"type": "address"
				}
			],
			"stateMutability": "view",
			"type": "function"
		},
		{
			"inputs": [],
			"name": "perPoolCalculation",
			"outputs": [
				{
					"internalType": "uint256",
					"name": "",
					"type": "uint256"
				},
				{
					"internalType": "uint256",
					"name": "",
					"type": "uint256"
				},
				{
					"internalType": "uint256",
					"name": "",
					"type": "uint256"
				}
			],
			"stateMutability": "nonpayable",
			"type": "function"
		},
		{
			"inputs": [
				{
					"internalType": "bytes",
					"name": "",
					"type": "bytes"
				}
			],
			"name": "performUpkeep",
			"outputs": [],
			"stateMutability": "nonpayable",
			"type": "function"
		},
		{
			"inputs": [],
			"name": "realInterval",
			"outputs": [
				{
					"internalType": "uint256",
					"name": "",
					"type": "uint256"
				}
			],
			"stateMutability": "view",
			"type": "function"
		},
		{
			"inputs": [],
			"name": "renounceOwnership",
			"outputs": [],
			"stateMutability": "nonpayable",
			"type": "function"
		},
		{
			"inputs": [],
			"name": "s_forwarderAddress",
			"outputs": [
				{
					"internalType": "address",
					"name": "",
					"type": "address"
				}
			],
			"stateMutability": "view",
			"type": "function"
		},
		{
			"inputs": [
				{
					"internalType": "address",
					"name": "forwarderAddress",
					"type": "address"
				}
			],
			"name": "setForwarderAddress",
			"outputs": [],
			"stateMutability": "nonpayable",
			"type": "function"
		},
		{
			"inputs": [
				{
					"internalType": "uint256",
					"name": "_startingTime",
					"type": "uint256"
				},
				{
					"internalType": "uint256",
					"name": "updateInterval",
					"type": "uint256"
				}
			],
			"name": "setInterval",
			"outputs": [],
			"stateMutability": "nonpayable",
			"type": "function"
		},
		{
			"inputs": [],
			"name": "startingTime",
			"outputs": [
				{
					"internalType": "uint256",
					"name": "",
					"type": "uint256"
				}
			],
			"stateMutability": "view",
			"type": "function"
		},
		{
			"inputs": [
				{
					"internalType": "address",
					"name": "newOwner",
					"type": "address"
				}
			],
			"name": "transferOwnership",
			"outputs": [],
			"stateMutability": "nonpayable",
			"type": "function"
		},
		{
			"inputs": [],
			"name": "weeklyTransfer",
			"outputs": [],
			"stateMutability": "nonpayable",
			"type": "function"
		}
	]
}