{
	"data": {
		"bytecode": {
			"linkReferences": {},
			"object": "6080604052348015600e575f80fd5b505f80546001600160a01b0319163317905561029f8061002d5f395ff3fe608060405234801561000f575f80fd5b506004361061007a575f3560e01c80636bc78cb5116100585780636bc78cb5146100c05780638da5cb5b146100c857806397a0259d146100f2578063c78ec18e146100fc575f80fd5b80630a5b7fe61461007e57806322f3e2d41461009a5780635acb23f5146100b7575b5f80fd5b61008760015481565b6040519081526020015b60405180910390f35b6003546100a79060ff1681565b6040519015158152602001610091565b61008760025481565b600254610087565b5f546100da906001600160a01b031681565b6040516001600160a01b039091168152602001610091565b6100fa61010f565b005b6100fa61010a3660046101e7565b61014d565b5f546001600160a01b031633146101415760405162461bcd60e51b8152600401610138906101fe565b60405180910390fd5b6003805460ff19169055565b5f546001600160a01b031633146101765760405162461bcd60e51b8152600401610138906101fe565b5f81116101c55760405162461bcd60e51b815260206004820181905260248201527f496e74657276616c206d7573742062652067726561746572207468616e20302e6044820152606401610138565b60018190556101d48142610244565b600255506003805460ff19166001179055565b5f602082840312156101f7575f80fd5b5035919050565b60208082526026908201527f4f6e6c7920746865206f776e65722063616e2063616c6c20746869732066756e60408201526531ba34b7b71760d11b606082015260800190565b8082018082111561026357634e487b7160e01b5f52601160045260245ffd5b9291505056fea2646970667358221220c0911e0a91eeb3001966ed4f0f3c4a56bc3e8a6487c1e7e878d4197c3c0ab61064736f6c634300081a0033",
			"opcodes": "PUSH1 0x80 PUSH1 0x40 MSTORE CALLVALUE DUP1 ISZERO PUSH1 0xE JUMPI PUSH0 DUP1 REVERT JUMPDEST POP PUSH0 DUP1 SLOAD PUSH1 0x1 PUSH1 0x1 PUSH1 0xA0 SHL SUB NOT AND CALLER OR SWAP1 SSTORE PUSH2 0x29F DUP1 PUSH2 0x2D PUSH0 CODECOPY PUSH0 RETURN INVALID PUSH1 0x80 PUSH1 0x40 MSTORE CALLVALUE DUP1 ISZERO PUSH2 0xF JUMPI PUSH0 DUP1 REVERT JUMPDEST POP PUSH1 0x4 CALLDATASIZE LT PUSH2 0x7A JUMPI PUSH0 CALLDATALOAD PUSH1 0xE0 SHR DUP1 PUSH4 0x6BC78CB5 GT PUSH2 0x58 JUMPI DUP1 PUSH4 0x6BC78CB5 EQ PUSH2 0xC0 JUMPI DUP1 PUSH4 0x8DA5CB5B EQ PUSH2 0xC8 JUMPI DUP1 PUSH4 0x97A0259D EQ PUSH2 0xF2 JUMPI DUP1 PUSH4 0xC78EC18E EQ PUSH2 0xFC JUMPI PUSH0 DUP1 REVERT JUMPDEST DUP1 PUSH4 0xA5B7FE6 EQ PUSH2 0x7E JUMPI DUP1 PUSH4 0x22F3E2D4 EQ PUSH2 0x9A JUMPI DUP1 PUSH4 0x5ACB23F5 EQ PUSH2 0xB7 JUMPI JUMPDEST PUSH0 DUP1 REVERT JUMPDEST PUSH2 0x87 PUSH1 0x1 SLOAD DUP2 JUMP JUMPDEST PUSH1 0x40 MLOAD SWAP1 DUP2 MSTORE PUSH1 0x20 ADD JUMPDEST PUSH1 0x40 MLOAD DUP1 SWAP2 SUB SWAP1 RETURN JUMPDEST PUSH1 0x3 SLOAD PUSH2 0xA7 SWAP1 PUSH1 0xFF AND DUP2 JUMP JUMPDEST PUSH1 0x40 MLOAD SWAP1 ISZERO ISZERO DUP2 MSTORE PUSH1 0x20 ADD PUSH2 0x91 JUMP JUMPDEST PUSH2 0x87 PUSH1 0x2 SLOAD DUP2 JUMP JUMPDEST PUSH1 0x2 SLOAD PUSH2 0x87 JUMP JUMPDEST PUSH0 SLOAD PUSH2 0xDA SWAP1 PUSH1 0x1 PUSH1 0x1 PUSH1 0xA0 SHL SUB AND DUP2 JUMP JUMPDEST PUSH1 0x40 MLOAD PUSH1 0x1 PUSH1 0x1 PUSH1 0xA0 SHL SUB SWAP1 SWAP2 AND DUP2 MSTORE PUSH1 0x20 ADD PUSH2 0x91 JUMP JUMPDEST PUSH2 0xFA PUSH2 0x10F JUMP JUMPDEST STOP JUMPDEST PUSH2 0xFA PUSH2 0x10A CALLDATASIZE PUSH1 0x4 PUSH2 0x1E7 JUMP JUMPDEST PUSH2 0x14D JUMP JUMPDEST PUSH0 SLOAD PUSH1 0x1 PUSH1 0x1 PUSH1 0xA0 SHL SUB AND CALLER EQ PUSH2 0x141 JUMPI PUSH1 0x40 MLOAD PUSH3 0x461BCD PUSH1 0xE5 SHL DUP2 MSTORE PUSH1 0x4 ADD PUSH2 0x138 SWAP1 PUSH2 0x1FE JUMP JUMPDEST PUSH1 0x40 MLOAD DUP1 SWAP2 SUB SWAP1 REVERT JUMPDEST PUSH1 0x3 DUP1 SLOAD PUSH1 0xFF NOT AND SWAP1 SSTORE JUMP JUMPDEST PUSH0 SLOAD PUSH1 0x1 PUSH1 0x1 PUSH1 0xA0 SHL SUB AND CALLER EQ PUSH2 0x176 JUMPI PUSH1 0x40 MLOAD PUSH3 0x461BCD PUSH1 0xE5 SHL DUP2 MSTORE PUSH1 0x4 ADD PUSH2 0x138 SWAP1 PUSH2 0x1FE JUMP JUMPDEST PUSH0 DUP2 GT PUSH2 0x1C5 JUMPI PUSH1 0x40 MLOAD PUSH3 0x461BCD PUSH1 0xE5 SHL DUP2 MSTORE PUSH1 0x20 PUSH1 0x4 DUP3 ADD DUP2 SWAP1 MSTORE PUSH1 0x24 DUP3 ADD MSTORE PUSH32 0x496E74657276616C206D7573742062652067726561746572207468616E20302E PUSH1 0x44 DUP3 ADD MSTORE PUSH1 0x64 ADD PUSH2 0x138 JUMP JUMPDEST PUSH1 0x1 DUP2 SWAP1 SSTORE PUSH2 0x1D4 DUP2 TIMESTAMP PUSH2 0x244 JUMP JUMPDEST PUSH1 0x2 SSTORE POP PUSH1 0x3 DUP1 SLOAD PUSH1 0xFF NOT AND PUSH1 0x1 OR SWAP1 SSTORE JUMP JUMPDEST PUSH0 PUSH1 0x20 DUP3 DUP5 SUB SLT ISZERO PUSH2 0x1F7 JUMPI PUSH0 DUP1 REVERT JUMPDEST POP CALLDATALOAD SWAP2 SWAP1 POP JUMP JUMPDEST PUSH1 0x20 DUP1 DUP3 MSTORE PUSH1 0x26 SWAP1 DUP3 ADD MSTORE PUSH32 0x4F6E6C7920746865206F776E65722063616E2063616C6C20746869732066756E PUSH1 0x40 DUP3 ADD MSTORE PUSH6 0x31BA34B7B717 PUSH1 0xD1 SHL PUSH1 0x60 DUP3 ADD MSTORE PUSH1 0x80 ADD SWAP1 JUMP JUMPDEST DUP1 DUP3 ADD DUP1 DUP3 GT ISZERO PUSH2 0x263 JUMPI PUSH4 0x4E487B71 PUSH1 0xE0 SHL PUSH0 MSTORE PUSH1 0x11 PUSH1 0x4 MSTORE PUSH1 0x24 PUSH0 REVERT JUMPDEST SWAP3 SWAP2 POP POP JUMP INVALID LOG2 PUSH5 0x6970667358 0x22 SLT KECCAK256 0xC0 SWAP2 0x1E EXP SWAP2 0xEE 0xB3 STOP NOT PUSH7 0xED4F0F3C4A56BC RETURNDATACOPY DUP11 PUSH5 0x87C1E7E878 0xD4 NOT PUSH29 0x3C0AB61064736F6C634300081A00330000000000000000000000000000 "
		},
		"gasEstimates": {
			"creation": {
				"codeDepositCost": "134200",
				"executionCost": "24409",
				"totalCost": "158609"
			},
			"external": {
				"getNextExecutionTime()": "2280",
				"isActive()": "2332",
				"nextExecutionTime()": "2328",
				"originalInterval()": "2284",
				"owner()": "2357",
				"startExecution(uint256)": "70958",
				"stopExecution()": "26544"
			}
		},
		"methodIdentifiers": {
			"getNextExecutionTime()": "6bc78cb5",
			"isActive()": "22f3e2d4",
			"nextExecutionTime()": "5acb23f5",
			"originalInterval()": "0a5b7fe6",
			"owner()": "8da5cb5b",
			"startExecution(uint256)": "c78ec18e",
			"stopExecution()": "97a0259d"
		}
	},
	"abi": [
		{
			"inputs": [],
			"stateMutability": "nonpayable",
			"type": "constructor"
		},
		{
			"inputs": [],
			"name": "getNextExecutionTime",
			"outputs": [
				{
					"internalType": "uint256",
					"name": "",
					"type": "uint256"
				}
			],
			"stateMutability": "view",
			"type": "function"
		},
		{
			"inputs": [],
			"name": "isActive",
			"outputs": [
				{
					"internalType": "bool",
					"name": "",
					"type": "bool"
				}
			],
			"stateMutability": "view",
			"type": "function"
		},
		{
			"inputs": [],
			"name": "nextExecutionTime",
			"outputs": [
				{
					"internalType": "uint256",
					"name": "",
					"type": "uint256"
				}
			],
			"stateMutability": "view",
			"type": "function"
		},
		{
			"inputs": [],
			"name": "originalInterval",
			"outputs": [
				{
					"internalType": "uint256",
					"name": "",
					"type": "uint256"
				}
			],
			"stateMutability": "view",
			"type": "function"
		},
		{
			"inputs": [],
			"name": "owner",
			"outputs": [
				{
					"internalType": "address",
					"name": "",
					"type": "address"
				}
			],
			"stateMutability": "view",
			"type": "function"
		},
		{
			"inputs": [
				{
					"internalType": "uint256",
					"name": "_interval",
					"type": "uint256"
				}
			],
			"name": "startExecution",
			"outputs": [],
			"stateMutability": "nonpayable",
			"type": "function"
		},
		{
			"inputs": [],
			"name": "stopExecution",
			"outputs": [],
			"stateMutability": "nonpayable",
			"type": "function"
		}
	]
}