{
	"data": {
		"bytecode": {
			"linkReferences": {},
			"object": "60a06040523073ffffffffffffffffffffffffffffffffffffffff1660809073ffffffffffffffffffffffffffffffffffffffff16815250348015610042575f80fd5b5061005161005660201b60201c565b6101b6565b5f61006561015460201b60201c565b9050805f0160089054906101000a900460ff16156100af576040517ff92ee8a900000000000000000000000000000000000000000000000000000000815260040160405180910390fd5b67ffffffffffffffff8016815f015f9054906101000a900467ffffffffffffffff1667ffffffffffffffff16146101515767ffffffffffffffff815f015f6101000a81548167ffffffffffffffff021916908367ffffffffffffffff1602179055507fc7f505b2f371ae2175ee4913f4499e1f2633a7b5936321eed1cdaeb6115181d267ffffffffffffffff604051610148919061019d565b60405180910390a15b50565b5f7ff0c57e16840df040f15088dc2f81fe391c3923bec73e23a9662efc9c229c6a00905090565b5f67ffffffffffffffff82169050919050565b6101978161017b565b82525050565b5f6020820190506101b05f83018461018e565b92915050565b6080516145296101dc5f395f8181612c7401528181612cc90152612e8301526145295ff3fe60806040526004361061027c575f3560e01c806378fd078d1161014e578063b47ff951116100c0578063d777cc6d11610079578063d777cc6d1461090c578063d9b998b414610934578063e9c68e2c1461095c578063ed06106714610972578063f2fde38b1461099a578063ff3d65d9146109c25761027c565b8063b47ff951146107eb578063b9dac1eb14610815578063bccbc36c1461083d578063c0c53b8b1461087e578063c7fd5bf0146108a6578063ce356a24146108e25761027c565b80638da5cb5b116101125780638da5cb5b146106df578063947a36fb146107095780639c361e4e14610733578063a4f67b8b1461075d578063ad3cb1cc14610799578063ad8e5ec4146107c35761027c565b806378fd078d146106175780637f111e601461063f5780637f70c5e7146106675780637ffe4d931461068f57806385f45250146106b75761027c565b80634585e33b116101f25780635f17e616116101ab5780635f17e616146105365780636626b26d1461055e57806367976974146105745780636e04ff0d1461059c578063715018a6146105d95780637547c7a3146105ef5761027c565b80634585e33b1461044c5780634f1ef286146104745780635256dbbf1461049057806352d1902d146104b85780635462870d146104e2578063567e98f91461050c5761027c565b806330e3f8f81161024457806330e3f8f81461035057806333244c2c1461037a57806339518b5e146103a45780633a71a9e4146103ce5780633f3b3b27146103f857806344490ff4146104225761027c565b806301934a831461028057806311eac855146102aa578063188e07b9146102d45780632765df7a146102fe5780633070fbf814610326575b5f80fd5b34801561028b575f80fd5b506102946109fe565b6040516102a1919061376f565b60405180910390f35b3480156102b5575f80fd5b506102be610a04565b6040516102cb9190613802565b60405180910390f35b3480156102df575f80fd5b506102e8610a27565b6040516102f5919061376f565b60405180910390f35b348015610309575f80fd5b50610324600480360381019061031f9190613856565b610a2d565b005b348015610331575f80fd5b5061033a610b08565b60405161034791906138a1565b60405180910390f35b34801561035b575f80fd5b50610364610b2d565b60405161037191906138d4565b60405180910390f35b348015610385575f80fd5b5061038e610b40565b60405161039b919061376f565b60405180910390f35b3480156103af575f80fd5b506103b8610b46565b6040516103c5919061376f565b60405180910390f35b3480156103d9575f80fd5b506103e2610b4c565b6040516103ef919061376f565b60405180910390f35b348015610403575f80fd5b5061040c610b52565b604051610419919061376f565b60405180910390f35b34801561042d575f80fd5b50610436610b58565b604051610443919061376f565b60405180910390f35b348015610457575f80fd5b50610472600480360381019061046d919061394e565b610b5e565b005b61048e60048036038101906104899190613afb565b610ca6565b005b34801561049b575f80fd5b506104b660048036038101906104b19190613856565b610cc5565b005b3480156104c3575f80fd5b506104cc610e48565b6040516104d99190613b6d565b60405180910390f35b3480156104ed575f80fd5b506104f6610e79565b60405161050391906138a1565b60405180910390f35b348015610517575f80fd5b50610520610e9e565b60405161052d919061376f565b60405180910390f35b348015610541575f80fd5b5061055c60048036038101906105579190613b86565b610ea4565b005b348015610569575f80fd5b50610572610f8d565b005b34801561057f575f80fd5b5061059a60048036038101906105959190613856565b610ff3565b005b3480156105a7575f80fd5b506105c260048036038101906105bd919061394e565b611283565b6040516105d0929190613c24565b60405180910390f35b3480156105e4575f80fd5b506105ed6112b7565b005b3480156105fa575f80fd5b5061061560048036038101906106109190613856565b6112ca565b005b348015610622575f80fd5b5061063d60048036038101906106389190613856565b6116c4565b005b34801561064a575f80fd5b5061066560048036038101906106609190613856565b611847565b005b348015610672575f80fd5b5061068d60048036038101906106889190613856565b6118d8565b005b34801561069a575f80fd5b506106b560048036038101906106b09190613856565b611969565b005b3480156106c2575f80fd5b506106dd60048036038101906106d89190613b86565b611c23565b005b3480156106ea575f80fd5b506106f3611de9565b60405161070091906138a1565b60405180910390f35b348015610714575f80fd5b5061071d611e1e565b60405161072a919061376f565b60405180910390f35b34801561073e575f80fd5b50610747611e24565b604051610754919061376f565b60405180910390f35b348015610768575f80fd5b50610783600480360381019061077e9190613856565b611e2a565b60405161079091906138a1565b60405180910390f35b3480156107a4575f80fd5b506107ad611e5a565b6040516107ba9190613ca4565b60405180910390f35b3480156107ce575f80fd5b506107e960048036038101906107e49190613856565b611e93565b005b3480156107f6575f80fd5b506107ff611f24565b60405161080c919061376f565b60405180910390f35b348015610820575f80fd5b5061083b60048036038101906108369190613856565b611f2a565b005b348015610848575f80fd5b50610863600480360381019061085e9190613cc4565b611fbb565b60405161087596959493929190613cef565b60405180910390f35b348015610889575f80fd5b506108a4600480360381019061089f9190613d4e565b611fff565b005b3480156108b1575f80fd5b506108cc60048036038101906108c79190613cc4565b612298565b6040516108d991906138d4565b60405180910390f35b3480156108ed575f80fd5b506108f66122b5565b604051610903919061376f565b60405180910390f35b348015610917575f80fd5b50610932600480360381019061092d9190613cc4565b6122bb565b005b34801561093f575f80fd5b5061095a60048036038101906109559190613dc8565b6123d0565b005b348015610967575f80fd5b506109706125ec565b005b34801561097d575f80fd5b5061099860048036038101906109939190613b86565b612aa2565b005b3480156109a5575f80fd5b506109c060048036038101906109bb9190613cc4565b612b52565b005b3480156109cd575f80fd5b506109e860048036038101906109e39190613856565b612bd6565b6040516109f5919061376f565b60405180910390f35b60085481565b5f8054906101000a900473ffffffffffffffffffffffffffffffffffffffff1681565b60015481565b610a35612beb565b5f8111610a7957806040517fcdbc6335000000000000000000000000000000000000000000000000000000008152600401610a70919061376f565b60405180910390fd5b8060115f600e5481526020019081526020015f2081905550600e5f815480929190610aa390613e33565b91905055507fe1976e16ed8ce8e740235978fbe69b27d5eea683b2e017bb0bd2fabb33294b3f600e5f815480929190610adb90613e7a565b9190505582612710610aed9190613ea1565b83604051610afd93929190613ed4565b60405180910390a150565b600d5f9054906101000a900473ffffffffffffffffffffffffffffffffffffffff1681565b600960149054906101000a900460ff1681565b60045481565b600b5481565b60075481565b600c5481565b60055481565b600d5f9054906101000a900473ffffffffffffffffffffffffffffffffffffffff1673ffffffffffffffffffffffffffffffffffffffff163373ffffffffffffffffffffffffffffffffffffffff1614610bed576040517f08c379a0000000000000000000000000000000000000000000000000000000008152600401610be490613f79565b60405180910390fd5b600960149054906101000a900460ff16610c6257600b544203610c1e5742600c81905550610c196125ec565b610c5d565b600b546040517f54593e75000000000000000000000000000000000000000000000000000000008152600401610c54919061376f565b60405180910390fd5b610c72565b42600c81905550610c716125ec565b5b600960149054906101000a900460ff16610ca2576001600960146101000a81548160ff0219169083151502179055505b5050565b610cae612c72565b610cb782612d58565b610cc18282612d63565b5050565b610ccd612beb565b5f8111610d1157806040517f2ff47830000000000000000000000000000000000000000000000000000000008152600401610d08919061376f565b60405180910390fd5b8060015f828254610d229190613f97565b925050819055505f805f9054906101000a900473ffffffffffffffffffffffffffffffffffffffff1673ffffffffffffffffffffffffffffffffffffffff166323b872dd3330856040518463ffffffff1660e01b8152600401610d8793929190613fca565b6020604051808303815f875af1158015610da3573d5f803e3d5ffd5b505050506040513d601f19601f82011682018060405250810190610dc79190614013565b905080610e0b57806040517fd85d3cef000000000000000000000000000000000000000000000000000000008152600401610e0291906138d4565b60405180910390fd5b7fa9f166643ec132a11638e74e3c3a78d4ae278fcbf92998240e0e97676f54e404600154604051610e3c919061376f565b60405180910390a15050565b5f610e51612e81565b7f360894a13ba1a3210667c828492db98dca3e2076cc3735a920a3ca505d382bbc5f1b905090565b60095f9054906101000a900473ffffffffffffffffffffffffffffffffffffffff1681565b60035481565b610eac612beb565b5f8111610ef057806040517f71540007000000000000000000000000000000000000000000000000000000008152600401610ee7919061376f565b60405180910390fd5b42821015610f3557816040517f54593e75000000000000000000000000000000000000000000000000000000008152600401610f2c919061376f565b60405180910390fd5b80600a8190555081600b8190555042600c819055507f2b5090e035d3026f5448298c9adc68db8bbc1b26a8af5c81b2b2a9fc07ca4a0033600a54600c54604051610f819392919061403e565b60405180910390a15050565b610f95612beb565b5f600a819055505f600960146101000a81548160ff0219169083151502179055507f3b68dc4e210c46d3622293f2b941cdfde795bb6e17286bb289ba05a6a3b5541f33600a54604051610fe9929190614073565b60405180910390a1565b5f811161103757806040517f2ff4783000000000000000000000000000000000000000000000000000000000815260040161102e919061376f565b60405180910390fd5b60125f3373ffffffffffffffffffffffffffffffffffffffff1673ffffffffffffffffffffffffffffffffffffffff1681526020019081526020015f20600101548111156110ba576040517f08c379a00000000000000000000000000000000000000000000000000000000081526004016110b1906140e4565b60405180910390fd5b8060125f3373ffffffffffffffffffffffffffffffffffffffff1673ffffffffffffffffffffffffffffffffffffffff1681526020019081526020015f206001015f8282546111099190613ea1565b925050819055508060125f3373ffffffffffffffffffffffffffffffffffffffff1673ffffffffffffffffffffffffffffffffffffffff1681526020019081526020015f206002015f82825461115f9190613f97565b925050819055505f805f9054906101000a900473ffffffffffffffffffffffffffffffffffffffff1673ffffffffffffffffffffffffffffffffffffffff1663a9059cbb33846040518363ffffffff1660e01b81526004016111c2929190614073565b6020604051808303815f875af11580156111de573d5f803e3d5ffd5b505050506040513d601f19601f820116820180604052508101906112029190614013565b90508061124657806040517fd85d3cef00000000000000000000000000000000000000000000000000000000815260040161123d91906138d4565b60405180910390fd5b7f884edad9ce6fa2440d8a54cc123490eb96d2768479d49ff9c7366125a94243643383604051611277929190614073565b60405180910390a15050565b5f60605f600a54600c54426112989190613ea1565b1190508060405180602001604052805f81525092509250509250929050565b6112bf612beb565b6112c85f612f08565b565b5f811161130e57806040517f2ff47830000000000000000000000000000000000000000000000000000000008152600401611305919061376f565b60405180910390fd5b60125f3373ffffffffffffffffffffffffffffffffffffffff1673ffffffffffffffffffffffffffffffffffffffff1681526020019081526020015f205f015f9054906101000a900460ff16156113e75760125f3373ffffffffffffffffffffffffffffffffffffffff1673ffffffffffffffffffffffffffffffffffffffff1681526020019081526020015f205f015f9054906101000a900460ff166040517f6fa5c3c00000000000000000000000000000000000000000000000000000000081526004016113de91906138d4565b60405180910390fd5b8060125f3373ffffffffffffffffffffffffffffffffffffffff1673ffffffffffffffffffffffffffffffffffffffff1681526020019081526020015f206005015f8282546114369190613f97565b92505081905550600f5f3373ffffffffffffffffffffffffffffffffffffffff1673ffffffffffffffffffffffffffffffffffffffff1681526020019081526020015f205f9054906101000a900460ff16611549573360105f60085481526020019081526020015f205f6101000a81548173ffffffffffffffffffffffffffffffffffffffff021916908373ffffffffffffffffffffffffffffffffffffffff1602179055506001600f5f3373ffffffffffffffffffffffffffffffffffffffff1673ffffffffffffffffffffffffffffffffffffffff1681526020019081526020015f205f6101000a81548160ff02191690831515021790555060085f81548092919061154390613e33565b91905055505b8060035f82825461155a9190613f97565b925050819055505f805f9054906101000a900473ffffffffffffffffffffffffffffffffffffffff1673ffffffffffffffffffffffffffffffffffffffff166323b872dd3360095f9054906101000a900473ffffffffffffffffffffffffffffffffffffffff16856040518463ffffffff1660e01b81526004016115e093929190613fca565b6020604051808303815f875af11580156115fc573d5f803e3d5ffd5b505050506040513d601f19601f820116820180604052508101906116209190614013565b90508061166457806040517fd85d3cef00000000000000000000000000000000000000000000000000000000815260040161165b91906138d4565b60405180910390fd5b7f14ee34c24635186d212f515353dadae9c226529edef2d1fcf5504cb33b5c25ab3360095f9054906101000a900473ffffffffffffffffffffffffffffffffffffffff16846040516116b893929190613fca565b60405180910390a15050565b6116cc612beb565b5f811161171057806040517f2ff47830000000000000000000000000000000000000000000000000000000008152600401611707919061376f565b60405180910390fd5b8060025f8282546117219190613f97565b925050819055505f805f9054906101000a900473ffffffffffffffffffffffffffffffffffffffff1673ffffffffffffffffffffffffffffffffffffffff166323b872dd3330856040518463ffffffff1660e01b815260040161178693929190613fca565b6020604051808303815f875af11580156117a2573d5f803e3d5ffd5b505050506040513d601f19601f820116820180604052508101906117c69190614013565b90508061180a57806040517fd85d3cef00000000000000000000000000000000000000000000000000000000815260040161180191906138d4565b60405180910390fd5b7f73834e1d1ee73ba659470a3603b888903853d3a3c9fda34e71c093a0e35cab9460025460405161183b919061376f565b60405180910390a15050565b61184f612beb565b5f811161189357806040517fcdbc633500000000000000000000000000000000000000000000000000000000815260040161188a919061376f565b60405180910390fd5b806007819055507fb5671393c7c6980552e50a31e778921eb17d764c2e98fbf4d44fff524712def9336007546040516118cd929190614073565b60405180910390a150565b6118e0612beb565b5f811161192457806040517fcdbc633500000000000000000000000000000000000000000000000000000000815260040161191b919061376f565b60405180910390fd5b806004819055507fb5671393c7c6980552e50a31e778921eb17d764c2e98fbf4d44fff524712def93360045460405161195e929190614073565b60405180910390a150565b5f81116119ad57806040517f2ff478300000000000000000000000000000000000000000000000000000000081526004016119a4919061376f565b60405180910390fd5b60125f3373ffffffffffffffffffffffffffffffffffffffff1673ffffffffffffffffffffffffffffffffffffffff1681526020019081526020015f205f015f9054906101000a900460ff1615611a865760125f3373ffffffffffffffffffffffffffffffffffffffff1673ffffffffffffffffffffffffffffffffffffffff1681526020019081526020015f205f015f9054906101000a900460ff166040517f6fa5c3c0000000000000000000000000000000000000000000000000000000008152600401611a7d91906138d4565b60405180910390fd5b60125f3373ffffffffffffffffffffffffffffffffffffffff1673ffffffffffffffffffffffffffffffffffffffff1681526020019081526020015f2060010154811115611b09576040517f08c379a0000000000000000000000000000000000000000000000000000000008152600401611b00906140e4565b60405180910390fd5b8060125f3373ffffffffffffffffffffffffffffffffffffffff1673ffffffffffffffffffffffffffffffffffffffff1681526020019081526020015f206001015f828254611b589190613ea1565b925050819055508060125f3373ffffffffffffffffffffffffffffffffffffffff1673ffffffffffffffffffffffffffffffffffffffff1681526020019081526020015f206005015f828254611bae9190613f97565b925050819055508060025f828254611bc69190613f97565b925050819055508060035f828254611bde9190613f97565b925050819055507f14ee34c24635186d212f515353dadae9c226529edef2d1fcf5504cb33b5c25ab333083604051611c1893929190613fca565b60405180910390a150565b5f8211611c6757816040517f2ff47830000000000000000000000000000000000000000000000000000000008152600401611c5e919061376f565b60405180910390fd5b600e54811115611cae57806040517f222a50f3000000000000000000000000000000000000000000000000000000008152600401611ca5919061376f565b60405180910390fd5b611cc98260115f8481526020019081526020015f2054612fd9565b5f805f9054906101000a900473ffffffffffffffffffffffffffffffffffffffff1673ffffffffffffffffffffffffffffffffffffffff166323b872dd3330866040518463ffffffff1660e01b8152600401611d2793929190613fca565b6020604051808303815f875af1158015611d43573d5f803e3d5ffd5b505050506040513d601f19601f82011682018060405250810190611d679190614013565b905080611dab57806040517fd85d3cef000000000000000000000000000000000000000000000000000000008152600401611da291906138d4565b60405180910390fd5b7fa89b69c5958ec1ccf0df0de746a8708f5b6a6b429430129f16f46f44b319c9008383604051611ddc929190614102565b60405180910390a1505050565b5f80611df361303b565b9050805f015f9054906101000a900473ffffffffffffffffffffffffffffffffffffffff1691505090565b600a5481565b600e5481565b6010602052805f5260405f205f915054906101000a900473ffffffffffffffffffffffffffffffffffffffff1681565b6040518060400160405280600581526020017f352e302e3000000000000000000000000000000000000000000000000000000081525081565b611e9b612beb565b5f8111611edf57806040517fcdbc6335000000000000000000000000000000000000000000000000000000008152600401611ed6919061376f565b60405180910390fd5b806006819055507fb5671393c7c6980552e50a31e778921eb17d764c2e98fbf4d44fff524712def933600654604051611f19929190614073565b60405180910390a150565b60025481565b611f32612beb565b5f8111611f7657806040517fcdbc6335000000000000000000000000000000000000000000000000000000008152600401611f6d919061376f565b60405180910390fd5b806005819055507fb5671393c7c6980552e50a31e778921eb17d764c2e98fbf4d44fff524712def933600554604051611fb0929190614073565b60405180910390a150565b6012602052805f5260405f205f91509050805f015f9054906101000a900460ff16908060010154908060020154908060030154908060040154908060050154905086565b5f612008613062565b90505f815f0160089054906101000a900460ff161590505f825f015f9054906101000a900467ffffffffffffffff1690505f808267ffffffffffffffff161480156120505750825b90505f60018367ffffffffffffffff1614801561208357505f3073ffffffffffffffffffffffffffffffffffffffff163b145b905081158015612091575080155b156120c8576040517ff92ee8a900000000000000000000000000000000000000000000000000000000815260040160405180910390fd5b6001855f015f6101000a81548167ffffffffffffffff021916908367ffffffffffffffff1602179055508315612115576001855f0160086101000a81548160ff0219169083151502179055505b61211e88613089565b61212661309d565b865f806101000a81548173ffffffffffffffffffffffffffffffffffffffff021916908373ffffffffffffffffffffffffffffffffffffffff1602179055506113ec60115f8081526020019081526020015f2081905550611d4c60115f600181526020019081526020015f2081905550610dac60115f600281526020019081526020015f2081905550611e1460115f600381526020019081526020015f2081905550611388600481905550611d4c6005819055506105dc6006819055506103e86007819055506004600e819055508560095f6101000a81548173ffffffffffffffffffffffffffffffffffffffff021916908373ffffffffffffffffffffffffffffffffffffffff160217905550831561228e575f855f0160086101000a81548160ff0219169083151502179055507fc7f505b2f371ae2175ee4913f4499e1f2633a7b5936321eed1cdaeb6115181d260016040516122859190614175565b60405180910390a15b5050505050505050565b600f602052805f5260405f205f915054906101000a900460ff1681565b60065481565b6122c3612beb565b5f73ffffffffffffffffffffffffffffffffffffffff168173ffffffffffffffffffffffffffffffffffffffff160361233357806040517fe4cfa94d00000000000000000000000000000000000000000000000000000000815260040161232a91906138a1565b60405180910390fd5b80600d5f6101000a81548173ffffffffffffffffffffffffffffffffffffffff021916908373ffffffffffffffffffffffffffffffffffffffff1602179055507f75f91f3cecb8c46f20150f60f77a6e1f0de00776627692db82ef1960af84c33a33600d5f9054906101000a900473ffffffffffffffffffffffffffffffffffffffff166040516123c592919061418e565b60405180910390a150565b6123d8612beb565b5f73ffffffffffffffffffffffffffffffffffffffff168273ffffffffffffffffffffffffffffffffffffffff160361244857816040517fe4cfa94d00000000000000000000000000000000000000000000000000000000815260040161243f91906138a1565b60405180910390fd5b600115158115151415801561246157505f151581151514155b156124a357806040517f81ed1ae300000000000000000000000000000000000000000000000000000000815260040161249a91906138d4565b60405180910390fd5b600115158115150361250b57600160125f8473ffffffffffffffffffffffffffffffffffffffff1673ffffffffffffffffffffffffffffffffffffffff1681526020019081526020015f205f015f6101000a81548160ff021916908315150217905550612562565b5f60125f8473ffffffffffffffffffffffffffffffffffffffff1673ffffffffffffffffffffffffffffffffffffffff1681526020019081526020015f205f015f6101000a81548160ff0219169083151502179055505b7f7a1655bc3160d3413bf1d5235e55be12e01b7e8bc2436a9bff09c3b4fa2421f1338360125f8673ffffffffffffffffffffffffffffffffffffffff1673ffffffffffffffffffffffffffffffffffffffff1681526020019081526020015f205f015f9054906101000a900460ff166040516125e0939291906141b5565b60405180910390a15050565b6125f4611de9565b73ffffffffffffffffffffffffffffffffffffffff163373ffffffffffffffffffffffffffffffffffffffff161415801561267c5750600d5f9054906101000a900473ffffffffffffffffffffffffffffffffffffffff1673ffffffffffffffffffffffffffffffffffffffff163373ffffffffffffffffffffffffffffffffffffffff1614155b156126be57336040517ff6b79c580000000000000000000000000000000000000000000000000000000081526004016126b591906138a1565b60405180910390fd5b5f805f6126c96130a7565b9250925092505f6002541180156126e157505f600154115b612720576040517f08c379a000000000000000000000000000000000000000000000000000000000815260040161271790614234565b60405180910390fd5b5f805f90505b600854811015612a5c5760125f60105f8481526020019081526020015f205f9054906101000a900473ffffffffffffffffffffffffffffffffffffffff1673ffffffffffffffffffffffffffffffffffffffff1673ffffffffffffffffffffffffffffffffffffffff1681526020019081526020015f205f015f9054906101000a900460ff16612a4f575f60035461271060125f60105f8781526020019081526020015f205f9054906101000a900473ffffffffffffffffffffffffffffffffffffffff1673ffffffffffffffffffffffffffffffffffffffff1673ffffffffffffffffffffffffffffffffffffffff1681526020019081526020015f20600501546128329190614252565b61283c91906142c0565b90505f612849868361329f565b90508060025f82825461285c9190613ea1565b92505081905550808461286f9190613f97565b93508460015f8282546128829190613ea1565b925050819055508460125f60105f8781526020019081526020015f205f9054906101000a900473ffffffffffffffffffffffffffffffffffffffff1673ffffffffffffffffffffffffffffffffffffffff1673ffffffffffffffffffffffffffffffffffffffff1681526020019081526020015f20600301819055508060125f60105f8781526020019081526020015f205f9054906101000a900473ffffffffffffffffffffffffffffffffffffffff1673ffffffffffffffffffffffffffffffffffffffff1673ffffffffffffffffffffffffffffffffffffffff1681526020019081526020015f20600401819055505f85826129809190613f97565b90508060125f60105f8881526020019081526020015f205f9054906101000a900473ffffffffffffffffffffffffffffffffffffffff1673ffffffffffffffffffffffffffffffffffffffff1673ffffffffffffffffffffffffffffffffffffffff1681526020019081526020015f206001015f828254612a019190613f97565b9250508190555087851115612a4b576040517f08c379a0000000000000000000000000000000000000000000000000000000008152600401612a429061433a565b60405180910390fd5b5050505b8080600101915050612726565b507fee826440768329b0c72f81331212ee31fcdac1ea79a248d24821e40c34e5802033600254600154604051612a949392919061403e565b60405180910390a150505050565b612aaa612beb565b5f8111612aee57806040517fcdbc6335000000000000000000000000000000000000000000000000000000008152600401612ae5919061376f565b60405180910390fd5b8060115f8481526020019081526020015f20819055507fb5671393c7c6980552e50a31e778921eb17d764c2e98fbf4d44fff524712def93360115f8581526020019081526020015f2054604051612b46929190614073565b60405180910390a15050565b612b5a612beb565b5f73ffffffffffffffffffffffffffffffffffffffff168173ffffffffffffffffffffffffffffffffffffffff1603612bca575f6040517f1e4fbdf7000000000000000000000000000000000000000000000000000000008152600401612bc191906138a1565b60405180910390fd5b612bd381612f08565b50565b6011602052805f5260405f205f915090505481565b612bf361334a565b73ffffffffffffffffffffffffffffffffffffffff16612c11611de9565b73ffffffffffffffffffffffffffffffffffffffff1614612c7057612c3461334a565b6040517f118cdaa7000000000000000000000000000000000000000000000000000000008152600401612c6791906138a1565b60405180910390fd5b565b7f000000000000000000000000000000000000000000000000000000000000000073ffffffffffffffffffffffffffffffffffffffff163073ffffffffffffffffffffffffffffffffffffffff161480612d1f57507f000000000000000000000000000000000000000000000000000000000000000073ffffffffffffffffffffffffffffffffffffffff16612d06613351565b73ffffffffffffffffffffffffffffffffffffffff1614155b15612d56576040517fe07c8dba00000000000000000000000000000000000000000000000000000000815260040160405180910390fd5b565b612d60612beb565b50565b8173ffffffffffffffffffffffffffffffffffffffff166352d1902d6040518163ffffffff1660e01b8152600401602060405180830381865afa925050508015612dcb57506040513d601f19601f82011682018060405250810190612dc89190614382565b60015b612e0c57816040517f4c9c8ce3000000000000000000000000000000000000000000000000000000008152600401612e0391906138a1565b60405180910390fd5b7f360894a13ba1a3210667c828492db98dca3e2076cc3735a920a3ca505d382bbc5f1b8114612e7257806040517faa1d49a4000000000000000000000000000000000000000000000000000000008152600401612e699190613b6d565b60405180910390fd5b612e7c83836133a4565b505050565b7f000000000000000000000000000000000000000000000000000000000000000073ffffffffffffffffffffffffffffffffffffffff163073ffffffffffffffffffffffffffffffffffffffff1614612f06576040517fe07c8dba00000000000000000000000000000000000000000000000000000000815260040160405180910390fd5b565b5f612f1161303b565b90505f815f015f9054906101000a900473ffffffffffffffffffffffffffffffffffffffff16905082825f015f6101000a81548173ffffffffffffffffffffffffffffffffffffffff021916908373ffffffffffffffffffffffffffffffffffffffff1602179055508273ffffffffffffffffffffffffffffffffffffffff168173ffffffffffffffffffffffffffffffffffffffff167f8be0079c531659141344cd1fd0a4f28419497f9722a3daafe3b4186f6b6457e060405160405180910390a3505050565b5f81612710612fe89190613ea1565b90505f612ff5848361329f565b90505f613002858561329f565b90508160025f8282546130159190613f97565b925050819055508060015f82825461302d9190613f97565b925050819055505050505050565b5f7f9016d09d72d40fdae2fd8ceac6b6234c7706214fd39c1cd1e609a0528c199300905090565b5f7ff0c57e16840df040f15088dc2f81fe391c3923bec73e23a9662efc9c229c6a00905090565b613091613416565b61309a81613456565b50565b6130a5613416565b565b5f805f806130b960025461138861329f565b90505f6130c88260055461329f565b90505f6130d78360065461329f565b90505f6130e68460075461329f565b90505f6130f760015460045461329f565b90505f6008541161313d576040517f08c379a0000000000000000000000000000000000000000000000000000000008152600401613134906143f7565b60405180910390fd5b5f6008548261314c91906142c0565b9050828461315a9190613f97565b60025f82825461316a9190613ea1565b925050819055508360015f8282546131829190613f97565b925050819055505f805f9054906101000a900473ffffffffffffffffffffffffffffffffffffffff1673ffffffffffffffffffffffffffffffffffffffff1663a9059cbb60095f9054906101000a900473ffffffffffffffffffffffffffffffffffffffff16866040518363ffffffff1660e01b8152600401613206929190614073565b6020604051808303815f875af1158015613222573d5f803e3d5ffd5b505050506040513d601f19601f820116820180604052508101906132469190614013565b90508061328a57806040517fd85d3cef00000000000000000000000000000000000000000000000000000000815260040161328191906138d4565b60405180910390fd5b86868399509950995050505050505050909192565b5f8083036132e2576040517f08c379a00000000000000000000000000000000000000000000000000000000081526004016132d990614485565b60405180910390fd5b5f8203613324576040517f08c379a000000000000000000000000000000000000000000000000000000000815260040161331b90614485565b60405180910390fd5b5f61271083856133349190614252565b61333e91906142c0565b90508091505092915050565b5f33905090565b5f61337d7f360894a13ba1a3210667c828492db98dca3e2076cc3735a920a3ca505d382bbc5f1b6134da565b5f015f9054906101000a900473ffffffffffffffffffffffffffffffffffffffff16905090565b6133ad826134e3565b8173ffffffffffffffffffffffffffffffffffffffff167fbc7cd75a20ee27fd9adebab32041f755214dbc6bffa90cc0225b39da2e5c2d3b60405160405180910390a25f815111156134095761340382826135ac565b50613412565b61341161362c565b5b5050565b61341e613668565b613454576040517fd7e6bcf800000000000000000000000000000000000000000000000000000000815260040160405180910390fd5b565b61345e613416565b5f73ffffffffffffffffffffffffffffffffffffffff168173ffffffffffffffffffffffffffffffffffffffff16036134ce575f6040517f1e4fbdf70000000000000000000000000000000000000000000000000000000081526004016134c591906138a1565b60405180910390fd5b6134d781612f08565b50565b5f819050919050565b5f8173ffffffffffffffffffffffffffffffffffffffff163b0361353e57806040517f4c9c8ce300000000000000000000000000000000000000000000000000000000815260040161353591906138a1565b60405180910390fd5b8061356a7f360894a13ba1a3210667c828492db98dca3e2076cc3735a920a3ca505d382bbc5f1b6134da565b5f015f6101000a81548173ffffffffffffffffffffffffffffffffffffffff021916908373ffffffffffffffffffffffffffffffffffffffff16021790555050565b60605f808473ffffffffffffffffffffffffffffffffffffffff16846040516135d591906144dd565b5f60405180830381855af49150503d805f811461360d576040519150601f19603f3d011682016040523d82523d5f602084013e613612565b606091505b5091509150613622858383613686565b9250505092915050565b5f341115613666576040517fb398979f00000000000000000000000000000000000000000000000000000000815260040160405180910390fd5b565b5f613671613062565b5f0160089054906101000a900460ff16905090565b60608261369b5761369682613713565b61370b565b5f82511480156136c157505f8473ffffffffffffffffffffffffffffffffffffffff163b145b1561370357836040517f9996b3150000000000000000000000000000000000000000000000000000000081526004016136fa91906138a1565b60405180910390fd5b81905061370c565b5b9392505050565b5f815111156137255780518082602001fd5b6040517f1425ea4200000000000000000000000000000000000000000000000000000000815260040160405180910390fd5b5f819050919050565b61376981613757565b82525050565b5f6020820190506137825f830184613760565b92915050565b5f73ffffffffffffffffffffffffffffffffffffffff82169050919050565b5f819050919050565b5f6137ca6137c56137c084613788565b6137a7565b613788565b9050919050565b5f6137db826137b0565b9050919050565b5f6137ec826137d1565b9050919050565b6137fc816137e2565b82525050565b5f6020820190506138155f8301846137f3565b92915050565b5f604051905090565b5f80fd5b5f80fd5b61383581613757565b811461383f575f80fd5b50565b5f813590506138508161382c565b92915050565b5f6020828403121561386b5761386a613824565b5b5f61387884828501613842565b91505092915050565b5f61388b82613788565b9050919050565b61389b81613881565b82525050565b5f6020820190506138b45f830184613892565b92915050565b5f8115159050919050565b6138ce816138ba565b82525050565b5f6020820190506138e75f8301846138c5565b92915050565b5f80fd5b5f80fd5b5f80fd5b5f8083601f84011261390e5761390d6138ed565b5b8235905067ffffffffffffffff81111561392b5761392a6138f1565b5b602083019150836001820283011115613947576139466138f5565b5b9250929050565b5f806020838503121561396457613963613824565b5b5f83013567ffffffffffffffff81111561398157613980613828565b5b61398d858286016138f9565b92509250509250929050565b6139a281613881565b81146139ac575f80fd5b50565b5f813590506139bd81613999565b92915050565b5f80fd5b5f601f19601f8301169050919050565b7f4e487b71000000000000000000000000000000000000000000000000000000005f52604160045260245ffd5b613a0d826139c7565b810181811067ffffffffffffffff82111715613a2c57613a2b6139d7565b5b80604052505050565b5f613a3e61381b565b9050613a4a8282613a04565b919050565b5f67ffffffffffffffff821115613a6957613a686139d7565b5b613a72826139c7565b9050602081019050919050565b828183375f83830152505050565b5f613a9f613a9a84613a4f565b613a35565b905082815260208101848484011115613abb57613aba6139c3565b5b613ac6848285613a7f565b509392505050565b5f82601f830112613ae257613ae16138ed565b5b8135613af2848260208601613a8d565b91505092915050565b5f8060408385031215613b1157613b10613824565b5b5f613b1e858286016139af565b925050602083013567ffffffffffffffff811115613b3f57613b3e613828565b5b613b4b85828601613ace565b9150509250929050565b5f819050919050565b613b6781613b55565b82525050565b5f602082019050613b805f830184613b5e565b92915050565b5f8060408385031215613b9c57613b9b613824565b5b5f613ba985828601613842565b9250506020613bba85828601613842565b9150509250929050565b5f81519050919050565b5f82825260208201905092915050565b8281835e5f83830152505050565b5f613bf682613bc4565b613c008185613bce565b9350613c10818560208601613bde565b613c19816139c7565b840191505092915050565b5f604082019050613c375f8301856138c5565b8181036020830152613c498184613bec565b90509392505050565b5f81519050919050565b5f82825260208201905092915050565b5f613c7682613c52565b613c808185613c5c565b9350613c90818560208601613bde565b613c99816139c7565b840191505092915050565b5f6020820190508181035f830152613cbc8184613c6c565b905092915050565b5f60208284031215613cd957613cd8613824565b5b5f613ce6848285016139af565b91505092915050565b5f60c082019050613d025f8301896138c5565b613d0f6020830188613760565b613d1c6040830187613760565b613d296060830186613760565b613d366080830185613760565b613d4360a0830184613760565b979650505050505050565b5f805f60608486031215613d6557613d64613824565b5b5f613d72868287016139af565b9350506020613d83868287016139af565b9250506040613d94868287016139af565b9150509250925092565b613da7816138ba565b8114613db1575f80fd5b50565b5f81359050613dc281613d9e565b92915050565b5f8060408385031215613dde57613ddd613824565b5b5f613deb858286016139af565b9250506020613dfc85828601613db4565b9150509250929050565b7f4e487b71000000000000000000000000000000000000000000000000000000005f52601160045260245ffd5b5f613e3d82613757565b91507fffffffffffffffffffffffffffffffffffffffffffffffffffffffffffffffff8203613e6f57613e6e613e06565b5b600182019050919050565b5f613e8482613757565b91505f8203613e9657613e95613e06565b5b600182039050919050565b5f613eab82613757565b9150613eb683613757565b9250828203905081811115613ece57613ecd613e06565b5b92915050565b5f606082019050613ee75f830186613760565b613ef46020830185613760565b613f016040830184613760565b949350505050565b7f54686973206164647265737320646f6573206e6f742068617665207065726d695f8201527f7373696f6e20746f2063616c6c20706572666f726d55706b6565700000000000602082015250565b5f613f63603b83613c5c565b9150613f6e82613f09565b604082019050919050565b5f6020820190508181035f830152613f9081613f57565b9050919050565b5f613fa182613757565b9150613fac83613757565b9250828201905080821115613fc457613fc3613e06565b5b92915050565b5f606082019050613fdd5f830186613892565b613fea6020830185613892565b613ff76040830184613760565b949350505050565b5f8151905061400d81613d9e565b92915050565b5f6020828403121561402857614027613824565b5b5f61403584828501613fff565b91505092915050565b5f6060820190506140515f830186613892565b61405e6020830185613760565b61406b6040830184613760565b949350505050565b5f6040820190506140865f830185613892565b6140936020830184613760565b9392505050565b7f696e76616c6964205f616d6f756e7421000000000000000000000000000000005f82015250565b5f6140ce601083613c5c565b91506140d98261409a565b602082019050919050565b5f6020820190508181035f8301526140fb816140c2565b9050919050565b5f6040820190506141155f830185613760565b6141226020830184613760565b9392505050565b5f819050919050565b5f67ffffffffffffffff82169050919050565b5f61415f61415a61415584614129565b6137a7565b614132565b9050919050565b61416f81614145565b82525050565b5f6020820190506141885f830184614166565b92915050565b5f6040820190506141a15f830185613892565b6141ae6020830184613892565b9392505050565b5f6060820190506141c85f830186613892565b6141d56020830185613892565b6141e260408301846138c5565b949350505050565b7f6e6f7420656e6f75676820616d6f756e740000000000000000000000000000005f82015250565b5f61421e601183613c5c565b9150614229826141ea565b602082019050919050565b5f6020820190508181035f83015261424b81614212565b9050919050565b5f61425c82613757565b915061426783613757565b925082820261427581613757565b9150828204841483151761428c5761428b613e06565b5b5092915050565b7f4e487b71000000000000000000000000000000000000000000000000000000005f52601260045260245ffd5b5f6142ca82613757565b91506142d583613757565b9250826142e5576142e4614293565b5b828204905092915050565b7f416d6f756e742069732067726561746572207468656e203530250000000000005f82015250565b5f614324601a83613c5c565b915061432f826142f0565b602082019050919050565b5f6020820190508181035f83015261435181614318565b9050919050565b61436181613b55565b811461436b575f80fd5b50565b5f8151905061437c81614358565b92915050565b5f6020828403121561439757614396613824565b5b5f6143a48482850161436e565b91505092915050565b7f6e6f2075736572732100000000000000000000000000000000000000000000005f82015250565b5f6143e1600983613c5c565b91506143ec826143ad565b602082019050919050565b5f6020820190508181035f83015261440e816143d5565b9050919050565b7f5f746f74616c5374616b65416d6f756e742063616e206e6f74206265207a65725f8201527f6f00000000000000000000000000000000000000000000000000000000000000602082015250565b5f61446f602183613c5c565b915061447a82614415565b604082019050919050565b5f6020820190508181035f83015261449c81614463565b9050919050565b5f81905092915050565b5f6144b782613bc4565b6144c181856144a3565b93506144d1818560208601613bde565b80840191505092915050565b5f6144e882846144ad565b91508190509291505056fea2646970667358221220fd671b057c0a483d3b74f8ca2b6f73f999203456e2079ad6b4feb92cab612c2d64736f6c634300081a0033",
			"opcodes": "PUSH1 0xA0 PUSH1 0x40 MSTORE ADDRESS PUSH20 0xFFFFFFFFFFFFFFFFFFFFFFFFFFFFFFFFFFFFFFFF AND PUSH1 0x80 SWAP1 PUSH20 0xFFFFFFFFFFFFFFFFFFFFFFFFFFFFFFFFFFFFFFFF AND DUP2 MSTORE POP CALLVALUE DUP1 ISZERO PUSH2 0x42 JUMPI PUSH0 DUP1 REVERT JUMPDEST POP PUSH2 0x51 PUSH2 0x56 PUSH1 0x20 SHL PUSH1 0x20 SHR JUMP JUMPDEST PUSH2 0x1B6 JUMP JUMPDEST PUSH0 PUSH2 0x65 PUSH2 0x154 PUSH1 0x20 SHL PUSH1 0x20 SHR JUMP JUMPDEST SWAP1 POP DUP1 PUSH0 ADD PUSH1 0x8 SWAP1 SLOAD SWAP1 PUSH2 0x100 EXP SWAP1 DIV PUSH1 0xFF AND ISZERO PUSH2 0xAF JUMPI PUSH1 0x40 MLOAD PUSH32 0xF92EE8A900000000000000000000000000000000000000000000000000000000 DUP2 MSTORE PUSH1 0x4 ADD PUSH1 0x40 MLOAD DUP1 SWAP2 SUB SWAP1 REVERT JUMPDEST PUSH8 0xFFFFFFFFFFFFFFFF DUP1 AND DUP2 PUSH0 ADD PUSH0 SWAP1 SLOAD SWAP1 PUSH2 0x100 EXP SWAP1 DIV PUSH8 0xFFFFFFFFFFFFFFFF AND PUSH8 0xFFFFFFFFFFFFFFFF AND EQ PUSH2 0x151 JUMPI PUSH8 0xFFFFFFFFFFFFFFFF DUP2 PUSH0 ADD PUSH0 PUSH2 0x100 EXP DUP2 SLOAD DUP2 PUSH8 0xFFFFFFFFFFFFFFFF MUL NOT AND SWAP1 DUP4 PUSH8 0xFFFFFFFFFFFFFFFF AND MUL OR SWAP1 SSTORE POP PUSH32 0xC7F505B2F371AE2175EE4913F4499E1F2633A7B5936321EED1CDAEB6115181D2 PUSH8 0xFFFFFFFFFFFFFFFF PUSH1 0x40 MLOAD PUSH2 0x148 SWAP2 SWAP1 PUSH2 0x19D JUMP JUMPDEST PUSH1 0x40 MLOAD DUP1 SWAP2 SUB SWAP1 LOG1 JUMPDEST POP JUMP JUMPDEST PUSH0 PUSH32 0xF0C57E16840DF040F15088DC2F81FE391C3923BEC73E23A9662EFC9C229C6A00 SWAP1 POP SWAP1 JUMP JUMPDEST PUSH0 PUSH8 0xFFFFFFFFFFFFFFFF DUP3 AND SWAP1 POP SWAP2 SWAP1 POP JUMP JUMPDEST PUSH2 0x197 DUP2 PUSH2 0x17B JUMP JUMPDEST DUP3 MSTORE POP POP JUMP JUMPDEST PUSH0 PUSH1 0x20 DUP3 ADD SWAP1 POP PUSH2 0x1B0 PUSH0 DUP4 ADD DUP5 PUSH2 0x18E JUMP JUMPDEST SWAP3 SWAP2 POP POP JUMP JUMPDEST PUSH1 0x80 MLOAD PUSH2 0x4529 PUSH2 0x1DC PUSH0 CODECOPY PUSH0 DUP2 DUP2 PUSH2 0x2C74 ADD MSTORE DUP2 DUP2 PUSH2 0x2CC9 ADD MSTORE PUSH2 0x2E83 ADD MSTORE PUSH2 0x4529 PUSH0 RETURN INVALID PUSH1 0x80 PUSH1 0x40 MSTORE PUSH1 0x4 CALLDATASIZE LT PUSH2 0x27C JUMPI PUSH0 CALLDATALOAD PUSH1 0xE0 SHR DUP1 PUSH4 0x78FD078D GT PUSH2 0x14E JUMPI DUP1 PUSH4 0xB47FF951 GT PUSH2 0xC0 JUMPI DUP1 PUSH4 0xD777CC6D GT PUSH2 0x79 JUMPI DUP1 PUSH4 0xD777CC6D EQ PUSH2 0x90C JUMPI DUP1 PUSH4 0xD9B998B4 EQ PUSH2 0x934 JUMPI DUP1 PUSH4 0xE9C68E2C EQ PUSH2 0x95C JUMPI DUP1 PUSH4 0xED061067 EQ PUSH2 0x972 JUMPI DUP1 PUSH4 0xF2FDE38B EQ PUSH2 0x99A JUMPI DUP1 PUSH4 0xFF3D65D9 EQ PUSH2 0x9C2 JUMPI PUSH2 0x27C JUMP JUMPDEST DUP1 PUSH4 0xB47FF951 EQ PUSH2 0x7EB JUMPI DUP1 PUSH4 0xB9DAC1EB EQ PUSH2 0x815 JUMPI DUP1 PUSH4 0xBCCBC36C EQ PUSH2 0x83D JUMPI DUP1 PUSH4 0xC0C53B8B EQ PUSH2 0x87E JUMPI DUP1 PUSH4 0xC7FD5BF0 EQ PUSH2 0x8A6 JUMPI DUP1 PUSH4 0xCE356A24 EQ PUSH2 0x8E2 JUMPI PUSH2 0x27C JUMP JUMPDEST DUP1 PUSH4 0x8DA5CB5B GT PUSH2 0x112 JUMPI DUP1 PUSH4 0x8DA5CB5B EQ PUSH2 0x6DF JUMPI DUP1 PUSH4 0x947A36FB EQ PUSH2 0x709 JUMPI DUP1 PUSH4 0x9C361E4E EQ PUSH2 0x733 JUMPI DUP1 PUSH4 0xA4F67B8B EQ PUSH2 0x75D JUMPI DUP1 PUSH4 0xAD3CB1CC EQ PUSH2 0x799 JUMPI DUP1 PUSH4 0xAD8E5EC4 EQ PUSH2 0x7C3 JUMPI PUSH2 0x27C JUMP JUMPDEST DUP1 PUSH4 0x78FD078D EQ PUSH2 0x617 JUMPI DUP1 PUSH4 0x7F111E60 EQ PUSH2 0x63F JUMPI DUP1 PUSH4 0x7F70C5E7 EQ PUSH2 0x667 JUMPI DUP1 PUSH4 0x7FFE4D93 EQ PUSH2 0x68F JUMPI DUP1 PUSH4 0x85F45250 EQ PUSH2 0x6B7 JUMPI PUSH2 0x27C JUMP JUMPDEST DUP1 PUSH4 0x4585E33B GT PUSH2 0x1F2 JUMPI DUP1 PUSH4 0x5F17E616 GT PUSH2 0x1AB JUMPI DUP1 PUSH4 0x5F17E616 EQ PUSH2 0x536 JUMPI DUP1 PUSH4 0x6626B26D EQ PUSH2 0x55E JUMPI DUP1 PUSH4 0x67976974 EQ PUSH2 0x574 JUMPI DUP1 PUSH4 0x6E04FF0D EQ PUSH2 0x59C JUMPI DUP1 PUSH4 0x715018A6 EQ PUSH2 0x5D9 JUMPI DUP1 PUSH4 0x7547C7A3 EQ PUSH2 0x5EF JUMPI PUSH2 0x27C JUMP JUMPDEST DUP1 PUSH4 0x4585E33B EQ PUSH2 0x44C JUMPI DUP1 PUSH4 0x4F1EF286 EQ PUSH2 0x474 JUMPI DUP1 PUSH4 0x5256DBBF EQ PUSH2 0x490 JUMPI DUP1 PUSH4 0x52D1902D EQ PUSH2 0x4B8 JUMPI DUP1 PUSH4 0x5462870D EQ PUSH2 0x4E2 JUMPI DUP1 PUSH4 0x567E98F9 EQ PUSH2 0x50C JUMPI PUSH2 0x27C JUMP JUMPDEST DUP1 PUSH4 0x30E3F8F8 GT PUSH2 0x244 JUMPI DUP1 PUSH4 0x30E3F8F8 EQ PUSH2 0x350 JUMPI DUP1 PUSH4 0x33244C2C EQ PUSH2 0x37A JUMPI DUP1 PUSH4 0x39518B5E EQ PUSH2 0x3A4 JUMPI DUP1 PUSH4 0x3A71A9E4 EQ PUSH2 0x3CE JUMPI DUP1 PUSH4 0x3F3B3B27 EQ PUSH2 0x3F8 JUMPI DUP1 PUSH4 0x44490FF4 EQ PUSH2 0x422 JUMPI PUSH2 0x27C JUMP JUMPDEST DUP1 PUSH4 0x1934A83 EQ PUSH2 0x280 JUMPI DUP1 PUSH4 0x11EAC855 EQ PUSH2 0x2AA JUMPI DUP1 PUSH4 0x188E07B9 EQ PUSH2 0x2D4 JUMPI DUP1 PUSH4 0x2765DF7A EQ PUSH2 0x2FE JUMPI DUP1 PUSH4 0x3070FBF8 EQ PUSH2 0x326 JUMPI JUMPDEST PUSH0 DUP1 REVERT JUMPDEST CALLVALUE DUP1 ISZERO PUSH2 0x28B JUMPI PUSH0 DUP1 REVERT JUMPDEST POP PUSH2 0x294 PUSH2 0x9FE JUMP JUMPDEST PUSH1 0x40 MLOAD PUSH2 0x2A1 SWAP2 SWAP1 PUSH2 0x376F JUMP JUMPDEST PUSH1 0x40 MLOAD DUP1 SWAP2 SUB SWAP1 RETURN JUMPDEST CALLVALUE DUP1 ISZERO PUSH2 0x2B5 JUMPI PUSH0 DUP1 REVERT JUMPDEST POP PUSH2 0x2BE PUSH2 0xA04 JUMP JUMPDEST PUSH1 0x40 MLOAD PUSH2 0x2CB SWAP2 SWAP1 PUSH2 0x3802 JUMP JUMPDEST PUSH1 0x40 MLOAD DUP1 SWAP2 SUB SWAP1 RETURN JUMPDEST CALLVALUE DUP1 ISZERO PUSH2 0x2DF JUMPI PUSH0 DUP1 REVERT JUMPDEST POP PUSH2 0x2E8 PUSH2 0xA27 JUMP JUMPDEST PUSH1 0x40 MLOAD PUSH2 0x2F5 SWAP2 SWAP1 PUSH2 0x376F JUMP JUMPDEST PUSH1 0x40 MLOAD DUP1 SWAP2 SUB SWAP1 RETURN JUMPDEST CALLVALUE DUP1 ISZERO PUSH2 0x309 JUMPI PUSH0 DUP1 REVERT JUMPDEST POP PUSH2 0x324 PUSH1 0x4 DUP1 CALLDATASIZE SUB DUP2 ADD SWAP1 PUSH2 0x31F SWAP2 SWAP1 PUSH2 0x3856 JUMP JUMPDEST PUSH2 0xA2D JUMP JUMPDEST STOP JUMPDEST CALLVALUE DUP1 ISZERO PUSH2 0x331 JUMPI PUSH0 DUP1 REVERT JUMPDEST POP PUSH2 0x33A PUSH2 0xB08 JUMP JUMPDEST PUSH1 0x40 MLOAD PUSH2 0x347 SWAP2 SWAP1 PUSH2 0x38A1 JUMP JUMPDEST PUSH1 0x40 MLOAD DUP1 SWAP2 SUB SWAP1 RETURN JUMPDEST CALLVALUE DUP1 ISZERO PUSH2 0x35B JUMPI PUSH0 DUP1 REVERT JUMPDEST POP PUSH2 0x364 PUSH2 0xB2D JUMP JUMPDEST PUSH1 0x40 MLOAD PUSH2 0x371 SWAP2 SWAP1 PUSH2 0x38D4 JUMP JUMPDEST PUSH1 0x40 MLOAD DUP1 SWAP2 SUB SWAP1 RETURN JUMPDEST CALLVALUE DUP1 ISZERO PUSH2 0x385 JUMPI PUSH0 DUP1 REVERT JUMPDEST POP PUSH2 0x38E PUSH2 0xB40 JUMP JUMPDEST PUSH1 0x40 MLOAD PUSH2 0x39B SWAP2 SWAP1 PUSH2 0x376F JUMP JUMPDEST PUSH1 0x40 MLOAD DUP1 SWAP2 SUB SWAP1 RETURN JUMPDEST CALLVALUE DUP1 ISZERO PUSH2 0x3AF JUMPI PUSH0 DUP1 REVERT JUMPDEST POP PUSH2 0x3B8 PUSH2 0xB46 JUMP JUMPDEST PUSH1 0x40 MLOAD PUSH2 0x3C5 SWAP2 SWAP1 PUSH2 0x376F JUMP JUMPDEST PUSH1 0x40 MLOAD DUP1 SWAP2 SUB SWAP1 RETURN JUMPDEST CALLVALUE DUP1 ISZERO PUSH2 0x3D9 JUMPI PUSH0 DUP1 REVERT JUMPDEST POP PUSH2 0x3E2 PUSH2 0xB4C JUMP JUMPDEST PUSH1 0x40 MLOAD PUSH2 0x3EF SWAP2 SWAP1 PUSH2 0x376F JUMP JUMPDEST PUSH1 0x40 MLOAD DUP1 SWAP2 SUB SWAP1 RETURN JUMPDEST CALLVALUE DUP1 ISZERO PUSH2 0x403 JUMPI PUSH0 DUP1 REVERT JUMPDEST POP PUSH2 0x40C PUSH2 0xB52 JUMP JUMPDEST PUSH1 0x40 MLOAD PUSH2 0x419 SWAP2 SWAP1 PUSH2 0x376F JUMP JUMPDEST PUSH1 0x40 MLOAD DUP1 SWAP2 SUB SWAP1 RETURN JUMPDEST CALLVALUE DUP1 ISZERO PUSH2 0x42D JUMPI PUSH0 DUP1 REVERT JUMPDEST POP PUSH2 0x436 PUSH2 0xB58 JUMP JUMPDEST PUSH1 0x40 MLOAD PUSH2 0x443 SWAP2 SWAP1 PUSH2 0x376F JUMP JUMPDEST PUSH1 0x40 MLOAD DUP1 SWAP2 SUB SWAP1 RETURN JUMPDEST CALLVALUE DUP1 ISZERO PUSH2 0x457 JUMPI PUSH0 DUP1 REVERT JUMPDEST POP PUSH2 0x472 PUSH1 0x4 DUP1 CALLDATASIZE SUB DUP2 ADD SWAP1 PUSH2 0x46D SWAP2 SWAP1 PUSH2 0x394E JUMP JUMPDEST PUSH2 0xB5E JUMP JUMPDEST STOP JUMPDEST PUSH2 0x48E PUSH1 0x4 DUP1 CALLDATASIZE SUB DUP2 ADD SWAP1 PUSH2 0x489 SWAP2 SWAP1 PUSH2 0x3AFB JUMP JUMPDEST PUSH2 0xCA6 JUMP JUMPDEST STOP JUMPDEST CALLVALUE DUP1 ISZERO PUSH2 0x49B JUMPI PUSH0 DUP1 REVERT JUMPDEST POP PUSH2 0x4B6 PUSH1 0x4 DUP1 CALLDATASIZE SUB DUP2 ADD SWAP1 PUSH2 0x4B1 SWAP2 SWAP1 PUSH2 0x3856 JUMP JUMPDEST PUSH2 0xCC5 JUMP JUMPDEST STOP JUMPDEST CALLVALUE DUP1 ISZERO PUSH2 0x4C3 JUMPI PUSH0 DUP1 REVERT JUMPDEST POP PUSH2 0x4CC PUSH2 0xE48 JUMP JUMPDEST PUSH1 0x40 MLOAD PUSH2 0x4D9 SWAP2 SWAP1 PUSH2 0x3B6D JUMP JUMPDEST PUSH1 0x40 MLOAD DUP1 SWAP2 SUB SWAP1 RETURN JUMPDEST CALLVALUE DUP1 ISZERO PUSH2 0x4ED JUMPI PUSH0 DUP1 REVERT JUMPDEST POP PUSH2 0x4F6 PUSH2 0xE79 JUMP JUMPDEST PUSH1 0x40 MLOAD PUSH2 0x503 SWAP2 SWAP1 PUSH2 0x38A1 JUMP JUMPDEST PUSH1 0x40 MLOAD DUP1 SWAP2 SUB SWAP1 RETURN JUMPDEST CALLVALUE DUP1 ISZERO PUSH2 0x517 JUMPI PUSH0 DUP1 REVERT JUMPDEST POP PUSH2 0x520 PUSH2 0xE9E JUMP JUMPDEST PUSH1 0x40 MLOAD PUSH2 0x52D SWAP2 SWAP1 PUSH2 0x376F JUMP JUMPDEST PUSH1 0x40 MLOAD DUP1 SWAP2 SUB SWAP1 RETURN JUMPDEST CALLVALUE DUP1 ISZERO PUSH2 0x541 JUMPI PUSH0 DUP1 REVERT JUMPDEST POP PUSH2 0x55C PUSH1 0x4 DUP1 CALLDATASIZE SUB DUP2 ADD SWAP1 PUSH2 0x557 SWAP2 SWAP1 PUSH2 0x3B86 JUMP JUMPDEST PUSH2 0xEA4 JUMP JUMPDEST STOP JUMPDEST CALLVALUE DUP1 ISZERO PUSH2 0x569 JUMPI PUSH0 DUP1 REVERT JUMPDEST POP PUSH2 0x572 PUSH2 0xF8D JUMP JUMPDEST STOP JUMPDEST CALLVALUE DUP1 ISZERO PUSH2 0x57F JUMPI PUSH0 DUP1 REVERT JUMPDEST POP PUSH2 0x59A PUSH1 0x4 DUP1 CALLDATASIZE SUB DUP2 ADD SWAP1 PUSH2 0x595 SWAP2 SWAP1 PUSH2 0x3856 JUMP JUMPDEST PUSH2 0xFF3 JUMP JUMPDEST STOP JUMPDEST CALLVALUE DUP1 ISZERO PUSH2 0x5A7 JUMPI PUSH0 DUP1 REVERT JUMPDEST POP PUSH2 0x5C2 PUSH1 0x4 DUP1 CALLDATASIZE SUB DUP2 ADD SWAP1 PUSH2 0x5BD SWAP2 SWAP1 PUSH2 0x394E JUMP JUMPDEST PUSH2 0x1283 JUMP JUMPDEST PUSH1 0x40 MLOAD PUSH2 0x5D0 SWAP3 SWAP2 SWAP1 PUSH2 0x3C24 JUMP JUMPDEST PUSH1 0x40 MLOAD DUP1 SWAP2 SUB SWAP1 RETURN JUMPDEST CALLVALUE DUP1 ISZERO PUSH2 0x5E4 JUMPI PUSH0 DUP1 REVERT JUMPDEST POP PUSH2 0x5ED PUSH2 0x12B7 JUMP JUMPDEST STOP JUMPDEST CALLVALUE DUP1 ISZERO PUSH2 0x5FA JUMPI PUSH0 DUP1 REVERT JUMPDEST POP PUSH2 0x615 PUSH1 0x4 DUP1 CALLDATASIZE SUB DUP2 ADD SWAP1 PUSH2 0x610 SWAP2 SWAP1 PUSH2 0x3856 JUMP JUMPDEST PUSH2 0x12CA JUMP JUMPDEST STOP JUMPDEST CALLVALUE DUP1 ISZERO PUSH2 0x622 JUMPI PUSH0 DUP1 REVERT JUMPDEST POP PUSH2 0x63D PUSH1 0x4 DUP1 CALLDATASIZE SUB DUP2 ADD SWAP1 PUSH2 0x638 SWAP2 SWAP1 PUSH2 0x3856 JUMP JUMPDEST PUSH2 0x16C4 JUMP JUMPDEST STOP JUMPDEST CALLVALUE DUP1 ISZERO PUSH2 0x64A JUMPI PUSH0 DUP1 REVERT JUMPDEST POP PUSH2 0x665 PUSH1 0x4 DUP1 CALLDATASIZE SUB DUP2 ADD SWAP1 PUSH2 0x660 SWAP2 SWAP1 PUSH2 0x3856 JUMP JUMPDEST PUSH2 0x1847 JUMP JUMPDEST STOP JUMPDEST CALLVALUE DUP1 ISZERO PUSH2 0x672 JUMPI PUSH0 DUP1 REVERT JUMPDEST POP PUSH2 0x68D PUSH1 0x4 DUP1 CALLDATASIZE SUB DUP2 ADD SWAP1 PUSH2 0x688 SWAP2 SWAP1 PUSH2 0x3856 JUMP JUMPDEST PUSH2 0x18D8 JUMP JUMPDEST STOP JUMPDEST CALLVALUE DUP1 ISZERO PUSH2 0x69A JUMPI PUSH0 DUP1 REVERT JUMPDEST POP PUSH2 0x6B5 PUSH1 0x4 DUP1 CALLDATASIZE SUB DUP2 ADD SWAP1 PUSH2 0x6B0 SWAP2 SWAP1 PUSH2 0x3856 JUMP JUMPDEST PUSH2 0x1969 JUMP JUMPDEST STOP JUMPDEST CALLVALUE DUP1 ISZERO PUSH2 0x6C2 JUMPI PUSH0 DUP1 REVERT JUMPDEST POP PUSH2 0x6DD PUSH1 0x4 DUP1 CALLDATASIZE SUB DUP2 ADD SWAP1 PUSH2 0x6D8 SWAP2 SWAP1 PUSH2 0x3B86 JUMP JUMPDEST PUSH2 0x1C23 JUMP JUMPDEST STOP JUMPDEST CALLVALUE DUP1 ISZERO PUSH2 0x6EA JUMPI PUSH0 DUP1 REVERT JUMPDEST POP PUSH2 0x6F3 PUSH2 0x1DE9 JUMP JUMPDEST PUSH1 0x40 MLOAD PUSH2 0x700 SWAP2 SWAP1 PUSH2 0x38A1 JUMP JUMPDEST PUSH1 0x40 MLOAD DUP1 SWAP2 SUB SWAP1 RETURN JUMPDEST CALLVALUE DUP1 ISZERO PUSH2 0x714 JUMPI PUSH0 DUP1 REVERT JUMPDEST POP PUSH2 0x71D PUSH2 0x1E1E JUMP JUMPDEST PUSH1 0x40 MLOAD PUSH2 0x72A SWAP2 SWAP1 PUSH2 0x376F JUMP JUMPDEST PUSH1 0x40 MLOAD DUP1 SWAP2 SUB SWAP1 RETURN JUMPDEST CALLVALUE DUP1 ISZERO PUSH2 0x73E JUMPI PUSH0 DUP1 REVERT JUMPDEST POP PUSH2 0x747 PUSH2 0x1E24 JUMP JUMPDEST PUSH1 0x40 MLOAD PUSH2 0x754 SWAP2 SWAP1 PUSH2 0x376F JUMP JUMPDEST PUSH1 0x40 MLOAD DUP1 SWAP2 SUB SWAP1 RETURN JUMPDEST CALLVALUE DUP1 ISZERO PUSH2 0x768 JUMPI PUSH0 DUP1 REVERT JUMPDEST POP PUSH2 0x783 PUSH1 0x4 DUP1 CALLDATASIZE SUB DUP2 ADD SWAP1 PUSH2 0x77E SWAP2 SWAP1 PUSH2 0x3856 JUMP JUMPDEST PUSH2 0x1E2A JUMP JUMPDEST PUSH1 0x40 MLOAD PUSH2 0x790 SWAP2 SWAP1 PUSH2 0x38A1 JUMP JUMPDEST PUSH1 0x40 MLOAD DUP1 SWAP2 SUB SWAP1 RETURN JUMPDEST CALLVALUE DUP1 ISZERO PUSH2 0x7A4 JUMPI PUSH0 DUP1 REVERT JUMPDEST POP PUSH2 0x7AD PUSH2 0x1E5A JUMP JUMPDEST PUSH1 0x40 MLOAD PUSH2 0x7BA SWAP2 SWAP1 PUSH2 0x3CA4 JUMP JUMPDEST PUSH1 0x40 MLOAD DUP1 SWAP2 SUB SWAP1 RETURN JUMPDEST CALLVALUE DUP1 ISZERO PUSH2 0x7CE JUMPI PUSH0 DUP1 REVERT JUMPDEST POP PUSH2 0x7E9 PUSH1 0x4 DUP1 CALLDATASIZE SUB DUP2 ADD SWAP1 PUSH2 0x7E4 SWAP2 SWAP1 PUSH2 0x3856 JUMP JUMPDEST PUSH2 0x1E93 JUMP JUMPDEST STOP JUMPDEST CALLVALUE DUP1 ISZERO PUSH2 0x7F6 JUMPI PUSH0 DUP1 REVERT JUMPDEST POP PUSH2 0x7FF PUSH2 0x1F24 JUMP JUMPDEST PUSH1 0x40 MLOAD PUSH2 0x80C SWAP2 SWAP1 PUSH2 0x376F JUMP JUMPDEST PUSH1 0x40 MLOAD DUP1 SWAP2 SUB SWAP1 RETURN JUMPDEST CALLVALUE DUP1 ISZERO PUSH2 0x820 JUMPI PUSH0 DUP1 REVERT JUMPDEST POP PUSH2 0x83B PUSH1 0x4 DUP1 CALLDATASIZE SUB DUP2 ADD SWAP1 PUSH2 0x836 SWAP2 SWAP1 PUSH2 0x3856 JUMP JUMPDEST PUSH2 0x1F2A JUMP JUMPDEST STOP JUMPDEST CALLVALUE DUP1 ISZERO PUSH2 0x848 JUMPI PUSH0 DUP1 REVERT JUMPDEST POP PUSH2 0x863 PUSH1 0x4 DUP1 CALLDATASIZE SUB DUP2 ADD SWAP1 PUSH2 0x85E SWAP2 SWAP1 PUSH2 0x3CC4 JUMP JUMPDEST PUSH2 0x1FBB JUMP JUMPDEST PUSH1 0x40 MLOAD PUSH2 0x875 SWAP7 SWAP6 SWAP5 SWAP4 SWAP3 SWAP2 SWAP1 PUSH2 0x3CEF JUMP JUMPDEST PUSH1 0x40 MLOAD DUP1 SWAP2 SUB SWAP1 RETURN JUMPDEST CALLVALUE DUP1 ISZERO PUSH2 0x889 JUMPI PUSH0 DUP1 REVERT JUMPDEST POP PUSH2 0x8A4 PUSH1 0x4 DUP1 CALLDATASIZE SUB DUP2 ADD SWAP1 PUSH2 0x89F SWAP2 SWAP1 PUSH2 0x3D4E JUMP JUMPDEST PUSH2 0x1FFF JUMP JUMPDEST STOP JUMPDEST CALLVALUE DUP1 ISZERO PUSH2 0x8B1 JUMPI PUSH0 DUP1 REVERT JUMPDEST POP PUSH2 0x8CC PUSH1 0x4 DUP1 CALLDATASIZE SUB DUP2 ADD SWAP1 PUSH2 0x8C7 SWAP2 SWAP1 PUSH2 0x3CC4 JUMP JUMPDEST PUSH2 0x2298 JUMP JUMPDEST PUSH1 0x40 MLOAD PUSH2 0x8D9 SWAP2 SWAP1 PUSH2 0x38D4 JUMP JUMPDEST PUSH1 0x40 MLOAD DUP1 SWAP2 SUB SWAP1 RETURN JUMPDEST CALLVALUE DUP1 ISZERO PUSH2 0x8ED JUMPI PUSH0 DUP1 REVERT JUMPDEST POP PUSH2 0x8F6 PUSH2 0x22B5 JUMP JUMPDEST PUSH1 0x40 MLOAD PUSH2 0x903 SWAP2 SWAP1 PUSH2 0x376F JUMP JUMPDEST PUSH1 0x40 MLOAD DUP1 SWAP2 SUB SWAP1 RETURN JUMPDEST CALLVALUE DUP1 ISZERO PUSH2 0x917 JUMPI PUSH0 DUP1 REVERT JUMPDEST POP PUSH2 0x932 PUSH1 0x4 DUP1 CALLDATASIZE SUB DUP2 ADD SWAP1 PUSH2 0x92D SWAP2 SWAP1 PUSH2 0x3CC4 JUMP JUMPDEST PUSH2 0x22BB JUMP JUMPDEST STOP JUMPDEST CALLVALUE DUP1 ISZERO PUSH2 0x93F JUMPI PUSH0 DUP1 REVERT JUMPDEST POP PUSH2 0x95A PUSH1 0x4 DUP1 CALLDATASIZE SUB DUP2 ADD SWAP1 PUSH2 0x955 SWAP2 SWAP1 PUSH2 0x3DC8 JUMP JUMPDEST PUSH2 0x23D0 JUMP JUMPDEST STOP JUMPDEST CALLVALUE DUP1 ISZERO PUSH2 0x967 JUMPI PUSH0 DUP1 REVERT JUMPDEST POP PUSH2 0x970 PUSH2 0x25EC JUMP JUMPDEST STOP JUMPDEST CALLVALUE DUP1 ISZERO PUSH2 0x97D JUMPI PUSH0 DUP1 REVERT JUMPDEST POP PUSH2 0x998 PUSH1 0x4 DUP1 CALLDATASIZE SUB DUP2 ADD SWAP1 PUSH2 0x993 SWAP2 SWAP1 PUSH2 0x3B86 JUMP JUMPDEST PUSH2 0x2AA2 JUMP JUMPDEST STOP JUMPDEST CALLVALUE DUP1 ISZERO PUSH2 0x9A5 JUMPI PUSH0 DUP1 REVERT JUMPDEST POP PUSH2 0x9C0 PUSH1 0x4 DUP1 CALLDATASIZE SUB DUP2 ADD SWAP1 PUSH2 0x9BB SWAP2 SWAP1 PUSH2 0x3CC4 JUMP JUMPDEST PUSH2 0x2B52 JUMP JUMPDEST STOP JUMPDEST CALLVALUE DUP1 ISZERO PUSH2 0x9CD JUMPI PUSH0 DUP1 REVERT JUMPDEST POP PUSH2 0x9E8 PUSH1 0x4 DUP1 CALLDATASIZE SUB DUP2 ADD SWAP1 PUSH2 0x9E3 SWAP2 SWAP1 PUSH2 0x3856 JUMP JUMPDEST PUSH2 0x2BD6 JUMP JUMPDEST PUSH1 0x40 MLOAD PUSH2 0x9F5 SWAP2 SWAP1 PUSH2 0x376F JUMP JUMPDEST PUSH1 0x40 MLOAD DUP1 SWAP2 SUB SWAP1 RETURN JUMPDEST PUSH1 0x8 SLOAD DUP2 JUMP JUMPDEST PUSH0 DUP1 SLOAD SWAP1 PUSH2 0x100 EXP SWAP1 DIV PUSH20 0xFFFFFFFFFFFFFFFFFFFFFFFFFFFFFFFFFFFFFFFF AND DUP2 JUMP JUMPDEST PUSH1 0x1 SLOAD DUP2 JUMP JUMPDEST PUSH2 0xA35 PUSH2 0x2BEB JUMP JUMPDEST PUSH0 DUP2 GT PUSH2 0xA79 JUMPI DUP1 PUSH1 0x40 MLOAD PUSH32 0xCDBC633500000000000000000000000000000000000000000000000000000000 DUP2 MSTORE PUSH1 0x4 ADD PUSH2 0xA70 SWAP2 SWAP1 PUSH2 0x376F JUMP JUMPDEST PUSH1 0x40 MLOAD DUP1 SWAP2 SUB SWAP1 REVERT JUMPDEST DUP1 PUSH1 0x11 PUSH0 PUSH1 0xE SLOAD DUP2 MSTORE PUSH1 0x20 ADD SWAP1 DUP2 MSTORE PUSH1 0x20 ADD PUSH0 KECCAK256 DUP2 SWAP1 SSTORE POP PUSH1 0xE PUSH0 DUP2 SLOAD DUP1 SWAP3 SWAP2 SWAP1 PUSH2 0xAA3 SWAP1 PUSH2 0x3E33 JUMP JUMPDEST SWAP2 SWAP1 POP SSTORE POP PUSH32 0xE1976E16ED8CE8E740235978FBE69B27D5EEA683B2E017BB0BD2FABB33294B3F PUSH1 0xE PUSH0 DUP2 SLOAD DUP1 SWAP3 SWAP2 SWAP1 PUSH2 0xADB SWAP1 PUSH2 0x3E7A JUMP JUMPDEST SWAP2 SWAP1 POP SSTORE DUP3 PUSH2 0x2710 PUSH2 0xAED SWAP2 SWAP1 PUSH2 0x3EA1 JUMP JUMPDEST DUP4 PUSH1 0x40 MLOAD PUSH2 0xAFD SWAP4 SWAP3 SWAP2 SWAP1 PUSH2 0x3ED4 JUMP JUMPDEST PUSH1 0x40 MLOAD DUP1 SWAP2 SUB SWAP1 LOG1 POP JUMP JUMPDEST PUSH1 0xD PUSH0 SWAP1 SLOAD SWAP1 PUSH2 0x100 EXP SWAP1 DIV PUSH20 0xFFFFFFFFFFFFFFFFFFFFFFFFFFFFFFFFFFFFFFFF AND DUP2 JUMP JUMPDEST PUSH1 0x9 PUSH1 0x14 SWAP1 SLOAD SWAP1 PUSH2 0x100 EXP SWAP1 DIV PUSH1 0xFF AND DUP2 JUMP JUMPDEST PUSH1 0x4 SLOAD DUP2 JUMP JUMPDEST PUSH1 0xB SLOAD DUP2 JUMP JUMPDEST PUSH1 0x7 SLOAD DUP2 JUMP JUMPDEST PUSH1 0xC SLOAD DUP2 JUMP JUMPDEST PUSH1 0x5 SLOAD DUP2 JUMP JUMPDEST PUSH1 0xD PUSH0 SWAP1 SLOAD SWAP1 PUSH2 0x100 EXP SWAP1 DIV PUSH20 0xFFFFFFFFFFFFFFFFFFFFFFFFFFFFFFFFFFFFFFFF AND PUSH20 0xFFFFFFFFFFFFFFFFFFFFFFFFFFFFFFFFFFFFFFFF AND CALLER PUSH20 0xFFFFFFFFFFFFFFFFFFFFFFFFFFFFFFFFFFFFFFFF AND EQ PUSH2 0xBED JUMPI PUSH1 0x40 MLOAD PUSH32 0x8C379A000000000000000000000000000000000000000000000000000000000 DUP2 MSTORE PUSH1 0x4 ADD PUSH2 0xBE4 SWAP1 PUSH2 0x3F79 JUMP JUMPDEST PUSH1 0x40 MLOAD DUP1 SWAP2 SUB SWAP1 REVERT JUMPDEST PUSH1 0x9 PUSH1 0x14 SWAP1 SLOAD SWAP1 PUSH2 0x100 EXP SWAP1 DIV PUSH1 0xFF AND PUSH2 0xC62 JUMPI PUSH1 0xB SLOAD TIMESTAMP SUB PUSH2 0xC1E JUMPI TIMESTAMP PUSH1 0xC DUP2 SWAP1 SSTORE POP PUSH2 0xC19 PUSH2 0x25EC JUMP JUMPDEST PUSH2 0xC5D JUMP JUMPDEST PUSH1 0xB SLOAD PUSH1 0x40 MLOAD PUSH32 0x54593E7500000000000000000000000000000000000000000000000000000000 DUP2 MSTORE PUSH1 0x4 ADD PUSH2 0xC54 SWAP2 SWAP1 PUSH2 0x376F JUMP JUMPDEST PUSH1 0x40 MLOAD DUP1 SWAP2 SUB SWAP1 REVERT JUMPDEST PUSH2 0xC72 JUMP JUMPDEST TIMESTAMP PUSH1 0xC DUP2 SWAP1 SSTORE POP PUSH2 0xC71 PUSH2 0x25EC JUMP JUMPDEST JUMPDEST PUSH1 0x9 PUSH1 0x14 SWAP1 SLOAD SWAP1 PUSH2 0x100 EXP SWAP1 DIV PUSH1 0xFF AND PUSH2 0xCA2 JUMPI PUSH1 0x1 PUSH1 0x9 PUSH1 0x14 PUSH2 0x100 EXP DUP2 SLOAD DUP2 PUSH1 0xFF MUL NOT AND SWAP1 DUP4 ISZERO ISZERO MUL OR SWAP1 SSTORE POP JUMPDEST POP POP JUMP JUMPDEST PUSH2 0xCAE PUSH2 0x2C72 JUMP JUMPDEST PUSH2 0xCB7 DUP3 PUSH2 0x2D58 JUMP JUMPDEST PUSH2 0xCC1 DUP3 DUP3 PUSH2 0x2D63 JUMP JUMPDEST POP POP JUMP JUMPDEST PUSH2 0xCCD PUSH2 0x2BEB JUMP JUMPDEST PUSH0 DUP2 GT PUSH2 0xD11 JUMPI DUP1 PUSH1 0x40 MLOAD PUSH32 0x2FF4783000000000000000000000000000000000000000000000000000000000 DUP2 MSTORE PUSH1 0x4 ADD PUSH2 0xD08 SWAP2 SWAP1 PUSH2 0x376F JUMP JUMPDEST PUSH1 0x40 MLOAD DUP1 SWAP2 SUB SWAP1 REVERT JUMPDEST DUP1 PUSH1 0x1 PUSH0 DUP3 DUP3 SLOAD PUSH2 0xD22 SWAP2 SWAP1 PUSH2 0x3F97 JUMP JUMPDEST SWAP3 POP POP DUP2 SWAP1 SSTORE POP PUSH0 DUP1 PUSH0 SWAP1 SLOAD SWAP1 PUSH2 0x100 EXP SWAP1 DIV PUSH20 0xFFFFFFFFFFFFFFFFFFFFFFFFFFFFFFFFFFFFFFFF AND PUSH20 0xFFFFFFFFFFFFFFFFFFFFFFFFFFFFFFFFFFFFFFFF AND PUSH4 0x23B872DD CALLER ADDRESS DUP6 PUSH1 0x40 MLOAD DUP5 PUSH4 0xFFFFFFFF AND PUSH1 0xE0 SHL DUP2 MSTORE PUSH1 0x4 ADD PUSH2 0xD87 SWAP4 SWAP3 SWAP2 SWAP1 PUSH2 0x3FCA JUMP JUMPDEST PUSH1 0x20 PUSH1 0x40 MLOAD DUP1 DUP4 SUB DUP2 PUSH0 DUP8 GAS CALL ISZERO DUP1 ISZERO PUSH2 0xDA3 JUMPI RETURNDATASIZE PUSH0 DUP1 RETURNDATACOPY RETURNDATASIZE PUSH0 REVERT JUMPDEST POP POP POP POP PUSH1 0x40 MLOAD RETURNDATASIZE PUSH1 0x1F NOT PUSH1 0x1F DUP3 ADD AND DUP3 ADD DUP1 PUSH1 0x40 MSTORE POP DUP2 ADD SWAP1 PUSH2 0xDC7 SWAP2 SWAP1 PUSH2 0x4013 JUMP JUMPDEST SWAP1 POP DUP1 PUSH2 0xE0B JUMPI DUP1 PUSH1 0x40 MLOAD PUSH32 0xD85D3CEF00000000000000000000000000000000000000000000000000000000 DUP2 MSTORE PUSH1 0x4 ADD PUSH2 0xE02 SWAP2 SWAP1 PUSH2 0x38D4 JUMP JUMPDEST PUSH1 0x40 MLOAD DUP1 SWAP2 SUB SWAP1 REVERT JUMPDEST PUSH32 0xA9F166643EC132A11638E74E3C3A78D4AE278FCBF92998240E0E97676F54E404 PUSH1 0x1 SLOAD PUSH1 0x40 MLOAD PUSH2 0xE3C SWAP2 SWAP1 PUSH2 0x376F JUMP JUMPDEST PUSH1 0x40 MLOAD DUP1 SWAP2 SUB SWAP1 LOG1 POP POP JUMP JUMPDEST PUSH0 PUSH2 0xE51 PUSH2 0x2E81 JUMP JUMPDEST PUSH32 0x360894A13BA1A3210667C828492DB98DCA3E2076CC3735A920A3CA505D382BBC PUSH0 SHL SWAP1 POP SWAP1 JUMP JUMPDEST PUSH1 0x9 PUSH0 SWAP1 SLOAD SWAP1 PUSH2 0x100 EXP SWAP1 DIV PUSH20 0xFFFFFFFFFFFFFFFFFFFFFFFFFFFFFFFFFFFFFFFF AND DUP2 JUMP JUMPDEST PUSH1 0x3 SLOAD DUP2 JUMP JUMPDEST PUSH2 0xEAC PUSH2 0x2BEB JUMP JUMPDEST PUSH0 DUP2 GT PUSH2 0xEF0 JUMPI DUP1 PUSH1 0x40 MLOAD PUSH32 0x7154000700000000000000000000000000000000000000000000000000000000 DUP2 MSTORE PUSH1 0x4 ADD PUSH2 0xEE7 SWAP2 SWAP1 PUSH2 0x376F JUMP JUMPDEST PUSH1 0x40 MLOAD DUP1 SWAP2 SUB SWAP1 REVERT JUMPDEST TIMESTAMP DUP3 LT ISZERO PUSH2 0xF35 JUMPI DUP2 PUSH1 0x40 MLOAD PUSH32 0x54593E7500000000000000000000000000000000000000000000000000000000 DUP2 MSTORE PUSH1 0x4 ADD PUSH2 0xF2C SWAP2 SWAP1 PUSH2 0x376F JUMP JUMPDEST PUSH1 0x40 MLOAD DUP1 SWAP2 SUB SWAP1 REVERT JUMPDEST DUP1 PUSH1 0xA DUP2 SWAP1 SSTORE POP DUP2 PUSH1 0xB DUP2 SWAP1 SSTORE POP TIMESTAMP PUSH1 0xC DUP2 SWAP1 SSTORE POP PUSH32 0x2B5090E035D3026F5448298C9ADC68DB8BBC1B26A8AF5C81B2B2A9FC07CA4A00 CALLER PUSH1 0xA SLOAD PUSH1 0xC SLOAD PUSH1 0x40 MLOAD PUSH2 0xF81 SWAP4 SWAP3 SWAP2 SWAP1 PUSH2 0x403E JUMP JUMPDEST PUSH1 0x40 MLOAD DUP1 SWAP2 SUB SWAP1 LOG1 POP POP JUMP JUMPDEST PUSH2 0xF95 PUSH2 0x2BEB JUMP JUMPDEST PUSH0 PUSH1 0xA DUP2 SWAP1 SSTORE POP PUSH0 PUSH1 0x9 PUSH1 0x14 PUSH2 0x100 EXP DUP2 SLOAD DUP2 PUSH1 0xFF MUL NOT AND SWAP1 DUP4 ISZERO ISZERO MUL OR SWAP1 SSTORE POP PUSH32 0x3B68DC4E210C46D3622293F2B941CDFDE795BB6E17286BB289BA05A6A3B5541F CALLER PUSH1 0xA SLOAD PUSH1 0x40 MLOAD PUSH2 0xFE9 SWAP3 SWAP2 SWAP1 PUSH2 0x4073 JUMP JUMPDEST PUSH1 0x40 MLOAD DUP1 SWAP2 SUB SWAP1 LOG1 JUMP JUMPDEST PUSH0 DUP2 GT PUSH2 0x1037 JUMPI DUP1 PUSH1 0x40 MLOAD PUSH32 0x2FF4783000000000000000000000000000000000000000000000000000000000 DUP2 MSTORE PUSH1 0x4 ADD PUSH2 0x102E SWAP2 SWAP1 PUSH2 0x376F JUMP JUMPDEST PUSH1 0x40 MLOAD DUP1 SWAP2 SUB SWAP1 REVERT JUMPDEST PUSH1 0x12 PUSH0 CALLER PUSH20 0xFFFFFFFFFFFFFFFFFFFFFFFFFFFFFFFFFFFFFFFF AND PUSH20 0xFFFFFFFFFFFFFFFFFFFFFFFFFFFFFFFFFFFFFFFF AND DUP2 MSTORE PUSH1 0x20 ADD SWAP1 DUP2 MSTORE PUSH1 0x20 ADD PUSH0 KECCAK256 PUSH1 0x1 ADD SLOAD DUP2 GT ISZERO PUSH2 0x10BA JUMPI PUSH1 0x40 MLOAD PUSH32 0x8C379A000000000000000000000000000000000000000000000000000000000 DUP2 MSTORE PUSH1 0x4 ADD PUSH2 0x10B1 SWAP1 PUSH2 0x40E4 JUMP JUMPDEST PUSH1 0x40 MLOAD DUP1 SWAP2 SUB SWAP1 REVERT JUMPDEST DUP1 PUSH1 0x12 PUSH0 CALLER PUSH20 0xFFFFFFFFFFFFFFFFFFFFFFFFFFFFFFFFFFFFFFFF AND PUSH20 0xFFFFFFFFFFFFFFFFFFFFFFFFFFFFFFFFFFFFFFFF AND DUP2 MSTORE PUSH1 0x20 ADD SWAP1 DUP2 MSTORE PUSH1 0x20 ADD PUSH0 KECCAK256 PUSH1 0x1 ADD PUSH0 DUP3 DUP3 SLOAD PUSH2 0x1109 SWAP2 SWAP1 PUSH2 0x3EA1 JUMP JUMPDEST SWAP3 POP POP DUP2 SWAP1 SSTORE POP DUP1 PUSH1 0x12 PUSH0 CALLER PUSH20 0xFFFFFFFFFFFFFFFFFFFFFFFFFFFFFFFFFFFFFFFF AND PUSH20 0xFFFFFFFFFFFFFFFFFFFFFFFFFFFFFFFFFFFFFFFF AND DUP2 MSTORE PUSH1 0x20 ADD SWAP1 DUP2 MSTORE PUSH1 0x20 ADD PUSH0 KECCAK256 PUSH1 0x2 ADD PUSH0 DUP3 DUP3 SLOAD PUSH2 0x115F SWAP2 SWAP1 PUSH2 0x3F97 JUMP JUMPDEST SWAP3 POP POP DUP2 SWAP1 SSTORE POP PUSH0 DUP1 PUSH0 SWAP1 SLOAD SWAP1 PUSH2 0x100 EXP SWAP1 DIV PUSH20 0xFFFFFFFFFFFFFFFFFFFFFFFFFFFFFFFFFFFFFFFF AND PUSH20 0xFFFFFFFFFFFFFFFFFFFFFFFFFFFFFFFFFFFFFFFF AND PUSH4 0xA9059CBB CALLER DUP5 PUSH1 0x40 MLOAD DUP4 PUSH4 0xFFFFFFFF AND PUSH1 0xE0 SHL DUP2 MSTORE PUSH1 0x4 ADD PUSH2 0x11C2 SWAP3 SWAP2 SWAP1 PUSH2 0x4073 JUMP JUMPDEST PUSH1 0x20 PUSH1 0x40 MLOAD DUP1 DUP4 SUB DUP2 PUSH0 DUP8 GAS CALL ISZERO DUP1 ISZERO PUSH2 0x11DE JUMPI RETURNDATASIZE PUSH0 DUP1 RETURNDATACOPY RETURNDATASIZE PUSH0 REVERT JUMPDEST POP POP POP POP PUSH1 0x40 MLOAD RETURNDATASIZE PUSH1 0x1F NOT PUSH1 0x1F DUP3 ADD AND DUP3 ADD DUP1 PUSH1 0x40 MSTORE POP DUP2 ADD SWAP1 PUSH2 0x1202 SWAP2 SWAP1 PUSH2 0x4013 JUMP JUMPDEST SWAP1 POP DUP1 PUSH2 0x1246 JUMPI DUP1 PUSH1 0x40 MLOAD PUSH32 0xD85D3CEF00000000000000000000000000000000000000000000000000000000 DUP2 MSTORE PUSH1 0x4 ADD PUSH2 0x123D SWAP2 SWAP1 PUSH2 0x38D4 JUMP JUMPDEST PUSH1 0x40 MLOAD DUP1 SWAP2 SUB SWAP1 REVERT JUMPDEST PUSH32 0x884EDAD9CE6FA2440D8A54CC123490EB96D2768479D49FF9C7366125A9424364 CALLER DUP4 PUSH1 0x40 MLOAD PUSH2 0x1277 SWAP3 SWAP2 SWAP1 PUSH2 0x4073 JUMP JUMPDEST PUSH1 0x40 MLOAD DUP1 SWAP2 SUB SWAP1 LOG1 POP POP JUMP JUMPDEST PUSH0 PUSH1 0x60 PUSH0 PUSH1 0xA SLOAD PUSH1 0xC SLOAD TIMESTAMP PUSH2 0x1298 SWAP2 SWAP1 PUSH2 0x3EA1 JUMP JUMPDEST GT SWAP1 POP DUP1 PUSH1 0x40 MLOAD DUP1 PUSH1 0x20 ADD PUSH1 0x40 MSTORE DUP1 PUSH0 DUP2 MSTORE POP SWAP3 POP SWAP3 POP POP SWAP3 POP SWAP3 SWAP1 POP JUMP JUMPDEST PUSH2 0x12BF PUSH2 0x2BEB JUMP JUMPDEST PUSH2 0x12C8 PUSH0 PUSH2 0x2F08 JUMP JUMPDEST JUMP JUMPDEST PUSH0 DUP2 GT PUSH2 0x130E JUMPI DUP1 PUSH1 0x40 MLOAD PUSH32 0x2FF4783000000000000000000000000000000000000000000000000000000000 DUP2 MSTORE PUSH1 0x4 ADD PUSH2 0x1305 SWAP2 SWAP1 PUSH2 0x376F JUMP JUMPDEST PUSH1 0x40 MLOAD DUP1 SWAP2 SUB SWAP1 REVERT JUMPDEST PUSH1 0x12 PUSH0 CALLER PUSH20 0xFFFFFFFFFFFFFFFFFFFFFFFFFFFFFFFFFFFFFFFF AND PUSH20 0xFFFFFFFFFFFFFFFFFFFFFFFFFFFFFFFFFFFFFFFF AND DUP2 MSTORE PUSH1 0x20 ADD SWAP1 DUP2 MSTORE PUSH1 0x20 ADD PUSH0 KECCAK256 PUSH0 ADD PUSH0 SWAP1 SLOAD SWAP1 PUSH2 0x100 EXP SWAP1 DIV PUSH1 0xFF AND ISZERO PUSH2 0x13E7 JUMPI PUSH1 0x12 PUSH0 CALLER PUSH20 0xFFFFFFFFFFFFFFFFFFFFFFFFFFFFFFFFFFFFFFFF AND PUSH20 0xFFFFFFFFFFFFFFFFFFFFFFFFFFFFFFFFFFFFFFFF AND DUP2 MSTORE PUSH1 0x20 ADD SWAP1 DUP2 MSTORE PUSH1 0x20 ADD PUSH0 KECCAK256 PUSH0 ADD PUSH0 SWAP1 SLOAD SWAP1 PUSH2 0x100 EXP SWAP1 DIV PUSH1 0xFF AND PUSH1 0x40 MLOAD PUSH32 0x6FA5C3C000000000000000000000000000000000000000000000000000000000 DUP2 MSTORE PUSH1 0x4 ADD PUSH2 0x13DE SWAP2 SWAP1 PUSH2 0x38D4 JUMP JUMPDEST PUSH1 0x40 MLOAD DUP1 SWAP2 SUB SWAP1 REVERT JUMPDEST DUP1 PUSH1 0x12 PUSH0 CALLER PUSH20 0xFFFFFFFFFFFFFFFFFFFFFFFFFFFFFFFFFFFFFFFF AND PUSH20 0xFFFFFFFFFFFFFFFFFFFFFFFFFFFFFFFFFFFFFFFF AND DUP2 MSTORE PUSH1 0x20 ADD SWAP1 DUP2 MSTORE PUSH1 0x20 ADD PUSH0 KECCAK256 PUSH1 0x5 ADD PUSH0 DUP3 DUP3 SLOAD PUSH2 0x1436 SWAP2 SWAP1 PUSH2 0x3F97 JUMP JUMPDEST SWAP3 POP POP DUP2 SWAP1 SSTORE POP PUSH1 0xF PUSH0 CALLER PUSH20 0xFFFFFFFFFFFFFFFFFFFFFFFFFFFFFFFFFFFFFFFF AND PUSH20 0xFFFFFFFFFFFFFFFFFFFFFFFFFFFFFFFFFFFFFFFF AND DUP2 MSTORE PUSH1 0x20 ADD SWAP1 DUP2 MSTORE PUSH1 0x20 ADD PUSH0 KECCAK256 PUSH0 SWAP1 SLOAD SWAP1 PUSH2 0x100 EXP SWAP1 DIV PUSH1 0xFF AND PUSH2 0x1549 JUMPI CALLER PUSH1 0x10 PUSH0 PUSH1 0x8 SLOAD DUP2 MSTORE PUSH1 0x20 ADD SWAP1 DUP2 MSTORE PUSH1 0x20 ADD PUSH0 KECCAK256 PUSH0 PUSH2 0x100 EXP DUP2 SLOAD DUP2 PUSH20 0xFFFFFFFFFFFFFFFFFFFFFFFFFFFFFFFFFFFFFFFF MUL NOT AND SWAP1 DUP4 PUSH20 0xFFFFFFFFFFFFFFFFFFFFFFFFFFFFFFFFFFFFFFFF AND MUL OR SWAP1 SSTORE POP PUSH1 0x1 PUSH1 0xF PUSH0 CALLER PUSH20 0xFFFFFFFFFFFFFFFFFFFFFFFFFFFFFFFFFFFFFFFF AND PUSH20 0xFFFFFFFFFFFFFFFFFFFFFFFFFFFFFFFFFFFFFFFF AND DUP2 MSTORE PUSH1 0x20 ADD SWAP1 DUP2 MSTORE PUSH1 0x20 ADD PUSH0 KECCAK256 PUSH0 PUSH2 0x100 EXP DUP2 SLOAD DUP2 PUSH1 0xFF MUL NOT AND SWAP1 DUP4 ISZERO ISZERO MUL OR SWAP1 SSTORE POP PUSH1 0x8 PUSH0 DUP2 SLOAD DUP1 SWAP3 SWAP2 SWAP1 PUSH2 0x1543 SWAP1 PUSH2 0x3E33 JUMP JUMPDEST SWAP2 SWAP1 POP SSTORE POP JUMPDEST DUP1 PUSH1 0x3 PUSH0 DUP3 DUP3 SLOAD PUSH2 0x155A SWAP2 SWAP1 PUSH2 0x3F97 JUMP JUMPDEST SWAP3 POP POP DUP2 SWAP1 SSTORE POP PUSH0 DUP1 PUSH0 SWAP1 SLOAD SWAP1 PUSH2 0x100 EXP SWAP1 DIV PUSH20 0xFFFFFFFFFFFFFFFFFFFFFFFFFFFFFFFFFFFFFFFF AND PUSH20 0xFFFFFFFFFFFFFFFFFFFFFFFFFFFFFFFFFFFFFFFF AND PUSH4 0x23B872DD CALLER PUSH1 0x9 PUSH0 SWAP1 SLOAD SWAP1 PUSH2 0x100 EXP SWAP1 DIV PUSH20 0xFFFFFFFFFFFFFFFFFFFFFFFFFFFFFFFFFFFFFFFF AND DUP6 PUSH1 0x40 MLOAD DUP5 PUSH4 0xFFFFFFFF AND PUSH1 0xE0 SHL DUP2 MSTORE PUSH1 0x4 ADD PUSH2 0x15E0 SWAP4 SWAP3 SWAP2 SWAP1 PUSH2 0x3FCA JUMP JUMPDEST PUSH1 0x20 PUSH1 0x40 MLOAD DUP1 DUP4 SUB DUP2 PUSH0 DUP8 GAS CALL ISZERO DUP1 ISZERO PUSH2 0x15FC JUMPI RETURNDATASIZE PUSH0 DUP1 RETURNDATACOPY RETURNDATASIZE PUSH0 REVERT JUMPDEST POP POP POP POP PUSH1 0x40 MLOAD RETURNDATASIZE PUSH1 0x1F NOT PUSH1 0x1F DUP3 ADD AND DUP3 ADD DUP1 PUSH1 0x40 MSTORE POP DUP2 ADD SWAP1 PUSH2 0x1620 SWAP2 SWAP1 PUSH2 0x4013 JUMP JUMPDEST SWAP1 POP DUP1 PUSH2 0x1664 JUMPI DUP1 PUSH1 0x40 MLOAD PUSH32 0xD85D3CEF00000000000000000000000000000000000000000000000000000000 DUP2 MSTORE PUSH1 0x4 ADD PUSH2 0x165B SWAP2 SWAP1 PUSH2 0x38D4 JUMP JUMPDEST PUSH1 0x40 MLOAD DUP1 SWAP2 SUB SWAP1 REVERT JUMPDEST PUSH32 0x14EE34C24635186D212F515353DADAE9C226529EDEF2D1FCF5504CB33B5C25AB CALLER PUSH1 0x9 PUSH0 SWAP1 SLOAD SWAP1 PUSH2 0x100 EXP SWAP1 DIV PUSH20 0xFFFFFFFFFFFFFFFFFFFFFFFFFFFFFFFFFFFFFFFF AND DUP5 PUSH1 0x40 MLOAD PUSH2 0x16B8 SWAP4 SWAP3 SWAP2 SWAP1 PUSH2 0x3FCA JUMP JUMPDEST PUSH1 0x40 MLOAD DUP1 SWAP2 SUB SWAP1 LOG1 POP POP JUMP JUMPDEST PUSH2 0x16CC PUSH2 0x2BEB JUMP JUMPDEST PUSH0 DUP2 GT PUSH2 0x1710 JUMPI DUP1 PUSH1 0x40 MLOAD PUSH32 0x2FF4783000000000000000000000000000000000000000000000000000000000 DUP2 MSTORE PUSH1 0x4 ADD PUSH2 0x1707 SWAP2 SWAP1 PUSH2 0x376F JUMP JUMPDEST PUSH1 0x40 MLOAD DUP1 SWAP2 SUB SWAP1 REVERT JUMPDEST DUP1 PUSH1 0x2 PUSH0 DUP3 DUP3 SLOAD PUSH2 0x1721 SWAP2 SWAP1 PUSH2 0x3F97 JUMP JUMPDEST SWAP3 POP POP DUP2 SWAP1 SSTORE POP PUSH0 DUP1 PUSH0 SWAP1 SLOAD SWAP1 PUSH2 0x100 EXP SWAP1 DIV PUSH20 0xFFFFFFFFFFFFFFFFFFFFFFFFFFFFFFFFFFFFFFFF AND PUSH20 0xFFFFFFFFFFFFFFFFFFFFFFFFFFFFFFFFFFFFFFFF AND PUSH4 0x23B872DD CALLER ADDRESS DUP6 PUSH1 0x40 MLOAD DUP5 PUSH4 0xFFFFFFFF AND PUSH1 0xE0 SHL DUP2 MSTORE PUSH1 0x4 ADD PUSH2 0x1786 SWAP4 SWAP3 SWAP2 SWAP1 PUSH2 0x3FCA JUMP JUMPDEST PUSH1 0x20 PUSH1 0x40 MLOAD DUP1 DUP4 SUB DUP2 PUSH0 DUP8 GAS CALL ISZERO DUP1 ISZERO PUSH2 0x17A2 JUMPI RETURNDATASIZE PUSH0 DUP1 RETURNDATACOPY RETURNDATASIZE PUSH0 REVERT JUMPDEST POP POP POP POP PUSH1 0x40 MLOAD RETURNDATASIZE PUSH1 0x1F NOT PUSH1 0x1F DUP3 ADD AND DUP3 ADD DUP1 PUSH1 0x40 MSTORE POP DUP2 ADD SWAP1 PUSH2 0x17C6 SWAP2 SWAP1 PUSH2 0x4013 JUMP JUMPDEST SWAP1 POP DUP1 PUSH2 0x180A JUMPI DUP1 PUSH1 0x40 MLOAD PUSH32 0xD85D3CEF00000000000000000000000000000000000000000000000000000000 DUP2 MSTORE PUSH1 0x4 ADD PUSH2 0x1801 SWAP2 SWAP1 PUSH2 0x38D4 JUMP JUMPDEST PUSH1 0x40 MLOAD DUP1 SWAP2 SUB SWAP1 REVERT JUMPDEST PUSH32 0x73834E1D1EE73BA659470A3603B888903853D3A3C9FDA34E71C093A0E35CAB94 PUSH1 0x2 SLOAD PUSH1 0x40 MLOAD PUSH2 0x183B SWAP2 SWAP1 PUSH2 0x376F JUMP JUMPDEST PUSH1 0x40 MLOAD DUP1 SWAP2 SUB SWAP1 LOG1 POP POP JUMP JUMPDEST PUSH2 0x184F PUSH2 0x2BEB JUMP JUMPDEST PUSH0 DUP2 GT PUSH2 0x1893 JUMPI DUP1 PUSH1 0x40 MLOAD PUSH32 0xCDBC633500000000000000000000000000000000000000000000000000000000 DUP2 MSTORE PUSH1 0x4 ADD PUSH2 0x188A SWAP2 SWAP1 PUSH2 0x376F JUMP JUMPDEST PUSH1 0x40 MLOAD DUP1 SWAP2 SUB SWAP1 REVERT JUMPDEST DUP1 PUSH1 0x7 DUP2 SWAP1 SSTORE POP PUSH32 0xB5671393C7C6980552E50A31E778921EB17D764C2E98FBF4D44FFF524712DEF9 CALLER PUSH1 0x7 SLOAD PUSH1 0x40 MLOAD PUSH2 0x18CD SWAP3 SWAP2 SWAP1 PUSH2 0x4073 JUMP JUMPDEST PUSH1 0x40 MLOAD DUP1 SWAP2 SUB SWAP1 LOG1 POP JUMP JUMPDEST PUSH2 0x18E0 PUSH2 0x2BEB JUMP JUMPDEST PUSH0 DUP2 GT PUSH2 0x1924 JUMPI DUP1 PUSH1 0x40 MLOAD PUSH32 0xCDBC633500000000000000000000000000000000000000000000000000000000 DUP2 MSTORE PUSH1 0x4 ADD PUSH2 0x191B SWAP2 SWAP1 PUSH2 0x376F JUMP JUMPDEST PUSH1 0x40 MLOAD DUP1 SWAP2 SUB SWAP1 REVERT JUMPDEST DUP1 PUSH1 0x4 DUP2 SWAP1 SSTORE POP PUSH32 0xB5671393C7C6980552E50A31E778921EB17D764C2E98FBF4D44FFF524712DEF9 CALLER PUSH1 0x4 SLOAD PUSH1 0x40 MLOAD PUSH2 0x195E SWAP3 SWAP2 SWAP1 PUSH2 0x4073 JUMP JUMPDEST PUSH1 0x40 MLOAD DUP1 SWAP2 SUB SWAP1 LOG1 POP JUMP JUMPDEST PUSH0 DUP2 GT PUSH2 0x19AD JUMPI DUP1 PUSH1 0x40 MLOAD PUSH32 0x2FF4783000000000000000000000000000000000000000000000000000000000 DUP2 MSTORE PUSH1 0x4 ADD PUSH2 0x19A4 SWAP2 SWAP1 PUSH2 0x376F JUMP JUMPDEST PUSH1 0x40 MLOAD DUP1 SWAP2 SUB SWAP1 REVERT JUMPDEST PUSH1 0x12 PUSH0 CALLER PUSH20 0xFFFFFFFFFFFFFFFFFFFFFFFFFFFFFFFFFFFFFFFF AND PUSH20 0xFFFFFFFFFFFFFFFFFFFFFFFFFFFFFFFFFFFFFFFF AND DUP2 MSTORE PUSH1 0x20 ADD SWAP1 DUP2 MSTORE PUSH1 0x20 ADD PUSH0 KECCAK256 PUSH0 ADD PUSH0 SWAP1 SLOAD SWAP1 PUSH2 0x100 EXP SWAP1 DIV PUSH1 0xFF AND ISZERO PUSH2 0x1A86 JUMPI PUSH1 0x12 PUSH0 CALLER PUSH20 0xFFFFFFFFFFFFFFFFFFFFFFFFFFFFFFFFFFFFFFFF AND PUSH20 0xFFFFFFFFFFFFFFFFFFFFFFFFFFFFFFFFFFFFFFFF AND DUP2 MSTORE PUSH1 0x20 ADD SWAP1 DUP2 MSTORE PUSH1 0x20 ADD PUSH0 KECCAK256 PUSH0 ADD PUSH0 SWAP1 SLOAD SWAP1 PUSH2 0x100 EXP SWAP1 DIV PUSH1 0xFF AND PUSH1 0x40 MLOAD PUSH32 0x6FA5C3C000000000000000000000000000000000000000000000000000000000 DUP2 MSTORE PUSH1 0x4 ADD PUSH2 0x1A7D SWAP2 SWAP1 PUSH2 0x38D4 JUMP JUMPDEST PUSH1 0x40 MLOAD DUP1 SWAP2 SUB SWAP1 REVERT JUMPDEST PUSH1 0x12 PUSH0 CALLER PUSH20 0xFFFFFFFFFFFFFFFFFFFFFFFFFFFFFFFFFFFFFFFF AND PUSH20 0xFFFFFFFFFFFFFFFFFFFFFFFFFFFFFFFFFFFFFFFF AND DUP2 MSTORE PUSH1 0x20 ADD SWAP1 DUP2 MSTORE PUSH1 0x20 ADD PUSH0 KECCAK256 PUSH1 0x1 ADD SLOAD DUP2 GT ISZERO PUSH2 0x1B09 JUMPI PUSH1 0x40 MLOAD PUSH32 0x8C379A000000000000000000000000000000000000000000000000000000000 DUP2 MSTORE PUSH1 0x4 ADD PUSH2 0x1B00 SWAP1 PUSH2 0x40E4 JUMP JUMPDEST PUSH1 0x40 MLOAD DUP1 SWAP2 SUB SWAP1 REVERT JUMPDEST DUP1 PUSH1 0x12 PUSH0 CALLER PUSH20 0xFFFFFFFFFFFFFFFFFFFFFFFFFFFFFFFFFFFFFFFF AND PUSH20 0xFFFFFFFFFFFFFFFFFFFFFFFFFFFFFFFFFFFFFFFF AND DUP2 MSTORE PUSH1 0x20 ADD SWAP1 DUP2 MSTORE PUSH1 0x20 ADD PUSH0 KECCAK256 PUSH1 0x1 ADD PUSH0 DUP3 DUP3 SLOAD PUSH2 0x1B58 SWAP2 SWAP1 PUSH2 0x3EA1 JUMP JUMPDEST SWAP3 POP POP DUP2 SWAP1 SSTORE POP DUP1 PUSH1 0x12 PUSH0 CALLER PUSH20 0xFFFFFFFFFFFFFFFFFFFFFFFFFFFFFFFFFFFFFFFF AND PUSH20 0xFFFFFFFFFFFFFFFFFFFFFFFFFFFFFFFFFFFFFFFF AND DUP2 MSTORE PUSH1 0x20 ADD SWAP1 DUP2 MSTORE PUSH1 0x20 ADD PUSH0 KECCAK256 PUSH1 0x5 ADD PUSH0 DUP3 DUP3 SLOAD PUSH2 0x1BAE SWAP2 SWAP1 PUSH2 0x3F97 JUMP JUMPDEST SWAP3 POP POP DUP2 SWAP1 SSTORE POP DUP1 PUSH1 0x2 PUSH0 DUP3 DUP3 SLOAD PUSH2 0x1BC6 SWAP2 SWAP1 PUSH2 0x3F97 JUMP JUMPDEST SWAP3 POP POP DUP2 SWAP1 SSTORE POP DUP1 PUSH1 0x3 PUSH0 DUP3 DUP3 SLOAD PUSH2 0x1BDE SWAP2 SWAP1 PUSH2 0x3F97 JUMP JUMPDEST SWAP3 POP POP DUP2 SWAP1 SSTORE POP PUSH32 0x14EE34C24635186D212F515353DADAE9C226529EDEF2D1FCF5504CB33B5C25AB CALLER ADDRESS DUP4 PUSH1 0x40 MLOAD PUSH2 0x1C18 SWAP4 SWAP3 SWAP2 SWAP1 PUSH2 0x3FCA JUMP JUMPDEST PUSH1 0x40 MLOAD DUP1 SWAP2 SUB SWAP1 LOG1 POP JUMP JUMPDEST PUSH0 DUP3 GT PUSH2 0x1C67 JUMPI DUP2 PUSH1 0x40 MLOAD PUSH32 0x2FF4783000000000000000000000000000000000000000000000000000000000 DUP2 MSTORE PUSH1 0x4 ADD PUSH2 0x1C5E SWAP2 SWAP1 PUSH2 0x376F JUMP JUMPDEST PUSH1 0x40 MLOAD DUP1 SWAP2 SUB SWAP1 REVERT JUMPDEST PUSH1 0xE SLOAD DUP2 GT ISZERO PUSH2 0x1CAE JUMPI DUP1 PUSH1 0x40 MLOAD PUSH32 0x222A50F300000000000000000000000000000000000000000000000000000000 DUP2 MSTORE PUSH1 0x4 ADD PUSH2 0x1CA5 SWAP2 SWAP1 PUSH2 0x376F JUMP JUMPDEST PUSH1 0x40 MLOAD DUP1 SWAP2 SUB SWAP1 REVERT JUMPDEST PUSH2 0x1CC9 DUP3 PUSH1 0x11 PUSH0 DUP5 DUP2 MSTORE PUSH1 0x20 ADD SWAP1 DUP2 MSTORE PUSH1 0x20 ADD PUSH0 KECCAK256 SLOAD PUSH2 0x2FD9 JUMP JUMPDEST PUSH0 DUP1 PUSH0 SWAP1 SLOAD SWAP1 PUSH2 0x100 EXP SWAP1 DIV PUSH20 0xFFFFFFFFFFFFFFFFFFFFFFFFFFFFFFFFFFFFFFFF AND PUSH20 0xFFFFFFFFFFFFFFFFFFFFFFFFFFFFFFFFFFFFFFFF AND PUSH4 0x23B872DD CALLER ADDRESS DUP7 PUSH1 0x40 MLOAD DUP5 PUSH4 0xFFFFFFFF AND PUSH1 0xE0 SHL DUP2 MSTORE PUSH1 0x4 ADD PUSH2 0x1D27 SWAP4 SWAP3 SWAP2 SWAP1 PUSH2 0x3FCA JUMP JUMPDEST PUSH1 0x20 PUSH1 0x40 MLOAD DUP1 DUP4 SUB DUP2 PUSH0 DUP8 GAS CALL ISZERO DUP1 ISZERO PUSH2 0x1D43 JUMPI RETURNDATASIZE PUSH0 DUP1 RETURNDATACOPY RETURNDATASIZE PUSH0 REVERT JUMPDEST POP POP POP POP PUSH1 0x40 MLOAD RETURNDATASIZE PUSH1 0x1F NOT PUSH1 0x1F DUP3 ADD AND DUP3 ADD DUP1 PUSH1 0x40 MSTORE POP DUP2 ADD SWAP1 PUSH2 0x1D67 SWAP2 SWAP1 PUSH2 0x4013 JUMP JUMPDEST SWAP1 POP DUP1 PUSH2 0x1DAB JUMPI DUP1 PUSH1 0x40 MLOAD PUSH32 0xD85D3CEF00000000000000000000000000000000000000000000000000000000 DUP2 MSTORE PUSH1 0x4 ADD PUSH2 0x1DA2 SWAP2 SWAP1 PUSH2 0x38D4 JUMP JUMPDEST PUSH1 0x40 MLOAD DUP1 SWAP2 SUB SWAP1 REVERT JUMPDEST PUSH32 0xA89B69C5958EC1CCF0DF0DE746A8708F5B6A6B429430129F16F46F44B319C900 DUP4 DUP4 PUSH1 0x40 MLOAD PUSH2 0x1DDC SWAP3 SWAP2 SWAP1 PUSH2 0x4102 JUMP JUMPDEST PUSH1 0x40 MLOAD DUP1 SWAP2 SUB SWAP1 LOG1 POP POP POP JUMP JUMPDEST PUSH0 DUP1 PUSH2 0x1DF3 PUSH2 0x303B JUMP JUMPDEST SWAP1 POP DUP1 PUSH0 ADD PUSH0 SWAP1 SLOAD SWAP1 PUSH2 0x100 EXP SWAP1 DIV PUSH20 0xFFFFFFFFFFFFFFFFFFFFFFFFFFFFFFFFFFFFFFFF AND SWAP2 POP POP SWAP1 JUMP JUMPDEST PUSH1 0xA SLOAD DUP2 JUMP JUMPDEST PUSH1 0xE SLOAD DUP2 JUMP JUMPDEST PUSH1 0x10 PUSH1 0x20 MSTORE DUP1 PUSH0 MSTORE PUSH1 0x40 PUSH0 KECCAK256 PUSH0 SWAP2 POP SLOAD SWAP1 PUSH2 0x100 EXP SWAP1 DIV PUSH20 0xFFFFFFFFFFFFFFFFFFFFFFFFFFFFFFFFFFFFFFFF AND DUP2 JUMP JUMPDEST PUSH1 0x40 MLOAD DUP1 PUSH1 0x40 ADD PUSH1 0x40 MSTORE DUP1 PUSH1 0x5 DUP2 MSTORE PUSH1 0x20 ADD PUSH32 0x352E302E30000000000000000000000000000000000000000000000000000000 DUP2 MSTORE POP DUP2 JUMP JUMPDEST PUSH2 0x1E9B PUSH2 0x2BEB JUMP JUMPDEST PUSH0 DUP2 GT PUSH2 0x1EDF JUMPI DUP1 PUSH1 0x40 MLOAD PUSH32 0xCDBC633500000000000000000000000000000000000000000000000000000000 DUP2 MSTORE PUSH1 0x4 ADD PUSH2 0x1ED6 SWAP2 SWAP1 PUSH2 0x376F JUMP JUMPDEST PUSH1 0x40 MLOAD DUP1 SWAP2 SUB SWAP1 REVERT JUMPDEST DUP1 PUSH1 0x6 DUP2 SWAP1 SSTORE POP PUSH32 0xB5671393C7C6980552E50A31E778921EB17D764C2E98FBF4D44FFF524712DEF9 CALLER PUSH1 0x6 SLOAD PUSH1 0x40 MLOAD PUSH2 0x1F19 SWAP3 SWAP2 SWAP1 PUSH2 0x4073 JUMP JUMPDEST PUSH1 0x40 MLOAD DUP1 SWAP2 SUB SWAP1 LOG1 POP JUMP JUMPDEST PUSH1 0x2 SLOAD DUP2 JUMP JUMPDEST PUSH2 0x1F32 PUSH2 0x2BEB JUMP JUMPDEST PUSH0 DUP2 GT PUSH2 0x1F76 JUMPI DUP1 PUSH1 0x40 MLOAD PUSH32 0xCDBC633500000000000000000000000000000000000000000000000000000000 DUP2 MSTORE PUSH1 0x4 ADD PUSH2 0x1F6D SWAP2 SWAP1 PUSH2 0x376F JUMP JUMPDEST PUSH1 0x40 MLOAD DUP1 SWAP2 SUB SWAP1 REVERT JUMPDEST DUP1 PUSH1 0x5 DUP2 SWAP1 SSTORE POP PUSH32 0xB5671393C7C6980552E50A31E778921EB17D764C2E98FBF4D44FFF524712DEF9 CALLER PUSH1 0x5 SLOAD PUSH1 0x40 MLOAD PUSH2 0x1FB0 SWAP3 SWAP2 SWAP1 PUSH2 0x4073 JUMP JUMPDEST PUSH1 0x40 MLOAD DUP1 SWAP2 SUB SWAP1 LOG1 POP JUMP JUMPDEST PUSH1 0x12 PUSH1 0x20 MSTORE DUP1 PUSH0 MSTORE PUSH1 0x40 PUSH0 KECCAK256 PUSH0 SWAP2 POP SWAP1 POP DUP1 PUSH0 ADD PUSH0 SWAP1 SLOAD SWAP1 PUSH2 0x100 EXP SWAP1 DIV PUSH1 0xFF AND SWAP1 DUP1 PUSH1 0x1 ADD SLOAD SWAP1 DUP1 PUSH1 0x2 ADD SLOAD SWAP1 DUP1 PUSH1 0x3 ADD SLOAD SWAP1 DUP1 PUSH1 0x4 ADD SLOAD SWAP1 DUP1 PUSH1 0x5 ADD SLOAD SWAP1 POP DUP7 JUMP JUMPDEST PUSH0 PUSH2 0x2008 PUSH2 0x3062 JUMP JUMPDEST SWAP1 POP PUSH0 DUP2 PUSH0 ADD PUSH1 0x8 SWAP1 SLOAD SWAP1 PUSH2 0x100 EXP SWAP1 DIV PUSH1 0xFF AND ISZERO SWAP1 POP PUSH0 DUP3 PUSH0 ADD PUSH0 SWAP1 SLOAD SWAP1 PUSH2 0x100 EXP SWAP1 DIV PUSH8 0xFFFFFFFFFFFFFFFF AND SWAP1 POP PUSH0 DUP1 DUP3 PUSH8 0xFFFFFFFFFFFFFFFF AND EQ DUP1 ISZERO PUSH2 0x2050 JUMPI POP DUP3 JUMPDEST SWAP1 POP PUSH0 PUSH1 0x1 DUP4 PUSH8 0xFFFFFFFFFFFFFFFF AND EQ DUP1 ISZERO PUSH2 0x2083 JUMPI POP PUSH0 ADDRESS PUSH20 0xFFFFFFFFFFFFFFFFFFFFFFFFFFFFFFFFFFFFFFFF AND EXTCODESIZE EQ JUMPDEST SWAP1 POP DUP2 ISZERO DUP1 ISZERO PUSH2 0x2091 JUMPI POP DUP1 ISZERO JUMPDEST ISZERO PUSH2 0x20C8 JUMPI PUSH1 0x40 MLOAD PUSH32 0xF92EE8A900000000000000000000000000000000000000000000000000000000 DUP2 MSTORE PUSH1 0x4 ADD PUSH1 0x40 MLOAD DUP1 SWAP2 SUB SWAP1 REVERT JUMPDEST PUSH1 0x1 DUP6 PUSH0 ADD PUSH0 PUSH2 0x100 EXP DUP2 SLOAD DUP2 PUSH8 0xFFFFFFFFFFFFFFFF MUL NOT AND SWAP1 DUP4 PUSH8 0xFFFFFFFFFFFFFFFF AND MUL OR SWAP1 SSTORE POP DUP4 ISZERO PUSH2 0x2115 JUMPI PUSH1 0x1 DUP6 PUSH0 ADD PUSH1 0x8 PUSH2 0x100 EXP DUP2 SLOAD DUP2 PUSH1 0xFF MUL NOT AND SWAP1 DUP4 ISZERO ISZERO MUL OR SWAP1 SSTORE POP JUMPDEST PUSH2 0x211E DUP9 PUSH2 0x3089 JUMP JUMPDEST PUSH2 0x2126 PUSH2 0x309D JUMP JUMPDEST DUP7 PUSH0 DUP1 PUSH2 0x100 EXP DUP2 SLOAD DUP2 PUSH20 0xFFFFFFFFFFFFFFFFFFFFFFFFFFFFFFFFFFFFFFFF MUL NOT AND SWAP1 DUP4 PUSH20 0xFFFFFFFFFFFFFFFFFFFFFFFFFFFFFFFFFFFFFFFF AND MUL OR SWAP1 SSTORE POP PUSH2 0x13EC PUSH1 0x11 PUSH0 DUP1 DUP2 MSTORE PUSH1 0x20 ADD SWAP1 DUP2 MSTORE PUSH1 0x20 ADD PUSH0 KECCAK256 DUP2 SWAP1 SSTORE POP PUSH2 0x1D4C PUSH1 0x11 PUSH0 PUSH1 0x1 DUP2 MSTORE PUSH1 0x20 ADD SWAP1 DUP2 MSTORE PUSH1 0x20 ADD PUSH0 KECCAK256 DUP2 SWAP1 SSTORE POP PUSH2 0xDAC PUSH1 0x11 PUSH0 PUSH1 0x2 DUP2 MSTORE PUSH1 0x20 ADD SWAP1 DUP2 MSTORE PUSH1 0x20 ADD PUSH0 KECCAK256 DUP2 SWAP1 SSTORE POP PUSH2 0x1E14 PUSH1 0x11 PUSH0 PUSH1 0x3 DUP2 MSTORE PUSH1 0x20 ADD SWAP1 DUP2 MSTORE PUSH1 0x20 ADD PUSH0 KECCAK256 DUP2 SWAP1 SSTORE POP PUSH2 0x1388 PUSH1 0x4 DUP2 SWAP1 SSTORE POP PUSH2 0x1D4C PUSH1 0x5 DUP2 SWAP1 SSTORE POP PUSH2 0x5DC PUSH1 0x6 DUP2 SWAP1 SSTORE POP PUSH2 0x3E8 PUSH1 0x7 DUP2 SWAP1 SSTORE POP PUSH1 0x4 PUSH1 0xE DUP2 SWAP1 SSTORE POP DUP6 PUSH1 0x9 PUSH0 PUSH2 0x100 EXP DUP2 SLOAD DUP2 PUSH20 0xFFFFFFFFFFFFFFFFFFFFFFFFFFFFFFFFFFFFFFFF MUL NOT AND SWAP1 DUP4 PUSH20 0xFFFFFFFFFFFFFFFFFFFFFFFFFFFFFFFFFFFFFFFF AND MUL OR SWAP1 SSTORE POP DUP4 ISZERO PUSH2 0x228E JUMPI PUSH0 DUP6 PUSH0 ADD PUSH1 0x8 PUSH2 0x100 EXP DUP2 SLOAD DUP2 PUSH1 0xFF MUL NOT AND SWAP1 DUP4 ISZERO ISZERO MUL OR SWAP1 SSTORE POP PUSH32 0xC7F505B2F371AE2175EE4913F4499E1F2633A7B5936321EED1CDAEB6115181D2 PUSH1 0x1 PUSH1 0x40 MLOAD PUSH2 0x2285 SWAP2 SWAP1 PUSH2 0x4175 JUMP JUMPDEST PUSH1 0x40 MLOAD DUP1 SWAP2 SUB SWAP1 LOG1 JUMPDEST POP POP POP POP POP POP POP POP JUMP JUMPDEST PUSH1 0xF PUSH1 0x20 MSTORE DUP1 PUSH0 MSTORE PUSH1 0x40 PUSH0 KECCAK256 PUSH0 SWAP2 POP SLOAD SWAP1 PUSH2 0x100 EXP SWAP1 DIV PUSH1 0xFF AND DUP2 JUMP JUMPDEST PUSH1 0x6 SLOAD DUP2 JUMP JUMPDEST PUSH2 0x22C3 PUSH2 0x2BEB JUMP JUMPDEST PUSH0 PUSH20 0xFFFFFFFFFFFFFFFFFFFFFFFFFFFFFFFFFFFFFFFF AND DUP2 PUSH20 0xFFFFFFFFFFFFFFFFFFFFFFFFFFFFFFFFFFFFFFFF AND SUB PUSH2 0x2333 JUMPI DUP1 PUSH1 0x40 MLOAD PUSH32 0xE4CFA94D00000000000000000000000000000000000000000000000000000000 DUP2 MSTORE PUSH1 0x4 ADD PUSH2 0x232A SWAP2 SWAP1 PUSH2 0x38A1 JUMP JUMPDEST PUSH1 0x40 MLOAD DUP1 SWAP2 SUB SWAP1 REVERT JUMPDEST DUP1 PUSH1 0xD PUSH0 PUSH2 0x100 EXP DUP2 SLOAD DUP2 PUSH20 0xFFFFFFFFFFFFFFFFFFFFFFFFFFFFFFFFFFFFFFFF MUL NOT AND SWAP1 DUP4 PUSH20 0xFFFFFFFFFFFFFFFFFFFFFFFFFFFFFFFFFFFFFFFF AND MUL OR SWAP1 SSTORE POP PUSH32 0x75F91F3CECB8C46F20150F60F77A6E1F0DE00776627692DB82EF1960AF84C33A CALLER PUSH1 0xD PUSH0 SWAP1 SLOAD SWAP1 PUSH2 0x100 EXP SWAP1 DIV PUSH20 0xFFFFFFFFFFFFFFFFFFFFFFFFFFFFFFFFFFFFFFFF AND PUSH1 0x40 MLOAD PUSH2 0x23C5 SWAP3 SWAP2 SWAP1 PUSH2 0x418E JUMP JUMPDEST PUSH1 0x40 MLOAD DUP1 SWAP2 SUB SWAP1 LOG1 POP JUMP JUMPDEST PUSH2 0x23D8 PUSH2 0x2BEB JUMP JUMPDEST PUSH0 PUSH20 0xFFFFFFFFFFFFFFFFFFFFFFFFFFFFFFFFFFFFFFFF AND DUP3 PUSH20 0xFFFFFFFFFFFFFFFFFFFFFFFFFFFFFFFFFFFFFFFF AND SUB PUSH2 0x2448 JUMPI DUP2 PUSH1 0x40 MLOAD PUSH32 0xE4CFA94D00000000000000000000000000000000000000000000000000000000 DUP2 MSTORE PUSH1 0x4 ADD PUSH2 0x243F SWAP2 SWAP1 PUSH2 0x38A1 JUMP JUMPDEST PUSH1 0x40 MLOAD DUP1 SWAP2 SUB SWAP1 REVERT JUMPDEST PUSH1 0x1 ISZERO ISZERO DUP2 ISZERO ISZERO EQ ISZERO DUP1 ISZERO PUSH2 0x2461 JUMPI POP PUSH0 ISZERO ISZERO DUP2 ISZERO ISZERO EQ ISZERO JUMPDEST ISZERO PUSH2 0x24A3 JUMPI DUP1 PUSH1 0x40 MLOAD PUSH32 0x81ED1AE300000000000000000000000000000000000000000000000000000000 DUP2 MSTORE PUSH1 0x4 ADD PUSH2 0x249A SWAP2 SWAP1 PUSH2 0x38D4 JUMP JUMPDEST PUSH1 0x40 MLOAD DUP1 SWAP2 SUB SWAP1 REVERT JUMPDEST PUSH1 0x1 ISZERO ISZERO DUP2 ISZERO ISZERO SUB PUSH2 0x250B JUMPI PUSH1 0x1 PUSH1 0x12 PUSH0 DUP5 PUSH20 0xFFFFFFFFFFFFFFFFFFFFFFFFFFFFFFFFFFFFFFFF AND PUSH20 0xFFFFFFFFFFFFFFFFFFFFFFFFFFFFFFFFFFFFFFFF AND DUP2 MSTORE PUSH1 0x20 ADD SWAP1 DUP2 MSTORE PUSH1 0x20 ADD PUSH0 KECCAK256 PUSH0 ADD PUSH0 PUSH2 0x100 EXP DUP2 SLOAD DUP2 PUSH1 0xFF MUL NOT AND SWAP1 DUP4 ISZERO ISZERO MUL OR SWAP1 SSTORE POP PUSH2 0x2562 JUMP JUMPDEST PUSH0 PUSH1 0x12 PUSH0 DUP5 PUSH20 0xFFFFFFFFFFFFFFFFFFFFFFFFFFFFFFFFFFFFFFFF AND PUSH20 0xFFFFFFFFFFFFFFFFFFFFFFFFFFFFFFFFFFFFFFFF AND DUP2 MSTORE PUSH1 0x20 ADD SWAP1 DUP2 MSTORE PUSH1 0x20 ADD PUSH0 KECCAK256 PUSH0 ADD PUSH0 PUSH2 0x100 EXP DUP2 SLOAD DUP2 PUSH1 0xFF MUL NOT AND SWAP1 DUP4 ISZERO ISZERO MUL OR SWAP1 SSTORE POP JUMPDEST PUSH32 0x7A1655BC3160D3413BF1D5235E55BE12E01B7E8BC2436A9BFF09C3B4FA2421F1 CALLER DUP4 PUSH1 0x12 PUSH0 DUP7 PUSH20 0xFFFFFFFFFFFFFFFFFFFFFFFFFFFFFFFFFFFFFFFF AND PUSH20 0xFFFFFFFFFFFFFFFFFFFFFFFFFFFFFFFFFFFFFFFF AND DUP2 MSTORE PUSH1 0x20 ADD SWAP1 DUP2 MSTORE PUSH1 0x20 ADD PUSH0 KECCAK256 PUSH0 ADD PUSH0 SWAP1 SLOAD SWAP1 PUSH2 0x100 EXP SWAP1 DIV PUSH1 0xFF AND PUSH1 0x40 MLOAD PUSH2 0x25E0 SWAP4 SWAP3 SWAP2 SWAP1 PUSH2 0x41B5 JUMP JUMPDEST PUSH1 0x40 MLOAD DUP1 SWAP2 SUB SWAP1 LOG1 POP POP JUMP JUMPDEST PUSH2 0x25F4 PUSH2 0x1DE9 JUMP JUMPDEST PUSH20 0xFFFFFFFFFFFFFFFFFFFFFFFFFFFFFFFFFFFFFFFF AND CALLER PUSH20 0xFFFFFFFFFFFFFFFFFFFFFFFFFFFFFFFFFFFFFFFF AND EQ ISZERO DUP1 ISZERO PUSH2 0x267C JUMPI POP PUSH1 0xD PUSH0 SWAP1 SLOAD SWAP1 PUSH2 0x100 EXP SWAP1 DIV PUSH20 0xFFFFFFFFFFFFFFFFFFFFFFFFFFFFFFFFFFFFFFFF AND PUSH20 0xFFFFFFFFFFFFFFFFFFFFFFFFFFFFFFFFFFFFFFFF AND CALLER PUSH20 0xFFFFFFFFFFFFFFFFFFFFFFFFFFFFFFFFFFFFFFFF AND EQ ISZERO JUMPDEST ISZERO PUSH2 0x26BE JUMPI CALLER PUSH1 0x40 MLOAD PUSH32 0xF6B79C5800000000000000000000000000000000000000000000000000000000 DUP2 MSTORE PUSH1 0x4 ADD PUSH2 0x26B5 SWAP2 SWAP1 PUSH2 0x38A1 JUMP JUMPDEST PUSH1 0x40 MLOAD DUP1 SWAP2 SUB SWAP1 REVERT JUMPDEST PUSH0 DUP1 PUSH0 PUSH2 0x26C9 PUSH2 0x30A7 JUMP JUMPDEST SWAP3 POP SWAP3 POP SWAP3 POP PUSH0 PUSH1 0x2 SLOAD GT DUP1 ISZERO PUSH2 0x26E1 JUMPI POP PUSH0 PUSH1 0x1 SLOAD GT JUMPDEST PUSH2 0x2720 JUMPI PUSH1 0x40 MLOAD PUSH32 0x8C379A000000000000000000000000000000000000000000000000000000000 DUP2 MSTORE PUSH1 0x4 ADD PUSH2 0x2717 SWAP1 PUSH2 0x4234 JUMP JUMPDEST PUSH1 0x40 MLOAD DUP1 SWAP2 SUB SWAP1 REVERT JUMPDEST PUSH0 DUP1 PUSH0 SWAP1 POP JUMPDEST PUSH1 0x8 SLOAD DUP2 LT ISZERO PUSH2 0x2A5C JUMPI PUSH1 0x12 PUSH0 PUSH1 0x10 PUSH0 DUP5 DUP2 MSTORE PUSH1 0x20 ADD SWAP1 DUP2 MSTORE PUSH1 0x20 ADD PUSH0 KECCAK256 PUSH0 SWAP1 SLOAD SWAP1 PUSH2 0x100 EXP SWAP1 DIV PUSH20 0xFFFFFFFFFFFFFFFFFFFFFFFFFFFFFFFFFFFFFFFF AND PUSH20 0xFFFFFFFFFFFFFFFFFFFFFFFFFFFFFFFFFFFFFFFF AND PUSH20 0xFFFFFFFFFFFFFFFFFFFFFFFFFFFFFFFFFFFFFFFF AND DUP2 MSTORE PUSH1 0x20 ADD SWAP1 DUP2 MSTORE PUSH1 0x20 ADD PUSH0 KECCAK256 PUSH0 ADD PUSH0 SWAP1 SLOAD SWAP1 PUSH2 0x100 EXP SWAP1 DIV PUSH1 0xFF AND PUSH2 0x2A4F JUMPI PUSH0 PUSH1 0x3 SLOAD PUSH2 0x2710 PUSH1 0x12 PUSH0 PUSH1 0x10 PUSH0 DUP8 DUP2 MSTORE PUSH1 0x20 ADD SWAP1 DUP2 MSTORE PUSH1 0x20 ADD PUSH0 KECCAK256 PUSH0 SWAP1 SLOAD SWAP1 PUSH2 0x100 EXP SWAP1 DIV PUSH20 0xFFFFFFFFFFFFFFFFFFFFFFFFFFFFFFFFFFFFFFFF AND PUSH20 0xFFFFFFFFFFFFFFFFFFFFFFFFFFFFFFFFFFFFFFFF AND PUSH20 0xFFFFFFFFFFFFFFFFFFFFFFFFFFFFFFFFFFFFFFFF AND DUP2 MSTORE PUSH1 0x20 ADD SWAP1 DUP2 MSTORE PUSH1 0x20 ADD PUSH0 KECCAK256 PUSH1 0x5 ADD SLOAD PUSH2 0x2832 SWAP2 SWAP1 PUSH2 0x4252 JUMP JUMPDEST PUSH2 0x283C SWAP2 SWAP1 PUSH2 0x42C0 JUMP JUMPDEST SWAP1 POP PUSH0 PUSH2 0x2849 DUP7 DUP4 PUSH2 0x329F JUMP JUMPDEST SWAP1 POP DUP1 PUSH1 0x2 PUSH0 DUP3 DUP3 SLOAD PUSH2 0x285C SWAP2 SWAP1 PUSH2 0x3EA1 JUMP JUMPDEST SWAP3 POP POP DUP2 SWAP1 SSTORE POP DUP1 DUP5 PUSH2 0x286F SWAP2 SWAP1 PUSH2 0x3F97 JUMP JUMPDEST SWAP4 POP DUP5 PUSH1 0x1 PUSH0 DUP3 DUP3 SLOAD PUSH2 0x2882 SWAP2 SWAP1 PUSH2 0x3EA1 JUMP JUMPDEST SWAP3 POP POP DUP2 SWAP1 SSTORE POP DUP5 PUSH1 0x12 PUSH0 PUSH1 0x10 PUSH0 DUP8 DUP2 MSTORE PUSH1 0x20 ADD SWAP1 DUP2 MSTORE PUSH1 0x20 ADD PUSH0 KECCAK256 PUSH0 SWAP1 SLOAD SWAP1 PUSH2 0x100 EXP SWAP1 DIV PUSH20 0xFFFFFFFFFFFFFFFFFFFFFFFFFFFFFFFFFFFFFFFF AND PUSH20 0xFFFFFFFFFFFFFFFFFFFFFFFFFFFFFFFFFFFFFFFF AND PUSH20 0xFFFFFFFFFFFFFFFFFFFFFFFFFFFFFFFFFFFFFFFF AND DUP2 MSTORE PUSH1 0x20 ADD SWAP1 DUP2 MSTORE PUSH1 0x20 ADD PUSH0 KECCAK256 PUSH1 0x3 ADD DUP2 SWAP1 SSTORE POP DUP1 PUSH1 0x12 PUSH0 PUSH1 0x10 PUSH0 DUP8 DUP2 MSTORE PUSH1 0x20 ADD SWAP1 DUP2 MSTORE PUSH1 0x20 ADD PUSH0 KECCAK256 PUSH0 SWAP1 SLOAD SWAP1 PUSH2 0x100 EXP SWAP1 DIV PUSH20 0xFFFFFFFFFFFFFFFFFFFFFFFFFFFFFFFFFFFFFFFF AND PUSH20 0xFFFFFFFFFFFFFFFFFFFFFFFFFFFFFFFFFFFFFFFF AND PUSH20 0xFFFFFFFFFFFFFFFFFFFFFFFFFFFFFFFFFFFFFFFF AND DUP2 MSTORE PUSH1 0x20 ADD SWAP1 DUP2 MSTORE PUSH1 0x20 ADD PUSH0 KECCAK256 PUSH1 0x4 ADD DUP2 SWAP1 SSTORE POP PUSH0 DUP6 DUP3 PUSH2 0x2980 SWAP2 SWAP1 PUSH2 0x3F97 JUMP JUMPDEST SWAP1 POP DUP1 PUSH1 0x12 PUSH0 PUSH1 0x10 PUSH0 DUP9 DUP2 MSTORE PUSH1 0x20 ADD SWAP1 DUP2 MSTORE PUSH1 0x20 ADD PUSH0 KECCAK256 PUSH0 SWAP1 SLOAD SWAP1 PUSH2 0x100 EXP SWAP1 DIV PUSH20 0xFFFFFFFFFFFFFFFFFFFFFFFFFFFFFFFFFFFFFFFF AND PUSH20 0xFFFFFFFFFFFFFFFFFFFFFFFFFFFFFFFFFFFFFFFF AND PUSH20 0xFFFFFFFFFFFFFFFFFFFFFFFFFFFFFFFFFFFFFFFF AND DUP2 MSTORE PUSH1 0x20 ADD SWAP1 DUP2 MSTORE PUSH1 0x20 ADD PUSH0 KECCAK256 PUSH1 0x1 ADD PUSH0 DUP3 DUP3 SLOAD PUSH2 0x2A01 SWAP2 SWAP1 PUSH2 0x3F97 JUMP JUMPDEST SWAP3 POP POP DUP2 SWAP1 SSTORE POP DUP8 DUP6 GT ISZERO PUSH2 0x2A4B JUMPI PUSH1 0x40 MLOAD PUSH32 0x8C379A000000000000000000000000000000000000000000000000000000000 DUP2 MSTORE PUSH1 0x4 ADD PUSH2 0x2A42 SWAP1 PUSH2 0x433A JUMP JUMPDEST PUSH1 0x40 MLOAD DUP1 SWAP2 SUB SWAP1 REVERT JUMPDEST POP POP POP JUMPDEST DUP1 DUP1 PUSH1 0x1 ADD SWAP2 POP POP PUSH2 0x2726 JUMP JUMPDEST POP PUSH32 0xEE826440768329B0C72F81331212EE31FCDAC1EA79A248D24821E40C34E58020 CALLER PUSH1 0x2 SLOAD PUSH1 0x1 SLOAD PUSH1 0x40 MLOAD PUSH2 0x2A94 SWAP4 SWAP3 SWAP2 SWAP1 PUSH2 0x403E JUMP JUMPDEST PUSH1 0x40 MLOAD DUP1 SWAP2 SUB SWAP1 LOG1 POP POP POP POP JUMP JUMPDEST PUSH2 0x2AAA PUSH2 0x2BEB JUMP JUMPDEST PUSH0 DUP2 GT PUSH2 0x2AEE JUMPI DUP1 PUSH1 0x40 MLOAD PUSH32 0xCDBC633500000000000000000000000000000000000000000000000000000000 DUP2 MSTORE PUSH1 0x4 ADD PUSH2 0x2AE5 SWAP2 SWAP1 PUSH2 0x376F JUMP JUMPDEST PUSH1 0x40 MLOAD DUP1 SWAP2 SUB SWAP1 REVERT JUMPDEST DUP1 PUSH1 0x11 PUSH0 DUP5 DUP2 MSTORE PUSH1 0x20 ADD SWAP1 DUP2 MSTORE PUSH1 0x20 ADD PUSH0 KECCAK256 DUP2 SWAP1 SSTORE POP PUSH32 0xB5671393C7C6980552E50A31E778921EB17D764C2E98FBF4D44FFF524712DEF9 CALLER PUSH1 0x11 PUSH0 DUP6 DUP2 MSTORE PUSH1 0x20 ADD SWAP1 DUP2 MSTORE PUSH1 0x20 ADD PUSH0 KECCAK256 SLOAD PUSH1 0x40 MLOAD PUSH2 0x2B46 SWAP3 SWAP2 SWAP1 PUSH2 0x4073 JUMP JUMPDEST PUSH1 0x40 MLOAD DUP1 SWAP2 SUB SWAP1 LOG1 POP POP JUMP JUMPDEST PUSH2 0x2B5A PUSH2 0x2BEB JUMP JUMPDEST PUSH0 PUSH20 0xFFFFFFFFFFFFFFFFFFFFFFFFFFFFFFFFFFFFFFFF AND DUP2 PUSH20 0xFFFFFFFFFFFFFFFFFFFFFFFFFFFFFFFFFFFFFFFF AND SUB PUSH2 0x2BCA JUMPI PUSH0 PUSH1 0x40 MLOAD PUSH32 0x1E4FBDF700000000000000000000000000000000000000000000000000000000 DUP2 MSTORE PUSH1 0x4 ADD PUSH2 0x2BC1 SWAP2 SWAP1 PUSH2 0x38A1 JUMP JUMPDEST PUSH1 0x40 MLOAD DUP1 SWAP2 SUB SWAP1 REVERT JUMPDEST PUSH2 0x2BD3 DUP2 PUSH2 0x2F08 JUMP JUMPDEST POP JUMP JUMPDEST PUSH1 0x11 PUSH1 0x20 MSTORE DUP1 PUSH0 MSTORE PUSH1 0x40 PUSH0 KECCAK256 PUSH0 SWAP2 POP SWAP1 POP SLOAD DUP2 JUMP JUMPDEST PUSH2 0x2BF3 PUSH2 0x334A JUMP JUMPDEST PUSH20 0xFFFFFFFFFFFFFFFFFFFFFFFFFFFFFFFFFFFFFFFF AND PUSH2 0x2C11 PUSH2 0x1DE9 JUMP JUMPDEST PUSH20 0xFFFFFFFFFFFFFFFFFFFFFFFFFFFFFFFFFFFFFFFF AND EQ PUSH2 0x2C70 JUMPI PUSH2 0x2C34 PUSH2 0x334A JUMP JUMPDEST PUSH1 0x40 MLOAD PUSH32 0x118CDAA700000000000000000000000000000000000000000000000000000000 DUP2 MSTORE PUSH1 0x4 ADD PUSH2 0x2C67 SWAP2 SWAP1 PUSH2 0x38A1 JUMP JUMPDEST PUSH1 0x40 MLOAD DUP1 SWAP2 SUB SWAP1 REVERT JUMPDEST JUMP JUMPDEST PUSH32 0x0 PUSH20 0xFFFFFFFFFFFFFFFFFFFFFFFFFFFFFFFFFFFFFFFF AND ADDRESS PUSH20 0xFFFFFFFFFFFFFFFFFFFFFFFFFFFFFFFFFFFFFFFF AND EQ DUP1 PUSH2 0x2D1F JUMPI POP PUSH32 0x0 PUSH20 0xFFFFFFFFFFFFFFFFFFFFFFFFFFFFFFFFFFFFFFFF AND PUSH2 0x2D06 PUSH2 0x3351 JUMP JUMPDEST PUSH20 0xFFFFFFFFFFFFFFFFFFFFFFFFFFFFFFFFFFFFFFFF AND EQ ISZERO JUMPDEST ISZERO PUSH2 0x2D56 JUMPI PUSH1 0x40 MLOAD PUSH32 0xE07C8DBA00000000000000000000000000000000000000000000000000000000 DUP2 MSTORE PUSH1 0x4 ADD PUSH1 0x40 MLOAD DUP1 SWAP2 SUB SWAP1 REVERT JUMPDEST JUMP JUMPDEST PUSH2 0x2D60 PUSH2 0x2BEB JUMP JUMPDEST POP JUMP JUMPDEST DUP2 PUSH20 0xFFFFFFFFFFFFFFFFFFFFFFFFFFFFFFFFFFFFFFFF AND PUSH4 0x52D1902D PUSH1 0x40 MLOAD DUP2 PUSH4 0xFFFFFFFF AND PUSH1 0xE0 SHL DUP2 MSTORE PUSH1 0x4 ADD PUSH1 0x20 PUSH1 0x40 MLOAD DUP1 DUP4 SUB DUP2 DUP7 GAS STATICCALL SWAP3 POP POP POP DUP1 ISZERO PUSH2 0x2DCB JUMPI POP PUSH1 0x40 MLOAD RETURNDATASIZE PUSH1 0x1F NOT PUSH1 0x1F DUP3 ADD AND DUP3 ADD DUP1 PUSH1 0x40 MSTORE POP DUP2 ADD SWAP1 PUSH2 0x2DC8 SWAP2 SWAP1 PUSH2 0x4382 JUMP JUMPDEST PUSH1 0x1 JUMPDEST PUSH2 0x2E0C JUMPI DUP2 PUSH1 0x40 MLOAD PUSH32 0x4C9C8CE300000000000000000000000000000000000000000000000000000000 DUP2 MSTORE PUSH1 0x4 ADD PUSH2 0x2E03 SWAP2 SWAP1 PUSH2 0x38A1 JUMP JUMPDEST PUSH1 0x40 MLOAD DUP1 SWAP2 SUB SWAP1 REVERT JUMPDEST PUSH32 0x360894A13BA1A3210667C828492DB98DCA3E2076CC3735A920A3CA505D382BBC PUSH0 SHL DUP2 EQ PUSH2 0x2E72 JUMPI DUP1 PUSH1 0x40 MLOAD PUSH32 0xAA1D49A400000000000000000000000000000000000000000000000000000000 DUP2 MSTORE PUSH1 0x4 ADD PUSH2 0x2E69 SWAP2 SWAP1 PUSH2 0x3B6D JUMP JUMPDEST PUSH1 0x40 MLOAD DUP1 SWAP2 SUB SWAP1 REVERT JUMPDEST PUSH2 0x2E7C DUP4 DUP4 PUSH2 0x33A4 JUMP JUMPDEST POP POP POP JUMP JUMPDEST PUSH32 0x0 PUSH20 0xFFFFFFFFFFFFFFFFFFFFFFFFFFFFFFFFFFFFFFFF AND ADDRESS PUSH20 0xFFFFFFFFFFFFFFFFFFFFFFFFFFFFFFFFFFFFFFFF AND EQ PUSH2 0x2F06 JUMPI PUSH1 0x40 MLOAD PUSH32 0xE07C8DBA00000000000000000000000000000000000000000000000000000000 DUP2 MSTORE PUSH1 0x4 ADD PUSH1 0x40 MLOAD DUP1 SWAP2 SUB SWAP1 REVERT JUMPDEST JUMP JUMPDEST PUSH0 PUSH2 0x2F11 PUSH2 0x303B JUMP JUMPDEST SWAP1 POP PUSH0 DUP2 PUSH0 ADD PUSH0 SWAP1 SLOAD SWAP1 PUSH2 0x100 EXP SWAP1 DIV PUSH20 0xFFFFFFFFFFFFFFFFFFFFFFFFFFFFFFFFFFFFFFFF AND SWAP1 POP DUP3 DUP3 PUSH0 ADD PUSH0 PUSH2 0x100 EXP DUP2 SLOAD DUP2 PUSH20 0xFFFFFFFFFFFFFFFFFFFFFFFFFFFFFFFFFFFFFFFF MUL NOT AND SWAP1 DUP4 PUSH20 0xFFFFFFFFFFFFFFFFFFFFFFFFFFFFFFFFFFFFFFFF AND MUL OR SWAP1 SSTORE POP DUP3 PUSH20 0xFFFFFFFFFFFFFFFFFFFFFFFFFFFFFFFFFFFFFFFF AND DUP2 PUSH20 0xFFFFFFFFFFFFFFFFFFFFFFFFFFFFFFFFFFFFFFFF AND PUSH32 0x8BE0079C531659141344CD1FD0A4F28419497F9722A3DAAFE3B4186F6B6457E0 PUSH1 0x40 MLOAD PUSH1 0x40 MLOAD DUP1 SWAP2 SUB SWAP1 LOG3 POP POP POP JUMP JUMPDEST PUSH0 DUP2 PUSH2 0x2710 PUSH2 0x2FE8 SWAP2 SWAP1 PUSH2 0x3EA1 JUMP JUMPDEST SWAP1 POP PUSH0 PUSH2 0x2FF5 DUP5 DUP4 PUSH2 0x329F JUMP JUMPDEST SWAP1 POP PUSH0 PUSH2 0x3002 DUP6 DUP6 PUSH2 0x329F JUMP JUMPDEST SWAP1 POP DUP2 PUSH1 0x2 PUSH0 DUP3 DUP3 SLOAD PUSH2 0x3015 SWAP2 SWAP1 PUSH2 0x3F97 JUMP JUMPDEST SWAP3 POP POP DUP2 SWAP1 SSTORE POP DUP1 PUSH1 0x1 PUSH0 DUP3 DUP3 SLOAD PUSH2 0x302D SWAP2 SWAP1 PUSH2 0x3F97 JUMP JUMPDEST SWAP3 POP POP DUP2 SWAP1 SSTORE POP POP POP POP POP POP JUMP JUMPDEST PUSH0 PUSH32 0x9016D09D72D40FDAE2FD8CEAC6B6234C7706214FD39C1CD1E609A0528C199300 SWAP1 POP SWAP1 JUMP JUMPDEST PUSH0 PUSH32 0xF0C57E16840DF040F15088DC2F81FE391C3923BEC73E23A9662EFC9C229C6A00 SWAP1 POP SWAP1 JUMP JUMPDEST PUSH2 0x3091 PUSH2 0x3416 JUMP JUMPDEST PUSH2 0x309A DUP2 PUSH2 0x3456 JUMP JUMPDEST POP JUMP JUMPDEST PUSH2 0x30A5 PUSH2 0x3416 JUMP JUMPDEST JUMP JUMPDEST PUSH0 DUP1 PUSH0 DUP1 PUSH2 0x30B9 PUSH1 0x2 SLOAD PUSH2 0x1388 PUSH2 0x329F JUMP JUMPDEST SWAP1 POP PUSH0 PUSH2 0x30C8 DUP3 PUSH1 0x5 SLOAD PUSH2 0x329F JUMP JUMPDEST SWAP1 POP PUSH0 PUSH2 0x30D7 DUP4 PUSH1 0x6 SLOAD PUSH2 0x329F JUMP JUMPDEST SWAP1 POP PUSH0 PUSH2 0x30E6 DUP5 PUSH1 0x7 SLOAD PUSH2 0x329F JUMP JUMPDEST SWAP1 POP PUSH0 PUSH2 0x30F7 PUSH1 0x1 SLOAD PUSH1 0x4 SLOAD PUSH2 0x329F JUMP JUMPDEST SWAP1 POP PUSH0 PUSH1 0x8 SLOAD GT PUSH2 0x313D JUMPI PUSH1 0x40 MLOAD PUSH32 0x8C379A000000000000000000000000000000000000000000000000000000000 DUP2 MSTORE PUSH1 0x4 ADD PUSH2 0x3134 SWAP1 PUSH2 0x43F7 JUMP JUMPDEST PUSH1 0x40 MLOAD DUP1 SWAP2 SUB SWAP1 REVERT JUMPDEST PUSH0 PUSH1 0x8 SLOAD DUP3 PUSH2 0x314C SWAP2 SWAP1 PUSH2 0x42C0 JUMP JUMPDEST SWAP1 POP DUP3 DUP5 PUSH2 0x315A SWAP2 SWAP1 PUSH2 0x3F97 JUMP JUMPDEST PUSH1 0x2 PUSH0 DUP3 DUP3 SLOAD PUSH2 0x316A SWAP2 SWAP1 PUSH2 0x3EA1 JUMP JUMPDEST SWAP3 POP POP DUP2 SWAP1 SSTORE POP DUP4 PUSH1 0x1 PUSH0 DUP3 DUP3 SLOAD PUSH2 0x3182 SWAP2 SWAP1 PUSH2 0x3F97 JUMP JUMPDEST SWAP3 POP POP DUP2 SWAP1 SSTORE POP PUSH0 DUP1 PUSH0 SWAP1 SLOAD SWAP1 PUSH2 0x100 EXP SWAP1 DIV PUSH20 0xFFFFFFFFFFFFFFFFFFFFFFFFFFFFFFFFFFFFFFFF AND PUSH20 0xFFFFFFFFFFFFFFFFFFFFFFFFFFFFFFFFFFFFFFFF AND PUSH4 0xA9059CBB PUSH1 0x9 PUSH0 SWAP1 SLOAD SWAP1 PUSH2 0x100 EXP SWAP1 DIV PUSH20 0xFFFFFFFFFFFFFFFFFFFFFFFFFFFFFFFFFFFFFFFF AND DUP7 PUSH1 0x40 MLOAD DUP4 PUSH4 0xFFFFFFFF AND PUSH1 0xE0 SHL DUP2 MSTORE PUSH1 0x4 ADD PUSH2 0x3206 SWAP3 SWAP2 SWAP1 PUSH2 0x4073 JUMP JUMPDEST PUSH1 0x20 PUSH1 0x40 MLOAD DUP1 DUP4 SUB DUP2 PUSH0 DUP8 GAS CALL ISZERO DUP1 ISZERO PUSH2 0x3222 JUMPI RETURNDATASIZE PUSH0 DUP1 RETURNDATACOPY RETURNDATASIZE PUSH0 REVERT JUMPDEST POP POP POP POP PUSH1 0x40 MLOAD RETURNDATASIZE PUSH1 0x1F NOT PUSH1 0x1F DUP3 ADD AND DUP3 ADD DUP1 PUSH1 0x40 MSTORE POP DUP2 ADD SWAP1 PUSH2 0x3246 SWAP2 SWAP1 PUSH2 0x4013 JUMP JUMPDEST SWAP1 POP DUP1 PUSH2 0x328A JUMPI DUP1 PUSH1 0x40 MLOAD PUSH32 0xD85D3CEF00000000000000000000000000000000000000000000000000000000 DUP2 MSTORE PUSH1 0x4 ADD PUSH2 0x3281 SWAP2 SWAP1 PUSH2 0x38D4 JUMP JUMPDEST PUSH1 0x40 MLOAD DUP1 SWAP2 SUB SWAP1 REVERT JUMPDEST DUP7 DUP7 DUP4 SWAP10 POP SWAP10 POP SWAP10 POP POP POP POP POP POP POP POP SWAP1 SWAP2 SWAP3 JUMP JUMPDEST PUSH0 DUP1 DUP4 SUB PUSH2 0x32E2 JUMPI PUSH1 0x40 MLOAD PUSH32 0x8C379A000000000000000000000000000000000000000000000000000000000 DUP2 MSTORE PUSH1 0x4 ADD PUSH2 0x32D9 SWAP1 PUSH2 0x4485 JUMP JUMPDEST PUSH1 0x40 MLOAD DUP1 SWAP2 SUB SWAP1 REVERT JUMPDEST PUSH0 DUP3 SUB PUSH2 0x3324 JUMPI PUSH1 0x40 MLOAD PUSH32 0x8C379A000000000000000000000000000000000000000000000000000000000 DUP2 MSTORE PUSH1 0x4 ADD PUSH2 0x331B SWAP1 PUSH2 0x4485 JUMP JUMPDEST PUSH1 0x40 MLOAD DUP1 SWAP2 SUB SWAP1 REVERT JUMPDEST PUSH0 PUSH2 0x2710 DUP4 DUP6 PUSH2 0x3334 SWAP2 SWAP1 PUSH2 0x4252 JUMP JUMPDEST PUSH2 0x333E SWAP2 SWAP1 PUSH2 0x42C0 JUMP JUMPDEST SWAP1 POP DUP1 SWAP2 POP POP SWAP3 SWAP2 POP POP JUMP JUMPDEST PUSH0 CALLER SWAP1 POP SWAP1 JUMP JUMPDEST PUSH0 PUSH2 0x337D PUSH32 0x360894A13BA1A3210667C828492DB98DCA3E2076CC3735A920A3CA505D382BBC PUSH0 SHL PUSH2 0x34DA JUMP JUMPDEST PUSH0 ADD PUSH0 SWAP1 SLOAD SWAP1 PUSH2 0x100 EXP SWAP1 DIV PUSH20 0xFFFFFFFFFFFFFFFFFFFFFFFFFFFFFFFFFFFFFFFF AND SWAP1 POP SWAP1 JUMP JUMPDEST PUSH2 0x33AD DUP3 PUSH2 0x34E3 JUMP JUMPDEST DUP2 PUSH20 0xFFFFFFFFFFFFFFFFFFFFFFFFFFFFFFFFFFFFFFFF AND PUSH32 0xBC7CD75A20EE27FD9ADEBAB32041F755214DBC6BFFA90CC0225B39DA2E5C2D3B PUSH1 0x40 MLOAD PUSH1 0x40 MLOAD DUP1 SWAP2 SUB SWAP1 LOG2 PUSH0 DUP2 MLOAD GT ISZERO PUSH2 0x3409 JUMPI PUSH2 0x3403 DUP3 DUP3 PUSH2 0x35AC JUMP JUMPDEST POP PUSH2 0x3412 JUMP JUMPDEST PUSH2 0x3411 PUSH2 0x362C JUMP JUMPDEST JUMPDEST POP POP JUMP JUMPDEST PUSH2 0x341E PUSH2 0x3668 JUMP JUMPDEST PUSH2 0x3454 JUMPI PUSH1 0x40 MLOAD PUSH32 0xD7E6BCF800000000000000000000000000000000000000000000000000000000 DUP2 MSTORE PUSH1 0x4 ADD PUSH1 0x40 MLOAD DUP1 SWAP2 SUB SWAP1 REVERT JUMPDEST JUMP JUMPDEST PUSH2 0x345E PUSH2 0x3416 JUMP JUMPDEST PUSH0 PUSH20 0xFFFFFFFFFFFFFFFFFFFFFFFFFFFFFFFFFFFFFFFF AND DUP2 PUSH20 0xFFFFFFFFFFFFFFFFFFFFFFFFFFFFFFFFFFFFFFFF AND SUB PUSH2 0x34CE JUMPI PUSH0 PUSH1 0x40 MLOAD PUSH32 0x1E4FBDF700000000000000000000000000000000000000000000000000000000 DUP2 MSTORE PUSH1 0x4 ADD PUSH2 0x34C5 SWAP2 SWAP1 PUSH2 0x38A1 JUMP JUMPDEST PUSH1 0x40 MLOAD DUP1 SWAP2 SUB SWAP1 REVERT JUMPDEST PUSH2 0x34D7 DUP2 PUSH2 0x2F08 JUMP JUMPDEST POP JUMP JUMPDEST PUSH0 DUP2 SWAP1 POP SWAP2 SWAP1 POP JUMP JUMPDEST PUSH0 DUP2 PUSH20 0xFFFFFFFFFFFFFFFFFFFFFFFFFFFFFFFFFFFFFFFF AND EXTCODESIZE SUB PUSH2 0x353E JUMPI DUP1 PUSH1 0x40 MLOAD PUSH32 0x4C9C8CE300000000000000000000000000000000000000000000000000000000 DUP2 MSTORE PUSH1 0x4 ADD PUSH2 0x3535 SWAP2 SWAP1 PUSH2 0x38A1 JUMP JUMPDEST PUSH1 0x40 MLOAD DUP1 SWAP2 SUB SWAP1 REVERT JUMPDEST DUP1 PUSH2 0x356A PUSH32 0x360894A13BA1A3210667C828492DB98DCA3E2076CC3735A920A3CA505D382BBC PUSH0 SHL PUSH2 0x34DA JUMP JUMPDEST PUSH0 ADD PUSH0 PUSH2 0x100 EXP DUP2 SLOAD DUP2 PUSH20 0xFFFFFFFFFFFFFFFFFFFFFFFFFFFFFFFFFFFFFFFF MUL NOT AND SWAP1 DUP4 PUSH20 0xFFFFFFFFFFFFFFFFFFFFFFFFFFFFFFFFFFFFFFFF AND MUL OR SWAP1 SSTORE POP POP JUMP JUMPDEST PUSH1 0x60 PUSH0 DUP1 DUP5 PUSH20 0xFFFFFFFFFFFFFFFFFFFFFFFFFFFFFFFFFFFFFFFF AND DUP5 PUSH1 0x40 MLOAD PUSH2 0x35D5 SWAP2 SWAP1 PUSH2 0x44DD JUMP JUMPDEST PUSH0 PUSH1 0x40 MLOAD DUP1 DUP4 SUB DUP2 DUP6 GAS DELEGATECALL SWAP2 POP POP RETURNDATASIZE DUP1 PUSH0 DUP2 EQ PUSH2 0x360D JUMPI PUSH1 0x40 MLOAD SWAP2 POP PUSH1 0x1F NOT PUSH1 0x3F RETURNDATASIZE ADD AND DUP3 ADD PUSH1 0x40 MSTORE RETURNDATASIZE DUP3 MSTORE RETURNDATASIZE PUSH0 PUSH1 0x20 DUP5 ADD RETURNDATACOPY PUSH2 0x3612 JUMP JUMPDEST PUSH1 0x60 SWAP2 POP JUMPDEST POP SWAP2 POP SWAP2 POP PUSH2 0x3622 DUP6 DUP4 DUP4 PUSH2 0x3686 JUMP JUMPDEST SWAP3 POP POP POP SWAP3 SWAP2 POP POP JUMP JUMPDEST PUSH0 CALLVALUE GT ISZERO PUSH2 0x3666 JUMPI PUSH1 0x40 MLOAD PUSH32 0xB398979F00000000000000000000000000000000000000000000000000000000 DUP2 MSTORE PUSH1 0x4 ADD PUSH1 0x40 MLOAD DUP1 SWAP2 SUB SWAP1 REVERT JUMPDEST JUMP JUMPDEST PUSH0 PUSH2 0x3671 PUSH2 0x3062 JUMP JUMPDEST PUSH0 ADD PUSH1 0x8 SWAP1 SLOAD SWAP1 PUSH2 0x100 EXP SWAP1 DIV PUSH1 0xFF AND SWAP1 POP SWAP1 JUMP JUMPDEST PUSH1 0x60 DUP3 PUSH2 0x369B JUMPI PUSH2 0x3696 DUP3 PUSH2 0x3713 JUMP JUMPDEST PUSH2 0x370B JUMP JUMPDEST PUSH0 DUP3 MLOAD EQ DUP1 ISZERO PUSH2 0x36C1 JUMPI POP PUSH0 DUP5 PUSH20 0xFFFFFFFFFFFFFFFFFFFFFFFFFFFFFFFFFFFFFFFF AND EXTCODESIZE EQ JUMPDEST ISZERO PUSH2 0x3703 JUMPI DUP4 PUSH1 0x40 MLOAD PUSH32 0x9996B31500000000000000000000000000000000000000000000000000000000 DUP2 MSTORE PUSH1 0x4 ADD PUSH2 0x36FA SWAP2 SWAP1 PUSH2 0x38A1 JUMP JUMPDEST PUSH1 0x40 MLOAD DUP1 SWAP2 SUB SWAP1 REVERT JUMPDEST DUP2 SWAP1 POP PUSH2 0x370C JUMP JUMPDEST JUMPDEST SWAP4 SWAP3 POP POP POP JUMP JUMPDEST PUSH0 DUP2 MLOAD GT ISZERO PUSH2 0x3725 JUMPI DUP1 MLOAD DUP1 DUP3 PUSH1 0x20 ADD REVERT JUMPDEST PUSH1 0x40 MLOAD PUSH32 0x1425EA4200000000000000000000000000000000000000000000000000000000 DUP2 MSTORE PUSH1 0x4 ADD PUSH1 0x40 MLOAD DUP1 SWAP2 SUB SWAP1 REVERT JUMPDEST PUSH0 DUP2 SWAP1 POP SWAP2 SWAP1 POP JUMP JUMPDEST PUSH2 0x3769 DUP2 PUSH2 0x3757 JUMP JUMPDEST DUP3 MSTORE POP POP JUMP JUMPDEST PUSH0 PUSH1 0x20 DUP3 ADD SWAP1 POP PUSH2 0x3782 PUSH0 DUP4 ADD DUP5 PUSH2 0x3760 JUMP JUMPDEST SWAP3 SWAP2 POP POP JUMP JUMPDEST PUSH0 PUSH20 0xFFFFFFFFFFFFFFFFFFFFFFFFFFFFFFFFFFFFFFFF DUP3 AND SWAP1 POP SWAP2 SWAP1 POP JUMP JUMPDEST PUSH0 DUP2 SWAP1 POP SWAP2 SWAP1 POP JUMP JUMPDEST PUSH0 PUSH2 0x37CA PUSH2 0x37C5 PUSH2 0x37C0 DUP5 PUSH2 0x3788 JUMP JUMPDEST PUSH2 0x37A7 JUMP JUMPDEST PUSH2 0x3788 JUMP JUMPDEST SWAP1 POP SWAP2 SWAP1 POP JUMP JUMPDEST PUSH0 PUSH2 0x37DB DUP3 PUSH2 0x37B0 JUMP JUMPDEST SWAP1 POP SWAP2 SWAP1 POP JUMP JUMPDEST PUSH0 PUSH2 0x37EC DUP3 PUSH2 0x37D1 JUMP JUMPDEST SWAP1 POP SWAP2 SWAP1 POP JUMP JUMPDEST PUSH2 0x37FC DUP2 PUSH2 0x37E2 JUMP JUMPDEST DUP3 MSTORE POP POP JUMP JUMPDEST PUSH0 PUSH1 0x20 DUP3 ADD SWAP1 POP PUSH2 0x3815 PUSH0 DUP4 ADD DUP5 PUSH2 0x37F3 JUMP JUMPDEST SWAP3 SWAP2 POP POP JUMP JUMPDEST PUSH0 PUSH1 0x40 MLOAD SWAP1 POP SWAP1 JUMP JUMPDEST PUSH0 DUP1 REVERT JUMPDEST PUSH0 DUP1 REVERT JUMPDEST PUSH2 0x3835 DUP2 PUSH2 0x3757 JUMP JUMPDEST DUP2 EQ PUSH2 0x383F JUMPI PUSH0 DUP1 REVERT JUMPDEST POP JUMP JUMPDEST PUSH0 DUP2 CALLDATALOAD SWAP1 POP PUSH2 0x3850 DUP2 PUSH2 0x382C JUMP JUMPDEST SWAP3 SWAP2 POP POP JUMP JUMPDEST PUSH0 PUSH1 0x20 DUP3 DUP5 SUB SLT ISZERO PUSH2 0x386B JUMPI PUSH2 0x386A PUSH2 0x3824 JUMP JUMPDEST JUMPDEST PUSH0 PUSH2 0x3878 DUP5 DUP3 DUP6 ADD PUSH2 0x3842 JUMP JUMPDEST SWAP2 POP POP SWAP3 SWAP2 POP POP JUMP JUMPDEST PUSH0 PUSH2 0x388B DUP3 PUSH2 0x3788 JUMP JUMPDEST SWAP1 POP SWAP2 SWAP1 POP JUMP JUMPDEST PUSH2 0x389B DUP2 PUSH2 0x3881 JUMP JUMPDEST DUP3 MSTORE POP POP JUMP JUMPDEST PUSH0 PUSH1 0x20 DUP3 ADD SWAP1 POP PUSH2 0x38B4 PUSH0 DUP4 ADD DUP5 PUSH2 0x3892 JUMP JUMPDEST SWAP3 SWAP2 POP POP JUMP JUMPDEST PUSH0 DUP2 ISZERO ISZERO SWAP1 POP SWAP2 SWAP1 POP JUMP JUMPDEST PUSH2 0x38CE DUP2 PUSH2 0x38BA JUMP JUMPDEST DUP3 MSTORE POP POP JUMP JUMPDEST PUSH0 PUSH1 0x20 DUP3 ADD SWAP1 POP PUSH2 0x38E7 PUSH0 DUP4 ADD DUP5 PUSH2 0x38C5 JUMP JUMPDEST SWAP3 SWAP2 POP POP JUMP JUMPDEST PUSH0 DUP1 REVERT JUMPDEST PUSH0 DUP1 REVERT JUMPDEST PUSH0 DUP1 REVERT JUMPDEST PUSH0 DUP1 DUP4 PUSH1 0x1F DUP5 ADD SLT PUSH2 0x390E JUMPI PUSH2 0x390D PUSH2 0x38ED JUMP JUMPDEST JUMPDEST DUP3 CALLDATALOAD SWAP1 POP PUSH8 0xFFFFFFFFFFFFFFFF DUP2 GT ISZERO PUSH2 0x392B JUMPI PUSH2 0x392A PUSH2 0x38F1 JUMP JUMPDEST JUMPDEST PUSH1 0x20 DUP4 ADD SWAP2 POP DUP4 PUSH1 0x1 DUP3 MUL DUP4 ADD GT ISZERO PUSH2 0x3947 JUMPI PUSH2 0x3946 PUSH2 0x38F5 JUMP JUMPDEST JUMPDEST SWAP3 POP SWAP3 SWAP1 POP JUMP JUMPDEST PUSH0 DUP1 PUSH1 0x20 DUP4 DUP6 SUB SLT ISZERO PUSH2 0x3964 JUMPI PUSH2 0x3963 PUSH2 0x3824 JUMP JUMPDEST JUMPDEST PUSH0 DUP4 ADD CALLDATALOAD PUSH8 0xFFFFFFFFFFFFFFFF DUP2 GT ISZERO PUSH2 0x3981 JUMPI PUSH2 0x3980 PUSH2 0x3828 JUMP JUMPDEST JUMPDEST PUSH2 0x398D DUP6 DUP3 DUP7 ADD PUSH2 0x38F9 JUMP JUMPDEST SWAP3 POP SWAP3 POP POP SWAP3 POP SWAP3 SWAP1 POP JUMP JUMPDEST PUSH2 0x39A2 DUP2 PUSH2 0x3881 JUMP JUMPDEST DUP2 EQ PUSH2 0x39AC JUMPI PUSH0 DUP1 REVERT JUMPDEST POP JUMP JUMPDEST PUSH0 DUP2 CALLDATALOAD SWAP1 POP PUSH2 0x39BD DUP2 PUSH2 0x3999 JUMP JUMPDEST SWAP3 SWAP2 POP POP JUMP JUMPDEST PUSH0 DUP1 REVERT JUMPDEST PUSH0 PUSH1 0x1F NOT PUSH1 0x1F DUP4 ADD AND SWAP1 POP SWAP2 SWAP1 POP JUMP JUMPDEST PUSH32 0x4E487B7100000000000000000000000000000000000000000000000000000000 PUSH0 MSTORE PUSH1 0x41 PUSH1 0x4 MSTORE PUSH1 0x24 PUSH0 REVERT JUMPDEST PUSH2 0x3A0D DUP3 PUSH2 0x39C7 JUMP JUMPDEST DUP2 ADD DUP2 DUP2 LT PUSH8 0xFFFFFFFFFFFFFFFF DUP3 GT OR ISZERO PUSH2 0x3A2C JUMPI PUSH2 0x3A2B PUSH2 0x39D7 JUMP JUMPDEST JUMPDEST DUP1 PUSH1 0x40 MSTORE POP POP POP JUMP JUMPDEST PUSH0 PUSH2 0x3A3E PUSH2 0x381B JUMP JUMPDEST SWAP1 POP PUSH2 0x3A4A DUP3 DUP3 PUSH2 0x3A04 JUMP JUMPDEST SWAP2 SWAP1 POP JUMP JUMPDEST PUSH0 PUSH8 0xFFFFFFFFFFFFFFFF DUP3 GT ISZERO PUSH2 0x3A69 JUMPI PUSH2 0x3A68 PUSH2 0x39D7 JUMP JUMPDEST JUMPDEST PUSH2 0x3A72 DUP3 PUSH2 0x39C7 JUMP JUMPDEST SWAP1 POP PUSH1 0x20 DUP2 ADD SWAP1 POP SWAP2 SWAP1 POP JUMP JUMPDEST DUP3 DUP2 DUP4 CALLDATACOPY PUSH0 DUP4 DUP4 ADD MSTORE POP POP POP JUMP JUMPDEST PUSH0 PUSH2 0x3A9F PUSH2 0x3A9A DUP5 PUSH2 0x3A4F JUMP JUMPDEST PUSH2 0x3A35 JUMP JUMPDEST SWAP1 POP DUP3 DUP2 MSTORE PUSH1 0x20 DUP2 ADD DUP5 DUP5 DUP5 ADD GT ISZERO PUSH2 0x3ABB JUMPI PUSH2 0x3ABA PUSH2 0x39C3 JUMP JUMPDEST JUMPDEST PUSH2 0x3AC6 DUP5 DUP3 DUP6 PUSH2 0x3A7F JUMP JUMPDEST POP SWAP4 SWAP3 POP POP POP JUMP JUMPDEST PUSH0 DUP3 PUSH1 0x1F DUP4 ADD SLT PUSH2 0x3AE2 JUMPI PUSH2 0x3AE1 PUSH2 0x38ED JUMP JUMPDEST JUMPDEST DUP2 CALLDATALOAD PUSH2 0x3AF2 DUP5 DUP3 PUSH1 0x20 DUP7 ADD PUSH2 0x3A8D JUMP JUMPDEST SWAP2 POP POP SWAP3 SWAP2 POP POP JUMP JUMPDEST PUSH0 DUP1 PUSH1 0x40 DUP4 DUP6 SUB SLT ISZERO PUSH2 0x3B11 JUMPI PUSH2 0x3B10 PUSH2 0x3824 JUMP JUMPDEST JUMPDEST PUSH0 PUSH2 0x3B1E DUP6 DUP3 DUP7 ADD PUSH2 0x39AF JUMP JUMPDEST SWAP3 POP POP PUSH1 0x20 DUP4 ADD CALLDATALOAD PUSH8 0xFFFFFFFFFFFFFFFF DUP2 GT ISZERO PUSH2 0x3B3F JUMPI PUSH2 0x3B3E PUSH2 0x3828 JUMP JUMPDEST JUMPDEST PUSH2 0x3B4B DUP6 DUP3 DUP7 ADD PUSH2 0x3ACE JUMP JUMPDEST SWAP2 POP POP SWAP3 POP SWAP3 SWAP1 POP JUMP JUMPDEST PUSH0 DUP2 SWAP1 POP SWAP2 SWAP1 POP JUMP JUMPDEST PUSH2 0x3B67 DUP2 PUSH2 0x3B55 JUMP JUMPDEST DUP3 MSTORE POP POP JUMP JUMPDEST PUSH0 PUSH1 0x20 DUP3 ADD SWAP1 POP PUSH2 0x3B80 PUSH0 DUP4 ADD DUP5 PUSH2 0x3B5E JUMP JUMPDEST SWAP3 SWAP2 POP POP JUMP JUMPDEST PUSH0 DUP1 PUSH1 0x40 DUP4 DUP6 SUB SLT ISZERO PUSH2 0x3B9C JUMPI PUSH2 0x3B9B PUSH2 0x3824 JUMP JUMPDEST JUMPDEST PUSH0 PUSH2 0x3BA9 DUP6 DUP3 DUP7 ADD PUSH2 0x3842 JUMP JUMPDEST SWAP3 POP POP PUSH1 0x20 PUSH2 0x3BBA DUP6 DUP3 DUP7 ADD PUSH2 0x3842 JUMP JUMPDEST SWAP2 POP POP SWAP3 POP SWAP3 SWAP1 POP JUMP JUMPDEST PUSH0 DUP2 MLOAD SWAP1 POP SWAP2 SWAP1 POP JUMP JUMPDEST PUSH0 DUP3 DUP3 MSTORE PUSH1 0x20 DUP3 ADD SWAP1 POP SWAP3 SWAP2 POP POP JUMP JUMPDEST DUP3 DUP2 DUP4 MCOPY PUSH0 DUP4 DUP4 ADD MSTORE POP POP POP JUMP JUMPDEST PUSH0 PUSH2 0x3BF6 DUP3 PUSH2 0x3BC4 JUMP JUMPDEST PUSH2 0x3C00 DUP2 DUP6 PUSH2 0x3BCE JUMP JUMPDEST SWAP4 POP PUSH2 0x3C10 DUP2 DUP6 PUSH1 0x20 DUP7 ADD PUSH2 0x3BDE JUMP JUMPDEST PUSH2 0x3C19 DUP2 PUSH2 0x39C7 JUMP JUMPDEST DUP5 ADD SWAP2 POP POP SWAP3 SWAP2 POP POP JUMP JUMPDEST PUSH0 PUSH1 0x40 DUP3 ADD SWAP1 POP PUSH2 0x3C37 PUSH0 DUP4 ADD DUP6 PUSH2 0x38C5 JUMP JUMPDEST DUP2 DUP2 SUB PUSH1 0x20 DUP4 ADD MSTORE PUSH2 0x3C49 DUP2 DUP5 PUSH2 0x3BEC JUMP JUMPDEST SWAP1 POP SWAP4 SWAP3 POP POP POP JUMP JUMPDEST PUSH0 DUP2 MLOAD SWAP1 POP SWAP2 SWAP1 POP JUMP JUMPDEST PUSH0 DUP3 DUP3 MSTORE PUSH1 0x20 DUP3 ADD SWAP1 POP SWAP3 SWAP2 POP POP JUMP JUMPDEST PUSH0 PUSH2 0x3C76 DUP3 PUSH2 0x3C52 JUMP JUMPDEST PUSH2 0x3C80 DUP2 DUP6 PUSH2 0x3C5C JUMP JUMPDEST SWAP4 POP PUSH2 0x3C90 DUP2 DUP6 PUSH1 0x20 DUP7 ADD PUSH2 0x3BDE JUMP JUMPDEST PUSH2 0x3C99 DUP2 PUSH2 0x39C7 JUMP JUMPDEST DUP5 ADD SWAP2 POP POP SWAP3 SWAP2 POP POP JUMP JUMPDEST PUSH0 PUSH1 0x20 DUP3 ADD SWAP1 POP DUP2 DUP2 SUB PUSH0 DUP4 ADD MSTORE PUSH2 0x3CBC DUP2 DUP5 PUSH2 0x3C6C JUMP JUMPDEST SWAP1 POP SWAP3 SWAP2 POP POP JUMP JUMPDEST PUSH0 PUSH1 0x20 DUP3 DUP5 SUB SLT ISZERO PUSH2 0x3CD9 JUMPI PUSH2 0x3CD8 PUSH2 0x3824 JUMP JUMPDEST JUMPDEST PUSH0 PUSH2 0x3CE6 DUP5 DUP3 DUP6 ADD PUSH2 0x39AF JUMP JUMPDEST SWAP2 POP POP SWAP3 SWAP2 POP POP JUMP JUMPDEST PUSH0 PUSH1 0xC0 DUP3 ADD SWAP1 POP PUSH2 0x3D02 PUSH0 DUP4 ADD DUP10 PUSH2 0x38C5 JUMP JUMPDEST PUSH2 0x3D0F PUSH1 0x20 DUP4 ADD DUP9 PUSH2 0x3760 JUMP JUMPDEST PUSH2 0x3D1C PUSH1 0x40 DUP4 ADD DUP8 PUSH2 0x3760 JUMP JUMPDEST PUSH2 0x3D29 PUSH1 0x60 DUP4 ADD DUP7 PUSH2 0x3760 JUMP JUMPDEST PUSH2 0x3D36 PUSH1 0x80 DUP4 ADD DUP6 PUSH2 0x3760 JUMP JUMPDEST PUSH2 0x3D43 PUSH1 0xA0 DUP4 ADD DUP5 PUSH2 0x3760 JUMP JUMPDEST SWAP8 SWAP7 POP POP POP POP POP POP POP JUMP JUMPDEST PUSH0 DUP1 PUSH0 PUSH1 0x60 DUP5 DUP7 SUB SLT ISZERO PUSH2 0x3D65 JUMPI PUSH2 0x3D64 PUSH2 0x3824 JUMP JUMPDEST JUMPDEST PUSH0 PUSH2 0x3D72 DUP7 DUP3 DUP8 ADD PUSH2 0x39AF JUMP JUMPDEST SWAP4 POP POP PUSH1 0x20 PUSH2 0x3D83 DUP7 DUP3 DUP8 ADD PUSH2 0x39AF JUMP JUMPDEST SWAP3 POP POP PUSH1 0x40 PUSH2 0x3D94 DUP7 DUP3 DUP8 ADD PUSH2 0x39AF JUMP JUMPDEST SWAP2 POP POP SWAP3 POP SWAP3 POP SWAP3 JUMP JUMPDEST PUSH2 0x3DA7 DUP2 PUSH2 0x38BA JUMP JUMPDEST DUP2 EQ PUSH2 0x3DB1 JUMPI PUSH0 DUP1 REVERT JUMPDEST POP JUMP JUMPDEST PUSH0 DUP2 CALLDATALOAD SWAP1 POP PUSH2 0x3DC2 DUP2 PUSH2 0x3D9E JUMP JUMPDEST SWAP3 SWAP2 POP POP JUMP JUMPDEST PUSH0 DUP1 PUSH1 0x40 DUP4 DUP6 SUB SLT ISZERO PUSH2 0x3DDE JUMPI PUSH2 0x3DDD PUSH2 0x3824 JUMP JUMPDEST JUMPDEST PUSH0 PUSH2 0x3DEB DUP6 DUP3 DUP7 ADD PUSH2 0x39AF JUMP JUMPDEST SWAP3 POP POP PUSH1 0x20 PUSH2 0x3DFC DUP6 DUP3 DUP7 ADD PUSH2 0x3DB4 JUMP JUMPDEST SWAP2 POP POP SWAP3 POP SWAP3 SWAP1 POP JUMP JUMPDEST PUSH32 0x4E487B7100000000000000000000000000000000000000000000000000000000 PUSH0 MSTORE PUSH1 0x11 PUSH1 0x4 MSTORE PUSH1 0x24 PUSH0 REVERT JUMPDEST PUSH0 PUSH2 0x3E3D DUP3 PUSH2 0x3757 JUMP JUMPDEST SWAP2 POP PUSH32 0xFFFFFFFFFFFFFFFFFFFFFFFFFFFFFFFFFFFFFFFFFFFFFFFFFFFFFFFFFFFFFFFF DUP3 SUB PUSH2 0x3E6F JUMPI PUSH2 0x3E6E PUSH2 0x3E06 JUMP JUMPDEST JUMPDEST PUSH1 0x1 DUP3 ADD SWAP1 POP SWAP2 SWAP1 POP JUMP JUMPDEST PUSH0 PUSH2 0x3E84 DUP3 PUSH2 0x3757 JUMP JUMPDEST SWAP2 POP PUSH0 DUP3 SUB PUSH2 0x3E96 JUMPI PUSH2 0x3E95 PUSH2 0x3E06 JUMP JUMPDEST JUMPDEST PUSH1 0x1 DUP3 SUB SWAP1 POP SWAP2 SWAP1 POP JUMP JUMPDEST PUSH0 PUSH2 0x3EAB DUP3 PUSH2 0x3757 JUMP JUMPDEST SWAP2 POP PUSH2 0x3EB6 DUP4 PUSH2 0x3757 JUMP JUMPDEST SWAP3 POP DUP3 DUP3 SUB SWAP1 POP DUP2 DUP2 GT ISZERO PUSH2 0x3ECE JUMPI PUSH2 0x3ECD PUSH2 0x3E06 JUMP JUMPDEST JUMPDEST SWAP3 SWAP2 POP POP JUMP JUMPDEST PUSH0 PUSH1 0x60 DUP3 ADD SWAP1 POP PUSH2 0x3EE7 PUSH0 DUP4 ADD DUP7 PUSH2 0x3760 JUMP JUMPDEST PUSH2 0x3EF4 PUSH1 0x20 DUP4 ADD DUP6 PUSH2 0x3760 JUMP JUMPDEST PUSH2 0x3F01 PUSH1 0x40 DUP4 ADD DUP5 PUSH2 0x3760 JUMP JUMPDEST SWAP5 SWAP4 POP POP POP POP JUMP JUMPDEST PUSH32 0x54686973206164647265737320646F6573206E6F742068617665207065726D69 PUSH0 DUP3 ADD MSTORE PUSH32 0x7373696F6E20746F2063616C6C20706572666F726D55706B6565700000000000 PUSH1 0x20 DUP3 ADD MSTORE POP JUMP JUMPDEST PUSH0 PUSH2 0x3F63 PUSH1 0x3B DUP4 PUSH2 0x3C5C JUMP JUMPDEST SWAP2 POP PUSH2 0x3F6E DUP3 PUSH2 0x3F09 JUMP JUMPDEST PUSH1 0x40 DUP3 ADD SWAP1 POP SWAP2 SWAP1 POP JUMP JUMPDEST PUSH0 PUSH1 0x20 DUP3 ADD SWAP1 POP DUP2 DUP2 SUB PUSH0 DUP4 ADD MSTORE PUSH2 0x3F90 DUP2 PUSH2 0x3F57 JUMP JUMPDEST SWAP1 POP SWAP2 SWAP1 POP JUMP JUMPDEST PUSH0 PUSH2 0x3FA1 DUP3 PUSH2 0x3757 JUMP JUMPDEST SWAP2 POP PUSH2 0x3FAC DUP4 PUSH2 0x3757 JUMP JUMPDEST SWAP3 POP DUP3 DUP3 ADD SWAP1 POP DUP1 DUP3 GT ISZERO PUSH2 0x3FC4 JUMPI PUSH2 0x3FC3 PUSH2 0x3E06 JUMP JUMPDEST JUMPDEST SWAP3 SWAP2 POP POP JUMP JUMPDEST PUSH0 PUSH1 0x60 DUP3 ADD SWAP1 POP PUSH2 0x3FDD PUSH0 DUP4 ADD DUP7 PUSH2 0x3892 JUMP JUMPDEST PUSH2 0x3FEA PUSH1 0x20 DUP4 ADD DUP6 PUSH2 0x3892 JUMP JUMPDEST PUSH2 0x3FF7 PUSH1 0x40 DUP4 ADD DUP5 PUSH2 0x3760 JUMP JUMPDEST SWAP5 SWAP4 POP POP POP POP JUMP JUMPDEST PUSH0 DUP2 MLOAD SWAP1 POP PUSH2 0x400D DUP2 PUSH2 0x3D9E JUMP JUMPDEST SWAP3 SWAP2 POP POP JUMP JUMPDEST PUSH0 PUSH1 0x20 DUP3 DUP5 SUB SLT ISZERO PUSH2 0x4028 JUMPI PUSH2 0x4027 PUSH2 0x3824 JUMP JUMPDEST JUMPDEST PUSH0 PUSH2 0x4035 DUP5 DUP3 DUP6 ADD PUSH2 0x3FFF JUMP JUMPDEST SWAP2 POP POP SWAP3 SWAP2 POP POP JUMP JUMPDEST PUSH0 PUSH1 0x60 DUP3 ADD SWAP1 POP PUSH2 0x4051 PUSH0 DUP4 ADD DUP7 PUSH2 0x3892 JUMP JUMPDEST PUSH2 0x405E PUSH1 0x20 DUP4 ADD DUP6 PUSH2 0x3760 JUMP JUMPDEST PUSH2 0x406B PUSH1 0x40 DUP4 ADD DUP5 PUSH2 0x3760 JUMP JUMPDEST SWAP5 SWAP4 POP POP POP POP JUMP JUMPDEST PUSH0 PUSH1 0x40 DUP3 ADD SWAP1 POP PUSH2 0x4086 PUSH0 DUP4 ADD DUP6 PUSH2 0x3892 JUMP JUMPDEST PUSH2 0x4093 PUSH1 0x20 DUP4 ADD DUP5 PUSH2 0x3760 JUMP JUMPDEST SWAP4 SWAP3 POP POP POP JUMP JUMPDEST PUSH32 0x696E76616C6964205F616D6F756E742100000000000000000000000000000000 PUSH0 DUP3 ADD MSTORE POP JUMP JUMPDEST PUSH0 PUSH2 0x40CE PUSH1 0x10 DUP4 PUSH2 0x3C5C JUMP JUMPDEST SWAP2 POP PUSH2 0x40D9 DUP3 PUSH2 0x409A JUMP JUMPDEST PUSH1 0x20 DUP3 ADD SWAP1 POP SWAP2 SWAP1 POP JUMP JUMPDEST PUSH0 PUSH1 0x20 DUP3 ADD SWAP1 POP DUP2 DUP2 SUB PUSH0 DUP4 ADD MSTORE PUSH2 0x40FB DUP2 PUSH2 0x40C2 JUMP JUMPDEST SWAP1 POP SWAP2 SWAP1 POP JUMP JUMPDEST PUSH0 PUSH1 0x40 DUP3 ADD SWAP1 POP PUSH2 0x4115 PUSH0 DUP4 ADD DUP6 PUSH2 0x3760 JUMP JUMPDEST PUSH2 0x4122 PUSH1 0x20 DUP4 ADD DUP5 PUSH2 0x3760 JUMP JUMPDEST SWAP4 SWAP3 POP POP POP JUMP JUMPDEST PUSH0 DUP2 SWAP1 POP SWAP2 SWAP1 POP JUMP JUMPDEST PUSH0 PUSH8 0xFFFFFFFFFFFFFFFF DUP3 AND SWAP1 POP SWAP2 SWAP1 POP JUMP JUMPDEST PUSH0 PUSH2 0x415F PUSH2 0x415A PUSH2 0x4155 DUP5 PUSH2 0x4129 JUMP JUMPDEST PUSH2 0x37A7 JUMP JUMPDEST PUSH2 0x4132 JUMP JUMPDEST SWAP1 POP SWAP2 SWAP1 POP JUMP JUMPDEST PUSH2 0x416F DUP2 PUSH2 0x4145 JUMP JUMPDEST DUP3 MSTORE POP POP JUMP JUMPDEST PUSH0 PUSH1 0x20 DUP3 ADD SWAP1 POP PUSH2 0x4188 PUSH0 DUP4 ADD DUP5 PUSH2 0x4166 JUMP JUMPDEST SWAP3 SWAP2 POP POP JUMP JUMPDEST PUSH0 PUSH1 0x40 DUP3 ADD SWAP1 POP PUSH2 0x41A1 PUSH0 DUP4 ADD DUP6 PUSH2 0x3892 JUMP JUMPDEST PUSH2 0x41AE PUSH1 0x20 DUP4 ADD DUP5 PUSH2 0x3892 JUMP JUMPDEST SWAP4 SWAP3 POP POP POP JUMP JUMPDEST PUSH0 PUSH1 0x60 DUP3 ADD SWAP1 POP PUSH2 0x41C8 PUSH0 DUP4 ADD DUP7 PUSH2 0x3892 JUMP JUMPDEST PUSH2 0x41D5 PUSH1 0x20 DUP4 ADD DUP6 PUSH2 0x3892 JUMP JUMPDEST PUSH2 0x41E2 PUSH1 0x40 DUP4 ADD DUP5 PUSH2 0x38C5 JUMP JUMPDEST SWAP5 SWAP4 POP POP POP POP JUMP JUMPDEST PUSH32 0x6E6F7420656E6F75676820616D6F756E74000000000000000000000000000000 PUSH0 DUP3 ADD MSTORE POP JUMP JUMPDEST PUSH0 PUSH2 0x421E PUSH1 0x11 DUP4 PUSH2 0x3C5C JUMP JUMPDEST SWAP2 POP PUSH2 0x4229 DUP3 PUSH2 0x41EA JUMP JUMPDEST PUSH1 0x20 DUP3 ADD SWAP1 POP SWAP2 SWAP1 POP JUMP JUMPDEST PUSH0 PUSH1 0x20 DUP3 ADD SWAP1 POP DUP2 DUP2 SUB PUSH0 DUP4 ADD MSTORE PUSH2 0x424B DUP2 PUSH2 0x4212 JUMP JUMPDEST SWAP1 POP SWAP2 SWAP1 POP JUMP JUMPDEST PUSH0 PUSH2 0x425C DUP3 PUSH2 0x3757 JUMP JUMPDEST SWAP2 POP PUSH2 0x4267 DUP4 PUSH2 0x3757 JUMP JUMPDEST SWAP3 POP DUP3 DUP3 MUL PUSH2 0x4275 DUP2 PUSH2 0x3757 JUMP JUMPDEST SWAP2 POP DUP3 DUP3 DIV DUP5 EQ DUP4 ISZERO OR PUSH2 0x428C JUMPI PUSH2 0x428B PUSH2 0x3E06 JUMP JUMPDEST JUMPDEST POP SWAP3 SWAP2 POP POP JUMP JUMPDEST PUSH32 0x4E487B7100000000000000000000000000000000000000000000000000000000 PUSH0 MSTORE PUSH1 0x12 PUSH1 0x4 MSTORE PUSH1 0x24 PUSH0 REVERT JUMPDEST PUSH0 PUSH2 0x42CA DUP3 PUSH2 0x3757 JUMP JUMPDEST SWAP2 POP PUSH2 0x42D5 DUP4 PUSH2 0x3757 JUMP JUMPDEST SWAP3 POP DUP3 PUSH2 0x42E5 JUMPI PUSH2 0x42E4 PUSH2 0x4293 JUMP JUMPDEST JUMPDEST DUP3 DUP3 DIV SWAP1 POP SWAP3 SWAP2 POP POP JUMP JUMPDEST PUSH32 0x416D6F756E742069732067726561746572207468656E20353025000000000000 PUSH0 DUP3 ADD MSTORE POP JUMP JUMPDEST PUSH0 PUSH2 0x4324 PUSH1 0x1A DUP4 PUSH2 0x3C5C JUMP JUMPDEST SWAP2 POP PUSH2 0x432F DUP3 PUSH2 0x42F0 JUMP JUMPDEST PUSH1 0x20 DUP3 ADD SWAP1 POP SWAP2 SWAP1 POP JUMP JUMPDEST PUSH0 PUSH1 0x20 DUP3 ADD SWAP1 POP DUP2 DUP2 SUB PUSH0 DUP4 ADD MSTORE PUSH2 0x4351 DUP2 PUSH2 0x4318 JUMP JUMPDEST SWAP1 POP SWAP2 SWAP1 POP JUMP JUMPDEST PUSH2 0x4361 DUP2 PUSH2 0x3B55 JUMP JUMPDEST DUP2 EQ PUSH2 0x436B JUMPI PUSH0 DUP1 REVERT JUMPDEST POP JUMP JUMPDEST PUSH0 DUP2 MLOAD SWAP1 POP PUSH2 0x437C DUP2 PUSH2 0x4358 JUMP JUMPDEST SWAP3 SWAP2 POP POP JUMP JUMPDEST PUSH0 PUSH1 0x20 DUP3 DUP5 SUB SLT ISZERO PUSH2 0x4397 JUMPI PUSH2 0x4396 PUSH2 0x3824 JUMP JUMPDEST JUMPDEST PUSH0 PUSH2 0x43A4 DUP5 DUP3 DUP6 ADD PUSH2 0x436E JUMP JUMPDEST SWAP2 POP POP SWAP3 SWAP2 POP POP JUMP JUMPDEST PUSH32 0x6E6F207573657273210000000000000000000000000000000000000000000000 PUSH0 DUP3 ADD MSTORE POP JUMP JUMPDEST PUSH0 PUSH2 0x43E1 PUSH1 0x9 DUP4 PUSH2 0x3C5C JUMP JUMPDEST SWAP2 POP PUSH2 0x43EC DUP3 PUSH2 0x43AD JUMP JUMPDEST PUSH1 0x20 DUP3 ADD SWAP1 POP SWAP2 SWAP1 POP JUMP JUMPDEST PUSH0 PUSH1 0x20 DUP3 ADD SWAP1 POP DUP2 DUP2 SUB PUSH0 DUP4 ADD MSTORE PUSH2 0x440E DUP2 PUSH2 0x43D5 JUMP JUMPDEST SWAP1 POP SWAP2 SWAP1 POP JUMP JUMPDEST PUSH32 0x5F746F74616C5374616B65416D6F756E742063616E206E6F74206265207A6572 PUSH0 DUP3 ADD MSTORE PUSH32 0x6F00000000000000000000000000000000000000000000000000000000000000 PUSH1 0x20 DUP3 ADD MSTORE POP JUMP JUMPDEST PUSH0 PUSH2 0x446F PUSH1 0x21 DUP4 PUSH2 0x3C5C JUMP JUMPDEST SWAP2 POP PUSH2 0x447A DUP3 PUSH2 0x4415 JUMP JUMPDEST PUSH1 0x40 DUP3 ADD SWAP1 POP SWAP2 SWAP1 POP JUMP JUMPDEST PUSH0 PUSH1 0x20 DUP3 ADD SWAP1 POP DUP2 DUP2 SUB PUSH0 DUP4 ADD MSTORE PUSH2 0x449C DUP2 PUSH2 0x4463 JUMP JUMPDEST SWAP1 POP SWAP2 SWAP1 POP JUMP JUMPDEST PUSH0 DUP2 SWAP1 POP SWAP3 SWAP2 POP POP JUMP JUMPDEST PUSH0 PUSH2 0x44B7 DUP3 PUSH2 0x3BC4 JUMP JUMPDEST PUSH2 0x44C1 DUP2 DUP6 PUSH2 0x44A3 JUMP JUMPDEST SWAP4 POP PUSH2 0x44D1 DUP2 DUP6 PUSH1 0x20 DUP7 ADD PUSH2 0x3BDE JUMP JUMPDEST DUP1 DUP5 ADD SWAP2 POP POP SWAP3 SWAP2 POP POP JUMP JUMPDEST PUSH0 PUSH2 0x44E8 DUP3 DUP5 PUSH2 0x44AD JUMP JUMPDEST SWAP2 POP DUP2 SWAP1 POP SWAP3 SWAP2 POP POP JUMP INVALID LOG2 PUSH5 0x6970667358 0x22 SLT KECCAK256 REVERT PUSH8 0x1B057C0A483D3B74 0xF8 0xCA 0x2B PUSH16 0x73F999203456E2079AD6B4FEB92CAB61 0x2C 0x2D PUSH5 0x736F6C6343 STOP ADDMOD BYTE STOP CALLER "
		},
		"gasEstimates": {
			"creation": {
				"codeDepositCost": "3541000",
				"executionCost": "infinite",
				"totalCost": "infinite"
			},
			"external": {
				"UPGRADE_INTERFACE_VERSION()": "infinite",
				"addFunds(uint256,uint256)": "infinite",
				"addOwnership(uint256)": "infinite",
				"addProjects(uint256)": "infinite",
				"addTreasuery(uint256)": "infinite",
				"alreadyAdded(address)": "2966",
				"blockUser(address,bool)": "infinite",
				"checkOnce()": "2563",
				"checkUpkeep(bytes)": "infinite",
				"flowToTreasuryPercentage()": "2580",
				"initialize(address,address,address)": "infinite",
				"interval()": "2492",
				"lastTimeStamp()": "2559",
				"maintainceFeePercentage()": "2537",
				"multisigAddress()": "2642",
				"noOfUsers()": "2472",
				"odividentPayoutPercentage()": "2581",
				"off()": "infinite",
				"owner()": "2612",
				"ownerShipPoolAmount()": "2470",
				"performUpkeep(bytes)": "infinite",
				"proxiableUUID()": "infinite",
				"reStakeTokens(uint256)": "infinite",
				"renounceOwnership()": "infinite",
				"s_forwarderAddress()": "2643",
				"setForwarderAddress(address)": "infinite",
				"setInterval(uint256,uint256)": "infinite",
				"setTeasueryPercentages(uint256,uint256)": "infinite",
				"setflowToTreasuryPercentage(uint256)": "infinite",
				"setmaintainceFeePercentage(uint256)": "infinite",
				"setodividentPayoutPercentage(uint256)": "infinite",
				"settdividentPayoutPercentage(uint256)": "infinite",
				"stakeTokens(uint256)": "infinite",
				"startingTime()": "2515",
				"tPPercentages(uint256)": "infinite",
				"tdividentPayoutPercentage()": "2493",
				"totalProjects()": "2514",
				"totalStakedAmount()": "2581",
				"totalUsers(uint256)": "2938",
				"transferOwnership(address)": "infinite",
				"treasuryPoolAmount()": "2516",
				"upgradeToAndCall(address,bytes)": "infinite",
				"usdcToken()": "infinite",
				"userRegistered(address)": "infinite",
				"userWithdrawAmoount(uint256)": "infinite",
				"weeklyTransfer()": "infinite"
			},
			"internal": {
				"_authorizeUpgrade(address)": "infinite",
				"calculateFees(uint256,uint256)": "infinite",
				"calculatePercentage(uint256,uint256)": "infinite",
				"perPoolCalculation()": "infinite"
			}
		},
		"methodIdentifiers": {
			"UPGRADE_INTERFACE_VERSION()": "ad3cb1cc",
			"addFunds(uint256,uint256)": "85f45250",
			"addOwnership(uint256)": "78fd078d",
			"addProjects(uint256)": "2765df7a",
			"addTreasuery(uint256)": "5256dbbf",
			"alreadyAdded(address)": "c7fd5bf0",
			"blockUser(address,bool)": "d9b998b4",
			"checkOnce()": "30e3f8f8",
			"checkUpkeep(bytes)": "6e04ff0d",
			"flowToTreasuryPercentage()": "ce356a24",
			"initialize(address,address,address)": "c0c53b8b",
			"interval()": "947a36fb",
			"lastTimeStamp()": "3f3b3b27",
			"maintainceFeePercentage()": "3a71a9e4",
			"multisigAddress()": "5462870d",
			"noOfUsers()": "01934a83",
			"odividentPayoutPercentage()": "44490ff4",
			"off()": "6626b26d",
			"owner()": "8da5cb5b",
			"ownerShipPoolAmount()": "b47ff951",
			"performUpkeep(bytes)": "4585e33b",
			"proxiableUUID()": "52d1902d",
			"reStakeTokens(uint256)": "7ffe4d93",
			"renounceOwnership()": "715018a6",
			"s_forwarderAddress()": "3070fbf8",
			"setForwarderAddress(address)": "d777cc6d",
			"setInterval(uint256,uint256)": "5f17e616",
			"setTeasueryPercentages(uint256,uint256)": "ed061067",
			"setflowToTreasuryPercentage(uint256)": "ad8e5ec4",
			"setmaintainceFeePercentage(uint256)": "7f111e60",
			"setodividentPayoutPercentage(uint256)": "b9dac1eb",
			"settdividentPayoutPercentage(uint256)": "7f70c5e7",
			"stakeTokens(uint256)": "7547c7a3",
			"startingTime()": "39518b5e",
			"tPPercentages(uint256)": "ff3d65d9",
			"tdividentPayoutPercentage()": "33244c2c",
			"totalProjects()": "9c361e4e",
			"totalStakedAmount()": "567e98f9",
			"totalUsers(uint256)": "a4f67b8b",
			"transferOwnership(address)": "f2fde38b",
			"treasuryPoolAmount()": "188e07b9",
			"upgradeToAndCall(address,bytes)": "4f1ef286",
			"usdcToken()": "11eac855",
			"userRegistered(address)": "bccbc36c",
			"userWithdrawAmoount(uint256)": "67976974",
			"weeklyTransfer()": "e9c68e2c"
		}
	},
	"abi": [
		{
			"inputs": [],
			"stateMutability": "nonpayable",
			"type": "constructor"
		},
		{
			"inputs": [
				{
					"internalType": "address",
					"name": "target",
					"type": "address"
				}
			],
			"name": "AddressEmptyCode",
			"type": "error"
		},
		{
			"inputs": [
				{
					"internalType": "address",
					"name": "implementation",
					"type": "address"
				}
			],
			"name": "ERC1967InvalidImplementation",
			"type": "error"
		},
		{
			"inputs": [],
			"name": "ERC1967NonPayable",
			"type": "error"
		},
		{
			"inputs": [],
			"name": "FailedInnerCall",
			"type": "error"
		},
		{
			"inputs": [],
			"name": "InvalidInitialization",
			"type": "error"
		},
		{
			"inputs": [],
			"name": "NotInitializing",
			"type": "error"
		},
		{
			"inputs": [
				{
					"internalType": "address",
					"name": "owner",
					"type": "address"
				}
			],
			"name": "OwnableInvalidOwner",
			"type": "error"
		},
		{
			"inputs": [
				{
					"internalType": "address",
					"name": "account",
					"type": "address"
				}
			],
			"name": "OwnableUnauthorizedAccount",
			"type": "error"
		},
		{
			"inputs": [],
			"name": "UUPSUnauthorizedCallContext",
			"type": "error"
		},
		{
			"inputs": [
				{
					"internalType": "bytes32",
					"name": "slot",
					"type": "bytes32"
				}
			],
			"name": "UUPSUnsupportedProxiableUUID",
			"type": "error"
		},
		{
			"inputs": [
				{
					"internalType": "bool",
					"name": "transfered",
					"type": "bool"
				}
			],
			"name": "transferFailed",
			"type": "error"
		},
		{
			"inputs": [
				{
					"internalType": "bool",
					"name": "blocked",
					"type": "bool"
				}
			],
			"name": "userBlocked",
			"type": "error"
		},
		{
			"inputs": [
				{
					"internalType": "address",
					"name": "wrongAddress",
					"type": "address"
				}
			],
			"name": "wrongAddress",
			"type": "error"
		},
		{
			"inputs": [
				{
					"internalType": "uint256",
					"name": "amount",
					"type": "uint256"
				}
			],
			"name": "wrongAmount",
			"type": "error"
		},
		{
			"inputs": [
				{
					"internalType": "uint256",
					"name": "updateInterval",
					"type": "uint256"
				}
			],
			"name": "wrongInterval",
			"type": "error"
		},
		{
			"inputs": [
				{
					"internalType": "address",
					"name": "owner",
					"type": "address"
				}
			],
			"name": "wrongOwner",
			"type": "error"
		},
		{
			"inputs": [
				{
					"internalType": "uint256",
					"name": "percentage",
					"type": "uint256"
				}
			],
			"name": "wrongPercentage",
			"type": "error"
		},
		{
			"inputs": [
				{
					"internalType": "uint256",
					"name": "projectNO",
					"type": "uint256"
				}
			],
			"name": "wrongProjectNo",
			"type": "error"
		},
		{
			"inputs": [
				{
					"internalType": "uint256",
					"name": "time",
					"type": "uint256"
				}
			],
			"name": "wrongTime",
			"type": "error"
		},
		{
			"inputs": [
				{
					"internalType": "bool",
					"name": "value",
					"type": "bool"
				}
			],
			"name": "wrongValue",
			"type": "error"
		},
		{
			"anonymous": false,
			"inputs": [
				{
					"indexed": false,
					"internalType": "uint256",
					"name": "_amount",
					"type": "uint256"
				},
				{
					"indexed": false,
					"internalType": "uint256",
					"name": "_projectNo",
					"type": "uint256"
				}
			],
			"name": "AddFunds",
			"type": "event"
		},
		{
			"anonymous": false,
			"inputs": [
				{
					"indexed": false,
					"internalType": "uint256",
					"name": "_ownerShipPoolAmount",
					"type": "uint256"
				}
			],
			"name": "AddOwnership",
			"type": "event"
		},
		{
			"anonymous": false,
			"inputs": [
				{
					"indexed": false,
					"internalType": "uint256",
					"name": "projectId",
					"type": "uint256"
				},
				{
					"indexed": false,
					"internalType": "uint256",
					"name": "OpPercentage",
					"type": "uint256"
				},
				{
					"indexed": false,
					"internalType": "uint256",
					"name": "tpPercentage",
					"type": "uint256"
				}
			],
			"name": "AddProject",
			"type": "event"
		},
		{
			"anonymous": false,
			"inputs": [
				{
					"indexed": false,
					"internalType": "uint256",
					"name": "_treasuryPoolAmount",
					"type": "uint256"
				}
			],
			"name": "AddTreasuery",
			"type": "event"
		},
		{
			"anonymous": false,
			"inputs": [
				{
					"indexed": false,
					"internalType": "uint64",
					"name": "version",
					"type": "uint64"
				}
			],
			"name": "Initialized",
			"type": "event"
		},
		{
			"anonymous": false,
			"inputs": [
				{
					"indexed": true,
					"internalType": "address",
					"name": "previousOwner",
					"type": "address"
				},
				{
					"indexed": true,
					"internalType": "address",
					"name": "newOwner",
					"type": "address"
				}
			],
			"name": "OwnershipTransferred",
			"type": "event"
		},
		{
			"anonymous": false,
			"inputs": [
				{
					"indexed": false,
					"internalType": "address",
					"name": "_owner",
					"type": "address"
				},
				{
					"indexed": false,
					"internalType": "uint256",
					"name": "_newPercentage",
					"type": "uint256"
				}
			],
			"name": "PercentageChanged",
			"type": "event"
		},
		{
			"anonymous": false,
			"inputs": [
				{
					"indexed": false,
					"internalType": "address",
					"name": "_owner",
					"type": "address"
				},
				{
					"indexed": false,
					"internalType": "address",
					"name": "_s_forwarderAddress",
					"type": "address"
				}
			],
			"name": "SetForwarderAddress",
			"type": "event"
		},
		{
			"anonymous": false,
			"inputs": [
				{
					"indexed": false,
					"internalType": "address",
					"name": "_owner",
					"type": "address"
				},
				{
					"indexed": false,
					"internalType": "uint256",
					"name": "_interval",
					"type": "uint256"
				},
				{
					"indexed": false,
					"internalType": "uint256",
					"name": "_lastTimeStamp",
					"type": "uint256"
				}
			],
			"name": "SetInterval",
			"type": "event"
		},
		{
			"anonymous": false,
			"inputs": [
				{
					"indexed": false,
					"internalType": "address",
					"name": "sender",
					"type": "address"
				},
				{
					"indexed": false,
					"internalType": "address",
					"name": "recepient",
					"type": "address"
				},
				{
					"indexed": false,
					"internalType": "uint256",
					"name": "usdcAmount",
					"type": "uint256"
				}
			],
			"name": "StakeTokens",
			"type": "event"
		},
		{
			"anonymous": false,
			"inputs": [
				{
					"indexed": true,
					"internalType": "address",
					"name": "implementation",
					"type": "address"
				}
			],
			"name": "Upgraded",
			"type": "event"
		},
		{
			"anonymous": false,
			"inputs": [
				{
					"indexed": false,
					"internalType": "address",
					"name": "owner",
					"type": "address"
				},
				{
					"indexed": false,
					"internalType": "address",
					"name": "blockUserAddress",
					"type": "address"
				},
				{
					"indexed": false,
					"internalType": "bool",
					"name": "blocked",
					"type": "bool"
				}
			],
			"name": "UserBlocked",
			"type": "event"
		},
		{
			"anonymous": false,
			"inputs": [
				{
					"indexed": false,
					"internalType": "address",
					"name": "caller",
					"type": "address"
				},
				{
					"indexed": false,
					"internalType": "uint256",
					"name": "ownerShipPoolAmount",
					"type": "uint256"
				},
				{
					"indexed": false,
					"internalType": "uint256",
					"name": "treasuryPoolAmount",
					"type": "uint256"
				}
			],
			"name": "WeeklyTransfered",
			"type": "event"
		},
		{
			"anonymous": false,
			"inputs": [
				{
					"indexed": false,
					"internalType": "address",
					"name": "recipient",
					"type": "address"
				},
				{
					"indexed": false,
					"internalType": "uint256",
					"name": "usdcAmount",
					"type": "uint256"
				}
			],
			"name": "Withdraw",
			"type": "event"
		},
		{
			"anonymous": false,
			"inputs": [
				{
					"indexed": false,
					"internalType": "address",
					"name": "_owner",
					"type": "address"
				},
				{
					"indexed": false,
					"internalType": "uint256",
					"name": "_interval",
					"type": "uint256"
				}
			],
			"name": "offInterval",
			"type": "event"
		},
		{
			"inputs": [],
			"name": "UPGRADE_INTERFACE_VERSION",
			"outputs": [
				{
					"internalType": "string",
					"name": "",
					"type": "string"
				}
			],
			"stateMutability": "view",
			"type": "function"
		},
		{
			"inputs": [
				{
					"internalType": "uint256",
					"name": "_amount",
					"type": "uint256"
				},
				{
					"internalType": "uint256",
					"name": "_projectNo",
					"type": "uint256"
				}
			],
			"name": "addFunds",
			"outputs": [],
			"stateMutability": "nonpayable",
			"type": "function"
		},
		{
			"inputs": [
				{
					"internalType": "uint256",
					"name": "_amount",
					"type": "uint256"
				}
			],
			"name": "addOwnership",
			"outputs": [],
			"stateMutability": "nonpayable",
			"type": "function"
		},
		{
			"inputs": [
				{
					"internalType": "uint256",
					"name": "_tPPercentage",
					"type": "uint256"
				}
			],
			"name": "addProjects",
			"outputs": [],
			"stateMutability": "nonpayable",
			"type": "function"
		},
		{
			"inputs": [
				{
					"internalType": "uint256",
					"name": "_amount",
					"type": "uint256"
				}
			],
			"name": "addTreasuery",
			"outputs": [],
			"stateMutability": "nonpayable",
			"type": "function"
		},
		{
			"inputs": [
				{
					"internalType": "address",
					"name": "",
					"type": "address"
				}
			],
			"name": "alreadyAdded",
			"outputs": [
				{
					"internalType": "bool",
					"name": "",
					"type": "bool"
				}
			],
			"stateMutability": "view",
			"type": "function"
		},
		{
			"inputs": [
				{
					"internalType": "address",
					"name": "_userAddress",
					"type": "address"
				},
				{
					"internalType": "bool",
					"name": "value",
					"type": "bool"
				}
			],
			"name": "blockUser",
			"outputs": [],
			"stateMutability": "nonpayable",
			"type": "function"
		},
		{
			"inputs": [],
			"name": "checkOnce",
			"outputs": [
				{
					"internalType": "bool",
					"name": "",
					"type": "bool"
				}
			],
			"stateMutability": "view",
			"type": "function"
		},
		{
			"inputs": [
				{
					"internalType": "bytes",
					"name": "",
					"type": "bytes"
				}
			],
			"name": "checkUpkeep",
			"outputs": [
				{
					"internalType": "bool",
					"name": "",
					"type": "bool"
				},
				{
					"internalType": "bytes",
					"name": "",
					"type": "bytes"
				}
			],
			"stateMutability": "view",
			"type": "function"
		},
		{
			"inputs": [],
			"name": "flowToTreasuryPercentage",
			"outputs": [
				{
					"internalType": "uint256",
					"name": "",
					"type": "uint256"
				}
			],
			"stateMutability": "view",
			"type": "function"
		},
		{
			"inputs": [
				{
					"internalType": "address",
					"name": "initialOwner",
					"type": "address"
				},
				{
					"internalType": "address",
					"name": "_usdcAddress",
					"type": "address"
				},
				{
					"internalType": "address",
					"name": "_multisigAddress",
					"type": "address"
				}
			],
			"name": "initialize",
			"outputs": [],
			"stateMutability": "nonpayable",
			"type": "function"
		},
		{
			"inputs": [],
			"name": "interval",
			"outputs": [
				{
					"internalType": "uint256",
					"name": "",
					"type": "uint256"
				}
			],
			"stateMutability": "view",
			"type": "function"
		},
		{
			"inputs": [],
			"name": "lastTimeStamp",
			"outputs": [
				{
					"internalType": "uint256",
					"name": "",
					"type": "uint256"
				}
			],
			"stateMutability": "view",
			"type": "function"
		},
		{
			"inputs": [],
			"name": "maintainceFeePercentage",
			"outputs": [
				{
					"internalType": "uint256",
					"name": "",
					"type": "uint256"
				}
			],
			"stateMutability": "view",
			"type": "function"
		},
		{
			"inputs": [],
			"name": "multisigAddress",
			"outputs": [
				{
					"internalType": "address",
					"name": "",
					"type": "address"
				}
			],
			"stateMutability": "view",
			"type": "function"
		},
		{
			"inputs": [],
			"name": "noOfUsers",
			"outputs": [
				{
					"internalType": "uint256",
					"name": "",
					"type": "uint256"
				}
			],
			"stateMutability": "view",
			"type": "function"
		},
		{
			"inputs": [],
			"name": "odividentPayoutPercentage",
			"outputs": [
				{
					"internalType": "uint256",
					"name": "",
					"type": "uint256"
				}
			],
			"stateMutability": "view",
			"type": "function"
		},
		{
			"inputs": [],
			"name": "off",
			"outputs": [],
			"stateMutability": "nonpayable",
			"type": "function"
		},
		{
			"inputs": [],
			"name": "owner",
			"outputs": [
				{
					"internalType": "address",
					"name": "",
					"type": "address"
				}
			],
			"stateMutability": "view",
			"type": "function"
		},
		{
			"inputs": [],
			"name": "ownerShipPoolAmount",
			"outputs": [
				{
					"internalType": "uint256",
					"name": "",
					"type": "uint256"
				}
			],
			"stateMutability": "view",
			"type": "function"
		},
		{
			"inputs": [
				{
					"internalType": "bytes",
					"name": "",
					"type": "bytes"
				}
			],
			"name": "performUpkeep",
			"outputs": [],
			"stateMutability": "nonpayable",
			"type": "function"
		},
		{
			"inputs": [],
			"name": "proxiableUUID",
			"outputs": [
				{
					"internalType": "bytes32",
					"name": "",
					"type": "bytes32"
				}
			],
			"stateMutability": "view",
			"type": "function"
		},
		{
			"inputs": [
				{
					"internalType": "uint256",
					"name": "_amount",
					"type": "uint256"
				}
			],
			"name": "reStakeTokens",
			"outputs": [],
			"stateMutability": "nonpayable",
			"type": "function"
		},
		{
			"inputs": [],
			"name": "renounceOwnership",
			"outputs": [],
			"stateMutability": "nonpayable",
			"type": "function"
		},
		{
			"inputs": [],
			"name": "s_forwarderAddress",
			"outputs": [
				{
					"internalType": "address",
					"name": "",
					"type": "address"
				}
			],
			"stateMutability": "view",
			"type": "function"
		},
		{
			"inputs": [
				{
					"internalType": "address",
					"name": "forwarderAddress",
					"type": "address"
				}
			],
			"name": "setForwarderAddress",
			"outputs": [],
			"stateMutability": "nonpayable",
			"type": "function"
		},
		{
			"inputs": [
				{
					"internalType": "uint256",
					"name": "_startingTime",
					"type": "uint256"
				},
				{
					"internalType": "uint256",
					"name": "updateInterval",
					"type": "uint256"
				}
			],
			"name": "setInterval",
			"outputs": [],
			"stateMutability": "nonpayable",
			"type": "function"
		},
		{
			"inputs": [
				{
					"internalType": "uint256",
					"name": "_projectId",
					"type": "uint256"
				},
				{
					"internalType": "uint256",
					"name": "_newPerccentage",
					"type": "uint256"
				}
			],
			"name": "setTeasueryPercentages",
			"outputs": [],
			"stateMutability": "nonpayable",
			"type": "function"
		},
		{
			"inputs": [
				{
					"internalType": "uint256",
					"name": "_newPerccentage",
					"type": "uint256"
				}
			],
			"name": "setflowToTreasuryPercentage",
			"outputs": [],
			"stateMutability": "nonpayable",
			"type": "function"
		},
		{
			"inputs": [
				{
					"internalType": "uint256",
					"name": "_newPerccentage",
					"type": "uint256"
				}
			],
			"name": "setmaintainceFeePercentage",
			"outputs": [],
			"stateMutability": "nonpayable",
			"type": "function"
		},
		{
			"inputs": [
				{
					"internalType": "uint256",
					"name": "_newPerccentage",
					"type": "uint256"
				}
			],
			"name": "setodividentPayoutPercentage",
			"outputs": [],
			"stateMutability": "nonpayable",
			"type": "function"
		},
		{
			"inputs": [
				{
					"internalType": "uint256",
					"name": "_newPerccentage",
					"type": "uint256"
				}
			],
			"name": "settdividentPayoutPercentage",
			"outputs": [],
			"stateMutability": "nonpayable",
			"type": "function"
		},
		{
			"inputs": [
				{
					"internalType": "uint256",
					"name": "_amount",
					"type": "uint256"
				}
			],
			"name": "stakeTokens",
			"outputs": [],
			"stateMutability": "nonpayable",
			"type": "function"
		},
		{
			"inputs": [],
			"name": "startingTime",
			"outputs": [
				{
					"internalType": "uint256",
					"name": "",
					"type": "uint256"
				}
			],
			"stateMutability": "view",
			"type": "function"
		},
		{
			"inputs": [
				{
					"internalType": "uint256",
					"name": "",
					"type": "uint256"
				}
			],
			"name": "tPPercentages",
			"outputs": [
				{
					"internalType": "uint256",
					"name": "",
					"type": "uint256"
				}
			],
			"stateMutability": "view",
			"type": "function"
		},
		{
			"inputs": [],
			"name": "tdividentPayoutPercentage",
			"outputs": [
				{
					"internalType": "uint256",
					"name": "",
					"type": "uint256"
				}
			],
			"stateMutability": "view",
			"type": "function"
		},
		{
			"inputs": [],
			"name": "totalProjects",
			"outputs": [
				{
					"internalType": "uint256",
					"name": "",
					"type": "uint256"
				}
			],
			"stateMutability": "view",
			"type": "function"
		},
		{
			"inputs": [],
			"name": "totalStakedAmount",
			"outputs": [
				{
					"internalType": "uint256",
					"name": "",
					"type": "uint256"
				}
			],
			"stateMutability": "view",
			"type": "function"
		},
		{
			"inputs": [
				{
					"internalType": "uint256",
					"name": "",
					"type": "uint256"
				}
			],
			"name": "totalUsers",
			"outputs": [
				{
					"internalType": "address",
					"name": "",
					"type": "address"
				}
			],
			"stateMutability": "view",
			"type": "function"
		},
		{
			"inputs": [
				{
					"internalType": "address",
					"name": "newOwner",
					"type": "address"
				}
			],
			"name": "transferOwnership",
			"outputs": [],
			"stateMutability": "nonpayable",
			"type": "function"
		},
		{
			"inputs": [],
			"name": "treasuryPoolAmount",
			"outputs": [
				{
					"internalType": "uint256",
					"name": "",
					"type": "uint256"
				}
			],
			"stateMutability": "view",
			"type": "function"
		},
		{
			"inputs": [
				{
					"internalType": "address",
					"name": "newImplementation",
					"type": "address"
				},
				{
					"internalType": "bytes",
					"name": "data",
					"type": "bytes"
				}
			],
			"name": "upgradeToAndCall",
			"outputs": [],
			"stateMutability": "payable",
			"type": "function"
		},
		{
			"inputs": [],
			"name": "usdcToken",
			"outputs": [
				{
					"internalType": "contract IBEP20",
					"name": "",
					"type": "address"
				}
			],
			"stateMutability": "view",
			"type": "function"
		},
		{
			"inputs": [
				{
					"internalType": "address",
					"name": "",
					"type": "address"
				}
			],
			"name": "userRegistered",
			"outputs": [
				{
					"internalType": "bool",
					"name": "blocked",
					"type": "bool"
				},
				{
					"internalType": "uint256",
					"name": "receivedAmount",
					"type": "uint256"
				},
				{
					"internalType": "uint256",
					"name": "withdrawAmount",
					"type": "uint256"
				},
				{
					"internalType": "uint256",
					"name": "receiveFromTreasury",
					"type": "uint256"
				},
				{
					"internalType": "uint256",
					"name": "receiveFromOwneerShip",
					"type": "uint256"
				},
				{
					"internalType": "uint256",
					"name": "totalStakedAmount",
					"type": "uint256"
				}
			],
			"stateMutability": "view",
			"type": "function"
		},
		{
			"inputs": [
				{
					"internalType": "uint256",
					"name": "_amount",
					"type": "uint256"
				}
			],
			"name": "userWithdrawAmoount",
			"outputs": [],
			"stateMutability": "nonpayable",
			"type": "function"
		},
		{
			"inputs": [],
			"name": "weeklyTransfer",
			"outputs": [],
			"stateMutability": "nonpayable",
			"type": "function"
		}
	]
}