{
	"data": {
		"bytecode": {
			"linkReferences": {},
			"object": "60a060405230608052348015610013575f80fd5b5061001c610021565b6100d3565b7ff0c57e16840df040f15088dc2f81fe391c3923bec73e23a9662efc9c229c6a00805468010000000000000000900460ff16156100715760405163f92ee8a960e01b815260040160405180910390fd5b80546001600160401b03908116146100d05780546001600160401b0319166001600160401b0390811782556040519081527fc7f505b2f371ae2175ee4913f4499e1f2633a7b5936321eed1cdaeb6115181d29060200160405180910390a15b50565b6080516127376100f95f395f8181611c0301528181611c2c0152611d7001526127375ff3fe608060405260043610610280575f3560e01c80637547c7a311610155578063b47ff951116100be578063d777cc6d11610078578063d777cc6d146107d8578063d9b998b4146107f7578063e9c68e2c14610816578063ed0610671461082a578063f2fde38b14610849578063ff3d65d914610868575f80fd5b8063b47ff951146106c1578063b9dac1eb146106d6578063bccbc36c146106f5578063c0c53b8b14610776578063c7fd5bf014610795578063ce356a24146107c3575f80fd5b80638da5cb5b1161010f5780638da5cb5b146105cb578063947a36fb146106075780639c361e4e1461061c578063a4f67b8b14610631578063ad3cb1cc14610665578063ad8e5ec4146106a2575f80fd5b80637547c7a31461051157806378fd078d146105305780637f111e601461054f5780637f70c5e71461056e5780637ffe4d931461058d57806385f45250146105ac575f80fd5b806344490ff4116101f7578063567e98f9116101b1578063567e98f9146104695780635f17e6161461047e5780636626b26d1461049d57806367976974146104b15780636e04ff0d146104d0578063715018a6146104fd575f80fd5b806344490ff4146103d05780634585e33b146103e55780634f1ef286146104045780635256dbbf1461041757806352d1902d146104365780635462870d1461044a575f80fd5b806330cac9721161024857806330cac9721461033757806330e3f8f81461034c57806333244c2c1461037c57806339518b5e146103915780633a71a9e4146103a65780633f3b3b27146103bb575f80fd5b806301934a831461028457806311eac855146102ac578063188e07b9146102e25780632765df7a146102f75780633070fbf814610318575b5f80fd5b34801561028f575f80fd5b5061029960085481565b6040519081526020015b60405180910390f35b3480156102b7575f80fd5b505f546102ca906001600160a01b031681565b6040516001600160a01b0390911681526020016102a3565b3480156102ed575f80fd5b5061029960015481565b348015610302575f80fd5b5061031661031136600461229a565b610893565b005b348015610323575f80fd5b50600e546102ca906001600160a01b031681565b348015610342575f80fd5b50610299600b5481565b348015610357575f80fd5b5060095461036c90600160a01b900460ff1681565b60405190151581526020016102a3565b348015610387575f80fd5b5061029960045481565b34801561039c575f80fd5b50610299600c5481565b3480156103b1575f80fd5b5061029960075481565b3480156103c6575f80fd5b50610299600d5481565b3480156103db575f80fd5b5061029960055481565b3480156103f0575f80fd5b506103166103ff3660046122b1565b61093d565b61031661041236600461234e565b610a14565b348015610422575f80fd5b5061031661043136600461229a565b610a2f565b348015610441575f80fd5b50610299610b47565b348015610455575f80fd5b506009546102ca906001600160a01b031681565b348015610474575f80fd5b5061029960035481565b348015610489575f80fd5b50610316610498366004612412565b610b62565b3480156104a8575f80fd5b50610316610c0c565b3480156104bc575f80fd5b506103166104cb36600461229a565b610c63565b3480156104db575f80fd5b506104ef6104ea3660046122b1565b610e71565b6040516102a3929190612460565b348015610508575f80fd5b50610316610ea1565b34801561051c575f80fd5b5061031661052b36600461229a565b610eb4565b34801561053b575f80fd5b5061031661054a36600461229a565b61109b565b34801561055a575f80fd5b5061031661056936600461229a565b6111a7565b348015610579575f80fd5b5061031661058836600461229a565b6111fa565b348015610598575f80fd5b506103166105a736600461229a565b61124d565b3480156105b7575f80fd5b506103166105c6366004612412565b61139c565b3480156105d6575f80fd5b507f9016d09d72d40fdae2fd8ceac6b6234c7706214fd39c1cd1e609a0528c199300546001600160a01b03166102ca565b348015610612575f80fd5b50610299600a5481565b348015610627575f80fd5b50610299600f5481565b34801561063c575f80fd5b506102ca61064b36600461229a565b60116020525f90815260409020546001600160a01b031681565b348015610670575f80fd5b50610695604051806040016040528060058152602001640352e302e360dc1b81525081565b6040516102a39190612482565b3480156106ad575f80fd5b506103166106bc36600461229a565b6114d4565b3480156106cc575f80fd5b5061029960025481565b3480156106e1575f80fd5b506103166106f036600461229a565b611527565b348015610700575f80fd5b5061074761070f366004612494565b60136020525f908152604090208054600182015460028301546003840154600485015460059095015460ff9094169492939192909186565b6040805196151587526020870195909552938501929092526060840152608083015260a082015260c0016102a3565b348015610781575f80fd5b506103166107903660046124ad565b61157a565b3480156107a0575f80fd5b5061036c6107af366004612494565b60106020525f908152604090205460ff1681565b3480156107ce575f80fd5b5061029960065481565b3480156107e3575f80fd5b506103166107f2366004612494565b6116d9565b348015610802575f80fd5b506103166108113660046124fa565b611768565b348015610821575f80fd5b50610316611884565b348015610835575f80fd5b50610316610844366004612412565b611b01565b348015610854575f80fd5b50610316610863366004612494565b611b60565b348015610873575f80fd5b5061029961088236600461229a565b60126020525f908152604090205481565b61089b611b9d565b5f81116108c35760405163cdbc633560e01b8152600481018290526024015b60405180910390fd5b600f80545f908152601260205260408120839055815491906108e483612543565b9091555050600f547fe1976e16ed8ce8e740235978fbe69b27d5eea683b2e017bb0bd2fabb33294b3f9061091a8361271061255b565b60408051928352602083019190915281018390526060015b60405180910390a150565b600e546001600160a01b031633146109675760405162461bcd60e51b81526004016108ba9061256e565b600a545f0361098f57600a54604051637154000760e01b81526004016108ba91815260200190565b600954600160a01b900460ff166109df57600c5442106109c05742600d556109b5611884565b600b54600a556109eb565b600c546040516354593e7560e01b81526004016108ba91815260200190565b42600d556109eb611884565b600954600160a01b900460ff16610a10576009805460ff60a01b1916600160a01b1790555b5050565b610a1c611bf8565b610a2582611c9c565b610a108282611ca4565b610a37611b9d565b5f8111610a5a576040516302ff478360e41b8152600481018290526024016108ba565b8060015f828254610a6b91906125cb565b90915550505f80546040516323b872dd60e01b81526001600160a01b03909116906323b872dd90610aa4903390309087906004016125de565b6020604051808303815f875af1158015610ac0573d5f803e3d5ffd5b505050506040513d601f19601f82011682018060405250810190610ae49190612602565b905080610b085760405163d85d3cef60e01b815281151560048201526024016108ba565b7fa9f166643ec132a11638e74e3c3a78d4ae278fcbf92998240e0e97676f54e404600154604051610b3b91815260200190565b60405180910390a15050565b5f610b50611d65565b505f805160206126c283398151915290565b610b6a611b9d565b5f8111610b8d57604051637154000760e01b8152600481018290526024016108ba565b42821015610bb1576040516354593e7560e01b8152600481018390526024016108ba565b610bbb428361255b565b600a819055600c83905542600d819055600b8390556040805133815260208101939093528201527f2b5090e035d3026f5448298c9adc68db8bbc1b26a8af5c81b2b2a9fc07ca4a0090606001610b3b565b610c14611b9d565b5f600a8190556009805460ff60a01b191690556040805133815260208101929092527f3b68dc4e210c46d3622293f2b941cdfde795bb6e17286bb289ba05a6a3b5541f910160405180910390a1565b600954600160a81b900460ff1615610cbd5760405162461bcd60e51b815260206004820152601f60248201527f5265656e7472616e637947756172643a207265656e7472616e742063616c6c0060448201526064016108ba565b6009805460ff60a81b1916600160a81b17905580610cf1576040516302ff478360e41b8152600481018290526024016108ba565b335f90815260136020526040902060010154811115610d455760405162461bcd60e51b815260206004820152601060248201526f696e76616c6964205f616d6f756e742160801b60448201526064016108ba565b335f9081526013602052604081206001018054839290610d6690849061255b565b9091555050335f9081526013602052604081206002018054839290610d8c9084906125cb565b90915550505f805460405163a9059cbb60e01b8152336004820152602481018490526001600160a01b039091169063a9059cbb906044016020604051808303815f875af1158015610ddf573d5f803e3d5ffd5b505050506040513d601f19601f82011682018060405250810190610e039190612602565b905080610e275760405163d85d3cef60e01b815281151560048201526024016108ba565b60408051338152602081018490527f884edad9ce6fa2440d8a54cc123490eb96d2768479d49ff9c7366125a9424364910160405180910390a150506009805460ff60a81b19169055565b5f60605f600a54600d5442610e86919061255b565b60408051602081019091525f81529110969095509350505050565b610ea9611b9d565b610eb25f611dae565b565b5f8111610ed7576040516302ff478360e41b8152600481018290526024016108ba565b335f9081526013602052604090205460ff1615610f1f57335f90815260136020526040908190205490516301be970f60e61b815260ff909116151560048201526024016108ba565b335f9081526013602052604081206005018054839290610f409084906125cb565b9091555050335f9081526010602052604090205460ff16610fa957600880545f90815260116020908152604080832080546001600160a01b03191633908117909155835260109091528120805460ff1916600117905581549190610fa383612543565b91905055505b8060035f828254610fba91906125cb565b90915550505f80546009546040516323b872dd60e01b81526001600160a01b03928316926323b872dd92610ff89233929091169087906004016125de565b6020604051808303815f875af1158015611014573d5f803e3d5ffd5b505050506040513d601f19601f820116820180604052508101906110389190612602565b90508061105c5760405163d85d3cef60e01b815281151560048201526024016108ba565b6009546040517f14ee34c24635186d212f515353dadae9c226529edef2d1fcf5504cb33b5c25ab91610b3b9133916001600160a01b03169086906125de565b6110a3611b9d565b5f81116110c6576040516302ff478360e41b8152600481018290526024016108ba565b8060025f8282546110d791906125cb565b90915550505f80546040516323b872dd60e01b81526001600160a01b03909116906323b872dd90611110903390309087906004016125de565b6020604051808303815f875af115801561112c573d5f803e3d5ffd5b505050506040513d601f19601f820116820180604052508101906111509190612602565b9050806111745760405163d85d3cef60e01b815281151560048201526024016108ba565b7f73834e1d1ee73ba659470a3603b888903853d3a3c9fda34e71c093a0e35cab94600254604051610b3b91815260200190565b6111af611b9d565b5f81116111d25760405163cdbc633560e01b8152600481018290526024016108ba565b600781905560408051338152602081018390525f805160206126e28339815191529101610932565b611202611b9d565b5f81116112255760405163cdbc633560e01b8152600481018290526024016108ba565b600481905560408051338152602081018390525f805160206126e28339815191529101610932565b5f8111611270576040516302ff478360e41b8152600481018290526024016108ba565b335f9081526013602052604090205460ff16156112b857335f90815260136020526040908190205490516301be970f60e61b815260ff909116151560048201526024016108ba565b335f9081526013602052604090206001015481106112ec57604051630636dc6b60e31b8152600481018290526024016108ba565b335f908152601360205260408120600101805483929061130d90849061255b565b9091555050335f90815260136020526040812060050180548392906113339084906125cb565b925050819055508060025f82825461134b91906125cb565b925050819055508060035f82825461136391906125cb565b90915550506040517f14ee34c24635186d212f515353dadae9c226529edef2d1fcf5504cb33b5c25ab90610932903390309085906125de565b5f82116113bf576040516302ff478360e41b8152600481018390526024016108ba565b600f548111156113e55760405163222a50f360e01b8152600481018290526024016108ba565b5f818152601260205260409020546113fe908390611e1e565b5f80546040516323b872dd60e01b81526001600160a01b03909116906323b872dd90611432903390309088906004016125de565b6020604051808303815f875af115801561144e573d5f803e3d5ffd5b505050506040513d601f19601f820116820180604052508101906114729190612602565b9050806114965760405163d85d3cef60e01b815281151560048201526024016108ba565b60408051848152602081018490527fa89b69c5958ec1ccf0df0de746a8708f5b6a6b429430129f16f46f44b319c900910160405180910390a1505050565b6114dc611b9d565b5f81116114ff5760405163cdbc633560e01b8152600481018290526024016108ba565b600681905560408051338152602081018390525f805160206126e28339815191529101610932565b61152f611b9d565b5f81116115525760405163cdbc633560e01b8152600481018290526024016108ba565b600581905560408051338152602081018390525f805160206126e28339815191529101610932565b7ff0c57e16840df040f15088dc2f81fe391c3923bec73e23a9662efc9c229c6a008054600160401b810460ff16159067ffffffffffffffff165f811580156115bf5750825b90505f8267ffffffffffffffff1660011480156115db5750303b155b9050811580156115e9575080155b156116075760405163f92ee8a960e01b815260040160405180910390fd5b845467ffffffffffffffff19166001178555831561163157845460ff60401b1916600160401b1785555b61163a88611e7c565b611642611e8d565b5f80546001600160a01b03808a166001600160a01b031992831617909255611388600455611d4c6005556105dc6006556103e8600755600980549289169290911691909117905583156116cf57845460ff60401b19168555604051600181527fc7f505b2f371ae2175ee4913f4499e1f2633a7b5936321eed1cdaeb6115181d29060200160405180910390a15b5050505050505050565b6116e1611b9d565b6001600160a01b0381166117135760405163e4cfa94d60e01b81526001600160a01b03821660048201526024016108ba565b600e80546001600160a01b0319166001600160a01b0383169081179091556040805133815260208101929092527f75f91f3cecb8c46f20150f60f77a6e1f0de00776627692db82ef1960af84c33a9101610932565b611770611b9d565b6001600160a01b0382166117a25760405163e4cfa94d60e01b81526001600160a01b03831660048201526024016108ba565b6001811515148015906117b457508015155b156117d6576040516381ed1ae360e01b815281151560048201526024016108ba565b801515600103611807576001600160a01b0382165f908152601360205260409020805460ff19166001179055611827565b6001600160a01b0382165f908152601360205260409020805460ff191690555b6001600160a01b0382165f818152601360209081526040918290205482513381529182019390935260ff9092161515908201527f7a1655bc3160d3413bf1d5235e55be12e01b7e8bc2436a9bff09c3b4fa2421f190606001610b3b565b600e546001600160a01b031633146118ae5760405162461bcd60e51b81526004016108ba9061256e565b5f805f6118b9611e95565b9250925092505f6002541180156118d157505f600154115b6119115760405162461bcd60e51b81526020600482015260116024820152701b9bdd08195b9bdd59da08185b5bdd5b9d607a1b60448201526064016108ba565b5f805b600854811015611ab5575f818152601160209081526040808320546001600160a01b03168352601390915290205460ff16611aad576003545f828152601160209081526040808320546001600160a01b0316835260139091528120600501549091906119829061271061261d565b61198c9190612634565b90505f6119998683612017565b90508060025f8282546119ac919061255b565b909155506119bc905081856125cb565b93508460015f8282546119cf919061255b565b90915550505f83815260116020908152604080832080546001600160a01b03908116855260139093528184206003018990555490911682528120600401829055611a1986836125cb565b5f858152601160209081526040808320546001600160a01b031683526013909152812060010180549293508392909190611a549084906125cb565b909155505087851115611aa95760405162461bcd60e51b815260206004820152601a60248201527f416d6f756e742069732067726561746572207468656e2035302500000000000060448201526064016108ba565b5050505b600101611914565b506002546001546040805133815260208101939093528201527fee826440768329b0c72f81331212ee31fcdac1ea79a248d24821e40c34e580209060600160405180910390a150505050565b611b09611b9d565b5f8111611b2c5760405163cdbc633560e01b8152600481018290526024016108ba565b5f8281526012602090815260409182902083905581513381529081018390525f805160206126e28339815191529101610b3b565b611b68611b9d565b6001600160a01b038116611b9157604051631e4fbdf760e01b81525f60048201526024016108ba565b611b9a81611dae565b50565b33611bcf7f9016d09d72d40fdae2fd8ceac6b6234c7706214fd39c1cd1e609a0528c199300546001600160a01b031690565b6001600160a01b031614610eb25760405163118cdaa760e01b81523360048201526024016108ba565b306001600160a01b037f0000000000000000000000000000000000000000000000000000000000000000161480611c7e57507f00000000000000000000000000000000000000000000000000000000000000006001600160a01b0316611c725f805160206126c2833981519152546001600160a01b031690565b6001600160a01b031614155b15610eb25760405163703e46dd60e11b815260040160405180910390fd5b611b9a611b9d565b816001600160a01b03166352d1902d6040518163ffffffff1660e01b8152600401602060405180830381865afa925050508015611cfe575060408051601f3d908101601f19168201909252611cfb91810190612653565b60015b611d2657604051634c9c8ce360e01b81526001600160a01b03831660048201526024016108ba565b5f805160206126c28339815191528114611d5657604051632a87526960e21b8152600481018290526024016108ba565b611d608383612078565b505050565b306001600160a01b037f00000000000000000000000000000000000000000000000000000000000000001614610eb25760405163703e46dd60e11b815260040160405180910390fd5b7f9016d09d72d40fdae2fd8ceac6b6234c7706214fd39c1cd1e609a0528c19930080546001600160a01b031981166001600160a01b03848116918217845560405192169182907f8be0079c531659141344cd1fd0a4f28419497f9722a3daafe3b4186f6b6457e0905f90a3505050565b5f611e2b8261271061255b565b90505f611e388483612017565b90505f611e458585612017565b90508160025f828254611e5891906125cb565b925050819055508060015f828254611e7091906125cb565b90915550505050505050565b611e846120cd565b611b9a81612116565b610eb26120cd565b5f805f80611ea7600254611388612017565b90505f611eb682600554612017565b90505f611ec583600654612017565b90505f611ed484600754612017565b90505f611ee5600154600454612017565b90505f60085411611f245760405162461bcd60e51b81526020600482015260096024820152686e6f2075736572732160b81b60448201526064016108ba565b5f60085482611f339190612634565b9050611f3f83856125cb565b60025f828254611f4f919061255b565b925050819055508360015f828254611f6791906125cb565b90915550505f805460095460405163a9059cbb60e01b81526001600160a01b0391821660048201526024810187905291169063a9059cbb906044016020604051808303815f875af1158015611fbe573d5f803e3d5ffd5b505050506040513d601f19601f82011682018060405250810190611fe29190612602565b9050806120065760405163d85d3cef60e01b815281151560048201526024016108ba565b509498939750939550919350505050565b5f825f036120375760405162461bcd60e51b81526004016108ba9061266a565b815f036120565760405162461bcd60e51b81526004016108ba9061266a565b5f612710612064848661261d565b61206e9190612634565b9150505b92915050565b6120818261211e565b6040516001600160a01b038316907fbc7cd75a20ee27fd9adebab32041f755214dbc6bffa90cc0225b39da2e5c2d3b905f90a28051156120c557611d608282612181565b610a106121f3565b7ff0c57e16840df040f15088dc2f81fe391c3923bec73e23a9662efc9c229c6a0054600160401b900460ff16610eb257604051631afcd79f60e31b815260040160405180910390fd5b611b686120cd565b806001600160a01b03163b5f0361215357604051634c9c8ce360e01b81526001600160a01b03821660048201526024016108ba565b5f805160206126c283398151915280546001600160a01b0319166001600160a01b0392909216919091179055565b60605f80846001600160a01b03168460405161219d91906126ab565b5f60405180830381855af49150503d805f81146121d5576040519150601f19603f3d011682016040523d82523d5f602084013e6121da565b606091505b50915091506121ea858383612212565b95945050505050565b3415610eb25760405163b398979f60e01b815260040160405180910390fd5b6060826122275761222282612271565b61226a565b815115801561223e57506001600160a01b0384163b155b1561226757604051639996b31560e01b81526001600160a01b03851660048201526024016108ba565b50805b9392505050565b8051156122815780518082602001fd5b604051630a12f52160e11b815260040160405180910390fd5b5f602082840312156122aa575f80fd5b5035919050565b5f80602083850312156122c2575f80fd5b823567ffffffffffffffff8111156122d8575f80fd5b8301601f810185136122e8575f80fd5b803567ffffffffffffffff8111156122fe575f80fd5b85602082840101111561230f575f80fd5b6020919091019590945092505050565b80356001600160a01b0381168114612335575f80fd5b919050565b634e487b7160e01b5f52604160045260245ffd5b5f806040838503121561235f575f80fd5b6123688361231f565b9150602083013567ffffffffffffffff811115612383575f80fd5b8301601f81018513612393575f80fd5b803567ffffffffffffffff8111156123ad576123ad61233a565b604051601f8201601f19908116603f0116810167ffffffffffffffff811182821017156123dc576123dc61233a565b6040528181528282016020018710156123f3575f80fd5b816020840160208301375f602083830101528093505050509250929050565b5f8060408385031215612423575f80fd5b50508035926020909101359150565b5f81518084528060208401602086015e5f602082860101526020601f19601f83011685010191505092915050565b8215158152604060208201525f61247a6040830184612432565b949350505050565b602081525f61226a6020830184612432565b5f602082840312156124a4575f80fd5b61226a8261231f565b5f805f606084860312156124bf575f80fd5b6124c88461231f565b92506124d66020850161231f565b91506124e46040850161231f565b90509250925092565b8015158114611b9a575f80fd5b5f806040838503121561250b575f80fd5b6125148361231f565b91506020830135612524816124ed565b809150509250929050565b634e487b7160e01b5f52601160045260245ffd5b5f600182016125545761255461252f565b5060010190565b818103818111156120725761207261252f565b6020808252603b908201527f54686973206164647265737320646f6573206e6f742068617665207065726d6960408201527f7373696f6e20746f2063616c6c20706572666f726d55706b6565700000000000606082015260800190565b808201808211156120725761207261252f565b6001600160a01b039384168152919092166020820152604081019190915260600190565b5f60208284031215612612575f80fd5b815161226a816124ed565b80820281158282048414176120725761207261252f565b5f8261264e57634e487b7160e01b5f52601260045260245ffd5b500490565b5f60208284031215612663575f80fd5b5051919050565b60208082526021908201527f5f746f74616c5374616b65416d6f756e742063616e206e6f74206265207a65726040820152606f60f81b606082015260800190565b5f82518060208501845e5f92019182525091905056fe360894a13ba1a3210667c828492db98dca3e2076cc3735a920a3ca505d382bbcb5671393c7c6980552e50a31e778921eb17d764c2e98fbf4d44fff524712def9a264697066735822122098dbf646b85250c6f3e5cab4d8c752d4e3b911caa181aaad08e377720756eb7c64736f6c634300081a0033",
			"opcodes": "PUSH1 0xA0 PUSH1 0x40 MSTORE ADDRESS PUSH1 0x80 MSTORE CALLVALUE DUP1 ISZERO PUSH2 0x13 JUMPI PUSH0 DUP1 REVERT JUMPDEST POP PUSH2 0x1C PUSH2 0x21 JUMP JUMPDEST PUSH2 0xD3 JUMP JUMPDEST PUSH32 0xF0C57E16840DF040F15088DC2F81FE391C3923BEC73E23A9662EFC9C229C6A00 DUP1 SLOAD PUSH9 0x10000000000000000 SWAP1 DIV PUSH1 0xFF AND ISZERO PUSH2 0x71 JUMPI PUSH1 0x40 MLOAD PUSH4 0xF92EE8A9 PUSH1 0xE0 SHL DUP2 MSTORE PUSH1 0x4 ADD PUSH1 0x40 MLOAD DUP1 SWAP2 SUB SWAP1 REVERT JUMPDEST DUP1 SLOAD PUSH1 0x1 PUSH1 0x1 PUSH1 0x40 SHL SUB SWAP1 DUP2 AND EQ PUSH2 0xD0 JUMPI DUP1 SLOAD PUSH1 0x1 PUSH1 0x1 PUSH1 0x40 SHL SUB NOT AND PUSH1 0x1 PUSH1 0x1 PUSH1 0x40 SHL SUB SWAP1 DUP2 OR DUP3 SSTORE PUSH1 0x40 MLOAD SWAP1 DUP2 MSTORE PUSH32 0xC7F505B2F371AE2175EE4913F4499E1F2633A7B5936321EED1CDAEB6115181D2 SWAP1 PUSH1 0x20 ADD PUSH1 0x40 MLOAD DUP1 SWAP2 SUB SWAP1 LOG1 JUMPDEST POP JUMP JUMPDEST PUSH1 0x80 MLOAD PUSH2 0x2737 PUSH2 0xF9 PUSH0 CODECOPY PUSH0 DUP2 DUP2 PUSH2 0x1C03 ADD MSTORE DUP2 DUP2 PUSH2 0x1C2C ADD MSTORE PUSH2 0x1D70 ADD MSTORE PUSH2 0x2737 PUSH0 RETURN INVALID PUSH1 0x80 PUSH1 0x40 MSTORE PUSH1 0x4 CALLDATASIZE LT PUSH2 0x280 JUMPI PUSH0 CALLDATALOAD PUSH1 0xE0 SHR DUP1 PUSH4 0x7547C7A3 GT PUSH2 0x155 JUMPI DUP1 PUSH4 0xB47FF951 GT PUSH2 0xBE JUMPI DUP1 PUSH4 0xD777CC6D GT PUSH2 0x78 JUMPI DUP1 PUSH4 0xD777CC6D EQ PUSH2 0x7D8 JUMPI DUP1 PUSH4 0xD9B998B4 EQ PUSH2 0x7F7 JUMPI DUP1 PUSH4 0xE9C68E2C EQ PUSH2 0x816 JUMPI DUP1 PUSH4 0xED061067 EQ PUSH2 0x82A JUMPI DUP1 PUSH4 0xF2FDE38B EQ PUSH2 0x849 JUMPI DUP1 PUSH4 0xFF3D65D9 EQ PUSH2 0x868 JUMPI PUSH0 DUP1 REVERT JUMPDEST DUP1 PUSH4 0xB47FF951 EQ PUSH2 0x6C1 JUMPI DUP1 PUSH4 0xB9DAC1EB EQ PUSH2 0x6D6 JUMPI DUP1 PUSH4 0xBCCBC36C EQ PUSH2 0x6F5 JUMPI DUP1 PUSH4 0xC0C53B8B EQ PUSH2 0x776 JUMPI DUP1 PUSH4 0xC7FD5BF0 EQ PUSH2 0x795 JUMPI DUP1 PUSH4 0xCE356A24 EQ PUSH2 0x7C3 JUMPI PUSH0 DUP1 REVERT JUMPDEST DUP1 PUSH4 0x8DA5CB5B GT PUSH2 0x10F JUMPI DUP1 PUSH4 0x8DA5CB5B EQ PUSH2 0x5CB JUMPI DUP1 PUSH4 0x947A36FB EQ PUSH2 0x607 JUMPI DUP1 PUSH4 0x9C361E4E EQ PUSH2 0x61C JUMPI DUP1 PUSH4 0xA4F67B8B EQ PUSH2 0x631 JUMPI DUP1 PUSH4 0xAD3CB1CC EQ PUSH2 0x665 JUMPI DUP1 PUSH4 0xAD8E5EC4 EQ PUSH2 0x6A2 JUMPI PUSH0 DUP1 REVERT JUMPDEST DUP1 PUSH4 0x7547C7A3 EQ PUSH2 0x511 JUMPI DUP1 PUSH4 0x78FD078D EQ PUSH2 0x530 JUMPI DUP1 PUSH4 0x7F111E60 EQ PUSH2 0x54F JUMPI DUP1 PUSH4 0x7F70C5E7 EQ PUSH2 0x56E JUMPI DUP1 PUSH4 0x7FFE4D93 EQ PUSH2 0x58D JUMPI DUP1 PUSH4 0x85F45250 EQ PUSH2 0x5AC JUMPI PUSH0 DUP1 REVERT JUMPDEST DUP1 PUSH4 0x44490FF4 GT PUSH2 0x1F7 JUMPI DUP1 PUSH4 0x567E98F9 GT PUSH2 0x1B1 JUMPI DUP1 PUSH4 0x567E98F9 EQ PUSH2 0x469 JUMPI DUP1 PUSH4 0x5F17E616 EQ PUSH2 0x47E JUMPI DUP1 PUSH4 0x6626B26D EQ PUSH2 0x49D JUMPI DUP1 PUSH4 0x67976974 EQ PUSH2 0x4B1 JUMPI DUP1 PUSH4 0x6E04FF0D EQ PUSH2 0x4D0 JUMPI DUP1 PUSH4 0x715018A6 EQ PUSH2 0x4FD JUMPI PUSH0 DUP1 REVERT JUMPDEST DUP1 PUSH4 0x44490FF4 EQ PUSH2 0x3D0 JUMPI DUP1 PUSH4 0x4585E33B EQ PUSH2 0x3E5 JUMPI DUP1 PUSH4 0x4F1EF286 EQ PUSH2 0x404 JUMPI DUP1 PUSH4 0x5256DBBF EQ PUSH2 0x417 JUMPI DUP1 PUSH4 0x52D1902D EQ PUSH2 0x436 JUMPI DUP1 PUSH4 0x5462870D EQ PUSH2 0x44A JUMPI PUSH0 DUP1 REVERT JUMPDEST DUP1 PUSH4 0x30CAC972 GT PUSH2 0x248 JUMPI DUP1 PUSH4 0x30CAC972 EQ PUSH2 0x337 JUMPI DUP1 PUSH4 0x30E3F8F8 EQ PUSH2 0x34C JUMPI DUP1 PUSH4 0x33244C2C EQ PUSH2 0x37C JUMPI DUP1 PUSH4 0x39518B5E EQ PUSH2 0x391 JUMPI DUP1 PUSH4 0x3A71A9E4 EQ PUSH2 0x3A6 JUMPI DUP1 PUSH4 0x3F3B3B27 EQ PUSH2 0x3BB JUMPI PUSH0 DUP1 REVERT JUMPDEST DUP1 PUSH4 0x1934A83 EQ PUSH2 0x284 JUMPI DUP1 PUSH4 0x11EAC855 EQ PUSH2 0x2AC JUMPI DUP1 PUSH4 0x188E07B9 EQ PUSH2 0x2E2 JUMPI DUP1 PUSH4 0x2765DF7A EQ PUSH2 0x2F7 JUMPI DUP1 PUSH4 0x3070FBF8 EQ PUSH2 0x318 JUMPI JUMPDEST PUSH0 DUP1 REVERT JUMPDEST CALLVALUE DUP1 ISZERO PUSH2 0x28F JUMPI PUSH0 DUP1 REVERT JUMPDEST POP PUSH2 0x299 PUSH1 0x8 SLOAD DUP2 JUMP JUMPDEST PUSH1 0x40 MLOAD SWAP1 DUP2 MSTORE PUSH1 0x20 ADD JUMPDEST PUSH1 0x40 MLOAD DUP1 SWAP2 SUB SWAP1 RETURN JUMPDEST CALLVALUE DUP1 ISZERO PUSH2 0x2B7 JUMPI PUSH0 DUP1 REVERT JUMPDEST POP PUSH0 SLOAD PUSH2 0x2CA SWAP1 PUSH1 0x1 PUSH1 0x1 PUSH1 0xA0 SHL SUB AND DUP2 JUMP JUMPDEST PUSH1 0x40 MLOAD PUSH1 0x1 PUSH1 0x1 PUSH1 0xA0 SHL SUB SWAP1 SWAP2 AND DUP2 MSTORE PUSH1 0x20 ADD PUSH2 0x2A3 JUMP JUMPDEST CALLVALUE DUP1 ISZERO PUSH2 0x2ED JUMPI PUSH0 DUP1 REVERT JUMPDEST POP PUSH2 0x299 PUSH1 0x1 SLOAD DUP2 JUMP JUMPDEST CALLVALUE DUP1 ISZERO PUSH2 0x302 JUMPI PUSH0 DUP1 REVERT JUMPDEST POP PUSH2 0x316 PUSH2 0x311 CALLDATASIZE PUSH1 0x4 PUSH2 0x229A JUMP JUMPDEST PUSH2 0x893 JUMP JUMPDEST STOP JUMPDEST CALLVALUE DUP1 ISZERO PUSH2 0x323 JUMPI PUSH0 DUP1 REVERT JUMPDEST POP PUSH1 0xE SLOAD PUSH2 0x2CA SWAP1 PUSH1 0x1 PUSH1 0x1 PUSH1 0xA0 SHL SUB AND DUP2 JUMP JUMPDEST CALLVALUE DUP1 ISZERO PUSH2 0x342 JUMPI PUSH0 DUP1 REVERT JUMPDEST POP PUSH2 0x299 PUSH1 0xB SLOAD DUP2 JUMP JUMPDEST CALLVALUE DUP1 ISZERO PUSH2 0x357 JUMPI PUSH0 DUP1 REVERT JUMPDEST POP PUSH1 0x9 SLOAD PUSH2 0x36C SWAP1 PUSH1 0x1 PUSH1 0xA0 SHL SWAP1 DIV PUSH1 0xFF AND DUP2 JUMP JUMPDEST PUSH1 0x40 MLOAD SWAP1 ISZERO ISZERO DUP2 MSTORE PUSH1 0x20 ADD PUSH2 0x2A3 JUMP JUMPDEST CALLVALUE DUP1 ISZERO PUSH2 0x387 JUMPI PUSH0 DUP1 REVERT JUMPDEST POP PUSH2 0x299 PUSH1 0x4 SLOAD DUP2 JUMP JUMPDEST CALLVALUE DUP1 ISZERO PUSH2 0x39C JUMPI PUSH0 DUP1 REVERT JUMPDEST POP PUSH2 0x299 PUSH1 0xC SLOAD DUP2 JUMP JUMPDEST CALLVALUE DUP1 ISZERO PUSH2 0x3B1 JUMPI PUSH0 DUP1 REVERT JUMPDEST POP PUSH2 0x299 PUSH1 0x7 SLOAD DUP2 JUMP JUMPDEST CALLVALUE DUP1 ISZERO PUSH2 0x3C6 JUMPI PUSH0 DUP1 REVERT JUMPDEST POP PUSH2 0x299 PUSH1 0xD SLOAD DUP2 JUMP JUMPDEST CALLVALUE DUP1 ISZERO PUSH2 0x3DB JUMPI PUSH0 DUP1 REVERT JUMPDEST POP PUSH2 0x299 PUSH1 0x5 SLOAD DUP2 JUMP JUMPDEST CALLVALUE DUP1 ISZERO PUSH2 0x3F0 JUMPI PUSH0 DUP1 REVERT JUMPDEST POP PUSH2 0x316 PUSH2 0x3FF CALLDATASIZE PUSH1 0x4 PUSH2 0x22B1 JUMP JUMPDEST PUSH2 0x93D JUMP JUMPDEST PUSH2 0x316 PUSH2 0x412 CALLDATASIZE PUSH1 0x4 PUSH2 0x234E JUMP JUMPDEST PUSH2 0xA14 JUMP JUMPDEST CALLVALUE DUP1 ISZERO PUSH2 0x422 JUMPI PUSH0 DUP1 REVERT JUMPDEST POP PUSH2 0x316 PUSH2 0x431 CALLDATASIZE PUSH1 0x4 PUSH2 0x229A JUMP JUMPDEST PUSH2 0xA2F JUMP JUMPDEST CALLVALUE DUP1 ISZERO PUSH2 0x441 JUMPI PUSH0 DUP1 REVERT JUMPDEST POP PUSH2 0x299 PUSH2 0xB47 JUMP JUMPDEST CALLVALUE DUP1 ISZERO PUSH2 0x455 JUMPI PUSH0 DUP1 REVERT JUMPDEST POP PUSH1 0x9 SLOAD PUSH2 0x2CA SWAP1 PUSH1 0x1 PUSH1 0x1 PUSH1 0xA0 SHL SUB AND DUP2 JUMP JUMPDEST CALLVALUE DUP1 ISZERO PUSH2 0x474 JUMPI PUSH0 DUP1 REVERT JUMPDEST POP PUSH2 0x299 PUSH1 0x3 SLOAD DUP2 JUMP JUMPDEST CALLVALUE DUP1 ISZERO PUSH2 0x489 JUMPI PUSH0 DUP1 REVERT JUMPDEST POP PUSH2 0x316 PUSH2 0x498 CALLDATASIZE PUSH1 0x4 PUSH2 0x2412 JUMP JUMPDEST PUSH2 0xB62 JUMP JUMPDEST CALLVALUE DUP1 ISZERO PUSH2 0x4A8 JUMPI PUSH0 DUP1 REVERT JUMPDEST POP PUSH2 0x316 PUSH2 0xC0C JUMP JUMPDEST CALLVALUE DUP1 ISZERO PUSH2 0x4BC JUMPI PUSH0 DUP1 REVERT JUMPDEST POP PUSH2 0x316 PUSH2 0x4CB CALLDATASIZE PUSH1 0x4 PUSH2 0x229A JUMP JUMPDEST PUSH2 0xC63 JUMP JUMPDEST CALLVALUE DUP1 ISZERO PUSH2 0x4DB JUMPI PUSH0 DUP1 REVERT JUMPDEST POP PUSH2 0x4EF PUSH2 0x4EA CALLDATASIZE PUSH1 0x4 PUSH2 0x22B1 JUMP JUMPDEST PUSH2 0xE71 JUMP JUMPDEST PUSH1 0x40 MLOAD PUSH2 0x2A3 SWAP3 SWAP2 SWAP1 PUSH2 0x2460 JUMP JUMPDEST CALLVALUE DUP1 ISZERO PUSH2 0x508 JUMPI PUSH0 DUP1 REVERT JUMPDEST POP PUSH2 0x316 PUSH2 0xEA1 JUMP JUMPDEST CALLVALUE DUP1 ISZERO PUSH2 0x51C JUMPI PUSH0 DUP1 REVERT JUMPDEST POP PUSH2 0x316 PUSH2 0x52B CALLDATASIZE PUSH1 0x4 PUSH2 0x229A JUMP JUMPDEST PUSH2 0xEB4 JUMP JUMPDEST CALLVALUE DUP1 ISZERO PUSH2 0x53B JUMPI PUSH0 DUP1 REVERT JUMPDEST POP PUSH2 0x316 PUSH2 0x54A CALLDATASIZE PUSH1 0x4 PUSH2 0x229A JUMP JUMPDEST PUSH2 0x109B JUMP JUMPDEST CALLVALUE DUP1 ISZERO PUSH2 0x55A JUMPI PUSH0 DUP1 REVERT JUMPDEST POP PUSH2 0x316 PUSH2 0x569 CALLDATASIZE PUSH1 0x4 PUSH2 0x229A JUMP JUMPDEST PUSH2 0x11A7 JUMP JUMPDEST CALLVALUE DUP1 ISZERO PUSH2 0x579 JUMPI PUSH0 DUP1 REVERT JUMPDEST POP PUSH2 0x316 PUSH2 0x588 CALLDATASIZE PUSH1 0x4 PUSH2 0x229A JUMP JUMPDEST PUSH2 0x11FA JUMP JUMPDEST CALLVALUE DUP1 ISZERO PUSH2 0x598 JUMPI PUSH0 DUP1 REVERT JUMPDEST POP PUSH2 0x316 PUSH2 0x5A7 CALLDATASIZE PUSH1 0x4 PUSH2 0x229A JUMP JUMPDEST PUSH2 0x124D JUMP JUMPDEST CALLVALUE DUP1 ISZERO PUSH2 0x5B7 JUMPI PUSH0 DUP1 REVERT JUMPDEST POP PUSH2 0x316 PUSH2 0x5C6 CALLDATASIZE PUSH1 0x4 PUSH2 0x2412 JUMP JUMPDEST PUSH2 0x139C JUMP JUMPDEST CALLVALUE DUP1 ISZERO PUSH2 0x5D6 JUMPI PUSH0 DUP1 REVERT JUMPDEST POP PUSH32 0x9016D09D72D40FDAE2FD8CEAC6B6234C7706214FD39C1CD1E609A0528C199300 SLOAD PUSH1 0x1 PUSH1 0x1 PUSH1 0xA0 SHL SUB AND PUSH2 0x2CA JUMP JUMPDEST CALLVALUE DUP1 ISZERO PUSH2 0x612 JUMPI PUSH0 DUP1 REVERT JUMPDEST POP PUSH2 0x299 PUSH1 0xA SLOAD DUP2 JUMP JUMPDEST CALLVALUE DUP1 ISZERO PUSH2 0x627 JUMPI PUSH0 DUP1 REVERT JUMPDEST POP PUSH2 0x299 PUSH1 0xF SLOAD DUP2 JUMP JUMPDEST CALLVALUE DUP1 ISZERO PUSH2 0x63C JUMPI PUSH0 DUP1 REVERT JUMPDEST POP PUSH2 0x2CA PUSH2 0x64B CALLDATASIZE PUSH1 0x4 PUSH2 0x229A JUMP JUMPDEST PUSH1 0x11 PUSH1 0x20 MSTORE PUSH0 SWAP1 DUP2 MSTORE PUSH1 0x40 SWAP1 KECCAK256 SLOAD PUSH1 0x1 PUSH1 0x1 PUSH1 0xA0 SHL SUB AND DUP2 JUMP JUMPDEST CALLVALUE DUP1 ISZERO PUSH2 0x670 JUMPI PUSH0 DUP1 REVERT JUMPDEST POP PUSH2 0x695 PUSH1 0x40 MLOAD DUP1 PUSH1 0x40 ADD PUSH1 0x40 MSTORE DUP1 PUSH1 0x5 DUP2 MSTORE PUSH1 0x20 ADD PUSH5 0x352E302E3 PUSH1 0xDC SHL DUP2 MSTORE POP DUP2 JUMP JUMPDEST PUSH1 0x40 MLOAD PUSH2 0x2A3 SWAP2 SWAP1 PUSH2 0x2482 JUMP JUMPDEST CALLVALUE DUP1 ISZERO PUSH2 0x6AD JUMPI PUSH0 DUP1 REVERT JUMPDEST POP PUSH2 0x316 PUSH2 0x6BC CALLDATASIZE PUSH1 0x4 PUSH2 0x229A JUMP JUMPDEST PUSH2 0x14D4 JUMP JUMPDEST CALLVALUE DUP1 ISZERO PUSH2 0x6CC JUMPI PUSH0 DUP1 REVERT JUMPDEST POP PUSH2 0x299 PUSH1 0x2 SLOAD DUP2 JUMP JUMPDEST CALLVALUE DUP1 ISZERO PUSH2 0x6E1 JUMPI PUSH0 DUP1 REVERT JUMPDEST POP PUSH2 0x316 PUSH2 0x6F0 CALLDATASIZE PUSH1 0x4 PUSH2 0x229A JUMP JUMPDEST PUSH2 0x1527 JUMP JUMPDEST CALLVALUE DUP1 ISZERO PUSH2 0x700 JUMPI PUSH0 DUP1 REVERT JUMPDEST POP PUSH2 0x747 PUSH2 0x70F CALLDATASIZE PUSH1 0x4 PUSH2 0x2494 JUMP JUMPDEST PUSH1 0x13 PUSH1 0x20 MSTORE PUSH0 SWAP1 DUP2 MSTORE PUSH1 0x40 SWAP1 KECCAK256 DUP1 SLOAD PUSH1 0x1 DUP3 ADD SLOAD PUSH1 0x2 DUP4 ADD SLOAD PUSH1 0x3 DUP5 ADD SLOAD PUSH1 0x4 DUP6 ADD SLOAD PUSH1 0x5 SWAP1 SWAP6 ADD SLOAD PUSH1 0xFF SWAP1 SWAP5 AND SWAP5 SWAP3 SWAP4 SWAP2 SWAP3 SWAP1 SWAP2 DUP7 JUMP JUMPDEST PUSH1 0x40 DUP1 MLOAD SWAP7 ISZERO ISZERO DUP8 MSTORE PUSH1 0x20 DUP8 ADD SWAP6 SWAP1 SWAP6 MSTORE SWAP4 DUP6 ADD SWAP3 SWAP1 SWAP3 MSTORE PUSH1 0x60 DUP5 ADD MSTORE PUSH1 0x80 DUP4 ADD MSTORE PUSH1 0xA0 DUP3 ADD MSTORE PUSH1 0xC0 ADD PUSH2 0x2A3 JUMP JUMPDEST CALLVALUE DUP1 ISZERO PUSH2 0x781 JUMPI PUSH0 DUP1 REVERT JUMPDEST POP PUSH2 0x316 PUSH2 0x790 CALLDATASIZE PUSH1 0x4 PUSH2 0x24AD JUMP JUMPDEST PUSH2 0x157A JUMP JUMPDEST CALLVALUE DUP1 ISZERO PUSH2 0x7A0 JUMPI PUSH0 DUP1 REVERT JUMPDEST POP PUSH2 0x36C PUSH2 0x7AF CALLDATASIZE PUSH1 0x4 PUSH2 0x2494 JUMP JUMPDEST PUSH1 0x10 PUSH1 0x20 MSTORE PUSH0 SWAP1 DUP2 MSTORE PUSH1 0x40 SWAP1 KECCAK256 SLOAD PUSH1 0xFF AND DUP2 JUMP JUMPDEST CALLVALUE DUP1 ISZERO PUSH2 0x7CE JUMPI PUSH0 DUP1 REVERT JUMPDEST POP PUSH2 0x299 PUSH1 0x6 SLOAD DUP2 JUMP JUMPDEST CALLVALUE DUP1 ISZERO PUSH2 0x7E3 JUMPI PUSH0 DUP1 REVERT JUMPDEST POP PUSH2 0x316 PUSH2 0x7F2 CALLDATASIZE PUSH1 0x4 PUSH2 0x2494 JUMP JUMPDEST PUSH2 0x16D9 JUMP JUMPDEST CALLVALUE DUP1 ISZERO PUSH2 0x802 JUMPI PUSH0 DUP1 REVERT JUMPDEST POP PUSH2 0x316 PUSH2 0x811 CALLDATASIZE PUSH1 0x4 PUSH2 0x24FA JUMP JUMPDEST PUSH2 0x1768 JUMP JUMPDEST CALLVALUE DUP1 ISZERO PUSH2 0x821 JUMPI PUSH0 DUP1 REVERT JUMPDEST POP PUSH2 0x316 PUSH2 0x1884 JUMP JUMPDEST CALLVALUE DUP1 ISZERO PUSH2 0x835 JUMPI PUSH0 DUP1 REVERT JUMPDEST POP PUSH2 0x316 PUSH2 0x844 CALLDATASIZE PUSH1 0x4 PUSH2 0x2412 JUMP JUMPDEST PUSH2 0x1B01 JUMP JUMPDEST CALLVALUE DUP1 ISZERO PUSH2 0x854 JUMPI PUSH0 DUP1 REVERT JUMPDEST POP PUSH2 0x316 PUSH2 0x863 CALLDATASIZE PUSH1 0x4 PUSH2 0x2494 JUMP JUMPDEST PUSH2 0x1B60 JUMP JUMPDEST CALLVALUE DUP1 ISZERO PUSH2 0x873 JUMPI PUSH0 DUP1 REVERT JUMPDEST POP PUSH2 0x299 PUSH2 0x882 CALLDATASIZE PUSH1 0x4 PUSH2 0x229A JUMP JUMPDEST PUSH1 0x12 PUSH1 0x20 MSTORE PUSH0 SWAP1 DUP2 MSTORE PUSH1 0x40 SWAP1 KECCAK256 SLOAD DUP2 JUMP JUMPDEST PUSH2 0x89B PUSH2 0x1B9D JUMP JUMPDEST PUSH0 DUP2 GT PUSH2 0x8C3 JUMPI PUSH1 0x40 MLOAD PUSH4 0xCDBC6335 PUSH1 0xE0 SHL DUP2 MSTORE PUSH1 0x4 DUP2 ADD DUP3 SWAP1 MSTORE PUSH1 0x24 ADD JUMPDEST PUSH1 0x40 MLOAD DUP1 SWAP2 SUB SWAP1 REVERT JUMPDEST PUSH1 0xF DUP1 SLOAD PUSH0 SWAP1 DUP2 MSTORE PUSH1 0x12 PUSH1 0x20 MSTORE PUSH1 0x40 DUP2 KECCAK256 DUP4 SWAP1 SSTORE DUP2 SLOAD SWAP2 SWAP1 PUSH2 0x8E4 DUP4 PUSH2 0x2543 JUMP JUMPDEST SWAP1 SWAP2 SSTORE POP POP PUSH1 0xF SLOAD PUSH32 0xE1976E16ED8CE8E740235978FBE69B27D5EEA683B2E017BB0BD2FABB33294B3F SWAP1 PUSH2 0x91A DUP4 PUSH2 0x2710 PUSH2 0x255B JUMP JUMPDEST PUSH1 0x40 DUP1 MLOAD SWAP3 DUP4 MSTORE PUSH1 0x20 DUP4 ADD SWAP2 SWAP1 SWAP2 MSTORE DUP2 ADD DUP4 SWAP1 MSTORE PUSH1 0x60 ADD JUMPDEST PUSH1 0x40 MLOAD DUP1 SWAP2 SUB SWAP1 LOG1 POP JUMP JUMPDEST PUSH1 0xE SLOAD PUSH1 0x1 PUSH1 0x1 PUSH1 0xA0 SHL SUB AND CALLER EQ PUSH2 0x967 JUMPI PUSH1 0x40 MLOAD PUSH3 0x461BCD PUSH1 0xE5 SHL DUP2 MSTORE PUSH1 0x4 ADD PUSH2 0x8BA SWAP1 PUSH2 0x256E JUMP JUMPDEST PUSH1 0xA SLOAD PUSH0 SUB PUSH2 0x98F JUMPI PUSH1 0xA SLOAD PUSH1 0x40 MLOAD PUSH4 0x71540007 PUSH1 0xE0 SHL DUP2 MSTORE PUSH1 0x4 ADD PUSH2 0x8BA SWAP2 DUP2 MSTORE PUSH1 0x20 ADD SWAP1 JUMP JUMPDEST PUSH1 0x9 SLOAD PUSH1 0x1 PUSH1 0xA0 SHL SWAP1 DIV PUSH1 0xFF AND PUSH2 0x9DF JUMPI PUSH1 0xC SLOAD TIMESTAMP LT PUSH2 0x9C0 JUMPI TIMESTAMP PUSH1 0xD SSTORE PUSH2 0x9B5 PUSH2 0x1884 JUMP JUMPDEST PUSH1 0xB SLOAD PUSH1 0xA SSTORE PUSH2 0x9EB JUMP JUMPDEST PUSH1 0xC SLOAD PUSH1 0x40 MLOAD PUSH4 0x54593E75 PUSH1 0xE0 SHL DUP2 MSTORE PUSH1 0x4 ADD PUSH2 0x8BA SWAP2 DUP2 MSTORE PUSH1 0x20 ADD SWAP1 JUMP JUMPDEST TIMESTAMP PUSH1 0xD SSTORE PUSH2 0x9EB PUSH2 0x1884 JUMP JUMPDEST PUSH1 0x9 SLOAD PUSH1 0x1 PUSH1 0xA0 SHL SWAP1 DIV PUSH1 0xFF AND PUSH2 0xA10 JUMPI PUSH1 0x9 DUP1 SLOAD PUSH1 0xFF PUSH1 0xA0 SHL NOT AND PUSH1 0x1 PUSH1 0xA0 SHL OR SWAP1 SSTORE JUMPDEST POP POP JUMP JUMPDEST PUSH2 0xA1C PUSH2 0x1BF8 JUMP JUMPDEST PUSH2 0xA25 DUP3 PUSH2 0x1C9C JUMP JUMPDEST PUSH2 0xA10 DUP3 DUP3 PUSH2 0x1CA4 JUMP JUMPDEST PUSH2 0xA37 PUSH2 0x1B9D JUMP JUMPDEST PUSH0 DUP2 GT PUSH2 0xA5A JUMPI PUSH1 0x40 MLOAD PUSH4 0x2FF4783 PUSH1 0xE4 SHL DUP2 MSTORE PUSH1 0x4 DUP2 ADD DUP3 SWAP1 MSTORE PUSH1 0x24 ADD PUSH2 0x8BA JUMP JUMPDEST DUP1 PUSH1 0x1 PUSH0 DUP3 DUP3 SLOAD PUSH2 0xA6B SWAP2 SWAP1 PUSH2 0x25CB JUMP JUMPDEST SWAP1 SWAP2 SSTORE POP POP PUSH0 DUP1 SLOAD PUSH1 0x40 MLOAD PUSH4 0x23B872DD PUSH1 0xE0 SHL DUP2 MSTORE PUSH1 0x1 PUSH1 0x1 PUSH1 0xA0 SHL SUB SWAP1 SWAP2 AND SWAP1 PUSH4 0x23B872DD SWAP1 PUSH2 0xAA4 SWAP1 CALLER SWAP1 ADDRESS SWAP1 DUP8 SWAP1 PUSH1 0x4 ADD PUSH2 0x25DE JUMP JUMPDEST PUSH1 0x20 PUSH1 0x40 MLOAD DUP1 DUP4 SUB DUP2 PUSH0 DUP8 GAS CALL ISZERO DUP1 ISZERO PUSH2 0xAC0 JUMPI RETURNDATASIZE PUSH0 DUP1 RETURNDATACOPY RETURNDATASIZE PUSH0 REVERT JUMPDEST POP POP POP POP PUSH1 0x40 MLOAD RETURNDATASIZE PUSH1 0x1F NOT PUSH1 0x1F DUP3 ADD AND DUP3 ADD DUP1 PUSH1 0x40 MSTORE POP DUP2 ADD SWAP1 PUSH2 0xAE4 SWAP2 SWAP1 PUSH2 0x2602 JUMP JUMPDEST SWAP1 POP DUP1 PUSH2 0xB08 JUMPI PUSH1 0x40 MLOAD PUSH4 0xD85D3CEF PUSH1 0xE0 SHL DUP2 MSTORE DUP2 ISZERO ISZERO PUSH1 0x4 DUP3 ADD MSTORE PUSH1 0x24 ADD PUSH2 0x8BA JUMP JUMPDEST PUSH32 0xA9F166643EC132A11638E74E3C3A78D4AE278FCBF92998240E0E97676F54E404 PUSH1 0x1 SLOAD PUSH1 0x40 MLOAD PUSH2 0xB3B SWAP2 DUP2 MSTORE PUSH1 0x20 ADD SWAP1 JUMP JUMPDEST PUSH1 0x40 MLOAD DUP1 SWAP2 SUB SWAP1 LOG1 POP POP JUMP JUMPDEST PUSH0 PUSH2 0xB50 PUSH2 0x1D65 JUMP JUMPDEST POP PUSH0 DUP1 MLOAD PUSH1 0x20 PUSH2 0x26C2 DUP4 CODECOPY DUP2 MLOAD SWAP2 MSTORE SWAP1 JUMP JUMPDEST PUSH2 0xB6A PUSH2 0x1B9D JUMP JUMPDEST PUSH0 DUP2 GT PUSH2 0xB8D JUMPI PUSH1 0x40 MLOAD PUSH4 0x71540007 PUSH1 0xE0 SHL DUP2 MSTORE PUSH1 0x4 DUP2 ADD DUP3 SWAP1 MSTORE PUSH1 0x24 ADD PUSH2 0x8BA JUMP JUMPDEST TIMESTAMP DUP3 LT ISZERO PUSH2 0xBB1 JUMPI PUSH1 0x40 MLOAD PUSH4 0x54593E75 PUSH1 0xE0 SHL DUP2 MSTORE PUSH1 0x4 DUP2 ADD DUP4 SWAP1 MSTORE PUSH1 0x24 ADD PUSH2 0x8BA JUMP JUMPDEST PUSH2 0xBBB TIMESTAMP DUP4 PUSH2 0x255B JUMP JUMPDEST PUSH1 0xA DUP2 SWAP1 SSTORE PUSH1 0xC DUP4 SWAP1 SSTORE TIMESTAMP PUSH1 0xD DUP2 SWAP1 SSTORE PUSH1 0xB DUP4 SWAP1 SSTORE PUSH1 0x40 DUP1 MLOAD CALLER DUP2 MSTORE PUSH1 0x20 DUP2 ADD SWAP4 SWAP1 SWAP4 MSTORE DUP3 ADD MSTORE PUSH32 0x2B5090E035D3026F5448298C9ADC68DB8BBC1B26A8AF5C81B2B2A9FC07CA4A00 SWAP1 PUSH1 0x60 ADD PUSH2 0xB3B JUMP JUMPDEST PUSH2 0xC14 PUSH2 0x1B9D JUMP JUMPDEST PUSH0 PUSH1 0xA DUP2 SWAP1 SSTORE PUSH1 0x9 DUP1 SLOAD PUSH1 0xFF PUSH1 0xA0 SHL NOT AND SWAP1 SSTORE PUSH1 0x40 DUP1 MLOAD CALLER DUP2 MSTORE PUSH1 0x20 DUP2 ADD SWAP3 SWAP1 SWAP3 MSTORE PUSH32 0x3B68DC4E210C46D3622293F2B941CDFDE795BB6E17286BB289BA05A6A3B5541F SWAP2 ADD PUSH1 0x40 MLOAD DUP1 SWAP2 SUB SWAP1 LOG1 JUMP JUMPDEST PUSH1 0x9 SLOAD PUSH1 0x1 PUSH1 0xA8 SHL SWAP1 DIV PUSH1 0xFF AND ISZERO PUSH2 0xCBD JUMPI PUSH1 0x40 MLOAD PUSH3 0x461BCD PUSH1 0xE5 SHL DUP2 MSTORE PUSH1 0x20 PUSH1 0x4 DUP3 ADD MSTORE PUSH1 0x1F PUSH1 0x24 DUP3 ADD MSTORE PUSH32 0x5265656E7472616E637947756172643A207265656E7472616E742063616C6C00 PUSH1 0x44 DUP3 ADD MSTORE PUSH1 0x64 ADD PUSH2 0x8BA JUMP JUMPDEST PUSH1 0x9 DUP1 SLOAD PUSH1 0xFF PUSH1 0xA8 SHL NOT AND PUSH1 0x1 PUSH1 0xA8 SHL OR SWAP1 SSTORE DUP1 PUSH2 0xCF1 JUMPI PUSH1 0x40 MLOAD PUSH4 0x2FF4783 PUSH1 0xE4 SHL DUP2 MSTORE PUSH1 0x4 DUP2 ADD DUP3 SWAP1 MSTORE PUSH1 0x24 ADD PUSH2 0x8BA JUMP JUMPDEST CALLER PUSH0 SWAP1 DUP2 MSTORE PUSH1 0x13 PUSH1 0x20 MSTORE PUSH1 0x40 SWAP1 KECCAK256 PUSH1 0x1 ADD SLOAD DUP2 GT ISZERO PUSH2 0xD45 JUMPI PUSH1 0x40 MLOAD PUSH3 0x461BCD PUSH1 0xE5 SHL DUP2 MSTORE PUSH1 0x20 PUSH1 0x4 DUP3 ADD MSTORE PUSH1 0x10 PUSH1 0x24 DUP3 ADD MSTORE PUSH16 0x696E76616C6964205F616D6F756E7421 PUSH1 0x80 SHL PUSH1 0x44 DUP3 ADD MSTORE PUSH1 0x64 ADD PUSH2 0x8BA JUMP JUMPDEST CALLER PUSH0 SWAP1 DUP2 MSTORE PUSH1 0x13 PUSH1 0x20 MSTORE PUSH1 0x40 DUP2 KECCAK256 PUSH1 0x1 ADD DUP1 SLOAD DUP4 SWAP3 SWAP1 PUSH2 0xD66 SWAP1 DUP5 SWAP1 PUSH2 0x255B JUMP JUMPDEST SWAP1 SWAP2 SSTORE POP POP CALLER PUSH0 SWAP1 DUP2 MSTORE PUSH1 0x13 PUSH1 0x20 MSTORE PUSH1 0x40 DUP2 KECCAK256 PUSH1 0x2 ADD DUP1 SLOAD DUP4 SWAP3 SWAP1 PUSH2 0xD8C SWAP1 DUP5 SWAP1 PUSH2 0x25CB JUMP JUMPDEST SWAP1 SWAP2 SSTORE POP POP PUSH0 DUP1 SLOAD PUSH1 0x40 MLOAD PUSH4 0xA9059CBB PUSH1 0xE0 SHL DUP2 MSTORE CALLER PUSH1 0x4 DUP3 ADD MSTORE PUSH1 0x24 DUP2 ADD DUP5 SWAP1 MSTORE PUSH1 0x1 PUSH1 0x1 PUSH1 0xA0 SHL SUB SWAP1 SWAP2 AND SWAP1 PUSH4 0xA9059CBB SWAP1 PUSH1 0x44 ADD PUSH1 0x20 PUSH1 0x40 MLOAD DUP1 DUP4 SUB DUP2 PUSH0 DUP8 GAS CALL ISZERO DUP1 ISZERO PUSH2 0xDDF JUMPI RETURNDATASIZE PUSH0 DUP1 RETURNDATACOPY RETURNDATASIZE PUSH0 REVERT JUMPDEST POP POP POP POP PUSH1 0x40 MLOAD RETURNDATASIZE PUSH1 0x1F NOT PUSH1 0x1F DUP3 ADD AND DUP3 ADD DUP1 PUSH1 0x40 MSTORE POP DUP2 ADD SWAP1 PUSH2 0xE03 SWAP2 SWAP1 PUSH2 0x2602 JUMP JUMPDEST SWAP1 POP DUP1 PUSH2 0xE27 JUMPI PUSH1 0x40 MLOAD PUSH4 0xD85D3CEF PUSH1 0xE0 SHL DUP2 MSTORE DUP2 ISZERO ISZERO PUSH1 0x4 DUP3 ADD MSTORE PUSH1 0x24 ADD PUSH2 0x8BA JUMP JUMPDEST PUSH1 0x40 DUP1 MLOAD CALLER DUP2 MSTORE PUSH1 0x20 DUP2 ADD DUP5 SWAP1 MSTORE PUSH32 0x884EDAD9CE6FA2440D8A54CC123490EB96D2768479D49FF9C7366125A9424364 SWAP2 ADD PUSH1 0x40 MLOAD DUP1 SWAP2 SUB SWAP1 LOG1 POP POP PUSH1 0x9 DUP1 SLOAD PUSH1 0xFF PUSH1 0xA8 SHL NOT AND SWAP1 SSTORE JUMP JUMPDEST PUSH0 PUSH1 0x60 PUSH0 PUSH1 0xA SLOAD PUSH1 0xD SLOAD TIMESTAMP PUSH2 0xE86 SWAP2 SWAP1 PUSH2 0x255B JUMP JUMPDEST PUSH1 0x40 DUP1 MLOAD PUSH1 0x20 DUP2 ADD SWAP1 SWAP2 MSTORE PUSH0 DUP2 MSTORE SWAP2 LT SWAP7 SWAP1 SWAP6 POP SWAP4 POP POP POP POP JUMP JUMPDEST PUSH2 0xEA9 PUSH2 0x1B9D JUMP JUMPDEST PUSH2 0xEB2 PUSH0 PUSH2 0x1DAE JUMP JUMPDEST JUMP JUMPDEST PUSH0 DUP2 GT PUSH2 0xED7 JUMPI PUSH1 0x40 MLOAD PUSH4 0x2FF4783 PUSH1 0xE4 SHL DUP2 MSTORE PUSH1 0x4 DUP2 ADD DUP3 SWAP1 MSTORE PUSH1 0x24 ADD PUSH2 0x8BA JUMP JUMPDEST CALLER PUSH0 SWAP1 DUP2 MSTORE PUSH1 0x13 PUSH1 0x20 MSTORE PUSH1 0x40 SWAP1 KECCAK256 SLOAD PUSH1 0xFF AND ISZERO PUSH2 0xF1F JUMPI CALLER PUSH0 SWAP1 DUP2 MSTORE PUSH1 0x13 PUSH1 0x20 MSTORE PUSH1 0x40 SWAP1 DUP2 SWAP1 KECCAK256 SLOAD SWAP1 MLOAD PUSH4 0x1BE970F PUSH1 0xE6 SHL DUP2 MSTORE PUSH1 0xFF SWAP1 SWAP2 AND ISZERO ISZERO PUSH1 0x4 DUP3 ADD MSTORE PUSH1 0x24 ADD PUSH2 0x8BA JUMP JUMPDEST CALLER PUSH0 SWAP1 DUP2 MSTORE PUSH1 0x13 PUSH1 0x20 MSTORE PUSH1 0x40 DUP2 KECCAK256 PUSH1 0x5 ADD DUP1 SLOAD DUP4 SWAP3 SWAP1 PUSH2 0xF40 SWAP1 DUP5 SWAP1 PUSH2 0x25CB JUMP JUMPDEST SWAP1 SWAP2 SSTORE POP POP CALLER PUSH0 SWAP1 DUP2 MSTORE PUSH1 0x10 PUSH1 0x20 MSTORE PUSH1 0x40 SWAP1 KECCAK256 SLOAD PUSH1 0xFF AND PUSH2 0xFA9 JUMPI PUSH1 0x8 DUP1 SLOAD PUSH0 SWAP1 DUP2 MSTORE PUSH1 0x11 PUSH1 0x20 SWAP1 DUP2 MSTORE PUSH1 0x40 DUP1 DUP4 KECCAK256 DUP1 SLOAD PUSH1 0x1 PUSH1 0x1 PUSH1 0xA0 SHL SUB NOT AND CALLER SWAP1 DUP2 OR SWAP1 SWAP2 SSTORE DUP4 MSTORE PUSH1 0x10 SWAP1 SWAP2 MSTORE DUP2 KECCAK256 DUP1 SLOAD PUSH1 0xFF NOT AND PUSH1 0x1 OR SWAP1 SSTORE DUP2 SLOAD SWAP2 SWAP1 PUSH2 0xFA3 DUP4 PUSH2 0x2543 JUMP JUMPDEST SWAP2 SWAP1 POP SSTORE POP JUMPDEST DUP1 PUSH1 0x3 PUSH0 DUP3 DUP3 SLOAD PUSH2 0xFBA SWAP2 SWAP1 PUSH2 0x25CB JUMP JUMPDEST SWAP1 SWAP2 SSTORE POP POP PUSH0 DUP1 SLOAD PUSH1 0x9 SLOAD PUSH1 0x40 MLOAD PUSH4 0x23B872DD PUSH1 0xE0 SHL DUP2 MSTORE PUSH1 0x1 PUSH1 0x1 PUSH1 0xA0 SHL SUB SWAP3 DUP4 AND SWAP3 PUSH4 0x23B872DD SWAP3 PUSH2 0xFF8 SWAP3 CALLER SWAP3 SWAP1 SWAP2 AND SWAP1 DUP8 SWAP1 PUSH1 0x4 ADD PUSH2 0x25DE JUMP JUMPDEST PUSH1 0x20 PUSH1 0x40 MLOAD DUP1 DUP4 SUB DUP2 PUSH0 DUP8 GAS CALL ISZERO DUP1 ISZERO PUSH2 0x1014 JUMPI RETURNDATASIZE PUSH0 DUP1 RETURNDATACOPY RETURNDATASIZE PUSH0 REVERT JUMPDEST POP POP POP POP PUSH1 0x40 MLOAD RETURNDATASIZE PUSH1 0x1F NOT PUSH1 0x1F DUP3 ADD AND DUP3 ADD DUP1 PUSH1 0x40 MSTORE POP DUP2 ADD SWAP1 PUSH2 0x1038 SWAP2 SWAP1 PUSH2 0x2602 JUMP JUMPDEST SWAP1 POP DUP1 PUSH2 0x105C JUMPI PUSH1 0x40 MLOAD PUSH4 0xD85D3CEF PUSH1 0xE0 SHL DUP2 MSTORE DUP2 ISZERO ISZERO PUSH1 0x4 DUP3 ADD MSTORE PUSH1 0x24 ADD PUSH2 0x8BA JUMP JUMPDEST PUSH1 0x9 SLOAD PUSH1 0x40 MLOAD PUSH32 0x14EE34C24635186D212F515353DADAE9C226529EDEF2D1FCF5504CB33B5C25AB SWAP2 PUSH2 0xB3B SWAP2 CALLER SWAP2 PUSH1 0x1 PUSH1 0x1 PUSH1 0xA0 SHL SUB AND SWAP1 DUP7 SWAP1 PUSH2 0x25DE JUMP JUMPDEST PUSH2 0x10A3 PUSH2 0x1B9D JUMP JUMPDEST PUSH0 DUP2 GT PUSH2 0x10C6 JUMPI PUSH1 0x40 MLOAD PUSH4 0x2FF4783 PUSH1 0xE4 SHL DUP2 MSTORE PUSH1 0x4 DUP2 ADD DUP3 SWAP1 MSTORE PUSH1 0x24 ADD PUSH2 0x8BA JUMP JUMPDEST DUP1 PUSH1 0x2 PUSH0 DUP3 DUP3 SLOAD PUSH2 0x10D7 SWAP2 SWAP1 PUSH2 0x25CB JUMP JUMPDEST SWAP1 SWAP2 SSTORE POP POP PUSH0 DUP1 SLOAD PUSH1 0x40 MLOAD PUSH4 0x23B872DD PUSH1 0xE0 SHL DUP2 MSTORE PUSH1 0x1 PUSH1 0x1 PUSH1 0xA0 SHL SUB SWAP1 SWAP2 AND SWAP1 PUSH4 0x23B872DD SWAP1 PUSH2 0x1110 SWAP1 CALLER SWAP1 ADDRESS SWAP1 DUP8 SWAP1 PUSH1 0x4 ADD PUSH2 0x25DE JUMP JUMPDEST PUSH1 0x20 PUSH1 0x40 MLOAD DUP1 DUP4 SUB DUP2 PUSH0 DUP8 GAS CALL ISZERO DUP1 ISZERO PUSH2 0x112C JUMPI RETURNDATASIZE PUSH0 DUP1 RETURNDATACOPY RETURNDATASIZE PUSH0 REVERT JUMPDEST POP POP POP POP PUSH1 0x40 MLOAD RETURNDATASIZE PUSH1 0x1F NOT PUSH1 0x1F DUP3 ADD AND DUP3 ADD DUP1 PUSH1 0x40 MSTORE POP DUP2 ADD SWAP1 PUSH2 0x1150 SWAP2 SWAP1 PUSH2 0x2602 JUMP JUMPDEST SWAP1 POP DUP1 PUSH2 0x1174 JUMPI PUSH1 0x40 MLOAD PUSH4 0xD85D3CEF PUSH1 0xE0 SHL DUP2 MSTORE DUP2 ISZERO ISZERO PUSH1 0x4 DUP3 ADD MSTORE PUSH1 0x24 ADD PUSH2 0x8BA JUMP JUMPDEST PUSH32 0x73834E1D1EE73BA659470A3603B888903853D3A3C9FDA34E71C093A0E35CAB94 PUSH1 0x2 SLOAD PUSH1 0x40 MLOAD PUSH2 0xB3B SWAP2 DUP2 MSTORE PUSH1 0x20 ADD SWAP1 JUMP JUMPDEST PUSH2 0x11AF PUSH2 0x1B9D JUMP JUMPDEST PUSH0 DUP2 GT PUSH2 0x11D2 JUMPI PUSH1 0x40 MLOAD PUSH4 0xCDBC6335 PUSH1 0xE0 SHL DUP2 MSTORE PUSH1 0x4 DUP2 ADD DUP3 SWAP1 MSTORE PUSH1 0x24 ADD PUSH2 0x8BA JUMP JUMPDEST PUSH1 0x7 DUP2 SWAP1 SSTORE PUSH1 0x40 DUP1 MLOAD CALLER DUP2 MSTORE PUSH1 0x20 DUP2 ADD DUP4 SWAP1 MSTORE PUSH0 DUP1 MLOAD PUSH1 0x20 PUSH2 0x26E2 DUP4 CODECOPY DUP2 MLOAD SWAP2 MSTORE SWAP2 ADD PUSH2 0x932 JUMP JUMPDEST PUSH2 0x1202 PUSH2 0x1B9D JUMP JUMPDEST PUSH0 DUP2 GT PUSH2 0x1225 JUMPI PUSH1 0x40 MLOAD PUSH4 0xCDBC6335 PUSH1 0xE0 SHL DUP2 MSTORE PUSH1 0x4 DUP2 ADD DUP3 SWAP1 MSTORE PUSH1 0x24 ADD PUSH2 0x8BA JUMP JUMPDEST PUSH1 0x4 DUP2 SWAP1 SSTORE PUSH1 0x40 DUP1 MLOAD CALLER DUP2 MSTORE PUSH1 0x20 DUP2 ADD DUP4 SWAP1 MSTORE PUSH0 DUP1 MLOAD PUSH1 0x20 PUSH2 0x26E2 DUP4 CODECOPY DUP2 MLOAD SWAP2 MSTORE SWAP2 ADD PUSH2 0x932 JUMP JUMPDEST PUSH0 DUP2 GT PUSH2 0x1270 JUMPI PUSH1 0x40 MLOAD PUSH4 0x2FF4783 PUSH1 0xE4 SHL DUP2 MSTORE PUSH1 0x4 DUP2 ADD DUP3 SWAP1 MSTORE PUSH1 0x24 ADD PUSH2 0x8BA JUMP JUMPDEST CALLER PUSH0 SWAP1 DUP2 MSTORE PUSH1 0x13 PUSH1 0x20 MSTORE PUSH1 0x40 SWAP1 KECCAK256 SLOAD PUSH1 0xFF AND ISZERO PUSH2 0x12B8 JUMPI CALLER PUSH0 SWAP1 DUP2 MSTORE PUSH1 0x13 PUSH1 0x20 MSTORE PUSH1 0x40 SWAP1 DUP2 SWAP1 KECCAK256 SLOAD SWAP1 MLOAD PUSH4 0x1BE970F PUSH1 0xE6 SHL DUP2 MSTORE PUSH1 0xFF SWAP1 SWAP2 AND ISZERO ISZERO PUSH1 0x4 DUP3 ADD MSTORE PUSH1 0x24 ADD PUSH2 0x8BA JUMP JUMPDEST CALLER PUSH0 SWAP1 DUP2 MSTORE PUSH1 0x13 PUSH1 0x20 MSTORE PUSH1 0x40 SWAP1 KECCAK256 PUSH1 0x1 ADD SLOAD DUP2 LT PUSH2 0x12EC JUMPI PUSH1 0x40 MLOAD PUSH4 0x636DC6B PUSH1 0xE3 SHL DUP2 MSTORE PUSH1 0x4 DUP2 ADD DUP3 SWAP1 MSTORE PUSH1 0x24 ADD PUSH2 0x8BA JUMP JUMPDEST CALLER PUSH0 SWAP1 DUP2 MSTORE PUSH1 0x13 PUSH1 0x20 MSTORE PUSH1 0x40 DUP2 KECCAK256 PUSH1 0x1 ADD DUP1 SLOAD DUP4 SWAP3 SWAP1 PUSH2 0x130D SWAP1 DUP5 SWAP1 PUSH2 0x255B JUMP JUMPDEST SWAP1 SWAP2 SSTORE POP POP CALLER PUSH0 SWAP1 DUP2 MSTORE PUSH1 0x13 PUSH1 0x20 MSTORE PUSH1 0x40 DUP2 KECCAK256 PUSH1 0x5 ADD DUP1 SLOAD DUP4 SWAP3 SWAP1 PUSH2 0x1333 SWAP1 DUP5 SWAP1 PUSH2 0x25CB JUMP JUMPDEST SWAP3 POP POP DUP2 SWAP1 SSTORE POP DUP1 PUSH1 0x2 PUSH0 DUP3 DUP3 SLOAD PUSH2 0x134B SWAP2 SWAP1 PUSH2 0x25CB JUMP JUMPDEST SWAP3 POP POP DUP2 SWAP1 SSTORE POP DUP1 PUSH1 0x3 PUSH0 DUP3 DUP3 SLOAD PUSH2 0x1363 SWAP2 SWAP1 PUSH2 0x25CB JUMP JUMPDEST SWAP1 SWAP2 SSTORE POP POP PUSH1 0x40 MLOAD PUSH32 0x14EE34C24635186D212F515353DADAE9C226529EDEF2D1FCF5504CB33B5C25AB SWAP1 PUSH2 0x932 SWAP1 CALLER SWAP1 ADDRESS SWAP1 DUP6 SWAP1 PUSH2 0x25DE JUMP JUMPDEST PUSH0 DUP3 GT PUSH2 0x13BF JUMPI PUSH1 0x40 MLOAD PUSH4 0x2FF4783 PUSH1 0xE4 SHL DUP2 MSTORE PUSH1 0x4 DUP2 ADD DUP4 SWAP1 MSTORE PUSH1 0x24 ADD PUSH2 0x8BA JUMP JUMPDEST PUSH1 0xF SLOAD DUP2 GT ISZERO PUSH2 0x13E5 JUMPI PUSH1 0x40 MLOAD PUSH4 0x222A50F3 PUSH1 0xE0 SHL DUP2 MSTORE PUSH1 0x4 DUP2 ADD DUP3 SWAP1 MSTORE PUSH1 0x24 ADD PUSH2 0x8BA JUMP JUMPDEST PUSH0 DUP2 DUP2 MSTORE PUSH1 0x12 PUSH1 0x20 MSTORE PUSH1 0x40 SWAP1 KECCAK256 SLOAD PUSH2 0x13FE SWAP1 DUP4 SWAP1 PUSH2 0x1E1E JUMP JUMPDEST PUSH0 DUP1 SLOAD PUSH1 0x40 MLOAD PUSH4 0x23B872DD PUSH1 0xE0 SHL DUP2 MSTORE PUSH1 0x1 PUSH1 0x1 PUSH1 0xA0 SHL SUB SWAP1 SWAP2 AND SWAP1 PUSH4 0x23B872DD SWAP1 PUSH2 0x1432 SWAP1 CALLER SWAP1 ADDRESS SWAP1 DUP9 SWAP1 PUSH1 0x4 ADD PUSH2 0x25DE JUMP JUMPDEST PUSH1 0x20 PUSH1 0x40 MLOAD DUP1 DUP4 SUB DUP2 PUSH0 DUP8 GAS CALL ISZERO DUP1 ISZERO PUSH2 0x144E JUMPI RETURNDATASIZE PUSH0 DUP1 RETURNDATACOPY RETURNDATASIZE PUSH0 REVERT JUMPDEST POP POP POP POP PUSH1 0x40 MLOAD RETURNDATASIZE PUSH1 0x1F NOT PUSH1 0x1F DUP3 ADD AND DUP3 ADD DUP1 PUSH1 0x40 MSTORE POP DUP2 ADD SWAP1 PUSH2 0x1472 SWAP2 SWAP1 PUSH2 0x2602 JUMP JUMPDEST SWAP1 POP DUP1 PUSH2 0x1496 JUMPI PUSH1 0x40 MLOAD PUSH4 0xD85D3CEF PUSH1 0xE0 SHL DUP2 MSTORE DUP2 ISZERO ISZERO PUSH1 0x4 DUP3 ADD MSTORE PUSH1 0x24 ADD PUSH2 0x8BA JUMP JUMPDEST PUSH1 0x40 DUP1 MLOAD DUP5 DUP2 MSTORE PUSH1 0x20 DUP2 ADD DUP5 SWAP1 MSTORE PUSH32 0xA89B69C5958EC1CCF0DF0DE746A8708F5B6A6B429430129F16F46F44B319C900 SWAP2 ADD PUSH1 0x40 MLOAD DUP1 SWAP2 SUB SWAP1 LOG1 POP POP POP JUMP JUMPDEST PUSH2 0x14DC PUSH2 0x1B9D JUMP JUMPDEST PUSH0 DUP2 GT PUSH2 0x14FF JUMPI PUSH1 0x40 MLOAD PUSH4 0xCDBC6335 PUSH1 0xE0 SHL DUP2 MSTORE PUSH1 0x4 DUP2 ADD DUP3 SWAP1 MSTORE PUSH1 0x24 ADD PUSH2 0x8BA JUMP JUMPDEST PUSH1 0x6 DUP2 SWAP1 SSTORE PUSH1 0x40 DUP1 MLOAD CALLER DUP2 MSTORE PUSH1 0x20 DUP2 ADD DUP4 SWAP1 MSTORE PUSH0 DUP1 MLOAD PUSH1 0x20 PUSH2 0x26E2 DUP4 CODECOPY DUP2 MLOAD SWAP2 MSTORE SWAP2 ADD PUSH2 0x932 JUMP JUMPDEST PUSH2 0x152F PUSH2 0x1B9D JUMP JUMPDEST PUSH0 DUP2 GT PUSH2 0x1552 JUMPI PUSH1 0x40 MLOAD PUSH4 0xCDBC6335 PUSH1 0xE0 SHL DUP2 MSTORE PUSH1 0x4 DUP2 ADD DUP3 SWAP1 MSTORE PUSH1 0x24 ADD PUSH2 0x8BA JUMP JUMPDEST PUSH1 0x5 DUP2 SWAP1 SSTORE PUSH1 0x40 DUP1 MLOAD CALLER DUP2 MSTORE PUSH1 0x20 DUP2 ADD DUP4 SWAP1 MSTORE PUSH0 DUP1 MLOAD PUSH1 0x20 PUSH2 0x26E2 DUP4 CODECOPY DUP2 MLOAD SWAP2 MSTORE SWAP2 ADD PUSH2 0x932 JUMP JUMPDEST PUSH32 0xF0C57E16840DF040F15088DC2F81FE391C3923BEC73E23A9662EFC9C229C6A00 DUP1 SLOAD PUSH1 0x1 PUSH1 0x40 SHL DUP2 DIV PUSH1 0xFF AND ISZERO SWAP1 PUSH8 0xFFFFFFFFFFFFFFFF AND PUSH0 DUP2 ISZERO DUP1 ISZERO PUSH2 0x15BF JUMPI POP DUP3 JUMPDEST SWAP1 POP PUSH0 DUP3 PUSH8 0xFFFFFFFFFFFFFFFF AND PUSH1 0x1 EQ DUP1 ISZERO PUSH2 0x15DB JUMPI POP ADDRESS EXTCODESIZE ISZERO JUMPDEST SWAP1 POP DUP2 ISZERO DUP1 ISZERO PUSH2 0x15E9 JUMPI POP DUP1 ISZERO JUMPDEST ISZERO PUSH2 0x1607 JUMPI PUSH1 0x40 MLOAD PUSH4 0xF92EE8A9 PUSH1 0xE0 SHL DUP2 MSTORE PUSH1 0x4 ADD PUSH1 0x40 MLOAD DUP1 SWAP2 SUB SWAP1 REVERT JUMPDEST DUP5 SLOAD PUSH8 0xFFFFFFFFFFFFFFFF NOT AND PUSH1 0x1 OR DUP6 SSTORE DUP4 ISZERO PUSH2 0x1631 JUMPI DUP5 SLOAD PUSH1 0xFF PUSH1 0x40 SHL NOT AND PUSH1 0x1 PUSH1 0x40 SHL OR DUP6 SSTORE JUMPDEST PUSH2 0x163A DUP9 PUSH2 0x1E7C JUMP JUMPDEST PUSH2 0x1642 PUSH2 0x1E8D JUMP JUMPDEST PUSH0 DUP1 SLOAD PUSH1 0x1 PUSH1 0x1 PUSH1 0xA0 SHL SUB DUP1 DUP11 AND PUSH1 0x1 PUSH1 0x1 PUSH1 0xA0 SHL SUB NOT SWAP3 DUP4 AND OR SWAP1 SWAP3 SSTORE PUSH2 0x1388 PUSH1 0x4 SSTORE PUSH2 0x1D4C PUSH1 0x5 SSTORE PUSH2 0x5DC PUSH1 0x6 SSTORE PUSH2 0x3E8 PUSH1 0x7 SSTORE PUSH1 0x9 DUP1 SLOAD SWAP3 DUP10 AND SWAP3 SWAP1 SWAP2 AND SWAP2 SWAP1 SWAP2 OR SWAP1 SSTORE DUP4 ISZERO PUSH2 0x16CF JUMPI DUP5 SLOAD PUSH1 0xFF PUSH1 0x40 SHL NOT AND DUP6 SSTORE PUSH1 0x40 MLOAD PUSH1 0x1 DUP2 MSTORE PUSH32 0xC7F505B2F371AE2175EE4913F4499E1F2633A7B5936321EED1CDAEB6115181D2 SWAP1 PUSH1 0x20 ADD PUSH1 0x40 MLOAD DUP1 SWAP2 SUB SWAP1 LOG1 JUMPDEST POP POP POP POP POP POP POP POP JUMP JUMPDEST PUSH2 0x16E1 PUSH2 0x1B9D JUMP JUMPDEST PUSH1 0x1 PUSH1 0x1 PUSH1 0xA0 SHL SUB DUP2 AND PUSH2 0x1713 JUMPI PUSH1 0x40 MLOAD PUSH4 0xE4CFA94D PUSH1 0xE0 SHL DUP2 MSTORE PUSH1 0x1 PUSH1 0x1 PUSH1 0xA0 SHL SUB DUP3 AND PUSH1 0x4 DUP3 ADD MSTORE PUSH1 0x24 ADD PUSH2 0x8BA JUMP JUMPDEST PUSH1 0xE DUP1 SLOAD PUSH1 0x1 PUSH1 0x1 PUSH1 0xA0 SHL SUB NOT AND PUSH1 0x1 PUSH1 0x1 PUSH1 0xA0 SHL SUB DUP4 AND SWAP1 DUP2 OR SWAP1 SWAP2 SSTORE PUSH1 0x40 DUP1 MLOAD CALLER DUP2 MSTORE PUSH1 0x20 DUP2 ADD SWAP3 SWAP1 SWAP3 MSTORE PUSH32 0x75F91F3CECB8C46F20150F60F77A6E1F0DE00776627692DB82EF1960AF84C33A SWAP2 ADD PUSH2 0x932 JUMP JUMPDEST PUSH2 0x1770 PUSH2 0x1B9D JUMP JUMPDEST PUSH1 0x1 PUSH1 0x1 PUSH1 0xA0 SHL SUB DUP3 AND PUSH2 0x17A2 JUMPI PUSH1 0x40 MLOAD PUSH4 0xE4CFA94D PUSH1 0xE0 SHL DUP2 MSTORE PUSH1 0x1 PUSH1 0x1 PUSH1 0xA0 SHL SUB DUP4 AND PUSH1 0x4 DUP3 ADD MSTORE PUSH1 0x24 ADD PUSH2 0x8BA JUMP JUMPDEST PUSH1 0x1 DUP2 ISZERO ISZERO EQ DUP1 ISZERO SWAP1 PUSH2 0x17B4 JUMPI POP DUP1 ISZERO ISZERO JUMPDEST ISZERO PUSH2 0x17D6 JUMPI PUSH1 0x40 MLOAD PUSH4 0x81ED1AE3 PUSH1 0xE0 SHL DUP2 MSTORE DUP2 ISZERO ISZERO PUSH1 0x4 DUP3 ADD MSTORE PUSH1 0x24 ADD PUSH2 0x8BA JUMP JUMPDEST DUP1 ISZERO ISZERO PUSH1 0x1 SUB PUSH2 0x1807 JUMPI PUSH1 0x1 PUSH1 0x1 PUSH1 0xA0 SHL SUB DUP3 AND PUSH0 SWAP1 DUP2 MSTORE PUSH1 0x13 PUSH1 0x20 MSTORE PUSH1 0x40 SWAP1 KECCAK256 DUP1 SLOAD PUSH1 0xFF NOT AND PUSH1 0x1 OR SWAP1 SSTORE PUSH2 0x1827 JUMP JUMPDEST PUSH1 0x1 PUSH1 0x1 PUSH1 0xA0 SHL SUB DUP3 AND PUSH0 SWAP1 DUP2 MSTORE PUSH1 0x13 PUSH1 0x20 MSTORE PUSH1 0x40 SWAP1 KECCAK256 DUP1 SLOAD PUSH1 0xFF NOT AND SWAP1 SSTORE JUMPDEST PUSH1 0x1 PUSH1 0x1 PUSH1 0xA0 SHL SUB DUP3 AND PUSH0 DUP2 DUP2 MSTORE PUSH1 0x13 PUSH1 0x20 SWAP1 DUP2 MSTORE PUSH1 0x40 SWAP2 DUP3 SWAP1 KECCAK256 SLOAD DUP3 MLOAD CALLER DUP2 MSTORE SWAP2 DUP3 ADD SWAP4 SWAP1 SWAP4 MSTORE PUSH1 0xFF SWAP1 SWAP3 AND ISZERO ISZERO SWAP1 DUP3 ADD MSTORE PUSH32 0x7A1655BC3160D3413BF1D5235E55BE12E01B7E8BC2436A9BFF09C3B4FA2421F1 SWAP1 PUSH1 0x60 ADD PUSH2 0xB3B JUMP JUMPDEST PUSH1 0xE SLOAD PUSH1 0x1 PUSH1 0x1 PUSH1 0xA0 SHL SUB AND CALLER EQ PUSH2 0x18AE JUMPI PUSH1 0x40 MLOAD PUSH3 0x461BCD PUSH1 0xE5 SHL DUP2 MSTORE PUSH1 0x4 ADD PUSH2 0x8BA SWAP1 PUSH2 0x256E JUMP JUMPDEST PUSH0 DUP1 PUSH0 PUSH2 0x18B9 PUSH2 0x1E95 JUMP JUMPDEST SWAP3 POP SWAP3 POP SWAP3 POP PUSH0 PUSH1 0x2 SLOAD GT DUP1 ISZERO PUSH2 0x18D1 JUMPI POP PUSH0 PUSH1 0x1 SLOAD GT JUMPDEST PUSH2 0x1911 JUMPI PUSH1 0x40 MLOAD PUSH3 0x461BCD PUSH1 0xE5 SHL DUP2 MSTORE PUSH1 0x20 PUSH1 0x4 DUP3 ADD MSTORE PUSH1 0x11 PUSH1 0x24 DUP3 ADD MSTORE PUSH17 0x1B9BDD08195B9BDD59DA08185B5BDD5B9D PUSH1 0x7A SHL PUSH1 0x44 DUP3 ADD MSTORE PUSH1 0x64 ADD PUSH2 0x8BA JUMP JUMPDEST PUSH0 DUP1 JUMPDEST PUSH1 0x8 SLOAD DUP2 LT ISZERO PUSH2 0x1AB5 JUMPI PUSH0 DUP2 DUP2 MSTORE PUSH1 0x11 PUSH1 0x20 SWAP1 DUP2 MSTORE PUSH1 0x40 DUP1 DUP4 KECCAK256 SLOAD PUSH1 0x1 PUSH1 0x1 PUSH1 0xA0 SHL SUB AND DUP4 MSTORE PUSH1 0x13 SWAP1 SWAP2 MSTORE SWAP1 KECCAK256 SLOAD PUSH1 0xFF AND PUSH2 0x1AAD JUMPI PUSH1 0x3 SLOAD PUSH0 DUP3 DUP2 MSTORE PUSH1 0x11 PUSH1 0x20 SWAP1 DUP2 MSTORE PUSH1 0x40 DUP1 DUP4 KECCAK256 SLOAD PUSH1 0x1 PUSH1 0x1 PUSH1 0xA0 SHL SUB AND DUP4 MSTORE PUSH1 0x13 SWAP1 SWAP2 MSTORE DUP2 KECCAK256 PUSH1 0x5 ADD SLOAD SWAP1 SWAP2 SWAP1 PUSH2 0x1982 SWAP1 PUSH2 0x2710 PUSH2 0x261D JUMP JUMPDEST PUSH2 0x198C SWAP2 SWAP1 PUSH2 0x2634 JUMP JUMPDEST SWAP1 POP PUSH0 PUSH2 0x1999 DUP7 DUP4 PUSH2 0x2017 JUMP JUMPDEST SWAP1 POP DUP1 PUSH1 0x2 PUSH0 DUP3 DUP3 SLOAD PUSH2 0x19AC SWAP2 SWAP1 PUSH2 0x255B JUMP JUMPDEST SWAP1 SWAP2 SSTORE POP PUSH2 0x19BC SWAP1 POP DUP2 DUP6 PUSH2 0x25CB JUMP JUMPDEST SWAP4 POP DUP5 PUSH1 0x1 PUSH0 DUP3 DUP3 SLOAD PUSH2 0x19CF SWAP2 SWAP1 PUSH2 0x255B JUMP JUMPDEST SWAP1 SWAP2 SSTORE POP POP PUSH0 DUP4 DUP2 MSTORE PUSH1 0x11 PUSH1 0x20 SWAP1 DUP2 MSTORE PUSH1 0x40 DUP1 DUP4 KECCAK256 DUP1 SLOAD PUSH1 0x1 PUSH1 0x1 PUSH1 0xA0 SHL SUB SWAP1 DUP2 AND DUP6 MSTORE PUSH1 0x13 SWAP1 SWAP4 MSTORE DUP2 DUP5 KECCAK256 PUSH1 0x3 ADD DUP10 SWAP1 SSTORE SLOAD SWAP1 SWAP2 AND DUP3 MSTORE DUP2 KECCAK256 PUSH1 0x4 ADD DUP3 SWAP1 SSTORE PUSH2 0x1A19 DUP7 DUP4 PUSH2 0x25CB JUMP JUMPDEST PUSH0 DUP6 DUP2 MSTORE PUSH1 0x11 PUSH1 0x20 SWAP1 DUP2 MSTORE PUSH1 0x40 DUP1 DUP4 KECCAK256 SLOAD PUSH1 0x1 PUSH1 0x1 PUSH1 0xA0 SHL SUB AND DUP4 MSTORE PUSH1 0x13 SWAP1 SWAP2 MSTORE DUP2 KECCAK256 PUSH1 0x1 ADD DUP1 SLOAD SWAP3 SWAP4 POP DUP4 SWAP3 SWAP1 SWAP2 SWAP1 PUSH2 0x1A54 SWAP1 DUP5 SWAP1 PUSH2 0x25CB JUMP JUMPDEST SWAP1 SWAP2 SSTORE POP POP DUP8 DUP6 GT ISZERO PUSH2 0x1AA9 JUMPI PUSH1 0x40 MLOAD PUSH3 0x461BCD PUSH1 0xE5 SHL DUP2 MSTORE PUSH1 0x20 PUSH1 0x4 DUP3 ADD MSTORE PUSH1 0x1A PUSH1 0x24 DUP3 ADD MSTORE PUSH32 0x416D6F756E742069732067726561746572207468656E20353025000000000000 PUSH1 0x44 DUP3 ADD MSTORE PUSH1 0x64 ADD PUSH2 0x8BA JUMP JUMPDEST POP POP POP JUMPDEST PUSH1 0x1 ADD PUSH2 0x1914 JUMP JUMPDEST POP PUSH1 0x2 SLOAD PUSH1 0x1 SLOAD PUSH1 0x40 DUP1 MLOAD CALLER DUP2 MSTORE PUSH1 0x20 DUP2 ADD SWAP4 SWAP1 SWAP4 MSTORE DUP3 ADD MSTORE PUSH32 0xEE826440768329B0C72F81331212EE31FCDAC1EA79A248D24821E40C34E58020 SWAP1 PUSH1 0x60 ADD PUSH1 0x40 MLOAD DUP1 SWAP2 SUB SWAP1 LOG1 POP POP POP POP JUMP JUMPDEST PUSH2 0x1B09 PUSH2 0x1B9D JUMP JUMPDEST PUSH0 DUP2 GT PUSH2 0x1B2C JUMPI PUSH1 0x40 MLOAD PUSH4 0xCDBC6335 PUSH1 0xE0 SHL DUP2 MSTORE PUSH1 0x4 DUP2 ADD DUP3 SWAP1 MSTORE PUSH1 0x24 ADD PUSH2 0x8BA JUMP JUMPDEST PUSH0 DUP3 DUP2 MSTORE PUSH1 0x12 PUSH1 0x20 SWAP1 DUP2 MSTORE PUSH1 0x40 SWAP2 DUP3 SWAP1 KECCAK256 DUP4 SWAP1 SSTORE DUP2 MLOAD CALLER DUP2 MSTORE SWAP1 DUP2 ADD DUP4 SWAP1 MSTORE PUSH0 DUP1 MLOAD PUSH1 0x20 PUSH2 0x26E2 DUP4 CODECOPY DUP2 MLOAD SWAP2 MSTORE SWAP2 ADD PUSH2 0xB3B JUMP JUMPDEST PUSH2 0x1B68 PUSH2 0x1B9D JUMP JUMPDEST PUSH1 0x1 PUSH1 0x1 PUSH1 0xA0 SHL SUB DUP2 AND PUSH2 0x1B91 JUMPI PUSH1 0x40 MLOAD PUSH4 0x1E4FBDF7 PUSH1 0xE0 SHL DUP2 MSTORE PUSH0 PUSH1 0x4 DUP3 ADD MSTORE PUSH1 0x24 ADD PUSH2 0x8BA JUMP JUMPDEST PUSH2 0x1B9A DUP2 PUSH2 0x1DAE JUMP JUMPDEST POP JUMP JUMPDEST CALLER PUSH2 0x1BCF PUSH32 0x9016D09D72D40FDAE2FD8CEAC6B6234C7706214FD39C1CD1E609A0528C199300 SLOAD PUSH1 0x1 PUSH1 0x1 PUSH1 0xA0 SHL SUB AND SWAP1 JUMP JUMPDEST PUSH1 0x1 PUSH1 0x1 PUSH1 0xA0 SHL SUB AND EQ PUSH2 0xEB2 JUMPI PUSH1 0x40 MLOAD PUSH4 0x118CDAA7 PUSH1 0xE0 SHL DUP2 MSTORE CALLER PUSH1 0x4 DUP3 ADD MSTORE PUSH1 0x24 ADD PUSH2 0x8BA JUMP JUMPDEST ADDRESS PUSH1 0x1 PUSH1 0x1 PUSH1 0xA0 SHL SUB PUSH32 0x0 AND EQ DUP1 PUSH2 0x1C7E JUMPI POP PUSH32 0x0 PUSH1 0x1 PUSH1 0x1 PUSH1 0xA0 SHL SUB AND PUSH2 0x1C72 PUSH0 DUP1 MLOAD PUSH1 0x20 PUSH2 0x26C2 DUP4 CODECOPY DUP2 MLOAD SWAP2 MSTORE SLOAD PUSH1 0x1 PUSH1 0x1 PUSH1 0xA0 SHL SUB AND SWAP1 JUMP JUMPDEST PUSH1 0x1 PUSH1 0x1 PUSH1 0xA0 SHL SUB AND EQ ISZERO JUMPDEST ISZERO PUSH2 0xEB2 JUMPI PUSH1 0x40 MLOAD PUSH4 0x703E46DD PUSH1 0xE1 SHL DUP2 MSTORE PUSH1 0x4 ADD PUSH1 0x40 MLOAD DUP1 SWAP2 SUB SWAP1 REVERT JUMPDEST PUSH2 0x1B9A PUSH2 0x1B9D JUMP JUMPDEST DUP2 PUSH1 0x1 PUSH1 0x1 PUSH1 0xA0 SHL SUB AND PUSH4 0x52D1902D PUSH1 0x40 MLOAD DUP2 PUSH4 0xFFFFFFFF AND PUSH1 0xE0 SHL DUP2 MSTORE PUSH1 0x4 ADD PUSH1 0x20 PUSH1 0x40 MLOAD DUP1 DUP4 SUB DUP2 DUP7 GAS STATICCALL SWAP3 POP POP POP DUP1 ISZERO PUSH2 0x1CFE JUMPI POP PUSH1 0x40 DUP1 MLOAD PUSH1 0x1F RETURNDATASIZE SWAP1 DUP2 ADD PUSH1 0x1F NOT AND DUP3 ADD SWAP1 SWAP3 MSTORE PUSH2 0x1CFB SWAP2 DUP2 ADD SWAP1 PUSH2 0x2653 JUMP JUMPDEST PUSH1 0x1 JUMPDEST PUSH2 0x1D26 JUMPI PUSH1 0x40 MLOAD PUSH4 0x4C9C8CE3 PUSH1 0xE0 SHL DUP2 MSTORE PUSH1 0x1 PUSH1 0x1 PUSH1 0xA0 SHL SUB DUP4 AND PUSH1 0x4 DUP3 ADD MSTORE PUSH1 0x24 ADD PUSH2 0x8BA JUMP JUMPDEST PUSH0 DUP1 MLOAD PUSH1 0x20 PUSH2 0x26C2 DUP4 CODECOPY DUP2 MLOAD SWAP2 MSTORE DUP2 EQ PUSH2 0x1D56 JUMPI PUSH1 0x40 MLOAD PUSH4 0x2A875269 PUSH1 0xE2 SHL DUP2 MSTORE PUSH1 0x4 DUP2 ADD DUP3 SWAP1 MSTORE PUSH1 0x24 ADD PUSH2 0x8BA JUMP JUMPDEST PUSH2 0x1D60 DUP4 DUP4 PUSH2 0x2078 JUMP JUMPDEST POP POP POP JUMP JUMPDEST ADDRESS PUSH1 0x1 PUSH1 0x1 PUSH1 0xA0 SHL SUB PUSH32 0x0 AND EQ PUSH2 0xEB2 JUMPI PUSH1 0x40 MLOAD PUSH4 0x703E46DD PUSH1 0xE1 SHL DUP2 MSTORE PUSH1 0x4 ADD PUSH1 0x40 MLOAD DUP1 SWAP2 SUB SWAP1 REVERT JUMPDEST PUSH32 0x9016D09D72D40FDAE2FD8CEAC6B6234C7706214FD39C1CD1E609A0528C199300 DUP1 SLOAD PUSH1 0x1 PUSH1 0x1 PUSH1 0xA0 SHL SUB NOT DUP2 AND PUSH1 0x1 PUSH1 0x1 PUSH1 0xA0 SHL SUB DUP5 DUP2 AND SWAP2 DUP3 OR DUP5 SSTORE PUSH1 0x40 MLOAD SWAP3 AND SWAP2 DUP3 SWAP1 PUSH32 0x8BE0079C531659141344CD1FD0A4F28419497F9722A3DAAFE3B4186F6B6457E0 SWAP1 PUSH0 SWAP1 LOG3 POP POP POP JUMP JUMPDEST PUSH0 PUSH2 0x1E2B DUP3 PUSH2 0x2710 PUSH2 0x255B JUMP JUMPDEST SWAP1 POP PUSH0 PUSH2 0x1E38 DUP5 DUP4 PUSH2 0x2017 JUMP JUMPDEST SWAP1 POP PUSH0 PUSH2 0x1E45 DUP6 DUP6 PUSH2 0x2017 JUMP JUMPDEST SWAP1 POP DUP2 PUSH1 0x2 PUSH0 DUP3 DUP3 SLOAD PUSH2 0x1E58 SWAP2 SWAP1 PUSH2 0x25CB JUMP JUMPDEST SWAP3 POP POP DUP2 SWAP1 SSTORE POP DUP1 PUSH1 0x1 PUSH0 DUP3 DUP3 SLOAD PUSH2 0x1E70 SWAP2 SWAP1 PUSH2 0x25CB JUMP JUMPDEST SWAP1 SWAP2 SSTORE POP POP POP POP POP POP POP JUMP JUMPDEST PUSH2 0x1E84 PUSH2 0x20CD JUMP JUMPDEST PUSH2 0x1B9A DUP2 PUSH2 0x2116 JUMP JUMPDEST PUSH2 0xEB2 PUSH2 0x20CD JUMP JUMPDEST PUSH0 DUP1 PUSH0 DUP1 PUSH2 0x1EA7 PUSH1 0x2 SLOAD PUSH2 0x1388 PUSH2 0x2017 JUMP JUMPDEST SWAP1 POP PUSH0 PUSH2 0x1EB6 DUP3 PUSH1 0x5 SLOAD PUSH2 0x2017 JUMP JUMPDEST SWAP1 POP PUSH0 PUSH2 0x1EC5 DUP4 PUSH1 0x6 SLOAD PUSH2 0x2017 JUMP JUMPDEST SWAP1 POP PUSH0 PUSH2 0x1ED4 DUP5 PUSH1 0x7 SLOAD PUSH2 0x2017 JUMP JUMPDEST SWAP1 POP PUSH0 PUSH2 0x1EE5 PUSH1 0x1 SLOAD PUSH1 0x4 SLOAD PUSH2 0x2017 JUMP JUMPDEST SWAP1 POP PUSH0 PUSH1 0x8 SLOAD GT PUSH2 0x1F24 JUMPI PUSH1 0x40 MLOAD PUSH3 0x461BCD PUSH1 0xE5 SHL DUP2 MSTORE PUSH1 0x20 PUSH1 0x4 DUP3 ADD MSTORE PUSH1 0x9 PUSH1 0x24 DUP3 ADD MSTORE PUSH9 0x6E6F20757365727321 PUSH1 0xB8 SHL PUSH1 0x44 DUP3 ADD MSTORE PUSH1 0x64 ADD PUSH2 0x8BA JUMP JUMPDEST PUSH0 PUSH1 0x8 SLOAD DUP3 PUSH2 0x1F33 SWAP2 SWAP1 PUSH2 0x2634 JUMP JUMPDEST SWAP1 POP PUSH2 0x1F3F DUP4 DUP6 PUSH2 0x25CB JUMP JUMPDEST PUSH1 0x2 PUSH0 DUP3 DUP3 SLOAD PUSH2 0x1F4F SWAP2 SWAP1 PUSH2 0x255B JUMP JUMPDEST SWAP3 POP POP DUP2 SWAP1 SSTORE POP DUP4 PUSH1 0x1 PUSH0 DUP3 DUP3 SLOAD PUSH2 0x1F67 SWAP2 SWAP1 PUSH2 0x25CB JUMP JUMPDEST SWAP1 SWAP2 SSTORE POP POP PUSH0 DUP1 SLOAD PUSH1 0x9 SLOAD PUSH1 0x40 MLOAD PUSH4 0xA9059CBB PUSH1 0xE0 SHL DUP2 MSTORE PUSH1 0x1 PUSH1 0x1 PUSH1 0xA0 SHL SUB SWAP2 DUP3 AND PUSH1 0x4 DUP3 ADD MSTORE PUSH1 0x24 DUP2 ADD DUP8 SWAP1 MSTORE SWAP2 AND SWAP1 PUSH4 0xA9059CBB SWAP1 PUSH1 0x44 ADD PUSH1 0x20 PUSH1 0x40 MLOAD DUP1 DUP4 SUB DUP2 PUSH0 DUP8 GAS CALL ISZERO DUP1 ISZERO PUSH2 0x1FBE JUMPI RETURNDATASIZE PUSH0 DUP1 RETURNDATACOPY RETURNDATASIZE PUSH0 REVERT JUMPDEST POP POP POP POP PUSH1 0x40 MLOAD RETURNDATASIZE PUSH1 0x1F NOT PUSH1 0x1F DUP3 ADD AND DUP3 ADD DUP1 PUSH1 0x40 MSTORE POP DUP2 ADD SWAP1 PUSH2 0x1FE2 SWAP2 SWAP1 PUSH2 0x2602 JUMP JUMPDEST SWAP1 POP DUP1 PUSH2 0x2006 JUMPI PUSH1 0x40 MLOAD PUSH4 0xD85D3CEF PUSH1 0xE0 SHL DUP2 MSTORE DUP2 ISZERO ISZERO PUSH1 0x4 DUP3 ADD MSTORE PUSH1 0x24 ADD PUSH2 0x8BA JUMP JUMPDEST POP SWAP5 SWAP9 SWAP4 SWAP8 POP SWAP4 SWAP6 POP SWAP2 SWAP4 POP POP POP POP JUMP JUMPDEST PUSH0 DUP3 PUSH0 SUB PUSH2 0x2037 JUMPI PUSH1 0x40 MLOAD PUSH3 0x461BCD PUSH1 0xE5 SHL DUP2 MSTORE PUSH1 0x4 ADD PUSH2 0x8BA SWAP1 PUSH2 0x266A JUMP JUMPDEST DUP2 PUSH0 SUB PUSH2 0x2056 JUMPI PUSH1 0x40 MLOAD PUSH3 0x461BCD PUSH1 0xE5 SHL DUP2 MSTORE PUSH1 0x4 ADD PUSH2 0x8BA SWAP1 PUSH2 0x266A JUMP JUMPDEST PUSH0 PUSH2 0x2710 PUSH2 0x2064 DUP5 DUP7 PUSH2 0x261D JUMP JUMPDEST PUSH2 0x206E SWAP2 SWAP1 PUSH2 0x2634 JUMP JUMPDEST SWAP2 POP POP JUMPDEST SWAP3 SWAP2 POP POP JUMP JUMPDEST PUSH2 0x2081 DUP3 PUSH2 0x211E JUMP JUMPDEST PUSH1 0x40 MLOAD PUSH1 0x1 PUSH1 0x1 PUSH1 0xA0 SHL SUB DUP4 AND SWAP1 PUSH32 0xBC7CD75A20EE27FD9ADEBAB32041F755214DBC6BFFA90CC0225B39DA2E5C2D3B SWAP1 PUSH0 SWAP1 LOG2 DUP1 MLOAD ISZERO PUSH2 0x20C5 JUMPI PUSH2 0x1D60 DUP3 DUP3 PUSH2 0x2181 JUMP JUMPDEST PUSH2 0xA10 PUSH2 0x21F3 JUMP JUMPDEST PUSH32 0xF0C57E16840DF040F15088DC2F81FE391C3923BEC73E23A9662EFC9C229C6A00 SLOAD PUSH1 0x1 PUSH1 0x40 SHL SWAP1 DIV PUSH1 0xFF AND PUSH2 0xEB2 JUMPI PUSH1 0x40 MLOAD PUSH4 0x1AFCD79F PUSH1 0xE3 SHL DUP2 MSTORE PUSH1 0x4 ADD PUSH1 0x40 MLOAD DUP1 SWAP2 SUB SWAP1 REVERT JUMPDEST PUSH2 0x1B68 PUSH2 0x20CD JUMP JUMPDEST DUP1 PUSH1 0x1 PUSH1 0x1 PUSH1 0xA0 SHL SUB AND EXTCODESIZE PUSH0 SUB PUSH2 0x2153 JUMPI PUSH1 0x40 MLOAD PUSH4 0x4C9C8CE3 PUSH1 0xE0 SHL DUP2 MSTORE PUSH1 0x1 PUSH1 0x1 PUSH1 0xA0 SHL SUB DUP3 AND PUSH1 0x4 DUP3 ADD MSTORE PUSH1 0x24 ADD PUSH2 0x8BA JUMP JUMPDEST PUSH0 DUP1 MLOAD PUSH1 0x20 PUSH2 0x26C2 DUP4 CODECOPY DUP2 MLOAD SWAP2 MSTORE DUP1 SLOAD PUSH1 0x1 PUSH1 0x1 PUSH1 0xA0 SHL SUB NOT AND PUSH1 0x1 PUSH1 0x1 PUSH1 0xA0 SHL SUB SWAP3 SWAP1 SWAP3 AND SWAP2 SWAP1 SWAP2 OR SWAP1 SSTORE JUMP JUMPDEST PUSH1 0x60 PUSH0 DUP1 DUP5 PUSH1 0x1 PUSH1 0x1 PUSH1 0xA0 SHL SUB AND DUP5 PUSH1 0x40 MLOAD PUSH2 0x219D SWAP2 SWAP1 PUSH2 0x26AB JUMP JUMPDEST PUSH0 PUSH1 0x40 MLOAD DUP1 DUP4 SUB DUP2 DUP6 GAS DELEGATECALL SWAP2 POP POP RETURNDATASIZE DUP1 PUSH0 DUP2 EQ PUSH2 0x21D5 JUMPI PUSH1 0x40 MLOAD SWAP2 POP PUSH1 0x1F NOT PUSH1 0x3F RETURNDATASIZE ADD AND DUP3 ADD PUSH1 0x40 MSTORE RETURNDATASIZE DUP3 MSTORE RETURNDATASIZE PUSH0 PUSH1 0x20 DUP5 ADD RETURNDATACOPY PUSH2 0x21DA JUMP JUMPDEST PUSH1 0x60 SWAP2 POP JUMPDEST POP SWAP2 POP SWAP2 POP PUSH2 0x21EA DUP6 DUP4 DUP4 PUSH2 0x2212 JUMP JUMPDEST SWAP6 SWAP5 POP POP POP POP POP JUMP JUMPDEST CALLVALUE ISZERO PUSH2 0xEB2 JUMPI PUSH1 0x40 MLOAD PUSH4 0xB398979F PUSH1 0xE0 SHL DUP2 MSTORE PUSH1 0x4 ADD PUSH1 0x40 MLOAD DUP1 SWAP2 SUB SWAP1 REVERT JUMPDEST PUSH1 0x60 DUP3 PUSH2 0x2227 JUMPI PUSH2 0x2222 DUP3 PUSH2 0x2271 JUMP JUMPDEST PUSH2 0x226A JUMP JUMPDEST DUP2 MLOAD ISZERO DUP1 ISZERO PUSH2 0x223E JUMPI POP PUSH1 0x1 PUSH1 0x1 PUSH1 0xA0 SHL SUB DUP5 AND EXTCODESIZE ISZERO JUMPDEST ISZERO PUSH2 0x2267 JUMPI PUSH1 0x40 MLOAD PUSH4 0x9996B315 PUSH1 0xE0 SHL DUP2 MSTORE PUSH1 0x1 PUSH1 0x1 PUSH1 0xA0 SHL SUB DUP6 AND PUSH1 0x4 DUP3 ADD MSTORE PUSH1 0x24 ADD PUSH2 0x8BA JUMP JUMPDEST POP DUP1 JUMPDEST SWAP4 SWAP3 POP POP POP JUMP JUMPDEST DUP1 MLOAD ISZERO PUSH2 0x2281 JUMPI DUP1 MLOAD DUP1 DUP3 PUSH1 0x20 ADD REVERT JUMPDEST PUSH1 0x40 MLOAD PUSH4 0xA12F521 PUSH1 0xE1 SHL DUP2 MSTORE PUSH1 0x4 ADD PUSH1 0x40 MLOAD DUP1 SWAP2 SUB SWAP1 REVERT JUMPDEST PUSH0 PUSH1 0x20 DUP3 DUP5 SUB SLT ISZERO PUSH2 0x22AA JUMPI PUSH0 DUP1 REVERT JUMPDEST POP CALLDATALOAD SWAP2 SWAP1 POP JUMP JUMPDEST PUSH0 DUP1 PUSH1 0x20 DUP4 DUP6 SUB SLT ISZERO PUSH2 0x22C2 JUMPI PUSH0 DUP1 REVERT JUMPDEST DUP3 CALLDATALOAD PUSH8 0xFFFFFFFFFFFFFFFF DUP2 GT ISZERO PUSH2 0x22D8 JUMPI PUSH0 DUP1 REVERT JUMPDEST DUP4 ADD PUSH1 0x1F DUP2 ADD DUP6 SGT PUSH2 0x22E8 JUMPI PUSH0 DUP1 REVERT JUMPDEST DUP1 CALLDATALOAD PUSH8 0xFFFFFFFFFFFFFFFF DUP2 GT ISZERO PUSH2 0x22FE JUMPI PUSH0 DUP1 REVERT JUMPDEST DUP6 PUSH1 0x20 DUP3 DUP5 ADD ADD GT ISZERO PUSH2 0x230F JUMPI PUSH0 DUP1 REVERT JUMPDEST PUSH1 0x20 SWAP2 SWAP1 SWAP2 ADD SWAP6 SWAP1 SWAP5 POP SWAP3 POP POP POP JUMP JUMPDEST DUP1 CALLDATALOAD PUSH1 0x1 PUSH1 0x1 PUSH1 0xA0 SHL SUB DUP2 AND DUP2 EQ PUSH2 0x2335 JUMPI PUSH0 DUP1 REVERT JUMPDEST SWAP2 SWAP1 POP JUMP JUMPDEST PUSH4 0x4E487B71 PUSH1 0xE0 SHL PUSH0 MSTORE PUSH1 0x41 PUSH1 0x4 MSTORE PUSH1 0x24 PUSH0 REVERT JUMPDEST PUSH0 DUP1 PUSH1 0x40 DUP4 DUP6 SUB SLT ISZERO PUSH2 0x235F JUMPI PUSH0 DUP1 REVERT JUMPDEST PUSH2 0x2368 DUP4 PUSH2 0x231F JUMP JUMPDEST SWAP2 POP PUSH1 0x20 DUP4 ADD CALLDATALOAD PUSH8 0xFFFFFFFFFFFFFFFF DUP2 GT ISZERO PUSH2 0x2383 JUMPI PUSH0 DUP1 REVERT JUMPDEST DUP4 ADD PUSH1 0x1F DUP2 ADD DUP6 SGT PUSH2 0x2393 JUMPI PUSH0 DUP1 REVERT JUMPDEST DUP1 CALLDATALOAD PUSH8 0xFFFFFFFFFFFFFFFF DUP2 GT ISZERO PUSH2 0x23AD JUMPI PUSH2 0x23AD PUSH2 0x233A JUMP JUMPDEST PUSH1 0x40 MLOAD PUSH1 0x1F DUP3 ADD PUSH1 0x1F NOT SWAP1 DUP2 AND PUSH1 0x3F ADD AND DUP2 ADD PUSH8 0xFFFFFFFFFFFFFFFF DUP2 GT DUP3 DUP3 LT OR ISZERO PUSH2 0x23DC JUMPI PUSH2 0x23DC PUSH2 0x233A JUMP JUMPDEST PUSH1 0x40 MSTORE DUP2 DUP2 MSTORE DUP3 DUP3 ADD PUSH1 0x20 ADD DUP8 LT ISZERO PUSH2 0x23F3 JUMPI PUSH0 DUP1 REVERT JUMPDEST DUP2 PUSH1 0x20 DUP5 ADD PUSH1 0x20 DUP4 ADD CALLDATACOPY PUSH0 PUSH1 0x20 DUP4 DUP4 ADD ADD MSTORE DUP1 SWAP4 POP POP POP POP SWAP3 POP SWAP3 SWAP1 POP JUMP JUMPDEST PUSH0 DUP1 PUSH1 0x40 DUP4 DUP6 SUB SLT ISZERO PUSH2 0x2423 JUMPI PUSH0 DUP1 REVERT JUMPDEST POP POP DUP1 CALLDATALOAD SWAP3 PUSH1 0x20 SWAP1 SWAP2 ADD CALLDATALOAD SWAP2 POP JUMP JUMPDEST PUSH0 DUP2 MLOAD DUP1 DUP5 MSTORE DUP1 PUSH1 0x20 DUP5 ADD PUSH1 0x20 DUP7 ADD MCOPY PUSH0 PUSH1 0x20 DUP3 DUP7 ADD ADD MSTORE PUSH1 0x20 PUSH1 0x1F NOT PUSH1 0x1F DUP4 ADD AND DUP6 ADD ADD SWAP2 POP POP SWAP3 SWAP2 POP POP JUMP JUMPDEST DUP3 ISZERO ISZERO DUP2 MSTORE PUSH1 0x40 PUSH1 0x20 DUP3 ADD MSTORE PUSH0 PUSH2 0x247A PUSH1 0x40 DUP4 ADD DUP5 PUSH2 0x2432 JUMP JUMPDEST SWAP5 SWAP4 POP POP POP POP JUMP JUMPDEST PUSH1 0x20 DUP2 MSTORE PUSH0 PUSH2 0x226A PUSH1 0x20 DUP4 ADD DUP5 PUSH2 0x2432 JUMP JUMPDEST PUSH0 PUSH1 0x20 DUP3 DUP5 SUB SLT ISZERO PUSH2 0x24A4 JUMPI PUSH0 DUP1 REVERT JUMPDEST PUSH2 0x226A DUP3 PUSH2 0x231F JUMP JUMPDEST PUSH0 DUP1 PUSH0 PUSH1 0x60 DUP5 DUP7 SUB SLT ISZERO PUSH2 0x24BF JUMPI PUSH0 DUP1 REVERT JUMPDEST PUSH2 0x24C8 DUP5 PUSH2 0x231F JUMP JUMPDEST SWAP3 POP PUSH2 0x24D6 PUSH1 0x20 DUP6 ADD PUSH2 0x231F JUMP JUMPDEST SWAP2 POP PUSH2 0x24E4 PUSH1 0x40 DUP6 ADD PUSH2 0x231F JUMP JUMPDEST SWAP1 POP SWAP3 POP SWAP3 POP SWAP3 JUMP JUMPDEST DUP1 ISZERO ISZERO DUP2 EQ PUSH2 0x1B9A JUMPI PUSH0 DUP1 REVERT JUMPDEST PUSH0 DUP1 PUSH1 0x40 DUP4 DUP6 SUB SLT ISZERO PUSH2 0x250B JUMPI PUSH0 DUP1 REVERT JUMPDEST PUSH2 0x2514 DUP4 PUSH2 0x231F JUMP JUMPDEST SWAP2 POP PUSH1 0x20 DUP4 ADD CALLDATALOAD PUSH2 0x2524 DUP2 PUSH2 0x24ED JUMP JUMPDEST DUP1 SWAP2 POP POP SWAP3 POP SWAP3 SWAP1 POP JUMP JUMPDEST PUSH4 0x4E487B71 PUSH1 0xE0 SHL PUSH0 MSTORE PUSH1 0x11 PUSH1 0x4 MSTORE PUSH1 0x24 PUSH0 REVERT JUMPDEST PUSH0 PUSH1 0x1 DUP3 ADD PUSH2 0x2554 JUMPI PUSH2 0x2554 PUSH2 0x252F JUMP JUMPDEST POP PUSH1 0x1 ADD SWAP1 JUMP JUMPDEST DUP2 DUP2 SUB DUP2 DUP2 GT ISZERO PUSH2 0x2072 JUMPI PUSH2 0x2072 PUSH2 0x252F JUMP JUMPDEST PUSH1 0x20 DUP1 DUP3 MSTORE PUSH1 0x3B SWAP1 DUP3 ADD MSTORE PUSH32 0x54686973206164647265737320646F6573206E6F742068617665207065726D69 PUSH1 0x40 DUP3 ADD MSTORE PUSH32 0x7373696F6E20746F2063616C6C20706572666F726D55706B6565700000000000 PUSH1 0x60 DUP3 ADD MSTORE PUSH1 0x80 ADD SWAP1 JUMP JUMPDEST DUP1 DUP3 ADD DUP1 DUP3 GT ISZERO PUSH2 0x2072 JUMPI PUSH2 0x2072 PUSH2 0x252F JUMP JUMPDEST PUSH1 0x1 PUSH1 0x1 PUSH1 0xA0 SHL SUB SWAP4 DUP5 AND DUP2 MSTORE SWAP2 SWAP1 SWAP3 AND PUSH1 0x20 DUP3 ADD MSTORE PUSH1 0x40 DUP2 ADD SWAP2 SWAP1 SWAP2 MSTORE PUSH1 0x60 ADD SWAP1 JUMP JUMPDEST PUSH0 PUSH1 0x20 DUP3 DUP5 SUB SLT ISZERO PUSH2 0x2612 JUMPI PUSH0 DUP1 REVERT JUMPDEST DUP2 MLOAD PUSH2 0x226A DUP2 PUSH2 0x24ED JUMP JUMPDEST DUP1 DUP3 MUL DUP2 ISZERO DUP3 DUP3 DIV DUP5 EQ OR PUSH2 0x2072 JUMPI PUSH2 0x2072 PUSH2 0x252F JUMP JUMPDEST PUSH0 DUP3 PUSH2 0x264E JUMPI PUSH4 0x4E487B71 PUSH1 0xE0 SHL PUSH0 MSTORE PUSH1 0x12 PUSH1 0x4 MSTORE PUSH1 0x24 PUSH0 REVERT JUMPDEST POP DIV SWAP1 JUMP JUMPDEST PUSH0 PUSH1 0x20 DUP3 DUP5 SUB SLT ISZERO PUSH2 0x2663 JUMPI PUSH0 DUP1 REVERT JUMPDEST POP MLOAD SWAP2 SWAP1 POP JUMP JUMPDEST PUSH1 0x20 DUP1 DUP3 MSTORE PUSH1 0x21 SWAP1 DUP3 ADD MSTORE PUSH32 0x5F746F74616C5374616B65416D6F756E742063616E206E6F74206265207A6572 PUSH1 0x40 DUP3 ADD MSTORE PUSH1 0x6F PUSH1 0xF8 SHL PUSH1 0x60 DUP3 ADD MSTORE PUSH1 0x80 ADD SWAP1 JUMP JUMPDEST PUSH0 DUP3 MLOAD DUP1 PUSH1 0x20 DUP6 ADD DUP5 MCOPY PUSH0 SWAP3 ADD SWAP2 DUP3 MSTORE POP SWAP2 SWAP1 POP JUMP INVALID CALLDATASIZE ADDMOD SWAP5 LOG1 EXTCODESIZE LOG1 LOG3 0x21 MOD PUSH8 0xC828492DB98DCA3E KECCAK256 PUSH23 0xCC3735A920A3CA505D382BBCB5671393C7C6980552E50A BALANCE 0xE7 PUSH25 0x921EB17D764C2E98FBF4D44FFF524712DEF9A2646970667358 0x22 SLT KECCAK256 SWAP9 0xDB 0xF6 CHAINID 0xB8 MSTORE POP 0xC6 RETURN 0xE5 0xCA 0xB4 0xD8 0xC7 MSTORE 0xD4 0xE3 0xB9 GT 0xCA LOG1 DUP2 0xAA 0xAD ADDMOD 0xE3 PUSH24 0x720756EB7C64736F6C634300081A00330000000000000000 "
		},
		"gasEstimates": {
			"creation": {
				"codeDepositCost": "2007800",
				"executionCost": "infinite",
				"totalCost": "infinite"
			},
			"external": {
				"UPGRADE_INTERFACE_VERSION()": "infinite",
				"addFunds(uint256,uint256)": "infinite",
				"addOwnership(uint256)": "infinite",
				"addProjects(uint256)": "54908",
				"addTreasuery(uint256)": "infinite",
				"alreadyAdded(address)": "2661",
				"blockUser(address,bool)": "30945",
				"checkOnce()": "2394",
				"checkUpkeep(bytes)": "infinite",
				"flowToTreasuryPercentage()": "2438",
				"initialize(address,address,address)": "infinite",
				"interval()": "2350",
				"lastTimeStamp()": "2439",
				"maintainceFeePercentage()": "2417",
				"multisigAddress()": "2492",
				"noOfUsers()": "2330",
				"odividentPayoutPercentage()": "2329",
				"off()": "33000",
				"owner()": "2375",
				"ownerShipPoolAmount()": "2328",
				"performUpkeep(bytes)": "infinite",
				"proxiableUUID()": "infinite",
				"reStakeTokens(uint256)": "infinite",
				"realInterval()": "2329",
				"renounceOwnership()": "infinite",
				"s_forwarderAddress()": "2471",
				"setForwarderAddress(address)": "28189",
				"setInterval(uint256,uint256)": "92688",
				"setTeasueryPercentages(uint256,uint256)": "infinite",
				"setflowToTreasuryPercentage(uint256)": "infinite",
				"setmaintainceFeePercentage(uint256)": "infinite",
				"setodividentPayoutPercentage(uint256)": "infinite",
				"settdividentPayoutPercentage(uint256)": "infinite",
				"stakeTokens(uint256)": "infinite",
				"startingTime()": "2395",
				"tPPercentages(uint256)": "2578",
				"tdividentPayoutPercentage()": "2373",
				"totalProjects()": "2372",
				"totalStakedAmount()": "2328",
				"totalUsers(uint256)": "2585",
				"transferOwnership(address)": "28497",
				"treasuryPoolAmount()": "2374",
				"upgradeToAndCall(address,bytes)": "infinite",
				"usdcToken()": "2404",
				"userRegistered(address)": "13291",
				"userWithdrawAmoount(uint256)": "infinite",
				"weeklyTransfer()": "infinite"
			},
			"internal": {
				"_authorizeUpgrade(address)": "infinite",
				"calculateFees(uint256,uint256)": "infinite",
				"calculatePercentage(uint256,uint256)": "infinite",
				"perPoolCalculation()": "infinite"
			}
		},
		"methodIdentifiers": {
			"UPGRADE_INTERFACE_VERSION()": "ad3cb1cc",
			"addFunds(uint256,uint256)": "85f45250",
			"addOwnership(uint256)": "78fd078d",
			"addProjects(uint256)": "2765df7a",
			"addTreasuery(uint256)": "5256dbbf",
			"alreadyAdded(address)": "c7fd5bf0",
			"blockUser(address,bool)": "d9b998b4",
			"checkOnce()": "30e3f8f8",
			"checkUpkeep(bytes)": "6e04ff0d",
			"flowToTreasuryPercentage()": "ce356a24",
			"initialize(address,address,address)": "c0c53b8b",
			"interval()": "947a36fb",
			"lastTimeStamp()": "3f3b3b27",
			"maintainceFeePercentage()": "3a71a9e4",
			"multisigAddress()": "5462870d",
			"noOfUsers()": "01934a83",
			"odividentPayoutPercentage()": "44490ff4",
			"off()": "6626b26d",
			"owner()": "8da5cb5b",
			"ownerShipPoolAmount()": "b47ff951",
			"performUpkeep(bytes)": "4585e33b",
			"proxiableUUID()": "52d1902d",
			"reStakeTokens(uint256)": "7ffe4d93",
			"realInterval()": "30cac972",
			"renounceOwnership()": "715018a6",
			"s_forwarderAddress()": "3070fbf8",
			"setForwarderAddress(address)": "d777cc6d",
			"setInterval(uint256,uint256)": "5f17e616",
			"setTeasueryPercentages(uint256,uint256)": "ed061067",
			"setflowToTreasuryPercentage(uint256)": "ad8e5ec4",
			"setmaintainceFeePercentage(uint256)": "7f111e60",
			"setodividentPayoutPercentage(uint256)": "b9dac1eb",
			"settdividentPayoutPercentage(uint256)": "7f70c5e7",
			"stakeTokens(uint256)": "7547c7a3",
			"startingTime()": "39518b5e",
			"tPPercentages(uint256)": "ff3d65d9",
			"tdividentPayoutPercentage()": "33244c2c",
			"totalProjects()": "9c361e4e",
			"totalStakedAmount()": "567e98f9",
			"totalUsers(uint256)": "a4f67b8b",
			"transferOwnership(address)": "f2fde38b",
			"treasuryPoolAmount()": "188e07b9",
			"upgradeToAndCall(address,bytes)": "4f1ef286",
			"usdcToken()": "11eac855",
			"userRegistered(address)": "bccbc36c",
			"userWithdrawAmoount(uint256)": "67976974",
			"weeklyTransfer()": "e9c68e2c"
		}
	},
	"abi": [
		{
			"inputs": [],
			"stateMutability": "nonpayable",
			"type": "constructor"
		},
		{
			"inputs": [
				{
					"internalType": "address",
					"name": "target",
					"type": "address"
				}
			],
			"name": "AddressEmptyCode",
			"type": "error"
		},
		{
			"inputs": [
				{
					"internalType": "address",
					"name": "implementation",
					"type": "address"
				}
			],
			"name": "ERC1967InvalidImplementation",
			"type": "error"
		},
		{
			"inputs": [],
			"name": "ERC1967NonPayable",
			"type": "error"
		},
		{
			"inputs": [],
			"name": "FailedInnerCall",
			"type": "error"
		},
		{
			"inputs": [],
			"name": "InvalidInitialization",
			"type": "error"
		},
		{
			"inputs": [],
			"name": "NotInitializing",
			"type": "error"
		},
		{
			"inputs": [
				{
					"internalType": "address",
					"name": "owner",
					"type": "address"
				}
			],
			"name": "OwnableInvalidOwner",
			"type": "error"
		},
		{
			"inputs": [
				{
					"internalType": "address",
					"name": "account",
					"type": "address"
				}
			],
			"name": "OwnableUnauthorizedAccount",
			"type": "error"
		},
		{
			"inputs": [],
			"name": "UUPSUnauthorizedCallContext",
			"type": "error"
		},
		{
			"inputs": [
				{
					"internalType": "bytes32",
					"name": "slot",
					"type": "bytes32"
				}
			],
			"name": "UUPSUnsupportedProxiableUUID",
			"type": "error"
		},
		{
			"inputs": [
				{
					"internalType": "uint256",
					"name": "amount",
					"type": "uint256"
				}
			],
			"name": "notEnoughBalance",
			"type": "error"
		},
		{
			"inputs": [
				{
					"internalType": "bool",
					"name": "transfered",
					"type": "bool"
				}
			],
			"name": "transferFailed",
			"type": "error"
		},
		{
			"inputs": [
				{
					"internalType": "bool",
					"name": "blocked",
					"type": "bool"
				}
			],
			"name": "userBlocked",
			"type": "error"
		},
		{
			"inputs": [
				{
					"internalType": "address",
					"name": "wrongAddress",
					"type": "address"
				}
			],
			"name": "wrongAddress",
			"type": "error"
		},
		{
			"inputs": [
				{
					"internalType": "uint256",
					"name": "amount",
					"type": "uint256"
				}
			],
			"name": "wrongAmount",
			"type": "error"
		},
		{
			"inputs": [
				{
					"internalType": "uint256",
					"name": "updateInterval",
					"type": "uint256"
				}
			],
			"name": "wrongInterval",
			"type": "error"
		},
		{
			"inputs": [
				{
					"internalType": "address",
					"name": "owner",
					"type": "address"
				}
			],
			"name": "wrongOwner",
			"type": "error"
		},
		{
			"inputs": [
				{
					"internalType": "uint256",
					"name": "percentage",
					"type": "uint256"
				}
			],
			"name": "wrongPercentage",
			"type": "error"
		},
		{
			"inputs": [
				{
					"internalType": "uint256",
					"name": "projectNO",
					"type": "uint256"
				}
			],
			"name": "wrongProjectNo",
			"type": "error"
		},
		{
			"inputs": [
				{
					"internalType": "uint256",
					"name": "time",
					"type": "uint256"
				}
			],
			"name": "wrongTime",
			"type": "error"
		},
		{
			"inputs": [
				{
					"internalType": "bool",
					"name": "value",
					"type": "bool"
				}
			],
			"name": "wrongValue",
			"type": "error"
		},
		{
			"anonymous": false,
			"inputs": [
				{
					"indexed": false,
					"internalType": "uint256",
					"name": "_amount",
					"type": "uint256"
				},
				{
					"indexed": false,
					"internalType": "uint256",
					"name": "_projectNo",
					"type": "uint256"
				}
			],
			"name": "AddFunds",
			"type": "event"
		},
		{
			"anonymous": false,
			"inputs": [
				{
					"indexed": false,
					"internalType": "uint256",
					"name": "_ownerShipPoolAmount",
					"type": "uint256"
				}
			],
			"name": "AddOwnership",
			"type": "event"
		},
		{
			"anonymous": false,
			"inputs": [
				{
					"indexed": false,
					"internalType": "uint256",
					"name": "projectId",
					"type": "uint256"
				},
				{
					"indexed": false,
					"internalType": "uint256",
					"name": "OpPercentage",
					"type": "uint256"
				},
				{
					"indexed": false,
					"internalType": "uint256",
					"name": "tpPercentage",
					"type": "uint256"
				}
			],
			"name": "AddProject",
			"type": "event"
		},
		{
			"anonymous": false,
			"inputs": [
				{
					"indexed": false,
					"internalType": "uint256",
					"name": "_treasuryPoolAmount",
					"type": "uint256"
				}
			],
			"name": "AddTreasuery",
			"type": "event"
		},
		{
			"anonymous": false,
			"inputs": [
				{
					"indexed": false,
					"internalType": "uint64",
					"name": "version",
					"type": "uint64"
				}
			],
			"name": "Initialized",
			"type": "event"
		},
		{
			"anonymous": false,
			"inputs": [
				{
					"indexed": true,
					"internalType": "address",
					"name": "previousOwner",
					"type": "address"
				},
				{
					"indexed": true,
					"internalType": "address",
					"name": "newOwner",
					"type": "address"
				}
			],
			"name": "OwnershipTransferred",
			"type": "event"
		},
		{
			"anonymous": false,
			"inputs": [
				{
					"indexed": false,
					"internalType": "address",
					"name": "_owner",
					"type": "address"
				},
				{
					"indexed": false,
					"internalType": "uint256",
					"name": "_newPercentage",
					"type": "uint256"
				}
			],
			"name": "PercentageChanged",
			"type": "event"
		},
		{
			"anonymous": false,
			"inputs": [
				{
					"indexed": false,
					"internalType": "address",
					"name": "_owner",
					"type": "address"
				},
				{
					"indexed": false,
					"internalType": "address",
					"name": "_s_forwarderAddress",
					"type": "address"
				}
			],
			"name": "SetForwarderAddress",
			"type": "event"
		},
		{
			"anonymous": false,
			"inputs": [
				{
					"indexed": false,
					"internalType": "address",
					"name": "_owner",
					"type": "address"
				},
				{
					"indexed": false,
					"internalType": "uint256",
					"name": "_interval",
					"type": "uint256"
				},
				{
					"indexed": false,
					"internalType": "uint256",
					"name": "_lastTimeStamp",
					"type": "uint256"
				}
			],
			"name": "SetInterval",
			"type": "event"
		},
		{
			"anonymous": false,
			"inputs": [
				{
					"indexed": false,
					"internalType": "address",
					"name": "sender",
					"type": "address"
				},
				{
					"indexed": false,
					"internalType": "address",
					"name": "recepient",
					"type": "address"
				},
				{
					"indexed": false,
					"internalType": "uint256",
					"name": "usdcAmount",
					"type": "uint256"
				}
			],
			"name": "StakeTokens",
			"type": "event"
		},
		{
			"anonymous": false,
			"inputs": [
				{
					"indexed": true,
					"internalType": "address",
					"name": "implementation",
					"type": "address"
				}
			],
			"name": "Upgraded",
			"type": "event"
		},
		{
			"anonymous": false,
			"inputs": [
				{
					"indexed": false,
					"internalType": "address",
					"name": "owner",
					"type": "address"
				},
				{
					"indexed": false,
					"internalType": "address",
					"name": "blockUserAddress",
					"type": "address"
				},
				{
					"indexed": false,
					"internalType": "bool",
					"name": "blocked",
					"type": "bool"
				}
			],
			"name": "UserBlocked",
			"type": "event"
		},
		{
			"anonymous": false,
			"inputs": [
				{
					"indexed": false,
					"internalType": "address",
					"name": "caller",
					"type": "address"
				},
				{
					"indexed": false,
					"internalType": "uint256",
					"name": "ownerShipPoolAmount",
					"type": "uint256"
				},
				{
					"indexed": false,
					"internalType": "uint256",
					"name": "treasuryPoolAmount",
					"type": "uint256"
				}
			],
			"name": "WeeklyTransfered",
			"type": "event"
		},
		{
			"anonymous": false,
			"inputs": [
				{
					"indexed": false,
					"internalType": "address",
					"name": "recipient",
					"type": "address"
				},
				{
					"indexed": false,
					"internalType": "uint256",
					"name": "usdcAmount",
					"type": "uint256"
				}
			],
			"name": "Withdraw",
			"type": "event"
		},
		{
			"anonymous": false,
			"inputs": [
				{
					"indexed": false,
					"internalType": "address",
					"name": "_owner",
					"type": "address"
				},
				{
					"indexed": false,
					"internalType": "uint256",
					"name": "_interval",
					"type": "uint256"
				}
			],
			"name": "offInterval",
			"type": "event"
		},
		{
			"inputs": [],
			"name": "UPGRADE_INTERFACE_VERSION",
			"outputs": [
				{
					"internalType": "string",
					"name": "",
					"type": "string"
				}
			],
			"stateMutability": "view",
			"type": "function"
		},
		{
			"inputs": [
				{
					"internalType": "uint256",
					"name": "_amount",
					"type": "uint256"
				},
				{
					"internalType": "uint256",
					"name": "_projectNo",
					"type": "uint256"
				}
			],
			"name": "addFunds",
			"outputs": [],
			"stateMutability": "nonpayable",
			"type": "function"
		},
		{
			"inputs": [
				{
					"internalType": "uint256",
					"name": "_amount",
					"type": "uint256"
				}
			],
			"name": "addOwnership",
			"outputs": [],
			"stateMutability": "nonpayable",
			"type": "function"
		},
		{
			"inputs": [
				{
					"internalType": "uint256",
					"name": "_tPPercentage",
					"type": "uint256"
				}
			],
			"name": "addProjects",
			"outputs": [],
			"stateMutability": "nonpayable",
			"type": "function"
		},
		{
			"inputs": [
				{
					"internalType": "uint256",
					"name": "_amount",
					"type": "uint256"
				}
			],
			"name": "addTreasuery",
			"outputs": [],
			"stateMutability": "nonpayable",
			"type": "function"
		},
		{
			"inputs": [
				{
					"internalType": "address",
					"name": "",
					"type": "address"
				}
			],
			"name": "alreadyAdded",
			"outputs": [
				{
					"internalType": "bool",
					"name": "",
					"type": "bool"
				}
			],
			"stateMutability": "view",
			"type": "function"
		},
		{
			"inputs": [
				{
					"internalType": "address",
					"name": "_userAddress",
					"type": "address"
				},
				{
					"internalType": "bool",
					"name": "value",
					"type": "bool"
				}
			],
			"name": "blockUser",
			"outputs": [],
			"stateMutability": "nonpayable",
			"type": "function"
		},
		{
			"inputs": [],
			"name": "checkOnce",
			"outputs": [
				{
					"internalType": "bool",
					"name": "",
					"type": "bool"
				}
			],
			"stateMutability": "view",
			"type": "function"
		},
		{
			"inputs": [
				{
					"internalType": "bytes",
					"name": "",
					"type": "bytes"
				}
			],
			"name": "checkUpkeep",
			"outputs": [
				{
					"internalType": "bool",
					"name": "",
					"type": "bool"
				},
				{
					"internalType": "bytes",
					"name": "",
					"type": "bytes"
				}
			],
			"stateMutability": "view",
			"type": "function"
		},
		{
			"inputs": [],
			"name": "flowToTreasuryPercentage",
			"outputs": [
				{
					"internalType": "uint256",
					"name": "",
					"type": "uint256"
				}
			],
			"stateMutability": "view",
			"type": "function"
		},
		{
			"inputs": [
				{
					"internalType": "address",
					"name": "initialOwner",
					"type": "address"
				},
				{
					"internalType": "address",
					"name": "_usdcAddress",
					"type": "address"
				},
				{
					"internalType": "address",
					"name": "_multisigAddress",
					"type": "address"
				}
			],
			"name": "initialize",
			"outputs": [],
			"stateMutability": "nonpayable",
			"type": "function"
		},
		{
			"inputs": [],
			"name": "interval",
			"outputs": [
				{
					"internalType": "uint256",
					"name": "",
					"type": "uint256"
				}
			],
			"stateMutability": "view",
			"type": "function"
		},
		{
			"inputs": [],
			"name": "lastTimeStamp",
			"outputs": [
				{
					"internalType": "uint256",
					"name": "",
					"type": "uint256"
				}
			],
			"stateMutability": "view",
			"type": "function"
		},
		{
			"inputs": [],
			"name": "maintainceFeePercentage",
			"outputs": [
				{
					"internalType": "uint256",
					"name": "",
					"type": "uint256"
				}
			],
			"stateMutability": "view",
			"type": "function"
		},
		{
			"inputs": [],
			"name": "multisigAddress",
			"outputs": [
				{
					"internalType": "address",
					"name": "",
					"type": "address"
				}
			],
			"stateMutability": "view",
			"type": "function"
		},
		{
			"inputs": [],
			"name": "noOfUsers",
			"outputs": [
				{
					"internalType": "uint256",
					"name": "",
					"type": "uint256"
				}
			],
			"stateMutability": "view",
			"type": "function"
		},
		{
			"inputs": [],
			"name": "odividentPayoutPercentage",
			"outputs": [
				{
					"internalType": "uint256",
					"name": "",
					"type": "uint256"
				}
			],
			"stateMutability": "view",
			"type": "function"
		},
		{
			"inputs": [],
			"name": "off",
			"outputs": [],
			"stateMutability": "nonpayable",
			"type": "function"
		},
		{
			"inputs": [],
			"name": "owner",
			"outputs": [
				{
					"internalType": "address",
					"name": "",
					"type": "address"
				}
			],
			"stateMutability": "view",
			"type": "function"
		},
		{
			"inputs": [],
			"name": "ownerShipPoolAmount",
			"outputs": [
				{
					"internalType": "uint256",
					"name": "",
					"type": "uint256"
				}
			],
			"stateMutability": "view",
			"type": "function"
		},
		{
			"inputs": [
				{
					"internalType": "bytes",
					"name": "",
					"type": "bytes"
				}
			],
			"name": "performUpkeep",
			"outputs": [],
			"stateMutability": "nonpayable",
			"type": "function"
		},
		{
			"inputs": [],
			"name": "proxiableUUID",
			"outputs": [
				{
					"internalType": "bytes32",
					"name": "",
					"type": "bytes32"
				}
			],
			"stateMutability": "view",
			"type": "function"
		},
		{
			"inputs": [
				{
					"internalType": "uint256",
					"name": "_amount",
					"type": "uint256"
				}
			],
			"name": "reStakeTokens",
			"outputs": [],
			"stateMutability": "nonpayable",
			"type": "function"
		},
		{
			"inputs": [],
			"name": "realInterval",
			"outputs": [
				{
					"internalType": "uint256",
					"name": "",
					"type": "uint256"
				}
			],
			"stateMutability": "view",
			"type": "function"
		},
		{
			"inputs": [],
			"name": "renounceOwnership",
			"outputs": [],
			"stateMutability": "nonpayable",
			"type": "function"
		},
		{
			"inputs": [],
			"name": "s_forwarderAddress",
			"outputs": [
				{
					"internalType": "address",
					"name": "",
					"type": "address"
				}
			],
			"stateMutability": "view",
			"type": "function"
		},
		{
			"inputs": [
				{
					"internalType": "address",
					"name": "forwarderAddress",
					"type": "address"
				}
			],
			"name": "setForwarderAddress",
			"outputs": [],
			"stateMutability": "nonpayable",
			"type": "function"
		},
		{
			"inputs": [
				{
					"internalType": "uint256",
					"name": "_startingTime",
					"type": "uint256"
				},
				{
					"internalType": "uint256",
					"name": "updateInterval",
					"type": "uint256"
				}
			],
			"name": "setInterval",
			"outputs": [],
			"stateMutability": "nonpayable",
			"type": "function"
		},
		{
			"inputs": [
				{
					"internalType": "uint256",
					"name": "_projectId",
					"type": "uint256"
				},
				{
					"internalType": "uint256",
					"name": "_newPerccentage",
					"type": "uint256"
				}
			],
			"name": "setTeasueryPercentages",
			"outputs": [],
			"stateMutability": "nonpayable",
			"type": "function"
		},
		{
			"inputs": [
				{
					"internalType": "uint256",
					"name": "_newPerccentage",
					"type": "uint256"
				}
			],
			"name": "setflowToTreasuryPercentage",
			"outputs": [],
			"stateMutability": "nonpayable",
			"type": "function"
		},
		{
			"inputs": [
				{
					"internalType": "uint256",
					"name": "_newPerccentage",
					"type": "uint256"
				}
			],
			"name": "setmaintainceFeePercentage",
			"outputs": [],
			"stateMutability": "nonpayable",
			"type": "function"
		},
		{
			"inputs": [
				{
					"internalType": "uint256",
					"name": "_newPerccentage",
					"type": "uint256"
				}
			],
			"name": "setodividentPayoutPercentage",
			"outputs": [],
			"stateMutability": "nonpayable",
			"type": "function"
		},
		{
			"inputs": [
				{
					"internalType": "uint256",
					"name": "_newPerccentage",
					"type": "uint256"
				}
			],
			"name": "settdividentPayoutPercentage",
			"outputs": [],
			"stateMutability": "nonpayable",
			"type": "function"
		},
		{
			"inputs": [
				{
					"internalType": "uint256",
					"name": "_amount",
					"type": "uint256"
				}
			],
			"name": "stakeTokens",
			"outputs": [],
			"stateMutability": "nonpayable",
			"type": "function"
		},
		{
			"inputs": [],
			"name": "startingTime",
			"outputs": [
				{
					"internalType": "uint256",
					"name": "",
					"type": "uint256"
				}
			],
			"stateMutability": "view",
			"type": "function"
		},
		{
			"inputs": [
				{
					"internalType": "uint256",
					"name": "",
					"type": "uint256"
				}
			],
			"name": "tPPercentages",
			"outputs": [
				{
					"internalType": "uint256",
					"name": "",
					"type": "uint256"
				}
			],
			"stateMutability": "view",
			"type": "function"
		},
		{
			"inputs": [],
			"name": "tdividentPayoutPercentage",
			"outputs": [
				{
					"internalType": "uint256",
					"name": "",
					"type": "uint256"
				}
			],
			"stateMutability": "view",
			"type": "function"
		},
		{
			"inputs": [],
			"name": "totalProjects",
			"outputs": [
				{
					"internalType": "uint256",
					"name": "",
					"type": "uint256"
				}
			],
			"stateMutability": "view",
			"type": "function"
		},
		{
			"inputs": [],
			"name": "totalStakedAmount",
			"outputs": [
				{
					"internalType": "uint256",
					"name": "",
					"type": "uint256"
				}
			],
			"stateMutability": "view",
			"type": "function"
		},
		{
			"inputs": [
				{
					"internalType": "uint256",
					"name": "",
					"type": "uint256"
				}
			],
			"name": "totalUsers",
			"outputs": [
				{
					"internalType": "address",
					"name": "",
					"type": "address"
				}
			],
			"stateMutability": "view",
			"type": "function"
		},
		{
			"inputs": [
				{
					"internalType": "address",
					"name": "newOwner",
					"type": "address"
				}
			],
			"name": "transferOwnership",
			"outputs": [],
			"stateMutability": "nonpayable",
			"type": "function"
		},
		{
			"inputs": [],
			"name": "treasuryPoolAmount",
			"outputs": [
				{
					"internalType": "uint256",
					"name": "",
					"type": "uint256"
				}
			],
			"stateMutability": "view",
			"type": "function"
		},
		{
			"inputs": [
				{
					"internalType": "address",
					"name": "newImplementation",
					"type": "address"
				},
				{
					"internalType": "bytes",
					"name": "data",
					"type": "bytes"
				}
			],
			"name": "upgradeToAndCall",
			"outputs": [],
			"stateMutability": "payable",
			"type": "function"
		},
		{
			"inputs": [],
			"name": "usdcToken",
			"outputs": [
				{
					"internalType": "contract IBEP20",
					"name": "",
					"type": "address"
				}
			],
			"stateMutability": "view",
			"type": "function"
		},
		{
			"inputs": [
				{
					"internalType": "address",
					"name": "",
					"type": "address"
				}
			],
			"name": "userRegistered",
			"outputs": [
				{
					"internalType": "bool",
					"name": "blocked",
					"type": "bool"
				},
				{
					"internalType": "uint256",
					"name": "receivedAmount",
					"type": "uint256"
				},
				{
					"internalType": "uint256",
					"name": "withdrawAmount",
					"type": "uint256"
				},
				{
					"internalType": "uint256",
					"name": "receiveFromTreasury",
					"type": "uint256"
				},
				{
					"internalType": "uint256",
					"name": "receiveFromOwneerShip",
					"type": "uint256"
				},
				{
					"internalType": "uint256",
					"name": "totalStakedAmount",
					"type": "uint256"
				}
			],
			"stateMutability": "view",
			"type": "function"
		},
		{
			"inputs": [
				{
					"internalType": "uint256",
					"name": "_amount",
					"type": "uint256"
				}
			],
			"name": "userWithdrawAmoount",
			"outputs": [],
			"stateMutability": "nonpayable",
			"type": "function"
		},
		{
			"inputs": [],
			"name": "weeklyTransfer",
			"outputs": [],
			"stateMutability": "nonpayable",
			"type": "function"
		}
	]
}