{
	"data": {
		"bytecode": {
			"linkReferences": {},
			"object": "60a06040523073ffffffffffffffffffffffffffffffffffffffff1660809073ffffffffffffffffffffffffffffffffffffffff16815250348015610042575f80fd5b5061005161005660201b60201c565b6101b6565b5f61006561015460201b60201c565b9050805f0160089054906101000a900460ff16156100af576040517ff92ee8a900000000000000000000000000000000000000000000000000000000815260040160405180910390fd5b67ffffffffffffffff8016815f015f9054906101000a900467ffffffffffffffff1667ffffffffffffffff16146101515767ffffffffffffffff815f015f6101000a81548167ffffffffffffffff021916908367ffffffffffffffff1602179055507fc7f505b2f371ae2175ee4913f4499e1f2633a7b5936321eed1cdaeb6115181d267ffffffffffffffff604051610148919061019d565b60405180910390a15b50565b5f7ff0c57e16840df040f15088dc2f81fe391c3923bec73e23a9662efc9c229c6a00905090565b5f67ffffffffffffffff82169050919050565b6101978161017b565b82525050565b5f6020820190506101b05f83018461018e565b92915050565b60805161458d6101dc5f395f8181612c7001528181612cc50152612e7f015261458d5ff3fe60806040526004361061027c575f3560e01c806378fd078d1161014e578063b47ff951116100c0578063d777cc6d11610079578063d777cc6d1461090c578063d9b998b414610934578063e9c68e2c1461095c578063ed06106714610972578063f2fde38b1461099a578063ff3d65d9146109c25761027c565b8063b47ff951146107eb578063b9dac1eb14610815578063bccbc36c1461083d578063c0c53b8b1461087e578063c7fd5bf0146108a6578063ce356a24146108e25761027c565b80638da5cb5b116101125780638da5cb5b146106df578063947a36fb146107095780639c361e4e14610733578063a4f67b8b1461075d578063ad3cb1cc14610799578063ad8e5ec4146107c35761027c565b806378fd078d146106175780637f111e601461063f5780637f70c5e7146106675780637ffe4d931461068f57806385f45250146106b75761027c565b80634585e33b116101f25780635f17e616116101ab5780635f17e616146105365780636626b26d1461055e57806367976974146105745780636e04ff0d1461059c578063715018a6146105d95780637547c7a3146105ef5761027c565b80634585e33b1461044c5780634f1ef286146104745780635256dbbf1461049057806352d1902d146104b85780635462870d146104e2578063567e98f91461050c5761027c565b806330e3f8f81161024457806330e3f8f81461035057806333244c2c1461037a57806339518b5e146103a45780633a71a9e4146103ce5780633f3b3b27146103f857806344490ff4146104225761027c565b806301934a831461028057806311eac855146102aa578063188e07b9146102d45780632765df7a146102fe5780633070fbf814610326575b5f80fd5b34801561028b575f80fd5b506102946109fe565b6040516102a1919061376b565b60405180910390f35b3480156102b5575f80fd5b506102be610a04565b6040516102cb91906137fe565b60405180910390f35b3480156102df575f80fd5b506102e8610a27565b6040516102f5919061376b565b60405180910390f35b348015610309575f80fd5b50610324600480360381019061031f9190613852565b610a2d565b005b348015610331575f80fd5b5061033a610b08565b604051610347919061389d565b60405180910390f35b34801561035b575f80fd5b50610364610b2d565b60405161037191906138d0565b60405180910390f35b348015610385575f80fd5b5061038e610b40565b60405161039b919061376b565b60405180910390f35b3480156103af575f80fd5b506103b8610b46565b6040516103c5919061376b565b60405180910390f35b3480156103d9575f80fd5b506103e2610b4c565b6040516103ef919061376b565b60405180910390f35b348015610403575f80fd5b5061040c610b52565b604051610419919061376b565b60405180910390f35b34801561042d575f80fd5b50610436610b58565b604051610443919061376b565b60405180910390f35b348015610457575f80fd5b50610472600480360381019061046d919061394a565b610b5e565b005b61048e60048036038101906104899190613af7565b610cee565b005b34801561049b575f80fd5b506104b660048036038101906104b19190613852565b610d0d565b005b3480156104c3575f80fd5b506104cc610e90565b6040516104d99190613b69565b60405180910390f35b3480156104ed575f80fd5b506104f6610ec1565b604051610503919061389d565b60405180910390f35b348015610517575f80fd5b50610520610ee6565b60405161052d919061376b565b60405180910390f35b348015610541575f80fd5b5061055c60048036038101906105579190613b82565b610eec565b005b348015610569575f80fd5b50610572610fd5565b005b34801561057f575f80fd5b5061059a60048036038101906105959190613852565b61103b565b005b3480156105a7575f80fd5b506105c260048036038101906105bd919061394a565b611350565b6040516105d0929190613c20565b60405180910390f35b3480156105e4575f80fd5b506105ed611384565b005b3480156105fa575f80fd5b5061061560048036038101906106109190613852565b611397565b005b348015610622575f80fd5b5061063d60048036038101906106389190613852565b611791565b005b34801561064a575f80fd5b5061066560048036038101906106609190613852565b611914565b005b348015610672575f80fd5b5061068d60048036038101906106889190613852565b6119a5565b005b34801561069a575f80fd5b506106b560048036038101906106b09190613852565b611a36565b005b3480156106c2575f80fd5b506106dd60048036038101906106d89190613b82565b611cf1565b005b3480156106ea575f80fd5b506106f3611eb7565b604051610700919061389d565b60405180910390f35b348015610714575f80fd5b5061071d611eec565b60405161072a919061376b565b60405180910390f35b34801561073e575f80fd5b50610747611ef2565b604051610754919061376b565b60405180910390f35b348015610768575f80fd5b50610783600480360381019061077e9190613852565b611ef8565b604051610790919061389d565b60405180910390f35b3480156107a4575f80fd5b506107ad611f28565b6040516107ba9190613ca0565b60405180910390f35b3480156107ce575f80fd5b506107e960048036038101906107e49190613852565b611f61565b005b3480156107f6575f80fd5b506107ff611ff2565b60405161080c919061376b565b60405180910390f35b348015610820575f80fd5b5061083b60048036038101906108369190613852565b611ff8565b005b348015610848575f80fd5b50610863600480360381019061085e9190613cc0565b612089565b60405161087596959493929190613ceb565b60405180910390f35b348015610889575f80fd5b506108a4600480360381019061089f9190613d4a565b6120cd565b005b3480156108b1575f80fd5b506108cc60048036038101906108c79190613cc0565b612366565b6040516108d991906138d0565b60405180910390f35b3480156108ed575f80fd5b506108f6612383565b604051610903919061376b565b60405180910390f35b348015610917575f80fd5b50610932600480360381019061092d9190613cc0565b612389565b005b34801561093f575f80fd5b5061095a60048036038101906109559190613dc4565b61249e565b005b348015610967575f80fd5b506109706126ba565b005b34801561097d575f80fd5b5061099860048036038101906109939190613b82565b612a9e565b005b3480156109a5575f80fd5b506109c060048036038101906109bb9190613cc0565b612b4e565b005b3480156109cd575f80fd5b506109e860048036038101906109e39190613852565b612bd2565b6040516109f5919061376b565b60405180910390f35b60085481565b5f8054906101000a900473ffffffffffffffffffffffffffffffffffffffff1681565b60015481565b610a35612be7565b5f8111610a7957806040517fcdbc6335000000000000000000000000000000000000000000000000000000008152600401610a70919061376b565b60405180910390fd5b8060115f600e5481526020019081526020015f2081905550600e5f815480929190610aa390613e2f565b91905055507fe1976e16ed8ce8e740235978fbe69b27d5eea683b2e017bb0bd2fabb33294b3f600e5f815480929190610adb90613e76565b9190505582612710610aed9190613e9d565b83604051610afd93929190613ed0565b60405180910390a150565b600d5f9054906101000a900473ffffffffffffffffffffffffffffffffffffffff1681565b600960149054906101000a900460ff1681565b60045481565b600b5481565b60075481565b600c5481565b60055481565b600d5f9054906101000a900473ffffffffffffffffffffffffffffffffffffffff1673ffffffffffffffffffffffffffffffffffffffff163373ffffffffffffffffffffffffffffffffffffffff1614610bed576040517f08c379a0000000000000000000000000000000000000000000000000000000008152600401610be490613f75565b60405180910390fd5b5f600a5403610c3557600a546040517f71540007000000000000000000000000000000000000000000000000000000008152600401610c2c919061376b565b60405180910390fd5b600960149054906101000a900460ff16610caa57600b544210610c665742600c81905550610c616126ba565b610ca5565b600b546040517f54593e75000000000000000000000000000000000000000000000000000000008152600401610c9c919061376b565b60405180910390fd5b610cba565b42600c81905550610cb96126ba565b5b600960149054906101000a900460ff16610cea576001600960146101000a81548160ff0219169083151502179055505b5050565b610cf6612c6e565b610cff82612d54565b610d098282612d5f565b5050565b610d15612be7565b5f8111610d5957806040517f2ff47830000000000000000000000000000000000000000000000000000000008152600401610d50919061376b565b60405180910390fd5b8060015f828254610d6a9190613f93565b925050819055505f805f9054906101000a900473ffffffffffffffffffffffffffffffffffffffff1673ffffffffffffffffffffffffffffffffffffffff166323b872dd3330856040518463ffffffff1660e01b8152600401610dcf93929190613fc6565b6020604051808303815f875af1158015610deb573d5f803e3d5ffd5b505050506040513d601f19601f82011682018060405250810190610e0f919061400f565b905080610e5357806040517fd85d3cef000000000000000000000000000000000000000000000000000000008152600401610e4a91906138d0565b60405180910390fd5b7fa9f166643ec132a11638e74e3c3a78d4ae278fcbf92998240e0e97676f54e404600154604051610e84919061376b565b60405180910390a15050565b5f610e99612e7d565b7f360894a13ba1a3210667c828492db98dca3e2076cc3735a920a3ca505d382bbc5f1b905090565b60095f9054906101000a900473ffffffffffffffffffffffffffffffffffffffff1681565b60035481565b610ef4612be7565b5f8111610f3857806040517f71540007000000000000000000000000000000000000000000000000000000008152600401610f2f919061376b565b60405180910390fd5b42821015610f7d57816040517f54593e75000000000000000000000000000000000000000000000000000000008152600401610f74919061376b565b60405180910390fd5b80600a8190555081600b8190555042600c819055507f2b5090e035d3026f5448298c9adc68db8bbc1b26a8af5c81b2b2a9fc07ca4a0033600a54600c54604051610fc99392919061403a565b60405180910390a15050565b610fdd612be7565b5f600a819055505f600960146101000a81548160ff0219169083151502179055507f3b68dc4e210c46d3622293f2b941cdfde795bb6e17286bb289ba05a6a3b5541f33600a5460405161103192919061406f565b60405180910390a1565b600960159054906101000a900460ff161561108b576040517f08c379a0000000000000000000000000000000000000000000000000000000008152600401611082906140e0565b60405180910390fd5b6001600960156101000a81548160ff0219169083151502179055505f81116110ea57806040517f2ff478300000000000000000000000000000000000000000000000000000000081526004016110e1919061376b565b60405180910390fd5b60125f3373ffffffffffffffffffffffffffffffffffffffff1673ffffffffffffffffffffffffffffffffffffffff1681526020019081526020015f206001015481111561116d576040517f08c379a000000000000000000000000000000000000000000000000000000000815260040161116490614148565b60405180910390fd5b8060125f3373ffffffffffffffffffffffffffffffffffffffff1673ffffffffffffffffffffffffffffffffffffffff1681526020019081526020015f206001015f8282546111bc9190613e9d565b925050819055508060125f3373ffffffffffffffffffffffffffffffffffffffff1673ffffffffffffffffffffffffffffffffffffffff1681526020019081526020015f206002015f8282546112129190613f93565b925050819055505f805f9054906101000a900473ffffffffffffffffffffffffffffffffffffffff1673ffffffffffffffffffffffffffffffffffffffff1663a9059cbb33846040518363ffffffff1660e01b815260040161127592919061406f565b6020604051808303815f875af1158015611291573d5f803e3d5ffd5b505050506040513d601f19601f820116820180604052508101906112b5919061400f565b9050806112f957806040517fd85d3cef0000000000000000000000000000000000000000000000000000000081526004016112f091906138d0565b60405180910390fd5b7f884edad9ce6fa2440d8a54cc123490eb96d2768479d49ff9c7366125a9424364338360405161132a92919061406f565b60405180910390a1505f600960156101000a81548160ff02191690831515021790555050565b5f60605f600a54600c54426113659190613e9d565b1190508060405180602001604052805f81525092509250509250929050565b61138c612be7565b6113955f612f04565b565b5f81116113db57806040517f2ff478300000000000000000000000000000000000000000000000000000000081526004016113d2919061376b565b60405180910390fd5b60125f3373ffffffffffffffffffffffffffffffffffffffff1673ffffffffffffffffffffffffffffffffffffffff1681526020019081526020015f205f015f9054906101000a900460ff16156114b45760125f3373ffffffffffffffffffffffffffffffffffffffff1673ffffffffffffffffffffffffffffffffffffffff1681526020019081526020015f205f015f9054906101000a900460ff166040517f6fa5c3c00000000000000000000000000000000000000000000000000000000081526004016114ab91906138d0565b60405180910390fd5b8060125f3373ffffffffffffffffffffffffffffffffffffffff1673ffffffffffffffffffffffffffffffffffffffff1681526020019081526020015f206005015f8282546115039190613f93565b92505081905550600f5f3373ffffffffffffffffffffffffffffffffffffffff1673ffffffffffffffffffffffffffffffffffffffff1681526020019081526020015f205f9054906101000a900460ff16611616573360105f60085481526020019081526020015f205f6101000a81548173ffffffffffffffffffffffffffffffffffffffff021916908373ffffffffffffffffffffffffffffffffffffffff1602179055506001600f5f3373ffffffffffffffffffffffffffffffffffffffff1673ffffffffffffffffffffffffffffffffffffffff1681526020019081526020015f205f6101000a81548160ff02191690831515021790555060085f81548092919061161090613e2f565b91905055505b8060035f8282546116279190613f93565b925050819055505f805f9054906101000a900473ffffffffffffffffffffffffffffffffffffffff1673ffffffffffffffffffffffffffffffffffffffff166323b872dd3360095f9054906101000a900473ffffffffffffffffffffffffffffffffffffffff16856040518463ffffffff1660e01b81526004016116ad93929190613fc6565b6020604051808303815f875af11580156116c9573d5f803e3d5ffd5b505050506040513d601f19601f820116820180604052508101906116ed919061400f565b90508061173157806040517fd85d3cef00000000000000000000000000000000000000000000000000000000815260040161172891906138d0565b60405180910390fd5b7f14ee34c24635186d212f515353dadae9c226529edef2d1fcf5504cb33b5c25ab3360095f9054906101000a900473ffffffffffffffffffffffffffffffffffffffff168460405161178593929190613fc6565b60405180910390a15050565b611799612be7565b5f81116117dd57806040517f2ff478300000000000000000000000000000000000000000000000000000000081526004016117d4919061376b565b60405180910390fd5b8060025f8282546117ee9190613f93565b925050819055505f805f9054906101000a900473ffffffffffffffffffffffffffffffffffffffff1673ffffffffffffffffffffffffffffffffffffffff166323b872dd3330856040518463ffffffff1660e01b815260040161185393929190613fc6565b6020604051808303815f875af115801561186f573d5f803e3d5ffd5b505050506040513d601f19601f82011682018060405250810190611893919061400f565b9050806118d757806040517fd85d3cef0000000000000000000000000000000000000000000000000000000081526004016118ce91906138d0565b60405180910390fd5b7f73834e1d1ee73ba659470a3603b888903853d3a3c9fda34e71c093a0e35cab94600254604051611908919061376b565b60405180910390a15050565b61191c612be7565b5f811161196057806040517fcdbc6335000000000000000000000000000000000000000000000000000000008152600401611957919061376b565b60405180910390fd5b806007819055507fb5671393c7c6980552e50a31e778921eb17d764c2e98fbf4d44fff524712def93360075460405161199a92919061406f565b60405180910390a150565b6119ad612be7565b5f81116119f157806040517fcdbc63350000000000000000000000000000000000000000000000000000000081526004016119e8919061376b565b60405180910390fd5b806004819055507fb5671393c7c6980552e50a31e778921eb17d764c2e98fbf4d44fff524712def933600454604051611a2b92919061406f565b60405180910390a150565b5f8111611a7a57806040517f2ff47830000000000000000000000000000000000000000000000000000000008152600401611a71919061376b565b60405180910390fd5b60125f3373ffffffffffffffffffffffffffffffffffffffff1673ffffffffffffffffffffffffffffffffffffffff1681526020019081526020015f205f015f9054906101000a900460ff1615611b535760125f3373ffffffffffffffffffffffffffffffffffffffff1673ffffffffffffffffffffffffffffffffffffffff1681526020019081526020015f205f015f9054906101000a900460ff166040517f6fa5c3c0000000000000000000000000000000000000000000000000000000008152600401611b4a91906138d0565b60405180910390fd5b8060125f3373ffffffffffffffffffffffffffffffffffffffff1673ffffffffffffffffffffffffffffffffffffffff1681526020019081526020015f206001015411611bd757806040517f31b6e358000000000000000000000000000000000000000000000000000000008152600401611bce919061376b565b60405180910390fd5b8060125f3373ffffffffffffffffffffffffffffffffffffffff1673ffffffffffffffffffffffffffffffffffffffff1681526020019081526020015f206001015f828254611c269190613e9d565b925050819055508060125f3373ffffffffffffffffffffffffffffffffffffffff1673ffffffffffffffffffffffffffffffffffffffff1681526020019081526020015f206005015f828254611c7c9190613f93565b925050819055508060025f828254611c949190613f93565b925050819055508060035f828254611cac9190613f93565b925050819055507f14ee34c24635186d212f515353dadae9c226529edef2d1fcf5504cb33b5c25ab333083604051611ce693929190613fc6565b60405180910390a150565b5f8211611d3557816040517f2ff47830000000000000000000000000000000000000000000000000000000008152600401611d2c919061376b565b60405180910390fd5b600e54811115611d7c57806040517f222a50f3000000000000000000000000000000000000000000000000000000008152600401611d73919061376b565b60405180910390fd5b611d978260115f8481526020019081526020015f2054612fd5565b5f805f9054906101000a900473ffffffffffffffffffffffffffffffffffffffff1673ffffffffffffffffffffffffffffffffffffffff166323b872dd3330866040518463ffffffff1660e01b8152600401611df593929190613fc6565b6020604051808303815f875af1158015611e11573d5f803e3d5ffd5b505050506040513d601f19601f82011682018060405250810190611e35919061400f565b905080611e7957806040517fd85d3cef000000000000000000000000000000000000000000000000000000008152600401611e7091906138d0565b60405180910390fd5b7fa89b69c5958ec1ccf0df0de746a8708f5b6a6b429430129f16f46f44b319c9008383604051611eaa929190614166565b60405180910390a1505050565b5f80611ec1613037565b9050805f015f9054906101000a900473ffffffffffffffffffffffffffffffffffffffff1691505090565b600a5481565b600e5481565b6010602052805f5260405f205f915054906101000a900473ffffffffffffffffffffffffffffffffffffffff1681565b6040518060400160405280600581526020017f352e302e3000000000000000000000000000000000000000000000000000000081525081565b611f69612be7565b5f8111611fad57806040517fcdbc6335000000000000000000000000000000000000000000000000000000008152600401611fa4919061376b565b60405180910390fd5b806006819055507fb5671393c7c6980552e50a31e778921eb17d764c2e98fbf4d44fff524712def933600654604051611fe792919061406f565b60405180910390a150565b60025481565b612000612be7565b5f811161204457806040517fcdbc633500000000000000000000000000000000000000000000000000000000815260040161203b919061376b565b60405180910390fd5b806005819055507fb5671393c7c6980552e50a31e778921eb17d764c2e98fbf4d44fff524712def93360055460405161207e92919061406f565b60405180910390a150565b6012602052805f5260405f205f91509050805f015f9054906101000a900460ff16908060010154908060020154908060030154908060040154908060050154905086565b5f6120d661305e565b90505f815f0160089054906101000a900460ff161590505f825f015f9054906101000a900467ffffffffffffffff1690505f808267ffffffffffffffff1614801561211e5750825b90505f60018367ffffffffffffffff1614801561215157505f3073ffffffffffffffffffffffffffffffffffffffff163b145b90508115801561215f575080155b15612196576040517ff92ee8a900000000000000000000000000000000000000000000000000000000815260040160405180910390fd5b6001855f015f6101000a81548167ffffffffffffffff021916908367ffffffffffffffff16021790555083156121e3576001855f0160086101000a81548160ff0219169083151502179055505b6121ec88613085565b6121f4613099565b865f806101000a81548173ffffffffffffffffffffffffffffffffffffffff021916908373ffffffffffffffffffffffffffffffffffffffff1602179055506113ec60115f8081526020019081526020015f2081905550611d4c60115f600181526020019081526020015f2081905550610dac60115f600281526020019081526020015f2081905550611e1460115f600381526020019081526020015f2081905550611388600481905550611d4c6005819055506105dc6006819055506103e86007819055506004600e819055508560095f6101000a81548173ffffffffffffffffffffffffffffffffffffffff021916908373ffffffffffffffffffffffffffffffffffffffff160217905550831561235c575f855f0160086101000a81548160ff0219169083151502179055507fc7f505b2f371ae2175ee4913f4499e1f2633a7b5936321eed1cdaeb6115181d2600160405161235391906141d9565b60405180910390a15b5050505050505050565b600f602052805f5260405f205f915054906101000a900460ff1681565b60065481565b612391612be7565b5f73ffffffffffffffffffffffffffffffffffffffff168173ffffffffffffffffffffffffffffffffffffffff160361240157806040517fe4cfa94d0000000000000000000000000000000000000000000000000000000081526004016123f8919061389d565b60405180910390fd5b80600d5f6101000a81548173ffffffffffffffffffffffffffffffffffffffff021916908373ffffffffffffffffffffffffffffffffffffffff1602179055507f75f91f3cecb8c46f20150f60f77a6e1f0de00776627692db82ef1960af84c33a33600d5f9054906101000a900473ffffffffffffffffffffffffffffffffffffffff166040516124939291906141f2565b60405180910390a150565b6124a6612be7565b5f73ffffffffffffffffffffffffffffffffffffffff168273ffffffffffffffffffffffffffffffffffffffff160361251657816040517fe4cfa94d00000000000000000000000000000000000000000000000000000000815260040161250d919061389d565b60405180910390fd5b600115158115151415801561252f57505f151581151514155b1561257157806040517f81ed1ae300000000000000000000000000000000000000000000000000000000815260040161256891906138d0565b60405180910390fd5b60011515811515036125d957600160125f8473ffffffffffffffffffffffffffffffffffffffff1673ffffffffffffffffffffffffffffffffffffffff1681526020019081526020015f205f015f6101000a81548160ff021916908315150217905550612630565b5f60125f8473ffffffffffffffffffffffffffffffffffffffff1673ffffffffffffffffffffffffffffffffffffffff1681526020019081526020015f205f015f6101000a81548160ff0219169083151502179055505b7f7a1655bc3160d3413bf1d5235e55be12e01b7e8bc2436a9bff09c3b4fa2421f1338360125f8673ffffffffffffffffffffffffffffffffffffffff1673ffffffffffffffffffffffffffffffffffffffff1681526020019081526020015f205f015f9054906101000a900460ff166040516126ae93929190614219565b60405180910390a15050565b5f805f6126c56130a3565b9250925092505f6002541180156126dd57505f600154115b61271c576040517f08c379a000000000000000000000000000000000000000000000000000000000815260040161271390614298565b60405180910390fd5b5f805f90505b600854811015612a585760125f60105f8481526020019081526020015f205f9054906101000a900473ffffffffffffffffffffffffffffffffffffffff1673ffffffffffffffffffffffffffffffffffffffff1673ffffffffffffffffffffffffffffffffffffffff1681526020019081526020015f205f015f9054906101000a900460ff16612a4b575f60035461271060125f60105f8781526020019081526020015f205f9054906101000a900473ffffffffffffffffffffffffffffffffffffffff1673ffffffffffffffffffffffffffffffffffffffff1673ffffffffffffffffffffffffffffffffffffffff1681526020019081526020015f206005015461282e91906142b6565b6128389190614324565b90505f612845868361329b565b90508060025f8282546128589190613e9d565b92505081905550808461286b9190613f93565b93508460015f82825461287e9190613e9d565b925050819055508460125f60105f8781526020019081526020015f205f9054906101000a900473ffffffffffffffffffffffffffffffffffffffff1673ffffffffffffffffffffffffffffffffffffffff1673ffffffffffffffffffffffffffffffffffffffff1681526020019081526020015f20600301819055508060125f60105f8781526020019081526020015f205f9054906101000a900473ffffffffffffffffffffffffffffffffffffffff1673ffffffffffffffffffffffffffffffffffffffff1673ffffffffffffffffffffffffffffffffffffffff1681526020019081526020015f20600401819055505f858261297c9190613f93565b90508060125f60105f8881526020019081526020015f205f9054906101000a900473ffffffffffffffffffffffffffffffffffffffff1673ffffffffffffffffffffffffffffffffffffffff1673ffffffffffffffffffffffffffffffffffffffff1681526020019081526020015f206001015f8282546129fd9190613f93565b9250508190555087851115612a47576040517f08c379a0000000000000000000000000000000000000000000000000000000008152600401612a3e9061439e565b60405180910390fd5b5050505b8080600101915050612722565b507fee826440768329b0c72f81331212ee31fcdac1ea79a248d24821e40c34e5802033600254600154604051612a909392919061403a565b60405180910390a150505050565b612aa6612be7565b5f8111612aea57806040517fcdbc6335000000000000000000000000000000000000000000000000000000008152600401612ae1919061376b565b60405180910390fd5b8060115f8481526020019081526020015f20819055507fb5671393c7c6980552e50a31e778921eb17d764c2e98fbf4d44fff524712def93360115f8581526020019081526020015f2054604051612b4292919061406f565b60405180910390a15050565b612b56612be7565b5f73ffffffffffffffffffffffffffffffffffffffff168173ffffffffffffffffffffffffffffffffffffffff1603612bc6575f6040517f1e4fbdf7000000000000000000000000000000000000000000000000000000008152600401612bbd919061389d565b60405180910390fd5b612bcf81612f04565b50565b6011602052805f5260405f205f915090505481565b612bef613346565b73ffffffffffffffffffffffffffffffffffffffff16612c0d611eb7565b73ffffffffffffffffffffffffffffffffffffffff1614612c6c57612c30613346565b6040517f118cdaa7000000000000000000000000000000000000000000000000000000008152600401612c63919061389d565b60405180910390fd5b565b7f000000000000000000000000000000000000000000000000000000000000000073ffffffffffffffffffffffffffffffffffffffff163073ffffffffffffffffffffffffffffffffffffffff161480612d1b57507f000000000000000000000000000000000000000000000000000000000000000073ffffffffffffffffffffffffffffffffffffffff16612d0261334d565b73ffffffffffffffffffffffffffffffffffffffff1614155b15612d52576040517fe07c8dba00000000000000000000000000000000000000000000000000000000815260040160405180910390fd5b565b612d5c612be7565b50565b8173ffffffffffffffffffffffffffffffffffffffff166352d1902d6040518163ffffffff1660e01b8152600401602060405180830381865afa925050508015612dc757506040513d601f19601f82011682018060405250810190612dc491906143e6565b60015b612e0857816040517f4c9c8ce3000000000000000000000000000000000000000000000000000000008152600401612dff919061389d565b60405180910390fd5b7f360894a13ba1a3210667c828492db98dca3e2076cc3735a920a3ca505d382bbc5f1b8114612e6e57806040517faa1d49a4000000000000000000000000000000000000000000000000000000008152600401612e659190613b69565b60405180910390fd5b612e7883836133a0565b505050565b7f000000000000000000000000000000000000000000000000000000000000000073ffffffffffffffffffffffffffffffffffffffff163073ffffffffffffffffffffffffffffffffffffffff1614612f02576040517fe07c8dba00000000000000000000000000000000000000000000000000000000815260040160405180910390fd5b565b5f612f0d613037565b90505f815f015f9054906101000a900473ffffffffffffffffffffffffffffffffffffffff16905082825f015f6101000a81548173ffffffffffffffffffffffffffffffffffffffff021916908373ffffffffffffffffffffffffffffffffffffffff1602179055508273ffffffffffffffffffffffffffffffffffffffff168173ffffffffffffffffffffffffffffffffffffffff167f8be0079c531659141344cd1fd0a4f28419497f9722a3daafe3b4186f6b6457e060405160405180910390a3505050565b5f81612710612fe49190613e9d565b90505f612ff1848361329b565b90505f612ffe858561329b565b90508160025f8282546130119190613f93565b925050819055508060015f8282546130299190613f93565b925050819055505050505050565b5f7f9016d09d72d40fdae2fd8ceac6b6234c7706214fd39c1cd1e609a0528c199300905090565b5f7ff0c57e16840df040f15088dc2f81fe391c3923bec73e23a9662efc9c229c6a00905090565b61308d613412565b61309681613452565b50565b6130a1613412565b565b5f805f806130b560025461138861329b565b90505f6130c48260055461329b565b90505f6130d38360065461329b565b90505f6130e28460075461329b565b90505f6130f360015460045461329b565b90505f60085411613139576040517f08c379a00000000000000000000000000000000000000000000000000000000081526004016131309061445b565b60405180910390fd5b5f600854826131489190614324565b905082846131569190613f93565b60025f8282546131669190613e9d565b925050819055508360015f82825461317e9190613f93565b925050819055505f805f9054906101000a900473ffffffffffffffffffffffffffffffffffffffff1673ffffffffffffffffffffffffffffffffffffffff1663a9059cbb60095f9054906101000a900473ffffffffffffffffffffffffffffffffffffffff16866040518363ffffffff1660e01b815260040161320292919061406f565b6020604051808303815f875af115801561321e573d5f803e3d5ffd5b505050506040513d601f19601f82011682018060405250810190613242919061400f565b90508061328657806040517fd85d3cef00000000000000000000000000000000000000000000000000000000815260040161327d91906138d0565b60405180910390fd5b86868399509950995050505050505050909192565b5f8083036132de576040517f08c379a00000000000000000000000000000000000000000000000000000000081526004016132d5906144e9565b60405180910390fd5b5f8203613320576040517f08c379a0000000000000000000000000000000000000000000000000000000008152600401613317906144e9565b60405180910390fd5b5f612710838561333091906142b6565b61333a9190614324565b90508091505092915050565b5f33905090565b5f6133797f360894a13ba1a3210667c828492db98dca3e2076cc3735a920a3ca505d382bbc5f1b6134d6565b5f015f9054906101000a900473ffffffffffffffffffffffffffffffffffffffff16905090565b6133a9826134df565b8173ffffffffffffffffffffffffffffffffffffffff167fbc7cd75a20ee27fd9adebab32041f755214dbc6bffa90cc0225b39da2e5c2d3b60405160405180910390a25f81511115613405576133ff82826135a8565b5061340e565b61340d613628565b5b5050565b61341a613664565b613450576040517fd7e6bcf800000000000000000000000000000000000000000000000000000000815260040160405180910390fd5b565b61345a613412565b5f73ffffffffffffffffffffffffffffffffffffffff168173ffffffffffffffffffffffffffffffffffffffff16036134ca575f6040517f1e4fbdf70000000000000000000000000000000000000000000000000000000081526004016134c1919061389d565b60405180910390fd5b6134d381612f04565b50565b5f819050919050565b5f8173ffffffffffffffffffffffffffffffffffffffff163b0361353a57806040517f4c9c8ce3000000000000000000000000000000000000000000000000000000008152600401613531919061389d565b60405180910390fd5b806135667f360894a13ba1a3210667c828492db98dca3e2076cc3735a920a3ca505d382bbc5f1b6134d6565b5f015f6101000a81548173ffffffffffffffffffffffffffffffffffffffff021916908373ffffffffffffffffffffffffffffffffffffffff16021790555050565b60605f808473ffffffffffffffffffffffffffffffffffffffff16846040516135d19190614541565b5f60405180830381855af49150503d805f8114613609576040519150601f19603f3d011682016040523d82523d5f602084013e61360e565b606091505b509150915061361e858383613682565b9250505092915050565b5f341115613662576040517fb398979f00000000000000000000000000000000000000000000000000000000815260040160405180910390fd5b565b5f61366d61305e565b5f0160089054906101000a900460ff16905090565b606082613697576136928261370f565b613707565b5f82511480156136bd57505f8473ffffffffffffffffffffffffffffffffffffffff163b145b156136ff57836040517f9996b3150000000000000000000000000000000000000000000000000000000081526004016136f6919061389d565b60405180910390fd5b819050613708565b5b9392505050565b5f815111156137215780518082602001fd5b6040517f1425ea4200000000000000000000000000000000000000000000000000000000815260040160405180910390fd5b5f819050919050565b61376581613753565b82525050565b5f60208201905061377e5f83018461375c565b92915050565b5f73ffffffffffffffffffffffffffffffffffffffff82169050919050565b5f819050919050565b5f6137c66137c16137bc84613784565b6137a3565b613784565b9050919050565b5f6137d7826137ac565b9050919050565b5f6137e8826137cd565b9050919050565b6137f8816137de565b82525050565b5f6020820190506138115f8301846137ef565b92915050565b5f604051905090565b5f80fd5b5f80fd5b61383181613753565b811461383b575f80fd5b50565b5f8135905061384c81613828565b92915050565b5f6020828403121561386757613866613820565b5b5f6138748482850161383e565b91505092915050565b5f61388782613784565b9050919050565b6138978161387d565b82525050565b5f6020820190506138b05f83018461388e565b92915050565b5f8115159050919050565b6138ca816138b6565b82525050565b5f6020820190506138e35f8301846138c1565b92915050565b5f80fd5b5f80fd5b5f80fd5b5f8083601f84011261390a576139096138e9565b5b8235905067ffffffffffffffff811115613927576139266138ed565b5b602083019150836001820283011115613943576139426138f1565b5b9250929050565b5f80602083850312156139605761395f613820565b5b5f83013567ffffffffffffffff81111561397d5761397c613824565b5b613989858286016138f5565b92509250509250929050565b61399e8161387d565b81146139a8575f80fd5b50565b5f813590506139b981613995565b92915050565b5f80fd5b5f601f19601f8301169050919050565b7f4e487b71000000000000000000000000000000000000000000000000000000005f52604160045260245ffd5b613a09826139c3565b810181811067ffffffffffffffff82111715613a2857613a276139d3565b5b80604052505050565b5f613a3a613817565b9050613a468282613a00565b919050565b5f67ffffffffffffffff821115613a6557613a646139d3565b5b613a6e826139c3565b9050602081019050919050565b828183375f83830152505050565b5f613a9b613a9684613a4b565b613a31565b905082815260208101848484011115613ab757613ab66139bf565b5b613ac2848285613a7b565b509392505050565b5f82601f830112613ade57613add6138e9565b5b8135613aee848260208601613a89565b91505092915050565b5f8060408385031215613b0d57613b0c613820565b5b5f613b1a858286016139ab565b925050602083013567ffffffffffffffff811115613b3b57613b3a613824565b5b613b4785828601613aca565b9150509250929050565b5f819050919050565b613b6381613b51565b82525050565b5f602082019050613b7c5f830184613b5a565b92915050565b5f8060408385031215613b9857613b97613820565b5b5f613ba58582860161383e565b9250506020613bb68582860161383e565b9150509250929050565b5f81519050919050565b5f82825260208201905092915050565b8281835e5f83830152505050565b5f613bf282613bc0565b613bfc8185613bca565b9350613c0c818560208601613bda565b613c15816139c3565b840191505092915050565b5f604082019050613c335f8301856138c1565b8181036020830152613c458184613be8565b90509392505050565b5f81519050919050565b5f82825260208201905092915050565b5f613c7282613c4e565b613c7c8185613c58565b9350613c8c818560208601613bda565b613c95816139c3565b840191505092915050565b5f6020820190508181035f830152613cb88184613c68565b905092915050565b5f60208284031215613cd557613cd4613820565b5b5f613ce2848285016139ab565b91505092915050565b5f60c082019050613cfe5f8301896138c1565b613d0b602083018861375c565b613d18604083018761375c565b613d25606083018661375c565b613d32608083018561375c565b613d3f60a083018461375c565b979650505050505050565b5f805f60608486031215613d6157613d60613820565b5b5f613d6e868287016139ab565b9350506020613d7f868287016139ab565b9250506040613d90868287016139ab565b9150509250925092565b613da3816138b6565b8114613dad575f80fd5b50565b5f81359050613dbe81613d9a565b92915050565b5f8060408385031215613dda57613dd9613820565b5b5f613de7858286016139ab565b9250506020613df885828601613db0565b9150509250929050565b7f4e487b71000000000000000000000000000000000000000000000000000000005f52601160045260245ffd5b5f613e3982613753565b91507fffffffffffffffffffffffffffffffffffffffffffffffffffffffffffffffff8203613e6b57613e6a613e02565b5b600182019050919050565b5f613e8082613753565b91505f8203613e9257613e91613e02565b5b600182039050919050565b5f613ea782613753565b9150613eb283613753565b9250828203905081811115613eca57613ec9613e02565b5b92915050565b5f606082019050613ee35f83018661375c565b613ef0602083018561375c565b613efd604083018461375c565b949350505050565b7f54686973206164647265737320646f6573206e6f742068617665207065726d695f8201527f7373696f6e20746f2063616c6c20706572666f726d55706b6565700000000000602082015250565b5f613f5f603b83613c58565b9150613f6a82613f05565b604082019050919050565b5f6020820190508181035f830152613f8c81613f53565b9050919050565b5f613f9d82613753565b9150613fa883613753565b9250828201905080821115613fc057613fbf613e02565b5b92915050565b5f606082019050613fd95f83018661388e565b613fe6602083018561388e565b613ff3604083018461375c565b949350505050565b5f8151905061400981613d9a565b92915050565b5f6020828403121561402457614023613820565b5b5f61403184828501613ffb565b91505092915050565b5f60608201905061404d5f83018661388e565b61405a602083018561375c565b614067604083018461375c565b949350505050565b5f6040820190506140825f83018561388e565b61408f602083018461375c565b9392505050565b7f5265656e7472616e637947756172643a207265656e7472616e742063616c6c005f82015250565b5f6140ca601f83613c58565b91506140d582614096565b602082019050919050565b5f6020820190508181035f8301526140f7816140be565b9050919050565b7f696e76616c6964205f616d6f756e7421000000000000000000000000000000005f82015250565b5f614132601083613c58565b915061413d826140fe565b602082019050919050565b5f6020820190508181035f83015261415f81614126565b9050919050565b5f6040820190506141795f83018561375c565b614186602083018461375c565b9392505050565b5f819050919050565b5f67ffffffffffffffff82169050919050565b5f6141c36141be6141b98461418d565b6137a3565b614196565b9050919050565b6141d3816141a9565b82525050565b5f6020820190506141ec5f8301846141ca565b92915050565b5f6040820190506142055f83018561388e565b614212602083018461388e565b9392505050565b5f60608201905061422c5f83018661388e565b614239602083018561388e565b61424660408301846138c1565b949350505050565b7f6e6f7420656e6f75676820616d6f756e740000000000000000000000000000005f82015250565b5f614282601183613c58565b915061428d8261424e565b602082019050919050565b5f6020820190508181035f8301526142af81614276565b9050919050565b5f6142c082613753565b91506142cb83613753565b92508282026142d981613753565b915082820484148315176142f0576142ef613e02565b5b5092915050565b7f4e487b71000000000000000000000000000000000000000000000000000000005f52601260045260245ffd5b5f61432e82613753565b915061433983613753565b925082614349576143486142f7565b5b828204905092915050565b7f416d6f756e742069732067726561746572207468656e203530250000000000005f82015250565b5f614388601a83613c58565b915061439382614354565b602082019050919050565b5f6020820190508181035f8301526143b58161437c565b9050919050565b6143c581613b51565b81146143cf575f80fd5b50565b5f815190506143e0816143bc565b92915050565b5f602082840312156143fb576143fa613820565b5b5f614408848285016143d2565b91505092915050565b7f6e6f2075736572732100000000000000000000000000000000000000000000005f82015250565b5f614445600983613c58565b915061445082614411565b602082019050919050565b5f6020820190508181035f83015261447281614439565b9050919050565b7f5f746f74616c5374616b65416d6f756e742063616e206e6f74206265207a65725f8201527f6f00000000000000000000000000000000000000000000000000000000000000602082015250565b5f6144d3602183613c58565b91506144de82614479565b604082019050919050565b5f6020820190508181035f830152614500816144c7565b9050919050565b5f81905092915050565b5f61451b82613bc0565b6145258185614507565b9350614535818560208601613bda565b80840191505092915050565b5f61454c8284614511565b91508190509291505056fea2646970667358221220f36150c7fb538b77d53823601c8489e67d6e39b440bcbace7dae24bf482151b964736f6c634300081a0033",
			"opcodes": "PUSH1 0xA0 PUSH1 0x40 MSTORE ADDRESS PUSH20 0xFFFFFFFFFFFFFFFFFFFFFFFFFFFFFFFFFFFFFFFF AND PUSH1 0x80 SWAP1 PUSH20 0xFFFFFFFFFFFFFFFFFFFFFFFFFFFFFFFFFFFFFFFF AND DUP2 MSTORE POP CALLVALUE DUP1 ISZERO PUSH2 0x42 JUMPI PUSH0 DUP1 REVERT JUMPDEST POP PUSH2 0x51 PUSH2 0x56 PUSH1 0x20 SHL PUSH1 0x20 SHR JUMP JUMPDEST PUSH2 0x1B6 JUMP JUMPDEST PUSH0 PUSH2 0x65 PUSH2 0x154 PUSH1 0x20 SHL PUSH1 0x20 SHR JUMP JUMPDEST SWAP1 POP DUP1 PUSH0 ADD PUSH1 0x8 SWAP1 SLOAD SWAP1 PUSH2 0x100 EXP SWAP1 DIV PUSH1 0xFF AND ISZERO PUSH2 0xAF JUMPI PUSH1 0x40 MLOAD PUSH32 0xF92EE8A900000000000000000000000000000000000000000000000000000000 DUP2 MSTORE PUSH1 0x4 ADD PUSH1 0x40 MLOAD DUP1 SWAP2 SUB SWAP1 REVERT JUMPDEST PUSH8 0xFFFFFFFFFFFFFFFF DUP1 AND DUP2 PUSH0 ADD PUSH0 SWAP1 SLOAD SWAP1 PUSH2 0x100 EXP SWAP1 DIV PUSH8 0xFFFFFFFFFFFFFFFF AND PUSH8 0xFFFFFFFFFFFFFFFF AND EQ PUSH2 0x151 JUMPI PUSH8 0xFFFFFFFFFFFFFFFF DUP2 PUSH0 ADD PUSH0 PUSH2 0x100 EXP DUP2 SLOAD DUP2 PUSH8 0xFFFFFFFFFFFFFFFF MUL NOT AND SWAP1 DUP4 PUSH8 0xFFFFFFFFFFFFFFFF AND MUL OR SWAP1 SSTORE POP PUSH32 0xC7F505B2F371AE2175EE4913F4499E1F2633A7B5936321EED1CDAEB6115181D2 PUSH8 0xFFFFFFFFFFFFFFFF PUSH1 0x40 MLOAD PUSH2 0x148 SWAP2 SWAP1 PUSH2 0x19D JUMP JUMPDEST PUSH1 0x40 MLOAD DUP1 SWAP2 SUB SWAP1 LOG1 JUMPDEST POP JUMP JUMPDEST PUSH0 PUSH32 0xF0C57E16840DF040F15088DC2F81FE391C3923BEC73E23A9662EFC9C229C6A00 SWAP1 POP SWAP1 JUMP JUMPDEST PUSH0 PUSH8 0xFFFFFFFFFFFFFFFF DUP3 AND SWAP1 POP SWAP2 SWAP1 POP JUMP JUMPDEST PUSH2 0x197 DUP2 PUSH2 0x17B JUMP JUMPDEST DUP3 MSTORE POP POP JUMP JUMPDEST PUSH0 PUSH1 0x20 DUP3 ADD SWAP1 POP PUSH2 0x1B0 PUSH0 DUP4 ADD DUP5 PUSH2 0x18E JUMP JUMPDEST SWAP3 SWAP2 POP POP JUMP JUMPDEST PUSH1 0x80 MLOAD PUSH2 0x458D PUSH2 0x1DC PUSH0 CODECOPY PUSH0 DUP2 DUP2 PUSH2 0x2C70 ADD MSTORE DUP2 DUP2 PUSH2 0x2CC5 ADD MSTORE PUSH2 0x2E7F ADD MSTORE PUSH2 0x458D PUSH0 RETURN INVALID PUSH1 0x80 PUSH1 0x40 MSTORE PUSH1 0x4 CALLDATASIZE LT PUSH2 0x27C JUMPI PUSH0 CALLDATALOAD PUSH1 0xE0 SHR DUP1 PUSH4 0x78FD078D GT PUSH2 0x14E JUMPI DUP1 PUSH4 0xB47FF951 GT PUSH2 0xC0 JUMPI DUP1 PUSH4 0xD777CC6D GT PUSH2 0x79 JUMPI DUP1 PUSH4 0xD777CC6D EQ PUSH2 0x90C JUMPI DUP1 PUSH4 0xD9B998B4 EQ PUSH2 0x934 JUMPI DUP1 PUSH4 0xE9C68E2C EQ PUSH2 0x95C JUMPI DUP1 PUSH4 0xED061067 EQ PUSH2 0x972 JUMPI DUP1 PUSH4 0xF2FDE38B EQ PUSH2 0x99A JUMPI DUP1 PUSH4 0xFF3D65D9 EQ PUSH2 0x9C2 JUMPI PUSH2 0x27C JUMP JUMPDEST DUP1 PUSH4 0xB47FF951 EQ PUSH2 0x7EB JUMPI DUP1 PUSH4 0xB9DAC1EB EQ PUSH2 0x815 JUMPI DUP1 PUSH4 0xBCCBC36C EQ PUSH2 0x83D JUMPI DUP1 PUSH4 0xC0C53B8B EQ PUSH2 0x87E JUMPI DUP1 PUSH4 0xC7FD5BF0 EQ PUSH2 0x8A6 JUMPI DUP1 PUSH4 0xCE356A24 EQ PUSH2 0x8E2 JUMPI PUSH2 0x27C JUMP JUMPDEST DUP1 PUSH4 0x8DA5CB5B GT PUSH2 0x112 JUMPI DUP1 PUSH4 0x8DA5CB5B EQ PUSH2 0x6DF JUMPI DUP1 PUSH4 0x947A36FB EQ PUSH2 0x709 JUMPI DUP1 PUSH4 0x9C361E4E EQ PUSH2 0x733 JUMPI DUP1 PUSH4 0xA4F67B8B EQ PUSH2 0x75D JUMPI DUP1 PUSH4 0xAD3CB1CC EQ PUSH2 0x799 JUMPI DUP1 PUSH4 0xAD8E5EC4 EQ PUSH2 0x7C3 JUMPI PUSH2 0x27C JUMP JUMPDEST DUP1 PUSH4 0x78FD078D EQ PUSH2 0x617 JUMPI DUP1 PUSH4 0x7F111E60 EQ PUSH2 0x63F JUMPI DUP1 PUSH4 0x7F70C5E7 EQ PUSH2 0x667 JUMPI DUP1 PUSH4 0x7FFE4D93 EQ PUSH2 0x68F JUMPI DUP1 PUSH4 0x85F45250 EQ PUSH2 0x6B7 JUMPI PUSH2 0x27C JUMP JUMPDEST DUP1 PUSH4 0x4585E33B GT PUSH2 0x1F2 JUMPI DUP1 PUSH4 0x5F17E616 GT PUSH2 0x1AB JUMPI DUP1 PUSH4 0x5F17E616 EQ PUSH2 0x536 JUMPI DUP1 PUSH4 0x6626B26D EQ PUSH2 0x55E JUMPI DUP1 PUSH4 0x67976974 EQ PUSH2 0x574 JUMPI DUP1 PUSH4 0x6E04FF0D EQ PUSH2 0x59C JUMPI DUP1 PUSH4 0x715018A6 EQ PUSH2 0x5D9 JUMPI DUP1 PUSH4 0x7547C7A3 EQ PUSH2 0x5EF JUMPI PUSH2 0x27C JUMP JUMPDEST DUP1 PUSH4 0x4585E33B EQ PUSH2 0x44C JUMPI DUP1 PUSH4 0x4F1EF286 EQ PUSH2 0x474 JUMPI DUP1 PUSH4 0x5256DBBF EQ PUSH2 0x490 JUMPI DUP1 PUSH4 0x52D1902D EQ PUSH2 0x4B8 JUMPI DUP1 PUSH4 0x5462870D EQ PUSH2 0x4E2 JUMPI DUP1 PUSH4 0x567E98F9 EQ PUSH2 0x50C JUMPI PUSH2 0x27C JUMP JUMPDEST DUP1 PUSH4 0x30E3F8F8 GT PUSH2 0x244 JUMPI DUP1 PUSH4 0x30E3F8F8 EQ PUSH2 0x350 JUMPI DUP1 PUSH4 0x33244C2C EQ PUSH2 0x37A JUMPI DUP1 PUSH4 0x39518B5E EQ PUSH2 0x3A4 JUMPI DUP1 PUSH4 0x3A71A9E4 EQ PUSH2 0x3CE JUMPI DUP1 PUSH4 0x3F3B3B27 EQ PUSH2 0x3F8 JUMPI DUP1 PUSH4 0x44490FF4 EQ PUSH2 0x422 JUMPI PUSH2 0x27C JUMP JUMPDEST DUP1 PUSH4 0x1934A83 EQ PUSH2 0x280 JUMPI DUP1 PUSH4 0x11EAC855 EQ PUSH2 0x2AA JUMPI DUP1 PUSH4 0x188E07B9 EQ PUSH2 0x2D4 JUMPI DUP1 PUSH4 0x2765DF7A EQ PUSH2 0x2FE JUMPI DUP1 PUSH4 0x3070FBF8 EQ PUSH2 0x326 JUMPI JUMPDEST PUSH0 DUP1 REVERT JUMPDEST CALLVALUE DUP1 ISZERO PUSH2 0x28B JUMPI PUSH0 DUP1 REVERT JUMPDEST POP PUSH2 0x294 PUSH2 0x9FE JUMP JUMPDEST PUSH1 0x40 MLOAD PUSH2 0x2A1 SWAP2 SWAP1 PUSH2 0x376B JUMP JUMPDEST PUSH1 0x40 MLOAD DUP1 SWAP2 SUB SWAP1 RETURN JUMPDEST CALLVALUE DUP1 ISZERO PUSH2 0x2B5 JUMPI PUSH0 DUP1 REVERT JUMPDEST POP PUSH2 0x2BE PUSH2 0xA04 JUMP JUMPDEST PUSH1 0x40 MLOAD PUSH2 0x2CB SWAP2 SWAP1 PUSH2 0x37FE JUMP JUMPDEST PUSH1 0x40 MLOAD DUP1 SWAP2 SUB SWAP1 RETURN JUMPDEST CALLVALUE DUP1 ISZERO PUSH2 0x2DF JUMPI PUSH0 DUP1 REVERT JUMPDEST POP PUSH2 0x2E8 PUSH2 0xA27 JUMP JUMPDEST PUSH1 0x40 MLOAD PUSH2 0x2F5 SWAP2 SWAP1 PUSH2 0x376B JUMP JUMPDEST PUSH1 0x40 MLOAD DUP1 SWAP2 SUB SWAP1 RETURN JUMPDEST CALLVALUE DUP1 ISZERO PUSH2 0x309 JUMPI PUSH0 DUP1 REVERT JUMPDEST POP PUSH2 0x324 PUSH1 0x4 DUP1 CALLDATASIZE SUB DUP2 ADD SWAP1 PUSH2 0x31F SWAP2 SWAP1 PUSH2 0x3852 JUMP JUMPDEST PUSH2 0xA2D JUMP JUMPDEST STOP JUMPDEST CALLVALUE DUP1 ISZERO PUSH2 0x331 JUMPI PUSH0 DUP1 REVERT JUMPDEST POP PUSH2 0x33A PUSH2 0xB08 JUMP JUMPDEST PUSH1 0x40 MLOAD PUSH2 0x347 SWAP2 SWAP1 PUSH2 0x389D JUMP JUMPDEST PUSH1 0x40 MLOAD DUP1 SWAP2 SUB SWAP1 RETURN JUMPDEST CALLVALUE DUP1 ISZERO PUSH2 0x35B JUMPI PUSH0 DUP1 REVERT JUMPDEST POP PUSH2 0x364 PUSH2 0xB2D JUMP JUMPDEST PUSH1 0x40 MLOAD PUSH2 0x371 SWAP2 SWAP1 PUSH2 0x38D0 JUMP JUMPDEST PUSH1 0x40 MLOAD DUP1 SWAP2 SUB SWAP1 RETURN JUMPDEST CALLVALUE DUP1 ISZERO PUSH2 0x385 JUMPI PUSH0 DUP1 REVERT JUMPDEST POP PUSH2 0x38E PUSH2 0xB40 JUMP JUMPDEST PUSH1 0x40 MLOAD PUSH2 0x39B SWAP2 SWAP1 PUSH2 0x376B JUMP JUMPDEST PUSH1 0x40 MLOAD DUP1 SWAP2 SUB SWAP1 RETURN JUMPDEST CALLVALUE DUP1 ISZERO PUSH2 0x3AF JUMPI PUSH0 DUP1 REVERT JUMPDEST POP PUSH2 0x3B8 PUSH2 0xB46 JUMP JUMPDEST PUSH1 0x40 MLOAD PUSH2 0x3C5 SWAP2 SWAP1 PUSH2 0x376B JUMP JUMPDEST PUSH1 0x40 MLOAD DUP1 SWAP2 SUB SWAP1 RETURN JUMPDEST CALLVALUE DUP1 ISZERO PUSH2 0x3D9 JUMPI PUSH0 DUP1 REVERT JUMPDEST POP PUSH2 0x3E2 PUSH2 0xB4C JUMP JUMPDEST PUSH1 0x40 MLOAD PUSH2 0x3EF SWAP2 SWAP1 PUSH2 0x376B JUMP JUMPDEST PUSH1 0x40 MLOAD DUP1 SWAP2 SUB SWAP1 RETURN JUMPDEST CALLVALUE DUP1 ISZERO PUSH2 0x403 JUMPI PUSH0 DUP1 REVERT JUMPDEST POP PUSH2 0x40C PUSH2 0xB52 JUMP JUMPDEST PUSH1 0x40 MLOAD PUSH2 0x419 SWAP2 SWAP1 PUSH2 0x376B JUMP JUMPDEST PUSH1 0x40 MLOAD DUP1 SWAP2 SUB SWAP1 RETURN JUMPDEST CALLVALUE DUP1 ISZERO PUSH2 0x42D JUMPI PUSH0 DUP1 REVERT JUMPDEST POP PUSH2 0x436 PUSH2 0xB58 JUMP JUMPDEST PUSH1 0x40 MLOAD PUSH2 0x443 SWAP2 SWAP1 PUSH2 0x376B JUMP JUMPDEST PUSH1 0x40 MLOAD DUP1 SWAP2 SUB SWAP1 RETURN JUMPDEST CALLVALUE DUP1 ISZERO PUSH2 0x457 JUMPI PUSH0 DUP1 REVERT JUMPDEST POP PUSH2 0x472 PUSH1 0x4 DUP1 CALLDATASIZE SUB DUP2 ADD SWAP1 PUSH2 0x46D SWAP2 SWAP1 PUSH2 0x394A JUMP JUMPDEST PUSH2 0xB5E JUMP JUMPDEST STOP JUMPDEST PUSH2 0x48E PUSH1 0x4 DUP1 CALLDATASIZE SUB DUP2 ADD SWAP1 PUSH2 0x489 SWAP2 SWAP1 PUSH2 0x3AF7 JUMP JUMPDEST PUSH2 0xCEE JUMP JUMPDEST STOP JUMPDEST CALLVALUE DUP1 ISZERO PUSH2 0x49B JUMPI PUSH0 DUP1 REVERT JUMPDEST POP PUSH2 0x4B6 PUSH1 0x4 DUP1 CALLDATASIZE SUB DUP2 ADD SWAP1 PUSH2 0x4B1 SWAP2 SWAP1 PUSH2 0x3852 JUMP JUMPDEST PUSH2 0xD0D JUMP JUMPDEST STOP JUMPDEST CALLVALUE DUP1 ISZERO PUSH2 0x4C3 JUMPI PUSH0 DUP1 REVERT JUMPDEST POP PUSH2 0x4CC PUSH2 0xE90 JUMP JUMPDEST PUSH1 0x40 MLOAD PUSH2 0x4D9 SWAP2 SWAP1 PUSH2 0x3B69 JUMP JUMPDEST PUSH1 0x40 MLOAD DUP1 SWAP2 SUB SWAP1 RETURN JUMPDEST CALLVALUE DUP1 ISZERO PUSH2 0x4ED JUMPI PUSH0 DUP1 REVERT JUMPDEST POP PUSH2 0x4F6 PUSH2 0xEC1 JUMP JUMPDEST PUSH1 0x40 MLOAD PUSH2 0x503 SWAP2 SWAP1 PUSH2 0x389D JUMP JUMPDEST PUSH1 0x40 MLOAD DUP1 SWAP2 SUB SWAP1 RETURN JUMPDEST CALLVALUE DUP1 ISZERO PUSH2 0x517 JUMPI PUSH0 DUP1 REVERT JUMPDEST POP PUSH2 0x520 PUSH2 0xEE6 JUMP JUMPDEST PUSH1 0x40 MLOAD PUSH2 0x52D SWAP2 SWAP1 PUSH2 0x376B JUMP JUMPDEST PUSH1 0x40 MLOAD DUP1 SWAP2 SUB SWAP1 RETURN JUMPDEST CALLVALUE DUP1 ISZERO PUSH2 0x541 JUMPI PUSH0 DUP1 REVERT JUMPDEST POP PUSH2 0x55C PUSH1 0x4 DUP1 CALLDATASIZE SUB DUP2 ADD SWAP1 PUSH2 0x557 SWAP2 SWAP1 PUSH2 0x3B82 JUMP JUMPDEST PUSH2 0xEEC JUMP JUMPDEST STOP JUMPDEST CALLVALUE DUP1 ISZERO PUSH2 0x569 JUMPI PUSH0 DUP1 REVERT JUMPDEST POP PUSH2 0x572 PUSH2 0xFD5 JUMP JUMPDEST STOP JUMPDEST CALLVALUE DUP1 ISZERO PUSH2 0x57F JUMPI PUSH0 DUP1 REVERT JUMPDEST POP PUSH2 0x59A PUSH1 0x4 DUP1 CALLDATASIZE SUB DUP2 ADD SWAP1 PUSH2 0x595 SWAP2 SWAP1 PUSH2 0x3852 JUMP JUMPDEST PUSH2 0x103B JUMP JUMPDEST STOP JUMPDEST CALLVALUE DUP1 ISZERO PUSH2 0x5A7 JUMPI PUSH0 DUP1 REVERT JUMPDEST POP PUSH2 0x5C2 PUSH1 0x4 DUP1 CALLDATASIZE SUB DUP2 ADD SWAP1 PUSH2 0x5BD SWAP2 SWAP1 PUSH2 0x394A JUMP JUMPDEST PUSH2 0x1350 JUMP JUMPDEST PUSH1 0x40 MLOAD PUSH2 0x5D0 SWAP3 SWAP2 SWAP1 PUSH2 0x3C20 JUMP JUMPDEST PUSH1 0x40 MLOAD DUP1 SWAP2 SUB SWAP1 RETURN JUMPDEST CALLVALUE DUP1 ISZERO PUSH2 0x5E4 JUMPI PUSH0 DUP1 REVERT JUMPDEST POP PUSH2 0x5ED PUSH2 0x1384 JUMP JUMPDEST STOP JUMPDEST CALLVALUE DUP1 ISZERO PUSH2 0x5FA JUMPI PUSH0 DUP1 REVERT JUMPDEST POP PUSH2 0x615 PUSH1 0x4 DUP1 CALLDATASIZE SUB DUP2 ADD SWAP1 PUSH2 0x610 SWAP2 SWAP1 PUSH2 0x3852 JUMP JUMPDEST PUSH2 0x1397 JUMP JUMPDEST STOP JUMPDEST CALLVALUE DUP1 ISZERO PUSH2 0x622 JUMPI PUSH0 DUP1 REVERT JUMPDEST POP PUSH2 0x63D PUSH1 0x4 DUP1 CALLDATASIZE SUB DUP2 ADD SWAP1 PUSH2 0x638 SWAP2 SWAP1 PUSH2 0x3852 JUMP JUMPDEST PUSH2 0x1791 JUMP JUMPDEST STOP JUMPDEST CALLVALUE DUP1 ISZERO PUSH2 0x64A JUMPI PUSH0 DUP1 REVERT JUMPDEST POP PUSH2 0x665 PUSH1 0x4 DUP1 CALLDATASIZE SUB DUP2 ADD SWAP1 PUSH2 0x660 SWAP2 SWAP1 PUSH2 0x3852 JUMP JUMPDEST PUSH2 0x1914 JUMP JUMPDEST STOP JUMPDEST CALLVALUE DUP1 ISZERO PUSH2 0x672 JUMPI PUSH0 DUP1 REVERT JUMPDEST POP PUSH2 0x68D PUSH1 0x4 DUP1 CALLDATASIZE SUB DUP2 ADD SWAP1 PUSH2 0x688 SWAP2 SWAP1 PUSH2 0x3852 JUMP JUMPDEST PUSH2 0x19A5 JUMP JUMPDEST STOP JUMPDEST CALLVALUE DUP1 ISZERO PUSH2 0x69A JUMPI PUSH0 DUP1 REVERT JUMPDEST POP PUSH2 0x6B5 PUSH1 0x4 DUP1 CALLDATASIZE SUB DUP2 ADD SWAP1 PUSH2 0x6B0 SWAP2 SWAP1 PUSH2 0x3852 JUMP JUMPDEST PUSH2 0x1A36 JUMP JUMPDEST STOP JUMPDEST CALLVALUE DUP1 ISZERO PUSH2 0x6C2 JUMPI PUSH0 DUP1 REVERT JUMPDEST POP PUSH2 0x6DD PUSH1 0x4 DUP1 CALLDATASIZE SUB DUP2 ADD SWAP1 PUSH2 0x6D8 SWAP2 SWAP1 PUSH2 0x3B82 JUMP JUMPDEST PUSH2 0x1CF1 JUMP JUMPDEST STOP JUMPDEST CALLVALUE DUP1 ISZERO PUSH2 0x6EA JUMPI PUSH0 DUP1 REVERT JUMPDEST POP PUSH2 0x6F3 PUSH2 0x1EB7 JUMP JUMPDEST PUSH1 0x40 MLOAD PUSH2 0x700 SWAP2 SWAP1 PUSH2 0x389D JUMP JUMPDEST PUSH1 0x40 MLOAD DUP1 SWAP2 SUB SWAP1 RETURN JUMPDEST CALLVALUE DUP1 ISZERO PUSH2 0x714 JUMPI PUSH0 DUP1 REVERT JUMPDEST POP PUSH2 0x71D PUSH2 0x1EEC JUMP JUMPDEST PUSH1 0x40 MLOAD PUSH2 0x72A SWAP2 SWAP1 PUSH2 0x376B JUMP JUMPDEST PUSH1 0x40 MLOAD DUP1 SWAP2 SUB SWAP1 RETURN JUMPDEST CALLVALUE DUP1 ISZERO PUSH2 0x73E JUMPI PUSH0 DUP1 REVERT JUMPDEST POP PUSH2 0x747 PUSH2 0x1EF2 JUMP JUMPDEST PUSH1 0x40 MLOAD PUSH2 0x754 SWAP2 SWAP1 PUSH2 0x376B JUMP JUMPDEST PUSH1 0x40 MLOAD DUP1 SWAP2 SUB SWAP1 RETURN JUMPDEST CALLVALUE DUP1 ISZERO PUSH2 0x768 JUMPI PUSH0 DUP1 REVERT JUMPDEST POP PUSH2 0x783 PUSH1 0x4 DUP1 CALLDATASIZE SUB DUP2 ADD SWAP1 PUSH2 0x77E SWAP2 SWAP1 PUSH2 0x3852 JUMP JUMPDEST PUSH2 0x1EF8 JUMP JUMPDEST PUSH1 0x40 MLOAD PUSH2 0x790 SWAP2 SWAP1 PUSH2 0x389D JUMP JUMPDEST PUSH1 0x40 MLOAD DUP1 SWAP2 SUB SWAP1 RETURN JUMPDEST CALLVALUE DUP1 ISZERO PUSH2 0x7A4 JUMPI PUSH0 DUP1 REVERT JUMPDEST POP PUSH2 0x7AD PUSH2 0x1F28 JUMP JUMPDEST PUSH1 0x40 MLOAD PUSH2 0x7BA SWAP2 SWAP1 PUSH2 0x3CA0 JUMP JUMPDEST PUSH1 0x40 MLOAD DUP1 SWAP2 SUB SWAP1 RETURN JUMPDEST CALLVALUE DUP1 ISZERO PUSH2 0x7CE JUMPI PUSH0 DUP1 REVERT JUMPDEST POP PUSH2 0x7E9 PUSH1 0x4 DUP1 CALLDATASIZE SUB DUP2 ADD SWAP1 PUSH2 0x7E4 SWAP2 SWAP1 PUSH2 0x3852 JUMP JUMPDEST PUSH2 0x1F61 JUMP JUMPDEST STOP JUMPDEST CALLVALUE DUP1 ISZERO PUSH2 0x7F6 JUMPI PUSH0 DUP1 REVERT JUMPDEST POP PUSH2 0x7FF PUSH2 0x1FF2 JUMP JUMPDEST PUSH1 0x40 MLOAD PUSH2 0x80C SWAP2 SWAP1 PUSH2 0x376B JUMP JUMPDEST PUSH1 0x40 MLOAD DUP1 SWAP2 SUB SWAP1 RETURN JUMPDEST CALLVALUE DUP1 ISZERO PUSH2 0x820 JUMPI PUSH0 DUP1 REVERT JUMPDEST POP PUSH2 0x83B PUSH1 0x4 DUP1 CALLDATASIZE SUB DUP2 ADD SWAP1 PUSH2 0x836 SWAP2 SWAP1 PUSH2 0x3852 JUMP JUMPDEST PUSH2 0x1FF8 JUMP JUMPDEST STOP JUMPDEST CALLVALUE DUP1 ISZERO PUSH2 0x848 JUMPI PUSH0 DUP1 REVERT JUMPDEST POP PUSH2 0x863 PUSH1 0x4 DUP1 CALLDATASIZE SUB DUP2 ADD SWAP1 PUSH2 0x85E SWAP2 SWAP1 PUSH2 0x3CC0 JUMP JUMPDEST PUSH2 0x2089 JUMP JUMPDEST PUSH1 0x40 MLOAD PUSH2 0x875 SWAP7 SWAP6 SWAP5 SWAP4 SWAP3 SWAP2 SWAP1 PUSH2 0x3CEB JUMP JUMPDEST PUSH1 0x40 MLOAD DUP1 SWAP2 SUB SWAP1 RETURN JUMPDEST CALLVALUE DUP1 ISZERO PUSH2 0x889 JUMPI PUSH0 DUP1 REVERT JUMPDEST POP PUSH2 0x8A4 PUSH1 0x4 DUP1 CALLDATASIZE SUB DUP2 ADD SWAP1 PUSH2 0x89F SWAP2 SWAP1 PUSH2 0x3D4A JUMP JUMPDEST PUSH2 0x20CD JUMP JUMPDEST STOP JUMPDEST CALLVALUE DUP1 ISZERO PUSH2 0x8B1 JUMPI PUSH0 DUP1 REVERT JUMPDEST POP PUSH2 0x8CC PUSH1 0x4 DUP1 CALLDATASIZE SUB DUP2 ADD SWAP1 PUSH2 0x8C7 SWAP2 SWAP1 PUSH2 0x3CC0 JUMP JUMPDEST PUSH2 0x2366 JUMP JUMPDEST PUSH1 0x40 MLOAD PUSH2 0x8D9 SWAP2 SWAP1 PUSH2 0x38D0 JUMP JUMPDEST PUSH1 0x40 MLOAD DUP1 SWAP2 SUB SWAP1 RETURN JUMPDEST CALLVALUE DUP1 ISZERO PUSH2 0x8ED JUMPI PUSH0 DUP1 REVERT JUMPDEST POP PUSH2 0x8F6 PUSH2 0x2383 JUMP JUMPDEST PUSH1 0x40 MLOAD PUSH2 0x903 SWAP2 SWAP1 PUSH2 0x376B JUMP JUMPDEST PUSH1 0x40 MLOAD DUP1 SWAP2 SUB SWAP1 RETURN JUMPDEST CALLVALUE DUP1 ISZERO PUSH2 0x917 JUMPI PUSH0 DUP1 REVERT JUMPDEST POP PUSH2 0x932 PUSH1 0x4 DUP1 CALLDATASIZE SUB DUP2 ADD SWAP1 PUSH2 0x92D SWAP2 SWAP1 PUSH2 0x3CC0 JUMP JUMPDEST PUSH2 0x2389 JUMP JUMPDEST STOP JUMPDEST CALLVALUE DUP1 ISZERO PUSH2 0x93F JUMPI PUSH0 DUP1 REVERT JUMPDEST POP PUSH2 0x95A PUSH1 0x4 DUP1 CALLDATASIZE SUB DUP2 ADD SWAP1 PUSH2 0x955 SWAP2 SWAP1 PUSH2 0x3DC4 JUMP JUMPDEST PUSH2 0x249E JUMP JUMPDEST STOP JUMPDEST CALLVALUE DUP1 ISZERO PUSH2 0x967 JUMPI PUSH0 DUP1 REVERT JUMPDEST POP PUSH2 0x970 PUSH2 0x26BA JUMP JUMPDEST STOP JUMPDEST CALLVALUE DUP1 ISZERO PUSH2 0x97D JUMPI PUSH0 DUP1 REVERT JUMPDEST POP PUSH2 0x998 PUSH1 0x4 DUP1 CALLDATASIZE SUB DUP2 ADD SWAP1 PUSH2 0x993 SWAP2 SWAP1 PUSH2 0x3B82 JUMP JUMPDEST PUSH2 0x2A9E JUMP JUMPDEST STOP JUMPDEST CALLVALUE DUP1 ISZERO PUSH2 0x9A5 JUMPI PUSH0 DUP1 REVERT JUMPDEST POP PUSH2 0x9C0 PUSH1 0x4 DUP1 CALLDATASIZE SUB DUP2 ADD SWAP1 PUSH2 0x9BB SWAP2 SWAP1 PUSH2 0x3CC0 JUMP JUMPDEST PUSH2 0x2B4E JUMP JUMPDEST STOP JUMPDEST CALLVALUE DUP1 ISZERO PUSH2 0x9CD JUMPI PUSH0 DUP1 REVERT JUMPDEST POP PUSH2 0x9E8 PUSH1 0x4 DUP1 CALLDATASIZE SUB DUP2 ADD SWAP1 PUSH2 0x9E3 SWAP2 SWAP1 PUSH2 0x3852 JUMP JUMPDEST PUSH2 0x2BD2 JUMP JUMPDEST PUSH1 0x40 MLOAD PUSH2 0x9F5 SWAP2 SWAP1 PUSH2 0x376B JUMP JUMPDEST PUSH1 0x40 MLOAD DUP1 SWAP2 SUB SWAP1 RETURN JUMPDEST PUSH1 0x8 SLOAD DUP2 JUMP JUMPDEST PUSH0 DUP1 SLOAD SWAP1 PUSH2 0x100 EXP SWAP1 DIV PUSH20 0xFFFFFFFFFFFFFFFFFFFFFFFFFFFFFFFFFFFFFFFF AND DUP2 JUMP JUMPDEST PUSH1 0x1 SLOAD DUP2 JUMP JUMPDEST PUSH2 0xA35 PUSH2 0x2BE7 JUMP JUMPDEST PUSH0 DUP2 GT PUSH2 0xA79 JUMPI DUP1 PUSH1 0x40 MLOAD PUSH32 0xCDBC633500000000000000000000000000000000000000000000000000000000 DUP2 MSTORE PUSH1 0x4 ADD PUSH2 0xA70 SWAP2 SWAP1 PUSH2 0x376B JUMP JUMPDEST PUSH1 0x40 MLOAD DUP1 SWAP2 SUB SWAP1 REVERT JUMPDEST DUP1 PUSH1 0x11 PUSH0 PUSH1 0xE SLOAD DUP2 MSTORE PUSH1 0x20 ADD SWAP1 DUP2 MSTORE PUSH1 0x20 ADD PUSH0 KECCAK256 DUP2 SWAP1 SSTORE POP PUSH1 0xE PUSH0 DUP2 SLOAD DUP1 SWAP3 SWAP2 SWAP1 PUSH2 0xAA3 SWAP1 PUSH2 0x3E2F JUMP JUMPDEST SWAP2 SWAP1 POP SSTORE POP PUSH32 0xE1976E16ED8CE8E740235978FBE69B27D5EEA683B2E017BB0BD2FABB33294B3F PUSH1 0xE PUSH0 DUP2 SLOAD DUP1 SWAP3 SWAP2 SWAP1 PUSH2 0xADB SWAP1 PUSH2 0x3E76 JUMP JUMPDEST SWAP2 SWAP1 POP SSTORE DUP3 PUSH2 0x2710 PUSH2 0xAED SWAP2 SWAP1 PUSH2 0x3E9D JUMP JUMPDEST DUP4 PUSH1 0x40 MLOAD PUSH2 0xAFD SWAP4 SWAP3 SWAP2 SWAP1 PUSH2 0x3ED0 JUMP JUMPDEST PUSH1 0x40 MLOAD DUP1 SWAP2 SUB SWAP1 LOG1 POP JUMP JUMPDEST PUSH1 0xD PUSH0 SWAP1 SLOAD SWAP1 PUSH2 0x100 EXP SWAP1 DIV PUSH20 0xFFFFFFFFFFFFFFFFFFFFFFFFFFFFFFFFFFFFFFFF AND DUP2 JUMP JUMPDEST PUSH1 0x9 PUSH1 0x14 SWAP1 SLOAD SWAP1 PUSH2 0x100 EXP SWAP1 DIV PUSH1 0xFF AND DUP2 JUMP JUMPDEST PUSH1 0x4 SLOAD DUP2 JUMP JUMPDEST PUSH1 0xB SLOAD DUP2 JUMP JUMPDEST PUSH1 0x7 SLOAD DUP2 JUMP JUMPDEST PUSH1 0xC SLOAD DUP2 JUMP JUMPDEST PUSH1 0x5 SLOAD DUP2 JUMP JUMPDEST PUSH1 0xD PUSH0 SWAP1 SLOAD SWAP1 PUSH2 0x100 EXP SWAP1 DIV PUSH20 0xFFFFFFFFFFFFFFFFFFFFFFFFFFFFFFFFFFFFFFFF AND PUSH20 0xFFFFFFFFFFFFFFFFFFFFFFFFFFFFFFFFFFFFFFFF AND CALLER PUSH20 0xFFFFFFFFFFFFFFFFFFFFFFFFFFFFFFFFFFFFFFFF AND EQ PUSH2 0xBED JUMPI PUSH1 0x40 MLOAD PUSH32 0x8C379A000000000000000000000000000000000000000000000000000000000 DUP2 MSTORE PUSH1 0x4 ADD PUSH2 0xBE4 SWAP1 PUSH2 0x3F75 JUMP JUMPDEST PUSH1 0x40 MLOAD DUP1 SWAP2 SUB SWAP1 REVERT JUMPDEST PUSH0 PUSH1 0xA SLOAD SUB PUSH2 0xC35 JUMPI PUSH1 0xA SLOAD PUSH1 0x40 MLOAD PUSH32 0x7154000700000000000000000000000000000000000000000000000000000000 DUP2 MSTORE PUSH1 0x4 ADD PUSH2 0xC2C SWAP2 SWAP1 PUSH2 0x376B JUMP JUMPDEST PUSH1 0x40 MLOAD DUP1 SWAP2 SUB SWAP1 REVERT JUMPDEST PUSH1 0x9 PUSH1 0x14 SWAP1 SLOAD SWAP1 PUSH2 0x100 EXP SWAP1 DIV PUSH1 0xFF AND PUSH2 0xCAA JUMPI PUSH1 0xB SLOAD TIMESTAMP LT PUSH2 0xC66 JUMPI TIMESTAMP PUSH1 0xC DUP2 SWAP1 SSTORE POP PUSH2 0xC61 PUSH2 0x26BA JUMP JUMPDEST PUSH2 0xCA5 JUMP JUMPDEST PUSH1 0xB SLOAD PUSH1 0x40 MLOAD PUSH32 0x54593E7500000000000000000000000000000000000000000000000000000000 DUP2 MSTORE PUSH1 0x4 ADD PUSH2 0xC9C SWAP2 SWAP1 PUSH2 0x376B JUMP JUMPDEST PUSH1 0x40 MLOAD DUP1 SWAP2 SUB SWAP1 REVERT JUMPDEST PUSH2 0xCBA JUMP JUMPDEST TIMESTAMP PUSH1 0xC DUP2 SWAP1 SSTORE POP PUSH2 0xCB9 PUSH2 0x26BA JUMP JUMPDEST JUMPDEST PUSH1 0x9 PUSH1 0x14 SWAP1 SLOAD SWAP1 PUSH2 0x100 EXP SWAP1 DIV PUSH1 0xFF AND PUSH2 0xCEA JUMPI PUSH1 0x1 PUSH1 0x9 PUSH1 0x14 PUSH2 0x100 EXP DUP2 SLOAD DUP2 PUSH1 0xFF MUL NOT AND SWAP1 DUP4 ISZERO ISZERO MUL OR SWAP1 SSTORE POP JUMPDEST POP POP JUMP JUMPDEST PUSH2 0xCF6 PUSH2 0x2C6E JUMP JUMPDEST PUSH2 0xCFF DUP3 PUSH2 0x2D54 JUMP JUMPDEST PUSH2 0xD09 DUP3 DUP3 PUSH2 0x2D5F JUMP JUMPDEST POP POP JUMP JUMPDEST PUSH2 0xD15 PUSH2 0x2BE7 JUMP JUMPDEST PUSH0 DUP2 GT PUSH2 0xD59 JUMPI DUP1 PUSH1 0x40 MLOAD PUSH32 0x2FF4783000000000000000000000000000000000000000000000000000000000 DUP2 MSTORE PUSH1 0x4 ADD PUSH2 0xD50 SWAP2 SWAP1 PUSH2 0x376B JUMP JUMPDEST PUSH1 0x40 MLOAD DUP1 SWAP2 SUB SWAP1 REVERT JUMPDEST DUP1 PUSH1 0x1 PUSH0 DUP3 DUP3 SLOAD PUSH2 0xD6A SWAP2 SWAP1 PUSH2 0x3F93 JUMP JUMPDEST SWAP3 POP POP DUP2 SWAP1 SSTORE POP PUSH0 DUP1 PUSH0 SWAP1 SLOAD SWAP1 PUSH2 0x100 EXP SWAP1 DIV PUSH20 0xFFFFFFFFFFFFFFFFFFFFFFFFFFFFFFFFFFFFFFFF AND PUSH20 0xFFFFFFFFFFFFFFFFFFFFFFFFFFFFFFFFFFFFFFFF AND PUSH4 0x23B872DD CALLER ADDRESS DUP6 PUSH1 0x40 MLOAD DUP5 PUSH4 0xFFFFFFFF AND PUSH1 0xE0 SHL DUP2 MSTORE PUSH1 0x4 ADD PUSH2 0xDCF SWAP4 SWAP3 SWAP2 SWAP1 PUSH2 0x3FC6 JUMP JUMPDEST PUSH1 0x20 PUSH1 0x40 MLOAD DUP1 DUP4 SUB DUP2 PUSH0 DUP8 GAS CALL ISZERO DUP1 ISZERO PUSH2 0xDEB JUMPI RETURNDATASIZE PUSH0 DUP1 RETURNDATACOPY RETURNDATASIZE PUSH0 REVERT JUMPDEST POP POP POP POP PUSH1 0x40 MLOAD RETURNDATASIZE PUSH1 0x1F NOT PUSH1 0x1F DUP3 ADD AND DUP3 ADD DUP1 PUSH1 0x40 MSTORE POP DUP2 ADD SWAP1 PUSH2 0xE0F SWAP2 SWAP1 PUSH2 0x400F JUMP JUMPDEST SWAP1 POP DUP1 PUSH2 0xE53 JUMPI DUP1 PUSH1 0x40 MLOAD PUSH32 0xD85D3CEF00000000000000000000000000000000000000000000000000000000 DUP2 MSTORE PUSH1 0x4 ADD PUSH2 0xE4A SWAP2 SWAP1 PUSH2 0x38D0 JUMP JUMPDEST PUSH1 0x40 MLOAD DUP1 SWAP2 SUB SWAP1 REVERT JUMPDEST PUSH32 0xA9F166643EC132A11638E74E3C3A78D4AE278FCBF92998240E0E97676F54E404 PUSH1 0x1 SLOAD PUSH1 0x40 MLOAD PUSH2 0xE84 SWAP2 SWAP1 PUSH2 0x376B JUMP JUMPDEST PUSH1 0x40 MLOAD DUP1 SWAP2 SUB SWAP1 LOG1 POP POP JUMP JUMPDEST PUSH0 PUSH2 0xE99 PUSH2 0x2E7D JUMP JUMPDEST PUSH32 0x360894A13BA1A3210667C828492DB98DCA3E2076CC3735A920A3CA505D382BBC PUSH0 SHL SWAP1 POP SWAP1 JUMP JUMPDEST PUSH1 0x9 PUSH0 SWAP1 SLOAD SWAP1 PUSH2 0x100 EXP SWAP1 DIV PUSH20 0xFFFFFFFFFFFFFFFFFFFFFFFFFFFFFFFFFFFFFFFF AND DUP2 JUMP JUMPDEST PUSH1 0x3 SLOAD DUP2 JUMP JUMPDEST PUSH2 0xEF4 PUSH2 0x2BE7 JUMP JUMPDEST PUSH0 DUP2 GT PUSH2 0xF38 JUMPI DUP1 PUSH1 0x40 MLOAD PUSH32 0x7154000700000000000000000000000000000000000000000000000000000000 DUP2 MSTORE PUSH1 0x4 ADD PUSH2 0xF2F SWAP2 SWAP1 PUSH2 0x376B JUMP JUMPDEST PUSH1 0x40 MLOAD DUP1 SWAP2 SUB SWAP1 REVERT JUMPDEST TIMESTAMP DUP3 LT ISZERO PUSH2 0xF7D JUMPI DUP2 PUSH1 0x40 MLOAD PUSH32 0x54593E7500000000000000000000000000000000000000000000000000000000 DUP2 MSTORE PUSH1 0x4 ADD PUSH2 0xF74 SWAP2 SWAP1 PUSH2 0x376B JUMP JUMPDEST PUSH1 0x40 MLOAD DUP1 SWAP2 SUB SWAP1 REVERT JUMPDEST DUP1 PUSH1 0xA DUP2 SWAP1 SSTORE POP DUP2 PUSH1 0xB DUP2 SWAP1 SSTORE POP TIMESTAMP PUSH1 0xC DUP2 SWAP1 SSTORE POP PUSH32 0x2B5090E035D3026F5448298C9ADC68DB8BBC1B26A8AF5C81B2B2A9FC07CA4A00 CALLER PUSH1 0xA SLOAD PUSH1 0xC SLOAD PUSH1 0x40 MLOAD PUSH2 0xFC9 SWAP4 SWAP3 SWAP2 SWAP1 PUSH2 0x403A JUMP JUMPDEST PUSH1 0x40 MLOAD DUP1 SWAP2 SUB SWAP1 LOG1 POP POP JUMP JUMPDEST PUSH2 0xFDD PUSH2 0x2BE7 JUMP JUMPDEST PUSH0 PUSH1 0xA DUP2 SWAP1 SSTORE POP PUSH0 PUSH1 0x9 PUSH1 0x14 PUSH2 0x100 EXP DUP2 SLOAD DUP2 PUSH1 0xFF MUL NOT AND SWAP1 DUP4 ISZERO ISZERO MUL OR SWAP1 SSTORE POP PUSH32 0x3B68DC4E210C46D3622293F2B941CDFDE795BB6E17286BB289BA05A6A3B5541F CALLER PUSH1 0xA SLOAD PUSH1 0x40 MLOAD PUSH2 0x1031 SWAP3 SWAP2 SWAP1 PUSH2 0x406F JUMP JUMPDEST PUSH1 0x40 MLOAD DUP1 SWAP2 SUB SWAP1 LOG1 JUMP JUMPDEST PUSH1 0x9 PUSH1 0x15 SWAP1 SLOAD SWAP1 PUSH2 0x100 EXP SWAP1 DIV PUSH1 0xFF AND ISZERO PUSH2 0x108B JUMPI PUSH1 0x40 MLOAD PUSH32 0x8C379A000000000000000000000000000000000000000000000000000000000 DUP2 MSTORE PUSH1 0x4 ADD PUSH2 0x1082 SWAP1 PUSH2 0x40E0 JUMP JUMPDEST PUSH1 0x40 MLOAD DUP1 SWAP2 SUB SWAP1 REVERT JUMPDEST PUSH1 0x1 PUSH1 0x9 PUSH1 0x15 PUSH2 0x100 EXP DUP2 SLOAD DUP2 PUSH1 0xFF MUL NOT AND SWAP1 DUP4 ISZERO ISZERO MUL OR SWAP1 SSTORE POP PUSH0 DUP2 GT PUSH2 0x10EA JUMPI DUP1 PUSH1 0x40 MLOAD PUSH32 0x2FF4783000000000000000000000000000000000000000000000000000000000 DUP2 MSTORE PUSH1 0x4 ADD PUSH2 0x10E1 SWAP2 SWAP1 PUSH2 0x376B JUMP JUMPDEST PUSH1 0x40 MLOAD DUP1 SWAP2 SUB SWAP1 REVERT JUMPDEST PUSH1 0x12 PUSH0 CALLER PUSH20 0xFFFFFFFFFFFFFFFFFFFFFFFFFFFFFFFFFFFFFFFF AND PUSH20 0xFFFFFFFFFFFFFFFFFFFFFFFFFFFFFFFFFFFFFFFF AND DUP2 MSTORE PUSH1 0x20 ADD SWAP1 DUP2 MSTORE PUSH1 0x20 ADD PUSH0 KECCAK256 PUSH1 0x1 ADD SLOAD DUP2 GT ISZERO PUSH2 0x116D JUMPI PUSH1 0x40 MLOAD PUSH32 0x8C379A000000000000000000000000000000000000000000000000000000000 DUP2 MSTORE PUSH1 0x4 ADD PUSH2 0x1164 SWAP1 PUSH2 0x4148 JUMP JUMPDEST PUSH1 0x40 MLOAD DUP1 SWAP2 SUB SWAP1 REVERT JUMPDEST DUP1 PUSH1 0x12 PUSH0 CALLER PUSH20 0xFFFFFFFFFFFFFFFFFFFFFFFFFFFFFFFFFFFFFFFF AND PUSH20 0xFFFFFFFFFFFFFFFFFFFFFFFFFFFFFFFFFFFFFFFF AND DUP2 MSTORE PUSH1 0x20 ADD SWAP1 DUP2 MSTORE PUSH1 0x20 ADD PUSH0 KECCAK256 PUSH1 0x1 ADD PUSH0 DUP3 DUP3 SLOAD PUSH2 0x11BC SWAP2 SWAP1 PUSH2 0x3E9D JUMP JUMPDEST SWAP3 POP POP DUP2 SWAP1 SSTORE POP DUP1 PUSH1 0x12 PUSH0 CALLER PUSH20 0xFFFFFFFFFFFFFFFFFFFFFFFFFFFFFFFFFFFFFFFF AND PUSH20 0xFFFFFFFFFFFFFFFFFFFFFFFFFFFFFFFFFFFFFFFF AND DUP2 MSTORE PUSH1 0x20 ADD SWAP1 DUP2 MSTORE PUSH1 0x20 ADD PUSH0 KECCAK256 PUSH1 0x2 ADD PUSH0 DUP3 DUP3 SLOAD PUSH2 0x1212 SWAP2 SWAP1 PUSH2 0x3F93 JUMP JUMPDEST SWAP3 POP POP DUP2 SWAP1 SSTORE POP PUSH0 DUP1 PUSH0 SWAP1 SLOAD SWAP1 PUSH2 0x100 EXP SWAP1 DIV PUSH20 0xFFFFFFFFFFFFFFFFFFFFFFFFFFFFFFFFFFFFFFFF AND PUSH20 0xFFFFFFFFFFFFFFFFFFFFFFFFFFFFFFFFFFFFFFFF AND PUSH4 0xA9059CBB CALLER DUP5 PUSH1 0x40 MLOAD DUP4 PUSH4 0xFFFFFFFF AND PUSH1 0xE0 SHL DUP2 MSTORE PUSH1 0x4 ADD PUSH2 0x1275 SWAP3 SWAP2 SWAP1 PUSH2 0x406F JUMP JUMPDEST PUSH1 0x20 PUSH1 0x40 MLOAD DUP1 DUP4 SUB DUP2 PUSH0 DUP8 GAS CALL ISZERO DUP1 ISZERO PUSH2 0x1291 JUMPI RETURNDATASIZE PUSH0 DUP1 RETURNDATACOPY RETURNDATASIZE PUSH0 REVERT JUMPDEST POP POP POP POP PUSH1 0x40 MLOAD RETURNDATASIZE PUSH1 0x1F NOT PUSH1 0x1F DUP3 ADD AND DUP3 ADD DUP1 PUSH1 0x40 MSTORE POP DUP2 ADD SWAP1 PUSH2 0x12B5 SWAP2 SWAP1 PUSH2 0x400F JUMP JUMPDEST SWAP1 POP DUP1 PUSH2 0x12F9 JUMPI DUP1 PUSH1 0x40 MLOAD PUSH32 0xD85D3CEF00000000000000000000000000000000000000000000000000000000 DUP2 MSTORE PUSH1 0x4 ADD PUSH2 0x12F0 SWAP2 SWAP1 PUSH2 0x38D0 JUMP JUMPDEST PUSH1 0x40 MLOAD DUP1 SWAP2 SUB SWAP1 REVERT JUMPDEST PUSH32 0x884EDAD9CE6FA2440D8A54CC123490EB96D2768479D49FF9C7366125A9424364 CALLER DUP4 PUSH1 0x40 MLOAD PUSH2 0x132A SWAP3 SWAP2 SWAP1 PUSH2 0x406F JUMP JUMPDEST PUSH1 0x40 MLOAD DUP1 SWAP2 SUB SWAP1 LOG1 POP PUSH0 PUSH1 0x9 PUSH1 0x15 PUSH2 0x100 EXP DUP2 SLOAD DUP2 PUSH1 0xFF MUL NOT AND SWAP1 DUP4 ISZERO ISZERO MUL OR SWAP1 SSTORE POP POP JUMP JUMPDEST PUSH0 PUSH1 0x60 PUSH0 PUSH1 0xA SLOAD PUSH1 0xC SLOAD TIMESTAMP PUSH2 0x1365 SWAP2 SWAP1 PUSH2 0x3E9D JUMP JUMPDEST GT SWAP1 POP DUP1 PUSH1 0x40 MLOAD DUP1 PUSH1 0x20 ADD PUSH1 0x40 MSTORE DUP1 PUSH0 DUP2 MSTORE POP SWAP3 POP SWAP3 POP POP SWAP3 POP SWAP3 SWAP1 POP JUMP JUMPDEST PUSH2 0x138C PUSH2 0x2BE7 JUMP JUMPDEST PUSH2 0x1395 PUSH0 PUSH2 0x2F04 JUMP JUMPDEST JUMP JUMPDEST PUSH0 DUP2 GT PUSH2 0x13DB JUMPI DUP1 PUSH1 0x40 MLOAD PUSH32 0x2FF4783000000000000000000000000000000000000000000000000000000000 DUP2 MSTORE PUSH1 0x4 ADD PUSH2 0x13D2 SWAP2 SWAP1 PUSH2 0x376B JUMP JUMPDEST PUSH1 0x40 MLOAD DUP1 SWAP2 SUB SWAP1 REVERT JUMPDEST PUSH1 0x12 PUSH0 CALLER PUSH20 0xFFFFFFFFFFFFFFFFFFFFFFFFFFFFFFFFFFFFFFFF AND PUSH20 0xFFFFFFFFFFFFFFFFFFFFFFFFFFFFFFFFFFFFFFFF AND DUP2 MSTORE PUSH1 0x20 ADD SWAP1 DUP2 MSTORE PUSH1 0x20 ADD PUSH0 KECCAK256 PUSH0 ADD PUSH0 SWAP1 SLOAD SWAP1 PUSH2 0x100 EXP SWAP1 DIV PUSH1 0xFF AND ISZERO PUSH2 0x14B4 JUMPI PUSH1 0x12 PUSH0 CALLER PUSH20 0xFFFFFFFFFFFFFFFFFFFFFFFFFFFFFFFFFFFFFFFF AND PUSH20 0xFFFFFFFFFFFFFFFFFFFFFFFFFFFFFFFFFFFFFFFF AND DUP2 MSTORE PUSH1 0x20 ADD SWAP1 DUP2 MSTORE PUSH1 0x20 ADD PUSH0 KECCAK256 PUSH0 ADD PUSH0 SWAP1 SLOAD SWAP1 PUSH2 0x100 EXP SWAP1 DIV PUSH1 0xFF AND PUSH1 0x40 MLOAD PUSH32 0x6FA5C3C000000000000000000000000000000000000000000000000000000000 DUP2 MSTORE PUSH1 0x4 ADD PUSH2 0x14AB SWAP2 SWAP1 PUSH2 0x38D0 JUMP JUMPDEST PUSH1 0x40 MLOAD DUP1 SWAP2 SUB SWAP1 REVERT JUMPDEST DUP1 PUSH1 0x12 PUSH0 CALLER PUSH20 0xFFFFFFFFFFFFFFFFFFFFFFFFFFFFFFFFFFFFFFFF AND PUSH20 0xFFFFFFFFFFFFFFFFFFFFFFFFFFFFFFFFFFFFFFFF AND DUP2 MSTORE PUSH1 0x20 ADD SWAP1 DUP2 MSTORE PUSH1 0x20 ADD PUSH0 KECCAK256 PUSH1 0x5 ADD PUSH0 DUP3 DUP3 SLOAD PUSH2 0x1503 SWAP2 SWAP1 PUSH2 0x3F93 JUMP JUMPDEST SWAP3 POP POP DUP2 SWAP1 SSTORE POP PUSH1 0xF PUSH0 CALLER PUSH20 0xFFFFFFFFFFFFFFFFFFFFFFFFFFFFFFFFFFFFFFFF AND PUSH20 0xFFFFFFFFFFFFFFFFFFFFFFFFFFFFFFFFFFFFFFFF AND DUP2 MSTORE PUSH1 0x20 ADD SWAP1 DUP2 MSTORE PUSH1 0x20 ADD PUSH0 KECCAK256 PUSH0 SWAP1 SLOAD SWAP1 PUSH2 0x100 EXP SWAP1 DIV PUSH1 0xFF AND PUSH2 0x1616 JUMPI CALLER PUSH1 0x10 PUSH0 PUSH1 0x8 SLOAD DUP2 MSTORE PUSH1 0x20 ADD SWAP1 DUP2 MSTORE PUSH1 0x20 ADD PUSH0 KECCAK256 PUSH0 PUSH2 0x100 EXP DUP2 SLOAD DUP2 PUSH20 0xFFFFFFFFFFFFFFFFFFFFFFFFFFFFFFFFFFFFFFFF MUL NOT AND SWAP1 DUP4 PUSH20 0xFFFFFFFFFFFFFFFFFFFFFFFFFFFFFFFFFFFFFFFF AND MUL OR SWAP1 SSTORE POP PUSH1 0x1 PUSH1 0xF PUSH0 CALLER PUSH20 0xFFFFFFFFFFFFFFFFFFFFFFFFFFFFFFFFFFFFFFFF AND PUSH20 0xFFFFFFFFFFFFFFFFFFFFFFFFFFFFFFFFFFFFFFFF AND DUP2 MSTORE PUSH1 0x20 ADD SWAP1 DUP2 MSTORE PUSH1 0x20 ADD PUSH0 KECCAK256 PUSH0 PUSH2 0x100 EXP DUP2 SLOAD DUP2 PUSH1 0xFF MUL NOT AND SWAP1 DUP4 ISZERO ISZERO MUL OR SWAP1 SSTORE POP PUSH1 0x8 PUSH0 DUP2 SLOAD DUP1 SWAP3 SWAP2 SWAP1 PUSH2 0x1610 SWAP1 PUSH2 0x3E2F JUMP JUMPDEST SWAP2 SWAP1 POP SSTORE POP JUMPDEST DUP1 PUSH1 0x3 PUSH0 DUP3 DUP3 SLOAD PUSH2 0x1627 SWAP2 SWAP1 PUSH2 0x3F93 JUMP JUMPDEST SWAP3 POP POP DUP2 SWAP1 SSTORE POP PUSH0 DUP1 PUSH0 SWAP1 SLOAD SWAP1 PUSH2 0x100 EXP SWAP1 DIV PUSH20 0xFFFFFFFFFFFFFFFFFFFFFFFFFFFFFFFFFFFFFFFF AND PUSH20 0xFFFFFFFFFFFFFFFFFFFFFFFFFFFFFFFFFFFFFFFF AND PUSH4 0x23B872DD CALLER PUSH1 0x9 PUSH0 SWAP1 SLOAD SWAP1 PUSH2 0x100 EXP SWAP1 DIV PUSH20 0xFFFFFFFFFFFFFFFFFFFFFFFFFFFFFFFFFFFFFFFF AND DUP6 PUSH1 0x40 MLOAD DUP5 PUSH4 0xFFFFFFFF AND PUSH1 0xE0 SHL DUP2 MSTORE PUSH1 0x4 ADD PUSH2 0x16AD SWAP4 SWAP3 SWAP2 SWAP1 PUSH2 0x3FC6 JUMP JUMPDEST PUSH1 0x20 PUSH1 0x40 MLOAD DUP1 DUP4 SUB DUP2 PUSH0 DUP8 GAS CALL ISZERO DUP1 ISZERO PUSH2 0x16C9 JUMPI RETURNDATASIZE PUSH0 DUP1 RETURNDATACOPY RETURNDATASIZE PUSH0 REVERT JUMPDEST POP POP POP POP PUSH1 0x40 MLOAD RETURNDATASIZE PUSH1 0x1F NOT PUSH1 0x1F DUP3 ADD AND DUP3 ADD DUP1 PUSH1 0x40 MSTORE POP DUP2 ADD SWAP1 PUSH2 0x16ED SWAP2 SWAP1 PUSH2 0x400F JUMP JUMPDEST SWAP1 POP DUP1 PUSH2 0x1731 JUMPI DUP1 PUSH1 0x40 MLOAD PUSH32 0xD85D3CEF00000000000000000000000000000000000000000000000000000000 DUP2 MSTORE PUSH1 0x4 ADD PUSH2 0x1728 SWAP2 SWAP1 PUSH2 0x38D0 JUMP JUMPDEST PUSH1 0x40 MLOAD DUP1 SWAP2 SUB SWAP1 REVERT JUMPDEST PUSH32 0x14EE34C24635186D212F515353DADAE9C226529EDEF2D1FCF5504CB33B5C25AB CALLER PUSH1 0x9 PUSH0 SWAP1 SLOAD SWAP1 PUSH2 0x100 EXP SWAP1 DIV PUSH20 0xFFFFFFFFFFFFFFFFFFFFFFFFFFFFFFFFFFFFFFFF AND DUP5 PUSH1 0x40 MLOAD PUSH2 0x1785 SWAP4 SWAP3 SWAP2 SWAP1 PUSH2 0x3FC6 JUMP JUMPDEST PUSH1 0x40 MLOAD DUP1 SWAP2 SUB SWAP1 LOG1 POP POP JUMP JUMPDEST PUSH2 0x1799 PUSH2 0x2BE7 JUMP JUMPDEST PUSH0 DUP2 GT PUSH2 0x17DD JUMPI DUP1 PUSH1 0x40 MLOAD PUSH32 0x2FF4783000000000000000000000000000000000000000000000000000000000 DUP2 MSTORE PUSH1 0x4 ADD PUSH2 0x17D4 SWAP2 SWAP1 PUSH2 0x376B JUMP JUMPDEST PUSH1 0x40 MLOAD DUP1 SWAP2 SUB SWAP1 REVERT JUMPDEST DUP1 PUSH1 0x2 PUSH0 DUP3 DUP3 SLOAD PUSH2 0x17EE SWAP2 SWAP1 PUSH2 0x3F93 JUMP JUMPDEST SWAP3 POP POP DUP2 SWAP1 SSTORE POP PUSH0 DUP1 PUSH0 SWAP1 SLOAD SWAP1 PUSH2 0x100 EXP SWAP1 DIV PUSH20 0xFFFFFFFFFFFFFFFFFFFFFFFFFFFFFFFFFFFFFFFF AND PUSH20 0xFFFFFFFFFFFFFFFFFFFFFFFFFFFFFFFFFFFFFFFF AND PUSH4 0x23B872DD CALLER ADDRESS DUP6 PUSH1 0x40 MLOAD DUP5 PUSH4 0xFFFFFFFF AND PUSH1 0xE0 SHL DUP2 MSTORE PUSH1 0x4 ADD PUSH2 0x1853 SWAP4 SWAP3 SWAP2 SWAP1 PUSH2 0x3FC6 JUMP JUMPDEST PUSH1 0x20 PUSH1 0x40 MLOAD DUP1 DUP4 SUB DUP2 PUSH0 DUP8 GAS CALL ISZERO DUP1 ISZERO PUSH2 0x186F JUMPI RETURNDATASIZE PUSH0 DUP1 RETURNDATACOPY RETURNDATASIZE PUSH0 REVERT JUMPDEST POP POP POP POP PUSH1 0x40 MLOAD RETURNDATASIZE PUSH1 0x1F NOT PUSH1 0x1F DUP3 ADD AND DUP3 ADD DUP1 PUSH1 0x40 MSTORE POP DUP2 ADD SWAP1 PUSH2 0x1893 SWAP2 SWAP1 PUSH2 0x400F JUMP JUMPDEST SWAP1 POP DUP1 PUSH2 0x18D7 JUMPI DUP1 PUSH1 0x40 MLOAD PUSH32 0xD85D3CEF00000000000000000000000000000000000000000000000000000000 DUP2 MSTORE PUSH1 0x4 ADD PUSH2 0x18CE SWAP2 SWAP1 PUSH2 0x38D0 JUMP JUMPDEST PUSH1 0x40 MLOAD DUP1 SWAP2 SUB SWAP1 REVERT JUMPDEST PUSH32 0x73834E1D1EE73BA659470A3603B888903853D3A3C9FDA34E71C093A0E35CAB94 PUSH1 0x2 SLOAD PUSH1 0x40 MLOAD PUSH2 0x1908 SWAP2 SWAP1 PUSH2 0x376B JUMP JUMPDEST PUSH1 0x40 MLOAD DUP1 SWAP2 SUB SWAP1 LOG1 POP POP JUMP JUMPDEST PUSH2 0x191C PUSH2 0x2BE7 JUMP JUMPDEST PUSH0 DUP2 GT PUSH2 0x1960 JUMPI DUP1 PUSH1 0x40 MLOAD PUSH32 0xCDBC633500000000000000000000000000000000000000000000000000000000 DUP2 MSTORE PUSH1 0x4 ADD PUSH2 0x1957 SWAP2 SWAP1 PUSH2 0x376B JUMP JUMPDEST PUSH1 0x40 MLOAD DUP1 SWAP2 SUB SWAP1 REVERT JUMPDEST DUP1 PUSH1 0x7 DUP2 SWAP1 SSTORE POP PUSH32 0xB5671393C7C6980552E50A31E778921EB17D764C2E98FBF4D44FFF524712DEF9 CALLER PUSH1 0x7 SLOAD PUSH1 0x40 MLOAD PUSH2 0x199A SWAP3 SWAP2 SWAP1 PUSH2 0x406F JUMP JUMPDEST PUSH1 0x40 MLOAD DUP1 SWAP2 SUB SWAP1 LOG1 POP JUMP JUMPDEST PUSH2 0x19AD PUSH2 0x2BE7 JUMP JUMPDEST PUSH0 DUP2 GT PUSH2 0x19F1 JUMPI DUP1 PUSH1 0x40 MLOAD PUSH32 0xCDBC633500000000000000000000000000000000000000000000000000000000 DUP2 MSTORE PUSH1 0x4 ADD PUSH2 0x19E8 SWAP2 SWAP1 PUSH2 0x376B JUMP JUMPDEST PUSH1 0x40 MLOAD DUP1 SWAP2 SUB SWAP1 REVERT JUMPDEST DUP1 PUSH1 0x4 DUP2 SWAP1 SSTORE POP PUSH32 0xB5671393C7C6980552E50A31E778921EB17D764C2E98FBF4D44FFF524712DEF9 CALLER PUSH1 0x4 SLOAD PUSH1 0x40 MLOAD PUSH2 0x1A2B SWAP3 SWAP2 SWAP1 PUSH2 0x406F JUMP JUMPDEST PUSH1 0x40 MLOAD DUP1 SWAP2 SUB SWAP1 LOG1 POP JUMP JUMPDEST PUSH0 DUP2 GT PUSH2 0x1A7A JUMPI DUP1 PUSH1 0x40 MLOAD PUSH32 0x2FF4783000000000000000000000000000000000000000000000000000000000 DUP2 MSTORE PUSH1 0x4 ADD PUSH2 0x1A71 SWAP2 SWAP1 PUSH2 0x376B JUMP JUMPDEST PUSH1 0x40 MLOAD DUP1 SWAP2 SUB SWAP1 REVERT JUMPDEST PUSH1 0x12 PUSH0 CALLER PUSH20 0xFFFFFFFFFFFFFFFFFFFFFFFFFFFFFFFFFFFFFFFF AND PUSH20 0xFFFFFFFFFFFFFFFFFFFFFFFFFFFFFFFFFFFFFFFF AND DUP2 MSTORE PUSH1 0x20 ADD SWAP1 DUP2 MSTORE PUSH1 0x20 ADD PUSH0 KECCAK256 PUSH0 ADD PUSH0 SWAP1 SLOAD SWAP1 PUSH2 0x100 EXP SWAP1 DIV PUSH1 0xFF AND ISZERO PUSH2 0x1B53 JUMPI PUSH1 0x12 PUSH0 CALLER PUSH20 0xFFFFFFFFFFFFFFFFFFFFFFFFFFFFFFFFFFFFFFFF AND PUSH20 0xFFFFFFFFFFFFFFFFFFFFFFFFFFFFFFFFFFFFFFFF AND DUP2 MSTORE PUSH1 0x20 ADD SWAP1 DUP2 MSTORE PUSH1 0x20 ADD PUSH0 KECCAK256 PUSH0 ADD PUSH0 SWAP1 SLOAD SWAP1 PUSH2 0x100 EXP SWAP1 DIV PUSH1 0xFF AND PUSH1 0x40 MLOAD PUSH32 0x6FA5C3C000000000000000000000000000000000000000000000000000000000 DUP2 MSTORE PUSH1 0x4 ADD PUSH2 0x1B4A SWAP2 SWAP1 PUSH2 0x38D0 JUMP JUMPDEST PUSH1 0x40 MLOAD DUP1 SWAP2 SUB SWAP1 REVERT JUMPDEST DUP1 PUSH1 0x12 PUSH0 CALLER PUSH20 0xFFFFFFFFFFFFFFFFFFFFFFFFFFFFFFFFFFFFFFFF AND PUSH20 0xFFFFFFFFFFFFFFFFFFFFFFFFFFFFFFFFFFFFFFFF AND DUP2 MSTORE PUSH1 0x20 ADD SWAP1 DUP2 MSTORE PUSH1 0x20 ADD PUSH0 KECCAK256 PUSH1 0x1 ADD SLOAD GT PUSH2 0x1BD7 JUMPI DUP1 PUSH1 0x40 MLOAD PUSH32 0x31B6E35800000000000000000000000000000000000000000000000000000000 DUP2 MSTORE PUSH1 0x4 ADD PUSH2 0x1BCE SWAP2 SWAP1 PUSH2 0x376B JUMP JUMPDEST PUSH1 0x40 MLOAD DUP1 SWAP2 SUB SWAP1 REVERT JUMPDEST DUP1 PUSH1 0x12 PUSH0 CALLER PUSH20 0xFFFFFFFFFFFFFFFFFFFFFFFFFFFFFFFFFFFFFFFF AND PUSH20 0xFFFFFFFFFFFFFFFFFFFFFFFFFFFFFFFFFFFFFFFF AND DUP2 MSTORE PUSH1 0x20 ADD SWAP1 DUP2 MSTORE PUSH1 0x20 ADD PUSH0 KECCAK256 PUSH1 0x1 ADD PUSH0 DUP3 DUP3 SLOAD PUSH2 0x1C26 SWAP2 SWAP1 PUSH2 0x3E9D JUMP JUMPDEST SWAP3 POP POP DUP2 SWAP1 SSTORE POP DUP1 PUSH1 0x12 PUSH0 CALLER PUSH20 0xFFFFFFFFFFFFFFFFFFFFFFFFFFFFFFFFFFFFFFFF AND PUSH20 0xFFFFFFFFFFFFFFFFFFFFFFFFFFFFFFFFFFFFFFFF AND DUP2 MSTORE PUSH1 0x20 ADD SWAP1 DUP2 MSTORE PUSH1 0x20 ADD PUSH0 KECCAK256 PUSH1 0x5 ADD PUSH0 DUP3 DUP3 SLOAD PUSH2 0x1C7C SWAP2 SWAP1 PUSH2 0x3F93 JUMP JUMPDEST SWAP3 POP POP DUP2 SWAP1 SSTORE POP DUP1 PUSH1 0x2 PUSH0 DUP3 DUP3 SLOAD PUSH2 0x1C94 SWAP2 SWAP1 PUSH2 0x3F93 JUMP JUMPDEST SWAP3 POP POP DUP2 SWAP1 SSTORE POP DUP1 PUSH1 0x3 PUSH0 DUP3 DUP3 SLOAD PUSH2 0x1CAC SWAP2 SWAP1 PUSH2 0x3F93 JUMP JUMPDEST SWAP3 POP POP DUP2 SWAP1 SSTORE POP PUSH32 0x14EE34C24635186D212F515353DADAE9C226529EDEF2D1FCF5504CB33B5C25AB CALLER ADDRESS DUP4 PUSH1 0x40 MLOAD PUSH2 0x1CE6 SWAP4 SWAP3 SWAP2 SWAP1 PUSH2 0x3FC6 JUMP JUMPDEST PUSH1 0x40 MLOAD DUP1 SWAP2 SUB SWAP1 LOG1 POP JUMP JUMPDEST PUSH0 DUP3 GT PUSH2 0x1D35 JUMPI DUP2 PUSH1 0x40 MLOAD PUSH32 0x2FF4783000000000000000000000000000000000000000000000000000000000 DUP2 MSTORE PUSH1 0x4 ADD PUSH2 0x1D2C SWAP2 SWAP1 PUSH2 0x376B JUMP JUMPDEST PUSH1 0x40 MLOAD DUP1 SWAP2 SUB SWAP1 REVERT JUMPDEST PUSH1 0xE SLOAD DUP2 GT ISZERO PUSH2 0x1D7C JUMPI DUP1 PUSH1 0x40 MLOAD PUSH32 0x222A50F300000000000000000000000000000000000000000000000000000000 DUP2 MSTORE PUSH1 0x4 ADD PUSH2 0x1D73 SWAP2 SWAP1 PUSH2 0x376B JUMP JUMPDEST PUSH1 0x40 MLOAD DUP1 SWAP2 SUB SWAP1 REVERT JUMPDEST PUSH2 0x1D97 DUP3 PUSH1 0x11 PUSH0 DUP5 DUP2 MSTORE PUSH1 0x20 ADD SWAP1 DUP2 MSTORE PUSH1 0x20 ADD PUSH0 KECCAK256 SLOAD PUSH2 0x2FD5 JUMP JUMPDEST PUSH0 DUP1 PUSH0 SWAP1 SLOAD SWAP1 PUSH2 0x100 EXP SWAP1 DIV PUSH20 0xFFFFFFFFFFFFFFFFFFFFFFFFFFFFFFFFFFFFFFFF AND PUSH20 0xFFFFFFFFFFFFFFFFFFFFFFFFFFFFFFFFFFFFFFFF AND PUSH4 0x23B872DD CALLER ADDRESS DUP7 PUSH1 0x40 MLOAD DUP5 PUSH4 0xFFFFFFFF AND PUSH1 0xE0 SHL DUP2 MSTORE PUSH1 0x4 ADD PUSH2 0x1DF5 SWAP4 SWAP3 SWAP2 SWAP1 PUSH2 0x3FC6 JUMP JUMPDEST PUSH1 0x20 PUSH1 0x40 MLOAD DUP1 DUP4 SUB DUP2 PUSH0 DUP8 GAS CALL ISZERO DUP1 ISZERO PUSH2 0x1E11 JUMPI RETURNDATASIZE PUSH0 DUP1 RETURNDATACOPY RETURNDATASIZE PUSH0 REVERT JUMPDEST POP POP POP POP PUSH1 0x40 MLOAD RETURNDATASIZE PUSH1 0x1F NOT PUSH1 0x1F DUP3 ADD AND DUP3 ADD DUP1 PUSH1 0x40 MSTORE POP DUP2 ADD SWAP1 PUSH2 0x1E35 SWAP2 SWAP1 PUSH2 0x400F JUMP JUMPDEST SWAP1 POP DUP1 PUSH2 0x1E79 JUMPI DUP1 PUSH1 0x40 MLOAD PUSH32 0xD85D3CEF00000000000000000000000000000000000000000000000000000000 DUP2 MSTORE PUSH1 0x4 ADD PUSH2 0x1E70 SWAP2 SWAP1 PUSH2 0x38D0 JUMP JUMPDEST PUSH1 0x40 MLOAD DUP1 SWAP2 SUB SWAP1 REVERT JUMPDEST PUSH32 0xA89B69C5958EC1CCF0DF0DE746A8708F5B6A6B429430129F16F46F44B319C900 DUP4 DUP4 PUSH1 0x40 MLOAD PUSH2 0x1EAA SWAP3 SWAP2 SWAP1 PUSH2 0x4166 JUMP JUMPDEST PUSH1 0x40 MLOAD DUP1 SWAP2 SUB SWAP1 LOG1 POP POP POP JUMP JUMPDEST PUSH0 DUP1 PUSH2 0x1EC1 PUSH2 0x3037 JUMP JUMPDEST SWAP1 POP DUP1 PUSH0 ADD PUSH0 SWAP1 SLOAD SWAP1 PUSH2 0x100 EXP SWAP1 DIV PUSH20 0xFFFFFFFFFFFFFFFFFFFFFFFFFFFFFFFFFFFFFFFF AND SWAP2 POP POP SWAP1 JUMP JUMPDEST PUSH1 0xA SLOAD DUP2 JUMP JUMPDEST PUSH1 0xE SLOAD DUP2 JUMP JUMPDEST PUSH1 0x10 PUSH1 0x20 MSTORE DUP1 PUSH0 MSTORE PUSH1 0x40 PUSH0 KECCAK256 PUSH0 SWAP2 POP SLOAD SWAP1 PUSH2 0x100 EXP SWAP1 DIV PUSH20 0xFFFFFFFFFFFFFFFFFFFFFFFFFFFFFFFFFFFFFFFF AND DUP2 JUMP JUMPDEST PUSH1 0x40 MLOAD DUP1 PUSH1 0x40 ADD PUSH1 0x40 MSTORE DUP1 PUSH1 0x5 DUP2 MSTORE PUSH1 0x20 ADD PUSH32 0x352E302E30000000000000000000000000000000000000000000000000000000 DUP2 MSTORE POP DUP2 JUMP JUMPDEST PUSH2 0x1F69 PUSH2 0x2BE7 JUMP JUMPDEST PUSH0 DUP2 GT PUSH2 0x1FAD JUMPI DUP1 PUSH1 0x40 MLOAD PUSH32 0xCDBC633500000000000000000000000000000000000000000000000000000000 DUP2 MSTORE PUSH1 0x4 ADD PUSH2 0x1FA4 SWAP2 SWAP1 PUSH2 0x376B JUMP JUMPDEST PUSH1 0x40 MLOAD DUP1 SWAP2 SUB SWAP1 REVERT JUMPDEST DUP1 PUSH1 0x6 DUP2 SWAP1 SSTORE POP PUSH32 0xB5671393C7C6980552E50A31E778921EB17D764C2E98FBF4D44FFF524712DEF9 CALLER PUSH1 0x6 SLOAD PUSH1 0x40 MLOAD PUSH2 0x1FE7 SWAP3 SWAP2 SWAP1 PUSH2 0x406F JUMP JUMPDEST PUSH1 0x40 MLOAD DUP1 SWAP2 SUB SWAP1 LOG1 POP JUMP JUMPDEST PUSH1 0x2 SLOAD DUP2 JUMP JUMPDEST PUSH2 0x2000 PUSH2 0x2BE7 JUMP JUMPDEST PUSH0 DUP2 GT PUSH2 0x2044 JUMPI DUP1 PUSH1 0x40 MLOAD PUSH32 0xCDBC633500000000000000000000000000000000000000000000000000000000 DUP2 MSTORE PUSH1 0x4 ADD PUSH2 0x203B SWAP2 SWAP1 PUSH2 0x376B JUMP JUMPDEST PUSH1 0x40 MLOAD DUP1 SWAP2 SUB SWAP1 REVERT JUMPDEST DUP1 PUSH1 0x5 DUP2 SWAP1 SSTORE POP PUSH32 0xB5671393C7C6980552E50A31E778921EB17D764C2E98FBF4D44FFF524712DEF9 CALLER PUSH1 0x5 SLOAD PUSH1 0x40 MLOAD PUSH2 0x207E SWAP3 SWAP2 SWAP1 PUSH2 0x406F JUMP JUMPDEST PUSH1 0x40 MLOAD DUP1 SWAP2 SUB SWAP1 LOG1 POP JUMP JUMPDEST PUSH1 0x12 PUSH1 0x20 MSTORE DUP1 PUSH0 MSTORE PUSH1 0x40 PUSH0 KECCAK256 PUSH0 SWAP2 POP SWAP1 POP DUP1 PUSH0 ADD PUSH0 SWAP1 SLOAD SWAP1 PUSH2 0x100 EXP SWAP1 DIV PUSH1 0xFF AND SWAP1 DUP1 PUSH1 0x1 ADD SLOAD SWAP1 DUP1 PUSH1 0x2 ADD SLOAD SWAP1 DUP1 PUSH1 0x3 ADD SLOAD SWAP1 DUP1 PUSH1 0x4 ADD SLOAD SWAP1 DUP1 PUSH1 0x5 ADD SLOAD SWAP1 POP DUP7 JUMP JUMPDEST PUSH0 PUSH2 0x20D6 PUSH2 0x305E JUMP JUMPDEST SWAP1 POP PUSH0 DUP2 PUSH0 ADD PUSH1 0x8 SWAP1 SLOAD SWAP1 PUSH2 0x100 EXP SWAP1 DIV PUSH1 0xFF AND ISZERO SWAP1 POP PUSH0 DUP3 PUSH0 ADD PUSH0 SWAP1 SLOAD SWAP1 PUSH2 0x100 EXP SWAP1 DIV PUSH8 0xFFFFFFFFFFFFFFFF AND SWAP1 POP PUSH0 DUP1 DUP3 PUSH8 0xFFFFFFFFFFFFFFFF AND EQ DUP1 ISZERO PUSH2 0x211E JUMPI POP DUP3 JUMPDEST SWAP1 POP PUSH0 PUSH1 0x1 DUP4 PUSH8 0xFFFFFFFFFFFFFFFF AND EQ DUP1 ISZERO PUSH2 0x2151 JUMPI POP PUSH0 ADDRESS PUSH20 0xFFFFFFFFFFFFFFFFFFFFFFFFFFFFFFFFFFFFFFFF AND EXTCODESIZE EQ JUMPDEST SWAP1 POP DUP2 ISZERO DUP1 ISZERO PUSH2 0x215F JUMPI POP DUP1 ISZERO JUMPDEST ISZERO PUSH2 0x2196 JUMPI PUSH1 0x40 MLOAD PUSH32 0xF92EE8A900000000000000000000000000000000000000000000000000000000 DUP2 MSTORE PUSH1 0x4 ADD PUSH1 0x40 MLOAD DUP1 SWAP2 SUB SWAP1 REVERT JUMPDEST PUSH1 0x1 DUP6 PUSH0 ADD PUSH0 PUSH2 0x100 EXP DUP2 SLOAD DUP2 PUSH8 0xFFFFFFFFFFFFFFFF MUL NOT AND SWAP1 DUP4 PUSH8 0xFFFFFFFFFFFFFFFF AND MUL OR SWAP1 SSTORE POP DUP4 ISZERO PUSH2 0x21E3 JUMPI PUSH1 0x1 DUP6 PUSH0 ADD PUSH1 0x8 PUSH2 0x100 EXP DUP2 SLOAD DUP2 PUSH1 0xFF MUL NOT AND SWAP1 DUP4 ISZERO ISZERO MUL OR SWAP1 SSTORE POP JUMPDEST PUSH2 0x21EC DUP9 PUSH2 0x3085 JUMP JUMPDEST PUSH2 0x21F4 PUSH2 0x3099 JUMP JUMPDEST DUP7 PUSH0 DUP1 PUSH2 0x100 EXP DUP2 SLOAD DUP2 PUSH20 0xFFFFFFFFFFFFFFFFFFFFFFFFFFFFFFFFFFFFFFFF MUL NOT AND SWAP1 DUP4 PUSH20 0xFFFFFFFFFFFFFFFFFFFFFFFFFFFFFFFFFFFFFFFF AND MUL OR SWAP1 SSTORE POP PUSH2 0x13EC PUSH1 0x11 PUSH0 DUP1 DUP2 MSTORE PUSH1 0x20 ADD SWAP1 DUP2 MSTORE PUSH1 0x20 ADD PUSH0 KECCAK256 DUP2 SWAP1 SSTORE POP PUSH2 0x1D4C PUSH1 0x11 PUSH0 PUSH1 0x1 DUP2 MSTORE PUSH1 0x20 ADD SWAP1 DUP2 MSTORE PUSH1 0x20 ADD PUSH0 KECCAK256 DUP2 SWAP1 SSTORE POP PUSH2 0xDAC PUSH1 0x11 PUSH0 PUSH1 0x2 DUP2 MSTORE PUSH1 0x20 ADD SWAP1 DUP2 MSTORE PUSH1 0x20 ADD PUSH0 KECCAK256 DUP2 SWAP1 SSTORE POP PUSH2 0x1E14 PUSH1 0x11 PUSH0 PUSH1 0x3 DUP2 MSTORE PUSH1 0x20 ADD SWAP1 DUP2 MSTORE PUSH1 0x20 ADD PUSH0 KECCAK256 DUP2 SWAP1 SSTORE POP PUSH2 0x1388 PUSH1 0x4 DUP2 SWAP1 SSTORE POP PUSH2 0x1D4C PUSH1 0x5 DUP2 SWAP1 SSTORE POP PUSH2 0x5DC PUSH1 0x6 DUP2 SWAP1 SSTORE POP PUSH2 0x3E8 PUSH1 0x7 DUP2 SWAP1 SSTORE POP PUSH1 0x4 PUSH1 0xE DUP2 SWAP1 SSTORE POP DUP6 PUSH1 0x9 PUSH0 PUSH2 0x100 EXP DUP2 SLOAD DUP2 PUSH20 0xFFFFFFFFFFFFFFFFFFFFFFFFFFFFFFFFFFFFFFFF MUL NOT AND SWAP1 DUP4 PUSH20 0xFFFFFFFFFFFFFFFFFFFFFFFFFFFFFFFFFFFFFFFF AND MUL OR SWAP1 SSTORE POP DUP4 ISZERO PUSH2 0x235C JUMPI PUSH0 DUP6 PUSH0 ADD PUSH1 0x8 PUSH2 0x100 EXP DUP2 SLOAD DUP2 PUSH1 0xFF MUL NOT AND SWAP1 DUP4 ISZERO ISZERO MUL OR SWAP1 SSTORE POP PUSH32 0xC7F505B2F371AE2175EE4913F4499E1F2633A7B5936321EED1CDAEB6115181D2 PUSH1 0x1 PUSH1 0x40 MLOAD PUSH2 0x2353 SWAP2 SWAP1 PUSH2 0x41D9 JUMP JUMPDEST PUSH1 0x40 MLOAD DUP1 SWAP2 SUB SWAP1 LOG1 JUMPDEST POP POP POP POP POP POP POP POP JUMP JUMPDEST PUSH1 0xF PUSH1 0x20 MSTORE DUP1 PUSH0 MSTORE PUSH1 0x40 PUSH0 KECCAK256 PUSH0 SWAP2 POP SLOAD SWAP1 PUSH2 0x100 EXP SWAP1 DIV PUSH1 0xFF AND DUP2 JUMP JUMPDEST PUSH1 0x6 SLOAD DUP2 JUMP JUMPDEST PUSH2 0x2391 PUSH2 0x2BE7 JUMP JUMPDEST PUSH0 PUSH20 0xFFFFFFFFFFFFFFFFFFFFFFFFFFFFFFFFFFFFFFFF AND DUP2 PUSH20 0xFFFFFFFFFFFFFFFFFFFFFFFFFFFFFFFFFFFFFFFF AND SUB PUSH2 0x2401 JUMPI DUP1 PUSH1 0x40 MLOAD PUSH32 0xE4CFA94D00000000000000000000000000000000000000000000000000000000 DUP2 MSTORE PUSH1 0x4 ADD PUSH2 0x23F8 SWAP2 SWAP1 PUSH2 0x389D JUMP JUMPDEST PUSH1 0x40 MLOAD DUP1 SWAP2 SUB SWAP1 REVERT JUMPDEST DUP1 PUSH1 0xD PUSH0 PUSH2 0x100 EXP DUP2 SLOAD DUP2 PUSH20 0xFFFFFFFFFFFFFFFFFFFFFFFFFFFFFFFFFFFFFFFF MUL NOT AND SWAP1 DUP4 PUSH20 0xFFFFFFFFFFFFFFFFFFFFFFFFFFFFFFFFFFFFFFFF AND MUL OR SWAP1 SSTORE POP PUSH32 0x75F91F3CECB8C46F20150F60F77A6E1F0DE00776627692DB82EF1960AF84C33A CALLER PUSH1 0xD PUSH0 SWAP1 SLOAD SWAP1 PUSH2 0x100 EXP SWAP1 DIV PUSH20 0xFFFFFFFFFFFFFFFFFFFFFFFFFFFFFFFFFFFFFFFF AND PUSH1 0x40 MLOAD PUSH2 0x2493 SWAP3 SWAP2 SWAP1 PUSH2 0x41F2 JUMP JUMPDEST PUSH1 0x40 MLOAD DUP1 SWAP2 SUB SWAP1 LOG1 POP JUMP JUMPDEST PUSH2 0x24A6 PUSH2 0x2BE7 JUMP JUMPDEST PUSH0 PUSH20 0xFFFFFFFFFFFFFFFFFFFFFFFFFFFFFFFFFFFFFFFF AND DUP3 PUSH20 0xFFFFFFFFFFFFFFFFFFFFFFFFFFFFFFFFFFFFFFFF AND SUB PUSH2 0x2516 JUMPI DUP2 PUSH1 0x40 MLOAD PUSH32 0xE4CFA94D00000000000000000000000000000000000000000000000000000000 DUP2 MSTORE PUSH1 0x4 ADD PUSH2 0x250D SWAP2 SWAP1 PUSH2 0x389D JUMP JUMPDEST PUSH1 0x40 MLOAD DUP1 SWAP2 SUB SWAP1 REVERT JUMPDEST PUSH1 0x1 ISZERO ISZERO DUP2 ISZERO ISZERO EQ ISZERO DUP1 ISZERO PUSH2 0x252F JUMPI POP PUSH0 ISZERO ISZERO DUP2 ISZERO ISZERO EQ ISZERO JUMPDEST ISZERO PUSH2 0x2571 JUMPI DUP1 PUSH1 0x40 MLOAD PUSH32 0x81ED1AE300000000000000000000000000000000000000000000000000000000 DUP2 MSTORE PUSH1 0x4 ADD PUSH2 0x2568 SWAP2 SWAP1 PUSH2 0x38D0 JUMP JUMPDEST PUSH1 0x40 MLOAD DUP1 SWAP2 SUB SWAP1 REVERT JUMPDEST PUSH1 0x1 ISZERO ISZERO DUP2 ISZERO ISZERO SUB PUSH2 0x25D9 JUMPI PUSH1 0x1 PUSH1 0x12 PUSH0 DUP5 PUSH20 0xFFFFFFFFFFFFFFFFFFFFFFFFFFFFFFFFFFFFFFFF AND PUSH20 0xFFFFFFFFFFFFFFFFFFFFFFFFFFFFFFFFFFFFFFFF AND DUP2 MSTORE PUSH1 0x20 ADD SWAP1 DUP2 MSTORE PUSH1 0x20 ADD PUSH0 KECCAK256 PUSH0 ADD PUSH0 PUSH2 0x100 EXP DUP2 SLOAD DUP2 PUSH1 0xFF MUL NOT AND SWAP1 DUP4 ISZERO ISZERO MUL OR SWAP1 SSTORE POP PUSH2 0x2630 JUMP JUMPDEST PUSH0 PUSH1 0x12 PUSH0 DUP5 PUSH20 0xFFFFFFFFFFFFFFFFFFFFFFFFFFFFFFFFFFFFFFFF AND PUSH20 0xFFFFFFFFFFFFFFFFFFFFFFFFFFFFFFFFFFFFFFFF AND DUP2 MSTORE PUSH1 0x20 ADD SWAP1 DUP2 MSTORE PUSH1 0x20 ADD PUSH0 KECCAK256 PUSH0 ADD PUSH0 PUSH2 0x100 EXP DUP2 SLOAD DUP2 PUSH1 0xFF MUL NOT AND SWAP1 DUP4 ISZERO ISZERO MUL OR SWAP1 SSTORE POP JUMPDEST PUSH32 0x7A1655BC3160D3413BF1D5235E55BE12E01B7E8BC2436A9BFF09C3B4FA2421F1 CALLER DUP4 PUSH1 0x12 PUSH0 DUP7 PUSH20 0xFFFFFFFFFFFFFFFFFFFFFFFFFFFFFFFFFFFFFFFF AND PUSH20 0xFFFFFFFFFFFFFFFFFFFFFFFFFFFFFFFFFFFFFFFF AND DUP2 MSTORE PUSH1 0x20 ADD SWAP1 DUP2 MSTORE PUSH1 0x20 ADD PUSH0 KECCAK256 PUSH0 ADD PUSH0 SWAP1 SLOAD SWAP1 PUSH2 0x100 EXP SWAP1 DIV PUSH1 0xFF AND PUSH1 0x40 MLOAD PUSH2 0x26AE SWAP4 SWAP3 SWAP2 SWAP1 PUSH2 0x4219 JUMP JUMPDEST PUSH1 0x40 MLOAD DUP1 SWAP2 SUB SWAP1 LOG1 POP POP JUMP JUMPDEST PUSH0 DUP1 PUSH0 PUSH2 0x26C5 PUSH2 0x30A3 JUMP JUMPDEST SWAP3 POP SWAP3 POP SWAP3 POP PUSH0 PUSH1 0x2 SLOAD GT DUP1 ISZERO PUSH2 0x26DD JUMPI POP PUSH0 PUSH1 0x1 SLOAD GT JUMPDEST PUSH2 0x271C JUMPI PUSH1 0x40 MLOAD PUSH32 0x8C379A000000000000000000000000000000000000000000000000000000000 DUP2 MSTORE PUSH1 0x4 ADD PUSH2 0x2713 SWAP1 PUSH2 0x4298 JUMP JUMPDEST PUSH1 0x40 MLOAD DUP1 SWAP2 SUB SWAP1 REVERT JUMPDEST PUSH0 DUP1 PUSH0 SWAP1 POP JUMPDEST PUSH1 0x8 SLOAD DUP2 LT ISZERO PUSH2 0x2A58 JUMPI PUSH1 0x12 PUSH0 PUSH1 0x10 PUSH0 DUP5 DUP2 MSTORE PUSH1 0x20 ADD SWAP1 DUP2 MSTORE PUSH1 0x20 ADD PUSH0 KECCAK256 PUSH0 SWAP1 SLOAD SWAP1 PUSH2 0x100 EXP SWAP1 DIV PUSH20 0xFFFFFFFFFFFFFFFFFFFFFFFFFFFFFFFFFFFFFFFF AND PUSH20 0xFFFFFFFFFFFFFFFFFFFFFFFFFFFFFFFFFFFFFFFF AND PUSH20 0xFFFFFFFFFFFFFFFFFFFFFFFFFFFFFFFFFFFFFFFF AND DUP2 MSTORE PUSH1 0x20 ADD SWAP1 DUP2 MSTORE PUSH1 0x20 ADD PUSH0 KECCAK256 PUSH0 ADD PUSH0 SWAP1 SLOAD SWAP1 PUSH2 0x100 EXP SWAP1 DIV PUSH1 0xFF AND PUSH2 0x2A4B JUMPI PUSH0 PUSH1 0x3 SLOAD PUSH2 0x2710 PUSH1 0x12 PUSH0 PUSH1 0x10 PUSH0 DUP8 DUP2 MSTORE PUSH1 0x20 ADD SWAP1 DUP2 MSTORE PUSH1 0x20 ADD PUSH0 KECCAK256 PUSH0 SWAP1 SLOAD SWAP1 PUSH2 0x100 EXP SWAP1 DIV PUSH20 0xFFFFFFFFFFFFFFFFFFFFFFFFFFFFFFFFFFFFFFFF AND PUSH20 0xFFFFFFFFFFFFFFFFFFFFFFFFFFFFFFFFFFFFFFFF AND PUSH20 0xFFFFFFFFFFFFFFFFFFFFFFFFFFFFFFFFFFFFFFFF AND DUP2 MSTORE PUSH1 0x20 ADD SWAP1 DUP2 MSTORE PUSH1 0x20 ADD PUSH0 KECCAK256 PUSH1 0x5 ADD SLOAD PUSH2 0x282E SWAP2 SWAP1 PUSH2 0x42B6 JUMP JUMPDEST PUSH2 0x2838 SWAP2 SWAP1 PUSH2 0x4324 JUMP JUMPDEST SWAP1 POP PUSH0 PUSH2 0x2845 DUP7 DUP4 PUSH2 0x329B JUMP JUMPDEST SWAP1 POP DUP1 PUSH1 0x2 PUSH0 DUP3 DUP3 SLOAD PUSH2 0x2858 SWAP2 SWAP1 PUSH2 0x3E9D JUMP JUMPDEST SWAP3 POP POP DUP2 SWAP1 SSTORE POP DUP1 DUP5 PUSH2 0x286B SWAP2 SWAP1 PUSH2 0x3F93 JUMP JUMPDEST SWAP4 POP DUP5 PUSH1 0x1 PUSH0 DUP3 DUP3 SLOAD PUSH2 0x287E SWAP2 SWAP1 PUSH2 0x3E9D JUMP JUMPDEST SWAP3 POP POP DUP2 SWAP1 SSTORE POP DUP5 PUSH1 0x12 PUSH0 PUSH1 0x10 PUSH0 DUP8 DUP2 MSTORE PUSH1 0x20 ADD SWAP1 DUP2 MSTORE PUSH1 0x20 ADD PUSH0 KECCAK256 PUSH0 SWAP1 SLOAD SWAP1 PUSH2 0x100 EXP SWAP1 DIV PUSH20 0xFFFFFFFFFFFFFFFFFFFFFFFFFFFFFFFFFFFFFFFF AND PUSH20 0xFFFFFFFFFFFFFFFFFFFFFFFFFFFFFFFFFFFFFFFF AND PUSH20 0xFFFFFFFFFFFFFFFFFFFFFFFFFFFFFFFFFFFFFFFF AND DUP2 MSTORE PUSH1 0x20 ADD SWAP1 DUP2 MSTORE PUSH1 0x20 ADD PUSH0 KECCAK256 PUSH1 0x3 ADD DUP2 SWAP1 SSTORE POP DUP1 PUSH1 0x12 PUSH0 PUSH1 0x10 PUSH0 DUP8 DUP2 MSTORE PUSH1 0x20 ADD SWAP1 DUP2 MSTORE PUSH1 0x20 ADD PUSH0 KECCAK256 PUSH0 SWAP1 SLOAD SWAP1 PUSH2 0x100 EXP SWAP1 DIV PUSH20 0xFFFFFFFFFFFFFFFFFFFFFFFFFFFFFFFFFFFFFFFF AND PUSH20 0xFFFFFFFFFFFFFFFFFFFFFFFFFFFFFFFFFFFFFFFF AND PUSH20 0xFFFFFFFFFFFFFFFFFFFFFFFFFFFFFFFFFFFFFFFF AND DUP2 MSTORE PUSH1 0x20 ADD SWAP1 DUP2 MSTORE PUSH1 0x20 ADD PUSH0 KECCAK256 PUSH1 0x4 ADD DUP2 SWAP1 SSTORE POP PUSH0 DUP6 DUP3 PUSH2 0x297C SWAP2 SWAP1 PUSH2 0x3F93 JUMP JUMPDEST SWAP1 POP DUP1 PUSH1 0x12 PUSH0 PUSH1 0x10 PUSH0 DUP9 DUP2 MSTORE PUSH1 0x20 ADD SWAP1 DUP2 MSTORE PUSH1 0x20 ADD PUSH0 KECCAK256 PUSH0 SWAP1 SLOAD SWAP1 PUSH2 0x100 EXP SWAP1 DIV PUSH20 0xFFFFFFFFFFFFFFFFFFFFFFFFFFFFFFFFFFFFFFFF AND PUSH20 0xFFFFFFFFFFFFFFFFFFFFFFFFFFFFFFFFFFFFFFFF AND PUSH20 0xFFFFFFFFFFFFFFFFFFFFFFFFFFFFFFFFFFFFFFFF AND DUP2 MSTORE PUSH1 0x20 ADD SWAP1 DUP2 MSTORE PUSH1 0x20 ADD PUSH0 KECCAK256 PUSH1 0x1 ADD PUSH0 DUP3 DUP3 SLOAD PUSH2 0x29FD SWAP2 SWAP1 PUSH2 0x3F93 JUMP JUMPDEST SWAP3 POP POP DUP2 SWAP1 SSTORE POP DUP8 DUP6 GT ISZERO PUSH2 0x2A47 JUMPI PUSH1 0x40 MLOAD PUSH32 0x8C379A000000000000000000000000000000000000000000000000000000000 DUP2 MSTORE PUSH1 0x4 ADD PUSH2 0x2A3E SWAP1 PUSH2 0x439E JUMP JUMPDEST PUSH1 0x40 MLOAD DUP1 SWAP2 SUB SWAP1 REVERT JUMPDEST POP POP POP JUMPDEST DUP1 DUP1 PUSH1 0x1 ADD SWAP2 POP POP PUSH2 0x2722 JUMP JUMPDEST POP PUSH32 0xEE826440768329B0C72F81331212EE31FCDAC1EA79A248D24821E40C34E58020 CALLER PUSH1 0x2 SLOAD PUSH1 0x1 SLOAD PUSH1 0x40 MLOAD PUSH2 0x2A90 SWAP4 SWAP3 SWAP2 SWAP1 PUSH2 0x403A JUMP JUMPDEST PUSH1 0x40 MLOAD DUP1 SWAP2 SUB SWAP1 LOG1 POP POP POP POP JUMP JUMPDEST PUSH2 0x2AA6 PUSH2 0x2BE7 JUMP JUMPDEST PUSH0 DUP2 GT PUSH2 0x2AEA JUMPI DUP1 PUSH1 0x40 MLOAD PUSH32 0xCDBC633500000000000000000000000000000000000000000000000000000000 DUP2 MSTORE PUSH1 0x4 ADD PUSH2 0x2AE1 SWAP2 SWAP1 PUSH2 0x376B JUMP JUMPDEST PUSH1 0x40 MLOAD DUP1 SWAP2 SUB SWAP1 REVERT JUMPDEST DUP1 PUSH1 0x11 PUSH0 DUP5 DUP2 MSTORE PUSH1 0x20 ADD SWAP1 DUP2 MSTORE PUSH1 0x20 ADD PUSH0 KECCAK256 DUP2 SWAP1 SSTORE POP PUSH32 0xB5671393C7C6980552E50A31E778921EB17D764C2E98FBF4D44FFF524712DEF9 CALLER PUSH1 0x11 PUSH0 DUP6 DUP2 MSTORE PUSH1 0x20 ADD SWAP1 DUP2 MSTORE PUSH1 0x20 ADD PUSH0 KECCAK256 SLOAD PUSH1 0x40 MLOAD PUSH2 0x2B42 SWAP3 SWAP2 SWAP1 PUSH2 0x406F JUMP JUMPDEST PUSH1 0x40 MLOAD DUP1 SWAP2 SUB SWAP1 LOG1 POP POP JUMP JUMPDEST PUSH2 0x2B56 PUSH2 0x2BE7 JUMP JUMPDEST PUSH0 PUSH20 0xFFFFFFFFFFFFFFFFFFFFFFFFFFFFFFFFFFFFFFFF AND DUP2 PUSH20 0xFFFFFFFFFFFFFFFFFFFFFFFFFFFFFFFFFFFFFFFF AND SUB PUSH2 0x2BC6 JUMPI PUSH0 PUSH1 0x40 MLOAD PUSH32 0x1E4FBDF700000000000000000000000000000000000000000000000000000000 DUP2 MSTORE PUSH1 0x4 ADD PUSH2 0x2BBD SWAP2 SWAP1 PUSH2 0x389D JUMP JUMPDEST PUSH1 0x40 MLOAD DUP1 SWAP2 SUB SWAP1 REVERT JUMPDEST PUSH2 0x2BCF DUP2 PUSH2 0x2F04 JUMP JUMPDEST POP JUMP JUMPDEST PUSH1 0x11 PUSH1 0x20 MSTORE DUP1 PUSH0 MSTORE PUSH1 0x40 PUSH0 KECCAK256 PUSH0 SWAP2 POP SWAP1 POP SLOAD DUP2 JUMP JUMPDEST PUSH2 0x2BEF PUSH2 0x3346 JUMP JUMPDEST PUSH20 0xFFFFFFFFFFFFFFFFFFFFFFFFFFFFFFFFFFFFFFFF AND PUSH2 0x2C0D PUSH2 0x1EB7 JUMP JUMPDEST PUSH20 0xFFFFFFFFFFFFFFFFFFFFFFFFFFFFFFFFFFFFFFFF AND EQ PUSH2 0x2C6C JUMPI PUSH2 0x2C30 PUSH2 0x3346 JUMP JUMPDEST PUSH1 0x40 MLOAD PUSH32 0x118CDAA700000000000000000000000000000000000000000000000000000000 DUP2 MSTORE PUSH1 0x4 ADD PUSH2 0x2C63 SWAP2 SWAP1 PUSH2 0x389D JUMP JUMPDEST PUSH1 0x40 MLOAD DUP1 SWAP2 SUB SWAP1 REVERT JUMPDEST JUMP JUMPDEST PUSH32 0x0 PUSH20 0xFFFFFFFFFFFFFFFFFFFFFFFFFFFFFFFFFFFFFFFF AND ADDRESS PUSH20 0xFFFFFFFFFFFFFFFFFFFFFFFFFFFFFFFFFFFFFFFF AND EQ DUP1 PUSH2 0x2D1B JUMPI POP PUSH32 0x0 PUSH20 0xFFFFFFFFFFFFFFFFFFFFFFFFFFFFFFFFFFFFFFFF AND PUSH2 0x2D02 PUSH2 0x334D JUMP JUMPDEST PUSH20 0xFFFFFFFFFFFFFFFFFFFFFFFFFFFFFFFFFFFFFFFF AND EQ ISZERO JUMPDEST ISZERO PUSH2 0x2D52 JUMPI PUSH1 0x40 MLOAD PUSH32 0xE07C8DBA00000000000000000000000000000000000000000000000000000000 DUP2 MSTORE PUSH1 0x4 ADD PUSH1 0x40 MLOAD DUP1 SWAP2 SUB SWAP1 REVERT JUMPDEST JUMP JUMPDEST PUSH2 0x2D5C PUSH2 0x2BE7 JUMP JUMPDEST POP JUMP JUMPDEST DUP2 PUSH20 0xFFFFFFFFFFFFFFFFFFFFFFFFFFFFFFFFFFFFFFFF AND PUSH4 0x52D1902D PUSH1 0x40 MLOAD DUP2 PUSH4 0xFFFFFFFF AND PUSH1 0xE0 SHL DUP2 MSTORE PUSH1 0x4 ADD PUSH1 0x20 PUSH1 0x40 MLOAD DUP1 DUP4 SUB DUP2 DUP7 GAS STATICCALL SWAP3 POP POP POP DUP1 ISZERO PUSH2 0x2DC7 JUMPI POP PUSH1 0x40 MLOAD RETURNDATASIZE PUSH1 0x1F NOT PUSH1 0x1F DUP3 ADD AND DUP3 ADD DUP1 PUSH1 0x40 MSTORE POP DUP2 ADD SWAP1 PUSH2 0x2DC4 SWAP2 SWAP1 PUSH2 0x43E6 JUMP JUMPDEST PUSH1 0x1 JUMPDEST PUSH2 0x2E08 JUMPI DUP2 PUSH1 0x40 MLOAD PUSH32 0x4C9C8CE300000000000000000000000000000000000000000000000000000000 DUP2 MSTORE PUSH1 0x4 ADD PUSH2 0x2DFF SWAP2 SWAP1 PUSH2 0x389D JUMP JUMPDEST PUSH1 0x40 MLOAD DUP1 SWAP2 SUB SWAP1 REVERT JUMPDEST PUSH32 0x360894A13BA1A3210667C828492DB98DCA3E2076CC3735A920A3CA505D382BBC PUSH0 SHL DUP2 EQ PUSH2 0x2E6E JUMPI DUP1 PUSH1 0x40 MLOAD PUSH32 0xAA1D49A400000000000000000000000000000000000000000000000000000000 DUP2 MSTORE PUSH1 0x4 ADD PUSH2 0x2E65 SWAP2 SWAP1 PUSH2 0x3B69 JUMP JUMPDEST PUSH1 0x40 MLOAD DUP1 SWAP2 SUB SWAP1 REVERT JUMPDEST PUSH2 0x2E78 DUP4 DUP4 PUSH2 0x33A0 JUMP JUMPDEST POP POP POP JUMP JUMPDEST PUSH32 0x0 PUSH20 0xFFFFFFFFFFFFFFFFFFFFFFFFFFFFFFFFFFFFFFFF AND ADDRESS PUSH20 0xFFFFFFFFFFFFFFFFFFFFFFFFFFFFFFFFFFFFFFFF AND EQ PUSH2 0x2F02 JUMPI PUSH1 0x40 MLOAD PUSH32 0xE07C8DBA00000000000000000000000000000000000000000000000000000000 DUP2 MSTORE PUSH1 0x4 ADD PUSH1 0x40 MLOAD DUP1 SWAP2 SUB SWAP1 REVERT JUMPDEST JUMP JUMPDEST PUSH0 PUSH2 0x2F0D PUSH2 0x3037 JUMP JUMPDEST SWAP1 POP PUSH0 DUP2 PUSH0 ADD PUSH0 SWAP1 SLOAD SWAP1 PUSH2 0x100 EXP SWAP1 DIV PUSH20 0xFFFFFFFFFFFFFFFFFFFFFFFFFFFFFFFFFFFFFFFF AND SWAP1 POP DUP3 DUP3 PUSH0 ADD PUSH0 PUSH2 0x100 EXP DUP2 SLOAD DUP2 PUSH20 0xFFFFFFFFFFFFFFFFFFFFFFFFFFFFFFFFFFFFFFFF MUL NOT AND SWAP1 DUP4 PUSH20 0xFFFFFFFFFFFFFFFFFFFFFFFFFFFFFFFFFFFFFFFF AND MUL OR SWAP1 SSTORE POP DUP3 PUSH20 0xFFFFFFFFFFFFFFFFFFFFFFFFFFFFFFFFFFFFFFFF AND DUP2 PUSH20 0xFFFFFFFFFFFFFFFFFFFFFFFFFFFFFFFFFFFFFFFF AND PUSH32 0x8BE0079C531659141344CD1FD0A4F28419497F9722A3DAAFE3B4186F6B6457E0 PUSH1 0x40 MLOAD PUSH1 0x40 MLOAD DUP1 SWAP2 SUB SWAP1 LOG3 POP POP POP JUMP JUMPDEST PUSH0 DUP2 PUSH2 0x2710 PUSH2 0x2FE4 SWAP2 SWAP1 PUSH2 0x3E9D JUMP JUMPDEST SWAP1 POP PUSH0 PUSH2 0x2FF1 DUP5 DUP4 PUSH2 0x329B JUMP JUMPDEST SWAP1 POP PUSH0 PUSH2 0x2FFE DUP6 DUP6 PUSH2 0x329B JUMP JUMPDEST SWAP1 POP DUP2 PUSH1 0x2 PUSH0 DUP3 DUP3 SLOAD PUSH2 0x3011 SWAP2 SWAP1 PUSH2 0x3F93 JUMP JUMPDEST SWAP3 POP POP DUP2 SWAP1 SSTORE POP DUP1 PUSH1 0x1 PUSH0 DUP3 DUP3 SLOAD PUSH2 0x3029 SWAP2 SWAP1 PUSH2 0x3F93 JUMP JUMPDEST SWAP3 POP POP DUP2 SWAP1 SSTORE POP POP POP POP POP POP JUMP JUMPDEST PUSH0 PUSH32 0x9016D09D72D40FDAE2FD8CEAC6B6234C7706214FD39C1CD1E609A0528C199300 SWAP1 POP SWAP1 JUMP JUMPDEST PUSH0 PUSH32 0xF0C57E16840DF040F15088DC2F81FE391C3923BEC73E23A9662EFC9C229C6A00 SWAP1 POP SWAP1 JUMP JUMPDEST PUSH2 0x308D PUSH2 0x3412 JUMP JUMPDEST PUSH2 0x3096 DUP2 PUSH2 0x3452 JUMP JUMPDEST POP JUMP JUMPDEST PUSH2 0x30A1 PUSH2 0x3412 JUMP JUMPDEST JUMP JUMPDEST PUSH0 DUP1 PUSH0 DUP1 PUSH2 0x30B5 PUSH1 0x2 SLOAD PUSH2 0x1388 PUSH2 0x329B JUMP JUMPDEST SWAP1 POP PUSH0 PUSH2 0x30C4 DUP3 PUSH1 0x5 SLOAD PUSH2 0x329B JUMP JUMPDEST SWAP1 POP PUSH0 PUSH2 0x30D3 DUP4 PUSH1 0x6 SLOAD PUSH2 0x329B JUMP JUMPDEST SWAP1 POP PUSH0 PUSH2 0x30E2 DUP5 PUSH1 0x7 SLOAD PUSH2 0x329B JUMP JUMPDEST SWAP1 POP PUSH0 PUSH2 0x30F3 PUSH1 0x1 SLOAD PUSH1 0x4 SLOAD PUSH2 0x329B JUMP JUMPDEST SWAP1 POP PUSH0 PUSH1 0x8 SLOAD GT PUSH2 0x3139 JUMPI PUSH1 0x40 MLOAD PUSH32 0x8C379A000000000000000000000000000000000000000000000000000000000 DUP2 MSTORE PUSH1 0x4 ADD PUSH2 0x3130 SWAP1 PUSH2 0x445B JUMP JUMPDEST PUSH1 0x40 MLOAD DUP1 SWAP2 SUB SWAP1 REVERT JUMPDEST PUSH0 PUSH1 0x8 SLOAD DUP3 PUSH2 0x3148 SWAP2 SWAP1 PUSH2 0x4324 JUMP JUMPDEST SWAP1 POP DUP3 DUP5 PUSH2 0x3156 SWAP2 SWAP1 PUSH2 0x3F93 JUMP JUMPDEST PUSH1 0x2 PUSH0 DUP3 DUP3 SLOAD PUSH2 0x3166 SWAP2 SWAP1 PUSH2 0x3E9D JUMP JUMPDEST SWAP3 POP POP DUP2 SWAP1 SSTORE POP DUP4 PUSH1 0x1 PUSH0 DUP3 DUP3 SLOAD PUSH2 0x317E SWAP2 SWAP1 PUSH2 0x3F93 JUMP JUMPDEST SWAP3 POP POP DUP2 SWAP1 SSTORE POP PUSH0 DUP1 PUSH0 SWAP1 SLOAD SWAP1 PUSH2 0x100 EXP SWAP1 DIV PUSH20 0xFFFFFFFFFFFFFFFFFFFFFFFFFFFFFFFFFFFFFFFF AND PUSH20 0xFFFFFFFFFFFFFFFFFFFFFFFFFFFFFFFFFFFFFFFF AND PUSH4 0xA9059CBB PUSH1 0x9 PUSH0 SWAP1 SLOAD SWAP1 PUSH2 0x100 EXP SWAP1 DIV PUSH20 0xFFFFFFFFFFFFFFFFFFFFFFFFFFFFFFFFFFFFFFFF AND DUP7 PUSH1 0x40 MLOAD DUP4 PUSH4 0xFFFFFFFF AND PUSH1 0xE0 SHL DUP2 MSTORE PUSH1 0x4 ADD PUSH2 0x3202 SWAP3 SWAP2 SWAP1 PUSH2 0x406F JUMP JUMPDEST PUSH1 0x20 PUSH1 0x40 MLOAD DUP1 DUP4 SUB DUP2 PUSH0 DUP8 GAS CALL ISZERO DUP1 ISZERO PUSH2 0x321E JUMPI RETURNDATASIZE PUSH0 DUP1 RETURNDATACOPY RETURNDATASIZE PUSH0 REVERT JUMPDEST POP POP POP POP PUSH1 0x40 MLOAD RETURNDATASIZE PUSH1 0x1F NOT PUSH1 0x1F DUP3 ADD AND DUP3 ADD DUP1 PUSH1 0x40 MSTORE POP DUP2 ADD SWAP1 PUSH2 0x3242 SWAP2 SWAP1 PUSH2 0x400F JUMP JUMPDEST SWAP1 POP DUP1 PUSH2 0x3286 JUMPI DUP1 PUSH1 0x40 MLOAD PUSH32 0xD85D3CEF00000000000000000000000000000000000000000000000000000000 DUP2 MSTORE PUSH1 0x4 ADD PUSH2 0x327D SWAP2 SWAP1 PUSH2 0x38D0 JUMP JUMPDEST PUSH1 0x40 MLOAD DUP1 SWAP2 SUB SWAP1 REVERT JUMPDEST DUP7 DUP7 DUP4 SWAP10 POP SWAP10 POP SWAP10 POP POP POP POP POP POP POP POP SWAP1 SWAP2 SWAP3 JUMP JUMPDEST PUSH0 DUP1 DUP4 SUB PUSH2 0x32DE JUMPI PUSH1 0x40 MLOAD PUSH32 0x8C379A000000000000000000000000000000000000000000000000000000000 DUP2 MSTORE PUSH1 0x4 ADD PUSH2 0x32D5 SWAP1 PUSH2 0x44E9 JUMP JUMPDEST PUSH1 0x40 MLOAD DUP1 SWAP2 SUB SWAP1 REVERT JUMPDEST PUSH0 DUP3 SUB PUSH2 0x3320 JUMPI PUSH1 0x40 MLOAD PUSH32 0x8C379A000000000000000000000000000000000000000000000000000000000 DUP2 MSTORE PUSH1 0x4 ADD PUSH2 0x3317 SWAP1 PUSH2 0x44E9 JUMP JUMPDEST PUSH1 0x40 MLOAD DUP1 SWAP2 SUB SWAP1 REVERT JUMPDEST PUSH0 PUSH2 0x2710 DUP4 DUP6 PUSH2 0x3330 SWAP2 SWAP1 PUSH2 0x42B6 JUMP JUMPDEST PUSH2 0x333A SWAP2 SWAP1 PUSH2 0x4324 JUMP JUMPDEST SWAP1 POP DUP1 SWAP2 POP POP SWAP3 SWAP2 POP POP JUMP JUMPDEST PUSH0 CALLER SWAP1 POP SWAP1 JUMP JUMPDEST PUSH0 PUSH2 0x3379 PUSH32 0x360894A13BA1A3210667C828492DB98DCA3E2076CC3735A920A3CA505D382BBC PUSH0 SHL PUSH2 0x34D6 JUMP JUMPDEST PUSH0 ADD PUSH0 SWAP1 SLOAD SWAP1 PUSH2 0x100 EXP SWAP1 DIV PUSH20 0xFFFFFFFFFFFFFFFFFFFFFFFFFFFFFFFFFFFFFFFF AND SWAP1 POP SWAP1 JUMP JUMPDEST PUSH2 0x33A9 DUP3 PUSH2 0x34DF JUMP JUMPDEST DUP2 PUSH20 0xFFFFFFFFFFFFFFFFFFFFFFFFFFFFFFFFFFFFFFFF AND PUSH32 0xBC7CD75A20EE27FD9ADEBAB32041F755214DBC6BFFA90CC0225B39DA2E5C2D3B PUSH1 0x40 MLOAD PUSH1 0x40 MLOAD DUP1 SWAP2 SUB SWAP1 LOG2 PUSH0 DUP2 MLOAD GT ISZERO PUSH2 0x3405 JUMPI PUSH2 0x33FF DUP3 DUP3 PUSH2 0x35A8 JUMP JUMPDEST POP PUSH2 0x340E JUMP JUMPDEST PUSH2 0x340D PUSH2 0x3628 JUMP JUMPDEST JUMPDEST POP POP JUMP JUMPDEST PUSH2 0x341A PUSH2 0x3664 JUMP JUMPDEST PUSH2 0x3450 JUMPI PUSH1 0x40 MLOAD PUSH32 0xD7E6BCF800000000000000000000000000000000000000000000000000000000 DUP2 MSTORE PUSH1 0x4 ADD PUSH1 0x40 MLOAD DUP1 SWAP2 SUB SWAP1 REVERT JUMPDEST JUMP JUMPDEST PUSH2 0x345A PUSH2 0x3412 JUMP JUMPDEST PUSH0 PUSH20 0xFFFFFFFFFFFFFFFFFFFFFFFFFFFFFFFFFFFFFFFF AND DUP2 PUSH20 0xFFFFFFFFFFFFFFFFFFFFFFFFFFFFFFFFFFFFFFFF AND SUB PUSH2 0x34CA JUMPI PUSH0 PUSH1 0x40 MLOAD PUSH32 0x1E4FBDF700000000000000000000000000000000000000000000000000000000 DUP2 MSTORE PUSH1 0x4 ADD PUSH2 0x34C1 SWAP2 SWAP1 PUSH2 0x389D JUMP JUMPDEST PUSH1 0x40 MLOAD DUP1 SWAP2 SUB SWAP1 REVERT JUMPDEST PUSH2 0x34D3 DUP2 PUSH2 0x2F04 JUMP JUMPDEST POP JUMP JUMPDEST PUSH0 DUP2 SWAP1 POP SWAP2 SWAP1 POP JUMP JUMPDEST PUSH0 DUP2 PUSH20 0xFFFFFFFFFFFFFFFFFFFFFFFFFFFFFFFFFFFFFFFF AND EXTCODESIZE SUB PUSH2 0x353A JUMPI DUP1 PUSH1 0x40 MLOAD PUSH32 0x4C9C8CE300000000000000000000000000000000000000000000000000000000 DUP2 MSTORE PUSH1 0x4 ADD PUSH2 0x3531 SWAP2 SWAP1 PUSH2 0x389D JUMP JUMPDEST PUSH1 0x40 MLOAD DUP1 SWAP2 SUB SWAP1 REVERT JUMPDEST DUP1 PUSH2 0x3566 PUSH32 0x360894A13BA1A3210667C828492DB98DCA3E2076CC3735A920A3CA505D382BBC PUSH0 SHL PUSH2 0x34D6 JUMP JUMPDEST PUSH0 ADD PUSH0 PUSH2 0x100 EXP DUP2 SLOAD DUP2 PUSH20 0xFFFFFFFFFFFFFFFFFFFFFFFFFFFFFFFFFFFFFFFF MUL NOT AND SWAP1 DUP4 PUSH20 0xFFFFFFFFFFFFFFFFFFFFFFFFFFFFFFFFFFFFFFFF AND MUL OR SWAP1 SSTORE POP POP JUMP JUMPDEST PUSH1 0x60 PUSH0 DUP1 DUP5 PUSH20 0xFFFFFFFFFFFFFFFFFFFFFFFFFFFFFFFFFFFFFFFF AND DUP5 PUSH1 0x40 MLOAD PUSH2 0x35D1 SWAP2 SWAP1 PUSH2 0x4541 JUMP JUMPDEST PUSH0 PUSH1 0x40 MLOAD DUP1 DUP4 SUB DUP2 DUP6 GAS DELEGATECALL SWAP2 POP POP RETURNDATASIZE DUP1 PUSH0 DUP2 EQ PUSH2 0x3609 JUMPI PUSH1 0x40 MLOAD SWAP2 POP PUSH1 0x1F NOT PUSH1 0x3F RETURNDATASIZE ADD AND DUP3 ADD PUSH1 0x40 MSTORE RETURNDATASIZE DUP3 MSTORE RETURNDATASIZE PUSH0 PUSH1 0x20 DUP5 ADD RETURNDATACOPY PUSH2 0x360E JUMP JUMPDEST PUSH1 0x60 SWAP2 POP JUMPDEST POP SWAP2 POP SWAP2 POP PUSH2 0x361E DUP6 DUP4 DUP4 PUSH2 0x3682 JUMP JUMPDEST SWAP3 POP POP POP SWAP3 SWAP2 POP POP JUMP JUMPDEST PUSH0 CALLVALUE GT ISZERO PUSH2 0x3662 JUMPI PUSH1 0x40 MLOAD PUSH32 0xB398979F00000000000000000000000000000000000000000000000000000000 DUP2 MSTORE PUSH1 0x4 ADD PUSH1 0x40 MLOAD DUP1 SWAP2 SUB SWAP1 REVERT JUMPDEST JUMP JUMPDEST PUSH0 PUSH2 0x366D PUSH2 0x305E JUMP JUMPDEST PUSH0 ADD PUSH1 0x8 SWAP1 SLOAD SWAP1 PUSH2 0x100 EXP SWAP1 DIV PUSH1 0xFF AND SWAP1 POP SWAP1 JUMP JUMPDEST PUSH1 0x60 DUP3 PUSH2 0x3697 JUMPI PUSH2 0x3692 DUP3 PUSH2 0x370F JUMP JUMPDEST PUSH2 0x3707 JUMP JUMPDEST PUSH0 DUP3 MLOAD EQ DUP1 ISZERO PUSH2 0x36BD JUMPI POP PUSH0 DUP5 PUSH20 0xFFFFFFFFFFFFFFFFFFFFFFFFFFFFFFFFFFFFFFFF AND EXTCODESIZE EQ JUMPDEST ISZERO PUSH2 0x36FF JUMPI DUP4 PUSH1 0x40 MLOAD PUSH32 0x9996B31500000000000000000000000000000000000000000000000000000000 DUP2 MSTORE PUSH1 0x4 ADD PUSH2 0x36F6 SWAP2 SWAP1 PUSH2 0x389D JUMP JUMPDEST PUSH1 0x40 MLOAD DUP1 SWAP2 SUB SWAP1 REVERT JUMPDEST DUP2 SWAP1 POP PUSH2 0x3708 JUMP JUMPDEST JUMPDEST SWAP4 SWAP3 POP POP POP JUMP JUMPDEST PUSH0 DUP2 MLOAD GT ISZERO PUSH2 0x3721 JUMPI DUP1 MLOAD DUP1 DUP3 PUSH1 0x20 ADD REVERT JUMPDEST PUSH1 0x40 MLOAD PUSH32 0x1425EA4200000000000000000000000000000000000000000000000000000000 DUP2 MSTORE PUSH1 0x4 ADD PUSH1 0x40 MLOAD DUP1 SWAP2 SUB SWAP1 REVERT JUMPDEST PUSH0 DUP2 SWAP1 POP SWAP2 SWAP1 POP JUMP JUMPDEST PUSH2 0x3765 DUP2 PUSH2 0x3753 JUMP JUMPDEST DUP3 MSTORE POP POP JUMP JUMPDEST PUSH0 PUSH1 0x20 DUP3 ADD SWAP1 POP PUSH2 0x377E PUSH0 DUP4 ADD DUP5 PUSH2 0x375C JUMP JUMPDEST SWAP3 SWAP2 POP POP JUMP JUMPDEST PUSH0 PUSH20 0xFFFFFFFFFFFFFFFFFFFFFFFFFFFFFFFFFFFFFFFF DUP3 AND SWAP1 POP SWAP2 SWAP1 POP JUMP JUMPDEST PUSH0 DUP2 SWAP1 POP SWAP2 SWAP1 POP JUMP JUMPDEST PUSH0 PUSH2 0x37C6 PUSH2 0x37C1 PUSH2 0x37BC DUP5 PUSH2 0x3784 JUMP JUMPDEST PUSH2 0x37A3 JUMP JUMPDEST PUSH2 0x3784 JUMP JUMPDEST SWAP1 POP SWAP2 SWAP1 POP JUMP JUMPDEST PUSH0 PUSH2 0x37D7 DUP3 PUSH2 0x37AC JUMP JUMPDEST SWAP1 POP SWAP2 SWAP1 POP JUMP JUMPDEST PUSH0 PUSH2 0x37E8 DUP3 PUSH2 0x37CD JUMP JUMPDEST SWAP1 POP SWAP2 SWAP1 POP JUMP JUMPDEST PUSH2 0x37F8 DUP2 PUSH2 0x37DE JUMP JUMPDEST DUP3 MSTORE POP POP JUMP JUMPDEST PUSH0 PUSH1 0x20 DUP3 ADD SWAP1 POP PUSH2 0x3811 PUSH0 DUP4 ADD DUP5 PUSH2 0x37EF JUMP JUMPDEST SWAP3 SWAP2 POP POP JUMP JUMPDEST PUSH0 PUSH1 0x40 MLOAD SWAP1 POP SWAP1 JUMP JUMPDEST PUSH0 DUP1 REVERT JUMPDEST PUSH0 DUP1 REVERT JUMPDEST PUSH2 0x3831 DUP2 PUSH2 0x3753 JUMP JUMPDEST DUP2 EQ PUSH2 0x383B JUMPI PUSH0 DUP1 REVERT JUMPDEST POP JUMP JUMPDEST PUSH0 DUP2 CALLDATALOAD SWAP1 POP PUSH2 0x384C DUP2 PUSH2 0x3828 JUMP JUMPDEST SWAP3 SWAP2 POP POP JUMP JUMPDEST PUSH0 PUSH1 0x20 DUP3 DUP5 SUB SLT ISZERO PUSH2 0x3867 JUMPI PUSH2 0x3866 PUSH2 0x3820 JUMP JUMPDEST JUMPDEST PUSH0 PUSH2 0x3874 DUP5 DUP3 DUP6 ADD PUSH2 0x383E JUMP JUMPDEST SWAP2 POP POP SWAP3 SWAP2 POP POP JUMP JUMPDEST PUSH0 PUSH2 0x3887 DUP3 PUSH2 0x3784 JUMP JUMPDEST SWAP1 POP SWAP2 SWAP1 POP JUMP JUMPDEST PUSH2 0x3897 DUP2 PUSH2 0x387D JUMP JUMPDEST DUP3 MSTORE POP POP JUMP JUMPDEST PUSH0 PUSH1 0x20 DUP3 ADD SWAP1 POP PUSH2 0x38B0 PUSH0 DUP4 ADD DUP5 PUSH2 0x388E JUMP JUMPDEST SWAP3 SWAP2 POP POP JUMP JUMPDEST PUSH0 DUP2 ISZERO ISZERO SWAP1 POP SWAP2 SWAP1 POP JUMP JUMPDEST PUSH2 0x38CA DUP2 PUSH2 0x38B6 JUMP JUMPDEST DUP3 MSTORE POP POP JUMP JUMPDEST PUSH0 PUSH1 0x20 DUP3 ADD SWAP1 POP PUSH2 0x38E3 PUSH0 DUP4 ADD DUP5 PUSH2 0x38C1 JUMP JUMPDEST SWAP3 SWAP2 POP POP JUMP JUMPDEST PUSH0 DUP1 REVERT JUMPDEST PUSH0 DUP1 REVERT JUMPDEST PUSH0 DUP1 REVERT JUMPDEST PUSH0 DUP1 DUP4 PUSH1 0x1F DUP5 ADD SLT PUSH2 0x390A JUMPI PUSH2 0x3909 PUSH2 0x38E9 JUMP JUMPDEST JUMPDEST DUP3 CALLDATALOAD SWAP1 POP PUSH8 0xFFFFFFFFFFFFFFFF DUP2 GT ISZERO PUSH2 0x3927 JUMPI PUSH2 0x3926 PUSH2 0x38ED JUMP JUMPDEST JUMPDEST PUSH1 0x20 DUP4 ADD SWAP2 POP DUP4 PUSH1 0x1 DUP3 MUL DUP4 ADD GT ISZERO PUSH2 0x3943 JUMPI PUSH2 0x3942 PUSH2 0x38F1 JUMP JUMPDEST JUMPDEST SWAP3 POP SWAP3 SWAP1 POP JUMP JUMPDEST PUSH0 DUP1 PUSH1 0x20 DUP4 DUP6 SUB SLT ISZERO PUSH2 0x3960 JUMPI PUSH2 0x395F PUSH2 0x3820 JUMP JUMPDEST JUMPDEST PUSH0 DUP4 ADD CALLDATALOAD PUSH8 0xFFFFFFFFFFFFFFFF DUP2 GT ISZERO PUSH2 0x397D JUMPI PUSH2 0x397C PUSH2 0x3824 JUMP JUMPDEST JUMPDEST PUSH2 0x3989 DUP6 DUP3 DUP7 ADD PUSH2 0x38F5 JUMP JUMPDEST SWAP3 POP SWAP3 POP POP SWAP3 POP SWAP3 SWAP1 POP JUMP JUMPDEST PUSH2 0x399E DUP2 PUSH2 0x387D JUMP JUMPDEST DUP2 EQ PUSH2 0x39A8 JUMPI PUSH0 DUP1 REVERT JUMPDEST POP JUMP JUMPDEST PUSH0 DUP2 CALLDATALOAD SWAP1 POP PUSH2 0x39B9 DUP2 PUSH2 0x3995 JUMP JUMPDEST SWAP3 SWAP2 POP POP JUMP JUMPDEST PUSH0 DUP1 REVERT JUMPDEST PUSH0 PUSH1 0x1F NOT PUSH1 0x1F DUP4 ADD AND SWAP1 POP SWAP2 SWAP1 POP JUMP JUMPDEST PUSH32 0x4E487B7100000000000000000000000000000000000000000000000000000000 PUSH0 MSTORE PUSH1 0x41 PUSH1 0x4 MSTORE PUSH1 0x24 PUSH0 REVERT JUMPDEST PUSH2 0x3A09 DUP3 PUSH2 0x39C3 JUMP JUMPDEST DUP2 ADD DUP2 DUP2 LT PUSH8 0xFFFFFFFFFFFFFFFF DUP3 GT OR ISZERO PUSH2 0x3A28 JUMPI PUSH2 0x3A27 PUSH2 0x39D3 JUMP JUMPDEST JUMPDEST DUP1 PUSH1 0x40 MSTORE POP POP POP JUMP JUMPDEST PUSH0 PUSH2 0x3A3A PUSH2 0x3817 JUMP JUMPDEST SWAP1 POP PUSH2 0x3A46 DUP3 DUP3 PUSH2 0x3A00 JUMP JUMPDEST SWAP2 SWAP1 POP JUMP JUMPDEST PUSH0 PUSH8 0xFFFFFFFFFFFFFFFF DUP3 GT ISZERO PUSH2 0x3A65 JUMPI PUSH2 0x3A64 PUSH2 0x39D3 JUMP JUMPDEST JUMPDEST PUSH2 0x3A6E DUP3 PUSH2 0x39C3 JUMP JUMPDEST SWAP1 POP PUSH1 0x20 DUP2 ADD SWAP1 POP SWAP2 SWAP1 POP JUMP JUMPDEST DUP3 DUP2 DUP4 CALLDATACOPY PUSH0 DUP4 DUP4 ADD MSTORE POP POP POP JUMP JUMPDEST PUSH0 PUSH2 0x3A9B PUSH2 0x3A96 DUP5 PUSH2 0x3A4B JUMP JUMPDEST PUSH2 0x3A31 JUMP JUMPDEST SWAP1 POP DUP3 DUP2 MSTORE PUSH1 0x20 DUP2 ADD DUP5 DUP5 DUP5 ADD GT ISZERO PUSH2 0x3AB7 JUMPI PUSH2 0x3AB6 PUSH2 0x39BF JUMP JUMPDEST JUMPDEST PUSH2 0x3AC2 DUP5 DUP3 DUP6 PUSH2 0x3A7B JUMP JUMPDEST POP SWAP4 SWAP3 POP POP POP JUMP JUMPDEST PUSH0 DUP3 PUSH1 0x1F DUP4 ADD SLT PUSH2 0x3ADE JUMPI PUSH2 0x3ADD PUSH2 0x38E9 JUMP JUMPDEST JUMPDEST DUP2 CALLDATALOAD PUSH2 0x3AEE DUP5 DUP3 PUSH1 0x20 DUP7 ADD PUSH2 0x3A89 JUMP JUMPDEST SWAP2 POP POP SWAP3 SWAP2 POP POP JUMP JUMPDEST PUSH0 DUP1 PUSH1 0x40 DUP4 DUP6 SUB SLT ISZERO PUSH2 0x3B0D JUMPI PUSH2 0x3B0C PUSH2 0x3820 JUMP JUMPDEST JUMPDEST PUSH0 PUSH2 0x3B1A DUP6 DUP3 DUP7 ADD PUSH2 0x39AB JUMP JUMPDEST SWAP3 POP POP PUSH1 0x20 DUP4 ADD CALLDATALOAD PUSH8 0xFFFFFFFFFFFFFFFF DUP2 GT ISZERO PUSH2 0x3B3B JUMPI PUSH2 0x3B3A PUSH2 0x3824 JUMP JUMPDEST JUMPDEST PUSH2 0x3B47 DUP6 DUP3 DUP7 ADD PUSH2 0x3ACA JUMP JUMPDEST SWAP2 POP POP SWAP3 POP SWAP3 SWAP1 POP JUMP JUMPDEST PUSH0 DUP2 SWAP1 POP SWAP2 SWAP1 POP JUMP JUMPDEST PUSH2 0x3B63 DUP2 PUSH2 0x3B51 JUMP JUMPDEST DUP3 MSTORE POP POP JUMP JUMPDEST PUSH0 PUSH1 0x20 DUP3 ADD SWAP1 POP PUSH2 0x3B7C PUSH0 DUP4 ADD DUP5 PUSH2 0x3B5A JUMP JUMPDEST SWAP3 SWAP2 POP POP JUMP JUMPDEST PUSH0 DUP1 PUSH1 0x40 DUP4 DUP6 SUB SLT ISZERO PUSH2 0x3B98 JUMPI PUSH2 0x3B97 PUSH2 0x3820 JUMP JUMPDEST JUMPDEST PUSH0 PUSH2 0x3BA5 DUP6 DUP3 DUP7 ADD PUSH2 0x383E JUMP JUMPDEST SWAP3 POP POP PUSH1 0x20 PUSH2 0x3BB6 DUP6 DUP3 DUP7 ADD PUSH2 0x383E JUMP JUMPDEST SWAP2 POP POP SWAP3 POP SWAP3 SWAP1 POP JUMP JUMPDEST PUSH0 DUP2 MLOAD SWAP1 POP SWAP2 SWAP1 POP JUMP JUMPDEST PUSH0 DUP3 DUP3 MSTORE PUSH1 0x20 DUP3 ADD SWAP1 POP SWAP3 SWAP2 POP POP JUMP JUMPDEST DUP3 DUP2 DUP4 MCOPY PUSH0 DUP4 DUP4 ADD MSTORE POP POP POP JUMP JUMPDEST PUSH0 PUSH2 0x3BF2 DUP3 PUSH2 0x3BC0 JUMP JUMPDEST PUSH2 0x3BFC DUP2 DUP6 PUSH2 0x3BCA JUMP JUMPDEST SWAP4 POP PUSH2 0x3C0C DUP2 DUP6 PUSH1 0x20 DUP7 ADD PUSH2 0x3BDA JUMP JUMPDEST PUSH2 0x3C15 DUP2 PUSH2 0x39C3 JUMP JUMPDEST DUP5 ADD SWAP2 POP POP SWAP3 SWAP2 POP POP JUMP JUMPDEST PUSH0 PUSH1 0x40 DUP3 ADD SWAP1 POP PUSH2 0x3C33 PUSH0 DUP4 ADD DUP6 PUSH2 0x38C1 JUMP JUMPDEST DUP2 DUP2 SUB PUSH1 0x20 DUP4 ADD MSTORE PUSH2 0x3C45 DUP2 DUP5 PUSH2 0x3BE8 JUMP JUMPDEST SWAP1 POP SWAP4 SWAP3 POP POP POP JUMP JUMPDEST PUSH0 DUP2 MLOAD SWAP1 POP SWAP2 SWAP1 POP JUMP JUMPDEST PUSH0 DUP3 DUP3 MSTORE PUSH1 0x20 DUP3 ADD SWAP1 POP SWAP3 SWAP2 POP POP JUMP JUMPDEST PUSH0 PUSH2 0x3C72 DUP3 PUSH2 0x3C4E JUMP JUMPDEST PUSH2 0x3C7C DUP2 DUP6 PUSH2 0x3C58 JUMP JUMPDEST SWAP4 POP PUSH2 0x3C8C DUP2 DUP6 PUSH1 0x20 DUP7 ADD PUSH2 0x3BDA JUMP JUMPDEST PUSH2 0x3C95 DUP2 PUSH2 0x39C3 JUMP JUMPDEST DUP5 ADD SWAP2 POP POP SWAP3 SWAP2 POP POP JUMP JUMPDEST PUSH0 PUSH1 0x20 DUP3 ADD SWAP1 POP DUP2 DUP2 SUB PUSH0 DUP4 ADD MSTORE PUSH2 0x3CB8 DUP2 DUP5 PUSH2 0x3C68 JUMP JUMPDEST SWAP1 POP SWAP3 SWAP2 POP POP JUMP JUMPDEST PUSH0 PUSH1 0x20 DUP3 DUP5 SUB SLT ISZERO PUSH2 0x3CD5 JUMPI PUSH2 0x3CD4 PUSH2 0x3820 JUMP JUMPDEST JUMPDEST PUSH0 PUSH2 0x3CE2 DUP5 DUP3 DUP6 ADD PUSH2 0x39AB JUMP JUMPDEST SWAP2 POP POP SWAP3 SWAP2 POP POP JUMP JUMPDEST PUSH0 PUSH1 0xC0 DUP3 ADD SWAP1 POP PUSH2 0x3CFE PUSH0 DUP4 ADD DUP10 PUSH2 0x38C1 JUMP JUMPDEST PUSH2 0x3D0B PUSH1 0x20 DUP4 ADD DUP9 PUSH2 0x375C JUMP JUMPDEST PUSH2 0x3D18 PUSH1 0x40 DUP4 ADD DUP8 PUSH2 0x375C JUMP JUMPDEST PUSH2 0x3D25 PUSH1 0x60 DUP4 ADD DUP7 PUSH2 0x375C JUMP JUMPDEST PUSH2 0x3D32 PUSH1 0x80 DUP4 ADD DUP6 PUSH2 0x375C JUMP JUMPDEST PUSH2 0x3D3F PUSH1 0xA0 DUP4 ADD DUP5 PUSH2 0x375C JUMP JUMPDEST SWAP8 SWAP7 POP POP POP POP POP POP POP JUMP JUMPDEST PUSH0 DUP1 PUSH0 PUSH1 0x60 DUP5 DUP7 SUB SLT ISZERO PUSH2 0x3D61 JUMPI PUSH2 0x3D60 PUSH2 0x3820 JUMP JUMPDEST JUMPDEST PUSH0 PUSH2 0x3D6E DUP7 DUP3 DUP8 ADD PUSH2 0x39AB JUMP JUMPDEST SWAP4 POP POP PUSH1 0x20 PUSH2 0x3D7F DUP7 DUP3 DUP8 ADD PUSH2 0x39AB JUMP JUMPDEST SWAP3 POP POP PUSH1 0x40 PUSH2 0x3D90 DUP7 DUP3 DUP8 ADD PUSH2 0x39AB JUMP JUMPDEST SWAP2 POP POP SWAP3 POP SWAP3 POP SWAP3 JUMP JUMPDEST PUSH2 0x3DA3 DUP2 PUSH2 0x38B6 JUMP JUMPDEST DUP2 EQ PUSH2 0x3DAD JUMPI PUSH0 DUP1 REVERT JUMPDEST POP JUMP JUMPDEST PUSH0 DUP2 CALLDATALOAD SWAP1 POP PUSH2 0x3DBE DUP2 PUSH2 0x3D9A JUMP JUMPDEST SWAP3 SWAP2 POP POP JUMP JUMPDEST PUSH0 DUP1 PUSH1 0x40 DUP4 DUP6 SUB SLT ISZERO PUSH2 0x3DDA JUMPI PUSH2 0x3DD9 PUSH2 0x3820 JUMP JUMPDEST JUMPDEST PUSH0 PUSH2 0x3DE7 DUP6 DUP3 DUP7 ADD PUSH2 0x39AB JUMP JUMPDEST SWAP3 POP POP PUSH1 0x20 PUSH2 0x3DF8 DUP6 DUP3 DUP7 ADD PUSH2 0x3DB0 JUMP JUMPDEST SWAP2 POP POP SWAP3 POP SWAP3 SWAP1 POP JUMP JUMPDEST PUSH32 0x4E487B7100000000000000000000000000000000000000000000000000000000 PUSH0 MSTORE PUSH1 0x11 PUSH1 0x4 MSTORE PUSH1 0x24 PUSH0 REVERT JUMPDEST PUSH0 PUSH2 0x3E39 DUP3 PUSH2 0x3753 JUMP JUMPDEST SWAP2 POP PUSH32 0xFFFFFFFFFFFFFFFFFFFFFFFFFFFFFFFFFFFFFFFFFFFFFFFFFFFFFFFFFFFFFFFF DUP3 SUB PUSH2 0x3E6B JUMPI PUSH2 0x3E6A PUSH2 0x3E02 JUMP JUMPDEST JUMPDEST PUSH1 0x1 DUP3 ADD SWAP1 POP SWAP2 SWAP1 POP JUMP JUMPDEST PUSH0 PUSH2 0x3E80 DUP3 PUSH2 0x3753 JUMP JUMPDEST SWAP2 POP PUSH0 DUP3 SUB PUSH2 0x3E92 JUMPI PUSH2 0x3E91 PUSH2 0x3E02 JUMP JUMPDEST JUMPDEST PUSH1 0x1 DUP3 SUB SWAP1 POP SWAP2 SWAP1 POP JUMP JUMPDEST PUSH0 PUSH2 0x3EA7 DUP3 PUSH2 0x3753 JUMP JUMPDEST SWAP2 POP PUSH2 0x3EB2 DUP4 PUSH2 0x3753 JUMP JUMPDEST SWAP3 POP DUP3 DUP3 SUB SWAP1 POP DUP2 DUP2 GT ISZERO PUSH2 0x3ECA JUMPI PUSH2 0x3EC9 PUSH2 0x3E02 JUMP JUMPDEST JUMPDEST SWAP3 SWAP2 POP POP JUMP JUMPDEST PUSH0 PUSH1 0x60 DUP3 ADD SWAP1 POP PUSH2 0x3EE3 PUSH0 DUP4 ADD DUP7 PUSH2 0x375C JUMP JUMPDEST PUSH2 0x3EF0 PUSH1 0x20 DUP4 ADD DUP6 PUSH2 0x375C JUMP JUMPDEST PUSH2 0x3EFD PUSH1 0x40 DUP4 ADD DUP5 PUSH2 0x375C JUMP JUMPDEST SWAP5 SWAP4 POP POP POP POP JUMP JUMPDEST PUSH32 0x54686973206164647265737320646F6573206E6F742068617665207065726D69 PUSH0 DUP3 ADD MSTORE PUSH32 0x7373696F6E20746F2063616C6C20706572666F726D55706B6565700000000000 PUSH1 0x20 DUP3 ADD MSTORE POP JUMP JUMPDEST PUSH0 PUSH2 0x3F5F PUSH1 0x3B DUP4 PUSH2 0x3C58 JUMP JUMPDEST SWAP2 POP PUSH2 0x3F6A DUP3 PUSH2 0x3F05 JUMP JUMPDEST PUSH1 0x40 DUP3 ADD SWAP1 POP SWAP2 SWAP1 POP JUMP JUMPDEST PUSH0 PUSH1 0x20 DUP3 ADD SWAP1 POP DUP2 DUP2 SUB PUSH0 DUP4 ADD MSTORE PUSH2 0x3F8C DUP2 PUSH2 0x3F53 JUMP JUMPDEST SWAP1 POP SWAP2 SWAP1 POP JUMP JUMPDEST PUSH0 PUSH2 0x3F9D DUP3 PUSH2 0x3753 JUMP JUMPDEST SWAP2 POP PUSH2 0x3FA8 DUP4 PUSH2 0x3753 JUMP JUMPDEST SWAP3 POP DUP3 DUP3 ADD SWAP1 POP DUP1 DUP3 GT ISZERO PUSH2 0x3FC0 JUMPI PUSH2 0x3FBF PUSH2 0x3E02 JUMP JUMPDEST JUMPDEST SWAP3 SWAP2 POP POP JUMP JUMPDEST PUSH0 PUSH1 0x60 DUP3 ADD SWAP1 POP PUSH2 0x3FD9 PUSH0 DUP4 ADD DUP7 PUSH2 0x388E JUMP JUMPDEST PUSH2 0x3FE6 PUSH1 0x20 DUP4 ADD DUP6 PUSH2 0x388E JUMP JUMPDEST PUSH2 0x3FF3 PUSH1 0x40 DUP4 ADD DUP5 PUSH2 0x375C JUMP JUMPDEST SWAP5 SWAP4 POP POP POP POP JUMP JUMPDEST PUSH0 DUP2 MLOAD SWAP1 POP PUSH2 0x4009 DUP2 PUSH2 0x3D9A JUMP JUMPDEST SWAP3 SWAP2 POP POP JUMP JUMPDEST PUSH0 PUSH1 0x20 DUP3 DUP5 SUB SLT ISZERO PUSH2 0x4024 JUMPI PUSH2 0x4023 PUSH2 0x3820 JUMP JUMPDEST JUMPDEST PUSH0 PUSH2 0x4031 DUP5 DUP3 DUP6 ADD PUSH2 0x3FFB JUMP JUMPDEST SWAP2 POP POP SWAP3 SWAP2 POP POP JUMP JUMPDEST PUSH0 PUSH1 0x60 DUP3 ADD SWAP1 POP PUSH2 0x404D PUSH0 DUP4 ADD DUP7 PUSH2 0x388E JUMP JUMPDEST PUSH2 0x405A PUSH1 0x20 DUP4 ADD DUP6 PUSH2 0x375C JUMP JUMPDEST PUSH2 0x4067 PUSH1 0x40 DUP4 ADD DUP5 PUSH2 0x375C JUMP JUMPDEST SWAP5 SWAP4 POP POP POP POP JUMP JUMPDEST PUSH0 PUSH1 0x40 DUP3 ADD SWAP1 POP PUSH2 0x4082 PUSH0 DUP4 ADD DUP6 PUSH2 0x388E JUMP JUMPDEST PUSH2 0x408F PUSH1 0x20 DUP4 ADD DUP5 PUSH2 0x375C JUMP JUMPDEST SWAP4 SWAP3 POP POP POP JUMP JUMPDEST PUSH32 0x5265656E7472616E637947756172643A207265656E7472616E742063616C6C00 PUSH0 DUP3 ADD MSTORE POP JUMP JUMPDEST PUSH0 PUSH2 0x40CA PUSH1 0x1F DUP4 PUSH2 0x3C58 JUMP JUMPDEST SWAP2 POP PUSH2 0x40D5 DUP3 PUSH2 0x4096 JUMP JUMPDEST PUSH1 0x20 DUP3 ADD SWAP1 POP SWAP2 SWAP1 POP JUMP JUMPDEST PUSH0 PUSH1 0x20 DUP3 ADD SWAP1 POP DUP2 DUP2 SUB PUSH0 DUP4 ADD MSTORE PUSH2 0x40F7 DUP2 PUSH2 0x40BE JUMP JUMPDEST SWAP1 POP SWAP2 SWAP1 POP JUMP JUMPDEST PUSH32 0x696E76616C6964205F616D6F756E742100000000000000000000000000000000 PUSH0 DUP3 ADD MSTORE POP JUMP JUMPDEST PUSH0 PUSH2 0x4132 PUSH1 0x10 DUP4 PUSH2 0x3C58 JUMP JUMPDEST SWAP2 POP PUSH2 0x413D DUP3 PUSH2 0x40FE JUMP JUMPDEST PUSH1 0x20 DUP3 ADD SWAP1 POP SWAP2 SWAP1 POP JUMP JUMPDEST PUSH0 PUSH1 0x20 DUP3 ADD SWAP1 POP DUP2 DUP2 SUB PUSH0 DUP4 ADD MSTORE PUSH2 0x415F DUP2 PUSH2 0x4126 JUMP JUMPDEST SWAP1 POP SWAP2 SWAP1 POP JUMP JUMPDEST PUSH0 PUSH1 0x40 DUP3 ADD SWAP1 POP PUSH2 0x4179 PUSH0 DUP4 ADD DUP6 PUSH2 0x375C JUMP JUMPDEST PUSH2 0x4186 PUSH1 0x20 DUP4 ADD DUP5 PUSH2 0x375C JUMP JUMPDEST SWAP4 SWAP3 POP POP POP JUMP JUMPDEST PUSH0 DUP2 SWAP1 POP SWAP2 SWAP1 POP JUMP JUMPDEST PUSH0 PUSH8 0xFFFFFFFFFFFFFFFF DUP3 AND SWAP1 POP SWAP2 SWAP1 POP JUMP JUMPDEST PUSH0 PUSH2 0x41C3 PUSH2 0x41BE PUSH2 0x41B9 DUP5 PUSH2 0x418D JUMP JUMPDEST PUSH2 0x37A3 JUMP JUMPDEST PUSH2 0x4196 JUMP JUMPDEST SWAP1 POP SWAP2 SWAP1 POP JUMP JUMPDEST PUSH2 0x41D3 DUP2 PUSH2 0x41A9 JUMP JUMPDEST DUP3 MSTORE POP POP JUMP JUMPDEST PUSH0 PUSH1 0x20 DUP3 ADD SWAP1 POP PUSH2 0x41EC PUSH0 DUP4 ADD DUP5 PUSH2 0x41CA JUMP JUMPDEST SWAP3 SWAP2 POP POP JUMP JUMPDEST PUSH0 PUSH1 0x40 DUP3 ADD SWAP1 POP PUSH2 0x4205 PUSH0 DUP4 ADD DUP6 PUSH2 0x388E JUMP JUMPDEST PUSH2 0x4212 PUSH1 0x20 DUP4 ADD DUP5 PUSH2 0x388E JUMP JUMPDEST SWAP4 SWAP3 POP POP POP JUMP JUMPDEST PUSH0 PUSH1 0x60 DUP3 ADD SWAP1 POP PUSH2 0x422C PUSH0 DUP4 ADD DUP7 PUSH2 0x388E JUMP JUMPDEST PUSH2 0x4239 PUSH1 0x20 DUP4 ADD DUP6 PUSH2 0x388E JUMP JUMPDEST PUSH2 0x4246 PUSH1 0x40 DUP4 ADD DUP5 PUSH2 0x38C1 JUMP JUMPDEST SWAP5 SWAP4 POP POP POP POP JUMP JUMPDEST PUSH32 0x6E6F7420656E6F75676820616D6F756E74000000000000000000000000000000 PUSH0 DUP3 ADD MSTORE POP JUMP JUMPDEST PUSH0 PUSH2 0x4282 PUSH1 0x11 DUP4 PUSH2 0x3C58 JUMP JUMPDEST SWAP2 POP PUSH2 0x428D DUP3 PUSH2 0x424E JUMP JUMPDEST PUSH1 0x20 DUP3 ADD SWAP1 POP SWAP2 SWAP1 POP JUMP JUMPDEST PUSH0 PUSH1 0x20 DUP3 ADD SWAP1 POP DUP2 DUP2 SUB PUSH0 DUP4 ADD MSTORE PUSH2 0x42AF DUP2 PUSH2 0x4276 JUMP JUMPDEST SWAP1 POP SWAP2 SWAP1 POP JUMP JUMPDEST PUSH0 PUSH2 0x42C0 DUP3 PUSH2 0x3753 JUMP JUMPDEST SWAP2 POP PUSH2 0x42CB DUP4 PUSH2 0x3753 JUMP JUMPDEST SWAP3 POP DUP3 DUP3 MUL PUSH2 0x42D9 DUP2 PUSH2 0x3753 JUMP JUMPDEST SWAP2 POP DUP3 DUP3 DIV DUP5 EQ DUP4 ISZERO OR PUSH2 0x42F0 JUMPI PUSH2 0x42EF PUSH2 0x3E02 JUMP JUMPDEST JUMPDEST POP SWAP3 SWAP2 POP POP JUMP JUMPDEST PUSH32 0x4E487B7100000000000000000000000000000000000000000000000000000000 PUSH0 MSTORE PUSH1 0x12 PUSH1 0x4 MSTORE PUSH1 0x24 PUSH0 REVERT JUMPDEST PUSH0 PUSH2 0x432E DUP3 PUSH2 0x3753 JUMP JUMPDEST SWAP2 POP PUSH2 0x4339 DUP4 PUSH2 0x3753 JUMP JUMPDEST SWAP3 POP DUP3 PUSH2 0x4349 JUMPI PUSH2 0x4348 PUSH2 0x42F7 JUMP JUMPDEST JUMPDEST DUP3 DUP3 DIV SWAP1 POP SWAP3 SWAP2 POP POP JUMP JUMPDEST PUSH32 0x416D6F756E742069732067726561746572207468656E20353025000000000000 PUSH0 DUP3 ADD MSTORE POP JUMP JUMPDEST PUSH0 PUSH2 0x4388 PUSH1 0x1A DUP4 PUSH2 0x3C58 JUMP JUMPDEST SWAP2 POP PUSH2 0x4393 DUP3 PUSH2 0x4354 JUMP JUMPDEST PUSH1 0x20 DUP3 ADD SWAP1 POP SWAP2 SWAP1 POP JUMP JUMPDEST PUSH0 PUSH1 0x20 DUP3 ADD SWAP1 POP DUP2 DUP2 SUB PUSH0 DUP4 ADD MSTORE PUSH2 0x43B5 DUP2 PUSH2 0x437C JUMP JUMPDEST SWAP1 POP SWAP2 SWAP1 POP JUMP JUMPDEST PUSH2 0x43C5 DUP2 PUSH2 0x3B51 JUMP JUMPDEST DUP2 EQ PUSH2 0x43CF JUMPI PUSH0 DUP1 REVERT JUMPDEST POP JUMP JUMPDEST PUSH0 DUP2 MLOAD SWAP1 POP PUSH2 0x43E0 DUP2 PUSH2 0x43BC JUMP JUMPDEST SWAP3 SWAP2 POP POP JUMP JUMPDEST PUSH0 PUSH1 0x20 DUP3 DUP5 SUB SLT ISZERO PUSH2 0x43FB JUMPI PUSH2 0x43FA PUSH2 0x3820 JUMP JUMPDEST JUMPDEST PUSH0 PUSH2 0x4408 DUP5 DUP3 DUP6 ADD PUSH2 0x43D2 JUMP JUMPDEST SWAP2 POP POP SWAP3 SWAP2 POP POP JUMP JUMPDEST PUSH32 0x6E6F207573657273210000000000000000000000000000000000000000000000 PUSH0 DUP3 ADD MSTORE POP JUMP JUMPDEST PUSH0 PUSH2 0x4445 PUSH1 0x9 DUP4 PUSH2 0x3C58 JUMP JUMPDEST SWAP2 POP PUSH2 0x4450 DUP3 PUSH2 0x4411 JUMP JUMPDEST PUSH1 0x20 DUP3 ADD SWAP1 POP SWAP2 SWAP1 POP JUMP JUMPDEST PUSH0 PUSH1 0x20 DUP3 ADD SWAP1 POP DUP2 DUP2 SUB PUSH0 DUP4 ADD MSTORE PUSH2 0x4472 DUP2 PUSH2 0x4439 JUMP JUMPDEST SWAP1 POP SWAP2 SWAP1 POP JUMP JUMPDEST PUSH32 0x5F746F74616C5374616B65416D6F756E742063616E206E6F74206265207A6572 PUSH0 DUP3 ADD MSTORE PUSH32 0x6F00000000000000000000000000000000000000000000000000000000000000 PUSH1 0x20 DUP3 ADD MSTORE POP JUMP JUMPDEST PUSH0 PUSH2 0x44D3 PUSH1 0x21 DUP4 PUSH2 0x3C58 JUMP JUMPDEST SWAP2 POP PUSH2 0x44DE DUP3 PUSH2 0x4479 JUMP JUMPDEST PUSH1 0x40 DUP3 ADD SWAP1 POP SWAP2 SWAP1 POP JUMP JUMPDEST PUSH0 PUSH1 0x20 DUP3 ADD SWAP1 POP DUP2 DUP2 SUB PUSH0 DUP4 ADD MSTORE PUSH2 0x4500 DUP2 PUSH2 0x44C7 JUMP JUMPDEST SWAP1 POP SWAP2 SWAP1 POP JUMP JUMPDEST PUSH0 DUP2 SWAP1 POP SWAP3 SWAP2 POP POP JUMP JUMPDEST PUSH0 PUSH2 0x451B DUP3 PUSH2 0x3BC0 JUMP JUMPDEST PUSH2 0x4525 DUP2 DUP6 PUSH2 0x4507 JUMP JUMPDEST SWAP4 POP PUSH2 0x4535 DUP2 DUP6 PUSH1 0x20 DUP7 ADD PUSH2 0x3BDA JUMP JUMPDEST DUP1 DUP5 ADD SWAP2 POP POP SWAP3 SWAP2 POP POP JUMP JUMPDEST PUSH0 PUSH2 0x454C DUP3 DUP5 PUSH2 0x4511 JUMP JUMPDEST SWAP2 POP DUP2 SWAP1 POP SWAP3 SWAP2 POP POP JUMP INVALID LOG2 PUSH5 0x6970667358 0x22 SLT KECCAK256 RETURN PUSH2 0x50C7 0xFB MSTORE8 DUP12 PUSH24 0xD53823601C8489E67D6E39B440BCBACE7DAE24BF482151B9 PUSH5 0x736F6C6343 STOP ADDMOD BYTE STOP CALLER "
		},
		"gasEstimates": {
			"creation": {
				"codeDepositCost": "3561000",
				"executionCost": "infinite",
				"totalCost": "infinite"
			},
			"external": {
				"UPGRADE_INTERFACE_VERSION()": "infinite",
				"addFunds(uint256,uint256)": "infinite",
				"addOwnership(uint256)": "infinite",
				"addProjects(uint256)": "infinite",
				"addTreasuery(uint256)": "infinite",
				"alreadyAdded(address)": "2966",
				"blockUser(address,bool)": "infinite",
				"checkOnce()": "2563",
				"checkUpkeep(bytes)": "infinite",
				"flowToTreasuryPercentage()": "2580",
				"initialize(address,address,address)": "infinite",
				"interval()": "2492",
				"lastTimeStamp()": "2559",
				"maintainceFeePercentage()": "2537",
				"multisigAddress()": "2642",
				"noOfUsers()": "2472",
				"odividentPayoutPercentage()": "2581",
				"off()": "infinite",
				"owner()": "2612",
				"ownerShipPoolAmount()": "2470",
				"performUpkeep(bytes)": "infinite",
				"proxiableUUID()": "infinite",
				"reStakeTokens(uint256)": "infinite",
				"renounceOwnership()": "infinite",
				"s_forwarderAddress()": "2643",
				"setForwarderAddress(address)": "infinite",
				"setInterval(uint256,uint256)": "infinite",
				"setTeasueryPercentages(uint256,uint256)": "infinite",
				"setflowToTreasuryPercentage(uint256)": "infinite",
				"setmaintainceFeePercentage(uint256)": "infinite",
				"setodividentPayoutPercentage(uint256)": "infinite",
				"settdividentPayoutPercentage(uint256)": "infinite",
				"stakeTokens(uint256)": "infinite",
				"startingTime()": "2515",
				"tPPercentages(uint256)": "infinite",
				"tdividentPayoutPercentage()": "2493",
				"totalProjects()": "2514",
				"totalStakedAmount()": "2581",
				"totalUsers(uint256)": "2938",
				"transferOwnership(address)": "infinite",
				"treasuryPoolAmount()": "2516",
				"upgradeToAndCall(address,bytes)": "infinite",
				"usdcToken()": "infinite",
				"userRegistered(address)": "infinite",
				"userWithdrawAmoount(uint256)": "infinite",
				"weeklyTransfer()": "infinite"
			},
			"internal": {
				"_authorizeUpgrade(address)": "infinite",
				"calculateFees(uint256,uint256)": "infinite",
				"calculatePercentage(uint256,uint256)": "infinite",
				"perPoolCalculation()": "infinite"
			}
		},
		"methodIdentifiers": {
			"UPGRADE_INTERFACE_VERSION()": "ad3cb1cc",
			"addFunds(uint256,uint256)": "85f45250",
			"addOwnership(uint256)": "78fd078d",
			"addProjects(uint256)": "2765df7a",
			"addTreasuery(uint256)": "5256dbbf",
			"alreadyAdded(address)": "c7fd5bf0",
			"blockUser(address,bool)": "d9b998b4",
			"checkOnce()": "30e3f8f8",
			"checkUpkeep(bytes)": "6e04ff0d",
			"flowToTreasuryPercentage()": "ce356a24",
			"initialize(address,address,address)": "c0c53b8b",
			"interval()": "947a36fb",
			"lastTimeStamp()": "3f3b3b27",
			"maintainceFeePercentage()": "3a71a9e4",
			"multisigAddress()": "5462870d",
			"noOfUsers()": "01934a83",
			"odividentPayoutPercentage()": "44490ff4",
			"off()": "6626b26d",
			"owner()": "8da5cb5b",
			"ownerShipPoolAmount()": "b47ff951",
			"performUpkeep(bytes)": "4585e33b",
			"proxiableUUID()": "52d1902d",
			"reStakeTokens(uint256)": "7ffe4d93",
			"renounceOwnership()": "715018a6",
			"s_forwarderAddress()": "3070fbf8",
			"setForwarderAddress(address)": "d777cc6d",
			"setInterval(uint256,uint256)": "5f17e616",
			"setTeasueryPercentages(uint256,uint256)": "ed061067",
			"setflowToTreasuryPercentage(uint256)": "ad8e5ec4",
			"setmaintainceFeePercentage(uint256)": "7f111e60",
			"setodividentPayoutPercentage(uint256)": "b9dac1eb",
			"settdividentPayoutPercentage(uint256)": "7f70c5e7",
			"stakeTokens(uint256)": "7547c7a3",
			"startingTime()": "39518b5e",
			"tPPercentages(uint256)": "ff3d65d9",
			"tdividentPayoutPercentage()": "33244c2c",
			"totalProjects()": "9c361e4e",
			"totalStakedAmount()": "567e98f9",
			"totalUsers(uint256)": "a4f67b8b",
			"transferOwnership(address)": "f2fde38b",
			"treasuryPoolAmount()": "188e07b9",
			"upgradeToAndCall(address,bytes)": "4f1ef286",
			"usdcToken()": "11eac855",
			"userRegistered(address)": "bccbc36c",
			"userWithdrawAmoount(uint256)": "67976974",
			"weeklyTransfer()": "e9c68e2c"
		}
	},
	"abi": [
		{
			"inputs": [],
			"stateMutability": "nonpayable",
			"type": "constructor"
		},
		{
			"inputs": [
				{
					"internalType": "address",
					"name": "target",
					"type": "address"
				}
			],
			"name": "AddressEmptyCode",
			"type": "error"
		},
		{
			"inputs": [
				{
					"internalType": "address",
					"name": "implementation",
					"type": "address"
				}
			],
			"name": "ERC1967InvalidImplementation",
			"type": "error"
		},
		{
			"inputs": [],
			"name": "ERC1967NonPayable",
			"type": "error"
		},
		{
			"inputs": [],
			"name": "FailedInnerCall",
			"type": "error"
		},
		{
			"inputs": [],
			"name": "InvalidInitialization",
			"type": "error"
		},
		{
			"inputs": [],
			"name": "NotInitializing",
			"type": "error"
		},
		{
			"inputs": [
				{
					"internalType": "address",
					"name": "owner",
					"type": "address"
				}
			],
			"name": "OwnableInvalidOwner",
			"type": "error"
		},
		{
			"inputs": [
				{
					"internalType": "address",
					"name": "account",
					"type": "address"
				}
			],
			"name": "OwnableUnauthorizedAccount",
			"type": "error"
		},
		{
			"inputs": [],
			"name": "UUPSUnauthorizedCallContext",
			"type": "error"
		},
		{
			"inputs": [
				{
					"internalType": "bytes32",
					"name": "slot",
					"type": "bytes32"
				}
			],
			"name": "UUPSUnsupportedProxiableUUID",
			"type": "error"
		},
		{
			"inputs": [
				{
					"internalType": "uint256",
					"name": "amount",
					"type": "uint256"
				}
			],
			"name": "notEnoughBalance",
			"type": "error"
		},
		{
			"inputs": [
				{
					"internalType": "bool",
					"name": "transfered",
					"type": "bool"
				}
			],
			"name": "transferFailed",
			"type": "error"
		},
		{
			"inputs": [
				{
					"internalType": "bool",
					"name": "blocked",
					"type": "bool"
				}
			],
			"name": "userBlocked",
			"type": "error"
		},
		{
			"inputs": [
				{
					"internalType": "address",
					"name": "wrongAddress",
					"type": "address"
				}
			],
			"name": "wrongAddress",
			"type": "error"
		},
		{
			"inputs": [
				{
					"internalType": "uint256",
					"name": "amount",
					"type": "uint256"
				}
			],
			"name": "wrongAmount",
			"type": "error"
		},
		{
			"inputs": [
				{
					"internalType": "uint256",
					"name": "updateInterval",
					"type": "uint256"
				}
			],
			"name": "wrongInterval",
			"type": "error"
		},
		{
			"inputs": [
				{
					"internalType": "address",
					"name": "owner",
					"type": "address"
				}
			],
			"name": "wrongOwner",
			"type": "error"
		},
		{
			"inputs": [
				{
					"internalType": "uint256",
					"name": "percentage",
					"type": "uint256"
				}
			],
			"name": "wrongPercentage",
			"type": "error"
		},
		{
			"inputs": [
				{
					"internalType": "uint256",
					"name": "projectNO",
					"type": "uint256"
				}
			],
			"name": "wrongProjectNo",
			"type": "error"
		},
		{
			"inputs": [
				{
					"internalType": "uint256",
					"name": "time",
					"type": "uint256"
				}
			],
			"name": "wrongTime",
			"type": "error"
		},
		{
			"inputs": [
				{
					"internalType": "bool",
					"name": "value",
					"type": "bool"
				}
			],
			"name": "wrongValue",
			"type": "error"
		},
		{
			"anonymous": false,
			"inputs": [
				{
					"indexed": false,
					"internalType": "uint256",
					"name": "_amount",
					"type": "uint256"
				},
				{
					"indexed": false,
					"internalType": "uint256",
					"name": "_projectNo",
					"type": "uint256"
				}
			],
			"name": "AddFunds",
			"type": "event"
		},
		{
			"anonymous": false,
			"inputs": [
				{
					"indexed": false,
					"internalType": "uint256",
					"name": "_ownerShipPoolAmount",
					"type": "uint256"
				}
			],
			"name": "AddOwnership",
			"type": "event"
		},
		{
			"anonymous": false,
			"inputs": [
				{
					"indexed": false,
					"internalType": "uint256",
					"name": "projectId",
					"type": "uint256"
				},
				{
					"indexed": false,
					"internalType": "uint256",
					"name": "OpPercentage",
					"type": "uint256"
				},
				{
					"indexed": false,
					"internalType": "uint256",
					"name": "tpPercentage",
					"type": "uint256"
				}
			],
			"name": "AddProject",
			"type": "event"
		},
		{
			"anonymous": false,
			"inputs": [
				{
					"indexed": false,
					"internalType": "uint256",
					"name": "_treasuryPoolAmount",
					"type": "uint256"
				}
			],
			"name": "AddTreasuery",
			"type": "event"
		},
		{
			"anonymous": false,
			"inputs": [
				{
					"indexed": false,
					"internalType": "uint64",
					"name": "version",
					"type": "uint64"
				}
			],
			"name": "Initialized",
			"type": "event"
		},
		{
			"anonymous": false,
			"inputs": [
				{
					"indexed": true,
					"internalType": "address",
					"name": "previousOwner",
					"type": "address"
				},
				{
					"indexed": true,
					"internalType": "address",
					"name": "newOwner",
					"type": "address"
				}
			],
			"name": "OwnershipTransferred",
			"type": "event"
		},
		{
			"anonymous": false,
			"inputs": [
				{
					"indexed": false,
					"internalType": "address",
					"name": "_owner",
					"type": "address"
				},
				{
					"indexed": false,
					"internalType": "uint256",
					"name": "_newPercentage",
					"type": "uint256"
				}
			],
			"name": "PercentageChanged",
			"type": "event"
		},
		{
			"anonymous": false,
			"inputs": [
				{
					"indexed": false,
					"internalType": "address",
					"name": "_owner",
					"type": "address"
				},
				{
					"indexed": false,
					"internalType": "address",
					"name": "_s_forwarderAddress",
					"type": "address"
				}
			],
			"name": "SetForwarderAddress",
			"type": "event"
		},
		{
			"anonymous": false,
			"inputs": [
				{
					"indexed": false,
					"internalType": "address",
					"name": "_owner",
					"type": "address"
				},
				{
					"indexed": false,
					"internalType": "uint256",
					"name": "_interval",
					"type": "uint256"
				},
				{
					"indexed": false,
					"internalType": "uint256",
					"name": "_lastTimeStamp",
					"type": "uint256"
				}
			],
			"name": "SetInterval",
			"type": "event"
		},
		{
			"anonymous": false,
			"inputs": [
				{
					"indexed": false,
					"internalType": "address",
					"name": "sender",
					"type": "address"
				},
				{
					"indexed": false,
					"internalType": "address",
					"name": "recepient",
					"type": "address"
				},
				{
					"indexed": false,
					"internalType": "uint256",
					"name": "usdcAmount",
					"type": "uint256"
				}
			],
			"name": "StakeTokens",
			"type": "event"
		},
		{
			"anonymous": false,
			"inputs": [
				{
					"indexed": true,
					"internalType": "address",
					"name": "implementation",
					"type": "address"
				}
			],
			"name": "Upgraded",
			"type": "event"
		},
		{
			"anonymous": false,
			"inputs": [
				{
					"indexed": false,
					"internalType": "address",
					"name": "owner",
					"type": "address"
				},
				{
					"indexed": false,
					"internalType": "address",
					"name": "blockUserAddress",
					"type": "address"
				},
				{
					"indexed": false,
					"internalType": "bool",
					"name": "blocked",
					"type": "bool"
				}
			],
			"name": "UserBlocked",
			"type": "event"
		},
		{
			"anonymous": false,
			"inputs": [
				{
					"indexed": false,
					"internalType": "address",
					"name": "caller",
					"type": "address"
				},
				{
					"indexed": false,
					"internalType": "uint256",
					"name": "ownerShipPoolAmount",
					"type": "uint256"
				},
				{
					"indexed": false,
					"internalType": "uint256",
					"name": "treasuryPoolAmount",
					"type": "uint256"
				}
			],
			"name": "WeeklyTransfered",
			"type": "event"
		},
		{
			"anonymous": false,
			"inputs": [
				{
					"indexed": false,
					"internalType": "address",
					"name": "recipient",
					"type": "address"
				},
				{
					"indexed": false,
					"internalType": "uint256",
					"name": "usdcAmount",
					"type": "uint256"
				}
			],
			"name": "Withdraw",
			"type": "event"
		},
		{
			"anonymous": false,
			"inputs": [
				{
					"indexed": false,
					"internalType": "address",
					"name": "_owner",
					"type": "address"
				},
				{
					"indexed": false,
					"internalType": "uint256",
					"name": "_interval",
					"type": "uint256"
				}
			],
			"name": "offInterval",
			"type": "event"
		},
		{
			"inputs": [],
			"name": "UPGRADE_INTERFACE_VERSION",
			"outputs": [
				{
					"internalType": "string",
					"name": "",
					"type": "string"
				}
			],
			"stateMutability": "view",
			"type": "function"
		},
		{
			"inputs": [
				{
					"internalType": "uint256",
					"name": "_amount",
					"type": "uint256"
				},
				{
					"internalType": "uint256",
					"name": "_projectNo",
					"type": "uint256"
				}
			],
			"name": "addFunds",
			"outputs": [],
			"stateMutability": "nonpayable",
			"type": "function"
		},
		{
			"inputs": [
				{
					"internalType": "uint256",
					"name": "_amount",
					"type": "uint256"
				}
			],
			"name": "addOwnership",
			"outputs": [],
			"stateMutability": "nonpayable",
			"type": "function"
		},
		{
			"inputs": [
				{
					"internalType": "uint256",
					"name": "_tPPercentage",
					"type": "uint256"
				}
			],
			"name": "addProjects",
			"outputs": [],
			"stateMutability": "nonpayable",
			"type": "function"
		},
		{
			"inputs": [
				{
					"internalType": "uint256",
					"name": "_amount",
					"type": "uint256"
				}
			],
			"name": "addTreasuery",
			"outputs": [],
			"stateMutability": "nonpayable",
			"type": "function"
		},
		{
			"inputs": [
				{
					"internalType": "address",
					"name": "",
					"type": "address"
				}
			],
			"name": "alreadyAdded",
			"outputs": [
				{
					"internalType": "bool",
					"name": "",
					"type": "bool"
				}
			],
			"stateMutability": "view",
			"type": "function"
		},
		{
			"inputs": [
				{
					"internalType": "address",
					"name": "_userAddress",
					"type": "address"
				},
				{
					"internalType": "bool",
					"name": "value",
					"type": "bool"
				}
			],
			"name": "blockUser",
			"outputs": [],
			"stateMutability": "nonpayable",
			"type": "function"
		},
		{
			"inputs": [],
			"name": "checkOnce",
			"outputs": [
				{
					"internalType": "bool",
					"name": "",
					"type": "bool"
				}
			],
			"stateMutability": "view",
			"type": "function"
		},
		{
			"inputs": [
				{
					"internalType": "bytes",
					"name": "",
					"type": "bytes"
				}
			],
			"name": "checkUpkeep",
			"outputs": [
				{
					"internalType": "bool",
					"name": "",
					"type": "bool"
				},
				{
					"internalType": "bytes",
					"name": "",
					"type": "bytes"
				}
			],
			"stateMutability": "view",
			"type": "function"
		},
		{
			"inputs": [],
			"name": "flowToTreasuryPercentage",
			"outputs": [
				{
					"internalType": "uint256",
					"name": "",
					"type": "uint256"
				}
			],
			"stateMutability": "view",
			"type": "function"
		},
		{
			"inputs": [
				{
					"internalType": "address",
					"name": "initialOwner",
					"type": "address"
				},
				{
					"internalType": "address",
					"name": "_usdcAddress",
					"type": "address"
				},
				{
					"internalType": "address",
					"name": "_multisigAddress",
					"type": "address"
				}
			],
			"name": "initialize",
			"outputs": [],
			"stateMutability": "nonpayable",
			"type": "function"
		},
		{
			"inputs": [],
			"name": "interval",
			"outputs": [
				{
					"internalType": "uint256",
					"name": "",
					"type": "uint256"
				}
			],
			"stateMutability": "view",
			"type": "function"
		},
		{
			"inputs": [],
			"name": "lastTimeStamp",
			"outputs": [
				{
					"internalType": "uint256",
					"name": "",
					"type": "uint256"
				}
			],
			"stateMutability": "view",
			"type": "function"
		},
		{
			"inputs": [],
			"name": "maintainceFeePercentage",
			"outputs": [
				{
					"internalType": "uint256",
					"name": "",
					"type": "uint256"
				}
			],
			"stateMutability": "view",
			"type": "function"
		},
		{
			"inputs": [],
			"name": "multisigAddress",
			"outputs": [
				{
					"internalType": "address",
					"name": "",
					"type": "address"
				}
			],
			"stateMutability": "view",
			"type": "function"
		},
		{
			"inputs": [],
			"name": "noOfUsers",
			"outputs": [
				{
					"internalType": "uint256",
					"name": "",
					"type": "uint256"
				}
			],
			"stateMutability": "view",
			"type": "function"
		},
		{
			"inputs": [],
			"name": "odividentPayoutPercentage",
			"outputs": [
				{
					"internalType": "uint256",
					"name": "",
					"type": "uint256"
				}
			],
			"stateMutability": "view",
			"type": "function"
		},
		{
			"inputs": [],
			"name": "off",
			"outputs": [],
			"stateMutability": "nonpayable",
			"type": "function"
		},
		{
			"inputs": [],
			"name": "owner",
			"outputs": [
				{
					"internalType": "address",
					"name": "",
					"type": "address"
				}
			],
			"stateMutability": "view",
			"type": "function"
		},
		{
			"inputs": [],
			"name": "ownerShipPoolAmount",
			"outputs": [
				{
					"internalType": "uint256",
					"name": "",
					"type": "uint256"
				}
			],
			"stateMutability": "view",
			"type": "function"
		},
		{
			"inputs": [
				{
					"internalType": "bytes",
					"name": "",
					"type": "bytes"
				}
			],
			"name": "performUpkeep",
			"outputs": [],
			"stateMutability": "nonpayable",
			"type": "function"
		},
		{
			"inputs": [],
			"name": "proxiableUUID",
			"outputs": [
				{
					"internalType": "bytes32",
					"name": "",
					"type": "bytes32"
				}
			],
			"stateMutability": "view",
			"type": "function"
		},
		{
			"inputs": [
				{
					"internalType": "uint256",
					"name": "_amount",
					"type": "uint256"
				}
			],
			"name": "reStakeTokens",
			"outputs": [],
			"stateMutability": "nonpayable",
			"type": "function"
		},
		{
			"inputs": [],
			"name": "renounceOwnership",
			"outputs": [],
			"stateMutability": "nonpayable",
			"type": "function"
		},
		{
			"inputs": [],
			"name": "s_forwarderAddress",
			"outputs": [
				{
					"internalType": "address",
					"name": "",
					"type": "address"
				}
			],
			"stateMutability": "view",
			"type": "function"
		},
		{
			"inputs": [
				{
					"internalType": "address",
					"name": "forwarderAddress",
					"type": "address"
				}
			],
			"name": "setForwarderAddress",
			"outputs": [],
			"stateMutability": "nonpayable",
			"type": "function"
		},
		{
			"inputs": [
				{
					"internalType": "uint256",
					"name": "_startingTime",
					"type": "uint256"
				},
				{
					"internalType": "uint256",
					"name": "updateInterval",
					"type": "uint256"
				}
			],
			"name": "setInterval",
			"outputs": [],
			"stateMutability": "nonpayable",
			"type": "function"
		},
		{
			"inputs": [
				{
					"internalType": "uint256",
					"name": "_projectId",
					"type": "uint256"
				},
				{
					"internalType": "uint256",
					"name": "_newPerccentage",
					"type": "uint256"
				}
			],
			"name": "setTeasueryPercentages",
			"outputs": [],
			"stateMutability": "nonpayable",
			"type": "function"
		},
		{
			"inputs": [
				{
					"internalType": "uint256",
					"name": "_newPerccentage",
					"type": "uint256"
				}
			],
			"name": "setflowToTreasuryPercentage",
			"outputs": [],
			"stateMutability": "nonpayable",
			"type": "function"
		},
		{
			"inputs": [
				{
					"internalType": "uint256",
					"name": "_newPerccentage",
					"type": "uint256"
				}
			],
			"name": "setmaintainceFeePercentage",
			"outputs": [],
			"stateMutability": "nonpayable",
			"type": "function"
		},
		{
			"inputs": [
				{
					"internalType": "uint256",
					"name": "_newPerccentage",
					"type": "uint256"
				}
			],
			"name": "setodividentPayoutPercentage",
			"outputs": [],
			"stateMutability": "nonpayable",
			"type": "function"
		},
		{
			"inputs": [
				{
					"internalType": "uint256",
					"name": "_newPerccentage",
					"type": "uint256"
				}
			],
			"name": "settdividentPayoutPercentage",
			"outputs": [],
			"stateMutability": "nonpayable",
			"type": "function"
		},
		{
			"inputs": [
				{
					"internalType": "uint256",
					"name": "_amount",
					"type": "uint256"
				}
			],
			"name": "stakeTokens",
			"outputs": [],
			"stateMutability": "nonpayable",
			"type": "function"
		},
		{
			"inputs": [],
			"name": "startingTime",
			"outputs": [
				{
					"internalType": "uint256",
					"name": "",
					"type": "uint256"
				}
			],
			"stateMutability": "view",
			"type": "function"
		},
		{
			"inputs": [
				{
					"internalType": "uint256",
					"name": "",
					"type": "uint256"
				}
			],
			"name": "tPPercentages",
			"outputs": [
				{
					"internalType": "uint256",
					"name": "",
					"type": "uint256"
				}
			],
			"stateMutability": "view",
			"type": "function"
		},
		{
			"inputs": [],
			"name": "tdividentPayoutPercentage",
			"outputs": [
				{
					"internalType": "uint256",
					"name": "",
					"type": "uint256"
				}
			],
			"stateMutability": "view",
			"type": "function"
		},
		{
			"inputs": [],
			"name": "totalProjects",
			"outputs": [
				{
					"internalType": "uint256",
					"name": "",
					"type": "uint256"
				}
			],
			"stateMutability": "view",
			"type": "function"
		},
		{
			"inputs": [],
			"name": "totalStakedAmount",
			"outputs": [
				{
					"internalType": "uint256",
					"name": "",
					"type": "uint256"
				}
			],
			"stateMutability": "view",
			"type": "function"
		},
		{
			"inputs": [
				{
					"internalType": "uint256",
					"name": "",
					"type": "uint256"
				}
			],
			"name": "totalUsers",
			"outputs": [
				{
					"internalType": "address",
					"name": "",
					"type": "address"
				}
			],
			"stateMutability": "view",
			"type": "function"
		},
		{
			"inputs": [
				{
					"internalType": "address",
					"name": "newOwner",
					"type": "address"
				}
			],
			"name": "transferOwnership",
			"outputs": [],
			"stateMutability": "nonpayable",
			"type": "function"
		},
		{
			"inputs": [],
			"name": "treasuryPoolAmount",
			"outputs": [
				{
					"internalType": "uint256",
					"name": "",
					"type": "uint256"
				}
			],
			"stateMutability": "view",
			"type": "function"
		},
		{
			"inputs": [
				{
					"internalType": "address",
					"name": "newImplementation",
					"type": "address"
				},
				{
					"internalType": "bytes",
					"name": "data",
					"type": "bytes"
				}
			],
			"name": "upgradeToAndCall",
			"outputs": [],
			"stateMutability": "payable",
			"type": "function"
		},
		{
			"inputs": [],
			"name": "usdcToken",
			"outputs": [
				{
					"internalType": "contract IBEP20",
					"name": "",
					"type": "address"
				}
			],
			"stateMutability": "view",
			"type": "function"
		},
		{
			"inputs": [
				{
					"internalType": "address",
					"name": "",
					"type": "address"
				}
			],
			"name": "userRegistered",
			"outputs": [
				{
					"internalType": "bool",
					"name": "blocked",
					"type": "bool"
				},
				{
					"internalType": "uint256",
					"name": "receivedAmount",
					"type": "uint256"
				},
				{
					"internalType": "uint256",
					"name": "withdrawAmount",
					"type": "uint256"
				},
				{
					"internalType": "uint256",
					"name": "receiveFromTreasury",
					"type": "uint256"
				},
				{
					"internalType": "uint256",
					"name": "receiveFromOwneerShip",
					"type": "uint256"
				},
				{
					"internalType": "uint256",
					"name": "totalStakedAmount",
					"type": "uint256"
				}
			],
			"stateMutability": "view",
			"type": "function"
		},
		{
			"inputs": [
				{
					"internalType": "uint256",
					"name": "_amount",
					"type": "uint256"
				}
			],
			"name": "userWithdrawAmoount",
			"outputs": [],
			"stateMutability": "nonpayable",
			"type": "function"
		},
		{
			"inputs": [],
			"name": "weeklyTransfer",
			"outputs": [],
			"stateMutability": "nonpayable",
			"type": "function"
		}
	]
}