{
	"data": {
		"bytecode": {
			"linkReferences": {},
			"object": "60a06040523073ffffffffffffffffffffffffffffffffffffffff1660809073ffffffffffffffffffffffffffffffffffffffff16815250348015610042575f80fd5b5061005161005660201b60201c565b6101b6565b5f61006561015460201b60201c565b9050805f0160089054906101000a900460ff16156100af576040517ff92ee8a900000000000000000000000000000000000000000000000000000000815260040160405180910390fd5b67ffffffffffffffff8016815f015f9054906101000a900467ffffffffffffffff1667ffffffffffffffff16146101515767ffffffffffffffff815f015f6101000a81548167ffffffffffffffff021916908367ffffffffffffffff1602179055507fc7f505b2f371ae2175ee4913f4499e1f2633a7b5936321eed1cdaeb6115181d267ffffffffffffffff604051610148919061019d565b60405180910390a15b50565b5f7ff0c57e16840df040f15088dc2f81fe391c3923bec73e23a9662efc9c229c6a00905090565b5f67ffffffffffffffff82169050919050565b6101978161017b565b82525050565b5f6020820190506101b05f83018461018e565b92915050565b6080516157596101dc5f395f8181613b5b01528181613bb00152613d6a01526157595ff3fe608060405260043610610180575f3560e01c806384a184de116100d0578063bea7d6e911610089578063eafa403911610063578063eafa40391461053b578063ee229f7e14610563578063f23a6e611461058b578063f2fde38b146105c757610180565b8063bea7d6e9146104cd578063d2f6f67d146104e9578063e30ec3861461051357610180565b806384a184de146103a45780638da5cb5b146103eb5780639e898e5814610415578063ad3cb1cc1461043f578063b9a2de3a14610469578063bc197c811461049157610180565b80634c205bc91161013d578063715018a611610117578063715018a6146102fe5780637cfd3e1814610314578063824563f614610350578063831490f91461037a57610180565b80634c205bc91461029c5780634f1ef286146102b857806352d1902d146102d457610180565b806301ffc9a71461018457806303c32aa9146101c057806320edda38146101e85780632c0bc695146102105780633d6c050714610238578063485cc95514610274575b5f80fd5b34801561018f575f80fd5b506101aa60048036038101906101a59190614693565b6105ef565b6040516101b791906146d8565b60405180910390f35b3480156101cb575f80fd5b506101e660048036038101906101e19190614724565b610668565b005b3480156101f3575f80fd5b5061020e60048036038101906102099190614724565b610738565b005b34801561021b575f80fd5b506102366004803603810190610231919061474f565b6107d7565b005b348015610243575f80fd5b5061025e60048036038101906102599190614724565b610c6b565b60405161026b91906147d5565b60405180910390f35b34801561027f575f80fd5b5061029a60048036038101906102959190614848565b610c85565b005b6102b660048036038101906102b19190614724565b610e9e565b005b6102d260048036038101906102cd91906149c2565b6115fa565b005b3480156102df575f80fd5b506102e8611619565b6040516102f59190614a34565b60405180910390f35b348015610309575f80fd5b5061031261164a565b005b34801561031f575f80fd5b5061033a60048036038101906103359190614a4d565b61165d565b60405161034791906147d5565b60405180910390f35b34801561035b575f80fd5b50610364611672565b6040516103719190614a87565b60405180910390f35b348015610385575f80fd5b5061038e611697565b60405161039b91906147d5565b60405180910390f35b3480156103af575f80fd5b506103ca60048036038101906103c59190614724565b61169d565b6040516103e29c9b9a99989796959493929190614aa0565b60405180910390f35b3480156103f6575f80fd5b506103ff61177a565b60405161040c9190614a87565b60405180910390f35b348015610420575f80fd5b506104296117af565b60405161043691906147d5565b60405180910390f35b34801561044a575f80fd5b506104536117b5565b6040516104609190614bb8565b60405180910390f35b348015610474575f80fd5b5061048f600480360381019061048a9190614724565b6117ee565b005b34801561049c575f80fd5b506104b760048036038101906104b29190614c9c565b611f5e565b6040516104c49190614d76565b60405180910390f35b6104e760048036038101906104e29190614724565b611f72565b005b3480156104f4575f80fd5b506104fd6124a5565b60405161050a9190614dea565b60405180910390f35b34801561051e575f80fd5b5061053960048036038101906105349190614e03565b6124c8565b005b348015610546575f80fd5b50610561600480360381019061055c9190614f74565b6127b8565b005b34801561056e575f80fd5b5061058960048036038101906105849190614724565b612b68565b005b348015610596575f80fd5b506105b160048036038101906105ac9190615070565b612ea3565b6040516105be9190614d76565b60405180910390f35b3480156105d2575f80fd5b506105ed60048036038101906105e89190614a4d565b612eb7565b005b5f7f4e2312e0000000000000000000000000000000000000000000000000000000007bffffffffffffffffffffffffffffffffffffffffffffffffffffffff1916827bffffffffffffffffffffffffffffffffffffffffffffffffffffffff19161480610661575061066082612f3b565b5b9050919050565b606481108061067857506103e881115b156106ba57806040517f370647a80000000000000000000000000000000000000000000000000000000081526004016106b191906147d5565b60405180910390fd5b8060065f3373ffffffffffffffffffffffffffffffffffffffff1673ffffffffffffffffffffffffffffffffffffffff1681526020019081526020015f20819055507fbee82e0cd48a0dfd192b0980a9a2c7d9b007aad1b38c23a235b4121b554d9c8a338260405161072d929190615103565b60405180910390a150565b610740612fa4565b5f811115806107505750610bb881115b1561079257806040517fd3d7da7400000000000000000000000000000000000000000000000000000000815260040161078991906147d5565b60405180910390fd5b806002819055507f8b52e67d733e4bffdb3a2df53e3b88e2f31125fc8a8442b742602f8f7d0ed3e9600254336040516107cc92919061512a565b60405180910390a150565b845f811161081c57806040517fc860174b00000000000000000000000000000000000000000000000000000000815260040161081391906147d5565b60405180910390fd5b60045f8281526020019081526020015f205f015f9054906101000a900460ff1661089c5760045f8281526020019081526020015f205f015f9054906101000a900460ff166040517fe6c1c63700000000000000000000000000000000000000000000000000000000815260040161089391906146d8565b60405180910390fd5b60045f8281526020019081526020015f205f0160019054906101000a900460ff161561091f5760045f8281526020019081526020015f205f0160019054906101000a900460ff166040517f48d00a0000000000000000000000000000000000000000000000000000000000815260040161091691906146d8565b60405180910390fd5b60045f8781526020019081526020015f2060090154421080610954575060045f8781526020019081526020015f206008015442115b156109c05760045f8781526020019081526020015f206009015460045f8881526020019081526020015f20600801546040517fdd96246f0000000000000000000000000000000000000000000000000000000081526004016109b7929190615151565b60405180910390fd5b60045f8781526020019081526020015f206005015f9054906101000a900473ffffffffffffffffffffffffffffffffffffffff1673ffffffffffffffffffffffffffffffffffffffff163373ffffffffffffffffffffffffffffffffffffffff1614610a965760045f8781526020019081526020015f206005015f9054906101000a900473ffffffffffffffffffffffffffffffffffffffff166040517f458a16af000000000000000000000000000000000000000000000000000000008152600401610a8d9190614a87565b60405180910390fd5b5f8414158015610aa657505f8314155b15610b82575f73ffffffffffffffffffffffffffffffffffffffff1660045f8881526020019081526020015f206006015f9054906101000a900473ffffffffffffffffffffffffffffffffffffffff1673ffffffffffffffffffffffffffffffffffffffff1614610b815760045f8781526020019081526020015f206006015f9054906101000a900473ffffffffffffffffffffffffffffffffffffffff166040517fe7c9314e000000000000000000000000000000000000000000000000000000008152600401610b789190614a87565b60405180910390fd5b5b610bec60045f8881526020019081526020015f206003015460045f8981526020019081526020015f206004015487878760045f8d81526020019081526020015f206007015f9054906101000a900473ffffffffffffffffffffffffffffffffffffffff168861302b565b7fd3f4e53a5792e81767b11408a290f82cf83fde26090d65773f2c0a9aeb63adfb60045f8881526020019081526020015f206002015460045f8981526020019081526020015f206009015460045f8a81526020019081526020015f2060080154604051610c5b93929190615178565b60405180910390a1505050505050565b6005602052805f5260405f205f91509050805f0154905081565b5f610c8e61334a565b90505f815f0160089054906101000a900460ff161590505f825f015f9054906101000a900467ffffffffffffffff1690505f808267ffffffffffffffff16148015610cd65750825b90505f60018367ffffffffffffffff16148015610d0957505f3073ffffffffffffffffffffffffffffffffffffffff163b145b905081158015610d17575080155b15610d4e576040517ff92ee8a900000000000000000000000000000000000000000000000000000000815260040160405180910390fd5b6001855f015f6101000a81548167ffffffffffffffff021916908367ffffffffffffffff1602179055508315610d9b576001855f0160086101000a81548160ff0219169083151502179055505b60fa6002819055508660035f6101000a81548173ffffffffffffffffffffffffffffffffffffffff021916908373ffffffffffffffffffffffffffffffffffffffff160217905550865f806101000a81548173ffffffffffffffffffffffffffffffffffffffff021916908373ffffffffffffffffffffffffffffffffffffffff160217905550610e2a613371565b610e338661337b565b610e3b61338f565b8315610e95575f855f0160086101000a81548160ff0219169083151502179055507fc7f505b2f371ae2175ee4913f4499e1f2633a7b5936321eed1cdaeb6115181d26001604051610e8c91906151f9565b60405180910390a15b50505050505050565b805f8111610ee357806040517fc860174b000000000000000000000000000000000000000000000000000000008152600401610eda91906147d5565b60405180910390fd5b60045f8281526020019081526020015f205f015f9054906101000a900460ff16610f635760045f8281526020019081526020015f205f015f9054906101000a900460ff166040517fe6c1c637000000000000000000000000000000000000000000000000000000008152600401610f5a91906146d8565b60405180910390fd5b60045f8281526020019081526020015f205f0160019054906101000a900460ff1615610fe65760045f8281526020019081526020015f205f0160019054906101000a900460ff166040517f48d00a00000000000000000000000000000000000000000000000000000000008152600401610fdd91906146d8565b60405180910390fd5b60045f8381526020019081526020015f2060020154341461103e57346040517f85d649f700000000000000000000000000000000000000000000000000000000815260040161103591906147d5565b60405180910390fd5b60045f8381526020019081526020015f205f0160029054906101000a900460ff166110c05760045f8381526020019081526020015f205f0160029054906101000a900460ff166040517f9cf9f1f70000000000000000000000000000000000000000000000000000000081526004016110b791906146d8565b60405180910390fd5b60045f8381526020019081526020015f206005015f9054906101000a900473ffffffffffffffffffffffffffffffffffffffff1673ffffffffffffffffffffffffffffffffffffffff163373ffffffffffffffffffffffffffffffffffffffff16036111965760045f8381526020019081526020015f206005015f9054906101000a900473ffffffffffffffffffffffffffffffffffffffff166040517f9507836000000000000000000000000000000000000000000000000000000000815260040161118d9190614a87565b60405180910390fd5b3360045f8481526020019081526020015f206006015f6101000a81548173ffffffffffffffffffffffffffffffffffffffff021916908373ffffffffffffffffffffffffffffffffffffffff1602179055505f8060045f8581526020019081526020015f20600101541461123d5761123660045f8581526020019081526020015f206002015460045f8681526020019081526020015f2060010154613399565b9050611260565b61125d60045f8581526020019081526020015f2060020154600254613399565b90505b5f8060055f8681526020019081526020015f205f015411156112885761128584613448565b90505b5f805f9054906101000a900473ffffffffffffffffffffffffffffffffffffffff1673ffffffffffffffffffffffffffffffffffffffff166353f5011960045f8881526020019081526020015f206005015f9054906101000a900473ffffffffffffffffffffffffffffffffffffffff166040518263ffffffff1660e01b81526004016113159190614a87565b608060405180830381865afa158015611330573d5f803e3d5ffd5b505050506040513d601f19601f820116820180604052508101906113549190615264565b50505090505f811561136e5761136b865f806136f3565b90505b5f611378876138c8565b90505f8183868861138991906152f5565b61139391906152f5565b61139d91906152f5565b60045f8a81526020019081526020015f20600201546113bc9190615328565b90506113cf6113c961177a565b87613a37565b61140c60045f8a81526020019081526020015f206005015f9054906101000a900473ffffffffffffffffffffffffffffffffffffffff1682613a37565b600160045f8a81526020019081526020015f205f0160016101000a81548160ff0219169083151502179055506114d360045f8a81526020019081526020015f206007015f9054906101000a900473ffffffffffffffffffffffffffffffffffffffff163060045f8c81526020019081526020015f206006015f9054906101000a900473ffffffffffffffffffffffffffffffffffffffff1660045f8d81526020019081526020015f206003015460045f8e81526020019081526020015f2060040154613ae6565b60045f8981526020019081526020015f206007015f9054906101000a900473ffffffffffffffffffffffffffffffffffffffff1673ffffffffffffffffffffffffffffffffffffffff1660045f8a81526020019081526020015f20600301547f01a7baf821561ae36aa58d172bd77037c6f9c19177e5b840e3d413c110a80e453060045f8d81526020019081526020015f206006015f9054906101000a900473ffffffffffffffffffffffffffffffffffffffff1660045f8e81526020019081526020015f20600401546040516115ac9392919061535b565b60405180910390a38085877f36203e70aeb15b48fc7b10549158c6acc3ba3235ba2644757016fb33d4fa394486866040516115e8929190615151565b60405180910390a45050505050505050565b611602613b59565b61160b82613c3f565b6116158282613c4a565b5050565b5f611622613d68565b7f360894a13ba1a3210667c828492db98dca3e2076cc3735a920a3ca505d382bbc5f1b905090565b611652612fa4565b61165b5f613def565b565b6006602052805f5260405f205f915090505481565b60035f9054906101000a900473ffffffffffffffffffffffffffffffffffffffff1681565b60025481565b6004602052805f5260405f205f91509050805f015f9054906101000a900460ff1690805f0160019054906101000a900460ff1690805f0160029054906101000a900460ff1690806001015490806002015490806003015490806004015490806005015f9054906101000a900473ffffffffffffffffffffffffffffffffffffffff1690806006015f9054906101000a900473ffffffffffffffffffffffffffffffffffffffff1690806007015f9054906101000a900473ffffffffffffffffffffffffffffffffffffffff1690806008015490806009015490508c565b5f80611784613ec0565b9050805f015f9054906101000a900473ffffffffffffffffffffffffffffffffffffffff1691505090565b60015481565b6040518060400160405280600581526020017f352e302e3000000000000000000000000000000000000000000000000000000081525081565b805f811161183357806040517fc860174b00000000000000000000000000000000000000000000000000000000815260040161182a91906147d5565b60405180910390fd5b60045f8281526020019081526020015f205f015f9054906101000a900460ff166118b35760045f8281526020019081526020015f205f015f9054906101000a900460ff166040517fe6c1c6370000000000000000000000000000000000000000000000000000000081526004016118aa91906146d8565b60405180910390fd5b60045f8281526020019081526020015f205f0160019054906101000a900460ff16156119365760045f8281526020019081526020015f205f0160019054906101000a900460ff166040517f48d00a0000000000000000000000000000000000000000000000000000000000815260040161192d91906146d8565b60405180910390fd5b60045f8381526020019081526020015f205f0160029054906101000a900460ff16156119b95760045f8381526020019081526020015f205f0160029054906101000a900460ff166040517f54a2b5ea0000000000000000000000000000000000000000000000000000000081526004016119b091906146d8565b60405180910390fd5b60045f8381526020019081526020015f206005015f9054906101000a900473ffffffffffffffffffffffffffffffffffffffff1673ffffffffffffffffffffffffffffffffffffffff163373ffffffffffffffffffffffffffffffffffffffff1614158015611a87575060045f8381526020019081526020015f206006015f9054906101000a900473ffffffffffffffffffffffffffffffffffffffff1673ffffffffffffffffffffffffffffffffffffffff163373ffffffffffffffffffffffffffffffffffffffff1614155b15611ac957336040517f458a16af000000000000000000000000000000000000000000000000000000008152600401611ac09190614a87565b60405180910390fd5b60045f8381526020019081526020015f2060080154421015611b4c5760045f8381526020019081526020015f206009015460045f8481526020019081526020015f20600801546040517fdd96246f000000000000000000000000000000000000000000000000000000008152600401611b43929190615151565b60405180910390fd5b5f8060045f8581526020019081526020015f206001015414611ba157611b9a60045f8581526020019081526020015f206002015460045f8681526020019081526020015f2060010154613399565b9050611bc4565b611bc160045f8581526020019081526020015f2060020154600254613399565b90505b5f8060055f8681526020019081526020015f205f01541115611bec57611be984613448565b90505b5f805f9054906101000a900473ffffffffffffffffffffffffffffffffffffffff1673ffffffffffffffffffffffffffffffffffffffff166353f5011960045f8881526020019081526020015f206005015f9054906101000a900473ffffffffffffffffffffffffffffffffffffffff166040518263ffffffff1660e01b8152600401611c799190614a87565b608060405180830381865afa158015611c94573d5f803e3d5ffd5b505050506040513d601f19601f82011682018060405250810190611cb89190615264565b50505090505f8115611cd257611ccf865f806136f3565b90505b5f611cdc876138c8565b90505f81838688611ced91906152f5565b611cf791906152f5565b611d0191906152f5565b60045f8a81526020019081526020015f2060020154611d209190615328565b9050611d33611d2d61177a565b87613a37565b611d7060045f8a81526020019081526020015f206005015f9054906101000a900473ffffffffffffffffffffffffffffffffffffffff1682613a37565b600160045f8a81526020019081526020015f205f0160016101000a81548160ff021916908315150217905550611e3760045f8a81526020019081526020015f206007015f9054906101000a900473ffffffffffffffffffffffffffffffffffffffff163060045f8c81526020019081526020015f206006015f9054906101000a900473ffffffffffffffffffffffffffffffffffffffff1660045f8d81526020019081526020015f206003015460045f8e81526020019081526020015f2060040154613ae6565b60045f8981526020019081526020015f206007015f9054906101000a900473ffffffffffffffffffffffffffffffffffffffff1673ffffffffffffffffffffffffffffffffffffffff1660045f8a81526020019081526020015f20600301547f01a7baf821561ae36aa58d172bd77037c6f9c19177e5b840e3d413c110a80e453060045f8d81526020019081526020015f206006015f9054906101000a900473ffffffffffffffffffffffffffffffffffffffff1660045f8e81526020019081526020015f2060040154604051611f109392919061535b565b60405180910390a38085877f36203e70aeb15b48fc7b10549158c6acc3ba3235ba2644757016fb33d4fa39448686604051611f4c929190615151565b60405180910390a45050505050505050565b5f63bc197c8160e01b905095945050505050565b805f8111611fb757806040517fc860174b000000000000000000000000000000000000000000000000000000008152600401611fae91906147d5565b60405180910390fd5b60045f8281526020019081526020015f205f015f9054906101000a900460ff166120375760045f8281526020019081526020015f205f015f9054906101000a900460ff166040517fe6c1c63700000000000000000000000000000000000000000000000000000000815260040161202e91906146d8565b60405180910390fd5b60045f8281526020019081526020015f205f0160019054906101000a900460ff16156120ba5760045f8281526020019081526020015f205f0160019054906101000a900460ff166040517f48d00a000000000000000000000000000000000000000000000000000000000081526004016120b191906146d8565b60405180910390fd5b60045f8381526020019081526020015f205f0160029054906101000a900460ff161561213d5760045f8381526020019081526020015f205f0160029054906101000a900460ff166040517f54a2b5ea00000000000000000000000000000000000000000000000000000000815260040161213491906146d8565b60405180910390fd5b5f3411158061215f575060045f8381526020019081526020015f206002015434105b156121a157346040517f85d649f700000000000000000000000000000000000000000000000000000000815260040161219891906147d5565b60405180910390fd5b60045f8381526020019081526020015f20600901544210806121d6575060045f8381526020019081526020015f206008015442115b156122425760045f8381526020019081526020015f206009015460045f8481526020019081526020015f20600801546040517fdd96246f000000000000000000000000000000000000000000000000000000008152600401612239929190615151565b60405180910390fd5b60045f8381526020019081526020015f206005015f9054906101000a900473ffffffffffffffffffffffffffffffffffffffff1673ffffffffffffffffffffffffffffffffffffffff163373ffffffffffffffffffffffffffffffffffffffff16036123185760045f8381526020019081526020015f206005015f9054906101000a900473ffffffffffffffffffffffffffffffffffffffff166040517f9507836000000000000000000000000000000000000000000000000000000000815260040161230f9190614a87565b60405180910390fd5b5f60045f8481526020019081526020015f206002015490505f60045f8581526020019081526020015f206006015f9054906101000a900473ffffffffffffffffffffffffffffffffffffffff1690505f821180156123a257505f73ffffffffffffffffffffffffffffffffffffffff168173ffffffffffffffffffffffffffffffffffffffff1614155b156123b2576123b18183613a37565b5b3460045f8681526020019081526020015f20600201819055503360045f8681526020019081526020015f206006015f6101000a81548173ffffffffffffffffffffffffffffffffffffffff021916908373ffffffffffffffffffffffffffffffffffffffff1602179055507fa6e846933627bedfe46f69605777a6483fb976f59199ec63196aa8442c8eb12360045f8681526020019081526020015f206006015f9054906101000a900473ffffffffffffffffffffffffffffffffffffffff1660045f8781526020019081526020015f20600201548460405161249793929190615390565b60405180910390a150505050565b5f8054906101000a900473ffffffffffffffffffffffffffffffffffffffff1681565b805f805f805f9054906101000a900473ffffffffffffffffffffffffffffffffffffffff1673ffffffffffffffffffffffffffffffffffffffff166353f50119336040518263ffffffff1660e01b81526004016125259190614a87565b608060405180830381865afa158015612540573d5f803e3d5ffd5b505050506040513d601f19601f820116820180604052508101906125649190615264565b5092509250925082156125e2578073ffffffffffffffffffffffffffffffffffffffff168473ffffffffffffffffffffffffffffffffffffffff16146125e157836040517f4b2e0e5d0000000000000000000000000000000000000000000000000000000081526004016125d89190614a87565b60405180910390fd5b5b5f8c11612626578b6040517fbaf301f700000000000000000000000000000000000000000000000000000000815260040161261d91906147d5565b60405180910390fd5b5f891161266a57886040517f86b33ed200000000000000000000000000000000000000000000000000000000815260040161266191906147d5565b60405180910390fd5b5f88116126ae57876040517f8e57a1b30000000000000000000000000000000000000000000000000000000081526004016126a591906147d5565b60405180910390fd5b60015f8154809291906126c0906153c5565b91905055506126d489898e8e8e8c8c61302b565b60035f9054906101000a900473ffffffffffffffffffffffffffffffffffffffff1673ffffffffffffffffffffffffffffffffffffffff168773ffffffffffffffffffffffffffffffffffffffff161461273b5761273689896001548a613ee7565b61276b565b61276a898960015460035f9054906101000a900473ffffffffffffffffffffffffffffffffffffffff16613ee7565b5b7f52ad65ec41e71d556367fc4fef59f68118b969bb890def6f1ccd0b952f557ca46001548a8a8f6040516127a2949392919061540c565b60405180910390a1505050505050505050505050565b81815f8251111580156127cc5750600a8251115b1561280f5781516040517f1d9aea7d00000000000000000000000000000000000000000000000000000000815260040161280691906147d5565b60405180910390fd5b805182511461285957815181516040517f12c9b6e1000000000000000000000000000000000000000000000000000000008152600401612850929190615151565b60405180910390fd5b5f805f90505b8351811015612942575f73ffffffffffffffffffffffffffffffffffffffff168482815181106128925761289161544f565b5b602002602001015173ffffffffffffffffffffffffffffffffffffffff1614612935576101f48382815181106128cb576128ca61544f565b5b60200260200101511015612930578281815181106128ec576128eb61544f565b5b60200260200101516040517f01342e6a00000000000000000000000000000000000000000000000000000000815260040161292791906147d5565b60405180910390fd5b600191505b808060010191505061285f565b508061298557806040517fb108f96a00000000000000000000000000000000000000000000000000000000815260040161297c91906146d8565b60405180910390fd5b5f8c116129c9578b6040517fbaf301f70000000000000000000000000000000000000000000000000000000081526004016129c091906147d5565b60405180910390fd5b5f8911612a0d57886040517f86b33ed2000000000000000000000000000000000000000000000000000000008152600401612a0491906147d5565b60405180910390fd5b5f8811612a5157876040517f8e57a1b3000000000000000000000000000000000000000000000000000000008152600401612a4891906147d5565b60405180910390fd5b60015f815480929190612a63906153c5565b9190505550612a7789898e8e8e8b8d61302b565b612a846001548686613f4c565b60035f9054906101000a900473ffffffffffffffffffffffffffffffffffffffff1673ffffffffffffffffffffffffffffffffffffffff168673ffffffffffffffffffffffffffffffffffffffff1614612aeb57612ae6898960015489613ee7565b612b1b565b612b1a898960015460035f9054906101000a900473ffffffffffffffffffffffffffffffffffffffff16613ee7565b5b7f52ad65ec41e71d556367fc4fef59f68118b969bb890def6f1ccd0b952f557ca46001548a8a8f604051612b52949392919061540c565b60405180910390a1505050505050505050505050565b60045f8281526020019081526020015f206005015f9054906101000a900473ffffffffffffffffffffffffffffffffffffffff1673ffffffffffffffffffffffffffffffffffffffff163373ffffffffffffffffffffffffffffffffffffffff1614612c0b57336040517f458a16af000000000000000000000000000000000000000000000000000000008152600401612c029190614a87565b60405180910390fd5b60045f8281526020019081526020015f205f0160019054906101000a900460ff1615612c8e5760045f8281526020019081526020015f205f0160019054906101000a900460ff166040517f48d00a00000000000000000000000000000000000000000000000000000000008152600401612c8591906146d8565b60405180910390fd5b5f60045f8381526020019081526020015f206009015414158015612cc657505f60045f8381526020019081526020015f206008015414155b15612da2575f73ffffffffffffffffffffffffffffffffffffffff1660045f8381526020019081526020015f206006015f9054906101000a900473ffffffffffffffffffffffffffffffffffffffff1673ffffffffffffffffffffffffffffffffffffffff1614612da15760045f8281526020019081526020015f206006015f9054906101000a900473ffffffffffffffffffffffffffffffffffffffff166040517fe7c9314e000000000000000000000000000000000000000000000000000000008152600401612d989190614a87565b60405180910390fd5b5b612e3d60045f8381526020019081526020015f206007015f9054906101000a900473ffffffffffffffffffffffffffffffffffffffff163060045f8581526020019081526020015f206005015f9054906101000a900473ffffffffffffffffffffffffffffffffffffffff1660045f8681526020019081526020015f206003015460045f8781526020019081526020015f2060040154613ae6565b612e46816140a7565b7f3c1cbea3c4423acdedc9531a932910ab62fd4b01b389aa96646907a70549974c338260045f8581526020019081526020015f205f015f9054906101000a900460ff16604051612e989392919061547c565b60405180910390a150565b5f63f23a6e6160e01b905095945050505050565b612ebf612fa4565b5f73ffffffffffffffffffffffffffffffffffffffff168173ffffffffffffffffffffffffffffffffffffffff1603612f2f575f6040517f1e4fbdf7000000000000000000000000000000000000000000000000000000008152600401612f269190614a87565b60405180910390fd5b612f3881613def565b50565b5f7f01ffc9a7000000000000000000000000000000000000000000000000000000007bffffffffffffffffffffffffffffffffffffffffffffffffffffffff1916827bffffffffffffffffffffffffffffffffffffffffffffffffffffffff1916149050919050565b612fac614220565b73ffffffffffffffffffffffffffffffffffffffff16612fca61177a565b73ffffffffffffffffffffffffffffffffffffffff161461302957612fed614220565b6040517f118cdaa70000000000000000000000000000000000000000000000000000000081526004016130209190614a87565b60405180910390fd5b565b8484848989865f861161307557856040517fbaf301f700000000000000000000000000000000000000000000000000000000815260040161306c91906147d5565b60405180910390fd5b5f83116130b957826040517f86b33ed20000000000000000000000000000000000000000000000000000000081526004016130b091906147d5565b60405180910390fd5b5f82116130fd57816040517f8e57a1b30000000000000000000000000000000000000000000000000000000081526004016130f491906147d5565b60405180910390fd5b5f73ffffffffffffffffffffffffffffffffffffffff168173ffffffffffffffffffffffffffffffffffffffff160361316d57806040517fe4cfa94d0000000000000000000000000000000000000000000000000000000081526004016131649190614a87565b60405180910390fd5b5f851415801561317d57505f8414155b156131d65742851115801561319157508484105b156131d55784846040517fdd96246f0000000000000000000000000000000000000000000000000000000081526004016131cc929190615151565b60405180910390fd5b5b5f8a1480156131e457505f89145b1561321857600160045f60015481526020019081526020015f205f0160026101000a81548160ff0219169083151502179055505b600160045f60015481526020019081526020015f205f015f6101000a81548160ff0219169083151502179055508c60045f60015481526020019081526020015f20600301819055508b60045f60015481526020019081526020015f20600401819055508a60045f60015481526020019081526020015f20600201819055508960045f60015481526020019081526020015f20600901819055508860045f60015481526020019081526020015f20600801819055503360045f60015481526020019081526020015f206005015f6101000a81548173ffffffffffffffffffffffffffffffffffffffff021916908373ffffffffffffffffffffffffffffffffffffffff1602179055508660045f60015481526020019081526020015f206001018190555050505050505050505050505050565b5f7ff0c57e16840df040f15088dc2f81fe391c3923bec73e23a9662efc9c229c6a00905090565b613379614227565b565b613383614227565b61338c81614267565b50565b613397614227565b565b5f8083036133de57826040517ffa1bdae10000000000000000000000000000000000000000000000000000000081526004016133d591906147d5565b60405180910390fd5b5f820361342257816040517f2890317f00000000000000000000000000000000000000000000000000000000815260040161341991906147d5565b60405180910390fd5b5f612710838561343291906154b1565b61343c919061551f565b90508091505092915050565b5f805f90505f5b60055f8581526020019081526020015f205f01548110156136e9575f73ffffffffffffffffffffffffffffffffffffffff1660055f8681526020019081526020015f2060010182600a81106134a7576134a661544f565b5b015f9054906101000a900473ffffffffffffffffffffffffffffffffffffffff1673ffffffffffffffffffffffffffffffffffffffff16146136dc575f61352960045f8781526020019081526020015f206002015460055f8881526020019081526020015f20600b0184600a81106135225761352161544f565b5b0154613399565b90505f805f9054906101000a900473ffffffffffffffffffffffffffffffffffffffff1673ffffffffffffffffffffffffffffffffffffffff166353f5011960055f8981526020019081526020015f2060010185600a811061358e5761358d61544f565b5b015f9054906101000a900473ffffffffffffffffffffffffffffffffffffffff166040518263ffffffff1660e01b81526004016135cb9190614a87565b608060405180830381865afa1580156135e6573d5f803e3d5ffd5b505050506040513d601f19601f8201168201806040525081019061360a9190615264565b50505090505f811561366a576136675f60055f8a81526020019081526020015f2060010186600a81106136405761363f61544f565b5b015f9054906101000a900473ffffffffffffffffffffffffffffffffffffffff16856136f3565b90505b5f81846136779190615328565b90506136c960055f8a81526020019081526020015f2060010186600a81106136a2576136a161544f565b5b015f9054906101000a900473ffffffffffffffffffffffffffffffffffffffff1682613a37565b83866136d591906152f5565b9550505050505b808060010191505061344f565b5080915050919050565b5f805f80861415801561373157505f73ffffffffffffffffffffffffffffffffffffffff168573ffffffffffffffffffffffffffffffffffffffff16145b801561373c57505f84145b613746578461377b565b60045f8781526020019081526020015f206005015f9054906101000a900473ffffffffffffffffffffffffffffffffffffffff165b90505f805f8054906101000a900473ffffffffffffffffffffffffffffffffffffffff1673ffffffffffffffffffffffffffffffffffffffff166353f50119846040518263ffffffff1660e01b81526004016137d79190614a87565b608060405180830381865afa1580156137f2573d5f803e3d5ffd5b505050506040513d601f19601f820116820180604052508101906138169190615264565b5092509250505f82036138715760065f8273ffffffffffffffffffffffffffffffffffffffff1673ffffffffffffffffffffffffffffffffffffffff1681526020019081526020015f205491505f8203613870576103e891505b5b5f80891415801561388157505f87145b61388b57866138a1565b60045f8a81526020019081526020015f20600201545b90506138ad8184613399565b94506138b98286613a37565b84955050505050509392505050565b5f8060045f8481526020019081526020015f206007015f9054906101000a900473ffffffffffffffffffffffffffffffffffffffff1673ffffffffffffffffffffffffffffffffffffffff1660035f9054906101000a900473ffffffffffffffffffffffffffffffffffffffff1673ffffffffffffffffffffffffffffffffffffffff1603613a2e575f805f8054906101000a900473ffffffffffffffffffffffffffffffffffffffff1673ffffffffffffffffffffffffffffffffffffffff16638c33e47f60045f8881526020019081526020015f20600301546040518263ffffffff1660e01b81526004016139bf91906147d5565b6040805180830381865afa1580156139d9573d5f803e3d5ffd5b505050506040513d601f19601f820116820180604052508101906139fd919061554f565b91509150613a1f60045f8781526020019081526020015f206002015483613399565b9250613a2b8184613a37565b50505b80915050919050565b5f8273ffffffffffffffffffffffffffffffffffffffff1682604051613a5c906155ba565b5f6040518083038185875af1925050503d805f8114613a96576040519150601f19603f3d011682016040523d82523d5f602084013e613a9b565b606091505b5050905080613ae157806040517fd85d3cef000000000000000000000000000000000000000000000000000000008152600401613ad891906146d8565b60405180910390fd5b505050565b8473ffffffffffffffffffffffffffffffffffffffff1663f242432a858585856040518563ffffffff1660e01b8152600401613b259493929190615628565b5f604051808303815f87803b158015613b3c575f80fd5b505af1158015613b4e573d5f803e3d5ffd5b505050505050505050565b7f000000000000000000000000000000000000000000000000000000000000000073ffffffffffffffffffffffffffffffffffffffff163073ffffffffffffffffffffffffffffffffffffffff161480613c0657507f000000000000000000000000000000000000000000000000000000000000000073ffffffffffffffffffffffffffffffffffffffff16613bed6142eb565b73ffffffffffffffffffffffffffffffffffffffff1614155b15613c3d576040517fe07c8dba00000000000000000000000000000000000000000000000000000000815260040160405180910390fd5b565b613c47612fa4565b50565b8173ffffffffffffffffffffffffffffffffffffffff166352d1902d6040518163ffffffff1660e01b8152600401602060405180830381865afa925050508015613cb257506040513d601f19601f82011682018060405250810190613caf91906156a8565b60015b613cf357816040517f4c9c8ce3000000000000000000000000000000000000000000000000000000008152600401613cea9190614a87565b60405180910390fd5b7f360894a13ba1a3210667c828492db98dca3e2076cc3735a920a3ca505d382bbc5f1b8114613d5957806040517faa1d49a4000000000000000000000000000000000000000000000000000000008152600401613d509190614a34565b60405180910390fd5b613d63838361433e565b505050565b7f000000000000000000000000000000000000000000000000000000000000000073ffffffffffffffffffffffffffffffffffffffff163073ffffffffffffffffffffffffffffffffffffffff1614613ded576040517fe07c8dba00000000000000000000000000000000000000000000000000000000815260040160405180910390fd5b565b5f613df8613ec0565b90505f815f015f9054906101000a900473ffffffffffffffffffffffffffffffffffffffff16905082825f015f6101000a81548173ffffffffffffffffffffffffffffffffffffffff021916908373ffffffffffffffffffffffffffffffffffffffff1602179055508273ffffffffffffffffffffffffffffffffffffffff168173ffffffffffffffffffffffffffffffffffffffff167f8be0079c531659141344cd1fd0a4f28419497f9722a3daafe3b4186f6b6457e060405160405180910390a3505050565b5f7f9016d09d72d40fdae2fd8ceac6b6234c7706214fd39c1cd1e609a0528c199300905090565b8060045f8481526020019081526020015f206007015f6101000a81548173ffffffffffffffffffffffffffffffffffffffff021916908373ffffffffffffffffffffffffffffffffffffffff160217905550613f468133308787613ae6565b50505050565b5f5b82518110156140a1575f73ffffffffffffffffffffffffffffffffffffffff16838281518110613f8157613f8061544f565b5b602002602001015173ffffffffffffffffffffffffffffffffffffffff161461409457828181518110613fb757613fb661544f565b5b602002602001015160055f8681526020019081526020015f2060010182600a8110613fe557613fe461544f565b5b015f6101000a81548173ffffffffffffffffffffffffffffffffffffffff021916908373ffffffffffffffffffffffffffffffffffffffff1602179055508181815181106140365761403561544f565b5b602002602001015160055f8681526020019081526020015f20600b0182600a81106140645761406361544f565b5b0181905550600160055f8681526020019081526020015f205f015f82825461408c91906152f5565b925050819055505b8080600101915050613f4e565b50505050565b5f60045f8381526020019081526020015f205f0160026101000a81548160ff0219169083151502179055505f60045f8381526020019081526020015f205f015f6101000a81548160ff0219169083151502179055505f60045f8381526020019081526020015f20600301819055505f60045f8381526020019081526020015f20600401819055505f60045f8381526020019081526020015f20600201819055505f60045f8381526020019081526020015f20600801819055505f60045f8381526020019081526020015f20600901819055505f60045f8381526020019081526020015f206007015f6101000a81548173ffffffffffffffffffffffffffffffffffffffff021916908373ffffffffffffffffffffffffffffffffffffffff1602179055505f60045f8381526020019081526020015f206005015f6101000a81548173ffffffffffffffffffffffffffffffffffffffff021916908373ffffffffffffffffffffffffffffffffffffffff16021790555050565b5f33905090565b61422f6143b0565b614265576040517fd7e6bcf800000000000000000000000000000000000000000000000000000000815260040160405180910390fd5b565b61426f614227565b5f73ffffffffffffffffffffffffffffffffffffffff168173ffffffffffffffffffffffffffffffffffffffff16036142df575f6040517f1e4fbdf70000000000000000000000000000000000000000000000000000000081526004016142d69190614a87565b60405180910390fd5b6142e881613def565b50565b5f6143177f360894a13ba1a3210667c828492db98dca3e2076cc3735a920a3ca505d382bbc5f1b6143ce565b5f015f9054906101000a900473ffffffffffffffffffffffffffffffffffffffff16905090565b614347826143d7565b8173ffffffffffffffffffffffffffffffffffffffff167fbc7cd75a20ee27fd9adebab32041f755214dbc6bffa90cc0225b39da2e5c2d3b60405160405180910390a25f815111156143a35761439d82826144a0565b506143ac565b6143ab614520565b5b5050565b5f6143b961334a565b5f0160089054906101000a900460ff16905090565b5f819050919050565b5f8173ffffffffffffffffffffffffffffffffffffffff163b0361443257806040517f4c9c8ce30000000000000000000000000000000000000000000000000000000081526004016144299190614a87565b60405180910390fd5b8061445e7f360894a13ba1a3210667c828492db98dca3e2076cc3735a920a3ca505d382bbc5f1b6143ce565b5f015f6101000a81548173ffffffffffffffffffffffffffffffffffffffff021916908373ffffffffffffffffffffffffffffffffffffffff16021790555050565b60605f808473ffffffffffffffffffffffffffffffffffffffff16846040516144c9919061570d565b5f60405180830381855af49150503d805f8114614501576040519150601f19603f3d011682016040523d82523d5f602084013e614506565b606091505b509150915061451685838361455c565b9250505092915050565b5f34111561455a576040517fb398979f00000000000000000000000000000000000000000000000000000000815260040160405180910390fd5b565b6060826145715761456c826145e9565b6145e1565b5f825114801561459757505f8473ffffffffffffffffffffffffffffffffffffffff163b145b156145d957836040517f9996b3150000000000000000000000000000000000000000000000000000000081526004016145d09190614a87565b60405180910390fd5b8190506145e2565b5b9392505050565b5f815111156145fb5780518082602001fd5b6040517f1425ea4200000000000000000000000000000000000000000000000000000000815260040160405180910390fd5b5f604051905090565b5f80fd5b5f80fd5b5f7fffffffff0000000000000000000000000000000000000000000000000000000082169050919050565b6146728161463e565b811461467c575f80fd5b50565b5f8135905061468d81614669565b92915050565b5f602082840312156146a8576146a7614636565b5b5f6146b58482850161467f565b91505092915050565b5f8115159050919050565b6146d2816146be565b82525050565b5f6020820190506146eb5f8301846146c9565b92915050565b5f819050919050565b614703816146f1565b811461470d575f80fd5b50565b5f8135905061471e816146fa565b92915050565b5f6020828403121561473957614738614636565b5b5f61474684828501614710565b91505092915050565b5f805f805f60a0868803121561476857614767614636565b5b5f61477588828901614710565b955050602061478688828901614710565b945050604061479788828901614710565b93505060606147a888828901614710565b92505060806147b988828901614710565b9150509295509295909350565b6147cf816146f1565b82525050565b5f6020820190506147e85f8301846147c6565b92915050565b5f73ffffffffffffffffffffffffffffffffffffffff82169050919050565b5f614817826147ee565b9050919050565b6148278161480d565b8114614831575f80fd5b50565b5f813590506148428161481e565b92915050565b5f806040838503121561485e5761485d614636565b5b5f61486b85828601614834565b925050602061487c85828601614834565b9150509250929050565b5f80fd5b5f80fd5b5f601f19601f8301169050919050565b7f4e487b71000000000000000000000000000000000000000000000000000000005f52604160045260245ffd5b6148d48261488e565b810181811067ffffffffffffffff821117156148f3576148f261489e565b5b80604052505050565b5f61490561462d565b905061491182826148cb565b919050565b5f67ffffffffffffffff8211156149305761492f61489e565b5b6149398261488e565b9050602081019050919050565b828183375f83830152505050565b5f61496661496184614916565b6148fc565b9050828152602081018484840111156149825761498161488a565b5b61498d848285614946565b509392505050565b5f82601f8301126149a9576149a8614886565b5b81356149b9848260208601614954565b91505092915050565b5f80604083850312156149d8576149d7614636565b5b5f6149e585828601614834565b925050602083013567ffffffffffffffff811115614a0657614a0561463a565b5b614a1285828601614995565b9150509250929050565b5f819050919050565b614a2e81614a1c565b82525050565b5f602082019050614a475f830184614a25565b92915050565b5f60208284031215614a6257614a61614636565b5b5f614a6f84828501614834565b91505092915050565b614a818161480d565b82525050565b5f602082019050614a9a5f830184614a78565b92915050565b5f61018082019050614ab45f83018f6146c9565b614ac1602083018e6146c9565b614ace604083018d6146c9565b614adb606083018c6147c6565b614ae8608083018b6147c6565b614af560a083018a6147c6565b614b0260c08301896147c6565b614b0f60e0830188614a78565b614b1d610100830187614a78565b614b2b610120830186614a78565b614b396101408301856147c6565b614b476101608301846147c6565b9d9c50505050505050505050505050565b5f81519050919050565b5f82825260208201905092915050565b8281835e5f83830152505050565b5f614b8a82614b58565b614b948185614b62565b9350614ba4818560208601614b72565b614bad8161488e565b840191505092915050565b5f6020820190508181035f830152614bd08184614b80565b905092915050565b5f67ffffffffffffffff821115614bf257614bf161489e565b5b602082029050602081019050919050565b5f80fd5b5f614c19614c1484614bd8565b6148fc565b90508083825260208201905060208402830185811115614c3c57614c3b614c03565b5b835b81811015614c655780614c518882614710565b845260208401935050602081019050614c3e565b5050509392505050565b5f82601f830112614c8357614c82614886565b5b8135614c93848260208601614c07565b91505092915050565b5f805f805f60a08688031215614cb557614cb4614636565b5b5f614cc288828901614834565b9550506020614cd388828901614834565b945050604086013567ffffffffffffffff811115614cf457614cf361463a565b5b614d0088828901614c6f565b935050606086013567ffffffffffffffff811115614d2157614d2061463a565b5b614d2d88828901614c6f565b925050608086013567ffffffffffffffff811115614d4e57614d4d61463a565b5b614d5a88828901614995565b9150509295509295909350565b614d708161463e565b82525050565b5f602082019050614d895f830184614d67565b92915050565b5f819050919050565b5f614db2614dad614da8846147ee565b614d8f565b6147ee565b9050919050565b5f614dc382614d98565b9050919050565b5f614dd482614db9565b9050919050565b614de481614dca565b82525050565b5f602082019050614dfd5f830184614ddb565b92915050565b5f805f805f805f80610100898b031215614e2057614e1f614636565b5b5f614e2d8b828c01614710565b9850506020614e3e8b828c01614710565b9750506040614e4f8b828c01614710565b9650506060614e608b828c01614710565b9550506080614e718b828c01614710565b94505060a0614e828b828c01614834565b93505060c0614e938b828c01614710565b92505060e0614ea48b828c01614834565b9150509295985092959890939650565b5f67ffffffffffffffff821115614ece57614ecd61489e565b5b602082029050602081019050919050565b5f614ef1614eec84614eb4565b6148fc565b90508083825260208201905060208402830185811115614f1457614f13614c03565b5b835b81811015614f3d5780614f298882614834565b845260208401935050602081019050614f16565b5050509392505050565b5f82601f830112614f5b57614f5a614886565b5b8135614f6b848260208601614edf565b91505092915050565b5f805f805f805f805f6101208a8c031215614f9257614f91614636565b5b5f614f9f8c828d01614710565b9950506020614fb08c828d01614710565b9850506040614fc18c828d01614710565b9750506060614fd28c828d01614710565b9650506080614fe38c828d01614710565b95505060a0614ff48c828d01614710565b94505060c06150058c828d01614834565b93505060e08a013567ffffffffffffffff8111156150265761502561463a565b5b6150328c828d01614f47565b9250506101008a013567ffffffffffffffff8111156150545761505361463a565b5b6150608c828d01614c6f565b9150509295985092959850929598565b5f805f805f60a0868803121561508957615088614636565b5b5f61509688828901614834565b95505060206150a788828901614834565b94505060406150b888828901614710565b93505060606150c988828901614710565b925050608086013567ffffffffffffffff8111156150ea576150e961463a565b5b6150f688828901614995565b9150509295509295909350565b5f6040820190506151165f830185614a78565b61512360208301846147c6565b9392505050565b5f60408201905061513d5f8301856147c6565b61514a6020830184614a78565b9392505050565b5f6040820190506151645f8301856147c6565b61517160208301846147c6565b9392505050565b5f60608201905061518b5f8301866147c6565b61519860208301856147c6565b6151a560408301846147c6565b949350505050565b5f819050919050565b5f67ffffffffffffffff82169050919050565b5f6151e36151de6151d9846151ad565b614d8f565b6151b6565b9050919050565b6151f3816151c9565b82525050565b5f60208201905061520c5f8301846151ea565b92915050565b61521b816146be565b8114615225575f80fd5b50565b5f8151905061523681615212565b92915050565b5f8151905061524a816146fa565b92915050565b5f8151905061525e8161481e565b92915050565b5f805f806080858703121561527c5761527b614636565b5b5f61528987828801615228565b945050602061529a8782880161523c565b93505060406152ab87828801615250565b92505060606152bc87828801615250565b91505092959194509250565b7f4e487b71000000000000000000000000000000000000000000000000000000005f52601160045260245ffd5b5f6152ff826146f1565b915061530a836146f1565b9250828201905080821115615322576153216152c8565b5b92915050565b5f615332826146f1565b915061533d836146f1565b9250828203905081811115615355576153546152c8565b5b92915050565b5f60608201905061536e5f830186614a78565b61537b6020830185614a78565b61538860408301846147c6565b949350505050565b5f6060820190506153a35f830186614a78565b6153b060208301856147c6565b6153bd60408301846147c6565b949350505050565b5f6153cf826146f1565b91507fffffffffffffffffffffffffffffffffffffffffffffffffffffffffffffffff8203615401576154006152c8565b5b600182019050919050565b5f60808201905061541f5f8301876147c6565b61542c60208301866147c6565b61543960408301856147c6565b61544660608301846147c6565b95945050505050565b7f4e487b71000000000000000000000000000000000000000000000000000000005f52603260045260245ffd5b5f60608201905061548f5f830186614a78565b61549c60208301856147c6565b6154a960408301846146c9565b949350505050565b5f6154bb826146f1565b91506154c6836146f1565b92508282026154d4816146f1565b915082820484148315176154eb576154ea6152c8565b5b5092915050565b7f4e487b71000000000000000000000000000000000000000000000000000000005f52601260045260245ffd5b5f615529826146f1565b9150615534836146f1565b925082615544576155436154f2565b5b828204905092915050565b5f806040838503121561556557615564614636565b5b5f6155728582860161523c565b925050602061558385828601615250565b9150509250929050565b5f81905092915050565b50565b5f6155a55f8361558d565b91506155b082615597565b5f82019050919050565b5f6155c48261559a565b9150819050919050565b5f82825260208201905092915050565b7f30783030000000000000000000000000000000000000000000000000000000005f82015250565b5f6156126004836155ce565b915061561d826155de565b602082019050919050565b5f60a08201905061563b5f830187614a78565b6156486020830186614a78565b61565560408301856147c6565b61566260608301846147c6565b818103608083015261567381615606565b905095945050505050565b61568781614a1c565b8114615691575f80fd5b50565b5f815190506156a28161567e565b92915050565b5f602082840312156156bd576156bc614636565b5b5f6156ca84828501615694565b91505092915050565b5f81519050919050565b5f6156e7826156d3565b6156f1818561558d565b9350615701818560208601614b72565b80840191505092915050565b5f61571882846156dd565b91508190509291505056fea26469706673582212205aa6e222a43bfa9c315131f4a99884d62400a3faa3795d4005d536f50e6f164564736f6c634300081a0033",
			"opcodes": "PUSH1 0xA0 PUSH1 0x40 MSTORE ADDRESS PUSH20 0xFFFFFFFFFFFFFFFFFFFFFFFFFFFFFFFFFFFFFFFF AND PUSH1 0x80 SWAP1 PUSH20 0xFFFFFFFFFFFFFFFFFFFFFFFFFFFFFFFFFFFFFFFF AND DUP2 MSTORE POP CALLVALUE DUP1 ISZERO PUSH2 0x42 JUMPI PUSH0 DUP1 REVERT JUMPDEST POP PUSH2 0x51 PUSH2 0x56 PUSH1 0x20 SHL PUSH1 0x20 SHR JUMP JUMPDEST PUSH2 0x1B6 JUMP JUMPDEST PUSH0 PUSH2 0x65 PUSH2 0x154 PUSH1 0x20 SHL PUSH1 0x20 SHR JUMP JUMPDEST SWAP1 POP DUP1 PUSH0 ADD PUSH1 0x8 SWAP1 SLOAD SWAP1 PUSH2 0x100 EXP SWAP1 DIV PUSH1 0xFF AND ISZERO PUSH2 0xAF JUMPI PUSH1 0x40 MLOAD PUSH32 0xF92EE8A900000000000000000000000000000000000000000000000000000000 DUP2 MSTORE PUSH1 0x4 ADD PUSH1 0x40 MLOAD DUP1 SWAP2 SUB SWAP1 REVERT JUMPDEST PUSH8 0xFFFFFFFFFFFFFFFF DUP1 AND DUP2 PUSH0 ADD PUSH0 SWAP1 SLOAD SWAP1 PUSH2 0x100 EXP SWAP1 DIV PUSH8 0xFFFFFFFFFFFFFFFF AND PUSH8 0xFFFFFFFFFFFFFFFF AND EQ PUSH2 0x151 JUMPI PUSH8 0xFFFFFFFFFFFFFFFF DUP2 PUSH0 ADD PUSH0 PUSH2 0x100 EXP DUP2 SLOAD DUP2 PUSH8 0xFFFFFFFFFFFFFFFF MUL NOT AND SWAP1 DUP4 PUSH8 0xFFFFFFFFFFFFFFFF AND MUL OR SWAP1 SSTORE POP PUSH32 0xC7F505B2F371AE2175EE4913F4499E1F2633A7B5936321EED1CDAEB6115181D2 PUSH8 0xFFFFFFFFFFFFFFFF PUSH1 0x40 MLOAD PUSH2 0x148 SWAP2 SWAP1 PUSH2 0x19D JUMP JUMPDEST PUSH1 0x40 MLOAD DUP1 SWAP2 SUB SWAP1 LOG1 JUMPDEST POP JUMP JUMPDEST PUSH0 PUSH32 0xF0C57E16840DF040F15088DC2F81FE391C3923BEC73E23A9662EFC9C229C6A00 SWAP1 POP SWAP1 JUMP JUMPDEST PUSH0 PUSH8 0xFFFFFFFFFFFFFFFF DUP3 AND SWAP1 POP SWAP2 SWAP1 POP JUMP JUMPDEST PUSH2 0x197 DUP2 PUSH2 0x17B JUMP JUMPDEST DUP3 MSTORE POP POP JUMP JUMPDEST PUSH0 PUSH1 0x20 DUP3 ADD SWAP1 POP PUSH2 0x1B0 PUSH0 DUP4 ADD DUP5 PUSH2 0x18E JUMP JUMPDEST SWAP3 SWAP2 POP POP JUMP JUMPDEST PUSH1 0x80 MLOAD PUSH2 0x5759 PUSH2 0x1DC PUSH0 CODECOPY PUSH0 DUP2 DUP2 PUSH2 0x3B5B ADD MSTORE DUP2 DUP2 PUSH2 0x3BB0 ADD MSTORE PUSH2 0x3D6A ADD MSTORE PUSH2 0x5759 PUSH0 RETURN INVALID PUSH1 0x80 PUSH1 0x40 MSTORE PUSH1 0x4 CALLDATASIZE LT PUSH2 0x180 JUMPI PUSH0 CALLDATALOAD PUSH1 0xE0 SHR DUP1 PUSH4 0x84A184DE GT PUSH2 0xD0 JUMPI DUP1 PUSH4 0xBEA7D6E9 GT PUSH2 0x89 JUMPI DUP1 PUSH4 0xEAFA4039 GT PUSH2 0x63 JUMPI DUP1 PUSH4 0xEAFA4039 EQ PUSH2 0x53B JUMPI DUP1 PUSH4 0xEE229F7E EQ PUSH2 0x563 JUMPI DUP1 PUSH4 0xF23A6E61 EQ PUSH2 0x58B JUMPI DUP1 PUSH4 0xF2FDE38B EQ PUSH2 0x5C7 JUMPI PUSH2 0x180 JUMP JUMPDEST DUP1 PUSH4 0xBEA7D6E9 EQ PUSH2 0x4CD JUMPI DUP1 PUSH4 0xD2F6F67D EQ PUSH2 0x4E9 JUMPI DUP1 PUSH4 0xE30EC386 EQ PUSH2 0x513 JUMPI PUSH2 0x180 JUMP JUMPDEST DUP1 PUSH4 0x84A184DE EQ PUSH2 0x3A4 JUMPI DUP1 PUSH4 0x8DA5CB5B EQ PUSH2 0x3EB JUMPI DUP1 PUSH4 0x9E898E58 EQ PUSH2 0x415 JUMPI DUP1 PUSH4 0xAD3CB1CC EQ PUSH2 0x43F JUMPI DUP1 PUSH4 0xB9A2DE3A EQ PUSH2 0x469 JUMPI DUP1 PUSH4 0xBC197C81 EQ PUSH2 0x491 JUMPI PUSH2 0x180 JUMP JUMPDEST DUP1 PUSH4 0x4C205BC9 GT PUSH2 0x13D JUMPI DUP1 PUSH4 0x715018A6 GT PUSH2 0x117 JUMPI DUP1 PUSH4 0x715018A6 EQ PUSH2 0x2FE JUMPI DUP1 PUSH4 0x7CFD3E18 EQ PUSH2 0x314 JUMPI DUP1 PUSH4 0x824563F6 EQ PUSH2 0x350 JUMPI DUP1 PUSH4 0x831490F9 EQ PUSH2 0x37A JUMPI PUSH2 0x180 JUMP JUMPDEST DUP1 PUSH4 0x4C205BC9 EQ PUSH2 0x29C JUMPI DUP1 PUSH4 0x4F1EF286 EQ PUSH2 0x2B8 JUMPI DUP1 PUSH4 0x52D1902D EQ PUSH2 0x2D4 JUMPI PUSH2 0x180 JUMP JUMPDEST DUP1 PUSH4 0x1FFC9A7 EQ PUSH2 0x184 JUMPI DUP1 PUSH4 0x3C32AA9 EQ PUSH2 0x1C0 JUMPI DUP1 PUSH4 0x20EDDA38 EQ PUSH2 0x1E8 JUMPI DUP1 PUSH4 0x2C0BC695 EQ PUSH2 0x210 JUMPI DUP1 PUSH4 0x3D6C0507 EQ PUSH2 0x238 JUMPI DUP1 PUSH4 0x485CC955 EQ PUSH2 0x274 JUMPI JUMPDEST PUSH0 DUP1 REVERT JUMPDEST CALLVALUE DUP1 ISZERO PUSH2 0x18F JUMPI PUSH0 DUP1 REVERT JUMPDEST POP PUSH2 0x1AA PUSH1 0x4 DUP1 CALLDATASIZE SUB DUP2 ADD SWAP1 PUSH2 0x1A5 SWAP2 SWAP1 PUSH2 0x4693 JUMP JUMPDEST PUSH2 0x5EF JUMP JUMPDEST PUSH1 0x40 MLOAD PUSH2 0x1B7 SWAP2 SWAP1 PUSH2 0x46D8 JUMP JUMPDEST PUSH1 0x40 MLOAD DUP1 SWAP2 SUB SWAP1 RETURN JUMPDEST CALLVALUE DUP1 ISZERO PUSH2 0x1CB JUMPI PUSH0 DUP1 REVERT JUMPDEST POP PUSH2 0x1E6 PUSH1 0x4 DUP1 CALLDATASIZE SUB DUP2 ADD SWAP1 PUSH2 0x1E1 SWAP2 SWAP1 PUSH2 0x4724 JUMP JUMPDEST PUSH2 0x668 JUMP JUMPDEST STOP JUMPDEST CALLVALUE DUP1 ISZERO PUSH2 0x1F3 JUMPI PUSH0 DUP1 REVERT JUMPDEST POP PUSH2 0x20E PUSH1 0x4 DUP1 CALLDATASIZE SUB DUP2 ADD SWAP1 PUSH2 0x209 SWAP2 SWAP1 PUSH2 0x4724 JUMP JUMPDEST PUSH2 0x738 JUMP JUMPDEST STOP JUMPDEST CALLVALUE DUP1 ISZERO PUSH2 0x21B JUMPI PUSH0 DUP1 REVERT JUMPDEST POP PUSH2 0x236 PUSH1 0x4 DUP1 CALLDATASIZE SUB DUP2 ADD SWAP1 PUSH2 0x231 SWAP2 SWAP1 PUSH2 0x474F JUMP JUMPDEST PUSH2 0x7D7 JUMP JUMPDEST STOP JUMPDEST CALLVALUE DUP1 ISZERO PUSH2 0x243 JUMPI PUSH0 DUP1 REVERT JUMPDEST POP PUSH2 0x25E PUSH1 0x4 DUP1 CALLDATASIZE SUB DUP2 ADD SWAP1 PUSH2 0x259 SWAP2 SWAP1 PUSH2 0x4724 JUMP JUMPDEST PUSH2 0xC6B JUMP JUMPDEST PUSH1 0x40 MLOAD PUSH2 0x26B SWAP2 SWAP1 PUSH2 0x47D5 JUMP JUMPDEST PUSH1 0x40 MLOAD DUP1 SWAP2 SUB SWAP1 RETURN JUMPDEST CALLVALUE DUP1 ISZERO PUSH2 0x27F JUMPI PUSH0 DUP1 REVERT JUMPDEST POP PUSH2 0x29A PUSH1 0x4 DUP1 CALLDATASIZE SUB DUP2 ADD SWAP1 PUSH2 0x295 SWAP2 SWAP1 PUSH2 0x4848 JUMP JUMPDEST PUSH2 0xC85 JUMP JUMPDEST STOP JUMPDEST PUSH2 0x2B6 PUSH1 0x4 DUP1 CALLDATASIZE SUB DUP2 ADD SWAP1 PUSH2 0x2B1 SWAP2 SWAP1 PUSH2 0x4724 JUMP JUMPDEST PUSH2 0xE9E JUMP JUMPDEST STOP JUMPDEST PUSH2 0x2D2 PUSH1 0x4 DUP1 CALLDATASIZE SUB DUP2 ADD SWAP1 PUSH2 0x2CD SWAP2 SWAP1 PUSH2 0x49C2 JUMP JUMPDEST PUSH2 0x15FA JUMP JUMPDEST STOP JUMPDEST CALLVALUE DUP1 ISZERO PUSH2 0x2DF JUMPI PUSH0 DUP1 REVERT JUMPDEST POP PUSH2 0x2E8 PUSH2 0x1619 JUMP JUMPDEST PUSH1 0x40 MLOAD PUSH2 0x2F5 SWAP2 SWAP1 PUSH2 0x4A34 JUMP JUMPDEST PUSH1 0x40 MLOAD DUP1 SWAP2 SUB SWAP1 RETURN JUMPDEST CALLVALUE DUP1 ISZERO PUSH2 0x309 JUMPI PUSH0 DUP1 REVERT JUMPDEST POP PUSH2 0x312 PUSH2 0x164A JUMP JUMPDEST STOP JUMPDEST CALLVALUE DUP1 ISZERO PUSH2 0x31F JUMPI PUSH0 DUP1 REVERT JUMPDEST POP PUSH2 0x33A PUSH1 0x4 DUP1 CALLDATASIZE SUB DUP2 ADD SWAP1 PUSH2 0x335 SWAP2 SWAP1 PUSH2 0x4A4D JUMP JUMPDEST PUSH2 0x165D JUMP JUMPDEST PUSH1 0x40 MLOAD PUSH2 0x347 SWAP2 SWAP1 PUSH2 0x47D5 JUMP JUMPDEST PUSH1 0x40 MLOAD DUP1 SWAP2 SUB SWAP1 RETURN JUMPDEST CALLVALUE DUP1 ISZERO PUSH2 0x35B JUMPI PUSH0 DUP1 REVERT JUMPDEST POP PUSH2 0x364 PUSH2 0x1672 JUMP JUMPDEST PUSH1 0x40 MLOAD PUSH2 0x371 SWAP2 SWAP1 PUSH2 0x4A87 JUMP JUMPDEST PUSH1 0x40 MLOAD DUP1 SWAP2 SUB SWAP1 RETURN JUMPDEST CALLVALUE DUP1 ISZERO PUSH2 0x385 JUMPI PUSH0 DUP1 REVERT JUMPDEST POP PUSH2 0x38E PUSH2 0x1697 JUMP JUMPDEST PUSH1 0x40 MLOAD PUSH2 0x39B SWAP2 SWAP1 PUSH2 0x47D5 JUMP JUMPDEST PUSH1 0x40 MLOAD DUP1 SWAP2 SUB SWAP1 RETURN JUMPDEST CALLVALUE DUP1 ISZERO PUSH2 0x3AF JUMPI PUSH0 DUP1 REVERT JUMPDEST POP PUSH2 0x3CA PUSH1 0x4 DUP1 CALLDATASIZE SUB DUP2 ADD SWAP1 PUSH2 0x3C5 SWAP2 SWAP1 PUSH2 0x4724 JUMP JUMPDEST PUSH2 0x169D JUMP JUMPDEST PUSH1 0x40 MLOAD PUSH2 0x3E2 SWAP13 SWAP12 SWAP11 SWAP10 SWAP9 SWAP8 SWAP7 SWAP6 SWAP5 SWAP4 SWAP3 SWAP2 SWAP1 PUSH2 0x4AA0 JUMP JUMPDEST PUSH1 0x40 MLOAD DUP1 SWAP2 SUB SWAP1 RETURN JUMPDEST CALLVALUE DUP1 ISZERO PUSH2 0x3F6 JUMPI PUSH0 DUP1 REVERT JUMPDEST POP PUSH2 0x3FF PUSH2 0x177A JUMP JUMPDEST PUSH1 0x40 MLOAD PUSH2 0x40C SWAP2 SWAP1 PUSH2 0x4A87 JUMP JUMPDEST PUSH1 0x40 MLOAD DUP1 SWAP2 SUB SWAP1 RETURN JUMPDEST CALLVALUE DUP1 ISZERO PUSH2 0x420 JUMPI PUSH0 DUP1 REVERT JUMPDEST POP PUSH2 0x429 PUSH2 0x17AF JUMP JUMPDEST PUSH1 0x40 MLOAD PUSH2 0x436 SWAP2 SWAP1 PUSH2 0x47D5 JUMP JUMPDEST PUSH1 0x40 MLOAD DUP1 SWAP2 SUB SWAP1 RETURN JUMPDEST CALLVALUE DUP1 ISZERO PUSH2 0x44A JUMPI PUSH0 DUP1 REVERT JUMPDEST POP PUSH2 0x453 PUSH2 0x17B5 JUMP JUMPDEST PUSH1 0x40 MLOAD PUSH2 0x460 SWAP2 SWAP1 PUSH2 0x4BB8 JUMP JUMPDEST PUSH1 0x40 MLOAD DUP1 SWAP2 SUB SWAP1 RETURN JUMPDEST CALLVALUE DUP1 ISZERO PUSH2 0x474 JUMPI PUSH0 DUP1 REVERT JUMPDEST POP PUSH2 0x48F PUSH1 0x4 DUP1 CALLDATASIZE SUB DUP2 ADD SWAP1 PUSH2 0x48A SWAP2 SWAP1 PUSH2 0x4724 JUMP JUMPDEST PUSH2 0x17EE JUMP JUMPDEST STOP JUMPDEST CALLVALUE DUP1 ISZERO PUSH2 0x49C JUMPI PUSH0 DUP1 REVERT JUMPDEST POP PUSH2 0x4B7 PUSH1 0x4 DUP1 CALLDATASIZE SUB DUP2 ADD SWAP1 PUSH2 0x4B2 SWAP2 SWAP1 PUSH2 0x4C9C JUMP JUMPDEST PUSH2 0x1F5E JUMP JUMPDEST PUSH1 0x40 MLOAD PUSH2 0x4C4 SWAP2 SWAP1 PUSH2 0x4D76 JUMP JUMPDEST PUSH1 0x40 MLOAD DUP1 SWAP2 SUB SWAP1 RETURN JUMPDEST PUSH2 0x4E7 PUSH1 0x4 DUP1 CALLDATASIZE SUB DUP2 ADD SWAP1 PUSH2 0x4E2 SWAP2 SWAP1 PUSH2 0x4724 JUMP JUMPDEST PUSH2 0x1F72 JUMP JUMPDEST STOP JUMPDEST CALLVALUE DUP1 ISZERO PUSH2 0x4F4 JUMPI PUSH0 DUP1 REVERT JUMPDEST POP PUSH2 0x4FD PUSH2 0x24A5 JUMP JUMPDEST PUSH1 0x40 MLOAD PUSH2 0x50A SWAP2 SWAP1 PUSH2 0x4DEA JUMP JUMPDEST PUSH1 0x40 MLOAD DUP1 SWAP2 SUB SWAP1 RETURN JUMPDEST CALLVALUE DUP1 ISZERO PUSH2 0x51E JUMPI PUSH0 DUP1 REVERT JUMPDEST POP PUSH2 0x539 PUSH1 0x4 DUP1 CALLDATASIZE SUB DUP2 ADD SWAP1 PUSH2 0x534 SWAP2 SWAP1 PUSH2 0x4E03 JUMP JUMPDEST PUSH2 0x24C8 JUMP JUMPDEST STOP JUMPDEST CALLVALUE DUP1 ISZERO PUSH2 0x546 JUMPI PUSH0 DUP1 REVERT JUMPDEST POP PUSH2 0x561 PUSH1 0x4 DUP1 CALLDATASIZE SUB DUP2 ADD SWAP1 PUSH2 0x55C SWAP2 SWAP1 PUSH2 0x4F74 JUMP JUMPDEST PUSH2 0x27B8 JUMP JUMPDEST STOP JUMPDEST CALLVALUE DUP1 ISZERO PUSH2 0x56E JUMPI PUSH0 DUP1 REVERT JUMPDEST POP PUSH2 0x589 PUSH1 0x4 DUP1 CALLDATASIZE SUB DUP2 ADD SWAP1 PUSH2 0x584 SWAP2 SWAP1 PUSH2 0x4724 JUMP JUMPDEST PUSH2 0x2B68 JUMP JUMPDEST STOP JUMPDEST CALLVALUE DUP1 ISZERO PUSH2 0x596 JUMPI PUSH0 DUP1 REVERT JUMPDEST POP PUSH2 0x5B1 PUSH1 0x4 DUP1 CALLDATASIZE SUB DUP2 ADD SWAP1 PUSH2 0x5AC SWAP2 SWAP1 PUSH2 0x5070 JUMP JUMPDEST PUSH2 0x2EA3 JUMP JUMPDEST PUSH1 0x40 MLOAD PUSH2 0x5BE SWAP2 SWAP1 PUSH2 0x4D76 JUMP JUMPDEST PUSH1 0x40 MLOAD DUP1 SWAP2 SUB SWAP1 RETURN JUMPDEST CALLVALUE DUP1 ISZERO PUSH2 0x5D2 JUMPI PUSH0 DUP1 REVERT JUMPDEST POP PUSH2 0x5ED PUSH1 0x4 DUP1 CALLDATASIZE SUB DUP2 ADD SWAP1 PUSH2 0x5E8 SWAP2 SWAP1 PUSH2 0x4A4D JUMP JUMPDEST PUSH2 0x2EB7 JUMP JUMPDEST STOP JUMPDEST PUSH0 PUSH32 0x4E2312E000000000000000000000000000000000000000000000000000000000 PUSH28 0xFFFFFFFFFFFFFFFFFFFFFFFFFFFFFFFFFFFFFFFFFFFFFFFFFFFFFFFF NOT AND DUP3 PUSH28 0xFFFFFFFFFFFFFFFFFFFFFFFFFFFFFFFFFFFFFFFFFFFFFFFFFFFFFFFF NOT AND EQ DUP1 PUSH2 0x661 JUMPI POP PUSH2 0x660 DUP3 PUSH2 0x2F3B JUMP JUMPDEST JUMPDEST SWAP1 POP SWAP2 SWAP1 POP JUMP JUMPDEST PUSH1 0x64 DUP2 LT DUP1 PUSH2 0x678 JUMPI POP PUSH2 0x3E8 DUP2 GT JUMPDEST ISZERO PUSH2 0x6BA JUMPI DUP1 PUSH1 0x40 MLOAD PUSH32 0x370647A800000000000000000000000000000000000000000000000000000000 DUP2 MSTORE PUSH1 0x4 ADD PUSH2 0x6B1 SWAP2 SWAP1 PUSH2 0x47D5 JUMP JUMPDEST PUSH1 0x40 MLOAD DUP1 SWAP2 SUB SWAP1 REVERT JUMPDEST DUP1 PUSH1 0x6 PUSH0 CALLER PUSH20 0xFFFFFFFFFFFFFFFFFFFFFFFFFFFFFFFFFFFFFFFF AND PUSH20 0xFFFFFFFFFFFFFFFFFFFFFFFFFFFFFFFFFFFFFFFF AND DUP2 MSTORE PUSH1 0x20 ADD SWAP1 DUP2 MSTORE PUSH1 0x20 ADD PUSH0 KECCAK256 DUP2 SWAP1 SSTORE POP PUSH32 0xBEE82E0CD48A0DFD192B0980A9A2C7D9B007AAD1B38C23A235B4121B554D9C8A CALLER DUP3 PUSH1 0x40 MLOAD PUSH2 0x72D SWAP3 SWAP2 SWAP1 PUSH2 0x5103 JUMP JUMPDEST PUSH1 0x40 MLOAD DUP1 SWAP2 SUB SWAP1 LOG1 POP JUMP JUMPDEST PUSH2 0x740 PUSH2 0x2FA4 JUMP JUMPDEST PUSH0 DUP2 GT ISZERO DUP1 PUSH2 0x750 JUMPI POP PUSH2 0xBB8 DUP2 GT JUMPDEST ISZERO PUSH2 0x792 JUMPI DUP1 PUSH1 0x40 MLOAD PUSH32 0xD3D7DA7400000000000000000000000000000000000000000000000000000000 DUP2 MSTORE PUSH1 0x4 ADD PUSH2 0x789 SWAP2 SWAP1 PUSH2 0x47D5 JUMP JUMPDEST PUSH1 0x40 MLOAD DUP1 SWAP2 SUB SWAP1 REVERT JUMPDEST DUP1 PUSH1 0x2 DUP2 SWAP1 SSTORE POP PUSH32 0x8B52E67D733E4BFFDB3A2DF53E3B88E2F31125FC8A8442B742602F8F7D0ED3E9 PUSH1 0x2 SLOAD CALLER PUSH1 0x40 MLOAD PUSH2 0x7CC SWAP3 SWAP2 SWAP1 PUSH2 0x512A JUMP JUMPDEST PUSH1 0x40 MLOAD DUP1 SWAP2 SUB SWAP1 LOG1 POP JUMP JUMPDEST DUP5 PUSH0 DUP2 GT PUSH2 0x81C JUMPI DUP1 PUSH1 0x40 MLOAD PUSH32 0xC860174B00000000000000000000000000000000000000000000000000000000 DUP2 MSTORE PUSH1 0x4 ADD PUSH2 0x813 SWAP2 SWAP1 PUSH2 0x47D5 JUMP JUMPDEST PUSH1 0x40 MLOAD DUP1 SWAP2 SUB SWAP1 REVERT JUMPDEST PUSH1 0x4 PUSH0 DUP3 DUP2 MSTORE PUSH1 0x20 ADD SWAP1 DUP2 MSTORE PUSH1 0x20 ADD PUSH0 KECCAK256 PUSH0 ADD PUSH0 SWAP1 SLOAD SWAP1 PUSH2 0x100 EXP SWAP1 DIV PUSH1 0xFF AND PUSH2 0x89C JUMPI PUSH1 0x4 PUSH0 DUP3 DUP2 MSTORE PUSH1 0x20 ADD SWAP1 DUP2 MSTORE PUSH1 0x20 ADD PUSH0 KECCAK256 PUSH0 ADD PUSH0 SWAP1 SLOAD SWAP1 PUSH2 0x100 EXP SWAP1 DIV PUSH1 0xFF AND PUSH1 0x40 MLOAD PUSH32 0xE6C1C63700000000000000000000000000000000000000000000000000000000 DUP2 MSTORE PUSH1 0x4 ADD PUSH2 0x893 SWAP2 SWAP1 PUSH2 0x46D8 JUMP JUMPDEST PUSH1 0x40 MLOAD DUP1 SWAP2 SUB SWAP1 REVERT JUMPDEST PUSH1 0x4 PUSH0 DUP3 DUP2 MSTORE PUSH1 0x20 ADD SWAP1 DUP2 MSTORE PUSH1 0x20 ADD PUSH0 KECCAK256 PUSH0 ADD PUSH1 0x1 SWAP1 SLOAD SWAP1 PUSH2 0x100 EXP SWAP1 DIV PUSH1 0xFF AND ISZERO PUSH2 0x91F JUMPI PUSH1 0x4 PUSH0 DUP3 DUP2 MSTORE PUSH1 0x20 ADD SWAP1 DUP2 MSTORE PUSH1 0x20 ADD PUSH0 KECCAK256 PUSH0 ADD PUSH1 0x1 SWAP1 SLOAD SWAP1 PUSH2 0x100 EXP SWAP1 DIV PUSH1 0xFF AND PUSH1 0x40 MLOAD PUSH32 0x48D00A0000000000000000000000000000000000000000000000000000000000 DUP2 MSTORE PUSH1 0x4 ADD PUSH2 0x916 SWAP2 SWAP1 PUSH2 0x46D8 JUMP JUMPDEST PUSH1 0x40 MLOAD DUP1 SWAP2 SUB SWAP1 REVERT JUMPDEST PUSH1 0x4 PUSH0 DUP8 DUP2 MSTORE PUSH1 0x20 ADD SWAP1 DUP2 MSTORE PUSH1 0x20 ADD PUSH0 KECCAK256 PUSH1 0x9 ADD SLOAD TIMESTAMP LT DUP1 PUSH2 0x954 JUMPI POP PUSH1 0x4 PUSH0 DUP8 DUP2 MSTORE PUSH1 0x20 ADD SWAP1 DUP2 MSTORE PUSH1 0x20 ADD PUSH0 KECCAK256 PUSH1 0x8 ADD SLOAD TIMESTAMP GT JUMPDEST ISZERO PUSH2 0x9C0 JUMPI PUSH1 0x4 PUSH0 DUP8 DUP2 MSTORE PUSH1 0x20 ADD SWAP1 DUP2 MSTORE PUSH1 0x20 ADD PUSH0 KECCAK256 PUSH1 0x9 ADD SLOAD PUSH1 0x4 PUSH0 DUP9 DUP2 MSTORE PUSH1 0x20 ADD SWAP1 DUP2 MSTORE PUSH1 0x20 ADD PUSH0 KECCAK256 PUSH1 0x8 ADD SLOAD PUSH1 0x40 MLOAD PUSH32 0xDD96246F00000000000000000000000000000000000000000000000000000000 DUP2 MSTORE PUSH1 0x4 ADD PUSH2 0x9B7 SWAP3 SWAP2 SWAP1 PUSH2 0x5151 JUMP JUMPDEST PUSH1 0x40 MLOAD DUP1 SWAP2 SUB SWAP1 REVERT JUMPDEST PUSH1 0x4 PUSH0 DUP8 DUP2 MSTORE PUSH1 0x20 ADD SWAP1 DUP2 MSTORE PUSH1 0x20 ADD PUSH0 KECCAK256 PUSH1 0x5 ADD PUSH0 SWAP1 SLOAD SWAP1 PUSH2 0x100 EXP SWAP1 DIV PUSH20 0xFFFFFFFFFFFFFFFFFFFFFFFFFFFFFFFFFFFFFFFF AND PUSH20 0xFFFFFFFFFFFFFFFFFFFFFFFFFFFFFFFFFFFFFFFF AND CALLER PUSH20 0xFFFFFFFFFFFFFFFFFFFFFFFFFFFFFFFFFFFFFFFF AND EQ PUSH2 0xA96 JUMPI PUSH1 0x4 PUSH0 DUP8 DUP2 MSTORE PUSH1 0x20 ADD SWAP1 DUP2 MSTORE PUSH1 0x20 ADD PUSH0 KECCAK256 PUSH1 0x5 ADD PUSH0 SWAP1 SLOAD SWAP1 PUSH2 0x100 EXP SWAP1 DIV PUSH20 0xFFFFFFFFFFFFFFFFFFFFFFFFFFFFFFFFFFFFFFFF AND PUSH1 0x40 MLOAD PUSH32 0x458A16AF00000000000000000000000000000000000000000000000000000000 DUP2 MSTORE PUSH1 0x4 ADD PUSH2 0xA8D SWAP2 SWAP1 PUSH2 0x4A87 JUMP JUMPDEST PUSH1 0x40 MLOAD DUP1 SWAP2 SUB SWAP1 REVERT JUMPDEST PUSH0 DUP5 EQ ISZERO DUP1 ISZERO PUSH2 0xAA6 JUMPI POP PUSH0 DUP4 EQ ISZERO JUMPDEST ISZERO PUSH2 0xB82 JUMPI PUSH0 PUSH20 0xFFFFFFFFFFFFFFFFFFFFFFFFFFFFFFFFFFFFFFFF AND PUSH1 0x4 PUSH0 DUP9 DUP2 MSTORE PUSH1 0x20 ADD SWAP1 DUP2 MSTORE PUSH1 0x20 ADD PUSH0 KECCAK256 PUSH1 0x6 ADD PUSH0 SWAP1 SLOAD SWAP1 PUSH2 0x100 EXP SWAP1 DIV PUSH20 0xFFFFFFFFFFFFFFFFFFFFFFFFFFFFFFFFFFFFFFFF AND PUSH20 0xFFFFFFFFFFFFFFFFFFFFFFFFFFFFFFFFFFFFFFFF AND EQ PUSH2 0xB81 JUMPI PUSH1 0x4 PUSH0 DUP8 DUP2 MSTORE PUSH1 0x20 ADD SWAP1 DUP2 MSTORE PUSH1 0x20 ADD PUSH0 KECCAK256 PUSH1 0x6 ADD PUSH0 SWAP1 SLOAD SWAP1 PUSH2 0x100 EXP SWAP1 DIV PUSH20 0xFFFFFFFFFFFFFFFFFFFFFFFFFFFFFFFFFFFFFFFF AND PUSH1 0x40 MLOAD PUSH32 0xE7C9314E00000000000000000000000000000000000000000000000000000000 DUP2 MSTORE PUSH1 0x4 ADD PUSH2 0xB78 SWAP2 SWAP1 PUSH2 0x4A87 JUMP JUMPDEST PUSH1 0x40 MLOAD DUP1 SWAP2 SUB SWAP1 REVERT JUMPDEST JUMPDEST PUSH2 0xBEC PUSH1 0x4 PUSH0 DUP9 DUP2 MSTORE PUSH1 0x20 ADD SWAP1 DUP2 MSTORE PUSH1 0x20 ADD PUSH0 KECCAK256 PUSH1 0x3 ADD SLOAD PUSH1 0x4 PUSH0 DUP10 DUP2 MSTORE PUSH1 0x20 ADD SWAP1 DUP2 MSTORE PUSH1 0x20 ADD PUSH0 KECCAK256 PUSH1 0x4 ADD SLOAD DUP8 DUP8 DUP8 PUSH1 0x4 PUSH0 DUP14 DUP2 MSTORE PUSH1 0x20 ADD SWAP1 DUP2 MSTORE PUSH1 0x20 ADD PUSH0 KECCAK256 PUSH1 0x7 ADD PUSH0 SWAP1 SLOAD SWAP1 PUSH2 0x100 EXP SWAP1 DIV PUSH20 0xFFFFFFFFFFFFFFFFFFFFFFFFFFFFFFFFFFFFFFFF AND DUP9 PUSH2 0x302B JUMP JUMPDEST PUSH32 0xD3F4E53A5792E81767B11408A290F82CF83FDE26090D65773F2C0A9AEB63ADFB PUSH1 0x4 PUSH0 DUP9 DUP2 MSTORE PUSH1 0x20 ADD SWAP1 DUP2 MSTORE PUSH1 0x20 ADD PUSH0 KECCAK256 PUSH1 0x2 ADD SLOAD PUSH1 0x4 PUSH0 DUP10 DUP2 MSTORE PUSH1 0x20 ADD SWAP1 DUP2 MSTORE PUSH1 0x20 ADD PUSH0 KECCAK256 PUSH1 0x9 ADD SLOAD PUSH1 0x4 PUSH0 DUP11 DUP2 MSTORE PUSH1 0x20 ADD SWAP1 DUP2 MSTORE PUSH1 0x20 ADD PUSH0 KECCAK256 PUSH1 0x8 ADD SLOAD PUSH1 0x40 MLOAD PUSH2 0xC5B SWAP4 SWAP3 SWAP2 SWAP1 PUSH2 0x5178 JUMP JUMPDEST PUSH1 0x40 MLOAD DUP1 SWAP2 SUB SWAP1 LOG1 POP POP POP POP POP POP JUMP JUMPDEST PUSH1 0x5 PUSH1 0x20 MSTORE DUP1 PUSH0 MSTORE PUSH1 0x40 PUSH0 KECCAK256 PUSH0 SWAP2 POP SWAP1 POP DUP1 PUSH0 ADD SLOAD SWAP1 POP DUP2 JUMP JUMPDEST PUSH0 PUSH2 0xC8E PUSH2 0x334A JUMP JUMPDEST SWAP1 POP PUSH0 DUP2 PUSH0 ADD PUSH1 0x8 SWAP1 SLOAD SWAP1 PUSH2 0x100 EXP SWAP1 DIV PUSH1 0xFF AND ISZERO SWAP1 POP PUSH0 DUP3 PUSH0 ADD PUSH0 SWAP1 SLOAD SWAP1 PUSH2 0x100 EXP SWAP1 DIV PUSH8 0xFFFFFFFFFFFFFFFF AND SWAP1 POP PUSH0 DUP1 DUP3 PUSH8 0xFFFFFFFFFFFFFFFF AND EQ DUP1 ISZERO PUSH2 0xCD6 JUMPI POP DUP3 JUMPDEST SWAP1 POP PUSH0 PUSH1 0x1 DUP4 PUSH8 0xFFFFFFFFFFFFFFFF AND EQ DUP1 ISZERO PUSH2 0xD09 JUMPI POP PUSH0 ADDRESS PUSH20 0xFFFFFFFFFFFFFFFFFFFFFFFFFFFFFFFFFFFFFFFF AND EXTCODESIZE EQ JUMPDEST SWAP1 POP DUP2 ISZERO DUP1 ISZERO PUSH2 0xD17 JUMPI POP DUP1 ISZERO JUMPDEST ISZERO PUSH2 0xD4E JUMPI PUSH1 0x40 MLOAD PUSH32 0xF92EE8A900000000000000000000000000000000000000000000000000000000 DUP2 MSTORE PUSH1 0x4 ADD PUSH1 0x40 MLOAD DUP1 SWAP2 SUB SWAP1 REVERT JUMPDEST PUSH1 0x1 DUP6 PUSH0 ADD PUSH0 PUSH2 0x100 EXP DUP2 SLOAD DUP2 PUSH8 0xFFFFFFFFFFFFFFFF MUL NOT AND SWAP1 DUP4 PUSH8 0xFFFFFFFFFFFFFFFF AND MUL OR SWAP1 SSTORE POP DUP4 ISZERO PUSH2 0xD9B JUMPI PUSH1 0x1 DUP6 PUSH0 ADD PUSH1 0x8 PUSH2 0x100 EXP DUP2 SLOAD DUP2 PUSH1 0xFF MUL NOT AND SWAP1 DUP4 ISZERO ISZERO MUL OR SWAP1 SSTORE POP JUMPDEST PUSH1 0xFA PUSH1 0x2 DUP2 SWAP1 SSTORE POP DUP7 PUSH1 0x3 PUSH0 PUSH2 0x100 EXP DUP2 SLOAD DUP2 PUSH20 0xFFFFFFFFFFFFFFFFFFFFFFFFFFFFFFFFFFFFFFFF MUL NOT AND SWAP1 DUP4 PUSH20 0xFFFFFFFFFFFFFFFFFFFFFFFFFFFFFFFFFFFFFFFF AND MUL OR SWAP1 SSTORE POP DUP7 PUSH0 DUP1 PUSH2 0x100 EXP DUP2 SLOAD DUP2 PUSH20 0xFFFFFFFFFFFFFFFFFFFFFFFFFFFFFFFFFFFFFFFF MUL NOT AND SWAP1 DUP4 PUSH20 0xFFFFFFFFFFFFFFFFFFFFFFFFFFFFFFFFFFFFFFFF AND MUL OR SWAP1 SSTORE POP PUSH2 0xE2A PUSH2 0x3371 JUMP JUMPDEST PUSH2 0xE33 DUP7 PUSH2 0x337B JUMP JUMPDEST PUSH2 0xE3B PUSH2 0x338F JUMP JUMPDEST DUP4 ISZERO PUSH2 0xE95 JUMPI PUSH0 DUP6 PUSH0 ADD PUSH1 0x8 PUSH2 0x100 EXP DUP2 SLOAD DUP2 PUSH1 0xFF MUL NOT AND SWAP1 DUP4 ISZERO ISZERO MUL OR SWAP1 SSTORE POP PUSH32 0xC7F505B2F371AE2175EE4913F4499E1F2633A7B5936321EED1CDAEB6115181D2 PUSH1 0x1 PUSH1 0x40 MLOAD PUSH2 0xE8C SWAP2 SWAP1 PUSH2 0x51F9 JUMP JUMPDEST PUSH1 0x40 MLOAD DUP1 SWAP2 SUB SWAP1 LOG1 JUMPDEST POP POP POP POP POP POP POP JUMP JUMPDEST DUP1 PUSH0 DUP2 GT PUSH2 0xEE3 JUMPI DUP1 PUSH1 0x40 MLOAD PUSH32 0xC860174B00000000000000000000000000000000000000000000000000000000 DUP2 MSTORE PUSH1 0x4 ADD PUSH2 0xEDA SWAP2 SWAP1 PUSH2 0x47D5 JUMP JUMPDEST PUSH1 0x40 MLOAD DUP1 SWAP2 SUB SWAP1 REVERT JUMPDEST PUSH1 0x4 PUSH0 DUP3 DUP2 MSTORE PUSH1 0x20 ADD SWAP1 DUP2 MSTORE PUSH1 0x20 ADD PUSH0 KECCAK256 PUSH0 ADD PUSH0 SWAP1 SLOAD SWAP1 PUSH2 0x100 EXP SWAP1 DIV PUSH1 0xFF AND PUSH2 0xF63 JUMPI PUSH1 0x4 PUSH0 DUP3 DUP2 MSTORE PUSH1 0x20 ADD SWAP1 DUP2 MSTORE PUSH1 0x20 ADD PUSH0 KECCAK256 PUSH0 ADD PUSH0 SWAP1 SLOAD SWAP1 PUSH2 0x100 EXP SWAP1 DIV PUSH1 0xFF AND PUSH1 0x40 MLOAD PUSH32 0xE6C1C63700000000000000000000000000000000000000000000000000000000 DUP2 MSTORE PUSH1 0x4 ADD PUSH2 0xF5A SWAP2 SWAP1 PUSH2 0x46D8 JUMP JUMPDEST PUSH1 0x40 MLOAD DUP1 SWAP2 SUB SWAP1 REVERT JUMPDEST PUSH1 0x4 PUSH0 DUP3 DUP2 MSTORE PUSH1 0x20 ADD SWAP1 DUP2 MSTORE PUSH1 0x20 ADD PUSH0 KECCAK256 PUSH0 ADD PUSH1 0x1 SWAP1 SLOAD SWAP1 PUSH2 0x100 EXP SWAP1 DIV PUSH1 0xFF AND ISZERO PUSH2 0xFE6 JUMPI PUSH1 0x4 PUSH0 DUP3 DUP2 MSTORE PUSH1 0x20 ADD SWAP1 DUP2 MSTORE PUSH1 0x20 ADD PUSH0 KECCAK256 PUSH0 ADD PUSH1 0x1 SWAP1 SLOAD SWAP1 PUSH2 0x100 EXP SWAP1 DIV PUSH1 0xFF AND PUSH1 0x40 MLOAD PUSH32 0x48D00A0000000000000000000000000000000000000000000000000000000000 DUP2 MSTORE PUSH1 0x4 ADD PUSH2 0xFDD SWAP2 SWAP1 PUSH2 0x46D8 JUMP JUMPDEST PUSH1 0x40 MLOAD DUP1 SWAP2 SUB SWAP1 REVERT JUMPDEST PUSH1 0x4 PUSH0 DUP4 DUP2 MSTORE PUSH1 0x20 ADD SWAP1 DUP2 MSTORE PUSH1 0x20 ADD PUSH0 KECCAK256 PUSH1 0x2 ADD SLOAD CALLVALUE EQ PUSH2 0x103E JUMPI CALLVALUE PUSH1 0x40 MLOAD PUSH32 0x85D649F700000000000000000000000000000000000000000000000000000000 DUP2 MSTORE PUSH1 0x4 ADD PUSH2 0x1035 SWAP2 SWAP1 PUSH2 0x47D5 JUMP JUMPDEST PUSH1 0x40 MLOAD DUP1 SWAP2 SUB SWAP1 REVERT JUMPDEST PUSH1 0x4 PUSH0 DUP4 DUP2 MSTORE PUSH1 0x20 ADD SWAP1 DUP2 MSTORE PUSH1 0x20 ADD PUSH0 KECCAK256 PUSH0 ADD PUSH1 0x2 SWAP1 SLOAD SWAP1 PUSH2 0x100 EXP SWAP1 DIV PUSH1 0xFF AND PUSH2 0x10C0 JUMPI PUSH1 0x4 PUSH0 DUP4 DUP2 MSTORE PUSH1 0x20 ADD SWAP1 DUP2 MSTORE PUSH1 0x20 ADD PUSH0 KECCAK256 PUSH0 ADD PUSH1 0x2 SWAP1 SLOAD SWAP1 PUSH2 0x100 EXP SWAP1 DIV PUSH1 0xFF AND PUSH1 0x40 MLOAD PUSH32 0x9CF9F1F700000000000000000000000000000000000000000000000000000000 DUP2 MSTORE PUSH1 0x4 ADD PUSH2 0x10B7 SWAP2 SWAP1 PUSH2 0x46D8 JUMP JUMPDEST PUSH1 0x40 MLOAD DUP1 SWAP2 SUB SWAP1 REVERT JUMPDEST PUSH1 0x4 PUSH0 DUP4 DUP2 MSTORE PUSH1 0x20 ADD SWAP1 DUP2 MSTORE PUSH1 0x20 ADD PUSH0 KECCAK256 PUSH1 0x5 ADD PUSH0 SWAP1 SLOAD SWAP1 PUSH2 0x100 EXP SWAP1 DIV PUSH20 0xFFFFFFFFFFFFFFFFFFFFFFFFFFFFFFFFFFFFFFFF AND PUSH20 0xFFFFFFFFFFFFFFFFFFFFFFFFFFFFFFFFFFFFFFFF AND CALLER PUSH20 0xFFFFFFFFFFFFFFFFFFFFFFFFFFFFFFFFFFFFFFFF AND SUB PUSH2 0x1196 JUMPI PUSH1 0x4 PUSH0 DUP4 DUP2 MSTORE PUSH1 0x20 ADD SWAP1 DUP2 MSTORE PUSH1 0x20 ADD PUSH0 KECCAK256 PUSH1 0x5 ADD PUSH0 SWAP1 SLOAD SWAP1 PUSH2 0x100 EXP SWAP1 DIV PUSH20 0xFFFFFFFFFFFFFFFFFFFFFFFFFFFFFFFFFFFFFFFF AND PUSH1 0x40 MLOAD PUSH32 0x9507836000000000000000000000000000000000000000000000000000000000 DUP2 MSTORE PUSH1 0x4 ADD PUSH2 0x118D SWAP2 SWAP1 PUSH2 0x4A87 JUMP JUMPDEST PUSH1 0x40 MLOAD DUP1 SWAP2 SUB SWAP1 REVERT JUMPDEST CALLER PUSH1 0x4 PUSH0 DUP5 DUP2 MSTORE PUSH1 0x20 ADD SWAP1 DUP2 MSTORE PUSH1 0x20 ADD PUSH0 KECCAK256 PUSH1 0x6 ADD PUSH0 PUSH2 0x100 EXP DUP2 SLOAD DUP2 PUSH20 0xFFFFFFFFFFFFFFFFFFFFFFFFFFFFFFFFFFFFFFFF MUL NOT AND SWAP1 DUP4 PUSH20 0xFFFFFFFFFFFFFFFFFFFFFFFFFFFFFFFFFFFFFFFF AND MUL OR SWAP1 SSTORE POP PUSH0 DUP1 PUSH1 0x4 PUSH0 DUP6 DUP2 MSTORE PUSH1 0x20 ADD SWAP1 DUP2 MSTORE PUSH1 0x20 ADD PUSH0 KECCAK256 PUSH1 0x1 ADD SLOAD EQ PUSH2 0x123D JUMPI PUSH2 0x1236 PUSH1 0x4 PUSH0 DUP6 DUP2 MSTORE PUSH1 0x20 ADD SWAP1 DUP2 MSTORE PUSH1 0x20 ADD PUSH0 KECCAK256 PUSH1 0x2 ADD SLOAD PUSH1 0x4 PUSH0 DUP7 DUP2 MSTORE PUSH1 0x20 ADD SWAP1 DUP2 MSTORE PUSH1 0x20 ADD PUSH0 KECCAK256 PUSH1 0x1 ADD SLOAD PUSH2 0x3399 JUMP JUMPDEST SWAP1 POP PUSH2 0x1260 JUMP JUMPDEST PUSH2 0x125D PUSH1 0x4 PUSH0 DUP6 DUP2 MSTORE PUSH1 0x20 ADD SWAP1 DUP2 MSTORE PUSH1 0x20 ADD PUSH0 KECCAK256 PUSH1 0x2 ADD SLOAD PUSH1 0x2 SLOAD PUSH2 0x3399 JUMP JUMPDEST SWAP1 POP JUMPDEST PUSH0 DUP1 PUSH1 0x5 PUSH0 DUP7 DUP2 MSTORE PUSH1 0x20 ADD SWAP1 DUP2 MSTORE PUSH1 0x20 ADD PUSH0 KECCAK256 PUSH0 ADD SLOAD GT ISZERO PUSH2 0x1288 JUMPI PUSH2 0x1285 DUP5 PUSH2 0x3448 JUMP JUMPDEST SWAP1 POP JUMPDEST PUSH0 DUP1 PUSH0 SWAP1 SLOAD SWAP1 PUSH2 0x100 EXP SWAP1 DIV PUSH20 0xFFFFFFFFFFFFFFFFFFFFFFFFFFFFFFFFFFFFFFFF AND PUSH20 0xFFFFFFFFFFFFFFFFFFFFFFFFFFFFFFFFFFFFFFFF AND PUSH4 0x53F50119 PUSH1 0x4 PUSH0 DUP9 DUP2 MSTORE PUSH1 0x20 ADD SWAP1 DUP2 MSTORE PUSH1 0x20 ADD PUSH0 KECCAK256 PUSH1 0x5 ADD PUSH0 SWAP1 SLOAD SWAP1 PUSH2 0x100 EXP SWAP1 DIV PUSH20 0xFFFFFFFFFFFFFFFFFFFFFFFFFFFFFFFFFFFFFFFF AND PUSH1 0x40 MLOAD DUP3 PUSH4 0xFFFFFFFF AND PUSH1 0xE0 SHL DUP2 MSTORE PUSH1 0x4 ADD PUSH2 0x1315 SWAP2 SWAP1 PUSH2 0x4A87 JUMP JUMPDEST PUSH1 0x80 PUSH1 0x40 MLOAD DUP1 DUP4 SUB DUP2 DUP7 GAS STATICCALL ISZERO DUP1 ISZERO PUSH2 0x1330 JUMPI RETURNDATASIZE PUSH0 DUP1 RETURNDATACOPY RETURNDATASIZE PUSH0 REVERT JUMPDEST POP POP POP POP PUSH1 0x40 MLOAD RETURNDATASIZE PUSH1 0x1F NOT PUSH1 0x1F DUP3 ADD AND DUP3 ADD DUP1 PUSH1 0x40 MSTORE POP DUP2 ADD SWAP1 PUSH2 0x1354 SWAP2 SWAP1 PUSH2 0x5264 JUMP JUMPDEST POP POP POP SWAP1 POP PUSH0 DUP2 ISZERO PUSH2 0x136E JUMPI PUSH2 0x136B DUP7 PUSH0 DUP1 PUSH2 0x36F3 JUMP JUMPDEST SWAP1 POP JUMPDEST PUSH0 PUSH2 0x1378 DUP8 PUSH2 0x38C8 JUMP JUMPDEST SWAP1 POP PUSH0 DUP2 DUP4 DUP7 DUP9 PUSH2 0x1389 SWAP2 SWAP1 PUSH2 0x52F5 JUMP JUMPDEST PUSH2 0x1393 SWAP2 SWAP1 PUSH2 0x52F5 JUMP JUMPDEST PUSH2 0x139D SWAP2 SWAP1 PUSH2 0x52F5 JUMP JUMPDEST PUSH1 0x4 PUSH0 DUP11 DUP2 MSTORE PUSH1 0x20 ADD SWAP1 DUP2 MSTORE PUSH1 0x20 ADD PUSH0 KECCAK256 PUSH1 0x2 ADD SLOAD PUSH2 0x13BC SWAP2 SWAP1 PUSH2 0x5328 JUMP JUMPDEST SWAP1 POP PUSH2 0x13CF PUSH2 0x13C9 PUSH2 0x177A JUMP JUMPDEST DUP8 PUSH2 0x3A37 JUMP JUMPDEST PUSH2 0x140C PUSH1 0x4 PUSH0 DUP11 DUP2 MSTORE PUSH1 0x20 ADD SWAP1 DUP2 MSTORE PUSH1 0x20 ADD PUSH0 KECCAK256 PUSH1 0x5 ADD PUSH0 SWAP1 SLOAD SWAP1 PUSH2 0x100 EXP SWAP1 DIV PUSH20 0xFFFFFFFFFFFFFFFFFFFFFFFFFFFFFFFFFFFFFFFF AND DUP3 PUSH2 0x3A37 JUMP JUMPDEST PUSH1 0x1 PUSH1 0x4 PUSH0 DUP11 DUP2 MSTORE PUSH1 0x20 ADD SWAP1 DUP2 MSTORE PUSH1 0x20 ADD PUSH0 KECCAK256 PUSH0 ADD PUSH1 0x1 PUSH2 0x100 EXP DUP2 SLOAD DUP2 PUSH1 0xFF MUL NOT AND SWAP1 DUP4 ISZERO ISZERO MUL OR SWAP1 SSTORE POP PUSH2 0x14D3 PUSH1 0x4 PUSH0 DUP11 DUP2 MSTORE PUSH1 0x20 ADD SWAP1 DUP2 MSTORE PUSH1 0x20 ADD PUSH0 KECCAK256 PUSH1 0x7 ADD PUSH0 SWAP1 SLOAD SWAP1 PUSH2 0x100 EXP SWAP1 DIV PUSH20 0xFFFFFFFFFFFFFFFFFFFFFFFFFFFFFFFFFFFFFFFF AND ADDRESS PUSH1 0x4 PUSH0 DUP13 DUP2 MSTORE PUSH1 0x20 ADD SWAP1 DUP2 MSTORE PUSH1 0x20 ADD PUSH0 KECCAK256 PUSH1 0x6 ADD PUSH0 SWAP1 SLOAD SWAP1 PUSH2 0x100 EXP SWAP1 DIV PUSH20 0xFFFFFFFFFFFFFFFFFFFFFFFFFFFFFFFFFFFFFFFF AND PUSH1 0x4 PUSH0 DUP14 DUP2 MSTORE PUSH1 0x20 ADD SWAP1 DUP2 MSTORE PUSH1 0x20 ADD PUSH0 KECCAK256 PUSH1 0x3 ADD SLOAD PUSH1 0x4 PUSH0 DUP15 DUP2 MSTORE PUSH1 0x20 ADD SWAP1 DUP2 MSTORE PUSH1 0x20 ADD PUSH0 KECCAK256 PUSH1 0x4 ADD SLOAD PUSH2 0x3AE6 JUMP JUMPDEST PUSH1 0x4 PUSH0 DUP10 DUP2 MSTORE PUSH1 0x20 ADD SWAP1 DUP2 MSTORE PUSH1 0x20 ADD PUSH0 KECCAK256 PUSH1 0x7 ADD PUSH0 SWAP1 SLOAD SWAP1 PUSH2 0x100 EXP SWAP1 DIV PUSH20 0xFFFFFFFFFFFFFFFFFFFFFFFFFFFFFFFFFFFFFFFF AND PUSH20 0xFFFFFFFFFFFFFFFFFFFFFFFFFFFFFFFFFFFFFFFF AND PUSH1 0x4 PUSH0 DUP11 DUP2 MSTORE PUSH1 0x20 ADD SWAP1 DUP2 MSTORE PUSH1 0x20 ADD PUSH0 KECCAK256 PUSH1 0x3 ADD SLOAD PUSH32 0x1A7BAF821561AE36AA58D172BD77037C6F9C19177E5B840E3D413C110A80E45 ADDRESS PUSH1 0x4 PUSH0 DUP14 DUP2 MSTORE PUSH1 0x20 ADD SWAP1 DUP2 MSTORE PUSH1 0x20 ADD PUSH0 KECCAK256 PUSH1 0x6 ADD PUSH0 SWAP1 SLOAD SWAP1 PUSH2 0x100 EXP SWAP1 DIV PUSH20 0xFFFFFFFFFFFFFFFFFFFFFFFFFFFFFFFFFFFFFFFF AND PUSH1 0x4 PUSH0 DUP15 DUP2 MSTORE PUSH1 0x20 ADD SWAP1 DUP2 MSTORE PUSH1 0x20 ADD PUSH0 KECCAK256 PUSH1 0x4 ADD SLOAD PUSH1 0x40 MLOAD PUSH2 0x15AC SWAP4 SWAP3 SWAP2 SWAP1 PUSH2 0x535B JUMP JUMPDEST PUSH1 0x40 MLOAD DUP1 SWAP2 SUB SWAP1 LOG3 DUP1 DUP6 DUP8 PUSH32 0x36203E70AEB15B48FC7B10549158C6ACC3BA3235BA2644757016FB33D4FA3944 DUP7 DUP7 PUSH1 0x40 MLOAD PUSH2 0x15E8 SWAP3 SWAP2 SWAP1 PUSH2 0x5151 JUMP JUMPDEST PUSH1 0x40 MLOAD DUP1 SWAP2 SUB SWAP1 LOG4 POP POP POP POP POP POP POP POP JUMP JUMPDEST PUSH2 0x1602 PUSH2 0x3B59 JUMP JUMPDEST PUSH2 0x160B DUP3 PUSH2 0x3C3F JUMP JUMPDEST PUSH2 0x1615 DUP3 DUP3 PUSH2 0x3C4A JUMP JUMPDEST POP POP JUMP JUMPDEST PUSH0 PUSH2 0x1622 PUSH2 0x3D68 JUMP JUMPDEST PUSH32 0x360894A13BA1A3210667C828492DB98DCA3E2076CC3735A920A3CA505D382BBC PUSH0 SHL SWAP1 POP SWAP1 JUMP JUMPDEST PUSH2 0x1652 PUSH2 0x2FA4 JUMP JUMPDEST PUSH2 0x165B PUSH0 PUSH2 0x3DEF JUMP JUMPDEST JUMP JUMPDEST PUSH1 0x6 PUSH1 0x20 MSTORE DUP1 PUSH0 MSTORE PUSH1 0x40 PUSH0 KECCAK256 PUSH0 SWAP2 POP SWAP1 POP SLOAD DUP2 JUMP JUMPDEST PUSH1 0x3 PUSH0 SWAP1 SLOAD SWAP1 PUSH2 0x100 EXP SWAP1 DIV PUSH20 0xFFFFFFFFFFFFFFFFFFFFFFFFFFFFFFFFFFFFFFFF AND DUP2 JUMP JUMPDEST PUSH1 0x2 SLOAD DUP2 JUMP JUMPDEST PUSH1 0x4 PUSH1 0x20 MSTORE DUP1 PUSH0 MSTORE PUSH1 0x40 PUSH0 KECCAK256 PUSH0 SWAP2 POP SWAP1 POP DUP1 PUSH0 ADD PUSH0 SWAP1 SLOAD SWAP1 PUSH2 0x100 EXP SWAP1 DIV PUSH1 0xFF AND SWAP1 DUP1 PUSH0 ADD PUSH1 0x1 SWAP1 SLOAD SWAP1 PUSH2 0x100 EXP SWAP1 DIV PUSH1 0xFF AND SWAP1 DUP1 PUSH0 ADD PUSH1 0x2 SWAP1 SLOAD SWAP1 PUSH2 0x100 EXP SWAP1 DIV PUSH1 0xFF AND SWAP1 DUP1 PUSH1 0x1 ADD SLOAD SWAP1 DUP1 PUSH1 0x2 ADD SLOAD SWAP1 DUP1 PUSH1 0x3 ADD SLOAD SWAP1 DUP1 PUSH1 0x4 ADD SLOAD SWAP1 DUP1 PUSH1 0x5 ADD PUSH0 SWAP1 SLOAD SWAP1 PUSH2 0x100 EXP SWAP1 DIV PUSH20 0xFFFFFFFFFFFFFFFFFFFFFFFFFFFFFFFFFFFFFFFF AND SWAP1 DUP1 PUSH1 0x6 ADD PUSH0 SWAP1 SLOAD SWAP1 PUSH2 0x100 EXP SWAP1 DIV PUSH20 0xFFFFFFFFFFFFFFFFFFFFFFFFFFFFFFFFFFFFFFFF AND SWAP1 DUP1 PUSH1 0x7 ADD PUSH0 SWAP1 SLOAD SWAP1 PUSH2 0x100 EXP SWAP1 DIV PUSH20 0xFFFFFFFFFFFFFFFFFFFFFFFFFFFFFFFFFFFFFFFF AND SWAP1 DUP1 PUSH1 0x8 ADD SLOAD SWAP1 DUP1 PUSH1 0x9 ADD SLOAD SWAP1 POP DUP13 JUMP JUMPDEST PUSH0 DUP1 PUSH2 0x1784 PUSH2 0x3EC0 JUMP JUMPDEST SWAP1 POP DUP1 PUSH0 ADD PUSH0 SWAP1 SLOAD SWAP1 PUSH2 0x100 EXP SWAP1 DIV PUSH20 0xFFFFFFFFFFFFFFFFFFFFFFFFFFFFFFFFFFFFFFFF AND SWAP2 POP POP SWAP1 JUMP JUMPDEST PUSH1 0x1 SLOAD DUP2 JUMP JUMPDEST PUSH1 0x40 MLOAD DUP1 PUSH1 0x40 ADD PUSH1 0x40 MSTORE DUP1 PUSH1 0x5 DUP2 MSTORE PUSH1 0x20 ADD PUSH32 0x352E302E30000000000000000000000000000000000000000000000000000000 DUP2 MSTORE POP DUP2 JUMP JUMPDEST DUP1 PUSH0 DUP2 GT PUSH2 0x1833 JUMPI DUP1 PUSH1 0x40 MLOAD PUSH32 0xC860174B00000000000000000000000000000000000000000000000000000000 DUP2 MSTORE PUSH1 0x4 ADD PUSH2 0x182A SWAP2 SWAP1 PUSH2 0x47D5 JUMP JUMPDEST PUSH1 0x40 MLOAD DUP1 SWAP2 SUB SWAP1 REVERT JUMPDEST PUSH1 0x4 PUSH0 DUP3 DUP2 MSTORE PUSH1 0x20 ADD SWAP1 DUP2 MSTORE PUSH1 0x20 ADD PUSH0 KECCAK256 PUSH0 ADD PUSH0 SWAP1 SLOAD SWAP1 PUSH2 0x100 EXP SWAP1 DIV PUSH1 0xFF AND PUSH2 0x18B3 JUMPI PUSH1 0x4 PUSH0 DUP3 DUP2 MSTORE PUSH1 0x20 ADD SWAP1 DUP2 MSTORE PUSH1 0x20 ADD PUSH0 KECCAK256 PUSH0 ADD PUSH0 SWAP1 SLOAD SWAP1 PUSH2 0x100 EXP SWAP1 DIV PUSH1 0xFF AND PUSH1 0x40 MLOAD PUSH32 0xE6C1C63700000000000000000000000000000000000000000000000000000000 DUP2 MSTORE PUSH1 0x4 ADD PUSH2 0x18AA SWAP2 SWAP1 PUSH2 0x46D8 JUMP JUMPDEST PUSH1 0x40 MLOAD DUP1 SWAP2 SUB SWAP1 REVERT JUMPDEST PUSH1 0x4 PUSH0 DUP3 DUP2 MSTORE PUSH1 0x20 ADD SWAP1 DUP2 MSTORE PUSH1 0x20 ADD PUSH0 KECCAK256 PUSH0 ADD PUSH1 0x1 SWAP1 SLOAD SWAP1 PUSH2 0x100 EXP SWAP1 DIV PUSH1 0xFF AND ISZERO PUSH2 0x1936 JUMPI PUSH1 0x4 PUSH0 DUP3 DUP2 MSTORE PUSH1 0x20 ADD SWAP1 DUP2 MSTORE PUSH1 0x20 ADD PUSH0 KECCAK256 PUSH0 ADD PUSH1 0x1 SWAP1 SLOAD SWAP1 PUSH2 0x100 EXP SWAP1 DIV PUSH1 0xFF AND PUSH1 0x40 MLOAD PUSH32 0x48D00A0000000000000000000000000000000000000000000000000000000000 DUP2 MSTORE PUSH1 0x4 ADD PUSH2 0x192D SWAP2 SWAP1 PUSH2 0x46D8 JUMP JUMPDEST PUSH1 0x40 MLOAD DUP1 SWAP2 SUB SWAP1 REVERT JUMPDEST PUSH1 0x4 PUSH0 DUP4 DUP2 MSTORE PUSH1 0x20 ADD SWAP1 DUP2 MSTORE PUSH1 0x20 ADD PUSH0 KECCAK256 PUSH0 ADD PUSH1 0x2 SWAP1 SLOAD SWAP1 PUSH2 0x100 EXP SWAP1 DIV PUSH1 0xFF AND ISZERO PUSH2 0x19B9 JUMPI PUSH1 0x4 PUSH0 DUP4 DUP2 MSTORE PUSH1 0x20 ADD SWAP1 DUP2 MSTORE PUSH1 0x20 ADD PUSH0 KECCAK256 PUSH0 ADD PUSH1 0x2 SWAP1 SLOAD SWAP1 PUSH2 0x100 EXP SWAP1 DIV PUSH1 0xFF AND PUSH1 0x40 MLOAD PUSH32 0x54A2B5EA00000000000000000000000000000000000000000000000000000000 DUP2 MSTORE PUSH1 0x4 ADD PUSH2 0x19B0 SWAP2 SWAP1 PUSH2 0x46D8 JUMP JUMPDEST PUSH1 0x40 MLOAD DUP1 SWAP2 SUB SWAP1 REVERT JUMPDEST PUSH1 0x4 PUSH0 DUP4 DUP2 MSTORE PUSH1 0x20 ADD SWAP1 DUP2 MSTORE PUSH1 0x20 ADD PUSH0 KECCAK256 PUSH1 0x5 ADD PUSH0 SWAP1 SLOAD SWAP1 PUSH2 0x100 EXP SWAP1 DIV PUSH20 0xFFFFFFFFFFFFFFFFFFFFFFFFFFFFFFFFFFFFFFFF AND PUSH20 0xFFFFFFFFFFFFFFFFFFFFFFFFFFFFFFFFFFFFFFFF AND CALLER PUSH20 0xFFFFFFFFFFFFFFFFFFFFFFFFFFFFFFFFFFFFFFFF AND EQ ISZERO DUP1 ISZERO PUSH2 0x1A87 JUMPI POP PUSH1 0x4 PUSH0 DUP4 DUP2 MSTORE PUSH1 0x20 ADD SWAP1 DUP2 MSTORE PUSH1 0x20 ADD PUSH0 KECCAK256 PUSH1 0x6 ADD PUSH0 SWAP1 SLOAD SWAP1 PUSH2 0x100 EXP SWAP1 DIV PUSH20 0xFFFFFFFFFFFFFFFFFFFFFFFFFFFFFFFFFFFFFFFF AND PUSH20 0xFFFFFFFFFFFFFFFFFFFFFFFFFFFFFFFFFFFFFFFF AND CALLER PUSH20 0xFFFFFFFFFFFFFFFFFFFFFFFFFFFFFFFFFFFFFFFF AND EQ ISZERO JUMPDEST ISZERO PUSH2 0x1AC9 JUMPI CALLER PUSH1 0x40 MLOAD PUSH32 0x458A16AF00000000000000000000000000000000000000000000000000000000 DUP2 MSTORE PUSH1 0x4 ADD PUSH2 0x1AC0 SWAP2 SWAP1 PUSH2 0x4A87 JUMP JUMPDEST PUSH1 0x40 MLOAD DUP1 SWAP2 SUB SWAP1 REVERT JUMPDEST PUSH1 0x4 PUSH0 DUP4 DUP2 MSTORE PUSH1 0x20 ADD SWAP1 DUP2 MSTORE PUSH1 0x20 ADD PUSH0 KECCAK256 PUSH1 0x8 ADD SLOAD TIMESTAMP LT ISZERO PUSH2 0x1B4C JUMPI PUSH1 0x4 PUSH0 DUP4 DUP2 MSTORE PUSH1 0x20 ADD SWAP1 DUP2 MSTORE PUSH1 0x20 ADD PUSH0 KECCAK256 PUSH1 0x9 ADD SLOAD PUSH1 0x4 PUSH0 DUP5 DUP2 MSTORE PUSH1 0x20 ADD SWAP1 DUP2 MSTORE PUSH1 0x20 ADD PUSH0 KECCAK256 PUSH1 0x8 ADD SLOAD PUSH1 0x40 MLOAD PUSH32 0xDD96246F00000000000000000000000000000000000000000000000000000000 DUP2 MSTORE PUSH1 0x4 ADD PUSH2 0x1B43 SWAP3 SWAP2 SWAP1 PUSH2 0x5151 JUMP JUMPDEST PUSH1 0x40 MLOAD DUP1 SWAP2 SUB SWAP1 REVERT JUMPDEST PUSH0 DUP1 PUSH1 0x4 PUSH0 DUP6 DUP2 MSTORE PUSH1 0x20 ADD SWAP1 DUP2 MSTORE PUSH1 0x20 ADD PUSH0 KECCAK256 PUSH1 0x1 ADD SLOAD EQ PUSH2 0x1BA1 JUMPI PUSH2 0x1B9A PUSH1 0x4 PUSH0 DUP6 DUP2 MSTORE PUSH1 0x20 ADD SWAP1 DUP2 MSTORE PUSH1 0x20 ADD PUSH0 KECCAK256 PUSH1 0x2 ADD SLOAD PUSH1 0x4 PUSH0 DUP7 DUP2 MSTORE PUSH1 0x20 ADD SWAP1 DUP2 MSTORE PUSH1 0x20 ADD PUSH0 KECCAK256 PUSH1 0x1 ADD SLOAD PUSH2 0x3399 JUMP JUMPDEST SWAP1 POP PUSH2 0x1BC4 JUMP JUMPDEST PUSH2 0x1BC1 PUSH1 0x4 PUSH0 DUP6 DUP2 MSTORE PUSH1 0x20 ADD SWAP1 DUP2 MSTORE PUSH1 0x20 ADD PUSH0 KECCAK256 PUSH1 0x2 ADD SLOAD PUSH1 0x2 SLOAD PUSH2 0x3399 JUMP JUMPDEST SWAP1 POP JUMPDEST PUSH0 DUP1 PUSH1 0x5 PUSH0 DUP7 DUP2 MSTORE PUSH1 0x20 ADD SWAP1 DUP2 MSTORE PUSH1 0x20 ADD PUSH0 KECCAK256 PUSH0 ADD SLOAD GT ISZERO PUSH2 0x1BEC JUMPI PUSH2 0x1BE9 DUP5 PUSH2 0x3448 JUMP JUMPDEST SWAP1 POP JUMPDEST PUSH0 DUP1 PUSH0 SWAP1 SLOAD SWAP1 PUSH2 0x100 EXP SWAP1 DIV PUSH20 0xFFFFFFFFFFFFFFFFFFFFFFFFFFFFFFFFFFFFFFFF AND PUSH20 0xFFFFFFFFFFFFFFFFFFFFFFFFFFFFFFFFFFFFFFFF AND PUSH4 0x53F50119 PUSH1 0x4 PUSH0 DUP9 DUP2 MSTORE PUSH1 0x20 ADD SWAP1 DUP2 MSTORE PUSH1 0x20 ADD PUSH0 KECCAK256 PUSH1 0x5 ADD PUSH0 SWAP1 SLOAD SWAP1 PUSH2 0x100 EXP SWAP1 DIV PUSH20 0xFFFFFFFFFFFFFFFFFFFFFFFFFFFFFFFFFFFFFFFF AND PUSH1 0x40 MLOAD DUP3 PUSH4 0xFFFFFFFF AND PUSH1 0xE0 SHL DUP2 MSTORE PUSH1 0x4 ADD PUSH2 0x1C79 SWAP2 SWAP1 PUSH2 0x4A87 JUMP JUMPDEST PUSH1 0x80 PUSH1 0x40 MLOAD DUP1 DUP4 SUB DUP2 DUP7 GAS STATICCALL ISZERO DUP1 ISZERO PUSH2 0x1C94 JUMPI RETURNDATASIZE PUSH0 DUP1 RETURNDATACOPY RETURNDATASIZE PUSH0 REVERT JUMPDEST POP POP POP POP PUSH1 0x40 MLOAD RETURNDATASIZE PUSH1 0x1F NOT PUSH1 0x1F DUP3 ADD AND DUP3 ADD DUP1 PUSH1 0x40 MSTORE POP DUP2 ADD SWAP1 PUSH2 0x1CB8 SWAP2 SWAP1 PUSH2 0x5264 JUMP JUMPDEST POP POP POP SWAP1 POP PUSH0 DUP2 ISZERO PUSH2 0x1CD2 JUMPI PUSH2 0x1CCF DUP7 PUSH0 DUP1 PUSH2 0x36F3 JUMP JUMPDEST SWAP1 POP JUMPDEST PUSH0 PUSH2 0x1CDC DUP8 PUSH2 0x38C8 JUMP JUMPDEST SWAP1 POP PUSH0 DUP2 DUP4 DUP7 DUP9 PUSH2 0x1CED SWAP2 SWAP1 PUSH2 0x52F5 JUMP JUMPDEST PUSH2 0x1CF7 SWAP2 SWAP1 PUSH2 0x52F5 JUMP JUMPDEST PUSH2 0x1D01 SWAP2 SWAP1 PUSH2 0x52F5 JUMP JUMPDEST PUSH1 0x4 PUSH0 DUP11 DUP2 MSTORE PUSH1 0x20 ADD SWAP1 DUP2 MSTORE PUSH1 0x20 ADD PUSH0 KECCAK256 PUSH1 0x2 ADD SLOAD PUSH2 0x1D20 SWAP2 SWAP1 PUSH2 0x5328 JUMP JUMPDEST SWAP1 POP PUSH2 0x1D33 PUSH2 0x1D2D PUSH2 0x177A JUMP JUMPDEST DUP8 PUSH2 0x3A37 JUMP JUMPDEST PUSH2 0x1D70 PUSH1 0x4 PUSH0 DUP11 DUP2 MSTORE PUSH1 0x20 ADD SWAP1 DUP2 MSTORE PUSH1 0x20 ADD PUSH0 KECCAK256 PUSH1 0x5 ADD PUSH0 SWAP1 SLOAD SWAP1 PUSH2 0x100 EXP SWAP1 DIV PUSH20 0xFFFFFFFFFFFFFFFFFFFFFFFFFFFFFFFFFFFFFFFF AND DUP3 PUSH2 0x3A37 JUMP JUMPDEST PUSH1 0x1 PUSH1 0x4 PUSH0 DUP11 DUP2 MSTORE PUSH1 0x20 ADD SWAP1 DUP2 MSTORE PUSH1 0x20 ADD PUSH0 KECCAK256 PUSH0 ADD PUSH1 0x1 PUSH2 0x100 EXP DUP2 SLOAD DUP2 PUSH1 0xFF MUL NOT AND SWAP1 DUP4 ISZERO ISZERO MUL OR SWAP1 SSTORE POP PUSH2 0x1E37 PUSH1 0x4 PUSH0 DUP11 DUP2 MSTORE PUSH1 0x20 ADD SWAP1 DUP2 MSTORE PUSH1 0x20 ADD PUSH0 KECCAK256 PUSH1 0x7 ADD PUSH0 SWAP1 SLOAD SWAP1 PUSH2 0x100 EXP SWAP1 DIV PUSH20 0xFFFFFFFFFFFFFFFFFFFFFFFFFFFFFFFFFFFFFFFF AND ADDRESS PUSH1 0x4 PUSH0 DUP13 DUP2 MSTORE PUSH1 0x20 ADD SWAP1 DUP2 MSTORE PUSH1 0x20 ADD PUSH0 KECCAK256 PUSH1 0x6 ADD PUSH0 SWAP1 SLOAD SWAP1 PUSH2 0x100 EXP SWAP1 DIV PUSH20 0xFFFFFFFFFFFFFFFFFFFFFFFFFFFFFFFFFFFFFFFF AND PUSH1 0x4 PUSH0 DUP14 DUP2 MSTORE PUSH1 0x20 ADD SWAP1 DUP2 MSTORE PUSH1 0x20 ADD PUSH0 KECCAK256 PUSH1 0x3 ADD SLOAD PUSH1 0x4 PUSH0 DUP15 DUP2 MSTORE PUSH1 0x20 ADD SWAP1 DUP2 MSTORE PUSH1 0x20 ADD PUSH0 KECCAK256 PUSH1 0x4 ADD SLOAD PUSH2 0x3AE6 JUMP JUMPDEST PUSH1 0x4 PUSH0 DUP10 DUP2 MSTORE PUSH1 0x20 ADD SWAP1 DUP2 MSTORE PUSH1 0x20 ADD PUSH0 KECCAK256 PUSH1 0x7 ADD PUSH0 SWAP1 SLOAD SWAP1 PUSH2 0x100 EXP SWAP1 DIV PUSH20 0xFFFFFFFFFFFFFFFFFFFFFFFFFFFFFFFFFFFFFFFF AND PUSH20 0xFFFFFFFFFFFFFFFFFFFFFFFFFFFFFFFFFFFFFFFF AND PUSH1 0x4 PUSH0 DUP11 DUP2 MSTORE PUSH1 0x20 ADD SWAP1 DUP2 MSTORE PUSH1 0x20 ADD PUSH0 KECCAK256 PUSH1 0x3 ADD SLOAD PUSH32 0x1A7BAF821561AE36AA58D172BD77037C6F9C19177E5B840E3D413C110A80E45 ADDRESS PUSH1 0x4 PUSH0 DUP14 DUP2 MSTORE PUSH1 0x20 ADD SWAP1 DUP2 MSTORE PUSH1 0x20 ADD PUSH0 KECCAK256 PUSH1 0x6 ADD PUSH0 SWAP1 SLOAD SWAP1 PUSH2 0x100 EXP SWAP1 DIV PUSH20 0xFFFFFFFFFFFFFFFFFFFFFFFFFFFFFFFFFFFFFFFF AND PUSH1 0x4 PUSH0 DUP15 DUP2 MSTORE PUSH1 0x20 ADD SWAP1 DUP2 MSTORE PUSH1 0x20 ADD PUSH0 KECCAK256 PUSH1 0x4 ADD SLOAD PUSH1 0x40 MLOAD PUSH2 0x1F10 SWAP4 SWAP3 SWAP2 SWAP1 PUSH2 0x535B JUMP JUMPDEST PUSH1 0x40 MLOAD DUP1 SWAP2 SUB SWAP1 LOG3 DUP1 DUP6 DUP8 PUSH32 0x36203E70AEB15B48FC7B10549158C6ACC3BA3235BA2644757016FB33D4FA3944 DUP7 DUP7 PUSH1 0x40 MLOAD PUSH2 0x1F4C SWAP3 SWAP2 SWAP1 PUSH2 0x5151 JUMP JUMPDEST PUSH1 0x40 MLOAD DUP1 SWAP2 SUB SWAP1 LOG4 POP POP POP POP POP POP POP POP JUMP JUMPDEST PUSH0 PUSH4 0xBC197C81 PUSH1 0xE0 SHL SWAP1 POP SWAP6 SWAP5 POP POP POP POP POP JUMP JUMPDEST DUP1 PUSH0 DUP2 GT PUSH2 0x1FB7 JUMPI DUP1 PUSH1 0x40 MLOAD PUSH32 0xC860174B00000000000000000000000000000000000000000000000000000000 DUP2 MSTORE PUSH1 0x4 ADD PUSH2 0x1FAE SWAP2 SWAP1 PUSH2 0x47D5 JUMP JUMPDEST PUSH1 0x40 MLOAD DUP1 SWAP2 SUB SWAP1 REVERT JUMPDEST PUSH1 0x4 PUSH0 DUP3 DUP2 MSTORE PUSH1 0x20 ADD SWAP1 DUP2 MSTORE PUSH1 0x20 ADD PUSH0 KECCAK256 PUSH0 ADD PUSH0 SWAP1 SLOAD SWAP1 PUSH2 0x100 EXP SWAP1 DIV PUSH1 0xFF AND PUSH2 0x2037 JUMPI PUSH1 0x4 PUSH0 DUP3 DUP2 MSTORE PUSH1 0x20 ADD SWAP1 DUP2 MSTORE PUSH1 0x20 ADD PUSH0 KECCAK256 PUSH0 ADD PUSH0 SWAP1 SLOAD SWAP1 PUSH2 0x100 EXP SWAP1 DIV PUSH1 0xFF AND PUSH1 0x40 MLOAD PUSH32 0xE6C1C63700000000000000000000000000000000000000000000000000000000 DUP2 MSTORE PUSH1 0x4 ADD PUSH2 0x202E SWAP2 SWAP1 PUSH2 0x46D8 JUMP JUMPDEST PUSH1 0x40 MLOAD DUP1 SWAP2 SUB SWAP1 REVERT JUMPDEST PUSH1 0x4 PUSH0 DUP3 DUP2 MSTORE PUSH1 0x20 ADD SWAP1 DUP2 MSTORE PUSH1 0x20 ADD PUSH0 KECCAK256 PUSH0 ADD PUSH1 0x1 SWAP1 SLOAD SWAP1 PUSH2 0x100 EXP SWAP1 DIV PUSH1 0xFF AND ISZERO PUSH2 0x20BA JUMPI PUSH1 0x4 PUSH0 DUP3 DUP2 MSTORE PUSH1 0x20 ADD SWAP1 DUP2 MSTORE PUSH1 0x20 ADD PUSH0 KECCAK256 PUSH0 ADD PUSH1 0x1 SWAP1 SLOAD SWAP1 PUSH2 0x100 EXP SWAP1 DIV PUSH1 0xFF AND PUSH1 0x40 MLOAD PUSH32 0x48D00A0000000000000000000000000000000000000000000000000000000000 DUP2 MSTORE PUSH1 0x4 ADD PUSH2 0x20B1 SWAP2 SWAP1 PUSH2 0x46D8 JUMP JUMPDEST PUSH1 0x40 MLOAD DUP1 SWAP2 SUB SWAP1 REVERT JUMPDEST PUSH1 0x4 PUSH0 DUP4 DUP2 MSTORE PUSH1 0x20 ADD SWAP1 DUP2 MSTORE PUSH1 0x20 ADD PUSH0 KECCAK256 PUSH0 ADD PUSH1 0x2 SWAP1 SLOAD SWAP1 PUSH2 0x100 EXP SWAP1 DIV PUSH1 0xFF AND ISZERO PUSH2 0x213D JUMPI PUSH1 0x4 PUSH0 DUP4 DUP2 MSTORE PUSH1 0x20 ADD SWAP1 DUP2 MSTORE PUSH1 0x20 ADD PUSH0 KECCAK256 PUSH0 ADD PUSH1 0x2 SWAP1 SLOAD SWAP1 PUSH2 0x100 EXP SWAP1 DIV PUSH1 0xFF AND PUSH1 0x40 MLOAD PUSH32 0x54A2B5EA00000000000000000000000000000000000000000000000000000000 DUP2 MSTORE PUSH1 0x4 ADD PUSH2 0x2134 SWAP2 SWAP1 PUSH2 0x46D8 JUMP JUMPDEST PUSH1 0x40 MLOAD DUP1 SWAP2 SUB SWAP1 REVERT JUMPDEST PUSH0 CALLVALUE GT ISZERO DUP1 PUSH2 0x215F JUMPI POP PUSH1 0x4 PUSH0 DUP4 DUP2 MSTORE PUSH1 0x20 ADD SWAP1 DUP2 MSTORE PUSH1 0x20 ADD PUSH0 KECCAK256 PUSH1 0x2 ADD SLOAD CALLVALUE LT JUMPDEST ISZERO PUSH2 0x21A1 JUMPI CALLVALUE PUSH1 0x40 MLOAD PUSH32 0x85D649F700000000000000000000000000000000000000000000000000000000 DUP2 MSTORE PUSH1 0x4 ADD PUSH2 0x2198 SWAP2 SWAP1 PUSH2 0x47D5 JUMP JUMPDEST PUSH1 0x40 MLOAD DUP1 SWAP2 SUB SWAP1 REVERT JUMPDEST PUSH1 0x4 PUSH0 DUP4 DUP2 MSTORE PUSH1 0x20 ADD SWAP1 DUP2 MSTORE PUSH1 0x20 ADD PUSH0 KECCAK256 PUSH1 0x9 ADD SLOAD TIMESTAMP LT DUP1 PUSH2 0x21D6 JUMPI POP PUSH1 0x4 PUSH0 DUP4 DUP2 MSTORE PUSH1 0x20 ADD SWAP1 DUP2 MSTORE PUSH1 0x20 ADD PUSH0 KECCAK256 PUSH1 0x8 ADD SLOAD TIMESTAMP GT JUMPDEST ISZERO PUSH2 0x2242 JUMPI PUSH1 0x4 PUSH0 DUP4 DUP2 MSTORE PUSH1 0x20 ADD SWAP1 DUP2 MSTORE PUSH1 0x20 ADD PUSH0 KECCAK256 PUSH1 0x9 ADD SLOAD PUSH1 0x4 PUSH0 DUP5 DUP2 MSTORE PUSH1 0x20 ADD SWAP1 DUP2 MSTORE PUSH1 0x20 ADD PUSH0 KECCAK256 PUSH1 0x8 ADD SLOAD PUSH1 0x40 MLOAD PUSH32 0xDD96246F00000000000000000000000000000000000000000000000000000000 DUP2 MSTORE PUSH1 0x4 ADD PUSH2 0x2239 SWAP3 SWAP2 SWAP1 PUSH2 0x5151 JUMP JUMPDEST PUSH1 0x40 MLOAD DUP1 SWAP2 SUB SWAP1 REVERT JUMPDEST PUSH1 0x4 PUSH0 DUP4 DUP2 MSTORE PUSH1 0x20 ADD SWAP1 DUP2 MSTORE PUSH1 0x20 ADD PUSH0 KECCAK256 PUSH1 0x5 ADD PUSH0 SWAP1 SLOAD SWAP1 PUSH2 0x100 EXP SWAP1 DIV PUSH20 0xFFFFFFFFFFFFFFFFFFFFFFFFFFFFFFFFFFFFFFFF AND PUSH20 0xFFFFFFFFFFFFFFFFFFFFFFFFFFFFFFFFFFFFFFFF AND CALLER PUSH20 0xFFFFFFFFFFFFFFFFFFFFFFFFFFFFFFFFFFFFFFFF AND SUB PUSH2 0x2318 JUMPI PUSH1 0x4 PUSH0 DUP4 DUP2 MSTORE PUSH1 0x20 ADD SWAP1 DUP2 MSTORE PUSH1 0x20 ADD PUSH0 KECCAK256 PUSH1 0x5 ADD PUSH0 SWAP1 SLOAD SWAP1 PUSH2 0x100 EXP SWAP1 DIV PUSH20 0xFFFFFFFFFFFFFFFFFFFFFFFFFFFFFFFFFFFFFFFF AND PUSH1 0x40 MLOAD PUSH32 0x9507836000000000000000000000000000000000000000000000000000000000 DUP2 MSTORE PUSH1 0x4 ADD PUSH2 0x230F SWAP2 SWAP1 PUSH2 0x4A87 JUMP JUMPDEST PUSH1 0x40 MLOAD DUP1 SWAP2 SUB SWAP1 REVERT JUMPDEST PUSH0 PUSH1 0x4 PUSH0 DUP5 DUP2 MSTORE PUSH1 0x20 ADD SWAP1 DUP2 MSTORE PUSH1 0x20 ADD PUSH0 KECCAK256 PUSH1 0x2 ADD SLOAD SWAP1 POP PUSH0 PUSH1 0x4 PUSH0 DUP6 DUP2 MSTORE PUSH1 0x20 ADD SWAP1 DUP2 MSTORE PUSH1 0x20 ADD PUSH0 KECCAK256 PUSH1 0x6 ADD PUSH0 SWAP1 SLOAD SWAP1 PUSH2 0x100 EXP SWAP1 DIV PUSH20 0xFFFFFFFFFFFFFFFFFFFFFFFFFFFFFFFFFFFFFFFF AND SWAP1 POP PUSH0 DUP3 GT DUP1 ISZERO PUSH2 0x23A2 JUMPI POP PUSH0 PUSH20 0xFFFFFFFFFFFFFFFFFFFFFFFFFFFFFFFFFFFFFFFF AND DUP2 PUSH20 0xFFFFFFFFFFFFFFFFFFFFFFFFFFFFFFFFFFFFFFFF AND EQ ISZERO JUMPDEST ISZERO PUSH2 0x23B2 JUMPI PUSH2 0x23B1 DUP2 DUP4 PUSH2 0x3A37 JUMP JUMPDEST JUMPDEST CALLVALUE PUSH1 0x4 PUSH0 DUP7 DUP2 MSTORE PUSH1 0x20 ADD SWAP1 DUP2 MSTORE PUSH1 0x20 ADD PUSH0 KECCAK256 PUSH1 0x2 ADD DUP2 SWAP1 SSTORE POP CALLER PUSH1 0x4 PUSH0 DUP7 DUP2 MSTORE PUSH1 0x20 ADD SWAP1 DUP2 MSTORE PUSH1 0x20 ADD PUSH0 KECCAK256 PUSH1 0x6 ADD PUSH0 PUSH2 0x100 EXP DUP2 SLOAD DUP2 PUSH20 0xFFFFFFFFFFFFFFFFFFFFFFFFFFFFFFFFFFFFFFFF MUL NOT AND SWAP1 DUP4 PUSH20 0xFFFFFFFFFFFFFFFFFFFFFFFFFFFFFFFFFFFFFFFF AND MUL OR SWAP1 SSTORE POP PUSH32 0xA6E846933627BEDFE46F69605777A6483FB976F59199EC63196AA8442C8EB123 PUSH1 0x4 PUSH0 DUP7 DUP2 MSTORE PUSH1 0x20 ADD SWAP1 DUP2 MSTORE PUSH1 0x20 ADD PUSH0 KECCAK256 PUSH1 0x6 ADD PUSH0 SWAP1 SLOAD SWAP1 PUSH2 0x100 EXP SWAP1 DIV PUSH20 0xFFFFFFFFFFFFFFFFFFFFFFFFFFFFFFFFFFFFFFFF AND PUSH1 0x4 PUSH0 DUP8 DUP2 MSTORE PUSH1 0x20 ADD SWAP1 DUP2 MSTORE PUSH1 0x20 ADD PUSH0 KECCAK256 PUSH1 0x2 ADD SLOAD DUP5 PUSH1 0x40 MLOAD PUSH2 0x2497 SWAP4 SWAP3 SWAP2 SWAP1 PUSH2 0x5390 JUMP JUMPDEST PUSH1 0x40 MLOAD DUP1 SWAP2 SUB SWAP1 LOG1 POP POP POP POP JUMP JUMPDEST PUSH0 DUP1 SLOAD SWAP1 PUSH2 0x100 EXP SWAP1 DIV PUSH20 0xFFFFFFFFFFFFFFFFFFFFFFFFFFFFFFFFFFFFFFFF AND DUP2 JUMP JUMPDEST DUP1 PUSH0 DUP1 PUSH0 DUP1 PUSH0 SWAP1 SLOAD SWAP1 PUSH2 0x100 EXP SWAP1 DIV PUSH20 0xFFFFFFFFFFFFFFFFFFFFFFFFFFFFFFFFFFFFFFFF AND PUSH20 0xFFFFFFFFFFFFFFFFFFFFFFFFFFFFFFFFFFFFFFFF AND PUSH4 0x53F50119 CALLER PUSH1 0x40 MLOAD DUP3 PUSH4 0xFFFFFFFF AND PUSH1 0xE0 SHL DUP2 MSTORE PUSH1 0x4 ADD PUSH2 0x2525 SWAP2 SWAP1 PUSH2 0x4A87 JUMP JUMPDEST PUSH1 0x80 PUSH1 0x40 MLOAD DUP1 DUP4 SUB DUP2 DUP7 GAS STATICCALL ISZERO DUP1 ISZERO PUSH2 0x2540 JUMPI RETURNDATASIZE PUSH0 DUP1 RETURNDATACOPY RETURNDATASIZE PUSH0 REVERT JUMPDEST POP POP POP POP PUSH1 0x40 MLOAD RETURNDATASIZE PUSH1 0x1F NOT PUSH1 0x1F DUP3 ADD AND DUP3 ADD DUP1 PUSH1 0x40 MSTORE POP DUP2 ADD SWAP1 PUSH2 0x2564 SWAP2 SWAP1 PUSH2 0x5264 JUMP JUMPDEST POP SWAP3 POP SWAP3 POP SWAP3 POP DUP3 ISZERO PUSH2 0x25E2 JUMPI DUP1 PUSH20 0xFFFFFFFFFFFFFFFFFFFFFFFFFFFFFFFFFFFFFFFF AND DUP5 PUSH20 0xFFFFFFFFFFFFFFFFFFFFFFFFFFFFFFFFFFFFFFFF AND EQ PUSH2 0x25E1 JUMPI DUP4 PUSH1 0x40 MLOAD PUSH32 0x4B2E0E5D00000000000000000000000000000000000000000000000000000000 DUP2 MSTORE PUSH1 0x4 ADD PUSH2 0x25D8 SWAP2 SWAP1 PUSH2 0x4A87 JUMP JUMPDEST PUSH1 0x40 MLOAD DUP1 SWAP2 SUB SWAP1 REVERT JUMPDEST JUMPDEST PUSH0 DUP13 GT PUSH2 0x2626 JUMPI DUP12 PUSH1 0x40 MLOAD PUSH32 0xBAF301F700000000000000000000000000000000000000000000000000000000 DUP2 MSTORE PUSH1 0x4 ADD PUSH2 0x261D SWAP2 SWAP1 PUSH2 0x47D5 JUMP JUMPDEST PUSH1 0x40 MLOAD DUP1 SWAP2 SUB SWAP1 REVERT JUMPDEST PUSH0 DUP10 GT PUSH2 0x266A JUMPI DUP9 PUSH1 0x40 MLOAD PUSH32 0x86B33ED200000000000000000000000000000000000000000000000000000000 DUP2 MSTORE PUSH1 0x4 ADD PUSH2 0x2661 SWAP2 SWAP1 PUSH2 0x47D5 JUMP JUMPDEST PUSH1 0x40 MLOAD DUP1 SWAP2 SUB SWAP1 REVERT JUMPDEST PUSH0 DUP9 GT PUSH2 0x26AE JUMPI DUP8 PUSH1 0x40 MLOAD PUSH32 0x8E57A1B300000000000000000000000000000000000000000000000000000000 DUP2 MSTORE PUSH1 0x4 ADD PUSH2 0x26A5 SWAP2 SWAP1 PUSH2 0x47D5 JUMP JUMPDEST PUSH1 0x40 MLOAD DUP1 SWAP2 SUB SWAP1 REVERT JUMPDEST PUSH1 0x1 PUSH0 DUP2 SLOAD DUP1 SWAP3 SWAP2 SWAP1 PUSH2 0x26C0 SWAP1 PUSH2 0x53C5 JUMP JUMPDEST SWAP2 SWAP1 POP SSTORE POP PUSH2 0x26D4 DUP10 DUP10 DUP15 DUP15 DUP15 DUP13 DUP13 PUSH2 0x302B JUMP JUMPDEST PUSH1 0x3 PUSH0 SWAP1 SLOAD SWAP1 PUSH2 0x100 EXP SWAP1 DIV PUSH20 0xFFFFFFFFFFFFFFFFFFFFFFFFFFFFFFFFFFFFFFFF AND PUSH20 0xFFFFFFFFFFFFFFFFFFFFFFFFFFFFFFFFFFFFFFFF AND DUP8 PUSH20 0xFFFFFFFFFFFFFFFFFFFFFFFFFFFFFFFFFFFFFFFF AND EQ PUSH2 0x273B JUMPI PUSH2 0x2736 DUP10 DUP10 PUSH1 0x1 SLOAD DUP11 PUSH2 0x3EE7 JUMP JUMPDEST PUSH2 0x276B JUMP JUMPDEST PUSH2 0x276A DUP10 DUP10 PUSH1 0x1 SLOAD PUSH1 0x3 PUSH0 SWAP1 SLOAD SWAP1 PUSH2 0x100 EXP SWAP1 DIV PUSH20 0xFFFFFFFFFFFFFFFFFFFFFFFFFFFFFFFFFFFFFFFF AND PUSH2 0x3EE7 JUMP JUMPDEST JUMPDEST PUSH32 0x52AD65EC41E71D556367FC4FEF59F68118B969BB890DEF6F1CCD0B952F557CA4 PUSH1 0x1 SLOAD DUP11 DUP11 DUP16 PUSH1 0x40 MLOAD PUSH2 0x27A2 SWAP5 SWAP4 SWAP3 SWAP2 SWAP1 PUSH2 0x540C JUMP JUMPDEST PUSH1 0x40 MLOAD DUP1 SWAP2 SUB SWAP1 LOG1 POP POP POP POP POP POP POP POP POP POP POP POP JUMP JUMPDEST DUP2 DUP2 PUSH0 DUP3 MLOAD GT ISZERO DUP1 ISZERO PUSH2 0x27CC JUMPI POP PUSH1 0xA DUP3 MLOAD GT JUMPDEST ISZERO PUSH2 0x280F JUMPI DUP2 MLOAD PUSH1 0x40 MLOAD PUSH32 0x1D9AEA7D00000000000000000000000000000000000000000000000000000000 DUP2 MSTORE PUSH1 0x4 ADD PUSH2 0x2806 SWAP2 SWAP1 PUSH2 0x47D5 JUMP JUMPDEST PUSH1 0x40 MLOAD DUP1 SWAP2 SUB SWAP1 REVERT JUMPDEST DUP1 MLOAD DUP3 MLOAD EQ PUSH2 0x2859 JUMPI DUP2 MLOAD DUP2 MLOAD PUSH1 0x40 MLOAD PUSH32 0x12C9B6E100000000000000000000000000000000000000000000000000000000 DUP2 MSTORE PUSH1 0x4 ADD PUSH2 0x2850 SWAP3 SWAP2 SWAP1 PUSH2 0x5151 JUMP JUMPDEST PUSH1 0x40 MLOAD DUP1 SWAP2 SUB SWAP1 REVERT JUMPDEST PUSH0 DUP1 PUSH0 SWAP1 POP JUMPDEST DUP4 MLOAD DUP2 LT ISZERO PUSH2 0x2942 JUMPI PUSH0 PUSH20 0xFFFFFFFFFFFFFFFFFFFFFFFFFFFFFFFFFFFFFFFF AND DUP5 DUP3 DUP2 MLOAD DUP2 LT PUSH2 0x2892 JUMPI PUSH2 0x2891 PUSH2 0x544F JUMP JUMPDEST JUMPDEST PUSH1 0x20 MUL PUSH1 0x20 ADD ADD MLOAD PUSH20 0xFFFFFFFFFFFFFFFFFFFFFFFFFFFFFFFFFFFFFFFF AND EQ PUSH2 0x2935 JUMPI PUSH2 0x1F4 DUP4 DUP3 DUP2 MLOAD DUP2 LT PUSH2 0x28CB JUMPI PUSH2 0x28CA PUSH2 0x544F JUMP JUMPDEST JUMPDEST PUSH1 0x20 MUL PUSH1 0x20 ADD ADD MLOAD LT ISZERO PUSH2 0x2930 JUMPI DUP3 DUP2 DUP2 MLOAD DUP2 LT PUSH2 0x28EC JUMPI PUSH2 0x28EB PUSH2 0x544F JUMP JUMPDEST JUMPDEST PUSH1 0x20 MUL PUSH1 0x20 ADD ADD MLOAD PUSH1 0x40 MLOAD PUSH32 0x1342E6A00000000000000000000000000000000000000000000000000000000 DUP2 MSTORE PUSH1 0x4 ADD PUSH2 0x2927 SWAP2 SWAP1 PUSH2 0x47D5 JUMP JUMPDEST PUSH1 0x40 MLOAD DUP1 SWAP2 SUB SWAP1 REVERT JUMPDEST PUSH1 0x1 SWAP2 POP JUMPDEST DUP1 DUP1 PUSH1 0x1 ADD SWAP2 POP POP PUSH2 0x285F JUMP JUMPDEST POP DUP1 PUSH2 0x2985 JUMPI DUP1 PUSH1 0x40 MLOAD PUSH32 0xB108F96A00000000000000000000000000000000000000000000000000000000 DUP2 MSTORE PUSH1 0x4 ADD PUSH2 0x297C SWAP2 SWAP1 PUSH2 0x46D8 JUMP JUMPDEST PUSH1 0x40 MLOAD DUP1 SWAP2 SUB SWAP1 REVERT JUMPDEST PUSH0 DUP13 GT PUSH2 0x29C9 JUMPI DUP12 PUSH1 0x40 MLOAD PUSH32 0xBAF301F700000000000000000000000000000000000000000000000000000000 DUP2 MSTORE PUSH1 0x4 ADD PUSH2 0x29C0 SWAP2 SWAP1 PUSH2 0x47D5 JUMP JUMPDEST PUSH1 0x40 MLOAD DUP1 SWAP2 SUB SWAP1 REVERT JUMPDEST PUSH0 DUP10 GT PUSH2 0x2A0D JUMPI DUP9 PUSH1 0x40 MLOAD PUSH32 0x86B33ED200000000000000000000000000000000000000000000000000000000 DUP2 MSTORE PUSH1 0x4 ADD PUSH2 0x2A04 SWAP2 SWAP1 PUSH2 0x47D5 JUMP JUMPDEST PUSH1 0x40 MLOAD DUP1 SWAP2 SUB SWAP1 REVERT JUMPDEST PUSH0 DUP9 GT PUSH2 0x2A51 JUMPI DUP8 PUSH1 0x40 MLOAD PUSH32 0x8E57A1B300000000000000000000000000000000000000000000000000000000 DUP2 MSTORE PUSH1 0x4 ADD PUSH2 0x2A48 SWAP2 SWAP1 PUSH2 0x47D5 JUMP JUMPDEST PUSH1 0x40 MLOAD DUP1 SWAP2 SUB SWAP1 REVERT JUMPDEST PUSH1 0x1 PUSH0 DUP2 SLOAD DUP1 SWAP3 SWAP2 SWAP1 PUSH2 0x2A63 SWAP1 PUSH2 0x53C5 JUMP JUMPDEST SWAP2 SWAP1 POP SSTORE POP PUSH2 0x2A77 DUP10 DUP10 DUP15 DUP15 DUP15 DUP12 DUP14 PUSH2 0x302B JUMP JUMPDEST PUSH2 0x2A84 PUSH1 0x1 SLOAD DUP7 DUP7 PUSH2 0x3F4C JUMP JUMPDEST PUSH1 0x3 PUSH0 SWAP1 SLOAD SWAP1 PUSH2 0x100 EXP SWAP1 DIV PUSH20 0xFFFFFFFFFFFFFFFFFFFFFFFFFFFFFFFFFFFFFFFF AND PUSH20 0xFFFFFFFFFFFFFFFFFFFFFFFFFFFFFFFFFFFFFFFF AND DUP7 PUSH20 0xFFFFFFFFFFFFFFFFFFFFFFFFFFFFFFFFFFFFFFFF AND EQ PUSH2 0x2AEB JUMPI PUSH2 0x2AE6 DUP10 DUP10 PUSH1 0x1 SLOAD DUP10 PUSH2 0x3EE7 JUMP JUMPDEST PUSH2 0x2B1B JUMP JUMPDEST PUSH2 0x2B1A DUP10 DUP10 PUSH1 0x1 SLOAD PUSH1 0x3 PUSH0 SWAP1 SLOAD SWAP1 PUSH2 0x100 EXP SWAP1 DIV PUSH20 0xFFFFFFFFFFFFFFFFFFFFFFFFFFFFFFFFFFFFFFFF AND PUSH2 0x3EE7 JUMP JUMPDEST JUMPDEST PUSH32 0x52AD65EC41E71D556367FC4FEF59F68118B969BB890DEF6F1CCD0B952F557CA4 PUSH1 0x1 SLOAD DUP11 DUP11 DUP16 PUSH1 0x40 MLOAD PUSH2 0x2B52 SWAP5 SWAP4 SWAP3 SWAP2 SWAP1 PUSH2 0x540C JUMP JUMPDEST PUSH1 0x40 MLOAD DUP1 SWAP2 SUB SWAP1 LOG1 POP POP POP POP POP POP POP POP POP POP POP POP JUMP JUMPDEST PUSH1 0x4 PUSH0 DUP3 DUP2 MSTORE PUSH1 0x20 ADD SWAP1 DUP2 MSTORE PUSH1 0x20 ADD PUSH0 KECCAK256 PUSH1 0x5 ADD PUSH0 SWAP1 SLOAD SWAP1 PUSH2 0x100 EXP SWAP1 DIV PUSH20 0xFFFFFFFFFFFFFFFFFFFFFFFFFFFFFFFFFFFFFFFF AND PUSH20 0xFFFFFFFFFFFFFFFFFFFFFFFFFFFFFFFFFFFFFFFF AND CALLER PUSH20 0xFFFFFFFFFFFFFFFFFFFFFFFFFFFFFFFFFFFFFFFF AND EQ PUSH2 0x2C0B JUMPI CALLER PUSH1 0x40 MLOAD PUSH32 0x458A16AF00000000000000000000000000000000000000000000000000000000 DUP2 MSTORE PUSH1 0x4 ADD PUSH2 0x2C02 SWAP2 SWAP1 PUSH2 0x4A87 JUMP JUMPDEST PUSH1 0x40 MLOAD DUP1 SWAP2 SUB SWAP1 REVERT JUMPDEST PUSH1 0x4 PUSH0 DUP3 DUP2 MSTORE PUSH1 0x20 ADD SWAP1 DUP2 MSTORE PUSH1 0x20 ADD PUSH0 KECCAK256 PUSH0 ADD PUSH1 0x1 SWAP1 SLOAD SWAP1 PUSH2 0x100 EXP SWAP1 DIV PUSH1 0xFF AND ISZERO PUSH2 0x2C8E JUMPI PUSH1 0x4 PUSH0 DUP3 DUP2 MSTORE PUSH1 0x20 ADD SWAP1 DUP2 MSTORE PUSH1 0x20 ADD PUSH0 KECCAK256 PUSH0 ADD PUSH1 0x1 SWAP1 SLOAD SWAP1 PUSH2 0x100 EXP SWAP1 DIV PUSH1 0xFF AND PUSH1 0x40 MLOAD PUSH32 0x48D00A0000000000000000000000000000000000000000000000000000000000 DUP2 MSTORE PUSH1 0x4 ADD PUSH2 0x2C85 SWAP2 SWAP1 PUSH2 0x46D8 JUMP JUMPDEST PUSH1 0x40 MLOAD DUP1 SWAP2 SUB SWAP1 REVERT JUMPDEST PUSH0 PUSH1 0x4 PUSH0 DUP4 DUP2 MSTORE PUSH1 0x20 ADD SWAP1 DUP2 MSTORE PUSH1 0x20 ADD PUSH0 KECCAK256 PUSH1 0x9 ADD SLOAD EQ ISZERO DUP1 ISZERO PUSH2 0x2CC6 JUMPI POP PUSH0 PUSH1 0x4 PUSH0 DUP4 DUP2 MSTORE PUSH1 0x20 ADD SWAP1 DUP2 MSTORE PUSH1 0x20 ADD PUSH0 KECCAK256 PUSH1 0x8 ADD SLOAD EQ ISZERO JUMPDEST ISZERO PUSH2 0x2DA2 JUMPI PUSH0 PUSH20 0xFFFFFFFFFFFFFFFFFFFFFFFFFFFFFFFFFFFFFFFF AND PUSH1 0x4 PUSH0 DUP4 DUP2 MSTORE PUSH1 0x20 ADD SWAP1 DUP2 MSTORE PUSH1 0x20 ADD PUSH0 KECCAK256 PUSH1 0x6 ADD PUSH0 SWAP1 SLOAD SWAP1 PUSH2 0x100 EXP SWAP1 DIV PUSH20 0xFFFFFFFFFFFFFFFFFFFFFFFFFFFFFFFFFFFFFFFF AND PUSH20 0xFFFFFFFFFFFFFFFFFFFFFFFFFFFFFFFFFFFFFFFF AND EQ PUSH2 0x2DA1 JUMPI PUSH1 0x4 PUSH0 DUP3 DUP2 MSTORE PUSH1 0x20 ADD SWAP1 DUP2 MSTORE PUSH1 0x20 ADD PUSH0 KECCAK256 PUSH1 0x6 ADD PUSH0 SWAP1 SLOAD SWAP1 PUSH2 0x100 EXP SWAP1 DIV PUSH20 0xFFFFFFFFFFFFFFFFFFFFFFFFFFFFFFFFFFFFFFFF AND PUSH1 0x40 MLOAD PUSH32 0xE7C9314E00000000000000000000000000000000000000000000000000000000 DUP2 MSTORE PUSH1 0x4 ADD PUSH2 0x2D98 SWAP2 SWAP1 PUSH2 0x4A87 JUMP JUMPDEST PUSH1 0x40 MLOAD DUP1 SWAP2 SUB SWAP1 REVERT JUMPDEST JUMPDEST PUSH2 0x2E3D PUSH1 0x4 PUSH0 DUP4 DUP2 MSTORE PUSH1 0x20 ADD SWAP1 DUP2 MSTORE PUSH1 0x20 ADD PUSH0 KECCAK256 PUSH1 0x7 ADD PUSH0 SWAP1 SLOAD SWAP1 PUSH2 0x100 EXP SWAP1 DIV PUSH20 0xFFFFFFFFFFFFFFFFFFFFFFFFFFFFFFFFFFFFFFFF AND ADDRESS PUSH1 0x4 PUSH0 DUP6 DUP2 MSTORE PUSH1 0x20 ADD SWAP1 DUP2 MSTORE PUSH1 0x20 ADD PUSH0 KECCAK256 PUSH1 0x5 ADD PUSH0 SWAP1 SLOAD SWAP1 PUSH2 0x100 EXP SWAP1 DIV PUSH20 0xFFFFFFFFFFFFFFFFFFFFFFFFFFFFFFFFFFFFFFFF AND PUSH1 0x4 PUSH0 DUP7 DUP2 MSTORE PUSH1 0x20 ADD SWAP1 DUP2 MSTORE PUSH1 0x20 ADD PUSH0 KECCAK256 PUSH1 0x3 ADD SLOAD PUSH1 0x4 PUSH0 DUP8 DUP2 MSTORE PUSH1 0x20 ADD SWAP1 DUP2 MSTORE PUSH1 0x20 ADD PUSH0 KECCAK256 PUSH1 0x4 ADD SLOAD PUSH2 0x3AE6 JUMP JUMPDEST PUSH2 0x2E46 DUP2 PUSH2 0x40A7 JUMP JUMPDEST PUSH32 0x3C1CBEA3C4423ACDEDC9531A932910AB62FD4B01B389AA96646907A70549974C CALLER DUP3 PUSH1 0x4 PUSH0 DUP6 DUP2 MSTORE PUSH1 0x20 ADD SWAP1 DUP2 MSTORE PUSH1 0x20 ADD PUSH0 KECCAK256 PUSH0 ADD PUSH0 SWAP1 SLOAD SWAP1 PUSH2 0x100 EXP SWAP1 DIV PUSH1 0xFF AND PUSH1 0x40 MLOAD PUSH2 0x2E98 SWAP4 SWAP3 SWAP2 SWAP1 PUSH2 0x547C JUMP JUMPDEST PUSH1 0x40 MLOAD DUP1 SWAP2 SUB SWAP1 LOG1 POP JUMP JUMPDEST PUSH0 PUSH4 0xF23A6E61 PUSH1 0xE0 SHL SWAP1 POP SWAP6 SWAP5 POP POP POP POP POP JUMP JUMPDEST PUSH2 0x2EBF PUSH2 0x2FA4 JUMP JUMPDEST PUSH0 PUSH20 0xFFFFFFFFFFFFFFFFFFFFFFFFFFFFFFFFFFFFFFFF AND DUP2 PUSH20 0xFFFFFFFFFFFFFFFFFFFFFFFFFFFFFFFFFFFFFFFF AND SUB PUSH2 0x2F2F JUMPI PUSH0 PUSH1 0x40 MLOAD PUSH32 0x1E4FBDF700000000000000000000000000000000000000000000000000000000 DUP2 MSTORE PUSH1 0x4 ADD PUSH2 0x2F26 SWAP2 SWAP1 PUSH2 0x4A87 JUMP JUMPDEST PUSH1 0x40 MLOAD DUP1 SWAP2 SUB SWAP1 REVERT JUMPDEST PUSH2 0x2F38 DUP2 PUSH2 0x3DEF JUMP JUMPDEST POP JUMP JUMPDEST PUSH0 PUSH32 0x1FFC9A700000000000000000000000000000000000000000000000000000000 PUSH28 0xFFFFFFFFFFFFFFFFFFFFFFFFFFFFFFFFFFFFFFFFFFFFFFFFFFFFFFFF NOT AND DUP3 PUSH28 0xFFFFFFFFFFFFFFFFFFFFFFFFFFFFFFFFFFFFFFFFFFFFFFFFFFFFFFFF NOT AND EQ SWAP1 POP SWAP2 SWAP1 POP JUMP JUMPDEST PUSH2 0x2FAC PUSH2 0x4220 JUMP JUMPDEST PUSH20 0xFFFFFFFFFFFFFFFFFFFFFFFFFFFFFFFFFFFFFFFF AND PUSH2 0x2FCA PUSH2 0x177A JUMP JUMPDEST PUSH20 0xFFFFFFFFFFFFFFFFFFFFFFFFFFFFFFFFFFFFFFFF AND EQ PUSH2 0x3029 JUMPI PUSH2 0x2FED PUSH2 0x4220 JUMP JUMPDEST PUSH1 0x40 MLOAD PUSH32 0x118CDAA700000000000000000000000000000000000000000000000000000000 DUP2 MSTORE PUSH1 0x4 ADD PUSH2 0x3020 SWAP2 SWAP1 PUSH2 0x4A87 JUMP JUMPDEST PUSH1 0x40 MLOAD DUP1 SWAP2 SUB SWAP1 REVERT JUMPDEST JUMP JUMPDEST DUP5 DUP5 DUP5 DUP10 DUP10 DUP7 PUSH0 DUP7 GT PUSH2 0x3075 JUMPI DUP6 PUSH1 0x40 MLOAD PUSH32 0xBAF301F700000000000000000000000000000000000000000000000000000000 DUP2 MSTORE PUSH1 0x4 ADD PUSH2 0x306C SWAP2 SWAP1 PUSH2 0x47D5 JUMP JUMPDEST PUSH1 0x40 MLOAD DUP1 SWAP2 SUB SWAP1 REVERT JUMPDEST PUSH0 DUP4 GT PUSH2 0x30B9 JUMPI DUP3 PUSH1 0x40 MLOAD PUSH32 0x86B33ED200000000000000000000000000000000000000000000000000000000 DUP2 MSTORE PUSH1 0x4 ADD PUSH2 0x30B0 SWAP2 SWAP1 PUSH2 0x47D5 JUMP JUMPDEST PUSH1 0x40 MLOAD DUP1 SWAP2 SUB SWAP1 REVERT JUMPDEST PUSH0 DUP3 GT PUSH2 0x30FD JUMPI DUP2 PUSH1 0x40 MLOAD PUSH32 0x8E57A1B300000000000000000000000000000000000000000000000000000000 DUP2 MSTORE PUSH1 0x4 ADD PUSH2 0x30F4 SWAP2 SWAP1 PUSH2 0x47D5 JUMP JUMPDEST PUSH1 0x40 MLOAD DUP1 SWAP2 SUB SWAP1 REVERT JUMPDEST PUSH0 PUSH20 0xFFFFFFFFFFFFFFFFFFFFFFFFFFFFFFFFFFFFFFFF AND DUP2 PUSH20 0xFFFFFFFFFFFFFFFFFFFFFFFFFFFFFFFFFFFFFFFF AND SUB PUSH2 0x316D JUMPI DUP1 PUSH1 0x40 MLOAD PUSH32 0xE4CFA94D00000000000000000000000000000000000000000000000000000000 DUP2 MSTORE PUSH1 0x4 ADD PUSH2 0x3164 SWAP2 SWAP1 PUSH2 0x4A87 JUMP JUMPDEST PUSH1 0x40 MLOAD DUP1 SWAP2 SUB SWAP1 REVERT JUMPDEST PUSH0 DUP6 EQ ISZERO DUP1 ISZERO PUSH2 0x317D JUMPI POP PUSH0 DUP5 EQ ISZERO JUMPDEST ISZERO PUSH2 0x31D6 JUMPI TIMESTAMP DUP6 GT ISZERO DUP1 ISZERO PUSH2 0x3191 JUMPI POP DUP5 DUP5 LT JUMPDEST ISZERO PUSH2 0x31D5 JUMPI DUP5 DUP5 PUSH1 0x40 MLOAD PUSH32 0xDD96246F00000000000000000000000000000000000000000000000000000000 DUP2 MSTORE PUSH1 0x4 ADD PUSH2 0x31CC SWAP3 SWAP2 SWAP1 PUSH2 0x5151 JUMP JUMPDEST PUSH1 0x40 MLOAD DUP1 SWAP2 SUB SWAP1 REVERT JUMPDEST JUMPDEST PUSH0 DUP11 EQ DUP1 ISZERO PUSH2 0x31E4 JUMPI POP PUSH0 DUP10 EQ JUMPDEST ISZERO PUSH2 0x3218 JUMPI PUSH1 0x1 PUSH1 0x4 PUSH0 PUSH1 0x1 SLOAD DUP2 MSTORE PUSH1 0x20 ADD SWAP1 DUP2 MSTORE PUSH1 0x20 ADD PUSH0 KECCAK256 PUSH0 ADD PUSH1 0x2 PUSH2 0x100 EXP DUP2 SLOAD DUP2 PUSH1 0xFF MUL NOT AND SWAP1 DUP4 ISZERO ISZERO MUL OR SWAP1 SSTORE POP JUMPDEST PUSH1 0x1 PUSH1 0x4 PUSH0 PUSH1 0x1 SLOAD DUP2 MSTORE PUSH1 0x20 ADD SWAP1 DUP2 MSTORE PUSH1 0x20 ADD PUSH0 KECCAK256 PUSH0 ADD PUSH0 PUSH2 0x100 EXP DUP2 SLOAD DUP2 PUSH1 0xFF MUL NOT AND SWAP1 DUP4 ISZERO ISZERO MUL OR SWAP1 SSTORE POP DUP13 PUSH1 0x4 PUSH0 PUSH1 0x1 SLOAD DUP2 MSTORE PUSH1 0x20 ADD SWAP1 DUP2 MSTORE PUSH1 0x20 ADD PUSH0 KECCAK256 PUSH1 0x3 ADD DUP2 SWAP1 SSTORE POP DUP12 PUSH1 0x4 PUSH0 PUSH1 0x1 SLOAD DUP2 MSTORE PUSH1 0x20 ADD SWAP1 DUP2 MSTORE PUSH1 0x20 ADD PUSH0 KECCAK256 PUSH1 0x4 ADD DUP2 SWAP1 SSTORE POP DUP11 PUSH1 0x4 PUSH0 PUSH1 0x1 SLOAD DUP2 MSTORE PUSH1 0x20 ADD SWAP1 DUP2 MSTORE PUSH1 0x20 ADD PUSH0 KECCAK256 PUSH1 0x2 ADD DUP2 SWAP1 SSTORE POP DUP10 PUSH1 0x4 PUSH0 PUSH1 0x1 SLOAD DUP2 MSTORE PUSH1 0x20 ADD SWAP1 DUP2 MSTORE PUSH1 0x20 ADD PUSH0 KECCAK256 PUSH1 0x9 ADD DUP2 SWAP1 SSTORE POP DUP9 PUSH1 0x4 PUSH0 PUSH1 0x1 SLOAD DUP2 MSTORE PUSH1 0x20 ADD SWAP1 DUP2 MSTORE PUSH1 0x20 ADD PUSH0 KECCAK256 PUSH1 0x8 ADD DUP2 SWAP1 SSTORE POP CALLER PUSH1 0x4 PUSH0 PUSH1 0x1 SLOAD DUP2 MSTORE PUSH1 0x20 ADD SWAP1 DUP2 MSTORE PUSH1 0x20 ADD PUSH0 KECCAK256 PUSH1 0x5 ADD PUSH0 PUSH2 0x100 EXP DUP2 SLOAD DUP2 PUSH20 0xFFFFFFFFFFFFFFFFFFFFFFFFFFFFFFFFFFFFFFFF MUL NOT AND SWAP1 DUP4 PUSH20 0xFFFFFFFFFFFFFFFFFFFFFFFFFFFFFFFFFFFFFFFF AND MUL OR SWAP1 SSTORE POP DUP7 PUSH1 0x4 PUSH0 PUSH1 0x1 SLOAD DUP2 MSTORE PUSH1 0x20 ADD SWAP1 DUP2 MSTORE PUSH1 0x20 ADD PUSH0 KECCAK256 PUSH1 0x1 ADD DUP2 SWAP1 SSTORE POP POP POP POP POP POP POP POP POP POP POP POP POP POP JUMP JUMPDEST PUSH0 PUSH32 0xF0C57E16840DF040F15088DC2F81FE391C3923BEC73E23A9662EFC9C229C6A00 SWAP1 POP SWAP1 JUMP JUMPDEST PUSH2 0x3379 PUSH2 0x4227 JUMP JUMPDEST JUMP JUMPDEST PUSH2 0x3383 PUSH2 0x4227 JUMP JUMPDEST PUSH2 0x338C DUP2 PUSH2 0x4267 JUMP JUMPDEST POP JUMP JUMPDEST PUSH2 0x3397 PUSH2 0x4227 JUMP JUMPDEST JUMP JUMPDEST PUSH0 DUP1 DUP4 SUB PUSH2 0x33DE JUMPI DUP3 PUSH1 0x40 MLOAD PUSH32 0xFA1BDAE100000000000000000000000000000000000000000000000000000000 DUP2 MSTORE PUSH1 0x4 ADD PUSH2 0x33D5 SWAP2 SWAP1 PUSH2 0x47D5 JUMP JUMPDEST PUSH1 0x40 MLOAD DUP1 SWAP2 SUB SWAP1 REVERT JUMPDEST PUSH0 DUP3 SUB PUSH2 0x3422 JUMPI DUP2 PUSH1 0x40 MLOAD PUSH32 0x2890317F00000000000000000000000000000000000000000000000000000000 DUP2 MSTORE PUSH1 0x4 ADD PUSH2 0x3419 SWAP2 SWAP1 PUSH2 0x47D5 JUMP JUMPDEST PUSH1 0x40 MLOAD DUP1 SWAP2 SUB SWAP1 REVERT JUMPDEST PUSH0 PUSH2 0x2710 DUP4 DUP6 PUSH2 0x3432 SWAP2 SWAP1 PUSH2 0x54B1 JUMP JUMPDEST PUSH2 0x343C SWAP2 SWAP1 PUSH2 0x551F JUMP JUMPDEST SWAP1 POP DUP1 SWAP2 POP POP SWAP3 SWAP2 POP POP JUMP JUMPDEST PUSH0 DUP1 PUSH0 SWAP1 POP PUSH0 JUMPDEST PUSH1 0x5 PUSH0 DUP6 DUP2 MSTORE PUSH1 0x20 ADD SWAP1 DUP2 MSTORE PUSH1 0x20 ADD PUSH0 KECCAK256 PUSH0 ADD SLOAD DUP2 LT ISZERO PUSH2 0x36E9 JUMPI PUSH0 PUSH20 0xFFFFFFFFFFFFFFFFFFFFFFFFFFFFFFFFFFFFFFFF AND PUSH1 0x5 PUSH0 DUP7 DUP2 MSTORE PUSH1 0x20 ADD SWAP1 DUP2 MSTORE PUSH1 0x20 ADD PUSH0 KECCAK256 PUSH1 0x1 ADD DUP3 PUSH1 0xA DUP2 LT PUSH2 0x34A7 JUMPI PUSH2 0x34A6 PUSH2 0x544F JUMP JUMPDEST JUMPDEST ADD PUSH0 SWAP1 SLOAD SWAP1 PUSH2 0x100 EXP SWAP1 DIV PUSH20 0xFFFFFFFFFFFFFFFFFFFFFFFFFFFFFFFFFFFFFFFF AND PUSH20 0xFFFFFFFFFFFFFFFFFFFFFFFFFFFFFFFFFFFFFFFF AND EQ PUSH2 0x36DC JUMPI PUSH0 PUSH2 0x3529 PUSH1 0x4 PUSH0 DUP8 DUP2 MSTORE PUSH1 0x20 ADD SWAP1 DUP2 MSTORE PUSH1 0x20 ADD PUSH0 KECCAK256 PUSH1 0x2 ADD SLOAD PUSH1 0x5 PUSH0 DUP9 DUP2 MSTORE PUSH1 0x20 ADD SWAP1 DUP2 MSTORE PUSH1 0x20 ADD PUSH0 KECCAK256 PUSH1 0xB ADD DUP5 PUSH1 0xA DUP2 LT PUSH2 0x3522 JUMPI PUSH2 0x3521 PUSH2 0x544F JUMP JUMPDEST JUMPDEST ADD SLOAD PUSH2 0x3399 JUMP JUMPDEST SWAP1 POP PUSH0 DUP1 PUSH0 SWAP1 SLOAD SWAP1 PUSH2 0x100 EXP SWAP1 DIV PUSH20 0xFFFFFFFFFFFFFFFFFFFFFFFFFFFFFFFFFFFFFFFF AND PUSH20 0xFFFFFFFFFFFFFFFFFFFFFFFFFFFFFFFFFFFFFFFF AND PUSH4 0x53F50119 PUSH1 0x5 PUSH0 DUP10 DUP2 MSTORE PUSH1 0x20 ADD SWAP1 DUP2 MSTORE PUSH1 0x20 ADD PUSH0 KECCAK256 PUSH1 0x1 ADD DUP6 PUSH1 0xA DUP2 LT PUSH2 0x358E JUMPI PUSH2 0x358D PUSH2 0x544F JUMP JUMPDEST JUMPDEST ADD PUSH0 SWAP1 SLOAD SWAP1 PUSH2 0x100 EXP SWAP1 DIV PUSH20 0xFFFFFFFFFFFFFFFFFFFFFFFFFFFFFFFFFFFFFFFF AND PUSH1 0x40 MLOAD DUP3 PUSH4 0xFFFFFFFF AND PUSH1 0xE0 SHL DUP2 MSTORE PUSH1 0x4 ADD PUSH2 0x35CB SWAP2 SWAP1 PUSH2 0x4A87 JUMP JUMPDEST PUSH1 0x80 PUSH1 0x40 MLOAD DUP1 DUP4 SUB DUP2 DUP7 GAS STATICCALL ISZERO DUP1 ISZERO PUSH2 0x35E6 JUMPI RETURNDATASIZE PUSH0 DUP1 RETURNDATACOPY RETURNDATASIZE PUSH0 REVERT JUMPDEST POP POP POP POP PUSH1 0x40 MLOAD RETURNDATASIZE PUSH1 0x1F NOT PUSH1 0x1F DUP3 ADD AND DUP3 ADD DUP1 PUSH1 0x40 MSTORE POP DUP2 ADD SWAP1 PUSH2 0x360A SWAP2 SWAP1 PUSH2 0x5264 JUMP JUMPDEST POP POP POP SWAP1 POP PUSH0 DUP2 ISZERO PUSH2 0x366A JUMPI PUSH2 0x3667 PUSH0 PUSH1 0x5 PUSH0 DUP11 DUP2 MSTORE PUSH1 0x20 ADD SWAP1 DUP2 MSTORE PUSH1 0x20 ADD PUSH0 KECCAK256 PUSH1 0x1 ADD DUP7 PUSH1 0xA DUP2 LT PUSH2 0x3640 JUMPI PUSH2 0x363F PUSH2 0x544F JUMP JUMPDEST JUMPDEST ADD PUSH0 SWAP1 SLOAD SWAP1 PUSH2 0x100 EXP SWAP1 DIV PUSH20 0xFFFFFFFFFFFFFFFFFFFFFFFFFFFFFFFFFFFFFFFF AND DUP6 PUSH2 0x36F3 JUMP JUMPDEST SWAP1 POP JUMPDEST PUSH0 DUP2 DUP5 PUSH2 0x3677 SWAP2 SWAP1 PUSH2 0x5328 JUMP JUMPDEST SWAP1 POP PUSH2 0x36C9 PUSH1 0x5 PUSH0 DUP11 DUP2 MSTORE PUSH1 0x20 ADD SWAP1 DUP2 MSTORE PUSH1 0x20 ADD PUSH0 KECCAK256 PUSH1 0x1 ADD DUP7 PUSH1 0xA DUP2 LT PUSH2 0x36A2 JUMPI PUSH2 0x36A1 PUSH2 0x544F JUMP JUMPDEST JUMPDEST ADD PUSH0 SWAP1 SLOAD SWAP1 PUSH2 0x100 EXP SWAP1 DIV PUSH20 0xFFFFFFFFFFFFFFFFFFFFFFFFFFFFFFFFFFFFFFFF AND DUP3 PUSH2 0x3A37 JUMP JUMPDEST DUP4 DUP7 PUSH2 0x36D5 SWAP2 SWAP1 PUSH2 0x52F5 JUMP JUMPDEST SWAP6 POP POP POP POP POP JUMPDEST DUP1 DUP1 PUSH1 0x1 ADD SWAP2 POP POP PUSH2 0x344F JUMP JUMPDEST POP DUP1 SWAP2 POP POP SWAP2 SWAP1 POP JUMP JUMPDEST PUSH0 DUP1 PUSH0 DUP1 DUP7 EQ ISZERO DUP1 ISZERO PUSH2 0x3731 JUMPI POP PUSH0 PUSH20 0xFFFFFFFFFFFFFFFFFFFFFFFFFFFFFFFFFFFFFFFF AND DUP6 PUSH20 0xFFFFFFFFFFFFFFFFFFFFFFFFFFFFFFFFFFFFFFFF AND EQ JUMPDEST DUP1 ISZERO PUSH2 0x373C JUMPI POP PUSH0 DUP5 EQ JUMPDEST PUSH2 0x3746 JUMPI DUP5 PUSH2 0x377B JUMP JUMPDEST PUSH1 0x4 PUSH0 DUP8 DUP2 MSTORE PUSH1 0x20 ADD SWAP1 DUP2 MSTORE PUSH1 0x20 ADD PUSH0 KECCAK256 PUSH1 0x5 ADD PUSH0 SWAP1 SLOAD SWAP1 PUSH2 0x100 EXP SWAP1 DIV PUSH20 0xFFFFFFFFFFFFFFFFFFFFFFFFFFFFFFFFFFFFFFFF AND JUMPDEST SWAP1 POP PUSH0 DUP1 PUSH0 DUP1 SLOAD SWAP1 PUSH2 0x100 EXP SWAP1 DIV PUSH20 0xFFFFFFFFFFFFFFFFFFFFFFFFFFFFFFFFFFFFFFFF AND PUSH20 0xFFFFFFFFFFFFFFFFFFFFFFFFFFFFFFFFFFFFFFFF AND PUSH4 0x53F50119 DUP5 PUSH1 0x40 MLOAD DUP3 PUSH4 0xFFFFFFFF AND PUSH1 0xE0 SHL DUP2 MSTORE PUSH1 0x4 ADD PUSH2 0x37D7 SWAP2 SWAP1 PUSH2 0x4A87 JUMP JUMPDEST PUSH1 0x80 PUSH1 0x40 MLOAD DUP1 DUP4 SUB DUP2 DUP7 GAS STATICCALL ISZERO DUP1 ISZERO PUSH2 0x37F2 JUMPI RETURNDATASIZE PUSH0 DUP1 RETURNDATACOPY RETURNDATASIZE PUSH0 REVERT JUMPDEST POP POP POP POP PUSH1 0x40 MLOAD RETURNDATASIZE PUSH1 0x1F NOT PUSH1 0x1F DUP3 ADD AND DUP3 ADD DUP1 PUSH1 0x40 MSTORE POP DUP2 ADD SWAP1 PUSH2 0x3816 SWAP2 SWAP1 PUSH2 0x5264 JUMP JUMPDEST POP SWAP3 POP SWAP3 POP POP PUSH0 DUP3 SUB PUSH2 0x3871 JUMPI PUSH1 0x6 PUSH0 DUP3 PUSH20 0xFFFFFFFFFFFFFFFFFFFFFFFFFFFFFFFFFFFFFFFF AND PUSH20 0xFFFFFFFFFFFFFFFFFFFFFFFFFFFFFFFFFFFFFFFF AND DUP2 MSTORE PUSH1 0x20 ADD SWAP1 DUP2 MSTORE PUSH1 0x20 ADD PUSH0 KECCAK256 SLOAD SWAP2 POP PUSH0 DUP3 SUB PUSH2 0x3870 JUMPI PUSH2 0x3E8 SWAP2 POP JUMPDEST JUMPDEST PUSH0 DUP1 DUP10 EQ ISZERO DUP1 ISZERO PUSH2 0x3881 JUMPI POP PUSH0 DUP8 EQ JUMPDEST PUSH2 0x388B JUMPI DUP7 PUSH2 0x38A1 JUMP JUMPDEST PUSH1 0x4 PUSH0 DUP11 DUP2 MSTORE PUSH1 0x20 ADD SWAP1 DUP2 MSTORE PUSH1 0x20 ADD PUSH0 KECCAK256 PUSH1 0x2 ADD SLOAD JUMPDEST SWAP1 POP PUSH2 0x38AD DUP2 DUP5 PUSH2 0x3399 JUMP JUMPDEST SWAP5 POP PUSH2 0x38B9 DUP3 DUP7 PUSH2 0x3A37 JUMP JUMPDEST DUP5 SWAP6 POP POP POP POP POP POP SWAP4 SWAP3 POP POP POP JUMP JUMPDEST PUSH0 DUP1 PUSH1 0x4 PUSH0 DUP5 DUP2 MSTORE PUSH1 0x20 ADD SWAP1 DUP2 MSTORE PUSH1 0x20 ADD PUSH0 KECCAK256 PUSH1 0x7 ADD PUSH0 SWAP1 SLOAD SWAP1 PUSH2 0x100 EXP SWAP1 DIV PUSH20 0xFFFFFFFFFFFFFFFFFFFFFFFFFFFFFFFFFFFFFFFF AND PUSH20 0xFFFFFFFFFFFFFFFFFFFFFFFFFFFFFFFFFFFFFFFF AND PUSH1 0x3 PUSH0 SWAP1 SLOAD SWAP1 PUSH2 0x100 EXP SWAP1 DIV PUSH20 0xFFFFFFFFFFFFFFFFFFFFFFFFFFFFFFFFFFFFFFFF AND PUSH20 0xFFFFFFFFFFFFFFFFFFFFFFFFFFFFFFFFFFFFFFFF AND SUB PUSH2 0x3A2E JUMPI PUSH0 DUP1 PUSH0 DUP1 SLOAD SWAP1 PUSH2 0x100 EXP SWAP1 DIV PUSH20 0xFFFFFFFFFFFFFFFFFFFFFFFFFFFFFFFFFFFFFFFF AND PUSH20 0xFFFFFFFFFFFFFFFFFFFFFFFFFFFFFFFFFFFFFFFF AND PUSH4 0x8C33E47F PUSH1 0x4 PUSH0 DUP9 DUP2 MSTORE PUSH1 0x20 ADD SWAP1 DUP2 MSTORE PUSH1 0x20 ADD PUSH0 KECCAK256 PUSH1 0x3 ADD SLOAD PUSH1 0x40 MLOAD DUP3 PUSH4 0xFFFFFFFF AND PUSH1 0xE0 SHL DUP2 MSTORE PUSH1 0x4 ADD PUSH2 0x39BF SWAP2 SWAP1 PUSH2 0x47D5 JUMP JUMPDEST PUSH1 0x40 DUP1 MLOAD DUP1 DUP4 SUB DUP2 DUP7 GAS STATICCALL ISZERO DUP1 ISZERO PUSH2 0x39D9 JUMPI RETURNDATASIZE PUSH0 DUP1 RETURNDATACOPY RETURNDATASIZE PUSH0 REVERT JUMPDEST POP POP POP POP PUSH1 0x40 MLOAD RETURNDATASIZE PUSH1 0x1F NOT PUSH1 0x1F DUP3 ADD AND DUP3 ADD DUP1 PUSH1 0x40 MSTORE POP DUP2 ADD SWAP1 PUSH2 0x39FD SWAP2 SWAP1 PUSH2 0x554F JUMP JUMPDEST SWAP2 POP SWAP2 POP PUSH2 0x3A1F PUSH1 0x4 PUSH0 DUP8 DUP2 MSTORE PUSH1 0x20 ADD SWAP1 DUP2 MSTORE PUSH1 0x20 ADD PUSH0 KECCAK256 PUSH1 0x2 ADD SLOAD DUP4 PUSH2 0x3399 JUMP JUMPDEST SWAP3 POP PUSH2 0x3A2B DUP2 DUP5 PUSH2 0x3A37 JUMP JUMPDEST POP POP JUMPDEST DUP1 SWAP2 POP POP SWAP2 SWAP1 POP JUMP JUMPDEST PUSH0 DUP3 PUSH20 0xFFFFFFFFFFFFFFFFFFFFFFFFFFFFFFFFFFFFFFFF AND DUP3 PUSH1 0x40 MLOAD PUSH2 0x3A5C SWAP1 PUSH2 0x55BA JUMP JUMPDEST PUSH0 PUSH1 0x40 MLOAD DUP1 DUP4 SUB DUP2 DUP6 DUP8 GAS CALL SWAP3 POP POP POP RETURNDATASIZE DUP1 PUSH0 DUP2 EQ PUSH2 0x3A96 JUMPI PUSH1 0x40 MLOAD SWAP2 POP PUSH1 0x1F NOT PUSH1 0x3F RETURNDATASIZE ADD AND DUP3 ADD PUSH1 0x40 MSTORE RETURNDATASIZE DUP3 MSTORE RETURNDATASIZE PUSH0 PUSH1 0x20 DUP5 ADD RETURNDATACOPY PUSH2 0x3A9B JUMP JUMPDEST PUSH1 0x60 SWAP2 POP JUMPDEST POP POP SWAP1 POP DUP1 PUSH2 0x3AE1 JUMPI DUP1 PUSH1 0x40 MLOAD PUSH32 0xD85D3CEF00000000000000000000000000000000000000000000000000000000 DUP2 MSTORE PUSH1 0x4 ADD PUSH2 0x3AD8 SWAP2 SWAP1 PUSH2 0x46D8 JUMP JUMPDEST PUSH1 0x40 MLOAD DUP1 SWAP2 SUB SWAP1 REVERT JUMPDEST POP POP POP JUMP JUMPDEST DUP5 PUSH20 0xFFFFFFFFFFFFFFFFFFFFFFFFFFFFFFFFFFFFFFFF AND PUSH4 0xF242432A DUP6 DUP6 DUP6 DUP6 PUSH1 0x40 MLOAD DUP6 PUSH4 0xFFFFFFFF AND PUSH1 0xE0 SHL DUP2 MSTORE PUSH1 0x4 ADD PUSH2 0x3B25 SWAP5 SWAP4 SWAP3 SWAP2 SWAP1 PUSH2 0x5628 JUMP JUMPDEST PUSH0 PUSH1 0x40 MLOAD DUP1 DUP4 SUB DUP2 PUSH0 DUP8 DUP1 EXTCODESIZE ISZERO DUP1 ISZERO PUSH2 0x3B3C JUMPI PUSH0 DUP1 REVERT JUMPDEST POP GAS CALL ISZERO DUP1 ISZERO PUSH2 0x3B4E JUMPI RETURNDATASIZE PUSH0 DUP1 RETURNDATACOPY RETURNDATASIZE PUSH0 REVERT JUMPDEST POP POP POP POP POP POP POP POP POP JUMP JUMPDEST PUSH32 0x0 PUSH20 0xFFFFFFFFFFFFFFFFFFFFFFFFFFFFFFFFFFFFFFFF AND ADDRESS PUSH20 0xFFFFFFFFFFFFFFFFFFFFFFFFFFFFFFFFFFFFFFFF AND EQ DUP1 PUSH2 0x3C06 JUMPI POP PUSH32 0x0 PUSH20 0xFFFFFFFFFFFFFFFFFFFFFFFFFFFFFFFFFFFFFFFF AND PUSH2 0x3BED PUSH2 0x42EB JUMP JUMPDEST PUSH20 0xFFFFFFFFFFFFFFFFFFFFFFFFFFFFFFFFFFFFFFFF AND EQ ISZERO JUMPDEST ISZERO PUSH2 0x3C3D JUMPI PUSH1 0x40 MLOAD PUSH32 0xE07C8DBA00000000000000000000000000000000000000000000000000000000 DUP2 MSTORE PUSH1 0x4 ADD PUSH1 0x40 MLOAD DUP1 SWAP2 SUB SWAP1 REVERT JUMPDEST JUMP JUMPDEST PUSH2 0x3C47 PUSH2 0x2FA4 JUMP JUMPDEST POP JUMP JUMPDEST DUP2 PUSH20 0xFFFFFFFFFFFFFFFFFFFFFFFFFFFFFFFFFFFFFFFF AND PUSH4 0x52D1902D PUSH1 0x40 MLOAD DUP2 PUSH4 0xFFFFFFFF AND PUSH1 0xE0 SHL DUP2 MSTORE PUSH1 0x4 ADD PUSH1 0x20 PUSH1 0x40 MLOAD DUP1 DUP4 SUB DUP2 DUP7 GAS STATICCALL SWAP3 POP POP POP DUP1 ISZERO PUSH2 0x3CB2 JUMPI POP PUSH1 0x40 MLOAD RETURNDATASIZE PUSH1 0x1F NOT PUSH1 0x1F DUP3 ADD AND DUP3 ADD DUP1 PUSH1 0x40 MSTORE POP DUP2 ADD SWAP1 PUSH2 0x3CAF SWAP2 SWAP1 PUSH2 0x56A8 JUMP JUMPDEST PUSH1 0x1 JUMPDEST PUSH2 0x3CF3 JUMPI DUP2 PUSH1 0x40 MLOAD PUSH32 0x4C9C8CE300000000000000000000000000000000000000000000000000000000 DUP2 MSTORE PUSH1 0x4 ADD PUSH2 0x3CEA SWAP2 SWAP1 PUSH2 0x4A87 JUMP JUMPDEST PUSH1 0x40 MLOAD DUP1 SWAP2 SUB SWAP1 REVERT JUMPDEST PUSH32 0x360894A13BA1A3210667C828492DB98DCA3E2076CC3735A920A3CA505D382BBC PUSH0 SHL DUP2 EQ PUSH2 0x3D59 JUMPI DUP1 PUSH1 0x40 MLOAD PUSH32 0xAA1D49A400000000000000000000000000000000000000000000000000000000 DUP2 MSTORE PUSH1 0x4 ADD PUSH2 0x3D50 SWAP2 SWAP1 PUSH2 0x4A34 JUMP JUMPDEST PUSH1 0x40 MLOAD DUP1 SWAP2 SUB SWAP1 REVERT JUMPDEST PUSH2 0x3D63 DUP4 DUP4 PUSH2 0x433E JUMP JUMPDEST POP POP POP JUMP JUMPDEST PUSH32 0x0 PUSH20 0xFFFFFFFFFFFFFFFFFFFFFFFFFFFFFFFFFFFFFFFF AND ADDRESS PUSH20 0xFFFFFFFFFFFFFFFFFFFFFFFFFFFFFFFFFFFFFFFF AND EQ PUSH2 0x3DED JUMPI PUSH1 0x40 MLOAD PUSH32 0xE07C8DBA00000000000000000000000000000000000000000000000000000000 DUP2 MSTORE PUSH1 0x4 ADD PUSH1 0x40 MLOAD DUP1 SWAP2 SUB SWAP1 REVERT JUMPDEST JUMP JUMPDEST PUSH0 PUSH2 0x3DF8 PUSH2 0x3EC0 JUMP JUMPDEST SWAP1 POP PUSH0 DUP2 PUSH0 ADD PUSH0 SWAP1 SLOAD SWAP1 PUSH2 0x100 EXP SWAP1 DIV PUSH20 0xFFFFFFFFFFFFFFFFFFFFFFFFFFFFFFFFFFFFFFFF AND SWAP1 POP DUP3 DUP3 PUSH0 ADD PUSH0 PUSH2 0x100 EXP DUP2 SLOAD DUP2 PUSH20 0xFFFFFFFFFFFFFFFFFFFFFFFFFFFFFFFFFFFFFFFF MUL NOT AND SWAP1 DUP4 PUSH20 0xFFFFFFFFFFFFFFFFFFFFFFFFFFFFFFFFFFFFFFFF AND MUL OR SWAP1 SSTORE POP DUP3 PUSH20 0xFFFFFFFFFFFFFFFFFFFFFFFFFFFFFFFFFFFFFFFF AND DUP2 PUSH20 0xFFFFFFFFFFFFFFFFFFFFFFFFFFFFFFFFFFFFFFFF AND PUSH32 0x8BE0079C531659141344CD1FD0A4F28419497F9722A3DAAFE3B4186F6B6457E0 PUSH1 0x40 MLOAD PUSH1 0x40 MLOAD DUP1 SWAP2 SUB SWAP1 LOG3 POP POP POP JUMP JUMPDEST PUSH0 PUSH32 0x9016D09D72D40FDAE2FD8CEAC6B6234C7706214FD39C1CD1E609A0528C199300 SWAP1 POP SWAP1 JUMP JUMPDEST DUP1 PUSH1 0x4 PUSH0 DUP5 DUP2 MSTORE PUSH1 0x20 ADD SWAP1 DUP2 MSTORE PUSH1 0x20 ADD PUSH0 KECCAK256 PUSH1 0x7 ADD PUSH0 PUSH2 0x100 EXP DUP2 SLOAD DUP2 PUSH20 0xFFFFFFFFFFFFFFFFFFFFFFFFFFFFFFFFFFFFFFFF MUL NOT AND SWAP1 DUP4 PUSH20 0xFFFFFFFFFFFFFFFFFFFFFFFFFFFFFFFFFFFFFFFF AND MUL OR SWAP1 SSTORE POP PUSH2 0x3F46 DUP2 CALLER ADDRESS DUP8 DUP8 PUSH2 0x3AE6 JUMP JUMPDEST POP POP POP POP JUMP JUMPDEST PUSH0 JUMPDEST DUP3 MLOAD DUP2 LT ISZERO PUSH2 0x40A1 JUMPI PUSH0 PUSH20 0xFFFFFFFFFFFFFFFFFFFFFFFFFFFFFFFFFFFFFFFF AND DUP4 DUP3 DUP2 MLOAD DUP2 LT PUSH2 0x3F81 JUMPI PUSH2 0x3F80 PUSH2 0x544F JUMP JUMPDEST JUMPDEST PUSH1 0x20 MUL PUSH1 0x20 ADD ADD MLOAD PUSH20 0xFFFFFFFFFFFFFFFFFFFFFFFFFFFFFFFFFFFFFFFF AND EQ PUSH2 0x4094 JUMPI DUP3 DUP2 DUP2 MLOAD DUP2 LT PUSH2 0x3FB7 JUMPI PUSH2 0x3FB6 PUSH2 0x544F JUMP JUMPDEST JUMPDEST PUSH1 0x20 MUL PUSH1 0x20 ADD ADD MLOAD PUSH1 0x5 PUSH0 DUP7 DUP2 MSTORE PUSH1 0x20 ADD SWAP1 DUP2 MSTORE PUSH1 0x20 ADD PUSH0 KECCAK256 PUSH1 0x1 ADD DUP3 PUSH1 0xA DUP2 LT PUSH2 0x3FE5 JUMPI PUSH2 0x3FE4 PUSH2 0x544F JUMP JUMPDEST JUMPDEST ADD PUSH0 PUSH2 0x100 EXP DUP2 SLOAD DUP2 PUSH20 0xFFFFFFFFFFFFFFFFFFFFFFFFFFFFFFFFFFFFFFFF MUL NOT AND SWAP1 DUP4 PUSH20 0xFFFFFFFFFFFFFFFFFFFFFFFFFFFFFFFFFFFFFFFF AND MUL OR SWAP1 SSTORE POP DUP2 DUP2 DUP2 MLOAD DUP2 LT PUSH2 0x4036 JUMPI PUSH2 0x4035 PUSH2 0x544F JUMP JUMPDEST JUMPDEST PUSH1 0x20 MUL PUSH1 0x20 ADD ADD MLOAD PUSH1 0x5 PUSH0 DUP7 DUP2 MSTORE PUSH1 0x20 ADD SWAP1 DUP2 MSTORE PUSH1 0x20 ADD PUSH0 KECCAK256 PUSH1 0xB ADD DUP3 PUSH1 0xA DUP2 LT PUSH2 0x4064 JUMPI PUSH2 0x4063 PUSH2 0x544F JUMP JUMPDEST JUMPDEST ADD DUP2 SWAP1 SSTORE POP PUSH1 0x1 PUSH1 0x5 PUSH0 DUP7 DUP2 MSTORE PUSH1 0x20 ADD SWAP1 DUP2 MSTORE PUSH1 0x20 ADD PUSH0 KECCAK256 PUSH0 ADD PUSH0 DUP3 DUP3 SLOAD PUSH2 0x408C SWAP2 SWAP1 PUSH2 0x52F5 JUMP JUMPDEST SWAP3 POP POP DUP2 SWAP1 SSTORE POP JUMPDEST DUP1 DUP1 PUSH1 0x1 ADD SWAP2 POP POP PUSH2 0x3F4E JUMP JUMPDEST POP POP POP POP JUMP JUMPDEST PUSH0 PUSH1 0x4 PUSH0 DUP4 DUP2 MSTORE PUSH1 0x20 ADD SWAP1 DUP2 MSTORE PUSH1 0x20 ADD PUSH0 KECCAK256 PUSH0 ADD PUSH1 0x2 PUSH2 0x100 EXP DUP2 SLOAD DUP2 PUSH1 0xFF MUL NOT AND SWAP1 DUP4 ISZERO ISZERO MUL OR SWAP1 SSTORE POP PUSH0 PUSH1 0x4 PUSH0 DUP4 DUP2 MSTORE PUSH1 0x20 ADD SWAP1 DUP2 MSTORE PUSH1 0x20 ADD PUSH0 KECCAK256 PUSH0 ADD PUSH0 PUSH2 0x100 EXP DUP2 SLOAD DUP2 PUSH1 0xFF MUL NOT AND SWAP1 DUP4 ISZERO ISZERO MUL OR SWAP1 SSTORE POP PUSH0 PUSH1 0x4 PUSH0 DUP4 DUP2 MSTORE PUSH1 0x20 ADD SWAP1 DUP2 MSTORE PUSH1 0x20 ADD PUSH0 KECCAK256 PUSH1 0x3 ADD DUP2 SWAP1 SSTORE POP PUSH0 PUSH1 0x4 PUSH0 DUP4 DUP2 MSTORE PUSH1 0x20 ADD SWAP1 DUP2 MSTORE PUSH1 0x20 ADD PUSH0 KECCAK256 PUSH1 0x4 ADD DUP2 SWAP1 SSTORE POP PUSH0 PUSH1 0x4 PUSH0 DUP4 DUP2 MSTORE PUSH1 0x20 ADD SWAP1 DUP2 MSTORE PUSH1 0x20 ADD PUSH0 KECCAK256 PUSH1 0x2 ADD DUP2 SWAP1 SSTORE POP PUSH0 PUSH1 0x4 PUSH0 DUP4 DUP2 MSTORE PUSH1 0x20 ADD SWAP1 DUP2 MSTORE PUSH1 0x20 ADD PUSH0 KECCAK256 PUSH1 0x8 ADD DUP2 SWAP1 SSTORE POP PUSH0 PUSH1 0x4 PUSH0 DUP4 DUP2 MSTORE PUSH1 0x20 ADD SWAP1 DUP2 MSTORE PUSH1 0x20 ADD PUSH0 KECCAK256 PUSH1 0x9 ADD DUP2 SWAP1 SSTORE POP PUSH0 PUSH1 0x4 PUSH0 DUP4 DUP2 MSTORE PUSH1 0x20 ADD SWAP1 DUP2 MSTORE PUSH1 0x20 ADD PUSH0 KECCAK256 PUSH1 0x7 ADD PUSH0 PUSH2 0x100 EXP DUP2 SLOAD DUP2 PUSH20 0xFFFFFFFFFFFFFFFFFFFFFFFFFFFFFFFFFFFFFFFF MUL NOT AND SWAP1 DUP4 PUSH20 0xFFFFFFFFFFFFFFFFFFFFFFFFFFFFFFFFFFFFFFFF AND MUL OR SWAP1 SSTORE POP PUSH0 PUSH1 0x4 PUSH0 DUP4 DUP2 MSTORE PUSH1 0x20 ADD SWAP1 DUP2 MSTORE PUSH1 0x20 ADD PUSH0 KECCAK256 PUSH1 0x5 ADD PUSH0 PUSH2 0x100 EXP DUP2 SLOAD DUP2 PUSH20 0xFFFFFFFFFFFFFFFFFFFFFFFFFFFFFFFFFFFFFFFF MUL NOT AND SWAP1 DUP4 PUSH20 0xFFFFFFFFFFFFFFFFFFFFFFFFFFFFFFFFFFFFFFFF AND MUL OR SWAP1 SSTORE POP POP JUMP JUMPDEST PUSH0 CALLER SWAP1 POP SWAP1 JUMP JUMPDEST PUSH2 0x422F PUSH2 0x43B0 JUMP JUMPDEST PUSH2 0x4265 JUMPI PUSH1 0x40 MLOAD PUSH32 0xD7E6BCF800000000000000000000000000000000000000000000000000000000 DUP2 MSTORE PUSH1 0x4 ADD PUSH1 0x40 MLOAD DUP1 SWAP2 SUB SWAP1 REVERT JUMPDEST JUMP JUMPDEST PUSH2 0x426F PUSH2 0x4227 JUMP JUMPDEST PUSH0 PUSH20 0xFFFFFFFFFFFFFFFFFFFFFFFFFFFFFFFFFFFFFFFF AND DUP2 PUSH20 0xFFFFFFFFFFFFFFFFFFFFFFFFFFFFFFFFFFFFFFFF AND SUB PUSH2 0x42DF JUMPI PUSH0 PUSH1 0x40 MLOAD PUSH32 0x1E4FBDF700000000000000000000000000000000000000000000000000000000 DUP2 MSTORE PUSH1 0x4 ADD PUSH2 0x42D6 SWAP2 SWAP1 PUSH2 0x4A87 JUMP JUMPDEST PUSH1 0x40 MLOAD DUP1 SWAP2 SUB SWAP1 REVERT JUMPDEST PUSH2 0x42E8 DUP2 PUSH2 0x3DEF JUMP JUMPDEST POP JUMP JUMPDEST PUSH0 PUSH2 0x4317 PUSH32 0x360894A13BA1A3210667C828492DB98DCA3E2076CC3735A920A3CA505D382BBC PUSH0 SHL PUSH2 0x43CE JUMP JUMPDEST PUSH0 ADD PUSH0 SWAP1 SLOAD SWAP1 PUSH2 0x100 EXP SWAP1 DIV PUSH20 0xFFFFFFFFFFFFFFFFFFFFFFFFFFFFFFFFFFFFFFFF AND SWAP1 POP SWAP1 JUMP JUMPDEST PUSH2 0x4347 DUP3 PUSH2 0x43D7 JUMP JUMPDEST DUP2 PUSH20 0xFFFFFFFFFFFFFFFFFFFFFFFFFFFFFFFFFFFFFFFF AND PUSH32 0xBC7CD75A20EE27FD9ADEBAB32041F755214DBC6BFFA90CC0225B39DA2E5C2D3B PUSH1 0x40 MLOAD PUSH1 0x40 MLOAD DUP1 SWAP2 SUB SWAP1 LOG2 PUSH0 DUP2 MLOAD GT ISZERO PUSH2 0x43A3 JUMPI PUSH2 0x439D DUP3 DUP3 PUSH2 0x44A0 JUMP JUMPDEST POP PUSH2 0x43AC JUMP JUMPDEST PUSH2 0x43AB PUSH2 0x4520 JUMP JUMPDEST JUMPDEST POP POP JUMP JUMPDEST PUSH0 PUSH2 0x43B9 PUSH2 0x334A JUMP JUMPDEST PUSH0 ADD PUSH1 0x8 SWAP1 SLOAD SWAP1 PUSH2 0x100 EXP SWAP1 DIV PUSH1 0xFF AND SWAP1 POP SWAP1 JUMP JUMPDEST PUSH0 DUP2 SWAP1 POP SWAP2 SWAP1 POP JUMP JUMPDEST PUSH0 DUP2 PUSH20 0xFFFFFFFFFFFFFFFFFFFFFFFFFFFFFFFFFFFFFFFF AND EXTCODESIZE SUB PUSH2 0x4432 JUMPI DUP1 PUSH1 0x40 MLOAD PUSH32 0x4C9C8CE300000000000000000000000000000000000000000000000000000000 DUP2 MSTORE PUSH1 0x4 ADD PUSH2 0x4429 SWAP2 SWAP1 PUSH2 0x4A87 JUMP JUMPDEST PUSH1 0x40 MLOAD DUP1 SWAP2 SUB SWAP1 REVERT JUMPDEST DUP1 PUSH2 0x445E PUSH32 0x360894A13BA1A3210667C828492DB98DCA3E2076CC3735A920A3CA505D382BBC PUSH0 SHL PUSH2 0x43CE JUMP JUMPDEST PUSH0 ADD PUSH0 PUSH2 0x100 EXP DUP2 SLOAD DUP2 PUSH20 0xFFFFFFFFFFFFFFFFFFFFFFFFFFFFFFFFFFFFFFFF MUL NOT AND SWAP1 DUP4 PUSH20 0xFFFFFFFFFFFFFFFFFFFFFFFFFFFFFFFFFFFFFFFF AND MUL OR SWAP1 SSTORE POP POP JUMP JUMPDEST PUSH1 0x60 PUSH0 DUP1 DUP5 PUSH20 0xFFFFFFFFFFFFFFFFFFFFFFFFFFFFFFFFFFFFFFFF AND DUP5 PUSH1 0x40 MLOAD PUSH2 0x44C9 SWAP2 SWAP1 PUSH2 0x570D JUMP JUMPDEST PUSH0 PUSH1 0x40 MLOAD DUP1 DUP4 SUB DUP2 DUP6 GAS DELEGATECALL SWAP2 POP POP RETURNDATASIZE DUP1 PUSH0 DUP2 EQ PUSH2 0x4501 JUMPI PUSH1 0x40 MLOAD SWAP2 POP PUSH1 0x1F NOT PUSH1 0x3F RETURNDATASIZE ADD AND DUP3 ADD PUSH1 0x40 MSTORE RETURNDATASIZE DUP3 MSTORE RETURNDATASIZE PUSH0 PUSH1 0x20 DUP5 ADD RETURNDATACOPY PUSH2 0x4506 JUMP JUMPDEST PUSH1 0x60 SWAP2 POP JUMPDEST POP SWAP2 POP SWAP2 POP PUSH2 0x4516 DUP6 DUP4 DUP4 PUSH2 0x455C JUMP JUMPDEST SWAP3 POP POP POP SWAP3 SWAP2 POP POP JUMP JUMPDEST PUSH0 CALLVALUE GT ISZERO PUSH2 0x455A JUMPI PUSH1 0x40 MLOAD PUSH32 0xB398979F00000000000000000000000000000000000000000000000000000000 DUP2 MSTORE PUSH1 0x4 ADD PUSH1 0x40 MLOAD DUP1 SWAP2 SUB SWAP1 REVERT JUMPDEST JUMP JUMPDEST PUSH1 0x60 DUP3 PUSH2 0x4571 JUMPI PUSH2 0x456C DUP3 PUSH2 0x45E9 JUMP JUMPDEST PUSH2 0x45E1 JUMP JUMPDEST PUSH0 DUP3 MLOAD EQ DUP1 ISZERO PUSH2 0x4597 JUMPI POP PUSH0 DUP5 PUSH20 0xFFFFFFFFFFFFFFFFFFFFFFFFFFFFFFFFFFFFFFFF AND EXTCODESIZE EQ JUMPDEST ISZERO PUSH2 0x45D9 JUMPI DUP4 PUSH1 0x40 MLOAD PUSH32 0x9996B31500000000000000000000000000000000000000000000000000000000 DUP2 MSTORE PUSH1 0x4 ADD PUSH2 0x45D0 SWAP2 SWAP1 PUSH2 0x4A87 JUMP JUMPDEST PUSH1 0x40 MLOAD DUP1 SWAP2 SUB SWAP1 REVERT JUMPDEST DUP2 SWAP1 POP PUSH2 0x45E2 JUMP JUMPDEST JUMPDEST SWAP4 SWAP3 POP POP POP JUMP JUMPDEST PUSH0 DUP2 MLOAD GT ISZERO PUSH2 0x45FB JUMPI DUP1 MLOAD DUP1 DUP3 PUSH1 0x20 ADD REVERT JUMPDEST PUSH1 0x40 MLOAD PUSH32 0x1425EA4200000000000000000000000000000000000000000000000000000000 DUP2 MSTORE PUSH1 0x4 ADD PUSH1 0x40 MLOAD DUP1 SWAP2 SUB SWAP1 REVERT JUMPDEST PUSH0 PUSH1 0x40 MLOAD SWAP1 POP SWAP1 JUMP JUMPDEST PUSH0 DUP1 REVERT JUMPDEST PUSH0 DUP1 REVERT JUMPDEST PUSH0 PUSH32 0xFFFFFFFF00000000000000000000000000000000000000000000000000000000 DUP3 AND SWAP1 POP SWAP2 SWAP1 POP JUMP JUMPDEST PUSH2 0x4672 DUP2 PUSH2 0x463E JUMP JUMPDEST DUP2 EQ PUSH2 0x467C JUMPI PUSH0 DUP1 REVERT JUMPDEST POP JUMP JUMPDEST PUSH0 DUP2 CALLDATALOAD SWAP1 POP PUSH2 0x468D DUP2 PUSH2 0x4669 JUMP JUMPDEST SWAP3 SWAP2 POP POP JUMP JUMPDEST PUSH0 PUSH1 0x20 DUP3 DUP5 SUB SLT ISZERO PUSH2 0x46A8 JUMPI PUSH2 0x46A7 PUSH2 0x4636 JUMP JUMPDEST JUMPDEST PUSH0 PUSH2 0x46B5 DUP5 DUP3 DUP6 ADD PUSH2 0x467F JUMP JUMPDEST SWAP2 POP POP SWAP3 SWAP2 POP POP JUMP JUMPDEST PUSH0 DUP2 ISZERO ISZERO SWAP1 POP SWAP2 SWAP1 POP JUMP JUMPDEST PUSH2 0x46D2 DUP2 PUSH2 0x46BE JUMP JUMPDEST DUP3 MSTORE POP POP JUMP JUMPDEST PUSH0 PUSH1 0x20 DUP3 ADD SWAP1 POP PUSH2 0x46EB PUSH0 DUP4 ADD DUP5 PUSH2 0x46C9 JUMP JUMPDEST SWAP3 SWAP2 POP POP JUMP JUMPDEST PUSH0 DUP2 SWAP1 POP SWAP2 SWAP1 POP JUMP JUMPDEST PUSH2 0x4703 DUP2 PUSH2 0x46F1 JUMP JUMPDEST DUP2 EQ PUSH2 0x470D JUMPI PUSH0 DUP1 REVERT JUMPDEST POP JUMP JUMPDEST PUSH0 DUP2 CALLDATALOAD SWAP1 POP PUSH2 0x471E DUP2 PUSH2 0x46FA JUMP JUMPDEST SWAP3 SWAP2 POP POP JUMP JUMPDEST PUSH0 PUSH1 0x20 DUP3 DUP5 SUB SLT ISZERO PUSH2 0x4739 JUMPI PUSH2 0x4738 PUSH2 0x4636 JUMP JUMPDEST JUMPDEST PUSH0 PUSH2 0x4746 DUP5 DUP3 DUP6 ADD PUSH2 0x4710 JUMP JUMPDEST SWAP2 POP POP SWAP3 SWAP2 POP POP JUMP JUMPDEST PUSH0 DUP1 PUSH0 DUP1 PUSH0 PUSH1 0xA0 DUP7 DUP9 SUB SLT ISZERO PUSH2 0x4768 JUMPI PUSH2 0x4767 PUSH2 0x4636 JUMP JUMPDEST JUMPDEST PUSH0 PUSH2 0x4775 DUP9 DUP3 DUP10 ADD PUSH2 0x4710 JUMP JUMPDEST SWAP6 POP POP PUSH1 0x20 PUSH2 0x4786 DUP9 DUP3 DUP10 ADD PUSH2 0x4710 JUMP JUMPDEST SWAP5 POP POP PUSH1 0x40 PUSH2 0x4797 DUP9 DUP3 DUP10 ADD PUSH2 0x4710 JUMP JUMPDEST SWAP4 POP POP PUSH1 0x60 PUSH2 0x47A8 DUP9 DUP3 DUP10 ADD PUSH2 0x4710 JUMP JUMPDEST SWAP3 POP POP PUSH1 0x80 PUSH2 0x47B9 DUP9 DUP3 DUP10 ADD PUSH2 0x4710 JUMP JUMPDEST SWAP2 POP POP SWAP3 SWAP6 POP SWAP3 SWAP6 SWAP1 SWAP4 POP JUMP JUMPDEST PUSH2 0x47CF DUP2 PUSH2 0x46F1 JUMP JUMPDEST DUP3 MSTORE POP POP JUMP JUMPDEST PUSH0 PUSH1 0x20 DUP3 ADD SWAP1 POP PUSH2 0x47E8 PUSH0 DUP4 ADD DUP5 PUSH2 0x47C6 JUMP JUMPDEST SWAP3 SWAP2 POP POP JUMP JUMPDEST PUSH0 PUSH20 0xFFFFFFFFFFFFFFFFFFFFFFFFFFFFFFFFFFFFFFFF DUP3 AND SWAP1 POP SWAP2 SWAP1 POP JUMP JUMPDEST PUSH0 PUSH2 0x4817 DUP3 PUSH2 0x47EE JUMP JUMPDEST SWAP1 POP SWAP2 SWAP1 POP JUMP JUMPDEST PUSH2 0x4827 DUP2 PUSH2 0x480D JUMP JUMPDEST DUP2 EQ PUSH2 0x4831 JUMPI PUSH0 DUP1 REVERT JUMPDEST POP JUMP JUMPDEST PUSH0 DUP2 CALLDATALOAD SWAP1 POP PUSH2 0x4842 DUP2 PUSH2 0x481E JUMP JUMPDEST SWAP3 SWAP2 POP POP JUMP JUMPDEST PUSH0 DUP1 PUSH1 0x40 DUP4 DUP6 SUB SLT ISZERO PUSH2 0x485E JUMPI PUSH2 0x485D PUSH2 0x4636 JUMP JUMPDEST JUMPDEST PUSH0 PUSH2 0x486B DUP6 DUP3 DUP7 ADD PUSH2 0x4834 JUMP JUMPDEST SWAP3 POP POP PUSH1 0x20 PUSH2 0x487C DUP6 DUP3 DUP7 ADD PUSH2 0x4834 JUMP JUMPDEST SWAP2 POP POP SWAP3 POP SWAP3 SWAP1 POP JUMP JUMPDEST PUSH0 DUP1 REVERT JUMPDEST PUSH0 DUP1 REVERT JUMPDEST PUSH0 PUSH1 0x1F NOT PUSH1 0x1F DUP4 ADD AND SWAP1 POP SWAP2 SWAP1 POP JUMP JUMPDEST PUSH32 0x4E487B7100000000000000000000000000000000000000000000000000000000 PUSH0 MSTORE PUSH1 0x41 PUSH1 0x4 MSTORE PUSH1 0x24 PUSH0 REVERT JUMPDEST PUSH2 0x48D4 DUP3 PUSH2 0x488E JUMP JUMPDEST DUP2 ADD DUP2 DUP2 LT PUSH8 0xFFFFFFFFFFFFFFFF DUP3 GT OR ISZERO PUSH2 0x48F3 JUMPI PUSH2 0x48F2 PUSH2 0x489E JUMP JUMPDEST JUMPDEST DUP1 PUSH1 0x40 MSTORE POP POP POP JUMP JUMPDEST PUSH0 PUSH2 0x4905 PUSH2 0x462D JUMP JUMPDEST SWAP1 POP PUSH2 0x4911 DUP3 DUP3 PUSH2 0x48CB JUMP JUMPDEST SWAP2 SWAP1 POP JUMP JUMPDEST PUSH0 PUSH8 0xFFFFFFFFFFFFFFFF DUP3 GT ISZERO PUSH2 0x4930 JUMPI PUSH2 0x492F PUSH2 0x489E JUMP JUMPDEST JUMPDEST PUSH2 0x4939 DUP3 PUSH2 0x488E JUMP JUMPDEST SWAP1 POP PUSH1 0x20 DUP2 ADD SWAP1 POP SWAP2 SWAP1 POP JUMP JUMPDEST DUP3 DUP2 DUP4 CALLDATACOPY PUSH0 DUP4 DUP4 ADD MSTORE POP POP POP JUMP JUMPDEST PUSH0 PUSH2 0x4966 PUSH2 0x4961 DUP5 PUSH2 0x4916 JUMP JUMPDEST PUSH2 0x48FC JUMP JUMPDEST SWAP1 POP DUP3 DUP2 MSTORE PUSH1 0x20 DUP2 ADD DUP5 DUP5 DUP5 ADD GT ISZERO PUSH2 0x4982 JUMPI PUSH2 0x4981 PUSH2 0x488A JUMP JUMPDEST JUMPDEST PUSH2 0x498D DUP5 DUP3 DUP6 PUSH2 0x4946 JUMP JUMPDEST POP SWAP4 SWAP3 POP POP POP JUMP JUMPDEST PUSH0 DUP3 PUSH1 0x1F DUP4 ADD SLT PUSH2 0x49A9 JUMPI PUSH2 0x49A8 PUSH2 0x4886 JUMP JUMPDEST JUMPDEST DUP2 CALLDATALOAD PUSH2 0x49B9 DUP5 DUP3 PUSH1 0x20 DUP7 ADD PUSH2 0x4954 JUMP JUMPDEST SWAP2 POP POP SWAP3 SWAP2 POP POP JUMP JUMPDEST PUSH0 DUP1 PUSH1 0x40 DUP4 DUP6 SUB SLT ISZERO PUSH2 0x49D8 JUMPI PUSH2 0x49D7 PUSH2 0x4636 JUMP JUMPDEST JUMPDEST PUSH0 PUSH2 0x49E5 DUP6 DUP3 DUP7 ADD PUSH2 0x4834 JUMP JUMPDEST SWAP3 POP POP PUSH1 0x20 DUP4 ADD CALLDATALOAD PUSH8 0xFFFFFFFFFFFFFFFF DUP2 GT ISZERO PUSH2 0x4A06 JUMPI PUSH2 0x4A05 PUSH2 0x463A JUMP JUMPDEST JUMPDEST PUSH2 0x4A12 DUP6 DUP3 DUP7 ADD PUSH2 0x4995 JUMP JUMPDEST SWAP2 POP POP SWAP3 POP SWAP3 SWAP1 POP JUMP JUMPDEST PUSH0 DUP2 SWAP1 POP SWAP2 SWAP1 POP JUMP JUMPDEST PUSH2 0x4A2E DUP2 PUSH2 0x4A1C JUMP JUMPDEST DUP3 MSTORE POP POP JUMP JUMPDEST PUSH0 PUSH1 0x20 DUP3 ADD SWAP1 POP PUSH2 0x4A47 PUSH0 DUP4 ADD DUP5 PUSH2 0x4A25 JUMP JUMPDEST SWAP3 SWAP2 POP POP JUMP JUMPDEST PUSH0 PUSH1 0x20 DUP3 DUP5 SUB SLT ISZERO PUSH2 0x4A62 JUMPI PUSH2 0x4A61 PUSH2 0x4636 JUMP JUMPDEST JUMPDEST PUSH0 PUSH2 0x4A6F DUP5 DUP3 DUP6 ADD PUSH2 0x4834 JUMP JUMPDEST SWAP2 POP POP SWAP3 SWAP2 POP POP JUMP JUMPDEST PUSH2 0x4A81 DUP2 PUSH2 0x480D JUMP JUMPDEST DUP3 MSTORE POP POP JUMP JUMPDEST PUSH0 PUSH1 0x20 DUP3 ADD SWAP1 POP PUSH2 0x4A9A PUSH0 DUP4 ADD DUP5 PUSH2 0x4A78 JUMP JUMPDEST SWAP3 SWAP2 POP POP JUMP JUMPDEST PUSH0 PUSH2 0x180 DUP3 ADD SWAP1 POP PUSH2 0x4AB4 PUSH0 DUP4 ADD DUP16 PUSH2 0x46C9 JUMP JUMPDEST PUSH2 0x4AC1 PUSH1 0x20 DUP4 ADD DUP15 PUSH2 0x46C9 JUMP JUMPDEST PUSH2 0x4ACE PUSH1 0x40 DUP4 ADD DUP14 PUSH2 0x46C9 JUMP JUMPDEST PUSH2 0x4ADB PUSH1 0x60 DUP4 ADD DUP13 PUSH2 0x47C6 JUMP JUMPDEST PUSH2 0x4AE8 PUSH1 0x80 DUP4 ADD DUP12 PUSH2 0x47C6 JUMP JUMPDEST PUSH2 0x4AF5 PUSH1 0xA0 DUP4 ADD DUP11 PUSH2 0x47C6 JUMP JUMPDEST PUSH2 0x4B02 PUSH1 0xC0 DUP4 ADD DUP10 PUSH2 0x47C6 JUMP JUMPDEST PUSH2 0x4B0F PUSH1 0xE0 DUP4 ADD DUP9 PUSH2 0x4A78 JUMP JUMPDEST PUSH2 0x4B1D PUSH2 0x100 DUP4 ADD DUP8 PUSH2 0x4A78 JUMP JUMPDEST PUSH2 0x4B2B PUSH2 0x120 DUP4 ADD DUP7 PUSH2 0x4A78 JUMP JUMPDEST PUSH2 0x4B39 PUSH2 0x140 DUP4 ADD DUP6 PUSH2 0x47C6 JUMP JUMPDEST PUSH2 0x4B47 PUSH2 0x160 DUP4 ADD DUP5 PUSH2 0x47C6 JUMP JUMPDEST SWAP14 SWAP13 POP POP POP POP POP POP POP POP POP POP POP POP POP JUMP JUMPDEST PUSH0 DUP2 MLOAD SWAP1 POP SWAP2 SWAP1 POP JUMP JUMPDEST PUSH0 DUP3 DUP3 MSTORE PUSH1 0x20 DUP3 ADD SWAP1 POP SWAP3 SWAP2 POP POP JUMP JUMPDEST DUP3 DUP2 DUP4 MCOPY PUSH0 DUP4 DUP4 ADD MSTORE POP POP POP JUMP JUMPDEST PUSH0 PUSH2 0x4B8A DUP3 PUSH2 0x4B58 JUMP JUMPDEST PUSH2 0x4B94 DUP2 DUP6 PUSH2 0x4B62 JUMP JUMPDEST SWAP4 POP PUSH2 0x4BA4 DUP2 DUP6 PUSH1 0x20 DUP7 ADD PUSH2 0x4B72 JUMP JUMPDEST PUSH2 0x4BAD DUP2 PUSH2 0x488E JUMP JUMPDEST DUP5 ADD SWAP2 POP POP SWAP3 SWAP2 POP POP JUMP JUMPDEST PUSH0 PUSH1 0x20 DUP3 ADD SWAP1 POP DUP2 DUP2 SUB PUSH0 DUP4 ADD MSTORE PUSH2 0x4BD0 DUP2 DUP5 PUSH2 0x4B80 JUMP JUMPDEST SWAP1 POP SWAP3 SWAP2 POP POP JUMP JUMPDEST PUSH0 PUSH8 0xFFFFFFFFFFFFFFFF DUP3 GT ISZERO PUSH2 0x4BF2 JUMPI PUSH2 0x4BF1 PUSH2 0x489E JUMP JUMPDEST JUMPDEST PUSH1 0x20 DUP3 MUL SWAP1 POP PUSH1 0x20 DUP2 ADD SWAP1 POP SWAP2 SWAP1 POP JUMP JUMPDEST PUSH0 DUP1 REVERT JUMPDEST PUSH0 PUSH2 0x4C19 PUSH2 0x4C14 DUP5 PUSH2 0x4BD8 JUMP JUMPDEST PUSH2 0x48FC JUMP JUMPDEST SWAP1 POP DUP1 DUP4 DUP3 MSTORE PUSH1 0x20 DUP3 ADD SWAP1 POP PUSH1 0x20 DUP5 MUL DUP4 ADD DUP6 DUP2 GT ISZERO PUSH2 0x4C3C JUMPI PUSH2 0x4C3B PUSH2 0x4C03 JUMP JUMPDEST JUMPDEST DUP4 JUMPDEST DUP2 DUP2 LT ISZERO PUSH2 0x4C65 JUMPI DUP1 PUSH2 0x4C51 DUP9 DUP3 PUSH2 0x4710 JUMP JUMPDEST DUP5 MSTORE PUSH1 0x20 DUP5 ADD SWAP4 POP POP PUSH1 0x20 DUP2 ADD SWAP1 POP PUSH2 0x4C3E JUMP JUMPDEST POP POP POP SWAP4 SWAP3 POP POP POP JUMP JUMPDEST PUSH0 DUP3 PUSH1 0x1F DUP4 ADD SLT PUSH2 0x4C83 JUMPI PUSH2 0x4C82 PUSH2 0x4886 JUMP JUMPDEST JUMPDEST DUP2 CALLDATALOAD PUSH2 0x4C93 DUP5 DUP3 PUSH1 0x20 DUP7 ADD PUSH2 0x4C07 JUMP JUMPDEST SWAP2 POP POP SWAP3 SWAP2 POP POP JUMP JUMPDEST PUSH0 DUP1 PUSH0 DUP1 PUSH0 PUSH1 0xA0 DUP7 DUP9 SUB SLT ISZERO PUSH2 0x4CB5 JUMPI PUSH2 0x4CB4 PUSH2 0x4636 JUMP JUMPDEST JUMPDEST PUSH0 PUSH2 0x4CC2 DUP9 DUP3 DUP10 ADD PUSH2 0x4834 JUMP JUMPDEST SWAP6 POP POP PUSH1 0x20 PUSH2 0x4CD3 DUP9 DUP3 DUP10 ADD PUSH2 0x4834 JUMP JUMPDEST SWAP5 POP POP PUSH1 0x40 DUP7 ADD CALLDATALOAD PUSH8 0xFFFFFFFFFFFFFFFF DUP2 GT ISZERO PUSH2 0x4CF4 JUMPI PUSH2 0x4CF3 PUSH2 0x463A JUMP JUMPDEST JUMPDEST PUSH2 0x4D00 DUP9 DUP3 DUP10 ADD PUSH2 0x4C6F JUMP JUMPDEST SWAP4 POP POP PUSH1 0x60 DUP7 ADD CALLDATALOAD PUSH8 0xFFFFFFFFFFFFFFFF DUP2 GT ISZERO PUSH2 0x4D21 JUMPI PUSH2 0x4D20 PUSH2 0x463A JUMP JUMPDEST JUMPDEST PUSH2 0x4D2D DUP9 DUP3 DUP10 ADD PUSH2 0x4C6F JUMP JUMPDEST SWAP3 POP POP PUSH1 0x80 DUP7 ADD CALLDATALOAD PUSH8 0xFFFFFFFFFFFFFFFF DUP2 GT ISZERO PUSH2 0x4D4E JUMPI PUSH2 0x4D4D PUSH2 0x463A JUMP JUMPDEST JUMPDEST PUSH2 0x4D5A DUP9 DUP3 DUP10 ADD PUSH2 0x4995 JUMP JUMPDEST SWAP2 POP POP SWAP3 SWAP6 POP SWAP3 SWAP6 SWAP1 SWAP4 POP JUMP JUMPDEST PUSH2 0x4D70 DUP2 PUSH2 0x463E JUMP JUMPDEST DUP3 MSTORE POP POP JUMP JUMPDEST PUSH0 PUSH1 0x20 DUP3 ADD SWAP1 POP PUSH2 0x4D89 PUSH0 DUP4 ADD DUP5 PUSH2 0x4D67 JUMP JUMPDEST SWAP3 SWAP2 POP POP JUMP JUMPDEST PUSH0 DUP2 SWAP1 POP SWAP2 SWAP1 POP JUMP JUMPDEST PUSH0 PUSH2 0x4DB2 PUSH2 0x4DAD PUSH2 0x4DA8 DUP5 PUSH2 0x47EE JUMP JUMPDEST PUSH2 0x4D8F JUMP JUMPDEST PUSH2 0x47EE JUMP JUMPDEST SWAP1 POP SWAP2 SWAP1 POP JUMP JUMPDEST PUSH0 PUSH2 0x4DC3 DUP3 PUSH2 0x4D98 JUMP JUMPDEST SWAP1 POP SWAP2 SWAP1 POP JUMP JUMPDEST PUSH0 PUSH2 0x4DD4 DUP3 PUSH2 0x4DB9 JUMP JUMPDEST SWAP1 POP SWAP2 SWAP1 POP JUMP JUMPDEST PUSH2 0x4DE4 DUP2 PUSH2 0x4DCA JUMP JUMPDEST DUP3 MSTORE POP POP JUMP JUMPDEST PUSH0 PUSH1 0x20 DUP3 ADD SWAP1 POP PUSH2 0x4DFD PUSH0 DUP4 ADD DUP5 PUSH2 0x4DDB JUMP JUMPDEST SWAP3 SWAP2 POP POP JUMP JUMPDEST PUSH0 DUP1 PUSH0 DUP1 PUSH0 DUP1 PUSH0 DUP1 PUSH2 0x100 DUP10 DUP12 SUB SLT ISZERO PUSH2 0x4E20 JUMPI PUSH2 0x4E1F PUSH2 0x4636 JUMP JUMPDEST JUMPDEST PUSH0 PUSH2 0x4E2D DUP12 DUP3 DUP13 ADD PUSH2 0x4710 JUMP JUMPDEST SWAP9 POP POP PUSH1 0x20 PUSH2 0x4E3E DUP12 DUP3 DUP13 ADD PUSH2 0x4710 JUMP JUMPDEST SWAP8 POP POP PUSH1 0x40 PUSH2 0x4E4F DUP12 DUP3 DUP13 ADD PUSH2 0x4710 JUMP JUMPDEST SWAP7 POP POP PUSH1 0x60 PUSH2 0x4E60 DUP12 DUP3 DUP13 ADD PUSH2 0x4710 JUMP JUMPDEST SWAP6 POP POP PUSH1 0x80 PUSH2 0x4E71 DUP12 DUP3 DUP13 ADD PUSH2 0x4710 JUMP JUMPDEST SWAP5 POP POP PUSH1 0xA0 PUSH2 0x4E82 DUP12 DUP3 DUP13 ADD PUSH2 0x4834 JUMP JUMPDEST SWAP4 POP POP PUSH1 0xC0 PUSH2 0x4E93 DUP12 DUP3 DUP13 ADD PUSH2 0x4710 JUMP JUMPDEST SWAP3 POP POP PUSH1 0xE0 PUSH2 0x4EA4 DUP12 DUP3 DUP13 ADD PUSH2 0x4834 JUMP JUMPDEST SWAP2 POP POP SWAP3 SWAP6 SWAP9 POP SWAP3 SWAP6 SWAP9 SWAP1 SWAP4 SWAP7 POP JUMP JUMPDEST PUSH0 PUSH8 0xFFFFFFFFFFFFFFFF DUP3 GT ISZERO PUSH2 0x4ECE JUMPI PUSH2 0x4ECD PUSH2 0x489E JUMP JUMPDEST JUMPDEST PUSH1 0x20 DUP3 MUL SWAP1 POP PUSH1 0x20 DUP2 ADD SWAP1 POP SWAP2 SWAP1 POP JUMP JUMPDEST PUSH0 PUSH2 0x4EF1 PUSH2 0x4EEC DUP5 PUSH2 0x4EB4 JUMP JUMPDEST PUSH2 0x48FC JUMP JUMPDEST SWAP1 POP DUP1 DUP4 DUP3 MSTORE PUSH1 0x20 DUP3 ADD SWAP1 POP PUSH1 0x20 DUP5 MUL DUP4 ADD DUP6 DUP2 GT ISZERO PUSH2 0x4F14 JUMPI PUSH2 0x4F13 PUSH2 0x4C03 JUMP JUMPDEST JUMPDEST DUP4 JUMPDEST DUP2 DUP2 LT ISZERO PUSH2 0x4F3D JUMPI DUP1 PUSH2 0x4F29 DUP9 DUP3 PUSH2 0x4834 JUMP JUMPDEST DUP5 MSTORE PUSH1 0x20 DUP5 ADD SWAP4 POP POP PUSH1 0x20 DUP2 ADD SWAP1 POP PUSH2 0x4F16 JUMP JUMPDEST POP POP POP SWAP4 SWAP3 POP POP POP JUMP JUMPDEST PUSH0 DUP3 PUSH1 0x1F DUP4 ADD SLT PUSH2 0x4F5B JUMPI PUSH2 0x4F5A PUSH2 0x4886 JUMP JUMPDEST JUMPDEST DUP2 CALLDATALOAD PUSH2 0x4F6B DUP5 DUP3 PUSH1 0x20 DUP7 ADD PUSH2 0x4EDF JUMP JUMPDEST SWAP2 POP POP SWAP3 SWAP2 POP POP JUMP JUMPDEST PUSH0 DUP1 PUSH0 DUP1 PUSH0 DUP1 PUSH0 DUP1 PUSH0 PUSH2 0x120 DUP11 DUP13 SUB SLT ISZERO PUSH2 0x4F92 JUMPI PUSH2 0x4F91 PUSH2 0x4636 JUMP JUMPDEST JUMPDEST PUSH0 PUSH2 0x4F9F DUP13 DUP3 DUP14 ADD PUSH2 0x4710 JUMP JUMPDEST SWAP10 POP POP PUSH1 0x20 PUSH2 0x4FB0 DUP13 DUP3 DUP14 ADD PUSH2 0x4710 JUMP JUMPDEST SWAP9 POP POP PUSH1 0x40 PUSH2 0x4FC1 DUP13 DUP3 DUP14 ADD PUSH2 0x4710 JUMP JUMPDEST SWAP8 POP POP PUSH1 0x60 PUSH2 0x4FD2 DUP13 DUP3 DUP14 ADD PUSH2 0x4710 JUMP JUMPDEST SWAP7 POP POP PUSH1 0x80 PUSH2 0x4FE3 DUP13 DUP3 DUP14 ADD PUSH2 0x4710 JUMP JUMPDEST SWAP6 POP POP PUSH1 0xA0 PUSH2 0x4FF4 DUP13 DUP3 DUP14 ADD PUSH2 0x4710 JUMP JUMPDEST SWAP5 POP POP PUSH1 0xC0 PUSH2 0x5005 DUP13 DUP3 DUP14 ADD PUSH2 0x4834 JUMP JUMPDEST SWAP4 POP POP PUSH1 0xE0 DUP11 ADD CALLDATALOAD PUSH8 0xFFFFFFFFFFFFFFFF DUP2 GT ISZERO PUSH2 0x5026 JUMPI PUSH2 0x5025 PUSH2 0x463A JUMP JUMPDEST JUMPDEST PUSH2 0x5032 DUP13 DUP3 DUP14 ADD PUSH2 0x4F47 JUMP JUMPDEST SWAP3 POP POP PUSH2 0x100 DUP11 ADD CALLDATALOAD PUSH8 0xFFFFFFFFFFFFFFFF DUP2 GT ISZERO PUSH2 0x5054 JUMPI PUSH2 0x5053 PUSH2 0x463A JUMP JUMPDEST JUMPDEST PUSH2 0x5060 DUP13 DUP3 DUP14 ADD PUSH2 0x4C6F JUMP JUMPDEST SWAP2 POP POP SWAP3 SWAP6 SWAP9 POP SWAP3 SWAP6 SWAP9 POP SWAP3 SWAP6 SWAP9 JUMP JUMPDEST PUSH0 DUP1 PUSH0 DUP1 PUSH0 PUSH1 0xA0 DUP7 DUP9 SUB SLT ISZERO PUSH2 0x5089 JUMPI PUSH2 0x5088 PUSH2 0x4636 JUMP JUMPDEST JUMPDEST PUSH0 PUSH2 0x5096 DUP9 DUP3 DUP10 ADD PUSH2 0x4834 JUMP JUMPDEST SWAP6 POP POP PUSH1 0x20 PUSH2 0x50A7 DUP9 DUP3 DUP10 ADD PUSH2 0x4834 JUMP JUMPDEST SWAP5 POP POP PUSH1 0x40 PUSH2 0x50B8 DUP9 DUP3 DUP10 ADD PUSH2 0x4710 JUMP JUMPDEST SWAP4 POP POP PUSH1 0x60 PUSH2 0x50C9 DUP9 DUP3 DUP10 ADD PUSH2 0x4710 JUMP JUMPDEST SWAP3 POP POP PUSH1 0x80 DUP7 ADD CALLDATALOAD PUSH8 0xFFFFFFFFFFFFFFFF DUP2 GT ISZERO PUSH2 0x50EA JUMPI PUSH2 0x50E9 PUSH2 0x463A JUMP JUMPDEST JUMPDEST PUSH2 0x50F6 DUP9 DUP3 DUP10 ADD PUSH2 0x4995 JUMP JUMPDEST SWAP2 POP POP SWAP3 SWAP6 POP SWAP3 SWAP6 SWAP1 SWAP4 POP JUMP JUMPDEST PUSH0 PUSH1 0x40 DUP3 ADD SWAP1 POP PUSH2 0x5116 PUSH0 DUP4 ADD DUP6 PUSH2 0x4A78 JUMP JUMPDEST PUSH2 0x5123 PUSH1 0x20 DUP4 ADD DUP5 PUSH2 0x47C6 JUMP JUMPDEST SWAP4 SWAP3 POP POP POP JUMP JUMPDEST PUSH0 PUSH1 0x40 DUP3 ADD SWAP1 POP PUSH2 0x513D PUSH0 DUP4 ADD DUP6 PUSH2 0x47C6 JUMP JUMPDEST PUSH2 0x514A PUSH1 0x20 DUP4 ADD DUP5 PUSH2 0x4A78 JUMP JUMPDEST SWAP4 SWAP3 POP POP POP JUMP JUMPDEST PUSH0 PUSH1 0x40 DUP3 ADD SWAP1 POP PUSH2 0x5164 PUSH0 DUP4 ADD DUP6 PUSH2 0x47C6 JUMP JUMPDEST PUSH2 0x5171 PUSH1 0x20 DUP4 ADD DUP5 PUSH2 0x47C6 JUMP JUMPDEST SWAP4 SWAP3 POP POP POP JUMP JUMPDEST PUSH0 PUSH1 0x60 DUP3 ADD SWAP1 POP PUSH2 0x518B PUSH0 DUP4 ADD DUP7 PUSH2 0x47C6 JUMP JUMPDEST PUSH2 0x5198 PUSH1 0x20 DUP4 ADD DUP6 PUSH2 0x47C6 JUMP JUMPDEST PUSH2 0x51A5 PUSH1 0x40 DUP4 ADD DUP5 PUSH2 0x47C6 JUMP JUMPDEST SWAP5 SWAP4 POP POP POP POP JUMP JUMPDEST PUSH0 DUP2 SWAP1 POP SWAP2 SWAP1 POP JUMP JUMPDEST PUSH0 PUSH8 0xFFFFFFFFFFFFFFFF DUP3 AND SWAP1 POP SWAP2 SWAP1 POP JUMP JUMPDEST PUSH0 PUSH2 0x51E3 PUSH2 0x51DE PUSH2 0x51D9 DUP5 PUSH2 0x51AD JUMP JUMPDEST PUSH2 0x4D8F JUMP JUMPDEST PUSH2 0x51B6 JUMP JUMPDEST SWAP1 POP SWAP2 SWAP1 POP JUMP JUMPDEST PUSH2 0x51F3 DUP2 PUSH2 0x51C9 JUMP JUMPDEST DUP3 MSTORE POP POP JUMP JUMPDEST PUSH0 PUSH1 0x20 DUP3 ADD SWAP1 POP PUSH2 0x520C PUSH0 DUP4 ADD DUP5 PUSH2 0x51EA JUMP JUMPDEST SWAP3 SWAP2 POP POP JUMP JUMPDEST PUSH2 0x521B DUP2 PUSH2 0x46BE JUMP JUMPDEST DUP2 EQ PUSH2 0x5225 JUMPI PUSH0 DUP1 REVERT JUMPDEST POP JUMP JUMPDEST PUSH0 DUP2 MLOAD SWAP1 POP PUSH2 0x5236 DUP2 PUSH2 0x5212 JUMP JUMPDEST SWAP3 SWAP2 POP POP JUMP JUMPDEST PUSH0 DUP2 MLOAD SWAP1 POP PUSH2 0x524A DUP2 PUSH2 0x46FA JUMP JUMPDEST SWAP3 SWAP2 POP POP JUMP JUMPDEST PUSH0 DUP2 MLOAD SWAP1 POP PUSH2 0x525E DUP2 PUSH2 0x481E JUMP JUMPDEST SWAP3 SWAP2 POP POP JUMP JUMPDEST PUSH0 DUP1 PUSH0 DUP1 PUSH1 0x80 DUP6 DUP8 SUB SLT ISZERO PUSH2 0x527C JUMPI PUSH2 0x527B PUSH2 0x4636 JUMP JUMPDEST JUMPDEST PUSH0 PUSH2 0x5289 DUP8 DUP3 DUP9 ADD PUSH2 0x5228 JUMP JUMPDEST SWAP5 POP POP PUSH1 0x20 PUSH2 0x529A DUP8 DUP3 DUP9 ADD PUSH2 0x523C JUMP JUMPDEST SWAP4 POP POP PUSH1 0x40 PUSH2 0x52AB DUP8 DUP3 DUP9 ADD PUSH2 0x5250 JUMP JUMPDEST SWAP3 POP POP PUSH1 0x60 PUSH2 0x52BC DUP8 DUP3 DUP9 ADD PUSH2 0x5250 JUMP JUMPDEST SWAP2 POP POP SWAP3 SWAP6 SWAP2 SWAP5 POP SWAP3 POP JUMP JUMPDEST PUSH32 0x4E487B7100000000000000000000000000000000000000000000000000000000 PUSH0 MSTORE PUSH1 0x11 PUSH1 0x4 MSTORE PUSH1 0x24 PUSH0 REVERT JUMPDEST PUSH0 PUSH2 0x52FF DUP3 PUSH2 0x46F1 JUMP JUMPDEST SWAP2 POP PUSH2 0x530A DUP4 PUSH2 0x46F1 JUMP JUMPDEST SWAP3 POP DUP3 DUP3 ADD SWAP1 POP DUP1 DUP3 GT ISZERO PUSH2 0x5322 JUMPI PUSH2 0x5321 PUSH2 0x52C8 JUMP JUMPDEST JUMPDEST SWAP3 SWAP2 POP POP JUMP JUMPDEST PUSH0 PUSH2 0x5332 DUP3 PUSH2 0x46F1 JUMP JUMPDEST SWAP2 POP PUSH2 0x533D DUP4 PUSH2 0x46F1 JUMP JUMPDEST SWAP3 POP DUP3 DUP3 SUB SWAP1 POP DUP2 DUP2 GT ISZERO PUSH2 0x5355 JUMPI PUSH2 0x5354 PUSH2 0x52C8 JUMP JUMPDEST JUMPDEST SWAP3 SWAP2 POP POP JUMP JUMPDEST PUSH0 PUSH1 0x60 DUP3 ADD SWAP1 POP PUSH2 0x536E PUSH0 DUP4 ADD DUP7 PUSH2 0x4A78 JUMP JUMPDEST PUSH2 0x537B PUSH1 0x20 DUP4 ADD DUP6 PUSH2 0x4A78 JUMP JUMPDEST PUSH2 0x5388 PUSH1 0x40 DUP4 ADD DUP5 PUSH2 0x47C6 JUMP JUMPDEST SWAP5 SWAP4 POP POP POP POP JUMP JUMPDEST PUSH0 PUSH1 0x60 DUP3 ADD SWAP1 POP PUSH2 0x53A3 PUSH0 DUP4 ADD DUP7 PUSH2 0x4A78 JUMP JUMPDEST PUSH2 0x53B0 PUSH1 0x20 DUP4 ADD DUP6 PUSH2 0x47C6 JUMP JUMPDEST PUSH2 0x53BD PUSH1 0x40 DUP4 ADD DUP5 PUSH2 0x47C6 JUMP JUMPDEST SWAP5 SWAP4 POP POP POP POP JUMP JUMPDEST PUSH0 PUSH2 0x53CF DUP3 PUSH2 0x46F1 JUMP JUMPDEST SWAP2 POP PUSH32 0xFFFFFFFFFFFFFFFFFFFFFFFFFFFFFFFFFFFFFFFFFFFFFFFFFFFFFFFFFFFFFFFF DUP3 SUB PUSH2 0x5401 JUMPI PUSH2 0x5400 PUSH2 0x52C8 JUMP JUMPDEST JUMPDEST PUSH1 0x1 DUP3 ADD SWAP1 POP SWAP2 SWAP1 POP JUMP JUMPDEST PUSH0 PUSH1 0x80 DUP3 ADD SWAP1 POP PUSH2 0x541F PUSH0 DUP4 ADD DUP8 PUSH2 0x47C6 JUMP JUMPDEST PUSH2 0x542C PUSH1 0x20 DUP4 ADD DUP7 PUSH2 0x47C6 JUMP JUMPDEST PUSH2 0x5439 PUSH1 0x40 DUP4 ADD DUP6 PUSH2 0x47C6 JUMP JUMPDEST PUSH2 0x5446 PUSH1 0x60 DUP4 ADD DUP5 PUSH2 0x47C6 JUMP JUMPDEST SWAP6 SWAP5 POP POP POP POP POP JUMP JUMPDEST PUSH32 0x4E487B7100000000000000000000000000000000000000000000000000000000 PUSH0 MSTORE PUSH1 0x32 PUSH1 0x4 MSTORE PUSH1 0x24 PUSH0 REVERT JUMPDEST PUSH0 PUSH1 0x60 DUP3 ADD SWAP1 POP PUSH2 0x548F PUSH0 DUP4 ADD DUP7 PUSH2 0x4A78 JUMP JUMPDEST PUSH2 0x549C PUSH1 0x20 DUP4 ADD DUP6 PUSH2 0x47C6 JUMP JUMPDEST PUSH2 0x54A9 PUSH1 0x40 DUP4 ADD DUP5 PUSH2 0x46C9 JUMP JUMPDEST SWAP5 SWAP4 POP POP POP POP JUMP JUMPDEST PUSH0 PUSH2 0x54BB DUP3 PUSH2 0x46F1 JUMP JUMPDEST SWAP2 POP PUSH2 0x54C6 DUP4 PUSH2 0x46F1 JUMP JUMPDEST SWAP3 POP DUP3 DUP3 MUL PUSH2 0x54D4 DUP2 PUSH2 0x46F1 JUMP JUMPDEST SWAP2 POP DUP3 DUP3 DIV DUP5 EQ DUP4 ISZERO OR PUSH2 0x54EB JUMPI PUSH2 0x54EA PUSH2 0x52C8 JUMP JUMPDEST JUMPDEST POP SWAP3 SWAP2 POP POP JUMP JUMPDEST PUSH32 0x4E487B7100000000000000000000000000000000000000000000000000000000 PUSH0 MSTORE PUSH1 0x12 PUSH1 0x4 MSTORE PUSH1 0x24 PUSH0 REVERT JUMPDEST PUSH0 PUSH2 0x5529 DUP3 PUSH2 0x46F1 JUMP JUMPDEST SWAP2 POP PUSH2 0x5534 DUP4 PUSH2 0x46F1 JUMP JUMPDEST SWAP3 POP DUP3 PUSH2 0x5544 JUMPI PUSH2 0x5543 PUSH2 0x54F2 JUMP JUMPDEST JUMPDEST DUP3 DUP3 DIV SWAP1 POP SWAP3 SWAP2 POP POP JUMP JUMPDEST PUSH0 DUP1 PUSH1 0x40 DUP4 DUP6 SUB SLT ISZERO PUSH2 0x5565 JUMPI PUSH2 0x5564 PUSH2 0x4636 JUMP JUMPDEST JUMPDEST PUSH0 PUSH2 0x5572 DUP6 DUP3 DUP7 ADD PUSH2 0x523C JUMP JUMPDEST SWAP3 POP POP PUSH1 0x20 PUSH2 0x5583 DUP6 DUP3 DUP7 ADD PUSH2 0x5250 JUMP JUMPDEST SWAP2 POP POP SWAP3 POP SWAP3 SWAP1 POP JUMP JUMPDEST PUSH0 DUP2 SWAP1 POP SWAP3 SWAP2 POP POP JUMP JUMPDEST POP JUMP JUMPDEST PUSH0 PUSH2 0x55A5 PUSH0 DUP4 PUSH2 0x558D JUMP JUMPDEST SWAP2 POP PUSH2 0x55B0 DUP3 PUSH2 0x5597 JUMP JUMPDEST PUSH0 DUP3 ADD SWAP1 POP SWAP2 SWAP1 POP JUMP JUMPDEST PUSH0 PUSH2 0x55C4 DUP3 PUSH2 0x559A JUMP JUMPDEST SWAP2 POP DUP2 SWAP1 POP SWAP2 SWAP1 POP JUMP JUMPDEST PUSH0 DUP3 DUP3 MSTORE PUSH1 0x20 DUP3 ADD SWAP1 POP SWAP3 SWAP2 POP POP JUMP JUMPDEST PUSH32 0x3078303000000000000000000000000000000000000000000000000000000000 PUSH0 DUP3 ADD MSTORE POP JUMP JUMPDEST PUSH0 PUSH2 0x5612 PUSH1 0x4 DUP4 PUSH2 0x55CE JUMP JUMPDEST SWAP2 POP PUSH2 0x561D DUP3 PUSH2 0x55DE JUMP JUMPDEST PUSH1 0x20 DUP3 ADD SWAP1 POP SWAP2 SWAP1 POP JUMP JUMPDEST PUSH0 PUSH1 0xA0 DUP3 ADD SWAP1 POP PUSH2 0x563B PUSH0 DUP4 ADD DUP8 PUSH2 0x4A78 JUMP JUMPDEST PUSH2 0x5648 PUSH1 0x20 DUP4 ADD DUP7 PUSH2 0x4A78 JUMP JUMPDEST PUSH2 0x5655 PUSH1 0x40 DUP4 ADD DUP6 PUSH2 0x47C6 JUMP JUMPDEST PUSH2 0x5662 PUSH1 0x60 DUP4 ADD DUP5 PUSH2 0x47C6 JUMP JUMPDEST DUP2 DUP2 SUB PUSH1 0x80 DUP4 ADD MSTORE PUSH2 0x5673 DUP2 PUSH2 0x5606 JUMP JUMPDEST SWAP1 POP SWAP6 SWAP5 POP POP POP POP POP JUMP JUMPDEST PUSH2 0x5687 DUP2 PUSH2 0x4A1C JUMP JUMPDEST DUP2 EQ PUSH2 0x5691 JUMPI PUSH0 DUP1 REVERT JUMPDEST POP JUMP JUMPDEST PUSH0 DUP2 MLOAD SWAP1 POP PUSH2 0x56A2 DUP2 PUSH2 0x567E JUMP JUMPDEST SWAP3 SWAP2 POP POP JUMP JUMPDEST PUSH0 PUSH1 0x20 DUP3 DUP5 SUB SLT ISZERO PUSH2 0x56BD JUMPI PUSH2 0x56BC PUSH2 0x4636 JUMP JUMPDEST JUMPDEST PUSH0 PUSH2 0x56CA DUP5 DUP3 DUP6 ADD PUSH2 0x5694 JUMP JUMPDEST SWAP2 POP POP SWAP3 SWAP2 POP POP JUMP JUMPDEST PUSH0 DUP2 MLOAD SWAP1 POP SWAP2 SWAP1 POP JUMP JUMPDEST PUSH0 PUSH2 0x56E7 DUP3 PUSH2 0x56D3 JUMP JUMPDEST PUSH2 0x56F1 DUP2 DUP6 PUSH2 0x558D JUMP JUMPDEST SWAP4 POP PUSH2 0x5701 DUP2 DUP6 PUSH1 0x20 DUP7 ADD PUSH2 0x4B72 JUMP JUMPDEST DUP1 DUP5 ADD SWAP2 POP POP SWAP3 SWAP2 POP POP JUMP JUMPDEST PUSH0 PUSH2 0x5718 DUP3 DUP5 PUSH2 0x56DD JUMP JUMPDEST SWAP2 POP DUP2 SWAP1 POP SWAP3 SWAP2 POP POP JUMP INVALID LOG2 PUSH5 0x6970667358 0x22 SLT KECCAK256 GAS 0xA6 0xE2 0x22 LOG4 EXTCODESIZE STATICCALL SWAP13 BALANCE MLOAD BALANCE DELEGATECALL 0xA9 SWAP9 DUP5 0xD6 0x24 STOP LOG3 STATICCALL LOG3 PUSH26 0x5D4005D536F50E6F164564736F6C634300081A00330000000000 "
		},
		"gasEstimates": {
			"creation": {
				"codeDepositCost": "4472200",
				"executionCost": "infinite",
				"totalCost": "infinite"
			},
			"external": {
				"BuyFixedPriceItem(uint256)": "infinite",
				"UPGRADE_INTERFACE_VERSION()": "infinite",
				"adminFeePercentage()": "2536",
				"cancellListingForlist(uint256)": "infinite",
				"defaultFiscalFee(address)": "2869",
				"donationInfo(uint256)": "infinite",
				"editList(uint256,uint256,uint256,uint256,uint256)": "infinite",
				"endAuction(uint256)": "infinite",
				"initialize(address,address)": "infinite",
				"listForOrganizations(uint256,uint256,uint256,uint256,uint256,address,uint256,address)": "infinite",
				"listForUsers(uint256,uint256,uint256,uint256,uint256,uint256,address,address[],uint256[])": "infinite",
				"listId()": "2492",
				"listing(uint256)": "infinite",
				"mintingContract()": "infinite",
				"mintingContractAddress()": "2597",
				"onERC1155BatchReceived(address,address,uint256[],uint256[],bytes)": "infinite",
				"onERC1155Received(address,address,uint256,uint256,bytes)": "infinite",
				"owner()": "2612",
				"proxiableUUID()": "infinite",
				"renounceOwnership()": "infinite",
				"setFiscalSponsorPercentage(uint256)": "infinite",
				"setPlatFormServiceFeePercentage(uint256)": "infinite",
				"startBid(uint256)": "infinite",
				"supportsInterface(bytes4)": "741",
				"transferOwnership(address)": "infinite",
				"upgradeToAndCall(address,bytes)": "infinite"
			},
			"internal": {
				"_authorizeUpgrade(address)": "infinite",
				"calulateFee(uint256,uint256)": "infinite",
				"donationFeeTransfer(uint256)": "infinite",
				"sendFiscalFee(uint256,address,uint256)": "infinite",
				"sendRoyalityFee(uint256)": "infinite",
				"setCancelList(uint256)": "122929",
				"setDonationInfo(uint256,address[] memory,uint256[] memory)": "infinite",
				"setListingInfo(uint256,uint256,uint256,uint256,uint256,address,uint256)": "infinite",
				"setMintingAddress(uint256,uint256,uint256,address)": "infinite",
				"transferFundsInEth(address payable,uint256)": "infinite",
				"transferNft(address,address,address,uint256,uint256)": "infinite"
			}
		},
		"methodIdentifiers": {
			"BuyFixedPriceItem(uint256)": "4c205bc9",
			"UPGRADE_INTERFACE_VERSION()": "ad3cb1cc",
			"adminFeePercentage()": "831490f9",
			"cancellListingForlist(uint256)": "ee229f7e",
			"defaultFiscalFee(address)": "7cfd3e18",
			"donationInfo(uint256)": "3d6c0507",
			"editList(uint256,uint256,uint256,uint256,uint256)": "2c0bc695",
			"endAuction(uint256)": "b9a2de3a",
			"initialize(address,address)": "485cc955",
			"listForOrganizations(uint256,uint256,uint256,uint256,uint256,address,uint256,address)": "e30ec386",
			"listForUsers(uint256,uint256,uint256,uint256,uint256,uint256,address,address[],uint256[])": "eafa4039",
			"listId()": "9e898e58",
			"listing(uint256)": "84a184de",
			"mintingContract()": "d2f6f67d",
			"mintingContractAddress()": "824563f6",
			"onERC1155BatchReceived(address,address,uint256[],uint256[],bytes)": "bc197c81",
			"onERC1155Received(address,address,uint256,uint256,bytes)": "f23a6e61",
			"owner()": "8da5cb5b",
			"proxiableUUID()": "52d1902d",
			"renounceOwnership()": "715018a6",
			"setFiscalSponsorPercentage(uint256)": "03c32aa9",
			"setPlatFormServiceFeePercentage(uint256)": "20edda38",
			"startBid(uint256)": "bea7d6e9",
			"supportsInterface(bytes4)": "01ffc9a7",
			"transferOwnership(address)": "f2fde38b",
			"upgradeToAndCall(address,bytes)": "4f1ef286"
		}
	},
	"abi": [
		{
			"inputs": [],
			"stateMutability": "nonpayable",
			"type": "constructor"
		},
		{
			"inputs": [
				{
					"internalType": "address",
					"name": "target",
					"type": "address"
				}
			],
			"name": "AddressEmptyCode",
			"type": "error"
		},
		{
			"inputs": [
				{
					"internalType": "address",
					"name": "implementation",
					"type": "address"
				}
			],
			"name": "ERC1967InvalidImplementation",
			"type": "error"
		},
		{
			"inputs": [],
			"name": "ERC1967NonPayable",
			"type": "error"
		},
		{
			"inputs": [],
			"name": "FailedInnerCall",
			"type": "error"
		},
		{
			"inputs": [],
			"name": "InvalidInitialization",
			"type": "error"
		},
		{
			"inputs": [
				{
					"internalType": "uint256",
					"name": "servicePercentage",
					"type": "uint256"
				}
			],
			"name": "InvalidServiceFeePercentage",
			"type": "error"
		},
		{
			"inputs": [
				{
					"internalType": "address",
					"name": "callingAddress",
					"type": "address"
				}
			],
			"name": "NotAuthorizedError",
			"type": "error"
		},
		{
			"inputs": [],
			"name": "NotInitializing",
			"type": "error"
		},
		{
			"inputs": [
				{
					"internalType": "address",
					"name": "owner",
					"type": "address"
				}
			],
			"name": "OwnableInvalidOwner",
			"type": "error"
		},
		{
			"inputs": [
				{
					"internalType": "address",
					"name": "account",
					"type": "address"
				}
			],
			"name": "OwnableUnauthorizedAccount",
			"type": "error"
		},
		{
			"inputs": [],
			"name": "UUPSUnauthorizedCallContext",
			"type": "error"
		},
		{
			"inputs": [
				{
					"internalType": "bytes32",
					"name": "slot",
					"type": "bytes32"
				}
			],
			"name": "UUPSUnsupportedProxiableUUID",
			"type": "error"
		},
		{
			"inputs": [
				{
					"internalType": "bool",
					"name": "claimed",
					"type": "bool"
				}
			],
			"name": "alreadyClaimed",
			"type": "error"
		},
		{
			"inputs": [
				{
					"internalType": "address",
					"name": "newOwner",
					"type": "address"
				}
			],
			"name": "bidStarted",
			"type": "error"
		},
		{
			"inputs": [
				{
					"internalType": "uint256",
					"name": "initialPrice",
					"type": "uint256"
				}
			],
			"name": "initialPriceZero",
			"type": "error"
		},
		{
			"inputs": [
				{
					"internalType": "uint256",
					"name": "donationPercentage",
					"type": "uint256"
				}
			],
			"name": "invalidDonationPercentage",
			"type": "error"
		},
		{
			"inputs": [
				{
					"internalType": "uint256",
					"name": "fee",
					"type": "uint256"
				}
			],
			"name": "invalidFee",
			"type": "error"
		},
		{
			"inputs": [
				{
					"internalType": "uint256",
					"name": "fiscalFee",
					"type": "uint256"
				}
			],
			"name": "invalidFiscalPercentage",
			"type": "error"
		},
		{
			"inputs": [
				{
					"internalType": "uint256",
					"name": "startTime",
					"type": "uint256"
				},
				{
					"internalType": "uint256",
					"name": "endTime",
					"type": "uint256"
				}
			],
			"name": "invalidTimeStamp",
			"type": "error"
		},
		{
			"inputs": [
				{
					"internalType": "uint256",
					"name": "organizationLength",
					"type": "uint256"
				},
				{
					"internalType": "uint256",
					"name": "percentagesLength",
					"type": "uint256"
				}
			],
			"name": "lengthDontMatch",
			"type": "error"
		},
		{
			"inputs": [
				{
					"internalType": "bool",
					"name": "listed",
					"type": "bool"
				}
			],
			"name": "notListed",
			"type": "error"
		},
		{
			"inputs": [
				{
					"internalType": "bool",
					"name": "onAuction",
					"type": "bool"
				}
			],
			"name": "onAuction",
			"type": "error"
		},
		{
			"inputs": [
				{
					"internalType": "bool",
					"name": "onfixedPrice",
					"type": "bool"
				}
			],
			"name": "onFixedPrice",
			"type": "error"
		},
		{
			"inputs": [
				{
					"internalType": "address",
					"name": "owner",
					"type": "address"
				}
			],
			"name": "ownerCantBuy",
			"type": "error"
		},
		{
			"inputs": [
				{
					"internalType": "bool",
					"name": "selected",
					"type": "bool"
				}
			],
			"name": "selectOrganization",
			"type": "error"
		},
		{
			"inputs": [
				{
					"internalType": "bool",
					"name": "transfer",
					"type": "bool"
				}
			],
			"name": "transferFailed",
			"type": "error"
		},
		{
			"inputs": [
				{
					"internalType": "uint256",
					"name": "organizationLength",
					"type": "uint256"
				}
			],
			"name": "worngOrganizationlength",
			"type": "error"
		},
		{
			"inputs": [
				{
					"internalType": "address",
					"name": "contractAddres",
					"type": "address"
				}
			],
			"name": "wrongAddress",
			"type": "error"
		},
		{
			"inputs": [
				{
					"internalType": "address",
					"name": "fiscalSponsor",
					"type": "address"
				}
			],
			"name": "wrongFiscalSponsor",
			"type": "error"
		},
		{
			"inputs": [
				{
					"internalType": "uint256",
					"name": "listingid",
					"type": "uint256"
				}
			],
			"name": "wrongListingId",
			"type": "error"
		},
		{
			"inputs": [
				{
					"internalType": "uint256",
					"name": "noOfcopies",
					"type": "uint256"
				}
			],
			"name": "wrongNoOfCopies",
			"type": "error"
		},
		{
			"inputs": [
				{
					"internalType": "uint256",
					"name": "wrongId",
					"type": "uint256"
				}
			],
			"name": "wrongTokenId",
			"type": "error"
		},
		{
			"inputs": [
				{
					"internalType": "uint256",
					"name": "percentage",
					"type": "uint256"
				}
			],
			"name": "zeroPercentage",
			"type": "error"
		},
		{
			"inputs": [
				{
					"internalType": "uint256",
					"name": "value",
					"type": "uint256"
				}
			],
			"name": "zeroValue",
			"type": "error"
		},
		{
			"anonymous": false,
			"inputs": [
				{
					"indexed": false,
					"internalType": "address",
					"name": "_currentBidder",
					"type": "address"
				},
				{
					"indexed": false,
					"internalType": "uint256",
					"name": "_bidAmount",
					"type": "uint256"
				},
				{
					"indexed": false,
					"internalType": "uint256",
					"name": "_previousBidAmount",
					"type": "uint256"
				}
			],
			"name": "Bided",
			"type": "event"
		},
		{
			"anonymous": false,
			"inputs": [
				{
					"indexed": false,
					"internalType": "address",
					"name": "_listerAddress",
					"type": "address"
				},
				{
					"indexed": false,
					"internalType": "uint256",
					"name": "_listingID",
					"type": "uint256"
				},
				{
					"indexed": false,
					"internalType": "bool",
					"name": "_isListed",
					"type": "bool"
				}
			],
			"name": "CancelList",
			"type": "event"
		},
		{
			"anonymous": false,
			"inputs": [
				{
					"indexed": false,
					"internalType": "uint256",
					"name": "_initialPrice",
					"type": "uint256"
				},
				{
					"indexed": false,
					"internalType": "uint256",
					"name": "_listStartTime",
					"type": "uint256"
				},
				{
					"indexed": false,
					"internalType": "uint256",
					"name": "_listEndTime",
					"type": "uint256"
				}
			],
			"name": "Edited",
			"type": "event"
		},
		{
			"anonymous": false,
			"inputs": [
				{
					"indexed": false,
					"internalType": "uint256",
					"name": "fiscalFee",
					"type": "uint256"
				},
				{
					"indexed": false,
					"internalType": "uint256",
					"name": "royaltyFee",
					"type": "uint256"
				},
				{
					"indexed": true,
					"internalType": "uint256",
					"name": "serviceFee",
					"type": "uint256"
				},
				{
					"indexed": true,
					"internalType": "uint256",
					"name": "donationFee",
					"type": "uint256"
				},
				{
					"indexed": true,
					"internalType": "uint256",
					"name": "amountSendToSeller",
					"type": "uint256"
				}
			],
			"name": "FeeInfo",
			"type": "event"
		},
		{
			"anonymous": false,
			"inputs": [
				{
					"indexed": false,
					"internalType": "uint64",
					"name": "version",
					"type": "uint64"
				}
			],
			"name": "Initialized",
			"type": "event"
		},
		{
			"anonymous": false,
			"inputs": [
				{
					"indexed": false,
					"internalType": "uint256",
					"name": "_listId",
					"type": "uint256"
				},
				{
					"indexed": false,
					"internalType": "uint256",
					"name": "_tokenId",
					"type": "uint256"
				},
				{
					"indexed": false,
					"internalType": "uint256",
					"name": "_noOfCopies",
					"type": "uint256"
				},
				{
					"indexed": false,
					"internalType": "uint256",
					"name": "_initialPrices",
					"type": "uint256"
				}
			],
			"name": "Listed",
			"type": "event"
		},
		{
			"anonymous": false,
			"inputs": [
				{
					"indexed": true,
					"internalType": "address",
					"name": "previousOwner",
					"type": "address"
				},
				{
					"indexed": true,
					"internalType": "address",
					"name": "newOwner",
					"type": "address"
				}
			],
			"name": "OwnershipTransferred",
			"type": "event"
		},
		{
			"anonymous": false,
			"inputs": [
				{
					"indexed": false,
					"internalType": "address",
					"name": "fiscalAddress",
					"type": "address"
				},
				{
					"indexed": false,
					"internalType": "uint256",
					"name": "feePercentage",
					"type": "uint256"
				}
			],
			"name": "SetFiscalFee",
			"type": "event"
		},
		{
			"anonymous": false,
			"inputs": [
				{
					"indexed": false,
					"internalType": "address",
					"name": "_from",
					"type": "address"
				},
				{
					"indexed": true,
					"internalType": "uint256",
					"name": "_tokenId",
					"type": "uint256"
				},
				{
					"indexed": true,
					"internalType": "address",
					"name": "_nftAddress",
					"type": "address"
				},
				{
					"indexed": false,
					"internalType": "address",
					"name": "_to",
					"type": "address"
				},
				{
					"indexed": false,
					"internalType": "uint256",
					"name": "_noOfCopirs",
					"type": "uint256"
				}
			],
			"name": "SoldNft",
			"type": "event"
		},
		{
			"anonymous": false,
			"inputs": [
				{
					"indexed": true,
					"internalType": "address",
					"name": "implementation",
					"type": "address"
				}
			],
			"name": "Upgraded",
			"type": "event"
		},
		{
			"anonymous": false,
			"inputs": [
				{
					"indexed": false,
					"internalType": "uint256",
					"name": "_serviceFeePercentage",
					"type": "uint256"
				},
				{
					"indexed": false,
					"internalType": "address",
					"name": "_owner",
					"type": "address"
				}
			],
			"name": "plateFarmFeePercentage",
			"type": "event"
		},
		{
			"inputs": [
				{
					"internalType": "uint256",
					"name": "_listId",
					"type": "uint256"
				}
			],
			"name": "BuyFixedPriceItem",
			"outputs": [],
			"stateMutability": "payable",
			"type": "function"
		},
		{
			"inputs": [],
			"name": "UPGRADE_INTERFACE_VERSION",
			"outputs": [
				{
					"internalType": "string",
					"name": "",
					"type": "string"
				}
			],
			"stateMutability": "view",
			"type": "function"
		},
		{
			"inputs": [],
			"name": "adminFeePercentage",
			"outputs": [
				{
					"internalType": "uint256",
					"name": "",
					"type": "uint256"
				}
			],
			"stateMutability": "view",
			"type": "function"
		},
		{
			"inputs": [
				{
					"internalType": "uint256",
					"name": "_listingID",
					"type": "uint256"
				}
			],
			"name": "cancellListingForlist",
			"outputs": [],
			"stateMutability": "nonpayable",
			"type": "function"
		},
		{
			"inputs": [
				{
					"internalType": "address",
					"name": "",
					"type": "address"
				}
			],
			"name": "defaultFiscalFee",
			"outputs": [
				{
					"internalType": "uint256",
					"name": "",
					"type": "uint256"
				}
			],
			"stateMutability": "view",
			"type": "function"
		},
		{
			"inputs": [
				{
					"internalType": "uint256",
					"name": "",
					"type": "uint256"
				}
			],
			"name": "donationInfo",
			"outputs": [
				{
					"internalType": "uint256",
					"name": "noOfOrgazisations",
					"type": "uint256"
				}
			],
			"stateMutability": "view",
			"type": "function"
		},
		{
			"inputs": [
				{
					"internalType": "uint256",
					"name": "_listId",
					"type": "uint256"
				},
				{
					"internalType": "uint256",
					"name": "_initialPrice",
					"type": "uint256"
				},
				{
					"internalType": "uint256",
					"name": "_listStartTime",
					"type": "uint256"
				},
				{
					"internalType": "uint256",
					"name": "_listEndTime",
					"type": "uint256"
				},
				{
					"internalType": "uint256",
					"name": "_serviceFee",
					"type": "uint256"
				}
			],
			"name": "editList",
			"outputs": [],
			"stateMutability": "nonpayable",
			"type": "function"
		},
		{
			"inputs": [
				{
					"internalType": "uint256",
					"name": "_listId",
					"type": "uint256"
				}
			],
			"name": "endAuction",
			"outputs": [],
			"stateMutability": "nonpayable",
			"type": "function"
		},
		{
			"inputs": [
				{
					"internalType": "address",
					"name": "_mintingContract",
					"type": "address"
				},
				{
					"internalType": "address",
					"name": "_ownerAddress",
					"type": "address"
				}
			],
			"name": "initialize",
			"outputs": [],
			"stateMutability": "nonpayable",
			"type": "function"
		},
		{
			"inputs": [
				{
					"internalType": "uint256",
					"name": "_initialPrice",
					"type": "uint256"
				},
				{
					"internalType": "uint256",
					"name": "_listStartTime",
					"type": "uint256"
				},
				{
					"internalType": "uint256",
					"name": "_listEndTime",
					"type": "uint256"
				},
				{
					"internalType": "uint256",
					"name": "_tokenId",
					"type": "uint256"
				},
				{
					"internalType": "uint256",
					"name": "_noOfCopies",
					"type": "uint256"
				},
				{
					"internalType": "address",
					"name": "_nftAddress",
					"type": "address"
				},
				{
					"internalType": "uint256",
					"name": "_serviceFee",
					"type": "uint256"
				},
				{
					"internalType": "address",
					"name": "_fiscalSponsor",
					"type": "address"
				}
			],
			"name": "listForOrganizations",
			"outputs": [],
			"stateMutability": "nonpayable",
			"type": "function"
		},
		{
			"inputs": [
				{
					"internalType": "uint256",
					"name": "_initialPrice",
					"type": "uint256"
				},
				{
					"internalType": "uint256",
					"name": "_listStartTime",
					"type": "uint256"
				},
				{
					"internalType": "uint256",
					"name": "_listEndTime",
					"type": "uint256"
				},
				{
					"internalType": "uint256",
					"name": "_tokenId",
					"type": "uint256"
				},
				{
					"internalType": "uint256",
					"name": "_noOfCopies",
					"type": "uint256"
				},
				{
					"internalType": "uint256",
					"name": "_serviceFee",
					"type": "uint256"
				},
				{
					"internalType": "address",
					"name": "_nftAddress",
					"type": "address"
				},
				{
					"internalType": "address[]",
					"name": "_organizations",
					"type": "address[]"
				},
				{
					"internalType": "uint256[]",
					"name": "_donatePercentages",
					"type": "uint256[]"
				}
			],
			"name": "listForUsers",
			"outputs": [],
			"stateMutability": "nonpayable",
			"type": "function"
		},
		{
			"inputs": [],
			"name": "listId",
			"outputs": [
				{
					"internalType": "uint256",
					"name": "",
					"type": "uint256"
				}
			],
			"stateMutability": "view",
			"type": "function"
		},
		{
			"inputs": [
				{
					"internalType": "uint256",
					"name": "",
					"type": "uint256"
				}
			],
			"name": "listing",
			"outputs": [
				{
					"internalType": "bool",
					"name": "listed",
					"type": "bool"
				},
				{
					"internalType": "bool",
					"name": "nftClaimed",
					"type": "bool"
				},
				{
					"internalType": "bool",
					"name": "fixedPrice",
					"type": "bool"
				},
				{
					"internalType": "uint256",
					"name": "serviceFeePercentage",
					"type": "uint256"
				},
				{
					"internalType": "uint256",
					"name": "price",
					"type": "uint256"
				},
				{
					"internalType": "uint256",
					"name": "tokenId",
					"type": "uint256"
				},
				{
					"internalType": "uint256",
					"name": "noOfCopies",
					"type": "uint256"
				},
				{
					"internalType": "address",
					"name": "nftOwner",
					"type": "address"
				},
				{
					"internalType": "address",
					"name": "newOwner",
					"type": "address"
				},
				{
					"internalType": "address",
					"name": "nftAddress",
					"type": "address"
				},
				{
					"internalType": "uint256",
					"name": "listingEndTime",
					"type": "uint256"
				},
				{
					"internalType": "uint256",
					"name": "listingStartTime",
					"type": "uint256"
				}
			],
			"stateMutability": "view",
			"type": "function"
		},
		{
			"inputs": [],
			"name": "mintingContract",
			"outputs": [
				{
					"internalType": "contract MintingContract",
					"name": "",
					"type": "address"
				}
			],
			"stateMutability": "view",
			"type": "function"
		},
		{
			"inputs": [],
			"name": "mintingContractAddress",
			"outputs": [
				{
					"internalType": "address",
					"name": "",
					"type": "address"
				}
			],
			"stateMutability": "view",
			"type": "function"
		},
		{
			"inputs": [
				{
					"internalType": "address",
					"name": "",
					"type": "address"
				},
				{
					"internalType": "address",
					"name": "",
					"type": "address"
				},
				{
					"internalType": "uint256[]",
					"name": "",
					"type": "uint256[]"
				},
				{
					"internalType": "uint256[]",
					"name": "",
					"type": "uint256[]"
				},
				{
					"internalType": "bytes",
					"name": "",
					"type": "bytes"
				}
			],
			"name": "onERC1155BatchReceived",
			"outputs": [
				{
					"internalType": "bytes4",
					"name": "",
					"type": "bytes4"
				}
			],
			"stateMutability": "nonpayable",
			"type": "function"
		},
		{
			"inputs": [
				{
					"internalType": "address",
					"name": "",
					"type": "address"
				},
				{
					"internalType": "address",
					"name": "",
					"type": "address"
				},
				{
					"internalType": "uint256",
					"name": "",
					"type": "uint256"
				},
				{
					"internalType": "uint256",
					"name": "",
					"type": "uint256"
				},
				{
					"internalType": "bytes",
					"name": "",
					"type": "bytes"
				}
			],
			"name": "onERC1155Received",
			"outputs": [
				{
					"internalType": "bytes4",
					"name": "",
					"type": "bytes4"
				}
			],
			"stateMutability": "nonpayable",
			"type": "function"
		},
		{
			"inputs": [],
			"name": "owner",
			"outputs": [
				{
					"internalType": "address",
					"name": "",
					"type": "address"
				}
			],
			"stateMutability": "view",
			"type": "function"
		},
		{
			"inputs": [],
			"name": "proxiableUUID",
			"outputs": [
				{
					"internalType": "bytes32",
					"name": "",
					"type": "bytes32"
				}
			],
			"stateMutability": "view",
			"type": "function"
		},
		{
			"inputs": [],
			"name": "renounceOwnership",
			"outputs": [],
			"stateMutability": "nonpayable",
			"type": "function"
		},
		{
			"inputs": [
				{
					"internalType": "uint256",
					"name": "_fiscalSponsorPercentage",
					"type": "uint256"
				}
			],
			"name": "setFiscalSponsorPercentage",
			"outputs": [],
			"stateMutability": "nonpayable",
			"type": "function"
		},
		{
			"inputs": [
				{
					"internalType": "uint256",
					"name": "_serviceFeePercentage",
					"type": "uint256"
				}
			],
			"name": "setPlatFormServiceFeePercentage",
			"outputs": [],
			"stateMutability": "nonpayable",
			"type": "function"
		},
		{
			"inputs": [
				{
					"internalType": "uint256",
					"name": "_listId",
					"type": "uint256"
				}
			],
			"name": "startBid",
			"outputs": [],
			"stateMutability": "payable",
			"type": "function"
		},
		{
			"inputs": [
				{
					"internalType": "bytes4",
					"name": "interfaceId",
					"type": "bytes4"
				}
			],
			"name": "supportsInterface",
			"outputs": [
				{
					"internalType": "bool",
					"name": "",
					"type": "bool"
				}
			],
			"stateMutability": "view",
			"type": "function"
		},
		{
			"inputs": [
				{
					"internalType": "address",
					"name": "newOwner",
					"type": "address"
				}
			],
			"name": "transferOwnership",
			"outputs": [],
			"stateMutability": "nonpayable",
			"type": "function"
		},
		{
			"inputs": [
				{
					"internalType": "address",
					"name": "newImplementation",
					"type": "address"
				},
				{
					"internalType": "bytes",
					"name": "data",
					"type": "bytes"
				}
			],
			"name": "upgradeToAndCall",
			"outputs": [],
			"stateMutability": "payable",
			"type": "function"
		}
	]
}