{
	"data": {
		"bytecode": {
			"linkReferences": {},
			"object": "60a060405230608052348015610013575f80fd5b5061001c610021565b6100d3565b7ff0c57e16840df040f15088dc2f81fe391c3923bec73e23a9662efc9c229c6a00805468010000000000000000900460ff16156100715760405163f92ee8a960e01b815260040160405180910390fd5b80546001600160401b03908116146100d05780546001600160401b0319166001600160401b0390811782556040519081527fc7f505b2f371ae2175ee4913f4499e1f2633a7b5936321eed1cdaeb6115181d29060200160405180910390a15b50565b608051612c116100f95f395f8181611fd401528181611ffd015261213c0152612c115ff3fe608060405260043610610161575f3560e01c8063831490f9116100cd578063bc197c8111610087578063e30ec38611610062578063e30ec38614610508578063eafa403914610527578063f23a6e6114610546578063f2fde38b14610571575f80fd5b8063bc197c8114610493578063bea7d6e9146104d7578063d2f6f67d146104ea575f80fd5b8063831490f91461030057806384a184de146103155780638da5cb5b1461040e5780639e898e5814610422578063ad3cb1cc14610437578063b9a2de3a14610474575f80fd5b80634c205bc91161011e5780634c205bc9146102505780634f1ef2861461026357806352d1902d14610276578063715018a61461028a5780637cfd3e181461029e578063824563f6146102c9575f80fd5b806301ffc9a71461016557806303c32aa91461019957806320edda38146101ba5780632c0bc695146101d95780633d6c0507146101f8578063485cc95514610231575b5f80fd5b348015610170575f80fd5b5061018461017f366004612552565b610590565b60405190151581526020015b60405180910390f35b3480156101a4575f80fd5b506101b86101b3366004612579565b6105c6565b005b3480156101c5575f80fd5b506101b86101d4366004612579565b610691565b3480156101e4575f80fd5b506101b86101f3366004612590565b610730565b348015610203575f80fd5b50610223610212366004612579565b60056020525f908152604090205481565b604051908152602001610190565b34801561023c575f80fd5b506101b861024b3660046125db565b610889565b6101b861025e366004612579565b6109d7565b6101b86102713660046126c3565b610e24565b348015610281575f80fd5b50610223610e43565b348015610295575f80fd5b506101b8610e5e565b3480156102a9575f80fd5b506102236102b8366004612710565b60066020525f908152604090205481565b3480156102d4575f80fd5b506003546102e8906001600160a01b031681565b6040516001600160a01b039091168152602001610190565b34801561030b575f80fd5b5061022360025481565b348015610320575f80fd5b5061039e61032f366004612579565b600460208190525f9182526040909120805460018201546002830154600384015494840154600585015460068601546007870154600888015460099098015460ff8089169a6101008a0482169a62010000909a04909116989095946001600160a01b039081169481169316918c565b604080519c15158d529a151560208d0152981515998b019990995260608a0196909652608089019490945260a088019290925260c08701526001600160a01b0390811660e08701529081166101008601521661012084015261014083019190915261016082015261018001610190565b348015610419575f80fd5b506102e8610e71565b34801561042d575f80fd5b5061022360015481565b348015610442575f80fd5b50610467604051806040016040528060058152602001640352e302e360dc1b81525081565b604051610190919061272b565b34801561047f575f80fd5b506101b861048e366004612579565b610e9f565b34801561049e575f80fd5b506104be6104ad3660046127ed565b63bc197c8160e01b95945050505050565b6040516001600160e01b03199091168152602001610190565b6101b86104e5366004612579565b6110df565b3480156104f5575f80fd5b505f546102e8906001600160a01b031681565b348015610513575f80fd5b506101b86105223660046128a0565b6113a6565b348015610532575f80fd5b506101b8610541366004612972565b6115a5565b348015610551575f80fd5b506104be610560366004612a20565b63f23a6e6160e01b95945050505050565b34801561057c575f80fd5b506101b861058b366004612710565b6117d8565b5f6001600160e01b03198216630271189760e51b14806105c057506301ffc9a760e01b6001600160e01b03198316145b92915050565b606481101580156105d957506103e88111155b6106435760405162461bcd60e51b815260206004820152603060248201527f5f66697363616c53706f6e736f7250657263656e74616765206d75737420626560448201526f0206265747765656e203120746f2031360841b60648201526084015b60405180910390fd5b335f81815260066020908152604091829020849055815192835282018390527fbee82e0cd48a0dfd192b0980a9a2c7d9b007aad1b38c23a235b4121b554d9c8a91015b60405180910390a150565b610699611815565b5f811180156106aa5750610bb88111155b6106f65760405162461bcd60e51b815260206004820181905260248201527f6665652025206d757374206265747765656e20696e20312520746f2033302520604482015260640161063a565b6002819055604080518281523360208201527f8b52e67d733e4bffdb3a2df53e3b88e2f31125fc8a8442b742602f8f7d0ed3e99101610686565b845f81116107545760405163c860174b60e01b81526004810182905260240161063a565b5f8181526004602052604090205460ff1661079a575f8181526004602081905260409182902054915163e6c1c63760e01b815260ff90921615159082015260240161063a565b5f81815260046020526040902054610100900460ff16156107e9575f818152600460208190526040918290205491516224680560e91b815261010090920460ff1615159082015260240161063a565b5f8681526004602081905260409091206003810154918101546007909101546108239291908890889088906001600160a01b031688611847565b5f8681526004602090815260409182902060028101546009820154600890920154845191825292810191909152918201527fd3f4e53a5792e81767b11408a290f82cf83fde26090d65773f2c0a9aeb63adfb9060600160405180910390a1505050505050565b7ff0c57e16840df040f15088dc2f81fe391c3923bec73e23a9662efc9c229c6a008054600160401b810460ff16159067ffffffffffffffff165f811580156108ce5750825b90505f8267ffffffffffffffff1660011480156108ea5750303b155b9050811580156108f8575080155b156109165760405163f92ee8a960e01b815260040160405180910390fd5b845467ffffffffffffffff19166001178555831561094057845460ff60401b1916600160401b1785555b60fa600255600380546001600160a01b0389166001600160a01b031991821681179092555f805490911690911790556109776119ef565b610980866119f7565b6109886119ef565b83156109ce57845460ff60401b19168555604051600181527fc7f505b2f371ae2175ee4913f4499e1f2633a7b5936321eed1cdaeb6115181d29060200160405180910390a15b50505050505050565b805f81116109fb5760405163c860174b60e01b81526004810182905260240161063a565b5f8181526004602052604090205460ff16610a41575f8181526004602081905260409182902054915163e6c1c63760e01b815260ff90921615159082015260240161063a565b5f81815260046020526040902054610100900460ff1615610a90575f818152600460208190526040918290205491516224680560e91b815261010090920460ff1615159082015260240161063a565b5f828152600460205260409020600201543414610ac2576040516385d649f760e01b815234600482015260240161063a565b5f8281526004602052604090205462010000900460ff16610b13575f82815260046020819052604091829020549151639cf9f1f760e01b81526201000090920460ff1615159082015260240161063a565b5f828152600460205260409020600501546001600160a01b03163303610b6b575f828152600460208190526040918290206005015491516304a83c1b60e51b81526001600160a01b039092169082015260240161063a565b5f8281526004602052604081206006810180546001600160a01b031916331790556001015415610bbe575f8381526004602052604090206002810154600190910154610bb79190611a08565b9050610be1565b610bde60045f8581526020019081526020015f2060020154600254611a08565b90505b5f8381526005602052604081205415610c0057610bfd84611abe565b90505b5f80548582526004602081905260408084206005015490516353f5011960e01b81526001600160a01b0391821692810192909252909116906353f5011990602401608060405180830381865afa158015610c5c573d5f803e3d5ffd5b505050506040513d601f19601f82011682018060405250810190610c809190612a78565b50505090505f8115610c9a57610c97865f80611c8f565b90505b5f610ca487611dce565b90505f8183610cb38789612ae2565b610cbd9190612ae2565b610cc79190612ae2565b5f89815260046020526040902060020154610ce29190612af5565b9050610cf5610cef610e71565b87611ea3565b5f88815260046020526040902060050154610d19906001600160a01b031682611ea3565b5f888152600460208190526040909120805461ff0019166101001781556007810154600682015460038301549290930154610d66936001600160a01b039283169330939190911691611f39565b5f88815260046020818152604092839020600781015460038201546006830154929094015485513081526001600160a01b03938416948101949094528386015293519316927f01a7baf821561ae36aa58d172bd77037c6f9c19177e5b840e3d413c110a80e459181900360600190a38085877f36203e70aeb15b48fc7b10549158c6acc3ba3235ba2644757016fb33d4fa39448686604051610e12929190918252602082015260400190565b60405180910390a45050505050505050565b610e2c611fc9565b610e358261206d565b610e3f8282612075565b5050565b5f610e4c612131565b505f80516020612bbc83398151915290565b610e66611815565b610e6f5f61217a565b565b7f9016d09d72d40fdae2fd8ceac6b6234c7706214fd39c1cd1e609a0528c199300546001600160a01b031690565b805f8111610ec35760405163c860174b60e01b81526004810182905260240161063a565b5f8181526004602052604090205460ff16610f09575f8181526004602081905260409182902054915163e6c1c63760e01b815260ff90921615159082015260240161063a565b5f81815260046020526040902054610100900460ff1615610f58575f818152600460208190526040918290205491516224680560e91b815261010090920460ff1615159082015260240161063a565b5f8281526004602052604090205462010000900460ff1615610faa575f82815260046020819052604091829020549151632a515af560e11b81526201000090920460ff1615159082015260240161063a565b5f828152600460205260409020600501546001600160a01b0316331480610fe957505f828152600460205260409020600601546001600160a01b031633145b6110535760405162461bcd60e51b815260206004820152603560248201527f596f7520617265206e6f7420746865206e66744f776e6572206e656974686572604482015274103a3432903432b4b3b432b9ba103134b23232b91760591b606482015260840161063a565b5f828152600460205260409020600801544210156110a7575f828152600460208190526040918290206009810154600890910154925163dd96246f60e01b815291820152602481019190915260440161063a565b5f8281526004602052604081206001015415610bbe575f8381526004602052604090206002810154600190910154610bb79190611a08565b805f81116111035760405163c860174b60e01b81526004810182905260240161063a565b5f8181526004602052604090205460ff16611149575f8181526004602081905260409182902054915163e6c1c63760e01b815260ff90921615159082015260240161063a565b5f81815260046020526040902054610100900460ff1615611198575f818152600460208190526040918290205491516224680560e91b815261010090920460ff1615159082015260240161063a565b5f8281526004602052604090205462010000900460ff16156111ea575f82815260046020819052604091829020549151632a515af560e11b81526201000090920460ff1615159082015260240161063a565b34158061120657505f8281526004602052604090206002015434105b15611226576040516385d649f760e01b815234600482015260240161063a565b5f8281526004602052604090206009015442108061125357505f8281526004602052604090206008015442115b15611294575f828152600460208190526040918290206009810154600890910154925163dd96246f60e01b815291820152602481019190915260440161063a565b5f828152600460205260409020600501546001600160a01b031633036112ec575f828152600460208190526040918290206005015491516304a83c1b60e51b81526001600160a01b039092169082015260240161063a565b5f82815260046020526040902060028101546006909101546001600160a01b0316811580159061132457506001600160a01b03811615155b15611333576113338183611ea3565b5f848152600460209081526040918290203460028201819055600690910180546001600160a01b031916339081179091558351908152918201529081018390527fa6e846933627bedfe46f69605777a6483fb976f59199ec63196aa8442c8eb1239060600160405180910390a150505050565b5f80546040516353f5011960e01b8152336004820152839291829182916001600160a01b0316906353f5011990602401608060405180830381865afa1580156113f1573d5f803e3d5ffd5b505050506040513d601f19601f820116820180604052508101906114159190612a78565b50925092509250821561147c57806001600160a01b0316846001600160a01b03161461147c5760405162461bcd60e51b81526020600482015260166024820152753bb937b733903334b9b1b0b61039b837b739b7b9109760511b604482015260640161063a565b5f8c1161149f5760405163baf301f760e01b8152600481018d905260240161063a565b5f89116114c2576040516343599f6960e11b8152600481018a905260240161063a565b5f88116114e557604051638e57a1b360e01b81526004810189905260240161063a565b60018054905f6114f483612b08565b919050555061150889898e8e8e8c8c611847565b6003546001600160a01b038881169116146115305761152b89896001548a6121ea565b61154d565b60015460035461154d918b918b91906001600160a01b03166121ea565b60015460408051918252602082018b90528101899052606081018d90527f52ad65ec41e71d556367fc4fef59f68118b969bb890def6f1ccd0b952f557ca49060800160405180910390a1505050505050505050505050565b81815f8251111580156115b95750600a8251115b156115dc578151604051631d9aea7d60e01b815260040161063a91815260200190565b805182511461160b57815181516040516312c9b6e160e01b81526004810192909252602482015260440161063a565b5f805b83518110156116d5575f6001600160a01b031684828151811061163357611633612b20565b60200260200101516001600160a01b0316146116cd576101f483828151811061165e5761165e612b20565b602002602001015110156116c85760405162461bcd60e51b815260206004820152602b60248201527f646f6e6174696f6e2070657263656e74616765206d757374206265206772656160448201526a746572207468656e20352560a81b606482015260840161063a565b600191505b60010161160e565b508061171c5760405162461bcd60e51b815260206004820152601660248201527539b2b632b1ba1030b71037b933b0b73d30ba34b7b71760511b604482015260640161063a565b5f8c1161173f5760405163baf301f760e01b8152600481018d905260240161063a565b5f8911611762576040516343599f6960e11b8152600481018a905260240161063a565b5f881161178557604051638e57a1b360e01b81526004810189905260240161063a565b60018054905f61179483612b08565b91905055506117a889898e8e8e8b8d611847565b6117b56001548686612226565b6003546001600160a01b038781169116146115305761152b8989600154896121ea565b6117e0611815565b6001600160a01b03811661180957604051631e4fbdf760e01b81525f600482015260240161063a565b6118128161217a565b50565b3361181e610e71565b6001600160a01b031614610e6f5760405163118cdaa760e01b815233600482015260240161063a565b8484848989865f86116118705760405163baf301f760e01b81526004810187905260240161063a565b5f8311611893576040516343599f6960e11b81526004810184905260240161063a565b5f82116118b657604051638e57a1b360e01b81526004810183905260240161063a565b6001600160a01b0381166118e85760405163e4cfa94d60e01b81526001600160a01b038216600482015260240161063a565b84158015906118f657508315155b156119325742851115801561190a57508484105b156119325760405163dd96246f60e01b8152600481018690526024810185905260440161063a565b8915801561193e575088155b15611963576001545f908152600460205260409020805462ff00001916620100001790555b5050600180545f908152600460208190526040808320805460ff191685179055835483528083206003019e909e55825482528d8220019b909b5580548b528b8b20600201999099555050865488525050868620600901939093555082548452848420600801558154835283832060050180546001600160a01b0319163317905581548352929091200155565b610e6f612333565b6119ff612333565b6118128161237c565b5f825f03611a585760405162461bcd60e51b815260206004820152601c60248201527f5072696365206f66204e46542063616e206e6f74206265207a65726f00000000604482015260640161063a565b815f03611a9e5760405162461bcd60e51b81526020600482015260146024820152735f5042502063616e206e6f74206265207a65726f60601b604482015260640161063a565b5f612710611aac8486612b34565b611ab69190612b4b565b949350505050565b5f80805b5f84815260056020526040902054811015611c88575f84815260056020526040812060010182600a8110611af857611af8612b20565b01546001600160a01b031614611c80575f8481526004602090815260408083206002015460059092528220611b439190600b0184600a8110611b3c57611b3c612b20565b0154611a08565b5f805487825260056020526040822092935090916001600160a01b03909116906353f501199060010185600a8110611b7d57611b7d612b20565b015460405160e083901b6001600160e01b03191681526001600160a01b039091166004820152602401608060405180830381865afa158015611bc1573d5f803e3d5ffd5b505050506040513d601f19601f82011682018060405250810190611be59190612a78565b50505090505f8115611c2b575f878152600560205260408120611c28919060010186600a8110611c1757611c17612b20565b01546001600160a01b031685611c8f565b90505b5f611c368285612af5565b5f898152600560205260409020909150611c6f9060010186600a8110611c5e57611c5e612b20565b01546001600160a01b031682611ea3565b611c798487612ae2565b9550505050505b600101611ac2565b5092915050565b5f80808515801590611ca857506001600160a01b038516155b8015611cb2575083155b611cbc5784611cd7565b5f868152600460205260409020600501546001600160a01b03165b5f80546040516353f5011960e01b81526001600160a01b038085166004830152939450919283929116906353f5011990602401608060405180830381865afa158015611d25573d5f803e3d5ffd5b505050506040513d601f19601f82011682018060405250810190611d499190612a78565b509250925050815f03611d7d576001600160a01b0381165f908152600660205260408120549250829003611d7d576103e891505b5f8815801590611d8b575086155b611d955786611da7565b5f898152600460205260409020600201545b9050611db38184611a08565b9450611dbf8286611ea3565b509293505050505b9392505050565b5f8181526004602052604081206007015460035482916001600160a01b039081169116036105c0575f8054848252600460208190526040808420600301549051638c33e47f60e01b81529182015282916001600160a01b031690638c33e47f906024016040805180830381865afa158015611e4b573d5f803e3d5ffd5b505050506040513d601f19601f82011682018060405250810190611e6f9190612b6a565b5f878152600460205260409020600201549193509150611e8f9083611a08565b9250611e9b8184611ea3565b505092915050565b5f826001600160a01b0316826040515f6040518083038185875af1925050503d805f8114611eec576040519150601f19603f3d011682016040523d82523d5f602084013e611ef1565b606091505b5050905080611f345760405162461bcd60e51b815260206004820152600f60248201526e151c985b9cd9995c8819985a5b1959608a1b604482015260640161063a565b505050565b604051637921219560e11b81526001600160a01b038581166004808401919091528582166024840152604483018590526064830184905260a0608484015260a4830152630307830360e41b60c483015286169063f242432a9060e4015f604051808303815f87803b158015611fac575f80fd5b505af1158015611fbe573d5f803e3d5ffd5b505050505050505050565b306001600160a01b037f000000000000000000000000000000000000000000000000000000000000000016148061204f57507f00000000000000000000000000000000000000000000000000000000000000006001600160a01b03166120435f80516020612bbc833981519152546001600160a01b031690565b6001600160a01b031614155b15610e6f5760405163703e46dd60e11b815260040160405180910390fd5b611812611815565b816001600160a01b03166352d1902d6040518163ffffffff1660e01b8152600401602060405180830381865afa9250505080156120cf575060408051601f3d908101601f191682019092526120cc91810190612b8e565b60015b6120f757604051634c9c8ce360e01b81526001600160a01b038316600482015260240161063a565b5f80516020612bbc833981519152811461212757604051632a87526960e21b81526004810182905260240161063a565b611f348383612384565b306001600160a01b037f00000000000000000000000000000000000000000000000000000000000000001614610e6f5760405163703e46dd60e11b815260040160405180910390fd5b7f9016d09d72d40fdae2fd8ceac6b6234c7706214fd39c1cd1e609a0528c19930080546001600160a01b031981166001600160a01b03848116918217845560405192169182907f8be0079c531659141344cd1fd0a4f28419497f9722a3daafe3b4186f6b6457e0905f90a3505050565b5f82815260046020526040902060070180546001600160a01b0319166001600160a01b0383161790556122208133308787611f39565b50505050565b5f5b8251811015612220575f6001600160a01b031683828151811061224d5761224d612b20565b60200260200101516001600160a01b03161461232b5782818151811061227557612275612b20565b602002602001015160055f8681526020019081526020015f2060010182600a81106122a2576122a2612b20565b015f6101000a8154816001600160a01b0302191690836001600160a01b031602179055508181815181106122d8576122d8612b20565b602002602001015160055f8681526020019081526020015f20600b0182600a811061230557612305612b20565b01555f848152600560205260408120805460019290612325908490612ae2565b90915550505b600101612228565b7ff0c57e16840df040f15088dc2f81fe391c3923bec73e23a9662efc9c229c6a0054600160401b900460ff16610e6f57604051631afcd79f60e31b815260040160405180910390fd5b6117e0612333565b61238d826123d9565b6040516001600160a01b038316907fbc7cd75a20ee27fd9adebab32041f755214dbc6bffa90cc0225b39da2e5c2d3b905f90a28051156123d157611f34828261243c565b610e3f6124ae565b806001600160a01b03163b5f0361240e57604051634c9c8ce360e01b81526001600160a01b038216600482015260240161063a565b5f80516020612bbc83398151915280546001600160a01b0319166001600160a01b0392909216919091179055565b60605f80846001600160a01b0316846040516124589190612ba5565b5f60405180830381855af49150503d805f8114612490576040519150601f19603f3d011682016040523d82523d5f602084013e612495565b606091505b50915091506124a58583836124cd565b95945050505050565b3415610e6f5760405163b398979f60e01b815260040160405180910390fd5b6060826124e2576124dd82612529565b611dc7565b81511580156124f957506001600160a01b0384163b155b1561252257604051639996b31560e01b81526001600160a01b038516600482015260240161063a565b5080611dc7565b8051156125395780518082602001fd5b604051630a12f52160e11b815260040160405180910390fd5b5f60208284031215612562575f80fd5b81356001600160e01b031981168114611dc7575f80fd5b5f60208284031215612589575f80fd5b5035919050565b5f805f805f60a086880312156125a4575f80fd5b505083359560208501359550604085013594606081013594506080013592509050565b6001600160a01b0381168114611812575f80fd5b5f80604083850312156125ec575f80fd5b82356125f7816125c7565b91506020830135612607816125c7565b809150509250929050565b634e487b7160e01b5f52604160045260245ffd5b604051601f8201601f1916810167ffffffffffffffff8111828210171561264f5761264f612612565b604052919050565b5f82601f830112612666575f80fd5b813567ffffffffffffffff81111561268057612680612612565b612693601f8201601f1916602001612626565b8181528460208386010111156126a7575f80fd5b816020850160208301375f918101602001919091529392505050565b5f80604083850312156126d4575f80fd5b82356126df816125c7565b9150602083013567ffffffffffffffff8111156126fa575f80fd5b61270685828601612657565b9150509250929050565b5f60208284031215612720575f80fd5b8135611dc7816125c7565b602081525f82518060208401528060208501604085015e5f604082850101526040601f19601f83011684010191505092915050565b5f67ffffffffffffffff82111561277957612779612612565b5060051b60200190565b5f82601f830112612792575f80fd5b81356127a56127a082612760565b612626565b8082825260208201915060208360051b8601019250858311156127c6575f80fd5b602085015b838110156127e35780358352602092830192016127cb565b5095945050505050565b5f805f805f60a08688031215612801575f80fd5b853561280c816125c7565b9450602086013561281c816125c7565b9350604086013567ffffffffffffffff811115612837575f80fd5b61284388828901612783565b935050606086013567ffffffffffffffff81111561285f575f80fd5b61286b88828901612783565b925050608086013567ffffffffffffffff811115612887575f80fd5b61289388828901612657565b9150509295509295909350565b5f805f805f805f80610100898b0312156128b8575f80fd5b883597506020890135965060408901359550606089013594506080890135935060a08901356128e6816125c7565b925060c0890135915060e08901356128fd816125c7565b809150509295985092959890939650565b5f82601f83011261291d575f80fd5b813561292b6127a082612760565b8082825260208201915060208360051b86010192508583111561294c575f80fd5b602085015b838110156127e3578035612964816125c7565b835260209283019201612951565b5f805f805f805f805f6101208a8c03121561298b575f80fd5b8935985060208a0135975060408a0135965060608a0135955060808a0135945060a08a0135935060c08a01356129c0816125c7565b925060e08a013567ffffffffffffffff8111156129db575f80fd5b6129e78c828d0161290e565b9250506101008a013567ffffffffffffffff811115612a04575f80fd5b612a108c828d01612783565b9150509295985092959850929598565b5f805f805f60a08688031215612a34575f80fd5b8535612a3f816125c7565b94506020860135612a4f816125c7565b93506040860135925060608601359150608086013567ffffffffffffffff811115612887575f80fd5b5f805f8060808587031215612a8b575f80fd5b84518015158114612a9a575f80fd5b602086015160408701519195509350612ab2816125c7565b6060860151909250612ac3816125c7565b939692955090935050565b634e487b7160e01b5f52601160045260245ffd5b808201808211156105c0576105c0612ace565b818103818111156105c0576105c0612ace565b5f60018201612b1957612b19612ace565b5060010190565b634e487b7160e01b5f52603260045260245ffd5b80820281158282048414176105c0576105c0612ace565b5f82612b6557634e487b7160e01b5f52601260045260245ffd5b500490565b5f8060408385031215612b7b575f80fd5b82516020840151909250612607816125c7565b5f60208284031215612b9e575f80fd5b5051919050565b5f82518060208501845e5f92019182525091905056fe360894a13ba1a3210667c828492db98dca3e2076cc3735a920a3ca505d382bbca2646970667358221220ea6af4143d66964348ac72c657033d9a8794d04baea16149de75acf8b5f5c6b464736f6c634300081a0033",
			"opcodes": "PUSH1 0xA0 PUSH1 0x40 MSTORE ADDRESS PUSH1 0x80 MSTORE CALLVALUE DUP1 ISZERO PUSH2 0x13 JUMPI PUSH0 DUP1 REVERT JUMPDEST POP PUSH2 0x1C PUSH2 0x21 JUMP JUMPDEST PUSH2 0xD3 JUMP JUMPDEST PUSH32 0xF0C57E16840DF040F15088DC2F81FE391C3923BEC73E23A9662EFC9C229C6A00 DUP1 SLOAD PUSH9 0x10000000000000000 SWAP1 DIV PUSH1 0xFF AND ISZERO PUSH2 0x71 JUMPI PUSH1 0x40 MLOAD PUSH4 0xF92EE8A9 PUSH1 0xE0 SHL DUP2 MSTORE PUSH1 0x4 ADD PUSH1 0x40 MLOAD DUP1 SWAP2 SUB SWAP1 REVERT JUMPDEST DUP1 SLOAD PUSH1 0x1 PUSH1 0x1 PUSH1 0x40 SHL SUB SWAP1 DUP2 AND EQ PUSH2 0xD0 JUMPI DUP1 SLOAD PUSH1 0x1 PUSH1 0x1 PUSH1 0x40 SHL SUB NOT AND PUSH1 0x1 PUSH1 0x1 PUSH1 0x40 SHL SUB SWAP1 DUP2 OR DUP3 SSTORE PUSH1 0x40 MLOAD SWAP1 DUP2 MSTORE PUSH32 0xC7F505B2F371AE2175EE4913F4499E1F2633A7B5936321EED1CDAEB6115181D2 SWAP1 PUSH1 0x20 ADD PUSH1 0x40 MLOAD DUP1 SWAP2 SUB SWAP1 LOG1 JUMPDEST POP JUMP JUMPDEST PUSH1 0x80 MLOAD PUSH2 0x2C11 PUSH2 0xF9 PUSH0 CODECOPY PUSH0 DUP2 DUP2 PUSH2 0x1FD4 ADD MSTORE DUP2 DUP2 PUSH2 0x1FFD ADD MSTORE PUSH2 0x213C ADD MSTORE PUSH2 0x2C11 PUSH0 RETURN INVALID PUSH1 0x80 PUSH1 0x40 MSTORE PUSH1 0x4 CALLDATASIZE LT PUSH2 0x161 JUMPI PUSH0 CALLDATALOAD PUSH1 0xE0 SHR DUP1 PUSH4 0x831490F9 GT PUSH2 0xCD JUMPI DUP1 PUSH4 0xBC197C81 GT PUSH2 0x87 JUMPI DUP1 PUSH4 0xE30EC386 GT PUSH2 0x62 JUMPI DUP1 PUSH4 0xE30EC386 EQ PUSH2 0x508 JUMPI DUP1 PUSH4 0xEAFA4039 EQ PUSH2 0x527 JUMPI DUP1 PUSH4 0xF23A6E61 EQ PUSH2 0x546 JUMPI DUP1 PUSH4 0xF2FDE38B EQ PUSH2 0x571 JUMPI PUSH0 DUP1 REVERT JUMPDEST DUP1 PUSH4 0xBC197C81 EQ PUSH2 0x493 JUMPI DUP1 PUSH4 0xBEA7D6E9 EQ PUSH2 0x4D7 JUMPI DUP1 PUSH4 0xD2F6F67D EQ PUSH2 0x4EA JUMPI PUSH0 DUP1 REVERT JUMPDEST DUP1 PUSH4 0x831490F9 EQ PUSH2 0x300 JUMPI DUP1 PUSH4 0x84A184DE EQ PUSH2 0x315 JUMPI DUP1 PUSH4 0x8DA5CB5B EQ PUSH2 0x40E JUMPI DUP1 PUSH4 0x9E898E58 EQ PUSH2 0x422 JUMPI DUP1 PUSH4 0xAD3CB1CC EQ PUSH2 0x437 JUMPI DUP1 PUSH4 0xB9A2DE3A EQ PUSH2 0x474 JUMPI PUSH0 DUP1 REVERT JUMPDEST DUP1 PUSH4 0x4C205BC9 GT PUSH2 0x11E JUMPI DUP1 PUSH4 0x4C205BC9 EQ PUSH2 0x250 JUMPI DUP1 PUSH4 0x4F1EF286 EQ PUSH2 0x263 JUMPI DUP1 PUSH4 0x52D1902D EQ PUSH2 0x276 JUMPI DUP1 PUSH4 0x715018A6 EQ PUSH2 0x28A JUMPI DUP1 PUSH4 0x7CFD3E18 EQ PUSH2 0x29E JUMPI DUP1 PUSH4 0x824563F6 EQ PUSH2 0x2C9 JUMPI PUSH0 DUP1 REVERT JUMPDEST DUP1 PUSH4 0x1FFC9A7 EQ PUSH2 0x165 JUMPI DUP1 PUSH4 0x3C32AA9 EQ PUSH2 0x199 JUMPI DUP1 PUSH4 0x20EDDA38 EQ PUSH2 0x1BA JUMPI DUP1 PUSH4 0x2C0BC695 EQ PUSH2 0x1D9 JUMPI DUP1 PUSH4 0x3D6C0507 EQ PUSH2 0x1F8 JUMPI DUP1 PUSH4 0x485CC955 EQ PUSH2 0x231 JUMPI JUMPDEST PUSH0 DUP1 REVERT JUMPDEST CALLVALUE DUP1 ISZERO PUSH2 0x170 JUMPI PUSH0 DUP1 REVERT JUMPDEST POP PUSH2 0x184 PUSH2 0x17F CALLDATASIZE PUSH1 0x4 PUSH2 0x2552 JUMP JUMPDEST PUSH2 0x590 JUMP JUMPDEST PUSH1 0x40 MLOAD SWAP1 ISZERO ISZERO DUP2 MSTORE PUSH1 0x20 ADD JUMPDEST PUSH1 0x40 MLOAD DUP1 SWAP2 SUB SWAP1 RETURN JUMPDEST CALLVALUE DUP1 ISZERO PUSH2 0x1A4 JUMPI PUSH0 DUP1 REVERT JUMPDEST POP PUSH2 0x1B8 PUSH2 0x1B3 CALLDATASIZE PUSH1 0x4 PUSH2 0x2579 JUMP JUMPDEST PUSH2 0x5C6 JUMP JUMPDEST STOP JUMPDEST CALLVALUE DUP1 ISZERO PUSH2 0x1C5 JUMPI PUSH0 DUP1 REVERT JUMPDEST POP PUSH2 0x1B8 PUSH2 0x1D4 CALLDATASIZE PUSH1 0x4 PUSH2 0x2579 JUMP JUMPDEST PUSH2 0x691 JUMP JUMPDEST CALLVALUE DUP1 ISZERO PUSH2 0x1E4 JUMPI PUSH0 DUP1 REVERT JUMPDEST POP PUSH2 0x1B8 PUSH2 0x1F3 CALLDATASIZE PUSH1 0x4 PUSH2 0x2590 JUMP JUMPDEST PUSH2 0x730 JUMP JUMPDEST CALLVALUE DUP1 ISZERO PUSH2 0x203 JUMPI PUSH0 DUP1 REVERT JUMPDEST POP PUSH2 0x223 PUSH2 0x212 CALLDATASIZE PUSH1 0x4 PUSH2 0x2579 JUMP JUMPDEST PUSH1 0x5 PUSH1 0x20 MSTORE PUSH0 SWAP1 DUP2 MSTORE PUSH1 0x40 SWAP1 KECCAK256 SLOAD DUP2 JUMP JUMPDEST PUSH1 0x40 MLOAD SWAP1 DUP2 MSTORE PUSH1 0x20 ADD PUSH2 0x190 JUMP JUMPDEST CALLVALUE DUP1 ISZERO PUSH2 0x23C JUMPI PUSH0 DUP1 REVERT JUMPDEST POP PUSH2 0x1B8 PUSH2 0x24B CALLDATASIZE PUSH1 0x4 PUSH2 0x25DB JUMP JUMPDEST PUSH2 0x889 JUMP JUMPDEST PUSH2 0x1B8 PUSH2 0x25E CALLDATASIZE PUSH1 0x4 PUSH2 0x2579 JUMP JUMPDEST PUSH2 0x9D7 JUMP JUMPDEST PUSH2 0x1B8 PUSH2 0x271 CALLDATASIZE PUSH1 0x4 PUSH2 0x26C3 JUMP JUMPDEST PUSH2 0xE24 JUMP JUMPDEST CALLVALUE DUP1 ISZERO PUSH2 0x281 JUMPI PUSH0 DUP1 REVERT JUMPDEST POP PUSH2 0x223 PUSH2 0xE43 JUMP JUMPDEST CALLVALUE DUP1 ISZERO PUSH2 0x295 JUMPI PUSH0 DUP1 REVERT JUMPDEST POP PUSH2 0x1B8 PUSH2 0xE5E JUMP JUMPDEST CALLVALUE DUP1 ISZERO PUSH2 0x2A9 JUMPI PUSH0 DUP1 REVERT JUMPDEST POP PUSH2 0x223 PUSH2 0x2B8 CALLDATASIZE PUSH1 0x4 PUSH2 0x2710 JUMP JUMPDEST PUSH1 0x6 PUSH1 0x20 MSTORE PUSH0 SWAP1 DUP2 MSTORE PUSH1 0x40 SWAP1 KECCAK256 SLOAD DUP2 JUMP JUMPDEST CALLVALUE DUP1 ISZERO PUSH2 0x2D4 JUMPI PUSH0 DUP1 REVERT JUMPDEST POP PUSH1 0x3 SLOAD PUSH2 0x2E8 SWAP1 PUSH1 0x1 PUSH1 0x1 PUSH1 0xA0 SHL SUB AND DUP2 JUMP JUMPDEST PUSH1 0x40 MLOAD PUSH1 0x1 PUSH1 0x1 PUSH1 0xA0 SHL SUB SWAP1 SWAP2 AND DUP2 MSTORE PUSH1 0x20 ADD PUSH2 0x190 JUMP JUMPDEST CALLVALUE DUP1 ISZERO PUSH2 0x30B JUMPI PUSH0 DUP1 REVERT JUMPDEST POP PUSH2 0x223 PUSH1 0x2 SLOAD DUP2 JUMP JUMPDEST CALLVALUE DUP1 ISZERO PUSH2 0x320 JUMPI PUSH0 DUP1 REVERT JUMPDEST POP PUSH2 0x39E PUSH2 0x32F CALLDATASIZE PUSH1 0x4 PUSH2 0x2579 JUMP JUMPDEST PUSH1 0x4 PUSH1 0x20 DUP2 SWAP1 MSTORE PUSH0 SWAP2 DUP3 MSTORE PUSH1 0x40 SWAP1 SWAP2 KECCAK256 DUP1 SLOAD PUSH1 0x1 DUP3 ADD SLOAD PUSH1 0x2 DUP4 ADD SLOAD PUSH1 0x3 DUP5 ADD SLOAD SWAP5 DUP5 ADD SLOAD PUSH1 0x5 DUP6 ADD SLOAD PUSH1 0x6 DUP7 ADD SLOAD PUSH1 0x7 DUP8 ADD SLOAD PUSH1 0x8 DUP9 ADD SLOAD PUSH1 0x9 SWAP1 SWAP9 ADD SLOAD PUSH1 0xFF DUP1 DUP10 AND SWAP11 PUSH2 0x100 DUP11 DIV DUP3 AND SWAP11 PUSH3 0x10000 SWAP1 SWAP11 DIV SWAP1 SWAP2 AND SWAP9 SWAP1 SWAP6 SWAP5 PUSH1 0x1 PUSH1 0x1 PUSH1 0xA0 SHL SUB SWAP1 DUP2 AND SWAP5 DUP2 AND SWAP4 AND SWAP2 DUP13 JUMP JUMPDEST PUSH1 0x40 DUP1 MLOAD SWAP13 ISZERO ISZERO DUP14 MSTORE SWAP11 ISZERO ISZERO PUSH1 0x20 DUP14 ADD MSTORE SWAP9 ISZERO ISZERO SWAP10 DUP12 ADD SWAP10 SWAP1 SWAP10 MSTORE PUSH1 0x60 DUP11 ADD SWAP7 SWAP1 SWAP7 MSTORE PUSH1 0x80 DUP10 ADD SWAP5 SWAP1 SWAP5 MSTORE PUSH1 0xA0 DUP9 ADD SWAP3 SWAP1 SWAP3 MSTORE PUSH1 0xC0 DUP8 ADD MSTORE PUSH1 0x1 PUSH1 0x1 PUSH1 0xA0 SHL SUB SWAP1 DUP2 AND PUSH1 0xE0 DUP8 ADD MSTORE SWAP1 DUP2 AND PUSH2 0x100 DUP7 ADD MSTORE AND PUSH2 0x120 DUP5 ADD MSTORE PUSH2 0x140 DUP4 ADD SWAP2 SWAP1 SWAP2 MSTORE PUSH2 0x160 DUP3 ADD MSTORE PUSH2 0x180 ADD PUSH2 0x190 JUMP JUMPDEST CALLVALUE DUP1 ISZERO PUSH2 0x419 JUMPI PUSH0 DUP1 REVERT JUMPDEST POP PUSH2 0x2E8 PUSH2 0xE71 JUMP JUMPDEST CALLVALUE DUP1 ISZERO PUSH2 0x42D JUMPI PUSH0 DUP1 REVERT JUMPDEST POP PUSH2 0x223 PUSH1 0x1 SLOAD DUP2 JUMP JUMPDEST CALLVALUE DUP1 ISZERO PUSH2 0x442 JUMPI PUSH0 DUP1 REVERT JUMPDEST POP PUSH2 0x467 PUSH1 0x40 MLOAD DUP1 PUSH1 0x40 ADD PUSH1 0x40 MSTORE DUP1 PUSH1 0x5 DUP2 MSTORE PUSH1 0x20 ADD PUSH5 0x352E302E3 PUSH1 0xDC SHL DUP2 MSTORE POP DUP2 JUMP JUMPDEST PUSH1 0x40 MLOAD PUSH2 0x190 SWAP2 SWAP1 PUSH2 0x272B JUMP JUMPDEST CALLVALUE DUP1 ISZERO PUSH2 0x47F JUMPI PUSH0 DUP1 REVERT JUMPDEST POP PUSH2 0x1B8 PUSH2 0x48E CALLDATASIZE PUSH1 0x4 PUSH2 0x2579 JUMP JUMPDEST PUSH2 0xE9F JUMP JUMPDEST CALLVALUE DUP1 ISZERO PUSH2 0x49E JUMPI PUSH0 DUP1 REVERT JUMPDEST POP PUSH2 0x4BE PUSH2 0x4AD CALLDATASIZE PUSH1 0x4 PUSH2 0x27ED JUMP JUMPDEST PUSH4 0xBC197C81 PUSH1 0xE0 SHL SWAP6 SWAP5 POP POP POP POP POP JUMP JUMPDEST PUSH1 0x40 MLOAD PUSH1 0x1 PUSH1 0x1 PUSH1 0xE0 SHL SUB NOT SWAP1 SWAP2 AND DUP2 MSTORE PUSH1 0x20 ADD PUSH2 0x190 JUMP JUMPDEST PUSH2 0x1B8 PUSH2 0x4E5 CALLDATASIZE PUSH1 0x4 PUSH2 0x2579 JUMP JUMPDEST PUSH2 0x10DF JUMP JUMPDEST CALLVALUE DUP1 ISZERO PUSH2 0x4F5 JUMPI PUSH0 DUP1 REVERT JUMPDEST POP PUSH0 SLOAD PUSH2 0x2E8 SWAP1 PUSH1 0x1 PUSH1 0x1 PUSH1 0xA0 SHL SUB AND DUP2 JUMP JUMPDEST CALLVALUE DUP1 ISZERO PUSH2 0x513 JUMPI PUSH0 DUP1 REVERT JUMPDEST POP PUSH2 0x1B8 PUSH2 0x522 CALLDATASIZE PUSH1 0x4 PUSH2 0x28A0 JUMP JUMPDEST PUSH2 0x13A6 JUMP JUMPDEST CALLVALUE DUP1 ISZERO PUSH2 0x532 JUMPI PUSH0 DUP1 REVERT JUMPDEST POP PUSH2 0x1B8 PUSH2 0x541 CALLDATASIZE PUSH1 0x4 PUSH2 0x2972 JUMP JUMPDEST PUSH2 0x15A5 JUMP JUMPDEST CALLVALUE DUP1 ISZERO PUSH2 0x551 JUMPI PUSH0 DUP1 REVERT JUMPDEST POP PUSH2 0x4BE PUSH2 0x560 CALLDATASIZE PUSH1 0x4 PUSH2 0x2A20 JUMP JUMPDEST PUSH4 0xF23A6E61 PUSH1 0xE0 SHL SWAP6 SWAP5 POP POP POP POP POP JUMP JUMPDEST CALLVALUE DUP1 ISZERO PUSH2 0x57C JUMPI PUSH0 DUP1 REVERT JUMPDEST POP PUSH2 0x1B8 PUSH2 0x58B CALLDATASIZE PUSH1 0x4 PUSH2 0x2710 JUMP JUMPDEST PUSH2 0x17D8 JUMP JUMPDEST PUSH0 PUSH1 0x1 PUSH1 0x1 PUSH1 0xE0 SHL SUB NOT DUP3 AND PUSH4 0x2711897 PUSH1 0xE5 SHL EQ DUP1 PUSH2 0x5C0 JUMPI POP PUSH4 0x1FFC9A7 PUSH1 0xE0 SHL PUSH1 0x1 PUSH1 0x1 PUSH1 0xE0 SHL SUB NOT DUP4 AND EQ JUMPDEST SWAP3 SWAP2 POP POP JUMP JUMPDEST PUSH1 0x64 DUP2 LT ISZERO DUP1 ISZERO PUSH2 0x5D9 JUMPI POP PUSH2 0x3E8 DUP2 GT ISZERO JUMPDEST PUSH2 0x643 JUMPI PUSH1 0x40 MLOAD PUSH3 0x461BCD PUSH1 0xE5 SHL DUP2 MSTORE PUSH1 0x20 PUSH1 0x4 DUP3 ADD MSTORE PUSH1 0x30 PUSH1 0x24 DUP3 ADD MSTORE PUSH32 0x5F66697363616C53706F6E736F7250657263656E74616765206D757374206265 PUSH1 0x44 DUP3 ADD MSTORE PUSH16 0x206265747765656E203120746F20313 PUSH1 0x84 SHL PUSH1 0x64 DUP3 ADD MSTORE PUSH1 0x84 ADD JUMPDEST PUSH1 0x40 MLOAD DUP1 SWAP2 SUB SWAP1 REVERT JUMPDEST CALLER PUSH0 DUP2 DUP2 MSTORE PUSH1 0x6 PUSH1 0x20 SWAP1 DUP2 MSTORE PUSH1 0x40 SWAP2 DUP3 SWAP1 KECCAK256 DUP5 SWAP1 SSTORE DUP2 MLOAD SWAP3 DUP4 MSTORE DUP3 ADD DUP4 SWAP1 MSTORE PUSH32 0xBEE82E0CD48A0DFD192B0980A9A2C7D9B007AAD1B38C23A235B4121B554D9C8A SWAP2 ADD JUMPDEST PUSH1 0x40 MLOAD DUP1 SWAP2 SUB SWAP1 LOG1 POP JUMP JUMPDEST PUSH2 0x699 PUSH2 0x1815 JUMP JUMPDEST PUSH0 DUP2 GT DUP1 ISZERO PUSH2 0x6AA JUMPI POP PUSH2 0xBB8 DUP2 GT ISZERO JUMPDEST PUSH2 0x6F6 JUMPI PUSH1 0x40 MLOAD PUSH3 0x461BCD PUSH1 0xE5 SHL DUP2 MSTORE PUSH1 0x20 PUSH1 0x4 DUP3 ADD DUP2 SWAP1 MSTORE PUSH1 0x24 DUP3 ADD MSTORE PUSH32 0x6665652025206D757374206265747765656E20696E20312520746F2033302520 PUSH1 0x44 DUP3 ADD MSTORE PUSH1 0x64 ADD PUSH2 0x63A JUMP JUMPDEST PUSH1 0x2 DUP2 SWAP1 SSTORE PUSH1 0x40 DUP1 MLOAD DUP3 DUP2 MSTORE CALLER PUSH1 0x20 DUP3 ADD MSTORE PUSH32 0x8B52E67D733E4BFFDB3A2DF53E3B88E2F31125FC8A8442B742602F8F7D0ED3E9 SWAP2 ADD PUSH2 0x686 JUMP JUMPDEST DUP5 PUSH0 DUP2 GT PUSH2 0x754 JUMPI PUSH1 0x40 MLOAD PUSH4 0xC860174B PUSH1 0xE0 SHL DUP2 MSTORE PUSH1 0x4 DUP2 ADD DUP3 SWAP1 MSTORE PUSH1 0x24 ADD PUSH2 0x63A JUMP JUMPDEST PUSH0 DUP2 DUP2 MSTORE PUSH1 0x4 PUSH1 0x20 MSTORE PUSH1 0x40 SWAP1 KECCAK256 SLOAD PUSH1 0xFF AND PUSH2 0x79A JUMPI PUSH0 DUP2 DUP2 MSTORE PUSH1 0x4 PUSH1 0x20 DUP2 SWAP1 MSTORE PUSH1 0x40 SWAP2 DUP3 SWAP1 KECCAK256 SLOAD SWAP2 MLOAD PUSH4 0xE6C1C637 PUSH1 0xE0 SHL DUP2 MSTORE PUSH1 0xFF SWAP1 SWAP3 AND ISZERO ISZERO SWAP1 DUP3 ADD MSTORE PUSH1 0x24 ADD PUSH2 0x63A JUMP JUMPDEST PUSH0 DUP2 DUP2 MSTORE PUSH1 0x4 PUSH1 0x20 MSTORE PUSH1 0x40 SWAP1 KECCAK256 SLOAD PUSH2 0x100 SWAP1 DIV PUSH1 0xFF AND ISZERO PUSH2 0x7E9 JUMPI PUSH0 DUP2 DUP2 MSTORE PUSH1 0x4 PUSH1 0x20 DUP2 SWAP1 MSTORE PUSH1 0x40 SWAP2 DUP3 SWAP1 KECCAK256 SLOAD SWAP2 MLOAD PUSH3 0x246805 PUSH1 0xE9 SHL DUP2 MSTORE PUSH2 0x100 SWAP1 SWAP3 DIV PUSH1 0xFF AND ISZERO ISZERO SWAP1 DUP3 ADD MSTORE PUSH1 0x24 ADD PUSH2 0x63A JUMP JUMPDEST PUSH0 DUP7 DUP2 MSTORE PUSH1 0x4 PUSH1 0x20 DUP2 SWAP1 MSTORE PUSH1 0x40 SWAP1 SWAP2 KECCAK256 PUSH1 0x3 DUP2 ADD SLOAD SWAP2 DUP2 ADD SLOAD PUSH1 0x7 SWAP1 SWAP2 ADD SLOAD PUSH2 0x823 SWAP3 SWAP2 SWAP1 DUP9 SWAP1 DUP9 SWAP1 DUP9 SWAP1 PUSH1 0x1 PUSH1 0x1 PUSH1 0xA0 SHL SUB AND DUP9 PUSH2 0x1847 JUMP JUMPDEST PUSH0 DUP7 DUP2 MSTORE PUSH1 0x4 PUSH1 0x20 SWAP1 DUP2 MSTORE PUSH1 0x40 SWAP2 DUP3 SWAP1 KECCAK256 PUSH1 0x2 DUP2 ADD SLOAD PUSH1 0x9 DUP3 ADD SLOAD PUSH1 0x8 SWAP1 SWAP3 ADD SLOAD DUP5 MLOAD SWAP2 DUP3 MSTORE SWAP3 DUP2 ADD SWAP2 SWAP1 SWAP2 MSTORE SWAP2 DUP3 ADD MSTORE PUSH32 0xD3F4E53A5792E81767B11408A290F82CF83FDE26090D65773F2C0A9AEB63ADFB SWAP1 PUSH1 0x60 ADD PUSH1 0x40 MLOAD DUP1 SWAP2 SUB SWAP1 LOG1 POP POP POP POP POP POP JUMP JUMPDEST PUSH32 0xF0C57E16840DF040F15088DC2F81FE391C3923BEC73E23A9662EFC9C229C6A00 DUP1 SLOAD PUSH1 0x1 PUSH1 0x40 SHL DUP2 DIV PUSH1 0xFF AND ISZERO SWAP1 PUSH8 0xFFFFFFFFFFFFFFFF AND PUSH0 DUP2 ISZERO DUP1 ISZERO PUSH2 0x8CE JUMPI POP DUP3 JUMPDEST SWAP1 POP PUSH0 DUP3 PUSH8 0xFFFFFFFFFFFFFFFF AND PUSH1 0x1 EQ DUP1 ISZERO PUSH2 0x8EA JUMPI POP ADDRESS EXTCODESIZE ISZERO JUMPDEST SWAP1 POP DUP2 ISZERO DUP1 ISZERO PUSH2 0x8F8 JUMPI POP DUP1 ISZERO JUMPDEST ISZERO PUSH2 0x916 JUMPI PUSH1 0x40 MLOAD PUSH4 0xF92EE8A9 PUSH1 0xE0 SHL DUP2 MSTORE PUSH1 0x4 ADD PUSH1 0x40 MLOAD DUP1 SWAP2 SUB SWAP1 REVERT JUMPDEST DUP5 SLOAD PUSH8 0xFFFFFFFFFFFFFFFF NOT AND PUSH1 0x1 OR DUP6 SSTORE DUP4 ISZERO PUSH2 0x940 JUMPI DUP5 SLOAD PUSH1 0xFF PUSH1 0x40 SHL NOT AND PUSH1 0x1 PUSH1 0x40 SHL OR DUP6 SSTORE JUMPDEST PUSH1 0xFA PUSH1 0x2 SSTORE PUSH1 0x3 DUP1 SLOAD PUSH1 0x1 PUSH1 0x1 PUSH1 0xA0 SHL SUB DUP10 AND PUSH1 0x1 PUSH1 0x1 PUSH1 0xA0 SHL SUB NOT SWAP2 DUP3 AND DUP2 OR SWAP1 SWAP3 SSTORE PUSH0 DUP1 SLOAD SWAP1 SWAP2 AND SWAP1 SWAP2 OR SWAP1 SSTORE PUSH2 0x977 PUSH2 0x19EF JUMP JUMPDEST PUSH2 0x980 DUP7 PUSH2 0x19F7 JUMP JUMPDEST PUSH2 0x988 PUSH2 0x19EF JUMP JUMPDEST DUP4 ISZERO PUSH2 0x9CE JUMPI DUP5 SLOAD PUSH1 0xFF PUSH1 0x40 SHL NOT AND DUP6 SSTORE PUSH1 0x40 MLOAD PUSH1 0x1 DUP2 MSTORE PUSH32 0xC7F505B2F371AE2175EE4913F4499E1F2633A7B5936321EED1CDAEB6115181D2 SWAP1 PUSH1 0x20 ADD PUSH1 0x40 MLOAD DUP1 SWAP2 SUB SWAP1 LOG1 JUMPDEST POP POP POP POP POP POP POP JUMP JUMPDEST DUP1 PUSH0 DUP2 GT PUSH2 0x9FB JUMPI PUSH1 0x40 MLOAD PUSH4 0xC860174B PUSH1 0xE0 SHL DUP2 MSTORE PUSH1 0x4 DUP2 ADD DUP3 SWAP1 MSTORE PUSH1 0x24 ADD PUSH2 0x63A JUMP JUMPDEST PUSH0 DUP2 DUP2 MSTORE PUSH1 0x4 PUSH1 0x20 MSTORE PUSH1 0x40 SWAP1 KECCAK256 SLOAD PUSH1 0xFF AND PUSH2 0xA41 JUMPI PUSH0 DUP2 DUP2 MSTORE PUSH1 0x4 PUSH1 0x20 DUP2 SWAP1 MSTORE PUSH1 0x40 SWAP2 DUP3 SWAP1 KECCAK256 SLOAD SWAP2 MLOAD PUSH4 0xE6C1C637 PUSH1 0xE0 SHL DUP2 MSTORE PUSH1 0xFF SWAP1 SWAP3 AND ISZERO ISZERO SWAP1 DUP3 ADD MSTORE PUSH1 0x24 ADD PUSH2 0x63A JUMP JUMPDEST PUSH0 DUP2 DUP2 MSTORE PUSH1 0x4 PUSH1 0x20 MSTORE PUSH1 0x40 SWAP1 KECCAK256 SLOAD PUSH2 0x100 SWAP1 DIV PUSH1 0xFF AND ISZERO PUSH2 0xA90 JUMPI PUSH0 DUP2 DUP2 MSTORE PUSH1 0x4 PUSH1 0x20 DUP2 SWAP1 MSTORE PUSH1 0x40 SWAP2 DUP3 SWAP1 KECCAK256 SLOAD SWAP2 MLOAD PUSH3 0x246805 PUSH1 0xE9 SHL DUP2 MSTORE PUSH2 0x100 SWAP1 SWAP3 DIV PUSH1 0xFF AND ISZERO ISZERO SWAP1 DUP3 ADD MSTORE PUSH1 0x24 ADD PUSH2 0x63A JUMP JUMPDEST PUSH0 DUP3 DUP2 MSTORE PUSH1 0x4 PUSH1 0x20 MSTORE PUSH1 0x40 SWAP1 KECCAK256 PUSH1 0x2 ADD SLOAD CALLVALUE EQ PUSH2 0xAC2 JUMPI PUSH1 0x40 MLOAD PUSH4 0x85D649F7 PUSH1 0xE0 SHL DUP2 MSTORE CALLVALUE PUSH1 0x4 DUP3 ADD MSTORE PUSH1 0x24 ADD PUSH2 0x63A JUMP JUMPDEST PUSH0 DUP3 DUP2 MSTORE PUSH1 0x4 PUSH1 0x20 MSTORE PUSH1 0x40 SWAP1 KECCAK256 SLOAD PUSH3 0x10000 SWAP1 DIV PUSH1 0xFF AND PUSH2 0xB13 JUMPI PUSH0 DUP3 DUP2 MSTORE PUSH1 0x4 PUSH1 0x20 DUP2 SWAP1 MSTORE PUSH1 0x40 SWAP2 DUP3 SWAP1 KECCAK256 SLOAD SWAP2 MLOAD PUSH4 0x9CF9F1F7 PUSH1 0xE0 SHL DUP2 MSTORE PUSH3 0x10000 SWAP1 SWAP3 DIV PUSH1 0xFF AND ISZERO ISZERO SWAP1 DUP3 ADD MSTORE PUSH1 0x24 ADD PUSH2 0x63A JUMP JUMPDEST PUSH0 DUP3 DUP2 MSTORE PUSH1 0x4 PUSH1 0x20 MSTORE PUSH1 0x40 SWAP1 KECCAK256 PUSH1 0x5 ADD SLOAD PUSH1 0x1 PUSH1 0x1 PUSH1 0xA0 SHL SUB AND CALLER SUB PUSH2 0xB6B JUMPI PUSH0 DUP3 DUP2 MSTORE PUSH1 0x4 PUSH1 0x20 DUP2 SWAP1 MSTORE PUSH1 0x40 SWAP2 DUP3 SWAP1 KECCAK256 PUSH1 0x5 ADD SLOAD SWAP2 MLOAD PUSH4 0x4A83C1B PUSH1 0xE5 SHL DUP2 MSTORE PUSH1 0x1 PUSH1 0x1 PUSH1 0xA0 SHL SUB SWAP1 SWAP3 AND SWAP1 DUP3 ADD MSTORE PUSH1 0x24 ADD PUSH2 0x63A JUMP JUMPDEST PUSH0 DUP3 DUP2 MSTORE PUSH1 0x4 PUSH1 0x20 MSTORE PUSH1 0x40 DUP2 KECCAK256 PUSH1 0x6 DUP2 ADD DUP1 SLOAD PUSH1 0x1 PUSH1 0x1 PUSH1 0xA0 SHL SUB NOT AND CALLER OR SWAP1 SSTORE PUSH1 0x1 ADD SLOAD ISZERO PUSH2 0xBBE JUMPI PUSH0 DUP4 DUP2 MSTORE PUSH1 0x4 PUSH1 0x20 MSTORE PUSH1 0x40 SWAP1 KECCAK256 PUSH1 0x2 DUP2 ADD SLOAD PUSH1 0x1 SWAP1 SWAP2 ADD SLOAD PUSH2 0xBB7 SWAP2 SWAP1 PUSH2 0x1A08 JUMP JUMPDEST SWAP1 POP PUSH2 0xBE1 JUMP JUMPDEST PUSH2 0xBDE PUSH1 0x4 PUSH0 DUP6 DUP2 MSTORE PUSH1 0x20 ADD SWAP1 DUP2 MSTORE PUSH1 0x20 ADD PUSH0 KECCAK256 PUSH1 0x2 ADD SLOAD PUSH1 0x2 SLOAD PUSH2 0x1A08 JUMP JUMPDEST SWAP1 POP JUMPDEST PUSH0 DUP4 DUP2 MSTORE PUSH1 0x5 PUSH1 0x20 MSTORE PUSH1 0x40 DUP2 KECCAK256 SLOAD ISZERO PUSH2 0xC00 JUMPI PUSH2 0xBFD DUP5 PUSH2 0x1ABE JUMP JUMPDEST SWAP1 POP JUMPDEST PUSH0 DUP1 SLOAD DUP6 DUP3 MSTORE PUSH1 0x4 PUSH1 0x20 DUP2 SWAP1 MSTORE PUSH1 0x40 DUP1 DUP5 KECCAK256 PUSH1 0x5 ADD SLOAD SWAP1 MLOAD PUSH4 0x53F50119 PUSH1 0xE0 SHL DUP2 MSTORE PUSH1 0x1 PUSH1 0x1 PUSH1 0xA0 SHL SUB SWAP2 DUP3 AND SWAP3 DUP2 ADD SWAP3 SWAP1 SWAP3 MSTORE SWAP1 SWAP2 AND SWAP1 PUSH4 0x53F50119 SWAP1 PUSH1 0x24 ADD PUSH1 0x80 PUSH1 0x40 MLOAD DUP1 DUP4 SUB DUP2 DUP7 GAS STATICCALL ISZERO DUP1 ISZERO PUSH2 0xC5C JUMPI RETURNDATASIZE PUSH0 DUP1 RETURNDATACOPY RETURNDATASIZE PUSH0 REVERT JUMPDEST POP POP POP POP PUSH1 0x40 MLOAD RETURNDATASIZE PUSH1 0x1F NOT PUSH1 0x1F DUP3 ADD AND DUP3 ADD DUP1 PUSH1 0x40 MSTORE POP DUP2 ADD SWAP1 PUSH2 0xC80 SWAP2 SWAP1 PUSH2 0x2A78 JUMP JUMPDEST POP POP POP SWAP1 POP PUSH0 DUP2 ISZERO PUSH2 0xC9A JUMPI PUSH2 0xC97 DUP7 PUSH0 DUP1 PUSH2 0x1C8F JUMP JUMPDEST SWAP1 POP JUMPDEST PUSH0 PUSH2 0xCA4 DUP8 PUSH2 0x1DCE JUMP JUMPDEST SWAP1 POP PUSH0 DUP2 DUP4 PUSH2 0xCB3 DUP8 DUP10 PUSH2 0x2AE2 JUMP JUMPDEST PUSH2 0xCBD SWAP2 SWAP1 PUSH2 0x2AE2 JUMP JUMPDEST PUSH2 0xCC7 SWAP2 SWAP1 PUSH2 0x2AE2 JUMP JUMPDEST PUSH0 DUP10 DUP2 MSTORE PUSH1 0x4 PUSH1 0x20 MSTORE PUSH1 0x40 SWAP1 KECCAK256 PUSH1 0x2 ADD SLOAD PUSH2 0xCE2 SWAP2 SWAP1 PUSH2 0x2AF5 JUMP JUMPDEST SWAP1 POP PUSH2 0xCF5 PUSH2 0xCEF PUSH2 0xE71 JUMP JUMPDEST DUP8 PUSH2 0x1EA3 JUMP JUMPDEST PUSH0 DUP9 DUP2 MSTORE PUSH1 0x4 PUSH1 0x20 MSTORE PUSH1 0x40 SWAP1 KECCAK256 PUSH1 0x5 ADD SLOAD PUSH2 0xD19 SWAP1 PUSH1 0x1 PUSH1 0x1 PUSH1 0xA0 SHL SUB AND DUP3 PUSH2 0x1EA3 JUMP JUMPDEST PUSH0 DUP9 DUP2 MSTORE PUSH1 0x4 PUSH1 0x20 DUP2 SWAP1 MSTORE PUSH1 0x40 SWAP1 SWAP2 KECCAK256 DUP1 SLOAD PUSH2 0xFF00 NOT AND PUSH2 0x100 OR DUP2 SSTORE PUSH1 0x7 DUP2 ADD SLOAD PUSH1 0x6 DUP3 ADD SLOAD PUSH1 0x3 DUP4 ADD SLOAD SWAP3 SWAP1 SWAP4 ADD SLOAD PUSH2 0xD66 SWAP4 PUSH1 0x1 PUSH1 0x1 PUSH1 0xA0 SHL SUB SWAP3 DUP4 AND SWAP4 ADDRESS SWAP4 SWAP2 SWAP1 SWAP2 AND SWAP2 PUSH2 0x1F39 JUMP JUMPDEST PUSH0 DUP9 DUP2 MSTORE PUSH1 0x4 PUSH1 0x20 DUP2 DUP2 MSTORE PUSH1 0x40 SWAP3 DUP4 SWAP1 KECCAK256 PUSH1 0x7 DUP2 ADD SLOAD PUSH1 0x3 DUP3 ADD SLOAD PUSH1 0x6 DUP4 ADD SLOAD SWAP3 SWAP1 SWAP5 ADD SLOAD DUP6 MLOAD ADDRESS DUP2 MSTORE PUSH1 0x1 PUSH1 0x1 PUSH1 0xA0 SHL SUB SWAP4 DUP5 AND SWAP5 DUP2 ADD SWAP5 SWAP1 SWAP5 MSTORE DUP4 DUP7 ADD MSTORE SWAP4 MLOAD SWAP4 AND SWAP3 PUSH32 0x1A7BAF821561AE36AA58D172BD77037C6F9C19177E5B840E3D413C110A80E45 SWAP2 DUP2 SWAP1 SUB PUSH1 0x60 ADD SWAP1 LOG3 DUP1 DUP6 DUP8 PUSH32 0x36203E70AEB15B48FC7B10549158C6ACC3BA3235BA2644757016FB33D4FA3944 DUP7 DUP7 PUSH1 0x40 MLOAD PUSH2 0xE12 SWAP3 SWAP2 SWAP1 SWAP2 DUP3 MSTORE PUSH1 0x20 DUP3 ADD MSTORE PUSH1 0x40 ADD SWAP1 JUMP JUMPDEST PUSH1 0x40 MLOAD DUP1 SWAP2 SUB SWAP1 LOG4 POP POP POP POP POP POP POP POP JUMP JUMPDEST PUSH2 0xE2C PUSH2 0x1FC9 JUMP JUMPDEST PUSH2 0xE35 DUP3 PUSH2 0x206D JUMP JUMPDEST PUSH2 0xE3F DUP3 DUP3 PUSH2 0x2075 JUMP JUMPDEST POP POP JUMP JUMPDEST PUSH0 PUSH2 0xE4C PUSH2 0x2131 JUMP JUMPDEST POP PUSH0 DUP1 MLOAD PUSH1 0x20 PUSH2 0x2BBC DUP4 CODECOPY DUP2 MLOAD SWAP2 MSTORE SWAP1 JUMP JUMPDEST PUSH2 0xE66 PUSH2 0x1815 JUMP JUMPDEST PUSH2 0xE6F PUSH0 PUSH2 0x217A JUMP JUMPDEST JUMP JUMPDEST PUSH32 0x9016D09D72D40FDAE2FD8CEAC6B6234C7706214FD39C1CD1E609A0528C199300 SLOAD PUSH1 0x1 PUSH1 0x1 PUSH1 0xA0 SHL SUB AND SWAP1 JUMP JUMPDEST DUP1 PUSH0 DUP2 GT PUSH2 0xEC3 JUMPI PUSH1 0x40 MLOAD PUSH4 0xC860174B PUSH1 0xE0 SHL DUP2 MSTORE PUSH1 0x4 DUP2 ADD DUP3 SWAP1 MSTORE PUSH1 0x24 ADD PUSH2 0x63A JUMP JUMPDEST PUSH0 DUP2 DUP2 MSTORE PUSH1 0x4 PUSH1 0x20 MSTORE PUSH1 0x40 SWAP1 KECCAK256 SLOAD PUSH1 0xFF AND PUSH2 0xF09 JUMPI PUSH0 DUP2 DUP2 MSTORE PUSH1 0x4 PUSH1 0x20 DUP2 SWAP1 MSTORE PUSH1 0x40 SWAP2 DUP3 SWAP1 KECCAK256 SLOAD SWAP2 MLOAD PUSH4 0xE6C1C637 PUSH1 0xE0 SHL DUP2 MSTORE PUSH1 0xFF SWAP1 SWAP3 AND ISZERO ISZERO SWAP1 DUP3 ADD MSTORE PUSH1 0x24 ADD PUSH2 0x63A JUMP JUMPDEST PUSH0 DUP2 DUP2 MSTORE PUSH1 0x4 PUSH1 0x20 MSTORE PUSH1 0x40 SWAP1 KECCAK256 SLOAD PUSH2 0x100 SWAP1 DIV PUSH1 0xFF AND ISZERO PUSH2 0xF58 JUMPI PUSH0 DUP2 DUP2 MSTORE PUSH1 0x4 PUSH1 0x20 DUP2 SWAP1 MSTORE PUSH1 0x40 SWAP2 DUP3 SWAP1 KECCAK256 SLOAD SWAP2 MLOAD PUSH3 0x246805 PUSH1 0xE9 SHL DUP2 MSTORE PUSH2 0x100 SWAP1 SWAP3 DIV PUSH1 0xFF AND ISZERO ISZERO SWAP1 DUP3 ADD MSTORE PUSH1 0x24 ADD PUSH2 0x63A JUMP JUMPDEST PUSH0 DUP3 DUP2 MSTORE PUSH1 0x4 PUSH1 0x20 MSTORE PUSH1 0x40 SWAP1 KECCAK256 SLOAD PUSH3 0x10000 SWAP1 DIV PUSH1 0xFF AND ISZERO PUSH2 0xFAA JUMPI PUSH0 DUP3 DUP2 MSTORE PUSH1 0x4 PUSH1 0x20 DUP2 SWAP1 MSTORE PUSH1 0x40 SWAP2 DUP3 SWAP1 KECCAK256 SLOAD SWAP2 MLOAD PUSH4 0x2A515AF5 PUSH1 0xE1 SHL DUP2 MSTORE PUSH3 0x10000 SWAP1 SWAP3 DIV PUSH1 0xFF AND ISZERO ISZERO SWAP1 DUP3 ADD MSTORE PUSH1 0x24 ADD PUSH2 0x63A JUMP JUMPDEST PUSH0 DUP3 DUP2 MSTORE PUSH1 0x4 PUSH1 0x20 MSTORE PUSH1 0x40 SWAP1 KECCAK256 PUSH1 0x5 ADD SLOAD PUSH1 0x1 PUSH1 0x1 PUSH1 0xA0 SHL SUB AND CALLER EQ DUP1 PUSH2 0xFE9 JUMPI POP PUSH0 DUP3 DUP2 MSTORE PUSH1 0x4 PUSH1 0x20 MSTORE PUSH1 0x40 SWAP1 KECCAK256 PUSH1 0x6 ADD SLOAD PUSH1 0x1 PUSH1 0x1 PUSH1 0xA0 SHL SUB AND CALLER EQ JUMPDEST PUSH2 0x1053 JUMPI PUSH1 0x40 MLOAD PUSH3 0x461BCD PUSH1 0xE5 SHL DUP2 MSTORE PUSH1 0x20 PUSH1 0x4 DUP3 ADD MSTORE PUSH1 0x35 PUSH1 0x24 DUP3 ADD MSTORE PUSH32 0x596F7520617265206E6F7420746865206E66744F776E6572206E656974686572 PUSH1 0x44 DUP3 ADD MSTORE PUSH21 0x103A3432903432B4B3B432B9BA103134B23232B917 PUSH1 0x59 SHL PUSH1 0x64 DUP3 ADD MSTORE PUSH1 0x84 ADD PUSH2 0x63A JUMP JUMPDEST PUSH0 DUP3 DUP2 MSTORE PUSH1 0x4 PUSH1 0x20 MSTORE PUSH1 0x40 SWAP1 KECCAK256 PUSH1 0x8 ADD SLOAD TIMESTAMP LT ISZERO PUSH2 0x10A7 JUMPI PUSH0 DUP3 DUP2 MSTORE PUSH1 0x4 PUSH1 0x20 DUP2 SWAP1 MSTORE PUSH1 0x40 SWAP2 DUP3 SWAP1 KECCAK256 PUSH1 0x9 DUP2 ADD SLOAD PUSH1 0x8 SWAP1 SWAP2 ADD SLOAD SWAP3 MLOAD PUSH4 0xDD96246F PUSH1 0xE0 SHL DUP2 MSTORE SWAP2 DUP3 ADD MSTORE PUSH1 0x24 DUP2 ADD SWAP2 SWAP1 SWAP2 MSTORE PUSH1 0x44 ADD PUSH2 0x63A JUMP JUMPDEST PUSH0 DUP3 DUP2 MSTORE PUSH1 0x4 PUSH1 0x20 MSTORE PUSH1 0x40 DUP2 KECCAK256 PUSH1 0x1 ADD SLOAD ISZERO PUSH2 0xBBE JUMPI PUSH0 DUP4 DUP2 MSTORE PUSH1 0x4 PUSH1 0x20 MSTORE PUSH1 0x40 SWAP1 KECCAK256 PUSH1 0x2 DUP2 ADD SLOAD PUSH1 0x1 SWAP1 SWAP2 ADD SLOAD PUSH2 0xBB7 SWAP2 SWAP1 PUSH2 0x1A08 JUMP JUMPDEST DUP1 PUSH0 DUP2 GT PUSH2 0x1103 JUMPI PUSH1 0x40 MLOAD PUSH4 0xC860174B PUSH1 0xE0 SHL DUP2 MSTORE PUSH1 0x4 DUP2 ADD DUP3 SWAP1 MSTORE PUSH1 0x24 ADD PUSH2 0x63A JUMP JUMPDEST PUSH0 DUP2 DUP2 MSTORE PUSH1 0x4 PUSH1 0x20 MSTORE PUSH1 0x40 SWAP1 KECCAK256 SLOAD PUSH1 0xFF AND PUSH2 0x1149 JUMPI PUSH0 DUP2 DUP2 MSTORE PUSH1 0x4 PUSH1 0x20 DUP2 SWAP1 MSTORE PUSH1 0x40 SWAP2 DUP3 SWAP1 KECCAK256 SLOAD SWAP2 MLOAD PUSH4 0xE6C1C637 PUSH1 0xE0 SHL DUP2 MSTORE PUSH1 0xFF SWAP1 SWAP3 AND ISZERO ISZERO SWAP1 DUP3 ADD MSTORE PUSH1 0x24 ADD PUSH2 0x63A JUMP JUMPDEST PUSH0 DUP2 DUP2 MSTORE PUSH1 0x4 PUSH1 0x20 MSTORE PUSH1 0x40 SWAP1 KECCAK256 SLOAD PUSH2 0x100 SWAP1 DIV PUSH1 0xFF AND ISZERO PUSH2 0x1198 JUMPI PUSH0 DUP2 DUP2 MSTORE PUSH1 0x4 PUSH1 0x20 DUP2 SWAP1 MSTORE PUSH1 0x40 SWAP2 DUP3 SWAP1 KECCAK256 SLOAD SWAP2 MLOAD PUSH3 0x246805 PUSH1 0xE9 SHL DUP2 MSTORE PUSH2 0x100 SWAP1 SWAP3 DIV PUSH1 0xFF AND ISZERO ISZERO SWAP1 DUP3 ADD MSTORE PUSH1 0x24 ADD PUSH2 0x63A JUMP JUMPDEST PUSH0 DUP3 DUP2 MSTORE PUSH1 0x4 PUSH1 0x20 MSTORE PUSH1 0x40 SWAP1 KECCAK256 SLOAD PUSH3 0x10000 SWAP1 DIV PUSH1 0xFF AND ISZERO PUSH2 0x11EA JUMPI PUSH0 DUP3 DUP2 MSTORE PUSH1 0x4 PUSH1 0x20 DUP2 SWAP1 MSTORE PUSH1 0x40 SWAP2 DUP3 SWAP1 KECCAK256 SLOAD SWAP2 MLOAD PUSH4 0x2A515AF5 PUSH1 0xE1 SHL DUP2 MSTORE PUSH3 0x10000 SWAP1 SWAP3 DIV PUSH1 0xFF AND ISZERO ISZERO SWAP1 DUP3 ADD MSTORE PUSH1 0x24 ADD PUSH2 0x63A JUMP JUMPDEST CALLVALUE ISZERO DUP1 PUSH2 0x1206 JUMPI POP PUSH0 DUP3 DUP2 MSTORE PUSH1 0x4 PUSH1 0x20 MSTORE PUSH1 0x40 SWAP1 KECCAK256 PUSH1 0x2 ADD SLOAD CALLVALUE LT JUMPDEST ISZERO PUSH2 0x1226 JUMPI PUSH1 0x40 MLOAD PUSH4 0x85D649F7 PUSH1 0xE0 SHL DUP2 MSTORE CALLVALUE PUSH1 0x4 DUP3 ADD MSTORE PUSH1 0x24 ADD PUSH2 0x63A JUMP JUMPDEST PUSH0 DUP3 DUP2 MSTORE PUSH1 0x4 PUSH1 0x20 MSTORE PUSH1 0x40 SWAP1 KECCAK256 PUSH1 0x9 ADD SLOAD TIMESTAMP LT DUP1 PUSH2 0x1253 JUMPI POP PUSH0 DUP3 DUP2 MSTORE PUSH1 0x4 PUSH1 0x20 MSTORE PUSH1 0x40 SWAP1 KECCAK256 PUSH1 0x8 ADD SLOAD TIMESTAMP GT JUMPDEST ISZERO PUSH2 0x1294 JUMPI PUSH0 DUP3 DUP2 MSTORE PUSH1 0x4 PUSH1 0x20 DUP2 SWAP1 MSTORE PUSH1 0x40 SWAP2 DUP3 SWAP1 KECCAK256 PUSH1 0x9 DUP2 ADD SLOAD PUSH1 0x8 SWAP1 SWAP2 ADD SLOAD SWAP3 MLOAD PUSH4 0xDD96246F PUSH1 0xE0 SHL DUP2 MSTORE SWAP2 DUP3 ADD MSTORE PUSH1 0x24 DUP2 ADD SWAP2 SWAP1 SWAP2 MSTORE PUSH1 0x44 ADD PUSH2 0x63A JUMP JUMPDEST PUSH0 DUP3 DUP2 MSTORE PUSH1 0x4 PUSH1 0x20 MSTORE PUSH1 0x40 SWAP1 KECCAK256 PUSH1 0x5 ADD SLOAD PUSH1 0x1 PUSH1 0x1 PUSH1 0xA0 SHL SUB AND CALLER SUB PUSH2 0x12EC JUMPI PUSH0 DUP3 DUP2 MSTORE PUSH1 0x4 PUSH1 0x20 DUP2 SWAP1 MSTORE PUSH1 0x40 SWAP2 DUP3 SWAP1 KECCAK256 PUSH1 0x5 ADD SLOAD SWAP2 MLOAD PUSH4 0x4A83C1B PUSH1 0xE5 SHL DUP2 MSTORE PUSH1 0x1 PUSH1 0x1 PUSH1 0xA0 SHL SUB SWAP1 SWAP3 AND SWAP1 DUP3 ADD MSTORE PUSH1 0x24 ADD PUSH2 0x63A JUMP JUMPDEST PUSH0 DUP3 DUP2 MSTORE PUSH1 0x4 PUSH1 0x20 MSTORE PUSH1 0x40 SWAP1 KECCAK256 PUSH1 0x2 DUP2 ADD SLOAD PUSH1 0x6 SWAP1 SWAP2 ADD SLOAD PUSH1 0x1 PUSH1 0x1 PUSH1 0xA0 SHL SUB AND DUP2 ISZERO DUP1 ISZERO SWAP1 PUSH2 0x1324 JUMPI POP PUSH1 0x1 PUSH1 0x1 PUSH1 0xA0 SHL SUB DUP2 AND ISZERO ISZERO JUMPDEST ISZERO PUSH2 0x1333 JUMPI PUSH2 0x1333 DUP2 DUP4 PUSH2 0x1EA3 JUMP JUMPDEST PUSH0 DUP5 DUP2 MSTORE PUSH1 0x4 PUSH1 0x20 SWAP1 DUP2 MSTORE PUSH1 0x40 SWAP2 DUP3 SWAP1 KECCAK256 CALLVALUE PUSH1 0x2 DUP3 ADD DUP2 SWAP1 SSTORE PUSH1 0x6 SWAP1 SWAP2 ADD DUP1 SLOAD PUSH1 0x1 PUSH1 0x1 PUSH1 0xA0 SHL SUB NOT AND CALLER SWAP1 DUP2 OR SWAP1 SWAP2 SSTORE DUP4 MLOAD SWAP1 DUP2 MSTORE SWAP2 DUP3 ADD MSTORE SWAP1 DUP2 ADD DUP4 SWAP1 MSTORE PUSH32 0xA6E846933627BEDFE46F69605777A6483FB976F59199EC63196AA8442C8EB123 SWAP1 PUSH1 0x60 ADD PUSH1 0x40 MLOAD DUP1 SWAP2 SUB SWAP1 LOG1 POP POP POP POP JUMP JUMPDEST PUSH0 DUP1 SLOAD PUSH1 0x40 MLOAD PUSH4 0x53F50119 PUSH1 0xE0 SHL DUP2 MSTORE CALLER PUSH1 0x4 DUP3 ADD MSTORE DUP4 SWAP3 SWAP2 DUP3 SWAP2 DUP3 SWAP2 PUSH1 0x1 PUSH1 0x1 PUSH1 0xA0 SHL SUB AND SWAP1 PUSH4 0x53F50119 SWAP1 PUSH1 0x24 ADD PUSH1 0x80 PUSH1 0x40 MLOAD DUP1 DUP4 SUB DUP2 DUP7 GAS STATICCALL ISZERO DUP1 ISZERO PUSH2 0x13F1 JUMPI RETURNDATASIZE PUSH0 DUP1 RETURNDATACOPY RETURNDATASIZE PUSH0 REVERT JUMPDEST POP POP POP POP PUSH1 0x40 MLOAD RETURNDATASIZE PUSH1 0x1F NOT PUSH1 0x1F DUP3 ADD AND DUP3 ADD DUP1 PUSH1 0x40 MSTORE POP DUP2 ADD SWAP1 PUSH2 0x1415 SWAP2 SWAP1 PUSH2 0x2A78 JUMP JUMPDEST POP SWAP3 POP SWAP3 POP SWAP3 POP DUP3 ISZERO PUSH2 0x147C JUMPI DUP1 PUSH1 0x1 PUSH1 0x1 PUSH1 0xA0 SHL SUB AND DUP5 PUSH1 0x1 PUSH1 0x1 PUSH1 0xA0 SHL SUB AND EQ PUSH2 0x147C JUMPI PUSH1 0x40 MLOAD PUSH3 0x461BCD PUSH1 0xE5 SHL DUP2 MSTORE PUSH1 0x20 PUSH1 0x4 DUP3 ADD MSTORE PUSH1 0x16 PUSH1 0x24 DUP3 ADD MSTORE PUSH22 0x3BB937B733903334B9B1B0B61039B837B739B7B91097 PUSH1 0x51 SHL PUSH1 0x44 DUP3 ADD MSTORE PUSH1 0x64 ADD PUSH2 0x63A JUMP JUMPDEST PUSH0 DUP13 GT PUSH2 0x149F JUMPI PUSH1 0x40 MLOAD PUSH4 0xBAF301F7 PUSH1 0xE0 SHL DUP2 MSTORE PUSH1 0x4 DUP2 ADD DUP14 SWAP1 MSTORE PUSH1 0x24 ADD PUSH2 0x63A JUMP JUMPDEST PUSH0 DUP10 GT PUSH2 0x14C2 JUMPI PUSH1 0x40 MLOAD PUSH4 0x43599F69 PUSH1 0xE1 SHL DUP2 MSTORE PUSH1 0x4 DUP2 ADD DUP11 SWAP1 MSTORE PUSH1 0x24 ADD PUSH2 0x63A JUMP JUMPDEST PUSH0 DUP9 GT PUSH2 0x14E5 JUMPI PUSH1 0x40 MLOAD PUSH4 0x8E57A1B3 PUSH1 0xE0 SHL DUP2 MSTORE PUSH1 0x4 DUP2 ADD DUP10 SWAP1 MSTORE PUSH1 0x24 ADD PUSH2 0x63A JUMP JUMPDEST PUSH1 0x1 DUP1 SLOAD SWAP1 PUSH0 PUSH2 0x14F4 DUP4 PUSH2 0x2B08 JUMP JUMPDEST SWAP2 SWAP1 POP SSTORE POP PUSH2 0x1508 DUP10 DUP10 DUP15 DUP15 DUP15 DUP13 DUP13 PUSH2 0x1847 JUMP JUMPDEST PUSH1 0x3 SLOAD PUSH1 0x1 PUSH1 0x1 PUSH1 0xA0 SHL SUB DUP9 DUP2 AND SWAP2 AND EQ PUSH2 0x1530 JUMPI PUSH2 0x152B DUP10 DUP10 PUSH1 0x1 SLOAD DUP11 PUSH2 0x21EA JUMP JUMPDEST PUSH2 0x154D JUMP JUMPDEST PUSH1 0x1 SLOAD PUSH1 0x3 SLOAD PUSH2 0x154D SWAP2 DUP12 SWAP2 DUP12 SWAP2 SWAP1 PUSH1 0x1 PUSH1 0x1 PUSH1 0xA0 SHL SUB AND PUSH2 0x21EA JUMP JUMPDEST PUSH1 0x1 SLOAD PUSH1 0x40 DUP1 MLOAD SWAP2 DUP3 MSTORE PUSH1 0x20 DUP3 ADD DUP12 SWAP1 MSTORE DUP2 ADD DUP10 SWAP1 MSTORE PUSH1 0x60 DUP2 ADD DUP14 SWAP1 MSTORE PUSH32 0x52AD65EC41E71D556367FC4FEF59F68118B969BB890DEF6F1CCD0B952F557CA4 SWAP1 PUSH1 0x80 ADD PUSH1 0x40 MLOAD DUP1 SWAP2 SUB SWAP1 LOG1 POP POP POP POP POP POP POP POP POP POP POP POP JUMP JUMPDEST DUP2 DUP2 PUSH0 DUP3 MLOAD GT ISZERO DUP1 ISZERO PUSH2 0x15B9 JUMPI POP PUSH1 0xA DUP3 MLOAD GT JUMPDEST ISZERO PUSH2 0x15DC JUMPI DUP2 MLOAD PUSH1 0x40 MLOAD PUSH4 0x1D9AEA7D PUSH1 0xE0 SHL DUP2 MSTORE PUSH1 0x4 ADD PUSH2 0x63A SWAP2 DUP2 MSTORE PUSH1 0x20 ADD SWAP1 JUMP JUMPDEST DUP1 MLOAD DUP3 MLOAD EQ PUSH2 0x160B JUMPI DUP2 MLOAD DUP2 MLOAD PUSH1 0x40 MLOAD PUSH4 0x12C9B6E1 PUSH1 0xE0 SHL DUP2 MSTORE PUSH1 0x4 DUP2 ADD SWAP3 SWAP1 SWAP3 MSTORE PUSH1 0x24 DUP3 ADD MSTORE PUSH1 0x44 ADD PUSH2 0x63A JUMP JUMPDEST PUSH0 DUP1 JUMPDEST DUP4 MLOAD DUP2 LT ISZERO PUSH2 0x16D5 JUMPI PUSH0 PUSH1 0x1 PUSH1 0x1 PUSH1 0xA0 SHL SUB AND DUP5 DUP3 DUP2 MLOAD DUP2 LT PUSH2 0x1633 JUMPI PUSH2 0x1633 PUSH2 0x2B20 JUMP JUMPDEST PUSH1 0x20 MUL PUSH1 0x20 ADD ADD MLOAD PUSH1 0x1 PUSH1 0x1 PUSH1 0xA0 SHL SUB AND EQ PUSH2 0x16CD JUMPI PUSH2 0x1F4 DUP4 DUP3 DUP2 MLOAD DUP2 LT PUSH2 0x165E JUMPI PUSH2 0x165E PUSH2 0x2B20 JUMP JUMPDEST PUSH1 0x20 MUL PUSH1 0x20 ADD ADD MLOAD LT ISZERO PUSH2 0x16C8 JUMPI PUSH1 0x40 MLOAD PUSH3 0x461BCD PUSH1 0xE5 SHL DUP2 MSTORE PUSH1 0x20 PUSH1 0x4 DUP3 ADD MSTORE PUSH1 0x2B PUSH1 0x24 DUP3 ADD MSTORE PUSH32 0x646F6E6174696F6E2070657263656E74616765206D7573742062652067726561 PUSH1 0x44 DUP3 ADD MSTORE PUSH11 0x746572207468656E203525 PUSH1 0xA8 SHL PUSH1 0x64 DUP3 ADD MSTORE PUSH1 0x84 ADD PUSH2 0x63A JUMP JUMPDEST PUSH1 0x1 SWAP2 POP JUMPDEST PUSH1 0x1 ADD PUSH2 0x160E JUMP JUMPDEST POP DUP1 PUSH2 0x171C JUMPI PUSH1 0x40 MLOAD PUSH3 0x461BCD PUSH1 0xE5 SHL DUP2 MSTORE PUSH1 0x20 PUSH1 0x4 DUP3 ADD MSTORE PUSH1 0x16 PUSH1 0x24 DUP3 ADD MSTORE PUSH22 0x39B2B632B1BA1030B71037B933B0B73D30BA34B7B717 PUSH1 0x51 SHL PUSH1 0x44 DUP3 ADD MSTORE PUSH1 0x64 ADD PUSH2 0x63A JUMP JUMPDEST PUSH0 DUP13 GT PUSH2 0x173F JUMPI PUSH1 0x40 MLOAD PUSH4 0xBAF301F7 PUSH1 0xE0 SHL DUP2 MSTORE PUSH1 0x4 DUP2 ADD DUP14 SWAP1 MSTORE PUSH1 0x24 ADD PUSH2 0x63A JUMP JUMPDEST PUSH0 DUP10 GT PUSH2 0x1762 JUMPI PUSH1 0x40 MLOAD PUSH4 0x43599F69 PUSH1 0xE1 SHL DUP2 MSTORE PUSH1 0x4 DUP2 ADD DUP11 SWAP1 MSTORE PUSH1 0x24 ADD PUSH2 0x63A JUMP JUMPDEST PUSH0 DUP9 GT PUSH2 0x1785 JUMPI PUSH1 0x40 MLOAD PUSH4 0x8E57A1B3 PUSH1 0xE0 SHL DUP2 MSTORE PUSH1 0x4 DUP2 ADD DUP10 SWAP1 MSTORE PUSH1 0x24 ADD PUSH2 0x63A JUMP JUMPDEST PUSH1 0x1 DUP1 SLOAD SWAP1 PUSH0 PUSH2 0x1794 DUP4 PUSH2 0x2B08 JUMP JUMPDEST SWAP2 SWAP1 POP SSTORE POP PUSH2 0x17A8 DUP10 DUP10 DUP15 DUP15 DUP15 DUP12 DUP14 PUSH2 0x1847 JUMP JUMPDEST PUSH2 0x17B5 PUSH1 0x1 SLOAD DUP7 DUP7 PUSH2 0x2226 JUMP JUMPDEST PUSH1 0x3 SLOAD PUSH1 0x1 PUSH1 0x1 PUSH1 0xA0 SHL SUB DUP8 DUP2 AND SWAP2 AND EQ PUSH2 0x1530 JUMPI PUSH2 0x152B DUP10 DUP10 PUSH1 0x1 SLOAD DUP10 PUSH2 0x21EA JUMP JUMPDEST PUSH2 0x17E0 PUSH2 0x1815 JUMP JUMPDEST PUSH1 0x1 PUSH1 0x1 PUSH1 0xA0 SHL SUB DUP2 AND PUSH2 0x1809 JUMPI PUSH1 0x40 MLOAD PUSH4 0x1E4FBDF7 PUSH1 0xE0 SHL DUP2 MSTORE PUSH0 PUSH1 0x4 DUP3 ADD MSTORE PUSH1 0x24 ADD PUSH2 0x63A JUMP JUMPDEST PUSH2 0x1812 DUP2 PUSH2 0x217A JUMP JUMPDEST POP JUMP JUMPDEST CALLER PUSH2 0x181E PUSH2 0xE71 JUMP JUMPDEST PUSH1 0x1 PUSH1 0x1 PUSH1 0xA0 SHL SUB AND EQ PUSH2 0xE6F JUMPI PUSH1 0x40 MLOAD PUSH4 0x118CDAA7 PUSH1 0xE0 SHL DUP2 MSTORE CALLER PUSH1 0x4 DUP3 ADD MSTORE PUSH1 0x24 ADD PUSH2 0x63A JUMP JUMPDEST DUP5 DUP5 DUP5 DUP10 DUP10 DUP7 PUSH0 DUP7 GT PUSH2 0x1870 JUMPI PUSH1 0x40 MLOAD PUSH4 0xBAF301F7 PUSH1 0xE0 SHL DUP2 MSTORE PUSH1 0x4 DUP2 ADD DUP8 SWAP1 MSTORE PUSH1 0x24 ADD PUSH2 0x63A JUMP JUMPDEST PUSH0 DUP4 GT PUSH2 0x1893 JUMPI PUSH1 0x40 MLOAD PUSH4 0x43599F69 PUSH1 0xE1 SHL DUP2 MSTORE PUSH1 0x4 DUP2 ADD DUP5 SWAP1 MSTORE PUSH1 0x24 ADD PUSH2 0x63A JUMP JUMPDEST PUSH0 DUP3 GT PUSH2 0x18B6 JUMPI PUSH1 0x40 MLOAD PUSH4 0x8E57A1B3 PUSH1 0xE0 SHL DUP2 MSTORE PUSH1 0x4 DUP2 ADD DUP4 SWAP1 MSTORE PUSH1 0x24 ADD PUSH2 0x63A JUMP JUMPDEST PUSH1 0x1 PUSH1 0x1 PUSH1 0xA0 SHL SUB DUP2 AND PUSH2 0x18E8 JUMPI PUSH1 0x40 MLOAD PUSH4 0xE4CFA94D PUSH1 0xE0 SHL DUP2 MSTORE PUSH1 0x1 PUSH1 0x1 PUSH1 0xA0 SHL SUB DUP3 AND PUSH1 0x4 DUP3 ADD MSTORE PUSH1 0x24 ADD PUSH2 0x63A JUMP JUMPDEST DUP5 ISZERO DUP1 ISZERO SWAP1 PUSH2 0x18F6 JUMPI POP DUP4 ISZERO ISZERO JUMPDEST ISZERO PUSH2 0x1932 JUMPI TIMESTAMP DUP6 GT ISZERO DUP1 ISZERO PUSH2 0x190A JUMPI POP DUP5 DUP5 LT JUMPDEST ISZERO PUSH2 0x1932 JUMPI PUSH1 0x40 MLOAD PUSH4 0xDD96246F PUSH1 0xE0 SHL DUP2 MSTORE PUSH1 0x4 DUP2 ADD DUP7 SWAP1 MSTORE PUSH1 0x24 DUP2 ADD DUP6 SWAP1 MSTORE PUSH1 0x44 ADD PUSH2 0x63A JUMP JUMPDEST DUP10 ISZERO DUP1 ISZERO PUSH2 0x193E JUMPI POP DUP9 ISZERO JUMPDEST ISZERO PUSH2 0x1963 JUMPI PUSH1 0x1 SLOAD PUSH0 SWAP1 DUP2 MSTORE PUSH1 0x4 PUSH1 0x20 MSTORE PUSH1 0x40 SWAP1 KECCAK256 DUP1 SLOAD PUSH3 0xFF0000 NOT AND PUSH3 0x10000 OR SWAP1 SSTORE JUMPDEST POP POP PUSH1 0x1 DUP1 SLOAD PUSH0 SWAP1 DUP2 MSTORE PUSH1 0x4 PUSH1 0x20 DUP2 SWAP1 MSTORE PUSH1 0x40 DUP1 DUP4 KECCAK256 DUP1 SLOAD PUSH1 0xFF NOT AND DUP6 OR SWAP1 SSTORE DUP4 SLOAD DUP4 MSTORE DUP1 DUP4 KECCAK256 PUSH1 0x3 ADD SWAP15 SWAP1 SWAP15 SSTORE DUP3 SLOAD DUP3 MSTORE DUP14 DUP3 KECCAK256 ADD SWAP12 SWAP1 SWAP12 SSTORE DUP1 SLOAD DUP12 MSTORE DUP12 DUP12 KECCAK256 PUSH1 0x2 ADD SWAP10 SWAP1 SWAP10 SSTORE POP POP DUP7 SLOAD DUP9 MSTORE POP POP DUP7 DUP7 KECCAK256 PUSH1 0x9 ADD SWAP4 SWAP1 SWAP4 SSTORE POP DUP3 SLOAD DUP5 MSTORE DUP5 DUP5 KECCAK256 PUSH1 0x8 ADD SSTORE DUP2 SLOAD DUP4 MSTORE DUP4 DUP4 KECCAK256 PUSH1 0x5 ADD DUP1 SLOAD PUSH1 0x1 PUSH1 0x1 PUSH1 0xA0 SHL SUB NOT AND CALLER OR SWAP1 SSTORE DUP2 SLOAD DUP4 MSTORE SWAP3 SWAP1 SWAP2 KECCAK256 ADD SSTORE JUMP JUMPDEST PUSH2 0xE6F PUSH2 0x2333 JUMP JUMPDEST PUSH2 0x19FF PUSH2 0x2333 JUMP JUMPDEST PUSH2 0x1812 DUP2 PUSH2 0x237C JUMP JUMPDEST PUSH0 DUP3 PUSH0 SUB PUSH2 0x1A58 JUMPI PUSH1 0x40 MLOAD PUSH3 0x461BCD PUSH1 0xE5 SHL DUP2 MSTORE PUSH1 0x20 PUSH1 0x4 DUP3 ADD MSTORE PUSH1 0x1C PUSH1 0x24 DUP3 ADD MSTORE PUSH32 0x5072696365206F66204E46542063616E206E6F74206265207A65726F00000000 PUSH1 0x44 DUP3 ADD MSTORE PUSH1 0x64 ADD PUSH2 0x63A JUMP JUMPDEST DUP2 PUSH0 SUB PUSH2 0x1A9E JUMPI PUSH1 0x40 MLOAD PUSH3 0x461BCD PUSH1 0xE5 SHL DUP2 MSTORE PUSH1 0x20 PUSH1 0x4 DUP3 ADD MSTORE PUSH1 0x14 PUSH1 0x24 DUP3 ADD MSTORE PUSH20 0x5F5042502063616E206E6F74206265207A65726F PUSH1 0x60 SHL PUSH1 0x44 DUP3 ADD MSTORE PUSH1 0x64 ADD PUSH2 0x63A JUMP JUMPDEST PUSH0 PUSH2 0x2710 PUSH2 0x1AAC DUP5 DUP7 PUSH2 0x2B34 JUMP JUMPDEST PUSH2 0x1AB6 SWAP2 SWAP1 PUSH2 0x2B4B JUMP JUMPDEST SWAP5 SWAP4 POP POP POP POP JUMP JUMPDEST PUSH0 DUP1 DUP1 JUMPDEST PUSH0 DUP5 DUP2 MSTORE PUSH1 0x5 PUSH1 0x20 MSTORE PUSH1 0x40 SWAP1 KECCAK256 SLOAD DUP2 LT ISZERO PUSH2 0x1C88 JUMPI PUSH0 DUP5 DUP2 MSTORE PUSH1 0x5 PUSH1 0x20 MSTORE PUSH1 0x40 DUP2 KECCAK256 PUSH1 0x1 ADD DUP3 PUSH1 0xA DUP2 LT PUSH2 0x1AF8 JUMPI PUSH2 0x1AF8 PUSH2 0x2B20 JUMP JUMPDEST ADD SLOAD PUSH1 0x1 PUSH1 0x1 PUSH1 0xA0 SHL SUB AND EQ PUSH2 0x1C80 JUMPI PUSH0 DUP5 DUP2 MSTORE PUSH1 0x4 PUSH1 0x20 SWAP1 DUP2 MSTORE PUSH1 0x40 DUP1 DUP4 KECCAK256 PUSH1 0x2 ADD SLOAD PUSH1 0x5 SWAP1 SWAP3 MSTORE DUP3 KECCAK256 PUSH2 0x1B43 SWAP2 SWAP1 PUSH1 0xB ADD DUP5 PUSH1 0xA DUP2 LT PUSH2 0x1B3C JUMPI PUSH2 0x1B3C PUSH2 0x2B20 JUMP JUMPDEST ADD SLOAD PUSH2 0x1A08 JUMP JUMPDEST PUSH0 DUP1 SLOAD DUP8 DUP3 MSTORE PUSH1 0x5 PUSH1 0x20 MSTORE PUSH1 0x40 DUP3 KECCAK256 SWAP3 SWAP4 POP SWAP1 SWAP2 PUSH1 0x1 PUSH1 0x1 PUSH1 0xA0 SHL SUB SWAP1 SWAP2 AND SWAP1 PUSH4 0x53F50119 SWAP1 PUSH1 0x1 ADD DUP6 PUSH1 0xA DUP2 LT PUSH2 0x1B7D JUMPI PUSH2 0x1B7D PUSH2 0x2B20 JUMP JUMPDEST ADD SLOAD PUSH1 0x40 MLOAD PUSH1 0xE0 DUP4 SWAP1 SHL PUSH1 0x1 PUSH1 0x1 PUSH1 0xE0 SHL SUB NOT AND DUP2 MSTORE PUSH1 0x1 PUSH1 0x1 PUSH1 0xA0 SHL SUB SWAP1 SWAP2 AND PUSH1 0x4 DUP3 ADD MSTORE PUSH1 0x24 ADD PUSH1 0x80 PUSH1 0x40 MLOAD DUP1 DUP4 SUB DUP2 DUP7 GAS STATICCALL ISZERO DUP1 ISZERO PUSH2 0x1BC1 JUMPI RETURNDATASIZE PUSH0 DUP1 RETURNDATACOPY RETURNDATASIZE PUSH0 REVERT JUMPDEST POP POP POP POP PUSH1 0x40 MLOAD RETURNDATASIZE PUSH1 0x1F NOT PUSH1 0x1F DUP3 ADD AND DUP3 ADD DUP1 PUSH1 0x40 MSTORE POP DUP2 ADD SWAP1 PUSH2 0x1BE5 SWAP2 SWAP1 PUSH2 0x2A78 JUMP JUMPDEST POP POP POP SWAP1 POP PUSH0 DUP2 ISZERO PUSH2 0x1C2B JUMPI PUSH0 DUP8 DUP2 MSTORE PUSH1 0x5 PUSH1 0x20 MSTORE PUSH1 0x40 DUP2 KECCAK256 PUSH2 0x1C28 SWAP2 SWAP1 PUSH1 0x1 ADD DUP7 PUSH1 0xA DUP2 LT PUSH2 0x1C17 JUMPI PUSH2 0x1C17 PUSH2 0x2B20 JUMP JUMPDEST ADD SLOAD PUSH1 0x1 PUSH1 0x1 PUSH1 0xA0 SHL SUB AND DUP6 PUSH2 0x1C8F JUMP JUMPDEST SWAP1 POP JUMPDEST PUSH0 PUSH2 0x1C36 DUP3 DUP6 PUSH2 0x2AF5 JUMP JUMPDEST PUSH0 DUP10 DUP2 MSTORE PUSH1 0x5 PUSH1 0x20 MSTORE PUSH1 0x40 SWAP1 KECCAK256 SWAP1 SWAP2 POP PUSH2 0x1C6F SWAP1 PUSH1 0x1 ADD DUP7 PUSH1 0xA DUP2 LT PUSH2 0x1C5E JUMPI PUSH2 0x1C5E PUSH2 0x2B20 JUMP JUMPDEST ADD SLOAD PUSH1 0x1 PUSH1 0x1 PUSH1 0xA0 SHL SUB AND DUP3 PUSH2 0x1EA3 JUMP JUMPDEST PUSH2 0x1C79 DUP5 DUP8 PUSH2 0x2AE2 JUMP JUMPDEST SWAP6 POP POP POP POP POP JUMPDEST PUSH1 0x1 ADD PUSH2 0x1AC2 JUMP JUMPDEST POP SWAP3 SWAP2 POP POP JUMP JUMPDEST PUSH0 DUP1 DUP1 DUP6 ISZERO DUP1 ISZERO SWAP1 PUSH2 0x1CA8 JUMPI POP PUSH1 0x1 PUSH1 0x1 PUSH1 0xA0 SHL SUB DUP6 AND ISZERO JUMPDEST DUP1 ISZERO PUSH2 0x1CB2 JUMPI POP DUP4 ISZERO JUMPDEST PUSH2 0x1CBC JUMPI DUP5 PUSH2 0x1CD7 JUMP JUMPDEST PUSH0 DUP7 DUP2 MSTORE PUSH1 0x4 PUSH1 0x20 MSTORE PUSH1 0x40 SWAP1 KECCAK256 PUSH1 0x5 ADD SLOAD PUSH1 0x1 PUSH1 0x1 PUSH1 0xA0 SHL SUB AND JUMPDEST PUSH0 DUP1 SLOAD PUSH1 0x40 MLOAD PUSH4 0x53F50119 PUSH1 0xE0 SHL DUP2 MSTORE PUSH1 0x1 PUSH1 0x1 PUSH1 0xA0 SHL SUB DUP1 DUP6 AND PUSH1 0x4 DUP4 ADD MSTORE SWAP4 SWAP5 POP SWAP2 SWAP3 DUP4 SWAP3 SWAP2 AND SWAP1 PUSH4 0x53F50119 SWAP1 PUSH1 0x24 ADD PUSH1 0x80 PUSH1 0x40 MLOAD DUP1 DUP4 SUB DUP2 DUP7 GAS STATICCALL ISZERO DUP1 ISZERO PUSH2 0x1D25 JUMPI RETURNDATASIZE PUSH0 DUP1 RETURNDATACOPY RETURNDATASIZE PUSH0 REVERT JUMPDEST POP POP POP POP PUSH1 0x40 MLOAD RETURNDATASIZE PUSH1 0x1F NOT PUSH1 0x1F DUP3 ADD AND DUP3 ADD DUP1 PUSH1 0x40 MSTORE POP DUP2 ADD SWAP1 PUSH2 0x1D49 SWAP2 SWAP1 PUSH2 0x2A78 JUMP JUMPDEST POP SWAP3 POP SWAP3 POP POP DUP2 PUSH0 SUB PUSH2 0x1D7D JUMPI PUSH1 0x1 PUSH1 0x1 PUSH1 0xA0 SHL SUB DUP2 AND PUSH0 SWAP1 DUP2 MSTORE PUSH1 0x6 PUSH1 0x20 MSTORE PUSH1 0x40 DUP2 KECCAK256 SLOAD SWAP3 POP DUP3 SWAP1 SUB PUSH2 0x1D7D JUMPI PUSH2 0x3E8 SWAP2 POP JUMPDEST PUSH0 DUP9 ISZERO DUP1 ISZERO SWAP1 PUSH2 0x1D8B JUMPI POP DUP7 ISZERO JUMPDEST PUSH2 0x1D95 JUMPI DUP7 PUSH2 0x1DA7 JUMP JUMPDEST PUSH0 DUP10 DUP2 MSTORE PUSH1 0x4 PUSH1 0x20 MSTORE PUSH1 0x40 SWAP1 KECCAK256 PUSH1 0x2 ADD SLOAD JUMPDEST SWAP1 POP PUSH2 0x1DB3 DUP2 DUP5 PUSH2 0x1A08 JUMP JUMPDEST SWAP5 POP PUSH2 0x1DBF DUP3 DUP7 PUSH2 0x1EA3 JUMP JUMPDEST POP SWAP3 SWAP4 POP POP POP POP JUMPDEST SWAP4 SWAP3 POP POP POP JUMP JUMPDEST PUSH0 DUP2 DUP2 MSTORE PUSH1 0x4 PUSH1 0x20 MSTORE PUSH1 0x40 DUP2 KECCAK256 PUSH1 0x7 ADD SLOAD PUSH1 0x3 SLOAD DUP3 SWAP2 PUSH1 0x1 PUSH1 0x1 PUSH1 0xA0 SHL SUB SWAP1 DUP2 AND SWAP2 AND SUB PUSH2 0x5C0 JUMPI PUSH0 DUP1 SLOAD DUP5 DUP3 MSTORE PUSH1 0x4 PUSH1 0x20 DUP2 SWAP1 MSTORE PUSH1 0x40 DUP1 DUP5 KECCAK256 PUSH1 0x3 ADD SLOAD SWAP1 MLOAD PUSH4 0x8C33E47F PUSH1 0xE0 SHL DUP2 MSTORE SWAP2 DUP3 ADD MSTORE DUP3 SWAP2 PUSH1 0x1 PUSH1 0x1 PUSH1 0xA0 SHL SUB AND SWAP1 PUSH4 0x8C33E47F SWAP1 PUSH1 0x24 ADD PUSH1 0x40 DUP1 MLOAD DUP1 DUP4 SUB DUP2 DUP7 GAS STATICCALL ISZERO DUP1 ISZERO PUSH2 0x1E4B JUMPI RETURNDATASIZE PUSH0 DUP1 RETURNDATACOPY RETURNDATASIZE PUSH0 REVERT JUMPDEST POP POP POP POP PUSH1 0x40 MLOAD RETURNDATASIZE PUSH1 0x1F NOT PUSH1 0x1F DUP3 ADD AND DUP3 ADD DUP1 PUSH1 0x40 MSTORE POP DUP2 ADD SWAP1 PUSH2 0x1E6F SWAP2 SWAP1 PUSH2 0x2B6A JUMP JUMPDEST PUSH0 DUP8 DUP2 MSTORE PUSH1 0x4 PUSH1 0x20 MSTORE PUSH1 0x40 SWAP1 KECCAK256 PUSH1 0x2 ADD SLOAD SWAP2 SWAP4 POP SWAP2 POP PUSH2 0x1E8F SWAP1 DUP4 PUSH2 0x1A08 JUMP JUMPDEST SWAP3 POP PUSH2 0x1E9B DUP2 DUP5 PUSH2 0x1EA3 JUMP JUMPDEST POP POP SWAP3 SWAP2 POP POP JUMP JUMPDEST PUSH0 DUP3 PUSH1 0x1 PUSH1 0x1 PUSH1 0xA0 SHL SUB AND DUP3 PUSH1 0x40 MLOAD PUSH0 PUSH1 0x40 MLOAD DUP1 DUP4 SUB DUP2 DUP6 DUP8 GAS CALL SWAP3 POP POP POP RETURNDATASIZE DUP1 PUSH0 DUP2 EQ PUSH2 0x1EEC JUMPI PUSH1 0x40 MLOAD SWAP2 POP PUSH1 0x1F NOT PUSH1 0x3F RETURNDATASIZE ADD AND DUP3 ADD PUSH1 0x40 MSTORE RETURNDATASIZE DUP3 MSTORE RETURNDATASIZE PUSH0 PUSH1 0x20 DUP5 ADD RETURNDATACOPY PUSH2 0x1EF1 JUMP JUMPDEST PUSH1 0x60 SWAP2 POP JUMPDEST POP POP SWAP1 POP DUP1 PUSH2 0x1F34 JUMPI PUSH1 0x40 MLOAD PUSH3 0x461BCD PUSH1 0xE5 SHL DUP2 MSTORE PUSH1 0x20 PUSH1 0x4 DUP3 ADD MSTORE PUSH1 0xF PUSH1 0x24 DUP3 ADD MSTORE PUSH15 0x151C985B9CD9995C8819985A5B1959 PUSH1 0x8A SHL PUSH1 0x44 DUP3 ADD MSTORE PUSH1 0x64 ADD PUSH2 0x63A JUMP JUMPDEST POP POP POP JUMP JUMPDEST PUSH1 0x40 MLOAD PUSH4 0x79212195 PUSH1 0xE1 SHL DUP2 MSTORE PUSH1 0x1 PUSH1 0x1 PUSH1 0xA0 SHL SUB DUP6 DUP2 AND PUSH1 0x4 DUP1 DUP5 ADD SWAP2 SWAP1 SWAP2 MSTORE DUP6 DUP3 AND PUSH1 0x24 DUP5 ADD MSTORE PUSH1 0x44 DUP4 ADD DUP6 SWAP1 MSTORE PUSH1 0x64 DUP4 ADD DUP5 SWAP1 MSTORE PUSH1 0xA0 PUSH1 0x84 DUP5 ADD MSTORE PUSH1 0xA4 DUP4 ADD MSTORE PUSH4 0x3078303 PUSH1 0xE4 SHL PUSH1 0xC4 DUP4 ADD MSTORE DUP7 AND SWAP1 PUSH4 0xF242432A SWAP1 PUSH1 0xE4 ADD PUSH0 PUSH1 0x40 MLOAD DUP1 DUP4 SUB DUP2 PUSH0 DUP8 DUP1 EXTCODESIZE ISZERO DUP1 ISZERO PUSH2 0x1FAC JUMPI PUSH0 DUP1 REVERT JUMPDEST POP GAS CALL ISZERO DUP1 ISZERO PUSH2 0x1FBE JUMPI RETURNDATASIZE PUSH0 DUP1 RETURNDATACOPY RETURNDATASIZE PUSH0 REVERT JUMPDEST POP POP POP POP POP POP POP POP POP JUMP JUMPDEST ADDRESS PUSH1 0x1 PUSH1 0x1 PUSH1 0xA0 SHL SUB PUSH32 0x0 AND EQ DUP1 PUSH2 0x204F JUMPI POP PUSH32 0x0 PUSH1 0x1 PUSH1 0x1 PUSH1 0xA0 SHL SUB AND PUSH2 0x2043 PUSH0 DUP1 MLOAD PUSH1 0x20 PUSH2 0x2BBC DUP4 CODECOPY DUP2 MLOAD SWAP2 MSTORE SLOAD PUSH1 0x1 PUSH1 0x1 PUSH1 0xA0 SHL SUB AND SWAP1 JUMP JUMPDEST PUSH1 0x1 PUSH1 0x1 PUSH1 0xA0 SHL SUB AND EQ ISZERO JUMPDEST ISZERO PUSH2 0xE6F JUMPI PUSH1 0x40 MLOAD PUSH4 0x703E46DD PUSH1 0xE1 SHL DUP2 MSTORE PUSH1 0x4 ADD PUSH1 0x40 MLOAD DUP1 SWAP2 SUB SWAP1 REVERT JUMPDEST PUSH2 0x1812 PUSH2 0x1815 JUMP JUMPDEST DUP2 PUSH1 0x1 PUSH1 0x1 PUSH1 0xA0 SHL SUB AND PUSH4 0x52D1902D PUSH1 0x40 MLOAD DUP2 PUSH4 0xFFFFFFFF AND PUSH1 0xE0 SHL DUP2 MSTORE PUSH1 0x4 ADD PUSH1 0x20 PUSH1 0x40 MLOAD DUP1 DUP4 SUB DUP2 DUP7 GAS STATICCALL SWAP3 POP POP POP DUP1 ISZERO PUSH2 0x20CF JUMPI POP PUSH1 0x40 DUP1 MLOAD PUSH1 0x1F RETURNDATASIZE SWAP1 DUP2 ADD PUSH1 0x1F NOT AND DUP3 ADD SWAP1 SWAP3 MSTORE PUSH2 0x20CC SWAP2 DUP2 ADD SWAP1 PUSH2 0x2B8E JUMP JUMPDEST PUSH1 0x1 JUMPDEST PUSH2 0x20F7 JUMPI PUSH1 0x40 MLOAD PUSH4 0x4C9C8CE3 PUSH1 0xE0 SHL DUP2 MSTORE PUSH1 0x1 PUSH1 0x1 PUSH1 0xA0 SHL SUB DUP4 AND PUSH1 0x4 DUP3 ADD MSTORE PUSH1 0x24 ADD PUSH2 0x63A JUMP JUMPDEST PUSH0 DUP1 MLOAD PUSH1 0x20 PUSH2 0x2BBC DUP4 CODECOPY DUP2 MLOAD SWAP2 MSTORE DUP2 EQ PUSH2 0x2127 JUMPI PUSH1 0x40 MLOAD PUSH4 0x2A875269 PUSH1 0xE2 SHL DUP2 MSTORE PUSH1 0x4 DUP2 ADD DUP3 SWAP1 MSTORE PUSH1 0x24 ADD PUSH2 0x63A JUMP JUMPDEST PUSH2 0x1F34 DUP4 DUP4 PUSH2 0x2384 JUMP JUMPDEST ADDRESS PUSH1 0x1 PUSH1 0x1 PUSH1 0xA0 SHL SUB PUSH32 0x0 AND EQ PUSH2 0xE6F JUMPI PUSH1 0x40 MLOAD PUSH4 0x703E46DD PUSH1 0xE1 SHL DUP2 MSTORE PUSH1 0x4 ADD PUSH1 0x40 MLOAD DUP1 SWAP2 SUB SWAP1 REVERT JUMPDEST PUSH32 0x9016D09D72D40FDAE2FD8CEAC6B6234C7706214FD39C1CD1E609A0528C199300 DUP1 SLOAD PUSH1 0x1 PUSH1 0x1 PUSH1 0xA0 SHL SUB NOT DUP2 AND PUSH1 0x1 PUSH1 0x1 PUSH1 0xA0 SHL SUB DUP5 DUP2 AND SWAP2 DUP3 OR DUP5 SSTORE PUSH1 0x40 MLOAD SWAP3 AND SWAP2 DUP3 SWAP1 PUSH32 0x8BE0079C531659141344CD1FD0A4F28419497F9722A3DAAFE3B4186F6B6457E0 SWAP1 PUSH0 SWAP1 LOG3 POP POP POP JUMP JUMPDEST PUSH0 DUP3 DUP2 MSTORE PUSH1 0x4 PUSH1 0x20 MSTORE PUSH1 0x40 SWAP1 KECCAK256 PUSH1 0x7 ADD DUP1 SLOAD PUSH1 0x1 PUSH1 0x1 PUSH1 0xA0 SHL SUB NOT AND PUSH1 0x1 PUSH1 0x1 PUSH1 0xA0 SHL SUB DUP4 AND OR SWAP1 SSTORE PUSH2 0x2220 DUP2 CALLER ADDRESS DUP8 DUP8 PUSH2 0x1F39 JUMP JUMPDEST POP POP POP POP JUMP JUMPDEST PUSH0 JUMPDEST DUP3 MLOAD DUP2 LT ISZERO PUSH2 0x2220 JUMPI PUSH0 PUSH1 0x1 PUSH1 0x1 PUSH1 0xA0 SHL SUB AND DUP4 DUP3 DUP2 MLOAD DUP2 LT PUSH2 0x224D JUMPI PUSH2 0x224D PUSH2 0x2B20 JUMP JUMPDEST PUSH1 0x20 MUL PUSH1 0x20 ADD ADD MLOAD PUSH1 0x1 PUSH1 0x1 PUSH1 0xA0 SHL SUB AND EQ PUSH2 0x232B JUMPI DUP3 DUP2 DUP2 MLOAD DUP2 LT PUSH2 0x2275 JUMPI PUSH2 0x2275 PUSH2 0x2B20 JUMP JUMPDEST PUSH1 0x20 MUL PUSH1 0x20 ADD ADD MLOAD PUSH1 0x5 PUSH0 DUP7 DUP2 MSTORE PUSH1 0x20 ADD SWAP1 DUP2 MSTORE PUSH1 0x20 ADD PUSH0 KECCAK256 PUSH1 0x1 ADD DUP3 PUSH1 0xA DUP2 LT PUSH2 0x22A2 JUMPI PUSH2 0x22A2 PUSH2 0x2B20 JUMP JUMPDEST ADD PUSH0 PUSH2 0x100 EXP DUP2 SLOAD DUP2 PUSH1 0x1 PUSH1 0x1 PUSH1 0xA0 SHL SUB MUL NOT AND SWAP1 DUP4 PUSH1 0x1 PUSH1 0x1 PUSH1 0xA0 SHL SUB AND MUL OR SWAP1 SSTORE POP DUP2 DUP2 DUP2 MLOAD DUP2 LT PUSH2 0x22D8 JUMPI PUSH2 0x22D8 PUSH2 0x2B20 JUMP JUMPDEST PUSH1 0x20 MUL PUSH1 0x20 ADD ADD MLOAD PUSH1 0x5 PUSH0 DUP7 DUP2 MSTORE PUSH1 0x20 ADD SWAP1 DUP2 MSTORE PUSH1 0x20 ADD PUSH0 KECCAK256 PUSH1 0xB ADD DUP3 PUSH1 0xA DUP2 LT PUSH2 0x2305 JUMPI PUSH2 0x2305 PUSH2 0x2B20 JUMP JUMPDEST ADD SSTORE PUSH0 DUP5 DUP2 MSTORE PUSH1 0x5 PUSH1 0x20 MSTORE PUSH1 0x40 DUP2 KECCAK256 DUP1 SLOAD PUSH1 0x1 SWAP3 SWAP1 PUSH2 0x2325 SWAP1 DUP5 SWAP1 PUSH2 0x2AE2 JUMP JUMPDEST SWAP1 SWAP2 SSTORE POP POP JUMPDEST PUSH1 0x1 ADD PUSH2 0x2228 JUMP JUMPDEST PUSH32 0xF0C57E16840DF040F15088DC2F81FE391C3923BEC73E23A9662EFC9C229C6A00 SLOAD PUSH1 0x1 PUSH1 0x40 SHL SWAP1 DIV PUSH1 0xFF AND PUSH2 0xE6F JUMPI PUSH1 0x40 MLOAD PUSH4 0x1AFCD79F PUSH1 0xE3 SHL DUP2 MSTORE PUSH1 0x4 ADD PUSH1 0x40 MLOAD DUP1 SWAP2 SUB SWAP1 REVERT JUMPDEST PUSH2 0x17E0 PUSH2 0x2333 JUMP JUMPDEST PUSH2 0x238D DUP3 PUSH2 0x23D9 JUMP JUMPDEST PUSH1 0x40 MLOAD PUSH1 0x1 PUSH1 0x1 PUSH1 0xA0 SHL SUB DUP4 AND SWAP1 PUSH32 0xBC7CD75A20EE27FD9ADEBAB32041F755214DBC6BFFA90CC0225B39DA2E5C2D3B SWAP1 PUSH0 SWAP1 LOG2 DUP1 MLOAD ISZERO PUSH2 0x23D1 JUMPI PUSH2 0x1F34 DUP3 DUP3 PUSH2 0x243C JUMP JUMPDEST PUSH2 0xE3F PUSH2 0x24AE JUMP JUMPDEST DUP1 PUSH1 0x1 PUSH1 0x1 PUSH1 0xA0 SHL SUB AND EXTCODESIZE PUSH0 SUB PUSH2 0x240E JUMPI PUSH1 0x40 MLOAD PUSH4 0x4C9C8CE3 PUSH1 0xE0 SHL DUP2 MSTORE PUSH1 0x1 PUSH1 0x1 PUSH1 0xA0 SHL SUB DUP3 AND PUSH1 0x4 DUP3 ADD MSTORE PUSH1 0x24 ADD PUSH2 0x63A JUMP JUMPDEST PUSH0 DUP1 MLOAD PUSH1 0x20 PUSH2 0x2BBC DUP4 CODECOPY DUP2 MLOAD SWAP2 MSTORE DUP1 SLOAD PUSH1 0x1 PUSH1 0x1 PUSH1 0xA0 SHL SUB NOT AND PUSH1 0x1 PUSH1 0x1 PUSH1 0xA0 SHL SUB SWAP3 SWAP1 SWAP3 AND SWAP2 SWAP1 SWAP2 OR SWAP1 SSTORE JUMP JUMPDEST PUSH1 0x60 PUSH0 DUP1 DUP5 PUSH1 0x1 PUSH1 0x1 PUSH1 0xA0 SHL SUB AND DUP5 PUSH1 0x40 MLOAD PUSH2 0x2458 SWAP2 SWAP1 PUSH2 0x2BA5 JUMP JUMPDEST PUSH0 PUSH1 0x40 MLOAD DUP1 DUP4 SUB DUP2 DUP6 GAS DELEGATECALL SWAP2 POP POP RETURNDATASIZE DUP1 PUSH0 DUP2 EQ PUSH2 0x2490 JUMPI PUSH1 0x40 MLOAD SWAP2 POP PUSH1 0x1F NOT PUSH1 0x3F RETURNDATASIZE ADD AND DUP3 ADD PUSH1 0x40 MSTORE RETURNDATASIZE DUP3 MSTORE RETURNDATASIZE PUSH0 PUSH1 0x20 DUP5 ADD RETURNDATACOPY PUSH2 0x2495 JUMP JUMPDEST PUSH1 0x60 SWAP2 POP JUMPDEST POP SWAP2 POP SWAP2 POP PUSH2 0x24A5 DUP6 DUP4 DUP4 PUSH2 0x24CD JUMP JUMPDEST SWAP6 SWAP5 POP POP POP POP POP JUMP JUMPDEST CALLVALUE ISZERO PUSH2 0xE6F JUMPI PUSH1 0x40 MLOAD PUSH4 0xB398979F PUSH1 0xE0 SHL DUP2 MSTORE PUSH1 0x4 ADD PUSH1 0x40 MLOAD DUP1 SWAP2 SUB SWAP1 REVERT JUMPDEST PUSH1 0x60 DUP3 PUSH2 0x24E2 JUMPI PUSH2 0x24DD DUP3 PUSH2 0x2529 JUMP JUMPDEST PUSH2 0x1DC7 JUMP JUMPDEST DUP2 MLOAD ISZERO DUP1 ISZERO PUSH2 0x24F9 JUMPI POP PUSH1 0x1 PUSH1 0x1 PUSH1 0xA0 SHL SUB DUP5 AND EXTCODESIZE ISZERO JUMPDEST ISZERO PUSH2 0x2522 JUMPI PUSH1 0x40 MLOAD PUSH4 0x9996B315 PUSH1 0xE0 SHL DUP2 MSTORE PUSH1 0x1 PUSH1 0x1 PUSH1 0xA0 SHL SUB DUP6 AND PUSH1 0x4 DUP3 ADD MSTORE PUSH1 0x24 ADD PUSH2 0x63A JUMP JUMPDEST POP DUP1 PUSH2 0x1DC7 JUMP JUMPDEST DUP1 MLOAD ISZERO PUSH2 0x2539 JUMPI DUP1 MLOAD DUP1 DUP3 PUSH1 0x20 ADD REVERT JUMPDEST PUSH1 0x40 MLOAD PUSH4 0xA12F521 PUSH1 0xE1 SHL DUP2 MSTORE PUSH1 0x4 ADD PUSH1 0x40 MLOAD DUP1 SWAP2 SUB SWAP1 REVERT JUMPDEST PUSH0 PUSH1 0x20 DUP3 DUP5 SUB SLT ISZERO PUSH2 0x2562 JUMPI PUSH0 DUP1 REVERT JUMPDEST DUP2 CALLDATALOAD PUSH1 0x1 PUSH1 0x1 PUSH1 0xE0 SHL SUB NOT DUP2 AND DUP2 EQ PUSH2 0x1DC7 JUMPI PUSH0 DUP1 REVERT JUMPDEST PUSH0 PUSH1 0x20 DUP3 DUP5 SUB SLT ISZERO PUSH2 0x2589 JUMPI PUSH0 DUP1 REVERT JUMPDEST POP CALLDATALOAD SWAP2 SWAP1 POP JUMP JUMPDEST PUSH0 DUP1 PUSH0 DUP1 PUSH0 PUSH1 0xA0 DUP7 DUP9 SUB SLT ISZERO PUSH2 0x25A4 JUMPI PUSH0 DUP1 REVERT JUMPDEST POP POP DUP4 CALLDATALOAD SWAP6 PUSH1 0x20 DUP6 ADD CALLDATALOAD SWAP6 POP PUSH1 0x40 DUP6 ADD CALLDATALOAD SWAP5 PUSH1 0x60 DUP2 ADD CALLDATALOAD SWAP5 POP PUSH1 0x80 ADD CALLDATALOAD SWAP3 POP SWAP1 POP JUMP JUMPDEST PUSH1 0x1 PUSH1 0x1 PUSH1 0xA0 SHL SUB DUP2 AND DUP2 EQ PUSH2 0x1812 JUMPI PUSH0 DUP1 REVERT JUMPDEST PUSH0 DUP1 PUSH1 0x40 DUP4 DUP6 SUB SLT ISZERO PUSH2 0x25EC JUMPI PUSH0 DUP1 REVERT JUMPDEST DUP3 CALLDATALOAD PUSH2 0x25F7 DUP2 PUSH2 0x25C7 JUMP JUMPDEST SWAP2 POP PUSH1 0x20 DUP4 ADD CALLDATALOAD PUSH2 0x2607 DUP2 PUSH2 0x25C7 JUMP JUMPDEST DUP1 SWAP2 POP POP SWAP3 POP SWAP3 SWAP1 POP JUMP JUMPDEST PUSH4 0x4E487B71 PUSH1 0xE0 SHL PUSH0 MSTORE PUSH1 0x41 PUSH1 0x4 MSTORE PUSH1 0x24 PUSH0 REVERT JUMPDEST PUSH1 0x40 MLOAD PUSH1 0x1F DUP3 ADD PUSH1 0x1F NOT AND DUP2 ADD PUSH8 0xFFFFFFFFFFFFFFFF DUP2 GT DUP3 DUP3 LT OR ISZERO PUSH2 0x264F JUMPI PUSH2 0x264F PUSH2 0x2612 JUMP JUMPDEST PUSH1 0x40 MSTORE SWAP2 SWAP1 POP JUMP JUMPDEST PUSH0 DUP3 PUSH1 0x1F DUP4 ADD SLT PUSH2 0x2666 JUMPI PUSH0 DUP1 REVERT JUMPDEST DUP2 CALLDATALOAD PUSH8 0xFFFFFFFFFFFFFFFF DUP2 GT ISZERO PUSH2 0x2680 JUMPI PUSH2 0x2680 PUSH2 0x2612 JUMP JUMPDEST PUSH2 0x2693 PUSH1 0x1F DUP3 ADD PUSH1 0x1F NOT AND PUSH1 0x20 ADD PUSH2 0x2626 JUMP JUMPDEST DUP2 DUP2 MSTORE DUP5 PUSH1 0x20 DUP4 DUP7 ADD ADD GT ISZERO PUSH2 0x26A7 JUMPI PUSH0 DUP1 REVERT JUMPDEST DUP2 PUSH1 0x20 DUP6 ADD PUSH1 0x20 DUP4 ADD CALLDATACOPY PUSH0 SWAP2 DUP2 ADD PUSH1 0x20 ADD SWAP2 SWAP1 SWAP2 MSTORE SWAP4 SWAP3 POP POP POP JUMP JUMPDEST PUSH0 DUP1 PUSH1 0x40 DUP4 DUP6 SUB SLT ISZERO PUSH2 0x26D4 JUMPI PUSH0 DUP1 REVERT JUMPDEST DUP3 CALLDATALOAD PUSH2 0x26DF DUP2 PUSH2 0x25C7 JUMP JUMPDEST SWAP2 POP PUSH1 0x20 DUP4 ADD CALLDATALOAD PUSH8 0xFFFFFFFFFFFFFFFF DUP2 GT ISZERO PUSH2 0x26FA JUMPI PUSH0 DUP1 REVERT JUMPDEST PUSH2 0x2706 DUP6 DUP3 DUP7 ADD PUSH2 0x2657 JUMP JUMPDEST SWAP2 POP POP SWAP3 POP SWAP3 SWAP1 POP JUMP JUMPDEST PUSH0 PUSH1 0x20 DUP3 DUP5 SUB SLT ISZERO PUSH2 0x2720 JUMPI PUSH0 DUP1 REVERT JUMPDEST DUP2 CALLDATALOAD PUSH2 0x1DC7 DUP2 PUSH2 0x25C7 JUMP JUMPDEST PUSH1 0x20 DUP2 MSTORE PUSH0 DUP3 MLOAD DUP1 PUSH1 0x20 DUP5 ADD MSTORE DUP1 PUSH1 0x20 DUP6 ADD PUSH1 0x40 DUP6 ADD MCOPY PUSH0 PUSH1 0x40 DUP3 DUP6 ADD ADD MSTORE PUSH1 0x40 PUSH1 0x1F NOT PUSH1 0x1F DUP4 ADD AND DUP5 ADD ADD SWAP2 POP POP SWAP3 SWAP2 POP POP JUMP JUMPDEST PUSH0 PUSH8 0xFFFFFFFFFFFFFFFF DUP3 GT ISZERO PUSH2 0x2779 JUMPI PUSH2 0x2779 PUSH2 0x2612 JUMP JUMPDEST POP PUSH1 0x5 SHL PUSH1 0x20 ADD SWAP1 JUMP JUMPDEST PUSH0 DUP3 PUSH1 0x1F DUP4 ADD SLT PUSH2 0x2792 JUMPI PUSH0 DUP1 REVERT JUMPDEST DUP2 CALLDATALOAD PUSH2 0x27A5 PUSH2 0x27A0 DUP3 PUSH2 0x2760 JUMP JUMPDEST PUSH2 0x2626 JUMP JUMPDEST DUP1 DUP3 DUP3 MSTORE PUSH1 0x20 DUP3 ADD SWAP2 POP PUSH1 0x20 DUP4 PUSH1 0x5 SHL DUP7 ADD ADD SWAP3 POP DUP6 DUP4 GT ISZERO PUSH2 0x27C6 JUMPI PUSH0 DUP1 REVERT JUMPDEST PUSH1 0x20 DUP6 ADD JUMPDEST DUP4 DUP2 LT ISZERO PUSH2 0x27E3 JUMPI DUP1 CALLDATALOAD DUP4 MSTORE PUSH1 0x20 SWAP3 DUP4 ADD SWAP3 ADD PUSH2 0x27CB JUMP JUMPDEST POP SWAP6 SWAP5 POP POP POP POP POP JUMP JUMPDEST PUSH0 DUP1 PUSH0 DUP1 PUSH0 PUSH1 0xA0 DUP7 DUP9 SUB SLT ISZERO PUSH2 0x2801 JUMPI PUSH0 DUP1 REVERT JUMPDEST DUP6 CALLDATALOAD PUSH2 0x280C DUP2 PUSH2 0x25C7 JUMP JUMPDEST SWAP5 POP PUSH1 0x20 DUP7 ADD CALLDATALOAD PUSH2 0x281C DUP2 PUSH2 0x25C7 JUMP JUMPDEST SWAP4 POP PUSH1 0x40 DUP7 ADD CALLDATALOAD PUSH8 0xFFFFFFFFFFFFFFFF DUP2 GT ISZERO PUSH2 0x2837 JUMPI PUSH0 DUP1 REVERT JUMPDEST PUSH2 0x2843 DUP9 DUP3 DUP10 ADD PUSH2 0x2783 JUMP JUMPDEST SWAP4 POP POP PUSH1 0x60 DUP7 ADD CALLDATALOAD PUSH8 0xFFFFFFFFFFFFFFFF DUP2 GT ISZERO PUSH2 0x285F JUMPI PUSH0 DUP1 REVERT JUMPDEST PUSH2 0x286B DUP9 DUP3 DUP10 ADD PUSH2 0x2783 JUMP JUMPDEST SWAP3 POP POP PUSH1 0x80 DUP7 ADD CALLDATALOAD PUSH8 0xFFFFFFFFFFFFFFFF DUP2 GT ISZERO PUSH2 0x2887 JUMPI PUSH0 DUP1 REVERT JUMPDEST PUSH2 0x2893 DUP9 DUP3 DUP10 ADD PUSH2 0x2657 JUMP JUMPDEST SWAP2 POP POP SWAP3 SWAP6 POP SWAP3 SWAP6 SWAP1 SWAP4 POP JUMP JUMPDEST PUSH0 DUP1 PUSH0 DUP1 PUSH0 DUP1 PUSH0 DUP1 PUSH2 0x100 DUP10 DUP12 SUB SLT ISZERO PUSH2 0x28B8 JUMPI PUSH0 DUP1 REVERT JUMPDEST DUP9 CALLDATALOAD SWAP8 POP PUSH1 0x20 DUP10 ADD CALLDATALOAD SWAP7 POP PUSH1 0x40 DUP10 ADD CALLDATALOAD SWAP6 POP PUSH1 0x60 DUP10 ADD CALLDATALOAD SWAP5 POP PUSH1 0x80 DUP10 ADD CALLDATALOAD SWAP4 POP PUSH1 0xA0 DUP10 ADD CALLDATALOAD PUSH2 0x28E6 DUP2 PUSH2 0x25C7 JUMP JUMPDEST SWAP3 POP PUSH1 0xC0 DUP10 ADD CALLDATALOAD SWAP2 POP PUSH1 0xE0 DUP10 ADD CALLDATALOAD PUSH2 0x28FD DUP2 PUSH2 0x25C7 JUMP JUMPDEST DUP1 SWAP2 POP POP SWAP3 SWAP6 SWAP9 POP SWAP3 SWAP6 SWAP9 SWAP1 SWAP4 SWAP7 POP JUMP JUMPDEST PUSH0 DUP3 PUSH1 0x1F DUP4 ADD SLT PUSH2 0x291D JUMPI PUSH0 DUP1 REVERT JUMPDEST DUP2 CALLDATALOAD PUSH2 0x292B PUSH2 0x27A0 DUP3 PUSH2 0x2760 JUMP JUMPDEST DUP1 DUP3 DUP3 MSTORE PUSH1 0x20 DUP3 ADD SWAP2 POP PUSH1 0x20 DUP4 PUSH1 0x5 SHL DUP7 ADD ADD SWAP3 POP DUP6 DUP4 GT ISZERO PUSH2 0x294C JUMPI PUSH0 DUP1 REVERT JUMPDEST PUSH1 0x20 DUP6 ADD JUMPDEST DUP4 DUP2 LT ISZERO PUSH2 0x27E3 JUMPI DUP1 CALLDATALOAD PUSH2 0x2964 DUP2 PUSH2 0x25C7 JUMP JUMPDEST DUP4 MSTORE PUSH1 0x20 SWAP3 DUP4 ADD SWAP3 ADD PUSH2 0x2951 JUMP JUMPDEST PUSH0 DUP1 PUSH0 DUP1 PUSH0 DUP1 PUSH0 DUP1 PUSH0 PUSH2 0x120 DUP11 DUP13 SUB SLT ISZERO PUSH2 0x298B JUMPI PUSH0 DUP1 REVERT JUMPDEST DUP10 CALLDATALOAD SWAP9 POP PUSH1 0x20 DUP11 ADD CALLDATALOAD SWAP8 POP PUSH1 0x40 DUP11 ADD CALLDATALOAD SWAP7 POP PUSH1 0x60 DUP11 ADD CALLDATALOAD SWAP6 POP PUSH1 0x80 DUP11 ADD CALLDATALOAD SWAP5 POP PUSH1 0xA0 DUP11 ADD CALLDATALOAD SWAP4 POP PUSH1 0xC0 DUP11 ADD CALLDATALOAD PUSH2 0x29C0 DUP2 PUSH2 0x25C7 JUMP JUMPDEST SWAP3 POP PUSH1 0xE0 DUP11 ADD CALLDATALOAD PUSH8 0xFFFFFFFFFFFFFFFF DUP2 GT ISZERO PUSH2 0x29DB JUMPI PUSH0 DUP1 REVERT JUMPDEST PUSH2 0x29E7 DUP13 DUP3 DUP14 ADD PUSH2 0x290E JUMP JUMPDEST SWAP3 POP POP PUSH2 0x100 DUP11 ADD CALLDATALOAD PUSH8 0xFFFFFFFFFFFFFFFF DUP2 GT ISZERO PUSH2 0x2A04 JUMPI PUSH0 DUP1 REVERT JUMPDEST PUSH2 0x2A10 DUP13 DUP3 DUP14 ADD PUSH2 0x2783 JUMP JUMPDEST SWAP2 POP POP SWAP3 SWAP6 SWAP9 POP SWAP3 SWAP6 SWAP9 POP SWAP3 SWAP6 SWAP9 JUMP JUMPDEST PUSH0 DUP1 PUSH0 DUP1 PUSH0 PUSH1 0xA0 DUP7 DUP9 SUB SLT ISZERO PUSH2 0x2A34 JUMPI PUSH0 DUP1 REVERT JUMPDEST DUP6 CALLDATALOAD PUSH2 0x2A3F DUP2 PUSH2 0x25C7 JUMP JUMPDEST SWAP5 POP PUSH1 0x20 DUP7 ADD CALLDATALOAD PUSH2 0x2A4F DUP2 PUSH2 0x25C7 JUMP JUMPDEST SWAP4 POP PUSH1 0x40 DUP7 ADD CALLDATALOAD SWAP3 POP PUSH1 0x60 DUP7 ADD CALLDATALOAD SWAP2 POP PUSH1 0x80 DUP7 ADD CALLDATALOAD PUSH8 0xFFFFFFFFFFFFFFFF DUP2 GT ISZERO PUSH2 0x2887 JUMPI PUSH0 DUP1 REVERT JUMPDEST PUSH0 DUP1 PUSH0 DUP1 PUSH1 0x80 DUP6 DUP8 SUB SLT ISZERO PUSH2 0x2A8B JUMPI PUSH0 DUP1 REVERT JUMPDEST DUP5 MLOAD DUP1 ISZERO ISZERO DUP2 EQ PUSH2 0x2A9A JUMPI PUSH0 DUP1 REVERT JUMPDEST PUSH1 0x20 DUP7 ADD MLOAD PUSH1 0x40 DUP8 ADD MLOAD SWAP2 SWAP6 POP SWAP4 POP PUSH2 0x2AB2 DUP2 PUSH2 0x25C7 JUMP JUMPDEST PUSH1 0x60 DUP7 ADD MLOAD SWAP1 SWAP3 POP PUSH2 0x2AC3 DUP2 PUSH2 0x25C7 JUMP JUMPDEST SWAP4 SWAP7 SWAP3 SWAP6 POP SWAP1 SWAP4 POP POP JUMP JUMPDEST PUSH4 0x4E487B71 PUSH1 0xE0 SHL PUSH0 MSTORE PUSH1 0x11 PUSH1 0x4 MSTORE PUSH1 0x24 PUSH0 REVERT JUMPDEST DUP1 DUP3 ADD DUP1 DUP3 GT ISZERO PUSH2 0x5C0 JUMPI PUSH2 0x5C0 PUSH2 0x2ACE JUMP JUMPDEST DUP2 DUP2 SUB DUP2 DUP2 GT ISZERO PUSH2 0x5C0 JUMPI PUSH2 0x5C0 PUSH2 0x2ACE JUMP JUMPDEST PUSH0 PUSH1 0x1 DUP3 ADD PUSH2 0x2B19 JUMPI PUSH2 0x2B19 PUSH2 0x2ACE JUMP JUMPDEST POP PUSH1 0x1 ADD SWAP1 JUMP JUMPDEST PUSH4 0x4E487B71 PUSH1 0xE0 SHL PUSH0 MSTORE PUSH1 0x32 PUSH1 0x4 MSTORE PUSH1 0x24 PUSH0 REVERT JUMPDEST DUP1 DUP3 MUL DUP2 ISZERO DUP3 DUP3 DIV DUP5 EQ OR PUSH2 0x5C0 JUMPI PUSH2 0x5C0 PUSH2 0x2ACE JUMP JUMPDEST PUSH0 DUP3 PUSH2 0x2B65 JUMPI PUSH4 0x4E487B71 PUSH1 0xE0 SHL PUSH0 MSTORE PUSH1 0x12 PUSH1 0x4 MSTORE PUSH1 0x24 PUSH0 REVERT JUMPDEST POP DIV SWAP1 JUMP JUMPDEST PUSH0 DUP1 PUSH1 0x40 DUP4 DUP6 SUB SLT ISZERO PUSH2 0x2B7B JUMPI PUSH0 DUP1 REVERT JUMPDEST DUP3 MLOAD PUSH1 0x20 DUP5 ADD MLOAD SWAP1 SWAP3 POP PUSH2 0x2607 DUP2 PUSH2 0x25C7 JUMP JUMPDEST PUSH0 PUSH1 0x20 DUP3 DUP5 SUB SLT ISZERO PUSH2 0x2B9E JUMPI PUSH0 DUP1 REVERT JUMPDEST POP MLOAD SWAP2 SWAP1 POP JUMP JUMPDEST PUSH0 DUP3 MLOAD DUP1 PUSH1 0x20 DUP6 ADD DUP5 MCOPY PUSH0 SWAP3 ADD SWAP2 DUP3 MSTORE POP SWAP2 SWAP1 POP JUMP INVALID CALLDATASIZE ADDMOD SWAP5 LOG1 EXTCODESIZE LOG1 LOG3 0x21 MOD PUSH8 0xC828492DB98DCA3E KECCAK256 PUSH23 0xCC3735A920A3CA505D382BBCA2646970667358221220EA PUSH11 0xF4143D66964348AC72C657 SUB RETURNDATASIZE SWAP11 DUP8 SWAP5 0xD0 0x4B 0xAE LOG1 PUSH2 0x49DE PUSH22 0xACF8B5F5C6B464736F6C634300081A00330000000000 "
		},
		"gasEstimates": {
			"creation": {
				"codeDepositCost": "2256200",
				"executionCost": "infinite",
				"totalCost": "infinite"
			},
			"external": {
				"BuyFixedPriceItem(uint256)": "infinite",
				"UPGRADE_INTERFACE_VERSION()": "infinite",
				"adminFeePercentage()": "2317",
				"defaultFiscalFee(address)": "2621",
				"donationInfo(uint256)": "2547",
				"editList(uint256,uint256,uint256,uint256,uint256)": "244412",
				"endAuction(uint256)": "infinite",
				"initialize(address,address)": "infinite",
				"listForOrganizations(uint256,uint256,uint256,uint256,uint256,address,uint256,address)": "infinite",
				"listForUsers(uint256,uint256,uint256,uint256,uint256,uint256,address,address[],uint256[])": "infinite",
				"listId()": "2383",
				"listing(uint256)": "21861",
				"mintingContract()": "2424",
				"mintingContractAddress()": "2469",
				"onERC1155BatchReceived(address,address,uint256[],uint256[],bytes)": "infinite",
				"onERC1155Received(address,address,uint256,uint256,bytes)": "infinite",
				"owner()": "2412",
				"proxiableUUID()": "infinite",
				"renounceOwnership()": "infinite",
				"setFiscalSponsorPercentage(uint256)": "23844",
				"setPlatFormServiceFeePercentage(uint256)": "26005",
				"startBid(uint256)": "infinite",
				"supportsInterface(bytes4)": "447",
				"transferOwnership(address)": "infinite",
				"upgradeToAndCall(address,bytes)": "infinite"
			},
			"internal": {
				"_authorizeUpgrade(address)": "infinite",
				"calulateFee(uint256,uint256)": "infinite",
				"donationFeeTransfer(uint256)": "infinite",
				"sendFiscalFee(uint256,address,uint256)": "infinite",
				"sendRoyalityFee(uint256)": "infinite",
				"setCancelList(uint256)": "infinite",
				"setDonationInfo(uint256,address[] memory,uint256[] memory)": "infinite",
				"setListingInfo(uint256,uint256,uint256,uint256,uint256,address,uint256)": "infinite",
				"setMintingAddress(uint256,uint256,uint256,address)": "infinite",
				"transferFundsInEth(address payable,uint256)": "infinite",
				"transferNft(address,address,address,uint256,uint256)": "infinite"
			}
		},
		"methodIdentifiers": {
			"BuyFixedPriceItem(uint256)": "4c205bc9",
			"UPGRADE_INTERFACE_VERSION()": "ad3cb1cc",
			"adminFeePercentage()": "831490f9",
			"defaultFiscalFee(address)": "7cfd3e18",
			"donationInfo(uint256)": "3d6c0507",
			"editList(uint256,uint256,uint256,uint256,uint256)": "2c0bc695",
			"endAuction(uint256)": "b9a2de3a",
			"initialize(address,address)": "485cc955",
			"listForOrganizations(uint256,uint256,uint256,uint256,uint256,address,uint256,address)": "e30ec386",
			"listForUsers(uint256,uint256,uint256,uint256,uint256,uint256,address,address[],uint256[])": "eafa4039",
			"listId()": "9e898e58",
			"listing(uint256)": "84a184de",
			"mintingContract()": "d2f6f67d",
			"mintingContractAddress()": "824563f6",
			"onERC1155BatchReceived(address,address,uint256[],uint256[],bytes)": "bc197c81",
			"onERC1155Received(address,address,uint256,uint256,bytes)": "f23a6e61",
			"owner()": "8da5cb5b",
			"proxiableUUID()": "52d1902d",
			"renounceOwnership()": "715018a6",
			"setFiscalSponsorPercentage(uint256)": "03c32aa9",
			"setPlatFormServiceFeePercentage(uint256)": "20edda38",
			"startBid(uint256)": "bea7d6e9",
			"supportsInterface(bytes4)": "01ffc9a7",
			"transferOwnership(address)": "f2fde38b",
			"upgradeToAndCall(address,bytes)": "4f1ef286"
		}
	},
	"abi": [
		{
			"inputs": [],
			"stateMutability": "nonpayable",
			"type": "constructor"
		},
		{
			"inputs": [
				{
					"internalType": "address",
					"name": "target",
					"type": "address"
				}
			],
			"name": "AddressEmptyCode",
			"type": "error"
		},
		{
			"inputs": [
				{
					"internalType": "address",
					"name": "implementation",
					"type": "address"
				}
			],
			"name": "ERC1967InvalidImplementation",
			"type": "error"
		},
		{
			"inputs": [],
			"name": "ERC1967NonPayable",
			"type": "error"
		},
		{
			"inputs": [],
			"name": "FailedInnerCall",
			"type": "error"
		},
		{
			"inputs": [],
			"name": "InvalidInitialization",
			"type": "error"
		},
		{
			"inputs": [],
			"name": "NotInitializing",
			"type": "error"
		},
		{
			"inputs": [
				{
					"internalType": "address",
					"name": "owner",
					"type": "address"
				}
			],
			"name": "OwnableInvalidOwner",
			"type": "error"
		},
		{
			"inputs": [
				{
					"internalType": "address",
					"name": "account",
					"type": "address"
				}
			],
			"name": "OwnableUnauthorizedAccount",
			"type": "error"
		},
		{
			"inputs": [],
			"name": "UUPSUnauthorizedCallContext",
			"type": "error"
		},
		{
			"inputs": [
				{
					"internalType": "bytes32",
					"name": "slot",
					"type": "bytes32"
				}
			],
			"name": "UUPSUnsupportedProxiableUUID",
			"type": "error"
		},
		{
			"inputs": [
				{
					"internalType": "bool",
					"name": "claimed",
					"type": "bool"
				}
			],
			"name": "alreadyClaimed",
			"type": "error"
		},
		{
			"inputs": [
				{
					"internalType": "uint256",
					"name": "initialPrice",
					"type": "uint256"
				}
			],
			"name": "initialPriceZero",
			"type": "error"
		},
		{
			"inputs": [
				{
					"internalType": "uint256",
					"name": "fee",
					"type": "uint256"
				}
			],
			"name": "invalidFee",
			"type": "error"
		},
		{
			"inputs": [
				{
					"internalType": "uint256",
					"name": "startTime",
					"type": "uint256"
				},
				{
					"internalType": "uint256",
					"name": "endTime",
					"type": "uint256"
				}
			],
			"name": "invalidTimeStamp",
			"type": "error"
		},
		{
			"inputs": [
				{
					"internalType": "uint256",
					"name": "organizationLength",
					"type": "uint256"
				},
				{
					"internalType": "uint256",
					"name": "percentagesLength",
					"type": "uint256"
				}
			],
			"name": "lengthDontMatch",
			"type": "error"
		},
		{
			"inputs": [
				{
					"internalType": "bool",
					"name": "listed",
					"type": "bool"
				}
			],
			"name": "notListed",
			"type": "error"
		},
		{
			"inputs": [
				{
					"internalType": "bool",
					"name": "onAuction",
					"type": "bool"
				}
			],
			"name": "onAuction",
			"type": "error"
		},
		{
			"inputs": [
				{
					"internalType": "bool",
					"name": "onfixedPrice",
					"type": "bool"
				}
			],
			"name": "onFixedPrice",
			"type": "error"
		},
		{
			"inputs": [
				{
					"internalType": "address",
					"name": "owner",
					"type": "address"
				}
			],
			"name": "ownerCantBuy",
			"type": "error"
		},
		{
			"inputs": [
				{
					"internalType": "uint256",
					"name": "organizationLength",
					"type": "uint256"
				}
			],
			"name": "worngOrganizationlength",
			"type": "error"
		},
		{
			"inputs": [
				{
					"internalType": "address",
					"name": "contractAddres",
					"type": "address"
				}
			],
			"name": "wrongAddress",
			"type": "error"
		},
		{
			"inputs": [
				{
					"internalType": "uint256",
					"name": "listingid",
					"type": "uint256"
				}
			],
			"name": "wrongListingId",
			"type": "error"
		},
		{
			"inputs": [
				{
					"internalType": "uint256",
					"name": "noOfcopies",
					"type": "uint256"
				}
			],
			"name": "wrongNoOfCopies",
			"type": "error"
		},
		{
			"inputs": [
				{
					"internalType": "uint256",
					"name": "wrongId",
					"type": "uint256"
				}
			],
			"name": "wrongTokenId",
			"type": "error"
		},
		{
			"anonymous": false,
			"inputs": [
				{
					"indexed": false,
					"internalType": "address",
					"name": "_currentBidder",
					"type": "address"
				},
				{
					"indexed": false,
					"internalType": "uint256",
					"name": "_bidAmount",
					"type": "uint256"
				},
				{
					"indexed": false,
					"internalType": "uint256",
					"name": "_previousBidAmount",
					"type": "uint256"
				}
			],
			"name": "Bided",
			"type": "event"
		},
		{
			"anonymous": false,
			"inputs": [
				{
					"indexed": false,
					"internalType": "address",
					"name": "_listerAddress",
					"type": "address"
				},
				{
					"indexed": false,
					"internalType": "uint256",
					"name": "_listingID",
					"type": "uint256"
				},
				{
					"indexed": false,
					"internalType": "bool",
					"name": "_isListed",
					"type": "bool"
				}
			],
			"name": "CancelList",
			"type": "event"
		},
		{
			"anonymous": false,
			"inputs": [
				{
					"indexed": false,
					"internalType": "uint256",
					"name": "_initialPrice",
					"type": "uint256"
				},
				{
					"indexed": false,
					"internalType": "uint256",
					"name": "_listStartTime",
					"type": "uint256"
				},
				{
					"indexed": false,
					"internalType": "uint256",
					"name": "_listEndTime",
					"type": "uint256"
				}
			],
			"name": "Edited",
			"type": "event"
		},
		{
			"anonymous": false,
			"inputs": [
				{
					"indexed": false,
					"internalType": "uint256",
					"name": "fiscalFee",
					"type": "uint256"
				},
				{
					"indexed": false,
					"internalType": "uint256",
					"name": "royaltyFee",
					"type": "uint256"
				},
				{
					"indexed": true,
					"internalType": "uint256",
					"name": "serviceFee",
					"type": "uint256"
				},
				{
					"indexed": true,
					"internalType": "uint256",
					"name": "donationFee",
					"type": "uint256"
				},
				{
					"indexed": true,
					"internalType": "uint256",
					"name": "amountSendToSeller",
					"type": "uint256"
				}
			],
			"name": "FeeInfo",
			"type": "event"
		},
		{
			"anonymous": false,
			"inputs": [
				{
					"indexed": false,
					"internalType": "uint64",
					"name": "version",
					"type": "uint64"
				}
			],
			"name": "Initialized",
			"type": "event"
		},
		{
			"anonymous": false,
			"inputs": [
				{
					"indexed": false,
					"internalType": "uint256",
					"name": "_listId",
					"type": "uint256"
				},
				{
					"indexed": false,
					"internalType": "uint256",
					"name": "_tokenId",
					"type": "uint256"
				},
				{
					"indexed": false,
					"internalType": "uint256",
					"name": "_noOfCopies",
					"type": "uint256"
				},
				{
					"indexed": false,
					"internalType": "uint256",
					"name": "_initialPrices",
					"type": "uint256"
				}
			],
			"name": "Listed",
			"type": "event"
		},
		{
			"anonymous": false,
			"inputs": [
				{
					"indexed": true,
					"internalType": "address",
					"name": "previousOwner",
					"type": "address"
				},
				{
					"indexed": true,
					"internalType": "address",
					"name": "newOwner",
					"type": "address"
				}
			],
			"name": "OwnershipTransferred",
			"type": "event"
		},
		{
			"anonymous": false,
			"inputs": [
				{
					"indexed": false,
					"internalType": "address",
					"name": "fiscalAddress",
					"type": "address"
				},
				{
					"indexed": false,
					"internalType": "uint256",
					"name": "feePercentage",
					"type": "uint256"
				}
			],
			"name": "SetFiscalFee",
			"type": "event"
		},
		{
			"anonymous": false,
			"inputs": [
				{
					"indexed": false,
					"internalType": "address",
					"name": "_from",
					"type": "address"
				},
				{
					"indexed": true,
					"internalType": "uint256",
					"name": "_tokenId",
					"type": "uint256"
				},
				{
					"indexed": true,
					"internalType": "address",
					"name": "_nftAddress",
					"type": "address"
				},
				{
					"indexed": false,
					"internalType": "address",
					"name": "_to",
					"type": "address"
				},
				{
					"indexed": false,
					"internalType": "uint256",
					"name": "_noOfCopirs",
					"type": "uint256"
				}
			],
			"name": "SoldNft",
			"type": "event"
		},
		{
			"anonymous": false,
			"inputs": [
				{
					"indexed": true,
					"internalType": "address",
					"name": "implementation",
					"type": "address"
				}
			],
			"name": "Upgraded",
			"type": "event"
		},
		{
			"anonymous": false,
			"inputs": [
				{
					"indexed": false,
					"internalType": "uint256",
					"name": "_serviceFeePercentage",
					"type": "uint256"
				},
				{
					"indexed": false,
					"internalType": "address",
					"name": "_owner",
					"type": "address"
				}
			],
			"name": "plateFarmFeePercentage",
			"type": "event"
		},
		{
			"inputs": [
				{
					"internalType": "uint256",
					"name": "_listId",
					"type": "uint256"
				}
			],
			"name": "BuyFixedPriceItem",
			"outputs": [],
			"stateMutability": "payable",
			"type": "function"
		},
		{
			"inputs": [],
			"name": "UPGRADE_INTERFACE_VERSION",
			"outputs": [
				{
					"internalType": "string",
					"name": "",
					"type": "string"
				}
			],
			"stateMutability": "view",
			"type": "function"
		},
		{
			"inputs": [],
			"name": "adminFeePercentage",
			"outputs": [
				{
					"internalType": "uint256",
					"name": "",
					"type": "uint256"
				}
			],
			"stateMutability": "view",
			"type": "function"
		},
		{
			"inputs": [
				{
					"internalType": "address",
					"name": "",
					"type": "address"
				}
			],
			"name": "defaultFiscalFee",
			"outputs": [
				{
					"internalType": "uint256",
					"name": "",
					"type": "uint256"
				}
			],
			"stateMutability": "view",
			"type": "function"
		},
		{
			"inputs": [
				{
					"internalType": "uint256",
					"name": "",
					"type": "uint256"
				}
			],
			"name": "donationInfo",
			"outputs": [
				{
					"internalType": "uint256",
					"name": "noOfOrgazisations",
					"type": "uint256"
				}
			],
			"stateMutability": "view",
			"type": "function"
		},
		{
			"inputs": [
				{
					"internalType": "uint256",
					"name": "_listId",
					"type": "uint256"
				},
				{
					"internalType": "uint256",
					"name": "_initialPrice",
					"type": "uint256"
				},
				{
					"internalType": "uint256",
					"name": "_listStartTime",
					"type": "uint256"
				},
				{
					"internalType": "uint256",
					"name": "_listEndTime",
					"type": "uint256"
				},
				{
					"internalType": "uint256",
					"name": "_serviceFee",
					"type": "uint256"
				}
			],
			"name": "editList",
			"outputs": [],
			"stateMutability": "nonpayable",
			"type": "function"
		},
		{
			"inputs": [
				{
					"internalType": "uint256",
					"name": "_listId",
					"type": "uint256"
				}
			],
			"name": "endAuction",
			"outputs": [],
			"stateMutability": "nonpayable",
			"type": "function"
		},
		{
			"inputs": [
				{
					"internalType": "address",
					"name": "_mintingContract",
					"type": "address"
				},
				{
					"internalType": "address",
					"name": "_ownerAddress",
					"type": "address"
				}
			],
			"name": "initialize",
			"outputs": [],
			"stateMutability": "nonpayable",
			"type": "function"
		},
		{
			"inputs": [
				{
					"internalType": "uint256",
					"name": "_initialPrice",
					"type": "uint256"
				},
				{
					"internalType": "uint256",
					"name": "_listStartTime",
					"type": "uint256"
				},
				{
					"internalType": "uint256",
					"name": "_listEndTime",
					"type": "uint256"
				},
				{
					"internalType": "uint256",
					"name": "_tokenId",
					"type": "uint256"
				},
				{
					"internalType": "uint256",
					"name": "_noOfCopies",
					"type": "uint256"
				},
				{
					"internalType": "address",
					"name": "_nftAddress",
					"type": "address"
				},
				{
					"internalType": "uint256",
					"name": "_serviceFee",
					"type": "uint256"
				},
				{
					"internalType": "address",
					"name": "_fiscalSponsor",
					"type": "address"
				}
			],
			"name": "listForOrganizations",
			"outputs": [],
			"stateMutability": "nonpayable",
			"type": "function"
		},
		{
			"inputs": [
				{
					"internalType": "uint256",
					"name": "_initialPrice",
					"type": "uint256"
				},
				{
					"internalType": "uint256",
					"name": "_listStartTime",
					"type": "uint256"
				},
				{
					"internalType": "uint256",
					"name": "_listEndTime",
					"type": "uint256"
				},
				{
					"internalType": "uint256",
					"name": "_tokenId",
					"type": "uint256"
				},
				{
					"internalType": "uint256",
					"name": "_noOfCopies",
					"type": "uint256"
				},
				{
					"internalType": "uint256",
					"name": "_serviceFee",
					"type": "uint256"
				},
				{
					"internalType": "address",
					"name": "_nftAddress",
					"type": "address"
				},
				{
					"internalType": "address[]",
					"name": "_organizations",
					"type": "address[]"
				},
				{
					"internalType": "uint256[]",
					"name": "_donatePercentages",
					"type": "uint256[]"
				}
			],
			"name": "listForUsers",
			"outputs": [],
			"stateMutability": "nonpayable",
			"type": "function"
		},
		{
			"inputs": [],
			"name": "listId",
			"outputs": [
				{
					"internalType": "uint256",
					"name": "",
					"type": "uint256"
				}
			],
			"stateMutability": "view",
			"type": "function"
		},
		{
			"inputs": [
				{
					"internalType": "uint256",
					"name": "",
					"type": "uint256"
				}
			],
			"name": "listing",
			"outputs": [
				{
					"internalType": "bool",
					"name": "listed",
					"type": "bool"
				},
				{
					"internalType": "bool",
					"name": "nftClaimed",
					"type": "bool"
				},
				{
					"internalType": "bool",
					"name": "fixedPrice",
					"type": "bool"
				},
				{
					"internalType": "uint256",
					"name": "serviceFeePercentage",
					"type": "uint256"
				},
				{
					"internalType": "uint256",
					"name": "price",
					"type": "uint256"
				},
				{
					"internalType": "uint256",
					"name": "tokenId",
					"type": "uint256"
				},
				{
					"internalType": "uint256",
					"name": "noOfCopies",
					"type": "uint256"
				},
				{
					"internalType": "address",
					"name": "nftOwner",
					"type": "address"
				},
				{
					"internalType": "address",
					"name": "newOwner",
					"type": "address"
				},
				{
					"internalType": "address",
					"name": "nftAddress",
					"type": "address"
				},
				{
					"internalType": "uint256",
					"name": "listingEndTime",
					"type": "uint256"
				},
				{
					"internalType": "uint256",
					"name": "listingStartTime",
					"type": "uint256"
				}
			],
			"stateMutability": "view",
			"type": "function"
		},
		{
			"inputs": [],
			"name": "mintingContract",
			"outputs": [
				{
					"internalType": "contract MintingContract",
					"name": "",
					"type": "address"
				}
			],
			"stateMutability": "view",
			"type": "function"
		},
		{
			"inputs": [],
			"name": "mintingContractAddress",
			"outputs": [
				{
					"internalType": "address",
					"name": "",
					"type": "address"
				}
			],
			"stateMutability": "view",
			"type": "function"
		},
		{
			"inputs": [
				{
					"internalType": "address",
					"name": "",
					"type": "address"
				},
				{
					"internalType": "address",
					"name": "",
					"type": "address"
				},
				{
					"internalType": "uint256[]",
					"name": "",
					"type": "uint256[]"
				},
				{
					"internalType": "uint256[]",
					"name": "",
					"type": "uint256[]"
				},
				{
					"internalType": "bytes",
					"name": "",
					"type": "bytes"
				}
			],
			"name": "onERC1155BatchReceived",
			"outputs": [
				{
					"internalType": "bytes4",
					"name": "",
					"type": "bytes4"
				}
			],
			"stateMutability": "nonpayable",
			"type": "function"
		},
		{
			"inputs": [
				{
					"internalType": "address",
					"name": "",
					"type": "address"
				},
				{
					"internalType": "address",
					"name": "",
					"type": "address"
				},
				{
					"internalType": "uint256",
					"name": "",
					"type": "uint256"
				},
				{
					"internalType": "uint256",
					"name": "",
					"type": "uint256"
				},
				{
					"internalType": "bytes",
					"name": "",
					"type": "bytes"
				}
			],
			"name": "onERC1155Received",
			"outputs": [
				{
					"internalType": "bytes4",
					"name": "",
					"type": "bytes4"
				}
			],
			"stateMutability": "nonpayable",
			"type": "function"
		},
		{
			"inputs": [],
			"name": "owner",
			"outputs": [
				{
					"internalType": "address",
					"name": "",
					"type": "address"
				}
			],
			"stateMutability": "view",
			"type": "function"
		},
		{
			"inputs": [],
			"name": "proxiableUUID",
			"outputs": [
				{
					"internalType": "bytes32",
					"name": "",
					"type": "bytes32"
				}
			],
			"stateMutability": "view",
			"type": "function"
		},
		{
			"inputs": [],
			"name": "renounceOwnership",
			"outputs": [],
			"stateMutability": "nonpayable",
			"type": "function"
		},
		{
			"inputs": [
				{
					"internalType": "uint256",
					"name": "_fiscalSponsorPercentage",
					"type": "uint256"
				}
			],
			"name": "setFiscalSponsorPercentage",
			"outputs": [],
			"stateMutability": "nonpayable",
			"type": "function"
		},
		{
			"inputs": [
				{
					"internalType": "uint256",
					"name": "_serviceFeePercentage",
					"type": "uint256"
				}
			],
			"name": "setPlatFormServiceFeePercentage",
			"outputs": [],
			"stateMutability": "nonpayable",
			"type": "function"
		},
		{
			"inputs": [
				{
					"internalType": "uint256",
					"name": "_listId",
					"type": "uint256"
				}
			],
			"name": "startBid",
			"outputs": [],
			"stateMutability": "payable",
			"type": "function"
		},
		{
			"inputs": [
				{
					"internalType": "bytes4",
					"name": "interfaceId",
					"type": "bytes4"
				}
			],
			"name": "supportsInterface",
			"outputs": [
				{
					"internalType": "bool",
					"name": "",
					"type": "bool"
				}
			],
			"stateMutability": "view",
			"type": "function"
		},
		{
			"inputs": [
				{
					"internalType": "address",
					"name": "newOwner",
					"type": "address"
				}
			],
			"name": "transferOwnership",
			"outputs": [],
			"stateMutability": "nonpayable",
			"type": "function"
		},
		{
			"inputs": [
				{
					"internalType": "address",
					"name": "newImplementation",
					"type": "address"
				},
				{
					"internalType": "bytes",
					"name": "data",
					"type": "bytes"
				}
			],
			"name": "upgradeToAndCall",
			"outputs": [],
			"stateMutability": "payable",
			"type": "function"
		}
	]
}