{
	"data": {
		"bytecode": {
			"linkReferences": {},
			"object": "60a060405230608052348015610013575f80fd5b5061001c610021565b6100d3565b7ff0c57e16840df040f15088dc2f81fe391c3923bec73e23a9662efc9c229c6a00805468010000000000000000900460ff16156100715760405163f92ee8a960e01b815260040160405180910390fd5b80546001600160401b03908116146100d05780546001600160401b0319166001600160401b0390811782556040519081527fc7f505b2f371ae2175ee4913f4499e1f2633a7b5936321eed1cdaeb6115181d29060200160405180910390a15b50565b608051612de46100f95f395f81816121a7015281816121d0015261230f0152612de45ff3fe60806040526004361061017b575f3560e01c806384a184de116100cd578063bea7d6e911610087578063eafa403911610062578063eafa403914610541578063ee229f7e14610560578063f23a6e611461057f578063f2fde38b146105aa575f80fd5b8063bea7d6e9146104f1578063d2f6f67d14610504578063e30ec38614610522575f80fd5b806384a184de1461032f5780638da5cb5b146104285780639e898e581461043c578063ad3cb1cc14610451578063b9a2de3a1461048e578063bc197c81146104ad575f80fd5b80634c205bc911610138578063715018a611610113578063715018a6146102a45780637cfd3e18146102b8578063824563f6146102e3578063831490f91461031a575f80fd5b80634c205bc91461026a5780634f1ef2861461027d57806352d1902d14610290575f80fd5b806301ffc9a71461017f57806303c32aa9146101b357806320edda38146101d45780632c0bc695146101f35780633d6c050714610212578063485cc9551461024b575b5f80fd5b34801561018a575f80fd5b5061019e610199366004612725565b6105c9565b60405190151581526020015b60405180910390f35b3480156101be575f80fd5b506101d26101cd36600461274c565b6105ff565b005b3480156101df575f80fd5b506101d26101ee36600461274c565b6106ca565b3480156101fe575f80fd5b506101d261020d366004612763565b610769565b34801561021d575f80fd5b5061023d61022c36600461274c565b60056020525f908152604090205481565b6040519081526020016101aa565b348015610256575f80fd5b506101d26102653660046127ae565b6108c2565b6101d261027836600461274c565b610a10565b6101d261028b366004612896565b610e5d565b34801561029b575f80fd5b5061023d610e7c565b3480156102af575f80fd5b506101d2610e97565b3480156102c3575f80fd5b5061023d6102d23660046128e3565b60066020525f908152604090205481565b3480156102ee575f80fd5b50600354610302906001600160a01b031681565b6040516001600160a01b0390911681526020016101aa565b348015610325575f80fd5b5061023d60025481565b34801561033a575f80fd5b506103b861034936600461274c565b600460208190525f9182526040909120805460018201546002830154600384015494840154600585015460068601546007870154600888015460099098015460ff8089169a6101008a0482169a62010000909a04909116989095946001600160a01b039081169481169316918c565b604080519c15158d529a151560208d0152981515998b019990995260608a0196909652608089019490945260a088019290925260c08701526001600160a01b0390811660e087015290811661010086015216610120840152610140830191909152610160820152610180016101aa565b348015610433575f80fd5b50610302610eaa565b348015610447575f80fd5b5061023d60015481565b34801561045c575f80fd5b50610481604051806040016040528060058152602001640352e302e360dc1b81525081565b6040516101aa91906128fe565b348015610499575f80fd5b506101d26104a836600461274c565b610ed8565b3480156104b8575f80fd5b506104d86104c73660046129c0565b63bc197c8160e01b95945050505050565b6040516001600160e01b031990911681526020016101aa565b6101d26104ff36600461274c565b611118565b34801561050f575f80fd5b505f54610302906001600160a01b031681565b34801561052d575f80fd5b506101d261053c366004612a73565b6113df565b34801561054c575f80fd5b506101d261055b366004612b45565b6115de565b34801561056b575f80fd5b506101d261057a36600461274c565b611811565b34801561058a575f80fd5b506104d8610599366004612bf3565b63f23a6e6160e01b95945050505050565b3480156105b5575f80fd5b506101d26105c43660046128e3565b6119ab565b5f6001600160e01b03198216630271189760e51b14806105f957506301ffc9a760e01b6001600160e01b03198316145b92915050565b6064811015801561061257506103e88111155b61067c5760405162461bcd60e51b815260206004820152603060248201527f5f66697363616c53706f6e736f7250657263656e74616765206d75737420626560448201526f0206265747765656e203120746f2031360841b60648201526084015b60405180910390fd5b335f81815260066020908152604091829020849055815192835282018390527fbee82e0cd48a0dfd192b0980a9a2c7d9b007aad1b38c23a235b4121b554d9c8a91015b60405180910390a150565b6106d26119e8565b5f811180156106e35750610bb88111155b61072f5760405162461bcd60e51b815260206004820181905260248201527f6665652025206d757374206265747765656e20696e20312520746f20333025206044820152606401610673565b6002819055604080518281523360208201527f8b52e67d733e4bffdb3a2df53e3b88e2f31125fc8a8442b742602f8f7d0ed3e991016106bf565b845f811161078d5760405163c860174b60e01b815260048101829052602401610673565b5f8181526004602052604090205460ff166107d3575f8181526004602081905260409182902054915163e6c1c63760e01b815260ff909216151590820152602401610673565b5f81815260046020526040902054610100900460ff1615610822575f818152600460208190526040918290205491516224680560e91b815261010090920460ff16151590820152602401610673565b5f86815260046020819052604090912060038101549181015460079091015461085c9291908890889088906001600160a01b031688611a1a565b5f8681526004602090815260409182902060028101546009820154600890920154845191825292810191909152918201527fd3f4e53a5792e81767b11408a290f82cf83fde26090d65773f2c0a9aeb63adfb9060600160405180910390a1505050505050565b7ff0c57e16840df040f15088dc2f81fe391c3923bec73e23a9662efc9c229c6a008054600160401b810460ff16159067ffffffffffffffff165f811580156109075750825b90505f8267ffffffffffffffff1660011480156109235750303b155b905081158015610931575080155b1561094f5760405163f92ee8a960e01b815260040160405180910390fd5b845467ffffffffffffffff19166001178555831561097957845460ff60401b1916600160401b1785555b60fa600255600380546001600160a01b0389166001600160a01b031991821681179092555f805490911690911790556109b0611bc2565b6109b986611bca565b6109c1611bc2565b8315610a0757845460ff60401b19168555604051600181527fc7f505b2f371ae2175ee4913f4499e1f2633a7b5936321eed1cdaeb6115181d29060200160405180910390a15b50505050505050565b805f8111610a345760405163c860174b60e01b815260048101829052602401610673565b5f8181526004602052604090205460ff16610a7a575f8181526004602081905260409182902054915163e6c1c63760e01b815260ff909216151590820152602401610673565b5f81815260046020526040902054610100900460ff1615610ac9575f818152600460208190526040918290205491516224680560e91b815261010090920460ff16151590820152602401610673565b5f828152600460205260409020600201543414610afb576040516385d649f760e01b8152346004820152602401610673565b5f8281526004602052604090205462010000900460ff16610b4c575f82815260046020819052604091829020549151639cf9f1f760e01b81526201000090920460ff16151590820152602401610673565b5f828152600460205260409020600501546001600160a01b03163303610ba4575f828152600460208190526040918290206005015491516304a83c1b60e51b81526001600160a01b0390921690820152602401610673565b5f8281526004602052604081206006810180546001600160a01b031916331790556001015415610bf7575f8381526004602052604090206002810154600190910154610bf09190611bdb565b9050610c1a565b610c1760045f8581526020019081526020015f2060020154600254611bdb565b90505b5f8381526005602052604081205415610c3957610c3684611c91565b90505b5f80548582526004602081905260408084206005015490516353f5011960e01b81526001600160a01b0391821692810192909252909116906353f5011990602401608060405180830381865afa158015610c95573d5f803e3d5ffd5b505050506040513d601f19601f82011682018060405250810190610cb99190612c4b565b50505090505f8115610cd357610cd0865f80611e62565b90505b5f610cdd87611fa1565b90505f8183610cec8789612cb5565b610cf69190612cb5565b610d009190612cb5565b5f89815260046020526040902060020154610d1b9190612cc8565b9050610d2e610d28610eaa565b87612076565b5f88815260046020526040902060050154610d52906001600160a01b031682612076565b5f888152600460208190526040909120805461ff0019166101001781556007810154600682015460038301549290930154610d9f936001600160a01b03928316933093919091169161210c565b5f88815260046020818152604092839020600781015460038201546006830154929094015485513081526001600160a01b03938416948101949094528386015293519316927f01a7baf821561ae36aa58d172bd77037c6f9c19177e5b840e3d413c110a80e459181900360600190a38085877f36203e70aeb15b48fc7b10549158c6acc3ba3235ba2644757016fb33d4fa39448686604051610e4b929190918252602082015260400190565b60405180910390a45050505050505050565b610e6561219c565b610e6e82612240565b610e788282612248565b5050565b5f610e85612304565b505f80516020612d8f83398151915290565b610e9f6119e8565b610ea85f61234d565b565b7f9016d09d72d40fdae2fd8ceac6b6234c7706214fd39c1cd1e609a0528c199300546001600160a01b031690565b805f8111610efc5760405163c860174b60e01b815260048101829052602401610673565b5f8181526004602052604090205460ff16610f42575f8181526004602081905260409182902054915163e6c1c63760e01b815260ff909216151590820152602401610673565b5f81815260046020526040902054610100900460ff1615610f91575f818152600460208190526040918290205491516224680560e91b815261010090920460ff16151590820152602401610673565b5f8281526004602052604090205462010000900460ff1615610fe3575f82815260046020819052604091829020549151632a515af560e11b81526201000090920460ff16151590820152602401610673565b5f828152600460205260409020600501546001600160a01b031633148061102257505f828152600460205260409020600601546001600160a01b031633145b61108c5760405162461bcd60e51b815260206004820152603560248201527f596f7520617265206e6f7420746865206e66744f776e6572206e656974686572604482015274103a3432903432b4b3b432b9ba103134b23232b91760591b6064820152608401610673565b5f828152600460205260409020600801544210156110e0575f828152600460208190526040918290206009810154600890910154925163dd96246f60e01b8152918201526024810191909152604401610673565b5f8281526004602052604081206001015415610bf7575f8381526004602052604090206002810154600190910154610bf09190611bdb565b805f811161113c5760405163c860174b60e01b815260048101829052602401610673565b5f8181526004602052604090205460ff16611182575f8181526004602081905260409182902054915163e6c1c63760e01b815260ff909216151590820152602401610673565b5f81815260046020526040902054610100900460ff16156111d1575f818152600460208190526040918290205491516224680560e91b815261010090920460ff16151590820152602401610673565b5f8281526004602052604090205462010000900460ff1615611223575f82815260046020819052604091829020549151632a515af560e11b81526201000090920460ff16151590820152602401610673565b34158061123f57505f8281526004602052604090206002015434105b1561125f576040516385d649f760e01b8152346004820152602401610673565b5f8281526004602052604090206009015442108061128c57505f8281526004602052604090206008015442115b156112cd575f828152600460208190526040918290206009810154600890910154925163dd96246f60e01b8152918201526024810191909152604401610673565b5f828152600460205260409020600501546001600160a01b03163303611325575f828152600460208190526040918290206005015491516304a83c1b60e51b81526001600160a01b0390921690820152602401610673565b5f82815260046020526040902060028101546006909101546001600160a01b0316811580159061135d57506001600160a01b03811615155b1561136c5761136c8183612076565b5f848152600460209081526040918290203460028201819055600690910180546001600160a01b031916339081179091558351908152918201529081018390527fa6e846933627bedfe46f69605777a6483fb976f59199ec63196aa8442c8eb1239060600160405180910390a150505050565b5f80546040516353f5011960e01b8152336004820152839291829182916001600160a01b0316906353f5011990602401608060405180830381865afa15801561142a573d5f803e3d5ffd5b505050506040513d601f19601f8201168201806040525081019061144e9190612c4b565b5092509250925082156114b557806001600160a01b0316846001600160a01b0316146114b55760405162461bcd60e51b81526020600482015260166024820152753bb937b733903334b9b1b0b61039b837b739b7b9109760511b6044820152606401610673565b5f8c116114d85760405163baf301f760e01b8152600481018d9052602401610673565b5f89116114fb576040516343599f6960e11b8152600481018a9052602401610673565b5f881161151e57604051638e57a1b360e01b815260048101899052602401610673565b60018054905f61152d83612cdb565b919050555061154189898e8e8e8c8c611a1a565b6003546001600160a01b038881169116146115695761156489896001548a6123bd565b611586565b600154600354611586918b918b91906001600160a01b03166123bd565b60015460408051918252602082018b90528101899052606081018d90527f52ad65ec41e71d556367fc4fef59f68118b969bb890def6f1ccd0b952f557ca49060800160405180910390a1505050505050505050505050565b81815f8251111580156115f25750600a8251115b15611615578151604051631d9aea7d60e01b815260040161067391815260200190565b805182511461164457815181516040516312c9b6e160e01b815260048101929092526024820152604401610673565b5f805b835181101561170e575f6001600160a01b031684828151811061166c5761166c612cf3565b60200260200101516001600160a01b031614611706576101f483828151811061169757611697612cf3565b602002602001015110156117015760405162461bcd60e51b815260206004820152602b60248201527f646f6e6174696f6e2070657263656e74616765206d757374206265206772656160448201526a746572207468656e20352560a81b6064820152608401610673565b600191505b600101611647565b50806117555760405162461bcd60e51b815260206004820152601660248201527539b2b632b1ba1030b71037b933b0b73d30ba34b7b71760511b6044820152606401610673565b5f8c116117785760405163baf301f760e01b8152600481018d9052602401610673565b5f891161179b576040516343599f6960e11b8152600481018a9052602401610673565b5f88116117be57604051638e57a1b360e01b815260048101899052602401610673565b60018054905f6117cd83612cdb565b91905055506117e189898e8e8e8b8d611a1a565b6117ee60015486866123f9565b6003546001600160a01b03878116911614611569576115648989600154896123bd565b5f818152600460205260409020600501546001600160a01b031633146118795760405162461bcd60e51b815260206004820152601860248201527f596f7520617265206e6f7420746865206e66744f776e657200000000000000006044820152606401610673565b5f81815260046020526040902054610100900460ff16156118d25760405162461bcd60e51b8152602060048201526013602482015272139195081a5cc8185b1c98591e481cdbdb190b606a1b6044820152606401610673565b5f8181526004602081905260409091206007810154600582015460038301549290930154611911936001600160a01b039283169330939091169161210c565b5f818152600460208181526040808420805462ff00ff19168155600381018590559283018490556002830184905560088301849055600983018490556007830180546001600160a01b0319908116909155600590930180549093169092558151338152908101849052908101919091527f3c1cbea3c4423acdedc9531a932910ab62fd4b01b389aa96646907a70549974c906060016106bf565b6119b36119e8565b6001600160a01b0381166119dc57604051631e4fbdf760e01b81525f6004820152602401610673565b6119e58161234d565b50565b336119f1610eaa565b6001600160a01b031614610ea85760405163118cdaa760e01b8152336004820152602401610673565b8484848989865f8611611a435760405163baf301f760e01b815260048101879052602401610673565b5f8311611a66576040516343599f6960e11b815260048101849052602401610673565b5f8211611a8957604051638e57a1b360e01b815260048101839052602401610673565b6001600160a01b038116611abb5760405163e4cfa94d60e01b81526001600160a01b0382166004820152602401610673565b8415801590611ac957508315155b15611b0557428511158015611add57508484105b15611b055760405163dd96246f60e01b81526004810186905260248101859052604401610673565b89158015611b11575088155b15611b36576001545f908152600460205260409020805462ff00001916620100001790555b5050600180545f908152600460208190526040808320805460ff191685179055835483528083206003019e909e55825482528d8220019b909b5580548b528b8b20600201999099555050865488525050868620600901939093555082548452848420600801558154835283832060050180546001600160a01b0319163317905581548352929091200155565b610ea8612506565b611bd2612506565b6119e58161254f565b5f825f03611c2b5760405162461bcd60e51b815260206004820152601c60248201527f5072696365206f66204e46542063616e206e6f74206265207a65726f000000006044820152606401610673565b815f03611c715760405162461bcd60e51b81526020600482015260146024820152735f5042502063616e206e6f74206265207a65726f60601b6044820152606401610673565b5f612710611c7f8486612d07565b611c899190612d1e565b949350505050565b5f80805b5f84815260056020526040902054811015611e5b575f84815260056020526040812060010182600a8110611ccb57611ccb612cf3565b01546001600160a01b031614611e53575f8481526004602090815260408083206002015460059092528220611d169190600b0184600a8110611d0f57611d0f612cf3565b0154611bdb565b5f805487825260056020526040822092935090916001600160a01b03909116906353f501199060010185600a8110611d5057611d50612cf3565b015460405160e083901b6001600160e01b03191681526001600160a01b039091166004820152602401608060405180830381865afa158015611d94573d5f803e3d5ffd5b505050506040513d601f19601f82011682018060405250810190611db89190612c4b565b50505090505f8115611dfe575f878152600560205260408120611dfb919060010186600a8110611dea57611dea612cf3565b01546001600160a01b031685611e62565b90505b5f611e098285612cc8565b5f898152600560205260409020909150611e429060010186600a8110611e3157611e31612cf3565b01546001600160a01b031682612076565b611e4c8487612cb5565b9550505050505b600101611c95565b5092915050565b5f80808515801590611e7b57506001600160a01b038516155b8015611e85575083155b611e8f5784611eaa565b5f868152600460205260409020600501546001600160a01b03165b5f80546040516353f5011960e01b81526001600160a01b038085166004830152939450919283929116906353f5011990602401608060405180830381865afa158015611ef8573d5f803e3d5ffd5b505050506040513d601f19601f82011682018060405250810190611f1c9190612c4b565b509250925050815f03611f50576001600160a01b0381165f908152600660205260408120549250829003611f50576103e891505b5f8815801590611f5e575086155b611f685786611f7a565b5f898152600460205260409020600201545b9050611f868184611bdb565b9450611f928286612076565b509293505050505b9392505050565b5f8181526004602052604081206007015460035482916001600160a01b039081169116036105f9575f8054848252600460208190526040808420600301549051638c33e47f60e01b81529182015282916001600160a01b031690638c33e47f906024016040805180830381865afa15801561201e573d5f803e3d5ffd5b505050506040513d601f19601f820116820180604052508101906120429190612d3d565b5f8781526004602052604090206002015491935091506120629083611bdb565b925061206e8184612076565b505092915050565b5f826001600160a01b0316826040515f6040518083038185875af1925050503d805f81146120bf576040519150601f19603f3d011682016040523d82523d5f602084013e6120c4565b606091505b50509050806121075760405162461bcd60e51b815260206004820152600f60248201526e151c985b9cd9995c8819985a5b1959608a1b6044820152606401610673565b505050565b604051637921219560e11b81526001600160a01b038581166004808401919091528582166024840152604483018590526064830184905260a0608484015260a4830152630307830360e41b60c483015286169063f242432a9060e4015f604051808303815f87803b15801561217f575f80fd5b505af1158015612191573d5f803e3d5ffd5b505050505050505050565b306001600160a01b037f000000000000000000000000000000000000000000000000000000000000000016148061222257507f00000000000000000000000000000000000000000000000000000000000000006001600160a01b03166122165f80516020612d8f833981519152546001600160a01b031690565b6001600160a01b031614155b15610ea85760405163703e46dd60e11b815260040160405180910390fd5b6119e56119e8565b816001600160a01b03166352d1902d6040518163ffffffff1660e01b8152600401602060405180830381865afa9250505080156122a2575060408051601f3d908101601f1916820190925261229f91810190612d61565b60015b6122ca57604051634c9c8ce360e01b81526001600160a01b0383166004820152602401610673565b5f80516020612d8f83398151915281146122fa57604051632a87526960e21b815260048101829052602401610673565b6121078383612557565b306001600160a01b037f00000000000000000000000000000000000000000000000000000000000000001614610ea85760405163703e46dd60e11b815260040160405180910390fd5b7f9016d09d72d40fdae2fd8ceac6b6234c7706214fd39c1cd1e609a0528c19930080546001600160a01b031981166001600160a01b03848116918217845560405192169182907f8be0079c531659141344cd1fd0a4f28419497f9722a3daafe3b4186f6b6457e0905f90a3505050565b5f82815260046020526040902060070180546001600160a01b0319166001600160a01b0383161790556123f3813330878761210c565b50505050565b5f5b82518110156123f3575f6001600160a01b031683828151811061242057612420612cf3565b60200260200101516001600160a01b0316146124fe5782818151811061244857612448612cf3565b602002602001015160055f8681526020019081526020015f2060010182600a811061247557612475612cf3565b015f6101000a8154816001600160a01b0302191690836001600160a01b031602179055508181815181106124ab576124ab612cf3565b602002602001015160055f8681526020019081526020015f20600b0182600a81106124d8576124d8612cf3565b01555f8481526005602052604081208054600192906124f8908490612cb5565b90915550505b6001016123fb565b7ff0c57e16840df040f15088dc2f81fe391c3923bec73e23a9662efc9c229c6a0054600160401b900460ff16610ea857604051631afcd79f60e31b815260040160405180910390fd5b6119b3612506565b612560826125ac565b6040516001600160a01b038316907fbc7cd75a20ee27fd9adebab32041f755214dbc6bffa90cc0225b39da2e5c2d3b905f90a28051156125a457612107828261260f565b610e78612681565b806001600160a01b03163b5f036125e157604051634c9c8ce360e01b81526001600160a01b0382166004820152602401610673565b5f80516020612d8f83398151915280546001600160a01b0319166001600160a01b0392909216919091179055565b60605f80846001600160a01b03168460405161262b9190612d78565b5f60405180830381855af49150503d805f8114612663576040519150601f19603f3d011682016040523d82523d5f602084013e612668565b606091505b50915091506126788583836126a0565b95945050505050565b3415610ea85760405163b398979f60e01b815260040160405180910390fd5b6060826126b5576126b0826126fc565b611f9a565b81511580156126cc57506001600160a01b0384163b155b156126f557604051639996b31560e01b81526001600160a01b0385166004820152602401610673565b5080611f9a565b80511561270c5780518082602001fd5b604051630a12f52160e11b815260040160405180910390fd5b5f60208284031215612735575f80fd5b81356001600160e01b031981168114611f9a575f80fd5b5f6020828403121561275c575f80fd5b5035919050565b5f805f805f60a08688031215612777575f80fd5b505083359560208501359550604085013594606081013594506080013592509050565b6001600160a01b03811681146119e5575f80fd5b5f80604083850312156127bf575f80fd5b82356127ca8161279a565b915060208301356127da8161279a565b809150509250929050565b634e487b7160e01b5f52604160045260245ffd5b604051601f8201601f1916810167ffffffffffffffff81118282101715612822576128226127e5565b604052919050565b5f82601f830112612839575f80fd5b813567ffffffffffffffff811115612853576128536127e5565b612866601f8201601f19166020016127f9565b81815284602083860101111561287a575f80fd5b816020850160208301375f918101602001919091529392505050565b5f80604083850312156128a7575f80fd5b82356128b28161279a565b9150602083013567ffffffffffffffff8111156128cd575f80fd5b6128d98582860161282a565b9150509250929050565b5f602082840312156128f3575f80fd5b8135611f9a8161279a565b602081525f82518060208401528060208501604085015e5f604082850101526040601f19601f83011684010191505092915050565b5f67ffffffffffffffff82111561294c5761294c6127e5565b5060051b60200190565b5f82601f830112612965575f80fd5b813561297861297382612933565b6127f9565b8082825260208201915060208360051b860101925085831115612999575f80fd5b602085015b838110156129b657803583526020928301920161299e565b5095945050505050565b5f805f805f60a086880312156129d4575f80fd5b85356129df8161279a565b945060208601356129ef8161279a565b9350604086013567ffffffffffffffff811115612a0a575f80fd5b612a1688828901612956565b935050606086013567ffffffffffffffff811115612a32575f80fd5b612a3e88828901612956565b925050608086013567ffffffffffffffff811115612a5a575f80fd5b612a668882890161282a565b9150509295509295909350565b5f805f805f805f80610100898b031215612a8b575f80fd5b883597506020890135965060408901359550606089013594506080890135935060a0890135612ab98161279a565b925060c0890135915060e0890135612ad08161279a565b809150509295985092959890939650565b5f82601f830112612af0575f80fd5b8135612afe61297382612933565b8082825260208201915060208360051b860101925085831115612b1f575f80fd5b602085015b838110156129b6578035612b378161279a565b835260209283019201612b24565b5f805f805f805f805f6101208a8c031215612b5e575f80fd5b8935985060208a0135975060408a0135965060608a0135955060808a0135945060a08a0135935060c08a0135612b938161279a565b925060e08a013567ffffffffffffffff811115612bae575f80fd5b612bba8c828d01612ae1565b9250506101008a013567ffffffffffffffff811115612bd7575f80fd5b612be38c828d01612956565b9150509295985092959850929598565b5f805f805f60a08688031215612c07575f80fd5b8535612c128161279a565b94506020860135612c228161279a565b93506040860135925060608601359150608086013567ffffffffffffffff811115612a5a575f80fd5b5f805f8060808587031215612c5e575f80fd5b84518015158114612c6d575f80fd5b602086015160408701519195509350612c858161279a565b6060860151909250612c968161279a565b939692955090935050565b634e487b7160e01b5f52601160045260245ffd5b808201808211156105f9576105f9612ca1565b818103818111156105f9576105f9612ca1565b5f60018201612cec57612cec612ca1565b5060010190565b634e487b7160e01b5f52603260045260245ffd5b80820281158282048414176105f9576105f9612ca1565b5f82612d3857634e487b7160e01b5f52601260045260245ffd5b500490565b5f8060408385031215612d4e575f80fd5b825160208401519092506127da8161279a565b5f60208284031215612d71575f80fd5b5051919050565b5f82518060208501845e5f92019182525091905056fe360894a13ba1a3210667c828492db98dca3e2076cc3735a920a3ca505d382bbca26469706673582212206f2a290d552817ba819c465f121c1289cf1c5f566e73f8c5feee04a94c8830a764736f6c634300081a0033",
			"opcodes": "PUSH1 0xA0 PUSH1 0x40 MSTORE ADDRESS PUSH1 0x80 MSTORE CALLVALUE DUP1 ISZERO PUSH2 0x13 JUMPI PUSH0 DUP1 REVERT JUMPDEST POP PUSH2 0x1C PUSH2 0x21 JUMP JUMPDEST PUSH2 0xD3 JUMP JUMPDEST PUSH32 0xF0C57E16840DF040F15088DC2F81FE391C3923BEC73E23A9662EFC9C229C6A00 DUP1 SLOAD PUSH9 0x10000000000000000 SWAP1 DIV PUSH1 0xFF AND ISZERO PUSH2 0x71 JUMPI PUSH1 0x40 MLOAD PUSH4 0xF92EE8A9 PUSH1 0xE0 SHL DUP2 MSTORE PUSH1 0x4 ADD PUSH1 0x40 MLOAD DUP1 SWAP2 SUB SWAP1 REVERT JUMPDEST DUP1 SLOAD PUSH1 0x1 PUSH1 0x1 PUSH1 0x40 SHL SUB SWAP1 DUP2 AND EQ PUSH2 0xD0 JUMPI DUP1 SLOAD PUSH1 0x1 PUSH1 0x1 PUSH1 0x40 SHL SUB NOT AND PUSH1 0x1 PUSH1 0x1 PUSH1 0x40 SHL SUB SWAP1 DUP2 OR DUP3 SSTORE PUSH1 0x40 MLOAD SWAP1 DUP2 MSTORE PUSH32 0xC7F505B2F371AE2175EE4913F4499E1F2633A7B5936321EED1CDAEB6115181D2 SWAP1 PUSH1 0x20 ADD PUSH1 0x40 MLOAD DUP1 SWAP2 SUB SWAP1 LOG1 JUMPDEST POP JUMP JUMPDEST PUSH1 0x80 MLOAD PUSH2 0x2DE4 PUSH2 0xF9 PUSH0 CODECOPY PUSH0 DUP2 DUP2 PUSH2 0x21A7 ADD MSTORE DUP2 DUP2 PUSH2 0x21D0 ADD MSTORE PUSH2 0x230F ADD MSTORE PUSH2 0x2DE4 PUSH0 RETURN INVALID PUSH1 0x80 PUSH1 0x40 MSTORE PUSH1 0x4 CALLDATASIZE LT PUSH2 0x17B JUMPI PUSH0 CALLDATALOAD PUSH1 0xE0 SHR DUP1 PUSH4 0x84A184DE GT PUSH2 0xCD JUMPI DUP1 PUSH4 0xBEA7D6E9 GT PUSH2 0x87 JUMPI DUP1 PUSH4 0xEAFA4039 GT PUSH2 0x62 JUMPI DUP1 PUSH4 0xEAFA4039 EQ PUSH2 0x541 JUMPI DUP1 PUSH4 0xEE229F7E EQ PUSH2 0x560 JUMPI DUP1 PUSH4 0xF23A6E61 EQ PUSH2 0x57F JUMPI DUP1 PUSH4 0xF2FDE38B EQ PUSH2 0x5AA JUMPI PUSH0 DUP1 REVERT JUMPDEST DUP1 PUSH4 0xBEA7D6E9 EQ PUSH2 0x4F1 JUMPI DUP1 PUSH4 0xD2F6F67D EQ PUSH2 0x504 JUMPI DUP1 PUSH4 0xE30EC386 EQ PUSH2 0x522 JUMPI PUSH0 DUP1 REVERT JUMPDEST DUP1 PUSH4 0x84A184DE EQ PUSH2 0x32F JUMPI DUP1 PUSH4 0x8DA5CB5B EQ PUSH2 0x428 JUMPI DUP1 PUSH4 0x9E898E58 EQ PUSH2 0x43C JUMPI DUP1 PUSH4 0xAD3CB1CC EQ PUSH2 0x451 JUMPI DUP1 PUSH4 0xB9A2DE3A EQ PUSH2 0x48E JUMPI DUP1 PUSH4 0xBC197C81 EQ PUSH2 0x4AD JUMPI PUSH0 DUP1 REVERT JUMPDEST DUP1 PUSH4 0x4C205BC9 GT PUSH2 0x138 JUMPI DUP1 PUSH4 0x715018A6 GT PUSH2 0x113 JUMPI DUP1 PUSH4 0x715018A6 EQ PUSH2 0x2A4 JUMPI DUP1 PUSH4 0x7CFD3E18 EQ PUSH2 0x2B8 JUMPI DUP1 PUSH4 0x824563F6 EQ PUSH2 0x2E3 JUMPI DUP1 PUSH4 0x831490F9 EQ PUSH2 0x31A JUMPI PUSH0 DUP1 REVERT JUMPDEST DUP1 PUSH4 0x4C205BC9 EQ PUSH2 0x26A JUMPI DUP1 PUSH4 0x4F1EF286 EQ PUSH2 0x27D JUMPI DUP1 PUSH4 0x52D1902D EQ PUSH2 0x290 JUMPI PUSH0 DUP1 REVERT JUMPDEST DUP1 PUSH4 0x1FFC9A7 EQ PUSH2 0x17F JUMPI DUP1 PUSH4 0x3C32AA9 EQ PUSH2 0x1B3 JUMPI DUP1 PUSH4 0x20EDDA38 EQ PUSH2 0x1D4 JUMPI DUP1 PUSH4 0x2C0BC695 EQ PUSH2 0x1F3 JUMPI DUP1 PUSH4 0x3D6C0507 EQ PUSH2 0x212 JUMPI DUP1 PUSH4 0x485CC955 EQ PUSH2 0x24B JUMPI JUMPDEST PUSH0 DUP1 REVERT JUMPDEST CALLVALUE DUP1 ISZERO PUSH2 0x18A JUMPI PUSH0 DUP1 REVERT JUMPDEST POP PUSH2 0x19E PUSH2 0x199 CALLDATASIZE PUSH1 0x4 PUSH2 0x2725 JUMP JUMPDEST PUSH2 0x5C9 JUMP JUMPDEST PUSH1 0x40 MLOAD SWAP1 ISZERO ISZERO DUP2 MSTORE PUSH1 0x20 ADD JUMPDEST PUSH1 0x40 MLOAD DUP1 SWAP2 SUB SWAP1 RETURN JUMPDEST CALLVALUE DUP1 ISZERO PUSH2 0x1BE JUMPI PUSH0 DUP1 REVERT JUMPDEST POP PUSH2 0x1D2 PUSH2 0x1CD CALLDATASIZE PUSH1 0x4 PUSH2 0x274C JUMP JUMPDEST PUSH2 0x5FF JUMP JUMPDEST STOP JUMPDEST CALLVALUE DUP1 ISZERO PUSH2 0x1DF JUMPI PUSH0 DUP1 REVERT JUMPDEST POP PUSH2 0x1D2 PUSH2 0x1EE CALLDATASIZE PUSH1 0x4 PUSH2 0x274C JUMP JUMPDEST PUSH2 0x6CA JUMP JUMPDEST CALLVALUE DUP1 ISZERO PUSH2 0x1FE JUMPI PUSH0 DUP1 REVERT JUMPDEST POP PUSH2 0x1D2 PUSH2 0x20D CALLDATASIZE PUSH1 0x4 PUSH2 0x2763 JUMP JUMPDEST PUSH2 0x769 JUMP JUMPDEST CALLVALUE DUP1 ISZERO PUSH2 0x21D JUMPI PUSH0 DUP1 REVERT JUMPDEST POP PUSH2 0x23D PUSH2 0x22C CALLDATASIZE PUSH1 0x4 PUSH2 0x274C JUMP JUMPDEST PUSH1 0x5 PUSH1 0x20 MSTORE PUSH0 SWAP1 DUP2 MSTORE PUSH1 0x40 SWAP1 KECCAK256 SLOAD DUP2 JUMP JUMPDEST PUSH1 0x40 MLOAD SWAP1 DUP2 MSTORE PUSH1 0x20 ADD PUSH2 0x1AA JUMP JUMPDEST CALLVALUE DUP1 ISZERO PUSH2 0x256 JUMPI PUSH0 DUP1 REVERT JUMPDEST POP PUSH2 0x1D2 PUSH2 0x265 CALLDATASIZE PUSH1 0x4 PUSH2 0x27AE JUMP JUMPDEST PUSH2 0x8C2 JUMP JUMPDEST PUSH2 0x1D2 PUSH2 0x278 CALLDATASIZE PUSH1 0x4 PUSH2 0x274C JUMP JUMPDEST PUSH2 0xA10 JUMP JUMPDEST PUSH2 0x1D2 PUSH2 0x28B CALLDATASIZE PUSH1 0x4 PUSH2 0x2896 JUMP JUMPDEST PUSH2 0xE5D JUMP JUMPDEST CALLVALUE DUP1 ISZERO PUSH2 0x29B JUMPI PUSH0 DUP1 REVERT JUMPDEST POP PUSH2 0x23D PUSH2 0xE7C JUMP JUMPDEST CALLVALUE DUP1 ISZERO PUSH2 0x2AF JUMPI PUSH0 DUP1 REVERT JUMPDEST POP PUSH2 0x1D2 PUSH2 0xE97 JUMP JUMPDEST CALLVALUE DUP1 ISZERO PUSH2 0x2C3 JUMPI PUSH0 DUP1 REVERT JUMPDEST POP PUSH2 0x23D PUSH2 0x2D2 CALLDATASIZE PUSH1 0x4 PUSH2 0x28E3 JUMP JUMPDEST PUSH1 0x6 PUSH1 0x20 MSTORE PUSH0 SWAP1 DUP2 MSTORE PUSH1 0x40 SWAP1 KECCAK256 SLOAD DUP2 JUMP JUMPDEST CALLVALUE DUP1 ISZERO PUSH2 0x2EE JUMPI PUSH0 DUP1 REVERT JUMPDEST POP PUSH1 0x3 SLOAD PUSH2 0x302 SWAP1 PUSH1 0x1 PUSH1 0x1 PUSH1 0xA0 SHL SUB AND DUP2 JUMP JUMPDEST PUSH1 0x40 MLOAD PUSH1 0x1 PUSH1 0x1 PUSH1 0xA0 SHL SUB SWAP1 SWAP2 AND DUP2 MSTORE PUSH1 0x20 ADD PUSH2 0x1AA JUMP JUMPDEST CALLVALUE DUP1 ISZERO PUSH2 0x325 JUMPI PUSH0 DUP1 REVERT JUMPDEST POP PUSH2 0x23D PUSH1 0x2 SLOAD DUP2 JUMP JUMPDEST CALLVALUE DUP1 ISZERO PUSH2 0x33A JUMPI PUSH0 DUP1 REVERT JUMPDEST POP PUSH2 0x3B8 PUSH2 0x349 CALLDATASIZE PUSH1 0x4 PUSH2 0x274C JUMP JUMPDEST PUSH1 0x4 PUSH1 0x20 DUP2 SWAP1 MSTORE PUSH0 SWAP2 DUP3 MSTORE PUSH1 0x40 SWAP1 SWAP2 KECCAK256 DUP1 SLOAD PUSH1 0x1 DUP3 ADD SLOAD PUSH1 0x2 DUP4 ADD SLOAD PUSH1 0x3 DUP5 ADD SLOAD SWAP5 DUP5 ADD SLOAD PUSH1 0x5 DUP6 ADD SLOAD PUSH1 0x6 DUP7 ADD SLOAD PUSH1 0x7 DUP8 ADD SLOAD PUSH1 0x8 DUP9 ADD SLOAD PUSH1 0x9 SWAP1 SWAP9 ADD SLOAD PUSH1 0xFF DUP1 DUP10 AND SWAP11 PUSH2 0x100 DUP11 DIV DUP3 AND SWAP11 PUSH3 0x10000 SWAP1 SWAP11 DIV SWAP1 SWAP2 AND SWAP9 SWAP1 SWAP6 SWAP5 PUSH1 0x1 PUSH1 0x1 PUSH1 0xA0 SHL SUB SWAP1 DUP2 AND SWAP5 DUP2 AND SWAP4 AND SWAP2 DUP13 JUMP JUMPDEST PUSH1 0x40 DUP1 MLOAD SWAP13 ISZERO ISZERO DUP14 MSTORE SWAP11 ISZERO ISZERO PUSH1 0x20 DUP14 ADD MSTORE SWAP9 ISZERO ISZERO SWAP10 DUP12 ADD SWAP10 SWAP1 SWAP10 MSTORE PUSH1 0x60 DUP11 ADD SWAP7 SWAP1 SWAP7 MSTORE PUSH1 0x80 DUP10 ADD SWAP5 SWAP1 SWAP5 MSTORE PUSH1 0xA0 DUP9 ADD SWAP3 SWAP1 SWAP3 MSTORE PUSH1 0xC0 DUP8 ADD MSTORE PUSH1 0x1 PUSH1 0x1 PUSH1 0xA0 SHL SUB SWAP1 DUP2 AND PUSH1 0xE0 DUP8 ADD MSTORE SWAP1 DUP2 AND PUSH2 0x100 DUP7 ADD MSTORE AND PUSH2 0x120 DUP5 ADD MSTORE PUSH2 0x140 DUP4 ADD SWAP2 SWAP1 SWAP2 MSTORE PUSH2 0x160 DUP3 ADD MSTORE PUSH2 0x180 ADD PUSH2 0x1AA JUMP JUMPDEST CALLVALUE DUP1 ISZERO PUSH2 0x433 JUMPI PUSH0 DUP1 REVERT JUMPDEST POP PUSH2 0x302 PUSH2 0xEAA JUMP JUMPDEST CALLVALUE DUP1 ISZERO PUSH2 0x447 JUMPI PUSH0 DUP1 REVERT JUMPDEST POP PUSH2 0x23D PUSH1 0x1 SLOAD DUP2 JUMP JUMPDEST CALLVALUE DUP1 ISZERO PUSH2 0x45C JUMPI PUSH0 DUP1 REVERT JUMPDEST POP PUSH2 0x481 PUSH1 0x40 MLOAD DUP1 PUSH1 0x40 ADD PUSH1 0x40 MSTORE DUP1 PUSH1 0x5 DUP2 MSTORE PUSH1 0x20 ADD PUSH5 0x352E302E3 PUSH1 0xDC SHL DUP2 MSTORE POP DUP2 JUMP JUMPDEST PUSH1 0x40 MLOAD PUSH2 0x1AA SWAP2 SWAP1 PUSH2 0x28FE JUMP JUMPDEST CALLVALUE DUP1 ISZERO PUSH2 0x499 JUMPI PUSH0 DUP1 REVERT JUMPDEST POP PUSH2 0x1D2 PUSH2 0x4A8 CALLDATASIZE PUSH1 0x4 PUSH2 0x274C JUMP JUMPDEST PUSH2 0xED8 JUMP JUMPDEST CALLVALUE DUP1 ISZERO PUSH2 0x4B8 JUMPI PUSH0 DUP1 REVERT JUMPDEST POP PUSH2 0x4D8 PUSH2 0x4C7 CALLDATASIZE PUSH1 0x4 PUSH2 0x29C0 JUMP JUMPDEST PUSH4 0xBC197C81 PUSH1 0xE0 SHL SWAP6 SWAP5 POP POP POP POP POP JUMP JUMPDEST PUSH1 0x40 MLOAD PUSH1 0x1 PUSH1 0x1 PUSH1 0xE0 SHL SUB NOT SWAP1 SWAP2 AND DUP2 MSTORE PUSH1 0x20 ADD PUSH2 0x1AA JUMP JUMPDEST PUSH2 0x1D2 PUSH2 0x4FF CALLDATASIZE PUSH1 0x4 PUSH2 0x274C JUMP JUMPDEST PUSH2 0x1118 JUMP JUMPDEST CALLVALUE DUP1 ISZERO PUSH2 0x50F JUMPI PUSH0 DUP1 REVERT JUMPDEST POP PUSH0 SLOAD PUSH2 0x302 SWAP1 PUSH1 0x1 PUSH1 0x1 PUSH1 0xA0 SHL SUB AND DUP2 JUMP JUMPDEST CALLVALUE DUP1 ISZERO PUSH2 0x52D JUMPI PUSH0 DUP1 REVERT JUMPDEST POP PUSH2 0x1D2 PUSH2 0x53C CALLDATASIZE PUSH1 0x4 PUSH2 0x2A73 JUMP JUMPDEST PUSH2 0x13DF JUMP JUMPDEST CALLVALUE DUP1 ISZERO PUSH2 0x54C JUMPI PUSH0 DUP1 REVERT JUMPDEST POP PUSH2 0x1D2 PUSH2 0x55B CALLDATASIZE PUSH1 0x4 PUSH2 0x2B45 JUMP JUMPDEST PUSH2 0x15DE JUMP JUMPDEST CALLVALUE DUP1 ISZERO PUSH2 0x56B JUMPI PUSH0 DUP1 REVERT JUMPDEST POP PUSH2 0x1D2 PUSH2 0x57A CALLDATASIZE PUSH1 0x4 PUSH2 0x274C JUMP JUMPDEST PUSH2 0x1811 JUMP JUMPDEST CALLVALUE DUP1 ISZERO PUSH2 0x58A JUMPI PUSH0 DUP1 REVERT JUMPDEST POP PUSH2 0x4D8 PUSH2 0x599 CALLDATASIZE PUSH1 0x4 PUSH2 0x2BF3 JUMP JUMPDEST PUSH4 0xF23A6E61 PUSH1 0xE0 SHL SWAP6 SWAP5 POP POP POP POP POP JUMP JUMPDEST CALLVALUE DUP1 ISZERO PUSH2 0x5B5 JUMPI PUSH0 DUP1 REVERT JUMPDEST POP PUSH2 0x1D2 PUSH2 0x5C4 CALLDATASIZE PUSH1 0x4 PUSH2 0x28E3 JUMP JUMPDEST PUSH2 0x19AB JUMP JUMPDEST PUSH0 PUSH1 0x1 PUSH1 0x1 PUSH1 0xE0 SHL SUB NOT DUP3 AND PUSH4 0x2711897 PUSH1 0xE5 SHL EQ DUP1 PUSH2 0x5F9 JUMPI POP PUSH4 0x1FFC9A7 PUSH1 0xE0 SHL PUSH1 0x1 PUSH1 0x1 PUSH1 0xE0 SHL SUB NOT DUP4 AND EQ JUMPDEST SWAP3 SWAP2 POP POP JUMP JUMPDEST PUSH1 0x64 DUP2 LT ISZERO DUP1 ISZERO PUSH2 0x612 JUMPI POP PUSH2 0x3E8 DUP2 GT ISZERO JUMPDEST PUSH2 0x67C JUMPI PUSH1 0x40 MLOAD PUSH3 0x461BCD PUSH1 0xE5 SHL DUP2 MSTORE PUSH1 0x20 PUSH1 0x4 DUP3 ADD MSTORE PUSH1 0x30 PUSH1 0x24 DUP3 ADD MSTORE PUSH32 0x5F66697363616C53706F6E736F7250657263656E74616765206D757374206265 PUSH1 0x44 DUP3 ADD MSTORE PUSH16 0x206265747765656E203120746F20313 PUSH1 0x84 SHL PUSH1 0x64 DUP3 ADD MSTORE PUSH1 0x84 ADD JUMPDEST PUSH1 0x40 MLOAD DUP1 SWAP2 SUB SWAP1 REVERT JUMPDEST CALLER PUSH0 DUP2 DUP2 MSTORE PUSH1 0x6 PUSH1 0x20 SWAP1 DUP2 MSTORE PUSH1 0x40 SWAP2 DUP3 SWAP1 KECCAK256 DUP5 SWAP1 SSTORE DUP2 MLOAD SWAP3 DUP4 MSTORE DUP3 ADD DUP4 SWAP1 MSTORE PUSH32 0xBEE82E0CD48A0DFD192B0980A9A2C7D9B007AAD1B38C23A235B4121B554D9C8A SWAP2 ADD JUMPDEST PUSH1 0x40 MLOAD DUP1 SWAP2 SUB SWAP1 LOG1 POP JUMP JUMPDEST PUSH2 0x6D2 PUSH2 0x19E8 JUMP JUMPDEST PUSH0 DUP2 GT DUP1 ISZERO PUSH2 0x6E3 JUMPI POP PUSH2 0xBB8 DUP2 GT ISZERO JUMPDEST PUSH2 0x72F JUMPI PUSH1 0x40 MLOAD PUSH3 0x461BCD PUSH1 0xE5 SHL DUP2 MSTORE PUSH1 0x20 PUSH1 0x4 DUP3 ADD DUP2 SWAP1 MSTORE PUSH1 0x24 DUP3 ADD MSTORE PUSH32 0x6665652025206D757374206265747765656E20696E20312520746F2033302520 PUSH1 0x44 DUP3 ADD MSTORE PUSH1 0x64 ADD PUSH2 0x673 JUMP JUMPDEST PUSH1 0x2 DUP2 SWAP1 SSTORE PUSH1 0x40 DUP1 MLOAD DUP3 DUP2 MSTORE CALLER PUSH1 0x20 DUP3 ADD MSTORE PUSH32 0x8B52E67D733E4BFFDB3A2DF53E3B88E2F31125FC8A8442B742602F8F7D0ED3E9 SWAP2 ADD PUSH2 0x6BF JUMP JUMPDEST DUP5 PUSH0 DUP2 GT PUSH2 0x78D JUMPI PUSH1 0x40 MLOAD PUSH4 0xC860174B PUSH1 0xE0 SHL DUP2 MSTORE PUSH1 0x4 DUP2 ADD DUP3 SWAP1 MSTORE PUSH1 0x24 ADD PUSH2 0x673 JUMP JUMPDEST PUSH0 DUP2 DUP2 MSTORE PUSH1 0x4 PUSH1 0x20 MSTORE PUSH1 0x40 SWAP1 KECCAK256 SLOAD PUSH1 0xFF AND PUSH2 0x7D3 JUMPI PUSH0 DUP2 DUP2 MSTORE PUSH1 0x4 PUSH1 0x20 DUP2 SWAP1 MSTORE PUSH1 0x40 SWAP2 DUP3 SWAP1 KECCAK256 SLOAD SWAP2 MLOAD PUSH4 0xE6C1C637 PUSH1 0xE0 SHL DUP2 MSTORE PUSH1 0xFF SWAP1 SWAP3 AND ISZERO ISZERO SWAP1 DUP3 ADD MSTORE PUSH1 0x24 ADD PUSH2 0x673 JUMP JUMPDEST PUSH0 DUP2 DUP2 MSTORE PUSH1 0x4 PUSH1 0x20 MSTORE PUSH1 0x40 SWAP1 KECCAK256 SLOAD PUSH2 0x100 SWAP1 DIV PUSH1 0xFF AND ISZERO PUSH2 0x822 JUMPI PUSH0 DUP2 DUP2 MSTORE PUSH1 0x4 PUSH1 0x20 DUP2 SWAP1 MSTORE PUSH1 0x40 SWAP2 DUP3 SWAP1 KECCAK256 SLOAD SWAP2 MLOAD PUSH3 0x246805 PUSH1 0xE9 SHL DUP2 MSTORE PUSH2 0x100 SWAP1 SWAP3 DIV PUSH1 0xFF AND ISZERO ISZERO SWAP1 DUP3 ADD MSTORE PUSH1 0x24 ADD PUSH2 0x673 JUMP JUMPDEST PUSH0 DUP7 DUP2 MSTORE PUSH1 0x4 PUSH1 0x20 DUP2 SWAP1 MSTORE PUSH1 0x40 SWAP1 SWAP2 KECCAK256 PUSH1 0x3 DUP2 ADD SLOAD SWAP2 DUP2 ADD SLOAD PUSH1 0x7 SWAP1 SWAP2 ADD SLOAD PUSH2 0x85C SWAP3 SWAP2 SWAP1 DUP9 SWAP1 DUP9 SWAP1 DUP9 SWAP1 PUSH1 0x1 PUSH1 0x1 PUSH1 0xA0 SHL SUB AND DUP9 PUSH2 0x1A1A JUMP JUMPDEST PUSH0 DUP7 DUP2 MSTORE PUSH1 0x4 PUSH1 0x20 SWAP1 DUP2 MSTORE PUSH1 0x40 SWAP2 DUP3 SWAP1 KECCAK256 PUSH1 0x2 DUP2 ADD SLOAD PUSH1 0x9 DUP3 ADD SLOAD PUSH1 0x8 SWAP1 SWAP3 ADD SLOAD DUP5 MLOAD SWAP2 DUP3 MSTORE SWAP3 DUP2 ADD SWAP2 SWAP1 SWAP2 MSTORE SWAP2 DUP3 ADD MSTORE PUSH32 0xD3F4E53A5792E81767B11408A290F82CF83FDE26090D65773F2C0A9AEB63ADFB SWAP1 PUSH1 0x60 ADD PUSH1 0x40 MLOAD DUP1 SWAP2 SUB SWAP1 LOG1 POP POP POP POP POP POP JUMP JUMPDEST PUSH32 0xF0C57E16840DF040F15088DC2F81FE391C3923BEC73E23A9662EFC9C229C6A00 DUP1 SLOAD PUSH1 0x1 PUSH1 0x40 SHL DUP2 DIV PUSH1 0xFF AND ISZERO SWAP1 PUSH8 0xFFFFFFFFFFFFFFFF AND PUSH0 DUP2 ISZERO DUP1 ISZERO PUSH2 0x907 JUMPI POP DUP3 JUMPDEST SWAP1 POP PUSH0 DUP3 PUSH8 0xFFFFFFFFFFFFFFFF AND PUSH1 0x1 EQ DUP1 ISZERO PUSH2 0x923 JUMPI POP ADDRESS EXTCODESIZE ISZERO JUMPDEST SWAP1 POP DUP2 ISZERO DUP1 ISZERO PUSH2 0x931 JUMPI POP DUP1 ISZERO JUMPDEST ISZERO PUSH2 0x94F JUMPI PUSH1 0x40 MLOAD PUSH4 0xF92EE8A9 PUSH1 0xE0 SHL DUP2 MSTORE PUSH1 0x4 ADD PUSH1 0x40 MLOAD DUP1 SWAP2 SUB SWAP1 REVERT JUMPDEST DUP5 SLOAD PUSH8 0xFFFFFFFFFFFFFFFF NOT AND PUSH1 0x1 OR DUP6 SSTORE DUP4 ISZERO PUSH2 0x979 JUMPI DUP5 SLOAD PUSH1 0xFF PUSH1 0x40 SHL NOT AND PUSH1 0x1 PUSH1 0x40 SHL OR DUP6 SSTORE JUMPDEST PUSH1 0xFA PUSH1 0x2 SSTORE PUSH1 0x3 DUP1 SLOAD PUSH1 0x1 PUSH1 0x1 PUSH1 0xA0 SHL SUB DUP10 AND PUSH1 0x1 PUSH1 0x1 PUSH1 0xA0 SHL SUB NOT SWAP2 DUP3 AND DUP2 OR SWAP1 SWAP3 SSTORE PUSH0 DUP1 SLOAD SWAP1 SWAP2 AND SWAP1 SWAP2 OR SWAP1 SSTORE PUSH2 0x9B0 PUSH2 0x1BC2 JUMP JUMPDEST PUSH2 0x9B9 DUP7 PUSH2 0x1BCA JUMP JUMPDEST PUSH2 0x9C1 PUSH2 0x1BC2 JUMP JUMPDEST DUP4 ISZERO PUSH2 0xA07 JUMPI DUP5 SLOAD PUSH1 0xFF PUSH1 0x40 SHL NOT AND DUP6 SSTORE PUSH1 0x40 MLOAD PUSH1 0x1 DUP2 MSTORE PUSH32 0xC7F505B2F371AE2175EE4913F4499E1F2633A7B5936321EED1CDAEB6115181D2 SWAP1 PUSH1 0x20 ADD PUSH1 0x40 MLOAD DUP1 SWAP2 SUB SWAP1 LOG1 JUMPDEST POP POP POP POP POP POP POP JUMP JUMPDEST DUP1 PUSH0 DUP2 GT PUSH2 0xA34 JUMPI PUSH1 0x40 MLOAD PUSH4 0xC860174B PUSH1 0xE0 SHL DUP2 MSTORE PUSH1 0x4 DUP2 ADD DUP3 SWAP1 MSTORE PUSH1 0x24 ADD PUSH2 0x673 JUMP JUMPDEST PUSH0 DUP2 DUP2 MSTORE PUSH1 0x4 PUSH1 0x20 MSTORE PUSH1 0x40 SWAP1 KECCAK256 SLOAD PUSH1 0xFF AND PUSH2 0xA7A JUMPI PUSH0 DUP2 DUP2 MSTORE PUSH1 0x4 PUSH1 0x20 DUP2 SWAP1 MSTORE PUSH1 0x40 SWAP2 DUP3 SWAP1 KECCAK256 SLOAD SWAP2 MLOAD PUSH4 0xE6C1C637 PUSH1 0xE0 SHL DUP2 MSTORE PUSH1 0xFF SWAP1 SWAP3 AND ISZERO ISZERO SWAP1 DUP3 ADD MSTORE PUSH1 0x24 ADD PUSH2 0x673 JUMP JUMPDEST PUSH0 DUP2 DUP2 MSTORE PUSH1 0x4 PUSH1 0x20 MSTORE PUSH1 0x40 SWAP1 KECCAK256 SLOAD PUSH2 0x100 SWAP1 DIV PUSH1 0xFF AND ISZERO PUSH2 0xAC9 JUMPI PUSH0 DUP2 DUP2 MSTORE PUSH1 0x4 PUSH1 0x20 DUP2 SWAP1 MSTORE PUSH1 0x40 SWAP2 DUP3 SWAP1 KECCAK256 SLOAD SWAP2 MLOAD PUSH3 0x246805 PUSH1 0xE9 SHL DUP2 MSTORE PUSH2 0x100 SWAP1 SWAP3 DIV PUSH1 0xFF AND ISZERO ISZERO SWAP1 DUP3 ADD MSTORE PUSH1 0x24 ADD PUSH2 0x673 JUMP JUMPDEST PUSH0 DUP3 DUP2 MSTORE PUSH1 0x4 PUSH1 0x20 MSTORE PUSH1 0x40 SWAP1 KECCAK256 PUSH1 0x2 ADD SLOAD CALLVALUE EQ PUSH2 0xAFB JUMPI PUSH1 0x40 MLOAD PUSH4 0x85D649F7 PUSH1 0xE0 SHL DUP2 MSTORE CALLVALUE PUSH1 0x4 DUP3 ADD MSTORE PUSH1 0x24 ADD PUSH2 0x673 JUMP JUMPDEST PUSH0 DUP3 DUP2 MSTORE PUSH1 0x4 PUSH1 0x20 MSTORE PUSH1 0x40 SWAP1 KECCAK256 SLOAD PUSH3 0x10000 SWAP1 DIV PUSH1 0xFF AND PUSH2 0xB4C JUMPI PUSH0 DUP3 DUP2 MSTORE PUSH1 0x4 PUSH1 0x20 DUP2 SWAP1 MSTORE PUSH1 0x40 SWAP2 DUP3 SWAP1 KECCAK256 SLOAD SWAP2 MLOAD PUSH4 0x9CF9F1F7 PUSH1 0xE0 SHL DUP2 MSTORE PUSH3 0x10000 SWAP1 SWAP3 DIV PUSH1 0xFF AND ISZERO ISZERO SWAP1 DUP3 ADD MSTORE PUSH1 0x24 ADD PUSH2 0x673 JUMP JUMPDEST PUSH0 DUP3 DUP2 MSTORE PUSH1 0x4 PUSH1 0x20 MSTORE PUSH1 0x40 SWAP1 KECCAK256 PUSH1 0x5 ADD SLOAD PUSH1 0x1 PUSH1 0x1 PUSH1 0xA0 SHL SUB AND CALLER SUB PUSH2 0xBA4 JUMPI PUSH0 DUP3 DUP2 MSTORE PUSH1 0x4 PUSH1 0x20 DUP2 SWAP1 MSTORE PUSH1 0x40 SWAP2 DUP3 SWAP1 KECCAK256 PUSH1 0x5 ADD SLOAD SWAP2 MLOAD PUSH4 0x4A83C1B PUSH1 0xE5 SHL DUP2 MSTORE PUSH1 0x1 PUSH1 0x1 PUSH1 0xA0 SHL SUB SWAP1 SWAP3 AND SWAP1 DUP3 ADD MSTORE PUSH1 0x24 ADD PUSH2 0x673 JUMP JUMPDEST PUSH0 DUP3 DUP2 MSTORE PUSH1 0x4 PUSH1 0x20 MSTORE PUSH1 0x40 DUP2 KECCAK256 PUSH1 0x6 DUP2 ADD DUP1 SLOAD PUSH1 0x1 PUSH1 0x1 PUSH1 0xA0 SHL SUB NOT AND CALLER OR SWAP1 SSTORE PUSH1 0x1 ADD SLOAD ISZERO PUSH2 0xBF7 JUMPI PUSH0 DUP4 DUP2 MSTORE PUSH1 0x4 PUSH1 0x20 MSTORE PUSH1 0x40 SWAP1 KECCAK256 PUSH1 0x2 DUP2 ADD SLOAD PUSH1 0x1 SWAP1 SWAP2 ADD SLOAD PUSH2 0xBF0 SWAP2 SWAP1 PUSH2 0x1BDB JUMP JUMPDEST SWAP1 POP PUSH2 0xC1A JUMP JUMPDEST PUSH2 0xC17 PUSH1 0x4 PUSH0 DUP6 DUP2 MSTORE PUSH1 0x20 ADD SWAP1 DUP2 MSTORE PUSH1 0x20 ADD PUSH0 KECCAK256 PUSH1 0x2 ADD SLOAD PUSH1 0x2 SLOAD PUSH2 0x1BDB JUMP JUMPDEST SWAP1 POP JUMPDEST PUSH0 DUP4 DUP2 MSTORE PUSH1 0x5 PUSH1 0x20 MSTORE PUSH1 0x40 DUP2 KECCAK256 SLOAD ISZERO PUSH2 0xC39 JUMPI PUSH2 0xC36 DUP5 PUSH2 0x1C91 JUMP JUMPDEST SWAP1 POP JUMPDEST PUSH0 DUP1 SLOAD DUP6 DUP3 MSTORE PUSH1 0x4 PUSH1 0x20 DUP2 SWAP1 MSTORE PUSH1 0x40 DUP1 DUP5 KECCAK256 PUSH1 0x5 ADD SLOAD SWAP1 MLOAD PUSH4 0x53F50119 PUSH1 0xE0 SHL DUP2 MSTORE PUSH1 0x1 PUSH1 0x1 PUSH1 0xA0 SHL SUB SWAP2 DUP3 AND SWAP3 DUP2 ADD SWAP3 SWAP1 SWAP3 MSTORE SWAP1 SWAP2 AND SWAP1 PUSH4 0x53F50119 SWAP1 PUSH1 0x24 ADD PUSH1 0x80 PUSH1 0x40 MLOAD DUP1 DUP4 SUB DUP2 DUP7 GAS STATICCALL ISZERO DUP1 ISZERO PUSH2 0xC95 JUMPI RETURNDATASIZE PUSH0 DUP1 RETURNDATACOPY RETURNDATASIZE PUSH0 REVERT JUMPDEST POP POP POP POP PUSH1 0x40 MLOAD RETURNDATASIZE PUSH1 0x1F NOT PUSH1 0x1F DUP3 ADD AND DUP3 ADD DUP1 PUSH1 0x40 MSTORE POP DUP2 ADD SWAP1 PUSH2 0xCB9 SWAP2 SWAP1 PUSH2 0x2C4B JUMP JUMPDEST POP POP POP SWAP1 POP PUSH0 DUP2 ISZERO PUSH2 0xCD3 JUMPI PUSH2 0xCD0 DUP7 PUSH0 DUP1 PUSH2 0x1E62 JUMP JUMPDEST SWAP1 POP JUMPDEST PUSH0 PUSH2 0xCDD DUP8 PUSH2 0x1FA1 JUMP JUMPDEST SWAP1 POP PUSH0 DUP2 DUP4 PUSH2 0xCEC DUP8 DUP10 PUSH2 0x2CB5 JUMP JUMPDEST PUSH2 0xCF6 SWAP2 SWAP1 PUSH2 0x2CB5 JUMP JUMPDEST PUSH2 0xD00 SWAP2 SWAP1 PUSH2 0x2CB5 JUMP JUMPDEST PUSH0 DUP10 DUP2 MSTORE PUSH1 0x4 PUSH1 0x20 MSTORE PUSH1 0x40 SWAP1 KECCAK256 PUSH1 0x2 ADD SLOAD PUSH2 0xD1B SWAP2 SWAP1 PUSH2 0x2CC8 JUMP JUMPDEST SWAP1 POP PUSH2 0xD2E PUSH2 0xD28 PUSH2 0xEAA JUMP JUMPDEST DUP8 PUSH2 0x2076 JUMP JUMPDEST PUSH0 DUP9 DUP2 MSTORE PUSH1 0x4 PUSH1 0x20 MSTORE PUSH1 0x40 SWAP1 KECCAK256 PUSH1 0x5 ADD SLOAD PUSH2 0xD52 SWAP1 PUSH1 0x1 PUSH1 0x1 PUSH1 0xA0 SHL SUB AND DUP3 PUSH2 0x2076 JUMP JUMPDEST PUSH0 DUP9 DUP2 MSTORE PUSH1 0x4 PUSH1 0x20 DUP2 SWAP1 MSTORE PUSH1 0x40 SWAP1 SWAP2 KECCAK256 DUP1 SLOAD PUSH2 0xFF00 NOT AND PUSH2 0x100 OR DUP2 SSTORE PUSH1 0x7 DUP2 ADD SLOAD PUSH1 0x6 DUP3 ADD SLOAD PUSH1 0x3 DUP4 ADD SLOAD SWAP3 SWAP1 SWAP4 ADD SLOAD PUSH2 0xD9F SWAP4 PUSH1 0x1 PUSH1 0x1 PUSH1 0xA0 SHL SUB SWAP3 DUP4 AND SWAP4 ADDRESS SWAP4 SWAP2 SWAP1 SWAP2 AND SWAP2 PUSH2 0x210C JUMP JUMPDEST PUSH0 DUP9 DUP2 MSTORE PUSH1 0x4 PUSH1 0x20 DUP2 DUP2 MSTORE PUSH1 0x40 SWAP3 DUP4 SWAP1 KECCAK256 PUSH1 0x7 DUP2 ADD SLOAD PUSH1 0x3 DUP3 ADD SLOAD PUSH1 0x6 DUP4 ADD SLOAD SWAP3 SWAP1 SWAP5 ADD SLOAD DUP6 MLOAD ADDRESS DUP2 MSTORE PUSH1 0x1 PUSH1 0x1 PUSH1 0xA0 SHL SUB SWAP4 DUP5 AND SWAP5 DUP2 ADD SWAP5 SWAP1 SWAP5 MSTORE DUP4 DUP7 ADD MSTORE SWAP4 MLOAD SWAP4 AND SWAP3 PUSH32 0x1A7BAF821561AE36AA58D172BD77037C6F9C19177E5B840E3D413C110A80E45 SWAP2 DUP2 SWAP1 SUB PUSH1 0x60 ADD SWAP1 LOG3 DUP1 DUP6 DUP8 PUSH32 0x36203E70AEB15B48FC7B10549158C6ACC3BA3235BA2644757016FB33D4FA3944 DUP7 DUP7 PUSH1 0x40 MLOAD PUSH2 0xE4B SWAP3 SWAP2 SWAP1 SWAP2 DUP3 MSTORE PUSH1 0x20 DUP3 ADD MSTORE PUSH1 0x40 ADD SWAP1 JUMP JUMPDEST PUSH1 0x40 MLOAD DUP1 SWAP2 SUB SWAP1 LOG4 POP POP POP POP POP POP POP POP JUMP JUMPDEST PUSH2 0xE65 PUSH2 0x219C JUMP JUMPDEST PUSH2 0xE6E DUP3 PUSH2 0x2240 JUMP JUMPDEST PUSH2 0xE78 DUP3 DUP3 PUSH2 0x2248 JUMP JUMPDEST POP POP JUMP JUMPDEST PUSH0 PUSH2 0xE85 PUSH2 0x2304 JUMP JUMPDEST POP PUSH0 DUP1 MLOAD PUSH1 0x20 PUSH2 0x2D8F DUP4 CODECOPY DUP2 MLOAD SWAP2 MSTORE SWAP1 JUMP JUMPDEST PUSH2 0xE9F PUSH2 0x19E8 JUMP JUMPDEST PUSH2 0xEA8 PUSH0 PUSH2 0x234D JUMP JUMPDEST JUMP JUMPDEST PUSH32 0x9016D09D72D40FDAE2FD8CEAC6B6234C7706214FD39C1CD1E609A0528C199300 SLOAD PUSH1 0x1 PUSH1 0x1 PUSH1 0xA0 SHL SUB AND SWAP1 JUMP JUMPDEST DUP1 PUSH0 DUP2 GT PUSH2 0xEFC JUMPI PUSH1 0x40 MLOAD PUSH4 0xC860174B PUSH1 0xE0 SHL DUP2 MSTORE PUSH1 0x4 DUP2 ADD DUP3 SWAP1 MSTORE PUSH1 0x24 ADD PUSH2 0x673 JUMP JUMPDEST PUSH0 DUP2 DUP2 MSTORE PUSH1 0x4 PUSH1 0x20 MSTORE PUSH1 0x40 SWAP1 KECCAK256 SLOAD PUSH1 0xFF AND PUSH2 0xF42 JUMPI PUSH0 DUP2 DUP2 MSTORE PUSH1 0x4 PUSH1 0x20 DUP2 SWAP1 MSTORE PUSH1 0x40 SWAP2 DUP3 SWAP1 KECCAK256 SLOAD SWAP2 MLOAD PUSH4 0xE6C1C637 PUSH1 0xE0 SHL DUP2 MSTORE PUSH1 0xFF SWAP1 SWAP3 AND ISZERO ISZERO SWAP1 DUP3 ADD MSTORE PUSH1 0x24 ADD PUSH2 0x673 JUMP JUMPDEST PUSH0 DUP2 DUP2 MSTORE PUSH1 0x4 PUSH1 0x20 MSTORE PUSH1 0x40 SWAP1 KECCAK256 SLOAD PUSH2 0x100 SWAP1 DIV PUSH1 0xFF AND ISZERO PUSH2 0xF91 JUMPI PUSH0 DUP2 DUP2 MSTORE PUSH1 0x4 PUSH1 0x20 DUP2 SWAP1 MSTORE PUSH1 0x40 SWAP2 DUP3 SWAP1 KECCAK256 SLOAD SWAP2 MLOAD PUSH3 0x246805 PUSH1 0xE9 SHL DUP2 MSTORE PUSH2 0x100 SWAP1 SWAP3 DIV PUSH1 0xFF AND ISZERO ISZERO SWAP1 DUP3 ADD MSTORE PUSH1 0x24 ADD PUSH2 0x673 JUMP JUMPDEST PUSH0 DUP3 DUP2 MSTORE PUSH1 0x4 PUSH1 0x20 MSTORE PUSH1 0x40 SWAP1 KECCAK256 SLOAD PUSH3 0x10000 SWAP1 DIV PUSH1 0xFF AND ISZERO PUSH2 0xFE3 JUMPI PUSH0 DUP3 DUP2 MSTORE PUSH1 0x4 PUSH1 0x20 DUP2 SWAP1 MSTORE PUSH1 0x40 SWAP2 DUP3 SWAP1 KECCAK256 SLOAD SWAP2 MLOAD PUSH4 0x2A515AF5 PUSH1 0xE1 SHL DUP2 MSTORE PUSH3 0x10000 SWAP1 SWAP3 DIV PUSH1 0xFF AND ISZERO ISZERO SWAP1 DUP3 ADD MSTORE PUSH1 0x24 ADD PUSH2 0x673 JUMP JUMPDEST PUSH0 DUP3 DUP2 MSTORE PUSH1 0x4 PUSH1 0x20 MSTORE PUSH1 0x40 SWAP1 KECCAK256 PUSH1 0x5 ADD SLOAD PUSH1 0x1 PUSH1 0x1 PUSH1 0xA0 SHL SUB AND CALLER EQ DUP1 PUSH2 0x1022 JUMPI POP PUSH0 DUP3 DUP2 MSTORE PUSH1 0x4 PUSH1 0x20 MSTORE PUSH1 0x40 SWAP1 KECCAK256 PUSH1 0x6 ADD SLOAD PUSH1 0x1 PUSH1 0x1 PUSH1 0xA0 SHL SUB AND CALLER EQ JUMPDEST PUSH2 0x108C JUMPI PUSH1 0x40 MLOAD PUSH3 0x461BCD PUSH1 0xE5 SHL DUP2 MSTORE PUSH1 0x20 PUSH1 0x4 DUP3 ADD MSTORE PUSH1 0x35 PUSH1 0x24 DUP3 ADD MSTORE PUSH32 0x596F7520617265206E6F7420746865206E66744F776E6572206E656974686572 PUSH1 0x44 DUP3 ADD MSTORE PUSH21 0x103A3432903432B4B3B432B9BA103134B23232B917 PUSH1 0x59 SHL PUSH1 0x64 DUP3 ADD MSTORE PUSH1 0x84 ADD PUSH2 0x673 JUMP JUMPDEST PUSH0 DUP3 DUP2 MSTORE PUSH1 0x4 PUSH1 0x20 MSTORE PUSH1 0x40 SWAP1 KECCAK256 PUSH1 0x8 ADD SLOAD TIMESTAMP LT ISZERO PUSH2 0x10E0 JUMPI PUSH0 DUP3 DUP2 MSTORE PUSH1 0x4 PUSH1 0x20 DUP2 SWAP1 MSTORE PUSH1 0x40 SWAP2 DUP3 SWAP1 KECCAK256 PUSH1 0x9 DUP2 ADD SLOAD PUSH1 0x8 SWAP1 SWAP2 ADD SLOAD SWAP3 MLOAD PUSH4 0xDD96246F PUSH1 0xE0 SHL DUP2 MSTORE SWAP2 DUP3 ADD MSTORE PUSH1 0x24 DUP2 ADD SWAP2 SWAP1 SWAP2 MSTORE PUSH1 0x44 ADD PUSH2 0x673 JUMP JUMPDEST PUSH0 DUP3 DUP2 MSTORE PUSH1 0x4 PUSH1 0x20 MSTORE PUSH1 0x40 DUP2 KECCAK256 PUSH1 0x1 ADD SLOAD ISZERO PUSH2 0xBF7 JUMPI PUSH0 DUP4 DUP2 MSTORE PUSH1 0x4 PUSH1 0x20 MSTORE PUSH1 0x40 SWAP1 KECCAK256 PUSH1 0x2 DUP2 ADD SLOAD PUSH1 0x1 SWAP1 SWAP2 ADD SLOAD PUSH2 0xBF0 SWAP2 SWAP1 PUSH2 0x1BDB JUMP JUMPDEST DUP1 PUSH0 DUP2 GT PUSH2 0x113C JUMPI PUSH1 0x40 MLOAD PUSH4 0xC860174B PUSH1 0xE0 SHL DUP2 MSTORE PUSH1 0x4 DUP2 ADD DUP3 SWAP1 MSTORE PUSH1 0x24 ADD PUSH2 0x673 JUMP JUMPDEST PUSH0 DUP2 DUP2 MSTORE PUSH1 0x4 PUSH1 0x20 MSTORE PUSH1 0x40 SWAP1 KECCAK256 SLOAD PUSH1 0xFF AND PUSH2 0x1182 JUMPI PUSH0 DUP2 DUP2 MSTORE PUSH1 0x4 PUSH1 0x20 DUP2 SWAP1 MSTORE PUSH1 0x40 SWAP2 DUP3 SWAP1 KECCAK256 SLOAD SWAP2 MLOAD PUSH4 0xE6C1C637 PUSH1 0xE0 SHL DUP2 MSTORE PUSH1 0xFF SWAP1 SWAP3 AND ISZERO ISZERO SWAP1 DUP3 ADD MSTORE PUSH1 0x24 ADD PUSH2 0x673 JUMP JUMPDEST PUSH0 DUP2 DUP2 MSTORE PUSH1 0x4 PUSH1 0x20 MSTORE PUSH1 0x40 SWAP1 KECCAK256 SLOAD PUSH2 0x100 SWAP1 DIV PUSH1 0xFF AND ISZERO PUSH2 0x11D1 JUMPI PUSH0 DUP2 DUP2 MSTORE PUSH1 0x4 PUSH1 0x20 DUP2 SWAP1 MSTORE PUSH1 0x40 SWAP2 DUP3 SWAP1 KECCAK256 SLOAD SWAP2 MLOAD PUSH3 0x246805 PUSH1 0xE9 SHL DUP2 MSTORE PUSH2 0x100 SWAP1 SWAP3 DIV PUSH1 0xFF AND ISZERO ISZERO SWAP1 DUP3 ADD MSTORE PUSH1 0x24 ADD PUSH2 0x673 JUMP JUMPDEST PUSH0 DUP3 DUP2 MSTORE PUSH1 0x4 PUSH1 0x20 MSTORE PUSH1 0x40 SWAP1 KECCAK256 SLOAD PUSH3 0x10000 SWAP1 DIV PUSH1 0xFF AND ISZERO PUSH2 0x1223 JUMPI PUSH0 DUP3 DUP2 MSTORE PUSH1 0x4 PUSH1 0x20 DUP2 SWAP1 MSTORE PUSH1 0x40 SWAP2 DUP3 SWAP1 KECCAK256 SLOAD SWAP2 MLOAD PUSH4 0x2A515AF5 PUSH1 0xE1 SHL DUP2 MSTORE PUSH3 0x10000 SWAP1 SWAP3 DIV PUSH1 0xFF AND ISZERO ISZERO SWAP1 DUP3 ADD MSTORE PUSH1 0x24 ADD PUSH2 0x673 JUMP JUMPDEST CALLVALUE ISZERO DUP1 PUSH2 0x123F JUMPI POP PUSH0 DUP3 DUP2 MSTORE PUSH1 0x4 PUSH1 0x20 MSTORE PUSH1 0x40 SWAP1 KECCAK256 PUSH1 0x2 ADD SLOAD CALLVALUE LT JUMPDEST ISZERO PUSH2 0x125F JUMPI PUSH1 0x40 MLOAD PUSH4 0x85D649F7 PUSH1 0xE0 SHL DUP2 MSTORE CALLVALUE PUSH1 0x4 DUP3 ADD MSTORE PUSH1 0x24 ADD PUSH2 0x673 JUMP JUMPDEST PUSH0 DUP3 DUP2 MSTORE PUSH1 0x4 PUSH1 0x20 MSTORE PUSH1 0x40 SWAP1 KECCAK256 PUSH1 0x9 ADD SLOAD TIMESTAMP LT DUP1 PUSH2 0x128C JUMPI POP PUSH0 DUP3 DUP2 MSTORE PUSH1 0x4 PUSH1 0x20 MSTORE PUSH1 0x40 SWAP1 KECCAK256 PUSH1 0x8 ADD SLOAD TIMESTAMP GT JUMPDEST ISZERO PUSH2 0x12CD JUMPI PUSH0 DUP3 DUP2 MSTORE PUSH1 0x4 PUSH1 0x20 DUP2 SWAP1 MSTORE PUSH1 0x40 SWAP2 DUP3 SWAP1 KECCAK256 PUSH1 0x9 DUP2 ADD SLOAD PUSH1 0x8 SWAP1 SWAP2 ADD SLOAD SWAP3 MLOAD PUSH4 0xDD96246F PUSH1 0xE0 SHL DUP2 MSTORE SWAP2 DUP3 ADD MSTORE PUSH1 0x24 DUP2 ADD SWAP2 SWAP1 SWAP2 MSTORE PUSH1 0x44 ADD PUSH2 0x673 JUMP JUMPDEST PUSH0 DUP3 DUP2 MSTORE PUSH1 0x4 PUSH1 0x20 MSTORE PUSH1 0x40 SWAP1 KECCAK256 PUSH1 0x5 ADD SLOAD PUSH1 0x1 PUSH1 0x1 PUSH1 0xA0 SHL SUB AND CALLER SUB PUSH2 0x1325 JUMPI PUSH0 DUP3 DUP2 MSTORE PUSH1 0x4 PUSH1 0x20 DUP2 SWAP1 MSTORE PUSH1 0x40 SWAP2 DUP3 SWAP1 KECCAK256 PUSH1 0x5 ADD SLOAD SWAP2 MLOAD PUSH4 0x4A83C1B PUSH1 0xE5 SHL DUP2 MSTORE PUSH1 0x1 PUSH1 0x1 PUSH1 0xA0 SHL SUB SWAP1 SWAP3 AND SWAP1 DUP3 ADD MSTORE PUSH1 0x24 ADD PUSH2 0x673 JUMP JUMPDEST PUSH0 DUP3 DUP2 MSTORE PUSH1 0x4 PUSH1 0x20 MSTORE PUSH1 0x40 SWAP1 KECCAK256 PUSH1 0x2 DUP2 ADD SLOAD PUSH1 0x6 SWAP1 SWAP2 ADD SLOAD PUSH1 0x1 PUSH1 0x1 PUSH1 0xA0 SHL SUB AND DUP2 ISZERO DUP1 ISZERO SWAP1 PUSH2 0x135D JUMPI POP PUSH1 0x1 PUSH1 0x1 PUSH1 0xA0 SHL SUB DUP2 AND ISZERO ISZERO JUMPDEST ISZERO PUSH2 0x136C JUMPI PUSH2 0x136C DUP2 DUP4 PUSH2 0x2076 JUMP JUMPDEST PUSH0 DUP5 DUP2 MSTORE PUSH1 0x4 PUSH1 0x20 SWAP1 DUP2 MSTORE PUSH1 0x40 SWAP2 DUP3 SWAP1 KECCAK256 CALLVALUE PUSH1 0x2 DUP3 ADD DUP2 SWAP1 SSTORE PUSH1 0x6 SWAP1 SWAP2 ADD DUP1 SLOAD PUSH1 0x1 PUSH1 0x1 PUSH1 0xA0 SHL SUB NOT AND CALLER SWAP1 DUP2 OR SWAP1 SWAP2 SSTORE DUP4 MLOAD SWAP1 DUP2 MSTORE SWAP2 DUP3 ADD MSTORE SWAP1 DUP2 ADD DUP4 SWAP1 MSTORE PUSH32 0xA6E846933627BEDFE46F69605777A6483FB976F59199EC63196AA8442C8EB123 SWAP1 PUSH1 0x60 ADD PUSH1 0x40 MLOAD DUP1 SWAP2 SUB SWAP1 LOG1 POP POP POP POP JUMP JUMPDEST PUSH0 DUP1 SLOAD PUSH1 0x40 MLOAD PUSH4 0x53F50119 PUSH1 0xE0 SHL DUP2 MSTORE CALLER PUSH1 0x4 DUP3 ADD MSTORE DUP4 SWAP3 SWAP2 DUP3 SWAP2 DUP3 SWAP2 PUSH1 0x1 PUSH1 0x1 PUSH1 0xA0 SHL SUB AND SWAP1 PUSH4 0x53F50119 SWAP1 PUSH1 0x24 ADD PUSH1 0x80 PUSH1 0x40 MLOAD DUP1 DUP4 SUB DUP2 DUP7 GAS STATICCALL ISZERO DUP1 ISZERO PUSH2 0x142A JUMPI RETURNDATASIZE PUSH0 DUP1 RETURNDATACOPY RETURNDATASIZE PUSH0 REVERT JUMPDEST POP POP POP POP PUSH1 0x40 MLOAD RETURNDATASIZE PUSH1 0x1F NOT PUSH1 0x1F DUP3 ADD AND DUP3 ADD DUP1 PUSH1 0x40 MSTORE POP DUP2 ADD SWAP1 PUSH2 0x144E SWAP2 SWAP1 PUSH2 0x2C4B JUMP JUMPDEST POP SWAP3 POP SWAP3 POP SWAP3 POP DUP3 ISZERO PUSH2 0x14B5 JUMPI DUP1 PUSH1 0x1 PUSH1 0x1 PUSH1 0xA0 SHL SUB AND DUP5 PUSH1 0x1 PUSH1 0x1 PUSH1 0xA0 SHL SUB AND EQ PUSH2 0x14B5 JUMPI PUSH1 0x40 MLOAD PUSH3 0x461BCD PUSH1 0xE5 SHL DUP2 MSTORE PUSH1 0x20 PUSH1 0x4 DUP3 ADD MSTORE PUSH1 0x16 PUSH1 0x24 DUP3 ADD MSTORE PUSH22 0x3BB937B733903334B9B1B0B61039B837B739B7B91097 PUSH1 0x51 SHL PUSH1 0x44 DUP3 ADD MSTORE PUSH1 0x64 ADD PUSH2 0x673 JUMP JUMPDEST PUSH0 DUP13 GT PUSH2 0x14D8 JUMPI PUSH1 0x40 MLOAD PUSH4 0xBAF301F7 PUSH1 0xE0 SHL DUP2 MSTORE PUSH1 0x4 DUP2 ADD DUP14 SWAP1 MSTORE PUSH1 0x24 ADD PUSH2 0x673 JUMP JUMPDEST PUSH0 DUP10 GT PUSH2 0x14FB JUMPI PUSH1 0x40 MLOAD PUSH4 0x43599F69 PUSH1 0xE1 SHL DUP2 MSTORE PUSH1 0x4 DUP2 ADD DUP11 SWAP1 MSTORE PUSH1 0x24 ADD PUSH2 0x673 JUMP JUMPDEST PUSH0 DUP9 GT PUSH2 0x151E JUMPI PUSH1 0x40 MLOAD PUSH4 0x8E57A1B3 PUSH1 0xE0 SHL DUP2 MSTORE PUSH1 0x4 DUP2 ADD DUP10 SWAP1 MSTORE PUSH1 0x24 ADD PUSH2 0x673 JUMP JUMPDEST PUSH1 0x1 DUP1 SLOAD SWAP1 PUSH0 PUSH2 0x152D DUP4 PUSH2 0x2CDB JUMP JUMPDEST SWAP2 SWAP1 POP SSTORE POP PUSH2 0x1541 DUP10 DUP10 DUP15 DUP15 DUP15 DUP13 DUP13 PUSH2 0x1A1A JUMP JUMPDEST PUSH1 0x3 SLOAD PUSH1 0x1 PUSH1 0x1 PUSH1 0xA0 SHL SUB DUP9 DUP2 AND SWAP2 AND EQ PUSH2 0x1569 JUMPI PUSH2 0x1564 DUP10 DUP10 PUSH1 0x1 SLOAD DUP11 PUSH2 0x23BD JUMP JUMPDEST PUSH2 0x1586 JUMP JUMPDEST PUSH1 0x1 SLOAD PUSH1 0x3 SLOAD PUSH2 0x1586 SWAP2 DUP12 SWAP2 DUP12 SWAP2 SWAP1 PUSH1 0x1 PUSH1 0x1 PUSH1 0xA0 SHL SUB AND PUSH2 0x23BD JUMP JUMPDEST PUSH1 0x1 SLOAD PUSH1 0x40 DUP1 MLOAD SWAP2 DUP3 MSTORE PUSH1 0x20 DUP3 ADD DUP12 SWAP1 MSTORE DUP2 ADD DUP10 SWAP1 MSTORE PUSH1 0x60 DUP2 ADD DUP14 SWAP1 MSTORE PUSH32 0x52AD65EC41E71D556367FC4FEF59F68118B969BB890DEF6F1CCD0B952F557CA4 SWAP1 PUSH1 0x80 ADD PUSH1 0x40 MLOAD DUP1 SWAP2 SUB SWAP1 LOG1 POP POP POP POP POP POP POP POP POP POP POP POP JUMP JUMPDEST DUP2 DUP2 PUSH0 DUP3 MLOAD GT ISZERO DUP1 ISZERO PUSH2 0x15F2 JUMPI POP PUSH1 0xA DUP3 MLOAD GT JUMPDEST ISZERO PUSH2 0x1615 JUMPI DUP2 MLOAD PUSH1 0x40 MLOAD PUSH4 0x1D9AEA7D PUSH1 0xE0 SHL DUP2 MSTORE PUSH1 0x4 ADD PUSH2 0x673 SWAP2 DUP2 MSTORE PUSH1 0x20 ADD SWAP1 JUMP JUMPDEST DUP1 MLOAD DUP3 MLOAD EQ PUSH2 0x1644 JUMPI DUP2 MLOAD DUP2 MLOAD PUSH1 0x40 MLOAD PUSH4 0x12C9B6E1 PUSH1 0xE0 SHL DUP2 MSTORE PUSH1 0x4 DUP2 ADD SWAP3 SWAP1 SWAP3 MSTORE PUSH1 0x24 DUP3 ADD MSTORE PUSH1 0x44 ADD PUSH2 0x673 JUMP JUMPDEST PUSH0 DUP1 JUMPDEST DUP4 MLOAD DUP2 LT ISZERO PUSH2 0x170E JUMPI PUSH0 PUSH1 0x1 PUSH1 0x1 PUSH1 0xA0 SHL SUB AND DUP5 DUP3 DUP2 MLOAD DUP2 LT PUSH2 0x166C JUMPI PUSH2 0x166C PUSH2 0x2CF3 JUMP JUMPDEST PUSH1 0x20 MUL PUSH1 0x20 ADD ADD MLOAD PUSH1 0x1 PUSH1 0x1 PUSH1 0xA0 SHL SUB AND EQ PUSH2 0x1706 JUMPI PUSH2 0x1F4 DUP4 DUP3 DUP2 MLOAD DUP2 LT PUSH2 0x1697 JUMPI PUSH2 0x1697 PUSH2 0x2CF3 JUMP JUMPDEST PUSH1 0x20 MUL PUSH1 0x20 ADD ADD MLOAD LT ISZERO PUSH2 0x1701 JUMPI PUSH1 0x40 MLOAD PUSH3 0x461BCD PUSH1 0xE5 SHL DUP2 MSTORE PUSH1 0x20 PUSH1 0x4 DUP3 ADD MSTORE PUSH1 0x2B PUSH1 0x24 DUP3 ADD MSTORE PUSH32 0x646F6E6174696F6E2070657263656E74616765206D7573742062652067726561 PUSH1 0x44 DUP3 ADD MSTORE PUSH11 0x746572207468656E203525 PUSH1 0xA8 SHL PUSH1 0x64 DUP3 ADD MSTORE PUSH1 0x84 ADD PUSH2 0x673 JUMP JUMPDEST PUSH1 0x1 SWAP2 POP JUMPDEST PUSH1 0x1 ADD PUSH2 0x1647 JUMP JUMPDEST POP DUP1 PUSH2 0x1755 JUMPI PUSH1 0x40 MLOAD PUSH3 0x461BCD PUSH1 0xE5 SHL DUP2 MSTORE PUSH1 0x20 PUSH1 0x4 DUP3 ADD MSTORE PUSH1 0x16 PUSH1 0x24 DUP3 ADD MSTORE PUSH22 0x39B2B632B1BA1030B71037B933B0B73D30BA34B7B717 PUSH1 0x51 SHL PUSH1 0x44 DUP3 ADD MSTORE PUSH1 0x64 ADD PUSH2 0x673 JUMP JUMPDEST PUSH0 DUP13 GT PUSH2 0x1778 JUMPI PUSH1 0x40 MLOAD PUSH4 0xBAF301F7 PUSH1 0xE0 SHL DUP2 MSTORE PUSH1 0x4 DUP2 ADD DUP14 SWAP1 MSTORE PUSH1 0x24 ADD PUSH2 0x673 JUMP JUMPDEST PUSH0 DUP10 GT PUSH2 0x179B JUMPI PUSH1 0x40 MLOAD PUSH4 0x43599F69 PUSH1 0xE1 SHL DUP2 MSTORE PUSH1 0x4 DUP2 ADD DUP11 SWAP1 MSTORE PUSH1 0x24 ADD PUSH2 0x673 JUMP JUMPDEST PUSH0 DUP9 GT PUSH2 0x17BE JUMPI PUSH1 0x40 MLOAD PUSH4 0x8E57A1B3 PUSH1 0xE0 SHL DUP2 MSTORE PUSH1 0x4 DUP2 ADD DUP10 SWAP1 MSTORE PUSH1 0x24 ADD PUSH2 0x673 JUMP JUMPDEST PUSH1 0x1 DUP1 SLOAD SWAP1 PUSH0 PUSH2 0x17CD DUP4 PUSH2 0x2CDB JUMP JUMPDEST SWAP2 SWAP1 POP SSTORE POP PUSH2 0x17E1 DUP10 DUP10 DUP15 DUP15 DUP15 DUP12 DUP14 PUSH2 0x1A1A JUMP JUMPDEST PUSH2 0x17EE PUSH1 0x1 SLOAD DUP7 DUP7 PUSH2 0x23F9 JUMP JUMPDEST PUSH1 0x3 SLOAD PUSH1 0x1 PUSH1 0x1 PUSH1 0xA0 SHL SUB DUP8 DUP2 AND SWAP2 AND EQ PUSH2 0x1569 JUMPI PUSH2 0x1564 DUP10 DUP10 PUSH1 0x1 SLOAD DUP10 PUSH2 0x23BD JUMP JUMPDEST PUSH0 DUP2 DUP2 MSTORE PUSH1 0x4 PUSH1 0x20 MSTORE PUSH1 0x40 SWAP1 KECCAK256 PUSH1 0x5 ADD SLOAD PUSH1 0x1 PUSH1 0x1 PUSH1 0xA0 SHL SUB AND CALLER EQ PUSH2 0x1879 JUMPI PUSH1 0x40 MLOAD PUSH3 0x461BCD PUSH1 0xE5 SHL DUP2 MSTORE PUSH1 0x20 PUSH1 0x4 DUP3 ADD MSTORE PUSH1 0x18 PUSH1 0x24 DUP3 ADD MSTORE PUSH32 0x596F7520617265206E6F7420746865206E66744F776E65720000000000000000 PUSH1 0x44 DUP3 ADD MSTORE PUSH1 0x64 ADD PUSH2 0x673 JUMP JUMPDEST PUSH0 DUP2 DUP2 MSTORE PUSH1 0x4 PUSH1 0x20 MSTORE PUSH1 0x40 SWAP1 KECCAK256 SLOAD PUSH2 0x100 SWAP1 DIV PUSH1 0xFF AND ISZERO PUSH2 0x18D2 JUMPI PUSH1 0x40 MLOAD PUSH3 0x461BCD PUSH1 0xE5 SHL DUP2 MSTORE PUSH1 0x20 PUSH1 0x4 DUP3 ADD MSTORE PUSH1 0x13 PUSH1 0x24 DUP3 ADD MSTORE PUSH19 0x139195081A5CC8185B1C98591E481CDBDB190B PUSH1 0x6A SHL PUSH1 0x44 DUP3 ADD MSTORE PUSH1 0x64 ADD PUSH2 0x673 JUMP JUMPDEST PUSH0 DUP2 DUP2 MSTORE PUSH1 0x4 PUSH1 0x20 DUP2 SWAP1 MSTORE PUSH1 0x40 SWAP1 SWAP2 KECCAK256 PUSH1 0x7 DUP2 ADD SLOAD PUSH1 0x5 DUP3 ADD SLOAD PUSH1 0x3 DUP4 ADD SLOAD SWAP3 SWAP1 SWAP4 ADD SLOAD PUSH2 0x1911 SWAP4 PUSH1 0x1 PUSH1 0x1 PUSH1 0xA0 SHL SUB SWAP3 DUP4 AND SWAP4 ADDRESS SWAP4 SWAP1 SWAP2 AND SWAP2 PUSH2 0x210C JUMP JUMPDEST PUSH0 DUP2 DUP2 MSTORE PUSH1 0x4 PUSH1 0x20 DUP2 DUP2 MSTORE PUSH1 0x40 DUP1 DUP5 KECCAK256 DUP1 SLOAD PUSH3 0xFF00FF NOT AND DUP2 SSTORE PUSH1 0x3 DUP2 ADD DUP6 SWAP1 SSTORE SWAP3 DUP4 ADD DUP5 SWAP1 SSTORE PUSH1 0x2 DUP4 ADD DUP5 SWAP1 SSTORE PUSH1 0x8 DUP4 ADD DUP5 SWAP1 SSTORE PUSH1 0x9 DUP4 ADD DUP5 SWAP1 SSTORE PUSH1 0x7 DUP4 ADD DUP1 SLOAD PUSH1 0x1 PUSH1 0x1 PUSH1 0xA0 SHL SUB NOT SWAP1 DUP2 AND SWAP1 SWAP2 SSTORE PUSH1 0x5 SWAP1 SWAP4 ADD DUP1 SLOAD SWAP1 SWAP4 AND SWAP1 SWAP3 SSTORE DUP2 MLOAD CALLER DUP2 MSTORE SWAP1 DUP2 ADD DUP5 SWAP1 MSTORE SWAP1 DUP2 ADD SWAP2 SWAP1 SWAP2 MSTORE PUSH32 0x3C1CBEA3C4423ACDEDC9531A932910AB62FD4B01B389AA96646907A70549974C SWAP1 PUSH1 0x60 ADD PUSH2 0x6BF JUMP JUMPDEST PUSH2 0x19B3 PUSH2 0x19E8 JUMP JUMPDEST PUSH1 0x1 PUSH1 0x1 PUSH1 0xA0 SHL SUB DUP2 AND PUSH2 0x19DC JUMPI PUSH1 0x40 MLOAD PUSH4 0x1E4FBDF7 PUSH1 0xE0 SHL DUP2 MSTORE PUSH0 PUSH1 0x4 DUP3 ADD MSTORE PUSH1 0x24 ADD PUSH2 0x673 JUMP JUMPDEST PUSH2 0x19E5 DUP2 PUSH2 0x234D JUMP JUMPDEST POP JUMP JUMPDEST CALLER PUSH2 0x19F1 PUSH2 0xEAA JUMP JUMPDEST PUSH1 0x1 PUSH1 0x1 PUSH1 0xA0 SHL SUB AND EQ PUSH2 0xEA8 JUMPI PUSH1 0x40 MLOAD PUSH4 0x118CDAA7 PUSH1 0xE0 SHL DUP2 MSTORE CALLER PUSH1 0x4 DUP3 ADD MSTORE PUSH1 0x24 ADD PUSH2 0x673 JUMP JUMPDEST DUP5 DUP5 DUP5 DUP10 DUP10 DUP7 PUSH0 DUP7 GT PUSH2 0x1A43 JUMPI PUSH1 0x40 MLOAD PUSH4 0xBAF301F7 PUSH1 0xE0 SHL DUP2 MSTORE PUSH1 0x4 DUP2 ADD DUP8 SWAP1 MSTORE PUSH1 0x24 ADD PUSH2 0x673 JUMP JUMPDEST PUSH0 DUP4 GT PUSH2 0x1A66 JUMPI PUSH1 0x40 MLOAD PUSH4 0x43599F69 PUSH1 0xE1 SHL DUP2 MSTORE PUSH1 0x4 DUP2 ADD DUP5 SWAP1 MSTORE PUSH1 0x24 ADD PUSH2 0x673 JUMP JUMPDEST PUSH0 DUP3 GT PUSH2 0x1A89 JUMPI PUSH1 0x40 MLOAD PUSH4 0x8E57A1B3 PUSH1 0xE0 SHL DUP2 MSTORE PUSH1 0x4 DUP2 ADD DUP4 SWAP1 MSTORE PUSH1 0x24 ADD PUSH2 0x673 JUMP JUMPDEST PUSH1 0x1 PUSH1 0x1 PUSH1 0xA0 SHL SUB DUP2 AND PUSH2 0x1ABB JUMPI PUSH1 0x40 MLOAD PUSH4 0xE4CFA94D PUSH1 0xE0 SHL DUP2 MSTORE PUSH1 0x1 PUSH1 0x1 PUSH1 0xA0 SHL SUB DUP3 AND PUSH1 0x4 DUP3 ADD MSTORE PUSH1 0x24 ADD PUSH2 0x673 JUMP JUMPDEST DUP5 ISZERO DUP1 ISZERO SWAP1 PUSH2 0x1AC9 JUMPI POP DUP4 ISZERO ISZERO JUMPDEST ISZERO PUSH2 0x1B05 JUMPI TIMESTAMP DUP6 GT ISZERO DUP1 ISZERO PUSH2 0x1ADD JUMPI POP DUP5 DUP5 LT JUMPDEST ISZERO PUSH2 0x1B05 JUMPI PUSH1 0x40 MLOAD PUSH4 0xDD96246F PUSH1 0xE0 SHL DUP2 MSTORE PUSH1 0x4 DUP2 ADD DUP7 SWAP1 MSTORE PUSH1 0x24 DUP2 ADD DUP6 SWAP1 MSTORE PUSH1 0x44 ADD PUSH2 0x673 JUMP JUMPDEST DUP10 ISZERO DUP1 ISZERO PUSH2 0x1B11 JUMPI POP DUP9 ISZERO JUMPDEST ISZERO PUSH2 0x1B36 JUMPI PUSH1 0x1 SLOAD PUSH0 SWAP1 DUP2 MSTORE PUSH1 0x4 PUSH1 0x20 MSTORE PUSH1 0x40 SWAP1 KECCAK256 DUP1 SLOAD PUSH3 0xFF0000 NOT AND PUSH3 0x10000 OR SWAP1 SSTORE JUMPDEST POP POP PUSH1 0x1 DUP1 SLOAD PUSH0 SWAP1 DUP2 MSTORE PUSH1 0x4 PUSH1 0x20 DUP2 SWAP1 MSTORE PUSH1 0x40 DUP1 DUP4 KECCAK256 DUP1 SLOAD PUSH1 0xFF NOT AND DUP6 OR SWAP1 SSTORE DUP4 SLOAD DUP4 MSTORE DUP1 DUP4 KECCAK256 PUSH1 0x3 ADD SWAP15 SWAP1 SWAP15 SSTORE DUP3 SLOAD DUP3 MSTORE DUP14 DUP3 KECCAK256 ADD SWAP12 SWAP1 SWAP12 SSTORE DUP1 SLOAD DUP12 MSTORE DUP12 DUP12 KECCAK256 PUSH1 0x2 ADD SWAP10 SWAP1 SWAP10 SSTORE POP POP DUP7 SLOAD DUP9 MSTORE POP POP DUP7 DUP7 KECCAK256 PUSH1 0x9 ADD SWAP4 SWAP1 SWAP4 SSTORE POP DUP3 SLOAD DUP5 MSTORE DUP5 DUP5 KECCAK256 PUSH1 0x8 ADD SSTORE DUP2 SLOAD DUP4 MSTORE DUP4 DUP4 KECCAK256 PUSH1 0x5 ADD DUP1 SLOAD PUSH1 0x1 PUSH1 0x1 PUSH1 0xA0 SHL SUB NOT AND CALLER OR SWAP1 SSTORE DUP2 SLOAD DUP4 MSTORE SWAP3 SWAP1 SWAP2 KECCAK256 ADD SSTORE JUMP JUMPDEST PUSH2 0xEA8 PUSH2 0x2506 JUMP JUMPDEST PUSH2 0x1BD2 PUSH2 0x2506 JUMP JUMPDEST PUSH2 0x19E5 DUP2 PUSH2 0x254F JUMP JUMPDEST PUSH0 DUP3 PUSH0 SUB PUSH2 0x1C2B JUMPI PUSH1 0x40 MLOAD PUSH3 0x461BCD PUSH1 0xE5 SHL DUP2 MSTORE PUSH1 0x20 PUSH1 0x4 DUP3 ADD MSTORE PUSH1 0x1C PUSH1 0x24 DUP3 ADD MSTORE PUSH32 0x5072696365206F66204E46542063616E206E6F74206265207A65726F00000000 PUSH1 0x44 DUP3 ADD MSTORE PUSH1 0x64 ADD PUSH2 0x673 JUMP JUMPDEST DUP2 PUSH0 SUB PUSH2 0x1C71 JUMPI PUSH1 0x40 MLOAD PUSH3 0x461BCD PUSH1 0xE5 SHL DUP2 MSTORE PUSH1 0x20 PUSH1 0x4 DUP3 ADD MSTORE PUSH1 0x14 PUSH1 0x24 DUP3 ADD MSTORE PUSH20 0x5F5042502063616E206E6F74206265207A65726F PUSH1 0x60 SHL PUSH1 0x44 DUP3 ADD MSTORE PUSH1 0x64 ADD PUSH2 0x673 JUMP JUMPDEST PUSH0 PUSH2 0x2710 PUSH2 0x1C7F DUP5 DUP7 PUSH2 0x2D07 JUMP JUMPDEST PUSH2 0x1C89 SWAP2 SWAP1 PUSH2 0x2D1E JUMP JUMPDEST SWAP5 SWAP4 POP POP POP POP JUMP JUMPDEST PUSH0 DUP1 DUP1 JUMPDEST PUSH0 DUP5 DUP2 MSTORE PUSH1 0x5 PUSH1 0x20 MSTORE PUSH1 0x40 SWAP1 KECCAK256 SLOAD DUP2 LT ISZERO PUSH2 0x1E5B JUMPI PUSH0 DUP5 DUP2 MSTORE PUSH1 0x5 PUSH1 0x20 MSTORE PUSH1 0x40 DUP2 KECCAK256 PUSH1 0x1 ADD DUP3 PUSH1 0xA DUP2 LT PUSH2 0x1CCB JUMPI PUSH2 0x1CCB PUSH2 0x2CF3 JUMP JUMPDEST ADD SLOAD PUSH1 0x1 PUSH1 0x1 PUSH1 0xA0 SHL SUB AND EQ PUSH2 0x1E53 JUMPI PUSH0 DUP5 DUP2 MSTORE PUSH1 0x4 PUSH1 0x20 SWAP1 DUP2 MSTORE PUSH1 0x40 DUP1 DUP4 KECCAK256 PUSH1 0x2 ADD SLOAD PUSH1 0x5 SWAP1 SWAP3 MSTORE DUP3 KECCAK256 PUSH2 0x1D16 SWAP2 SWAP1 PUSH1 0xB ADD DUP5 PUSH1 0xA DUP2 LT PUSH2 0x1D0F JUMPI PUSH2 0x1D0F PUSH2 0x2CF3 JUMP JUMPDEST ADD SLOAD PUSH2 0x1BDB JUMP JUMPDEST PUSH0 DUP1 SLOAD DUP8 DUP3 MSTORE PUSH1 0x5 PUSH1 0x20 MSTORE PUSH1 0x40 DUP3 KECCAK256 SWAP3 SWAP4 POP SWAP1 SWAP2 PUSH1 0x1 PUSH1 0x1 PUSH1 0xA0 SHL SUB SWAP1 SWAP2 AND SWAP1 PUSH4 0x53F50119 SWAP1 PUSH1 0x1 ADD DUP6 PUSH1 0xA DUP2 LT PUSH2 0x1D50 JUMPI PUSH2 0x1D50 PUSH2 0x2CF3 JUMP JUMPDEST ADD SLOAD PUSH1 0x40 MLOAD PUSH1 0xE0 DUP4 SWAP1 SHL PUSH1 0x1 PUSH1 0x1 PUSH1 0xE0 SHL SUB NOT AND DUP2 MSTORE PUSH1 0x1 PUSH1 0x1 PUSH1 0xA0 SHL SUB SWAP1 SWAP2 AND PUSH1 0x4 DUP3 ADD MSTORE PUSH1 0x24 ADD PUSH1 0x80 PUSH1 0x40 MLOAD DUP1 DUP4 SUB DUP2 DUP7 GAS STATICCALL ISZERO DUP1 ISZERO PUSH2 0x1D94 JUMPI RETURNDATASIZE PUSH0 DUP1 RETURNDATACOPY RETURNDATASIZE PUSH0 REVERT JUMPDEST POP POP POP POP PUSH1 0x40 MLOAD RETURNDATASIZE PUSH1 0x1F NOT PUSH1 0x1F DUP3 ADD AND DUP3 ADD DUP1 PUSH1 0x40 MSTORE POP DUP2 ADD SWAP1 PUSH2 0x1DB8 SWAP2 SWAP1 PUSH2 0x2C4B JUMP JUMPDEST POP POP POP SWAP1 POP PUSH0 DUP2 ISZERO PUSH2 0x1DFE JUMPI PUSH0 DUP8 DUP2 MSTORE PUSH1 0x5 PUSH1 0x20 MSTORE PUSH1 0x40 DUP2 KECCAK256 PUSH2 0x1DFB SWAP2 SWAP1 PUSH1 0x1 ADD DUP7 PUSH1 0xA DUP2 LT PUSH2 0x1DEA JUMPI PUSH2 0x1DEA PUSH2 0x2CF3 JUMP JUMPDEST ADD SLOAD PUSH1 0x1 PUSH1 0x1 PUSH1 0xA0 SHL SUB AND DUP6 PUSH2 0x1E62 JUMP JUMPDEST SWAP1 POP JUMPDEST PUSH0 PUSH2 0x1E09 DUP3 DUP6 PUSH2 0x2CC8 JUMP JUMPDEST PUSH0 DUP10 DUP2 MSTORE PUSH1 0x5 PUSH1 0x20 MSTORE PUSH1 0x40 SWAP1 KECCAK256 SWAP1 SWAP2 POP PUSH2 0x1E42 SWAP1 PUSH1 0x1 ADD DUP7 PUSH1 0xA DUP2 LT PUSH2 0x1E31 JUMPI PUSH2 0x1E31 PUSH2 0x2CF3 JUMP JUMPDEST ADD SLOAD PUSH1 0x1 PUSH1 0x1 PUSH1 0xA0 SHL SUB AND DUP3 PUSH2 0x2076 JUMP JUMPDEST PUSH2 0x1E4C DUP5 DUP8 PUSH2 0x2CB5 JUMP JUMPDEST SWAP6 POP POP POP POP POP JUMPDEST PUSH1 0x1 ADD PUSH2 0x1C95 JUMP JUMPDEST POP SWAP3 SWAP2 POP POP JUMP JUMPDEST PUSH0 DUP1 DUP1 DUP6 ISZERO DUP1 ISZERO SWAP1 PUSH2 0x1E7B JUMPI POP PUSH1 0x1 PUSH1 0x1 PUSH1 0xA0 SHL SUB DUP6 AND ISZERO JUMPDEST DUP1 ISZERO PUSH2 0x1E85 JUMPI POP DUP4 ISZERO JUMPDEST PUSH2 0x1E8F JUMPI DUP5 PUSH2 0x1EAA JUMP JUMPDEST PUSH0 DUP7 DUP2 MSTORE PUSH1 0x4 PUSH1 0x20 MSTORE PUSH1 0x40 SWAP1 KECCAK256 PUSH1 0x5 ADD SLOAD PUSH1 0x1 PUSH1 0x1 PUSH1 0xA0 SHL SUB AND JUMPDEST PUSH0 DUP1 SLOAD PUSH1 0x40 MLOAD PUSH4 0x53F50119 PUSH1 0xE0 SHL DUP2 MSTORE PUSH1 0x1 PUSH1 0x1 PUSH1 0xA0 SHL SUB DUP1 DUP6 AND PUSH1 0x4 DUP4 ADD MSTORE SWAP4 SWAP5 POP SWAP2 SWAP3 DUP4 SWAP3 SWAP2 AND SWAP1 PUSH4 0x53F50119 SWAP1 PUSH1 0x24 ADD PUSH1 0x80 PUSH1 0x40 MLOAD DUP1 DUP4 SUB DUP2 DUP7 GAS STATICCALL ISZERO DUP1 ISZERO PUSH2 0x1EF8 JUMPI RETURNDATASIZE PUSH0 DUP1 RETURNDATACOPY RETURNDATASIZE PUSH0 REVERT JUMPDEST POP POP POP POP PUSH1 0x40 MLOAD RETURNDATASIZE PUSH1 0x1F NOT PUSH1 0x1F DUP3 ADD AND DUP3 ADD DUP1 PUSH1 0x40 MSTORE POP DUP2 ADD SWAP1 PUSH2 0x1F1C SWAP2 SWAP1 PUSH2 0x2C4B JUMP JUMPDEST POP SWAP3 POP SWAP3 POP POP DUP2 PUSH0 SUB PUSH2 0x1F50 JUMPI PUSH1 0x1 PUSH1 0x1 PUSH1 0xA0 SHL SUB DUP2 AND PUSH0 SWAP1 DUP2 MSTORE PUSH1 0x6 PUSH1 0x20 MSTORE PUSH1 0x40 DUP2 KECCAK256 SLOAD SWAP3 POP DUP3 SWAP1 SUB PUSH2 0x1F50 JUMPI PUSH2 0x3E8 SWAP2 POP JUMPDEST PUSH0 DUP9 ISZERO DUP1 ISZERO SWAP1 PUSH2 0x1F5E JUMPI POP DUP7 ISZERO JUMPDEST PUSH2 0x1F68 JUMPI DUP7 PUSH2 0x1F7A JUMP JUMPDEST PUSH0 DUP10 DUP2 MSTORE PUSH1 0x4 PUSH1 0x20 MSTORE PUSH1 0x40 SWAP1 KECCAK256 PUSH1 0x2 ADD SLOAD JUMPDEST SWAP1 POP PUSH2 0x1F86 DUP2 DUP5 PUSH2 0x1BDB JUMP JUMPDEST SWAP5 POP PUSH2 0x1F92 DUP3 DUP7 PUSH2 0x2076 JUMP JUMPDEST POP SWAP3 SWAP4 POP POP POP POP JUMPDEST SWAP4 SWAP3 POP POP POP JUMP JUMPDEST PUSH0 DUP2 DUP2 MSTORE PUSH1 0x4 PUSH1 0x20 MSTORE PUSH1 0x40 DUP2 KECCAK256 PUSH1 0x7 ADD SLOAD PUSH1 0x3 SLOAD DUP3 SWAP2 PUSH1 0x1 PUSH1 0x1 PUSH1 0xA0 SHL SUB SWAP1 DUP2 AND SWAP2 AND SUB PUSH2 0x5F9 JUMPI PUSH0 DUP1 SLOAD DUP5 DUP3 MSTORE PUSH1 0x4 PUSH1 0x20 DUP2 SWAP1 MSTORE PUSH1 0x40 DUP1 DUP5 KECCAK256 PUSH1 0x3 ADD SLOAD SWAP1 MLOAD PUSH4 0x8C33E47F PUSH1 0xE0 SHL DUP2 MSTORE SWAP2 DUP3 ADD MSTORE DUP3 SWAP2 PUSH1 0x1 PUSH1 0x1 PUSH1 0xA0 SHL SUB AND SWAP1 PUSH4 0x8C33E47F SWAP1 PUSH1 0x24 ADD PUSH1 0x40 DUP1 MLOAD DUP1 DUP4 SUB DUP2 DUP7 GAS STATICCALL ISZERO DUP1 ISZERO PUSH2 0x201E JUMPI RETURNDATASIZE PUSH0 DUP1 RETURNDATACOPY RETURNDATASIZE PUSH0 REVERT JUMPDEST POP POP POP POP PUSH1 0x40 MLOAD RETURNDATASIZE PUSH1 0x1F NOT PUSH1 0x1F DUP3 ADD AND DUP3 ADD DUP1 PUSH1 0x40 MSTORE POP DUP2 ADD SWAP1 PUSH2 0x2042 SWAP2 SWAP1 PUSH2 0x2D3D JUMP JUMPDEST PUSH0 DUP8 DUP2 MSTORE PUSH1 0x4 PUSH1 0x20 MSTORE PUSH1 0x40 SWAP1 KECCAK256 PUSH1 0x2 ADD SLOAD SWAP2 SWAP4 POP SWAP2 POP PUSH2 0x2062 SWAP1 DUP4 PUSH2 0x1BDB JUMP JUMPDEST SWAP3 POP PUSH2 0x206E DUP2 DUP5 PUSH2 0x2076 JUMP JUMPDEST POP POP SWAP3 SWAP2 POP POP JUMP JUMPDEST PUSH0 DUP3 PUSH1 0x1 PUSH1 0x1 PUSH1 0xA0 SHL SUB AND DUP3 PUSH1 0x40 MLOAD PUSH0 PUSH1 0x40 MLOAD DUP1 DUP4 SUB DUP2 DUP6 DUP8 GAS CALL SWAP3 POP POP POP RETURNDATASIZE DUP1 PUSH0 DUP2 EQ PUSH2 0x20BF JUMPI PUSH1 0x40 MLOAD SWAP2 POP PUSH1 0x1F NOT PUSH1 0x3F RETURNDATASIZE ADD AND DUP3 ADD PUSH1 0x40 MSTORE RETURNDATASIZE DUP3 MSTORE RETURNDATASIZE PUSH0 PUSH1 0x20 DUP5 ADD RETURNDATACOPY PUSH2 0x20C4 JUMP JUMPDEST PUSH1 0x60 SWAP2 POP JUMPDEST POP POP SWAP1 POP DUP1 PUSH2 0x2107 JUMPI PUSH1 0x40 MLOAD PUSH3 0x461BCD PUSH1 0xE5 SHL DUP2 MSTORE PUSH1 0x20 PUSH1 0x4 DUP3 ADD MSTORE PUSH1 0xF PUSH1 0x24 DUP3 ADD MSTORE PUSH15 0x151C985B9CD9995C8819985A5B1959 PUSH1 0x8A SHL PUSH1 0x44 DUP3 ADD MSTORE PUSH1 0x64 ADD PUSH2 0x673 JUMP JUMPDEST POP POP POP JUMP JUMPDEST PUSH1 0x40 MLOAD PUSH4 0x79212195 PUSH1 0xE1 SHL DUP2 MSTORE PUSH1 0x1 PUSH1 0x1 PUSH1 0xA0 SHL SUB DUP6 DUP2 AND PUSH1 0x4 DUP1 DUP5 ADD SWAP2 SWAP1 SWAP2 MSTORE DUP6 DUP3 AND PUSH1 0x24 DUP5 ADD MSTORE PUSH1 0x44 DUP4 ADD DUP6 SWAP1 MSTORE PUSH1 0x64 DUP4 ADD DUP5 SWAP1 MSTORE PUSH1 0xA0 PUSH1 0x84 DUP5 ADD MSTORE PUSH1 0xA4 DUP4 ADD MSTORE PUSH4 0x3078303 PUSH1 0xE4 SHL PUSH1 0xC4 DUP4 ADD MSTORE DUP7 AND SWAP1 PUSH4 0xF242432A SWAP1 PUSH1 0xE4 ADD PUSH0 PUSH1 0x40 MLOAD DUP1 DUP4 SUB DUP2 PUSH0 DUP8 DUP1 EXTCODESIZE ISZERO DUP1 ISZERO PUSH2 0x217F JUMPI PUSH0 DUP1 REVERT JUMPDEST POP GAS CALL ISZERO DUP1 ISZERO PUSH2 0x2191 JUMPI RETURNDATASIZE PUSH0 DUP1 RETURNDATACOPY RETURNDATASIZE PUSH0 REVERT JUMPDEST POP POP POP POP POP POP POP POP POP JUMP JUMPDEST ADDRESS PUSH1 0x1 PUSH1 0x1 PUSH1 0xA0 SHL SUB PUSH32 0x0 AND EQ DUP1 PUSH2 0x2222 JUMPI POP PUSH32 0x0 PUSH1 0x1 PUSH1 0x1 PUSH1 0xA0 SHL SUB AND PUSH2 0x2216 PUSH0 DUP1 MLOAD PUSH1 0x20 PUSH2 0x2D8F DUP4 CODECOPY DUP2 MLOAD SWAP2 MSTORE SLOAD PUSH1 0x1 PUSH1 0x1 PUSH1 0xA0 SHL SUB AND SWAP1 JUMP JUMPDEST PUSH1 0x1 PUSH1 0x1 PUSH1 0xA0 SHL SUB AND EQ ISZERO JUMPDEST ISZERO PUSH2 0xEA8 JUMPI PUSH1 0x40 MLOAD PUSH4 0x703E46DD PUSH1 0xE1 SHL DUP2 MSTORE PUSH1 0x4 ADD PUSH1 0x40 MLOAD DUP1 SWAP2 SUB SWAP1 REVERT JUMPDEST PUSH2 0x19E5 PUSH2 0x19E8 JUMP JUMPDEST DUP2 PUSH1 0x1 PUSH1 0x1 PUSH1 0xA0 SHL SUB AND PUSH4 0x52D1902D PUSH1 0x40 MLOAD DUP2 PUSH4 0xFFFFFFFF AND PUSH1 0xE0 SHL DUP2 MSTORE PUSH1 0x4 ADD PUSH1 0x20 PUSH1 0x40 MLOAD DUP1 DUP4 SUB DUP2 DUP7 GAS STATICCALL SWAP3 POP POP POP DUP1 ISZERO PUSH2 0x22A2 JUMPI POP PUSH1 0x40 DUP1 MLOAD PUSH1 0x1F RETURNDATASIZE SWAP1 DUP2 ADD PUSH1 0x1F NOT AND DUP3 ADD SWAP1 SWAP3 MSTORE PUSH2 0x229F SWAP2 DUP2 ADD SWAP1 PUSH2 0x2D61 JUMP JUMPDEST PUSH1 0x1 JUMPDEST PUSH2 0x22CA JUMPI PUSH1 0x40 MLOAD PUSH4 0x4C9C8CE3 PUSH1 0xE0 SHL DUP2 MSTORE PUSH1 0x1 PUSH1 0x1 PUSH1 0xA0 SHL SUB DUP4 AND PUSH1 0x4 DUP3 ADD MSTORE PUSH1 0x24 ADD PUSH2 0x673 JUMP JUMPDEST PUSH0 DUP1 MLOAD PUSH1 0x20 PUSH2 0x2D8F DUP4 CODECOPY DUP2 MLOAD SWAP2 MSTORE DUP2 EQ PUSH2 0x22FA JUMPI PUSH1 0x40 MLOAD PUSH4 0x2A875269 PUSH1 0xE2 SHL DUP2 MSTORE PUSH1 0x4 DUP2 ADD DUP3 SWAP1 MSTORE PUSH1 0x24 ADD PUSH2 0x673 JUMP JUMPDEST PUSH2 0x2107 DUP4 DUP4 PUSH2 0x2557 JUMP JUMPDEST ADDRESS PUSH1 0x1 PUSH1 0x1 PUSH1 0xA0 SHL SUB PUSH32 0x0 AND EQ PUSH2 0xEA8 JUMPI PUSH1 0x40 MLOAD PUSH4 0x703E46DD PUSH1 0xE1 SHL DUP2 MSTORE PUSH1 0x4 ADD PUSH1 0x40 MLOAD DUP1 SWAP2 SUB SWAP1 REVERT JUMPDEST PUSH32 0x9016D09D72D40FDAE2FD8CEAC6B6234C7706214FD39C1CD1E609A0528C199300 DUP1 SLOAD PUSH1 0x1 PUSH1 0x1 PUSH1 0xA0 SHL SUB NOT DUP2 AND PUSH1 0x1 PUSH1 0x1 PUSH1 0xA0 SHL SUB DUP5 DUP2 AND SWAP2 DUP3 OR DUP5 SSTORE PUSH1 0x40 MLOAD SWAP3 AND SWAP2 DUP3 SWAP1 PUSH32 0x8BE0079C531659141344CD1FD0A4F28419497F9722A3DAAFE3B4186F6B6457E0 SWAP1 PUSH0 SWAP1 LOG3 POP POP POP JUMP JUMPDEST PUSH0 DUP3 DUP2 MSTORE PUSH1 0x4 PUSH1 0x20 MSTORE PUSH1 0x40 SWAP1 KECCAK256 PUSH1 0x7 ADD DUP1 SLOAD PUSH1 0x1 PUSH1 0x1 PUSH1 0xA0 SHL SUB NOT AND PUSH1 0x1 PUSH1 0x1 PUSH1 0xA0 SHL SUB DUP4 AND OR SWAP1 SSTORE PUSH2 0x23F3 DUP2 CALLER ADDRESS DUP8 DUP8 PUSH2 0x210C JUMP JUMPDEST POP POP POP POP JUMP JUMPDEST PUSH0 JUMPDEST DUP3 MLOAD DUP2 LT ISZERO PUSH2 0x23F3 JUMPI PUSH0 PUSH1 0x1 PUSH1 0x1 PUSH1 0xA0 SHL SUB AND DUP4 DUP3 DUP2 MLOAD DUP2 LT PUSH2 0x2420 JUMPI PUSH2 0x2420 PUSH2 0x2CF3 JUMP JUMPDEST PUSH1 0x20 MUL PUSH1 0x20 ADD ADD MLOAD PUSH1 0x1 PUSH1 0x1 PUSH1 0xA0 SHL SUB AND EQ PUSH2 0x24FE JUMPI DUP3 DUP2 DUP2 MLOAD DUP2 LT PUSH2 0x2448 JUMPI PUSH2 0x2448 PUSH2 0x2CF3 JUMP JUMPDEST PUSH1 0x20 MUL PUSH1 0x20 ADD ADD MLOAD PUSH1 0x5 PUSH0 DUP7 DUP2 MSTORE PUSH1 0x20 ADD SWAP1 DUP2 MSTORE PUSH1 0x20 ADD PUSH0 KECCAK256 PUSH1 0x1 ADD DUP3 PUSH1 0xA DUP2 LT PUSH2 0x2475 JUMPI PUSH2 0x2475 PUSH2 0x2CF3 JUMP JUMPDEST ADD PUSH0 PUSH2 0x100 EXP DUP2 SLOAD DUP2 PUSH1 0x1 PUSH1 0x1 PUSH1 0xA0 SHL SUB MUL NOT AND SWAP1 DUP4 PUSH1 0x1 PUSH1 0x1 PUSH1 0xA0 SHL SUB AND MUL OR SWAP1 SSTORE POP DUP2 DUP2 DUP2 MLOAD DUP2 LT PUSH2 0x24AB JUMPI PUSH2 0x24AB PUSH2 0x2CF3 JUMP JUMPDEST PUSH1 0x20 MUL PUSH1 0x20 ADD ADD MLOAD PUSH1 0x5 PUSH0 DUP7 DUP2 MSTORE PUSH1 0x20 ADD SWAP1 DUP2 MSTORE PUSH1 0x20 ADD PUSH0 KECCAK256 PUSH1 0xB ADD DUP3 PUSH1 0xA DUP2 LT PUSH2 0x24D8 JUMPI PUSH2 0x24D8 PUSH2 0x2CF3 JUMP JUMPDEST ADD SSTORE PUSH0 DUP5 DUP2 MSTORE PUSH1 0x5 PUSH1 0x20 MSTORE PUSH1 0x40 DUP2 KECCAK256 DUP1 SLOAD PUSH1 0x1 SWAP3 SWAP1 PUSH2 0x24F8 SWAP1 DUP5 SWAP1 PUSH2 0x2CB5 JUMP JUMPDEST SWAP1 SWAP2 SSTORE POP POP JUMPDEST PUSH1 0x1 ADD PUSH2 0x23FB JUMP JUMPDEST PUSH32 0xF0C57E16840DF040F15088DC2F81FE391C3923BEC73E23A9662EFC9C229C6A00 SLOAD PUSH1 0x1 PUSH1 0x40 SHL SWAP1 DIV PUSH1 0xFF AND PUSH2 0xEA8 JUMPI PUSH1 0x40 MLOAD PUSH4 0x1AFCD79F PUSH1 0xE3 SHL DUP2 MSTORE PUSH1 0x4 ADD PUSH1 0x40 MLOAD DUP1 SWAP2 SUB SWAP1 REVERT JUMPDEST PUSH2 0x19B3 PUSH2 0x2506 JUMP JUMPDEST PUSH2 0x2560 DUP3 PUSH2 0x25AC JUMP JUMPDEST PUSH1 0x40 MLOAD PUSH1 0x1 PUSH1 0x1 PUSH1 0xA0 SHL SUB DUP4 AND SWAP1 PUSH32 0xBC7CD75A20EE27FD9ADEBAB32041F755214DBC6BFFA90CC0225B39DA2E5C2D3B SWAP1 PUSH0 SWAP1 LOG2 DUP1 MLOAD ISZERO PUSH2 0x25A4 JUMPI PUSH2 0x2107 DUP3 DUP3 PUSH2 0x260F JUMP JUMPDEST PUSH2 0xE78 PUSH2 0x2681 JUMP JUMPDEST DUP1 PUSH1 0x1 PUSH1 0x1 PUSH1 0xA0 SHL SUB AND EXTCODESIZE PUSH0 SUB PUSH2 0x25E1 JUMPI PUSH1 0x40 MLOAD PUSH4 0x4C9C8CE3 PUSH1 0xE0 SHL DUP2 MSTORE PUSH1 0x1 PUSH1 0x1 PUSH1 0xA0 SHL SUB DUP3 AND PUSH1 0x4 DUP3 ADD MSTORE PUSH1 0x24 ADD PUSH2 0x673 JUMP JUMPDEST PUSH0 DUP1 MLOAD PUSH1 0x20 PUSH2 0x2D8F DUP4 CODECOPY DUP2 MLOAD SWAP2 MSTORE DUP1 SLOAD PUSH1 0x1 PUSH1 0x1 PUSH1 0xA0 SHL SUB NOT AND PUSH1 0x1 PUSH1 0x1 PUSH1 0xA0 SHL SUB SWAP3 SWAP1 SWAP3 AND SWAP2 SWAP1 SWAP2 OR SWAP1 SSTORE JUMP JUMPDEST PUSH1 0x60 PUSH0 DUP1 DUP5 PUSH1 0x1 PUSH1 0x1 PUSH1 0xA0 SHL SUB AND DUP5 PUSH1 0x40 MLOAD PUSH2 0x262B SWAP2 SWAP1 PUSH2 0x2D78 JUMP JUMPDEST PUSH0 PUSH1 0x40 MLOAD DUP1 DUP4 SUB DUP2 DUP6 GAS DELEGATECALL SWAP2 POP POP RETURNDATASIZE DUP1 PUSH0 DUP2 EQ PUSH2 0x2663 JUMPI PUSH1 0x40 MLOAD SWAP2 POP PUSH1 0x1F NOT PUSH1 0x3F RETURNDATASIZE ADD AND DUP3 ADD PUSH1 0x40 MSTORE RETURNDATASIZE DUP3 MSTORE RETURNDATASIZE PUSH0 PUSH1 0x20 DUP5 ADD RETURNDATACOPY PUSH2 0x2668 JUMP JUMPDEST PUSH1 0x60 SWAP2 POP JUMPDEST POP SWAP2 POP SWAP2 POP PUSH2 0x2678 DUP6 DUP4 DUP4 PUSH2 0x26A0 JUMP JUMPDEST SWAP6 SWAP5 POP POP POP POP POP JUMP JUMPDEST CALLVALUE ISZERO PUSH2 0xEA8 JUMPI PUSH1 0x40 MLOAD PUSH4 0xB398979F PUSH1 0xE0 SHL DUP2 MSTORE PUSH1 0x4 ADD PUSH1 0x40 MLOAD DUP1 SWAP2 SUB SWAP1 REVERT JUMPDEST PUSH1 0x60 DUP3 PUSH2 0x26B5 JUMPI PUSH2 0x26B0 DUP3 PUSH2 0x26FC JUMP JUMPDEST PUSH2 0x1F9A JUMP JUMPDEST DUP2 MLOAD ISZERO DUP1 ISZERO PUSH2 0x26CC JUMPI POP PUSH1 0x1 PUSH1 0x1 PUSH1 0xA0 SHL SUB DUP5 AND EXTCODESIZE ISZERO JUMPDEST ISZERO PUSH2 0x26F5 JUMPI PUSH1 0x40 MLOAD PUSH4 0x9996B315 PUSH1 0xE0 SHL DUP2 MSTORE PUSH1 0x1 PUSH1 0x1 PUSH1 0xA0 SHL SUB DUP6 AND PUSH1 0x4 DUP3 ADD MSTORE PUSH1 0x24 ADD PUSH2 0x673 JUMP JUMPDEST POP DUP1 PUSH2 0x1F9A JUMP JUMPDEST DUP1 MLOAD ISZERO PUSH2 0x270C JUMPI DUP1 MLOAD DUP1 DUP3 PUSH1 0x20 ADD REVERT JUMPDEST PUSH1 0x40 MLOAD PUSH4 0xA12F521 PUSH1 0xE1 SHL DUP2 MSTORE PUSH1 0x4 ADD PUSH1 0x40 MLOAD DUP1 SWAP2 SUB SWAP1 REVERT JUMPDEST PUSH0 PUSH1 0x20 DUP3 DUP5 SUB SLT ISZERO PUSH2 0x2735 JUMPI PUSH0 DUP1 REVERT JUMPDEST DUP2 CALLDATALOAD PUSH1 0x1 PUSH1 0x1 PUSH1 0xE0 SHL SUB NOT DUP2 AND DUP2 EQ PUSH2 0x1F9A JUMPI PUSH0 DUP1 REVERT JUMPDEST PUSH0 PUSH1 0x20 DUP3 DUP5 SUB SLT ISZERO PUSH2 0x275C JUMPI PUSH0 DUP1 REVERT JUMPDEST POP CALLDATALOAD SWAP2 SWAP1 POP JUMP JUMPDEST PUSH0 DUP1 PUSH0 DUP1 PUSH0 PUSH1 0xA0 DUP7 DUP9 SUB SLT ISZERO PUSH2 0x2777 JUMPI PUSH0 DUP1 REVERT JUMPDEST POP POP DUP4 CALLDATALOAD SWAP6 PUSH1 0x20 DUP6 ADD CALLDATALOAD SWAP6 POP PUSH1 0x40 DUP6 ADD CALLDATALOAD SWAP5 PUSH1 0x60 DUP2 ADD CALLDATALOAD SWAP5 POP PUSH1 0x80 ADD CALLDATALOAD SWAP3 POP SWAP1 POP JUMP JUMPDEST PUSH1 0x1 PUSH1 0x1 PUSH1 0xA0 SHL SUB DUP2 AND DUP2 EQ PUSH2 0x19E5 JUMPI PUSH0 DUP1 REVERT JUMPDEST PUSH0 DUP1 PUSH1 0x40 DUP4 DUP6 SUB SLT ISZERO PUSH2 0x27BF JUMPI PUSH0 DUP1 REVERT JUMPDEST DUP3 CALLDATALOAD PUSH2 0x27CA DUP2 PUSH2 0x279A JUMP JUMPDEST SWAP2 POP PUSH1 0x20 DUP4 ADD CALLDATALOAD PUSH2 0x27DA DUP2 PUSH2 0x279A JUMP JUMPDEST DUP1 SWAP2 POP POP SWAP3 POP SWAP3 SWAP1 POP JUMP JUMPDEST PUSH4 0x4E487B71 PUSH1 0xE0 SHL PUSH0 MSTORE PUSH1 0x41 PUSH1 0x4 MSTORE PUSH1 0x24 PUSH0 REVERT JUMPDEST PUSH1 0x40 MLOAD PUSH1 0x1F DUP3 ADD PUSH1 0x1F NOT AND DUP2 ADD PUSH8 0xFFFFFFFFFFFFFFFF DUP2 GT DUP3 DUP3 LT OR ISZERO PUSH2 0x2822 JUMPI PUSH2 0x2822 PUSH2 0x27E5 JUMP JUMPDEST PUSH1 0x40 MSTORE SWAP2 SWAP1 POP JUMP JUMPDEST PUSH0 DUP3 PUSH1 0x1F DUP4 ADD SLT PUSH2 0x2839 JUMPI PUSH0 DUP1 REVERT JUMPDEST DUP2 CALLDATALOAD PUSH8 0xFFFFFFFFFFFFFFFF DUP2 GT ISZERO PUSH2 0x2853 JUMPI PUSH2 0x2853 PUSH2 0x27E5 JUMP JUMPDEST PUSH2 0x2866 PUSH1 0x1F DUP3 ADD PUSH1 0x1F NOT AND PUSH1 0x20 ADD PUSH2 0x27F9 JUMP JUMPDEST DUP2 DUP2 MSTORE DUP5 PUSH1 0x20 DUP4 DUP7 ADD ADD GT ISZERO PUSH2 0x287A JUMPI PUSH0 DUP1 REVERT JUMPDEST DUP2 PUSH1 0x20 DUP6 ADD PUSH1 0x20 DUP4 ADD CALLDATACOPY PUSH0 SWAP2 DUP2 ADD PUSH1 0x20 ADD SWAP2 SWAP1 SWAP2 MSTORE SWAP4 SWAP3 POP POP POP JUMP JUMPDEST PUSH0 DUP1 PUSH1 0x40 DUP4 DUP6 SUB SLT ISZERO PUSH2 0x28A7 JUMPI PUSH0 DUP1 REVERT JUMPDEST DUP3 CALLDATALOAD PUSH2 0x28B2 DUP2 PUSH2 0x279A JUMP JUMPDEST SWAP2 POP PUSH1 0x20 DUP4 ADD CALLDATALOAD PUSH8 0xFFFFFFFFFFFFFFFF DUP2 GT ISZERO PUSH2 0x28CD JUMPI PUSH0 DUP1 REVERT JUMPDEST PUSH2 0x28D9 DUP6 DUP3 DUP7 ADD PUSH2 0x282A JUMP JUMPDEST SWAP2 POP POP SWAP3 POP SWAP3 SWAP1 POP JUMP JUMPDEST PUSH0 PUSH1 0x20 DUP3 DUP5 SUB SLT ISZERO PUSH2 0x28F3 JUMPI PUSH0 DUP1 REVERT JUMPDEST DUP2 CALLDATALOAD PUSH2 0x1F9A DUP2 PUSH2 0x279A JUMP JUMPDEST PUSH1 0x20 DUP2 MSTORE PUSH0 DUP3 MLOAD DUP1 PUSH1 0x20 DUP5 ADD MSTORE DUP1 PUSH1 0x20 DUP6 ADD PUSH1 0x40 DUP6 ADD MCOPY PUSH0 PUSH1 0x40 DUP3 DUP6 ADD ADD MSTORE PUSH1 0x40 PUSH1 0x1F NOT PUSH1 0x1F DUP4 ADD AND DUP5 ADD ADD SWAP2 POP POP SWAP3 SWAP2 POP POP JUMP JUMPDEST PUSH0 PUSH8 0xFFFFFFFFFFFFFFFF DUP3 GT ISZERO PUSH2 0x294C JUMPI PUSH2 0x294C PUSH2 0x27E5 JUMP JUMPDEST POP PUSH1 0x5 SHL PUSH1 0x20 ADD SWAP1 JUMP JUMPDEST PUSH0 DUP3 PUSH1 0x1F DUP4 ADD SLT PUSH2 0x2965 JUMPI PUSH0 DUP1 REVERT JUMPDEST DUP2 CALLDATALOAD PUSH2 0x2978 PUSH2 0x2973 DUP3 PUSH2 0x2933 JUMP JUMPDEST PUSH2 0x27F9 JUMP JUMPDEST DUP1 DUP3 DUP3 MSTORE PUSH1 0x20 DUP3 ADD SWAP2 POP PUSH1 0x20 DUP4 PUSH1 0x5 SHL DUP7 ADD ADD SWAP3 POP DUP6 DUP4 GT ISZERO PUSH2 0x2999 JUMPI PUSH0 DUP1 REVERT JUMPDEST PUSH1 0x20 DUP6 ADD JUMPDEST DUP4 DUP2 LT ISZERO PUSH2 0x29B6 JUMPI DUP1 CALLDATALOAD DUP4 MSTORE PUSH1 0x20 SWAP3 DUP4 ADD SWAP3 ADD PUSH2 0x299E JUMP JUMPDEST POP SWAP6 SWAP5 POP POP POP POP POP JUMP JUMPDEST PUSH0 DUP1 PUSH0 DUP1 PUSH0 PUSH1 0xA0 DUP7 DUP9 SUB SLT ISZERO PUSH2 0x29D4 JUMPI PUSH0 DUP1 REVERT JUMPDEST DUP6 CALLDATALOAD PUSH2 0x29DF DUP2 PUSH2 0x279A JUMP JUMPDEST SWAP5 POP PUSH1 0x20 DUP7 ADD CALLDATALOAD PUSH2 0x29EF DUP2 PUSH2 0x279A JUMP JUMPDEST SWAP4 POP PUSH1 0x40 DUP7 ADD CALLDATALOAD PUSH8 0xFFFFFFFFFFFFFFFF DUP2 GT ISZERO PUSH2 0x2A0A JUMPI PUSH0 DUP1 REVERT JUMPDEST PUSH2 0x2A16 DUP9 DUP3 DUP10 ADD PUSH2 0x2956 JUMP JUMPDEST SWAP4 POP POP PUSH1 0x60 DUP7 ADD CALLDATALOAD PUSH8 0xFFFFFFFFFFFFFFFF DUP2 GT ISZERO PUSH2 0x2A32 JUMPI PUSH0 DUP1 REVERT JUMPDEST PUSH2 0x2A3E DUP9 DUP3 DUP10 ADD PUSH2 0x2956 JUMP JUMPDEST SWAP3 POP POP PUSH1 0x80 DUP7 ADD CALLDATALOAD PUSH8 0xFFFFFFFFFFFFFFFF DUP2 GT ISZERO PUSH2 0x2A5A JUMPI PUSH0 DUP1 REVERT JUMPDEST PUSH2 0x2A66 DUP9 DUP3 DUP10 ADD PUSH2 0x282A JUMP JUMPDEST SWAP2 POP POP SWAP3 SWAP6 POP SWAP3 SWAP6 SWAP1 SWAP4 POP JUMP JUMPDEST PUSH0 DUP1 PUSH0 DUP1 PUSH0 DUP1 PUSH0 DUP1 PUSH2 0x100 DUP10 DUP12 SUB SLT ISZERO PUSH2 0x2A8B JUMPI PUSH0 DUP1 REVERT JUMPDEST DUP9 CALLDATALOAD SWAP8 POP PUSH1 0x20 DUP10 ADD CALLDATALOAD SWAP7 POP PUSH1 0x40 DUP10 ADD CALLDATALOAD SWAP6 POP PUSH1 0x60 DUP10 ADD CALLDATALOAD SWAP5 POP PUSH1 0x80 DUP10 ADD CALLDATALOAD SWAP4 POP PUSH1 0xA0 DUP10 ADD CALLDATALOAD PUSH2 0x2AB9 DUP2 PUSH2 0x279A JUMP JUMPDEST SWAP3 POP PUSH1 0xC0 DUP10 ADD CALLDATALOAD SWAP2 POP PUSH1 0xE0 DUP10 ADD CALLDATALOAD PUSH2 0x2AD0 DUP2 PUSH2 0x279A JUMP JUMPDEST DUP1 SWAP2 POP POP SWAP3 SWAP6 SWAP9 POP SWAP3 SWAP6 SWAP9 SWAP1 SWAP4 SWAP7 POP JUMP JUMPDEST PUSH0 DUP3 PUSH1 0x1F DUP4 ADD SLT PUSH2 0x2AF0 JUMPI PUSH0 DUP1 REVERT JUMPDEST DUP2 CALLDATALOAD PUSH2 0x2AFE PUSH2 0x2973 DUP3 PUSH2 0x2933 JUMP JUMPDEST DUP1 DUP3 DUP3 MSTORE PUSH1 0x20 DUP3 ADD SWAP2 POP PUSH1 0x20 DUP4 PUSH1 0x5 SHL DUP7 ADD ADD SWAP3 POP DUP6 DUP4 GT ISZERO PUSH2 0x2B1F JUMPI PUSH0 DUP1 REVERT JUMPDEST PUSH1 0x20 DUP6 ADD JUMPDEST DUP4 DUP2 LT ISZERO PUSH2 0x29B6 JUMPI DUP1 CALLDATALOAD PUSH2 0x2B37 DUP2 PUSH2 0x279A JUMP JUMPDEST DUP4 MSTORE PUSH1 0x20 SWAP3 DUP4 ADD SWAP3 ADD PUSH2 0x2B24 JUMP JUMPDEST PUSH0 DUP1 PUSH0 DUP1 PUSH0 DUP1 PUSH0 DUP1 PUSH0 PUSH2 0x120 DUP11 DUP13 SUB SLT ISZERO PUSH2 0x2B5E JUMPI PUSH0 DUP1 REVERT JUMPDEST DUP10 CALLDATALOAD SWAP9 POP PUSH1 0x20 DUP11 ADD CALLDATALOAD SWAP8 POP PUSH1 0x40 DUP11 ADD CALLDATALOAD SWAP7 POP PUSH1 0x60 DUP11 ADD CALLDATALOAD SWAP6 POP PUSH1 0x80 DUP11 ADD CALLDATALOAD SWAP5 POP PUSH1 0xA0 DUP11 ADD CALLDATALOAD SWAP4 POP PUSH1 0xC0 DUP11 ADD CALLDATALOAD PUSH2 0x2B93 DUP2 PUSH2 0x279A JUMP JUMPDEST SWAP3 POP PUSH1 0xE0 DUP11 ADD CALLDATALOAD PUSH8 0xFFFFFFFFFFFFFFFF DUP2 GT ISZERO PUSH2 0x2BAE JUMPI PUSH0 DUP1 REVERT JUMPDEST PUSH2 0x2BBA DUP13 DUP3 DUP14 ADD PUSH2 0x2AE1 JUMP JUMPDEST SWAP3 POP POP PUSH2 0x100 DUP11 ADD CALLDATALOAD PUSH8 0xFFFFFFFFFFFFFFFF DUP2 GT ISZERO PUSH2 0x2BD7 JUMPI PUSH0 DUP1 REVERT JUMPDEST PUSH2 0x2BE3 DUP13 DUP3 DUP14 ADD PUSH2 0x2956 JUMP JUMPDEST SWAP2 POP POP SWAP3 SWAP6 SWAP9 POP SWAP3 SWAP6 SWAP9 POP SWAP3 SWAP6 SWAP9 JUMP JUMPDEST PUSH0 DUP1 PUSH0 DUP1 PUSH0 PUSH1 0xA0 DUP7 DUP9 SUB SLT ISZERO PUSH2 0x2C07 JUMPI PUSH0 DUP1 REVERT JUMPDEST DUP6 CALLDATALOAD PUSH2 0x2C12 DUP2 PUSH2 0x279A JUMP JUMPDEST SWAP5 POP PUSH1 0x20 DUP7 ADD CALLDATALOAD PUSH2 0x2C22 DUP2 PUSH2 0x279A JUMP JUMPDEST SWAP4 POP PUSH1 0x40 DUP7 ADD CALLDATALOAD SWAP3 POP PUSH1 0x60 DUP7 ADD CALLDATALOAD SWAP2 POP PUSH1 0x80 DUP7 ADD CALLDATALOAD PUSH8 0xFFFFFFFFFFFFFFFF DUP2 GT ISZERO PUSH2 0x2A5A JUMPI PUSH0 DUP1 REVERT JUMPDEST PUSH0 DUP1 PUSH0 DUP1 PUSH1 0x80 DUP6 DUP8 SUB SLT ISZERO PUSH2 0x2C5E JUMPI PUSH0 DUP1 REVERT JUMPDEST DUP5 MLOAD DUP1 ISZERO ISZERO DUP2 EQ PUSH2 0x2C6D JUMPI PUSH0 DUP1 REVERT JUMPDEST PUSH1 0x20 DUP7 ADD MLOAD PUSH1 0x40 DUP8 ADD MLOAD SWAP2 SWAP6 POP SWAP4 POP PUSH2 0x2C85 DUP2 PUSH2 0x279A JUMP JUMPDEST PUSH1 0x60 DUP7 ADD MLOAD SWAP1 SWAP3 POP PUSH2 0x2C96 DUP2 PUSH2 0x279A JUMP JUMPDEST SWAP4 SWAP7 SWAP3 SWAP6 POP SWAP1 SWAP4 POP POP JUMP JUMPDEST PUSH4 0x4E487B71 PUSH1 0xE0 SHL PUSH0 MSTORE PUSH1 0x11 PUSH1 0x4 MSTORE PUSH1 0x24 PUSH0 REVERT JUMPDEST DUP1 DUP3 ADD DUP1 DUP3 GT ISZERO PUSH2 0x5F9 JUMPI PUSH2 0x5F9 PUSH2 0x2CA1 JUMP JUMPDEST DUP2 DUP2 SUB DUP2 DUP2 GT ISZERO PUSH2 0x5F9 JUMPI PUSH2 0x5F9 PUSH2 0x2CA1 JUMP JUMPDEST PUSH0 PUSH1 0x1 DUP3 ADD PUSH2 0x2CEC JUMPI PUSH2 0x2CEC PUSH2 0x2CA1 JUMP JUMPDEST POP PUSH1 0x1 ADD SWAP1 JUMP JUMPDEST PUSH4 0x4E487B71 PUSH1 0xE0 SHL PUSH0 MSTORE PUSH1 0x32 PUSH1 0x4 MSTORE PUSH1 0x24 PUSH0 REVERT JUMPDEST DUP1 DUP3 MUL DUP2 ISZERO DUP3 DUP3 DIV DUP5 EQ OR PUSH2 0x5F9 JUMPI PUSH2 0x5F9 PUSH2 0x2CA1 JUMP JUMPDEST PUSH0 DUP3 PUSH2 0x2D38 JUMPI PUSH4 0x4E487B71 PUSH1 0xE0 SHL PUSH0 MSTORE PUSH1 0x12 PUSH1 0x4 MSTORE PUSH1 0x24 PUSH0 REVERT JUMPDEST POP DIV SWAP1 JUMP JUMPDEST PUSH0 DUP1 PUSH1 0x40 DUP4 DUP6 SUB SLT ISZERO PUSH2 0x2D4E JUMPI PUSH0 DUP1 REVERT JUMPDEST DUP3 MLOAD PUSH1 0x20 DUP5 ADD MLOAD SWAP1 SWAP3 POP PUSH2 0x27DA DUP2 PUSH2 0x279A JUMP JUMPDEST PUSH0 PUSH1 0x20 DUP3 DUP5 SUB SLT ISZERO PUSH2 0x2D71 JUMPI PUSH0 DUP1 REVERT JUMPDEST POP MLOAD SWAP2 SWAP1 POP JUMP JUMPDEST PUSH0 DUP3 MLOAD DUP1 PUSH1 0x20 DUP6 ADD DUP5 MCOPY PUSH0 SWAP3 ADD SWAP2 DUP3 MSTORE POP SWAP2 SWAP1 POP JUMP INVALID CALLDATASIZE ADDMOD SWAP5 LOG1 EXTCODESIZE LOG1 LOG3 0x21 MOD PUSH8 0xC828492DB98DCA3E KECCAK256 PUSH23 0xCC3735A920A3CA505D382BBCA26469706673582212206F 0x2A 0x29 0xD SSTORE 0x28 OR 0xBA DUP2 SWAP13 CHAINID PUSH0 SLT SHR SLT DUP10 0xCF SHR PUSH0 JUMP PUSH15 0x73F8C5FEEE04A94C8830A764736F6C PUSH4 0x4300081A STOP CALLER "
		},
		"gasEstimates": {
			"creation": {
				"codeDepositCost": "2349600",
				"executionCost": "infinite",
				"totalCost": "infinite"
			},
			"external": {
				"BuyFixedPriceItem(uint256)": "infinite",
				"UPGRADE_INTERFACE_VERSION()": "infinite",
				"adminFeePercentage()": "2405",
				"cancellListingForlist(uint256)": "infinite",
				"defaultFiscalFee(address)": "2577",
				"donationInfo(uint256)": "2547",
				"editList(uint256,uint256,uint256,uint256,uint256)": "244412",
				"endAuction(uint256)": "infinite",
				"initialize(address,address)": "infinite",
				"listForOrganizations(uint256,uint256,uint256,uint256,uint256,address,uint256,address)": "infinite",
				"listForUsers(uint256,uint256,uint256,uint256,uint256,uint256,address,address[],uint256[])": "infinite",
				"listId()": "2361",
				"listing(uint256)": "21839",
				"mintingContract()": "2402",
				"mintingContractAddress()": "2425",
				"onERC1155BatchReceived(address,address,uint256[],uint256[],bytes)": "infinite",
				"onERC1155Received(address,address,uint256,uint256,bytes)": "infinite",
				"owner()": "2390",
				"proxiableUUID()": "infinite",
				"renounceOwnership()": "infinite",
				"setFiscalSponsorPercentage(uint256)": "23844",
				"setPlatFormServiceFeePercentage(uint256)": "26005",
				"startBid(uint256)": "infinite",
				"supportsInterface(bytes4)": "447",
				"transferOwnership(address)": "infinite",
				"upgradeToAndCall(address,bytes)": "infinite"
			},
			"internal": {
				"_authorizeUpgrade(address)": "infinite",
				"calulateFee(uint256,uint256)": "infinite",
				"donationFeeTransfer(uint256)": "infinite",
				"sendFiscalFee(uint256,address,uint256)": "infinite",
				"sendRoyalityFee(uint256)": "infinite",
				"setCancelList(uint256)": "infinite",
				"setDonationInfo(uint256,address[] memory,uint256[] memory)": "infinite",
				"setListingInfo(uint256,uint256,uint256,uint256,uint256,address,uint256)": "infinite",
				"setMintingAddress(uint256,uint256,uint256,address)": "infinite",
				"transferFundsInEth(address payable,uint256)": "infinite",
				"transferNft(address,address,address,uint256,uint256)": "infinite"
			}
		},
		"methodIdentifiers": {
			"BuyFixedPriceItem(uint256)": "4c205bc9",
			"UPGRADE_INTERFACE_VERSION()": "ad3cb1cc",
			"adminFeePercentage()": "831490f9",
			"cancellListingForlist(uint256)": "ee229f7e",
			"defaultFiscalFee(address)": "7cfd3e18",
			"donationInfo(uint256)": "3d6c0507",
			"editList(uint256,uint256,uint256,uint256,uint256)": "2c0bc695",
			"endAuction(uint256)": "b9a2de3a",
			"initialize(address,address)": "485cc955",
			"listForOrganizations(uint256,uint256,uint256,uint256,uint256,address,uint256,address)": "e30ec386",
			"listForUsers(uint256,uint256,uint256,uint256,uint256,uint256,address,address[],uint256[])": "eafa4039",
			"listId()": "9e898e58",
			"listing(uint256)": "84a184de",
			"mintingContract()": "d2f6f67d",
			"mintingContractAddress()": "824563f6",
			"onERC1155BatchReceived(address,address,uint256[],uint256[],bytes)": "bc197c81",
			"onERC1155Received(address,address,uint256,uint256,bytes)": "f23a6e61",
			"owner()": "8da5cb5b",
			"proxiableUUID()": "52d1902d",
			"renounceOwnership()": "715018a6",
			"setFiscalSponsorPercentage(uint256)": "03c32aa9",
			"setPlatFormServiceFeePercentage(uint256)": "20edda38",
			"startBid(uint256)": "bea7d6e9",
			"supportsInterface(bytes4)": "01ffc9a7",
			"transferOwnership(address)": "f2fde38b",
			"upgradeToAndCall(address,bytes)": "4f1ef286"
		}
	},
	"abi": [
		{
			"inputs": [],
			"stateMutability": "nonpayable",
			"type": "constructor"
		},
		{
			"inputs": [
				{
					"internalType": "address",
					"name": "target",
					"type": "address"
				}
			],
			"name": "AddressEmptyCode",
			"type": "error"
		},
		{
			"inputs": [
				{
					"internalType": "address",
					"name": "implementation",
					"type": "address"
				}
			],
			"name": "ERC1967InvalidImplementation",
			"type": "error"
		},
		{
			"inputs": [],
			"name": "ERC1967NonPayable",
			"type": "error"
		},
		{
			"inputs": [],
			"name": "FailedInnerCall",
			"type": "error"
		},
		{
			"inputs": [],
			"name": "InvalidInitialization",
			"type": "error"
		},
		{
			"inputs": [],
			"name": "NotInitializing",
			"type": "error"
		},
		{
			"inputs": [
				{
					"internalType": "address",
					"name": "owner",
					"type": "address"
				}
			],
			"name": "OwnableInvalidOwner",
			"type": "error"
		},
		{
			"inputs": [
				{
					"internalType": "address",
					"name": "account",
					"type": "address"
				}
			],
			"name": "OwnableUnauthorizedAccount",
			"type": "error"
		},
		{
			"inputs": [],
			"name": "UUPSUnauthorizedCallContext",
			"type": "error"
		},
		{
			"inputs": [
				{
					"internalType": "bytes32",
					"name": "slot",
					"type": "bytes32"
				}
			],
			"name": "UUPSUnsupportedProxiableUUID",
			"type": "error"
		},
		{
			"inputs": [
				{
					"internalType": "bool",
					"name": "claimed",
					"type": "bool"
				}
			],
			"name": "alreadyClaimed",
			"type": "error"
		},
		{
			"inputs": [
				{
					"internalType": "uint256",
					"name": "initialPrice",
					"type": "uint256"
				}
			],
			"name": "initialPriceZero",
			"type": "error"
		},
		{
			"inputs": [
				{
					"internalType": "uint256",
					"name": "fee",
					"type": "uint256"
				}
			],
			"name": "invalidFee",
			"type": "error"
		},
		{
			"inputs": [
				{
					"internalType": "uint256",
					"name": "startTime",
					"type": "uint256"
				},
				{
					"internalType": "uint256",
					"name": "endTime",
					"type": "uint256"
				}
			],
			"name": "invalidTimeStamp",
			"type": "error"
		},
		{
			"inputs": [
				{
					"internalType": "uint256",
					"name": "organizationLength",
					"type": "uint256"
				},
				{
					"internalType": "uint256",
					"name": "percentagesLength",
					"type": "uint256"
				}
			],
			"name": "lengthDontMatch",
			"type": "error"
		},
		{
			"inputs": [
				{
					"internalType": "bool",
					"name": "listed",
					"type": "bool"
				}
			],
			"name": "notListed",
			"type": "error"
		},
		{
			"inputs": [
				{
					"internalType": "bool",
					"name": "onAuction",
					"type": "bool"
				}
			],
			"name": "onAuction",
			"type": "error"
		},
		{
			"inputs": [
				{
					"internalType": "bool",
					"name": "onfixedPrice",
					"type": "bool"
				}
			],
			"name": "onFixedPrice",
			"type": "error"
		},
		{
			"inputs": [
				{
					"internalType": "address",
					"name": "owner",
					"type": "address"
				}
			],
			"name": "ownerCantBuy",
			"type": "error"
		},
		{
			"inputs": [
				{
					"internalType": "uint256",
					"name": "organizationLength",
					"type": "uint256"
				}
			],
			"name": "worngOrganizationlength",
			"type": "error"
		},
		{
			"inputs": [
				{
					"internalType": "address",
					"name": "contractAddres",
					"type": "address"
				}
			],
			"name": "wrongAddress",
			"type": "error"
		},
		{
			"inputs": [
				{
					"internalType": "uint256",
					"name": "listingid",
					"type": "uint256"
				}
			],
			"name": "wrongListingId",
			"type": "error"
		},
		{
			"inputs": [
				{
					"internalType": "uint256",
					"name": "noOfcopies",
					"type": "uint256"
				}
			],
			"name": "wrongNoOfCopies",
			"type": "error"
		},
		{
			"inputs": [
				{
					"internalType": "uint256",
					"name": "wrongId",
					"type": "uint256"
				}
			],
			"name": "wrongTokenId",
			"type": "error"
		},
		{
			"anonymous": false,
			"inputs": [
				{
					"indexed": false,
					"internalType": "address",
					"name": "_currentBidder",
					"type": "address"
				},
				{
					"indexed": false,
					"internalType": "uint256",
					"name": "_bidAmount",
					"type": "uint256"
				},
				{
					"indexed": false,
					"internalType": "uint256",
					"name": "_previousBidAmount",
					"type": "uint256"
				}
			],
			"name": "Bided",
			"type": "event"
		},
		{
			"anonymous": false,
			"inputs": [
				{
					"indexed": false,
					"internalType": "address",
					"name": "_listerAddress",
					"type": "address"
				},
				{
					"indexed": false,
					"internalType": "uint256",
					"name": "_listingID",
					"type": "uint256"
				},
				{
					"indexed": false,
					"internalType": "bool",
					"name": "_isListed",
					"type": "bool"
				}
			],
			"name": "CancelList",
			"type": "event"
		},
		{
			"anonymous": false,
			"inputs": [
				{
					"indexed": false,
					"internalType": "uint256",
					"name": "_initialPrice",
					"type": "uint256"
				},
				{
					"indexed": false,
					"internalType": "uint256",
					"name": "_listStartTime",
					"type": "uint256"
				},
				{
					"indexed": false,
					"internalType": "uint256",
					"name": "_listEndTime",
					"type": "uint256"
				}
			],
			"name": "Edited",
			"type": "event"
		},
		{
			"anonymous": false,
			"inputs": [
				{
					"indexed": false,
					"internalType": "uint256",
					"name": "fiscalFee",
					"type": "uint256"
				},
				{
					"indexed": false,
					"internalType": "uint256",
					"name": "royaltyFee",
					"type": "uint256"
				},
				{
					"indexed": true,
					"internalType": "uint256",
					"name": "serviceFee",
					"type": "uint256"
				},
				{
					"indexed": true,
					"internalType": "uint256",
					"name": "donationFee",
					"type": "uint256"
				},
				{
					"indexed": true,
					"internalType": "uint256",
					"name": "amountSendToSeller",
					"type": "uint256"
				}
			],
			"name": "FeeInfo",
			"type": "event"
		},
		{
			"anonymous": false,
			"inputs": [
				{
					"indexed": false,
					"internalType": "uint64",
					"name": "version",
					"type": "uint64"
				}
			],
			"name": "Initialized",
			"type": "event"
		},
		{
			"anonymous": false,
			"inputs": [
				{
					"indexed": false,
					"internalType": "uint256",
					"name": "_listId",
					"type": "uint256"
				},
				{
					"indexed": false,
					"internalType": "uint256",
					"name": "_tokenId",
					"type": "uint256"
				},
				{
					"indexed": false,
					"internalType": "uint256",
					"name": "_noOfCopies",
					"type": "uint256"
				},
				{
					"indexed": false,
					"internalType": "uint256",
					"name": "_initialPrices",
					"type": "uint256"
				}
			],
			"name": "Listed",
			"type": "event"
		},
		{
			"anonymous": false,
			"inputs": [
				{
					"indexed": true,
					"internalType": "address",
					"name": "previousOwner",
					"type": "address"
				},
				{
					"indexed": true,
					"internalType": "address",
					"name": "newOwner",
					"type": "address"
				}
			],
			"name": "OwnershipTransferred",
			"type": "event"
		},
		{
			"anonymous": false,
			"inputs": [
				{
					"indexed": false,
					"internalType": "address",
					"name": "fiscalAddress",
					"type": "address"
				},
				{
					"indexed": false,
					"internalType": "uint256",
					"name": "feePercentage",
					"type": "uint256"
				}
			],
			"name": "SetFiscalFee",
			"type": "event"
		},
		{
			"anonymous": false,
			"inputs": [
				{
					"indexed": false,
					"internalType": "address",
					"name": "_from",
					"type": "address"
				},
				{
					"indexed": true,
					"internalType": "uint256",
					"name": "_tokenId",
					"type": "uint256"
				},
				{
					"indexed": true,
					"internalType": "address",
					"name": "_nftAddress",
					"type": "address"
				},
				{
					"indexed": false,
					"internalType": "address",
					"name": "_to",
					"type": "address"
				},
				{
					"indexed": false,
					"internalType": "uint256",
					"name": "_noOfCopirs",
					"type": "uint256"
				}
			],
			"name": "SoldNft",
			"type": "event"
		},
		{
			"anonymous": false,
			"inputs": [
				{
					"indexed": true,
					"internalType": "address",
					"name": "implementation",
					"type": "address"
				}
			],
			"name": "Upgraded",
			"type": "event"
		},
		{
			"anonymous": false,
			"inputs": [
				{
					"indexed": false,
					"internalType": "uint256",
					"name": "_serviceFeePercentage",
					"type": "uint256"
				},
				{
					"indexed": false,
					"internalType": "address",
					"name": "_owner",
					"type": "address"
				}
			],
			"name": "plateFarmFeePercentage",
			"type": "event"
		},
		{
			"inputs": [
				{
					"internalType": "uint256",
					"name": "_listId",
					"type": "uint256"
				}
			],
			"name": "BuyFixedPriceItem",
			"outputs": [],
			"stateMutability": "payable",
			"type": "function"
		},
		{
			"inputs": [],
			"name": "UPGRADE_INTERFACE_VERSION",
			"outputs": [
				{
					"internalType": "string",
					"name": "",
					"type": "string"
				}
			],
			"stateMutability": "view",
			"type": "function"
		},
		{
			"inputs": [],
			"name": "adminFeePercentage",
			"outputs": [
				{
					"internalType": "uint256",
					"name": "",
					"type": "uint256"
				}
			],
			"stateMutability": "view",
			"type": "function"
		},
		{
			"inputs": [
				{
					"internalType": "uint256",
					"name": "_listingID",
					"type": "uint256"
				}
			],
			"name": "cancellListingForlist",
			"outputs": [],
			"stateMutability": "nonpayable",
			"type": "function"
		},
		{
			"inputs": [
				{
					"internalType": "address",
					"name": "",
					"type": "address"
				}
			],
			"name": "defaultFiscalFee",
			"outputs": [
				{
					"internalType": "uint256",
					"name": "",
					"type": "uint256"
				}
			],
			"stateMutability": "view",
			"type": "function"
		},
		{
			"inputs": [
				{
					"internalType": "uint256",
					"name": "",
					"type": "uint256"
				}
			],
			"name": "donationInfo",
			"outputs": [
				{
					"internalType": "uint256",
					"name": "noOfOrgazisations",
					"type": "uint256"
				}
			],
			"stateMutability": "view",
			"type": "function"
		},
		{
			"inputs": [
				{
					"internalType": "uint256",
					"name": "_listId",
					"type": "uint256"
				},
				{
					"internalType": "uint256",
					"name": "_initialPrice",
					"type": "uint256"
				},
				{
					"internalType": "uint256",
					"name": "_listStartTime",
					"type": "uint256"
				},
				{
					"internalType": "uint256",
					"name": "_listEndTime",
					"type": "uint256"
				},
				{
					"internalType": "uint256",
					"name": "_serviceFee",
					"type": "uint256"
				}
			],
			"name": "editList",
			"outputs": [],
			"stateMutability": "nonpayable",
			"type": "function"
		},
		{
			"inputs": [
				{
					"internalType": "uint256",
					"name": "_listId",
					"type": "uint256"
				}
			],
			"name": "endAuction",
			"outputs": [],
			"stateMutability": "nonpayable",
			"type": "function"
		},
		{
			"inputs": [
				{
					"internalType": "address",
					"name": "_mintingContract",
					"type": "address"
				},
				{
					"internalType": "address",
					"name": "_ownerAddress",
					"type": "address"
				}
			],
			"name": "initialize",
			"outputs": [],
			"stateMutability": "nonpayable",
			"type": "function"
		},
		{
			"inputs": [
				{
					"internalType": "uint256",
					"name": "_initialPrice",
					"type": "uint256"
				},
				{
					"internalType": "uint256",
					"name": "_listStartTime",
					"type": "uint256"
				},
				{
					"internalType": "uint256",
					"name": "_listEndTime",
					"type": "uint256"
				},
				{
					"internalType": "uint256",
					"name": "_tokenId",
					"type": "uint256"
				},
				{
					"internalType": "uint256",
					"name": "_noOfCopies",
					"type": "uint256"
				},
				{
					"internalType": "address",
					"name": "_nftAddress",
					"type": "address"
				},
				{
					"internalType": "uint256",
					"name": "_serviceFee",
					"type": "uint256"
				},
				{
					"internalType": "address",
					"name": "_fiscalSponsor",
					"type": "address"
				}
			],
			"name": "listForOrganizations",
			"outputs": [],
			"stateMutability": "nonpayable",
			"type": "function"
		},
		{
			"inputs": [
				{
					"internalType": "uint256",
					"name": "_initialPrice",
					"type": "uint256"
				},
				{
					"internalType": "uint256",
					"name": "_listStartTime",
					"type": "uint256"
				},
				{
					"internalType": "uint256",
					"name": "_listEndTime",
					"type": "uint256"
				},
				{
					"internalType": "uint256",
					"name": "_tokenId",
					"type": "uint256"
				},
				{
					"internalType": "uint256",
					"name": "_noOfCopies",
					"type": "uint256"
				},
				{
					"internalType": "uint256",
					"name": "_serviceFee",
					"type": "uint256"
				},
				{
					"internalType": "address",
					"name": "_nftAddress",
					"type": "address"
				},
				{
					"internalType": "address[]",
					"name": "_organizations",
					"type": "address[]"
				},
				{
					"internalType": "uint256[]",
					"name": "_donatePercentages",
					"type": "uint256[]"
				}
			],
			"name": "listForUsers",
			"outputs": [],
			"stateMutability": "nonpayable",
			"type": "function"
		},
		{
			"inputs": [],
			"name": "listId",
			"outputs": [
				{
					"internalType": "uint256",
					"name": "",
					"type": "uint256"
				}
			],
			"stateMutability": "view",
			"type": "function"
		},
		{
			"inputs": [
				{
					"internalType": "uint256",
					"name": "",
					"type": "uint256"
				}
			],
			"name": "listing",
			"outputs": [
				{
					"internalType": "bool",
					"name": "listed",
					"type": "bool"
				},
				{
					"internalType": "bool",
					"name": "nftClaimed",
					"type": "bool"
				},
				{
					"internalType": "bool",
					"name": "fixedPrice",
					"type": "bool"
				},
				{
					"internalType": "uint256",
					"name": "serviceFeePercentage",
					"type": "uint256"
				},
				{
					"internalType": "uint256",
					"name": "price",
					"type": "uint256"
				},
				{
					"internalType": "uint256",
					"name": "tokenId",
					"type": "uint256"
				},
				{
					"internalType": "uint256",
					"name": "noOfCopies",
					"type": "uint256"
				},
				{
					"internalType": "address",
					"name": "nftOwner",
					"type": "address"
				},
				{
					"internalType": "address",
					"name": "newOwner",
					"type": "address"
				},
				{
					"internalType": "address",
					"name": "nftAddress",
					"type": "address"
				},
				{
					"internalType": "uint256",
					"name": "listingEndTime",
					"type": "uint256"
				},
				{
					"internalType": "uint256",
					"name": "listingStartTime",
					"type": "uint256"
				}
			],
			"stateMutability": "view",
			"type": "function"
		},
		{
			"inputs": [],
			"name": "mintingContract",
			"outputs": [
				{
					"internalType": "contract MintingContract",
					"name": "",
					"type": "address"
				}
			],
			"stateMutability": "view",
			"type": "function"
		},
		{
			"inputs": [],
			"name": "mintingContractAddress",
			"outputs": [
				{
					"internalType": "address",
					"name": "",
					"type": "address"
				}
			],
			"stateMutability": "view",
			"type": "function"
		},
		{
			"inputs": [
				{
					"internalType": "address",
					"name": "",
					"type": "address"
				},
				{
					"internalType": "address",
					"name": "",
					"type": "address"
				},
				{
					"internalType": "uint256[]",
					"name": "",
					"type": "uint256[]"
				},
				{
					"internalType": "uint256[]",
					"name": "",
					"type": "uint256[]"
				},
				{
					"internalType": "bytes",
					"name": "",
					"type": "bytes"
				}
			],
			"name": "onERC1155BatchReceived",
			"outputs": [
				{
					"internalType": "bytes4",
					"name": "",
					"type": "bytes4"
				}
			],
			"stateMutability": "nonpayable",
			"type": "function"
		},
		{
			"inputs": [
				{
					"internalType": "address",
					"name": "",
					"type": "address"
				},
				{
					"internalType": "address",
					"name": "",
					"type": "address"
				},
				{
					"internalType": "uint256",
					"name": "",
					"type": "uint256"
				},
				{
					"internalType": "uint256",
					"name": "",
					"type": "uint256"
				},
				{
					"internalType": "bytes",
					"name": "",
					"type": "bytes"
				}
			],
			"name": "onERC1155Received",
			"outputs": [
				{
					"internalType": "bytes4",
					"name": "",
					"type": "bytes4"
				}
			],
			"stateMutability": "nonpayable",
			"type": "function"
		},
		{
			"inputs": [],
			"name": "owner",
			"outputs": [
				{
					"internalType": "address",
					"name": "",
					"type": "address"
				}
			],
			"stateMutability": "view",
			"type": "function"
		},
		{
			"inputs": [],
			"name": "proxiableUUID",
			"outputs": [
				{
					"internalType": "bytes32",
					"name": "",
					"type": "bytes32"
				}
			],
			"stateMutability": "view",
			"type": "function"
		},
		{
			"inputs": [],
			"name": "renounceOwnership",
			"outputs": [],
			"stateMutability": "nonpayable",
			"type": "function"
		},
		{
			"inputs": [
				{
					"internalType": "uint256",
					"name": "_fiscalSponsorPercentage",
					"type": "uint256"
				}
			],
			"name": "setFiscalSponsorPercentage",
			"outputs": [],
			"stateMutability": "nonpayable",
			"type": "function"
		},
		{
			"inputs": [
				{
					"internalType": "uint256",
					"name": "_serviceFeePercentage",
					"type": "uint256"
				}
			],
			"name": "setPlatFormServiceFeePercentage",
			"outputs": [],
			"stateMutability": "nonpayable",
			"type": "function"
		},
		{
			"inputs": [
				{
					"internalType": "uint256",
					"name": "_listId",
					"type": "uint256"
				}
			],
			"name": "startBid",
			"outputs": [],
			"stateMutability": "payable",
			"type": "function"
		},
		{
			"inputs": [
				{
					"internalType": "bytes4",
					"name": "interfaceId",
					"type": "bytes4"
				}
			],
			"name": "supportsInterface",
			"outputs": [
				{
					"internalType": "bool",
					"name": "",
					"type": "bool"
				}
			],
			"stateMutability": "view",
			"type": "function"
		},
		{
			"inputs": [
				{
					"internalType": "address",
					"name": "newOwner",
					"type": "address"
				}
			],
			"name": "transferOwnership",
			"outputs": [],
			"stateMutability": "nonpayable",
			"type": "function"
		},
		{
			"inputs": [
				{
					"internalType": "address",
					"name": "newImplementation",
					"type": "address"
				},
				{
					"internalType": "bytes",
					"name": "data",
					"type": "bytes"
				}
			],
			"name": "upgradeToAndCall",
			"outputs": [],
			"stateMutability": "payable",
			"type": "function"
		}
	]
}