{
	"data": {
		"bytecode": {
			"linkReferences": {},
			"object": "608060405234801561000f575f80fd5b5060405161100838038061100883398101604081905261002e91610237565b5f805460ff19169055338061005d57604051631e4fbdf760e01b81525f60048201526024015b60405180910390fd5b610066816100a5565b50600180556004805462093a806006556001600160a81b0319166001600160a01b038316179055610096826100fd565b61009e61013a565b5050610268565b5f80546001600160a01b03838116610100818102610100600160a81b0319851617855560405193049190911692909183917f8be0079c531659141344cd1fd0a4f28419497f9722a3daafe3b4186f6b6457e091a35050565b61010561014c565b6001600160a01b03811661012e57604051631e4fbdf760e01b81525f6004820152602401610054565b610137816100a5565b50565b61014261014c565b61014a61017e565b565b5f546001600160a01b0361010090910416331461014a5760405163118cdaa760e01b8152336004820152602401610054565b6101866101d7565b5f805460ff191660011790557f62e78cea01bee320cd4e420270b5ea74000d11b0c9f74754ebdbfc544b05a2586101ba3390565b6040516001600160a01b03909116815260200160405180910390a1565b5f5460ff161561014a5760405162461bcd60e51b815260206004820152601060248201526f14185d5cd8589b194e881c185d5cd95960821b6044820152606401610054565b80516001600160a01b0381168114610232575f80fd5b919050565b5f8060408385031215610248575f80fd5b6102518361021c565b915061025f6020840161021c565b90509250929050565b610d93806102755f395ff3fe608060405234801561000f575f80fd5b506004361061013d575f3560e01c80637cb64759116100b4578063b6cd5d1a11610079578063b6cd5d1a1461025a578063c27f7e2614610262578063c884ef831461026a578063de805da71461028c578063f2fde38b14610294578063fc0c546a146102a7575f80fd5b80637cb64759146102035780637cc6cb7a146102165780638456cb591461022a5780638da5cb5b14610232578063a0074c6714610247575f80fd5b8063490395271161010557806349039527146101965780635c975abb1461019f5780635e4f3a9c146101b55780636038efad146101bd57806361d027b3146101d0578063715018a6146101fb575f80fd5b8063144fa6d7146101415780632eb4a7ab146101565780632f52ebb7146101725780633f4ba83a14610185578063428e75651461018d575b5f80fd5b61015461014f366004610bde565b6102ba565b005b61015f60025481565b6040519081526020015b60405180910390f35b610154610180366004610c3f565b61033f565b6101546106bf565b61015f60055481565b61015f60065481565b5f5460ff165b6040519015158152602001610169565b6101546106d1565b6101546101cb366004610c87565b6106ec565b6004546101e3906001600160a01b031681565b6040516001600160a01b039091168152602001610169565b6101546106f9565b610154610211366004610c87565b61070a565b6004546101a590600160a01b900460ff1681565b610154610717565b5f5461010090046001600160a01b03166101e3565b6101a5610255366004610c9e565b610727565b6101546107b3565b6101a56107d4565b6101a5610278366004610bde565b60076020525f908152604090205460ff1681565b610154610811565b6101546102a2366004610bde565b610901565b6003546101e3906001600160a01b031681565b6102c261093e565b6001600160a01b03811661031d5760405162461bcd60e51b815260206004820152601760248201527f546f6b656e2073686f756c646e2774206265207a65726f00000000000000000060448201526064015b60405180910390fd5b600380546001600160a01b0319166001600160a01b0392909216919091179055565b610347610970565b61034f6109b5565b600454600160a01b900460ff1680156103845750600554421015801561038457506006546005546103809190610cf4565b4211155b6103d05760405162461bcd60e51b815260206004820152601960248201527f4974206973206e6f20706572696f6420746f20636c61696d21000000000000006044820152606401610314565b335f9081526007602052604090205460ff16156104215760405162461bcd60e51b815260206004820152600f60248201526e105b1c9958591e4818db185a5b5959608a1b6044820152606401610314565b6040516bffffffffffffffffffffffff193360601b166020820152603481018490525f906054016040516020818303038152906040528051906020012090506104a08383808060200260200160405190810160405280939291908181526020018383602002808284375f92019190915250506002549150849050610a0e565b6104dc5760405162461bcd60e51b815260206004820152600d60248201526c24b73b30b634b210383937b7b360991b6044820152606401610314565b6003546001600160a01b03166105345760405162461bcd60e51b815260206004820181905260248201527f546f6b656e20616464726573732073686f756c646e2774206265207a65726f216044820152606401610314565b6003546040516370a0823160e01b815230600482015285916001600160a01b0316906370a0823190602401602060405180830381865afa15801561057a573d5f803e3d5ffd5b505050506040513d601f19601f8201168201806040525081019061059e9190610d13565b116105e35760405162461bcd60e51b8152602060048201526015602482015274496e73756666696369656e742042616c616e63652160581b6044820152606401610314565b831561065d5760035460405163a9059cbb60e01b8152336004820152602481018690526001600160a01b039091169063a9059cbb906044016020604051808303815f875af1158015610637573d5f803e3d5ffd5b505050506040513d601f19601f8201168201806040525081019061065b9190610d2a565b505b335f8181526007602052604090819020805460ff19166001179055517fd8138f8a3f377c5259ca548e70e4c2de94f129f5a11036a15b69513cba2b426a906106a89087815260200190565b60405180910390a2506106ba60018055565b505050565b6106c761093e565b6106cf610a23565b565b6106d961093e565b6004805460ff60a01b191690555f600555565b6106f461093e565b600655565b61070161093e565b6106cf5f610a74565b61071261093e565b600255565b61071f61093e565b6106cf610acc565b6040516bffffffffffffffffffffffff19606086901b166020820152603481018490525f9081906054016040516020818303038152906040528051906020012090506107a98484808060200260200160405190810160405280939291908181526020018383602002808284375f92019190915250506002549150849050610a0e565b9695505050505050565b6107bb61093e565b6004805460ff60a01b1916600160a01b17905542600555565b6004545f90600160a01b900460ff1680156107fe5750426006546005546107fb9190610cf4565b10155b801561080c57506005544210155b905090565b61081961093e565b6003546040516370a0823160e01b81523060048201526001600160a01b03909116905f9082906370a0823190602401602060405180830381865afa158015610863573d5f803e3d5ffd5b505050506040513d601f19601f820116820180604052508101906108879190610d13565b6004805460405163a9059cbb60e01b81526001600160a01b0391821692810192909252602482018390529192509083169063a9059cbb906044016020604051808303815f875af11580156108dd573d5f803e3d5ffd5b505050506040513d601f19601f820116820180604052508101906106ba9190610d2a565b61090961093e565b6001600160a01b03811661093257604051631e4fbdf760e01b81525f6004820152602401610314565b61093b81610a74565b50565b5f546001600160a01b036101009091041633146106cf5760405163118cdaa760e01b8152336004820152602401610314565b5f5460ff16156106cf5760405162461bcd60e51b815260206004820152601060248201526f14185d5cd8589b194e881c185d5cd95960821b6044820152606401610314565b600260015403610a075760405162461bcd60e51b815260206004820152601f60248201527f5265656e7472616e637947756172643a207265656e7472616e742063616c6c006044820152606401610314565b6002600155565b5f82610a1a8584610b08565b14949350505050565b610a2b610b4c565b5f805460ff191690557f5db9ee0a495bf2e6ff9c91a7834c1ba4fdd244a5e8aa4e537bd38aeae4b073aa335b6040516001600160a01b03909116815260200160405180910390a1565b5f80546001600160a01b03838116610100818102610100600160a81b0319851617855560405193049190911692909183917f8be0079c531659141344cd1fd0a4f28419497f9722a3daafe3b4186f6b6457e091a35050565b610ad4610970565b5f805460ff191660011790557f62e78cea01bee320cd4e420270b5ea74000d11b0c9f74754ebdbfc544b05a258610a573390565b5f81815b8451811015610b4257610b3882868381518110610b2b57610b2b610d49565b6020026020010151610b94565b9150600101610b0c565b5090505b92915050565b5f5460ff166106cf5760405162461bcd60e51b815260206004820152601460248201527314185d5cd8589b194e881b9bdd081c185d5cd95960621b6044820152606401610314565b5f818310610bae575f828152602084905260409020610bbc565b5f8381526020839052604090205b9392505050565b80356001600160a01b0381168114610bd9575f80fd5b919050565b5f60208284031215610bee575f80fd5b610bbc82610bc3565b5f8083601f840112610c07575f80fd5b50813567ffffffffffffffff811115610c1e575f80fd5b6020830191508360208260051b8501011115610c38575f80fd5b9250929050565b5f805f60408486031215610c51575f80fd5b83359250602084013567ffffffffffffffff811115610c6e575f80fd5b610c7a86828701610bf7565b9497909650939450505050565b5f60208284031215610c97575f80fd5b5035919050565b5f805f8060608587031215610cb1575f80fd5b610cba85610bc3565b935060208501359250604085013567ffffffffffffffff811115610cdc575f80fd5b610ce887828801610bf7565b95989497509550505050565b80820180821115610b4657634e487b7160e01b5f52601160045260245ffd5b5f60208284031215610d23575f80fd5b5051919050565b5f60208284031215610d3a575f80fd5b81518015158114610bbc575f80fd5b634e487b7160e01b5f52603260045260245ffdfea2646970667358221220b24f23ab3eeb44dd50a9499034daaff673fe0a3fc42196c3c5307a18f603014864736f6c634300081a0033",
			"opcodes": "PUSH1 0x80 PUSH1 0x40 MSTORE CALLVALUE DUP1 ISZERO PUSH2 0xF JUMPI PUSH0 DUP1 REVERT JUMPDEST POP PUSH1 0x40 MLOAD PUSH2 0x1008 CODESIZE SUB DUP1 PUSH2 0x1008 DUP4 CODECOPY DUP2 ADD PUSH1 0x40 DUP2 SWAP1 MSTORE PUSH2 0x2E SWAP2 PUSH2 0x237 JUMP JUMPDEST PUSH0 DUP1 SLOAD PUSH1 0xFF NOT AND SWAP1 SSTORE CALLER DUP1 PUSH2 0x5D JUMPI PUSH1 0x40 MLOAD PUSH4 0x1E4FBDF7 PUSH1 0xE0 SHL DUP2 MSTORE PUSH0 PUSH1 0x4 DUP3 ADD MSTORE PUSH1 0x24 ADD JUMPDEST PUSH1 0x40 MLOAD DUP1 SWAP2 SUB SWAP1 REVERT JUMPDEST PUSH2 0x66 DUP2 PUSH2 0xA5 JUMP JUMPDEST POP PUSH1 0x1 DUP1 SSTORE PUSH1 0x4 DUP1 SLOAD PUSH3 0x93A80 PUSH1 0x6 SSTORE PUSH1 0x1 PUSH1 0x1 PUSH1 0xA8 SHL SUB NOT AND PUSH1 0x1 PUSH1 0x1 PUSH1 0xA0 SHL SUB DUP4 AND OR SWAP1 SSTORE PUSH2 0x96 DUP3 PUSH2 0xFD JUMP JUMPDEST PUSH2 0x9E PUSH2 0x13A JUMP JUMPDEST POP POP PUSH2 0x268 JUMP JUMPDEST PUSH0 DUP1 SLOAD PUSH1 0x1 PUSH1 0x1 PUSH1 0xA0 SHL SUB DUP4 DUP2 AND PUSH2 0x100 DUP2 DUP2 MUL PUSH2 0x100 PUSH1 0x1 PUSH1 0xA8 SHL SUB NOT DUP6 AND OR DUP6 SSTORE PUSH1 0x40 MLOAD SWAP4 DIV SWAP2 SWAP1 SWAP2 AND SWAP3 SWAP1 SWAP2 DUP4 SWAP2 PUSH32 0x8BE0079C531659141344CD1FD0A4F28419497F9722A3DAAFE3B4186F6B6457E0 SWAP2 LOG3 POP POP JUMP JUMPDEST PUSH2 0x105 PUSH2 0x14C JUMP JUMPDEST PUSH1 0x1 PUSH1 0x1 PUSH1 0xA0 SHL SUB DUP2 AND PUSH2 0x12E JUMPI PUSH1 0x40 MLOAD PUSH4 0x1E4FBDF7 PUSH1 0xE0 SHL DUP2 MSTORE PUSH0 PUSH1 0x4 DUP3 ADD MSTORE PUSH1 0x24 ADD PUSH2 0x54 JUMP JUMPDEST PUSH2 0x137 DUP2 PUSH2 0xA5 JUMP JUMPDEST POP JUMP JUMPDEST PUSH2 0x142 PUSH2 0x14C JUMP JUMPDEST PUSH2 0x14A PUSH2 0x17E JUMP JUMPDEST JUMP JUMPDEST PUSH0 SLOAD PUSH1 0x1 PUSH1 0x1 PUSH1 0xA0 SHL SUB PUSH2 0x100 SWAP1 SWAP2 DIV AND CALLER EQ PUSH2 0x14A JUMPI PUSH1 0x40 MLOAD PUSH4 0x118CDAA7 PUSH1 0xE0 SHL DUP2 MSTORE CALLER PUSH1 0x4 DUP3 ADD MSTORE PUSH1 0x24 ADD PUSH2 0x54 JUMP JUMPDEST PUSH2 0x186 PUSH2 0x1D7 JUMP JUMPDEST PUSH0 DUP1 SLOAD PUSH1 0xFF NOT AND PUSH1 0x1 OR SWAP1 SSTORE PUSH32 0x62E78CEA01BEE320CD4E420270B5EA74000D11B0C9F74754EBDBFC544B05A258 PUSH2 0x1BA CALLER SWAP1 JUMP JUMPDEST PUSH1 0x40 MLOAD PUSH1 0x1 PUSH1 0x1 PUSH1 0xA0 SHL SUB SWAP1 SWAP2 AND DUP2 MSTORE PUSH1 0x20 ADD PUSH1 0x40 MLOAD DUP1 SWAP2 SUB SWAP1 LOG1 JUMP JUMPDEST PUSH0 SLOAD PUSH1 0xFF AND ISZERO PUSH2 0x14A JUMPI PUSH1 0x40 MLOAD PUSH3 0x461BCD PUSH1 0xE5 SHL DUP2 MSTORE PUSH1 0x20 PUSH1 0x4 DUP3 ADD MSTORE PUSH1 0x10 PUSH1 0x24 DUP3 ADD MSTORE PUSH16 0x14185D5CD8589B194E881C185D5CD959 PUSH1 0x82 SHL PUSH1 0x44 DUP3 ADD MSTORE PUSH1 0x64 ADD PUSH2 0x54 JUMP JUMPDEST DUP1 MLOAD PUSH1 0x1 PUSH1 0x1 PUSH1 0xA0 SHL SUB DUP2 AND DUP2 EQ PUSH2 0x232 JUMPI PUSH0 DUP1 REVERT JUMPDEST SWAP2 SWAP1 POP JUMP JUMPDEST PUSH0 DUP1 PUSH1 0x40 DUP4 DUP6 SUB SLT ISZERO PUSH2 0x248 JUMPI PUSH0 DUP1 REVERT JUMPDEST PUSH2 0x251 DUP4 PUSH2 0x21C JUMP JUMPDEST SWAP2 POP PUSH2 0x25F PUSH1 0x20 DUP5 ADD PUSH2 0x21C JUMP JUMPDEST SWAP1 POP SWAP3 POP SWAP3 SWAP1 POP JUMP JUMPDEST PUSH2 0xD93 DUP1 PUSH2 0x275 PUSH0 CODECOPY PUSH0 RETURN INVALID PUSH1 0x80 PUSH1 0x40 MSTORE CALLVALUE DUP1 ISZERO PUSH2 0xF JUMPI PUSH0 DUP1 REVERT JUMPDEST POP PUSH1 0x4 CALLDATASIZE LT PUSH2 0x13D JUMPI PUSH0 CALLDATALOAD PUSH1 0xE0 SHR DUP1 PUSH4 0x7CB64759 GT PUSH2 0xB4 JUMPI DUP1 PUSH4 0xB6CD5D1A GT PUSH2 0x79 JUMPI DUP1 PUSH4 0xB6CD5D1A EQ PUSH2 0x25A JUMPI DUP1 PUSH4 0xC27F7E26 EQ PUSH2 0x262 JUMPI DUP1 PUSH4 0xC884EF83 EQ PUSH2 0x26A JUMPI DUP1 PUSH4 0xDE805DA7 EQ PUSH2 0x28C JUMPI DUP1 PUSH4 0xF2FDE38B EQ PUSH2 0x294 JUMPI DUP1 PUSH4 0xFC0C546A EQ PUSH2 0x2A7 JUMPI PUSH0 DUP1 REVERT JUMPDEST DUP1 PUSH4 0x7CB64759 EQ PUSH2 0x203 JUMPI DUP1 PUSH4 0x7CC6CB7A EQ PUSH2 0x216 JUMPI DUP1 PUSH4 0x8456CB59 EQ PUSH2 0x22A JUMPI DUP1 PUSH4 0x8DA5CB5B EQ PUSH2 0x232 JUMPI DUP1 PUSH4 0xA0074C67 EQ PUSH2 0x247 JUMPI PUSH0 DUP1 REVERT JUMPDEST DUP1 PUSH4 0x49039527 GT PUSH2 0x105 JUMPI DUP1 PUSH4 0x49039527 EQ PUSH2 0x196 JUMPI DUP1 PUSH4 0x5C975ABB EQ PUSH2 0x19F JUMPI DUP1 PUSH4 0x5E4F3A9C EQ PUSH2 0x1B5 JUMPI DUP1 PUSH4 0x6038EFAD EQ PUSH2 0x1BD JUMPI DUP1 PUSH4 0x61D027B3 EQ PUSH2 0x1D0 JUMPI DUP1 PUSH4 0x715018A6 EQ PUSH2 0x1FB JUMPI PUSH0 DUP1 REVERT JUMPDEST DUP1 PUSH4 0x144FA6D7 EQ PUSH2 0x141 JUMPI DUP1 PUSH4 0x2EB4A7AB EQ PUSH2 0x156 JUMPI DUP1 PUSH4 0x2F52EBB7 EQ PUSH2 0x172 JUMPI DUP1 PUSH4 0x3F4BA83A EQ PUSH2 0x185 JUMPI DUP1 PUSH4 0x428E7565 EQ PUSH2 0x18D JUMPI JUMPDEST PUSH0 DUP1 REVERT JUMPDEST PUSH2 0x154 PUSH2 0x14F CALLDATASIZE PUSH1 0x4 PUSH2 0xBDE JUMP JUMPDEST PUSH2 0x2BA JUMP JUMPDEST STOP JUMPDEST PUSH2 0x15F PUSH1 0x2 SLOAD DUP2 JUMP JUMPDEST PUSH1 0x40 MLOAD SWAP1 DUP2 MSTORE PUSH1 0x20 ADD JUMPDEST PUSH1 0x40 MLOAD DUP1 SWAP2 SUB SWAP1 RETURN JUMPDEST PUSH2 0x154 PUSH2 0x180 CALLDATASIZE PUSH1 0x4 PUSH2 0xC3F JUMP JUMPDEST PUSH2 0x33F JUMP JUMPDEST PUSH2 0x154 PUSH2 0x6BF JUMP JUMPDEST PUSH2 0x15F PUSH1 0x5 SLOAD DUP2 JUMP JUMPDEST PUSH2 0x15F PUSH1 0x6 SLOAD DUP2 JUMP JUMPDEST PUSH0 SLOAD PUSH1 0xFF AND JUMPDEST PUSH1 0x40 MLOAD SWAP1 ISZERO ISZERO DUP2 MSTORE PUSH1 0x20 ADD PUSH2 0x169 JUMP JUMPDEST PUSH2 0x154 PUSH2 0x6D1 JUMP JUMPDEST PUSH2 0x154 PUSH2 0x1CB CALLDATASIZE PUSH1 0x4 PUSH2 0xC87 JUMP JUMPDEST PUSH2 0x6EC JUMP JUMPDEST PUSH1 0x4 SLOAD PUSH2 0x1E3 SWAP1 PUSH1 0x1 PUSH1 0x1 PUSH1 0xA0 SHL SUB AND DUP2 JUMP JUMPDEST PUSH1 0x40 MLOAD PUSH1 0x1 PUSH1 0x1 PUSH1 0xA0 SHL SUB SWAP1 SWAP2 AND DUP2 MSTORE PUSH1 0x20 ADD PUSH2 0x169 JUMP JUMPDEST PUSH2 0x154 PUSH2 0x6F9 JUMP JUMPDEST PUSH2 0x154 PUSH2 0x211 CALLDATASIZE PUSH1 0x4 PUSH2 0xC87 JUMP JUMPDEST PUSH2 0x70A JUMP JUMPDEST PUSH1 0x4 SLOAD PUSH2 0x1A5 SWAP1 PUSH1 0x1 PUSH1 0xA0 SHL SWAP1 DIV PUSH1 0xFF AND DUP2 JUMP JUMPDEST PUSH2 0x154 PUSH2 0x717 JUMP JUMPDEST PUSH0 SLOAD PUSH2 0x100 SWAP1 DIV PUSH1 0x1 PUSH1 0x1 PUSH1 0xA0 SHL SUB AND PUSH2 0x1E3 JUMP JUMPDEST PUSH2 0x1A5 PUSH2 0x255 CALLDATASIZE PUSH1 0x4 PUSH2 0xC9E JUMP JUMPDEST PUSH2 0x727 JUMP JUMPDEST PUSH2 0x154 PUSH2 0x7B3 JUMP JUMPDEST PUSH2 0x1A5 PUSH2 0x7D4 JUMP JUMPDEST PUSH2 0x1A5 PUSH2 0x278 CALLDATASIZE PUSH1 0x4 PUSH2 0xBDE JUMP JUMPDEST PUSH1 0x7 PUSH1 0x20 MSTORE PUSH0 SWAP1 DUP2 MSTORE PUSH1 0x40 SWAP1 KECCAK256 SLOAD PUSH1 0xFF AND DUP2 JUMP JUMPDEST PUSH2 0x154 PUSH2 0x811 JUMP JUMPDEST PUSH2 0x154 PUSH2 0x2A2 CALLDATASIZE PUSH1 0x4 PUSH2 0xBDE JUMP JUMPDEST PUSH2 0x901 JUMP JUMPDEST PUSH1 0x3 SLOAD PUSH2 0x1E3 SWAP1 PUSH1 0x1 PUSH1 0x1 PUSH1 0xA0 SHL SUB AND DUP2 JUMP JUMPDEST PUSH2 0x2C2 PUSH2 0x93E JUMP JUMPDEST PUSH1 0x1 PUSH1 0x1 PUSH1 0xA0 SHL SUB DUP2 AND PUSH2 0x31D JUMPI PUSH1 0x40 MLOAD PUSH3 0x461BCD PUSH1 0xE5 SHL DUP2 MSTORE PUSH1 0x20 PUSH1 0x4 DUP3 ADD MSTORE PUSH1 0x17 PUSH1 0x24 DUP3 ADD MSTORE PUSH32 0x546F6B656E2073686F756C646E2774206265207A65726F000000000000000000 PUSH1 0x44 DUP3 ADD MSTORE PUSH1 0x64 ADD JUMPDEST PUSH1 0x40 MLOAD DUP1 SWAP2 SUB SWAP1 REVERT JUMPDEST PUSH1 0x3 DUP1 SLOAD PUSH1 0x1 PUSH1 0x1 PUSH1 0xA0 SHL SUB NOT AND PUSH1 0x1 PUSH1 0x1 PUSH1 0xA0 SHL SUB SWAP3 SWAP1 SWAP3 AND SWAP2 SWAP1 SWAP2 OR SWAP1 SSTORE JUMP JUMPDEST PUSH2 0x347 PUSH2 0x970 JUMP JUMPDEST PUSH2 0x34F PUSH2 0x9B5 JUMP JUMPDEST PUSH1 0x4 SLOAD PUSH1 0x1 PUSH1 0xA0 SHL SWAP1 DIV PUSH1 0xFF AND DUP1 ISZERO PUSH2 0x384 JUMPI POP PUSH1 0x5 SLOAD TIMESTAMP LT ISZERO DUP1 ISZERO PUSH2 0x384 JUMPI POP PUSH1 0x6 SLOAD PUSH1 0x5 SLOAD PUSH2 0x380 SWAP2 SWAP1 PUSH2 0xCF4 JUMP JUMPDEST TIMESTAMP GT ISZERO JUMPDEST PUSH2 0x3D0 JUMPI PUSH1 0x40 MLOAD PUSH3 0x461BCD PUSH1 0xE5 SHL DUP2 MSTORE PUSH1 0x20 PUSH1 0x4 DUP3 ADD MSTORE PUSH1 0x19 PUSH1 0x24 DUP3 ADD MSTORE PUSH32 0x4974206973206E6F20706572696F6420746F20636C61696D2100000000000000 PUSH1 0x44 DUP3 ADD MSTORE PUSH1 0x64 ADD PUSH2 0x314 JUMP JUMPDEST CALLER PUSH0 SWAP1 DUP2 MSTORE PUSH1 0x7 PUSH1 0x20 MSTORE PUSH1 0x40 SWAP1 KECCAK256 SLOAD PUSH1 0xFF AND ISZERO PUSH2 0x421 JUMPI PUSH1 0x40 MLOAD PUSH3 0x461BCD PUSH1 0xE5 SHL DUP2 MSTORE PUSH1 0x20 PUSH1 0x4 DUP3 ADD MSTORE PUSH1 0xF PUSH1 0x24 DUP3 ADD MSTORE PUSH15 0x105B1C9958591E4818DB185A5B5959 PUSH1 0x8A SHL PUSH1 0x44 DUP3 ADD MSTORE PUSH1 0x64 ADD PUSH2 0x314 JUMP JUMPDEST PUSH1 0x40 MLOAD PUSH12 0xFFFFFFFFFFFFFFFFFFFFFFFF NOT CALLER PUSH1 0x60 SHL AND PUSH1 0x20 DUP3 ADD MSTORE PUSH1 0x34 DUP2 ADD DUP5 SWAP1 MSTORE PUSH0 SWAP1 PUSH1 0x54 ADD PUSH1 0x40 MLOAD PUSH1 0x20 DUP2 DUP4 SUB SUB DUP2 MSTORE SWAP1 PUSH1 0x40 MSTORE DUP1 MLOAD SWAP1 PUSH1 0x20 ADD KECCAK256 SWAP1 POP PUSH2 0x4A0 DUP4 DUP4 DUP1 DUP1 PUSH1 0x20 MUL PUSH1 0x20 ADD PUSH1 0x40 MLOAD SWAP1 DUP2 ADD PUSH1 0x40 MSTORE DUP1 SWAP4 SWAP3 SWAP2 SWAP1 DUP2 DUP2 MSTORE PUSH1 0x20 ADD DUP4 DUP4 PUSH1 0x20 MUL DUP1 DUP3 DUP5 CALLDATACOPY PUSH0 SWAP3 ADD SWAP2 SWAP1 SWAP2 MSTORE POP POP PUSH1 0x2 SLOAD SWAP2 POP DUP5 SWAP1 POP PUSH2 0xA0E JUMP JUMPDEST PUSH2 0x4DC JUMPI PUSH1 0x40 MLOAD PUSH3 0x461BCD PUSH1 0xE5 SHL DUP2 MSTORE PUSH1 0x20 PUSH1 0x4 DUP3 ADD MSTORE PUSH1 0xD PUSH1 0x24 DUP3 ADD MSTORE PUSH13 0x24B73B30B634B210383937B7B3 PUSH1 0x99 SHL PUSH1 0x44 DUP3 ADD MSTORE PUSH1 0x64 ADD PUSH2 0x314 JUMP JUMPDEST PUSH1 0x3 SLOAD PUSH1 0x1 PUSH1 0x1 PUSH1 0xA0 SHL SUB AND PUSH2 0x534 JUMPI PUSH1 0x40 MLOAD PUSH3 0x461BCD PUSH1 0xE5 SHL DUP2 MSTORE PUSH1 0x20 PUSH1 0x4 DUP3 ADD DUP2 SWAP1 MSTORE PUSH1 0x24 DUP3 ADD MSTORE PUSH32 0x546F6B656E20616464726573732073686F756C646E2774206265207A65726F21 PUSH1 0x44 DUP3 ADD MSTORE PUSH1 0x64 ADD PUSH2 0x314 JUMP JUMPDEST PUSH1 0x3 SLOAD PUSH1 0x40 MLOAD PUSH4 0x70A08231 PUSH1 0xE0 SHL DUP2 MSTORE ADDRESS PUSH1 0x4 DUP3 ADD MSTORE DUP6 SWAP2 PUSH1 0x1 PUSH1 0x1 PUSH1 0xA0 SHL SUB AND SWAP1 PUSH4 0x70A08231 SWAP1 PUSH1 0x24 ADD PUSH1 0x20 PUSH1 0x40 MLOAD DUP1 DUP4 SUB DUP2 DUP7 GAS STATICCALL ISZERO DUP1 ISZERO PUSH2 0x57A JUMPI RETURNDATASIZE PUSH0 DUP1 RETURNDATACOPY RETURNDATASIZE PUSH0 REVERT JUMPDEST POP POP POP POP PUSH1 0x40 MLOAD RETURNDATASIZE PUSH1 0x1F NOT PUSH1 0x1F DUP3 ADD AND DUP3 ADD DUP1 PUSH1 0x40 MSTORE POP DUP2 ADD SWAP1 PUSH2 0x59E SWAP2 SWAP1 PUSH2 0xD13 JUMP JUMPDEST GT PUSH2 0x5E3 JUMPI PUSH1 0x40 MLOAD PUSH3 0x461BCD PUSH1 0xE5 SHL DUP2 MSTORE PUSH1 0x20 PUSH1 0x4 DUP3 ADD MSTORE PUSH1 0x15 PUSH1 0x24 DUP3 ADD MSTORE PUSH21 0x496E73756666696369656E742042616C616E636521 PUSH1 0x58 SHL PUSH1 0x44 DUP3 ADD MSTORE PUSH1 0x64 ADD PUSH2 0x314 JUMP JUMPDEST DUP4 ISZERO PUSH2 0x65D JUMPI PUSH1 0x3 SLOAD PUSH1 0x40 MLOAD PUSH4 0xA9059CBB PUSH1 0xE0 SHL DUP2 MSTORE CALLER PUSH1 0x4 DUP3 ADD MSTORE PUSH1 0x24 DUP2 ADD DUP7 SWAP1 MSTORE PUSH1 0x1 PUSH1 0x1 PUSH1 0xA0 SHL SUB SWAP1 SWAP2 AND SWAP1 PUSH4 0xA9059CBB SWAP1 PUSH1 0x44 ADD PUSH1 0x20 PUSH1 0x40 MLOAD DUP1 DUP4 SUB DUP2 PUSH0 DUP8 GAS CALL ISZERO DUP1 ISZERO PUSH2 0x637 JUMPI RETURNDATASIZE PUSH0 DUP1 RETURNDATACOPY RETURNDATASIZE PUSH0 REVERT JUMPDEST POP POP POP POP PUSH1 0x40 MLOAD RETURNDATASIZE PUSH1 0x1F NOT PUSH1 0x1F DUP3 ADD AND DUP3 ADD DUP1 PUSH1 0x40 MSTORE POP DUP2 ADD SWAP1 PUSH2 0x65B SWAP2 SWAP1 PUSH2 0xD2A JUMP JUMPDEST POP JUMPDEST CALLER PUSH0 DUP2 DUP2 MSTORE PUSH1 0x7 PUSH1 0x20 MSTORE PUSH1 0x40 SWAP1 DUP2 SWAP1 KECCAK256 DUP1 SLOAD PUSH1 0xFF NOT AND PUSH1 0x1 OR SWAP1 SSTORE MLOAD PUSH32 0xD8138F8A3F377C5259CA548E70E4C2DE94F129F5A11036A15B69513CBA2B426A SWAP1 PUSH2 0x6A8 SWAP1 DUP8 DUP2 MSTORE PUSH1 0x20 ADD SWAP1 JUMP JUMPDEST PUSH1 0x40 MLOAD DUP1 SWAP2 SUB SWAP1 LOG2 POP PUSH2 0x6BA PUSH1 0x1 DUP1 SSTORE JUMP JUMPDEST POP POP POP JUMP JUMPDEST PUSH2 0x6C7 PUSH2 0x93E JUMP JUMPDEST PUSH2 0x6CF PUSH2 0xA23 JUMP JUMPDEST JUMP JUMPDEST PUSH2 0x6D9 PUSH2 0x93E JUMP JUMPDEST PUSH1 0x4 DUP1 SLOAD PUSH1 0xFF PUSH1 0xA0 SHL NOT AND SWAP1 SSTORE PUSH0 PUSH1 0x5 SSTORE JUMP JUMPDEST PUSH2 0x6F4 PUSH2 0x93E JUMP JUMPDEST PUSH1 0x6 SSTORE JUMP JUMPDEST PUSH2 0x701 PUSH2 0x93E JUMP JUMPDEST PUSH2 0x6CF PUSH0 PUSH2 0xA74 JUMP JUMPDEST PUSH2 0x712 PUSH2 0x93E JUMP JUMPDEST PUSH1 0x2 SSTORE JUMP JUMPDEST PUSH2 0x71F PUSH2 0x93E JUMP JUMPDEST PUSH2 0x6CF PUSH2 0xACC JUMP JUMPDEST PUSH1 0x40 MLOAD PUSH12 0xFFFFFFFFFFFFFFFFFFFFFFFF NOT PUSH1 0x60 DUP7 SWAP1 SHL AND PUSH1 0x20 DUP3 ADD MSTORE PUSH1 0x34 DUP2 ADD DUP5 SWAP1 MSTORE PUSH0 SWAP1 DUP2 SWAP1 PUSH1 0x54 ADD PUSH1 0x40 MLOAD PUSH1 0x20 DUP2 DUP4 SUB SUB DUP2 MSTORE SWAP1 PUSH1 0x40 MSTORE DUP1 MLOAD SWAP1 PUSH1 0x20 ADD KECCAK256 SWAP1 POP PUSH2 0x7A9 DUP5 DUP5 DUP1 DUP1 PUSH1 0x20 MUL PUSH1 0x20 ADD PUSH1 0x40 MLOAD SWAP1 DUP2 ADD PUSH1 0x40 MSTORE DUP1 SWAP4 SWAP3 SWAP2 SWAP1 DUP2 DUP2 MSTORE PUSH1 0x20 ADD DUP4 DUP4 PUSH1 0x20 MUL DUP1 DUP3 DUP5 CALLDATACOPY PUSH0 SWAP3 ADD SWAP2 SWAP1 SWAP2 MSTORE POP POP PUSH1 0x2 SLOAD SWAP2 POP DUP5 SWAP1 POP PUSH2 0xA0E JUMP JUMPDEST SWAP7 SWAP6 POP POP POP POP POP POP JUMP JUMPDEST PUSH2 0x7BB PUSH2 0x93E JUMP JUMPDEST PUSH1 0x4 DUP1 SLOAD PUSH1 0xFF PUSH1 0xA0 SHL NOT AND PUSH1 0x1 PUSH1 0xA0 SHL OR SWAP1 SSTORE TIMESTAMP PUSH1 0x5 SSTORE JUMP JUMPDEST PUSH1 0x4 SLOAD PUSH0 SWAP1 PUSH1 0x1 PUSH1 0xA0 SHL SWAP1 DIV PUSH1 0xFF AND DUP1 ISZERO PUSH2 0x7FE JUMPI POP TIMESTAMP PUSH1 0x6 SLOAD PUSH1 0x5 SLOAD PUSH2 0x7FB SWAP2 SWAP1 PUSH2 0xCF4 JUMP JUMPDEST LT ISZERO JUMPDEST DUP1 ISZERO PUSH2 0x80C JUMPI POP PUSH1 0x5 SLOAD TIMESTAMP LT ISZERO JUMPDEST SWAP1 POP SWAP1 JUMP JUMPDEST PUSH2 0x819 PUSH2 0x93E JUMP JUMPDEST PUSH1 0x3 SLOAD PUSH1 0x40 MLOAD PUSH4 0x70A08231 PUSH1 0xE0 SHL DUP2 MSTORE ADDRESS PUSH1 0x4 DUP3 ADD MSTORE PUSH1 0x1 PUSH1 0x1 PUSH1 0xA0 SHL SUB SWAP1 SWAP2 AND SWAP1 PUSH0 SWAP1 DUP3 SWAP1 PUSH4 0x70A08231 SWAP1 PUSH1 0x24 ADD PUSH1 0x20 PUSH1 0x40 MLOAD DUP1 DUP4 SUB DUP2 DUP7 GAS STATICCALL ISZERO DUP1 ISZERO PUSH2 0x863 JUMPI RETURNDATASIZE PUSH0 DUP1 RETURNDATACOPY RETURNDATASIZE PUSH0 REVERT JUMPDEST POP POP POP POP PUSH1 0x40 MLOAD RETURNDATASIZE PUSH1 0x1F NOT PUSH1 0x1F DUP3 ADD AND DUP3 ADD DUP1 PUSH1 0x40 MSTORE POP DUP2 ADD SWAP1 PUSH2 0x887 SWAP2 SWAP1 PUSH2 0xD13 JUMP JUMPDEST PUSH1 0x4 DUP1 SLOAD PUSH1 0x40 MLOAD PUSH4 0xA9059CBB PUSH1 0xE0 SHL DUP2 MSTORE PUSH1 0x1 PUSH1 0x1 PUSH1 0xA0 SHL SUB SWAP2 DUP3 AND SWAP3 DUP2 ADD SWAP3 SWAP1 SWAP3 MSTORE PUSH1 0x24 DUP3 ADD DUP4 SWAP1 MSTORE SWAP2 SWAP3 POP SWAP1 DUP4 AND SWAP1 PUSH4 0xA9059CBB SWAP1 PUSH1 0x44 ADD PUSH1 0x20 PUSH1 0x40 MLOAD DUP1 DUP4 SUB DUP2 PUSH0 DUP8 GAS CALL ISZERO DUP1 ISZERO PUSH2 0x8DD JUMPI RETURNDATASIZE PUSH0 DUP1 RETURNDATACOPY RETURNDATASIZE PUSH0 REVERT JUMPDEST POP POP POP POP PUSH1 0x40 MLOAD RETURNDATASIZE PUSH1 0x1F NOT PUSH1 0x1F DUP3 ADD AND DUP3 ADD DUP1 PUSH1 0x40 MSTORE POP DUP2 ADD SWAP1 PUSH2 0x6BA SWAP2 SWAP1 PUSH2 0xD2A JUMP JUMPDEST PUSH2 0x909 PUSH2 0x93E JUMP JUMPDEST PUSH1 0x1 PUSH1 0x1 PUSH1 0xA0 SHL SUB DUP2 AND PUSH2 0x932 JUMPI PUSH1 0x40 MLOAD PUSH4 0x1E4FBDF7 PUSH1 0xE0 SHL DUP2 MSTORE PUSH0 PUSH1 0x4 DUP3 ADD MSTORE PUSH1 0x24 ADD PUSH2 0x314 JUMP JUMPDEST PUSH2 0x93B DUP2 PUSH2 0xA74 JUMP JUMPDEST POP JUMP JUMPDEST PUSH0 SLOAD PUSH1 0x1 PUSH1 0x1 PUSH1 0xA0 SHL SUB PUSH2 0x100 SWAP1 SWAP2 DIV AND CALLER EQ PUSH2 0x6CF JUMPI PUSH1 0x40 MLOAD PUSH4 0x118CDAA7 PUSH1 0xE0 SHL DUP2 MSTORE CALLER PUSH1 0x4 DUP3 ADD MSTORE PUSH1 0x24 ADD PUSH2 0x314 JUMP JUMPDEST PUSH0 SLOAD PUSH1 0xFF AND ISZERO PUSH2 0x6CF JUMPI PUSH1 0x40 MLOAD PUSH3 0x461BCD PUSH1 0xE5 SHL DUP2 MSTORE PUSH1 0x20 PUSH1 0x4 DUP3 ADD MSTORE PUSH1 0x10 PUSH1 0x24 DUP3 ADD MSTORE PUSH16 0x14185D5CD8589B194E881C185D5CD959 PUSH1 0x82 SHL PUSH1 0x44 DUP3 ADD MSTORE PUSH1 0x64 ADD PUSH2 0x314 JUMP JUMPDEST PUSH1 0x2 PUSH1 0x1 SLOAD SUB PUSH2 0xA07 JUMPI PUSH1 0x40 MLOAD PUSH3 0x461BCD PUSH1 0xE5 SHL DUP2 MSTORE PUSH1 0x20 PUSH1 0x4 DUP3 ADD MSTORE PUSH1 0x1F PUSH1 0x24 DUP3 ADD MSTORE PUSH32 0x5265656E7472616E637947756172643A207265656E7472616E742063616C6C00 PUSH1 0x44 DUP3 ADD MSTORE PUSH1 0x64 ADD PUSH2 0x314 JUMP JUMPDEST PUSH1 0x2 PUSH1 0x1 SSTORE JUMP JUMPDEST PUSH0 DUP3 PUSH2 0xA1A DUP6 DUP5 PUSH2 0xB08 JUMP JUMPDEST EQ SWAP5 SWAP4 POP POP POP POP JUMP JUMPDEST PUSH2 0xA2B PUSH2 0xB4C JUMP JUMPDEST PUSH0 DUP1 SLOAD PUSH1 0xFF NOT AND SWAP1 SSTORE PUSH32 0x5DB9EE0A495BF2E6FF9C91A7834C1BA4FDD244A5E8AA4E537BD38AEAE4B073AA CALLER JUMPDEST PUSH1 0x40 MLOAD PUSH1 0x1 PUSH1 0x1 PUSH1 0xA0 SHL SUB SWAP1 SWAP2 AND DUP2 MSTORE PUSH1 0x20 ADD PUSH1 0x40 MLOAD DUP1 SWAP2 SUB SWAP1 LOG1 JUMP JUMPDEST PUSH0 DUP1 SLOAD PUSH1 0x1 PUSH1 0x1 PUSH1 0xA0 SHL SUB DUP4 DUP2 AND PUSH2 0x100 DUP2 DUP2 MUL PUSH2 0x100 PUSH1 0x1 PUSH1 0xA8 SHL SUB NOT DUP6 AND OR DUP6 SSTORE PUSH1 0x40 MLOAD SWAP4 DIV SWAP2 SWAP1 SWAP2 AND SWAP3 SWAP1 SWAP2 DUP4 SWAP2 PUSH32 0x8BE0079C531659141344CD1FD0A4F28419497F9722A3DAAFE3B4186F6B6457E0 SWAP2 LOG3 POP POP JUMP JUMPDEST PUSH2 0xAD4 PUSH2 0x970 JUMP JUMPDEST PUSH0 DUP1 SLOAD PUSH1 0xFF NOT AND PUSH1 0x1 OR SWAP1 SSTORE PUSH32 0x62E78CEA01BEE320CD4E420270B5EA74000D11B0C9F74754EBDBFC544B05A258 PUSH2 0xA57 CALLER SWAP1 JUMP JUMPDEST PUSH0 DUP2 DUP2 JUMPDEST DUP5 MLOAD DUP2 LT ISZERO PUSH2 0xB42 JUMPI PUSH2 0xB38 DUP3 DUP7 DUP4 DUP2 MLOAD DUP2 LT PUSH2 0xB2B JUMPI PUSH2 0xB2B PUSH2 0xD49 JUMP JUMPDEST PUSH1 0x20 MUL PUSH1 0x20 ADD ADD MLOAD PUSH2 0xB94 JUMP JUMPDEST SWAP2 POP PUSH1 0x1 ADD PUSH2 0xB0C JUMP JUMPDEST POP SWAP1 POP JUMPDEST SWAP3 SWAP2 POP POP JUMP JUMPDEST PUSH0 SLOAD PUSH1 0xFF AND PUSH2 0x6CF JUMPI PUSH1 0x40 MLOAD PUSH3 0x461BCD PUSH1 0xE5 SHL DUP2 MSTORE PUSH1 0x20 PUSH1 0x4 DUP3 ADD MSTORE PUSH1 0x14 PUSH1 0x24 DUP3 ADD MSTORE PUSH20 0x14185D5CD8589B194E881B9BDD081C185D5CD959 PUSH1 0x62 SHL PUSH1 0x44 DUP3 ADD MSTORE PUSH1 0x64 ADD PUSH2 0x314 JUMP JUMPDEST PUSH0 DUP2 DUP4 LT PUSH2 0xBAE JUMPI PUSH0 DUP3 DUP2 MSTORE PUSH1 0x20 DUP5 SWAP1 MSTORE PUSH1 0x40 SWAP1 KECCAK256 PUSH2 0xBBC JUMP JUMPDEST PUSH0 DUP4 DUP2 MSTORE PUSH1 0x20 DUP4 SWAP1 MSTORE PUSH1 0x40 SWAP1 KECCAK256 JUMPDEST SWAP4 SWAP3 POP POP POP JUMP JUMPDEST DUP1 CALLDATALOAD PUSH1 0x1 PUSH1 0x1 PUSH1 0xA0 SHL SUB DUP2 AND DUP2 EQ PUSH2 0xBD9 JUMPI PUSH0 DUP1 REVERT JUMPDEST SWAP2 SWAP1 POP JUMP JUMPDEST PUSH0 PUSH1 0x20 DUP3 DUP5 SUB SLT ISZERO PUSH2 0xBEE JUMPI PUSH0 DUP1 REVERT JUMPDEST PUSH2 0xBBC DUP3 PUSH2 0xBC3 JUMP JUMPDEST PUSH0 DUP1 DUP4 PUSH1 0x1F DUP5 ADD SLT PUSH2 0xC07 JUMPI PUSH0 DUP1 REVERT JUMPDEST POP DUP2 CALLDATALOAD PUSH8 0xFFFFFFFFFFFFFFFF DUP2 GT ISZERO PUSH2 0xC1E JUMPI PUSH0 DUP1 REVERT JUMPDEST PUSH1 0x20 DUP4 ADD SWAP2 POP DUP4 PUSH1 0x20 DUP3 PUSH1 0x5 SHL DUP6 ADD ADD GT ISZERO PUSH2 0xC38 JUMPI PUSH0 DUP1 REVERT JUMPDEST SWAP3 POP SWAP3 SWAP1 POP JUMP JUMPDEST PUSH0 DUP1 PUSH0 PUSH1 0x40 DUP5 DUP7 SUB SLT ISZERO PUSH2 0xC51 JUMPI PUSH0 DUP1 REVERT JUMPDEST DUP4 CALLDATALOAD SWAP3 POP PUSH1 0x20 DUP5 ADD CALLDATALOAD PUSH8 0xFFFFFFFFFFFFFFFF DUP2 GT ISZERO PUSH2 0xC6E JUMPI PUSH0 DUP1 REVERT JUMPDEST PUSH2 0xC7A DUP7 DUP3 DUP8 ADD PUSH2 0xBF7 JUMP JUMPDEST SWAP5 SWAP8 SWAP1 SWAP7 POP SWAP4 SWAP5 POP POP POP POP JUMP JUMPDEST PUSH0 PUSH1 0x20 DUP3 DUP5 SUB SLT ISZERO PUSH2 0xC97 JUMPI PUSH0 DUP1 REVERT JUMPDEST POP CALLDATALOAD SWAP2 SWAP1 POP JUMP JUMPDEST PUSH0 DUP1 PUSH0 DUP1 PUSH1 0x60 DUP6 DUP8 SUB SLT ISZERO PUSH2 0xCB1 JUMPI PUSH0 DUP1 REVERT JUMPDEST PUSH2 0xCBA DUP6 PUSH2 0xBC3 JUMP JUMPDEST SWAP4 POP PUSH1 0x20 DUP6 ADD CALLDATALOAD SWAP3 POP PUSH1 0x40 DUP6 ADD CALLDATALOAD PUSH8 0xFFFFFFFFFFFFFFFF DUP2 GT ISZERO PUSH2 0xCDC JUMPI PUSH0 DUP1 REVERT JUMPDEST PUSH2 0xCE8 DUP8 DUP3 DUP9 ADD PUSH2 0xBF7 JUMP JUMPDEST SWAP6 SWAP9 SWAP5 SWAP8 POP SWAP6 POP POP POP POP JUMP JUMPDEST DUP1 DUP3 ADD DUP1 DUP3 GT ISZERO PUSH2 0xB46 JUMPI PUSH4 0x4E487B71 PUSH1 0xE0 SHL PUSH0 MSTORE PUSH1 0x11 PUSH1 0x4 MSTORE PUSH1 0x24 PUSH0 REVERT JUMPDEST PUSH0 PUSH1 0x20 DUP3 DUP5 SUB SLT ISZERO PUSH2 0xD23 JUMPI PUSH0 DUP1 REVERT JUMPDEST POP MLOAD SWAP2 SWAP1 POP JUMP JUMPDEST PUSH0 PUSH1 0x20 DUP3 DUP5 SUB SLT ISZERO PUSH2 0xD3A JUMPI PUSH0 DUP1 REVERT JUMPDEST DUP2 MLOAD DUP1 ISZERO ISZERO DUP2 EQ PUSH2 0xBBC JUMPI PUSH0 DUP1 REVERT JUMPDEST PUSH4 0x4E487B71 PUSH1 0xE0 SHL PUSH0 MSTORE PUSH1 0x32 PUSH1 0x4 MSTORE PUSH1 0x24 PUSH0 REVERT INVALID LOG2 PUSH5 0x6970667358 0x22 SLT KECCAK256 0xB2 0x4F 0x23 0xAB RETURNDATACOPY 0xEB PREVRANDAO 0xDD POP 0xA9 BLOBHASH SWAP1 CALLVALUE 0xDA 0xAF 0xF6 PUSH20 0xFE0A3FC42196C3C5307A18F603014864736F6C63 NUMBER STOP ADDMOD BYTE STOP CALLER "
		},
		"gasEstimates": {
			"creation": {
				"codeDepositCost": "695000",
				"executionCost": "infinite",
				"totalCost": "infinite"
			},
			"external": {
				"checkClaimingRound()": "8833",
				"claim(uint256,bytes32[])": "infinite",
				"claimed(address)": "2594",
				"claimingRoundDuration()": "2306",
				"endClaimingRound()": "31616",
				"isClaiming()": "2371",
				"merkleRoot()": "2329",
				"owner()": "2429",
				"pause()": "infinite",
				"paused()": "2336",
				"renounceOwnership()": "infinite",
				"setClaimingRoundDuration(uint256)": "24588",
				"setMerkleRoot(bytes32)": "24522",
				"setStartClaimingRound()": "48683",
				"setToken(address)": "26805",
				"startClaimingRound()": "2395",
				"token()": "2468",
				"transferOwnership(address)": "28475",
				"treasury()": "2447",
				"unClaimedTokenToTreasury()": "infinite",
				"unpause()": "infinite",
				"verifyUser(address,uint256,bytes32[])": "infinite"
			}
		},
		"methodIdentifiers": {
			"checkClaimingRound()": "c27f7e26",
			"claim(uint256,bytes32[])": "2f52ebb7",
			"claimed(address)": "c884ef83",
			"claimingRoundDuration()": "49039527",
			"endClaimingRound()": "5e4f3a9c",
			"isClaiming()": "7cc6cb7a",
			"merkleRoot()": "2eb4a7ab",
			"owner()": "8da5cb5b",
			"pause()": "8456cb59",
			"paused()": "5c975abb",
			"renounceOwnership()": "715018a6",
			"setClaimingRoundDuration(uint256)": "6038efad",
			"setMerkleRoot(bytes32)": "7cb64759",
			"setStartClaimingRound()": "b6cd5d1a",
			"setToken(address)": "144fa6d7",
			"startClaimingRound()": "428e7565",
			"token()": "fc0c546a",
			"transferOwnership(address)": "f2fde38b",
			"treasury()": "61d027b3",
			"unClaimedTokenToTreasury()": "de805da7",
			"unpause()": "3f4ba83a",
			"verifyUser(address,uint256,bytes32[])": "a0074c67"
		}
	},
	"abi": [
		{
			"inputs": [
				{
					"internalType": "address",
					"name": "_owner",
					"type": "address"
				},
				{
					"internalType": "address",
					"name": "_treasury",
					"type": "address"
				}
			],
			"stateMutability": "nonpayable",
			"type": "constructor"
		},
		{
			"inputs": [
				{
					"internalType": "address",
					"name": "owner",
					"type": "address"
				}
			],
			"name": "OwnableInvalidOwner",
			"type": "error"
		},
		{
			"inputs": [
				{
					"internalType": "address",
					"name": "account",
					"type": "address"
				}
			],
			"name": "OwnableUnauthorizedAccount",
			"type": "error"
		},
		{
			"anonymous": false,
			"inputs": [
				{
					"indexed": true,
					"internalType": "address",
					"name": "account",
					"type": "address"
				},
				{
					"indexed": false,
					"internalType": "uint256",
					"name": "amount",
					"type": "uint256"
				}
			],
			"name": "Claimed",
			"type": "event"
		},
		{
			"anonymous": false,
			"inputs": [
				{
					"indexed": true,
					"internalType": "address",
					"name": "previousOwner",
					"type": "address"
				},
				{
					"indexed": true,
					"internalType": "address",
					"name": "newOwner",
					"type": "address"
				}
			],
			"name": "OwnershipTransferred",
			"type": "event"
		},
		{
			"anonymous": false,
			"inputs": [
				{
					"indexed": false,
					"internalType": "address",
					"name": "account",
					"type": "address"
				}
			],
			"name": "Paused",
			"type": "event"
		},
		{
			"anonymous": false,
			"inputs": [
				{
					"indexed": false,
					"internalType": "address",
					"name": "account",
					"type": "address"
				}
			],
			"name": "Unpaused",
			"type": "event"
		},
		{
			"inputs": [],
			"name": "checkClaimingRound",
			"outputs": [
				{
					"internalType": "bool",
					"name": "",
					"type": "bool"
				}
			],
			"stateMutability": "view",
			"type": "function"
		},
		{
			"inputs": [
				{
					"internalType": "uint256",
					"name": "_amount",
					"type": "uint256"
				},
				{
					"internalType": "bytes32[]",
					"name": "_merkleProof",
					"type": "bytes32[]"
				}
			],
			"name": "claim",
			"outputs": [],
			"stateMutability": "nonpayable",
			"type": "function"
		},
		{
			"inputs": [
				{
					"internalType": "address",
					"name": "",
					"type": "address"
				}
			],
			"name": "claimed",
			"outputs": [
				{
					"internalType": "bool",
					"name": "",
					"type": "bool"
				}
			],
			"stateMutability": "view",
			"type": "function"
		},
		{
			"inputs": [],
			"name": "claimingRoundDuration",
			"outputs": [
				{
					"internalType": "uint256",
					"name": "",
					"type": "uint256"
				}
			],
			"stateMutability": "view",
			"type": "function"
		},
		{
			"inputs": [],
			"name": "endClaimingRound",
			"outputs": [],
			"stateMutability": "nonpayable",
			"type": "function"
		},
		{
			"inputs": [],
			"name": "isClaiming",
			"outputs": [
				{
					"internalType": "bool",
					"name": "",
					"type": "bool"
				}
			],
			"stateMutability": "view",
			"type": "function"
		},
		{
			"inputs": [],
			"name": "merkleRoot",
			"outputs": [
				{
					"internalType": "bytes32",
					"name": "",
					"type": "bytes32"
				}
			],
			"stateMutability": "view",
			"type": "function"
		},
		{
			"inputs": [],
			"name": "owner",
			"outputs": [
				{
					"internalType": "address",
					"name": "",
					"type": "address"
				}
			],
			"stateMutability": "view",
			"type": "function"
		},
		{
			"inputs": [],
			"name": "pause",
			"outputs": [],
			"stateMutability": "nonpayable",
			"type": "function"
		},
		{
			"inputs": [],
			"name": "paused",
			"outputs": [
				{
					"internalType": "bool",
					"name": "",
					"type": "bool"
				}
			],
			"stateMutability": "view",
			"type": "function"
		},
		{
			"inputs": [],
			"name": "renounceOwnership",
			"outputs": [],
			"stateMutability": "nonpayable",
			"type": "function"
		},
		{
			"inputs": [
				{
					"internalType": "uint256",
					"name": "_duration",
					"type": "uint256"
				}
			],
			"name": "setClaimingRoundDuration",
			"outputs": [],
			"stateMutability": "nonpayable",
			"type": "function"
		},
		{
			"inputs": [
				{
					"internalType": "bytes32",
					"name": "_merkleRoot",
					"type": "bytes32"
				}
			],
			"name": "setMerkleRoot",
			"outputs": [],
			"stateMutability": "nonpayable",
			"type": "function"
		},
		{
			"inputs": [],
			"name": "setStartClaimingRound",
			"outputs": [],
			"stateMutability": "nonpayable",
			"type": "function"
		},
		{
			"inputs": [
				{
					"internalType": "address",
					"name": "_token",
					"type": "address"
				}
			],
			"name": "setToken",
			"outputs": [],
			"stateMutability": "nonpayable",
			"type": "function"
		},
		{
			"inputs": [],
			"name": "startClaimingRound",
			"outputs": [
				{
					"internalType": "uint256",
					"name": "",
					"type": "uint256"
				}
			],
			"stateMutability": "view",
			"type": "function"
		},
		{
			"inputs": [],
			"name": "token",
			"outputs": [
				{
					"internalType": "address",
					"name": "",
					"type": "address"
				}
			],
			"stateMutability": "view",
			"type": "function"
		},
		{
			"inputs": [
				{
					"internalType": "address",
					"name": "newOwner",
					"type": "address"
				}
			],
			"name": "transferOwnership",
			"outputs": [],
			"stateMutability": "nonpayable",
			"type": "function"
		},
		{
			"inputs": [],
			"name": "treasury",
			"outputs": [
				{
					"internalType": "address",
					"name": "",
					"type": "address"
				}
			],
			"stateMutability": "view",
			"type": "function"
		},
		{
			"inputs": [],
			"name": "unClaimedTokenToTreasury",
			"outputs": [],
			"stateMutability": "nonpayable",
			"type": "function"
		},
		{
			"inputs": [],
			"name": "unpause",
			"outputs": [],
			"stateMutability": "nonpayable",
			"type": "function"
		},
		{
			"inputs": [
				{
					"internalType": "address",
					"name": "_user",
					"type": "address"
				},
				{
					"internalType": "uint256",
					"name": "_amount",
					"type": "uint256"
				},
				{
					"internalType": "bytes32[]",
					"name": "_merkleProof",
					"type": "bytes32[]"
				}
			],
			"name": "verifyUser",
			"outputs": [
				{
					"internalType": "bool",
					"name": "",
					"type": "bool"
				}
			],
			"stateMutability": "view",
			"type": "function"
		}
	]
}