{
	"data": {
		"bytecode": {
			"linkReferences": {},
			"object": "608060405234801561001057600080fd5b5060405161426038038061426083398101604081905261002f91610319565b6000805460ff19169055338061006057604051631e4fbdf760e01b8152600060048201526024015b60405180910390fd5b61006981610181565b5060018055600280546001600160a01b038581166001600160a01b031992831681179093556007849055610384601855611388601955610bb8601a556105dc601b5562278d00601c5562015180601d55610960601e5562093a80601f556064602055600680549186169190921681179091556040516370a0823160e01b815260048101919091526370a0823190602401602060405180830381865afa158015610116573d6000803e3d6000fd5b505050506040513d601f19601f8201168201806040525081019061013a9190610364565b601455600060158190556127106008554260038190556031556170806032556101f4600b55600a819055603355610170846101da565b610178610218565b5050505061037d565b600080546001600160a01b03838116610100818102610100600160a81b0319851617855560405193049190911692909183917f8be0079c531659141344cd1fd0a4f28419497f9722a3daafe3b4186f6b6457e091a35050565b6101e261022a565b6001600160a01b03811661020c57604051631e4fbdf760e01b815260006004820152602401610057565b61021581610181565b50565b61022061022a565b61022861025d565b565b6000546001600160a01b036101009091041633146102285760405163118cdaa760e01b8152336004820152602401610057565b6102656102b7565b6000805460ff191660011790557f62e78cea01bee320cd4e420270b5ea74000d11b0c9f74754ebdbfc544b05a25861029a3390565b6040516001600160a01b03909116815260200160405180910390a1565b60005460ff16156102285760405162461bcd60e51b815260206004820152601060248201526f14185d5cd8589b194e881c185d5cd95960821b6044820152606401610057565b80516001600160a01b038116811461031457600080fd5b919050565b6000806000806080858703121561032f57600080fd5b610338856102fd565b9350610346602086016102fd565b9250610354604086016102fd565b6060959095015193969295505050565b60006020828403121561037657600080fd5b5051919050565b613ed48061038c6000396000f3fe6080604052600436106104e55760003560e01c80637ad3def211610281578063b3cd42541161015a578063c57a202c116100cc578063f2fde38b11610085578063f2fde38b146110b1578063f87582c4146110d1578063fb099349146110e7578063fc0c546a14611114578063fcc6d1f414611134578063fd922d081461114a576104ec565b8063c57a202c14610fa6578063cd47d73d14610fd3578063d2cbf7ad14611020578063d64d696814611035578063d76eccbb14611065578063dc70219f1461109b576104ec565b8063bd39f3481161011e578063bd39f34814610ebe578063bd9dc8f614610ede578063c12ac65d14610f0b578063c15ffa5014610f2b578063c1985a2a14610f58578063c48c263614610f90576104ec565b8063b3cd425414610dc4578063b706112414610dda578063b9f2b4e014610df0578063bad60f1814610e5d578063bc48dcab14610e7d576104ec565b806390de6cf2116101f35780639b4b2c9c116101b75780639b4b2c9c14610d195780639c30d8f014610d2e5780639fabeb0014610d4e578063a50a24e814610d63578063a8f5c95414610d79578063afc695ce14610daf576104ec565b806390de6cf214610c76578063917215dd14610c9657806393f8691d14610cb65780639499888514610ccc578063963ffd1614610cf9576104ec565b806388bd2aef1161024557806388bd2aef14610b805780638be0f2ca14610bad5780638c4a23e014610be55780638da5cb5b14610c055780638ea97d2614610c285780638ec7830b14610c3e576104ec565b80637ad3def214610b155780637def9d3014610b35578063817b1cd214610b5557806383ad068c14610b155780638456cb5914610b6b576104ec565b80633f4ba83a116103be5780635cc140aa116103305780636e4f88c8116102e95780636e4f88c814610a69578063715018a614610a7e5780637724631114610a935780637790a1c814610ac9578063790e61c114610adf57806379196d4b14610af5576104ec565b80635cc140aa146109a5578063690d8320146109c55780636a4681e5146109e55780636afee824146109fb5780636b6fcdcd14610a1b5780636e04ff0d14610a3b576104ec565b80634a3b68cc116103825780634a3b68cc146108b55780634ad6eb2e146108eb57806359e7f4521461092b5780635a2443f7146109615780635c4ed202146109775780635c975abb1461098d576104ec565b80633f4ba83a146107fb57806341d3630a146108105780634585e33b146108305780634626402b14610850578063472be74a14610888576104ec565b806320408339116104575780632e17de781161041b5780632e17de7814610710578063337aa4c41461073057806334fea3421461075d578063366b2eff1461078a5780633ae58ef2146107a15780633e50a556146107ce576104ec565b80632040833914610633578063260429c2146106535780632c070d7d146106805780632c52bed9146106b65780632cf01b55146106e3576104ec565b80630fb5a6b4116104a95780630fb5a6b41461058f5780631427fc05146105a557806314d76685146105ba57806315bf6c03146105da5780631c0b5a3f146105f05780631d69ebe614610606576104ec565b806303793298146104fa57806305a4263d14610523578063070a888f146105395780630a30307d146105595780630e80f0b31461056f576104ec565b366104ec57005b3480156104f857600080fd5b005b34801561050657600080fd5b5061051060145481565b6040519081526020015b60405180910390f35b34801561052f57600080fd5b5061051060195481565b34801561054557600080fd5b506104f8610554366004613a0f565b61116a565b34801561056557600080fd5b5061051060205481565b34801561057b57600080fd5b506104f861058a366004613a44565b6111b2565b34801561059b57600080fd5b5061051060075481565b3480156105b157600080fd5b506104f8611233565b3480156105c657600080fd5b506104f86105d5366004613a0f565b611241565b3480156105e657600080fd5b5061051060085481565b3480156105fc57600080fd5b5061051060035481565b34801561061257600080fd5b50610626610621366004613a81565b61135b565b60405161051a9190613a9c565b34801561063f57600080fd5b5061051061064e366004613ae8565b611385565b34801561065f57600080fd5b5061051061066e366004613a81565b60296020526000908152604090205481565b34801561068c57600080fd5b5061051061069b366004613a81565b6001600160a01b031660009081526035602052604090205490565b3480156106c257600080fd5b506105106106d1366004613a81565b60126020526000908152604090205481565b3480156106ef57600080fd5b506105106106fe366004613a81565b60166020526000908152604090205481565b34801561071c57600080fd5b506104f861072b366004613a0f565b61139a565b34801561073c57600080fd5b5061051061074b366004613a81565b602b6020526000908152604090205481565b34801561076957600080fd5b50610510610778366004613a81565b60176020526000908152604090205481565b34801561079657600080fd5b5061051062278d0081565b3480156107ad57600080fd5b506105106107bc366004613a81565b60116020526000908152604090205481565b3480156107da57600080fd5b506105106107e9366004613a81565b60226020526000908152604090205481565b34801561080757600080fd5b506104f861166e565b34801561081c57600080fd5b5061062661082b366004613a81565b611680565b34801561083c57600080fd5b506104f861084b366004613b1b565b6116a4565b34801561085c57600080fd5b50600654610870906001600160a01b031681565b6040516001600160a01b03909116815260200161051a565b34801561089457600080fd5b506105106108a3366004613a81565b60356020526000908152604090205481565b3480156108c157600080fd5b506108706108d0366004613a81565b6023602052600090815260409020546001600160a01b031681565b3480156108f757600080fd5b5061091b610906366004613a81565b60306020526000908152604090205460ff1681565b604051901515815260200161051a565b34801561093757600080fd5b50610510610946366004613a81565b6001600160a01b03166000908152600f602052604090205490565b34801561096d57600080fd5b50610510602d5481565b34801561098357600080fd5b50610510601d5481565b34801561099957600080fd5b5060005460ff1661091b565b3480156109b157600080fd5b506104f86109c0366004613b8f565b611715565b3480156109d157600080fd5b506104f86109e0366004613a81565b6117e2565b3480156109f157600080fd5b5061051060315481565b348015610a0757600080fd5b506104f8610a16366004613a0f565b6118d5565b348015610a2757600080fd5b50610510610a36366004613ae8565b61190f565b348015610a4757600080fd5b50610a5b610a56366004613b1b565b61191d565b60405161051a929190613bd5565b348015610a7557600080fd5b50610626611975565b348015610a8a57600080fd5b506104f8611986565b348015610a9f57600080fd5b50610510610aae366004613a81565b6001600160a01b031660009081526029602052604090205490565b348015610ad557600080fd5b50610510601b5481565b348015610aeb57600080fd5b50610510601f5481565b348015610b0157600080fd5b50610510610b10366004613a81565b611998565b348015610b2157600080fd5b506104f8610b30366004613a81565b6119a4565b348015610b4157600080fd5b506104f8610b50366004613b8f565b611a24565b348015610b6157600080fd5b5061051060135481565b348015610b7757600080fd5b506104f8611a37565b348015610b8c57600080fd5b50610510610b9b366004613a81565b602c6020526000908152604090205481565b348015610bb957600080fd5b50610510610bc8366004613ae8565b602660209081526000928352604080842090915290825290205481565b348015610bf157600080fd5b506104f8610c00366004613cb6565b611a47565b348015610c1157600080fd5b5060005461010090046001600160a01b0316610870565b348015610c3457600080fd5b5061051060185481565b348015610c4a57600080fd5b50610510610c59366004613ae8565b602760209081526000928352604080842090915290825290205481565b348015610c8257600080fd5b506104f8610c91366004613a0f565b611e12565b348015610ca257600080fd5b506104f8610cb1366004613a0f565b611ea2565b348015610cc257600080fd5b5061051060155481565b348015610cd857600080fd5b50610510610ce7366004613a81565b60096020526000908152604090205481565b348015610d0557600080fd5b50610510610d14366004613a81565b611eaf565b348015610d2557600080fd5b5061091b611ebb565b348015610d3a57600080fd5b50610510610d49366004613a0f565b61217c565b348015610d5a57600080fd5b506105106121a0565b348015610d6f57600080fd5b50610510600c5481565b348015610d8557600080fd5b50610510610d94366004613a81565b6001600160a01b031660009081526009602052604090205490565b348015610dbb57600080fd5b5061091b6121b2565b348015610dd057600080fd5b5061051061271081565b348015610de657600080fd5b50610510601e5481565b348015610dfc57600080fd5b50610e3d610e0b366004613ae8565b600e60209081526000928352604080842090915290825290208054600182015460028301546003909301549192909184565b60408051948552602085019390935291830152606082015260800161051a565b348015610e6957600080fd5b506104f8610e78366004613b8f565b6122cd565b348015610e8957600080fd5b50610870610e98366004613d0d565b8051602081830181018051602e825292820191909301209152546001600160a01b031681565b348015610eca57600080fd5b506104f8610ed9366004613a0f565b612374565b348015610eea57600080fd5b50610510610ef9366004613a81565b600f6020526000908152604090205481565b348015610f1757600080fd5b50610510610f26366004613a81565b612381565b348015610f3757600080fd5b50610510610f46366004613a81565b602a6020526000908152604090205481565b348015610f6457600080fd5b50610510610f73366004613ae8565b602860209081526000928352604080842090915290825290205481565b348015610f9c57600080fd5b50610510601c5481565b348015610fb257600080fd5b50610510610fc1366004613a81565b60216020526000908152604090205481565b348015610fdf57600080fd5b50610e3d610fee366004613ae8565b600d60209081526000928352604080842090915290825290208054600182015460028301546003909301549192909184565b34801561102c57600080fd5b506105106123b3565b34801561104157600080fd5b5061091b611050366004613a81565b602f6020526000908152604090205460ff1681565b34801561107157600080fd5b50610510611080366004613a81565b6001600160a01b031660009081526016602052604090205490565b3480156110a757600080fd5b5061051060345481565b3480156110bd57600080fd5b506104f86110cc366004613a81565b6123d9565b3480156110dd57600080fd5b50610510601a5481565b3480156110f357600080fd5b50610510611102366004613a81565b60106020526000908152604090205481565b34801561112057600080fd5b50600254610870906001600160a01b031681565b34801561114057600080fd5b5061051060325481565b34801561115657600080fd5b506104f8611165366004613a0f565b612417565b611172612451565b6007819055604080518281524260208201527f2509bc22ea6153ebd9e7b07822af9f37803779e8e68796cc2153a65e46c9a780910160405180910390a150565b6111ba612451565b60405163a9059cbb60e01b81526001600160a01b0383811660048301526024820183905284169063a9059cbb906044016020604051808303816000875af1158015611209573d6000803e3d6000fd5b505050506040513d601f19601f8201168201806040525081019061122d9190613d42565b50505050565b61123b612451565b42600355565b611249612451565b60648111801561125a575061271081105b6112ca5760405162461bcd60e51b815260206004820152603660248201527f6c6f6e677465726d207374616b696e67207265776172647320726174652073686044820152756f756c64206265206c657373207468616e203130302560501b60648201526084015b60405180910390fd5b60205481116113565760405162461bcd60e51b815260206004820152604c60248201527f4c6f6e677465726d207374616b696e6720726577617264732072617465206d7560448201527f73742062652067726561746572207468616e206d756c7469706c69657220726160648201526b0e8ca40e0cae440cae0dec6d60a31b608482015260a4016112c1565b601e55565b6001600160a01b038116600090815260246020526040902060609061137f90612484565b92915050565b600061139383836002612491565b9392505050565b6113a261258f565b806000036113df5760405162461bcd60e51b815260206004820152600a6024820152690616d6f756e74203d20360b41b60448201526064016112c1565b336000908152601660205260409020548111156114515760405162461bcd60e51b815260206004820152602a60248201527f596f75206469646e2774207374616b6520656e6f75676820746f6b656e7320746044820152696f20756e7374616b652160b01b60648201526084016112c1565b6000612710601854836114649190613d7a565b61146e9190613d91565b336000908152602360205260409020549091506001600160a01b0316156114b857612710601954826114a09190613d7a565b6114aa9190613d91565b90506114b633836125d5565b505b33600090815260166020526040812080548492906114d7908490613db3565b9250508190555081601360008282546114f09190613db3565b9091555050336000908152601660205260408120549003611518576115166004336127c6565b505b6002546001600160a01b031663a9059cbb336115348486613db3565b6040516001600160e01b031960e085901b1681526001600160a01b03909216600483015260248201526044016020604051808303816000875af115801561157f573d6000803e3d6000fd5b505050506040513d601f19601f820116820180604052508101906115a39190613d42565b5060025460065460405163a9059cbb60e01b81526001600160a01b0391821660048201526024810184905291169063a9059cbb906044016020604051808303816000875af11580156115f9573d6000803e3d6000fd5b505050506040513d601f19601f8201168201806040525081019061161d9190613d42565b503360008181526017602090815260409182902042908190558251868152918201527ff0cbd610bbe2d876ddbb80eee79a670e6f054752be0d72fc614a1a863d3024dc910160405180910390a25050565b611676612451565b61167e6127db565b565b6001600160a01b038116600090815260256020526040902060609061137f90612484565b6032546031546116b49042613db3565b116117015760405162461bcd60e51b815260206004820152601e60248201527f4b656570557020726571756972656d656e74206973206e6f74206d657421000060448201526064016112c1565b61170961282d565b61171161286b565b5050565b61171d612451565b60008211801561172e57506103e882105b61177a5760405162461bcd60e51b815260206004820152601d60248201527f496e76616c696420526566657272616c2052657761726473205261746500000060448201526064016112c1565b60008111801561178b57506103e881105b6117d75760405162461bcd60e51b815260206004820152601d60248201527f496e76616c696420526566657272616c2052657761726473205261746500000060448201526064016112c1565b601a91909155601b55565b6117ea612451565b6001600160a01b0381166118405760405162461bcd60e51b815260206004820152601d60248201527f496e76616c696420616464726573733a207a65726f206164647265737300000060448201526064016112c1565b6000816001600160a01b03164760405160006040518083038185875af1925050503d806000811461188d576040519150601f19603f3d011682016040523d82523d6000602084013e611892565b606091505b50509050806117115760405162461bcd60e51b815260206004820152600f60248201526e151c985b9cd9995c8811985a5b1959608a1b60448201526064016112c1565b6118dd612451565b6064811180156118ee575061271081105b61190a5760405162461bcd60e51b81526004016112c190613dc6565b601955565b600061139383836001612491565b60006060603254603154426119329190613db3565b11915083838080601f0160208091040260200160405190810160405280939291908181526020018383808284376000920191909152509293505050509250929050565b60606119816004612484565b905090565b61198e612451565b61167e60006128de565b60008061139383612937565b6119ac612451565b6001600160a01b038116611a025760405162461bcd60e51b815260206004820152601760248201527f546f6b656e2073686f756c646e2774206265207a65726f00000000000000000060448201526064016112c1565b600280546001600160a01b0319166001600160a01b0392909216919091179055565b611a2c612451565b601c91909155601d55565b611a3f612451565b61167e6129e7565b611a4f61258f565b82600003611a8c5760405162461bcd60e51b815260206004820152600a6024820152690616d6f756e74203d20360b41b60448201526064016112c1565b6001600160a01b03821615801590611aa85750611aa881612a24565b15611b0d573360009081526030602052604090205460ff1615611b0d5760405162461bcd60e51b815260206004820152601f60248201527f596f75207573656420726566657272616c20636f646520616c7265616479210060448201526064016112c1565b6001600160a01b03821615801590611b3e57506001600160a01b0382166000908152602f602052604090205460ff16155b15611b4f57611b4d8282612a81565b505b336001600160a01b0316602e82604051611b699190613e11565b908152604051908190036020019020546001600160a01b031603611bdd5760405162461bcd60e51b815260206004820152602560248201527f596f7520617265207573696e6720796f7572206f776e20726566657272616c20604482015264636f64652160d81b60648201526084016112c1565b6002546040516323b872dd60e01b8152336004820152306024820152604481018590526001600160a01b03909116906323b872dd906064016020604051808303816000875af1158015611c34573d6000803e3d6000fd5b505050506040513d601f19601f82011682018060405250810190611c589190613d42565b50611c64600433612bdf565b158015611c715750600083115b15611c8357611c81600433612c01565b505b336000908152601660205260408120549003611cba5733600090815260106020908152604080832042908190556017909252909120555b611cc381612a24565b15611d71576000602e82604051611cda9190613e11565b908152604051908190036020019020546001600160a01b031690508015801590611d1457503360009081526030602052604090205460ff16155b15611d6f57611d24338286612c16565b50336000908152603060209081526040808320805460ff191660019081179091556001600160a01b038516845260359092528220805491929091611d69908490613e2d565b90915550505b505b3360009081526016602052604081208054859290611d90908490613e2d565b9091555050601380546015819055849190600090611daf908490613e2d565b9091555050336000818152602160209081526040808320429081905560228352928190208790558051878152918201929092527f1f42ead3b460988335c082e2eae9c3f3f9e8279142406f3dbd34af4e7c53a841910160405180910390a2505050565b611e1a612451565b606481118015611e2b575061271081105b611e9d5760405162461bcd60e51b815260206004820152603960248201527f5472656173757279205261746520666f7220726577617264732073686f756c6460448201527f206265206c657373207468616e2064656e6f6d696e61746f720000000000000060648201526084016112c1565b600855565b611eaa612451565b603255565b60008061139383612e8d565b6000611ec561258f565b611ecd612fec565b3360009081526024602052604081208190611ee790612484565b905060005b8151811015611fc8576000828281518110611f0957611f09613e40565b602090810291909101810151336000908152600d835260408082206001600160a01b038416835290935291822090925090611f4382613045565b90508015611fbd5780826002016000828254611f5f9190613e2d565b9091555050426003830155611f748187613e2d565b604080518381524260208201529197506001600160a01b0385169133917f5a8b3c9684c3e08f9972c80a03e63c398f3c444e3f2c8e92d6fdb8268ef7ab98910160405180910390a35b505050600101611eec565b50336000908152602560205260408120611fe190612484565b905060005b81518110156120c257600082828151811061200357612003613e40565b602090810291909101810151336000908152600e835260408082206001600160a01b03841683529093529182209092509061203d82613045565b905080156120b757808260020160008282546120599190613e2d565b909155505042600383015561206e8188613e2d565b604080518381524260208201529198506001600160a01b0385169133917f5a8b3c9684c3e08f9972c80a03e63c398f3c444e3f2c8e92d6fdb8268ef7ab98910160405180910390a35b505050600101611fe6565b50600083116121135760405162461bcd60e51b815260206004820152601c60248201527f4e6f20726566657272616c207265776172647320746f20636c61696d0000000060448201526064016112c1565b600061211e846130e0565b9050600061212c8286613db3565b33600090815260296020526040812080549293508392909190612150908490613e2d565b909155505033600090815260126020526040902091909155506001935050505061217960018055565b90565b6000612187826131f7565b6121949062015180613d7a565b61137f9061016d613d7a565b60006121ac6004612484565b51905090565b60006121bc61258f565b3360009081526011602090815260408083205460099092528220546121e19190613e2d565b905060006121ee826130e0565b33600090815260116020526040812082905590915061220d8284613db3565b3360009081526009602052604090205490915081106122635733600090815260096020526040812054600c805491929091612249908490613db3565b90915550503360009081526009602052604081205561229f565b80600c60008282546122759190613db3565b90915550503360009081526009602052604081208054839290612299908490613db3565b90915550505b336000908152600f6020526040812080548392906122be908490613e2d565b90915550600194505050505090565b6122d5612451565b6064821180156122e65750601e5482105b6123695760405162461bcd60e51b815260206004820152604860248201527f6d756c7469706c6965725261746550657245706f63682073686f756c6420626560448201527f206c657373207468616e206c6f6e677465726d207374616b696e672072657761606482015267726473207261746560c01b608482015260a4016112c1565b602091909155601f55565b61237c612451565b601c55565b60008061238d83612e8d565b6001600160a01b0384166000908152602960205260409020549091506113939082613db3565b60006123c06007546131f7565b6123cd9062015180613d7a565b6119819061016d613d7a565b6123e1612451565b6001600160a01b03811661240b57604051631e4fbdf760e01b8152600060048201526024016112c1565b612414816128de565b50565b61241f612451565b606481118015612430575061c35081105b61244c5760405162461bcd60e51b81526004016112c190613dc6565b601855565b6000546001600160a01b0361010090910416331461167e5760405163118cdaa760e01b81523360048201526024016112c1565b606060006113938361333d565b600080826001146124c6576001600160a01b038086166000908152600e602090815260408083209388168352929052206124ec565b6001600160a01b038086166000908152600d602090815260408083209388168352929052205b905062278d0081600101546125019190613e2d565b421061252057600281015481546125189190613db3565b915050611393565b60008160030154426125329190613db3565b9050600062278d0082846000015461254a9190613d7a565b6125549190613d91565b6002840154845491925061256791613db3565b81116125735780612584565b600283015483546125849190613db3565b979650505050505050565b60005460ff161561167e5760405162461bcd60e51b815260206004820152601060248201526f14185d5cd8589b194e881c185d5cd95960821b60448201526064016112c1565b6001600160a01b03808316600090815260236020908152604080832054601c54602c9093529083205492931691839161260d91613e2d565b9050804210156127bb576001600160a01b0380831660009081526023602052604081205490911690806126408888613399565b601d5491935091506000906126558142613d91565b61265f9190613d7a565b601d5461266c8188613d91565b6126769190613d7a565b6126809190613db3565b6001600160a01b038088166000908152600d60209081526040808320938e1683529290529081209192506126b48386613d7a565b9050808260000154106126e057808260000160008282546126d59190613db3565b909155506126e89050565b508054600082555b60006001600160a01b03871615612788576000600e6000896001600160a01b03166001600160a01b0316815260200190815260200160002060008e6001600160a01b03166001600160a01b03168152602001908152602001600020905084866127519190613d7a565b91508181600001541061277d57818160000160008282546127729190613db3565b909155506127869050565b80546000825591505b505b6127928183613e2d565b602d60008282546127a39190613db3565b9091555060019a5061137f9950505050505050505050565b506000949350505050565b6000611393836001600160a01b0384166134f6565b6127e36135e9565b6000805460ff191690557f5db9ee0a495bf2e6ff9c91a7834c1ba4fdd244a5e8aa4e537bd38aeae4b073aa335b6040516001600160a01b03909116815260200160405180910390a1565b6128376004612484565b51600a5410612846576000600a555b612854600a54600b54613632565b6034805490600061286483613e56565b9190505550565b60006128776004612484565b5190506000600b548261288a9190613d91565b90508181600b5461289b9190613d7a565b10156128af576128ac600182613e2d565b90505b80603354106128c5575050600060335542603155565b603380549060006128d583613e56565b91905055505050565b600080546001600160a01b03838116610100818102610100600160a81b0319851617855560405193049190911692909183917f8be0079c531659141344cd1fd0a4f28419497f9722a3daafe3b4186f6b6457e091a35050565b6001600160a01b038116600090815260166020526040812054156129df57601f546001600160a01b03831660009081526017602052604081205490919061297f908290613d91565b6129899190613d7a565b601f546129968142613d91565b6129a09190613d7a565b6129aa9190613db3565b90506000601f54826020546129bf9190613d7a565b6129c99190613d91565b90506129d781601e546137cc565b949350505050565b506000919050565b6129ef61258f565b6000805460ff191660011790557f62e78cea01bee320cd4e420270b5ea74000d11b0c9f74754ebdbfc544b05a2586128103390565b6000600582511015612a3857506000919050565b60006001600160a01b0316602e83604051612a539190613e11565b908152604051908190036020019020546001600160a01b031603612a7957506000919050565b506001919050565b6000600582511015612acd5760405162461bcd60e51b8152602060048201526015602482015274496e76616c696420526566657272616c20436f646560581b60448201526064016112c1565b6001600160a01b0383166000908152602f602052604090205460ff16158015612b27575060006001600160a01b0316602e83604051612b0c9190613e11565b908152604051908190036020019020546001600160a01b0316145b612b7d5760405162461bcd60e51b815260206004820152602160248201527f596f75206372656174656420726566657272616c20636f646520616c726561646044820152607960f81b60648201526084016112c1565b82602e83604051612b8e9190613e11565b908152604080516020928190038301902080546001600160a01b0319166001600160a01b03948516179055949091166000908152602f90915292909220805460ff1916600190811790915592915050565b6001600160a01b03811660009081526001830160205260408120541515611393565b6000611393836001600160a01b0384166137e3565b6001600160a01b03838116600090815260236020908152604080832080546001600160a01b031916948716948517905592825260249052908120612c5a9085612c01565b506001600160a01b038085166000818152602c6020908152604080832042905593871682526026815283822092825291909152908120839055601a5461271090612ca49085613d7a565b612cae9190613d91565b604080516080810182528281524260208083018281526000848601818152606086019485526001600160a01b03808d168352600d8552878320908e168352909352949094209251835592516001830155915160028201559051600390910155601c54909150612d1d9082613d91565b6001600160a01b038087166000908152602a6020908152604080832094909455878316825260239052918220541615612e61576001600160a01b038086166000908152602360209081526040808320549093168083526025909152919020612d859088612c01565b50612710601b5486612d979190613d7a565b612da19190613d91565b915060405180608001604052808381526020014281526020016000815260200142815250600e6000836001600160a01b03166001600160a01b031681526020019081526020016000206000896001600160a01b03166001600160a01b0316815260200190815260200160002060008201518160000155602082015181600101556040820151816002015560608201518160030155905050601c5482612e469190613d91565b6001600160a01b0388166000908152602b6020526040902055505b612e6b8183613e2d565b602d6000828254612e7c9190613e2d565b909155506001979650505050505050565b6001600160a01b03811660009081526024602052604081208190612eb090612484565b6001600160a01b038416600090815260256020526040812091925090612ed590612484565b82518151919250906000805b83811015612f5f576001600160a01b0388166000908152600d6020526040812087518290899085908110612f1757612f17613e40565b60200260200101516001600160a01b03166001600160a01b031681526020019081526020016000209050612f4a81613045565b612f549084613e2d565b925050600101612ee1565b5060005b82811015612fe1576001600160a01b0388166000908152600e6020526040812086518290889085908110612f9957612f99613e40565b60200260200101516001600160a01b03166001600160a01b031681526020019081526020016000209050612fcc81613045565b612fd69084613e2d565b925050600101612f63565b509695505050505050565b60026001540361303e5760405162461bcd60e51b815260206004820152601f60248201527f5265656e7472616e637947756172643a207265656e7472616e742063616c6c0060448201526064016112c1565b6002600155565b600062278d00826001015461305a9190613e2d565b4210613071576002820154825461137f9190613db3565b60008260030154426130839190613db3565b835490915062278d0090600090829061309d908590613d7a565b6130a79190613d91565b600286015486549192506130ba91613db3565b81116130c657806130d7565b600285015485546130d79190613db3565b95945050505050565b60008180156131ee576002546006546040516370a0823160e01b81526001600160a01b03918216600482015260009291909116906370a0823190602401602060405180830381865afa15801561313a573d6000803e3d6000fd5b505050506040513d601f19601f8201168201806040525081019061315e9190613e6f565b905081811161316c57600080fd5b6002546006546040516323b872dd60e01b81526001600160a01b039182166004820152336024820152604481018590529116906323b872dd906064016020604051808303816000875af11580156131c7573d6000803e3d6000fd5b505050506040513d601f19601f820116820180604052508101906131eb9190613d42565b50505b50600092915050565b600060135460001480613208575081155b1561321557506000919050565b600061321f613832565b9050600060155460135411613235576000613245565b6015546013546132459190613db3565b90506000612710601b54601a5461325c9190613e2d565b6132669084613d7a565b6132709190613d91565b9050600061271084600c546132859190613d7a565b61328f9190613d91565b9050601454600c5482846132a39190613e2d565b6132ad9190613e2d565b11156132bf5750600095945050505050565b6000612710600854600c5485856014546132d99190613db3565b6132e39190613db3565b6132ed9190613db3565b6132f79190613d7a565b6133019190613d91565b905060008760135483670de0b6b3a764000061331d9190613d7a565b6133279190613d91565b6133319190613d91565b98975050505050505050565b60608160000180548060200260200160405190810160405280929190818152602001828054801561338d57602002820191906000526020600020905b815481526020019060010190808311613379575b50505050509050919050565b6001600160a01b0382166000908152602a602052604081205481908190819015613445576001600160a01b038616600090815260166020908152604080832054602a90925290912054612710919082906133f4908990613d7a565b6133fe9190613d7a565b6134089190613d91565b6134129190613d91565b6001600160a01b0387166000908152602a602052604081208054929450849290919061343f908490613db3565b90915550505b6001600160a01b0386166000908152602b6020526040902054156134eb576001600160a01b038616600090815260166020908152604080832054602b909252909120546127109190829061349a908990613d7a565b6134a49190613d7a565b6134ae9190613d91565b6134b89190613d91565b6001600160a01b0387166000908152602b60205260408120805492935083929091906134e5908490613db3565b90915550505b909590945092505050565b600081815260018301602052604081205480156135df57600061351a600183613db3565b855490915060009061352e90600190613db3565b905080821461359357600086600001828154811061354e5761354e613e40565b906000526020600020015490508087600001848154811061357157613571613e40565b6000918252602080832090910192909255918252600188019052604090208390555b85548690806135a4576135a4613e88565b60019003818190600052602060002001600090559055856001016000868152602001908152602001600020600090556001935050505061137f565b600091505061137f565b60005460ff1661167e5760405162461bcd60e51b815260206004820152601460248201527314185d5cd8589b194e881b9bdd081c185d5cd95960621b60448201526064016112c1565b600061363e6004612484565b9050600061364c8385613e2d565b9050815181111561365b575080515b600080855b838110156137375761368a85828151811061367d5761367d613e40565b60200260200101516138a7565b925042601060008784815181106136a3576136a3613e40565b60200260200101516001600160a01b03166001600160a01b031681526020019081526020016000208190555082600960008784815181106136e6576136e6613e40565b60200260200101516001600160a01b03166001600160a01b03168152602001908152602001600020600082825461371d9190613e2d565b9091555061372d90508383613e2d565b9150600101613660565b5080600c600082825461374a9190613e2d565b90915550506002546006546040516370a0823160e01b81526001600160a01b0391821660048201529116906370a0823190602401602060405180830381865afa15801561379b573d6000803e3d6000fd5b505050506040513d601f19601f820116820180604052508101906137bf9190613e6f565b6014555050600a55505050565b6000818311156137dc5781611393565b5090919050565b600081815260018301602052604081205461382a5750815460018181018455600084815260208082209093018490558454848252828601909352604090209190915561137f565b50600061137f565b600080601f54601f546003546138489190613d91565b6138529190613d7a565b601f5461385f8142613d91565b6138699190613d7a565b6138739190613db3565b90506000601f54826020546138889190613d7a565b6138929190613d91565b90506138a081601e546137cc565b9250505090565b6001600160a01b0381166000908152601060205260408120544210156138ff5760405162461bcd60e51b815260206004820152600d60248201526c436c61696d207570646174652160981b60448201526064016112c1565b6001600160a01b038216600090815260166020526040812054900361392657506000919050565b6001600160a01b0382166000908152601060205260408120546139499042613db3565b6001600160a01b0384166000908152601660209081526040808320546021909252909120549192509062015180906139819042613db3565b10156139ad576001600160a01b0384166000908152602260205260409020546139aa9082613db3565b90505b6000670de0b6b3a7640000612710846139c588612937565b6139d190612710613e2d565b856139dd6007546131f7565b6139e79190613d7a565b6139f19190613d7a565b6139fb9190613d7a565b613a059190613d91565b6130d79190613d91565b600060208284031215613a2157600080fd5b5035919050565b80356001600160a01b0381168114613a3f57600080fd5b919050565b600080600060608486031215613a5957600080fd5b613a6284613a28565b9250613a7060208501613a28565b929592945050506040919091013590565b600060208284031215613a9357600080fd5b61139382613a28565b602080825282518282018190526000918401906040840190835b81811015613add5783516001600160a01b0316835260209384019390920191600101613ab6565b509095945050505050565b60008060408385031215613afb57600080fd5b613b0483613a28565b9150613b1260208401613a28565b90509250929050565b60008060208385031215613b2e57600080fd5b823567ffffffffffffffff811115613b4557600080fd5b8301601f81018513613b5657600080fd5b803567ffffffffffffffff811115613b6d57600080fd5b856020828401011115613b7f57600080fd5b6020919091019590945092505050565b60008060408385031215613ba257600080fd5b50508035926020909101359150565b60005b83811015613bcc578181015183820152602001613bb4565b50506000910152565b82151581526040602082015260008251806040840152613bfc816060850160208701613bb1565b601f01601f1916919091016060019392505050565b634e487b7160e01b600052604160045260246000fd5b600082601f830112613c3857600080fd5b813567ffffffffffffffff811115613c5257613c52613c11565b604051601f8201601f19908116603f0116810167ffffffffffffffff81118282101715613c8157613c81613c11565b604052818152838201602001851015613c9957600080fd5b816020850160208301376000918101602001919091529392505050565b600080600060608486031215613ccb57600080fd5b83359250613cdb60208501613a28565b9150604084013567ffffffffffffffff811115613cf757600080fd5b613d0386828701613c27565b9150509250925092565b600060208284031215613d1f57600080fd5b813567ffffffffffffffff811115613d3657600080fd5b6129d784828501613c27565b600060208284031215613d5457600080fd5b8151801515811461139357600080fd5b634e487b7160e01b600052601160045260246000fd5b808202811582820484141761137f5761137f613d64565b600082613dae57634e487b7160e01b600052601260045260246000fd5b500490565b8181038181111561137f5761137f613d64565b6020808252602b908201527f556e7374616b65204665652073686f756c64206265206c657373207468616e2060408201526a3232b737b6b4b730ba37b960a91b606082015260800190565b60008251613e23818460208701613bb1565b9190910192915050565b8082018082111561137f5761137f613d64565b634e487b7160e01b600052603260045260246000fd5b600060018201613e6857613e68613d64565b5060010190565b600060208284031215613e8157600080fd5b5051919050565b634e487b7160e01b600052603160045260246000fdfea2646970667358221220dbd1b8965651f3262eac93446eeb1a6625c7a958b439b86bbe6b9914b05ba51c64736f6c634300081a0033",
			"opcodes": "PUSH1 0x80 PUSH1 0x40 MSTORE CALLVALUE DUP1 ISZERO PUSH2 0x10 JUMPI PUSH1 0x0 DUP1 REVERT JUMPDEST POP PUSH1 0x40 MLOAD PUSH2 0x4260 CODESIZE SUB DUP1 PUSH2 0x4260 DUP4 CODECOPY DUP2 ADD PUSH1 0x40 DUP2 SWAP1 MSTORE PUSH2 0x2F SWAP2 PUSH2 0x319 JUMP JUMPDEST PUSH1 0x0 DUP1 SLOAD PUSH1 0xFF NOT AND SWAP1 SSTORE CALLER DUP1 PUSH2 0x60 JUMPI PUSH1 0x40 MLOAD PUSH4 0x1E4FBDF7 PUSH1 0xE0 SHL DUP2 MSTORE PUSH1 0x0 PUSH1 0x4 DUP3 ADD MSTORE PUSH1 0x24 ADD JUMPDEST PUSH1 0x40 MLOAD DUP1 SWAP2 SUB SWAP1 REVERT JUMPDEST PUSH2 0x69 DUP2 PUSH2 0x181 JUMP JUMPDEST POP PUSH1 0x1 DUP1 SSTORE PUSH1 0x2 DUP1 SLOAD PUSH1 0x1 PUSH1 0x1 PUSH1 0xA0 SHL SUB DUP6 DUP2 AND PUSH1 0x1 PUSH1 0x1 PUSH1 0xA0 SHL SUB NOT SWAP3 DUP4 AND DUP2 OR SWAP1 SWAP4 SSTORE PUSH1 0x7 DUP5 SWAP1 SSTORE PUSH2 0x384 PUSH1 0x18 SSTORE PUSH2 0x1388 PUSH1 0x19 SSTORE PUSH2 0xBB8 PUSH1 0x1A SSTORE PUSH2 0x5DC PUSH1 0x1B SSTORE PUSH3 0x278D00 PUSH1 0x1C SSTORE PUSH3 0x15180 PUSH1 0x1D SSTORE PUSH2 0x960 PUSH1 0x1E SSTORE PUSH3 0x93A80 PUSH1 0x1F SSTORE PUSH1 0x64 PUSH1 0x20 SSTORE PUSH1 0x6 DUP1 SLOAD SWAP2 DUP7 AND SWAP2 SWAP1 SWAP3 AND DUP2 OR SWAP1 SWAP2 SSTORE PUSH1 0x40 MLOAD PUSH4 0x70A08231 PUSH1 0xE0 SHL DUP2 MSTORE PUSH1 0x4 DUP2 ADD SWAP2 SWAP1 SWAP2 MSTORE PUSH4 0x70A08231 SWAP1 PUSH1 0x24 ADD PUSH1 0x20 PUSH1 0x40 MLOAD DUP1 DUP4 SUB DUP2 DUP7 GAS STATICCALL ISZERO DUP1 ISZERO PUSH2 0x116 JUMPI RETURNDATASIZE PUSH1 0x0 DUP1 RETURNDATACOPY RETURNDATASIZE PUSH1 0x0 REVERT JUMPDEST POP POP POP POP PUSH1 0x40 MLOAD RETURNDATASIZE PUSH1 0x1F NOT PUSH1 0x1F DUP3 ADD AND DUP3 ADD DUP1 PUSH1 0x40 MSTORE POP DUP2 ADD SWAP1 PUSH2 0x13A SWAP2 SWAP1 PUSH2 0x364 JUMP JUMPDEST PUSH1 0x14 SSTORE PUSH1 0x0 PUSH1 0x15 DUP2 SWAP1 SSTORE PUSH2 0x2710 PUSH1 0x8 SSTORE TIMESTAMP PUSH1 0x3 DUP2 SWAP1 SSTORE PUSH1 0x31 SSTORE PUSH2 0x7080 PUSH1 0x32 SSTORE PUSH2 0x1F4 PUSH1 0xB SSTORE PUSH1 0xA DUP2 SWAP1 SSTORE PUSH1 0x33 SSTORE PUSH2 0x170 DUP5 PUSH2 0x1DA JUMP JUMPDEST PUSH2 0x178 PUSH2 0x218 JUMP JUMPDEST POP POP POP POP PUSH2 0x37D JUMP JUMPDEST PUSH1 0x0 DUP1 SLOAD PUSH1 0x1 PUSH1 0x1 PUSH1 0xA0 SHL SUB DUP4 DUP2 AND PUSH2 0x100 DUP2 DUP2 MUL PUSH2 0x100 PUSH1 0x1 PUSH1 0xA8 SHL SUB NOT DUP6 AND OR DUP6 SSTORE PUSH1 0x40 MLOAD SWAP4 DIV SWAP2 SWAP1 SWAP2 AND SWAP3 SWAP1 SWAP2 DUP4 SWAP2 PUSH32 0x8BE0079C531659141344CD1FD0A4F28419497F9722A3DAAFE3B4186F6B6457E0 SWAP2 LOG3 POP POP JUMP JUMPDEST PUSH2 0x1E2 PUSH2 0x22A JUMP JUMPDEST PUSH1 0x1 PUSH1 0x1 PUSH1 0xA0 SHL SUB DUP2 AND PUSH2 0x20C JUMPI PUSH1 0x40 MLOAD PUSH4 0x1E4FBDF7 PUSH1 0xE0 SHL DUP2 MSTORE PUSH1 0x0 PUSH1 0x4 DUP3 ADD MSTORE PUSH1 0x24 ADD PUSH2 0x57 JUMP JUMPDEST PUSH2 0x215 DUP2 PUSH2 0x181 JUMP JUMPDEST POP JUMP JUMPDEST PUSH2 0x220 PUSH2 0x22A JUMP JUMPDEST PUSH2 0x228 PUSH2 0x25D JUMP JUMPDEST JUMP JUMPDEST PUSH1 0x0 SLOAD PUSH1 0x1 PUSH1 0x1 PUSH1 0xA0 SHL SUB PUSH2 0x100 SWAP1 SWAP2 DIV AND CALLER EQ PUSH2 0x228 JUMPI PUSH1 0x40 MLOAD PUSH4 0x118CDAA7 PUSH1 0xE0 SHL DUP2 MSTORE CALLER PUSH1 0x4 DUP3 ADD MSTORE PUSH1 0x24 ADD PUSH2 0x57 JUMP JUMPDEST PUSH2 0x265 PUSH2 0x2B7 JUMP JUMPDEST PUSH1 0x0 DUP1 SLOAD PUSH1 0xFF NOT AND PUSH1 0x1 OR SWAP1 SSTORE PUSH32 0x62E78CEA01BEE320CD4E420270B5EA74000D11B0C9F74754EBDBFC544B05A258 PUSH2 0x29A CALLER SWAP1 JUMP JUMPDEST PUSH1 0x40 MLOAD PUSH1 0x1 PUSH1 0x1 PUSH1 0xA0 SHL SUB SWAP1 SWAP2 AND DUP2 MSTORE PUSH1 0x20 ADD PUSH1 0x40 MLOAD DUP1 SWAP2 SUB SWAP1 LOG1 JUMP JUMPDEST PUSH1 0x0 SLOAD PUSH1 0xFF AND ISZERO PUSH2 0x228 JUMPI PUSH1 0x40 MLOAD PUSH3 0x461BCD PUSH1 0xE5 SHL DUP2 MSTORE PUSH1 0x20 PUSH1 0x4 DUP3 ADD MSTORE PUSH1 0x10 PUSH1 0x24 DUP3 ADD MSTORE PUSH16 0x14185D5CD8589B194E881C185D5CD959 PUSH1 0x82 SHL PUSH1 0x44 DUP3 ADD MSTORE PUSH1 0x64 ADD PUSH2 0x57 JUMP JUMPDEST DUP1 MLOAD PUSH1 0x1 PUSH1 0x1 PUSH1 0xA0 SHL SUB DUP2 AND DUP2 EQ PUSH2 0x314 JUMPI PUSH1 0x0 DUP1 REVERT JUMPDEST SWAP2 SWAP1 POP JUMP JUMPDEST PUSH1 0x0 DUP1 PUSH1 0x0 DUP1 PUSH1 0x80 DUP6 DUP8 SUB SLT ISZERO PUSH2 0x32F JUMPI PUSH1 0x0 DUP1 REVERT JUMPDEST PUSH2 0x338 DUP6 PUSH2 0x2FD JUMP JUMPDEST SWAP4 POP PUSH2 0x346 PUSH1 0x20 DUP7 ADD PUSH2 0x2FD JUMP JUMPDEST SWAP3 POP PUSH2 0x354 PUSH1 0x40 DUP7 ADD PUSH2 0x2FD JUMP JUMPDEST PUSH1 0x60 SWAP6 SWAP1 SWAP6 ADD MLOAD SWAP4 SWAP7 SWAP3 SWAP6 POP POP POP JUMP JUMPDEST PUSH1 0x0 PUSH1 0x20 DUP3 DUP5 SUB SLT ISZERO PUSH2 0x376 JUMPI PUSH1 0x0 DUP1 REVERT JUMPDEST POP MLOAD SWAP2 SWAP1 POP JUMP JUMPDEST PUSH2 0x3ED4 DUP1 PUSH2 0x38C PUSH1 0x0 CODECOPY PUSH1 0x0 RETURN INVALID PUSH1 0x80 PUSH1 0x40 MSTORE PUSH1 0x4 CALLDATASIZE LT PUSH2 0x4E5 JUMPI PUSH1 0x0 CALLDATALOAD PUSH1 0xE0 SHR DUP1 PUSH4 0x7AD3DEF2 GT PUSH2 0x281 JUMPI DUP1 PUSH4 0xB3CD4254 GT PUSH2 0x15A JUMPI DUP1 PUSH4 0xC57A202C GT PUSH2 0xCC JUMPI DUP1 PUSH4 0xF2FDE38B GT PUSH2 0x85 JUMPI DUP1 PUSH4 0xF2FDE38B EQ PUSH2 0x10B1 JUMPI DUP1 PUSH4 0xF87582C4 EQ PUSH2 0x10D1 JUMPI DUP1 PUSH4 0xFB099349 EQ PUSH2 0x10E7 JUMPI DUP1 PUSH4 0xFC0C546A EQ PUSH2 0x1114 JUMPI DUP1 PUSH4 0xFCC6D1F4 EQ PUSH2 0x1134 JUMPI DUP1 PUSH4 0xFD922D08 EQ PUSH2 0x114A JUMPI PUSH2 0x4EC JUMP JUMPDEST DUP1 PUSH4 0xC57A202C EQ PUSH2 0xFA6 JUMPI DUP1 PUSH4 0xCD47D73D EQ PUSH2 0xFD3 JUMPI DUP1 PUSH4 0xD2CBF7AD EQ PUSH2 0x1020 JUMPI DUP1 PUSH4 0xD64D6968 EQ PUSH2 0x1035 JUMPI DUP1 PUSH4 0xD76ECCBB EQ PUSH2 0x1065 JUMPI DUP1 PUSH4 0xDC70219F EQ PUSH2 0x109B JUMPI PUSH2 0x4EC JUMP JUMPDEST DUP1 PUSH4 0xBD39F348 GT PUSH2 0x11E JUMPI DUP1 PUSH4 0xBD39F348 EQ PUSH2 0xEBE JUMPI DUP1 PUSH4 0xBD9DC8F6 EQ PUSH2 0xEDE JUMPI DUP1 PUSH4 0xC12AC65D EQ PUSH2 0xF0B JUMPI DUP1 PUSH4 0xC15FFA50 EQ PUSH2 0xF2B JUMPI DUP1 PUSH4 0xC1985A2A EQ PUSH2 0xF58 JUMPI DUP1 PUSH4 0xC48C2636 EQ PUSH2 0xF90 JUMPI PUSH2 0x4EC JUMP JUMPDEST DUP1 PUSH4 0xB3CD4254 EQ PUSH2 0xDC4 JUMPI DUP1 PUSH4 0xB7061124 EQ PUSH2 0xDDA JUMPI DUP1 PUSH4 0xB9F2B4E0 EQ PUSH2 0xDF0 JUMPI DUP1 PUSH4 0xBAD60F18 EQ PUSH2 0xE5D JUMPI DUP1 PUSH4 0xBC48DCAB EQ PUSH2 0xE7D JUMPI PUSH2 0x4EC JUMP JUMPDEST DUP1 PUSH4 0x90DE6CF2 GT PUSH2 0x1F3 JUMPI DUP1 PUSH4 0x9B4B2C9C GT PUSH2 0x1B7 JUMPI DUP1 PUSH4 0x9B4B2C9C EQ PUSH2 0xD19 JUMPI DUP1 PUSH4 0x9C30D8F0 EQ PUSH2 0xD2E JUMPI DUP1 PUSH4 0x9FABEB00 EQ PUSH2 0xD4E JUMPI DUP1 PUSH4 0xA50A24E8 EQ PUSH2 0xD63 JUMPI DUP1 PUSH4 0xA8F5C954 EQ PUSH2 0xD79 JUMPI DUP1 PUSH4 0xAFC695CE EQ PUSH2 0xDAF JUMPI PUSH2 0x4EC JUMP JUMPDEST DUP1 PUSH4 0x90DE6CF2 EQ PUSH2 0xC76 JUMPI DUP1 PUSH4 0x917215DD EQ PUSH2 0xC96 JUMPI DUP1 PUSH4 0x93F8691D EQ PUSH2 0xCB6 JUMPI DUP1 PUSH4 0x94998885 EQ PUSH2 0xCCC JUMPI DUP1 PUSH4 0x963FFD16 EQ PUSH2 0xCF9 JUMPI PUSH2 0x4EC JUMP JUMPDEST DUP1 PUSH4 0x88BD2AEF GT PUSH2 0x245 JUMPI DUP1 PUSH4 0x88BD2AEF EQ PUSH2 0xB80 JUMPI DUP1 PUSH4 0x8BE0F2CA EQ PUSH2 0xBAD JUMPI DUP1 PUSH4 0x8C4A23E0 EQ PUSH2 0xBE5 JUMPI DUP1 PUSH4 0x8DA5CB5B EQ PUSH2 0xC05 JUMPI DUP1 PUSH4 0x8EA97D26 EQ PUSH2 0xC28 JUMPI DUP1 PUSH4 0x8EC7830B EQ PUSH2 0xC3E JUMPI PUSH2 0x4EC JUMP JUMPDEST DUP1 PUSH4 0x7AD3DEF2 EQ PUSH2 0xB15 JUMPI DUP1 PUSH4 0x7DEF9D30 EQ PUSH2 0xB35 JUMPI DUP1 PUSH4 0x817B1CD2 EQ PUSH2 0xB55 JUMPI DUP1 PUSH4 0x83AD068C EQ PUSH2 0xB15 JUMPI DUP1 PUSH4 0x8456CB59 EQ PUSH2 0xB6B JUMPI PUSH2 0x4EC JUMP JUMPDEST DUP1 PUSH4 0x3F4BA83A GT PUSH2 0x3BE JUMPI DUP1 PUSH4 0x5CC140AA GT PUSH2 0x330 JUMPI DUP1 PUSH4 0x6E4F88C8 GT PUSH2 0x2E9 JUMPI DUP1 PUSH4 0x6E4F88C8 EQ PUSH2 0xA69 JUMPI DUP1 PUSH4 0x715018A6 EQ PUSH2 0xA7E JUMPI DUP1 PUSH4 0x77246311 EQ PUSH2 0xA93 JUMPI DUP1 PUSH4 0x7790A1C8 EQ PUSH2 0xAC9 JUMPI DUP1 PUSH4 0x790E61C1 EQ PUSH2 0xADF JUMPI DUP1 PUSH4 0x79196D4B EQ PUSH2 0xAF5 JUMPI PUSH2 0x4EC JUMP JUMPDEST DUP1 PUSH4 0x5CC140AA EQ PUSH2 0x9A5 JUMPI DUP1 PUSH4 0x690D8320 EQ PUSH2 0x9C5 JUMPI DUP1 PUSH4 0x6A4681E5 EQ PUSH2 0x9E5 JUMPI DUP1 PUSH4 0x6AFEE824 EQ PUSH2 0x9FB JUMPI DUP1 PUSH4 0x6B6FCDCD EQ PUSH2 0xA1B JUMPI DUP1 PUSH4 0x6E04FF0D EQ PUSH2 0xA3B JUMPI PUSH2 0x4EC JUMP JUMPDEST DUP1 PUSH4 0x4A3B68CC GT PUSH2 0x382 JUMPI DUP1 PUSH4 0x4A3B68CC EQ PUSH2 0x8B5 JUMPI DUP1 PUSH4 0x4AD6EB2E EQ PUSH2 0x8EB JUMPI DUP1 PUSH4 0x59E7F452 EQ PUSH2 0x92B JUMPI DUP1 PUSH4 0x5A2443F7 EQ PUSH2 0x961 JUMPI DUP1 PUSH4 0x5C4ED202 EQ PUSH2 0x977 JUMPI DUP1 PUSH4 0x5C975ABB EQ PUSH2 0x98D JUMPI PUSH2 0x4EC JUMP JUMPDEST DUP1 PUSH4 0x3F4BA83A EQ PUSH2 0x7FB JUMPI DUP1 PUSH4 0x41D3630A EQ PUSH2 0x810 JUMPI DUP1 PUSH4 0x4585E33B EQ PUSH2 0x830 JUMPI DUP1 PUSH4 0x4626402B EQ PUSH2 0x850 JUMPI DUP1 PUSH4 0x472BE74A EQ PUSH2 0x888 JUMPI PUSH2 0x4EC JUMP JUMPDEST DUP1 PUSH4 0x20408339 GT PUSH2 0x457 JUMPI DUP1 PUSH4 0x2E17DE78 GT PUSH2 0x41B JUMPI DUP1 PUSH4 0x2E17DE78 EQ PUSH2 0x710 JUMPI DUP1 PUSH4 0x337AA4C4 EQ PUSH2 0x730 JUMPI DUP1 PUSH4 0x34FEA342 EQ PUSH2 0x75D JUMPI DUP1 PUSH4 0x366B2EFF EQ PUSH2 0x78A JUMPI DUP1 PUSH4 0x3AE58EF2 EQ PUSH2 0x7A1 JUMPI DUP1 PUSH4 0x3E50A556 EQ PUSH2 0x7CE JUMPI PUSH2 0x4EC JUMP JUMPDEST DUP1 PUSH4 0x20408339 EQ PUSH2 0x633 JUMPI DUP1 PUSH4 0x260429C2 EQ PUSH2 0x653 JUMPI DUP1 PUSH4 0x2C070D7D EQ PUSH2 0x680 JUMPI DUP1 PUSH4 0x2C52BED9 EQ PUSH2 0x6B6 JUMPI DUP1 PUSH4 0x2CF01B55 EQ PUSH2 0x6E3 JUMPI PUSH2 0x4EC JUMP JUMPDEST DUP1 PUSH4 0xFB5A6B4 GT PUSH2 0x4A9 JUMPI DUP1 PUSH4 0xFB5A6B4 EQ PUSH2 0x58F JUMPI DUP1 PUSH4 0x1427FC05 EQ PUSH2 0x5A5 JUMPI DUP1 PUSH4 0x14D76685 EQ PUSH2 0x5BA JUMPI DUP1 PUSH4 0x15BF6C03 EQ PUSH2 0x5DA JUMPI DUP1 PUSH4 0x1C0B5A3F EQ PUSH2 0x5F0 JUMPI DUP1 PUSH4 0x1D69EBE6 EQ PUSH2 0x606 JUMPI PUSH2 0x4EC JUMP JUMPDEST DUP1 PUSH4 0x3793298 EQ PUSH2 0x4FA JUMPI DUP1 PUSH4 0x5A4263D EQ PUSH2 0x523 JUMPI DUP1 PUSH4 0x70A888F EQ PUSH2 0x539 JUMPI DUP1 PUSH4 0xA30307D EQ PUSH2 0x559 JUMPI DUP1 PUSH4 0xE80F0B3 EQ PUSH2 0x56F JUMPI PUSH2 0x4EC JUMP JUMPDEST CALLDATASIZE PUSH2 0x4EC JUMPI STOP JUMPDEST CALLVALUE DUP1 ISZERO PUSH2 0x4F8 JUMPI PUSH1 0x0 DUP1 REVERT JUMPDEST STOP JUMPDEST CALLVALUE DUP1 ISZERO PUSH2 0x506 JUMPI PUSH1 0x0 DUP1 REVERT JUMPDEST POP PUSH2 0x510 PUSH1 0x14 SLOAD DUP2 JUMP JUMPDEST PUSH1 0x40 MLOAD SWAP1 DUP2 MSTORE PUSH1 0x20 ADD JUMPDEST PUSH1 0x40 MLOAD DUP1 SWAP2 SUB SWAP1 RETURN JUMPDEST CALLVALUE DUP1 ISZERO PUSH2 0x52F JUMPI PUSH1 0x0 DUP1 REVERT JUMPDEST POP PUSH2 0x510 PUSH1 0x19 SLOAD DUP2 JUMP JUMPDEST CALLVALUE DUP1 ISZERO PUSH2 0x545 JUMPI PUSH1 0x0 DUP1 REVERT JUMPDEST POP PUSH2 0x4F8 PUSH2 0x554 CALLDATASIZE PUSH1 0x4 PUSH2 0x3A0F JUMP JUMPDEST PUSH2 0x116A JUMP JUMPDEST CALLVALUE DUP1 ISZERO PUSH2 0x565 JUMPI PUSH1 0x0 DUP1 REVERT JUMPDEST POP PUSH2 0x510 PUSH1 0x20 SLOAD DUP2 JUMP JUMPDEST CALLVALUE DUP1 ISZERO PUSH2 0x57B JUMPI PUSH1 0x0 DUP1 REVERT JUMPDEST POP PUSH2 0x4F8 PUSH2 0x58A CALLDATASIZE PUSH1 0x4 PUSH2 0x3A44 JUMP JUMPDEST PUSH2 0x11B2 JUMP JUMPDEST CALLVALUE DUP1 ISZERO PUSH2 0x59B JUMPI PUSH1 0x0 DUP1 REVERT JUMPDEST POP PUSH2 0x510 PUSH1 0x7 SLOAD DUP2 JUMP JUMPDEST CALLVALUE DUP1 ISZERO PUSH2 0x5B1 JUMPI PUSH1 0x0 DUP1 REVERT JUMPDEST POP PUSH2 0x4F8 PUSH2 0x1233 JUMP JUMPDEST CALLVALUE DUP1 ISZERO PUSH2 0x5C6 JUMPI PUSH1 0x0 DUP1 REVERT JUMPDEST POP PUSH2 0x4F8 PUSH2 0x5D5 CALLDATASIZE PUSH1 0x4 PUSH2 0x3A0F JUMP JUMPDEST PUSH2 0x1241 JUMP JUMPDEST CALLVALUE DUP1 ISZERO PUSH2 0x5E6 JUMPI PUSH1 0x0 DUP1 REVERT JUMPDEST POP PUSH2 0x510 PUSH1 0x8 SLOAD DUP2 JUMP JUMPDEST CALLVALUE DUP1 ISZERO PUSH2 0x5FC JUMPI PUSH1 0x0 DUP1 REVERT JUMPDEST POP PUSH2 0x510 PUSH1 0x3 SLOAD DUP2 JUMP JUMPDEST CALLVALUE DUP1 ISZERO PUSH2 0x612 JUMPI PUSH1 0x0 DUP1 REVERT JUMPDEST POP PUSH2 0x626 PUSH2 0x621 CALLDATASIZE PUSH1 0x4 PUSH2 0x3A81 JUMP JUMPDEST PUSH2 0x135B JUMP JUMPDEST PUSH1 0x40 MLOAD PUSH2 0x51A SWAP2 SWAP1 PUSH2 0x3A9C JUMP JUMPDEST CALLVALUE DUP1 ISZERO PUSH2 0x63F JUMPI PUSH1 0x0 DUP1 REVERT JUMPDEST POP PUSH2 0x510 PUSH2 0x64E CALLDATASIZE PUSH1 0x4 PUSH2 0x3AE8 JUMP JUMPDEST PUSH2 0x1385 JUMP JUMPDEST CALLVALUE DUP1 ISZERO PUSH2 0x65F JUMPI PUSH1 0x0 DUP1 REVERT JUMPDEST POP PUSH2 0x510 PUSH2 0x66E CALLDATASIZE PUSH1 0x4 PUSH2 0x3A81 JUMP JUMPDEST PUSH1 0x29 PUSH1 0x20 MSTORE PUSH1 0x0 SWAP1 DUP2 MSTORE PUSH1 0x40 SWAP1 KECCAK256 SLOAD DUP2 JUMP JUMPDEST CALLVALUE DUP1 ISZERO PUSH2 0x68C JUMPI PUSH1 0x0 DUP1 REVERT JUMPDEST POP PUSH2 0x510 PUSH2 0x69B CALLDATASIZE PUSH1 0x4 PUSH2 0x3A81 JUMP JUMPDEST PUSH1 0x1 PUSH1 0x1 PUSH1 0xA0 SHL SUB AND PUSH1 0x0 SWAP1 DUP2 MSTORE PUSH1 0x35 PUSH1 0x20 MSTORE PUSH1 0x40 SWAP1 KECCAK256 SLOAD SWAP1 JUMP JUMPDEST CALLVALUE DUP1 ISZERO PUSH2 0x6C2 JUMPI PUSH1 0x0 DUP1 REVERT JUMPDEST POP PUSH2 0x510 PUSH2 0x6D1 CALLDATASIZE PUSH1 0x4 PUSH2 0x3A81 JUMP JUMPDEST PUSH1 0x12 PUSH1 0x20 MSTORE PUSH1 0x0 SWAP1 DUP2 MSTORE PUSH1 0x40 SWAP1 KECCAK256 SLOAD DUP2 JUMP JUMPDEST CALLVALUE DUP1 ISZERO PUSH2 0x6EF JUMPI PUSH1 0x0 DUP1 REVERT JUMPDEST POP PUSH2 0x510 PUSH2 0x6FE CALLDATASIZE PUSH1 0x4 PUSH2 0x3A81 JUMP JUMPDEST PUSH1 0x16 PUSH1 0x20 MSTORE PUSH1 0x0 SWAP1 DUP2 MSTORE PUSH1 0x40 SWAP1 KECCAK256 SLOAD DUP2 JUMP JUMPDEST CALLVALUE DUP1 ISZERO PUSH2 0x71C JUMPI PUSH1 0x0 DUP1 REVERT JUMPDEST POP PUSH2 0x4F8 PUSH2 0x72B CALLDATASIZE PUSH1 0x4 PUSH2 0x3A0F JUMP JUMPDEST PUSH2 0x139A JUMP JUMPDEST CALLVALUE DUP1 ISZERO PUSH2 0x73C JUMPI PUSH1 0x0 DUP1 REVERT JUMPDEST POP PUSH2 0x510 PUSH2 0x74B CALLDATASIZE PUSH1 0x4 PUSH2 0x3A81 JUMP JUMPDEST PUSH1 0x2B PUSH1 0x20 MSTORE PUSH1 0x0 SWAP1 DUP2 MSTORE PUSH1 0x40 SWAP1 KECCAK256 SLOAD DUP2 JUMP JUMPDEST CALLVALUE DUP1 ISZERO PUSH2 0x769 JUMPI PUSH1 0x0 DUP1 REVERT JUMPDEST POP PUSH2 0x510 PUSH2 0x778 CALLDATASIZE PUSH1 0x4 PUSH2 0x3A81 JUMP JUMPDEST PUSH1 0x17 PUSH1 0x20 MSTORE PUSH1 0x0 SWAP1 DUP2 MSTORE PUSH1 0x40 SWAP1 KECCAK256 SLOAD DUP2 JUMP JUMPDEST CALLVALUE DUP1 ISZERO PUSH2 0x796 JUMPI PUSH1 0x0 DUP1 REVERT JUMPDEST POP PUSH2 0x510 PUSH3 0x278D00 DUP2 JUMP JUMPDEST CALLVALUE DUP1 ISZERO PUSH2 0x7AD JUMPI PUSH1 0x0 DUP1 REVERT JUMPDEST POP PUSH2 0x510 PUSH2 0x7BC CALLDATASIZE PUSH1 0x4 PUSH2 0x3A81 JUMP JUMPDEST PUSH1 0x11 PUSH1 0x20 MSTORE PUSH1 0x0 SWAP1 DUP2 MSTORE PUSH1 0x40 SWAP1 KECCAK256 SLOAD DUP2 JUMP JUMPDEST CALLVALUE DUP1 ISZERO PUSH2 0x7DA JUMPI PUSH1 0x0 DUP1 REVERT JUMPDEST POP PUSH2 0x510 PUSH2 0x7E9 CALLDATASIZE PUSH1 0x4 PUSH2 0x3A81 JUMP JUMPDEST PUSH1 0x22 PUSH1 0x20 MSTORE PUSH1 0x0 SWAP1 DUP2 MSTORE PUSH1 0x40 SWAP1 KECCAK256 SLOAD DUP2 JUMP JUMPDEST CALLVALUE DUP1 ISZERO PUSH2 0x807 JUMPI PUSH1 0x0 DUP1 REVERT JUMPDEST POP PUSH2 0x4F8 PUSH2 0x166E JUMP JUMPDEST CALLVALUE DUP1 ISZERO PUSH2 0x81C JUMPI PUSH1 0x0 DUP1 REVERT JUMPDEST POP PUSH2 0x626 PUSH2 0x82B CALLDATASIZE PUSH1 0x4 PUSH2 0x3A81 JUMP JUMPDEST PUSH2 0x1680 JUMP JUMPDEST CALLVALUE DUP1 ISZERO PUSH2 0x83C JUMPI PUSH1 0x0 DUP1 REVERT JUMPDEST POP PUSH2 0x4F8 PUSH2 0x84B CALLDATASIZE PUSH1 0x4 PUSH2 0x3B1B JUMP JUMPDEST PUSH2 0x16A4 JUMP JUMPDEST CALLVALUE DUP1 ISZERO PUSH2 0x85C JUMPI PUSH1 0x0 DUP1 REVERT JUMPDEST POP PUSH1 0x6 SLOAD PUSH2 0x870 SWAP1 PUSH1 0x1 PUSH1 0x1 PUSH1 0xA0 SHL SUB AND DUP2 JUMP JUMPDEST PUSH1 0x40 MLOAD PUSH1 0x1 PUSH1 0x1 PUSH1 0xA0 SHL SUB SWAP1 SWAP2 AND DUP2 MSTORE PUSH1 0x20 ADD PUSH2 0x51A JUMP JUMPDEST CALLVALUE DUP1 ISZERO PUSH2 0x894 JUMPI PUSH1 0x0 DUP1 REVERT JUMPDEST POP PUSH2 0x510 PUSH2 0x8A3 CALLDATASIZE PUSH1 0x4 PUSH2 0x3A81 JUMP JUMPDEST PUSH1 0x35 PUSH1 0x20 MSTORE PUSH1 0x0 SWAP1 DUP2 MSTORE PUSH1 0x40 SWAP1 KECCAK256 SLOAD DUP2 JUMP JUMPDEST CALLVALUE DUP1 ISZERO PUSH2 0x8C1 JUMPI PUSH1 0x0 DUP1 REVERT JUMPDEST POP PUSH2 0x870 PUSH2 0x8D0 CALLDATASIZE PUSH1 0x4 PUSH2 0x3A81 JUMP JUMPDEST PUSH1 0x23 PUSH1 0x20 MSTORE PUSH1 0x0 SWAP1 DUP2 MSTORE PUSH1 0x40 SWAP1 KECCAK256 SLOAD PUSH1 0x1 PUSH1 0x1 PUSH1 0xA0 SHL SUB AND DUP2 JUMP JUMPDEST CALLVALUE DUP1 ISZERO PUSH2 0x8F7 JUMPI PUSH1 0x0 DUP1 REVERT JUMPDEST POP PUSH2 0x91B PUSH2 0x906 CALLDATASIZE PUSH1 0x4 PUSH2 0x3A81 JUMP JUMPDEST PUSH1 0x30 PUSH1 0x20 MSTORE PUSH1 0x0 SWAP1 DUP2 MSTORE PUSH1 0x40 SWAP1 KECCAK256 SLOAD PUSH1 0xFF AND DUP2 JUMP JUMPDEST PUSH1 0x40 MLOAD SWAP1 ISZERO ISZERO DUP2 MSTORE PUSH1 0x20 ADD PUSH2 0x51A JUMP JUMPDEST CALLVALUE DUP1 ISZERO PUSH2 0x937 JUMPI PUSH1 0x0 DUP1 REVERT JUMPDEST POP PUSH2 0x510 PUSH2 0x946 CALLDATASIZE PUSH1 0x4 PUSH2 0x3A81 JUMP JUMPDEST PUSH1 0x1 PUSH1 0x1 PUSH1 0xA0 SHL SUB AND PUSH1 0x0 SWAP1 DUP2 MSTORE PUSH1 0xF PUSH1 0x20 MSTORE PUSH1 0x40 SWAP1 KECCAK256 SLOAD SWAP1 JUMP JUMPDEST CALLVALUE DUP1 ISZERO PUSH2 0x96D JUMPI PUSH1 0x0 DUP1 REVERT JUMPDEST POP PUSH2 0x510 PUSH1 0x2D SLOAD DUP2 JUMP JUMPDEST CALLVALUE DUP1 ISZERO PUSH2 0x983 JUMPI PUSH1 0x0 DUP1 REVERT JUMPDEST POP PUSH2 0x510 PUSH1 0x1D SLOAD DUP2 JUMP JUMPDEST CALLVALUE DUP1 ISZERO PUSH2 0x999 JUMPI PUSH1 0x0 DUP1 REVERT JUMPDEST POP PUSH1 0x0 SLOAD PUSH1 0xFF AND PUSH2 0x91B JUMP JUMPDEST CALLVALUE DUP1 ISZERO PUSH2 0x9B1 JUMPI PUSH1 0x0 DUP1 REVERT JUMPDEST POP PUSH2 0x4F8 PUSH2 0x9C0 CALLDATASIZE PUSH1 0x4 PUSH2 0x3B8F JUMP JUMPDEST PUSH2 0x1715 JUMP JUMPDEST CALLVALUE DUP1 ISZERO PUSH2 0x9D1 JUMPI PUSH1 0x0 DUP1 REVERT JUMPDEST POP PUSH2 0x4F8 PUSH2 0x9E0 CALLDATASIZE PUSH1 0x4 PUSH2 0x3A81 JUMP JUMPDEST PUSH2 0x17E2 JUMP JUMPDEST CALLVALUE DUP1 ISZERO PUSH2 0x9F1 JUMPI PUSH1 0x0 DUP1 REVERT JUMPDEST POP PUSH2 0x510 PUSH1 0x31 SLOAD DUP2 JUMP JUMPDEST CALLVALUE DUP1 ISZERO PUSH2 0xA07 JUMPI PUSH1 0x0 DUP1 REVERT JUMPDEST POP PUSH2 0x4F8 PUSH2 0xA16 CALLDATASIZE PUSH1 0x4 PUSH2 0x3A0F JUMP JUMPDEST PUSH2 0x18D5 JUMP JUMPDEST CALLVALUE DUP1 ISZERO PUSH2 0xA27 JUMPI PUSH1 0x0 DUP1 REVERT JUMPDEST POP PUSH2 0x510 PUSH2 0xA36 CALLDATASIZE PUSH1 0x4 PUSH2 0x3AE8 JUMP JUMPDEST PUSH2 0x190F JUMP JUMPDEST CALLVALUE DUP1 ISZERO PUSH2 0xA47 JUMPI PUSH1 0x0 DUP1 REVERT JUMPDEST POP PUSH2 0xA5B PUSH2 0xA56 CALLDATASIZE PUSH1 0x4 PUSH2 0x3B1B JUMP JUMPDEST PUSH2 0x191D JUMP JUMPDEST PUSH1 0x40 MLOAD PUSH2 0x51A SWAP3 SWAP2 SWAP1 PUSH2 0x3BD5 JUMP JUMPDEST CALLVALUE DUP1 ISZERO PUSH2 0xA75 JUMPI PUSH1 0x0 DUP1 REVERT JUMPDEST POP PUSH2 0x626 PUSH2 0x1975 JUMP JUMPDEST CALLVALUE DUP1 ISZERO PUSH2 0xA8A JUMPI PUSH1 0x0 DUP1 REVERT JUMPDEST POP PUSH2 0x4F8 PUSH2 0x1986 JUMP JUMPDEST CALLVALUE DUP1 ISZERO PUSH2 0xA9F JUMPI PUSH1 0x0 DUP1 REVERT JUMPDEST POP PUSH2 0x510 PUSH2 0xAAE CALLDATASIZE PUSH1 0x4 PUSH2 0x3A81 JUMP JUMPDEST PUSH1 0x1 PUSH1 0x1 PUSH1 0xA0 SHL SUB AND PUSH1 0x0 SWAP1 DUP2 MSTORE PUSH1 0x29 PUSH1 0x20 MSTORE PUSH1 0x40 SWAP1 KECCAK256 SLOAD SWAP1 JUMP JUMPDEST CALLVALUE DUP1 ISZERO PUSH2 0xAD5 JUMPI PUSH1 0x0 DUP1 REVERT JUMPDEST POP PUSH2 0x510 PUSH1 0x1B SLOAD DUP2 JUMP JUMPDEST CALLVALUE DUP1 ISZERO PUSH2 0xAEB JUMPI PUSH1 0x0 DUP1 REVERT JUMPDEST POP PUSH2 0x510 PUSH1 0x1F SLOAD DUP2 JUMP JUMPDEST CALLVALUE DUP1 ISZERO PUSH2 0xB01 JUMPI PUSH1 0x0 DUP1 REVERT JUMPDEST POP PUSH2 0x510 PUSH2 0xB10 CALLDATASIZE PUSH1 0x4 PUSH2 0x3A81 JUMP JUMPDEST PUSH2 0x1998 JUMP JUMPDEST CALLVALUE DUP1 ISZERO PUSH2 0xB21 JUMPI PUSH1 0x0 DUP1 REVERT JUMPDEST POP PUSH2 0x4F8 PUSH2 0xB30 CALLDATASIZE PUSH1 0x4 PUSH2 0x3A81 JUMP JUMPDEST PUSH2 0x19A4 JUMP JUMPDEST CALLVALUE DUP1 ISZERO PUSH2 0xB41 JUMPI PUSH1 0x0 DUP1 REVERT JUMPDEST POP PUSH2 0x4F8 PUSH2 0xB50 CALLDATASIZE PUSH1 0x4 PUSH2 0x3B8F JUMP JUMPDEST PUSH2 0x1A24 JUMP JUMPDEST CALLVALUE DUP1 ISZERO PUSH2 0xB61 JUMPI PUSH1 0x0 DUP1 REVERT JUMPDEST POP PUSH2 0x510 PUSH1 0x13 SLOAD DUP2 JUMP JUMPDEST CALLVALUE DUP1 ISZERO PUSH2 0xB77 JUMPI PUSH1 0x0 DUP1 REVERT JUMPDEST POP PUSH2 0x4F8 PUSH2 0x1A37 JUMP JUMPDEST CALLVALUE DUP1 ISZERO PUSH2 0xB8C JUMPI PUSH1 0x0 DUP1 REVERT JUMPDEST POP PUSH2 0x510 PUSH2 0xB9B CALLDATASIZE PUSH1 0x4 PUSH2 0x3A81 JUMP JUMPDEST PUSH1 0x2C PUSH1 0x20 MSTORE PUSH1 0x0 SWAP1 DUP2 MSTORE PUSH1 0x40 SWAP1 KECCAK256 SLOAD DUP2 JUMP JUMPDEST CALLVALUE DUP1 ISZERO PUSH2 0xBB9 JUMPI PUSH1 0x0 DUP1 REVERT JUMPDEST POP PUSH2 0x510 PUSH2 0xBC8 CALLDATASIZE PUSH1 0x4 PUSH2 0x3AE8 JUMP JUMPDEST PUSH1 0x26 PUSH1 0x20 SWAP1 DUP2 MSTORE PUSH1 0x0 SWAP3 DUP4 MSTORE PUSH1 0x40 DUP1 DUP5 KECCAK256 SWAP1 SWAP2 MSTORE SWAP1 DUP3 MSTORE SWAP1 KECCAK256 SLOAD DUP2 JUMP JUMPDEST CALLVALUE DUP1 ISZERO PUSH2 0xBF1 JUMPI PUSH1 0x0 DUP1 REVERT JUMPDEST POP PUSH2 0x4F8 PUSH2 0xC00 CALLDATASIZE PUSH1 0x4 PUSH2 0x3CB6 JUMP JUMPDEST PUSH2 0x1A47 JUMP JUMPDEST CALLVALUE DUP1 ISZERO PUSH2 0xC11 JUMPI PUSH1 0x0 DUP1 REVERT JUMPDEST POP PUSH1 0x0 SLOAD PUSH2 0x100 SWAP1 DIV PUSH1 0x1 PUSH1 0x1 PUSH1 0xA0 SHL SUB AND PUSH2 0x870 JUMP JUMPDEST CALLVALUE DUP1 ISZERO PUSH2 0xC34 JUMPI PUSH1 0x0 DUP1 REVERT JUMPDEST POP PUSH2 0x510 PUSH1 0x18 SLOAD DUP2 JUMP JUMPDEST CALLVALUE DUP1 ISZERO PUSH2 0xC4A JUMPI PUSH1 0x0 DUP1 REVERT JUMPDEST POP PUSH2 0x510 PUSH2 0xC59 CALLDATASIZE PUSH1 0x4 PUSH2 0x3AE8 JUMP JUMPDEST PUSH1 0x27 PUSH1 0x20 SWAP1 DUP2 MSTORE PUSH1 0x0 SWAP3 DUP4 MSTORE PUSH1 0x40 DUP1 DUP5 KECCAK256 SWAP1 SWAP2 MSTORE SWAP1 DUP3 MSTORE SWAP1 KECCAK256 SLOAD DUP2 JUMP JUMPDEST CALLVALUE DUP1 ISZERO PUSH2 0xC82 JUMPI PUSH1 0x0 DUP1 REVERT JUMPDEST POP PUSH2 0x4F8 PUSH2 0xC91 CALLDATASIZE PUSH1 0x4 PUSH2 0x3A0F JUMP JUMPDEST PUSH2 0x1E12 JUMP JUMPDEST CALLVALUE DUP1 ISZERO PUSH2 0xCA2 JUMPI PUSH1 0x0 DUP1 REVERT JUMPDEST POP PUSH2 0x4F8 PUSH2 0xCB1 CALLDATASIZE PUSH1 0x4 PUSH2 0x3A0F JUMP JUMPDEST PUSH2 0x1EA2 JUMP JUMPDEST CALLVALUE DUP1 ISZERO PUSH2 0xCC2 JUMPI PUSH1 0x0 DUP1 REVERT JUMPDEST POP PUSH2 0x510 PUSH1 0x15 SLOAD DUP2 JUMP JUMPDEST CALLVALUE DUP1 ISZERO PUSH2 0xCD8 JUMPI PUSH1 0x0 DUP1 REVERT JUMPDEST POP PUSH2 0x510 PUSH2 0xCE7 CALLDATASIZE PUSH1 0x4 PUSH2 0x3A81 JUMP JUMPDEST PUSH1 0x9 PUSH1 0x20 MSTORE PUSH1 0x0 SWAP1 DUP2 MSTORE PUSH1 0x40 SWAP1 KECCAK256 SLOAD DUP2 JUMP JUMPDEST CALLVALUE DUP1 ISZERO PUSH2 0xD05 JUMPI PUSH1 0x0 DUP1 REVERT JUMPDEST POP PUSH2 0x510 PUSH2 0xD14 CALLDATASIZE PUSH1 0x4 PUSH2 0x3A81 JUMP JUMPDEST PUSH2 0x1EAF JUMP JUMPDEST CALLVALUE DUP1 ISZERO PUSH2 0xD25 JUMPI PUSH1 0x0 DUP1 REVERT JUMPDEST POP PUSH2 0x91B PUSH2 0x1EBB JUMP JUMPDEST CALLVALUE DUP1 ISZERO PUSH2 0xD3A JUMPI PUSH1 0x0 DUP1 REVERT JUMPDEST POP PUSH2 0x510 PUSH2 0xD49 CALLDATASIZE PUSH1 0x4 PUSH2 0x3A0F JUMP JUMPDEST PUSH2 0x217C JUMP JUMPDEST CALLVALUE DUP1 ISZERO PUSH2 0xD5A JUMPI PUSH1 0x0 DUP1 REVERT JUMPDEST POP PUSH2 0x510 PUSH2 0x21A0 JUMP JUMPDEST CALLVALUE DUP1 ISZERO PUSH2 0xD6F JUMPI PUSH1 0x0 DUP1 REVERT JUMPDEST POP PUSH2 0x510 PUSH1 0xC SLOAD DUP2 JUMP JUMPDEST CALLVALUE DUP1 ISZERO PUSH2 0xD85 JUMPI PUSH1 0x0 DUP1 REVERT JUMPDEST POP PUSH2 0x510 PUSH2 0xD94 CALLDATASIZE PUSH1 0x4 PUSH2 0x3A81 JUMP JUMPDEST PUSH1 0x1 PUSH1 0x1 PUSH1 0xA0 SHL SUB AND PUSH1 0x0 SWAP1 DUP2 MSTORE PUSH1 0x9 PUSH1 0x20 MSTORE PUSH1 0x40 SWAP1 KECCAK256 SLOAD SWAP1 JUMP JUMPDEST CALLVALUE DUP1 ISZERO PUSH2 0xDBB JUMPI PUSH1 0x0 DUP1 REVERT JUMPDEST POP PUSH2 0x91B PUSH2 0x21B2 JUMP JUMPDEST CALLVALUE DUP1 ISZERO PUSH2 0xDD0 JUMPI PUSH1 0x0 DUP1 REVERT JUMPDEST POP PUSH2 0x510 PUSH2 0x2710 DUP2 JUMP JUMPDEST CALLVALUE DUP1 ISZERO PUSH2 0xDE6 JUMPI PUSH1 0x0 DUP1 REVERT JUMPDEST POP PUSH2 0x510 PUSH1 0x1E SLOAD DUP2 JUMP JUMPDEST CALLVALUE DUP1 ISZERO PUSH2 0xDFC JUMPI PUSH1 0x0 DUP1 REVERT JUMPDEST POP PUSH2 0xE3D PUSH2 0xE0B CALLDATASIZE PUSH1 0x4 PUSH2 0x3AE8 JUMP JUMPDEST PUSH1 0xE PUSH1 0x20 SWAP1 DUP2 MSTORE PUSH1 0x0 SWAP3 DUP4 MSTORE PUSH1 0x40 DUP1 DUP5 KECCAK256 SWAP1 SWAP2 MSTORE SWAP1 DUP3 MSTORE SWAP1 KECCAK256 DUP1 SLOAD PUSH1 0x1 DUP3 ADD SLOAD PUSH1 0x2 DUP4 ADD SLOAD PUSH1 0x3 SWAP1 SWAP4 ADD SLOAD SWAP2 SWAP3 SWAP1 SWAP2 DUP5 JUMP JUMPDEST PUSH1 0x40 DUP1 MLOAD SWAP5 DUP6 MSTORE PUSH1 0x20 DUP6 ADD SWAP4 SWAP1 SWAP4 MSTORE SWAP2 DUP4 ADD MSTORE PUSH1 0x60 DUP3 ADD MSTORE PUSH1 0x80 ADD PUSH2 0x51A JUMP JUMPDEST CALLVALUE DUP1 ISZERO PUSH2 0xE69 JUMPI PUSH1 0x0 DUP1 REVERT JUMPDEST POP PUSH2 0x4F8 PUSH2 0xE78 CALLDATASIZE PUSH1 0x4 PUSH2 0x3B8F JUMP JUMPDEST PUSH2 0x22CD JUMP JUMPDEST CALLVALUE DUP1 ISZERO PUSH2 0xE89 JUMPI PUSH1 0x0 DUP1 REVERT JUMPDEST POP PUSH2 0x870 PUSH2 0xE98 CALLDATASIZE PUSH1 0x4 PUSH2 0x3D0D JUMP JUMPDEST DUP1 MLOAD PUSH1 0x20 DUP2 DUP4 ADD DUP2 ADD DUP1 MLOAD PUSH1 0x2E DUP3 MSTORE SWAP3 DUP3 ADD SWAP2 SWAP1 SWAP4 ADD KECCAK256 SWAP2 MSTORE SLOAD PUSH1 0x1 PUSH1 0x1 PUSH1 0xA0 SHL SUB AND DUP2 JUMP JUMPDEST CALLVALUE DUP1 ISZERO PUSH2 0xECA JUMPI PUSH1 0x0 DUP1 REVERT JUMPDEST POP PUSH2 0x4F8 PUSH2 0xED9 CALLDATASIZE PUSH1 0x4 PUSH2 0x3A0F JUMP JUMPDEST PUSH2 0x2374 JUMP JUMPDEST CALLVALUE DUP1 ISZERO PUSH2 0xEEA JUMPI PUSH1 0x0 DUP1 REVERT JUMPDEST POP PUSH2 0x510 PUSH2 0xEF9 CALLDATASIZE PUSH1 0x4 PUSH2 0x3A81 JUMP JUMPDEST PUSH1 0xF PUSH1 0x20 MSTORE PUSH1 0x0 SWAP1 DUP2 MSTORE PUSH1 0x40 SWAP1 KECCAK256 SLOAD DUP2 JUMP JUMPDEST CALLVALUE DUP1 ISZERO PUSH2 0xF17 JUMPI PUSH1 0x0 DUP1 REVERT JUMPDEST POP PUSH2 0x510 PUSH2 0xF26 CALLDATASIZE PUSH1 0x4 PUSH2 0x3A81 JUMP JUMPDEST PUSH2 0x2381 JUMP JUMPDEST CALLVALUE DUP1 ISZERO PUSH2 0xF37 JUMPI PUSH1 0x0 DUP1 REVERT JUMPDEST POP PUSH2 0x510 PUSH2 0xF46 CALLDATASIZE PUSH1 0x4 PUSH2 0x3A81 JUMP JUMPDEST PUSH1 0x2A PUSH1 0x20 MSTORE PUSH1 0x0 SWAP1 DUP2 MSTORE PUSH1 0x40 SWAP1 KECCAK256 SLOAD DUP2 JUMP JUMPDEST CALLVALUE DUP1 ISZERO PUSH2 0xF64 JUMPI PUSH1 0x0 DUP1 REVERT JUMPDEST POP PUSH2 0x510 PUSH2 0xF73 CALLDATASIZE PUSH1 0x4 PUSH2 0x3AE8 JUMP JUMPDEST PUSH1 0x28 PUSH1 0x20 SWAP1 DUP2 MSTORE PUSH1 0x0 SWAP3 DUP4 MSTORE PUSH1 0x40 DUP1 DUP5 KECCAK256 SWAP1 SWAP2 MSTORE SWAP1 DUP3 MSTORE SWAP1 KECCAK256 SLOAD DUP2 JUMP JUMPDEST CALLVALUE DUP1 ISZERO PUSH2 0xF9C JUMPI PUSH1 0x0 DUP1 REVERT JUMPDEST POP PUSH2 0x510 PUSH1 0x1C SLOAD DUP2 JUMP JUMPDEST CALLVALUE DUP1 ISZERO PUSH2 0xFB2 JUMPI PUSH1 0x0 DUP1 REVERT JUMPDEST POP PUSH2 0x510 PUSH2 0xFC1 CALLDATASIZE PUSH1 0x4 PUSH2 0x3A81 JUMP JUMPDEST PUSH1 0x21 PUSH1 0x20 MSTORE PUSH1 0x0 SWAP1 DUP2 MSTORE PUSH1 0x40 SWAP1 KECCAK256 SLOAD DUP2 JUMP JUMPDEST CALLVALUE DUP1 ISZERO PUSH2 0xFDF JUMPI PUSH1 0x0 DUP1 REVERT JUMPDEST POP PUSH2 0xE3D PUSH2 0xFEE CALLDATASIZE PUSH1 0x4 PUSH2 0x3AE8 JUMP JUMPDEST PUSH1 0xD PUSH1 0x20 SWAP1 DUP2 MSTORE PUSH1 0x0 SWAP3 DUP4 MSTORE PUSH1 0x40 DUP1 DUP5 KECCAK256 SWAP1 SWAP2 MSTORE SWAP1 DUP3 MSTORE SWAP1 KECCAK256 DUP1 SLOAD PUSH1 0x1 DUP3 ADD SLOAD PUSH1 0x2 DUP4 ADD SLOAD PUSH1 0x3 SWAP1 SWAP4 ADD SLOAD SWAP2 SWAP3 SWAP1 SWAP2 DUP5 JUMP JUMPDEST CALLVALUE DUP1 ISZERO PUSH2 0x102C JUMPI PUSH1 0x0 DUP1 REVERT JUMPDEST POP PUSH2 0x510 PUSH2 0x23B3 JUMP JUMPDEST CALLVALUE DUP1 ISZERO PUSH2 0x1041 JUMPI PUSH1 0x0 DUP1 REVERT JUMPDEST POP PUSH2 0x91B PUSH2 0x1050 CALLDATASIZE PUSH1 0x4 PUSH2 0x3A81 JUMP JUMPDEST PUSH1 0x2F PUSH1 0x20 MSTORE PUSH1 0x0 SWAP1 DUP2 MSTORE PUSH1 0x40 SWAP1 KECCAK256 SLOAD PUSH1 0xFF AND DUP2 JUMP JUMPDEST CALLVALUE DUP1 ISZERO PUSH2 0x1071 JUMPI PUSH1 0x0 DUP1 REVERT JUMPDEST POP PUSH2 0x510 PUSH2 0x1080 CALLDATASIZE PUSH1 0x4 PUSH2 0x3A81 JUMP JUMPDEST PUSH1 0x1 PUSH1 0x1 PUSH1 0xA0 SHL SUB AND PUSH1 0x0 SWAP1 DUP2 MSTORE PUSH1 0x16 PUSH1 0x20 MSTORE PUSH1 0x40 SWAP1 KECCAK256 SLOAD SWAP1 JUMP JUMPDEST CALLVALUE DUP1 ISZERO PUSH2 0x10A7 JUMPI PUSH1 0x0 DUP1 REVERT JUMPDEST POP PUSH2 0x510 PUSH1 0x34 SLOAD DUP2 JUMP JUMPDEST CALLVALUE DUP1 ISZERO PUSH2 0x10BD JUMPI PUSH1 0x0 DUP1 REVERT JUMPDEST POP PUSH2 0x4F8 PUSH2 0x10CC CALLDATASIZE PUSH1 0x4 PUSH2 0x3A81 JUMP JUMPDEST PUSH2 0x23D9 JUMP JUMPDEST CALLVALUE DUP1 ISZERO PUSH2 0x10DD JUMPI PUSH1 0x0 DUP1 REVERT JUMPDEST POP PUSH2 0x510 PUSH1 0x1A SLOAD DUP2 JUMP JUMPDEST CALLVALUE DUP1 ISZERO PUSH2 0x10F3 JUMPI PUSH1 0x0 DUP1 REVERT JUMPDEST POP PUSH2 0x510 PUSH2 0x1102 CALLDATASIZE PUSH1 0x4 PUSH2 0x3A81 JUMP JUMPDEST PUSH1 0x10 PUSH1 0x20 MSTORE PUSH1 0x0 SWAP1 DUP2 MSTORE PUSH1 0x40 SWAP1 KECCAK256 SLOAD DUP2 JUMP JUMPDEST CALLVALUE DUP1 ISZERO PUSH2 0x1120 JUMPI PUSH1 0x0 DUP1 REVERT JUMPDEST POP PUSH1 0x2 SLOAD PUSH2 0x870 SWAP1 PUSH1 0x1 PUSH1 0x1 PUSH1 0xA0 SHL SUB AND DUP2 JUMP JUMPDEST CALLVALUE DUP1 ISZERO PUSH2 0x1140 JUMPI PUSH1 0x0 DUP1 REVERT JUMPDEST POP PUSH2 0x510 PUSH1 0x32 SLOAD DUP2 JUMP JUMPDEST CALLVALUE DUP1 ISZERO PUSH2 0x1156 JUMPI PUSH1 0x0 DUP1 REVERT JUMPDEST POP PUSH2 0x4F8 PUSH2 0x1165 CALLDATASIZE PUSH1 0x4 PUSH2 0x3A0F JUMP JUMPDEST PUSH2 0x2417 JUMP JUMPDEST PUSH2 0x1172 PUSH2 0x2451 JUMP JUMPDEST PUSH1 0x7 DUP2 SWAP1 SSTORE PUSH1 0x40 DUP1 MLOAD DUP3 DUP2 MSTORE TIMESTAMP PUSH1 0x20 DUP3 ADD MSTORE PUSH32 0x2509BC22EA6153EBD9E7B07822AF9F37803779E8E68796CC2153A65E46C9A780 SWAP2 ADD PUSH1 0x40 MLOAD DUP1 SWAP2 SUB SWAP1 LOG1 POP JUMP JUMPDEST PUSH2 0x11BA PUSH2 0x2451 JUMP JUMPDEST PUSH1 0x40 MLOAD PUSH4 0xA9059CBB PUSH1 0xE0 SHL DUP2 MSTORE PUSH1 0x1 PUSH1 0x1 PUSH1 0xA0 SHL SUB DUP4 DUP2 AND PUSH1 0x4 DUP4 ADD MSTORE PUSH1 0x24 DUP3 ADD DUP4 SWAP1 MSTORE DUP5 AND SWAP1 PUSH4 0xA9059CBB SWAP1 PUSH1 0x44 ADD PUSH1 0x20 PUSH1 0x40 MLOAD DUP1 DUP4 SUB DUP2 PUSH1 0x0 DUP8 GAS CALL ISZERO DUP1 ISZERO PUSH2 0x1209 JUMPI RETURNDATASIZE PUSH1 0x0 DUP1 RETURNDATACOPY RETURNDATASIZE PUSH1 0x0 REVERT JUMPDEST POP POP POP POP PUSH1 0x40 MLOAD RETURNDATASIZE PUSH1 0x1F NOT PUSH1 0x1F DUP3 ADD AND DUP3 ADD DUP1 PUSH1 0x40 MSTORE POP DUP2 ADD SWAP1 PUSH2 0x122D SWAP2 SWAP1 PUSH2 0x3D42 JUMP JUMPDEST POP POP POP POP JUMP JUMPDEST PUSH2 0x123B PUSH2 0x2451 JUMP JUMPDEST TIMESTAMP PUSH1 0x3 SSTORE JUMP JUMPDEST PUSH2 0x1249 PUSH2 0x2451 JUMP JUMPDEST PUSH1 0x64 DUP2 GT DUP1 ISZERO PUSH2 0x125A JUMPI POP PUSH2 0x2710 DUP2 LT JUMPDEST PUSH2 0x12CA JUMPI PUSH1 0x40 MLOAD PUSH3 0x461BCD PUSH1 0xE5 SHL DUP2 MSTORE PUSH1 0x20 PUSH1 0x4 DUP3 ADD MSTORE PUSH1 0x36 PUSH1 0x24 DUP3 ADD MSTORE PUSH32 0x6C6F6E677465726D207374616B696E6720726577617264732072617465207368 PUSH1 0x44 DUP3 ADD MSTORE PUSH22 0x6F756C64206265206C657373207468616E2031303025 PUSH1 0x50 SHL PUSH1 0x64 DUP3 ADD MSTORE PUSH1 0x84 ADD JUMPDEST PUSH1 0x40 MLOAD DUP1 SWAP2 SUB SWAP1 REVERT JUMPDEST PUSH1 0x20 SLOAD DUP2 GT PUSH2 0x1356 JUMPI PUSH1 0x40 MLOAD PUSH3 0x461BCD PUSH1 0xE5 SHL DUP2 MSTORE PUSH1 0x20 PUSH1 0x4 DUP3 ADD MSTORE PUSH1 0x4C PUSH1 0x24 DUP3 ADD MSTORE PUSH32 0x4C6F6E677465726D207374616B696E6720726577617264732072617465206D75 PUSH1 0x44 DUP3 ADD MSTORE PUSH32 0x73742062652067726561746572207468616E206D756C7469706C696572207261 PUSH1 0x64 DUP3 ADD MSTORE PUSH12 0xE8CA40E0CAE440CAE0DEC6D PUSH1 0xA3 SHL PUSH1 0x84 DUP3 ADD MSTORE PUSH1 0xA4 ADD PUSH2 0x12C1 JUMP JUMPDEST PUSH1 0x1E SSTORE JUMP JUMPDEST PUSH1 0x1 PUSH1 0x1 PUSH1 0xA0 SHL SUB DUP2 AND PUSH1 0x0 SWAP1 DUP2 MSTORE PUSH1 0x24 PUSH1 0x20 MSTORE PUSH1 0x40 SWAP1 KECCAK256 PUSH1 0x60 SWAP1 PUSH2 0x137F SWAP1 PUSH2 0x2484 JUMP JUMPDEST SWAP3 SWAP2 POP POP JUMP JUMPDEST PUSH1 0x0 PUSH2 0x1393 DUP4 DUP4 PUSH1 0x2 PUSH2 0x2491 JUMP JUMPDEST SWAP4 SWAP3 POP POP POP JUMP JUMPDEST PUSH2 0x13A2 PUSH2 0x258F JUMP JUMPDEST DUP1 PUSH1 0x0 SUB PUSH2 0x13DF JUMPI PUSH1 0x40 MLOAD PUSH3 0x461BCD PUSH1 0xE5 SHL DUP2 MSTORE PUSH1 0x20 PUSH1 0x4 DUP3 ADD MSTORE PUSH1 0xA PUSH1 0x24 DUP3 ADD MSTORE PUSH10 0x616D6F756E74203D203 PUSH1 0xB4 SHL PUSH1 0x44 DUP3 ADD MSTORE PUSH1 0x64 ADD PUSH2 0x12C1 JUMP JUMPDEST CALLER PUSH1 0x0 SWAP1 DUP2 MSTORE PUSH1 0x16 PUSH1 0x20 MSTORE PUSH1 0x40 SWAP1 KECCAK256 SLOAD DUP2 GT ISZERO PUSH2 0x1451 JUMPI PUSH1 0x40 MLOAD PUSH3 0x461BCD PUSH1 0xE5 SHL DUP2 MSTORE PUSH1 0x20 PUSH1 0x4 DUP3 ADD MSTORE PUSH1 0x2A PUSH1 0x24 DUP3 ADD MSTORE PUSH32 0x596F75206469646E2774207374616B6520656E6F75676820746F6B656E732074 PUSH1 0x44 DUP3 ADD MSTORE PUSH10 0x6F20756E7374616B6521 PUSH1 0xB0 SHL PUSH1 0x64 DUP3 ADD MSTORE PUSH1 0x84 ADD PUSH2 0x12C1 JUMP JUMPDEST PUSH1 0x0 PUSH2 0x2710 PUSH1 0x18 SLOAD DUP4 PUSH2 0x1464 SWAP2 SWAP1 PUSH2 0x3D7A JUMP JUMPDEST PUSH2 0x146E SWAP2 SWAP1 PUSH2 0x3D91 JUMP JUMPDEST CALLER PUSH1 0x0 SWAP1 DUP2 MSTORE PUSH1 0x23 PUSH1 0x20 MSTORE PUSH1 0x40 SWAP1 KECCAK256 SLOAD SWAP1 SWAP2 POP PUSH1 0x1 PUSH1 0x1 PUSH1 0xA0 SHL SUB AND ISZERO PUSH2 0x14B8 JUMPI PUSH2 0x2710 PUSH1 0x19 SLOAD DUP3 PUSH2 0x14A0 SWAP2 SWAP1 PUSH2 0x3D7A JUMP JUMPDEST PUSH2 0x14AA SWAP2 SWAP1 PUSH2 0x3D91 JUMP JUMPDEST SWAP1 POP PUSH2 0x14B6 CALLER DUP4 PUSH2 0x25D5 JUMP JUMPDEST POP JUMPDEST CALLER PUSH1 0x0 SWAP1 DUP2 MSTORE PUSH1 0x16 PUSH1 0x20 MSTORE PUSH1 0x40 DUP2 KECCAK256 DUP1 SLOAD DUP5 SWAP3 SWAP1 PUSH2 0x14D7 SWAP1 DUP5 SWAP1 PUSH2 0x3DB3 JUMP JUMPDEST SWAP3 POP POP DUP2 SWAP1 SSTORE POP DUP2 PUSH1 0x13 PUSH1 0x0 DUP3 DUP3 SLOAD PUSH2 0x14F0 SWAP2 SWAP1 PUSH2 0x3DB3 JUMP JUMPDEST SWAP1 SWAP2 SSTORE POP POP CALLER PUSH1 0x0 SWAP1 DUP2 MSTORE PUSH1 0x16 PUSH1 0x20 MSTORE PUSH1 0x40 DUP2 KECCAK256 SLOAD SWAP1 SUB PUSH2 0x1518 JUMPI PUSH2 0x1516 PUSH1 0x4 CALLER PUSH2 0x27C6 JUMP JUMPDEST POP JUMPDEST PUSH1 0x2 SLOAD PUSH1 0x1 PUSH1 0x1 PUSH1 0xA0 SHL SUB AND PUSH4 0xA9059CBB CALLER PUSH2 0x1534 DUP5 DUP7 PUSH2 0x3DB3 JUMP JUMPDEST PUSH1 0x40 MLOAD PUSH1 0x1 PUSH1 0x1 PUSH1 0xE0 SHL SUB NOT PUSH1 0xE0 DUP6 SWAP1 SHL AND DUP2 MSTORE PUSH1 0x1 PUSH1 0x1 PUSH1 0xA0 SHL SUB SWAP1 SWAP3 AND PUSH1 0x4 DUP4 ADD MSTORE PUSH1 0x24 DUP3 ADD MSTORE PUSH1 0x44 ADD PUSH1 0x20 PUSH1 0x40 MLOAD DUP1 DUP4 SUB DUP2 PUSH1 0x0 DUP8 GAS CALL ISZERO DUP1 ISZERO PUSH2 0x157F JUMPI RETURNDATASIZE PUSH1 0x0 DUP1 RETURNDATACOPY RETURNDATASIZE PUSH1 0x0 REVERT JUMPDEST POP POP POP POP PUSH1 0x40 MLOAD RETURNDATASIZE PUSH1 0x1F NOT PUSH1 0x1F DUP3 ADD AND DUP3 ADD DUP1 PUSH1 0x40 MSTORE POP DUP2 ADD SWAP1 PUSH2 0x15A3 SWAP2 SWAP1 PUSH2 0x3D42 JUMP JUMPDEST POP PUSH1 0x2 SLOAD PUSH1 0x6 SLOAD PUSH1 0x40 MLOAD PUSH4 0xA9059CBB PUSH1 0xE0 SHL DUP2 MSTORE PUSH1 0x1 PUSH1 0x1 PUSH1 0xA0 SHL SUB SWAP2 DUP3 AND PUSH1 0x4 DUP3 ADD MSTORE PUSH1 0x24 DUP2 ADD DUP5 SWAP1 MSTORE SWAP2 AND SWAP1 PUSH4 0xA9059CBB SWAP1 PUSH1 0x44 ADD PUSH1 0x20 PUSH1 0x40 MLOAD DUP1 DUP4 SUB DUP2 PUSH1 0x0 DUP8 GAS CALL ISZERO DUP1 ISZERO PUSH2 0x15F9 JUMPI RETURNDATASIZE PUSH1 0x0 DUP1 RETURNDATACOPY RETURNDATASIZE PUSH1 0x0 REVERT JUMPDEST POP POP POP POP PUSH1 0x40 MLOAD RETURNDATASIZE PUSH1 0x1F NOT PUSH1 0x1F DUP3 ADD AND DUP3 ADD DUP1 PUSH1 0x40 MSTORE POP DUP2 ADD SWAP1 PUSH2 0x161D SWAP2 SWAP1 PUSH2 0x3D42 JUMP JUMPDEST POP CALLER PUSH1 0x0 DUP2 DUP2 MSTORE PUSH1 0x17 PUSH1 0x20 SWAP1 DUP2 MSTORE PUSH1 0x40 SWAP2 DUP3 SWAP1 KECCAK256 TIMESTAMP SWAP1 DUP2 SWAP1 SSTORE DUP3 MLOAD DUP7 DUP2 MSTORE SWAP2 DUP3 ADD MSTORE PUSH32 0xF0CBD610BBE2D876DDBB80EEE79A670E6F054752BE0D72FC614A1A863D3024DC SWAP2 ADD PUSH1 0x40 MLOAD DUP1 SWAP2 SUB SWAP1 LOG2 POP POP JUMP JUMPDEST PUSH2 0x1676 PUSH2 0x2451 JUMP JUMPDEST PUSH2 0x167E PUSH2 0x27DB JUMP JUMPDEST JUMP JUMPDEST PUSH1 0x1 PUSH1 0x1 PUSH1 0xA0 SHL SUB DUP2 AND PUSH1 0x0 SWAP1 DUP2 MSTORE PUSH1 0x25 PUSH1 0x20 MSTORE PUSH1 0x40 SWAP1 KECCAK256 PUSH1 0x60 SWAP1 PUSH2 0x137F SWAP1 PUSH2 0x2484 JUMP JUMPDEST PUSH1 0x32 SLOAD PUSH1 0x31 SLOAD PUSH2 0x16B4 SWAP1 TIMESTAMP PUSH2 0x3DB3 JUMP JUMPDEST GT PUSH2 0x1701 JUMPI PUSH1 0x40 MLOAD PUSH3 0x461BCD PUSH1 0xE5 SHL DUP2 MSTORE PUSH1 0x20 PUSH1 0x4 DUP3 ADD MSTORE PUSH1 0x1E PUSH1 0x24 DUP3 ADD MSTORE PUSH32 0x4B656570557020726571756972656D656E74206973206E6F74206D6574210000 PUSH1 0x44 DUP3 ADD MSTORE PUSH1 0x64 ADD PUSH2 0x12C1 JUMP JUMPDEST PUSH2 0x1709 PUSH2 0x282D JUMP JUMPDEST PUSH2 0x1711 PUSH2 0x286B JUMP JUMPDEST POP POP JUMP JUMPDEST PUSH2 0x171D PUSH2 0x2451 JUMP JUMPDEST PUSH1 0x0 DUP3 GT DUP1 ISZERO PUSH2 0x172E JUMPI POP PUSH2 0x3E8 DUP3 LT JUMPDEST PUSH2 0x177A JUMPI PUSH1 0x40 MLOAD PUSH3 0x461BCD PUSH1 0xE5 SHL DUP2 MSTORE PUSH1 0x20 PUSH1 0x4 DUP3 ADD MSTORE PUSH1 0x1D PUSH1 0x24 DUP3 ADD MSTORE PUSH32 0x496E76616C696420526566657272616C20526577617264732052617465000000 PUSH1 0x44 DUP3 ADD MSTORE PUSH1 0x64 ADD PUSH2 0x12C1 JUMP JUMPDEST PUSH1 0x0 DUP2 GT DUP1 ISZERO PUSH2 0x178B JUMPI POP PUSH2 0x3E8 DUP2 LT JUMPDEST PUSH2 0x17D7 JUMPI PUSH1 0x40 MLOAD PUSH3 0x461BCD PUSH1 0xE5 SHL DUP2 MSTORE PUSH1 0x20 PUSH1 0x4 DUP3 ADD MSTORE PUSH1 0x1D PUSH1 0x24 DUP3 ADD MSTORE PUSH32 0x496E76616C696420526566657272616C20526577617264732052617465000000 PUSH1 0x44 DUP3 ADD MSTORE PUSH1 0x64 ADD PUSH2 0x12C1 JUMP JUMPDEST PUSH1 0x1A SWAP2 SWAP1 SWAP2 SSTORE PUSH1 0x1B SSTORE JUMP JUMPDEST PUSH2 0x17EA PUSH2 0x2451 JUMP JUMPDEST PUSH1 0x1 PUSH1 0x1 PUSH1 0xA0 SHL SUB DUP2 AND PUSH2 0x1840 JUMPI PUSH1 0x40 MLOAD PUSH3 0x461BCD PUSH1 0xE5 SHL DUP2 MSTORE PUSH1 0x20 PUSH1 0x4 DUP3 ADD MSTORE PUSH1 0x1D PUSH1 0x24 DUP3 ADD MSTORE PUSH32 0x496E76616C696420616464726573733A207A65726F2061646472657373000000 PUSH1 0x44 DUP3 ADD MSTORE PUSH1 0x64 ADD PUSH2 0x12C1 JUMP JUMPDEST PUSH1 0x0 DUP2 PUSH1 0x1 PUSH1 0x1 PUSH1 0xA0 SHL SUB AND SELFBALANCE PUSH1 0x40 MLOAD PUSH1 0x0 PUSH1 0x40 MLOAD DUP1 DUP4 SUB DUP2 DUP6 DUP8 GAS CALL SWAP3 POP POP POP RETURNDATASIZE DUP1 PUSH1 0x0 DUP2 EQ PUSH2 0x188D JUMPI PUSH1 0x40 MLOAD SWAP2 POP PUSH1 0x1F NOT PUSH1 0x3F RETURNDATASIZE ADD AND DUP3 ADD PUSH1 0x40 MSTORE RETURNDATASIZE DUP3 MSTORE RETURNDATASIZE PUSH1 0x0 PUSH1 0x20 DUP5 ADD RETURNDATACOPY PUSH2 0x1892 JUMP JUMPDEST PUSH1 0x60 SWAP2 POP JUMPDEST POP POP SWAP1 POP DUP1 PUSH2 0x1711 JUMPI PUSH1 0x40 MLOAD PUSH3 0x461BCD PUSH1 0xE5 SHL DUP2 MSTORE PUSH1 0x20 PUSH1 0x4 DUP3 ADD MSTORE PUSH1 0xF PUSH1 0x24 DUP3 ADD MSTORE PUSH15 0x151C985B9CD9995C8811985A5B1959 PUSH1 0x8A SHL PUSH1 0x44 DUP3 ADD MSTORE PUSH1 0x64 ADD PUSH2 0x12C1 JUMP JUMPDEST PUSH2 0x18DD PUSH2 0x2451 JUMP JUMPDEST PUSH1 0x64 DUP2 GT DUP1 ISZERO PUSH2 0x18EE JUMPI POP PUSH2 0x2710 DUP2 LT JUMPDEST PUSH2 0x190A JUMPI PUSH1 0x40 MLOAD PUSH3 0x461BCD PUSH1 0xE5 SHL DUP2 MSTORE PUSH1 0x4 ADD PUSH2 0x12C1 SWAP1 PUSH2 0x3DC6 JUMP JUMPDEST PUSH1 0x19 SSTORE JUMP JUMPDEST PUSH1 0x0 PUSH2 0x1393 DUP4 DUP4 PUSH1 0x1 PUSH2 0x2491 JUMP JUMPDEST PUSH1 0x0 PUSH1 0x60 PUSH1 0x32 SLOAD PUSH1 0x31 SLOAD TIMESTAMP PUSH2 0x1932 SWAP2 SWAP1 PUSH2 0x3DB3 JUMP JUMPDEST GT SWAP2 POP DUP4 DUP4 DUP1 DUP1 PUSH1 0x1F ADD PUSH1 0x20 DUP1 SWAP2 DIV MUL PUSH1 0x20 ADD PUSH1 0x40 MLOAD SWAP1 DUP2 ADD PUSH1 0x40 MSTORE DUP1 SWAP4 SWAP3 SWAP2 SWAP1 DUP2 DUP2 MSTORE PUSH1 0x20 ADD DUP4 DUP4 DUP1 DUP3 DUP5 CALLDATACOPY PUSH1 0x0 SWAP3 ADD SWAP2 SWAP1 SWAP2 MSTORE POP SWAP3 SWAP4 POP POP POP POP SWAP3 POP SWAP3 SWAP1 POP JUMP JUMPDEST PUSH1 0x60 PUSH2 0x1981 PUSH1 0x4 PUSH2 0x2484 JUMP JUMPDEST SWAP1 POP SWAP1 JUMP JUMPDEST PUSH2 0x198E PUSH2 0x2451 JUMP JUMPDEST PUSH2 0x167E PUSH1 0x0 PUSH2 0x28DE JUMP JUMPDEST PUSH1 0x0 DUP1 PUSH2 0x1393 DUP4 PUSH2 0x2937 JUMP JUMPDEST PUSH2 0x19AC PUSH2 0x2451 JUMP JUMPDEST PUSH1 0x1 PUSH1 0x1 PUSH1 0xA0 SHL SUB DUP2 AND PUSH2 0x1A02 JUMPI PUSH1 0x40 MLOAD PUSH3 0x461BCD PUSH1 0xE5 SHL DUP2 MSTORE PUSH1 0x20 PUSH1 0x4 DUP3 ADD MSTORE PUSH1 0x17 PUSH1 0x24 DUP3 ADD MSTORE PUSH32 0x546F6B656E2073686F756C646E2774206265207A65726F000000000000000000 PUSH1 0x44 DUP3 ADD MSTORE PUSH1 0x64 ADD PUSH2 0x12C1 JUMP JUMPDEST PUSH1 0x2 DUP1 SLOAD PUSH1 0x1 PUSH1 0x1 PUSH1 0xA0 SHL SUB NOT AND PUSH1 0x1 PUSH1 0x1 PUSH1 0xA0 SHL SUB SWAP3 SWAP1 SWAP3 AND SWAP2 SWAP1 SWAP2 OR SWAP1 SSTORE JUMP JUMPDEST PUSH2 0x1A2C PUSH2 0x2451 JUMP JUMPDEST PUSH1 0x1C SWAP2 SWAP1 SWAP2 SSTORE PUSH1 0x1D SSTORE JUMP JUMPDEST PUSH2 0x1A3F PUSH2 0x2451 JUMP JUMPDEST PUSH2 0x167E PUSH2 0x29E7 JUMP JUMPDEST PUSH2 0x1A4F PUSH2 0x258F JUMP JUMPDEST DUP3 PUSH1 0x0 SUB PUSH2 0x1A8C JUMPI PUSH1 0x40 MLOAD PUSH3 0x461BCD PUSH1 0xE5 SHL DUP2 MSTORE PUSH1 0x20 PUSH1 0x4 DUP3 ADD MSTORE PUSH1 0xA PUSH1 0x24 DUP3 ADD MSTORE PUSH10 0x616D6F756E74203D203 PUSH1 0xB4 SHL PUSH1 0x44 DUP3 ADD MSTORE PUSH1 0x64 ADD PUSH2 0x12C1 JUMP JUMPDEST PUSH1 0x1 PUSH1 0x1 PUSH1 0xA0 SHL SUB DUP3 AND ISZERO DUP1 ISZERO SWAP1 PUSH2 0x1AA8 JUMPI POP PUSH2 0x1AA8 DUP2 PUSH2 0x2A24 JUMP JUMPDEST ISZERO PUSH2 0x1B0D JUMPI CALLER PUSH1 0x0 SWAP1 DUP2 MSTORE PUSH1 0x30 PUSH1 0x20 MSTORE PUSH1 0x40 SWAP1 KECCAK256 SLOAD PUSH1 0xFF AND ISZERO PUSH2 0x1B0D JUMPI PUSH1 0x40 MLOAD PUSH3 0x461BCD PUSH1 0xE5 SHL DUP2 MSTORE PUSH1 0x20 PUSH1 0x4 DUP3 ADD MSTORE PUSH1 0x1F PUSH1 0x24 DUP3 ADD MSTORE PUSH32 0x596F75207573656420726566657272616C20636F646520616C72656164792100 PUSH1 0x44 DUP3 ADD MSTORE PUSH1 0x64 ADD PUSH2 0x12C1 JUMP JUMPDEST PUSH1 0x1 PUSH1 0x1 PUSH1 0xA0 SHL SUB DUP3 AND ISZERO DUP1 ISZERO SWAP1 PUSH2 0x1B3E JUMPI POP PUSH1 0x1 PUSH1 0x1 PUSH1 0xA0 SHL SUB DUP3 AND PUSH1 0x0 SWAP1 DUP2 MSTORE PUSH1 0x2F PUSH1 0x20 MSTORE PUSH1 0x40 SWAP1 KECCAK256 SLOAD PUSH1 0xFF AND ISZERO JUMPDEST ISZERO PUSH2 0x1B4F JUMPI PUSH2 0x1B4D DUP3 DUP3 PUSH2 0x2A81 JUMP JUMPDEST POP JUMPDEST CALLER PUSH1 0x1 PUSH1 0x1 PUSH1 0xA0 SHL SUB AND PUSH1 0x2E DUP3 PUSH1 0x40 MLOAD PUSH2 0x1B69 SWAP2 SWAP1 PUSH2 0x3E11 JUMP JUMPDEST SWAP1 DUP2 MSTORE PUSH1 0x40 MLOAD SWAP1 DUP2 SWAP1 SUB PUSH1 0x20 ADD SWAP1 KECCAK256 SLOAD PUSH1 0x1 PUSH1 0x1 PUSH1 0xA0 SHL SUB AND SUB PUSH2 0x1BDD JUMPI PUSH1 0x40 MLOAD PUSH3 0x461BCD PUSH1 0xE5 SHL DUP2 MSTORE PUSH1 0x20 PUSH1 0x4 DUP3 ADD MSTORE PUSH1 0x25 PUSH1 0x24 DUP3 ADD MSTORE PUSH32 0x596F7520617265207573696E6720796F7572206F776E20726566657272616C20 PUSH1 0x44 DUP3 ADD MSTORE PUSH5 0x636F646521 PUSH1 0xD8 SHL PUSH1 0x64 DUP3 ADD MSTORE PUSH1 0x84 ADD PUSH2 0x12C1 JUMP JUMPDEST PUSH1 0x2 SLOAD PUSH1 0x40 MLOAD PUSH4 0x23B872DD PUSH1 0xE0 SHL DUP2 MSTORE CALLER PUSH1 0x4 DUP3 ADD MSTORE ADDRESS PUSH1 0x24 DUP3 ADD MSTORE PUSH1 0x44 DUP2 ADD DUP6 SWAP1 MSTORE PUSH1 0x1 PUSH1 0x1 PUSH1 0xA0 SHL SUB SWAP1 SWAP2 AND SWAP1 PUSH4 0x23B872DD SWAP1 PUSH1 0x64 ADD PUSH1 0x20 PUSH1 0x40 MLOAD DUP1 DUP4 SUB DUP2 PUSH1 0x0 DUP8 GAS CALL ISZERO DUP1 ISZERO PUSH2 0x1C34 JUMPI RETURNDATASIZE PUSH1 0x0 DUP1 RETURNDATACOPY RETURNDATASIZE PUSH1 0x0 REVERT JUMPDEST POP POP POP POP PUSH1 0x40 MLOAD RETURNDATASIZE PUSH1 0x1F NOT PUSH1 0x1F DUP3 ADD AND DUP3 ADD DUP1 PUSH1 0x40 MSTORE POP DUP2 ADD SWAP1 PUSH2 0x1C58 SWAP2 SWAP1 PUSH2 0x3D42 JUMP JUMPDEST POP PUSH2 0x1C64 PUSH1 0x4 CALLER PUSH2 0x2BDF JUMP JUMPDEST ISZERO DUP1 ISZERO PUSH2 0x1C71 JUMPI POP PUSH1 0x0 DUP4 GT JUMPDEST ISZERO PUSH2 0x1C83 JUMPI PUSH2 0x1C81 PUSH1 0x4 CALLER PUSH2 0x2C01 JUMP JUMPDEST POP JUMPDEST CALLER PUSH1 0x0 SWAP1 DUP2 MSTORE PUSH1 0x16 PUSH1 0x20 MSTORE PUSH1 0x40 DUP2 KECCAK256 SLOAD SWAP1 SUB PUSH2 0x1CBA JUMPI CALLER PUSH1 0x0 SWAP1 DUP2 MSTORE PUSH1 0x10 PUSH1 0x20 SWAP1 DUP2 MSTORE PUSH1 0x40 DUP1 DUP4 KECCAK256 TIMESTAMP SWAP1 DUP2 SWAP1 SSTORE PUSH1 0x17 SWAP1 SWAP3 MSTORE SWAP1 SWAP2 KECCAK256 SSTORE JUMPDEST PUSH2 0x1CC3 DUP2 PUSH2 0x2A24 JUMP JUMPDEST ISZERO PUSH2 0x1D71 JUMPI PUSH1 0x0 PUSH1 0x2E DUP3 PUSH1 0x40 MLOAD PUSH2 0x1CDA SWAP2 SWAP1 PUSH2 0x3E11 JUMP JUMPDEST SWAP1 DUP2 MSTORE PUSH1 0x40 MLOAD SWAP1 DUP2 SWAP1 SUB PUSH1 0x20 ADD SWAP1 KECCAK256 SLOAD PUSH1 0x1 PUSH1 0x1 PUSH1 0xA0 SHL SUB AND SWAP1 POP DUP1 ISZERO DUP1 ISZERO SWAP1 PUSH2 0x1D14 JUMPI POP CALLER PUSH1 0x0 SWAP1 DUP2 MSTORE PUSH1 0x30 PUSH1 0x20 MSTORE PUSH1 0x40 SWAP1 KECCAK256 SLOAD PUSH1 0xFF AND ISZERO JUMPDEST ISZERO PUSH2 0x1D6F JUMPI PUSH2 0x1D24 CALLER DUP3 DUP7 PUSH2 0x2C16 JUMP JUMPDEST POP CALLER PUSH1 0x0 SWAP1 DUP2 MSTORE PUSH1 0x30 PUSH1 0x20 SWAP1 DUP2 MSTORE PUSH1 0x40 DUP1 DUP4 KECCAK256 DUP1 SLOAD PUSH1 0xFF NOT AND PUSH1 0x1 SWAP1 DUP2 OR SWAP1 SWAP2 SSTORE PUSH1 0x1 PUSH1 0x1 PUSH1 0xA0 SHL SUB DUP6 AND DUP5 MSTORE PUSH1 0x35 SWAP1 SWAP3 MSTORE DUP3 KECCAK256 DUP1 SLOAD SWAP2 SWAP3 SWAP1 SWAP2 PUSH2 0x1D69 SWAP1 DUP5 SWAP1 PUSH2 0x3E2D JUMP JUMPDEST SWAP1 SWAP2 SSTORE POP POP JUMPDEST POP JUMPDEST CALLER PUSH1 0x0 SWAP1 DUP2 MSTORE PUSH1 0x16 PUSH1 0x20 MSTORE PUSH1 0x40 DUP2 KECCAK256 DUP1 SLOAD DUP6 SWAP3 SWAP1 PUSH2 0x1D90 SWAP1 DUP5 SWAP1 PUSH2 0x3E2D JUMP JUMPDEST SWAP1 SWAP2 SSTORE POP POP PUSH1 0x13 DUP1 SLOAD PUSH1 0x15 DUP2 SWAP1 SSTORE DUP5 SWAP2 SWAP1 PUSH1 0x0 SWAP1 PUSH2 0x1DAF SWAP1 DUP5 SWAP1 PUSH2 0x3E2D JUMP JUMPDEST SWAP1 SWAP2 SSTORE POP POP CALLER PUSH1 0x0 DUP2 DUP2 MSTORE PUSH1 0x21 PUSH1 0x20 SWAP1 DUP2 MSTORE PUSH1 0x40 DUP1 DUP4 KECCAK256 TIMESTAMP SWAP1 DUP2 SWAP1 SSTORE PUSH1 0x22 DUP4 MSTORE SWAP3 DUP2 SWAP1 KECCAK256 DUP8 SWAP1 SSTORE DUP1 MLOAD DUP8 DUP2 MSTORE SWAP2 DUP3 ADD SWAP3 SWAP1 SWAP3 MSTORE PUSH32 0x1F42EAD3B460988335C082E2EAE9C3F3F9E8279142406F3DBD34AF4E7C53A841 SWAP2 ADD PUSH1 0x40 MLOAD DUP1 SWAP2 SUB SWAP1 LOG2 POP POP POP JUMP JUMPDEST PUSH2 0x1E1A PUSH2 0x2451 JUMP JUMPDEST PUSH1 0x64 DUP2 GT DUP1 ISZERO PUSH2 0x1E2B JUMPI POP PUSH2 0x2710 DUP2 LT JUMPDEST PUSH2 0x1E9D JUMPI PUSH1 0x40 MLOAD PUSH3 0x461BCD PUSH1 0xE5 SHL DUP2 MSTORE PUSH1 0x20 PUSH1 0x4 DUP3 ADD MSTORE PUSH1 0x39 PUSH1 0x24 DUP3 ADD MSTORE PUSH32 0x5472656173757279205261746520666F7220726577617264732073686F756C64 PUSH1 0x44 DUP3 ADD MSTORE PUSH32 0x206265206C657373207468616E2064656E6F6D696E61746F7200000000000000 PUSH1 0x64 DUP3 ADD MSTORE PUSH1 0x84 ADD PUSH2 0x12C1 JUMP JUMPDEST PUSH1 0x8 SSTORE JUMP JUMPDEST PUSH2 0x1EAA PUSH2 0x2451 JUMP JUMPDEST PUSH1 0x32 SSTORE JUMP JUMPDEST PUSH1 0x0 DUP1 PUSH2 0x1393 DUP4 PUSH2 0x2E8D JUMP JUMPDEST PUSH1 0x0 PUSH2 0x1EC5 PUSH2 0x258F JUMP JUMPDEST PUSH2 0x1ECD PUSH2 0x2FEC JUMP JUMPDEST CALLER PUSH1 0x0 SWAP1 DUP2 MSTORE PUSH1 0x24 PUSH1 0x20 MSTORE PUSH1 0x40 DUP2 KECCAK256 DUP2 SWAP1 PUSH2 0x1EE7 SWAP1 PUSH2 0x2484 JUMP JUMPDEST SWAP1 POP PUSH1 0x0 JUMPDEST DUP2 MLOAD DUP2 LT ISZERO PUSH2 0x1FC8 JUMPI PUSH1 0x0 DUP3 DUP3 DUP2 MLOAD DUP2 LT PUSH2 0x1F09 JUMPI PUSH2 0x1F09 PUSH2 0x3E40 JUMP JUMPDEST PUSH1 0x20 SWAP1 DUP2 MUL SWAP2 SWAP1 SWAP2 ADD DUP2 ADD MLOAD CALLER PUSH1 0x0 SWAP1 DUP2 MSTORE PUSH1 0xD DUP4 MSTORE PUSH1 0x40 DUP1 DUP3 KECCAK256 PUSH1 0x1 PUSH1 0x1 PUSH1 0xA0 SHL SUB DUP5 AND DUP4 MSTORE SWAP1 SWAP4 MSTORE SWAP2 DUP3 KECCAK256 SWAP1 SWAP3 POP SWAP1 PUSH2 0x1F43 DUP3 PUSH2 0x3045 JUMP JUMPDEST SWAP1 POP DUP1 ISZERO PUSH2 0x1FBD JUMPI DUP1 DUP3 PUSH1 0x2 ADD PUSH1 0x0 DUP3 DUP3 SLOAD PUSH2 0x1F5F SWAP2 SWAP1 PUSH2 0x3E2D JUMP JUMPDEST SWAP1 SWAP2 SSTORE POP POP TIMESTAMP PUSH1 0x3 DUP4 ADD SSTORE PUSH2 0x1F74 DUP2 DUP8 PUSH2 0x3E2D JUMP JUMPDEST PUSH1 0x40 DUP1 MLOAD DUP4 DUP2 MSTORE TIMESTAMP PUSH1 0x20 DUP3 ADD MSTORE SWAP2 SWAP8 POP PUSH1 0x1 PUSH1 0x1 PUSH1 0xA0 SHL SUB DUP6 AND SWAP2 CALLER SWAP2 PUSH32 0x5A8B3C9684C3E08F9972C80A03E63C398F3C444E3F2C8E92D6FDB8268EF7AB98 SWAP2 ADD PUSH1 0x40 MLOAD DUP1 SWAP2 SUB SWAP1 LOG3 JUMPDEST POP POP POP PUSH1 0x1 ADD PUSH2 0x1EEC JUMP JUMPDEST POP CALLER PUSH1 0x0 SWAP1 DUP2 MSTORE PUSH1 0x25 PUSH1 0x20 MSTORE PUSH1 0x40 DUP2 KECCAK256 PUSH2 0x1FE1 SWAP1 PUSH2 0x2484 JUMP JUMPDEST SWAP1 POP PUSH1 0x0 JUMPDEST DUP2 MLOAD DUP2 LT ISZERO PUSH2 0x20C2 JUMPI PUSH1 0x0 DUP3 DUP3 DUP2 MLOAD DUP2 LT PUSH2 0x2003 JUMPI PUSH2 0x2003 PUSH2 0x3E40 JUMP JUMPDEST PUSH1 0x20 SWAP1 DUP2 MUL SWAP2 SWAP1 SWAP2 ADD DUP2 ADD MLOAD CALLER PUSH1 0x0 SWAP1 DUP2 MSTORE PUSH1 0xE DUP4 MSTORE PUSH1 0x40 DUP1 DUP3 KECCAK256 PUSH1 0x1 PUSH1 0x1 PUSH1 0xA0 SHL SUB DUP5 AND DUP4 MSTORE SWAP1 SWAP4 MSTORE SWAP2 DUP3 KECCAK256 SWAP1 SWAP3 POP SWAP1 PUSH2 0x203D DUP3 PUSH2 0x3045 JUMP JUMPDEST SWAP1 POP DUP1 ISZERO PUSH2 0x20B7 JUMPI DUP1 DUP3 PUSH1 0x2 ADD PUSH1 0x0 DUP3 DUP3 SLOAD PUSH2 0x2059 SWAP2 SWAP1 PUSH2 0x3E2D JUMP JUMPDEST SWAP1 SWAP2 SSTORE POP POP TIMESTAMP PUSH1 0x3 DUP4 ADD SSTORE PUSH2 0x206E DUP2 DUP9 PUSH2 0x3E2D JUMP JUMPDEST PUSH1 0x40 DUP1 MLOAD DUP4 DUP2 MSTORE TIMESTAMP PUSH1 0x20 DUP3 ADD MSTORE SWAP2 SWAP9 POP PUSH1 0x1 PUSH1 0x1 PUSH1 0xA0 SHL SUB DUP6 AND SWAP2 CALLER SWAP2 PUSH32 0x5A8B3C9684C3E08F9972C80A03E63C398F3C444E3F2C8E92D6FDB8268EF7AB98 SWAP2 ADD PUSH1 0x40 MLOAD DUP1 SWAP2 SUB SWAP1 LOG3 JUMPDEST POP POP POP PUSH1 0x1 ADD PUSH2 0x1FE6 JUMP JUMPDEST POP PUSH1 0x0 DUP4 GT PUSH2 0x2113 JUMPI PUSH1 0x40 MLOAD PUSH3 0x461BCD PUSH1 0xE5 SHL DUP2 MSTORE PUSH1 0x20 PUSH1 0x4 DUP3 ADD MSTORE PUSH1 0x1C PUSH1 0x24 DUP3 ADD MSTORE PUSH32 0x4E6F20726566657272616C207265776172647320746F20636C61696D00000000 PUSH1 0x44 DUP3 ADD MSTORE PUSH1 0x64 ADD PUSH2 0x12C1 JUMP JUMPDEST PUSH1 0x0 PUSH2 0x211E DUP5 PUSH2 0x30E0 JUMP JUMPDEST SWAP1 POP PUSH1 0x0 PUSH2 0x212C DUP3 DUP7 PUSH2 0x3DB3 JUMP JUMPDEST CALLER PUSH1 0x0 SWAP1 DUP2 MSTORE PUSH1 0x29 PUSH1 0x20 MSTORE PUSH1 0x40 DUP2 KECCAK256 DUP1 SLOAD SWAP3 SWAP4 POP DUP4 SWAP3 SWAP1 SWAP2 SWAP1 PUSH2 0x2150 SWAP1 DUP5 SWAP1 PUSH2 0x3E2D JUMP JUMPDEST SWAP1 SWAP2 SSTORE POP POP CALLER PUSH1 0x0 SWAP1 DUP2 MSTORE PUSH1 0x12 PUSH1 0x20 MSTORE PUSH1 0x40 SWAP1 KECCAK256 SWAP2 SWAP1 SWAP2 SSTORE POP PUSH1 0x1 SWAP4 POP POP POP POP PUSH2 0x2179 PUSH1 0x1 DUP1 SSTORE JUMP JUMPDEST SWAP1 JUMP JUMPDEST PUSH1 0x0 PUSH2 0x2187 DUP3 PUSH2 0x31F7 JUMP JUMPDEST PUSH2 0x2194 SWAP1 PUSH3 0x15180 PUSH2 0x3D7A JUMP JUMPDEST PUSH2 0x137F SWAP1 PUSH2 0x16D PUSH2 0x3D7A JUMP JUMPDEST PUSH1 0x0 PUSH2 0x21AC PUSH1 0x4 PUSH2 0x2484 JUMP JUMPDEST MLOAD SWAP1 POP SWAP1 JUMP JUMPDEST PUSH1 0x0 PUSH2 0x21BC PUSH2 0x258F JUMP JUMPDEST CALLER PUSH1 0x0 SWAP1 DUP2 MSTORE PUSH1 0x11 PUSH1 0x20 SWAP1 DUP2 MSTORE PUSH1 0x40 DUP1 DUP4 KECCAK256 SLOAD PUSH1 0x9 SWAP1 SWAP3 MSTORE DUP3 KECCAK256 SLOAD PUSH2 0x21E1 SWAP2 SWAP1 PUSH2 0x3E2D JUMP JUMPDEST SWAP1 POP PUSH1 0x0 PUSH2 0x21EE DUP3 PUSH2 0x30E0 JUMP JUMPDEST CALLER PUSH1 0x0 SWAP1 DUP2 MSTORE PUSH1 0x11 PUSH1 0x20 MSTORE PUSH1 0x40 DUP2 KECCAK256 DUP3 SWAP1 SSTORE SWAP1 SWAP2 POP PUSH2 0x220D DUP3 DUP5 PUSH2 0x3DB3 JUMP JUMPDEST CALLER PUSH1 0x0 SWAP1 DUP2 MSTORE PUSH1 0x9 PUSH1 0x20 MSTORE PUSH1 0x40 SWAP1 KECCAK256 SLOAD SWAP1 SWAP2 POP DUP2 LT PUSH2 0x2263 JUMPI CALLER PUSH1 0x0 SWAP1 DUP2 MSTORE PUSH1 0x9 PUSH1 0x20 MSTORE PUSH1 0x40 DUP2 KECCAK256 SLOAD PUSH1 0xC DUP1 SLOAD SWAP2 SWAP3 SWAP1 SWAP2 PUSH2 0x2249 SWAP1 DUP5 SWAP1 PUSH2 0x3DB3 JUMP JUMPDEST SWAP1 SWAP2 SSTORE POP POP CALLER PUSH1 0x0 SWAP1 DUP2 MSTORE PUSH1 0x9 PUSH1 0x20 MSTORE PUSH1 0x40 DUP2 KECCAK256 SSTORE PUSH2 0x229F JUMP JUMPDEST DUP1 PUSH1 0xC PUSH1 0x0 DUP3 DUP3 SLOAD PUSH2 0x2275 SWAP2 SWAP1 PUSH2 0x3DB3 JUMP JUMPDEST SWAP1 SWAP2 SSTORE POP POP CALLER PUSH1 0x0 SWAP1 DUP2 MSTORE PUSH1 0x9 PUSH1 0x20 MSTORE PUSH1 0x40 DUP2 KECCAK256 DUP1 SLOAD DUP4 SWAP3 SWAP1 PUSH2 0x2299 SWAP1 DUP5 SWAP1 PUSH2 0x3DB3 JUMP JUMPDEST SWAP1 SWAP2 SSTORE POP POP JUMPDEST CALLER PUSH1 0x0 SWAP1 DUP2 MSTORE PUSH1 0xF PUSH1 0x20 MSTORE PUSH1 0x40 DUP2 KECCAK256 DUP1 SLOAD DUP4 SWAP3 SWAP1 PUSH2 0x22BE SWAP1 DUP5 SWAP1 PUSH2 0x3E2D JUMP JUMPDEST SWAP1 SWAP2 SSTORE POP PUSH1 0x1 SWAP5 POP POP POP POP POP SWAP1 JUMP JUMPDEST PUSH2 0x22D5 PUSH2 0x2451 JUMP JUMPDEST PUSH1 0x64 DUP3 GT DUP1 ISZERO PUSH2 0x22E6 JUMPI POP PUSH1 0x1E SLOAD DUP3 LT JUMPDEST PUSH2 0x2369 JUMPI PUSH1 0x40 MLOAD PUSH3 0x461BCD PUSH1 0xE5 SHL DUP2 MSTORE PUSH1 0x20 PUSH1 0x4 DUP3 ADD MSTORE PUSH1 0x48 PUSH1 0x24 DUP3 ADD MSTORE PUSH32 0x6D756C7469706C6965725261746550657245706F63682073686F756C64206265 PUSH1 0x44 DUP3 ADD MSTORE PUSH32 0x206C657373207468616E206C6F6E677465726D207374616B696E672072657761 PUSH1 0x64 DUP3 ADD MSTORE PUSH8 0x7264732072617465 PUSH1 0xC0 SHL PUSH1 0x84 DUP3 ADD MSTORE PUSH1 0xA4 ADD PUSH2 0x12C1 JUMP JUMPDEST PUSH1 0x20 SWAP2 SWAP1 SWAP2 SSTORE PUSH1 0x1F SSTORE JUMP JUMPDEST PUSH2 0x237C PUSH2 0x2451 JUMP JUMPDEST PUSH1 0x1C SSTORE JUMP JUMPDEST PUSH1 0x0 DUP1 PUSH2 0x238D DUP4 PUSH2 0x2E8D JUMP JUMPDEST PUSH1 0x1 PUSH1 0x1 PUSH1 0xA0 SHL SUB DUP5 AND PUSH1 0x0 SWAP1 DUP2 MSTORE PUSH1 0x29 PUSH1 0x20 MSTORE PUSH1 0x40 SWAP1 KECCAK256 SLOAD SWAP1 SWAP2 POP PUSH2 0x1393 SWAP1 DUP3 PUSH2 0x3DB3 JUMP JUMPDEST PUSH1 0x0 PUSH2 0x23C0 PUSH1 0x7 SLOAD PUSH2 0x31F7 JUMP JUMPDEST PUSH2 0x23CD SWAP1 PUSH3 0x15180 PUSH2 0x3D7A JUMP JUMPDEST PUSH2 0x1981 SWAP1 PUSH2 0x16D PUSH2 0x3D7A JUMP JUMPDEST PUSH2 0x23E1 PUSH2 0x2451 JUMP JUMPDEST PUSH1 0x1 PUSH1 0x1 PUSH1 0xA0 SHL SUB DUP2 AND PUSH2 0x240B JUMPI PUSH1 0x40 MLOAD PUSH4 0x1E4FBDF7 PUSH1 0xE0 SHL DUP2 MSTORE PUSH1 0x0 PUSH1 0x4 DUP3 ADD MSTORE PUSH1 0x24 ADD PUSH2 0x12C1 JUMP JUMPDEST PUSH2 0x2414 DUP2 PUSH2 0x28DE JUMP JUMPDEST POP JUMP JUMPDEST PUSH2 0x241F PUSH2 0x2451 JUMP JUMPDEST PUSH1 0x64 DUP2 GT DUP1 ISZERO PUSH2 0x2430 JUMPI POP PUSH2 0xC350 DUP2 LT JUMPDEST PUSH2 0x244C JUMPI PUSH1 0x40 MLOAD PUSH3 0x461BCD PUSH1 0xE5 SHL DUP2 MSTORE PUSH1 0x4 ADD PUSH2 0x12C1 SWAP1 PUSH2 0x3DC6 JUMP JUMPDEST PUSH1 0x18 SSTORE JUMP JUMPDEST PUSH1 0x0 SLOAD PUSH1 0x1 PUSH1 0x1 PUSH1 0xA0 SHL SUB PUSH2 0x100 SWAP1 SWAP2 DIV AND CALLER EQ PUSH2 0x167E JUMPI PUSH1 0x40 MLOAD PUSH4 0x118CDAA7 PUSH1 0xE0 SHL DUP2 MSTORE CALLER PUSH1 0x4 DUP3 ADD MSTORE PUSH1 0x24 ADD PUSH2 0x12C1 JUMP JUMPDEST PUSH1 0x60 PUSH1 0x0 PUSH2 0x1393 DUP4 PUSH2 0x333D JUMP JUMPDEST PUSH1 0x0 DUP1 DUP3 PUSH1 0x1 EQ PUSH2 0x24C6 JUMPI PUSH1 0x1 PUSH1 0x1 PUSH1 0xA0 SHL SUB DUP1 DUP7 AND PUSH1 0x0 SWAP1 DUP2 MSTORE PUSH1 0xE PUSH1 0x20 SWAP1 DUP2 MSTORE PUSH1 0x40 DUP1 DUP4 KECCAK256 SWAP4 DUP9 AND DUP4 MSTORE SWAP3 SWAP1 MSTORE KECCAK256 PUSH2 0x24EC JUMP JUMPDEST PUSH1 0x1 PUSH1 0x1 PUSH1 0xA0 SHL SUB DUP1 DUP7 AND PUSH1 0x0 SWAP1 DUP2 MSTORE PUSH1 0xD PUSH1 0x20 SWAP1 DUP2 MSTORE PUSH1 0x40 DUP1 DUP4 KECCAK256 SWAP4 DUP9 AND DUP4 MSTORE SWAP3 SWAP1 MSTORE KECCAK256 JUMPDEST SWAP1 POP PUSH3 0x278D00 DUP2 PUSH1 0x1 ADD SLOAD PUSH2 0x2501 SWAP2 SWAP1 PUSH2 0x3E2D JUMP JUMPDEST TIMESTAMP LT PUSH2 0x2520 JUMPI PUSH1 0x2 DUP2 ADD SLOAD DUP2 SLOAD PUSH2 0x2518 SWAP2 SWAP1 PUSH2 0x3DB3 JUMP JUMPDEST SWAP2 POP POP PUSH2 0x1393 JUMP JUMPDEST PUSH1 0x0 DUP2 PUSH1 0x3 ADD SLOAD TIMESTAMP PUSH2 0x2532 SWAP2 SWAP1 PUSH2 0x3DB3 JUMP JUMPDEST SWAP1 POP PUSH1 0x0 PUSH3 0x278D00 DUP3 DUP5 PUSH1 0x0 ADD SLOAD PUSH2 0x254A SWAP2 SWAP1 PUSH2 0x3D7A JUMP JUMPDEST PUSH2 0x2554 SWAP2 SWAP1 PUSH2 0x3D91 JUMP JUMPDEST PUSH1 0x2 DUP5 ADD SLOAD DUP5 SLOAD SWAP2 SWAP3 POP PUSH2 0x2567 SWAP2 PUSH2 0x3DB3 JUMP JUMPDEST DUP2 GT PUSH2 0x2573 JUMPI DUP1 PUSH2 0x2584 JUMP JUMPDEST PUSH1 0x2 DUP4 ADD SLOAD DUP4 SLOAD PUSH2 0x2584 SWAP2 SWAP1 PUSH2 0x3DB3 JUMP JUMPDEST SWAP8 SWAP7 POP POP POP POP POP POP POP JUMP JUMPDEST PUSH1 0x0 SLOAD PUSH1 0xFF AND ISZERO PUSH2 0x167E JUMPI PUSH1 0x40 MLOAD PUSH3 0x461BCD PUSH1 0xE5 SHL DUP2 MSTORE PUSH1 0x20 PUSH1 0x4 DUP3 ADD MSTORE PUSH1 0x10 PUSH1 0x24 DUP3 ADD MSTORE PUSH16 0x14185D5CD8589B194E881C185D5CD959 PUSH1 0x82 SHL PUSH1 0x44 DUP3 ADD MSTORE PUSH1 0x64 ADD PUSH2 0x12C1 JUMP JUMPDEST PUSH1 0x1 PUSH1 0x1 PUSH1 0xA0 SHL SUB DUP1 DUP4 AND PUSH1 0x0 SWAP1 DUP2 MSTORE PUSH1 0x23 PUSH1 0x20 SWAP1 DUP2 MSTORE PUSH1 0x40 DUP1 DUP4 KECCAK256 SLOAD PUSH1 0x1C SLOAD PUSH1 0x2C SWAP1 SWAP4 MSTORE SWAP1 DUP4 KECCAK256 SLOAD SWAP3 SWAP4 AND SWAP2 DUP4 SWAP2 PUSH2 0x260D SWAP2 PUSH2 0x3E2D JUMP JUMPDEST SWAP1 POP DUP1 TIMESTAMP LT ISZERO PUSH2 0x27BB JUMPI PUSH1 0x1 PUSH1 0x1 PUSH1 0xA0 SHL SUB DUP1 DUP4 AND PUSH1 0x0 SWAP1 DUP2 MSTORE PUSH1 0x23 PUSH1 0x20 MSTORE PUSH1 0x40 DUP2 KECCAK256 SLOAD SWAP1 SWAP2 AND SWAP1 DUP1 PUSH2 0x2640 DUP9 DUP9 PUSH2 0x3399 JUMP JUMPDEST PUSH1 0x1D SLOAD SWAP2 SWAP4 POP SWAP2 POP PUSH1 0x0 SWAP1 PUSH2 0x2655 DUP2 TIMESTAMP PUSH2 0x3D91 JUMP JUMPDEST PUSH2 0x265F SWAP2 SWAP1 PUSH2 0x3D7A JUMP JUMPDEST PUSH1 0x1D SLOAD PUSH2 0x266C DUP2 DUP9 PUSH2 0x3D91 JUMP JUMPDEST PUSH2 0x2676 SWAP2 SWAP1 PUSH2 0x3D7A JUMP JUMPDEST PUSH2 0x2680 SWAP2 SWAP1 PUSH2 0x3DB3 JUMP JUMPDEST PUSH1 0x1 PUSH1 0x1 PUSH1 0xA0 SHL SUB DUP1 DUP9 AND PUSH1 0x0 SWAP1 DUP2 MSTORE PUSH1 0xD PUSH1 0x20 SWAP1 DUP2 MSTORE PUSH1 0x40 DUP1 DUP4 KECCAK256 SWAP4 DUP15 AND DUP4 MSTORE SWAP3 SWAP1 MSTORE SWAP1 DUP2 KECCAK256 SWAP2 SWAP3 POP PUSH2 0x26B4 DUP4 DUP7 PUSH2 0x3D7A JUMP JUMPDEST SWAP1 POP DUP1 DUP3 PUSH1 0x0 ADD SLOAD LT PUSH2 0x26E0 JUMPI DUP1 DUP3 PUSH1 0x0 ADD PUSH1 0x0 DUP3 DUP3 SLOAD PUSH2 0x26D5 SWAP2 SWAP1 PUSH2 0x3DB3 JUMP JUMPDEST SWAP1 SWAP2 SSTORE POP PUSH2 0x26E8 SWAP1 POP JUMP JUMPDEST POP DUP1 SLOAD PUSH1 0x0 DUP3 SSTORE JUMPDEST PUSH1 0x0 PUSH1 0x1 PUSH1 0x1 PUSH1 0xA0 SHL SUB DUP8 AND ISZERO PUSH2 0x2788 JUMPI PUSH1 0x0 PUSH1 0xE PUSH1 0x0 DUP10 PUSH1 0x1 PUSH1 0x1 PUSH1 0xA0 SHL SUB AND PUSH1 0x1 PUSH1 0x1 PUSH1 0xA0 SHL SUB AND DUP2 MSTORE PUSH1 0x20 ADD SWAP1 DUP2 MSTORE PUSH1 0x20 ADD PUSH1 0x0 KECCAK256 PUSH1 0x0 DUP15 PUSH1 0x1 PUSH1 0x1 PUSH1 0xA0 SHL SUB AND PUSH1 0x1 PUSH1 0x1 PUSH1 0xA0 SHL SUB AND DUP2 MSTORE PUSH1 0x20 ADD SWAP1 DUP2 MSTORE PUSH1 0x20 ADD PUSH1 0x0 KECCAK256 SWAP1 POP DUP5 DUP7 PUSH2 0x2751 SWAP2 SWAP1 PUSH2 0x3D7A JUMP JUMPDEST SWAP2 POP DUP2 DUP2 PUSH1 0x0 ADD SLOAD LT PUSH2 0x277D JUMPI DUP2 DUP2 PUSH1 0x0 ADD PUSH1 0x0 DUP3 DUP3 SLOAD PUSH2 0x2772 SWAP2 SWAP1 PUSH2 0x3DB3 JUMP JUMPDEST SWAP1 SWAP2 SSTORE POP PUSH2 0x2786 SWAP1 POP JUMP JUMPDEST DUP1 SLOAD PUSH1 0x0 DUP3 SSTORE SWAP2 POP JUMPDEST POP JUMPDEST PUSH2 0x2792 DUP2 DUP4 PUSH2 0x3E2D JUMP JUMPDEST PUSH1 0x2D PUSH1 0x0 DUP3 DUP3 SLOAD PUSH2 0x27A3 SWAP2 SWAP1 PUSH2 0x3DB3 JUMP JUMPDEST SWAP1 SWAP2 SSTORE POP PUSH1 0x1 SWAP11 POP PUSH2 0x137F SWAP10 POP POP POP POP POP POP POP POP POP POP JUMP JUMPDEST POP PUSH1 0x0 SWAP5 SWAP4 POP POP POP POP JUMP JUMPDEST PUSH1 0x0 PUSH2 0x1393 DUP4 PUSH1 0x1 PUSH1 0x1 PUSH1 0xA0 SHL SUB DUP5 AND PUSH2 0x34F6 JUMP JUMPDEST PUSH2 0x27E3 PUSH2 0x35E9 JUMP JUMPDEST PUSH1 0x0 DUP1 SLOAD PUSH1 0xFF NOT AND SWAP1 SSTORE PUSH32 0x5DB9EE0A495BF2E6FF9C91A7834C1BA4FDD244A5E8AA4E537BD38AEAE4B073AA CALLER JUMPDEST PUSH1 0x40 MLOAD PUSH1 0x1 PUSH1 0x1 PUSH1 0xA0 SHL SUB SWAP1 SWAP2 AND DUP2 MSTORE PUSH1 0x20 ADD PUSH1 0x40 MLOAD DUP1 SWAP2 SUB SWAP1 LOG1 JUMP JUMPDEST PUSH2 0x2837 PUSH1 0x4 PUSH2 0x2484 JUMP JUMPDEST MLOAD PUSH1 0xA SLOAD LT PUSH2 0x2846 JUMPI PUSH1 0x0 PUSH1 0xA SSTORE JUMPDEST PUSH2 0x2854 PUSH1 0xA SLOAD PUSH1 0xB SLOAD PUSH2 0x3632 JUMP JUMPDEST PUSH1 0x34 DUP1 SLOAD SWAP1 PUSH1 0x0 PUSH2 0x2864 DUP4 PUSH2 0x3E56 JUMP JUMPDEST SWAP2 SWAP1 POP SSTORE POP JUMP JUMPDEST PUSH1 0x0 PUSH2 0x2877 PUSH1 0x4 PUSH2 0x2484 JUMP JUMPDEST MLOAD SWAP1 POP PUSH1 0x0 PUSH1 0xB SLOAD DUP3 PUSH2 0x288A SWAP2 SWAP1 PUSH2 0x3D91 JUMP JUMPDEST SWAP1 POP DUP2 DUP2 PUSH1 0xB SLOAD PUSH2 0x289B SWAP2 SWAP1 PUSH2 0x3D7A JUMP JUMPDEST LT ISZERO PUSH2 0x28AF JUMPI PUSH2 0x28AC PUSH1 0x1 DUP3 PUSH2 0x3E2D JUMP JUMPDEST SWAP1 POP JUMPDEST DUP1 PUSH1 0x33 SLOAD LT PUSH2 0x28C5 JUMPI POP POP PUSH1 0x0 PUSH1 0x33 SSTORE TIMESTAMP PUSH1 0x31 SSTORE JUMP JUMPDEST PUSH1 0x33 DUP1 SLOAD SWAP1 PUSH1 0x0 PUSH2 0x28D5 DUP4 PUSH2 0x3E56 JUMP JUMPDEST SWAP2 SWAP1 POP SSTORE POP POP POP JUMP JUMPDEST PUSH1 0x0 DUP1 SLOAD PUSH1 0x1 PUSH1 0x1 PUSH1 0xA0 SHL SUB DUP4 DUP2 AND PUSH2 0x100 DUP2 DUP2 MUL PUSH2 0x100 PUSH1 0x1 PUSH1 0xA8 SHL SUB NOT DUP6 AND OR DUP6 SSTORE PUSH1 0x40 MLOAD SWAP4 DIV SWAP2 SWAP1 SWAP2 AND SWAP3 SWAP1 SWAP2 DUP4 SWAP2 PUSH32 0x8BE0079C531659141344CD1FD0A4F28419497F9722A3DAAFE3B4186F6B6457E0 SWAP2 LOG3 POP POP JUMP JUMPDEST PUSH1 0x1 PUSH1 0x1 PUSH1 0xA0 SHL SUB DUP2 AND PUSH1 0x0 SWAP1 DUP2 MSTORE PUSH1 0x16 PUSH1 0x20 MSTORE PUSH1 0x40 DUP2 KECCAK256 SLOAD ISZERO PUSH2 0x29DF JUMPI PUSH1 0x1F SLOAD PUSH1 0x1 PUSH1 0x1 PUSH1 0xA0 SHL SUB DUP4 AND PUSH1 0x0 SWAP1 DUP2 MSTORE PUSH1 0x17 PUSH1 0x20 MSTORE PUSH1 0x40 DUP2 KECCAK256 SLOAD SWAP1 SWAP2 SWAP1 PUSH2 0x297F SWAP1 DUP3 SWAP1 PUSH2 0x3D91 JUMP JUMPDEST PUSH2 0x2989 SWAP2 SWAP1 PUSH2 0x3D7A JUMP JUMPDEST PUSH1 0x1F SLOAD PUSH2 0x2996 DUP2 TIMESTAMP PUSH2 0x3D91 JUMP JUMPDEST PUSH2 0x29A0 SWAP2 SWAP1 PUSH2 0x3D7A JUMP JUMPDEST PUSH2 0x29AA SWAP2 SWAP1 PUSH2 0x3DB3 JUMP JUMPDEST SWAP1 POP PUSH1 0x0 PUSH1 0x1F SLOAD DUP3 PUSH1 0x20 SLOAD PUSH2 0x29BF SWAP2 SWAP1 PUSH2 0x3D7A JUMP JUMPDEST PUSH2 0x29C9 SWAP2 SWAP1 PUSH2 0x3D91 JUMP JUMPDEST SWAP1 POP PUSH2 0x29D7 DUP2 PUSH1 0x1E SLOAD PUSH2 0x37CC JUMP JUMPDEST SWAP5 SWAP4 POP POP POP POP JUMP JUMPDEST POP PUSH1 0x0 SWAP2 SWAP1 POP JUMP JUMPDEST PUSH2 0x29EF PUSH2 0x258F JUMP JUMPDEST PUSH1 0x0 DUP1 SLOAD PUSH1 0xFF NOT AND PUSH1 0x1 OR SWAP1 SSTORE PUSH32 0x62E78CEA01BEE320CD4E420270B5EA74000D11B0C9F74754EBDBFC544B05A258 PUSH2 0x2810 CALLER SWAP1 JUMP JUMPDEST PUSH1 0x0 PUSH1 0x5 DUP3 MLOAD LT ISZERO PUSH2 0x2A38 JUMPI POP PUSH1 0x0 SWAP2 SWAP1 POP JUMP JUMPDEST PUSH1 0x0 PUSH1 0x1 PUSH1 0x1 PUSH1 0xA0 SHL SUB AND PUSH1 0x2E DUP4 PUSH1 0x40 MLOAD PUSH2 0x2A53 SWAP2 SWAP1 PUSH2 0x3E11 JUMP JUMPDEST SWAP1 DUP2 MSTORE PUSH1 0x40 MLOAD SWAP1 DUP2 SWAP1 SUB PUSH1 0x20 ADD SWAP1 KECCAK256 SLOAD PUSH1 0x1 PUSH1 0x1 PUSH1 0xA0 SHL SUB AND SUB PUSH2 0x2A79 JUMPI POP PUSH1 0x0 SWAP2 SWAP1 POP JUMP JUMPDEST POP PUSH1 0x1 SWAP2 SWAP1 POP JUMP JUMPDEST PUSH1 0x0 PUSH1 0x5 DUP3 MLOAD LT ISZERO PUSH2 0x2ACD JUMPI PUSH1 0x40 MLOAD PUSH3 0x461BCD PUSH1 0xE5 SHL DUP2 MSTORE PUSH1 0x20 PUSH1 0x4 DUP3 ADD MSTORE PUSH1 0x15 PUSH1 0x24 DUP3 ADD MSTORE PUSH21 0x496E76616C696420526566657272616C20436F6465 PUSH1 0x58 SHL PUSH1 0x44 DUP3 ADD MSTORE PUSH1 0x64 ADD PUSH2 0x12C1 JUMP JUMPDEST PUSH1 0x1 PUSH1 0x1 PUSH1 0xA0 SHL SUB DUP4 AND PUSH1 0x0 SWAP1 DUP2 MSTORE PUSH1 0x2F PUSH1 0x20 MSTORE PUSH1 0x40 SWAP1 KECCAK256 SLOAD PUSH1 0xFF AND ISZERO DUP1 ISZERO PUSH2 0x2B27 JUMPI POP PUSH1 0x0 PUSH1 0x1 PUSH1 0x1 PUSH1 0xA0 SHL SUB AND PUSH1 0x2E DUP4 PUSH1 0x40 MLOAD PUSH2 0x2B0C SWAP2 SWAP1 PUSH2 0x3E11 JUMP JUMPDEST SWAP1 DUP2 MSTORE PUSH1 0x40 MLOAD SWAP1 DUP2 SWAP1 SUB PUSH1 0x20 ADD SWAP1 KECCAK256 SLOAD PUSH1 0x1 PUSH1 0x1 PUSH1 0xA0 SHL SUB AND EQ JUMPDEST PUSH2 0x2B7D JUMPI PUSH1 0x40 MLOAD PUSH3 0x461BCD PUSH1 0xE5 SHL DUP2 MSTORE PUSH1 0x20 PUSH1 0x4 DUP3 ADD MSTORE PUSH1 0x21 PUSH1 0x24 DUP3 ADD MSTORE PUSH32 0x596F75206372656174656420726566657272616C20636F646520616C72656164 PUSH1 0x44 DUP3 ADD MSTORE PUSH1 0x79 PUSH1 0xF8 SHL PUSH1 0x64 DUP3 ADD MSTORE PUSH1 0x84 ADD PUSH2 0x12C1 JUMP JUMPDEST DUP3 PUSH1 0x2E DUP4 PUSH1 0x40 MLOAD PUSH2 0x2B8E SWAP2 SWAP1 PUSH2 0x3E11 JUMP JUMPDEST SWAP1 DUP2 MSTORE PUSH1 0x40 DUP1 MLOAD PUSH1 0x20 SWAP3 DUP2 SWAP1 SUB DUP4 ADD SWAP1 KECCAK256 DUP1 SLOAD PUSH1 0x1 PUSH1 0x1 PUSH1 0xA0 SHL SUB NOT AND PUSH1 0x1 PUSH1 0x1 PUSH1 0xA0 SHL SUB SWAP5 DUP6 AND OR SWAP1 SSTORE SWAP5 SWAP1 SWAP2 AND PUSH1 0x0 SWAP1 DUP2 MSTORE PUSH1 0x2F SWAP1 SWAP2 MSTORE SWAP3 SWAP1 SWAP3 KECCAK256 DUP1 SLOAD PUSH1 0xFF NOT AND PUSH1 0x1 SWAP1 DUP2 OR SWAP1 SWAP2 SSTORE SWAP3 SWAP2 POP POP JUMP JUMPDEST PUSH1 0x1 PUSH1 0x1 PUSH1 0xA0 SHL SUB DUP2 AND PUSH1 0x0 SWAP1 DUP2 MSTORE PUSH1 0x1 DUP4 ADD PUSH1 0x20 MSTORE PUSH1 0x40 DUP2 KECCAK256 SLOAD ISZERO ISZERO PUSH2 0x1393 JUMP JUMPDEST PUSH1 0x0 PUSH2 0x1393 DUP4 PUSH1 0x1 PUSH1 0x1 PUSH1 0xA0 SHL SUB DUP5 AND PUSH2 0x37E3 JUMP JUMPDEST PUSH1 0x1 PUSH1 0x1 PUSH1 0xA0 SHL SUB DUP4 DUP2 AND PUSH1 0x0 SWAP1 DUP2 MSTORE PUSH1 0x23 PUSH1 0x20 SWAP1 DUP2 MSTORE PUSH1 0x40 DUP1 DUP4 KECCAK256 DUP1 SLOAD PUSH1 0x1 PUSH1 0x1 PUSH1 0xA0 SHL SUB NOT AND SWAP5 DUP8 AND SWAP5 DUP6 OR SWAP1 SSTORE SWAP3 DUP3 MSTORE PUSH1 0x24 SWAP1 MSTORE SWAP1 DUP2 KECCAK256 PUSH2 0x2C5A SWAP1 DUP6 PUSH2 0x2C01 JUMP JUMPDEST POP PUSH1 0x1 PUSH1 0x1 PUSH1 0xA0 SHL SUB DUP1 DUP6 AND PUSH1 0x0 DUP2 DUP2 MSTORE PUSH1 0x2C PUSH1 0x20 SWAP1 DUP2 MSTORE PUSH1 0x40 DUP1 DUP4 KECCAK256 TIMESTAMP SWAP1 SSTORE SWAP4 DUP8 AND DUP3 MSTORE PUSH1 0x26 DUP2 MSTORE DUP4 DUP3 KECCAK256 SWAP3 DUP3 MSTORE SWAP2 SWAP1 SWAP2 MSTORE SWAP1 DUP2 KECCAK256 DUP4 SWAP1 SSTORE PUSH1 0x1A SLOAD PUSH2 0x2710 SWAP1 PUSH2 0x2CA4 SWAP1 DUP6 PUSH2 0x3D7A JUMP JUMPDEST PUSH2 0x2CAE SWAP2 SWAP1 PUSH2 0x3D91 JUMP JUMPDEST PUSH1 0x40 DUP1 MLOAD PUSH1 0x80 DUP2 ADD DUP3 MSTORE DUP3 DUP2 MSTORE TIMESTAMP PUSH1 0x20 DUP1 DUP4 ADD DUP3 DUP2 MSTORE PUSH1 0x0 DUP5 DUP7 ADD DUP2 DUP2 MSTORE PUSH1 0x60 DUP7 ADD SWAP5 DUP6 MSTORE PUSH1 0x1 PUSH1 0x1 PUSH1 0xA0 SHL SUB DUP1 DUP14 AND DUP4 MSTORE PUSH1 0xD DUP6 MSTORE DUP8 DUP4 KECCAK256 SWAP1 DUP15 AND DUP4 MSTORE SWAP1 SWAP4 MSTORE SWAP5 SWAP1 SWAP5 KECCAK256 SWAP3 MLOAD DUP4 SSTORE SWAP3 MLOAD PUSH1 0x1 DUP4 ADD SSTORE SWAP2 MLOAD PUSH1 0x2 DUP3 ADD SSTORE SWAP1 MLOAD PUSH1 0x3 SWAP1 SWAP2 ADD SSTORE PUSH1 0x1C SLOAD SWAP1 SWAP2 POP PUSH2 0x2D1D SWAP1 DUP3 PUSH2 0x3D91 JUMP JUMPDEST PUSH1 0x1 PUSH1 0x1 PUSH1 0xA0 SHL SUB DUP1 DUP8 AND PUSH1 0x0 SWAP1 DUP2 MSTORE PUSH1 0x2A PUSH1 0x20 SWAP1 DUP2 MSTORE PUSH1 0x40 DUP1 DUP4 KECCAK256 SWAP5 SWAP1 SWAP5 SSTORE DUP8 DUP4 AND DUP3 MSTORE PUSH1 0x23 SWAP1 MSTORE SWAP2 DUP3 KECCAK256 SLOAD AND ISZERO PUSH2 0x2E61 JUMPI PUSH1 0x1 PUSH1 0x1 PUSH1 0xA0 SHL SUB DUP1 DUP7 AND PUSH1 0x0 SWAP1 DUP2 MSTORE PUSH1 0x23 PUSH1 0x20 SWAP1 DUP2 MSTORE PUSH1 0x40 DUP1 DUP4 KECCAK256 SLOAD SWAP1 SWAP4 AND DUP1 DUP4 MSTORE PUSH1 0x25 SWAP1 SWAP2 MSTORE SWAP2 SWAP1 KECCAK256 PUSH2 0x2D85 SWAP1 DUP9 PUSH2 0x2C01 JUMP JUMPDEST POP PUSH2 0x2710 PUSH1 0x1B SLOAD DUP7 PUSH2 0x2D97 SWAP2 SWAP1 PUSH2 0x3D7A JUMP JUMPDEST PUSH2 0x2DA1 SWAP2 SWAP1 PUSH2 0x3D91 JUMP JUMPDEST SWAP2 POP PUSH1 0x40 MLOAD DUP1 PUSH1 0x80 ADD PUSH1 0x40 MSTORE DUP1 DUP4 DUP2 MSTORE PUSH1 0x20 ADD TIMESTAMP DUP2 MSTORE PUSH1 0x20 ADD PUSH1 0x0 DUP2 MSTORE PUSH1 0x20 ADD TIMESTAMP DUP2 MSTORE POP PUSH1 0xE PUSH1 0x0 DUP4 PUSH1 0x1 PUSH1 0x1 PUSH1 0xA0 SHL SUB AND PUSH1 0x1 PUSH1 0x1 PUSH1 0xA0 SHL SUB AND DUP2 MSTORE PUSH1 0x20 ADD SWAP1 DUP2 MSTORE PUSH1 0x20 ADD PUSH1 0x0 KECCAK256 PUSH1 0x0 DUP10 PUSH1 0x1 PUSH1 0x1 PUSH1 0xA0 SHL SUB AND PUSH1 0x1 PUSH1 0x1 PUSH1 0xA0 SHL SUB AND DUP2 MSTORE PUSH1 0x20 ADD SWAP1 DUP2 MSTORE PUSH1 0x20 ADD PUSH1 0x0 KECCAK256 PUSH1 0x0 DUP3 ADD MLOAD DUP2 PUSH1 0x0 ADD SSTORE PUSH1 0x20 DUP3 ADD MLOAD DUP2 PUSH1 0x1 ADD SSTORE PUSH1 0x40 DUP3 ADD MLOAD DUP2 PUSH1 0x2 ADD SSTORE PUSH1 0x60 DUP3 ADD MLOAD DUP2 PUSH1 0x3 ADD SSTORE SWAP1 POP POP PUSH1 0x1C SLOAD DUP3 PUSH2 0x2E46 SWAP2 SWAP1 PUSH2 0x3D91 JUMP JUMPDEST PUSH1 0x1 PUSH1 0x1 PUSH1 0xA0 SHL SUB DUP9 AND PUSH1 0x0 SWAP1 DUP2 MSTORE PUSH1 0x2B PUSH1 0x20 MSTORE PUSH1 0x40 SWAP1 KECCAK256 SSTORE POP JUMPDEST PUSH2 0x2E6B DUP2 DUP4 PUSH2 0x3E2D JUMP JUMPDEST PUSH1 0x2D PUSH1 0x0 DUP3 DUP3 SLOAD PUSH2 0x2E7C SWAP2 SWAP1 PUSH2 0x3E2D JUMP JUMPDEST SWAP1 SWAP2 SSTORE POP PUSH1 0x1 SWAP8 SWAP7 POP POP POP POP POP POP POP JUMP JUMPDEST PUSH1 0x1 PUSH1 0x1 PUSH1 0xA0 SHL SUB DUP2 AND PUSH1 0x0 SWAP1 DUP2 MSTORE PUSH1 0x24 PUSH1 0x20 MSTORE PUSH1 0x40 DUP2 KECCAK256 DUP2 SWAP1 PUSH2 0x2EB0 SWAP1 PUSH2 0x2484 JUMP JUMPDEST PUSH1 0x1 PUSH1 0x1 PUSH1 0xA0 SHL SUB DUP5 AND PUSH1 0x0 SWAP1 DUP2 MSTORE PUSH1 0x25 PUSH1 0x20 MSTORE PUSH1 0x40 DUP2 KECCAK256 SWAP2 SWAP3 POP SWAP1 PUSH2 0x2ED5 SWAP1 PUSH2 0x2484 JUMP JUMPDEST DUP3 MLOAD DUP2 MLOAD SWAP2 SWAP3 POP SWAP1 PUSH1 0x0 DUP1 JUMPDEST DUP4 DUP2 LT ISZERO PUSH2 0x2F5F JUMPI PUSH1 0x1 PUSH1 0x1 PUSH1 0xA0 SHL SUB DUP9 AND PUSH1 0x0 SWAP1 DUP2 MSTORE PUSH1 0xD PUSH1 0x20 MSTORE PUSH1 0x40 DUP2 KECCAK256 DUP8 MLOAD DUP3 SWAP1 DUP10 SWAP1 DUP6 SWAP1 DUP2 LT PUSH2 0x2F17 JUMPI PUSH2 0x2F17 PUSH2 0x3E40 JUMP JUMPDEST PUSH1 0x20 MUL PUSH1 0x20 ADD ADD MLOAD PUSH1 0x1 PUSH1 0x1 PUSH1 0xA0 SHL SUB AND PUSH1 0x1 PUSH1 0x1 PUSH1 0xA0 SHL SUB AND DUP2 MSTORE PUSH1 0x20 ADD SWAP1 DUP2 MSTORE PUSH1 0x20 ADD PUSH1 0x0 KECCAK256 SWAP1 POP PUSH2 0x2F4A DUP2 PUSH2 0x3045 JUMP JUMPDEST PUSH2 0x2F54 SWAP1 DUP5 PUSH2 0x3E2D JUMP JUMPDEST SWAP3 POP POP PUSH1 0x1 ADD PUSH2 0x2EE1 JUMP JUMPDEST POP PUSH1 0x0 JUMPDEST DUP3 DUP2 LT ISZERO PUSH2 0x2FE1 JUMPI PUSH1 0x1 PUSH1 0x1 PUSH1 0xA0 SHL SUB DUP9 AND PUSH1 0x0 SWAP1 DUP2 MSTORE PUSH1 0xE PUSH1 0x20 MSTORE PUSH1 0x40 DUP2 KECCAK256 DUP7 MLOAD DUP3 SWAP1 DUP9 SWAP1 DUP6 SWAP1 DUP2 LT PUSH2 0x2F99 JUMPI PUSH2 0x2F99 PUSH2 0x3E40 JUMP JUMPDEST PUSH1 0x20 MUL PUSH1 0x20 ADD ADD MLOAD PUSH1 0x1 PUSH1 0x1 PUSH1 0xA0 SHL SUB AND PUSH1 0x1 PUSH1 0x1 PUSH1 0xA0 SHL SUB AND DUP2 MSTORE PUSH1 0x20 ADD SWAP1 DUP2 MSTORE PUSH1 0x20 ADD PUSH1 0x0 KECCAK256 SWAP1 POP PUSH2 0x2FCC DUP2 PUSH2 0x3045 JUMP JUMPDEST PUSH2 0x2FD6 SWAP1 DUP5 PUSH2 0x3E2D JUMP JUMPDEST SWAP3 POP POP PUSH1 0x1 ADD PUSH2 0x2F63 JUMP JUMPDEST POP SWAP7 SWAP6 POP POP POP POP POP POP JUMP JUMPDEST PUSH1 0x2 PUSH1 0x1 SLOAD SUB PUSH2 0x303E JUMPI PUSH1 0x40 MLOAD PUSH3 0x461BCD PUSH1 0xE5 SHL DUP2 MSTORE PUSH1 0x20 PUSH1 0x4 DUP3 ADD MSTORE PUSH1 0x1F PUSH1 0x24 DUP3 ADD MSTORE PUSH32 0x5265656E7472616E637947756172643A207265656E7472616E742063616C6C00 PUSH1 0x44 DUP3 ADD MSTORE PUSH1 0x64 ADD PUSH2 0x12C1 JUMP JUMPDEST PUSH1 0x2 PUSH1 0x1 SSTORE JUMP JUMPDEST PUSH1 0x0 PUSH3 0x278D00 DUP3 PUSH1 0x1 ADD SLOAD PUSH2 0x305A SWAP2 SWAP1 PUSH2 0x3E2D JUMP JUMPDEST TIMESTAMP LT PUSH2 0x3071 JUMPI PUSH1 0x2 DUP3 ADD SLOAD DUP3 SLOAD PUSH2 0x137F SWAP2 SWAP1 PUSH2 0x3DB3 JUMP JUMPDEST PUSH1 0x0 DUP3 PUSH1 0x3 ADD SLOAD TIMESTAMP PUSH2 0x3083 SWAP2 SWAP1 PUSH2 0x3DB3 JUMP JUMPDEST DUP4 SLOAD SWAP1 SWAP2 POP PUSH3 0x278D00 SWAP1 PUSH1 0x0 SWAP1 DUP3 SWAP1 PUSH2 0x309D SWAP1 DUP6 SWAP1 PUSH2 0x3D7A JUMP JUMPDEST PUSH2 0x30A7 SWAP2 SWAP1 PUSH2 0x3D91 JUMP JUMPDEST PUSH1 0x2 DUP7 ADD SLOAD DUP7 SLOAD SWAP2 SWAP3 POP PUSH2 0x30BA SWAP2 PUSH2 0x3DB3 JUMP JUMPDEST DUP2 GT PUSH2 0x30C6 JUMPI DUP1 PUSH2 0x30D7 JUMP JUMPDEST PUSH1 0x2 DUP6 ADD SLOAD DUP6 SLOAD PUSH2 0x30D7 SWAP2 SWAP1 PUSH2 0x3DB3 JUMP JUMPDEST SWAP6 SWAP5 POP POP POP POP POP JUMP JUMPDEST PUSH1 0x0 DUP2 DUP1 ISZERO PUSH2 0x31EE JUMPI PUSH1 0x2 SLOAD PUSH1 0x6 SLOAD PUSH1 0x40 MLOAD PUSH4 0x70A08231 PUSH1 0xE0 SHL DUP2 MSTORE PUSH1 0x1 PUSH1 0x1 PUSH1 0xA0 SHL SUB SWAP2 DUP3 AND PUSH1 0x4 DUP3 ADD MSTORE PUSH1 0x0 SWAP3 SWAP2 SWAP1 SWAP2 AND SWAP1 PUSH4 0x70A08231 SWAP1 PUSH1 0x24 ADD PUSH1 0x20 PUSH1 0x40 MLOAD DUP1 DUP4 SUB DUP2 DUP7 GAS STATICCALL ISZERO DUP1 ISZERO PUSH2 0x313A JUMPI RETURNDATASIZE PUSH1 0x0 DUP1 RETURNDATACOPY RETURNDATASIZE PUSH1 0x0 REVERT JUMPDEST POP POP POP POP PUSH1 0x40 MLOAD RETURNDATASIZE PUSH1 0x1F NOT PUSH1 0x1F DUP3 ADD AND DUP3 ADD DUP1 PUSH1 0x40 MSTORE POP DUP2 ADD SWAP1 PUSH2 0x315E SWAP2 SWAP1 PUSH2 0x3E6F JUMP JUMPDEST SWAP1 POP DUP2 DUP2 GT PUSH2 0x316C JUMPI PUSH1 0x0 DUP1 REVERT JUMPDEST PUSH1 0x2 SLOAD PUSH1 0x6 SLOAD PUSH1 0x40 MLOAD PUSH4 0x23B872DD PUSH1 0xE0 SHL DUP2 MSTORE PUSH1 0x1 PUSH1 0x1 PUSH1 0xA0 SHL SUB SWAP2 DUP3 AND PUSH1 0x4 DUP3 ADD MSTORE CALLER PUSH1 0x24 DUP3 ADD MSTORE PUSH1 0x44 DUP2 ADD DUP6 SWAP1 MSTORE SWAP2 AND SWAP1 PUSH4 0x23B872DD SWAP1 PUSH1 0x64 ADD PUSH1 0x20 PUSH1 0x40 MLOAD DUP1 DUP4 SUB DUP2 PUSH1 0x0 DUP8 GAS CALL ISZERO DUP1 ISZERO PUSH2 0x31C7 JUMPI RETURNDATASIZE PUSH1 0x0 DUP1 RETURNDATACOPY RETURNDATASIZE PUSH1 0x0 REVERT JUMPDEST POP POP POP POP PUSH1 0x40 MLOAD RETURNDATASIZE PUSH1 0x1F NOT PUSH1 0x1F DUP3 ADD AND DUP3 ADD DUP1 PUSH1 0x40 MSTORE POP DUP2 ADD SWAP1 PUSH2 0x31EB SWAP2 SWAP1 PUSH2 0x3D42 JUMP JUMPDEST POP POP JUMPDEST POP PUSH1 0x0 SWAP3 SWAP2 POP POP JUMP JUMPDEST PUSH1 0x0 PUSH1 0x13 SLOAD PUSH1 0x0 EQ DUP1 PUSH2 0x3208 JUMPI POP DUP2 ISZERO JUMPDEST ISZERO PUSH2 0x3215 JUMPI POP PUSH1 0x0 SWAP2 SWAP1 POP JUMP JUMPDEST PUSH1 0x0 PUSH2 0x321F PUSH2 0x3832 JUMP JUMPDEST SWAP1 POP PUSH1 0x0 PUSH1 0x15 SLOAD PUSH1 0x13 SLOAD GT PUSH2 0x3235 JUMPI PUSH1 0x0 PUSH2 0x3245 JUMP JUMPDEST PUSH1 0x15 SLOAD PUSH1 0x13 SLOAD PUSH2 0x3245 SWAP2 SWAP1 PUSH2 0x3DB3 JUMP JUMPDEST SWAP1 POP PUSH1 0x0 PUSH2 0x2710 PUSH1 0x1B SLOAD PUSH1 0x1A SLOAD PUSH2 0x325C SWAP2 SWAP1 PUSH2 0x3E2D JUMP JUMPDEST PUSH2 0x3266 SWAP1 DUP5 PUSH2 0x3D7A JUMP JUMPDEST PUSH2 0x3270 SWAP2 SWAP1 PUSH2 0x3D91 JUMP JUMPDEST SWAP1 POP PUSH1 0x0 PUSH2 0x2710 DUP5 PUSH1 0xC SLOAD PUSH2 0x3285 SWAP2 SWAP1 PUSH2 0x3D7A JUMP JUMPDEST PUSH2 0x328F SWAP2 SWAP1 PUSH2 0x3D91 JUMP JUMPDEST SWAP1 POP PUSH1 0x14 SLOAD PUSH1 0xC SLOAD DUP3 DUP5 PUSH2 0x32A3 SWAP2 SWAP1 PUSH2 0x3E2D JUMP JUMPDEST PUSH2 0x32AD SWAP2 SWAP1 PUSH2 0x3E2D JUMP JUMPDEST GT ISZERO PUSH2 0x32BF JUMPI POP PUSH1 0x0 SWAP6 SWAP5 POP POP POP POP POP JUMP JUMPDEST PUSH1 0x0 PUSH2 0x2710 PUSH1 0x8 SLOAD PUSH1 0xC SLOAD DUP6 DUP6 PUSH1 0x14 SLOAD PUSH2 0x32D9 SWAP2 SWAP1 PUSH2 0x3DB3 JUMP JUMPDEST PUSH2 0x32E3 SWAP2 SWAP1 PUSH2 0x3DB3 JUMP JUMPDEST PUSH2 0x32ED SWAP2 SWAP1 PUSH2 0x3DB3 JUMP JUMPDEST PUSH2 0x32F7 SWAP2 SWAP1 PUSH2 0x3D7A JUMP JUMPDEST PUSH2 0x3301 SWAP2 SWAP1 PUSH2 0x3D91 JUMP JUMPDEST SWAP1 POP PUSH1 0x0 DUP8 PUSH1 0x13 SLOAD DUP4 PUSH8 0xDE0B6B3A7640000 PUSH2 0x331D SWAP2 SWAP1 PUSH2 0x3D7A JUMP JUMPDEST PUSH2 0x3327 SWAP2 SWAP1 PUSH2 0x3D91 JUMP JUMPDEST PUSH2 0x3331 SWAP2 SWAP1 PUSH2 0x3D91 JUMP JUMPDEST SWAP9 SWAP8 POP POP POP POP POP POP POP POP JUMP JUMPDEST PUSH1 0x60 DUP2 PUSH1 0x0 ADD DUP1 SLOAD DUP1 PUSH1 0x20 MUL PUSH1 0x20 ADD PUSH1 0x40 MLOAD SWAP1 DUP2 ADD PUSH1 0x40 MSTORE DUP1 SWAP3 SWAP2 SWAP1 DUP2 DUP2 MSTORE PUSH1 0x20 ADD DUP3 DUP1 SLOAD DUP1 ISZERO PUSH2 0x338D JUMPI PUSH1 0x20 MUL DUP3 ADD SWAP2 SWAP1 PUSH1 0x0 MSTORE PUSH1 0x20 PUSH1 0x0 KECCAK256 SWAP1 JUMPDEST DUP2 SLOAD DUP2 MSTORE PUSH1 0x20 ADD SWAP1 PUSH1 0x1 ADD SWAP1 DUP1 DUP4 GT PUSH2 0x3379 JUMPI JUMPDEST POP POP POP POP POP SWAP1 POP SWAP2 SWAP1 POP JUMP JUMPDEST PUSH1 0x1 PUSH1 0x1 PUSH1 0xA0 SHL SUB DUP3 AND PUSH1 0x0 SWAP1 DUP2 MSTORE PUSH1 0x2A PUSH1 0x20 MSTORE PUSH1 0x40 DUP2 KECCAK256 SLOAD DUP2 SWAP1 DUP2 SWAP1 DUP2 SWAP1 ISZERO PUSH2 0x3445 JUMPI PUSH1 0x1 PUSH1 0x1 PUSH1 0xA0 SHL SUB DUP7 AND PUSH1 0x0 SWAP1 DUP2 MSTORE PUSH1 0x16 PUSH1 0x20 SWAP1 DUP2 MSTORE PUSH1 0x40 DUP1 DUP4 KECCAK256 SLOAD PUSH1 0x2A SWAP1 SWAP3 MSTORE SWAP1 SWAP2 KECCAK256 SLOAD PUSH2 0x2710 SWAP2 SWAP1 DUP3 SWAP1 PUSH2 0x33F4 SWAP1 DUP10 SWAP1 PUSH2 0x3D7A JUMP JUMPDEST PUSH2 0x33FE SWAP2 SWAP1 PUSH2 0x3D7A JUMP JUMPDEST PUSH2 0x3408 SWAP2 SWAP1 PUSH2 0x3D91 JUMP JUMPDEST PUSH2 0x3412 SWAP2 SWAP1 PUSH2 0x3D91 JUMP JUMPDEST PUSH1 0x1 PUSH1 0x1 PUSH1 0xA0 SHL SUB DUP8 AND PUSH1 0x0 SWAP1 DUP2 MSTORE PUSH1 0x2A PUSH1 0x20 MSTORE PUSH1 0x40 DUP2 KECCAK256 DUP1 SLOAD SWAP3 SWAP5 POP DUP5 SWAP3 SWAP1 SWAP2 SWAP1 PUSH2 0x343F SWAP1 DUP5 SWAP1 PUSH2 0x3DB3 JUMP JUMPDEST SWAP1 SWAP2 SSTORE POP POP JUMPDEST PUSH1 0x1 PUSH1 0x1 PUSH1 0xA0 SHL SUB DUP7 AND PUSH1 0x0 SWAP1 DUP2 MSTORE PUSH1 0x2B PUSH1 0x20 MSTORE PUSH1 0x40 SWAP1 KECCAK256 SLOAD ISZERO PUSH2 0x34EB JUMPI PUSH1 0x1 PUSH1 0x1 PUSH1 0xA0 SHL SUB DUP7 AND PUSH1 0x0 SWAP1 DUP2 MSTORE PUSH1 0x16 PUSH1 0x20 SWAP1 DUP2 MSTORE PUSH1 0x40 DUP1 DUP4 KECCAK256 SLOAD PUSH1 0x2B SWAP1 SWAP3 MSTORE SWAP1 SWAP2 KECCAK256 SLOAD PUSH2 0x2710 SWAP2 SWAP1 DUP3 SWAP1 PUSH2 0x349A SWAP1 DUP10 SWAP1 PUSH2 0x3D7A JUMP JUMPDEST PUSH2 0x34A4 SWAP2 SWAP1 PUSH2 0x3D7A JUMP JUMPDEST PUSH2 0x34AE SWAP2 SWAP1 PUSH2 0x3D91 JUMP JUMPDEST PUSH2 0x34B8 SWAP2 SWAP1 PUSH2 0x3D91 JUMP JUMPDEST PUSH1 0x1 PUSH1 0x1 PUSH1 0xA0 SHL SUB DUP8 AND PUSH1 0x0 SWAP1 DUP2 MSTORE PUSH1 0x2B PUSH1 0x20 MSTORE PUSH1 0x40 DUP2 KECCAK256 DUP1 SLOAD SWAP3 SWAP4 POP DUP4 SWAP3 SWAP1 SWAP2 SWAP1 PUSH2 0x34E5 SWAP1 DUP5 SWAP1 PUSH2 0x3DB3 JUMP JUMPDEST SWAP1 SWAP2 SSTORE POP POP JUMPDEST SWAP1 SWAP6 SWAP1 SWAP5 POP SWAP3 POP POP POP JUMP JUMPDEST PUSH1 0x0 DUP2 DUP2 MSTORE PUSH1 0x1 DUP4 ADD PUSH1 0x20 MSTORE PUSH1 0x40 DUP2 KECCAK256 SLOAD DUP1 ISZERO PUSH2 0x35DF JUMPI PUSH1 0x0 PUSH2 0x351A PUSH1 0x1 DUP4 PUSH2 0x3DB3 JUMP JUMPDEST DUP6 SLOAD SWAP1 SWAP2 POP PUSH1 0x0 SWAP1 PUSH2 0x352E SWAP1 PUSH1 0x1 SWAP1 PUSH2 0x3DB3 JUMP JUMPDEST SWAP1 POP DUP1 DUP3 EQ PUSH2 0x3593 JUMPI PUSH1 0x0 DUP7 PUSH1 0x0 ADD DUP3 DUP2 SLOAD DUP2 LT PUSH2 0x354E JUMPI PUSH2 0x354E PUSH2 0x3E40 JUMP JUMPDEST SWAP1 PUSH1 0x0 MSTORE PUSH1 0x20 PUSH1 0x0 KECCAK256 ADD SLOAD SWAP1 POP DUP1 DUP8 PUSH1 0x0 ADD DUP5 DUP2 SLOAD DUP2 LT PUSH2 0x3571 JUMPI PUSH2 0x3571 PUSH2 0x3E40 JUMP JUMPDEST PUSH1 0x0 SWAP2 DUP3 MSTORE PUSH1 0x20 DUP1 DUP4 KECCAK256 SWAP1 SWAP2 ADD SWAP3 SWAP1 SWAP3 SSTORE SWAP2 DUP3 MSTORE PUSH1 0x1 DUP9 ADD SWAP1 MSTORE PUSH1 0x40 SWAP1 KECCAK256 DUP4 SWAP1 SSTORE JUMPDEST DUP6 SLOAD DUP7 SWAP1 DUP1 PUSH2 0x35A4 JUMPI PUSH2 0x35A4 PUSH2 0x3E88 JUMP JUMPDEST PUSH1 0x1 SWAP1 SUB DUP2 DUP2 SWAP1 PUSH1 0x0 MSTORE PUSH1 0x20 PUSH1 0x0 KECCAK256 ADD PUSH1 0x0 SWAP1 SSTORE SWAP1 SSTORE DUP6 PUSH1 0x1 ADD PUSH1 0x0 DUP7 DUP2 MSTORE PUSH1 0x20 ADD SWAP1 DUP2 MSTORE PUSH1 0x20 ADD PUSH1 0x0 KECCAK256 PUSH1 0x0 SWAP1 SSTORE PUSH1 0x1 SWAP4 POP POP POP POP PUSH2 0x137F JUMP JUMPDEST PUSH1 0x0 SWAP2 POP POP PUSH2 0x137F JUMP JUMPDEST PUSH1 0x0 SLOAD PUSH1 0xFF AND PUSH2 0x167E JUMPI PUSH1 0x40 MLOAD PUSH3 0x461BCD PUSH1 0xE5 SHL DUP2 MSTORE PUSH1 0x20 PUSH1 0x4 DUP3 ADD MSTORE PUSH1 0x14 PUSH1 0x24 DUP3 ADD MSTORE PUSH20 0x14185D5CD8589B194E881B9BDD081C185D5CD959 PUSH1 0x62 SHL PUSH1 0x44 DUP3 ADD MSTORE PUSH1 0x64 ADD PUSH2 0x12C1 JUMP JUMPDEST PUSH1 0x0 PUSH2 0x363E PUSH1 0x4 PUSH2 0x2484 JUMP JUMPDEST SWAP1 POP PUSH1 0x0 PUSH2 0x364C DUP4 DUP6 PUSH2 0x3E2D JUMP JUMPDEST SWAP1 POP DUP2 MLOAD DUP2 GT ISZERO PUSH2 0x365B JUMPI POP DUP1 MLOAD JUMPDEST PUSH1 0x0 DUP1 DUP6 JUMPDEST DUP4 DUP2 LT ISZERO PUSH2 0x3737 JUMPI PUSH2 0x368A DUP6 DUP3 DUP2 MLOAD DUP2 LT PUSH2 0x367D JUMPI PUSH2 0x367D PUSH2 0x3E40 JUMP JUMPDEST PUSH1 0x20 MUL PUSH1 0x20 ADD ADD MLOAD PUSH2 0x38A7 JUMP JUMPDEST SWAP3 POP TIMESTAMP PUSH1 0x10 PUSH1 0x0 DUP8 DUP5 DUP2 MLOAD DUP2 LT PUSH2 0x36A3 JUMPI PUSH2 0x36A3 PUSH2 0x3E40 JUMP JUMPDEST PUSH1 0x20 MUL PUSH1 0x20 ADD ADD MLOAD PUSH1 0x1 PUSH1 0x1 PUSH1 0xA0 SHL SUB AND PUSH1 0x1 PUSH1 0x1 PUSH1 0xA0 SHL SUB AND DUP2 MSTORE PUSH1 0x20 ADD SWAP1 DUP2 MSTORE PUSH1 0x20 ADD PUSH1 0x0 KECCAK256 DUP2 SWAP1 SSTORE POP DUP3 PUSH1 0x9 PUSH1 0x0 DUP8 DUP5 DUP2 MLOAD DUP2 LT PUSH2 0x36E6 JUMPI PUSH2 0x36E6 PUSH2 0x3E40 JUMP JUMPDEST PUSH1 0x20 MUL PUSH1 0x20 ADD ADD MLOAD PUSH1 0x1 PUSH1 0x1 PUSH1 0xA0 SHL SUB AND PUSH1 0x1 PUSH1 0x1 PUSH1 0xA0 SHL SUB AND DUP2 MSTORE PUSH1 0x20 ADD SWAP1 DUP2 MSTORE PUSH1 0x20 ADD PUSH1 0x0 KECCAK256 PUSH1 0x0 DUP3 DUP3 SLOAD PUSH2 0x371D SWAP2 SWAP1 PUSH2 0x3E2D JUMP JUMPDEST SWAP1 SWAP2 SSTORE POP PUSH2 0x372D SWAP1 POP DUP4 DUP4 PUSH2 0x3E2D JUMP JUMPDEST SWAP2 POP PUSH1 0x1 ADD PUSH2 0x3660 JUMP JUMPDEST POP DUP1 PUSH1 0xC PUSH1 0x0 DUP3 DUP3 SLOAD PUSH2 0x374A SWAP2 SWAP1 PUSH2 0x3E2D JUMP JUMPDEST SWAP1 SWAP2 SSTORE POP POP PUSH1 0x2 SLOAD PUSH1 0x6 SLOAD PUSH1 0x40 MLOAD PUSH4 0x70A08231 PUSH1 0xE0 SHL DUP2 MSTORE PUSH1 0x1 PUSH1 0x1 PUSH1 0xA0 SHL SUB SWAP2 DUP3 AND PUSH1 0x4 DUP3 ADD MSTORE SWAP2 AND SWAP1 PUSH4 0x70A08231 SWAP1 PUSH1 0x24 ADD PUSH1 0x20 PUSH1 0x40 MLOAD DUP1 DUP4 SUB DUP2 DUP7 GAS STATICCALL ISZERO DUP1 ISZERO PUSH2 0x379B JUMPI RETURNDATASIZE PUSH1 0x0 DUP1 RETURNDATACOPY RETURNDATASIZE PUSH1 0x0 REVERT JUMPDEST POP POP POP POP PUSH1 0x40 MLOAD RETURNDATASIZE PUSH1 0x1F NOT PUSH1 0x1F DUP3 ADD AND DUP3 ADD DUP1 PUSH1 0x40 MSTORE POP DUP2 ADD SWAP1 PUSH2 0x37BF SWAP2 SWAP1 PUSH2 0x3E6F JUMP JUMPDEST PUSH1 0x14 SSTORE POP POP PUSH1 0xA SSTORE POP POP POP JUMP JUMPDEST PUSH1 0x0 DUP2 DUP4 GT ISZERO PUSH2 0x37DC JUMPI DUP2 PUSH2 0x1393 JUMP JUMPDEST POP SWAP1 SWAP2 SWAP1 POP JUMP JUMPDEST PUSH1 0x0 DUP2 DUP2 MSTORE PUSH1 0x1 DUP4 ADD PUSH1 0x20 MSTORE PUSH1 0x40 DUP2 KECCAK256 SLOAD PUSH2 0x382A JUMPI POP DUP2 SLOAD PUSH1 0x1 DUP2 DUP2 ADD DUP5 SSTORE PUSH1 0x0 DUP5 DUP2 MSTORE PUSH1 0x20 DUP1 DUP3 KECCAK256 SWAP1 SWAP4 ADD DUP5 SWAP1 SSTORE DUP5 SLOAD DUP5 DUP3 MSTORE DUP3 DUP7 ADD SWAP1 SWAP4 MSTORE PUSH1 0x40 SWAP1 KECCAK256 SWAP2 SWAP1 SWAP2 SSTORE PUSH2 0x137F JUMP JUMPDEST POP PUSH1 0x0 PUSH2 0x137F JUMP JUMPDEST PUSH1 0x0 DUP1 PUSH1 0x1F SLOAD PUSH1 0x1F SLOAD PUSH1 0x3 SLOAD PUSH2 0x3848 SWAP2 SWAP1 PUSH2 0x3D91 JUMP JUMPDEST PUSH2 0x3852 SWAP2 SWAP1 PUSH2 0x3D7A JUMP JUMPDEST PUSH1 0x1F SLOAD PUSH2 0x385F DUP2 TIMESTAMP PUSH2 0x3D91 JUMP JUMPDEST PUSH2 0x3869 SWAP2 SWAP1 PUSH2 0x3D7A JUMP JUMPDEST PUSH2 0x3873 SWAP2 SWAP1 PUSH2 0x3DB3 JUMP JUMPDEST SWAP1 POP PUSH1 0x0 PUSH1 0x1F SLOAD DUP3 PUSH1 0x20 SLOAD PUSH2 0x3888 SWAP2 SWAP1 PUSH2 0x3D7A JUMP JUMPDEST PUSH2 0x3892 SWAP2 SWAP1 PUSH2 0x3D91 JUMP JUMPDEST SWAP1 POP PUSH2 0x38A0 DUP2 PUSH1 0x1E SLOAD PUSH2 0x37CC JUMP JUMPDEST SWAP3 POP POP POP SWAP1 JUMP JUMPDEST PUSH1 0x1 PUSH1 0x1 PUSH1 0xA0 SHL SUB DUP2 AND PUSH1 0x0 SWAP1 DUP2 MSTORE PUSH1 0x10 PUSH1 0x20 MSTORE PUSH1 0x40 DUP2 KECCAK256 SLOAD TIMESTAMP LT ISZERO PUSH2 0x38FF JUMPI PUSH1 0x40 MLOAD PUSH3 0x461BCD PUSH1 0xE5 SHL DUP2 MSTORE PUSH1 0x20 PUSH1 0x4 DUP3 ADD MSTORE PUSH1 0xD PUSH1 0x24 DUP3 ADD MSTORE PUSH13 0x436C61696D2075706461746521 PUSH1 0x98 SHL PUSH1 0x44 DUP3 ADD MSTORE PUSH1 0x64 ADD PUSH2 0x12C1 JUMP JUMPDEST PUSH1 0x1 PUSH1 0x1 PUSH1 0xA0 SHL SUB DUP3 AND PUSH1 0x0 SWAP1 DUP2 MSTORE PUSH1 0x16 PUSH1 0x20 MSTORE PUSH1 0x40 DUP2 KECCAK256 SLOAD SWAP1 SUB PUSH2 0x3926 JUMPI POP PUSH1 0x0 SWAP2 SWAP1 POP JUMP JUMPDEST PUSH1 0x1 PUSH1 0x1 PUSH1 0xA0 SHL SUB DUP3 AND PUSH1 0x0 SWAP1 DUP2 MSTORE PUSH1 0x10 PUSH1 0x20 MSTORE PUSH1 0x40 DUP2 KECCAK256 SLOAD PUSH2 0x3949 SWAP1 TIMESTAMP PUSH2 0x3DB3 JUMP JUMPDEST PUSH1 0x1 PUSH1 0x1 PUSH1 0xA0 SHL SUB DUP5 AND PUSH1 0x0 SWAP1 DUP2 MSTORE PUSH1 0x16 PUSH1 0x20 SWAP1 DUP2 MSTORE PUSH1 0x40 DUP1 DUP4 KECCAK256 SLOAD PUSH1 0x21 SWAP1 SWAP3 MSTORE SWAP1 SWAP2 KECCAK256 SLOAD SWAP2 SWAP3 POP SWAP1 PUSH3 0x15180 SWAP1 PUSH2 0x3981 SWAP1 TIMESTAMP PUSH2 0x3DB3 JUMP JUMPDEST LT ISZERO PUSH2 0x39AD JUMPI PUSH1 0x1 PUSH1 0x1 PUSH1 0xA0 SHL SUB DUP5 AND PUSH1 0x0 SWAP1 DUP2 MSTORE PUSH1 0x22 PUSH1 0x20 MSTORE PUSH1 0x40 SWAP1 KECCAK256 SLOAD PUSH2 0x39AA SWAP1 DUP3 PUSH2 0x3DB3 JUMP JUMPDEST SWAP1 POP JUMPDEST PUSH1 0x0 PUSH8 0xDE0B6B3A7640000 PUSH2 0x2710 DUP5 PUSH2 0x39C5 DUP9 PUSH2 0x2937 JUMP JUMPDEST PUSH2 0x39D1 SWAP1 PUSH2 0x2710 PUSH2 0x3E2D JUMP JUMPDEST DUP6 PUSH2 0x39DD PUSH1 0x7 SLOAD PUSH2 0x31F7 JUMP JUMPDEST PUSH2 0x39E7 SWAP2 SWAP1 PUSH2 0x3D7A JUMP JUMPDEST PUSH2 0x39F1 SWAP2 SWAP1 PUSH2 0x3D7A JUMP JUMPDEST PUSH2 0x39FB SWAP2 SWAP1 PUSH2 0x3D7A JUMP JUMPDEST PUSH2 0x3A05 SWAP2 SWAP1 PUSH2 0x3D91 JUMP JUMPDEST PUSH2 0x30D7 SWAP2 SWAP1 PUSH2 0x3D91 JUMP JUMPDEST PUSH1 0x0 PUSH1 0x20 DUP3 DUP5 SUB SLT ISZERO PUSH2 0x3A21 JUMPI PUSH1 0x0 DUP1 REVERT JUMPDEST POP CALLDATALOAD SWAP2 SWAP1 POP JUMP JUMPDEST DUP1 CALLDATALOAD PUSH1 0x1 PUSH1 0x1 PUSH1 0xA0 SHL SUB DUP2 AND DUP2 EQ PUSH2 0x3A3F JUMPI PUSH1 0x0 DUP1 REVERT JUMPDEST SWAP2 SWAP1 POP JUMP JUMPDEST PUSH1 0x0 DUP1 PUSH1 0x0 PUSH1 0x60 DUP5 DUP7 SUB SLT ISZERO PUSH2 0x3A59 JUMPI PUSH1 0x0 DUP1 REVERT JUMPDEST PUSH2 0x3A62 DUP5 PUSH2 0x3A28 JUMP JUMPDEST SWAP3 POP PUSH2 0x3A70 PUSH1 0x20 DUP6 ADD PUSH2 0x3A28 JUMP JUMPDEST SWAP3 SWAP6 SWAP3 SWAP5 POP POP POP PUSH1 0x40 SWAP2 SWAP1 SWAP2 ADD CALLDATALOAD SWAP1 JUMP JUMPDEST PUSH1 0x0 PUSH1 0x20 DUP3 DUP5 SUB SLT ISZERO PUSH2 0x3A93 JUMPI PUSH1 0x0 DUP1 REVERT JUMPDEST PUSH2 0x1393 DUP3 PUSH2 0x3A28 JUMP JUMPDEST PUSH1 0x20 DUP1 DUP3 MSTORE DUP3 MLOAD DUP3 DUP3 ADD DUP2 SWAP1 MSTORE PUSH1 0x0 SWAP2 DUP5 ADD SWAP1 PUSH1 0x40 DUP5 ADD SWAP1 DUP4 JUMPDEST DUP2 DUP2 LT ISZERO PUSH2 0x3ADD JUMPI DUP4 MLOAD PUSH1 0x1 PUSH1 0x1 PUSH1 0xA0 SHL SUB AND DUP4 MSTORE PUSH1 0x20 SWAP4 DUP5 ADD SWAP4 SWAP1 SWAP3 ADD SWAP2 PUSH1 0x1 ADD PUSH2 0x3AB6 JUMP JUMPDEST POP SWAP1 SWAP6 SWAP5 POP POP POP POP POP JUMP JUMPDEST PUSH1 0x0 DUP1 PUSH1 0x40 DUP4 DUP6 SUB SLT ISZERO PUSH2 0x3AFB JUMPI PUSH1 0x0 DUP1 REVERT JUMPDEST PUSH2 0x3B04 DUP4 PUSH2 0x3A28 JUMP JUMPDEST SWAP2 POP PUSH2 0x3B12 PUSH1 0x20 DUP5 ADD PUSH2 0x3A28 JUMP JUMPDEST SWAP1 POP SWAP3 POP SWAP3 SWAP1 POP JUMP JUMPDEST PUSH1 0x0 DUP1 PUSH1 0x20 DUP4 DUP6 SUB SLT ISZERO PUSH2 0x3B2E JUMPI PUSH1 0x0 DUP1 REVERT JUMPDEST DUP3 CALLDATALOAD PUSH8 0xFFFFFFFFFFFFFFFF DUP2 GT ISZERO PUSH2 0x3B45 JUMPI PUSH1 0x0 DUP1 REVERT JUMPDEST DUP4 ADD PUSH1 0x1F DUP2 ADD DUP6 SGT PUSH2 0x3B56 JUMPI PUSH1 0x0 DUP1 REVERT JUMPDEST DUP1 CALLDATALOAD PUSH8 0xFFFFFFFFFFFFFFFF DUP2 GT ISZERO PUSH2 0x3B6D JUMPI PUSH1 0x0 DUP1 REVERT JUMPDEST DUP6 PUSH1 0x20 DUP3 DUP5 ADD ADD GT ISZERO PUSH2 0x3B7F JUMPI PUSH1 0x0 DUP1 REVERT JUMPDEST PUSH1 0x20 SWAP2 SWAP1 SWAP2 ADD SWAP6 SWAP1 SWAP5 POP SWAP3 POP POP POP JUMP JUMPDEST PUSH1 0x0 DUP1 PUSH1 0x40 DUP4 DUP6 SUB SLT ISZERO PUSH2 0x3BA2 JUMPI PUSH1 0x0 DUP1 REVERT JUMPDEST POP POP DUP1 CALLDATALOAD SWAP3 PUSH1 0x20 SWAP1 SWAP2 ADD CALLDATALOAD SWAP2 POP JUMP JUMPDEST PUSH1 0x0 JUMPDEST DUP4 DUP2 LT ISZERO PUSH2 0x3BCC JUMPI DUP2 DUP2 ADD MLOAD DUP4 DUP3 ADD MSTORE PUSH1 0x20 ADD PUSH2 0x3BB4 JUMP JUMPDEST POP POP PUSH1 0x0 SWAP2 ADD MSTORE JUMP JUMPDEST DUP3 ISZERO ISZERO DUP2 MSTORE PUSH1 0x40 PUSH1 0x20 DUP3 ADD MSTORE PUSH1 0x0 DUP3 MLOAD DUP1 PUSH1 0x40 DUP5 ADD MSTORE PUSH2 0x3BFC DUP2 PUSH1 0x60 DUP6 ADD PUSH1 0x20 DUP8 ADD PUSH2 0x3BB1 JUMP JUMPDEST PUSH1 0x1F ADD PUSH1 0x1F NOT AND SWAP2 SWAP1 SWAP2 ADD PUSH1 0x60 ADD SWAP4 SWAP3 POP POP POP JUMP JUMPDEST PUSH4 0x4E487B71 PUSH1 0xE0 SHL PUSH1 0x0 MSTORE PUSH1 0x41 PUSH1 0x4 MSTORE PUSH1 0x24 PUSH1 0x0 REVERT JUMPDEST PUSH1 0x0 DUP3 PUSH1 0x1F DUP4 ADD SLT PUSH2 0x3C38 JUMPI PUSH1 0x0 DUP1 REVERT JUMPDEST DUP2 CALLDATALOAD PUSH8 0xFFFFFFFFFFFFFFFF DUP2 GT ISZERO PUSH2 0x3C52 JUMPI PUSH2 0x3C52 PUSH2 0x3C11 JUMP JUMPDEST PUSH1 0x40 MLOAD PUSH1 0x1F DUP3 ADD PUSH1 0x1F NOT SWAP1 DUP2 AND PUSH1 0x3F ADD AND DUP2 ADD PUSH8 0xFFFFFFFFFFFFFFFF DUP2 GT DUP3 DUP3 LT OR ISZERO PUSH2 0x3C81 JUMPI PUSH2 0x3C81 PUSH2 0x3C11 JUMP JUMPDEST PUSH1 0x40 MSTORE DUP2 DUP2 MSTORE DUP4 DUP3 ADD PUSH1 0x20 ADD DUP6 LT ISZERO PUSH2 0x3C99 JUMPI PUSH1 0x0 DUP1 REVERT JUMPDEST DUP2 PUSH1 0x20 DUP6 ADD PUSH1 0x20 DUP4 ADD CALLDATACOPY PUSH1 0x0 SWAP2 DUP2 ADD PUSH1 0x20 ADD SWAP2 SWAP1 SWAP2 MSTORE SWAP4 SWAP3 POP POP POP JUMP JUMPDEST PUSH1 0x0 DUP1 PUSH1 0x0 PUSH1 0x60 DUP5 DUP7 SUB SLT ISZERO PUSH2 0x3CCB JUMPI PUSH1 0x0 DUP1 REVERT JUMPDEST DUP4 CALLDATALOAD SWAP3 POP PUSH2 0x3CDB PUSH1 0x20 DUP6 ADD PUSH2 0x3A28 JUMP JUMPDEST SWAP2 POP PUSH1 0x40 DUP5 ADD CALLDATALOAD PUSH8 0xFFFFFFFFFFFFFFFF DUP2 GT ISZERO PUSH2 0x3CF7 JUMPI PUSH1 0x0 DUP1 REVERT JUMPDEST PUSH2 0x3D03 DUP7 DUP3 DUP8 ADD PUSH2 0x3C27 JUMP JUMPDEST SWAP2 POP POP SWAP3 POP SWAP3 POP SWAP3 JUMP JUMPDEST PUSH1 0x0 PUSH1 0x20 DUP3 DUP5 SUB SLT ISZERO PUSH2 0x3D1F JUMPI PUSH1 0x0 DUP1 REVERT JUMPDEST DUP2 CALLDATALOAD PUSH8 0xFFFFFFFFFFFFFFFF DUP2 GT ISZERO PUSH2 0x3D36 JUMPI PUSH1 0x0 DUP1 REVERT JUMPDEST PUSH2 0x29D7 DUP5 DUP3 DUP6 ADD PUSH2 0x3C27 JUMP JUMPDEST PUSH1 0x0 PUSH1 0x20 DUP3 DUP5 SUB SLT ISZERO PUSH2 0x3D54 JUMPI PUSH1 0x0 DUP1 REVERT JUMPDEST DUP2 MLOAD DUP1 ISZERO ISZERO DUP2 EQ PUSH2 0x1393 JUMPI PUSH1 0x0 DUP1 REVERT JUMPDEST PUSH4 0x4E487B71 PUSH1 0xE0 SHL PUSH1 0x0 MSTORE PUSH1 0x11 PUSH1 0x4 MSTORE PUSH1 0x24 PUSH1 0x0 REVERT JUMPDEST DUP1 DUP3 MUL DUP2 ISZERO DUP3 DUP3 DIV DUP5 EQ OR PUSH2 0x137F JUMPI PUSH2 0x137F PUSH2 0x3D64 JUMP JUMPDEST PUSH1 0x0 DUP3 PUSH2 0x3DAE JUMPI PUSH4 0x4E487B71 PUSH1 0xE0 SHL PUSH1 0x0 MSTORE PUSH1 0x12 PUSH1 0x4 MSTORE PUSH1 0x24 PUSH1 0x0 REVERT JUMPDEST POP DIV SWAP1 JUMP JUMPDEST DUP2 DUP2 SUB DUP2 DUP2 GT ISZERO PUSH2 0x137F JUMPI PUSH2 0x137F PUSH2 0x3D64 JUMP JUMPDEST PUSH1 0x20 DUP1 DUP3 MSTORE PUSH1 0x2B SWAP1 DUP3 ADD MSTORE PUSH32 0x556E7374616B65204665652073686F756C64206265206C657373207468616E20 PUSH1 0x40 DUP3 ADD MSTORE PUSH11 0x3232B737B6B4B730BA37B9 PUSH1 0xA9 SHL PUSH1 0x60 DUP3 ADD MSTORE PUSH1 0x80 ADD SWAP1 JUMP JUMPDEST PUSH1 0x0 DUP3 MLOAD PUSH2 0x3E23 DUP2 DUP5 PUSH1 0x20 DUP8 ADD PUSH2 0x3BB1 JUMP JUMPDEST SWAP2 SWAP1 SWAP2 ADD SWAP3 SWAP2 POP POP JUMP JUMPDEST DUP1 DUP3 ADD DUP1 DUP3 GT ISZERO PUSH2 0x137F JUMPI PUSH2 0x137F PUSH2 0x3D64 JUMP JUMPDEST PUSH4 0x4E487B71 PUSH1 0xE0 SHL PUSH1 0x0 MSTORE PUSH1 0x32 PUSH1 0x4 MSTORE PUSH1 0x24 PUSH1 0x0 REVERT JUMPDEST PUSH1 0x0 PUSH1 0x1 DUP3 ADD PUSH2 0x3E68 JUMPI PUSH2 0x3E68 PUSH2 0x3D64 JUMP JUMPDEST POP PUSH1 0x1 ADD SWAP1 JUMP JUMPDEST PUSH1 0x0 PUSH1 0x20 DUP3 DUP5 SUB SLT ISZERO PUSH2 0x3E81 JUMPI PUSH1 0x0 DUP1 REVERT JUMPDEST POP MLOAD SWAP2 SWAP1 POP JUMP JUMPDEST PUSH4 0x4E487B71 PUSH1 0xE0 SHL PUSH1 0x0 MSTORE PUSH1 0x31 PUSH1 0x4 MSTORE PUSH1 0x24 PUSH1 0x0 REVERT INVALID LOG2 PUSH5 0x6970667358 0x22 SLT KECCAK256 0xDB 0xD1 0xB8 SWAP7 JUMP MLOAD RETURN 0x26 0x2E 0xAC SWAP4 DIFFICULTY PUSH15 0xEB1A6625C7A958B439B86BBE6B9914 0xB0 JUMPDEST 0xA5 SHR PUSH5 0x736F6C6343 STOP ADDMOD BYTE STOP CALLER "
		},
		"gasEstimates": {
			"creation": {
				"codeDepositCost": "3216800",
				"executionCost": "infinite",
				"totalCost": "infinite"
			},
			"external": {
				"": "292",
				"PERCENTAGE_DENOMINATOR()": "252",
				"REFERRAL_VESTING_PERIOD()": "318",
				"callingCount()": "2461",
				"checkUpkeep(bytes)": "infinite",
				"claimReferralReward()": "infinite",
				"claimStakingReward()": "infinite",
				"discountUnstakeFee()": "2376",
				"duration()": "2353",
				"earnedReferralReward(address)": "infinite",
				"emergencyWithdrawTokens(address,address,uint256)": "infinite",
				"firstRefRewards(address,address)": "infinite",
				"firstRefRewardsRate()": "2372",
				"firstReferralRewards(address,address)": "infinite",
				"getAPY()": "infinite",
				"getAPYSimulation(uint256)": "infinite",
				"getAllStakers()": "infinite",
				"getCalculateMultiplier(address)": "infinite",
				"getFirstRefReward(address,address)": "infinite",
				"getFirstReferees(address)": "infinite",
				"getRefRewardClaimed(address)": "2637",
				"getRefereeCount(address)": "2639",
				"getSecondRefReward(address,address)": "infinite",
				"getSecondReferees(address)": "infinite",
				"getStakersLength()": "infinite",
				"getStakingRewardsToRelease(address)": "2681",
				"getTokenStaked(address)": "2681",
				"getTotalRewardClaimed(address)": "2638",
				"isReferrer(address)": "2664",
				"isUsedRefCode(address)": "2621",
				"lastFirstRefRewardPerSec(address)": "2641",
				"lastSecondRefRewardPerSec(address)": "2598",
				"lastStakedAmount(address)": "2686",
				"lastStakedTime(address)": "2575",
				"lastTimeStampForChainlink()": "2396",
				"lastUnstakedAt(address)": "2620",
				"longtermStakingRewardsRate()": "2374",
				"multiplierEpoch()": "2439",
				"multiplierRatePerEpoch()": "2420",
				"owner()": "2476",
				"pause()": "infinite",
				"paused()": "2482",
				"performUpkeep(bytes)": "infinite",
				"refRewardStartedAt(address)": "2576",
				"refereeCount(address)": "2665",
				"referralRewardToClaim(address)": "infinite",
				"referrers(address)": "2626",
				"referrersWithRefCodes(string)": "infinite",
				"releaseRefRewardDuration()": "2461",
				"releaseRefRewardEpoch()": "2440",
				"releaseRewardDuration()": "2438",
				"releasedRewardUpdatedAt(address)": "2618",
				"remainingReferralRewards(address)": "2643",
				"remainingStakingRewards(address)": "2664",
				"renounceOwnership()": "infinite",
				"secondRefRewards(address,address)": "infinite",
				"secondRefRewardsRate()": "2417",
				"secondReferralRewards(address,address)": "infinite",
				"stake(uint256,address,string)": "infinite",
				"stakedWithRef(address,address)": "infinite",
				"stakingAppStartedAt()": "2441",
				"stakingRewardsToRelease(address)": "2642",
				"token()": "2469",
				"tokensStaked(address)": "2665",
				"totalRefRewardClaimed(address)": "2599",
				"totalRefRewardsVested()": "2418",
				"totalRewardClaimed(address)": "2597",
				"totalStaked()": "2397",
				"totalStakedPrev()": "2396",
				"totalStakingRewardsToRelease()": "2417",
				"transferOwnership(address)": "28435",
				"treasuryBalancePrev()": "2354",
				"treasuryRateForRewards()": "2419",
				"treasuryWallet()": "2472",
				"unpause()": "infinite",
				"unstake(uint256)": "infinite",
				"unstakeFee()": "2440",
				"updateDiscountUnstakeFee(uint256)": "24690",
				"updateLongtermStakingRewardsRate(uint256)": "26792",
				"updateMultiplier(uint256,uint256)": "48925",
				"updateRefRewardRates(uint256,uint256)": "46813",
				"updateReleaseRefRewardDuration(uint256)": "24569",
				"updateReleaseRefRewardInfo(uint256,uint256)": "46728",
				"updateReleaseStakingRewardDuration(uint256)": "24592",
				"updateRewardDuration(uint256)": "25954",
				"updateStakingAppStartedAt()": "24518",
				"updateStakingToken(address)": "26919",
				"updateToken(address)": "26853",
				"updateTreasuryRateForRewards(uint256)": "24624",
				"updateUnstakeFee(uint256)": "24732",
				"withdrawETH(address)": "infinite"
			},
			"internal": {
				"_addStakeReferrer(address,address,uint256)": "infinite",
				"_calculateClaimableReferralReward(struct StakingRewards.ReferralReward storage pointer)": "infinite",
				"_calculateMuliplier(address)": "infinite",
				"_calculateRefRewards(address,address,uint256)": "infinite",
				"_calculateStakingAppMuliplier()": "infinite",
				"_calculateTotalRefRewardToClaim(address)": "infinite",
				"_claimReward(uint256)": "infinite",
				"_createRefCode(address,string memory)": "infinite",
				"_earnedStakingReward(address)": "infinite",
				"_handleBatchProcessForAutomation()": "infinite",
				"_isValidReferralCode(string memory)": "infinite",
				"_min(uint256,uint256)": "64",
				"_processNextBatchToReleaseStakingRewards()": "infinite",
				"_rewardsPerTokenAndSec(uint256)": "infinite",
				"_updateExpectedRefRewards(address,uint256)": "infinite",
				"_updateRefRewardPerSec(address,uint256)": "infinite",
				"_updateReferralRewards(address,uint256)": "infinite",
				"_updateStakingReleasedRewards(uint256,uint256)": "infinite"
			}
		},
		"methodIdentifiers": {
			"PERCENTAGE_DENOMINATOR()": "b3cd4254",
			"REFERRAL_VESTING_PERIOD()": "366b2eff",
			"callingCount()": "dc70219f",
			"checkUpkeep(bytes)": "6e04ff0d",
			"claimReferralReward()": "9b4b2c9c",
			"claimStakingReward()": "afc695ce",
			"discountUnstakeFee()": "05a4263d",
			"duration()": "0fb5a6b4",
			"earnedReferralReward(address)": "963ffd16",
			"emergencyWithdrawTokens(address,address,uint256)": "0e80f0b3",
			"firstRefRewards(address,address)": "8ec7830b",
			"firstRefRewardsRate()": "f87582c4",
			"firstReferralRewards(address,address)": "cd47d73d",
			"getAPY()": "d2cbf7ad",
			"getAPYSimulation(uint256)": "9c30d8f0",
			"getAllStakers()": "6e4f88c8",
			"getCalculateMultiplier(address)": "79196d4b",
			"getFirstRefReward(address,address)": "6b6fcdcd",
			"getFirstReferees(address)": "1d69ebe6",
			"getRefRewardClaimed(address)": "77246311",
			"getRefereeCount(address)": "2c070d7d",
			"getSecondRefReward(address,address)": "20408339",
			"getSecondReferees(address)": "41d3630a",
			"getStakersLength()": "9fabeb00",
			"getStakingRewardsToRelease(address)": "a8f5c954",
			"getTokenStaked(address)": "d76eccbb",
			"getTotalRewardClaimed(address)": "59e7f452",
			"isReferrer(address)": "d64d6968",
			"isUsedRefCode(address)": "4ad6eb2e",
			"lastFirstRefRewardPerSec(address)": "c15ffa50",
			"lastSecondRefRewardPerSec(address)": "337aa4c4",
			"lastStakedAmount(address)": "3e50a556",
			"lastStakedTime(address)": "c57a202c",
			"lastTimeStampForChainlink()": "6a4681e5",
			"lastUnstakedAt(address)": "34fea342",
			"longtermStakingRewardsRate()": "b7061124",
			"multiplierEpoch()": "790e61c1",
			"multiplierRatePerEpoch()": "0a30307d",
			"owner()": "8da5cb5b",
			"pause()": "8456cb59",
			"paused()": "5c975abb",
			"performUpkeep(bytes)": "4585e33b",
			"refRewardStartedAt(address)": "88bd2aef",
			"refereeCount(address)": "472be74a",
			"referralRewardToClaim(address)": "c12ac65d",
			"referrers(address)": "4a3b68cc",
			"referrersWithRefCodes(string)": "bc48dcab",
			"releaseRefRewardDuration()": "c48c2636",
			"releaseRefRewardEpoch()": "5c4ed202",
			"releaseRewardDuration()": "fcc6d1f4",
			"releasedRewardUpdatedAt(address)": "fb099349",
			"remainingReferralRewards(address)": "2c52bed9",
			"remainingStakingRewards(address)": "3ae58ef2",
			"renounceOwnership()": "715018a6",
			"secondRefRewards(address,address)": "c1985a2a",
			"secondRefRewardsRate()": "7790a1c8",
			"secondReferralRewards(address,address)": "b9f2b4e0",
			"stake(uint256,address,string)": "8c4a23e0",
			"stakedWithRef(address,address)": "8be0f2ca",
			"stakingAppStartedAt()": "1c0b5a3f",
			"stakingRewardsToRelease(address)": "94998885",
			"token()": "fc0c546a",
			"tokensStaked(address)": "2cf01b55",
			"totalRefRewardClaimed(address)": "260429c2",
			"totalRefRewardsVested()": "5a2443f7",
			"totalRewardClaimed(address)": "bd9dc8f6",
			"totalStaked()": "817b1cd2",
			"totalStakedPrev()": "93f8691d",
			"totalStakingRewardsToRelease()": "a50a24e8",
			"transferOwnership(address)": "f2fde38b",
			"treasuryBalancePrev()": "03793298",
			"treasuryRateForRewards()": "15bf6c03",
			"treasuryWallet()": "4626402b",
			"unpause()": "3f4ba83a",
			"unstake(uint256)": "2e17de78",
			"unstakeFee()": "8ea97d26",
			"updateDiscountUnstakeFee(uint256)": "6afee824",
			"updateLongtermStakingRewardsRate(uint256)": "14d76685",
			"updateMultiplier(uint256,uint256)": "bad60f18",
			"updateRefRewardRates(uint256,uint256)": "5cc140aa",
			"updateReleaseRefRewardDuration(uint256)": "bd39f348",
			"updateReleaseRefRewardInfo(uint256,uint256)": "7def9d30",
			"updateReleaseStakingRewardDuration(uint256)": "917215dd",
			"updateRewardDuration(uint256)": "070a888f",
			"updateStakingAppStartedAt()": "1427fc05",
			"updateStakingToken(address)": "83ad068c",
			"updateToken(address)": "7ad3def2",
			"updateTreasuryRateForRewards(uint256)": "90de6cf2",
			"updateUnstakeFee(uint256)": "fd922d08",
			"withdrawETH(address)": "690d8320"
		}
	},
	"abi": [
		{
			"inputs": [
				{
					"internalType": "address",
					"name": "_ownerAddress",
					"type": "address"
				},
				{
					"internalType": "address",
					"name": "_token",
					"type": "address"
				},
				{
					"internalType": "address",
					"name": "_treasuryWallet",
					"type": "address"
				},
				{
					"internalType": "uint256",
					"name": "_duration",
					"type": "uint256"
				}
			],
			"stateMutability": "nonpayable",
			"type": "constructor"
		},
		{
			"inputs": [],
			"name": "OnlySimulatedBackend",
			"type": "error"
		},
		{
			"inputs": [
				{
					"internalType": "address",
					"name": "owner",
					"type": "address"
				}
			],
			"name": "OwnableInvalidOwner",
			"type": "error"
		},
		{
			"inputs": [
				{
					"internalType": "address",
					"name": "account",
					"type": "address"
				}
			],
			"name": "OwnableUnauthorizedAccount",
			"type": "error"
		},
		{
			"anonymous": false,
			"inputs": [
				{
					"indexed": true,
					"internalType": "address",
					"name": "user",
					"type": "address"
				},
				{
					"indexed": false,
					"internalType": "uint256",
					"name": "amount",
					"type": "uint256"
				},
				{
					"indexed": false,
					"internalType": "uint256",
					"name": "time",
					"type": "uint256"
				}
			],
			"name": "ClaimReward",
			"type": "event"
		},
		{
			"anonymous": false,
			"inputs": [
				{
					"indexed": false,
					"internalType": "uint256",
					"name": "duration",
					"type": "uint256"
				},
				{
					"indexed": false,
					"internalType": "uint256",
					"name": "time",
					"type": "uint256"
				}
			],
			"name": "DurationChanged",
			"type": "event"
		},
		{
			"anonymous": false,
			"inputs": [
				{
					"indexed": true,
					"internalType": "address",
					"name": "previousOwner",
					"type": "address"
				},
				{
					"indexed": true,
					"internalType": "address",
					"name": "newOwner",
					"type": "address"
				}
			],
			"name": "OwnershipTransferred",
			"type": "event"
		},
		{
			"anonymous": false,
			"inputs": [
				{
					"indexed": false,
					"internalType": "address",
					"name": "account",
					"type": "address"
				}
			],
			"name": "Paused",
			"type": "event"
		},
		{
			"anonymous": false,
			"inputs": [
				{
					"indexed": true,
					"internalType": "address",
					"name": "referrer",
					"type": "address"
				},
				{
					"indexed": true,
					"internalType": "address",
					"name": "referee",
					"type": "address"
				},
				{
					"indexed": false,
					"internalType": "uint256",
					"name": "amount",
					"type": "uint256"
				},
				{
					"indexed": false,
					"internalType": "uint256",
					"name": "time",
					"type": "uint256"
				}
			],
			"name": "ReferralRewardClaimed",
			"type": "event"
		},
		{
			"anonymous": false,
			"inputs": [
				{
					"indexed": true,
					"internalType": "address",
					"name": "user",
					"type": "address"
				},
				{
					"indexed": false,
					"internalType": "uint256",
					"name": "amount",
					"type": "uint256"
				},
				{
					"indexed": false,
					"internalType": "uint256",
					"name": "time",
					"type": "uint256"
				}
			],
			"name": "StakeToken",
			"type": "event"
		},
		{
			"anonymous": false,
			"inputs": [
				{
					"indexed": false,
					"internalType": "address",
					"name": "account",
					"type": "address"
				}
			],
			"name": "Unpaused",
			"type": "event"
		},
		{
			"anonymous": false,
			"inputs": [
				{
					"indexed": true,
					"internalType": "address",
					"name": "user",
					"type": "address"
				},
				{
					"indexed": false,
					"internalType": "uint256",
					"name": "amount",
					"type": "uint256"
				},
				{
					"indexed": false,
					"internalType": "uint256",
					"name": "time",
					"type": "uint256"
				}
			],
			"name": "UnstakeToken",
			"type": "event"
		},
		{
			"stateMutability": "nonpayable",
			"type": "fallback"
		},
		{
			"inputs": [],
			"name": "PERCENTAGE_DENOMINATOR",
			"outputs": [
				{
					"internalType": "uint256",
					"name": "",
					"type": "uint256"
				}
			],
			"stateMutability": "view",
			"type": "function"
		},
		{
			"inputs": [],
			"name": "REFERRAL_VESTING_PERIOD",
			"outputs": [
				{
					"internalType": "uint256",
					"name": "",
					"type": "uint256"
				}
			],
			"stateMutability": "view",
			"type": "function"
		},
		{
			"inputs": [],
			"name": "callingCount",
			"outputs": [
				{
					"internalType": "uint256",
					"name": "",
					"type": "uint256"
				}
			],
			"stateMutability": "view",
			"type": "function"
		},
		{
			"inputs": [
				{
					"internalType": "bytes",
					"name": "checkData",
					"type": "bytes"
				}
			],
			"name": "checkUpkeep",
			"outputs": [
				{
					"internalType": "bool",
					"name": "upkeepNeeded",
					"type": "bool"
				},
				{
					"internalType": "bytes",
					"name": "performData",
					"type": "bytes"
				}
			],
			"stateMutability": "view",
			"type": "function"
		},
		{
			"inputs": [],
			"name": "claimReferralReward",
			"outputs": [
				{
					"internalType": "bool",
					"name": "",
					"type": "bool"
				}
			],
			"stateMutability": "nonpayable",
			"type": "function"
		},
		{
			"inputs": [],
			"name": "claimStakingReward",
			"outputs": [
				{
					"internalType": "bool",
					"name": "",
					"type": "bool"
				}
			],
			"stateMutability": "nonpayable",
			"type": "function"
		},
		{
			"inputs": [],
			"name": "discountUnstakeFee",
			"outputs": [
				{
					"internalType": "uint256",
					"name": "",
					"type": "uint256"
				}
			],
			"stateMutability": "view",
			"type": "function"
		},
		{
			"inputs": [],
			"name": "duration",
			"outputs": [
				{
					"internalType": "uint256",
					"name": "",
					"type": "uint256"
				}
			],
			"stateMutability": "view",
			"type": "function"
		},
		{
			"inputs": [
				{
					"internalType": "address",
					"name": "_referrer",
					"type": "address"
				}
			],
			"name": "earnedReferralReward",
			"outputs": [
				{
					"internalType": "uint256",
					"name": "",
					"type": "uint256"
				}
			],
			"stateMutability": "view",
			"type": "function"
		},
		{
			"inputs": [
				{
					"internalType": "address",
					"name": "_token",
					"type": "address"
				},
				{
					"internalType": "address",
					"name": "_to",
					"type": "address"
				},
				{
					"internalType": "uint256",
					"name": "_amount",
					"type": "uint256"
				}
			],
			"name": "emergencyWithdrawTokens",
			"outputs": [],
			"stateMutability": "nonpayable",
			"type": "function"
		},
		{
			"inputs": [
				{
					"internalType": "address",
					"name": "",
					"type": "address"
				},
				{
					"internalType": "address",
					"name": "",
					"type": "address"
				}
			],
			"name": "firstRefRewards",
			"outputs": [
				{
					"internalType": "uint256",
					"name": "",
					"type": "uint256"
				}
			],
			"stateMutability": "view",
			"type": "function"
		},
		{
			"inputs": [],
			"name": "firstRefRewardsRate",
			"outputs": [
				{
					"internalType": "uint256",
					"name": "",
					"type": "uint256"
				}
			],
			"stateMutability": "view",
			"type": "function"
		},
		{
			"inputs": [
				{
					"internalType": "address",
					"name": "",
					"type": "address"
				},
				{
					"internalType": "address",
					"name": "",
					"type": "address"
				}
			],
			"name": "firstReferralRewards",
			"outputs": [
				{
					"internalType": "uint256",
					"name": "totalAmount",
					"type": "uint256"
				},
				{
					"internalType": "uint256",
					"name": "startTime",
					"type": "uint256"
				},
				{
					"internalType": "uint256",
					"name": "claimedAmount",
					"type": "uint256"
				},
				{
					"internalType": "uint256",
					"name": "lastClaimTime",
					"type": "uint256"
				}
			],
			"stateMutability": "view",
			"type": "function"
		},
		{
			"inputs": [],
			"name": "getAPY",
			"outputs": [
				{
					"internalType": "uint256",
					"name": "",
					"type": "uint256"
				}
			],
			"stateMutability": "view",
			"type": "function"
		},
		{
			"inputs": [
				{
					"internalType": "uint256",
					"name": "_duration",
					"type": "uint256"
				}
			],
			"name": "getAPYSimulation",
			"outputs": [
				{
					"internalType": "uint256",
					"name": "",
					"type": "uint256"
				}
			],
			"stateMutability": "view",
			"type": "function"
		},
		{
			"inputs": [],
			"name": "getAllStakers",
			"outputs": [
				{
					"internalType": "address[]",
					"name": "",
					"type": "address[]"
				}
			],
			"stateMutability": "view",
			"type": "function"
		},
		{
			"inputs": [
				{
					"internalType": "address",
					"name": "_account",
					"type": "address"
				}
			],
			"name": "getCalculateMultiplier",
			"outputs": [
				{
					"internalType": "uint256",
					"name": "",
					"type": "uint256"
				}
			],
			"stateMutability": "view",
			"type": "function"
		},
		{
			"inputs": [
				{
					"internalType": "address",
					"name": "_referrer",
					"type": "address"
				},
				{
					"internalType": "address",
					"name": "_referee",
					"type": "address"
				}
			],
			"name": "getFirstRefReward",
			"outputs": [
				{
					"internalType": "uint256",
					"name": "",
					"type": "uint256"
				}
			],
			"stateMutability": "view",
			"type": "function"
		},
		{
			"inputs": [
				{
					"internalType": "address",
					"name": "_referrer",
					"type": "address"
				}
			],
			"name": "getFirstReferees",
			"outputs": [
				{
					"internalType": "address[]",
					"name": "",
					"type": "address[]"
				}
			],
			"stateMutability": "view",
			"type": "function"
		},
		{
			"inputs": [
				{
					"internalType": "address",
					"name": "_account",
					"type": "address"
				}
			],
			"name": "getRefRewardClaimed",
			"outputs": [
				{
					"internalType": "uint256",
					"name": "",
					"type": "uint256"
				}
			],
			"stateMutability": "view",
			"type": "function"
		},
		{
			"inputs": [
				{
					"internalType": "address",
					"name": "_referrer",
					"type": "address"
				}
			],
			"name": "getRefereeCount",
			"outputs": [
				{
					"internalType": "uint256",
					"name": "",
					"type": "uint256"
				}
			],
			"stateMutability": "view",
			"type": "function"
		},
		{
			"inputs": [
				{
					"internalType": "address",
					"name": "_referrer",
					"type": "address"
				},
				{
					"internalType": "address",
					"name": "_referee",
					"type": "address"
				}
			],
			"name": "getSecondRefReward",
			"outputs": [
				{
					"internalType": "uint256",
					"name": "",
					"type": "uint256"
				}
			],
			"stateMutability": "view",
			"type": "function"
		},
		{
			"inputs": [
				{
					"internalType": "address",
					"name": "_referrer",
					"type": "address"
				}
			],
			"name": "getSecondReferees",
			"outputs": [
				{
					"internalType": "address[]",
					"name": "",
					"type": "address[]"
				}
			],
			"stateMutability": "view",
			"type": "function"
		},
		{
			"inputs": [],
			"name": "getStakersLength",
			"outputs": [
				{
					"internalType": "uint256",
					"name": "",
					"type": "uint256"
				}
			],
			"stateMutability": "view",
			"type": "function"
		},
		{
			"inputs": [
				{
					"internalType": "address",
					"name": "_account",
					"type": "address"
				}
			],
			"name": "getStakingRewardsToRelease",
			"outputs": [
				{
					"internalType": "uint256",
					"name": "",
					"type": "uint256"
				}
			],
			"stateMutability": "view",
			"type": "function"
		},
		{
			"inputs": [
				{
					"internalType": "address",
					"name": "_account",
					"type": "address"
				}
			],
			"name": "getTokenStaked",
			"outputs": [
				{
					"internalType": "uint256",
					"name": "",
					"type": "uint256"
				}
			],
			"stateMutability": "view",
			"type": "function"
		},
		{
			"inputs": [
				{
					"internalType": "address",
					"name": "_account",
					"type": "address"
				}
			],
			"name": "getTotalRewardClaimed",
			"outputs": [
				{
					"internalType": "uint256",
					"name": "",
					"type": "uint256"
				}
			],
			"stateMutability": "view",
			"type": "function"
		},
		{
			"inputs": [
				{
					"internalType": "address",
					"name": "",
					"type": "address"
				}
			],
			"name": "isReferrer",
			"outputs": [
				{
					"internalType": "bool",
					"name": "",
					"type": "bool"
				}
			],
			"stateMutability": "view",
			"type": "function"
		},
		{
			"inputs": [
				{
					"internalType": "address",
					"name": "",
					"type": "address"
				}
			],
			"name": "isUsedRefCode",
			"outputs": [
				{
					"internalType": "bool",
					"name": "",
					"type": "bool"
				}
			],
			"stateMutability": "view",
			"type": "function"
		},
		{
			"inputs": [
				{
					"internalType": "address",
					"name": "",
					"type": "address"
				}
			],
			"name": "lastFirstRefRewardPerSec",
			"outputs": [
				{
					"internalType": "uint256",
					"name": "",
					"type": "uint256"
				}
			],
			"stateMutability": "view",
			"type": "function"
		},
		{
			"inputs": [
				{
					"internalType": "address",
					"name": "",
					"type": "address"
				}
			],
			"name": "lastSecondRefRewardPerSec",
			"outputs": [
				{
					"internalType": "uint256",
					"name": "",
					"type": "uint256"
				}
			],
			"stateMutability": "view",
			"type": "function"
		},
		{
			"inputs": [
				{
					"internalType": "address",
					"name": "",
					"type": "address"
				}
			],
			"name": "lastStakedAmount",
			"outputs": [
				{
					"internalType": "uint256",
					"name": "",
					"type": "uint256"
				}
			],
			"stateMutability": "view",
			"type": "function"
		},
		{
			"inputs": [
				{
					"internalType": "address",
					"name": "",
					"type": "address"
				}
			],
			"name": "lastStakedTime",
			"outputs": [
				{
					"internalType": "uint256",
					"name": "",
					"type": "uint256"
				}
			],
			"stateMutability": "view",
			"type": "function"
		},
		{
			"inputs": [],
			"name": "lastTimeStampForChainlink",
			"outputs": [
				{
					"internalType": "uint256",
					"name": "",
					"type": "uint256"
				}
			],
			"stateMutability": "view",
			"type": "function"
		},
		{
			"inputs": [
				{
					"internalType": "address",
					"name": "",
					"type": "address"
				}
			],
			"name": "lastUnstakedAt",
			"outputs": [
				{
					"internalType": "uint256",
					"name": "",
					"type": "uint256"
				}
			],
			"stateMutability": "view",
			"type": "function"
		},
		{
			"inputs": [],
			"name": "longtermStakingRewardsRate",
			"outputs": [
				{
					"internalType": "uint256",
					"name": "",
					"type": "uint256"
				}
			],
			"stateMutability": "view",
			"type": "function"
		},
		{
			"inputs": [],
			"name": "multiplierEpoch",
			"outputs": [
				{
					"internalType": "uint256",
					"name": "",
					"type": "uint256"
				}
			],
			"stateMutability": "view",
			"type": "function"
		},
		{
			"inputs": [],
			"name": "multiplierRatePerEpoch",
			"outputs": [
				{
					"internalType": "uint256",
					"name": "",
					"type": "uint256"
				}
			],
			"stateMutability": "view",
			"type": "function"
		},
		{
			"inputs": [],
			"name": "owner",
			"outputs": [
				{
					"internalType": "address",
					"name": "",
					"type": "address"
				}
			],
			"stateMutability": "view",
			"type": "function"
		},
		{
			"inputs": [],
			"name": "pause",
			"outputs": [],
			"stateMutability": "nonpayable",
			"type": "function"
		},
		{
			"inputs": [],
			"name": "paused",
			"outputs": [
				{
					"internalType": "bool",
					"name": "",
					"type": "bool"
				}
			],
			"stateMutability": "view",
			"type": "function"
		},
		{
			"inputs": [
				{
					"internalType": "bytes",
					"name": "",
					"type": "bytes"
				}
			],
			"name": "performUpkeep",
			"outputs": [],
			"stateMutability": "nonpayable",
			"type": "function"
		},
		{
			"inputs": [
				{
					"internalType": "address",
					"name": "",
					"type": "address"
				}
			],
			"name": "refRewardStartedAt",
			"outputs": [
				{
					"internalType": "uint256",
					"name": "",
					"type": "uint256"
				}
			],
			"stateMutability": "view",
			"type": "function"
		},
		{
			"inputs": [
				{
					"internalType": "address",
					"name": "",
					"type": "address"
				}
			],
			"name": "refereeCount",
			"outputs": [
				{
					"internalType": "uint256",
					"name": "",
					"type": "uint256"
				}
			],
			"stateMutability": "view",
			"type": "function"
		},
		{
			"inputs": [
				{
					"internalType": "address",
					"name": "_referrer",
					"type": "address"
				}
			],
			"name": "referralRewardToClaim",
			"outputs": [
				{
					"internalType": "uint256",
					"name": "",
					"type": "uint256"
				}
			],
			"stateMutability": "view",
			"type": "function"
		},
		{
			"inputs": [
				{
					"internalType": "address",
					"name": "",
					"type": "address"
				}
			],
			"name": "referrers",
			"outputs": [
				{
					"internalType": "address",
					"name": "",
					"type": "address"
				}
			],
			"stateMutability": "view",
			"type": "function"
		},
		{
			"inputs": [
				{
					"internalType": "string",
					"name": "",
					"type": "string"
				}
			],
			"name": "referrersWithRefCodes",
			"outputs": [
				{
					"internalType": "address",
					"name": "",
					"type": "address"
				}
			],
			"stateMutability": "view",
			"type": "function"
		},
		{
			"inputs": [],
			"name": "releaseRefRewardDuration",
			"outputs": [
				{
					"internalType": "uint256",
					"name": "",
					"type": "uint256"
				}
			],
			"stateMutability": "view",
			"type": "function"
		},
		{
			"inputs": [],
			"name": "releaseRefRewardEpoch",
			"outputs": [
				{
					"internalType": "uint256",
					"name": "",
					"type": "uint256"
				}
			],
			"stateMutability": "view",
			"type": "function"
		},
		{
			"inputs": [],
			"name": "releaseRewardDuration",
			"outputs": [
				{
					"internalType": "uint256",
					"name": "",
					"type": "uint256"
				}
			],
			"stateMutability": "view",
			"type": "function"
		},
		{
			"inputs": [
				{
					"internalType": "address",
					"name": "",
					"type": "address"
				}
			],
			"name": "releasedRewardUpdatedAt",
			"outputs": [
				{
					"internalType": "uint256",
					"name": "",
					"type": "uint256"
				}
			],
			"stateMutability": "view",
			"type": "function"
		},
		{
			"inputs": [
				{
					"internalType": "address",
					"name": "",
					"type": "address"
				}
			],
			"name": "remainingReferralRewards",
			"outputs": [
				{
					"internalType": "uint256",
					"name": "",
					"type": "uint256"
				}
			],
			"stateMutability": "view",
			"type": "function"
		},
		{
			"inputs": [
				{
					"internalType": "address",
					"name": "",
					"type": "address"
				}
			],
			"name": "remainingStakingRewards",
			"outputs": [
				{
					"internalType": "uint256",
					"name": "",
					"type": "uint256"
				}
			],
			"stateMutability": "view",
			"type": "function"
		},
		{
			"inputs": [],
			"name": "renounceOwnership",
			"outputs": [],
			"stateMutability": "nonpayable",
			"type": "function"
		},
		{
			"inputs": [
				{
					"internalType": "address",
					"name": "",
					"type": "address"
				},
				{
					"internalType": "address",
					"name": "",
					"type": "address"
				}
			],
			"name": "secondRefRewards",
			"outputs": [
				{
					"internalType": "uint256",
					"name": "",
					"type": "uint256"
				}
			],
			"stateMutability": "view",
			"type": "function"
		},
		{
			"inputs": [],
			"name": "secondRefRewardsRate",
			"outputs": [
				{
					"internalType": "uint256",
					"name": "",
					"type": "uint256"
				}
			],
			"stateMutability": "view",
			"type": "function"
		},
		{
			"inputs": [
				{
					"internalType": "address",
					"name": "",
					"type": "address"
				},
				{
					"internalType": "address",
					"name": "",
					"type": "address"
				}
			],
			"name": "secondReferralRewards",
			"outputs": [
				{
					"internalType": "uint256",
					"name": "totalAmount",
					"type": "uint256"
				},
				{
					"internalType": "uint256",
					"name": "startTime",
					"type": "uint256"
				},
				{
					"internalType": "uint256",
					"name": "claimedAmount",
					"type": "uint256"
				},
				{
					"internalType": "uint256",
					"name": "lastClaimTime",
					"type": "uint256"
				}
			],
			"stateMutability": "view",
			"type": "function"
		},
		{
			"inputs": [
				{
					"internalType": "uint256",
					"name": "_amount",
					"type": "uint256"
				},
				{
					"internalType": "address",
					"name": "_referrer",
					"type": "address"
				},
				{
					"internalType": "string",
					"name": "_refCode",
					"type": "string"
				}
			],
			"name": "stake",
			"outputs": [],
			"stateMutability": "nonpayable",
			"type": "function"
		},
		{
			"inputs": [
				{
					"internalType": "address",
					"name": "",
					"type": "address"
				},
				{
					"internalType": "address",
					"name": "",
					"type": "address"
				}
			],
			"name": "stakedWithRef",
			"outputs": [
				{
					"internalType": "uint256",
					"name": "",
					"type": "uint256"
				}
			],
			"stateMutability": "view",
			"type": "function"
		},
		{
			"inputs": [],
			"name": "stakingAppStartedAt",
			"outputs": [
				{
					"internalType": "uint256",
					"name": "",
					"type": "uint256"
				}
			],
			"stateMutability": "view",
			"type": "function"
		},
		{
			"inputs": [
				{
					"internalType": "address",
					"name": "",
					"type": "address"
				}
			],
			"name": "stakingRewardsToRelease",
			"outputs": [
				{
					"internalType": "uint256",
					"name": "",
					"type": "uint256"
				}
			],
			"stateMutability": "view",
			"type": "function"
		},
		{
			"inputs": [],
			"name": "token",
			"outputs": [
				{
					"internalType": "contract IERC20Metadata",
					"name": "",
					"type": "address"
				}
			],
			"stateMutability": "view",
			"type": "function"
		},
		{
			"inputs": [
				{
					"internalType": "address",
					"name": "",
					"type": "address"
				}
			],
			"name": "tokensStaked",
			"outputs": [
				{
					"internalType": "uint256",
					"name": "",
					"type": "uint256"
				}
			],
			"stateMutability": "view",
			"type": "function"
		},
		{
			"inputs": [
				{
					"internalType": "address",
					"name": "",
					"type": "address"
				}
			],
			"name": "totalRefRewardClaimed",
			"outputs": [
				{
					"internalType": "uint256",
					"name": "",
					"type": "uint256"
				}
			],
			"stateMutability": "view",
			"type": "function"
		},
		{
			"inputs": [],
			"name": "totalRefRewardsVested",
			"outputs": [
				{
					"internalType": "uint256",
					"name": "",
					"type": "uint256"
				}
			],
			"stateMutability": "view",
			"type": "function"
		},
		{
			"inputs": [
				{
					"internalType": "address",
					"name": "",
					"type": "address"
				}
			],
			"name": "totalRewardClaimed",
			"outputs": [
				{
					"internalType": "uint256",
					"name": "",
					"type": "uint256"
				}
			],
			"stateMutability": "view",
			"type": "function"
		},
		{
			"inputs": [],
			"name": "totalStaked",
			"outputs": [
				{
					"internalType": "uint256",
					"name": "",
					"type": "uint256"
				}
			],
			"stateMutability": "view",
			"type": "function"
		},
		{
			"inputs": [],
			"name": "totalStakedPrev",
			"outputs": [
				{
					"internalType": "uint256",
					"name": "",
					"type": "uint256"
				}
			],
			"stateMutability": "view",
			"type": "function"
		},
		{
			"inputs": [],
			"name": "totalStakingRewardsToRelease",
			"outputs": [
				{
					"internalType": "uint256",
					"name": "",
					"type": "uint256"
				}
			],
			"stateMutability": "view",
			"type": "function"
		},
		{
			"inputs": [
				{
					"internalType": "address",
					"name": "newOwner",
					"type": "address"
				}
			],
			"name": "transferOwnership",
			"outputs": [],
			"stateMutability": "nonpayable",
			"type": "function"
		},
		{
			"inputs": [],
			"name": "treasuryBalancePrev",
			"outputs": [
				{
					"internalType": "uint256",
					"name": "",
					"type": "uint256"
				}
			],
			"stateMutability": "view",
			"type": "function"
		},
		{
			"inputs": [],
			"name": "treasuryRateForRewards",
			"outputs": [
				{
					"internalType": "uint256",
					"name": "",
					"type": "uint256"
				}
			],
			"stateMutability": "view",
			"type": "function"
		},
		{
			"inputs": [],
			"name": "treasuryWallet",
			"outputs": [
				{
					"internalType": "address",
					"name": "",
					"type": "address"
				}
			],
			"stateMutability": "view",
			"type": "function"
		},
		{
			"inputs": [],
			"name": "unpause",
			"outputs": [],
			"stateMutability": "nonpayable",
			"type": "function"
		},
		{
			"inputs": [
				{
					"internalType": "uint256",
					"name": "_amount",
					"type": "uint256"
				}
			],
			"name": "unstake",
			"outputs": [],
			"stateMutability": "nonpayable",
			"type": "function"
		},
		{
			"inputs": [],
			"name": "unstakeFee",
			"outputs": [
				{
					"internalType": "uint256",
					"name": "",
					"type": "uint256"
				}
			],
			"stateMutability": "view",
			"type": "function"
		},
		{
			"inputs": [
				{
					"internalType": "uint256",
					"name": "_discountUnstakeFee",
					"type": "uint256"
				}
			],
			"name": "updateDiscountUnstakeFee",
			"outputs": [],
			"stateMutability": "nonpayable",
			"type": "function"
		},
		{
			"inputs": [
				{
					"internalType": "uint256",
					"name": "_longtermStakingRewardsRate",
					"type": "uint256"
				}
			],
			"name": "updateLongtermStakingRewardsRate",
			"outputs": [],
			"stateMutability": "nonpayable",
			"type": "function"
		},
		{
			"inputs": [
				{
					"internalType": "uint256",
					"name": "_multiplierRatePerEpoch",
					"type": "uint256"
				},
				{
					"internalType": "uint256",
					"name": "_multiplierEpoch",
					"type": "uint256"
				}
			],
			"name": "updateMultiplier",
			"outputs": [],
			"stateMutability": "nonpayable",
			"type": "function"
		},
		{
			"inputs": [
				{
					"internalType": "uint256",
					"name": "_firstRefRewardRate",
					"type": "uint256"
				},
				{
					"internalType": "uint256",
					"name": "_secondRefRewardRate",
					"type": "uint256"
				}
			],
			"name": "updateRefRewardRates",
			"outputs": [],
			"stateMutability": "nonpayable",
			"type": "function"
		},
		{
			"inputs": [
				{
					"internalType": "uint256",
					"name": "_releaseRefRewardDuration",
					"type": "uint256"
				}
			],
			"name": "updateReleaseRefRewardDuration",
			"outputs": [],
			"stateMutability": "nonpayable",
			"type": "function"
		},
		{
			"inputs": [
				{
					"internalType": "uint256",
					"name": "_duration",
					"type": "uint256"
				},
				{
					"internalType": "uint256",
					"name": "_epoch",
					"type": "uint256"
				}
			],
			"name": "updateReleaseRefRewardInfo",
			"outputs": [],
			"stateMutability": "nonpayable",
			"type": "function"
		},
		{
			"inputs": [
				{
					"internalType": "uint256",
					"name": "_duration",
					"type": "uint256"
				}
			],
			"name": "updateReleaseStakingRewardDuration",
			"outputs": [],
			"stateMutability": "nonpayable",
			"type": "function"
		},
		{
			"inputs": [
				{
					"internalType": "uint256",
					"name": "_duration",
					"type": "uint256"
				}
			],
			"name": "updateRewardDuration",
			"outputs": [],
			"stateMutability": "nonpayable",
			"type": "function"
		},
		{
			"inputs": [],
			"name": "updateStakingAppStartedAt",
			"outputs": [],
			"stateMutability": "nonpayable",
			"type": "function"
		},
		{
			"inputs": [
				{
					"internalType": "address",
					"name": "_token",
					"type": "address"
				}
			],
			"name": "updateStakingToken",
			"outputs": [],
			"stateMutability": "nonpayable",
			"type": "function"
		},
		{
			"inputs": [
				{
					"internalType": "address",
					"name": "_token",
					"type": "address"
				}
			],
			"name": "updateToken",
			"outputs": [],
			"stateMutability": "nonpayable",
			"type": "function"
		},
		{
			"inputs": [
				{
					"internalType": "uint256",
					"name": "_treasuryRateForRewards",
					"type": "uint256"
				}
			],
			"name": "updateTreasuryRateForRewards",
			"outputs": [],
			"stateMutability": "nonpayable",
			"type": "function"
		},
		{
			"inputs": [
				{
					"internalType": "uint256",
					"name": "_unstakeFee",
					"type": "uint256"
				}
			],
			"name": "updateUnstakeFee",
			"outputs": [],
			"stateMutability": "nonpayable",
			"type": "function"
		},
		{
			"inputs": [
				{
					"internalType": "address",
					"name": "_to",
					"type": "address"
				}
			],
			"name": "withdrawETH",
			"outputs": [],
			"stateMutability": "nonpayable",
			"type": "function"
		},
		{
			"stateMutability": "payable",
			"type": "receive"
		}
	]
}