{
	"data": {
		"bytecode": {
			"linkReferences": {},
			"object": "608060405234801561000f575f80fd5b50604051615df3380380615df38339818101604052810190610031919061066a565b335f805f6101000a81548160ff0219169083151502179055505f73ffffffffffffffffffffffffffffffffffffffff168173ffffffffffffffffffffffffffffffffffffffff16036100ba575f6040517f1e4fbdf70000000000000000000000000000000000000000000000000000000081526004016100b191906106dd565b60405180910390fd5b6100c9816102cf60201b60201c565b50600180819055508260025f6101000a81548173ffffffffffffffffffffffffffffffffffffffff021916908373ffffffffffffffffffffffffffffffffffffffff16021790555080600781905550610384601881905550611388601981905550610bb8601a819055506105dc601b8190555062278d00601c8190555062015180601d81905550610960601e8190555062093a80601f8190555060646020819055508160065f6101000a81548173ffffffffffffffffffffffffffffffffffffffff021916908373ffffffffffffffffffffffffffffffffffffffff16021790555060025f9054906101000a900473ffffffffffffffffffffffffffffffffffffffff1673ffffffffffffffffffffffffffffffffffffffff166370a0823160065f9054906101000a900473ffffffffffffffffffffffffffffffffffffffff166040518263ffffffff1660e01b815260040161022691906106dd565b602060405180830381865afa158015610241573d5f803e3d5ffd5b505050506040513d601f19601f8201168201806040525081019061026591906106f6565b6014819055505f60158190555061271060088190555042600381905550426031819055506170806032819055506101f4600b819055505f600a819055505f6033819055506102b88461039260201b60201c565b6102c661042260201b60201c565b50505050610799565b5f8060019054906101000a900473ffffffffffffffffffffffffffffffffffffffff169050815f60016101000a81548173ffffffffffffffffffffffffffffffffffffffff021916908373ffffffffffffffffffffffffffffffffffffffff1602179055508173ffffffffffffffffffffffffffffffffffffffff168173ffffffffffffffffffffffffffffffffffffffff167f8be0079c531659141344cd1fd0a4f28419497f9722a3daafe3b4186f6b6457e060405160405180910390a35050565b6103a061044060201b60201c565b5f73ffffffffffffffffffffffffffffffffffffffff168173ffffffffffffffffffffffffffffffffffffffff1603610410575f6040517f1e4fbdf700000000000000000000000000000000000000000000000000000000815260040161040791906106dd565b60405180910390fd5b61041f816102cf60201b60201c565b50565b61043061044060201b60201c565b61043e6104d960201b60201c565b565b61044e61054660201b60201c565b73ffffffffffffffffffffffffffffffffffffffff1661047261054d60201b60201c565b73ffffffffffffffffffffffffffffffffffffffff16146104d75761049b61054660201b60201c565b6040517f118cdaa70000000000000000000000000000000000000000000000000000000081526004016104ce91906106dd565b60405180910390fd5b565b6104e761057560201b60201c565b60015f806101000a81548160ff0219169083151502179055507f62e78cea01bee320cd4e420270b5ea74000d11b0c9f74754ebdbfc544b05a25861052f61054660201b60201c565b60405161053c91906106dd565b60405180910390a1565b5f33905090565b5f8060019054906101000a900473ffffffffffffffffffffffffffffffffffffffff16905090565b6105836105c560201b60201c565b156105c3576040517f08c379a00000000000000000000000000000000000000000000000000000000081526004016105ba9061077b565b60405180910390fd5b565b5f805f9054906101000a900460ff16905090565b5f80fd5b5f73ffffffffffffffffffffffffffffffffffffffff82169050919050565b5f610606826105dd565b9050919050565b610616816105fc565b8114610620575f80fd5b50565b5f815190506106318161060d565b92915050565b5f819050919050565b61064981610637565b8114610653575f80fd5b50565b5f8151905061066481610640565b92915050565b5f805f8060808587031215610682576106816105d9565b5b5f61068f87828801610623565b94505060206106a087828801610623565b93505060406106b187828801610623565b92505060606106c287828801610656565b91505092959194509250565b6106d7816105fc565b82525050565b5f6020820190506106f05f8301846106ce565b92915050565b5f6020828403121561070b5761070a6105d9565b5b5f61071884828501610656565b91505092915050565b5f82825260208201905092915050565b7f5061757361626c653a20706175736564000000000000000000000000000000005f82015250565b5f610765601083610721565b915061077082610731565b602082019050919050565b5f6020820190508181035f83015261079281610759565b9050919050565b61564d806107a65f395ff3fe6080604052600436106103bb575f3560e01c8063817b1cd2116101f1578063b9f2b4e01161010c578063d2cbf7ad1161009f578063f87582c41161006e578063f87582c414610f00578063fb09934914610f2a578063fc0c546a14610f66578063fcc6d1f414610f90576103c2565b8063d2cbf7ad14610e48578063d64d696814610e72578063dc70219f14610eae578063f2fde38b14610ed8576103c2565b8063c1985a2a116100db578063c1985a2a14610d67578063c48c263614610da3578063c57a202c14610dcd578063cd47d73d14610e09576103c2565b8063b9f2b4e014610c74578063bc48dcab14610cb3578063bd9dc8f614610cef578063c15ffa5014610d2b576103c2565b806393f8691d11610184578063a50a24e811610153578063a50a24e814610bcc578063afc695ce14610bf6578063b3cd425414610c20578063b706112414610c4a576103c2565b806393f8691d14610b005780639499888514610b2a5780639b4b2c9c14610b665780639c30d8f014610b90576103c2565b80638c4a23e0116101c05780638c4a23e014610a485780638da5cb5b14610a705780638ea97d2614610a9a5780638ec7830b14610ac4576103c2565b8063817b1cd2146109905780638456cb59146109ba57806388bd2aef146109d05780638be0f2ca14610a0c576103c2565b80633e50a556116102e15780635c4ed202116102745780636e04ff0d116102435780636e04ff0d146108e9578063715018a6146109265780637790a1c81461093c578063790e61c114610966576103c2565b80635c4ed202146108435780635c975abb1461086d578063690d8320146108975780636a4681e5146108bf576103c2565b8063472be74a116102b0578063472be74a146107655780634a3b68cc146107a15780634ad6eb2e146107dd5780635a2443f714610819576103c2565b80633e50a556146106c15780633f4ba83a146106fd5780634585e33b146107135780634626402b1461073b576103c2565b80632c070d7d11610359578063337aa4c411610328578063337aa4c4146105e357806334fea3421461061f578063366b2eff1461065b5780633ae58ef214610685576103c2565b80632c070d7d146105075780632c52bed9146105435780632cf01b551461057f5780632e17de78146105bb576103c2565b80630fb5a6b4116103955780630fb5a6b41461044d57806315bf6c03146104775780631c0b5a3f146104a1578063260429c2146104cb576103c2565b806303793298146103cf57806305a4263d146103f95780630a30307d14610423576103c2565b366103c257005b3480156103cd575f80fd5b005b3480156103da575f80fd5b506103e3610fba565b6040516103f091906146e8565b60405180910390f35b348015610404575f80fd5b5061040d610fc0565b60405161041a91906146e8565b60405180910390f35b34801561042e575f80fd5b50610437610fc6565b60405161044491906146e8565b60405180910390f35b348015610458575f80fd5b50610461610fcc565b60405161046e91906146e8565b60405180910390f35b348015610482575f80fd5b5061048b610fd2565b60405161049891906146e8565b60405180910390f35b3480156104ac575f80fd5b506104b5610fd8565b6040516104c291906146e8565b60405180910390f35b3480156104d6575f80fd5b506104f160048036038101906104ec919061476c565b610fde565b6040516104fe91906146e8565b60405180910390f35b348015610512575f80fd5b5061052d6004803603810190610528919061476c565b610ff3565b60405161053a91906146e8565b60405180910390f35b34801561054e575f80fd5b506105696004803603810190610564919061476c565b611039565b60405161057691906146e8565b60405180910390f35b34801561058a575f80fd5b506105a560048036038101906105a0919061476c565b61104e565b6040516105b291906146e8565b60405180910390f35b3480156105c6575f80fd5b506105e160048036038101906105dc91906147c1565b611063565b005b3480156105ee575f80fd5b506106096004803603810190610604919061476c565b6114c4565b60405161061691906146e8565b60405180910390f35b34801561062a575f80fd5b506106456004803603810190610640919061476c565b6114d9565b60405161065291906146e8565b60405180910390f35b348015610666575f80fd5b5061066f6114ee565b60405161067c91906146e8565b60405180910390f35b348015610690575f80fd5b506106ab60048036038101906106a6919061476c565b6114f5565b6040516106b891906146e8565b60405180910390f35b3480156106cc575f80fd5b506106e760048036038101906106e2919061476c565b61150a565b6040516106f491906146e8565b60405180910390f35b348015610708575f80fd5b5061071161151f565b005b34801561071e575f80fd5b506107396004803603810190610734919061484d565b611531565b005b348015610746575f80fd5b5061074f611596565b60405161075c91906148a7565b60405180910390f35b348015610770575f80fd5b5061078b6004803603810190610786919061476c565b6115bb565b60405161079891906146e8565b60405180910390f35b3480156107ac575f80fd5b506107c760048036038101906107c2919061476c565b6115d0565b6040516107d491906148a7565b60405180910390f35b3480156107e8575f80fd5b5061080360048036038101906107fe919061476c565b611600565b60405161081091906148da565b60405180910390f35b348015610824575f80fd5b5061082d61161d565b60405161083a91906146e8565b60405180910390f35b34801561084e575f80fd5b50610857611623565b60405161086491906146e8565b60405180910390f35b348015610878575f80fd5b50610881611629565b60405161088e91906148da565b60405180910390f35b3480156108a2575f80fd5b506108bd60048036038101906108b8919061476c565b61163d565b005b3480156108ca575f80fd5b506108d361175f565b6040516108e091906146e8565b60405180910390f35b3480156108f4575f80fd5b5061090f600480360381019061090a919061484d565b611765565b60405161091d929190614963565b60405180910390f35b348015610931575f80fd5b5061093a6117c9565b005b348015610947575f80fd5b506109506117dc565b60405161095d91906146e8565b60405180910390f35b348015610971575f80fd5b5061097a6117e2565b60405161098791906146e8565b60405180910390f35b34801561099b575f80fd5b506109a46117e8565b6040516109b191906146e8565b60405180910390f35b3480156109c5575f80fd5b506109ce6117ee565b005b3480156109db575f80fd5b506109f660048036038101906109f1919061476c565b611800565b604051610a0391906146e8565b60405180910390f35b348015610a17575f80fd5b50610a326004803603810190610a2d9190614991565b611815565b604051610a3f91906146e8565b60405180910390f35b348015610a53575f80fd5b50610a6e6004803603810190610a699190614af7565b611835565b005b348015610a7b575f80fd5b50610a84611f0e565b604051610a9191906148a7565b60405180910390f35b348015610aa5575f80fd5b50610aae611f36565b604051610abb91906146e8565b60405180910390f35b348015610acf575f80fd5b50610aea6004803603810190610ae59190614991565b611f3c565b604051610af791906146e8565b60405180910390f35b348015610b0b575f80fd5b50610b14611f5c565b604051610b2191906146e8565b60405180910390f35b348015610b35575f80fd5b50610b506004803603810190610b4b919061476c565b611f62565b604051610b5d91906146e8565b60405180910390f35b348015610b71575f80fd5b50610b7a611f77565b604051610b8791906148da565b60405180910390f35b348015610b9b575f80fd5b50610bb66004803603810190610bb191906147c1565b6123e3565b604051610bc391906146e8565b60405180910390f35b348015610bd7575f80fd5b50610be061240f565b604051610bed91906146e8565b60405180910390f35b348015610c01575f80fd5b50610c0a612415565b604051610c1791906148da565b60405180910390f35b348015610c2b575f80fd5b50610c346126ad565b604051610c4191906146e8565b60405180910390f35b348015610c55575f80fd5b50610c5e6126b3565b604051610c6b91906146e8565b60405180910390f35b348015610c7f575f80fd5b50610c9a6004803603810190610c959190614991565b6126b9565b604051610caa9493929190614b63565b60405180910390f35b348015610cbe575f80fd5b50610cd96004803603810190610cd49190614ba6565b6126f0565b604051610ce691906148a7565b60405180910390f35b348015610cfa575f80fd5b50610d156004803603810190610d10919061476c565b612738565b604051610d2291906146e8565b60405180910390f35b348015610d36575f80fd5b50610d516004803603810190610d4c919061476c565b61274d565b604051610d5e91906146e8565b60405180910390f35b348015610d72575f80fd5b50610d8d6004803603810190610d889190614991565b612762565b604051610d9a91906146e8565b60405180910390f35b348015610dae575f80fd5b50610db7612782565b604051610dc491906146e8565b60405180910390f35b348015610dd8575f80fd5b50610df36004803603810190610dee919061476c565b612788565b604051610e0091906146e8565b60405180910390f35b348015610e14575f80fd5b50610e2f6004803603810190610e2a9190614991565b61279d565b604051610e3f9493929190614b63565b60405180910390f35b348015610e53575f80fd5b50610e5c6127d4565b604051610e6991906146e8565b60405180910390f35b348015610e7d575f80fd5b50610e986004803603810190610e93919061476c565b612800565b604051610ea591906148da565b60405180910390f35b348015610eb9575f80fd5b50610ec261281d565b604051610ecf91906146e8565b60405180910390f35b348015610ee3575f80fd5b50610efe6004803603810190610ef9919061476c565b612823565b005b348015610f0b575f80fd5b50610f146128a7565b604051610f2191906146e8565b60405180910390f35b348015610f35575f80fd5b50610f506004803603810190610f4b919061476c565b6128ad565b604051610f5d91906146e8565b60405180910390f35b348015610f71575f80fd5b50610f7a6128c2565b604051610f879190614c48565b60405180910390f35b348015610f9b575f80fd5b50610fa46128e7565b604051610fb191906146e8565b60405180910390f35b60145481565b60195481565b60205481565b60075481565b60085481565b60035481565b6029602052805f5260405f205f915090505481565b5f60355f8373ffffffffffffffffffffffffffffffffffffffff1673ffffffffffffffffffffffffffffffffffffffff1681526020019081526020015f20549050919050565b6012602052805f5260405f205f915090505481565b6016602052805f5260405f205f915090505481565b61106b6128ed565b5f81036110ad576040517f08c379a00000000000000000000000000000000000000000000000000000000081526004016110a490614cbb565b60405180910390fd5b8060165f3373ffffffffffffffffffffffffffffffffffffffff1673ffffffffffffffffffffffffffffffffffffffff1681526020019081526020015f2054101561112d576040517f08c379a000000000000000000000000000000000000000000000000000000000815260040161112490614d49565b60405180910390fd5b5f6127106018548361113f9190614d94565b6111499190614e02565b90505f73ffffffffffffffffffffffffffffffffffffffff1660235f3373ffffffffffffffffffffffffffffffffffffffff1673ffffffffffffffffffffffffffffffffffffffff1681526020019081526020015f205f9054906101000a900473ffffffffffffffffffffffffffffffffffffffff1673ffffffffffffffffffffffffffffffffffffffff161461120357612710601954826111eb9190614d94565b6111f59190614e02565b90506112013383612937565b505b8160165f3373ffffffffffffffffffffffffffffffffffffffff1673ffffffffffffffffffffffffffffffffffffffff1681526020019081526020015f205f82825461124f9190614e32565b925050819055508160135f8282546112679190614e32565b925050819055505f60165f3373ffffffffffffffffffffffffffffffffffffffff1673ffffffffffffffffffffffffffffffffffffffff1681526020019081526020015f2054036112c8576112c6336004612c9d90919063ffffffff16565b505b60025f9054906101000a900473ffffffffffffffffffffffffffffffffffffffff1673ffffffffffffffffffffffffffffffffffffffff1663a9059cbb3383856113129190614e32565b6040518363ffffffff1660e01b815260040161132f929190614e65565b6020604051808303815f875af115801561134b573d5f803e3d5ffd5b505050506040513d601f19601f8201168201806040525081019061136f9190614eb6565b5060025f9054906101000a900473ffffffffffffffffffffffffffffffffffffffff1673ffffffffffffffffffffffffffffffffffffffff1663a9059cbb60065f9054906101000a900473ffffffffffffffffffffffffffffffffffffffff16836040518363ffffffff1660e01b81526004016113ed929190614e65565b6020604051808303815f875af1158015611409573d5f803e3d5ffd5b505050506040513d601f19601f8201168201806040525081019061142d9190614eb6565b504260175f3373ffffffffffffffffffffffffffffffffffffffff1673ffffffffffffffffffffffffffffffffffffffff1681526020019081526020015f20819055503373ffffffffffffffffffffffffffffffffffffffff167ff0cbd610bbe2d876ddbb80eee79a670e6f054752be0d72fc614a1a863d3024dc83426040516114b8929190614ee1565b60405180910390a25050565b602b602052805f5260405f205f915090505481565b6017602052805f5260405f205f915090505481565b62278d0081565b6011602052805f5260405f205f915090505481565b6022602052805f5260405f205f915090505481565b611527612cca565b61152f612d51565b565b603254603154426115429190614e32565b11611582576040517f08c379a000000000000000000000000000000000000000000000000000000000815260040161157990614f52565b60405180910390fd5b61158a612db1565b611592612df3565b5050565b60065f9054906101000a900473ffffffffffffffffffffffffffffffffffffffff1681565b6035602052805f5260405f205f915090505481565b6023602052805f5260405f205f915054906101000a900473ffffffffffffffffffffffffffffffffffffffff1681565b6030602052805f5260405f205f915054906101000a900460ff1681565b602d5481565b601d5481565b5f805f9054906101000a900460ff16905090565b611645612cca565b5f73ffffffffffffffffffffffffffffffffffffffff168173ffffffffffffffffffffffffffffffffffffffff16036116b3576040517f08c379a00000000000000000000000000000000000000000000000000000000081526004016116aa90614fba565b60405180910390fd5b5f8173ffffffffffffffffffffffffffffffffffffffff16476040516116d890615005565b5f6040518083038185875af1925050503d805f8114611712576040519150601f19603f3d011682016040523d82523d5f602084013e611717565b606091505b505090508061175b576040517f08c379a000000000000000000000000000000000000000000000000000000000815260040161175290615063565b60405180910390fd5b5050565b60315481565b5f6060603254603154426117799190614e32565b11915083838080601f0160208091040260200160405190810160405280939291908181526020018383808284375f81840152601f19601f8201169050808301925050505050505090509250929050565b6117d1612cca565b6117da5f612e71565b565b601b5481565b601f5481565b60135481565b6117f6612cca565b6117fe612f34565b565b602c602052805f5260405f205f915090505481565b6026602052815f5260405f20602052805f5260405f205f91509150505481565b61183d6128ed565b5f830361187f576040517f08c379a000000000000000000000000000000000000000000000000000000000815260040161187690614cbb565b60405180910390fd5b5f73ffffffffffffffffffffffffffffffffffffffff168273ffffffffffffffffffffffffffffffffffffffff16141580156118c057506118bf81612f95565b5b156119505760305f3373ffffffffffffffffffffffffffffffffffffffff1673ffffffffffffffffffffffffffffffffffffffff1681526020019081526020015f205f9054906101000a900460ff161561194f576040517f08c379a0000000000000000000000000000000000000000000000000000000008152600401611946906150cb565b60405180910390fd5b5b5f73ffffffffffffffffffffffffffffffffffffffff168273ffffffffffffffffffffffffffffffffffffffff16141580156119d35750602f5f8373ffffffffffffffffffffffffffffffffffffffff1673ffffffffffffffffffffffffffffffffffffffff1681526020019081526020015f205f9054906101000a900460ff16155b156119e4576119e2828261302a565b505b3373ffffffffffffffffffffffffffffffffffffffff16602e82604051611a0b919061512d565b90815260200160405180910390205f9054906101000a900473ffffffffffffffffffffffffffffffffffffffff1673ffffffffffffffffffffffffffffffffffffffff1603611a8f576040517f08c379a0000000000000000000000000000000000000000000000000000000008152600401611a86906151b3565b60405180910390fd5b60025f9054906101000a900473ffffffffffffffffffffffffffffffffffffffff1673ffffffffffffffffffffffffffffffffffffffff166323b872dd3330866040518463ffffffff1660e01b8152600401611aed939291906151d1565b6020604051808303815f875af1158015611b09573d5f803e3d5ffd5b505050506040513d601f19601f82011682018060405250810190611b2d9190614eb6565b50611b4233600461322990919063ffffffff16565b158015611b4e57505f83115b15611b6957611b6733600461325690919063ffffffff16565b505b5f60165f3373ffffffffffffffffffffffffffffffffffffffff1673ffffffffffffffffffffffffffffffffffffffff1681526020019081526020015f205403611c32574260105f3373ffffffffffffffffffffffffffffffffffffffff1673ffffffffffffffffffffffffffffffffffffffff1681526020019081526020015f20819055504260175f3373ffffffffffffffffffffffffffffffffffffffff1673ffffffffffffffffffffffffffffffffffffffff1681526020019081526020015f20819055505b611c3b81612f95565b15611dc1575f602e82604051611c51919061512d565b90815260200160405180910390205f9054906101000a900473ffffffffffffffffffffffffffffffffffffffff1690505f73ffffffffffffffffffffffffffffffffffffffff168173ffffffffffffffffffffffffffffffffffffffff1614158015611d04575060305f3373ffffffffffffffffffffffffffffffffffffffff1673ffffffffffffffffffffffffffffffffffffffff1681526020019081526020015f205f9054906101000a900460ff16155b15611dbf57611d14338286613283565b50600160305f3373ffffffffffffffffffffffffffffffffffffffff1673ffffffffffffffffffffffffffffffffffffffff1681526020019081526020015f205f6101000a81548160ff021916908315150217905550600160355f8373ffffffffffffffffffffffffffffffffffffffff1673ffffffffffffffffffffffffffffffffffffffff1681526020019081526020015f205f828254611db79190615206565b925050819055505b505b8260165f3373ffffffffffffffffffffffffffffffffffffffff1673ffffffffffffffffffffffffffffffffffffffff1681526020019081526020015f205f828254611e0d9190615206565b925050819055506013546015819055508260135f828254611e2e9190615206565b925050819055504260215f3373ffffffffffffffffffffffffffffffffffffffff1673ffffffffffffffffffffffffffffffffffffffff1681526020019081526020015f20819055508260225f3373ffffffffffffffffffffffffffffffffffffffff1673ffffffffffffffffffffffffffffffffffffffff1681526020019081526020015f20819055503373ffffffffffffffffffffffffffffffffffffffff167f1f42ead3b460988335c082e2eae9c3f3f9e8279142406f3dbd34af4e7c53a8418442604051611f01929190614ee1565b60405180910390a2505050565b5f8060019054906101000a900473ffffffffffffffffffffffffffffffffffffffff16905090565b60185481565b6027602052815f5260405f20602052805f5260405f205f91509150505481565b60155481565b6009602052805f5260405f205f915090505481565b5f611f806128ed565b611f886137dd565b5f80611fcf60245f3373ffffffffffffffffffffffffffffffffffffffff1673ffffffffffffffffffffffffffffffffffffffff1681526020019081526020015f2061382c565b90505f5b8151811015612132575f828281518110611ff057611fef615239565b5b602002602001015190505f600d5f3373ffffffffffffffffffffffffffffffffffffffff1673ffffffffffffffffffffffffffffffffffffffff1681526020019081526020015f205f8373ffffffffffffffffffffffffffffffffffffffff1673ffffffffffffffffffffffffffffffffffffffff1681526020019081526020015f2090505f61207f8261384b565b90505f8111156121225780826002015f82825461209c9190615206565b9250508190555042826003018190555080866120b89190615206565b95508273ffffffffffffffffffffffffffffffffffffffff163373ffffffffffffffffffffffffffffffffffffffff167f5a8b3c9684c3e08f9972c80a03e63c398f3c444e3f2c8e92d6fdb8268ef7ab988342604051612119929190614ee1565b60405180910390a35b5050508080600101915050611fd3565b505f61217960255f3373ffffffffffffffffffffffffffffffffffffffff1673ffffffffffffffffffffffffffffffffffffffff1681526020019081526020015f2061382c565b90505f5b81518110156122dc575f82828151811061219a57612199615239565b5b602002602001015190505f600e5f3373ffffffffffffffffffffffffffffffffffffffff1673ffffffffffffffffffffffffffffffffffffffff1681526020019081526020015f205f8373ffffffffffffffffffffffffffffffffffffffff1673ffffffffffffffffffffffffffffffffffffffff1681526020019081526020015f2090505f6122298261384b565b90505f8111156122cc5780826002015f8282546122469190615206565b9250508190555042826003018190555080876122629190615206565b96508273ffffffffffffffffffffffffffffffffffffffff163373ffffffffffffffffffffffffffffffffffffffff167f5a8b3c9684c3e08f9972c80a03e63c398f3c444e3f2c8e92d6fdb8268ef7ab9883426040516122c3929190614ee1565b60405180910390a35b505050808060010191505061217d565b505f831161231f576040517f08c379a0000000000000000000000000000000000000000000000000000000008152600401612316906152b0565b60405180910390fd5b5f612329846138f4565b90505f81856123389190614e32565b90508060295f3373ffffffffffffffffffffffffffffffffffffffff1673ffffffffffffffffffffffffffffffffffffffff1681526020019081526020015f205f8282546123869190615206565b925050819055508160125f3373ffffffffffffffffffffffffffffffffffffffff1673ffffffffffffffffffffffffffffffffffffffff1681526020019081526020015f20819055506001955050505050506123e0613a94565b90565b5f61016d620151806123f484613a9d565b6123fe9190614d94565b6124089190614d94565b9050919050565b600c5481565b5f61241e6128ed565b5f60115f3373ffffffffffffffffffffffffffffffffffffffff1673ffffffffffffffffffffffffffffffffffffffff1681526020019081526020015f205460095f3373ffffffffffffffffffffffffffffffffffffffff1673ffffffffffffffffffffffffffffffffffffffff1681526020019081526020015f20546124a59190615206565b90505f6124b1826138f4565b90508060115f3373ffffffffffffffffffffffffffffffffffffffff1673ffffffffffffffffffffffffffffffffffffffff1681526020019081526020015f20819055505f81836125029190614e32565b905060095f3373ffffffffffffffffffffffffffffffffffffffff1673ffffffffffffffffffffffffffffffffffffffff1681526020019081526020015f205481106125e45760095f3373ffffffffffffffffffffffffffffffffffffffff1673ffffffffffffffffffffffffffffffffffffffff1681526020019081526020015f2054600c5f8282546125969190614e32565b925050819055505f60095f3373ffffffffffffffffffffffffffffffffffffffff1673ffffffffffffffffffffffffffffffffffffffff1681526020019081526020015f2081905550612650565b80600c5f8282546125f59190614e32565b925050819055508060095f3373ffffffffffffffffffffffffffffffffffffffff1673ffffffffffffffffffffffffffffffffffffffff1681526020019081526020015f205f8282546126489190614e32565b925050819055505b80600f5f3373ffffffffffffffffffffffffffffffffffffffff1673ffffffffffffffffffffffffffffffffffffffff1681526020019081526020015f205f82825461269c9190615206565b925050819055506001935050505090565b61271081565b601e5481565b600e602052815f5260405f20602052805f5260405f205f9150915050805f0154908060010154908060020154908060030154905084565b602e818051602081018201805184825260208301602085012081835280955050505050505f915054906101000a900473ffffffffffffffffffffffffffffffffffffffff1681565b600f602052805f5260405f205f915090505481565b602a602052805f5260405f205f915090505481565b6028602052815f5260405f20602052805f5260405f205f91509150505481565b601c5481565b6021602052805f5260405f205f915090505481565b600d602052815f5260405f20602052805f5260405f205f9150915050805f0154908060010154908060020154908060030154905084565b5f61016d620151806127e7600754613a9d565b6127f19190614d94565b6127fb9190614d94565b905090565b602f602052805f5260405f205f915054906101000a900460ff1681565b60345481565b61282b612cca565b5f73ffffffffffffffffffffffffffffffffffffffff168173ffffffffffffffffffffffffffffffffffffffff160361289b575f6040517f1e4fbdf700000000000000000000000000000000000000000000000000000000815260040161289291906148a7565b60405180910390fd5b6128a481612e71565b50565b601a5481565b6010602052805f5260405f205f915090505481565b60025f9054906101000a900473ffffffffffffffffffffffffffffffffffffffff1681565b60325481565b6128f5611629565b15612935576040517f08c379a000000000000000000000000000000000000000000000000000000000815260040161292c90615318565b60405180910390fd5b565b5f8060235f8573ffffffffffffffffffffffffffffffffffffffff1673ffffffffffffffffffffffffffffffffffffffff1681526020019081526020015f205f9054906101000a900473ffffffffffffffffffffffffffffffffffffffff1690505f601c54602c5f8773ffffffffffffffffffffffffffffffffffffffff1673ffffffffffffffffffffffffffffffffffffffff1681526020019081526020015f20546129e49190615206565b905080421015612c91575f60235f8473ffffffffffffffffffffffffffffffffffffffff1673ffffffffffffffffffffffffffffffffffffffff1681526020019081526020015f205f9054906101000a900473ffffffffffffffffffffffffffffffffffffffff1690505f80612a5a8888613be2565b80925081935050505f601d54601d5442612a749190614e02565b612a7e9190614d94565b601d54601d5487612a8f9190614e02565b612a999190614d94565b612aa39190614e32565b90505f600d5f8873ffffffffffffffffffffffffffffffffffffffff1673ffffffffffffffffffffffffffffffffffffffff1681526020019081526020015f205f8b73ffffffffffffffffffffffffffffffffffffffff1673ffffffffffffffffffffffffffffffffffffffff1681526020019081526020015f2090505f8285612b2d9190614d94565b905080825f015410612b575780825f015f828254612b4b9190614e32565b92505081905550612b66565b815f015490505f825f01819055505b5f8073ffffffffffffffffffffffffffffffffffffffff168773ffffffffffffffffffffffffffffffffffffffff1614612c5c575f600e5f8973ffffffffffffffffffffffffffffffffffffffff1673ffffffffffffffffffffffffffffffffffffffff1681526020019081526020015f205f8e73ffffffffffffffffffffffffffffffffffffffff1673ffffffffffffffffffffffffffffffffffffffff1681526020019081526020015f2090508486612c219190614d94565b915081815f015410612c4b5781815f015f828254612c3f9190614e32565b92505081905550612c5a565b805f015491505f815f01819055505b505b8082612c689190615206565b602d5f828254612c789190614e32565b9250508190555060019950505050505050505050612c97565b5f925050505b92915050565b5f612cc2835f018373ffffffffffffffffffffffffffffffffffffffff165f1b613e81565b905092915050565b612cd2613f7d565b73ffffffffffffffffffffffffffffffffffffffff16612cf0611f0e565b73ffffffffffffffffffffffffffffffffffffffff1614612d4f57612d13613f7d565b6040517f118cdaa7000000000000000000000000000000000000000000000000000000008152600401612d4691906148a7565b60405180910390fd5b565b612d59613f84565b5f805f6101000a81548160ff0219169083151502179055507f5db9ee0a495bf2e6ff9c91a7834c1ba4fdd244a5e8aa4e537bd38aeae4b073aa612d9a613f7d565b604051612da791906148a7565b60405180910390a1565b612dbb600461382c565b51600a5410612dcc575f600a819055505b612dda600a54600b54613fcd565b60345f815480929190612dec90615336565b9190505550565b5f612dfe600461382c565b5190505f600b5482612e109190614e02565b90508181600b54612e219190614d94565b1015612e3757600181612e349190615206565b90505b8060335410612e55575f603381905550426031819055505050612e6f565b60335f815480929190612e6790615336565b919050555050505b565b5f8060019054906101000a900473ffffffffffffffffffffffffffffffffffffffff169050815f60016101000a81548173ffffffffffffffffffffffffffffffffffffffff021916908373ffffffffffffffffffffffffffffffffffffffff1602179055508173ffffffffffffffffffffffffffffffffffffffff168173ffffffffffffffffffffffffffffffffffffffff167f8be0079c531659141344cd1fd0a4f28419497f9722a3daafe3b4186f6b6457e060405160405180910390a35050565b612f3c6128ed565b60015f806101000a81548160ff0219169083151502179055507f62e78cea01bee320cd4e420270b5ea74000d11b0c9f74754ebdbfc544b05a258612f7e613f7d565b604051612f8b91906148a7565b60405180910390a1565b5f600582511015612fa8575f9050613025565b5f73ffffffffffffffffffffffffffffffffffffffff16602e83604051612fcf919061512d565b90815260200160405180910390205f9054906101000a900473ffffffffffffffffffffffffffffffffffffffff1673ffffffffffffffffffffffffffffffffffffffff1603613020575f9050613025565b600190505b919050565b5f600582511015613070576040517f08c379a0000000000000000000000000000000000000000000000000000000008152600401613067906153c7565b60405180910390fd5b602f5f8473ffffffffffffffffffffffffffffffffffffffff1673ffffffffffffffffffffffffffffffffffffffff1681526020019081526020015f205f9054906101000a900460ff1615801561312f57505f73ffffffffffffffffffffffffffffffffffffffff16602e836040516130e9919061512d565b90815260200160405180910390205f9054906101000a900473ffffffffffffffffffffffffffffffffffffffff1673ffffffffffffffffffffffffffffffffffffffff16145b61316e576040517f08c379a000000000000000000000000000000000000000000000000000000000815260040161316590615455565b60405180910390fd5b82602e8360405161317f919061512d565b90815260200160405180910390205f6101000a81548173ffffffffffffffffffffffffffffffffffffffff021916908373ffffffffffffffffffffffffffffffffffffffff1602179055506001602f5f8573ffffffffffffffffffffffffffffffffffffffff1673ffffffffffffffffffffffffffffffffffffffff1681526020019081526020015f205f6101000a81548160ff0219169083151502179055506001905092915050565b5f61324e835f018373ffffffffffffffffffffffffffffffffffffffff165f1b6141f5565b905092915050565b5f61327b835f018373ffffffffffffffffffffffffffffffffffffffff165f1b614215565b905092915050565b5f8260235f8673ffffffffffffffffffffffffffffffffffffffff1673ffffffffffffffffffffffffffffffffffffffff1681526020019081526020015f205f6101000a81548173ffffffffffffffffffffffffffffffffffffffff021916908373ffffffffffffffffffffffffffffffffffffffff16021790555061334e8460245f8673ffffffffffffffffffffffffffffffffffffffff1673ffffffffffffffffffffffffffffffffffffffff1681526020019081526020015f2061325690919063ffffffff16565b5042602c5f8673ffffffffffffffffffffffffffffffffffffffff1673ffffffffffffffffffffffffffffffffffffffff1681526020019081526020015f20819055508160265f8573ffffffffffffffffffffffffffffffffffffffff1673ffffffffffffffffffffffffffffffffffffffff1681526020019081526020015f205f8673ffffffffffffffffffffffffffffffffffffffff1673ffffffffffffffffffffffffffffffffffffffff1681526020019081526020015f20819055505f612710601a54846134209190614d94565b61342a9190614e02565b905060405180608001604052808281526020014281526020015f815260200142815250600d5f8673ffffffffffffffffffffffffffffffffffffffff1673ffffffffffffffffffffffffffffffffffffffff1681526020019081526020015f205f8773ffffffffffffffffffffffffffffffffffffffff1673ffffffffffffffffffffffffffffffffffffffff1681526020019081526020015f205f820151815f0155602082015181600101556040820151816002015560608201518160030155905050601c54816134fc9190614e02565b602a5f8773ffffffffffffffffffffffffffffffffffffffff1673ffffffffffffffffffffffffffffffffffffffff1681526020019081526020015f20819055505f8073ffffffffffffffffffffffffffffffffffffffff1660235f8773ffffffffffffffffffffffffffffffffffffffff1673ffffffffffffffffffffffffffffffffffffffff1681526020019081526020015f205f9054906101000a900473ffffffffffffffffffffffffffffffffffffffff1673ffffffffffffffffffffffffffffffffffffffff16146137ad575f60235f8773ffffffffffffffffffffffffffffffffffffffff1673ffffffffffffffffffffffffffffffffffffffff1681526020019081526020015f205f9054906101000a900473ffffffffffffffffffffffffffffffffffffffff16905061367c8760255f8473ffffffffffffffffffffffffffffffffffffffff1673ffffffffffffffffffffffffffffffffffffffff1681526020019081526020015f2061325690919063ffffffff16565b50612710601b548661368e9190614d94565b6136989190614e02565b915060405180608001604052808381526020014281526020015f815260200142815250600e5f8373ffffffffffffffffffffffffffffffffffffffff1673ffffffffffffffffffffffffffffffffffffffff1681526020019081526020015f205f8973ffffffffffffffffffffffffffffffffffffffff1673ffffffffffffffffffffffffffffffffffffffff1681526020019081526020015f205f820151815f0155602082015181600101556040820151816002015560608201518160030155905050601c548261376a9190614e02565b602b5f8973ffffffffffffffffffffffffffffffffffffffff1673ffffffffffffffffffffffffffffffffffffffff1681526020019081526020015f2081905550505b80826137b99190615206565b602d5f8282546137c99190615206565b925050819055506001925050509392505050565b600260015403613822576040517f08c379a0000000000000000000000000000000000000000000000000000000008152600401613819906154bd565b60405180910390fd5b6002600181905550565b60605f61383a835f0161427c565b905060608190508092505050919050565b5f62278d00826001015461385f9190615206565b421061387f578160020154825f01546138789190614e32565b90506138ef565b5f8260030154426138909190614e32565b90505f62278d0090505f8183865f01546138aa9190614d94565b6138b49190614e02565b90508460020154855f01546138c99190614e32565b81116138d557806138e9565b8460020154855f01546138e89190614e32565b5b93505050505b919050565b5f808290505f811115613a8b575f60025f9054906101000a900473ffffffffffffffffffffffffffffffffffffffff1673ffffffffffffffffffffffffffffffffffffffff166370a0823160065f9054906101000a900473ffffffffffffffffffffffffffffffffffffffff166040518263ffffffff1660e01b815260040161397d91906148a7565b602060405180830381865afa158015613998573d5f803e3d5ffd5b505050506040513d601f19601f820116820180604052508101906139bc91906154ef565b90508181116139c9575f80fd5b60025f9054906101000a900473ffffffffffffffffffffffffffffffffffffffff1673ffffffffffffffffffffffffffffffffffffffff166323b872dd60065f9054906101000a900473ffffffffffffffffffffffffffffffffffffffff1633856040518463ffffffff1660e01b8152600401613a48939291906151d1565b6020604051808303815f875af1158015613a64573d5f803e3d5ffd5b505050506040513d601f19601f82011682018060405250810190613a889190614eb6565b50505b5f915050919050565b60018081905550565b5f806013541480613aad57505f82145b15613aba575f9050613bdd565b5f613ac36142d5565b90505f60155460135411613ad7575f613ae8565b601554601354613ae79190614e32565b5b90505f612710601b54601a54613afe9190615206565b83613b099190614d94565b613b139190614e02565b90505f61271084600c54613b279190614d94565b613b319190614e02565b9050601454600c548284613b459190615206565b613b4f9190615206565b1115613b61575f945050505050613bdd565b5f612710600854600c548585601454613b7a9190614e32565b613b849190614e32565b613b8e9190614e32565b613b989190614d94565b613ba29190614e02565b90505f87601354670de0b6b3a764000084613bbd9190614d94565b613bc79190614e02565b613bd19190614e02565b90508096505050505050505b919050565b5f805f805f602a5f8873ffffffffffffffffffffffffffffffffffffffff1673ffffffffffffffffffffffffffffffffffffffff1681526020019081526020015f20541115613d2c5761271060165f8873ffffffffffffffffffffffffffffffffffffffff1673ffffffffffffffffffffffffffffffffffffffff1681526020019081526020015f205461271087602a5f8b73ffffffffffffffffffffffffffffffffffffffff1673ffffffffffffffffffffffffffffffffffffffff1681526020019081526020015f2054613cb89190614d94565b613cc29190614d94565b613ccc9190614e02565b613cd69190614e02565b915081602a5f8873ffffffffffffffffffffffffffffffffffffffff1673ffffffffffffffffffffffffffffffffffffffff1681526020019081526020015f205f828254613d249190614e32565b925050819055505b5f602b5f8873ffffffffffffffffffffffffffffffffffffffff1673ffffffffffffffffffffffffffffffffffffffff1681526020019081526020015f20541115613e725761271060165f8873ffffffffffffffffffffffffffffffffffffffff1673ffffffffffffffffffffffffffffffffffffffff1681526020019081526020015f205461271087602b5f8b73ffffffffffffffffffffffffffffffffffffffff1673ffffffffffffffffffffffffffffffffffffffff1681526020019081526020015f2054613dfe9190614d94565b613e089190614d94565b613e129190614e02565b613e1c9190614e02565b905080602b5f8873ffffffffffffffffffffffffffffffffffffffff1673ffffffffffffffffffffffffffffffffffffffff1681526020019081526020015f205f828254613e6a9190614e32565b925050819055505b81819350935050509250929050565b5f80836001015f8481526020019081526020015f205490505f8114613f72575f600182613eae9190614e32565b90505f6001865f0180549050613ec49190614e32565b9050808214613f2a575f865f018281548110613ee357613ee2615239565b5b905f5260205f200154905080875f018481548110613f0457613f03615239565b5b905f5260205f20018190555083876001015f8381526020019081526020015f2081905550505b855f01805480613f3d57613f3c61551a565b5b600190038181905f5260205f20015f90559055856001015f8681526020019081526020015f205f905560019350505050613f77565b5f9150505b92915050565b5f33905090565b613f8c611629565b613fcb576040517f08c379a0000000000000000000000000000000000000000000000000000000008152600401613fc290615591565b60405180910390fd5b565b5f613fd8600461382c565b90505f8284613fe79190615206565b90508151811115613ff757815190505b5f805f8690505b8381101561410d5761402985828151811061401c5761401b615239565b5b602002602001015161434c565b92504260105f87848151811061404257614041615239565b5b602002602001015173ffffffffffffffffffffffffffffffffffffffff1673ffffffffffffffffffffffffffffffffffffffff1681526020019081526020015f20819055508260095f87848151811061409e5761409d615239565b5b602002602001015173ffffffffffffffffffffffffffffffffffffffff1673ffffffffffffffffffffffffffffffffffffffff1681526020019081526020015f205f8282546140ed9190615206565b9250508190555082826141009190615206565b9150806001019050613ffe565b5080600c5f82825461411f9190615206565b9250508190555060025f9054906101000a900473ffffffffffffffffffffffffffffffffffffffff1673ffffffffffffffffffffffffffffffffffffffff166370a0823160065f9054906101000a900473ffffffffffffffffffffffffffffffffffffffff166040518263ffffffff1660e01b81526004016141a191906148a7565b602060405180830381865afa1580156141bc573d5f803e3d5ffd5b505050506040513d601f19601f820116820180604052508101906141e091906154ef565b60148190555082600a81905550505050505050565b5f80836001015f8481526020019081526020015f20541415905092915050565b5f61422083836141f5565b61427257825f0182908060018154018082558091505060019003905f5260205f20015f9091909190915055825f0180549050836001015f8481526020019081526020015f208190555060019050614276565b5f90505b92915050565b6060815f018054806020026020016040519081016040528092919081815260200182805480156142c957602002820191905f5260205f20905b8154815260200190600101908083116142b5575b50505050509050919050565b5f80601f54601f546003546142ea9190614e02565b6142f49190614d94565b601f54601f54426143059190614e02565b61430f9190614d94565b6143199190614e32565b90505f601f548260205461432d9190614d94565b6143379190614e02565b905061434581601e546145b5565b9250505090565b5f60105f8373ffffffffffffffffffffffffffffffffffffffff1673ffffffffffffffffffffffffffffffffffffffff1681526020019081526020015f20544210156143cd576040517f08c379a00000000000000000000000000000000000000000000000000000000081526004016143c4906155f9565b60405180910390fd5b5f60165f8473ffffffffffffffffffffffffffffffffffffffff1673ffffffffffffffffffffffffffffffffffffffff1681526020019081526020015f205403614419575f90506145b0565b5f60105f8473ffffffffffffffffffffffffffffffffffffffff1673ffffffffffffffffffffffffffffffffffffffff1681526020019081526020015f2054426144639190614e32565b90505f60165f8573ffffffffffffffffffffffffffffffffffffffff1673ffffffffffffffffffffffffffffffffffffffff1681526020019081526020015f205490506201518060215f8673ffffffffffffffffffffffffffffffffffffffff1673ffffffffffffffffffffffffffffffffffffffff1681526020019081526020015f2054426144f39190614e32565b10156145455760225f8573ffffffffffffffffffffffffffffffffffffffff1673ffffffffffffffffffffffffffffffffffffffff1681526020019081526020015f2054816145429190614e32565b90505b5f670de0b6b3a76400006127108461455c886145ce565b6127106145699190615206565b85614575600754613a9d565b61457f9190614d94565b6145899190614d94565b6145939190614d94565b61459d9190614e02565b6145a79190614e02565b90508093505050505b919050565b5f818311156145c457816145c6565b825b905092915050565b5f8060165f8473ffffffffffffffffffffffffffffffffffffffff1673ffffffffffffffffffffffffffffffffffffffff1681526020019081526020015f205411156146c7575f601f54601f5460175f8673ffffffffffffffffffffffffffffffffffffffff1673ffffffffffffffffffffffffffffffffffffffff1681526020019081526020015f20546146639190614e02565b61466d9190614d94565b601f54601f544261467e9190614e02565b6146889190614d94565b6146929190614e32565b90505f601f54826020546146a69190614d94565b6146b09190614e02565b90506146be81601e546145b5565b925050506146cb565b5f90505b919050565b5f819050919050565b6146e2816146d0565b82525050565b5f6020820190506146fb5f8301846146d9565b92915050565b5f604051905090565b5f80fd5b5f80fd5b5f73ffffffffffffffffffffffffffffffffffffffff82169050919050565b5f61473b82614712565b9050919050565b61474b81614731565b8114614755575f80fd5b50565b5f8135905061476681614742565b92915050565b5f602082840312156147815761478061470a565b5b5f61478e84828501614758565b91505092915050565b6147a0816146d0565b81146147aa575f80fd5b50565b5f813590506147bb81614797565b92915050565b5f602082840312156147d6576147d561470a565b5b5f6147e3848285016147ad565b91505092915050565b5f80fd5b5f80fd5b5f80fd5b5f8083601f84011261480d5761480c6147ec565b5b8235905067ffffffffffffffff81111561482a576148296147f0565b5b602083019150836001820283011115614846576148456147f4565b5b9250929050565b5f80602083850312156148635761486261470a565b5b5f83013567ffffffffffffffff8111156148805761487f61470e565b5b61488c858286016147f8565b92509250509250929050565b6148a181614731565b82525050565b5f6020820190506148ba5f830184614898565b92915050565b5f8115159050919050565b6148d4816148c0565b82525050565b5f6020820190506148ed5f8301846148cb565b92915050565b5f81519050919050565b5f82825260208201905092915050565b8281835e5f83830152505050565b5f601f19601f8301169050919050565b5f614935826148f3565b61493f81856148fd565b935061494f81856020860161490d565b6149588161491b565b840191505092915050565b5f6040820190506149765f8301856148cb565b8181036020830152614988818461492b565b90509392505050565b5f80604083850312156149a7576149a661470a565b5b5f6149b485828601614758565b92505060206149c585828601614758565b9150509250929050565b5f80fd5b7f4e487b71000000000000000000000000000000000000000000000000000000005f52604160045260245ffd5b614a098261491b565b810181811067ffffffffffffffff82111715614a2857614a276149d3565b5b80604052505050565b5f614a3a614701565b9050614a468282614a00565b919050565b5f67ffffffffffffffff821115614a6557614a646149d3565b5b614a6e8261491b565b9050602081019050919050565b828183375f83830152505050565b5f614a9b614a9684614a4b565b614a31565b905082815260208101848484011115614ab757614ab66149cf565b5b614ac2848285614a7b565b509392505050565b5f82601f830112614ade57614add6147ec565b5b8135614aee848260208601614a89565b91505092915050565b5f805f60608486031215614b0e57614b0d61470a565b5b5f614b1b868287016147ad565b9350506020614b2c86828701614758565b925050604084013567ffffffffffffffff811115614b4d57614b4c61470e565b5b614b5986828701614aca565b9150509250925092565b5f608082019050614b765f8301876146d9565b614b8360208301866146d9565b614b9060408301856146d9565b614b9d60608301846146d9565b95945050505050565b5f60208284031215614bbb57614bba61470a565b5b5f82013567ffffffffffffffff811115614bd857614bd761470e565b5b614be484828501614aca565b91505092915050565b5f819050919050565b5f614c10614c0b614c0684614712565b614bed565b614712565b9050919050565b5f614c2182614bf6565b9050919050565b5f614c3282614c17565b9050919050565b614c4281614c28565b82525050565b5f602082019050614c5b5f830184614c39565b92915050565b5f82825260208201905092915050565b7f616d6f756e74203d2030000000000000000000000000000000000000000000005f82015250565b5f614ca5600a83614c61565b9150614cb082614c71565b602082019050919050565b5f6020820190508181035f830152614cd281614c99565b9050919050565b7f596f75206469646e2774207374616b6520656e6f75676820746f6b656e7320745f8201527f6f20756e7374616b652100000000000000000000000000000000000000000000602082015250565b5f614d33602a83614c61565b9150614d3e82614cd9565b604082019050919050565b5f6020820190508181035f830152614d6081614d27565b9050919050565b7f4e487b71000000000000000000000000000000000000000000000000000000005f52601160045260245ffd5b5f614d9e826146d0565b9150614da9836146d0565b9250828202614db7816146d0565b91508282048414831517614dce57614dcd614d67565b5b5092915050565b7f4e487b71000000000000000000000000000000000000000000000000000000005f52601260045260245ffd5b5f614e0c826146d0565b9150614e17836146d0565b925082614e2757614e26614dd5565b5b828204905092915050565b5f614e3c826146d0565b9150614e47836146d0565b9250828203905081811115614e5f57614e5e614d67565b5b92915050565b5f604082019050614e785f830185614898565b614e8560208301846146d9565b9392505050565b614e95816148c0565b8114614e9f575f80fd5b50565b5f81519050614eb081614e8c565b92915050565b5f60208284031215614ecb57614eca61470a565b5b5f614ed884828501614ea2565b91505092915050565b5f604082019050614ef45f8301856146d9565b614f0160208301846146d9565b9392505050565b7f4b656570557020726571756972656d656e74206973206e6f74206d65742100005f82015250565b5f614f3c601e83614c61565b9150614f4782614f08565b602082019050919050565b5f6020820190508181035f830152614f6981614f30565b9050919050565b7f496e76616c696420616464726573733a207a65726f20616464726573730000005f82015250565b5f614fa4601d83614c61565b9150614faf82614f70565b602082019050919050565b5f6020820190508181035f830152614fd181614f98565b9050919050565b5f81905092915050565b50565b5f614ff05f83614fd8565b9150614ffb82614fe2565b5f82019050919050565b5f61500f82614fe5565b9150819050919050565b7f5472616e73666572204661696c656400000000000000000000000000000000005f82015250565b5f61504d600f83614c61565b915061505882615019565b602082019050919050565b5f6020820190508181035f83015261507a81615041565b9050919050565b7f596f75207573656420726566657272616c20636f646520616c726561647921005f82015250565b5f6150b5601f83614c61565b91506150c082615081565b602082019050919050565b5f6020820190508181035f8301526150e2816150a9565b9050919050565b5f81519050919050565b5f81905092915050565b5f615107826150e9565b61511181856150f3565b935061512181856020860161490d565b80840191505092915050565b5f61513882846150fd565b915081905092915050565b7f596f7520617265207573696e6720796f7572206f776e20726566657272616c205f8201527f636f646521000000000000000000000000000000000000000000000000000000602082015250565b5f61519d602583614c61565b91506151a882615143565b604082019050919050565b5f6020820190508181035f8301526151ca81615191565b9050919050565b5f6060820190506151e45f830186614898565b6151f16020830185614898565b6151fe60408301846146d9565b949350505050565b5f615210826146d0565b915061521b836146d0565b925082820190508082111561523357615232614d67565b5b92915050565b7f4e487b71000000000000000000000000000000000000000000000000000000005f52603260045260245ffd5b7f4e6f20726566657272616c207265776172647320746f20636c61696d000000005f82015250565b5f61529a601c83614c61565b91506152a582615266565b602082019050919050565b5f6020820190508181035f8301526152c78161528e565b9050919050565b7f5061757361626c653a20706175736564000000000000000000000000000000005f82015250565b5f615302601083614c61565b915061530d826152ce565b602082019050919050565b5f6020820190508181035f83015261532f816152f6565b9050919050565b5f615340826146d0565b91507fffffffffffffffffffffffffffffffffffffffffffffffffffffffffffffffff820361537257615371614d67565b5b600182019050919050565b7f496e76616c696420526566657272616c20436f646500000000000000000000005f82015250565b5f6153b1601583614c61565b91506153bc8261537d565b602082019050919050565b5f6020820190508181035f8301526153de816153a5565b9050919050565b7f596f75206372656174656420726566657272616c20636f646520616c726561645f8201527f7900000000000000000000000000000000000000000000000000000000000000602082015250565b5f61543f602183614c61565b915061544a826153e5565b604082019050919050565b5f6020820190508181035f83015261546c81615433565b9050919050565b7f5265656e7472616e637947756172643a207265656e7472616e742063616c6c005f82015250565b5f6154a7601f83614c61565b91506154b282615473565b602082019050919050565b5f6020820190508181035f8301526154d48161549b565b9050919050565b5f815190506154e981614797565b92915050565b5f602082840312156155045761550361470a565b5b5f615511848285016154db565b91505092915050565b7f4e487b71000000000000000000000000000000000000000000000000000000005f52603160045260245ffd5b7f5061757361626c653a206e6f74207061757365640000000000000000000000005f82015250565b5f61557b601483614c61565b915061558682615547565b602082019050919050565b5f6020820190508181035f8301526155a88161556f565b9050919050565b7f436c61696d2075706461746521000000000000000000000000000000000000005f82015250565b5f6155e3600d83614c61565b91506155ee826155af565b602082019050919050565b5f6020820190508181035f830152615610816155d7565b905091905056fea2646970667358221220f44346205019b9cb79397ac8fe52d4721c8d316f35ecad46f0d4553014fe580c64736f6c634300081a0033",
			"opcodes": "PUSH1 0x80 PUSH1 0x40 MSTORE CALLVALUE DUP1 ISZERO PUSH2 0xF JUMPI PUSH0 DUP1 REVERT JUMPDEST POP PUSH1 0x40 MLOAD PUSH2 0x5DF3 CODESIZE SUB DUP1 PUSH2 0x5DF3 DUP4 CODECOPY DUP2 DUP2 ADD PUSH1 0x40 MSTORE DUP2 ADD SWAP1 PUSH2 0x31 SWAP2 SWAP1 PUSH2 0x66A JUMP JUMPDEST CALLER PUSH0 DUP1 PUSH0 PUSH2 0x100 EXP DUP2 SLOAD DUP2 PUSH1 0xFF MUL NOT AND SWAP1 DUP4 ISZERO ISZERO MUL OR SWAP1 SSTORE POP PUSH0 PUSH20 0xFFFFFFFFFFFFFFFFFFFFFFFFFFFFFFFFFFFFFFFF AND DUP2 PUSH20 0xFFFFFFFFFFFFFFFFFFFFFFFFFFFFFFFFFFFFFFFF AND SUB PUSH2 0xBA JUMPI PUSH0 PUSH1 0x40 MLOAD PUSH32 0x1E4FBDF700000000000000000000000000000000000000000000000000000000 DUP2 MSTORE PUSH1 0x4 ADD PUSH2 0xB1 SWAP2 SWAP1 PUSH2 0x6DD JUMP JUMPDEST PUSH1 0x40 MLOAD DUP1 SWAP2 SUB SWAP1 REVERT JUMPDEST PUSH2 0xC9 DUP2 PUSH2 0x2CF PUSH1 0x20 SHL PUSH1 0x20 SHR JUMP JUMPDEST POP PUSH1 0x1 DUP1 DUP2 SWAP1 SSTORE POP DUP3 PUSH1 0x2 PUSH0 PUSH2 0x100 EXP DUP2 SLOAD DUP2 PUSH20 0xFFFFFFFFFFFFFFFFFFFFFFFFFFFFFFFFFFFFFFFF MUL NOT AND SWAP1 DUP4 PUSH20 0xFFFFFFFFFFFFFFFFFFFFFFFFFFFFFFFFFFFFFFFF AND MUL OR SWAP1 SSTORE POP DUP1 PUSH1 0x7 DUP2 SWAP1 SSTORE POP PUSH2 0x384 PUSH1 0x18 DUP2 SWAP1 SSTORE POP PUSH2 0x1388 PUSH1 0x19 DUP2 SWAP1 SSTORE POP PUSH2 0xBB8 PUSH1 0x1A DUP2 SWAP1 SSTORE POP PUSH2 0x5DC PUSH1 0x1B DUP2 SWAP1 SSTORE POP PUSH3 0x278D00 PUSH1 0x1C DUP2 SWAP1 SSTORE POP PUSH3 0x15180 PUSH1 0x1D DUP2 SWAP1 SSTORE POP PUSH2 0x960 PUSH1 0x1E DUP2 SWAP1 SSTORE POP PUSH3 0x93A80 PUSH1 0x1F DUP2 SWAP1 SSTORE POP PUSH1 0x64 PUSH1 0x20 DUP2 SWAP1 SSTORE POP DUP2 PUSH1 0x6 PUSH0 PUSH2 0x100 EXP DUP2 SLOAD DUP2 PUSH20 0xFFFFFFFFFFFFFFFFFFFFFFFFFFFFFFFFFFFFFFFF MUL NOT AND SWAP1 DUP4 PUSH20 0xFFFFFFFFFFFFFFFFFFFFFFFFFFFFFFFFFFFFFFFF AND MUL OR SWAP1 SSTORE POP PUSH1 0x2 PUSH0 SWAP1 SLOAD SWAP1 PUSH2 0x100 EXP SWAP1 DIV PUSH20 0xFFFFFFFFFFFFFFFFFFFFFFFFFFFFFFFFFFFFFFFF AND PUSH20 0xFFFFFFFFFFFFFFFFFFFFFFFFFFFFFFFFFFFFFFFF AND PUSH4 0x70A08231 PUSH1 0x6 PUSH0 SWAP1 SLOAD SWAP1 PUSH2 0x100 EXP SWAP1 DIV PUSH20 0xFFFFFFFFFFFFFFFFFFFFFFFFFFFFFFFFFFFFFFFF AND PUSH1 0x40 MLOAD DUP3 PUSH4 0xFFFFFFFF AND PUSH1 0xE0 SHL DUP2 MSTORE PUSH1 0x4 ADD PUSH2 0x226 SWAP2 SWAP1 PUSH2 0x6DD JUMP JUMPDEST PUSH1 0x20 PUSH1 0x40 MLOAD DUP1 DUP4 SUB DUP2 DUP7 GAS STATICCALL ISZERO DUP1 ISZERO PUSH2 0x241 JUMPI RETURNDATASIZE PUSH0 DUP1 RETURNDATACOPY RETURNDATASIZE PUSH0 REVERT JUMPDEST POP POP POP POP PUSH1 0x40 MLOAD RETURNDATASIZE PUSH1 0x1F NOT PUSH1 0x1F DUP3 ADD AND DUP3 ADD DUP1 PUSH1 0x40 MSTORE POP DUP2 ADD SWAP1 PUSH2 0x265 SWAP2 SWAP1 PUSH2 0x6F6 JUMP JUMPDEST PUSH1 0x14 DUP2 SWAP1 SSTORE POP PUSH0 PUSH1 0x15 DUP2 SWAP1 SSTORE POP PUSH2 0x2710 PUSH1 0x8 DUP2 SWAP1 SSTORE POP TIMESTAMP PUSH1 0x3 DUP2 SWAP1 SSTORE POP TIMESTAMP PUSH1 0x31 DUP2 SWAP1 SSTORE POP PUSH2 0x7080 PUSH1 0x32 DUP2 SWAP1 SSTORE POP PUSH2 0x1F4 PUSH1 0xB DUP2 SWAP1 SSTORE POP PUSH0 PUSH1 0xA DUP2 SWAP1 SSTORE POP PUSH0 PUSH1 0x33 DUP2 SWAP1 SSTORE POP PUSH2 0x2B8 DUP5 PUSH2 0x392 PUSH1 0x20 SHL PUSH1 0x20 SHR JUMP JUMPDEST PUSH2 0x2C6 PUSH2 0x422 PUSH1 0x20 SHL PUSH1 0x20 SHR JUMP JUMPDEST POP POP POP POP PUSH2 0x799 JUMP JUMPDEST PUSH0 DUP1 PUSH1 0x1 SWAP1 SLOAD SWAP1 PUSH2 0x100 EXP SWAP1 DIV PUSH20 0xFFFFFFFFFFFFFFFFFFFFFFFFFFFFFFFFFFFFFFFF AND SWAP1 POP DUP2 PUSH0 PUSH1 0x1 PUSH2 0x100 EXP DUP2 SLOAD DUP2 PUSH20 0xFFFFFFFFFFFFFFFFFFFFFFFFFFFFFFFFFFFFFFFF MUL NOT AND SWAP1 DUP4 PUSH20 0xFFFFFFFFFFFFFFFFFFFFFFFFFFFFFFFFFFFFFFFF AND MUL OR SWAP1 SSTORE POP DUP2 PUSH20 0xFFFFFFFFFFFFFFFFFFFFFFFFFFFFFFFFFFFFFFFF AND DUP2 PUSH20 0xFFFFFFFFFFFFFFFFFFFFFFFFFFFFFFFFFFFFFFFF AND PUSH32 0x8BE0079C531659141344CD1FD0A4F28419497F9722A3DAAFE3B4186F6B6457E0 PUSH1 0x40 MLOAD PUSH1 0x40 MLOAD DUP1 SWAP2 SUB SWAP1 LOG3 POP POP JUMP JUMPDEST PUSH2 0x3A0 PUSH2 0x440 PUSH1 0x20 SHL PUSH1 0x20 SHR JUMP JUMPDEST PUSH0 PUSH20 0xFFFFFFFFFFFFFFFFFFFFFFFFFFFFFFFFFFFFFFFF AND DUP2 PUSH20 0xFFFFFFFFFFFFFFFFFFFFFFFFFFFFFFFFFFFFFFFF AND SUB PUSH2 0x410 JUMPI PUSH0 PUSH1 0x40 MLOAD PUSH32 0x1E4FBDF700000000000000000000000000000000000000000000000000000000 DUP2 MSTORE PUSH1 0x4 ADD PUSH2 0x407 SWAP2 SWAP1 PUSH2 0x6DD JUMP JUMPDEST PUSH1 0x40 MLOAD DUP1 SWAP2 SUB SWAP1 REVERT JUMPDEST PUSH2 0x41F DUP2 PUSH2 0x2CF PUSH1 0x20 SHL PUSH1 0x20 SHR JUMP JUMPDEST POP JUMP JUMPDEST PUSH2 0x430 PUSH2 0x440 PUSH1 0x20 SHL PUSH1 0x20 SHR JUMP JUMPDEST PUSH2 0x43E PUSH2 0x4D9 PUSH1 0x20 SHL PUSH1 0x20 SHR JUMP JUMPDEST JUMP JUMPDEST PUSH2 0x44E PUSH2 0x546 PUSH1 0x20 SHL PUSH1 0x20 SHR JUMP JUMPDEST PUSH20 0xFFFFFFFFFFFFFFFFFFFFFFFFFFFFFFFFFFFFFFFF AND PUSH2 0x472 PUSH2 0x54D PUSH1 0x20 SHL PUSH1 0x20 SHR JUMP JUMPDEST PUSH20 0xFFFFFFFFFFFFFFFFFFFFFFFFFFFFFFFFFFFFFFFF AND EQ PUSH2 0x4D7 JUMPI PUSH2 0x49B PUSH2 0x546 PUSH1 0x20 SHL PUSH1 0x20 SHR JUMP JUMPDEST PUSH1 0x40 MLOAD PUSH32 0x118CDAA700000000000000000000000000000000000000000000000000000000 DUP2 MSTORE PUSH1 0x4 ADD PUSH2 0x4CE SWAP2 SWAP1 PUSH2 0x6DD JUMP JUMPDEST PUSH1 0x40 MLOAD DUP1 SWAP2 SUB SWAP1 REVERT JUMPDEST JUMP JUMPDEST PUSH2 0x4E7 PUSH2 0x575 PUSH1 0x20 SHL PUSH1 0x20 SHR JUMP JUMPDEST PUSH1 0x1 PUSH0 DUP1 PUSH2 0x100 EXP DUP2 SLOAD DUP2 PUSH1 0xFF MUL NOT AND SWAP1 DUP4 ISZERO ISZERO MUL OR SWAP1 SSTORE POP PUSH32 0x62E78CEA01BEE320CD4E420270B5EA74000D11B0C9F74754EBDBFC544B05A258 PUSH2 0x52F PUSH2 0x546 PUSH1 0x20 SHL PUSH1 0x20 SHR JUMP JUMPDEST PUSH1 0x40 MLOAD PUSH2 0x53C SWAP2 SWAP1 PUSH2 0x6DD JUMP JUMPDEST PUSH1 0x40 MLOAD DUP1 SWAP2 SUB SWAP1 LOG1 JUMP JUMPDEST PUSH0 CALLER SWAP1 POP SWAP1 JUMP JUMPDEST PUSH0 DUP1 PUSH1 0x1 SWAP1 SLOAD SWAP1 PUSH2 0x100 EXP SWAP1 DIV PUSH20 0xFFFFFFFFFFFFFFFFFFFFFFFFFFFFFFFFFFFFFFFF AND SWAP1 POP SWAP1 JUMP JUMPDEST PUSH2 0x583 PUSH2 0x5C5 PUSH1 0x20 SHL PUSH1 0x20 SHR JUMP JUMPDEST ISZERO PUSH2 0x5C3 JUMPI PUSH1 0x40 MLOAD PUSH32 0x8C379A000000000000000000000000000000000000000000000000000000000 DUP2 MSTORE PUSH1 0x4 ADD PUSH2 0x5BA SWAP1 PUSH2 0x77B JUMP JUMPDEST PUSH1 0x40 MLOAD DUP1 SWAP2 SUB SWAP1 REVERT JUMPDEST JUMP JUMPDEST PUSH0 DUP1 PUSH0 SWAP1 SLOAD SWAP1 PUSH2 0x100 EXP SWAP1 DIV PUSH1 0xFF AND SWAP1 POP SWAP1 JUMP JUMPDEST PUSH0 DUP1 REVERT JUMPDEST PUSH0 PUSH20 0xFFFFFFFFFFFFFFFFFFFFFFFFFFFFFFFFFFFFFFFF DUP3 AND SWAP1 POP SWAP2 SWAP1 POP JUMP JUMPDEST PUSH0 PUSH2 0x606 DUP3 PUSH2 0x5DD JUMP JUMPDEST SWAP1 POP SWAP2 SWAP1 POP JUMP JUMPDEST PUSH2 0x616 DUP2 PUSH2 0x5FC JUMP JUMPDEST DUP2 EQ PUSH2 0x620 JUMPI PUSH0 DUP1 REVERT JUMPDEST POP JUMP JUMPDEST PUSH0 DUP2 MLOAD SWAP1 POP PUSH2 0x631 DUP2 PUSH2 0x60D JUMP JUMPDEST SWAP3 SWAP2 POP POP JUMP JUMPDEST PUSH0 DUP2 SWAP1 POP SWAP2 SWAP1 POP JUMP JUMPDEST PUSH2 0x649 DUP2 PUSH2 0x637 JUMP JUMPDEST DUP2 EQ PUSH2 0x653 JUMPI PUSH0 DUP1 REVERT JUMPDEST POP JUMP JUMPDEST PUSH0 DUP2 MLOAD SWAP1 POP PUSH2 0x664 DUP2 PUSH2 0x640 JUMP JUMPDEST SWAP3 SWAP2 POP POP JUMP JUMPDEST PUSH0 DUP1 PUSH0 DUP1 PUSH1 0x80 DUP6 DUP8 SUB SLT ISZERO PUSH2 0x682 JUMPI PUSH2 0x681 PUSH2 0x5D9 JUMP JUMPDEST JUMPDEST PUSH0 PUSH2 0x68F DUP8 DUP3 DUP9 ADD PUSH2 0x623 JUMP JUMPDEST SWAP5 POP POP PUSH1 0x20 PUSH2 0x6A0 DUP8 DUP3 DUP9 ADD PUSH2 0x623 JUMP JUMPDEST SWAP4 POP POP PUSH1 0x40 PUSH2 0x6B1 DUP8 DUP3 DUP9 ADD PUSH2 0x623 JUMP JUMPDEST SWAP3 POP POP PUSH1 0x60 PUSH2 0x6C2 DUP8 DUP3 DUP9 ADD PUSH2 0x656 JUMP JUMPDEST SWAP2 POP POP SWAP3 SWAP6 SWAP2 SWAP5 POP SWAP3 POP JUMP JUMPDEST PUSH2 0x6D7 DUP2 PUSH2 0x5FC JUMP JUMPDEST DUP3 MSTORE POP POP JUMP JUMPDEST PUSH0 PUSH1 0x20 DUP3 ADD SWAP1 POP PUSH2 0x6F0 PUSH0 DUP4 ADD DUP5 PUSH2 0x6CE JUMP JUMPDEST SWAP3 SWAP2 POP POP JUMP JUMPDEST PUSH0 PUSH1 0x20 DUP3 DUP5 SUB SLT ISZERO PUSH2 0x70B JUMPI PUSH2 0x70A PUSH2 0x5D9 JUMP JUMPDEST JUMPDEST PUSH0 PUSH2 0x718 DUP5 DUP3 DUP6 ADD PUSH2 0x656 JUMP JUMPDEST SWAP2 POP POP SWAP3 SWAP2 POP POP JUMP JUMPDEST PUSH0 DUP3 DUP3 MSTORE PUSH1 0x20 DUP3 ADD SWAP1 POP SWAP3 SWAP2 POP POP JUMP JUMPDEST PUSH32 0x5061757361626C653A2070617573656400000000000000000000000000000000 PUSH0 DUP3 ADD MSTORE POP JUMP JUMPDEST PUSH0 PUSH2 0x765 PUSH1 0x10 DUP4 PUSH2 0x721 JUMP JUMPDEST SWAP2 POP PUSH2 0x770 DUP3 PUSH2 0x731 JUMP JUMPDEST PUSH1 0x20 DUP3 ADD SWAP1 POP SWAP2 SWAP1 POP JUMP JUMPDEST PUSH0 PUSH1 0x20 DUP3 ADD SWAP1 POP DUP2 DUP2 SUB PUSH0 DUP4 ADD MSTORE PUSH2 0x792 DUP2 PUSH2 0x759 JUMP JUMPDEST SWAP1 POP SWAP2 SWAP1 POP JUMP JUMPDEST PUSH2 0x564D DUP1 PUSH2 0x7A6 PUSH0 CODECOPY PUSH0 RETURN INVALID PUSH1 0x80 PUSH1 0x40 MSTORE PUSH1 0x4 CALLDATASIZE LT PUSH2 0x3BB JUMPI PUSH0 CALLDATALOAD PUSH1 0xE0 SHR DUP1 PUSH4 0x817B1CD2 GT PUSH2 0x1F1 JUMPI DUP1 PUSH4 0xB9F2B4E0 GT PUSH2 0x10C JUMPI DUP1 PUSH4 0xD2CBF7AD GT PUSH2 0x9F JUMPI DUP1 PUSH4 0xF87582C4 GT PUSH2 0x6E JUMPI DUP1 PUSH4 0xF87582C4 EQ PUSH2 0xF00 JUMPI DUP1 PUSH4 0xFB099349 EQ PUSH2 0xF2A JUMPI DUP1 PUSH4 0xFC0C546A EQ PUSH2 0xF66 JUMPI DUP1 PUSH4 0xFCC6D1F4 EQ PUSH2 0xF90 JUMPI PUSH2 0x3C2 JUMP JUMPDEST DUP1 PUSH4 0xD2CBF7AD EQ PUSH2 0xE48 JUMPI DUP1 PUSH4 0xD64D6968 EQ PUSH2 0xE72 JUMPI DUP1 PUSH4 0xDC70219F EQ PUSH2 0xEAE JUMPI DUP1 PUSH4 0xF2FDE38B EQ PUSH2 0xED8 JUMPI PUSH2 0x3C2 JUMP JUMPDEST DUP1 PUSH4 0xC1985A2A GT PUSH2 0xDB JUMPI DUP1 PUSH4 0xC1985A2A EQ PUSH2 0xD67 JUMPI DUP1 PUSH4 0xC48C2636 EQ PUSH2 0xDA3 JUMPI DUP1 PUSH4 0xC57A202C EQ PUSH2 0xDCD JUMPI DUP1 PUSH4 0xCD47D73D EQ PUSH2 0xE09 JUMPI PUSH2 0x3C2 JUMP JUMPDEST DUP1 PUSH4 0xB9F2B4E0 EQ PUSH2 0xC74 JUMPI DUP1 PUSH4 0xBC48DCAB EQ PUSH2 0xCB3 JUMPI DUP1 PUSH4 0xBD9DC8F6 EQ PUSH2 0xCEF JUMPI DUP1 PUSH4 0xC15FFA50 EQ PUSH2 0xD2B JUMPI PUSH2 0x3C2 JUMP JUMPDEST DUP1 PUSH4 0x93F8691D GT PUSH2 0x184 JUMPI DUP1 PUSH4 0xA50A24E8 GT PUSH2 0x153 JUMPI DUP1 PUSH4 0xA50A24E8 EQ PUSH2 0xBCC JUMPI DUP1 PUSH4 0xAFC695CE EQ PUSH2 0xBF6 JUMPI DUP1 PUSH4 0xB3CD4254 EQ PUSH2 0xC20 JUMPI DUP1 PUSH4 0xB7061124 EQ PUSH2 0xC4A JUMPI PUSH2 0x3C2 JUMP JUMPDEST DUP1 PUSH4 0x93F8691D EQ PUSH2 0xB00 JUMPI DUP1 PUSH4 0x94998885 EQ PUSH2 0xB2A JUMPI DUP1 PUSH4 0x9B4B2C9C EQ PUSH2 0xB66 JUMPI DUP1 PUSH4 0x9C30D8F0 EQ PUSH2 0xB90 JUMPI PUSH2 0x3C2 JUMP JUMPDEST DUP1 PUSH4 0x8C4A23E0 GT PUSH2 0x1C0 JUMPI DUP1 PUSH4 0x8C4A23E0 EQ PUSH2 0xA48 JUMPI DUP1 PUSH4 0x8DA5CB5B EQ PUSH2 0xA70 JUMPI DUP1 PUSH4 0x8EA97D26 EQ PUSH2 0xA9A JUMPI DUP1 PUSH4 0x8EC7830B EQ PUSH2 0xAC4 JUMPI PUSH2 0x3C2 JUMP JUMPDEST DUP1 PUSH4 0x817B1CD2 EQ PUSH2 0x990 JUMPI DUP1 PUSH4 0x8456CB59 EQ PUSH2 0x9BA JUMPI DUP1 PUSH4 0x88BD2AEF EQ PUSH2 0x9D0 JUMPI DUP1 PUSH4 0x8BE0F2CA EQ PUSH2 0xA0C JUMPI PUSH2 0x3C2 JUMP JUMPDEST DUP1 PUSH4 0x3E50A556 GT PUSH2 0x2E1 JUMPI DUP1 PUSH4 0x5C4ED202 GT PUSH2 0x274 JUMPI DUP1 PUSH4 0x6E04FF0D GT PUSH2 0x243 JUMPI DUP1 PUSH4 0x6E04FF0D EQ PUSH2 0x8E9 JUMPI DUP1 PUSH4 0x715018A6 EQ PUSH2 0x926 JUMPI DUP1 PUSH4 0x7790A1C8 EQ PUSH2 0x93C JUMPI DUP1 PUSH4 0x790E61C1 EQ PUSH2 0x966 JUMPI PUSH2 0x3C2 JUMP JUMPDEST DUP1 PUSH4 0x5C4ED202 EQ PUSH2 0x843 JUMPI DUP1 PUSH4 0x5C975ABB EQ PUSH2 0x86D JUMPI DUP1 PUSH4 0x690D8320 EQ PUSH2 0x897 JUMPI DUP1 PUSH4 0x6A4681E5 EQ PUSH2 0x8BF JUMPI PUSH2 0x3C2 JUMP JUMPDEST DUP1 PUSH4 0x472BE74A GT PUSH2 0x2B0 JUMPI DUP1 PUSH4 0x472BE74A EQ PUSH2 0x765 JUMPI DUP1 PUSH4 0x4A3B68CC EQ PUSH2 0x7A1 JUMPI DUP1 PUSH4 0x4AD6EB2E EQ PUSH2 0x7DD JUMPI DUP1 PUSH4 0x5A2443F7 EQ PUSH2 0x819 JUMPI PUSH2 0x3C2 JUMP JUMPDEST DUP1 PUSH4 0x3E50A556 EQ PUSH2 0x6C1 JUMPI DUP1 PUSH4 0x3F4BA83A EQ PUSH2 0x6FD JUMPI DUP1 PUSH4 0x4585E33B EQ PUSH2 0x713 JUMPI DUP1 PUSH4 0x4626402B EQ PUSH2 0x73B JUMPI PUSH2 0x3C2 JUMP JUMPDEST DUP1 PUSH4 0x2C070D7D GT PUSH2 0x359 JUMPI DUP1 PUSH4 0x337AA4C4 GT PUSH2 0x328 JUMPI DUP1 PUSH4 0x337AA4C4 EQ PUSH2 0x5E3 JUMPI DUP1 PUSH4 0x34FEA342 EQ PUSH2 0x61F JUMPI DUP1 PUSH4 0x366B2EFF EQ PUSH2 0x65B JUMPI DUP1 PUSH4 0x3AE58EF2 EQ PUSH2 0x685 JUMPI PUSH2 0x3C2 JUMP JUMPDEST DUP1 PUSH4 0x2C070D7D EQ PUSH2 0x507 JUMPI DUP1 PUSH4 0x2C52BED9 EQ PUSH2 0x543 JUMPI DUP1 PUSH4 0x2CF01B55 EQ PUSH2 0x57F JUMPI DUP1 PUSH4 0x2E17DE78 EQ PUSH2 0x5BB JUMPI PUSH2 0x3C2 JUMP JUMPDEST DUP1 PUSH4 0xFB5A6B4 GT PUSH2 0x395 JUMPI DUP1 PUSH4 0xFB5A6B4 EQ PUSH2 0x44D JUMPI DUP1 PUSH4 0x15BF6C03 EQ PUSH2 0x477 JUMPI DUP1 PUSH4 0x1C0B5A3F EQ PUSH2 0x4A1 JUMPI DUP1 PUSH4 0x260429C2 EQ PUSH2 0x4CB JUMPI PUSH2 0x3C2 JUMP JUMPDEST DUP1 PUSH4 0x3793298 EQ PUSH2 0x3CF JUMPI DUP1 PUSH4 0x5A4263D EQ PUSH2 0x3F9 JUMPI DUP1 PUSH4 0xA30307D EQ PUSH2 0x423 JUMPI PUSH2 0x3C2 JUMP JUMPDEST CALLDATASIZE PUSH2 0x3C2 JUMPI STOP JUMPDEST CALLVALUE DUP1 ISZERO PUSH2 0x3CD JUMPI PUSH0 DUP1 REVERT JUMPDEST STOP JUMPDEST CALLVALUE DUP1 ISZERO PUSH2 0x3DA JUMPI PUSH0 DUP1 REVERT JUMPDEST POP PUSH2 0x3E3 PUSH2 0xFBA JUMP JUMPDEST PUSH1 0x40 MLOAD PUSH2 0x3F0 SWAP2 SWAP1 PUSH2 0x46E8 JUMP JUMPDEST PUSH1 0x40 MLOAD DUP1 SWAP2 SUB SWAP1 RETURN JUMPDEST CALLVALUE DUP1 ISZERO PUSH2 0x404 JUMPI PUSH0 DUP1 REVERT JUMPDEST POP PUSH2 0x40D PUSH2 0xFC0 JUMP JUMPDEST PUSH1 0x40 MLOAD PUSH2 0x41A SWAP2 SWAP1 PUSH2 0x46E8 JUMP JUMPDEST PUSH1 0x40 MLOAD DUP1 SWAP2 SUB SWAP1 RETURN JUMPDEST CALLVALUE DUP1 ISZERO PUSH2 0x42E JUMPI PUSH0 DUP1 REVERT JUMPDEST POP PUSH2 0x437 PUSH2 0xFC6 JUMP JUMPDEST PUSH1 0x40 MLOAD PUSH2 0x444 SWAP2 SWAP1 PUSH2 0x46E8 JUMP JUMPDEST PUSH1 0x40 MLOAD DUP1 SWAP2 SUB SWAP1 RETURN JUMPDEST CALLVALUE DUP1 ISZERO PUSH2 0x458 JUMPI PUSH0 DUP1 REVERT JUMPDEST POP PUSH2 0x461 PUSH2 0xFCC JUMP JUMPDEST PUSH1 0x40 MLOAD PUSH2 0x46E SWAP2 SWAP1 PUSH2 0x46E8 JUMP JUMPDEST PUSH1 0x40 MLOAD DUP1 SWAP2 SUB SWAP1 RETURN JUMPDEST CALLVALUE DUP1 ISZERO PUSH2 0x482 JUMPI PUSH0 DUP1 REVERT JUMPDEST POP PUSH2 0x48B PUSH2 0xFD2 JUMP JUMPDEST PUSH1 0x40 MLOAD PUSH2 0x498 SWAP2 SWAP1 PUSH2 0x46E8 JUMP JUMPDEST PUSH1 0x40 MLOAD DUP1 SWAP2 SUB SWAP1 RETURN JUMPDEST CALLVALUE DUP1 ISZERO PUSH2 0x4AC JUMPI PUSH0 DUP1 REVERT JUMPDEST POP PUSH2 0x4B5 PUSH2 0xFD8 JUMP JUMPDEST PUSH1 0x40 MLOAD PUSH2 0x4C2 SWAP2 SWAP1 PUSH2 0x46E8 JUMP JUMPDEST PUSH1 0x40 MLOAD DUP1 SWAP2 SUB SWAP1 RETURN JUMPDEST CALLVALUE DUP1 ISZERO PUSH2 0x4D6 JUMPI PUSH0 DUP1 REVERT JUMPDEST POP PUSH2 0x4F1 PUSH1 0x4 DUP1 CALLDATASIZE SUB DUP2 ADD SWAP1 PUSH2 0x4EC SWAP2 SWAP1 PUSH2 0x476C JUMP JUMPDEST PUSH2 0xFDE JUMP JUMPDEST PUSH1 0x40 MLOAD PUSH2 0x4FE SWAP2 SWAP1 PUSH2 0x46E8 JUMP JUMPDEST PUSH1 0x40 MLOAD DUP1 SWAP2 SUB SWAP1 RETURN JUMPDEST CALLVALUE DUP1 ISZERO PUSH2 0x512 JUMPI PUSH0 DUP1 REVERT JUMPDEST POP PUSH2 0x52D PUSH1 0x4 DUP1 CALLDATASIZE SUB DUP2 ADD SWAP1 PUSH2 0x528 SWAP2 SWAP1 PUSH2 0x476C JUMP JUMPDEST PUSH2 0xFF3 JUMP JUMPDEST PUSH1 0x40 MLOAD PUSH2 0x53A SWAP2 SWAP1 PUSH2 0x46E8 JUMP JUMPDEST PUSH1 0x40 MLOAD DUP1 SWAP2 SUB SWAP1 RETURN JUMPDEST CALLVALUE DUP1 ISZERO PUSH2 0x54E JUMPI PUSH0 DUP1 REVERT JUMPDEST POP PUSH2 0x569 PUSH1 0x4 DUP1 CALLDATASIZE SUB DUP2 ADD SWAP1 PUSH2 0x564 SWAP2 SWAP1 PUSH2 0x476C JUMP JUMPDEST PUSH2 0x1039 JUMP JUMPDEST PUSH1 0x40 MLOAD PUSH2 0x576 SWAP2 SWAP1 PUSH2 0x46E8 JUMP JUMPDEST PUSH1 0x40 MLOAD DUP1 SWAP2 SUB SWAP1 RETURN JUMPDEST CALLVALUE DUP1 ISZERO PUSH2 0x58A JUMPI PUSH0 DUP1 REVERT JUMPDEST POP PUSH2 0x5A5 PUSH1 0x4 DUP1 CALLDATASIZE SUB DUP2 ADD SWAP1 PUSH2 0x5A0 SWAP2 SWAP1 PUSH2 0x476C JUMP JUMPDEST PUSH2 0x104E JUMP JUMPDEST PUSH1 0x40 MLOAD PUSH2 0x5B2 SWAP2 SWAP1 PUSH2 0x46E8 JUMP JUMPDEST PUSH1 0x40 MLOAD DUP1 SWAP2 SUB SWAP1 RETURN JUMPDEST CALLVALUE DUP1 ISZERO PUSH2 0x5C6 JUMPI PUSH0 DUP1 REVERT JUMPDEST POP PUSH2 0x5E1 PUSH1 0x4 DUP1 CALLDATASIZE SUB DUP2 ADD SWAP1 PUSH2 0x5DC SWAP2 SWAP1 PUSH2 0x47C1 JUMP JUMPDEST PUSH2 0x1063 JUMP JUMPDEST STOP JUMPDEST CALLVALUE DUP1 ISZERO PUSH2 0x5EE JUMPI PUSH0 DUP1 REVERT JUMPDEST POP PUSH2 0x609 PUSH1 0x4 DUP1 CALLDATASIZE SUB DUP2 ADD SWAP1 PUSH2 0x604 SWAP2 SWAP1 PUSH2 0x476C JUMP JUMPDEST PUSH2 0x14C4 JUMP JUMPDEST PUSH1 0x40 MLOAD PUSH2 0x616 SWAP2 SWAP1 PUSH2 0x46E8 JUMP JUMPDEST PUSH1 0x40 MLOAD DUP1 SWAP2 SUB SWAP1 RETURN JUMPDEST CALLVALUE DUP1 ISZERO PUSH2 0x62A JUMPI PUSH0 DUP1 REVERT JUMPDEST POP PUSH2 0x645 PUSH1 0x4 DUP1 CALLDATASIZE SUB DUP2 ADD SWAP1 PUSH2 0x640 SWAP2 SWAP1 PUSH2 0x476C JUMP JUMPDEST PUSH2 0x14D9 JUMP JUMPDEST PUSH1 0x40 MLOAD PUSH2 0x652 SWAP2 SWAP1 PUSH2 0x46E8 JUMP JUMPDEST PUSH1 0x40 MLOAD DUP1 SWAP2 SUB SWAP1 RETURN JUMPDEST CALLVALUE DUP1 ISZERO PUSH2 0x666 JUMPI PUSH0 DUP1 REVERT JUMPDEST POP PUSH2 0x66F PUSH2 0x14EE JUMP JUMPDEST PUSH1 0x40 MLOAD PUSH2 0x67C SWAP2 SWAP1 PUSH2 0x46E8 JUMP JUMPDEST PUSH1 0x40 MLOAD DUP1 SWAP2 SUB SWAP1 RETURN JUMPDEST CALLVALUE DUP1 ISZERO PUSH2 0x690 JUMPI PUSH0 DUP1 REVERT JUMPDEST POP PUSH2 0x6AB PUSH1 0x4 DUP1 CALLDATASIZE SUB DUP2 ADD SWAP1 PUSH2 0x6A6 SWAP2 SWAP1 PUSH2 0x476C JUMP JUMPDEST PUSH2 0x14F5 JUMP JUMPDEST PUSH1 0x40 MLOAD PUSH2 0x6B8 SWAP2 SWAP1 PUSH2 0x46E8 JUMP JUMPDEST PUSH1 0x40 MLOAD DUP1 SWAP2 SUB SWAP1 RETURN JUMPDEST CALLVALUE DUP1 ISZERO PUSH2 0x6CC JUMPI PUSH0 DUP1 REVERT JUMPDEST POP PUSH2 0x6E7 PUSH1 0x4 DUP1 CALLDATASIZE SUB DUP2 ADD SWAP1 PUSH2 0x6E2 SWAP2 SWAP1 PUSH2 0x476C JUMP JUMPDEST PUSH2 0x150A JUMP JUMPDEST PUSH1 0x40 MLOAD PUSH2 0x6F4 SWAP2 SWAP1 PUSH2 0x46E8 JUMP JUMPDEST PUSH1 0x40 MLOAD DUP1 SWAP2 SUB SWAP1 RETURN JUMPDEST CALLVALUE DUP1 ISZERO PUSH2 0x708 JUMPI PUSH0 DUP1 REVERT JUMPDEST POP PUSH2 0x711 PUSH2 0x151F JUMP JUMPDEST STOP JUMPDEST CALLVALUE DUP1 ISZERO PUSH2 0x71E JUMPI PUSH0 DUP1 REVERT JUMPDEST POP PUSH2 0x739 PUSH1 0x4 DUP1 CALLDATASIZE SUB DUP2 ADD SWAP1 PUSH2 0x734 SWAP2 SWAP1 PUSH2 0x484D JUMP JUMPDEST PUSH2 0x1531 JUMP JUMPDEST STOP JUMPDEST CALLVALUE DUP1 ISZERO PUSH2 0x746 JUMPI PUSH0 DUP1 REVERT JUMPDEST POP PUSH2 0x74F PUSH2 0x1596 JUMP JUMPDEST PUSH1 0x40 MLOAD PUSH2 0x75C SWAP2 SWAP1 PUSH2 0x48A7 JUMP JUMPDEST PUSH1 0x40 MLOAD DUP1 SWAP2 SUB SWAP1 RETURN JUMPDEST CALLVALUE DUP1 ISZERO PUSH2 0x770 JUMPI PUSH0 DUP1 REVERT JUMPDEST POP PUSH2 0x78B PUSH1 0x4 DUP1 CALLDATASIZE SUB DUP2 ADD SWAP1 PUSH2 0x786 SWAP2 SWAP1 PUSH2 0x476C JUMP JUMPDEST PUSH2 0x15BB JUMP JUMPDEST PUSH1 0x40 MLOAD PUSH2 0x798 SWAP2 SWAP1 PUSH2 0x46E8 JUMP JUMPDEST PUSH1 0x40 MLOAD DUP1 SWAP2 SUB SWAP1 RETURN JUMPDEST CALLVALUE DUP1 ISZERO PUSH2 0x7AC JUMPI PUSH0 DUP1 REVERT JUMPDEST POP PUSH2 0x7C7 PUSH1 0x4 DUP1 CALLDATASIZE SUB DUP2 ADD SWAP1 PUSH2 0x7C2 SWAP2 SWAP1 PUSH2 0x476C JUMP JUMPDEST PUSH2 0x15D0 JUMP JUMPDEST PUSH1 0x40 MLOAD PUSH2 0x7D4 SWAP2 SWAP1 PUSH2 0x48A7 JUMP JUMPDEST PUSH1 0x40 MLOAD DUP1 SWAP2 SUB SWAP1 RETURN JUMPDEST CALLVALUE DUP1 ISZERO PUSH2 0x7E8 JUMPI PUSH0 DUP1 REVERT JUMPDEST POP PUSH2 0x803 PUSH1 0x4 DUP1 CALLDATASIZE SUB DUP2 ADD SWAP1 PUSH2 0x7FE SWAP2 SWAP1 PUSH2 0x476C JUMP JUMPDEST PUSH2 0x1600 JUMP JUMPDEST PUSH1 0x40 MLOAD PUSH2 0x810 SWAP2 SWAP1 PUSH2 0x48DA JUMP JUMPDEST PUSH1 0x40 MLOAD DUP1 SWAP2 SUB SWAP1 RETURN JUMPDEST CALLVALUE DUP1 ISZERO PUSH2 0x824 JUMPI PUSH0 DUP1 REVERT JUMPDEST POP PUSH2 0x82D PUSH2 0x161D JUMP JUMPDEST PUSH1 0x40 MLOAD PUSH2 0x83A SWAP2 SWAP1 PUSH2 0x46E8 JUMP JUMPDEST PUSH1 0x40 MLOAD DUP1 SWAP2 SUB SWAP1 RETURN JUMPDEST CALLVALUE DUP1 ISZERO PUSH2 0x84E JUMPI PUSH0 DUP1 REVERT JUMPDEST POP PUSH2 0x857 PUSH2 0x1623 JUMP JUMPDEST PUSH1 0x40 MLOAD PUSH2 0x864 SWAP2 SWAP1 PUSH2 0x46E8 JUMP JUMPDEST PUSH1 0x40 MLOAD DUP1 SWAP2 SUB SWAP1 RETURN JUMPDEST CALLVALUE DUP1 ISZERO PUSH2 0x878 JUMPI PUSH0 DUP1 REVERT JUMPDEST POP PUSH2 0x881 PUSH2 0x1629 JUMP JUMPDEST PUSH1 0x40 MLOAD PUSH2 0x88E SWAP2 SWAP1 PUSH2 0x48DA JUMP JUMPDEST PUSH1 0x40 MLOAD DUP1 SWAP2 SUB SWAP1 RETURN JUMPDEST CALLVALUE DUP1 ISZERO PUSH2 0x8A2 JUMPI PUSH0 DUP1 REVERT JUMPDEST POP PUSH2 0x8BD PUSH1 0x4 DUP1 CALLDATASIZE SUB DUP2 ADD SWAP1 PUSH2 0x8B8 SWAP2 SWAP1 PUSH2 0x476C JUMP JUMPDEST PUSH2 0x163D JUMP JUMPDEST STOP JUMPDEST CALLVALUE DUP1 ISZERO PUSH2 0x8CA JUMPI PUSH0 DUP1 REVERT JUMPDEST POP PUSH2 0x8D3 PUSH2 0x175F JUMP JUMPDEST PUSH1 0x40 MLOAD PUSH2 0x8E0 SWAP2 SWAP1 PUSH2 0x46E8 JUMP JUMPDEST PUSH1 0x40 MLOAD DUP1 SWAP2 SUB SWAP1 RETURN JUMPDEST CALLVALUE DUP1 ISZERO PUSH2 0x8F4 JUMPI PUSH0 DUP1 REVERT JUMPDEST POP PUSH2 0x90F PUSH1 0x4 DUP1 CALLDATASIZE SUB DUP2 ADD SWAP1 PUSH2 0x90A SWAP2 SWAP1 PUSH2 0x484D JUMP JUMPDEST PUSH2 0x1765 JUMP JUMPDEST PUSH1 0x40 MLOAD PUSH2 0x91D SWAP3 SWAP2 SWAP1 PUSH2 0x4963 JUMP JUMPDEST PUSH1 0x40 MLOAD DUP1 SWAP2 SUB SWAP1 RETURN JUMPDEST CALLVALUE DUP1 ISZERO PUSH2 0x931 JUMPI PUSH0 DUP1 REVERT JUMPDEST POP PUSH2 0x93A PUSH2 0x17C9 JUMP JUMPDEST STOP JUMPDEST CALLVALUE DUP1 ISZERO PUSH2 0x947 JUMPI PUSH0 DUP1 REVERT JUMPDEST POP PUSH2 0x950 PUSH2 0x17DC JUMP JUMPDEST PUSH1 0x40 MLOAD PUSH2 0x95D SWAP2 SWAP1 PUSH2 0x46E8 JUMP JUMPDEST PUSH1 0x40 MLOAD DUP1 SWAP2 SUB SWAP1 RETURN JUMPDEST CALLVALUE DUP1 ISZERO PUSH2 0x971 JUMPI PUSH0 DUP1 REVERT JUMPDEST POP PUSH2 0x97A PUSH2 0x17E2 JUMP JUMPDEST PUSH1 0x40 MLOAD PUSH2 0x987 SWAP2 SWAP1 PUSH2 0x46E8 JUMP JUMPDEST PUSH1 0x40 MLOAD DUP1 SWAP2 SUB SWAP1 RETURN JUMPDEST CALLVALUE DUP1 ISZERO PUSH2 0x99B JUMPI PUSH0 DUP1 REVERT JUMPDEST POP PUSH2 0x9A4 PUSH2 0x17E8 JUMP JUMPDEST PUSH1 0x40 MLOAD PUSH2 0x9B1 SWAP2 SWAP1 PUSH2 0x46E8 JUMP JUMPDEST PUSH1 0x40 MLOAD DUP1 SWAP2 SUB SWAP1 RETURN JUMPDEST CALLVALUE DUP1 ISZERO PUSH2 0x9C5 JUMPI PUSH0 DUP1 REVERT JUMPDEST POP PUSH2 0x9CE PUSH2 0x17EE JUMP JUMPDEST STOP JUMPDEST CALLVALUE DUP1 ISZERO PUSH2 0x9DB JUMPI PUSH0 DUP1 REVERT JUMPDEST POP PUSH2 0x9F6 PUSH1 0x4 DUP1 CALLDATASIZE SUB DUP2 ADD SWAP1 PUSH2 0x9F1 SWAP2 SWAP1 PUSH2 0x476C JUMP JUMPDEST PUSH2 0x1800 JUMP JUMPDEST PUSH1 0x40 MLOAD PUSH2 0xA03 SWAP2 SWAP1 PUSH2 0x46E8 JUMP JUMPDEST PUSH1 0x40 MLOAD DUP1 SWAP2 SUB SWAP1 RETURN JUMPDEST CALLVALUE DUP1 ISZERO PUSH2 0xA17 JUMPI PUSH0 DUP1 REVERT JUMPDEST POP PUSH2 0xA32 PUSH1 0x4 DUP1 CALLDATASIZE SUB DUP2 ADD SWAP1 PUSH2 0xA2D SWAP2 SWAP1 PUSH2 0x4991 JUMP JUMPDEST PUSH2 0x1815 JUMP JUMPDEST PUSH1 0x40 MLOAD PUSH2 0xA3F SWAP2 SWAP1 PUSH2 0x46E8 JUMP JUMPDEST PUSH1 0x40 MLOAD DUP1 SWAP2 SUB SWAP1 RETURN JUMPDEST CALLVALUE DUP1 ISZERO PUSH2 0xA53 JUMPI PUSH0 DUP1 REVERT JUMPDEST POP PUSH2 0xA6E PUSH1 0x4 DUP1 CALLDATASIZE SUB DUP2 ADD SWAP1 PUSH2 0xA69 SWAP2 SWAP1 PUSH2 0x4AF7 JUMP JUMPDEST PUSH2 0x1835 JUMP JUMPDEST STOP JUMPDEST CALLVALUE DUP1 ISZERO PUSH2 0xA7B JUMPI PUSH0 DUP1 REVERT JUMPDEST POP PUSH2 0xA84 PUSH2 0x1F0E JUMP JUMPDEST PUSH1 0x40 MLOAD PUSH2 0xA91 SWAP2 SWAP1 PUSH2 0x48A7 JUMP JUMPDEST PUSH1 0x40 MLOAD DUP1 SWAP2 SUB SWAP1 RETURN JUMPDEST CALLVALUE DUP1 ISZERO PUSH2 0xAA5 JUMPI PUSH0 DUP1 REVERT JUMPDEST POP PUSH2 0xAAE PUSH2 0x1F36 JUMP JUMPDEST PUSH1 0x40 MLOAD PUSH2 0xABB SWAP2 SWAP1 PUSH2 0x46E8 JUMP JUMPDEST PUSH1 0x40 MLOAD DUP1 SWAP2 SUB SWAP1 RETURN JUMPDEST CALLVALUE DUP1 ISZERO PUSH2 0xACF JUMPI PUSH0 DUP1 REVERT JUMPDEST POP PUSH2 0xAEA PUSH1 0x4 DUP1 CALLDATASIZE SUB DUP2 ADD SWAP1 PUSH2 0xAE5 SWAP2 SWAP1 PUSH2 0x4991 JUMP JUMPDEST PUSH2 0x1F3C JUMP JUMPDEST PUSH1 0x40 MLOAD PUSH2 0xAF7 SWAP2 SWAP1 PUSH2 0x46E8 JUMP JUMPDEST PUSH1 0x40 MLOAD DUP1 SWAP2 SUB SWAP1 RETURN JUMPDEST CALLVALUE DUP1 ISZERO PUSH2 0xB0B JUMPI PUSH0 DUP1 REVERT JUMPDEST POP PUSH2 0xB14 PUSH2 0x1F5C JUMP JUMPDEST PUSH1 0x40 MLOAD PUSH2 0xB21 SWAP2 SWAP1 PUSH2 0x46E8 JUMP JUMPDEST PUSH1 0x40 MLOAD DUP1 SWAP2 SUB SWAP1 RETURN JUMPDEST CALLVALUE DUP1 ISZERO PUSH2 0xB35 JUMPI PUSH0 DUP1 REVERT JUMPDEST POP PUSH2 0xB50 PUSH1 0x4 DUP1 CALLDATASIZE SUB DUP2 ADD SWAP1 PUSH2 0xB4B SWAP2 SWAP1 PUSH2 0x476C JUMP JUMPDEST PUSH2 0x1F62 JUMP JUMPDEST PUSH1 0x40 MLOAD PUSH2 0xB5D SWAP2 SWAP1 PUSH2 0x46E8 JUMP JUMPDEST PUSH1 0x40 MLOAD DUP1 SWAP2 SUB SWAP1 RETURN JUMPDEST CALLVALUE DUP1 ISZERO PUSH2 0xB71 JUMPI PUSH0 DUP1 REVERT JUMPDEST POP PUSH2 0xB7A PUSH2 0x1F77 JUMP JUMPDEST PUSH1 0x40 MLOAD PUSH2 0xB87 SWAP2 SWAP1 PUSH2 0x48DA JUMP JUMPDEST PUSH1 0x40 MLOAD DUP1 SWAP2 SUB SWAP1 RETURN JUMPDEST CALLVALUE DUP1 ISZERO PUSH2 0xB9B JUMPI PUSH0 DUP1 REVERT JUMPDEST POP PUSH2 0xBB6 PUSH1 0x4 DUP1 CALLDATASIZE SUB DUP2 ADD SWAP1 PUSH2 0xBB1 SWAP2 SWAP1 PUSH2 0x47C1 JUMP JUMPDEST PUSH2 0x23E3 JUMP JUMPDEST PUSH1 0x40 MLOAD PUSH2 0xBC3 SWAP2 SWAP1 PUSH2 0x46E8 JUMP JUMPDEST PUSH1 0x40 MLOAD DUP1 SWAP2 SUB SWAP1 RETURN JUMPDEST CALLVALUE DUP1 ISZERO PUSH2 0xBD7 JUMPI PUSH0 DUP1 REVERT JUMPDEST POP PUSH2 0xBE0 PUSH2 0x240F JUMP JUMPDEST PUSH1 0x40 MLOAD PUSH2 0xBED SWAP2 SWAP1 PUSH2 0x46E8 JUMP JUMPDEST PUSH1 0x40 MLOAD DUP1 SWAP2 SUB SWAP1 RETURN JUMPDEST CALLVALUE DUP1 ISZERO PUSH2 0xC01 JUMPI PUSH0 DUP1 REVERT JUMPDEST POP PUSH2 0xC0A PUSH2 0x2415 JUMP JUMPDEST PUSH1 0x40 MLOAD PUSH2 0xC17 SWAP2 SWAP1 PUSH2 0x48DA JUMP JUMPDEST PUSH1 0x40 MLOAD DUP1 SWAP2 SUB SWAP1 RETURN JUMPDEST CALLVALUE DUP1 ISZERO PUSH2 0xC2B JUMPI PUSH0 DUP1 REVERT JUMPDEST POP PUSH2 0xC34 PUSH2 0x26AD JUMP JUMPDEST PUSH1 0x40 MLOAD PUSH2 0xC41 SWAP2 SWAP1 PUSH2 0x46E8 JUMP JUMPDEST PUSH1 0x40 MLOAD DUP1 SWAP2 SUB SWAP1 RETURN JUMPDEST CALLVALUE DUP1 ISZERO PUSH2 0xC55 JUMPI PUSH0 DUP1 REVERT JUMPDEST POP PUSH2 0xC5E PUSH2 0x26B3 JUMP JUMPDEST PUSH1 0x40 MLOAD PUSH2 0xC6B SWAP2 SWAP1 PUSH2 0x46E8 JUMP JUMPDEST PUSH1 0x40 MLOAD DUP1 SWAP2 SUB SWAP1 RETURN JUMPDEST CALLVALUE DUP1 ISZERO PUSH2 0xC7F JUMPI PUSH0 DUP1 REVERT JUMPDEST POP PUSH2 0xC9A PUSH1 0x4 DUP1 CALLDATASIZE SUB DUP2 ADD SWAP1 PUSH2 0xC95 SWAP2 SWAP1 PUSH2 0x4991 JUMP JUMPDEST PUSH2 0x26B9 JUMP JUMPDEST PUSH1 0x40 MLOAD PUSH2 0xCAA SWAP5 SWAP4 SWAP3 SWAP2 SWAP1 PUSH2 0x4B63 JUMP JUMPDEST PUSH1 0x40 MLOAD DUP1 SWAP2 SUB SWAP1 RETURN JUMPDEST CALLVALUE DUP1 ISZERO PUSH2 0xCBE JUMPI PUSH0 DUP1 REVERT JUMPDEST POP PUSH2 0xCD9 PUSH1 0x4 DUP1 CALLDATASIZE SUB DUP2 ADD SWAP1 PUSH2 0xCD4 SWAP2 SWAP1 PUSH2 0x4BA6 JUMP JUMPDEST PUSH2 0x26F0 JUMP JUMPDEST PUSH1 0x40 MLOAD PUSH2 0xCE6 SWAP2 SWAP1 PUSH2 0x48A7 JUMP JUMPDEST PUSH1 0x40 MLOAD DUP1 SWAP2 SUB SWAP1 RETURN JUMPDEST CALLVALUE DUP1 ISZERO PUSH2 0xCFA JUMPI PUSH0 DUP1 REVERT JUMPDEST POP PUSH2 0xD15 PUSH1 0x4 DUP1 CALLDATASIZE SUB DUP2 ADD SWAP1 PUSH2 0xD10 SWAP2 SWAP1 PUSH2 0x476C JUMP JUMPDEST PUSH2 0x2738 JUMP JUMPDEST PUSH1 0x40 MLOAD PUSH2 0xD22 SWAP2 SWAP1 PUSH2 0x46E8 JUMP JUMPDEST PUSH1 0x40 MLOAD DUP1 SWAP2 SUB SWAP1 RETURN JUMPDEST CALLVALUE DUP1 ISZERO PUSH2 0xD36 JUMPI PUSH0 DUP1 REVERT JUMPDEST POP PUSH2 0xD51 PUSH1 0x4 DUP1 CALLDATASIZE SUB DUP2 ADD SWAP1 PUSH2 0xD4C SWAP2 SWAP1 PUSH2 0x476C JUMP JUMPDEST PUSH2 0x274D JUMP JUMPDEST PUSH1 0x40 MLOAD PUSH2 0xD5E SWAP2 SWAP1 PUSH2 0x46E8 JUMP JUMPDEST PUSH1 0x40 MLOAD DUP1 SWAP2 SUB SWAP1 RETURN JUMPDEST CALLVALUE DUP1 ISZERO PUSH2 0xD72 JUMPI PUSH0 DUP1 REVERT JUMPDEST POP PUSH2 0xD8D PUSH1 0x4 DUP1 CALLDATASIZE SUB DUP2 ADD SWAP1 PUSH2 0xD88 SWAP2 SWAP1 PUSH2 0x4991 JUMP JUMPDEST PUSH2 0x2762 JUMP JUMPDEST PUSH1 0x40 MLOAD PUSH2 0xD9A SWAP2 SWAP1 PUSH2 0x46E8 JUMP JUMPDEST PUSH1 0x40 MLOAD DUP1 SWAP2 SUB SWAP1 RETURN JUMPDEST CALLVALUE DUP1 ISZERO PUSH2 0xDAE JUMPI PUSH0 DUP1 REVERT JUMPDEST POP PUSH2 0xDB7 PUSH2 0x2782 JUMP JUMPDEST PUSH1 0x40 MLOAD PUSH2 0xDC4 SWAP2 SWAP1 PUSH2 0x46E8 JUMP JUMPDEST PUSH1 0x40 MLOAD DUP1 SWAP2 SUB SWAP1 RETURN JUMPDEST CALLVALUE DUP1 ISZERO PUSH2 0xDD8 JUMPI PUSH0 DUP1 REVERT JUMPDEST POP PUSH2 0xDF3 PUSH1 0x4 DUP1 CALLDATASIZE SUB DUP2 ADD SWAP1 PUSH2 0xDEE SWAP2 SWAP1 PUSH2 0x476C JUMP JUMPDEST PUSH2 0x2788 JUMP JUMPDEST PUSH1 0x40 MLOAD PUSH2 0xE00 SWAP2 SWAP1 PUSH2 0x46E8 JUMP JUMPDEST PUSH1 0x40 MLOAD DUP1 SWAP2 SUB SWAP1 RETURN JUMPDEST CALLVALUE DUP1 ISZERO PUSH2 0xE14 JUMPI PUSH0 DUP1 REVERT JUMPDEST POP PUSH2 0xE2F PUSH1 0x4 DUP1 CALLDATASIZE SUB DUP2 ADD SWAP1 PUSH2 0xE2A SWAP2 SWAP1 PUSH2 0x4991 JUMP JUMPDEST PUSH2 0x279D JUMP JUMPDEST PUSH1 0x40 MLOAD PUSH2 0xE3F SWAP5 SWAP4 SWAP3 SWAP2 SWAP1 PUSH2 0x4B63 JUMP JUMPDEST PUSH1 0x40 MLOAD DUP1 SWAP2 SUB SWAP1 RETURN JUMPDEST CALLVALUE DUP1 ISZERO PUSH2 0xE53 JUMPI PUSH0 DUP1 REVERT JUMPDEST POP PUSH2 0xE5C PUSH2 0x27D4 JUMP JUMPDEST PUSH1 0x40 MLOAD PUSH2 0xE69 SWAP2 SWAP1 PUSH2 0x46E8 JUMP JUMPDEST PUSH1 0x40 MLOAD DUP1 SWAP2 SUB SWAP1 RETURN JUMPDEST CALLVALUE DUP1 ISZERO PUSH2 0xE7D JUMPI PUSH0 DUP1 REVERT JUMPDEST POP PUSH2 0xE98 PUSH1 0x4 DUP1 CALLDATASIZE SUB DUP2 ADD SWAP1 PUSH2 0xE93 SWAP2 SWAP1 PUSH2 0x476C JUMP JUMPDEST PUSH2 0x2800 JUMP JUMPDEST PUSH1 0x40 MLOAD PUSH2 0xEA5 SWAP2 SWAP1 PUSH2 0x48DA JUMP JUMPDEST PUSH1 0x40 MLOAD DUP1 SWAP2 SUB SWAP1 RETURN JUMPDEST CALLVALUE DUP1 ISZERO PUSH2 0xEB9 JUMPI PUSH0 DUP1 REVERT JUMPDEST POP PUSH2 0xEC2 PUSH2 0x281D JUMP JUMPDEST PUSH1 0x40 MLOAD PUSH2 0xECF SWAP2 SWAP1 PUSH2 0x46E8 JUMP JUMPDEST PUSH1 0x40 MLOAD DUP1 SWAP2 SUB SWAP1 RETURN JUMPDEST CALLVALUE DUP1 ISZERO PUSH2 0xEE3 JUMPI PUSH0 DUP1 REVERT JUMPDEST POP PUSH2 0xEFE PUSH1 0x4 DUP1 CALLDATASIZE SUB DUP2 ADD SWAP1 PUSH2 0xEF9 SWAP2 SWAP1 PUSH2 0x476C JUMP JUMPDEST PUSH2 0x2823 JUMP JUMPDEST STOP JUMPDEST CALLVALUE DUP1 ISZERO PUSH2 0xF0B JUMPI PUSH0 DUP1 REVERT JUMPDEST POP PUSH2 0xF14 PUSH2 0x28A7 JUMP JUMPDEST PUSH1 0x40 MLOAD PUSH2 0xF21 SWAP2 SWAP1 PUSH2 0x46E8 JUMP JUMPDEST PUSH1 0x40 MLOAD DUP1 SWAP2 SUB SWAP1 RETURN JUMPDEST CALLVALUE DUP1 ISZERO PUSH2 0xF35 JUMPI PUSH0 DUP1 REVERT JUMPDEST POP PUSH2 0xF50 PUSH1 0x4 DUP1 CALLDATASIZE SUB DUP2 ADD SWAP1 PUSH2 0xF4B SWAP2 SWAP1 PUSH2 0x476C JUMP JUMPDEST PUSH2 0x28AD JUMP JUMPDEST PUSH1 0x40 MLOAD PUSH2 0xF5D SWAP2 SWAP1 PUSH2 0x46E8 JUMP JUMPDEST PUSH1 0x40 MLOAD DUP1 SWAP2 SUB SWAP1 RETURN JUMPDEST CALLVALUE DUP1 ISZERO PUSH2 0xF71 JUMPI PUSH0 DUP1 REVERT JUMPDEST POP PUSH2 0xF7A PUSH2 0x28C2 JUMP JUMPDEST PUSH1 0x40 MLOAD PUSH2 0xF87 SWAP2 SWAP1 PUSH2 0x4C48 JUMP JUMPDEST PUSH1 0x40 MLOAD DUP1 SWAP2 SUB SWAP1 RETURN JUMPDEST CALLVALUE DUP1 ISZERO PUSH2 0xF9B JUMPI PUSH0 DUP1 REVERT JUMPDEST POP PUSH2 0xFA4 PUSH2 0x28E7 JUMP JUMPDEST PUSH1 0x40 MLOAD PUSH2 0xFB1 SWAP2 SWAP1 PUSH2 0x46E8 JUMP JUMPDEST PUSH1 0x40 MLOAD DUP1 SWAP2 SUB SWAP1 RETURN JUMPDEST PUSH1 0x14 SLOAD DUP2 JUMP JUMPDEST PUSH1 0x19 SLOAD DUP2 JUMP JUMPDEST PUSH1 0x20 SLOAD DUP2 JUMP JUMPDEST PUSH1 0x7 SLOAD DUP2 JUMP JUMPDEST PUSH1 0x8 SLOAD DUP2 JUMP JUMPDEST PUSH1 0x3 SLOAD DUP2 JUMP JUMPDEST PUSH1 0x29 PUSH1 0x20 MSTORE DUP1 PUSH0 MSTORE PUSH1 0x40 PUSH0 KECCAK256 PUSH0 SWAP2 POP SWAP1 POP SLOAD DUP2 JUMP JUMPDEST PUSH0 PUSH1 0x35 PUSH0 DUP4 PUSH20 0xFFFFFFFFFFFFFFFFFFFFFFFFFFFFFFFFFFFFFFFF AND PUSH20 0xFFFFFFFFFFFFFFFFFFFFFFFFFFFFFFFFFFFFFFFF AND DUP2 MSTORE PUSH1 0x20 ADD SWAP1 DUP2 MSTORE PUSH1 0x20 ADD PUSH0 KECCAK256 SLOAD SWAP1 POP SWAP2 SWAP1 POP JUMP JUMPDEST PUSH1 0x12 PUSH1 0x20 MSTORE DUP1 PUSH0 MSTORE PUSH1 0x40 PUSH0 KECCAK256 PUSH0 SWAP2 POP SWAP1 POP SLOAD DUP2 JUMP JUMPDEST PUSH1 0x16 PUSH1 0x20 MSTORE DUP1 PUSH0 MSTORE PUSH1 0x40 PUSH0 KECCAK256 PUSH0 SWAP2 POP SWAP1 POP SLOAD DUP2 JUMP JUMPDEST PUSH2 0x106B PUSH2 0x28ED JUMP JUMPDEST PUSH0 DUP2 SUB PUSH2 0x10AD JUMPI PUSH1 0x40 MLOAD PUSH32 0x8C379A000000000000000000000000000000000000000000000000000000000 DUP2 MSTORE PUSH1 0x4 ADD PUSH2 0x10A4 SWAP1 PUSH2 0x4CBB JUMP JUMPDEST PUSH1 0x40 MLOAD DUP1 SWAP2 SUB SWAP1 REVERT JUMPDEST DUP1 PUSH1 0x16 PUSH0 CALLER PUSH20 0xFFFFFFFFFFFFFFFFFFFFFFFFFFFFFFFFFFFFFFFF AND PUSH20 0xFFFFFFFFFFFFFFFFFFFFFFFFFFFFFFFFFFFFFFFF AND DUP2 MSTORE PUSH1 0x20 ADD SWAP1 DUP2 MSTORE PUSH1 0x20 ADD PUSH0 KECCAK256 SLOAD LT ISZERO PUSH2 0x112D JUMPI PUSH1 0x40 MLOAD PUSH32 0x8C379A000000000000000000000000000000000000000000000000000000000 DUP2 MSTORE PUSH1 0x4 ADD PUSH2 0x1124 SWAP1 PUSH2 0x4D49 JUMP JUMPDEST PUSH1 0x40 MLOAD DUP1 SWAP2 SUB SWAP1 REVERT JUMPDEST PUSH0 PUSH2 0x2710 PUSH1 0x18 SLOAD DUP4 PUSH2 0x113F SWAP2 SWAP1 PUSH2 0x4D94 JUMP JUMPDEST PUSH2 0x1149 SWAP2 SWAP1 PUSH2 0x4E02 JUMP JUMPDEST SWAP1 POP PUSH0 PUSH20 0xFFFFFFFFFFFFFFFFFFFFFFFFFFFFFFFFFFFFFFFF AND PUSH1 0x23 PUSH0 CALLER PUSH20 0xFFFFFFFFFFFFFFFFFFFFFFFFFFFFFFFFFFFFFFFF AND PUSH20 0xFFFFFFFFFFFFFFFFFFFFFFFFFFFFFFFFFFFFFFFF AND DUP2 MSTORE PUSH1 0x20 ADD SWAP1 DUP2 MSTORE PUSH1 0x20 ADD PUSH0 KECCAK256 PUSH0 SWAP1 SLOAD SWAP1 PUSH2 0x100 EXP SWAP1 DIV PUSH20 0xFFFFFFFFFFFFFFFFFFFFFFFFFFFFFFFFFFFFFFFF AND PUSH20 0xFFFFFFFFFFFFFFFFFFFFFFFFFFFFFFFFFFFFFFFF AND EQ PUSH2 0x1203 JUMPI PUSH2 0x2710 PUSH1 0x19 SLOAD DUP3 PUSH2 0x11EB SWAP2 SWAP1 PUSH2 0x4D94 JUMP JUMPDEST PUSH2 0x11F5 SWAP2 SWAP1 PUSH2 0x4E02 JUMP JUMPDEST SWAP1 POP PUSH2 0x1201 CALLER DUP4 PUSH2 0x2937 JUMP JUMPDEST POP JUMPDEST DUP2 PUSH1 0x16 PUSH0 CALLER PUSH20 0xFFFFFFFFFFFFFFFFFFFFFFFFFFFFFFFFFFFFFFFF AND PUSH20 0xFFFFFFFFFFFFFFFFFFFFFFFFFFFFFFFFFFFFFFFF AND DUP2 MSTORE PUSH1 0x20 ADD SWAP1 DUP2 MSTORE PUSH1 0x20 ADD PUSH0 KECCAK256 PUSH0 DUP3 DUP3 SLOAD PUSH2 0x124F SWAP2 SWAP1 PUSH2 0x4E32 JUMP JUMPDEST SWAP3 POP POP DUP2 SWAP1 SSTORE POP DUP2 PUSH1 0x13 PUSH0 DUP3 DUP3 SLOAD PUSH2 0x1267 SWAP2 SWAP1 PUSH2 0x4E32 JUMP JUMPDEST SWAP3 POP POP DUP2 SWAP1 SSTORE POP PUSH0 PUSH1 0x16 PUSH0 CALLER PUSH20 0xFFFFFFFFFFFFFFFFFFFFFFFFFFFFFFFFFFFFFFFF AND PUSH20 0xFFFFFFFFFFFFFFFFFFFFFFFFFFFFFFFFFFFFFFFF AND DUP2 MSTORE PUSH1 0x20 ADD SWAP1 DUP2 MSTORE PUSH1 0x20 ADD PUSH0 KECCAK256 SLOAD SUB PUSH2 0x12C8 JUMPI PUSH2 0x12C6 CALLER PUSH1 0x4 PUSH2 0x2C9D SWAP1 SWAP2 SWAP1 PUSH4 0xFFFFFFFF AND JUMP JUMPDEST POP JUMPDEST PUSH1 0x2 PUSH0 SWAP1 SLOAD SWAP1 PUSH2 0x100 EXP SWAP1 DIV PUSH20 0xFFFFFFFFFFFFFFFFFFFFFFFFFFFFFFFFFFFFFFFF AND PUSH20 0xFFFFFFFFFFFFFFFFFFFFFFFFFFFFFFFFFFFFFFFF AND PUSH4 0xA9059CBB CALLER DUP4 DUP6 PUSH2 0x1312 SWAP2 SWAP1 PUSH2 0x4E32 JUMP JUMPDEST PUSH1 0x40 MLOAD DUP4 PUSH4 0xFFFFFFFF AND PUSH1 0xE0 SHL DUP2 MSTORE PUSH1 0x4 ADD PUSH2 0x132F SWAP3 SWAP2 SWAP1 PUSH2 0x4E65 JUMP JUMPDEST PUSH1 0x20 PUSH1 0x40 MLOAD DUP1 DUP4 SUB DUP2 PUSH0 DUP8 GAS CALL ISZERO DUP1 ISZERO PUSH2 0x134B JUMPI RETURNDATASIZE PUSH0 DUP1 RETURNDATACOPY RETURNDATASIZE PUSH0 REVERT JUMPDEST POP POP POP POP PUSH1 0x40 MLOAD RETURNDATASIZE PUSH1 0x1F NOT PUSH1 0x1F DUP3 ADD AND DUP3 ADD DUP1 PUSH1 0x40 MSTORE POP DUP2 ADD SWAP1 PUSH2 0x136F SWAP2 SWAP1 PUSH2 0x4EB6 JUMP JUMPDEST POP PUSH1 0x2 PUSH0 SWAP1 SLOAD SWAP1 PUSH2 0x100 EXP SWAP1 DIV PUSH20 0xFFFFFFFFFFFFFFFFFFFFFFFFFFFFFFFFFFFFFFFF AND PUSH20 0xFFFFFFFFFFFFFFFFFFFFFFFFFFFFFFFFFFFFFFFF AND PUSH4 0xA9059CBB PUSH1 0x6 PUSH0 SWAP1 SLOAD SWAP1 PUSH2 0x100 EXP SWAP1 DIV PUSH20 0xFFFFFFFFFFFFFFFFFFFFFFFFFFFFFFFFFFFFFFFF AND DUP4 PUSH1 0x40 MLOAD DUP4 PUSH4 0xFFFFFFFF AND PUSH1 0xE0 SHL DUP2 MSTORE PUSH1 0x4 ADD PUSH2 0x13ED SWAP3 SWAP2 SWAP1 PUSH2 0x4E65 JUMP JUMPDEST PUSH1 0x20 PUSH1 0x40 MLOAD DUP1 DUP4 SUB DUP2 PUSH0 DUP8 GAS CALL ISZERO DUP1 ISZERO PUSH2 0x1409 JUMPI RETURNDATASIZE PUSH0 DUP1 RETURNDATACOPY RETURNDATASIZE PUSH0 REVERT JUMPDEST POP POP POP POP PUSH1 0x40 MLOAD RETURNDATASIZE PUSH1 0x1F NOT PUSH1 0x1F DUP3 ADD AND DUP3 ADD DUP1 PUSH1 0x40 MSTORE POP DUP2 ADD SWAP1 PUSH2 0x142D SWAP2 SWAP1 PUSH2 0x4EB6 JUMP JUMPDEST POP TIMESTAMP PUSH1 0x17 PUSH0 CALLER PUSH20 0xFFFFFFFFFFFFFFFFFFFFFFFFFFFFFFFFFFFFFFFF AND PUSH20 0xFFFFFFFFFFFFFFFFFFFFFFFFFFFFFFFFFFFFFFFF AND DUP2 MSTORE PUSH1 0x20 ADD SWAP1 DUP2 MSTORE PUSH1 0x20 ADD PUSH0 KECCAK256 DUP2 SWAP1 SSTORE POP CALLER PUSH20 0xFFFFFFFFFFFFFFFFFFFFFFFFFFFFFFFFFFFFFFFF AND PUSH32 0xF0CBD610BBE2D876DDBB80EEE79A670E6F054752BE0D72FC614A1A863D3024DC DUP4 TIMESTAMP PUSH1 0x40 MLOAD PUSH2 0x14B8 SWAP3 SWAP2 SWAP1 PUSH2 0x4EE1 JUMP JUMPDEST PUSH1 0x40 MLOAD DUP1 SWAP2 SUB SWAP1 LOG2 POP POP JUMP JUMPDEST PUSH1 0x2B PUSH1 0x20 MSTORE DUP1 PUSH0 MSTORE PUSH1 0x40 PUSH0 KECCAK256 PUSH0 SWAP2 POP SWAP1 POP SLOAD DUP2 JUMP JUMPDEST PUSH1 0x17 PUSH1 0x20 MSTORE DUP1 PUSH0 MSTORE PUSH1 0x40 PUSH0 KECCAK256 PUSH0 SWAP2 POP SWAP1 POP SLOAD DUP2 JUMP JUMPDEST PUSH3 0x278D00 DUP2 JUMP JUMPDEST PUSH1 0x11 PUSH1 0x20 MSTORE DUP1 PUSH0 MSTORE PUSH1 0x40 PUSH0 KECCAK256 PUSH0 SWAP2 POP SWAP1 POP SLOAD DUP2 JUMP JUMPDEST PUSH1 0x22 PUSH1 0x20 MSTORE DUP1 PUSH0 MSTORE PUSH1 0x40 PUSH0 KECCAK256 PUSH0 SWAP2 POP SWAP1 POP SLOAD DUP2 JUMP JUMPDEST PUSH2 0x1527 PUSH2 0x2CCA JUMP JUMPDEST PUSH2 0x152F PUSH2 0x2D51 JUMP JUMPDEST JUMP JUMPDEST PUSH1 0x32 SLOAD PUSH1 0x31 SLOAD TIMESTAMP PUSH2 0x1542 SWAP2 SWAP1 PUSH2 0x4E32 JUMP JUMPDEST GT PUSH2 0x1582 JUMPI PUSH1 0x40 MLOAD PUSH32 0x8C379A000000000000000000000000000000000000000000000000000000000 DUP2 MSTORE PUSH1 0x4 ADD PUSH2 0x1579 SWAP1 PUSH2 0x4F52 JUMP JUMPDEST PUSH1 0x40 MLOAD DUP1 SWAP2 SUB SWAP1 REVERT JUMPDEST PUSH2 0x158A PUSH2 0x2DB1 JUMP JUMPDEST PUSH2 0x1592 PUSH2 0x2DF3 JUMP JUMPDEST POP POP JUMP JUMPDEST PUSH1 0x6 PUSH0 SWAP1 SLOAD SWAP1 PUSH2 0x100 EXP SWAP1 DIV PUSH20 0xFFFFFFFFFFFFFFFFFFFFFFFFFFFFFFFFFFFFFFFF AND DUP2 JUMP JUMPDEST PUSH1 0x35 PUSH1 0x20 MSTORE DUP1 PUSH0 MSTORE PUSH1 0x40 PUSH0 KECCAK256 PUSH0 SWAP2 POP SWAP1 POP SLOAD DUP2 JUMP JUMPDEST PUSH1 0x23 PUSH1 0x20 MSTORE DUP1 PUSH0 MSTORE PUSH1 0x40 PUSH0 KECCAK256 PUSH0 SWAP2 POP SLOAD SWAP1 PUSH2 0x100 EXP SWAP1 DIV PUSH20 0xFFFFFFFFFFFFFFFFFFFFFFFFFFFFFFFFFFFFFFFF AND DUP2 JUMP JUMPDEST PUSH1 0x30 PUSH1 0x20 MSTORE DUP1 PUSH0 MSTORE PUSH1 0x40 PUSH0 KECCAK256 PUSH0 SWAP2 POP SLOAD SWAP1 PUSH2 0x100 EXP SWAP1 DIV PUSH1 0xFF AND DUP2 JUMP JUMPDEST PUSH1 0x2D SLOAD DUP2 JUMP JUMPDEST PUSH1 0x1D SLOAD DUP2 JUMP JUMPDEST PUSH0 DUP1 PUSH0 SWAP1 SLOAD SWAP1 PUSH2 0x100 EXP SWAP1 DIV PUSH1 0xFF AND SWAP1 POP SWAP1 JUMP JUMPDEST PUSH2 0x1645 PUSH2 0x2CCA JUMP JUMPDEST PUSH0 PUSH20 0xFFFFFFFFFFFFFFFFFFFFFFFFFFFFFFFFFFFFFFFF AND DUP2 PUSH20 0xFFFFFFFFFFFFFFFFFFFFFFFFFFFFFFFFFFFFFFFF AND SUB PUSH2 0x16B3 JUMPI PUSH1 0x40 MLOAD PUSH32 0x8C379A000000000000000000000000000000000000000000000000000000000 DUP2 MSTORE PUSH1 0x4 ADD PUSH2 0x16AA SWAP1 PUSH2 0x4FBA JUMP JUMPDEST PUSH1 0x40 MLOAD DUP1 SWAP2 SUB SWAP1 REVERT JUMPDEST PUSH0 DUP2 PUSH20 0xFFFFFFFFFFFFFFFFFFFFFFFFFFFFFFFFFFFFFFFF AND SELFBALANCE PUSH1 0x40 MLOAD PUSH2 0x16D8 SWAP1 PUSH2 0x5005 JUMP JUMPDEST PUSH0 PUSH1 0x40 MLOAD DUP1 DUP4 SUB DUP2 DUP6 DUP8 GAS CALL SWAP3 POP POP POP RETURNDATASIZE DUP1 PUSH0 DUP2 EQ PUSH2 0x1712 JUMPI PUSH1 0x40 MLOAD SWAP2 POP PUSH1 0x1F NOT PUSH1 0x3F RETURNDATASIZE ADD AND DUP3 ADD PUSH1 0x40 MSTORE RETURNDATASIZE DUP3 MSTORE RETURNDATASIZE PUSH0 PUSH1 0x20 DUP5 ADD RETURNDATACOPY PUSH2 0x1717 JUMP JUMPDEST PUSH1 0x60 SWAP2 POP JUMPDEST POP POP SWAP1 POP DUP1 PUSH2 0x175B JUMPI PUSH1 0x40 MLOAD PUSH32 0x8C379A000000000000000000000000000000000000000000000000000000000 DUP2 MSTORE PUSH1 0x4 ADD PUSH2 0x1752 SWAP1 PUSH2 0x5063 JUMP JUMPDEST PUSH1 0x40 MLOAD DUP1 SWAP2 SUB SWAP1 REVERT JUMPDEST POP POP JUMP JUMPDEST PUSH1 0x31 SLOAD DUP2 JUMP JUMPDEST PUSH0 PUSH1 0x60 PUSH1 0x32 SLOAD PUSH1 0x31 SLOAD TIMESTAMP PUSH2 0x1779 SWAP2 SWAP1 PUSH2 0x4E32 JUMP JUMPDEST GT SWAP2 POP DUP4 DUP4 DUP1 DUP1 PUSH1 0x1F ADD PUSH1 0x20 DUP1 SWAP2 DIV MUL PUSH1 0x20 ADD PUSH1 0x40 MLOAD SWAP1 DUP2 ADD PUSH1 0x40 MSTORE DUP1 SWAP4 SWAP3 SWAP2 SWAP1 DUP2 DUP2 MSTORE PUSH1 0x20 ADD DUP4 DUP4 DUP1 DUP3 DUP5 CALLDATACOPY PUSH0 DUP2 DUP5 ADD MSTORE PUSH1 0x1F NOT PUSH1 0x1F DUP3 ADD AND SWAP1 POP DUP1 DUP4 ADD SWAP3 POP POP POP POP POP POP POP SWAP1 POP SWAP3 POP SWAP3 SWAP1 POP JUMP JUMPDEST PUSH2 0x17D1 PUSH2 0x2CCA JUMP JUMPDEST PUSH2 0x17DA PUSH0 PUSH2 0x2E71 JUMP JUMPDEST JUMP JUMPDEST PUSH1 0x1B SLOAD DUP2 JUMP JUMPDEST PUSH1 0x1F SLOAD DUP2 JUMP JUMPDEST PUSH1 0x13 SLOAD DUP2 JUMP JUMPDEST PUSH2 0x17F6 PUSH2 0x2CCA JUMP JUMPDEST PUSH2 0x17FE PUSH2 0x2F34 JUMP JUMPDEST JUMP JUMPDEST PUSH1 0x2C PUSH1 0x20 MSTORE DUP1 PUSH0 MSTORE PUSH1 0x40 PUSH0 KECCAK256 PUSH0 SWAP2 POP SWAP1 POP SLOAD DUP2 JUMP JUMPDEST PUSH1 0x26 PUSH1 0x20 MSTORE DUP2 PUSH0 MSTORE PUSH1 0x40 PUSH0 KECCAK256 PUSH1 0x20 MSTORE DUP1 PUSH0 MSTORE PUSH1 0x40 PUSH0 KECCAK256 PUSH0 SWAP2 POP SWAP2 POP POP SLOAD DUP2 JUMP JUMPDEST PUSH2 0x183D PUSH2 0x28ED JUMP JUMPDEST PUSH0 DUP4 SUB PUSH2 0x187F JUMPI PUSH1 0x40 MLOAD PUSH32 0x8C379A000000000000000000000000000000000000000000000000000000000 DUP2 MSTORE PUSH1 0x4 ADD PUSH2 0x1876 SWAP1 PUSH2 0x4CBB JUMP JUMPDEST PUSH1 0x40 MLOAD DUP1 SWAP2 SUB SWAP1 REVERT JUMPDEST PUSH0 PUSH20 0xFFFFFFFFFFFFFFFFFFFFFFFFFFFFFFFFFFFFFFFF AND DUP3 PUSH20 0xFFFFFFFFFFFFFFFFFFFFFFFFFFFFFFFFFFFFFFFF AND EQ ISZERO DUP1 ISZERO PUSH2 0x18C0 JUMPI POP PUSH2 0x18BF DUP2 PUSH2 0x2F95 JUMP JUMPDEST JUMPDEST ISZERO PUSH2 0x1950 JUMPI PUSH1 0x30 PUSH0 CALLER PUSH20 0xFFFFFFFFFFFFFFFFFFFFFFFFFFFFFFFFFFFFFFFF AND PUSH20 0xFFFFFFFFFFFFFFFFFFFFFFFFFFFFFFFFFFFFFFFF AND DUP2 MSTORE PUSH1 0x20 ADD SWAP1 DUP2 MSTORE PUSH1 0x20 ADD PUSH0 KECCAK256 PUSH0 SWAP1 SLOAD SWAP1 PUSH2 0x100 EXP SWAP1 DIV PUSH1 0xFF AND ISZERO PUSH2 0x194F JUMPI PUSH1 0x40 MLOAD PUSH32 0x8C379A000000000000000000000000000000000000000000000000000000000 DUP2 MSTORE PUSH1 0x4 ADD PUSH2 0x1946 SWAP1 PUSH2 0x50CB JUMP JUMPDEST PUSH1 0x40 MLOAD DUP1 SWAP2 SUB SWAP1 REVERT JUMPDEST JUMPDEST PUSH0 PUSH20 0xFFFFFFFFFFFFFFFFFFFFFFFFFFFFFFFFFFFFFFFF AND DUP3 PUSH20 0xFFFFFFFFFFFFFFFFFFFFFFFFFFFFFFFFFFFFFFFF AND EQ ISZERO DUP1 ISZERO PUSH2 0x19D3 JUMPI POP PUSH1 0x2F PUSH0 DUP4 PUSH20 0xFFFFFFFFFFFFFFFFFFFFFFFFFFFFFFFFFFFFFFFF AND PUSH20 0xFFFFFFFFFFFFFFFFFFFFFFFFFFFFFFFFFFFFFFFF AND DUP2 MSTORE PUSH1 0x20 ADD SWAP1 DUP2 MSTORE PUSH1 0x20 ADD PUSH0 KECCAK256 PUSH0 SWAP1 SLOAD SWAP1 PUSH2 0x100 EXP SWAP1 DIV PUSH1 0xFF AND ISZERO JUMPDEST ISZERO PUSH2 0x19E4 JUMPI PUSH2 0x19E2 DUP3 DUP3 PUSH2 0x302A JUMP JUMPDEST POP JUMPDEST CALLER PUSH20 0xFFFFFFFFFFFFFFFFFFFFFFFFFFFFFFFFFFFFFFFF AND PUSH1 0x2E DUP3 PUSH1 0x40 MLOAD PUSH2 0x1A0B SWAP2 SWAP1 PUSH2 0x512D JUMP JUMPDEST SWAP1 DUP2 MSTORE PUSH1 0x20 ADD PUSH1 0x40 MLOAD DUP1 SWAP2 SUB SWAP1 KECCAK256 PUSH0 SWAP1 SLOAD SWAP1 PUSH2 0x100 EXP SWAP1 DIV PUSH20 0xFFFFFFFFFFFFFFFFFFFFFFFFFFFFFFFFFFFFFFFF AND PUSH20 0xFFFFFFFFFFFFFFFFFFFFFFFFFFFFFFFFFFFFFFFF AND SUB PUSH2 0x1A8F JUMPI PUSH1 0x40 MLOAD PUSH32 0x8C379A000000000000000000000000000000000000000000000000000000000 DUP2 MSTORE PUSH1 0x4 ADD PUSH2 0x1A86 SWAP1 PUSH2 0x51B3 JUMP JUMPDEST PUSH1 0x40 MLOAD DUP1 SWAP2 SUB SWAP1 REVERT JUMPDEST PUSH1 0x2 PUSH0 SWAP1 SLOAD SWAP1 PUSH2 0x100 EXP SWAP1 DIV PUSH20 0xFFFFFFFFFFFFFFFFFFFFFFFFFFFFFFFFFFFFFFFF AND PUSH20 0xFFFFFFFFFFFFFFFFFFFFFFFFFFFFFFFFFFFFFFFF AND PUSH4 0x23B872DD CALLER ADDRESS DUP7 PUSH1 0x40 MLOAD DUP5 PUSH4 0xFFFFFFFF AND PUSH1 0xE0 SHL DUP2 MSTORE PUSH1 0x4 ADD PUSH2 0x1AED SWAP4 SWAP3 SWAP2 SWAP1 PUSH2 0x51D1 JUMP JUMPDEST PUSH1 0x20 PUSH1 0x40 MLOAD DUP1 DUP4 SUB DUP2 PUSH0 DUP8 GAS CALL ISZERO DUP1 ISZERO PUSH2 0x1B09 JUMPI RETURNDATASIZE PUSH0 DUP1 RETURNDATACOPY RETURNDATASIZE PUSH0 REVERT JUMPDEST POP POP POP POP PUSH1 0x40 MLOAD RETURNDATASIZE PUSH1 0x1F NOT PUSH1 0x1F DUP3 ADD AND DUP3 ADD DUP1 PUSH1 0x40 MSTORE POP DUP2 ADD SWAP1 PUSH2 0x1B2D SWAP2 SWAP1 PUSH2 0x4EB6 JUMP JUMPDEST POP PUSH2 0x1B42 CALLER PUSH1 0x4 PUSH2 0x3229 SWAP1 SWAP2 SWAP1 PUSH4 0xFFFFFFFF AND JUMP JUMPDEST ISZERO DUP1 ISZERO PUSH2 0x1B4E JUMPI POP PUSH0 DUP4 GT JUMPDEST ISZERO PUSH2 0x1B69 JUMPI PUSH2 0x1B67 CALLER PUSH1 0x4 PUSH2 0x3256 SWAP1 SWAP2 SWAP1 PUSH4 0xFFFFFFFF AND JUMP JUMPDEST POP JUMPDEST PUSH0 PUSH1 0x16 PUSH0 CALLER PUSH20 0xFFFFFFFFFFFFFFFFFFFFFFFFFFFFFFFFFFFFFFFF AND PUSH20 0xFFFFFFFFFFFFFFFFFFFFFFFFFFFFFFFFFFFFFFFF AND DUP2 MSTORE PUSH1 0x20 ADD SWAP1 DUP2 MSTORE PUSH1 0x20 ADD PUSH0 KECCAK256 SLOAD SUB PUSH2 0x1C32 JUMPI TIMESTAMP PUSH1 0x10 PUSH0 CALLER PUSH20 0xFFFFFFFFFFFFFFFFFFFFFFFFFFFFFFFFFFFFFFFF AND PUSH20 0xFFFFFFFFFFFFFFFFFFFFFFFFFFFFFFFFFFFFFFFF AND DUP2 MSTORE PUSH1 0x20 ADD SWAP1 DUP2 MSTORE PUSH1 0x20 ADD PUSH0 KECCAK256 DUP2 SWAP1 SSTORE POP TIMESTAMP PUSH1 0x17 PUSH0 CALLER PUSH20 0xFFFFFFFFFFFFFFFFFFFFFFFFFFFFFFFFFFFFFFFF AND PUSH20 0xFFFFFFFFFFFFFFFFFFFFFFFFFFFFFFFFFFFFFFFF AND DUP2 MSTORE PUSH1 0x20 ADD SWAP1 DUP2 MSTORE PUSH1 0x20 ADD PUSH0 KECCAK256 DUP2 SWAP1 SSTORE POP JUMPDEST PUSH2 0x1C3B DUP2 PUSH2 0x2F95 JUMP JUMPDEST ISZERO PUSH2 0x1DC1 JUMPI PUSH0 PUSH1 0x2E DUP3 PUSH1 0x40 MLOAD PUSH2 0x1C51 SWAP2 SWAP1 PUSH2 0x512D JUMP JUMPDEST SWAP1 DUP2 MSTORE PUSH1 0x20 ADD PUSH1 0x40 MLOAD DUP1 SWAP2 SUB SWAP1 KECCAK256 PUSH0 SWAP1 SLOAD SWAP1 PUSH2 0x100 EXP SWAP1 DIV PUSH20 0xFFFFFFFFFFFFFFFFFFFFFFFFFFFFFFFFFFFFFFFF AND SWAP1 POP PUSH0 PUSH20 0xFFFFFFFFFFFFFFFFFFFFFFFFFFFFFFFFFFFFFFFF AND DUP2 PUSH20 0xFFFFFFFFFFFFFFFFFFFFFFFFFFFFFFFFFFFFFFFF AND EQ ISZERO DUP1 ISZERO PUSH2 0x1D04 JUMPI POP PUSH1 0x30 PUSH0 CALLER PUSH20 0xFFFFFFFFFFFFFFFFFFFFFFFFFFFFFFFFFFFFFFFF AND PUSH20 0xFFFFFFFFFFFFFFFFFFFFFFFFFFFFFFFFFFFFFFFF AND DUP2 MSTORE PUSH1 0x20 ADD SWAP1 DUP2 MSTORE PUSH1 0x20 ADD PUSH0 KECCAK256 PUSH0 SWAP1 SLOAD SWAP1 PUSH2 0x100 EXP SWAP1 DIV PUSH1 0xFF AND ISZERO JUMPDEST ISZERO PUSH2 0x1DBF JUMPI PUSH2 0x1D14 CALLER DUP3 DUP7 PUSH2 0x3283 JUMP JUMPDEST POP PUSH1 0x1 PUSH1 0x30 PUSH0 CALLER PUSH20 0xFFFFFFFFFFFFFFFFFFFFFFFFFFFFFFFFFFFFFFFF AND PUSH20 0xFFFFFFFFFFFFFFFFFFFFFFFFFFFFFFFFFFFFFFFF AND DUP2 MSTORE PUSH1 0x20 ADD SWAP1 DUP2 MSTORE PUSH1 0x20 ADD PUSH0 KECCAK256 PUSH0 PUSH2 0x100 EXP DUP2 SLOAD DUP2 PUSH1 0xFF MUL NOT AND SWAP1 DUP4 ISZERO ISZERO MUL OR SWAP1 SSTORE POP PUSH1 0x1 PUSH1 0x35 PUSH0 DUP4 PUSH20 0xFFFFFFFFFFFFFFFFFFFFFFFFFFFFFFFFFFFFFFFF AND PUSH20 0xFFFFFFFFFFFFFFFFFFFFFFFFFFFFFFFFFFFFFFFF AND DUP2 MSTORE PUSH1 0x20 ADD SWAP1 DUP2 MSTORE PUSH1 0x20 ADD PUSH0 KECCAK256 PUSH0 DUP3 DUP3 SLOAD PUSH2 0x1DB7 SWAP2 SWAP1 PUSH2 0x5206 JUMP JUMPDEST SWAP3 POP POP DUP2 SWAP1 SSTORE POP JUMPDEST POP JUMPDEST DUP3 PUSH1 0x16 PUSH0 CALLER PUSH20 0xFFFFFFFFFFFFFFFFFFFFFFFFFFFFFFFFFFFFFFFF AND PUSH20 0xFFFFFFFFFFFFFFFFFFFFFFFFFFFFFFFFFFFFFFFF AND DUP2 MSTORE PUSH1 0x20 ADD SWAP1 DUP2 MSTORE PUSH1 0x20 ADD PUSH0 KECCAK256 PUSH0 DUP3 DUP3 SLOAD PUSH2 0x1E0D SWAP2 SWAP1 PUSH2 0x5206 JUMP JUMPDEST SWAP3 POP POP DUP2 SWAP1 SSTORE POP PUSH1 0x13 SLOAD PUSH1 0x15 DUP2 SWAP1 SSTORE POP DUP3 PUSH1 0x13 PUSH0 DUP3 DUP3 SLOAD PUSH2 0x1E2E SWAP2 SWAP1 PUSH2 0x5206 JUMP JUMPDEST SWAP3 POP POP DUP2 SWAP1 SSTORE POP TIMESTAMP PUSH1 0x21 PUSH0 CALLER PUSH20 0xFFFFFFFFFFFFFFFFFFFFFFFFFFFFFFFFFFFFFFFF AND PUSH20 0xFFFFFFFFFFFFFFFFFFFFFFFFFFFFFFFFFFFFFFFF AND DUP2 MSTORE PUSH1 0x20 ADD SWAP1 DUP2 MSTORE PUSH1 0x20 ADD PUSH0 KECCAK256 DUP2 SWAP1 SSTORE POP DUP3 PUSH1 0x22 PUSH0 CALLER PUSH20 0xFFFFFFFFFFFFFFFFFFFFFFFFFFFFFFFFFFFFFFFF AND PUSH20 0xFFFFFFFFFFFFFFFFFFFFFFFFFFFFFFFFFFFFFFFF AND DUP2 MSTORE PUSH1 0x20 ADD SWAP1 DUP2 MSTORE PUSH1 0x20 ADD PUSH0 KECCAK256 DUP2 SWAP1 SSTORE POP CALLER PUSH20 0xFFFFFFFFFFFFFFFFFFFFFFFFFFFFFFFFFFFFFFFF AND PUSH32 0x1F42EAD3B460988335C082E2EAE9C3F3F9E8279142406F3DBD34AF4E7C53A841 DUP5 TIMESTAMP PUSH1 0x40 MLOAD PUSH2 0x1F01 SWAP3 SWAP2 SWAP1 PUSH2 0x4EE1 JUMP JUMPDEST PUSH1 0x40 MLOAD DUP1 SWAP2 SUB SWAP1 LOG2 POP POP POP JUMP JUMPDEST PUSH0 DUP1 PUSH1 0x1 SWAP1 SLOAD SWAP1 PUSH2 0x100 EXP SWAP1 DIV PUSH20 0xFFFFFFFFFFFFFFFFFFFFFFFFFFFFFFFFFFFFFFFF AND SWAP1 POP SWAP1 JUMP JUMPDEST PUSH1 0x18 SLOAD DUP2 JUMP JUMPDEST PUSH1 0x27 PUSH1 0x20 MSTORE DUP2 PUSH0 MSTORE PUSH1 0x40 PUSH0 KECCAK256 PUSH1 0x20 MSTORE DUP1 PUSH0 MSTORE PUSH1 0x40 PUSH0 KECCAK256 PUSH0 SWAP2 POP SWAP2 POP POP SLOAD DUP2 JUMP JUMPDEST PUSH1 0x15 SLOAD DUP2 JUMP JUMPDEST PUSH1 0x9 PUSH1 0x20 MSTORE DUP1 PUSH0 MSTORE PUSH1 0x40 PUSH0 KECCAK256 PUSH0 SWAP2 POP SWAP1 POP SLOAD DUP2 JUMP JUMPDEST PUSH0 PUSH2 0x1F80 PUSH2 0x28ED JUMP JUMPDEST PUSH2 0x1F88 PUSH2 0x37DD JUMP JUMPDEST PUSH0 DUP1 PUSH2 0x1FCF PUSH1 0x24 PUSH0 CALLER PUSH20 0xFFFFFFFFFFFFFFFFFFFFFFFFFFFFFFFFFFFFFFFF AND PUSH20 0xFFFFFFFFFFFFFFFFFFFFFFFFFFFFFFFFFFFFFFFF AND DUP2 MSTORE PUSH1 0x20 ADD SWAP1 DUP2 MSTORE PUSH1 0x20 ADD PUSH0 KECCAK256 PUSH2 0x382C JUMP JUMPDEST SWAP1 POP PUSH0 JUMPDEST DUP2 MLOAD DUP2 LT ISZERO PUSH2 0x2132 JUMPI PUSH0 DUP3 DUP3 DUP2 MLOAD DUP2 LT PUSH2 0x1FF0 JUMPI PUSH2 0x1FEF PUSH2 0x5239 JUMP JUMPDEST JUMPDEST PUSH1 0x20 MUL PUSH1 0x20 ADD ADD MLOAD SWAP1 POP PUSH0 PUSH1 0xD PUSH0 CALLER PUSH20 0xFFFFFFFFFFFFFFFFFFFFFFFFFFFFFFFFFFFFFFFF AND PUSH20 0xFFFFFFFFFFFFFFFFFFFFFFFFFFFFFFFFFFFFFFFF AND DUP2 MSTORE PUSH1 0x20 ADD SWAP1 DUP2 MSTORE PUSH1 0x20 ADD PUSH0 KECCAK256 PUSH0 DUP4 PUSH20 0xFFFFFFFFFFFFFFFFFFFFFFFFFFFFFFFFFFFFFFFF AND PUSH20 0xFFFFFFFFFFFFFFFFFFFFFFFFFFFFFFFFFFFFFFFF AND DUP2 MSTORE PUSH1 0x20 ADD SWAP1 DUP2 MSTORE PUSH1 0x20 ADD PUSH0 KECCAK256 SWAP1 POP PUSH0 PUSH2 0x207F DUP3 PUSH2 0x384B JUMP JUMPDEST SWAP1 POP PUSH0 DUP2 GT ISZERO PUSH2 0x2122 JUMPI DUP1 DUP3 PUSH1 0x2 ADD PUSH0 DUP3 DUP3 SLOAD PUSH2 0x209C SWAP2 SWAP1 PUSH2 0x5206 JUMP JUMPDEST SWAP3 POP POP DUP2 SWAP1 SSTORE POP TIMESTAMP DUP3 PUSH1 0x3 ADD DUP2 SWAP1 SSTORE POP DUP1 DUP7 PUSH2 0x20B8 SWAP2 SWAP1 PUSH2 0x5206 JUMP JUMPDEST SWAP6 POP DUP3 PUSH20 0xFFFFFFFFFFFFFFFFFFFFFFFFFFFFFFFFFFFFFFFF AND CALLER PUSH20 0xFFFFFFFFFFFFFFFFFFFFFFFFFFFFFFFFFFFFFFFF AND PUSH32 0x5A8B3C9684C3E08F9972C80A03E63C398F3C444E3F2C8E92D6FDB8268EF7AB98 DUP4 TIMESTAMP PUSH1 0x40 MLOAD PUSH2 0x2119 SWAP3 SWAP2 SWAP1 PUSH2 0x4EE1 JUMP JUMPDEST PUSH1 0x40 MLOAD DUP1 SWAP2 SUB SWAP1 LOG3 JUMPDEST POP POP POP DUP1 DUP1 PUSH1 0x1 ADD SWAP2 POP POP PUSH2 0x1FD3 JUMP JUMPDEST POP PUSH0 PUSH2 0x2179 PUSH1 0x25 PUSH0 CALLER PUSH20 0xFFFFFFFFFFFFFFFFFFFFFFFFFFFFFFFFFFFFFFFF AND PUSH20 0xFFFFFFFFFFFFFFFFFFFFFFFFFFFFFFFFFFFFFFFF AND DUP2 MSTORE PUSH1 0x20 ADD SWAP1 DUP2 MSTORE PUSH1 0x20 ADD PUSH0 KECCAK256 PUSH2 0x382C JUMP JUMPDEST SWAP1 POP PUSH0 JUMPDEST DUP2 MLOAD DUP2 LT ISZERO PUSH2 0x22DC JUMPI PUSH0 DUP3 DUP3 DUP2 MLOAD DUP2 LT PUSH2 0x219A JUMPI PUSH2 0x2199 PUSH2 0x5239 JUMP JUMPDEST JUMPDEST PUSH1 0x20 MUL PUSH1 0x20 ADD ADD MLOAD SWAP1 POP PUSH0 PUSH1 0xE PUSH0 CALLER PUSH20 0xFFFFFFFFFFFFFFFFFFFFFFFFFFFFFFFFFFFFFFFF AND PUSH20 0xFFFFFFFFFFFFFFFFFFFFFFFFFFFFFFFFFFFFFFFF AND DUP2 MSTORE PUSH1 0x20 ADD SWAP1 DUP2 MSTORE PUSH1 0x20 ADD PUSH0 KECCAK256 PUSH0 DUP4 PUSH20 0xFFFFFFFFFFFFFFFFFFFFFFFFFFFFFFFFFFFFFFFF AND PUSH20 0xFFFFFFFFFFFFFFFFFFFFFFFFFFFFFFFFFFFFFFFF AND DUP2 MSTORE PUSH1 0x20 ADD SWAP1 DUP2 MSTORE PUSH1 0x20 ADD PUSH0 KECCAK256 SWAP1 POP PUSH0 PUSH2 0x2229 DUP3 PUSH2 0x384B JUMP JUMPDEST SWAP1 POP PUSH0 DUP2 GT ISZERO PUSH2 0x22CC JUMPI DUP1 DUP3 PUSH1 0x2 ADD PUSH0 DUP3 DUP3 SLOAD PUSH2 0x2246 SWAP2 SWAP1 PUSH2 0x5206 JUMP JUMPDEST SWAP3 POP POP DUP2 SWAP1 SSTORE POP TIMESTAMP DUP3 PUSH1 0x3 ADD DUP2 SWAP1 SSTORE POP DUP1 DUP8 PUSH2 0x2262 SWAP2 SWAP1 PUSH2 0x5206 JUMP JUMPDEST SWAP7 POP DUP3 PUSH20 0xFFFFFFFFFFFFFFFFFFFFFFFFFFFFFFFFFFFFFFFF AND CALLER PUSH20 0xFFFFFFFFFFFFFFFFFFFFFFFFFFFFFFFFFFFFFFFF AND PUSH32 0x5A8B3C9684C3E08F9972C80A03E63C398F3C444E3F2C8E92D6FDB8268EF7AB98 DUP4 TIMESTAMP PUSH1 0x40 MLOAD PUSH2 0x22C3 SWAP3 SWAP2 SWAP1 PUSH2 0x4EE1 JUMP JUMPDEST PUSH1 0x40 MLOAD DUP1 SWAP2 SUB SWAP1 LOG3 JUMPDEST POP POP POP DUP1 DUP1 PUSH1 0x1 ADD SWAP2 POP POP PUSH2 0x217D JUMP JUMPDEST POP PUSH0 DUP4 GT PUSH2 0x231F JUMPI PUSH1 0x40 MLOAD PUSH32 0x8C379A000000000000000000000000000000000000000000000000000000000 DUP2 MSTORE PUSH1 0x4 ADD PUSH2 0x2316 SWAP1 PUSH2 0x52B0 JUMP JUMPDEST PUSH1 0x40 MLOAD DUP1 SWAP2 SUB SWAP1 REVERT JUMPDEST PUSH0 PUSH2 0x2329 DUP5 PUSH2 0x38F4 JUMP JUMPDEST SWAP1 POP PUSH0 DUP2 DUP6 PUSH2 0x2338 SWAP2 SWAP1 PUSH2 0x4E32 JUMP JUMPDEST SWAP1 POP DUP1 PUSH1 0x29 PUSH0 CALLER PUSH20 0xFFFFFFFFFFFFFFFFFFFFFFFFFFFFFFFFFFFFFFFF AND PUSH20 0xFFFFFFFFFFFFFFFFFFFFFFFFFFFFFFFFFFFFFFFF AND DUP2 MSTORE PUSH1 0x20 ADD SWAP1 DUP2 MSTORE PUSH1 0x20 ADD PUSH0 KECCAK256 PUSH0 DUP3 DUP3 SLOAD PUSH2 0x2386 SWAP2 SWAP1 PUSH2 0x5206 JUMP JUMPDEST SWAP3 POP POP DUP2 SWAP1 SSTORE POP DUP2 PUSH1 0x12 PUSH0 CALLER PUSH20 0xFFFFFFFFFFFFFFFFFFFFFFFFFFFFFFFFFFFFFFFF AND PUSH20 0xFFFFFFFFFFFFFFFFFFFFFFFFFFFFFFFFFFFFFFFF AND DUP2 MSTORE PUSH1 0x20 ADD SWAP1 DUP2 MSTORE PUSH1 0x20 ADD PUSH0 KECCAK256 DUP2 SWAP1 SSTORE POP PUSH1 0x1 SWAP6 POP POP POP POP POP POP PUSH2 0x23E0 PUSH2 0x3A94 JUMP JUMPDEST SWAP1 JUMP JUMPDEST PUSH0 PUSH2 0x16D PUSH3 0x15180 PUSH2 0x23F4 DUP5 PUSH2 0x3A9D JUMP JUMPDEST PUSH2 0x23FE SWAP2 SWAP1 PUSH2 0x4D94 JUMP JUMPDEST PUSH2 0x2408 SWAP2 SWAP1 PUSH2 0x4D94 JUMP JUMPDEST SWAP1 POP SWAP2 SWAP1 POP JUMP JUMPDEST PUSH1 0xC SLOAD DUP2 JUMP JUMPDEST PUSH0 PUSH2 0x241E PUSH2 0x28ED JUMP JUMPDEST PUSH0 PUSH1 0x11 PUSH0 CALLER PUSH20 0xFFFFFFFFFFFFFFFFFFFFFFFFFFFFFFFFFFFFFFFF AND PUSH20 0xFFFFFFFFFFFFFFFFFFFFFFFFFFFFFFFFFFFFFFFF AND DUP2 MSTORE PUSH1 0x20 ADD SWAP1 DUP2 MSTORE PUSH1 0x20 ADD PUSH0 KECCAK256 SLOAD PUSH1 0x9 PUSH0 CALLER PUSH20 0xFFFFFFFFFFFFFFFFFFFFFFFFFFFFFFFFFFFFFFFF AND PUSH20 0xFFFFFFFFFFFFFFFFFFFFFFFFFFFFFFFFFFFFFFFF AND DUP2 MSTORE PUSH1 0x20 ADD SWAP1 DUP2 MSTORE PUSH1 0x20 ADD PUSH0 KECCAK256 SLOAD PUSH2 0x24A5 SWAP2 SWAP1 PUSH2 0x5206 JUMP JUMPDEST SWAP1 POP PUSH0 PUSH2 0x24B1 DUP3 PUSH2 0x38F4 JUMP JUMPDEST SWAP1 POP DUP1 PUSH1 0x11 PUSH0 CALLER PUSH20 0xFFFFFFFFFFFFFFFFFFFFFFFFFFFFFFFFFFFFFFFF AND PUSH20 0xFFFFFFFFFFFFFFFFFFFFFFFFFFFFFFFFFFFFFFFF AND DUP2 MSTORE PUSH1 0x20 ADD SWAP1 DUP2 MSTORE PUSH1 0x20 ADD PUSH0 KECCAK256 DUP2 SWAP1 SSTORE POP PUSH0 DUP2 DUP4 PUSH2 0x2502 SWAP2 SWAP1 PUSH2 0x4E32 JUMP JUMPDEST SWAP1 POP PUSH1 0x9 PUSH0 CALLER PUSH20 0xFFFFFFFFFFFFFFFFFFFFFFFFFFFFFFFFFFFFFFFF AND PUSH20 0xFFFFFFFFFFFFFFFFFFFFFFFFFFFFFFFFFFFFFFFF AND DUP2 MSTORE PUSH1 0x20 ADD SWAP1 DUP2 MSTORE PUSH1 0x20 ADD PUSH0 KECCAK256 SLOAD DUP2 LT PUSH2 0x25E4 JUMPI PUSH1 0x9 PUSH0 CALLER PUSH20 0xFFFFFFFFFFFFFFFFFFFFFFFFFFFFFFFFFFFFFFFF AND PUSH20 0xFFFFFFFFFFFFFFFFFFFFFFFFFFFFFFFFFFFFFFFF AND DUP2 MSTORE PUSH1 0x20 ADD SWAP1 DUP2 MSTORE PUSH1 0x20 ADD PUSH0 KECCAK256 SLOAD PUSH1 0xC PUSH0 DUP3 DUP3 SLOAD PUSH2 0x2596 SWAP2 SWAP1 PUSH2 0x4E32 JUMP JUMPDEST SWAP3 POP POP DUP2 SWAP1 SSTORE POP PUSH0 PUSH1 0x9 PUSH0 CALLER PUSH20 0xFFFFFFFFFFFFFFFFFFFFFFFFFFFFFFFFFFFFFFFF AND PUSH20 0xFFFFFFFFFFFFFFFFFFFFFFFFFFFFFFFFFFFFFFFF AND DUP2 MSTORE PUSH1 0x20 ADD SWAP1 DUP2 MSTORE PUSH1 0x20 ADD PUSH0 KECCAK256 DUP2 SWAP1 SSTORE POP PUSH2 0x2650 JUMP JUMPDEST DUP1 PUSH1 0xC PUSH0 DUP3 DUP3 SLOAD PUSH2 0x25F5 SWAP2 SWAP1 PUSH2 0x4E32 JUMP JUMPDEST SWAP3 POP POP DUP2 SWAP1 SSTORE POP DUP1 PUSH1 0x9 PUSH0 CALLER PUSH20 0xFFFFFFFFFFFFFFFFFFFFFFFFFFFFFFFFFFFFFFFF AND PUSH20 0xFFFFFFFFFFFFFFFFFFFFFFFFFFFFFFFFFFFFFFFF AND DUP2 MSTORE PUSH1 0x20 ADD SWAP1 DUP2 MSTORE PUSH1 0x20 ADD PUSH0 KECCAK256 PUSH0 DUP3 DUP3 SLOAD PUSH2 0x2648 SWAP2 SWAP1 PUSH2 0x4E32 JUMP JUMPDEST SWAP3 POP POP DUP2 SWAP1 SSTORE POP JUMPDEST DUP1 PUSH1 0xF PUSH0 CALLER PUSH20 0xFFFFFFFFFFFFFFFFFFFFFFFFFFFFFFFFFFFFFFFF AND PUSH20 0xFFFFFFFFFFFFFFFFFFFFFFFFFFFFFFFFFFFFFFFF AND DUP2 MSTORE PUSH1 0x20 ADD SWAP1 DUP2 MSTORE PUSH1 0x20 ADD PUSH0 KECCAK256 PUSH0 DUP3 DUP3 SLOAD PUSH2 0x269C SWAP2 SWAP1 PUSH2 0x5206 JUMP JUMPDEST SWAP3 POP POP DUP2 SWAP1 SSTORE POP PUSH1 0x1 SWAP4 POP POP POP POP SWAP1 JUMP JUMPDEST PUSH2 0x2710 DUP2 JUMP JUMPDEST PUSH1 0x1E SLOAD DUP2 JUMP JUMPDEST PUSH1 0xE PUSH1 0x20 MSTORE DUP2 PUSH0 MSTORE PUSH1 0x40 PUSH0 KECCAK256 PUSH1 0x20 MSTORE DUP1 PUSH0 MSTORE PUSH1 0x40 PUSH0 KECCAK256 PUSH0 SWAP2 POP SWAP2 POP POP DUP1 PUSH0 ADD SLOAD SWAP1 DUP1 PUSH1 0x1 ADD SLOAD SWAP1 DUP1 PUSH1 0x2 ADD SLOAD SWAP1 DUP1 PUSH1 0x3 ADD SLOAD SWAP1 POP DUP5 JUMP JUMPDEST PUSH1 0x2E DUP2 DUP1 MLOAD PUSH1 0x20 DUP2 ADD DUP3 ADD DUP1 MLOAD DUP5 DUP3 MSTORE PUSH1 0x20 DUP4 ADD PUSH1 0x20 DUP6 ADD KECCAK256 DUP2 DUP4 MSTORE DUP1 SWAP6 POP POP POP POP POP POP PUSH0 SWAP2 POP SLOAD SWAP1 PUSH2 0x100 EXP SWAP1 DIV PUSH20 0xFFFFFFFFFFFFFFFFFFFFFFFFFFFFFFFFFFFFFFFF AND DUP2 JUMP JUMPDEST PUSH1 0xF PUSH1 0x20 MSTORE DUP1 PUSH0 MSTORE PUSH1 0x40 PUSH0 KECCAK256 PUSH0 SWAP2 POP SWAP1 POP SLOAD DUP2 JUMP JUMPDEST PUSH1 0x2A PUSH1 0x20 MSTORE DUP1 PUSH0 MSTORE PUSH1 0x40 PUSH0 KECCAK256 PUSH0 SWAP2 POP SWAP1 POP SLOAD DUP2 JUMP JUMPDEST PUSH1 0x28 PUSH1 0x20 MSTORE DUP2 PUSH0 MSTORE PUSH1 0x40 PUSH0 KECCAK256 PUSH1 0x20 MSTORE DUP1 PUSH0 MSTORE PUSH1 0x40 PUSH0 KECCAK256 PUSH0 SWAP2 POP SWAP2 POP POP SLOAD DUP2 JUMP JUMPDEST PUSH1 0x1C SLOAD DUP2 JUMP JUMPDEST PUSH1 0x21 PUSH1 0x20 MSTORE DUP1 PUSH0 MSTORE PUSH1 0x40 PUSH0 KECCAK256 PUSH0 SWAP2 POP SWAP1 POP SLOAD DUP2 JUMP JUMPDEST PUSH1 0xD PUSH1 0x20 MSTORE DUP2 PUSH0 MSTORE PUSH1 0x40 PUSH0 KECCAK256 PUSH1 0x20 MSTORE DUP1 PUSH0 MSTORE PUSH1 0x40 PUSH0 KECCAK256 PUSH0 SWAP2 POP SWAP2 POP POP DUP1 PUSH0 ADD SLOAD SWAP1 DUP1 PUSH1 0x1 ADD SLOAD SWAP1 DUP1 PUSH1 0x2 ADD SLOAD SWAP1 DUP1 PUSH1 0x3 ADD SLOAD SWAP1 POP DUP5 JUMP JUMPDEST PUSH0 PUSH2 0x16D PUSH3 0x15180 PUSH2 0x27E7 PUSH1 0x7 SLOAD PUSH2 0x3A9D JUMP JUMPDEST PUSH2 0x27F1 SWAP2 SWAP1 PUSH2 0x4D94 JUMP JUMPDEST PUSH2 0x27FB SWAP2 SWAP1 PUSH2 0x4D94 JUMP JUMPDEST SWAP1 POP SWAP1 JUMP JUMPDEST PUSH1 0x2F PUSH1 0x20 MSTORE DUP1 PUSH0 MSTORE PUSH1 0x40 PUSH0 KECCAK256 PUSH0 SWAP2 POP SLOAD SWAP1 PUSH2 0x100 EXP SWAP1 DIV PUSH1 0xFF AND DUP2 JUMP JUMPDEST PUSH1 0x34 SLOAD DUP2 JUMP JUMPDEST PUSH2 0x282B PUSH2 0x2CCA JUMP JUMPDEST PUSH0 PUSH20 0xFFFFFFFFFFFFFFFFFFFFFFFFFFFFFFFFFFFFFFFF AND DUP2 PUSH20 0xFFFFFFFFFFFFFFFFFFFFFFFFFFFFFFFFFFFFFFFF AND SUB PUSH2 0x289B JUMPI PUSH0 PUSH1 0x40 MLOAD PUSH32 0x1E4FBDF700000000000000000000000000000000000000000000000000000000 DUP2 MSTORE PUSH1 0x4 ADD PUSH2 0x2892 SWAP2 SWAP1 PUSH2 0x48A7 JUMP JUMPDEST PUSH1 0x40 MLOAD DUP1 SWAP2 SUB SWAP1 REVERT JUMPDEST PUSH2 0x28A4 DUP2 PUSH2 0x2E71 JUMP JUMPDEST POP JUMP JUMPDEST PUSH1 0x1A SLOAD DUP2 JUMP JUMPDEST PUSH1 0x10 PUSH1 0x20 MSTORE DUP1 PUSH0 MSTORE PUSH1 0x40 PUSH0 KECCAK256 PUSH0 SWAP2 POP SWAP1 POP SLOAD DUP2 JUMP JUMPDEST PUSH1 0x2 PUSH0 SWAP1 SLOAD SWAP1 PUSH2 0x100 EXP SWAP1 DIV PUSH20 0xFFFFFFFFFFFFFFFFFFFFFFFFFFFFFFFFFFFFFFFF AND DUP2 JUMP JUMPDEST PUSH1 0x32 SLOAD DUP2 JUMP JUMPDEST PUSH2 0x28F5 PUSH2 0x1629 JUMP JUMPDEST ISZERO PUSH2 0x2935 JUMPI PUSH1 0x40 MLOAD PUSH32 0x8C379A000000000000000000000000000000000000000000000000000000000 DUP2 MSTORE PUSH1 0x4 ADD PUSH2 0x292C SWAP1 PUSH2 0x5318 JUMP JUMPDEST PUSH1 0x40 MLOAD DUP1 SWAP2 SUB SWAP1 REVERT JUMPDEST JUMP JUMPDEST PUSH0 DUP1 PUSH1 0x23 PUSH0 DUP6 PUSH20 0xFFFFFFFFFFFFFFFFFFFFFFFFFFFFFFFFFFFFFFFF AND PUSH20 0xFFFFFFFFFFFFFFFFFFFFFFFFFFFFFFFFFFFFFFFF AND DUP2 MSTORE PUSH1 0x20 ADD SWAP1 DUP2 MSTORE PUSH1 0x20 ADD PUSH0 KECCAK256 PUSH0 SWAP1 SLOAD SWAP1 PUSH2 0x100 EXP SWAP1 DIV PUSH20 0xFFFFFFFFFFFFFFFFFFFFFFFFFFFFFFFFFFFFFFFF AND SWAP1 POP PUSH0 PUSH1 0x1C SLOAD PUSH1 0x2C PUSH0 DUP8 PUSH20 0xFFFFFFFFFFFFFFFFFFFFFFFFFFFFFFFFFFFFFFFF AND PUSH20 0xFFFFFFFFFFFFFFFFFFFFFFFFFFFFFFFFFFFFFFFF AND DUP2 MSTORE PUSH1 0x20 ADD SWAP1 DUP2 MSTORE PUSH1 0x20 ADD PUSH0 KECCAK256 SLOAD PUSH2 0x29E4 SWAP2 SWAP1 PUSH2 0x5206 JUMP JUMPDEST SWAP1 POP DUP1 TIMESTAMP LT ISZERO PUSH2 0x2C91 JUMPI PUSH0 PUSH1 0x23 PUSH0 DUP5 PUSH20 0xFFFFFFFFFFFFFFFFFFFFFFFFFFFFFFFFFFFFFFFF AND PUSH20 0xFFFFFFFFFFFFFFFFFFFFFFFFFFFFFFFFFFFFFFFF AND DUP2 MSTORE PUSH1 0x20 ADD SWAP1 DUP2 MSTORE PUSH1 0x20 ADD PUSH0 KECCAK256 PUSH0 SWAP1 SLOAD SWAP1 PUSH2 0x100 EXP SWAP1 DIV PUSH20 0xFFFFFFFFFFFFFFFFFFFFFFFFFFFFFFFFFFFFFFFF AND SWAP1 POP PUSH0 DUP1 PUSH2 0x2A5A DUP9 DUP9 PUSH2 0x3BE2 JUMP JUMPDEST DUP1 SWAP3 POP DUP2 SWAP4 POP POP POP PUSH0 PUSH1 0x1D SLOAD PUSH1 0x1D SLOAD TIMESTAMP PUSH2 0x2A74 SWAP2 SWAP1 PUSH2 0x4E02 JUMP JUMPDEST PUSH2 0x2A7E SWAP2 SWAP1 PUSH2 0x4D94 JUMP JUMPDEST PUSH1 0x1D SLOAD PUSH1 0x1D SLOAD DUP8 PUSH2 0x2A8F SWAP2 SWAP1 PUSH2 0x4E02 JUMP JUMPDEST PUSH2 0x2A99 SWAP2 SWAP1 PUSH2 0x4D94 JUMP JUMPDEST PUSH2 0x2AA3 SWAP2 SWAP1 PUSH2 0x4E32 JUMP JUMPDEST SWAP1 POP PUSH0 PUSH1 0xD PUSH0 DUP9 PUSH20 0xFFFFFFFFFFFFFFFFFFFFFFFFFFFFFFFFFFFFFFFF AND PUSH20 0xFFFFFFFFFFFFFFFFFFFFFFFFFFFFFFFFFFFFFFFF AND DUP2 MSTORE PUSH1 0x20 ADD SWAP1 DUP2 MSTORE PUSH1 0x20 ADD PUSH0 KECCAK256 PUSH0 DUP12 PUSH20 0xFFFFFFFFFFFFFFFFFFFFFFFFFFFFFFFFFFFFFFFF AND PUSH20 0xFFFFFFFFFFFFFFFFFFFFFFFFFFFFFFFFFFFFFFFF AND DUP2 MSTORE PUSH1 0x20 ADD SWAP1 DUP2 MSTORE PUSH1 0x20 ADD PUSH0 KECCAK256 SWAP1 POP PUSH0 DUP3 DUP6 PUSH2 0x2B2D SWAP2 SWAP1 PUSH2 0x4D94 JUMP JUMPDEST SWAP1 POP DUP1 DUP3 PUSH0 ADD SLOAD LT PUSH2 0x2B57 JUMPI DUP1 DUP3 PUSH0 ADD PUSH0 DUP3 DUP3 SLOAD PUSH2 0x2B4B SWAP2 SWAP1 PUSH2 0x4E32 JUMP JUMPDEST SWAP3 POP POP DUP2 SWAP1 SSTORE POP PUSH2 0x2B66 JUMP JUMPDEST DUP2 PUSH0 ADD SLOAD SWAP1 POP PUSH0 DUP3 PUSH0 ADD DUP2 SWAP1 SSTORE POP JUMPDEST PUSH0 DUP1 PUSH20 0xFFFFFFFFFFFFFFFFFFFFFFFFFFFFFFFFFFFFFFFF AND DUP8 PUSH20 0xFFFFFFFFFFFFFFFFFFFFFFFFFFFFFFFFFFFFFFFF AND EQ PUSH2 0x2C5C JUMPI PUSH0 PUSH1 0xE PUSH0 DUP10 PUSH20 0xFFFFFFFFFFFFFFFFFFFFFFFFFFFFFFFFFFFFFFFF AND PUSH20 0xFFFFFFFFFFFFFFFFFFFFFFFFFFFFFFFFFFFFFFFF AND DUP2 MSTORE PUSH1 0x20 ADD SWAP1 DUP2 MSTORE PUSH1 0x20 ADD PUSH0 KECCAK256 PUSH0 DUP15 PUSH20 0xFFFFFFFFFFFFFFFFFFFFFFFFFFFFFFFFFFFFFFFF AND PUSH20 0xFFFFFFFFFFFFFFFFFFFFFFFFFFFFFFFFFFFFFFFF AND DUP2 MSTORE PUSH1 0x20 ADD SWAP1 DUP2 MSTORE PUSH1 0x20 ADD PUSH0 KECCAK256 SWAP1 POP DUP5 DUP7 PUSH2 0x2C21 SWAP2 SWAP1 PUSH2 0x4D94 JUMP JUMPDEST SWAP2 POP DUP2 DUP2 PUSH0 ADD SLOAD LT PUSH2 0x2C4B JUMPI DUP2 DUP2 PUSH0 ADD PUSH0 DUP3 DUP3 SLOAD PUSH2 0x2C3F SWAP2 SWAP1 PUSH2 0x4E32 JUMP JUMPDEST SWAP3 POP POP DUP2 SWAP1 SSTORE POP PUSH2 0x2C5A JUMP JUMPDEST DUP1 PUSH0 ADD SLOAD SWAP2 POP PUSH0 DUP2 PUSH0 ADD DUP2 SWAP1 SSTORE POP JUMPDEST POP JUMPDEST DUP1 DUP3 PUSH2 0x2C68 SWAP2 SWAP1 PUSH2 0x5206 JUMP JUMPDEST PUSH1 0x2D PUSH0 DUP3 DUP3 SLOAD PUSH2 0x2C78 SWAP2 SWAP1 PUSH2 0x4E32 JUMP JUMPDEST SWAP3 POP POP DUP2 SWAP1 SSTORE POP PUSH1 0x1 SWAP10 POP POP POP POP POP POP POP POP POP POP PUSH2 0x2C97 JUMP JUMPDEST PUSH0 SWAP3 POP POP POP JUMPDEST SWAP3 SWAP2 POP POP JUMP JUMPDEST PUSH0 PUSH2 0x2CC2 DUP4 PUSH0 ADD DUP4 PUSH20 0xFFFFFFFFFFFFFFFFFFFFFFFFFFFFFFFFFFFFFFFF AND PUSH0 SHL PUSH2 0x3E81 JUMP JUMPDEST SWAP1 POP SWAP3 SWAP2 POP POP JUMP JUMPDEST PUSH2 0x2CD2 PUSH2 0x3F7D JUMP JUMPDEST PUSH20 0xFFFFFFFFFFFFFFFFFFFFFFFFFFFFFFFFFFFFFFFF AND PUSH2 0x2CF0 PUSH2 0x1F0E JUMP JUMPDEST PUSH20 0xFFFFFFFFFFFFFFFFFFFFFFFFFFFFFFFFFFFFFFFF AND EQ PUSH2 0x2D4F JUMPI PUSH2 0x2D13 PUSH2 0x3F7D JUMP JUMPDEST PUSH1 0x40 MLOAD PUSH32 0x118CDAA700000000000000000000000000000000000000000000000000000000 DUP2 MSTORE PUSH1 0x4 ADD PUSH2 0x2D46 SWAP2 SWAP1 PUSH2 0x48A7 JUMP JUMPDEST PUSH1 0x40 MLOAD DUP1 SWAP2 SUB SWAP1 REVERT JUMPDEST JUMP JUMPDEST PUSH2 0x2D59 PUSH2 0x3F84 JUMP JUMPDEST PUSH0 DUP1 PUSH0 PUSH2 0x100 EXP DUP2 SLOAD DUP2 PUSH1 0xFF MUL NOT AND SWAP1 DUP4 ISZERO ISZERO MUL OR SWAP1 SSTORE POP PUSH32 0x5DB9EE0A495BF2E6FF9C91A7834C1BA4FDD244A5E8AA4E537BD38AEAE4B073AA PUSH2 0x2D9A PUSH2 0x3F7D JUMP JUMPDEST PUSH1 0x40 MLOAD PUSH2 0x2DA7 SWAP2 SWAP1 PUSH2 0x48A7 JUMP JUMPDEST PUSH1 0x40 MLOAD DUP1 SWAP2 SUB SWAP1 LOG1 JUMP JUMPDEST PUSH2 0x2DBB PUSH1 0x4 PUSH2 0x382C JUMP JUMPDEST MLOAD PUSH1 0xA SLOAD LT PUSH2 0x2DCC JUMPI PUSH0 PUSH1 0xA DUP2 SWAP1 SSTORE POP JUMPDEST PUSH2 0x2DDA PUSH1 0xA SLOAD PUSH1 0xB SLOAD PUSH2 0x3FCD JUMP JUMPDEST PUSH1 0x34 PUSH0 DUP2 SLOAD DUP1 SWAP3 SWAP2 SWAP1 PUSH2 0x2DEC SWAP1 PUSH2 0x5336 JUMP JUMPDEST SWAP2 SWAP1 POP SSTORE POP JUMP JUMPDEST PUSH0 PUSH2 0x2DFE PUSH1 0x4 PUSH2 0x382C JUMP JUMPDEST MLOAD SWAP1 POP PUSH0 PUSH1 0xB SLOAD DUP3 PUSH2 0x2E10 SWAP2 SWAP1 PUSH2 0x4E02 JUMP JUMPDEST SWAP1 POP DUP2 DUP2 PUSH1 0xB SLOAD PUSH2 0x2E21 SWAP2 SWAP1 PUSH2 0x4D94 JUMP JUMPDEST LT ISZERO PUSH2 0x2E37 JUMPI PUSH1 0x1 DUP2 PUSH2 0x2E34 SWAP2 SWAP1 PUSH2 0x5206 JUMP JUMPDEST SWAP1 POP JUMPDEST DUP1 PUSH1 0x33 SLOAD LT PUSH2 0x2E55 JUMPI PUSH0 PUSH1 0x33 DUP2 SWAP1 SSTORE POP TIMESTAMP PUSH1 0x31 DUP2 SWAP1 SSTORE POP POP POP PUSH2 0x2E6F JUMP JUMPDEST PUSH1 0x33 PUSH0 DUP2 SLOAD DUP1 SWAP3 SWAP2 SWAP1 PUSH2 0x2E67 SWAP1 PUSH2 0x5336 JUMP JUMPDEST SWAP2 SWAP1 POP SSTORE POP POP POP JUMPDEST JUMP JUMPDEST PUSH0 DUP1 PUSH1 0x1 SWAP1 SLOAD SWAP1 PUSH2 0x100 EXP SWAP1 DIV PUSH20 0xFFFFFFFFFFFFFFFFFFFFFFFFFFFFFFFFFFFFFFFF AND SWAP1 POP DUP2 PUSH0 PUSH1 0x1 PUSH2 0x100 EXP DUP2 SLOAD DUP2 PUSH20 0xFFFFFFFFFFFFFFFFFFFFFFFFFFFFFFFFFFFFFFFF MUL NOT AND SWAP1 DUP4 PUSH20 0xFFFFFFFFFFFFFFFFFFFFFFFFFFFFFFFFFFFFFFFF AND MUL OR SWAP1 SSTORE POP DUP2 PUSH20 0xFFFFFFFFFFFFFFFFFFFFFFFFFFFFFFFFFFFFFFFF AND DUP2 PUSH20 0xFFFFFFFFFFFFFFFFFFFFFFFFFFFFFFFFFFFFFFFF AND PUSH32 0x8BE0079C531659141344CD1FD0A4F28419497F9722A3DAAFE3B4186F6B6457E0 PUSH1 0x40 MLOAD PUSH1 0x40 MLOAD DUP1 SWAP2 SUB SWAP1 LOG3 POP POP JUMP JUMPDEST PUSH2 0x2F3C PUSH2 0x28ED JUMP JUMPDEST PUSH1 0x1 PUSH0 DUP1 PUSH2 0x100 EXP DUP2 SLOAD DUP2 PUSH1 0xFF MUL NOT AND SWAP1 DUP4 ISZERO ISZERO MUL OR SWAP1 SSTORE POP PUSH32 0x62E78CEA01BEE320CD4E420270B5EA74000D11B0C9F74754EBDBFC544B05A258 PUSH2 0x2F7E PUSH2 0x3F7D JUMP JUMPDEST PUSH1 0x40 MLOAD PUSH2 0x2F8B SWAP2 SWAP1 PUSH2 0x48A7 JUMP JUMPDEST PUSH1 0x40 MLOAD DUP1 SWAP2 SUB SWAP1 LOG1 JUMP JUMPDEST PUSH0 PUSH1 0x5 DUP3 MLOAD LT ISZERO PUSH2 0x2FA8 JUMPI PUSH0 SWAP1 POP PUSH2 0x3025 JUMP JUMPDEST PUSH0 PUSH20 0xFFFFFFFFFFFFFFFFFFFFFFFFFFFFFFFFFFFFFFFF AND PUSH1 0x2E DUP4 PUSH1 0x40 MLOAD PUSH2 0x2FCF SWAP2 SWAP1 PUSH2 0x512D JUMP JUMPDEST SWAP1 DUP2 MSTORE PUSH1 0x20 ADD PUSH1 0x40 MLOAD DUP1 SWAP2 SUB SWAP1 KECCAK256 PUSH0 SWAP1 SLOAD SWAP1 PUSH2 0x100 EXP SWAP1 DIV PUSH20 0xFFFFFFFFFFFFFFFFFFFFFFFFFFFFFFFFFFFFFFFF AND PUSH20 0xFFFFFFFFFFFFFFFFFFFFFFFFFFFFFFFFFFFFFFFF AND SUB PUSH2 0x3020 JUMPI PUSH0 SWAP1 POP PUSH2 0x3025 JUMP JUMPDEST PUSH1 0x1 SWAP1 POP JUMPDEST SWAP2 SWAP1 POP JUMP JUMPDEST PUSH0 PUSH1 0x5 DUP3 MLOAD LT ISZERO PUSH2 0x3070 JUMPI PUSH1 0x40 MLOAD PUSH32 0x8C379A000000000000000000000000000000000000000000000000000000000 DUP2 MSTORE PUSH1 0x4 ADD PUSH2 0x3067 SWAP1 PUSH2 0x53C7 JUMP JUMPDEST PUSH1 0x40 MLOAD DUP1 SWAP2 SUB SWAP1 REVERT JUMPDEST PUSH1 0x2F PUSH0 DUP5 PUSH20 0xFFFFFFFFFFFFFFFFFFFFFFFFFFFFFFFFFFFFFFFF AND PUSH20 0xFFFFFFFFFFFFFFFFFFFFFFFFFFFFFFFFFFFFFFFF AND DUP2 MSTORE PUSH1 0x20 ADD SWAP1 DUP2 MSTORE PUSH1 0x20 ADD PUSH0 KECCAK256 PUSH0 SWAP1 SLOAD SWAP1 PUSH2 0x100 EXP SWAP1 DIV PUSH1 0xFF AND ISZERO DUP1 ISZERO PUSH2 0x312F JUMPI POP PUSH0 PUSH20 0xFFFFFFFFFFFFFFFFFFFFFFFFFFFFFFFFFFFFFFFF AND PUSH1 0x2E DUP4 PUSH1 0x40 MLOAD PUSH2 0x30E9 SWAP2 SWAP1 PUSH2 0x512D JUMP JUMPDEST SWAP1 DUP2 MSTORE PUSH1 0x20 ADD PUSH1 0x40 MLOAD DUP1 SWAP2 SUB SWAP1 KECCAK256 PUSH0 SWAP1 SLOAD SWAP1 PUSH2 0x100 EXP SWAP1 DIV PUSH20 0xFFFFFFFFFFFFFFFFFFFFFFFFFFFFFFFFFFFFFFFF AND PUSH20 0xFFFFFFFFFFFFFFFFFFFFFFFFFFFFFFFFFFFFFFFF AND EQ JUMPDEST PUSH2 0x316E JUMPI PUSH1 0x40 MLOAD PUSH32 0x8C379A000000000000000000000000000000000000000000000000000000000 DUP2 MSTORE PUSH1 0x4 ADD PUSH2 0x3165 SWAP1 PUSH2 0x5455 JUMP JUMPDEST PUSH1 0x40 MLOAD DUP1 SWAP2 SUB SWAP1 REVERT JUMPDEST DUP3 PUSH1 0x2E DUP4 PUSH1 0x40 MLOAD PUSH2 0x317F SWAP2 SWAP1 PUSH2 0x512D JUMP JUMPDEST SWAP1 DUP2 MSTORE PUSH1 0x20 ADD PUSH1 0x40 MLOAD DUP1 SWAP2 SUB SWAP1 KECCAK256 PUSH0 PUSH2 0x100 EXP DUP2 SLOAD DUP2 PUSH20 0xFFFFFFFFFFFFFFFFFFFFFFFFFFFFFFFFFFFFFFFF MUL NOT AND SWAP1 DUP4 PUSH20 0xFFFFFFFFFFFFFFFFFFFFFFFFFFFFFFFFFFFFFFFF AND MUL OR SWAP1 SSTORE POP PUSH1 0x1 PUSH1 0x2F PUSH0 DUP6 PUSH20 0xFFFFFFFFFFFFFFFFFFFFFFFFFFFFFFFFFFFFFFFF AND PUSH20 0xFFFFFFFFFFFFFFFFFFFFFFFFFFFFFFFFFFFFFFFF AND DUP2 MSTORE PUSH1 0x20 ADD SWAP1 DUP2 MSTORE PUSH1 0x20 ADD PUSH0 KECCAK256 PUSH0 PUSH2 0x100 EXP DUP2 SLOAD DUP2 PUSH1 0xFF MUL NOT AND SWAP1 DUP4 ISZERO ISZERO MUL OR SWAP1 SSTORE POP PUSH1 0x1 SWAP1 POP SWAP3 SWAP2 POP POP JUMP JUMPDEST PUSH0 PUSH2 0x324E DUP4 PUSH0 ADD DUP4 PUSH20 0xFFFFFFFFFFFFFFFFFFFFFFFFFFFFFFFFFFFFFFFF AND PUSH0 SHL PUSH2 0x41F5 JUMP JUMPDEST SWAP1 POP SWAP3 SWAP2 POP POP JUMP JUMPDEST PUSH0 PUSH2 0x327B DUP4 PUSH0 ADD DUP4 PUSH20 0xFFFFFFFFFFFFFFFFFFFFFFFFFFFFFFFFFFFFFFFF AND PUSH0 SHL PUSH2 0x4215 JUMP JUMPDEST SWAP1 POP SWAP3 SWAP2 POP POP JUMP JUMPDEST PUSH0 DUP3 PUSH1 0x23 PUSH0 DUP7 PUSH20 0xFFFFFFFFFFFFFFFFFFFFFFFFFFFFFFFFFFFFFFFF AND PUSH20 0xFFFFFFFFFFFFFFFFFFFFFFFFFFFFFFFFFFFFFFFF AND DUP2 MSTORE PUSH1 0x20 ADD SWAP1 DUP2 MSTORE PUSH1 0x20 ADD PUSH0 KECCAK256 PUSH0 PUSH2 0x100 EXP DUP2 SLOAD DUP2 PUSH20 0xFFFFFFFFFFFFFFFFFFFFFFFFFFFFFFFFFFFFFFFF MUL NOT AND SWAP1 DUP4 PUSH20 0xFFFFFFFFFFFFFFFFFFFFFFFFFFFFFFFFFFFFFFFF AND MUL OR SWAP1 SSTORE POP PUSH2 0x334E DUP5 PUSH1 0x24 PUSH0 DUP7 PUSH20 0xFFFFFFFFFFFFFFFFFFFFFFFFFFFFFFFFFFFFFFFF AND PUSH20 0xFFFFFFFFFFFFFFFFFFFFFFFFFFFFFFFFFFFFFFFF AND DUP2 MSTORE PUSH1 0x20 ADD SWAP1 DUP2 MSTORE PUSH1 0x20 ADD PUSH0 KECCAK256 PUSH2 0x3256 SWAP1 SWAP2 SWAP1 PUSH4 0xFFFFFFFF AND JUMP JUMPDEST POP TIMESTAMP PUSH1 0x2C PUSH0 DUP7 PUSH20 0xFFFFFFFFFFFFFFFFFFFFFFFFFFFFFFFFFFFFFFFF AND PUSH20 0xFFFFFFFFFFFFFFFFFFFFFFFFFFFFFFFFFFFFFFFF AND DUP2 MSTORE PUSH1 0x20 ADD SWAP1 DUP2 MSTORE PUSH1 0x20 ADD PUSH0 KECCAK256 DUP2 SWAP1 SSTORE POP DUP2 PUSH1 0x26 PUSH0 DUP6 PUSH20 0xFFFFFFFFFFFFFFFFFFFFFFFFFFFFFFFFFFFFFFFF AND PUSH20 0xFFFFFFFFFFFFFFFFFFFFFFFFFFFFFFFFFFFFFFFF AND DUP2 MSTORE PUSH1 0x20 ADD SWAP1 DUP2 MSTORE PUSH1 0x20 ADD PUSH0 KECCAK256 PUSH0 DUP7 PUSH20 0xFFFFFFFFFFFFFFFFFFFFFFFFFFFFFFFFFFFFFFFF AND PUSH20 0xFFFFFFFFFFFFFFFFFFFFFFFFFFFFFFFFFFFFFFFF AND DUP2 MSTORE PUSH1 0x20 ADD SWAP1 DUP2 MSTORE PUSH1 0x20 ADD PUSH0 KECCAK256 DUP2 SWAP1 SSTORE POP PUSH0 PUSH2 0x2710 PUSH1 0x1A SLOAD DUP5 PUSH2 0x3420 SWAP2 SWAP1 PUSH2 0x4D94 JUMP JUMPDEST PUSH2 0x342A SWAP2 SWAP1 PUSH2 0x4E02 JUMP JUMPDEST SWAP1 POP PUSH1 0x40 MLOAD DUP1 PUSH1 0x80 ADD PUSH1 0x40 MSTORE DUP1 DUP3 DUP2 MSTORE PUSH1 0x20 ADD TIMESTAMP DUP2 MSTORE PUSH1 0x20 ADD PUSH0 DUP2 MSTORE PUSH1 0x20 ADD TIMESTAMP DUP2 MSTORE POP PUSH1 0xD PUSH0 DUP7 PUSH20 0xFFFFFFFFFFFFFFFFFFFFFFFFFFFFFFFFFFFFFFFF AND PUSH20 0xFFFFFFFFFFFFFFFFFFFFFFFFFFFFFFFFFFFFFFFF AND DUP2 MSTORE PUSH1 0x20 ADD SWAP1 DUP2 MSTORE PUSH1 0x20 ADD PUSH0 KECCAK256 PUSH0 DUP8 PUSH20 0xFFFFFFFFFFFFFFFFFFFFFFFFFFFFFFFFFFFFFFFF AND PUSH20 0xFFFFFFFFFFFFFFFFFFFFFFFFFFFFFFFFFFFFFFFF AND DUP2 MSTORE PUSH1 0x20 ADD SWAP1 DUP2 MSTORE PUSH1 0x20 ADD PUSH0 KECCAK256 PUSH0 DUP3 ADD MLOAD DUP2 PUSH0 ADD SSTORE PUSH1 0x20 DUP3 ADD MLOAD DUP2 PUSH1 0x1 ADD SSTORE PUSH1 0x40 DUP3 ADD MLOAD DUP2 PUSH1 0x2 ADD SSTORE PUSH1 0x60 DUP3 ADD MLOAD DUP2 PUSH1 0x3 ADD SSTORE SWAP1 POP POP PUSH1 0x1C SLOAD DUP2 PUSH2 0x34FC SWAP2 SWAP1 PUSH2 0x4E02 JUMP JUMPDEST PUSH1 0x2A PUSH0 DUP8 PUSH20 0xFFFFFFFFFFFFFFFFFFFFFFFFFFFFFFFFFFFFFFFF AND PUSH20 0xFFFFFFFFFFFFFFFFFFFFFFFFFFFFFFFFFFFFFFFF AND DUP2 MSTORE PUSH1 0x20 ADD SWAP1 DUP2 MSTORE PUSH1 0x20 ADD PUSH0 KECCAK256 DUP2 SWAP1 SSTORE POP PUSH0 DUP1 PUSH20 0xFFFFFFFFFFFFFFFFFFFFFFFFFFFFFFFFFFFFFFFF AND PUSH1 0x23 PUSH0 DUP8 PUSH20 0xFFFFFFFFFFFFFFFFFFFFFFFFFFFFFFFFFFFFFFFF AND PUSH20 0xFFFFFFFFFFFFFFFFFFFFFFFFFFFFFFFFFFFFFFFF AND DUP2 MSTORE PUSH1 0x20 ADD SWAP1 DUP2 MSTORE PUSH1 0x20 ADD PUSH0 KECCAK256 PUSH0 SWAP1 SLOAD SWAP1 PUSH2 0x100 EXP SWAP1 DIV PUSH20 0xFFFFFFFFFFFFFFFFFFFFFFFFFFFFFFFFFFFFFFFF AND PUSH20 0xFFFFFFFFFFFFFFFFFFFFFFFFFFFFFFFFFFFFFFFF AND EQ PUSH2 0x37AD JUMPI PUSH0 PUSH1 0x23 PUSH0 DUP8 PUSH20 0xFFFFFFFFFFFFFFFFFFFFFFFFFFFFFFFFFFFFFFFF AND PUSH20 0xFFFFFFFFFFFFFFFFFFFFFFFFFFFFFFFFFFFFFFFF AND DUP2 MSTORE PUSH1 0x20 ADD SWAP1 DUP2 MSTORE PUSH1 0x20 ADD PUSH0 KECCAK256 PUSH0 SWAP1 SLOAD SWAP1 PUSH2 0x100 EXP SWAP1 DIV PUSH20 0xFFFFFFFFFFFFFFFFFFFFFFFFFFFFFFFFFFFFFFFF AND SWAP1 POP PUSH2 0x367C DUP8 PUSH1 0x25 PUSH0 DUP5 PUSH20 0xFFFFFFFFFFFFFFFFFFFFFFFFFFFFFFFFFFFFFFFF AND PUSH20 0xFFFFFFFFFFFFFFFFFFFFFFFFFFFFFFFFFFFFFFFF AND DUP2 MSTORE PUSH1 0x20 ADD SWAP1 DUP2 MSTORE PUSH1 0x20 ADD PUSH0 KECCAK256 PUSH2 0x3256 SWAP1 SWAP2 SWAP1 PUSH4 0xFFFFFFFF AND JUMP JUMPDEST POP PUSH2 0x2710 PUSH1 0x1B SLOAD DUP7 PUSH2 0x368E SWAP2 SWAP1 PUSH2 0x4D94 JUMP JUMPDEST PUSH2 0x3698 SWAP2 SWAP1 PUSH2 0x4E02 JUMP JUMPDEST SWAP2 POP PUSH1 0x40 MLOAD DUP1 PUSH1 0x80 ADD PUSH1 0x40 MSTORE DUP1 DUP4 DUP2 MSTORE PUSH1 0x20 ADD TIMESTAMP DUP2 MSTORE PUSH1 0x20 ADD PUSH0 DUP2 MSTORE PUSH1 0x20 ADD TIMESTAMP DUP2 MSTORE POP PUSH1 0xE PUSH0 DUP4 PUSH20 0xFFFFFFFFFFFFFFFFFFFFFFFFFFFFFFFFFFFFFFFF AND PUSH20 0xFFFFFFFFFFFFFFFFFFFFFFFFFFFFFFFFFFFFFFFF AND DUP2 MSTORE PUSH1 0x20 ADD SWAP1 DUP2 MSTORE PUSH1 0x20 ADD PUSH0 KECCAK256 PUSH0 DUP10 PUSH20 0xFFFFFFFFFFFFFFFFFFFFFFFFFFFFFFFFFFFFFFFF AND PUSH20 0xFFFFFFFFFFFFFFFFFFFFFFFFFFFFFFFFFFFFFFFF AND DUP2 MSTORE PUSH1 0x20 ADD SWAP1 DUP2 MSTORE PUSH1 0x20 ADD PUSH0 KECCAK256 PUSH0 DUP3 ADD MLOAD DUP2 PUSH0 ADD SSTORE PUSH1 0x20 DUP3 ADD MLOAD DUP2 PUSH1 0x1 ADD SSTORE PUSH1 0x40 DUP3 ADD MLOAD DUP2 PUSH1 0x2 ADD SSTORE PUSH1 0x60 DUP3 ADD MLOAD DUP2 PUSH1 0x3 ADD SSTORE SWAP1 POP POP PUSH1 0x1C SLOAD DUP3 PUSH2 0x376A SWAP2 SWAP1 PUSH2 0x4E02 JUMP JUMPDEST PUSH1 0x2B PUSH0 DUP10 PUSH20 0xFFFFFFFFFFFFFFFFFFFFFFFFFFFFFFFFFFFFFFFF AND PUSH20 0xFFFFFFFFFFFFFFFFFFFFFFFFFFFFFFFFFFFFFFFF AND DUP2 MSTORE PUSH1 0x20 ADD SWAP1 DUP2 MSTORE PUSH1 0x20 ADD PUSH0 KECCAK256 DUP2 SWAP1 SSTORE POP POP JUMPDEST DUP1 DUP3 PUSH2 0x37B9 SWAP2 SWAP1 PUSH2 0x5206 JUMP JUMPDEST PUSH1 0x2D PUSH0 DUP3 DUP3 SLOAD PUSH2 0x37C9 SWAP2 SWAP1 PUSH2 0x5206 JUMP JUMPDEST SWAP3 POP POP DUP2 SWAP1 SSTORE POP PUSH1 0x1 SWAP3 POP POP POP SWAP4 SWAP3 POP POP POP JUMP JUMPDEST PUSH1 0x2 PUSH1 0x1 SLOAD SUB PUSH2 0x3822 JUMPI PUSH1 0x40 MLOAD PUSH32 0x8C379A000000000000000000000000000000000000000000000000000000000 DUP2 MSTORE PUSH1 0x4 ADD PUSH2 0x3819 SWAP1 PUSH2 0x54BD JUMP JUMPDEST PUSH1 0x40 MLOAD DUP1 SWAP2 SUB SWAP1 REVERT JUMPDEST PUSH1 0x2 PUSH1 0x1 DUP2 SWAP1 SSTORE POP JUMP JUMPDEST PUSH1 0x60 PUSH0 PUSH2 0x383A DUP4 PUSH0 ADD PUSH2 0x427C JUMP JUMPDEST SWAP1 POP PUSH1 0x60 DUP2 SWAP1 POP DUP1 SWAP3 POP POP POP SWAP2 SWAP1 POP JUMP JUMPDEST PUSH0 PUSH3 0x278D00 DUP3 PUSH1 0x1 ADD SLOAD PUSH2 0x385F SWAP2 SWAP1 PUSH2 0x5206 JUMP JUMPDEST TIMESTAMP LT PUSH2 0x387F JUMPI DUP2 PUSH1 0x2 ADD SLOAD DUP3 PUSH0 ADD SLOAD PUSH2 0x3878 SWAP2 SWAP1 PUSH2 0x4E32 JUMP JUMPDEST SWAP1 POP PUSH2 0x38EF JUMP JUMPDEST PUSH0 DUP3 PUSH1 0x3 ADD SLOAD TIMESTAMP PUSH2 0x3890 SWAP2 SWAP1 PUSH2 0x4E32 JUMP JUMPDEST SWAP1 POP PUSH0 PUSH3 0x278D00 SWAP1 POP PUSH0 DUP2 DUP4 DUP7 PUSH0 ADD SLOAD PUSH2 0x38AA SWAP2 SWAP1 PUSH2 0x4D94 JUMP JUMPDEST PUSH2 0x38B4 SWAP2 SWAP1 PUSH2 0x4E02 JUMP JUMPDEST SWAP1 POP DUP5 PUSH1 0x2 ADD SLOAD DUP6 PUSH0 ADD SLOAD PUSH2 0x38C9 SWAP2 SWAP1 PUSH2 0x4E32 JUMP JUMPDEST DUP2 GT PUSH2 0x38D5 JUMPI DUP1 PUSH2 0x38E9 JUMP JUMPDEST DUP5 PUSH1 0x2 ADD SLOAD DUP6 PUSH0 ADD SLOAD PUSH2 0x38E8 SWAP2 SWAP1 PUSH2 0x4E32 JUMP JUMPDEST JUMPDEST SWAP4 POP POP POP POP JUMPDEST SWAP2 SWAP1 POP JUMP JUMPDEST PUSH0 DUP1 DUP3 SWAP1 POP PUSH0 DUP2 GT ISZERO PUSH2 0x3A8B JUMPI PUSH0 PUSH1 0x2 PUSH0 SWAP1 SLOAD SWAP1 PUSH2 0x100 EXP SWAP1 DIV PUSH20 0xFFFFFFFFFFFFFFFFFFFFFFFFFFFFFFFFFFFFFFFF AND PUSH20 0xFFFFFFFFFFFFFFFFFFFFFFFFFFFFFFFFFFFFFFFF AND PUSH4 0x70A08231 PUSH1 0x6 PUSH0 SWAP1 SLOAD SWAP1 PUSH2 0x100 EXP SWAP1 DIV PUSH20 0xFFFFFFFFFFFFFFFFFFFFFFFFFFFFFFFFFFFFFFFF AND PUSH1 0x40 MLOAD DUP3 PUSH4 0xFFFFFFFF AND PUSH1 0xE0 SHL DUP2 MSTORE PUSH1 0x4 ADD PUSH2 0x397D SWAP2 SWAP1 PUSH2 0x48A7 JUMP JUMPDEST PUSH1 0x20 PUSH1 0x40 MLOAD DUP1 DUP4 SUB DUP2 DUP7 GAS STATICCALL ISZERO DUP1 ISZERO PUSH2 0x3998 JUMPI RETURNDATASIZE PUSH0 DUP1 RETURNDATACOPY RETURNDATASIZE PUSH0 REVERT JUMPDEST POP POP POP POP PUSH1 0x40 MLOAD RETURNDATASIZE PUSH1 0x1F NOT PUSH1 0x1F DUP3 ADD AND DUP3 ADD DUP1 PUSH1 0x40 MSTORE POP DUP2 ADD SWAP1 PUSH2 0x39BC SWAP2 SWAP1 PUSH2 0x54EF JUMP JUMPDEST SWAP1 POP DUP2 DUP2 GT PUSH2 0x39C9 JUMPI PUSH0 DUP1 REVERT JUMPDEST PUSH1 0x2 PUSH0 SWAP1 SLOAD SWAP1 PUSH2 0x100 EXP SWAP1 DIV PUSH20 0xFFFFFFFFFFFFFFFFFFFFFFFFFFFFFFFFFFFFFFFF AND PUSH20 0xFFFFFFFFFFFFFFFFFFFFFFFFFFFFFFFFFFFFFFFF AND PUSH4 0x23B872DD PUSH1 0x6 PUSH0 SWAP1 SLOAD SWAP1 PUSH2 0x100 EXP SWAP1 DIV PUSH20 0xFFFFFFFFFFFFFFFFFFFFFFFFFFFFFFFFFFFFFFFF AND CALLER DUP6 PUSH1 0x40 MLOAD DUP5 PUSH4 0xFFFFFFFF AND PUSH1 0xE0 SHL DUP2 MSTORE PUSH1 0x4 ADD PUSH2 0x3A48 SWAP4 SWAP3 SWAP2 SWAP1 PUSH2 0x51D1 JUMP JUMPDEST PUSH1 0x20 PUSH1 0x40 MLOAD DUP1 DUP4 SUB DUP2 PUSH0 DUP8 GAS CALL ISZERO DUP1 ISZERO PUSH2 0x3A64 JUMPI RETURNDATASIZE PUSH0 DUP1 RETURNDATACOPY RETURNDATASIZE PUSH0 REVERT JUMPDEST POP POP POP POP PUSH1 0x40 MLOAD RETURNDATASIZE PUSH1 0x1F NOT PUSH1 0x1F DUP3 ADD AND DUP3 ADD DUP1 PUSH1 0x40 MSTORE POP DUP2 ADD SWAP1 PUSH2 0x3A88 SWAP2 SWAP1 PUSH2 0x4EB6 JUMP JUMPDEST POP POP JUMPDEST PUSH0 SWAP2 POP POP SWAP2 SWAP1 POP JUMP JUMPDEST PUSH1 0x1 DUP1 DUP2 SWAP1 SSTORE POP JUMP JUMPDEST PUSH0 DUP1 PUSH1 0x13 SLOAD EQ DUP1 PUSH2 0x3AAD JUMPI POP PUSH0 DUP3 EQ JUMPDEST ISZERO PUSH2 0x3ABA JUMPI PUSH0 SWAP1 POP PUSH2 0x3BDD JUMP JUMPDEST PUSH0 PUSH2 0x3AC3 PUSH2 0x42D5 JUMP JUMPDEST SWAP1 POP PUSH0 PUSH1 0x15 SLOAD PUSH1 0x13 SLOAD GT PUSH2 0x3AD7 JUMPI PUSH0 PUSH2 0x3AE8 JUMP JUMPDEST PUSH1 0x15 SLOAD PUSH1 0x13 SLOAD PUSH2 0x3AE7 SWAP2 SWAP1 PUSH2 0x4E32 JUMP JUMPDEST JUMPDEST SWAP1 POP PUSH0 PUSH2 0x2710 PUSH1 0x1B SLOAD PUSH1 0x1A SLOAD PUSH2 0x3AFE SWAP2 SWAP1 PUSH2 0x5206 JUMP JUMPDEST DUP4 PUSH2 0x3B09 SWAP2 SWAP1 PUSH2 0x4D94 JUMP JUMPDEST PUSH2 0x3B13 SWAP2 SWAP1 PUSH2 0x4E02 JUMP JUMPDEST SWAP1 POP PUSH0 PUSH2 0x2710 DUP5 PUSH1 0xC SLOAD PUSH2 0x3B27 SWAP2 SWAP1 PUSH2 0x4D94 JUMP JUMPDEST PUSH2 0x3B31 SWAP2 SWAP1 PUSH2 0x4E02 JUMP JUMPDEST SWAP1 POP PUSH1 0x14 SLOAD PUSH1 0xC SLOAD DUP3 DUP5 PUSH2 0x3B45 SWAP2 SWAP1 PUSH2 0x5206 JUMP JUMPDEST PUSH2 0x3B4F SWAP2 SWAP1 PUSH2 0x5206 JUMP JUMPDEST GT ISZERO PUSH2 0x3B61 JUMPI PUSH0 SWAP5 POP POP POP POP POP PUSH2 0x3BDD JUMP JUMPDEST PUSH0 PUSH2 0x2710 PUSH1 0x8 SLOAD PUSH1 0xC SLOAD DUP6 DUP6 PUSH1 0x14 SLOAD PUSH2 0x3B7A SWAP2 SWAP1 PUSH2 0x4E32 JUMP JUMPDEST PUSH2 0x3B84 SWAP2 SWAP1 PUSH2 0x4E32 JUMP JUMPDEST PUSH2 0x3B8E SWAP2 SWAP1 PUSH2 0x4E32 JUMP JUMPDEST PUSH2 0x3B98 SWAP2 SWAP1 PUSH2 0x4D94 JUMP JUMPDEST PUSH2 0x3BA2 SWAP2 SWAP1 PUSH2 0x4E02 JUMP JUMPDEST SWAP1 POP PUSH0 DUP8 PUSH1 0x13 SLOAD PUSH8 0xDE0B6B3A7640000 DUP5 PUSH2 0x3BBD SWAP2 SWAP1 PUSH2 0x4D94 JUMP JUMPDEST PUSH2 0x3BC7 SWAP2 SWAP1 PUSH2 0x4E02 JUMP JUMPDEST PUSH2 0x3BD1 SWAP2 SWAP1 PUSH2 0x4E02 JUMP JUMPDEST SWAP1 POP DUP1 SWAP7 POP POP POP POP POP POP POP JUMPDEST SWAP2 SWAP1 POP JUMP JUMPDEST PUSH0 DUP1 PUSH0 DUP1 PUSH0 PUSH1 0x2A PUSH0 DUP9 PUSH20 0xFFFFFFFFFFFFFFFFFFFFFFFFFFFFFFFFFFFFFFFF AND PUSH20 0xFFFFFFFFFFFFFFFFFFFFFFFFFFFFFFFFFFFFFFFF AND DUP2 MSTORE PUSH1 0x20 ADD SWAP1 DUP2 MSTORE PUSH1 0x20 ADD PUSH0 KECCAK256 SLOAD GT ISZERO PUSH2 0x3D2C JUMPI PUSH2 0x2710 PUSH1 0x16 PUSH0 DUP9 PUSH20 0xFFFFFFFFFFFFFFFFFFFFFFFFFFFFFFFFFFFFFFFF AND PUSH20 0xFFFFFFFFFFFFFFFFFFFFFFFFFFFFFFFFFFFFFFFF AND DUP2 MSTORE PUSH1 0x20 ADD SWAP1 DUP2 MSTORE PUSH1 0x20 ADD PUSH0 KECCAK256 SLOAD PUSH2 0x2710 DUP8 PUSH1 0x2A PUSH0 DUP12 PUSH20 0xFFFFFFFFFFFFFFFFFFFFFFFFFFFFFFFFFFFFFFFF AND PUSH20 0xFFFFFFFFFFFFFFFFFFFFFFFFFFFFFFFFFFFFFFFF AND DUP2 MSTORE PUSH1 0x20 ADD SWAP1 DUP2 MSTORE PUSH1 0x20 ADD PUSH0 KECCAK256 SLOAD PUSH2 0x3CB8 SWAP2 SWAP1 PUSH2 0x4D94 JUMP JUMPDEST PUSH2 0x3CC2 SWAP2 SWAP1 PUSH2 0x4D94 JUMP JUMPDEST PUSH2 0x3CCC SWAP2 SWAP1 PUSH2 0x4E02 JUMP JUMPDEST PUSH2 0x3CD6 SWAP2 SWAP1 PUSH2 0x4E02 JUMP JUMPDEST SWAP2 POP DUP2 PUSH1 0x2A PUSH0 DUP9 PUSH20 0xFFFFFFFFFFFFFFFFFFFFFFFFFFFFFFFFFFFFFFFF AND PUSH20 0xFFFFFFFFFFFFFFFFFFFFFFFFFFFFFFFFFFFFFFFF AND DUP2 MSTORE PUSH1 0x20 ADD SWAP1 DUP2 MSTORE PUSH1 0x20 ADD PUSH0 KECCAK256 PUSH0 DUP3 DUP3 SLOAD PUSH2 0x3D24 SWAP2 SWAP1 PUSH2 0x4E32 JUMP JUMPDEST SWAP3 POP POP DUP2 SWAP1 SSTORE POP JUMPDEST PUSH0 PUSH1 0x2B PUSH0 DUP9 PUSH20 0xFFFFFFFFFFFFFFFFFFFFFFFFFFFFFFFFFFFFFFFF AND PUSH20 0xFFFFFFFFFFFFFFFFFFFFFFFFFFFFFFFFFFFFFFFF AND DUP2 MSTORE PUSH1 0x20 ADD SWAP1 DUP2 MSTORE PUSH1 0x20 ADD PUSH0 KECCAK256 SLOAD GT ISZERO PUSH2 0x3E72 JUMPI PUSH2 0x2710 PUSH1 0x16 PUSH0 DUP9 PUSH20 0xFFFFFFFFFFFFFFFFFFFFFFFFFFFFFFFFFFFFFFFF AND PUSH20 0xFFFFFFFFFFFFFFFFFFFFFFFFFFFFFFFFFFFFFFFF AND DUP2 MSTORE PUSH1 0x20 ADD SWAP1 DUP2 MSTORE PUSH1 0x20 ADD PUSH0 KECCAK256 SLOAD PUSH2 0x2710 DUP8 PUSH1 0x2B PUSH0 DUP12 PUSH20 0xFFFFFFFFFFFFFFFFFFFFFFFFFFFFFFFFFFFFFFFF AND PUSH20 0xFFFFFFFFFFFFFFFFFFFFFFFFFFFFFFFFFFFFFFFF AND DUP2 MSTORE PUSH1 0x20 ADD SWAP1 DUP2 MSTORE PUSH1 0x20 ADD PUSH0 KECCAK256 SLOAD PUSH2 0x3DFE SWAP2 SWAP1 PUSH2 0x4D94 JUMP JUMPDEST PUSH2 0x3E08 SWAP2 SWAP1 PUSH2 0x4D94 JUMP JUMPDEST PUSH2 0x3E12 SWAP2 SWAP1 PUSH2 0x4E02 JUMP JUMPDEST PUSH2 0x3E1C SWAP2 SWAP1 PUSH2 0x4E02 JUMP JUMPDEST SWAP1 POP DUP1 PUSH1 0x2B PUSH0 DUP9 PUSH20 0xFFFFFFFFFFFFFFFFFFFFFFFFFFFFFFFFFFFFFFFF AND PUSH20 0xFFFFFFFFFFFFFFFFFFFFFFFFFFFFFFFFFFFFFFFF AND DUP2 MSTORE PUSH1 0x20 ADD SWAP1 DUP2 MSTORE PUSH1 0x20 ADD PUSH0 KECCAK256 PUSH0 DUP3 DUP3 SLOAD PUSH2 0x3E6A SWAP2 SWAP1 PUSH2 0x4E32 JUMP JUMPDEST SWAP3 POP POP DUP2 SWAP1 SSTORE POP JUMPDEST DUP2 DUP2 SWAP4 POP SWAP4 POP POP POP SWAP3 POP SWAP3 SWAP1 POP JUMP JUMPDEST PUSH0 DUP1 DUP4 PUSH1 0x1 ADD PUSH0 DUP5 DUP2 MSTORE PUSH1 0x20 ADD SWAP1 DUP2 MSTORE PUSH1 0x20 ADD PUSH0 KECCAK256 SLOAD SWAP1 POP PUSH0 DUP2 EQ PUSH2 0x3F72 JUMPI PUSH0 PUSH1 0x1 DUP3 PUSH2 0x3EAE SWAP2 SWAP1 PUSH2 0x4E32 JUMP JUMPDEST SWAP1 POP PUSH0 PUSH1 0x1 DUP7 PUSH0 ADD DUP1 SLOAD SWAP1 POP PUSH2 0x3EC4 SWAP2 SWAP1 PUSH2 0x4E32 JUMP JUMPDEST SWAP1 POP DUP1 DUP3 EQ PUSH2 0x3F2A JUMPI PUSH0 DUP7 PUSH0 ADD DUP3 DUP2 SLOAD DUP2 LT PUSH2 0x3EE3 JUMPI PUSH2 0x3EE2 PUSH2 0x5239 JUMP JUMPDEST JUMPDEST SWAP1 PUSH0 MSTORE PUSH1 0x20 PUSH0 KECCAK256 ADD SLOAD SWAP1 POP DUP1 DUP8 PUSH0 ADD DUP5 DUP2 SLOAD DUP2 LT PUSH2 0x3F04 JUMPI PUSH2 0x3F03 PUSH2 0x5239 JUMP JUMPDEST JUMPDEST SWAP1 PUSH0 MSTORE PUSH1 0x20 PUSH0 KECCAK256 ADD DUP2 SWAP1 SSTORE POP DUP4 DUP8 PUSH1 0x1 ADD PUSH0 DUP4 DUP2 MSTORE PUSH1 0x20 ADD SWAP1 DUP2 MSTORE PUSH1 0x20 ADD PUSH0 KECCAK256 DUP2 SWAP1 SSTORE POP POP JUMPDEST DUP6 PUSH0 ADD DUP1 SLOAD DUP1 PUSH2 0x3F3D JUMPI PUSH2 0x3F3C PUSH2 0x551A JUMP JUMPDEST JUMPDEST PUSH1 0x1 SWAP1 SUB DUP2 DUP2 SWAP1 PUSH0 MSTORE PUSH1 0x20 PUSH0 KECCAK256 ADD PUSH0 SWAP1 SSTORE SWAP1 SSTORE DUP6 PUSH1 0x1 ADD PUSH0 DUP7 DUP2 MSTORE PUSH1 0x20 ADD SWAP1 DUP2 MSTORE PUSH1 0x20 ADD PUSH0 KECCAK256 PUSH0 SWAP1 SSTORE PUSH1 0x1 SWAP4 POP POP POP POP PUSH2 0x3F77 JUMP JUMPDEST PUSH0 SWAP2 POP POP JUMPDEST SWAP3 SWAP2 POP POP JUMP JUMPDEST PUSH0 CALLER SWAP1 POP SWAP1 JUMP JUMPDEST PUSH2 0x3F8C PUSH2 0x1629 JUMP JUMPDEST PUSH2 0x3FCB JUMPI PUSH1 0x40 MLOAD PUSH32 0x8C379A000000000000000000000000000000000000000000000000000000000 DUP2 MSTORE PUSH1 0x4 ADD PUSH2 0x3FC2 SWAP1 PUSH2 0x5591 JUMP JUMPDEST PUSH1 0x40 MLOAD DUP1 SWAP2 SUB SWAP1 REVERT JUMPDEST JUMP JUMPDEST PUSH0 PUSH2 0x3FD8 PUSH1 0x4 PUSH2 0x382C JUMP JUMPDEST SWAP1 POP PUSH0 DUP3 DUP5 PUSH2 0x3FE7 SWAP2 SWAP1 PUSH2 0x5206 JUMP JUMPDEST SWAP1 POP DUP2 MLOAD DUP2 GT ISZERO PUSH2 0x3FF7 JUMPI DUP2 MLOAD SWAP1 POP JUMPDEST PUSH0 DUP1 PUSH0 DUP7 SWAP1 POP JUMPDEST DUP4 DUP2 LT ISZERO PUSH2 0x410D JUMPI PUSH2 0x4029 DUP6 DUP3 DUP2 MLOAD DUP2 LT PUSH2 0x401C JUMPI PUSH2 0x401B PUSH2 0x5239 JUMP JUMPDEST JUMPDEST PUSH1 0x20 MUL PUSH1 0x20 ADD ADD MLOAD PUSH2 0x434C JUMP JUMPDEST SWAP3 POP TIMESTAMP PUSH1 0x10 PUSH0 DUP8 DUP5 DUP2 MLOAD DUP2 LT PUSH2 0x4042 JUMPI PUSH2 0x4041 PUSH2 0x5239 JUMP JUMPDEST JUMPDEST PUSH1 0x20 MUL PUSH1 0x20 ADD ADD MLOAD PUSH20 0xFFFFFFFFFFFFFFFFFFFFFFFFFFFFFFFFFFFFFFFF AND PUSH20 0xFFFFFFFFFFFFFFFFFFFFFFFFFFFFFFFFFFFFFFFF AND DUP2 MSTORE PUSH1 0x20 ADD SWAP1 DUP2 MSTORE PUSH1 0x20 ADD PUSH0 KECCAK256 DUP2 SWAP1 SSTORE POP DUP3 PUSH1 0x9 PUSH0 DUP8 DUP5 DUP2 MLOAD DUP2 LT PUSH2 0x409E JUMPI PUSH2 0x409D PUSH2 0x5239 JUMP JUMPDEST JUMPDEST PUSH1 0x20 MUL PUSH1 0x20 ADD ADD MLOAD PUSH20 0xFFFFFFFFFFFFFFFFFFFFFFFFFFFFFFFFFFFFFFFF AND PUSH20 0xFFFFFFFFFFFFFFFFFFFFFFFFFFFFFFFFFFFFFFFF AND DUP2 MSTORE PUSH1 0x20 ADD SWAP1 DUP2 MSTORE PUSH1 0x20 ADD PUSH0 KECCAK256 PUSH0 DUP3 DUP3 SLOAD PUSH2 0x40ED SWAP2 SWAP1 PUSH2 0x5206 JUMP JUMPDEST SWAP3 POP POP DUP2 SWAP1 SSTORE POP DUP3 DUP3 PUSH2 0x4100 SWAP2 SWAP1 PUSH2 0x5206 JUMP JUMPDEST SWAP2 POP DUP1 PUSH1 0x1 ADD SWAP1 POP PUSH2 0x3FFE JUMP JUMPDEST POP DUP1 PUSH1 0xC PUSH0 DUP3 DUP3 SLOAD PUSH2 0x411F SWAP2 SWAP1 PUSH2 0x5206 JUMP JUMPDEST SWAP3 POP POP DUP2 SWAP1 SSTORE POP PUSH1 0x2 PUSH0 SWAP1 SLOAD SWAP1 PUSH2 0x100 EXP SWAP1 DIV PUSH20 0xFFFFFFFFFFFFFFFFFFFFFFFFFFFFFFFFFFFFFFFF AND PUSH20 0xFFFFFFFFFFFFFFFFFFFFFFFFFFFFFFFFFFFFFFFF AND PUSH4 0x70A08231 PUSH1 0x6 PUSH0 SWAP1 SLOAD SWAP1 PUSH2 0x100 EXP SWAP1 DIV PUSH20 0xFFFFFFFFFFFFFFFFFFFFFFFFFFFFFFFFFFFFFFFF AND PUSH1 0x40 MLOAD DUP3 PUSH4 0xFFFFFFFF AND PUSH1 0xE0 SHL DUP2 MSTORE PUSH1 0x4 ADD PUSH2 0x41A1 SWAP2 SWAP1 PUSH2 0x48A7 JUMP JUMPDEST PUSH1 0x20 PUSH1 0x40 MLOAD DUP1 DUP4 SUB DUP2 DUP7 GAS STATICCALL ISZERO DUP1 ISZERO PUSH2 0x41BC JUMPI RETURNDATASIZE PUSH0 DUP1 RETURNDATACOPY RETURNDATASIZE PUSH0 REVERT JUMPDEST POP POP POP POP PUSH1 0x40 MLOAD RETURNDATASIZE PUSH1 0x1F NOT PUSH1 0x1F DUP3 ADD AND DUP3 ADD DUP1 PUSH1 0x40 MSTORE POP DUP2 ADD SWAP1 PUSH2 0x41E0 SWAP2 SWAP1 PUSH2 0x54EF JUMP JUMPDEST PUSH1 0x14 DUP2 SWAP1 SSTORE POP DUP3 PUSH1 0xA DUP2 SWAP1 SSTORE POP POP POP POP POP POP POP JUMP JUMPDEST PUSH0 DUP1 DUP4 PUSH1 0x1 ADD PUSH0 DUP5 DUP2 MSTORE PUSH1 0x20 ADD SWAP1 DUP2 MSTORE PUSH1 0x20 ADD PUSH0 KECCAK256 SLOAD EQ ISZERO SWAP1 POP SWAP3 SWAP2 POP POP JUMP JUMPDEST PUSH0 PUSH2 0x4220 DUP4 DUP4 PUSH2 0x41F5 JUMP JUMPDEST PUSH2 0x4272 JUMPI DUP3 PUSH0 ADD DUP3 SWAP1 DUP1 PUSH1 0x1 DUP2 SLOAD ADD DUP1 DUP3 SSTORE DUP1 SWAP2 POP POP PUSH1 0x1 SWAP1 SUB SWAP1 PUSH0 MSTORE PUSH1 0x20 PUSH0 KECCAK256 ADD PUSH0 SWAP1 SWAP2 SWAP1 SWAP2 SWAP1 SWAP2 POP SSTORE DUP3 PUSH0 ADD DUP1 SLOAD SWAP1 POP DUP4 PUSH1 0x1 ADD PUSH0 DUP5 DUP2 MSTORE PUSH1 0x20 ADD SWAP1 DUP2 MSTORE PUSH1 0x20 ADD PUSH0 KECCAK256 DUP2 SWAP1 SSTORE POP PUSH1 0x1 SWAP1 POP PUSH2 0x4276 JUMP JUMPDEST PUSH0 SWAP1 POP JUMPDEST SWAP3 SWAP2 POP POP JUMP JUMPDEST PUSH1 0x60 DUP2 PUSH0 ADD DUP1 SLOAD DUP1 PUSH1 0x20 MUL PUSH1 0x20 ADD PUSH1 0x40 MLOAD SWAP1 DUP2 ADD PUSH1 0x40 MSTORE DUP1 SWAP3 SWAP2 SWAP1 DUP2 DUP2 MSTORE PUSH1 0x20 ADD DUP3 DUP1 SLOAD DUP1 ISZERO PUSH2 0x42C9 JUMPI PUSH1 0x20 MUL DUP3 ADD SWAP2 SWAP1 PUSH0 MSTORE PUSH1 0x20 PUSH0 KECCAK256 SWAP1 JUMPDEST DUP2 SLOAD DUP2 MSTORE PUSH1 0x20 ADD SWAP1 PUSH1 0x1 ADD SWAP1 DUP1 DUP4 GT PUSH2 0x42B5 JUMPI JUMPDEST POP POP POP POP POP SWAP1 POP SWAP2 SWAP1 POP JUMP JUMPDEST PUSH0 DUP1 PUSH1 0x1F SLOAD PUSH1 0x1F SLOAD PUSH1 0x3 SLOAD PUSH2 0x42EA SWAP2 SWAP1 PUSH2 0x4E02 JUMP JUMPDEST PUSH2 0x42F4 SWAP2 SWAP1 PUSH2 0x4D94 JUMP JUMPDEST PUSH1 0x1F SLOAD PUSH1 0x1F SLOAD TIMESTAMP PUSH2 0x4305 SWAP2 SWAP1 PUSH2 0x4E02 JUMP JUMPDEST PUSH2 0x430F SWAP2 SWAP1 PUSH2 0x4D94 JUMP JUMPDEST PUSH2 0x4319 SWAP2 SWAP1 PUSH2 0x4E32 JUMP JUMPDEST SWAP1 POP PUSH0 PUSH1 0x1F SLOAD DUP3 PUSH1 0x20 SLOAD PUSH2 0x432D SWAP2 SWAP1 PUSH2 0x4D94 JUMP JUMPDEST PUSH2 0x4337 SWAP2 SWAP1 PUSH2 0x4E02 JUMP JUMPDEST SWAP1 POP PUSH2 0x4345 DUP2 PUSH1 0x1E SLOAD PUSH2 0x45B5 JUMP JUMPDEST SWAP3 POP POP POP SWAP1 JUMP JUMPDEST PUSH0 PUSH1 0x10 PUSH0 DUP4 PUSH20 0xFFFFFFFFFFFFFFFFFFFFFFFFFFFFFFFFFFFFFFFF AND PUSH20 0xFFFFFFFFFFFFFFFFFFFFFFFFFFFFFFFFFFFFFFFF AND DUP2 MSTORE PUSH1 0x20 ADD SWAP1 DUP2 MSTORE PUSH1 0x20 ADD PUSH0 KECCAK256 SLOAD TIMESTAMP LT ISZERO PUSH2 0x43CD JUMPI PUSH1 0x40 MLOAD PUSH32 0x8C379A000000000000000000000000000000000000000000000000000000000 DUP2 MSTORE PUSH1 0x4 ADD PUSH2 0x43C4 SWAP1 PUSH2 0x55F9 JUMP JUMPDEST PUSH1 0x40 MLOAD DUP1 SWAP2 SUB SWAP1 REVERT JUMPDEST PUSH0 PUSH1 0x16 PUSH0 DUP5 PUSH20 0xFFFFFFFFFFFFFFFFFFFFFFFFFFFFFFFFFFFFFFFF AND PUSH20 0xFFFFFFFFFFFFFFFFFFFFFFFFFFFFFFFFFFFFFFFF AND DUP2 MSTORE PUSH1 0x20 ADD SWAP1 DUP2 MSTORE PUSH1 0x20 ADD PUSH0 KECCAK256 SLOAD SUB PUSH2 0x4419 JUMPI PUSH0 SWAP1 POP PUSH2 0x45B0 JUMP JUMPDEST PUSH0 PUSH1 0x10 PUSH0 DUP5 PUSH20 0xFFFFFFFFFFFFFFFFFFFFFFFFFFFFFFFFFFFFFFFF AND PUSH20 0xFFFFFFFFFFFFFFFFFFFFFFFFFFFFFFFFFFFFFFFF AND DUP2 MSTORE PUSH1 0x20 ADD SWAP1 DUP2 MSTORE PUSH1 0x20 ADD PUSH0 KECCAK256 SLOAD TIMESTAMP PUSH2 0x4463 SWAP2 SWAP1 PUSH2 0x4E32 JUMP JUMPDEST SWAP1 POP PUSH0 PUSH1 0x16 PUSH0 DUP6 PUSH20 0xFFFFFFFFFFFFFFFFFFFFFFFFFFFFFFFFFFFFFFFF AND PUSH20 0xFFFFFFFFFFFFFFFFFFFFFFFFFFFFFFFFFFFFFFFF AND DUP2 MSTORE PUSH1 0x20 ADD SWAP1 DUP2 MSTORE PUSH1 0x20 ADD PUSH0 KECCAK256 SLOAD SWAP1 POP PUSH3 0x15180 PUSH1 0x21 PUSH0 DUP7 PUSH20 0xFFFFFFFFFFFFFFFFFFFFFFFFFFFFFFFFFFFFFFFF AND PUSH20 0xFFFFFFFFFFFFFFFFFFFFFFFFFFFFFFFFFFFFFFFF AND DUP2 MSTORE PUSH1 0x20 ADD SWAP1 DUP2 MSTORE PUSH1 0x20 ADD PUSH0 KECCAK256 SLOAD TIMESTAMP PUSH2 0x44F3 SWAP2 SWAP1 PUSH2 0x4E32 JUMP JUMPDEST LT ISZERO PUSH2 0x4545 JUMPI PUSH1 0x22 PUSH0 DUP6 PUSH20 0xFFFFFFFFFFFFFFFFFFFFFFFFFFFFFFFFFFFFFFFF AND PUSH20 0xFFFFFFFFFFFFFFFFFFFFFFFFFFFFFFFFFFFFFFFF AND DUP2 MSTORE PUSH1 0x20 ADD SWAP1 DUP2 MSTORE PUSH1 0x20 ADD PUSH0 KECCAK256 SLOAD DUP2 PUSH2 0x4542 SWAP2 SWAP1 PUSH2 0x4E32 JUMP JUMPDEST SWAP1 POP JUMPDEST PUSH0 PUSH8 0xDE0B6B3A7640000 PUSH2 0x2710 DUP5 PUSH2 0x455C DUP9 PUSH2 0x45CE JUMP JUMPDEST PUSH2 0x2710 PUSH2 0x4569 SWAP2 SWAP1 PUSH2 0x5206 JUMP JUMPDEST DUP6 PUSH2 0x4575 PUSH1 0x7 SLOAD PUSH2 0x3A9D JUMP JUMPDEST PUSH2 0x457F SWAP2 SWAP1 PUSH2 0x4D94 JUMP JUMPDEST PUSH2 0x4589 SWAP2 SWAP1 PUSH2 0x4D94 JUMP JUMPDEST PUSH2 0x4593 SWAP2 SWAP1 PUSH2 0x4D94 JUMP JUMPDEST PUSH2 0x459D SWAP2 SWAP1 PUSH2 0x4E02 JUMP JUMPDEST PUSH2 0x45A7 SWAP2 SWAP1 PUSH2 0x4E02 JUMP JUMPDEST SWAP1 POP DUP1 SWAP4 POP POP POP POP JUMPDEST SWAP2 SWAP1 POP JUMP JUMPDEST PUSH0 DUP2 DUP4 GT ISZERO PUSH2 0x45C4 JUMPI DUP2 PUSH2 0x45C6 JUMP JUMPDEST DUP3 JUMPDEST SWAP1 POP SWAP3 SWAP2 POP POP JUMP JUMPDEST PUSH0 DUP1 PUSH1 0x16 PUSH0 DUP5 PUSH20 0xFFFFFFFFFFFFFFFFFFFFFFFFFFFFFFFFFFFFFFFF AND PUSH20 0xFFFFFFFFFFFFFFFFFFFFFFFFFFFFFFFFFFFFFFFF AND DUP2 MSTORE PUSH1 0x20 ADD SWAP1 DUP2 MSTORE PUSH1 0x20 ADD PUSH0 KECCAK256 SLOAD GT ISZERO PUSH2 0x46C7 JUMPI PUSH0 PUSH1 0x1F SLOAD PUSH1 0x1F SLOAD PUSH1 0x17 PUSH0 DUP7 PUSH20 0xFFFFFFFFFFFFFFFFFFFFFFFFFFFFFFFFFFFFFFFF AND PUSH20 0xFFFFFFFFFFFFFFFFFFFFFFFFFFFFFFFFFFFFFFFF AND DUP2 MSTORE PUSH1 0x20 ADD SWAP1 DUP2 MSTORE PUSH1 0x20 ADD PUSH0 KECCAK256 SLOAD PUSH2 0x4663 SWAP2 SWAP1 PUSH2 0x4E02 JUMP JUMPDEST PUSH2 0x466D SWAP2 SWAP1 PUSH2 0x4D94 JUMP JUMPDEST PUSH1 0x1F SLOAD PUSH1 0x1F SLOAD TIMESTAMP PUSH2 0x467E SWAP2 SWAP1 PUSH2 0x4E02 JUMP JUMPDEST PUSH2 0x4688 SWAP2 SWAP1 PUSH2 0x4D94 JUMP JUMPDEST PUSH2 0x4692 SWAP2 SWAP1 PUSH2 0x4E32 JUMP JUMPDEST SWAP1 POP PUSH0 PUSH1 0x1F SLOAD DUP3 PUSH1 0x20 SLOAD PUSH2 0x46A6 SWAP2 SWAP1 PUSH2 0x4D94 JUMP JUMPDEST PUSH2 0x46B0 SWAP2 SWAP1 PUSH2 0x4E02 JUMP JUMPDEST SWAP1 POP PUSH2 0x46BE DUP2 PUSH1 0x1E SLOAD PUSH2 0x45B5 JUMP JUMPDEST SWAP3 POP POP POP PUSH2 0x46CB JUMP JUMPDEST PUSH0 SWAP1 POP JUMPDEST SWAP2 SWAP1 POP JUMP JUMPDEST PUSH0 DUP2 SWAP1 POP SWAP2 SWAP1 POP JUMP JUMPDEST PUSH2 0x46E2 DUP2 PUSH2 0x46D0 JUMP JUMPDEST DUP3 MSTORE POP POP JUMP JUMPDEST PUSH0 PUSH1 0x20 DUP3 ADD SWAP1 POP PUSH2 0x46FB PUSH0 DUP4 ADD DUP5 PUSH2 0x46D9 JUMP JUMPDEST SWAP3 SWAP2 POP POP JUMP JUMPDEST PUSH0 PUSH1 0x40 MLOAD SWAP1 POP SWAP1 JUMP JUMPDEST PUSH0 DUP1 REVERT JUMPDEST PUSH0 DUP1 REVERT JUMPDEST PUSH0 PUSH20 0xFFFFFFFFFFFFFFFFFFFFFFFFFFFFFFFFFFFFFFFF DUP3 AND SWAP1 POP SWAP2 SWAP1 POP JUMP JUMPDEST PUSH0 PUSH2 0x473B DUP3 PUSH2 0x4712 JUMP JUMPDEST SWAP1 POP SWAP2 SWAP1 POP JUMP JUMPDEST PUSH2 0x474B DUP2 PUSH2 0x4731 JUMP JUMPDEST DUP2 EQ PUSH2 0x4755 JUMPI PUSH0 DUP1 REVERT JUMPDEST POP JUMP JUMPDEST PUSH0 DUP2 CALLDATALOAD SWAP1 POP PUSH2 0x4766 DUP2 PUSH2 0x4742 JUMP JUMPDEST SWAP3 SWAP2 POP POP JUMP JUMPDEST PUSH0 PUSH1 0x20 DUP3 DUP5 SUB SLT ISZERO PUSH2 0x4781 JUMPI PUSH2 0x4780 PUSH2 0x470A JUMP JUMPDEST JUMPDEST PUSH0 PUSH2 0x478E DUP5 DUP3 DUP6 ADD PUSH2 0x4758 JUMP JUMPDEST SWAP2 POP POP SWAP3 SWAP2 POP POP JUMP JUMPDEST PUSH2 0x47A0 DUP2 PUSH2 0x46D0 JUMP JUMPDEST DUP2 EQ PUSH2 0x47AA JUMPI PUSH0 DUP1 REVERT JUMPDEST POP JUMP JUMPDEST PUSH0 DUP2 CALLDATALOAD SWAP1 POP PUSH2 0x47BB DUP2 PUSH2 0x4797 JUMP JUMPDEST SWAP3 SWAP2 POP POP JUMP JUMPDEST PUSH0 PUSH1 0x20 DUP3 DUP5 SUB SLT ISZERO PUSH2 0x47D6 JUMPI PUSH2 0x47D5 PUSH2 0x470A JUMP JUMPDEST JUMPDEST PUSH0 PUSH2 0x47E3 DUP5 DUP3 DUP6 ADD PUSH2 0x47AD JUMP JUMPDEST SWAP2 POP POP SWAP3 SWAP2 POP POP JUMP JUMPDEST PUSH0 DUP1 REVERT JUMPDEST PUSH0 DUP1 REVERT JUMPDEST PUSH0 DUP1 REVERT JUMPDEST PUSH0 DUP1 DUP4 PUSH1 0x1F DUP5 ADD SLT PUSH2 0x480D JUMPI PUSH2 0x480C PUSH2 0x47EC JUMP JUMPDEST JUMPDEST DUP3 CALLDATALOAD SWAP1 POP PUSH8 0xFFFFFFFFFFFFFFFF DUP2 GT ISZERO PUSH2 0x482A JUMPI PUSH2 0x4829 PUSH2 0x47F0 JUMP JUMPDEST JUMPDEST PUSH1 0x20 DUP4 ADD SWAP2 POP DUP4 PUSH1 0x1 DUP3 MUL DUP4 ADD GT ISZERO PUSH2 0x4846 JUMPI PUSH2 0x4845 PUSH2 0x47F4 JUMP JUMPDEST JUMPDEST SWAP3 POP SWAP3 SWAP1 POP JUMP JUMPDEST PUSH0 DUP1 PUSH1 0x20 DUP4 DUP6 SUB SLT ISZERO PUSH2 0x4863 JUMPI PUSH2 0x4862 PUSH2 0x470A JUMP JUMPDEST JUMPDEST PUSH0 DUP4 ADD CALLDATALOAD PUSH8 0xFFFFFFFFFFFFFFFF DUP2 GT ISZERO PUSH2 0x4880 JUMPI PUSH2 0x487F PUSH2 0x470E JUMP JUMPDEST JUMPDEST PUSH2 0x488C DUP6 DUP3 DUP7 ADD PUSH2 0x47F8 JUMP JUMPDEST SWAP3 POP SWAP3 POP POP SWAP3 POP SWAP3 SWAP1 POP JUMP JUMPDEST PUSH2 0x48A1 DUP2 PUSH2 0x4731 JUMP JUMPDEST DUP3 MSTORE POP POP JUMP JUMPDEST PUSH0 PUSH1 0x20 DUP3 ADD SWAP1 POP PUSH2 0x48BA PUSH0 DUP4 ADD DUP5 PUSH2 0x4898 JUMP JUMPDEST SWAP3 SWAP2 POP POP JUMP JUMPDEST PUSH0 DUP2 ISZERO ISZERO SWAP1 POP SWAP2 SWAP1 POP JUMP JUMPDEST PUSH2 0x48D4 DUP2 PUSH2 0x48C0 JUMP JUMPDEST DUP3 MSTORE POP POP JUMP JUMPDEST PUSH0 PUSH1 0x20 DUP3 ADD SWAP1 POP PUSH2 0x48ED PUSH0 DUP4 ADD DUP5 PUSH2 0x48CB JUMP JUMPDEST SWAP3 SWAP2 POP POP JUMP JUMPDEST PUSH0 DUP2 MLOAD SWAP1 POP SWAP2 SWAP1 POP JUMP JUMPDEST PUSH0 DUP3 DUP3 MSTORE PUSH1 0x20 DUP3 ADD SWAP1 POP SWAP3 SWAP2 POP POP JUMP JUMPDEST DUP3 DUP2 DUP4 MCOPY PUSH0 DUP4 DUP4 ADD MSTORE POP POP POP JUMP JUMPDEST PUSH0 PUSH1 0x1F NOT PUSH1 0x1F DUP4 ADD AND SWAP1 POP SWAP2 SWAP1 POP JUMP JUMPDEST PUSH0 PUSH2 0x4935 DUP3 PUSH2 0x48F3 JUMP JUMPDEST PUSH2 0x493F DUP2 DUP6 PUSH2 0x48FD JUMP JUMPDEST SWAP4 POP PUSH2 0x494F DUP2 DUP6 PUSH1 0x20 DUP7 ADD PUSH2 0x490D JUMP JUMPDEST PUSH2 0x4958 DUP2 PUSH2 0x491B JUMP JUMPDEST DUP5 ADD SWAP2 POP POP SWAP3 SWAP2 POP POP JUMP JUMPDEST PUSH0 PUSH1 0x40 DUP3 ADD SWAP1 POP PUSH2 0x4976 PUSH0 DUP4 ADD DUP6 PUSH2 0x48CB JUMP JUMPDEST DUP2 DUP2 SUB PUSH1 0x20 DUP4 ADD MSTORE PUSH2 0x4988 DUP2 DUP5 PUSH2 0x492B JUMP JUMPDEST SWAP1 POP SWAP4 SWAP3 POP POP POP JUMP JUMPDEST PUSH0 DUP1 PUSH1 0x40 DUP4 DUP6 SUB SLT ISZERO PUSH2 0x49A7 JUMPI PUSH2 0x49A6 PUSH2 0x470A JUMP JUMPDEST JUMPDEST PUSH0 PUSH2 0x49B4 DUP6 DUP3 DUP7 ADD PUSH2 0x4758 JUMP JUMPDEST SWAP3 POP POP PUSH1 0x20 PUSH2 0x49C5 DUP6 DUP3 DUP7 ADD PUSH2 0x4758 JUMP JUMPDEST SWAP2 POP POP SWAP3 POP SWAP3 SWAP1 POP JUMP JUMPDEST PUSH0 DUP1 REVERT JUMPDEST PUSH32 0x4E487B7100000000000000000000000000000000000000000000000000000000 PUSH0 MSTORE PUSH1 0x41 PUSH1 0x4 MSTORE PUSH1 0x24 PUSH0 REVERT JUMPDEST PUSH2 0x4A09 DUP3 PUSH2 0x491B JUMP JUMPDEST DUP2 ADD DUP2 DUP2 LT PUSH8 0xFFFFFFFFFFFFFFFF DUP3 GT OR ISZERO PUSH2 0x4A28 JUMPI PUSH2 0x4A27 PUSH2 0x49D3 JUMP JUMPDEST JUMPDEST DUP1 PUSH1 0x40 MSTORE POP POP POP JUMP JUMPDEST PUSH0 PUSH2 0x4A3A PUSH2 0x4701 JUMP JUMPDEST SWAP1 POP PUSH2 0x4A46 DUP3 DUP3 PUSH2 0x4A00 JUMP JUMPDEST SWAP2 SWAP1 POP JUMP JUMPDEST PUSH0 PUSH8 0xFFFFFFFFFFFFFFFF DUP3 GT ISZERO PUSH2 0x4A65 JUMPI PUSH2 0x4A64 PUSH2 0x49D3 JUMP JUMPDEST JUMPDEST PUSH2 0x4A6E DUP3 PUSH2 0x491B JUMP JUMPDEST SWAP1 POP PUSH1 0x20 DUP2 ADD SWAP1 POP SWAP2 SWAP1 POP JUMP JUMPDEST DUP3 DUP2 DUP4 CALLDATACOPY PUSH0 DUP4 DUP4 ADD MSTORE POP POP POP JUMP JUMPDEST PUSH0 PUSH2 0x4A9B PUSH2 0x4A96 DUP5 PUSH2 0x4A4B JUMP JUMPDEST PUSH2 0x4A31 JUMP JUMPDEST SWAP1 POP DUP3 DUP2 MSTORE PUSH1 0x20 DUP2 ADD DUP5 DUP5 DUP5 ADD GT ISZERO PUSH2 0x4AB7 JUMPI PUSH2 0x4AB6 PUSH2 0x49CF JUMP JUMPDEST JUMPDEST PUSH2 0x4AC2 DUP5 DUP3 DUP6 PUSH2 0x4A7B JUMP JUMPDEST POP SWAP4 SWAP3 POP POP POP JUMP JUMPDEST PUSH0 DUP3 PUSH1 0x1F DUP4 ADD SLT PUSH2 0x4ADE JUMPI PUSH2 0x4ADD PUSH2 0x47EC JUMP JUMPDEST JUMPDEST DUP2 CALLDATALOAD PUSH2 0x4AEE DUP5 DUP3 PUSH1 0x20 DUP7 ADD PUSH2 0x4A89 JUMP JUMPDEST SWAP2 POP POP SWAP3 SWAP2 POP POP JUMP JUMPDEST PUSH0 DUP1 PUSH0 PUSH1 0x60 DUP5 DUP7 SUB SLT ISZERO PUSH2 0x4B0E JUMPI PUSH2 0x4B0D PUSH2 0x470A JUMP JUMPDEST JUMPDEST PUSH0 PUSH2 0x4B1B DUP7 DUP3 DUP8 ADD PUSH2 0x47AD JUMP JUMPDEST SWAP4 POP POP PUSH1 0x20 PUSH2 0x4B2C DUP7 DUP3 DUP8 ADD PUSH2 0x4758 JUMP JUMPDEST SWAP3 POP POP PUSH1 0x40 DUP5 ADD CALLDATALOAD PUSH8 0xFFFFFFFFFFFFFFFF DUP2 GT ISZERO PUSH2 0x4B4D JUMPI PUSH2 0x4B4C PUSH2 0x470E JUMP JUMPDEST JUMPDEST PUSH2 0x4B59 DUP7 DUP3 DUP8 ADD PUSH2 0x4ACA JUMP JUMPDEST SWAP2 POP POP SWAP3 POP SWAP3 POP SWAP3 JUMP JUMPDEST PUSH0 PUSH1 0x80 DUP3 ADD SWAP1 POP PUSH2 0x4B76 PUSH0 DUP4 ADD DUP8 PUSH2 0x46D9 JUMP JUMPDEST PUSH2 0x4B83 PUSH1 0x20 DUP4 ADD DUP7 PUSH2 0x46D9 JUMP JUMPDEST PUSH2 0x4B90 PUSH1 0x40 DUP4 ADD DUP6 PUSH2 0x46D9 JUMP JUMPDEST PUSH2 0x4B9D PUSH1 0x60 DUP4 ADD DUP5 PUSH2 0x46D9 JUMP JUMPDEST SWAP6 SWAP5 POP POP POP POP POP JUMP JUMPDEST PUSH0 PUSH1 0x20 DUP3 DUP5 SUB SLT ISZERO PUSH2 0x4BBB JUMPI PUSH2 0x4BBA PUSH2 0x470A JUMP JUMPDEST JUMPDEST PUSH0 DUP3 ADD CALLDATALOAD PUSH8 0xFFFFFFFFFFFFFFFF DUP2 GT ISZERO PUSH2 0x4BD8 JUMPI PUSH2 0x4BD7 PUSH2 0x470E JUMP JUMPDEST JUMPDEST PUSH2 0x4BE4 DUP5 DUP3 DUP6 ADD PUSH2 0x4ACA JUMP JUMPDEST SWAP2 POP POP SWAP3 SWAP2 POP POP JUMP JUMPDEST PUSH0 DUP2 SWAP1 POP SWAP2 SWAP1 POP JUMP JUMPDEST PUSH0 PUSH2 0x4C10 PUSH2 0x4C0B PUSH2 0x4C06 DUP5 PUSH2 0x4712 JUMP JUMPDEST PUSH2 0x4BED JUMP JUMPDEST PUSH2 0x4712 JUMP JUMPDEST SWAP1 POP SWAP2 SWAP1 POP JUMP JUMPDEST PUSH0 PUSH2 0x4C21 DUP3 PUSH2 0x4BF6 JUMP JUMPDEST SWAP1 POP SWAP2 SWAP1 POP JUMP JUMPDEST PUSH0 PUSH2 0x4C32 DUP3 PUSH2 0x4C17 JUMP JUMPDEST SWAP1 POP SWAP2 SWAP1 POP JUMP JUMPDEST PUSH2 0x4C42 DUP2 PUSH2 0x4C28 JUMP JUMPDEST DUP3 MSTORE POP POP JUMP JUMPDEST PUSH0 PUSH1 0x20 DUP3 ADD SWAP1 POP PUSH2 0x4C5B PUSH0 DUP4 ADD DUP5 PUSH2 0x4C39 JUMP JUMPDEST SWAP3 SWAP2 POP POP JUMP JUMPDEST PUSH0 DUP3 DUP3 MSTORE PUSH1 0x20 DUP3 ADD SWAP1 POP SWAP3 SWAP2 POP POP JUMP JUMPDEST PUSH32 0x616D6F756E74203D203000000000000000000000000000000000000000000000 PUSH0 DUP3 ADD MSTORE POP JUMP JUMPDEST PUSH0 PUSH2 0x4CA5 PUSH1 0xA DUP4 PUSH2 0x4C61 JUMP JUMPDEST SWAP2 POP PUSH2 0x4CB0 DUP3 PUSH2 0x4C71 JUMP JUMPDEST PUSH1 0x20 DUP3 ADD SWAP1 POP SWAP2 SWAP1 POP JUMP JUMPDEST PUSH0 PUSH1 0x20 DUP3 ADD SWAP1 POP DUP2 DUP2 SUB PUSH0 DUP4 ADD MSTORE PUSH2 0x4CD2 DUP2 PUSH2 0x4C99 JUMP JUMPDEST SWAP1 POP SWAP2 SWAP1 POP JUMP JUMPDEST PUSH32 0x596F75206469646E2774207374616B6520656E6F75676820746F6B656E732074 PUSH0 DUP3 ADD MSTORE PUSH32 0x6F20756E7374616B652100000000000000000000000000000000000000000000 PUSH1 0x20 DUP3 ADD MSTORE POP JUMP JUMPDEST PUSH0 PUSH2 0x4D33 PUSH1 0x2A DUP4 PUSH2 0x4C61 JUMP JUMPDEST SWAP2 POP PUSH2 0x4D3E DUP3 PUSH2 0x4CD9 JUMP JUMPDEST PUSH1 0x40 DUP3 ADD SWAP1 POP SWAP2 SWAP1 POP JUMP JUMPDEST PUSH0 PUSH1 0x20 DUP3 ADD SWAP1 POP DUP2 DUP2 SUB PUSH0 DUP4 ADD MSTORE PUSH2 0x4D60 DUP2 PUSH2 0x4D27 JUMP JUMPDEST SWAP1 POP SWAP2 SWAP1 POP JUMP JUMPDEST PUSH32 0x4E487B7100000000000000000000000000000000000000000000000000000000 PUSH0 MSTORE PUSH1 0x11 PUSH1 0x4 MSTORE PUSH1 0x24 PUSH0 REVERT JUMPDEST PUSH0 PUSH2 0x4D9E DUP3 PUSH2 0x46D0 JUMP JUMPDEST SWAP2 POP PUSH2 0x4DA9 DUP4 PUSH2 0x46D0 JUMP JUMPDEST SWAP3 POP DUP3 DUP3 MUL PUSH2 0x4DB7 DUP2 PUSH2 0x46D0 JUMP JUMPDEST SWAP2 POP DUP3 DUP3 DIV DUP5 EQ DUP4 ISZERO OR PUSH2 0x4DCE JUMPI PUSH2 0x4DCD PUSH2 0x4D67 JUMP JUMPDEST JUMPDEST POP SWAP3 SWAP2 POP POP JUMP JUMPDEST PUSH32 0x4E487B7100000000000000000000000000000000000000000000000000000000 PUSH0 MSTORE PUSH1 0x12 PUSH1 0x4 MSTORE PUSH1 0x24 PUSH0 REVERT JUMPDEST PUSH0 PUSH2 0x4E0C DUP3 PUSH2 0x46D0 JUMP JUMPDEST SWAP2 POP PUSH2 0x4E17 DUP4 PUSH2 0x46D0 JUMP JUMPDEST SWAP3 POP DUP3 PUSH2 0x4E27 JUMPI PUSH2 0x4E26 PUSH2 0x4DD5 JUMP JUMPDEST JUMPDEST DUP3 DUP3 DIV SWAP1 POP SWAP3 SWAP2 POP POP JUMP JUMPDEST PUSH0 PUSH2 0x4E3C DUP3 PUSH2 0x46D0 JUMP JUMPDEST SWAP2 POP PUSH2 0x4E47 DUP4 PUSH2 0x46D0 JUMP JUMPDEST SWAP3 POP DUP3 DUP3 SUB SWAP1 POP DUP2 DUP2 GT ISZERO PUSH2 0x4E5F JUMPI PUSH2 0x4E5E PUSH2 0x4D67 JUMP JUMPDEST JUMPDEST SWAP3 SWAP2 POP POP JUMP JUMPDEST PUSH0 PUSH1 0x40 DUP3 ADD SWAP1 POP PUSH2 0x4E78 PUSH0 DUP4 ADD DUP6 PUSH2 0x4898 JUMP JUMPDEST PUSH2 0x4E85 PUSH1 0x20 DUP4 ADD DUP5 PUSH2 0x46D9 JUMP JUMPDEST SWAP4 SWAP3 POP POP POP JUMP JUMPDEST PUSH2 0x4E95 DUP2 PUSH2 0x48C0 JUMP JUMPDEST DUP2 EQ PUSH2 0x4E9F JUMPI PUSH0 DUP1 REVERT JUMPDEST POP JUMP JUMPDEST PUSH0 DUP2 MLOAD SWAP1 POP PUSH2 0x4EB0 DUP2 PUSH2 0x4E8C JUMP JUMPDEST SWAP3 SWAP2 POP POP JUMP JUMPDEST PUSH0 PUSH1 0x20 DUP3 DUP5 SUB SLT ISZERO PUSH2 0x4ECB JUMPI PUSH2 0x4ECA PUSH2 0x470A JUMP JUMPDEST JUMPDEST PUSH0 PUSH2 0x4ED8 DUP5 DUP3 DUP6 ADD PUSH2 0x4EA2 JUMP JUMPDEST SWAP2 POP POP SWAP3 SWAP2 POP POP JUMP JUMPDEST PUSH0 PUSH1 0x40 DUP3 ADD SWAP1 POP PUSH2 0x4EF4 PUSH0 DUP4 ADD DUP6 PUSH2 0x46D9 JUMP JUMPDEST PUSH2 0x4F01 PUSH1 0x20 DUP4 ADD DUP5 PUSH2 0x46D9 JUMP JUMPDEST SWAP4 SWAP3 POP POP POP JUMP JUMPDEST PUSH32 0x4B656570557020726571756972656D656E74206973206E6F74206D6574210000 PUSH0 DUP3 ADD MSTORE POP JUMP JUMPDEST PUSH0 PUSH2 0x4F3C PUSH1 0x1E DUP4 PUSH2 0x4C61 JUMP JUMPDEST SWAP2 POP PUSH2 0x4F47 DUP3 PUSH2 0x4F08 JUMP JUMPDEST PUSH1 0x20 DUP3 ADD SWAP1 POP SWAP2 SWAP1 POP JUMP JUMPDEST PUSH0 PUSH1 0x20 DUP3 ADD SWAP1 POP DUP2 DUP2 SUB PUSH0 DUP4 ADD MSTORE PUSH2 0x4F69 DUP2 PUSH2 0x4F30 JUMP JUMPDEST SWAP1 POP SWAP2 SWAP1 POP JUMP JUMPDEST PUSH32 0x496E76616C696420616464726573733A207A65726F2061646472657373000000 PUSH0 DUP3 ADD MSTORE POP JUMP JUMPDEST PUSH0 PUSH2 0x4FA4 PUSH1 0x1D DUP4 PUSH2 0x4C61 JUMP JUMPDEST SWAP2 POP PUSH2 0x4FAF DUP3 PUSH2 0x4F70 JUMP JUMPDEST PUSH1 0x20 DUP3 ADD SWAP1 POP SWAP2 SWAP1 POP JUMP JUMPDEST PUSH0 PUSH1 0x20 DUP3 ADD SWAP1 POP DUP2 DUP2 SUB PUSH0 DUP4 ADD MSTORE PUSH2 0x4FD1 DUP2 PUSH2 0x4F98 JUMP JUMPDEST SWAP1 POP SWAP2 SWAP1 POP JUMP JUMPDEST PUSH0 DUP2 SWAP1 POP SWAP3 SWAP2 POP POP JUMP JUMPDEST POP JUMP JUMPDEST PUSH0 PUSH2 0x4FF0 PUSH0 DUP4 PUSH2 0x4FD8 JUMP JUMPDEST SWAP2 POP PUSH2 0x4FFB DUP3 PUSH2 0x4FE2 JUMP JUMPDEST PUSH0 DUP3 ADD SWAP1 POP SWAP2 SWAP1 POP JUMP JUMPDEST PUSH0 PUSH2 0x500F DUP3 PUSH2 0x4FE5 JUMP JUMPDEST SWAP2 POP DUP2 SWAP1 POP SWAP2 SWAP1 POP JUMP JUMPDEST PUSH32 0x5472616E73666572204661696C65640000000000000000000000000000000000 PUSH0 DUP3 ADD MSTORE POP JUMP JUMPDEST PUSH0 PUSH2 0x504D PUSH1 0xF DUP4 PUSH2 0x4C61 JUMP JUMPDEST SWAP2 POP PUSH2 0x5058 DUP3 PUSH2 0x5019 JUMP JUMPDEST PUSH1 0x20 DUP3 ADD SWAP1 POP SWAP2 SWAP1 POP JUMP JUMPDEST PUSH0 PUSH1 0x20 DUP3 ADD SWAP1 POP DUP2 DUP2 SUB PUSH0 DUP4 ADD MSTORE PUSH2 0x507A DUP2 PUSH2 0x5041 JUMP JUMPDEST SWAP1 POP SWAP2 SWAP1 POP JUMP JUMPDEST PUSH32 0x596F75207573656420726566657272616C20636F646520616C72656164792100 PUSH0 DUP3 ADD MSTORE POP JUMP JUMPDEST PUSH0 PUSH2 0x50B5 PUSH1 0x1F DUP4 PUSH2 0x4C61 JUMP JUMPDEST SWAP2 POP PUSH2 0x50C0 DUP3 PUSH2 0x5081 JUMP JUMPDEST PUSH1 0x20 DUP3 ADD SWAP1 POP SWAP2 SWAP1 POP JUMP JUMPDEST PUSH0 PUSH1 0x20 DUP3 ADD SWAP1 POP DUP2 DUP2 SUB PUSH0 DUP4 ADD MSTORE PUSH2 0x50E2 DUP2 PUSH2 0x50A9 JUMP JUMPDEST SWAP1 POP SWAP2 SWAP1 POP JUMP JUMPDEST PUSH0 DUP2 MLOAD SWAP1 POP SWAP2 SWAP1 POP JUMP JUMPDEST PUSH0 DUP2 SWAP1 POP SWAP3 SWAP2 POP POP JUMP JUMPDEST PUSH0 PUSH2 0x5107 DUP3 PUSH2 0x50E9 JUMP JUMPDEST PUSH2 0x5111 DUP2 DUP6 PUSH2 0x50F3 JUMP JUMPDEST SWAP4 POP PUSH2 0x5121 DUP2 DUP6 PUSH1 0x20 DUP7 ADD PUSH2 0x490D JUMP JUMPDEST DUP1 DUP5 ADD SWAP2 POP POP SWAP3 SWAP2 POP POP JUMP JUMPDEST PUSH0 PUSH2 0x5138 DUP3 DUP5 PUSH2 0x50FD JUMP JUMPDEST SWAP2 POP DUP2 SWAP1 POP SWAP3 SWAP2 POP POP JUMP JUMPDEST PUSH32 0x596F7520617265207573696E6720796F7572206F776E20726566657272616C20 PUSH0 DUP3 ADD MSTORE PUSH32 0x636F646521000000000000000000000000000000000000000000000000000000 PUSH1 0x20 DUP3 ADD MSTORE POP JUMP JUMPDEST PUSH0 PUSH2 0x519D PUSH1 0x25 DUP4 PUSH2 0x4C61 JUMP JUMPDEST SWAP2 POP PUSH2 0x51A8 DUP3 PUSH2 0x5143 JUMP JUMPDEST PUSH1 0x40 DUP3 ADD SWAP1 POP SWAP2 SWAP1 POP JUMP JUMPDEST PUSH0 PUSH1 0x20 DUP3 ADD SWAP1 POP DUP2 DUP2 SUB PUSH0 DUP4 ADD MSTORE PUSH2 0x51CA DUP2 PUSH2 0x5191 JUMP JUMPDEST SWAP1 POP SWAP2 SWAP1 POP JUMP JUMPDEST PUSH0 PUSH1 0x60 DUP3 ADD SWAP1 POP PUSH2 0x51E4 PUSH0 DUP4 ADD DUP7 PUSH2 0x4898 JUMP JUMPDEST PUSH2 0x51F1 PUSH1 0x20 DUP4 ADD DUP6 PUSH2 0x4898 JUMP JUMPDEST PUSH2 0x51FE PUSH1 0x40 DUP4 ADD DUP5 PUSH2 0x46D9 JUMP JUMPDEST SWAP5 SWAP4 POP POP POP POP JUMP JUMPDEST PUSH0 PUSH2 0x5210 DUP3 PUSH2 0x46D0 JUMP JUMPDEST SWAP2 POP PUSH2 0x521B DUP4 PUSH2 0x46D0 JUMP JUMPDEST SWAP3 POP DUP3 DUP3 ADD SWAP1 POP DUP1 DUP3 GT ISZERO PUSH2 0x5233 JUMPI PUSH2 0x5232 PUSH2 0x4D67 JUMP JUMPDEST JUMPDEST SWAP3 SWAP2 POP POP JUMP JUMPDEST PUSH32 0x4E487B7100000000000000000000000000000000000000000000000000000000 PUSH0 MSTORE PUSH1 0x32 PUSH1 0x4 MSTORE PUSH1 0x24 PUSH0 REVERT JUMPDEST PUSH32 0x4E6F20726566657272616C207265776172647320746F20636C61696D00000000 PUSH0 DUP3 ADD MSTORE POP JUMP JUMPDEST PUSH0 PUSH2 0x529A PUSH1 0x1C DUP4 PUSH2 0x4C61 JUMP JUMPDEST SWAP2 POP PUSH2 0x52A5 DUP3 PUSH2 0x5266 JUMP JUMPDEST PUSH1 0x20 DUP3 ADD SWAP1 POP SWAP2 SWAP1 POP JUMP JUMPDEST PUSH0 PUSH1 0x20 DUP3 ADD SWAP1 POP DUP2 DUP2 SUB PUSH0 DUP4 ADD MSTORE PUSH2 0x52C7 DUP2 PUSH2 0x528E JUMP JUMPDEST SWAP1 POP SWAP2 SWAP1 POP JUMP JUMPDEST PUSH32 0x5061757361626C653A2070617573656400000000000000000000000000000000 PUSH0 DUP3 ADD MSTORE POP JUMP JUMPDEST PUSH0 PUSH2 0x5302 PUSH1 0x10 DUP4 PUSH2 0x4C61 JUMP JUMPDEST SWAP2 POP PUSH2 0x530D DUP3 PUSH2 0x52CE JUMP JUMPDEST PUSH1 0x20 DUP3 ADD SWAP1 POP SWAP2 SWAP1 POP JUMP JUMPDEST PUSH0 PUSH1 0x20 DUP3 ADD SWAP1 POP DUP2 DUP2 SUB PUSH0 DUP4 ADD MSTORE PUSH2 0x532F DUP2 PUSH2 0x52F6 JUMP JUMPDEST SWAP1 POP SWAP2 SWAP1 POP JUMP JUMPDEST PUSH0 PUSH2 0x5340 DUP3 PUSH2 0x46D0 JUMP JUMPDEST SWAP2 POP PUSH32 0xFFFFFFFFFFFFFFFFFFFFFFFFFFFFFFFFFFFFFFFFFFFFFFFFFFFFFFFFFFFFFFFF DUP3 SUB PUSH2 0x5372 JUMPI PUSH2 0x5371 PUSH2 0x4D67 JUMP JUMPDEST JUMPDEST PUSH1 0x1 DUP3 ADD SWAP1 POP SWAP2 SWAP1 POP JUMP JUMPDEST PUSH32 0x496E76616C696420526566657272616C20436F64650000000000000000000000 PUSH0 DUP3 ADD MSTORE POP JUMP JUMPDEST PUSH0 PUSH2 0x53B1 PUSH1 0x15 DUP4 PUSH2 0x4C61 JUMP JUMPDEST SWAP2 POP PUSH2 0x53BC DUP3 PUSH2 0x537D JUMP JUMPDEST PUSH1 0x20 DUP3 ADD SWAP1 POP SWAP2 SWAP1 POP JUMP JUMPDEST PUSH0 PUSH1 0x20 DUP3 ADD SWAP1 POP DUP2 DUP2 SUB PUSH0 DUP4 ADD MSTORE PUSH2 0x53DE DUP2 PUSH2 0x53A5 JUMP JUMPDEST SWAP1 POP SWAP2 SWAP1 POP JUMP JUMPDEST PUSH32 0x596F75206372656174656420726566657272616C20636F646520616C72656164 PUSH0 DUP3 ADD MSTORE PUSH32 0x7900000000000000000000000000000000000000000000000000000000000000 PUSH1 0x20 DUP3 ADD MSTORE POP JUMP JUMPDEST PUSH0 PUSH2 0x543F PUSH1 0x21 DUP4 PUSH2 0x4C61 JUMP JUMPDEST SWAP2 POP PUSH2 0x544A DUP3 PUSH2 0x53E5 JUMP JUMPDEST PUSH1 0x40 DUP3 ADD SWAP1 POP SWAP2 SWAP1 POP JUMP JUMPDEST PUSH0 PUSH1 0x20 DUP3 ADD SWAP1 POP DUP2 DUP2 SUB PUSH0 DUP4 ADD MSTORE PUSH2 0x546C DUP2 PUSH2 0x5433 JUMP JUMPDEST SWAP1 POP SWAP2 SWAP1 POP JUMP JUMPDEST PUSH32 0x5265656E7472616E637947756172643A207265656E7472616E742063616C6C00 PUSH0 DUP3 ADD MSTORE POP JUMP JUMPDEST PUSH0 PUSH2 0x54A7 PUSH1 0x1F DUP4 PUSH2 0x4C61 JUMP JUMPDEST SWAP2 POP PUSH2 0x54B2 DUP3 PUSH2 0x5473 JUMP JUMPDEST PUSH1 0x20 DUP3 ADD SWAP1 POP SWAP2 SWAP1 POP JUMP JUMPDEST PUSH0 PUSH1 0x20 DUP3 ADD SWAP1 POP DUP2 DUP2 SUB PUSH0 DUP4 ADD MSTORE PUSH2 0x54D4 DUP2 PUSH2 0x549B JUMP JUMPDEST SWAP1 POP SWAP2 SWAP1 POP JUMP JUMPDEST PUSH0 DUP2 MLOAD SWAP1 POP PUSH2 0x54E9 DUP2 PUSH2 0x4797 JUMP JUMPDEST SWAP3 SWAP2 POP POP JUMP JUMPDEST PUSH0 PUSH1 0x20 DUP3 DUP5 SUB SLT ISZERO PUSH2 0x5504 JUMPI PUSH2 0x5503 PUSH2 0x470A JUMP JUMPDEST JUMPDEST PUSH0 PUSH2 0x5511 DUP5 DUP3 DUP6 ADD PUSH2 0x54DB JUMP JUMPDEST SWAP2 POP POP SWAP3 SWAP2 POP POP JUMP JUMPDEST PUSH32 0x4E487B7100000000000000000000000000000000000000000000000000000000 PUSH0 MSTORE PUSH1 0x31 PUSH1 0x4 MSTORE PUSH1 0x24 PUSH0 REVERT JUMPDEST PUSH32 0x5061757361626C653A206E6F7420706175736564000000000000000000000000 PUSH0 DUP3 ADD MSTORE POP JUMP JUMPDEST PUSH0 PUSH2 0x557B PUSH1 0x14 DUP4 PUSH2 0x4C61 JUMP JUMPDEST SWAP2 POP PUSH2 0x5586 DUP3 PUSH2 0x5547 JUMP JUMPDEST PUSH1 0x20 DUP3 ADD SWAP1 POP SWAP2 SWAP1 POP JUMP JUMPDEST PUSH0 PUSH1 0x20 DUP3 ADD SWAP1 POP DUP2 DUP2 SUB PUSH0 DUP4 ADD MSTORE PUSH2 0x55A8 DUP2 PUSH2 0x556F JUMP JUMPDEST SWAP1 POP SWAP2 SWAP1 POP JUMP JUMPDEST PUSH32 0x436C61696D207570646174652100000000000000000000000000000000000000 PUSH0 DUP3 ADD MSTORE POP JUMP JUMPDEST PUSH0 PUSH2 0x55E3 PUSH1 0xD DUP4 PUSH2 0x4C61 JUMP JUMPDEST SWAP2 POP PUSH2 0x55EE DUP3 PUSH2 0x55AF JUMP JUMPDEST PUSH1 0x20 DUP3 ADD SWAP1 POP SWAP2 SWAP1 POP JUMP JUMPDEST PUSH0 PUSH1 0x20 DUP3 ADD SWAP1 POP DUP2 DUP2 SUB PUSH0 DUP4 ADD MSTORE PUSH2 0x5610 DUP2 PUSH2 0x55D7 JUMP JUMPDEST SWAP1 POP SWAP2 SWAP1 POP JUMP INVALID LOG2 PUSH5 0x6970667358 0x22 SLT KECCAK256 DELEGATECALL NUMBER CHAINID KECCAK256 POP NOT 0xB9 0xCB PUSH26 0x397AC8FE52D4721C8D316F35ECAD46F0D4553014FE580C64736F PUSH13 0x634300081A0033000000000000 "
		},
		"gasEstimates": {
			"creation": {
				"codeDepositCost": "4418600",
				"executionCost": "infinite",
				"totalCost": "infinite"
			},
			"external": {
				"": "246",
				"PERCENTAGE_DENOMINATOR()": "436",
				"REFERRAL_VESTING_PERIOD()": "437",
				"callingCount()": "2536",
				"checkUpkeep(bytes)": "infinite",
				"claimReferralReward()": "infinite",
				"claimStakingReward()": "infinite",
				"discountUnstakeFee()": "2517",
				"duration()": "2494",
				"firstRefRewards(address,address)": "infinite",
				"firstRefRewardsRate()": "2491",
				"firstReferralRewards(address,address)": "infinite",
				"getAPY()": "infinite",
				"getAPYSimulation(uint256)": "infinite",
				"getRefereeCount(address)": "2898",
				"isReferrer(address)": "2922",
				"isUsedRefCode(address)": "2945",
				"lastFirstRefRewardPerSec(address)": "2936",
				"lastSecondRefRewardPerSec(address)": "2870",
				"lastStakedAmount(address)": "2871",
				"lastStakedTime(address)": "2913",
				"lastTimeStampForChainlink()": "2559",
				"lastUnstakedAt(address)": "2892",
				"longtermStakingRewardsRate()": "2558",
				"multiplierEpoch()": "2558",
				"multiplierRatePerEpoch()": "2539",
				"owner()": "2656",
				"pause()": "infinite",
				"paused()": "2563",
				"performUpkeep(bytes)": "infinite",
				"refRewardStartedAt(address)": "2915",
				"refereeCount(address)": "2870",
				"referrers(address)": "infinite",
				"referrersWithRefCodes(string)": "infinite",
				"releaseRefRewardDuration()": "2514",
				"releaseRefRewardEpoch()": "2493",
				"releaseRewardDuration()": "2557",
				"releasedRewardUpdatedAt(address)": "2890",
				"remainingReferralRewards(address)": "2893",
				"remainingStakingRewards(address)": "2936",
				"renounceOwnership()": "infinite",
				"secondRefRewards(address,address)": "infinite",
				"secondRefRewardsRate()": "2536",
				"secondReferralRewards(address,address)": "infinite",
				"stake(uint256,address,string)": "infinite",
				"stakedWithRef(address,address)": "infinite",
				"stakingAppStartedAt()": "2538",
				"stakingRewardsToRelease(address)": "2892",
				"token()": "infinite",
				"tokensStaked(address)": "2915",
				"totalRefRewardClaimed(address)": "2937",
				"totalRefRewardsVested()": "2559",
				"totalRewardClaimed(address)": "2914",
				"totalStaked()": "2494",
				"totalStakedPrev()": "2493",
				"totalStakingRewardsToRelease()": "2492",
				"transferOwnership(address)": "infinite",
				"treasuryBalancePrev()": "2495",
				"treasuryRateForRewards()": "2516",
				"treasuryWallet()": "2643",
				"unpause()": "infinite",
				"unstake(uint256)": "infinite",
				"unstakeFee()": "2537",
				"withdrawETH(address)": "infinite"
			},
			"internal": {
				"_addStakeReferrer(address,address,uint256)": "infinite",
				"_calculateClaimableReferralReward(struct StakingRewards.ReferralReward storage pointer)": "infinite",
				"_calculateMuliplier(address)": "infinite",
				"_calculateRefRewards(address,address,uint256)": "infinite",
				"_calculateStakingAppMuliplier()": "infinite",
				"_calculateTotalRefRewardToClaim(address)": "infinite",
				"_claimReward(uint256)": "infinite",
				"_createRefCode(address,string memory)": "infinite",
				"_earnedStakingReward(address)": "infinite",
				"_handleBatchProcessForAutomation()": "infinite",
				"_isValidReferralCode(string memory)": "infinite",
				"_min(uint256,uint256)": "66",
				"_processNextBatchToReleaseStakingRewards()": "infinite",
				"_rewardsPerTokenAndSec(uint256)": "infinite",
				"_updateExpectedRefRewards(address,uint256)": "infinite",
				"_updateRefRewardPerSec(address,uint256)": "infinite",
				"_updateStakingReleasedRewards(uint256,uint256)": "infinite"
			}
		},
		"methodIdentifiers": {
			"PERCENTAGE_DENOMINATOR()": "b3cd4254",
			"REFERRAL_VESTING_PERIOD()": "366b2eff",
			"callingCount()": "dc70219f",
			"checkUpkeep(bytes)": "6e04ff0d",
			"claimReferralReward()": "9b4b2c9c",
			"claimStakingReward()": "afc695ce",
			"discountUnstakeFee()": "05a4263d",
			"duration()": "0fb5a6b4",
			"firstRefRewards(address,address)": "8ec7830b",
			"firstRefRewardsRate()": "f87582c4",
			"firstReferralRewards(address,address)": "cd47d73d",
			"getAPY()": "d2cbf7ad",
			"getAPYSimulation(uint256)": "9c30d8f0",
			"getRefereeCount(address)": "2c070d7d",
			"isReferrer(address)": "d64d6968",
			"isUsedRefCode(address)": "4ad6eb2e",
			"lastFirstRefRewardPerSec(address)": "c15ffa50",
			"lastSecondRefRewardPerSec(address)": "337aa4c4",
			"lastStakedAmount(address)": "3e50a556",
			"lastStakedTime(address)": "c57a202c",
			"lastTimeStampForChainlink()": "6a4681e5",
			"lastUnstakedAt(address)": "34fea342",
			"longtermStakingRewardsRate()": "b7061124",
			"multiplierEpoch()": "790e61c1",
			"multiplierRatePerEpoch()": "0a30307d",
			"owner()": "8da5cb5b",
			"pause()": "8456cb59",
			"paused()": "5c975abb",
			"performUpkeep(bytes)": "4585e33b",
			"refRewardStartedAt(address)": "88bd2aef",
			"refereeCount(address)": "472be74a",
			"referrers(address)": "4a3b68cc",
			"referrersWithRefCodes(string)": "bc48dcab",
			"releaseRefRewardDuration()": "c48c2636",
			"releaseRefRewardEpoch()": "5c4ed202",
			"releaseRewardDuration()": "fcc6d1f4",
			"releasedRewardUpdatedAt(address)": "fb099349",
			"remainingReferralRewards(address)": "2c52bed9",
			"remainingStakingRewards(address)": "3ae58ef2",
			"renounceOwnership()": "715018a6",
			"secondRefRewards(address,address)": "c1985a2a",
			"secondRefRewardsRate()": "7790a1c8",
			"secondReferralRewards(address,address)": "b9f2b4e0",
			"stake(uint256,address,string)": "8c4a23e0",
			"stakedWithRef(address,address)": "8be0f2ca",
			"stakingAppStartedAt()": "1c0b5a3f",
			"stakingRewardsToRelease(address)": "94998885",
			"token()": "fc0c546a",
			"tokensStaked(address)": "2cf01b55",
			"totalRefRewardClaimed(address)": "260429c2",
			"totalRefRewardsVested()": "5a2443f7",
			"totalRewardClaimed(address)": "bd9dc8f6",
			"totalStaked()": "817b1cd2",
			"totalStakedPrev()": "93f8691d",
			"totalStakingRewardsToRelease()": "a50a24e8",
			"transferOwnership(address)": "f2fde38b",
			"treasuryBalancePrev()": "03793298",
			"treasuryRateForRewards()": "15bf6c03",
			"treasuryWallet()": "4626402b",
			"unpause()": "3f4ba83a",
			"unstake(uint256)": "2e17de78",
			"unstakeFee()": "8ea97d26",
			"withdrawETH(address)": "690d8320"
		}
	},
	"abi": [
		{
			"inputs": [
				{
					"internalType": "address",
					"name": "_ownerAddress",
					"type": "address"
				},
				{
					"internalType": "address",
					"name": "_token",
					"type": "address"
				},
				{
					"internalType": "address",
					"name": "_treasuryWallet",
					"type": "address"
				},
				{
					"internalType": "uint256",
					"name": "_duration",
					"type": "uint256"
				}
			],
			"stateMutability": "nonpayable",
			"type": "constructor"
		},
		{
			"inputs": [],
			"name": "OnlySimulatedBackend",
			"type": "error"
		},
		{
			"inputs": [
				{
					"internalType": "address",
					"name": "owner",
					"type": "address"
				}
			],
			"name": "OwnableInvalidOwner",
			"type": "error"
		},
		{
			"inputs": [
				{
					"internalType": "address",
					"name": "account",
					"type": "address"
				}
			],
			"name": "OwnableUnauthorizedAccount",
			"type": "error"
		},
		{
			"anonymous": false,
			"inputs": [
				{
					"indexed": true,
					"internalType": "address",
					"name": "user",
					"type": "address"
				},
				{
					"indexed": false,
					"internalType": "uint256",
					"name": "amount",
					"type": "uint256"
				},
				{
					"indexed": false,
					"internalType": "uint256",
					"name": "time",
					"type": "uint256"
				}
			],
			"name": "ClaimReward",
			"type": "event"
		},
		{
			"anonymous": false,
			"inputs": [
				{
					"indexed": false,
					"internalType": "uint256",
					"name": "duration",
					"type": "uint256"
				},
				{
					"indexed": false,
					"internalType": "uint256",
					"name": "time",
					"type": "uint256"
				}
			],
			"name": "DurationChanged",
			"type": "event"
		},
		{
			"anonymous": false,
			"inputs": [
				{
					"indexed": true,
					"internalType": "address",
					"name": "previousOwner",
					"type": "address"
				},
				{
					"indexed": true,
					"internalType": "address",
					"name": "newOwner",
					"type": "address"
				}
			],
			"name": "OwnershipTransferred",
			"type": "event"
		},
		{
			"anonymous": false,
			"inputs": [
				{
					"indexed": false,
					"internalType": "address",
					"name": "account",
					"type": "address"
				}
			],
			"name": "Paused",
			"type": "event"
		},
		{
			"anonymous": false,
			"inputs": [
				{
					"indexed": true,
					"internalType": "address",
					"name": "referrer",
					"type": "address"
				},
				{
					"indexed": true,
					"internalType": "address",
					"name": "referee",
					"type": "address"
				},
				{
					"indexed": false,
					"internalType": "uint256",
					"name": "amount",
					"type": "uint256"
				},
				{
					"indexed": false,
					"internalType": "uint256",
					"name": "time",
					"type": "uint256"
				}
			],
			"name": "ReferralRewardClaimed",
			"type": "event"
		},
		{
			"anonymous": false,
			"inputs": [
				{
					"indexed": true,
					"internalType": "address",
					"name": "user",
					"type": "address"
				},
				{
					"indexed": false,
					"internalType": "uint256",
					"name": "amount",
					"type": "uint256"
				},
				{
					"indexed": false,
					"internalType": "uint256",
					"name": "time",
					"type": "uint256"
				}
			],
			"name": "StakeToken",
			"type": "event"
		},
		{
			"anonymous": false,
			"inputs": [
				{
					"indexed": false,
					"internalType": "address",
					"name": "account",
					"type": "address"
				}
			],
			"name": "Unpaused",
			"type": "event"
		},
		{
			"anonymous": false,
			"inputs": [
				{
					"indexed": true,
					"internalType": "address",
					"name": "user",
					"type": "address"
				},
				{
					"indexed": false,
					"internalType": "uint256",
					"name": "amount",
					"type": "uint256"
				},
				{
					"indexed": false,
					"internalType": "uint256",
					"name": "time",
					"type": "uint256"
				}
			],
			"name": "UnstakeToken",
			"type": "event"
		},
		{
			"stateMutability": "nonpayable",
			"type": "fallback"
		},
		{
			"inputs": [],
			"name": "PERCENTAGE_DENOMINATOR",
			"outputs": [
				{
					"internalType": "uint256",
					"name": "",
					"type": "uint256"
				}
			],
			"stateMutability": "view",
			"type": "function"
		},
		{
			"inputs": [],
			"name": "REFERRAL_VESTING_PERIOD",
			"outputs": [
				{
					"internalType": "uint256",
					"name": "",
					"type": "uint256"
				}
			],
			"stateMutability": "view",
			"type": "function"
		},
		{
			"inputs": [],
			"name": "callingCount",
			"outputs": [
				{
					"internalType": "uint256",
					"name": "",
					"type": "uint256"
				}
			],
			"stateMutability": "view",
			"type": "function"
		},
		{
			"inputs": [
				{
					"internalType": "bytes",
					"name": "checkData",
					"type": "bytes"
				}
			],
			"name": "checkUpkeep",
			"outputs": [
				{
					"internalType": "bool",
					"name": "upkeepNeeded",
					"type": "bool"
				},
				{
					"internalType": "bytes",
					"name": "performData",
					"type": "bytes"
				}
			],
			"stateMutability": "view",
			"type": "function"
		},
		{
			"inputs": [],
			"name": "claimReferralReward",
			"outputs": [
				{
					"internalType": "bool",
					"name": "",
					"type": "bool"
				}
			],
			"stateMutability": "nonpayable",
			"type": "function"
		},
		{
			"inputs": [],
			"name": "claimStakingReward",
			"outputs": [
				{
					"internalType": "bool",
					"name": "",
					"type": "bool"
				}
			],
			"stateMutability": "nonpayable",
			"type": "function"
		},
		{
			"inputs": [],
			"name": "discountUnstakeFee",
			"outputs": [
				{
					"internalType": "uint256",
					"name": "",
					"type": "uint256"
				}
			],
			"stateMutability": "view",
			"type": "function"
		},
		{
			"inputs": [],
			"name": "duration",
			"outputs": [
				{
					"internalType": "uint256",
					"name": "",
					"type": "uint256"
				}
			],
			"stateMutability": "view",
			"type": "function"
		},
		{
			"inputs": [
				{
					"internalType": "address",
					"name": "",
					"type": "address"
				},
				{
					"internalType": "address",
					"name": "",
					"type": "address"
				}
			],
			"name": "firstRefRewards",
			"outputs": [
				{
					"internalType": "uint256",
					"name": "",
					"type": "uint256"
				}
			],
			"stateMutability": "view",
			"type": "function"
		},
		{
			"inputs": [],
			"name": "firstRefRewardsRate",
			"outputs": [
				{
					"internalType": "uint256",
					"name": "",
					"type": "uint256"
				}
			],
			"stateMutability": "view",
			"type": "function"
		},
		{
			"inputs": [
				{
					"internalType": "address",
					"name": "",
					"type": "address"
				},
				{
					"internalType": "address",
					"name": "",
					"type": "address"
				}
			],
			"name": "firstReferralRewards",
			"outputs": [
				{
					"internalType": "uint256",
					"name": "totalAmount",
					"type": "uint256"
				},
				{
					"internalType": "uint256",
					"name": "startTime",
					"type": "uint256"
				},
				{
					"internalType": "uint256",
					"name": "claimedAmount",
					"type": "uint256"
				},
				{
					"internalType": "uint256",
					"name": "lastClaimTime",
					"type": "uint256"
				}
			],
			"stateMutability": "view",
			"type": "function"
		},
		{
			"inputs": [],
			"name": "getAPY",
			"outputs": [
				{
					"internalType": "uint256",
					"name": "",
					"type": "uint256"
				}
			],
			"stateMutability": "view",
			"type": "function"
		},
		{
			"inputs": [
				{
					"internalType": "uint256",
					"name": "_duration",
					"type": "uint256"
				}
			],
			"name": "getAPYSimulation",
			"outputs": [
				{
					"internalType": "uint256",
					"name": "",
					"type": "uint256"
				}
			],
			"stateMutability": "view",
			"type": "function"
		},
		{
			"inputs": [
				{
					"internalType": "address",
					"name": "_referrer",
					"type": "address"
				}
			],
			"name": "getRefereeCount",
			"outputs": [
				{
					"internalType": "uint256",
					"name": "",
					"type": "uint256"
				}
			],
			"stateMutability": "view",
			"type": "function"
		},
		{
			"inputs": [
				{
					"internalType": "address",
					"name": "",
					"type": "address"
				}
			],
			"name": "isReferrer",
			"outputs": [
				{
					"internalType": "bool",
					"name": "",
					"type": "bool"
				}
			],
			"stateMutability": "view",
			"type": "function"
		},
		{
			"inputs": [
				{
					"internalType": "address",
					"name": "",
					"type": "address"
				}
			],
			"name": "isUsedRefCode",
			"outputs": [
				{
					"internalType": "bool",
					"name": "",
					"type": "bool"
				}
			],
			"stateMutability": "view",
			"type": "function"
		},
		{
			"inputs": [
				{
					"internalType": "address",
					"name": "",
					"type": "address"
				}
			],
			"name": "lastFirstRefRewardPerSec",
			"outputs": [
				{
					"internalType": "uint256",
					"name": "",
					"type": "uint256"
				}
			],
			"stateMutability": "view",
			"type": "function"
		},
		{
			"inputs": [
				{
					"internalType": "address",
					"name": "",
					"type": "address"
				}
			],
			"name": "lastSecondRefRewardPerSec",
			"outputs": [
				{
					"internalType": "uint256",
					"name": "",
					"type": "uint256"
				}
			],
			"stateMutability": "view",
			"type": "function"
		},
		{
			"inputs": [
				{
					"internalType": "address",
					"name": "",
					"type": "address"
				}
			],
			"name": "lastStakedAmount",
			"outputs": [
				{
					"internalType": "uint256",
					"name": "",
					"type": "uint256"
				}
			],
			"stateMutability": "view",
			"type": "function"
		},
		{
			"inputs": [
				{
					"internalType": "address",
					"name": "",
					"type": "address"
				}
			],
			"name": "lastStakedTime",
			"outputs": [
				{
					"internalType": "uint256",
					"name": "",
					"type": "uint256"
				}
			],
			"stateMutability": "view",
			"type": "function"
		},
		{
			"inputs": [],
			"name": "lastTimeStampForChainlink",
			"outputs": [
				{
					"internalType": "uint256",
					"name": "",
					"type": "uint256"
				}
			],
			"stateMutability": "view",
			"type": "function"
		},
		{
			"inputs": [
				{
					"internalType": "address",
					"name": "",
					"type": "address"
				}
			],
			"name": "lastUnstakedAt",
			"outputs": [
				{
					"internalType": "uint256",
					"name": "",
					"type": "uint256"
				}
			],
			"stateMutability": "view",
			"type": "function"
		},
		{
			"inputs": [],
			"name": "longtermStakingRewardsRate",
			"outputs": [
				{
					"internalType": "uint256",
					"name": "",
					"type": "uint256"
				}
			],
			"stateMutability": "view",
			"type": "function"
		},
		{
			"inputs": [],
			"name": "multiplierEpoch",
			"outputs": [
				{
					"internalType": "uint256",
					"name": "",
					"type": "uint256"
				}
			],
			"stateMutability": "view",
			"type": "function"
		},
		{
			"inputs": [],
			"name": "multiplierRatePerEpoch",
			"outputs": [
				{
					"internalType": "uint256",
					"name": "",
					"type": "uint256"
				}
			],
			"stateMutability": "view",
			"type": "function"
		},
		{
			"inputs": [],
			"name": "owner",
			"outputs": [
				{
					"internalType": "address",
					"name": "",
					"type": "address"
				}
			],
			"stateMutability": "view",
			"type": "function"
		},
		{
			"inputs": [],
			"name": "pause",
			"outputs": [],
			"stateMutability": "nonpayable",
			"type": "function"
		},
		{
			"inputs": [],
			"name": "paused",
			"outputs": [
				{
					"internalType": "bool",
					"name": "",
					"type": "bool"
				}
			],
			"stateMutability": "view",
			"type": "function"
		},
		{
			"inputs": [
				{
					"internalType": "bytes",
					"name": "",
					"type": "bytes"
				}
			],
			"name": "performUpkeep",
			"outputs": [],
			"stateMutability": "nonpayable",
			"type": "function"
		},
		{
			"inputs": [
				{
					"internalType": "address",
					"name": "",
					"type": "address"
				}
			],
			"name": "refRewardStartedAt",
			"outputs": [
				{
					"internalType": "uint256",
					"name": "",
					"type": "uint256"
				}
			],
			"stateMutability": "view",
			"type": "function"
		},
		{
			"inputs": [
				{
					"internalType": "address",
					"name": "",
					"type": "address"
				}
			],
			"name": "refereeCount",
			"outputs": [
				{
					"internalType": "uint256",
					"name": "",
					"type": "uint256"
				}
			],
			"stateMutability": "view",
			"type": "function"
		},
		{
			"inputs": [
				{
					"internalType": "address",
					"name": "",
					"type": "address"
				}
			],
			"name": "referrers",
			"outputs": [
				{
					"internalType": "address",
					"name": "",
					"type": "address"
				}
			],
			"stateMutability": "view",
			"type": "function"
		},
		{
			"inputs": [
				{
					"internalType": "string",
					"name": "",
					"type": "string"
				}
			],
			"name": "referrersWithRefCodes",
			"outputs": [
				{
					"internalType": "address",
					"name": "",
					"type": "address"
				}
			],
			"stateMutability": "view",
			"type": "function"
		},
		{
			"inputs": [],
			"name": "releaseRefRewardDuration",
			"outputs": [
				{
					"internalType": "uint256",
					"name": "",
					"type": "uint256"
				}
			],
			"stateMutability": "view",
			"type": "function"
		},
		{
			"inputs": [],
			"name": "releaseRefRewardEpoch",
			"outputs": [
				{
					"internalType": "uint256",
					"name": "",
					"type": "uint256"
				}
			],
			"stateMutability": "view",
			"type": "function"
		},
		{
			"inputs": [],
			"name": "releaseRewardDuration",
			"outputs": [
				{
					"internalType": "uint256",
					"name": "",
					"type": "uint256"
				}
			],
			"stateMutability": "view",
			"type": "function"
		},
		{
			"inputs": [
				{
					"internalType": "address",
					"name": "",
					"type": "address"
				}
			],
			"name": "releasedRewardUpdatedAt",
			"outputs": [
				{
					"internalType": "uint256",
					"name": "",
					"type": "uint256"
				}
			],
			"stateMutability": "view",
			"type": "function"
		},
		{
			"inputs": [
				{
					"internalType": "address",
					"name": "",
					"type": "address"
				}
			],
			"name": "remainingReferralRewards",
			"outputs": [
				{
					"internalType": "uint256",
					"name": "",
					"type": "uint256"
				}
			],
			"stateMutability": "view",
			"type": "function"
		},
		{
			"inputs": [
				{
					"internalType": "address",
					"name": "",
					"type": "address"
				}
			],
			"name": "remainingStakingRewards",
			"outputs": [
				{
					"internalType": "uint256",
					"name": "",
					"type": "uint256"
				}
			],
			"stateMutability": "view",
			"type": "function"
		},
		{
			"inputs": [],
			"name": "renounceOwnership",
			"outputs": [],
			"stateMutability": "nonpayable",
			"type": "function"
		},
		{
			"inputs": [
				{
					"internalType": "address",
					"name": "",
					"type": "address"
				},
				{
					"internalType": "address",
					"name": "",
					"type": "address"
				}
			],
			"name": "secondRefRewards",
			"outputs": [
				{
					"internalType": "uint256",
					"name": "",
					"type": "uint256"
				}
			],
			"stateMutability": "view",
			"type": "function"
		},
		{
			"inputs": [],
			"name": "secondRefRewardsRate",
			"outputs": [
				{
					"internalType": "uint256",
					"name": "",
					"type": "uint256"
				}
			],
			"stateMutability": "view",
			"type": "function"
		},
		{
			"inputs": [
				{
					"internalType": "address",
					"name": "",
					"type": "address"
				},
				{
					"internalType": "address",
					"name": "",
					"type": "address"
				}
			],
			"name": "secondReferralRewards",
			"outputs": [
				{
					"internalType": "uint256",
					"name": "totalAmount",
					"type": "uint256"
				},
				{
					"internalType": "uint256",
					"name": "startTime",
					"type": "uint256"
				},
				{
					"internalType": "uint256",
					"name": "claimedAmount",
					"type": "uint256"
				},
				{
					"internalType": "uint256",
					"name": "lastClaimTime",
					"type": "uint256"
				}
			],
			"stateMutability": "view",
			"type": "function"
		},
		{
			"inputs": [
				{
					"internalType": "uint256",
					"name": "_amount",
					"type": "uint256"
				},
				{
					"internalType": "address",
					"name": "_referrer",
					"type": "address"
				},
				{
					"internalType": "string",
					"name": "_refCode",
					"type": "string"
				}
			],
			"name": "stake",
			"outputs": [],
			"stateMutability": "nonpayable",
			"type": "function"
		},
		{
			"inputs": [
				{
					"internalType": "address",
					"name": "",
					"type": "address"
				},
				{
					"internalType": "address",
					"name": "",
					"type": "address"
				}
			],
			"name": "stakedWithRef",
			"outputs": [
				{
					"internalType": "uint256",
					"name": "",
					"type": "uint256"
				}
			],
			"stateMutability": "view",
			"type": "function"
		},
		{
			"inputs": [],
			"name": "stakingAppStartedAt",
			"outputs": [
				{
					"internalType": "uint256",
					"name": "",
					"type": "uint256"
				}
			],
			"stateMutability": "view",
			"type": "function"
		},
		{
			"inputs": [
				{
					"internalType": "address",
					"name": "",
					"type": "address"
				}
			],
			"name": "stakingRewardsToRelease",
			"outputs": [
				{
					"internalType": "uint256",
					"name": "",
					"type": "uint256"
				}
			],
			"stateMutability": "view",
			"type": "function"
		},
		{
			"inputs": [],
			"name": "token",
			"outputs": [
				{
					"internalType": "contract IERC20Metadata",
					"name": "",
					"type": "address"
				}
			],
			"stateMutability": "view",
			"type": "function"
		},
		{
			"inputs": [
				{
					"internalType": "address",
					"name": "",
					"type": "address"
				}
			],
			"name": "tokensStaked",
			"outputs": [
				{
					"internalType": "uint256",
					"name": "",
					"type": "uint256"
				}
			],
			"stateMutability": "view",
			"type": "function"
		},
		{
			"inputs": [
				{
					"internalType": "address",
					"name": "",
					"type": "address"
				}
			],
			"name": "totalRefRewardClaimed",
			"outputs": [
				{
					"internalType": "uint256",
					"name": "",
					"type": "uint256"
				}
			],
			"stateMutability": "view",
			"type": "function"
		},
		{
			"inputs": [],
			"name": "totalRefRewardsVested",
			"outputs": [
				{
					"internalType": "uint256",
					"name": "",
					"type": "uint256"
				}
			],
			"stateMutability": "view",
			"type": "function"
		},
		{
			"inputs": [
				{
					"internalType": "address",
					"name": "",
					"type": "address"
				}
			],
			"name": "totalRewardClaimed",
			"outputs": [
				{
					"internalType": "uint256",
					"name": "",
					"type": "uint256"
				}
			],
			"stateMutability": "view",
			"type": "function"
		},
		{
			"inputs": [],
			"name": "totalStaked",
			"outputs": [
				{
					"internalType": "uint256",
					"name": "",
					"type": "uint256"
				}
			],
			"stateMutability": "view",
			"type": "function"
		},
		{
			"inputs": [],
			"name": "totalStakedPrev",
			"outputs": [
				{
					"internalType": "uint256",
					"name": "",
					"type": "uint256"
				}
			],
			"stateMutability": "view",
			"type": "function"
		},
		{
			"inputs": [],
			"name": "totalStakingRewardsToRelease",
			"outputs": [
				{
					"internalType": "uint256",
					"name": "",
					"type": "uint256"
				}
			],
			"stateMutability": "view",
			"type": "function"
		},
		{
			"inputs": [
				{
					"internalType": "address",
					"name": "newOwner",
					"type": "address"
				}
			],
			"name": "transferOwnership",
			"outputs": [],
			"stateMutability": "nonpayable",
			"type": "function"
		},
		{
			"inputs": [],
			"name": "treasuryBalancePrev",
			"outputs": [
				{
					"internalType": "uint256",
					"name": "",
					"type": "uint256"
				}
			],
			"stateMutability": "view",
			"type": "function"
		},
		{
			"inputs": [],
			"name": "treasuryRateForRewards",
			"outputs": [
				{
					"internalType": "uint256",
					"name": "",
					"type": "uint256"
				}
			],
			"stateMutability": "view",
			"type": "function"
		},
		{
			"inputs": [],
			"name": "treasuryWallet",
			"outputs": [
				{
					"internalType": "address",
					"name": "",
					"type": "address"
				}
			],
			"stateMutability": "view",
			"type": "function"
		},
		{
			"inputs": [],
			"name": "unpause",
			"outputs": [],
			"stateMutability": "nonpayable",
			"type": "function"
		},
		{
			"inputs": [
				{
					"internalType": "uint256",
					"name": "_amount",
					"type": "uint256"
				}
			],
			"name": "unstake",
			"outputs": [],
			"stateMutability": "nonpayable",
			"type": "function"
		},
		{
			"inputs": [],
			"name": "unstakeFee",
			"outputs": [
				{
					"internalType": "uint256",
					"name": "",
					"type": "uint256"
				}
			],
			"stateMutability": "view",
			"type": "function"
		},
		{
			"inputs": [
				{
					"internalType": "address",
					"name": "_to",
					"type": "address"
				}
			],
			"name": "withdrawETH",
			"outputs": [],
			"stateMutability": "nonpayable",
			"type": "function"
		},
		{
			"stateMutability": "payable",
			"type": "receive"
		}
	]
}