{
	"data": {
		"bytecode": {
			"linkReferences": {},
			"object": "608060405234801561001057600080fd5b506040516160a73803806160a783398181016040528101906100329190610d7c565b3360008060006101000a81548160ff02191690831515021790555060018081905550600073ffffffffffffffffffffffffffffffffffffffff168173ffffffffffffffffffffffffffffffffffffffff16036100c65760006040517f1e4fbdf70000000000000000000000000000000000000000000000000000000081526004016100bd9190610e65565b60405180910390fd5b6100d58161032760201b60201c565b5086600390816100e59190611097565b5085600490816100f59190611097565b506012600581905550670de0b6b3a7640000856101129190611198565b60068190555060065460078190555061271060646006546101339190611198565b61013d9190611209565b60108190555082600c8190555081600d81905550670de0b6b3a7640000600e8190555062015180600f819055506000600a819055504260158190555080600b60006101000a81548173ffffffffffffffffffffffffffffffffffffffff021916908373ffffffffffffffffffffffffffffffffffffffff1602179055506101cb8460016103ed60201b60201c565b6101dc84600161058260201b60201c565b61020f600b60009054906101000a900473ffffffffffffffffffffffffffffffffffffffff1660016103ed60201b60201c565b610242600b60009054906101000a900473ffffffffffffffffffffffffffffffffffffffff16600161058260201b60201c565b61025360065461064c60201b60201c565b600960008673ffffffffffffffffffffffffffffffffffffffff1673ffffffffffffffffffffffffffffffffffffffff168152602001908152602001600020819055506102a461068c60201b60201c565b8373ffffffffffffffffffffffffffffffffffffffff16600073ffffffffffffffffffffffffffffffffffffffff167fddf252ad1be2c89b69c2b068fc378daa952ba7f163c4a11628f55a4df523b3ef6006546040516103049190611249565b60405180910390a361031b846106aa60201b60201c565b505050505050506113b5565b6000600260009054906101000a900473ffffffffffffffffffffffffffffffffffffffff16905081600260006101000a81548173ffffffffffffffffffffffffffffffffffffffff021916908373ffffffffffffffffffffffffffffffffffffffff1602179055508173ffffffffffffffffffffffffffffffffffffffff168173ffffffffffffffffffffffffffffffffffffffff167f8be0079c531659141344cd1fd0a4f28419497f9722a3daafe3b4186f6b6457e060405160405180910390a35050565b600073ffffffffffffffffffffffffffffffffffffffff168273ffffffffffffffffffffffffffffffffffffffff160361045c576040517f08c379a0000000000000000000000000000000000000000000000000000000008152600401610453906112c1565b60405180910390fd5b6000601260008473ffffffffffffffffffffffffffffffffffffffff1673ffffffffffffffffffffffffffffffffffffffff16815260200190815260200160002060009054906101000a900460ff16905060006104be8461073c60201b60201c565b90508215158215151461057c5782601260008673ffffffffffffffffffffffffffffffffffffffff1673ffffffffffffffffffffffffffffffffffffffff16815260200190815260200160002060006101000a81548160ff0219169083151502179055508115801561052d5750825b1561055057806007600082825461054491906112e1565b9250508190555061057b565b81801561055b575082155b1561057a5780600760008282546105729190611315565b925050819055505b5b5b50505050565b600073ffffffffffffffffffffffffffffffffffffffff168273ffffffffffffffffffffffffffffffffffffffff16036105f1576040517f08c379a00000000000000000000000000000000000000000000000000000000081526004016105e8906112c1565b60405180910390fd5b80601360008473ffffffffffffffffffffffffffffffffffffffff1673ffffffffffffffffffffffffffffffffffffffff16815260200190815260200160002060006101000a81548160ff0219169083151502179055505050565b6000610685670de0b6b3a764000061067769d3c21bcecceda1000000856108a560201b90919060201c565b6108bb60201b90919060201c565b9050919050565b61069a6108d160201b60201c565b6106a861096a60201b60201c565b565b6106b86108d160201b60201c565b600073ffffffffffffffffffffffffffffffffffffffff168173ffffffffffffffffffffffffffffffffffffffff160361072a5760006040517f1e4fbdf70000000000000000000000000000000000000000000000000000000081526004016107219190610e65565b60405180910390fd5b6107398161032760201b60201c565b50565b6000601260008373ffffffffffffffffffffffffffffffffffffffff1673ffffffffffffffffffffffffffffffffffffffff16815260200190815260200160002060009054906101000a900460ff161561084f57600b60009054906101000a900473ffffffffffffffffffffffffffffffffffffffff1673ffffffffffffffffffffffffffffffffffffffff168273ffffffffffffffffffffffffffffffffffffffff16036107fa576107f36109d860201b60201c565b90506108a0565b610848600960008473ffffffffffffffffffffffffffffffffffffffff1673ffffffffffffffffffffffffffffffffffffffff16815260200190815260200160002054610a6160201b60201c565b90506108a0565b61089d600960008473ffffffffffffffffffffffffffffffffffffffff1673ffffffffffffffffffffffffffffffffffffffff16815260200190815260200160002054610aa160201b60201c565b90505b919050565b600081836108b39190611198565b905092915050565b600081836108c99190611209565b905092915050565b6108df610adb60201b60201c565b73ffffffffffffffffffffffffffffffffffffffff16610903610ae360201b60201c565b73ffffffffffffffffffffffffffffffffffffffff16146109685761092c610adb60201b60201c565b6040517f118cdaa700000000000000000000000000000000000000000000000000000000815260040161095f9190610e65565b60405180910390fd5b565b610978610b0d60201b60201c565b60016000806101000a81548160ff0219169083151502179055507f62e78cea01bee320cd4e420270b5ea74000d11b0c9f74754ebdbfc544b05a2586109c1610adb60201b60201c565b6040516109ce9190610e65565b60405180910390a1565b600080610a4b60096000600b60009054906101000a900473ffffffffffffffffffffffffffffffffffffffff1673ffffffffffffffffffffffffffffffffffffffff1673ffffffffffffffffffffffffffffffffffffffff16815260200190815260200160002054610a6160201b60201c565b905080600a54610a5b91906112e1565b91505090565b6000610a9a69d3c21bcecceda1000000610a8c670de0b6b3a7640000856108a560201b90919060201c565b6108bb60201b90919060201c565b9050919050565b6000610ad469d3c21bcecceda1000000610ac6600e54856108a560201b90919060201c565b6108bb60201b90919060201c565b9050919050565b600033905090565b6000600260009054906101000a900473ffffffffffffffffffffffffffffffffffffffff16905090565b610b1b610b5d60201b60201c565b15610b5b576040517f08c379a0000000000000000000000000000000000000000000000000000000008152600401610b5290611395565b60405180910390fd5b565b60008060009054906101000a900460ff16905090565b6000604051905090565b600080fd5b600080fd5b600080fd5b600080fd5b6000601f19601f8301169050919050565b7f4e487b7100000000000000000000000000000000000000000000000000000000600052604160045260246000fd5b610bda82610b91565b810181811067ffffffffffffffff82111715610bf957610bf8610ba2565b5b80604052505050565b6000610c0c610b73565b9050610c188282610bd1565b919050565b600067ffffffffffffffff821115610c3857610c37610ba2565b5b610c4182610b91565b9050602081019050919050565b60005b83811015610c6c578082015181840152602081019050610c51565b60008484015250505050565b6000610c8b610c8684610c1d565b610c02565b905082815260208101848484011115610ca757610ca6610b8c565b5b610cb2848285610c4e565b509392505050565b600082601f830112610ccf57610cce610b87565b5b8151610cdf848260208601610c78565b91505092915050565b6000819050919050565b610cfb81610ce8565b8114610d0657600080fd5b50565b600081519050610d1881610cf2565b92915050565b600073ffffffffffffffffffffffffffffffffffffffff82169050919050565b6000610d4982610d1e565b9050919050565b610d5981610d3e565b8114610d6457600080fd5b50565b600081519050610d7681610d50565b92915050565b600080600080600080600060e0888a031215610d9b57610d9a610b7d565b5b600088015167ffffffffffffffff811115610db957610db8610b82565b5b610dc58a828b01610cba565b975050602088015167ffffffffffffffff811115610de657610de5610b82565b5b610df28a828b01610cba565b9650506040610e038a828b01610d09565b9550506060610e148a828b01610d67565b9450506080610e258a828b01610d09565b93505060a0610e368a828b01610d09565b92505060c0610e478a828b01610d67565b91505092959891949750929550565b610e5f81610d3e565b82525050565b6000602082019050610e7a6000830184610e56565b92915050565b600081519050919050565b7f4e487b7100000000000000000000000000000000000000000000000000000000600052602260045260246000fd5b60006002820490506001821680610ed257607f821691505b602082108103610ee557610ee4610e8b565b5b50919050565b60008190508160005260206000209050919050565b60006020601f8301049050919050565b600082821b905092915050565b600060088302610f4d7fffffffffffffffffffffffffffffffffffffffffffffffffffffffffffffffff82610f10565b610f578683610f10565b95508019841693508086168417925050509392505050565b6000819050919050565b6000610f94610f8f610f8a84610ce8565b610f6f565b610ce8565b9050919050565b6000819050919050565b610fae83610f79565b610fc2610fba82610f9b565b848454610f1d565b825550505050565b600090565b610fd7610fca565b610fe2818484610fa5565b505050565b5b8181101561100657610ffb600082610fcf565b600181019050610fe8565b5050565b601f82111561104b5761101c81610eeb565b61102584610f00565b81016020851015611034578190505b61104861104085610f00565b830182610fe7565b50505b505050565b600082821c905092915050565b600061106e60001984600802611050565b1980831691505092915050565b6000611087838361105d565b9150826002028217905092915050565b6110a082610e80565b67ffffffffffffffff8111156110b9576110b8610ba2565b5b6110c38254610eba565b6110ce82828561100a565b600060209050601f83116001811461110157600084156110ef578287015190505b6110f9858261107b565b865550611161565b601f19841661110f86610eeb565b60005b8281101561113757848901518255600182019150602085019450602081019050611112565b868310156111545784890151611150601f89168261105d565b8355505b6001600288020188555050505b505050505050565b7f4e487b7100000000000000000000000000000000000000000000000000000000600052601160045260246000fd5b60006111a382610ce8565b91506111ae83610ce8565b92508282026111bc81610ce8565b915082820484148315176111d3576111d2611169565b5b5092915050565b7f4e487b7100000000000000000000000000000000000000000000000000000000600052601260045260246000fd5b600061121482610ce8565b915061121f83610ce8565b92508261122f5761122e6111da565b5b828204905092915050565b61124381610ce8565b82525050565b600060208201905061125e600083018461123a565b92915050565b600082825260208201905092915050565b7f4163636f756e742073686f756c646e2774206265207a65726f2e000000000000600082015250565b60006112ab601a83611264565b91506112b682611275565b602082019050919050565b600060208201905081810360008301526112da8161129e565b9050919050565b60006112ec82610ce8565b91506112f783610ce8565b925082820190508082111561130f5761130e611169565b5b92915050565b600061132082610ce8565b915061132b83610ce8565b925082820390508181111561134357611342611169565b5b92915050565b7f5061757361626c653a2070617573656400000000000000000000000000000000600082015250565b600061137f601083611264565b915061138a82611349565b602082019050919050565b600060208201905081810360008301526113ae81611372565b9050919050565b614ce3806113c46000396000f3fe6080604052600436106102cd5760003560e01c8063715018a611610175578063924c2ead116100dc578063b4dade5911610095578063df0ab3081161006f578063df0ab30814610b3e578063e32e3e1514610b67578063e5a5e31814610b92578063f2fde38b14610bbb576102d4565b8063b4dade5914610aad578063dc90b44214610ad6578063dd62ed3e14610b01576102d4565b8063924c2ead1461096357806395d89b41146109a057806399697003146109cb578063a457c2d714610a08578063a9059cbb14610a45578063b3cd425414610a82576102d4565b8063874a6ae71161012e578063874a6ae71461083d578063893d20e8146108685780638cf66b16146108935780638da5cb5b146108d05780638f372fa3146108fb5780639220d3ed14610926576102d4565b8063715018a61461076b57806375c2b13f146107825780637819f36f146107ab57806379825ede146107d457806381cea332146107fd5780638456cb5914610826576102d4565b80633f3b3b27116102345780635d70dde6116101ed5780636aa3773f116101c75780636aa3773f1461069e5780636c5ed03e146106c75780636e04ff0d146106f057806370a082311461072e576102d4565b80635d70dde614610633578063685f59de1461064a578063690d832014610675576102d4565b80633f3b3b27146105475780633f4ba83a146105725780634585e33b146105895780634626402b146105b25780635b7f415c146105dd5780635c975abb14610608576102d4565b8063249592461161028657806324959246146104115780632ce8bd561461044e578063313ce5671461047957806339509351146104a45780633af9e669146104e15780633cde0c0f1461051e576102d4565b806306fdde03146102d9578063095ea7b3146103045780631658a7001461034157806318160ddd1461037e57806323b872dd146103a957806324024efd146103e6576102d4565b366102d457005b600080fd5b3480156102e557600080fd5b506102ee610be4565b6040516102fb91906138aa565b60405180910390f35b34801561031057600080fd5b5061032b60048036038101906103269190613974565b610c72565b60405161033891906139cf565b60405180910390f35b34801561034d57600080fd5b50610368600480360381019061036391906139ea565b610c89565b60405161037591906139cf565b60405180910390f35b34801561038a57600080fd5b50610393610ca9565b6040516103a09190613a26565b60405180910390f35b3480156103b557600080fd5b506103d060048036038101906103cb9190613a41565b610cc0565b6040516103dd91906139cf565b60405180910390f35b3480156103f257600080fd5b506103fb610d8b565b6040516104089190613a26565b60405180910390f35b34801561041d57600080fd5b5061043860048036038101906104339190613a94565b610d91565b6040516104459190613a26565b60405180910390f35b34801561045a57600080fd5b50610463610da3565b6040516104709190613a26565b60405180910390f35b34801561048557600080fd5b5061048e610da9565b60405161049b9190613add565b60405180910390f35b3480156104b057600080fd5b506104cb60048036038101906104c69190613974565b610db3565b6040516104d891906139cf565b60405180910390f35b3480156104ed57600080fd5b50610508600480360381019061050391906139ea565b610e58565b6040516105159190613a26565b60405180910390f35b34801561052a57600080fd5b5061054560048036038101906105409190613a94565b610ea1565b005b34801561055357600080fd5b5061055c610eb3565b6040516105699190613a26565b60405180910390f35b34801561057e57600080fd5b50610587610eb9565b005b34801561059557600080fd5b506105b060048036038101906105ab9190613b5d565b610ecb565b005b3480156105be57600080fd5b506105c7610f76565b6040516105d49190613bb9565b60405180910390f35b3480156105e957600080fd5b506105f2610f9c565b6040516105ff9190613a26565b60405180910390f35b34801561061457600080fd5b5061061d610fa8565b60405161062a91906139cf565b60405180910390f35b34801561063f57600080fd5b50610648610fbe565b005b34801561065657600080fd5b5061065f610fde565b60405161066c9190613a26565b60405180910390f35b34801561068157600080fd5b5061069c600480360381019061069791906139ea565b610fe4565b005b3480156106aa57600080fd5b506106c560048036038101906106c09190613974565b61110b565b005b3480156106d357600080fd5b506106ee60048036038101906106e99190613d3e565b611418565b005b3480156106fc57600080fd5b5061071760048036038101906107129190613b5d565b61150a565b604051610725929190613def565b60405180910390f35b34801561073a57600080fd5b50610755600480360381019061075091906139ea565b611570565b6040516107629190613a26565b60405180910390f35b34801561077757600080fd5b506107806116c7565b005b34801561078e57600080fd5b506107a960048036038101906107a49190613e1f565b6116db565b005b3480156107b757600080fd5b506107d260048036038101906107cd9190613d3e565b6117ad565b005b3480156107e057600080fd5b506107fb60048036038101906107f69190613e1f565b6117f5565b005b34801561080957600080fd5b50610824600480360381019061081f9190613a94565b6118db565b005b34801561083257600080fd5b5061083b611932565b005b34801561084957600080fd5b50610852611944565b60405161085f9190613a26565b60405180910390f35b34801561087457600080fd5b5061087d61194a565b60405161088a9190613bb9565b60405180910390f35b34801561089f57600080fd5b506108ba60048036038101906108b591906139ea565b611959565b6040516108c791906139cf565b60405180910390f35b3480156108dc57600080fd5b506108e5611979565b6040516108f29190613bb9565b60405180910390f35b34801561090757600080fd5b506109106119a3565b60405161091d9190613a26565b60405180910390f35b34801561093257600080fd5b5061094d600480360381019061094891906139ea565b6119a9565b60405161095a91906139cf565b60405180910390f35b34801561096f57600080fd5b5061098a600480360381019061098591906139ea565b6119c9565b60405161099791906139cf565b60405180910390f35b3480156109ac57600080fd5b506109b56119e9565b6040516109c291906138aa565b60405180910390f35b3480156109d757600080fd5b506109f260048036038101906109ed9190613a94565b611a77565b6040516109ff9190613a26565b60405180910390f35b348015610a1457600080fd5b50610a2f6004803603810190610a2a9190613974565b611a89565b604051610a3c91906139cf565b60405180910390f35b348015610a5157600080fd5b50610a6c6004803603810190610a679190613974565b611b48565b604051610a7991906139cf565b60405180910390f35b348015610a8e57600080fd5b50610a97611b5f565b604051610aa49190613a26565b60405180910390f35b348015610ab957600080fd5b50610ad46004803603810190610acf9190613a94565b611b65565b005b348015610ae257600080fd5b50610aeb611bbc565b604051610af89190613a26565b60405180910390f35b348015610b0d57600080fd5b50610b286004803603810190610b239190613e5f565b611bc2565b604051610b359190613a26565b60405180910390f35b348015610b4a57600080fd5b50610b656004803603810190610b609190613a94565b611c49565b005b348015610b7357600080fd5b50610b7c611c5b565b604051610b899190613a26565b60405180910390f35b348015610b9e57600080fd5b50610bb96004803603810190610bb49190613f62565b611c69565b005b348015610bc757600080fd5b50610be26004803603810190610bdd91906139ea565b612176565b005b60038054610bf190614009565b80601f0160208091040260200160405190810160405280929190818152602001828054610c1d90614009565b8015610c6a5780601f10610c3f57610100808354040283529160200191610c6a565b820191906000526020600020905b815481529060010190602001808311610c4d57829003601f168201915b505050505081565b6000610c7f3384846121fc565b6001905092915050565b60116020528060005260406000206000915054906101000a900460ff1681565b6000600a54600654610cbb9190614069565b905090565b6000610ccd8484846123c5565b610d808433610d7b85604051806060016040528060288152602001614c6160289139600860008b73ffffffffffffffffffffffffffffffffffffffff1673ffffffffffffffffffffffffffffffffffffffff16815260200190815260200160002060003373ffffffffffffffffffffffffffffffffffffffff1673ffffffffffffffffffffffffffffffffffffffff16815260200190815260200160002054612cd79092919063ffffffff16565b6121fc565b600190509392505050565b600c5481565b6000610d9c82612d2c565b9050919050565b600d5481565b6000600554905090565b6000610e4e3384610e4985600860003373ffffffffffffffffffffffffffffffffffffffff1673ffffffffffffffffffffffffffffffffffffffff16815260200190815260200160002060008973ffffffffffffffffffffffffffffffffffffffff1673ffffffffffffffffffffffffffffffffffffffff16815260200190815260200160002054612d6690919063ffffffff16565b6121fc565b6001905092915050565b6000600960008373ffffffffffffffffffffffffffffffffffffffff1673ffffffffffffffffffffffffffffffffffffffff168152602001908152602001600020549050919050565b610ea9612d7c565b8060108190555050565b60155481565b610ec1612d7c565b610ec9612e03565b565b600f5460155442610edc919061409d565b11610f1c576040517f08c379a0000000000000000000000000000000000000000000000000000000008152600401610f139061411d565b60405180910390fd5b6007546006541015610f63576040517f08c379a0000000000000000000000000000000000000000000000000000000008152600401610f5a906141af565b60405180910390fd5b610f6b612e65565b426015819055505050565b600b60009054906101000a900473ffffffffffffffffffffffffffffffffffffffff1681565b670de0b6b3a764000081565b60008060009054906101000a900460ff16905090565b610fc6612d7c565b426015541115610fd557600080fd5b42601581905550565b600f5481565b610fec612d7c565b600073ffffffffffffffffffffffffffffffffffffffff168173ffffffffffffffffffffffffffffffffffffffff160361105b576040517f08c379a00000000000000000000000000000000000000000000000000000000081526004016110529061421b565b60405180910390fd5b60008173ffffffffffffffffffffffffffffffffffffffff16476040516110819061426c565b60006040518083038185875af1925050503d80600081146110be576040519150601f19603f3d011682016040523d82523d6000602084013e6110c3565b606091505b5050905080611107576040517f08c379a00000000000000000000000000000000000000000000000000000000081526004016110fe906142cd565b60405180910390fd5b5050565b611113612f60565b601460003373ffffffffffffffffffffffffffffffffffffffff1673ffffffffffffffffffffffffffffffffffffffff16815260200190815260200160002060009054906101000a900460ff168061119d575061116e611979565b73ffffffffffffffffffffffffffffffffffffffff163373ffffffffffffffffffffffffffffffffffffffff16145b6111a657600080fd5b6000600a5411156111e0576111df600a54600b60009054906101000a900473ffffffffffffffffffffffffffffffffffffffff16612faa565b5b601260008373ffffffffffffffffffffffffffffffffffffffff1673ffffffffffffffffffffffffffffffffffffffff16815260200190815260200160002060009054906101000a900460ff16156112955761123b81613016565b600960008473ffffffffffffffffffffffffffffffffffffffff1673ffffffffffffffffffffffffffffffffffffffff16815260200190815260200160002060008282546112899190614069565b9250508190555061130d565b61129e81613056565b600960008473ffffffffffffffffffffffffffffffffffffffff1673ffffffffffffffffffffffffffffffffffffffff16815260200190815260200160002060008282546112ec9190614069565b925050819055508060076000828254611305919061409d565b925050819055505b61131681613016565b60096000600b60009054906101000a900473ffffffffffffffffffffffffffffffffffffffff1673ffffffffffffffffffffffffffffffffffffffff1673ffffffffffffffffffffffffffffffffffffffff1681526020019081526020016000206000828254611386919061409d565b925050819055508173ffffffffffffffffffffffffffffffffffffffff16600b60009054906101000a900473ffffffffffffffffffffffffffffffffffffffff1673ffffffffffffffffffffffffffffffffffffffff167fddf252ad1be2c89b69c2b068fc378daa952ba7f163c4a11628f55a4df523b3ef8360405161140c9190613a26565b60405180910390a35050565b611420612d7c565b60005b825181101561150557600b60009054906101000a900473ffffffffffffffffffffffffffffffffffffffff1673ffffffffffffffffffffffffffffffffffffffff16838281518110611478576114776142ed565b5b602002602001015173ffffffffffffffffffffffffffffffffffffffff16036114d6576040517f08c379a00000000000000000000000000000000000000000000000000000000081526004016114cd9061438e565b60405180910390fd5b6114fa8382815181106114ec576114eb6142ed565b5b602002602001015183613090565b806001019050611423565b505050565b60006060600f546015544261151f919061409d565b11915083838080601f016020809104026020016040519081016040528093929190818152602001838380828437600081840152601f19601f8201169050808301925050505050505090509250929050565b6000601260008373ffffffffffffffffffffffffffffffffffffffff1673ffffffffffffffffffffffffffffffffffffffff16815260200190815260200160002060009054906101000a900460ff161561167757600b60009054906101000a900473ffffffffffffffffffffffffffffffffffffffff1673ffffffffffffffffffffffffffffffffffffffff168273ffffffffffffffffffffffffffffffffffffffff16036116285761162161321f565b90506116c2565b611670600960008473ffffffffffffffffffffffffffffffffffffffff1673ffffffffffffffffffffffffffffffffffffffff168152602001908152602001600020546132a2565b90506116c2565b6116bf600960008473ffffffffffffffffffffffffffffffffffffffff1673ffffffffffffffffffffffffffffffffffffffff16815260200190815260200160002054612d2c565b90505b919050565b6116cf612d7c565b6116d960006132e2565b565b6116e3612d7c565b600073ffffffffffffffffffffffffffffffffffffffff168273ffffffffffffffffffffffffffffffffffffffff1603611752576040517f08c379a0000000000000000000000000000000000000000000000000000000008152600401611749906143fa565b60405180910390fd5b80601460008473ffffffffffffffffffffffffffffffffffffffff1673ffffffffffffffffffffffffffffffffffffffff16815260200190815260200160002060006101000a81548160ff0219169083151502179055505050565b6117b5612d7c565b60005b82518110156117f0576117e58382815181106117d7576117d66142ed565b5b6020026020010151836133a8565b8060010190506117b8565b505050565b6117fd612d7c565b600073ffffffffffffffffffffffffffffffffffffffff168273ffffffffffffffffffffffffffffffffffffffff160361186c576040517f08c379a00000000000000000000000000000000000000000000000000000000081526004016118639061448c565b60405180910390fd5b80601160008473ffffffffffffffffffffffffffffffffffffffff1673ffffffffffffffffffffffffffffffffffffffff16815260200190815260200160002060006101000a81548160ff0219169083151502179055506118cd8282613090565b6118d782826133a8565b5050565b6118e3612d7c565b612710811115611928576040517f08c379a000000000000000000000000000000000000000000000000000000000815260040161191f9061451e565b60405180910390fd5b80600d8190555050565b61193a612d7c565b611942613472565b565b60105481565b6000611954611979565b905090565b60136020528060005260406000206000915054906101000a900460ff1681565b6000600260009054906101000a900473ffffffffffffffffffffffffffffffffffffffff16905090565b60075481565b60146020528060005260406000206000915054906101000a900460ff1681565b60126020528060005260406000206000915054906101000a900460ff1681565b600480546119f690614009565b80601f0160208091040260200160405190810160405280929190818152602001828054611a2290614009565b8015611a6f5780601f10611a4457610100808354040283529160200191611a6f565b820191906000526020600020905b815481529060010190602001808311611a5257829003601f168201915b505050505081565b6000611a8282613056565b9050919050565b6000611b3e3384611b3985604051806060016040528060258152602001614c8960259139600860003373ffffffffffffffffffffffffffffffffffffffff1673ffffffffffffffffffffffffffffffffffffffff16815260200190815260200160002060008a73ffffffffffffffffffffffffffffffffffffffff1673ffffffffffffffffffffffffffffffffffffffff16815260200190815260200160002054612cd79092919063ffffffff16565b6121fc565b6001905092915050565b6000611b553384846123c5565b6001905092915050565b61271081565b611b6d612d7c565b611388811115611bb2576040517f08c379a0000000000000000000000000000000000000000000000000000000008152600401611ba99061451e565b60405180910390fd5b80600c8190555050565b600e5481565b6000600860008473ffffffffffffffffffffffffffffffffffffffff1673ffffffffffffffffffffffffffffffffffffffff16815260200190815260200160002060008373ffffffffffffffffffffffffffffffffffffffff1673ffffffffffffffffffffffffffffffffffffffff16815260200190815260200160002054905092915050565b611c51612d7c565b80600f8190555050565b69d3c21bcecceda100000081565b611c716134d4565b611c79612f60565b8051825114611cbd576040517f08c379a0000000000000000000000000000000000000000000000000000000008152600401611cb49061458a565b60405180910390fd5b6000805b8251811015611cfd57828181518110611cdd57611cdc6142ed565b5b602002602001015182611cf09190614069565b9150806001019050611cc1565b5080611d0833611570565b1015611d49576040517f08c379a0000000000000000000000000000000000000000000000000000000008152600401611d40906145f6565b60405180910390fd5b60005b835181101561216857828181518110611d6857611d676142ed565b5b6020026020010151611d7933611570565b111561215d57601260003373ffffffffffffffffffffffffffffffffffffffff1673ffffffffffffffffffffffffffffffffffffffff16815260200190815260200160002060009054906101000a900460ff1615611e8157611df4838281518110611de757611de66142ed565b5b6020026020010151613016565b600960003373ffffffffffffffffffffffffffffffffffffffff1673ffffffffffffffffffffffffffffffffffffffff1681526020019081526020016000206000828254611e42919061409d565b92505081905550828181518110611e5c57611e5b6142ed565b5b602002602001015160076000828254611e75919061409d565b92505081905550611efa565b611ea4838281518110611e9757611e966142ed565b5b6020026020010151613056565b600960003373ffffffffffffffffffffffffffffffffffffffff1673ffffffffffffffffffffffffffffffffffffffff1681526020019081526020016000206000828254611ef2919061409d565b925050819055505b60126000858381518110611f1157611f106142ed565b5b602002602001015173ffffffffffffffffffffffffffffffffffffffff1673ffffffffffffffffffffffffffffffffffffffff16815260200190815260200160002060009054906101000a900460ff161561203057611f89838281518110611f7c57611f7b6142ed565b5b6020026020010151613016565b60096000868481518110611fa057611f9f6142ed565b5b602002602001015173ffffffffffffffffffffffffffffffffffffffff1673ffffffffffffffffffffffffffffffffffffffff1681526020019081526020016000206000828254611ff19190614069565b9250508190555082818151811061200b5761200a6142ed565b5b6020026020010151600760008282546120249190614069565b925050819055506120c3565b612053838281518110612046576120456142ed565b5b6020026020010151613056565b6009600086848151811061206a576120696142ed565b5b602002602001015173ffffffffffffffffffffffffffffffffffffffff1673ffffffffffffffffffffffffffffffffffffffff16815260200190815260200160002060008282546120bb9190614069565b925050819055505b8381815181106120d6576120d56142ed565b5b602002602001015173ffffffffffffffffffffffffffffffffffffffff163373ffffffffffffffffffffffffffffffffffffffff167fddf252ad1be2c89b69c2b068fc378daa952ba7f163c4a11628f55a4df523b3ef85848151811061213f5761213e6142ed565b5b60200260200101516040516121549190613a26565b60405180910390a35b806001019050611d4c565b5050612172613523565b5050565b61217e612d7c565b600073ffffffffffffffffffffffffffffffffffffffff168173ffffffffffffffffffffffffffffffffffffffff16036121f05760006040517f1e4fbdf70000000000000000000000000000000000000000000000000000000081526004016121e79190613bb9565b60405180910390fd5b6121f9816132e2565b50565b600073ffffffffffffffffffffffffffffffffffffffff168373ffffffffffffffffffffffffffffffffffffffff160361226b576040517f08c379a000000000000000000000000000000000000000000000000000000000815260040161226290614688565b60405180910390fd5b600073ffffffffffffffffffffffffffffffffffffffff168273ffffffffffffffffffffffffffffffffffffffff16036122da576040517f08c379a00000000000000000000000000000000000000000000000000000000081526004016122d19061471a565b60405180910390fd5b80600860008573ffffffffffffffffffffffffffffffffffffffff1673ffffffffffffffffffffffffffffffffffffffff16815260200190815260200160002060008473ffffffffffffffffffffffffffffffffffffffff1673ffffffffffffffffffffffffffffffffffffffff168152602001908152602001600020819055508173ffffffffffffffffffffffffffffffffffffffff168373ffffffffffffffffffffffffffffffffffffffff167f8c5be1e5ebec7d5bd14f71427d1e84f3dd0314c0f7b2291e5b200ac8c7c3b925836040516123b89190613a26565b60405180910390a3505050565b6123cd612f60565b600073ffffffffffffffffffffffffffffffffffffffff168373ffffffffffffffffffffffffffffffffffffffff160361243c576040517f08c379a0000000000000000000000000000000000000000000000000000000008152600401612433906147ac565b60405180910390fd5b600073ffffffffffffffffffffffffffffffffffffffff168273ffffffffffffffffffffffffffffffffffffffff16036124ab576040517f08c379a00000000000000000000000000000000000000000000000000000000081526004016124a29061483e565b60405180910390fd5b806124b584611570565b10156124f6576040517f08c379a00000000000000000000000000000000000000000000000000000000081526004016124ed906148aa565b60405180910390fd5b60105461250283611570565b1015801561255a5750601360008373ffffffffffffffffffffffffffffffffffffffff1673ffffffffffffffffffffffffffffffffffffffff16815260200190815260200160002060009054906101000a900460ff16155b1561259a576040517f08c379a000000000000000000000000000000000000000000000000000000000815260040161259190614916565b60405180910390fd5b6000819050601360008473ffffffffffffffffffffffffffffffffffffffff1673ffffffffffffffffffffffffffffffffffffffff16815260200190815260200160002060009054906101000a900460ff1615801561260d57506010548161260185611570565b61260b9190614069565b115b15612641576010548161261f85611570565b6126299190614069565b612633919061409d565b8161263e919061409d565b90505b600061264c82613056565b9050601260008673ffffffffffffffffffffffffffffffffffffffff1673ffffffffffffffffffffffffffffffffffffffff16815260200190815260200160002060009054906101000a900460ff16156126ac576126a982613016565b90505b60006126b6611979565b73ffffffffffffffffffffffffffffffffffffffff168673ffffffffffffffffffffffffffffffffffffffff161415801561273a5750601160008673ffffffffffffffffffffffffffffffffffffffff1673ffffffffffffffffffffffffffffffffffffffff16815260200190815260200160002060009054906101000a900460ff165b1561275d57612710600c54846127509190614936565b61275a91906149a7565b90505b6000818461276b919061409d565b9050600061277882613056565b90506000601260008973ffffffffffffffffffffffffffffffffffffffff1673ffffffffffffffffffffffffffffffffffffffff16815260200190815260200160002060009054906101000a900460ff166127d357816127dd565b6127dc83613016565b5b905084600960008b73ffffffffffffffffffffffffffffffffffffffff1673ffffffffffffffffffffffffffffffffffffffff168152602001908152602001600020600082825461282e919061409d565b92505081905550601260008973ffffffffffffffffffffffffffffffffffffffff1673ffffffffffffffffffffffffffffffffffffffff16815260200190815260200160002060009054906101000a900460ff16156128e25780600960008a73ffffffffffffffffffffffffffffffffffffffff1673ffffffffffffffffffffffffffffffffffffffff16815260200190815260200160002060008282546128d69190614069565b92505081905550612939565b81600960008a73ffffffffffffffffffffffffffffffffffffffff1673ffffffffffffffffffffffffffffffffffffffff16815260200190815260200160002060008282546129319190614069565b925050819055505b83600a600082825461294b9190614069565b925050819055508360066000828254612964919061409d565b925050819055508773ffffffffffffffffffffffffffffffffffffffff168973ffffffffffffffffffffffffffffffffffffffff167fddf252ad1be2c89b69c2b068fc378daa952ba7f163c4a11628f55a4df523b3ef856040516129c89190613a26565b60405180910390a36000841115612a6157600b60009054906101000a900473ffffffffffffffffffffffffffffffffffffffff1673ffffffffffffffffffffffffffffffffffffffff168973ffffffffffffffffffffffffffffffffffffffff167fddf252ad1be2c89b69c2b068fc378daa952ba7f163c4a11628f55a4df523b3ef86604051612a589190613a26565b60405180910390a35b601260008a73ffffffffffffffffffffffffffffffffffffffff1673ffffffffffffffffffffffffffffffffffffffff16815260200190815260200160002060009054906101000a900460ff16158015612b045750601260008973ffffffffffffffffffffffffffffffffffffffff1673ffffffffffffffffffffffffffffffffffffffff16815260200190815260200160002060009054906101000a900460ff165b15612b27578260076000828254612b1b9190614069565b92505081905550612c92565b601260008a73ffffffffffffffffffffffffffffffffffffffff1673ffffffffffffffffffffffffffffffffffffffff16815260200190815260200160002060009054906101000a900460ff168015612bca5750601260008973ffffffffffffffffffffffffffffffffffffffff1673ffffffffffffffffffffffffffffffffffffffff16815260200190815260200160002060009054906101000a900460ff16155b15612bed578260076000828254612be1919061409d565b92505081905550612c91565b601260008a73ffffffffffffffffffffffffffffffffffffffff1673ffffffffffffffffffffffffffffffffffffffff16815260200190815260200160002060009054906101000a900460ff168015612c8f5750601260008973ffffffffffffffffffffffffffffffffffffffff1673ffffffffffffffffffffffffffffffffffffffff16815260200190815260200160002060009054906101000a900460ff165b505b5b6000600a541115612ccc57612ccb600a54600b60009054906101000a900473ffffffffffffffffffffffffffffffffffffffff16612faa565b5b505050505050505050565b6000838311158290612d1f576040517f08c379a0000000000000000000000000000000000000000000000000000000008152600401612d1691906138aa565b60405180910390fd5b5082840390509392505050565b6000612d5f69d3c21bcecceda1000000612d51600e548561352c90919063ffffffff16565b61354290919063ffffffff16565b9050919050565b60008183612d749190614069565b905092915050565b612d84613558565b73ffffffffffffffffffffffffffffffffffffffff16612da2611979565b73ffffffffffffffffffffffffffffffffffffffff1614612e0157612dc5613558565b6040517f118cdaa7000000000000000000000000000000000000000000000000000000008152600401612df89190613bb9565b60405180910390fd5b565b612e0b613560565b60008060006101000a81548160ff0219169083151502179055507f5db9ee0a495bf2e6ff9c91a7834c1ba4fdd244a5e8aa4e537bd38aeae4b073aa612e4e613558565b604051612e5b9190613bb9565b60405180910390a1565b612e6d612f60565b6000612710670de0b6b3a7640000600d54612e889190614936565b612e9291906149a7565b90506000600754600654612ea6919061409d565b9050670de0b6b3a764000082670de0b6b3a7640000612ec5919061409d565b600e54612ed29190614936565b612edc91906149a7565b600e819055506000670de0b6b3a764000083670de0b6b3a7640000612f01919061409d565b83612f0c9190614936565b612f1691906149a7565b905060008183612f26919061409d565b905080600a6000828254612f3a9190614069565b925050819055508060066000828254612f53919061409d565b9250508190555050505050565b612f68610fa8565b15612fa8576040517f08c379a0000000000000000000000000000000000000000000000000000000008152600401612f9f90614a24565b60405180910390fd5b565b81600a541015612fef576040517f08c379a0000000000000000000000000000000000000000000000000000000008152600401612fe690614a90565b60405180910390fd5b81600a6000828254613001919061409d565b9250508190555061301281836135a9565b5050565b600061304f670de0b6b3a764000061304169d3c21bcecceda10000008561352c90919063ffffffff16565b61354290919063ffffffff16565b9050919050565b6000613089600e5461307b69d3c21bcecceda10000008561352c90919063ffffffff16565b61354290919063ffffffff16565b9050919050565b600073ffffffffffffffffffffffffffffffffffffffff168273ffffffffffffffffffffffffffffffffffffffff16036130ff576040517f08c379a00000000000000000000000000000000000000000000000000000000081526004016130f690614afc565b60405180910390fd5b6000601260008473ffffffffffffffffffffffffffffffffffffffff1673ffffffffffffffffffffffffffffffffffffffff16815260200190815260200160002060009054906101000a900460ff169050600061315b84611570565b9050821515821515146132195782601260008673ffffffffffffffffffffffffffffffffffffffff1673ffffffffffffffffffffffffffffffffffffffff16815260200190815260200160002060006101000a81548160ff021916908315150217905550811580156131ca5750825b156131ed5780600760008282546131e19190614069565b92505081905550613218565b8180156131f8575082155b1561321757806007600082825461320f919061409d565b925050819055505b5b5b50505050565b60008061328c60096000600b60009054906101000a900473ffffffffffffffffffffffffffffffffffffffff1673ffffffffffffffffffffffffffffffffffffffff1673ffffffffffffffffffffffffffffffffffffffff168152602001908152602001600020546132a2565b905080600a5461329c9190614069565b91505090565b60006132db69d3c21bcecceda10000006132cd670de0b6b3a76400008561352c90919063ffffffff16565b61354290919063ffffffff16565b9050919050565b6000600260009054906101000a900473ffffffffffffffffffffffffffffffffffffffff16905081600260006101000a81548173ffffffffffffffffffffffffffffffffffffffff021916908373ffffffffffffffffffffffffffffffffffffffff1602179055508173ffffffffffffffffffffffffffffffffffffffff168173ffffffffffffffffffffffffffffffffffffffff167f8be0079c531659141344cd1fd0a4f28419497f9722a3daafe3b4186f6b6457e060405160405180910390a35050565b600073ffffffffffffffffffffffffffffffffffffffff168273ffffffffffffffffffffffffffffffffffffffff1603613417576040517f08c379a000000000000000000000000000000000000000000000000000000000815260040161340e90614afc565b60405180910390fd5b80601360008473ffffffffffffffffffffffffffffffffffffffff1673ffffffffffffffffffffffffffffffffffffffff16815260200190815260200160002060006101000a81548160ff0219169083151502179055505050565b61347a612f60565b60016000806101000a81548160ff0219169083151502179055507f62e78cea01bee320cd4e420270b5ea74000d11b0c9f74754ebdbfc544b05a2586134bd613558565b6040516134ca9190613bb9565b60405180910390a1565b600260015403613519576040517f08c379a000000000000000000000000000000000000000000000000000000000815260040161351090614b68565b60405180910390fd5b6002600181905550565b60018081905550565b6000818361353a9190614936565b905092915050565b6000818361355091906149a7565b905092915050565b600033905090565b613568610fa8565b6135a7576040517f08c379a000000000000000000000000000000000000000000000000000000000815260040161359e90614bd4565b60405180910390fd5b565b600073ffffffffffffffffffffffffffffffffffffffff168273ffffffffffffffffffffffffffffffffffffffff1603613618576040517f08c379a000000000000000000000000000000000000000000000000000000000815260040161360f90614c40565b60405180910390fd5b806006600082825461362a9190614069565b92505081905550600061363c82613056565b9050601260008473ffffffffffffffffffffffffffffffffffffffff1673ffffffffffffffffffffffffffffffffffffffff16815260200190815260200160002060009054906101000a900460ff16156136b55781600760008282546136a29190614069565b925050819055506136b282613016565b90505b80600960008573ffffffffffffffffffffffffffffffffffffffff1673ffffffffffffffffffffffffffffffffffffffff16815260200190815260200160002060008282546137049190614069565b925050819055508273ffffffffffffffffffffffffffffffffffffffff167f0f6798a560793a54c3bcfe86a93cde1e73087d944c0ea20544137d4121396885836040516137519190613a26565b60405180910390a2600b60009054906101000a900473ffffffffffffffffffffffffffffffffffffffff1673ffffffffffffffffffffffffffffffffffffffff168373ffffffffffffffffffffffffffffffffffffffff1614613815578273ffffffffffffffffffffffffffffffffffffffff16600073ffffffffffffffffffffffffffffffffffffffff167fddf252ad1be2c89b69c2b068fc378daa952ba7f163c4a11628f55a4df523b3ef8460405161380c9190613a26565b60405180910390a35b505050565b600081519050919050565b600082825260208201905092915050565b60005b83811015613854578082015181840152602081019050613839565b60008484015250505050565b6000601f19601f8301169050919050565b600061387c8261381a565b6138868185613825565b9350613896818560208601613836565b61389f81613860565b840191505092915050565b600060208201905081810360008301526138c48184613871565b905092915050565b6000604051905090565b600080fd5b600080fd5b600073ffffffffffffffffffffffffffffffffffffffff82169050919050565b600061390b826138e0565b9050919050565b61391b81613900565b811461392657600080fd5b50565b60008135905061393881613912565b92915050565b6000819050919050565b6139518161393e565b811461395c57600080fd5b50565b60008135905061396e81613948565b92915050565b6000806040838503121561398b5761398a6138d6565b5b600061399985828601613929565b92505060206139aa8582860161395f565b9150509250929050565b60008115159050919050565b6139c9816139b4565b82525050565b60006020820190506139e460008301846139c0565b92915050565b600060208284031215613a00576139ff6138d6565b5b6000613a0e84828501613929565b91505092915050565b613a208161393e565b82525050565b6000602082019050613a3b6000830184613a17565b92915050565b600080600060608486031215613a5a57613a596138d6565b5b6000613a6886828701613929565b9350506020613a7986828701613929565b9250506040613a8a8682870161395f565b9150509250925092565b600060208284031215613aaa57613aa96138d6565b5b6000613ab88482850161395f565b91505092915050565b600060ff82169050919050565b613ad781613ac1565b82525050565b6000602082019050613af26000830184613ace565b92915050565b600080fd5b600080fd5b600080fd5b60008083601f840112613b1d57613b1c613af8565b5b8235905067ffffffffffffffff811115613b3a57613b39613afd565b5b602083019150836001820283011115613b5657613b55613b02565b5b9250929050565b60008060208385031215613b7457613b736138d6565b5b600083013567ffffffffffffffff811115613b9257613b916138db565b5b613b9e85828601613b07565b92509250509250929050565b613bb381613900565b82525050565b6000602082019050613bce6000830184613baa565b92915050565b7f4e487b7100000000000000000000000000000000000000000000000000000000600052604160045260246000fd5b613c0c82613860565b810181811067ffffffffffffffff82111715613c2b57613c2a613bd4565b5b80604052505050565b6000613c3e6138cc565b9050613c4a8282613c03565b919050565b600067ffffffffffffffff821115613c6a57613c69613bd4565b5b602082029050602081019050919050565b6000613c8e613c8984613c4f565b613c34565b90508083825260208201905060208402830185811115613cb157613cb0613b02565b5b835b81811015613cda5780613cc68882613929565b845260208401935050602081019050613cb3565b5050509392505050565b600082601f830112613cf957613cf8613af8565b5b8135613d09848260208601613c7b565b91505092915050565b613d1b816139b4565b8114613d2657600080fd5b50565b600081359050613d3881613d12565b92915050565b60008060408385031215613d5557613d546138d6565b5b600083013567ffffffffffffffff811115613d7357613d726138db565b5b613d7f85828601613ce4565b9250506020613d9085828601613d29565b9150509250929050565b600081519050919050565b600082825260208201905092915050565b6000613dc182613d9a565b613dcb8185613da5565b9350613ddb818560208601613836565b613de481613860565b840191505092915050565b6000604082019050613e0460008301856139c0565b8181036020830152613e168184613db6565b90509392505050565b60008060408385031215613e3657613e356138d6565b5b6000613e4485828601613929565b9250506020613e5585828601613d29565b9150509250929050565b60008060408385031215613e7657613e756138d6565b5b6000613e8485828601613929565b9250506020613e9585828601613929565b9150509250929050565b600067ffffffffffffffff821115613eba57613eb9613bd4565b5b602082029050602081019050919050565b6000613ede613ed984613e9f565b613c34565b90508083825260208201905060208402830185811115613f0157613f00613b02565b5b835b81811015613f2a5780613f16888261395f565b845260208401935050602081019050613f03565b5050509392505050565b600082601f830112613f4957613f48613af8565b5b8135613f59848260208601613ecb565b91505092915050565b60008060408385031215613f7957613f786138d6565b5b600083013567ffffffffffffffff811115613f9757613f966138db565b5b613fa385828601613ce4565b925050602083013567ffffffffffffffff811115613fc457613fc36138db565b5b613fd085828601613f34565b9150509250929050565b7f4e487b7100000000000000000000000000000000000000000000000000000000600052602260045260246000fd5b6000600282049050600182168061402157607f821691505b60208210810361403457614033613fda565b5b50919050565b7f4e487b7100000000000000000000000000000000000000000000000000000000600052601160045260246000fd5b60006140748261393e565b915061407f8361393e565b92508282019050808211156140975761409661403a565b5b92915050565b60006140a88261393e565b91506140b38361393e565b92508282039050818111156140cb576140ca61403a565b5b92915050565b7f4b656570557020726571756972656d656e74206973206e6f74206d6574210000600082015250565b6000614107601e83613825565b9150614112826140d1565b602082019050919050565b60006020820190508181036000830152614136816140fa565b9050919050565b7f74537570706c79206d7573742062652067726561746572207468616e206f722060008201527f657175616c20746f206578636c7564654465626173696e67537570706c790000602082015250565b6000614199603e83613825565b91506141a48261413d565b604082019050919050565b600060208201905081810360008301526141c88161418c565b9050919050565b7f496e76616c696420616464726573733a207a65726f2061646472657373000000600082015250565b6000614205601d83613825565b9150614210826141cf565b602082019050919050565b60006020820190508181036000830152614234816141f8565b9050919050565b600081905092915050565b50565b600061425660008361423b565b915061426182614246565b600082019050919050565b600061427782614249565b9150819050919050565b7f5472616e73666572204661696c65640000000000000000000000000000000000600082015250565b60006142b7600f83613825565b91506142c282614281565b602082019050919050565b600060208201905081810360008301526142e6816142aa565b9050919050565b7f4e487b7100000000000000000000000000000000000000000000000000000000600052603260045260246000fd5b7f54726561737572792077616c6c65742063616e6e6f7420626520696e636c756460008201527f656420696e206465626173696e67000000000000000000000000000000000000602082015250565b6000614378602e83613825565b91506143838261431c565b604082019050919050565b600060208201905081810360008301526143a78161436b565b9050919050565b7f4f70657261746f722073686f756c646e2774206265207a65726f2e0000000000600082015250565b60006143e4601b83613825565b91506143ef826143ae565b602082019050919050565b60006020820190508181036000830152614413816143d7565b9050919050565b7f4c5020506f6f6c20616464726573732073686f756c646e2774206265207a657260008201527f6f21000000000000000000000000000000000000000000000000000000000000602082015250565b6000614476602283613825565b91506144818261441a565b604082019050919050565b600060208201905081810360008301526144a581614469565b9050919050565b7f526174652073686f756c64206265206c657373207468616e2050455243454e5460008201527f4147455f44454e4f4d494e41544f520000000000000000000000000000000000602082015250565b6000614508602f83613825565b9150614513826144ac565b604082019050919050565b60006020820190508181036000830152614537816144fb565b9050919050565b7f417272617973206c656e677468206d69736d6174636800000000000000000000600082015250565b6000614574601683613825565b915061457f8261453e565b602082019050919050565b600060208201905081810360008301526145a381614567565b9050919050565b7f496e73756666696369656e742062616c616e6365000000000000000000000000600082015250565b60006145e0601483613825565b91506145eb826145aa565b602082019050919050565b6000602082019050818103600083015261460f816145d3565b9050919050565b7f45524332303a20617070726f76652066726f6d20746865207a65726f2061646460008201527f7265737300000000000000000000000000000000000000000000000000000000602082015250565b6000614672602483613825565b915061467d82614616565b604082019050919050565b600060208201905081810360008301526146a181614665565b9050919050565b7f45524332303a20617070726f766520746f20746865207a65726f20616464726560008201527f7373000000000000000000000000000000000000000000000000000000000000602082015250565b6000614704602283613825565b915061470f826146a8565b604082019050919050565b60006020820190508181036000830152614733816146f7565b9050919050565b7f45524332303a207472616e736665722066726f6d20746865207a65726f20616460008201527f6472657373000000000000000000000000000000000000000000000000000000602082015250565b6000614796602583613825565b91506147a18261473a565b604082019050919050565b600060208201905081810360008301526147c581614789565b9050919050565b7f45524332303a207472616e7366657220746f20746865207a65726f206164647260008201527f6573730000000000000000000000000000000000000000000000000000000000602082015250565b6000614828602383613825565b9150614833826147cc565b604082019050919050565b600060208201905081810360008301526148578161481b565b9050919050565b7f496e73756666696369656e742046756e647320466f72205472616e7366657200600082015250565b6000614894601f83613825565b915061489f8261485e565b602082019050919050565b600060208201905081810360008301526148c381614887565b9050919050565b7f486f6c64696e6720546f6b656e73206578636565646564210000000000000000600082015250565b6000614900601883613825565b915061490b826148ca565b602082019050919050565b6000602082019050818103600083015261492f816148f3565b9050919050565b60006149418261393e565b915061494c8361393e565b925082820261495a8161393e565b915082820484148315176149715761497061403a565b5b5092915050565b7f4e487b7100000000000000000000000000000000000000000000000000000000600052601260045260246000fd5b60006149b28261393e565b91506149bd8361393e565b9250826149cd576149cc614978565b5b828204905092915050565b7f5061757361626c653a2070617573656400000000000000000000000000000000600082015250565b6000614a0e601083613825565b9150614a19826149d8565b602082019050919050565b60006020820190508181036000830152614a3d81614a01565b9050919050565b7f496e73756666696369656e742042616c616e636520746f20636c61696d000000600082015250565b6000614a7a601d83613825565b9150614a8582614a44565b602082019050919050565b60006020820190508181036000830152614aa981614a6d565b9050919050565b7f4163636f756e742073686f756c646e2774206265207a65726f2e000000000000600082015250565b6000614ae6601a83613825565b9150614af182614ab0565b602082019050919050565b60006020820190508181036000830152614b1581614ad9565b9050919050565b7f5265656e7472616e637947756172643a207265656e7472616e742063616c6c00600082015250565b6000614b52601f83613825565b9150614b5d82614b1c565b602082019050919050565b60006020820190508181036000830152614b8181614b45565b9050919050565b7f5061757361626c653a206e6f7420706175736564000000000000000000000000600082015250565b6000614bbe601483613825565b9150614bc982614b88565b602082019050919050565b60006020820190508181036000830152614bed81614bb1565b9050919050565b7f45524332303a206d696e7420746f20746865207a65726f206164647265737300600082015250565b6000614c2a601f83613825565b9150614c3582614bf4565b602082019050919050565b60006020820190508181036000830152614c5981614c1d565b905091905056fe45524332303a207472616e7366657220616d6f756e74206578636565647320616c6c6f77616e636545524332303a2064656372656173656420616c6c6f77616e63652062656c6f77207a65726fa26469706673582212200677191aff1b3bc82fbee41ee5bd32fd024a91362b34bca59f714462e746506f64736f6c634300081a0033",
			"opcodes": "PUSH1 0x80 PUSH1 0x40 MSTORE CALLVALUE DUP1 ISZERO PUSH2 0x10 JUMPI PUSH1 0x0 DUP1 REVERT JUMPDEST POP PUSH1 0x40 MLOAD PUSH2 0x60A7 CODESIZE SUB DUP1 PUSH2 0x60A7 DUP4 CODECOPY DUP2 DUP2 ADD PUSH1 0x40 MSTORE DUP2 ADD SWAP1 PUSH2 0x32 SWAP2 SWAP1 PUSH2 0xD7C JUMP JUMPDEST CALLER PUSH1 0x0 DUP1 PUSH1 0x0 PUSH2 0x100 EXP DUP2 SLOAD DUP2 PUSH1 0xFF MUL NOT AND SWAP1 DUP4 ISZERO ISZERO MUL OR SWAP1 SSTORE POP PUSH1 0x1 DUP1 DUP2 SWAP1 SSTORE POP PUSH1 0x0 PUSH20 0xFFFFFFFFFFFFFFFFFFFFFFFFFFFFFFFFFFFFFFFF AND DUP2 PUSH20 0xFFFFFFFFFFFFFFFFFFFFFFFFFFFFFFFFFFFFFFFF AND SUB PUSH2 0xC6 JUMPI PUSH1 0x0 PUSH1 0x40 MLOAD PUSH32 0x1E4FBDF700000000000000000000000000000000000000000000000000000000 DUP2 MSTORE PUSH1 0x4 ADD PUSH2 0xBD SWAP2 SWAP1 PUSH2 0xE65 JUMP JUMPDEST PUSH1 0x40 MLOAD DUP1 SWAP2 SUB SWAP1 REVERT JUMPDEST PUSH2 0xD5 DUP2 PUSH2 0x327 PUSH1 0x20 SHL PUSH1 0x20 SHR JUMP JUMPDEST POP DUP7 PUSH1 0x3 SWAP1 DUP2 PUSH2 0xE5 SWAP2 SWAP1 PUSH2 0x1097 JUMP JUMPDEST POP DUP6 PUSH1 0x4 SWAP1 DUP2 PUSH2 0xF5 SWAP2 SWAP1 PUSH2 0x1097 JUMP JUMPDEST POP PUSH1 0x12 PUSH1 0x5 DUP2 SWAP1 SSTORE POP PUSH8 0xDE0B6B3A7640000 DUP6 PUSH2 0x112 SWAP2 SWAP1 PUSH2 0x1198 JUMP JUMPDEST PUSH1 0x6 DUP2 SWAP1 SSTORE POP PUSH1 0x6 SLOAD PUSH1 0x7 DUP2 SWAP1 SSTORE POP PUSH2 0x2710 PUSH1 0x64 PUSH1 0x6 SLOAD PUSH2 0x133 SWAP2 SWAP1 PUSH2 0x1198 JUMP JUMPDEST PUSH2 0x13D SWAP2 SWAP1 PUSH2 0x1209 JUMP JUMPDEST PUSH1 0x10 DUP2 SWAP1 SSTORE POP DUP3 PUSH1 0xC DUP2 SWAP1 SSTORE POP DUP2 PUSH1 0xD DUP2 SWAP1 SSTORE POP PUSH8 0xDE0B6B3A7640000 PUSH1 0xE DUP2 SWAP1 SSTORE POP PUSH3 0x15180 PUSH1 0xF DUP2 SWAP1 SSTORE POP PUSH1 0x0 PUSH1 0xA DUP2 SWAP1 SSTORE POP TIMESTAMP PUSH1 0x15 DUP2 SWAP1 SSTORE POP DUP1 PUSH1 0xB PUSH1 0x0 PUSH2 0x100 EXP DUP2 SLOAD DUP2 PUSH20 0xFFFFFFFFFFFFFFFFFFFFFFFFFFFFFFFFFFFFFFFF MUL NOT AND SWAP1 DUP4 PUSH20 0xFFFFFFFFFFFFFFFFFFFFFFFFFFFFFFFFFFFFFFFF AND MUL OR SWAP1 SSTORE POP PUSH2 0x1CB DUP5 PUSH1 0x1 PUSH2 0x3ED PUSH1 0x20 SHL PUSH1 0x20 SHR JUMP JUMPDEST PUSH2 0x1DC DUP5 PUSH1 0x1 PUSH2 0x582 PUSH1 0x20 SHL PUSH1 0x20 SHR JUMP JUMPDEST PUSH2 0x20F PUSH1 0xB PUSH1 0x0 SWAP1 SLOAD SWAP1 PUSH2 0x100 EXP SWAP1 DIV PUSH20 0xFFFFFFFFFFFFFFFFFFFFFFFFFFFFFFFFFFFFFFFF AND PUSH1 0x1 PUSH2 0x3ED PUSH1 0x20 SHL PUSH1 0x20 SHR JUMP JUMPDEST PUSH2 0x242 PUSH1 0xB PUSH1 0x0 SWAP1 SLOAD SWAP1 PUSH2 0x100 EXP SWAP1 DIV PUSH20 0xFFFFFFFFFFFFFFFFFFFFFFFFFFFFFFFFFFFFFFFF AND PUSH1 0x1 PUSH2 0x582 PUSH1 0x20 SHL PUSH1 0x20 SHR JUMP JUMPDEST PUSH2 0x253 PUSH1 0x6 SLOAD PUSH2 0x64C PUSH1 0x20 SHL PUSH1 0x20 SHR JUMP JUMPDEST PUSH1 0x9 PUSH1 0x0 DUP7 PUSH20 0xFFFFFFFFFFFFFFFFFFFFFFFFFFFFFFFFFFFFFFFF AND PUSH20 0xFFFFFFFFFFFFFFFFFFFFFFFFFFFFFFFFFFFFFFFF AND DUP2 MSTORE PUSH1 0x20 ADD SWAP1 DUP2 MSTORE PUSH1 0x20 ADD PUSH1 0x0 KECCAK256 DUP2 SWAP1 SSTORE POP PUSH2 0x2A4 PUSH2 0x68C PUSH1 0x20 SHL PUSH1 0x20 SHR JUMP JUMPDEST DUP4 PUSH20 0xFFFFFFFFFFFFFFFFFFFFFFFFFFFFFFFFFFFFFFFF AND PUSH1 0x0 PUSH20 0xFFFFFFFFFFFFFFFFFFFFFFFFFFFFFFFFFFFFFFFF AND PUSH32 0xDDF252AD1BE2C89B69C2B068FC378DAA952BA7F163C4A11628F55A4DF523B3EF PUSH1 0x6 SLOAD PUSH1 0x40 MLOAD PUSH2 0x304 SWAP2 SWAP1 PUSH2 0x1249 JUMP JUMPDEST PUSH1 0x40 MLOAD DUP1 SWAP2 SUB SWAP1 LOG3 PUSH2 0x31B DUP5 PUSH2 0x6AA PUSH1 0x20 SHL PUSH1 0x20 SHR JUMP JUMPDEST POP POP POP POP POP POP POP PUSH2 0x13B5 JUMP JUMPDEST PUSH1 0x0 PUSH1 0x2 PUSH1 0x0 SWAP1 SLOAD SWAP1 PUSH2 0x100 EXP SWAP1 DIV PUSH20 0xFFFFFFFFFFFFFFFFFFFFFFFFFFFFFFFFFFFFFFFF AND SWAP1 POP DUP2 PUSH1 0x2 PUSH1 0x0 PUSH2 0x100 EXP DUP2 SLOAD DUP2 PUSH20 0xFFFFFFFFFFFFFFFFFFFFFFFFFFFFFFFFFFFFFFFF MUL NOT AND SWAP1 DUP4 PUSH20 0xFFFFFFFFFFFFFFFFFFFFFFFFFFFFFFFFFFFFFFFF AND MUL OR SWAP1 SSTORE POP DUP2 PUSH20 0xFFFFFFFFFFFFFFFFFFFFFFFFFFFFFFFFFFFFFFFF AND DUP2 PUSH20 0xFFFFFFFFFFFFFFFFFFFFFFFFFFFFFFFFFFFFFFFF AND PUSH32 0x8BE0079C531659141344CD1FD0A4F28419497F9722A3DAAFE3B4186F6B6457E0 PUSH1 0x40 MLOAD PUSH1 0x40 MLOAD DUP1 SWAP2 SUB SWAP1 LOG3 POP POP JUMP JUMPDEST PUSH1 0x0 PUSH20 0xFFFFFFFFFFFFFFFFFFFFFFFFFFFFFFFFFFFFFFFF AND DUP3 PUSH20 0xFFFFFFFFFFFFFFFFFFFFFFFFFFFFFFFFFFFFFFFF AND SUB PUSH2 0x45C JUMPI PUSH1 0x40 MLOAD PUSH32 0x8C379A000000000000000000000000000000000000000000000000000000000 DUP2 MSTORE PUSH1 0x4 ADD PUSH2 0x453 SWAP1 PUSH2 0x12C1 JUMP JUMPDEST PUSH1 0x40 MLOAD DUP1 SWAP2 SUB SWAP1 REVERT JUMPDEST PUSH1 0x0 PUSH1 0x12 PUSH1 0x0 DUP5 PUSH20 0xFFFFFFFFFFFFFFFFFFFFFFFFFFFFFFFFFFFFFFFF AND PUSH20 0xFFFFFFFFFFFFFFFFFFFFFFFFFFFFFFFFFFFFFFFF AND DUP2 MSTORE PUSH1 0x20 ADD SWAP1 DUP2 MSTORE PUSH1 0x20 ADD PUSH1 0x0 KECCAK256 PUSH1 0x0 SWAP1 SLOAD SWAP1 PUSH2 0x100 EXP SWAP1 DIV PUSH1 0xFF AND SWAP1 POP PUSH1 0x0 PUSH2 0x4BE DUP5 PUSH2 0x73C PUSH1 0x20 SHL PUSH1 0x20 SHR JUMP JUMPDEST SWAP1 POP DUP3 ISZERO ISZERO DUP3 ISZERO ISZERO EQ PUSH2 0x57C JUMPI DUP3 PUSH1 0x12 PUSH1 0x0 DUP7 PUSH20 0xFFFFFFFFFFFFFFFFFFFFFFFFFFFFFFFFFFFFFFFF AND PUSH20 0xFFFFFFFFFFFFFFFFFFFFFFFFFFFFFFFFFFFFFFFF AND DUP2 MSTORE PUSH1 0x20 ADD SWAP1 DUP2 MSTORE PUSH1 0x20 ADD PUSH1 0x0 KECCAK256 PUSH1 0x0 PUSH2 0x100 EXP DUP2 SLOAD DUP2 PUSH1 0xFF MUL NOT AND SWAP1 DUP4 ISZERO ISZERO MUL OR SWAP1 SSTORE POP DUP2 ISZERO DUP1 ISZERO PUSH2 0x52D JUMPI POP DUP3 JUMPDEST ISZERO PUSH2 0x550 JUMPI DUP1 PUSH1 0x7 PUSH1 0x0 DUP3 DUP3 SLOAD PUSH2 0x544 SWAP2 SWAP1 PUSH2 0x12E1 JUMP JUMPDEST SWAP3 POP POP DUP2 SWAP1 SSTORE POP PUSH2 0x57B JUMP JUMPDEST DUP2 DUP1 ISZERO PUSH2 0x55B JUMPI POP DUP3 ISZERO JUMPDEST ISZERO PUSH2 0x57A JUMPI DUP1 PUSH1 0x7 PUSH1 0x0 DUP3 DUP3 SLOAD PUSH2 0x572 SWAP2 SWAP1 PUSH2 0x1315 JUMP JUMPDEST SWAP3 POP POP DUP2 SWAP1 SSTORE POP JUMPDEST JUMPDEST JUMPDEST POP POP POP POP JUMP JUMPDEST PUSH1 0x0 PUSH20 0xFFFFFFFFFFFFFFFFFFFFFFFFFFFFFFFFFFFFFFFF AND DUP3 PUSH20 0xFFFFFFFFFFFFFFFFFFFFFFFFFFFFFFFFFFFFFFFF AND SUB PUSH2 0x5F1 JUMPI PUSH1 0x40 MLOAD PUSH32 0x8C379A000000000000000000000000000000000000000000000000000000000 DUP2 MSTORE PUSH1 0x4 ADD PUSH2 0x5E8 SWAP1 PUSH2 0x12C1 JUMP JUMPDEST PUSH1 0x40 MLOAD DUP1 SWAP2 SUB SWAP1 REVERT JUMPDEST DUP1 PUSH1 0x13 PUSH1 0x0 DUP5 PUSH20 0xFFFFFFFFFFFFFFFFFFFFFFFFFFFFFFFFFFFFFFFF AND PUSH20 0xFFFFFFFFFFFFFFFFFFFFFFFFFFFFFFFFFFFFFFFF AND DUP2 MSTORE PUSH1 0x20 ADD SWAP1 DUP2 MSTORE PUSH1 0x20 ADD PUSH1 0x0 KECCAK256 PUSH1 0x0 PUSH2 0x100 EXP DUP2 SLOAD DUP2 PUSH1 0xFF MUL NOT AND SWAP1 DUP4 ISZERO ISZERO MUL OR SWAP1 SSTORE POP POP POP JUMP JUMPDEST PUSH1 0x0 PUSH2 0x685 PUSH8 0xDE0B6B3A7640000 PUSH2 0x677 PUSH10 0xD3C21BCECCEDA1000000 DUP6 PUSH2 0x8A5 PUSH1 0x20 SHL SWAP1 SWAP2 SWAP1 PUSH1 0x20 SHR JUMP JUMPDEST PUSH2 0x8BB PUSH1 0x20 SHL SWAP1 SWAP2 SWAP1 PUSH1 0x20 SHR JUMP JUMPDEST SWAP1 POP SWAP2 SWAP1 POP JUMP JUMPDEST PUSH2 0x69A PUSH2 0x8D1 PUSH1 0x20 SHL PUSH1 0x20 SHR JUMP JUMPDEST PUSH2 0x6A8 PUSH2 0x96A PUSH1 0x20 SHL PUSH1 0x20 SHR JUMP JUMPDEST JUMP JUMPDEST PUSH2 0x6B8 PUSH2 0x8D1 PUSH1 0x20 SHL PUSH1 0x20 SHR JUMP JUMPDEST PUSH1 0x0 PUSH20 0xFFFFFFFFFFFFFFFFFFFFFFFFFFFFFFFFFFFFFFFF AND DUP2 PUSH20 0xFFFFFFFFFFFFFFFFFFFFFFFFFFFFFFFFFFFFFFFF AND SUB PUSH2 0x72A JUMPI PUSH1 0x0 PUSH1 0x40 MLOAD PUSH32 0x1E4FBDF700000000000000000000000000000000000000000000000000000000 DUP2 MSTORE PUSH1 0x4 ADD PUSH2 0x721 SWAP2 SWAP1 PUSH2 0xE65 JUMP JUMPDEST PUSH1 0x40 MLOAD DUP1 SWAP2 SUB SWAP1 REVERT JUMPDEST PUSH2 0x739 DUP2 PUSH2 0x327 PUSH1 0x20 SHL PUSH1 0x20 SHR JUMP JUMPDEST POP JUMP JUMPDEST PUSH1 0x0 PUSH1 0x12 PUSH1 0x0 DUP4 PUSH20 0xFFFFFFFFFFFFFFFFFFFFFFFFFFFFFFFFFFFFFFFF AND PUSH20 0xFFFFFFFFFFFFFFFFFFFFFFFFFFFFFFFFFFFFFFFF AND DUP2 MSTORE PUSH1 0x20 ADD SWAP1 DUP2 MSTORE PUSH1 0x20 ADD PUSH1 0x0 KECCAK256 PUSH1 0x0 SWAP1 SLOAD SWAP1 PUSH2 0x100 EXP SWAP1 DIV PUSH1 0xFF AND ISZERO PUSH2 0x84F JUMPI PUSH1 0xB PUSH1 0x0 SWAP1 SLOAD SWAP1 PUSH2 0x100 EXP SWAP1 DIV PUSH20 0xFFFFFFFFFFFFFFFFFFFFFFFFFFFFFFFFFFFFFFFF AND PUSH20 0xFFFFFFFFFFFFFFFFFFFFFFFFFFFFFFFFFFFFFFFF AND DUP3 PUSH20 0xFFFFFFFFFFFFFFFFFFFFFFFFFFFFFFFFFFFFFFFF AND SUB PUSH2 0x7FA JUMPI PUSH2 0x7F3 PUSH2 0x9D8 PUSH1 0x20 SHL PUSH1 0x20 SHR JUMP JUMPDEST SWAP1 POP PUSH2 0x8A0 JUMP JUMPDEST PUSH2 0x848 PUSH1 0x9 PUSH1 0x0 DUP5 PUSH20 0xFFFFFFFFFFFFFFFFFFFFFFFFFFFFFFFFFFFFFFFF AND PUSH20 0xFFFFFFFFFFFFFFFFFFFFFFFFFFFFFFFFFFFFFFFF AND DUP2 MSTORE PUSH1 0x20 ADD SWAP1 DUP2 MSTORE PUSH1 0x20 ADD PUSH1 0x0 KECCAK256 SLOAD PUSH2 0xA61 PUSH1 0x20 SHL PUSH1 0x20 SHR JUMP JUMPDEST SWAP1 POP PUSH2 0x8A0 JUMP JUMPDEST PUSH2 0x89D PUSH1 0x9 PUSH1 0x0 DUP5 PUSH20 0xFFFFFFFFFFFFFFFFFFFFFFFFFFFFFFFFFFFFFFFF AND PUSH20 0xFFFFFFFFFFFFFFFFFFFFFFFFFFFFFFFFFFFFFFFF AND DUP2 MSTORE PUSH1 0x20 ADD SWAP1 DUP2 MSTORE PUSH1 0x20 ADD PUSH1 0x0 KECCAK256 SLOAD PUSH2 0xAA1 PUSH1 0x20 SHL PUSH1 0x20 SHR JUMP JUMPDEST SWAP1 POP JUMPDEST SWAP2 SWAP1 POP JUMP JUMPDEST PUSH1 0x0 DUP2 DUP4 PUSH2 0x8B3 SWAP2 SWAP1 PUSH2 0x1198 JUMP JUMPDEST SWAP1 POP SWAP3 SWAP2 POP POP JUMP JUMPDEST PUSH1 0x0 DUP2 DUP4 PUSH2 0x8C9 SWAP2 SWAP1 PUSH2 0x1209 JUMP JUMPDEST SWAP1 POP SWAP3 SWAP2 POP POP JUMP JUMPDEST PUSH2 0x8DF PUSH2 0xADB PUSH1 0x20 SHL PUSH1 0x20 SHR JUMP JUMPDEST PUSH20 0xFFFFFFFFFFFFFFFFFFFFFFFFFFFFFFFFFFFFFFFF AND PUSH2 0x903 PUSH2 0xAE3 PUSH1 0x20 SHL PUSH1 0x20 SHR JUMP JUMPDEST PUSH20 0xFFFFFFFFFFFFFFFFFFFFFFFFFFFFFFFFFFFFFFFF AND EQ PUSH2 0x968 JUMPI PUSH2 0x92C PUSH2 0xADB PUSH1 0x20 SHL PUSH1 0x20 SHR JUMP JUMPDEST PUSH1 0x40 MLOAD PUSH32 0x118CDAA700000000000000000000000000000000000000000000000000000000 DUP2 MSTORE PUSH1 0x4 ADD PUSH2 0x95F SWAP2 SWAP1 PUSH2 0xE65 JUMP JUMPDEST PUSH1 0x40 MLOAD DUP1 SWAP2 SUB SWAP1 REVERT JUMPDEST JUMP JUMPDEST PUSH2 0x978 PUSH2 0xB0D PUSH1 0x20 SHL PUSH1 0x20 SHR JUMP JUMPDEST PUSH1 0x1 PUSH1 0x0 DUP1 PUSH2 0x100 EXP DUP2 SLOAD DUP2 PUSH1 0xFF MUL NOT AND SWAP1 DUP4 ISZERO ISZERO MUL OR SWAP1 SSTORE POP PUSH32 0x62E78CEA01BEE320CD4E420270B5EA74000D11B0C9F74754EBDBFC544B05A258 PUSH2 0x9C1 PUSH2 0xADB PUSH1 0x20 SHL PUSH1 0x20 SHR JUMP JUMPDEST PUSH1 0x40 MLOAD PUSH2 0x9CE SWAP2 SWAP1 PUSH2 0xE65 JUMP JUMPDEST PUSH1 0x40 MLOAD DUP1 SWAP2 SUB SWAP1 LOG1 JUMP JUMPDEST PUSH1 0x0 DUP1 PUSH2 0xA4B PUSH1 0x9 PUSH1 0x0 PUSH1 0xB PUSH1 0x0 SWAP1 SLOAD SWAP1 PUSH2 0x100 EXP SWAP1 DIV PUSH20 0xFFFFFFFFFFFFFFFFFFFFFFFFFFFFFFFFFFFFFFFF AND PUSH20 0xFFFFFFFFFFFFFFFFFFFFFFFFFFFFFFFFFFFFFFFF AND PUSH20 0xFFFFFFFFFFFFFFFFFFFFFFFFFFFFFFFFFFFFFFFF AND DUP2 MSTORE PUSH1 0x20 ADD SWAP1 DUP2 MSTORE PUSH1 0x20 ADD PUSH1 0x0 KECCAK256 SLOAD PUSH2 0xA61 PUSH1 0x20 SHL PUSH1 0x20 SHR JUMP JUMPDEST SWAP1 POP DUP1 PUSH1 0xA SLOAD PUSH2 0xA5B SWAP2 SWAP1 PUSH2 0x12E1 JUMP JUMPDEST SWAP2 POP POP SWAP1 JUMP JUMPDEST PUSH1 0x0 PUSH2 0xA9A PUSH10 0xD3C21BCECCEDA1000000 PUSH2 0xA8C PUSH8 0xDE0B6B3A7640000 DUP6 PUSH2 0x8A5 PUSH1 0x20 SHL SWAP1 SWAP2 SWAP1 PUSH1 0x20 SHR JUMP JUMPDEST PUSH2 0x8BB PUSH1 0x20 SHL SWAP1 SWAP2 SWAP1 PUSH1 0x20 SHR JUMP JUMPDEST SWAP1 POP SWAP2 SWAP1 POP JUMP JUMPDEST PUSH1 0x0 PUSH2 0xAD4 PUSH10 0xD3C21BCECCEDA1000000 PUSH2 0xAC6 PUSH1 0xE SLOAD DUP6 PUSH2 0x8A5 PUSH1 0x20 SHL SWAP1 SWAP2 SWAP1 PUSH1 0x20 SHR JUMP JUMPDEST PUSH2 0x8BB PUSH1 0x20 SHL SWAP1 SWAP2 SWAP1 PUSH1 0x20 SHR JUMP JUMPDEST SWAP1 POP SWAP2 SWAP1 POP JUMP JUMPDEST PUSH1 0x0 CALLER SWAP1 POP SWAP1 JUMP JUMPDEST PUSH1 0x0 PUSH1 0x2 PUSH1 0x0 SWAP1 SLOAD SWAP1 PUSH2 0x100 EXP SWAP1 DIV PUSH20 0xFFFFFFFFFFFFFFFFFFFFFFFFFFFFFFFFFFFFFFFF AND SWAP1 POP SWAP1 JUMP JUMPDEST PUSH2 0xB1B PUSH2 0xB5D PUSH1 0x20 SHL PUSH1 0x20 SHR JUMP JUMPDEST ISZERO PUSH2 0xB5B JUMPI PUSH1 0x40 MLOAD PUSH32 0x8C379A000000000000000000000000000000000000000000000000000000000 DUP2 MSTORE PUSH1 0x4 ADD PUSH2 0xB52 SWAP1 PUSH2 0x1395 JUMP JUMPDEST PUSH1 0x40 MLOAD DUP1 SWAP2 SUB SWAP1 REVERT JUMPDEST JUMP JUMPDEST PUSH1 0x0 DUP1 PUSH1 0x0 SWAP1 SLOAD SWAP1 PUSH2 0x100 EXP SWAP1 DIV PUSH1 0xFF AND SWAP1 POP SWAP1 JUMP JUMPDEST PUSH1 0x0 PUSH1 0x40 MLOAD SWAP1 POP SWAP1 JUMP JUMPDEST PUSH1 0x0 DUP1 REVERT JUMPDEST PUSH1 0x0 DUP1 REVERT JUMPDEST PUSH1 0x0 DUP1 REVERT JUMPDEST PUSH1 0x0 DUP1 REVERT JUMPDEST PUSH1 0x0 PUSH1 0x1F NOT PUSH1 0x1F DUP4 ADD AND SWAP1 POP SWAP2 SWAP1 POP JUMP JUMPDEST PUSH32 0x4E487B7100000000000000000000000000000000000000000000000000000000 PUSH1 0x0 MSTORE PUSH1 0x41 PUSH1 0x4 MSTORE PUSH1 0x24 PUSH1 0x0 REVERT JUMPDEST PUSH2 0xBDA DUP3 PUSH2 0xB91 JUMP JUMPDEST DUP2 ADD DUP2 DUP2 LT PUSH8 0xFFFFFFFFFFFFFFFF DUP3 GT OR ISZERO PUSH2 0xBF9 JUMPI PUSH2 0xBF8 PUSH2 0xBA2 JUMP JUMPDEST JUMPDEST DUP1 PUSH1 0x40 MSTORE POP POP POP JUMP JUMPDEST PUSH1 0x0 PUSH2 0xC0C PUSH2 0xB73 JUMP JUMPDEST SWAP1 POP PUSH2 0xC18 DUP3 DUP3 PUSH2 0xBD1 JUMP JUMPDEST SWAP2 SWAP1 POP JUMP JUMPDEST PUSH1 0x0 PUSH8 0xFFFFFFFFFFFFFFFF DUP3 GT ISZERO PUSH2 0xC38 JUMPI PUSH2 0xC37 PUSH2 0xBA2 JUMP JUMPDEST JUMPDEST PUSH2 0xC41 DUP3 PUSH2 0xB91 JUMP JUMPDEST SWAP1 POP PUSH1 0x20 DUP2 ADD SWAP1 POP SWAP2 SWAP1 POP JUMP JUMPDEST PUSH1 0x0 JUMPDEST DUP4 DUP2 LT ISZERO PUSH2 0xC6C JUMPI DUP1 DUP3 ADD MLOAD DUP2 DUP5 ADD MSTORE PUSH1 0x20 DUP2 ADD SWAP1 POP PUSH2 0xC51 JUMP JUMPDEST PUSH1 0x0 DUP5 DUP5 ADD MSTORE POP POP POP POP JUMP JUMPDEST PUSH1 0x0 PUSH2 0xC8B PUSH2 0xC86 DUP5 PUSH2 0xC1D JUMP JUMPDEST PUSH2 0xC02 JUMP JUMPDEST SWAP1 POP DUP3 DUP2 MSTORE PUSH1 0x20 DUP2 ADD DUP5 DUP5 DUP5 ADD GT ISZERO PUSH2 0xCA7 JUMPI PUSH2 0xCA6 PUSH2 0xB8C JUMP JUMPDEST JUMPDEST PUSH2 0xCB2 DUP5 DUP3 DUP6 PUSH2 0xC4E JUMP JUMPDEST POP SWAP4 SWAP3 POP POP POP JUMP JUMPDEST PUSH1 0x0 DUP3 PUSH1 0x1F DUP4 ADD SLT PUSH2 0xCCF JUMPI PUSH2 0xCCE PUSH2 0xB87 JUMP JUMPDEST JUMPDEST DUP2 MLOAD PUSH2 0xCDF DUP5 DUP3 PUSH1 0x20 DUP7 ADD PUSH2 0xC78 JUMP JUMPDEST SWAP2 POP POP SWAP3 SWAP2 POP POP JUMP JUMPDEST PUSH1 0x0 DUP2 SWAP1 POP SWAP2 SWAP1 POP JUMP JUMPDEST PUSH2 0xCFB DUP2 PUSH2 0xCE8 JUMP JUMPDEST DUP2 EQ PUSH2 0xD06 JUMPI PUSH1 0x0 DUP1 REVERT JUMPDEST POP JUMP JUMPDEST PUSH1 0x0 DUP2 MLOAD SWAP1 POP PUSH2 0xD18 DUP2 PUSH2 0xCF2 JUMP JUMPDEST SWAP3 SWAP2 POP POP JUMP JUMPDEST PUSH1 0x0 PUSH20 0xFFFFFFFFFFFFFFFFFFFFFFFFFFFFFFFFFFFFFFFF DUP3 AND SWAP1 POP SWAP2 SWAP1 POP JUMP JUMPDEST PUSH1 0x0 PUSH2 0xD49 DUP3 PUSH2 0xD1E JUMP JUMPDEST SWAP1 POP SWAP2 SWAP1 POP JUMP JUMPDEST PUSH2 0xD59 DUP2 PUSH2 0xD3E JUMP JUMPDEST DUP2 EQ PUSH2 0xD64 JUMPI PUSH1 0x0 DUP1 REVERT JUMPDEST POP JUMP JUMPDEST PUSH1 0x0 DUP2 MLOAD SWAP1 POP PUSH2 0xD76 DUP2 PUSH2 0xD50 JUMP JUMPDEST SWAP3 SWAP2 POP POP JUMP JUMPDEST PUSH1 0x0 DUP1 PUSH1 0x0 DUP1 PUSH1 0x0 DUP1 PUSH1 0x0 PUSH1 0xE0 DUP9 DUP11 SUB SLT ISZERO PUSH2 0xD9B JUMPI PUSH2 0xD9A PUSH2 0xB7D JUMP JUMPDEST JUMPDEST PUSH1 0x0 DUP9 ADD MLOAD PUSH8 0xFFFFFFFFFFFFFFFF DUP2 GT ISZERO PUSH2 0xDB9 JUMPI PUSH2 0xDB8 PUSH2 0xB82 JUMP JUMPDEST JUMPDEST PUSH2 0xDC5 DUP11 DUP3 DUP12 ADD PUSH2 0xCBA JUMP JUMPDEST SWAP8 POP POP PUSH1 0x20 DUP9 ADD MLOAD PUSH8 0xFFFFFFFFFFFFFFFF DUP2 GT ISZERO PUSH2 0xDE6 JUMPI PUSH2 0xDE5 PUSH2 0xB82 JUMP JUMPDEST JUMPDEST PUSH2 0xDF2 DUP11 DUP3 DUP12 ADD PUSH2 0xCBA JUMP JUMPDEST SWAP7 POP POP PUSH1 0x40 PUSH2 0xE03 DUP11 DUP3 DUP12 ADD PUSH2 0xD09 JUMP JUMPDEST SWAP6 POP POP PUSH1 0x60 PUSH2 0xE14 DUP11 DUP3 DUP12 ADD PUSH2 0xD67 JUMP JUMPDEST SWAP5 POP POP PUSH1 0x80 PUSH2 0xE25 DUP11 DUP3 DUP12 ADD PUSH2 0xD09 JUMP JUMPDEST SWAP4 POP POP PUSH1 0xA0 PUSH2 0xE36 DUP11 DUP3 DUP12 ADD PUSH2 0xD09 JUMP JUMPDEST SWAP3 POP POP PUSH1 0xC0 PUSH2 0xE47 DUP11 DUP3 DUP12 ADD PUSH2 0xD67 JUMP JUMPDEST SWAP2 POP POP SWAP3 SWAP6 SWAP9 SWAP2 SWAP5 SWAP8 POP SWAP3 SWAP6 POP JUMP JUMPDEST PUSH2 0xE5F DUP2 PUSH2 0xD3E JUMP JUMPDEST DUP3 MSTORE POP POP JUMP JUMPDEST PUSH1 0x0 PUSH1 0x20 DUP3 ADD SWAP1 POP PUSH2 0xE7A PUSH1 0x0 DUP4 ADD DUP5 PUSH2 0xE56 JUMP JUMPDEST SWAP3 SWAP2 POP POP JUMP JUMPDEST PUSH1 0x0 DUP2 MLOAD SWAP1 POP SWAP2 SWAP1 POP JUMP JUMPDEST PUSH32 0x4E487B7100000000000000000000000000000000000000000000000000000000 PUSH1 0x0 MSTORE PUSH1 0x22 PUSH1 0x4 MSTORE PUSH1 0x24 PUSH1 0x0 REVERT JUMPDEST PUSH1 0x0 PUSH1 0x2 DUP3 DIV SWAP1 POP PUSH1 0x1 DUP3 AND DUP1 PUSH2 0xED2 JUMPI PUSH1 0x7F DUP3 AND SWAP2 POP JUMPDEST PUSH1 0x20 DUP3 LT DUP2 SUB PUSH2 0xEE5 JUMPI PUSH2 0xEE4 PUSH2 0xE8B JUMP JUMPDEST JUMPDEST POP SWAP2 SWAP1 POP JUMP JUMPDEST PUSH1 0x0 DUP2 SWAP1 POP DUP2 PUSH1 0x0 MSTORE PUSH1 0x20 PUSH1 0x0 KECCAK256 SWAP1 POP SWAP2 SWAP1 POP JUMP JUMPDEST PUSH1 0x0 PUSH1 0x20 PUSH1 0x1F DUP4 ADD DIV SWAP1 POP SWAP2 SWAP1 POP JUMP JUMPDEST PUSH1 0x0 DUP3 DUP3 SHL SWAP1 POP SWAP3 SWAP2 POP POP JUMP JUMPDEST PUSH1 0x0 PUSH1 0x8 DUP4 MUL PUSH2 0xF4D PUSH32 0xFFFFFFFFFFFFFFFFFFFFFFFFFFFFFFFFFFFFFFFFFFFFFFFFFFFFFFFFFFFFFFFF DUP3 PUSH2 0xF10 JUMP JUMPDEST PUSH2 0xF57 DUP7 DUP4 PUSH2 0xF10 JUMP JUMPDEST SWAP6 POP DUP1 NOT DUP5 AND SWAP4 POP DUP1 DUP7 AND DUP5 OR SWAP3 POP POP POP SWAP4 SWAP3 POP POP POP JUMP JUMPDEST PUSH1 0x0 DUP2 SWAP1 POP SWAP2 SWAP1 POP JUMP JUMPDEST PUSH1 0x0 PUSH2 0xF94 PUSH2 0xF8F PUSH2 0xF8A DUP5 PUSH2 0xCE8 JUMP JUMPDEST PUSH2 0xF6F JUMP JUMPDEST PUSH2 0xCE8 JUMP JUMPDEST SWAP1 POP SWAP2 SWAP1 POP JUMP JUMPDEST PUSH1 0x0 DUP2 SWAP1 POP SWAP2 SWAP1 POP JUMP JUMPDEST PUSH2 0xFAE DUP4 PUSH2 0xF79 JUMP JUMPDEST PUSH2 0xFC2 PUSH2 0xFBA DUP3 PUSH2 0xF9B JUMP JUMPDEST DUP5 DUP5 SLOAD PUSH2 0xF1D JUMP JUMPDEST DUP3 SSTORE POP POP POP POP JUMP JUMPDEST PUSH1 0x0 SWAP1 JUMP JUMPDEST PUSH2 0xFD7 PUSH2 0xFCA JUMP JUMPDEST PUSH2 0xFE2 DUP2 DUP5 DUP5 PUSH2 0xFA5 JUMP JUMPDEST POP POP POP JUMP JUMPDEST JUMPDEST DUP2 DUP2 LT ISZERO PUSH2 0x1006 JUMPI PUSH2 0xFFB PUSH1 0x0 DUP3 PUSH2 0xFCF JUMP JUMPDEST PUSH1 0x1 DUP2 ADD SWAP1 POP PUSH2 0xFE8 JUMP JUMPDEST POP POP JUMP JUMPDEST PUSH1 0x1F DUP3 GT ISZERO PUSH2 0x104B JUMPI PUSH2 0x101C DUP2 PUSH2 0xEEB JUMP JUMPDEST PUSH2 0x1025 DUP5 PUSH2 0xF00 JUMP JUMPDEST DUP2 ADD PUSH1 0x20 DUP6 LT ISZERO PUSH2 0x1034 JUMPI DUP2 SWAP1 POP JUMPDEST PUSH2 0x1048 PUSH2 0x1040 DUP6 PUSH2 0xF00 JUMP JUMPDEST DUP4 ADD DUP3 PUSH2 0xFE7 JUMP JUMPDEST POP POP JUMPDEST POP POP POP JUMP JUMPDEST PUSH1 0x0 DUP3 DUP3 SHR SWAP1 POP SWAP3 SWAP2 POP POP JUMP JUMPDEST PUSH1 0x0 PUSH2 0x106E PUSH1 0x0 NOT DUP5 PUSH1 0x8 MUL PUSH2 0x1050 JUMP JUMPDEST NOT DUP1 DUP4 AND SWAP2 POP POP SWAP3 SWAP2 POP POP JUMP JUMPDEST PUSH1 0x0 PUSH2 0x1087 DUP4 DUP4 PUSH2 0x105D JUMP JUMPDEST SWAP2 POP DUP3 PUSH1 0x2 MUL DUP3 OR SWAP1 POP SWAP3 SWAP2 POP POP JUMP JUMPDEST PUSH2 0x10A0 DUP3 PUSH2 0xE80 JUMP JUMPDEST PUSH8 0xFFFFFFFFFFFFFFFF DUP2 GT ISZERO PUSH2 0x10B9 JUMPI PUSH2 0x10B8 PUSH2 0xBA2 JUMP JUMPDEST JUMPDEST PUSH2 0x10C3 DUP3 SLOAD PUSH2 0xEBA JUMP JUMPDEST PUSH2 0x10CE DUP3 DUP3 DUP6 PUSH2 0x100A JUMP JUMPDEST PUSH1 0x0 PUSH1 0x20 SWAP1 POP PUSH1 0x1F DUP4 GT PUSH1 0x1 DUP2 EQ PUSH2 0x1101 JUMPI PUSH1 0x0 DUP5 ISZERO PUSH2 0x10EF JUMPI DUP3 DUP8 ADD MLOAD SWAP1 POP JUMPDEST PUSH2 0x10F9 DUP6 DUP3 PUSH2 0x107B JUMP JUMPDEST DUP7 SSTORE POP PUSH2 0x1161 JUMP JUMPDEST PUSH1 0x1F NOT DUP5 AND PUSH2 0x110F DUP7 PUSH2 0xEEB JUMP JUMPDEST PUSH1 0x0 JUMPDEST DUP3 DUP2 LT ISZERO PUSH2 0x1137 JUMPI DUP5 DUP10 ADD MLOAD DUP3 SSTORE PUSH1 0x1 DUP3 ADD SWAP2 POP PUSH1 0x20 DUP6 ADD SWAP5 POP PUSH1 0x20 DUP2 ADD SWAP1 POP PUSH2 0x1112 JUMP JUMPDEST DUP7 DUP4 LT ISZERO PUSH2 0x1154 JUMPI DUP5 DUP10 ADD MLOAD PUSH2 0x1150 PUSH1 0x1F DUP10 AND DUP3 PUSH2 0x105D JUMP JUMPDEST DUP4 SSTORE POP JUMPDEST PUSH1 0x1 PUSH1 0x2 DUP9 MUL ADD DUP9 SSTORE POP POP POP JUMPDEST POP POP POP POP POP POP JUMP JUMPDEST PUSH32 0x4E487B7100000000000000000000000000000000000000000000000000000000 PUSH1 0x0 MSTORE PUSH1 0x11 PUSH1 0x4 MSTORE PUSH1 0x24 PUSH1 0x0 REVERT JUMPDEST PUSH1 0x0 PUSH2 0x11A3 DUP3 PUSH2 0xCE8 JUMP JUMPDEST SWAP2 POP PUSH2 0x11AE DUP4 PUSH2 0xCE8 JUMP JUMPDEST SWAP3 POP DUP3 DUP3 MUL PUSH2 0x11BC DUP2 PUSH2 0xCE8 JUMP JUMPDEST SWAP2 POP DUP3 DUP3 DIV DUP5 EQ DUP4 ISZERO OR PUSH2 0x11D3 JUMPI PUSH2 0x11D2 PUSH2 0x1169 JUMP JUMPDEST JUMPDEST POP SWAP3 SWAP2 POP POP JUMP JUMPDEST PUSH32 0x4E487B7100000000000000000000000000000000000000000000000000000000 PUSH1 0x0 MSTORE PUSH1 0x12 PUSH1 0x4 MSTORE PUSH1 0x24 PUSH1 0x0 REVERT JUMPDEST PUSH1 0x0 PUSH2 0x1214 DUP3 PUSH2 0xCE8 JUMP JUMPDEST SWAP2 POP PUSH2 0x121F DUP4 PUSH2 0xCE8 JUMP JUMPDEST SWAP3 POP DUP3 PUSH2 0x122F JUMPI PUSH2 0x122E PUSH2 0x11DA JUMP JUMPDEST JUMPDEST DUP3 DUP3 DIV SWAP1 POP SWAP3 SWAP2 POP POP JUMP JUMPDEST PUSH2 0x1243 DUP2 PUSH2 0xCE8 JUMP JUMPDEST DUP3 MSTORE POP POP JUMP JUMPDEST PUSH1 0x0 PUSH1 0x20 DUP3 ADD SWAP1 POP PUSH2 0x125E PUSH1 0x0 DUP4 ADD DUP5 PUSH2 0x123A JUMP JUMPDEST SWAP3 SWAP2 POP POP JUMP JUMPDEST PUSH1 0x0 DUP3 DUP3 MSTORE PUSH1 0x20 DUP3 ADD SWAP1 POP SWAP3 SWAP2 POP POP JUMP JUMPDEST PUSH32 0x4163636F756E742073686F756C646E2774206265207A65726F2E000000000000 PUSH1 0x0 DUP3 ADD MSTORE POP JUMP JUMPDEST PUSH1 0x0 PUSH2 0x12AB PUSH1 0x1A DUP4 PUSH2 0x1264 JUMP JUMPDEST SWAP2 POP PUSH2 0x12B6 DUP3 PUSH2 0x1275 JUMP JUMPDEST PUSH1 0x20 DUP3 ADD SWAP1 POP SWAP2 SWAP1 POP JUMP JUMPDEST PUSH1 0x0 PUSH1 0x20 DUP3 ADD SWAP1 POP DUP2 DUP2 SUB PUSH1 0x0 DUP4 ADD MSTORE PUSH2 0x12DA DUP2 PUSH2 0x129E JUMP JUMPDEST SWAP1 POP SWAP2 SWAP1 POP JUMP JUMPDEST PUSH1 0x0 PUSH2 0x12EC DUP3 PUSH2 0xCE8 JUMP JUMPDEST SWAP2 POP PUSH2 0x12F7 DUP4 PUSH2 0xCE8 JUMP JUMPDEST SWAP3 POP DUP3 DUP3 ADD SWAP1 POP DUP1 DUP3 GT ISZERO PUSH2 0x130F JUMPI PUSH2 0x130E PUSH2 0x1169 JUMP JUMPDEST JUMPDEST SWAP3 SWAP2 POP POP JUMP JUMPDEST PUSH1 0x0 PUSH2 0x1320 DUP3 PUSH2 0xCE8 JUMP JUMPDEST SWAP2 POP PUSH2 0x132B DUP4 PUSH2 0xCE8 JUMP JUMPDEST SWAP3 POP DUP3 DUP3 SUB SWAP1 POP DUP2 DUP2 GT ISZERO PUSH2 0x1343 JUMPI PUSH2 0x1342 PUSH2 0x1169 JUMP JUMPDEST JUMPDEST SWAP3 SWAP2 POP POP JUMP JUMPDEST PUSH32 0x5061757361626C653A2070617573656400000000000000000000000000000000 PUSH1 0x0 DUP3 ADD MSTORE POP JUMP JUMPDEST PUSH1 0x0 PUSH2 0x137F PUSH1 0x10 DUP4 PUSH2 0x1264 JUMP JUMPDEST SWAP2 POP PUSH2 0x138A DUP3 PUSH2 0x1349 JUMP JUMPDEST PUSH1 0x20 DUP3 ADD SWAP1 POP SWAP2 SWAP1 POP JUMP JUMPDEST PUSH1 0x0 PUSH1 0x20 DUP3 ADD SWAP1 POP DUP2 DUP2 SUB PUSH1 0x0 DUP4 ADD MSTORE PUSH2 0x13AE DUP2 PUSH2 0x1372 JUMP JUMPDEST SWAP1 POP SWAP2 SWAP1 POP JUMP JUMPDEST PUSH2 0x4CE3 DUP1 PUSH2 0x13C4 PUSH1 0x0 CODECOPY PUSH1 0x0 RETURN INVALID PUSH1 0x80 PUSH1 0x40 MSTORE PUSH1 0x4 CALLDATASIZE LT PUSH2 0x2CD JUMPI PUSH1 0x0 CALLDATALOAD PUSH1 0xE0 SHR DUP1 PUSH4 0x715018A6 GT PUSH2 0x175 JUMPI DUP1 PUSH4 0x924C2EAD GT PUSH2 0xDC JUMPI DUP1 PUSH4 0xB4DADE59 GT PUSH2 0x95 JUMPI DUP1 PUSH4 0xDF0AB308 GT PUSH2 0x6F JUMPI DUP1 PUSH4 0xDF0AB308 EQ PUSH2 0xB3E JUMPI DUP1 PUSH4 0xE32E3E15 EQ PUSH2 0xB67 JUMPI DUP1 PUSH4 0xE5A5E318 EQ PUSH2 0xB92 JUMPI DUP1 PUSH4 0xF2FDE38B EQ PUSH2 0xBBB JUMPI PUSH2 0x2D4 JUMP JUMPDEST DUP1 PUSH4 0xB4DADE59 EQ PUSH2 0xAAD JUMPI DUP1 PUSH4 0xDC90B442 EQ PUSH2 0xAD6 JUMPI DUP1 PUSH4 0xDD62ED3E EQ PUSH2 0xB01 JUMPI PUSH2 0x2D4 JUMP JUMPDEST DUP1 PUSH4 0x924C2EAD EQ PUSH2 0x963 JUMPI DUP1 PUSH4 0x95D89B41 EQ PUSH2 0x9A0 JUMPI DUP1 PUSH4 0x99697003 EQ PUSH2 0x9CB JUMPI DUP1 PUSH4 0xA457C2D7 EQ PUSH2 0xA08 JUMPI DUP1 PUSH4 0xA9059CBB EQ PUSH2 0xA45 JUMPI DUP1 PUSH4 0xB3CD4254 EQ PUSH2 0xA82 JUMPI PUSH2 0x2D4 JUMP JUMPDEST DUP1 PUSH4 0x874A6AE7 GT PUSH2 0x12E JUMPI DUP1 PUSH4 0x874A6AE7 EQ PUSH2 0x83D JUMPI DUP1 PUSH4 0x893D20E8 EQ PUSH2 0x868 JUMPI DUP1 PUSH4 0x8CF66B16 EQ PUSH2 0x893 JUMPI DUP1 PUSH4 0x8DA5CB5B EQ PUSH2 0x8D0 JUMPI DUP1 PUSH4 0x8F372FA3 EQ PUSH2 0x8FB JUMPI DUP1 PUSH4 0x9220D3ED EQ PUSH2 0x926 JUMPI PUSH2 0x2D4 JUMP JUMPDEST DUP1 PUSH4 0x715018A6 EQ PUSH2 0x76B JUMPI DUP1 PUSH4 0x75C2B13F EQ PUSH2 0x782 JUMPI DUP1 PUSH4 0x7819F36F EQ PUSH2 0x7AB JUMPI DUP1 PUSH4 0x79825EDE EQ PUSH2 0x7D4 JUMPI DUP1 PUSH4 0x81CEA332 EQ PUSH2 0x7FD JUMPI DUP1 PUSH4 0x8456CB59 EQ PUSH2 0x826 JUMPI PUSH2 0x2D4 JUMP JUMPDEST DUP1 PUSH4 0x3F3B3B27 GT PUSH2 0x234 JUMPI DUP1 PUSH4 0x5D70DDE6 GT PUSH2 0x1ED JUMPI DUP1 PUSH4 0x6AA3773F GT PUSH2 0x1C7 JUMPI DUP1 PUSH4 0x6AA3773F EQ PUSH2 0x69E JUMPI DUP1 PUSH4 0x6C5ED03E EQ PUSH2 0x6C7 JUMPI DUP1 PUSH4 0x6E04FF0D EQ PUSH2 0x6F0 JUMPI DUP1 PUSH4 0x70A08231 EQ PUSH2 0x72E JUMPI PUSH2 0x2D4 JUMP JUMPDEST DUP1 PUSH4 0x5D70DDE6 EQ PUSH2 0x633 JUMPI DUP1 PUSH4 0x685F59DE EQ PUSH2 0x64A JUMPI DUP1 PUSH4 0x690D8320 EQ PUSH2 0x675 JUMPI PUSH2 0x2D4 JUMP JUMPDEST DUP1 PUSH4 0x3F3B3B27 EQ PUSH2 0x547 JUMPI DUP1 PUSH4 0x3F4BA83A EQ PUSH2 0x572 JUMPI DUP1 PUSH4 0x4585E33B EQ PUSH2 0x589 JUMPI DUP1 PUSH4 0x4626402B EQ PUSH2 0x5B2 JUMPI DUP1 PUSH4 0x5B7F415C EQ PUSH2 0x5DD JUMPI DUP1 PUSH4 0x5C975ABB EQ PUSH2 0x608 JUMPI PUSH2 0x2D4 JUMP JUMPDEST DUP1 PUSH4 0x24959246 GT PUSH2 0x286 JUMPI DUP1 PUSH4 0x24959246 EQ PUSH2 0x411 JUMPI DUP1 PUSH4 0x2CE8BD56 EQ PUSH2 0x44E JUMPI DUP1 PUSH4 0x313CE567 EQ PUSH2 0x479 JUMPI DUP1 PUSH4 0x39509351 EQ PUSH2 0x4A4 JUMPI DUP1 PUSH4 0x3AF9E669 EQ PUSH2 0x4E1 JUMPI DUP1 PUSH4 0x3CDE0C0F EQ PUSH2 0x51E JUMPI PUSH2 0x2D4 JUMP JUMPDEST DUP1 PUSH4 0x6FDDE03 EQ PUSH2 0x2D9 JUMPI DUP1 PUSH4 0x95EA7B3 EQ PUSH2 0x304 JUMPI DUP1 PUSH4 0x1658A700 EQ PUSH2 0x341 JUMPI DUP1 PUSH4 0x18160DDD EQ PUSH2 0x37E JUMPI DUP1 PUSH4 0x23B872DD EQ PUSH2 0x3A9 JUMPI DUP1 PUSH4 0x24024EFD EQ PUSH2 0x3E6 JUMPI PUSH2 0x2D4 JUMP JUMPDEST CALLDATASIZE PUSH2 0x2D4 JUMPI STOP JUMPDEST PUSH1 0x0 DUP1 REVERT JUMPDEST CALLVALUE DUP1 ISZERO PUSH2 0x2E5 JUMPI PUSH1 0x0 DUP1 REVERT JUMPDEST POP PUSH2 0x2EE PUSH2 0xBE4 JUMP JUMPDEST PUSH1 0x40 MLOAD PUSH2 0x2FB SWAP2 SWAP1 PUSH2 0x38AA JUMP JUMPDEST PUSH1 0x40 MLOAD DUP1 SWAP2 SUB SWAP1 RETURN JUMPDEST CALLVALUE DUP1 ISZERO PUSH2 0x310 JUMPI PUSH1 0x0 DUP1 REVERT JUMPDEST POP PUSH2 0x32B PUSH1 0x4 DUP1 CALLDATASIZE SUB DUP2 ADD SWAP1 PUSH2 0x326 SWAP2 SWAP1 PUSH2 0x3974 JUMP JUMPDEST PUSH2 0xC72 JUMP JUMPDEST PUSH1 0x40 MLOAD PUSH2 0x338 SWAP2 SWAP1 PUSH2 0x39CF JUMP JUMPDEST PUSH1 0x40 MLOAD DUP1 SWAP2 SUB SWAP1 RETURN JUMPDEST CALLVALUE DUP1 ISZERO PUSH2 0x34D JUMPI PUSH1 0x0 DUP1 REVERT JUMPDEST POP PUSH2 0x368 PUSH1 0x4 DUP1 CALLDATASIZE SUB DUP2 ADD SWAP1 PUSH2 0x363 SWAP2 SWAP1 PUSH2 0x39EA JUMP JUMPDEST PUSH2 0xC89 JUMP JUMPDEST PUSH1 0x40 MLOAD PUSH2 0x375 SWAP2 SWAP1 PUSH2 0x39CF JUMP JUMPDEST PUSH1 0x40 MLOAD DUP1 SWAP2 SUB SWAP1 RETURN JUMPDEST CALLVALUE DUP1 ISZERO PUSH2 0x38A JUMPI PUSH1 0x0 DUP1 REVERT JUMPDEST POP PUSH2 0x393 PUSH2 0xCA9 JUMP JUMPDEST PUSH1 0x40 MLOAD PUSH2 0x3A0 SWAP2 SWAP1 PUSH2 0x3A26 JUMP JUMPDEST PUSH1 0x40 MLOAD DUP1 SWAP2 SUB SWAP1 RETURN JUMPDEST CALLVALUE DUP1 ISZERO PUSH2 0x3B5 JUMPI PUSH1 0x0 DUP1 REVERT JUMPDEST POP PUSH2 0x3D0 PUSH1 0x4 DUP1 CALLDATASIZE SUB DUP2 ADD SWAP1 PUSH2 0x3CB SWAP2 SWAP1 PUSH2 0x3A41 JUMP JUMPDEST PUSH2 0xCC0 JUMP JUMPDEST PUSH1 0x40 MLOAD PUSH2 0x3DD SWAP2 SWAP1 PUSH2 0x39CF JUMP JUMPDEST PUSH1 0x40 MLOAD DUP1 SWAP2 SUB SWAP1 RETURN JUMPDEST CALLVALUE DUP1 ISZERO PUSH2 0x3F2 JUMPI PUSH1 0x0 DUP1 REVERT JUMPDEST POP PUSH2 0x3FB PUSH2 0xD8B JUMP JUMPDEST PUSH1 0x40 MLOAD PUSH2 0x408 SWAP2 SWAP1 PUSH2 0x3A26 JUMP JUMPDEST PUSH1 0x40 MLOAD DUP1 SWAP2 SUB SWAP1 RETURN JUMPDEST CALLVALUE DUP1 ISZERO PUSH2 0x41D JUMPI PUSH1 0x0 DUP1 REVERT JUMPDEST POP PUSH2 0x438 PUSH1 0x4 DUP1 CALLDATASIZE SUB DUP2 ADD SWAP1 PUSH2 0x433 SWAP2 SWAP1 PUSH2 0x3A94 JUMP JUMPDEST PUSH2 0xD91 JUMP JUMPDEST PUSH1 0x40 MLOAD PUSH2 0x445 SWAP2 SWAP1 PUSH2 0x3A26 JUMP JUMPDEST PUSH1 0x40 MLOAD DUP1 SWAP2 SUB SWAP1 RETURN JUMPDEST CALLVALUE DUP1 ISZERO PUSH2 0x45A JUMPI PUSH1 0x0 DUP1 REVERT JUMPDEST POP PUSH2 0x463 PUSH2 0xDA3 JUMP JUMPDEST PUSH1 0x40 MLOAD PUSH2 0x470 SWAP2 SWAP1 PUSH2 0x3A26 JUMP JUMPDEST PUSH1 0x40 MLOAD DUP1 SWAP2 SUB SWAP1 RETURN JUMPDEST CALLVALUE DUP1 ISZERO PUSH2 0x485 JUMPI PUSH1 0x0 DUP1 REVERT JUMPDEST POP PUSH2 0x48E PUSH2 0xDA9 JUMP JUMPDEST PUSH1 0x40 MLOAD PUSH2 0x49B SWAP2 SWAP1 PUSH2 0x3ADD JUMP JUMPDEST PUSH1 0x40 MLOAD DUP1 SWAP2 SUB SWAP1 RETURN JUMPDEST CALLVALUE DUP1 ISZERO PUSH2 0x4B0 JUMPI PUSH1 0x0 DUP1 REVERT JUMPDEST POP PUSH2 0x4CB PUSH1 0x4 DUP1 CALLDATASIZE SUB DUP2 ADD SWAP1 PUSH2 0x4C6 SWAP2 SWAP1 PUSH2 0x3974 JUMP JUMPDEST PUSH2 0xDB3 JUMP JUMPDEST PUSH1 0x40 MLOAD PUSH2 0x4D8 SWAP2 SWAP1 PUSH2 0x39CF JUMP JUMPDEST PUSH1 0x40 MLOAD DUP1 SWAP2 SUB SWAP1 RETURN JUMPDEST CALLVALUE DUP1 ISZERO PUSH2 0x4ED JUMPI PUSH1 0x0 DUP1 REVERT JUMPDEST POP PUSH2 0x508 PUSH1 0x4 DUP1 CALLDATASIZE SUB DUP2 ADD SWAP1 PUSH2 0x503 SWAP2 SWAP1 PUSH2 0x39EA JUMP JUMPDEST PUSH2 0xE58 JUMP JUMPDEST PUSH1 0x40 MLOAD PUSH2 0x515 SWAP2 SWAP1 PUSH2 0x3A26 JUMP JUMPDEST PUSH1 0x40 MLOAD DUP1 SWAP2 SUB SWAP1 RETURN JUMPDEST CALLVALUE DUP1 ISZERO PUSH2 0x52A JUMPI PUSH1 0x0 DUP1 REVERT JUMPDEST POP PUSH2 0x545 PUSH1 0x4 DUP1 CALLDATASIZE SUB DUP2 ADD SWAP1 PUSH2 0x540 SWAP2 SWAP1 PUSH2 0x3A94 JUMP JUMPDEST PUSH2 0xEA1 JUMP JUMPDEST STOP JUMPDEST CALLVALUE DUP1 ISZERO PUSH2 0x553 JUMPI PUSH1 0x0 DUP1 REVERT JUMPDEST POP PUSH2 0x55C PUSH2 0xEB3 JUMP JUMPDEST PUSH1 0x40 MLOAD PUSH2 0x569 SWAP2 SWAP1 PUSH2 0x3A26 JUMP JUMPDEST PUSH1 0x40 MLOAD DUP1 SWAP2 SUB SWAP1 RETURN JUMPDEST CALLVALUE DUP1 ISZERO PUSH2 0x57E JUMPI PUSH1 0x0 DUP1 REVERT JUMPDEST POP PUSH2 0x587 PUSH2 0xEB9 JUMP JUMPDEST STOP JUMPDEST CALLVALUE DUP1 ISZERO PUSH2 0x595 JUMPI PUSH1 0x0 DUP1 REVERT JUMPDEST POP PUSH2 0x5B0 PUSH1 0x4 DUP1 CALLDATASIZE SUB DUP2 ADD SWAP1 PUSH2 0x5AB SWAP2 SWAP1 PUSH2 0x3B5D JUMP JUMPDEST PUSH2 0xECB JUMP JUMPDEST STOP JUMPDEST CALLVALUE DUP1 ISZERO PUSH2 0x5BE JUMPI PUSH1 0x0 DUP1 REVERT JUMPDEST POP PUSH2 0x5C7 PUSH2 0xF76 JUMP JUMPDEST PUSH1 0x40 MLOAD PUSH2 0x5D4 SWAP2 SWAP1 PUSH2 0x3BB9 JUMP JUMPDEST PUSH1 0x40 MLOAD DUP1 SWAP2 SUB SWAP1 RETURN JUMPDEST CALLVALUE DUP1 ISZERO PUSH2 0x5E9 JUMPI PUSH1 0x0 DUP1 REVERT JUMPDEST POP PUSH2 0x5F2 PUSH2 0xF9C JUMP JUMPDEST PUSH1 0x40 MLOAD PUSH2 0x5FF SWAP2 SWAP1 PUSH2 0x3A26 JUMP JUMPDEST PUSH1 0x40 MLOAD DUP1 SWAP2 SUB SWAP1 RETURN JUMPDEST CALLVALUE DUP1 ISZERO PUSH2 0x614 JUMPI PUSH1 0x0 DUP1 REVERT JUMPDEST POP PUSH2 0x61D PUSH2 0xFA8 JUMP JUMPDEST PUSH1 0x40 MLOAD PUSH2 0x62A SWAP2 SWAP1 PUSH2 0x39CF JUMP JUMPDEST PUSH1 0x40 MLOAD DUP1 SWAP2 SUB SWAP1 RETURN JUMPDEST CALLVALUE DUP1 ISZERO PUSH2 0x63F JUMPI PUSH1 0x0 DUP1 REVERT JUMPDEST POP PUSH2 0x648 PUSH2 0xFBE JUMP JUMPDEST STOP JUMPDEST CALLVALUE DUP1 ISZERO PUSH2 0x656 JUMPI PUSH1 0x0 DUP1 REVERT JUMPDEST POP PUSH2 0x65F PUSH2 0xFDE JUMP JUMPDEST PUSH1 0x40 MLOAD PUSH2 0x66C SWAP2 SWAP1 PUSH2 0x3A26 JUMP JUMPDEST PUSH1 0x40 MLOAD DUP1 SWAP2 SUB SWAP1 RETURN JUMPDEST CALLVALUE DUP1 ISZERO PUSH2 0x681 JUMPI PUSH1 0x0 DUP1 REVERT JUMPDEST POP PUSH2 0x69C PUSH1 0x4 DUP1 CALLDATASIZE SUB DUP2 ADD SWAP1 PUSH2 0x697 SWAP2 SWAP1 PUSH2 0x39EA JUMP JUMPDEST PUSH2 0xFE4 JUMP JUMPDEST STOP JUMPDEST CALLVALUE DUP1 ISZERO PUSH2 0x6AA JUMPI PUSH1 0x0 DUP1 REVERT JUMPDEST POP PUSH2 0x6C5 PUSH1 0x4 DUP1 CALLDATASIZE SUB DUP2 ADD SWAP1 PUSH2 0x6C0 SWAP2 SWAP1 PUSH2 0x3974 JUMP JUMPDEST PUSH2 0x110B JUMP JUMPDEST STOP JUMPDEST CALLVALUE DUP1 ISZERO PUSH2 0x6D3 JUMPI PUSH1 0x0 DUP1 REVERT JUMPDEST POP PUSH2 0x6EE PUSH1 0x4 DUP1 CALLDATASIZE SUB DUP2 ADD SWAP1 PUSH2 0x6E9 SWAP2 SWAP1 PUSH2 0x3D3E JUMP JUMPDEST PUSH2 0x1418 JUMP JUMPDEST STOP JUMPDEST CALLVALUE DUP1 ISZERO PUSH2 0x6FC JUMPI PUSH1 0x0 DUP1 REVERT JUMPDEST POP PUSH2 0x717 PUSH1 0x4 DUP1 CALLDATASIZE SUB DUP2 ADD SWAP1 PUSH2 0x712 SWAP2 SWAP1 PUSH2 0x3B5D JUMP JUMPDEST PUSH2 0x150A JUMP JUMPDEST PUSH1 0x40 MLOAD PUSH2 0x725 SWAP3 SWAP2 SWAP1 PUSH2 0x3DEF JUMP JUMPDEST PUSH1 0x40 MLOAD DUP1 SWAP2 SUB SWAP1 RETURN JUMPDEST CALLVALUE DUP1 ISZERO PUSH2 0x73A JUMPI PUSH1 0x0 DUP1 REVERT JUMPDEST POP PUSH2 0x755 PUSH1 0x4 DUP1 CALLDATASIZE SUB DUP2 ADD SWAP1 PUSH2 0x750 SWAP2 SWAP1 PUSH2 0x39EA JUMP JUMPDEST PUSH2 0x1570 JUMP JUMPDEST PUSH1 0x40 MLOAD PUSH2 0x762 SWAP2 SWAP1 PUSH2 0x3A26 JUMP JUMPDEST PUSH1 0x40 MLOAD DUP1 SWAP2 SUB SWAP1 RETURN JUMPDEST CALLVALUE DUP1 ISZERO PUSH2 0x777 JUMPI PUSH1 0x0 DUP1 REVERT JUMPDEST POP PUSH2 0x780 PUSH2 0x16C7 JUMP JUMPDEST STOP JUMPDEST CALLVALUE DUP1 ISZERO PUSH2 0x78E JUMPI PUSH1 0x0 DUP1 REVERT JUMPDEST POP PUSH2 0x7A9 PUSH1 0x4 DUP1 CALLDATASIZE SUB DUP2 ADD SWAP1 PUSH2 0x7A4 SWAP2 SWAP1 PUSH2 0x3E1F JUMP JUMPDEST PUSH2 0x16DB JUMP JUMPDEST STOP JUMPDEST CALLVALUE DUP1 ISZERO PUSH2 0x7B7 JUMPI PUSH1 0x0 DUP1 REVERT JUMPDEST POP PUSH2 0x7D2 PUSH1 0x4 DUP1 CALLDATASIZE SUB DUP2 ADD SWAP1 PUSH2 0x7CD SWAP2 SWAP1 PUSH2 0x3D3E JUMP JUMPDEST PUSH2 0x17AD JUMP JUMPDEST STOP JUMPDEST CALLVALUE DUP1 ISZERO PUSH2 0x7E0 JUMPI PUSH1 0x0 DUP1 REVERT JUMPDEST POP PUSH2 0x7FB PUSH1 0x4 DUP1 CALLDATASIZE SUB DUP2 ADD SWAP1 PUSH2 0x7F6 SWAP2 SWAP1 PUSH2 0x3E1F JUMP JUMPDEST PUSH2 0x17F5 JUMP JUMPDEST STOP JUMPDEST CALLVALUE DUP1 ISZERO PUSH2 0x809 JUMPI PUSH1 0x0 DUP1 REVERT JUMPDEST POP PUSH2 0x824 PUSH1 0x4 DUP1 CALLDATASIZE SUB DUP2 ADD SWAP1 PUSH2 0x81F SWAP2 SWAP1 PUSH2 0x3A94 JUMP JUMPDEST PUSH2 0x18DB JUMP JUMPDEST STOP JUMPDEST CALLVALUE DUP1 ISZERO PUSH2 0x832 JUMPI PUSH1 0x0 DUP1 REVERT JUMPDEST POP PUSH2 0x83B PUSH2 0x1932 JUMP JUMPDEST STOP JUMPDEST CALLVALUE DUP1 ISZERO PUSH2 0x849 JUMPI PUSH1 0x0 DUP1 REVERT JUMPDEST POP PUSH2 0x852 PUSH2 0x1944 JUMP JUMPDEST PUSH1 0x40 MLOAD PUSH2 0x85F SWAP2 SWAP1 PUSH2 0x3A26 JUMP JUMPDEST PUSH1 0x40 MLOAD DUP1 SWAP2 SUB SWAP1 RETURN JUMPDEST CALLVALUE DUP1 ISZERO PUSH2 0x874 JUMPI PUSH1 0x0 DUP1 REVERT JUMPDEST POP PUSH2 0x87D PUSH2 0x194A JUMP JUMPDEST PUSH1 0x40 MLOAD PUSH2 0x88A SWAP2 SWAP1 PUSH2 0x3BB9 JUMP JUMPDEST PUSH1 0x40 MLOAD DUP1 SWAP2 SUB SWAP1 RETURN JUMPDEST CALLVALUE DUP1 ISZERO PUSH2 0x89F JUMPI PUSH1 0x0 DUP1 REVERT JUMPDEST POP PUSH2 0x8BA PUSH1 0x4 DUP1 CALLDATASIZE SUB DUP2 ADD SWAP1 PUSH2 0x8B5 SWAP2 SWAP1 PUSH2 0x39EA JUMP JUMPDEST PUSH2 0x1959 JUMP JUMPDEST PUSH1 0x40 MLOAD PUSH2 0x8C7 SWAP2 SWAP1 PUSH2 0x39CF JUMP JUMPDEST PUSH1 0x40 MLOAD DUP1 SWAP2 SUB SWAP1 RETURN JUMPDEST CALLVALUE DUP1 ISZERO PUSH2 0x8DC JUMPI PUSH1 0x0 DUP1 REVERT JUMPDEST POP PUSH2 0x8E5 PUSH2 0x1979 JUMP JUMPDEST PUSH1 0x40 MLOAD PUSH2 0x8F2 SWAP2 SWAP1 PUSH2 0x3BB9 JUMP JUMPDEST PUSH1 0x40 MLOAD DUP1 SWAP2 SUB SWAP1 RETURN JUMPDEST CALLVALUE DUP1 ISZERO PUSH2 0x907 JUMPI PUSH1 0x0 DUP1 REVERT JUMPDEST POP PUSH2 0x910 PUSH2 0x19A3 JUMP JUMPDEST PUSH1 0x40 MLOAD PUSH2 0x91D SWAP2 SWAP1 PUSH2 0x3A26 JUMP JUMPDEST PUSH1 0x40 MLOAD DUP1 SWAP2 SUB SWAP1 RETURN JUMPDEST CALLVALUE DUP1 ISZERO PUSH2 0x932 JUMPI PUSH1 0x0 DUP1 REVERT JUMPDEST POP PUSH2 0x94D PUSH1 0x4 DUP1 CALLDATASIZE SUB DUP2 ADD SWAP1 PUSH2 0x948 SWAP2 SWAP1 PUSH2 0x39EA JUMP JUMPDEST PUSH2 0x19A9 JUMP JUMPDEST PUSH1 0x40 MLOAD PUSH2 0x95A SWAP2 SWAP1 PUSH2 0x39CF JUMP JUMPDEST PUSH1 0x40 MLOAD DUP1 SWAP2 SUB SWAP1 RETURN JUMPDEST CALLVALUE DUP1 ISZERO PUSH2 0x96F JUMPI PUSH1 0x0 DUP1 REVERT JUMPDEST POP PUSH2 0x98A PUSH1 0x4 DUP1 CALLDATASIZE SUB DUP2 ADD SWAP1 PUSH2 0x985 SWAP2 SWAP1 PUSH2 0x39EA JUMP JUMPDEST PUSH2 0x19C9 JUMP JUMPDEST PUSH1 0x40 MLOAD PUSH2 0x997 SWAP2 SWAP1 PUSH2 0x39CF JUMP JUMPDEST PUSH1 0x40 MLOAD DUP1 SWAP2 SUB SWAP1 RETURN JUMPDEST CALLVALUE DUP1 ISZERO PUSH2 0x9AC JUMPI PUSH1 0x0 DUP1 REVERT JUMPDEST POP PUSH2 0x9B5 PUSH2 0x19E9 JUMP JUMPDEST PUSH1 0x40 MLOAD PUSH2 0x9C2 SWAP2 SWAP1 PUSH2 0x38AA JUMP JUMPDEST PUSH1 0x40 MLOAD DUP1 SWAP2 SUB SWAP1 RETURN JUMPDEST CALLVALUE DUP1 ISZERO PUSH2 0x9D7 JUMPI PUSH1 0x0 DUP1 REVERT JUMPDEST POP PUSH2 0x9F2 PUSH1 0x4 DUP1 CALLDATASIZE SUB DUP2 ADD SWAP1 PUSH2 0x9ED SWAP2 SWAP1 PUSH2 0x3A94 JUMP JUMPDEST PUSH2 0x1A77 JUMP JUMPDEST PUSH1 0x40 MLOAD PUSH2 0x9FF SWAP2 SWAP1 PUSH2 0x3A26 JUMP JUMPDEST PUSH1 0x40 MLOAD DUP1 SWAP2 SUB SWAP1 RETURN JUMPDEST CALLVALUE DUP1 ISZERO PUSH2 0xA14 JUMPI PUSH1 0x0 DUP1 REVERT JUMPDEST POP PUSH2 0xA2F PUSH1 0x4 DUP1 CALLDATASIZE SUB DUP2 ADD SWAP1 PUSH2 0xA2A SWAP2 SWAP1 PUSH2 0x3974 JUMP JUMPDEST PUSH2 0x1A89 JUMP JUMPDEST PUSH1 0x40 MLOAD PUSH2 0xA3C SWAP2 SWAP1 PUSH2 0x39CF JUMP JUMPDEST PUSH1 0x40 MLOAD DUP1 SWAP2 SUB SWAP1 RETURN JUMPDEST CALLVALUE DUP1 ISZERO PUSH2 0xA51 JUMPI PUSH1 0x0 DUP1 REVERT JUMPDEST POP PUSH2 0xA6C PUSH1 0x4 DUP1 CALLDATASIZE SUB DUP2 ADD SWAP1 PUSH2 0xA67 SWAP2 SWAP1 PUSH2 0x3974 JUMP JUMPDEST PUSH2 0x1B48 JUMP JUMPDEST PUSH1 0x40 MLOAD PUSH2 0xA79 SWAP2 SWAP1 PUSH2 0x39CF JUMP JUMPDEST PUSH1 0x40 MLOAD DUP1 SWAP2 SUB SWAP1 RETURN JUMPDEST CALLVALUE DUP1 ISZERO PUSH2 0xA8E JUMPI PUSH1 0x0 DUP1 REVERT JUMPDEST POP PUSH2 0xA97 PUSH2 0x1B5F JUMP JUMPDEST PUSH1 0x40 MLOAD PUSH2 0xAA4 SWAP2 SWAP1 PUSH2 0x3A26 JUMP JUMPDEST PUSH1 0x40 MLOAD DUP1 SWAP2 SUB SWAP1 RETURN JUMPDEST CALLVALUE DUP1 ISZERO PUSH2 0xAB9 JUMPI PUSH1 0x0 DUP1 REVERT JUMPDEST POP PUSH2 0xAD4 PUSH1 0x4 DUP1 CALLDATASIZE SUB DUP2 ADD SWAP1 PUSH2 0xACF SWAP2 SWAP1 PUSH2 0x3A94 JUMP JUMPDEST PUSH2 0x1B65 JUMP JUMPDEST STOP JUMPDEST CALLVALUE DUP1 ISZERO PUSH2 0xAE2 JUMPI PUSH1 0x0 DUP1 REVERT JUMPDEST POP PUSH2 0xAEB PUSH2 0x1BBC JUMP JUMPDEST PUSH1 0x40 MLOAD PUSH2 0xAF8 SWAP2 SWAP1 PUSH2 0x3A26 JUMP JUMPDEST PUSH1 0x40 MLOAD DUP1 SWAP2 SUB SWAP1 RETURN JUMPDEST CALLVALUE DUP1 ISZERO PUSH2 0xB0D JUMPI PUSH1 0x0 DUP1 REVERT JUMPDEST POP PUSH2 0xB28 PUSH1 0x4 DUP1 CALLDATASIZE SUB DUP2 ADD SWAP1 PUSH2 0xB23 SWAP2 SWAP1 PUSH2 0x3E5F JUMP JUMPDEST PUSH2 0x1BC2 JUMP JUMPDEST PUSH1 0x40 MLOAD PUSH2 0xB35 SWAP2 SWAP1 PUSH2 0x3A26 JUMP JUMPDEST PUSH1 0x40 MLOAD DUP1 SWAP2 SUB SWAP1 RETURN JUMPDEST CALLVALUE DUP1 ISZERO PUSH2 0xB4A JUMPI PUSH1 0x0 DUP1 REVERT JUMPDEST POP PUSH2 0xB65 PUSH1 0x4 DUP1 CALLDATASIZE SUB DUP2 ADD SWAP1 PUSH2 0xB60 SWAP2 SWAP1 PUSH2 0x3A94 JUMP JUMPDEST PUSH2 0x1C49 JUMP JUMPDEST STOP JUMPDEST CALLVALUE DUP1 ISZERO PUSH2 0xB73 JUMPI PUSH1 0x0 DUP1 REVERT JUMPDEST POP PUSH2 0xB7C PUSH2 0x1C5B JUMP JUMPDEST PUSH1 0x40 MLOAD PUSH2 0xB89 SWAP2 SWAP1 PUSH2 0x3A26 JUMP JUMPDEST PUSH1 0x40 MLOAD DUP1 SWAP2 SUB SWAP1 RETURN JUMPDEST CALLVALUE DUP1 ISZERO PUSH2 0xB9E JUMPI PUSH1 0x0 DUP1 REVERT JUMPDEST POP PUSH2 0xBB9 PUSH1 0x4 DUP1 CALLDATASIZE SUB DUP2 ADD SWAP1 PUSH2 0xBB4 SWAP2 SWAP1 PUSH2 0x3F62 JUMP JUMPDEST PUSH2 0x1C69 JUMP JUMPDEST STOP JUMPDEST CALLVALUE DUP1 ISZERO PUSH2 0xBC7 JUMPI PUSH1 0x0 DUP1 REVERT JUMPDEST POP PUSH2 0xBE2 PUSH1 0x4 DUP1 CALLDATASIZE SUB DUP2 ADD SWAP1 PUSH2 0xBDD SWAP2 SWAP1 PUSH2 0x39EA JUMP JUMPDEST PUSH2 0x2176 JUMP JUMPDEST STOP JUMPDEST PUSH1 0x3 DUP1 SLOAD PUSH2 0xBF1 SWAP1 PUSH2 0x4009 JUMP JUMPDEST DUP1 PUSH1 0x1F ADD PUSH1 0x20 DUP1 SWAP2 DIV MUL PUSH1 0x20 ADD PUSH1 0x40 MLOAD SWAP1 DUP2 ADD PUSH1 0x40 MSTORE DUP1 SWAP3 SWAP2 SWAP1 DUP2 DUP2 MSTORE PUSH1 0x20 ADD DUP3 DUP1 SLOAD PUSH2 0xC1D SWAP1 PUSH2 0x4009 JUMP JUMPDEST DUP1 ISZERO PUSH2 0xC6A JUMPI DUP1 PUSH1 0x1F LT PUSH2 0xC3F JUMPI PUSH2 0x100 DUP1 DUP4 SLOAD DIV MUL DUP4 MSTORE SWAP2 PUSH1 0x20 ADD SWAP2 PUSH2 0xC6A JUMP JUMPDEST DUP3 ADD SWAP2 SWAP1 PUSH1 0x0 MSTORE PUSH1 0x20 PUSH1 0x0 KECCAK256 SWAP1 JUMPDEST DUP2 SLOAD DUP2 MSTORE SWAP1 PUSH1 0x1 ADD SWAP1 PUSH1 0x20 ADD DUP1 DUP4 GT PUSH2 0xC4D JUMPI DUP3 SWAP1 SUB PUSH1 0x1F AND DUP3 ADD SWAP2 JUMPDEST POP POP POP POP POP DUP2 JUMP JUMPDEST PUSH1 0x0 PUSH2 0xC7F CALLER DUP5 DUP5 PUSH2 0x21FC JUMP JUMPDEST PUSH1 0x1 SWAP1 POP SWAP3 SWAP2 POP POP JUMP JUMPDEST PUSH1 0x11 PUSH1 0x20 MSTORE DUP1 PUSH1 0x0 MSTORE PUSH1 0x40 PUSH1 0x0 KECCAK256 PUSH1 0x0 SWAP2 POP SLOAD SWAP1 PUSH2 0x100 EXP SWAP1 DIV PUSH1 0xFF AND DUP2 JUMP JUMPDEST PUSH1 0x0 PUSH1 0xA SLOAD PUSH1 0x6 SLOAD PUSH2 0xCBB SWAP2 SWAP1 PUSH2 0x4069 JUMP JUMPDEST SWAP1 POP SWAP1 JUMP JUMPDEST PUSH1 0x0 PUSH2 0xCCD DUP5 DUP5 DUP5 PUSH2 0x23C5 JUMP JUMPDEST PUSH2 0xD80 DUP5 CALLER PUSH2 0xD7B DUP6 PUSH1 0x40 MLOAD DUP1 PUSH1 0x60 ADD PUSH1 0x40 MSTORE DUP1 PUSH1 0x28 DUP2 MSTORE PUSH1 0x20 ADD PUSH2 0x4C61 PUSH1 0x28 SWAP2 CODECOPY PUSH1 0x8 PUSH1 0x0 DUP12 PUSH20 0xFFFFFFFFFFFFFFFFFFFFFFFFFFFFFFFFFFFFFFFF AND PUSH20 0xFFFFFFFFFFFFFFFFFFFFFFFFFFFFFFFFFFFFFFFF AND DUP2 MSTORE PUSH1 0x20 ADD SWAP1 DUP2 MSTORE PUSH1 0x20 ADD PUSH1 0x0 KECCAK256 PUSH1 0x0 CALLER PUSH20 0xFFFFFFFFFFFFFFFFFFFFFFFFFFFFFFFFFFFFFFFF AND PUSH20 0xFFFFFFFFFFFFFFFFFFFFFFFFFFFFFFFFFFFFFFFF AND DUP2 MSTORE PUSH1 0x20 ADD SWAP1 DUP2 MSTORE PUSH1 0x20 ADD PUSH1 0x0 KECCAK256 SLOAD PUSH2 0x2CD7 SWAP1 SWAP3 SWAP2 SWAP1 PUSH4 0xFFFFFFFF AND JUMP JUMPDEST PUSH2 0x21FC JUMP JUMPDEST PUSH1 0x1 SWAP1 POP SWAP4 SWAP3 POP POP POP JUMP JUMPDEST PUSH1 0xC SLOAD DUP2 JUMP JUMPDEST PUSH1 0x0 PUSH2 0xD9C DUP3 PUSH2 0x2D2C JUMP JUMPDEST SWAP1 POP SWAP2 SWAP1 POP JUMP JUMPDEST PUSH1 0xD SLOAD DUP2 JUMP JUMPDEST PUSH1 0x0 PUSH1 0x5 SLOAD SWAP1 POP SWAP1 JUMP JUMPDEST PUSH1 0x0 PUSH2 0xE4E CALLER DUP5 PUSH2 0xE49 DUP6 PUSH1 0x8 PUSH1 0x0 CALLER PUSH20 0xFFFFFFFFFFFFFFFFFFFFFFFFFFFFFFFFFFFFFFFF AND PUSH20 0xFFFFFFFFFFFFFFFFFFFFFFFFFFFFFFFFFFFFFFFF AND DUP2 MSTORE PUSH1 0x20 ADD SWAP1 DUP2 MSTORE PUSH1 0x20 ADD PUSH1 0x0 KECCAK256 PUSH1 0x0 DUP10 PUSH20 0xFFFFFFFFFFFFFFFFFFFFFFFFFFFFFFFFFFFFFFFF AND PUSH20 0xFFFFFFFFFFFFFFFFFFFFFFFFFFFFFFFFFFFFFFFF AND DUP2 MSTORE PUSH1 0x20 ADD SWAP1 DUP2 MSTORE PUSH1 0x20 ADD PUSH1 0x0 KECCAK256 SLOAD PUSH2 0x2D66 SWAP1 SWAP2 SWAP1 PUSH4 0xFFFFFFFF AND JUMP JUMPDEST PUSH2 0x21FC JUMP JUMPDEST PUSH1 0x1 SWAP1 POP SWAP3 SWAP2 POP POP JUMP JUMPDEST PUSH1 0x0 PUSH1 0x9 PUSH1 0x0 DUP4 PUSH20 0xFFFFFFFFFFFFFFFFFFFFFFFFFFFFFFFFFFFFFFFF AND PUSH20 0xFFFFFFFFFFFFFFFFFFFFFFFFFFFFFFFFFFFFFFFF AND DUP2 MSTORE PUSH1 0x20 ADD SWAP1 DUP2 MSTORE PUSH1 0x20 ADD PUSH1 0x0 KECCAK256 SLOAD SWAP1 POP SWAP2 SWAP1 POP JUMP JUMPDEST PUSH2 0xEA9 PUSH2 0x2D7C JUMP JUMPDEST DUP1 PUSH1 0x10 DUP2 SWAP1 SSTORE POP POP JUMP JUMPDEST PUSH1 0x15 SLOAD DUP2 JUMP JUMPDEST PUSH2 0xEC1 PUSH2 0x2D7C JUMP JUMPDEST PUSH2 0xEC9 PUSH2 0x2E03 JUMP JUMPDEST JUMP JUMPDEST PUSH1 0xF SLOAD PUSH1 0x15 SLOAD TIMESTAMP PUSH2 0xEDC SWAP2 SWAP1 PUSH2 0x409D JUMP JUMPDEST GT PUSH2 0xF1C JUMPI PUSH1 0x40 MLOAD PUSH32 0x8C379A000000000000000000000000000000000000000000000000000000000 DUP2 MSTORE PUSH1 0x4 ADD PUSH2 0xF13 SWAP1 PUSH2 0x411D JUMP JUMPDEST PUSH1 0x40 MLOAD DUP1 SWAP2 SUB SWAP1 REVERT JUMPDEST PUSH1 0x7 SLOAD PUSH1 0x6 SLOAD LT ISZERO PUSH2 0xF63 JUMPI PUSH1 0x40 MLOAD PUSH32 0x8C379A000000000000000000000000000000000000000000000000000000000 DUP2 MSTORE PUSH1 0x4 ADD PUSH2 0xF5A SWAP1 PUSH2 0x41AF JUMP JUMPDEST PUSH1 0x40 MLOAD DUP1 SWAP2 SUB SWAP1 REVERT JUMPDEST PUSH2 0xF6B PUSH2 0x2E65 JUMP JUMPDEST TIMESTAMP PUSH1 0x15 DUP2 SWAP1 SSTORE POP POP POP JUMP JUMPDEST PUSH1 0xB PUSH1 0x0 SWAP1 SLOAD SWAP1 PUSH2 0x100 EXP SWAP1 DIV PUSH20 0xFFFFFFFFFFFFFFFFFFFFFFFFFFFFFFFFFFFFFFFF AND DUP2 JUMP JUMPDEST PUSH8 0xDE0B6B3A7640000 DUP2 JUMP JUMPDEST PUSH1 0x0 DUP1 PUSH1 0x0 SWAP1 SLOAD SWAP1 PUSH2 0x100 EXP SWAP1 DIV PUSH1 0xFF AND SWAP1 POP SWAP1 JUMP JUMPDEST PUSH2 0xFC6 PUSH2 0x2D7C JUMP JUMPDEST TIMESTAMP PUSH1 0x15 SLOAD GT ISZERO PUSH2 0xFD5 JUMPI PUSH1 0x0 DUP1 REVERT JUMPDEST TIMESTAMP PUSH1 0x15 DUP2 SWAP1 SSTORE POP JUMP JUMPDEST PUSH1 0xF SLOAD DUP2 JUMP JUMPDEST PUSH2 0xFEC PUSH2 0x2D7C JUMP JUMPDEST PUSH1 0x0 PUSH20 0xFFFFFFFFFFFFFFFFFFFFFFFFFFFFFFFFFFFFFFFF AND DUP2 PUSH20 0xFFFFFFFFFFFFFFFFFFFFFFFFFFFFFFFFFFFFFFFF AND SUB PUSH2 0x105B JUMPI PUSH1 0x40 MLOAD PUSH32 0x8C379A000000000000000000000000000000000000000000000000000000000 DUP2 MSTORE PUSH1 0x4 ADD PUSH2 0x1052 SWAP1 PUSH2 0x421B JUMP JUMPDEST PUSH1 0x40 MLOAD DUP1 SWAP2 SUB SWAP1 REVERT JUMPDEST PUSH1 0x0 DUP2 PUSH20 0xFFFFFFFFFFFFFFFFFFFFFFFFFFFFFFFFFFFFFFFF AND SELFBALANCE PUSH1 0x40 MLOAD PUSH2 0x1081 SWAP1 PUSH2 0x426C JUMP JUMPDEST PUSH1 0x0 PUSH1 0x40 MLOAD DUP1 DUP4 SUB DUP2 DUP6 DUP8 GAS CALL SWAP3 POP POP POP RETURNDATASIZE DUP1 PUSH1 0x0 DUP2 EQ PUSH2 0x10BE JUMPI PUSH1 0x40 MLOAD SWAP2 POP PUSH1 0x1F NOT PUSH1 0x3F RETURNDATASIZE ADD AND DUP3 ADD PUSH1 0x40 MSTORE RETURNDATASIZE DUP3 MSTORE RETURNDATASIZE PUSH1 0x0 PUSH1 0x20 DUP5 ADD RETURNDATACOPY PUSH2 0x10C3 JUMP JUMPDEST PUSH1 0x60 SWAP2 POP JUMPDEST POP POP SWAP1 POP DUP1 PUSH2 0x1107 JUMPI PUSH1 0x40 MLOAD PUSH32 0x8C379A000000000000000000000000000000000000000000000000000000000 DUP2 MSTORE PUSH1 0x4 ADD PUSH2 0x10FE SWAP1 PUSH2 0x42CD JUMP JUMPDEST PUSH1 0x40 MLOAD DUP1 SWAP2 SUB SWAP1 REVERT JUMPDEST POP POP JUMP JUMPDEST PUSH2 0x1113 PUSH2 0x2F60 JUMP JUMPDEST PUSH1 0x14 PUSH1 0x0 CALLER PUSH20 0xFFFFFFFFFFFFFFFFFFFFFFFFFFFFFFFFFFFFFFFF AND PUSH20 0xFFFFFFFFFFFFFFFFFFFFFFFFFFFFFFFFFFFFFFFF AND DUP2 MSTORE PUSH1 0x20 ADD SWAP1 DUP2 MSTORE PUSH1 0x20 ADD PUSH1 0x0 KECCAK256 PUSH1 0x0 SWAP1 SLOAD SWAP1 PUSH2 0x100 EXP SWAP1 DIV PUSH1 0xFF AND DUP1 PUSH2 0x119D JUMPI POP PUSH2 0x116E PUSH2 0x1979 JUMP JUMPDEST PUSH20 0xFFFFFFFFFFFFFFFFFFFFFFFFFFFFFFFFFFFFFFFF AND CALLER PUSH20 0xFFFFFFFFFFFFFFFFFFFFFFFFFFFFFFFFFFFFFFFF AND EQ JUMPDEST PUSH2 0x11A6 JUMPI PUSH1 0x0 DUP1 REVERT JUMPDEST PUSH1 0x0 PUSH1 0xA SLOAD GT ISZERO PUSH2 0x11E0 JUMPI PUSH2 0x11DF PUSH1 0xA SLOAD PUSH1 0xB PUSH1 0x0 SWAP1 SLOAD SWAP1 PUSH2 0x100 EXP SWAP1 DIV PUSH20 0xFFFFFFFFFFFFFFFFFFFFFFFFFFFFFFFFFFFFFFFF AND PUSH2 0x2FAA JUMP JUMPDEST JUMPDEST PUSH1 0x12 PUSH1 0x0 DUP4 PUSH20 0xFFFFFFFFFFFFFFFFFFFFFFFFFFFFFFFFFFFFFFFF AND PUSH20 0xFFFFFFFFFFFFFFFFFFFFFFFFFFFFFFFFFFFFFFFF AND DUP2 MSTORE PUSH1 0x20 ADD SWAP1 DUP2 MSTORE PUSH1 0x20 ADD PUSH1 0x0 KECCAK256 PUSH1 0x0 SWAP1 SLOAD SWAP1 PUSH2 0x100 EXP SWAP1 DIV PUSH1 0xFF AND ISZERO PUSH2 0x1295 JUMPI PUSH2 0x123B DUP2 PUSH2 0x3016 JUMP JUMPDEST PUSH1 0x9 PUSH1 0x0 DUP5 PUSH20 0xFFFFFFFFFFFFFFFFFFFFFFFFFFFFFFFFFFFFFFFF AND PUSH20 0xFFFFFFFFFFFFFFFFFFFFFFFFFFFFFFFFFFFFFFFF AND DUP2 MSTORE PUSH1 0x20 ADD SWAP1 DUP2 MSTORE PUSH1 0x20 ADD PUSH1 0x0 KECCAK256 PUSH1 0x0 DUP3 DUP3 SLOAD PUSH2 0x1289 SWAP2 SWAP1 PUSH2 0x4069 JUMP JUMPDEST SWAP3 POP POP DUP2 SWAP1 SSTORE POP PUSH2 0x130D JUMP JUMPDEST PUSH2 0x129E DUP2 PUSH2 0x3056 JUMP JUMPDEST PUSH1 0x9 PUSH1 0x0 DUP5 PUSH20 0xFFFFFFFFFFFFFFFFFFFFFFFFFFFFFFFFFFFFFFFF AND PUSH20 0xFFFFFFFFFFFFFFFFFFFFFFFFFFFFFFFFFFFFFFFF AND DUP2 MSTORE PUSH1 0x20 ADD SWAP1 DUP2 MSTORE PUSH1 0x20 ADD PUSH1 0x0 KECCAK256 PUSH1 0x0 DUP3 DUP3 SLOAD PUSH2 0x12EC SWAP2 SWAP1 PUSH2 0x4069 JUMP JUMPDEST SWAP3 POP POP DUP2 SWAP1 SSTORE POP DUP1 PUSH1 0x7 PUSH1 0x0 DUP3 DUP3 SLOAD PUSH2 0x1305 SWAP2 SWAP1 PUSH2 0x409D JUMP JUMPDEST SWAP3 POP POP DUP2 SWAP1 SSTORE POP JUMPDEST PUSH2 0x1316 DUP2 PUSH2 0x3016 JUMP JUMPDEST PUSH1 0x9 PUSH1 0x0 PUSH1 0xB PUSH1 0x0 SWAP1 SLOAD SWAP1 PUSH2 0x100 EXP SWAP1 DIV PUSH20 0xFFFFFFFFFFFFFFFFFFFFFFFFFFFFFFFFFFFFFFFF AND PUSH20 0xFFFFFFFFFFFFFFFFFFFFFFFFFFFFFFFFFFFFFFFF AND PUSH20 0xFFFFFFFFFFFFFFFFFFFFFFFFFFFFFFFFFFFFFFFF AND DUP2 MSTORE PUSH1 0x20 ADD SWAP1 DUP2 MSTORE PUSH1 0x20 ADD PUSH1 0x0 KECCAK256 PUSH1 0x0 DUP3 DUP3 SLOAD PUSH2 0x1386 SWAP2 SWAP1 PUSH2 0x409D JUMP JUMPDEST SWAP3 POP POP DUP2 SWAP1 SSTORE POP DUP2 PUSH20 0xFFFFFFFFFFFFFFFFFFFFFFFFFFFFFFFFFFFFFFFF AND PUSH1 0xB PUSH1 0x0 SWAP1 SLOAD SWAP1 PUSH2 0x100 EXP SWAP1 DIV PUSH20 0xFFFFFFFFFFFFFFFFFFFFFFFFFFFFFFFFFFFFFFFF AND PUSH20 0xFFFFFFFFFFFFFFFFFFFFFFFFFFFFFFFFFFFFFFFF AND PUSH32 0xDDF252AD1BE2C89B69C2B068FC378DAA952BA7F163C4A11628F55A4DF523B3EF DUP4 PUSH1 0x40 MLOAD PUSH2 0x140C SWAP2 SWAP1 PUSH2 0x3A26 JUMP JUMPDEST PUSH1 0x40 MLOAD DUP1 SWAP2 SUB SWAP1 LOG3 POP POP JUMP JUMPDEST PUSH2 0x1420 PUSH2 0x2D7C JUMP JUMPDEST PUSH1 0x0 JUMPDEST DUP3 MLOAD DUP2 LT ISZERO PUSH2 0x1505 JUMPI PUSH1 0xB PUSH1 0x0 SWAP1 SLOAD SWAP1 PUSH2 0x100 EXP SWAP1 DIV PUSH20 0xFFFFFFFFFFFFFFFFFFFFFFFFFFFFFFFFFFFFFFFF AND PUSH20 0xFFFFFFFFFFFFFFFFFFFFFFFFFFFFFFFFFFFFFFFF AND DUP4 DUP3 DUP2 MLOAD DUP2 LT PUSH2 0x1478 JUMPI PUSH2 0x1477 PUSH2 0x42ED JUMP JUMPDEST JUMPDEST PUSH1 0x20 MUL PUSH1 0x20 ADD ADD MLOAD PUSH20 0xFFFFFFFFFFFFFFFFFFFFFFFFFFFFFFFFFFFFFFFF AND SUB PUSH2 0x14D6 JUMPI PUSH1 0x40 MLOAD PUSH32 0x8C379A000000000000000000000000000000000000000000000000000000000 DUP2 MSTORE PUSH1 0x4 ADD PUSH2 0x14CD SWAP1 PUSH2 0x438E JUMP JUMPDEST PUSH1 0x40 MLOAD DUP1 SWAP2 SUB SWAP1 REVERT JUMPDEST PUSH2 0x14FA DUP4 DUP3 DUP2 MLOAD DUP2 LT PUSH2 0x14EC JUMPI PUSH2 0x14EB PUSH2 0x42ED JUMP JUMPDEST JUMPDEST PUSH1 0x20 MUL PUSH1 0x20 ADD ADD MLOAD DUP4 PUSH2 0x3090 JUMP JUMPDEST DUP1 PUSH1 0x1 ADD SWAP1 POP PUSH2 0x1423 JUMP JUMPDEST POP POP POP JUMP JUMPDEST PUSH1 0x0 PUSH1 0x60 PUSH1 0xF SLOAD PUSH1 0x15 SLOAD TIMESTAMP PUSH2 0x151F SWAP2 SWAP1 PUSH2 0x409D JUMP JUMPDEST GT SWAP2 POP DUP4 DUP4 DUP1 DUP1 PUSH1 0x1F ADD PUSH1 0x20 DUP1 SWAP2 DIV MUL PUSH1 0x20 ADD PUSH1 0x40 MLOAD SWAP1 DUP2 ADD PUSH1 0x40 MSTORE DUP1 SWAP4 SWAP3 SWAP2 SWAP1 DUP2 DUP2 MSTORE PUSH1 0x20 ADD DUP4 DUP4 DUP1 DUP3 DUP5 CALLDATACOPY PUSH1 0x0 DUP2 DUP5 ADD MSTORE PUSH1 0x1F NOT PUSH1 0x1F DUP3 ADD AND SWAP1 POP DUP1 DUP4 ADD SWAP3 POP POP POP POP POP POP POP SWAP1 POP SWAP3 POP SWAP3 SWAP1 POP JUMP JUMPDEST PUSH1 0x0 PUSH1 0x12 PUSH1 0x0 DUP4 PUSH20 0xFFFFFFFFFFFFFFFFFFFFFFFFFFFFFFFFFFFFFFFF AND PUSH20 0xFFFFFFFFFFFFFFFFFFFFFFFFFFFFFFFFFFFFFFFF AND DUP2 MSTORE PUSH1 0x20 ADD SWAP1 DUP2 MSTORE PUSH1 0x20 ADD PUSH1 0x0 KECCAK256 PUSH1 0x0 SWAP1 SLOAD SWAP1 PUSH2 0x100 EXP SWAP1 DIV PUSH1 0xFF AND ISZERO PUSH2 0x1677 JUMPI PUSH1 0xB PUSH1 0x0 SWAP1 SLOAD SWAP1 PUSH2 0x100 EXP SWAP1 DIV PUSH20 0xFFFFFFFFFFFFFFFFFFFFFFFFFFFFFFFFFFFFFFFF AND PUSH20 0xFFFFFFFFFFFFFFFFFFFFFFFFFFFFFFFFFFFFFFFF AND DUP3 PUSH20 0xFFFFFFFFFFFFFFFFFFFFFFFFFFFFFFFFFFFFFFFF AND SUB PUSH2 0x1628 JUMPI PUSH2 0x1621 PUSH2 0x321F JUMP JUMPDEST SWAP1 POP PUSH2 0x16C2 JUMP JUMPDEST PUSH2 0x1670 PUSH1 0x9 PUSH1 0x0 DUP5 PUSH20 0xFFFFFFFFFFFFFFFFFFFFFFFFFFFFFFFFFFFFFFFF AND PUSH20 0xFFFFFFFFFFFFFFFFFFFFFFFFFFFFFFFFFFFFFFFF AND DUP2 MSTORE PUSH1 0x20 ADD SWAP1 DUP2 MSTORE PUSH1 0x20 ADD PUSH1 0x0 KECCAK256 SLOAD PUSH2 0x32A2 JUMP JUMPDEST SWAP1 POP PUSH2 0x16C2 JUMP JUMPDEST PUSH2 0x16BF PUSH1 0x9 PUSH1 0x0 DUP5 PUSH20 0xFFFFFFFFFFFFFFFFFFFFFFFFFFFFFFFFFFFFFFFF AND PUSH20 0xFFFFFFFFFFFFFFFFFFFFFFFFFFFFFFFFFFFFFFFF AND DUP2 MSTORE PUSH1 0x20 ADD SWAP1 DUP2 MSTORE PUSH1 0x20 ADD PUSH1 0x0 KECCAK256 SLOAD PUSH2 0x2D2C JUMP JUMPDEST SWAP1 POP JUMPDEST SWAP2 SWAP1 POP JUMP JUMPDEST PUSH2 0x16CF PUSH2 0x2D7C JUMP JUMPDEST PUSH2 0x16D9 PUSH1 0x0 PUSH2 0x32E2 JUMP JUMPDEST JUMP JUMPDEST PUSH2 0x16E3 PUSH2 0x2D7C JUMP JUMPDEST PUSH1 0x0 PUSH20 0xFFFFFFFFFFFFFFFFFFFFFFFFFFFFFFFFFFFFFFFF AND DUP3 PUSH20 0xFFFFFFFFFFFFFFFFFFFFFFFFFFFFFFFFFFFFFFFF AND SUB PUSH2 0x1752 JUMPI PUSH1 0x40 MLOAD PUSH32 0x8C379A000000000000000000000000000000000000000000000000000000000 DUP2 MSTORE PUSH1 0x4 ADD PUSH2 0x1749 SWAP1 PUSH2 0x43FA JUMP JUMPDEST PUSH1 0x40 MLOAD DUP1 SWAP2 SUB SWAP1 REVERT JUMPDEST DUP1 PUSH1 0x14 PUSH1 0x0 DUP5 PUSH20 0xFFFFFFFFFFFFFFFFFFFFFFFFFFFFFFFFFFFFFFFF AND PUSH20 0xFFFFFFFFFFFFFFFFFFFFFFFFFFFFFFFFFFFFFFFF AND DUP2 MSTORE PUSH1 0x20 ADD SWAP1 DUP2 MSTORE PUSH1 0x20 ADD PUSH1 0x0 KECCAK256 PUSH1 0x0 PUSH2 0x100 EXP DUP2 SLOAD DUP2 PUSH1 0xFF MUL NOT AND SWAP1 DUP4 ISZERO ISZERO MUL OR SWAP1 SSTORE POP POP POP JUMP JUMPDEST PUSH2 0x17B5 PUSH2 0x2D7C JUMP JUMPDEST PUSH1 0x0 JUMPDEST DUP3 MLOAD DUP2 LT ISZERO PUSH2 0x17F0 JUMPI PUSH2 0x17E5 DUP4 DUP3 DUP2 MLOAD DUP2 LT PUSH2 0x17D7 JUMPI PUSH2 0x17D6 PUSH2 0x42ED JUMP JUMPDEST JUMPDEST PUSH1 0x20 MUL PUSH1 0x20 ADD ADD MLOAD DUP4 PUSH2 0x33A8 JUMP JUMPDEST DUP1 PUSH1 0x1 ADD SWAP1 POP PUSH2 0x17B8 JUMP JUMPDEST POP POP POP JUMP JUMPDEST PUSH2 0x17FD PUSH2 0x2D7C JUMP JUMPDEST PUSH1 0x0 PUSH20 0xFFFFFFFFFFFFFFFFFFFFFFFFFFFFFFFFFFFFFFFF AND DUP3 PUSH20 0xFFFFFFFFFFFFFFFFFFFFFFFFFFFFFFFFFFFFFFFF AND SUB PUSH2 0x186C JUMPI PUSH1 0x40 MLOAD PUSH32 0x8C379A000000000000000000000000000000000000000000000000000000000 DUP2 MSTORE PUSH1 0x4 ADD PUSH2 0x1863 SWAP1 PUSH2 0x448C JUMP JUMPDEST PUSH1 0x40 MLOAD DUP1 SWAP2 SUB SWAP1 REVERT JUMPDEST DUP1 PUSH1 0x11 PUSH1 0x0 DUP5 PUSH20 0xFFFFFFFFFFFFFFFFFFFFFFFFFFFFFFFFFFFFFFFF AND PUSH20 0xFFFFFFFFFFFFFFFFFFFFFFFFFFFFFFFFFFFFFFFF AND DUP2 MSTORE PUSH1 0x20 ADD SWAP1 DUP2 MSTORE PUSH1 0x20 ADD PUSH1 0x0 KECCAK256 PUSH1 0x0 PUSH2 0x100 EXP DUP2 SLOAD DUP2 PUSH1 0xFF MUL NOT AND SWAP1 DUP4 ISZERO ISZERO MUL OR SWAP1 SSTORE POP PUSH2 0x18CD DUP3 DUP3 PUSH2 0x3090 JUMP JUMPDEST PUSH2 0x18D7 DUP3 DUP3 PUSH2 0x33A8 JUMP JUMPDEST POP POP JUMP JUMPDEST PUSH2 0x18E3 PUSH2 0x2D7C JUMP JUMPDEST PUSH2 0x2710 DUP2 GT ISZERO PUSH2 0x1928 JUMPI PUSH1 0x40 MLOAD PUSH32 0x8C379A000000000000000000000000000000000000000000000000000000000 DUP2 MSTORE PUSH1 0x4 ADD PUSH2 0x191F SWAP1 PUSH2 0x451E JUMP JUMPDEST PUSH1 0x40 MLOAD DUP1 SWAP2 SUB SWAP1 REVERT JUMPDEST DUP1 PUSH1 0xD DUP2 SWAP1 SSTORE POP POP JUMP JUMPDEST PUSH2 0x193A PUSH2 0x2D7C JUMP JUMPDEST PUSH2 0x1942 PUSH2 0x3472 JUMP JUMPDEST JUMP JUMPDEST PUSH1 0x10 SLOAD DUP2 JUMP JUMPDEST PUSH1 0x0 PUSH2 0x1954 PUSH2 0x1979 JUMP JUMPDEST SWAP1 POP SWAP1 JUMP JUMPDEST PUSH1 0x13 PUSH1 0x20 MSTORE DUP1 PUSH1 0x0 MSTORE PUSH1 0x40 PUSH1 0x0 KECCAK256 PUSH1 0x0 SWAP2 POP SLOAD SWAP1 PUSH2 0x100 EXP SWAP1 DIV PUSH1 0xFF AND DUP2 JUMP JUMPDEST PUSH1 0x0 PUSH1 0x2 PUSH1 0x0 SWAP1 SLOAD SWAP1 PUSH2 0x100 EXP SWAP1 DIV PUSH20 0xFFFFFFFFFFFFFFFFFFFFFFFFFFFFFFFFFFFFFFFF AND SWAP1 POP SWAP1 JUMP JUMPDEST PUSH1 0x7 SLOAD DUP2 JUMP JUMPDEST PUSH1 0x14 PUSH1 0x20 MSTORE DUP1 PUSH1 0x0 MSTORE PUSH1 0x40 PUSH1 0x0 KECCAK256 PUSH1 0x0 SWAP2 POP SLOAD SWAP1 PUSH2 0x100 EXP SWAP1 DIV PUSH1 0xFF AND DUP2 JUMP JUMPDEST PUSH1 0x12 PUSH1 0x20 MSTORE DUP1 PUSH1 0x0 MSTORE PUSH1 0x40 PUSH1 0x0 KECCAK256 PUSH1 0x0 SWAP2 POP SLOAD SWAP1 PUSH2 0x100 EXP SWAP1 DIV PUSH1 0xFF AND DUP2 JUMP JUMPDEST PUSH1 0x4 DUP1 SLOAD PUSH2 0x19F6 SWAP1 PUSH2 0x4009 JUMP JUMPDEST DUP1 PUSH1 0x1F ADD PUSH1 0x20 DUP1 SWAP2 DIV MUL PUSH1 0x20 ADD PUSH1 0x40 MLOAD SWAP1 DUP2 ADD PUSH1 0x40 MSTORE DUP1 SWAP3 SWAP2 SWAP1 DUP2 DUP2 MSTORE PUSH1 0x20 ADD DUP3 DUP1 SLOAD PUSH2 0x1A22 SWAP1 PUSH2 0x4009 JUMP JUMPDEST DUP1 ISZERO PUSH2 0x1A6F JUMPI DUP1 PUSH1 0x1F LT PUSH2 0x1A44 JUMPI PUSH2 0x100 DUP1 DUP4 SLOAD DIV MUL DUP4 MSTORE SWAP2 PUSH1 0x20 ADD SWAP2 PUSH2 0x1A6F JUMP JUMPDEST DUP3 ADD SWAP2 SWAP1 PUSH1 0x0 MSTORE PUSH1 0x20 PUSH1 0x0 KECCAK256 SWAP1 JUMPDEST DUP2 SLOAD DUP2 MSTORE SWAP1 PUSH1 0x1 ADD SWAP1 PUSH1 0x20 ADD DUP1 DUP4 GT PUSH2 0x1A52 JUMPI DUP3 SWAP1 SUB PUSH1 0x1F AND DUP3 ADD SWAP2 JUMPDEST POP POP POP POP POP DUP2 JUMP JUMPDEST PUSH1 0x0 PUSH2 0x1A82 DUP3 PUSH2 0x3056 JUMP JUMPDEST SWAP1 POP SWAP2 SWAP1 POP JUMP JUMPDEST PUSH1 0x0 PUSH2 0x1B3E CALLER DUP5 PUSH2 0x1B39 DUP6 PUSH1 0x40 MLOAD DUP1 PUSH1 0x60 ADD PUSH1 0x40 MSTORE DUP1 PUSH1 0x25 DUP2 MSTORE PUSH1 0x20 ADD PUSH2 0x4C89 PUSH1 0x25 SWAP2 CODECOPY PUSH1 0x8 PUSH1 0x0 CALLER PUSH20 0xFFFFFFFFFFFFFFFFFFFFFFFFFFFFFFFFFFFFFFFF AND PUSH20 0xFFFFFFFFFFFFFFFFFFFFFFFFFFFFFFFFFFFFFFFF AND DUP2 MSTORE PUSH1 0x20 ADD SWAP1 DUP2 MSTORE PUSH1 0x20 ADD PUSH1 0x0 KECCAK256 PUSH1 0x0 DUP11 PUSH20 0xFFFFFFFFFFFFFFFFFFFFFFFFFFFFFFFFFFFFFFFF AND PUSH20 0xFFFFFFFFFFFFFFFFFFFFFFFFFFFFFFFFFFFFFFFF AND DUP2 MSTORE PUSH1 0x20 ADD SWAP1 DUP2 MSTORE PUSH1 0x20 ADD PUSH1 0x0 KECCAK256 SLOAD PUSH2 0x2CD7 SWAP1 SWAP3 SWAP2 SWAP1 PUSH4 0xFFFFFFFF AND JUMP JUMPDEST PUSH2 0x21FC JUMP JUMPDEST PUSH1 0x1 SWAP1 POP SWAP3 SWAP2 POP POP JUMP JUMPDEST PUSH1 0x0 PUSH2 0x1B55 CALLER DUP5 DUP5 PUSH2 0x23C5 JUMP JUMPDEST PUSH1 0x1 SWAP1 POP SWAP3 SWAP2 POP POP JUMP JUMPDEST PUSH2 0x2710 DUP2 JUMP JUMPDEST PUSH2 0x1B6D PUSH2 0x2D7C JUMP JUMPDEST PUSH2 0x1388 DUP2 GT ISZERO PUSH2 0x1BB2 JUMPI PUSH1 0x40 MLOAD PUSH32 0x8C379A000000000000000000000000000000000000000000000000000000000 DUP2 MSTORE PUSH1 0x4 ADD PUSH2 0x1BA9 SWAP1 PUSH2 0x451E JUMP JUMPDEST PUSH1 0x40 MLOAD DUP1 SWAP2 SUB SWAP1 REVERT JUMPDEST DUP1 PUSH1 0xC DUP2 SWAP1 SSTORE POP POP JUMP JUMPDEST PUSH1 0xE SLOAD DUP2 JUMP JUMPDEST PUSH1 0x0 PUSH1 0x8 PUSH1 0x0 DUP5 PUSH20 0xFFFFFFFFFFFFFFFFFFFFFFFFFFFFFFFFFFFFFFFF AND PUSH20 0xFFFFFFFFFFFFFFFFFFFFFFFFFFFFFFFFFFFFFFFF AND DUP2 MSTORE PUSH1 0x20 ADD SWAP1 DUP2 MSTORE PUSH1 0x20 ADD PUSH1 0x0 KECCAK256 PUSH1 0x0 DUP4 PUSH20 0xFFFFFFFFFFFFFFFFFFFFFFFFFFFFFFFFFFFFFFFF AND PUSH20 0xFFFFFFFFFFFFFFFFFFFFFFFFFFFFFFFFFFFFFFFF AND DUP2 MSTORE PUSH1 0x20 ADD SWAP1 DUP2 MSTORE PUSH1 0x20 ADD PUSH1 0x0 KECCAK256 SLOAD SWAP1 POP SWAP3 SWAP2 POP POP JUMP JUMPDEST PUSH2 0x1C51 PUSH2 0x2D7C JUMP JUMPDEST DUP1 PUSH1 0xF DUP2 SWAP1 SSTORE POP POP JUMP JUMPDEST PUSH10 0xD3C21BCECCEDA1000000 DUP2 JUMP JUMPDEST PUSH2 0x1C71 PUSH2 0x34D4 JUMP JUMPDEST PUSH2 0x1C79 PUSH2 0x2F60 JUMP JUMPDEST DUP1 MLOAD DUP3 MLOAD EQ PUSH2 0x1CBD JUMPI PUSH1 0x40 MLOAD PUSH32 0x8C379A000000000000000000000000000000000000000000000000000000000 DUP2 MSTORE PUSH1 0x4 ADD PUSH2 0x1CB4 SWAP1 PUSH2 0x458A JUMP JUMPDEST PUSH1 0x40 MLOAD DUP1 SWAP2 SUB SWAP1 REVERT JUMPDEST PUSH1 0x0 DUP1 JUMPDEST DUP3 MLOAD DUP2 LT ISZERO PUSH2 0x1CFD JUMPI DUP3 DUP2 DUP2 MLOAD DUP2 LT PUSH2 0x1CDD JUMPI PUSH2 0x1CDC PUSH2 0x42ED JUMP JUMPDEST JUMPDEST PUSH1 0x20 MUL PUSH1 0x20 ADD ADD MLOAD DUP3 PUSH2 0x1CF0 SWAP2 SWAP1 PUSH2 0x4069 JUMP JUMPDEST SWAP2 POP DUP1 PUSH1 0x1 ADD SWAP1 POP PUSH2 0x1CC1 JUMP JUMPDEST POP DUP1 PUSH2 0x1D08 CALLER PUSH2 0x1570 JUMP JUMPDEST LT ISZERO PUSH2 0x1D49 JUMPI PUSH1 0x40 MLOAD PUSH32 0x8C379A000000000000000000000000000000000000000000000000000000000 DUP2 MSTORE PUSH1 0x4 ADD PUSH2 0x1D40 SWAP1 PUSH2 0x45F6 JUMP JUMPDEST PUSH1 0x40 MLOAD DUP1 SWAP2 SUB SWAP1 REVERT JUMPDEST PUSH1 0x0 JUMPDEST DUP4 MLOAD DUP2 LT ISZERO PUSH2 0x2168 JUMPI DUP3 DUP2 DUP2 MLOAD DUP2 LT PUSH2 0x1D68 JUMPI PUSH2 0x1D67 PUSH2 0x42ED JUMP JUMPDEST JUMPDEST PUSH1 0x20 MUL PUSH1 0x20 ADD ADD MLOAD PUSH2 0x1D79 CALLER PUSH2 0x1570 JUMP JUMPDEST GT ISZERO PUSH2 0x215D JUMPI PUSH1 0x12 PUSH1 0x0 CALLER PUSH20 0xFFFFFFFFFFFFFFFFFFFFFFFFFFFFFFFFFFFFFFFF AND PUSH20 0xFFFFFFFFFFFFFFFFFFFFFFFFFFFFFFFFFFFFFFFF AND DUP2 MSTORE PUSH1 0x20 ADD SWAP1 DUP2 MSTORE PUSH1 0x20 ADD PUSH1 0x0 KECCAK256 PUSH1 0x0 SWAP1 SLOAD SWAP1 PUSH2 0x100 EXP SWAP1 DIV PUSH1 0xFF AND ISZERO PUSH2 0x1E81 JUMPI PUSH2 0x1DF4 DUP4 DUP3 DUP2 MLOAD DUP2 LT PUSH2 0x1DE7 JUMPI PUSH2 0x1DE6 PUSH2 0x42ED JUMP JUMPDEST JUMPDEST PUSH1 0x20 MUL PUSH1 0x20 ADD ADD MLOAD PUSH2 0x3016 JUMP JUMPDEST PUSH1 0x9 PUSH1 0x0 CALLER PUSH20 0xFFFFFFFFFFFFFFFFFFFFFFFFFFFFFFFFFFFFFFFF AND PUSH20 0xFFFFFFFFFFFFFFFFFFFFFFFFFFFFFFFFFFFFFFFF AND DUP2 MSTORE PUSH1 0x20 ADD SWAP1 DUP2 MSTORE PUSH1 0x20 ADD PUSH1 0x0 KECCAK256 PUSH1 0x0 DUP3 DUP3 SLOAD PUSH2 0x1E42 SWAP2 SWAP1 PUSH2 0x409D JUMP JUMPDEST SWAP3 POP POP DUP2 SWAP1 SSTORE POP DUP3 DUP2 DUP2 MLOAD DUP2 LT PUSH2 0x1E5C JUMPI PUSH2 0x1E5B PUSH2 0x42ED JUMP JUMPDEST JUMPDEST PUSH1 0x20 MUL PUSH1 0x20 ADD ADD MLOAD PUSH1 0x7 PUSH1 0x0 DUP3 DUP3 SLOAD PUSH2 0x1E75 SWAP2 SWAP1 PUSH2 0x409D JUMP JUMPDEST SWAP3 POP POP DUP2 SWAP1 SSTORE POP PUSH2 0x1EFA JUMP JUMPDEST PUSH2 0x1EA4 DUP4 DUP3 DUP2 MLOAD DUP2 LT PUSH2 0x1E97 JUMPI PUSH2 0x1E96 PUSH2 0x42ED JUMP JUMPDEST JUMPDEST PUSH1 0x20 MUL PUSH1 0x20 ADD ADD MLOAD PUSH2 0x3056 JUMP JUMPDEST PUSH1 0x9 PUSH1 0x0 CALLER PUSH20 0xFFFFFFFFFFFFFFFFFFFFFFFFFFFFFFFFFFFFFFFF AND PUSH20 0xFFFFFFFFFFFFFFFFFFFFFFFFFFFFFFFFFFFFFFFF AND DUP2 MSTORE PUSH1 0x20 ADD SWAP1 DUP2 MSTORE PUSH1 0x20 ADD PUSH1 0x0 KECCAK256 PUSH1 0x0 DUP3 DUP3 SLOAD PUSH2 0x1EF2 SWAP2 SWAP1 PUSH2 0x409D JUMP JUMPDEST SWAP3 POP POP DUP2 SWAP1 SSTORE POP JUMPDEST PUSH1 0x12 PUSH1 0x0 DUP6 DUP4 DUP2 MLOAD DUP2 LT PUSH2 0x1F11 JUMPI PUSH2 0x1F10 PUSH2 0x42ED JUMP JUMPDEST JUMPDEST PUSH1 0x20 MUL PUSH1 0x20 ADD ADD MLOAD PUSH20 0xFFFFFFFFFFFFFFFFFFFFFFFFFFFFFFFFFFFFFFFF AND PUSH20 0xFFFFFFFFFFFFFFFFFFFFFFFFFFFFFFFFFFFFFFFF AND DUP2 MSTORE PUSH1 0x20 ADD SWAP1 DUP2 MSTORE PUSH1 0x20 ADD PUSH1 0x0 KECCAK256 PUSH1 0x0 SWAP1 SLOAD SWAP1 PUSH2 0x100 EXP SWAP1 DIV PUSH1 0xFF AND ISZERO PUSH2 0x2030 JUMPI PUSH2 0x1F89 DUP4 DUP3 DUP2 MLOAD DUP2 LT PUSH2 0x1F7C JUMPI PUSH2 0x1F7B PUSH2 0x42ED JUMP JUMPDEST JUMPDEST PUSH1 0x20 MUL PUSH1 0x20 ADD ADD MLOAD PUSH2 0x3016 JUMP JUMPDEST PUSH1 0x9 PUSH1 0x0 DUP7 DUP5 DUP2 MLOAD DUP2 LT PUSH2 0x1FA0 JUMPI PUSH2 0x1F9F PUSH2 0x42ED JUMP JUMPDEST JUMPDEST PUSH1 0x20 MUL PUSH1 0x20 ADD ADD MLOAD PUSH20 0xFFFFFFFFFFFFFFFFFFFFFFFFFFFFFFFFFFFFFFFF AND PUSH20 0xFFFFFFFFFFFFFFFFFFFFFFFFFFFFFFFFFFFFFFFF AND DUP2 MSTORE PUSH1 0x20 ADD SWAP1 DUP2 MSTORE PUSH1 0x20 ADD PUSH1 0x0 KECCAK256 PUSH1 0x0 DUP3 DUP3 SLOAD PUSH2 0x1FF1 SWAP2 SWAP1 PUSH2 0x4069 JUMP JUMPDEST SWAP3 POP POP DUP2 SWAP1 SSTORE POP DUP3 DUP2 DUP2 MLOAD DUP2 LT PUSH2 0x200B JUMPI PUSH2 0x200A PUSH2 0x42ED JUMP JUMPDEST JUMPDEST PUSH1 0x20 MUL PUSH1 0x20 ADD ADD MLOAD PUSH1 0x7 PUSH1 0x0 DUP3 DUP3 SLOAD PUSH2 0x2024 SWAP2 SWAP1 PUSH2 0x4069 JUMP JUMPDEST SWAP3 POP POP DUP2 SWAP1 SSTORE POP PUSH2 0x20C3 JUMP JUMPDEST PUSH2 0x2053 DUP4 DUP3 DUP2 MLOAD DUP2 LT PUSH2 0x2046 JUMPI PUSH2 0x2045 PUSH2 0x42ED JUMP JUMPDEST JUMPDEST PUSH1 0x20 MUL PUSH1 0x20 ADD ADD MLOAD PUSH2 0x3056 JUMP JUMPDEST PUSH1 0x9 PUSH1 0x0 DUP7 DUP5 DUP2 MLOAD DUP2 LT PUSH2 0x206A JUMPI PUSH2 0x2069 PUSH2 0x42ED JUMP JUMPDEST JUMPDEST PUSH1 0x20 MUL PUSH1 0x20 ADD ADD MLOAD PUSH20 0xFFFFFFFFFFFFFFFFFFFFFFFFFFFFFFFFFFFFFFFF AND PUSH20 0xFFFFFFFFFFFFFFFFFFFFFFFFFFFFFFFFFFFFFFFF AND DUP2 MSTORE PUSH1 0x20 ADD SWAP1 DUP2 MSTORE PUSH1 0x20 ADD PUSH1 0x0 KECCAK256 PUSH1 0x0 DUP3 DUP3 SLOAD PUSH2 0x20BB SWAP2 SWAP1 PUSH2 0x4069 JUMP JUMPDEST SWAP3 POP POP DUP2 SWAP1 SSTORE POP JUMPDEST DUP4 DUP2 DUP2 MLOAD DUP2 LT PUSH2 0x20D6 JUMPI PUSH2 0x20D5 PUSH2 0x42ED JUMP JUMPDEST JUMPDEST PUSH1 0x20 MUL PUSH1 0x20 ADD ADD MLOAD PUSH20 0xFFFFFFFFFFFFFFFFFFFFFFFFFFFFFFFFFFFFFFFF AND CALLER PUSH20 0xFFFFFFFFFFFFFFFFFFFFFFFFFFFFFFFFFFFFFFFF AND PUSH32 0xDDF252AD1BE2C89B69C2B068FC378DAA952BA7F163C4A11628F55A4DF523B3EF DUP6 DUP5 DUP2 MLOAD DUP2 LT PUSH2 0x213F JUMPI PUSH2 0x213E PUSH2 0x42ED JUMP JUMPDEST JUMPDEST PUSH1 0x20 MUL PUSH1 0x20 ADD ADD MLOAD PUSH1 0x40 MLOAD PUSH2 0x2154 SWAP2 SWAP1 PUSH2 0x3A26 JUMP JUMPDEST PUSH1 0x40 MLOAD DUP1 SWAP2 SUB SWAP1 LOG3 JUMPDEST DUP1 PUSH1 0x1 ADD SWAP1 POP PUSH2 0x1D4C JUMP JUMPDEST POP POP PUSH2 0x2172 PUSH2 0x3523 JUMP JUMPDEST POP POP JUMP JUMPDEST PUSH2 0x217E PUSH2 0x2D7C JUMP JUMPDEST PUSH1 0x0 PUSH20 0xFFFFFFFFFFFFFFFFFFFFFFFFFFFFFFFFFFFFFFFF AND DUP2 PUSH20 0xFFFFFFFFFFFFFFFFFFFFFFFFFFFFFFFFFFFFFFFF AND SUB PUSH2 0x21F0 JUMPI PUSH1 0x0 PUSH1 0x40 MLOAD PUSH32 0x1E4FBDF700000000000000000000000000000000000000000000000000000000 DUP2 MSTORE PUSH1 0x4 ADD PUSH2 0x21E7 SWAP2 SWAP1 PUSH2 0x3BB9 JUMP JUMPDEST PUSH1 0x40 MLOAD DUP1 SWAP2 SUB SWAP1 REVERT JUMPDEST PUSH2 0x21F9 DUP2 PUSH2 0x32E2 JUMP JUMPDEST POP JUMP JUMPDEST PUSH1 0x0 PUSH20 0xFFFFFFFFFFFFFFFFFFFFFFFFFFFFFFFFFFFFFFFF AND DUP4 PUSH20 0xFFFFFFFFFFFFFFFFFFFFFFFFFFFFFFFFFFFFFFFF AND SUB PUSH2 0x226B JUMPI PUSH1 0x40 MLOAD PUSH32 0x8C379A000000000000000000000000000000000000000000000000000000000 DUP2 MSTORE PUSH1 0x4 ADD PUSH2 0x2262 SWAP1 PUSH2 0x4688 JUMP JUMPDEST PUSH1 0x40 MLOAD DUP1 SWAP2 SUB SWAP1 REVERT JUMPDEST PUSH1 0x0 PUSH20 0xFFFFFFFFFFFFFFFFFFFFFFFFFFFFFFFFFFFFFFFF AND DUP3 PUSH20 0xFFFFFFFFFFFFFFFFFFFFFFFFFFFFFFFFFFFFFFFF AND SUB PUSH2 0x22DA JUMPI PUSH1 0x40 MLOAD PUSH32 0x8C379A000000000000000000000000000000000000000000000000000000000 DUP2 MSTORE PUSH1 0x4 ADD PUSH2 0x22D1 SWAP1 PUSH2 0x471A JUMP JUMPDEST PUSH1 0x40 MLOAD DUP1 SWAP2 SUB SWAP1 REVERT JUMPDEST DUP1 PUSH1 0x8 PUSH1 0x0 DUP6 PUSH20 0xFFFFFFFFFFFFFFFFFFFFFFFFFFFFFFFFFFFFFFFF AND PUSH20 0xFFFFFFFFFFFFFFFFFFFFFFFFFFFFFFFFFFFFFFFF AND DUP2 MSTORE PUSH1 0x20 ADD SWAP1 DUP2 MSTORE PUSH1 0x20 ADD PUSH1 0x0 KECCAK256 PUSH1 0x0 DUP5 PUSH20 0xFFFFFFFFFFFFFFFFFFFFFFFFFFFFFFFFFFFFFFFF AND PUSH20 0xFFFFFFFFFFFFFFFFFFFFFFFFFFFFFFFFFFFFFFFF AND DUP2 MSTORE PUSH1 0x20 ADD SWAP1 DUP2 MSTORE PUSH1 0x20 ADD PUSH1 0x0 KECCAK256 DUP2 SWAP1 SSTORE POP DUP2 PUSH20 0xFFFFFFFFFFFFFFFFFFFFFFFFFFFFFFFFFFFFFFFF AND DUP4 PUSH20 0xFFFFFFFFFFFFFFFFFFFFFFFFFFFFFFFFFFFFFFFF AND PUSH32 0x8C5BE1E5EBEC7D5BD14F71427D1E84F3DD0314C0F7B2291E5B200AC8C7C3B925 DUP4 PUSH1 0x40 MLOAD PUSH2 0x23B8 SWAP2 SWAP1 PUSH2 0x3A26 JUMP JUMPDEST PUSH1 0x40 MLOAD DUP1 SWAP2 SUB SWAP1 LOG3 POP POP POP JUMP JUMPDEST PUSH2 0x23CD PUSH2 0x2F60 JUMP JUMPDEST PUSH1 0x0 PUSH20 0xFFFFFFFFFFFFFFFFFFFFFFFFFFFFFFFFFFFFFFFF AND DUP4 PUSH20 0xFFFFFFFFFFFFFFFFFFFFFFFFFFFFFFFFFFFFFFFF AND SUB PUSH2 0x243C JUMPI PUSH1 0x40 MLOAD PUSH32 0x8C379A000000000000000000000000000000000000000000000000000000000 DUP2 MSTORE PUSH1 0x4 ADD PUSH2 0x2433 SWAP1 PUSH2 0x47AC JUMP JUMPDEST PUSH1 0x40 MLOAD DUP1 SWAP2 SUB SWAP1 REVERT JUMPDEST PUSH1 0x0 PUSH20 0xFFFFFFFFFFFFFFFFFFFFFFFFFFFFFFFFFFFFFFFF AND DUP3 PUSH20 0xFFFFFFFFFFFFFFFFFFFFFFFFFFFFFFFFFFFFFFFF AND SUB PUSH2 0x24AB JUMPI PUSH1 0x40 MLOAD PUSH32 0x8C379A000000000000000000000000000000000000000000000000000000000 DUP2 MSTORE PUSH1 0x4 ADD PUSH2 0x24A2 SWAP1 PUSH2 0x483E JUMP JUMPDEST PUSH1 0x40 MLOAD DUP1 SWAP2 SUB SWAP1 REVERT JUMPDEST DUP1 PUSH2 0x24B5 DUP5 PUSH2 0x1570 JUMP JUMPDEST LT ISZERO PUSH2 0x24F6 JUMPI PUSH1 0x40 MLOAD PUSH32 0x8C379A000000000000000000000000000000000000000000000000000000000 DUP2 MSTORE PUSH1 0x4 ADD PUSH2 0x24ED SWAP1 PUSH2 0x48AA JUMP JUMPDEST PUSH1 0x40 MLOAD DUP1 SWAP2 SUB SWAP1 REVERT JUMPDEST PUSH1 0x10 SLOAD PUSH2 0x2502 DUP4 PUSH2 0x1570 JUMP JUMPDEST LT ISZERO DUP1 ISZERO PUSH2 0x255A JUMPI POP PUSH1 0x13 PUSH1 0x0 DUP4 PUSH20 0xFFFFFFFFFFFFFFFFFFFFFFFFFFFFFFFFFFFFFFFF AND PUSH20 0xFFFFFFFFFFFFFFFFFFFFFFFFFFFFFFFFFFFFFFFF AND DUP2 MSTORE PUSH1 0x20 ADD SWAP1 DUP2 MSTORE PUSH1 0x20 ADD PUSH1 0x0 KECCAK256 PUSH1 0x0 SWAP1 SLOAD SWAP1 PUSH2 0x100 EXP SWAP1 DIV PUSH1 0xFF AND ISZERO JUMPDEST ISZERO PUSH2 0x259A JUMPI PUSH1 0x40 MLOAD PUSH32 0x8C379A000000000000000000000000000000000000000000000000000000000 DUP2 MSTORE PUSH1 0x4 ADD PUSH2 0x2591 SWAP1 PUSH2 0x4916 JUMP JUMPDEST PUSH1 0x40 MLOAD DUP1 SWAP2 SUB SWAP1 REVERT JUMPDEST PUSH1 0x0 DUP2 SWAP1 POP PUSH1 0x13 PUSH1 0x0 DUP5 PUSH20 0xFFFFFFFFFFFFFFFFFFFFFFFFFFFFFFFFFFFFFFFF AND PUSH20 0xFFFFFFFFFFFFFFFFFFFFFFFFFFFFFFFFFFFFFFFF AND DUP2 MSTORE PUSH1 0x20 ADD SWAP1 DUP2 MSTORE PUSH1 0x20 ADD PUSH1 0x0 KECCAK256 PUSH1 0x0 SWAP1 SLOAD SWAP1 PUSH2 0x100 EXP SWAP1 DIV PUSH1 0xFF AND ISZERO DUP1 ISZERO PUSH2 0x260D JUMPI POP PUSH1 0x10 SLOAD DUP2 PUSH2 0x2601 DUP6 PUSH2 0x1570 JUMP JUMPDEST PUSH2 0x260B SWAP2 SWAP1 PUSH2 0x4069 JUMP JUMPDEST GT JUMPDEST ISZERO PUSH2 0x2641 JUMPI PUSH1 0x10 SLOAD DUP2 PUSH2 0x261F DUP6 PUSH2 0x1570 JUMP JUMPDEST PUSH2 0x2629 SWAP2 SWAP1 PUSH2 0x4069 JUMP JUMPDEST PUSH2 0x2633 SWAP2 SWAP1 PUSH2 0x409D JUMP JUMPDEST DUP2 PUSH2 0x263E SWAP2 SWAP1 PUSH2 0x409D JUMP JUMPDEST SWAP1 POP JUMPDEST PUSH1 0x0 PUSH2 0x264C DUP3 PUSH2 0x3056 JUMP JUMPDEST SWAP1 POP PUSH1 0x12 PUSH1 0x0 DUP7 PUSH20 0xFFFFFFFFFFFFFFFFFFFFFFFFFFFFFFFFFFFFFFFF AND PUSH20 0xFFFFFFFFFFFFFFFFFFFFFFFFFFFFFFFFFFFFFFFF AND DUP2 MSTORE PUSH1 0x20 ADD SWAP1 DUP2 MSTORE PUSH1 0x20 ADD PUSH1 0x0 KECCAK256 PUSH1 0x0 SWAP1 SLOAD SWAP1 PUSH2 0x100 EXP SWAP1 DIV PUSH1 0xFF AND ISZERO PUSH2 0x26AC JUMPI PUSH2 0x26A9 DUP3 PUSH2 0x3016 JUMP JUMPDEST SWAP1 POP JUMPDEST PUSH1 0x0 PUSH2 0x26B6 PUSH2 0x1979 JUMP JUMPDEST PUSH20 0xFFFFFFFFFFFFFFFFFFFFFFFFFFFFFFFFFFFFFFFF AND DUP7 PUSH20 0xFFFFFFFFFFFFFFFFFFFFFFFFFFFFFFFFFFFFFFFF AND EQ ISZERO DUP1 ISZERO PUSH2 0x273A JUMPI POP PUSH1 0x11 PUSH1 0x0 DUP7 PUSH20 0xFFFFFFFFFFFFFFFFFFFFFFFFFFFFFFFFFFFFFFFF AND PUSH20 0xFFFFFFFFFFFFFFFFFFFFFFFFFFFFFFFFFFFFFFFF AND DUP2 MSTORE PUSH1 0x20 ADD SWAP1 DUP2 MSTORE PUSH1 0x20 ADD PUSH1 0x0 KECCAK256 PUSH1 0x0 SWAP1 SLOAD SWAP1 PUSH2 0x100 EXP SWAP1 DIV PUSH1 0xFF AND JUMPDEST ISZERO PUSH2 0x275D JUMPI PUSH2 0x2710 PUSH1 0xC SLOAD DUP5 PUSH2 0x2750 SWAP2 SWAP1 PUSH2 0x4936 JUMP JUMPDEST PUSH2 0x275A SWAP2 SWAP1 PUSH2 0x49A7 JUMP JUMPDEST SWAP1 POP JUMPDEST PUSH1 0x0 DUP2 DUP5 PUSH2 0x276B SWAP2 SWAP1 PUSH2 0x409D JUMP JUMPDEST SWAP1 POP PUSH1 0x0 PUSH2 0x2778 DUP3 PUSH2 0x3056 JUMP JUMPDEST SWAP1 POP PUSH1 0x0 PUSH1 0x12 PUSH1 0x0 DUP10 PUSH20 0xFFFFFFFFFFFFFFFFFFFFFFFFFFFFFFFFFFFFFFFF AND PUSH20 0xFFFFFFFFFFFFFFFFFFFFFFFFFFFFFFFFFFFFFFFF AND DUP2 MSTORE PUSH1 0x20 ADD SWAP1 DUP2 MSTORE PUSH1 0x20 ADD PUSH1 0x0 KECCAK256 PUSH1 0x0 SWAP1 SLOAD SWAP1 PUSH2 0x100 EXP SWAP1 DIV PUSH1 0xFF AND PUSH2 0x27D3 JUMPI DUP2 PUSH2 0x27DD JUMP JUMPDEST PUSH2 0x27DC DUP4 PUSH2 0x3016 JUMP JUMPDEST JUMPDEST SWAP1 POP DUP5 PUSH1 0x9 PUSH1 0x0 DUP12 PUSH20 0xFFFFFFFFFFFFFFFFFFFFFFFFFFFFFFFFFFFFFFFF AND PUSH20 0xFFFFFFFFFFFFFFFFFFFFFFFFFFFFFFFFFFFFFFFF AND DUP2 MSTORE PUSH1 0x20 ADD SWAP1 DUP2 MSTORE PUSH1 0x20 ADD PUSH1 0x0 KECCAK256 PUSH1 0x0 DUP3 DUP3 SLOAD PUSH2 0x282E SWAP2 SWAP1 PUSH2 0x409D JUMP JUMPDEST SWAP3 POP POP DUP2 SWAP1 SSTORE POP PUSH1 0x12 PUSH1 0x0 DUP10 PUSH20 0xFFFFFFFFFFFFFFFFFFFFFFFFFFFFFFFFFFFFFFFF AND PUSH20 0xFFFFFFFFFFFFFFFFFFFFFFFFFFFFFFFFFFFFFFFF AND DUP2 MSTORE PUSH1 0x20 ADD SWAP1 DUP2 MSTORE PUSH1 0x20 ADD PUSH1 0x0 KECCAK256 PUSH1 0x0 SWAP1 SLOAD SWAP1 PUSH2 0x100 EXP SWAP1 DIV PUSH1 0xFF AND ISZERO PUSH2 0x28E2 JUMPI DUP1 PUSH1 0x9 PUSH1 0x0 DUP11 PUSH20 0xFFFFFFFFFFFFFFFFFFFFFFFFFFFFFFFFFFFFFFFF AND PUSH20 0xFFFFFFFFFFFFFFFFFFFFFFFFFFFFFFFFFFFFFFFF AND DUP2 MSTORE PUSH1 0x20 ADD SWAP1 DUP2 MSTORE PUSH1 0x20 ADD PUSH1 0x0 KECCAK256 PUSH1 0x0 DUP3 DUP3 SLOAD PUSH2 0x28D6 SWAP2 SWAP1 PUSH2 0x4069 JUMP JUMPDEST SWAP3 POP POP DUP2 SWAP1 SSTORE POP PUSH2 0x2939 JUMP JUMPDEST DUP2 PUSH1 0x9 PUSH1 0x0 DUP11 PUSH20 0xFFFFFFFFFFFFFFFFFFFFFFFFFFFFFFFFFFFFFFFF AND PUSH20 0xFFFFFFFFFFFFFFFFFFFFFFFFFFFFFFFFFFFFFFFF AND DUP2 MSTORE PUSH1 0x20 ADD SWAP1 DUP2 MSTORE PUSH1 0x20 ADD PUSH1 0x0 KECCAK256 PUSH1 0x0 DUP3 DUP3 SLOAD PUSH2 0x2931 SWAP2 SWAP1 PUSH2 0x4069 JUMP JUMPDEST SWAP3 POP POP DUP2 SWAP1 SSTORE POP JUMPDEST DUP4 PUSH1 0xA PUSH1 0x0 DUP3 DUP3 SLOAD PUSH2 0x294B SWAP2 SWAP1 PUSH2 0x4069 JUMP JUMPDEST SWAP3 POP POP DUP2 SWAP1 SSTORE POP DUP4 PUSH1 0x6 PUSH1 0x0 DUP3 DUP3 SLOAD PUSH2 0x2964 SWAP2 SWAP1 PUSH2 0x409D JUMP JUMPDEST SWAP3 POP POP DUP2 SWAP1 SSTORE POP DUP8 PUSH20 0xFFFFFFFFFFFFFFFFFFFFFFFFFFFFFFFFFFFFFFFF AND DUP10 PUSH20 0xFFFFFFFFFFFFFFFFFFFFFFFFFFFFFFFFFFFFFFFF AND PUSH32 0xDDF252AD1BE2C89B69C2B068FC378DAA952BA7F163C4A11628F55A4DF523B3EF DUP6 PUSH1 0x40 MLOAD PUSH2 0x29C8 SWAP2 SWAP1 PUSH2 0x3A26 JUMP JUMPDEST PUSH1 0x40 MLOAD DUP1 SWAP2 SUB SWAP1 LOG3 PUSH1 0x0 DUP5 GT ISZERO PUSH2 0x2A61 JUMPI PUSH1 0xB PUSH1 0x0 SWAP1 SLOAD SWAP1 PUSH2 0x100 EXP SWAP1 DIV PUSH20 0xFFFFFFFFFFFFFFFFFFFFFFFFFFFFFFFFFFFFFFFF AND PUSH20 0xFFFFFFFFFFFFFFFFFFFFFFFFFFFFFFFFFFFFFFFF AND DUP10 PUSH20 0xFFFFFFFFFFFFFFFFFFFFFFFFFFFFFFFFFFFFFFFF AND PUSH32 0xDDF252AD1BE2C89B69C2B068FC378DAA952BA7F163C4A11628F55A4DF523B3EF DUP7 PUSH1 0x40 MLOAD PUSH2 0x2A58 SWAP2 SWAP1 PUSH2 0x3A26 JUMP JUMPDEST PUSH1 0x40 MLOAD DUP1 SWAP2 SUB SWAP1 LOG3 JUMPDEST PUSH1 0x12 PUSH1 0x0 DUP11 PUSH20 0xFFFFFFFFFFFFFFFFFFFFFFFFFFFFFFFFFFFFFFFF AND PUSH20 0xFFFFFFFFFFFFFFFFFFFFFFFFFFFFFFFFFFFFFFFF AND DUP2 MSTORE PUSH1 0x20 ADD SWAP1 DUP2 MSTORE PUSH1 0x20 ADD PUSH1 0x0 KECCAK256 PUSH1 0x0 SWAP1 SLOAD SWAP1 PUSH2 0x100 EXP SWAP1 DIV PUSH1 0xFF AND ISZERO DUP1 ISZERO PUSH2 0x2B04 JUMPI POP PUSH1 0x12 PUSH1 0x0 DUP10 PUSH20 0xFFFFFFFFFFFFFFFFFFFFFFFFFFFFFFFFFFFFFFFF AND PUSH20 0xFFFFFFFFFFFFFFFFFFFFFFFFFFFFFFFFFFFFFFFF AND DUP2 MSTORE PUSH1 0x20 ADD SWAP1 DUP2 MSTORE PUSH1 0x20 ADD PUSH1 0x0 KECCAK256 PUSH1 0x0 SWAP1 SLOAD SWAP1 PUSH2 0x100 EXP SWAP1 DIV PUSH1 0xFF AND JUMPDEST ISZERO PUSH2 0x2B27 JUMPI DUP3 PUSH1 0x7 PUSH1 0x0 DUP3 DUP3 SLOAD PUSH2 0x2B1B SWAP2 SWAP1 PUSH2 0x4069 JUMP JUMPDEST SWAP3 POP POP DUP2 SWAP1 SSTORE POP PUSH2 0x2C92 JUMP JUMPDEST PUSH1 0x12 PUSH1 0x0 DUP11 PUSH20 0xFFFFFFFFFFFFFFFFFFFFFFFFFFFFFFFFFFFFFFFF AND PUSH20 0xFFFFFFFFFFFFFFFFFFFFFFFFFFFFFFFFFFFFFFFF AND DUP2 MSTORE PUSH1 0x20 ADD SWAP1 DUP2 MSTORE PUSH1 0x20 ADD PUSH1 0x0 KECCAK256 PUSH1 0x0 SWAP1 SLOAD SWAP1 PUSH2 0x100 EXP SWAP1 DIV PUSH1 0xFF AND DUP1 ISZERO PUSH2 0x2BCA JUMPI POP PUSH1 0x12 PUSH1 0x0 DUP10 PUSH20 0xFFFFFFFFFFFFFFFFFFFFFFFFFFFFFFFFFFFFFFFF AND PUSH20 0xFFFFFFFFFFFFFFFFFFFFFFFFFFFFFFFFFFFFFFFF AND DUP2 MSTORE PUSH1 0x20 ADD SWAP1 DUP2 MSTORE PUSH1 0x20 ADD PUSH1 0x0 KECCAK256 PUSH1 0x0 SWAP1 SLOAD SWAP1 PUSH2 0x100 EXP SWAP1 DIV PUSH1 0xFF AND ISZERO JUMPDEST ISZERO PUSH2 0x2BED JUMPI DUP3 PUSH1 0x7 PUSH1 0x0 DUP3 DUP3 SLOAD PUSH2 0x2BE1 SWAP2 SWAP1 PUSH2 0x409D JUMP JUMPDEST SWAP3 POP POP DUP2 SWAP1 SSTORE POP PUSH2 0x2C91 JUMP JUMPDEST PUSH1 0x12 PUSH1 0x0 DUP11 PUSH20 0xFFFFFFFFFFFFFFFFFFFFFFFFFFFFFFFFFFFFFFFF AND PUSH20 0xFFFFFFFFFFFFFFFFFFFFFFFFFFFFFFFFFFFFFFFF AND DUP2 MSTORE PUSH1 0x20 ADD SWAP1 DUP2 MSTORE PUSH1 0x20 ADD PUSH1 0x0 KECCAK256 PUSH1 0x0 SWAP1 SLOAD SWAP1 PUSH2 0x100 EXP SWAP1 DIV PUSH1 0xFF AND DUP1 ISZERO PUSH2 0x2C8F JUMPI POP PUSH1 0x12 PUSH1 0x0 DUP10 PUSH20 0xFFFFFFFFFFFFFFFFFFFFFFFFFFFFFFFFFFFFFFFF AND PUSH20 0xFFFFFFFFFFFFFFFFFFFFFFFFFFFFFFFFFFFFFFFF AND DUP2 MSTORE PUSH1 0x20 ADD SWAP1 DUP2 MSTORE PUSH1 0x20 ADD PUSH1 0x0 KECCAK256 PUSH1 0x0 SWAP1 SLOAD SWAP1 PUSH2 0x100 EXP SWAP1 DIV PUSH1 0xFF AND JUMPDEST POP JUMPDEST JUMPDEST PUSH1 0x0 PUSH1 0xA SLOAD GT ISZERO PUSH2 0x2CCC JUMPI PUSH2 0x2CCB PUSH1 0xA SLOAD PUSH1 0xB PUSH1 0x0 SWAP1 SLOAD SWAP1 PUSH2 0x100 EXP SWAP1 DIV PUSH20 0xFFFFFFFFFFFFFFFFFFFFFFFFFFFFFFFFFFFFFFFF AND PUSH2 0x2FAA JUMP JUMPDEST JUMPDEST POP POP POP POP POP POP POP POP POP JUMP JUMPDEST PUSH1 0x0 DUP4 DUP4 GT ISZERO DUP3 SWAP1 PUSH2 0x2D1F JUMPI PUSH1 0x40 MLOAD PUSH32 0x8C379A000000000000000000000000000000000000000000000000000000000 DUP2 MSTORE PUSH1 0x4 ADD PUSH2 0x2D16 SWAP2 SWAP1 PUSH2 0x38AA JUMP JUMPDEST PUSH1 0x40 MLOAD DUP1 SWAP2 SUB SWAP1 REVERT JUMPDEST POP DUP3 DUP5 SUB SWAP1 POP SWAP4 SWAP3 POP POP POP JUMP JUMPDEST PUSH1 0x0 PUSH2 0x2D5F PUSH10 0xD3C21BCECCEDA1000000 PUSH2 0x2D51 PUSH1 0xE SLOAD DUP6 PUSH2 0x352C SWAP1 SWAP2 SWAP1 PUSH4 0xFFFFFFFF AND JUMP JUMPDEST PUSH2 0x3542 SWAP1 SWAP2 SWAP1 PUSH4 0xFFFFFFFF AND JUMP JUMPDEST SWAP1 POP SWAP2 SWAP1 POP JUMP JUMPDEST PUSH1 0x0 DUP2 DUP4 PUSH2 0x2D74 SWAP2 SWAP1 PUSH2 0x4069 JUMP JUMPDEST SWAP1 POP SWAP3 SWAP2 POP POP JUMP JUMPDEST PUSH2 0x2D84 PUSH2 0x3558 JUMP JUMPDEST PUSH20 0xFFFFFFFFFFFFFFFFFFFFFFFFFFFFFFFFFFFFFFFF AND PUSH2 0x2DA2 PUSH2 0x1979 JUMP JUMPDEST PUSH20 0xFFFFFFFFFFFFFFFFFFFFFFFFFFFFFFFFFFFFFFFF AND EQ PUSH2 0x2E01 JUMPI PUSH2 0x2DC5 PUSH2 0x3558 JUMP JUMPDEST PUSH1 0x40 MLOAD PUSH32 0x118CDAA700000000000000000000000000000000000000000000000000000000 DUP2 MSTORE PUSH1 0x4 ADD PUSH2 0x2DF8 SWAP2 SWAP1 PUSH2 0x3BB9 JUMP JUMPDEST PUSH1 0x40 MLOAD DUP1 SWAP2 SUB SWAP1 REVERT JUMPDEST JUMP JUMPDEST PUSH2 0x2E0B PUSH2 0x3560 JUMP JUMPDEST PUSH1 0x0 DUP1 PUSH1 0x0 PUSH2 0x100 EXP DUP2 SLOAD DUP2 PUSH1 0xFF MUL NOT AND SWAP1 DUP4 ISZERO ISZERO MUL OR SWAP1 SSTORE POP PUSH32 0x5DB9EE0A495BF2E6FF9C91A7834C1BA4FDD244A5E8AA4E537BD38AEAE4B073AA PUSH2 0x2E4E PUSH2 0x3558 JUMP JUMPDEST PUSH1 0x40 MLOAD PUSH2 0x2E5B SWAP2 SWAP1 PUSH2 0x3BB9 JUMP JUMPDEST PUSH1 0x40 MLOAD DUP1 SWAP2 SUB SWAP1 LOG1 JUMP JUMPDEST PUSH2 0x2E6D PUSH2 0x2F60 JUMP JUMPDEST PUSH1 0x0 PUSH2 0x2710 PUSH8 0xDE0B6B3A7640000 PUSH1 0xD SLOAD PUSH2 0x2E88 SWAP2 SWAP1 PUSH2 0x4936 JUMP JUMPDEST PUSH2 0x2E92 SWAP2 SWAP1 PUSH2 0x49A7 JUMP JUMPDEST SWAP1 POP PUSH1 0x0 PUSH1 0x7 SLOAD PUSH1 0x6 SLOAD PUSH2 0x2EA6 SWAP2 SWAP1 PUSH2 0x409D JUMP JUMPDEST SWAP1 POP PUSH8 0xDE0B6B3A7640000 DUP3 PUSH8 0xDE0B6B3A7640000 PUSH2 0x2EC5 SWAP2 SWAP1 PUSH2 0x409D JUMP JUMPDEST PUSH1 0xE SLOAD PUSH2 0x2ED2 SWAP2 SWAP1 PUSH2 0x4936 JUMP JUMPDEST PUSH2 0x2EDC SWAP2 SWAP1 PUSH2 0x49A7 JUMP JUMPDEST PUSH1 0xE DUP2 SWAP1 SSTORE POP PUSH1 0x0 PUSH8 0xDE0B6B3A7640000 DUP4 PUSH8 0xDE0B6B3A7640000 PUSH2 0x2F01 SWAP2 SWAP1 PUSH2 0x409D JUMP JUMPDEST DUP4 PUSH2 0x2F0C SWAP2 SWAP1 PUSH2 0x4936 JUMP JUMPDEST PUSH2 0x2F16 SWAP2 SWAP1 PUSH2 0x49A7 JUMP JUMPDEST SWAP1 POP PUSH1 0x0 DUP2 DUP4 PUSH2 0x2F26 SWAP2 SWAP1 PUSH2 0x409D JUMP JUMPDEST SWAP1 POP DUP1 PUSH1 0xA PUSH1 0x0 DUP3 DUP3 SLOAD PUSH2 0x2F3A SWAP2 SWAP1 PUSH2 0x4069 JUMP JUMPDEST SWAP3 POP POP DUP2 SWAP1 SSTORE POP DUP1 PUSH1 0x6 PUSH1 0x0 DUP3 DUP3 SLOAD PUSH2 0x2F53 SWAP2 SWAP1 PUSH2 0x409D JUMP JUMPDEST SWAP3 POP POP DUP2 SWAP1 SSTORE POP POP POP POP POP JUMP JUMPDEST PUSH2 0x2F68 PUSH2 0xFA8 JUMP JUMPDEST ISZERO PUSH2 0x2FA8 JUMPI PUSH1 0x40 MLOAD PUSH32 0x8C379A000000000000000000000000000000000000000000000000000000000 DUP2 MSTORE PUSH1 0x4 ADD PUSH2 0x2F9F SWAP1 PUSH2 0x4A24 JUMP JUMPDEST PUSH1 0x40 MLOAD DUP1 SWAP2 SUB SWAP1 REVERT JUMPDEST JUMP JUMPDEST DUP2 PUSH1 0xA SLOAD LT ISZERO PUSH2 0x2FEF JUMPI PUSH1 0x40 MLOAD PUSH32 0x8C379A000000000000000000000000000000000000000000000000000000000 DUP2 MSTORE PUSH1 0x4 ADD PUSH2 0x2FE6 SWAP1 PUSH2 0x4A90 JUMP JUMPDEST PUSH1 0x40 MLOAD DUP1 SWAP2 SUB SWAP1 REVERT JUMPDEST DUP2 PUSH1 0xA PUSH1 0x0 DUP3 DUP3 SLOAD PUSH2 0x3001 SWAP2 SWAP1 PUSH2 0x409D JUMP JUMPDEST SWAP3 POP POP DUP2 SWAP1 SSTORE POP PUSH2 0x3012 DUP2 DUP4 PUSH2 0x35A9 JUMP JUMPDEST POP POP JUMP JUMPDEST PUSH1 0x0 PUSH2 0x304F PUSH8 0xDE0B6B3A7640000 PUSH2 0x3041 PUSH10 0xD3C21BCECCEDA1000000 DUP6 PUSH2 0x352C SWAP1 SWAP2 SWAP1 PUSH4 0xFFFFFFFF AND JUMP JUMPDEST PUSH2 0x3542 SWAP1 SWAP2 SWAP1 PUSH4 0xFFFFFFFF AND JUMP JUMPDEST SWAP1 POP SWAP2 SWAP1 POP JUMP JUMPDEST PUSH1 0x0 PUSH2 0x3089 PUSH1 0xE SLOAD PUSH2 0x307B PUSH10 0xD3C21BCECCEDA1000000 DUP6 PUSH2 0x352C SWAP1 SWAP2 SWAP1 PUSH4 0xFFFFFFFF AND JUMP JUMPDEST PUSH2 0x3542 SWAP1 SWAP2 SWAP1 PUSH4 0xFFFFFFFF AND JUMP JUMPDEST SWAP1 POP SWAP2 SWAP1 POP JUMP JUMPDEST PUSH1 0x0 PUSH20 0xFFFFFFFFFFFFFFFFFFFFFFFFFFFFFFFFFFFFFFFF AND DUP3 PUSH20 0xFFFFFFFFFFFFFFFFFFFFFFFFFFFFFFFFFFFFFFFF AND SUB PUSH2 0x30FF JUMPI PUSH1 0x40 MLOAD PUSH32 0x8C379A000000000000000000000000000000000000000000000000000000000 DUP2 MSTORE PUSH1 0x4 ADD PUSH2 0x30F6 SWAP1 PUSH2 0x4AFC JUMP JUMPDEST PUSH1 0x40 MLOAD DUP1 SWAP2 SUB SWAP1 REVERT JUMPDEST PUSH1 0x0 PUSH1 0x12 PUSH1 0x0 DUP5 PUSH20 0xFFFFFFFFFFFFFFFFFFFFFFFFFFFFFFFFFFFFFFFF AND PUSH20 0xFFFFFFFFFFFFFFFFFFFFFFFFFFFFFFFFFFFFFFFF AND DUP2 MSTORE PUSH1 0x20 ADD SWAP1 DUP2 MSTORE PUSH1 0x20 ADD PUSH1 0x0 KECCAK256 PUSH1 0x0 SWAP1 SLOAD SWAP1 PUSH2 0x100 EXP SWAP1 DIV PUSH1 0xFF AND SWAP1 POP PUSH1 0x0 PUSH2 0x315B DUP5 PUSH2 0x1570 JUMP JUMPDEST SWAP1 POP DUP3 ISZERO ISZERO DUP3 ISZERO ISZERO EQ PUSH2 0x3219 JUMPI DUP3 PUSH1 0x12 PUSH1 0x0 DUP7 PUSH20 0xFFFFFFFFFFFFFFFFFFFFFFFFFFFFFFFFFFFFFFFF AND PUSH20 0xFFFFFFFFFFFFFFFFFFFFFFFFFFFFFFFFFFFFFFFF AND DUP2 MSTORE PUSH1 0x20 ADD SWAP1 DUP2 MSTORE PUSH1 0x20 ADD PUSH1 0x0 KECCAK256 PUSH1 0x0 PUSH2 0x100 EXP DUP2 SLOAD DUP2 PUSH1 0xFF MUL NOT AND SWAP1 DUP4 ISZERO ISZERO MUL OR SWAP1 SSTORE POP DUP2 ISZERO DUP1 ISZERO PUSH2 0x31CA JUMPI POP DUP3 JUMPDEST ISZERO PUSH2 0x31ED JUMPI DUP1 PUSH1 0x7 PUSH1 0x0 DUP3 DUP3 SLOAD PUSH2 0x31E1 SWAP2 SWAP1 PUSH2 0x4069 JUMP JUMPDEST SWAP3 POP POP DUP2 SWAP1 SSTORE POP PUSH2 0x3218 JUMP JUMPDEST DUP2 DUP1 ISZERO PUSH2 0x31F8 JUMPI POP DUP3 ISZERO JUMPDEST ISZERO PUSH2 0x3217 JUMPI DUP1 PUSH1 0x7 PUSH1 0x0 DUP3 DUP3 SLOAD PUSH2 0x320F SWAP2 SWAP1 PUSH2 0x409D JUMP JUMPDEST SWAP3 POP POP DUP2 SWAP1 SSTORE POP JUMPDEST JUMPDEST JUMPDEST POP POP POP POP JUMP JUMPDEST PUSH1 0x0 DUP1 PUSH2 0x328C PUSH1 0x9 PUSH1 0x0 PUSH1 0xB PUSH1 0x0 SWAP1 SLOAD SWAP1 PUSH2 0x100 EXP SWAP1 DIV PUSH20 0xFFFFFFFFFFFFFFFFFFFFFFFFFFFFFFFFFFFFFFFF AND PUSH20 0xFFFFFFFFFFFFFFFFFFFFFFFFFFFFFFFFFFFFFFFF AND PUSH20 0xFFFFFFFFFFFFFFFFFFFFFFFFFFFFFFFFFFFFFFFF AND DUP2 MSTORE PUSH1 0x20 ADD SWAP1 DUP2 MSTORE PUSH1 0x20 ADD PUSH1 0x0 KECCAK256 SLOAD PUSH2 0x32A2 JUMP JUMPDEST SWAP1 POP DUP1 PUSH1 0xA SLOAD PUSH2 0x329C SWAP2 SWAP1 PUSH2 0x4069 JUMP JUMPDEST SWAP2 POP POP SWAP1 JUMP JUMPDEST PUSH1 0x0 PUSH2 0x32DB PUSH10 0xD3C21BCECCEDA1000000 PUSH2 0x32CD PUSH8 0xDE0B6B3A7640000 DUP6 PUSH2 0x352C SWAP1 SWAP2 SWAP1 PUSH4 0xFFFFFFFF AND JUMP JUMPDEST PUSH2 0x3542 SWAP1 SWAP2 SWAP1 PUSH4 0xFFFFFFFF AND JUMP JUMPDEST SWAP1 POP SWAP2 SWAP1 POP JUMP JUMPDEST PUSH1 0x0 PUSH1 0x2 PUSH1 0x0 SWAP1 SLOAD SWAP1 PUSH2 0x100 EXP SWAP1 DIV PUSH20 0xFFFFFFFFFFFFFFFFFFFFFFFFFFFFFFFFFFFFFFFF AND SWAP1 POP DUP2 PUSH1 0x2 PUSH1 0x0 PUSH2 0x100 EXP DUP2 SLOAD DUP2 PUSH20 0xFFFFFFFFFFFFFFFFFFFFFFFFFFFFFFFFFFFFFFFF MUL NOT AND SWAP1 DUP4 PUSH20 0xFFFFFFFFFFFFFFFFFFFFFFFFFFFFFFFFFFFFFFFF AND MUL OR SWAP1 SSTORE POP DUP2 PUSH20 0xFFFFFFFFFFFFFFFFFFFFFFFFFFFFFFFFFFFFFFFF AND DUP2 PUSH20 0xFFFFFFFFFFFFFFFFFFFFFFFFFFFFFFFFFFFFFFFF AND PUSH32 0x8BE0079C531659141344CD1FD0A4F28419497F9722A3DAAFE3B4186F6B6457E0 PUSH1 0x40 MLOAD PUSH1 0x40 MLOAD DUP1 SWAP2 SUB SWAP1 LOG3 POP POP JUMP JUMPDEST PUSH1 0x0 PUSH20 0xFFFFFFFFFFFFFFFFFFFFFFFFFFFFFFFFFFFFFFFF AND DUP3 PUSH20 0xFFFFFFFFFFFFFFFFFFFFFFFFFFFFFFFFFFFFFFFF AND SUB PUSH2 0x3417 JUMPI PUSH1 0x40 MLOAD PUSH32 0x8C379A000000000000000000000000000000000000000000000000000000000 DUP2 MSTORE PUSH1 0x4 ADD PUSH2 0x340E SWAP1 PUSH2 0x4AFC JUMP JUMPDEST PUSH1 0x40 MLOAD DUP1 SWAP2 SUB SWAP1 REVERT JUMPDEST DUP1 PUSH1 0x13 PUSH1 0x0 DUP5 PUSH20 0xFFFFFFFFFFFFFFFFFFFFFFFFFFFFFFFFFFFFFFFF AND PUSH20 0xFFFFFFFFFFFFFFFFFFFFFFFFFFFFFFFFFFFFFFFF AND DUP2 MSTORE PUSH1 0x20 ADD SWAP1 DUP2 MSTORE PUSH1 0x20 ADD PUSH1 0x0 KECCAK256 PUSH1 0x0 PUSH2 0x100 EXP DUP2 SLOAD DUP2 PUSH1 0xFF MUL NOT AND SWAP1 DUP4 ISZERO ISZERO MUL OR SWAP1 SSTORE POP POP POP JUMP JUMPDEST PUSH2 0x347A PUSH2 0x2F60 JUMP JUMPDEST PUSH1 0x1 PUSH1 0x0 DUP1 PUSH2 0x100 EXP DUP2 SLOAD DUP2 PUSH1 0xFF MUL NOT AND SWAP1 DUP4 ISZERO ISZERO MUL OR SWAP1 SSTORE POP PUSH32 0x62E78CEA01BEE320CD4E420270B5EA74000D11B0C9F74754EBDBFC544B05A258 PUSH2 0x34BD PUSH2 0x3558 JUMP JUMPDEST PUSH1 0x40 MLOAD PUSH2 0x34CA SWAP2 SWAP1 PUSH2 0x3BB9 JUMP JUMPDEST PUSH1 0x40 MLOAD DUP1 SWAP2 SUB SWAP1 LOG1 JUMP JUMPDEST PUSH1 0x2 PUSH1 0x1 SLOAD SUB PUSH2 0x3519 JUMPI PUSH1 0x40 MLOAD PUSH32 0x8C379A000000000000000000000000000000000000000000000000000000000 DUP2 MSTORE PUSH1 0x4 ADD PUSH2 0x3510 SWAP1 PUSH2 0x4B68 JUMP JUMPDEST PUSH1 0x40 MLOAD DUP1 SWAP2 SUB SWAP1 REVERT JUMPDEST PUSH1 0x2 PUSH1 0x1 DUP2 SWAP1 SSTORE POP JUMP JUMPDEST PUSH1 0x1 DUP1 DUP2 SWAP1 SSTORE POP JUMP JUMPDEST PUSH1 0x0 DUP2 DUP4 PUSH2 0x353A SWAP2 SWAP1 PUSH2 0x4936 JUMP JUMPDEST SWAP1 POP SWAP3 SWAP2 POP POP JUMP JUMPDEST PUSH1 0x0 DUP2 DUP4 PUSH2 0x3550 SWAP2 SWAP1 PUSH2 0x49A7 JUMP JUMPDEST SWAP1 POP SWAP3 SWAP2 POP POP JUMP JUMPDEST PUSH1 0x0 CALLER SWAP1 POP SWAP1 JUMP JUMPDEST PUSH2 0x3568 PUSH2 0xFA8 JUMP JUMPDEST PUSH2 0x35A7 JUMPI PUSH1 0x40 MLOAD PUSH32 0x8C379A000000000000000000000000000000000000000000000000000000000 DUP2 MSTORE PUSH1 0x4 ADD PUSH2 0x359E SWAP1 PUSH2 0x4BD4 JUMP JUMPDEST PUSH1 0x40 MLOAD DUP1 SWAP2 SUB SWAP1 REVERT JUMPDEST JUMP JUMPDEST PUSH1 0x0 PUSH20 0xFFFFFFFFFFFFFFFFFFFFFFFFFFFFFFFFFFFFFFFF AND DUP3 PUSH20 0xFFFFFFFFFFFFFFFFFFFFFFFFFFFFFFFFFFFFFFFF AND SUB PUSH2 0x3618 JUMPI PUSH1 0x40 MLOAD PUSH32 0x8C379A000000000000000000000000000000000000000000000000000000000 DUP2 MSTORE PUSH1 0x4 ADD PUSH2 0x360F SWAP1 PUSH2 0x4C40 JUMP JUMPDEST PUSH1 0x40 MLOAD DUP1 SWAP2 SUB SWAP1 REVERT JUMPDEST DUP1 PUSH1 0x6 PUSH1 0x0 DUP3 DUP3 SLOAD PUSH2 0x362A SWAP2 SWAP1 PUSH2 0x4069 JUMP JUMPDEST SWAP3 POP POP DUP2 SWAP1 SSTORE POP PUSH1 0x0 PUSH2 0x363C DUP3 PUSH2 0x3056 JUMP JUMPDEST SWAP1 POP PUSH1 0x12 PUSH1 0x0 DUP5 PUSH20 0xFFFFFFFFFFFFFFFFFFFFFFFFFFFFFFFFFFFFFFFF AND PUSH20 0xFFFFFFFFFFFFFFFFFFFFFFFFFFFFFFFFFFFFFFFF AND DUP2 MSTORE PUSH1 0x20 ADD SWAP1 DUP2 MSTORE PUSH1 0x20 ADD PUSH1 0x0 KECCAK256 PUSH1 0x0 SWAP1 SLOAD SWAP1 PUSH2 0x100 EXP SWAP1 DIV PUSH1 0xFF AND ISZERO PUSH2 0x36B5 JUMPI DUP2 PUSH1 0x7 PUSH1 0x0 DUP3 DUP3 SLOAD PUSH2 0x36A2 SWAP2 SWAP1 PUSH2 0x4069 JUMP JUMPDEST SWAP3 POP POP DUP2 SWAP1 SSTORE POP PUSH2 0x36B2 DUP3 PUSH2 0x3016 JUMP JUMPDEST SWAP1 POP JUMPDEST DUP1 PUSH1 0x9 PUSH1 0x0 DUP6 PUSH20 0xFFFFFFFFFFFFFFFFFFFFFFFFFFFFFFFFFFFFFFFF AND PUSH20 0xFFFFFFFFFFFFFFFFFFFFFFFFFFFFFFFFFFFFFFFF AND DUP2 MSTORE PUSH1 0x20 ADD SWAP1 DUP2 MSTORE PUSH1 0x20 ADD PUSH1 0x0 KECCAK256 PUSH1 0x0 DUP3 DUP3 SLOAD PUSH2 0x3704 SWAP2 SWAP1 PUSH2 0x4069 JUMP JUMPDEST SWAP3 POP POP DUP2 SWAP1 SSTORE POP DUP3 PUSH20 0xFFFFFFFFFFFFFFFFFFFFFFFFFFFFFFFFFFFFFFFF AND PUSH32 0xF6798A560793A54C3BCFE86A93CDE1E73087D944C0EA20544137D4121396885 DUP4 PUSH1 0x40 MLOAD PUSH2 0x3751 SWAP2 SWAP1 PUSH2 0x3A26 JUMP JUMPDEST PUSH1 0x40 MLOAD DUP1 SWAP2 SUB SWAP1 LOG2 PUSH1 0xB PUSH1 0x0 SWAP1 SLOAD SWAP1 PUSH2 0x100 EXP SWAP1 DIV PUSH20 0xFFFFFFFFFFFFFFFFFFFFFFFFFFFFFFFFFFFFFFFF AND PUSH20 0xFFFFFFFFFFFFFFFFFFFFFFFFFFFFFFFFFFFFFFFF AND DUP4 PUSH20 0xFFFFFFFFFFFFFFFFFFFFFFFFFFFFFFFFFFFFFFFF AND EQ PUSH2 0x3815 JUMPI DUP3 PUSH20 0xFFFFFFFFFFFFFFFFFFFFFFFFFFFFFFFFFFFFFFFF AND PUSH1 0x0 PUSH20 0xFFFFFFFFFFFFFFFFFFFFFFFFFFFFFFFFFFFFFFFF AND PUSH32 0xDDF252AD1BE2C89B69C2B068FC378DAA952BA7F163C4A11628F55A4DF523B3EF DUP5 PUSH1 0x40 MLOAD PUSH2 0x380C SWAP2 SWAP1 PUSH2 0x3A26 JUMP JUMPDEST PUSH1 0x40 MLOAD DUP1 SWAP2 SUB SWAP1 LOG3 JUMPDEST POP POP POP JUMP JUMPDEST PUSH1 0x0 DUP2 MLOAD SWAP1 POP SWAP2 SWAP1 POP JUMP JUMPDEST PUSH1 0x0 DUP3 DUP3 MSTORE PUSH1 0x20 DUP3 ADD SWAP1 POP SWAP3 SWAP2 POP POP JUMP JUMPDEST PUSH1 0x0 JUMPDEST DUP4 DUP2 LT ISZERO PUSH2 0x3854 JUMPI DUP1 DUP3 ADD MLOAD DUP2 DUP5 ADD MSTORE PUSH1 0x20 DUP2 ADD SWAP1 POP PUSH2 0x3839 JUMP JUMPDEST PUSH1 0x0 DUP5 DUP5 ADD MSTORE POP POP POP POP JUMP JUMPDEST PUSH1 0x0 PUSH1 0x1F NOT PUSH1 0x1F DUP4 ADD AND SWAP1 POP SWAP2 SWAP1 POP JUMP JUMPDEST PUSH1 0x0 PUSH2 0x387C DUP3 PUSH2 0x381A JUMP JUMPDEST PUSH2 0x3886 DUP2 DUP6 PUSH2 0x3825 JUMP JUMPDEST SWAP4 POP PUSH2 0x3896 DUP2 DUP6 PUSH1 0x20 DUP7 ADD PUSH2 0x3836 JUMP JUMPDEST PUSH2 0x389F DUP2 PUSH2 0x3860 JUMP JUMPDEST DUP5 ADD SWAP2 POP POP SWAP3 SWAP2 POP POP JUMP JUMPDEST PUSH1 0x0 PUSH1 0x20 DUP3 ADD SWAP1 POP DUP2 DUP2 SUB PUSH1 0x0 DUP4 ADD MSTORE PUSH2 0x38C4 DUP2 DUP5 PUSH2 0x3871 JUMP JUMPDEST SWAP1 POP SWAP3 SWAP2 POP POP JUMP JUMPDEST PUSH1 0x0 PUSH1 0x40 MLOAD SWAP1 POP SWAP1 JUMP JUMPDEST PUSH1 0x0 DUP1 REVERT JUMPDEST PUSH1 0x0 DUP1 REVERT JUMPDEST PUSH1 0x0 PUSH20 0xFFFFFFFFFFFFFFFFFFFFFFFFFFFFFFFFFFFFFFFF DUP3 AND SWAP1 POP SWAP2 SWAP1 POP JUMP JUMPDEST PUSH1 0x0 PUSH2 0x390B DUP3 PUSH2 0x38E0 JUMP JUMPDEST SWAP1 POP SWAP2 SWAP1 POP JUMP JUMPDEST PUSH2 0x391B DUP2 PUSH2 0x3900 JUMP JUMPDEST DUP2 EQ PUSH2 0x3926 JUMPI PUSH1 0x0 DUP1 REVERT JUMPDEST POP JUMP JUMPDEST PUSH1 0x0 DUP2 CALLDATALOAD SWAP1 POP PUSH2 0x3938 DUP2 PUSH2 0x3912 JUMP JUMPDEST SWAP3 SWAP2 POP POP JUMP JUMPDEST PUSH1 0x0 DUP2 SWAP1 POP SWAP2 SWAP1 POP JUMP JUMPDEST PUSH2 0x3951 DUP2 PUSH2 0x393E JUMP JUMPDEST DUP2 EQ PUSH2 0x395C JUMPI PUSH1 0x0 DUP1 REVERT JUMPDEST POP JUMP JUMPDEST PUSH1 0x0 DUP2 CALLDATALOAD SWAP1 POP PUSH2 0x396E DUP2 PUSH2 0x3948 JUMP JUMPDEST SWAP3 SWAP2 POP POP JUMP JUMPDEST PUSH1 0x0 DUP1 PUSH1 0x40 DUP4 DUP6 SUB SLT ISZERO PUSH2 0x398B JUMPI PUSH2 0x398A PUSH2 0x38D6 JUMP JUMPDEST JUMPDEST PUSH1 0x0 PUSH2 0x3999 DUP6 DUP3 DUP7 ADD PUSH2 0x3929 JUMP JUMPDEST SWAP3 POP POP PUSH1 0x20 PUSH2 0x39AA DUP6 DUP3 DUP7 ADD PUSH2 0x395F JUMP JUMPDEST SWAP2 POP POP SWAP3 POP SWAP3 SWAP1 POP JUMP JUMPDEST PUSH1 0x0 DUP2 ISZERO ISZERO SWAP1 POP SWAP2 SWAP1 POP JUMP JUMPDEST PUSH2 0x39C9 DUP2 PUSH2 0x39B4 JUMP JUMPDEST DUP3 MSTORE POP POP JUMP JUMPDEST PUSH1 0x0 PUSH1 0x20 DUP3 ADD SWAP1 POP PUSH2 0x39E4 PUSH1 0x0 DUP4 ADD DUP5 PUSH2 0x39C0 JUMP JUMPDEST SWAP3 SWAP2 POP POP JUMP JUMPDEST PUSH1 0x0 PUSH1 0x20 DUP3 DUP5 SUB SLT ISZERO PUSH2 0x3A00 JUMPI PUSH2 0x39FF PUSH2 0x38D6 JUMP JUMPDEST JUMPDEST PUSH1 0x0 PUSH2 0x3A0E DUP5 DUP3 DUP6 ADD PUSH2 0x3929 JUMP JUMPDEST SWAP2 POP POP SWAP3 SWAP2 POP POP JUMP JUMPDEST PUSH2 0x3A20 DUP2 PUSH2 0x393E JUMP JUMPDEST DUP3 MSTORE POP POP JUMP JUMPDEST PUSH1 0x0 PUSH1 0x20 DUP3 ADD SWAP1 POP PUSH2 0x3A3B PUSH1 0x0 DUP4 ADD DUP5 PUSH2 0x3A17 JUMP JUMPDEST SWAP3 SWAP2 POP POP JUMP JUMPDEST PUSH1 0x0 DUP1 PUSH1 0x0 PUSH1 0x60 DUP5 DUP7 SUB SLT ISZERO PUSH2 0x3A5A JUMPI PUSH2 0x3A59 PUSH2 0x38D6 JUMP JUMPDEST JUMPDEST PUSH1 0x0 PUSH2 0x3A68 DUP7 DUP3 DUP8 ADD PUSH2 0x3929 JUMP JUMPDEST SWAP4 POP POP PUSH1 0x20 PUSH2 0x3A79 DUP7 DUP3 DUP8 ADD PUSH2 0x3929 JUMP JUMPDEST SWAP3 POP POP PUSH1 0x40 PUSH2 0x3A8A DUP7 DUP3 DUP8 ADD PUSH2 0x395F JUMP JUMPDEST SWAP2 POP POP SWAP3 POP SWAP3 POP SWAP3 JUMP JUMPDEST PUSH1 0x0 PUSH1 0x20 DUP3 DUP5 SUB SLT ISZERO PUSH2 0x3AAA JUMPI PUSH2 0x3AA9 PUSH2 0x38D6 JUMP JUMPDEST JUMPDEST PUSH1 0x0 PUSH2 0x3AB8 DUP5 DUP3 DUP6 ADD PUSH2 0x395F JUMP JUMPDEST SWAP2 POP POP SWAP3 SWAP2 POP POP JUMP JUMPDEST PUSH1 0x0 PUSH1 0xFF DUP3 AND SWAP1 POP SWAP2 SWAP1 POP JUMP JUMPDEST PUSH2 0x3AD7 DUP2 PUSH2 0x3AC1 JUMP JUMPDEST DUP3 MSTORE POP POP JUMP JUMPDEST PUSH1 0x0 PUSH1 0x20 DUP3 ADD SWAP1 POP PUSH2 0x3AF2 PUSH1 0x0 DUP4 ADD DUP5 PUSH2 0x3ACE JUMP JUMPDEST SWAP3 SWAP2 POP POP JUMP JUMPDEST PUSH1 0x0 DUP1 REVERT JUMPDEST PUSH1 0x0 DUP1 REVERT JUMPDEST PUSH1 0x0 DUP1 REVERT JUMPDEST PUSH1 0x0 DUP1 DUP4 PUSH1 0x1F DUP5 ADD SLT PUSH2 0x3B1D JUMPI PUSH2 0x3B1C PUSH2 0x3AF8 JUMP JUMPDEST JUMPDEST DUP3 CALLDATALOAD SWAP1 POP PUSH8 0xFFFFFFFFFFFFFFFF DUP2 GT ISZERO PUSH2 0x3B3A JUMPI PUSH2 0x3B39 PUSH2 0x3AFD JUMP JUMPDEST JUMPDEST PUSH1 0x20 DUP4 ADD SWAP2 POP DUP4 PUSH1 0x1 DUP3 MUL DUP4 ADD GT ISZERO PUSH2 0x3B56 JUMPI PUSH2 0x3B55 PUSH2 0x3B02 JUMP JUMPDEST JUMPDEST SWAP3 POP SWAP3 SWAP1 POP JUMP JUMPDEST PUSH1 0x0 DUP1 PUSH1 0x20 DUP4 DUP6 SUB SLT ISZERO PUSH2 0x3B74 JUMPI PUSH2 0x3B73 PUSH2 0x38D6 JUMP JUMPDEST JUMPDEST PUSH1 0x0 DUP4 ADD CALLDATALOAD PUSH8 0xFFFFFFFFFFFFFFFF DUP2 GT ISZERO PUSH2 0x3B92 JUMPI PUSH2 0x3B91 PUSH2 0x38DB JUMP JUMPDEST JUMPDEST PUSH2 0x3B9E DUP6 DUP3 DUP7 ADD PUSH2 0x3B07 JUMP JUMPDEST SWAP3 POP SWAP3 POP POP SWAP3 POP SWAP3 SWAP1 POP JUMP JUMPDEST PUSH2 0x3BB3 DUP2 PUSH2 0x3900 JUMP JUMPDEST DUP3 MSTORE POP POP JUMP JUMPDEST PUSH1 0x0 PUSH1 0x20 DUP3 ADD SWAP1 POP PUSH2 0x3BCE PUSH1 0x0 DUP4 ADD DUP5 PUSH2 0x3BAA JUMP JUMPDEST SWAP3 SWAP2 POP POP JUMP JUMPDEST PUSH32 0x4E487B7100000000000000000000000000000000000000000000000000000000 PUSH1 0x0 MSTORE PUSH1 0x41 PUSH1 0x4 MSTORE PUSH1 0x24 PUSH1 0x0 REVERT JUMPDEST PUSH2 0x3C0C DUP3 PUSH2 0x3860 JUMP JUMPDEST DUP2 ADD DUP2 DUP2 LT PUSH8 0xFFFFFFFFFFFFFFFF DUP3 GT OR ISZERO PUSH2 0x3C2B JUMPI PUSH2 0x3C2A PUSH2 0x3BD4 JUMP JUMPDEST JUMPDEST DUP1 PUSH1 0x40 MSTORE POP POP POP JUMP JUMPDEST PUSH1 0x0 PUSH2 0x3C3E PUSH2 0x38CC JUMP JUMPDEST SWAP1 POP PUSH2 0x3C4A DUP3 DUP3 PUSH2 0x3C03 JUMP JUMPDEST SWAP2 SWAP1 POP JUMP JUMPDEST PUSH1 0x0 PUSH8 0xFFFFFFFFFFFFFFFF DUP3 GT ISZERO PUSH2 0x3C6A JUMPI PUSH2 0x3C69 PUSH2 0x3BD4 JUMP JUMPDEST JUMPDEST PUSH1 0x20 DUP3 MUL SWAP1 POP PUSH1 0x20 DUP2 ADD SWAP1 POP SWAP2 SWAP1 POP JUMP JUMPDEST PUSH1 0x0 PUSH2 0x3C8E PUSH2 0x3C89 DUP5 PUSH2 0x3C4F JUMP JUMPDEST PUSH2 0x3C34 JUMP JUMPDEST SWAP1 POP DUP1 DUP4 DUP3 MSTORE PUSH1 0x20 DUP3 ADD SWAP1 POP PUSH1 0x20 DUP5 MUL DUP4 ADD DUP6 DUP2 GT ISZERO PUSH2 0x3CB1 JUMPI PUSH2 0x3CB0 PUSH2 0x3B02 JUMP JUMPDEST JUMPDEST DUP4 JUMPDEST DUP2 DUP2 LT ISZERO PUSH2 0x3CDA JUMPI DUP1 PUSH2 0x3CC6 DUP9 DUP3 PUSH2 0x3929 JUMP JUMPDEST DUP5 MSTORE PUSH1 0x20 DUP5 ADD SWAP4 POP POP PUSH1 0x20 DUP2 ADD SWAP1 POP PUSH2 0x3CB3 JUMP JUMPDEST POP POP POP SWAP4 SWAP3 POP POP POP JUMP JUMPDEST PUSH1 0x0 DUP3 PUSH1 0x1F DUP4 ADD SLT PUSH2 0x3CF9 JUMPI PUSH2 0x3CF8 PUSH2 0x3AF8 JUMP JUMPDEST JUMPDEST DUP2 CALLDATALOAD PUSH2 0x3D09 DUP5 DUP3 PUSH1 0x20 DUP7 ADD PUSH2 0x3C7B JUMP JUMPDEST SWAP2 POP POP SWAP3 SWAP2 POP POP JUMP JUMPDEST PUSH2 0x3D1B DUP2 PUSH2 0x39B4 JUMP JUMPDEST DUP2 EQ PUSH2 0x3D26 JUMPI PUSH1 0x0 DUP1 REVERT JUMPDEST POP JUMP JUMPDEST PUSH1 0x0 DUP2 CALLDATALOAD SWAP1 POP PUSH2 0x3D38 DUP2 PUSH2 0x3D12 JUMP JUMPDEST SWAP3 SWAP2 POP POP JUMP JUMPDEST PUSH1 0x0 DUP1 PUSH1 0x40 DUP4 DUP6 SUB SLT ISZERO PUSH2 0x3D55 JUMPI PUSH2 0x3D54 PUSH2 0x38D6 JUMP JUMPDEST JUMPDEST PUSH1 0x0 DUP4 ADD CALLDATALOAD PUSH8 0xFFFFFFFFFFFFFFFF DUP2 GT ISZERO PUSH2 0x3D73 JUMPI PUSH2 0x3D72 PUSH2 0x38DB JUMP JUMPDEST JUMPDEST PUSH2 0x3D7F DUP6 DUP3 DUP7 ADD PUSH2 0x3CE4 JUMP JUMPDEST SWAP3 POP POP PUSH1 0x20 PUSH2 0x3D90 DUP6 DUP3 DUP7 ADD PUSH2 0x3D29 JUMP JUMPDEST SWAP2 POP POP SWAP3 POP SWAP3 SWAP1 POP JUMP JUMPDEST PUSH1 0x0 DUP2 MLOAD SWAP1 POP SWAP2 SWAP1 POP JUMP JUMPDEST PUSH1 0x0 DUP3 DUP3 MSTORE PUSH1 0x20 DUP3 ADD SWAP1 POP SWAP3 SWAP2 POP POP JUMP JUMPDEST PUSH1 0x0 PUSH2 0x3DC1 DUP3 PUSH2 0x3D9A JUMP JUMPDEST PUSH2 0x3DCB DUP2 DUP6 PUSH2 0x3DA5 JUMP JUMPDEST SWAP4 POP PUSH2 0x3DDB DUP2 DUP6 PUSH1 0x20 DUP7 ADD PUSH2 0x3836 JUMP JUMPDEST PUSH2 0x3DE4 DUP2 PUSH2 0x3860 JUMP JUMPDEST DUP5 ADD SWAP2 POP POP SWAP3 SWAP2 POP POP JUMP JUMPDEST PUSH1 0x0 PUSH1 0x40 DUP3 ADD SWAP1 POP PUSH2 0x3E04 PUSH1 0x0 DUP4 ADD DUP6 PUSH2 0x39C0 JUMP JUMPDEST DUP2 DUP2 SUB PUSH1 0x20 DUP4 ADD MSTORE PUSH2 0x3E16 DUP2 DUP5 PUSH2 0x3DB6 JUMP JUMPDEST SWAP1 POP SWAP4 SWAP3 POP POP POP JUMP JUMPDEST PUSH1 0x0 DUP1 PUSH1 0x40 DUP4 DUP6 SUB SLT ISZERO PUSH2 0x3E36 JUMPI PUSH2 0x3E35 PUSH2 0x38D6 JUMP JUMPDEST JUMPDEST PUSH1 0x0 PUSH2 0x3E44 DUP6 DUP3 DUP7 ADD PUSH2 0x3929 JUMP JUMPDEST SWAP3 POP POP PUSH1 0x20 PUSH2 0x3E55 DUP6 DUP3 DUP7 ADD PUSH2 0x3D29 JUMP JUMPDEST SWAP2 POP POP SWAP3 POP SWAP3 SWAP1 POP JUMP JUMPDEST PUSH1 0x0 DUP1 PUSH1 0x40 DUP4 DUP6 SUB SLT ISZERO PUSH2 0x3E76 JUMPI PUSH2 0x3E75 PUSH2 0x38D6 JUMP JUMPDEST JUMPDEST PUSH1 0x0 PUSH2 0x3E84 DUP6 DUP3 DUP7 ADD PUSH2 0x3929 JUMP JUMPDEST SWAP3 POP POP PUSH1 0x20 PUSH2 0x3E95 DUP6 DUP3 DUP7 ADD PUSH2 0x3929 JUMP JUMPDEST SWAP2 POP POP SWAP3 POP SWAP3 SWAP1 POP JUMP JUMPDEST PUSH1 0x0 PUSH8 0xFFFFFFFFFFFFFFFF DUP3 GT ISZERO PUSH2 0x3EBA JUMPI PUSH2 0x3EB9 PUSH2 0x3BD4 JUMP JUMPDEST JUMPDEST PUSH1 0x20 DUP3 MUL SWAP1 POP PUSH1 0x20 DUP2 ADD SWAP1 POP SWAP2 SWAP1 POP JUMP JUMPDEST PUSH1 0x0 PUSH2 0x3EDE PUSH2 0x3ED9 DUP5 PUSH2 0x3E9F JUMP JUMPDEST PUSH2 0x3C34 JUMP JUMPDEST SWAP1 POP DUP1 DUP4 DUP3 MSTORE PUSH1 0x20 DUP3 ADD SWAP1 POP PUSH1 0x20 DUP5 MUL DUP4 ADD DUP6 DUP2 GT ISZERO PUSH2 0x3F01 JUMPI PUSH2 0x3F00 PUSH2 0x3B02 JUMP JUMPDEST JUMPDEST DUP4 JUMPDEST DUP2 DUP2 LT ISZERO PUSH2 0x3F2A JUMPI DUP1 PUSH2 0x3F16 DUP9 DUP3 PUSH2 0x395F JUMP JUMPDEST DUP5 MSTORE PUSH1 0x20 DUP5 ADD SWAP4 POP POP PUSH1 0x20 DUP2 ADD SWAP1 POP PUSH2 0x3F03 JUMP JUMPDEST POP POP POP SWAP4 SWAP3 POP POP POP JUMP JUMPDEST PUSH1 0x0 DUP3 PUSH1 0x1F DUP4 ADD SLT PUSH2 0x3F49 JUMPI PUSH2 0x3F48 PUSH2 0x3AF8 JUMP JUMPDEST JUMPDEST DUP2 CALLDATALOAD PUSH2 0x3F59 DUP5 DUP3 PUSH1 0x20 DUP7 ADD PUSH2 0x3ECB JUMP JUMPDEST SWAP2 POP POP SWAP3 SWAP2 POP POP JUMP JUMPDEST PUSH1 0x0 DUP1 PUSH1 0x40 DUP4 DUP6 SUB SLT ISZERO PUSH2 0x3F79 JUMPI PUSH2 0x3F78 PUSH2 0x38D6 JUMP JUMPDEST JUMPDEST PUSH1 0x0 DUP4 ADD CALLDATALOAD PUSH8 0xFFFFFFFFFFFFFFFF DUP2 GT ISZERO PUSH2 0x3F97 JUMPI PUSH2 0x3F96 PUSH2 0x38DB JUMP JUMPDEST JUMPDEST PUSH2 0x3FA3 DUP6 DUP3 DUP7 ADD PUSH2 0x3CE4 JUMP JUMPDEST SWAP3 POP POP PUSH1 0x20 DUP4 ADD CALLDATALOAD PUSH8 0xFFFFFFFFFFFFFFFF DUP2 GT ISZERO PUSH2 0x3FC4 JUMPI PUSH2 0x3FC3 PUSH2 0x38DB JUMP JUMPDEST JUMPDEST PUSH2 0x3FD0 DUP6 DUP3 DUP7 ADD PUSH2 0x3F34 JUMP JUMPDEST SWAP2 POP POP SWAP3 POP SWAP3 SWAP1 POP JUMP JUMPDEST PUSH32 0x4E487B7100000000000000000000000000000000000000000000000000000000 PUSH1 0x0 MSTORE PUSH1 0x22 PUSH1 0x4 MSTORE PUSH1 0x24 PUSH1 0x0 REVERT JUMPDEST PUSH1 0x0 PUSH1 0x2 DUP3 DIV SWAP1 POP PUSH1 0x1 DUP3 AND DUP1 PUSH2 0x4021 JUMPI PUSH1 0x7F DUP3 AND SWAP2 POP JUMPDEST PUSH1 0x20 DUP3 LT DUP2 SUB PUSH2 0x4034 JUMPI PUSH2 0x4033 PUSH2 0x3FDA JUMP JUMPDEST JUMPDEST POP SWAP2 SWAP1 POP JUMP JUMPDEST PUSH32 0x4E487B7100000000000000000000000000000000000000000000000000000000 PUSH1 0x0 MSTORE PUSH1 0x11 PUSH1 0x4 MSTORE PUSH1 0x24 PUSH1 0x0 REVERT JUMPDEST PUSH1 0x0 PUSH2 0x4074 DUP3 PUSH2 0x393E JUMP JUMPDEST SWAP2 POP PUSH2 0x407F DUP4 PUSH2 0x393E JUMP JUMPDEST SWAP3 POP DUP3 DUP3 ADD SWAP1 POP DUP1 DUP3 GT ISZERO PUSH2 0x4097 JUMPI PUSH2 0x4096 PUSH2 0x403A JUMP JUMPDEST JUMPDEST SWAP3 SWAP2 POP POP JUMP JUMPDEST PUSH1 0x0 PUSH2 0x40A8 DUP3 PUSH2 0x393E JUMP JUMPDEST SWAP2 POP PUSH2 0x40B3 DUP4 PUSH2 0x393E JUMP JUMPDEST SWAP3 POP DUP3 DUP3 SUB SWAP1 POP DUP2 DUP2 GT ISZERO PUSH2 0x40CB JUMPI PUSH2 0x40CA PUSH2 0x403A JUMP JUMPDEST JUMPDEST SWAP3 SWAP2 POP POP JUMP JUMPDEST PUSH32 0x4B656570557020726571756972656D656E74206973206E6F74206D6574210000 PUSH1 0x0 DUP3 ADD MSTORE POP JUMP JUMPDEST PUSH1 0x0 PUSH2 0x4107 PUSH1 0x1E DUP4 PUSH2 0x3825 JUMP JUMPDEST SWAP2 POP PUSH2 0x4112 DUP3 PUSH2 0x40D1 JUMP JUMPDEST PUSH1 0x20 DUP3 ADD SWAP1 POP SWAP2 SWAP1 POP JUMP JUMPDEST PUSH1 0x0 PUSH1 0x20 DUP3 ADD SWAP1 POP DUP2 DUP2 SUB PUSH1 0x0 DUP4 ADD MSTORE PUSH2 0x4136 DUP2 PUSH2 0x40FA JUMP JUMPDEST SWAP1 POP SWAP2 SWAP1 POP JUMP JUMPDEST PUSH32 0x74537570706C79206D7573742062652067726561746572207468616E206F7220 PUSH1 0x0 DUP3 ADD MSTORE PUSH32 0x657175616C20746F206578636C7564654465626173696E67537570706C790000 PUSH1 0x20 DUP3 ADD MSTORE POP JUMP JUMPDEST PUSH1 0x0 PUSH2 0x4199 PUSH1 0x3E DUP4 PUSH2 0x3825 JUMP JUMPDEST SWAP2 POP PUSH2 0x41A4 DUP3 PUSH2 0x413D JUMP JUMPDEST PUSH1 0x40 DUP3 ADD SWAP1 POP SWAP2 SWAP1 POP JUMP JUMPDEST PUSH1 0x0 PUSH1 0x20 DUP3 ADD SWAP1 POP DUP2 DUP2 SUB PUSH1 0x0 DUP4 ADD MSTORE PUSH2 0x41C8 DUP2 PUSH2 0x418C JUMP JUMPDEST SWAP1 POP SWAP2 SWAP1 POP JUMP JUMPDEST PUSH32 0x496E76616C696420616464726573733A207A65726F2061646472657373000000 PUSH1 0x0 DUP3 ADD MSTORE POP JUMP JUMPDEST PUSH1 0x0 PUSH2 0x4205 PUSH1 0x1D DUP4 PUSH2 0x3825 JUMP JUMPDEST SWAP2 POP PUSH2 0x4210 DUP3 PUSH2 0x41CF JUMP JUMPDEST PUSH1 0x20 DUP3 ADD SWAP1 POP SWAP2 SWAP1 POP JUMP JUMPDEST PUSH1 0x0 PUSH1 0x20 DUP3 ADD SWAP1 POP DUP2 DUP2 SUB PUSH1 0x0 DUP4 ADD MSTORE PUSH2 0x4234 DUP2 PUSH2 0x41F8 JUMP JUMPDEST SWAP1 POP SWAP2 SWAP1 POP JUMP JUMPDEST PUSH1 0x0 DUP2 SWAP1 POP SWAP3 SWAP2 POP POP JUMP JUMPDEST POP JUMP JUMPDEST PUSH1 0x0 PUSH2 0x4256 PUSH1 0x0 DUP4 PUSH2 0x423B JUMP JUMPDEST SWAP2 POP PUSH2 0x4261 DUP3 PUSH2 0x4246 JUMP JUMPDEST PUSH1 0x0 DUP3 ADD SWAP1 POP SWAP2 SWAP1 POP JUMP JUMPDEST PUSH1 0x0 PUSH2 0x4277 DUP3 PUSH2 0x4249 JUMP JUMPDEST SWAP2 POP DUP2 SWAP1 POP SWAP2 SWAP1 POP JUMP JUMPDEST PUSH32 0x5472616E73666572204661696C65640000000000000000000000000000000000 PUSH1 0x0 DUP3 ADD MSTORE POP JUMP JUMPDEST PUSH1 0x0 PUSH2 0x42B7 PUSH1 0xF DUP4 PUSH2 0x3825 JUMP JUMPDEST SWAP2 POP PUSH2 0x42C2 DUP3 PUSH2 0x4281 JUMP JUMPDEST PUSH1 0x20 DUP3 ADD SWAP1 POP SWAP2 SWAP1 POP JUMP JUMPDEST PUSH1 0x0 PUSH1 0x20 DUP3 ADD SWAP1 POP DUP2 DUP2 SUB PUSH1 0x0 DUP4 ADD MSTORE PUSH2 0x42E6 DUP2 PUSH2 0x42AA JUMP JUMPDEST SWAP1 POP SWAP2 SWAP1 POP JUMP JUMPDEST PUSH32 0x4E487B7100000000000000000000000000000000000000000000000000000000 PUSH1 0x0 MSTORE PUSH1 0x32 PUSH1 0x4 MSTORE PUSH1 0x24 PUSH1 0x0 REVERT JUMPDEST PUSH32 0x54726561737572792077616C6C65742063616E6E6F7420626520696E636C7564 PUSH1 0x0 DUP3 ADD MSTORE PUSH32 0x656420696E206465626173696E67000000000000000000000000000000000000 PUSH1 0x20 DUP3 ADD MSTORE POP JUMP JUMPDEST PUSH1 0x0 PUSH2 0x4378 PUSH1 0x2E DUP4 PUSH2 0x3825 JUMP JUMPDEST SWAP2 POP PUSH2 0x4383 DUP3 PUSH2 0x431C JUMP JUMPDEST PUSH1 0x40 DUP3 ADD SWAP1 POP SWAP2 SWAP1 POP JUMP JUMPDEST PUSH1 0x0 PUSH1 0x20 DUP3 ADD SWAP1 POP DUP2 DUP2 SUB PUSH1 0x0 DUP4 ADD MSTORE PUSH2 0x43A7 DUP2 PUSH2 0x436B JUMP JUMPDEST SWAP1 POP SWAP2 SWAP1 POP JUMP JUMPDEST PUSH32 0x4F70657261746F722073686F756C646E2774206265207A65726F2E0000000000 PUSH1 0x0 DUP3 ADD MSTORE POP JUMP JUMPDEST PUSH1 0x0 PUSH2 0x43E4 PUSH1 0x1B DUP4 PUSH2 0x3825 JUMP JUMPDEST SWAP2 POP PUSH2 0x43EF DUP3 PUSH2 0x43AE JUMP JUMPDEST PUSH1 0x20 DUP3 ADD SWAP1 POP SWAP2 SWAP1 POP JUMP JUMPDEST PUSH1 0x0 PUSH1 0x20 DUP3 ADD SWAP1 POP DUP2 DUP2 SUB PUSH1 0x0 DUP4 ADD MSTORE PUSH2 0x4413 DUP2 PUSH2 0x43D7 JUMP JUMPDEST SWAP1 POP SWAP2 SWAP1 POP JUMP JUMPDEST PUSH32 0x4C5020506F6F6C20616464726573732073686F756C646E2774206265207A6572 PUSH1 0x0 DUP3 ADD MSTORE PUSH32 0x6F21000000000000000000000000000000000000000000000000000000000000 PUSH1 0x20 DUP3 ADD MSTORE POP JUMP JUMPDEST PUSH1 0x0 PUSH2 0x4476 PUSH1 0x22 DUP4 PUSH2 0x3825 JUMP JUMPDEST SWAP2 POP PUSH2 0x4481 DUP3 PUSH2 0x441A JUMP JUMPDEST PUSH1 0x40 DUP3 ADD SWAP1 POP SWAP2 SWAP1 POP JUMP JUMPDEST PUSH1 0x0 PUSH1 0x20 DUP3 ADD SWAP1 POP DUP2 DUP2 SUB PUSH1 0x0 DUP4 ADD MSTORE PUSH2 0x44A5 DUP2 PUSH2 0x4469 JUMP JUMPDEST SWAP1 POP SWAP2 SWAP1 POP JUMP JUMPDEST PUSH32 0x526174652073686F756C64206265206C657373207468616E2050455243454E54 PUSH1 0x0 DUP3 ADD MSTORE PUSH32 0x4147455F44454E4F4D494E41544F520000000000000000000000000000000000 PUSH1 0x20 DUP3 ADD MSTORE POP JUMP JUMPDEST PUSH1 0x0 PUSH2 0x4508 PUSH1 0x2F DUP4 PUSH2 0x3825 JUMP JUMPDEST SWAP2 POP PUSH2 0x4513 DUP3 PUSH2 0x44AC JUMP JUMPDEST PUSH1 0x40 DUP3 ADD SWAP1 POP SWAP2 SWAP1 POP JUMP JUMPDEST PUSH1 0x0 PUSH1 0x20 DUP3 ADD SWAP1 POP DUP2 DUP2 SUB PUSH1 0x0 DUP4 ADD MSTORE PUSH2 0x4537 DUP2 PUSH2 0x44FB JUMP JUMPDEST SWAP1 POP SWAP2 SWAP1 POP JUMP JUMPDEST PUSH32 0x417272617973206C656E677468206D69736D6174636800000000000000000000 PUSH1 0x0 DUP3 ADD MSTORE POP JUMP JUMPDEST PUSH1 0x0 PUSH2 0x4574 PUSH1 0x16 DUP4 PUSH2 0x3825 JUMP JUMPDEST SWAP2 POP PUSH2 0x457F DUP3 PUSH2 0x453E JUMP JUMPDEST PUSH1 0x20 DUP3 ADD SWAP1 POP SWAP2 SWAP1 POP JUMP JUMPDEST PUSH1 0x0 PUSH1 0x20 DUP3 ADD SWAP1 POP DUP2 DUP2 SUB PUSH1 0x0 DUP4 ADD MSTORE PUSH2 0x45A3 DUP2 PUSH2 0x4567 JUMP JUMPDEST SWAP1 POP SWAP2 SWAP1 POP JUMP JUMPDEST PUSH32 0x496E73756666696369656E742062616C616E6365000000000000000000000000 PUSH1 0x0 DUP3 ADD MSTORE POP JUMP JUMPDEST PUSH1 0x0 PUSH2 0x45E0 PUSH1 0x14 DUP4 PUSH2 0x3825 JUMP JUMPDEST SWAP2 POP PUSH2 0x45EB DUP3 PUSH2 0x45AA JUMP JUMPDEST PUSH1 0x20 DUP3 ADD SWAP1 POP SWAP2 SWAP1 POP JUMP JUMPDEST PUSH1 0x0 PUSH1 0x20 DUP3 ADD SWAP1 POP DUP2 DUP2 SUB PUSH1 0x0 DUP4 ADD MSTORE PUSH2 0x460F DUP2 PUSH2 0x45D3 JUMP JUMPDEST SWAP1 POP SWAP2 SWAP1 POP JUMP JUMPDEST PUSH32 0x45524332303A20617070726F76652066726F6D20746865207A65726F20616464 PUSH1 0x0 DUP3 ADD MSTORE PUSH32 0x7265737300000000000000000000000000000000000000000000000000000000 PUSH1 0x20 DUP3 ADD MSTORE POP JUMP JUMPDEST PUSH1 0x0 PUSH2 0x4672 PUSH1 0x24 DUP4 PUSH2 0x3825 JUMP JUMPDEST SWAP2 POP PUSH2 0x467D DUP3 PUSH2 0x4616 JUMP JUMPDEST PUSH1 0x40 DUP3 ADD SWAP1 POP SWAP2 SWAP1 POP JUMP JUMPDEST PUSH1 0x0 PUSH1 0x20 DUP3 ADD SWAP1 POP DUP2 DUP2 SUB PUSH1 0x0 DUP4 ADD MSTORE PUSH2 0x46A1 DUP2 PUSH2 0x4665 JUMP JUMPDEST SWAP1 POP SWAP2 SWAP1 POP JUMP JUMPDEST PUSH32 0x45524332303A20617070726F766520746F20746865207A65726F206164647265 PUSH1 0x0 DUP3 ADD MSTORE PUSH32 0x7373000000000000000000000000000000000000000000000000000000000000 PUSH1 0x20 DUP3 ADD MSTORE POP JUMP JUMPDEST PUSH1 0x0 PUSH2 0x4704 PUSH1 0x22 DUP4 PUSH2 0x3825 JUMP JUMPDEST SWAP2 POP PUSH2 0x470F DUP3 PUSH2 0x46A8 JUMP JUMPDEST PUSH1 0x40 DUP3 ADD SWAP1 POP SWAP2 SWAP1 POP JUMP JUMPDEST PUSH1 0x0 PUSH1 0x20 DUP3 ADD SWAP1 POP DUP2 DUP2 SUB PUSH1 0x0 DUP4 ADD MSTORE PUSH2 0x4733 DUP2 PUSH2 0x46F7 JUMP JUMPDEST SWAP1 POP SWAP2 SWAP1 POP JUMP JUMPDEST PUSH32 0x45524332303A207472616E736665722066726F6D20746865207A65726F206164 PUSH1 0x0 DUP3 ADD MSTORE PUSH32 0x6472657373000000000000000000000000000000000000000000000000000000 PUSH1 0x20 DUP3 ADD MSTORE POP JUMP JUMPDEST PUSH1 0x0 PUSH2 0x4796 PUSH1 0x25 DUP4 PUSH2 0x3825 JUMP JUMPDEST SWAP2 POP PUSH2 0x47A1 DUP3 PUSH2 0x473A JUMP JUMPDEST PUSH1 0x40 DUP3 ADD SWAP1 POP SWAP2 SWAP1 POP JUMP JUMPDEST PUSH1 0x0 PUSH1 0x20 DUP3 ADD SWAP1 POP DUP2 DUP2 SUB PUSH1 0x0 DUP4 ADD MSTORE PUSH2 0x47C5 DUP2 PUSH2 0x4789 JUMP JUMPDEST SWAP1 POP SWAP2 SWAP1 POP JUMP JUMPDEST PUSH32 0x45524332303A207472616E7366657220746F20746865207A65726F2061646472 PUSH1 0x0 DUP3 ADD MSTORE PUSH32 0x6573730000000000000000000000000000000000000000000000000000000000 PUSH1 0x20 DUP3 ADD MSTORE POP JUMP JUMPDEST PUSH1 0x0 PUSH2 0x4828 PUSH1 0x23 DUP4 PUSH2 0x3825 JUMP JUMPDEST SWAP2 POP PUSH2 0x4833 DUP3 PUSH2 0x47CC JUMP JUMPDEST PUSH1 0x40 DUP3 ADD SWAP1 POP SWAP2 SWAP1 POP JUMP JUMPDEST PUSH1 0x0 PUSH1 0x20 DUP3 ADD SWAP1 POP DUP2 DUP2 SUB PUSH1 0x0 DUP4 ADD MSTORE PUSH2 0x4857 DUP2 PUSH2 0x481B JUMP JUMPDEST SWAP1 POP SWAP2 SWAP1 POP JUMP JUMPDEST PUSH32 0x496E73756666696369656E742046756E647320466F72205472616E7366657200 PUSH1 0x0 DUP3 ADD MSTORE POP JUMP JUMPDEST PUSH1 0x0 PUSH2 0x4894 PUSH1 0x1F DUP4 PUSH2 0x3825 JUMP JUMPDEST SWAP2 POP PUSH2 0x489F DUP3 PUSH2 0x485E JUMP JUMPDEST PUSH1 0x20 DUP3 ADD SWAP1 POP SWAP2 SWAP1 POP JUMP JUMPDEST PUSH1 0x0 PUSH1 0x20 DUP3 ADD SWAP1 POP DUP2 DUP2 SUB PUSH1 0x0 DUP4 ADD MSTORE PUSH2 0x48C3 DUP2 PUSH2 0x4887 JUMP JUMPDEST SWAP1 POP SWAP2 SWAP1 POP JUMP JUMPDEST PUSH32 0x486F6C64696E6720546F6B656E73206578636565646564210000000000000000 PUSH1 0x0 DUP3 ADD MSTORE POP JUMP JUMPDEST PUSH1 0x0 PUSH2 0x4900 PUSH1 0x18 DUP4 PUSH2 0x3825 JUMP JUMPDEST SWAP2 POP PUSH2 0x490B DUP3 PUSH2 0x48CA JUMP JUMPDEST PUSH1 0x20 DUP3 ADD SWAP1 POP SWAP2 SWAP1 POP JUMP JUMPDEST PUSH1 0x0 PUSH1 0x20 DUP3 ADD SWAP1 POP DUP2 DUP2 SUB PUSH1 0x0 DUP4 ADD MSTORE PUSH2 0x492F DUP2 PUSH2 0x48F3 JUMP JUMPDEST SWAP1 POP SWAP2 SWAP1 POP JUMP JUMPDEST PUSH1 0x0 PUSH2 0x4941 DUP3 PUSH2 0x393E JUMP JUMPDEST SWAP2 POP PUSH2 0x494C DUP4 PUSH2 0x393E JUMP JUMPDEST SWAP3 POP DUP3 DUP3 MUL PUSH2 0x495A DUP2 PUSH2 0x393E JUMP JUMPDEST SWAP2 POP DUP3 DUP3 DIV DUP5 EQ DUP4 ISZERO OR PUSH2 0x4971 JUMPI PUSH2 0x4970 PUSH2 0x403A JUMP JUMPDEST JUMPDEST POP SWAP3 SWAP2 POP POP JUMP JUMPDEST PUSH32 0x4E487B7100000000000000000000000000000000000000000000000000000000 PUSH1 0x0 MSTORE PUSH1 0x12 PUSH1 0x4 MSTORE PUSH1 0x24 PUSH1 0x0 REVERT JUMPDEST PUSH1 0x0 PUSH2 0x49B2 DUP3 PUSH2 0x393E JUMP JUMPDEST SWAP2 POP PUSH2 0x49BD DUP4 PUSH2 0x393E JUMP JUMPDEST SWAP3 POP DUP3 PUSH2 0x49CD JUMPI PUSH2 0x49CC PUSH2 0x4978 JUMP JUMPDEST JUMPDEST DUP3 DUP3 DIV SWAP1 POP SWAP3 SWAP2 POP POP JUMP JUMPDEST PUSH32 0x5061757361626C653A2070617573656400000000000000000000000000000000 PUSH1 0x0 DUP3 ADD MSTORE POP JUMP JUMPDEST PUSH1 0x0 PUSH2 0x4A0E PUSH1 0x10 DUP4 PUSH2 0x3825 JUMP JUMPDEST SWAP2 POP PUSH2 0x4A19 DUP3 PUSH2 0x49D8 JUMP JUMPDEST PUSH1 0x20 DUP3 ADD SWAP1 POP SWAP2 SWAP1 POP JUMP JUMPDEST PUSH1 0x0 PUSH1 0x20 DUP3 ADD SWAP1 POP DUP2 DUP2 SUB PUSH1 0x0 DUP4 ADD MSTORE PUSH2 0x4A3D DUP2 PUSH2 0x4A01 JUMP JUMPDEST SWAP1 POP SWAP2 SWAP1 POP JUMP JUMPDEST PUSH32 0x496E73756666696369656E742042616C616E636520746F20636C61696D000000 PUSH1 0x0 DUP3 ADD MSTORE POP JUMP JUMPDEST PUSH1 0x0 PUSH2 0x4A7A PUSH1 0x1D DUP4 PUSH2 0x3825 JUMP JUMPDEST SWAP2 POP PUSH2 0x4A85 DUP3 PUSH2 0x4A44 JUMP JUMPDEST PUSH1 0x20 DUP3 ADD SWAP1 POP SWAP2 SWAP1 POP JUMP JUMPDEST PUSH1 0x0 PUSH1 0x20 DUP3 ADD SWAP1 POP DUP2 DUP2 SUB PUSH1 0x0 DUP4 ADD MSTORE PUSH2 0x4AA9 DUP2 PUSH2 0x4A6D JUMP JUMPDEST SWAP1 POP SWAP2 SWAP1 POP JUMP JUMPDEST PUSH32 0x4163636F756E742073686F756C646E2774206265207A65726F2E000000000000 PUSH1 0x0 DUP3 ADD MSTORE POP JUMP JUMPDEST PUSH1 0x0 PUSH2 0x4AE6 PUSH1 0x1A DUP4 PUSH2 0x3825 JUMP JUMPDEST SWAP2 POP PUSH2 0x4AF1 DUP3 PUSH2 0x4AB0 JUMP JUMPDEST PUSH1 0x20 DUP3 ADD SWAP1 POP SWAP2 SWAP1 POP JUMP JUMPDEST PUSH1 0x0 PUSH1 0x20 DUP3 ADD SWAP1 POP DUP2 DUP2 SUB PUSH1 0x0 DUP4 ADD MSTORE PUSH2 0x4B15 DUP2 PUSH2 0x4AD9 JUMP JUMPDEST SWAP1 POP SWAP2 SWAP1 POP JUMP JUMPDEST PUSH32 0x5265656E7472616E637947756172643A207265656E7472616E742063616C6C00 PUSH1 0x0 DUP3 ADD MSTORE POP JUMP JUMPDEST PUSH1 0x0 PUSH2 0x4B52 PUSH1 0x1F DUP4 PUSH2 0x3825 JUMP JUMPDEST SWAP2 POP PUSH2 0x4B5D DUP3 PUSH2 0x4B1C JUMP JUMPDEST PUSH1 0x20 DUP3 ADD SWAP1 POP SWAP2 SWAP1 POP JUMP JUMPDEST PUSH1 0x0 PUSH1 0x20 DUP3 ADD SWAP1 POP DUP2 DUP2 SUB PUSH1 0x0 DUP4 ADD MSTORE PUSH2 0x4B81 DUP2 PUSH2 0x4B45 JUMP JUMPDEST SWAP1 POP SWAP2 SWAP1 POP JUMP JUMPDEST PUSH32 0x5061757361626C653A206E6F7420706175736564000000000000000000000000 PUSH1 0x0 DUP3 ADD MSTORE POP JUMP JUMPDEST PUSH1 0x0 PUSH2 0x4BBE PUSH1 0x14 DUP4 PUSH2 0x3825 JUMP JUMPDEST SWAP2 POP PUSH2 0x4BC9 DUP3 PUSH2 0x4B88 JUMP JUMPDEST PUSH1 0x20 DUP3 ADD SWAP1 POP SWAP2 SWAP1 POP JUMP JUMPDEST PUSH1 0x0 PUSH1 0x20 DUP3 ADD SWAP1 POP DUP2 DUP2 SUB PUSH1 0x0 DUP4 ADD MSTORE PUSH2 0x4BED DUP2 PUSH2 0x4BB1 JUMP JUMPDEST SWAP1 POP SWAP2 SWAP1 POP JUMP JUMPDEST PUSH32 0x45524332303A206D696E7420746F20746865207A65726F206164647265737300 PUSH1 0x0 DUP3 ADD MSTORE POP JUMP JUMPDEST PUSH1 0x0 PUSH2 0x4C2A PUSH1 0x1F DUP4 PUSH2 0x3825 JUMP JUMPDEST SWAP2 POP PUSH2 0x4C35 DUP3 PUSH2 0x4BF4 JUMP JUMPDEST PUSH1 0x20 DUP3 ADD SWAP1 POP SWAP2 SWAP1 POP JUMP JUMPDEST PUSH1 0x0 PUSH1 0x20 DUP3 ADD SWAP1 POP DUP2 DUP2 SUB PUSH1 0x0 DUP4 ADD MSTORE PUSH2 0x4C59 DUP2 PUSH2 0x4C1D JUMP JUMPDEST SWAP1 POP SWAP2 SWAP1 POP JUMP INVALID GASLIMIT MSTORE NUMBER ORIGIN ADDRESS GASPRICE KECCAK256 PUSH21 0x72616E7366657220616D6F756E7420657863656564 PUSH20 0x20616C6C6F77616E636545524332303A20646563 PUSH19 0x656173656420616C6C6F77616E63652062656C PUSH16 0x77207A65726FA2646970667358221220 MOD PUSH24 0x191AFF1B3BC82FBEE41EE5BD32FD024A91362B34BCA59F71 DIFFICULTY PUSH3 0xE74650 PUSH16 0x64736F6C634300081A00330000000000 "
		},
		"gasEstimates": {
			"creation": {
				"codeDepositCost": "3936600",
				"executionCost": "infinite",
				"totalCost": "infinite"
			},
			"external": {
				"PERCENTAGE_DENOMINATOR()": "484",
				"TOKEN_DECIMALS()": "463",
				"TOKEN_INTERNAL_DECIMALS()": "417",
				"allowance(address,address)": "infinite",
				"approve(address,uint256)": "infinite",
				"balanceOf(address)": "infinite",
				"balanceOfUnderlying(address)": "2975",
				"checkUpkeep(bytes)": "infinite",
				"claimFromTreasury(address,uint256)": "infinite",
				"debaseDuration()": "2519",
				"debaseRate()": "2497",
				"debaseTokenToFragment(uint256)": "infinite",
				"decimals()": "2533",
				"decreaseAllowance(address,uint256)": "infinite",
				"excludeDebasingSupply()": "2562",
				"fragmentToDebaseToken(uint256)": "infinite",
				"getOwner()": "2624",
				"holdingLimit()": "2474",
				"increaseAllowance(address,uint256)": "infinite",
				"isExcludedFromDebasing(address)": "2890",
				"isExcludedFromHoldingLimit(address)": "2934",
				"lastTimeStamp()": "2475",
				"lpPools(address)": "2936",
				"multiAirdropTokenRequested(address[],uint256[])": "infinite",
				"multiExcludedFromDebasing(address[],bool)": "infinite",
				"multiExcludedFromHoldingLimit(address[],bool)": "infinite",
				"name()": "infinite",
				"owner()": "2633",
				"pause()": "infinite",
				"paused()": "2635",
				"performUpkeep(bytes)": "infinite",
				"renounceOwnership()": "infinite",
				"sellTaxRate()": "2586",
				"setLastTime()": "infinite",
				"symbol()": "infinite",
				"tokenScalingFactor()": "2518",
				"totalSupply()": "infinite",
				"transfer(address,uint256)": "infinite",
				"transferFrom(address,address,uint256)": "infinite",
				"transferOwnership(address)": "infinite",
				"treasuryOperator(address)": "3000",
				"treasuryWallet()": "2626",
				"unpause()": "infinite",
				"updateDebaseDuration(uint256)": "infinite",
				"updateDebaseRate(uint256)": "infinite",
				"updateHoldingLimit(uint256)": "infinite",
				"updateLPPool(address,bool)": "infinite",
				"updateSellTaxRate(uint256)": "infinite",
				"updateTreasuryOperator(address,bool)": "infinite",
				"withdrawETH(address)": "infinite"
			},
			"internal": {
				"_approve(address,address,uint256)": "infinite",
				"_burn(address,uint256)": "infinite",
				"_debase()": "infinite",
				"_debaseTokenToFragment(uint256)": "infinite",
				"_debaseTokenToFragmentWithBase(uint256)": "infinite",
				"_excludedFromDebasing(address,bool)": "infinite",
				"_excludedFromHoldingLimit(address,bool)": "infinite",
				"_fragmentToDebaseToken(uint256)": "infinite",
				"_fragmentToDebaseTokenWithBase(uint256)": "infinite",
				"_mint(address,uint256)": "infinite",
				"_sendTokensTreasuryWallet(uint256,address)": "infinite",
				"_transfer(address,address,uint256)": "infinite",
				"_treasuryBalanceOf()": "infinite"
			}
		},
		"methodIdentifiers": {
			"PERCENTAGE_DENOMINATOR()": "b3cd4254",
			"TOKEN_DECIMALS()": "5b7f415c",
			"TOKEN_INTERNAL_DECIMALS()": "e32e3e15",
			"allowance(address,address)": "dd62ed3e",
			"approve(address,uint256)": "095ea7b3",
			"balanceOf(address)": "70a08231",
			"balanceOfUnderlying(address)": "3af9e669",
			"checkUpkeep(bytes)": "6e04ff0d",
			"claimFromTreasury(address,uint256)": "6aa3773f",
			"debaseDuration()": "685f59de",
			"debaseRate()": "2ce8bd56",
			"debaseTokenToFragment(uint256)": "24959246",
			"decimals()": "313ce567",
			"decreaseAllowance(address,uint256)": "a457c2d7",
			"excludeDebasingSupply()": "8f372fa3",
			"fragmentToDebaseToken(uint256)": "99697003",
			"getOwner()": "893d20e8",
			"holdingLimit()": "874a6ae7",
			"increaseAllowance(address,uint256)": "39509351",
			"isExcludedFromDebasing(address)": "924c2ead",
			"isExcludedFromHoldingLimit(address)": "8cf66b16",
			"lastTimeStamp()": "3f3b3b27",
			"lpPools(address)": "1658a700",
			"multiAirdropTokenRequested(address[],uint256[])": "e5a5e318",
			"multiExcludedFromDebasing(address[],bool)": "6c5ed03e",
			"multiExcludedFromHoldingLimit(address[],bool)": "7819f36f",
			"name()": "06fdde03",
			"owner()": "8da5cb5b",
			"pause()": "8456cb59",
			"paused()": "5c975abb",
			"performUpkeep(bytes)": "4585e33b",
			"renounceOwnership()": "715018a6",
			"sellTaxRate()": "24024efd",
			"setLastTime()": "5d70dde6",
			"symbol()": "95d89b41",
			"tokenScalingFactor()": "dc90b442",
			"totalSupply()": "18160ddd",
			"transfer(address,uint256)": "a9059cbb",
			"transferFrom(address,address,uint256)": "23b872dd",
			"transferOwnership(address)": "f2fde38b",
			"treasuryOperator(address)": "9220d3ed",
			"treasuryWallet()": "4626402b",
			"unpause()": "3f4ba83a",
			"updateDebaseDuration(uint256)": "df0ab308",
			"updateDebaseRate(uint256)": "81cea332",
			"updateHoldingLimit(uint256)": "3cde0c0f",
			"updateLPPool(address,bool)": "79825ede",
			"updateSellTaxRate(uint256)": "b4dade59",
			"updateTreasuryOperator(address,bool)": "75c2b13f",
			"withdrawETH(address)": "690d8320"
		}
	},
	"abi": [
		{
			"inputs": [
				{
					"internalType": "string",
					"name": "_tokenName",
					"type": "string"
				},
				{
					"internalType": "string",
					"name": "_tokenSymbol",
					"type": "string"
				},
				{
					"internalType": "uint256",
					"name": "_tSupply",
					"type": "uint256"
				},
				{
					"internalType": "address",
					"name": "_tokenOwner",
					"type": "address"
				},
				{
					"internalType": "uint256",
					"name": "_sellTaxRate",
					"type": "uint256"
				},
				{
					"internalType": "uint256",
					"name": "_debaseRate",
					"type": "uint256"
				},
				{
					"internalType": "address",
					"name": "_treasuryWallet",
					"type": "address"
				}
			],
			"stateMutability": "nonpayable",
			"type": "constructor"
		},
		{
			"inputs": [],
			"name": "OnlySimulatedBackend",
			"type": "error"
		},
		{
			"inputs": [
				{
					"internalType": "address",
					"name": "owner",
					"type": "address"
				}
			],
			"name": "OwnableInvalidOwner",
			"type": "error"
		},
		{
			"inputs": [
				{
					"internalType": "address",
					"name": "account",
					"type": "address"
				}
			],
			"name": "OwnableUnauthorizedAccount",
			"type": "error"
		},
		{
			"anonymous": false,
			"inputs": [
				{
					"indexed": true,
					"internalType": "address",
					"name": "owner",
					"type": "address"
				},
				{
					"indexed": true,
					"internalType": "address",
					"name": "spender",
					"type": "address"
				},
				{
					"indexed": false,
					"internalType": "uint256",
					"name": "value",
					"type": "uint256"
				}
			],
			"name": "Approval",
			"type": "event"
		},
		{
			"anonymous": false,
			"inputs": [
				{
					"indexed": true,
					"internalType": "address",
					"name": "from",
					"type": "address"
				},
				{
					"indexed": false,
					"internalType": "uint256",
					"name": "amount",
					"type": "uint256"
				}
			],
			"name": "Burn",
			"type": "event"
		},
		{
			"anonymous": false,
			"inputs": [
				{
					"indexed": true,
					"internalType": "address",
					"name": "to",
					"type": "address"
				},
				{
					"indexed": false,
					"internalType": "uint256",
					"name": "amount",
					"type": "uint256"
				}
			],
			"name": "Mint",
			"type": "event"
		},
		{
			"anonymous": false,
			"inputs": [
				{
					"indexed": true,
					"internalType": "address",
					"name": "previousOwner",
					"type": "address"
				},
				{
					"indexed": true,
					"internalType": "address",
					"name": "newOwner",
					"type": "address"
				}
			],
			"name": "OwnershipTransferred",
			"type": "event"
		},
		{
			"anonymous": false,
			"inputs": [
				{
					"indexed": false,
					"internalType": "address",
					"name": "account",
					"type": "address"
				}
			],
			"name": "Paused",
			"type": "event"
		},
		{
			"anonymous": false,
			"inputs": [
				{
					"indexed": true,
					"internalType": "address",
					"name": "from",
					"type": "address"
				},
				{
					"indexed": true,
					"internalType": "address",
					"name": "to",
					"type": "address"
				},
				{
					"indexed": false,
					"internalType": "uint256",
					"name": "value",
					"type": "uint256"
				}
			],
			"name": "Transfer",
			"type": "event"
		},
		{
			"anonymous": false,
			"inputs": [
				{
					"indexed": false,
					"internalType": "address",
					"name": "account",
					"type": "address"
				}
			],
			"name": "Unpaused",
			"type": "event"
		},
		{
			"inputs": [],
			"name": "PERCENTAGE_DENOMINATOR",
			"outputs": [
				{
					"internalType": "uint256",
					"name": "",
					"type": "uint256"
				}
			],
			"stateMutability": "view",
			"type": "function"
		},
		{
			"inputs": [],
			"name": "TOKEN_DECIMALS",
			"outputs": [
				{
					"internalType": "uint256",
					"name": "",
					"type": "uint256"
				}
			],
			"stateMutability": "view",
			"type": "function"
		},
		{
			"inputs": [],
			"name": "TOKEN_INTERNAL_DECIMALS",
			"outputs": [
				{
					"internalType": "uint256",
					"name": "",
					"type": "uint256"
				}
			],
			"stateMutability": "view",
			"type": "function"
		},
		{
			"inputs": [
				{
					"internalType": "address",
					"name": "_holder",
					"type": "address"
				},
				{
					"internalType": "address",
					"name": "_spender",
					"type": "address"
				}
			],
			"name": "allowance",
			"outputs": [
				{
					"internalType": "uint256",
					"name": "",
					"type": "uint256"
				}
			],
			"stateMutability": "view",
			"type": "function"
		},
		{
			"inputs": [
				{
					"internalType": "address",
					"name": "_spender",
					"type": "address"
				},
				{
					"internalType": "uint256",
					"name": "_amount",
					"type": "uint256"
				}
			],
			"name": "approve",
			"outputs": [
				{
					"internalType": "bool",
					"name": "",
					"type": "bool"
				}
			],
			"stateMutability": "nonpayable",
			"type": "function"
		},
		{
			"inputs": [
				{
					"internalType": "address",
					"name": "_account",
					"type": "address"
				}
			],
			"name": "balanceOf",
			"outputs": [
				{
					"internalType": "uint256",
					"name": "",
					"type": "uint256"
				}
			],
			"stateMutability": "view",
			"type": "function"
		},
		{
			"inputs": [
				{
					"internalType": "address",
					"name": "_account",
					"type": "address"
				}
			],
			"name": "balanceOfUnderlying",
			"outputs": [
				{
					"internalType": "uint256",
					"name": "",
					"type": "uint256"
				}
			],
			"stateMutability": "view",
			"type": "function"
		},
		{
			"inputs": [
				{
					"internalType": "bytes",
					"name": "checkData",
					"type": "bytes"
				}
			],
			"name": "checkUpkeep",
			"outputs": [
				{
					"internalType": "bool",
					"name": "upkeepNeeded",
					"type": "bool"
				},
				{
					"internalType": "bytes",
					"name": "performData",
					"type": "bytes"
				}
			],
			"stateMutability": "view",
			"type": "function"
		},
		{
			"inputs": [
				{
					"internalType": "address",
					"name": "_to",
					"type": "address"
				},
				{
					"internalType": "uint256",
					"name": "_amount",
					"type": "uint256"
				}
			],
			"name": "claimFromTreasury",
			"outputs": [],
			"stateMutability": "nonpayable",
			"type": "function"
		},
		{
			"inputs": [],
			"name": "debaseDuration",
			"outputs": [
				{
					"internalType": "uint256",
					"name": "",
					"type": "uint256"
				}
			],
			"stateMutability": "view",
			"type": "function"
		},
		{
			"inputs": [],
			"name": "debaseRate",
			"outputs": [
				{
					"internalType": "uint256",
					"name": "",
					"type": "uint256"
				}
			],
			"stateMutability": "view",
			"type": "function"
		},
		{
			"inputs": [
				{
					"internalType": "uint256",
					"name": "_debaseToken",
					"type": "uint256"
				}
			],
			"name": "debaseTokenToFragment",
			"outputs": [
				{
					"internalType": "uint256",
					"name": "",
					"type": "uint256"
				}
			],
			"stateMutability": "view",
			"type": "function"
		},
		{
			"inputs": [],
			"name": "decimals",
			"outputs": [
				{
					"internalType": "uint8",
					"name": "",
					"type": "uint8"
				}
			],
			"stateMutability": "view",
			"type": "function"
		},
		{
			"inputs": [
				{
					"internalType": "address",
					"name": "_spender",
					"type": "address"
				},
				{
					"internalType": "uint256",
					"name": "_subtractedValue",
					"type": "uint256"
				}
			],
			"name": "decreaseAllowance",
			"outputs": [
				{
					"internalType": "bool",
					"name": "",
					"type": "bool"
				}
			],
			"stateMutability": "nonpayable",
			"type": "function"
		},
		{
			"inputs": [],
			"name": "excludeDebasingSupply",
			"outputs": [
				{
					"internalType": "uint256",
					"name": "",
					"type": "uint256"
				}
			],
			"stateMutability": "view",
			"type": "function"
		},
		{
			"inputs": [
				{
					"internalType": "uint256",
					"name": "_fragment",
					"type": "uint256"
				}
			],
			"name": "fragmentToDebaseToken",
			"outputs": [
				{
					"internalType": "uint256",
					"name": "",
					"type": "uint256"
				}
			],
			"stateMutability": "view",
			"type": "function"
		},
		{
			"inputs": [],
			"name": "getOwner",
			"outputs": [
				{
					"internalType": "address",
					"name": "",
					"type": "address"
				}
			],
			"stateMutability": "view",
			"type": "function"
		},
		{
			"inputs": [],
			"name": "holdingLimit",
			"outputs": [
				{
					"internalType": "uint256",
					"name": "",
					"type": "uint256"
				}
			],
			"stateMutability": "view",
			"type": "function"
		},
		{
			"inputs": [
				{
					"internalType": "address",
					"name": "_spender",
					"type": "address"
				},
				{
					"internalType": "uint256",
					"name": "_addedValue",
					"type": "uint256"
				}
			],
			"name": "increaseAllowance",
			"outputs": [
				{
					"internalType": "bool",
					"name": "",
					"type": "bool"
				}
			],
			"stateMutability": "nonpayable",
			"type": "function"
		},
		{
			"inputs": [
				{
					"internalType": "address",
					"name": "",
					"type": "address"
				}
			],
			"name": "isExcludedFromDebasing",
			"outputs": [
				{
					"internalType": "bool",
					"name": "",
					"type": "bool"
				}
			],
			"stateMutability": "view",
			"type": "function"
		},
		{
			"inputs": [
				{
					"internalType": "address",
					"name": "",
					"type": "address"
				}
			],
			"name": "isExcludedFromHoldingLimit",
			"outputs": [
				{
					"internalType": "bool",
					"name": "",
					"type": "bool"
				}
			],
			"stateMutability": "view",
			"type": "function"
		},
		{
			"inputs": [],
			"name": "lastTimeStamp",
			"outputs": [
				{
					"internalType": "uint256",
					"name": "",
					"type": "uint256"
				}
			],
			"stateMutability": "view",
			"type": "function"
		},
		{
			"inputs": [
				{
					"internalType": "address",
					"name": "",
					"type": "address"
				}
			],
			"name": "lpPools",
			"outputs": [
				{
					"internalType": "bool",
					"name": "",
					"type": "bool"
				}
			],
			"stateMutability": "view",
			"type": "function"
		},
		{
			"inputs": [
				{
					"internalType": "address[]",
					"name": "_airdroppers",
					"type": "address[]"
				},
				{
					"internalType": "uint256[]",
					"name": "_amounts",
					"type": "uint256[]"
				}
			],
			"name": "multiAirdropTokenRequested",
			"outputs": [],
			"stateMutability": "nonpayable",
			"type": "function"
		},
		{
			"inputs": [
				{
					"internalType": "address[]",
					"name": "_accounts",
					"type": "address[]"
				},
				{
					"internalType": "bool",
					"name": "_isExcluded",
					"type": "bool"
				}
			],
			"name": "multiExcludedFromDebasing",
			"outputs": [],
			"stateMutability": "nonpayable",
			"type": "function"
		},
		{
			"inputs": [
				{
					"internalType": "address[]",
					"name": "_accounts",
					"type": "address[]"
				},
				{
					"internalType": "bool",
					"name": "_isExcluded",
					"type": "bool"
				}
			],
			"name": "multiExcludedFromHoldingLimit",
			"outputs": [],
			"stateMutability": "nonpayable",
			"type": "function"
		},
		{
			"inputs": [],
			"name": "name",
			"outputs": [
				{
					"internalType": "string",
					"name": "",
					"type": "string"
				}
			],
			"stateMutability": "view",
			"type": "function"
		},
		{
			"inputs": [],
			"name": "owner",
			"outputs": [
				{
					"internalType": "address",
					"name": "",
					"type": "address"
				}
			],
			"stateMutability": "view",
			"type": "function"
		},
		{
			"inputs": [],
			"name": "pause",
			"outputs": [],
			"stateMutability": "nonpayable",
			"type": "function"
		},
		{
			"inputs": [],
			"name": "paused",
			"outputs": [
				{
					"internalType": "bool",
					"name": "",
					"type": "bool"
				}
			],
			"stateMutability": "view",
			"type": "function"
		},
		{
			"inputs": [
				{
					"internalType": "bytes",
					"name": "",
					"type": "bytes"
				}
			],
			"name": "performUpkeep",
			"outputs": [],
			"stateMutability": "nonpayable",
			"type": "function"
		},
		{
			"inputs": [],
			"name": "renounceOwnership",
			"outputs": [],
			"stateMutability": "nonpayable",
			"type": "function"
		},
		{
			"inputs": [],
			"name": "sellTaxRate",
			"outputs": [
				{
					"internalType": "uint256",
					"name": "",
					"type": "uint256"
				}
			],
			"stateMutability": "view",
			"type": "function"
		},
		{
			"inputs": [],
			"name": "setLastTime",
			"outputs": [],
			"stateMutability": "nonpayable",
			"type": "function"
		},
		{
			"inputs": [],
			"name": "symbol",
			"outputs": [
				{
					"internalType": "string",
					"name": "",
					"type": "string"
				}
			],
			"stateMutability": "view",
			"type": "function"
		},
		{
			"inputs": [],
			"name": "tokenScalingFactor",
			"outputs": [
				{
					"internalType": "uint256",
					"name": "",
					"type": "uint256"
				}
			],
			"stateMutability": "view",
			"type": "function"
		},
		{
			"inputs": [],
			"name": "totalSupply",
			"outputs": [
				{
					"internalType": "uint256",
					"name": "",
					"type": "uint256"
				}
			],
			"stateMutability": "view",
			"type": "function"
		},
		{
			"inputs": [
				{
					"internalType": "address",
					"name": "_recipient",
					"type": "address"
				},
				{
					"internalType": "uint256",
					"name": "_amount",
					"type": "uint256"
				}
			],
			"name": "transfer",
			"outputs": [
				{
					"internalType": "bool",
					"name": "",
					"type": "bool"
				}
			],
			"stateMutability": "nonpayable",
			"type": "function"
		},
		{
			"inputs": [
				{
					"internalType": "address",
					"name": "_sender",
					"type": "address"
				},
				{
					"internalType": "address",
					"name": "_recipient",
					"type": "address"
				},
				{
					"internalType": "uint256",
					"name": "_amount",
					"type": "uint256"
				}
			],
			"name": "transferFrom",
			"outputs": [
				{
					"internalType": "bool",
					"name": "",
					"type": "bool"
				}
			],
			"stateMutability": "nonpayable",
			"type": "function"
		},
		{
			"inputs": [
				{
					"internalType": "address",
					"name": "newOwner",
					"type": "address"
				}
			],
			"name": "transferOwnership",
			"outputs": [],
			"stateMutability": "nonpayable",
			"type": "function"
		},
		{
			"inputs": [
				{
					"internalType": "address",
					"name": "",
					"type": "address"
				}
			],
			"name": "treasuryOperator",
			"outputs": [
				{
					"internalType": "bool",
					"name": "",
					"type": "bool"
				}
			],
			"stateMutability": "view",
			"type": "function"
		},
		{
			"inputs": [],
			"name": "treasuryWallet",
			"outputs": [
				{
					"internalType": "address",
					"name": "",
					"type": "address"
				}
			],
			"stateMutability": "view",
			"type": "function"
		},
		{
			"inputs": [],
			"name": "unpause",
			"outputs": [],
			"stateMutability": "nonpayable",
			"type": "function"
		},
		{
			"inputs": [
				{
					"internalType": "uint256",
					"name": "_debaseDuration",
					"type": "uint256"
				}
			],
			"name": "updateDebaseDuration",
			"outputs": [],
			"stateMutability": "nonpayable",
			"type": "function"
		},
		{
			"inputs": [
				{
					"internalType": "uint256",
					"name": "_debaseRate",
					"type": "uint256"
				}
			],
			"name": "updateDebaseRate",
			"outputs": [],
			"stateMutability": "nonpayable",
			"type": "function"
		},
		{
			"inputs": [
				{
					"internalType": "uint256",
					"name": "_holdingLimit",
					"type": "uint256"
				}
			],
			"name": "updateHoldingLimit",
			"outputs": [],
			"stateMutability": "nonpayable",
			"type": "function"
		},
		{
			"inputs": [
				{
					"internalType": "address",
					"name": "_lpPool",
					"type": "address"
				},
				{
					"internalType": "bool",
					"name": "_isLPPool",
					"type": "bool"
				}
			],
			"name": "updateLPPool",
			"outputs": [],
			"stateMutability": "nonpayable",
			"type": "function"
		},
		{
			"inputs": [
				{
					"internalType": "uint256",
					"name": "_sellTaxRate",
					"type": "uint256"
				}
			],
			"name": "updateSellTaxRate",
			"outputs": [],
			"stateMutability": "nonpayable",
			"type": "function"
		},
		{
			"inputs": [
				{
					"internalType": "address",
					"name": "_addr",
					"type": "address"
				},
				{
					"internalType": "bool",
					"name": "_isOperator",
					"type": "bool"
				}
			],
			"name": "updateTreasuryOperator",
			"outputs": [],
			"stateMutability": "nonpayable",
			"type": "function"
		},
		{
			"inputs": [
				{
					"internalType": "address",
					"name": "_to",
					"type": "address"
				}
			],
			"name": "withdrawETH",
			"outputs": [],
			"stateMutability": "nonpayable",
			"type": "function"
		},
		{
			"stateMutability": "payable",
			"type": "receive"
		}
	]
}