{
	"data": {
		"bytecode": {
			"linkReferences": {},
			"object": "608060405234801561000f575f80fd5b506040516134a63803806134a683398101604081905261002e91610685565b5f805460ff1916905560018055338061006157604051631e4fbdf760e01b81525f60048201526024015b60405180910390fd5b61006a816101d6565b50600361007788826107ac565b50600461008487826107ac565b50601260055561009c670de0b6b3a76400008661087a565b60068190556007819055612710906100b590606461087a565b6100bf9190610891565b601055600c839055600d829055670de0b6b3a7640000600e5562015180600f555f600a5542601555600b80546001600160a01b0319166001600160a01b03831617905561010d846001610227565b61011884600161032b565b600b5461012f906001600160a01b03166001610227565b600b54610146906001600160a01b0316600161032b565b600654610152906103ab565b6001600160a01b0385165f908152600960205260409020556101726103d8565b836001600160a01b03165f6001600160a01b03167fddf252ad1be2c89b69c2b068fc378daa952ba7f163c4a11628f55a4df523b3ef6006546040516101b991815260200190565b60405180910390a36101ca846103ea565b505050505050506108d6565b600280546001600160a01b038381166001600160a01b0319831681179093556040519116919082907f8be0079c531659141344cd1fd0a4f28419497f9722a3daafe3b4186f6b6457e0905f90a35050565b6001600160a01b03821661027d5760405162461bcd60e51b815260206004820152601a60248201527f4163636f756e742073686f756c646e2774206265207a65726f2e0000000000006044820152606401610058565b6001600160a01b0382165f9081526012602052604081205460ff16906102a284610427565b905082151582151514610325576001600160a01b0384165f908152601260205260409020805460ff1916841515179055811580156102dd5750825b156102fe578060075f8282546102f391906108b0565b909155506103259050565b818015610309575082155b15610325578060075f82825461031f91906108c3565b90915550505b50505050565b6001600160a01b0382166103815760405162461bcd60e51b815260206004820152601a60248201527f4163636f756e742073686f756c646e2774206265207a65726f2e0000000000006044820152606401610058565b6001600160a01b03919091165f908152601360205260409020805460ff1916911515919091179055565b5f6103d2670de0b6b3a76400006103cc8469d3c21bcecceda1000000610486565b90610498565b92915050565b6103e06104a3565b6103e86104d0565b565b6103f26104a3565b6001600160a01b03811661041b57604051631e4fbdf760e01b81525f6004820152602401610058565b610424816101d6565b50565b6001600160a01b0381165f9081526012602052604081205460ff161561046557600b546001600160a01b0390811690831603610465576103d2610529565b6001600160a01b0382165f908152600960205260409020546103d290610564565b5f610491828461087a565b9392505050565b5f6104918284610891565b6002546001600160a01b031633146103e85760405163118cdaa760e01b8152336004820152602401610058565b6104d8610588565b5f805460ff191660011790557f62e78cea01bee320cd4e420270b5ea74000d11b0c9f74754ebdbfc544b05a25861050c3390565b6040516001600160a01b03909116815260200160405180910390a1565b600b546001600160a01b03165f90815260096020526040812054819061054e90610564565b905080600a5461055e91906108b0565b91505090565b5f6103d269d3c21bcecceda10000006103cc600e548561048660201b90919060201c565b5f5460ff16156103e85760405162461bcd60e51b815260206004820152601060248201526f14185d5cd8589b194e881c185d5cd95960821b6044820152606401610058565b634e487b7160e01b5f52604160045260245ffd5b5f82601f8301126105f0575f80fd5b81516001600160401b03811115610609576106096105cd565b604051601f8201601f19908116603f011681016001600160401b0381118282101715610637576106376105cd565b60405281815283820160200185101561064e575f80fd5b8160208501602083015e5f918101602001919091529392505050565b80516001600160a01b0381168114610680575f80fd5b919050565b5f805f805f805f60e0888a03121561069b575f80fd5b87516001600160401b038111156106b0575f80fd5b6106bc8a828b016105e1565b60208a015190985090506001600160401b038111156106d9575f80fd5b6106e58a828b016105e1565b60408a015190975095506106fd90506060890161066a565b608089015160a08a01519195509350915061071a60c0890161066a565b905092959891949750929550565b600181811c9082168061073c57607f821691505b60208210810361075a57634e487b7160e01b5f52602260045260245ffd5b50919050565b601f8211156107a757805f5260205f20601f840160051c810160208510156107855750805b601f840160051c820191505b818110156107a4575f8155600101610791565b50505b505050565b81516001600160401b038111156107c5576107c56105cd565b6107d9816107d38454610728565b84610760565b6020601f82116001811461080b575f83156107f45750848201515b5f19600385901b1c1916600184901b1784556107a4565b5f84815260208120601f198516915b8281101561083a578785015182556020948501946001909201910161081a565b508482101561085757868401515f19600387901b60f8161c191681555b50505050600190811b01905550565b634e487b7160e01b5f52601160045260245ffd5b80820281158282048414176103d2576103d2610866565b5f826108ab57634e487b7160e01b5f52601260045260245ffd5b500490565b808201808211156103d2576103d2610866565b818103818111156103d2576103d2610866565b612bc3806108e35f395ff3fe608060405260043610610374575f3560e01c8063702115dd116101c85780639220d3ed116100fd578063b3cd42541161009d578063df0ab3081161006d578063df0ab30814610a24578063e2ff244014610a43578063e5a5e31814610a57578063f2fde38b14610a76575f80fd5b8063b3cd425414610997578063b4dade59146109ac578063dc90b442146109cb578063dd62ed3e146109e0575f80fd5b80639cc2921c116100d85780639cc2921c1461091d578063a457c2d71461093c578063a6d1b8911461095b578063a9059cbb14610978575f80fd5b80639220d3ed146108ad578063924c2ead146108db57806395d89b4114610909575f80fd5b80638456cb591161016857806389eec0f11161014357806389eec0f11461082e5780638cf66b161461084d5780638da5cb5b1461087b5780638f372fa314610898575f80fd5b80638456cb59146107f1578063874a6ae714610805578063893d20e81461081a575f80fd5b806375c2b13f116101a357806375c2b13f146107755780637819f36f1461079457806379825ede146107b357806381cea332146107d2575f80fd5b8063702115dd1461072357806370a0823114610742578063715018a614610761575f80fd5b80633f3b3b27116102a95780635d70dde611610249578063690d832011610219578063690d8320146106995780636aa3773f146106b85780636c5ed03e146106d75780636e04ff0d146106f6575f80fd5b80635d70dde6146106325780636161eb1814610646578063639f3cc714610665578063685f59de14610684575f80fd5b80634626402b116102845780634626402b146105ab5780634e6ec247146105e25780635b7f415c146106015780635c975abb1461061c575f80fd5b80633f3b3b27146105635780633f4ba83a146105785780634585e33b1461058c575f80fd5b80632ce8bd561161031457806335c85a34116102ef57806335c85a34146104d257806339509351146104f15780633af9e669146105105780633cde0c0f14610544575f80fd5b80632ce8bd561461047d57806330e0789e14610492578063313ce567146104b1575f80fd5b80631658a7001161034f5780631658a700146103f957806318160ddd1461042757806323b872dd1461044957806324024efd14610468575f80fd5b806306fdde031461037f578063095ea7b3146103a9578063104e81ff146103d8575f80fd5b3661037b57005b5f80fd5b34801561038a575f80fd5b50610393610a95565b6040516103a09190612664565b60405180910390f35b3480156103b4575f80fd5b506103c86103c3366004612691565b610b21565b60405190151581526020016103a0565b3480156103e3575f80fd5b506103f76103f23660046126b9565b610b37565b005b348015610404575f80fd5b506103c86104133660046126f3565b60116020525f908152604090205460ff1681565b348015610432575f80fd5b5061043b610c60565b6040519081526020016103a0565b348015610454575f80fd5b506103c86104633660046126b9565b610c76565b348015610473575f80fd5b5061043b600c5481565b348015610488575f80fd5b5061043b600d5481565b34801561049d575f80fd5b506103f76104ac3660046126b9565b610cd8565b3480156104bc575f80fd5b5060055460405160ff90911681526020016103a0565b3480156104dd575f80fd5b506103f76104ec36600461271b565b611252565b3480156104fc575f80fd5b506103c861050b366004612691565b6112d2565b34801561051b575f80fd5b5061043b61052a3660046126f3565b6001600160a01b03165f9081526009602052604090205490565b34801561054f575f80fd5b506103f761055e36600461274c565b611307565b34801561056e575f80fd5b5061043b60155481565b348015610583575f80fd5b506103f7611314565b348015610597575f80fd5b506103f76105a6366004612763565b611326565b3480156105b6575f80fd5b50600b546105ca906001600160a01b031681565b6040516001600160a01b0390911681526020016103a0565b3480156105ed575f80fd5b506103f76105fc366004612691565b61140d565b34801561060c575f80fd5b5061043b670de0b6b3a764000081565b348015610627575f80fd5b505f5460ff166103c8565b34801561063d575f80fd5b506103f7611578565b348015610651575f80fd5b506103f7610660366004612691565b611594565b348015610670575f80fd5b5061043b61067f36600461274c565b6116ef565b34801561068f575f80fd5b5061043b600f5481565b3480156106a4575f80fd5b506103f76106b33660046126f3565b611719565b3480156106c3575f80fd5b506103f76106d2366004612691565b61180c565b3480156106e2575f80fd5b506103f76106f13660046128aa565b611979565b348015610701575f80fd5b50610715610710366004612763565b611a4f565b6040516103a09291906128ec565b34801561072e575f80fd5b506103f761073d36600461271b565b611aa5565b34801561074d575f80fd5b5061043b61075c3660046126f3565b611ba9565b34801561076c575f80fd5b506103f7611c08565b348015610780575f80fd5b506103f761078f36600461271b565b611c19565b34801561079f575f80fd5b506103f76107ae3660046128aa565b611ca1565b3480156107be575f80fd5b506103f76107cd36600461271b565b611cdf565b3480156107dd575f80fd5b506103f76107ec36600461274c565b611d7f565b3480156107fc575f80fd5b506103f7611dae565b348015610810575f80fd5b5061043b60105481565b348015610825575f80fd5b506105ca611dbe565b348015610839575f80fd5b5061043b61084836600461274c565b611dd1565b348015610858575f80fd5b506103c86108673660046126f3565b60136020525f908152604090205460ff1681565b348015610886575f80fd5b506002546001600160a01b03166105ca565b3480156108a3575f80fd5b5061043b60075481565b3480156108b8575f80fd5b506103c86108c73660046126f3565b60146020525f908152604090205460ff1681565b3480156108e6575f80fd5b506103c86108f53660046126f3565b60126020525f908152604090205460ff1681565b348015610914575f80fd5b50610393611df2565b348015610928575f80fd5b506103f761093736600461290e565b611dff565b348015610947575f80fd5b506103c8610956366004612691565b611e72565b348015610966575f80fd5b5061043b69d3c21bcecceda100000081565b348015610983575f80fd5b506103c8610992366004612691565b611ebf565b3480156109a2575f80fd5b5061043b61271081565b3480156109b7575f80fd5b506103f76109c636600461274c565b611ecb565b3480156109d6575f80fd5b5061043b600e5481565b3480156109eb575f80fd5b5061043b6109fa36600461292f565b6001600160a01b039182165f90815260086020908152604080832093909416825291909152205490565b348015610a2f575f80fd5b506103f7610a3e36600461274c565b611efa565b348015610a4e575f80fd5b5061043b611f07565b348015610a62575f80fd5b506103f7610a71366004612957565b611f42565b348015610a81575f80fd5b506103f7610a903660046126f3565b6122e7565b60038054610aa290612a15565b80601f0160208091040260200160405190810160405280929190818152602001828054610ace90612a15565b8015610b195780601f10610af057610100808354040283529160200191610b19565b820191905f5260205f20905b815481529060010190602001808311610afc57829003601f168201915b505050505081565b5f610b2d338484610b37565b5060015b92915050565b6001600160a01b038316610b9e5760405162461bcd60e51b8152602060048201526024808201527f45524332303a20617070726f76652066726f6d20746865207a65726f206164646044820152637265737360e01b60648201526084015b60405180910390fd5b6001600160a01b038216610bff5760405162461bcd60e51b815260206004820152602260248201527f45524332303a20617070726f766520746f20746865207a65726f206164647265604482015261737360f01b6064820152608401610b95565b6001600160a01b038381165f8181526008602090815260408083209487168084529482529182902085905590518481527f8c5be1e5ebec7d5bd14f71427d1e84f3dd0314c0f7b2291e5b200ac8c7c3b92591015b60405180910390a3505050565b5f600a54600654610c719190612a61565b905090565b5f610c82848484610cd8565b610cce84336103f285604051806060016040528060288152602001612b21602891396001600160a01b038a165f9081526008602090815260408083203384529091529020549190612324565b5060019392505050565b610ce061234f565b6001600160a01b038316610d445760405162461bcd60e51b815260206004820152602560248201527f45524332303a207472616e736665722066726f6d20746865207a65726f206164604482015264647265737360d81b6064820152608401610b95565b6001600160a01b038216610da65760405162461bcd60e51b815260206004820152602360248201527f45524332303a207472616e7366657220746f20746865207a65726f206164647260448201526265737360e81b6064820152608401610b95565b80610db084611ba9565b1015610dfe5760405162461bcd60e51b815260206004820152601f60248201527f496e73756666696369656e742046756e647320466f72205472616e73666572006044820152606401610b95565b601054610e0a83611ba9565b10158015610e3057506001600160a01b0382165f9081526013602052604090205460ff16155b15610e7d5760405162461bcd60e51b815260206004820152601860248201527f486f6c64696e6720546f6b656e732065786365656465642100000000000000006044820152606401610b95565b6001600160a01b0382165f90815260136020526040902054819060ff16158015610ebb575060105481610eaf85611ba9565b610eb99190612a61565b115b15610eee5760105481610ecd85611ba9565b610ed79190612a61565b610ee19190612a74565b610eeb9082612a74565b90505b5f610ef882611dd1565b6001600160a01b0386165f9081526012602052604090205490915060ff1615610f2757610f2482611dd1565b90505b5f610f3a6002546001600160a01b031690565b6001600160a01b0316866001600160a01b031614158015610f7257506001600160a01b0385165f9081526011602052604090205460ff165b15610f9557612710600c5484610f889190612a87565b610f929190612a9e565b90505b5f610fa08285612a74565b90505f610fac82611dd1565b6001600160a01b0388165f908152601260205260408120549192509060ff16610fd55781610fde565b610fde83611dd1565b6001600160a01b038a165f9081526009602052604081208054929350879290919061100a908490612a74565b90915550506001600160a01b0388165f9081526012602052604090205460ff1615611061576001600160a01b0388165f9081526009602052604081208054839290611056908490612a61565b9091555061108e9050565b6001600160a01b0388165f9081526009602052604081208054849290611088908490612a61565b90915550505b83600a5f82825461109f9190612a61565b925050819055508360065f8282546110b79190612a74565b92505081905550876001600160a01b0316896001600160a01b03165f80516020612b49833981519152856040516110f091815260200190565b60405180910390a3831561113157600b546040518581526001600160a01b03918216918b16905f80516020612b498339815191529060200160405180910390a35b6001600160a01b0389165f9081526012602052604090205460ff1615801561117057506001600160a01b0388165f9081526012602052604090205460ff165b15611191578260075f8282546111869190612a61565b909155506112269050565b6001600160a01b0389165f9081526012602052604090205460ff1680156111d057506001600160a01b0388165f9081526012602052604090205460ff16155b156111e6578260075f8282546111869190612a74565b6001600160a01b0389165f9081526012602052604090205460ff16801561122457506001600160a01b0388165f9081526012602052604090205460ff165b505b600a541561124757600a54600b5461124791906001600160a01b0316611dff565b505050505050505050565b6001600160a01b0382166112a85760405162461bcd60e51b815260206004820152601a60248201527f4163636f756e742073686f756c646e2774206265207a65726f2e0000000000006044820152606401610b95565b6001600160a01b03919091165f908152601360205260409020805460ff1916911515919091179055565b335f8181526008602090815260408083206001600160a01b03871684529091528120549091610b2d9185906103f29086612394565b61130f6123a6565b601055565b61131c6123a6565b6113246123d3565b565b600f546015546113369042612a74565b116113835760405162461bcd60e51b815260206004820152601e60248201527f4b656570557020726571756972656d656e74206973206e6f74206d65742100006044820152606401610b95565b60075460065410156113fd5760405162461bcd60e51b815260206004820152603e60248201527f74537570706c79206d7573742062652067726561746572207468616e206f722060448201527f657175616c20746f206578636c7564654465626173696e67537570706c7900006064820152608401610b95565b611405612424565b505042601555565b6001600160a01b0382166114635760405162461bcd60e51b815260206004820152601f60248201527f45524332303a206d696e7420746f20746865207a65726f2061646472657373006044820152606401610b95565b8060065f8282546114749190612a61565b909155505f905061148482611dd1565b6001600160a01b0384165f9081526012602052604090205490915060ff16156114ca578160075f8282546114b89190612a61565b909155506114c7905082611dd1565b90505b6001600160a01b0383165f90815260096020526040812080548392906114f1908490612a61565b90915550506040518281526001600160a01b038416907f0f6798a560793a54c3bcfe86a93cde1e73087d944c0ea20544137d41213968859060200160405180910390a2600b546001600160a01b03848116911614611573576040518281526001600160a01b038416905f905f80516020612b4983398151915290602001610c53565b505050565b6115806123a6565b42601554111561158e575f80fd5b42601555565b6001600160a01b0382166115f45760405162461bcd60e51b815260206004820152602160248201527f45524332303a206275726e2066726f6d20746865207a65726f206164647265736044820152607360f81b6064820152608401610b95565b8060065f8282546116059190612a74565b909155505f905061161582611dd1565b6001600160a01b0384165f9081526012602052604090205490915060ff161561165b578160075f8282546116499190612a74565b90915550611658905082611dd1565b90505b6001600160a01b0383165f9081526009602052604081208054839290611682908490612a74565b90915550506040518281526001600160a01b038416907fcc16f5dbb4873280815c1ee09dbd06736cffcc184412cf7a71a0fdb75d397ca59060200160405180910390a26040518281525f906001600160a01b038516905f80516020612b4983398151915290602001610c53565b5f610b3169d3c21bcecceda1000000611713600e54856124f290919063ffffffff16565b906124fd565b6117216123a6565b6001600160a01b0381166117775760405162461bcd60e51b815260206004820152601d60248201527f496e76616c696420616464726573733a207a65726f20616464726573730000006044820152606401610b95565b5f816001600160a01b0316476040515f6040518083038185875af1925050503d805f81146117c0576040519150601f19603f3d011682016040523d82523d5f602084013e6117c5565b606091505b50509050806118085760405162461bcd60e51b815260206004820152600f60248201526e151c985b9cd9995c8811985a5b1959608a1b6044820152606401610b95565b5050565b61181461234f565b335f9081526014602052604090205460ff168061183b57506002546001600160a01b031633145b611843575f80fd5b600a541561186457600a54600b5461186491906001600160a01b0316611dff565b6001600160a01b0382165f9081526012602052604090205460ff16156118bf5761188d81611dd1565b6001600160a01b0383165f90815260096020526040812080549091906118b4908490612a61565b9091555061190d9050565b6118c881611dd1565b6001600160a01b0383165f90815260096020526040812080549091906118ef908490612a61565b925050819055508060075f8282546119079190612a74565b90915550505b61191681611dd1565b600b546001600160a01b03165f908152600960205260408120805490919061193f908490612a74565b9091555050600b546040518281526001600160a01b038481169216905f80516020612b498339815191529060200160405180910390a35050565b6119816123a6565b5f5b825181101561157357600b5483516001600160a01b03909116908490839081106119af576119af612abd565b60200260200101516001600160a01b031603611a245760405162461bcd60e51b815260206004820152602e60248201527f54726561737572792077616c6c65742063616e6e6f7420626520696e636c756460448201526d656420696e206465626173696e6760901b6064820152608401610b95565b611a47838281518110611a3957611a39612abd565b602002602001015183611aa5565b600101611983565b5f6060600f5460155442611a639190612a74565b11915083838080601f0160208091040260200160405190810160405280939291908181526020018383808284375f920191909152509293505050509250929050565b6001600160a01b038216611afb5760405162461bcd60e51b815260206004820152601a60248201527f4163636f756e742073686f756c646e2774206265207a65726f2e0000000000006044820152606401610b95565b6001600160a01b0382165f9081526012602052604081205460ff1690611b2084611ba9565b905082151582151514611ba3576001600160a01b0384165f908152601260205260409020805460ff191684151517905581158015611b5b5750825b15611b7c578060075f828254611b719190612a61565b90915550611ba39050565b818015611b87575082155b15611ba3578060075f828254611b9d9190612a74565b90915550505b50505050565b6001600160a01b0381165f9081526012602052604081205460ff1615611be757600b546001600160a01b0390811690831603611be757610b31611f07565b6001600160a01b0382165f90815260096020526040902054610b31906116ef565b611c106123a6565b6113245f612508565b611c216123a6565b6001600160a01b038216611c775760405162461bcd60e51b815260206004820152601b60248201527f4f70657261746f722073686f756c646e2774206265207a65726f2e00000000006044820152606401610b95565b6001600160a01b03919091165f908152601460205260409020805460ff1916911515919091179055565b611ca96123a6565b5f5b825181101561157357611cd7838281518110611cc957611cc9612abd565b602002602001015183611252565b600101611cab565b611ce76123a6565b6001600160a01b038216611d485760405162461bcd60e51b815260206004820152602260248201527f4c5020506f6f6c20616464726573732073686f756c646e2774206265207a65726044820152616f2160f01b6064820152608401610b95565b6001600160a01b0382165f908152601160205260409020805460ff1916821515179055611d758282611aa5565b6118088282611252565b611d876123a6565b612710811115611da95760405162461bcd60e51b8152600401610b9590612ad1565b600d55565b611db66123a6565b611324612559565b5f610c716002546001600160a01b031690565b5f610b31670de0b6b3a76400006117138469d3c21bcecceda10000006124f2565b60048054610aa290612a15565b81600a541015611e515760405162461bcd60e51b815260206004820152601d60248201527f496e73756666696369656e742042616c616e636520746f20636c61696d0000006044820152606401610b95565b81600a5f828254611e629190612a74565b909155506118089050818361140d565b5f610b2d33846103f285604051806060016040528060258152602001612b6960259139335f9081526008602090815260408083206001600160a01b038d1684529091529020549190612324565b5f610b2d338484610cd8565b611ed36123a6565b611388811115611ef55760405162461bcd60e51b8152600401610b9590612ad1565b600c55565b611f026123a6565b600f55565b600b546001600160a01b03165f908152600960205260408120548190611f2c906116ef565b905080600a54611f3c9190612a61565b91505090565b611f4a612595565b611f5261234f565b8051825114611f9c5760405162461bcd60e51b8152602060048201526016602482015275082e4e4c2f2e640d8cadccee8d040dad2e6dac2e8c6d60531b6044820152606401610b95565b5f805b8251811015611fd757828181518110611fba57611fba612abd565b602002602001015182611fcd9190612a61565b9150600101611f9f565b5080611fe233611ba9565b10156120275760405162461bcd60e51b8152602060048201526014602482015273496e73756666696369656e742062616c616e636560601b6044820152606401610b95565b5f5b83518110156122dc5782818151811061204457612044612abd565b602002602001015161205533611ba9565b11156122d457335f9081526012602052604090205460ff16156120ee5761209483828151811061208757612087612abd565b6020026020010151611dd1565b335f90815260096020526040812080549091906120b2908490612a74565b925050819055508281815181106120cb576120cb612abd565b602002602001015160075f8282546120e39190612a74565b909155506121279050565b61210383828151811061208757612087612abd565b335f9081526009602052604081208054909190612121908490612a74565b90915550505b60125f85838151811061213c5761213c612abd565b6020908102919091018101516001600160a01b031682528101919091526040015f205460ff16156122025761217c83828151811061208757612087612abd565b60095f86848151811061219157612191612abd565b60200260200101516001600160a01b03166001600160a01b031681526020019081526020015f205f8282546121c69190612a61565b925050819055508281815181106121df576121df612abd565b602002602001015160075f8282546121f79190612a61565b909155506122679050565b61221783828151811061208757612087612abd565b60095f86848151811061222c5761222c612abd565b60200260200101516001600160a01b03166001600160a01b031681526020019081526020015f205f8282546122619190612a61565b90915550505b83818151811061227957612279612abd565b60200260200101516001600160a01b0316336001600160a01b03165f80516020612b498339815191528584815181106122b4576122b4612abd565b60200260200101516040516122cb91815260200190565b60405180910390a35b600101612029565b505061180860018055565b6122ef6123a6565b6001600160a01b03811661231857604051631e4fbdf760e01b81525f6004820152602401610b95565b61232181612508565b50565b5f81848411156123475760405162461bcd60e51b8152600401610b959190612664565b505050900390565b5f5460ff16156113245760405162461bcd60e51b815260206004820152601060248201526f14185d5cd8589b194e881c185d5cd95960821b6044820152606401610b95565b5f61239f8284612a61565b9392505050565b6002546001600160a01b031633146113245760405163118cdaa760e01b8152336004820152602401610b95565b6123db6125ee565b5f805460ff191690557f5db9ee0a495bf2e6ff9c91a7834c1ba4fdd244a5e8aa4e537bd38aeae4b073aa335b6040516001600160a01b03909116815260200160405180910390a1565b61242c61234f565b5f612710670de0b6b3a7640000600d546124469190612a87565b6124509190612a9e565b90505f6007546006546124639190612a74565b9050670de0b6b3a76400006124788382612a74565b600e546124859190612a87565b61248f9190612a9e565b600e555f670de0b6b3a76400006124a68482612a74565b6124b09084612a87565b6124ba9190612a9e565b90505f6124c78284612a74565b905080600a5f8282546124da9190612a61565b925050819055508060065f828254611b9d9190612a74565b5f61239f8284612a87565b5f61239f8284612a9e565b600280546001600160a01b038381166001600160a01b0319831681179093556040519116919082907f8be0079c531659141344cd1fd0a4f28419497f9722a3daafe3b4186f6b6457e0905f90a35050565b61256161234f565b5f805460ff191660011790557f62e78cea01bee320cd4e420270b5ea74000d11b0c9f74754ebdbfc544b05a2586124073390565b6002600154036125e75760405162461bcd60e51b815260206004820152601f60248201527f5265656e7472616e637947756172643a207265656e7472616e742063616c6c006044820152606401610b95565b6002600155565b5f5460ff166113245760405162461bcd60e51b815260206004820152601460248201527314185d5cd8589b194e881b9bdd081c185d5cd95960621b6044820152606401610b95565b5f81518084528060208401602086015e5f602082860101526020601f19601f83011685010191505092915050565b602081525f61239f6020830184612636565b80356001600160a01b038116811461268c575f80fd5b919050565b5f80604083850312156126a2575f80fd5b6126ab83612676565b946020939093013593505050565b5f805f606084860312156126cb575f80fd5b6126d484612676565b92506126e260208501612676565b929592945050506040919091013590565b5f60208284031215612703575f80fd5b61239f82612676565b8035801515811461268c575f80fd5b5f806040838503121561272c575f80fd5b61273583612676565b91506127436020840161270c565b90509250929050565b5f6020828403121561275c575f80fd5b5035919050565b5f8060208385031215612774575f80fd5b823567ffffffffffffffff81111561278a575f80fd5b8301601f8101851361279a575f80fd5b803567ffffffffffffffff8111156127b0575f80fd5b8560208284010111156127c1575f80fd5b6020919091019590945092505050565b634e487b7160e01b5f52604160045260245ffd5b604051601f8201601f1916810167ffffffffffffffff8111828210171561280e5761280e6127d1565b604052919050565b5f67ffffffffffffffff82111561282f5761282f6127d1565b5060051b60200190565b5f82601f830112612848575f80fd5b813561285b61285682612816565b6127e5565b8082825260208201915060208360051b86010192508583111561287c575f80fd5b602085015b838110156128a05761289281612676565b835260209283019201612881565b5095945050505050565b5f80604083850312156128bb575f80fd5b823567ffffffffffffffff8111156128d1575f80fd5b6128dd85828601612839565b9250506127436020840161270c565b8215158152604060208201525f6129066040830184612636565b949350505050565b5f806040838503121561291f575f80fd5b8235915061274360208401612676565b5f8060408385031215612940575f80fd5b61294983612676565b915061274360208401612676565b5f8060408385031215612968575f80fd5b823567ffffffffffffffff81111561297e575f80fd5b61298a85828601612839565b925050602083013567ffffffffffffffff8111156129a6575f80fd5b8301601f810185136129b6575f80fd5b80356129c461285682612816565b8082825260208201915060208360051b8501019250878311156129e5575f80fd5b6020840193505b82841015612a075783358252602093840193909101906129ec565b809450505050509250929050565b600181811c90821680612a2957607f821691505b602082108103612a4757634e487b7160e01b5f52602260045260245ffd5b50919050565b634e487b7160e01b5f52601160045260245ffd5b80820180821115610b3157610b31612a4d565b81810381811115610b3157610b31612a4d565b8082028115828204841417610b3157610b31612a4d565b5f82612ab857634e487b7160e01b5f52601260045260245ffd5b500490565b634e487b7160e01b5f52603260045260245ffd5b6020808252602f908201527f526174652073686f756c64206265206c657373207468616e2050455243454e5460408201526e20a3a2afa222a727a6a4a720aa27a960891b60608201526080019056fe45524332303a207472616e7366657220616d6f756e74206578636565647320616c6c6f77616e6365ddf252ad1be2c89b69c2b068fc378daa952ba7f163c4a11628f55a4df523b3ef45524332303a2064656372656173656420616c6c6f77616e63652062656c6f77207a65726fa26469706673582212205372ef03b5eb7a4b0db0845b3856162fb806ffa8277192ccfe2519b503eaa89064736f6c634300081a0033",
			"opcodes": "PUSH1 0x80 PUSH1 0x40 MSTORE CALLVALUE DUP1 ISZERO PUSH2 0xF JUMPI PUSH0 DUP1 REVERT JUMPDEST POP PUSH1 0x40 MLOAD PUSH2 0x34A6 CODESIZE SUB DUP1 PUSH2 0x34A6 DUP4 CODECOPY DUP2 ADD PUSH1 0x40 DUP2 SWAP1 MSTORE PUSH2 0x2E SWAP2 PUSH2 0x685 JUMP JUMPDEST PUSH0 DUP1 SLOAD PUSH1 0xFF NOT AND SWAP1 SSTORE PUSH1 0x1 DUP1 SSTORE CALLER DUP1 PUSH2 0x61 JUMPI PUSH1 0x40 MLOAD PUSH4 0x1E4FBDF7 PUSH1 0xE0 SHL DUP2 MSTORE PUSH0 PUSH1 0x4 DUP3 ADD MSTORE PUSH1 0x24 ADD JUMPDEST PUSH1 0x40 MLOAD DUP1 SWAP2 SUB SWAP1 REVERT JUMPDEST PUSH2 0x6A DUP2 PUSH2 0x1D6 JUMP JUMPDEST POP PUSH1 0x3 PUSH2 0x77 DUP9 DUP3 PUSH2 0x7AC JUMP JUMPDEST POP PUSH1 0x4 PUSH2 0x84 DUP8 DUP3 PUSH2 0x7AC JUMP JUMPDEST POP PUSH1 0x12 PUSH1 0x5 SSTORE PUSH2 0x9C PUSH8 0xDE0B6B3A7640000 DUP7 PUSH2 0x87A JUMP JUMPDEST PUSH1 0x6 DUP2 SWAP1 SSTORE PUSH1 0x7 DUP2 SWAP1 SSTORE PUSH2 0x2710 SWAP1 PUSH2 0xB5 SWAP1 PUSH1 0x64 PUSH2 0x87A JUMP JUMPDEST PUSH2 0xBF SWAP2 SWAP1 PUSH2 0x891 JUMP JUMPDEST PUSH1 0x10 SSTORE PUSH1 0xC DUP4 SWAP1 SSTORE PUSH1 0xD DUP3 SWAP1 SSTORE PUSH8 0xDE0B6B3A7640000 PUSH1 0xE SSTORE PUSH3 0x15180 PUSH1 0xF SSTORE PUSH0 PUSH1 0xA SSTORE TIMESTAMP PUSH1 0x15 SSTORE PUSH1 0xB DUP1 SLOAD PUSH1 0x1 PUSH1 0x1 PUSH1 0xA0 SHL SUB NOT AND PUSH1 0x1 PUSH1 0x1 PUSH1 0xA0 SHL SUB DUP4 AND OR SWAP1 SSTORE PUSH2 0x10D DUP5 PUSH1 0x1 PUSH2 0x227 JUMP JUMPDEST PUSH2 0x118 DUP5 PUSH1 0x1 PUSH2 0x32B JUMP JUMPDEST PUSH1 0xB SLOAD PUSH2 0x12F SWAP1 PUSH1 0x1 PUSH1 0x1 PUSH1 0xA0 SHL SUB AND PUSH1 0x1 PUSH2 0x227 JUMP JUMPDEST PUSH1 0xB SLOAD PUSH2 0x146 SWAP1 PUSH1 0x1 PUSH1 0x1 PUSH1 0xA0 SHL SUB AND PUSH1 0x1 PUSH2 0x32B JUMP JUMPDEST PUSH1 0x6 SLOAD PUSH2 0x152 SWAP1 PUSH2 0x3AB JUMP JUMPDEST PUSH1 0x1 PUSH1 0x1 PUSH1 0xA0 SHL SUB DUP6 AND PUSH0 SWAP1 DUP2 MSTORE PUSH1 0x9 PUSH1 0x20 MSTORE PUSH1 0x40 SWAP1 KECCAK256 SSTORE PUSH2 0x172 PUSH2 0x3D8 JUMP JUMPDEST DUP4 PUSH1 0x1 PUSH1 0x1 PUSH1 0xA0 SHL SUB AND PUSH0 PUSH1 0x1 PUSH1 0x1 PUSH1 0xA0 SHL SUB AND PUSH32 0xDDF252AD1BE2C89B69C2B068FC378DAA952BA7F163C4A11628F55A4DF523B3EF PUSH1 0x6 SLOAD PUSH1 0x40 MLOAD PUSH2 0x1B9 SWAP2 DUP2 MSTORE PUSH1 0x20 ADD SWAP1 JUMP JUMPDEST PUSH1 0x40 MLOAD DUP1 SWAP2 SUB SWAP1 LOG3 PUSH2 0x1CA DUP5 PUSH2 0x3EA JUMP JUMPDEST POP POP POP POP POP POP POP PUSH2 0x8D6 JUMP JUMPDEST PUSH1 0x2 DUP1 SLOAD PUSH1 0x1 PUSH1 0x1 PUSH1 0xA0 SHL SUB DUP4 DUP2 AND PUSH1 0x1 PUSH1 0x1 PUSH1 0xA0 SHL SUB NOT DUP4 AND DUP2 OR SWAP1 SWAP4 SSTORE PUSH1 0x40 MLOAD SWAP2 AND SWAP2 SWAP1 DUP3 SWAP1 PUSH32 0x8BE0079C531659141344CD1FD0A4F28419497F9722A3DAAFE3B4186F6B6457E0 SWAP1 PUSH0 SWAP1 LOG3 POP POP JUMP JUMPDEST PUSH1 0x1 PUSH1 0x1 PUSH1 0xA0 SHL SUB DUP3 AND PUSH2 0x27D JUMPI PUSH1 0x40 MLOAD PUSH3 0x461BCD PUSH1 0xE5 SHL DUP2 MSTORE PUSH1 0x20 PUSH1 0x4 DUP3 ADD MSTORE PUSH1 0x1A PUSH1 0x24 DUP3 ADD MSTORE PUSH32 0x4163636F756E742073686F756C646E2774206265207A65726F2E000000000000 PUSH1 0x44 DUP3 ADD MSTORE PUSH1 0x64 ADD PUSH2 0x58 JUMP JUMPDEST PUSH1 0x1 PUSH1 0x1 PUSH1 0xA0 SHL SUB DUP3 AND PUSH0 SWAP1 DUP2 MSTORE PUSH1 0x12 PUSH1 0x20 MSTORE PUSH1 0x40 DUP2 KECCAK256 SLOAD PUSH1 0xFF AND SWAP1 PUSH2 0x2A2 DUP5 PUSH2 0x427 JUMP JUMPDEST SWAP1 POP DUP3 ISZERO ISZERO DUP3 ISZERO ISZERO EQ PUSH2 0x325 JUMPI PUSH1 0x1 PUSH1 0x1 PUSH1 0xA0 SHL SUB DUP5 AND PUSH0 SWAP1 DUP2 MSTORE PUSH1 0x12 PUSH1 0x20 MSTORE PUSH1 0x40 SWAP1 KECCAK256 DUP1 SLOAD PUSH1 0xFF NOT AND DUP5 ISZERO ISZERO OR SWAP1 SSTORE DUP2 ISZERO DUP1 ISZERO PUSH2 0x2DD JUMPI POP DUP3 JUMPDEST ISZERO PUSH2 0x2FE JUMPI DUP1 PUSH1 0x7 PUSH0 DUP3 DUP3 SLOAD PUSH2 0x2F3 SWAP2 SWAP1 PUSH2 0x8B0 JUMP JUMPDEST SWAP1 SWAP2 SSTORE POP PUSH2 0x325 SWAP1 POP JUMP JUMPDEST DUP2 DUP1 ISZERO PUSH2 0x309 JUMPI POP DUP3 ISZERO JUMPDEST ISZERO PUSH2 0x325 JUMPI DUP1 PUSH1 0x7 PUSH0 DUP3 DUP3 SLOAD PUSH2 0x31F SWAP2 SWAP1 PUSH2 0x8C3 JUMP JUMPDEST SWAP1 SWAP2 SSTORE POP POP JUMPDEST POP POP POP POP JUMP JUMPDEST PUSH1 0x1 PUSH1 0x1 PUSH1 0xA0 SHL SUB DUP3 AND PUSH2 0x381 JUMPI PUSH1 0x40 MLOAD PUSH3 0x461BCD PUSH1 0xE5 SHL DUP2 MSTORE PUSH1 0x20 PUSH1 0x4 DUP3 ADD MSTORE PUSH1 0x1A PUSH1 0x24 DUP3 ADD MSTORE PUSH32 0x4163636F756E742073686F756C646E2774206265207A65726F2E000000000000 PUSH1 0x44 DUP3 ADD MSTORE PUSH1 0x64 ADD PUSH2 0x58 JUMP JUMPDEST PUSH1 0x1 PUSH1 0x1 PUSH1 0xA0 SHL SUB SWAP2 SWAP1 SWAP2 AND PUSH0 SWAP1 DUP2 MSTORE PUSH1 0x13 PUSH1 0x20 MSTORE PUSH1 0x40 SWAP1 KECCAK256 DUP1 SLOAD PUSH1 0xFF NOT AND SWAP2 ISZERO ISZERO SWAP2 SWAP1 SWAP2 OR SWAP1 SSTORE JUMP JUMPDEST PUSH0 PUSH2 0x3D2 PUSH8 0xDE0B6B3A7640000 PUSH2 0x3CC DUP5 PUSH10 0xD3C21BCECCEDA1000000 PUSH2 0x486 JUMP JUMPDEST SWAP1 PUSH2 0x498 JUMP JUMPDEST SWAP3 SWAP2 POP POP JUMP JUMPDEST PUSH2 0x3E0 PUSH2 0x4A3 JUMP JUMPDEST PUSH2 0x3E8 PUSH2 0x4D0 JUMP JUMPDEST JUMP JUMPDEST PUSH2 0x3F2 PUSH2 0x4A3 JUMP JUMPDEST PUSH1 0x1 PUSH1 0x1 PUSH1 0xA0 SHL SUB DUP2 AND PUSH2 0x41B JUMPI PUSH1 0x40 MLOAD PUSH4 0x1E4FBDF7 PUSH1 0xE0 SHL DUP2 MSTORE PUSH0 PUSH1 0x4 DUP3 ADD MSTORE PUSH1 0x24 ADD PUSH2 0x58 JUMP JUMPDEST PUSH2 0x424 DUP2 PUSH2 0x1D6 JUMP JUMPDEST POP JUMP JUMPDEST PUSH1 0x1 PUSH1 0x1 PUSH1 0xA0 SHL SUB DUP2 AND PUSH0 SWAP1 DUP2 MSTORE PUSH1 0x12 PUSH1 0x20 MSTORE PUSH1 0x40 DUP2 KECCAK256 SLOAD PUSH1 0xFF AND ISZERO PUSH2 0x465 JUMPI PUSH1 0xB SLOAD PUSH1 0x1 PUSH1 0x1 PUSH1 0xA0 SHL SUB SWAP1 DUP2 AND SWAP1 DUP4 AND SUB PUSH2 0x465 JUMPI PUSH2 0x3D2 PUSH2 0x529 JUMP JUMPDEST PUSH1 0x1 PUSH1 0x1 PUSH1 0xA0 SHL SUB DUP3 AND PUSH0 SWAP1 DUP2 MSTORE PUSH1 0x9 PUSH1 0x20 MSTORE PUSH1 0x40 SWAP1 KECCAK256 SLOAD PUSH2 0x3D2 SWAP1 PUSH2 0x564 JUMP JUMPDEST PUSH0 PUSH2 0x491 DUP3 DUP5 PUSH2 0x87A JUMP JUMPDEST SWAP4 SWAP3 POP POP POP JUMP JUMPDEST PUSH0 PUSH2 0x491 DUP3 DUP5 PUSH2 0x891 JUMP JUMPDEST PUSH1 0x2 SLOAD PUSH1 0x1 PUSH1 0x1 PUSH1 0xA0 SHL SUB AND CALLER EQ PUSH2 0x3E8 JUMPI PUSH1 0x40 MLOAD PUSH4 0x118CDAA7 PUSH1 0xE0 SHL DUP2 MSTORE CALLER PUSH1 0x4 DUP3 ADD MSTORE PUSH1 0x24 ADD PUSH2 0x58 JUMP JUMPDEST PUSH2 0x4D8 PUSH2 0x588 JUMP JUMPDEST PUSH0 DUP1 SLOAD PUSH1 0xFF NOT AND PUSH1 0x1 OR SWAP1 SSTORE PUSH32 0x62E78CEA01BEE320CD4E420270B5EA74000D11B0C9F74754EBDBFC544B05A258 PUSH2 0x50C CALLER SWAP1 JUMP JUMPDEST PUSH1 0x40 MLOAD PUSH1 0x1 PUSH1 0x1 PUSH1 0xA0 SHL SUB SWAP1 SWAP2 AND DUP2 MSTORE PUSH1 0x20 ADD PUSH1 0x40 MLOAD DUP1 SWAP2 SUB SWAP1 LOG1 JUMP JUMPDEST PUSH1 0xB SLOAD PUSH1 0x1 PUSH1 0x1 PUSH1 0xA0 SHL SUB AND PUSH0 SWAP1 DUP2 MSTORE PUSH1 0x9 PUSH1 0x20 MSTORE PUSH1 0x40 DUP2 KECCAK256 SLOAD DUP2 SWAP1 PUSH2 0x54E SWAP1 PUSH2 0x564 JUMP JUMPDEST SWAP1 POP DUP1 PUSH1 0xA SLOAD PUSH2 0x55E SWAP2 SWAP1 PUSH2 0x8B0 JUMP JUMPDEST SWAP2 POP POP SWAP1 JUMP JUMPDEST PUSH0 PUSH2 0x3D2 PUSH10 0xD3C21BCECCEDA1000000 PUSH2 0x3CC PUSH1 0xE SLOAD DUP6 PUSH2 0x486 PUSH1 0x20 SHL SWAP1 SWAP2 SWAP1 PUSH1 0x20 SHR JUMP JUMPDEST PUSH0 SLOAD PUSH1 0xFF AND ISZERO PUSH2 0x3E8 JUMPI PUSH1 0x40 MLOAD PUSH3 0x461BCD PUSH1 0xE5 SHL DUP2 MSTORE PUSH1 0x20 PUSH1 0x4 DUP3 ADD MSTORE PUSH1 0x10 PUSH1 0x24 DUP3 ADD MSTORE PUSH16 0x14185D5CD8589B194E881C185D5CD959 PUSH1 0x82 SHL PUSH1 0x44 DUP3 ADD MSTORE PUSH1 0x64 ADD PUSH2 0x58 JUMP JUMPDEST PUSH4 0x4E487B71 PUSH1 0xE0 SHL PUSH0 MSTORE PUSH1 0x41 PUSH1 0x4 MSTORE PUSH1 0x24 PUSH0 REVERT JUMPDEST PUSH0 DUP3 PUSH1 0x1F DUP4 ADD SLT PUSH2 0x5F0 JUMPI PUSH0 DUP1 REVERT JUMPDEST DUP2 MLOAD PUSH1 0x1 PUSH1 0x1 PUSH1 0x40 SHL SUB DUP2 GT ISZERO PUSH2 0x609 JUMPI PUSH2 0x609 PUSH2 0x5CD JUMP JUMPDEST PUSH1 0x40 MLOAD PUSH1 0x1F DUP3 ADD PUSH1 0x1F NOT SWAP1 DUP2 AND PUSH1 0x3F ADD AND DUP2 ADD PUSH1 0x1 PUSH1 0x1 PUSH1 0x40 SHL SUB DUP2 GT DUP3 DUP3 LT OR ISZERO PUSH2 0x637 JUMPI PUSH2 0x637 PUSH2 0x5CD JUMP JUMPDEST PUSH1 0x40 MSTORE DUP2 DUP2 MSTORE DUP4 DUP3 ADD PUSH1 0x20 ADD DUP6 LT ISZERO PUSH2 0x64E JUMPI PUSH0 DUP1 REVERT JUMPDEST DUP2 PUSH1 0x20 DUP6 ADD PUSH1 0x20 DUP4 ADD MCOPY PUSH0 SWAP2 DUP2 ADD PUSH1 0x20 ADD SWAP2 SWAP1 SWAP2 MSTORE SWAP4 SWAP3 POP POP POP JUMP JUMPDEST DUP1 MLOAD PUSH1 0x1 PUSH1 0x1 PUSH1 0xA0 SHL SUB DUP2 AND DUP2 EQ PUSH2 0x680 JUMPI PUSH0 DUP1 REVERT JUMPDEST SWAP2 SWAP1 POP JUMP JUMPDEST PUSH0 DUP1 PUSH0 DUP1 PUSH0 DUP1 PUSH0 PUSH1 0xE0 DUP9 DUP11 SUB SLT ISZERO PUSH2 0x69B JUMPI PUSH0 DUP1 REVERT JUMPDEST DUP8 MLOAD PUSH1 0x1 PUSH1 0x1 PUSH1 0x40 SHL SUB DUP2 GT ISZERO PUSH2 0x6B0 JUMPI PUSH0 DUP1 REVERT JUMPDEST PUSH2 0x6BC DUP11 DUP3 DUP12 ADD PUSH2 0x5E1 JUMP JUMPDEST PUSH1 0x20 DUP11 ADD MLOAD SWAP1 SWAP9 POP SWAP1 POP PUSH1 0x1 PUSH1 0x1 PUSH1 0x40 SHL SUB DUP2 GT ISZERO PUSH2 0x6D9 JUMPI PUSH0 DUP1 REVERT JUMPDEST PUSH2 0x6E5 DUP11 DUP3 DUP12 ADD PUSH2 0x5E1 JUMP JUMPDEST PUSH1 0x40 DUP11 ADD MLOAD SWAP1 SWAP8 POP SWAP6 POP PUSH2 0x6FD SWAP1 POP PUSH1 0x60 DUP10 ADD PUSH2 0x66A JUMP JUMPDEST PUSH1 0x80 DUP10 ADD MLOAD PUSH1 0xA0 DUP11 ADD MLOAD SWAP2 SWAP6 POP SWAP4 POP SWAP2 POP PUSH2 0x71A PUSH1 0xC0 DUP10 ADD PUSH2 0x66A JUMP JUMPDEST SWAP1 POP SWAP3 SWAP6 SWAP9 SWAP2 SWAP5 SWAP8 POP SWAP3 SWAP6 POP JUMP JUMPDEST PUSH1 0x1 DUP2 DUP2 SHR SWAP1 DUP3 AND DUP1 PUSH2 0x73C JUMPI PUSH1 0x7F DUP3 AND SWAP2 POP JUMPDEST PUSH1 0x20 DUP3 LT DUP2 SUB PUSH2 0x75A JUMPI PUSH4 0x4E487B71 PUSH1 0xE0 SHL PUSH0 MSTORE PUSH1 0x22 PUSH1 0x4 MSTORE PUSH1 0x24 PUSH0 REVERT JUMPDEST POP SWAP2 SWAP1 POP JUMP JUMPDEST PUSH1 0x1F DUP3 GT ISZERO PUSH2 0x7A7 JUMPI DUP1 PUSH0 MSTORE PUSH1 0x20 PUSH0 KECCAK256 PUSH1 0x1F DUP5 ADD PUSH1 0x5 SHR DUP2 ADD PUSH1 0x20 DUP6 LT ISZERO PUSH2 0x785 JUMPI POP DUP1 JUMPDEST PUSH1 0x1F DUP5 ADD PUSH1 0x5 SHR DUP3 ADD SWAP2 POP JUMPDEST DUP2 DUP2 LT ISZERO PUSH2 0x7A4 JUMPI PUSH0 DUP2 SSTORE PUSH1 0x1 ADD PUSH2 0x791 JUMP JUMPDEST POP POP JUMPDEST POP POP POP JUMP JUMPDEST DUP2 MLOAD PUSH1 0x1 PUSH1 0x1 PUSH1 0x40 SHL SUB DUP2 GT ISZERO PUSH2 0x7C5 JUMPI PUSH2 0x7C5 PUSH2 0x5CD JUMP JUMPDEST PUSH2 0x7D9 DUP2 PUSH2 0x7D3 DUP5 SLOAD PUSH2 0x728 JUMP JUMPDEST DUP5 PUSH2 0x760 JUMP JUMPDEST PUSH1 0x20 PUSH1 0x1F DUP3 GT PUSH1 0x1 DUP2 EQ PUSH2 0x80B JUMPI PUSH0 DUP4 ISZERO PUSH2 0x7F4 JUMPI POP DUP5 DUP3 ADD MLOAD JUMPDEST PUSH0 NOT PUSH1 0x3 DUP6 SWAP1 SHL SHR NOT AND PUSH1 0x1 DUP5 SWAP1 SHL OR DUP5 SSTORE PUSH2 0x7A4 JUMP JUMPDEST PUSH0 DUP5 DUP2 MSTORE PUSH1 0x20 DUP2 KECCAK256 PUSH1 0x1F NOT DUP6 AND SWAP2 JUMPDEST DUP3 DUP2 LT ISZERO PUSH2 0x83A JUMPI DUP8 DUP6 ADD MLOAD DUP3 SSTORE PUSH1 0x20 SWAP5 DUP6 ADD SWAP5 PUSH1 0x1 SWAP1 SWAP3 ADD SWAP2 ADD PUSH2 0x81A JUMP JUMPDEST POP DUP5 DUP3 LT ISZERO PUSH2 0x857 JUMPI DUP7 DUP5 ADD MLOAD PUSH0 NOT PUSH1 0x3 DUP8 SWAP1 SHL PUSH1 0xF8 AND SHR NOT AND DUP2 SSTORE JUMPDEST POP POP POP POP PUSH1 0x1 SWAP1 DUP2 SHL ADD SWAP1 SSTORE POP JUMP JUMPDEST PUSH4 0x4E487B71 PUSH1 0xE0 SHL PUSH0 MSTORE PUSH1 0x11 PUSH1 0x4 MSTORE PUSH1 0x24 PUSH0 REVERT JUMPDEST DUP1 DUP3 MUL DUP2 ISZERO DUP3 DUP3 DIV DUP5 EQ OR PUSH2 0x3D2 JUMPI PUSH2 0x3D2 PUSH2 0x866 JUMP JUMPDEST PUSH0 DUP3 PUSH2 0x8AB JUMPI PUSH4 0x4E487B71 PUSH1 0xE0 SHL PUSH0 MSTORE PUSH1 0x12 PUSH1 0x4 MSTORE PUSH1 0x24 PUSH0 REVERT JUMPDEST POP DIV SWAP1 JUMP JUMPDEST DUP1 DUP3 ADD DUP1 DUP3 GT ISZERO PUSH2 0x3D2 JUMPI PUSH2 0x3D2 PUSH2 0x866 JUMP JUMPDEST DUP2 DUP2 SUB DUP2 DUP2 GT ISZERO PUSH2 0x3D2 JUMPI PUSH2 0x3D2 PUSH2 0x866 JUMP JUMPDEST PUSH2 0x2BC3 DUP1 PUSH2 0x8E3 PUSH0 CODECOPY PUSH0 RETURN INVALID PUSH1 0x80 PUSH1 0x40 MSTORE PUSH1 0x4 CALLDATASIZE LT PUSH2 0x374 JUMPI PUSH0 CALLDATALOAD PUSH1 0xE0 SHR DUP1 PUSH4 0x702115DD GT PUSH2 0x1C8 JUMPI DUP1 PUSH4 0x9220D3ED GT PUSH2 0xFD JUMPI DUP1 PUSH4 0xB3CD4254 GT PUSH2 0x9D JUMPI DUP1 PUSH4 0xDF0AB308 GT PUSH2 0x6D JUMPI DUP1 PUSH4 0xDF0AB308 EQ PUSH2 0xA24 JUMPI DUP1 PUSH4 0xE2FF2440 EQ PUSH2 0xA43 JUMPI DUP1 PUSH4 0xE5A5E318 EQ PUSH2 0xA57 JUMPI DUP1 PUSH4 0xF2FDE38B EQ PUSH2 0xA76 JUMPI PUSH0 DUP1 REVERT JUMPDEST DUP1 PUSH4 0xB3CD4254 EQ PUSH2 0x997 JUMPI DUP1 PUSH4 0xB4DADE59 EQ PUSH2 0x9AC JUMPI DUP1 PUSH4 0xDC90B442 EQ PUSH2 0x9CB JUMPI DUP1 PUSH4 0xDD62ED3E EQ PUSH2 0x9E0 JUMPI PUSH0 DUP1 REVERT JUMPDEST DUP1 PUSH4 0x9CC2921C GT PUSH2 0xD8 JUMPI DUP1 PUSH4 0x9CC2921C EQ PUSH2 0x91D JUMPI DUP1 PUSH4 0xA457C2D7 EQ PUSH2 0x93C JUMPI DUP1 PUSH4 0xA6D1B891 EQ PUSH2 0x95B JUMPI DUP1 PUSH4 0xA9059CBB EQ PUSH2 0x978 JUMPI PUSH0 DUP1 REVERT JUMPDEST DUP1 PUSH4 0x9220D3ED EQ PUSH2 0x8AD JUMPI DUP1 PUSH4 0x924C2EAD EQ PUSH2 0x8DB JUMPI DUP1 PUSH4 0x95D89B41 EQ PUSH2 0x909 JUMPI PUSH0 DUP1 REVERT JUMPDEST DUP1 PUSH4 0x8456CB59 GT PUSH2 0x168 JUMPI DUP1 PUSH4 0x89EEC0F1 GT PUSH2 0x143 JUMPI DUP1 PUSH4 0x89EEC0F1 EQ PUSH2 0x82E JUMPI DUP1 PUSH4 0x8CF66B16 EQ PUSH2 0x84D JUMPI DUP1 PUSH4 0x8DA5CB5B EQ PUSH2 0x87B JUMPI DUP1 PUSH4 0x8F372FA3 EQ PUSH2 0x898 JUMPI PUSH0 DUP1 REVERT JUMPDEST DUP1 PUSH4 0x8456CB59 EQ PUSH2 0x7F1 JUMPI DUP1 PUSH4 0x874A6AE7 EQ PUSH2 0x805 JUMPI DUP1 PUSH4 0x893D20E8 EQ PUSH2 0x81A JUMPI PUSH0 DUP1 REVERT JUMPDEST DUP1 PUSH4 0x75C2B13F GT PUSH2 0x1A3 JUMPI DUP1 PUSH4 0x75C2B13F EQ PUSH2 0x775 JUMPI DUP1 PUSH4 0x7819F36F EQ PUSH2 0x794 JUMPI DUP1 PUSH4 0x79825EDE EQ PUSH2 0x7B3 JUMPI DUP1 PUSH4 0x81CEA332 EQ PUSH2 0x7D2 JUMPI PUSH0 DUP1 REVERT JUMPDEST DUP1 PUSH4 0x702115DD EQ PUSH2 0x723 JUMPI DUP1 PUSH4 0x70A08231 EQ PUSH2 0x742 JUMPI DUP1 PUSH4 0x715018A6 EQ PUSH2 0x761 JUMPI PUSH0 DUP1 REVERT JUMPDEST DUP1 PUSH4 0x3F3B3B27 GT PUSH2 0x2A9 JUMPI DUP1 PUSH4 0x5D70DDE6 GT PUSH2 0x249 JUMPI DUP1 PUSH4 0x690D8320 GT PUSH2 0x219 JUMPI DUP1 PUSH4 0x690D8320 EQ PUSH2 0x699 JUMPI DUP1 PUSH4 0x6AA3773F EQ PUSH2 0x6B8 JUMPI DUP1 PUSH4 0x6C5ED03E EQ PUSH2 0x6D7 JUMPI DUP1 PUSH4 0x6E04FF0D EQ PUSH2 0x6F6 JUMPI PUSH0 DUP1 REVERT JUMPDEST DUP1 PUSH4 0x5D70DDE6 EQ PUSH2 0x632 JUMPI DUP1 PUSH4 0x6161EB18 EQ PUSH2 0x646 JUMPI DUP1 PUSH4 0x639F3CC7 EQ PUSH2 0x665 JUMPI DUP1 PUSH4 0x685F59DE EQ PUSH2 0x684 JUMPI PUSH0 DUP1 REVERT JUMPDEST DUP1 PUSH4 0x4626402B GT PUSH2 0x284 JUMPI DUP1 PUSH4 0x4626402B EQ PUSH2 0x5AB JUMPI DUP1 PUSH4 0x4E6EC247 EQ PUSH2 0x5E2 JUMPI DUP1 PUSH4 0x5B7F415C EQ PUSH2 0x601 JUMPI DUP1 PUSH4 0x5C975ABB EQ PUSH2 0x61C JUMPI PUSH0 DUP1 REVERT JUMPDEST DUP1 PUSH4 0x3F3B3B27 EQ PUSH2 0x563 JUMPI DUP1 PUSH4 0x3F4BA83A EQ PUSH2 0x578 JUMPI DUP1 PUSH4 0x4585E33B EQ PUSH2 0x58C JUMPI PUSH0 DUP1 REVERT JUMPDEST DUP1 PUSH4 0x2CE8BD56 GT PUSH2 0x314 JUMPI DUP1 PUSH4 0x35C85A34 GT PUSH2 0x2EF JUMPI DUP1 PUSH4 0x35C85A34 EQ PUSH2 0x4D2 JUMPI DUP1 PUSH4 0x39509351 EQ PUSH2 0x4F1 JUMPI DUP1 PUSH4 0x3AF9E669 EQ PUSH2 0x510 JUMPI DUP1 PUSH4 0x3CDE0C0F EQ PUSH2 0x544 JUMPI PUSH0 DUP1 REVERT JUMPDEST DUP1 PUSH4 0x2CE8BD56 EQ PUSH2 0x47D JUMPI DUP1 PUSH4 0x30E0789E EQ PUSH2 0x492 JUMPI DUP1 PUSH4 0x313CE567 EQ PUSH2 0x4B1 JUMPI PUSH0 DUP1 REVERT JUMPDEST DUP1 PUSH4 0x1658A700 GT PUSH2 0x34F JUMPI DUP1 PUSH4 0x1658A700 EQ PUSH2 0x3F9 JUMPI DUP1 PUSH4 0x18160DDD EQ PUSH2 0x427 JUMPI DUP1 PUSH4 0x23B872DD EQ PUSH2 0x449 JUMPI DUP1 PUSH4 0x24024EFD EQ PUSH2 0x468 JUMPI PUSH0 DUP1 REVERT JUMPDEST DUP1 PUSH4 0x6FDDE03 EQ PUSH2 0x37F JUMPI DUP1 PUSH4 0x95EA7B3 EQ PUSH2 0x3A9 JUMPI DUP1 PUSH4 0x104E81FF EQ PUSH2 0x3D8 JUMPI PUSH0 DUP1 REVERT JUMPDEST CALLDATASIZE PUSH2 0x37B JUMPI STOP JUMPDEST PUSH0 DUP1 REVERT JUMPDEST CALLVALUE DUP1 ISZERO PUSH2 0x38A JUMPI PUSH0 DUP1 REVERT JUMPDEST POP PUSH2 0x393 PUSH2 0xA95 JUMP JUMPDEST PUSH1 0x40 MLOAD PUSH2 0x3A0 SWAP2 SWAP1 PUSH2 0x2664 JUMP JUMPDEST PUSH1 0x40 MLOAD DUP1 SWAP2 SUB SWAP1 RETURN JUMPDEST CALLVALUE DUP1 ISZERO PUSH2 0x3B4 JUMPI PUSH0 DUP1 REVERT JUMPDEST POP PUSH2 0x3C8 PUSH2 0x3C3 CALLDATASIZE PUSH1 0x4 PUSH2 0x2691 JUMP JUMPDEST PUSH2 0xB21 JUMP JUMPDEST PUSH1 0x40 MLOAD SWAP1 ISZERO ISZERO DUP2 MSTORE PUSH1 0x20 ADD PUSH2 0x3A0 JUMP JUMPDEST CALLVALUE DUP1 ISZERO PUSH2 0x3E3 JUMPI PUSH0 DUP1 REVERT JUMPDEST POP PUSH2 0x3F7 PUSH2 0x3F2 CALLDATASIZE PUSH1 0x4 PUSH2 0x26B9 JUMP JUMPDEST PUSH2 0xB37 JUMP JUMPDEST STOP JUMPDEST CALLVALUE DUP1 ISZERO PUSH2 0x404 JUMPI PUSH0 DUP1 REVERT JUMPDEST POP PUSH2 0x3C8 PUSH2 0x413 CALLDATASIZE PUSH1 0x4 PUSH2 0x26F3 JUMP JUMPDEST PUSH1 0x11 PUSH1 0x20 MSTORE PUSH0 SWAP1 DUP2 MSTORE PUSH1 0x40 SWAP1 KECCAK256 SLOAD PUSH1 0xFF AND DUP2 JUMP JUMPDEST CALLVALUE DUP1 ISZERO PUSH2 0x432 JUMPI PUSH0 DUP1 REVERT JUMPDEST POP PUSH2 0x43B PUSH2 0xC60 JUMP JUMPDEST PUSH1 0x40 MLOAD SWAP1 DUP2 MSTORE PUSH1 0x20 ADD PUSH2 0x3A0 JUMP JUMPDEST CALLVALUE DUP1 ISZERO PUSH2 0x454 JUMPI PUSH0 DUP1 REVERT JUMPDEST POP PUSH2 0x3C8 PUSH2 0x463 CALLDATASIZE PUSH1 0x4 PUSH2 0x26B9 JUMP JUMPDEST PUSH2 0xC76 JUMP JUMPDEST CALLVALUE DUP1 ISZERO PUSH2 0x473 JUMPI PUSH0 DUP1 REVERT JUMPDEST POP PUSH2 0x43B PUSH1 0xC SLOAD DUP2 JUMP JUMPDEST CALLVALUE DUP1 ISZERO PUSH2 0x488 JUMPI PUSH0 DUP1 REVERT JUMPDEST POP PUSH2 0x43B PUSH1 0xD SLOAD DUP2 JUMP JUMPDEST CALLVALUE DUP1 ISZERO PUSH2 0x49D JUMPI PUSH0 DUP1 REVERT JUMPDEST POP PUSH2 0x3F7 PUSH2 0x4AC CALLDATASIZE PUSH1 0x4 PUSH2 0x26B9 JUMP JUMPDEST PUSH2 0xCD8 JUMP JUMPDEST CALLVALUE DUP1 ISZERO PUSH2 0x4BC JUMPI PUSH0 DUP1 REVERT JUMPDEST POP PUSH1 0x5 SLOAD PUSH1 0x40 MLOAD PUSH1 0xFF SWAP1 SWAP2 AND DUP2 MSTORE PUSH1 0x20 ADD PUSH2 0x3A0 JUMP JUMPDEST CALLVALUE DUP1 ISZERO PUSH2 0x4DD JUMPI PUSH0 DUP1 REVERT JUMPDEST POP PUSH2 0x3F7 PUSH2 0x4EC CALLDATASIZE PUSH1 0x4 PUSH2 0x271B JUMP JUMPDEST PUSH2 0x1252 JUMP JUMPDEST CALLVALUE DUP1 ISZERO PUSH2 0x4FC JUMPI PUSH0 DUP1 REVERT JUMPDEST POP PUSH2 0x3C8 PUSH2 0x50B CALLDATASIZE PUSH1 0x4 PUSH2 0x2691 JUMP JUMPDEST PUSH2 0x12D2 JUMP JUMPDEST CALLVALUE DUP1 ISZERO PUSH2 0x51B JUMPI PUSH0 DUP1 REVERT JUMPDEST POP PUSH2 0x43B PUSH2 0x52A CALLDATASIZE PUSH1 0x4 PUSH2 0x26F3 JUMP JUMPDEST PUSH1 0x1 PUSH1 0x1 PUSH1 0xA0 SHL SUB AND PUSH0 SWAP1 DUP2 MSTORE PUSH1 0x9 PUSH1 0x20 MSTORE PUSH1 0x40 SWAP1 KECCAK256 SLOAD SWAP1 JUMP JUMPDEST CALLVALUE DUP1 ISZERO PUSH2 0x54F JUMPI PUSH0 DUP1 REVERT JUMPDEST POP PUSH2 0x3F7 PUSH2 0x55E CALLDATASIZE PUSH1 0x4 PUSH2 0x274C JUMP JUMPDEST PUSH2 0x1307 JUMP JUMPDEST CALLVALUE DUP1 ISZERO PUSH2 0x56E JUMPI PUSH0 DUP1 REVERT JUMPDEST POP PUSH2 0x43B PUSH1 0x15 SLOAD DUP2 JUMP JUMPDEST CALLVALUE DUP1 ISZERO PUSH2 0x583 JUMPI PUSH0 DUP1 REVERT JUMPDEST POP PUSH2 0x3F7 PUSH2 0x1314 JUMP JUMPDEST CALLVALUE DUP1 ISZERO PUSH2 0x597 JUMPI PUSH0 DUP1 REVERT JUMPDEST POP PUSH2 0x3F7 PUSH2 0x5A6 CALLDATASIZE PUSH1 0x4 PUSH2 0x2763 JUMP JUMPDEST PUSH2 0x1326 JUMP JUMPDEST CALLVALUE DUP1 ISZERO PUSH2 0x5B6 JUMPI PUSH0 DUP1 REVERT JUMPDEST POP PUSH1 0xB SLOAD PUSH2 0x5CA SWAP1 PUSH1 0x1 PUSH1 0x1 PUSH1 0xA0 SHL SUB AND DUP2 JUMP JUMPDEST PUSH1 0x40 MLOAD PUSH1 0x1 PUSH1 0x1 PUSH1 0xA0 SHL SUB SWAP1 SWAP2 AND DUP2 MSTORE PUSH1 0x20 ADD PUSH2 0x3A0 JUMP JUMPDEST CALLVALUE DUP1 ISZERO PUSH2 0x5ED JUMPI PUSH0 DUP1 REVERT JUMPDEST POP PUSH2 0x3F7 PUSH2 0x5FC CALLDATASIZE PUSH1 0x4 PUSH2 0x2691 JUMP JUMPDEST PUSH2 0x140D JUMP JUMPDEST CALLVALUE DUP1 ISZERO PUSH2 0x60C JUMPI PUSH0 DUP1 REVERT JUMPDEST POP PUSH2 0x43B PUSH8 0xDE0B6B3A7640000 DUP2 JUMP JUMPDEST CALLVALUE DUP1 ISZERO PUSH2 0x627 JUMPI PUSH0 DUP1 REVERT JUMPDEST POP PUSH0 SLOAD PUSH1 0xFF AND PUSH2 0x3C8 JUMP JUMPDEST CALLVALUE DUP1 ISZERO PUSH2 0x63D JUMPI PUSH0 DUP1 REVERT JUMPDEST POP PUSH2 0x3F7 PUSH2 0x1578 JUMP JUMPDEST CALLVALUE DUP1 ISZERO PUSH2 0x651 JUMPI PUSH0 DUP1 REVERT JUMPDEST POP PUSH2 0x3F7 PUSH2 0x660 CALLDATASIZE PUSH1 0x4 PUSH2 0x2691 JUMP JUMPDEST PUSH2 0x1594 JUMP JUMPDEST CALLVALUE DUP1 ISZERO PUSH2 0x670 JUMPI PUSH0 DUP1 REVERT JUMPDEST POP PUSH2 0x43B PUSH2 0x67F CALLDATASIZE PUSH1 0x4 PUSH2 0x274C JUMP JUMPDEST PUSH2 0x16EF JUMP JUMPDEST CALLVALUE DUP1 ISZERO PUSH2 0x68F JUMPI PUSH0 DUP1 REVERT JUMPDEST POP PUSH2 0x43B PUSH1 0xF SLOAD DUP2 JUMP JUMPDEST CALLVALUE DUP1 ISZERO PUSH2 0x6A4 JUMPI PUSH0 DUP1 REVERT JUMPDEST POP PUSH2 0x3F7 PUSH2 0x6B3 CALLDATASIZE PUSH1 0x4 PUSH2 0x26F3 JUMP JUMPDEST PUSH2 0x1719 JUMP JUMPDEST CALLVALUE DUP1 ISZERO PUSH2 0x6C3 JUMPI PUSH0 DUP1 REVERT JUMPDEST POP PUSH2 0x3F7 PUSH2 0x6D2 CALLDATASIZE PUSH1 0x4 PUSH2 0x2691 JUMP JUMPDEST PUSH2 0x180C JUMP JUMPDEST CALLVALUE DUP1 ISZERO PUSH2 0x6E2 JUMPI PUSH0 DUP1 REVERT JUMPDEST POP PUSH2 0x3F7 PUSH2 0x6F1 CALLDATASIZE PUSH1 0x4 PUSH2 0x28AA JUMP JUMPDEST PUSH2 0x1979 JUMP JUMPDEST CALLVALUE DUP1 ISZERO PUSH2 0x701 JUMPI PUSH0 DUP1 REVERT JUMPDEST POP PUSH2 0x715 PUSH2 0x710 CALLDATASIZE PUSH1 0x4 PUSH2 0x2763 JUMP JUMPDEST PUSH2 0x1A4F JUMP JUMPDEST PUSH1 0x40 MLOAD PUSH2 0x3A0 SWAP3 SWAP2 SWAP1 PUSH2 0x28EC JUMP JUMPDEST CALLVALUE DUP1 ISZERO PUSH2 0x72E JUMPI PUSH0 DUP1 REVERT JUMPDEST POP PUSH2 0x3F7 PUSH2 0x73D CALLDATASIZE PUSH1 0x4 PUSH2 0x271B JUMP JUMPDEST PUSH2 0x1AA5 JUMP JUMPDEST CALLVALUE DUP1 ISZERO PUSH2 0x74D JUMPI PUSH0 DUP1 REVERT JUMPDEST POP PUSH2 0x43B PUSH2 0x75C CALLDATASIZE PUSH1 0x4 PUSH2 0x26F3 JUMP JUMPDEST PUSH2 0x1BA9 JUMP JUMPDEST CALLVALUE DUP1 ISZERO PUSH2 0x76C JUMPI PUSH0 DUP1 REVERT JUMPDEST POP PUSH2 0x3F7 PUSH2 0x1C08 JUMP JUMPDEST CALLVALUE DUP1 ISZERO PUSH2 0x780 JUMPI PUSH0 DUP1 REVERT JUMPDEST POP PUSH2 0x3F7 PUSH2 0x78F CALLDATASIZE PUSH1 0x4 PUSH2 0x271B JUMP JUMPDEST PUSH2 0x1C19 JUMP JUMPDEST CALLVALUE DUP1 ISZERO PUSH2 0x79F JUMPI PUSH0 DUP1 REVERT JUMPDEST POP PUSH2 0x3F7 PUSH2 0x7AE CALLDATASIZE PUSH1 0x4 PUSH2 0x28AA JUMP JUMPDEST PUSH2 0x1CA1 JUMP JUMPDEST CALLVALUE DUP1 ISZERO PUSH2 0x7BE JUMPI PUSH0 DUP1 REVERT JUMPDEST POP PUSH2 0x3F7 PUSH2 0x7CD CALLDATASIZE PUSH1 0x4 PUSH2 0x271B JUMP JUMPDEST PUSH2 0x1CDF JUMP JUMPDEST CALLVALUE DUP1 ISZERO PUSH2 0x7DD JUMPI PUSH0 DUP1 REVERT JUMPDEST POP PUSH2 0x3F7 PUSH2 0x7EC CALLDATASIZE PUSH1 0x4 PUSH2 0x274C JUMP JUMPDEST PUSH2 0x1D7F JUMP JUMPDEST CALLVALUE DUP1 ISZERO PUSH2 0x7FC JUMPI PUSH0 DUP1 REVERT JUMPDEST POP PUSH2 0x3F7 PUSH2 0x1DAE JUMP JUMPDEST CALLVALUE DUP1 ISZERO PUSH2 0x810 JUMPI PUSH0 DUP1 REVERT JUMPDEST POP PUSH2 0x43B PUSH1 0x10 SLOAD DUP2 JUMP JUMPDEST CALLVALUE DUP1 ISZERO PUSH2 0x825 JUMPI PUSH0 DUP1 REVERT JUMPDEST POP PUSH2 0x5CA PUSH2 0x1DBE JUMP JUMPDEST CALLVALUE DUP1 ISZERO PUSH2 0x839 JUMPI PUSH0 DUP1 REVERT JUMPDEST POP PUSH2 0x43B PUSH2 0x848 CALLDATASIZE PUSH1 0x4 PUSH2 0x274C JUMP JUMPDEST PUSH2 0x1DD1 JUMP JUMPDEST CALLVALUE DUP1 ISZERO PUSH2 0x858 JUMPI PUSH0 DUP1 REVERT JUMPDEST POP PUSH2 0x3C8 PUSH2 0x867 CALLDATASIZE PUSH1 0x4 PUSH2 0x26F3 JUMP JUMPDEST PUSH1 0x13 PUSH1 0x20 MSTORE PUSH0 SWAP1 DUP2 MSTORE PUSH1 0x40 SWAP1 KECCAK256 SLOAD PUSH1 0xFF AND DUP2 JUMP JUMPDEST CALLVALUE DUP1 ISZERO PUSH2 0x886 JUMPI PUSH0 DUP1 REVERT JUMPDEST POP PUSH1 0x2 SLOAD PUSH1 0x1 PUSH1 0x1 PUSH1 0xA0 SHL SUB AND PUSH2 0x5CA JUMP JUMPDEST CALLVALUE DUP1 ISZERO PUSH2 0x8A3 JUMPI PUSH0 DUP1 REVERT JUMPDEST POP PUSH2 0x43B PUSH1 0x7 SLOAD DUP2 JUMP JUMPDEST CALLVALUE DUP1 ISZERO PUSH2 0x8B8 JUMPI PUSH0 DUP1 REVERT JUMPDEST POP PUSH2 0x3C8 PUSH2 0x8C7 CALLDATASIZE PUSH1 0x4 PUSH2 0x26F3 JUMP JUMPDEST PUSH1 0x14 PUSH1 0x20 MSTORE PUSH0 SWAP1 DUP2 MSTORE PUSH1 0x40 SWAP1 KECCAK256 SLOAD PUSH1 0xFF AND DUP2 JUMP JUMPDEST CALLVALUE DUP1 ISZERO PUSH2 0x8E6 JUMPI PUSH0 DUP1 REVERT JUMPDEST POP PUSH2 0x3C8 PUSH2 0x8F5 CALLDATASIZE PUSH1 0x4 PUSH2 0x26F3 JUMP JUMPDEST PUSH1 0x12 PUSH1 0x20 MSTORE PUSH0 SWAP1 DUP2 MSTORE PUSH1 0x40 SWAP1 KECCAK256 SLOAD PUSH1 0xFF AND DUP2 JUMP JUMPDEST CALLVALUE DUP1 ISZERO PUSH2 0x914 JUMPI PUSH0 DUP1 REVERT JUMPDEST POP PUSH2 0x393 PUSH2 0x1DF2 JUMP JUMPDEST CALLVALUE DUP1 ISZERO PUSH2 0x928 JUMPI PUSH0 DUP1 REVERT JUMPDEST POP PUSH2 0x3F7 PUSH2 0x937 CALLDATASIZE PUSH1 0x4 PUSH2 0x290E JUMP JUMPDEST PUSH2 0x1DFF JUMP JUMPDEST CALLVALUE DUP1 ISZERO PUSH2 0x947 JUMPI PUSH0 DUP1 REVERT JUMPDEST POP PUSH2 0x3C8 PUSH2 0x956 CALLDATASIZE PUSH1 0x4 PUSH2 0x2691 JUMP JUMPDEST PUSH2 0x1E72 JUMP JUMPDEST CALLVALUE DUP1 ISZERO PUSH2 0x966 JUMPI PUSH0 DUP1 REVERT JUMPDEST POP PUSH2 0x43B PUSH10 0xD3C21BCECCEDA1000000 DUP2 JUMP JUMPDEST CALLVALUE DUP1 ISZERO PUSH2 0x983 JUMPI PUSH0 DUP1 REVERT JUMPDEST POP PUSH2 0x3C8 PUSH2 0x992 CALLDATASIZE PUSH1 0x4 PUSH2 0x2691 JUMP JUMPDEST PUSH2 0x1EBF JUMP JUMPDEST CALLVALUE DUP1 ISZERO PUSH2 0x9A2 JUMPI PUSH0 DUP1 REVERT JUMPDEST POP PUSH2 0x43B PUSH2 0x2710 DUP2 JUMP JUMPDEST CALLVALUE DUP1 ISZERO PUSH2 0x9B7 JUMPI PUSH0 DUP1 REVERT JUMPDEST POP PUSH2 0x3F7 PUSH2 0x9C6 CALLDATASIZE PUSH1 0x4 PUSH2 0x274C JUMP JUMPDEST PUSH2 0x1ECB JUMP JUMPDEST CALLVALUE DUP1 ISZERO PUSH2 0x9D6 JUMPI PUSH0 DUP1 REVERT JUMPDEST POP PUSH2 0x43B PUSH1 0xE SLOAD DUP2 JUMP JUMPDEST CALLVALUE DUP1 ISZERO PUSH2 0x9EB JUMPI PUSH0 DUP1 REVERT JUMPDEST POP PUSH2 0x43B PUSH2 0x9FA CALLDATASIZE PUSH1 0x4 PUSH2 0x292F JUMP JUMPDEST PUSH1 0x1 PUSH1 0x1 PUSH1 0xA0 SHL SUB SWAP2 DUP3 AND PUSH0 SWAP1 DUP2 MSTORE PUSH1 0x8 PUSH1 0x20 SWAP1 DUP2 MSTORE PUSH1 0x40 DUP1 DUP4 KECCAK256 SWAP4 SWAP1 SWAP5 AND DUP3 MSTORE SWAP2 SWAP1 SWAP2 MSTORE KECCAK256 SLOAD SWAP1 JUMP JUMPDEST CALLVALUE DUP1 ISZERO PUSH2 0xA2F JUMPI PUSH0 DUP1 REVERT JUMPDEST POP PUSH2 0x3F7 PUSH2 0xA3E CALLDATASIZE PUSH1 0x4 PUSH2 0x274C JUMP JUMPDEST PUSH2 0x1EFA JUMP JUMPDEST CALLVALUE DUP1 ISZERO PUSH2 0xA4E JUMPI PUSH0 DUP1 REVERT JUMPDEST POP PUSH2 0x43B PUSH2 0x1F07 JUMP JUMPDEST CALLVALUE DUP1 ISZERO PUSH2 0xA62 JUMPI PUSH0 DUP1 REVERT JUMPDEST POP PUSH2 0x3F7 PUSH2 0xA71 CALLDATASIZE PUSH1 0x4 PUSH2 0x2957 JUMP JUMPDEST PUSH2 0x1F42 JUMP JUMPDEST CALLVALUE DUP1 ISZERO PUSH2 0xA81 JUMPI PUSH0 DUP1 REVERT JUMPDEST POP PUSH2 0x3F7 PUSH2 0xA90 CALLDATASIZE PUSH1 0x4 PUSH2 0x26F3 JUMP JUMPDEST PUSH2 0x22E7 JUMP JUMPDEST PUSH1 0x3 DUP1 SLOAD PUSH2 0xAA2 SWAP1 PUSH2 0x2A15 JUMP JUMPDEST DUP1 PUSH1 0x1F ADD PUSH1 0x20 DUP1 SWAP2 DIV MUL PUSH1 0x20 ADD PUSH1 0x40 MLOAD SWAP1 DUP2 ADD PUSH1 0x40 MSTORE DUP1 SWAP3 SWAP2 SWAP1 DUP2 DUP2 MSTORE PUSH1 0x20 ADD DUP3 DUP1 SLOAD PUSH2 0xACE SWAP1 PUSH2 0x2A15 JUMP JUMPDEST DUP1 ISZERO PUSH2 0xB19 JUMPI DUP1 PUSH1 0x1F LT PUSH2 0xAF0 JUMPI PUSH2 0x100 DUP1 DUP4 SLOAD DIV MUL DUP4 MSTORE SWAP2 PUSH1 0x20 ADD SWAP2 PUSH2 0xB19 JUMP JUMPDEST DUP3 ADD SWAP2 SWAP1 PUSH0 MSTORE PUSH1 0x20 PUSH0 KECCAK256 SWAP1 JUMPDEST DUP2 SLOAD DUP2 MSTORE SWAP1 PUSH1 0x1 ADD SWAP1 PUSH1 0x20 ADD DUP1 DUP4 GT PUSH2 0xAFC JUMPI DUP3 SWAP1 SUB PUSH1 0x1F AND DUP3 ADD SWAP2 JUMPDEST POP POP POP POP POP DUP2 JUMP JUMPDEST PUSH0 PUSH2 0xB2D CALLER DUP5 DUP5 PUSH2 0xB37 JUMP JUMPDEST POP PUSH1 0x1 JUMPDEST SWAP3 SWAP2 POP POP JUMP JUMPDEST PUSH1 0x1 PUSH1 0x1 PUSH1 0xA0 SHL SUB DUP4 AND PUSH2 0xB9E JUMPI PUSH1 0x40 MLOAD PUSH3 0x461BCD PUSH1 0xE5 SHL DUP2 MSTORE PUSH1 0x20 PUSH1 0x4 DUP3 ADD MSTORE PUSH1 0x24 DUP1 DUP3 ADD MSTORE PUSH32 0x45524332303A20617070726F76652066726F6D20746865207A65726F20616464 PUSH1 0x44 DUP3 ADD MSTORE PUSH4 0x72657373 PUSH1 0xE0 SHL PUSH1 0x64 DUP3 ADD MSTORE PUSH1 0x84 ADD JUMPDEST PUSH1 0x40 MLOAD DUP1 SWAP2 SUB SWAP1 REVERT JUMPDEST PUSH1 0x1 PUSH1 0x1 PUSH1 0xA0 SHL SUB DUP3 AND PUSH2 0xBFF JUMPI PUSH1 0x40 MLOAD PUSH3 0x461BCD PUSH1 0xE5 SHL DUP2 MSTORE PUSH1 0x20 PUSH1 0x4 DUP3 ADD MSTORE PUSH1 0x22 PUSH1 0x24 DUP3 ADD MSTORE PUSH32 0x45524332303A20617070726F766520746F20746865207A65726F206164647265 PUSH1 0x44 DUP3 ADD MSTORE PUSH2 0x7373 PUSH1 0xF0 SHL PUSH1 0x64 DUP3 ADD MSTORE PUSH1 0x84 ADD PUSH2 0xB95 JUMP JUMPDEST PUSH1 0x1 PUSH1 0x1 PUSH1 0xA0 SHL SUB DUP4 DUP2 AND PUSH0 DUP2 DUP2 MSTORE PUSH1 0x8 PUSH1 0x20 SWAP1 DUP2 MSTORE PUSH1 0x40 DUP1 DUP4 KECCAK256 SWAP5 DUP8 AND DUP1 DUP5 MSTORE SWAP5 DUP3 MSTORE SWAP2 DUP3 SWAP1 KECCAK256 DUP6 SWAP1 SSTORE SWAP1 MLOAD DUP5 DUP2 MSTORE PUSH32 0x8C5BE1E5EBEC7D5BD14F71427D1E84F3DD0314C0F7B2291E5B200AC8C7C3B925 SWAP2 ADD JUMPDEST PUSH1 0x40 MLOAD DUP1 SWAP2 SUB SWAP1 LOG3 POP POP POP JUMP JUMPDEST PUSH0 PUSH1 0xA SLOAD PUSH1 0x6 SLOAD PUSH2 0xC71 SWAP2 SWAP1 PUSH2 0x2A61 JUMP JUMPDEST SWAP1 POP SWAP1 JUMP JUMPDEST PUSH0 PUSH2 0xC82 DUP5 DUP5 DUP5 PUSH2 0xCD8 JUMP JUMPDEST PUSH2 0xCCE DUP5 CALLER PUSH2 0x3F2 DUP6 PUSH1 0x40 MLOAD DUP1 PUSH1 0x60 ADD PUSH1 0x40 MSTORE DUP1 PUSH1 0x28 DUP2 MSTORE PUSH1 0x20 ADD PUSH2 0x2B21 PUSH1 0x28 SWAP2 CODECOPY PUSH1 0x1 PUSH1 0x1 PUSH1 0xA0 SHL SUB DUP11 AND PUSH0 SWAP1 DUP2 MSTORE PUSH1 0x8 PUSH1 0x20 SWAP1 DUP2 MSTORE PUSH1 0x40 DUP1 DUP4 KECCAK256 CALLER DUP5 MSTORE SWAP1 SWAP2 MSTORE SWAP1 KECCAK256 SLOAD SWAP2 SWAP1 PUSH2 0x2324 JUMP JUMPDEST POP PUSH1 0x1 SWAP4 SWAP3 POP POP POP JUMP JUMPDEST PUSH2 0xCE0 PUSH2 0x234F JUMP JUMPDEST PUSH1 0x1 PUSH1 0x1 PUSH1 0xA0 SHL SUB DUP4 AND PUSH2 0xD44 JUMPI PUSH1 0x40 MLOAD PUSH3 0x461BCD PUSH1 0xE5 SHL DUP2 MSTORE PUSH1 0x20 PUSH1 0x4 DUP3 ADD MSTORE PUSH1 0x25 PUSH1 0x24 DUP3 ADD MSTORE PUSH32 0x45524332303A207472616E736665722066726F6D20746865207A65726F206164 PUSH1 0x44 DUP3 ADD MSTORE PUSH5 0x6472657373 PUSH1 0xD8 SHL PUSH1 0x64 DUP3 ADD MSTORE PUSH1 0x84 ADD PUSH2 0xB95 JUMP JUMPDEST PUSH1 0x1 PUSH1 0x1 PUSH1 0xA0 SHL SUB DUP3 AND PUSH2 0xDA6 JUMPI PUSH1 0x40 MLOAD PUSH3 0x461BCD PUSH1 0xE5 SHL DUP2 MSTORE PUSH1 0x20 PUSH1 0x4 DUP3 ADD MSTORE PUSH1 0x23 PUSH1 0x24 DUP3 ADD MSTORE PUSH32 0x45524332303A207472616E7366657220746F20746865207A65726F2061646472 PUSH1 0x44 DUP3 ADD MSTORE PUSH3 0x657373 PUSH1 0xE8 SHL PUSH1 0x64 DUP3 ADD MSTORE PUSH1 0x84 ADD PUSH2 0xB95 JUMP JUMPDEST DUP1 PUSH2 0xDB0 DUP5 PUSH2 0x1BA9 JUMP JUMPDEST LT ISZERO PUSH2 0xDFE JUMPI PUSH1 0x40 MLOAD PUSH3 0x461BCD PUSH1 0xE5 SHL DUP2 MSTORE PUSH1 0x20 PUSH1 0x4 DUP3 ADD MSTORE PUSH1 0x1F PUSH1 0x24 DUP3 ADD MSTORE PUSH32 0x496E73756666696369656E742046756E647320466F72205472616E7366657200 PUSH1 0x44 DUP3 ADD MSTORE PUSH1 0x64 ADD PUSH2 0xB95 JUMP JUMPDEST PUSH1 0x10 SLOAD PUSH2 0xE0A DUP4 PUSH2 0x1BA9 JUMP JUMPDEST LT ISZERO DUP1 ISZERO PUSH2 0xE30 JUMPI POP PUSH1 0x1 PUSH1 0x1 PUSH1 0xA0 SHL SUB DUP3 AND PUSH0 SWAP1 DUP2 MSTORE PUSH1 0x13 PUSH1 0x20 MSTORE PUSH1 0x40 SWAP1 KECCAK256 SLOAD PUSH1 0xFF AND ISZERO JUMPDEST ISZERO PUSH2 0xE7D JUMPI PUSH1 0x40 MLOAD PUSH3 0x461BCD PUSH1 0xE5 SHL DUP2 MSTORE PUSH1 0x20 PUSH1 0x4 DUP3 ADD MSTORE PUSH1 0x18 PUSH1 0x24 DUP3 ADD MSTORE PUSH32 0x486F6C64696E6720546F6B656E73206578636565646564210000000000000000 PUSH1 0x44 DUP3 ADD MSTORE PUSH1 0x64 ADD PUSH2 0xB95 JUMP JUMPDEST PUSH1 0x1 PUSH1 0x1 PUSH1 0xA0 SHL SUB DUP3 AND PUSH0 SWAP1 DUP2 MSTORE PUSH1 0x13 PUSH1 0x20 MSTORE PUSH1 0x40 SWAP1 KECCAK256 SLOAD DUP2 SWAP1 PUSH1 0xFF AND ISZERO DUP1 ISZERO PUSH2 0xEBB JUMPI POP PUSH1 0x10 SLOAD DUP2 PUSH2 0xEAF DUP6 PUSH2 0x1BA9 JUMP JUMPDEST PUSH2 0xEB9 SWAP2 SWAP1 PUSH2 0x2A61 JUMP JUMPDEST GT JUMPDEST ISZERO PUSH2 0xEEE JUMPI PUSH1 0x10 SLOAD DUP2 PUSH2 0xECD DUP6 PUSH2 0x1BA9 JUMP JUMPDEST PUSH2 0xED7 SWAP2 SWAP1 PUSH2 0x2A61 JUMP JUMPDEST PUSH2 0xEE1 SWAP2 SWAP1 PUSH2 0x2A74 JUMP JUMPDEST PUSH2 0xEEB SWAP1 DUP3 PUSH2 0x2A74 JUMP JUMPDEST SWAP1 POP JUMPDEST PUSH0 PUSH2 0xEF8 DUP3 PUSH2 0x1DD1 JUMP JUMPDEST PUSH1 0x1 PUSH1 0x1 PUSH1 0xA0 SHL SUB DUP7 AND PUSH0 SWAP1 DUP2 MSTORE PUSH1 0x12 PUSH1 0x20 MSTORE PUSH1 0x40 SWAP1 KECCAK256 SLOAD SWAP1 SWAP2 POP PUSH1 0xFF AND ISZERO PUSH2 0xF27 JUMPI PUSH2 0xF24 DUP3 PUSH2 0x1DD1 JUMP JUMPDEST SWAP1 POP JUMPDEST PUSH0 PUSH2 0xF3A PUSH1 0x2 SLOAD PUSH1 0x1 PUSH1 0x1 PUSH1 0xA0 SHL SUB AND SWAP1 JUMP JUMPDEST PUSH1 0x1 PUSH1 0x1 PUSH1 0xA0 SHL SUB AND DUP7 PUSH1 0x1 PUSH1 0x1 PUSH1 0xA0 SHL SUB AND EQ ISZERO DUP1 ISZERO PUSH2 0xF72 JUMPI POP PUSH1 0x1 PUSH1 0x1 PUSH1 0xA0 SHL SUB DUP6 AND PUSH0 SWAP1 DUP2 MSTORE PUSH1 0x11 PUSH1 0x20 MSTORE PUSH1 0x40 SWAP1 KECCAK256 SLOAD PUSH1 0xFF AND JUMPDEST ISZERO PUSH2 0xF95 JUMPI PUSH2 0x2710 PUSH1 0xC SLOAD DUP5 PUSH2 0xF88 SWAP2 SWAP1 PUSH2 0x2A87 JUMP JUMPDEST PUSH2 0xF92 SWAP2 SWAP1 PUSH2 0x2A9E JUMP JUMPDEST SWAP1 POP JUMPDEST PUSH0 PUSH2 0xFA0 DUP3 DUP6 PUSH2 0x2A74 JUMP JUMPDEST SWAP1 POP PUSH0 PUSH2 0xFAC DUP3 PUSH2 0x1DD1 JUMP JUMPDEST PUSH1 0x1 PUSH1 0x1 PUSH1 0xA0 SHL SUB DUP9 AND PUSH0 SWAP1 DUP2 MSTORE PUSH1 0x12 PUSH1 0x20 MSTORE PUSH1 0x40 DUP2 KECCAK256 SLOAD SWAP2 SWAP3 POP SWAP1 PUSH1 0xFF AND PUSH2 0xFD5 JUMPI DUP2 PUSH2 0xFDE JUMP JUMPDEST PUSH2 0xFDE DUP4 PUSH2 0x1DD1 JUMP JUMPDEST PUSH1 0x1 PUSH1 0x1 PUSH1 0xA0 SHL SUB DUP11 AND PUSH0 SWAP1 DUP2 MSTORE PUSH1 0x9 PUSH1 0x20 MSTORE PUSH1 0x40 DUP2 KECCAK256 DUP1 SLOAD SWAP3 SWAP4 POP DUP8 SWAP3 SWAP1 SWAP2 SWAP1 PUSH2 0x100A SWAP1 DUP5 SWAP1 PUSH2 0x2A74 JUMP JUMPDEST SWAP1 SWAP2 SSTORE POP POP PUSH1 0x1 PUSH1 0x1 PUSH1 0xA0 SHL SUB DUP9 AND PUSH0 SWAP1 DUP2 MSTORE PUSH1 0x12 PUSH1 0x20 MSTORE PUSH1 0x40 SWAP1 KECCAK256 SLOAD PUSH1 0xFF AND ISZERO PUSH2 0x1061 JUMPI PUSH1 0x1 PUSH1 0x1 PUSH1 0xA0 SHL SUB DUP9 AND PUSH0 SWAP1 DUP2 MSTORE PUSH1 0x9 PUSH1 0x20 MSTORE PUSH1 0x40 DUP2 KECCAK256 DUP1 SLOAD DUP4 SWAP3 SWAP1 PUSH2 0x1056 SWAP1 DUP5 SWAP1 PUSH2 0x2A61 JUMP JUMPDEST SWAP1 SWAP2 SSTORE POP PUSH2 0x108E SWAP1 POP JUMP JUMPDEST PUSH1 0x1 PUSH1 0x1 PUSH1 0xA0 SHL SUB DUP9 AND PUSH0 SWAP1 DUP2 MSTORE PUSH1 0x9 PUSH1 0x20 MSTORE PUSH1 0x40 DUP2 KECCAK256 DUP1 SLOAD DUP5 SWAP3 SWAP1 PUSH2 0x1088 SWAP1 DUP5 SWAP1 PUSH2 0x2A61 JUMP JUMPDEST SWAP1 SWAP2 SSTORE POP POP JUMPDEST DUP4 PUSH1 0xA PUSH0 DUP3 DUP3 SLOAD PUSH2 0x109F SWAP2 SWAP1 PUSH2 0x2A61 JUMP JUMPDEST SWAP3 POP POP DUP2 SWAP1 SSTORE POP DUP4 PUSH1 0x6 PUSH0 DUP3 DUP3 SLOAD PUSH2 0x10B7 SWAP2 SWAP1 PUSH2 0x2A74 JUMP JUMPDEST SWAP3 POP POP DUP2 SWAP1 SSTORE POP DUP8 PUSH1 0x1 PUSH1 0x1 PUSH1 0xA0 SHL SUB AND DUP10 PUSH1 0x1 PUSH1 0x1 PUSH1 0xA0 SHL SUB AND PUSH0 DUP1 MLOAD PUSH1 0x20 PUSH2 0x2B49 DUP4 CODECOPY DUP2 MLOAD SWAP2 MSTORE DUP6 PUSH1 0x40 MLOAD PUSH2 0x10F0 SWAP2 DUP2 MSTORE PUSH1 0x20 ADD SWAP1 JUMP JUMPDEST PUSH1 0x40 MLOAD DUP1 SWAP2 SUB SWAP1 LOG3 DUP4 ISZERO PUSH2 0x1131 JUMPI PUSH1 0xB SLOAD PUSH1 0x40 MLOAD DUP6 DUP2 MSTORE PUSH1 0x1 PUSH1 0x1 PUSH1 0xA0 SHL SUB SWAP2 DUP3 AND SWAP2 DUP12 AND SWAP1 PUSH0 DUP1 MLOAD PUSH1 0x20 PUSH2 0x2B49 DUP4 CODECOPY DUP2 MLOAD SWAP2 MSTORE SWAP1 PUSH1 0x20 ADD PUSH1 0x40 MLOAD DUP1 SWAP2 SUB SWAP1 LOG3 JUMPDEST PUSH1 0x1 PUSH1 0x1 PUSH1 0xA0 SHL SUB DUP10 AND PUSH0 SWAP1 DUP2 MSTORE PUSH1 0x12 PUSH1 0x20 MSTORE PUSH1 0x40 SWAP1 KECCAK256 SLOAD PUSH1 0xFF AND ISZERO DUP1 ISZERO PUSH2 0x1170 JUMPI POP PUSH1 0x1 PUSH1 0x1 PUSH1 0xA0 SHL SUB DUP9 AND PUSH0 SWAP1 DUP2 MSTORE PUSH1 0x12 PUSH1 0x20 MSTORE PUSH1 0x40 SWAP1 KECCAK256 SLOAD PUSH1 0xFF AND JUMPDEST ISZERO PUSH2 0x1191 JUMPI DUP3 PUSH1 0x7 PUSH0 DUP3 DUP3 SLOAD PUSH2 0x1186 SWAP2 SWAP1 PUSH2 0x2A61 JUMP JUMPDEST SWAP1 SWAP2 SSTORE POP PUSH2 0x1226 SWAP1 POP JUMP JUMPDEST PUSH1 0x1 PUSH1 0x1 PUSH1 0xA0 SHL SUB DUP10 AND PUSH0 SWAP1 DUP2 MSTORE PUSH1 0x12 PUSH1 0x20 MSTORE PUSH1 0x40 SWAP1 KECCAK256 SLOAD PUSH1 0xFF AND DUP1 ISZERO PUSH2 0x11D0 JUMPI POP PUSH1 0x1 PUSH1 0x1 PUSH1 0xA0 SHL SUB DUP9 AND PUSH0 SWAP1 DUP2 MSTORE PUSH1 0x12 PUSH1 0x20 MSTORE PUSH1 0x40 SWAP1 KECCAK256 SLOAD PUSH1 0xFF AND ISZERO JUMPDEST ISZERO PUSH2 0x11E6 JUMPI DUP3 PUSH1 0x7 PUSH0 DUP3 DUP3 SLOAD PUSH2 0x1186 SWAP2 SWAP1 PUSH2 0x2A74 JUMP JUMPDEST PUSH1 0x1 PUSH1 0x1 PUSH1 0xA0 SHL SUB DUP10 AND PUSH0 SWAP1 DUP2 MSTORE PUSH1 0x12 PUSH1 0x20 MSTORE PUSH1 0x40 SWAP1 KECCAK256 SLOAD PUSH1 0xFF AND DUP1 ISZERO PUSH2 0x1224 JUMPI POP PUSH1 0x1 PUSH1 0x1 PUSH1 0xA0 SHL SUB DUP9 AND PUSH0 SWAP1 DUP2 MSTORE PUSH1 0x12 PUSH1 0x20 MSTORE PUSH1 0x40 SWAP1 KECCAK256 SLOAD PUSH1 0xFF AND JUMPDEST POP JUMPDEST PUSH1 0xA SLOAD ISZERO PUSH2 0x1247 JUMPI PUSH1 0xA SLOAD PUSH1 0xB SLOAD PUSH2 0x1247 SWAP2 SWAP1 PUSH1 0x1 PUSH1 0x1 PUSH1 0xA0 SHL SUB AND PUSH2 0x1DFF JUMP JUMPDEST POP POP POP POP POP POP POP POP POP JUMP JUMPDEST PUSH1 0x1 PUSH1 0x1 PUSH1 0xA0 SHL SUB DUP3 AND PUSH2 0x12A8 JUMPI PUSH1 0x40 MLOAD PUSH3 0x461BCD PUSH1 0xE5 SHL DUP2 MSTORE PUSH1 0x20 PUSH1 0x4 DUP3 ADD MSTORE PUSH1 0x1A PUSH1 0x24 DUP3 ADD MSTORE PUSH32 0x4163636F756E742073686F756C646E2774206265207A65726F2E000000000000 PUSH1 0x44 DUP3 ADD MSTORE PUSH1 0x64 ADD PUSH2 0xB95 JUMP JUMPDEST PUSH1 0x1 PUSH1 0x1 PUSH1 0xA0 SHL SUB SWAP2 SWAP1 SWAP2 AND PUSH0 SWAP1 DUP2 MSTORE PUSH1 0x13 PUSH1 0x20 MSTORE PUSH1 0x40 SWAP1 KECCAK256 DUP1 SLOAD PUSH1 0xFF NOT AND SWAP2 ISZERO ISZERO SWAP2 SWAP1 SWAP2 OR SWAP1 SSTORE JUMP JUMPDEST CALLER PUSH0 DUP2 DUP2 MSTORE PUSH1 0x8 PUSH1 0x20 SWAP1 DUP2 MSTORE PUSH1 0x40 DUP1 DUP4 KECCAK256 PUSH1 0x1 PUSH1 0x1 PUSH1 0xA0 SHL SUB DUP8 AND DUP5 MSTORE SWAP1 SWAP2 MSTORE DUP2 KECCAK256 SLOAD SWAP1 SWAP2 PUSH2 0xB2D SWAP2 DUP6 SWAP1 PUSH2 0x3F2 SWAP1 DUP7 PUSH2 0x2394 JUMP JUMPDEST PUSH2 0x130F PUSH2 0x23A6 JUMP JUMPDEST PUSH1 0x10 SSTORE JUMP JUMPDEST PUSH2 0x131C PUSH2 0x23A6 JUMP JUMPDEST PUSH2 0x1324 PUSH2 0x23D3 JUMP JUMPDEST JUMP JUMPDEST PUSH1 0xF SLOAD PUSH1 0x15 SLOAD PUSH2 0x1336 SWAP1 TIMESTAMP PUSH2 0x2A74 JUMP JUMPDEST GT PUSH2 0x1383 JUMPI PUSH1 0x40 MLOAD PUSH3 0x461BCD PUSH1 0xE5 SHL DUP2 MSTORE PUSH1 0x20 PUSH1 0x4 DUP3 ADD MSTORE PUSH1 0x1E PUSH1 0x24 DUP3 ADD MSTORE PUSH32 0x4B656570557020726571756972656D656E74206973206E6F74206D6574210000 PUSH1 0x44 DUP3 ADD MSTORE PUSH1 0x64 ADD PUSH2 0xB95 JUMP JUMPDEST PUSH1 0x7 SLOAD PUSH1 0x6 SLOAD LT ISZERO PUSH2 0x13FD JUMPI PUSH1 0x40 MLOAD PUSH3 0x461BCD PUSH1 0xE5 SHL DUP2 MSTORE PUSH1 0x20 PUSH1 0x4 DUP3 ADD MSTORE PUSH1 0x3E PUSH1 0x24 DUP3 ADD MSTORE PUSH32 0x74537570706C79206D7573742062652067726561746572207468616E206F7220 PUSH1 0x44 DUP3 ADD MSTORE PUSH32 0x657175616C20746F206578636C7564654465626173696E67537570706C790000 PUSH1 0x64 DUP3 ADD MSTORE PUSH1 0x84 ADD PUSH2 0xB95 JUMP JUMPDEST PUSH2 0x1405 PUSH2 0x2424 JUMP JUMPDEST POP POP TIMESTAMP PUSH1 0x15 SSTORE JUMP JUMPDEST PUSH1 0x1 PUSH1 0x1 PUSH1 0xA0 SHL SUB DUP3 AND PUSH2 0x1463 JUMPI PUSH1 0x40 MLOAD PUSH3 0x461BCD PUSH1 0xE5 SHL DUP2 MSTORE PUSH1 0x20 PUSH1 0x4 DUP3 ADD MSTORE PUSH1 0x1F PUSH1 0x24 DUP3 ADD MSTORE PUSH32 0x45524332303A206D696E7420746F20746865207A65726F206164647265737300 PUSH1 0x44 DUP3 ADD MSTORE PUSH1 0x64 ADD PUSH2 0xB95 JUMP JUMPDEST DUP1 PUSH1 0x6 PUSH0 DUP3 DUP3 SLOAD PUSH2 0x1474 SWAP2 SWAP1 PUSH2 0x2A61 JUMP JUMPDEST SWAP1 SWAP2 SSTORE POP PUSH0 SWAP1 POP PUSH2 0x1484 DUP3 PUSH2 0x1DD1 JUMP JUMPDEST PUSH1 0x1 PUSH1 0x1 PUSH1 0xA0 SHL SUB DUP5 AND PUSH0 SWAP1 DUP2 MSTORE PUSH1 0x12 PUSH1 0x20 MSTORE PUSH1 0x40 SWAP1 KECCAK256 SLOAD SWAP1 SWAP2 POP PUSH1 0xFF AND ISZERO PUSH2 0x14CA JUMPI DUP2 PUSH1 0x7 PUSH0 DUP3 DUP3 SLOAD PUSH2 0x14B8 SWAP2 SWAP1 PUSH2 0x2A61 JUMP JUMPDEST SWAP1 SWAP2 SSTORE POP PUSH2 0x14C7 SWAP1 POP DUP3 PUSH2 0x1DD1 JUMP JUMPDEST SWAP1 POP JUMPDEST PUSH1 0x1 PUSH1 0x1 PUSH1 0xA0 SHL SUB DUP4 AND PUSH0 SWAP1 DUP2 MSTORE PUSH1 0x9 PUSH1 0x20 MSTORE PUSH1 0x40 DUP2 KECCAK256 DUP1 SLOAD DUP4 SWAP3 SWAP1 PUSH2 0x14F1 SWAP1 DUP5 SWAP1 PUSH2 0x2A61 JUMP JUMPDEST SWAP1 SWAP2 SSTORE POP POP PUSH1 0x40 MLOAD DUP3 DUP2 MSTORE PUSH1 0x1 PUSH1 0x1 PUSH1 0xA0 SHL SUB DUP5 AND SWAP1 PUSH32 0xF6798A560793A54C3BCFE86A93CDE1E73087D944C0EA20544137D4121396885 SWAP1 PUSH1 0x20 ADD PUSH1 0x40 MLOAD DUP1 SWAP2 SUB SWAP1 LOG2 PUSH1 0xB SLOAD PUSH1 0x1 PUSH1 0x1 PUSH1 0xA0 SHL SUB DUP5 DUP2 AND SWAP2 AND EQ PUSH2 0x1573 JUMPI PUSH1 0x40 MLOAD DUP3 DUP2 MSTORE PUSH1 0x1 PUSH1 0x1 PUSH1 0xA0 SHL SUB DUP5 AND SWAP1 PUSH0 SWAP1 PUSH0 DUP1 MLOAD PUSH1 0x20 PUSH2 0x2B49 DUP4 CODECOPY DUP2 MLOAD SWAP2 MSTORE SWAP1 PUSH1 0x20 ADD PUSH2 0xC53 JUMP JUMPDEST POP POP POP JUMP JUMPDEST PUSH2 0x1580 PUSH2 0x23A6 JUMP JUMPDEST TIMESTAMP PUSH1 0x15 SLOAD GT ISZERO PUSH2 0x158E JUMPI PUSH0 DUP1 REVERT JUMPDEST TIMESTAMP PUSH1 0x15 SSTORE JUMP JUMPDEST PUSH1 0x1 PUSH1 0x1 PUSH1 0xA0 SHL SUB DUP3 AND PUSH2 0x15F4 JUMPI PUSH1 0x40 MLOAD PUSH3 0x461BCD PUSH1 0xE5 SHL DUP2 MSTORE PUSH1 0x20 PUSH1 0x4 DUP3 ADD MSTORE PUSH1 0x21 PUSH1 0x24 DUP3 ADD MSTORE PUSH32 0x45524332303A206275726E2066726F6D20746865207A65726F20616464726573 PUSH1 0x44 DUP3 ADD MSTORE PUSH1 0x73 PUSH1 0xF8 SHL PUSH1 0x64 DUP3 ADD MSTORE PUSH1 0x84 ADD PUSH2 0xB95 JUMP JUMPDEST DUP1 PUSH1 0x6 PUSH0 DUP3 DUP3 SLOAD PUSH2 0x1605 SWAP2 SWAP1 PUSH2 0x2A74 JUMP JUMPDEST SWAP1 SWAP2 SSTORE POP PUSH0 SWAP1 POP PUSH2 0x1615 DUP3 PUSH2 0x1DD1 JUMP JUMPDEST PUSH1 0x1 PUSH1 0x1 PUSH1 0xA0 SHL SUB DUP5 AND PUSH0 SWAP1 DUP2 MSTORE PUSH1 0x12 PUSH1 0x20 MSTORE PUSH1 0x40 SWAP1 KECCAK256 SLOAD SWAP1 SWAP2 POP PUSH1 0xFF AND ISZERO PUSH2 0x165B JUMPI DUP2 PUSH1 0x7 PUSH0 DUP3 DUP3 SLOAD PUSH2 0x1649 SWAP2 SWAP1 PUSH2 0x2A74 JUMP JUMPDEST SWAP1 SWAP2 SSTORE POP PUSH2 0x1658 SWAP1 POP DUP3 PUSH2 0x1DD1 JUMP JUMPDEST SWAP1 POP JUMPDEST PUSH1 0x1 PUSH1 0x1 PUSH1 0xA0 SHL SUB DUP4 AND PUSH0 SWAP1 DUP2 MSTORE PUSH1 0x9 PUSH1 0x20 MSTORE PUSH1 0x40 DUP2 KECCAK256 DUP1 SLOAD DUP4 SWAP3 SWAP1 PUSH2 0x1682 SWAP1 DUP5 SWAP1 PUSH2 0x2A74 JUMP JUMPDEST SWAP1 SWAP2 SSTORE POP POP PUSH1 0x40 MLOAD DUP3 DUP2 MSTORE PUSH1 0x1 PUSH1 0x1 PUSH1 0xA0 SHL SUB DUP5 AND SWAP1 PUSH32 0xCC16F5DBB4873280815C1EE09DBD06736CFFCC184412CF7A71A0FDB75D397CA5 SWAP1 PUSH1 0x20 ADD PUSH1 0x40 MLOAD DUP1 SWAP2 SUB SWAP1 LOG2 PUSH1 0x40 MLOAD DUP3 DUP2 MSTORE PUSH0 SWAP1 PUSH1 0x1 PUSH1 0x1 PUSH1 0xA0 SHL SUB DUP6 AND SWAP1 PUSH0 DUP1 MLOAD PUSH1 0x20 PUSH2 0x2B49 DUP4 CODECOPY DUP2 MLOAD SWAP2 MSTORE SWAP1 PUSH1 0x20 ADD PUSH2 0xC53 JUMP JUMPDEST PUSH0 PUSH2 0xB31 PUSH10 0xD3C21BCECCEDA1000000 PUSH2 0x1713 PUSH1 0xE SLOAD DUP6 PUSH2 0x24F2 SWAP1 SWAP2 SWAP1 PUSH4 0xFFFFFFFF AND JUMP JUMPDEST SWAP1 PUSH2 0x24FD JUMP JUMPDEST PUSH2 0x1721 PUSH2 0x23A6 JUMP JUMPDEST PUSH1 0x1 PUSH1 0x1 PUSH1 0xA0 SHL SUB DUP2 AND PUSH2 0x1777 JUMPI PUSH1 0x40 MLOAD PUSH3 0x461BCD PUSH1 0xE5 SHL DUP2 MSTORE PUSH1 0x20 PUSH1 0x4 DUP3 ADD MSTORE PUSH1 0x1D PUSH1 0x24 DUP3 ADD MSTORE PUSH32 0x496E76616C696420616464726573733A207A65726F2061646472657373000000 PUSH1 0x44 DUP3 ADD MSTORE PUSH1 0x64 ADD PUSH2 0xB95 JUMP JUMPDEST PUSH0 DUP2 PUSH1 0x1 PUSH1 0x1 PUSH1 0xA0 SHL SUB AND SELFBALANCE PUSH1 0x40 MLOAD PUSH0 PUSH1 0x40 MLOAD DUP1 DUP4 SUB DUP2 DUP6 DUP8 GAS CALL SWAP3 POP POP POP RETURNDATASIZE DUP1 PUSH0 DUP2 EQ PUSH2 0x17C0 JUMPI PUSH1 0x40 MLOAD SWAP2 POP PUSH1 0x1F NOT PUSH1 0x3F RETURNDATASIZE ADD AND DUP3 ADD PUSH1 0x40 MSTORE RETURNDATASIZE DUP3 MSTORE RETURNDATASIZE PUSH0 PUSH1 0x20 DUP5 ADD RETURNDATACOPY PUSH2 0x17C5 JUMP JUMPDEST PUSH1 0x60 SWAP2 POP JUMPDEST POP POP SWAP1 POP DUP1 PUSH2 0x1808 JUMPI PUSH1 0x40 MLOAD PUSH3 0x461BCD PUSH1 0xE5 SHL DUP2 MSTORE PUSH1 0x20 PUSH1 0x4 DUP3 ADD MSTORE PUSH1 0xF PUSH1 0x24 DUP3 ADD MSTORE PUSH15 0x151C985B9CD9995C8811985A5B1959 PUSH1 0x8A SHL PUSH1 0x44 DUP3 ADD MSTORE PUSH1 0x64 ADD PUSH2 0xB95 JUMP JUMPDEST POP POP JUMP JUMPDEST PUSH2 0x1814 PUSH2 0x234F JUMP JUMPDEST CALLER PUSH0 SWAP1 DUP2 MSTORE PUSH1 0x14 PUSH1 0x20 MSTORE PUSH1 0x40 SWAP1 KECCAK256 SLOAD PUSH1 0xFF AND DUP1 PUSH2 0x183B JUMPI POP PUSH1 0x2 SLOAD PUSH1 0x1 PUSH1 0x1 PUSH1 0xA0 SHL SUB AND CALLER EQ JUMPDEST PUSH2 0x1843 JUMPI PUSH0 DUP1 REVERT JUMPDEST PUSH1 0xA SLOAD ISZERO PUSH2 0x1864 JUMPI PUSH1 0xA SLOAD PUSH1 0xB SLOAD PUSH2 0x1864 SWAP2 SWAP1 PUSH1 0x1 PUSH1 0x1 PUSH1 0xA0 SHL SUB AND PUSH2 0x1DFF JUMP JUMPDEST PUSH1 0x1 PUSH1 0x1 PUSH1 0xA0 SHL SUB DUP3 AND PUSH0 SWAP1 DUP2 MSTORE PUSH1 0x12 PUSH1 0x20 MSTORE PUSH1 0x40 SWAP1 KECCAK256 SLOAD PUSH1 0xFF AND ISZERO PUSH2 0x18BF JUMPI PUSH2 0x188D DUP2 PUSH2 0x1DD1 JUMP JUMPDEST PUSH1 0x1 PUSH1 0x1 PUSH1 0xA0 SHL SUB DUP4 AND PUSH0 SWAP1 DUP2 MSTORE PUSH1 0x9 PUSH1 0x20 MSTORE PUSH1 0x40 DUP2 KECCAK256 DUP1 SLOAD SWAP1 SWAP2 SWAP1 PUSH2 0x18B4 SWAP1 DUP5 SWAP1 PUSH2 0x2A61 JUMP JUMPDEST SWAP1 SWAP2 SSTORE POP PUSH2 0x190D SWAP1 POP JUMP JUMPDEST PUSH2 0x18C8 DUP2 PUSH2 0x1DD1 JUMP JUMPDEST PUSH1 0x1 PUSH1 0x1 PUSH1 0xA0 SHL SUB DUP4 AND PUSH0 SWAP1 DUP2 MSTORE PUSH1 0x9 PUSH1 0x20 MSTORE PUSH1 0x40 DUP2 KECCAK256 DUP1 SLOAD SWAP1 SWAP2 SWAP1 PUSH2 0x18EF SWAP1 DUP5 SWAP1 PUSH2 0x2A61 JUMP JUMPDEST SWAP3 POP POP DUP2 SWAP1 SSTORE POP DUP1 PUSH1 0x7 PUSH0 DUP3 DUP3 SLOAD PUSH2 0x1907 SWAP2 SWAP1 PUSH2 0x2A74 JUMP JUMPDEST SWAP1 SWAP2 SSTORE POP POP JUMPDEST PUSH2 0x1916 DUP2 PUSH2 0x1DD1 JUMP JUMPDEST PUSH1 0xB SLOAD PUSH1 0x1 PUSH1 0x1 PUSH1 0xA0 SHL SUB AND PUSH0 SWAP1 DUP2 MSTORE PUSH1 0x9 PUSH1 0x20 MSTORE PUSH1 0x40 DUP2 KECCAK256 DUP1 SLOAD SWAP1 SWAP2 SWAP1 PUSH2 0x193F SWAP1 DUP5 SWAP1 PUSH2 0x2A74 JUMP JUMPDEST SWAP1 SWAP2 SSTORE POP POP PUSH1 0xB SLOAD PUSH1 0x40 MLOAD DUP3 DUP2 MSTORE PUSH1 0x1 PUSH1 0x1 PUSH1 0xA0 SHL SUB DUP5 DUP2 AND SWAP3 AND SWAP1 PUSH0 DUP1 MLOAD PUSH1 0x20 PUSH2 0x2B49 DUP4 CODECOPY DUP2 MLOAD SWAP2 MSTORE SWAP1 PUSH1 0x20 ADD PUSH1 0x40 MLOAD DUP1 SWAP2 SUB SWAP1 LOG3 POP POP JUMP JUMPDEST PUSH2 0x1981 PUSH2 0x23A6 JUMP JUMPDEST PUSH0 JUMPDEST DUP3 MLOAD DUP2 LT ISZERO PUSH2 0x1573 JUMPI PUSH1 0xB SLOAD DUP4 MLOAD PUSH1 0x1 PUSH1 0x1 PUSH1 0xA0 SHL SUB SWAP1 SWAP2 AND SWAP1 DUP5 SWAP1 DUP4 SWAP1 DUP2 LT PUSH2 0x19AF JUMPI PUSH2 0x19AF PUSH2 0x2ABD JUMP JUMPDEST PUSH1 0x20 MUL PUSH1 0x20 ADD ADD MLOAD PUSH1 0x1 PUSH1 0x1 PUSH1 0xA0 SHL SUB AND SUB PUSH2 0x1A24 JUMPI PUSH1 0x40 MLOAD PUSH3 0x461BCD PUSH1 0xE5 SHL DUP2 MSTORE PUSH1 0x20 PUSH1 0x4 DUP3 ADD MSTORE PUSH1 0x2E PUSH1 0x24 DUP3 ADD MSTORE PUSH32 0x54726561737572792077616C6C65742063616E6E6F7420626520696E636C7564 PUSH1 0x44 DUP3 ADD MSTORE PUSH14 0x656420696E206465626173696E67 PUSH1 0x90 SHL PUSH1 0x64 DUP3 ADD MSTORE PUSH1 0x84 ADD PUSH2 0xB95 JUMP JUMPDEST PUSH2 0x1A47 DUP4 DUP3 DUP2 MLOAD DUP2 LT PUSH2 0x1A39 JUMPI PUSH2 0x1A39 PUSH2 0x2ABD JUMP JUMPDEST PUSH1 0x20 MUL PUSH1 0x20 ADD ADD MLOAD DUP4 PUSH2 0x1AA5 JUMP JUMPDEST PUSH1 0x1 ADD PUSH2 0x1983 JUMP JUMPDEST PUSH0 PUSH1 0x60 PUSH1 0xF SLOAD PUSH1 0x15 SLOAD TIMESTAMP PUSH2 0x1A63 SWAP2 SWAP1 PUSH2 0x2A74 JUMP JUMPDEST GT SWAP2 POP DUP4 DUP4 DUP1 DUP1 PUSH1 0x1F ADD PUSH1 0x20 DUP1 SWAP2 DIV MUL PUSH1 0x20 ADD PUSH1 0x40 MLOAD SWAP1 DUP2 ADD PUSH1 0x40 MSTORE DUP1 SWAP4 SWAP3 SWAP2 SWAP1 DUP2 DUP2 MSTORE PUSH1 0x20 ADD DUP4 DUP4 DUP1 DUP3 DUP5 CALLDATACOPY PUSH0 SWAP3 ADD SWAP2 SWAP1 SWAP2 MSTORE POP SWAP3 SWAP4 POP POP POP POP SWAP3 POP SWAP3 SWAP1 POP JUMP JUMPDEST PUSH1 0x1 PUSH1 0x1 PUSH1 0xA0 SHL SUB DUP3 AND PUSH2 0x1AFB JUMPI PUSH1 0x40 MLOAD PUSH3 0x461BCD PUSH1 0xE5 SHL DUP2 MSTORE PUSH1 0x20 PUSH1 0x4 DUP3 ADD MSTORE PUSH1 0x1A PUSH1 0x24 DUP3 ADD MSTORE PUSH32 0x4163636F756E742073686F756C646E2774206265207A65726F2E000000000000 PUSH1 0x44 DUP3 ADD MSTORE PUSH1 0x64 ADD PUSH2 0xB95 JUMP JUMPDEST PUSH1 0x1 PUSH1 0x1 PUSH1 0xA0 SHL SUB DUP3 AND PUSH0 SWAP1 DUP2 MSTORE PUSH1 0x12 PUSH1 0x20 MSTORE PUSH1 0x40 DUP2 KECCAK256 SLOAD PUSH1 0xFF AND SWAP1 PUSH2 0x1B20 DUP5 PUSH2 0x1BA9 JUMP JUMPDEST SWAP1 POP DUP3 ISZERO ISZERO DUP3 ISZERO ISZERO EQ PUSH2 0x1BA3 JUMPI PUSH1 0x1 PUSH1 0x1 PUSH1 0xA0 SHL SUB DUP5 AND PUSH0 SWAP1 DUP2 MSTORE PUSH1 0x12 PUSH1 0x20 MSTORE PUSH1 0x40 SWAP1 KECCAK256 DUP1 SLOAD PUSH1 0xFF NOT AND DUP5 ISZERO ISZERO OR SWAP1 SSTORE DUP2 ISZERO DUP1 ISZERO PUSH2 0x1B5B JUMPI POP DUP3 JUMPDEST ISZERO PUSH2 0x1B7C JUMPI DUP1 PUSH1 0x7 PUSH0 DUP3 DUP3 SLOAD PUSH2 0x1B71 SWAP2 SWAP1 PUSH2 0x2A61 JUMP JUMPDEST SWAP1 SWAP2 SSTORE POP PUSH2 0x1BA3 SWAP1 POP JUMP JUMPDEST DUP2 DUP1 ISZERO PUSH2 0x1B87 JUMPI POP DUP3 ISZERO JUMPDEST ISZERO PUSH2 0x1BA3 JUMPI DUP1 PUSH1 0x7 PUSH0 DUP3 DUP3 SLOAD PUSH2 0x1B9D SWAP2 SWAP1 PUSH2 0x2A74 JUMP JUMPDEST SWAP1 SWAP2 SSTORE POP POP JUMPDEST POP POP POP POP JUMP JUMPDEST PUSH1 0x1 PUSH1 0x1 PUSH1 0xA0 SHL SUB DUP2 AND PUSH0 SWAP1 DUP2 MSTORE PUSH1 0x12 PUSH1 0x20 MSTORE PUSH1 0x40 DUP2 KECCAK256 SLOAD PUSH1 0xFF AND ISZERO PUSH2 0x1BE7 JUMPI PUSH1 0xB SLOAD PUSH1 0x1 PUSH1 0x1 PUSH1 0xA0 SHL SUB SWAP1 DUP2 AND SWAP1 DUP4 AND SUB PUSH2 0x1BE7 JUMPI PUSH2 0xB31 PUSH2 0x1F07 JUMP JUMPDEST PUSH1 0x1 PUSH1 0x1 PUSH1 0xA0 SHL SUB DUP3 AND PUSH0 SWAP1 DUP2 MSTORE PUSH1 0x9 PUSH1 0x20 MSTORE PUSH1 0x40 SWAP1 KECCAK256 SLOAD PUSH2 0xB31 SWAP1 PUSH2 0x16EF JUMP JUMPDEST PUSH2 0x1C10 PUSH2 0x23A6 JUMP JUMPDEST PUSH2 0x1324 PUSH0 PUSH2 0x2508 JUMP JUMPDEST PUSH2 0x1C21 PUSH2 0x23A6 JUMP JUMPDEST PUSH1 0x1 PUSH1 0x1 PUSH1 0xA0 SHL SUB DUP3 AND PUSH2 0x1C77 JUMPI PUSH1 0x40 MLOAD PUSH3 0x461BCD PUSH1 0xE5 SHL DUP2 MSTORE PUSH1 0x20 PUSH1 0x4 DUP3 ADD MSTORE PUSH1 0x1B PUSH1 0x24 DUP3 ADD MSTORE PUSH32 0x4F70657261746F722073686F756C646E2774206265207A65726F2E0000000000 PUSH1 0x44 DUP3 ADD MSTORE PUSH1 0x64 ADD PUSH2 0xB95 JUMP JUMPDEST PUSH1 0x1 PUSH1 0x1 PUSH1 0xA0 SHL SUB SWAP2 SWAP1 SWAP2 AND PUSH0 SWAP1 DUP2 MSTORE PUSH1 0x14 PUSH1 0x20 MSTORE PUSH1 0x40 SWAP1 KECCAK256 DUP1 SLOAD PUSH1 0xFF NOT AND SWAP2 ISZERO ISZERO SWAP2 SWAP1 SWAP2 OR SWAP1 SSTORE JUMP JUMPDEST PUSH2 0x1CA9 PUSH2 0x23A6 JUMP JUMPDEST PUSH0 JUMPDEST DUP3 MLOAD DUP2 LT ISZERO PUSH2 0x1573 JUMPI PUSH2 0x1CD7 DUP4 DUP3 DUP2 MLOAD DUP2 LT PUSH2 0x1CC9 JUMPI PUSH2 0x1CC9 PUSH2 0x2ABD JUMP JUMPDEST PUSH1 0x20 MUL PUSH1 0x20 ADD ADD MLOAD DUP4 PUSH2 0x1252 JUMP JUMPDEST PUSH1 0x1 ADD PUSH2 0x1CAB JUMP JUMPDEST PUSH2 0x1CE7 PUSH2 0x23A6 JUMP JUMPDEST PUSH1 0x1 PUSH1 0x1 PUSH1 0xA0 SHL SUB DUP3 AND PUSH2 0x1D48 JUMPI PUSH1 0x40 MLOAD PUSH3 0x461BCD PUSH1 0xE5 SHL DUP2 MSTORE PUSH1 0x20 PUSH1 0x4 DUP3 ADD MSTORE PUSH1 0x22 PUSH1 0x24 DUP3 ADD MSTORE PUSH32 0x4C5020506F6F6C20616464726573732073686F756C646E2774206265207A6572 PUSH1 0x44 DUP3 ADD MSTORE PUSH2 0x6F21 PUSH1 0xF0 SHL PUSH1 0x64 DUP3 ADD MSTORE PUSH1 0x84 ADD PUSH2 0xB95 JUMP JUMPDEST PUSH1 0x1 PUSH1 0x1 PUSH1 0xA0 SHL SUB DUP3 AND PUSH0 SWAP1 DUP2 MSTORE PUSH1 0x11 PUSH1 0x20 MSTORE PUSH1 0x40 SWAP1 KECCAK256 DUP1 SLOAD PUSH1 0xFF NOT AND DUP3 ISZERO ISZERO OR SWAP1 SSTORE PUSH2 0x1D75 DUP3 DUP3 PUSH2 0x1AA5 JUMP JUMPDEST PUSH2 0x1808 DUP3 DUP3 PUSH2 0x1252 JUMP JUMPDEST PUSH2 0x1D87 PUSH2 0x23A6 JUMP JUMPDEST PUSH2 0x2710 DUP2 GT ISZERO PUSH2 0x1DA9 JUMPI PUSH1 0x40 MLOAD PUSH3 0x461BCD PUSH1 0xE5 SHL DUP2 MSTORE PUSH1 0x4 ADD PUSH2 0xB95 SWAP1 PUSH2 0x2AD1 JUMP JUMPDEST PUSH1 0xD SSTORE JUMP JUMPDEST PUSH2 0x1DB6 PUSH2 0x23A6 JUMP JUMPDEST PUSH2 0x1324 PUSH2 0x2559 JUMP JUMPDEST PUSH0 PUSH2 0xC71 PUSH1 0x2 SLOAD PUSH1 0x1 PUSH1 0x1 PUSH1 0xA0 SHL SUB AND SWAP1 JUMP JUMPDEST PUSH0 PUSH2 0xB31 PUSH8 0xDE0B6B3A7640000 PUSH2 0x1713 DUP5 PUSH10 0xD3C21BCECCEDA1000000 PUSH2 0x24F2 JUMP JUMPDEST PUSH1 0x4 DUP1 SLOAD PUSH2 0xAA2 SWAP1 PUSH2 0x2A15 JUMP JUMPDEST DUP2 PUSH1 0xA SLOAD LT ISZERO PUSH2 0x1E51 JUMPI PUSH1 0x40 MLOAD PUSH3 0x461BCD PUSH1 0xE5 SHL DUP2 MSTORE PUSH1 0x20 PUSH1 0x4 DUP3 ADD MSTORE PUSH1 0x1D PUSH1 0x24 DUP3 ADD MSTORE PUSH32 0x496E73756666696369656E742042616C616E636520746F20636C61696D000000 PUSH1 0x44 DUP3 ADD MSTORE PUSH1 0x64 ADD PUSH2 0xB95 JUMP JUMPDEST DUP2 PUSH1 0xA PUSH0 DUP3 DUP3 SLOAD PUSH2 0x1E62 SWAP2 SWAP1 PUSH2 0x2A74 JUMP JUMPDEST SWAP1 SWAP2 SSTORE POP PUSH2 0x1808 SWAP1 POP DUP2 DUP4 PUSH2 0x140D JUMP JUMPDEST PUSH0 PUSH2 0xB2D CALLER DUP5 PUSH2 0x3F2 DUP6 PUSH1 0x40 MLOAD DUP1 PUSH1 0x60 ADD PUSH1 0x40 MSTORE DUP1 PUSH1 0x25 DUP2 MSTORE PUSH1 0x20 ADD PUSH2 0x2B69 PUSH1 0x25 SWAP2 CODECOPY CALLER PUSH0 SWAP1 DUP2 MSTORE PUSH1 0x8 PUSH1 0x20 SWAP1 DUP2 MSTORE PUSH1 0x40 DUP1 DUP4 KECCAK256 PUSH1 0x1 PUSH1 0x1 PUSH1 0xA0 SHL SUB DUP14 AND DUP5 MSTORE SWAP1 SWAP2 MSTORE SWAP1 KECCAK256 SLOAD SWAP2 SWAP1 PUSH2 0x2324 JUMP JUMPDEST PUSH0 PUSH2 0xB2D CALLER DUP5 DUP5 PUSH2 0xCD8 JUMP JUMPDEST PUSH2 0x1ED3 PUSH2 0x23A6 JUMP JUMPDEST PUSH2 0x1388 DUP2 GT ISZERO PUSH2 0x1EF5 JUMPI PUSH1 0x40 MLOAD PUSH3 0x461BCD PUSH1 0xE5 SHL DUP2 MSTORE PUSH1 0x4 ADD PUSH2 0xB95 SWAP1 PUSH2 0x2AD1 JUMP JUMPDEST PUSH1 0xC SSTORE JUMP JUMPDEST PUSH2 0x1F02 PUSH2 0x23A6 JUMP JUMPDEST PUSH1 0xF SSTORE JUMP JUMPDEST PUSH1 0xB SLOAD PUSH1 0x1 PUSH1 0x1 PUSH1 0xA0 SHL SUB AND PUSH0 SWAP1 DUP2 MSTORE PUSH1 0x9 PUSH1 0x20 MSTORE PUSH1 0x40 DUP2 KECCAK256 SLOAD DUP2 SWAP1 PUSH2 0x1F2C SWAP1 PUSH2 0x16EF JUMP JUMPDEST SWAP1 POP DUP1 PUSH1 0xA SLOAD PUSH2 0x1F3C SWAP2 SWAP1 PUSH2 0x2A61 JUMP JUMPDEST SWAP2 POP POP SWAP1 JUMP JUMPDEST PUSH2 0x1F4A PUSH2 0x2595 JUMP JUMPDEST PUSH2 0x1F52 PUSH2 0x234F JUMP JUMPDEST DUP1 MLOAD DUP3 MLOAD EQ PUSH2 0x1F9C JUMPI PUSH1 0x40 MLOAD PUSH3 0x461BCD PUSH1 0xE5 SHL DUP2 MSTORE PUSH1 0x20 PUSH1 0x4 DUP3 ADD MSTORE PUSH1 0x16 PUSH1 0x24 DUP3 ADD MSTORE PUSH22 0x82E4E4C2F2E640D8CADCCEE8D040DAD2E6DAC2E8C6D PUSH1 0x53 SHL PUSH1 0x44 DUP3 ADD MSTORE PUSH1 0x64 ADD PUSH2 0xB95 JUMP JUMPDEST PUSH0 DUP1 JUMPDEST DUP3 MLOAD DUP2 LT ISZERO PUSH2 0x1FD7 JUMPI DUP3 DUP2 DUP2 MLOAD DUP2 LT PUSH2 0x1FBA JUMPI PUSH2 0x1FBA PUSH2 0x2ABD JUMP JUMPDEST PUSH1 0x20 MUL PUSH1 0x20 ADD ADD MLOAD DUP3 PUSH2 0x1FCD SWAP2 SWAP1 PUSH2 0x2A61 JUMP JUMPDEST SWAP2 POP PUSH1 0x1 ADD PUSH2 0x1F9F JUMP JUMPDEST POP DUP1 PUSH2 0x1FE2 CALLER PUSH2 0x1BA9 JUMP JUMPDEST LT ISZERO PUSH2 0x2027 JUMPI PUSH1 0x40 MLOAD PUSH3 0x461BCD PUSH1 0xE5 SHL DUP2 MSTORE PUSH1 0x20 PUSH1 0x4 DUP3 ADD MSTORE PUSH1 0x14 PUSH1 0x24 DUP3 ADD MSTORE PUSH20 0x496E73756666696369656E742062616C616E6365 PUSH1 0x60 SHL PUSH1 0x44 DUP3 ADD MSTORE PUSH1 0x64 ADD PUSH2 0xB95 JUMP JUMPDEST PUSH0 JUMPDEST DUP4 MLOAD DUP2 LT ISZERO PUSH2 0x22DC JUMPI DUP3 DUP2 DUP2 MLOAD DUP2 LT PUSH2 0x2044 JUMPI PUSH2 0x2044 PUSH2 0x2ABD JUMP JUMPDEST PUSH1 0x20 MUL PUSH1 0x20 ADD ADD MLOAD PUSH2 0x2055 CALLER PUSH2 0x1BA9 JUMP JUMPDEST GT ISZERO PUSH2 0x22D4 JUMPI CALLER PUSH0 SWAP1 DUP2 MSTORE PUSH1 0x12 PUSH1 0x20 MSTORE PUSH1 0x40 SWAP1 KECCAK256 SLOAD PUSH1 0xFF AND ISZERO PUSH2 0x20EE JUMPI PUSH2 0x2094 DUP4 DUP3 DUP2 MLOAD DUP2 LT PUSH2 0x2087 JUMPI PUSH2 0x2087 PUSH2 0x2ABD JUMP JUMPDEST PUSH1 0x20 MUL PUSH1 0x20 ADD ADD MLOAD PUSH2 0x1DD1 JUMP JUMPDEST CALLER PUSH0 SWAP1 DUP2 MSTORE PUSH1 0x9 PUSH1 0x20 MSTORE PUSH1 0x40 DUP2 KECCAK256 DUP1 SLOAD SWAP1 SWAP2 SWAP1 PUSH2 0x20B2 SWAP1 DUP5 SWAP1 PUSH2 0x2A74 JUMP JUMPDEST SWAP3 POP POP DUP2 SWAP1 SSTORE POP DUP3 DUP2 DUP2 MLOAD DUP2 LT PUSH2 0x20CB JUMPI PUSH2 0x20CB PUSH2 0x2ABD JUMP JUMPDEST PUSH1 0x20 MUL PUSH1 0x20 ADD ADD MLOAD PUSH1 0x7 PUSH0 DUP3 DUP3 SLOAD PUSH2 0x20E3 SWAP2 SWAP1 PUSH2 0x2A74 JUMP JUMPDEST SWAP1 SWAP2 SSTORE POP PUSH2 0x2127 SWAP1 POP JUMP JUMPDEST PUSH2 0x2103 DUP4 DUP3 DUP2 MLOAD DUP2 LT PUSH2 0x2087 JUMPI PUSH2 0x2087 PUSH2 0x2ABD JUMP JUMPDEST CALLER PUSH0 SWAP1 DUP2 MSTORE PUSH1 0x9 PUSH1 0x20 MSTORE PUSH1 0x40 DUP2 KECCAK256 DUP1 SLOAD SWAP1 SWAP2 SWAP1 PUSH2 0x2121 SWAP1 DUP5 SWAP1 PUSH2 0x2A74 JUMP JUMPDEST SWAP1 SWAP2 SSTORE POP POP JUMPDEST PUSH1 0x12 PUSH0 DUP6 DUP4 DUP2 MLOAD DUP2 LT PUSH2 0x213C JUMPI PUSH2 0x213C PUSH2 0x2ABD JUMP JUMPDEST PUSH1 0x20 SWAP1 DUP2 MUL SWAP2 SWAP1 SWAP2 ADD DUP2 ADD MLOAD PUSH1 0x1 PUSH1 0x1 PUSH1 0xA0 SHL SUB AND DUP3 MSTORE DUP2 ADD SWAP2 SWAP1 SWAP2 MSTORE PUSH1 0x40 ADD PUSH0 KECCAK256 SLOAD PUSH1 0xFF AND ISZERO PUSH2 0x2202 JUMPI PUSH2 0x217C DUP4 DUP3 DUP2 MLOAD DUP2 LT PUSH2 0x2087 JUMPI PUSH2 0x2087 PUSH2 0x2ABD JUMP JUMPDEST PUSH1 0x9 PUSH0 DUP7 DUP5 DUP2 MLOAD DUP2 LT PUSH2 0x2191 JUMPI PUSH2 0x2191 PUSH2 0x2ABD JUMP JUMPDEST PUSH1 0x20 MUL PUSH1 0x20 ADD ADD MLOAD PUSH1 0x1 PUSH1 0x1 PUSH1 0xA0 SHL SUB AND PUSH1 0x1 PUSH1 0x1 PUSH1 0xA0 SHL SUB AND DUP2 MSTORE PUSH1 0x20 ADD SWAP1 DUP2 MSTORE PUSH1 0x20 ADD PUSH0 KECCAK256 PUSH0 DUP3 DUP3 SLOAD PUSH2 0x21C6 SWAP2 SWAP1 PUSH2 0x2A61 JUMP JUMPDEST SWAP3 POP POP DUP2 SWAP1 SSTORE POP DUP3 DUP2 DUP2 MLOAD DUP2 LT PUSH2 0x21DF JUMPI PUSH2 0x21DF PUSH2 0x2ABD JUMP JUMPDEST PUSH1 0x20 MUL PUSH1 0x20 ADD ADD MLOAD PUSH1 0x7 PUSH0 DUP3 DUP3 SLOAD PUSH2 0x21F7 SWAP2 SWAP1 PUSH2 0x2A61 JUMP JUMPDEST SWAP1 SWAP2 SSTORE POP PUSH2 0x2267 SWAP1 POP JUMP JUMPDEST PUSH2 0x2217 DUP4 DUP3 DUP2 MLOAD DUP2 LT PUSH2 0x2087 JUMPI PUSH2 0x2087 PUSH2 0x2ABD JUMP JUMPDEST PUSH1 0x9 PUSH0 DUP7 DUP5 DUP2 MLOAD DUP2 LT PUSH2 0x222C JUMPI PUSH2 0x222C PUSH2 0x2ABD JUMP JUMPDEST PUSH1 0x20 MUL PUSH1 0x20 ADD ADD MLOAD PUSH1 0x1 PUSH1 0x1 PUSH1 0xA0 SHL SUB AND PUSH1 0x1 PUSH1 0x1 PUSH1 0xA0 SHL SUB AND DUP2 MSTORE PUSH1 0x20 ADD SWAP1 DUP2 MSTORE PUSH1 0x20 ADD PUSH0 KECCAK256 PUSH0 DUP3 DUP3 SLOAD PUSH2 0x2261 SWAP2 SWAP1 PUSH2 0x2A61 JUMP JUMPDEST SWAP1 SWAP2 SSTORE POP POP JUMPDEST DUP4 DUP2 DUP2 MLOAD DUP2 LT PUSH2 0x2279 JUMPI PUSH2 0x2279 PUSH2 0x2ABD JUMP JUMPDEST PUSH1 0x20 MUL PUSH1 0x20 ADD ADD MLOAD PUSH1 0x1 PUSH1 0x1 PUSH1 0xA0 SHL SUB AND CALLER PUSH1 0x1 PUSH1 0x1 PUSH1 0xA0 SHL SUB AND PUSH0 DUP1 MLOAD PUSH1 0x20 PUSH2 0x2B49 DUP4 CODECOPY DUP2 MLOAD SWAP2 MSTORE DUP6 DUP5 DUP2 MLOAD DUP2 LT PUSH2 0x22B4 JUMPI PUSH2 0x22B4 PUSH2 0x2ABD JUMP JUMPDEST PUSH1 0x20 MUL PUSH1 0x20 ADD ADD MLOAD PUSH1 0x40 MLOAD PUSH2 0x22CB SWAP2 DUP2 MSTORE PUSH1 0x20 ADD SWAP1 JUMP JUMPDEST PUSH1 0x40 MLOAD DUP1 SWAP2 SUB SWAP1 LOG3 JUMPDEST PUSH1 0x1 ADD PUSH2 0x2029 JUMP JUMPDEST POP POP PUSH2 0x1808 PUSH1 0x1 DUP1 SSTORE JUMP JUMPDEST PUSH2 0x22EF PUSH2 0x23A6 JUMP JUMPDEST PUSH1 0x1 PUSH1 0x1 PUSH1 0xA0 SHL SUB DUP2 AND PUSH2 0x2318 JUMPI PUSH1 0x40 MLOAD PUSH4 0x1E4FBDF7 PUSH1 0xE0 SHL DUP2 MSTORE PUSH0 PUSH1 0x4 DUP3 ADD MSTORE PUSH1 0x24 ADD PUSH2 0xB95 JUMP JUMPDEST PUSH2 0x2321 DUP2 PUSH2 0x2508 JUMP JUMPDEST POP JUMP JUMPDEST PUSH0 DUP2 DUP5 DUP5 GT ISZERO PUSH2 0x2347 JUMPI PUSH1 0x40 MLOAD PUSH3 0x461BCD PUSH1 0xE5 SHL DUP2 MSTORE PUSH1 0x4 ADD PUSH2 0xB95 SWAP2 SWAP1 PUSH2 0x2664 JUMP JUMPDEST POP POP POP SWAP1 SUB SWAP1 JUMP JUMPDEST PUSH0 SLOAD PUSH1 0xFF AND ISZERO PUSH2 0x1324 JUMPI PUSH1 0x40 MLOAD PUSH3 0x461BCD PUSH1 0xE5 SHL DUP2 MSTORE PUSH1 0x20 PUSH1 0x4 DUP3 ADD MSTORE PUSH1 0x10 PUSH1 0x24 DUP3 ADD MSTORE PUSH16 0x14185D5CD8589B194E881C185D5CD959 PUSH1 0x82 SHL PUSH1 0x44 DUP3 ADD MSTORE PUSH1 0x64 ADD PUSH2 0xB95 JUMP JUMPDEST PUSH0 PUSH2 0x239F DUP3 DUP5 PUSH2 0x2A61 JUMP JUMPDEST SWAP4 SWAP3 POP POP POP JUMP JUMPDEST PUSH1 0x2 SLOAD PUSH1 0x1 PUSH1 0x1 PUSH1 0xA0 SHL SUB AND CALLER EQ PUSH2 0x1324 JUMPI PUSH1 0x40 MLOAD PUSH4 0x118CDAA7 PUSH1 0xE0 SHL DUP2 MSTORE CALLER PUSH1 0x4 DUP3 ADD MSTORE PUSH1 0x24 ADD PUSH2 0xB95 JUMP JUMPDEST PUSH2 0x23DB PUSH2 0x25EE JUMP JUMPDEST PUSH0 DUP1 SLOAD PUSH1 0xFF NOT AND SWAP1 SSTORE PUSH32 0x5DB9EE0A495BF2E6FF9C91A7834C1BA4FDD244A5E8AA4E537BD38AEAE4B073AA CALLER JUMPDEST PUSH1 0x40 MLOAD PUSH1 0x1 PUSH1 0x1 PUSH1 0xA0 SHL SUB SWAP1 SWAP2 AND DUP2 MSTORE PUSH1 0x20 ADD PUSH1 0x40 MLOAD DUP1 SWAP2 SUB SWAP1 LOG1 JUMP JUMPDEST PUSH2 0x242C PUSH2 0x234F JUMP JUMPDEST PUSH0 PUSH2 0x2710 PUSH8 0xDE0B6B3A7640000 PUSH1 0xD SLOAD PUSH2 0x2446 SWAP2 SWAP1 PUSH2 0x2A87 JUMP JUMPDEST PUSH2 0x2450 SWAP2 SWAP1 PUSH2 0x2A9E JUMP JUMPDEST SWAP1 POP PUSH0 PUSH1 0x7 SLOAD PUSH1 0x6 SLOAD PUSH2 0x2463 SWAP2 SWAP1 PUSH2 0x2A74 JUMP JUMPDEST SWAP1 POP PUSH8 0xDE0B6B3A7640000 PUSH2 0x2478 DUP4 DUP3 PUSH2 0x2A74 JUMP JUMPDEST PUSH1 0xE SLOAD PUSH2 0x2485 SWAP2 SWAP1 PUSH2 0x2A87 JUMP JUMPDEST PUSH2 0x248F SWAP2 SWAP1 PUSH2 0x2A9E JUMP JUMPDEST PUSH1 0xE SSTORE PUSH0 PUSH8 0xDE0B6B3A7640000 PUSH2 0x24A6 DUP5 DUP3 PUSH2 0x2A74 JUMP JUMPDEST PUSH2 0x24B0 SWAP1 DUP5 PUSH2 0x2A87 JUMP JUMPDEST PUSH2 0x24BA SWAP2 SWAP1 PUSH2 0x2A9E JUMP JUMPDEST SWAP1 POP PUSH0 PUSH2 0x24C7 DUP3 DUP5 PUSH2 0x2A74 JUMP JUMPDEST SWAP1 POP DUP1 PUSH1 0xA PUSH0 DUP3 DUP3 SLOAD PUSH2 0x24DA SWAP2 SWAP1 PUSH2 0x2A61 JUMP JUMPDEST SWAP3 POP POP DUP2 SWAP1 SSTORE POP DUP1 PUSH1 0x6 PUSH0 DUP3 DUP3 SLOAD PUSH2 0x1B9D SWAP2 SWAP1 PUSH2 0x2A74 JUMP JUMPDEST PUSH0 PUSH2 0x239F DUP3 DUP5 PUSH2 0x2A87 JUMP JUMPDEST PUSH0 PUSH2 0x239F DUP3 DUP5 PUSH2 0x2A9E JUMP JUMPDEST PUSH1 0x2 DUP1 SLOAD PUSH1 0x1 PUSH1 0x1 PUSH1 0xA0 SHL SUB DUP4 DUP2 AND PUSH1 0x1 PUSH1 0x1 PUSH1 0xA0 SHL SUB NOT DUP4 AND DUP2 OR SWAP1 SWAP4 SSTORE PUSH1 0x40 MLOAD SWAP2 AND SWAP2 SWAP1 DUP3 SWAP1 PUSH32 0x8BE0079C531659141344CD1FD0A4F28419497F9722A3DAAFE3B4186F6B6457E0 SWAP1 PUSH0 SWAP1 LOG3 POP POP JUMP JUMPDEST PUSH2 0x2561 PUSH2 0x234F JUMP JUMPDEST PUSH0 DUP1 SLOAD PUSH1 0xFF NOT AND PUSH1 0x1 OR SWAP1 SSTORE PUSH32 0x62E78CEA01BEE320CD4E420270B5EA74000D11B0C9F74754EBDBFC544B05A258 PUSH2 0x2407 CALLER SWAP1 JUMP JUMPDEST PUSH1 0x2 PUSH1 0x1 SLOAD SUB PUSH2 0x25E7 JUMPI PUSH1 0x40 MLOAD PUSH3 0x461BCD PUSH1 0xE5 SHL DUP2 MSTORE PUSH1 0x20 PUSH1 0x4 DUP3 ADD MSTORE PUSH1 0x1F PUSH1 0x24 DUP3 ADD MSTORE PUSH32 0x5265656E7472616E637947756172643A207265656E7472616E742063616C6C00 PUSH1 0x44 DUP3 ADD MSTORE PUSH1 0x64 ADD PUSH2 0xB95 JUMP JUMPDEST PUSH1 0x2 PUSH1 0x1 SSTORE JUMP JUMPDEST PUSH0 SLOAD PUSH1 0xFF AND PUSH2 0x1324 JUMPI PUSH1 0x40 MLOAD PUSH3 0x461BCD PUSH1 0xE5 SHL DUP2 MSTORE PUSH1 0x20 PUSH1 0x4 DUP3 ADD MSTORE PUSH1 0x14 PUSH1 0x24 DUP3 ADD MSTORE PUSH20 0x14185D5CD8589B194E881B9BDD081C185D5CD959 PUSH1 0x62 SHL PUSH1 0x44 DUP3 ADD MSTORE PUSH1 0x64 ADD PUSH2 0xB95 JUMP JUMPDEST PUSH0 DUP2 MLOAD DUP1 DUP5 MSTORE DUP1 PUSH1 0x20 DUP5 ADD PUSH1 0x20 DUP7 ADD MCOPY PUSH0 PUSH1 0x20 DUP3 DUP7 ADD ADD MSTORE PUSH1 0x20 PUSH1 0x1F NOT PUSH1 0x1F DUP4 ADD AND DUP6 ADD ADD SWAP2 POP POP SWAP3 SWAP2 POP POP JUMP JUMPDEST PUSH1 0x20 DUP2 MSTORE PUSH0 PUSH2 0x239F PUSH1 0x20 DUP4 ADD DUP5 PUSH2 0x2636 JUMP JUMPDEST DUP1 CALLDATALOAD PUSH1 0x1 PUSH1 0x1 PUSH1 0xA0 SHL SUB DUP2 AND DUP2 EQ PUSH2 0x268C JUMPI PUSH0 DUP1 REVERT JUMPDEST SWAP2 SWAP1 POP JUMP JUMPDEST PUSH0 DUP1 PUSH1 0x40 DUP4 DUP6 SUB SLT ISZERO PUSH2 0x26A2 JUMPI PUSH0 DUP1 REVERT JUMPDEST PUSH2 0x26AB DUP4 PUSH2 0x2676 JUMP JUMPDEST SWAP5 PUSH1 0x20 SWAP4 SWAP1 SWAP4 ADD CALLDATALOAD SWAP4 POP POP POP JUMP JUMPDEST PUSH0 DUP1 PUSH0 PUSH1 0x60 DUP5 DUP7 SUB SLT ISZERO PUSH2 0x26CB JUMPI PUSH0 DUP1 REVERT JUMPDEST PUSH2 0x26D4 DUP5 PUSH2 0x2676 JUMP JUMPDEST SWAP3 POP PUSH2 0x26E2 PUSH1 0x20 DUP6 ADD PUSH2 0x2676 JUMP JUMPDEST SWAP3 SWAP6 SWAP3 SWAP5 POP POP POP PUSH1 0x40 SWAP2 SWAP1 SWAP2 ADD CALLDATALOAD SWAP1 JUMP JUMPDEST PUSH0 PUSH1 0x20 DUP3 DUP5 SUB SLT ISZERO PUSH2 0x2703 JUMPI PUSH0 DUP1 REVERT JUMPDEST PUSH2 0x239F DUP3 PUSH2 0x2676 JUMP JUMPDEST DUP1 CALLDATALOAD DUP1 ISZERO ISZERO DUP2 EQ PUSH2 0x268C JUMPI PUSH0 DUP1 REVERT JUMPDEST PUSH0 DUP1 PUSH1 0x40 DUP4 DUP6 SUB SLT ISZERO PUSH2 0x272C JUMPI PUSH0 DUP1 REVERT JUMPDEST PUSH2 0x2735 DUP4 PUSH2 0x2676 JUMP JUMPDEST SWAP2 POP PUSH2 0x2743 PUSH1 0x20 DUP5 ADD PUSH2 0x270C JUMP JUMPDEST SWAP1 POP SWAP3 POP SWAP3 SWAP1 POP JUMP JUMPDEST PUSH0 PUSH1 0x20 DUP3 DUP5 SUB SLT ISZERO PUSH2 0x275C JUMPI PUSH0 DUP1 REVERT JUMPDEST POP CALLDATALOAD SWAP2 SWAP1 POP JUMP JUMPDEST PUSH0 DUP1 PUSH1 0x20 DUP4 DUP6 SUB SLT ISZERO PUSH2 0x2774 JUMPI PUSH0 DUP1 REVERT JUMPDEST DUP3 CALLDATALOAD PUSH8 0xFFFFFFFFFFFFFFFF DUP2 GT ISZERO PUSH2 0x278A JUMPI PUSH0 DUP1 REVERT JUMPDEST DUP4 ADD PUSH1 0x1F DUP2 ADD DUP6 SGT PUSH2 0x279A JUMPI PUSH0 DUP1 REVERT JUMPDEST DUP1 CALLDATALOAD PUSH8 0xFFFFFFFFFFFFFFFF DUP2 GT ISZERO PUSH2 0x27B0 JUMPI PUSH0 DUP1 REVERT JUMPDEST DUP6 PUSH1 0x20 DUP3 DUP5 ADD ADD GT ISZERO PUSH2 0x27C1 JUMPI PUSH0 DUP1 REVERT JUMPDEST PUSH1 0x20 SWAP2 SWAP1 SWAP2 ADD SWAP6 SWAP1 SWAP5 POP SWAP3 POP POP POP JUMP JUMPDEST PUSH4 0x4E487B71 PUSH1 0xE0 SHL PUSH0 MSTORE PUSH1 0x41 PUSH1 0x4 MSTORE PUSH1 0x24 PUSH0 REVERT JUMPDEST PUSH1 0x40 MLOAD PUSH1 0x1F DUP3 ADD PUSH1 0x1F NOT AND DUP2 ADD PUSH8 0xFFFFFFFFFFFFFFFF DUP2 GT DUP3 DUP3 LT OR ISZERO PUSH2 0x280E JUMPI PUSH2 0x280E PUSH2 0x27D1 JUMP JUMPDEST PUSH1 0x40 MSTORE SWAP2 SWAP1 POP JUMP JUMPDEST PUSH0 PUSH8 0xFFFFFFFFFFFFFFFF DUP3 GT ISZERO PUSH2 0x282F JUMPI PUSH2 0x282F PUSH2 0x27D1 JUMP JUMPDEST POP PUSH1 0x5 SHL PUSH1 0x20 ADD SWAP1 JUMP JUMPDEST PUSH0 DUP3 PUSH1 0x1F DUP4 ADD SLT PUSH2 0x2848 JUMPI PUSH0 DUP1 REVERT JUMPDEST DUP2 CALLDATALOAD PUSH2 0x285B PUSH2 0x2856 DUP3 PUSH2 0x2816 JUMP JUMPDEST PUSH2 0x27E5 JUMP JUMPDEST DUP1 DUP3 DUP3 MSTORE PUSH1 0x20 DUP3 ADD SWAP2 POP PUSH1 0x20 DUP4 PUSH1 0x5 SHL DUP7 ADD ADD SWAP3 POP DUP6 DUP4 GT ISZERO PUSH2 0x287C JUMPI PUSH0 DUP1 REVERT JUMPDEST PUSH1 0x20 DUP6 ADD JUMPDEST DUP4 DUP2 LT ISZERO PUSH2 0x28A0 JUMPI PUSH2 0x2892 DUP2 PUSH2 0x2676 JUMP JUMPDEST DUP4 MSTORE PUSH1 0x20 SWAP3 DUP4 ADD SWAP3 ADD PUSH2 0x2881 JUMP JUMPDEST POP SWAP6 SWAP5 POP POP POP POP POP JUMP JUMPDEST PUSH0 DUP1 PUSH1 0x40 DUP4 DUP6 SUB SLT ISZERO PUSH2 0x28BB JUMPI PUSH0 DUP1 REVERT JUMPDEST DUP3 CALLDATALOAD PUSH8 0xFFFFFFFFFFFFFFFF DUP2 GT ISZERO PUSH2 0x28D1 JUMPI PUSH0 DUP1 REVERT JUMPDEST PUSH2 0x28DD DUP6 DUP3 DUP7 ADD PUSH2 0x2839 JUMP JUMPDEST SWAP3 POP POP PUSH2 0x2743 PUSH1 0x20 DUP5 ADD PUSH2 0x270C JUMP JUMPDEST DUP3 ISZERO ISZERO DUP2 MSTORE PUSH1 0x40 PUSH1 0x20 DUP3 ADD MSTORE PUSH0 PUSH2 0x2906 PUSH1 0x40 DUP4 ADD DUP5 PUSH2 0x2636 JUMP JUMPDEST SWAP5 SWAP4 POP POP POP POP JUMP JUMPDEST PUSH0 DUP1 PUSH1 0x40 DUP4 DUP6 SUB SLT ISZERO PUSH2 0x291F JUMPI PUSH0 DUP1 REVERT JUMPDEST DUP3 CALLDATALOAD SWAP2 POP PUSH2 0x2743 PUSH1 0x20 DUP5 ADD PUSH2 0x2676 JUMP JUMPDEST PUSH0 DUP1 PUSH1 0x40 DUP4 DUP6 SUB SLT ISZERO PUSH2 0x2940 JUMPI PUSH0 DUP1 REVERT JUMPDEST PUSH2 0x2949 DUP4 PUSH2 0x2676 JUMP JUMPDEST SWAP2 POP PUSH2 0x2743 PUSH1 0x20 DUP5 ADD PUSH2 0x2676 JUMP JUMPDEST PUSH0 DUP1 PUSH1 0x40 DUP4 DUP6 SUB SLT ISZERO PUSH2 0x2968 JUMPI PUSH0 DUP1 REVERT JUMPDEST DUP3 CALLDATALOAD PUSH8 0xFFFFFFFFFFFFFFFF DUP2 GT ISZERO PUSH2 0x297E JUMPI PUSH0 DUP1 REVERT JUMPDEST PUSH2 0x298A DUP6 DUP3 DUP7 ADD PUSH2 0x2839 JUMP JUMPDEST SWAP3 POP POP PUSH1 0x20 DUP4 ADD CALLDATALOAD PUSH8 0xFFFFFFFFFFFFFFFF DUP2 GT ISZERO PUSH2 0x29A6 JUMPI PUSH0 DUP1 REVERT JUMPDEST DUP4 ADD PUSH1 0x1F DUP2 ADD DUP6 SGT PUSH2 0x29B6 JUMPI PUSH0 DUP1 REVERT JUMPDEST DUP1 CALLDATALOAD PUSH2 0x29C4 PUSH2 0x2856 DUP3 PUSH2 0x2816 JUMP JUMPDEST DUP1 DUP3 DUP3 MSTORE PUSH1 0x20 DUP3 ADD SWAP2 POP PUSH1 0x20 DUP4 PUSH1 0x5 SHL DUP6 ADD ADD SWAP3 POP DUP8 DUP4 GT ISZERO PUSH2 0x29E5 JUMPI PUSH0 DUP1 REVERT JUMPDEST PUSH1 0x20 DUP5 ADD SWAP4 POP JUMPDEST DUP3 DUP5 LT ISZERO PUSH2 0x2A07 JUMPI DUP4 CALLDATALOAD DUP3 MSTORE PUSH1 0x20 SWAP4 DUP5 ADD SWAP4 SWAP1 SWAP2 ADD SWAP1 PUSH2 0x29EC JUMP JUMPDEST DUP1 SWAP5 POP POP POP POP POP SWAP3 POP SWAP3 SWAP1 POP JUMP JUMPDEST PUSH1 0x1 DUP2 DUP2 SHR SWAP1 DUP3 AND DUP1 PUSH2 0x2A29 JUMPI PUSH1 0x7F DUP3 AND SWAP2 POP JUMPDEST PUSH1 0x20 DUP3 LT DUP2 SUB PUSH2 0x2A47 JUMPI PUSH4 0x4E487B71 PUSH1 0xE0 SHL PUSH0 MSTORE PUSH1 0x22 PUSH1 0x4 MSTORE PUSH1 0x24 PUSH0 REVERT JUMPDEST POP SWAP2 SWAP1 POP JUMP JUMPDEST PUSH4 0x4E487B71 PUSH1 0xE0 SHL PUSH0 MSTORE PUSH1 0x11 PUSH1 0x4 MSTORE PUSH1 0x24 PUSH0 REVERT JUMPDEST DUP1 DUP3 ADD DUP1 DUP3 GT ISZERO PUSH2 0xB31 JUMPI PUSH2 0xB31 PUSH2 0x2A4D JUMP JUMPDEST DUP2 DUP2 SUB DUP2 DUP2 GT ISZERO PUSH2 0xB31 JUMPI PUSH2 0xB31 PUSH2 0x2A4D JUMP JUMPDEST DUP1 DUP3 MUL DUP2 ISZERO DUP3 DUP3 DIV DUP5 EQ OR PUSH2 0xB31 JUMPI PUSH2 0xB31 PUSH2 0x2A4D JUMP JUMPDEST PUSH0 DUP3 PUSH2 0x2AB8 JUMPI PUSH4 0x4E487B71 PUSH1 0xE0 SHL PUSH0 MSTORE PUSH1 0x12 PUSH1 0x4 MSTORE PUSH1 0x24 PUSH0 REVERT JUMPDEST POP DIV SWAP1 JUMP JUMPDEST PUSH4 0x4E487B71 PUSH1 0xE0 SHL PUSH0 MSTORE PUSH1 0x32 PUSH1 0x4 MSTORE PUSH1 0x24 PUSH0 REVERT JUMPDEST PUSH1 0x20 DUP1 DUP3 MSTORE PUSH1 0x2F SWAP1 DUP3 ADD MSTORE PUSH32 0x526174652073686F756C64206265206C657373207468616E2050455243454E54 PUSH1 0x40 DUP3 ADD MSTORE PUSH15 0x20A3A2AFA222A727A6A4A720AA27A9 PUSH1 0x89 SHL PUSH1 0x60 DUP3 ADD MSTORE PUSH1 0x80 ADD SWAP1 JUMP INVALID GASLIMIT MSTORE NUMBER ORIGIN ADDRESS GASPRICE KECCAK256 PUSH21 0x72616E7366657220616D6F756E7420657863656564 PUSH20 0x20616C6C6F77616E6365DDF252AD1BE2C89B69C2 0xB0 PUSH9 0xFC378DAA952BA7F163 0xC4 LOG1 AND 0x28 CREATE2 GAS 0x4D CREATE2 0x23 0xB3 0xEF GASLIMIT MSTORE NUMBER ORIGIN ADDRESS GASPRICE KECCAK256 PUSH5 0x6563726561 PUSH20 0x656420616C6C6F77616E63652062656C6F77207A PUSH6 0x726FA2646970 PUSH7 0x73582212205372 0xEF SUB 0xB5 0xEB PUSH27 0x4B0DB0845B3856162FB806FFA8277192CCFE2519B503EAA8906473 PUSH16 0x6C634300081A00330000000000000000 "
		},
		"gasEstimates": {
			"creation": {
				"codeDepositCost": "2240600",
				"executionCost": "infinite",
				"totalCost": "infinite"
			},
			"external": {
				"PERCENTAGE_DENOMINATOR()": "261",
				"TOKEN_DECIMALS()": "306",
				"TOKEN_public_DECIMALS()": "305",
				"_approve(address,address,uint256)": "infinite",
				"_burn(address,uint256)": "infinite",
				"_debaseTokenToFragment(uint256)": "infinite",
				"_excludedFromDebasing(address,bool)": "infinite",
				"_excludedFromHoldingLimit(address,bool)": "infinite",
				"_fragmentToDebaseToken(uint256)": "infinite",
				"_mint(address,uint256)": "infinite",
				"_sendTokensTreasuryWallet(uint256,address)": "infinite",
				"_transfer(address,address,uint256)": "infinite",
				"_treasuryBalanceOf()": "infinite",
				"allowance(address,address)": "infinite",
				"approve(address,uint256)": "24686",
				"balanceOf(address)": "infinite",
				"balanceOfUnderlying(address)": "2646",
				"checkUpkeep(bytes)": "infinite",
				"claimFromTreasury(address,uint256)": "infinite",
				"debaseDuration()": "2428",
				"debaseRate()": "2363",
				"decimals()": "2401",
				"decreaseAllowance(address,uint256)": "infinite",
				"excludeDebasingSupply()": "2427",
				"getOwner()": "2479",
				"holdingLimit()": "2384",
				"increaseAllowance(address,uint256)": "infinite",
				"isExcludedFromDebasing(address)": "2618",
				"isExcludedFromHoldingLimit(address)": "2617",
				"lastTimeStamp()": "2363",
				"lpPools(address)": "2597",
				"multiAirdropTokenRequested(address[],uint256[])": "infinite",
				"multiExcludedFromDebasing(address[],bool)": "infinite",
				"multiExcludedFromHoldingLimit(address[],bool)": "infinite",
				"name()": "infinite",
				"owner()": "2441",
				"pause()": "infinite",
				"paused()": "2436",
				"performUpkeep(bytes)": "infinite",
				"renounceOwnership()": "infinite",
				"sellTaxRate()": "2429",
				"setLastTime()": "26605",
				"symbol()": "infinite",
				"tokenScalingFactor()": "2405",
				"totalSupply()": "4582",
				"transfer(address,uint256)": "infinite",
				"transferFrom(address,address,uint256)": "infinite",
				"transferOwnership(address)": "28465",
				"treasuryOperator(address)": "2596",
				"treasuryWallet()": "2404",
				"unpause()": "infinite",
				"updateDebaseDuration(uint256)": "24552",
				"updateDebaseRate(uint256)": "24646",
				"updateHoldingLimit(uint256)": "24620",
				"updateLPPool(address,bool)": "infinite",
				"updateSellTaxRate(uint256)": "24601",
				"updateTreasuryOperator(address,bool)": "infinite",
				"withdrawETH(address)": "infinite"
			},
			"internal": {
				"_debase()": "infinite"
			}
		},
		"methodIdentifiers": {
			"PERCENTAGE_DENOMINATOR()": "b3cd4254",
			"TOKEN_DECIMALS()": "5b7f415c",
			"TOKEN_public_DECIMALS()": "a6d1b891",
			"_approve(address,address,uint256)": "104e81ff",
			"_burn(address,uint256)": "6161eb18",
			"_debaseTokenToFragment(uint256)": "639f3cc7",
			"_excludedFromDebasing(address,bool)": "702115dd",
			"_excludedFromHoldingLimit(address,bool)": "35c85a34",
			"_fragmentToDebaseToken(uint256)": "89eec0f1",
			"_mint(address,uint256)": "4e6ec247",
			"_sendTokensTreasuryWallet(uint256,address)": "9cc2921c",
			"_transfer(address,address,uint256)": "30e0789e",
			"_treasuryBalanceOf()": "e2ff2440",
			"allowance(address,address)": "dd62ed3e",
			"approve(address,uint256)": "095ea7b3",
			"balanceOf(address)": "70a08231",
			"balanceOfUnderlying(address)": "3af9e669",
			"checkUpkeep(bytes)": "6e04ff0d",
			"claimFromTreasury(address,uint256)": "6aa3773f",
			"debaseDuration()": "685f59de",
			"debaseRate()": "2ce8bd56",
			"decimals()": "313ce567",
			"decreaseAllowance(address,uint256)": "a457c2d7",
			"excludeDebasingSupply()": "8f372fa3",
			"getOwner()": "893d20e8",
			"holdingLimit()": "874a6ae7",
			"increaseAllowance(address,uint256)": "39509351",
			"isExcludedFromDebasing(address)": "924c2ead",
			"isExcludedFromHoldingLimit(address)": "8cf66b16",
			"lastTimeStamp()": "3f3b3b27",
			"lpPools(address)": "1658a700",
			"multiAirdropTokenRequested(address[],uint256[])": "e5a5e318",
			"multiExcludedFromDebasing(address[],bool)": "6c5ed03e",
			"multiExcludedFromHoldingLimit(address[],bool)": "7819f36f",
			"name()": "06fdde03",
			"owner()": "8da5cb5b",
			"pause()": "8456cb59",
			"paused()": "5c975abb",
			"performUpkeep(bytes)": "4585e33b",
			"renounceOwnership()": "715018a6",
			"sellTaxRate()": "24024efd",
			"setLastTime()": "5d70dde6",
			"symbol()": "95d89b41",
			"tokenScalingFactor()": "dc90b442",
			"totalSupply()": "18160ddd",
			"transfer(address,uint256)": "a9059cbb",
			"transferFrom(address,address,uint256)": "23b872dd",
			"transferOwnership(address)": "f2fde38b",
			"treasuryOperator(address)": "9220d3ed",
			"treasuryWallet()": "4626402b",
			"unpause()": "3f4ba83a",
			"updateDebaseDuration(uint256)": "df0ab308",
			"updateDebaseRate(uint256)": "81cea332",
			"updateHoldingLimit(uint256)": "3cde0c0f",
			"updateLPPool(address,bool)": "79825ede",
			"updateSellTaxRate(uint256)": "b4dade59",
			"updateTreasuryOperator(address,bool)": "75c2b13f",
			"withdrawETH(address)": "690d8320"
		}
	},
	"abi": [
		{
			"inputs": [
				{
					"internalType": "string",
					"name": "_tokenName",
					"type": "string"
				},
				{
					"internalType": "string",
					"name": "_tokenSymbol",
					"type": "string"
				},
				{
					"internalType": "uint256",
					"name": "_tSupply",
					"type": "uint256"
				},
				{
					"internalType": "address",
					"name": "_tokenOwner",
					"type": "address"
				},
				{
					"internalType": "uint256",
					"name": "_sellTaxRate",
					"type": "uint256"
				},
				{
					"internalType": "uint256",
					"name": "_debaseRate",
					"type": "uint256"
				},
				{
					"internalType": "address",
					"name": "_treasuryWallet",
					"type": "address"
				}
			],
			"stateMutability": "nonpayable",
			"type": "constructor"
		},
		{
			"inputs": [],
			"name": "OnlySimulatedBackend",
			"type": "error"
		},
		{
			"inputs": [
				{
					"internalType": "address",
					"name": "owner",
					"type": "address"
				}
			],
			"name": "OwnableInvalidOwner",
			"type": "error"
		},
		{
			"inputs": [
				{
					"internalType": "address",
					"name": "account",
					"type": "address"
				}
			],
			"name": "OwnableUnauthorizedAccount",
			"type": "error"
		},
		{
			"anonymous": false,
			"inputs": [
				{
					"indexed": true,
					"internalType": "address",
					"name": "owner",
					"type": "address"
				},
				{
					"indexed": true,
					"internalType": "address",
					"name": "spender",
					"type": "address"
				},
				{
					"indexed": false,
					"internalType": "uint256",
					"name": "value",
					"type": "uint256"
				}
			],
			"name": "Approval",
			"type": "event"
		},
		{
			"anonymous": false,
			"inputs": [
				{
					"indexed": true,
					"internalType": "address",
					"name": "from",
					"type": "address"
				},
				{
					"indexed": false,
					"internalType": "uint256",
					"name": "amount",
					"type": "uint256"
				}
			],
			"name": "Burn",
			"type": "event"
		},
		{
			"anonymous": false,
			"inputs": [
				{
					"indexed": true,
					"internalType": "address",
					"name": "to",
					"type": "address"
				},
				{
					"indexed": false,
					"internalType": "uint256",
					"name": "amount",
					"type": "uint256"
				}
			],
			"name": "Mint",
			"type": "event"
		},
		{
			"anonymous": false,
			"inputs": [
				{
					"indexed": true,
					"internalType": "address",
					"name": "previousOwner",
					"type": "address"
				},
				{
					"indexed": true,
					"internalType": "address",
					"name": "newOwner",
					"type": "address"
				}
			],
			"name": "OwnershipTransferred",
			"type": "event"
		},
		{
			"anonymous": false,
			"inputs": [
				{
					"indexed": false,
					"internalType": "address",
					"name": "account",
					"type": "address"
				}
			],
			"name": "Paused",
			"type": "event"
		},
		{
			"anonymous": false,
			"inputs": [
				{
					"indexed": true,
					"internalType": "address",
					"name": "from",
					"type": "address"
				},
				{
					"indexed": true,
					"internalType": "address",
					"name": "to",
					"type": "address"
				},
				{
					"indexed": false,
					"internalType": "uint256",
					"name": "value",
					"type": "uint256"
				}
			],
			"name": "Transfer",
			"type": "event"
		},
		{
			"anonymous": false,
			"inputs": [
				{
					"indexed": false,
					"internalType": "address",
					"name": "account",
					"type": "address"
				}
			],
			"name": "Unpaused",
			"type": "event"
		},
		{
			"inputs": [],
			"name": "PERCENTAGE_DENOMINATOR",
			"outputs": [
				{
					"internalType": "uint256",
					"name": "",
					"type": "uint256"
				}
			],
			"stateMutability": "view",
			"type": "function"
		},
		{
			"inputs": [],
			"name": "TOKEN_DECIMALS",
			"outputs": [
				{
					"internalType": "uint256",
					"name": "",
					"type": "uint256"
				}
			],
			"stateMutability": "view",
			"type": "function"
		},
		{
			"inputs": [],
			"name": "TOKEN_public_DECIMALS",
			"outputs": [
				{
					"internalType": "uint256",
					"name": "",
					"type": "uint256"
				}
			],
			"stateMutability": "view",
			"type": "function"
		},
		{
			"inputs": [
				{
					"internalType": "address",
					"name": "_holder",
					"type": "address"
				},
				{
					"internalType": "address",
					"name": "_spender",
					"type": "address"
				},
				{
					"internalType": "uint256",
					"name": "_amount",
					"type": "uint256"
				}
			],
			"name": "_approve",
			"outputs": [],
			"stateMutability": "nonpayable",
			"type": "function"
		},
		{
			"inputs": [
				{
					"internalType": "address",
					"name": "_from",
					"type": "address"
				},
				{
					"internalType": "uint256",
					"name": "_amount",
					"type": "uint256"
				}
			],
			"name": "_burn",
			"outputs": [],
			"stateMutability": "nonpayable",
			"type": "function"
		},
		{
			"inputs": [
				{
					"internalType": "uint256",
					"name": "_debaseToken",
					"type": "uint256"
				}
			],
			"name": "_debaseTokenToFragment",
			"outputs": [
				{
					"internalType": "uint256",
					"name": "",
					"type": "uint256"
				}
			],
			"stateMutability": "view",
			"type": "function"
		},
		{
			"inputs": [
				{
					"internalType": "address",
					"name": "_account",
					"type": "address"
				},
				{
					"internalType": "bool",
					"name": "_isExcluded",
					"type": "bool"
				}
			],
			"name": "_excludedFromDebasing",
			"outputs": [],
			"stateMutability": "nonpayable",
			"type": "function"
		},
		{
			"inputs": [
				{
					"internalType": "address",
					"name": "_account",
					"type": "address"
				},
				{
					"internalType": "bool",
					"name": "_isExcluded",
					"type": "bool"
				}
			],
			"name": "_excludedFromHoldingLimit",
			"outputs": [],
			"stateMutability": "nonpayable",
			"type": "function"
		},
		{
			"inputs": [
				{
					"internalType": "uint256",
					"name": "_value",
					"type": "uint256"
				}
			],
			"name": "_fragmentToDebaseToken",
			"outputs": [
				{
					"internalType": "uint256",
					"name": "",
					"type": "uint256"
				}
			],
			"stateMutability": "pure",
			"type": "function"
		},
		{
			"inputs": [
				{
					"internalType": "address",
					"name": "_to",
					"type": "address"
				},
				{
					"internalType": "uint256",
					"name": "_amount",
					"type": "uint256"
				}
			],
			"name": "_mint",
			"outputs": [],
			"stateMutability": "nonpayable",
			"type": "function"
		},
		{
			"inputs": [
				{
					"internalType": "uint256",
					"name": "_amount",
					"type": "uint256"
				},
				{
					"internalType": "address",
					"name": "_to",
					"type": "address"
				}
			],
			"name": "_sendTokensTreasuryWallet",
			"outputs": [],
			"stateMutability": "nonpayable",
			"type": "function"
		},
		{
			"inputs": [
				{
					"internalType": "address",
					"name": "_from",
					"type": "address"
				},
				{
					"internalType": "address",
					"name": "_to",
					"type": "address"
				},
				{
					"internalType": "uint256",
					"name": "_amount",
					"type": "uint256"
				}
			],
			"name": "_transfer",
			"outputs": [],
			"stateMutability": "nonpayable",
			"type": "function"
		},
		{
			"inputs": [],
			"name": "_treasuryBalanceOf",
			"outputs": [
				{
					"internalType": "uint256",
					"name": "",
					"type": "uint256"
				}
			],
			"stateMutability": "view",
			"type": "function"
		},
		{
			"inputs": [
				{
					"internalType": "address",
					"name": "_holder",
					"type": "address"
				},
				{
					"internalType": "address",
					"name": "_spender",
					"type": "address"
				}
			],
			"name": "allowance",
			"outputs": [
				{
					"internalType": "uint256",
					"name": "",
					"type": "uint256"
				}
			],
			"stateMutability": "view",
			"type": "function"
		},
		{
			"inputs": [
				{
					"internalType": "address",
					"name": "_spender",
					"type": "address"
				},
				{
					"internalType": "uint256",
					"name": "_amount",
					"type": "uint256"
				}
			],
			"name": "approve",
			"outputs": [
				{
					"internalType": "bool",
					"name": "",
					"type": "bool"
				}
			],
			"stateMutability": "nonpayable",
			"type": "function"
		},
		{
			"inputs": [
				{
					"internalType": "address",
					"name": "_account",
					"type": "address"
				}
			],
			"name": "balanceOf",
			"outputs": [
				{
					"internalType": "uint256",
					"name": "",
					"type": "uint256"
				}
			],
			"stateMutability": "view",
			"type": "function"
		},
		{
			"inputs": [
				{
					"internalType": "address",
					"name": "_account",
					"type": "address"
				}
			],
			"name": "balanceOfUnderlying",
			"outputs": [
				{
					"internalType": "uint256",
					"name": "",
					"type": "uint256"
				}
			],
			"stateMutability": "view",
			"type": "function"
		},
		{
			"inputs": [
				{
					"internalType": "bytes",
					"name": "checkData",
					"type": "bytes"
				}
			],
			"name": "checkUpkeep",
			"outputs": [
				{
					"internalType": "bool",
					"name": "upkeepNeeded",
					"type": "bool"
				},
				{
					"internalType": "bytes",
					"name": "performData",
					"type": "bytes"
				}
			],
			"stateMutability": "view",
			"type": "function"
		},
		{
			"inputs": [
				{
					"internalType": "address",
					"name": "_to",
					"type": "address"
				},
				{
					"internalType": "uint256",
					"name": "_amount",
					"type": "uint256"
				}
			],
			"name": "claimFromTreasury",
			"outputs": [],
			"stateMutability": "nonpayable",
			"type": "function"
		},
		{
			"inputs": [],
			"name": "debaseDuration",
			"outputs": [
				{
					"internalType": "uint256",
					"name": "",
					"type": "uint256"
				}
			],
			"stateMutability": "view",
			"type": "function"
		},
		{
			"inputs": [],
			"name": "debaseRate",
			"outputs": [
				{
					"internalType": "uint256",
					"name": "",
					"type": "uint256"
				}
			],
			"stateMutability": "view",
			"type": "function"
		},
		{
			"inputs": [],
			"name": "decimals",
			"outputs": [
				{
					"internalType": "uint8",
					"name": "",
					"type": "uint8"
				}
			],
			"stateMutability": "view",
			"type": "function"
		},
		{
			"inputs": [
				{
					"internalType": "address",
					"name": "_spender",
					"type": "address"
				},
				{
					"internalType": "uint256",
					"name": "_subtractedValue",
					"type": "uint256"
				}
			],
			"name": "decreaseAllowance",
			"outputs": [
				{
					"internalType": "bool",
					"name": "",
					"type": "bool"
				}
			],
			"stateMutability": "nonpayable",
			"type": "function"
		},
		{
			"inputs": [],
			"name": "excludeDebasingSupply",
			"outputs": [
				{
					"internalType": "uint256",
					"name": "",
					"type": "uint256"
				}
			],
			"stateMutability": "view",
			"type": "function"
		},
		{
			"inputs": [],
			"name": "getOwner",
			"outputs": [
				{
					"internalType": "address",
					"name": "",
					"type": "address"
				}
			],
			"stateMutability": "view",
			"type": "function"
		},
		{
			"inputs": [],
			"name": "holdingLimit",
			"outputs": [
				{
					"internalType": "uint256",
					"name": "",
					"type": "uint256"
				}
			],
			"stateMutability": "view",
			"type": "function"
		},
		{
			"inputs": [
				{
					"internalType": "address",
					"name": "_spender",
					"type": "address"
				},
				{
					"internalType": "uint256",
					"name": "_addedValue",
					"type": "uint256"
				}
			],
			"name": "increaseAllowance",
			"outputs": [
				{
					"internalType": "bool",
					"name": "",
					"type": "bool"
				}
			],
			"stateMutability": "nonpayable",
			"type": "function"
		},
		{
			"inputs": [
				{
					"internalType": "address",
					"name": "",
					"type": "address"
				}
			],
			"name": "isExcludedFromDebasing",
			"outputs": [
				{
					"internalType": "bool",
					"name": "",
					"type": "bool"
				}
			],
			"stateMutability": "view",
			"type": "function"
		},
		{
			"inputs": [
				{
					"internalType": "address",
					"name": "",
					"type": "address"
				}
			],
			"name": "isExcludedFromHoldingLimit",
			"outputs": [
				{
					"internalType": "bool",
					"name": "",
					"type": "bool"
				}
			],
			"stateMutability": "view",
			"type": "function"
		},
		{
			"inputs": [],
			"name": "lastTimeStamp",
			"outputs": [
				{
					"internalType": "uint256",
					"name": "",
					"type": "uint256"
				}
			],
			"stateMutability": "view",
			"type": "function"
		},
		{
			"inputs": [
				{
					"internalType": "address",
					"name": "",
					"type": "address"
				}
			],
			"name": "lpPools",
			"outputs": [
				{
					"internalType": "bool",
					"name": "",
					"type": "bool"
				}
			],
			"stateMutability": "view",
			"type": "function"
		},
		{
			"inputs": [
				{
					"internalType": "address[]",
					"name": "_airdroppers",
					"type": "address[]"
				},
				{
					"internalType": "uint256[]",
					"name": "_amounts",
					"type": "uint256[]"
				}
			],
			"name": "multiAirdropTokenRequested",
			"outputs": [],
			"stateMutability": "nonpayable",
			"type": "function"
		},
		{
			"inputs": [
				{
					"internalType": "address[]",
					"name": "_accounts",
					"type": "address[]"
				},
				{
					"internalType": "bool",
					"name": "_isExcluded",
					"type": "bool"
				}
			],
			"name": "multiExcludedFromDebasing",
			"outputs": [],
			"stateMutability": "nonpayable",
			"type": "function"
		},
		{
			"inputs": [
				{
					"internalType": "address[]",
					"name": "_accounts",
					"type": "address[]"
				},
				{
					"internalType": "bool",
					"name": "_isExcluded",
					"type": "bool"
				}
			],
			"name": "multiExcludedFromHoldingLimit",
			"outputs": [],
			"stateMutability": "nonpayable",
			"type": "function"
		},
		{
			"inputs": [],
			"name": "name",
			"outputs": [
				{
					"internalType": "string",
					"name": "",
					"type": "string"
				}
			],
			"stateMutability": "view",
			"type": "function"
		},
		{
			"inputs": [],
			"name": "owner",
			"outputs": [
				{
					"internalType": "address",
					"name": "",
					"type": "address"
				}
			],
			"stateMutability": "view",
			"type": "function"
		},
		{
			"inputs": [],
			"name": "pause",
			"outputs": [],
			"stateMutability": "nonpayable",
			"type": "function"
		},
		{
			"inputs": [],
			"name": "paused",
			"outputs": [
				{
					"internalType": "bool",
					"name": "",
					"type": "bool"
				}
			],
			"stateMutability": "view",
			"type": "function"
		},
		{
			"inputs": [
				{
					"internalType": "bytes",
					"name": "",
					"type": "bytes"
				}
			],
			"name": "performUpkeep",
			"outputs": [],
			"stateMutability": "nonpayable",
			"type": "function"
		},
		{
			"inputs": [],
			"name": "renounceOwnership",
			"outputs": [],
			"stateMutability": "nonpayable",
			"type": "function"
		},
		{
			"inputs": [],
			"name": "sellTaxRate",
			"outputs": [
				{
					"internalType": "uint256",
					"name": "",
					"type": "uint256"
				}
			],
			"stateMutability": "view",
			"type": "function"
		},
		{
			"inputs": [],
			"name": "setLastTime",
			"outputs": [],
			"stateMutability": "nonpayable",
			"type": "function"
		},
		{
			"inputs": [],
			"name": "symbol",
			"outputs": [
				{
					"internalType": "string",
					"name": "",
					"type": "string"
				}
			],
			"stateMutability": "view",
			"type": "function"
		},
		{
			"inputs": [],
			"name": "tokenScalingFactor",
			"outputs": [
				{
					"internalType": "uint256",
					"name": "",
					"type": "uint256"
				}
			],
			"stateMutability": "view",
			"type": "function"
		},
		{
			"inputs": [],
			"name": "totalSupply",
			"outputs": [
				{
					"internalType": "uint256",
					"name": "",
					"type": "uint256"
				}
			],
			"stateMutability": "view",
			"type": "function"
		},
		{
			"inputs": [
				{
					"internalType": "address",
					"name": "_recipient",
					"type": "address"
				},
				{
					"internalType": "uint256",
					"name": "_amount",
					"type": "uint256"
				}
			],
			"name": "transfer",
			"outputs": [
				{
					"internalType": "bool",
					"name": "",
					"type": "bool"
				}
			],
			"stateMutability": "nonpayable",
			"type": "function"
		},
		{
			"inputs": [
				{
					"internalType": "address",
					"name": "_sender",
					"type": "address"
				},
				{
					"internalType": "address",
					"name": "_recipient",
					"type": "address"
				},
				{
					"internalType": "uint256",
					"name": "_amount",
					"type": "uint256"
				}
			],
			"name": "transferFrom",
			"outputs": [
				{
					"internalType": "bool",
					"name": "",
					"type": "bool"
				}
			],
			"stateMutability": "nonpayable",
			"type": "function"
		},
		{
			"inputs": [
				{
					"internalType": "address",
					"name": "newOwner",
					"type": "address"
				}
			],
			"name": "transferOwnership",
			"outputs": [],
			"stateMutability": "nonpayable",
			"type": "function"
		},
		{
			"inputs": [
				{
					"internalType": "address",
					"name": "",
					"type": "address"
				}
			],
			"name": "treasuryOperator",
			"outputs": [
				{
					"internalType": "bool",
					"name": "",
					"type": "bool"
				}
			],
			"stateMutability": "view",
			"type": "function"
		},
		{
			"inputs": [],
			"name": "treasuryWallet",
			"outputs": [
				{
					"internalType": "address",
					"name": "",
					"type": "address"
				}
			],
			"stateMutability": "view",
			"type": "function"
		},
		{
			"inputs": [],
			"name": "unpause",
			"outputs": [],
			"stateMutability": "nonpayable",
			"type": "function"
		},
		{
			"inputs": [
				{
					"internalType": "uint256",
					"name": "_debaseDuration",
					"type": "uint256"
				}
			],
			"name": "updateDebaseDuration",
			"outputs": [],
			"stateMutability": "nonpayable",
			"type": "function"
		},
		{
			"inputs": [
				{
					"internalType": "uint256",
					"name": "_debaseRate",
					"type": "uint256"
				}
			],
			"name": "updateDebaseRate",
			"outputs": [],
			"stateMutability": "nonpayable",
			"type": "function"
		},
		{
			"inputs": [
				{
					"internalType": "uint256",
					"name": "_holdingLimit",
					"type": "uint256"
				}
			],
			"name": "updateHoldingLimit",
			"outputs": [],
			"stateMutability": "nonpayable",
			"type": "function"
		},
		{
			"inputs": [
				{
					"internalType": "address",
					"name": "_lpPool",
					"type": "address"
				},
				{
					"internalType": "bool",
					"name": "_isLPPool",
					"type": "bool"
				}
			],
			"name": "updateLPPool",
			"outputs": [],
			"stateMutability": "nonpayable",
			"type": "function"
		},
		{
			"inputs": [
				{
					"internalType": "uint256",
					"name": "_sellTaxRate",
					"type": "uint256"
				}
			],
			"name": "updateSellTaxRate",
			"outputs": [],
			"stateMutability": "nonpayable",
			"type": "function"
		},
		{
			"inputs": [
				{
					"internalType": "address",
					"name": "_addr",
					"type": "address"
				},
				{
					"internalType": "bool",
					"name": "_isOperator",
					"type": "bool"
				}
			],
			"name": "updateTreasuryOperator",
			"outputs": [],
			"stateMutability": "nonpayable",
			"type": "function"
		},
		{
			"inputs": [
				{
					"internalType": "address",
					"name": "_to",
					"type": "address"
				}
			],
			"name": "withdrawETH",
			"outputs": [],
			"stateMutability": "nonpayable",
			"type": "function"
		},
		{
			"stateMutability": "payable",
			"type": "receive"
		}
	]
}