{
	"DripWarrior/checckUpKep_flattened.sol": {
		"CounterwForwarder": {
			"abi": [
				{
					"inputs": [],
					"stateMutability": "nonpayable",
					"type": "constructor"
				},
				{
					"inputs": [
						{
							"internalType": "address",
							"name": "owner",
							"type": "address"
						}
					],
					"name": "OwnableInvalidOwner",
					"type": "error"
				},
				{
					"inputs": [
						{
							"internalType": "address",
							"name": "account",
							"type": "address"
						}
					],
					"name": "OwnableUnauthorizedAccount",
					"type": "error"
				},
				{
					"inputs": [
						{
							"internalType": "uint256",
							"name": "updateInterval",
							"type": "uint256"
						}
					],
					"name": "wrongInterval",
					"type": "error"
				},
				{
					"inputs": [
						{
							"internalType": "uint256",
							"name": "time",
							"type": "uint256"
						}
					],
					"name": "wrongTime",
					"type": "error"
				},
				{
					"anonymous": false,
					"inputs": [
						{
							"indexed": true,
							"internalType": "address",
							"name": "previousOwner",
							"type": "address"
						},
						{
							"indexed": true,
							"internalType": "address",
							"name": "newOwner",
							"type": "address"
						}
					],
					"name": "OwnershipTransferred",
					"type": "event"
				},
				{
					"inputs": [],
					"name": "checkOnce",
					"outputs": [
						{
							"internalType": "bool",
							"name": "",
							"type": "bool"
						}
					],
					"stateMutability": "view",
					"type": "function"
				},
				{
					"inputs": [
						{
							"internalType": "bytes",
							"name": "",
							"type": "bytes"
						}
					],
					"name": "checkUpkeep",
					"outputs": [
						{
							"internalType": "bool",
							"name": "",
							"type": "bool"
						},
						{
							"internalType": "bytes",
							"name": "",
							"type": "bytes"
						}
					],
					"stateMutability": "view",
					"type": "function"
				},
				{
					"inputs": [],
					"name": "counter",
					"outputs": [
						{
							"internalType": "uint256",
							"name": "",
							"type": "uint256"
						}
					],
					"stateMutability": "view",
					"type": "function"
				},
				{
					"inputs": [],
					"name": "doWee",
					"outputs": [],
					"stateMutability": "nonpayable",
					"type": "function"
				},
				{
					"inputs": [],
					"name": "interval",
					"outputs": [
						{
							"internalType": "uint256",
							"name": "",
							"type": "uint256"
						}
					],
					"stateMutability": "view",
					"type": "function"
				},
				{
					"inputs": [],
					"name": "lastTimeStamp",
					"outputs": [
						{
							"internalType": "uint256",
							"name": "",
							"type": "uint256"
						}
					],
					"stateMutability": "view",
					"type": "function"
				},
				{
					"inputs": [],
					"name": "off",
					"outputs": [],
					"stateMutability": "nonpayable",
					"type": "function"
				},
				{
					"inputs": [],
					"name": "owner",
					"outputs": [
						{
							"internalType": "address",
							"name": "",
							"type": "address"
						}
					],
					"stateMutability": "view",
					"type": "function"
				},
				{
					"inputs": [
						{
							"internalType": "bytes",
							"name": "",
							"type": "bytes"
						}
					],
					"name": "performUpkeep",
					"outputs": [],
					"stateMutability": "nonpayable",
					"type": "function"
				},
				{
					"inputs": [],
					"name": "renounceOwnership",
					"outputs": [],
					"stateMutability": "nonpayable",
					"type": "function"
				},
				{
					"inputs": [],
					"name": "s_forwarderAddress",
					"outputs": [
						{
							"internalType": "address",
							"name": "",
							"type": "address"
						}
					],
					"stateMutability": "view",
					"type": "function"
				},
				{
					"inputs": [
						{
							"internalType": "address",
							"name": "forwarderAddress",
							"type": "address"
						}
					],
					"name": "setForwarderAddress",
					"outputs": [],
					"stateMutability": "nonpayable",
					"type": "function"
				},
				{
					"inputs": [
						{
							"internalType": "uint256",
							"name": "_startingTime",
							"type": "uint256"
						},
						{
							"internalType": "uint256",
							"name": "updateInterval",
							"type": "uint256"
						}
					],
					"name": "setInterval",
					"outputs": [],
					"stateMutability": "nonpayable",
					"type": "function"
				},
				{
					"inputs": [],
					"name": "startingTime",
					"outputs": [
						{
							"internalType": "uint256",
							"name": "",
							"type": "uint256"
						}
					],
					"stateMutability": "view",
					"type": "function"
				},
				{
					"inputs": [
						{
							"internalType": "address",
							"name": "newOwner",
							"type": "address"
						}
					],
					"name": "transferOwnership",
					"outputs": [],
					"stateMutability": "nonpayable",
					"type": "function"
				},
				{
					"inputs": [],
					"name": "weeklyTransfer",
					"outputs": [],
					"stateMutability": "nonpayable",
					"type": "function"
				}
			],
			"devdoc": {
				"errors": {
					"OwnableInvalidOwner(address)": [
						{
							"details": "The owner is not a valid owner account. (eg. `address(0)`)"
						}
					],
					"OwnableUnauthorizedAccount(address)": [
						{
							"details": "The caller account is not authorized to perform an operation."
						}
					]
				},
				"kind": "dev",
				"methods": {
					"owner()": {
						"details": "Returns the address of the current owner."
					},
					"renounceOwnership()": {
						"details": "Leaves the contract without owner. It will not be possible to call `onlyOwner` functions. Can only be called by the current owner. NOTE: Renouncing ownership will leave the contract without an owner, thereby disabling any functionality that is only available to the owner."
					},
					"setForwarderAddress(address)": {
						"details": "Only callable by the owner",
						"params": {
							"forwarderAddress": "the address to set"
						}
					},
					"transferOwnership(address)": {
						"details": "Transfers ownership of the contract to a new account (`newOwner`). Can only be called by the current owner."
					}
				},
				"version": 1
			},
			"evm": {
				"assembly": "    /* \"DripWarrior/checckUpKep_flattened.sol\":6858:9822  contract CounterwForwarder is AutomationCompatibleInterface,Ownable {... */\n  mstore(0x40, 0x80)\n    /* \"DripWarrior/checckUpKep_flattened.sol\":7364:7413  constructor()Ownable(msg.sender) {... */\n  callvalue\n  dup1\n  iszero\n  tag_1\n  jumpi\n  0x00\n  dup1\n  revert\ntag_1:\n  pop\n    /* \"DripWarrior/checckUpKep_flattened.sol\":7385:7395  msg.sender */\n  caller\n    /* \"DripWarrior/checckUpKep_flattened.sol\":4681:4682  0 */\n  0x00\n    /* \"DripWarrior/checckUpKep_flattened.sol\":4657:4683  initialOwner == address(0) */\n  0xffffffffffffffffffffffffffffffffffffffff\n  and\n    /* \"DripWarrior/checckUpKep_flattened.sol\":4657:4669  initialOwner */\n  dup2\n    /* \"DripWarrior/checckUpKep_flattened.sol\":4657:4683  initialOwner == address(0) */\n  0xffffffffffffffffffffffffffffffffffffffff\n  and\n  sub\n    /* \"DripWarrior/checckUpKep_flattened.sol\":4653:4748  if (initialOwner == address(0)) {... */\n  tag_5\n  jumpi\n    /* \"DripWarrior/checckUpKep_flattened.sol\":4734:4735  0 */\n  0x00\n    /* \"DripWarrior/checckUpKep_flattened.sol\":4706:4737  OwnableInvalidOwner(address(0)) */\n  mload(0x40)\n  0x1e4fbdf700000000000000000000000000000000000000000000000000000000\n  dup2\n  mstore\n  0x04\n  add\n  tag_6\n  swap2\n  swap1\n  tag_7\n  jump\t// in\ntag_6:\n  mload(0x40)\n  dup1\n  swap2\n  sub\n  swap1\n  revert\n    /* \"DripWarrior/checckUpKep_flattened.sol\":4653:4748  if (initialOwner == address(0)) {... */\ntag_5:\n    /* \"DripWarrior/checckUpKep_flattened.sol\":4757:4789  _transferOwnership(initialOwner) */\n  tag_8\n    /* \"DripWarrior/checckUpKep_flattened.sol\":4776:4788  initialOwner */\n  dup2\n    /* \"DripWarrior/checckUpKep_flattened.sol\":4757:4775  _transferOwnership */\n  shl(0x20, tag_9)\n    /* \"DripWarrior/checckUpKep_flattened.sol\":4757:4789  _transferOwnership(initialOwner) */\n  0x20\n  shr\n  jump\t// in\ntag_8:\n    /* \"DripWarrior/checckUpKep_flattened.sol\":4609:4796  constructor(address initialOwner) {... */\n  pop\n    /* \"DripWarrior/checckUpKep_flattened.sol\":6858:9822  contract CounterwForwarder is AutomationCompatibleInterface,Ownable {... */\n  jump(tag_11)\n    /* \"DripWarrior/checckUpKep_flattened.sol\":6296:6483  function _transferOwnership(address newOwner) internal virtual {... */\ntag_9:\n    /* \"DripWarrior/checckUpKep_flattened.sol\":6369:6385  address oldOwner */\n  0x00\n    /* \"DripWarrior/checckUpKep_flattened.sol\":6388:6394  _owner */\n  dup1\n  0x00\n  swap1\n  sload\n  swap1\n  0x0100\n  exp\n  swap1\n  div\n  0xffffffffffffffffffffffffffffffffffffffff\n  and\n    /* \"DripWarrior/checckUpKep_flattened.sol\":6369:6394  address oldOwner = _owner */\n  swap1\n  pop\n    /* \"DripWarrior/checckUpKep_flattened.sol\":6413:6421  newOwner */\n  dup2\n    /* \"DripWarrior/checckUpKep_flattened.sol\":6404:6410  _owner */\n  0x00\n  dup1\n    /* \"DripWarrior/checckUpKep_flattened.sol\":6404:6421  _owner = newOwner */\n  0x0100\n  exp\n  dup2\n  sload\n  dup2\n  0xffffffffffffffffffffffffffffffffffffffff\n  mul\n  not\n  and\n  swap1\n  dup4\n  0xffffffffffffffffffffffffffffffffffffffff\n  and\n  mul\n  or\n  swap1\n  sstore\n  pop\n    /* \"DripWarrior/checckUpKep_flattened.sol\":6467:6475  newOwner */\n  dup2\n    /* \"DripWarrior/checckUpKep_flattened.sol\":6436:6476  OwnershipTransferred(oldOwner, newOwner) */\n  0xffffffffffffffffffffffffffffffffffffffff\n  and\n    /* \"DripWarrior/checckUpKep_flattened.sol\":6457:6465  oldOwner */\n  dup2\n    /* \"DripWarrior/checckUpKep_flattened.sol\":6436:6476  OwnershipTransferred(oldOwner, newOwner) */\n  0xffffffffffffffffffffffffffffffffffffffff\n  and\n  0x8be0079c531659141344cd1fd0a4f28419497f9722a3daafe3b4186f6b6457e0\n  mload(0x40)\n  mload(0x40)\n  dup1\n  swap2\n  sub\n  swap1\n  log3\n    /* \"DripWarrior/checckUpKep_flattened.sol\":6359:6483  {... */\n  pop\n    /* \"DripWarrior/checckUpKep_flattened.sol\":6296:6483  function _transferOwnership(address newOwner) internal virtual {... */\n  pop\n  jump\t// out\n    /* \"#utility.yul\":7:133   */\ntag_13:\n    /* \"#utility.yul\":44:51   */\n  0x00\n    /* \"#utility.yul\":84:126   */\n  0xffffffffffffffffffffffffffffffffffffffff\n    /* \"#utility.yul\":77:82   */\n  dup3\n    /* \"#utility.yul\":73:127   */\n  and\n    /* \"#utility.yul\":62:127   */\n  swap1\n  pop\n    /* \"#utility.yul\":7:133   */\n  swap2\n  swap1\n  pop\n  jump\t// out\n    /* \"#utility.yul\":139:235   */\ntag_14:\n    /* \"#utility.yul\":176:183   */\n  0x00\n    /* \"#utility.yul\":205:229   */\n  tag_19\n    /* \"#utility.yul\":223:228   */\n  dup3\n    /* \"#utility.yul\":205:229   */\n  tag_13\n  jump\t// in\ntag_19:\n    /* \"#utility.yul\":194:229   */\n  swap1\n  pop\n    /* \"#utility.yul\":139:235   */\n  swap2\n  swap1\n  pop\n  jump\t// out\n    /* \"#utility.yul\":241:359   */\ntag_15:\n    /* \"#utility.yul\":328:352   */\n  tag_21\n    /* \"#utility.yul\":346:351   */\n  dup2\n    /* \"#utility.yul\":328:352   */\n  tag_14\n  jump\t// in\ntag_21:\n    /* \"#utility.yul\":323:326   */\n  dup3\n    /* \"#utility.yul\":316:353   */\n  mstore\n    /* \"#utility.yul\":241:359   */\n  pop\n  pop\n  jump\t// out\n    /* \"#utility.yul\":365:587   */\ntag_7:\n    /* \"#utility.yul\":458:462   */\n  0x00\n    /* \"#utility.yul\":496:498   */\n  0x20\n    /* \"#utility.yul\":485:494   */\n  dup3\n    /* \"#utility.yul\":481:499   */\n  add\n    /* \"#utility.yul\":473:499   */\n  swap1\n  pop\n    /* \"#utility.yul\":509:580   */\n  tag_23\n    /* \"#utility.yul\":577:578   */\n  0x00\n    /* \"#utility.yul\":566:575   */\n  dup4\n    /* \"#utility.yul\":562:579   */\n  add\n    /* \"#utility.yul\":553:559   */\n  dup5\n    /* \"#utility.yul\":509:580   */\n  tag_15\n  jump\t// in\ntag_23:\n    /* \"#utility.yul\":365:587   */\n  swap3\n  swap2\n  pop\n  pop\n  jump\t// out\n    /* \"DripWarrior/checckUpKep_flattened.sol\":6858:9822  contract CounterwForwarder is AutomationCompatibleInterface,Ownable {... */\ntag_11:\n  dataSize(sub_0)\n  dup1\n  dataOffset(sub_0)\n  0x00\n  codecopy\n  0x00\n  return\nstop\n\nsub_0: assembly {\n        /* \"DripWarrior/checckUpKep_flattened.sol\":6858:9822  contract CounterwForwarder is AutomationCompatibleInterface,Ownable {... */\n      mstore(0x40, 0x80)\n      callvalue\n      dup1\n      iszero\n      tag_1\n      jumpi\n      0x00\n      dup1\n      revert\n    tag_1:\n      pop\n      jumpi(tag_2, lt(calldatasize, 0x04))\n      shr(0xe0, calldataload(0x00))\n      dup1\n      0x6e04ff0d\n      gt\n      tag_19\n      jumpi\n      dup1\n      0xb7106f9e\n      gt\n      tag_20\n      jumpi\n      dup1\n      0xb7106f9e\n      eq\n      tag_15\n      jumpi\n      dup1\n      0xd777cc6d\n      eq\n      tag_16\n      jumpi\n      dup1\n      0xe9c68e2c\n      eq\n      tag_17\n      jumpi\n      dup1\n      0xf2fde38b\n      eq\n      tag_18\n      jumpi\n      jump(tag_2)\n    tag_20:\n      dup1\n      0x6e04ff0d\n      eq\n      tag_11\n      jumpi\n      dup1\n      0x715018a6\n      eq\n      tag_12\n      jumpi\n      dup1\n      0x8da5cb5b\n      eq\n      tag_13\n      jumpi\n      dup1\n      0x947a36fb\n      eq\n      tag_14\n      jumpi\n      jump(tag_2)\n    tag_19:\n      dup1\n      0x4585e33b\n      gt\n      tag_21\n      jumpi\n      dup1\n      0x4585e33b\n      eq\n      tag_7\n      jumpi\n      dup1\n      0x5f17e616\n      eq\n      tag_8\n      jumpi\n      dup1\n      0x61bc221a\n      eq\n      tag_9\n      jumpi\n      dup1\n      0x6626b26d\n      eq\n      tag_10\n      jumpi\n      jump(tag_2)\n    tag_21:\n      dup1\n      0x3070fbf8\n      eq\n      tag_3\n      jumpi\n      dup1\n      0x30e3f8f8\n      eq\n      tag_4\n      jumpi\n      dup1\n      0x39518b5e\n      eq\n      tag_5\n      jumpi\n      dup1\n      0x3f3b3b27\n      eq\n      tag_6\n      jumpi\n    tag_2:\n      0x00\n      dup1\n      revert\n        /* \"DripWarrior/checckUpKep_flattened.sol\":7169:7202  address public s_forwarderAddress */\n    tag_3:\n      tag_22\n      tag_23\n      jump\t// in\n    tag_22:\n      mload(0x40)\n      tag_24\n      swap2\n      swap1\n      tag_25\n      jump\t// in\n    tag_24:\n      mload(0x40)\n      dup1\n      swap2\n      sub\n      swap1\n      return\n        /* \"DripWarrior/checckUpKep_flattened.sol\":7208:7229  bool public checkOnce */\n    tag_4:\n      tag_26\n      tag_27\n      jump\t// in\n    tag_26:\n      mload(0x40)\n      tag_28\n      swap2\n      swap1\n      tag_29\n      jump\t// in\n    tag_28:\n      mload(0x40)\n      dup1\n      swap2\n      sub\n      swap1\n      return\n        /* \"DripWarrior/checckUpKep_flattened.sol\":7235:7262  uint256 public startingTime */\n    tag_5:\n      tag_30\n      tag_31\n      jump\t// in\n    tag_30:\n      mload(0x40)\n      tag_32\n      swap2\n      swap1\n      tag_33\n      jump\t// in\n    tag_32:\n      mload(0x40)\n      dup1\n      swap2\n      sub\n      swap1\n      return\n        /* \"DripWarrior/checckUpKep_flattened.sol\":7085:7113  uint256 public lastTimeStamp */\n    tag_6:\n      tag_34\n      tag_35\n      jump\t// in\n    tag_34:\n      mload(0x40)\n      tag_36\n      swap2\n      swap1\n      tag_33\n      jump\t// in\n    tag_36:\n      mload(0x40)\n      dup1\n      swap2\n      sub\n      swap1\n      return\n        /* \"DripWarrior/checckUpKep_flattened.sol\":7664:8445  function performUpkeep(bytes calldata /*performData*/) external override {... */\n    tag_7:\n      tag_37\n      0x04\n      dup1\n      calldatasize\n      sub\n      dup2\n      add\n      swap1\n      tag_38\n      swap2\n      swap1\n      tag_39\n      jump\t// in\n    tag_38:\n      tag_40\n      jump\t// in\n    tag_37:\n      stop\n        /* \"DripWarrior/checckUpKep_flattened.sol\":8457:8947  function setInterval (uint256 _startingTime, uint256 updateInterval) external  onlyOwner{... */\n    tag_8:\n      tag_41\n      0x04\n      dup1\n      calldatasize\n      sub\n      dup2\n      add\n      swap1\n      tag_42\n      swap2\n      swap1\n      tag_43\n      jump\t// in\n    tag_42:\n      tag_44\n      jump\t// in\n    tag_41:\n      stop\n        /* \"DripWarrior/checckUpKep_flattened.sol\":6931:6953  uint256 public counter */\n    tag_9:\n      tag_45\n      tag_46\n      jump\t// in\n    tag_45:\n      mload(0x40)\n      tag_47\n      swap2\n      swap1\n      tag_33\n      jump\t// in\n    tag_47:\n      mload(0x40)\n      dup1\n      swap2\n      sub\n      swap1\n      return\n        /* \"DripWarrior/checckUpKep_flattened.sol\":8953:9061  function off () external  onlyOwner{... */\n    tag_10:\n      tag_48\n      tag_49\n      jump\t// in\n    tag_48:\n      stop\n        /* \"DripWarrior/checckUpKep_flattened.sol\":7419:7657  function checkUpkeep(... */\n    tag_11:\n      tag_50\n      0x04\n      dup1\n      calldatasize\n      sub\n      dup2\n      add\n      swap1\n      tag_51\n      swap2\n      swap1\n      tag_39\n      jump\t// in\n    tag_51:\n      tag_52\n      jump\t// in\n    tag_50:\n      mload(0x40)\n      tag_53\n      swap3\n      swap2\n      swap1\n      tag_54\n      jump\t// in\n    tag_53:\n      mload(0x40)\n      dup1\n      swap2\n      sub\n      swap1\n      return\n        /* \"DripWarrior/checckUpKep_flattened.sol\":5677:5778  function renounceOwnership() public virtual onlyOwner {... */\n    tag_12:\n      tag_55\n      tag_56\n      jump\t// in\n    tag_55:\n      stop\n        /* \"DripWarrior/checckUpKep_flattened.sol\":5022:5107  function owner() public view virtual returns (address) {... */\n    tag_13:\n      tag_57\n      tag_58\n      jump\t// in\n    tag_57:\n      mload(0x40)\n      tag_59\n      swap2\n      swap1\n      tag_25\n      jump\t// in\n    tag_59:\n      mload(0x40)\n      dup1\n      swap2\n      sub\n      swap1\n      return\n        /* \"DripWarrior/checckUpKep_flattened.sol\":7009:7032  uint256 public interval */\n    tag_14:\n      tag_60\n      tag_61\n      jump\t// in\n    tag_60:\n      mload(0x40)\n      tag_62\n      swap2\n      swap1\n      tag_33\n      jump\t// in\n    tag_62:\n      mload(0x40)\n      dup1\n      swap2\n      sub\n      swap1\n      return\n        /* \"DripWarrior/checckUpKep_flattened.sol\":9721:9820  function doWee() public {... */\n    tag_15:\n      tag_63\n      tag_64\n      jump\t// in\n    tag_63:\n      stop\n        /* \"DripWarrior/checckUpKep_flattened.sol\":9440:9568  function setForwarderAddress(address forwarderAddress) external onlyOwner {... */\n    tag_16:\n      tag_65\n      0x04\n      dup1\n      calldatasize\n      sub\n      dup2\n      add\n      swap1\n      tag_66\n      swap2\n      swap1\n      tag_67\n      jump\t// in\n    tag_66:\n      tag_68\n      jump\t// in\n    tag_65:\n      stop\n        /* \"DripWarrior/checckUpKep_flattened.sol\":9067:9275  function weeklyTransfer() public {... */\n    tag_17:\n      tag_69\n      tag_70\n      jump\t// in\n    tag_69:\n      stop\n        /* \"DripWarrior/checckUpKep_flattened.sol\":5927:6142  function transferOwnership(address newOwner) public virtual onlyOwner {... */\n    tag_18:\n      tag_71\n      0x04\n      dup1\n      calldatasize\n      sub\n      dup2\n      add\n      swap1\n      tag_72\n      swap2\n      swap1\n      tag_67\n      jump\t// in\n    tag_72:\n      tag_73\n      jump\t// in\n    tag_71:\n      stop\n        /* \"DripWarrior/checckUpKep_flattened.sol\":7169:7202  address public s_forwarderAddress */\n    tag_23:\n      0x04\n      0x00\n      swap1\n      sload\n      swap1\n      0x0100\n      exp\n      swap1\n      div\n      0xffffffffffffffffffffffffffffffffffffffff\n      and\n      dup2\n      jump\t// out\n        /* \"DripWarrior/checckUpKep_flattened.sol\":7208:7229  bool public checkOnce */\n    tag_27:\n      0x04\n      0x14\n      swap1\n      sload\n      swap1\n      0x0100\n      exp\n      swap1\n      div\n      0xff\n      and\n      dup2\n      jump\t// out\n        /* \"DripWarrior/checckUpKep_flattened.sol\":7235:7262  uint256 public startingTime */\n    tag_31:\n      sload(0x05)\n      dup2\n      jump\t// out\n        /* \"DripWarrior/checckUpKep_flattened.sol\":7085:7113  uint256 public lastTimeStamp */\n    tag_35:\n      sload(0x03)\n      dup2\n      jump\t// out\n        /* \"DripWarrior/checckUpKep_flattened.sol\":7664:8445  function performUpkeep(bytes calldata /*performData*/) external override {... */\n    tag_40:\n        /* \"DripWarrior/checckUpKep_flattened.sol\":7783:7801  s_forwarderAddress */\n      0x04\n      0x00\n      swap1\n      sload\n      swap1\n      0x0100\n      exp\n      swap1\n      div\n      0xffffffffffffffffffffffffffffffffffffffff\n      and\n        /* \"DripWarrior/checckUpKep_flattened.sol\":7769:7801  msg.sender == s_forwarderAddress */\n      0xffffffffffffffffffffffffffffffffffffffff\n      and\n        /* \"DripWarrior/checckUpKep_flattened.sol\":7769:7779  msg.sender */\n      caller\n        /* \"DripWarrior/checckUpKep_flattened.sol\":7769:7801  msg.sender == s_forwarderAddress */\n      0xffffffffffffffffffffffffffffffffffffffff\n      and\n      eq\n        /* \"DripWarrior/checckUpKep_flattened.sol\":7748:7886  require(... */\n      tag_75\n      jumpi\n      mload(0x40)\n      0x08c379a000000000000000000000000000000000000000000000000000000000\n      dup2\n      mstore\n      0x04\n      add\n      tag_76\n      swap1\n      tag_77\n      jump\t// in\n    tag_76:\n      mload(0x40)\n      dup1\n      swap2\n      sub\n      swap1\n      revert\n    tag_75:\n        /* \"DripWarrior/checckUpKep_flattened.sol\":7920:7921  0 */\n      0x00\n        /* \"DripWarrior/checckUpKep_flattened.sol\":7908:7916  interval */\n      sload(0x02)\n        /* \"DripWarrior/checckUpKep_flattened.sol\":7908:7921  interval == 0 */\n      sub\n        /* \"DripWarrior/checckUpKep_flattened.sol\":7904:7977  if (interval == 0){... */\n      tag_78\n      jumpi\n        /* \"DripWarrior/checckUpKep_flattened.sol\":7957:7965  interval */\n      sload(0x02)\n        /* \"DripWarrior/checckUpKep_flattened.sol\":7943:7966  wrongInterval(interval) */\n      mload(0x40)\n      0x7154000700000000000000000000000000000000000000000000000000000000\n      dup2\n      mstore\n      0x04\n      add\n      tag_79\n      swap2\n      swap1\n      tag_33\n      jump\t// in\n    tag_79:\n      mload(0x40)\n      dup1\n      swap2\n      sub\n      swap1\n      revert\n        /* \"DripWarrior/checckUpKep_flattened.sol\":7904:7977  if (interval == 0){... */\n    tag_78:\n        /* \"DripWarrior/checckUpKep_flattened.sol\":7999:8008  checkOnce */\n      0x04\n      0x14\n      swap1\n      sload\n      swap1\n      0x0100\n      exp\n      swap1\n      div\n      0xff\n      and\n        /* \"DripWarrior/checckUpKep_flattened.sol\":7995:8358  if(!checkOnce){... */\n      tag_80\n      jumpi\n        /* \"DripWarrior/checckUpKep_flattened.sol\":8046:8058  startingTime */\n      sload(0x05)\n        /* \"DripWarrior/checckUpKep_flattened.sol\":8027:8042  block.timestamp */\n      timestamp\n        /* \"DripWarrior/checckUpKep_flattened.sol\":8027:8058  block.timestamp >= startingTime */\n      lt\n        /* \"DripWarrior/checckUpKep_flattened.sol\":8024:8237  if(block.timestamp >= startingTime){... */\n      tag_81\n      jumpi\n        /* \"DripWarrior/checckUpKep_flattened.sol\":8093:8108  block.timestamp */\n      timestamp\n        /* \"DripWarrior/checckUpKep_flattened.sol\":8077:8090  lastTimeStamp */\n      0x03\n        /* \"DripWarrior/checckUpKep_flattened.sol\":8077:8108  lastTimeStamp = block.timestamp */\n      dup2\n      swap1\n      sstore\n      pop\n        /* \"DripWarrior/checckUpKep_flattened.sol\":8126:8142  weeklyTransfer() */\n      tag_82\n        /* \"DripWarrior/checckUpKep_flattened.sol\":8126:8140  weeklyTransfer */\n      tag_70\n        /* \"DripWarrior/checckUpKep_flattened.sol\":8126:8142  weeklyTransfer() */\n      jump\t// in\n    tag_82:\n        /* \"DripWarrior/checckUpKep_flattened.sol\":8024:8237  if(block.timestamp >= startingTime){... */\n      jump(tag_83)\n    tag_81:\n        /* \"DripWarrior/checckUpKep_flattened.sol\":8209:8221  startingTime */\n      sload(0x05)\n        /* \"DripWarrior/checckUpKep_flattened.sol\":8199:8222  wrongTime(startingTime) */\n      mload(0x40)\n      0x54593e7500000000000000000000000000000000000000000000000000000000\n      dup2\n      mstore\n      0x04\n      add\n      tag_84\n      swap2\n      swap1\n      tag_33\n      jump\t// in\n    tag_84:\n      mload(0x40)\n      dup1\n      swap2\n      sub\n      swap1\n      revert\n        /* \"DripWarrior/checckUpKep_flattened.sol\":8024:8237  if(block.timestamp >= startingTime){... */\n    tag_83:\n        /* \"DripWarrior/checckUpKep_flattened.sol\":7995:8358  if(!checkOnce){... */\n      jump(tag_85)\n    tag_80:\n        /* \"DripWarrior/checckUpKep_flattened.sol\":8302:8317  block.timestamp */\n      timestamp\n        /* \"DripWarrior/checckUpKep_flattened.sol\":8286:8299  lastTimeStamp */\n      0x03\n        /* \"DripWarrior/checckUpKep_flattened.sol\":8286:8317  lastTimeStamp = block.timestamp */\n      dup2\n      swap1\n      sstore\n      pop\n        /* \"DripWarrior/checckUpKep_flattened.sol\":8331:8347  weeklyTransfer() */\n      tag_86\n        /* \"DripWarrior/checckUpKep_flattened.sol\":8331:8345  weeklyTransfer */\n      tag_70\n        /* \"DripWarrior/checckUpKep_flattened.sol\":8331:8347  weeklyTransfer() */\n      jump\t// in\n    tag_86:\n        /* \"DripWarrior/checckUpKep_flattened.sol\":7995:8358  if(!checkOnce){... */\n    tag_85:\n        /* \"DripWarrior/checckUpKep_flattened.sol\":8379:8388  checkOnce */\n      0x04\n      0x14\n      swap1\n      sload\n      swap1\n      0x0100\n      exp\n      swap1\n      div\n      0xff\n      and\n        /* \"DripWarrior/checckUpKep_flattened.sol\":8375:8430  if(!checkOnce){... */\n      tag_87\n      jumpi\n        /* \"DripWarrior/checckUpKep_flattened.sol\":8415:8419  true */\n      0x01\n        /* \"DripWarrior/checckUpKep_flattened.sol\":8403:8412  checkOnce */\n      0x04\n      0x14\n        /* \"DripWarrior/checckUpKep_flattened.sol\":8403:8419  checkOnce = true */\n      0x0100\n      exp\n      dup2\n      sload\n      dup2\n      0xff\n      mul\n      not\n      and\n      swap1\n      dup4\n      iszero\n      iszero\n      mul\n      or\n      swap1\n      sstore\n      pop\n        /* \"DripWarrior/checckUpKep_flattened.sol\":8375:8430  if(!checkOnce){... */\n    tag_87:\n        /* \"DripWarrior/checckUpKep_flattened.sol\":7664:8445  function performUpkeep(bytes calldata /*performData*/) external override {... */\n      pop\n      pop\n      jump\t// out\n        /* \"DripWarrior/checckUpKep_flattened.sol\":8457:8947  function setInterval (uint256 _startingTime, uint256 updateInterval) external  onlyOwner{... */\n    tag_44:\n        /* \"DripWarrior/checckUpKep_flattened.sol\":4915:4928  _checkOwner() */\n      tag_89\n        /* \"DripWarrior/checckUpKep_flattened.sol\":4915:4926  _checkOwner */\n      tag_90\n        /* \"DripWarrior/checckUpKep_flattened.sol\":4915:4928  _checkOwner() */\n      jump\t// in\n    tag_89:\n        /* \"DripWarrior/checckUpKep_flattened.sol\":8586:8587  0 */\n      0x00\n        /* \"DripWarrior/checckUpKep_flattened.sol\":8568:8582  updateInterval */\n      dup2\n        /* \"DripWarrior/checckUpKep_flattened.sol\":8568:8587  updateInterval <= 0 */\n      gt\n        /* \"DripWarrior/checckUpKep_flattened.sol\":8565:8649  if(updateInterval <= 0){... */\n      tag_92\n      jumpi\n        /* \"DripWarrior/checckUpKep_flattened.sol\":8623:8637  updateInterval */\n      dup1\n        /* \"DripWarrior/checckUpKep_flattened.sol\":8609:8638  wrongInterval(updateInterval) */\n      mload(0x40)\n      0x7154000700000000000000000000000000000000000000000000000000000000\n      dup2\n      mstore\n      0x04\n      add\n      tag_93\n      swap2\n      swap1\n      tag_33\n      jump\t// in\n    tag_93:\n      mload(0x40)\n      dup1\n      swap2\n      sub\n      swap1\n      revert\n        /* \"DripWarrior/checckUpKep_flattened.sol\":8565:8649  if(updateInterval <= 0){... */\n    tag_92:\n        /* \"DripWarrior/checckUpKep_flattened.sol\":8686:8701  block.timestamp */\n      timestamp\n        /* \"DripWarrior/checckUpKep_flattened.sol\":8670:8683  _startingTime */\n      dup3\n        /* \"DripWarrior/checckUpKep_flattened.sol\":8670:8701  _startingTime < block.timestamp */\n      lt\n        /* \"DripWarrior/checckUpKep_flattened.sol\":8667:8758  if(_startingTime < block.timestamp){... */\n      iszero\n      tag_94\n      jumpi\n        /* \"DripWarrior/checckUpKep_flattened.sol\":8733:8746  _startingTime */\n      dup2\n        /* \"DripWarrior/checckUpKep_flattened.sol\":8723:8747  wrongTime(_startingTime) */\n      mload(0x40)\n      0x54593e7500000000000000000000000000000000000000000000000000000000\n      dup2\n      mstore\n      0x04\n      add\n      tag_95\n      swap2\n      swap1\n      tag_33\n      jump\t// in\n    tag_95:\n      mload(0x40)\n      dup1\n      swap2\n      sub\n      swap1\n      revert\n        /* \"DripWarrior/checckUpKep_flattened.sol\":8667:8758  if(_startingTime < block.timestamp){... */\n    tag_94:\n        /* \"DripWarrior/checckUpKep_flattened.sol\":8779:8793  updateInterval */\n      dup1\n        /* \"DripWarrior/checckUpKep_flattened.sol\":8768:8776  interval */\n      0x02\n        /* \"DripWarrior/checckUpKep_flattened.sol\":8768:8793  interval = updateInterval */\n      dup2\n      swap1\n      sstore\n      pop\n        /* \"DripWarrior/checckUpKep_flattened.sol\":8818:8831  _startingTime */\n      dup2\n        /* \"DripWarrior/checckUpKep_flattened.sol\":8803:8815  startingTime */\n      0x05\n        /* \"DripWarrior/checckUpKep_flattened.sol\":8803:8831  startingTime = _startingTime */\n      dup2\n      swap1\n      sstore\n      pop\n        /* \"DripWarrior/checckUpKep_flattened.sol\":8857:8872  block.timestamp */\n      timestamp\n        /* \"DripWarrior/checckUpKep_flattened.sol\":8841:8854  lastTimeStamp */\n      0x03\n        /* \"DripWarrior/checckUpKep_flattened.sol\":8841:8872  lastTimeStamp = block.timestamp */\n      dup2\n      swap1\n      sstore\n      pop\n        /* \"DripWarrior/checckUpKep_flattened.sol\":8457:8947  function setInterval (uint256 _startingTime, uint256 updateInterval) external  onlyOwner{... */\n      pop\n      pop\n      jump\t// out\n        /* \"DripWarrior/checckUpKep_flattened.sol\":6931:6953  uint256 public counter */\n    tag_46:\n      sload(0x01)\n      dup2\n      jump\t// out\n        /* \"DripWarrior/checckUpKep_flattened.sol\":8953:9061  function off () external  onlyOwner{... */\n    tag_49:\n        /* \"DripWarrior/checckUpKep_flattened.sol\":4915:4928  _checkOwner() */\n      tag_97\n        /* \"DripWarrior/checckUpKep_flattened.sol\":4915:4926  _checkOwner */\n      tag_90\n        /* \"DripWarrior/checckUpKep_flattened.sol\":4915:4928  _checkOwner() */\n      jump\t// in\n    tag_97:\n        /* \"DripWarrior/checckUpKep_flattened.sol\":9017:9018  0 */\n      0x00\n        /* \"DripWarrior/checckUpKep_flattened.sol\":9006:9014  interval */\n      0x02\n        /* \"DripWarrior/checckUpKep_flattened.sol\":9006:9018  interval = 0 */\n      dup2\n      swap1\n      sstore\n      pop\n        /* \"DripWarrior/checckUpKep_flattened.sol\":9040:9045  false */\n      0x00\n        /* \"DripWarrior/checckUpKep_flattened.sol\":9028:9037  checkOnce */\n      0x04\n      0x14\n        /* \"DripWarrior/checckUpKep_flattened.sol\":9028:9045  checkOnce = false */\n      0x0100\n      exp\n      dup2\n      sload\n      dup2\n      0xff\n      mul\n      not\n      and\n      swap1\n      dup4\n      iszero\n      iszero\n      mul\n      or\n      swap1\n      sstore\n      pop\n        /* \"DripWarrior/checckUpKep_flattened.sol\":8953:9061  function off () external  onlyOwner{... */\n      jump\t// out\n        /* \"DripWarrior/checckUpKep_flattened.sol\":7419:7657  function checkUpkeep(... */\n    tag_52:\n        /* \"DripWarrior/checckUpKep_flattened.sol\":7516:7520  bool */\n      0x00\n        /* \"DripWarrior/checckUpKep_flattened.sol\":7522:7534  bytes memory */\n      0x60\n        /* \"DripWarrior/checckUpKep_flattened.sol\":7546:7562  bool needsUpkeep */\n      0x00\n        /* \"DripWarrior/checckUpKep_flattened.sol\":7601:7609  interval */\n      sload(0x02)\n        /* \"DripWarrior/checckUpKep_flattened.sol\":7584:7597  lastTimeStamp */\n      sload(0x03)\n        /* \"DripWarrior/checckUpKep_flattened.sol\":7566:7581  block.timestamp */\n      timestamp\n        /* \"DripWarrior/checckUpKep_flattened.sol\":7566:7597  block.timestamp - lastTimeStamp */\n      tag_100\n      swap2\n      swap1\n      tag_101\n      jump\t// in\n    tag_100:\n        /* \"DripWarrior/checckUpKep_flattened.sol\":7565:7609  (block.timestamp - lastTimeStamp) > interval */\n      gt\n        /* \"DripWarrior/checckUpKep_flattened.sol\":7546:7609  bool needsUpkeep = (block.timestamp - lastTimeStamp) > interval */\n      swap1\n      pop\n        /* \"DripWarrior/checckUpKep_flattened.sol\":7627:7638  needsUpkeep */\n      dup1\n        /* \"DripWarrior/checckUpKep_flattened.sol\":7640:7649  bytes(\"\") */\n      mload(0x40)\n      dup1\n      0x20\n      add\n      0x40\n      mstore\n      dup1\n      0x00\n      dup2\n      mstore\n      pop\n        /* \"DripWarrior/checckUpKep_flattened.sol\":7619:7650  return (needsUpkeep, bytes(\"\")) */\n      swap3\n      pop\n      swap3\n      pop\n      pop\n        /* \"DripWarrior/checckUpKep_flattened.sol\":7419:7657  function checkUpkeep(... */\n      swap3\n      pop\n      swap3\n      swap1\n      pop\n      jump\t// out\n        /* \"DripWarrior/checckUpKep_flattened.sol\":5677:5778  function renounceOwnership() public virtual onlyOwner {... */\n    tag_56:\n        /* \"DripWarrior/checckUpKep_flattened.sol\":4915:4928  _checkOwner() */\n      tag_103\n        /* \"DripWarrior/checckUpKep_flattened.sol\":4915:4926  _checkOwner */\n      tag_90\n        /* \"DripWarrior/checckUpKep_flattened.sol\":4915:4928  _checkOwner() */\n      jump\t// in\n    tag_103:\n        /* \"DripWarrior/checckUpKep_flattened.sol\":5741:5771  _transferOwnership(address(0)) */\n      tag_105\n        /* \"DripWarrior/checckUpKep_flattened.sol\":5768:5769  0 */\n      0x00\n        /* \"DripWarrior/checckUpKep_flattened.sol\":5741:5759  _transferOwnership */\n      tag_106\n        /* \"DripWarrior/checckUpKep_flattened.sol\":5741:5771  _transferOwnership(address(0)) */\n      jump\t// in\n    tag_105:\n        /* \"DripWarrior/checckUpKep_flattened.sol\":5677:5778  function renounceOwnership() public virtual onlyOwner {... */\n      jump\t// out\n        /* \"DripWarrior/checckUpKep_flattened.sol\":5022:5107  function owner() public view virtual returns (address) {... */\n    tag_58:\n        /* \"DripWarrior/checckUpKep_flattened.sol\":5068:5075  address */\n      0x00\n        /* \"DripWarrior/checckUpKep_flattened.sol\":5094:5100  _owner */\n      dup1\n      0x00\n      swap1\n      sload\n      swap1\n      0x0100\n      exp\n      swap1\n      div\n      0xffffffffffffffffffffffffffffffffffffffff\n      and\n        /* \"DripWarrior/checckUpKep_flattened.sol\":5087:5100  return _owner */\n      swap1\n      pop\n        /* \"DripWarrior/checckUpKep_flattened.sol\":5022:5107  function owner() public view virtual returns (address) {... */\n      swap1\n      jump\t// out\n        /* \"DripWarrior/checckUpKep_flattened.sol\":7009:7032  uint256 public interval */\n    tag_61:\n      sload(0x02)\n      dup2\n      jump\t// out\n        /* \"DripWarrior/checckUpKep_flattened.sol\":9721:9820  function doWee() public {... */\n    tag_64:\n        /* \"DripWarrior/checckUpKep_flattened.sol\":9759:9768  checkOnce */\n      0x04\n      0x14\n      swap1\n      sload\n      swap1\n      0x0100\n      exp\n      swap1\n      div\n      0xff\n      and\n        /* \"DripWarrior/checckUpKep_flattened.sol\":9755:9814  if(!checkOnce){... */\n      tag_109\n      jumpi\n        /* \"DripWarrior/checckUpKep_flattened.sol\":9799:9803  true */\n      0x01\n        /* \"DripWarrior/checckUpKep_flattened.sol\":9787:9796  checkOnce */\n      0x04\n      0x14\n        /* \"DripWarrior/checckUpKep_flattened.sol\":9787:9803  checkOnce = true */\n      0x0100\n      exp\n      dup2\n      sload\n      dup2\n      0xff\n      mul\n      not\n      and\n      swap1\n      dup4\n      iszero\n      iszero\n      mul\n      or\n      swap1\n      sstore\n      pop\n        /* \"DripWarrior/checckUpKep_flattened.sol\":9755:9814  if(!checkOnce){... */\n    tag_109:\n        /* \"DripWarrior/checckUpKep_flattened.sol\":9721:9820  function doWee() public {... */\n      jump\t// out\n        /* \"DripWarrior/checckUpKep_flattened.sol\":9440:9568  function setForwarderAddress(address forwarderAddress) external onlyOwner {... */\n    tag_68:\n        /* \"DripWarrior/checckUpKep_flattened.sol\":4915:4928  _checkOwner() */\n      tag_111\n        /* \"DripWarrior/checckUpKep_flattened.sol\":4915:4926  _checkOwner */\n      tag_90\n        /* \"DripWarrior/checckUpKep_flattened.sol\":4915:4928  _checkOwner() */\n      jump\t// in\n    tag_111:\n        /* \"DripWarrior/checckUpKep_flattened.sol\":9545:9561  forwarderAddress */\n      dup1\n        /* \"DripWarrior/checckUpKep_flattened.sol\":9524:9542  s_forwarderAddress */\n      0x04\n      0x00\n        /* \"DripWarrior/checckUpKep_flattened.sol\":9524:9561  s_forwarderAddress = forwarderAddress */\n      0x0100\n      exp\n      dup2\n      sload\n      dup2\n      0xffffffffffffffffffffffffffffffffffffffff\n      mul\n      not\n      and\n      swap1\n      dup4\n      0xffffffffffffffffffffffffffffffffffffffff\n      and\n      mul\n      or\n      swap1\n      sstore\n      pop\n        /* \"DripWarrior/checckUpKep_flattened.sol\":9440:9568  function setForwarderAddress(address forwarderAddress) external onlyOwner {... */\n      pop\n      jump\t// out\n        /* \"DripWarrior/checckUpKep_flattened.sol\":9067:9275  function weeklyTransfer() public {... */\n    tag_70:\n        /* \"DripWarrior/checckUpKep_flattened.sol\":9145:9163  s_forwarderAddress */\n      0x04\n      0x00\n      swap1\n      sload\n      swap1\n      0x0100\n      exp\n      swap1\n      div\n      0xffffffffffffffffffffffffffffffffffffffff\n      and\n        /* \"DripWarrior/checckUpKep_flattened.sol\":9131:9163  msg.sender == s_forwarderAddress */\n      0xffffffffffffffffffffffffffffffffffffffff\n      and\n        /* \"DripWarrior/checckUpKep_flattened.sol\":9131:9141  msg.sender */\n      caller\n        /* \"DripWarrior/checckUpKep_flattened.sol\":9131:9163  msg.sender == s_forwarderAddress */\n      0xffffffffffffffffffffffffffffffffffffffff\n      and\n      eq\n        /* \"DripWarrior/checckUpKep_flattened.sol\":9110:9248  require(... */\n      tag_114\n      jumpi\n      mload(0x40)\n      0x08c379a000000000000000000000000000000000000000000000000000000000\n      dup2\n      mstore\n      0x04\n      add\n      tag_115\n      swap1\n      tag_77\n      jump\t// in\n    tag_115:\n      mload(0x40)\n      dup1\n      swap2\n      sub\n      swap1\n      revert\n    tag_114:\n        /* \"DripWarrior/checckUpKep_flattened.sol\":9258:9265  counter */\n      0x01\n      0x00\n        /* \"DripWarrior/checckUpKep_flattened.sol\":9258:9268  counter ++ */\n      dup2\n      sload\n      dup1\n      swap3\n      swap2\n      swap1\n      tag_116\n      swap1\n      tag_117\n      jump\t// in\n    tag_116:\n      swap2\n      swap1\n      pop\n      sstore\n      pop\n        /* \"DripWarrior/checckUpKep_flattened.sol\":9067:9275  function weeklyTransfer() public {... */\n      jump\t// out\n        /* \"DripWarrior/checckUpKep_flattened.sol\":5927:6142  function transferOwnership(address newOwner) public virtual onlyOwner {... */\n    tag_73:\n        /* \"DripWarrior/checckUpKep_flattened.sol\":4915:4928  _checkOwner() */\n      tag_119\n        /* \"DripWarrior/checckUpKep_flattened.sol\":4915:4926  _checkOwner */\n      tag_90\n        /* \"DripWarrior/checckUpKep_flattened.sol\":4915:4928  _checkOwner() */\n      jump\t// in\n    tag_119:\n        /* \"DripWarrior/checckUpKep_flattened.sol\":6031:6032  0 */\n      0x00\n        /* \"DripWarrior/checckUpKep_flattened.sol\":6011:6033  newOwner == address(0) */\n      0xffffffffffffffffffffffffffffffffffffffff\n      and\n        /* \"DripWarrior/checckUpKep_flattened.sol\":6011:6019  newOwner */\n      dup2\n        /* \"DripWarrior/checckUpKep_flattened.sol\":6011:6033  newOwner == address(0) */\n      0xffffffffffffffffffffffffffffffffffffffff\n      and\n      sub\n        /* \"DripWarrior/checckUpKep_flattened.sol\":6007:6098  if (newOwner == address(0)) {... */\n      tag_121\n      jumpi\n        /* \"DripWarrior/checckUpKep_flattened.sol\":6084:6085  0 */\n      0x00\n        /* \"DripWarrior/checckUpKep_flattened.sol\":6056:6087  OwnableInvalidOwner(address(0)) */\n      mload(0x40)\n      0x1e4fbdf700000000000000000000000000000000000000000000000000000000\n      dup2\n      mstore\n      0x04\n      add\n      tag_122\n      swap2\n      swap1\n      tag_25\n      jump\t// in\n    tag_122:\n      mload(0x40)\n      dup1\n      swap2\n      sub\n      swap1\n      revert\n        /* \"DripWarrior/checckUpKep_flattened.sol\":6007:6098  if (newOwner == address(0)) {... */\n    tag_121:\n        /* \"DripWarrior/checckUpKep_flattened.sol\":6107:6135  _transferOwnership(newOwner) */\n      tag_123\n        /* \"DripWarrior/checckUpKep_flattened.sol\":6126:6134  newOwner */\n      dup2\n        /* \"DripWarrior/checckUpKep_flattened.sol\":6107:6125  _transferOwnership */\n      tag_106\n        /* \"DripWarrior/checckUpKep_flattened.sol\":6107:6135  _transferOwnership(newOwner) */\n      jump\t// in\n    tag_123:\n        /* \"DripWarrior/checckUpKep_flattened.sol\":5927:6142  function transferOwnership(address newOwner) public virtual onlyOwner {... */\n      pop\n      jump\t// out\n        /* \"DripWarrior/checckUpKep_flattened.sol\":5180:5342  function _checkOwner() internal view virtual {... */\n    tag_90:\n        /* \"DripWarrior/checckUpKep_flattened.sol\":5250:5262  _msgSender() */\n      tag_125\n        /* \"DripWarrior/checckUpKep_flattened.sol\":5250:5260  _msgSender */\n      tag_126\n        /* \"DripWarrior/checckUpKep_flattened.sol\":5250:5262  _msgSender() */\n      jump\t// in\n    tag_125:\n        /* \"DripWarrior/checckUpKep_flattened.sol\":5239:5262  owner() != _msgSender() */\n      0xffffffffffffffffffffffffffffffffffffffff\n      and\n        /* \"DripWarrior/checckUpKep_flattened.sol\":5239:5246  owner() */\n      tag_127\n        /* \"DripWarrior/checckUpKep_flattened.sol\":5239:5244  owner */\n      tag_58\n        /* \"DripWarrior/checckUpKep_flattened.sol\":5239:5246  owner() */\n      jump\t// in\n    tag_127:\n        /* \"DripWarrior/checckUpKep_flattened.sol\":5239:5262  owner() != _msgSender() */\n      0xffffffffffffffffffffffffffffffffffffffff\n      and\n      eq\n        /* \"DripWarrior/checckUpKep_flattened.sol\":5235:5336  if (owner() != _msgSender()) {... */\n      tag_128\n      jumpi\n        /* \"DripWarrior/checckUpKep_flattened.sol\":5312:5324  _msgSender() */\n      tag_129\n        /* \"DripWarrior/checckUpKep_flattened.sol\":5312:5322  _msgSender */\n      tag_126\n        /* \"DripWarrior/checckUpKep_flattened.sol\":5312:5324  _msgSender() */\n      jump\t// in\n    tag_129:\n        /* \"DripWarrior/checckUpKep_flattened.sol\":5285:5325  OwnableUnauthorizedAccount(_msgSender()) */\n      mload(0x40)\n      0x118cdaa700000000000000000000000000000000000000000000000000000000\n      dup2\n      mstore\n      0x04\n      add\n      tag_130\n      swap2\n      swap1\n      tag_25\n      jump\t// in\n    tag_130:\n      mload(0x40)\n      dup1\n      swap2\n      sub\n      swap1\n      revert\n        /* \"DripWarrior/checckUpKep_flattened.sol\":5235:5336  if (owner() != _msgSender()) {... */\n    tag_128:\n        /* \"DripWarrior/checckUpKep_flattened.sol\":5180:5342  function _checkOwner() internal view virtual {... */\n      jump\t// out\n        /* \"DripWarrior/checckUpKep_flattened.sol\":6296:6483  function _transferOwnership(address newOwner) internal virtual {... */\n    tag_106:\n        /* \"DripWarrior/checckUpKep_flattened.sol\":6369:6385  address oldOwner */\n      0x00\n        /* \"DripWarrior/checckUpKep_flattened.sol\":6388:6394  _owner */\n      dup1\n      0x00\n      swap1\n      sload\n      swap1\n      0x0100\n      exp\n      swap1\n      div\n      0xffffffffffffffffffffffffffffffffffffffff\n      and\n        /* \"DripWarrior/checckUpKep_flattened.sol\":6369:6394  address oldOwner = _owner */\n      swap1\n      pop\n        /* \"DripWarrior/checckUpKep_flattened.sol\":6413:6421  newOwner */\n      dup2\n        /* \"DripWarrior/checckUpKep_flattened.sol\":6404:6410  _owner */\n      0x00\n      dup1\n        /* \"DripWarrior/checckUpKep_flattened.sol\":6404:6421  _owner = newOwner */\n      0x0100\n      exp\n      dup2\n      sload\n      dup2\n      0xffffffffffffffffffffffffffffffffffffffff\n      mul\n      not\n      and\n      swap1\n      dup4\n      0xffffffffffffffffffffffffffffffffffffffff\n      and\n      mul\n      or\n      swap1\n      sstore\n      pop\n        /* \"DripWarrior/checckUpKep_flattened.sol\":6467:6475  newOwner */\n      dup2\n        /* \"DripWarrior/checckUpKep_flattened.sol\":6436:6476  OwnershipTransferred(oldOwner, newOwner) */\n      0xffffffffffffffffffffffffffffffffffffffff\n      and\n        /* \"DripWarrior/checckUpKep_flattened.sol\":6457:6465  oldOwner */\n      dup2\n        /* \"DripWarrior/checckUpKep_flattened.sol\":6436:6476  OwnershipTransferred(oldOwner, newOwner) */\n      0xffffffffffffffffffffffffffffffffffffffff\n      and\n      0x8be0079c531659141344cd1fd0a4f28419497f9722a3daafe3b4186f6b6457e0\n      mload(0x40)\n      mload(0x40)\n      dup1\n      swap2\n      sub\n      swap1\n      log3\n        /* \"DripWarrior/checckUpKep_flattened.sol\":6359:6483  {... */\n      pop\n        /* \"DripWarrior/checckUpKep_flattened.sol\":6296:6483  function _transferOwnership(address newOwner) internal virtual {... */\n      pop\n      jump\t// out\n        /* \"DripWarrior/checckUpKep_flattened.sol\":3100:3196  function _msgSender() internal view virtual returns (address) {... */\n    tag_126:\n        /* \"DripWarrior/checckUpKep_flattened.sol\":3153:3160  address */\n      0x00\n        /* \"DripWarrior/checckUpKep_flattened.sol\":3179:3189  msg.sender */\n      caller\n        /* \"DripWarrior/checckUpKep_flattened.sol\":3172:3189  return msg.sender */\n      swap1\n      pop\n        /* \"DripWarrior/checckUpKep_flattened.sol\":3100:3196  function _msgSender() internal view virtual returns (address) {... */\n      swap1\n      jump\t// out\n        /* \"#utility.yul\":7:133   */\n    tag_133:\n        /* \"#utility.yul\":44:51   */\n      0x00\n        /* \"#utility.yul\":84:126   */\n      0xffffffffffffffffffffffffffffffffffffffff\n        /* \"#utility.yul\":77:82   */\n      dup3\n        /* \"#utility.yul\":73:127   */\n      and\n        /* \"#utility.yul\":62:127   */\n      swap1\n      pop\n        /* \"#utility.yul\":7:133   */\n      swap2\n      swap1\n      pop\n      jump\t// out\n        /* \"#utility.yul\":139:235   */\n    tag_134:\n        /* \"#utility.yul\":176:183   */\n      0x00\n        /* \"#utility.yul\":205:229   */\n      tag_163\n        /* \"#utility.yul\":223:228   */\n      dup3\n        /* \"#utility.yul\":205:229   */\n      tag_133\n      jump\t// in\n    tag_163:\n        /* \"#utility.yul\":194:229   */\n      swap1\n      pop\n        /* \"#utility.yul\":139:235   */\n      swap2\n      swap1\n      pop\n      jump\t// out\n        /* \"#utility.yul\":241:359   */\n    tag_135:\n        /* \"#utility.yul\":328:352   */\n      tag_165\n        /* \"#utility.yul\":346:351   */\n      dup2\n        /* \"#utility.yul\":328:352   */\n      tag_134\n      jump\t// in\n    tag_165:\n        /* \"#utility.yul\":323:326   */\n      dup3\n        /* \"#utility.yul\":316:353   */\n      mstore\n        /* \"#utility.yul\":241:359   */\n      pop\n      pop\n      jump\t// out\n        /* \"#utility.yul\":365:587   */\n    tag_25:\n        /* \"#utility.yul\":458:462   */\n      0x00\n        /* \"#utility.yul\":496:498   */\n      0x20\n        /* \"#utility.yul\":485:494   */\n      dup3\n        /* \"#utility.yul\":481:499   */\n      add\n        /* \"#utility.yul\":473:499   */\n      swap1\n      pop\n        /* \"#utility.yul\":509:580   */\n      tag_167\n        /* \"#utility.yul\":577:578   */\n      0x00\n        /* \"#utility.yul\":566:575   */\n      dup4\n        /* \"#utility.yul\":562:579   */\n      add\n        /* \"#utility.yul\":553:559   */\n      dup5\n        /* \"#utility.yul\":509:580   */\n      tag_135\n      jump\t// in\n    tag_167:\n        /* \"#utility.yul\":365:587   */\n      swap3\n      swap2\n      pop\n      pop\n      jump\t// out\n        /* \"#utility.yul\":593:683   */\n    tag_136:\n        /* \"#utility.yul\":627:634   */\n      0x00\n        /* \"#utility.yul\":670:675   */\n      dup2\n        /* \"#utility.yul\":663:676   */\n      iszero\n        /* \"#utility.yul\":656:677   */\n      iszero\n        /* \"#utility.yul\":645:677   */\n      swap1\n      pop\n        /* \"#utility.yul\":593:683   */\n      swap2\n      swap1\n      pop\n      jump\t// out\n        /* \"#utility.yul\":689:798   */\n    tag_137:\n        /* \"#utility.yul\":770:791   */\n      tag_170\n        /* \"#utility.yul\":785:790   */\n      dup2\n        /* \"#utility.yul\":770:791   */\n      tag_136\n      jump\t// in\n    tag_170:\n        /* \"#utility.yul\":765:768   */\n      dup3\n        /* \"#utility.yul\":758:792   */\n      mstore\n        /* \"#utility.yul\":689:798   */\n      pop\n      pop\n      jump\t// out\n        /* \"#utility.yul\":804:1014   */\n    tag_29:\n        /* \"#utility.yul\":891:895   */\n      0x00\n        /* \"#utility.yul\":929:931   */\n      0x20\n        /* \"#utility.yul\":918:927   */\n      dup3\n        /* \"#utility.yul\":914:932   */\n      add\n        /* \"#utility.yul\":906:932   */\n      swap1\n      pop\n        /* \"#utility.yul\":942:1007   */\n      tag_172\n        /* \"#utility.yul\":1004:1005   */\n      0x00\n        /* \"#utility.yul\":993:1002   */\n      dup4\n        /* \"#utility.yul\":989:1006   */\n      add\n        /* \"#utility.yul\":980:986   */\n      dup5\n        /* \"#utility.yul\":942:1007   */\n      tag_137\n      jump\t// in\n    tag_172:\n        /* \"#utility.yul\":804:1014   */\n      swap3\n      swap2\n      pop\n      pop\n      jump\t// out\n        /* \"#utility.yul\":1020:1097   */\n    tag_138:\n        /* \"#utility.yul\":1057:1064   */\n      0x00\n        /* \"#utility.yul\":1086:1091   */\n      dup2\n        /* \"#utility.yul\":1075:1091   */\n      swap1\n      pop\n        /* \"#utility.yul\":1020:1097   */\n      swap2\n      swap1\n      pop\n      jump\t// out\n        /* \"#utility.yul\":1103:1221   */\n    tag_139:\n        /* \"#utility.yul\":1190:1214   */\n      tag_175\n        /* \"#utility.yul\":1208:1213   */\n      dup2\n        /* \"#utility.yul\":1190:1214   */\n      tag_138\n      jump\t// in\n    tag_175:\n        /* \"#utility.yul\":1185:1188   */\n      dup3\n        /* \"#utility.yul\":1178:1215   */\n      mstore\n        /* \"#utility.yul\":1103:1221   */\n      pop\n      pop\n      jump\t// out\n        /* \"#utility.yul\":1227:1449   */\n    tag_33:\n        /* \"#utility.yul\":1320:1324   */\n      0x00\n        /* \"#utility.yul\":1358:1360   */\n      0x20\n        /* \"#utility.yul\":1347:1356   */\n      dup3\n        /* \"#utility.yul\":1343:1361   */\n      add\n        /* \"#utility.yul\":1335:1361   */\n      swap1\n      pop\n        /* \"#utility.yul\":1371:1442   */\n      tag_177\n        /* \"#utility.yul\":1439:1440   */\n      0x00\n        /* \"#utility.yul\":1428:1437   */\n      dup4\n        /* \"#utility.yul\":1424:1441   */\n      add\n        /* \"#utility.yul\":1415:1421   */\n      dup5\n        /* \"#utility.yul\":1371:1442   */\n      tag_139\n      jump\t// in\n    tag_177:\n        /* \"#utility.yul\":1227:1449   */\n      swap3\n      swap2\n      pop\n      pop\n      jump\t// out\n        /* \"#utility.yul\":1536:1653   */\n    tag_141:\n        /* \"#utility.yul\":1645:1646   */\n      0x00\n        /* \"#utility.yul\":1642:1643   */\n      dup1\n        /* \"#utility.yul\":1635:1647   */\n      revert\n        /* \"#utility.yul\":1659:1776   */\n    tag_142:\n        /* \"#utility.yul\":1768:1769   */\n      0x00\n        /* \"#utility.yul\":1765:1766   */\n      dup1\n        /* \"#utility.yul\":1758:1770   */\n      revert\n        /* \"#utility.yul\":1782:1899   */\n    tag_143:\n        /* \"#utility.yul\":1891:1892   */\n      0x00\n        /* \"#utility.yul\":1888:1889   */\n      dup1\n        /* \"#utility.yul\":1881:1893   */\n      revert\n        /* \"#utility.yul\":1905:2022   */\n    tag_144:\n        /* \"#utility.yul\":2014:2015   */\n      0x00\n        /* \"#utility.yul\":2011:2012   */\n      dup1\n        /* \"#utility.yul\":2004:2016   */\n      revert\n        /* \"#utility.yul\":2028:2145   */\n    tag_145:\n        /* \"#utility.yul\":2137:2138   */\n      0x00\n        /* \"#utility.yul\":2134:2135   */\n      dup1\n        /* \"#utility.yul\":2127:2139   */\n      revert\n        /* \"#utility.yul\":2164:2716   */\n    tag_146:\n        /* \"#utility.yul\":2221:2229   */\n      0x00\n        /* \"#utility.yul\":2231:2237   */\n      dup1\n        /* \"#utility.yul\":2281:2284   */\n      dup4\n        /* \"#utility.yul\":2274:2278   */\n      0x1f\n        /* \"#utility.yul\":2266:2272   */\n      dup5\n        /* \"#utility.yul\":2262:2279   */\n      add\n        /* \"#utility.yul\":2258:2285   */\n      slt\n        /* \"#utility.yul\":2248:2370   */\n      tag_185\n      jumpi\n        /* \"#utility.yul\":2289:2368   */\n      tag_186\n      tag_143\n      jump\t// in\n    tag_186:\n        /* \"#utility.yul\":2248:2370   */\n    tag_185:\n        /* \"#utility.yul\":2402:2408   */\n      dup3\n        /* \"#utility.yul\":2389:2409   */\n      calldataload\n        /* \"#utility.yul\":2379:2409   */\n      swap1\n      pop\n        /* \"#utility.yul\":2432:2450   */\n      0xffffffffffffffff\n        /* \"#utility.yul\":2424:2430   */\n      dup2\n        /* \"#utility.yul\":2421:2451   */\n      gt\n        /* \"#utility.yul\":2418:2535   */\n      iszero\n      tag_187\n      jumpi\n        /* \"#utility.yul\":2454:2533   */\n      tag_188\n      tag_144\n      jump\t// in\n    tag_188:\n        /* \"#utility.yul\":2418:2535   */\n    tag_187:\n        /* \"#utility.yul\":2568:2572   */\n      0x20\n        /* \"#utility.yul\":2560:2566   */\n      dup4\n        /* \"#utility.yul\":2556:2573   */\n      add\n        /* \"#utility.yul\":2544:2573   */\n      swap2\n      pop\n        /* \"#utility.yul\":2622:2625   */\n      dup4\n        /* \"#utility.yul\":2614:2618   */\n      0x01\n        /* \"#utility.yul\":2606:2612   */\n      dup3\n        /* \"#utility.yul\":2602:2619   */\n      mul\n        /* \"#utility.yul\":2592:2600   */\n      dup4\n        /* \"#utility.yul\":2588:2620   */\n      add\n        /* \"#utility.yul\":2585:2626   */\n      gt\n        /* \"#utility.yul\":2582:2710   */\n      iszero\n      tag_189\n      jumpi\n        /* \"#utility.yul\":2629:2708   */\n      tag_190\n      tag_145\n      jump\t// in\n    tag_190:\n        /* \"#utility.yul\":2582:2710   */\n    tag_189:\n        /* \"#utility.yul\":2164:2716   */\n      swap3\n      pop\n      swap3\n      swap1\n      pop\n      jump\t// out\n        /* \"#utility.yul\":2722:3249   */\n    tag_39:\n        /* \"#utility.yul\":2792:2798   */\n      0x00\n        /* \"#utility.yul\":2800:2806   */\n      dup1\n        /* \"#utility.yul\":2849:2851   */\n      0x20\n        /* \"#utility.yul\":2837:2846   */\n      dup4\n        /* \"#utility.yul\":2828:2835   */\n      dup6\n        /* \"#utility.yul\":2824:2847   */\n      sub\n        /* \"#utility.yul\":2820:2852   */\n      slt\n        /* \"#utility.yul\":2817:2936   */\n      iszero\n      tag_192\n      jumpi\n        /* \"#utility.yul\":2855:2934   */\n      tag_193\n      tag_141\n      jump\t// in\n    tag_193:\n        /* \"#utility.yul\":2817:2936   */\n    tag_192:\n        /* \"#utility.yul\":3003:3004   */\n      0x00\n        /* \"#utility.yul\":2992:3001   */\n      dup4\n        /* \"#utility.yul\":2988:3005   */\n      add\n        /* \"#utility.yul\":2975:3006   */\n      calldataload\n        /* \"#utility.yul\":3033:3051   */\n      0xffffffffffffffff\n        /* \"#utility.yul\":3025:3031   */\n      dup2\n        /* \"#utility.yul\":3022:3052   */\n      gt\n        /* \"#utility.yul\":3019:3136   */\n      iszero\n      tag_194\n      jumpi\n        /* \"#utility.yul\":3055:3134   */\n      tag_195\n      tag_142\n      jump\t// in\n    tag_195:\n        /* \"#utility.yul\":3019:3136   */\n    tag_194:\n        /* \"#utility.yul\":3168:3232   */\n      tag_196\n        /* \"#utility.yul\":3224:3231   */\n      dup6\n        /* \"#utility.yul\":3215:3221   */\n      dup3\n        /* \"#utility.yul\":3204:3213   */\n      dup7\n        /* \"#utility.yul\":3200:3222   */\n      add\n        /* \"#utility.yul\":3168:3232   */\n      tag_146\n      jump\t// in\n    tag_196:\n        /* \"#utility.yul\":3150:3232   */\n      swap3\n      pop\n      swap3\n      pop\n        /* \"#utility.yul\":2946:3242   */\n      pop\n        /* \"#utility.yul\":2722:3249   */\n      swap3\n      pop\n      swap3\n      swap1\n      pop\n      jump\t// out\n        /* \"#utility.yul\":3255:3377   */\n    tag_147:\n        /* \"#utility.yul\":3328:3352   */\n      tag_198\n        /* \"#utility.yul\":3346:3351   */\n      dup2\n        /* \"#utility.yul\":3328:3352   */\n      tag_138\n      jump\t// in\n    tag_198:\n        /* \"#utility.yul\":3321:3326   */\n      dup2\n        /* \"#utility.yul\":3318:3353   */\n      eq\n        /* \"#utility.yul\":3308:3371   */\n      tag_199\n      jumpi\n        /* \"#utility.yul\":3367:3368   */\n      0x00\n        /* \"#utility.yul\":3364:3365   */\n      dup1\n        /* \"#utility.yul\":3357:3369   */\n      revert\n        /* \"#utility.yul\":3308:3371   */\n    tag_199:\n        /* \"#utility.yul\":3255:3377   */\n      pop\n      jump\t// out\n        /* \"#utility.yul\":3383:3522   */\n    tag_148:\n        /* \"#utility.yul\":3429:3434   */\n      0x00\n        /* \"#utility.yul\":3467:3473   */\n      dup2\n        /* \"#utility.yul\":3454:3474   */\n      calldataload\n        /* \"#utility.yul\":3445:3474   */\n      swap1\n      pop\n        /* \"#utility.yul\":3483:3516   */\n      tag_201\n        /* \"#utility.yul\":3510:3515   */\n      dup2\n        /* \"#utility.yul\":3483:3516   */\n      tag_147\n      jump\t// in\n    tag_201:\n        /* \"#utility.yul\":3383:3522   */\n      swap3\n      swap2\n      pop\n      pop\n      jump\t// out\n        /* \"#utility.yul\":3528:4002   */\n    tag_43:\n        /* \"#utility.yul\":3596:3602   */\n      0x00\n        /* \"#utility.yul\":3604:3610   */\n      dup1\n        /* \"#utility.yul\":3653:3655   */\n      0x40\n        /* \"#utility.yul\":3641:3650   */\n      dup4\n        /* \"#utility.yul\":3632:3639   */\n      dup6\n        /* \"#utility.yul\":3628:3651   */\n      sub\n        /* \"#utility.yul\":3624:3656   */\n      slt\n        /* \"#utility.yul\":3621:3740   */\n      iszero\n      tag_203\n      jumpi\n        /* \"#utility.yul\":3659:3738   */\n      tag_204\n      tag_141\n      jump\t// in\n    tag_204:\n        /* \"#utility.yul\":3621:3740   */\n    tag_203:\n        /* \"#utility.yul\":3779:3780   */\n      0x00\n        /* \"#utility.yul\":3804:3857   */\n      tag_205\n        /* \"#utility.yul\":3849:3856   */\n      dup6\n        /* \"#utility.yul\":3840:3846   */\n      dup3\n        /* \"#utility.yul\":3829:3838   */\n      dup7\n        /* \"#utility.yul\":3825:3847   */\n      add\n        /* \"#utility.yul\":3804:3857   */\n      tag_148\n      jump\t// in\n    tag_205:\n        /* \"#utility.yul\":3794:3857   */\n      swap3\n      pop\n        /* \"#utility.yul\":3750:3867   */\n      pop\n        /* \"#utility.yul\":3906:3908   */\n      0x20\n        /* \"#utility.yul\":3932:3985   */\n      tag_206\n        /* \"#utility.yul\":3977:3984   */\n      dup6\n        /* \"#utility.yul\":3968:3974   */\n      dup3\n        /* \"#utility.yul\":3957:3966   */\n      dup7\n        /* \"#utility.yul\":3953:3975   */\n      add\n        /* \"#utility.yul\":3932:3985   */\n      tag_148\n      jump\t// in\n    tag_206:\n        /* \"#utility.yul\":3922:3985   */\n      swap2\n      pop\n        /* \"#utility.yul\":3877:3995   */\n      pop\n        /* \"#utility.yul\":3528:4002   */\n      swap3\n      pop\n      swap3\n      swap1\n      pop\n      jump\t// out\n        /* \"#utility.yul\":4008:4106   */\n    tag_149:\n        /* \"#utility.yul\":4059:4065   */\n      0x00\n        /* \"#utility.yul\":4093:4098   */\n      dup2\n        /* \"#utility.yul\":4087:4099   */\n      mload\n        /* \"#utility.yul\":4077:4099   */\n      swap1\n      pop\n        /* \"#utility.yul\":4008:4106   */\n      swap2\n      swap1\n      pop\n      jump\t// out\n        /* \"#utility.yul\":4112:4280   */\n    tag_150:\n        /* \"#utility.yul\":4195:4206   */\n      0x00\n        /* \"#utility.yul\":4229:4235   */\n      dup3\n        /* \"#utility.yul\":4224:4227   */\n      dup3\n        /* \"#utility.yul\":4217:4236   */\n      mstore\n        /* \"#utility.yul\":4269:4273   */\n      0x20\n        /* \"#utility.yul\":4264:4267   */\n      dup3\n        /* \"#utility.yul\":4260:4274   */\n      add\n        /* \"#utility.yul\":4245:4274   */\n      swap1\n      pop\n        /* \"#utility.yul\":4112:4280   */\n      swap3\n      swap2\n      pop\n      pop\n      jump\t// out\n        /* \"#utility.yul\":4286:4425   */\n    tag_151:\n        /* \"#utility.yul\":4375:4381   */\n      dup3\n        /* \"#utility.yul\":4370:4373   */\n      dup2\n        /* \"#utility.yul\":4365:4368   */\n      dup4\n        /* \"#utility.yul\":4359:4382   */\n      mcopy\n        /* \"#utility.yul\":4416:4417   */\n      0x00\n        /* \"#utility.yul\":4407:4413   */\n      dup4\n        /* \"#utility.yul\":4402:4405   */\n      dup4\n        /* \"#utility.yul\":4398:4414   */\n      add\n        /* \"#utility.yul\":4391:4418   */\n      mstore\n        /* \"#utility.yul\":4286:4425   */\n      pop\n      pop\n      pop\n      jump\t// out\n        /* \"#utility.yul\":4431:4533   */\n    tag_152:\n        /* \"#utility.yul\":4472:4478   */\n      0x00\n        /* \"#utility.yul\":4523:4525   */\n      0x1f\n        /* \"#utility.yul\":4519:4526   */\n      not\n        /* \"#utility.yul\":4514:4516   */\n      0x1f\n        /* \"#utility.yul\":4507:4512   */\n      dup4\n        /* \"#utility.yul\":4503:4517   */\n      add\n        /* \"#utility.yul\":4499:4527   */\n      and\n        /* \"#utility.yul\":4489:4527   */\n      swap1\n      pop\n        /* \"#utility.yul\":4431:4533   */\n      swap2\n      swap1\n      pop\n      jump\t// out\n        /* \"#utility.yul\":4539:4912   */\n    tag_153:\n        /* \"#utility.yul\":4625:4628   */\n      0x00\n        /* \"#utility.yul\":4653:4691   */\n      tag_212\n        /* \"#utility.yul\":4685:4690   */\n      dup3\n        /* \"#utility.yul\":4653:4691   */\n      tag_149\n      jump\t// in\n    tag_212:\n        /* \"#utility.yul\":4707:4777   */\n      tag_213\n        /* \"#utility.yul\":4770:4776   */\n      dup2\n        /* \"#utility.yul\":4765:4768   */\n      dup6\n        /* \"#utility.yul\":4707:4777   */\n      tag_150\n      jump\t// in\n    tag_213:\n        /* \"#utility.yul\":4700:4777   */\n      swap4\n      pop\n        /* \"#utility.yul\":4786:4851   */\n      tag_214\n        /* \"#utility.yul\":4844:4850   */\n      dup2\n        /* \"#utility.yul\":4839:4842   */\n      dup6\n        /* \"#utility.yul\":4832:4836   */\n      0x20\n        /* \"#utility.yul\":4825:4830   */\n      dup7\n        /* \"#utility.yul\":4821:4837   */\n      add\n        /* \"#utility.yul\":4786:4851   */\n      tag_151\n      jump\t// in\n    tag_214:\n        /* \"#utility.yul\":4876:4905   */\n      tag_215\n        /* \"#utility.yul\":4898:4904   */\n      dup2\n        /* \"#utility.yul\":4876:4905   */\n      tag_152\n      jump\t// in\n    tag_215:\n        /* \"#utility.yul\":4871:4874   */\n      dup5\n        /* \"#utility.yul\":4867:4906   */\n      add\n        /* \"#utility.yul\":4860:4906   */\n      swap2\n      pop\n        /* \"#utility.yul\":4629:4912   */\n      pop\n        /* \"#utility.yul\":4539:4912   */\n      swap3\n      swap2\n      pop\n      pop\n      jump\t// out\n        /* \"#utility.yul\":4918:5325   */\n    tag_54:\n        /* \"#utility.yul\":5051:5055   */\n      0x00\n        /* \"#utility.yul\":5089:5091   */\n      0x40\n        /* \"#utility.yul\":5078:5087   */\n      dup3\n        /* \"#utility.yul\":5074:5092   */\n      add\n        /* \"#utility.yul\":5066:5092   */\n      swap1\n      pop\n        /* \"#utility.yul\":5102:5167   */\n      tag_217\n        /* \"#utility.yul\":5164:5165   */\n      0x00\n        /* \"#utility.yul\":5153:5162   */\n      dup4\n        /* \"#utility.yul\":5149:5166   */\n      add\n        /* \"#utility.yul\":5140:5146   */\n      dup6\n        /* \"#utility.yul\":5102:5167   */\n      tag_137\n      jump\t// in\n    tag_217:\n        /* \"#utility.yul\":5214:5223   */\n      dup2\n        /* \"#utility.yul\":5208:5212   */\n      dup2\n        /* \"#utility.yul\":5204:5224   */\n      sub\n        /* \"#utility.yul\":5199:5201   */\n      0x20\n        /* \"#utility.yul\":5188:5197   */\n      dup4\n        /* \"#utility.yul\":5184:5202   */\n      add\n        /* \"#utility.yul\":5177:5225   */\n      mstore\n        /* \"#utility.yul\":5242:5318   */\n      tag_218\n        /* \"#utility.yul\":5313:5317   */\n      dup2\n        /* \"#utility.yul\":5304:5310   */\n      dup5\n        /* \"#utility.yul\":5242:5318   */\n      tag_153\n      jump\t// in\n    tag_218:\n        /* \"#utility.yul\":5234:5318   */\n      swap1\n      pop\n        /* \"#utility.yul\":4918:5325   */\n      swap4\n      swap3\n      pop\n      pop\n      pop\n      jump\t// out\n        /* \"#utility.yul\":5331:5453   */\n    tag_154:\n        /* \"#utility.yul\":5404:5428   */\n      tag_220\n        /* \"#utility.yul\":5422:5427   */\n      dup2\n        /* \"#utility.yul\":5404:5428   */\n      tag_134\n      jump\t// in\n    tag_220:\n        /* \"#utility.yul\":5397:5402   */\n      dup2\n        /* \"#utility.yul\":5394:5429   */\n      eq\n        /* \"#utility.yul\":5384:5447   */\n      tag_221\n      jumpi\n        /* \"#utility.yul\":5443:5444   */\n      0x00\n        /* \"#utility.yul\":5440:5441   */\n      dup1\n        /* \"#utility.yul\":5433:5445   */\n      revert\n        /* \"#utility.yul\":5384:5447   */\n    tag_221:\n        /* \"#utility.yul\":5331:5453   */\n      pop\n      jump\t// out\n        /* \"#utility.yul\":5459:5598   */\n    tag_155:\n        /* \"#utility.yul\":5505:5510   */\n      0x00\n        /* \"#utility.yul\":5543:5549   */\n      dup2\n        /* \"#utility.yul\":5530:5550   */\n      calldataload\n        /* \"#utility.yul\":5521:5550   */\n      swap1\n      pop\n        /* \"#utility.yul\":5559:5592   */\n      tag_223\n        /* \"#utility.yul\":5586:5591   */\n      dup2\n        /* \"#utility.yul\":5559:5592   */\n      tag_154\n      jump\t// in\n    tag_223:\n        /* \"#utility.yul\":5459:5598   */\n      swap3\n      swap2\n      pop\n      pop\n      jump\t// out\n        /* \"#utility.yul\":5604:5933   */\n    tag_67:\n        /* \"#utility.yul\":5663:5669   */\n      0x00\n        /* \"#utility.yul\":5712:5714   */\n      0x20\n        /* \"#utility.yul\":5700:5709   */\n      dup3\n        /* \"#utility.yul\":5691:5698   */\n      dup5\n        /* \"#utility.yul\":5687:5710   */\n      sub\n        /* \"#utility.yul\":5683:5715   */\n      slt\n        /* \"#utility.yul\":5680:5799   */\n      iszero\n      tag_225\n      jumpi\n        /* \"#utility.yul\":5718:5797   */\n      tag_226\n      tag_141\n      jump\t// in\n    tag_226:\n        /* \"#utility.yul\":5680:5799   */\n    tag_225:\n        /* \"#utility.yul\":5838:5839   */\n      0x00\n        /* \"#utility.yul\":5863:5916   */\n      tag_227\n        /* \"#utility.yul\":5908:5915   */\n      dup5\n        /* \"#utility.yul\":5899:5905   */\n      dup3\n        /* \"#utility.yul\":5888:5897   */\n      dup6\n        /* \"#utility.yul\":5884:5906   */\n      add\n        /* \"#utility.yul\":5863:5916   */\n      tag_155\n      jump\t// in\n    tag_227:\n        /* \"#utility.yul\":5853:5916   */\n      swap2\n      pop\n        /* \"#utility.yul\":5809:5926   */\n      pop\n        /* \"#utility.yul\":5604:5933   */\n      swap3\n      swap2\n      pop\n      pop\n      jump\t// out\n        /* \"#utility.yul\":5939:6108   */\n    tag_156:\n        /* \"#utility.yul\":6023:6034   */\n      0x00\n        /* \"#utility.yul\":6057:6063   */\n      dup3\n        /* \"#utility.yul\":6052:6055   */\n      dup3\n        /* \"#utility.yul\":6045:6064   */\n      mstore\n        /* \"#utility.yul\":6097:6101   */\n      0x20\n        /* \"#utility.yul\":6092:6095   */\n      dup3\n        /* \"#utility.yul\":6088:6102   */\n      add\n        /* \"#utility.yul\":6073:6102   */\n      swap1\n      pop\n        /* \"#utility.yul\":5939:6108   */\n      swap3\n      swap2\n      pop\n      pop\n      jump\t// out\n        /* \"#utility.yul\":6114:6360   */\n    tag_157:\n        /* \"#utility.yul\":6254:6288   */\n      0x54686973206164647265737320646f6573206e6f742068617665207065726d69\n        /* \"#utility.yul\":6250:6251   */\n      0x00\n        /* \"#utility.yul\":6242:6248   */\n      dup3\n        /* \"#utility.yul\":6238:6252   */\n      add\n        /* \"#utility.yul\":6231:6289   */\n      mstore\n        /* \"#utility.yul\":6323:6352   */\n      0x7373696f6e20746f2063616c6c20706572666f726d55706b6565700000000000\n        /* \"#utility.yul\":6318:6320   */\n      0x20\n        /* \"#utility.yul\":6310:6316   */\n      dup3\n        /* \"#utility.yul\":6306:6321   */\n      add\n        /* \"#utility.yul\":6299:6353   */\n      mstore\n        /* \"#utility.yul\":6114:6360   */\n      pop\n      jump\t// out\n        /* \"#utility.yul\":6366:6732   */\n    tag_158:\n        /* \"#utility.yul\":6508:6511   */\n      0x00\n        /* \"#utility.yul\":6529:6596   */\n      tag_231\n        /* \"#utility.yul\":6593:6595   */\n      0x3b\n        /* \"#utility.yul\":6588:6591   */\n      dup4\n        /* \"#utility.yul\":6529:6596   */\n      tag_156\n      jump\t// in\n    tag_231:\n        /* \"#utility.yul\":6522:6596   */\n      swap2\n      pop\n        /* \"#utility.yul\":6605:6698   */\n      tag_232\n        /* \"#utility.yul\":6694:6697   */\n      dup3\n        /* \"#utility.yul\":6605:6698   */\n      tag_157\n      jump\t// in\n    tag_232:\n        /* \"#utility.yul\":6723:6725   */\n      0x40\n        /* \"#utility.yul\":6718:6721   */\n      dup3\n        /* \"#utility.yul\":6714:6726   */\n      add\n        /* \"#utility.yul\":6707:6726   */\n      swap1\n      pop\n        /* \"#utility.yul\":6366:6732   */\n      swap2\n      swap1\n      pop\n      jump\t// out\n        /* \"#utility.yul\":6738:7157   */\n    tag_77:\n        /* \"#utility.yul\":6904:6908   */\n      0x00\n        /* \"#utility.yul\":6942:6944   */\n      0x20\n        /* \"#utility.yul\":6931:6940   */\n      dup3\n        /* \"#utility.yul\":6927:6945   */\n      add\n        /* \"#utility.yul\":6919:6945   */\n      swap1\n      pop\n        /* \"#utility.yul\":6991:7000   */\n      dup2\n        /* \"#utility.yul\":6985:6989   */\n      dup2\n        /* \"#utility.yul\":6981:7001   */\n      sub\n        /* \"#utility.yul\":6977:6978   */\n      0x00\n        /* \"#utility.yul\":6966:6975   */\n      dup4\n        /* \"#utility.yul\":6962:6979   */\n      add\n        /* \"#utility.yul\":6955:7002   */\n      mstore\n        /* \"#utility.yul\":7019:7150   */\n      tag_234\n        /* \"#utility.yul\":7145:7149   */\n      dup2\n        /* \"#utility.yul\":7019:7150   */\n      tag_158\n      jump\t// in\n    tag_234:\n        /* \"#utility.yul\":7011:7150   */\n      swap1\n      pop\n        /* \"#utility.yul\":6738:7157   */\n      swap2\n      swap1\n      pop\n      jump\t// out\n        /* \"#utility.yul\":7163:7343   */\n    tag_159:\n        /* \"#utility.yul\":7211:7288   */\n      0x4e487b7100000000000000000000000000000000000000000000000000000000\n        /* \"#utility.yul\":7208:7209   */\n      0x00\n        /* \"#utility.yul\":7201:7289   */\n      mstore\n        /* \"#utility.yul\":7308:7312   */\n      0x11\n        /* \"#utility.yul\":7305:7306   */\n      0x04\n        /* \"#utility.yul\":7298:7313   */\n      mstore\n        /* \"#utility.yul\":7332:7336   */\n      0x24\n        /* \"#utility.yul\":7329:7330   */\n      0x00\n        /* \"#utility.yul\":7322:7337   */\n      revert\n        /* \"#utility.yul\":7349:7543   */\n    tag_101:\n        /* \"#utility.yul\":7389:7393   */\n      0x00\n        /* \"#utility.yul\":7409:7429   */\n      tag_237\n        /* \"#utility.yul\":7427:7428   */\n      dup3\n        /* \"#utility.yul\":7409:7429   */\n      tag_138\n      jump\t// in\n    tag_237:\n        /* \"#utility.yul\":7404:7429   */\n      swap2\n      pop\n        /* \"#utility.yul\":7443:7463   */\n      tag_238\n        /* \"#utility.yul\":7461:7462   */\n      dup4\n        /* \"#utility.yul\":7443:7463   */\n      tag_138\n      jump\t// in\n    tag_238:\n        /* \"#utility.yul\":7438:7463   */\n      swap3\n      pop\n        /* \"#utility.yul\":7487:7488   */\n      dup3\n        /* \"#utility.yul\":7484:7485   */\n      dup3\n        /* \"#utility.yul\":7480:7489   */\n      sub\n        /* \"#utility.yul\":7472:7489   */\n      swap1\n      pop\n        /* \"#utility.yul\":7511:7512   */\n      dup2\n        /* \"#utility.yul\":7505:7509   */\n      dup2\n        /* \"#utility.yul\":7502:7513   */\n      gt\n        /* \"#utility.yul\":7499:7536   */\n      iszero\n      tag_239\n      jumpi\n        /* \"#utility.yul\":7516:7534   */\n      tag_240\n      tag_159\n      jump\t// in\n    tag_240:\n        /* \"#utility.yul\":7499:7536   */\n    tag_239:\n        /* \"#utility.yul\":7349:7543   */\n      swap3\n      swap2\n      pop\n      pop\n      jump\t// out\n        /* \"#utility.yul\":7549:7782   */\n    tag_117:\n        /* \"#utility.yul\":7588:7591   */\n      0x00\n        /* \"#utility.yul\":7611:7635   */\n      tag_242\n        /* \"#utility.yul\":7629:7634   */\n      dup3\n        /* \"#utility.yul\":7611:7635   */\n      tag_138\n      jump\t// in\n    tag_242:\n        /* \"#utility.yul\":7602:7635   */\n      swap2\n      pop\n        /* \"#utility.yul\":7657:7723   */\n      0xffffffffffffffffffffffffffffffffffffffffffffffffffffffffffffffff\n        /* \"#utility.yul\":7650:7655   */\n      dup3\n        /* \"#utility.yul\":7647:7724   */\n      sub\n        /* \"#utility.yul\":7644:7747   */\n      tag_243\n      jumpi\n        /* \"#utility.yul\":7727:7745   */\n      tag_244\n      tag_159\n      jump\t// in\n    tag_244:\n        /* \"#utility.yul\":7644:7747   */\n    tag_243:\n        /* \"#utility.yul\":7774:7775   */\n      0x01\n        /* \"#utility.yul\":7767:7772   */\n      dup3\n        /* \"#utility.yul\":7763:7776   */\n      add\n        /* \"#utility.yul\":7756:7776   */\n      swap1\n      pop\n        /* \"#utility.yul\":7549:7782   */\n      swap2\n      swap1\n      pop\n      jump\t// out\n\n    auxdata: 0xa26469706673582212208f612ebf02bb22be173fa77fd51dae181c1455ac002984f46a6de42efe6b4aaf64736f6c634300081a0033\n}\n",
				"bytecode": {
					"linkReferences": {},
					"object": "608060405234801561000f575f80fd5b50335f73ffffffffffffffffffffffffffffffffffffffff168173ffffffffffffffffffffffffffffffffffffffff1603610081575f6040517f1e4fbdf70000000000000000000000000000000000000000000000000000000081526004016100789190610196565b60405180910390fd5b6100908161009660201b60201c565b506101af565b5f805f9054906101000a900473ffffffffffffffffffffffffffffffffffffffff169050815f806101000a81548173ffffffffffffffffffffffffffffffffffffffff021916908373ffffffffffffffffffffffffffffffffffffffff1602179055508173ffffffffffffffffffffffffffffffffffffffff168173ffffffffffffffffffffffffffffffffffffffff167f8be0079c531659141344cd1fd0a4f28419497f9722a3daafe3b4186f6b6457e060405160405180910390a35050565b5f73ffffffffffffffffffffffffffffffffffffffff82169050919050565b5f61018082610157565b9050919050565b61019081610176565b82525050565b5f6020820190506101a95f830184610187565b92915050565b610cfe806101bc5f395ff3fe608060405234801561000f575f80fd5b50600436106100fe575f3560e01c80636e04ff0d11610095578063b7106f9e11610064578063b7106f9e14610251578063d777cc6d1461025b578063e9c68e2c14610277578063f2fde38b14610281576100fe565b80636e04ff0d146101da578063715018a61461020b5780638da5cb5b14610215578063947a36fb14610233576100fe565b80634585e33b116100d15780634585e33b1461017a5780635f17e6161461019657806361bc221a146101b25780636626b26d146101d0576100fe565b80633070fbf81461010257806330e3f8f81461012057806339518b5e1461013e5780633f3b3b271461015c575b5f80fd5b61010a61029d565b60405161011791906108f7565b60405180910390f35b6101286102c2565b604051610135919061092a565b60405180910390f35b6101466102d5565b604051610153919061095b565b60405180910390f35b6101646102db565b604051610171919061095b565b60405180910390f35b610194600480360381019061018f91906109dd565b6102e1565b005b6101b060048036038101906101ab9190610a52565b610471565b005b6101ba61051b565b6040516101c7919061095b565b60405180910390f35b6101d8610521565b005b6101f460048036038101906101ef91906109dd565b61054c565b604051610202929190610b00565b60405180910390f35b610213610580565b005b61021d610593565b60405161022a91906108f7565b60405180910390f35b61023b6105ba565b604051610248919061095b565b60405180910390f35b6102596105c0565b005b61027560048036038101906102709190610b58565b6105f2565b005b61027f61063d565b005b61029b60048036038101906102969190610b58565b6106e5565b005b60045f9054906101000a900473ffffffffffffffffffffffffffffffffffffffff1681565b600460149054906101000a900460ff1681565b60055481565b60035481565b60045f9054906101000a900473ffffffffffffffffffffffffffffffffffffffff1673ffffffffffffffffffffffffffffffffffffffff163373ffffffffffffffffffffffffffffffffffffffff1614610370576040517f08c379a000000000000000000000000000000000000000000000000000000000815260040161036790610c03565b60405180910390fd5b5f600254036103b8576002546040517f715400070000000000000000000000000000000000000000000000000000000081526004016103af919061095b565b60405180910390fd5b600460149054906101000a900460ff1661042d5760055442106103e957426003819055506103e461063d565b610428565b6005546040517f54593e7500000000000000000000000000000000000000000000000000000000815260040161041f919061095b565b60405180910390fd5b61043d565b4260038190555061043c61063d565b5b600460149054906101000a900460ff1661046d576001600460146101000a81548160ff0219169083151502179055505b5050565b610479610769565b5f81116104bd57806040517f715400070000000000000000000000000000000000000000000000000000000081526004016104b4919061095b565b60405180910390fd5b4282101561050257816040517f54593e750000000000000000000000000000000000000000000000000000000081526004016104f9919061095b565b60405180910390fd5b8060028190555081600581905550426003819055505050565b60015481565b610529610769565b5f6002819055505f600460146101000a81548160ff021916908315150217905550565b5f60605f600254600354426105619190610c4e565b1190508060405180602001604052805f81525092509250509250929050565b610588610769565b6105915f6107f0565b565b5f805f9054906101000a900473ffffffffffffffffffffffffffffffffffffffff16905090565b60025481565b600460149054906101000a900460ff166105f0576001600460146101000a81548160ff0219169083151502179055505b565b6105fa610769565b8060045f6101000a81548173ffffffffffffffffffffffffffffffffffffffff021916908373ffffffffffffffffffffffffffffffffffffffff16021790555050565b60045f9054906101000a900473ffffffffffffffffffffffffffffffffffffffff1673ffffffffffffffffffffffffffffffffffffffff163373ffffffffffffffffffffffffffffffffffffffff16146106cc576040517f08c379a00000000000000000000000000000000000000000000000000000000081526004016106c390610c03565b60405180910390fd5b60015f8154809291906106de90610c81565b9190505550565b6106ed610769565b5f73ffffffffffffffffffffffffffffffffffffffff168173ffffffffffffffffffffffffffffffffffffffff160361075d575f6040517f1e4fbdf700000000000000000000000000000000000000000000000000000000815260040161075491906108f7565b60405180910390fd5b610766816107f0565b50565b6107716108b1565b73ffffffffffffffffffffffffffffffffffffffff1661078f610593565b73ffffffffffffffffffffffffffffffffffffffff16146107ee576107b26108b1565b6040517f118cdaa70000000000000000000000000000000000000000000000000000000081526004016107e591906108f7565b60405180910390fd5b565b5f805f9054906101000a900473ffffffffffffffffffffffffffffffffffffffff169050815f806101000a81548173ffffffffffffffffffffffffffffffffffffffff021916908373ffffffffffffffffffffffffffffffffffffffff1602179055508173ffffffffffffffffffffffffffffffffffffffff168173ffffffffffffffffffffffffffffffffffffffff167f8be0079c531659141344cd1fd0a4f28419497f9722a3daafe3b4186f6b6457e060405160405180910390a35050565b5f33905090565b5f73ffffffffffffffffffffffffffffffffffffffff82169050919050565b5f6108e1826108b8565b9050919050565b6108f1816108d7565b82525050565b5f60208201905061090a5f8301846108e8565b92915050565b5f8115159050919050565b61092481610910565b82525050565b5f60208201905061093d5f83018461091b565b92915050565b5f819050919050565b61095581610943565b82525050565b5f60208201905061096e5f83018461094c565b92915050565b5f80fd5b5f80fd5b5f80fd5b5f80fd5b5f80fd5b5f8083601f84011261099d5761099c61097c565b5b8235905067ffffffffffffffff8111156109ba576109b9610980565b5b6020830191508360018202830111156109d6576109d5610984565b5b9250929050565b5f80602083850312156109f3576109f2610974565b5b5f83013567ffffffffffffffff811115610a1057610a0f610978565b5b610a1c85828601610988565b92509250509250929050565b610a3181610943565b8114610a3b575f80fd5b50565b5f81359050610a4c81610a28565b92915050565b5f8060408385031215610a6857610a67610974565b5b5f610a7585828601610a3e565b9250506020610a8685828601610a3e565b9150509250929050565b5f81519050919050565b5f82825260208201905092915050565b8281835e5f83830152505050565b5f601f19601f8301169050919050565b5f610ad282610a90565b610adc8185610a9a565b9350610aec818560208601610aaa565b610af581610ab8565b840191505092915050565b5f604082019050610b135f83018561091b565b8181036020830152610b258184610ac8565b90509392505050565b610b37816108d7565b8114610b41575f80fd5b50565b5f81359050610b5281610b2e565b92915050565b5f60208284031215610b6d57610b6c610974565b5b5f610b7a84828501610b44565b91505092915050565b5f82825260208201905092915050565b7f54686973206164647265737320646f6573206e6f742068617665207065726d695f8201527f7373696f6e20746f2063616c6c20706572666f726d55706b6565700000000000602082015250565b5f610bed603b83610b83565b9150610bf882610b93565b604082019050919050565b5f6020820190508181035f830152610c1a81610be1565b9050919050565b7f4e487b71000000000000000000000000000000000000000000000000000000005f52601160045260245ffd5b5f610c5882610943565b9150610c6383610943565b9250828203905081811115610c7b57610c7a610c21565b5b92915050565b5f610c8b82610943565b91507fffffffffffffffffffffffffffffffffffffffffffffffffffffffffffffffff8203610cbd57610cbc610c21565b5b60018201905091905056fea26469706673582212208f612ebf02bb22be173fa77fd51dae181c1455ac002984f46a6de42efe6b4aaf64736f6c634300081a0033",
					"opcodes": "PUSH1 0x80 PUSH1 0x40 MSTORE CALLVALUE DUP1 ISZERO PUSH2 0xF JUMPI PUSH0 DUP1 REVERT JUMPDEST POP CALLER PUSH0 PUSH20 0xFFFFFFFFFFFFFFFFFFFFFFFFFFFFFFFFFFFFFFFF AND DUP2 PUSH20 0xFFFFFFFFFFFFFFFFFFFFFFFFFFFFFFFFFFFFFFFF AND SUB PUSH2 0x81 JUMPI PUSH0 PUSH1 0x40 MLOAD PUSH32 0x1E4FBDF700000000000000000000000000000000000000000000000000000000 DUP2 MSTORE PUSH1 0x4 ADD PUSH2 0x78 SWAP2 SWAP1 PUSH2 0x196 JUMP JUMPDEST PUSH1 0x40 MLOAD DUP1 SWAP2 SUB SWAP1 REVERT JUMPDEST PUSH2 0x90 DUP2 PUSH2 0x96 PUSH1 0x20 SHL PUSH1 0x20 SHR JUMP JUMPDEST POP PUSH2 0x1AF JUMP JUMPDEST PUSH0 DUP1 PUSH0 SWAP1 SLOAD SWAP1 PUSH2 0x100 EXP SWAP1 DIV PUSH20 0xFFFFFFFFFFFFFFFFFFFFFFFFFFFFFFFFFFFFFFFF AND SWAP1 POP DUP2 PUSH0 DUP1 PUSH2 0x100 EXP DUP2 SLOAD DUP2 PUSH20 0xFFFFFFFFFFFFFFFFFFFFFFFFFFFFFFFFFFFFFFFF MUL NOT AND SWAP1 DUP4 PUSH20 0xFFFFFFFFFFFFFFFFFFFFFFFFFFFFFFFFFFFFFFFF AND MUL OR SWAP1 SSTORE POP DUP2 PUSH20 0xFFFFFFFFFFFFFFFFFFFFFFFFFFFFFFFFFFFFFFFF AND DUP2 PUSH20 0xFFFFFFFFFFFFFFFFFFFFFFFFFFFFFFFFFFFFFFFF AND PUSH32 0x8BE0079C531659141344CD1FD0A4F28419497F9722A3DAAFE3B4186F6B6457E0 PUSH1 0x40 MLOAD PUSH1 0x40 MLOAD DUP1 SWAP2 SUB SWAP1 LOG3 POP POP JUMP JUMPDEST PUSH0 PUSH20 0xFFFFFFFFFFFFFFFFFFFFFFFFFFFFFFFFFFFFFFFF DUP3 AND SWAP1 POP SWAP2 SWAP1 POP JUMP JUMPDEST PUSH0 PUSH2 0x180 DUP3 PUSH2 0x157 JUMP JUMPDEST SWAP1 POP SWAP2 SWAP1 POP JUMP JUMPDEST PUSH2 0x190 DUP2 PUSH2 0x176 JUMP JUMPDEST DUP3 MSTORE POP POP JUMP JUMPDEST PUSH0 PUSH1 0x20 DUP3 ADD SWAP1 POP PUSH2 0x1A9 PUSH0 DUP4 ADD DUP5 PUSH2 0x187 JUMP JUMPDEST SWAP3 SWAP2 POP POP JUMP JUMPDEST PUSH2 0xCFE DUP1 PUSH2 0x1BC PUSH0 CODECOPY PUSH0 RETURN INVALID PUSH1 0x80 PUSH1 0x40 MSTORE CALLVALUE DUP1 ISZERO PUSH2 0xF JUMPI PUSH0 DUP1 REVERT JUMPDEST POP PUSH1 0x4 CALLDATASIZE LT PUSH2 0xFE JUMPI PUSH0 CALLDATALOAD PUSH1 0xE0 SHR DUP1 PUSH4 0x6E04FF0D GT PUSH2 0x95 JUMPI DUP1 PUSH4 0xB7106F9E GT PUSH2 0x64 JUMPI DUP1 PUSH4 0xB7106F9E EQ PUSH2 0x251 JUMPI DUP1 PUSH4 0xD777CC6D EQ PUSH2 0x25B JUMPI DUP1 PUSH4 0xE9C68E2C EQ PUSH2 0x277 JUMPI DUP1 PUSH4 0xF2FDE38B EQ PUSH2 0x281 JUMPI PUSH2 0xFE JUMP JUMPDEST DUP1 PUSH4 0x6E04FF0D EQ PUSH2 0x1DA JUMPI DUP1 PUSH4 0x715018A6 EQ PUSH2 0x20B JUMPI DUP1 PUSH4 0x8DA5CB5B EQ PUSH2 0x215 JUMPI DUP1 PUSH4 0x947A36FB EQ PUSH2 0x233 JUMPI PUSH2 0xFE JUMP JUMPDEST DUP1 PUSH4 0x4585E33B GT PUSH2 0xD1 JUMPI DUP1 PUSH4 0x4585E33B EQ PUSH2 0x17A JUMPI DUP1 PUSH4 0x5F17E616 EQ PUSH2 0x196 JUMPI DUP1 PUSH4 0x61BC221A EQ PUSH2 0x1B2 JUMPI DUP1 PUSH4 0x6626B26D EQ PUSH2 0x1D0 JUMPI PUSH2 0xFE JUMP JUMPDEST DUP1 PUSH4 0x3070FBF8 EQ PUSH2 0x102 JUMPI DUP1 PUSH4 0x30E3F8F8 EQ PUSH2 0x120 JUMPI DUP1 PUSH4 0x39518B5E EQ PUSH2 0x13E JUMPI DUP1 PUSH4 0x3F3B3B27 EQ PUSH2 0x15C JUMPI JUMPDEST PUSH0 DUP1 REVERT JUMPDEST PUSH2 0x10A PUSH2 0x29D JUMP JUMPDEST PUSH1 0x40 MLOAD PUSH2 0x117 SWAP2 SWAP1 PUSH2 0x8F7 JUMP JUMPDEST PUSH1 0x40 MLOAD DUP1 SWAP2 SUB SWAP1 RETURN JUMPDEST PUSH2 0x128 PUSH2 0x2C2 JUMP JUMPDEST PUSH1 0x40 MLOAD PUSH2 0x135 SWAP2 SWAP1 PUSH2 0x92A JUMP JUMPDEST PUSH1 0x40 MLOAD DUP1 SWAP2 SUB SWAP1 RETURN JUMPDEST PUSH2 0x146 PUSH2 0x2D5 JUMP JUMPDEST PUSH1 0x40 MLOAD PUSH2 0x153 SWAP2 SWAP1 PUSH2 0x95B JUMP JUMPDEST PUSH1 0x40 MLOAD DUP1 SWAP2 SUB SWAP1 RETURN JUMPDEST PUSH2 0x164 PUSH2 0x2DB JUMP JUMPDEST PUSH1 0x40 MLOAD PUSH2 0x171 SWAP2 SWAP1 PUSH2 0x95B JUMP JUMPDEST PUSH1 0x40 MLOAD DUP1 SWAP2 SUB SWAP1 RETURN JUMPDEST PUSH2 0x194 PUSH1 0x4 DUP1 CALLDATASIZE SUB DUP2 ADD SWAP1 PUSH2 0x18F SWAP2 SWAP1 PUSH2 0x9DD JUMP JUMPDEST PUSH2 0x2E1 JUMP JUMPDEST STOP JUMPDEST PUSH2 0x1B0 PUSH1 0x4 DUP1 CALLDATASIZE SUB DUP2 ADD SWAP1 PUSH2 0x1AB SWAP2 SWAP1 PUSH2 0xA52 JUMP JUMPDEST PUSH2 0x471 JUMP JUMPDEST STOP JUMPDEST PUSH2 0x1BA PUSH2 0x51B JUMP JUMPDEST PUSH1 0x40 MLOAD PUSH2 0x1C7 SWAP2 SWAP1 PUSH2 0x95B JUMP JUMPDEST PUSH1 0x40 MLOAD DUP1 SWAP2 SUB SWAP1 RETURN JUMPDEST PUSH2 0x1D8 PUSH2 0x521 JUMP JUMPDEST STOP JUMPDEST PUSH2 0x1F4 PUSH1 0x4 DUP1 CALLDATASIZE SUB DUP2 ADD SWAP1 PUSH2 0x1EF SWAP2 SWAP1 PUSH2 0x9DD JUMP JUMPDEST PUSH2 0x54C JUMP JUMPDEST PUSH1 0x40 MLOAD PUSH2 0x202 SWAP3 SWAP2 SWAP1 PUSH2 0xB00 JUMP JUMPDEST PUSH1 0x40 MLOAD DUP1 SWAP2 SUB SWAP1 RETURN JUMPDEST PUSH2 0x213 PUSH2 0x580 JUMP JUMPDEST STOP JUMPDEST PUSH2 0x21D PUSH2 0x593 JUMP JUMPDEST PUSH1 0x40 MLOAD PUSH2 0x22A SWAP2 SWAP1 PUSH2 0x8F7 JUMP JUMPDEST PUSH1 0x40 MLOAD DUP1 SWAP2 SUB SWAP1 RETURN JUMPDEST PUSH2 0x23B PUSH2 0x5BA JUMP JUMPDEST PUSH1 0x40 MLOAD PUSH2 0x248 SWAP2 SWAP1 PUSH2 0x95B JUMP JUMPDEST PUSH1 0x40 MLOAD DUP1 SWAP2 SUB SWAP1 RETURN JUMPDEST PUSH2 0x259 PUSH2 0x5C0 JUMP JUMPDEST STOP JUMPDEST PUSH2 0x275 PUSH1 0x4 DUP1 CALLDATASIZE SUB DUP2 ADD SWAP1 PUSH2 0x270 SWAP2 SWAP1 PUSH2 0xB58 JUMP JUMPDEST PUSH2 0x5F2 JUMP JUMPDEST STOP JUMPDEST PUSH2 0x27F PUSH2 0x63D JUMP JUMPDEST STOP JUMPDEST PUSH2 0x29B PUSH1 0x4 DUP1 CALLDATASIZE SUB DUP2 ADD SWAP1 PUSH2 0x296 SWAP2 SWAP1 PUSH2 0xB58 JUMP JUMPDEST PUSH2 0x6E5 JUMP JUMPDEST STOP JUMPDEST PUSH1 0x4 PUSH0 SWAP1 SLOAD SWAP1 PUSH2 0x100 EXP SWAP1 DIV PUSH20 0xFFFFFFFFFFFFFFFFFFFFFFFFFFFFFFFFFFFFFFFF AND DUP2 JUMP JUMPDEST PUSH1 0x4 PUSH1 0x14 SWAP1 SLOAD SWAP1 PUSH2 0x100 EXP SWAP1 DIV PUSH1 0xFF AND DUP2 JUMP JUMPDEST PUSH1 0x5 SLOAD DUP2 JUMP JUMPDEST PUSH1 0x3 SLOAD DUP2 JUMP JUMPDEST PUSH1 0x4 PUSH0 SWAP1 SLOAD SWAP1 PUSH2 0x100 EXP SWAP1 DIV PUSH20 0xFFFFFFFFFFFFFFFFFFFFFFFFFFFFFFFFFFFFFFFF AND PUSH20 0xFFFFFFFFFFFFFFFFFFFFFFFFFFFFFFFFFFFFFFFF AND CALLER PUSH20 0xFFFFFFFFFFFFFFFFFFFFFFFFFFFFFFFFFFFFFFFF AND EQ PUSH2 0x370 JUMPI PUSH1 0x40 MLOAD PUSH32 0x8C379A000000000000000000000000000000000000000000000000000000000 DUP2 MSTORE PUSH1 0x4 ADD PUSH2 0x367 SWAP1 PUSH2 0xC03 JUMP JUMPDEST PUSH1 0x40 MLOAD DUP1 SWAP2 SUB SWAP1 REVERT JUMPDEST PUSH0 PUSH1 0x2 SLOAD SUB PUSH2 0x3B8 JUMPI PUSH1 0x2 SLOAD PUSH1 0x40 MLOAD PUSH32 0x7154000700000000000000000000000000000000000000000000000000000000 DUP2 MSTORE PUSH1 0x4 ADD PUSH2 0x3AF SWAP2 SWAP1 PUSH2 0x95B JUMP JUMPDEST PUSH1 0x40 MLOAD DUP1 SWAP2 SUB SWAP1 REVERT JUMPDEST PUSH1 0x4 PUSH1 0x14 SWAP1 SLOAD SWAP1 PUSH2 0x100 EXP SWAP1 DIV PUSH1 0xFF AND PUSH2 0x42D JUMPI PUSH1 0x5 SLOAD TIMESTAMP LT PUSH2 0x3E9 JUMPI TIMESTAMP PUSH1 0x3 DUP2 SWAP1 SSTORE POP PUSH2 0x3E4 PUSH2 0x63D JUMP JUMPDEST PUSH2 0x428 JUMP JUMPDEST PUSH1 0x5 SLOAD PUSH1 0x40 MLOAD PUSH32 0x54593E7500000000000000000000000000000000000000000000000000000000 DUP2 MSTORE PUSH1 0x4 ADD PUSH2 0x41F SWAP2 SWAP1 PUSH2 0x95B JUMP JUMPDEST PUSH1 0x40 MLOAD DUP1 SWAP2 SUB SWAP1 REVERT JUMPDEST PUSH2 0x43D JUMP JUMPDEST TIMESTAMP PUSH1 0x3 DUP2 SWAP1 SSTORE POP PUSH2 0x43C PUSH2 0x63D JUMP JUMPDEST JUMPDEST PUSH1 0x4 PUSH1 0x14 SWAP1 SLOAD SWAP1 PUSH2 0x100 EXP SWAP1 DIV PUSH1 0xFF AND PUSH2 0x46D JUMPI PUSH1 0x1 PUSH1 0x4 PUSH1 0x14 PUSH2 0x100 EXP DUP2 SLOAD DUP2 PUSH1 0xFF MUL NOT AND SWAP1 DUP4 ISZERO ISZERO MUL OR SWAP1 SSTORE POP JUMPDEST POP POP JUMP JUMPDEST PUSH2 0x479 PUSH2 0x769 JUMP JUMPDEST PUSH0 DUP2 GT PUSH2 0x4BD JUMPI DUP1 PUSH1 0x40 MLOAD PUSH32 0x7154000700000000000000000000000000000000000000000000000000000000 DUP2 MSTORE PUSH1 0x4 ADD PUSH2 0x4B4 SWAP2 SWAP1 PUSH2 0x95B JUMP JUMPDEST PUSH1 0x40 MLOAD DUP1 SWAP2 SUB SWAP1 REVERT JUMPDEST TIMESTAMP DUP3 LT ISZERO PUSH2 0x502 JUMPI DUP2 PUSH1 0x40 MLOAD PUSH32 0x54593E7500000000000000000000000000000000000000000000000000000000 DUP2 MSTORE PUSH1 0x4 ADD PUSH2 0x4F9 SWAP2 SWAP1 PUSH2 0x95B JUMP JUMPDEST PUSH1 0x40 MLOAD DUP1 SWAP2 SUB SWAP1 REVERT JUMPDEST DUP1 PUSH1 0x2 DUP2 SWAP1 SSTORE POP DUP2 PUSH1 0x5 DUP2 SWAP1 SSTORE POP TIMESTAMP PUSH1 0x3 DUP2 SWAP1 SSTORE POP POP POP JUMP JUMPDEST PUSH1 0x1 SLOAD DUP2 JUMP JUMPDEST PUSH2 0x529 PUSH2 0x769 JUMP JUMPDEST PUSH0 PUSH1 0x2 DUP2 SWAP1 SSTORE POP PUSH0 PUSH1 0x4 PUSH1 0x14 PUSH2 0x100 EXP DUP2 SLOAD DUP2 PUSH1 0xFF MUL NOT AND SWAP1 DUP4 ISZERO ISZERO MUL OR SWAP1 SSTORE POP JUMP JUMPDEST PUSH0 PUSH1 0x60 PUSH0 PUSH1 0x2 SLOAD PUSH1 0x3 SLOAD TIMESTAMP PUSH2 0x561 SWAP2 SWAP1 PUSH2 0xC4E JUMP JUMPDEST GT SWAP1 POP DUP1 PUSH1 0x40 MLOAD DUP1 PUSH1 0x20 ADD PUSH1 0x40 MSTORE DUP1 PUSH0 DUP2 MSTORE POP SWAP3 POP SWAP3 POP POP SWAP3 POP SWAP3 SWAP1 POP JUMP JUMPDEST PUSH2 0x588 PUSH2 0x769 JUMP JUMPDEST PUSH2 0x591 PUSH0 PUSH2 0x7F0 JUMP JUMPDEST JUMP JUMPDEST PUSH0 DUP1 PUSH0 SWAP1 SLOAD SWAP1 PUSH2 0x100 EXP SWAP1 DIV PUSH20 0xFFFFFFFFFFFFFFFFFFFFFFFFFFFFFFFFFFFFFFFF AND SWAP1 POP SWAP1 JUMP JUMPDEST PUSH1 0x2 SLOAD DUP2 JUMP JUMPDEST PUSH1 0x4 PUSH1 0x14 SWAP1 SLOAD SWAP1 PUSH2 0x100 EXP SWAP1 DIV PUSH1 0xFF AND PUSH2 0x5F0 JUMPI PUSH1 0x1 PUSH1 0x4 PUSH1 0x14 PUSH2 0x100 EXP DUP2 SLOAD DUP2 PUSH1 0xFF MUL NOT AND SWAP1 DUP4 ISZERO ISZERO MUL OR SWAP1 SSTORE POP JUMPDEST JUMP JUMPDEST PUSH2 0x5FA PUSH2 0x769 JUMP JUMPDEST DUP1 PUSH1 0x4 PUSH0 PUSH2 0x100 EXP DUP2 SLOAD DUP2 PUSH20 0xFFFFFFFFFFFFFFFFFFFFFFFFFFFFFFFFFFFFFFFF MUL NOT AND SWAP1 DUP4 PUSH20 0xFFFFFFFFFFFFFFFFFFFFFFFFFFFFFFFFFFFFFFFF AND MUL OR SWAP1 SSTORE POP POP JUMP JUMPDEST PUSH1 0x4 PUSH0 SWAP1 SLOAD SWAP1 PUSH2 0x100 EXP SWAP1 DIV PUSH20 0xFFFFFFFFFFFFFFFFFFFFFFFFFFFFFFFFFFFFFFFF AND PUSH20 0xFFFFFFFFFFFFFFFFFFFFFFFFFFFFFFFFFFFFFFFF AND CALLER PUSH20 0xFFFFFFFFFFFFFFFFFFFFFFFFFFFFFFFFFFFFFFFF AND EQ PUSH2 0x6CC JUMPI PUSH1 0x40 MLOAD PUSH32 0x8C379A000000000000000000000000000000000000000000000000000000000 DUP2 MSTORE PUSH1 0x4 ADD PUSH2 0x6C3 SWAP1 PUSH2 0xC03 JUMP JUMPDEST PUSH1 0x40 MLOAD DUP1 SWAP2 SUB SWAP1 REVERT JUMPDEST PUSH1 0x1 PUSH0 DUP2 SLOAD DUP1 SWAP3 SWAP2 SWAP1 PUSH2 0x6DE SWAP1 PUSH2 0xC81 JUMP JUMPDEST SWAP2 SWAP1 POP SSTORE POP JUMP JUMPDEST PUSH2 0x6ED PUSH2 0x769 JUMP JUMPDEST PUSH0 PUSH20 0xFFFFFFFFFFFFFFFFFFFFFFFFFFFFFFFFFFFFFFFF AND DUP2 PUSH20 0xFFFFFFFFFFFFFFFFFFFFFFFFFFFFFFFFFFFFFFFF AND SUB PUSH2 0x75D JUMPI PUSH0 PUSH1 0x40 MLOAD PUSH32 0x1E4FBDF700000000000000000000000000000000000000000000000000000000 DUP2 MSTORE PUSH1 0x4 ADD PUSH2 0x754 SWAP2 SWAP1 PUSH2 0x8F7 JUMP JUMPDEST PUSH1 0x40 MLOAD DUP1 SWAP2 SUB SWAP1 REVERT JUMPDEST PUSH2 0x766 DUP2 PUSH2 0x7F0 JUMP JUMPDEST POP JUMP JUMPDEST PUSH2 0x771 PUSH2 0x8B1 JUMP JUMPDEST PUSH20 0xFFFFFFFFFFFFFFFFFFFFFFFFFFFFFFFFFFFFFFFF AND PUSH2 0x78F PUSH2 0x593 JUMP JUMPDEST PUSH20 0xFFFFFFFFFFFFFFFFFFFFFFFFFFFFFFFFFFFFFFFF AND EQ PUSH2 0x7EE JUMPI PUSH2 0x7B2 PUSH2 0x8B1 JUMP JUMPDEST PUSH1 0x40 MLOAD PUSH32 0x118CDAA700000000000000000000000000000000000000000000000000000000 DUP2 MSTORE PUSH1 0x4 ADD PUSH2 0x7E5 SWAP2 SWAP1 PUSH2 0x8F7 JUMP JUMPDEST PUSH1 0x40 MLOAD DUP1 SWAP2 SUB SWAP1 REVERT JUMPDEST JUMP JUMPDEST PUSH0 DUP1 PUSH0 SWAP1 SLOAD SWAP1 PUSH2 0x100 EXP SWAP1 DIV PUSH20 0xFFFFFFFFFFFFFFFFFFFFFFFFFFFFFFFFFFFFFFFF AND SWAP1 POP DUP2 PUSH0 DUP1 PUSH2 0x100 EXP DUP2 SLOAD DUP2 PUSH20 0xFFFFFFFFFFFFFFFFFFFFFFFFFFFFFFFFFFFFFFFF MUL NOT AND SWAP1 DUP4 PUSH20 0xFFFFFFFFFFFFFFFFFFFFFFFFFFFFFFFFFFFFFFFF AND MUL OR SWAP1 SSTORE POP DUP2 PUSH20 0xFFFFFFFFFFFFFFFFFFFFFFFFFFFFFFFFFFFFFFFF AND DUP2 PUSH20 0xFFFFFFFFFFFFFFFFFFFFFFFFFFFFFFFFFFFFFFFF AND PUSH32 0x8BE0079C531659141344CD1FD0A4F28419497F9722A3DAAFE3B4186F6B6457E0 PUSH1 0x40 MLOAD PUSH1 0x40 MLOAD DUP1 SWAP2 SUB SWAP1 LOG3 POP POP JUMP JUMPDEST PUSH0 CALLER SWAP1 POP SWAP1 JUMP JUMPDEST PUSH0 PUSH20 0xFFFFFFFFFFFFFFFFFFFFFFFFFFFFFFFFFFFFFFFF DUP3 AND SWAP1 POP SWAP2 SWAP1 POP JUMP JUMPDEST PUSH0 PUSH2 0x8E1 DUP3 PUSH2 0x8B8 JUMP JUMPDEST SWAP1 POP SWAP2 SWAP1 POP JUMP JUMPDEST PUSH2 0x8F1 DUP2 PUSH2 0x8D7 JUMP JUMPDEST DUP3 MSTORE POP POP JUMP JUMPDEST PUSH0 PUSH1 0x20 DUP3 ADD SWAP1 POP PUSH2 0x90A PUSH0 DUP4 ADD DUP5 PUSH2 0x8E8 JUMP JUMPDEST SWAP3 SWAP2 POP POP JUMP JUMPDEST PUSH0 DUP2 ISZERO ISZERO SWAP1 POP SWAP2 SWAP1 POP JUMP JUMPDEST PUSH2 0x924 DUP2 PUSH2 0x910 JUMP JUMPDEST DUP3 MSTORE POP POP JUMP JUMPDEST PUSH0 PUSH1 0x20 DUP3 ADD SWAP1 POP PUSH2 0x93D PUSH0 DUP4 ADD DUP5 PUSH2 0x91B JUMP JUMPDEST SWAP3 SWAP2 POP POP JUMP JUMPDEST PUSH0 DUP2 SWAP1 POP SWAP2 SWAP1 POP JUMP JUMPDEST PUSH2 0x955 DUP2 PUSH2 0x943 JUMP JUMPDEST DUP3 MSTORE POP POP JUMP JUMPDEST PUSH0 PUSH1 0x20 DUP3 ADD SWAP1 POP PUSH2 0x96E PUSH0 DUP4 ADD DUP5 PUSH2 0x94C JUMP JUMPDEST SWAP3 SWAP2 POP POP JUMP JUMPDEST PUSH0 DUP1 REVERT JUMPDEST PUSH0 DUP1 REVERT JUMPDEST PUSH0 DUP1 REVERT JUMPDEST PUSH0 DUP1 REVERT JUMPDEST PUSH0 DUP1 REVERT JUMPDEST PUSH0 DUP1 DUP4 PUSH1 0x1F DUP5 ADD SLT PUSH2 0x99D JUMPI PUSH2 0x99C PUSH2 0x97C JUMP JUMPDEST JUMPDEST DUP3 CALLDATALOAD SWAP1 POP PUSH8 0xFFFFFFFFFFFFFFFF DUP2 GT ISZERO PUSH2 0x9BA JUMPI PUSH2 0x9B9 PUSH2 0x980 JUMP JUMPDEST JUMPDEST PUSH1 0x20 DUP4 ADD SWAP2 POP DUP4 PUSH1 0x1 DUP3 MUL DUP4 ADD GT ISZERO PUSH2 0x9D6 JUMPI PUSH2 0x9D5 PUSH2 0x984 JUMP JUMPDEST JUMPDEST SWAP3 POP SWAP3 SWAP1 POP JUMP JUMPDEST PUSH0 DUP1 PUSH1 0x20 DUP4 DUP6 SUB SLT ISZERO PUSH2 0x9F3 JUMPI PUSH2 0x9F2 PUSH2 0x974 JUMP JUMPDEST JUMPDEST PUSH0 DUP4 ADD CALLDATALOAD PUSH8 0xFFFFFFFFFFFFFFFF DUP2 GT ISZERO PUSH2 0xA10 JUMPI PUSH2 0xA0F PUSH2 0x978 JUMP JUMPDEST JUMPDEST PUSH2 0xA1C DUP6 DUP3 DUP7 ADD PUSH2 0x988 JUMP JUMPDEST SWAP3 POP SWAP3 POP POP SWAP3 POP SWAP3 SWAP1 POP JUMP JUMPDEST PUSH2 0xA31 DUP2 PUSH2 0x943 JUMP JUMPDEST DUP2 EQ PUSH2 0xA3B JUMPI PUSH0 DUP1 REVERT JUMPDEST POP JUMP JUMPDEST PUSH0 DUP2 CALLDATALOAD SWAP1 POP PUSH2 0xA4C DUP2 PUSH2 0xA28 JUMP JUMPDEST SWAP3 SWAP2 POP POP JUMP JUMPDEST PUSH0 DUP1 PUSH1 0x40 DUP4 DUP6 SUB SLT ISZERO PUSH2 0xA68 JUMPI PUSH2 0xA67 PUSH2 0x974 JUMP JUMPDEST JUMPDEST PUSH0 PUSH2 0xA75 DUP6 DUP3 DUP7 ADD PUSH2 0xA3E JUMP JUMPDEST SWAP3 POP POP PUSH1 0x20 PUSH2 0xA86 DUP6 DUP3 DUP7 ADD PUSH2 0xA3E JUMP JUMPDEST SWAP2 POP POP SWAP3 POP SWAP3 SWAP1 POP JUMP JUMPDEST PUSH0 DUP2 MLOAD SWAP1 POP SWAP2 SWAP1 POP JUMP JUMPDEST PUSH0 DUP3 DUP3 MSTORE PUSH1 0x20 DUP3 ADD SWAP1 POP SWAP3 SWAP2 POP POP JUMP JUMPDEST DUP3 DUP2 DUP4 MCOPY PUSH0 DUP4 DUP4 ADD MSTORE POP POP POP JUMP JUMPDEST PUSH0 PUSH1 0x1F NOT PUSH1 0x1F DUP4 ADD AND SWAP1 POP SWAP2 SWAP1 POP JUMP JUMPDEST PUSH0 PUSH2 0xAD2 DUP3 PUSH2 0xA90 JUMP JUMPDEST PUSH2 0xADC DUP2 DUP6 PUSH2 0xA9A JUMP JUMPDEST SWAP4 POP PUSH2 0xAEC DUP2 DUP6 PUSH1 0x20 DUP7 ADD PUSH2 0xAAA JUMP JUMPDEST PUSH2 0xAF5 DUP2 PUSH2 0xAB8 JUMP JUMPDEST DUP5 ADD SWAP2 POP POP SWAP3 SWAP2 POP POP JUMP JUMPDEST PUSH0 PUSH1 0x40 DUP3 ADD SWAP1 POP PUSH2 0xB13 PUSH0 DUP4 ADD DUP6 PUSH2 0x91B JUMP JUMPDEST DUP2 DUP2 SUB PUSH1 0x20 DUP4 ADD MSTORE PUSH2 0xB25 DUP2 DUP5 PUSH2 0xAC8 JUMP JUMPDEST SWAP1 POP SWAP4 SWAP3 POP POP POP JUMP JUMPDEST PUSH2 0xB37 DUP2 PUSH2 0x8D7 JUMP JUMPDEST DUP2 EQ PUSH2 0xB41 JUMPI PUSH0 DUP1 REVERT JUMPDEST POP JUMP JUMPDEST PUSH0 DUP2 CALLDATALOAD SWAP1 POP PUSH2 0xB52 DUP2 PUSH2 0xB2E JUMP JUMPDEST SWAP3 SWAP2 POP POP JUMP JUMPDEST PUSH0 PUSH1 0x20 DUP3 DUP5 SUB SLT ISZERO PUSH2 0xB6D JUMPI PUSH2 0xB6C PUSH2 0x974 JUMP JUMPDEST JUMPDEST PUSH0 PUSH2 0xB7A DUP5 DUP3 DUP6 ADD PUSH2 0xB44 JUMP JUMPDEST SWAP2 POP POP SWAP3 SWAP2 POP POP JUMP JUMPDEST PUSH0 DUP3 DUP3 MSTORE PUSH1 0x20 DUP3 ADD SWAP1 POP SWAP3 SWAP2 POP POP JUMP JUMPDEST PUSH32 0x54686973206164647265737320646F6573206E6F742068617665207065726D69 PUSH0 DUP3 ADD MSTORE PUSH32 0x7373696F6E20746F2063616C6C20706572666F726D55706B6565700000000000 PUSH1 0x20 DUP3 ADD MSTORE POP JUMP JUMPDEST PUSH0 PUSH2 0xBED PUSH1 0x3B DUP4 PUSH2 0xB83 JUMP JUMPDEST SWAP2 POP PUSH2 0xBF8 DUP3 PUSH2 0xB93 JUMP JUMPDEST PUSH1 0x40 DUP3 ADD SWAP1 POP SWAP2 SWAP1 POP JUMP JUMPDEST PUSH0 PUSH1 0x20 DUP3 ADD SWAP1 POP DUP2 DUP2 SUB PUSH0 DUP4 ADD MSTORE PUSH2 0xC1A DUP2 PUSH2 0xBE1 JUMP JUMPDEST SWAP1 POP SWAP2 SWAP1 POP JUMP JUMPDEST PUSH32 0x4E487B7100000000000000000000000000000000000000000000000000000000 PUSH0 MSTORE PUSH1 0x11 PUSH1 0x4 MSTORE PUSH1 0x24 PUSH0 REVERT JUMPDEST PUSH0 PUSH2 0xC58 DUP3 PUSH2 0x943 JUMP JUMPDEST SWAP2 POP PUSH2 0xC63 DUP4 PUSH2 0x943 JUMP JUMPDEST SWAP3 POP DUP3 DUP3 SUB SWAP1 POP DUP2 DUP2 GT ISZERO PUSH2 0xC7B JUMPI PUSH2 0xC7A PUSH2 0xC21 JUMP JUMPDEST JUMPDEST SWAP3 SWAP2 POP POP JUMP JUMPDEST PUSH0 PUSH2 0xC8B DUP3 PUSH2 0x943 JUMP JUMPDEST SWAP2 POP PUSH32 0xFFFFFFFFFFFFFFFFFFFFFFFFFFFFFFFFFFFFFFFFFFFFFFFFFFFFFFFFFFFFFFFF DUP3 SUB PUSH2 0xCBD JUMPI PUSH2 0xCBC PUSH2 0xC21 JUMP JUMPDEST JUMPDEST PUSH1 0x1 DUP3 ADD SWAP1 POP SWAP2 SWAP1 POP JUMP INVALID LOG2 PUSH5 0x6970667358 0x22 SLT KECCAK256 DUP16 PUSH2 0x2EBF MUL 0xBB 0x22 0xBE OR EXTCODEHASH 0xA7 PUSH32 0xD51DAE181C1455AC002984F46A6DE42EFE6B4AAF64736F6C634300081A003300 "
				},
				"gasEstimates": {
					"creation": {
						"codeDepositCost": "665200",
						"executionCost": "infinite",
						"totalCost": "infinite"
					},
					"external": {
						"checkOnce()": "2563",
						"checkUpkeep(bytes)": "infinite",
						"counter()": "2492",
						"doWee()": "26685",
						"interval()": "2514",
						"lastTimeStamp()": "2515",
						"off()": "infinite",
						"owner()": "2582",
						"performUpkeep(bytes)": "84311",
						"renounceOwnership()": "infinite",
						"s_forwarderAddress()": "2532",
						"setForwarderAddress(address)": "infinite",
						"setInterval(uint256,uint256)": "infinite",
						"startingTime()": "2493",
						"transferOwnership(address)": "infinite",
						"weeklyTransfer()": "26732"
					}
				},
				"methodIdentifiers": {
					"checkOnce()": "30e3f8f8",
					"checkUpkeep(bytes)": "6e04ff0d",
					"counter()": "61bc221a",
					"doWee()": "b7106f9e",
					"interval()": "947a36fb",
					"lastTimeStamp()": "3f3b3b27",
					"off()": "6626b26d",
					"owner()": "8da5cb5b",
					"performUpkeep(bytes)": "4585e33b",
					"renounceOwnership()": "715018a6",
					"s_forwarderAddress()": "3070fbf8",
					"setForwarderAddress(address)": "d777cc6d",
					"setInterval(uint256,uint256)": "5f17e616",
					"startingTime()": "39518b5e",
					"transferOwnership(address)": "f2fde38b",
					"weeklyTransfer()": "e9c68e2c"
				}
			},
			"storageLayout": {
				"storage": [
					{
						"astId": 53,
						"contract": "DripWarrior/checckUpKep_flattened.sol:CounterwForwarder",
						"label": "_owner",
						"offset": 0,
						"slot": "0",
						"type": "t_address"
					},
					{
						"astId": 200,
						"contract": "DripWarrior/checckUpKep_flattened.sol:CounterwForwarder",
						"label": "counter",
						"offset": 0,
						"slot": "1",
						"type": "t_uint256"
					},
					{
						"astId": 202,
						"contract": "DripWarrior/checckUpKep_flattened.sol:CounterwForwarder",
						"label": "interval",
						"offset": 0,
						"slot": "2",
						"type": "t_uint256"
					},
					{
						"astId": 204,
						"contract": "DripWarrior/checckUpKep_flattened.sol:CounterwForwarder",
						"label": "lastTimeStamp",
						"offset": 0,
						"slot": "3",
						"type": "t_uint256"
					},
					{
						"astId": 206,
						"contract": "DripWarrior/checckUpKep_flattened.sol:CounterwForwarder",
						"label": "s_forwarderAddress",
						"offset": 0,
						"slot": "4",
						"type": "t_address"
					},
					{
						"astId": 208,
						"contract": "DripWarrior/checckUpKep_flattened.sol:CounterwForwarder",
						"label": "checkOnce",
						"offset": 20,
						"slot": "4",
						"type": "t_bool"
					},
					{
						"astId": 210,
						"contract": "DripWarrior/checckUpKep_flattened.sol:CounterwForwarder",
						"label": "startingTime",
						"offset": 0,
						"slot": "5",
						"type": "t_uint256"
					}
				],
				"types": {
					"t_address": {
						"encoding": "inplace",
						"label": "address",
						"numberOfBytes": "20"
					},
					"t_bool": {
						"encoding": "inplace",
						"label": "bool",
						"numberOfBytes": "1"
					},
					"t_uint256": {
						"encoding": "inplace",
						"label": "uint256",
						"numberOfBytes": "32"
					}
				}
			},
			"userdoc": {
				"kind": "user",
				"methods": {
					"setForwarderAddress(address)": {
						"notice": "Set the address that `performUpkeep` is called from"
					}
				},
				"notice": "THIS IS AN EXAMPLE CONTRACT THAT USES HARDCODED VALUES FOR CLARITY. THIS IS AN EXAMPLE CONTRACT THAT USES UN-AUDITED CODE. DO NOT USE THIS CODE IN PRODUCTION.",
				"version": 1
			}
		}
	}
}