{
	"DripWarrior/poolContract.sol": {
		"PoolContrcat": {
			"abi": [
				{
					"inputs": [],
					"stateMutability": "nonpayable",
					"type": "constructor"
				},
				{
					"inputs": [
						{
							"internalType": "address",
							"name": "target",
							"type": "address"
						}
					],
					"name": "AddressEmptyCode",
					"type": "error"
				},
				{
					"inputs": [
						{
							"internalType": "address",
							"name": "implementation",
							"type": "address"
						}
					],
					"name": "ERC1967InvalidImplementation",
					"type": "error"
				},
				{
					"inputs": [],
					"name": "ERC1967NonPayable",
					"type": "error"
				},
				{
					"inputs": [],
					"name": "FailedInnerCall",
					"type": "error"
				},
				{
					"inputs": [],
					"name": "InvalidInitialization",
					"type": "error"
				},
				{
					"inputs": [],
					"name": "NotInitializing",
					"type": "error"
				},
				{
					"inputs": [
						{
							"internalType": "address",
							"name": "owner",
							"type": "address"
						}
					],
					"name": "OwnableInvalidOwner",
					"type": "error"
				},
				{
					"inputs": [
						{
							"internalType": "address",
							"name": "account",
							"type": "address"
						}
					],
					"name": "OwnableUnauthorizedAccount",
					"type": "error"
				},
				{
					"inputs": [],
					"name": "UUPSUnauthorizedCallContext",
					"type": "error"
				},
				{
					"inputs": [
						{
							"internalType": "bytes32",
							"name": "slot",
							"type": "bytes32"
						}
					],
					"name": "UUPSUnsupportedProxiableUUID",
					"type": "error"
				},
				{
					"inputs": [
						{
							"internalType": "uint256",
							"name": "amount",
							"type": "uint256"
						}
					],
					"name": "notEnoughBalance",
					"type": "error"
				},
				{
					"inputs": [
						{
							"internalType": "bool",
							"name": "transfered",
							"type": "bool"
						}
					],
					"name": "transferFailed",
					"type": "error"
				},
				{
					"inputs": [
						{
							"internalType": "bool",
							"name": "blocked",
							"type": "bool"
						}
					],
					"name": "userBlocked",
					"type": "error"
				},
				{
					"inputs": [
						{
							"internalType": "address",
							"name": "wrongAddress",
							"type": "address"
						}
					],
					"name": "wrongAddress",
					"type": "error"
				},
				{
					"inputs": [
						{
							"internalType": "uint256",
							"name": "amount",
							"type": "uint256"
						}
					],
					"name": "wrongAmount",
					"type": "error"
				},
				{
					"inputs": [
						{
							"internalType": "uint256",
							"name": "updateInterval",
							"type": "uint256"
						}
					],
					"name": "wrongInterval",
					"type": "error"
				},
				{
					"inputs": [
						{
							"internalType": "address",
							"name": "owner",
							"type": "address"
						}
					],
					"name": "wrongOwner",
					"type": "error"
				},
				{
					"inputs": [
						{
							"internalType": "uint256",
							"name": "percentage",
							"type": "uint256"
						}
					],
					"name": "wrongPercentage",
					"type": "error"
				},
				{
					"inputs": [
						{
							"internalType": "uint256",
							"name": "projectNO",
							"type": "uint256"
						}
					],
					"name": "wrongProjectNo",
					"type": "error"
				},
				{
					"inputs": [
						{
							"internalType": "uint256",
							"name": "time",
							"type": "uint256"
						}
					],
					"name": "wrongTime",
					"type": "error"
				},
				{
					"inputs": [
						{
							"internalType": "bool",
							"name": "value",
							"type": "bool"
						}
					],
					"name": "wrongValue",
					"type": "error"
				},
				{
					"anonymous": false,
					"inputs": [
						{
							"indexed": false,
							"internalType": "uint256",
							"name": "_amount",
							"type": "uint256"
						},
						{
							"indexed": false,
							"internalType": "uint256",
							"name": "_projectNo",
							"type": "uint256"
						}
					],
					"name": "AddFunds",
					"type": "event"
				},
				{
					"anonymous": false,
					"inputs": [
						{
							"indexed": false,
							"internalType": "uint256",
							"name": "_ownerShipPoolAmount",
							"type": "uint256"
						}
					],
					"name": "AddOwnership",
					"type": "event"
				},
				{
					"anonymous": false,
					"inputs": [
						{
							"indexed": false,
							"internalType": "uint256",
							"name": "projectId",
							"type": "uint256"
						},
						{
							"indexed": false,
							"internalType": "uint256",
							"name": "OpPercentage",
							"type": "uint256"
						},
						{
							"indexed": false,
							"internalType": "uint256",
							"name": "tpPercentage",
							"type": "uint256"
						}
					],
					"name": "AddProject",
					"type": "event"
				},
				{
					"anonymous": false,
					"inputs": [
						{
							"indexed": false,
							"internalType": "uint256",
							"name": "_treasuryPoolAmount",
							"type": "uint256"
						}
					],
					"name": "AddTreasuery",
					"type": "event"
				},
				{
					"anonymous": false,
					"inputs": [
						{
							"indexed": false,
							"internalType": "uint64",
							"name": "version",
							"type": "uint64"
						}
					],
					"name": "Initialized",
					"type": "event"
				},
				{
					"anonymous": false,
					"inputs": [
						{
							"indexed": true,
							"internalType": "address",
							"name": "previousOwner",
							"type": "address"
						},
						{
							"indexed": true,
							"internalType": "address",
							"name": "newOwner",
							"type": "address"
						}
					],
					"name": "OwnershipTransferred",
					"type": "event"
				},
				{
					"anonymous": false,
					"inputs": [
						{
							"indexed": false,
							"internalType": "address",
							"name": "_owner",
							"type": "address"
						},
						{
							"indexed": false,
							"internalType": "uint256",
							"name": "_newPercentage",
							"type": "uint256"
						}
					],
					"name": "PercentageChanged",
					"type": "event"
				},
				{
					"anonymous": false,
					"inputs": [
						{
							"indexed": false,
							"internalType": "address",
							"name": "_owner",
							"type": "address"
						},
						{
							"indexed": false,
							"internalType": "address",
							"name": "_s_forwarderAddress",
							"type": "address"
						}
					],
					"name": "SetForwarderAddress",
					"type": "event"
				},
				{
					"anonymous": false,
					"inputs": [
						{
							"indexed": false,
							"internalType": "address",
							"name": "_owner",
							"type": "address"
						},
						{
							"indexed": false,
							"internalType": "uint256",
							"name": "_interval",
							"type": "uint256"
						},
						{
							"indexed": false,
							"internalType": "uint256",
							"name": "_lastTimeStamp",
							"type": "uint256"
						}
					],
					"name": "SetInterval",
					"type": "event"
				},
				{
					"anonymous": false,
					"inputs": [
						{
							"indexed": false,
							"internalType": "address",
							"name": "sender",
							"type": "address"
						},
						{
							"indexed": false,
							"internalType": "address",
							"name": "recepient",
							"type": "address"
						},
						{
							"indexed": false,
							"internalType": "uint256",
							"name": "usdcAmount",
							"type": "uint256"
						}
					],
					"name": "StakeTokens",
					"type": "event"
				},
				{
					"anonymous": false,
					"inputs": [
						{
							"indexed": true,
							"internalType": "address",
							"name": "implementation",
							"type": "address"
						}
					],
					"name": "Upgraded",
					"type": "event"
				},
				{
					"anonymous": false,
					"inputs": [
						{
							"indexed": false,
							"internalType": "address",
							"name": "owner",
							"type": "address"
						},
						{
							"indexed": false,
							"internalType": "address",
							"name": "blockUserAddress",
							"type": "address"
						},
						{
							"indexed": false,
							"internalType": "bool",
							"name": "blocked",
							"type": "bool"
						}
					],
					"name": "UserBlocked",
					"type": "event"
				},
				{
					"anonymous": false,
					"inputs": [
						{
							"indexed": false,
							"internalType": "address",
							"name": "caller",
							"type": "address"
						},
						{
							"indexed": false,
							"internalType": "uint256",
							"name": "ownerShipPoolAmount",
							"type": "uint256"
						},
						{
							"indexed": false,
							"internalType": "uint256",
							"name": "treasuryPoolAmount",
							"type": "uint256"
						}
					],
					"name": "WeeklyTransfered",
					"type": "event"
				},
				{
					"anonymous": false,
					"inputs": [
						{
							"indexed": false,
							"internalType": "address",
							"name": "recipient",
							"type": "address"
						},
						{
							"indexed": false,
							"internalType": "uint256",
							"name": "usdcAmount",
							"type": "uint256"
						}
					],
					"name": "Withdraw",
					"type": "event"
				},
				{
					"anonymous": false,
					"inputs": [
						{
							"indexed": false,
							"internalType": "address",
							"name": "_owner",
							"type": "address"
						},
						{
							"indexed": false,
							"internalType": "uint256",
							"name": "_interval",
							"type": "uint256"
						}
					],
					"name": "offInterval",
					"type": "event"
				},
				{
					"inputs": [],
					"name": "UPGRADE_INTERFACE_VERSION",
					"outputs": [
						{
							"internalType": "string",
							"name": "",
							"type": "string"
						}
					],
					"stateMutability": "view",
					"type": "function"
				},
				{
					"inputs": [
						{
							"internalType": "uint256",
							"name": "_amount",
							"type": "uint256"
						},
						{
							"internalType": "uint256",
							"name": "_projectNo",
							"type": "uint256"
						}
					],
					"name": "addFunds",
					"outputs": [],
					"stateMutability": "nonpayable",
					"type": "function"
				},
				{
					"inputs": [
						{
							"internalType": "uint256",
							"name": "_amount",
							"type": "uint256"
						}
					],
					"name": "addOwnership",
					"outputs": [],
					"stateMutability": "nonpayable",
					"type": "function"
				},
				{
					"inputs": [
						{
							"internalType": "uint256",
							"name": "_tPPercentage",
							"type": "uint256"
						}
					],
					"name": "addProjects",
					"outputs": [],
					"stateMutability": "nonpayable",
					"type": "function"
				},
				{
					"inputs": [
						{
							"internalType": "uint256",
							"name": "_amount",
							"type": "uint256"
						}
					],
					"name": "addTreasuery",
					"outputs": [],
					"stateMutability": "nonpayable",
					"type": "function"
				},
				{
					"inputs": [
						{
							"internalType": "address",
							"name": "",
							"type": "address"
						}
					],
					"name": "alreadyAdded",
					"outputs": [
						{
							"internalType": "bool",
							"name": "",
							"type": "bool"
						}
					],
					"stateMutability": "view",
					"type": "function"
				},
				{
					"inputs": [
						{
							"internalType": "address",
							"name": "_userAddress",
							"type": "address"
						},
						{
							"internalType": "bool",
							"name": "value",
							"type": "bool"
						}
					],
					"name": "blockUser",
					"outputs": [],
					"stateMutability": "nonpayable",
					"type": "function"
				},
				{
					"inputs": [],
					"name": "checkOnce",
					"outputs": [
						{
							"internalType": "bool",
							"name": "",
							"type": "bool"
						}
					],
					"stateMutability": "view",
					"type": "function"
				},
				{
					"inputs": [
						{
							"internalType": "bytes",
							"name": "",
							"type": "bytes"
						}
					],
					"name": "checkUpkeep",
					"outputs": [
						{
							"internalType": "bool",
							"name": "",
							"type": "bool"
						},
						{
							"internalType": "bytes",
							"name": "",
							"type": "bytes"
						}
					],
					"stateMutability": "view",
					"type": "function"
				},
				{
					"inputs": [],
					"name": "flowToTreasuryPercentage",
					"outputs": [
						{
							"internalType": "uint256",
							"name": "",
							"type": "uint256"
						}
					],
					"stateMutability": "view",
					"type": "function"
				},
				{
					"inputs": [
						{
							"internalType": "address",
							"name": "initialOwner",
							"type": "address"
						},
						{
							"internalType": "address",
							"name": "_usdcAddress",
							"type": "address"
						},
						{
							"internalType": "address",
							"name": "_multisigAddress",
							"type": "address"
						}
					],
					"name": "initialize",
					"outputs": [],
					"stateMutability": "nonpayable",
					"type": "function"
				},
				{
					"inputs": [],
					"name": "interval",
					"outputs": [
						{
							"internalType": "uint256",
							"name": "",
							"type": "uint256"
						}
					],
					"stateMutability": "view",
					"type": "function"
				},
				{
					"inputs": [],
					"name": "lastTimeStamp",
					"outputs": [
						{
							"internalType": "uint256",
							"name": "",
							"type": "uint256"
						}
					],
					"stateMutability": "view",
					"type": "function"
				},
				{
					"inputs": [],
					"name": "maintainceFeePercentage",
					"outputs": [
						{
							"internalType": "uint256",
							"name": "",
							"type": "uint256"
						}
					],
					"stateMutability": "view",
					"type": "function"
				},
				{
					"inputs": [],
					"name": "multisigAddress",
					"outputs": [
						{
							"internalType": "address",
							"name": "",
							"type": "address"
						}
					],
					"stateMutability": "view",
					"type": "function"
				},
				{
					"inputs": [],
					"name": "noOfUsers",
					"outputs": [
						{
							"internalType": "uint256",
							"name": "",
							"type": "uint256"
						}
					],
					"stateMutability": "view",
					"type": "function"
				},
				{
					"inputs": [],
					"name": "odividentPayoutPercentage",
					"outputs": [
						{
							"internalType": "uint256",
							"name": "",
							"type": "uint256"
						}
					],
					"stateMutability": "view",
					"type": "function"
				},
				{
					"inputs": [],
					"name": "off",
					"outputs": [],
					"stateMutability": "nonpayable",
					"type": "function"
				},
				{
					"inputs": [],
					"name": "owner",
					"outputs": [
						{
							"internalType": "address",
							"name": "",
							"type": "address"
						}
					],
					"stateMutability": "view",
					"type": "function"
				},
				{
					"inputs": [],
					"name": "ownerShipPoolAmount",
					"outputs": [
						{
							"internalType": "uint256",
							"name": "",
							"type": "uint256"
						}
					],
					"stateMutability": "view",
					"type": "function"
				},
				{
					"inputs": [
						{
							"internalType": "bytes",
							"name": "",
							"type": "bytes"
						}
					],
					"name": "performUpkeep",
					"outputs": [],
					"stateMutability": "nonpayable",
					"type": "function"
				},
				{
					"inputs": [],
					"name": "proxiableUUID",
					"outputs": [
						{
							"internalType": "bytes32",
							"name": "",
							"type": "bytes32"
						}
					],
					"stateMutability": "view",
					"type": "function"
				},
				{
					"inputs": [
						{
							"internalType": "uint256",
							"name": "_amount",
							"type": "uint256"
						}
					],
					"name": "reStakeTokens",
					"outputs": [],
					"stateMutability": "nonpayable",
					"type": "function"
				},
				{
					"inputs": [],
					"name": "realInterval",
					"outputs": [
						{
							"internalType": "uint256",
							"name": "",
							"type": "uint256"
						}
					],
					"stateMutability": "view",
					"type": "function"
				},
				{
					"inputs": [],
					"name": "renounceOwnership",
					"outputs": [],
					"stateMutability": "nonpayable",
					"type": "function"
				},
				{
					"inputs": [],
					"name": "s_forwarderAddress",
					"outputs": [
						{
							"internalType": "address",
							"name": "",
							"type": "address"
						}
					],
					"stateMutability": "view",
					"type": "function"
				},
				{
					"inputs": [
						{
							"internalType": "address",
							"name": "forwarderAddress",
							"type": "address"
						}
					],
					"name": "setForwarderAddress",
					"outputs": [],
					"stateMutability": "nonpayable",
					"type": "function"
				},
				{
					"inputs": [
						{
							"internalType": "uint256",
							"name": "_startingTime",
							"type": "uint256"
						},
						{
							"internalType": "uint256",
							"name": "updateInterval",
							"type": "uint256"
						}
					],
					"name": "setInterval",
					"outputs": [],
					"stateMutability": "nonpayable",
					"type": "function"
				},
				{
					"inputs": [
						{
							"internalType": "uint256",
							"name": "_projectId",
							"type": "uint256"
						},
						{
							"internalType": "uint256",
							"name": "_newPerccentage",
							"type": "uint256"
						}
					],
					"name": "setTeasueryPercentages",
					"outputs": [],
					"stateMutability": "nonpayable",
					"type": "function"
				},
				{
					"inputs": [
						{
							"internalType": "uint256",
							"name": "_newPerccentage",
							"type": "uint256"
						}
					],
					"name": "setflowToTreasuryPercentage",
					"outputs": [],
					"stateMutability": "nonpayable",
					"type": "function"
				},
				{
					"inputs": [
						{
							"internalType": "uint256",
							"name": "_newPerccentage",
							"type": "uint256"
						}
					],
					"name": "setmaintainceFeePercentage",
					"outputs": [],
					"stateMutability": "nonpayable",
					"type": "function"
				},
				{
					"inputs": [
						{
							"internalType": "uint256",
							"name": "_newPerccentage",
							"type": "uint256"
						}
					],
					"name": "setodividentPayoutPercentage",
					"outputs": [],
					"stateMutability": "nonpayable",
					"type": "function"
				},
				{
					"inputs": [
						{
							"internalType": "uint256",
							"name": "_newPerccentage",
							"type": "uint256"
						}
					],
					"name": "settdividentPayoutPercentage",
					"outputs": [],
					"stateMutability": "nonpayable",
					"type": "function"
				},
				{
					"inputs": [
						{
							"internalType": "uint256",
							"name": "_amount",
							"type": "uint256"
						}
					],
					"name": "stakeTokens",
					"outputs": [],
					"stateMutability": "nonpayable",
					"type": "function"
				},
				{
					"inputs": [],
					"name": "startingTime",
					"outputs": [
						{
							"internalType": "uint256",
							"name": "",
							"type": "uint256"
						}
					],
					"stateMutability": "view",
					"type": "function"
				},
				{
					"inputs": [
						{
							"internalType": "uint256",
							"name": "",
							"type": "uint256"
						}
					],
					"name": "tPPercentages",
					"outputs": [
						{
							"internalType": "uint256",
							"name": "",
							"type": "uint256"
						}
					],
					"stateMutability": "view",
					"type": "function"
				},
				{
					"inputs": [],
					"name": "tdividentPayoutPercentage",
					"outputs": [
						{
							"internalType": "uint256",
							"name": "",
							"type": "uint256"
						}
					],
					"stateMutability": "view",
					"type": "function"
				},
				{
					"inputs": [],
					"name": "totalProjects",
					"outputs": [
						{
							"internalType": "uint256",
							"name": "",
							"type": "uint256"
						}
					],
					"stateMutability": "view",
					"type": "function"
				},
				{
					"inputs": [],
					"name": "totalStakedAmount",
					"outputs": [
						{
							"internalType": "uint256",
							"name": "",
							"type": "uint256"
						}
					],
					"stateMutability": "view",
					"type": "function"
				},
				{
					"inputs": [
						{
							"internalType": "uint256",
							"name": "",
							"type": "uint256"
						}
					],
					"name": "totalUsers",
					"outputs": [
						{
							"internalType": "address",
							"name": "",
							"type": "address"
						}
					],
					"stateMutability": "view",
					"type": "function"
				},
				{
					"inputs": [
						{
							"internalType": "address",
							"name": "newOwner",
							"type": "address"
						}
					],
					"name": "transferOwnership",
					"outputs": [],
					"stateMutability": "nonpayable",
					"type": "function"
				},
				{
					"inputs": [],
					"name": "treasuryPoolAmount",
					"outputs": [
						{
							"internalType": "uint256",
							"name": "",
							"type": "uint256"
						}
					],
					"stateMutability": "view",
					"type": "function"
				},
				{
					"inputs": [
						{
							"internalType": "address",
							"name": "newImplementation",
							"type": "address"
						},
						{
							"internalType": "bytes",
							"name": "data",
							"type": "bytes"
						}
					],
					"name": "upgradeToAndCall",
					"outputs": [],
					"stateMutability": "payable",
					"type": "function"
				},
				{
					"inputs": [],
					"name": "usdcToken",
					"outputs": [
						{
							"internalType": "contract IBEP20",
							"name": "",
							"type": "address"
						}
					],
					"stateMutability": "view",
					"type": "function"
				},
				{
					"inputs": [
						{
							"internalType": "address",
							"name": "",
							"type": "address"
						}
					],
					"name": "userRegistered",
					"outputs": [
						{
							"internalType": "bool",
							"name": "blocked",
							"type": "bool"
						},
						{
							"internalType": "uint256",
							"name": "receivedAmount",
							"type": "uint256"
						},
						{
							"internalType": "uint256",
							"name": "withdrawAmount",
							"type": "uint256"
						},
						{
							"internalType": "uint256",
							"name": "receiveFromTreasury",
							"type": "uint256"
						},
						{
							"internalType": "uint256",
							"name": "receiveFromOwneerShip",
							"type": "uint256"
						},
						{
							"internalType": "uint256",
							"name": "totalStakedAmount",
							"type": "uint256"
						}
					],
					"stateMutability": "view",
					"type": "function"
				},
				{
					"inputs": [
						{
							"internalType": "uint256",
							"name": "_amount",
							"type": "uint256"
						}
					],
					"name": "userWithdrawAmoount",
					"outputs": [],
					"stateMutability": "nonpayable",
					"type": "function"
				},
				{
					"inputs": [],
					"name": "weeklyTransfer",
					"outputs": [],
					"stateMutability": "nonpayable",
					"type": "function"
				}
			],
			"devdoc": {
				"errors": {
					"AddressEmptyCode(address)": [
						{
							"details": "There's no code at `target` (it is not a contract)."
						}
					],
					"ERC1967InvalidImplementation(address)": [
						{
							"details": "The `implementation` of the proxy is invalid."
						}
					],
					"ERC1967NonPayable()": [
						{
							"details": "An upgrade function sees `msg.value > 0` that may be lost."
						}
					],
					"FailedInnerCall()": [
						{
							"details": "A call to an address target failed. The target may have reverted."
						}
					],
					"InvalidInitialization()": [
						{
							"details": "The contract is already initialized."
						}
					],
					"NotInitializing()": [
						{
							"details": "The contract is not initializing."
						}
					],
					"OwnableInvalidOwner(address)": [
						{
							"details": "The owner is not a valid owner account. (eg. `address(0)`)"
						}
					],
					"OwnableUnauthorizedAccount(address)": [
						{
							"details": "The caller account is not authorized to perform an operation."
						}
					],
					"UUPSUnauthorizedCallContext()": [
						{
							"details": "The call is from an unauthorized context."
						}
					],
					"UUPSUnsupportedProxiableUUID(bytes32)": [
						{
							"details": "The storage `slot` is unsupported as a UUID."
						}
					]
				},
				"events": {
					"Initialized(uint64)": {
						"details": "Triggered when the contract has been initialized or reinitialized."
					},
					"Upgraded(address)": {
						"details": "Emitted when the implementation is upgraded."
					}
				},
				"kind": "dev",
				"methods": {
					"constructor": {
						"custom:oz-upgrades-unsafe-allow": "constructor"
					},
					"owner()": {
						"details": "Returns the address of the current owner."
					},
					"proxiableUUID()": {
						"details": "Implementation of the ERC1822 {proxiableUUID} function. This returns the storage slot used by the implementation. It is used to validate the implementation's compatibility when performing an upgrade. IMPORTANT: A proxy pointing at a proxiable contract should not be considered proxiable itself, because this risks bricking a proxy that upgrades to it, by delegating to itself until out of gas. Thus it is critical that this function revert if invoked through a proxy. This is guaranteed by the `notDelegated` modifier."
					},
					"renounceOwnership()": {
						"details": "Leaves the contract without owner. It will not be possible to call `onlyOwner` functions. Can only be called by the current owner. NOTE: Renouncing ownership will leave the contract without an owner, thereby disabling any functionality that is only available to the owner."
					},
					"transferOwnership(address)": {
						"details": "Transfers ownership of the contract to a new account (`newOwner`). Can only be called by the current owner."
					},
					"upgradeToAndCall(address,bytes)": {
						"custom:oz-upgrades-unsafe-allow-reachable": "delegatecall",
						"details": "Upgrade the implementation of the proxy to `newImplementation`, and subsequently execute the function call encoded in `data`. Calls {_authorizeUpgrade}. Emits an {Upgraded} event."
					}
				},
				"version": 1
			},
			"evm": {
				"assembly": "    /* \"DripWarrior/poolContract.sol\":896:16549  contract PoolContrcat is Initializable, OwnableUpgradeable, UUPSUpgradeable, AutomationCompatibleInterface {... */\n  mstore(0x40, 0xa0)\n    /* \"@openzeppelin/contracts-upgradeable/proxy/utils/UUPSUpgradeable.sol\":1171:1175  this */\n  address\n    /* \"@openzeppelin/contracts-upgradeable/proxy/utils/UUPSUpgradeable.sol\":1128:1176  address private immutable __self = address(this) */\n  0xffffffffffffffffffffffffffffffffffffffff\n  and\n  0x80\n  swap1\n  0xffffffffffffffffffffffffffffffffffffffff\n  and\n  dup2\n  mstore\n  pop\n    /* \"DripWarrior/poolContract.sol\":3622:3675  constructor() {... */\n  callvalue\n  dup1\n  iszero\n  tag_1\n  jumpi\n  0x00\n  dup1\n  revert\ntag_1:\n  pop\n    /* \"DripWarrior/poolContract.sol\":3646:3668  _disableInitializers() */\n  tag_4\n    /* \"DripWarrior/poolContract.sol\":3646:3666  _disableInitializers */\n  shl(0x20, tag_5)\n    /* \"DripWarrior/poolContract.sol\":3646:3668  _disableInitializers() */\n  0x20\n  shr\n  jump\t// in\ntag_4:\n    /* \"DripWarrior/poolContract.sol\":896:16549  contract PoolContrcat is Initializable, OwnableUpgradeable, UUPSUpgradeable, AutomationCompatibleInterface {... */\n  jump(tag_6)\n    /* \"@openzeppelin/contracts-upgradeable/proxy/utils/Initializable.sol\":7711:8133  function _disableInitializers() internal virtual {... */\ntag_5:\n    /* \"@openzeppelin/contracts-upgradeable/proxy/utils/Initializable.sol\":7826:7856  InitializableStorage storage $ */\n  0x00\n    /* \"@openzeppelin/contracts-upgradeable/proxy/utils/Initializable.sol\":7859:7885  _getInitializableStorage() */\n  tag_8\n    /* \"@openzeppelin/contracts-upgradeable/proxy/utils/Initializable.sol\":7859:7883  _getInitializableStorage */\n  shl(0x20, tag_9)\n    /* \"@openzeppelin/contracts-upgradeable/proxy/utils/Initializable.sol\":7859:7885  _getInitializableStorage() */\n  0x20\n  shr\n  jump\t// in\ntag_8:\n    /* \"@openzeppelin/contracts-upgradeable/proxy/utils/Initializable.sol\":7826:7885  InitializableStorage storage $ = _getInitializableStorage() */\n  swap1\n  pop\n    /* \"@openzeppelin/contracts-upgradeable/proxy/utils/Initializable.sol\":7900:7901  $ */\n  dup1\n    /* \"@openzeppelin/contracts-upgradeable/proxy/utils/Initializable.sol\":7900:7915  $._initializing */\n  0x00\n  add\n  0x08\n  swap1\n  sload\n  swap1\n  0x0100\n  exp\n  swap1\n  div\n  0xff\n  and\n    /* \"@openzeppelin/contracts-upgradeable/proxy/utils/Initializable.sol\":7896:7972  if ($._initializing) {... */\n  iszero\n  tag_10\n  jumpi\n    /* \"@openzeppelin/contracts-upgradeable/proxy/utils/Initializable.sol\":7938:7961  InvalidInitialization() */\n  mload(0x40)\n  0xf92ee8a900000000000000000000000000000000000000000000000000000000\n  dup2\n  mstore\n  0x04\n  add\n  mload(0x40)\n  dup1\n  swap2\n  sub\n  swap1\n  revert\n    /* \"@openzeppelin/contracts-upgradeable/proxy/utils/Initializable.sol\":7896:7972  if ($._initializing) {... */\ntag_10:\n    /* \"@openzeppelin/contracts-upgradeable/proxy/utils/Initializable.sol\":8003:8019  type(uint64).max */\n  0xffffffffffffffff\n    /* \"@openzeppelin/contracts-upgradeable/proxy/utils/Initializable.sol\":7985:8019  $._initialized != type(uint64).max */\n  dup1\n  and\n    /* \"@openzeppelin/contracts-upgradeable/proxy/utils/Initializable.sol\":7985:7986  $ */\n  dup2\n    /* \"@openzeppelin/contracts-upgradeable/proxy/utils/Initializable.sol\":7985:7999  $._initialized */\n  0x00\n  add\n  0x00\n  swap1\n  sload\n  swap1\n  0x0100\n  exp\n  swap1\n  div\n  0xffffffffffffffff\n  and\n    /* \"@openzeppelin/contracts-upgradeable/proxy/utils/Initializable.sol\":7985:8019  $._initialized != type(uint64).max */\n  0xffffffffffffffff\n  and\n  eq\n    /* \"@openzeppelin/contracts-upgradeable/proxy/utils/Initializable.sol\":7981:8127  if ($._initialized != type(uint64).max) {... */\n  tag_11\n  jumpi\n    /* \"@openzeppelin/contracts-upgradeable/proxy/utils/Initializable.sol\":8052:8068  type(uint64).max */\n  0xffffffffffffffff\n    /* \"@openzeppelin/contracts-upgradeable/proxy/utils/Initializable.sol\":8035:8036  $ */\n  dup2\n    /* \"@openzeppelin/contracts-upgradeable/proxy/utils/Initializable.sol\":8035:8049  $._initialized */\n  0x00\n  add\n  0x00\n    /* \"@openzeppelin/contracts-upgradeable/proxy/utils/Initializable.sol\":8035:8068  $._initialized = type(uint64).max */\n  0x0100\n  exp\n  dup2\n  sload\n  dup2\n  0xffffffffffffffff\n  mul\n  not\n  and\n  swap1\n  dup4\n  0xffffffffffffffff\n  and\n  mul\n  or\n  swap1\n  sstore\n  pop\n    /* \"@openzeppelin/contracts-upgradeable/proxy/utils/Initializable.sol\":8087:8116  Initialized(type(uint64).max) */\n  0xc7f505b2f371ae2175ee4913f4499e1f2633a7b5936321eed1cdaeb6115181d2\n    /* \"@openzeppelin/contracts-upgradeable/proxy/utils/Initializable.sol\":8099:8115  type(uint64).max */\n  0xffffffffffffffff\n    /* \"@openzeppelin/contracts-upgradeable/proxy/utils/Initializable.sol\":8087:8116  Initialized(type(uint64).max) */\n  mload(0x40)\n  tag_12\n  swap2\n  swap1\n  tag_13\n  jump\t// in\ntag_12:\n  mload(0x40)\n  dup1\n  swap2\n  sub\n  swap1\n  log1\n    /* \"@openzeppelin/contracts-upgradeable/proxy/utils/Initializable.sol\":7981:8127  if ($._initialized != type(uint64).max) {... */\ntag_11:\n    /* \"@openzeppelin/contracts-upgradeable/proxy/utils/Initializable.sol\":7760:8133  {... */\n  pop\n    /* \"@openzeppelin/contracts-upgradeable/proxy/utils/Initializable.sol\":7711:8133  function _disableInitializers() internal virtual {... */\n  jump\t// out\n    /* \"@openzeppelin/contracts-upgradeable/proxy/utils/Initializable.sol\":8737:8907  function _getInitializableStorage() private pure returns (InitializableStorage storage $) {... */\ntag_9:\n    /* \"@openzeppelin/contracts-upgradeable/proxy/utils/Initializable.sol\":8795:8825  InitializableStorage storage $ */\n  0x00\n    /* \"@openzeppelin/contracts-upgradeable/proxy/utils/Initializable.sol\":8870:8891  INITIALIZABLE_STORAGE */\n  0xf0c57e16840df040f15088dc2f81fe391c3923bec73e23a9662efc9c229c6a00\n    /* \"@openzeppelin/contracts-upgradeable/proxy/utils/Initializable.sol\":8860:8891  $.slot := INITIALIZABLE_STORAGE */\n  swap1\n  pop\n    /* \"@openzeppelin/contracts-upgradeable/proxy/utils/Initializable.sol\":8737:8907  function _getInitializableStorage() private pure returns (InitializableStorage storage $) {... */\n  swap1\n  jump\t// out\n    /* \"#utility.yul\":7:108   */\ntag_15:\n    /* \"#utility.yul\":43:50   */\n  0x00\n    /* \"#utility.yul\":83:101   */\n  0xffffffffffffffff\n    /* \"#utility.yul\":76:81   */\n  dup3\n    /* \"#utility.yul\":72:102   */\n  and\n    /* \"#utility.yul\":61:102   */\n  swap1\n  pop\n    /* \"#utility.yul\":7:108   */\n  swap2\n  swap1\n  pop\n  jump\t// out\n    /* \"#utility.yul\":114:229   */\ntag_16:\n    /* \"#utility.yul\":199:222   */\n  tag_20\n    /* \"#utility.yul\":216:221   */\n  dup2\n    /* \"#utility.yul\":199:222   */\n  tag_15\n  jump\t// in\ntag_20:\n    /* \"#utility.yul\":194:197   */\n  dup3\n    /* \"#utility.yul\":187:223   */\n  mstore\n    /* \"#utility.yul\":114:229   */\n  pop\n  pop\n  jump\t// out\n    /* \"#utility.yul\":235:453   */\ntag_13:\n    /* \"#utility.yul\":326:330   */\n  0x00\n    /* \"#utility.yul\":364:366   */\n  0x20\n    /* \"#utility.yul\":353:362   */\n  dup3\n    /* \"#utility.yul\":349:367   */\n  add\n    /* \"#utility.yul\":341:367   */\n  swap1\n  pop\n    /* \"#utility.yul\":377:446   */\n  tag_22\n    /* \"#utility.yul\":443:444   */\n  0x00\n    /* \"#utility.yul\":432:441   */\n  dup4\n    /* \"#utility.yul\":428:445   */\n  add\n    /* \"#utility.yul\":419:425   */\n  dup5\n    /* \"#utility.yul\":377:446   */\n  tag_16\n  jump\t// in\ntag_22:\n    /* \"#utility.yul\":235:453   */\n  swap3\n  swap2\n  pop\n  pop\n  jump\t// out\n    /* \"DripWarrior/poolContract.sol\":896:16549  contract PoolContrcat is Initializable, OwnableUpgradeable, UUPSUpgradeable, AutomationCompatibleInterface {... */\ntag_6:\n  mload(0x80)\n  codecopy(0x00, dataOffset(sub_0), dataSize(sub_0))\n  0x00\n  assignImmutable(\"0x6740f0f1ed974f4bbc4ea3ddf8917f81b1171208e4ec27e89df857ca2a56624a\")\n  return(0x00, dataSize(sub_0))\nstop\n\nsub_0: assembly {\n        /* \"DripWarrior/poolContract.sol\":896:16549  contract PoolContrcat is Initializable, OwnableUpgradeable, UUPSUpgradeable, AutomationCompatibleInterface {... */\n      mstore(0x40, 0x80)\n      jumpi(tag_1, lt(calldatasize, 0x04))\n      shr(0xe0, calldataload(0x00))\n      dup1\n      0x7547c7a3\n      gt\n      tag_49\n      jumpi\n      dup1\n      0xb47ff951\n      gt\n      tag_50\n      jumpi\n      dup1\n      0xd777cc6d\n      gt\n      tag_51\n      jumpi\n      dup1\n      0xd777cc6d\n      eq\n      tag_43\n      jumpi\n      dup1\n      0xd9b998b4\n      eq\n      tag_44\n      jumpi\n      dup1\n      0xe9c68e2c\n      eq\n      tag_45\n      jumpi\n      dup1\n      0xed061067\n      eq\n      tag_46\n      jumpi\n      dup1\n      0xf2fde38b\n      eq\n      tag_47\n      jumpi\n      dup1\n      0xff3d65d9\n      eq\n      tag_48\n      jumpi\n      jump(tag_1)\n    tag_51:\n      dup1\n      0xb47ff951\n      eq\n      tag_37\n      jumpi\n      dup1\n      0xb9dac1eb\n      eq\n      tag_38\n      jumpi\n      dup1\n      0xbccbc36c\n      eq\n      tag_39\n      jumpi\n      dup1\n      0xc0c53b8b\n      eq\n      tag_40\n      jumpi\n      dup1\n      0xc7fd5bf0\n      eq\n      tag_41\n      jumpi\n      dup1\n      0xce356a24\n      eq\n      tag_42\n      jumpi\n      jump(tag_1)\n    tag_50:\n      dup1\n      0x8da5cb5b\n      gt\n      tag_52\n      jumpi\n      dup1\n      0x8da5cb5b\n      eq\n      tag_31\n      jumpi\n      dup1\n      0x947a36fb\n      eq\n      tag_32\n      jumpi\n      dup1\n      0x9c361e4e\n      eq\n      tag_33\n      jumpi\n      dup1\n      0xa4f67b8b\n      eq\n      tag_34\n      jumpi\n      dup1\n      0xad3cb1cc\n      eq\n      tag_35\n      jumpi\n      dup1\n      0xad8e5ec4\n      eq\n      tag_36\n      jumpi\n      jump(tag_1)\n    tag_52:\n      dup1\n      0x7547c7a3\n      eq\n      tag_25\n      jumpi\n      dup1\n      0x78fd078d\n      eq\n      tag_26\n      jumpi\n      dup1\n      0x7f111e60\n      eq\n      tag_27\n      jumpi\n      dup1\n      0x7f70c5e7\n      eq\n      tag_28\n      jumpi\n      dup1\n      0x7ffe4d93\n      eq\n      tag_29\n      jumpi\n      dup1\n      0x85f45250\n      eq\n      tag_30\n      jumpi\n      jump(tag_1)\n    tag_49:\n      dup1\n      0x44490ff4\n      gt\n      tag_53\n      jumpi\n      dup1\n      0x567e98f9\n      gt\n      tag_54\n      jumpi\n      dup1\n      0x567e98f9\n      eq\n      tag_19\n      jumpi\n      dup1\n      0x5f17e616\n      eq\n      tag_20\n      jumpi\n      dup1\n      0x6626b26d\n      eq\n      tag_21\n      jumpi\n      dup1\n      0x67976974\n      eq\n      tag_22\n      jumpi\n      dup1\n      0x6e04ff0d\n      eq\n      tag_23\n      jumpi\n      dup1\n      0x715018a6\n      eq\n      tag_24\n      jumpi\n      jump(tag_1)\n    tag_54:\n      dup1\n      0x44490ff4\n      eq\n      tag_13\n      jumpi\n      dup1\n      0x4585e33b\n      eq\n      tag_14\n      jumpi\n      dup1\n      0x4f1ef286\n      eq\n      tag_15\n      jumpi\n      dup1\n      0x5256dbbf\n      eq\n      tag_16\n      jumpi\n      dup1\n      0x52d1902d\n      eq\n      tag_17\n      jumpi\n      dup1\n      0x5462870d\n      eq\n      tag_18\n      jumpi\n      jump(tag_1)\n    tag_53:\n      dup1\n      0x30cac972\n      gt\n      tag_55\n      jumpi\n      dup1\n      0x30cac972\n      eq\n      tag_7\n      jumpi\n      dup1\n      0x30e3f8f8\n      eq\n      tag_8\n      jumpi\n      dup1\n      0x33244c2c\n      eq\n      tag_9\n      jumpi\n      dup1\n      0x39518b5e\n      eq\n      tag_10\n      jumpi\n      dup1\n      0x3a71a9e4\n      eq\n      tag_11\n      jumpi\n      dup1\n      0x3f3b3b27\n      eq\n      tag_12\n      jumpi\n      jump(tag_1)\n    tag_55:\n      dup1\n      0x01934a83\n      eq\n      tag_2\n      jumpi\n      dup1\n      0x11eac855\n      eq\n      tag_3\n      jumpi\n      dup1\n      0x188e07b9\n      eq\n      tag_4\n      jumpi\n      dup1\n      0x2765df7a\n      eq\n      tag_5\n      jumpi\n      dup1\n      0x3070fbf8\n      eq\n      tag_6\n      jumpi\n    tag_1:\n      0x00\n      dup1\n      revert\n        /* \"DripWarrior/poolContract.sol\":1344:1368  uint256 public noOfUsers */\n    tag_2:\n      callvalue\n      dup1\n      iszero\n      tag_56\n      jumpi\n      0x00\n      dup1\n      revert\n    tag_56:\n      pop\n      tag_57\n      tag_58\n      jump\t// in\n    tag_57:\n      mload(0x40)\n      tag_59\n      swap2\n      swap1\n      tag_60\n      jump\t// in\n    tag_59:\n      mload(0x40)\n      dup1\n      swap2\n      sub\n      swap1\n      return\n        /* \"DripWarrior/poolContract.sol\":1010:1033  IBEP20 public usdcToken */\n    tag_3:\n      callvalue\n      dup1\n      iszero\n      tag_61\n      jumpi\n      0x00\n      dup1\n      revert\n    tag_61:\n      pop\n      tag_62\n      tag_63\n      jump\t// in\n    tag_62:\n      mload(0x40)\n      tag_64\n      swap2\n      swap1\n      tag_65\n      jump\t// in\n    tag_64:\n      mload(0x40)\n      dup1\n      swap2\n      sub\n      swap1\n      return\n        /* \"DripWarrior/poolContract.sol\":1044:1077  uint256 public treasuryPoolAmount */\n    tag_4:\n      callvalue\n      dup1\n      iszero\n      tag_66\n      jumpi\n      0x00\n      dup1\n      revert\n    tag_66:\n      pop\n      tag_67\n      tag_68\n      jump\t// in\n    tag_67:\n      mload(0x40)\n      tag_69\n      swap2\n      swap1\n      tag_60\n      jump\t// in\n    tag_69:\n      mload(0x40)\n      dup1\n      swap2\n      sub\n      swap1\n      return\n        /* \"DripWarrior/poolContract.sol\":4435:4772  function addProjects(uint256 _tPPercentage) external onlyOwner(){... */\n    tag_5:\n      callvalue\n      dup1\n      iszero\n      tag_70\n      jumpi\n      0x00\n      dup1\n      revert\n    tag_70:\n      pop\n      tag_71\n      0x04\n      dup1\n      calldatasize\n      sub\n      dup2\n      add\n      swap1\n      tag_72\n      swap2\n      swap1\n      tag_73\n      jump\t// in\n    tag_72:\n      tag_74\n      jump\t// in\n    tag_71:\n      stop\n        /* \"DripWarrior/poolContract.sol\":1737:1770  address public s_forwarderAddress */\n    tag_6:\n      callvalue\n      dup1\n      iszero\n      tag_75\n      jumpi\n      0x00\n      dup1\n      revert\n    tag_75:\n      pop\n      tag_76\n      tag_77\n      jump\t// in\n    tag_76:\n      mload(0x40)\n      tag_78\n      swap2\n      swap1\n      tag_79\n      jump\t// in\n    tag_78:\n      mload(0x40)\n      dup1\n      swap2\n      sub\n      swap1\n      return\n        /* \"DripWarrior/poolContract.sol\":1539:1566  uint256 public realInterval */\n    tag_7:\n      callvalue\n      dup1\n      iszero\n      tag_80\n      jumpi\n      0x00\n      dup1\n      revert\n    tag_80:\n      pop\n      tag_81\n      tag_82\n      jump\t// in\n    tag_81:\n      mload(0x40)\n      tag_83\n      swap2\n      swap1\n      tag_60\n      jump\t// in\n    tag_83:\n      mload(0x40)\n      dup1\n      swap2\n      sub\n      swap1\n      return\n        /* \"DripWarrior/poolContract.sol\":1411:1432  bool public checkOnce */\n    tag_8:\n      callvalue\n      dup1\n      iszero\n      tag_84\n      jumpi\n      0x00\n      dup1\n      revert\n    tag_84:\n      pop\n      tag_85\n      tag_86\n      jump\t// in\n    tag_85:\n      mload(0x40)\n      tag_87\n      swap2\n      swap1\n      tag_88\n      jump\t// in\n    tag_87:\n      mload(0x40)\n      dup1\n      swap2\n      sub\n      swap1\n      return\n        /* \"DripWarrior/poolContract.sol\":1162:1202  uint256 public tdividentPayoutPercentage */\n    tag_9:\n      callvalue\n      dup1\n      iszero\n      tag_89\n      jumpi\n      0x00\n      dup1\n      revert\n    tag_89:\n      pop\n      tag_90\n      tag_91\n      jump\t// in\n    tag_90:\n      mload(0x40)\n      tag_92\n      swap2\n      swap1\n      tag_60\n      jump\t// in\n    tag_92:\n      mload(0x40)\n      dup1\n      swap2\n      sub\n      swap1\n      return\n        /* \"DripWarrior/poolContract.sol\":1619:1646  uint256 public startingTime */\n    tag_10:\n      callvalue\n      dup1\n      iszero\n      tag_93\n      jumpi\n      0x00\n      dup1\n      revert\n    tag_93:\n      pop\n      tag_94\n      tag_95\n      jump\t// in\n    tag_94:\n      mload(0x40)\n      tag_96\n      swap2\n      swap1\n      tag_60\n      jump\t// in\n    tag_96:\n      mload(0x40)\n      dup1\n      swap2\n      sub\n      swap1\n      return\n        /* \"DripWarrior/poolContract.sol\":1299:1337  uint256 public maintainceFeePercentage */\n    tag_11:\n      callvalue\n      dup1\n      iszero\n      tag_97\n      jumpi\n      0x00\n      dup1\n      revert\n    tag_97:\n      pop\n      tag_98\n      tag_99\n      jump\t// in\n    tag_98:\n      mload(0x40)\n      tag_100\n      swap2\n      swap1\n      tag_60\n      jump\t// in\n    tag_100:\n      mload(0x40)\n      dup1\n      swap2\n      sub\n      swap1\n      return\n        /* \"DripWarrior/poolContract.sol\":1653:1681  uint256 public lastTimeStamp */\n    tag_12:\n      callvalue\n      dup1\n      iszero\n      tag_101\n      jumpi\n      0x00\n      dup1\n      revert\n    tag_101:\n      pop\n      tag_102\n      tag_103\n      jump\t// in\n    tag_102:\n      mload(0x40)\n      tag_104\n      swap2\n      swap1\n      tag_60\n      jump\t// in\n    tag_104:\n      mload(0x40)\n      dup1\n      swap2\n      sub\n      swap1\n      return\n        /* \"DripWarrior/poolContract.sol\":1208:1248  uint256 public odividentPayoutPercentage */\n    tag_13:\n      callvalue\n      dup1\n      iszero\n      tag_105\n      jumpi\n      0x00\n      dup1\n      revert\n    tag_105:\n      pop\n      tag_106\n      tag_107\n      jump\t// in\n    tag_106:\n      mload(0x40)\n      tag_108\n      swap2\n      swap1\n      tag_60\n      jump\t// in\n    tag_108:\n      mload(0x40)\n      dup1\n      swap2\n      sub\n      swap1\n      return\n        /* \"DripWarrior/poolContract.sol\":11001:11823  function performUpkeep(bytes calldata /*performData*/) external  {... */\n    tag_14:\n      callvalue\n      dup1\n      iszero\n      tag_109\n      jumpi\n      0x00\n      dup1\n      revert\n    tag_109:\n      pop\n      tag_110\n      0x04\n      dup1\n      calldatasize\n      sub\n      dup2\n      add\n      swap1\n      tag_111\n      swap2\n      swap1\n      tag_112\n      jump\t// in\n    tag_111:\n      tag_113\n      jump\t// in\n    tag_110:\n      stop\n        /* \"@openzeppelin/contracts-upgradeable/proxy/utils/UUPSUpgradeable.sol\":4158:4372  function upgradeToAndCall(address newImplementation, bytes memory data) public payable virtual onlyProxy {... */\n    tag_15:\n      tag_114\n      0x04\n      dup1\n      calldatasize\n      sub\n      dup2\n      add\n      swap1\n      tag_115\n      swap2\n      swap1\n      tag_116\n      jump\t// in\n    tag_115:\n      tag_117\n      jump\t// in\n    tag_114:\n      stop\n        /* \"DripWarrior/poolContract.sol\":5189:5589  function addTreasuery(uint256 _amount) external onlyOwner(){... */\n    tag_16:\n      callvalue\n      dup1\n      iszero\n      tag_118\n      jumpi\n      0x00\n      dup1\n      revert\n    tag_118:\n      pop\n      tag_119\n      0x04\n      dup1\n      calldatasize\n      sub\n      dup2\n      add\n      swap1\n      tag_120\n      swap2\n      swap1\n      tag_73\n      jump\t// in\n    tag_120:\n      tag_121\n      jump\t// in\n    tag_119:\n      stop\n        /* \"@openzeppelin/contracts-upgradeable/proxy/utils/UUPSUpgradeable.sol\":3705:3839  function proxiableUUID() external view virtual notDelegated returns (bytes32) {... */\n    tag_17:\n      callvalue\n      dup1\n      iszero\n      tag_122\n      jumpi\n      0x00\n      dup1\n      revert\n    tag_122:\n      pop\n      tag_123\n      tag_124\n      jump\t// in\n    tag_123:\n      mload(0x40)\n      tag_125\n      swap2\n      swap1\n      tag_126\n      jump\t// in\n    tag_125:\n      mload(0x40)\n      dup1\n      swap2\n      sub\n      swap1\n      return\n        /* \"DripWarrior/poolContract.sol\":1374:1404  address public multisigAddress */\n    tag_18:\n      callvalue\n      dup1\n      iszero\n      tag_127\n      jumpi\n      0x00\n      dup1\n      revert\n    tag_127:\n      pop\n      tag_128\n      tag_129\n      jump\t// in\n    tag_128:\n      mload(0x40)\n      tag_130\n      swap2\n      swap1\n      tag_79\n      jump\t// in\n    tag_130:\n      mload(0x40)\n      dup1\n      swap2\n      sub\n      swap1\n      return\n        /* \"DripWarrior/poolContract.sol\":1123:1155  uint256 public totalStakedAmount */\n    tag_19:\n      callvalue\n      dup1\n      iszero\n      tag_131\n      jumpi\n      0x00\n      dup1\n      revert\n    tag_131:\n      pop\n      tag_132\n      tag_133\n      jump\t// in\n    tag_132:\n      mload(0x40)\n      tag_134\n      swap2\n      swap1\n      tag_60\n      jump\t// in\n    tag_134:\n      mload(0x40)\n      dup1\n      swap2\n      sub\n      swap1\n      return\n        /* \"DripWarrior/poolContract.sol\":11835:12377  function setInterval (uint256 _startingTime, uint256 updateInterval) external  onlyOwner{... */\n    tag_20:\n      callvalue\n      dup1\n      iszero\n      tag_135\n      jumpi\n      0x00\n      dup1\n      revert\n    tag_135:\n      pop\n      tag_136\n      0x04\n      dup1\n      calldatasize\n      sub\n      dup2\n      add\n      swap1\n      tag_137\n      swap2\n      swap1\n      tag_138\n      jump\t// in\n    tag_137:\n      tag_139\n      jump\t// in\n    tag_136:\n      stop\n        /* \"DripWarrior/poolContract.sol\":12383:12531  function off () external  onlyOwner{... */\n    tag_21:\n      callvalue\n      dup1\n      iszero\n      tag_140\n      jumpi\n      0x00\n      dup1\n      revert\n    tag_140:\n      pop\n      tag_141\n      tag_142\n      jump\t// in\n    tag_141:\n      stop\n        /* \"DripWarrior/poolContract.sol\":13274:13851  function userWithdrawAmoount(uint256 _amount) external nonReentrant {... */\n    tag_22:\n      callvalue\n      dup1\n      iszero\n      tag_143\n      jumpi\n      0x00\n      dup1\n      revert\n    tag_143:\n      pop\n      tag_144\n      0x04\n      dup1\n      calldatasize\n      sub\n      dup2\n      add\n      swap1\n      tag_145\n      swap2\n      swap1\n      tag_73\n      jump\t// in\n    tag_145:\n      tag_146\n      jump\t// in\n    tag_144:\n      stop\n        /* \"DripWarrior/poolContract.sol\":10755:10990  function checkUpkeep(bytes calldata /*checkData*/) external override view  returns (bool, bytes memory) {... */\n    tag_23:\n      callvalue\n      dup1\n      iszero\n      tag_147\n      jumpi\n      0x00\n      dup1\n      revert\n    tag_147:\n      pop\n      tag_148\n      0x04\n      dup1\n      calldatasize\n      sub\n      dup2\n      add\n      swap1\n      tag_149\n      swap2\n      swap1\n      tag_112\n      jump\t// in\n    tag_149:\n      tag_150\n      jump\t// in\n    tag_148:\n      mload(0x40)\n      tag_151\n      swap3\n      swap2\n      swap1\n      tag_152\n      jump\t// in\n    tag_151:\n      mload(0x40)\n      dup1\n      swap2\n      sub\n      swap1\n      return\n        /* \"@openzeppelin/contracts-upgradeable/access/OwnableUpgradeable.sol\":3155:3256  function renounceOwnership() public virtual onlyOwner {... */\n    tag_24:\n      callvalue\n      dup1\n      iszero\n      tag_153\n      jumpi\n      0x00\n      dup1\n      revert\n    tag_153:\n      pop\n      tag_154\n      tag_155\n      jump\t// in\n    tag_154:\n      stop\n        /* \"DripWarrior/poolContract.sol\":5595:6397  function stakeTokens(uint256 _amount) external  {... */\n    tag_25:\n      callvalue\n      dup1\n      iszero\n      tag_156\n      jumpi\n      0x00\n      dup1\n      revert\n    tag_156:\n      pop\n      tag_157\n      0x04\n      dup1\n      calldatasize\n      sub\n      dup2\n      add\n      swap1\n      tag_158\n      swap2\n      swap1\n      tag_73\n      jump\t// in\n    tag_158:\n      tag_159\n      jump\t// in\n    tag_157:\n      stop\n        /* \"DripWarrior/poolContract.sol\":4778:5179  function addOwnership(uint256 _amount) external onlyOwner(){... */\n    tag_26:\n      callvalue\n      dup1\n      iszero\n      tag_160\n      jumpi\n      0x00\n      dup1\n      revert\n    tag_160:\n      pop\n      tag_161\n      0x04\n      dup1\n      calldatasize\n      sub\n      dup2\n      add\n      swap1\n      tag_162\n      swap2\n      swap1\n      tag_73\n      jump\t// in\n    tag_162:\n      tag_163\n      jump\t// in\n    tag_161:\n      stop\n        /* \"DripWarrior/poolContract.sol\":15782:16105  function setmaintainceFeePercentage(uint256 _newPerccentage) external onlyOwner {... */\n    tag_27:\n      callvalue\n      dup1\n      iszero\n      tag_164\n      jumpi\n      0x00\n      dup1\n      revert\n    tag_164:\n      pop\n      tag_165\n      0x04\n      dup1\n      calldatasize\n      sub\n      dup2\n      add\n      swap1\n      tag_166\n      swap2\n      swap1\n      tag_73\n      jump\t// in\n    tag_166:\n      tag_167\n      jump\t// in\n    tag_165:\n      stop\n        /* \"DripWarrior/poolContract.sol\":14771:15101  function settdividentPayoutPercentage(uint256 _newPerccentage) external onlyOwner {... */\n    tag_28:\n      callvalue\n      dup1\n      iszero\n      tag_168\n      jumpi\n      0x00\n      dup1\n      revert\n    tag_168:\n      pop\n      tag_169\n      0x04\n      dup1\n      calldatasize\n      sub\n      dup2\n      add\n      swap1\n      tag_170\n      swap2\n      swap1\n      tag_73\n      jump\t// in\n    tag_170:\n      tag_171\n      jump\t// in\n    tag_169:\n      stop\n        /* \"DripWarrior/poolContract.sol\":6403:7081  function reStakeTokens(uint256 _amount) external  {... */\n    tag_29:\n      callvalue\n      dup1\n      iszero\n      tag_172\n      jumpi\n      0x00\n      dup1\n      revert\n    tag_172:\n      pop\n      tag_173\n      0x04\n      dup1\n      calldatasize\n      sub\n      dup2\n      add\n      swap1\n      tag_174\n      swap2\n      swap1\n      tag_73\n      jump\t// in\n    tag_174:\n      tag_175\n      jump\t// in\n    tag_173:\n      stop\n        /* \"DripWarrior/poolContract.sol\":7091:7632  function addFunds(uint256 _amount, uint256 _projectNo)   external {... */\n    tag_30:\n      callvalue\n      dup1\n      iszero\n      tag_176\n      jumpi\n      0x00\n      dup1\n      revert\n    tag_176:\n      pop\n      tag_177\n      0x04\n      dup1\n      calldatasize\n      sub\n      dup2\n      add\n      swap1\n      tag_178\n      swap2\n      swap1\n      tag_138\n      jump\t// in\n    tag_178:\n      tag_179\n      jump\t// in\n    tag_177:\n      stop\n        /* \"@openzeppelin/contracts-upgradeable/access/OwnableUpgradeable.sol\":2441:2585  function owner() public view virtual returns (address) {... */\n    tag_31:\n      callvalue\n      dup1\n      iszero\n      tag_180\n      jumpi\n      0x00\n      dup1\n      revert\n    tag_180:\n      pop\n      tag_181\n      tag_182\n      jump\t// in\n    tag_181:\n      mload(0x40)\n      tag_183\n      swap2\n      swap1\n      tag_79\n      jump\t// in\n    tag_183:\n      mload(0x40)\n      dup1\n      swap2\n      sub\n      swap1\n      return\n        /* \"DripWarrior/poolContract.sol\":1463:1486  uint256 public interval */\n    tag_32:\n      callvalue\n      dup1\n      iszero\n      tag_184\n      jumpi\n      0x00\n      dup1\n      revert\n    tag_184:\n      pop\n      tag_185\n      tag_186\n      jump\t// in\n    tag_185:\n      mload(0x40)\n      tag_187\n      swap2\n      swap1\n      tag_60\n      jump\t// in\n    tag_187:\n      mload(0x40)\n      dup1\n      swap2\n      sub\n      swap1\n      return\n        /* \"DripWarrior/poolContract.sol\":2009:2037  uint256 public totalProjects */\n    tag_33:\n      callvalue\n      dup1\n      iszero\n      tag_188\n      jumpi\n      0x00\n      dup1\n      revert\n    tag_188:\n      pop\n      tag_189\n      tag_190\n      jump\t// in\n    tag_189:\n      mload(0x40)\n      tag_191\n      swap2\n      swap1\n      tag_60\n      jump\t// in\n    tag_191:\n      mload(0x40)\n      dup1\n      swap2\n      sub\n      swap1\n      return\n        /* \"DripWarrior/poolContract.sol\":2093:2138  mapping(uint256 => address) public totalUsers */\n    tag_34:\n      callvalue\n      dup1\n      iszero\n      tag_192\n      jumpi\n      0x00\n      dup1\n      revert\n    tag_192:\n      pop\n      tag_193\n      0x04\n      dup1\n      calldatasize\n      sub\n      dup2\n      add\n      swap1\n      tag_194\n      swap2\n      swap1\n      tag_73\n      jump\t// in\n    tag_194:\n      tag_195\n      jump\t// in\n    tag_193:\n      mload(0x40)\n      tag_196\n      swap2\n      swap1\n      tag_79\n      jump\t// in\n    tag_196:\n      mload(0x40)\n      dup1\n      swap2\n      sub\n      swap1\n      return\n        /* \"@openzeppelin/contracts-upgradeable/proxy/utils/UUPSUpgradeable.sol\":1819:1877  string public constant UPGRADE_INTERFACE_VERSION = \"5.0.0\" */\n    tag_35:\n      callvalue\n      dup1\n      iszero\n      tag_197\n      jumpi\n      0x00\n      dup1\n      revert\n    tag_197:\n      pop\n      tag_198\n      tag_199\n      jump\t// in\n    tag_198:\n      mload(0x40)\n      tag_200\n      swap2\n      swap1\n      tag_201\n      jump\t// in\n    tag_200:\n      mload(0x40)\n      dup1\n      swap2\n      sub\n      swap1\n      return\n        /* \"DripWarrior/poolContract.sol\":15451:15776  function setflowToTreasuryPercentage(uint256 _newPerccentage) external onlyOwner {... */\n    tag_36:\n      callvalue\n      dup1\n      iszero\n      tag_202\n      jumpi\n      0x00\n      dup1\n      revert\n    tag_202:\n      pop\n      tag_203\n      0x04\n      dup1\n      calldatasize\n      sub\n      dup2\n      add\n      swap1\n      tag_204\n      swap2\n      swap1\n      tag_73\n      jump\t// in\n    tag_204:\n      tag_205\n      jump\t// in\n    tag_203:\n      stop\n        /* \"DripWarrior/poolContract.sol\":1083:1117  uint256 public ownerShipPoolAmount */\n    tag_37:\n      callvalue\n      dup1\n      iszero\n      tag_206\n      jumpi\n      0x00\n      dup1\n      revert\n    tag_206:\n      pop\n      tag_207\n      tag_208\n      jump\t// in\n    tag_207:\n      mload(0x40)\n      tag_209\n      swap2\n      swap1\n      tag_60\n      jump\t// in\n    tag_209:\n      mload(0x40)\n      dup1\n      swap2\n      sub\n      swap1\n      return\n        /* \"DripWarrior/poolContract.sol\":15111:15440  function setodividentPayoutPercentage(uint256 _newPerccentage) external onlyOwner {... */\n    tag_38:\n      callvalue\n      dup1\n      iszero\n      tag_210\n      jumpi\n      0x00\n      dup1\n      revert\n    tag_210:\n      pop\n      tag_211\n      0x04\n      dup1\n      calldatasize\n      sub\n      dup2\n      add\n      swap1\n      tag_212\n      swap2\n      swap1\n      tag_73\n      jump\t// in\n    tag_212:\n      tag_213\n      jump\t// in\n    tag_211:\n      stop\n        /* \"DripWarrior/poolContract.sol\":2198:2254  mapping(address => UserRegistered) public userRegistered */\n    tag_39:\n      callvalue\n      dup1\n      iszero\n      tag_214\n      jumpi\n      0x00\n      dup1\n      revert\n    tag_214:\n      pop\n      tag_215\n      0x04\n      dup1\n      calldatasize\n      sub\n      dup2\n      add\n      swap1\n      tag_216\n      swap2\n      swap1\n      tag_217\n      jump\t// in\n    tag_216:\n      tag_218\n      jump\t// in\n    tag_215:\n      mload(0x40)\n      tag_219\n      swap7\n      swap6\n      swap5\n      swap4\n      swap3\n      swap2\n      swap1\n      tag_220\n      jump\t// in\n    tag_219:\n      mload(0x40)\n      dup1\n      swap2\n      sub\n      swap1\n      return\n        /* \"DripWarrior/poolContract.sol\":3681:4422  function initialize(address initialOwner,address _usdcAddress,... */\n    tag_40:\n      callvalue\n      dup1\n      iszero\n      tag_221\n      jumpi\n      0x00\n      dup1\n      revert\n    tag_221:\n      pop\n      tag_222\n      0x04\n      dup1\n      calldatasize\n      sub\n      dup2\n      add\n      swap1\n      tag_223\n      swap2\n      swap1\n      tag_224\n      jump\t// in\n    tag_223:\n      tag_225\n      jump\t// in\n    tag_222:\n      stop\n        /* \"DripWarrior/poolContract.sol\":2043:2087  mapping(address => bool) public alreadyAdded */\n    tag_41:\n      callvalue\n      dup1\n      iszero\n      tag_226\n      jumpi\n      0x00\n      dup1\n      revert\n    tag_226:\n      pop\n      tag_227\n      0x04\n      dup1\n      calldatasize\n      sub\n      dup2\n      add\n      swap1\n      tag_228\n      swap2\n      swap1\n      tag_217\n      jump\t// in\n    tag_228:\n      tag_229\n      jump\t// in\n    tag_227:\n      mload(0x40)\n      tag_230\n      swap2\n      swap1\n      tag_88\n      jump\t// in\n    tag_230:\n      mload(0x40)\n      dup1\n      swap2\n      sub\n      swap1\n      return\n        /* \"DripWarrior/poolContract.sol\":1254:1293  uint256 public flowToTreasuryPercentage */\n    tag_42:\n      callvalue\n      dup1\n      iszero\n      tag_231\n      jumpi\n      0x00\n      dup1\n      revert\n    tag_231:\n      pop\n      tag_232\n      tag_233\n      jump\t// in\n    tag_232:\n      mload(0x40)\n      tag_234\n      swap2\n      swap1\n      tag_60\n      jump\t// in\n    tag_234:\n      mload(0x40)\n      dup1\n      swap2\n      sub\n      swap1\n      return\n        /* \"DripWarrior/poolContract.sol\":12538:12856  function setForwarderAddress(address forwarderAddress) external onlyOwner {... */\n    tag_43:\n      callvalue\n      dup1\n      iszero\n      tag_235\n      jumpi\n      0x00\n      dup1\n      revert\n    tag_235:\n      pop\n      tag_236\n      0x04\n      dup1\n      calldatasize\n      sub\n      dup2\n      add\n      swap1\n      tag_237\n      swap2\n      swap1\n      tag_217\n      jump\t// in\n    tag_237:\n      tag_238\n      jump\t// in\n    tag_236:\n      stop\n        /* \"DripWarrior/poolContract.sol\":13857:14411  function blockUser(address _userAddress, bool value) external onlyOwner {... */\n    tag_44:\n      callvalue\n      dup1\n      iszero\n      tag_239\n      jumpi\n      0x00\n      dup1\n      revert\n    tag_239:\n      pop\n      tag_240\n      0x04\n      dup1\n      calldatasize\n      sub\n      dup2\n      add\n      swap1\n      tag_241\n      swap2\n      swap1\n      tag_242\n      jump\t// in\n    tag_241:\n      tag_243\n      jump\t// in\n    tag_240:\n      stop\n        /* \"DripWarrior/poolContract.sol\":8026:9586  function weeklyTransfer() public  {... */\n    tag_45:\n      callvalue\n      dup1\n      iszero\n      tag_244\n      jumpi\n      0x00\n      dup1\n      revert\n    tag_244:\n      pop\n      tag_245\n      tag_246\n      jump\t// in\n    tag_245:\n      stop\n        /* \"DripWarrior/poolContract.sol\":14423:14765  function setTeasueryPercentages(uint256 _projectId,uint256 _newPerccentage) external onlyOwner {... */\n    tag_46:\n      callvalue\n      dup1\n      iszero\n      tag_247\n      jumpi\n      0x00\n      dup1\n      revert\n    tag_247:\n      pop\n      tag_248\n      0x04\n      dup1\n      calldatasize\n      sub\n      dup2\n      add\n      swap1\n      tag_249\n      swap2\n      swap1\n      tag_138\n      jump\t// in\n    tag_249:\n      tag_250\n      jump\t// in\n    tag_248:\n      stop\n        /* \"@openzeppelin/contracts-upgradeable/access/OwnableUpgradeable.sol\":3405:3620  function transferOwnership(address newOwner) public virtual onlyOwner {... */\n    tag_47:\n      callvalue\n      dup1\n      iszero\n      tag_251\n      jumpi\n      0x00\n      dup1\n      revert\n    tag_251:\n      pop\n      tag_252\n      0x04\n      dup1\n      calldatasize\n      sub\n      dup2\n      add\n      swap1\n      tag_253\n      swap2\n      swap1\n      tag_217\n      jump\t// in\n    tag_253:\n      tag_254\n      jump\t// in\n    tag_252:\n      stop\n        /* \"DripWarrior/poolContract.sol\":2144:2192  mapping(uint256 => uint256) public tPPercentages */\n    tag_48:\n      callvalue\n      dup1\n      iszero\n      tag_255\n      jumpi\n      0x00\n      dup1\n      revert\n    tag_255:\n      pop\n      tag_256\n      0x04\n      dup1\n      calldatasize\n      sub\n      dup2\n      add\n      swap1\n      tag_257\n      swap2\n      swap1\n      tag_73\n      jump\t// in\n    tag_257:\n      tag_258\n      jump\t// in\n    tag_256:\n      mload(0x40)\n      tag_259\n      swap2\n      swap1\n      tag_60\n      jump\t// in\n    tag_259:\n      mload(0x40)\n      dup1\n      swap2\n      sub\n      swap1\n      return\n        /* \"DripWarrior/poolContract.sol\":1344:1368  uint256 public noOfUsers */\n    tag_58:\n      sload(0x08)\n      dup2\n      jump\t// out\n        /* \"DripWarrior/poolContract.sol\":1010:1033  IBEP20 public usdcToken */\n    tag_63:\n      0x00\n      dup1\n      sload\n      swap1\n      0x0100\n      exp\n      swap1\n      div\n      0xffffffffffffffffffffffffffffffffffffffff\n      and\n      dup2\n      jump\t// out\n        /* \"DripWarrior/poolContract.sol\":1044:1077  uint256 public treasuryPoolAmount */\n    tag_68:\n      sload(0x01)\n      dup2\n      jump\t// out\n        /* \"DripWarrior/poolContract.sol\":4435:4772  function addProjects(uint256 _tPPercentage) external onlyOwner(){... */\n    tag_74:\n        /* \"@openzeppelin/contracts-upgradeable/access/OwnableUpgradeable.sol\":2334:2347  _checkOwner() */\n      tag_261\n        /* \"@openzeppelin/contracts-upgradeable/access/OwnableUpgradeable.sol\":2334:2345  _checkOwner */\n      tag_262\n        /* \"@openzeppelin/contracts-upgradeable/access/OwnableUpgradeable.sol\":2334:2347  _checkOwner() */\n      jump\t// in\n    tag_261:\n        /* \"DripWarrior/poolContract.sol\":4538:4539  0 */\n      0x00\n        /* \"DripWarrior/poolContract.sol\":4521:4534  _tPPercentage */\n      dup2\n        /* \"DripWarrior/poolContract.sol\":4521:4539  _tPPercentage <= 0 */\n      gt\n        /* \"DripWarrior/poolContract.sol\":4518:4602  if(_tPPercentage <= 0){... */\n      tag_264\n      jumpi\n        /* \"DripWarrior/poolContract.sol\":4577:4590  _tPPercentage */\n      dup1\n        /* \"DripWarrior/poolContract.sol\":4561:4591  wrongPercentage(_tPPercentage) */\n      mload(0x40)\n      0xcdbc633500000000000000000000000000000000000000000000000000000000\n      dup2\n      mstore\n      0x04\n      add\n      tag_265\n      swap2\n      swap1\n      tag_60\n      jump\t// in\n    tag_265:\n      mload(0x40)\n      dup1\n      swap2\n      sub\n      swap1\n      revert\n        /* \"DripWarrior/poolContract.sol\":4518:4602  if(_tPPercentage <= 0){... */\n    tag_264:\n        /* \"DripWarrior/poolContract.sol\":4643:4656  _tPPercentage */\n      dup1\n        /* \"DripWarrior/poolContract.sol\":4612:4625  tPPercentages */\n      0x12\n        /* \"DripWarrior/poolContract.sol\":4612:4640  tPPercentages[totalProjects] */\n      0x00\n        /* \"DripWarrior/poolContract.sol\":4626:4639  totalProjects */\n      sload(0x0f)\n        /* \"DripWarrior/poolContract.sol\":4612:4640  tPPercentages[totalProjects] */\n      dup2\n      mstore\n      0x20\n      add\n      swap1\n      dup2\n      mstore\n      0x20\n      add\n      0x00\n      keccak256\n        /* \"DripWarrior/poolContract.sol\":4612:4656  tPPercentages[totalProjects] = _tPPercentage */\n      dup2\n      swap1\n      sstore\n      pop\n        /* \"DripWarrior/poolContract.sol\":4666:4679  totalProjects */\n      0x0f\n      0x00\n        /* \"DripWarrior/poolContract.sol\":4666:4681  totalProjects++ */\n      dup2\n      sload\n      dup1\n      swap3\n      swap2\n      swap1\n      tag_266\n      swap1\n      tag_267\n      jump\t// in\n    tag_266:\n      swap2\n      swap1\n      pop\n      sstore\n      pop\n        /* \"DripWarrior/poolContract.sol\":4698:4765  AddProject((totalProjects), (10000 - _tPPercentage), _tPPercentage) */\n      0xe1976e16ed8ce8e740235978fbe69b27d5eea683b2e017bb0bd2fabb33294b3f\n        /* \"DripWarrior/poolContract.sol\":4710:4723  totalProjects */\n      sload(0x0f)\n        /* \"DripWarrior/poolContract.sol\":4735:4748  _tPPercentage */\n      dup3\n        /* \"DripWarrior/poolContract.sol\":4727:4732  10000 */\n      0x2710\n        /* \"DripWarrior/poolContract.sol\":4727:4748  10000 - _tPPercentage */\n      tag_268\n      swap2\n      swap1\n      tag_269\n      jump\t// in\n    tag_268:\n        /* \"DripWarrior/poolContract.sol\":4751:4764  _tPPercentage */\n      dup4\n        /* \"DripWarrior/poolContract.sol\":4698:4765  AddProject((totalProjects), (10000 - _tPPercentage), _tPPercentage) */\n      mload(0x40)\n      tag_270\n      swap4\n      swap3\n      swap2\n      swap1\n      tag_271\n      jump\t// in\n    tag_270:\n      mload(0x40)\n      dup1\n      swap2\n      sub\n      swap1\n      log1\n        /* \"DripWarrior/poolContract.sol\":4435:4772  function addProjects(uint256 _tPPercentage) external onlyOwner(){... */\n      pop\n      jump\t// out\n        /* \"DripWarrior/poolContract.sol\":1737:1770  address public s_forwarderAddress */\n    tag_77:\n      0x0e\n      0x00\n      swap1\n      sload\n      swap1\n      0x0100\n      exp\n      swap1\n      div\n      0xffffffffffffffffffffffffffffffffffffffff\n      and\n      dup2\n      jump\t// out\n        /* \"DripWarrior/poolContract.sol\":1539:1566  uint256 public realInterval */\n    tag_82:\n      sload(0x0b)\n      dup2\n      jump\t// out\n        /* \"DripWarrior/poolContract.sol\":1411:1432  bool public checkOnce */\n    tag_86:\n      0x09\n      0x14\n      swap1\n      sload\n      swap1\n      0x0100\n      exp\n      swap1\n      div\n      0xff\n      and\n      dup2\n      jump\t// out\n        /* \"DripWarrior/poolContract.sol\":1162:1202  uint256 public tdividentPayoutPercentage */\n    tag_91:\n      sload(0x04)\n      dup2\n      jump\t// out\n        /* \"DripWarrior/poolContract.sol\":1619:1646  uint256 public startingTime */\n    tag_95:\n      sload(0x0c)\n      dup2\n      jump\t// out\n        /* \"DripWarrior/poolContract.sol\":1299:1337  uint256 public maintainceFeePercentage */\n    tag_99:\n      sload(0x07)\n      dup2\n      jump\t// out\n        /* \"DripWarrior/poolContract.sol\":1653:1681  uint256 public lastTimeStamp */\n    tag_103:\n      sload(0x0d)\n      dup2\n      jump\t// out\n        /* \"DripWarrior/poolContract.sol\":1208:1248  uint256 public odividentPayoutPercentage */\n    tag_107:\n      sload(0x05)\n      dup2\n      jump\t// out\n        /* \"DripWarrior/poolContract.sol\":11001:11823  function performUpkeep(bytes calldata /*performData*/) external  {... */\n    tag_113:\n        /* \"DripWarrior/poolContract.sol\":11120:11138  s_forwarderAddress */\n      0x0e\n      0x00\n      swap1\n      sload\n      swap1\n      0x0100\n      exp\n      swap1\n      div\n      0xffffffffffffffffffffffffffffffffffffffff\n      and\n        /* \"DripWarrior/poolContract.sol\":11106:11138  msg.sender == s_forwarderAddress */\n      0xffffffffffffffffffffffffffffffffffffffff\n      and\n        /* \"DripWarrior/poolContract.sol\":11106:11116  msg.sender */\n      caller\n        /* \"DripWarrior/poolContract.sol\":11106:11138  msg.sender == s_forwarderAddress */\n      0xffffffffffffffffffffffffffffffffffffffff\n      and\n      eq\n        /* \"DripWarrior/poolContract.sol\":11085:11223  require(... */\n      tag_273\n      jumpi\n      mload(0x40)\n      0x08c379a000000000000000000000000000000000000000000000000000000000\n      dup2\n      mstore\n      0x04\n      add\n      tag_274\n      swap1\n      tag_275\n      jump\t// in\n    tag_274:\n      mload(0x40)\n      dup1\n      swap2\n      sub\n      swap1\n      revert\n    tag_273:\n        /* \"DripWarrior/poolContract.sol\":11257:11258  0 */\n      0x00\n        /* \"DripWarrior/poolContract.sol\":11245:11253  interval */\n      sload(0x0a)\n        /* \"DripWarrior/poolContract.sol\":11245:11258  interval == 0 */\n      sub\n        /* \"DripWarrior/poolContract.sol\":11241:11314  if (interval == 0){... */\n      tag_276\n      jumpi\n        /* \"DripWarrior/poolContract.sol\":11294:11302  interval */\n      sload(0x0a)\n        /* \"DripWarrior/poolContract.sol\":11280:11303  wrongInterval(interval) */\n      mload(0x40)\n      0x7154000700000000000000000000000000000000000000000000000000000000\n      dup2\n      mstore\n      0x04\n      add\n      tag_277\n      swap2\n      swap1\n      tag_60\n      jump\t// in\n    tag_277:\n      mload(0x40)\n      dup1\n      swap2\n      sub\n      swap1\n      revert\n        /* \"DripWarrior/poolContract.sol\":11241:11314  if (interval == 0){... */\n    tag_276:\n        /* \"DripWarrior/poolContract.sol\":11336:11345  checkOnce */\n      0x09\n      0x14\n      swap1\n      sload\n      swap1\n      0x0100\n      exp\n      swap1\n      div\n      0xff\n      and\n        /* \"DripWarrior/poolContract.sol\":11332:11736  if(!checkOnce){... */\n      tag_278\n      jumpi\n        /* \"DripWarrior/poolContract.sol\":11383:11395  startingTime */\n      sload(0x0c)\n        /* \"DripWarrior/poolContract.sol\":11364:11379  block.timestamp */\n      timestamp\n        /* \"DripWarrior/poolContract.sol\":11364:11395  block.timestamp >= startingTime */\n      lt\n        /* \"DripWarrior/poolContract.sol\":11361:11615  if(block.timestamp >= startingTime){... */\n      tag_279\n      jumpi\n        /* \"DripWarrior/poolContract.sol\":11430:11445  block.timestamp */\n      timestamp\n        /* \"DripWarrior/poolContract.sol\":11414:11427  lastTimeStamp */\n      0x0d\n        /* \"DripWarrior/poolContract.sol\":11414:11445  lastTimeStamp = block.timestamp */\n      dup2\n      swap1\n      sstore\n      pop\n        /* \"DripWarrior/poolContract.sol\":11463:11479  weeklyTransfer() */\n      tag_280\n        /* \"DripWarrior/poolContract.sol\":11463:11477  weeklyTransfer */\n      tag_246\n        /* \"DripWarrior/poolContract.sol\":11463:11479  weeklyTransfer() */\n      jump\t// in\n    tag_280:\n        /* \"DripWarrior/poolContract.sol\":11508:11520  realInterval */\n      sload(0x0b)\n        /* \"DripWarrior/poolContract.sol\":11497:11505  interval */\n      0x0a\n        /* \"DripWarrior/poolContract.sol\":11497:11520  interval = realInterval */\n      dup2\n      swap1\n      sstore\n      pop\n        /* \"DripWarrior/poolContract.sol\":11361:11615  if(block.timestamp >= startingTime){... */\n      jump(tag_281)\n    tag_279:\n        /* \"DripWarrior/poolContract.sol\":11587:11599  startingTime */\n      sload(0x0c)\n        /* \"DripWarrior/poolContract.sol\":11577:11600  wrongTime(startingTime) */\n      mload(0x40)\n      0x54593e7500000000000000000000000000000000000000000000000000000000\n      dup2\n      mstore\n      0x04\n      add\n      tag_282\n      swap2\n      swap1\n      tag_60\n      jump\t// in\n    tag_282:\n      mload(0x40)\n      dup1\n      swap2\n      sub\n      swap1\n      revert\n        /* \"DripWarrior/poolContract.sol\":11361:11615  if(block.timestamp >= startingTime){... */\n    tag_281:\n        /* \"DripWarrior/poolContract.sol\":11332:11736  if(!checkOnce){... */\n      jump(tag_283)\n    tag_278:\n        /* \"DripWarrior/poolContract.sol\":11680:11695  block.timestamp */\n      timestamp\n        /* \"DripWarrior/poolContract.sol\":11664:11677  lastTimeStamp */\n      0x0d\n        /* \"DripWarrior/poolContract.sol\":11664:11695  lastTimeStamp = block.timestamp */\n      dup2\n      swap1\n      sstore\n      pop\n        /* \"DripWarrior/poolContract.sol\":11709:11725  weeklyTransfer() */\n      tag_284\n        /* \"DripWarrior/poolContract.sol\":11709:11723  weeklyTransfer */\n      tag_246\n        /* \"DripWarrior/poolContract.sol\":11709:11725  weeklyTransfer() */\n      jump\t// in\n    tag_284:\n        /* \"DripWarrior/poolContract.sol\":11332:11736  if(!checkOnce){... */\n    tag_283:\n        /* \"DripWarrior/poolContract.sol\":11757:11766  checkOnce */\n      0x09\n      0x14\n      swap1\n      sload\n      swap1\n      0x0100\n      exp\n      swap1\n      div\n      0xff\n      and\n        /* \"DripWarrior/poolContract.sol\":11753:11808  if(!checkOnce){... */\n      tag_285\n      jumpi\n        /* \"DripWarrior/poolContract.sol\":11793:11797  true */\n      0x01\n        /* \"DripWarrior/poolContract.sol\":11781:11790  checkOnce */\n      0x09\n      0x14\n        /* \"DripWarrior/poolContract.sol\":11781:11797  checkOnce = true */\n      0x0100\n      exp\n      dup2\n      sload\n      dup2\n      0xff\n      mul\n      not\n      and\n      swap1\n      dup4\n      iszero\n      iszero\n      mul\n      or\n      swap1\n      sstore\n      pop\n        /* \"DripWarrior/poolContract.sol\":11753:11808  if(!checkOnce){... */\n    tag_285:\n        /* \"DripWarrior/poolContract.sol\":11001:11823  function performUpkeep(bytes calldata /*performData*/) external  {... */\n      pop\n      pop\n      jump\t// out\n        /* \"@openzeppelin/contracts-upgradeable/proxy/utils/UUPSUpgradeable.sol\":4158:4372  function upgradeToAndCall(address newImplementation, bytes memory data) public payable virtual onlyProxy {... */\n    tag_117:\n        /* \"@openzeppelin/contracts-upgradeable/proxy/utils/UUPSUpgradeable.sol\":2653:2666  _checkProxy() */\n      tag_287\n        /* \"@openzeppelin/contracts-upgradeable/proxy/utils/UUPSUpgradeable.sol\":2653:2664  _checkProxy */\n      tag_288\n        /* \"@openzeppelin/contracts-upgradeable/proxy/utils/UUPSUpgradeable.sol\":2653:2666  _checkProxy() */\n      jump\t// in\n    tag_287:\n        /* \"@openzeppelin/contracts-upgradeable/proxy/utils/UUPSUpgradeable.sol\":4273:4309  _authorizeUpgrade(newImplementation) */\n      tag_290\n        /* \"@openzeppelin/contracts-upgradeable/proxy/utils/UUPSUpgradeable.sol\":4291:4308  newImplementation */\n      dup3\n        /* \"@openzeppelin/contracts-upgradeable/proxy/utils/UUPSUpgradeable.sol\":4273:4290  _authorizeUpgrade */\n      tag_291\n        /* \"@openzeppelin/contracts-upgradeable/proxy/utils/UUPSUpgradeable.sol\":4273:4309  _authorizeUpgrade(newImplementation) */\n      jump\t// in\n    tag_290:\n        /* \"@openzeppelin/contracts-upgradeable/proxy/utils/UUPSUpgradeable.sol\":4319:4365  _upgradeToAndCallUUPS(newImplementation, data) */\n      tag_292\n        /* \"@openzeppelin/contracts-upgradeable/proxy/utils/UUPSUpgradeable.sol\":4341:4358  newImplementation */\n      dup3\n        /* \"@openzeppelin/contracts-upgradeable/proxy/utils/UUPSUpgradeable.sol\":4360:4364  data */\n      dup3\n        /* \"@openzeppelin/contracts-upgradeable/proxy/utils/UUPSUpgradeable.sol\":4319:4340  _upgradeToAndCallUUPS */\n      tag_293\n        /* \"@openzeppelin/contracts-upgradeable/proxy/utils/UUPSUpgradeable.sol\":4319:4365  _upgradeToAndCallUUPS(newImplementation, data) */\n      jump\t// in\n    tag_292:\n        /* \"@openzeppelin/contracts-upgradeable/proxy/utils/UUPSUpgradeable.sol\":4158:4372  function upgradeToAndCall(address newImplementation, bytes memory data) public payable virtual onlyProxy {... */\n      pop\n      pop\n      jump\t// out\n        /* \"DripWarrior/poolContract.sol\":5189:5589  function addTreasuery(uint256 _amount) external onlyOwner(){... */\n    tag_121:\n        /* \"@openzeppelin/contracts-upgradeable/access/OwnableUpgradeable.sol\":2334:2347  _checkOwner() */\n      tag_295\n        /* \"@openzeppelin/contracts-upgradeable/access/OwnableUpgradeable.sol\":2334:2345  _checkOwner */\n      tag_262\n        /* \"@openzeppelin/contracts-upgradeable/access/OwnableUpgradeable.sol\":2334:2347  _checkOwner() */\n      jump\t// in\n    tag_295:\n        /* \"DripWarrior/poolContract.sol\":5281:5282  0 */\n      0x00\n        /* \"DripWarrior/poolContract.sol\":5270:5277  _amount */\n      dup2\n        /* \"DripWarrior/poolContract.sol\":5270:5282  _amount <= 0 */\n      gt\n        /* \"DripWarrior/poolContract.sol\":5267:5335  if(_amount <= 0){... */\n      tag_297\n      jumpi\n        /* \"DripWarrior/poolContract.sol\":5316:5323  _amount */\n      dup1\n        /* \"DripWarrior/poolContract.sol\":5304:5324  wrongAmount(_amount) */\n      mload(0x40)\n      0x2ff4783000000000000000000000000000000000000000000000000000000000\n      dup2\n      mstore\n      0x04\n      add\n      tag_298\n      swap2\n      swap1\n      tag_60\n      jump\t// in\n    tag_298:\n      mload(0x40)\n      dup1\n      swap2\n      sub\n      swap1\n      revert\n        /* \"DripWarrior/poolContract.sol\":5267:5335  if(_amount <= 0){... */\n    tag_297:\n        /* \"DripWarrior/poolContract.sol\":5368:5375  _amount */\n      dup1\n        /* \"DripWarrior/poolContract.sol\":5346:5364  treasuryPoolAmount */\n      0x01\n      0x00\n        /* \"DripWarrior/poolContract.sol\":5346:5375  treasuryPoolAmount += _amount */\n      dup3\n      dup3\n      sload\n      tag_299\n      swap2\n      swap1\n      tag_300\n      jump\t// in\n    tag_299:\n      swap3\n      pop\n      pop\n      dup2\n      swap1\n      sstore\n      pop\n        /* \"DripWarrior/poolContract.sol\":5386:5398  bool success */\n      0x00\n        /* \"DripWarrior/poolContract.sol\":5401:5410  usdcToken */\n      dup1\n      0x00\n      swap1\n      sload\n      swap1\n      0x0100\n      exp\n      swap1\n      div\n      0xffffffffffffffffffffffffffffffffffffffff\n      and\n        /* \"DripWarrior/poolContract.sol\":5401:5423  usdcToken.transferFrom */\n      0xffffffffffffffffffffffffffffffffffffffff\n      and\n      0x23b872dd\n        /* \"DripWarrior/poolContract.sol\":5424:5434  msg.sender */\n      caller\n        /* \"DripWarrior/poolContract.sol\":5443:5447  this */\n      address\n        /* \"DripWarrior/poolContract.sol\":5449:5456  _amount */\n      dup6\n        /* \"DripWarrior/poolContract.sol\":5401:5458  usdcToken.transferFrom(msg.sender,address(this),_amount ) */\n      mload(0x40)\n      dup5\n      0xffffffff\n      and\n      0xe0\n      shl\n      dup2\n      mstore\n      0x04\n      add\n      tag_301\n      swap4\n      swap3\n      swap2\n      swap1\n      tag_302\n      jump\t// in\n    tag_301:\n      0x20\n      mload(0x40)\n      dup1\n      dup4\n      sub\n      dup2\n      0x00\n      dup8\n      gas\n      call\n      iszero\n      dup1\n      iszero\n      tag_304\n      jumpi\n      returndatasize\n      0x00\n      dup1\n      returndatacopy\n      revert(0x00, returndatasize)\n    tag_304:\n      pop\n      pop\n      pop\n      pop\n      mload(0x40)\n      returndatasize\n      not(0x1f)\n      0x1f\n      dup3\n      add\n      and\n      dup3\n      add\n      dup1\n      0x40\n      mstore\n      pop\n      dup2\n      add\n      swap1\n      tag_305\n      swap2\n      swap1\n      tag_306\n      jump\t// in\n    tag_305:\n        /* \"DripWarrior/poolContract.sol\":5386:5458  bool success = usdcToken.transferFrom(msg.sender,address(this),_amount ) */\n      swap1\n      pop\n        /* \"DripWarrior/poolContract.sol\":5472:5479  success */\n      dup1\n        /* \"DripWarrior/poolContract.sol\":5468:5535  if(!success){... */\n      tag_307\n      jumpi\n        /* \"DripWarrior/poolContract.sol\":5516:5523  success */\n      dup1\n        /* \"DripWarrior/poolContract.sol\":5501:5524  transferFailed(success) */\n      mload(0x40)\n      0xd85d3cef00000000000000000000000000000000000000000000000000000000\n      dup2\n      mstore\n      0x04\n      add\n      tag_308\n      swap2\n      swap1\n      tag_88\n      jump\t// in\n    tag_308:\n      mload(0x40)\n      dup1\n      swap2\n      sub\n      swap1\n      revert\n        /* \"DripWarrior/poolContract.sol\":5468:5535  if(!success){... */\n    tag_307:\n        /* \"DripWarrior/poolContract.sol\":5550:5582  AddTreasuery(treasuryPoolAmount) */\n      0xa9f166643ec132a11638e74e3c3a78d4ae278fcbf92998240e0e97676f54e404\n        /* \"DripWarrior/poolContract.sol\":5563:5581  treasuryPoolAmount */\n      sload(0x01)\n        /* \"DripWarrior/poolContract.sol\":5550:5582  AddTreasuery(treasuryPoolAmount) */\n      mload(0x40)\n      tag_309\n      swap2\n      swap1\n      tag_60\n      jump\t// in\n    tag_309:\n      mload(0x40)\n      dup1\n      swap2\n      sub\n      swap1\n      log1\n        /* \"DripWarrior/poolContract.sol\":5248:5589  {... */\n      pop\n        /* \"DripWarrior/poolContract.sol\":5189:5589  function addTreasuery(uint256 _amount) external onlyOwner(){... */\n      pop\n      jump\t// out\n        /* \"@openzeppelin/contracts-upgradeable/proxy/utils/UUPSUpgradeable.sol\":3705:3839  function proxiableUUID() external view virtual notDelegated returns (bytes32) {... */\n    tag_124:\n        /* \"@openzeppelin/contracts-upgradeable/proxy/utils/UUPSUpgradeable.sol\":3774:3781  bytes32 */\n      0x00\n        /* \"@openzeppelin/contracts-upgradeable/proxy/utils/UUPSUpgradeable.sol\":2924:2944  _checkNotDelegated() */\n      tag_311\n        /* \"@openzeppelin/contracts-upgradeable/proxy/utils/UUPSUpgradeable.sol\":2924:2942  _checkNotDelegated */\n      tag_312\n        /* \"@openzeppelin/contracts-upgradeable/proxy/utils/UUPSUpgradeable.sol\":2924:2944  _checkNotDelegated() */\n      jump\t// in\n    tag_311:\n        /* \"@openzeppelin/contracts/proxy/ERC1967/ERC1967Utils.sol\":1327:1393  0x360894a13ba1a3210667c828492db98dca3e2076cc3735a920a3ca505d382bbc */\n      0x360894a13ba1a3210667c828492db98dca3e2076cc3735a920a3ca505d382bbc\n        /* \"@openzeppelin/contracts-upgradeable/proxy/utils/UUPSUpgradeable.sol\":3800:3832  ERC1967Utils.IMPLEMENTATION_SLOT */\n      0x00\n      shl\n        /* \"@openzeppelin/contracts-upgradeable/proxy/utils/UUPSUpgradeable.sol\":3793:3832  return ERC1967Utils.IMPLEMENTATION_SLOT */\n      swap1\n      pop\n        /* \"@openzeppelin/contracts-upgradeable/proxy/utils/UUPSUpgradeable.sol\":3705:3839  function proxiableUUID() external view virtual notDelegated returns (bytes32) {... */\n      swap1\n      jump\t// out\n        /* \"DripWarrior/poolContract.sol\":1374:1404  address public multisigAddress */\n    tag_129:\n      0x09\n      0x00\n      swap1\n      sload\n      swap1\n      0x0100\n      exp\n      swap1\n      div\n      0xffffffffffffffffffffffffffffffffffffffff\n      and\n      dup2\n      jump\t// out\n        /* \"DripWarrior/poolContract.sol\":1123:1155  uint256 public totalStakedAmount */\n    tag_133:\n      sload(0x03)\n      dup2\n      jump\t// out\n        /* \"DripWarrior/poolContract.sol\":11835:12377  function setInterval (uint256 _startingTime, uint256 updateInterval) external  onlyOwner{... */\n    tag_139:\n        /* \"@openzeppelin/contracts-upgradeable/access/OwnableUpgradeable.sol\":2334:2347  _checkOwner() */\n      tag_315\n        /* \"@openzeppelin/contracts-upgradeable/access/OwnableUpgradeable.sol\":2334:2345  _checkOwner */\n      tag_262\n        /* \"@openzeppelin/contracts-upgradeable/access/OwnableUpgradeable.sol\":2334:2347  _checkOwner() */\n      jump\t// in\n    tag_315:\n        /* \"DripWarrior/poolContract.sol\":11963:11964  0 */\n      0x00\n        /* \"DripWarrior/poolContract.sol\":11945:11959  updateInterval */\n      dup2\n        /* \"DripWarrior/poolContract.sol\":11945:11964  updateInterval <= 0 */\n      gt\n        /* \"DripWarrior/poolContract.sol\":11942:12026  if(updateInterval <= 0){... */\n      tag_317\n      jumpi\n        /* \"DripWarrior/poolContract.sol\":12000:12014  updateInterval */\n      dup1\n        /* \"DripWarrior/poolContract.sol\":11986:12015  wrongInterval(updateInterval) */\n      mload(0x40)\n      0x7154000700000000000000000000000000000000000000000000000000000000\n      dup2\n      mstore\n      0x04\n      add\n      tag_318\n      swap2\n      swap1\n      tag_60\n      jump\t// in\n    tag_318:\n      mload(0x40)\n      dup1\n      swap2\n      sub\n      swap1\n      revert\n        /* \"DripWarrior/poolContract.sol\":11942:12026  if(updateInterval <= 0){... */\n    tag_317:\n        /* \"DripWarrior/poolContract.sol\":12063:12078  block.timestamp */\n      timestamp\n        /* \"DripWarrior/poolContract.sol\":12047:12060  _startingTime */\n      dup3\n        /* \"DripWarrior/poolContract.sol\":12047:12078  _startingTime < block.timestamp */\n      lt\n        /* \"DripWarrior/poolContract.sol\":12044:12135  if(_startingTime < block.timestamp){... */\n      iszero\n      tag_319\n      jumpi\n        /* \"DripWarrior/poolContract.sol\":12110:12123  _startingTime */\n      dup2\n        /* \"DripWarrior/poolContract.sol\":12100:12124  wrongTime(_startingTime) */\n      mload(0x40)\n      0x54593e7500000000000000000000000000000000000000000000000000000000\n      dup2\n      mstore\n      0x04\n      add\n      tag_320\n      swap2\n      swap1\n      tag_60\n      jump\t// in\n    tag_320:\n      mload(0x40)\n      dup1\n      swap2\n      sub\n      swap1\n      revert\n        /* \"DripWarrior/poolContract.sol\":12044:12135  if(_startingTime < block.timestamp){... */\n    tag_319:\n        /* \"DripWarrior/poolContract.sol\":12172:12187  block.timestamp */\n      timestamp\n        /* \"DripWarrior/poolContract.sol\":12156:12169  _startingTime */\n      dup3\n        /* \"DripWarrior/poolContract.sol\":12156:12187  _startingTime - block.timestamp */\n      tag_321\n      swap2\n      swap1\n      tag_269\n      jump\t// in\n    tag_321:\n        /* \"DripWarrior/poolContract.sol\":12145:12153  interval */\n      0x0a\n        /* \"DripWarrior/poolContract.sol\":12145:12187  interval = _startingTime - block.timestamp */\n      dup2\n      swap1\n      sstore\n      pop\n        /* \"DripWarrior/poolContract.sol\":12212:12225  _startingTime */\n      dup2\n        /* \"DripWarrior/poolContract.sol\":12197:12209  startingTime */\n      0x0c\n        /* \"DripWarrior/poolContract.sol\":12197:12225  startingTime = _startingTime */\n      dup2\n      swap1\n      sstore\n      pop\n        /* \"DripWarrior/poolContract.sol\":12251:12266  block.timestamp */\n      timestamp\n        /* \"DripWarrior/poolContract.sol\":12235:12248  lastTimeStamp */\n      0x0d\n        /* \"DripWarrior/poolContract.sol\":12235:12266  lastTimeStamp = block.timestamp */\n      dup2\n      swap1\n      sstore\n      pop\n        /* \"DripWarrior/poolContract.sol\":12291:12305  updateInterval */\n      dup1\n        /* \"DripWarrior/poolContract.sol\":12276:12288  realInterval */\n      0x0b\n        /* \"DripWarrior/poolContract.sol\":12276:12305  realInterval = updateInterval */\n      dup2\n      swap1\n      sstore\n      pop\n        /* \"DripWarrior/poolContract.sol\":12321:12369  SetInterval(msg.sender, interval, lastTimeStamp) */\n      0x2b5090e035d3026f5448298c9adc68db8bbc1b26a8af5c81b2b2a9fc07ca4a00\n        /* \"DripWarrior/poolContract.sol\":12333:12343  msg.sender */\n      caller\n        /* \"DripWarrior/poolContract.sol\":12345:12353  interval */\n      sload(0x0a)\n        /* \"DripWarrior/poolContract.sol\":12355:12368  lastTimeStamp */\n      sload(0x0d)\n        /* \"DripWarrior/poolContract.sol\":12321:12369  SetInterval(msg.sender, interval, lastTimeStamp) */\n      mload(0x40)\n      tag_322\n      swap4\n      swap3\n      swap2\n      swap1\n      tag_323\n      jump\t// in\n    tag_322:\n      mload(0x40)\n      dup1\n      swap2\n      sub\n      swap1\n      log1\n        /* \"DripWarrior/poolContract.sol\":11835:12377  function setInterval (uint256 _startingTime, uint256 updateInterval) external  onlyOwner{... */\n      pop\n      pop\n      jump\t// out\n        /* \"DripWarrior/poolContract.sol\":12383:12531  function off () external  onlyOwner{... */\n    tag_142:\n        /* \"@openzeppelin/contracts-upgradeable/access/OwnableUpgradeable.sol\":2334:2347  _checkOwner() */\n      tag_325\n        /* \"@openzeppelin/contracts-upgradeable/access/OwnableUpgradeable.sol\":2334:2345  _checkOwner */\n      tag_262\n        /* \"@openzeppelin/contracts-upgradeable/access/OwnableUpgradeable.sol\":2334:2347  _checkOwner() */\n      jump\t// in\n    tag_325:\n        /* \"DripWarrior/poolContract.sol\":12447:12448  0 */\n      0x00\n        /* \"DripWarrior/poolContract.sol\":12436:12444  interval */\n      0x0a\n        /* \"DripWarrior/poolContract.sol\":12436:12448  interval = 0 */\n      dup2\n      swap1\n      sstore\n      pop\n        /* \"DripWarrior/poolContract.sol\":12470:12475  false */\n      0x00\n        /* \"DripWarrior/poolContract.sol\":12458:12467  checkOnce */\n      0x09\n      0x14\n        /* \"DripWarrior/poolContract.sol\":12458:12475  checkOnce = false */\n      0x0100\n      exp\n      dup2\n      sload\n      dup2\n      0xff\n      mul\n      not\n      and\n      swap1\n      dup4\n      iszero\n      iszero\n      mul\n      or\n      swap1\n      sstore\n      pop\n        /* \"DripWarrior/poolContract.sol\":12491:12524  offInterval(msg.sender, interval) */\n      0x3b68dc4e210c46d3622293f2b941cdfde795bb6e17286bb289ba05a6a3b5541f\n        /* \"DripWarrior/poolContract.sol\":12503:12513  msg.sender */\n      caller\n        /* \"DripWarrior/poolContract.sol\":12515:12523  interval */\n      sload(0x0a)\n        /* \"DripWarrior/poolContract.sol\":12491:12524  offInterval(msg.sender, interval) */\n      mload(0x40)\n      tag_327\n      swap3\n      swap2\n      swap1\n      tag_328\n      jump\t// in\n    tag_327:\n      mload(0x40)\n      dup1\n      swap2\n      sub\n      swap1\n      log1\n        /* \"DripWarrior/poolContract.sol\":12383:12531  function off () external  onlyOwner{... */\n      jump\t// out\n        /* \"DripWarrior/poolContract.sol\":13274:13851  function userWithdrawAmoount(uint256 _amount) external nonReentrant {... */\n    tag_146:\n        /* \"DripWarrior/poolContract.sol\":16322:16328  locked */\n      0x09\n      0x15\n      swap1\n      sload\n      swap1\n      0x0100\n      exp\n      swap1\n      div\n      0xff\n      and\n        /* \"DripWarrior/poolContract.sol\":16321:16328  !locked */\n      iszero\n        /* \"DripWarrior/poolContract.sol\":16313:16364  require(!locked, \"ReentrancyGuard: reentrant call\") */\n      tag_330\n      jumpi\n      mload(0x40)\n      0x08c379a000000000000000000000000000000000000000000000000000000000\n      dup2\n      mstore\n      0x04\n      add\n      tag_331\n      swap1\n      tag_332\n      jump\t// in\n    tag_331:\n      mload(0x40)\n      dup1\n      swap2\n      sub\n      swap1\n      revert\n    tag_330:\n        /* \"DripWarrior/poolContract.sol\":16383:16387  true */\n      0x01\n        /* \"DripWarrior/poolContract.sol\":16374:16380  locked */\n      0x09\n      0x15\n        /* \"DripWarrior/poolContract.sol\":16374:16387  locked = true */\n      0x0100\n      exp\n      dup2\n      sload\n      dup2\n      0xff\n      mul\n      not\n      and\n      swap1\n      dup4\n      iszero\n      iszero\n      mul\n      or\n      swap1\n      sstore\n      pop\n        /* \"DripWarrior/poolContract.sol\":13375:13376  0 */\n      0x00\n        /* \"DripWarrior/poolContract.sol\":13364:13371  _amount */\n      dup2\n        /* \"DripWarrior/poolContract.sol\":13364:13376  _amount <= 0 */\n      gt\n        /* \"DripWarrior/poolContract.sol\":13361:13429  if(_amount <= 0){... */\n      tag_334\n      jumpi\n        /* \"DripWarrior/poolContract.sol\":13410:13417  _amount */\n      dup1\n        /* \"DripWarrior/poolContract.sol\":13398:13418  wrongAmount(_amount) */\n      mload(0x40)\n      0x2ff4783000000000000000000000000000000000000000000000000000000000\n      dup2\n      mstore\n      0x04\n      add\n      tag_335\n      swap2\n      swap1\n      tag_60\n      jump\t// in\n    tag_335:\n      mload(0x40)\n      dup1\n      swap2\n      sub\n      swap1\n      revert\n        /* \"DripWarrior/poolContract.sol\":13361:13429  if(_amount <= 0){... */\n    tag_334:\n        /* \"DripWarrior/poolContract.sol\":13457:13471  userRegistered */\n      0x13\n        /* \"DripWarrior/poolContract.sol\":13457:13483  userRegistered[msg.sender] */\n      0x00\n        /* \"DripWarrior/poolContract.sol\":13472:13482  msg.sender */\n      caller\n        /* \"DripWarrior/poolContract.sol\":13457:13483  userRegistered[msg.sender] */\n      0xffffffffffffffffffffffffffffffffffffffff\n      and\n      0xffffffffffffffffffffffffffffffffffffffff\n      and\n      dup2\n      mstore\n      0x20\n      add\n      swap1\n      dup2\n      mstore\n      0x20\n      add\n      0x00\n      keccak256\n        /* \"DripWarrior/poolContract.sol\":13457:13498  userRegistered[msg.sender].receivedAmount */\n      0x01\n      add\n      sload\n        /* \"DripWarrior/poolContract.sol\":13446:13453  _amount */\n      dup2\n        /* \"DripWarrior/poolContract.sol\":13446:13498  _amount <= userRegistered[msg.sender].receivedAmount */\n      gt\n      iszero\n        /* \"DripWarrior/poolContract.sol\":13438:13519  require(_amount <= userRegistered[msg.sender].receivedAmount, \"invalid _amount!\") */\n      tag_336\n      jumpi\n      mload(0x40)\n      0x08c379a000000000000000000000000000000000000000000000000000000000\n      dup2\n      mstore\n      0x04\n      add\n      tag_337\n      swap1\n      tag_338\n      jump\t// in\n    tag_337:\n      mload(0x40)\n      dup1\n      swap2\n      sub\n      swap1\n      revert\n    tag_336:\n        /* \"DripWarrior/poolContract.sol\":13575:13582  _amount */\n      dup1\n        /* \"DripWarrior/poolContract.sol\":13530:13544  userRegistered */\n      0x13\n        /* \"DripWarrior/poolContract.sol\":13530:13556  userRegistered[msg.sender] */\n      0x00\n        /* \"DripWarrior/poolContract.sol\":13545:13555  msg.sender */\n      caller\n        /* \"DripWarrior/poolContract.sol\":13530:13556  userRegistered[msg.sender] */\n      0xffffffffffffffffffffffffffffffffffffffff\n      and\n      0xffffffffffffffffffffffffffffffffffffffff\n      and\n      dup2\n      mstore\n      0x20\n      add\n      swap1\n      dup2\n      mstore\n      0x20\n      add\n      0x00\n      keccak256\n        /* \"DripWarrior/poolContract.sol\":13530:13571  userRegistered[msg.sender].receivedAmount */\n      0x01\n      add\n      0x00\n        /* \"DripWarrior/poolContract.sol\":13530:13582  userRegistered[msg.sender].receivedAmount -= _amount */\n      dup3\n      dup3\n      sload\n      tag_339\n      swap2\n      swap1\n      tag_269\n      jump\t// in\n    tag_339:\n      swap3\n      pop\n      pop\n      dup2\n      swap1\n      sstore\n      pop\n        /* \"DripWarrior/poolContract.sol\":13637:13644  _amount */\n      dup1\n        /* \"DripWarrior/poolContract.sol\":13592:13606  userRegistered */\n      0x13\n        /* \"DripWarrior/poolContract.sol\":13592:13618  userRegistered[msg.sender] */\n      0x00\n        /* \"DripWarrior/poolContract.sol\":13607:13617  msg.sender */\n      caller\n        /* \"DripWarrior/poolContract.sol\":13592:13618  userRegistered[msg.sender] */\n      0xffffffffffffffffffffffffffffffffffffffff\n      and\n      0xffffffffffffffffffffffffffffffffffffffff\n      and\n      dup2\n      mstore\n      0x20\n      add\n      swap1\n      dup2\n      mstore\n      0x20\n      add\n      0x00\n      keccak256\n        /* \"DripWarrior/poolContract.sol\":13592:13633  userRegistered[msg.sender].withdrawAmount */\n      0x02\n      add\n      0x00\n        /* \"DripWarrior/poolContract.sol\":13592:13644  userRegistered[msg.sender].withdrawAmount += _amount */\n      dup3\n      dup3\n      sload\n      tag_340\n      swap2\n      swap1\n      tag_300\n      jump\t// in\n    tag_340:\n      swap3\n      pop\n      pop\n      dup2\n      swap1\n      sstore\n      pop\n        /* \"DripWarrior/poolContract.sol\":13662:13674  bool success */\n      0x00\n        /* \"DripWarrior/poolContract.sol\":13677:13686  usdcToken */\n      dup1\n      0x00\n      swap1\n      sload\n      swap1\n      0x0100\n      exp\n      swap1\n      div\n      0xffffffffffffffffffffffffffffffffffffffff\n      and\n        /* \"DripWarrior/poolContract.sol\":13677:13695  usdcToken.transfer */\n      0xffffffffffffffffffffffffffffffffffffffff\n      and\n      0xa9059cbb\n        /* \"DripWarrior/poolContract.sol\":13696:13706  msg.sender */\n      caller\n        /* \"DripWarrior/poolContract.sol\":13707:13714  _amount */\n      dup5\n        /* \"DripWarrior/poolContract.sol\":13677:13715  usdcToken.transfer(msg.sender,_amount) */\n      mload(0x40)\n      dup4\n      0xffffffff\n      and\n      0xe0\n      shl\n      dup2\n      mstore\n      0x04\n      add\n      tag_341\n      swap3\n      swap2\n      swap1\n      tag_328\n      jump\t// in\n    tag_341:\n      0x20\n      mload(0x40)\n      dup1\n      dup4\n      sub\n      dup2\n      0x00\n      dup8\n      gas\n      call\n      iszero\n      dup1\n      iszero\n      tag_343\n      jumpi\n      returndatasize\n      0x00\n      dup1\n      returndatacopy\n      revert(0x00, returndatasize)\n    tag_343:\n      pop\n      pop\n      pop\n      pop\n      mload(0x40)\n      returndatasize\n      not(0x1f)\n      0x1f\n      dup3\n      add\n      and\n      dup3\n      add\n      dup1\n      0x40\n      mstore\n      pop\n      dup2\n      add\n      swap1\n      tag_344\n      swap2\n      swap1\n      tag_306\n      jump\t// in\n    tag_344:\n        /* \"DripWarrior/poolContract.sol\":13662:13715  bool success = usdcToken.transfer(msg.sender,_amount) */\n      swap1\n      pop\n        /* \"DripWarrior/poolContract.sol\":13737:13744  success */\n      dup1\n        /* \"DripWarrior/poolContract.sol\":13733:13800  if(!success){... */\n      tag_345\n      jumpi\n        /* \"DripWarrior/poolContract.sol\":13781:13788  success */\n      dup1\n        /* \"DripWarrior/poolContract.sol\":13766:13789  transferFailed(success) */\n      mload(0x40)\n      0xd85d3cef00000000000000000000000000000000000000000000000000000000\n      dup2\n      mstore\n      0x04\n      add\n      tag_346\n      swap2\n      swap1\n      tag_88\n      jump\t// in\n    tag_346:\n      mload(0x40)\n      dup1\n      swap2\n      sub\n      swap1\n      revert\n        /* \"DripWarrior/poolContract.sol\":13733:13800  if(!success){... */\n    tag_345:\n        /* \"DripWarrior/poolContract.sol\":13815:13844  Withdraw(msg.sender, _amount) */\n      0x884edad9ce6fa2440d8a54cc123490eb96d2768479d49ff9c7366125a9424364\n        /* \"DripWarrior/poolContract.sol\":13824:13834  msg.sender */\n      caller\n        /* \"DripWarrior/poolContract.sol\":13836:13843  _amount */\n      dup4\n        /* \"DripWarrior/poolContract.sol\":13815:13844  Withdraw(msg.sender, _amount) */\n      mload(0x40)\n      tag_347\n      swap3\n      swap2\n      swap1\n      tag_328\n      jump\t// in\n    tag_347:\n      mload(0x40)\n      dup1\n      swap2\n      sub\n      swap1\n      log1\n        /* \"DripWarrior/poolContract.sol\":13342:13851  {... */\n      pop\n        /* \"DripWarrior/poolContract.sol\":16417:16422  false */\n      0x00\n        /* \"DripWarrior/poolContract.sol\":16408:16414  locked */\n      0x09\n      0x15\n        /* \"DripWarrior/poolContract.sol\":16408:16422  locked = false */\n      0x0100\n      exp\n      dup2\n      sload\n      dup2\n      0xff\n      mul\n      not\n      and\n      swap1\n      dup4\n      iszero\n      iszero\n      mul\n      or\n      swap1\n      sstore\n      pop\n        /* \"DripWarrior/poolContract.sol\":13274:13851  function userWithdrawAmoount(uint256 _amount) external nonReentrant {... */\n      pop\n      jump\t// out\n        /* \"DripWarrior/poolContract.sol\":10755:10990  function checkUpkeep(bytes calldata /*checkData*/) external override view  returns (bool, bytes memory) {... */\n    tag_150:\n        /* \"DripWarrior/poolContract.sol\":10839:10843  bool */\n      0x00\n        /* \"DripWarrior/poolContract.sol\":10845:10857  bytes memory */\n      0x60\n        /* \"DripWarrior/poolContract.sol\":10879:10895  bool needsUpkeep */\n      0x00\n        /* \"DripWarrior/poolContract.sol\":10934:10942  interval */\n      sload(0x0a)\n        /* \"DripWarrior/poolContract.sol\":10917:10930  lastTimeStamp */\n      sload(0x0d)\n        /* \"DripWarrior/poolContract.sol\":10899:10914  block.timestamp */\n      timestamp\n        /* \"DripWarrior/poolContract.sol\":10899:10930  block.timestamp - lastTimeStamp */\n      tag_349\n      swap2\n      swap1\n      tag_269\n      jump\t// in\n    tag_349:\n        /* \"DripWarrior/poolContract.sol\":10898:10942  (block.timestamp - lastTimeStamp) > interval */\n      gt\n        /* \"DripWarrior/poolContract.sol\":10879:10942  bool needsUpkeep = (block.timestamp - lastTimeStamp) > interval */\n      swap1\n      pop\n        /* \"DripWarrior/poolContract.sol\":10960:10971  needsUpkeep */\n      dup1\n        /* \"DripWarrior/poolContract.sol\":10973:10982  bytes(\"\") */\n      mload(0x40)\n      dup1\n      0x20\n      add\n      0x40\n      mstore\n      dup1\n      0x00\n      dup2\n      mstore\n      pop\n        /* \"DripWarrior/poolContract.sol\":10952:10983  return (needsUpkeep, bytes(\"\")) */\n      swap3\n      pop\n      swap3\n      pop\n      pop\n        /* \"DripWarrior/poolContract.sol\":10755:10990  function checkUpkeep(bytes calldata /*checkData*/) external override view  returns (bool, bytes memory) {... */\n      swap3\n      pop\n      swap3\n      swap1\n      pop\n      jump\t// out\n        /* \"@openzeppelin/contracts-upgradeable/access/OwnableUpgradeable.sol\":3155:3256  function renounceOwnership() public virtual onlyOwner {... */\n    tag_155:\n        /* \"@openzeppelin/contracts-upgradeable/access/OwnableUpgradeable.sol\":2334:2347  _checkOwner() */\n      tag_351\n        /* \"@openzeppelin/contracts-upgradeable/access/OwnableUpgradeable.sol\":2334:2345  _checkOwner */\n      tag_262\n        /* \"@openzeppelin/contracts-upgradeable/access/OwnableUpgradeable.sol\":2334:2347  _checkOwner() */\n      jump\t// in\n    tag_351:\n        /* \"@openzeppelin/contracts-upgradeable/access/OwnableUpgradeable.sol\":3219:3249  _transferOwnership(address(0)) */\n      tag_353\n        /* \"@openzeppelin/contracts-upgradeable/access/OwnableUpgradeable.sol\":3246:3247  0 */\n      0x00\n        /* \"@openzeppelin/contracts-upgradeable/access/OwnableUpgradeable.sol\":3219:3237  _transferOwnership */\n      tag_354\n        /* \"@openzeppelin/contracts-upgradeable/access/OwnableUpgradeable.sol\":3219:3249  _transferOwnership(address(0)) */\n      jump\t// in\n    tag_353:\n        /* \"@openzeppelin/contracts-upgradeable/access/OwnableUpgradeable.sol\":3155:3256  function renounceOwnership() public virtual onlyOwner {... */\n      jump\t// out\n        /* \"DripWarrior/poolContract.sol\":5595:6397  function stakeTokens(uint256 _amount) external  {... */\n    tag_159:\n        /* \"DripWarrior/poolContract.sol\":5676:5677  0 */\n      0x00\n        /* \"DripWarrior/poolContract.sol\":5665:5672  _amount */\n      dup2\n        /* \"DripWarrior/poolContract.sol\":5665:5677  _amount <= 0 */\n      gt\n        /* \"DripWarrior/poolContract.sol\":5662:5730  if(_amount <= 0){... */\n      tag_356\n      jumpi\n        /* \"DripWarrior/poolContract.sol\":5711:5718  _amount */\n      dup1\n        /* \"DripWarrior/poolContract.sol\":5699:5719  wrongAmount(_amount) */\n      mload(0x40)\n      0x2ff4783000000000000000000000000000000000000000000000000000000000\n      dup2\n      mstore\n      0x04\n      add\n      tag_357\n      swap2\n      swap1\n      tag_60\n      jump\t// in\n    tag_357:\n      mload(0x40)\n      dup1\n      swap2\n      sub\n      swap1\n      revert\n        /* \"DripWarrior/poolContract.sol\":5662:5730  if(_amount <= 0){... */\n    tag_356:\n        /* \"DripWarrior/poolContract.sol\":5751:5765  userRegistered */\n      0x13\n        /* \"DripWarrior/poolContract.sol\":5751:5777  userRegistered[msg.sender] */\n      0x00\n        /* \"DripWarrior/poolContract.sol\":5766:5776  msg.sender */\n      caller\n        /* \"DripWarrior/poolContract.sol\":5751:5777  userRegistered[msg.sender] */\n      0xffffffffffffffffffffffffffffffffffffffff\n      and\n      0xffffffffffffffffffffffffffffffffffffffff\n      and\n      dup2\n      mstore\n      0x20\n      add\n      swap1\n      dup2\n      mstore\n      0x20\n      add\n      0x00\n      keccak256\n        /* \"DripWarrior/poolContract.sol\":5751:5785  userRegistered[msg.sender].blocked */\n      0x00\n      add\n      0x00\n      swap1\n      sload\n      swap1\n      0x0100\n      exp\n      swap1\n      div\n      0xff\n      and\n        /* \"DripWarrior/poolContract.sol\":5748:5865  if(userRegistered[msg.sender].blocked){... */\n      iszero\n      tag_358\n      jumpi\n        /* \"DripWarrior/poolContract.sol\":5819:5833  userRegistered */\n      0x13\n        /* \"DripWarrior/poolContract.sol\":5819:5845  userRegistered[msg.sender] */\n      0x00\n        /* \"DripWarrior/poolContract.sol\":5834:5844  msg.sender */\n      caller\n        /* \"DripWarrior/poolContract.sol\":5819:5845  userRegistered[msg.sender] */\n      0xffffffffffffffffffffffffffffffffffffffff\n      and\n      0xffffffffffffffffffffffffffffffffffffffff\n      and\n      dup2\n      mstore\n      0x20\n      add\n      swap1\n      dup2\n      mstore\n      0x20\n      add\n      0x00\n      keccak256\n        /* \"DripWarrior/poolContract.sol\":5819:5853  userRegistered[msg.sender].blocked */\n      0x00\n      add\n      0x00\n      swap1\n      sload\n      swap1\n      0x0100\n      exp\n      swap1\n      div\n      0xff\n      and\n        /* \"DripWarrior/poolContract.sol\":5807:5854  userBlocked(userRegistered[msg.sender].blocked) */\n      mload(0x40)\n      0x6fa5c3c000000000000000000000000000000000000000000000000000000000\n      dup2\n      mstore\n      0x04\n      add\n      tag_359\n      swap2\n      swap1\n      tag_88\n      jump\t// in\n    tag_359:\n      mload(0x40)\n      dup1\n      swap2\n      sub\n      swap1\n      revert\n        /* \"DripWarrior/poolContract.sol\":5748:5865  if(userRegistered[msg.sender].blocked){... */\n    tag_358:\n        /* \"DripWarrior/poolContract.sol\":5923:5930  _amount */\n      dup1\n        /* \"DripWarrior/poolContract.sol\":5875:5889  userRegistered */\n      0x13\n        /* \"DripWarrior/poolContract.sol\":5875:5901  userRegistered[msg.sender] */\n      0x00\n        /* \"DripWarrior/poolContract.sol\":5890:5900  msg.sender */\n      caller\n        /* \"DripWarrior/poolContract.sol\":5875:5901  userRegistered[msg.sender] */\n      0xffffffffffffffffffffffffffffffffffffffff\n      and\n      0xffffffffffffffffffffffffffffffffffffffff\n      and\n      dup2\n      mstore\n      0x20\n      add\n      swap1\n      dup2\n      mstore\n      0x20\n      add\n      0x00\n      keccak256\n        /* \"DripWarrior/poolContract.sol\":5875:5919  userRegistered[msg.sender].totalStakedAmount */\n      0x05\n      add\n      0x00\n        /* \"DripWarrior/poolContract.sol\":5875:5930  userRegistered[msg.sender].totalStakedAmount += _amount */\n      dup3\n      dup3\n      sload\n      tag_360\n      swap2\n      swap1\n      tag_300\n      jump\t// in\n    tag_360:\n      swap3\n      pop\n      pop\n      dup2\n      swap1\n      sstore\n      pop\n        /* \"DripWarrior/poolContract.sol\":5952:5964  alreadyAdded */\n      0x10\n        /* \"DripWarrior/poolContract.sol\":5952:5976  alreadyAdded[msg.sender] */\n      0x00\n        /* \"DripWarrior/poolContract.sol\":5965:5975  msg.sender */\n      caller\n        /* \"DripWarrior/poolContract.sol\":5952:5976  alreadyAdded[msg.sender] */\n      0xffffffffffffffffffffffffffffffffffffffff\n      and\n      0xffffffffffffffffffffffffffffffffffffffff\n      and\n      dup2\n      mstore\n      0x20\n      add\n      swap1\n      dup2\n      mstore\n      0x20\n      add\n      0x00\n      keccak256\n      0x00\n      swap1\n      sload\n      swap1\n      0x0100\n      exp\n      swap1\n      div\n      0xff\n      and\n        /* \"DripWarrior/poolContract.sol\":5948:6119  if(!alreadyAdded[msg.sender]){... */\n      tag_361\n      jumpi\n        /* \"DripWarrior/poolContract.sol\":6028:6038  msg.sender */\n      caller\n        /* \"DripWarrior/poolContract.sol\":6004:6014  totalUsers */\n      0x11\n        /* \"DripWarrior/poolContract.sol\":6004:6025  totalUsers[noOfUsers] */\n      0x00\n        /* \"DripWarrior/poolContract.sol\":6015:6024  noOfUsers */\n      sload(0x08)\n        /* \"DripWarrior/poolContract.sol\":6004:6025  totalUsers[noOfUsers] */\n      dup2\n      mstore\n      0x20\n      add\n      swap1\n      dup2\n      mstore\n      0x20\n      add\n      0x00\n      keccak256\n      0x00\n        /* \"DripWarrior/poolContract.sol\":6004:6038  totalUsers[noOfUsers] = msg.sender */\n      0x0100\n      exp\n      dup2\n      sload\n      dup2\n      0xffffffffffffffffffffffffffffffffffffffff\n      mul\n      not\n      and\n      swap1\n      dup4\n      0xffffffffffffffffffffffffffffffffffffffff\n      and\n      mul\n      or\n      swap1\n      sstore\n      pop\n        /* \"DripWarrior/poolContract.sol\":6079:6083  true */\n      0x01\n        /* \"DripWarrior/poolContract.sol\":6052:6064  alreadyAdded */\n      0x10\n        /* \"DripWarrior/poolContract.sol\":6052:6076  alreadyAdded[msg.sender] */\n      0x00\n        /* \"DripWarrior/poolContract.sol\":6065:6075  msg.sender */\n      caller\n        /* \"DripWarrior/poolContract.sol\":6052:6076  alreadyAdded[msg.sender] */\n      0xffffffffffffffffffffffffffffffffffffffff\n      and\n      0xffffffffffffffffffffffffffffffffffffffff\n      and\n      dup2\n      mstore\n      0x20\n      add\n      swap1\n      dup2\n      mstore\n      0x20\n      add\n      0x00\n      keccak256\n      0x00\n        /* \"DripWarrior/poolContract.sol\":6052:6083  alreadyAdded[msg.sender] = true */\n      0x0100\n      exp\n      dup2\n      sload\n      dup2\n      0xff\n      mul\n      not\n      and\n      swap1\n      dup4\n      iszero\n      iszero\n      mul\n      or\n      swap1\n      sstore\n      pop\n        /* \"DripWarrior/poolContract.sol\":6097:6106  noOfUsers */\n      0x08\n      0x00\n        /* \"DripWarrior/poolContract.sol\":6097:6108  noOfUsers++ */\n      dup2\n      sload\n      dup1\n      swap3\n      swap2\n      swap1\n      tag_362\n      swap1\n      tag_267\n      jump\t// in\n    tag_362:\n      swap2\n      swap1\n      pop\n      sstore\n      pop\n        /* \"DripWarrior/poolContract.sol\":5948:6119  if(!alreadyAdded[msg.sender]){... */\n    tag_361:\n        /* \"DripWarrior/poolContract.sol\":6150:6157  _amount */\n      dup1\n        /* \"DripWarrior/poolContract.sol\":6129:6146  totalStakedAmount */\n      0x03\n      0x00\n        /* \"DripWarrior/poolContract.sol\":6129:6157  totalStakedAmount += _amount */\n      dup3\n      dup3\n      sload\n      tag_363\n      swap2\n      swap1\n      tag_300\n      jump\t// in\n    tag_363:\n      swap3\n      pop\n      pop\n      dup2\n      swap1\n      sstore\n      pop\n        /* \"DripWarrior/poolContract.sol\":6168:6180  bool success */\n      0x00\n        /* \"DripWarrior/poolContract.sol\":6182:6191  usdcToken */\n      dup1\n      0x00\n      swap1\n      sload\n      swap1\n      0x0100\n      exp\n      swap1\n      div\n      0xffffffffffffffffffffffffffffffffffffffff\n      and\n        /* \"DripWarrior/poolContract.sol\":6182:6204  usdcToken.transferFrom */\n      0xffffffffffffffffffffffffffffffffffffffff\n      and\n      0x23b872dd\n        /* \"DripWarrior/poolContract.sol\":6205:6215  msg.sender */\n      caller\n        /* \"DripWarrior/poolContract.sol\":6216:6231  multisigAddress */\n      0x09\n      0x00\n      swap1\n      sload\n      swap1\n      0x0100\n      exp\n      swap1\n      div\n      0xffffffffffffffffffffffffffffffffffffffff\n      and\n        /* \"DripWarrior/poolContract.sol\":6232:6239  _amount */\n      dup6\n        /* \"DripWarrior/poolContract.sol\":6182:6240  usdcToken.transferFrom(msg.sender,multisigAddress,_amount) */\n      mload(0x40)\n      dup5\n      0xffffffff\n      and\n      0xe0\n      shl\n      dup2\n      mstore\n      0x04\n      add\n      tag_364\n      swap4\n      swap3\n      swap2\n      swap1\n      tag_302\n      jump\t// in\n    tag_364:\n      0x20\n      mload(0x40)\n      dup1\n      dup4\n      sub\n      dup2\n      0x00\n      dup8\n      gas\n      call\n      iszero\n      dup1\n      iszero\n      tag_366\n      jumpi\n      returndatasize\n      0x00\n      dup1\n      returndatacopy\n      revert(0x00, returndatasize)\n    tag_366:\n      pop\n      pop\n      pop\n      pop\n      mload(0x40)\n      returndatasize\n      not(0x1f)\n      0x1f\n      dup3\n      add\n      and\n      dup3\n      add\n      dup1\n      0x40\n      mstore\n      pop\n      dup2\n      add\n      swap1\n      tag_367\n      swap2\n      swap1\n      tag_306\n      jump\t// in\n    tag_367:\n        /* \"DripWarrior/poolContract.sol\":6168:6240  bool success =usdcToken.transferFrom(msg.sender,multisigAddress,_amount) */\n      swap1\n      pop\n        /* \"DripWarrior/poolContract.sol\":6263:6270  success */\n      dup1\n        /* \"DripWarrior/poolContract.sol\":6259:6326  if(!success){... */\n      tag_368\n      jumpi\n        /* \"DripWarrior/poolContract.sol\":6307:6314  success */\n      dup1\n        /* \"DripWarrior/poolContract.sol\":6292:6315  transferFailed(success) */\n      mload(0x40)\n      0xd85d3cef00000000000000000000000000000000000000000000000000000000\n      dup2\n      mstore\n      0x04\n      add\n      tag_369\n      swap2\n      swap1\n      tag_88\n      jump\t// in\n    tag_369:\n      mload(0x40)\n      dup1\n      swap2\n      sub\n      swap1\n      revert\n        /* \"DripWarrior/poolContract.sol\":6259:6326  if(!success){... */\n    tag_368:\n        /* \"DripWarrior/poolContract.sol\":6341:6389  StakeTokens(msg.sender,multisigAddress, _amount) */\n      0x14ee34c24635186d212f515353dadae9c226529edef2d1fcf5504cb33b5c25ab\n        /* \"DripWarrior/poolContract.sol\":6353:6363  msg.sender */\n      caller\n        /* \"DripWarrior/poolContract.sol\":6364:6379  multisigAddress */\n      0x09\n      0x00\n      swap1\n      sload\n      swap1\n      0x0100\n      exp\n      swap1\n      div\n      0xffffffffffffffffffffffffffffffffffffffff\n      and\n        /* \"DripWarrior/poolContract.sol\":6381:6388  _amount */\n      dup5\n        /* \"DripWarrior/poolContract.sol\":6341:6389  StakeTokens(msg.sender,multisigAddress, _amount) */\n      mload(0x40)\n      tag_370\n      swap4\n      swap3\n      swap2\n      swap1\n      tag_302\n      jump\t// in\n    tag_370:\n      mload(0x40)\n      dup1\n      swap2\n      sub\n      swap1\n      log1\n        /* \"DripWarrior/poolContract.sol\":5643:6397  {... */\n      pop\n        /* \"DripWarrior/poolContract.sol\":5595:6397  function stakeTokens(uint256 _amount) external  {... */\n      pop\n      jump\t// out\n        /* \"DripWarrior/poolContract.sol\":4778:5179  function addOwnership(uint256 _amount) external onlyOwner(){... */\n    tag_163:\n        /* \"@openzeppelin/contracts-upgradeable/access/OwnableUpgradeable.sol\":2334:2347  _checkOwner() */\n      tag_372\n        /* \"@openzeppelin/contracts-upgradeable/access/OwnableUpgradeable.sol\":2334:2345  _checkOwner */\n      tag_262\n        /* \"@openzeppelin/contracts-upgradeable/access/OwnableUpgradeable.sol\":2334:2347  _checkOwner() */\n      jump\t// in\n    tag_372:\n        /* \"DripWarrior/poolContract.sol\":4870:4871  0 */\n      0x00\n        /* \"DripWarrior/poolContract.sol\":4859:4866  _amount */\n      dup2\n        /* \"DripWarrior/poolContract.sol\":4859:4871  _amount <= 0 */\n      gt\n        /* \"DripWarrior/poolContract.sol\":4856:4924  if(_amount <= 0){... */\n      tag_374\n      jumpi\n        /* \"DripWarrior/poolContract.sol\":4905:4912  _amount */\n      dup1\n        /* \"DripWarrior/poolContract.sol\":4893:4913  wrongAmount(_amount) */\n      mload(0x40)\n      0x2ff4783000000000000000000000000000000000000000000000000000000000\n      dup2\n      mstore\n      0x04\n      add\n      tag_375\n      swap2\n      swap1\n      tag_60\n      jump\t// in\n    tag_375:\n      mload(0x40)\n      dup1\n      swap2\n      sub\n      swap1\n      revert\n        /* \"DripWarrior/poolContract.sol\":4856:4924  if(_amount <= 0){... */\n    tag_374:\n        /* \"DripWarrior/poolContract.sol\":4957:4964  _amount */\n      dup1\n        /* \"DripWarrior/poolContract.sol\":4934:4953  ownerShipPoolAmount */\n      0x02\n      0x00\n        /* \"DripWarrior/poolContract.sol\":4934:4964  ownerShipPoolAmount += _amount */\n      dup3\n      dup3\n      sload\n      tag_376\n      swap2\n      swap1\n      tag_300\n      jump\t// in\n    tag_376:\n      swap3\n      pop\n      pop\n      dup2\n      swap1\n      sstore\n      pop\n        /* \"DripWarrior/poolContract.sol\":4975:4987  bool success */\n      0x00\n        /* \"DripWarrior/poolContract.sol\":4990:4999  usdcToken */\n      dup1\n      0x00\n      swap1\n      sload\n      swap1\n      0x0100\n      exp\n      swap1\n      div\n      0xffffffffffffffffffffffffffffffffffffffff\n      and\n        /* \"DripWarrior/poolContract.sol\":4990:5012  usdcToken.transferFrom */\n      0xffffffffffffffffffffffffffffffffffffffff\n      and\n      0x23b872dd\n        /* \"DripWarrior/poolContract.sol\":5013:5023  msg.sender */\n      caller\n        /* \"DripWarrior/poolContract.sol\":5032:5036  this */\n      address\n        /* \"DripWarrior/poolContract.sol\":5038:5045  _amount */\n      dup6\n        /* \"DripWarrior/poolContract.sol\":4990:5047  usdcToken.transferFrom(msg.sender,address(this),_amount ) */\n      mload(0x40)\n      dup5\n      0xffffffff\n      and\n      0xe0\n      shl\n      dup2\n      mstore\n      0x04\n      add\n      tag_377\n      swap4\n      swap3\n      swap2\n      swap1\n      tag_302\n      jump\t// in\n    tag_377:\n      0x20\n      mload(0x40)\n      dup1\n      dup4\n      sub\n      dup2\n      0x00\n      dup8\n      gas\n      call\n      iszero\n      dup1\n      iszero\n      tag_379\n      jumpi\n      returndatasize\n      0x00\n      dup1\n      returndatacopy\n      revert(0x00, returndatasize)\n    tag_379:\n      pop\n      pop\n      pop\n      pop\n      mload(0x40)\n      returndatasize\n      not(0x1f)\n      0x1f\n      dup3\n      add\n      and\n      dup3\n      add\n      dup1\n      0x40\n      mstore\n      pop\n      dup2\n      add\n      swap1\n      tag_380\n      swap2\n      swap1\n      tag_306\n      jump\t// in\n    tag_380:\n        /* \"DripWarrior/poolContract.sol\":4975:5047  bool success = usdcToken.transferFrom(msg.sender,address(this),_amount ) */\n      swap1\n      pop\n        /* \"DripWarrior/poolContract.sol\":5061:5068  success */\n      dup1\n        /* \"DripWarrior/poolContract.sol\":5057:5124  if(!success){... */\n      tag_381\n      jumpi\n        /* \"DripWarrior/poolContract.sol\":5105:5112  success */\n      dup1\n        /* \"DripWarrior/poolContract.sol\":5090:5113  transferFailed(success) */\n      mload(0x40)\n      0xd85d3cef00000000000000000000000000000000000000000000000000000000\n      dup2\n      mstore\n      0x04\n      add\n      tag_382\n      swap2\n      swap1\n      tag_88\n      jump\t// in\n    tag_382:\n      mload(0x40)\n      dup1\n      swap2\n      sub\n      swap1\n      revert\n        /* \"DripWarrior/poolContract.sol\":5057:5124  if(!success){... */\n    tag_381:\n        /* \"DripWarrior/poolContract.sol\":5139:5172  AddOwnership(ownerShipPoolAmount) */\n      0x73834e1d1ee73ba659470a3603b888903853d3a3c9fda34e71c093a0e35cab94\n        /* \"DripWarrior/poolContract.sol\":5152:5171  ownerShipPoolAmount */\n      sload(0x02)\n        /* \"DripWarrior/poolContract.sol\":5139:5172  AddOwnership(ownerShipPoolAmount) */\n      mload(0x40)\n      tag_383\n      swap2\n      swap1\n      tag_60\n      jump\t// in\n    tag_383:\n      mload(0x40)\n      dup1\n      swap2\n      sub\n      swap1\n      log1\n        /* \"DripWarrior/poolContract.sol\":4837:5179  {... */\n      pop\n        /* \"DripWarrior/poolContract.sol\":4778:5179  function addOwnership(uint256 _amount) external onlyOwner(){... */\n      pop\n      jump\t// out\n        /* \"DripWarrior/poolContract.sol\":15782:16105  function setmaintainceFeePercentage(uint256 _newPerccentage) external onlyOwner {... */\n    tag_167:\n        /* \"@openzeppelin/contracts-upgradeable/access/OwnableUpgradeable.sol\":2334:2347  _checkOwner() */\n      tag_385\n        /* \"@openzeppelin/contracts-upgradeable/access/OwnableUpgradeable.sol\":2334:2345  _checkOwner */\n      tag_262\n        /* \"@openzeppelin/contracts-upgradeable/access/OwnableUpgradeable.sol\":2334:2347  _checkOwner() */\n      jump\t// in\n    tag_385:\n        /* \"DripWarrior/poolContract.sol\":15903:15904  0 */\n      0x00\n        /* \"DripWarrior/poolContract.sol\":15884:15899  _newPerccentage */\n      dup2\n        /* \"DripWarrior/poolContract.sol\":15884:15904  _newPerccentage <= 0 */\n      gt\n        /* \"DripWarrior/poolContract.sol\":15881:15969  if(_newPerccentage <= 0){... */\n      tag_387\n      jumpi\n        /* \"DripWarrior/poolContract.sol\":15942:15957  _newPerccentage */\n      dup1\n        /* \"DripWarrior/poolContract.sol\":15926:15958  wrongPercentage(_newPerccentage) */\n      mload(0x40)\n      0xcdbc633500000000000000000000000000000000000000000000000000000000\n      dup2\n      mstore\n      0x04\n      add\n      tag_388\n      swap2\n      swap1\n      tag_60\n      jump\t// in\n    tag_388:\n      mload(0x40)\n      dup1\n      swap2\n      sub\n      swap1\n      revert\n        /* \"DripWarrior/poolContract.sol\":15881:15969  if(_newPerccentage <= 0){... */\n    tag_387:\n        /* \"DripWarrior/poolContract.sol\":16013:16028  _newPerccentage */\n      dup1\n        /* \"DripWarrior/poolContract.sol\":15987:16010  maintainceFeePercentage */\n      0x07\n        /* \"DripWarrior/poolContract.sol\":15987:16028  maintainceFeePercentage = _newPerccentage */\n      dup2\n      swap1\n      sstore\n      pop\n        /* \"DripWarrior/poolContract.sol\":16044:16098  PercentageChanged(msg.sender, maintainceFeePercentage) */\n      0xb5671393c7c6980552e50a31e778921eb17d764c2e98fbf4d44fff524712def9\n        /* \"DripWarrior/poolContract.sol\":16062:16072  msg.sender */\n      caller\n        /* \"DripWarrior/poolContract.sol\":16074:16097  maintainceFeePercentage */\n      sload(0x07)\n        /* \"DripWarrior/poolContract.sol\":16044:16098  PercentageChanged(msg.sender, maintainceFeePercentage) */\n      mload(0x40)\n      tag_389\n      swap3\n      swap2\n      swap1\n      tag_328\n      jump\t// in\n    tag_389:\n      mload(0x40)\n      dup1\n      swap2\n      sub\n      swap1\n      log1\n        /* \"DripWarrior/poolContract.sol\":15782:16105  function setmaintainceFeePercentage(uint256 _newPerccentage) external onlyOwner {... */\n      pop\n      jump\t// out\n        /* \"DripWarrior/poolContract.sol\":14771:15101  function settdividentPayoutPercentage(uint256 _newPerccentage) external onlyOwner {... */\n    tag_171:\n        /* \"@openzeppelin/contracts-upgradeable/access/OwnableUpgradeable.sol\":2334:2347  _checkOwner() */\n      tag_391\n        /* \"@openzeppelin/contracts-upgradeable/access/OwnableUpgradeable.sol\":2334:2345  _checkOwner */\n      tag_262\n        /* \"@openzeppelin/contracts-upgradeable/access/OwnableUpgradeable.sol\":2334:2347  _checkOwner() */\n      jump\t// in\n    tag_391:\n        /* \"DripWarrior/poolContract.sol\":14894:14895  0 */\n      0x00\n        /* \"DripWarrior/poolContract.sol\":14875:14890  _newPerccentage */\n      dup2\n        /* \"DripWarrior/poolContract.sol\":14875:14895  _newPerccentage <= 0 */\n      gt\n        /* \"DripWarrior/poolContract.sol\":14872:14960  if(_newPerccentage <= 0){... */\n      tag_393\n      jumpi\n        /* \"DripWarrior/poolContract.sol\":14933:14948  _newPerccentage */\n      dup1\n        /* \"DripWarrior/poolContract.sol\":14917:14949  wrongPercentage(_newPerccentage) */\n      mload(0x40)\n      0xcdbc633500000000000000000000000000000000000000000000000000000000\n      dup2\n      mstore\n      0x04\n      add\n      tag_394\n      swap2\n      swap1\n      tag_60\n      jump\t// in\n    tag_394:\n      mload(0x40)\n      dup1\n      swap2\n      sub\n      swap1\n      revert\n        /* \"DripWarrior/poolContract.sol\":14872:14960  if(_newPerccentage <= 0){... */\n    tag_393:\n        /* \"DripWarrior/poolContract.sol\":15006:15021  _newPerccentage */\n      dup1\n        /* \"DripWarrior/poolContract.sol\":14978:15003  tdividentPayoutPercentage */\n      0x04\n        /* \"DripWarrior/poolContract.sol\":14978:15021  tdividentPayoutPercentage = _newPerccentage */\n      dup2\n      swap1\n      sstore\n      pop\n        /* \"DripWarrior/poolContract.sol\":15037:15093  PercentageChanged(msg.sender, tdividentPayoutPercentage) */\n      0xb5671393c7c6980552e50a31e778921eb17d764c2e98fbf4d44fff524712def9\n        /* \"DripWarrior/poolContract.sol\":15055:15065  msg.sender */\n      caller\n        /* \"DripWarrior/poolContract.sol\":15067:15092  tdividentPayoutPercentage */\n      sload(0x04)\n        /* \"DripWarrior/poolContract.sol\":15037:15093  PercentageChanged(msg.sender, tdividentPayoutPercentage) */\n      mload(0x40)\n      tag_395\n      swap3\n      swap2\n      swap1\n      tag_328\n      jump\t// in\n    tag_395:\n      mload(0x40)\n      dup1\n      swap2\n      sub\n      swap1\n      log1\n        /* \"DripWarrior/poolContract.sol\":14771:15101  function settdividentPayoutPercentage(uint256 _newPerccentage) external onlyOwner {... */\n      pop\n      jump\t// out\n        /* \"DripWarrior/poolContract.sol\":6403:7081  function reStakeTokens(uint256 _amount) external  {... */\n    tag_175:\n        /* \"DripWarrior/poolContract.sol\":6486:6487  0 */\n      0x00\n        /* \"DripWarrior/poolContract.sol\":6475:6482  _amount */\n      dup2\n        /* \"DripWarrior/poolContract.sol\":6475:6487  _amount <= 0 */\n      gt\n        /* \"DripWarrior/poolContract.sol\":6472:6540  if(_amount <= 0){... */\n      tag_397\n      jumpi\n        /* \"DripWarrior/poolContract.sol\":6521:6528  _amount */\n      dup1\n        /* \"DripWarrior/poolContract.sol\":6509:6529  wrongAmount(_amount) */\n      mload(0x40)\n      0x2ff4783000000000000000000000000000000000000000000000000000000000\n      dup2\n      mstore\n      0x04\n      add\n      tag_398\n      swap2\n      swap1\n      tag_60\n      jump\t// in\n    tag_398:\n      mload(0x40)\n      dup1\n      swap2\n      sub\n      swap1\n      revert\n        /* \"DripWarrior/poolContract.sol\":6472:6540  if(_amount <= 0){... */\n    tag_397:\n        /* \"DripWarrior/poolContract.sol\":6560:6574  userRegistered */\n      0x13\n        /* \"DripWarrior/poolContract.sol\":6560:6586  userRegistered[msg.sender] */\n      0x00\n        /* \"DripWarrior/poolContract.sol\":6575:6585  msg.sender */\n      caller\n        /* \"DripWarrior/poolContract.sol\":6560:6586  userRegistered[msg.sender] */\n      0xffffffffffffffffffffffffffffffffffffffff\n      and\n      0xffffffffffffffffffffffffffffffffffffffff\n      and\n      dup2\n      mstore\n      0x20\n      add\n      swap1\n      dup2\n      mstore\n      0x20\n      add\n      0x00\n      keccak256\n        /* \"DripWarrior/poolContract.sol\":6560:6594  userRegistered[msg.sender].blocked */\n      0x00\n      add\n      0x00\n      swap1\n      sload\n      swap1\n      0x0100\n      exp\n      swap1\n      div\n      0xff\n      and\n        /* \"DripWarrior/poolContract.sol\":6557:6674  if(userRegistered[msg.sender].blocked){... */\n      iszero\n      tag_399\n      jumpi\n        /* \"DripWarrior/poolContract.sol\":6628:6642  userRegistered */\n      0x13\n        /* \"DripWarrior/poolContract.sol\":6628:6654  userRegistered[msg.sender] */\n      0x00\n        /* \"DripWarrior/poolContract.sol\":6643:6653  msg.sender */\n      caller\n        /* \"DripWarrior/poolContract.sol\":6628:6654  userRegistered[msg.sender] */\n      0xffffffffffffffffffffffffffffffffffffffff\n      and\n      0xffffffffffffffffffffffffffffffffffffffff\n      and\n      dup2\n      mstore\n      0x20\n      add\n      swap1\n      dup2\n      mstore\n      0x20\n      add\n      0x00\n      keccak256\n        /* \"DripWarrior/poolContract.sol\":6628:6662  userRegistered[msg.sender].blocked */\n      0x00\n      add\n      0x00\n      swap1\n      sload\n      swap1\n      0x0100\n      exp\n      swap1\n      div\n      0xff\n      and\n        /* \"DripWarrior/poolContract.sol\":6616:6663  userBlocked(userRegistered[msg.sender].blocked) */\n      mload(0x40)\n      0x6fa5c3c000000000000000000000000000000000000000000000000000000000\n      dup2\n      mstore\n      0x04\n      add\n      tag_400\n      swap2\n      swap1\n      tag_88\n      jump\t// in\n    tag_400:\n      mload(0x40)\n      dup1\n      swap2\n      sub\n      swap1\n      revert\n        /* \"DripWarrior/poolContract.sol\":6557:6674  if(userRegistered[msg.sender].blocked){... */\n    tag_399:\n        /* \"DripWarrior/poolContract.sol\":6732:6739  _amount */\n      dup1\n        /* \"DripWarrior/poolContract.sol\":6687:6701  userRegistered */\n      0x13\n        /* \"DripWarrior/poolContract.sol\":6687:6713  userRegistered[msg.sender] */\n      0x00\n        /* \"DripWarrior/poolContract.sol\":6702:6712  msg.sender */\n      caller\n        /* \"DripWarrior/poolContract.sol\":6687:6713  userRegistered[msg.sender] */\n      0xffffffffffffffffffffffffffffffffffffffff\n      and\n      0xffffffffffffffffffffffffffffffffffffffff\n      and\n      dup2\n      mstore\n      0x20\n      add\n      swap1\n      dup2\n      mstore\n      0x20\n      add\n      0x00\n      keccak256\n        /* \"DripWarrior/poolContract.sol\":6687:6728  userRegistered[msg.sender].receivedAmount */\n      0x01\n      add\n      sload\n        /* \"DripWarrior/poolContract.sol\":6687:6739  userRegistered[msg.sender].receivedAmount <= _amount */\n      gt\n        /* \"DripWarrior/poolContract.sol\":6684:6797  if(userRegistered[msg.sender].receivedAmount <= _amount){... */\n      tag_401\n      jumpi\n        /* \"DripWarrior/poolContract.sol\":6778:6785  _amount */\n      dup1\n        /* \"DripWarrior/poolContract.sol\":6761:6786  notEnoughBalance(_amount) */\n      mload(0x40)\n      0x31b6e35800000000000000000000000000000000000000000000000000000000\n      dup2\n      mstore\n      0x04\n      add\n      tag_402\n      swap2\n      swap1\n      tag_60\n      jump\t// in\n    tag_402:\n      mload(0x40)\n      dup1\n      swap2\n      sub\n      swap1\n      revert\n        /* \"DripWarrior/poolContract.sol\":6684:6797  if(userRegistered[msg.sender].receivedAmount <= _amount){... */\n    tag_401:\n        /* \"DripWarrior/poolContract.sol\":6852:6859  _amount */\n      dup1\n        /* \"DripWarrior/poolContract.sol\":6807:6821  userRegistered */\n      0x13\n        /* \"DripWarrior/poolContract.sol\":6807:6833  userRegistered[msg.sender] */\n      0x00\n        /* \"DripWarrior/poolContract.sol\":6822:6832  msg.sender */\n      caller\n        /* \"DripWarrior/poolContract.sol\":6807:6833  userRegistered[msg.sender] */\n      0xffffffffffffffffffffffffffffffffffffffff\n      and\n      0xffffffffffffffffffffffffffffffffffffffff\n      and\n      dup2\n      mstore\n      0x20\n      add\n      swap1\n      dup2\n      mstore\n      0x20\n      add\n      0x00\n      keccak256\n        /* \"DripWarrior/poolContract.sol\":6807:6848  userRegistered[msg.sender].receivedAmount */\n      0x01\n      add\n      0x00\n        /* \"DripWarrior/poolContract.sol\":6807:6859  userRegistered[msg.sender].receivedAmount -= _amount */\n      dup3\n      dup3\n      sload\n      tag_403\n      swap2\n      swap1\n      tag_269\n      jump\t// in\n    tag_403:\n      swap3\n      pop\n      pop\n      dup2\n      swap1\n      sstore\n      pop\n        /* \"DripWarrior/poolContract.sol\":6917:6924  _amount */\n      dup1\n        /* \"DripWarrior/poolContract.sol\":6869:6883  userRegistered */\n      0x13\n        /* \"DripWarrior/poolContract.sol\":6869:6895  userRegistered[msg.sender] */\n      0x00\n        /* \"DripWarrior/poolContract.sol\":6884:6894  msg.sender */\n      caller\n        /* \"DripWarrior/poolContract.sol\":6869:6895  userRegistered[msg.sender] */\n      0xffffffffffffffffffffffffffffffffffffffff\n      and\n      0xffffffffffffffffffffffffffffffffffffffff\n      and\n      dup2\n      mstore\n      0x20\n      add\n      swap1\n      dup2\n      mstore\n      0x20\n      add\n      0x00\n      keccak256\n        /* \"DripWarrior/poolContract.sol\":6869:6913  userRegistered[msg.sender].totalStakedAmount */\n      0x05\n      add\n      0x00\n        /* \"DripWarrior/poolContract.sol\":6869:6924  userRegistered[msg.sender].totalStakedAmount += _amount */\n      dup3\n      dup3\n      sload\n      tag_404\n      swap2\n      swap1\n      tag_300\n      jump\t// in\n    tag_404:\n      swap3\n      pop\n      pop\n      dup2\n      swap1\n      sstore\n      pop\n        /* \"DripWarrior/poolContract.sol\":6966:6973  _amount */\n      dup1\n        /* \"DripWarrior/poolContract.sol\":6943:6962  ownerShipPoolAmount */\n      0x02\n      0x00\n        /* \"DripWarrior/poolContract.sol\":6943:6973  ownerShipPoolAmount += _amount */\n      dup3\n      dup3\n      sload\n      tag_405\n      swap2\n      swap1\n      tag_300\n      jump\t// in\n    tag_405:\n      swap3\n      pop\n      pop\n      dup2\n      swap1\n      sstore\n      pop\n        /* \"DripWarrior/poolContract.sol\":7004:7011  _amount */\n      dup1\n        /* \"DripWarrior/poolContract.sol\":6983:7000  totalStakedAmount */\n      0x03\n      0x00\n        /* \"DripWarrior/poolContract.sol\":6983:7011  totalStakedAmount += _amount */\n      dup3\n      dup3\n      sload\n      tag_406\n      swap2\n      swap1\n      tag_300\n      jump\t// in\n    tag_406:\n      swap3\n      pop\n      pop\n      dup2\n      swap1\n      sstore\n      pop\n        /* \"DripWarrior/poolContract.sol\":7027:7073  StakeTokens(msg.sender,address(this), _amount) */\n      0x14ee34c24635186d212f515353dadae9c226529edef2d1fcf5504cb33b5c25ab\n        /* \"DripWarrior/poolContract.sol\":7039:7049  msg.sender */\n      caller\n        /* \"DripWarrior/poolContract.sol\":7058:7062  this */\n      address\n        /* \"DripWarrior/poolContract.sol\":7065:7072  _amount */\n      dup4\n        /* \"DripWarrior/poolContract.sol\":7027:7073  StakeTokens(msg.sender,address(this), _amount) */\n      mload(0x40)\n      tag_407\n      swap4\n      swap3\n      swap2\n      swap1\n      tag_302\n      jump\t// in\n    tag_407:\n      mload(0x40)\n      dup1\n      swap2\n      sub\n      swap1\n      log1\n        /* \"DripWarrior/poolContract.sol\":6403:7081  function reStakeTokens(uint256 _amount) external  {... */\n      pop\n      jump\t// out\n        /* \"DripWarrior/poolContract.sol\":7091:7632  function addFunds(uint256 _amount, uint256 _projectNo)   external {... */\n    tag_179:\n        /* \"DripWarrior/poolContract.sol\":7182:7183  0 */\n      0x00\n        /* \"DripWarrior/poolContract.sol\":7171:7178  _amount */\n      dup3\n        /* \"DripWarrior/poolContract.sol\":7171:7183  _amount <= 0 */\n      gt\n        /* \"DripWarrior/poolContract.sol\":7168:7236  if(_amount <= 0){... */\n      tag_409\n      jumpi\n        /* \"DripWarrior/poolContract.sol\":7217:7224  _amount */\n      dup2\n        /* \"DripWarrior/poolContract.sol\":7205:7225  wrongAmount(_amount) */\n      mload(0x40)\n      0x2ff4783000000000000000000000000000000000000000000000000000000000\n      dup2\n      mstore\n      0x04\n      add\n      tag_410\n      swap2\n      swap1\n      tag_60\n      jump\t// in\n    tag_410:\n      mload(0x40)\n      dup1\n      swap2\n      sub\n      swap1\n      revert\n        /* \"DripWarrior/poolContract.sol\":7168:7236  if(_amount <= 0){... */\n    tag_409:\n        /* \"DripWarrior/poolContract.sol\":7262:7275  totalProjects */\n      sload(0x0f)\n        /* \"DripWarrior/poolContract.sol\":7249:7259  _projectNo */\n      dup2\n        /* \"DripWarrior/poolContract.sol\":7249:7275  _projectNo > totalProjects */\n      gt\n        /* \"DripWarrior/poolContract.sol\":7246:7334  if(_projectNo > totalProjects){... */\n      iszero\n      tag_411\n      jumpi\n        /* \"DripWarrior/poolContract.sol\":7312:7322  _projectNo */\n      dup1\n        /* \"DripWarrior/poolContract.sol\":7297:7323  wrongProjectNo(_projectNo) */\n      mload(0x40)\n      0x222a50f300000000000000000000000000000000000000000000000000000000\n      dup2\n      mstore\n      0x04\n      add\n      tag_412\n      swap2\n      swap1\n      tag_60\n      jump\t// in\n    tag_412:\n      mload(0x40)\n      dup1\n      swap2\n      sub\n      swap1\n      revert\n        /* \"DripWarrior/poolContract.sol\":7246:7334  if(_projectNo > totalProjects){... */\n    tag_411:\n        /* \"DripWarrior/poolContract.sol\":7356:7405  calculateFees(_amount, tPPercentages[_projectNo]) */\n      tag_413\n        /* \"DripWarrior/poolContract.sol\":7370:7377  _amount */\n      dup3\n        /* \"DripWarrior/poolContract.sol\":7379:7392  tPPercentages */\n      0x12\n        /* \"DripWarrior/poolContract.sol\":7379:7404  tPPercentages[_projectNo] */\n      0x00\n        /* \"DripWarrior/poolContract.sol\":7393:7403  _projectNo */\n      dup5\n        /* \"DripWarrior/poolContract.sol\":7379:7404  tPPercentages[_projectNo] */\n      dup2\n      mstore\n      0x20\n      add\n      swap1\n      dup2\n      mstore\n      0x20\n      add\n      0x00\n      keccak256\n      sload\n        /* \"DripWarrior/poolContract.sol\":7356:7369  calculateFees */\n      tag_414\n        /* \"DripWarrior/poolContract.sol\":7356:7405  calculateFees(_amount, tPPercentages[_projectNo]) */\n      jump\t// in\n    tag_413:\n        /* \"DripWarrior/poolContract.sol\":7424:7436  bool success */\n      0x00\n        /* \"DripWarrior/poolContract.sol\":7439:7448  usdcToken */\n      dup1\n      0x00\n      swap1\n      sload\n      swap1\n      0x0100\n      exp\n      swap1\n      div\n      0xffffffffffffffffffffffffffffffffffffffff\n      and\n        /* \"DripWarrior/poolContract.sol\":7439:7461  usdcToken.transferFrom */\n      0xffffffffffffffffffffffffffffffffffffffff\n      and\n      0x23b872dd\n        /* \"DripWarrior/poolContract.sol\":7462:7472  msg.sender */\n      caller\n        /* \"DripWarrior/poolContract.sol\":7481:7485  this */\n      address\n        /* \"DripWarrior/poolContract.sol\":7487:7494  _amount */\n      dup7\n        /* \"DripWarrior/poolContract.sol\":7439:7496  usdcToken.transferFrom(msg.sender,address(this),_amount ) */\n      mload(0x40)\n      dup5\n      0xffffffff\n      and\n      0xe0\n      shl\n      dup2\n      mstore\n      0x04\n      add\n      tag_415\n      swap4\n      swap3\n      swap2\n      swap1\n      tag_302\n      jump\t// in\n    tag_415:\n      0x20\n      mload(0x40)\n      dup1\n      dup4\n      sub\n      dup2\n      0x00\n      dup8\n      gas\n      call\n      iszero\n      dup1\n      iszero\n      tag_417\n      jumpi\n      returndatasize\n      0x00\n      dup1\n      returndatacopy\n      revert(0x00, returndatasize)\n    tag_417:\n      pop\n      pop\n      pop\n      pop\n      mload(0x40)\n      returndatasize\n      not(0x1f)\n      0x1f\n      dup3\n      add\n      and\n      dup3\n      add\n      dup1\n      0x40\n      mstore\n      pop\n      dup2\n      add\n      swap1\n      tag_418\n      swap2\n      swap1\n      tag_306\n      jump\t// in\n    tag_418:\n        /* \"DripWarrior/poolContract.sol\":7424:7496  bool success = usdcToken.transferFrom(msg.sender,address(this),_amount ) */\n      swap1\n      pop\n        /* \"DripWarrior/poolContract.sol\":7510:7517  success */\n      dup1\n        /* \"DripWarrior/poolContract.sol\":7506:7573  if(!success){... */\n      tag_419\n      jumpi\n        /* \"DripWarrior/poolContract.sol\":7554:7561  success */\n      dup1\n        /* \"DripWarrior/poolContract.sol\":7539:7562  transferFailed(success) */\n      mload(0x40)\n      0xd85d3cef00000000000000000000000000000000000000000000000000000000\n      dup2\n      mstore\n      0x04\n      add\n      tag_420\n      swap2\n      swap1\n      tag_88\n      jump\t// in\n    tag_420:\n      mload(0x40)\n      dup1\n      swap2\n      sub\n      swap1\n      revert\n        /* \"DripWarrior/poolContract.sol\":7506:7573  if(!success){... */\n    tag_419:\n        /* \"DripWarrior/poolContract.sol\":7588:7616  AddFunds(_amount,_projectNo) */\n      0xa89b69c5958ec1ccf0df0de746a8708f5b6a6b429430129f16f46f44b319c900\n        /* \"DripWarrior/poolContract.sol\":7597:7604  _amount */\n      dup4\n        /* \"DripWarrior/poolContract.sol\":7605:7615  _projectNo */\n      dup4\n        /* \"DripWarrior/poolContract.sol\":7588:7616  AddFunds(_amount,_projectNo) */\n      mload(0x40)\n      tag_421\n      swap3\n      swap2\n      swap1\n      tag_422\n      jump\t// in\n    tag_421:\n      mload(0x40)\n      dup1\n      swap2\n      sub\n      swap1\n      log1\n        /* \"DripWarrior/poolContract.sol\":7157:7632  {... */\n      pop\n        /* \"DripWarrior/poolContract.sol\":7091:7632  function addFunds(uint256 _amount, uint256 _projectNo)   external {... */\n      pop\n      pop\n      jump\t// out\n        /* \"@openzeppelin/contracts-upgradeable/access/OwnableUpgradeable.sol\":2441:2585  function owner() public view virtual returns (address) {... */\n    tag_182:\n        /* \"@openzeppelin/contracts-upgradeable/access/OwnableUpgradeable.sol\":2487:2494  address */\n      0x00\n        /* \"@openzeppelin/contracts-upgradeable/access/OwnableUpgradeable.sol\":2506:2530  OwnableStorage storage $ */\n      dup1\n        /* \"@openzeppelin/contracts-upgradeable/access/OwnableUpgradeable.sol\":2533:2553  _getOwnableStorage() */\n      tag_424\n        /* \"@openzeppelin/contracts-upgradeable/access/OwnableUpgradeable.sol\":2533:2551  _getOwnableStorage */\n      tag_425\n        /* \"@openzeppelin/contracts-upgradeable/access/OwnableUpgradeable.sol\":2533:2553  _getOwnableStorage() */\n      jump\t// in\n    tag_424:\n        /* \"@openzeppelin/contracts-upgradeable/access/OwnableUpgradeable.sol\":2506:2553  OwnableStorage storage $ = _getOwnableStorage() */\n      swap1\n      pop\n        /* \"@openzeppelin/contracts-upgradeable/access/OwnableUpgradeable.sol\":2570:2571  $ */\n      dup1\n        /* \"@openzeppelin/contracts-upgradeable/access/OwnableUpgradeable.sol\":2570:2578  $._owner */\n      0x00\n      add\n      0x00\n      swap1\n      sload\n      swap1\n      0x0100\n      exp\n      swap1\n      div\n      0xffffffffffffffffffffffffffffffffffffffff\n      and\n        /* \"@openzeppelin/contracts-upgradeable/access/OwnableUpgradeable.sol\":2563:2578  return $._owner */\n      swap2\n      pop\n      pop\n        /* \"@openzeppelin/contracts-upgradeable/access/OwnableUpgradeable.sol\":2441:2585  function owner() public view virtual returns (address) {... */\n      swap1\n      jump\t// out\n        /* \"DripWarrior/poolContract.sol\":1463:1486  uint256 public interval */\n    tag_186:\n      sload(0x0a)\n      dup2\n      jump\t// out\n        /* \"DripWarrior/poolContract.sol\":2009:2037  uint256 public totalProjects */\n    tag_190:\n      sload(0x0f)\n      dup2\n      jump\t// out\n        /* \"DripWarrior/poolContract.sol\":2093:2138  mapping(uint256 => address) public totalUsers */\n    tag_195:\n      mstore(0x20, 0x11)\n      dup1\n      0x00\n      mstore\n      keccak256(0x00, 0x40)\n      0x00\n      swap2\n      pop\n      sload\n      swap1\n      0x0100\n      exp\n      swap1\n      div\n      0xffffffffffffffffffffffffffffffffffffffff\n      and\n      dup2\n      jump\t// out\n        /* \"@openzeppelin/contracts-upgradeable/proxy/utils/UUPSUpgradeable.sol\":1819:1877  string public constant UPGRADE_INTERFACE_VERSION = \"5.0.0\" */\n    tag_199:\n      mload(0x40)\n      dup1\n      0x40\n      add\n      0x40\n      mstore\n      dup1\n      0x05\n      dup2\n      mstore\n      0x20\n      add\n      0x352e302e30000000000000000000000000000000000000000000000000000000\n      dup2\n      mstore\n      pop\n      dup2\n      jump\t// out\n        /* \"DripWarrior/poolContract.sol\":15451:15776  function setflowToTreasuryPercentage(uint256 _newPerccentage) external onlyOwner {... */\n    tag_205:\n        /* \"@openzeppelin/contracts-upgradeable/access/OwnableUpgradeable.sol\":2334:2347  _checkOwner() */\n      tag_427\n        /* \"@openzeppelin/contracts-upgradeable/access/OwnableUpgradeable.sol\":2334:2345  _checkOwner */\n      tag_262\n        /* \"@openzeppelin/contracts-upgradeable/access/OwnableUpgradeable.sol\":2334:2347  _checkOwner() */\n      jump\t// in\n    tag_427:\n        /* \"DripWarrior/poolContract.sol\":15572:15573  0 */\n      0x00\n        /* \"DripWarrior/poolContract.sol\":15553:15568  _newPerccentage */\n      dup2\n        /* \"DripWarrior/poolContract.sol\":15553:15573  _newPerccentage <= 0 */\n      gt\n        /* \"DripWarrior/poolContract.sol\":15550:15638  if(_newPerccentage <= 0){... */\n      tag_429\n      jumpi\n        /* \"DripWarrior/poolContract.sol\":15611:15626  _newPerccentage */\n      dup1\n        /* \"DripWarrior/poolContract.sol\":15595:15627  wrongPercentage(_newPerccentage) */\n      mload(0x40)\n      0xcdbc633500000000000000000000000000000000000000000000000000000000\n      dup2\n      mstore\n      0x04\n      add\n      tag_430\n      swap2\n      swap1\n      tag_60\n      jump\t// in\n    tag_430:\n      mload(0x40)\n      dup1\n      swap2\n      sub\n      swap1\n      revert\n        /* \"DripWarrior/poolContract.sol\":15550:15638  if(_newPerccentage <= 0){... */\n    tag_429:\n        /* \"DripWarrior/poolContract.sol\":15683:15698  _newPerccentage */\n      dup1\n        /* \"DripWarrior/poolContract.sol\":15656:15680  flowToTreasuryPercentage */\n      0x06\n        /* \"DripWarrior/poolContract.sol\":15656:15698  flowToTreasuryPercentage = _newPerccentage */\n      dup2\n      swap1\n      sstore\n      pop\n        /* \"DripWarrior/poolContract.sol\":15714:15769  PercentageChanged(msg.sender, flowToTreasuryPercentage) */\n      0xb5671393c7c6980552e50a31e778921eb17d764c2e98fbf4d44fff524712def9\n        /* \"DripWarrior/poolContract.sol\":15732:15742  msg.sender */\n      caller\n        /* \"DripWarrior/poolContract.sol\":15744:15768  flowToTreasuryPercentage */\n      sload(0x06)\n        /* \"DripWarrior/poolContract.sol\":15714:15769  PercentageChanged(msg.sender, flowToTreasuryPercentage) */\n      mload(0x40)\n      tag_431\n      swap3\n      swap2\n      swap1\n      tag_328\n      jump\t// in\n    tag_431:\n      mload(0x40)\n      dup1\n      swap2\n      sub\n      swap1\n      log1\n        /* \"DripWarrior/poolContract.sol\":15451:15776  function setflowToTreasuryPercentage(uint256 _newPerccentage) external onlyOwner {... */\n      pop\n      jump\t// out\n        /* \"DripWarrior/poolContract.sol\":1083:1117  uint256 public ownerShipPoolAmount */\n    tag_208:\n      sload(0x02)\n      dup2\n      jump\t// out\n        /* \"DripWarrior/poolContract.sol\":15111:15440  function setodividentPayoutPercentage(uint256 _newPerccentage) external onlyOwner {... */\n    tag_213:\n        /* \"@openzeppelin/contracts-upgradeable/access/OwnableUpgradeable.sol\":2334:2347  _checkOwner() */\n      tag_433\n        /* \"@openzeppelin/contracts-upgradeable/access/OwnableUpgradeable.sol\":2334:2345  _checkOwner */\n      tag_262\n        /* \"@openzeppelin/contracts-upgradeable/access/OwnableUpgradeable.sol\":2334:2347  _checkOwner() */\n      jump\t// in\n    tag_433:\n        /* \"DripWarrior/poolContract.sol\":15234:15235  0 */\n      0x00\n        /* \"DripWarrior/poolContract.sol\":15215:15230  _newPerccentage */\n      dup2\n        /* \"DripWarrior/poolContract.sol\":15215:15235  _newPerccentage <= 0 */\n      gt\n        /* \"DripWarrior/poolContract.sol\":15212:15300  if(_newPerccentage <= 0){... */\n      tag_435\n      jumpi\n        /* \"DripWarrior/poolContract.sol\":15273:15288  _newPerccentage */\n      dup1\n        /* \"DripWarrior/poolContract.sol\":15257:15289  wrongPercentage(_newPerccentage) */\n      mload(0x40)\n      0xcdbc633500000000000000000000000000000000000000000000000000000000\n      dup2\n      mstore\n      0x04\n      add\n      tag_436\n      swap2\n      swap1\n      tag_60\n      jump\t// in\n    tag_436:\n      mload(0x40)\n      dup1\n      swap2\n      sub\n      swap1\n      revert\n        /* \"DripWarrior/poolContract.sol\":15212:15300  if(_newPerccentage <= 0){... */\n    tag_435:\n        /* \"DripWarrior/poolContract.sol\":15346:15361  _newPerccentage */\n      dup1\n        /* \"DripWarrior/poolContract.sol\":15318:15343  odividentPayoutPercentage */\n      0x05\n        /* \"DripWarrior/poolContract.sol\":15318:15361  odividentPayoutPercentage = _newPerccentage */\n      dup2\n      swap1\n      sstore\n      pop\n        /* \"DripWarrior/poolContract.sol\":15377:15433  PercentageChanged(msg.sender, odividentPayoutPercentage) */\n      0xb5671393c7c6980552e50a31e778921eb17d764c2e98fbf4d44fff524712def9\n        /* \"DripWarrior/poolContract.sol\":15395:15405  msg.sender */\n      caller\n        /* \"DripWarrior/poolContract.sol\":15407:15432  odividentPayoutPercentage */\n      sload(0x05)\n        /* \"DripWarrior/poolContract.sol\":15377:15433  PercentageChanged(msg.sender, odividentPayoutPercentage) */\n      mload(0x40)\n      tag_437\n      swap3\n      swap2\n      swap1\n      tag_328\n      jump\t// in\n    tag_437:\n      mload(0x40)\n      dup1\n      swap2\n      sub\n      swap1\n      log1\n        /* \"DripWarrior/poolContract.sol\":15111:15440  function setodividentPayoutPercentage(uint256 _newPerccentage) external onlyOwner {... */\n      pop\n      jump\t// out\n        /* \"DripWarrior/poolContract.sol\":2198:2254  mapping(address => UserRegistered) public userRegistered */\n    tag_218:\n      mstore(0x20, 0x13)\n      dup1\n      0x00\n      mstore\n      keccak256(0x00, 0x40)\n      0x00\n      swap2\n      pop\n      swap1\n      pop\n      dup1\n      0x00\n      add\n      0x00\n      swap1\n      sload\n      swap1\n      0x0100\n      exp\n      swap1\n      div\n      0xff\n      and\n      swap1\n      dup1\n      0x01\n      add\n      sload\n      swap1\n      dup1\n      0x02\n      add\n      sload\n      swap1\n      dup1\n      0x03\n      add\n      sload\n      swap1\n      dup1\n      0x04\n      add\n      sload\n      swap1\n      dup1\n      0x05\n      add\n      sload\n      swap1\n      pop\n      dup7\n      jump\t// out\n        /* \"DripWarrior/poolContract.sol\":3681:4422  function initialize(address initialOwner,address _usdcAddress,... */\n    tag_225:\n        /* \"@openzeppelin/contracts-upgradeable/proxy/utils/Initializable.sol\":4158:4188  InitializableStorage storage $ */\n      0x00\n        /* \"@openzeppelin/contracts-upgradeable/proxy/utils/Initializable.sol\":4191:4217  _getInitializableStorage() */\n      tag_439\n        /* \"@openzeppelin/contracts-upgradeable/proxy/utils/Initializable.sol\":4191:4215  _getInitializableStorage */\n      tag_440\n        /* \"@openzeppelin/contracts-upgradeable/proxy/utils/Initializable.sol\":4191:4217  _getInitializableStorage() */\n      jump\t// in\n    tag_439:\n        /* \"@openzeppelin/contracts-upgradeable/proxy/utils/Initializable.sol\":4158:4217  InitializableStorage storage $ = _getInitializableStorage() */\n      swap1\n      pop\n        /* \"@openzeppelin/contracts-upgradeable/proxy/utils/Initializable.sol\":4279:4298  bool isTopLevelCall */\n      0x00\n        /* \"@openzeppelin/contracts-upgradeable/proxy/utils/Initializable.sol\":4302:4303  $ */\n      dup2\n        /* \"@openzeppelin/contracts-upgradeable/proxy/utils/Initializable.sol\":4302:4317  $._initializing */\n      0x00\n      add\n      0x08\n      swap1\n      sload\n      swap1\n      0x0100\n      exp\n      swap1\n      div\n      0xff\n      and\n        /* \"@openzeppelin/contracts-upgradeable/proxy/utils/Initializable.sol\":4301:4317  !$._initializing */\n      iszero\n        /* \"@openzeppelin/contracts-upgradeable/proxy/utils/Initializable.sol\":4279:4317  bool isTopLevelCall = !$._initializing */\n      swap1\n      pop\n        /* \"@openzeppelin/contracts-upgradeable/proxy/utils/Initializable.sol\":4327:4345  uint64 initialized */\n      0x00\n        /* \"@openzeppelin/contracts-upgradeable/proxy/utils/Initializable.sol\":4348:4349  $ */\n      dup3\n        /* \"@openzeppelin/contracts-upgradeable/proxy/utils/Initializable.sol\":4348:4362  $._initialized */\n      0x00\n      add\n      0x00\n      swap1\n      sload\n      swap1\n      0x0100\n      exp\n      swap1\n      div\n      0xffffffffffffffff\n      and\n        /* \"@openzeppelin/contracts-upgradeable/proxy/utils/Initializable.sol\":4327:4362  uint64 initialized = $._initialized */\n      swap1\n      pop\n        /* \"@openzeppelin/contracts-upgradeable/proxy/utils/Initializable.sol\":4706:4723  bool initialSetup */\n      0x00\n        /* \"@openzeppelin/contracts-upgradeable/proxy/utils/Initializable.sol\":4741:4742  0 */\n      dup1\n        /* \"@openzeppelin/contracts-upgradeable/proxy/utils/Initializable.sol\":4726:4737  initialized */\n      dup3\n        /* \"@openzeppelin/contracts-upgradeable/proxy/utils/Initializable.sol\":4726:4742  initialized == 0 */\n      0xffffffffffffffff\n      and\n      eq\n        /* \"@openzeppelin/contracts-upgradeable/proxy/utils/Initializable.sol\":4726:4760  initialized == 0 && isTopLevelCall */\n      dup1\n      iszero\n      tag_441\n      jumpi\n      pop\n        /* \"@openzeppelin/contracts-upgradeable/proxy/utils/Initializable.sol\":4746:4760  isTopLevelCall */\n      dup3\n        /* \"@openzeppelin/contracts-upgradeable/proxy/utils/Initializable.sol\":4726:4760  initialized == 0 && isTopLevelCall */\n    tag_441:\n        /* \"@openzeppelin/contracts-upgradeable/proxy/utils/Initializable.sol\":4706:4760  bool initialSetup = initialized == 0 && isTopLevelCall */\n      swap1\n      pop\n        /* \"@openzeppelin/contracts-upgradeable/proxy/utils/Initializable.sol\":4770:4787  bool construction */\n      0x00\n        /* \"@openzeppelin/contracts-upgradeable/proxy/utils/Initializable.sol\":4805:4806  1 */\n      0x01\n        /* \"@openzeppelin/contracts-upgradeable/proxy/utils/Initializable.sol\":4790:4801  initialized */\n      dup4\n        /* \"@openzeppelin/contracts-upgradeable/proxy/utils/Initializable.sol\":4790:4806  initialized == 1 */\n      0xffffffffffffffff\n      and\n      eq\n        /* \"@openzeppelin/contracts-upgradeable/proxy/utils/Initializable.sol\":4790:4840  initialized == 1 && address(this).code.length == 0 */\n      dup1\n      iszero\n      tag_442\n      jumpi\n      pop\n        /* \"@openzeppelin/contracts-upgradeable/proxy/utils/Initializable.sol\":4839:4840  0 */\n      0x00\n        /* \"@openzeppelin/contracts-upgradeable/proxy/utils/Initializable.sol\":4818:4822  this */\n      address\n        /* \"@openzeppelin/contracts-upgradeable/proxy/utils/Initializable.sol\":4810:4835  address(this).code.length */\n      0xffffffffffffffffffffffffffffffffffffffff\n      and\n      extcodesize\n        /* \"@openzeppelin/contracts-upgradeable/proxy/utils/Initializable.sol\":4810:4840  address(this).code.length == 0 */\n      eq\n        /* \"@openzeppelin/contracts-upgradeable/proxy/utils/Initializable.sol\":4790:4840  initialized == 1 && address(this).code.length == 0 */\n    tag_442:\n        /* \"@openzeppelin/contracts-upgradeable/proxy/utils/Initializable.sol\":4770:4840  bool construction = initialized == 1 && address(this).code.length == 0 */\n      swap1\n      pop\n        /* \"@openzeppelin/contracts-upgradeable/proxy/utils/Initializable.sol\":4856:4868  initialSetup */\n      dup2\n        /* \"@openzeppelin/contracts-upgradeable/proxy/utils/Initializable.sol\":4855:4868  !initialSetup */\n      iszero\n        /* \"@openzeppelin/contracts-upgradeable/proxy/utils/Initializable.sol\":4855:4885  !initialSetup && !construction */\n      dup1\n      iszero\n      tag_443\n      jumpi\n      pop\n        /* \"@openzeppelin/contracts-upgradeable/proxy/utils/Initializable.sol\":4873:4885  construction */\n      dup1\n        /* \"@openzeppelin/contracts-upgradeable/proxy/utils/Initializable.sol\":4872:4885  !construction */\n      iszero\n        /* \"@openzeppelin/contracts-upgradeable/proxy/utils/Initializable.sol\":4855:4885  !initialSetup && !construction */\n    tag_443:\n        /* \"@openzeppelin/contracts-upgradeable/proxy/utils/Initializable.sol\":4851:4942  if (!initialSetup && !construction) {... */\n      iszero\n      tag_444\n      jumpi\n        /* \"@openzeppelin/contracts-upgradeable/proxy/utils/Initializable.sol\":4908:4931  InvalidInitialization() */\n      mload(0x40)\n      0xf92ee8a900000000000000000000000000000000000000000000000000000000\n      dup2\n      mstore\n      0x04\n      add\n      mload(0x40)\n      dup1\n      swap2\n      sub\n      swap1\n      revert\n        /* \"@openzeppelin/contracts-upgradeable/proxy/utils/Initializable.sol\":4851:4942  if (!initialSetup && !construction) {... */\n    tag_444:\n        /* \"@openzeppelin/contracts-upgradeable/proxy/utils/Initializable.sol\":4968:4969  1 */\n      0x01\n        /* \"@openzeppelin/contracts-upgradeable/proxy/utils/Initializable.sol\":4951:4952  $ */\n      dup6\n        /* \"@openzeppelin/contracts-upgradeable/proxy/utils/Initializable.sol\":4951:4965  $._initialized */\n      0x00\n      add\n      0x00\n        /* \"@openzeppelin/contracts-upgradeable/proxy/utils/Initializable.sol\":4951:4969  $._initialized = 1 */\n      0x0100\n      exp\n      dup2\n      sload\n      dup2\n      0xffffffffffffffff\n      mul\n      not\n      and\n      swap1\n      dup4\n      0xffffffffffffffff\n      and\n      mul\n      or\n      swap1\n      sstore\n      pop\n        /* \"@openzeppelin/contracts-upgradeable/proxy/utils/Initializable.sol\":4983:4997  isTopLevelCall */\n      dup4\n        /* \"@openzeppelin/contracts-upgradeable/proxy/utils/Initializable.sol\":4979:5046  if (isTopLevelCall) {... */\n      iszero\n      tag_445\n      jumpi\n        /* \"@openzeppelin/contracts-upgradeable/proxy/utils/Initializable.sol\":5031:5035  true */\n      0x01\n        /* \"@openzeppelin/contracts-upgradeable/proxy/utils/Initializable.sol\":5013:5014  $ */\n      dup6\n        /* \"@openzeppelin/contracts-upgradeable/proxy/utils/Initializable.sol\":5013:5028  $._initializing */\n      0x00\n      add\n      0x08\n        /* \"@openzeppelin/contracts-upgradeable/proxy/utils/Initializable.sol\":5013:5035  $._initializing = true */\n      0x0100\n      exp\n      dup2\n      sload\n      dup2\n      0xff\n      mul\n      not\n      and\n      swap1\n      dup4\n      iszero\n      iszero\n      mul\n      or\n      swap1\n      sstore\n      pop\n        /* \"@openzeppelin/contracts-upgradeable/proxy/utils/Initializable.sol\":4979:5046  if (isTopLevelCall) {... */\n    tag_445:\n        /* \"DripWarrior/poolContract.sol\":3807:3835  __Ownable_init(initialOwner) */\n      tag_447\n        /* \"DripWarrior/poolContract.sol\":3822:3834  initialOwner */\n      dup9\n        /* \"DripWarrior/poolContract.sol\":3807:3821  __Ownable_init */\n      tag_448\n        /* \"DripWarrior/poolContract.sol\":3807:3835  __Ownable_init(initialOwner) */\n      jump\t// in\n    tag_447:\n        /* \"DripWarrior/poolContract.sol\":3845:3869  __UUPSUpgradeable_init() */\n      tag_449\n        /* \"DripWarrior/poolContract.sol\":3845:3867  __UUPSUpgradeable_init */\n      tag_450\n        /* \"DripWarrior/poolContract.sol\":3845:3869  __UUPSUpgradeable_init() */\n      jump\t// in\n    tag_449:\n        /* \"DripWarrior/poolContract.sol\":3899:3911  _usdcAddress */\n      dup7\n        /* \"DripWarrior/poolContract.sol\":3880:3889  usdcToken */\n      0x00\n      dup1\n        /* \"DripWarrior/poolContract.sol\":3880:3912  usdcToken = IBEP20(_usdcAddress) */\n      0x0100\n      exp\n      dup2\n      sload\n      dup2\n      0xffffffffffffffffffffffffffffffffffffffff\n      mul\n      not\n      and\n      swap1\n      dup4\n      0xffffffffffffffffffffffffffffffffffffffff\n      and\n      mul\n      or\n      swap1\n      sstore\n      pop\n        /* \"DripWarrior/poolContract.sol\":4148:4152  5000 */\n      0x1388\n        /* \"DripWarrior/poolContract.sol\":4120:4145  tdividentPayoutPercentage */\n      0x04\n        /* \"DripWarrior/poolContract.sol\":4120:4152  tdividentPayoutPercentage = 5000 */\n      dup2\n      swap1\n      sstore\n      pop\n        /* \"DripWarrior/poolContract.sol\":4202:4206  7500 */\n      0x1d4c\n        /* \"DripWarrior/poolContract.sol\":4174:4199  odividentPayoutPercentage */\n      0x05\n        /* \"DripWarrior/poolContract.sol\":4174:4206  odividentPayoutPercentage = 7500 */\n      dup2\n      swap1\n      sstore\n      pop\n        /* \"DripWarrior/poolContract.sol\":4268:4272  1500 */\n      0x05dc\n        /* \"DripWarrior/poolContract.sol\":4241:4265  flowToTreasuryPercentage */\n      0x06\n        /* \"DripWarrior/poolContract.sol\":4241:4272  flowToTreasuryPercentage = 1500 */\n      dup2\n      swap1\n      sstore\n      pop\n        /* \"DripWarrior/poolContract.sol\":4319:4323  1000 */\n      0x03e8\n        /* \"DripWarrior/poolContract.sol\":4293:4316  maintainceFeePercentage */\n      0x07\n        /* \"DripWarrior/poolContract.sol\":4293:4323  maintainceFeePercentage = 1000 */\n      dup2\n      swap1\n      sstore\n      pop\n        /* \"DripWarrior/poolContract.sol\":4399:4415  _multisigAddress */\n      dup6\n        /* \"DripWarrior/poolContract.sol\":4381:4396  multisigAddress */\n      0x09\n      0x00\n        /* \"DripWarrior/poolContract.sol\":4381:4415  multisigAddress = _multisigAddress */\n      0x0100\n      exp\n      dup2\n      sload\n      dup2\n      0xffffffffffffffffffffffffffffffffffffffff\n      mul\n      not\n      and\n      swap1\n      dup4\n      0xffffffffffffffffffffffffffffffffffffffff\n      and\n      mul\n      or\n      swap1\n      sstore\n      pop\n        /* \"@openzeppelin/contracts-upgradeable/proxy/utils/Initializable.sol\":5070:5084  isTopLevelCall */\n      dup4\n        /* \"@openzeppelin/contracts-upgradeable/proxy/utils/Initializable.sol\":5066:5167  if (isTopLevelCall) {... */\n      iszero\n      tag_451\n      jumpi\n        /* \"@openzeppelin/contracts-upgradeable/proxy/utils/Initializable.sol\":5118:5123  false */\n      0x00\n        /* \"@openzeppelin/contracts-upgradeable/proxy/utils/Initializable.sol\":5100:5101  $ */\n      dup6\n        /* \"@openzeppelin/contracts-upgradeable/proxy/utils/Initializable.sol\":5100:5115  $._initializing */\n      0x00\n      add\n      0x08\n        /* \"@openzeppelin/contracts-upgradeable/proxy/utils/Initializable.sol\":5100:5123  $._initializing = false */\n      0x0100\n      exp\n      dup2\n      sload\n      dup2\n      0xff\n      mul\n      not\n      and\n      swap1\n      dup4\n      iszero\n      iszero\n      mul\n      or\n      swap1\n      sstore\n      pop\n        /* \"@openzeppelin/contracts-upgradeable/proxy/utils/Initializable.sol\":5142:5156  Initialized(1) */\n      0xc7f505b2f371ae2175ee4913f4499e1f2633a7b5936321eed1cdaeb6115181d2\n        /* \"@openzeppelin/contracts-upgradeable/proxy/utils/Initializable.sol\":5154:5155  1 */\n      0x01\n        /* \"@openzeppelin/contracts-upgradeable/proxy/utils/Initializable.sol\":5142:5156  Initialized(1) */\n      mload(0x40)\n      tag_452\n      swap2\n      swap1\n      tag_453\n      jump\t// in\n    tag_452:\n      mload(0x40)\n      dup1\n      swap2\n      sub\n      swap1\n      log1\n        /* \"@openzeppelin/contracts-upgradeable/proxy/utils/Initializable.sol\":5066:5167  if (isTopLevelCall) {... */\n    tag_451:\n        /* \"@openzeppelin/contracts-upgradeable/proxy/utils/Initializable.sol\":4092:5173  {... */\n      pop\n      pop\n      pop\n      pop\n      pop\n        /* \"DripWarrior/poolContract.sol\":3681:4422  function initialize(address initialOwner,address _usdcAddress,... */\n      pop\n      pop\n      pop\n      jump\t// out\n        /* \"DripWarrior/poolContract.sol\":2043:2087  mapping(address => bool) public alreadyAdded */\n    tag_229:\n      mstore(0x20, 0x10)\n      dup1\n      0x00\n      mstore\n      keccak256(0x00, 0x40)\n      0x00\n      swap2\n      pop\n      sload\n      swap1\n      0x0100\n      exp\n      swap1\n      div\n      0xff\n      and\n      dup2\n      jump\t// out\n        /* \"DripWarrior/poolContract.sol\":1254:1293  uint256 public flowToTreasuryPercentage */\n    tag_233:\n      sload(0x06)\n      dup2\n      jump\t// out\n        /* \"DripWarrior/poolContract.sol\":12538:12856  function setForwarderAddress(address forwarderAddress) external onlyOwner {... */\n    tag_238:\n        /* \"@openzeppelin/contracts-upgradeable/access/OwnableUpgradeable.sol\":2334:2347  _checkOwner() */\n      tag_455\n        /* \"@openzeppelin/contracts-upgradeable/access/OwnableUpgradeable.sol\":2334:2345  _checkOwner */\n      tag_262\n        /* \"@openzeppelin/contracts-upgradeable/access/OwnableUpgradeable.sol\":2334:2347  _checkOwner() */\n      jump\t// in\n    tag_455:\n        /* \"DripWarrior/poolContract.sol\":12662:12663  0 */\n      0x00\n        /* \"DripWarrior/poolContract.sol\":12634:12664  forwarderAddress == address(0) */\n      0xffffffffffffffffffffffffffffffffffffffff\n      and\n        /* \"DripWarrior/poolContract.sol\":12634:12650  forwarderAddress */\n      dup2\n        /* \"DripWarrior/poolContract.sol\":12634:12664  forwarderAddress == address(0) */\n      0xffffffffffffffffffffffffffffffffffffffff\n      and\n      sub\n        /* \"DripWarrior/poolContract.sol\":12631:12727  if(forwarderAddress == address(0)){... */\n      tag_457\n      jumpi\n        /* \"DripWarrior/poolContract.sol\":12699:12715  forwarderAddress */\n      dup1\n        /* \"DripWarrior/poolContract.sol\":12686:12716  wrongAddress(forwarderAddress) */\n      mload(0x40)\n      0xe4cfa94d00000000000000000000000000000000000000000000000000000000\n      dup2\n      mstore\n      0x04\n      add\n      tag_458\n      swap2\n      swap1\n      tag_79\n      jump\t// in\n    tag_458:\n      mload(0x40)\n      dup1\n      swap2\n      sub\n      swap1\n      revert\n        /* \"DripWarrior/poolContract.sol\":12631:12727  if(forwarderAddress == address(0)){... */\n    tag_457:\n        /* \"DripWarrior/poolContract.sol\":12766:12782  forwarderAddress */\n      dup1\n        /* \"DripWarrior/poolContract.sol\":12745:12763  s_forwarderAddress */\n      0x0e\n      0x00\n        /* \"DripWarrior/poolContract.sol\":12745:12782  s_forwarderAddress = forwarderAddress */\n      0x0100\n      exp\n      dup2\n      sload\n      dup2\n      0xffffffffffffffffffffffffffffffffffffffff\n      mul\n      not\n      and\n      swap1\n      dup4\n      0xffffffffffffffffffffffffffffffffffffffff\n      and\n      mul\n      or\n      swap1\n      sstore\n      pop\n        /* \"DripWarrior/poolContract.sol\":12798:12849  SetForwarderAddress(msg.sender, s_forwarderAddress) */\n      0x75f91f3cecb8c46f20150f60f77a6e1f0de00776627692db82ef1960af84c33a\n        /* \"DripWarrior/poolContract.sol\":12818:12828  msg.sender */\n      caller\n        /* \"DripWarrior/poolContract.sol\":12830:12848  s_forwarderAddress */\n      0x0e\n      0x00\n      swap1\n      sload\n      swap1\n      0x0100\n      exp\n      swap1\n      div\n      0xffffffffffffffffffffffffffffffffffffffff\n      and\n        /* \"DripWarrior/poolContract.sol\":12798:12849  SetForwarderAddress(msg.sender, s_forwarderAddress) */\n      mload(0x40)\n      tag_459\n      swap3\n      swap2\n      swap1\n      tag_460\n      jump\t// in\n    tag_459:\n      mload(0x40)\n      dup1\n      swap2\n      sub\n      swap1\n      log1\n        /* \"DripWarrior/poolContract.sol\":12538:12856  function setForwarderAddress(address forwarderAddress) external onlyOwner {... */\n      pop\n      jump\t// out\n        /* \"DripWarrior/poolContract.sol\":13857:14411  function blockUser(address _userAddress, bool value) external onlyOwner {... */\n    tag_243:\n        /* \"@openzeppelin/contracts-upgradeable/access/OwnableUpgradeable.sol\":2334:2347  _checkOwner() */\n      tag_462\n        /* \"@openzeppelin/contracts-upgradeable/access/OwnableUpgradeable.sol\":2334:2345  _checkOwner */\n      tag_262\n        /* \"@openzeppelin/contracts-upgradeable/access/OwnableUpgradeable.sol\":2334:2347  _checkOwner() */\n      jump\t// in\n    tag_462:\n        /* \"DripWarrior/poolContract.sol\":13975:13976  0 */\n      0x00\n        /* \"DripWarrior/poolContract.sol\":13951:13977  _userAddress == address(0) */\n      0xffffffffffffffffffffffffffffffffffffffff\n      and\n        /* \"DripWarrior/poolContract.sol\":13951:13963  _userAddress */\n      dup3\n        /* \"DripWarrior/poolContract.sol\":13951:13977  _userAddress == address(0) */\n      0xffffffffffffffffffffffffffffffffffffffff\n      and\n      sub\n        /* \"DripWarrior/poolContract.sol\":13948:14036  if(_userAddress == address(0)){... */\n      tag_464\n      jumpi\n        /* \"DripWarrior/poolContract.sol\":14012:14024  _userAddress */\n      dup2\n        /* \"DripWarrior/poolContract.sol\":13999:14025  wrongAddress(_userAddress) */\n      mload(0x40)\n      0xe4cfa94d00000000000000000000000000000000000000000000000000000000\n      dup2\n      mstore\n      0x04\n      add\n      tag_465\n      swap2\n      swap1\n      tag_79\n      jump\t// in\n    tag_465:\n      mload(0x40)\n      dup1\n      swap2\n      sub\n      swap1\n      revert\n        /* \"DripWarrior/poolContract.sol\":13948:14036  if(_userAddress == address(0)){... */\n    tag_464:\n        /* \"DripWarrior/poolContract.sol\":14058:14062  true */\n      0x01\n        /* \"DripWarrior/poolContract.sol\":14049:14062  value != true */\n      iszero\n      iszero\n        /* \"DripWarrior/poolContract.sol\":14049:14054  value */\n      dup2\n        /* \"DripWarrior/poolContract.sol\":14049:14062  value != true */\n      iszero\n      iszero\n      eq\n      iszero\n        /* \"DripWarrior/poolContract.sol\":14049:14080  value != true && value != false */\n      dup1\n      iszero\n      tag_466\n      jumpi\n      pop\n        /* \"DripWarrior/poolContract.sol\":14075:14080  false */\n      0x00\n        /* \"DripWarrior/poolContract.sol\":14066:14080  value != false */\n      iszero\n      iszero\n        /* \"DripWarrior/poolContract.sol\":14066:14071  value */\n      dup2\n        /* \"DripWarrior/poolContract.sol\":14066:14080  value != false */\n      iszero\n      iszero\n      eq\n      iszero\n        /* \"DripWarrior/poolContract.sol\":14049:14080  value != true && value != false */\n    tag_466:\n        /* \"DripWarrior/poolContract.sol\":14046:14130  if(value != true && value != false){... */\n      iszero\n      tag_467\n      jumpi\n        /* \"DripWarrior/poolContract.sol\":14113:14118  value */\n      dup1\n        /* \"DripWarrior/poolContract.sol\":14102:14119  wrongValue(value) */\n      mload(0x40)\n      0x81ed1ae300000000000000000000000000000000000000000000000000000000\n      dup2\n      mstore\n      0x04\n      add\n      tag_468\n      swap2\n      swap1\n      tag_88\n      jump\t// in\n    tag_468:\n      mload(0x40)\n      dup1\n      swap2\n      sub\n      swap1\n      revert\n        /* \"DripWarrior/poolContract.sol\":14046:14130  if(value != true && value != false){... */\n    tag_467:\n        /* \"DripWarrior/poolContract.sol\":14152:14156  true */\n      0x01\n        /* \"DripWarrior/poolContract.sol\":14143:14156  value == true */\n      iszero\n      iszero\n        /* \"DripWarrior/poolContract.sol\":14143:14148  value */\n      dup2\n        /* \"DripWarrior/poolContract.sol\":14143:14156  value == true */\n      iszero\n      iszero\n      sub\n        /* \"DripWarrior/poolContract.sol\":14140:14307  if(value == true){... */\n      tag_469\n      jumpi\n        /* \"DripWarrior/poolContract.sol\":14211:14215  true */\n      0x01\n        /* \"DripWarrior/poolContract.sol\":14172:14186  userRegistered */\n      0x13\n        /* \"DripWarrior/poolContract.sol\":14172:14200  userRegistered[_userAddress] */\n      0x00\n        /* \"DripWarrior/poolContract.sol\":14187:14199  _userAddress */\n      dup5\n        /* \"DripWarrior/poolContract.sol\":14172:14200  userRegistered[_userAddress] */\n      0xffffffffffffffffffffffffffffffffffffffff\n      and\n      0xffffffffffffffffffffffffffffffffffffffff\n      and\n      dup2\n      mstore\n      0x20\n      add\n      swap1\n      dup2\n      mstore\n      0x20\n      add\n      0x00\n      keccak256\n        /* \"DripWarrior/poolContract.sol\":14172:14208  userRegistered[_userAddress].blocked */\n      0x00\n      add\n      0x00\n        /* \"DripWarrior/poolContract.sol\":14172:14215  userRegistered[_userAddress].blocked = true */\n      0x0100\n      exp\n      dup2\n      sload\n      dup2\n      0xff\n      mul\n      not\n      and\n      swap1\n      dup4\n      iszero\n      iszero\n      mul\n      or\n      swap1\n      sstore\n      pop\n        /* \"DripWarrior/poolContract.sol\":14140:14307  if(value == true){... */\n      jump(tag_470)\n    tag_469:\n        /* \"DripWarrior/poolContract.sol\":14291:14296  false */\n      0x00\n        /* \"DripWarrior/poolContract.sol\":14252:14266  userRegistered */\n      0x13\n        /* \"DripWarrior/poolContract.sol\":14252:14280  userRegistered[_userAddress] */\n      0x00\n        /* \"DripWarrior/poolContract.sol\":14267:14279  _userAddress */\n      dup5\n        /* \"DripWarrior/poolContract.sol\":14252:14280  userRegistered[_userAddress] */\n      0xffffffffffffffffffffffffffffffffffffffff\n      and\n      0xffffffffffffffffffffffffffffffffffffffff\n      and\n      dup2\n      mstore\n      0x20\n      add\n      swap1\n      dup2\n      mstore\n      0x20\n      add\n      0x00\n      keccak256\n        /* \"DripWarrior/poolContract.sol\":14252:14288  userRegistered[_userAddress].blocked */\n      0x00\n      add\n      0x00\n        /* \"DripWarrior/poolContract.sol\":14252:14296  userRegistered[_userAddress].blocked = false */\n      0x0100\n      exp\n      dup2\n      sload\n      dup2\n      0xff\n      mul\n      not\n      and\n      swap1\n      dup4\n      iszero\n      iszero\n      mul\n      or\n      swap1\n      sstore\n      pop\n        /* \"DripWarrior/poolContract.sol\":14140:14307  if(value == true){... */\n    tag_470:\n        /* \"DripWarrior/poolContract.sol\":14330:14404  UserBlocked(msg.sender,_userAddress, userRegistered[_userAddress].blocked) */\n      0x7a1655bc3160d3413bf1d5235e55be12e01b7e8bc2436a9bff09c3b4fa2421f1\n        /* \"DripWarrior/poolContract.sol\":14342:14352  msg.sender */\n      caller\n        /* \"DripWarrior/poolContract.sol\":14353:14365  _userAddress */\n      dup4\n        /* \"DripWarrior/poolContract.sol\":14367:14381  userRegistered */\n      0x13\n        /* \"DripWarrior/poolContract.sol\":14367:14395  userRegistered[_userAddress] */\n      0x00\n        /* \"DripWarrior/poolContract.sol\":14382:14394  _userAddress */\n      dup7\n        /* \"DripWarrior/poolContract.sol\":14367:14395  userRegistered[_userAddress] */\n      0xffffffffffffffffffffffffffffffffffffffff\n      and\n      0xffffffffffffffffffffffffffffffffffffffff\n      and\n      dup2\n      mstore\n      0x20\n      add\n      swap1\n      dup2\n      mstore\n      0x20\n      add\n      0x00\n      keccak256\n        /* \"DripWarrior/poolContract.sol\":14367:14403  userRegistered[_userAddress].blocked */\n      0x00\n      add\n      0x00\n      swap1\n      sload\n      swap1\n      0x0100\n      exp\n      swap1\n      div\n      0xff\n      and\n        /* \"DripWarrior/poolContract.sol\":14330:14404  UserBlocked(msg.sender,_userAddress, userRegistered[_userAddress].blocked) */\n      mload(0x40)\n      tag_471\n      swap4\n      swap3\n      swap2\n      swap1\n      tag_472\n      jump\t// in\n    tag_471:\n      mload(0x40)\n      dup1\n      swap2\n      sub\n      swap1\n      log1\n        /* \"DripWarrior/poolContract.sol\":13857:14411  function blockUser(address _userAddress, bool value) external onlyOwner {... */\n      pop\n      pop\n      jump\t// out\n        /* \"DripWarrior/poolContract.sol\":8026:9586  function weeklyTransfer() public  {... */\n    tag_246:\n        /* \"DripWarrior/poolContract.sol\":8106:8124  s_forwarderAddress */\n      0x0e\n      0x00\n      swap1\n      sload\n      swap1\n      0x0100\n      exp\n      swap1\n      div\n      0xffffffffffffffffffffffffffffffffffffffff\n      and\n        /* \"DripWarrior/poolContract.sol\":8092:8124  msg.sender == s_forwarderAddress */\n      0xffffffffffffffffffffffffffffffffffffffff\n      and\n        /* \"DripWarrior/poolContract.sol\":8092:8102  msg.sender */\n      caller\n        /* \"DripWarrior/poolContract.sol\":8092:8124  msg.sender == s_forwarderAddress */\n      0xffffffffffffffffffffffffffffffffffffffff\n      and\n      eq\n        /* \"DripWarrior/poolContract.sol\":8071:8209  require(... */\n      tag_474\n      jumpi\n      mload(0x40)\n      0x08c379a000000000000000000000000000000000000000000000000000000000\n      dup2\n      mstore\n      0x04\n      add\n      tag_475\n      swap1\n      tag_275\n      jump\t// in\n    tag_475:\n      mload(0x40)\n      dup1\n      swap2\n      sub\n      swap1\n      revert\n    tag_474:\n        /* \"DripWarrior/poolContract.sol\":8230:8254  uint256 remainFiftyOPool */\n      0x00\n        /* \"DripWarrior/poolContract.sol\":8255:8288  uint256 dividentPayoutOPoolAmount */\n      dup1\n        /* \"DripWarrior/poolContract.sol\":8290:8316  uint256 perPersonFromTPool */\n      0x00\n        /* \"DripWarrior/poolContract.sol\":8321:8341  perPoolCalculation() */\n      tag_476\n        /* \"DripWarrior/poolContract.sol\":8321:8339  perPoolCalculation */\n      tag_477\n        /* \"DripWarrior/poolContract.sol\":8321:8341  perPoolCalculation() */\n      jump\t// in\n    tag_476:\n        /* \"DripWarrior/poolContract.sol\":8228:8341  ( uint256 remainFiftyOPool,uint256 dividentPayoutOPoolAmount, uint256 perPersonFromTPool)  = perPoolCalculation() */\n      swap3\n      pop\n      swap3\n      pop\n      swap3\n      pop\n        /* \"DripWarrior/poolContract.sol\":8390:8391  0 */\n      0x00\n        /* \"DripWarrior/poolContract.sol\":8368:8387  ownerShipPoolAmount */\n      sload(0x02)\n        /* \"DripWarrior/poolContract.sol\":8368:8391  ownerShipPoolAmount > 0 */\n      gt\n        /* \"DripWarrior/poolContract.sol\":8368:8417  ownerShipPoolAmount > 0 && treasuryPoolAmount > 0 */\n      dup1\n      iszero\n      tag_478\n      jumpi\n      pop\n        /* \"DripWarrior/poolContract.sol\":8416:8417  0 */\n      0x00\n        /* \"DripWarrior/poolContract.sol\":8395:8413  treasuryPoolAmount */\n      sload(0x01)\n        /* \"DripWarrior/poolContract.sol\":8395:8417  treasuryPoolAmount > 0 */\n      gt\n        /* \"DripWarrior/poolContract.sol\":8368:8417  ownerShipPoolAmount > 0 && treasuryPoolAmount > 0 */\n    tag_478:\n        /* \"DripWarrior/poolContract.sol\":8360:8439  require(ownerShipPoolAmount > 0 && treasuryPoolAmount > 0, \"not enough amount\") */\n      tag_479\n      jumpi\n      mload(0x40)\n      0x08c379a000000000000000000000000000000000000000000000000000000000\n      dup2\n      mstore\n      0x04\n      add\n      tag_480\n      swap1\n      tag_481\n      jump\t// in\n    tag_480:\n      mload(0x40)\n      dup1\n      swap2\n      sub\n      swap1\n      revert\n    tag_479:\n        /* \"DripWarrior/poolContract.sol\":8457:8473  uint256 maxlimit */\n      0x00\n        /* \"DripWarrior/poolContract.sol\":8488:8497  uint256 i */\n      dup1\n        /* \"DripWarrior/poolContract.sol\":8500:8501  0 */\n      0x00\n        /* \"DripWarrior/poolContract.sol\":8488:8501  uint256 i = 0 */\n      swap1\n      pop\n        /* \"DripWarrior/poolContract.sol\":8484:9494  for(uint256 i = 0; i < noOfUsers; i++){... */\n    tag_482:\n        /* \"DripWarrior/poolContract.sol\":8507:8516  noOfUsers */\n      sload(0x08)\n        /* \"DripWarrior/poolContract.sol\":8503:8504  i */\n      dup2\n        /* \"DripWarrior/poolContract.sol\":8503:8516  i < noOfUsers */\n      lt\n        /* \"DripWarrior/poolContract.sol\":8484:9494  for(uint256 i = 0; i < noOfUsers; i++){... */\n      iszero\n      tag_483\n      jumpi\n        /* \"DripWarrior/poolContract.sol\":8541:8555  userRegistered */\n      0x13\n        /* \"DripWarrior/poolContract.sol\":8541:8570  userRegistered[totalUsers[i]] */\n      0x00\n        /* \"DripWarrior/poolContract.sol\":8556:8566  totalUsers */\n      0x11\n        /* \"DripWarrior/poolContract.sol\":8556:8569  totalUsers[i] */\n      0x00\n        /* \"DripWarrior/poolContract.sol\":8567:8568  i */\n      dup5\n        /* \"DripWarrior/poolContract.sol\":8556:8569  totalUsers[i] */\n      dup2\n      mstore\n      0x20\n      add\n      swap1\n      dup2\n      mstore\n      0x20\n      add\n      0x00\n      keccak256\n      0x00\n      swap1\n      sload\n      swap1\n      0x0100\n      exp\n      swap1\n      div\n      0xffffffffffffffffffffffffffffffffffffffff\n      and\n        /* \"DripWarrior/poolContract.sol\":8541:8570  userRegistered[totalUsers[i]] */\n      0xffffffffffffffffffffffffffffffffffffffff\n      and\n      0xffffffffffffffffffffffffffffffffffffffff\n      and\n      dup2\n      mstore\n      0x20\n      add\n      swap1\n      dup2\n      mstore\n      0x20\n      add\n      0x00\n      keccak256\n        /* \"DripWarrior/poolContract.sol\":8541:8578  userRegistered[totalUsers[i]].blocked */\n      0x00\n      add\n      0x00\n      swap1\n      sload\n      swap1\n      0x0100\n      exp\n      swap1\n      div\n      0xff\n      and\n        /* \"DripWarrior/poolContract.sol\":8537:9471  if(!userRegistered[totalUsers[i]].blocked){... */\n      tag_485\n      jumpi\n        /* \"DripWarrior/poolContract.sol\":8598:8625  uint256 eachSharePercentage */\n      0x00\n        /* \"DripWarrior/poolContract.sol\":8691:8708  totalStakedAmount */\n      sload(0x03)\n        /* \"DripWarrior/poolContract.sol\":8680:8685  10000 */\n      0x2710\n        /* \"DripWarrior/poolContract.sol\":8629:8643  userRegistered */\n      0x13\n        /* \"DripWarrior/poolContract.sol\":8629:8658  userRegistered[totalUsers[i]] */\n      0x00\n        /* \"DripWarrior/poolContract.sol\":8644:8654  totalUsers */\n      0x11\n        /* \"DripWarrior/poolContract.sol\":8644:8657  totalUsers[i] */\n      0x00\n        /* \"DripWarrior/poolContract.sol\":8655:8656  i */\n      dup8\n        /* \"DripWarrior/poolContract.sol\":8644:8657  totalUsers[i] */\n      dup2\n      mstore\n      0x20\n      add\n      swap1\n      dup2\n      mstore\n      0x20\n      add\n      0x00\n      keccak256\n      0x00\n      swap1\n      sload\n      swap1\n      0x0100\n      exp\n      swap1\n      div\n      0xffffffffffffffffffffffffffffffffffffffff\n      and\n        /* \"DripWarrior/poolContract.sol\":8629:8658  userRegistered[totalUsers[i]] */\n      0xffffffffffffffffffffffffffffffffffffffff\n      and\n      0xffffffffffffffffffffffffffffffffffffffff\n      and\n      dup2\n      mstore\n      0x20\n      add\n      swap1\n      dup2\n      mstore\n      0x20\n      add\n      0x00\n      keccak256\n        /* \"DripWarrior/poolContract.sol\":8629:8676  userRegistered[totalUsers[i]].totalStakedAmount */\n      0x05\n      add\n      sload\n        /* \"DripWarrior/poolContract.sol\":8629:8686  userRegistered[totalUsers[i]].totalStakedAmount * (10000) */\n      tag_486\n      swap2\n      swap1\n      tag_487\n      jump\t// in\n    tag_486:\n        /* \"DripWarrior/poolContract.sol\":8628:8709  (userRegistered[totalUsers[i]].totalStakedAmount * (10000)) / (totalStakedAmount) */\n      tag_488\n      swap2\n      swap1\n      tag_489\n      jump\t// in\n    tag_488:\n        /* \"DripWarrior/poolContract.sol\":8598:8709  uint256 eachSharePercentage = (userRegistered[totalUsers[i]].totalStakedAmount * (10000)) / (totalStakedAmount) */\n      swap1\n      pop\n        /* \"DripWarrior/poolContract.sol\":8744:8766  uint256 eachSendAmount */\n      0x00\n        /* \"DripWarrior/poolContract.sol\":8769:8836  calculatePercentage(dividentPayoutOPoolAmount, eachSharePercentage) */\n      tag_490\n        /* \"DripWarrior/poolContract.sol\":8789:8814  dividentPayoutOPoolAmount */\n      dup7\n        /* \"DripWarrior/poolContract.sol\":8816:8835  eachSharePercentage */\n      dup4\n        /* \"DripWarrior/poolContract.sol\":8769:8788  calculatePercentage */\n      tag_491\n        /* \"DripWarrior/poolContract.sol\":8769:8836  calculatePercentage(dividentPayoutOPoolAmount, eachSharePercentage) */\n      jump\t// in\n    tag_490:\n        /* \"DripWarrior/poolContract.sol\":8744:8836  uint256 eachSendAmount = calculatePercentage(dividentPayoutOPoolAmount, eachSharePercentage) */\n      swap1\n      pop\n        /* \"DripWarrior/poolContract.sol\":8877:8891  eachSendAmount */\n      dup1\n        /* \"DripWarrior/poolContract.sol\":8854:8873  ownerShipPoolAmount */\n      0x02\n      0x00\n        /* \"DripWarrior/poolContract.sol\":8854:8891  ownerShipPoolAmount -= eachSendAmount */\n      dup3\n      dup3\n      sload\n      tag_492\n      swap2\n      swap1\n      tag_269\n      jump\t// in\n    tag_492:\n      swap3\n      pop\n      pop\n      dup2\n      swap1\n      sstore\n      pop\n        /* \"DripWarrior/poolContract.sol\":8946:8960  eachSendAmount */\n      dup1\n        /* \"DripWarrior/poolContract.sol\":8934:8960  maxlimit += eachSendAmount */\n      dup5\n      tag_493\n      swap2\n      swap1\n      tag_300\n      jump\t// in\n    tag_493:\n      swap4\n      pop\n        /* \"DripWarrior/poolContract.sol\":9000:9018  perPersonFromTPool */\n      dup5\n        /* \"DripWarrior/poolContract.sol\":8978:8996  treasuryPoolAmount */\n      0x01\n      0x00\n        /* \"DripWarrior/poolContract.sol\":8978:9018  treasuryPoolAmount -= perPersonFromTPool */\n      dup3\n      dup3\n      sload\n      tag_494\n      swap2\n      swap1\n      tag_269\n      jump\t// in\n    tag_494:\n      swap3\n      pop\n      pop\n      dup2\n      swap1\n      sstore\n      pop\n        /* \"DripWarrior/poolContract.sol\":9089:9107  perPersonFromTPool */\n      dup5\n        /* \"DripWarrior/poolContract.sol\":9037:9051  userRegistered */\n      0x13\n        /* \"DripWarrior/poolContract.sol\":9037:9066  userRegistered[totalUsers[i]] */\n      0x00\n        /* \"DripWarrior/poolContract.sol\":9052:9062  totalUsers */\n      0x11\n        /* \"DripWarrior/poolContract.sol\":9052:9065  totalUsers[i] */\n      0x00\n        /* \"DripWarrior/poolContract.sol\":9063:9064  i */\n      dup8\n        /* \"DripWarrior/poolContract.sol\":9052:9065  totalUsers[i] */\n      dup2\n      mstore\n      0x20\n      add\n      swap1\n      dup2\n      mstore\n      0x20\n      add\n      0x00\n      keccak256\n      0x00\n      swap1\n      sload\n      swap1\n      0x0100\n      exp\n      swap1\n      div\n      0xffffffffffffffffffffffffffffffffffffffff\n      and\n        /* \"DripWarrior/poolContract.sol\":9037:9066  userRegistered[totalUsers[i]] */\n      0xffffffffffffffffffffffffffffffffffffffff\n      and\n      0xffffffffffffffffffffffffffffffffffffffff\n      and\n      dup2\n      mstore\n      0x20\n      add\n      swap1\n      dup2\n      mstore\n      0x20\n      add\n      0x00\n      keccak256\n        /* \"DripWarrior/poolContract.sol\":9037:9086  userRegistered[totalUsers[i]].receiveFromTreasury */\n      0x03\n      add\n        /* \"DripWarrior/poolContract.sol\":9037:9107  userRegistered[totalUsers[i]].receiveFromTreasury = perPersonFromTPool */\n      dup2\n      swap1\n      sstore\n      pop\n        /* \"DripWarrior/poolContract.sol\":9179:9193  eachSendAmount */\n      dup1\n        /* \"DripWarrior/poolContract.sol\":9125:9139  userRegistered */\n      0x13\n        /* \"DripWarrior/poolContract.sol\":9125:9154  userRegistered[totalUsers[i]] */\n      0x00\n        /* \"DripWarrior/poolContract.sol\":9140:9150  totalUsers */\n      0x11\n        /* \"DripWarrior/poolContract.sol\":9140:9153  totalUsers[i] */\n      0x00\n        /* \"DripWarrior/poolContract.sol\":9151:9152  i */\n      dup8\n        /* \"DripWarrior/poolContract.sol\":9140:9153  totalUsers[i] */\n      dup2\n      mstore\n      0x20\n      add\n      swap1\n      dup2\n      mstore\n      0x20\n      add\n      0x00\n      keccak256\n      0x00\n      swap1\n      sload\n      swap1\n      0x0100\n      exp\n      swap1\n      div\n      0xffffffffffffffffffffffffffffffffffffffff\n      and\n        /* \"DripWarrior/poolContract.sol\":9125:9154  userRegistered[totalUsers[i]] */\n      0xffffffffffffffffffffffffffffffffffffffff\n      and\n      0xffffffffffffffffffffffffffffffffffffffff\n      and\n      dup2\n      mstore\n      0x20\n      add\n      swap1\n      dup2\n      mstore\n      0x20\n      add\n      0x00\n      keccak256\n        /* \"DripWarrior/poolContract.sol\":9125:9176  userRegistered[totalUsers[i]].receiveFromOwneerShip */\n      0x04\n      add\n        /* \"DripWarrior/poolContract.sol\":9125:9193  userRegistered[totalUsers[i]].receiveFromOwneerShip = eachSendAmount */\n      dup2\n      swap1\n      sstore\n      pop\n        /* \"DripWarrior/poolContract.sol\":9228:9251  uint256 totalSendAmount */\n      0x00\n        /* \"DripWarrior/poolContract.sol\":9271:9289  perPersonFromTPool */\n      dup6\n        /* \"DripWarrior/poolContract.sol\":9254:9268  eachSendAmount */\n      dup3\n        /* \"DripWarrior/poolContract.sol\":9254:9289  eachSendAmount + perPersonFromTPool */\n      tag_495\n      swap2\n      swap1\n      tag_300\n      jump\t// in\n    tag_495:\n        /* \"DripWarrior/poolContract.sol\":9228:9289  uint256 totalSendAmount = eachSendAmount + perPersonFromTPool */\n      swap1\n      pop\n        /* \"DripWarrior/poolContract.sol\":9355:9370  totalSendAmount */\n      dup1\n        /* \"DripWarrior/poolContract.sol\":9307:9321  userRegistered */\n      0x13\n        /* \"DripWarrior/poolContract.sol\":9307:9336  userRegistered[totalUsers[i]] */\n      0x00\n        /* \"DripWarrior/poolContract.sol\":9322:9332  totalUsers */\n      0x11\n        /* \"DripWarrior/poolContract.sol\":9322:9335  totalUsers[i] */\n      0x00\n        /* \"DripWarrior/poolContract.sol\":9333:9334  i */\n      dup9\n        /* \"DripWarrior/poolContract.sol\":9322:9335  totalUsers[i] */\n      dup2\n      mstore\n      0x20\n      add\n      swap1\n      dup2\n      mstore\n      0x20\n      add\n      0x00\n      keccak256\n      0x00\n      swap1\n      sload\n      swap1\n      0x0100\n      exp\n      swap1\n      div\n      0xffffffffffffffffffffffffffffffffffffffff\n      and\n        /* \"DripWarrior/poolContract.sol\":9307:9336  userRegistered[totalUsers[i]] */\n      0xffffffffffffffffffffffffffffffffffffffff\n      and\n      0xffffffffffffffffffffffffffffffffffffffff\n      and\n      dup2\n      mstore\n      0x20\n      add\n      swap1\n      dup2\n      mstore\n      0x20\n      add\n      0x00\n      keccak256\n        /* \"DripWarrior/poolContract.sol\":9307:9351  userRegistered[totalUsers[i]].receivedAmount */\n      0x01\n      add\n      0x00\n        /* \"DripWarrior/poolContract.sol\":9307:9370  userRegistered[totalUsers[i]].receivedAmount += totalSendAmount */\n      dup3\n      dup3\n      sload\n      tag_496\n      swap2\n      swap1\n      tag_300\n      jump\t// in\n    tag_496:\n      swap3\n      pop\n      pop\n      dup2\n      swap1\n      sstore\n      pop\n        /* \"DripWarrior/poolContract.sol\":9409:9425  remainFiftyOPool */\n      dup8\n        /* \"DripWarrior/poolContract.sol\":9397:9405  maxlimit */\n      dup6\n        /* \"DripWarrior/poolContract.sol\":9397:9425  maxlimit <= remainFiftyOPool */\n      gt\n      iszero\n        /* \"DripWarrior/poolContract.sol\":9389:9456  require(maxlimit <= remainFiftyOPool, \"Amount is greater then 50%\") */\n      tag_497\n      jumpi\n      mload(0x40)\n      0x08c379a000000000000000000000000000000000000000000000000000000000\n      dup2\n      mstore\n      0x04\n      add\n      tag_498\n      swap1\n      tag_499\n      jump\t// in\n    tag_498:\n      mload(0x40)\n      dup1\n      swap2\n      sub\n      swap1\n      revert\n    tag_497:\n        /* \"DripWarrior/poolContract.sol\":8579:9471  {... */\n      pop\n      pop\n      pop\n        /* \"DripWarrior/poolContract.sol\":8537:9471  if(!userRegistered[totalUsers[i]].blocked){... */\n    tag_485:\n        /* \"DripWarrior/poolContract.sol\":8518:8521  i++ */\n      dup1\n      dup1\n      0x01\n      add\n      swap2\n      pop\n      pop\n        /* \"DripWarrior/poolContract.sol\":8484:9494  for(uint256 i = 0; i < noOfUsers; i++){... */\n      jump(tag_482)\n    tag_483:\n      pop\n        /* \"DripWarrior/poolContract.sol\":9509:9578  WeeklyTransfered(msg.sender, ownerShipPoolAmount, treasuryPoolAmount) */\n      0xee826440768329b0c72f81331212ee31fcdac1ea79a248d24821e40c34e58020\n        /* \"DripWarrior/poolContract.sol\":9526:9536  msg.sender */\n      caller\n        /* \"DripWarrior/poolContract.sol\":9538:9557  ownerShipPoolAmount */\n      sload(0x02)\n        /* \"DripWarrior/poolContract.sol\":9559:9577  treasuryPoolAmount */\n      sload(0x01)\n        /* \"DripWarrior/poolContract.sol\":9509:9578  WeeklyTransfered(msg.sender, ownerShipPoolAmount, treasuryPoolAmount) */\n      mload(0x40)\n      tag_500\n      swap4\n      swap3\n      swap2\n      swap1\n      tag_323\n      jump\t// in\n    tag_500:\n      mload(0x40)\n      dup1\n      swap2\n      sub\n      swap1\n      log1\n        /* \"DripWarrior/poolContract.sol\":8060:9586  {... */\n      pop\n      pop\n      pop\n      pop\n        /* \"DripWarrior/poolContract.sol\":8026:9586  function weeklyTransfer() public  {... */\n      jump\t// out\n        /* \"DripWarrior/poolContract.sol\":14423:14765  function setTeasueryPercentages(uint256 _projectId,uint256 _newPerccentage) external onlyOwner {... */\n    tag_250:\n        /* \"@openzeppelin/contracts-upgradeable/access/OwnableUpgradeable.sol\":2334:2347  _checkOwner() */\n      tag_502\n        /* \"@openzeppelin/contracts-upgradeable/access/OwnableUpgradeable.sol\":2334:2345  _checkOwner */\n      tag_262\n        /* \"@openzeppelin/contracts-upgradeable/access/OwnableUpgradeable.sol\":2334:2347  _checkOwner() */\n      jump\t// in\n    tag_502:\n        /* \"DripWarrior/poolContract.sol\":14559:14560  0 */\n      0x00\n        /* \"DripWarrior/poolContract.sol\":14540:14555  _newPerccentage */\n      dup2\n        /* \"DripWarrior/poolContract.sol\":14540:14560  _newPerccentage <= 0 */\n      gt\n        /* \"DripWarrior/poolContract.sol\":14537:14625  if(_newPerccentage <= 0){... */\n      tag_504\n      jumpi\n        /* \"DripWarrior/poolContract.sol\":14598:14613  _newPerccentage */\n      dup1\n        /* \"DripWarrior/poolContract.sol\":14582:14614  wrongPercentage(_newPerccentage) */\n      mload(0x40)\n      0xcdbc633500000000000000000000000000000000000000000000000000000000\n      dup2\n      mstore\n      0x04\n      add\n      tag_505\n      swap2\n      swap1\n      tag_60\n      jump\t// in\n    tag_505:\n      mload(0x40)\n      dup1\n      swap2\n      sub\n      swap1\n      revert\n        /* \"DripWarrior/poolContract.sol\":14537:14625  if(_newPerccentage <= 0){... */\n    tag_504:\n        /* \"DripWarrior/poolContract.sol\":14671:14686  _newPerccentage */\n      dup1\n        /* \"DripWarrior/poolContract.sol\":14643:14656  tPPercentages */\n      0x12\n        /* \"DripWarrior/poolContract.sol\":14643:14668  tPPercentages[_projectId] */\n      0x00\n        /* \"DripWarrior/poolContract.sol\":14657:14667  _projectId */\n      dup5\n        /* \"DripWarrior/poolContract.sol\":14643:14668  tPPercentages[_projectId] */\n      dup2\n      mstore\n      0x20\n      add\n      swap1\n      dup2\n      mstore\n      0x20\n      add\n      0x00\n      keccak256\n        /* \"DripWarrior/poolContract.sol\":14643:14686  tPPercentages[_projectId] = _newPerccentage */\n      dup2\n      swap1\n      sstore\n      pop\n        /* \"DripWarrior/poolContract.sol\":14702:14758  PercentageChanged(msg.sender, tPPercentages[_projectId]) */\n      0xb5671393c7c6980552e50a31e778921eb17d764c2e98fbf4d44fff524712def9\n        /* \"DripWarrior/poolContract.sol\":14720:14730  msg.sender */\n      caller\n        /* \"DripWarrior/poolContract.sol\":14732:14745  tPPercentages */\n      0x12\n        /* \"DripWarrior/poolContract.sol\":14732:14757  tPPercentages[_projectId] */\n      0x00\n        /* \"DripWarrior/poolContract.sol\":14746:14756  _projectId */\n      dup6\n        /* \"DripWarrior/poolContract.sol\":14732:14757  tPPercentages[_projectId] */\n      dup2\n      mstore\n      0x20\n      add\n      swap1\n      dup2\n      mstore\n      0x20\n      add\n      0x00\n      keccak256\n      sload\n        /* \"DripWarrior/poolContract.sol\":14702:14758  PercentageChanged(msg.sender, tPPercentages[_projectId]) */\n      mload(0x40)\n      tag_506\n      swap3\n      swap2\n      swap1\n      tag_328\n      jump\t// in\n    tag_506:\n      mload(0x40)\n      dup1\n      swap2\n      sub\n      swap1\n      log1\n        /* \"DripWarrior/poolContract.sol\":14423:14765  function setTeasueryPercentages(uint256 _projectId,uint256 _newPerccentage) external onlyOwner {... */\n      pop\n      pop\n      jump\t// out\n        /* \"@openzeppelin/contracts-upgradeable/access/OwnableUpgradeable.sol\":3405:3620  function transferOwnership(address newOwner) public virtual onlyOwner {... */\n    tag_254:\n        /* \"@openzeppelin/contracts-upgradeable/access/OwnableUpgradeable.sol\":2334:2347  _checkOwner() */\n      tag_508\n        /* \"@openzeppelin/contracts-upgradeable/access/OwnableUpgradeable.sol\":2334:2345  _checkOwner */\n      tag_262\n        /* \"@openzeppelin/contracts-upgradeable/access/OwnableUpgradeable.sol\":2334:2347  _checkOwner() */\n      jump\t// in\n    tag_508:\n        /* \"@openzeppelin/contracts-upgradeable/access/OwnableUpgradeable.sol\":3509:3510  0 */\n      0x00\n        /* \"@openzeppelin/contracts-upgradeable/access/OwnableUpgradeable.sol\":3489:3511  newOwner == address(0) */\n      0xffffffffffffffffffffffffffffffffffffffff\n      and\n        /* \"@openzeppelin/contracts-upgradeable/access/OwnableUpgradeable.sol\":3489:3497  newOwner */\n      dup2\n        /* \"@openzeppelin/contracts-upgradeable/access/OwnableUpgradeable.sol\":3489:3511  newOwner == address(0) */\n      0xffffffffffffffffffffffffffffffffffffffff\n      and\n      sub\n        /* \"@openzeppelin/contracts-upgradeable/access/OwnableUpgradeable.sol\":3485:3576  if (newOwner == address(0)) {... */\n      tag_510\n      jumpi\n        /* \"@openzeppelin/contracts-upgradeable/access/OwnableUpgradeable.sol\":3562:3563  0 */\n      0x00\n        /* \"@openzeppelin/contracts-upgradeable/access/OwnableUpgradeable.sol\":3534:3565  OwnableInvalidOwner(address(0)) */\n      mload(0x40)\n      0x1e4fbdf700000000000000000000000000000000000000000000000000000000\n      dup2\n      mstore\n      0x04\n      add\n      tag_511\n      swap2\n      swap1\n      tag_79\n      jump\t// in\n    tag_511:\n      mload(0x40)\n      dup1\n      swap2\n      sub\n      swap1\n      revert\n        /* \"@openzeppelin/contracts-upgradeable/access/OwnableUpgradeable.sol\":3485:3576  if (newOwner == address(0)) {... */\n    tag_510:\n        /* \"@openzeppelin/contracts-upgradeable/access/OwnableUpgradeable.sol\":3585:3613  _transferOwnership(newOwner) */\n      tag_512\n        /* \"@openzeppelin/contracts-upgradeable/access/OwnableUpgradeable.sol\":3604:3612  newOwner */\n      dup2\n        /* \"@openzeppelin/contracts-upgradeable/access/OwnableUpgradeable.sol\":3585:3603  _transferOwnership */\n      tag_354\n        /* \"@openzeppelin/contracts-upgradeable/access/OwnableUpgradeable.sol\":3585:3613  _transferOwnership(newOwner) */\n      jump\t// in\n    tag_512:\n        /* \"@openzeppelin/contracts-upgradeable/access/OwnableUpgradeable.sol\":3405:3620  function transferOwnership(address newOwner) public virtual onlyOwner {... */\n      pop\n      jump\t// out\n        /* \"DripWarrior/poolContract.sol\":2144:2192  mapping(uint256 => uint256) public tPPercentages */\n    tag_258:\n      mstore(0x20, 0x12)\n      dup1\n      0x00\n      mstore\n      keccak256(0x00, 0x40)\n      0x00\n      swap2\n      pop\n      swap1\n      pop\n      sload\n      dup2\n      jump\t// out\n        /* \"@openzeppelin/contracts-upgradeable/access/OwnableUpgradeable.sol\":2658:2820  function _checkOwner() internal view virtual {... */\n    tag_262:\n        /* \"@openzeppelin/contracts-upgradeable/access/OwnableUpgradeable.sol\":2728:2740  _msgSender() */\n      tag_514\n        /* \"@openzeppelin/contracts-upgradeable/access/OwnableUpgradeable.sol\":2728:2738  _msgSender */\n      tag_515\n        /* \"@openzeppelin/contracts-upgradeable/access/OwnableUpgradeable.sol\":2728:2740  _msgSender() */\n      jump\t// in\n    tag_514:\n        /* \"@openzeppelin/contracts-upgradeable/access/OwnableUpgradeable.sol\":2717:2740  owner() != _msgSender() */\n      0xffffffffffffffffffffffffffffffffffffffff\n      and\n        /* \"@openzeppelin/contracts-upgradeable/access/OwnableUpgradeable.sol\":2717:2724  owner() */\n      tag_516\n        /* \"@openzeppelin/contracts-upgradeable/access/OwnableUpgradeable.sol\":2717:2722  owner */\n      tag_182\n        /* \"@openzeppelin/contracts-upgradeable/access/OwnableUpgradeable.sol\":2717:2724  owner() */\n      jump\t// in\n    tag_516:\n        /* \"@openzeppelin/contracts-upgradeable/access/OwnableUpgradeable.sol\":2717:2740  owner() != _msgSender() */\n      0xffffffffffffffffffffffffffffffffffffffff\n      and\n      eq\n        /* \"@openzeppelin/contracts-upgradeable/access/OwnableUpgradeable.sol\":2713:2814  if (owner() != _msgSender()) {... */\n      tag_517\n      jumpi\n        /* \"@openzeppelin/contracts-upgradeable/access/OwnableUpgradeable.sol\":2790:2802  _msgSender() */\n      tag_518\n        /* \"@openzeppelin/contracts-upgradeable/access/OwnableUpgradeable.sol\":2790:2800  _msgSender */\n      tag_515\n        /* \"@openzeppelin/contracts-upgradeable/access/OwnableUpgradeable.sol\":2790:2802  _msgSender() */\n      jump\t// in\n    tag_518:\n        /* \"@openzeppelin/contracts-upgradeable/access/OwnableUpgradeable.sol\":2763:2803  OwnableUnauthorizedAccount(_msgSender()) */\n      mload(0x40)\n      0x118cdaa700000000000000000000000000000000000000000000000000000000\n      dup2\n      mstore\n      0x04\n      add\n      tag_519\n      swap2\n      swap1\n      tag_79\n      jump\t// in\n    tag_519:\n      mload(0x40)\n      dup1\n      swap2\n      sub\n      swap1\n      revert\n        /* \"@openzeppelin/contracts-upgradeable/access/OwnableUpgradeable.sol\":2713:2814  if (owner() != _msgSender()) {... */\n    tag_517:\n        /* \"@openzeppelin/contracts-upgradeable/access/OwnableUpgradeable.sol\":2658:2820  function _checkOwner() internal view virtual {... */\n      jump\t// out\n        /* \"@openzeppelin/contracts-upgradeable/proxy/utils/UUPSUpgradeable.sol\":4599:4911  function _checkProxy() internal view virtual {... */\n    tag_288:\n        /* \"@openzeppelin/contracts-upgradeable/proxy/utils/UUPSUpgradeable.sol\":4688:4694  __self */\n      immutable(\"0x6740f0f1ed974f4bbc4ea3ddf8917f81b1171208e4ec27e89df857ca2a56624a\")\n        /* \"@openzeppelin/contracts-upgradeable/proxy/utils/UUPSUpgradeable.sol\":4671:4694  address(this) == __self */\n      0xffffffffffffffffffffffffffffffffffffffff\n      and\n        /* \"@openzeppelin/contracts-upgradeable/proxy/utils/UUPSUpgradeable.sol\":4679:4683  this */\n      address\n        /* \"@openzeppelin/contracts-upgradeable/proxy/utils/UUPSUpgradeable.sol\":4671:4694  address(this) == __self */\n      0xffffffffffffffffffffffffffffffffffffffff\n      and\n      eq\n        /* \"@openzeppelin/contracts-upgradeable/proxy/utils/UUPSUpgradeable.sol\":4671:4791  address(this) == __self || // Must be called through delegatecall... */\n      dup1\n      tag_521\n      jumpi\n      pop\n        /* \"@openzeppelin/contracts-upgradeable/proxy/utils/UUPSUpgradeable.sol\":4785:4791  __self */\n      immutable(\"0x6740f0f1ed974f4bbc4ea3ddf8917f81b1171208e4ec27e89df857ca2a56624a\")\n        /* \"@openzeppelin/contracts-upgradeable/proxy/utils/UUPSUpgradeable.sol\":4749:4791  ERC1967Utils.getImplementation() != __self */\n      0xffffffffffffffffffffffffffffffffffffffff\n      and\n        /* \"@openzeppelin/contracts-upgradeable/proxy/utils/UUPSUpgradeable.sol\":4749:4781  ERC1967Utils.getImplementation() */\n      tag_522\n        /* \"@openzeppelin/contracts-upgradeable/proxy/utils/UUPSUpgradeable.sol\":4749:4779  ERC1967Utils.getImplementation */\n      tag_523\n        /* \"@openzeppelin/contracts-upgradeable/proxy/utils/UUPSUpgradeable.sol\":4749:4781  ERC1967Utils.getImplementation() */\n      jump\t// in\n    tag_522:\n        /* \"@openzeppelin/contracts-upgradeable/proxy/utils/UUPSUpgradeable.sol\":4749:4791  ERC1967Utils.getImplementation() != __self */\n      0xffffffffffffffffffffffffffffffffffffffff\n      and\n      eq\n      iszero\n        /* \"@openzeppelin/contracts-upgradeable/proxy/utils/UUPSUpgradeable.sol\":4671:4791  address(this) == __self || // Must be called through delegatecall... */\n    tag_521:\n        /* \"@openzeppelin/contracts-upgradeable/proxy/utils/UUPSUpgradeable.sol\":4654:4905  if (... */\n      iszero\n      tag_524\n      jumpi\n        /* \"@openzeppelin/contracts-upgradeable/proxy/utils/UUPSUpgradeable.sol\":4865:4894  UUPSUnauthorizedCallContext() */\n      mload(0x40)\n      0xe07c8dba00000000000000000000000000000000000000000000000000000000\n      dup2\n      mstore\n      0x04\n      add\n      mload(0x40)\n      dup1\n      swap2\n      sub\n      swap1\n      revert\n        /* \"@openzeppelin/contracts-upgradeable/proxy/utils/UUPSUpgradeable.sol\":4654:4905  if (... */\n    tag_524:\n        /* \"@openzeppelin/contracts-upgradeable/proxy/utils/UUPSUpgradeable.sol\":4599:4911  function _checkProxy() internal view virtual {... */\n      jump\t// out\n        /* \"DripWarrior/poolContract.sol\":16435:16547  function _authorizeUpgrade(address newImplementation)... */\n    tag_291:\n        /* \"@openzeppelin/contracts-upgradeable/access/OwnableUpgradeable.sol\":2334:2347  _checkOwner() */\n      tag_526\n        /* \"@openzeppelin/contracts-upgradeable/access/OwnableUpgradeable.sol\":2334:2345  _checkOwner */\n      tag_262\n        /* \"@openzeppelin/contracts-upgradeable/access/OwnableUpgradeable.sol\":2334:2347  _checkOwner() */\n      jump\t// in\n    tag_526:\n        /* \"DripWarrior/poolContract.sol\":16435:16547  function _authorizeUpgrade(address newImplementation)... */\n      pop\n      jump\t// out\n        /* \"@openzeppelin/contracts-upgradeable/proxy/utils/UUPSUpgradeable.sol\":6052:6590  function _upgradeToAndCallUUPS(address newImplementation, bytes memory data) private {... */\n    tag_293:\n        /* \"@openzeppelin/contracts-upgradeable/proxy/utils/UUPSUpgradeable.sol\":6169:6186  newImplementation */\n      dup2\n        /* \"@openzeppelin/contracts-upgradeable/proxy/utils/UUPSUpgradeable.sol\":6151:6201  IERC1822Proxiable(newImplementation).proxiableUUID */\n      0xffffffffffffffffffffffffffffffffffffffff\n      and\n      0x52d1902d\n        /* \"@openzeppelin/contracts-upgradeable/proxy/utils/UUPSUpgradeable.sol\":6151:6203  IERC1822Proxiable(newImplementation).proxiableUUID() */\n      mload(0x40)\n      dup2\n      0xffffffff\n      and\n      0xe0\n      shl\n      dup2\n      mstore\n      0x04\n      add\n      0x20\n      mload(0x40)\n      dup1\n      dup4\n      sub\n      dup2\n      dup7\n      gas\n      staticcall\n      swap3\n      pop\n      pop\n      pop\n      dup1\n      iszero\n      tag_529\n      jumpi\n      pop\n      mload(0x40)\n      returndatasize\n      not(0x1f)\n      0x1f\n      dup3\n      add\n      and\n      dup3\n      add\n      dup1\n      0x40\n      mstore\n      pop\n      dup2\n      add\n      swap1\n      tag_530\n      swap2\n      swap1\n      tag_531\n      jump\t// in\n    tag_530:\n      0x01\n    tag_529:\n        /* \"@openzeppelin/contracts-upgradeable/proxy/utils/UUPSUpgradeable.sol\":6147:6584  try IERC1822Proxiable(newImplementation).proxiableUUID() returns (bytes32 slot) {... */\n      tag_532\n      jumpi\n        /* \"@openzeppelin/contracts-upgradeable/proxy/utils/UUPSUpgradeable.sol\":6555:6572  newImplementation */\n      dup2\n        /* \"@openzeppelin/contracts-upgradeable/proxy/utils/UUPSUpgradeable.sol\":6513:6573  ERC1967Utils.ERC1967InvalidImplementation(newImplementation) */\n      mload(0x40)\n      0x4c9c8ce300000000000000000000000000000000000000000000000000000000\n      dup2\n      mstore\n      0x04\n      add\n      tag_536\n      swap2\n      swap1\n      tag_79\n      jump\t// in\n    tag_536:\n      mload(0x40)\n      dup1\n      swap2\n      sub\n      swap1\n      revert\n        /* \"@openzeppelin/contracts-upgradeable/proxy/utils/UUPSUpgradeable.sol\":6147:6584  try IERC1822Proxiable(newImplementation).proxiableUUID() returns (bytes32 slot) {... */\n    tag_532:\n        /* \"@openzeppelin/contracts/proxy/ERC1967/ERC1967Utils.sol\":1327:1393  0x360894a13ba1a3210667c828492db98dca3e2076cc3735a920a3ca505d382bbc */\n      0x360894a13ba1a3210667c828492db98dca3e2076cc3735a920a3ca505d382bbc\n        /* \"@openzeppelin/contracts-upgradeable/proxy/utils/UUPSUpgradeable.sol\":6253:6285  ERC1967Utils.IMPLEMENTATION_SLOT */\n      0x00\n      shl\n        /* \"@openzeppelin/contracts-upgradeable/proxy/utils/UUPSUpgradeable.sol\":6245:6249  slot */\n      dup2\n        /* \"@openzeppelin/contracts-upgradeable/proxy/utils/UUPSUpgradeable.sol\":6245:6285  slot != ERC1967Utils.IMPLEMENTATION_SLOT */\n      eq\n        /* \"@openzeppelin/contracts-upgradeable/proxy/utils/UUPSUpgradeable.sol\":6241:6361  if (slot != ERC1967Utils.IMPLEMENTATION_SLOT) {... */\n      tag_538\n      jumpi\n        /* \"@openzeppelin/contracts-upgradeable/proxy/utils/UUPSUpgradeable.sol\":6341:6345  slot */\n      dup1\n        /* \"@openzeppelin/contracts-upgradeable/proxy/utils/UUPSUpgradeable.sol\":6312:6346  UUPSUnsupportedProxiableUUID(slot) */\n      mload(0x40)\n      0xaa1d49a400000000000000000000000000000000000000000000000000000000\n      dup2\n      mstore\n      0x04\n      add\n      tag_539\n      swap2\n      swap1\n      tag_126\n      jump\t// in\n    tag_539:\n      mload(0x40)\n      dup1\n      swap2\n      sub\n      swap1\n      revert\n        /* \"@openzeppelin/contracts-upgradeable/proxy/utils/UUPSUpgradeable.sol\":6241:6361  if (slot != ERC1967Utils.IMPLEMENTATION_SLOT) {... */\n    tag_538:\n        /* \"@openzeppelin/contracts-upgradeable/proxy/utils/UUPSUpgradeable.sol\":6374:6428  ERC1967Utils.upgradeToAndCall(newImplementation, data) */\n      tag_540\n        /* \"@openzeppelin/contracts-upgradeable/proxy/utils/UUPSUpgradeable.sol\":6404:6421  newImplementation */\n      dup4\n        /* \"@openzeppelin/contracts-upgradeable/proxy/utils/UUPSUpgradeable.sol\":6423:6427  data */\n      dup4\n        /* \"@openzeppelin/contracts-upgradeable/proxy/utils/UUPSUpgradeable.sol\":6374:6403  ERC1967Utils.upgradeToAndCall */\n      tag_541\n        /* \"@openzeppelin/contracts-upgradeable/proxy/utils/UUPSUpgradeable.sol\":6374:6428  ERC1967Utils.upgradeToAndCall(newImplementation, data) */\n      jump\t// in\n    tag_540:\n        /* \"@openzeppelin/contracts-upgradeable/proxy/utils/UUPSUpgradeable.sol\":6204:6439  returns (bytes32 slot) {... */\n      pop\n        /* \"@openzeppelin/contracts-upgradeable/proxy/utils/UUPSUpgradeable.sol\":6052:6590  function _upgradeToAndCallUUPS(address newImplementation, bytes memory data) private {... */\n      pop\n      pop\n      jump\t// out\n        /* \"@openzeppelin/contracts-upgradeable/proxy/utils/UUPSUpgradeable.sol\":5028:5241  function _checkNotDelegated() internal view virtual {... */\n    tag_312:\n        /* \"@openzeppelin/contracts-upgradeable/proxy/utils/UUPSUpgradeable.sol\":5111:5117  __self */\n      immutable(\"0x6740f0f1ed974f4bbc4ea3ddf8917f81b1171208e4ec27e89df857ca2a56624a\")\n        /* \"@openzeppelin/contracts-upgradeable/proxy/utils/UUPSUpgradeable.sol\":5094:5117  address(this) != __self */\n      0xffffffffffffffffffffffffffffffffffffffff\n      and\n        /* \"@openzeppelin/contracts-upgradeable/proxy/utils/UUPSUpgradeable.sol\":5102:5106  this */\n      address\n        /* \"@openzeppelin/contracts-upgradeable/proxy/utils/UUPSUpgradeable.sol\":5094:5117  address(this) != __self */\n      0xffffffffffffffffffffffffffffffffffffffff\n      and\n      eq\n        /* \"@openzeppelin/contracts-upgradeable/proxy/utils/UUPSUpgradeable.sol\":5090:5235  if (address(this) != __self) {... */\n      tag_543\n      jumpi\n        /* \"@openzeppelin/contracts-upgradeable/proxy/utils/UUPSUpgradeable.sol\":5195:5224  UUPSUnauthorizedCallContext() */\n      mload(0x40)\n      0xe07c8dba00000000000000000000000000000000000000000000000000000000\n      dup2\n      mstore\n      0x04\n      add\n      mload(0x40)\n      dup1\n      swap2\n      sub\n      swap1\n      revert\n        /* \"@openzeppelin/contracts-upgradeable/proxy/utils/UUPSUpgradeable.sol\":5090:5235  if (address(this) != __self) {... */\n    tag_543:\n        /* \"@openzeppelin/contracts-upgradeable/proxy/utils/UUPSUpgradeable.sol\":5028:5241  function _checkNotDelegated() internal view virtual {... */\n      jump\t// out\n        /* \"@openzeppelin/contracts-upgradeable/access/OwnableUpgradeable.sol\":3774:4022  function _transferOwnership(address newOwner) internal virtual {... */\n    tag_354:\n        /* \"@openzeppelin/contracts-upgradeable/access/OwnableUpgradeable.sol\":3847:3871  OwnableStorage storage $ */\n      0x00\n        /* \"@openzeppelin/contracts-upgradeable/access/OwnableUpgradeable.sol\":3874:3894  _getOwnableStorage() */\n      tag_545\n        /* \"@openzeppelin/contracts-upgradeable/access/OwnableUpgradeable.sol\":3874:3892  _getOwnableStorage */\n      tag_425\n        /* \"@openzeppelin/contracts-upgradeable/access/OwnableUpgradeable.sol\":3874:3894  _getOwnableStorage() */\n      jump\t// in\n    tag_545:\n        /* \"@openzeppelin/contracts-upgradeable/access/OwnableUpgradeable.sol\":3847:3894  OwnableStorage storage $ = _getOwnableStorage() */\n      swap1\n      pop\n        /* \"@openzeppelin/contracts-upgradeable/access/OwnableUpgradeable.sol\":3904:3920  address oldOwner */\n      0x00\n        /* \"@openzeppelin/contracts-upgradeable/access/OwnableUpgradeable.sol\":3923:3924  $ */\n      dup2\n        /* \"@openzeppelin/contracts-upgradeable/access/OwnableUpgradeable.sol\":3923:3931  $._owner */\n      0x00\n      add\n      0x00\n      swap1\n      sload\n      swap1\n      0x0100\n      exp\n      swap1\n      div\n      0xffffffffffffffffffffffffffffffffffffffff\n      and\n        /* \"@openzeppelin/contracts-upgradeable/access/OwnableUpgradeable.sol\":3904:3931  address oldOwner = $._owner */\n      swap1\n      pop\n        /* \"@openzeppelin/contracts-upgradeable/access/OwnableUpgradeable.sol\":3952:3960  newOwner */\n      dup3\n        /* \"@openzeppelin/contracts-upgradeable/access/OwnableUpgradeable.sol\":3941:3942  $ */\n      dup3\n        /* \"@openzeppelin/contracts-upgradeable/access/OwnableUpgradeable.sol\":3941:3949  $._owner */\n      0x00\n      add\n      0x00\n        /* \"@openzeppelin/contracts-upgradeable/access/OwnableUpgradeable.sol\":3941:3960  $._owner = newOwner */\n      0x0100\n      exp\n      dup2\n      sload\n      dup2\n      0xffffffffffffffffffffffffffffffffffffffff\n      mul\n      not\n      and\n      swap1\n      dup4\n      0xffffffffffffffffffffffffffffffffffffffff\n      and\n      mul\n      or\n      swap1\n      sstore\n      pop\n        /* \"@openzeppelin/contracts-upgradeable/access/OwnableUpgradeable.sol\":4006:4014  newOwner */\n      dup3\n        /* \"@openzeppelin/contracts-upgradeable/access/OwnableUpgradeable.sol\":3975:4015  OwnershipTransferred(oldOwner, newOwner) */\n      0xffffffffffffffffffffffffffffffffffffffff\n      and\n        /* \"@openzeppelin/contracts-upgradeable/access/OwnableUpgradeable.sol\":3996:4004  oldOwner */\n      dup2\n        /* \"@openzeppelin/contracts-upgradeable/access/OwnableUpgradeable.sol\":3975:4015  OwnershipTransferred(oldOwner, newOwner) */\n      0xffffffffffffffffffffffffffffffffffffffff\n      and\n      0x8be0079c531659141344cd1fd0a4f28419497f9722a3daafe3b4186f6b6457e0\n      mload(0x40)\n      mload(0x40)\n      dup1\n      swap2\n      sub\n      swap1\n      log3\n        /* \"@openzeppelin/contracts-upgradeable/access/OwnableUpgradeable.sol\":3837:4022  {... */\n      pop\n      pop\n        /* \"@openzeppelin/contracts-upgradeable/access/OwnableUpgradeable.sol\":3774:4022  function _transferOwnership(address newOwner) internal virtual {... */\n      pop\n      jump\t// out\n        /* \"DripWarrior/poolContract.sol\":7639:8018  function calculateFees(uint256 _amount, uint256 _tPPercentage) private {... */\n    tag_414:\n        /* \"DripWarrior/poolContract.sol\":7728:7748  uint256 oPPercentage */\n      0x00\n        /* \"DripWarrior/poolContract.sol\":7759:7772  _tPPercentage */\n      dup2\n        /* \"DripWarrior/poolContract.sol\":7751:7756  10000 */\n      0x2710\n        /* \"DripWarrior/poolContract.sol\":7751:7772  10000 - _tPPercentage */\n      tag_547\n      swap2\n      swap1\n      tag_269\n      jump\t// in\n    tag_547:\n        /* \"DripWarrior/poolContract.sol\":7728:7772  uint256 oPPercentage = 10000 - _tPPercentage */\n      swap1\n      pop\n        /* \"DripWarrior/poolContract.sol\":7782:7802  uint256 ownerShipFee */\n      0x00\n        /* \"DripWarrior/poolContract.sol\":7805:7847  calculatePercentage(_amount, oPPercentage) */\n      tag_548\n        /* \"DripWarrior/poolContract.sol\":7825:7832  _amount */\n      dup5\n        /* \"DripWarrior/poolContract.sol\":7834:7846  oPPercentage */\n      dup4\n        /* \"DripWarrior/poolContract.sol\":7805:7824  calculatePercentage */\n      tag_491\n        /* \"DripWarrior/poolContract.sol\":7805:7847  calculatePercentage(_amount, oPPercentage) */\n      jump\t// in\n    tag_548:\n        /* \"DripWarrior/poolContract.sol\":7782:7847  uint256 ownerShipFee = calculatePercentage(_amount, oPPercentage) */\n      swap1\n      pop\n        /* \"DripWarrior/poolContract.sol\":7857:7876  uint256 treasuryFee */\n      0x00\n        /* \"DripWarrior/poolContract.sol\":7879:7922  calculatePercentage(_amount, _tPPercentage) */\n      tag_549\n        /* \"DripWarrior/poolContract.sol\":7899:7906  _amount */\n      dup6\n        /* \"DripWarrior/poolContract.sol\":7908:7921  _tPPercentage */\n      dup6\n        /* \"DripWarrior/poolContract.sol\":7879:7898  calculatePercentage */\n      tag_491\n        /* \"DripWarrior/poolContract.sol\":7879:7922  calculatePercentage(_amount, _tPPercentage) */\n      jump\t// in\n    tag_549:\n        /* \"DripWarrior/poolContract.sol\":7857:7922  uint256 treasuryFee = calculatePercentage(_amount, _tPPercentage) */\n      swap1\n      pop\n        /* \"DripWarrior/poolContract.sol\":7956:7968  ownerShipFee */\n      dup2\n        /* \"DripWarrior/poolContract.sol\":7933:7952  ownerShipPoolAmount */\n      0x02\n      0x00\n        /* \"DripWarrior/poolContract.sol\":7933:7968  ownerShipPoolAmount += ownerShipFee */\n      dup3\n      dup3\n      sload\n      tag_550\n      swap2\n      swap1\n      tag_300\n      jump\t// in\n    tag_550:\n      swap3\n      pop\n      pop\n      dup2\n      swap1\n      sstore\n      pop\n        /* \"DripWarrior/poolContract.sol\":8000:8011  treasuryFee */\n      dup1\n        /* \"DripWarrior/poolContract.sol\":7978:7996  treasuryPoolAmount */\n      0x01\n      0x00\n        /* \"DripWarrior/poolContract.sol\":7978:8011  treasuryPoolAmount += treasuryFee */\n      dup3\n      dup3\n      sload\n      tag_551\n      swap2\n      swap1\n      tag_300\n      jump\t// in\n    tag_551:\n      swap3\n      pop\n      pop\n      dup2\n      swap1\n      sstore\n      pop\n        /* \"DripWarrior/poolContract.sol\":7710:8018  {... */\n      pop\n      pop\n      pop\n        /* \"DripWarrior/poolContract.sol\":7639:8018  function calculateFees(uint256 _amount, uint256 _tPPercentage) private {... */\n      pop\n      pop\n      jump\t// out\n        /* \"@openzeppelin/contracts-upgradeable/access/OwnableUpgradeable.sol\":1192:1351  function _getOwnableStorage() private pure returns (OwnableStorage storage $) {... */\n    tag_425:\n        /* \"@openzeppelin/contracts-upgradeable/access/OwnableUpgradeable.sol\":1244:1268  OwnableStorage storage $ */\n      0x00\n        /* \"@openzeppelin/contracts-upgradeable/access/OwnableUpgradeable.sol\":1313:1335  OwnableStorageLocation */\n      0x9016d09d72d40fdae2fd8ceac6b6234c7706214fd39c1cd1e609a0528c199300\n        /* \"@openzeppelin/contracts-upgradeable/access/OwnableUpgradeable.sol\":1303:1335  $.slot := OwnableStorageLocation */\n      swap1\n      pop\n        /* \"@openzeppelin/contracts-upgradeable/access/OwnableUpgradeable.sol\":1192:1351  function _getOwnableStorage() private pure returns (OwnableStorage storage $) {... */\n      swap1\n      jump\t// out\n        /* \"@openzeppelin/contracts-upgradeable/proxy/utils/Initializable.sol\":8737:8907  function _getInitializableStorage() private pure returns (InitializableStorage storage $) {... */\n    tag_440:\n        /* \"@openzeppelin/contracts-upgradeable/proxy/utils/Initializable.sol\":8795:8825  InitializableStorage storage $ */\n      0x00\n        /* \"@openzeppelin/contracts-upgradeable/proxy/utils/Initializable.sol\":8870:8891  INITIALIZABLE_STORAGE */\n      0xf0c57e16840df040f15088dc2f81fe391c3923bec73e23a9662efc9c229c6a00\n        /* \"@openzeppelin/contracts-upgradeable/proxy/utils/Initializable.sol\":8860:8891  $.slot := INITIALIZABLE_STORAGE */\n      swap1\n      pop\n        /* \"@openzeppelin/contracts-upgradeable/proxy/utils/Initializable.sol\":8737:8907  function _getInitializableStorage() private pure returns (InitializableStorage storage $) {... */\n      swap1\n      jump\t// out\n        /* \"@openzeppelin/contracts-upgradeable/access/OwnableUpgradeable.sol\":1847:1974  function __Ownable_init(address initialOwner) internal onlyInitializing {... */\n    tag_448:\n        /* \"@openzeppelin/contracts-upgradeable/proxy/utils/Initializable.sol\":6931:6951  _checkInitializing() */\n      tag_555\n        /* \"@openzeppelin/contracts-upgradeable/proxy/utils/Initializable.sol\":6931:6949  _checkInitializing */\n      tag_556\n        /* \"@openzeppelin/contracts-upgradeable/proxy/utils/Initializable.sol\":6931:6951  _checkInitializing() */\n      jump\t// in\n    tag_555:\n        /* \"@openzeppelin/contracts-upgradeable/access/OwnableUpgradeable.sol\":1929:1967  __Ownable_init_unchained(initialOwner) */\n      tag_558\n        /* \"@openzeppelin/contracts-upgradeable/access/OwnableUpgradeable.sol\":1954:1966  initialOwner */\n      dup2\n        /* \"@openzeppelin/contracts-upgradeable/access/OwnableUpgradeable.sol\":1929:1953  __Ownable_init_unchained */\n      tag_559\n        /* \"@openzeppelin/contracts-upgradeable/access/OwnableUpgradeable.sol\":1929:1967  __Ownable_init_unchained(initialOwner) */\n      jump\t// in\n    tag_558:\n        /* \"@openzeppelin/contracts-upgradeable/access/OwnableUpgradeable.sol\":1847:1974  function __Ownable_init(address initialOwner) internal onlyInitializing {... */\n      pop\n      jump\t// out\n        /* \"@openzeppelin/contracts-upgradeable/proxy/utils/UUPSUpgradeable.sol\":2968:3035  function __UUPSUpgradeable_init() internal onlyInitializing {... */\n    tag_450:\n        /* \"@openzeppelin/contracts-upgradeable/proxy/utils/Initializable.sol\":6931:6951  _checkInitializing() */\n      tag_561\n        /* \"@openzeppelin/contracts-upgradeable/proxy/utils/Initializable.sol\":6931:6949  _checkInitializing */\n      tag_556\n        /* \"@openzeppelin/contracts-upgradeable/proxy/utils/Initializable.sol\":6931:6951  _checkInitializing() */\n      jump\t// in\n    tag_561:\n        /* \"@openzeppelin/contracts-upgradeable/proxy/utils/UUPSUpgradeable.sol\":2968:3035  function __UUPSUpgradeable_init() internal onlyInitializing {... */\n      jump\t// out\n        /* \"DripWarrior/poolContract.sol\":9598:10749  function perPoolCalculation() private returns(uint256, uint256,uint256){... */\n    tag_477:\n        /* \"DripWarrior/poolContract.sol\":9644:9651  uint256 */\n      0x00\n        /* \"DripWarrior/poolContract.sol\":9653:9660  uint256 */\n      dup1\n        /* \"DripWarrior/poolContract.sol\":9661:9668  uint256 */\n      0x00\n        /* \"DripWarrior/poolContract.sol\":9689:9713  uint256 remainFiftyOPool */\n      dup1\n        /* \"DripWarrior/poolContract.sol\":9716:9762  calculatePercentage(ownerShipPoolAmount, 5000) */\n      tag_564\n        /* \"DripWarrior/poolContract.sol\":9736:9755  ownerShipPoolAmount */\n      sload(0x02)\n        /* \"DripWarrior/poolContract.sol\":9757:9761  5000 */\n      0x1388\n        /* \"DripWarrior/poolContract.sol\":9716:9735  calculatePercentage */\n      tag_491\n        /* \"DripWarrior/poolContract.sol\":9716:9762  calculatePercentage(ownerShipPoolAmount, 5000) */\n      jump\t// in\n    tag_564:\n        /* \"DripWarrior/poolContract.sol\":9689:9762  uint256 remainFiftyOPool = calculatePercentage(ownerShipPoolAmount, 5000) */\n      swap1\n      pop\n        /* \"DripWarrior/poolContract.sol\":9773:9806  uint256 dividentPayoutOPoolAmount */\n      0x00\n        /* \"DripWarrior/poolContract.sol\":9809:9873  calculatePercentage(remainFiftyOPool, odividentPayoutPercentage) */\n      tag_565\n        /* \"DripWarrior/poolContract.sol\":9829:9845  remainFiftyOPool */\n      dup3\n        /* \"DripWarrior/poolContract.sol\":9847:9872  odividentPayoutPercentage */\n      sload(0x05)\n        /* \"DripWarrior/poolContract.sol\":9809:9828  calculatePercentage */\n      tag_491\n        /* \"DripWarrior/poolContract.sol\":9809:9873  calculatePercentage(remainFiftyOPool, odividentPayoutPercentage) */\n      jump\t// in\n    tag_565:\n        /* \"DripWarrior/poolContract.sol\":9773:9873  uint256 dividentPayoutOPoolAmount = calculatePercentage(remainFiftyOPool, odividentPayoutPercentage) */\n      swap1\n      pop\n        /* \"DripWarrior/poolContract.sol\":9883:9919  uint256 fifteenPercenntToTPoolAmount */\n      0x00\n        /* \"DripWarrior/poolContract.sol\":9922:9985  calculatePercentage(remainFiftyOPool, flowToTreasuryPercentage) */\n      tag_566\n        /* \"DripWarrior/poolContract.sol\":9942:9958  remainFiftyOPool */\n      dup4\n        /* \"DripWarrior/poolContract.sol\":9960:9984  flowToTreasuryPercentage */\n      sload(0x06)\n        /* \"DripWarrior/poolContract.sol\":9922:9941  calculatePercentage */\n      tag_491\n        /* \"DripWarrior/poolContract.sol\":9922:9985  calculatePercentage(remainFiftyOPool, flowToTreasuryPercentage) */\n      jump\t// in\n    tag_566:\n        /* \"DripWarrior/poolContract.sol\":9883:9985  uint256 fifteenPercenntToTPoolAmount = calculatePercentage(remainFiftyOPool, flowToTreasuryPercentage) */\n      swap1\n      pop\n        /* \"DripWarrior/poolContract.sol\":9995:10031  uint256 tenPercenntToMaintenceAmount */\n      0x00\n        /* \"DripWarrior/poolContract.sol\":10034:10096  calculatePercentage(remainFiftyOPool, maintainceFeePercentage) */\n      tag_567\n        /* \"DripWarrior/poolContract.sol\":10054:10070  remainFiftyOPool */\n      dup5\n        /* \"DripWarrior/poolContract.sol\":10072:10095  maintainceFeePercentage */\n      sload(0x07)\n        /* \"DripWarrior/poolContract.sol\":10034:10053  calculatePercentage */\n      tag_491\n        /* \"DripWarrior/poolContract.sol\":10034:10096  calculatePercentage(remainFiftyOPool, maintainceFeePercentage) */\n      jump\t// in\n    tag_567:\n        /* \"DripWarrior/poolContract.sol\":9995:10096  uint256 tenPercenntToMaintenceAmount = calculatePercentage(remainFiftyOPool, maintainceFeePercentage) */\n      swap1\n      pop\n        /* \"DripWarrior/poolContract.sol\":10106:10136  uint256 remainFiftyTPoolAmount */\n      0x00\n        /* \"DripWarrior/poolContract.sol\":10139:10205  calculatePercentage(treasuryPoolAmount, tdividentPayoutPercentage) */\n      tag_568\n        /* \"DripWarrior/poolContract.sol\":10159:10177  treasuryPoolAmount */\n      sload(0x01)\n        /* \"DripWarrior/poolContract.sol\":10179:10204  tdividentPayoutPercentage */\n      sload(0x04)\n        /* \"DripWarrior/poolContract.sol\":10139:10158  calculatePercentage */\n      tag_491\n        /* \"DripWarrior/poolContract.sol\":10139:10205  calculatePercentage(treasuryPoolAmount, tdividentPayoutPercentage) */\n      jump\t// in\n    tag_568:\n        /* \"DripWarrior/poolContract.sol\":10106:10205  uint256 remainFiftyTPoolAmount = calculatePercentage(treasuryPoolAmount, tdividentPayoutPercentage) */\n      swap1\n      pop\n        /* \"DripWarrior/poolContract.sol\":10236:10237  0 */\n      0x00\n        /* \"DripWarrior/poolContract.sol\":10224:10233  noOfUsers */\n      sload(0x08)\n        /* \"DripWarrior/poolContract.sol\":10224:10237  noOfUsers > 0 */\n      gt\n        /* \"DripWarrior/poolContract.sol\":10216:10251  require(noOfUsers > 0, \"no users!\") */\n      tag_569\n      jumpi\n      mload(0x40)\n      0x08c379a000000000000000000000000000000000000000000000000000000000\n      dup2\n      mstore\n      0x04\n      add\n      tag_570\n      swap1\n      tag_571\n      jump\t// in\n    tag_570:\n      mload(0x40)\n      dup1\n      swap2\n      sub\n      swap1\n      revert\n    tag_569:\n        /* \"DripWarrior/poolContract.sol\":10270:10296  uint256 perPersonFromTPool */\n      0x00\n        /* \"DripWarrior/poolContract.sol\":10322:10331  noOfUsers */\n      sload(0x08)\n        /* \"DripWarrior/poolContract.sol\":10299:10321  remainFiftyTPoolAmount */\n      dup3\n        /* \"DripWarrior/poolContract.sol\":10299:10331  remainFiftyTPoolAmount/noOfUsers */\n      tag_572\n      swap2\n      swap1\n      tag_489\n      jump\t// in\n    tag_572:\n        /* \"DripWarrior/poolContract.sol\":10270:10331  uint256 perPersonFromTPool = remainFiftyTPoolAmount/noOfUsers */\n      swap1\n      pop\n        /* \"DripWarrior/poolContract.sol\":10405:10433  tenPercenntToMaintenceAmount */\n      dup3\n        /* \"DripWarrior/poolContract.sol\":10374:10402  fifteenPercenntToTPoolAmount */\n      dup5\n        /* \"DripWarrior/poolContract.sol\":10374:10433  fifteenPercenntToTPoolAmount + tenPercenntToMaintenceAmount */\n      tag_573\n      swap2\n      swap1\n      tag_300\n      jump\t// in\n    tag_573:\n        /* \"DripWarrior/poolContract.sol\":10350:10369  ownerShipPoolAmount */\n      0x02\n      0x00\n        /* \"DripWarrior/poolContract.sol\":10350:10434  ownerShipPoolAmount -= (fifteenPercenntToTPoolAmount + tenPercenntToMaintenceAmount) */\n      dup3\n      dup3\n      sload\n      tag_574\n      swap2\n      swap1\n      tag_269\n      jump\t// in\n    tag_574:\n      swap3\n      pop\n      pop\n      dup2\n      swap1\n      sstore\n      pop\n        /* \"DripWarrior/poolContract.sol\":10466:10494  fifteenPercenntToTPoolAmount */\n      dup4\n        /* \"DripWarrior/poolContract.sol\":10444:10462  treasuryPoolAmount */\n      0x01\n      0x00\n        /* \"DripWarrior/poolContract.sol\":10444:10494  treasuryPoolAmount += fifteenPercenntToTPoolAmount */\n      dup3\n      dup3\n      sload\n      tag_575\n      swap2\n      swap1\n      tag_300\n      jump\t// in\n    tag_575:\n      swap3\n      pop\n      pop\n      dup2\n      swap1\n      sstore\n      pop\n        /* \"DripWarrior/poolContract.sol\":10505:10517  bool success */\n      0x00\n        /* \"DripWarrior/poolContract.sol\":10520:10529  usdcToken */\n      dup1\n      0x00\n      swap1\n      sload\n      swap1\n      0x0100\n      exp\n      swap1\n      div\n      0xffffffffffffffffffffffffffffffffffffffff\n      and\n        /* \"DripWarrior/poolContract.sol\":10520:10538  usdcToken.transfer */\n      0xffffffffffffffffffffffffffffffffffffffff\n      and\n      0xa9059cbb\n        /* \"DripWarrior/poolContract.sol\":10539:10554  multisigAddress */\n      0x09\n      0x00\n      swap1\n      sload\n      swap1\n      0x0100\n      exp\n      swap1\n      div\n      0xffffffffffffffffffffffffffffffffffffffff\n      and\n        /* \"DripWarrior/poolContract.sol\":10556:10584  tenPercenntToMaintenceAmount */\n      dup7\n        /* \"DripWarrior/poolContract.sol\":10520:10585  usdcToken.transfer(multisigAddress, tenPercenntToMaintenceAmount) */\n      mload(0x40)\n      dup4\n      0xffffffff\n      and\n      0xe0\n      shl\n      dup2\n      mstore\n      0x04\n      add\n      tag_576\n      swap3\n      swap2\n      swap1\n      tag_328\n      jump\t// in\n    tag_576:\n      0x20\n      mload(0x40)\n      dup1\n      dup4\n      sub\n      dup2\n      0x00\n      dup8\n      gas\n      call\n      iszero\n      dup1\n      iszero\n      tag_578\n      jumpi\n      returndatasize\n      0x00\n      dup1\n      returndatacopy\n      revert(0x00, returndatasize)\n    tag_578:\n      pop\n      pop\n      pop\n      pop\n      mload(0x40)\n      returndatasize\n      not(0x1f)\n      0x1f\n      dup3\n      add\n      and\n      dup3\n      add\n      dup1\n      0x40\n      mstore\n      pop\n      dup2\n      add\n      swap1\n      tag_579\n      swap2\n      swap1\n      tag_306\n      jump\t// in\n    tag_579:\n        /* \"DripWarrior/poolContract.sol\":10505:10585  bool success = usdcToken.transfer(multisigAddress, tenPercenntToMaintenceAmount) */\n      swap1\n      pop\n        /* \"DripWarrior/poolContract.sol\":10599:10606  success */\n      dup1\n        /* \"DripWarrior/poolContract.sol\":10595:10662  if(!success){... */\n      tag_580\n      jumpi\n        /* \"DripWarrior/poolContract.sol\":10643:10650  success */\n      dup1\n        /* \"DripWarrior/poolContract.sol\":10628:10651  transferFailed(success) */\n      mload(0x40)\n      0xd85d3cef00000000000000000000000000000000000000000000000000000000\n      dup2\n      mstore\n      0x04\n      add\n      tag_581\n      swap2\n      swap1\n      tag_88\n      jump\t// in\n    tag_581:\n      mload(0x40)\n      dup1\n      swap2\n      sub\n      swap1\n      revert\n        /* \"DripWarrior/poolContract.sol\":10595:10662  if(!success){... */\n    tag_580:\n        /* \"DripWarrior/poolContract.sol\":10680:10696  remainFiftyOPool */\n      dup7\n        /* \"DripWarrior/poolContract.sol\":10697:10722  dividentPayoutOPoolAmount */\n      dup7\n        /* \"DripWarrior/poolContract.sol\":10723:10741  perPersonFromTPool */\n      dup4\n        /* \"DripWarrior/poolContract.sol\":10672:10742  return (remainFiftyOPool,dividentPayoutOPoolAmount,perPersonFromTPool) */\n      swap10\n      pop\n      swap10\n      pop\n      swap10\n      pop\n      pop\n      pop\n      pop\n      pop\n      pop\n      pop\n      pop\n        /* \"DripWarrior/poolContract.sol\":9598:10749  function perPoolCalculation() private returns(uint256, uint256,uint256){... */\n      swap1\n      swap2\n      swap3\n      jump\t// out\n        /* \"DripWarrior/poolContract.sol\":12862:13259  function calculatePercentage(uint256 _totalStakeAmount,uint256 percentageNumber) private pure returns(uint256) {... */\n    tag_491:\n        /* \"DripWarrior/poolContract.sol\":12964:12971  uint256 */\n      0x00\n        /* \"DripWarrior/poolContract.sol\":13020:13021  0 */\n      dup1\n        /* \"DripWarrior/poolContract.sol\":13000:13017  _totalStakeAmount */\n      dup4\n        /* \"DripWarrior/poolContract.sol\":13000:13021  _totalStakeAmount !=0 */\n      sub\n        /* \"DripWarrior/poolContract.sol\":12992:13060  require(_totalStakeAmount !=0 , \"_totalStakeAmount can not be zero\") */\n      tag_583\n      jumpi\n      mload(0x40)\n      0x08c379a000000000000000000000000000000000000000000000000000000000\n      dup2\n      mstore\n      0x04\n      add\n      tag_584\n      swap1\n      tag_585\n      jump\t// in\n    tag_584:\n      mload(0x40)\n      dup1\n      swap2\n      sub\n      swap1\n      revert\n    tag_583:\n        /* \"DripWarrior/poolContract.sol\":13097:13098  0 */\n      0x00\n        /* \"DripWarrior/poolContract.sol\":13078:13094  percentageNumber */\n      dup3\n        /* \"DripWarrior/poolContract.sol\":13078:13098  percentageNumber !=0 */\n      sub\n        /* \"DripWarrior/poolContract.sol\":13070:13137  require(percentageNumber !=0 , \"_totalStakeAmount can not be zero\") */\n      tag_586\n      jumpi\n      mload(0x40)\n      0x08c379a000000000000000000000000000000000000000000000000000000000\n      dup2\n      mstore\n      0x04\n      add\n      tag_587\n      swap1\n      tag_585\n      jump\t// in\n    tag_587:\n      mload(0x40)\n      dup1\n      swap2\n      sub\n      swap1\n      revert\n    tag_586:\n        /* \"DripWarrior/poolContract.sol\":13147:13165  uint256 serviceFee */\n      0x00\n        /* \"DripWarrior/poolContract.sol\":13210:13215  10000 */\n      0x2710\n        /* \"DripWarrior/poolContract.sol\":13189:13205  percentageNumber */\n      dup4\n        /* \"DripWarrior/poolContract.sol\":13168:13185  _totalStakeAmount */\n      dup6\n        /* \"DripWarrior/poolContract.sol\":13168:13206  _totalStakeAmount * (percentageNumber) */\n      tag_588\n      swap2\n      swap1\n      tag_487\n      jump\t// in\n    tag_588:\n        /* \"DripWarrior/poolContract.sol\":13168:13216  _totalStakeAmount * (percentageNumber) / (10000) */\n      tag_589\n      swap2\n      swap1\n      tag_489\n      jump\t// in\n    tag_589:\n        /* \"DripWarrior/poolContract.sol\":13147:13216  uint256 serviceFee = _totalStakeAmount * (percentageNumber) / (10000) */\n      swap1\n      pop\n        /* \"DripWarrior/poolContract.sol\":13242:13252  serviceFee */\n      dup1\n        /* \"DripWarrior/poolContract.sol\":13235:13252  return serviceFee */\n      swap2\n      pop\n      pop\n        /* \"DripWarrior/poolContract.sol\":12862:13259  function calculatePercentage(uint256 _totalStakeAmount,uint256 percentageNumber) private pure returns(uint256) {... */\n      swap3\n      swap2\n      pop\n      pop\n      jump\t// out\n        /* \"@openzeppelin/contracts-upgradeable/utils/ContextUpgradeable.sol\":887:983  function _msgSender() internal view virtual returns (address) {... */\n    tag_515:\n        /* \"@openzeppelin/contracts-upgradeable/utils/ContextUpgradeable.sol\":940:947  address */\n      0x00\n        /* \"@openzeppelin/contracts-upgradeable/utils/ContextUpgradeable.sol\":966:976  msg.sender */\n      caller\n        /* \"@openzeppelin/contracts-upgradeable/utils/ContextUpgradeable.sol\":959:976  return msg.sender */\n      swap1\n      pop\n        /* \"@openzeppelin/contracts-upgradeable/utils/ContextUpgradeable.sol\":887:983  function _msgSender() internal view virtual returns (address) {... */\n      swap1\n      jump\t// out\n        /* \"@openzeppelin/contracts/proxy/ERC1967/ERC1967Utils.sol\":1957:2095  function getImplementation() internal view returns (address) {... */\n    tag_523:\n        /* \"@openzeppelin/contracts/proxy/ERC1967/ERC1967Utils.sol\":2009:2016  address */\n      0x00\n        /* \"@openzeppelin/contracts/proxy/ERC1967/ERC1967Utils.sol\":2035:2082  StorageSlot.getAddressSlot(IMPLEMENTATION_SLOT) */\n      tag_592\n        /* \"@openzeppelin/contracts/proxy/ERC1967/ERC1967Utils.sol\":1327:1393  0x360894a13ba1a3210667c828492db98dca3e2076cc3735a920a3ca505d382bbc */\n      0x360894a13ba1a3210667c828492db98dca3e2076cc3735a920a3ca505d382bbc\n        /* \"@openzeppelin/contracts/proxy/ERC1967/ERC1967Utils.sol\":2062:2081  IMPLEMENTATION_SLOT */\n      0x00\n      shl\n        /* \"@openzeppelin/contracts/proxy/ERC1967/ERC1967Utils.sol\":2035:2061  StorageSlot.getAddressSlot */\n      tag_593\n        /* \"@openzeppelin/contracts/proxy/ERC1967/ERC1967Utils.sol\":2035:2082  StorageSlot.getAddressSlot(IMPLEMENTATION_SLOT) */\n      jump\t// in\n    tag_592:\n        /* \"@openzeppelin/contracts/proxy/ERC1967/ERC1967Utils.sol\":2035:2088  StorageSlot.getAddressSlot(IMPLEMENTATION_SLOT).value */\n      0x00\n      add\n      0x00\n      swap1\n      sload\n      swap1\n      0x0100\n      exp\n      swap1\n      div\n      0xffffffffffffffffffffffffffffffffffffffff\n      and\n        /* \"@openzeppelin/contracts/proxy/ERC1967/ERC1967Utils.sol\":2028:2088  return StorageSlot.getAddressSlot(IMPLEMENTATION_SLOT).value */\n      swap1\n      pop\n        /* \"@openzeppelin/contracts/proxy/ERC1967/ERC1967Utils.sol\":1957:2095  function getImplementation() internal view returns (address) {... */\n      swap1\n      jump\t// out\n        /* \"@openzeppelin/contracts/proxy/ERC1967/ERC1967Utils.sol\":2779:3114  function upgradeToAndCall(address newImplementation, bytes memory data) internal {... */\n    tag_541:\n        /* \"@openzeppelin/contracts/proxy/ERC1967/ERC1967Utils.sol\":2870:2907  _setImplementation(newImplementation) */\n      tag_595\n        /* \"@openzeppelin/contracts/proxy/ERC1967/ERC1967Utils.sol\":2889:2906  newImplementation */\n      dup3\n        /* \"@openzeppelin/contracts/proxy/ERC1967/ERC1967Utils.sol\":2870:2888  _setImplementation */\n      tag_596\n        /* \"@openzeppelin/contracts/proxy/ERC1967/ERC1967Utils.sol\":2870:2907  _setImplementation(newImplementation) */\n      jump\t// in\n    tag_595:\n        /* \"@openzeppelin/contracts/proxy/ERC1967/ERC1967Utils.sol\":2931:2948  newImplementation */\n      dup2\n        /* \"@openzeppelin/contracts/proxy/ERC1967/ERC1967Utils.sol\":2922:2949  Upgraded(newImplementation) */\n      0xffffffffffffffffffffffffffffffffffffffff\n      and\n      0xbc7cd75a20ee27fd9adebab32041f755214dbc6bffa90cc0225b39da2e5c2d3b\n      mload(0x40)\n      mload(0x40)\n      dup1\n      swap2\n      sub\n      swap1\n      log2\n        /* \"@openzeppelin/contracts/proxy/ERC1967/ERC1967Utils.sol\":2978:2979  0 */\n      0x00\n        /* \"@openzeppelin/contracts/proxy/ERC1967/ERC1967Utils.sol\":2964:2968  data */\n      dup2\n        /* \"@openzeppelin/contracts/proxy/ERC1967/ERC1967Utils.sol\":2964:2975  data.length */\n      mload\n        /* \"@openzeppelin/contracts/proxy/ERC1967/ERC1967Utils.sol\":2964:2979  data.length > 0 */\n      gt\n        /* \"@openzeppelin/contracts/proxy/ERC1967/ERC1967Utils.sol\":2960:3108  if (data.length > 0) {... */\n      iszero\n      tag_597\n      jumpi\n        /* \"@openzeppelin/contracts/proxy/ERC1967/ERC1967Utils.sol\":2995:3048  Address.functionDelegateCall(newImplementation, data) */\n      tag_598\n        /* \"@openzeppelin/contracts/proxy/ERC1967/ERC1967Utils.sol\":3024:3041  newImplementation */\n      dup3\n        /* \"@openzeppelin/contracts/proxy/ERC1967/ERC1967Utils.sol\":3043:3047  data */\n      dup3\n        /* \"@openzeppelin/contracts/proxy/ERC1967/ERC1967Utils.sol\":2995:3023  Address.functionDelegateCall */\n      tag_599\n        /* \"@openzeppelin/contracts/proxy/ERC1967/ERC1967Utils.sol\":2995:3048  Address.functionDelegateCall(newImplementation, data) */\n      jump\t// in\n    tag_598:\n      pop\n        /* \"@openzeppelin/contracts/proxy/ERC1967/ERC1967Utils.sol\":2960:3108  if (data.length > 0) {... */\n      jump(tag_600)\n    tag_597:\n        /* \"@openzeppelin/contracts/proxy/ERC1967/ERC1967Utils.sol\":3079:3097  _checkNonPayable() */\n      tag_601\n        /* \"@openzeppelin/contracts/proxy/ERC1967/ERC1967Utils.sol\":3079:3095  _checkNonPayable */\n      tag_602\n        /* \"@openzeppelin/contracts/proxy/ERC1967/ERC1967Utils.sol\":3079:3097  _checkNonPayable() */\n      jump\t// in\n    tag_601:\n        /* \"@openzeppelin/contracts/proxy/ERC1967/ERC1967Utils.sol\":2960:3108  if (data.length > 0) {... */\n    tag_600:\n        /* \"@openzeppelin/contracts/proxy/ERC1967/ERC1967Utils.sol\":2779:3114  function upgradeToAndCall(address newImplementation, bytes memory data) internal {... */\n      pop\n      pop\n      jump\t// out\n        /* \"@openzeppelin/contracts-upgradeable/proxy/utils/Initializable.sol\":7084:7225  function _checkInitializing() internal view virtual {... */\n    tag_556:\n        /* \"@openzeppelin/contracts-upgradeable/proxy/utils/Initializable.sol\":7151:7168  _isInitializing() */\n      tag_604\n        /* \"@openzeppelin/contracts-upgradeable/proxy/utils/Initializable.sol\":7151:7166  _isInitializing */\n      tag_605\n        /* \"@openzeppelin/contracts-upgradeable/proxy/utils/Initializable.sol\":7151:7168  _isInitializing() */\n      jump\t// in\n    tag_604:\n        /* \"@openzeppelin/contracts-upgradeable/proxy/utils/Initializable.sol\":7146:7219  if (!_isInitializing()) {... */\n      tag_606\n      jumpi\n        /* \"@openzeppelin/contracts-upgradeable/proxy/utils/Initializable.sol\":7191:7208  NotInitializing() */\n      mload(0x40)\n      0xd7e6bcf800000000000000000000000000000000000000000000000000000000\n      dup2\n      mstore\n      0x04\n      add\n      mload(0x40)\n      dup1\n      swap2\n      sub\n      swap1\n      revert\n        /* \"@openzeppelin/contracts-upgradeable/proxy/utils/Initializable.sol\":7146:7219  if (!_isInitializing()) {... */\n    tag_606:\n        /* \"@openzeppelin/contracts-upgradeable/proxy/utils/Initializable.sol\":7084:7225  function _checkInitializing() internal view virtual {... */\n      jump\t// out\n        /* \"@openzeppelin/contracts-upgradeable/access/OwnableUpgradeable.sol\":1980:2215  function __Ownable_init_unchained(address initialOwner) internal onlyInitializing {... */\n    tag_559:\n        /* \"@openzeppelin/contracts-upgradeable/proxy/utils/Initializable.sol\":6931:6951  _checkInitializing() */\n      tag_608\n        /* \"@openzeppelin/contracts-upgradeable/proxy/utils/Initializable.sol\":6931:6949  _checkInitializing */\n      tag_556\n        /* \"@openzeppelin/contracts-upgradeable/proxy/utils/Initializable.sol\":6931:6951  _checkInitializing() */\n      jump\t// in\n    tag_608:\n        /* \"@openzeppelin/contracts-upgradeable/access/OwnableUpgradeable.sol\":2100:2101  0 */\n      0x00\n        /* \"@openzeppelin/contracts-upgradeable/access/OwnableUpgradeable.sol\":2076:2102  initialOwner == address(0) */\n      0xffffffffffffffffffffffffffffffffffffffff\n      and\n        /* \"@openzeppelin/contracts-upgradeable/access/OwnableUpgradeable.sol\":2076:2088  initialOwner */\n      dup2\n        /* \"@openzeppelin/contracts-upgradeable/access/OwnableUpgradeable.sol\":2076:2102  initialOwner == address(0) */\n      0xffffffffffffffffffffffffffffffffffffffff\n      and\n      sub\n        /* \"@openzeppelin/contracts-upgradeable/access/OwnableUpgradeable.sol\":2072:2167  if (initialOwner == address(0)) {... */\n      tag_610\n      jumpi\n        /* \"@openzeppelin/contracts-upgradeable/access/OwnableUpgradeable.sol\":2153:2154  0 */\n      0x00\n        /* \"@openzeppelin/contracts-upgradeable/access/OwnableUpgradeable.sol\":2125:2156  OwnableInvalidOwner(address(0)) */\n      mload(0x40)\n      0x1e4fbdf700000000000000000000000000000000000000000000000000000000\n      dup2\n      mstore\n      0x04\n      add\n      tag_611\n      swap2\n      swap1\n      tag_79\n      jump\t// in\n    tag_611:\n      mload(0x40)\n      dup1\n      swap2\n      sub\n      swap1\n      revert\n        /* \"@openzeppelin/contracts-upgradeable/access/OwnableUpgradeable.sol\":2072:2167  if (initialOwner == address(0)) {... */\n    tag_610:\n        /* \"@openzeppelin/contracts-upgradeable/access/OwnableUpgradeable.sol\":2176:2208  _transferOwnership(initialOwner) */\n      tag_612\n        /* \"@openzeppelin/contracts-upgradeable/access/OwnableUpgradeable.sol\":2195:2207  initialOwner */\n      dup2\n        /* \"@openzeppelin/contracts-upgradeable/access/OwnableUpgradeable.sol\":2176:2194  _transferOwnership */\n      tag_354\n        /* \"@openzeppelin/contracts-upgradeable/access/OwnableUpgradeable.sol\":2176:2208  _transferOwnership(initialOwner) */\n      jump\t// in\n    tag_612:\n        /* \"@openzeppelin/contracts-upgradeable/access/OwnableUpgradeable.sol\":1980:2215  function __Ownable_init_unchained(address initialOwner) internal onlyInitializing {... */\n      pop\n      jump\t// out\n        /* \"@openzeppelin/contracts/utils/StorageSlot.sol\":1684:1874  function getAddressSlot(bytes32 slot) internal pure returns (AddressSlot storage r) {... */\n    tag_593:\n        /* \"@openzeppelin/contracts/utils/StorageSlot.sol\":1745:1766  AddressSlot storage r */\n      0x00\n        /* \"@openzeppelin/contracts/utils/StorageSlot.sol\":1854:1858  slot */\n      dup2\n        /* \"@openzeppelin/contracts/utils/StorageSlot.sol\":1844:1858  r.slot := slot */\n      swap1\n      pop\n        /* \"@openzeppelin/contracts/utils/StorageSlot.sol\":1684:1874  function getAddressSlot(bytes32 slot) internal pure returns (AddressSlot storage r) {... */\n      swap2\n      swap1\n      pop\n      jump\t// out\n        /* \"@openzeppelin/contracts/proxy/ERC1967/ERC1967Utils.sol\":2186:2467  function _setImplementation(address newImplementation) private {... */\n    tag_596:\n        /* \"@openzeppelin/contracts/proxy/ERC1967/ERC1967Utils.sol\":2296:2297  0 */\n      0x00\n        /* \"@openzeppelin/contracts/proxy/ERC1967/ERC1967Utils.sol\":2263:2280  newImplementation */\n      dup2\n        /* \"@openzeppelin/contracts/proxy/ERC1967/ERC1967Utils.sol\":2263:2292  newImplementation.code.length */\n      0xffffffffffffffffffffffffffffffffffffffff\n      and\n      extcodesize\n        /* \"@openzeppelin/contracts/proxy/ERC1967/ERC1967Utils.sol\":2263:2297  newImplementation.code.length == 0 */\n      sub\n        /* \"@openzeppelin/contracts/proxy/ERC1967/ERC1967Utils.sol\":2259:2378  if (newImplementation.code.length == 0) {... */\n      tag_615\n      jumpi\n        /* \"@openzeppelin/contracts/proxy/ERC1967/ERC1967Utils.sol\":2349:2366  newImplementation */\n      dup1\n        /* \"@openzeppelin/contracts/proxy/ERC1967/ERC1967Utils.sol\":2320:2367  ERC1967InvalidImplementation(newImplementation) */\n      mload(0x40)\n      0x4c9c8ce300000000000000000000000000000000000000000000000000000000\n      dup2\n      mstore\n      0x04\n      add\n      tag_616\n      swap2\n      swap1\n      tag_79\n      jump\t// in\n    tag_616:\n      mload(0x40)\n      dup1\n      swap2\n      sub\n      swap1\n      revert\n        /* \"@openzeppelin/contracts/proxy/ERC1967/ERC1967Utils.sol\":2259:2378  if (newImplementation.code.length == 0) {... */\n    tag_615:\n        /* \"@openzeppelin/contracts/proxy/ERC1967/ERC1967Utils.sol\":2443:2460  newImplementation */\n      dup1\n        /* \"@openzeppelin/contracts/proxy/ERC1967/ERC1967Utils.sol\":2387:2434  StorageSlot.getAddressSlot(IMPLEMENTATION_SLOT) */\n      tag_617\n        /* \"@openzeppelin/contracts/proxy/ERC1967/ERC1967Utils.sol\":1327:1393  0x360894a13ba1a3210667c828492db98dca3e2076cc3735a920a3ca505d382bbc */\n      0x360894a13ba1a3210667c828492db98dca3e2076cc3735a920a3ca505d382bbc\n        /* \"@openzeppelin/contracts/proxy/ERC1967/ERC1967Utils.sol\":2414:2433  IMPLEMENTATION_SLOT */\n      0x00\n      shl\n        /* \"@openzeppelin/contracts/proxy/ERC1967/ERC1967Utils.sol\":2387:2413  StorageSlot.getAddressSlot */\n      tag_593\n        /* \"@openzeppelin/contracts/proxy/ERC1967/ERC1967Utils.sol\":2387:2434  StorageSlot.getAddressSlot(IMPLEMENTATION_SLOT) */\n      jump\t// in\n    tag_617:\n        /* \"@openzeppelin/contracts/proxy/ERC1967/ERC1967Utils.sol\":2387:2440  StorageSlot.getAddressSlot(IMPLEMENTATION_SLOT).value */\n      0x00\n      add\n      0x00\n        /* \"@openzeppelin/contracts/proxy/ERC1967/ERC1967Utils.sol\":2387:2460  StorageSlot.getAddressSlot(IMPLEMENTATION_SLOT).value = newImplementation */\n      0x0100\n      exp\n      dup2\n      sload\n      dup2\n      0xffffffffffffffffffffffffffffffffffffffff\n      mul\n      not\n      and\n      swap1\n      dup4\n      0xffffffffffffffffffffffffffffffffffffffff\n      and\n      mul\n      or\n      swap1\n      sstore\n      pop\n        /* \"@openzeppelin/contracts/proxy/ERC1967/ERC1967Utils.sol\":2186:2467  function _setImplementation(address newImplementation) private {... */\n      pop\n      jump\t// out\n        /* \"@openzeppelin/contracts/utils/Address.sol\":4106:4359  function functionDelegateCall(address target, bytes memory data) internal returns (bytes memory) {... */\n    tag_599:\n        /* \"@openzeppelin/contracts/utils/Address.sol\":4189:4201  bytes memory */\n      0x60\n        /* \"@openzeppelin/contracts/utils/Address.sol\":4214:4226  bool success */\n      0x00\n        /* \"@openzeppelin/contracts/utils/Address.sol\":4228:4251  bytes memory returndata */\n      dup1\n        /* \"@openzeppelin/contracts/utils/Address.sol\":4255:4261  target */\n      dup5\n        /* \"@openzeppelin/contracts/utils/Address.sol\":4255:4274  target.delegatecall */\n      0xffffffffffffffffffffffffffffffffffffffff\n      and\n        /* \"@openzeppelin/contracts/utils/Address.sol\":4275:4279  data */\n      dup5\n        /* \"@openzeppelin/contracts/utils/Address.sol\":4255:4280  target.delegatecall(data) */\n      mload(0x40)\n      tag_619\n      swap2\n      swap1\n      tag_620\n      jump\t// in\n    tag_619:\n      0x00\n      mload(0x40)\n      dup1\n      dup4\n      sub\n      dup2\n      dup6\n      gas\n      delegatecall\n      swap2\n      pop\n      pop\n      returndatasize\n      dup1\n      0x00\n      dup2\n      eq\n      tag_623\n      jumpi\n      mload(0x40)\n      swap2\n      pop\n      and(add(returndatasize, 0x3f), not(0x1f))\n      dup3\n      add\n      0x40\n      mstore\n      returndatasize\n      dup3\n      mstore\n      returndatasize\n      0x00\n      0x20\n      dup5\n      add\n      returndatacopy\n      jump(tag_622)\n    tag_623:\n      0x60\n      swap2\n      pop\n    tag_622:\n      pop\n        /* \"@openzeppelin/contracts/utils/Address.sol\":4213:4280  (bool success, bytes memory returndata) = target.delegatecall(data) */\n      swap2\n      pop\n      swap2\n      pop\n        /* \"@openzeppelin/contracts/utils/Address.sol\":4297:4352  verifyCallResultFromTarget(target, success, returndata) */\n      tag_624\n        /* \"@openzeppelin/contracts/utils/Address.sol\":4324:4330  target */\n      dup6\n        /* \"@openzeppelin/contracts/utils/Address.sol\":4332:4339  success */\n      dup4\n        /* \"@openzeppelin/contracts/utils/Address.sol\":4341:4351  returndata */\n      dup4\n        /* \"@openzeppelin/contracts/utils/Address.sol\":4297:4323  verifyCallResultFromTarget */\n      tag_625\n        /* \"@openzeppelin/contracts/utils/Address.sol\":4297:4352  verifyCallResultFromTarget(target, success, returndata) */\n      jump\t// in\n    tag_624:\n        /* \"@openzeppelin/contracts/utils/Address.sol\":4290:4352  return verifyCallResultFromTarget(target, success, returndata) */\n      swap3\n      pop\n      pop\n      pop\n        /* \"@openzeppelin/contracts/utils/Address.sol\":4106:4359  function functionDelegateCall(address target, bytes memory data) internal returns (bytes memory) {... */\n      swap3\n      swap2\n      pop\n      pop\n      jump\t// out\n        /* \"@openzeppelin/contracts/proxy/ERC1967/ERC1967Utils.sol\":6598:6720  function _checkNonPayable() private {... */\n    tag_602:\n        /* \"@openzeppelin/contracts/proxy/ERC1967/ERC1967Utils.sol\":6660:6661  0 */\n      0x00\n        /* \"@openzeppelin/contracts/proxy/ERC1967/ERC1967Utils.sol\":6648:6657  msg.value */\n      callvalue\n        /* \"@openzeppelin/contracts/proxy/ERC1967/ERC1967Utils.sol\":6648:6661  msg.value > 0 */\n      gt\n        /* \"@openzeppelin/contracts/proxy/ERC1967/ERC1967Utils.sol\":6644:6714  if (msg.value > 0) {... */\n      iszero\n      tag_627\n      jumpi\n        /* \"@openzeppelin/contracts/proxy/ERC1967/ERC1967Utils.sol\":6684:6703  ERC1967NonPayable() */\n      mload(0x40)\n      0xb398979f00000000000000000000000000000000000000000000000000000000\n      dup2\n      mstore\n      0x04\n      add\n      mload(0x40)\n      dup1\n      swap2\n      sub\n      swap1\n      revert\n        /* \"@openzeppelin/contracts/proxy/ERC1967/ERC1967Utils.sol\":6644:6714  if (msg.value > 0) {... */\n    tag_627:\n        /* \"@openzeppelin/contracts/proxy/ERC1967/ERC1967Utils.sol\":6598:6720  function _checkNonPayable() private {... */\n      jump\t// out\n        /* \"@openzeppelin/contracts-upgradeable/proxy/utils/Initializable.sol\":8487:8607  function _isInitializing() internal view returns (bool) {... */\n    tag_605:\n        /* \"@openzeppelin/contracts-upgradeable/proxy/utils/Initializable.sol\":8537:8541  bool */\n      0x00\n        /* \"@openzeppelin/contracts-upgradeable/proxy/utils/Initializable.sol\":8560:8586  _getInitializableStorage() */\n      tag_629\n        /* \"@openzeppelin/contracts-upgradeable/proxy/utils/Initializable.sol\":8560:8584  _getInitializableStorage */\n      tag_440\n        /* \"@openzeppelin/contracts-upgradeable/proxy/utils/Initializable.sol\":8560:8586  _getInitializableStorage() */\n      jump\t// in\n    tag_629:\n        /* \"@openzeppelin/contracts-upgradeable/proxy/utils/Initializable.sol\":8560:8600  _getInitializableStorage()._initializing */\n      0x00\n      add\n      0x08\n      swap1\n      sload\n      swap1\n      0x0100\n      exp\n      swap1\n      div\n      0xff\n      and\n        /* \"@openzeppelin/contracts-upgradeable/proxy/utils/Initializable.sol\":8553:8600  return _getInitializableStorage()._initializing */\n      swap1\n      pop\n        /* \"@openzeppelin/contracts-upgradeable/proxy/utils/Initializable.sol\":8487:8607  function _isInitializing() internal view returns (bool) {... */\n      swap1\n      jump\t// out\n        /* \"@openzeppelin/contracts/utils/Address.sol\":4625:5207  function verifyCallResultFromTarget(... */\n    tag_625:\n        /* \"@openzeppelin/contracts/utils/Address.sol\":4769:4781  bytes memory */\n      0x60\n        /* \"@openzeppelin/contracts/utils/Address.sol\":4798:4805  success */\n      dup3\n        /* \"@openzeppelin/contracts/utils/Address.sol\":4793:5201  if (!success) {... */\n      tag_631\n      jumpi\n        /* \"@openzeppelin/contracts/utils/Address.sol\":4821:4840  _revert(returndata) */\n      tag_632\n        /* \"@openzeppelin/contracts/utils/Address.sol\":4829:4839  returndata */\n      dup3\n        /* \"@openzeppelin/contracts/utils/Address.sol\":4821:4828  _revert */\n      tag_633\n        /* \"@openzeppelin/contracts/utils/Address.sol\":4821:4840  _revert(returndata) */\n      jump\t// in\n    tag_632:\n        /* \"@openzeppelin/contracts/utils/Address.sol\":4793:5201  if (!success) {... */\n      jump(tag_634)\n    tag_631:\n        /* \"@openzeppelin/contracts/utils/Address.sol\":5066:5067  0 */\n      0x00\n        /* \"@openzeppelin/contracts/utils/Address.sol\":5045:5055  returndata */\n      dup3\n        /* \"@openzeppelin/contracts/utils/Address.sol\":5045:5062  returndata.length */\n      mload\n        /* \"@openzeppelin/contracts/utils/Address.sol\":5045:5067  returndata.length == 0 */\n      eq\n        /* \"@openzeppelin/contracts/utils/Address.sol\":5045:5094  returndata.length == 0 && target.code.length == 0 */\n      dup1\n      iszero\n      tag_635\n      jumpi\n      pop\n        /* \"@openzeppelin/contracts/utils/Address.sol\":5093:5094  0 */\n      0x00\n        /* \"@openzeppelin/contracts/utils/Address.sol\":5071:5077  target */\n      dup5\n        /* \"@openzeppelin/contracts/utils/Address.sol\":5071:5089  target.code.length */\n      0xffffffffffffffffffffffffffffffffffffffff\n      and\n      extcodesize\n        /* \"@openzeppelin/contracts/utils/Address.sol\":5071:5094  target.code.length == 0 */\n      eq\n        /* \"@openzeppelin/contracts/utils/Address.sol\":5045:5094  returndata.length == 0 && target.code.length == 0 */\n    tag_635:\n        /* \"@openzeppelin/contracts/utils/Address.sol\":5041:5160  if (returndata.length == 0 && target.code.length == 0) {... */\n      iszero\n      tag_636\n      jumpi\n        /* \"@openzeppelin/contracts/utils/Address.sol\":5138:5144  target */\n      dup4\n        /* \"@openzeppelin/contracts/utils/Address.sol\":5121:5145  AddressEmptyCode(target) */\n      mload(0x40)\n      0x9996b31500000000000000000000000000000000000000000000000000000000\n      dup2\n      mstore\n      0x04\n      add\n      tag_637\n      swap2\n      swap1\n      tag_79\n      jump\t// in\n    tag_637:\n      mload(0x40)\n      dup1\n      swap2\n      sub\n      swap1\n      revert\n        /* \"@openzeppelin/contracts/utils/Address.sol\":5041:5160  if (returndata.length == 0 && target.code.length == 0) {... */\n    tag_636:\n        /* \"@openzeppelin/contracts/utils/Address.sol\":5180:5190  returndata */\n      dup2\n        /* \"@openzeppelin/contracts/utils/Address.sol\":5173:5190  return returndata */\n      swap1\n      pop\n      jump(tag_630)\n        /* \"@openzeppelin/contracts/utils/Address.sol\":4793:5201  if (!success) {... */\n    tag_634:\n        /* \"@openzeppelin/contracts/utils/Address.sol\":4625:5207  function verifyCallResultFromTarget(... */\n    tag_630:\n      swap4\n      swap3\n      pop\n      pop\n      pop\n      jump\t// out\n        /* \"@openzeppelin/contracts/utils/Address.sol\":5743:6259  function _revert(bytes memory returndata) private pure {... */\n    tag_633:\n        /* \"@openzeppelin/contracts/utils/Address.sol\":5894:5895  0 */\n      0x00\n        /* \"@openzeppelin/contracts/utils/Address.sol\":5874:5884  returndata */\n      dup2\n        /* \"@openzeppelin/contracts/utils/Address.sol\":5874:5891  returndata.length */\n      mload\n        /* \"@openzeppelin/contracts/utils/Address.sol\":5874:5895  returndata.length > 0 */\n      gt\n        /* \"@openzeppelin/contracts/utils/Address.sol\":5870:6253  if (returndata.length > 0) {... */\n      iszero\n      tag_639\n      jumpi\n        /* \"@openzeppelin/contracts/utils/Address.sol\":6102:6112  returndata */\n      dup1\n        /* \"@openzeppelin/contracts/utils/Address.sol\":6096:6113  mload(returndata) */\n      mload\n        /* \"@openzeppelin/contracts/utils/Address.sol\":6158:6173  returndata_size */\n      dup1\n        /* \"@openzeppelin/contracts/utils/Address.sol\":6145:6155  returndata */\n      dup3\n        /* \"@openzeppelin/contracts/utils/Address.sol\":6141:6143  32 */\n      0x20\n        /* \"@openzeppelin/contracts/utils/Address.sol\":6137:6156  add(32, returndata) */\n      add\n        /* \"@openzeppelin/contracts/utils/Address.sol\":6130:6174  revert(add(32, returndata), returndata_size) */\n      revert\n        /* \"@openzeppelin/contracts/utils/Address.sol\":5870:6253  if (returndata.length > 0) {... */\n    tag_639:\n        /* \"@openzeppelin/contracts/utils/Address.sol\":6225:6242  FailedInnerCall() */\n      mload(0x40)\n      0x1425ea4200000000000000000000000000000000000000000000000000000000\n      dup2\n      mstore\n      0x04\n      add\n      mload(0x40)\n      dup1\n      swap2\n      sub\n      swap1\n      revert\n        /* \"#utility.yul\":7:84   */\n    tag_641:\n        /* \"#utility.yul\":44:51   */\n      0x00\n        /* \"#utility.yul\":73:78   */\n      dup2\n        /* \"#utility.yul\":62:78   */\n      swap1\n      pop\n        /* \"#utility.yul\":7:84   */\n      swap2\n      swap1\n      pop\n      jump\t// out\n        /* \"#utility.yul\":90:208   */\n    tag_642:\n        /* \"#utility.yul\":177:201   */\n      tag_712\n        /* \"#utility.yul\":195:200   */\n      dup2\n        /* \"#utility.yul\":177:201   */\n      tag_641\n      jump\t// in\n    tag_712:\n        /* \"#utility.yul\":172:175   */\n      dup3\n        /* \"#utility.yul\":165:202   */\n      mstore\n        /* \"#utility.yul\":90:208   */\n      pop\n      pop\n      jump\t// out\n        /* \"#utility.yul\":214:436   */\n    tag_60:\n        /* \"#utility.yul\":307:311   */\n      0x00\n        /* \"#utility.yul\":345:347   */\n      0x20\n        /* \"#utility.yul\":334:343   */\n      dup3\n        /* \"#utility.yul\":330:348   */\n      add\n        /* \"#utility.yul\":322:348   */\n      swap1\n      pop\n        /* \"#utility.yul\":358:429   */\n      tag_714\n        /* \"#utility.yul\":426:427   */\n      0x00\n        /* \"#utility.yul\":415:424   */\n      dup4\n        /* \"#utility.yul\":411:428   */\n      add\n        /* \"#utility.yul\":402:408   */\n      dup5\n        /* \"#utility.yul\":358:429   */\n      tag_642\n      jump\t// in\n    tag_714:\n        /* \"#utility.yul\":214:436   */\n      swap3\n      swap2\n      pop\n      pop\n      jump\t// out\n        /* \"#utility.yul\":442:568   */\n    tag_643:\n        /* \"#utility.yul\":479:486   */\n      0x00\n        /* \"#utility.yul\":519:561   */\n      0xffffffffffffffffffffffffffffffffffffffff\n        /* \"#utility.yul\":512:517   */\n      dup3\n        /* \"#utility.yul\":508:562   */\n      and\n        /* \"#utility.yul\":497:562   */\n      swap1\n      pop\n        /* \"#utility.yul\":442:568   */\n      swap2\n      swap1\n      pop\n      jump\t// out\n        /* \"#utility.yul\":574:634   */\n    tag_644:\n        /* \"#utility.yul\":602:605   */\n      0x00\n        /* \"#utility.yul\":623:628   */\n      dup2\n        /* \"#utility.yul\":616:628   */\n      swap1\n      pop\n        /* \"#utility.yul\":574:634   */\n      swap2\n      swap1\n      pop\n      jump\t// out\n        /* \"#utility.yul\":640:782   */\n    tag_645:\n        /* \"#utility.yul\":690:699   */\n      0x00\n        /* \"#utility.yul\":723:776   */\n      tag_718\n        /* \"#utility.yul\":741:775   */\n      tag_719\n        /* \"#utility.yul\":750:774   */\n      tag_720\n        /* \"#utility.yul\":768:773   */\n      dup5\n        /* \"#utility.yul\":750:774   */\n      tag_643\n      jump\t// in\n    tag_720:\n        /* \"#utility.yul\":741:775   */\n      tag_644\n      jump\t// in\n    tag_719:\n        /* \"#utility.yul\":723:776   */\n      tag_643\n      jump\t// in\n    tag_718:\n        /* \"#utility.yul\":710:776   */\n      swap1\n      pop\n        /* \"#utility.yul\":640:782   */\n      swap2\n      swap1\n      pop\n      jump\t// out\n        /* \"#utility.yul\":788:914   */\n    tag_646:\n        /* \"#utility.yul\":838:847   */\n      0x00\n        /* \"#utility.yul\":871:908   */\n      tag_722\n        /* \"#utility.yul\":902:907   */\n      dup3\n        /* \"#utility.yul\":871:908   */\n      tag_645\n      jump\t// in\n    tag_722:\n        /* \"#utility.yul\":858:908   */\n      swap1\n      pop\n        /* \"#utility.yul\":788:914   */\n      swap2\n      swap1\n      pop\n      jump\t// out\n        /* \"#utility.yul\":920:1061   */\n    tag_647:\n        /* \"#utility.yul\":985:994   */\n      0x00\n        /* \"#utility.yul\":1018:1055   */\n      tag_724\n        /* \"#utility.yul\":1049:1054   */\n      dup3\n        /* \"#utility.yul\":1018:1055   */\n      tag_646\n      jump\t// in\n    tag_724:\n        /* \"#utility.yul\":1005:1055   */\n      swap1\n      pop\n        /* \"#utility.yul\":920:1061   */\n      swap2\n      swap1\n      pop\n      jump\t// out\n        /* \"#utility.yul\":1067:1228   */\n    tag_648:\n        /* \"#utility.yul\":1169:1221   */\n      tag_726\n        /* \"#utility.yul\":1215:1220   */\n      dup2\n        /* \"#utility.yul\":1169:1221   */\n      tag_647\n      jump\t// in\n    tag_726:\n        /* \"#utility.yul\":1164:1167   */\n      dup3\n        /* \"#utility.yul\":1157:1222   */\n      mstore\n        /* \"#utility.yul\":1067:1228   */\n      pop\n      pop\n      jump\t// out\n        /* \"#utility.yul\":1234:1486   */\n    tag_65:\n        /* \"#utility.yul\":1342:1346   */\n      0x00\n        /* \"#utility.yul\":1380:1382   */\n      0x20\n        /* \"#utility.yul\":1369:1378   */\n      dup3\n        /* \"#utility.yul\":1365:1383   */\n      add\n        /* \"#utility.yul\":1357:1383   */\n      swap1\n      pop\n        /* \"#utility.yul\":1393:1479   */\n      tag_728\n        /* \"#utility.yul\":1476:1477   */\n      0x00\n        /* \"#utility.yul\":1465:1474   */\n      dup4\n        /* \"#utility.yul\":1461:1478   */\n      add\n        /* \"#utility.yul\":1452:1458   */\n      dup5\n        /* \"#utility.yul\":1393:1479   */\n      tag_648\n      jump\t// in\n    tag_728:\n        /* \"#utility.yul\":1234:1486   */\n      swap3\n      swap2\n      pop\n      pop\n      jump\t// out\n        /* \"#utility.yul\":1492:1567   */\n    tag_649:\n        /* \"#utility.yul\":1525:1531   */\n      0x00\n        /* \"#utility.yul\":1558:1560   */\n      0x40\n        /* \"#utility.yul\":1552:1561   */\n      mload\n        /* \"#utility.yul\":1542:1561   */\n      swap1\n      pop\n        /* \"#utility.yul\":1492:1567   */\n      swap1\n      jump\t// out\n        /* \"#utility.yul\":1573:1690   */\n    tag_650:\n        /* \"#utility.yul\":1682:1683   */\n      0x00\n        /* \"#utility.yul\":1679:1680   */\n      dup1\n        /* \"#utility.yul\":1672:1684   */\n      revert\n        /* \"#utility.yul\":1696:1813   */\n    tag_651:\n        /* \"#utility.yul\":1805:1806   */\n      0x00\n        /* \"#utility.yul\":1802:1803   */\n      dup1\n        /* \"#utility.yul\":1795:1807   */\n      revert\n        /* \"#utility.yul\":1819:1941   */\n    tag_652:\n        /* \"#utility.yul\":1892:1916   */\n      tag_733\n        /* \"#utility.yul\":1910:1915   */\n      dup2\n        /* \"#utility.yul\":1892:1916   */\n      tag_641\n      jump\t// in\n    tag_733:\n        /* \"#utility.yul\":1885:1890   */\n      dup2\n        /* \"#utility.yul\":1882:1917   */\n      eq\n        /* \"#utility.yul\":1872:1935   */\n      tag_734\n      jumpi\n        /* \"#utility.yul\":1931:1932   */\n      0x00\n        /* \"#utility.yul\":1928:1929   */\n      dup1\n        /* \"#utility.yul\":1921:1933   */\n      revert\n        /* \"#utility.yul\":1872:1935   */\n    tag_734:\n        /* \"#utility.yul\":1819:1941   */\n      pop\n      jump\t// out\n        /* \"#utility.yul\":1947:2086   */\n    tag_653:\n        /* \"#utility.yul\":1993:1998   */\n      0x00\n        /* \"#utility.yul\":2031:2037   */\n      dup2\n        /* \"#utility.yul\":2018:2038   */\n      calldataload\n        /* \"#utility.yul\":2009:2038   */\n      swap1\n      pop\n        /* \"#utility.yul\":2047:2080   */\n      tag_736\n        /* \"#utility.yul\":2074:2079   */\n      dup2\n        /* \"#utility.yul\":2047:2080   */\n      tag_652\n      jump\t// in\n    tag_736:\n        /* \"#utility.yul\":1947:2086   */\n      swap3\n      swap2\n      pop\n      pop\n      jump\t// out\n        /* \"#utility.yul\":2092:2421   */\n    tag_73:\n        /* \"#utility.yul\":2151:2157   */\n      0x00\n        /* \"#utility.yul\":2200:2202   */\n      0x20\n        /* \"#utility.yul\":2188:2197   */\n      dup3\n        /* \"#utility.yul\":2179:2186   */\n      dup5\n        /* \"#utility.yul\":2175:2198   */\n      sub\n        /* \"#utility.yul\":2171:2203   */\n      slt\n        /* \"#utility.yul\":2168:2287   */\n      iszero\n      tag_738\n      jumpi\n        /* \"#utility.yul\":2206:2285   */\n      tag_739\n      tag_650\n      jump\t// in\n    tag_739:\n        /* \"#utility.yul\":2168:2287   */\n    tag_738:\n        /* \"#utility.yul\":2326:2327   */\n      0x00\n        /* \"#utility.yul\":2351:2404   */\n      tag_740\n        /* \"#utility.yul\":2396:2403   */\n      dup5\n        /* \"#utility.yul\":2387:2393   */\n      dup3\n        /* \"#utility.yul\":2376:2385   */\n      dup6\n        /* \"#utility.yul\":2372:2394   */\n      add\n        /* \"#utility.yul\":2351:2404   */\n      tag_653\n      jump\t// in\n    tag_740:\n        /* \"#utility.yul\":2341:2404   */\n      swap2\n      pop\n        /* \"#utility.yul\":2297:2414   */\n      pop\n        /* \"#utility.yul\":2092:2421   */\n      swap3\n      swap2\n      pop\n      pop\n      jump\t// out\n        /* \"#utility.yul\":2427:2523   */\n    tag_654:\n        /* \"#utility.yul\":2464:2471   */\n      0x00\n        /* \"#utility.yul\":2493:2517   */\n      tag_742\n        /* \"#utility.yul\":2511:2516   */\n      dup3\n        /* \"#utility.yul\":2493:2517   */\n      tag_643\n      jump\t// in\n    tag_742:\n        /* \"#utility.yul\":2482:2517   */\n      swap1\n      pop\n        /* \"#utility.yul\":2427:2523   */\n      swap2\n      swap1\n      pop\n      jump\t// out\n        /* \"#utility.yul\":2529:2647   */\n    tag_655:\n        /* \"#utility.yul\":2616:2640   */\n      tag_744\n        /* \"#utility.yul\":2634:2639   */\n      dup2\n        /* \"#utility.yul\":2616:2640   */\n      tag_654\n      jump\t// in\n    tag_744:\n        /* \"#utility.yul\":2611:2614   */\n      dup3\n        /* \"#utility.yul\":2604:2641   */\n      mstore\n        /* \"#utility.yul\":2529:2647   */\n      pop\n      pop\n      jump\t// out\n        /* \"#utility.yul\":2653:2875   */\n    tag_79:\n        /* \"#utility.yul\":2746:2750   */\n      0x00\n        /* \"#utility.yul\":2784:2786   */\n      0x20\n        /* \"#utility.yul\":2773:2782   */\n      dup3\n        /* \"#utility.yul\":2769:2787   */\n      add\n        /* \"#utility.yul\":2761:2787   */\n      swap1\n      pop\n        /* \"#utility.yul\":2797:2868   */\n      tag_746\n        /* \"#utility.yul\":2865:2866   */\n      0x00\n        /* \"#utility.yul\":2854:2863   */\n      dup4\n        /* \"#utility.yul\":2850:2867   */\n      add\n        /* \"#utility.yul\":2841:2847   */\n      dup5\n        /* \"#utility.yul\":2797:2868   */\n      tag_655\n      jump\t// in\n    tag_746:\n        /* \"#utility.yul\":2653:2875   */\n      swap3\n      swap2\n      pop\n      pop\n      jump\t// out\n        /* \"#utility.yul\":2881:2971   */\n    tag_656:\n        /* \"#utility.yul\":2915:2922   */\n      0x00\n        /* \"#utility.yul\":2958:2963   */\n      dup2\n        /* \"#utility.yul\":2951:2964   */\n      iszero\n        /* \"#utility.yul\":2944:2965   */\n      iszero\n        /* \"#utility.yul\":2933:2965   */\n      swap1\n      pop\n        /* \"#utility.yul\":2881:2971   */\n      swap2\n      swap1\n      pop\n      jump\t// out\n        /* \"#utility.yul\":2977:3086   */\n    tag_657:\n        /* \"#utility.yul\":3058:3079   */\n      tag_749\n        /* \"#utility.yul\":3073:3078   */\n      dup2\n        /* \"#utility.yul\":3058:3079   */\n      tag_656\n      jump\t// in\n    tag_749:\n        /* \"#utility.yul\":3053:3056   */\n      dup3\n        /* \"#utility.yul\":3046:3080   */\n      mstore\n        /* \"#utility.yul\":2977:3086   */\n      pop\n      pop\n      jump\t// out\n        /* \"#utility.yul\":3092:3302   */\n    tag_88:\n        /* \"#utility.yul\":3179:3183   */\n      0x00\n        /* \"#utility.yul\":3217:3219   */\n      0x20\n        /* \"#utility.yul\":3206:3215   */\n      dup3\n        /* \"#utility.yul\":3202:3220   */\n      add\n        /* \"#utility.yul\":3194:3220   */\n      swap1\n      pop\n        /* \"#utility.yul\":3230:3295   */\n      tag_751\n        /* \"#utility.yul\":3292:3293   */\n      0x00\n        /* \"#utility.yul\":3281:3290   */\n      dup4\n        /* \"#utility.yul\":3277:3294   */\n      add\n        /* \"#utility.yul\":3268:3274   */\n      dup5\n        /* \"#utility.yul\":3230:3295   */\n      tag_657\n      jump\t// in\n    tag_751:\n        /* \"#utility.yul\":3092:3302   */\n      swap3\n      swap2\n      pop\n      pop\n      jump\t// out\n        /* \"#utility.yul\":3308:3425   */\n    tag_658:\n        /* \"#utility.yul\":3417:3418   */\n      0x00\n        /* \"#utility.yul\":3414:3415   */\n      dup1\n        /* \"#utility.yul\":3407:3419   */\n      revert\n        /* \"#utility.yul\":3431:3548   */\n    tag_659:\n        /* \"#utility.yul\":3540:3541   */\n      0x00\n        /* \"#utility.yul\":3537:3538   */\n      dup1\n        /* \"#utility.yul\":3530:3542   */\n      revert\n        /* \"#utility.yul\":3554:3671   */\n    tag_660:\n        /* \"#utility.yul\":3663:3664   */\n      0x00\n        /* \"#utility.yul\":3660:3661   */\n      dup1\n        /* \"#utility.yul\":3653:3665   */\n      revert\n        /* \"#utility.yul\":3690:4242   */\n    tag_661:\n        /* \"#utility.yul\":3747:3755   */\n      0x00\n        /* \"#utility.yul\":3757:3763   */\n      dup1\n        /* \"#utility.yul\":3807:3810   */\n      dup4\n        /* \"#utility.yul\":3800:3804   */\n      0x1f\n        /* \"#utility.yul\":3792:3798   */\n      dup5\n        /* \"#utility.yul\":3788:3805   */\n      add\n        /* \"#utility.yul\":3784:3811   */\n      slt\n        /* \"#utility.yul\":3774:3896   */\n      tag_756\n      jumpi\n        /* \"#utility.yul\":3815:3894   */\n      tag_757\n      tag_658\n      jump\t// in\n    tag_757:\n        /* \"#utility.yul\":3774:3896   */\n    tag_756:\n        /* \"#utility.yul\":3928:3934   */\n      dup3\n        /* \"#utility.yul\":3915:3935   */\n      calldataload\n        /* \"#utility.yul\":3905:3935   */\n      swap1\n      pop\n        /* \"#utility.yul\":3958:3976   */\n      0xffffffffffffffff\n        /* \"#utility.yul\":3950:3956   */\n      dup2\n        /* \"#utility.yul\":3947:3977   */\n      gt\n        /* \"#utility.yul\":3944:4061   */\n      iszero\n      tag_758\n      jumpi\n        /* \"#utility.yul\":3980:4059   */\n      tag_759\n      tag_659\n      jump\t// in\n    tag_759:\n        /* \"#utility.yul\":3944:4061   */\n    tag_758:\n        /* \"#utility.yul\":4094:4098   */\n      0x20\n        /* \"#utility.yul\":4086:4092   */\n      dup4\n        /* \"#utility.yul\":4082:4099   */\n      add\n        /* \"#utility.yul\":4070:4099   */\n      swap2\n      pop\n        /* \"#utility.yul\":4148:4151   */\n      dup4\n        /* \"#utility.yul\":4140:4144   */\n      0x01\n        /* \"#utility.yul\":4132:4138   */\n      dup3\n        /* \"#utility.yul\":4128:4145   */\n      mul\n        /* \"#utility.yul\":4118:4126   */\n      dup4\n        /* \"#utility.yul\":4114:4146   */\n      add\n        /* \"#utility.yul\":4111:4152   */\n      gt\n        /* \"#utility.yul\":4108:4236   */\n      iszero\n      tag_760\n      jumpi\n        /* \"#utility.yul\":4155:4234   */\n      tag_761\n      tag_660\n      jump\t// in\n    tag_761:\n        /* \"#utility.yul\":4108:4236   */\n    tag_760:\n        /* \"#utility.yul\":3690:4242   */\n      swap3\n      pop\n      swap3\n      swap1\n      pop\n      jump\t// out\n        /* \"#utility.yul\":4248:4775   */\n    tag_112:\n        /* \"#utility.yul\":4318:4324   */\n      0x00\n        /* \"#utility.yul\":4326:4332   */\n      dup1\n        /* \"#utility.yul\":4375:4377   */\n      0x20\n        /* \"#utility.yul\":4363:4372   */\n      dup4\n        /* \"#utility.yul\":4354:4361   */\n      dup6\n        /* \"#utility.yul\":4350:4373   */\n      sub\n        /* \"#utility.yul\":4346:4378   */\n      slt\n        /* \"#utility.yul\":4343:4462   */\n      iszero\n      tag_763\n      jumpi\n        /* \"#utility.yul\":4381:4460   */\n      tag_764\n      tag_650\n      jump\t// in\n    tag_764:\n        /* \"#utility.yul\":4343:4462   */\n    tag_763:\n        /* \"#utility.yul\":4529:4530   */\n      0x00\n        /* \"#utility.yul\":4518:4527   */\n      dup4\n        /* \"#utility.yul\":4514:4531   */\n      add\n        /* \"#utility.yul\":4501:4532   */\n      calldataload\n        /* \"#utility.yul\":4559:4577   */\n      0xffffffffffffffff\n        /* \"#utility.yul\":4551:4557   */\n      dup2\n        /* \"#utility.yul\":4548:4578   */\n      gt\n        /* \"#utility.yul\":4545:4662   */\n      iszero\n      tag_765\n      jumpi\n        /* \"#utility.yul\":4581:4660   */\n      tag_766\n      tag_651\n      jump\t// in\n    tag_766:\n        /* \"#utility.yul\":4545:4662   */\n    tag_765:\n        /* \"#utility.yul\":4694:4758   */\n      tag_767\n        /* \"#utility.yul\":4750:4757   */\n      dup6\n        /* \"#utility.yul\":4741:4747   */\n      dup3\n        /* \"#utility.yul\":4730:4739   */\n      dup7\n        /* \"#utility.yul\":4726:4748   */\n      add\n        /* \"#utility.yul\":4694:4758   */\n      tag_661\n      jump\t// in\n    tag_767:\n        /* \"#utility.yul\":4676:4758   */\n      swap3\n      pop\n      swap3\n      pop\n        /* \"#utility.yul\":4472:4768   */\n      pop\n        /* \"#utility.yul\":4248:4775   */\n      swap3\n      pop\n      swap3\n      swap1\n      pop\n      jump\t// out\n        /* \"#utility.yul\":4781:4903   */\n    tag_662:\n        /* \"#utility.yul\":4854:4878   */\n      tag_769\n        /* \"#utility.yul\":4872:4877   */\n      dup2\n        /* \"#utility.yul\":4854:4878   */\n      tag_654\n      jump\t// in\n    tag_769:\n        /* \"#utility.yul\":4847:4852   */\n      dup2\n        /* \"#utility.yul\":4844:4879   */\n      eq\n        /* \"#utility.yul\":4834:4897   */\n      tag_770\n      jumpi\n        /* \"#utility.yul\":4893:4894   */\n      0x00\n        /* \"#utility.yul\":4890:4891   */\n      dup1\n        /* \"#utility.yul\":4883:4895   */\n      revert\n        /* \"#utility.yul\":4834:4897   */\n    tag_770:\n        /* \"#utility.yul\":4781:4903   */\n      pop\n      jump\t// out\n        /* \"#utility.yul\":4909:5048   */\n    tag_663:\n        /* \"#utility.yul\":4955:4960   */\n      0x00\n        /* \"#utility.yul\":4993:4999   */\n      dup2\n        /* \"#utility.yul\":4980:5000   */\n      calldataload\n        /* \"#utility.yul\":4971:5000   */\n      swap1\n      pop\n        /* \"#utility.yul\":5009:5042   */\n      tag_772\n        /* \"#utility.yul\":5036:5041   */\n      dup2\n        /* \"#utility.yul\":5009:5042   */\n      tag_662\n      jump\t// in\n    tag_772:\n        /* \"#utility.yul\":4909:5048   */\n      swap3\n      swap2\n      pop\n      pop\n      jump\t// out\n        /* \"#utility.yul\":5054:5171   */\n    tag_664:\n        /* \"#utility.yul\":5163:5164   */\n      0x00\n        /* \"#utility.yul\":5160:5161   */\n      dup1\n        /* \"#utility.yul\":5153:5165   */\n      revert\n        /* \"#utility.yul\":5177:5279   */\n    tag_665:\n        /* \"#utility.yul\":5218:5224   */\n      0x00\n        /* \"#utility.yul\":5269:5271   */\n      0x1f\n        /* \"#utility.yul\":5265:5272   */\n      not\n        /* \"#utility.yul\":5260:5262   */\n      0x1f\n        /* \"#utility.yul\":5253:5258   */\n      dup4\n        /* \"#utility.yul\":5249:5263   */\n      add\n        /* \"#utility.yul\":5245:5273   */\n      and\n        /* \"#utility.yul\":5235:5273   */\n      swap1\n      pop\n        /* \"#utility.yul\":5177:5279   */\n      swap2\n      swap1\n      pop\n      jump\t// out\n        /* \"#utility.yul\":5285:5465   */\n    tag_666:\n        /* \"#utility.yul\":5333:5410   */\n      0x4e487b7100000000000000000000000000000000000000000000000000000000\n        /* \"#utility.yul\":5330:5331   */\n      0x00\n        /* \"#utility.yul\":5323:5411   */\n      mstore\n        /* \"#utility.yul\":5430:5434   */\n      0x41\n        /* \"#utility.yul\":5427:5428   */\n      0x04\n        /* \"#utility.yul\":5420:5435   */\n      mstore\n        /* \"#utility.yul\":5454:5458   */\n      0x24\n        /* \"#utility.yul\":5451:5452   */\n      0x00\n        /* \"#utility.yul\":5444:5459   */\n      revert\n        /* \"#utility.yul\":5471:5752   */\n    tag_667:\n        /* \"#utility.yul\":5554:5581   */\n      tag_777\n        /* \"#utility.yul\":5576:5580   */\n      dup3\n        /* \"#utility.yul\":5554:5581   */\n      tag_665\n      jump\t// in\n    tag_777:\n        /* \"#utility.yul\":5546:5552   */\n      dup2\n        /* \"#utility.yul\":5542:5582   */\n      add\n        /* \"#utility.yul\":5684:5690   */\n      dup2\n        /* \"#utility.yul\":5672:5682   */\n      dup2\n        /* \"#utility.yul\":5669:5691   */\n      lt\n        /* \"#utility.yul\":5648:5666   */\n      0xffffffffffffffff\n        /* \"#utility.yul\":5636:5646   */\n      dup3\n        /* \"#utility.yul\":5633:5667   */\n      gt\n        /* \"#utility.yul\":5630:5692   */\n      or\n        /* \"#utility.yul\":5627:5715   */\n      iszero\n      tag_778\n      jumpi\n        /* \"#utility.yul\":5695:5713   */\n      tag_779\n      tag_666\n      jump\t// in\n    tag_779:\n        /* \"#utility.yul\":5627:5715   */\n    tag_778:\n        /* \"#utility.yul\":5735:5745   */\n      dup1\n        /* \"#utility.yul\":5731:5733   */\n      0x40\n        /* \"#utility.yul\":5724:5746   */\n      mstore\n        /* \"#utility.yul\":5514:5752   */\n      pop\n        /* \"#utility.yul\":5471:5752   */\n      pop\n      pop\n      jump\t// out\n        /* \"#utility.yul\":5758:5887   */\n    tag_668:\n        /* \"#utility.yul\":5792:5798   */\n      0x00\n        /* \"#utility.yul\":5819:5839   */\n      tag_781\n      tag_649\n      jump\t// in\n    tag_781:\n        /* \"#utility.yul\":5809:5839   */\n      swap1\n      pop\n        /* \"#utility.yul\":5848:5881   */\n      tag_782\n        /* \"#utility.yul\":5876:5880   */\n      dup3\n        /* \"#utility.yul\":5868:5874   */\n      dup3\n        /* \"#utility.yul\":5848:5881   */\n      tag_667\n      jump\t// in\n    tag_782:\n        /* \"#utility.yul\":5758:5887   */\n      swap2\n      swap1\n      pop\n      jump\t// out\n        /* \"#utility.yul\":5893:6200   */\n    tag_669:\n        /* \"#utility.yul\":5954:5958   */\n      0x00\n        /* \"#utility.yul\":6044:6062   */\n      0xffffffffffffffff\n        /* \"#utility.yul\":6036:6042   */\n      dup3\n        /* \"#utility.yul\":6033:6063   */\n      gt\n        /* \"#utility.yul\":6030:6086   */\n      iszero\n      tag_784\n      jumpi\n        /* \"#utility.yul\":6066:6084   */\n      tag_785\n      tag_666\n      jump\t// in\n    tag_785:\n        /* \"#utility.yul\":6030:6086   */\n    tag_784:\n        /* \"#utility.yul\":6104:6133   */\n      tag_786\n        /* \"#utility.yul\":6126:6132   */\n      dup3\n        /* \"#utility.yul\":6104:6133   */\n      tag_665\n      jump\t// in\n    tag_786:\n        /* \"#utility.yul\":6096:6133   */\n      swap1\n      pop\n        /* \"#utility.yul\":6188:6192   */\n      0x20\n        /* \"#utility.yul\":6182:6186   */\n      dup2\n        /* \"#utility.yul\":6178:6193   */\n      add\n        /* \"#utility.yul\":6170:6193   */\n      swap1\n      pop\n        /* \"#utility.yul\":5893:6200   */\n      swap2\n      swap1\n      pop\n      jump\t// out\n        /* \"#utility.yul\":6206:6354   */\n    tag_670:\n        /* \"#utility.yul\":6304:6310   */\n      dup3\n        /* \"#utility.yul\":6299:6302   */\n      dup2\n        /* \"#utility.yul\":6294:6297   */\n      dup4\n        /* \"#utility.yul\":6281:6311   */\n      calldatacopy\n        /* \"#utility.yul\":6345:6346   */\n      0x00\n        /* \"#utility.yul\":6336:6342   */\n      dup4\n        /* \"#utility.yul\":6331:6334   */\n      dup4\n        /* \"#utility.yul\":6327:6343   */\n      add\n        /* \"#utility.yul\":6320:6347   */\n      mstore\n        /* \"#utility.yul\":6206:6354   */\n      pop\n      pop\n      pop\n      jump\t// out\n        /* \"#utility.yul\":6360:6783   */\n    tag_671:\n        /* \"#utility.yul\":6437:6442   */\n      0x00\n        /* \"#utility.yul\":6462:6527   */\n      tag_789\n        /* \"#utility.yul\":6478:6526   */\n      tag_790\n        /* \"#utility.yul\":6519:6525   */\n      dup5\n        /* \"#utility.yul\":6478:6526   */\n      tag_669\n      jump\t// in\n    tag_790:\n        /* \"#utility.yul\":6462:6527   */\n      tag_668\n      jump\t// in\n    tag_789:\n        /* \"#utility.yul\":6453:6527   */\n      swap1\n      pop\n        /* \"#utility.yul\":6550:6556   */\n      dup3\n        /* \"#utility.yul\":6543:6548   */\n      dup2\n        /* \"#utility.yul\":6536:6557   */\n      mstore\n        /* \"#utility.yul\":6588:6592   */\n      0x20\n        /* \"#utility.yul\":6581:6586   */\n      dup2\n        /* \"#utility.yul\":6577:6593   */\n      add\n        /* \"#utility.yul\":6626:6629   */\n      dup5\n        /* \"#utility.yul\":6617:6623   */\n      dup5\n        /* \"#utility.yul\":6612:6615   */\n      dup5\n        /* \"#utility.yul\":6608:6624   */\n      add\n        /* \"#utility.yul\":6605:6630   */\n      gt\n        /* \"#utility.yul\":6602:6714   */\n      iszero\n      tag_791\n      jumpi\n        /* \"#utility.yul\":6633:6712   */\n      tag_792\n      tag_664\n      jump\t// in\n    tag_792:\n        /* \"#utility.yul\":6602:6714   */\n    tag_791:\n        /* \"#utility.yul\":6723:6777   */\n      tag_793\n        /* \"#utility.yul\":6770:6776   */\n      dup5\n        /* \"#utility.yul\":6765:6768   */\n      dup3\n        /* \"#utility.yul\":6760:6763   */\n      dup6\n        /* \"#utility.yul\":6723:6777   */\n      tag_670\n      jump\t// in\n    tag_793:\n        /* \"#utility.yul\":6443:6783   */\n      pop\n        /* \"#utility.yul\":6360:6783   */\n      swap4\n      swap3\n      pop\n      pop\n      pop\n      jump\t// out\n        /* \"#utility.yul\":6802:7140   */\n    tag_672:\n        /* \"#utility.yul\":6857:6862   */\n      0x00\n        /* \"#utility.yul\":6906:6909   */\n      dup3\n        /* \"#utility.yul\":6899:6903   */\n      0x1f\n        /* \"#utility.yul\":6891:6897   */\n      dup4\n        /* \"#utility.yul\":6887:6904   */\n      add\n        /* \"#utility.yul\":6883:6910   */\n      slt\n        /* \"#utility.yul\":6873:6995   */\n      tag_795\n      jumpi\n        /* \"#utility.yul\":6914:6993   */\n      tag_796\n      tag_658\n      jump\t// in\n    tag_796:\n        /* \"#utility.yul\":6873:6995   */\n    tag_795:\n        /* \"#utility.yul\":7031:7037   */\n      dup2\n        /* \"#utility.yul\":7018:7038   */\n      calldataload\n        /* \"#utility.yul\":7056:7134   */\n      tag_797\n        /* \"#utility.yul\":7130:7133   */\n      dup5\n        /* \"#utility.yul\":7122:7128   */\n      dup3\n        /* \"#utility.yul\":7115:7119   */\n      0x20\n        /* \"#utility.yul\":7107:7113   */\n      dup7\n        /* \"#utility.yul\":7103:7120   */\n      add\n        /* \"#utility.yul\":7056:7134   */\n      tag_671\n      jump\t// in\n    tag_797:\n        /* \"#utility.yul\":7047:7134   */\n      swap2\n      pop\n        /* \"#utility.yul\":6863:7140   */\n      pop\n        /* \"#utility.yul\":6802:7140   */\n      swap3\n      swap2\n      pop\n      pop\n      jump\t// out\n        /* \"#utility.yul\":7146:7798   */\n    tag_116:\n        /* \"#utility.yul\":7223:7229   */\n      0x00\n        /* \"#utility.yul\":7231:7237   */\n      dup1\n        /* \"#utility.yul\":7280:7282   */\n      0x40\n        /* \"#utility.yul\":7268:7277   */\n      dup4\n        /* \"#utility.yul\":7259:7266   */\n      dup6\n        /* \"#utility.yul\":7255:7278   */\n      sub\n        /* \"#utility.yul\":7251:7283   */\n      slt\n        /* \"#utility.yul\":7248:7367   */\n      iszero\n      tag_799\n      jumpi\n        /* \"#utility.yul\":7286:7365   */\n      tag_800\n      tag_650\n      jump\t// in\n    tag_800:\n        /* \"#utility.yul\":7248:7367   */\n    tag_799:\n        /* \"#utility.yul\":7406:7407   */\n      0x00\n        /* \"#utility.yul\":7431:7484   */\n      tag_801\n        /* \"#utility.yul\":7476:7483   */\n      dup6\n        /* \"#utility.yul\":7467:7473   */\n      dup3\n        /* \"#utility.yul\":7456:7465   */\n      dup7\n        /* \"#utility.yul\":7452:7474   */\n      add\n        /* \"#utility.yul\":7431:7484   */\n      tag_663\n      jump\t// in\n    tag_801:\n        /* \"#utility.yul\":7421:7484   */\n      swap3\n      pop\n        /* \"#utility.yul\":7377:7494   */\n      pop\n        /* \"#utility.yul\":7561:7563   */\n      0x20\n        /* \"#utility.yul\":7550:7559   */\n      dup4\n        /* \"#utility.yul\":7546:7564   */\n      add\n        /* \"#utility.yul\":7533:7565   */\n      calldataload\n        /* \"#utility.yul\":7592:7610   */\n      0xffffffffffffffff\n        /* \"#utility.yul\":7584:7590   */\n      dup2\n        /* \"#utility.yul\":7581:7611   */\n      gt\n        /* \"#utility.yul\":7578:7695   */\n      iszero\n      tag_802\n      jumpi\n        /* \"#utility.yul\":7614:7693   */\n      tag_803\n      tag_651\n      jump\t// in\n    tag_803:\n        /* \"#utility.yul\":7578:7695   */\n    tag_802:\n        /* \"#utility.yul\":7719:7781   */\n      tag_804\n        /* \"#utility.yul\":7773:7780   */\n      dup6\n        /* \"#utility.yul\":7764:7770   */\n      dup3\n        /* \"#utility.yul\":7753:7762   */\n      dup7\n        /* \"#utility.yul\":7749:7771   */\n      add\n        /* \"#utility.yul\":7719:7781   */\n      tag_672\n      jump\t// in\n    tag_804:\n        /* \"#utility.yul\":7709:7781   */\n      swap2\n      pop\n        /* \"#utility.yul\":7504:7791   */\n      pop\n        /* \"#utility.yul\":7146:7798   */\n      swap3\n      pop\n      swap3\n      swap1\n      pop\n      jump\t// out\n        /* \"#utility.yul\":7804:7881   */\n    tag_673:\n        /* \"#utility.yul\":7841:7848   */\n      0x00\n        /* \"#utility.yul\":7870:7875   */\n      dup2\n        /* \"#utility.yul\":7859:7875   */\n      swap1\n      pop\n        /* \"#utility.yul\":7804:7881   */\n      swap2\n      swap1\n      pop\n      jump\t// out\n        /* \"#utility.yul\":7887:8005   */\n    tag_674:\n        /* \"#utility.yul\":7974:7998   */\n      tag_807\n        /* \"#utility.yul\":7992:7997   */\n      dup2\n        /* \"#utility.yul\":7974:7998   */\n      tag_673\n      jump\t// in\n    tag_807:\n        /* \"#utility.yul\":7969:7972   */\n      dup3\n        /* \"#utility.yul\":7962:7999   */\n      mstore\n        /* \"#utility.yul\":7887:8005   */\n      pop\n      pop\n      jump\t// out\n        /* \"#utility.yul\":8011:8233   */\n    tag_126:\n        /* \"#utility.yul\":8104:8108   */\n      0x00\n        /* \"#utility.yul\":8142:8144   */\n      0x20\n        /* \"#utility.yul\":8131:8140   */\n      dup3\n        /* \"#utility.yul\":8127:8145   */\n      add\n        /* \"#utility.yul\":8119:8145   */\n      swap1\n      pop\n        /* \"#utility.yul\":8155:8226   */\n      tag_809\n        /* \"#utility.yul\":8223:8224   */\n      0x00\n        /* \"#utility.yul\":8212:8221   */\n      dup4\n        /* \"#utility.yul\":8208:8225   */\n      add\n        /* \"#utility.yul\":8199:8205   */\n      dup5\n        /* \"#utility.yul\":8155:8226   */\n      tag_674\n      jump\t// in\n    tag_809:\n        /* \"#utility.yul\":8011:8233   */\n      swap3\n      swap2\n      pop\n      pop\n      jump\t// out\n        /* \"#utility.yul\":8239:8713   */\n    tag_138:\n        /* \"#utility.yul\":8307:8313   */\n      0x00\n        /* \"#utility.yul\":8315:8321   */\n      dup1\n        /* \"#utility.yul\":8364:8366   */\n      0x40\n        /* \"#utility.yul\":8352:8361   */\n      dup4\n        /* \"#utility.yul\":8343:8350   */\n      dup6\n        /* \"#utility.yul\":8339:8362   */\n      sub\n        /* \"#utility.yul\":8335:8367   */\n      slt\n        /* \"#utility.yul\":8332:8451   */\n      iszero\n      tag_811\n      jumpi\n        /* \"#utility.yul\":8370:8449   */\n      tag_812\n      tag_650\n      jump\t// in\n    tag_812:\n        /* \"#utility.yul\":8332:8451   */\n    tag_811:\n        /* \"#utility.yul\":8490:8491   */\n      0x00\n        /* \"#utility.yul\":8515:8568   */\n      tag_813\n        /* \"#utility.yul\":8560:8567   */\n      dup6\n        /* \"#utility.yul\":8551:8557   */\n      dup3\n        /* \"#utility.yul\":8540:8549   */\n      dup7\n        /* \"#utility.yul\":8536:8558   */\n      add\n        /* \"#utility.yul\":8515:8568   */\n      tag_653\n      jump\t// in\n    tag_813:\n        /* \"#utility.yul\":8505:8568   */\n      swap3\n      pop\n        /* \"#utility.yul\":8461:8578   */\n      pop\n        /* \"#utility.yul\":8617:8619   */\n      0x20\n        /* \"#utility.yul\":8643:8696   */\n      tag_814\n        /* \"#utility.yul\":8688:8695   */\n      dup6\n        /* \"#utility.yul\":8679:8685   */\n      dup3\n        /* \"#utility.yul\":8668:8677   */\n      dup7\n        /* \"#utility.yul\":8664:8686   */\n      add\n        /* \"#utility.yul\":8643:8696   */\n      tag_653\n      jump\t// in\n    tag_814:\n        /* \"#utility.yul\":8633:8696   */\n      swap2\n      pop\n        /* \"#utility.yul\":8588:8706   */\n      pop\n        /* \"#utility.yul\":8239:8713   */\n      swap3\n      pop\n      swap3\n      swap1\n      pop\n      jump\t// out\n        /* \"#utility.yul\":8719:8817   */\n    tag_675:\n        /* \"#utility.yul\":8770:8776   */\n      0x00\n        /* \"#utility.yul\":8804:8809   */\n      dup2\n        /* \"#utility.yul\":8798:8810   */\n      mload\n        /* \"#utility.yul\":8788:8810   */\n      swap1\n      pop\n        /* \"#utility.yul\":8719:8817   */\n      swap2\n      swap1\n      pop\n      jump\t// out\n        /* \"#utility.yul\":8823:8991   */\n    tag_676:\n        /* \"#utility.yul\":8906:8917   */\n      0x00\n        /* \"#utility.yul\":8940:8946   */\n      dup3\n        /* \"#utility.yul\":8935:8938   */\n      dup3\n        /* \"#utility.yul\":8928:8947   */\n      mstore\n        /* \"#utility.yul\":8980:8984   */\n      0x20\n        /* \"#utility.yul\":8975:8978   */\n      dup3\n        /* \"#utility.yul\":8971:8985   */\n      add\n        /* \"#utility.yul\":8956:8985   */\n      swap1\n      pop\n        /* \"#utility.yul\":8823:8991   */\n      swap3\n      swap2\n      pop\n      pop\n      jump\t// out\n        /* \"#utility.yul\":8997:9136   */\n    tag_677:\n        /* \"#utility.yul\":9086:9092   */\n      dup3\n        /* \"#utility.yul\":9081:9084   */\n      dup2\n        /* \"#utility.yul\":9076:9079   */\n      dup4\n        /* \"#utility.yul\":9070:9093   */\n      mcopy\n        /* \"#utility.yul\":9127:9128   */\n      0x00\n        /* \"#utility.yul\":9118:9124   */\n      dup4\n        /* \"#utility.yul\":9113:9116   */\n      dup4\n        /* \"#utility.yul\":9109:9125   */\n      add\n        /* \"#utility.yul\":9102:9129   */\n      mstore\n        /* \"#utility.yul\":8997:9136   */\n      pop\n      pop\n      pop\n      jump\t// out\n        /* \"#utility.yul\":9142:9515   */\n    tag_678:\n        /* \"#utility.yul\":9228:9231   */\n      0x00\n        /* \"#utility.yul\":9256:9294   */\n      tag_819\n        /* \"#utility.yul\":9288:9293   */\n      dup3\n        /* \"#utility.yul\":9256:9294   */\n      tag_675\n      jump\t// in\n    tag_819:\n        /* \"#utility.yul\":9310:9380   */\n      tag_820\n        /* \"#utility.yul\":9373:9379   */\n      dup2\n        /* \"#utility.yul\":9368:9371   */\n      dup6\n        /* \"#utility.yul\":9310:9380   */\n      tag_676\n      jump\t// in\n    tag_820:\n        /* \"#utility.yul\":9303:9380   */\n      swap4\n      pop\n        /* \"#utility.yul\":9389:9454   */\n      tag_821\n        /* \"#utility.yul\":9447:9453   */\n      dup2\n        /* \"#utility.yul\":9442:9445   */\n      dup6\n        /* \"#utility.yul\":9435:9439   */\n      0x20\n        /* \"#utility.yul\":9428:9433   */\n      dup7\n        /* \"#utility.yul\":9424:9440   */\n      add\n        /* \"#utility.yul\":9389:9454   */\n      tag_677\n      jump\t// in\n    tag_821:\n        /* \"#utility.yul\":9479:9508   */\n      tag_822\n        /* \"#utility.yul\":9501:9507   */\n      dup2\n        /* \"#utility.yul\":9479:9508   */\n      tag_665\n      jump\t// in\n    tag_822:\n        /* \"#utility.yul\":9474:9477   */\n      dup5\n        /* \"#utility.yul\":9470:9509   */\n      add\n        /* \"#utility.yul\":9463:9509   */\n      swap2\n      pop\n        /* \"#utility.yul\":9232:9515   */\n      pop\n        /* \"#utility.yul\":9142:9515   */\n      swap3\n      swap2\n      pop\n      pop\n      jump\t// out\n        /* \"#utility.yul\":9521:9928   */\n    tag_152:\n        /* \"#utility.yul\":9654:9658   */\n      0x00\n        /* \"#utility.yul\":9692:9694   */\n      0x40\n        /* \"#utility.yul\":9681:9690   */\n      dup3\n        /* \"#utility.yul\":9677:9695   */\n      add\n        /* \"#utility.yul\":9669:9695   */\n      swap1\n      pop\n        /* \"#utility.yul\":9705:9770   */\n      tag_824\n        /* \"#utility.yul\":9767:9768   */\n      0x00\n        /* \"#utility.yul\":9756:9765   */\n      dup4\n        /* \"#utility.yul\":9752:9769   */\n      add\n        /* \"#utility.yul\":9743:9749   */\n      dup6\n        /* \"#utility.yul\":9705:9770   */\n      tag_657\n      jump\t// in\n    tag_824:\n        /* \"#utility.yul\":9817:9826   */\n      dup2\n        /* \"#utility.yul\":9811:9815   */\n      dup2\n        /* \"#utility.yul\":9807:9827   */\n      sub\n        /* \"#utility.yul\":9802:9804   */\n      0x20\n        /* \"#utility.yul\":9791:9800   */\n      dup4\n        /* \"#utility.yul\":9787:9805   */\n      add\n        /* \"#utility.yul\":9780:9828   */\n      mstore\n        /* \"#utility.yul\":9845:9921   */\n      tag_825\n        /* \"#utility.yul\":9916:9920   */\n      dup2\n        /* \"#utility.yul\":9907:9913   */\n      dup5\n        /* \"#utility.yul\":9845:9921   */\n      tag_678\n      jump\t// in\n    tag_825:\n        /* \"#utility.yul\":9837:9921   */\n      swap1\n      pop\n        /* \"#utility.yul\":9521:9928   */\n      swap4\n      swap3\n      pop\n      pop\n      pop\n      jump\t// out\n        /* \"#utility.yul\":9934:10033   */\n    tag_679:\n        /* \"#utility.yul\":9986:9992   */\n      0x00\n        /* \"#utility.yul\":10020:10025   */\n      dup2\n        /* \"#utility.yul\":10014:10026   */\n      mload\n        /* \"#utility.yul\":10004:10026   */\n      swap1\n      pop\n        /* \"#utility.yul\":9934:10033   */\n      swap2\n      swap1\n      pop\n      jump\t// out\n        /* \"#utility.yul\":10039:10208   */\n    tag_680:\n        /* \"#utility.yul\":10123:10134   */\n      0x00\n        /* \"#utility.yul\":10157:10163   */\n      dup3\n        /* \"#utility.yul\":10152:10155   */\n      dup3\n        /* \"#utility.yul\":10145:10164   */\n      mstore\n        /* \"#utility.yul\":10197:10201   */\n      0x20\n        /* \"#utility.yul\":10192:10195   */\n      dup3\n        /* \"#utility.yul\":10188:10202   */\n      add\n        /* \"#utility.yul\":10173:10202   */\n      swap1\n      pop\n        /* \"#utility.yul\":10039:10208   */\n      swap3\n      swap2\n      pop\n      pop\n      jump\t// out\n        /* \"#utility.yul\":10214:10591   */\n    tag_681:\n        /* \"#utility.yul\":10302:10305   */\n      0x00\n        /* \"#utility.yul\":10330:10369   */\n      tag_829\n        /* \"#utility.yul\":10363:10368   */\n      dup3\n        /* \"#utility.yul\":10330:10369   */\n      tag_679\n      jump\t// in\n    tag_829:\n        /* \"#utility.yul\":10385:10456   */\n      tag_830\n        /* \"#utility.yul\":10449:10455   */\n      dup2\n        /* \"#utility.yul\":10444:10447   */\n      dup6\n        /* \"#utility.yul\":10385:10456   */\n      tag_680\n      jump\t// in\n    tag_830:\n        /* \"#utility.yul\":10378:10456   */\n      swap4\n      pop\n        /* \"#utility.yul\":10465:10530   */\n      tag_831\n        /* \"#utility.yul\":10523:10529   */\n      dup2\n        /* \"#utility.yul\":10518:10521   */\n      dup6\n        /* \"#utility.yul\":10511:10515   */\n      0x20\n        /* \"#utility.yul\":10504:10509   */\n      dup7\n        /* \"#utility.yul\":10500:10516   */\n      add\n        /* \"#utility.yul\":10465:10530   */\n      tag_677\n      jump\t// in\n    tag_831:\n        /* \"#utility.yul\":10555:10584   */\n      tag_832\n        /* \"#utility.yul\":10577:10583   */\n      dup2\n        /* \"#utility.yul\":10555:10584   */\n      tag_665\n      jump\t// in\n    tag_832:\n        /* \"#utility.yul\":10550:10553   */\n      dup5\n        /* \"#utility.yul\":10546:10585   */\n      add\n        /* \"#utility.yul\":10539:10585   */\n      swap2\n      pop\n        /* \"#utility.yul\":10306:10591   */\n      pop\n        /* \"#utility.yul\":10214:10591   */\n      swap3\n      swap2\n      pop\n      pop\n      jump\t// out\n        /* \"#utility.yul\":10597:10910   */\n    tag_201:\n        /* \"#utility.yul\":10710:10714   */\n      0x00\n        /* \"#utility.yul\":10748:10750   */\n      0x20\n        /* \"#utility.yul\":10737:10746   */\n      dup3\n        /* \"#utility.yul\":10733:10751   */\n      add\n        /* \"#utility.yul\":10725:10751   */\n      swap1\n      pop\n        /* \"#utility.yul\":10797:10806   */\n      dup2\n        /* \"#utility.yul\":10791:10795   */\n      dup2\n        /* \"#utility.yul\":10787:10807   */\n      sub\n        /* \"#utility.yul\":10783:10784   */\n      0x00\n        /* \"#utility.yul\":10772:10781   */\n      dup4\n        /* \"#utility.yul\":10768:10785   */\n      add\n        /* \"#utility.yul\":10761:10808   */\n      mstore\n        /* \"#utility.yul\":10825:10903   */\n      tag_834\n        /* \"#utility.yul\":10898:10902   */\n      dup2\n        /* \"#utility.yul\":10889:10895   */\n      dup5\n        /* \"#utility.yul\":10825:10903   */\n      tag_681\n      jump\t// in\n    tag_834:\n        /* \"#utility.yul\":10817:10903   */\n      swap1\n      pop\n        /* \"#utility.yul\":10597:10910   */\n      swap3\n      swap2\n      pop\n      pop\n      jump\t// out\n        /* \"#utility.yul\":10916:11245   */\n    tag_217:\n        /* \"#utility.yul\":10975:10981   */\n      0x00\n        /* \"#utility.yul\":11024:11026   */\n      0x20\n        /* \"#utility.yul\":11012:11021   */\n      dup3\n        /* \"#utility.yul\":11003:11010   */\n      dup5\n        /* \"#utility.yul\":10999:11022   */\n      sub\n        /* \"#utility.yul\":10995:11027   */\n      slt\n        /* \"#utility.yul\":10992:11111   */\n      iszero\n      tag_836\n      jumpi\n        /* \"#utility.yul\":11030:11109   */\n      tag_837\n      tag_650\n      jump\t// in\n    tag_837:\n        /* \"#utility.yul\":10992:11111   */\n    tag_836:\n        /* \"#utility.yul\":11150:11151   */\n      0x00\n        /* \"#utility.yul\":11175:11228   */\n      tag_838\n        /* \"#utility.yul\":11220:11227   */\n      dup5\n        /* \"#utility.yul\":11211:11217   */\n      dup3\n        /* \"#utility.yul\":11200:11209   */\n      dup6\n        /* \"#utility.yul\":11196:11218   */\n      add\n        /* \"#utility.yul\":11175:11228   */\n      tag_663\n      jump\t// in\n    tag_838:\n        /* \"#utility.yul\":11165:11228   */\n      swap2\n      pop\n        /* \"#utility.yul\":11121:11238   */\n      pop\n        /* \"#utility.yul\":10916:11245   */\n      swap3\n      swap2\n      pop\n      pop\n      jump\t// out\n        /* \"#utility.yul\":11251:12014   */\n    tag_220:\n        /* \"#utility.yul\":11478:11482   */\n      0x00\n        /* \"#utility.yul\":11516:11519   */\n      0xc0\n        /* \"#utility.yul\":11505:11514   */\n      dup3\n        /* \"#utility.yul\":11501:11520   */\n      add\n        /* \"#utility.yul\":11493:11520   */\n      swap1\n      pop\n        /* \"#utility.yul\":11530:11595   */\n      tag_840\n        /* \"#utility.yul\":11592:11593   */\n      0x00\n        /* \"#utility.yul\":11581:11590   */\n      dup4\n        /* \"#utility.yul\":11577:11594   */\n      add\n        /* \"#utility.yul\":11568:11574   */\n      dup10\n        /* \"#utility.yul\":11530:11595   */\n      tag_657\n      jump\t// in\n    tag_840:\n        /* \"#utility.yul\":11605:11677   */\n      tag_841\n        /* \"#utility.yul\":11673:11675   */\n      0x20\n        /* \"#utility.yul\":11662:11671   */\n      dup4\n        /* \"#utility.yul\":11658:11676   */\n      add\n        /* \"#utility.yul\":11649:11655   */\n      dup9\n        /* \"#utility.yul\":11605:11677   */\n      tag_642\n      jump\t// in\n    tag_841:\n        /* \"#utility.yul\":11687:11759   */\n      tag_842\n        /* \"#utility.yul\":11755:11757   */\n      0x40\n        /* \"#utility.yul\":11744:11753   */\n      dup4\n        /* \"#utility.yul\":11740:11758   */\n      add\n        /* \"#utility.yul\":11731:11737   */\n      dup8\n        /* \"#utility.yul\":11687:11759   */\n      tag_642\n      jump\t// in\n    tag_842:\n        /* \"#utility.yul\":11769:11841   */\n      tag_843\n        /* \"#utility.yul\":11837:11839   */\n      0x60\n        /* \"#utility.yul\":11826:11835   */\n      dup4\n        /* \"#utility.yul\":11822:11840   */\n      add\n        /* \"#utility.yul\":11813:11819   */\n      dup7\n        /* \"#utility.yul\":11769:11841   */\n      tag_642\n      jump\t// in\n    tag_843:\n        /* \"#utility.yul\":11851:11924   */\n      tag_844\n        /* \"#utility.yul\":11919:11922   */\n      0x80\n        /* \"#utility.yul\":11908:11917   */\n      dup4\n        /* \"#utility.yul\":11904:11923   */\n      add\n        /* \"#utility.yul\":11895:11901   */\n      dup6\n        /* \"#utility.yul\":11851:11924   */\n      tag_642\n      jump\t// in\n    tag_844:\n        /* \"#utility.yul\":11934:12007   */\n      tag_845\n        /* \"#utility.yul\":12002:12005   */\n      0xa0\n        /* \"#utility.yul\":11991:12000   */\n      dup4\n        /* \"#utility.yul\":11987:12006   */\n      add\n        /* \"#utility.yul\":11978:11984   */\n      dup5\n        /* \"#utility.yul\":11934:12007   */\n      tag_642\n      jump\t// in\n    tag_845:\n        /* \"#utility.yul\":11251:12014   */\n      swap8\n      swap7\n      pop\n      pop\n      pop\n      pop\n      pop\n      pop\n      pop\n      jump\t// out\n        /* \"#utility.yul\":12020:12639   */\n    tag_224:\n        /* \"#utility.yul\":12097:12103   */\n      0x00\n        /* \"#utility.yul\":12105:12111   */\n      dup1\n        /* \"#utility.yul\":12113:12119   */\n      0x00\n        /* \"#utility.yul\":12162:12164   */\n      0x60\n        /* \"#utility.yul\":12150:12159   */\n      dup5\n        /* \"#utility.yul\":12141:12148   */\n      dup7\n        /* \"#utility.yul\":12137:12160   */\n      sub\n        /* \"#utility.yul\":12133:12165   */\n      slt\n        /* \"#utility.yul\":12130:12249   */\n      iszero\n      tag_847\n      jumpi\n        /* \"#utility.yul\":12168:12247   */\n      tag_848\n      tag_650\n      jump\t// in\n    tag_848:\n        /* \"#utility.yul\":12130:12249   */\n    tag_847:\n        /* \"#utility.yul\":12288:12289   */\n      0x00\n        /* \"#utility.yul\":12313:12366   */\n      tag_849\n        /* \"#utility.yul\":12358:12365   */\n      dup7\n        /* \"#utility.yul\":12349:12355   */\n      dup3\n        /* \"#utility.yul\":12338:12347   */\n      dup8\n        /* \"#utility.yul\":12334:12356   */\n      add\n        /* \"#utility.yul\":12313:12366   */\n      tag_663\n      jump\t// in\n    tag_849:\n        /* \"#utility.yul\":12303:12366   */\n      swap4\n      pop\n        /* \"#utility.yul\":12259:12376   */\n      pop\n        /* \"#utility.yul\":12415:12417   */\n      0x20\n        /* \"#utility.yul\":12441:12494   */\n      tag_850\n        /* \"#utility.yul\":12486:12493   */\n      dup7\n        /* \"#utility.yul\":12477:12483   */\n      dup3\n        /* \"#utility.yul\":12466:12475   */\n      dup8\n        /* \"#utility.yul\":12462:12484   */\n      add\n        /* \"#utility.yul\":12441:12494   */\n      tag_663\n      jump\t// in\n    tag_850:\n        /* \"#utility.yul\":12431:12494   */\n      swap3\n      pop\n        /* \"#utility.yul\":12386:12504   */\n      pop\n        /* \"#utility.yul\":12543:12545   */\n      0x40\n        /* \"#utility.yul\":12569:12622   */\n      tag_851\n        /* \"#utility.yul\":12614:12621   */\n      dup7\n        /* \"#utility.yul\":12605:12611   */\n      dup3\n        /* \"#utility.yul\":12594:12603   */\n      dup8\n        /* \"#utility.yul\":12590:12612   */\n      add\n        /* \"#utility.yul\":12569:12622   */\n      tag_663\n      jump\t// in\n    tag_851:\n        /* \"#utility.yul\":12559:12622   */\n      swap2\n      pop\n        /* \"#utility.yul\":12514:12632   */\n      pop\n        /* \"#utility.yul\":12020:12639   */\n      swap3\n      pop\n      swap3\n      pop\n      swap3\n      jump\t// out\n        /* \"#utility.yul\":12645:12761   */\n    tag_682:\n        /* \"#utility.yul\":12715:12736   */\n      tag_853\n        /* \"#utility.yul\":12730:12735   */\n      dup2\n        /* \"#utility.yul\":12715:12736   */\n      tag_656\n      jump\t// in\n    tag_853:\n        /* \"#utility.yul\":12708:12713   */\n      dup2\n        /* \"#utility.yul\":12705:12737   */\n      eq\n        /* \"#utility.yul\":12695:12755   */\n      tag_854\n      jumpi\n        /* \"#utility.yul\":12751:12752   */\n      0x00\n        /* \"#utility.yul\":12748:12749   */\n      dup1\n        /* \"#utility.yul\":12741:12753   */\n      revert\n        /* \"#utility.yul\":12695:12755   */\n    tag_854:\n        /* \"#utility.yul\":12645:12761   */\n      pop\n      jump\t// out\n        /* \"#utility.yul\":12767:12900   */\n    tag_683:\n        /* \"#utility.yul\":12810:12815   */\n      0x00\n        /* \"#utility.yul\":12848:12854   */\n      dup2\n        /* \"#utility.yul\":12835:12855   */\n      calldataload\n        /* \"#utility.yul\":12826:12855   */\n      swap1\n      pop\n        /* \"#utility.yul\":12864:12894   */\n      tag_856\n        /* \"#utility.yul\":12888:12893   */\n      dup2\n        /* \"#utility.yul\":12864:12894   */\n      tag_682\n      jump\t// in\n    tag_856:\n        /* \"#utility.yul\":12767:12900   */\n      swap3\n      swap2\n      pop\n      pop\n      jump\t// out\n        /* \"#utility.yul\":12906:13374   */\n    tag_242:\n        /* \"#utility.yul\":12971:12977   */\n      0x00\n        /* \"#utility.yul\":12979:12985   */\n      dup1\n        /* \"#utility.yul\":13028:13030   */\n      0x40\n        /* \"#utility.yul\":13016:13025   */\n      dup4\n        /* \"#utility.yul\":13007:13014   */\n      dup6\n        /* \"#utility.yul\":13003:13026   */\n      sub\n        /* \"#utility.yul\":12999:13031   */\n      slt\n        /* \"#utility.yul\":12996:13115   */\n      iszero\n      tag_858\n      jumpi\n        /* \"#utility.yul\":13034:13113   */\n      tag_859\n      tag_650\n      jump\t// in\n    tag_859:\n        /* \"#utility.yul\":12996:13115   */\n    tag_858:\n        /* \"#utility.yul\":13154:13155   */\n      0x00\n        /* \"#utility.yul\":13179:13232   */\n      tag_860\n        /* \"#utility.yul\":13224:13231   */\n      dup6\n        /* \"#utility.yul\":13215:13221   */\n      dup3\n        /* \"#utility.yul\":13204:13213   */\n      dup7\n        /* \"#utility.yul\":13200:13222   */\n      add\n        /* \"#utility.yul\":13179:13232   */\n      tag_663\n      jump\t// in\n    tag_860:\n        /* \"#utility.yul\":13169:13232   */\n      swap3\n      pop\n        /* \"#utility.yul\":13125:13242   */\n      pop\n        /* \"#utility.yul\":13281:13283   */\n      0x20\n        /* \"#utility.yul\":13307:13357   */\n      tag_861\n        /* \"#utility.yul\":13349:13356   */\n      dup6\n        /* \"#utility.yul\":13340:13346   */\n      dup3\n        /* \"#utility.yul\":13329:13338   */\n      dup7\n        /* \"#utility.yul\":13325:13347   */\n      add\n        /* \"#utility.yul\":13307:13357   */\n      tag_683\n      jump\t// in\n    tag_861:\n        /* \"#utility.yul\":13297:13357   */\n      swap2\n      pop\n        /* \"#utility.yul\":13252:13367   */\n      pop\n        /* \"#utility.yul\":12906:13374   */\n      swap3\n      pop\n      swap3\n      swap1\n      pop\n      jump\t// out\n        /* \"#utility.yul\":13380:13560   */\n    tag_684:\n        /* \"#utility.yul\":13428:13505   */\n      0x4e487b7100000000000000000000000000000000000000000000000000000000\n        /* \"#utility.yul\":13425:13426   */\n      0x00\n        /* \"#utility.yul\":13418:13506   */\n      mstore\n        /* \"#utility.yul\":13525:13529   */\n      0x11\n        /* \"#utility.yul\":13522:13523   */\n      0x04\n        /* \"#utility.yul\":13515:13530   */\n      mstore\n        /* \"#utility.yul\":13549:13553   */\n      0x24\n        /* \"#utility.yul\":13546:13547   */\n      0x00\n        /* \"#utility.yul\":13539:13554   */\n      revert\n        /* \"#utility.yul\":13566:13799   */\n    tag_267:\n        /* \"#utility.yul\":13605:13608   */\n      0x00\n        /* \"#utility.yul\":13628:13652   */\n      tag_864\n        /* \"#utility.yul\":13646:13651   */\n      dup3\n        /* \"#utility.yul\":13628:13652   */\n      tag_641\n      jump\t// in\n    tag_864:\n        /* \"#utility.yul\":13619:13652   */\n      swap2\n      pop\n        /* \"#utility.yul\":13674:13740   */\n      0xffffffffffffffffffffffffffffffffffffffffffffffffffffffffffffffff\n        /* \"#utility.yul\":13667:13672   */\n      dup3\n        /* \"#utility.yul\":13664:13741   */\n      sub\n        /* \"#utility.yul\":13661:13764   */\n      tag_865\n      jumpi\n        /* \"#utility.yul\":13744:13762   */\n      tag_866\n      tag_684\n      jump\t// in\n    tag_866:\n        /* \"#utility.yul\":13661:13764   */\n    tag_865:\n        /* \"#utility.yul\":13791:13792   */\n      0x01\n        /* \"#utility.yul\":13784:13789   */\n      dup3\n        /* \"#utility.yul\":13780:13793   */\n      add\n        /* \"#utility.yul\":13773:13793   */\n      swap1\n      pop\n        /* \"#utility.yul\":13566:13799   */\n      swap2\n      swap1\n      pop\n      jump\t// out\n        /* \"#utility.yul\":13805:13999   */\n    tag_269:\n        /* \"#utility.yul\":13845:13849   */\n      0x00\n        /* \"#utility.yul\":13865:13885   */\n      tag_868\n        /* \"#utility.yul\":13883:13884   */\n      dup3\n        /* \"#utility.yul\":13865:13885   */\n      tag_641\n      jump\t// in\n    tag_868:\n        /* \"#utility.yul\":13860:13885   */\n      swap2\n      pop\n        /* \"#utility.yul\":13899:13919   */\n      tag_869\n        /* \"#utility.yul\":13917:13918   */\n      dup4\n        /* \"#utility.yul\":13899:13919   */\n      tag_641\n      jump\t// in\n    tag_869:\n        /* \"#utility.yul\":13894:13919   */\n      swap3\n      pop\n        /* \"#utility.yul\":13943:13944   */\n      dup3\n        /* \"#utility.yul\":13940:13941   */\n      dup3\n        /* \"#utility.yul\":13936:13945   */\n      sub\n        /* \"#utility.yul\":13928:13945   */\n      swap1\n      pop\n        /* \"#utility.yul\":13967:13968   */\n      dup2\n        /* \"#utility.yul\":13961:13965   */\n      dup2\n        /* \"#utility.yul\":13958:13969   */\n      gt\n        /* \"#utility.yul\":13955:13992   */\n      iszero\n      tag_870\n      jumpi\n        /* \"#utility.yul\":13972:13990   */\n      tag_871\n      tag_684\n      jump\t// in\n    tag_871:\n        /* \"#utility.yul\":13955:13992   */\n    tag_870:\n        /* \"#utility.yul\":13805:13999   */\n      swap3\n      swap2\n      pop\n      pop\n      jump\t// out\n        /* \"#utility.yul\":14005:14447   */\n    tag_271:\n        /* \"#utility.yul\":14154:14158   */\n      0x00\n        /* \"#utility.yul\":14192:14194   */\n      0x60\n        /* \"#utility.yul\":14181:14190   */\n      dup3\n        /* \"#utility.yul\":14177:14195   */\n      add\n        /* \"#utility.yul\":14169:14195   */\n      swap1\n      pop\n        /* \"#utility.yul\":14205:14276   */\n      tag_873\n        /* \"#utility.yul\":14273:14274   */\n      0x00\n        /* \"#utility.yul\":14262:14271   */\n      dup4\n        /* \"#utility.yul\":14258:14275   */\n      add\n        /* \"#utility.yul\":14249:14255   */\n      dup7\n        /* \"#utility.yul\":14205:14276   */\n      tag_642\n      jump\t// in\n    tag_873:\n        /* \"#utility.yul\":14286:14358   */\n      tag_874\n        /* \"#utility.yul\":14354:14356   */\n      0x20\n        /* \"#utility.yul\":14343:14352   */\n      dup4\n        /* \"#utility.yul\":14339:14357   */\n      add\n        /* \"#utility.yul\":14330:14336   */\n      dup6\n        /* \"#utility.yul\":14286:14358   */\n      tag_642\n      jump\t// in\n    tag_874:\n        /* \"#utility.yul\":14368:14440   */\n      tag_875\n        /* \"#utility.yul\":14436:14438   */\n      0x40\n        /* \"#utility.yul\":14425:14434   */\n      dup4\n        /* \"#utility.yul\":14421:14439   */\n      add\n        /* \"#utility.yul\":14412:14418   */\n      dup5\n        /* \"#utility.yul\":14368:14440   */\n      tag_642\n      jump\t// in\n    tag_875:\n        /* \"#utility.yul\":14005:14447   */\n      swap5\n      swap4\n      pop\n      pop\n      pop\n      pop\n      jump\t// out\n        /* \"#utility.yul\":14453:14699   */\n    tag_685:\n        /* \"#utility.yul\":14593:14627   */\n      0x54686973206164647265737320646f6573206e6f742068617665207065726d69\n        /* \"#utility.yul\":14589:14590   */\n      0x00\n        /* \"#utility.yul\":14581:14587   */\n      dup3\n        /* \"#utility.yul\":14577:14591   */\n      add\n        /* \"#utility.yul\":14570:14628   */\n      mstore\n        /* \"#utility.yul\":14662:14691   */\n      0x7373696f6e20746f2063616c6c20706572666f726d55706b6565700000000000\n        /* \"#utility.yul\":14657:14659   */\n      0x20\n        /* \"#utility.yul\":14649:14655   */\n      dup3\n        /* \"#utility.yul\":14645:14660   */\n      add\n        /* \"#utility.yul\":14638:14692   */\n      mstore\n        /* \"#utility.yul\":14453:14699   */\n      pop\n      jump\t// out\n        /* \"#utility.yul\":14705:15071   */\n    tag_686:\n        /* \"#utility.yul\":14847:14850   */\n      0x00\n        /* \"#utility.yul\":14868:14935   */\n      tag_878\n        /* \"#utility.yul\":14932:14934   */\n      0x3b\n        /* \"#utility.yul\":14927:14930   */\n      dup4\n        /* \"#utility.yul\":14868:14935   */\n      tag_680\n      jump\t// in\n    tag_878:\n        /* \"#utility.yul\":14861:14935   */\n      swap2\n      pop\n        /* \"#utility.yul\":14944:15037   */\n      tag_879\n        /* \"#utility.yul\":15033:15036   */\n      dup3\n        /* \"#utility.yul\":14944:15037   */\n      tag_685\n      jump\t// in\n    tag_879:\n        /* \"#utility.yul\":15062:15064   */\n      0x40\n        /* \"#utility.yul\":15057:15060   */\n      dup3\n        /* \"#utility.yul\":15053:15065   */\n      add\n        /* \"#utility.yul\":15046:15065   */\n      swap1\n      pop\n        /* \"#utility.yul\":14705:15071   */\n      swap2\n      swap1\n      pop\n      jump\t// out\n        /* \"#utility.yul\":15077:15496   */\n    tag_275:\n        /* \"#utility.yul\":15243:15247   */\n      0x00\n        /* \"#utility.yul\":15281:15283   */\n      0x20\n        /* \"#utility.yul\":15270:15279   */\n      dup3\n        /* \"#utility.yul\":15266:15284   */\n      add\n        /* \"#utility.yul\":15258:15284   */\n      swap1\n      pop\n        /* \"#utility.yul\":15330:15339   */\n      dup2\n        /* \"#utility.yul\":15324:15328   */\n      dup2\n        /* \"#utility.yul\":15320:15340   */\n      sub\n        /* \"#utility.yul\":15316:15317   */\n      0x00\n        /* \"#utility.yul\":15305:15314   */\n      dup4\n        /* \"#utility.yul\":15301:15318   */\n      add\n        /* \"#utility.yul\":15294:15341   */\n      mstore\n        /* \"#utility.yul\":15358:15489   */\n      tag_881\n        /* \"#utility.yul\":15484:15488   */\n      dup2\n        /* \"#utility.yul\":15358:15489   */\n      tag_686\n      jump\t// in\n    tag_881:\n        /* \"#utility.yul\":15350:15489   */\n      swap1\n      pop\n        /* \"#utility.yul\":15077:15496   */\n      swap2\n      swap1\n      pop\n      jump\t// out\n        /* \"#utility.yul\":15502:15693   */\n    tag_300:\n        /* \"#utility.yul\":15542:15545   */\n      0x00\n        /* \"#utility.yul\":15561:15581   */\n      tag_883\n        /* \"#utility.yul\":15579:15580   */\n      dup3\n        /* \"#utility.yul\":15561:15581   */\n      tag_641\n      jump\t// in\n    tag_883:\n        /* \"#utility.yul\":15556:15581   */\n      swap2\n      pop\n        /* \"#utility.yul\":15595:15615   */\n      tag_884\n        /* \"#utility.yul\":15613:15614   */\n      dup4\n        /* \"#utility.yul\":15595:15615   */\n      tag_641\n      jump\t// in\n    tag_884:\n        /* \"#utility.yul\":15590:15615   */\n      swap3\n      pop\n        /* \"#utility.yul\":15638:15639   */\n      dup3\n        /* \"#utility.yul\":15635:15636   */\n      dup3\n        /* \"#utility.yul\":15631:15640   */\n      add\n        /* \"#utility.yul\":15624:15640   */\n      swap1\n      pop\n        /* \"#utility.yul\":15659:15662   */\n      dup1\n        /* \"#utility.yul\":15656:15657   */\n      dup3\n        /* \"#utility.yul\":15653:15663   */\n      gt\n        /* \"#utility.yul\":15650:15686   */\n      iszero\n      tag_885\n      jumpi\n        /* \"#utility.yul\":15666:15684   */\n      tag_886\n      tag_684\n      jump\t// in\n    tag_886:\n        /* \"#utility.yul\":15650:15686   */\n    tag_885:\n        /* \"#utility.yul\":15502:15693   */\n      swap3\n      swap2\n      pop\n      pop\n      jump\t// out\n        /* \"#utility.yul\":15699:16141   */\n    tag_302:\n        /* \"#utility.yul\":15848:15852   */\n      0x00\n        /* \"#utility.yul\":15886:15888   */\n      0x60\n        /* \"#utility.yul\":15875:15884   */\n      dup3\n        /* \"#utility.yul\":15871:15889   */\n      add\n        /* \"#utility.yul\":15863:15889   */\n      swap1\n      pop\n        /* \"#utility.yul\":15899:15970   */\n      tag_888\n        /* \"#utility.yul\":15967:15968   */\n      0x00\n        /* \"#utility.yul\":15956:15965   */\n      dup4\n        /* \"#utility.yul\":15952:15969   */\n      add\n        /* \"#utility.yul\":15943:15949   */\n      dup7\n        /* \"#utility.yul\":15899:15970   */\n      tag_655\n      jump\t// in\n    tag_888:\n        /* \"#utility.yul\":15980:16052   */\n      tag_889\n        /* \"#utility.yul\":16048:16050   */\n      0x20\n        /* \"#utility.yul\":16037:16046   */\n      dup4\n        /* \"#utility.yul\":16033:16051   */\n      add\n        /* \"#utility.yul\":16024:16030   */\n      dup6\n        /* \"#utility.yul\":15980:16052   */\n      tag_655\n      jump\t// in\n    tag_889:\n        /* \"#utility.yul\":16062:16134   */\n      tag_890\n        /* \"#utility.yul\":16130:16132   */\n      0x40\n        /* \"#utility.yul\":16119:16128   */\n      dup4\n        /* \"#utility.yul\":16115:16133   */\n      add\n        /* \"#utility.yul\":16106:16112   */\n      dup5\n        /* \"#utility.yul\":16062:16134   */\n      tag_642\n      jump\t// in\n    tag_890:\n        /* \"#utility.yul\":15699:16141   */\n      swap5\n      swap4\n      pop\n      pop\n      pop\n      pop\n      jump\t// out\n        /* \"#utility.yul\":16147:16284   */\n    tag_687:\n        /* \"#utility.yul\":16201:16206   */\n      0x00\n        /* \"#utility.yul\":16232:16238   */\n      dup2\n        /* \"#utility.yul\":16226:16239   */\n      mload\n        /* \"#utility.yul\":16217:16239   */\n      swap1\n      pop\n        /* \"#utility.yul\":16248:16278   */\n      tag_892\n        /* \"#utility.yul\":16272:16277   */\n      dup2\n        /* \"#utility.yul\":16248:16278   */\n      tag_682\n      jump\t// in\n    tag_892:\n        /* \"#utility.yul\":16147:16284   */\n      swap3\n      swap2\n      pop\n      pop\n      jump\t// out\n        /* \"#utility.yul\":16290:16635   */\n    tag_306:\n        /* \"#utility.yul\":16357:16363   */\n      0x00\n        /* \"#utility.yul\":16406:16408   */\n      0x20\n        /* \"#utility.yul\":16394:16403   */\n      dup3\n        /* \"#utility.yul\":16385:16392   */\n      dup5\n        /* \"#utility.yul\":16381:16404   */\n      sub\n        /* \"#utility.yul\":16377:16409   */\n      slt\n        /* \"#utility.yul\":16374:16493   */\n      iszero\n      tag_894\n      jumpi\n        /* \"#utility.yul\":16412:16491   */\n      tag_895\n      tag_650\n      jump\t// in\n    tag_895:\n        /* \"#utility.yul\":16374:16493   */\n    tag_894:\n        /* \"#utility.yul\":16532:16533   */\n      0x00\n        /* \"#utility.yul\":16557:16618   */\n      tag_896\n        /* \"#utility.yul\":16610:16617   */\n      dup5\n        /* \"#utility.yul\":16601:16607   */\n      dup3\n        /* \"#utility.yul\":16590:16599   */\n      dup6\n        /* \"#utility.yul\":16586:16608   */\n      add\n        /* \"#utility.yul\":16557:16618   */\n      tag_687\n      jump\t// in\n    tag_896:\n        /* \"#utility.yul\":16547:16618   */\n      swap2\n      pop\n        /* \"#utility.yul\":16503:16628   */\n      pop\n        /* \"#utility.yul\":16290:16635   */\n      swap3\n      swap2\n      pop\n      pop\n      jump\t// out\n        /* \"#utility.yul\":16641:17083   */\n    tag_323:\n        /* \"#utility.yul\":16790:16794   */\n      0x00\n        /* \"#utility.yul\":16828:16830   */\n      0x60\n        /* \"#utility.yul\":16817:16826   */\n      dup3\n        /* \"#utility.yul\":16813:16831   */\n      add\n        /* \"#utility.yul\":16805:16831   */\n      swap1\n      pop\n        /* \"#utility.yul\":16841:16912   */\n      tag_898\n        /* \"#utility.yul\":16909:16910   */\n      0x00\n        /* \"#utility.yul\":16898:16907   */\n      dup4\n        /* \"#utility.yul\":16894:16911   */\n      add\n        /* \"#utility.yul\":16885:16891   */\n      dup7\n        /* \"#utility.yul\":16841:16912   */\n      tag_655\n      jump\t// in\n    tag_898:\n        /* \"#utility.yul\":16922:16994   */\n      tag_899\n        /* \"#utility.yul\":16990:16992   */\n      0x20\n        /* \"#utility.yul\":16979:16988   */\n      dup4\n        /* \"#utility.yul\":16975:16993   */\n      add\n        /* \"#utility.yul\":16966:16972   */\n      dup6\n        /* \"#utility.yul\":16922:16994   */\n      tag_642\n      jump\t// in\n    tag_899:\n        /* \"#utility.yul\":17004:17076   */\n      tag_900\n        /* \"#utility.yul\":17072:17074   */\n      0x40\n        /* \"#utility.yul\":17061:17070   */\n      dup4\n        /* \"#utility.yul\":17057:17075   */\n      add\n        /* \"#utility.yul\":17048:17054   */\n      dup5\n        /* \"#utility.yul\":17004:17076   */\n      tag_642\n      jump\t// in\n    tag_900:\n        /* \"#utility.yul\":16641:17083   */\n      swap5\n      swap4\n      pop\n      pop\n      pop\n      pop\n      jump\t// out\n        /* \"#utility.yul\":17089:17421   */\n    tag_328:\n        /* \"#utility.yul\":17210:17214   */\n      0x00\n        /* \"#utility.yul\":17248:17250   */\n      0x40\n        /* \"#utility.yul\":17237:17246   */\n      dup3\n        /* \"#utility.yul\":17233:17251   */\n      add\n        /* \"#utility.yul\":17225:17251   */\n      swap1\n      pop\n        /* \"#utility.yul\":17261:17332   */\n      tag_902\n        /* \"#utility.yul\":17329:17330   */\n      0x00\n        /* \"#utility.yul\":17318:17327   */\n      dup4\n        /* \"#utility.yul\":17314:17331   */\n      add\n        /* \"#utility.yul\":17305:17311   */\n      dup6\n        /* \"#utility.yul\":17261:17332   */\n      tag_655\n      jump\t// in\n    tag_902:\n        /* \"#utility.yul\":17342:17414   */\n      tag_903\n        /* \"#utility.yul\":17410:17412   */\n      0x20\n        /* \"#utility.yul\":17399:17408   */\n      dup4\n        /* \"#utility.yul\":17395:17413   */\n      add\n        /* \"#utility.yul\":17386:17392   */\n      dup5\n        /* \"#utility.yul\":17342:17414   */\n      tag_642\n      jump\t// in\n    tag_903:\n        /* \"#utility.yul\":17089:17421   */\n      swap4\n      swap3\n      pop\n      pop\n      pop\n      jump\t// out\n        /* \"#utility.yul\":17427:17608   */\n    tag_688:\n        /* \"#utility.yul\":17567:17600   */\n      0x5265656e7472616e637947756172643a207265656e7472616e742063616c6c00\n        /* \"#utility.yul\":17563:17564   */\n      0x00\n        /* \"#utility.yul\":17555:17561   */\n      dup3\n        /* \"#utility.yul\":17551:17565   */\n      add\n        /* \"#utility.yul\":17544:17601   */\n      mstore\n        /* \"#utility.yul\":17427:17608   */\n      pop\n      jump\t// out\n        /* \"#utility.yul\":17614:17980   */\n    tag_689:\n        /* \"#utility.yul\":17756:17759   */\n      0x00\n        /* \"#utility.yul\":17777:17844   */\n      tag_906\n        /* \"#utility.yul\":17841:17843   */\n      0x1f\n        /* \"#utility.yul\":17836:17839   */\n      dup4\n        /* \"#utility.yul\":17777:17844   */\n      tag_680\n      jump\t// in\n    tag_906:\n        /* \"#utility.yul\":17770:17844   */\n      swap2\n      pop\n        /* \"#utility.yul\":17853:17946   */\n      tag_907\n        /* \"#utility.yul\":17942:17945   */\n      dup3\n        /* \"#utility.yul\":17853:17946   */\n      tag_688\n      jump\t// in\n    tag_907:\n        /* \"#utility.yul\":17971:17973   */\n      0x20\n        /* \"#utility.yul\":17966:17969   */\n      dup3\n        /* \"#utility.yul\":17962:17974   */\n      add\n        /* \"#utility.yul\":17955:17974   */\n      swap1\n      pop\n        /* \"#utility.yul\":17614:17980   */\n      swap2\n      swap1\n      pop\n      jump\t// out\n        /* \"#utility.yul\":17986:18405   */\n    tag_332:\n        /* \"#utility.yul\":18152:18156   */\n      0x00\n        /* \"#utility.yul\":18190:18192   */\n      0x20\n        /* \"#utility.yul\":18179:18188   */\n      dup3\n        /* \"#utility.yul\":18175:18193   */\n      add\n        /* \"#utility.yul\":18167:18193   */\n      swap1\n      pop\n        /* \"#utility.yul\":18239:18248   */\n      dup2\n        /* \"#utility.yul\":18233:18237   */\n      dup2\n        /* \"#utility.yul\":18229:18249   */\n      sub\n        /* \"#utility.yul\":18225:18226   */\n      0x00\n        /* \"#utility.yul\":18214:18223   */\n      dup4\n        /* \"#utility.yul\":18210:18227   */\n      add\n        /* \"#utility.yul\":18203:18250   */\n      mstore\n        /* \"#utility.yul\":18267:18398   */\n      tag_909\n        /* \"#utility.yul\":18393:18397   */\n      dup2\n        /* \"#utility.yul\":18267:18398   */\n      tag_689\n      jump\t// in\n    tag_909:\n        /* \"#utility.yul\":18259:18398   */\n      swap1\n      pop\n        /* \"#utility.yul\":17986:18405   */\n      swap2\n      swap1\n      pop\n      jump\t// out\n        /* \"#utility.yul\":18411:18577   */\n    tag_690:\n        /* \"#utility.yul\":18551:18569   */\n      0x696e76616c6964205f616d6f756e742100000000000000000000000000000000\n        /* \"#utility.yul\":18547:18548   */\n      0x00\n        /* \"#utility.yul\":18539:18545   */\n      dup3\n        /* \"#utility.yul\":18535:18549   */\n      add\n        /* \"#utility.yul\":18528:18570   */\n      mstore\n        /* \"#utility.yul\":18411:18577   */\n      pop\n      jump\t// out\n        /* \"#utility.yul\":18583:18949   */\n    tag_691:\n        /* \"#utility.yul\":18725:18728   */\n      0x00\n        /* \"#utility.yul\":18746:18813   */\n      tag_912\n        /* \"#utility.yul\":18810:18812   */\n      0x10\n        /* \"#utility.yul\":18805:18808   */\n      dup4\n        /* \"#utility.yul\":18746:18813   */\n      tag_680\n      jump\t// in\n    tag_912:\n        /* \"#utility.yul\":18739:18813   */\n      swap2\n      pop\n        /* \"#utility.yul\":18822:18915   */\n      tag_913\n        /* \"#utility.yul\":18911:18914   */\n      dup3\n        /* \"#utility.yul\":18822:18915   */\n      tag_690\n      jump\t// in\n    tag_913:\n        /* \"#utility.yul\":18940:18942   */\n      0x20\n        /* \"#utility.yul\":18935:18938   */\n      dup3\n        /* \"#utility.yul\":18931:18943   */\n      add\n        /* \"#utility.yul\":18924:18943   */\n      swap1\n      pop\n        /* \"#utility.yul\":18583:18949   */\n      swap2\n      swap1\n      pop\n      jump\t// out\n        /* \"#utility.yul\":18955:19374   */\n    tag_338:\n        /* \"#utility.yul\":19121:19125   */\n      0x00\n        /* \"#utility.yul\":19159:19161   */\n      0x20\n        /* \"#utility.yul\":19148:19157   */\n      dup3\n        /* \"#utility.yul\":19144:19162   */\n      add\n        /* \"#utility.yul\":19136:19162   */\n      swap1\n      pop\n        /* \"#utility.yul\":19208:19217   */\n      dup2\n        /* \"#utility.yul\":19202:19206   */\n      dup2\n        /* \"#utility.yul\":19198:19218   */\n      sub\n        /* \"#utility.yul\":19194:19195   */\n      0x00\n        /* \"#utility.yul\":19183:19192   */\n      dup4\n        /* \"#utility.yul\":19179:19196   */\n      add\n        /* \"#utility.yul\":19172:19219   */\n      mstore\n        /* \"#utility.yul\":19236:19367   */\n      tag_915\n        /* \"#utility.yul\":19362:19366   */\n      dup2\n        /* \"#utility.yul\":19236:19367   */\n      tag_691\n      jump\t// in\n    tag_915:\n        /* \"#utility.yul\":19228:19367   */\n      swap1\n      pop\n        /* \"#utility.yul\":18955:19374   */\n      swap2\n      swap1\n      pop\n      jump\t// out\n        /* \"#utility.yul\":19380:19712   */\n    tag_422:\n        /* \"#utility.yul\":19501:19505   */\n      0x00\n        /* \"#utility.yul\":19539:19541   */\n      0x40\n        /* \"#utility.yul\":19528:19537   */\n      dup3\n        /* \"#utility.yul\":19524:19542   */\n      add\n        /* \"#utility.yul\":19516:19542   */\n      swap1\n      pop\n        /* \"#utility.yul\":19552:19623   */\n      tag_917\n        /* \"#utility.yul\":19620:19621   */\n      0x00\n        /* \"#utility.yul\":19609:19618   */\n      dup4\n        /* \"#utility.yul\":19605:19622   */\n      add\n        /* \"#utility.yul\":19596:19602   */\n      dup6\n        /* \"#utility.yul\":19552:19623   */\n      tag_642\n      jump\t// in\n    tag_917:\n        /* \"#utility.yul\":19633:19705   */\n      tag_918\n        /* \"#utility.yul\":19701:19703   */\n      0x20\n        /* \"#utility.yul\":19690:19699   */\n      dup4\n        /* \"#utility.yul\":19686:19704   */\n      add\n        /* \"#utility.yul\":19677:19683   */\n      dup5\n        /* \"#utility.yul\":19633:19705   */\n      tag_642\n      jump\t// in\n    tag_918:\n        /* \"#utility.yul\":19380:19712   */\n      swap4\n      swap3\n      pop\n      pop\n      pop\n      jump\t// out\n        /* \"#utility.yul\":19718:19803   */\n    tag_692:\n        /* \"#utility.yul\":19763:19770   */\n      0x00\n        /* \"#utility.yul\":19792:19797   */\n      dup2\n        /* \"#utility.yul\":19781:19797   */\n      swap1\n      pop\n        /* \"#utility.yul\":19718:19803   */\n      swap2\n      swap1\n      pop\n      jump\t// out\n        /* \"#utility.yul\":19809:19910   */\n    tag_693:\n        /* \"#utility.yul\":19845:19852   */\n      0x00\n        /* \"#utility.yul\":19885:19903   */\n      0xffffffffffffffff\n        /* \"#utility.yul\":19878:19883   */\n      dup3\n        /* \"#utility.yul\":19874:19904   */\n      and\n        /* \"#utility.yul\":19863:19904   */\n      swap1\n      pop\n        /* \"#utility.yul\":19809:19910   */\n      swap2\n      swap1\n      pop\n      jump\t// out\n        /* \"#utility.yul\":19916:20072   */\n    tag_694:\n        /* \"#utility.yul\":19973:19982   */\n      0x00\n        /* \"#utility.yul\":20006:20066   */\n      tag_922\n        /* \"#utility.yul\":20023:20065   */\n      tag_923\n        /* \"#utility.yul\":20032:20064   */\n      tag_924\n        /* \"#utility.yul\":20058:20063   */\n      dup5\n        /* \"#utility.yul\":20032:20064   */\n      tag_692\n      jump\t// in\n    tag_924:\n        /* \"#utility.yul\":20023:20065   */\n      tag_644\n      jump\t// in\n    tag_923:\n        /* \"#utility.yul\":20006:20066   */\n      tag_693\n      jump\t// in\n    tag_922:\n        /* \"#utility.yul\":19993:20066   */\n      swap1\n      pop\n        /* \"#utility.yul\":19916:20072   */\n      swap2\n      swap1\n      pop\n      jump\t// out\n        /* \"#utility.yul\":20078:20223   */\n    tag_695:\n        /* \"#utility.yul\":20172:20216   */\n      tag_926\n        /* \"#utility.yul\":20210:20215   */\n      dup2\n        /* \"#utility.yul\":20172:20216   */\n      tag_694\n      jump\t// in\n    tag_926:\n        /* \"#utility.yul\":20167:20170   */\n      dup3\n        /* \"#utility.yul\":20160:20217   */\n      mstore\n        /* \"#utility.yul\":20078:20223   */\n      pop\n      pop\n      jump\t// out\n        /* \"#utility.yul\":20229:20465   */\n    tag_453:\n        /* \"#utility.yul\":20329:20333   */\n      0x00\n        /* \"#utility.yul\":20367:20369   */\n      0x20\n        /* \"#utility.yul\":20356:20365   */\n      dup3\n        /* \"#utility.yul\":20352:20370   */\n      add\n        /* \"#utility.yul\":20344:20370   */\n      swap1\n      pop\n        /* \"#utility.yul\":20380:20458   */\n      tag_928\n        /* \"#utility.yul\":20455:20456   */\n      0x00\n        /* \"#utility.yul\":20444:20453   */\n      dup4\n        /* \"#utility.yul\":20440:20457   */\n      add\n        /* \"#utility.yul\":20431:20437   */\n      dup5\n        /* \"#utility.yul\":20380:20458   */\n      tag_695\n      jump\t// in\n    tag_928:\n        /* \"#utility.yul\":20229:20465   */\n      swap3\n      swap2\n      pop\n      pop\n      jump\t// out\n        /* \"#utility.yul\":20471:20803   */\n    tag_460:\n        /* \"#utility.yul\":20592:20596   */\n      0x00\n        /* \"#utility.yul\":20630:20632   */\n      0x40\n        /* \"#utility.yul\":20619:20628   */\n      dup3\n        /* \"#utility.yul\":20615:20633   */\n      add\n        /* \"#utility.yul\":20607:20633   */\n      swap1\n      pop\n        /* \"#utility.yul\":20643:20714   */\n      tag_930\n        /* \"#utility.yul\":20711:20712   */\n      0x00\n        /* \"#utility.yul\":20700:20709   */\n      dup4\n        /* \"#utility.yul\":20696:20713   */\n      add\n        /* \"#utility.yul\":20687:20693   */\n      dup6\n        /* \"#utility.yul\":20643:20714   */\n      tag_655\n      jump\t// in\n    tag_930:\n        /* \"#utility.yul\":20724:20796   */\n      tag_931\n        /* \"#utility.yul\":20792:20794   */\n      0x20\n        /* \"#utility.yul\":20781:20790   */\n      dup4\n        /* \"#utility.yul\":20777:20795   */\n      add\n        /* \"#utility.yul\":20768:20774   */\n      dup5\n        /* \"#utility.yul\":20724:20796   */\n      tag_655\n      jump\t// in\n    tag_931:\n        /* \"#utility.yul\":20471:20803   */\n      swap4\n      swap3\n      pop\n      pop\n      pop\n      jump\t// out\n        /* \"#utility.yul\":20809:21239   */\n    tag_472:\n        /* \"#utility.yul\":20952:20956   */\n      0x00\n        /* \"#utility.yul\":20990:20992   */\n      0x60\n        /* \"#utility.yul\":20979:20988   */\n      dup3\n        /* \"#utility.yul\":20975:20993   */\n      add\n        /* \"#utility.yul\":20967:20993   */\n      swap1\n      pop\n        /* \"#utility.yul\":21003:21074   */\n      tag_933\n        /* \"#utility.yul\":21071:21072   */\n      0x00\n        /* \"#utility.yul\":21060:21069   */\n      dup4\n        /* \"#utility.yul\":21056:21073   */\n      add\n        /* \"#utility.yul\":21047:21053   */\n      dup7\n        /* \"#utility.yul\":21003:21074   */\n      tag_655\n      jump\t// in\n    tag_933:\n        /* \"#utility.yul\":21084:21156   */\n      tag_934\n        /* \"#utility.yul\":21152:21154   */\n      0x20\n        /* \"#utility.yul\":21141:21150   */\n      dup4\n        /* \"#utility.yul\":21137:21155   */\n      add\n        /* \"#utility.yul\":21128:21134   */\n      dup6\n        /* \"#utility.yul\":21084:21156   */\n      tag_655\n      jump\t// in\n    tag_934:\n        /* \"#utility.yul\":21166:21232   */\n      tag_935\n        /* \"#utility.yul\":21228:21230   */\n      0x40\n        /* \"#utility.yul\":21217:21226   */\n      dup4\n        /* \"#utility.yul\":21213:21231   */\n      add\n        /* \"#utility.yul\":21204:21210   */\n      dup5\n        /* \"#utility.yul\":21166:21232   */\n      tag_657\n      jump\t// in\n    tag_935:\n        /* \"#utility.yul\":20809:21239   */\n      swap5\n      swap4\n      pop\n      pop\n      pop\n      pop\n      jump\t// out\n        /* \"#utility.yul\":21245:21412   */\n    tag_696:\n        /* \"#utility.yul\":21385:21404   */\n      0x6e6f7420656e6f75676820616d6f756e74000000000000000000000000000000\n        /* \"#utility.yul\":21381:21382   */\n      0x00\n        /* \"#utility.yul\":21373:21379   */\n      dup3\n        /* \"#utility.yul\":21369:21383   */\n      add\n        /* \"#utility.yul\":21362:21405   */\n      mstore\n        /* \"#utility.yul\":21245:21412   */\n      pop\n      jump\t// out\n        /* \"#utility.yul\":21418:21784   */\n    tag_697:\n        /* \"#utility.yul\":21560:21563   */\n      0x00\n        /* \"#utility.yul\":21581:21648   */\n      tag_938\n        /* \"#utility.yul\":21645:21647   */\n      0x11\n        /* \"#utility.yul\":21640:21643   */\n      dup4\n        /* \"#utility.yul\":21581:21648   */\n      tag_680\n      jump\t// in\n    tag_938:\n        /* \"#utility.yul\":21574:21648   */\n      swap2\n      pop\n        /* \"#utility.yul\":21657:21750   */\n      tag_939\n        /* \"#utility.yul\":21746:21749   */\n      dup3\n        /* \"#utility.yul\":21657:21750   */\n      tag_696\n      jump\t// in\n    tag_939:\n        /* \"#utility.yul\":21775:21777   */\n      0x20\n        /* \"#utility.yul\":21770:21773   */\n      dup3\n        /* \"#utility.yul\":21766:21778   */\n      add\n        /* \"#utility.yul\":21759:21778   */\n      swap1\n      pop\n        /* \"#utility.yul\":21418:21784   */\n      swap2\n      swap1\n      pop\n      jump\t// out\n        /* \"#utility.yul\":21790:22209   */\n    tag_481:\n        /* \"#utility.yul\":21956:21960   */\n      0x00\n        /* \"#utility.yul\":21994:21996   */\n      0x20\n        /* \"#utility.yul\":21983:21992   */\n      dup3\n        /* \"#utility.yul\":21979:21997   */\n      add\n        /* \"#utility.yul\":21971:21997   */\n      swap1\n      pop\n        /* \"#utility.yul\":22043:22052   */\n      dup2\n        /* \"#utility.yul\":22037:22041   */\n      dup2\n        /* \"#utility.yul\":22033:22053   */\n      sub\n        /* \"#utility.yul\":22029:22030   */\n      0x00\n        /* \"#utility.yul\":22018:22027   */\n      dup4\n        /* \"#utility.yul\":22014:22031   */\n      add\n        /* \"#utility.yul\":22007:22054   */\n      mstore\n        /* \"#utility.yul\":22071:22202   */\n      tag_941\n        /* \"#utility.yul\":22197:22201   */\n      dup2\n        /* \"#utility.yul\":22071:22202   */\n      tag_697\n      jump\t// in\n    tag_941:\n        /* \"#utility.yul\":22063:22202   */\n      swap1\n      pop\n        /* \"#utility.yul\":21790:22209   */\n      swap2\n      swap1\n      pop\n      jump\t// out\n        /* \"#utility.yul\":22215:22625   */\n    tag_487:\n        /* \"#utility.yul\":22255:22262   */\n      0x00\n        /* \"#utility.yul\":22278:22298   */\n      tag_943\n        /* \"#utility.yul\":22296:22297   */\n      dup3\n        /* \"#utility.yul\":22278:22298   */\n      tag_641\n      jump\t// in\n    tag_943:\n        /* \"#utility.yul\":22273:22298   */\n      swap2\n      pop\n        /* \"#utility.yul\":22312:22332   */\n      tag_944\n        /* \"#utility.yul\":22330:22331   */\n      dup4\n        /* \"#utility.yul\":22312:22332   */\n      tag_641\n      jump\t// in\n    tag_944:\n        /* \"#utility.yul\":22307:22332   */\n      swap3\n      pop\n        /* \"#utility.yul\":22367:22368   */\n      dup3\n        /* \"#utility.yul\":22364:22365   */\n      dup3\n        /* \"#utility.yul\":22360:22369   */\n      mul\n        /* \"#utility.yul\":22389:22419   */\n      tag_945\n        /* \"#utility.yul\":22407:22418   */\n      dup2\n        /* \"#utility.yul\":22389:22419   */\n      tag_641\n      jump\t// in\n    tag_945:\n        /* \"#utility.yul\":22378:22419   */\n      swap2\n      pop\n        /* \"#utility.yul\":22568:22569   */\n      dup3\n        /* \"#utility.yul\":22559:22566   */\n      dup3\n        /* \"#utility.yul\":22555:22570   */\n      div\n        /* \"#utility.yul\":22552:22553   */\n      dup5\n        /* \"#utility.yul\":22549:22571   */\n      eq\n        /* \"#utility.yul\":22529:22530   */\n      dup4\n        /* \"#utility.yul\":22522:22531   */\n      iszero\n        /* \"#utility.yul\":22502:22585   */\n      or\n        /* \"#utility.yul\":22479:22618   */\n      tag_946\n      jumpi\n        /* \"#utility.yul\":22598:22616   */\n      tag_947\n      tag_684\n      jump\t// in\n    tag_947:\n        /* \"#utility.yul\":22479:22618   */\n    tag_946:\n        /* \"#utility.yul\":22263:22625   */\n      pop\n        /* \"#utility.yul\":22215:22625   */\n      swap3\n      swap2\n      pop\n      pop\n      jump\t// out\n        /* \"#utility.yul\":22631:22811   */\n    tag_698:\n        /* \"#utility.yul\":22679:22756   */\n      0x4e487b7100000000000000000000000000000000000000000000000000000000\n        /* \"#utility.yul\":22676:22677   */\n      0x00\n        /* \"#utility.yul\":22669:22757   */\n      mstore\n        /* \"#utility.yul\":22776:22780   */\n      0x12\n        /* \"#utility.yul\":22773:22774   */\n      0x04\n        /* \"#utility.yul\":22766:22781   */\n      mstore\n        /* \"#utility.yul\":22800:22804   */\n      0x24\n        /* \"#utility.yul\":22797:22798   */\n      0x00\n        /* \"#utility.yul\":22790:22805   */\n      revert\n        /* \"#utility.yul\":22817:23002   */\n    tag_489:\n        /* \"#utility.yul\":22857:22858   */\n      0x00\n        /* \"#utility.yul\":22874:22894   */\n      tag_950\n        /* \"#utility.yul\":22892:22893   */\n      dup3\n        /* \"#utility.yul\":22874:22894   */\n      tag_641\n      jump\t// in\n    tag_950:\n        /* \"#utility.yul\":22869:22894   */\n      swap2\n      pop\n        /* \"#utility.yul\":22908:22928   */\n      tag_951\n        /* \"#utility.yul\":22926:22927   */\n      dup4\n        /* \"#utility.yul\":22908:22928   */\n      tag_641\n      jump\t// in\n    tag_951:\n        /* \"#utility.yul\":22903:22928   */\n      swap3\n      pop\n        /* \"#utility.yul\":22947:22948   */\n      dup3\n        /* \"#utility.yul\":22937:22972   */\n      tag_952\n      jumpi\n        /* \"#utility.yul\":22952:22970   */\n      tag_953\n      tag_698\n      jump\t// in\n    tag_953:\n        /* \"#utility.yul\":22937:22972   */\n    tag_952:\n        /* \"#utility.yul\":22994:22995   */\n      dup3\n        /* \"#utility.yul\":22991:22992   */\n      dup3\n        /* \"#utility.yul\":22987:22996   */\n      div\n        /* \"#utility.yul\":22982:22996   */\n      swap1\n      pop\n        /* \"#utility.yul\":22817:23002   */\n      swap3\n      swap2\n      pop\n      pop\n      jump\t// out\n        /* \"#utility.yul\":23008:23184   */\n    tag_699:\n        /* \"#utility.yul\":23148:23176   */\n      0x416d6f756e742069732067726561746572207468656e20353025000000000000\n        /* \"#utility.yul\":23144:23145   */\n      0x00\n        /* \"#utility.yul\":23136:23142   */\n      dup3\n        /* \"#utility.yul\":23132:23146   */\n      add\n        /* \"#utility.yul\":23125:23177   */\n      mstore\n        /* \"#utility.yul\":23008:23184   */\n      pop\n      jump\t// out\n        /* \"#utility.yul\":23190:23556   */\n    tag_700:\n        /* \"#utility.yul\":23332:23335   */\n      0x00\n        /* \"#utility.yul\":23353:23420   */\n      tag_956\n        /* \"#utility.yul\":23417:23419   */\n      0x1a\n        /* \"#utility.yul\":23412:23415   */\n      dup4\n        /* \"#utility.yul\":23353:23420   */\n      tag_680\n      jump\t// in\n    tag_956:\n        /* \"#utility.yul\":23346:23420   */\n      swap2\n      pop\n        /* \"#utility.yul\":23429:23522   */\n      tag_957\n        /* \"#utility.yul\":23518:23521   */\n      dup3\n        /* \"#utility.yul\":23429:23522   */\n      tag_699\n      jump\t// in\n    tag_957:\n        /* \"#utility.yul\":23547:23549   */\n      0x20\n        /* \"#utility.yul\":23542:23545   */\n      dup3\n        /* \"#utility.yul\":23538:23550   */\n      add\n        /* \"#utility.yul\":23531:23550   */\n      swap1\n      pop\n        /* \"#utility.yul\":23190:23556   */\n      swap2\n      swap1\n      pop\n      jump\t// out\n        /* \"#utility.yul\":23562:23981   */\n    tag_499:\n        /* \"#utility.yul\":23728:23732   */\n      0x00\n        /* \"#utility.yul\":23766:23768   */\n      0x20\n        /* \"#utility.yul\":23755:23764   */\n      dup3\n        /* \"#utility.yul\":23751:23769   */\n      add\n        /* \"#utility.yul\":23743:23769   */\n      swap1\n      pop\n        /* \"#utility.yul\":23815:23824   */\n      dup2\n        /* \"#utility.yul\":23809:23813   */\n      dup2\n        /* \"#utility.yul\":23805:23825   */\n      sub\n        /* \"#utility.yul\":23801:23802   */\n      0x00\n        /* \"#utility.yul\":23790:23799   */\n      dup4\n        /* \"#utility.yul\":23786:23803   */\n      add\n        /* \"#utility.yul\":23779:23826   */\n      mstore\n        /* \"#utility.yul\":23843:23974   */\n      tag_959\n        /* \"#utility.yul\":23969:23973   */\n      dup2\n        /* \"#utility.yul\":23843:23974   */\n      tag_700\n      jump\t// in\n    tag_959:\n        /* \"#utility.yul\":23835:23974   */\n      swap1\n      pop\n        /* \"#utility.yul\":23562:23981   */\n      swap2\n      swap1\n      pop\n      jump\t// out\n        /* \"#utility.yul\":23987:24109   */\n    tag_701:\n        /* \"#utility.yul\":24060:24084   */\n      tag_961\n        /* \"#utility.yul\":24078:24083   */\n      dup2\n        /* \"#utility.yul\":24060:24084   */\n      tag_673\n      jump\t// in\n    tag_961:\n        /* \"#utility.yul\":24053:24058   */\n      dup2\n        /* \"#utility.yul\":24050:24085   */\n      eq\n        /* \"#utility.yul\":24040:24103   */\n      tag_962\n      jumpi\n        /* \"#utility.yul\":24099:24100   */\n      0x00\n        /* \"#utility.yul\":24096:24097   */\n      dup1\n        /* \"#utility.yul\":24089:24101   */\n      revert\n        /* \"#utility.yul\":24040:24103   */\n    tag_962:\n        /* \"#utility.yul\":23987:24109   */\n      pop\n      jump\t// out\n        /* \"#utility.yul\":24115:24258   */\n    tag_702:\n        /* \"#utility.yul\":24172:24177   */\n      0x00\n        /* \"#utility.yul\":24203:24209   */\n      dup2\n        /* \"#utility.yul\":24197:24210   */\n      mload\n        /* \"#utility.yul\":24188:24210   */\n      swap1\n      pop\n        /* \"#utility.yul\":24219:24252   */\n      tag_964\n        /* \"#utility.yul\":24246:24251   */\n      dup2\n        /* \"#utility.yul\":24219:24252   */\n      tag_701\n      jump\t// in\n    tag_964:\n        /* \"#utility.yul\":24115:24258   */\n      swap3\n      swap2\n      pop\n      pop\n      jump\t// out\n        /* \"#utility.yul\":24264:24615   */\n    tag_531:\n        /* \"#utility.yul\":24334:24340   */\n      0x00\n        /* \"#utility.yul\":24383:24385   */\n      0x20\n        /* \"#utility.yul\":24371:24380   */\n      dup3\n        /* \"#utility.yul\":24362:24369   */\n      dup5\n        /* \"#utility.yul\":24358:24381   */\n      sub\n        /* \"#utility.yul\":24354:24386   */\n      slt\n        /* \"#utility.yul\":24351:24470   */\n      iszero\n      tag_966\n      jumpi\n        /* \"#utility.yul\":24389:24468   */\n      tag_967\n      tag_650\n      jump\t// in\n    tag_967:\n        /* \"#utility.yul\":24351:24470   */\n    tag_966:\n        /* \"#utility.yul\":24509:24510   */\n      0x00\n        /* \"#utility.yul\":24534:24598   */\n      tag_968\n        /* \"#utility.yul\":24590:24597   */\n      dup5\n        /* \"#utility.yul\":24581:24587   */\n      dup3\n        /* \"#utility.yul\":24570:24579   */\n      dup6\n        /* \"#utility.yul\":24566:24588   */\n      add\n        /* \"#utility.yul\":24534:24598   */\n      tag_702\n      jump\t// in\n    tag_968:\n        /* \"#utility.yul\":24524:24598   */\n      swap2\n      pop\n        /* \"#utility.yul\":24480:24608   */\n      pop\n        /* \"#utility.yul\":24264:24615   */\n      swap3\n      swap2\n      pop\n      pop\n      jump\t// out\n        /* \"#utility.yul\":24621:24780   */\n    tag_703:\n        /* \"#utility.yul\":24761:24772   */\n      0x6e6f207573657273210000000000000000000000000000000000000000000000\n        /* \"#utility.yul\":24757:24758   */\n      0x00\n        /* \"#utility.yul\":24749:24755   */\n      dup3\n        /* \"#utility.yul\":24745:24759   */\n      add\n        /* \"#utility.yul\":24738:24773   */\n      mstore\n        /* \"#utility.yul\":24621:24780   */\n      pop\n      jump\t// out\n        /* \"#utility.yul\":24786:25151   */\n    tag_704:\n        /* \"#utility.yul\":24928:24931   */\n      0x00\n        /* \"#utility.yul\":24949:25015   */\n      tag_971\n        /* \"#utility.yul\":25013:25014   */\n      0x09\n        /* \"#utility.yul\":25008:25011   */\n      dup4\n        /* \"#utility.yul\":24949:25015   */\n      tag_680\n      jump\t// in\n    tag_971:\n        /* \"#utility.yul\":24942:25015   */\n      swap2\n      pop\n        /* \"#utility.yul\":25024:25117   */\n      tag_972\n        /* \"#utility.yul\":25113:25116   */\n      dup3\n        /* \"#utility.yul\":25024:25117   */\n      tag_703\n      jump\t// in\n    tag_972:\n        /* \"#utility.yul\":25142:25144   */\n      0x20\n        /* \"#utility.yul\":25137:25140   */\n      dup3\n        /* \"#utility.yul\":25133:25145   */\n      add\n        /* \"#utility.yul\":25126:25145   */\n      swap1\n      pop\n        /* \"#utility.yul\":24786:25151   */\n      swap2\n      swap1\n      pop\n      jump\t// out\n        /* \"#utility.yul\":25157:25576   */\n    tag_571:\n        /* \"#utility.yul\":25323:25327   */\n      0x00\n        /* \"#utility.yul\":25361:25363   */\n      0x20\n        /* \"#utility.yul\":25350:25359   */\n      dup3\n        /* \"#utility.yul\":25346:25364   */\n      add\n        /* \"#utility.yul\":25338:25364   */\n      swap1\n      pop\n        /* \"#utility.yul\":25410:25419   */\n      dup2\n        /* \"#utility.yul\":25404:25408   */\n      dup2\n        /* \"#utility.yul\":25400:25420   */\n      sub\n        /* \"#utility.yul\":25396:25397   */\n      0x00\n        /* \"#utility.yul\":25385:25394   */\n      dup4\n        /* \"#utility.yul\":25381:25398   */\n      add\n        /* \"#utility.yul\":25374:25421   */\n      mstore\n        /* \"#utility.yul\":25438:25569   */\n      tag_974\n        /* \"#utility.yul\":25564:25568   */\n      dup2\n        /* \"#utility.yul\":25438:25569   */\n      tag_704\n      jump\t// in\n    tag_974:\n        /* \"#utility.yul\":25430:25569   */\n      swap1\n      pop\n        /* \"#utility.yul\":25157:25576   */\n      swap2\n      swap1\n      pop\n      jump\t// out\n        /* \"#utility.yul\":25582:25802   */\n    tag_705:\n        /* \"#utility.yul\":25722:25756   */\n      0x5f746f74616c5374616b65416d6f756e742063616e206e6f74206265207a6572\n        /* \"#utility.yul\":25718:25719   */\n      0x00\n        /* \"#utility.yul\":25710:25716   */\n      dup3\n        /* \"#utility.yul\":25706:25720   */\n      add\n        /* \"#utility.yul\":25699:25757   */\n      mstore\n        /* \"#utility.yul\":25791:25794   */\n      0x6f00000000000000000000000000000000000000000000000000000000000000\n        /* \"#utility.yul\":25786:25788   */\n      0x20\n        /* \"#utility.yul\":25778:25784   */\n      dup3\n        /* \"#utility.yul\":25774:25789   */\n      add\n        /* \"#utility.yul\":25767:25795   */\n      mstore\n        /* \"#utility.yul\":25582:25802   */\n      pop\n      jump\t// out\n        /* \"#utility.yul\":25808:26174   */\n    tag_706:\n        /* \"#utility.yul\":25950:25953   */\n      0x00\n        /* \"#utility.yul\":25971:26038   */\n      tag_977\n        /* \"#utility.yul\":26035:26037   */\n      0x21\n        /* \"#utility.yul\":26030:26033   */\n      dup4\n        /* \"#utility.yul\":25971:26038   */\n      tag_680\n      jump\t// in\n    tag_977:\n        /* \"#utility.yul\":25964:26038   */\n      swap2\n      pop\n        /* \"#utility.yul\":26047:26140   */\n      tag_978\n        /* \"#utility.yul\":26136:26139   */\n      dup3\n        /* \"#utility.yul\":26047:26140   */\n      tag_705\n      jump\t// in\n    tag_978:\n        /* \"#utility.yul\":26165:26167   */\n      0x40\n        /* \"#utility.yul\":26160:26163   */\n      dup3\n        /* \"#utility.yul\":26156:26168   */\n      add\n        /* \"#utility.yul\":26149:26168   */\n      swap1\n      pop\n        /* \"#utility.yul\":25808:26174   */\n      swap2\n      swap1\n      pop\n      jump\t// out\n        /* \"#utility.yul\":26180:26599   */\n    tag_585:\n        /* \"#utility.yul\":26346:26350   */\n      0x00\n        /* \"#utility.yul\":26384:26386   */\n      0x20\n        /* \"#utility.yul\":26373:26382   */\n      dup3\n        /* \"#utility.yul\":26369:26387   */\n      add\n        /* \"#utility.yul\":26361:26387   */\n      swap1\n      pop\n        /* \"#utility.yul\":26433:26442   */\n      dup2\n        /* \"#utility.yul\":26427:26431   */\n      dup2\n        /* \"#utility.yul\":26423:26443   */\n      sub\n        /* \"#utility.yul\":26419:26420   */\n      0x00\n        /* \"#utility.yul\":26408:26417   */\n      dup4\n        /* \"#utility.yul\":26404:26421   */\n      add\n        /* \"#utility.yul\":26397:26444   */\n      mstore\n        /* \"#utility.yul\":26461:26592   */\n      tag_980\n        /* \"#utility.yul\":26587:26591   */\n      dup2\n        /* \"#utility.yul\":26461:26592   */\n      tag_706\n      jump\t// in\n    tag_980:\n        /* \"#utility.yul\":26453:26592   */\n      swap1\n      pop\n        /* \"#utility.yul\":26180:26599   */\n      swap2\n      swap1\n      pop\n      jump\t// out\n        /* \"#utility.yul\":26605:26752   */\n    tag_707:\n        /* \"#utility.yul\":26706:26717   */\n      0x00\n        /* \"#utility.yul\":26743:26746   */\n      dup2\n        /* \"#utility.yul\":26728:26746   */\n      swap1\n      pop\n        /* \"#utility.yul\":26605:26752   */\n      swap3\n      swap2\n      pop\n      pop\n      jump\t// out\n        /* \"#utility.yul\":26758:27144   */\n    tag_708:\n        /* \"#utility.yul\":26862:26865   */\n      0x00\n        /* \"#utility.yul\":26890:26928   */\n      tag_983\n        /* \"#utility.yul\":26922:26927   */\n      dup3\n        /* \"#utility.yul\":26890:26928   */\n      tag_675\n      jump\t// in\n    tag_983:\n        /* \"#utility.yul\":26944:27032   */\n      tag_984\n        /* \"#utility.yul\":27025:27031   */\n      dup2\n        /* \"#utility.yul\":27020:27023   */\n      dup6\n        /* \"#utility.yul\":26944:27032   */\n      tag_707\n      jump\t// in\n    tag_984:\n        /* \"#utility.yul\":26937:27032   */\n      swap4\n      pop\n        /* \"#utility.yul\":27041:27106   */\n      tag_985\n        /* \"#utility.yul\":27099:27105   */\n      dup2\n        /* \"#utility.yul\":27094:27097   */\n      dup6\n        /* \"#utility.yul\":27087:27091   */\n      0x20\n        /* \"#utility.yul\":27080:27085   */\n      dup7\n        /* \"#utility.yul\":27076:27092   */\n      add\n        /* \"#utility.yul\":27041:27106   */\n      tag_677\n      jump\t// in\n    tag_985:\n        /* \"#utility.yul\":27131:27137   */\n      dup1\n        /* \"#utility.yul\":27126:27129   */\n      dup5\n        /* \"#utility.yul\":27122:27138   */\n      add\n        /* \"#utility.yul\":27115:27138   */\n      swap2\n      pop\n        /* \"#utility.yul\":26866:27144   */\n      pop\n        /* \"#utility.yul\":26758:27144   */\n      swap3\n      swap2\n      pop\n      pop\n      jump\t// out\n        /* \"#utility.yul\":27150:27421   */\n    tag_620:\n        /* \"#utility.yul\":27280:27283   */\n      0x00\n        /* \"#utility.yul\":27302:27395   */\n      tag_987\n        /* \"#utility.yul\":27391:27394   */\n      dup3\n        /* \"#utility.yul\":27382:27388   */\n      dup5\n        /* \"#utility.yul\":27302:27395   */\n      tag_708\n      jump\t// in\n    tag_987:\n        /* \"#utility.yul\":27295:27395   */\n      swap2\n      pop\n        /* \"#utility.yul\":27412:27415   */\n      dup2\n        /* \"#utility.yul\":27405:27415   */\n      swap1\n      pop\n        /* \"#utility.yul\":27150:27421   */\n      swap3\n      swap2\n      pop\n      pop\n      jump\t// out\n\n    auxdata: 0xa26469706673582212203bb5a55ee25e33ab801f5e8335131189c38a231142bd49a58536833a53ed7e9064736f6c634300081a0033\n}\n",
				"bytecode": {
					"linkReferences": {},
					"object": "60a06040523073ffffffffffffffffffffffffffffffffffffffff1660809073ffffffffffffffffffffffffffffffffffffffff16815250348015610042575f80fd5b5061005161005660201b60201c565b6101b6565b5f61006561015460201b60201c565b9050805f0160089054906101000a900460ff16156100af576040517ff92ee8a900000000000000000000000000000000000000000000000000000000815260040160405180910390fd5b67ffffffffffffffff8016815f015f9054906101000a900467ffffffffffffffff1667ffffffffffffffff16146101515767ffffffffffffffff815f015f6101000a81548167ffffffffffffffff021916908367ffffffffffffffff1602179055507fc7f505b2f371ae2175ee4913f4499e1f2633a7b5936321eed1cdaeb6115181d267ffffffffffffffff604051610148919061019d565b60405180910390a15b50565b5f7ff0c57e16840df040f15088dc2f81fe391c3923bec73e23a9662efc9c229c6a00905090565b5f67ffffffffffffffff82169050919050565b6101978161017b565b82525050565b5f6020820190506101b05f83018461018e565b92915050565b6080516145cd6101dc5f395f8181612cd701528181612d2c0152612ee601526145cd5ff3fe608060405260043610610287575f3560e01c80637547c7a311610159578063b47ff951116100c0578063d777cc6d11610079578063d777cc6d14610941578063d9b998b414610969578063e9c68e2c14610991578063ed061067146109a7578063f2fde38b146109cf578063ff3d65d9146109f757610287565b8063b47ff95114610820578063b9dac1eb1461084a578063bccbc36c14610872578063c0c53b8b146108b3578063c7fd5bf0146108db578063ce356a241461091757610287565b80638da5cb5b116101125780638da5cb5b14610714578063947a36fb1461073e5780639c361e4e14610768578063a4f67b8b14610792578063ad3cb1cc146107ce578063ad8e5ec4146107f857610287565b80637547c7a31461062457806378fd078d1461064c5780637f111e60146106745780637f70c5e71461069c5780637ffe4d93146106c457806385f45250146106ec57610287565b806344490ff4116101fd578063567e98f9116101b6578063567e98f9146105415780635f17e6161461056b5780636626b26d1461059357806367976974146105a95780636e04ff0d146105d1578063715018a61461060e57610287565b806344490ff4146104575780634585e33b146104815780634f1ef286146104a95780635256dbbf146104c557806352d1902d146104ed5780635462870d1461051757610287565b806330cac9721161024f57806330cac9721461035b57806330e3f8f81461038557806333244c2c146103af57806339518b5e146103d95780633a71a9e4146104035780633f3b3b271461042d57610287565b806301934a831461028b57806311eac855146102b5578063188e07b9146102df5780632765df7a146103095780633070fbf814610331575b5f80fd5b348015610296575f80fd5b5061029f610a33565b6040516102ac91906137d2565b60405180910390f35b3480156102c0575f80fd5b506102c9610a39565b6040516102d69190613865565b60405180910390f35b3480156102ea575f80fd5b506102f3610a5c565b60405161030091906137d2565b60405180910390f35b348015610314575f80fd5b5061032f600480360381019061032a91906138b9565b610a62565b005b34801561033c575f80fd5b50610345610b2a565b6040516103529190613904565b60405180910390f35b348015610366575f80fd5b5061036f610b4f565b60405161037c91906137d2565b60405180910390f35b348015610390575f80fd5b50610399610b55565b6040516103a69190613937565b60405180910390f35b3480156103ba575f80fd5b506103c3610b68565b6040516103d091906137d2565b60405180910390f35b3480156103e4575f80fd5b506103ed610b6e565b6040516103fa91906137d2565b60405180910390f35b34801561040e575f80fd5b50610417610b74565b60405161042491906137d2565b60405180910390f35b348015610438575f80fd5b50610441610b7a565b60405161044e91906137d2565b60405180910390f35b348015610462575f80fd5b5061046b610b80565b60405161047891906137d2565b60405180910390f35b34801561048c575f80fd5b506104a760048036038101906104a291906139b1565b610b86565b005b6104c360048036038101906104be9190613b5e565b610d1f565b005b3480156104d0575f80fd5b506104eb60048036038101906104e691906138b9565b610d3e565b005b3480156104f8575f80fd5b50610501610ec1565b60405161050e9190613bd0565b60405180910390f35b348015610522575f80fd5b5061052b610ef2565b6040516105389190613904565b60405180910390f35b34801561054c575f80fd5b50610555610f17565b60405161056291906137d2565b60405180910390f35b348015610576575f80fd5b50610591600480360381019061058c9190613be9565b610f1d565b005b34801561059e575f80fd5b506105a7611018565b005b3480156105b4575f80fd5b506105cf60048036038101906105ca91906138b9565b61107e565b005b3480156105dc575f80fd5b506105f760048036038101906105f291906139b1565b611393565b604051610605929190613c87565b60405180910390f35b348015610619575f80fd5b506106226113c7565b005b34801561062f575f80fd5b5061064a600480360381019061064591906138b9565b6113da565b005b348015610657575f80fd5b50610672600480360381019061066d91906138b9565b6117d4565b005b34801561067f575f80fd5b5061069a600480360381019061069591906138b9565b611957565b005b3480156106a7575f80fd5b506106c260048036038101906106bd91906138b9565b6119e8565b005b3480156106cf575f80fd5b506106ea60048036038101906106e591906138b9565b611a79565b005b3480156106f7575f80fd5b50610712600480360381019061070d9190613be9565b611d34565b005b34801561071f575f80fd5b50610728611efa565b6040516107359190613904565b60405180910390f35b348015610749575f80fd5b50610752611f2f565b60405161075f91906137d2565b60405180910390f35b348015610773575f80fd5b5061077c611f35565b60405161078991906137d2565b60405180910390f35b34801561079d575f80fd5b506107b860048036038101906107b391906138b9565b611f3b565b6040516107c59190613904565b60405180910390f35b3480156107d9575f80fd5b506107e2611f6b565b6040516107ef9190613d07565b60405180910390f35b348015610803575f80fd5b5061081e600480360381019061081991906138b9565b611fa4565b005b34801561082b575f80fd5b50610834612035565b60405161084191906137d2565b60405180910390f35b348015610855575f80fd5b50610870600480360381019061086b91906138b9565b61203b565b005b34801561087d575f80fd5b5061089860048036038101906108939190613d27565b6120cc565b6040516108aa96959493929190613d52565b60405180910390f35b3480156108be575f80fd5b506108d960048036038101906108d49190613db1565b612110565b005b3480156108e6575f80fd5b5061090160048036038101906108fc9190613d27565b61233e565b60405161090e9190613937565b60405180910390f35b348015610922575f80fd5b5061092b61235b565b60405161093891906137d2565b60405180910390f35b34801561094c575f80fd5b5061096760048036038101906109629190613d27565b612361565b005b348015610974575f80fd5b5061098f600480360381019061098a9190613e2b565b612476565b005b34801561099c575f80fd5b506109a5612692565b005b3480156109b2575f80fd5b506109cd60048036038101906109c89190613be9565b612b05565b005b3480156109da575f80fd5b506109f560048036038101906109f09190613d27565b612bb5565b005b348015610a02575f80fd5b50610a1d6004803603810190610a1891906138b9565b612c39565b604051610a2a91906137d2565b60405180910390f35b60085481565b5f8054906101000a900473ffffffffffffffffffffffffffffffffffffffff1681565b60015481565b610a6a612c4e565b5f8111610aae57806040517fcdbc6335000000000000000000000000000000000000000000000000000000008152600401610aa591906137d2565b60405180910390fd5b8060125f600f5481526020019081526020015f2081905550600f5f815480929190610ad890613e96565b91905055507fe1976e16ed8ce8e740235978fbe69b27d5eea683b2e017bb0bd2fabb33294b3f600f5482612710610b0f9190613edd565b83604051610b1f93929190613f10565b60405180910390a150565b600e5f9054906101000a900473ffffffffffffffffffffffffffffffffffffffff1681565b600b5481565b600960149054906101000a900460ff1681565b60045481565b600c5481565b60075481565b600d5481565b60055481565b600e5f9054906101000a900473ffffffffffffffffffffffffffffffffffffffff1673ffffffffffffffffffffffffffffffffffffffff163373ffffffffffffffffffffffffffffffffffffffff1614610c15576040517f08c379a0000000000000000000000000000000000000000000000000000000008152600401610c0c90613fb5565b60405180910390fd5b5f600a5403610c5d57600a546040517f71540007000000000000000000000000000000000000000000000000000000008152600401610c5491906137d2565b60405180910390fd5b600960149054906101000a900460ff16610cdb57600c544210610c975742600d81905550610c89612692565b600b54600a81905550610cd6565b600c546040517f54593e75000000000000000000000000000000000000000000000000000000008152600401610ccd91906137d2565b60405180910390fd5b610ceb565b42600d81905550610cea612692565b5b600960149054906101000a900460ff16610d1b576001600960146101000a81548160ff0219169083151502179055505b5050565b610d27612cd5565b610d3082612dbb565b610d3a8282612dc6565b5050565b610d46612c4e565b5f8111610d8a57806040517f2ff47830000000000000000000000000000000000000000000000000000000008152600401610d8191906137d2565b60405180910390fd5b8060015f828254610d9b9190613fd3565b925050819055505f805f9054906101000a900473ffffffffffffffffffffffffffffffffffffffff1673ffffffffffffffffffffffffffffffffffffffff166323b872dd3330856040518463ffffffff1660e01b8152600401610e0093929190614006565b6020604051808303815f875af1158015610e1c573d5f803e3d5ffd5b505050506040513d601f19601f82011682018060405250810190610e40919061404f565b905080610e8457806040517fd85d3cef000000000000000000000000000000000000000000000000000000008152600401610e7b9190613937565b60405180910390fd5b7fa9f166643ec132a11638e74e3c3a78d4ae278fcbf92998240e0e97676f54e404600154604051610eb591906137d2565b60405180910390a15050565b5f610eca612ee4565b7f360894a13ba1a3210667c828492db98dca3e2076cc3735a920a3ca505d382bbc5f1b905090565b60095f9054906101000a900473ffffffffffffffffffffffffffffffffffffffff1681565b60035481565b610f25612c4e565b5f8111610f6957806040517f71540007000000000000000000000000000000000000000000000000000000008152600401610f6091906137d2565b60405180910390fd5b42821015610fae57816040517f54593e75000000000000000000000000000000000000000000000000000000008152600401610fa591906137d2565b60405180910390fd5b4282610fba9190613edd565b600a8190555081600c8190555042600d8190555080600b819055507f2b5090e035d3026f5448298c9adc68db8bbc1b26a8af5c81b2b2a9fc07ca4a0033600a54600d5460405161100c9392919061407a565b60405180910390a15050565b611020612c4e565b5f600a819055505f600960146101000a81548160ff0219169083151502179055507f3b68dc4e210c46d3622293f2b941cdfde795bb6e17286bb289ba05a6a3b5541f33600a546040516110749291906140af565b60405180910390a1565b600960159054906101000a900460ff16156110ce576040517f08c379a00000000000000000000000000000000000000000000000000000000081526004016110c590614120565b60405180910390fd5b6001600960156101000a81548160ff0219169083151502179055505f811161112d57806040517f2ff4783000000000000000000000000000000000000000000000000000000000815260040161112491906137d2565b60405180910390fd5b60135f3373ffffffffffffffffffffffffffffffffffffffff1673ffffffffffffffffffffffffffffffffffffffff1681526020019081526020015f20600101548111156111b0576040517f08c379a00000000000000000000000000000000000000000000000000000000081526004016111a790614188565b60405180910390fd5b8060135f3373ffffffffffffffffffffffffffffffffffffffff1673ffffffffffffffffffffffffffffffffffffffff1681526020019081526020015f206001015f8282546111ff9190613edd565b925050819055508060135f3373ffffffffffffffffffffffffffffffffffffffff1673ffffffffffffffffffffffffffffffffffffffff1681526020019081526020015f206002015f8282546112559190613fd3565b925050819055505f805f9054906101000a900473ffffffffffffffffffffffffffffffffffffffff1673ffffffffffffffffffffffffffffffffffffffff1663a9059cbb33846040518363ffffffff1660e01b81526004016112b89291906140af565b6020604051808303815f875af11580156112d4573d5f803e3d5ffd5b505050506040513d601f19601f820116820180604052508101906112f8919061404f565b90508061133c57806040517fd85d3cef0000000000000000000000000000000000000000000000000000000081526004016113339190613937565b60405180910390fd5b7f884edad9ce6fa2440d8a54cc123490eb96d2768479d49ff9c7366125a9424364338360405161136d9291906140af565b60405180910390a1505f600960156101000a81548160ff02191690831515021790555050565b5f60605f600a54600d54426113a89190613edd565b1190508060405180602001604052805f81525092509250509250929050565b6113cf612c4e565b6113d85f612f6b565b565b5f811161141e57806040517f2ff4783000000000000000000000000000000000000000000000000000000000815260040161141591906137d2565b60405180910390fd5b60135f3373ffffffffffffffffffffffffffffffffffffffff1673ffffffffffffffffffffffffffffffffffffffff1681526020019081526020015f205f015f9054906101000a900460ff16156114f75760135f3373ffffffffffffffffffffffffffffffffffffffff1673ffffffffffffffffffffffffffffffffffffffff1681526020019081526020015f205f015f9054906101000a900460ff166040517f6fa5c3c00000000000000000000000000000000000000000000000000000000081526004016114ee9190613937565b60405180910390fd5b8060135f3373ffffffffffffffffffffffffffffffffffffffff1673ffffffffffffffffffffffffffffffffffffffff1681526020019081526020015f206005015f8282546115469190613fd3565b9250508190555060105f3373ffffffffffffffffffffffffffffffffffffffff1673ffffffffffffffffffffffffffffffffffffffff1681526020019081526020015f205f9054906101000a900460ff16611659573360115f60085481526020019081526020015f205f6101000a81548173ffffffffffffffffffffffffffffffffffffffff021916908373ffffffffffffffffffffffffffffffffffffffff160217905550600160105f3373ffffffffffffffffffffffffffffffffffffffff1673ffffffffffffffffffffffffffffffffffffffff1681526020019081526020015f205f6101000a81548160ff02191690831515021790555060085f81548092919061165390613e96565b91905055505b8060035f82825461166a9190613fd3565b925050819055505f805f9054906101000a900473ffffffffffffffffffffffffffffffffffffffff1673ffffffffffffffffffffffffffffffffffffffff166323b872dd3360095f9054906101000a900473ffffffffffffffffffffffffffffffffffffffff16856040518463ffffffff1660e01b81526004016116f093929190614006565b6020604051808303815f875af115801561170c573d5f803e3d5ffd5b505050506040513d601f19601f82011682018060405250810190611730919061404f565b90508061177457806040517fd85d3cef00000000000000000000000000000000000000000000000000000000815260040161176b9190613937565b60405180910390fd5b7f14ee34c24635186d212f515353dadae9c226529edef2d1fcf5504cb33b5c25ab3360095f9054906101000a900473ffffffffffffffffffffffffffffffffffffffff16846040516117c893929190614006565b60405180910390a15050565b6117dc612c4e565b5f811161182057806040517f2ff4783000000000000000000000000000000000000000000000000000000000815260040161181791906137d2565b60405180910390fd5b8060025f8282546118319190613fd3565b925050819055505f805f9054906101000a900473ffffffffffffffffffffffffffffffffffffffff1673ffffffffffffffffffffffffffffffffffffffff166323b872dd3330856040518463ffffffff1660e01b815260040161189693929190614006565b6020604051808303815f875af11580156118b2573d5f803e3d5ffd5b505050506040513d601f19601f820116820180604052508101906118d6919061404f565b90508061191a57806040517fd85d3cef0000000000000000000000000000000000000000000000000000000081526004016119119190613937565b60405180910390fd5b7f73834e1d1ee73ba659470a3603b888903853d3a3c9fda34e71c093a0e35cab9460025460405161194b91906137d2565b60405180910390a15050565b61195f612c4e565b5f81116119a357806040517fcdbc633500000000000000000000000000000000000000000000000000000000815260040161199a91906137d2565b60405180910390fd5b806007819055507fb5671393c7c6980552e50a31e778921eb17d764c2e98fbf4d44fff524712def9336007546040516119dd9291906140af565b60405180910390a150565b6119f0612c4e565b5f8111611a3457806040517fcdbc6335000000000000000000000000000000000000000000000000000000008152600401611a2b91906137d2565b60405180910390fd5b806004819055507fb5671393c7c6980552e50a31e778921eb17d764c2e98fbf4d44fff524712def933600454604051611a6e9291906140af565b60405180910390a150565b5f8111611abd57806040517f2ff47830000000000000000000000000000000000000000000000000000000008152600401611ab491906137d2565b60405180910390fd5b60135f3373ffffffffffffffffffffffffffffffffffffffff1673ffffffffffffffffffffffffffffffffffffffff1681526020019081526020015f205f015f9054906101000a900460ff1615611b965760135f3373ffffffffffffffffffffffffffffffffffffffff1673ffffffffffffffffffffffffffffffffffffffff1681526020019081526020015f205f015f9054906101000a900460ff166040517f6fa5c3c0000000000000000000000000000000000000000000000000000000008152600401611b8d9190613937565b60405180910390fd5b8060135f3373ffffffffffffffffffffffffffffffffffffffff1673ffffffffffffffffffffffffffffffffffffffff1681526020019081526020015f206001015411611c1a57806040517f31b6e358000000000000000000000000000000000000000000000000000000008152600401611c1191906137d2565b60405180910390fd5b8060135f3373ffffffffffffffffffffffffffffffffffffffff1673ffffffffffffffffffffffffffffffffffffffff1681526020019081526020015f206001015f828254611c699190613edd565b925050819055508060135f3373ffffffffffffffffffffffffffffffffffffffff1673ffffffffffffffffffffffffffffffffffffffff1681526020019081526020015f206005015f828254611cbf9190613fd3565b925050819055508060025f828254611cd79190613fd3565b925050819055508060035f828254611cef9190613fd3565b925050819055507f14ee34c24635186d212f515353dadae9c226529edef2d1fcf5504cb33b5c25ab333083604051611d2993929190614006565b60405180910390a150565b5f8211611d7857816040517f2ff47830000000000000000000000000000000000000000000000000000000008152600401611d6f91906137d2565b60405180910390fd5b600f54811115611dbf57806040517f222a50f3000000000000000000000000000000000000000000000000000000008152600401611db691906137d2565b60405180910390fd5b611dda8260125f8481526020019081526020015f205461303c565b5f805f9054906101000a900473ffffffffffffffffffffffffffffffffffffffff1673ffffffffffffffffffffffffffffffffffffffff166323b872dd3330866040518463ffffffff1660e01b8152600401611e3893929190614006565b6020604051808303815f875af1158015611e54573d5f803e3d5ffd5b505050506040513d601f19601f82011682018060405250810190611e78919061404f565b905080611ebc57806040517fd85d3cef000000000000000000000000000000000000000000000000000000008152600401611eb39190613937565b60405180910390fd5b7fa89b69c5958ec1ccf0df0de746a8708f5b6a6b429430129f16f46f44b319c9008383604051611eed9291906141a6565b60405180910390a1505050565b5f80611f0461309e565b9050805f015f9054906101000a900473ffffffffffffffffffffffffffffffffffffffff1691505090565b600a5481565b600f5481565b6011602052805f5260405f205f915054906101000a900473ffffffffffffffffffffffffffffffffffffffff1681565b6040518060400160405280600581526020017f352e302e3000000000000000000000000000000000000000000000000000000081525081565b611fac612c4e565b5f8111611ff057806040517fcdbc6335000000000000000000000000000000000000000000000000000000008152600401611fe791906137d2565b60405180910390fd5b806006819055507fb5671393c7c6980552e50a31e778921eb17d764c2e98fbf4d44fff524712def93360065460405161202a9291906140af565b60405180910390a150565b60025481565b612043612c4e565b5f811161208757806040517fcdbc633500000000000000000000000000000000000000000000000000000000815260040161207e91906137d2565b60405180910390fd5b806005819055507fb5671393c7c6980552e50a31e778921eb17d764c2e98fbf4d44fff524712def9336005546040516120c19291906140af565b60405180910390a150565b6013602052805f5260405f205f91509050805f015f9054906101000a900460ff16908060010154908060020154908060030154908060040154908060050154905086565b5f6121196130c5565b90505f815f0160089054906101000a900460ff161590505f825f015f9054906101000a900467ffffffffffffffff1690505f808267ffffffffffffffff161480156121615750825b90505f60018367ffffffffffffffff1614801561219457505f3073ffffffffffffffffffffffffffffffffffffffff163b145b9050811580156121a2575080155b156121d9576040517ff92ee8a900000000000000000000000000000000000000000000000000000000815260040160405180910390fd5b6001855f015f6101000a81548167ffffffffffffffff021916908367ffffffffffffffff1602179055508315612226576001855f0160086101000a81548160ff0219169083151502179055505b61222f886130ec565b612237613100565b865f806101000a81548173ffffffffffffffffffffffffffffffffffffffff021916908373ffffffffffffffffffffffffffffffffffffffff160217905550611388600481905550611d4c6005819055506105dc6006819055506103e86007819055508560095f6101000a81548173ffffffffffffffffffffffffffffffffffffffff021916908373ffffffffffffffffffffffffffffffffffffffff1602179055508315612334575f855f0160086101000a81548160ff0219169083151502179055507fc7f505b2f371ae2175ee4913f4499e1f2633a7b5936321eed1cdaeb6115181d2600160405161232b9190614219565b60405180910390a15b5050505050505050565b6010602052805f5260405f205f915054906101000a900460ff1681565b60065481565b612369612c4e565b5f73ffffffffffffffffffffffffffffffffffffffff168173ffffffffffffffffffffffffffffffffffffffff16036123d957806040517fe4cfa94d0000000000000000000000000000000000000000000000000000000081526004016123d09190613904565b60405180910390fd5b80600e5f6101000a81548173ffffffffffffffffffffffffffffffffffffffff021916908373ffffffffffffffffffffffffffffffffffffffff1602179055507f75f91f3cecb8c46f20150f60f77a6e1f0de00776627692db82ef1960af84c33a33600e5f9054906101000a900473ffffffffffffffffffffffffffffffffffffffff1660405161246b929190614232565b60405180910390a150565b61247e612c4e565b5f73ffffffffffffffffffffffffffffffffffffffff168273ffffffffffffffffffffffffffffffffffffffff16036124ee57816040517fe4cfa94d0000000000000000000000000000000000000000000000000000000081526004016124e59190613904565b60405180910390fd5b600115158115151415801561250757505f151581151514155b1561254957806040517f81ed1ae30000000000000000000000000000000000000000000000000000000081526004016125409190613937565b60405180910390fd5b60011515811515036125b157600160135f8473ffffffffffffffffffffffffffffffffffffffff1673ffffffffffffffffffffffffffffffffffffffff1681526020019081526020015f205f015f6101000a81548160ff021916908315150217905550612608565b5f60135f8473ffffffffffffffffffffffffffffffffffffffff1673ffffffffffffffffffffffffffffffffffffffff1681526020019081526020015f205f015f6101000a81548160ff0219169083151502179055505b7f7a1655bc3160d3413bf1d5235e55be12e01b7e8bc2436a9bff09c3b4fa2421f1338360135f8673ffffffffffffffffffffffffffffffffffffffff1673ffffffffffffffffffffffffffffffffffffffff1681526020019081526020015f205f015f9054906101000a900460ff1660405161268693929190614259565b60405180910390a15050565b600e5f9054906101000a900473ffffffffffffffffffffffffffffffffffffffff1673ffffffffffffffffffffffffffffffffffffffff163373ffffffffffffffffffffffffffffffffffffffff1614612721576040517f08c379a000000000000000000000000000000000000000000000000000000000815260040161271890613fb5565b60405180910390fd5b5f805f61272c61310a565b9250925092505f60025411801561274457505f600154115b612783576040517f08c379a000000000000000000000000000000000000000000000000000000000815260040161277a906142d8565b60405180910390fd5b5f805f90505b600854811015612abf5760135f60115f8481526020019081526020015f205f9054906101000a900473ffffffffffffffffffffffffffffffffffffffff1673ffffffffffffffffffffffffffffffffffffffff1673ffffffffffffffffffffffffffffffffffffffff1681526020019081526020015f205f015f9054906101000a900460ff16612ab2575f60035461271060135f60115f8781526020019081526020015f205f9054906101000a900473ffffffffffffffffffffffffffffffffffffffff1673ffffffffffffffffffffffffffffffffffffffff1673ffffffffffffffffffffffffffffffffffffffff1681526020019081526020015f206005015461289591906142f6565b61289f9190614364565b90505f6128ac8683613302565b90508060025f8282546128bf9190613edd565b9250508190555080846128d29190613fd3565b93508460015f8282546128e59190613edd565b925050819055508460135f60115f8781526020019081526020015f205f9054906101000a900473ffffffffffffffffffffffffffffffffffffffff1673ffffffffffffffffffffffffffffffffffffffff1673ffffffffffffffffffffffffffffffffffffffff1681526020019081526020015f20600301819055508060135f60115f8781526020019081526020015f205f9054906101000a900473ffffffffffffffffffffffffffffffffffffffff1673ffffffffffffffffffffffffffffffffffffffff1673ffffffffffffffffffffffffffffffffffffffff1681526020019081526020015f20600401819055505f85826129e39190613fd3565b90508060135f60115f8881526020019081526020015f205f9054906101000a900473ffffffffffffffffffffffffffffffffffffffff1673ffffffffffffffffffffffffffffffffffffffff1673ffffffffffffffffffffffffffffffffffffffff1681526020019081526020015f206001015f828254612a649190613fd3565b9250508190555087851115612aae576040517f08c379a0000000000000000000000000000000000000000000000000000000008152600401612aa5906143de565b60405180910390fd5b5050505b8080600101915050612789565b507fee826440768329b0c72f81331212ee31fcdac1ea79a248d24821e40c34e5802033600254600154604051612af79392919061407a565b60405180910390a150505050565b612b0d612c4e565b5f8111612b5157806040517fcdbc6335000000000000000000000000000000000000000000000000000000008152600401612b4891906137d2565b60405180910390fd5b8060125f8481526020019081526020015f20819055507fb5671393c7c6980552e50a31e778921eb17d764c2e98fbf4d44fff524712def93360125f8581526020019081526020015f2054604051612ba99291906140af565b60405180910390a15050565b612bbd612c4e565b5f73ffffffffffffffffffffffffffffffffffffffff168173ffffffffffffffffffffffffffffffffffffffff1603612c2d575f6040517f1e4fbdf7000000000000000000000000000000000000000000000000000000008152600401612c249190613904565b60405180910390fd5b612c3681612f6b565b50565b6012602052805f5260405f205f915090505481565b612c566133ad565b73ffffffffffffffffffffffffffffffffffffffff16612c74611efa565b73ffffffffffffffffffffffffffffffffffffffff1614612cd357612c976133ad565b6040517f118cdaa7000000000000000000000000000000000000000000000000000000008152600401612cca9190613904565b60405180910390fd5b565b7f000000000000000000000000000000000000000000000000000000000000000073ffffffffffffffffffffffffffffffffffffffff163073ffffffffffffffffffffffffffffffffffffffff161480612d8257507f000000000000000000000000000000000000000000000000000000000000000073ffffffffffffffffffffffffffffffffffffffff16612d696133b4565b73ffffffffffffffffffffffffffffffffffffffff1614155b15612db9576040517fe07c8dba00000000000000000000000000000000000000000000000000000000815260040160405180910390fd5b565b612dc3612c4e565b50565b8173ffffffffffffffffffffffffffffffffffffffff166352d1902d6040518163ffffffff1660e01b8152600401602060405180830381865afa925050508015612e2e57506040513d601f19601f82011682018060405250810190612e2b9190614426565b60015b612e6f57816040517f4c9c8ce3000000000000000000000000000000000000000000000000000000008152600401612e669190613904565b60405180910390fd5b7f360894a13ba1a3210667c828492db98dca3e2076cc3735a920a3ca505d382bbc5f1b8114612ed557806040517faa1d49a4000000000000000000000000000000000000000000000000000000008152600401612ecc9190613bd0565b60405180910390fd5b612edf8383613407565b505050565b7f000000000000000000000000000000000000000000000000000000000000000073ffffffffffffffffffffffffffffffffffffffff163073ffffffffffffffffffffffffffffffffffffffff1614612f69576040517fe07c8dba00000000000000000000000000000000000000000000000000000000815260040160405180910390fd5b565b5f612f7461309e565b90505f815f015f9054906101000a900473ffffffffffffffffffffffffffffffffffffffff16905082825f015f6101000a81548173ffffffffffffffffffffffffffffffffffffffff021916908373ffffffffffffffffffffffffffffffffffffffff1602179055508273ffffffffffffffffffffffffffffffffffffffff168173ffffffffffffffffffffffffffffffffffffffff167f8be0079c531659141344cd1fd0a4f28419497f9722a3daafe3b4186f6b6457e060405160405180910390a3505050565b5f8161271061304b9190613edd565b90505f6130588483613302565b90505f6130658585613302565b90508160025f8282546130789190613fd3565b925050819055508060015f8282546130909190613fd3565b925050819055505050505050565b5f7f9016d09d72d40fdae2fd8ceac6b6234c7706214fd39c1cd1e609a0528c199300905090565b5f7ff0c57e16840df040f15088dc2f81fe391c3923bec73e23a9662efc9c229c6a00905090565b6130f4613479565b6130fd816134b9565b50565b613108613479565b565b5f805f8061311c600254611388613302565b90505f61312b82600554613302565b90505f61313a83600654613302565b90505f61314984600754613302565b90505f61315a600154600454613302565b90505f600854116131a0576040517f08c379a00000000000000000000000000000000000000000000000000000000081526004016131979061449b565b60405180910390fd5b5f600854826131af9190614364565b905082846131bd9190613fd3565b60025f8282546131cd9190613edd565b925050819055508360015f8282546131e59190613fd3565b925050819055505f805f9054906101000a900473ffffffffffffffffffffffffffffffffffffffff1673ffffffffffffffffffffffffffffffffffffffff1663a9059cbb60095f9054906101000a900473ffffffffffffffffffffffffffffffffffffffff16866040518363ffffffff1660e01b81526004016132699291906140af565b6020604051808303815f875af1158015613285573d5f803e3d5ffd5b505050506040513d601f19601f820116820180604052508101906132a9919061404f565b9050806132ed57806040517fd85d3cef0000000000000000000000000000000000000000000000000000000081526004016132e49190613937565b60405180910390fd5b86868399509950995050505050505050909192565b5f808303613345576040517f08c379a000000000000000000000000000000000000000000000000000000000815260040161333c90614529565b60405180910390fd5b5f8203613387576040517f08c379a000000000000000000000000000000000000000000000000000000000815260040161337e90614529565b60405180910390fd5b5f612710838561339791906142f6565b6133a19190614364565b90508091505092915050565b5f33905090565b5f6133e07f360894a13ba1a3210667c828492db98dca3e2076cc3735a920a3ca505d382bbc5f1b61353d565b5f015f9054906101000a900473ffffffffffffffffffffffffffffffffffffffff16905090565b61341082613546565b8173ffffffffffffffffffffffffffffffffffffffff167fbc7cd75a20ee27fd9adebab32041f755214dbc6bffa90cc0225b39da2e5c2d3b60405160405180910390a25f8151111561346c57613466828261360f565b50613475565b61347461368f565b5b5050565b6134816136cb565b6134b7576040517fd7e6bcf800000000000000000000000000000000000000000000000000000000815260040160405180910390fd5b565b6134c1613479565b5f73ffffffffffffffffffffffffffffffffffffffff168173ffffffffffffffffffffffffffffffffffffffff1603613531575f6040517f1e4fbdf70000000000000000000000000000000000000000000000000000000081526004016135289190613904565b60405180910390fd5b61353a81612f6b565b50565b5f819050919050565b5f8173ffffffffffffffffffffffffffffffffffffffff163b036135a157806040517f4c9c8ce30000000000000000000000000000000000000000000000000000000081526004016135989190613904565b60405180910390fd5b806135cd7f360894a13ba1a3210667c828492db98dca3e2076cc3735a920a3ca505d382bbc5f1b61353d565b5f015f6101000a81548173ffffffffffffffffffffffffffffffffffffffff021916908373ffffffffffffffffffffffffffffffffffffffff16021790555050565b60605f808473ffffffffffffffffffffffffffffffffffffffff16846040516136389190614581565b5f60405180830381855af49150503d805f8114613670576040519150601f19603f3d011682016040523d82523d5f602084013e613675565b606091505b50915091506136858583836136e9565b9250505092915050565b5f3411156136c9576040517fb398979f00000000000000000000000000000000000000000000000000000000815260040160405180910390fd5b565b5f6136d46130c5565b5f0160089054906101000a900460ff16905090565b6060826136fe576136f982613776565b61376e565b5f825114801561372457505f8473ffffffffffffffffffffffffffffffffffffffff163b145b1561376657836040517f9996b31500000000000000000000000000000000000000000000000000000000815260040161375d9190613904565b60405180910390fd5b81905061376f565b5b9392505050565b5f815111156137885780518082602001fd5b6040517f1425ea4200000000000000000000000000000000000000000000000000000000815260040160405180910390fd5b5f819050919050565b6137cc816137ba565b82525050565b5f6020820190506137e55f8301846137c3565b92915050565b5f73ffffffffffffffffffffffffffffffffffffffff82169050919050565b5f819050919050565b5f61382d613828613823846137eb565b61380a565b6137eb565b9050919050565b5f61383e82613813565b9050919050565b5f61384f82613834565b9050919050565b61385f81613845565b82525050565b5f6020820190506138785f830184613856565b92915050565b5f604051905090565b5f80fd5b5f80fd5b613898816137ba565b81146138a2575f80fd5b50565b5f813590506138b38161388f565b92915050565b5f602082840312156138ce576138cd613887565b5b5f6138db848285016138a5565b91505092915050565b5f6138ee826137eb565b9050919050565b6138fe816138e4565b82525050565b5f6020820190506139175f8301846138f5565b92915050565b5f8115159050919050565b6139318161391d565b82525050565b5f60208201905061394a5f830184613928565b92915050565b5f80fd5b5f80fd5b5f80fd5b5f8083601f84011261397157613970613950565b5b8235905067ffffffffffffffff81111561398e5761398d613954565b5b6020830191508360018202830111156139aa576139a9613958565b5b9250929050565b5f80602083850312156139c7576139c6613887565b5b5f83013567ffffffffffffffff8111156139e4576139e361388b565b5b6139f08582860161395c565b92509250509250929050565b613a05816138e4565b8114613a0f575f80fd5b50565b5f81359050613a20816139fc565b92915050565b5f80fd5b5f601f19601f8301169050919050565b7f4e487b71000000000000000000000000000000000000000000000000000000005f52604160045260245ffd5b613a7082613a2a565b810181811067ffffffffffffffff82111715613a8f57613a8e613a3a565b5b80604052505050565b5f613aa161387e565b9050613aad8282613a67565b919050565b5f67ffffffffffffffff821115613acc57613acb613a3a565b5b613ad582613a2a565b9050602081019050919050565b828183375f83830152505050565b5f613b02613afd84613ab2565b613a98565b905082815260208101848484011115613b1e57613b1d613a26565b5b613b29848285613ae2565b509392505050565b5f82601f830112613b4557613b44613950565b5b8135613b55848260208601613af0565b91505092915050565b5f8060408385031215613b7457613b73613887565b5b5f613b8185828601613a12565b925050602083013567ffffffffffffffff811115613ba257613ba161388b565b5b613bae85828601613b31565b9150509250929050565b5f819050919050565b613bca81613bb8565b82525050565b5f602082019050613be35f830184613bc1565b92915050565b5f8060408385031215613bff57613bfe613887565b5b5f613c0c858286016138a5565b9250506020613c1d858286016138a5565b9150509250929050565b5f81519050919050565b5f82825260208201905092915050565b8281835e5f83830152505050565b5f613c5982613c27565b613c638185613c31565b9350613c73818560208601613c41565b613c7c81613a2a565b840191505092915050565b5f604082019050613c9a5f830185613928565b8181036020830152613cac8184613c4f565b90509392505050565b5f81519050919050565b5f82825260208201905092915050565b5f613cd982613cb5565b613ce38185613cbf565b9350613cf3818560208601613c41565b613cfc81613a2a565b840191505092915050565b5f6020820190508181035f830152613d1f8184613ccf565b905092915050565b5f60208284031215613d3c57613d3b613887565b5b5f613d4984828501613a12565b91505092915050565b5f60c082019050613d655f830189613928565b613d7260208301886137c3565b613d7f60408301876137c3565b613d8c60608301866137c3565b613d9960808301856137c3565b613da660a08301846137c3565b979650505050505050565b5f805f60608486031215613dc857613dc7613887565b5b5f613dd586828701613a12565b9350506020613de686828701613a12565b9250506040613df786828701613a12565b9150509250925092565b613e0a8161391d565b8114613e14575f80fd5b50565b5f81359050613e2581613e01565b92915050565b5f8060408385031215613e4157613e40613887565b5b5f613e4e85828601613a12565b9250506020613e5f85828601613e17565b9150509250929050565b7f4e487b71000000000000000000000000000000000000000000000000000000005f52601160045260245ffd5b5f613ea0826137ba565b91507fffffffffffffffffffffffffffffffffffffffffffffffffffffffffffffffff8203613ed257613ed1613e69565b5b600182019050919050565b5f613ee7826137ba565b9150613ef2836137ba565b9250828203905081811115613f0a57613f09613e69565b5b92915050565b5f606082019050613f235f8301866137c3565b613f3060208301856137c3565b613f3d60408301846137c3565b949350505050565b7f54686973206164647265737320646f6573206e6f742068617665207065726d695f8201527f7373696f6e20746f2063616c6c20706572666f726d55706b6565700000000000602082015250565b5f613f9f603b83613cbf565b9150613faa82613f45565b604082019050919050565b5f6020820190508181035f830152613fcc81613f93565b9050919050565b5f613fdd826137ba565b9150613fe8836137ba565b925082820190508082111561400057613fff613e69565b5b92915050565b5f6060820190506140195f8301866138f5565b61402660208301856138f5565b61403360408301846137c3565b949350505050565b5f8151905061404981613e01565b92915050565b5f6020828403121561406457614063613887565b5b5f6140718482850161403b565b91505092915050565b5f60608201905061408d5f8301866138f5565b61409a60208301856137c3565b6140a760408301846137c3565b949350505050565b5f6040820190506140c25f8301856138f5565b6140cf60208301846137c3565b9392505050565b7f5265656e7472616e637947756172643a207265656e7472616e742063616c6c005f82015250565b5f61410a601f83613cbf565b9150614115826140d6565b602082019050919050565b5f6020820190508181035f830152614137816140fe565b9050919050565b7f696e76616c6964205f616d6f756e7421000000000000000000000000000000005f82015250565b5f614172601083613cbf565b915061417d8261413e565b602082019050919050565b5f6020820190508181035f83015261419f81614166565b9050919050565b5f6040820190506141b95f8301856137c3565b6141c660208301846137c3565b9392505050565b5f819050919050565b5f67ffffffffffffffff82169050919050565b5f6142036141fe6141f9846141cd565b61380a565b6141d6565b9050919050565b614213816141e9565b82525050565b5f60208201905061422c5f83018461420a565b92915050565b5f6040820190506142455f8301856138f5565b61425260208301846138f5565b9392505050565b5f60608201905061426c5f8301866138f5565b61427960208301856138f5565b6142866040830184613928565b949350505050565b7f6e6f7420656e6f75676820616d6f756e740000000000000000000000000000005f82015250565b5f6142c2601183613cbf565b91506142cd8261428e565b602082019050919050565b5f6020820190508181035f8301526142ef816142b6565b9050919050565b5f614300826137ba565b915061430b836137ba565b9250828202614319816137ba565b915082820484148315176143305761432f613e69565b5b5092915050565b7f4e487b71000000000000000000000000000000000000000000000000000000005f52601260045260245ffd5b5f61436e826137ba565b9150614379836137ba565b92508261438957614388614337565b5b828204905092915050565b7f416d6f756e742069732067726561746572207468656e203530250000000000005f82015250565b5f6143c8601a83613cbf565b91506143d382614394565b602082019050919050565b5f6020820190508181035f8301526143f5816143bc565b9050919050565b61440581613bb8565b811461440f575f80fd5b50565b5f81519050614420816143fc565b92915050565b5f6020828403121561443b5761443a613887565b5b5f61444884828501614412565b91505092915050565b7f6e6f2075736572732100000000000000000000000000000000000000000000005f82015250565b5f614485600983613cbf565b915061449082614451565b602082019050919050565b5f6020820190508181035f8301526144b281614479565b9050919050565b7f5f746f74616c5374616b65416d6f756e742063616e206e6f74206265207a65725f8201527f6f00000000000000000000000000000000000000000000000000000000000000602082015250565b5f614513602183613cbf565b915061451e826144b9565b604082019050919050565b5f6020820190508181035f83015261454081614507565b9050919050565b5f81905092915050565b5f61455b82613c27565b6145658185614547565b9350614575818560208601613c41565b80840191505092915050565b5f61458c8284614551565b91508190509291505056fea26469706673582212203bb5a55ee25e33ab801f5e8335131189c38a231142bd49a58536833a53ed7e9064736f6c634300081a0033",
					"opcodes": "PUSH1 0xA0 PUSH1 0x40 MSTORE ADDRESS PUSH20 0xFFFFFFFFFFFFFFFFFFFFFFFFFFFFFFFFFFFFFFFF AND PUSH1 0x80 SWAP1 PUSH20 0xFFFFFFFFFFFFFFFFFFFFFFFFFFFFFFFFFFFFFFFF AND DUP2 MSTORE POP CALLVALUE DUP1 ISZERO PUSH2 0x42 JUMPI PUSH0 DUP1 REVERT JUMPDEST POP PUSH2 0x51 PUSH2 0x56 PUSH1 0x20 SHL PUSH1 0x20 SHR JUMP JUMPDEST PUSH2 0x1B6 JUMP JUMPDEST PUSH0 PUSH2 0x65 PUSH2 0x154 PUSH1 0x20 SHL PUSH1 0x20 SHR JUMP JUMPDEST SWAP1 POP DUP1 PUSH0 ADD PUSH1 0x8 SWAP1 SLOAD SWAP1 PUSH2 0x100 EXP SWAP1 DIV PUSH1 0xFF AND ISZERO PUSH2 0xAF JUMPI PUSH1 0x40 MLOAD PUSH32 0xF92EE8A900000000000000000000000000000000000000000000000000000000 DUP2 MSTORE PUSH1 0x4 ADD PUSH1 0x40 MLOAD DUP1 SWAP2 SUB SWAP1 REVERT JUMPDEST PUSH8 0xFFFFFFFFFFFFFFFF DUP1 AND DUP2 PUSH0 ADD PUSH0 SWAP1 SLOAD SWAP1 PUSH2 0x100 EXP SWAP1 DIV PUSH8 0xFFFFFFFFFFFFFFFF AND PUSH8 0xFFFFFFFFFFFFFFFF AND EQ PUSH2 0x151 JUMPI PUSH8 0xFFFFFFFFFFFFFFFF DUP2 PUSH0 ADD PUSH0 PUSH2 0x100 EXP DUP2 SLOAD DUP2 PUSH8 0xFFFFFFFFFFFFFFFF MUL NOT AND SWAP1 DUP4 PUSH8 0xFFFFFFFFFFFFFFFF AND MUL OR SWAP1 SSTORE POP PUSH32 0xC7F505B2F371AE2175EE4913F4499E1F2633A7B5936321EED1CDAEB6115181D2 PUSH8 0xFFFFFFFFFFFFFFFF PUSH1 0x40 MLOAD PUSH2 0x148 SWAP2 SWAP1 PUSH2 0x19D JUMP JUMPDEST PUSH1 0x40 MLOAD DUP1 SWAP2 SUB SWAP1 LOG1 JUMPDEST POP JUMP JUMPDEST PUSH0 PUSH32 0xF0C57E16840DF040F15088DC2F81FE391C3923BEC73E23A9662EFC9C229C6A00 SWAP1 POP SWAP1 JUMP JUMPDEST PUSH0 PUSH8 0xFFFFFFFFFFFFFFFF DUP3 AND SWAP1 POP SWAP2 SWAP1 POP JUMP JUMPDEST PUSH2 0x197 DUP2 PUSH2 0x17B JUMP JUMPDEST DUP3 MSTORE POP POP JUMP JUMPDEST PUSH0 PUSH1 0x20 DUP3 ADD SWAP1 POP PUSH2 0x1B0 PUSH0 DUP4 ADD DUP5 PUSH2 0x18E JUMP JUMPDEST SWAP3 SWAP2 POP POP JUMP JUMPDEST PUSH1 0x80 MLOAD PUSH2 0x45CD PUSH2 0x1DC PUSH0 CODECOPY PUSH0 DUP2 DUP2 PUSH2 0x2CD7 ADD MSTORE DUP2 DUP2 PUSH2 0x2D2C ADD MSTORE PUSH2 0x2EE6 ADD MSTORE PUSH2 0x45CD PUSH0 RETURN INVALID PUSH1 0x80 PUSH1 0x40 MSTORE PUSH1 0x4 CALLDATASIZE LT PUSH2 0x287 JUMPI PUSH0 CALLDATALOAD PUSH1 0xE0 SHR DUP1 PUSH4 0x7547C7A3 GT PUSH2 0x159 JUMPI DUP1 PUSH4 0xB47FF951 GT PUSH2 0xC0 JUMPI DUP1 PUSH4 0xD777CC6D GT PUSH2 0x79 JUMPI DUP1 PUSH4 0xD777CC6D EQ PUSH2 0x941 JUMPI DUP1 PUSH4 0xD9B998B4 EQ PUSH2 0x969 JUMPI DUP1 PUSH4 0xE9C68E2C EQ PUSH2 0x991 JUMPI DUP1 PUSH4 0xED061067 EQ PUSH2 0x9A7 JUMPI DUP1 PUSH4 0xF2FDE38B EQ PUSH2 0x9CF JUMPI DUP1 PUSH4 0xFF3D65D9 EQ PUSH2 0x9F7 JUMPI PUSH2 0x287 JUMP JUMPDEST DUP1 PUSH4 0xB47FF951 EQ PUSH2 0x820 JUMPI DUP1 PUSH4 0xB9DAC1EB EQ PUSH2 0x84A JUMPI DUP1 PUSH4 0xBCCBC36C EQ PUSH2 0x872 JUMPI DUP1 PUSH4 0xC0C53B8B EQ PUSH2 0x8B3 JUMPI DUP1 PUSH4 0xC7FD5BF0 EQ PUSH2 0x8DB JUMPI DUP1 PUSH4 0xCE356A24 EQ PUSH2 0x917 JUMPI PUSH2 0x287 JUMP JUMPDEST DUP1 PUSH4 0x8DA5CB5B GT PUSH2 0x112 JUMPI DUP1 PUSH4 0x8DA5CB5B EQ PUSH2 0x714 JUMPI DUP1 PUSH4 0x947A36FB EQ PUSH2 0x73E JUMPI DUP1 PUSH4 0x9C361E4E EQ PUSH2 0x768 JUMPI DUP1 PUSH4 0xA4F67B8B EQ PUSH2 0x792 JUMPI DUP1 PUSH4 0xAD3CB1CC EQ PUSH2 0x7CE JUMPI DUP1 PUSH4 0xAD8E5EC4 EQ PUSH2 0x7F8 JUMPI PUSH2 0x287 JUMP JUMPDEST DUP1 PUSH4 0x7547C7A3 EQ PUSH2 0x624 JUMPI DUP1 PUSH4 0x78FD078D EQ PUSH2 0x64C JUMPI DUP1 PUSH4 0x7F111E60 EQ PUSH2 0x674 JUMPI DUP1 PUSH4 0x7F70C5E7 EQ PUSH2 0x69C JUMPI DUP1 PUSH4 0x7FFE4D93 EQ PUSH2 0x6C4 JUMPI DUP1 PUSH4 0x85F45250 EQ PUSH2 0x6EC JUMPI PUSH2 0x287 JUMP JUMPDEST DUP1 PUSH4 0x44490FF4 GT PUSH2 0x1FD JUMPI DUP1 PUSH4 0x567E98F9 GT PUSH2 0x1B6 JUMPI DUP1 PUSH4 0x567E98F9 EQ PUSH2 0x541 JUMPI DUP1 PUSH4 0x5F17E616 EQ PUSH2 0x56B JUMPI DUP1 PUSH4 0x6626B26D EQ PUSH2 0x593 JUMPI DUP1 PUSH4 0x67976974 EQ PUSH2 0x5A9 JUMPI DUP1 PUSH4 0x6E04FF0D EQ PUSH2 0x5D1 JUMPI DUP1 PUSH4 0x715018A6 EQ PUSH2 0x60E JUMPI PUSH2 0x287 JUMP JUMPDEST DUP1 PUSH4 0x44490FF4 EQ PUSH2 0x457 JUMPI DUP1 PUSH4 0x4585E33B EQ PUSH2 0x481 JUMPI DUP1 PUSH4 0x4F1EF286 EQ PUSH2 0x4A9 JUMPI DUP1 PUSH4 0x5256DBBF EQ PUSH2 0x4C5 JUMPI DUP1 PUSH4 0x52D1902D EQ PUSH2 0x4ED JUMPI DUP1 PUSH4 0x5462870D EQ PUSH2 0x517 JUMPI PUSH2 0x287 JUMP JUMPDEST DUP1 PUSH4 0x30CAC972 GT PUSH2 0x24F JUMPI DUP1 PUSH4 0x30CAC972 EQ PUSH2 0x35B JUMPI DUP1 PUSH4 0x30E3F8F8 EQ PUSH2 0x385 JUMPI DUP1 PUSH4 0x33244C2C EQ PUSH2 0x3AF JUMPI DUP1 PUSH4 0x39518B5E EQ PUSH2 0x3D9 JUMPI DUP1 PUSH4 0x3A71A9E4 EQ PUSH2 0x403 JUMPI DUP1 PUSH4 0x3F3B3B27 EQ PUSH2 0x42D JUMPI PUSH2 0x287 JUMP JUMPDEST DUP1 PUSH4 0x1934A83 EQ PUSH2 0x28B JUMPI DUP1 PUSH4 0x11EAC855 EQ PUSH2 0x2B5 JUMPI DUP1 PUSH4 0x188E07B9 EQ PUSH2 0x2DF JUMPI DUP1 PUSH4 0x2765DF7A EQ PUSH2 0x309 JUMPI DUP1 PUSH4 0x3070FBF8 EQ PUSH2 0x331 JUMPI JUMPDEST PUSH0 DUP1 REVERT JUMPDEST CALLVALUE DUP1 ISZERO PUSH2 0x296 JUMPI PUSH0 DUP1 REVERT JUMPDEST POP PUSH2 0x29F PUSH2 0xA33 JUMP JUMPDEST PUSH1 0x40 MLOAD PUSH2 0x2AC SWAP2 SWAP1 PUSH2 0x37D2 JUMP JUMPDEST PUSH1 0x40 MLOAD DUP1 SWAP2 SUB SWAP1 RETURN JUMPDEST CALLVALUE DUP1 ISZERO PUSH2 0x2C0 JUMPI PUSH0 DUP1 REVERT JUMPDEST POP PUSH2 0x2C9 PUSH2 0xA39 JUMP JUMPDEST PUSH1 0x40 MLOAD PUSH2 0x2D6 SWAP2 SWAP1 PUSH2 0x3865 JUMP JUMPDEST PUSH1 0x40 MLOAD DUP1 SWAP2 SUB SWAP1 RETURN JUMPDEST CALLVALUE DUP1 ISZERO PUSH2 0x2EA JUMPI PUSH0 DUP1 REVERT JUMPDEST POP PUSH2 0x2F3 PUSH2 0xA5C JUMP JUMPDEST PUSH1 0x40 MLOAD PUSH2 0x300 SWAP2 SWAP1 PUSH2 0x37D2 JUMP JUMPDEST PUSH1 0x40 MLOAD DUP1 SWAP2 SUB SWAP1 RETURN JUMPDEST CALLVALUE DUP1 ISZERO PUSH2 0x314 JUMPI PUSH0 DUP1 REVERT JUMPDEST POP PUSH2 0x32F PUSH1 0x4 DUP1 CALLDATASIZE SUB DUP2 ADD SWAP1 PUSH2 0x32A SWAP2 SWAP1 PUSH2 0x38B9 JUMP JUMPDEST PUSH2 0xA62 JUMP JUMPDEST STOP JUMPDEST CALLVALUE DUP1 ISZERO PUSH2 0x33C JUMPI PUSH0 DUP1 REVERT JUMPDEST POP PUSH2 0x345 PUSH2 0xB2A JUMP JUMPDEST PUSH1 0x40 MLOAD PUSH2 0x352 SWAP2 SWAP1 PUSH2 0x3904 JUMP JUMPDEST PUSH1 0x40 MLOAD DUP1 SWAP2 SUB SWAP1 RETURN JUMPDEST CALLVALUE DUP1 ISZERO PUSH2 0x366 JUMPI PUSH0 DUP1 REVERT JUMPDEST POP PUSH2 0x36F PUSH2 0xB4F JUMP JUMPDEST PUSH1 0x40 MLOAD PUSH2 0x37C SWAP2 SWAP1 PUSH2 0x37D2 JUMP JUMPDEST PUSH1 0x40 MLOAD DUP1 SWAP2 SUB SWAP1 RETURN JUMPDEST CALLVALUE DUP1 ISZERO PUSH2 0x390 JUMPI PUSH0 DUP1 REVERT JUMPDEST POP PUSH2 0x399 PUSH2 0xB55 JUMP JUMPDEST PUSH1 0x40 MLOAD PUSH2 0x3A6 SWAP2 SWAP1 PUSH2 0x3937 JUMP JUMPDEST PUSH1 0x40 MLOAD DUP1 SWAP2 SUB SWAP1 RETURN JUMPDEST CALLVALUE DUP1 ISZERO PUSH2 0x3BA JUMPI PUSH0 DUP1 REVERT JUMPDEST POP PUSH2 0x3C3 PUSH2 0xB68 JUMP JUMPDEST PUSH1 0x40 MLOAD PUSH2 0x3D0 SWAP2 SWAP1 PUSH2 0x37D2 JUMP JUMPDEST PUSH1 0x40 MLOAD DUP1 SWAP2 SUB SWAP1 RETURN JUMPDEST CALLVALUE DUP1 ISZERO PUSH2 0x3E4 JUMPI PUSH0 DUP1 REVERT JUMPDEST POP PUSH2 0x3ED PUSH2 0xB6E JUMP JUMPDEST PUSH1 0x40 MLOAD PUSH2 0x3FA SWAP2 SWAP1 PUSH2 0x37D2 JUMP JUMPDEST PUSH1 0x40 MLOAD DUP1 SWAP2 SUB SWAP1 RETURN JUMPDEST CALLVALUE DUP1 ISZERO PUSH2 0x40E JUMPI PUSH0 DUP1 REVERT JUMPDEST POP PUSH2 0x417 PUSH2 0xB74 JUMP JUMPDEST PUSH1 0x40 MLOAD PUSH2 0x424 SWAP2 SWAP1 PUSH2 0x37D2 JUMP JUMPDEST PUSH1 0x40 MLOAD DUP1 SWAP2 SUB SWAP1 RETURN JUMPDEST CALLVALUE DUP1 ISZERO PUSH2 0x438 JUMPI PUSH0 DUP1 REVERT JUMPDEST POP PUSH2 0x441 PUSH2 0xB7A JUMP JUMPDEST PUSH1 0x40 MLOAD PUSH2 0x44E SWAP2 SWAP1 PUSH2 0x37D2 JUMP JUMPDEST PUSH1 0x40 MLOAD DUP1 SWAP2 SUB SWAP1 RETURN JUMPDEST CALLVALUE DUP1 ISZERO PUSH2 0x462 JUMPI PUSH0 DUP1 REVERT JUMPDEST POP PUSH2 0x46B PUSH2 0xB80 JUMP JUMPDEST PUSH1 0x40 MLOAD PUSH2 0x478 SWAP2 SWAP1 PUSH2 0x37D2 JUMP JUMPDEST PUSH1 0x40 MLOAD DUP1 SWAP2 SUB SWAP1 RETURN JUMPDEST CALLVALUE DUP1 ISZERO PUSH2 0x48C JUMPI PUSH0 DUP1 REVERT JUMPDEST POP PUSH2 0x4A7 PUSH1 0x4 DUP1 CALLDATASIZE SUB DUP2 ADD SWAP1 PUSH2 0x4A2 SWAP2 SWAP1 PUSH2 0x39B1 JUMP JUMPDEST PUSH2 0xB86 JUMP JUMPDEST STOP JUMPDEST PUSH2 0x4C3 PUSH1 0x4 DUP1 CALLDATASIZE SUB DUP2 ADD SWAP1 PUSH2 0x4BE SWAP2 SWAP1 PUSH2 0x3B5E JUMP JUMPDEST PUSH2 0xD1F JUMP JUMPDEST STOP JUMPDEST CALLVALUE DUP1 ISZERO PUSH2 0x4D0 JUMPI PUSH0 DUP1 REVERT JUMPDEST POP PUSH2 0x4EB PUSH1 0x4 DUP1 CALLDATASIZE SUB DUP2 ADD SWAP1 PUSH2 0x4E6 SWAP2 SWAP1 PUSH2 0x38B9 JUMP JUMPDEST PUSH2 0xD3E JUMP JUMPDEST STOP JUMPDEST CALLVALUE DUP1 ISZERO PUSH2 0x4F8 JUMPI PUSH0 DUP1 REVERT JUMPDEST POP PUSH2 0x501 PUSH2 0xEC1 JUMP JUMPDEST PUSH1 0x40 MLOAD PUSH2 0x50E SWAP2 SWAP1 PUSH2 0x3BD0 JUMP JUMPDEST PUSH1 0x40 MLOAD DUP1 SWAP2 SUB SWAP1 RETURN JUMPDEST CALLVALUE DUP1 ISZERO PUSH2 0x522 JUMPI PUSH0 DUP1 REVERT JUMPDEST POP PUSH2 0x52B PUSH2 0xEF2 JUMP JUMPDEST PUSH1 0x40 MLOAD PUSH2 0x538 SWAP2 SWAP1 PUSH2 0x3904 JUMP JUMPDEST PUSH1 0x40 MLOAD DUP1 SWAP2 SUB SWAP1 RETURN JUMPDEST CALLVALUE DUP1 ISZERO PUSH2 0x54C JUMPI PUSH0 DUP1 REVERT JUMPDEST POP PUSH2 0x555 PUSH2 0xF17 JUMP JUMPDEST PUSH1 0x40 MLOAD PUSH2 0x562 SWAP2 SWAP1 PUSH2 0x37D2 JUMP JUMPDEST PUSH1 0x40 MLOAD DUP1 SWAP2 SUB SWAP1 RETURN JUMPDEST CALLVALUE DUP1 ISZERO PUSH2 0x576 JUMPI PUSH0 DUP1 REVERT JUMPDEST POP PUSH2 0x591 PUSH1 0x4 DUP1 CALLDATASIZE SUB DUP2 ADD SWAP1 PUSH2 0x58C SWAP2 SWAP1 PUSH2 0x3BE9 JUMP JUMPDEST PUSH2 0xF1D JUMP JUMPDEST STOP JUMPDEST CALLVALUE DUP1 ISZERO PUSH2 0x59E JUMPI PUSH0 DUP1 REVERT JUMPDEST POP PUSH2 0x5A7 PUSH2 0x1018 JUMP JUMPDEST STOP JUMPDEST CALLVALUE DUP1 ISZERO PUSH2 0x5B4 JUMPI PUSH0 DUP1 REVERT JUMPDEST POP PUSH2 0x5CF PUSH1 0x4 DUP1 CALLDATASIZE SUB DUP2 ADD SWAP1 PUSH2 0x5CA SWAP2 SWAP1 PUSH2 0x38B9 JUMP JUMPDEST PUSH2 0x107E JUMP JUMPDEST STOP JUMPDEST CALLVALUE DUP1 ISZERO PUSH2 0x5DC JUMPI PUSH0 DUP1 REVERT JUMPDEST POP PUSH2 0x5F7 PUSH1 0x4 DUP1 CALLDATASIZE SUB DUP2 ADD SWAP1 PUSH2 0x5F2 SWAP2 SWAP1 PUSH2 0x39B1 JUMP JUMPDEST PUSH2 0x1393 JUMP JUMPDEST PUSH1 0x40 MLOAD PUSH2 0x605 SWAP3 SWAP2 SWAP1 PUSH2 0x3C87 JUMP JUMPDEST PUSH1 0x40 MLOAD DUP1 SWAP2 SUB SWAP1 RETURN JUMPDEST CALLVALUE DUP1 ISZERO PUSH2 0x619 JUMPI PUSH0 DUP1 REVERT JUMPDEST POP PUSH2 0x622 PUSH2 0x13C7 JUMP JUMPDEST STOP JUMPDEST CALLVALUE DUP1 ISZERO PUSH2 0x62F JUMPI PUSH0 DUP1 REVERT JUMPDEST POP PUSH2 0x64A PUSH1 0x4 DUP1 CALLDATASIZE SUB DUP2 ADD SWAP1 PUSH2 0x645 SWAP2 SWAP1 PUSH2 0x38B9 JUMP JUMPDEST PUSH2 0x13DA JUMP JUMPDEST STOP JUMPDEST CALLVALUE DUP1 ISZERO PUSH2 0x657 JUMPI PUSH0 DUP1 REVERT JUMPDEST POP PUSH2 0x672 PUSH1 0x4 DUP1 CALLDATASIZE SUB DUP2 ADD SWAP1 PUSH2 0x66D SWAP2 SWAP1 PUSH2 0x38B9 JUMP JUMPDEST PUSH2 0x17D4 JUMP JUMPDEST STOP JUMPDEST CALLVALUE DUP1 ISZERO PUSH2 0x67F JUMPI PUSH0 DUP1 REVERT JUMPDEST POP PUSH2 0x69A PUSH1 0x4 DUP1 CALLDATASIZE SUB DUP2 ADD SWAP1 PUSH2 0x695 SWAP2 SWAP1 PUSH2 0x38B9 JUMP JUMPDEST PUSH2 0x1957 JUMP JUMPDEST STOP JUMPDEST CALLVALUE DUP1 ISZERO PUSH2 0x6A7 JUMPI PUSH0 DUP1 REVERT JUMPDEST POP PUSH2 0x6C2 PUSH1 0x4 DUP1 CALLDATASIZE SUB DUP2 ADD SWAP1 PUSH2 0x6BD SWAP2 SWAP1 PUSH2 0x38B9 JUMP JUMPDEST PUSH2 0x19E8 JUMP JUMPDEST STOP JUMPDEST CALLVALUE DUP1 ISZERO PUSH2 0x6CF JUMPI PUSH0 DUP1 REVERT JUMPDEST POP PUSH2 0x6EA PUSH1 0x4 DUP1 CALLDATASIZE SUB DUP2 ADD SWAP1 PUSH2 0x6E5 SWAP2 SWAP1 PUSH2 0x38B9 JUMP JUMPDEST PUSH2 0x1A79 JUMP JUMPDEST STOP JUMPDEST CALLVALUE DUP1 ISZERO PUSH2 0x6F7 JUMPI PUSH0 DUP1 REVERT JUMPDEST POP PUSH2 0x712 PUSH1 0x4 DUP1 CALLDATASIZE SUB DUP2 ADD SWAP1 PUSH2 0x70D SWAP2 SWAP1 PUSH2 0x3BE9 JUMP JUMPDEST PUSH2 0x1D34 JUMP JUMPDEST STOP JUMPDEST CALLVALUE DUP1 ISZERO PUSH2 0x71F JUMPI PUSH0 DUP1 REVERT JUMPDEST POP PUSH2 0x728 PUSH2 0x1EFA JUMP JUMPDEST PUSH1 0x40 MLOAD PUSH2 0x735 SWAP2 SWAP1 PUSH2 0x3904 JUMP JUMPDEST PUSH1 0x40 MLOAD DUP1 SWAP2 SUB SWAP1 RETURN JUMPDEST CALLVALUE DUP1 ISZERO PUSH2 0x749 JUMPI PUSH0 DUP1 REVERT JUMPDEST POP PUSH2 0x752 PUSH2 0x1F2F JUMP JUMPDEST PUSH1 0x40 MLOAD PUSH2 0x75F SWAP2 SWAP1 PUSH2 0x37D2 JUMP JUMPDEST PUSH1 0x40 MLOAD DUP1 SWAP2 SUB SWAP1 RETURN JUMPDEST CALLVALUE DUP1 ISZERO PUSH2 0x773 JUMPI PUSH0 DUP1 REVERT JUMPDEST POP PUSH2 0x77C PUSH2 0x1F35 JUMP JUMPDEST PUSH1 0x40 MLOAD PUSH2 0x789 SWAP2 SWAP1 PUSH2 0x37D2 JUMP JUMPDEST PUSH1 0x40 MLOAD DUP1 SWAP2 SUB SWAP1 RETURN JUMPDEST CALLVALUE DUP1 ISZERO PUSH2 0x79D JUMPI PUSH0 DUP1 REVERT JUMPDEST POP PUSH2 0x7B8 PUSH1 0x4 DUP1 CALLDATASIZE SUB DUP2 ADD SWAP1 PUSH2 0x7B3 SWAP2 SWAP1 PUSH2 0x38B9 JUMP JUMPDEST PUSH2 0x1F3B JUMP JUMPDEST PUSH1 0x40 MLOAD PUSH2 0x7C5 SWAP2 SWAP1 PUSH2 0x3904 JUMP JUMPDEST PUSH1 0x40 MLOAD DUP1 SWAP2 SUB SWAP1 RETURN JUMPDEST CALLVALUE DUP1 ISZERO PUSH2 0x7D9 JUMPI PUSH0 DUP1 REVERT JUMPDEST POP PUSH2 0x7E2 PUSH2 0x1F6B JUMP JUMPDEST PUSH1 0x40 MLOAD PUSH2 0x7EF SWAP2 SWAP1 PUSH2 0x3D07 JUMP JUMPDEST PUSH1 0x40 MLOAD DUP1 SWAP2 SUB SWAP1 RETURN JUMPDEST CALLVALUE DUP1 ISZERO PUSH2 0x803 JUMPI PUSH0 DUP1 REVERT JUMPDEST POP PUSH2 0x81E PUSH1 0x4 DUP1 CALLDATASIZE SUB DUP2 ADD SWAP1 PUSH2 0x819 SWAP2 SWAP1 PUSH2 0x38B9 JUMP JUMPDEST PUSH2 0x1FA4 JUMP JUMPDEST STOP JUMPDEST CALLVALUE DUP1 ISZERO PUSH2 0x82B JUMPI PUSH0 DUP1 REVERT JUMPDEST POP PUSH2 0x834 PUSH2 0x2035 JUMP JUMPDEST PUSH1 0x40 MLOAD PUSH2 0x841 SWAP2 SWAP1 PUSH2 0x37D2 JUMP JUMPDEST PUSH1 0x40 MLOAD DUP1 SWAP2 SUB SWAP1 RETURN JUMPDEST CALLVALUE DUP1 ISZERO PUSH2 0x855 JUMPI PUSH0 DUP1 REVERT JUMPDEST POP PUSH2 0x870 PUSH1 0x4 DUP1 CALLDATASIZE SUB DUP2 ADD SWAP1 PUSH2 0x86B SWAP2 SWAP1 PUSH2 0x38B9 JUMP JUMPDEST PUSH2 0x203B JUMP JUMPDEST STOP JUMPDEST CALLVALUE DUP1 ISZERO PUSH2 0x87D JUMPI PUSH0 DUP1 REVERT JUMPDEST POP PUSH2 0x898 PUSH1 0x4 DUP1 CALLDATASIZE SUB DUP2 ADD SWAP1 PUSH2 0x893 SWAP2 SWAP1 PUSH2 0x3D27 JUMP JUMPDEST PUSH2 0x20CC JUMP JUMPDEST PUSH1 0x40 MLOAD PUSH2 0x8AA SWAP7 SWAP6 SWAP5 SWAP4 SWAP3 SWAP2 SWAP1 PUSH2 0x3D52 JUMP JUMPDEST PUSH1 0x40 MLOAD DUP1 SWAP2 SUB SWAP1 RETURN JUMPDEST CALLVALUE DUP1 ISZERO PUSH2 0x8BE JUMPI PUSH0 DUP1 REVERT JUMPDEST POP PUSH2 0x8D9 PUSH1 0x4 DUP1 CALLDATASIZE SUB DUP2 ADD SWAP1 PUSH2 0x8D4 SWAP2 SWAP1 PUSH2 0x3DB1 JUMP JUMPDEST PUSH2 0x2110 JUMP JUMPDEST STOP JUMPDEST CALLVALUE DUP1 ISZERO PUSH2 0x8E6 JUMPI PUSH0 DUP1 REVERT JUMPDEST POP PUSH2 0x901 PUSH1 0x4 DUP1 CALLDATASIZE SUB DUP2 ADD SWAP1 PUSH2 0x8FC SWAP2 SWAP1 PUSH2 0x3D27 JUMP JUMPDEST PUSH2 0x233E JUMP JUMPDEST PUSH1 0x40 MLOAD PUSH2 0x90E SWAP2 SWAP1 PUSH2 0x3937 JUMP JUMPDEST PUSH1 0x40 MLOAD DUP1 SWAP2 SUB SWAP1 RETURN JUMPDEST CALLVALUE DUP1 ISZERO PUSH2 0x922 JUMPI PUSH0 DUP1 REVERT JUMPDEST POP PUSH2 0x92B PUSH2 0x235B JUMP JUMPDEST PUSH1 0x40 MLOAD PUSH2 0x938 SWAP2 SWAP1 PUSH2 0x37D2 JUMP JUMPDEST PUSH1 0x40 MLOAD DUP1 SWAP2 SUB SWAP1 RETURN JUMPDEST CALLVALUE DUP1 ISZERO PUSH2 0x94C JUMPI PUSH0 DUP1 REVERT JUMPDEST POP PUSH2 0x967 PUSH1 0x4 DUP1 CALLDATASIZE SUB DUP2 ADD SWAP1 PUSH2 0x962 SWAP2 SWAP1 PUSH2 0x3D27 JUMP JUMPDEST PUSH2 0x2361 JUMP JUMPDEST STOP JUMPDEST CALLVALUE DUP1 ISZERO PUSH2 0x974 JUMPI PUSH0 DUP1 REVERT JUMPDEST POP PUSH2 0x98F PUSH1 0x4 DUP1 CALLDATASIZE SUB DUP2 ADD SWAP1 PUSH2 0x98A SWAP2 SWAP1 PUSH2 0x3E2B JUMP JUMPDEST PUSH2 0x2476 JUMP JUMPDEST STOP JUMPDEST CALLVALUE DUP1 ISZERO PUSH2 0x99C JUMPI PUSH0 DUP1 REVERT JUMPDEST POP PUSH2 0x9A5 PUSH2 0x2692 JUMP JUMPDEST STOP JUMPDEST CALLVALUE DUP1 ISZERO PUSH2 0x9B2 JUMPI PUSH0 DUP1 REVERT JUMPDEST POP PUSH2 0x9CD PUSH1 0x4 DUP1 CALLDATASIZE SUB DUP2 ADD SWAP1 PUSH2 0x9C8 SWAP2 SWAP1 PUSH2 0x3BE9 JUMP JUMPDEST PUSH2 0x2B05 JUMP JUMPDEST STOP JUMPDEST CALLVALUE DUP1 ISZERO PUSH2 0x9DA JUMPI PUSH0 DUP1 REVERT JUMPDEST POP PUSH2 0x9F5 PUSH1 0x4 DUP1 CALLDATASIZE SUB DUP2 ADD SWAP1 PUSH2 0x9F0 SWAP2 SWAP1 PUSH2 0x3D27 JUMP JUMPDEST PUSH2 0x2BB5 JUMP JUMPDEST STOP JUMPDEST CALLVALUE DUP1 ISZERO PUSH2 0xA02 JUMPI PUSH0 DUP1 REVERT JUMPDEST POP PUSH2 0xA1D PUSH1 0x4 DUP1 CALLDATASIZE SUB DUP2 ADD SWAP1 PUSH2 0xA18 SWAP2 SWAP1 PUSH2 0x38B9 JUMP JUMPDEST PUSH2 0x2C39 JUMP JUMPDEST PUSH1 0x40 MLOAD PUSH2 0xA2A SWAP2 SWAP1 PUSH2 0x37D2 JUMP JUMPDEST PUSH1 0x40 MLOAD DUP1 SWAP2 SUB SWAP1 RETURN JUMPDEST PUSH1 0x8 SLOAD DUP2 JUMP JUMPDEST PUSH0 DUP1 SLOAD SWAP1 PUSH2 0x100 EXP SWAP1 DIV PUSH20 0xFFFFFFFFFFFFFFFFFFFFFFFFFFFFFFFFFFFFFFFF AND DUP2 JUMP JUMPDEST PUSH1 0x1 SLOAD DUP2 JUMP JUMPDEST PUSH2 0xA6A PUSH2 0x2C4E JUMP JUMPDEST PUSH0 DUP2 GT PUSH2 0xAAE JUMPI DUP1 PUSH1 0x40 MLOAD PUSH32 0xCDBC633500000000000000000000000000000000000000000000000000000000 DUP2 MSTORE PUSH1 0x4 ADD PUSH2 0xAA5 SWAP2 SWAP1 PUSH2 0x37D2 JUMP JUMPDEST PUSH1 0x40 MLOAD DUP1 SWAP2 SUB SWAP1 REVERT JUMPDEST DUP1 PUSH1 0x12 PUSH0 PUSH1 0xF SLOAD DUP2 MSTORE PUSH1 0x20 ADD SWAP1 DUP2 MSTORE PUSH1 0x20 ADD PUSH0 KECCAK256 DUP2 SWAP1 SSTORE POP PUSH1 0xF PUSH0 DUP2 SLOAD DUP1 SWAP3 SWAP2 SWAP1 PUSH2 0xAD8 SWAP1 PUSH2 0x3E96 JUMP JUMPDEST SWAP2 SWAP1 POP SSTORE POP PUSH32 0xE1976E16ED8CE8E740235978FBE69B27D5EEA683B2E017BB0BD2FABB33294B3F PUSH1 0xF SLOAD DUP3 PUSH2 0x2710 PUSH2 0xB0F SWAP2 SWAP1 PUSH2 0x3EDD JUMP JUMPDEST DUP4 PUSH1 0x40 MLOAD PUSH2 0xB1F SWAP4 SWAP3 SWAP2 SWAP1 PUSH2 0x3F10 JUMP JUMPDEST PUSH1 0x40 MLOAD DUP1 SWAP2 SUB SWAP1 LOG1 POP JUMP JUMPDEST PUSH1 0xE PUSH0 SWAP1 SLOAD SWAP1 PUSH2 0x100 EXP SWAP1 DIV PUSH20 0xFFFFFFFFFFFFFFFFFFFFFFFFFFFFFFFFFFFFFFFF AND DUP2 JUMP JUMPDEST PUSH1 0xB SLOAD DUP2 JUMP JUMPDEST PUSH1 0x9 PUSH1 0x14 SWAP1 SLOAD SWAP1 PUSH2 0x100 EXP SWAP1 DIV PUSH1 0xFF AND DUP2 JUMP JUMPDEST PUSH1 0x4 SLOAD DUP2 JUMP JUMPDEST PUSH1 0xC SLOAD DUP2 JUMP JUMPDEST PUSH1 0x7 SLOAD DUP2 JUMP JUMPDEST PUSH1 0xD SLOAD DUP2 JUMP JUMPDEST PUSH1 0x5 SLOAD DUP2 JUMP JUMPDEST PUSH1 0xE PUSH0 SWAP1 SLOAD SWAP1 PUSH2 0x100 EXP SWAP1 DIV PUSH20 0xFFFFFFFFFFFFFFFFFFFFFFFFFFFFFFFFFFFFFFFF AND PUSH20 0xFFFFFFFFFFFFFFFFFFFFFFFFFFFFFFFFFFFFFFFF AND CALLER PUSH20 0xFFFFFFFFFFFFFFFFFFFFFFFFFFFFFFFFFFFFFFFF AND EQ PUSH2 0xC15 JUMPI PUSH1 0x40 MLOAD PUSH32 0x8C379A000000000000000000000000000000000000000000000000000000000 DUP2 MSTORE PUSH1 0x4 ADD PUSH2 0xC0C SWAP1 PUSH2 0x3FB5 JUMP JUMPDEST PUSH1 0x40 MLOAD DUP1 SWAP2 SUB SWAP1 REVERT JUMPDEST PUSH0 PUSH1 0xA SLOAD SUB PUSH2 0xC5D JUMPI PUSH1 0xA SLOAD PUSH1 0x40 MLOAD PUSH32 0x7154000700000000000000000000000000000000000000000000000000000000 DUP2 MSTORE PUSH1 0x4 ADD PUSH2 0xC54 SWAP2 SWAP1 PUSH2 0x37D2 JUMP JUMPDEST PUSH1 0x40 MLOAD DUP1 SWAP2 SUB SWAP1 REVERT JUMPDEST PUSH1 0x9 PUSH1 0x14 SWAP1 SLOAD SWAP1 PUSH2 0x100 EXP SWAP1 DIV PUSH1 0xFF AND PUSH2 0xCDB JUMPI PUSH1 0xC SLOAD TIMESTAMP LT PUSH2 0xC97 JUMPI TIMESTAMP PUSH1 0xD DUP2 SWAP1 SSTORE POP PUSH2 0xC89 PUSH2 0x2692 JUMP JUMPDEST PUSH1 0xB SLOAD PUSH1 0xA DUP2 SWAP1 SSTORE POP PUSH2 0xCD6 JUMP JUMPDEST PUSH1 0xC SLOAD PUSH1 0x40 MLOAD PUSH32 0x54593E7500000000000000000000000000000000000000000000000000000000 DUP2 MSTORE PUSH1 0x4 ADD PUSH2 0xCCD SWAP2 SWAP1 PUSH2 0x37D2 JUMP JUMPDEST PUSH1 0x40 MLOAD DUP1 SWAP2 SUB SWAP1 REVERT JUMPDEST PUSH2 0xCEB JUMP JUMPDEST TIMESTAMP PUSH1 0xD DUP2 SWAP1 SSTORE POP PUSH2 0xCEA PUSH2 0x2692 JUMP JUMPDEST JUMPDEST PUSH1 0x9 PUSH1 0x14 SWAP1 SLOAD SWAP1 PUSH2 0x100 EXP SWAP1 DIV PUSH1 0xFF AND PUSH2 0xD1B JUMPI PUSH1 0x1 PUSH1 0x9 PUSH1 0x14 PUSH2 0x100 EXP DUP2 SLOAD DUP2 PUSH1 0xFF MUL NOT AND SWAP1 DUP4 ISZERO ISZERO MUL OR SWAP1 SSTORE POP JUMPDEST POP POP JUMP JUMPDEST PUSH2 0xD27 PUSH2 0x2CD5 JUMP JUMPDEST PUSH2 0xD30 DUP3 PUSH2 0x2DBB JUMP JUMPDEST PUSH2 0xD3A DUP3 DUP3 PUSH2 0x2DC6 JUMP JUMPDEST POP POP JUMP JUMPDEST PUSH2 0xD46 PUSH2 0x2C4E JUMP JUMPDEST PUSH0 DUP2 GT PUSH2 0xD8A JUMPI DUP1 PUSH1 0x40 MLOAD PUSH32 0x2FF4783000000000000000000000000000000000000000000000000000000000 DUP2 MSTORE PUSH1 0x4 ADD PUSH2 0xD81 SWAP2 SWAP1 PUSH2 0x37D2 JUMP JUMPDEST PUSH1 0x40 MLOAD DUP1 SWAP2 SUB SWAP1 REVERT JUMPDEST DUP1 PUSH1 0x1 PUSH0 DUP3 DUP3 SLOAD PUSH2 0xD9B SWAP2 SWAP1 PUSH2 0x3FD3 JUMP JUMPDEST SWAP3 POP POP DUP2 SWAP1 SSTORE POP PUSH0 DUP1 PUSH0 SWAP1 SLOAD SWAP1 PUSH2 0x100 EXP SWAP1 DIV PUSH20 0xFFFFFFFFFFFFFFFFFFFFFFFFFFFFFFFFFFFFFFFF AND PUSH20 0xFFFFFFFFFFFFFFFFFFFFFFFFFFFFFFFFFFFFFFFF AND PUSH4 0x23B872DD CALLER ADDRESS DUP6 PUSH1 0x40 MLOAD DUP5 PUSH4 0xFFFFFFFF AND PUSH1 0xE0 SHL DUP2 MSTORE PUSH1 0x4 ADD PUSH2 0xE00 SWAP4 SWAP3 SWAP2 SWAP1 PUSH2 0x4006 JUMP JUMPDEST PUSH1 0x20 PUSH1 0x40 MLOAD DUP1 DUP4 SUB DUP2 PUSH0 DUP8 GAS CALL ISZERO DUP1 ISZERO PUSH2 0xE1C JUMPI RETURNDATASIZE PUSH0 DUP1 RETURNDATACOPY RETURNDATASIZE PUSH0 REVERT JUMPDEST POP POP POP POP PUSH1 0x40 MLOAD RETURNDATASIZE PUSH1 0x1F NOT PUSH1 0x1F DUP3 ADD AND DUP3 ADD DUP1 PUSH1 0x40 MSTORE POP DUP2 ADD SWAP1 PUSH2 0xE40 SWAP2 SWAP1 PUSH2 0x404F JUMP JUMPDEST SWAP1 POP DUP1 PUSH2 0xE84 JUMPI DUP1 PUSH1 0x40 MLOAD PUSH32 0xD85D3CEF00000000000000000000000000000000000000000000000000000000 DUP2 MSTORE PUSH1 0x4 ADD PUSH2 0xE7B SWAP2 SWAP1 PUSH2 0x3937 JUMP JUMPDEST PUSH1 0x40 MLOAD DUP1 SWAP2 SUB SWAP1 REVERT JUMPDEST PUSH32 0xA9F166643EC132A11638E74E3C3A78D4AE278FCBF92998240E0E97676F54E404 PUSH1 0x1 SLOAD PUSH1 0x40 MLOAD PUSH2 0xEB5 SWAP2 SWAP1 PUSH2 0x37D2 JUMP JUMPDEST PUSH1 0x40 MLOAD DUP1 SWAP2 SUB SWAP1 LOG1 POP POP JUMP JUMPDEST PUSH0 PUSH2 0xECA PUSH2 0x2EE4 JUMP JUMPDEST PUSH32 0x360894A13BA1A3210667C828492DB98DCA3E2076CC3735A920A3CA505D382BBC PUSH0 SHL SWAP1 POP SWAP1 JUMP JUMPDEST PUSH1 0x9 PUSH0 SWAP1 SLOAD SWAP1 PUSH2 0x100 EXP SWAP1 DIV PUSH20 0xFFFFFFFFFFFFFFFFFFFFFFFFFFFFFFFFFFFFFFFF AND DUP2 JUMP JUMPDEST PUSH1 0x3 SLOAD DUP2 JUMP JUMPDEST PUSH2 0xF25 PUSH2 0x2C4E JUMP JUMPDEST PUSH0 DUP2 GT PUSH2 0xF69 JUMPI DUP1 PUSH1 0x40 MLOAD PUSH32 0x7154000700000000000000000000000000000000000000000000000000000000 DUP2 MSTORE PUSH1 0x4 ADD PUSH2 0xF60 SWAP2 SWAP1 PUSH2 0x37D2 JUMP JUMPDEST PUSH1 0x40 MLOAD DUP1 SWAP2 SUB SWAP1 REVERT JUMPDEST TIMESTAMP DUP3 LT ISZERO PUSH2 0xFAE JUMPI DUP2 PUSH1 0x40 MLOAD PUSH32 0x54593E7500000000000000000000000000000000000000000000000000000000 DUP2 MSTORE PUSH1 0x4 ADD PUSH2 0xFA5 SWAP2 SWAP1 PUSH2 0x37D2 JUMP JUMPDEST PUSH1 0x40 MLOAD DUP1 SWAP2 SUB SWAP1 REVERT JUMPDEST TIMESTAMP DUP3 PUSH2 0xFBA SWAP2 SWAP1 PUSH2 0x3EDD JUMP JUMPDEST PUSH1 0xA DUP2 SWAP1 SSTORE POP DUP2 PUSH1 0xC DUP2 SWAP1 SSTORE POP TIMESTAMP PUSH1 0xD DUP2 SWAP1 SSTORE POP DUP1 PUSH1 0xB DUP2 SWAP1 SSTORE POP PUSH32 0x2B5090E035D3026F5448298C9ADC68DB8BBC1B26A8AF5C81B2B2A9FC07CA4A00 CALLER PUSH1 0xA SLOAD PUSH1 0xD SLOAD PUSH1 0x40 MLOAD PUSH2 0x100C SWAP4 SWAP3 SWAP2 SWAP1 PUSH2 0x407A JUMP JUMPDEST PUSH1 0x40 MLOAD DUP1 SWAP2 SUB SWAP1 LOG1 POP POP JUMP JUMPDEST PUSH2 0x1020 PUSH2 0x2C4E JUMP JUMPDEST PUSH0 PUSH1 0xA DUP2 SWAP1 SSTORE POP PUSH0 PUSH1 0x9 PUSH1 0x14 PUSH2 0x100 EXP DUP2 SLOAD DUP2 PUSH1 0xFF MUL NOT AND SWAP1 DUP4 ISZERO ISZERO MUL OR SWAP1 SSTORE POP PUSH32 0x3B68DC4E210C46D3622293F2B941CDFDE795BB6E17286BB289BA05A6A3B5541F CALLER PUSH1 0xA SLOAD PUSH1 0x40 MLOAD PUSH2 0x1074 SWAP3 SWAP2 SWAP1 PUSH2 0x40AF JUMP JUMPDEST PUSH1 0x40 MLOAD DUP1 SWAP2 SUB SWAP1 LOG1 JUMP JUMPDEST PUSH1 0x9 PUSH1 0x15 SWAP1 SLOAD SWAP1 PUSH2 0x100 EXP SWAP1 DIV PUSH1 0xFF AND ISZERO PUSH2 0x10CE JUMPI PUSH1 0x40 MLOAD PUSH32 0x8C379A000000000000000000000000000000000000000000000000000000000 DUP2 MSTORE PUSH1 0x4 ADD PUSH2 0x10C5 SWAP1 PUSH2 0x4120 JUMP JUMPDEST PUSH1 0x40 MLOAD DUP1 SWAP2 SUB SWAP1 REVERT JUMPDEST PUSH1 0x1 PUSH1 0x9 PUSH1 0x15 PUSH2 0x100 EXP DUP2 SLOAD DUP2 PUSH1 0xFF MUL NOT AND SWAP1 DUP4 ISZERO ISZERO MUL OR SWAP1 SSTORE POP PUSH0 DUP2 GT PUSH2 0x112D JUMPI DUP1 PUSH1 0x40 MLOAD PUSH32 0x2FF4783000000000000000000000000000000000000000000000000000000000 DUP2 MSTORE PUSH1 0x4 ADD PUSH2 0x1124 SWAP2 SWAP1 PUSH2 0x37D2 JUMP JUMPDEST PUSH1 0x40 MLOAD DUP1 SWAP2 SUB SWAP1 REVERT JUMPDEST PUSH1 0x13 PUSH0 CALLER PUSH20 0xFFFFFFFFFFFFFFFFFFFFFFFFFFFFFFFFFFFFFFFF AND PUSH20 0xFFFFFFFFFFFFFFFFFFFFFFFFFFFFFFFFFFFFFFFF AND DUP2 MSTORE PUSH1 0x20 ADD SWAP1 DUP2 MSTORE PUSH1 0x20 ADD PUSH0 KECCAK256 PUSH1 0x1 ADD SLOAD DUP2 GT ISZERO PUSH2 0x11B0 JUMPI PUSH1 0x40 MLOAD PUSH32 0x8C379A000000000000000000000000000000000000000000000000000000000 DUP2 MSTORE PUSH1 0x4 ADD PUSH2 0x11A7 SWAP1 PUSH2 0x4188 JUMP JUMPDEST PUSH1 0x40 MLOAD DUP1 SWAP2 SUB SWAP1 REVERT JUMPDEST DUP1 PUSH1 0x13 PUSH0 CALLER PUSH20 0xFFFFFFFFFFFFFFFFFFFFFFFFFFFFFFFFFFFFFFFF AND PUSH20 0xFFFFFFFFFFFFFFFFFFFFFFFFFFFFFFFFFFFFFFFF AND DUP2 MSTORE PUSH1 0x20 ADD SWAP1 DUP2 MSTORE PUSH1 0x20 ADD PUSH0 KECCAK256 PUSH1 0x1 ADD PUSH0 DUP3 DUP3 SLOAD PUSH2 0x11FF SWAP2 SWAP1 PUSH2 0x3EDD JUMP JUMPDEST SWAP3 POP POP DUP2 SWAP1 SSTORE POP DUP1 PUSH1 0x13 PUSH0 CALLER PUSH20 0xFFFFFFFFFFFFFFFFFFFFFFFFFFFFFFFFFFFFFFFF AND PUSH20 0xFFFFFFFFFFFFFFFFFFFFFFFFFFFFFFFFFFFFFFFF AND DUP2 MSTORE PUSH1 0x20 ADD SWAP1 DUP2 MSTORE PUSH1 0x20 ADD PUSH0 KECCAK256 PUSH1 0x2 ADD PUSH0 DUP3 DUP3 SLOAD PUSH2 0x1255 SWAP2 SWAP1 PUSH2 0x3FD3 JUMP JUMPDEST SWAP3 POP POP DUP2 SWAP1 SSTORE POP PUSH0 DUP1 PUSH0 SWAP1 SLOAD SWAP1 PUSH2 0x100 EXP SWAP1 DIV PUSH20 0xFFFFFFFFFFFFFFFFFFFFFFFFFFFFFFFFFFFFFFFF AND PUSH20 0xFFFFFFFFFFFFFFFFFFFFFFFFFFFFFFFFFFFFFFFF AND PUSH4 0xA9059CBB CALLER DUP5 PUSH1 0x40 MLOAD DUP4 PUSH4 0xFFFFFFFF AND PUSH1 0xE0 SHL DUP2 MSTORE PUSH1 0x4 ADD PUSH2 0x12B8 SWAP3 SWAP2 SWAP1 PUSH2 0x40AF JUMP JUMPDEST PUSH1 0x20 PUSH1 0x40 MLOAD DUP1 DUP4 SUB DUP2 PUSH0 DUP8 GAS CALL ISZERO DUP1 ISZERO PUSH2 0x12D4 JUMPI RETURNDATASIZE PUSH0 DUP1 RETURNDATACOPY RETURNDATASIZE PUSH0 REVERT JUMPDEST POP POP POP POP PUSH1 0x40 MLOAD RETURNDATASIZE PUSH1 0x1F NOT PUSH1 0x1F DUP3 ADD AND DUP3 ADD DUP1 PUSH1 0x40 MSTORE POP DUP2 ADD SWAP1 PUSH2 0x12F8 SWAP2 SWAP1 PUSH2 0x404F JUMP JUMPDEST SWAP1 POP DUP1 PUSH2 0x133C JUMPI DUP1 PUSH1 0x40 MLOAD PUSH32 0xD85D3CEF00000000000000000000000000000000000000000000000000000000 DUP2 MSTORE PUSH1 0x4 ADD PUSH2 0x1333 SWAP2 SWAP1 PUSH2 0x3937 JUMP JUMPDEST PUSH1 0x40 MLOAD DUP1 SWAP2 SUB SWAP1 REVERT JUMPDEST PUSH32 0x884EDAD9CE6FA2440D8A54CC123490EB96D2768479D49FF9C7366125A9424364 CALLER DUP4 PUSH1 0x40 MLOAD PUSH2 0x136D SWAP3 SWAP2 SWAP1 PUSH2 0x40AF JUMP JUMPDEST PUSH1 0x40 MLOAD DUP1 SWAP2 SUB SWAP1 LOG1 POP PUSH0 PUSH1 0x9 PUSH1 0x15 PUSH2 0x100 EXP DUP2 SLOAD DUP2 PUSH1 0xFF MUL NOT AND SWAP1 DUP4 ISZERO ISZERO MUL OR SWAP1 SSTORE POP POP JUMP JUMPDEST PUSH0 PUSH1 0x60 PUSH0 PUSH1 0xA SLOAD PUSH1 0xD SLOAD TIMESTAMP PUSH2 0x13A8 SWAP2 SWAP1 PUSH2 0x3EDD JUMP JUMPDEST GT SWAP1 POP DUP1 PUSH1 0x40 MLOAD DUP1 PUSH1 0x20 ADD PUSH1 0x40 MSTORE DUP1 PUSH0 DUP2 MSTORE POP SWAP3 POP SWAP3 POP POP SWAP3 POP SWAP3 SWAP1 POP JUMP JUMPDEST PUSH2 0x13CF PUSH2 0x2C4E JUMP JUMPDEST PUSH2 0x13D8 PUSH0 PUSH2 0x2F6B JUMP JUMPDEST JUMP JUMPDEST PUSH0 DUP2 GT PUSH2 0x141E JUMPI DUP1 PUSH1 0x40 MLOAD PUSH32 0x2FF4783000000000000000000000000000000000000000000000000000000000 DUP2 MSTORE PUSH1 0x4 ADD PUSH2 0x1415 SWAP2 SWAP1 PUSH2 0x37D2 JUMP JUMPDEST PUSH1 0x40 MLOAD DUP1 SWAP2 SUB SWAP1 REVERT JUMPDEST PUSH1 0x13 PUSH0 CALLER PUSH20 0xFFFFFFFFFFFFFFFFFFFFFFFFFFFFFFFFFFFFFFFF AND PUSH20 0xFFFFFFFFFFFFFFFFFFFFFFFFFFFFFFFFFFFFFFFF AND DUP2 MSTORE PUSH1 0x20 ADD SWAP1 DUP2 MSTORE PUSH1 0x20 ADD PUSH0 KECCAK256 PUSH0 ADD PUSH0 SWAP1 SLOAD SWAP1 PUSH2 0x100 EXP SWAP1 DIV PUSH1 0xFF AND ISZERO PUSH2 0x14F7 JUMPI PUSH1 0x13 PUSH0 CALLER PUSH20 0xFFFFFFFFFFFFFFFFFFFFFFFFFFFFFFFFFFFFFFFF AND PUSH20 0xFFFFFFFFFFFFFFFFFFFFFFFFFFFFFFFFFFFFFFFF AND DUP2 MSTORE PUSH1 0x20 ADD SWAP1 DUP2 MSTORE PUSH1 0x20 ADD PUSH0 KECCAK256 PUSH0 ADD PUSH0 SWAP1 SLOAD SWAP1 PUSH2 0x100 EXP SWAP1 DIV PUSH1 0xFF AND PUSH1 0x40 MLOAD PUSH32 0x6FA5C3C000000000000000000000000000000000000000000000000000000000 DUP2 MSTORE PUSH1 0x4 ADD PUSH2 0x14EE SWAP2 SWAP1 PUSH2 0x3937 JUMP JUMPDEST PUSH1 0x40 MLOAD DUP1 SWAP2 SUB SWAP1 REVERT JUMPDEST DUP1 PUSH1 0x13 PUSH0 CALLER PUSH20 0xFFFFFFFFFFFFFFFFFFFFFFFFFFFFFFFFFFFFFFFF AND PUSH20 0xFFFFFFFFFFFFFFFFFFFFFFFFFFFFFFFFFFFFFFFF AND DUP2 MSTORE PUSH1 0x20 ADD SWAP1 DUP2 MSTORE PUSH1 0x20 ADD PUSH0 KECCAK256 PUSH1 0x5 ADD PUSH0 DUP3 DUP3 SLOAD PUSH2 0x1546 SWAP2 SWAP1 PUSH2 0x3FD3 JUMP JUMPDEST SWAP3 POP POP DUP2 SWAP1 SSTORE POP PUSH1 0x10 PUSH0 CALLER PUSH20 0xFFFFFFFFFFFFFFFFFFFFFFFFFFFFFFFFFFFFFFFF AND PUSH20 0xFFFFFFFFFFFFFFFFFFFFFFFFFFFFFFFFFFFFFFFF AND DUP2 MSTORE PUSH1 0x20 ADD SWAP1 DUP2 MSTORE PUSH1 0x20 ADD PUSH0 KECCAK256 PUSH0 SWAP1 SLOAD SWAP1 PUSH2 0x100 EXP SWAP1 DIV PUSH1 0xFF AND PUSH2 0x1659 JUMPI CALLER PUSH1 0x11 PUSH0 PUSH1 0x8 SLOAD DUP2 MSTORE PUSH1 0x20 ADD SWAP1 DUP2 MSTORE PUSH1 0x20 ADD PUSH0 KECCAK256 PUSH0 PUSH2 0x100 EXP DUP2 SLOAD DUP2 PUSH20 0xFFFFFFFFFFFFFFFFFFFFFFFFFFFFFFFFFFFFFFFF MUL NOT AND SWAP1 DUP4 PUSH20 0xFFFFFFFFFFFFFFFFFFFFFFFFFFFFFFFFFFFFFFFF AND MUL OR SWAP1 SSTORE POP PUSH1 0x1 PUSH1 0x10 PUSH0 CALLER PUSH20 0xFFFFFFFFFFFFFFFFFFFFFFFFFFFFFFFFFFFFFFFF AND PUSH20 0xFFFFFFFFFFFFFFFFFFFFFFFFFFFFFFFFFFFFFFFF AND DUP2 MSTORE PUSH1 0x20 ADD SWAP1 DUP2 MSTORE PUSH1 0x20 ADD PUSH0 KECCAK256 PUSH0 PUSH2 0x100 EXP DUP2 SLOAD DUP2 PUSH1 0xFF MUL NOT AND SWAP1 DUP4 ISZERO ISZERO MUL OR SWAP1 SSTORE POP PUSH1 0x8 PUSH0 DUP2 SLOAD DUP1 SWAP3 SWAP2 SWAP1 PUSH2 0x1653 SWAP1 PUSH2 0x3E96 JUMP JUMPDEST SWAP2 SWAP1 POP SSTORE POP JUMPDEST DUP1 PUSH1 0x3 PUSH0 DUP3 DUP3 SLOAD PUSH2 0x166A SWAP2 SWAP1 PUSH2 0x3FD3 JUMP JUMPDEST SWAP3 POP POP DUP2 SWAP1 SSTORE POP PUSH0 DUP1 PUSH0 SWAP1 SLOAD SWAP1 PUSH2 0x100 EXP SWAP1 DIV PUSH20 0xFFFFFFFFFFFFFFFFFFFFFFFFFFFFFFFFFFFFFFFF AND PUSH20 0xFFFFFFFFFFFFFFFFFFFFFFFFFFFFFFFFFFFFFFFF AND PUSH4 0x23B872DD CALLER PUSH1 0x9 PUSH0 SWAP1 SLOAD SWAP1 PUSH2 0x100 EXP SWAP1 DIV PUSH20 0xFFFFFFFFFFFFFFFFFFFFFFFFFFFFFFFFFFFFFFFF AND DUP6 PUSH1 0x40 MLOAD DUP5 PUSH4 0xFFFFFFFF AND PUSH1 0xE0 SHL DUP2 MSTORE PUSH1 0x4 ADD PUSH2 0x16F0 SWAP4 SWAP3 SWAP2 SWAP1 PUSH2 0x4006 JUMP JUMPDEST PUSH1 0x20 PUSH1 0x40 MLOAD DUP1 DUP4 SUB DUP2 PUSH0 DUP8 GAS CALL ISZERO DUP1 ISZERO PUSH2 0x170C JUMPI RETURNDATASIZE PUSH0 DUP1 RETURNDATACOPY RETURNDATASIZE PUSH0 REVERT JUMPDEST POP POP POP POP PUSH1 0x40 MLOAD RETURNDATASIZE PUSH1 0x1F NOT PUSH1 0x1F DUP3 ADD AND DUP3 ADD DUP1 PUSH1 0x40 MSTORE POP DUP2 ADD SWAP1 PUSH2 0x1730 SWAP2 SWAP1 PUSH2 0x404F JUMP JUMPDEST SWAP1 POP DUP1 PUSH2 0x1774 JUMPI DUP1 PUSH1 0x40 MLOAD PUSH32 0xD85D3CEF00000000000000000000000000000000000000000000000000000000 DUP2 MSTORE PUSH1 0x4 ADD PUSH2 0x176B SWAP2 SWAP1 PUSH2 0x3937 JUMP JUMPDEST PUSH1 0x40 MLOAD DUP1 SWAP2 SUB SWAP1 REVERT JUMPDEST PUSH32 0x14EE34C24635186D212F515353DADAE9C226529EDEF2D1FCF5504CB33B5C25AB CALLER PUSH1 0x9 PUSH0 SWAP1 SLOAD SWAP1 PUSH2 0x100 EXP SWAP1 DIV PUSH20 0xFFFFFFFFFFFFFFFFFFFFFFFFFFFFFFFFFFFFFFFF AND DUP5 PUSH1 0x40 MLOAD PUSH2 0x17C8 SWAP4 SWAP3 SWAP2 SWAP1 PUSH2 0x4006 JUMP JUMPDEST PUSH1 0x40 MLOAD DUP1 SWAP2 SUB SWAP1 LOG1 POP POP JUMP JUMPDEST PUSH2 0x17DC PUSH2 0x2C4E JUMP JUMPDEST PUSH0 DUP2 GT PUSH2 0x1820 JUMPI DUP1 PUSH1 0x40 MLOAD PUSH32 0x2FF4783000000000000000000000000000000000000000000000000000000000 DUP2 MSTORE PUSH1 0x4 ADD PUSH2 0x1817 SWAP2 SWAP1 PUSH2 0x37D2 JUMP JUMPDEST PUSH1 0x40 MLOAD DUP1 SWAP2 SUB SWAP1 REVERT JUMPDEST DUP1 PUSH1 0x2 PUSH0 DUP3 DUP3 SLOAD PUSH2 0x1831 SWAP2 SWAP1 PUSH2 0x3FD3 JUMP JUMPDEST SWAP3 POP POP DUP2 SWAP1 SSTORE POP PUSH0 DUP1 PUSH0 SWAP1 SLOAD SWAP1 PUSH2 0x100 EXP SWAP1 DIV PUSH20 0xFFFFFFFFFFFFFFFFFFFFFFFFFFFFFFFFFFFFFFFF AND PUSH20 0xFFFFFFFFFFFFFFFFFFFFFFFFFFFFFFFFFFFFFFFF AND PUSH4 0x23B872DD CALLER ADDRESS DUP6 PUSH1 0x40 MLOAD DUP5 PUSH4 0xFFFFFFFF AND PUSH1 0xE0 SHL DUP2 MSTORE PUSH1 0x4 ADD PUSH2 0x1896 SWAP4 SWAP3 SWAP2 SWAP1 PUSH2 0x4006 JUMP JUMPDEST PUSH1 0x20 PUSH1 0x40 MLOAD DUP1 DUP4 SUB DUP2 PUSH0 DUP8 GAS CALL ISZERO DUP1 ISZERO PUSH2 0x18B2 JUMPI RETURNDATASIZE PUSH0 DUP1 RETURNDATACOPY RETURNDATASIZE PUSH0 REVERT JUMPDEST POP POP POP POP PUSH1 0x40 MLOAD RETURNDATASIZE PUSH1 0x1F NOT PUSH1 0x1F DUP3 ADD AND DUP3 ADD DUP1 PUSH1 0x40 MSTORE POP DUP2 ADD SWAP1 PUSH2 0x18D6 SWAP2 SWAP1 PUSH2 0x404F JUMP JUMPDEST SWAP1 POP DUP1 PUSH2 0x191A JUMPI DUP1 PUSH1 0x40 MLOAD PUSH32 0xD85D3CEF00000000000000000000000000000000000000000000000000000000 DUP2 MSTORE PUSH1 0x4 ADD PUSH2 0x1911 SWAP2 SWAP1 PUSH2 0x3937 JUMP JUMPDEST PUSH1 0x40 MLOAD DUP1 SWAP2 SUB SWAP1 REVERT JUMPDEST PUSH32 0x73834E1D1EE73BA659470A3603B888903853D3A3C9FDA34E71C093A0E35CAB94 PUSH1 0x2 SLOAD PUSH1 0x40 MLOAD PUSH2 0x194B SWAP2 SWAP1 PUSH2 0x37D2 JUMP JUMPDEST PUSH1 0x40 MLOAD DUP1 SWAP2 SUB SWAP1 LOG1 POP POP JUMP JUMPDEST PUSH2 0x195F PUSH2 0x2C4E JUMP JUMPDEST PUSH0 DUP2 GT PUSH2 0x19A3 JUMPI DUP1 PUSH1 0x40 MLOAD PUSH32 0xCDBC633500000000000000000000000000000000000000000000000000000000 DUP2 MSTORE PUSH1 0x4 ADD PUSH2 0x199A SWAP2 SWAP1 PUSH2 0x37D2 JUMP JUMPDEST PUSH1 0x40 MLOAD DUP1 SWAP2 SUB SWAP1 REVERT JUMPDEST DUP1 PUSH1 0x7 DUP2 SWAP1 SSTORE POP PUSH32 0xB5671393C7C6980552E50A31E778921EB17D764C2E98FBF4D44FFF524712DEF9 CALLER PUSH1 0x7 SLOAD PUSH1 0x40 MLOAD PUSH2 0x19DD SWAP3 SWAP2 SWAP1 PUSH2 0x40AF JUMP JUMPDEST PUSH1 0x40 MLOAD DUP1 SWAP2 SUB SWAP1 LOG1 POP JUMP JUMPDEST PUSH2 0x19F0 PUSH2 0x2C4E JUMP JUMPDEST PUSH0 DUP2 GT PUSH2 0x1A34 JUMPI DUP1 PUSH1 0x40 MLOAD PUSH32 0xCDBC633500000000000000000000000000000000000000000000000000000000 DUP2 MSTORE PUSH1 0x4 ADD PUSH2 0x1A2B SWAP2 SWAP1 PUSH2 0x37D2 JUMP JUMPDEST PUSH1 0x40 MLOAD DUP1 SWAP2 SUB SWAP1 REVERT JUMPDEST DUP1 PUSH1 0x4 DUP2 SWAP1 SSTORE POP PUSH32 0xB5671393C7C6980552E50A31E778921EB17D764C2E98FBF4D44FFF524712DEF9 CALLER PUSH1 0x4 SLOAD PUSH1 0x40 MLOAD PUSH2 0x1A6E SWAP3 SWAP2 SWAP1 PUSH2 0x40AF JUMP JUMPDEST PUSH1 0x40 MLOAD DUP1 SWAP2 SUB SWAP1 LOG1 POP JUMP JUMPDEST PUSH0 DUP2 GT PUSH2 0x1ABD JUMPI DUP1 PUSH1 0x40 MLOAD PUSH32 0x2FF4783000000000000000000000000000000000000000000000000000000000 DUP2 MSTORE PUSH1 0x4 ADD PUSH2 0x1AB4 SWAP2 SWAP1 PUSH2 0x37D2 JUMP JUMPDEST PUSH1 0x40 MLOAD DUP1 SWAP2 SUB SWAP1 REVERT JUMPDEST PUSH1 0x13 PUSH0 CALLER PUSH20 0xFFFFFFFFFFFFFFFFFFFFFFFFFFFFFFFFFFFFFFFF AND PUSH20 0xFFFFFFFFFFFFFFFFFFFFFFFFFFFFFFFFFFFFFFFF AND DUP2 MSTORE PUSH1 0x20 ADD SWAP1 DUP2 MSTORE PUSH1 0x20 ADD PUSH0 KECCAK256 PUSH0 ADD PUSH0 SWAP1 SLOAD SWAP1 PUSH2 0x100 EXP SWAP1 DIV PUSH1 0xFF AND ISZERO PUSH2 0x1B96 JUMPI PUSH1 0x13 PUSH0 CALLER PUSH20 0xFFFFFFFFFFFFFFFFFFFFFFFFFFFFFFFFFFFFFFFF AND PUSH20 0xFFFFFFFFFFFFFFFFFFFFFFFFFFFFFFFFFFFFFFFF AND DUP2 MSTORE PUSH1 0x20 ADD SWAP1 DUP2 MSTORE PUSH1 0x20 ADD PUSH0 KECCAK256 PUSH0 ADD PUSH0 SWAP1 SLOAD SWAP1 PUSH2 0x100 EXP SWAP1 DIV PUSH1 0xFF AND PUSH1 0x40 MLOAD PUSH32 0x6FA5C3C000000000000000000000000000000000000000000000000000000000 DUP2 MSTORE PUSH1 0x4 ADD PUSH2 0x1B8D SWAP2 SWAP1 PUSH2 0x3937 JUMP JUMPDEST PUSH1 0x40 MLOAD DUP1 SWAP2 SUB SWAP1 REVERT JUMPDEST DUP1 PUSH1 0x13 PUSH0 CALLER PUSH20 0xFFFFFFFFFFFFFFFFFFFFFFFFFFFFFFFFFFFFFFFF AND PUSH20 0xFFFFFFFFFFFFFFFFFFFFFFFFFFFFFFFFFFFFFFFF AND DUP2 MSTORE PUSH1 0x20 ADD SWAP1 DUP2 MSTORE PUSH1 0x20 ADD PUSH0 KECCAK256 PUSH1 0x1 ADD SLOAD GT PUSH2 0x1C1A JUMPI DUP1 PUSH1 0x40 MLOAD PUSH32 0x31B6E35800000000000000000000000000000000000000000000000000000000 DUP2 MSTORE PUSH1 0x4 ADD PUSH2 0x1C11 SWAP2 SWAP1 PUSH2 0x37D2 JUMP JUMPDEST PUSH1 0x40 MLOAD DUP1 SWAP2 SUB SWAP1 REVERT JUMPDEST DUP1 PUSH1 0x13 PUSH0 CALLER PUSH20 0xFFFFFFFFFFFFFFFFFFFFFFFFFFFFFFFFFFFFFFFF AND PUSH20 0xFFFFFFFFFFFFFFFFFFFFFFFFFFFFFFFFFFFFFFFF AND DUP2 MSTORE PUSH1 0x20 ADD SWAP1 DUP2 MSTORE PUSH1 0x20 ADD PUSH0 KECCAK256 PUSH1 0x1 ADD PUSH0 DUP3 DUP3 SLOAD PUSH2 0x1C69 SWAP2 SWAP1 PUSH2 0x3EDD JUMP JUMPDEST SWAP3 POP POP DUP2 SWAP1 SSTORE POP DUP1 PUSH1 0x13 PUSH0 CALLER PUSH20 0xFFFFFFFFFFFFFFFFFFFFFFFFFFFFFFFFFFFFFFFF AND PUSH20 0xFFFFFFFFFFFFFFFFFFFFFFFFFFFFFFFFFFFFFFFF AND DUP2 MSTORE PUSH1 0x20 ADD SWAP1 DUP2 MSTORE PUSH1 0x20 ADD PUSH0 KECCAK256 PUSH1 0x5 ADD PUSH0 DUP3 DUP3 SLOAD PUSH2 0x1CBF SWAP2 SWAP1 PUSH2 0x3FD3 JUMP JUMPDEST SWAP3 POP POP DUP2 SWAP1 SSTORE POP DUP1 PUSH1 0x2 PUSH0 DUP3 DUP3 SLOAD PUSH2 0x1CD7 SWAP2 SWAP1 PUSH2 0x3FD3 JUMP JUMPDEST SWAP3 POP POP DUP2 SWAP1 SSTORE POP DUP1 PUSH1 0x3 PUSH0 DUP3 DUP3 SLOAD PUSH2 0x1CEF SWAP2 SWAP1 PUSH2 0x3FD3 JUMP JUMPDEST SWAP3 POP POP DUP2 SWAP1 SSTORE POP PUSH32 0x14EE34C24635186D212F515353DADAE9C226529EDEF2D1FCF5504CB33B5C25AB CALLER ADDRESS DUP4 PUSH1 0x40 MLOAD PUSH2 0x1D29 SWAP4 SWAP3 SWAP2 SWAP1 PUSH2 0x4006 JUMP JUMPDEST PUSH1 0x40 MLOAD DUP1 SWAP2 SUB SWAP1 LOG1 POP JUMP JUMPDEST PUSH0 DUP3 GT PUSH2 0x1D78 JUMPI DUP2 PUSH1 0x40 MLOAD PUSH32 0x2FF4783000000000000000000000000000000000000000000000000000000000 DUP2 MSTORE PUSH1 0x4 ADD PUSH2 0x1D6F SWAP2 SWAP1 PUSH2 0x37D2 JUMP JUMPDEST PUSH1 0x40 MLOAD DUP1 SWAP2 SUB SWAP1 REVERT JUMPDEST PUSH1 0xF SLOAD DUP2 GT ISZERO PUSH2 0x1DBF JUMPI DUP1 PUSH1 0x40 MLOAD PUSH32 0x222A50F300000000000000000000000000000000000000000000000000000000 DUP2 MSTORE PUSH1 0x4 ADD PUSH2 0x1DB6 SWAP2 SWAP1 PUSH2 0x37D2 JUMP JUMPDEST PUSH1 0x40 MLOAD DUP1 SWAP2 SUB SWAP1 REVERT JUMPDEST PUSH2 0x1DDA DUP3 PUSH1 0x12 PUSH0 DUP5 DUP2 MSTORE PUSH1 0x20 ADD SWAP1 DUP2 MSTORE PUSH1 0x20 ADD PUSH0 KECCAK256 SLOAD PUSH2 0x303C JUMP JUMPDEST PUSH0 DUP1 PUSH0 SWAP1 SLOAD SWAP1 PUSH2 0x100 EXP SWAP1 DIV PUSH20 0xFFFFFFFFFFFFFFFFFFFFFFFFFFFFFFFFFFFFFFFF AND PUSH20 0xFFFFFFFFFFFFFFFFFFFFFFFFFFFFFFFFFFFFFFFF AND PUSH4 0x23B872DD CALLER ADDRESS DUP7 PUSH1 0x40 MLOAD DUP5 PUSH4 0xFFFFFFFF AND PUSH1 0xE0 SHL DUP2 MSTORE PUSH1 0x4 ADD PUSH2 0x1E38 SWAP4 SWAP3 SWAP2 SWAP1 PUSH2 0x4006 JUMP JUMPDEST PUSH1 0x20 PUSH1 0x40 MLOAD DUP1 DUP4 SUB DUP2 PUSH0 DUP8 GAS CALL ISZERO DUP1 ISZERO PUSH2 0x1E54 JUMPI RETURNDATASIZE PUSH0 DUP1 RETURNDATACOPY RETURNDATASIZE PUSH0 REVERT JUMPDEST POP POP POP POP PUSH1 0x40 MLOAD RETURNDATASIZE PUSH1 0x1F NOT PUSH1 0x1F DUP3 ADD AND DUP3 ADD DUP1 PUSH1 0x40 MSTORE POP DUP2 ADD SWAP1 PUSH2 0x1E78 SWAP2 SWAP1 PUSH2 0x404F JUMP JUMPDEST SWAP1 POP DUP1 PUSH2 0x1EBC JUMPI DUP1 PUSH1 0x40 MLOAD PUSH32 0xD85D3CEF00000000000000000000000000000000000000000000000000000000 DUP2 MSTORE PUSH1 0x4 ADD PUSH2 0x1EB3 SWAP2 SWAP1 PUSH2 0x3937 JUMP JUMPDEST PUSH1 0x40 MLOAD DUP1 SWAP2 SUB SWAP1 REVERT JUMPDEST PUSH32 0xA89B69C5958EC1CCF0DF0DE746A8708F5B6A6B429430129F16F46F44B319C900 DUP4 DUP4 PUSH1 0x40 MLOAD PUSH2 0x1EED SWAP3 SWAP2 SWAP1 PUSH2 0x41A6 JUMP JUMPDEST PUSH1 0x40 MLOAD DUP1 SWAP2 SUB SWAP1 LOG1 POP POP POP JUMP JUMPDEST PUSH0 DUP1 PUSH2 0x1F04 PUSH2 0x309E JUMP JUMPDEST SWAP1 POP DUP1 PUSH0 ADD PUSH0 SWAP1 SLOAD SWAP1 PUSH2 0x100 EXP SWAP1 DIV PUSH20 0xFFFFFFFFFFFFFFFFFFFFFFFFFFFFFFFFFFFFFFFF AND SWAP2 POP POP SWAP1 JUMP JUMPDEST PUSH1 0xA SLOAD DUP2 JUMP JUMPDEST PUSH1 0xF SLOAD DUP2 JUMP JUMPDEST PUSH1 0x11 PUSH1 0x20 MSTORE DUP1 PUSH0 MSTORE PUSH1 0x40 PUSH0 KECCAK256 PUSH0 SWAP2 POP SLOAD SWAP1 PUSH2 0x100 EXP SWAP1 DIV PUSH20 0xFFFFFFFFFFFFFFFFFFFFFFFFFFFFFFFFFFFFFFFF AND DUP2 JUMP JUMPDEST PUSH1 0x40 MLOAD DUP1 PUSH1 0x40 ADD PUSH1 0x40 MSTORE DUP1 PUSH1 0x5 DUP2 MSTORE PUSH1 0x20 ADD PUSH32 0x352E302E30000000000000000000000000000000000000000000000000000000 DUP2 MSTORE POP DUP2 JUMP JUMPDEST PUSH2 0x1FAC PUSH2 0x2C4E JUMP JUMPDEST PUSH0 DUP2 GT PUSH2 0x1FF0 JUMPI DUP1 PUSH1 0x40 MLOAD PUSH32 0xCDBC633500000000000000000000000000000000000000000000000000000000 DUP2 MSTORE PUSH1 0x4 ADD PUSH2 0x1FE7 SWAP2 SWAP1 PUSH2 0x37D2 JUMP JUMPDEST PUSH1 0x40 MLOAD DUP1 SWAP2 SUB SWAP1 REVERT JUMPDEST DUP1 PUSH1 0x6 DUP2 SWAP1 SSTORE POP PUSH32 0xB5671393C7C6980552E50A31E778921EB17D764C2E98FBF4D44FFF524712DEF9 CALLER PUSH1 0x6 SLOAD PUSH1 0x40 MLOAD PUSH2 0x202A SWAP3 SWAP2 SWAP1 PUSH2 0x40AF JUMP JUMPDEST PUSH1 0x40 MLOAD DUP1 SWAP2 SUB SWAP1 LOG1 POP JUMP JUMPDEST PUSH1 0x2 SLOAD DUP2 JUMP JUMPDEST PUSH2 0x2043 PUSH2 0x2C4E JUMP JUMPDEST PUSH0 DUP2 GT PUSH2 0x2087 JUMPI DUP1 PUSH1 0x40 MLOAD PUSH32 0xCDBC633500000000000000000000000000000000000000000000000000000000 DUP2 MSTORE PUSH1 0x4 ADD PUSH2 0x207E SWAP2 SWAP1 PUSH2 0x37D2 JUMP JUMPDEST PUSH1 0x40 MLOAD DUP1 SWAP2 SUB SWAP1 REVERT JUMPDEST DUP1 PUSH1 0x5 DUP2 SWAP1 SSTORE POP PUSH32 0xB5671393C7C6980552E50A31E778921EB17D764C2E98FBF4D44FFF524712DEF9 CALLER PUSH1 0x5 SLOAD PUSH1 0x40 MLOAD PUSH2 0x20C1 SWAP3 SWAP2 SWAP1 PUSH2 0x40AF JUMP JUMPDEST PUSH1 0x40 MLOAD DUP1 SWAP2 SUB SWAP1 LOG1 POP JUMP JUMPDEST PUSH1 0x13 PUSH1 0x20 MSTORE DUP1 PUSH0 MSTORE PUSH1 0x40 PUSH0 KECCAK256 PUSH0 SWAP2 POP SWAP1 POP DUP1 PUSH0 ADD PUSH0 SWAP1 SLOAD SWAP1 PUSH2 0x100 EXP SWAP1 DIV PUSH1 0xFF AND SWAP1 DUP1 PUSH1 0x1 ADD SLOAD SWAP1 DUP1 PUSH1 0x2 ADD SLOAD SWAP1 DUP1 PUSH1 0x3 ADD SLOAD SWAP1 DUP1 PUSH1 0x4 ADD SLOAD SWAP1 DUP1 PUSH1 0x5 ADD SLOAD SWAP1 POP DUP7 JUMP JUMPDEST PUSH0 PUSH2 0x2119 PUSH2 0x30C5 JUMP JUMPDEST SWAP1 POP PUSH0 DUP2 PUSH0 ADD PUSH1 0x8 SWAP1 SLOAD SWAP1 PUSH2 0x100 EXP SWAP1 DIV PUSH1 0xFF AND ISZERO SWAP1 POP PUSH0 DUP3 PUSH0 ADD PUSH0 SWAP1 SLOAD SWAP1 PUSH2 0x100 EXP SWAP1 DIV PUSH8 0xFFFFFFFFFFFFFFFF AND SWAP1 POP PUSH0 DUP1 DUP3 PUSH8 0xFFFFFFFFFFFFFFFF AND EQ DUP1 ISZERO PUSH2 0x2161 JUMPI POP DUP3 JUMPDEST SWAP1 POP PUSH0 PUSH1 0x1 DUP4 PUSH8 0xFFFFFFFFFFFFFFFF AND EQ DUP1 ISZERO PUSH2 0x2194 JUMPI POP PUSH0 ADDRESS PUSH20 0xFFFFFFFFFFFFFFFFFFFFFFFFFFFFFFFFFFFFFFFF AND EXTCODESIZE EQ JUMPDEST SWAP1 POP DUP2 ISZERO DUP1 ISZERO PUSH2 0x21A2 JUMPI POP DUP1 ISZERO JUMPDEST ISZERO PUSH2 0x21D9 JUMPI PUSH1 0x40 MLOAD PUSH32 0xF92EE8A900000000000000000000000000000000000000000000000000000000 DUP2 MSTORE PUSH1 0x4 ADD PUSH1 0x40 MLOAD DUP1 SWAP2 SUB SWAP1 REVERT JUMPDEST PUSH1 0x1 DUP6 PUSH0 ADD PUSH0 PUSH2 0x100 EXP DUP2 SLOAD DUP2 PUSH8 0xFFFFFFFFFFFFFFFF MUL NOT AND SWAP1 DUP4 PUSH8 0xFFFFFFFFFFFFFFFF AND MUL OR SWAP1 SSTORE POP DUP4 ISZERO PUSH2 0x2226 JUMPI PUSH1 0x1 DUP6 PUSH0 ADD PUSH1 0x8 PUSH2 0x100 EXP DUP2 SLOAD DUP2 PUSH1 0xFF MUL NOT AND SWAP1 DUP4 ISZERO ISZERO MUL OR SWAP1 SSTORE POP JUMPDEST PUSH2 0x222F DUP9 PUSH2 0x30EC JUMP JUMPDEST PUSH2 0x2237 PUSH2 0x3100 JUMP JUMPDEST DUP7 PUSH0 DUP1 PUSH2 0x100 EXP DUP2 SLOAD DUP2 PUSH20 0xFFFFFFFFFFFFFFFFFFFFFFFFFFFFFFFFFFFFFFFF MUL NOT AND SWAP1 DUP4 PUSH20 0xFFFFFFFFFFFFFFFFFFFFFFFFFFFFFFFFFFFFFFFF AND MUL OR SWAP1 SSTORE POP PUSH2 0x1388 PUSH1 0x4 DUP2 SWAP1 SSTORE POP PUSH2 0x1D4C PUSH1 0x5 DUP2 SWAP1 SSTORE POP PUSH2 0x5DC PUSH1 0x6 DUP2 SWAP1 SSTORE POP PUSH2 0x3E8 PUSH1 0x7 DUP2 SWAP1 SSTORE POP DUP6 PUSH1 0x9 PUSH0 PUSH2 0x100 EXP DUP2 SLOAD DUP2 PUSH20 0xFFFFFFFFFFFFFFFFFFFFFFFFFFFFFFFFFFFFFFFF MUL NOT AND SWAP1 DUP4 PUSH20 0xFFFFFFFFFFFFFFFFFFFFFFFFFFFFFFFFFFFFFFFF AND MUL OR SWAP1 SSTORE POP DUP4 ISZERO PUSH2 0x2334 JUMPI PUSH0 DUP6 PUSH0 ADD PUSH1 0x8 PUSH2 0x100 EXP DUP2 SLOAD DUP2 PUSH1 0xFF MUL NOT AND SWAP1 DUP4 ISZERO ISZERO MUL OR SWAP1 SSTORE POP PUSH32 0xC7F505B2F371AE2175EE4913F4499E1F2633A7B5936321EED1CDAEB6115181D2 PUSH1 0x1 PUSH1 0x40 MLOAD PUSH2 0x232B SWAP2 SWAP1 PUSH2 0x4219 JUMP JUMPDEST PUSH1 0x40 MLOAD DUP1 SWAP2 SUB SWAP1 LOG1 JUMPDEST POP POP POP POP POP POP POP POP JUMP JUMPDEST PUSH1 0x10 PUSH1 0x20 MSTORE DUP1 PUSH0 MSTORE PUSH1 0x40 PUSH0 KECCAK256 PUSH0 SWAP2 POP SLOAD SWAP1 PUSH2 0x100 EXP SWAP1 DIV PUSH1 0xFF AND DUP2 JUMP JUMPDEST PUSH1 0x6 SLOAD DUP2 JUMP JUMPDEST PUSH2 0x2369 PUSH2 0x2C4E JUMP JUMPDEST PUSH0 PUSH20 0xFFFFFFFFFFFFFFFFFFFFFFFFFFFFFFFFFFFFFFFF AND DUP2 PUSH20 0xFFFFFFFFFFFFFFFFFFFFFFFFFFFFFFFFFFFFFFFF AND SUB PUSH2 0x23D9 JUMPI DUP1 PUSH1 0x40 MLOAD PUSH32 0xE4CFA94D00000000000000000000000000000000000000000000000000000000 DUP2 MSTORE PUSH1 0x4 ADD PUSH2 0x23D0 SWAP2 SWAP1 PUSH2 0x3904 JUMP JUMPDEST PUSH1 0x40 MLOAD DUP1 SWAP2 SUB SWAP1 REVERT JUMPDEST DUP1 PUSH1 0xE PUSH0 PUSH2 0x100 EXP DUP2 SLOAD DUP2 PUSH20 0xFFFFFFFFFFFFFFFFFFFFFFFFFFFFFFFFFFFFFFFF MUL NOT AND SWAP1 DUP4 PUSH20 0xFFFFFFFFFFFFFFFFFFFFFFFFFFFFFFFFFFFFFFFF AND MUL OR SWAP1 SSTORE POP PUSH32 0x75F91F3CECB8C46F20150F60F77A6E1F0DE00776627692DB82EF1960AF84C33A CALLER PUSH1 0xE PUSH0 SWAP1 SLOAD SWAP1 PUSH2 0x100 EXP SWAP1 DIV PUSH20 0xFFFFFFFFFFFFFFFFFFFFFFFFFFFFFFFFFFFFFFFF AND PUSH1 0x40 MLOAD PUSH2 0x246B SWAP3 SWAP2 SWAP1 PUSH2 0x4232 JUMP JUMPDEST PUSH1 0x40 MLOAD DUP1 SWAP2 SUB SWAP1 LOG1 POP JUMP JUMPDEST PUSH2 0x247E PUSH2 0x2C4E JUMP JUMPDEST PUSH0 PUSH20 0xFFFFFFFFFFFFFFFFFFFFFFFFFFFFFFFFFFFFFFFF AND DUP3 PUSH20 0xFFFFFFFFFFFFFFFFFFFFFFFFFFFFFFFFFFFFFFFF AND SUB PUSH2 0x24EE JUMPI DUP2 PUSH1 0x40 MLOAD PUSH32 0xE4CFA94D00000000000000000000000000000000000000000000000000000000 DUP2 MSTORE PUSH1 0x4 ADD PUSH2 0x24E5 SWAP2 SWAP1 PUSH2 0x3904 JUMP JUMPDEST PUSH1 0x40 MLOAD DUP1 SWAP2 SUB SWAP1 REVERT JUMPDEST PUSH1 0x1 ISZERO ISZERO DUP2 ISZERO ISZERO EQ ISZERO DUP1 ISZERO PUSH2 0x2507 JUMPI POP PUSH0 ISZERO ISZERO DUP2 ISZERO ISZERO EQ ISZERO JUMPDEST ISZERO PUSH2 0x2549 JUMPI DUP1 PUSH1 0x40 MLOAD PUSH32 0x81ED1AE300000000000000000000000000000000000000000000000000000000 DUP2 MSTORE PUSH1 0x4 ADD PUSH2 0x2540 SWAP2 SWAP1 PUSH2 0x3937 JUMP JUMPDEST PUSH1 0x40 MLOAD DUP1 SWAP2 SUB SWAP1 REVERT JUMPDEST PUSH1 0x1 ISZERO ISZERO DUP2 ISZERO ISZERO SUB PUSH2 0x25B1 JUMPI PUSH1 0x1 PUSH1 0x13 PUSH0 DUP5 PUSH20 0xFFFFFFFFFFFFFFFFFFFFFFFFFFFFFFFFFFFFFFFF AND PUSH20 0xFFFFFFFFFFFFFFFFFFFFFFFFFFFFFFFFFFFFFFFF AND DUP2 MSTORE PUSH1 0x20 ADD SWAP1 DUP2 MSTORE PUSH1 0x20 ADD PUSH0 KECCAK256 PUSH0 ADD PUSH0 PUSH2 0x100 EXP DUP2 SLOAD DUP2 PUSH1 0xFF MUL NOT AND SWAP1 DUP4 ISZERO ISZERO MUL OR SWAP1 SSTORE POP PUSH2 0x2608 JUMP JUMPDEST PUSH0 PUSH1 0x13 PUSH0 DUP5 PUSH20 0xFFFFFFFFFFFFFFFFFFFFFFFFFFFFFFFFFFFFFFFF AND PUSH20 0xFFFFFFFFFFFFFFFFFFFFFFFFFFFFFFFFFFFFFFFF AND DUP2 MSTORE PUSH1 0x20 ADD SWAP1 DUP2 MSTORE PUSH1 0x20 ADD PUSH0 KECCAK256 PUSH0 ADD PUSH0 PUSH2 0x100 EXP DUP2 SLOAD DUP2 PUSH1 0xFF MUL NOT AND SWAP1 DUP4 ISZERO ISZERO MUL OR SWAP1 SSTORE POP JUMPDEST PUSH32 0x7A1655BC3160D3413BF1D5235E55BE12E01B7E8BC2436A9BFF09C3B4FA2421F1 CALLER DUP4 PUSH1 0x13 PUSH0 DUP7 PUSH20 0xFFFFFFFFFFFFFFFFFFFFFFFFFFFFFFFFFFFFFFFF AND PUSH20 0xFFFFFFFFFFFFFFFFFFFFFFFFFFFFFFFFFFFFFFFF AND DUP2 MSTORE PUSH1 0x20 ADD SWAP1 DUP2 MSTORE PUSH1 0x20 ADD PUSH0 KECCAK256 PUSH0 ADD PUSH0 SWAP1 SLOAD SWAP1 PUSH2 0x100 EXP SWAP1 DIV PUSH1 0xFF AND PUSH1 0x40 MLOAD PUSH2 0x2686 SWAP4 SWAP3 SWAP2 SWAP1 PUSH2 0x4259 JUMP JUMPDEST PUSH1 0x40 MLOAD DUP1 SWAP2 SUB SWAP1 LOG1 POP POP JUMP JUMPDEST PUSH1 0xE PUSH0 SWAP1 SLOAD SWAP1 PUSH2 0x100 EXP SWAP1 DIV PUSH20 0xFFFFFFFFFFFFFFFFFFFFFFFFFFFFFFFFFFFFFFFF AND PUSH20 0xFFFFFFFFFFFFFFFFFFFFFFFFFFFFFFFFFFFFFFFF AND CALLER PUSH20 0xFFFFFFFFFFFFFFFFFFFFFFFFFFFFFFFFFFFFFFFF AND EQ PUSH2 0x2721 JUMPI PUSH1 0x40 MLOAD PUSH32 0x8C379A000000000000000000000000000000000000000000000000000000000 DUP2 MSTORE PUSH1 0x4 ADD PUSH2 0x2718 SWAP1 PUSH2 0x3FB5 JUMP JUMPDEST PUSH1 0x40 MLOAD DUP1 SWAP2 SUB SWAP1 REVERT JUMPDEST PUSH0 DUP1 PUSH0 PUSH2 0x272C PUSH2 0x310A JUMP JUMPDEST SWAP3 POP SWAP3 POP SWAP3 POP PUSH0 PUSH1 0x2 SLOAD GT DUP1 ISZERO PUSH2 0x2744 JUMPI POP PUSH0 PUSH1 0x1 SLOAD GT JUMPDEST PUSH2 0x2783 JUMPI PUSH1 0x40 MLOAD PUSH32 0x8C379A000000000000000000000000000000000000000000000000000000000 DUP2 MSTORE PUSH1 0x4 ADD PUSH2 0x277A SWAP1 PUSH2 0x42D8 JUMP JUMPDEST PUSH1 0x40 MLOAD DUP1 SWAP2 SUB SWAP1 REVERT JUMPDEST PUSH0 DUP1 PUSH0 SWAP1 POP JUMPDEST PUSH1 0x8 SLOAD DUP2 LT ISZERO PUSH2 0x2ABF JUMPI PUSH1 0x13 PUSH0 PUSH1 0x11 PUSH0 DUP5 DUP2 MSTORE PUSH1 0x20 ADD SWAP1 DUP2 MSTORE PUSH1 0x20 ADD PUSH0 KECCAK256 PUSH0 SWAP1 SLOAD SWAP1 PUSH2 0x100 EXP SWAP1 DIV PUSH20 0xFFFFFFFFFFFFFFFFFFFFFFFFFFFFFFFFFFFFFFFF AND PUSH20 0xFFFFFFFFFFFFFFFFFFFFFFFFFFFFFFFFFFFFFFFF AND PUSH20 0xFFFFFFFFFFFFFFFFFFFFFFFFFFFFFFFFFFFFFFFF AND DUP2 MSTORE PUSH1 0x20 ADD SWAP1 DUP2 MSTORE PUSH1 0x20 ADD PUSH0 KECCAK256 PUSH0 ADD PUSH0 SWAP1 SLOAD SWAP1 PUSH2 0x100 EXP SWAP1 DIV PUSH1 0xFF AND PUSH2 0x2AB2 JUMPI PUSH0 PUSH1 0x3 SLOAD PUSH2 0x2710 PUSH1 0x13 PUSH0 PUSH1 0x11 PUSH0 DUP8 DUP2 MSTORE PUSH1 0x20 ADD SWAP1 DUP2 MSTORE PUSH1 0x20 ADD PUSH0 KECCAK256 PUSH0 SWAP1 SLOAD SWAP1 PUSH2 0x100 EXP SWAP1 DIV PUSH20 0xFFFFFFFFFFFFFFFFFFFFFFFFFFFFFFFFFFFFFFFF AND PUSH20 0xFFFFFFFFFFFFFFFFFFFFFFFFFFFFFFFFFFFFFFFF AND PUSH20 0xFFFFFFFFFFFFFFFFFFFFFFFFFFFFFFFFFFFFFFFF AND DUP2 MSTORE PUSH1 0x20 ADD SWAP1 DUP2 MSTORE PUSH1 0x20 ADD PUSH0 KECCAK256 PUSH1 0x5 ADD SLOAD PUSH2 0x2895 SWAP2 SWAP1 PUSH2 0x42F6 JUMP JUMPDEST PUSH2 0x289F SWAP2 SWAP1 PUSH2 0x4364 JUMP JUMPDEST SWAP1 POP PUSH0 PUSH2 0x28AC DUP7 DUP4 PUSH2 0x3302 JUMP JUMPDEST SWAP1 POP DUP1 PUSH1 0x2 PUSH0 DUP3 DUP3 SLOAD PUSH2 0x28BF SWAP2 SWAP1 PUSH2 0x3EDD JUMP JUMPDEST SWAP3 POP POP DUP2 SWAP1 SSTORE POP DUP1 DUP5 PUSH2 0x28D2 SWAP2 SWAP1 PUSH2 0x3FD3 JUMP JUMPDEST SWAP4 POP DUP5 PUSH1 0x1 PUSH0 DUP3 DUP3 SLOAD PUSH2 0x28E5 SWAP2 SWAP1 PUSH2 0x3EDD JUMP JUMPDEST SWAP3 POP POP DUP2 SWAP1 SSTORE POP DUP5 PUSH1 0x13 PUSH0 PUSH1 0x11 PUSH0 DUP8 DUP2 MSTORE PUSH1 0x20 ADD SWAP1 DUP2 MSTORE PUSH1 0x20 ADD PUSH0 KECCAK256 PUSH0 SWAP1 SLOAD SWAP1 PUSH2 0x100 EXP SWAP1 DIV PUSH20 0xFFFFFFFFFFFFFFFFFFFFFFFFFFFFFFFFFFFFFFFF AND PUSH20 0xFFFFFFFFFFFFFFFFFFFFFFFFFFFFFFFFFFFFFFFF AND PUSH20 0xFFFFFFFFFFFFFFFFFFFFFFFFFFFFFFFFFFFFFFFF AND DUP2 MSTORE PUSH1 0x20 ADD SWAP1 DUP2 MSTORE PUSH1 0x20 ADD PUSH0 KECCAK256 PUSH1 0x3 ADD DUP2 SWAP1 SSTORE POP DUP1 PUSH1 0x13 PUSH0 PUSH1 0x11 PUSH0 DUP8 DUP2 MSTORE PUSH1 0x20 ADD SWAP1 DUP2 MSTORE PUSH1 0x20 ADD PUSH0 KECCAK256 PUSH0 SWAP1 SLOAD SWAP1 PUSH2 0x100 EXP SWAP1 DIV PUSH20 0xFFFFFFFFFFFFFFFFFFFFFFFFFFFFFFFFFFFFFFFF AND PUSH20 0xFFFFFFFFFFFFFFFFFFFFFFFFFFFFFFFFFFFFFFFF AND PUSH20 0xFFFFFFFFFFFFFFFFFFFFFFFFFFFFFFFFFFFFFFFF AND DUP2 MSTORE PUSH1 0x20 ADD SWAP1 DUP2 MSTORE PUSH1 0x20 ADD PUSH0 KECCAK256 PUSH1 0x4 ADD DUP2 SWAP1 SSTORE POP PUSH0 DUP6 DUP3 PUSH2 0x29E3 SWAP2 SWAP1 PUSH2 0x3FD3 JUMP JUMPDEST SWAP1 POP DUP1 PUSH1 0x13 PUSH0 PUSH1 0x11 PUSH0 DUP9 DUP2 MSTORE PUSH1 0x20 ADD SWAP1 DUP2 MSTORE PUSH1 0x20 ADD PUSH0 KECCAK256 PUSH0 SWAP1 SLOAD SWAP1 PUSH2 0x100 EXP SWAP1 DIV PUSH20 0xFFFFFFFFFFFFFFFFFFFFFFFFFFFFFFFFFFFFFFFF AND PUSH20 0xFFFFFFFFFFFFFFFFFFFFFFFFFFFFFFFFFFFFFFFF AND PUSH20 0xFFFFFFFFFFFFFFFFFFFFFFFFFFFFFFFFFFFFFFFF AND DUP2 MSTORE PUSH1 0x20 ADD SWAP1 DUP2 MSTORE PUSH1 0x20 ADD PUSH0 KECCAK256 PUSH1 0x1 ADD PUSH0 DUP3 DUP3 SLOAD PUSH2 0x2A64 SWAP2 SWAP1 PUSH2 0x3FD3 JUMP JUMPDEST SWAP3 POP POP DUP2 SWAP1 SSTORE POP DUP8 DUP6 GT ISZERO PUSH2 0x2AAE JUMPI PUSH1 0x40 MLOAD PUSH32 0x8C379A000000000000000000000000000000000000000000000000000000000 DUP2 MSTORE PUSH1 0x4 ADD PUSH2 0x2AA5 SWAP1 PUSH2 0x43DE JUMP JUMPDEST PUSH1 0x40 MLOAD DUP1 SWAP2 SUB SWAP1 REVERT JUMPDEST POP POP POP JUMPDEST DUP1 DUP1 PUSH1 0x1 ADD SWAP2 POP POP PUSH2 0x2789 JUMP JUMPDEST POP PUSH32 0xEE826440768329B0C72F81331212EE31FCDAC1EA79A248D24821E40C34E58020 CALLER PUSH1 0x2 SLOAD PUSH1 0x1 SLOAD PUSH1 0x40 MLOAD PUSH2 0x2AF7 SWAP4 SWAP3 SWAP2 SWAP1 PUSH2 0x407A JUMP JUMPDEST PUSH1 0x40 MLOAD DUP1 SWAP2 SUB SWAP1 LOG1 POP POP POP POP JUMP JUMPDEST PUSH2 0x2B0D PUSH2 0x2C4E JUMP JUMPDEST PUSH0 DUP2 GT PUSH2 0x2B51 JUMPI DUP1 PUSH1 0x40 MLOAD PUSH32 0xCDBC633500000000000000000000000000000000000000000000000000000000 DUP2 MSTORE PUSH1 0x4 ADD PUSH2 0x2B48 SWAP2 SWAP1 PUSH2 0x37D2 JUMP JUMPDEST PUSH1 0x40 MLOAD DUP1 SWAP2 SUB SWAP1 REVERT JUMPDEST DUP1 PUSH1 0x12 PUSH0 DUP5 DUP2 MSTORE PUSH1 0x20 ADD SWAP1 DUP2 MSTORE PUSH1 0x20 ADD PUSH0 KECCAK256 DUP2 SWAP1 SSTORE POP PUSH32 0xB5671393C7C6980552E50A31E778921EB17D764C2E98FBF4D44FFF524712DEF9 CALLER PUSH1 0x12 PUSH0 DUP6 DUP2 MSTORE PUSH1 0x20 ADD SWAP1 DUP2 MSTORE PUSH1 0x20 ADD PUSH0 KECCAK256 SLOAD PUSH1 0x40 MLOAD PUSH2 0x2BA9 SWAP3 SWAP2 SWAP1 PUSH2 0x40AF JUMP JUMPDEST PUSH1 0x40 MLOAD DUP1 SWAP2 SUB SWAP1 LOG1 POP POP JUMP JUMPDEST PUSH2 0x2BBD PUSH2 0x2C4E JUMP JUMPDEST PUSH0 PUSH20 0xFFFFFFFFFFFFFFFFFFFFFFFFFFFFFFFFFFFFFFFF AND DUP2 PUSH20 0xFFFFFFFFFFFFFFFFFFFFFFFFFFFFFFFFFFFFFFFF AND SUB PUSH2 0x2C2D JUMPI PUSH0 PUSH1 0x40 MLOAD PUSH32 0x1E4FBDF700000000000000000000000000000000000000000000000000000000 DUP2 MSTORE PUSH1 0x4 ADD PUSH2 0x2C24 SWAP2 SWAP1 PUSH2 0x3904 JUMP JUMPDEST PUSH1 0x40 MLOAD DUP1 SWAP2 SUB SWAP1 REVERT JUMPDEST PUSH2 0x2C36 DUP2 PUSH2 0x2F6B JUMP JUMPDEST POP JUMP JUMPDEST PUSH1 0x12 PUSH1 0x20 MSTORE DUP1 PUSH0 MSTORE PUSH1 0x40 PUSH0 KECCAK256 PUSH0 SWAP2 POP SWAP1 POP SLOAD DUP2 JUMP JUMPDEST PUSH2 0x2C56 PUSH2 0x33AD JUMP JUMPDEST PUSH20 0xFFFFFFFFFFFFFFFFFFFFFFFFFFFFFFFFFFFFFFFF AND PUSH2 0x2C74 PUSH2 0x1EFA JUMP JUMPDEST PUSH20 0xFFFFFFFFFFFFFFFFFFFFFFFFFFFFFFFFFFFFFFFF AND EQ PUSH2 0x2CD3 JUMPI PUSH2 0x2C97 PUSH2 0x33AD JUMP JUMPDEST PUSH1 0x40 MLOAD PUSH32 0x118CDAA700000000000000000000000000000000000000000000000000000000 DUP2 MSTORE PUSH1 0x4 ADD PUSH2 0x2CCA SWAP2 SWAP1 PUSH2 0x3904 JUMP JUMPDEST PUSH1 0x40 MLOAD DUP1 SWAP2 SUB SWAP1 REVERT JUMPDEST JUMP JUMPDEST PUSH32 0x0 PUSH20 0xFFFFFFFFFFFFFFFFFFFFFFFFFFFFFFFFFFFFFFFF AND ADDRESS PUSH20 0xFFFFFFFFFFFFFFFFFFFFFFFFFFFFFFFFFFFFFFFF AND EQ DUP1 PUSH2 0x2D82 JUMPI POP PUSH32 0x0 PUSH20 0xFFFFFFFFFFFFFFFFFFFFFFFFFFFFFFFFFFFFFFFF AND PUSH2 0x2D69 PUSH2 0x33B4 JUMP JUMPDEST PUSH20 0xFFFFFFFFFFFFFFFFFFFFFFFFFFFFFFFFFFFFFFFF AND EQ ISZERO JUMPDEST ISZERO PUSH2 0x2DB9 JUMPI PUSH1 0x40 MLOAD PUSH32 0xE07C8DBA00000000000000000000000000000000000000000000000000000000 DUP2 MSTORE PUSH1 0x4 ADD PUSH1 0x40 MLOAD DUP1 SWAP2 SUB SWAP1 REVERT JUMPDEST JUMP JUMPDEST PUSH2 0x2DC3 PUSH2 0x2C4E JUMP JUMPDEST POP JUMP JUMPDEST DUP2 PUSH20 0xFFFFFFFFFFFFFFFFFFFFFFFFFFFFFFFFFFFFFFFF AND PUSH4 0x52D1902D PUSH1 0x40 MLOAD DUP2 PUSH4 0xFFFFFFFF AND PUSH1 0xE0 SHL DUP2 MSTORE PUSH1 0x4 ADD PUSH1 0x20 PUSH1 0x40 MLOAD DUP1 DUP4 SUB DUP2 DUP7 GAS STATICCALL SWAP3 POP POP POP DUP1 ISZERO PUSH2 0x2E2E JUMPI POP PUSH1 0x40 MLOAD RETURNDATASIZE PUSH1 0x1F NOT PUSH1 0x1F DUP3 ADD AND DUP3 ADD DUP1 PUSH1 0x40 MSTORE POP DUP2 ADD SWAP1 PUSH2 0x2E2B SWAP2 SWAP1 PUSH2 0x4426 JUMP JUMPDEST PUSH1 0x1 JUMPDEST PUSH2 0x2E6F JUMPI DUP2 PUSH1 0x40 MLOAD PUSH32 0x4C9C8CE300000000000000000000000000000000000000000000000000000000 DUP2 MSTORE PUSH1 0x4 ADD PUSH2 0x2E66 SWAP2 SWAP1 PUSH2 0x3904 JUMP JUMPDEST PUSH1 0x40 MLOAD DUP1 SWAP2 SUB SWAP1 REVERT JUMPDEST PUSH32 0x360894A13BA1A3210667C828492DB98DCA3E2076CC3735A920A3CA505D382BBC PUSH0 SHL DUP2 EQ PUSH2 0x2ED5 JUMPI DUP1 PUSH1 0x40 MLOAD PUSH32 0xAA1D49A400000000000000000000000000000000000000000000000000000000 DUP2 MSTORE PUSH1 0x4 ADD PUSH2 0x2ECC SWAP2 SWAP1 PUSH2 0x3BD0 JUMP JUMPDEST PUSH1 0x40 MLOAD DUP1 SWAP2 SUB SWAP1 REVERT JUMPDEST PUSH2 0x2EDF DUP4 DUP4 PUSH2 0x3407 JUMP JUMPDEST POP POP POP JUMP JUMPDEST PUSH32 0x0 PUSH20 0xFFFFFFFFFFFFFFFFFFFFFFFFFFFFFFFFFFFFFFFF AND ADDRESS PUSH20 0xFFFFFFFFFFFFFFFFFFFFFFFFFFFFFFFFFFFFFFFF AND EQ PUSH2 0x2F69 JUMPI PUSH1 0x40 MLOAD PUSH32 0xE07C8DBA00000000000000000000000000000000000000000000000000000000 DUP2 MSTORE PUSH1 0x4 ADD PUSH1 0x40 MLOAD DUP1 SWAP2 SUB SWAP1 REVERT JUMPDEST JUMP JUMPDEST PUSH0 PUSH2 0x2F74 PUSH2 0x309E JUMP JUMPDEST SWAP1 POP PUSH0 DUP2 PUSH0 ADD PUSH0 SWAP1 SLOAD SWAP1 PUSH2 0x100 EXP SWAP1 DIV PUSH20 0xFFFFFFFFFFFFFFFFFFFFFFFFFFFFFFFFFFFFFFFF AND SWAP1 POP DUP3 DUP3 PUSH0 ADD PUSH0 PUSH2 0x100 EXP DUP2 SLOAD DUP2 PUSH20 0xFFFFFFFFFFFFFFFFFFFFFFFFFFFFFFFFFFFFFFFF MUL NOT AND SWAP1 DUP4 PUSH20 0xFFFFFFFFFFFFFFFFFFFFFFFFFFFFFFFFFFFFFFFF AND MUL OR SWAP1 SSTORE POP DUP3 PUSH20 0xFFFFFFFFFFFFFFFFFFFFFFFFFFFFFFFFFFFFFFFF AND DUP2 PUSH20 0xFFFFFFFFFFFFFFFFFFFFFFFFFFFFFFFFFFFFFFFF AND PUSH32 0x8BE0079C531659141344CD1FD0A4F28419497F9722A3DAAFE3B4186F6B6457E0 PUSH1 0x40 MLOAD PUSH1 0x40 MLOAD DUP1 SWAP2 SUB SWAP1 LOG3 POP POP POP JUMP JUMPDEST PUSH0 DUP2 PUSH2 0x2710 PUSH2 0x304B SWAP2 SWAP1 PUSH2 0x3EDD JUMP JUMPDEST SWAP1 POP PUSH0 PUSH2 0x3058 DUP5 DUP4 PUSH2 0x3302 JUMP JUMPDEST SWAP1 POP PUSH0 PUSH2 0x3065 DUP6 DUP6 PUSH2 0x3302 JUMP JUMPDEST SWAP1 POP DUP2 PUSH1 0x2 PUSH0 DUP3 DUP3 SLOAD PUSH2 0x3078 SWAP2 SWAP1 PUSH2 0x3FD3 JUMP JUMPDEST SWAP3 POP POP DUP2 SWAP1 SSTORE POP DUP1 PUSH1 0x1 PUSH0 DUP3 DUP3 SLOAD PUSH2 0x3090 SWAP2 SWAP1 PUSH2 0x3FD3 JUMP JUMPDEST SWAP3 POP POP DUP2 SWAP1 SSTORE POP POP POP POP POP POP JUMP JUMPDEST PUSH0 PUSH32 0x9016D09D72D40FDAE2FD8CEAC6B6234C7706214FD39C1CD1E609A0528C199300 SWAP1 POP SWAP1 JUMP JUMPDEST PUSH0 PUSH32 0xF0C57E16840DF040F15088DC2F81FE391C3923BEC73E23A9662EFC9C229C6A00 SWAP1 POP SWAP1 JUMP JUMPDEST PUSH2 0x30F4 PUSH2 0x3479 JUMP JUMPDEST PUSH2 0x30FD DUP2 PUSH2 0x34B9 JUMP JUMPDEST POP JUMP JUMPDEST PUSH2 0x3108 PUSH2 0x3479 JUMP JUMPDEST JUMP JUMPDEST PUSH0 DUP1 PUSH0 DUP1 PUSH2 0x311C PUSH1 0x2 SLOAD PUSH2 0x1388 PUSH2 0x3302 JUMP JUMPDEST SWAP1 POP PUSH0 PUSH2 0x312B DUP3 PUSH1 0x5 SLOAD PUSH2 0x3302 JUMP JUMPDEST SWAP1 POP PUSH0 PUSH2 0x313A DUP4 PUSH1 0x6 SLOAD PUSH2 0x3302 JUMP JUMPDEST SWAP1 POP PUSH0 PUSH2 0x3149 DUP5 PUSH1 0x7 SLOAD PUSH2 0x3302 JUMP JUMPDEST SWAP1 POP PUSH0 PUSH2 0x315A PUSH1 0x1 SLOAD PUSH1 0x4 SLOAD PUSH2 0x3302 JUMP JUMPDEST SWAP1 POP PUSH0 PUSH1 0x8 SLOAD GT PUSH2 0x31A0 JUMPI PUSH1 0x40 MLOAD PUSH32 0x8C379A000000000000000000000000000000000000000000000000000000000 DUP2 MSTORE PUSH1 0x4 ADD PUSH2 0x3197 SWAP1 PUSH2 0x449B JUMP JUMPDEST PUSH1 0x40 MLOAD DUP1 SWAP2 SUB SWAP1 REVERT JUMPDEST PUSH0 PUSH1 0x8 SLOAD DUP3 PUSH2 0x31AF SWAP2 SWAP1 PUSH2 0x4364 JUMP JUMPDEST SWAP1 POP DUP3 DUP5 PUSH2 0x31BD SWAP2 SWAP1 PUSH2 0x3FD3 JUMP JUMPDEST PUSH1 0x2 PUSH0 DUP3 DUP3 SLOAD PUSH2 0x31CD SWAP2 SWAP1 PUSH2 0x3EDD JUMP JUMPDEST SWAP3 POP POP DUP2 SWAP1 SSTORE POP DUP4 PUSH1 0x1 PUSH0 DUP3 DUP3 SLOAD PUSH2 0x31E5 SWAP2 SWAP1 PUSH2 0x3FD3 JUMP JUMPDEST SWAP3 POP POP DUP2 SWAP1 SSTORE POP PUSH0 DUP1 PUSH0 SWAP1 SLOAD SWAP1 PUSH2 0x100 EXP SWAP1 DIV PUSH20 0xFFFFFFFFFFFFFFFFFFFFFFFFFFFFFFFFFFFFFFFF AND PUSH20 0xFFFFFFFFFFFFFFFFFFFFFFFFFFFFFFFFFFFFFFFF AND PUSH4 0xA9059CBB PUSH1 0x9 PUSH0 SWAP1 SLOAD SWAP1 PUSH2 0x100 EXP SWAP1 DIV PUSH20 0xFFFFFFFFFFFFFFFFFFFFFFFFFFFFFFFFFFFFFFFF AND DUP7 PUSH1 0x40 MLOAD DUP4 PUSH4 0xFFFFFFFF AND PUSH1 0xE0 SHL DUP2 MSTORE PUSH1 0x4 ADD PUSH2 0x3269 SWAP3 SWAP2 SWAP1 PUSH2 0x40AF JUMP JUMPDEST PUSH1 0x20 PUSH1 0x40 MLOAD DUP1 DUP4 SUB DUP2 PUSH0 DUP8 GAS CALL ISZERO DUP1 ISZERO PUSH2 0x3285 JUMPI RETURNDATASIZE PUSH0 DUP1 RETURNDATACOPY RETURNDATASIZE PUSH0 REVERT JUMPDEST POP POP POP POP PUSH1 0x40 MLOAD RETURNDATASIZE PUSH1 0x1F NOT PUSH1 0x1F DUP3 ADD AND DUP3 ADD DUP1 PUSH1 0x40 MSTORE POP DUP2 ADD SWAP1 PUSH2 0x32A9 SWAP2 SWAP1 PUSH2 0x404F JUMP JUMPDEST SWAP1 POP DUP1 PUSH2 0x32ED JUMPI DUP1 PUSH1 0x40 MLOAD PUSH32 0xD85D3CEF00000000000000000000000000000000000000000000000000000000 DUP2 MSTORE PUSH1 0x4 ADD PUSH2 0x32E4 SWAP2 SWAP1 PUSH2 0x3937 JUMP JUMPDEST PUSH1 0x40 MLOAD DUP1 SWAP2 SUB SWAP1 REVERT JUMPDEST DUP7 DUP7 DUP4 SWAP10 POP SWAP10 POP SWAP10 POP POP POP POP POP POP POP POP SWAP1 SWAP2 SWAP3 JUMP JUMPDEST PUSH0 DUP1 DUP4 SUB PUSH2 0x3345 JUMPI PUSH1 0x40 MLOAD PUSH32 0x8C379A000000000000000000000000000000000000000000000000000000000 DUP2 MSTORE PUSH1 0x4 ADD PUSH2 0x333C SWAP1 PUSH2 0x4529 JUMP JUMPDEST PUSH1 0x40 MLOAD DUP1 SWAP2 SUB SWAP1 REVERT JUMPDEST PUSH0 DUP3 SUB PUSH2 0x3387 JUMPI PUSH1 0x40 MLOAD PUSH32 0x8C379A000000000000000000000000000000000000000000000000000000000 DUP2 MSTORE PUSH1 0x4 ADD PUSH2 0x337E SWAP1 PUSH2 0x4529 JUMP JUMPDEST PUSH1 0x40 MLOAD DUP1 SWAP2 SUB SWAP1 REVERT JUMPDEST PUSH0 PUSH2 0x2710 DUP4 DUP6 PUSH2 0x3397 SWAP2 SWAP1 PUSH2 0x42F6 JUMP JUMPDEST PUSH2 0x33A1 SWAP2 SWAP1 PUSH2 0x4364 JUMP JUMPDEST SWAP1 POP DUP1 SWAP2 POP POP SWAP3 SWAP2 POP POP JUMP JUMPDEST PUSH0 CALLER SWAP1 POP SWAP1 JUMP JUMPDEST PUSH0 PUSH2 0x33E0 PUSH32 0x360894A13BA1A3210667C828492DB98DCA3E2076CC3735A920A3CA505D382BBC PUSH0 SHL PUSH2 0x353D JUMP JUMPDEST PUSH0 ADD PUSH0 SWAP1 SLOAD SWAP1 PUSH2 0x100 EXP SWAP1 DIV PUSH20 0xFFFFFFFFFFFFFFFFFFFFFFFFFFFFFFFFFFFFFFFF AND SWAP1 POP SWAP1 JUMP JUMPDEST PUSH2 0x3410 DUP3 PUSH2 0x3546 JUMP JUMPDEST DUP2 PUSH20 0xFFFFFFFFFFFFFFFFFFFFFFFFFFFFFFFFFFFFFFFF AND PUSH32 0xBC7CD75A20EE27FD9ADEBAB32041F755214DBC6BFFA90CC0225B39DA2E5C2D3B PUSH1 0x40 MLOAD PUSH1 0x40 MLOAD DUP1 SWAP2 SUB SWAP1 LOG2 PUSH0 DUP2 MLOAD GT ISZERO PUSH2 0x346C JUMPI PUSH2 0x3466 DUP3 DUP3 PUSH2 0x360F JUMP JUMPDEST POP PUSH2 0x3475 JUMP JUMPDEST PUSH2 0x3474 PUSH2 0x368F JUMP JUMPDEST JUMPDEST POP POP JUMP JUMPDEST PUSH2 0x3481 PUSH2 0x36CB JUMP JUMPDEST PUSH2 0x34B7 JUMPI PUSH1 0x40 MLOAD PUSH32 0xD7E6BCF800000000000000000000000000000000000000000000000000000000 DUP2 MSTORE PUSH1 0x4 ADD PUSH1 0x40 MLOAD DUP1 SWAP2 SUB SWAP1 REVERT JUMPDEST JUMP JUMPDEST PUSH2 0x34C1 PUSH2 0x3479 JUMP JUMPDEST PUSH0 PUSH20 0xFFFFFFFFFFFFFFFFFFFFFFFFFFFFFFFFFFFFFFFF AND DUP2 PUSH20 0xFFFFFFFFFFFFFFFFFFFFFFFFFFFFFFFFFFFFFFFF AND SUB PUSH2 0x3531 JUMPI PUSH0 PUSH1 0x40 MLOAD PUSH32 0x1E4FBDF700000000000000000000000000000000000000000000000000000000 DUP2 MSTORE PUSH1 0x4 ADD PUSH2 0x3528 SWAP2 SWAP1 PUSH2 0x3904 JUMP JUMPDEST PUSH1 0x40 MLOAD DUP1 SWAP2 SUB SWAP1 REVERT JUMPDEST PUSH2 0x353A DUP2 PUSH2 0x2F6B JUMP JUMPDEST POP JUMP JUMPDEST PUSH0 DUP2 SWAP1 POP SWAP2 SWAP1 POP JUMP JUMPDEST PUSH0 DUP2 PUSH20 0xFFFFFFFFFFFFFFFFFFFFFFFFFFFFFFFFFFFFFFFF AND EXTCODESIZE SUB PUSH2 0x35A1 JUMPI DUP1 PUSH1 0x40 MLOAD PUSH32 0x4C9C8CE300000000000000000000000000000000000000000000000000000000 DUP2 MSTORE PUSH1 0x4 ADD PUSH2 0x3598 SWAP2 SWAP1 PUSH2 0x3904 JUMP JUMPDEST PUSH1 0x40 MLOAD DUP1 SWAP2 SUB SWAP1 REVERT JUMPDEST DUP1 PUSH2 0x35CD PUSH32 0x360894A13BA1A3210667C828492DB98DCA3E2076CC3735A920A3CA505D382BBC PUSH0 SHL PUSH2 0x353D JUMP JUMPDEST PUSH0 ADD PUSH0 PUSH2 0x100 EXP DUP2 SLOAD DUP2 PUSH20 0xFFFFFFFFFFFFFFFFFFFFFFFFFFFFFFFFFFFFFFFF MUL NOT AND SWAP1 DUP4 PUSH20 0xFFFFFFFFFFFFFFFFFFFFFFFFFFFFFFFFFFFFFFFF AND MUL OR SWAP1 SSTORE POP POP JUMP JUMPDEST PUSH1 0x60 PUSH0 DUP1 DUP5 PUSH20 0xFFFFFFFFFFFFFFFFFFFFFFFFFFFFFFFFFFFFFFFF AND DUP5 PUSH1 0x40 MLOAD PUSH2 0x3638 SWAP2 SWAP1 PUSH2 0x4581 JUMP JUMPDEST PUSH0 PUSH1 0x40 MLOAD DUP1 DUP4 SUB DUP2 DUP6 GAS DELEGATECALL SWAP2 POP POP RETURNDATASIZE DUP1 PUSH0 DUP2 EQ PUSH2 0x3670 JUMPI PUSH1 0x40 MLOAD SWAP2 POP PUSH1 0x1F NOT PUSH1 0x3F RETURNDATASIZE ADD AND DUP3 ADD PUSH1 0x40 MSTORE RETURNDATASIZE DUP3 MSTORE RETURNDATASIZE PUSH0 PUSH1 0x20 DUP5 ADD RETURNDATACOPY PUSH2 0x3675 JUMP JUMPDEST PUSH1 0x60 SWAP2 POP JUMPDEST POP SWAP2 POP SWAP2 POP PUSH2 0x3685 DUP6 DUP4 DUP4 PUSH2 0x36E9 JUMP JUMPDEST SWAP3 POP POP POP SWAP3 SWAP2 POP POP JUMP JUMPDEST PUSH0 CALLVALUE GT ISZERO PUSH2 0x36C9 JUMPI PUSH1 0x40 MLOAD PUSH32 0xB398979F00000000000000000000000000000000000000000000000000000000 DUP2 MSTORE PUSH1 0x4 ADD PUSH1 0x40 MLOAD DUP1 SWAP2 SUB SWAP1 REVERT JUMPDEST JUMP JUMPDEST PUSH0 PUSH2 0x36D4 PUSH2 0x30C5 JUMP JUMPDEST PUSH0 ADD PUSH1 0x8 SWAP1 SLOAD SWAP1 PUSH2 0x100 EXP SWAP1 DIV PUSH1 0xFF AND SWAP1 POP SWAP1 JUMP JUMPDEST PUSH1 0x60 DUP3 PUSH2 0x36FE JUMPI PUSH2 0x36F9 DUP3 PUSH2 0x3776 JUMP JUMPDEST PUSH2 0x376E JUMP JUMPDEST PUSH0 DUP3 MLOAD EQ DUP1 ISZERO PUSH2 0x3724 JUMPI POP PUSH0 DUP5 PUSH20 0xFFFFFFFFFFFFFFFFFFFFFFFFFFFFFFFFFFFFFFFF AND EXTCODESIZE EQ JUMPDEST ISZERO PUSH2 0x3766 JUMPI DUP4 PUSH1 0x40 MLOAD PUSH32 0x9996B31500000000000000000000000000000000000000000000000000000000 DUP2 MSTORE PUSH1 0x4 ADD PUSH2 0x375D SWAP2 SWAP1 PUSH2 0x3904 JUMP JUMPDEST PUSH1 0x40 MLOAD DUP1 SWAP2 SUB SWAP1 REVERT JUMPDEST DUP2 SWAP1 POP PUSH2 0x376F JUMP JUMPDEST JUMPDEST SWAP4 SWAP3 POP POP POP JUMP JUMPDEST PUSH0 DUP2 MLOAD GT ISZERO PUSH2 0x3788 JUMPI DUP1 MLOAD DUP1 DUP3 PUSH1 0x20 ADD REVERT JUMPDEST PUSH1 0x40 MLOAD PUSH32 0x1425EA4200000000000000000000000000000000000000000000000000000000 DUP2 MSTORE PUSH1 0x4 ADD PUSH1 0x40 MLOAD DUP1 SWAP2 SUB SWAP1 REVERT JUMPDEST PUSH0 DUP2 SWAP1 POP SWAP2 SWAP1 POP JUMP JUMPDEST PUSH2 0x37CC DUP2 PUSH2 0x37BA JUMP JUMPDEST DUP3 MSTORE POP POP JUMP JUMPDEST PUSH0 PUSH1 0x20 DUP3 ADD SWAP1 POP PUSH2 0x37E5 PUSH0 DUP4 ADD DUP5 PUSH2 0x37C3 JUMP JUMPDEST SWAP3 SWAP2 POP POP JUMP JUMPDEST PUSH0 PUSH20 0xFFFFFFFFFFFFFFFFFFFFFFFFFFFFFFFFFFFFFFFF DUP3 AND SWAP1 POP SWAP2 SWAP1 POP JUMP JUMPDEST PUSH0 DUP2 SWAP1 POP SWAP2 SWAP1 POP JUMP JUMPDEST PUSH0 PUSH2 0x382D PUSH2 0x3828 PUSH2 0x3823 DUP5 PUSH2 0x37EB JUMP JUMPDEST PUSH2 0x380A JUMP JUMPDEST PUSH2 0x37EB JUMP JUMPDEST SWAP1 POP SWAP2 SWAP1 POP JUMP JUMPDEST PUSH0 PUSH2 0x383E DUP3 PUSH2 0x3813 JUMP JUMPDEST SWAP1 POP SWAP2 SWAP1 POP JUMP JUMPDEST PUSH0 PUSH2 0x384F DUP3 PUSH2 0x3834 JUMP JUMPDEST SWAP1 POP SWAP2 SWAP1 POP JUMP JUMPDEST PUSH2 0x385F DUP2 PUSH2 0x3845 JUMP JUMPDEST DUP3 MSTORE POP POP JUMP JUMPDEST PUSH0 PUSH1 0x20 DUP3 ADD SWAP1 POP PUSH2 0x3878 PUSH0 DUP4 ADD DUP5 PUSH2 0x3856 JUMP JUMPDEST SWAP3 SWAP2 POP POP JUMP JUMPDEST PUSH0 PUSH1 0x40 MLOAD SWAP1 POP SWAP1 JUMP JUMPDEST PUSH0 DUP1 REVERT JUMPDEST PUSH0 DUP1 REVERT JUMPDEST PUSH2 0x3898 DUP2 PUSH2 0x37BA JUMP JUMPDEST DUP2 EQ PUSH2 0x38A2 JUMPI PUSH0 DUP1 REVERT JUMPDEST POP JUMP JUMPDEST PUSH0 DUP2 CALLDATALOAD SWAP1 POP PUSH2 0x38B3 DUP2 PUSH2 0x388F JUMP JUMPDEST SWAP3 SWAP2 POP POP JUMP JUMPDEST PUSH0 PUSH1 0x20 DUP3 DUP5 SUB SLT ISZERO PUSH2 0x38CE JUMPI PUSH2 0x38CD PUSH2 0x3887 JUMP JUMPDEST JUMPDEST PUSH0 PUSH2 0x38DB DUP5 DUP3 DUP6 ADD PUSH2 0x38A5 JUMP JUMPDEST SWAP2 POP POP SWAP3 SWAP2 POP POP JUMP JUMPDEST PUSH0 PUSH2 0x38EE DUP3 PUSH2 0x37EB JUMP JUMPDEST SWAP1 POP SWAP2 SWAP1 POP JUMP JUMPDEST PUSH2 0x38FE DUP2 PUSH2 0x38E4 JUMP JUMPDEST DUP3 MSTORE POP POP JUMP JUMPDEST PUSH0 PUSH1 0x20 DUP3 ADD SWAP1 POP PUSH2 0x3917 PUSH0 DUP4 ADD DUP5 PUSH2 0x38F5 JUMP JUMPDEST SWAP3 SWAP2 POP POP JUMP JUMPDEST PUSH0 DUP2 ISZERO ISZERO SWAP1 POP SWAP2 SWAP1 POP JUMP JUMPDEST PUSH2 0x3931 DUP2 PUSH2 0x391D JUMP JUMPDEST DUP3 MSTORE POP POP JUMP JUMPDEST PUSH0 PUSH1 0x20 DUP3 ADD SWAP1 POP PUSH2 0x394A PUSH0 DUP4 ADD DUP5 PUSH2 0x3928 JUMP JUMPDEST SWAP3 SWAP2 POP POP JUMP JUMPDEST PUSH0 DUP1 REVERT JUMPDEST PUSH0 DUP1 REVERT JUMPDEST PUSH0 DUP1 REVERT JUMPDEST PUSH0 DUP1 DUP4 PUSH1 0x1F DUP5 ADD SLT PUSH2 0x3971 JUMPI PUSH2 0x3970 PUSH2 0x3950 JUMP JUMPDEST JUMPDEST DUP3 CALLDATALOAD SWAP1 POP PUSH8 0xFFFFFFFFFFFFFFFF DUP2 GT ISZERO PUSH2 0x398E JUMPI PUSH2 0x398D PUSH2 0x3954 JUMP JUMPDEST JUMPDEST PUSH1 0x20 DUP4 ADD SWAP2 POP DUP4 PUSH1 0x1 DUP3 MUL DUP4 ADD GT ISZERO PUSH2 0x39AA JUMPI PUSH2 0x39A9 PUSH2 0x3958 JUMP JUMPDEST JUMPDEST SWAP3 POP SWAP3 SWAP1 POP JUMP JUMPDEST PUSH0 DUP1 PUSH1 0x20 DUP4 DUP6 SUB SLT ISZERO PUSH2 0x39C7 JUMPI PUSH2 0x39C6 PUSH2 0x3887 JUMP JUMPDEST JUMPDEST PUSH0 DUP4 ADD CALLDATALOAD PUSH8 0xFFFFFFFFFFFFFFFF DUP2 GT ISZERO PUSH2 0x39E4 JUMPI PUSH2 0x39E3 PUSH2 0x388B JUMP JUMPDEST JUMPDEST PUSH2 0x39F0 DUP6 DUP3 DUP7 ADD PUSH2 0x395C JUMP JUMPDEST SWAP3 POP SWAP3 POP POP SWAP3 POP SWAP3 SWAP1 POP JUMP JUMPDEST PUSH2 0x3A05 DUP2 PUSH2 0x38E4 JUMP JUMPDEST DUP2 EQ PUSH2 0x3A0F JUMPI PUSH0 DUP1 REVERT JUMPDEST POP JUMP JUMPDEST PUSH0 DUP2 CALLDATALOAD SWAP1 POP PUSH2 0x3A20 DUP2 PUSH2 0x39FC JUMP JUMPDEST SWAP3 SWAP2 POP POP JUMP JUMPDEST PUSH0 DUP1 REVERT JUMPDEST PUSH0 PUSH1 0x1F NOT PUSH1 0x1F DUP4 ADD AND SWAP1 POP SWAP2 SWAP1 POP JUMP JUMPDEST PUSH32 0x4E487B7100000000000000000000000000000000000000000000000000000000 PUSH0 MSTORE PUSH1 0x41 PUSH1 0x4 MSTORE PUSH1 0x24 PUSH0 REVERT JUMPDEST PUSH2 0x3A70 DUP3 PUSH2 0x3A2A JUMP JUMPDEST DUP2 ADD DUP2 DUP2 LT PUSH8 0xFFFFFFFFFFFFFFFF DUP3 GT OR ISZERO PUSH2 0x3A8F JUMPI PUSH2 0x3A8E PUSH2 0x3A3A JUMP JUMPDEST JUMPDEST DUP1 PUSH1 0x40 MSTORE POP POP POP JUMP JUMPDEST PUSH0 PUSH2 0x3AA1 PUSH2 0x387E JUMP JUMPDEST SWAP1 POP PUSH2 0x3AAD DUP3 DUP3 PUSH2 0x3A67 JUMP JUMPDEST SWAP2 SWAP1 POP JUMP JUMPDEST PUSH0 PUSH8 0xFFFFFFFFFFFFFFFF DUP3 GT ISZERO PUSH2 0x3ACC JUMPI PUSH2 0x3ACB PUSH2 0x3A3A JUMP JUMPDEST JUMPDEST PUSH2 0x3AD5 DUP3 PUSH2 0x3A2A JUMP JUMPDEST SWAP1 POP PUSH1 0x20 DUP2 ADD SWAP1 POP SWAP2 SWAP1 POP JUMP JUMPDEST DUP3 DUP2 DUP4 CALLDATACOPY PUSH0 DUP4 DUP4 ADD MSTORE POP POP POP JUMP JUMPDEST PUSH0 PUSH2 0x3B02 PUSH2 0x3AFD DUP5 PUSH2 0x3AB2 JUMP JUMPDEST PUSH2 0x3A98 JUMP JUMPDEST SWAP1 POP DUP3 DUP2 MSTORE PUSH1 0x20 DUP2 ADD DUP5 DUP5 DUP5 ADD GT ISZERO PUSH2 0x3B1E JUMPI PUSH2 0x3B1D PUSH2 0x3A26 JUMP JUMPDEST JUMPDEST PUSH2 0x3B29 DUP5 DUP3 DUP6 PUSH2 0x3AE2 JUMP JUMPDEST POP SWAP4 SWAP3 POP POP POP JUMP JUMPDEST PUSH0 DUP3 PUSH1 0x1F DUP4 ADD SLT PUSH2 0x3B45 JUMPI PUSH2 0x3B44 PUSH2 0x3950 JUMP JUMPDEST JUMPDEST DUP2 CALLDATALOAD PUSH2 0x3B55 DUP5 DUP3 PUSH1 0x20 DUP7 ADD PUSH2 0x3AF0 JUMP JUMPDEST SWAP2 POP POP SWAP3 SWAP2 POP POP JUMP JUMPDEST PUSH0 DUP1 PUSH1 0x40 DUP4 DUP6 SUB SLT ISZERO PUSH2 0x3B74 JUMPI PUSH2 0x3B73 PUSH2 0x3887 JUMP JUMPDEST JUMPDEST PUSH0 PUSH2 0x3B81 DUP6 DUP3 DUP7 ADD PUSH2 0x3A12 JUMP JUMPDEST SWAP3 POP POP PUSH1 0x20 DUP4 ADD CALLDATALOAD PUSH8 0xFFFFFFFFFFFFFFFF DUP2 GT ISZERO PUSH2 0x3BA2 JUMPI PUSH2 0x3BA1 PUSH2 0x388B JUMP JUMPDEST JUMPDEST PUSH2 0x3BAE DUP6 DUP3 DUP7 ADD PUSH2 0x3B31 JUMP JUMPDEST SWAP2 POP POP SWAP3 POP SWAP3 SWAP1 POP JUMP JUMPDEST PUSH0 DUP2 SWAP1 POP SWAP2 SWAP1 POP JUMP JUMPDEST PUSH2 0x3BCA DUP2 PUSH2 0x3BB8 JUMP JUMPDEST DUP3 MSTORE POP POP JUMP JUMPDEST PUSH0 PUSH1 0x20 DUP3 ADD SWAP1 POP PUSH2 0x3BE3 PUSH0 DUP4 ADD DUP5 PUSH2 0x3BC1 JUMP JUMPDEST SWAP3 SWAP2 POP POP JUMP JUMPDEST PUSH0 DUP1 PUSH1 0x40 DUP4 DUP6 SUB SLT ISZERO PUSH2 0x3BFF JUMPI PUSH2 0x3BFE PUSH2 0x3887 JUMP JUMPDEST JUMPDEST PUSH0 PUSH2 0x3C0C DUP6 DUP3 DUP7 ADD PUSH2 0x38A5 JUMP JUMPDEST SWAP3 POP POP PUSH1 0x20 PUSH2 0x3C1D DUP6 DUP3 DUP7 ADD PUSH2 0x38A5 JUMP JUMPDEST SWAP2 POP POP SWAP3 POP SWAP3 SWAP1 POP JUMP JUMPDEST PUSH0 DUP2 MLOAD SWAP1 POP SWAP2 SWAP1 POP JUMP JUMPDEST PUSH0 DUP3 DUP3 MSTORE PUSH1 0x20 DUP3 ADD SWAP1 POP SWAP3 SWAP2 POP POP JUMP JUMPDEST DUP3 DUP2 DUP4 MCOPY PUSH0 DUP4 DUP4 ADD MSTORE POP POP POP JUMP JUMPDEST PUSH0 PUSH2 0x3C59 DUP3 PUSH2 0x3C27 JUMP JUMPDEST PUSH2 0x3C63 DUP2 DUP6 PUSH2 0x3C31 JUMP JUMPDEST SWAP4 POP PUSH2 0x3C73 DUP2 DUP6 PUSH1 0x20 DUP7 ADD PUSH2 0x3C41 JUMP JUMPDEST PUSH2 0x3C7C DUP2 PUSH2 0x3A2A JUMP JUMPDEST DUP5 ADD SWAP2 POP POP SWAP3 SWAP2 POP POP JUMP JUMPDEST PUSH0 PUSH1 0x40 DUP3 ADD SWAP1 POP PUSH2 0x3C9A PUSH0 DUP4 ADD DUP6 PUSH2 0x3928 JUMP JUMPDEST DUP2 DUP2 SUB PUSH1 0x20 DUP4 ADD MSTORE PUSH2 0x3CAC DUP2 DUP5 PUSH2 0x3C4F JUMP JUMPDEST SWAP1 POP SWAP4 SWAP3 POP POP POP JUMP JUMPDEST PUSH0 DUP2 MLOAD SWAP1 POP SWAP2 SWAP1 POP JUMP JUMPDEST PUSH0 DUP3 DUP3 MSTORE PUSH1 0x20 DUP3 ADD SWAP1 POP SWAP3 SWAP2 POP POP JUMP JUMPDEST PUSH0 PUSH2 0x3CD9 DUP3 PUSH2 0x3CB5 JUMP JUMPDEST PUSH2 0x3CE3 DUP2 DUP6 PUSH2 0x3CBF JUMP JUMPDEST SWAP4 POP PUSH2 0x3CF3 DUP2 DUP6 PUSH1 0x20 DUP7 ADD PUSH2 0x3C41 JUMP JUMPDEST PUSH2 0x3CFC DUP2 PUSH2 0x3A2A JUMP JUMPDEST DUP5 ADD SWAP2 POP POP SWAP3 SWAP2 POP POP JUMP JUMPDEST PUSH0 PUSH1 0x20 DUP3 ADD SWAP1 POP DUP2 DUP2 SUB PUSH0 DUP4 ADD MSTORE PUSH2 0x3D1F DUP2 DUP5 PUSH2 0x3CCF JUMP JUMPDEST SWAP1 POP SWAP3 SWAP2 POP POP JUMP JUMPDEST PUSH0 PUSH1 0x20 DUP3 DUP5 SUB SLT ISZERO PUSH2 0x3D3C JUMPI PUSH2 0x3D3B PUSH2 0x3887 JUMP JUMPDEST JUMPDEST PUSH0 PUSH2 0x3D49 DUP5 DUP3 DUP6 ADD PUSH2 0x3A12 JUMP JUMPDEST SWAP2 POP POP SWAP3 SWAP2 POP POP JUMP JUMPDEST PUSH0 PUSH1 0xC0 DUP3 ADD SWAP1 POP PUSH2 0x3D65 PUSH0 DUP4 ADD DUP10 PUSH2 0x3928 JUMP JUMPDEST PUSH2 0x3D72 PUSH1 0x20 DUP4 ADD DUP9 PUSH2 0x37C3 JUMP JUMPDEST PUSH2 0x3D7F PUSH1 0x40 DUP4 ADD DUP8 PUSH2 0x37C3 JUMP JUMPDEST PUSH2 0x3D8C PUSH1 0x60 DUP4 ADD DUP7 PUSH2 0x37C3 JUMP JUMPDEST PUSH2 0x3D99 PUSH1 0x80 DUP4 ADD DUP6 PUSH2 0x37C3 JUMP JUMPDEST PUSH2 0x3DA6 PUSH1 0xA0 DUP4 ADD DUP5 PUSH2 0x37C3 JUMP JUMPDEST SWAP8 SWAP7 POP POP POP POP POP POP POP JUMP JUMPDEST PUSH0 DUP1 PUSH0 PUSH1 0x60 DUP5 DUP7 SUB SLT ISZERO PUSH2 0x3DC8 JUMPI PUSH2 0x3DC7 PUSH2 0x3887 JUMP JUMPDEST JUMPDEST PUSH0 PUSH2 0x3DD5 DUP7 DUP3 DUP8 ADD PUSH2 0x3A12 JUMP JUMPDEST SWAP4 POP POP PUSH1 0x20 PUSH2 0x3DE6 DUP7 DUP3 DUP8 ADD PUSH2 0x3A12 JUMP JUMPDEST SWAP3 POP POP PUSH1 0x40 PUSH2 0x3DF7 DUP7 DUP3 DUP8 ADD PUSH2 0x3A12 JUMP JUMPDEST SWAP2 POP POP SWAP3 POP SWAP3 POP SWAP3 JUMP JUMPDEST PUSH2 0x3E0A DUP2 PUSH2 0x391D JUMP JUMPDEST DUP2 EQ PUSH2 0x3E14 JUMPI PUSH0 DUP1 REVERT JUMPDEST POP JUMP JUMPDEST PUSH0 DUP2 CALLDATALOAD SWAP1 POP PUSH2 0x3E25 DUP2 PUSH2 0x3E01 JUMP JUMPDEST SWAP3 SWAP2 POP POP JUMP JUMPDEST PUSH0 DUP1 PUSH1 0x40 DUP4 DUP6 SUB SLT ISZERO PUSH2 0x3E41 JUMPI PUSH2 0x3E40 PUSH2 0x3887 JUMP JUMPDEST JUMPDEST PUSH0 PUSH2 0x3E4E DUP6 DUP3 DUP7 ADD PUSH2 0x3A12 JUMP JUMPDEST SWAP3 POP POP PUSH1 0x20 PUSH2 0x3E5F DUP6 DUP3 DUP7 ADD PUSH2 0x3E17 JUMP JUMPDEST SWAP2 POP POP SWAP3 POP SWAP3 SWAP1 POP JUMP JUMPDEST PUSH32 0x4E487B7100000000000000000000000000000000000000000000000000000000 PUSH0 MSTORE PUSH1 0x11 PUSH1 0x4 MSTORE PUSH1 0x24 PUSH0 REVERT JUMPDEST PUSH0 PUSH2 0x3EA0 DUP3 PUSH2 0x37BA JUMP JUMPDEST SWAP2 POP PUSH32 0xFFFFFFFFFFFFFFFFFFFFFFFFFFFFFFFFFFFFFFFFFFFFFFFFFFFFFFFFFFFFFFFF DUP3 SUB PUSH2 0x3ED2 JUMPI PUSH2 0x3ED1 PUSH2 0x3E69 JUMP JUMPDEST JUMPDEST PUSH1 0x1 DUP3 ADD SWAP1 POP SWAP2 SWAP1 POP JUMP JUMPDEST PUSH0 PUSH2 0x3EE7 DUP3 PUSH2 0x37BA JUMP JUMPDEST SWAP2 POP PUSH2 0x3EF2 DUP4 PUSH2 0x37BA JUMP JUMPDEST SWAP3 POP DUP3 DUP3 SUB SWAP1 POP DUP2 DUP2 GT ISZERO PUSH2 0x3F0A JUMPI PUSH2 0x3F09 PUSH2 0x3E69 JUMP JUMPDEST JUMPDEST SWAP3 SWAP2 POP POP JUMP JUMPDEST PUSH0 PUSH1 0x60 DUP3 ADD SWAP1 POP PUSH2 0x3F23 PUSH0 DUP4 ADD DUP7 PUSH2 0x37C3 JUMP JUMPDEST PUSH2 0x3F30 PUSH1 0x20 DUP4 ADD DUP6 PUSH2 0x37C3 JUMP JUMPDEST PUSH2 0x3F3D PUSH1 0x40 DUP4 ADD DUP5 PUSH2 0x37C3 JUMP JUMPDEST SWAP5 SWAP4 POP POP POP POP JUMP JUMPDEST PUSH32 0x54686973206164647265737320646F6573206E6F742068617665207065726D69 PUSH0 DUP3 ADD MSTORE PUSH32 0x7373696F6E20746F2063616C6C20706572666F726D55706B6565700000000000 PUSH1 0x20 DUP3 ADD MSTORE POP JUMP JUMPDEST PUSH0 PUSH2 0x3F9F PUSH1 0x3B DUP4 PUSH2 0x3CBF JUMP JUMPDEST SWAP2 POP PUSH2 0x3FAA DUP3 PUSH2 0x3F45 JUMP JUMPDEST PUSH1 0x40 DUP3 ADD SWAP1 POP SWAP2 SWAP1 POP JUMP JUMPDEST PUSH0 PUSH1 0x20 DUP3 ADD SWAP1 POP DUP2 DUP2 SUB PUSH0 DUP4 ADD MSTORE PUSH2 0x3FCC DUP2 PUSH2 0x3F93 JUMP JUMPDEST SWAP1 POP SWAP2 SWAP1 POP JUMP JUMPDEST PUSH0 PUSH2 0x3FDD DUP3 PUSH2 0x37BA JUMP JUMPDEST SWAP2 POP PUSH2 0x3FE8 DUP4 PUSH2 0x37BA JUMP JUMPDEST SWAP3 POP DUP3 DUP3 ADD SWAP1 POP DUP1 DUP3 GT ISZERO PUSH2 0x4000 JUMPI PUSH2 0x3FFF PUSH2 0x3E69 JUMP JUMPDEST JUMPDEST SWAP3 SWAP2 POP POP JUMP JUMPDEST PUSH0 PUSH1 0x60 DUP3 ADD SWAP1 POP PUSH2 0x4019 PUSH0 DUP4 ADD DUP7 PUSH2 0x38F5 JUMP JUMPDEST PUSH2 0x4026 PUSH1 0x20 DUP4 ADD DUP6 PUSH2 0x38F5 JUMP JUMPDEST PUSH2 0x4033 PUSH1 0x40 DUP4 ADD DUP5 PUSH2 0x37C3 JUMP JUMPDEST SWAP5 SWAP4 POP POP POP POP JUMP JUMPDEST PUSH0 DUP2 MLOAD SWAP1 POP PUSH2 0x4049 DUP2 PUSH2 0x3E01 JUMP JUMPDEST SWAP3 SWAP2 POP POP JUMP JUMPDEST PUSH0 PUSH1 0x20 DUP3 DUP5 SUB SLT ISZERO PUSH2 0x4064 JUMPI PUSH2 0x4063 PUSH2 0x3887 JUMP JUMPDEST JUMPDEST PUSH0 PUSH2 0x4071 DUP5 DUP3 DUP6 ADD PUSH2 0x403B JUMP JUMPDEST SWAP2 POP POP SWAP3 SWAP2 POP POP JUMP JUMPDEST PUSH0 PUSH1 0x60 DUP3 ADD SWAP1 POP PUSH2 0x408D PUSH0 DUP4 ADD DUP7 PUSH2 0x38F5 JUMP JUMPDEST PUSH2 0x409A PUSH1 0x20 DUP4 ADD DUP6 PUSH2 0x37C3 JUMP JUMPDEST PUSH2 0x40A7 PUSH1 0x40 DUP4 ADD DUP5 PUSH2 0x37C3 JUMP JUMPDEST SWAP5 SWAP4 POP POP POP POP JUMP JUMPDEST PUSH0 PUSH1 0x40 DUP3 ADD SWAP1 POP PUSH2 0x40C2 PUSH0 DUP4 ADD DUP6 PUSH2 0x38F5 JUMP JUMPDEST PUSH2 0x40CF PUSH1 0x20 DUP4 ADD DUP5 PUSH2 0x37C3 JUMP JUMPDEST SWAP4 SWAP3 POP POP POP JUMP JUMPDEST PUSH32 0x5265656E7472616E637947756172643A207265656E7472616E742063616C6C00 PUSH0 DUP3 ADD MSTORE POP JUMP JUMPDEST PUSH0 PUSH2 0x410A PUSH1 0x1F DUP4 PUSH2 0x3CBF JUMP JUMPDEST SWAP2 POP PUSH2 0x4115 DUP3 PUSH2 0x40D6 JUMP JUMPDEST PUSH1 0x20 DUP3 ADD SWAP1 POP SWAP2 SWAP1 POP JUMP JUMPDEST PUSH0 PUSH1 0x20 DUP3 ADD SWAP1 POP DUP2 DUP2 SUB PUSH0 DUP4 ADD MSTORE PUSH2 0x4137 DUP2 PUSH2 0x40FE JUMP JUMPDEST SWAP1 POP SWAP2 SWAP1 POP JUMP JUMPDEST PUSH32 0x696E76616C6964205F616D6F756E742100000000000000000000000000000000 PUSH0 DUP3 ADD MSTORE POP JUMP JUMPDEST PUSH0 PUSH2 0x4172 PUSH1 0x10 DUP4 PUSH2 0x3CBF JUMP JUMPDEST SWAP2 POP PUSH2 0x417D DUP3 PUSH2 0x413E JUMP JUMPDEST PUSH1 0x20 DUP3 ADD SWAP1 POP SWAP2 SWAP1 POP JUMP JUMPDEST PUSH0 PUSH1 0x20 DUP3 ADD SWAP1 POP DUP2 DUP2 SUB PUSH0 DUP4 ADD MSTORE PUSH2 0x419F DUP2 PUSH2 0x4166 JUMP JUMPDEST SWAP1 POP SWAP2 SWAP1 POP JUMP JUMPDEST PUSH0 PUSH1 0x40 DUP3 ADD SWAP1 POP PUSH2 0x41B9 PUSH0 DUP4 ADD DUP6 PUSH2 0x37C3 JUMP JUMPDEST PUSH2 0x41C6 PUSH1 0x20 DUP4 ADD DUP5 PUSH2 0x37C3 JUMP JUMPDEST SWAP4 SWAP3 POP POP POP JUMP JUMPDEST PUSH0 DUP2 SWAP1 POP SWAP2 SWAP1 POP JUMP JUMPDEST PUSH0 PUSH8 0xFFFFFFFFFFFFFFFF DUP3 AND SWAP1 POP SWAP2 SWAP1 POP JUMP JUMPDEST PUSH0 PUSH2 0x4203 PUSH2 0x41FE PUSH2 0x41F9 DUP5 PUSH2 0x41CD JUMP JUMPDEST PUSH2 0x380A JUMP JUMPDEST PUSH2 0x41D6 JUMP JUMPDEST SWAP1 POP SWAP2 SWAP1 POP JUMP JUMPDEST PUSH2 0x4213 DUP2 PUSH2 0x41E9 JUMP JUMPDEST DUP3 MSTORE POP POP JUMP JUMPDEST PUSH0 PUSH1 0x20 DUP3 ADD SWAP1 POP PUSH2 0x422C PUSH0 DUP4 ADD DUP5 PUSH2 0x420A JUMP JUMPDEST SWAP3 SWAP2 POP POP JUMP JUMPDEST PUSH0 PUSH1 0x40 DUP3 ADD SWAP1 POP PUSH2 0x4245 PUSH0 DUP4 ADD DUP6 PUSH2 0x38F5 JUMP JUMPDEST PUSH2 0x4252 PUSH1 0x20 DUP4 ADD DUP5 PUSH2 0x38F5 JUMP JUMPDEST SWAP4 SWAP3 POP POP POP JUMP JUMPDEST PUSH0 PUSH1 0x60 DUP3 ADD SWAP1 POP PUSH2 0x426C PUSH0 DUP4 ADD DUP7 PUSH2 0x38F5 JUMP JUMPDEST PUSH2 0x4279 PUSH1 0x20 DUP4 ADD DUP6 PUSH2 0x38F5 JUMP JUMPDEST PUSH2 0x4286 PUSH1 0x40 DUP4 ADD DUP5 PUSH2 0x3928 JUMP JUMPDEST SWAP5 SWAP4 POP POP POP POP JUMP JUMPDEST PUSH32 0x6E6F7420656E6F75676820616D6F756E74000000000000000000000000000000 PUSH0 DUP3 ADD MSTORE POP JUMP JUMPDEST PUSH0 PUSH2 0x42C2 PUSH1 0x11 DUP4 PUSH2 0x3CBF JUMP JUMPDEST SWAP2 POP PUSH2 0x42CD DUP3 PUSH2 0x428E JUMP JUMPDEST PUSH1 0x20 DUP3 ADD SWAP1 POP SWAP2 SWAP1 POP JUMP JUMPDEST PUSH0 PUSH1 0x20 DUP3 ADD SWAP1 POP DUP2 DUP2 SUB PUSH0 DUP4 ADD MSTORE PUSH2 0x42EF DUP2 PUSH2 0x42B6 JUMP JUMPDEST SWAP1 POP SWAP2 SWAP1 POP JUMP JUMPDEST PUSH0 PUSH2 0x4300 DUP3 PUSH2 0x37BA JUMP JUMPDEST SWAP2 POP PUSH2 0x430B DUP4 PUSH2 0x37BA JUMP JUMPDEST SWAP3 POP DUP3 DUP3 MUL PUSH2 0x4319 DUP2 PUSH2 0x37BA JUMP JUMPDEST SWAP2 POP DUP3 DUP3 DIV DUP5 EQ DUP4 ISZERO OR PUSH2 0x4330 JUMPI PUSH2 0x432F PUSH2 0x3E69 JUMP JUMPDEST JUMPDEST POP SWAP3 SWAP2 POP POP JUMP JUMPDEST PUSH32 0x4E487B7100000000000000000000000000000000000000000000000000000000 PUSH0 MSTORE PUSH1 0x12 PUSH1 0x4 MSTORE PUSH1 0x24 PUSH0 REVERT JUMPDEST PUSH0 PUSH2 0x436E DUP3 PUSH2 0x37BA JUMP JUMPDEST SWAP2 POP PUSH2 0x4379 DUP4 PUSH2 0x37BA JUMP JUMPDEST SWAP3 POP DUP3 PUSH2 0x4389 JUMPI PUSH2 0x4388 PUSH2 0x4337 JUMP JUMPDEST JUMPDEST DUP3 DUP3 DIV SWAP1 POP SWAP3 SWAP2 POP POP JUMP JUMPDEST PUSH32 0x416D6F756E742069732067726561746572207468656E20353025000000000000 PUSH0 DUP3 ADD MSTORE POP JUMP JUMPDEST PUSH0 PUSH2 0x43C8 PUSH1 0x1A DUP4 PUSH2 0x3CBF JUMP JUMPDEST SWAP2 POP PUSH2 0x43D3 DUP3 PUSH2 0x4394 JUMP JUMPDEST PUSH1 0x20 DUP3 ADD SWAP1 POP SWAP2 SWAP1 POP JUMP JUMPDEST PUSH0 PUSH1 0x20 DUP3 ADD SWAP1 POP DUP2 DUP2 SUB PUSH0 DUP4 ADD MSTORE PUSH2 0x43F5 DUP2 PUSH2 0x43BC JUMP JUMPDEST SWAP1 POP SWAP2 SWAP1 POP JUMP JUMPDEST PUSH2 0x4405 DUP2 PUSH2 0x3BB8 JUMP JUMPDEST DUP2 EQ PUSH2 0x440F JUMPI PUSH0 DUP1 REVERT JUMPDEST POP JUMP JUMPDEST PUSH0 DUP2 MLOAD SWAP1 POP PUSH2 0x4420 DUP2 PUSH2 0x43FC JUMP JUMPDEST SWAP3 SWAP2 POP POP JUMP JUMPDEST PUSH0 PUSH1 0x20 DUP3 DUP5 SUB SLT ISZERO PUSH2 0x443B JUMPI PUSH2 0x443A PUSH2 0x3887 JUMP JUMPDEST JUMPDEST PUSH0 PUSH2 0x4448 DUP5 DUP3 DUP6 ADD PUSH2 0x4412 JUMP JUMPDEST SWAP2 POP POP SWAP3 SWAP2 POP POP JUMP JUMPDEST PUSH32 0x6E6F207573657273210000000000000000000000000000000000000000000000 PUSH0 DUP3 ADD MSTORE POP JUMP JUMPDEST PUSH0 PUSH2 0x4485 PUSH1 0x9 DUP4 PUSH2 0x3CBF JUMP JUMPDEST SWAP2 POP PUSH2 0x4490 DUP3 PUSH2 0x4451 JUMP JUMPDEST PUSH1 0x20 DUP3 ADD SWAP1 POP SWAP2 SWAP1 POP JUMP JUMPDEST PUSH0 PUSH1 0x20 DUP3 ADD SWAP1 POP DUP2 DUP2 SUB PUSH0 DUP4 ADD MSTORE PUSH2 0x44B2 DUP2 PUSH2 0x4479 JUMP JUMPDEST SWAP1 POP SWAP2 SWAP1 POP JUMP JUMPDEST PUSH32 0x5F746F74616C5374616B65416D6F756E742063616E206E6F74206265207A6572 PUSH0 DUP3 ADD MSTORE PUSH32 0x6F00000000000000000000000000000000000000000000000000000000000000 PUSH1 0x20 DUP3 ADD MSTORE POP JUMP JUMPDEST PUSH0 PUSH2 0x4513 PUSH1 0x21 DUP4 PUSH2 0x3CBF JUMP JUMPDEST SWAP2 POP PUSH2 0x451E DUP3 PUSH2 0x44B9 JUMP JUMPDEST PUSH1 0x40 DUP3 ADD SWAP1 POP SWAP2 SWAP1 POP JUMP JUMPDEST PUSH0 PUSH1 0x20 DUP3 ADD SWAP1 POP DUP2 DUP2 SUB PUSH0 DUP4 ADD MSTORE PUSH2 0x4540 DUP2 PUSH2 0x4507 JUMP JUMPDEST SWAP1 POP SWAP2 SWAP1 POP JUMP JUMPDEST PUSH0 DUP2 SWAP1 POP SWAP3 SWAP2 POP POP JUMP JUMPDEST PUSH0 PUSH2 0x455B DUP3 PUSH2 0x3C27 JUMP JUMPDEST PUSH2 0x4565 DUP2 DUP6 PUSH2 0x4547 JUMP JUMPDEST SWAP4 POP PUSH2 0x4575 DUP2 DUP6 PUSH1 0x20 DUP7 ADD PUSH2 0x3C41 JUMP JUMPDEST DUP1 DUP5 ADD SWAP2 POP POP SWAP3 SWAP2 POP POP JUMP JUMPDEST PUSH0 PUSH2 0x458C DUP3 DUP5 PUSH2 0x4551 JUMP JUMPDEST SWAP2 POP DUP2 SWAP1 POP SWAP3 SWAP2 POP POP JUMP INVALID LOG2 PUSH5 0x6970667358 0x22 SLT KECCAK256 EXTCODESIZE 0xB5 0xA5 MCOPY 0xE2 MCOPY CALLER 0xAB DUP1 0x1F MCOPY DUP4 CALLDATALOAD SGT GT DUP10 0xC3 DUP11 0x23 GT TIMESTAMP 0xBD BLOBHASH 0xA5 DUP6 CALLDATASIZE DUP4 GASPRICE MSTORE8 0xED PUSH31 0x9064736F6C634300081A003300000000000000000000000000000000000000 "
				},
				"gasEstimates": {
					"creation": {
						"codeDepositCost": "3573800",
						"executionCost": "infinite",
						"totalCost": "infinite"
					},
					"external": {
						"UPGRADE_INTERFACE_VERSION()": "infinite",
						"addFunds(uint256,uint256)": "infinite",
						"addOwnership(uint256)": "infinite",
						"addProjects(uint256)": "infinite",
						"addTreasuery(uint256)": "infinite",
						"alreadyAdded(address)": "2966",
						"blockUser(address,bool)": "infinite",
						"checkOnce()": "2585",
						"checkUpkeep(bytes)": "infinite",
						"flowToTreasuryPercentage()": "2580",
						"initialize(address,address,address)": "infinite",
						"interval()": "2492",
						"lastTimeStamp()": "2581",
						"maintainceFeePercentage()": "2559",
						"multisigAddress()": "2664",
						"noOfUsers()": "2472",
						"odividentPayoutPercentage()": "2471",
						"off()": "infinite",
						"owner()": "2612",
						"ownerShipPoolAmount()": "2470",
						"performUpkeep(bytes)": "infinite",
						"proxiableUUID()": "infinite",
						"reStakeTokens(uint256)": "infinite",
						"realInterval()": "2471",
						"renounceOwnership()": "infinite",
						"s_forwarderAddress()": "2643",
						"setForwarderAddress(address)": "infinite",
						"setInterval(uint256,uint256)": "infinite",
						"setTeasueryPercentages(uint256,uint256)": "infinite",
						"setflowToTreasuryPercentage(uint256)": "infinite",
						"setmaintainceFeePercentage(uint256)": "infinite",
						"setodividentPayoutPercentage(uint256)": "infinite",
						"settdividentPayoutPercentage(uint256)": "infinite",
						"stakeTokens(uint256)": "infinite",
						"startingTime()": "2537",
						"tPPercentages(uint256)": "infinite",
						"tdividentPayoutPercentage()": "2515",
						"totalProjects()": "2514",
						"totalStakedAmount()": "2470",
						"totalUsers(uint256)": "2938",
						"transferOwnership(address)": "infinite",
						"treasuryPoolAmount()": "2516",
						"upgradeToAndCall(address,bytes)": "infinite",
						"usdcToken()": "infinite",
						"userRegistered(address)": "infinite",
						"userWithdrawAmoount(uint256)": "infinite",
						"weeklyTransfer()": "infinite"
					},
					"internal": {
						"_authorizeUpgrade(address)": "infinite",
						"calculateFees(uint256,uint256)": "infinite",
						"calculatePercentage(uint256,uint256)": "infinite",
						"perPoolCalculation()": "infinite"
					}
				},
				"methodIdentifiers": {
					"UPGRADE_INTERFACE_VERSION()": "ad3cb1cc",
					"addFunds(uint256,uint256)": "85f45250",
					"addOwnership(uint256)": "78fd078d",
					"addProjects(uint256)": "2765df7a",
					"addTreasuery(uint256)": "5256dbbf",
					"alreadyAdded(address)": "c7fd5bf0",
					"blockUser(address,bool)": "d9b998b4",
					"checkOnce()": "30e3f8f8",
					"checkUpkeep(bytes)": "6e04ff0d",
					"flowToTreasuryPercentage()": "ce356a24",
					"initialize(address,address,address)": "c0c53b8b",
					"interval()": "947a36fb",
					"lastTimeStamp()": "3f3b3b27",
					"maintainceFeePercentage()": "3a71a9e4",
					"multisigAddress()": "5462870d",
					"noOfUsers()": "01934a83",
					"odividentPayoutPercentage()": "44490ff4",
					"off()": "6626b26d",
					"owner()": "8da5cb5b",
					"ownerShipPoolAmount()": "b47ff951",
					"performUpkeep(bytes)": "4585e33b",
					"proxiableUUID()": "52d1902d",
					"reStakeTokens(uint256)": "7ffe4d93",
					"realInterval()": "30cac972",
					"renounceOwnership()": "715018a6",
					"s_forwarderAddress()": "3070fbf8",
					"setForwarderAddress(address)": "d777cc6d",
					"setInterval(uint256,uint256)": "5f17e616",
					"setTeasueryPercentages(uint256,uint256)": "ed061067",
					"setflowToTreasuryPercentage(uint256)": "ad8e5ec4",
					"setmaintainceFeePercentage(uint256)": "7f111e60",
					"setodividentPayoutPercentage(uint256)": "b9dac1eb",
					"settdividentPayoutPercentage(uint256)": "7f70c5e7",
					"stakeTokens(uint256)": "7547c7a3",
					"startingTime()": "39518b5e",
					"tPPercentages(uint256)": "ff3d65d9",
					"tdividentPayoutPercentage()": "33244c2c",
					"totalProjects()": "9c361e4e",
					"totalStakedAmount()": "567e98f9",
					"totalUsers(uint256)": "a4f67b8b",
					"transferOwnership(address)": "f2fde38b",
					"treasuryPoolAmount()": "188e07b9",
					"upgradeToAndCall(address,bytes)": "4f1ef286",
					"usdcToken()": "11eac855",
					"userRegistered(address)": "bccbc36c",
					"userWithdrawAmoount(uint256)": "67976974",
					"weeklyTransfer()": "e9c68e2c"
				}
			},
			"storageLayout": {
				"storage": [
					{
						"astId": 1436,
						"contract": "DripWarrior/poolContract.sol:PoolContrcat",
						"label": "usdcToken",
						"offset": 0,
						"slot": "0",
						"type": "t_contract(IBEP20)1425"
					},
					{
						"astId": 1438,
						"contract": "DripWarrior/poolContract.sol:PoolContrcat",
						"label": "treasuryPoolAmount",
						"offset": 0,
						"slot": "1",
						"type": "t_uint256"
					},
					{
						"astId": 1440,
						"contract": "DripWarrior/poolContract.sol:PoolContrcat",
						"label": "ownerShipPoolAmount",
						"offset": 0,
						"slot": "2",
						"type": "t_uint256"
					},
					{
						"astId": 1442,
						"contract": "DripWarrior/poolContract.sol:PoolContrcat",
						"label": "totalStakedAmount",
						"offset": 0,
						"slot": "3",
						"type": "t_uint256"
					},
					{
						"astId": 1444,
						"contract": "DripWarrior/poolContract.sol:PoolContrcat",
						"label": "tdividentPayoutPercentage",
						"offset": 0,
						"slot": "4",
						"type": "t_uint256"
					},
					{
						"astId": 1446,
						"contract": "DripWarrior/poolContract.sol:PoolContrcat",
						"label": "odividentPayoutPercentage",
						"offset": 0,
						"slot": "5",
						"type": "t_uint256"
					},
					{
						"astId": 1448,
						"contract": "DripWarrior/poolContract.sol:PoolContrcat",
						"label": "flowToTreasuryPercentage",
						"offset": 0,
						"slot": "6",
						"type": "t_uint256"
					},
					{
						"astId": 1450,
						"contract": "DripWarrior/poolContract.sol:PoolContrcat",
						"label": "maintainceFeePercentage",
						"offset": 0,
						"slot": "7",
						"type": "t_uint256"
					},
					{
						"astId": 1452,
						"contract": "DripWarrior/poolContract.sol:PoolContrcat",
						"label": "noOfUsers",
						"offset": 0,
						"slot": "8",
						"type": "t_uint256"
					},
					{
						"astId": 1454,
						"contract": "DripWarrior/poolContract.sol:PoolContrcat",
						"label": "multisigAddress",
						"offset": 0,
						"slot": "9",
						"type": "t_address"
					},
					{
						"astId": 1456,
						"contract": "DripWarrior/poolContract.sol:PoolContrcat",
						"label": "checkOnce",
						"offset": 20,
						"slot": "9",
						"type": "t_bool"
					},
					{
						"astId": 1458,
						"contract": "DripWarrior/poolContract.sol:PoolContrcat",
						"label": "locked",
						"offset": 21,
						"slot": "9",
						"type": "t_bool"
					},
					{
						"astId": 1460,
						"contract": "DripWarrior/poolContract.sol:PoolContrcat",
						"label": "interval",
						"offset": 0,
						"slot": "10",
						"type": "t_uint256"
					},
					{
						"astId": 1462,
						"contract": "DripWarrior/poolContract.sol:PoolContrcat",
						"label": "realInterval",
						"offset": 0,
						"slot": "11",
						"type": "t_uint256"
					},
					{
						"astId": 1464,
						"contract": "DripWarrior/poolContract.sol:PoolContrcat",
						"label": "startingTime",
						"offset": 0,
						"slot": "12",
						"type": "t_uint256"
					},
					{
						"astId": 1466,
						"contract": "DripWarrior/poolContract.sol:PoolContrcat",
						"label": "lastTimeStamp",
						"offset": 0,
						"slot": "13",
						"type": "t_uint256"
					},
					{
						"astId": 1468,
						"contract": "DripWarrior/poolContract.sol:PoolContrcat",
						"label": "s_forwarderAddress",
						"offset": 0,
						"slot": "14",
						"type": "t_address"
					},
					{
						"astId": 1483,
						"contract": "DripWarrior/poolContract.sol:PoolContrcat",
						"label": "totalProjects",
						"offset": 0,
						"slot": "15",
						"type": "t_uint256"
					},
					{
						"astId": 1487,
						"contract": "DripWarrior/poolContract.sol:PoolContrcat",
						"label": "alreadyAdded",
						"offset": 0,
						"slot": "16",
						"type": "t_mapping(t_address,t_bool)"
					},
					{
						"astId": 1491,
						"contract": "DripWarrior/poolContract.sol:PoolContrcat",
						"label": "totalUsers",
						"offset": 0,
						"slot": "17",
						"type": "t_mapping(t_uint256,t_address)"
					},
					{
						"astId": 1495,
						"contract": "DripWarrior/poolContract.sol:PoolContrcat",
						"label": "tPPercentages",
						"offset": 0,
						"slot": "18",
						"type": "t_mapping(t_uint256,t_uint256)"
					},
					{
						"astId": 1500,
						"contract": "DripWarrior/poolContract.sol:PoolContrcat",
						"label": "userRegistered",
						"offset": 0,
						"slot": "19",
						"type": "t_mapping(t_address,t_struct(UserRegistered)1481_storage)"
					}
				],
				"types": {
					"t_address": {
						"encoding": "inplace",
						"label": "address",
						"numberOfBytes": "20"
					},
					"t_bool": {
						"encoding": "inplace",
						"label": "bool",
						"numberOfBytes": "1"
					},
					"t_contract(IBEP20)1425": {
						"encoding": "inplace",
						"label": "contract IBEP20",
						"numberOfBytes": "20"
					},
					"t_mapping(t_address,t_bool)": {
						"encoding": "mapping",
						"key": "t_address",
						"label": "mapping(address => bool)",
						"numberOfBytes": "32",
						"value": "t_bool"
					},
					"t_mapping(t_address,t_struct(UserRegistered)1481_storage)": {
						"encoding": "mapping",
						"key": "t_address",
						"label": "mapping(address => struct PoolContrcat.UserRegistered)",
						"numberOfBytes": "32",
						"value": "t_struct(UserRegistered)1481_storage"
					},
					"t_mapping(t_uint256,t_address)": {
						"encoding": "mapping",
						"key": "t_uint256",
						"label": "mapping(uint256 => address)",
						"numberOfBytes": "32",
						"value": "t_address"
					},
					"t_mapping(t_uint256,t_uint256)": {
						"encoding": "mapping",
						"key": "t_uint256",
						"label": "mapping(uint256 => uint256)",
						"numberOfBytes": "32",
						"value": "t_uint256"
					},
					"t_struct(UserRegistered)1481_storage": {
						"encoding": "inplace",
						"label": "struct PoolContrcat.UserRegistered",
						"members": [
							{
								"astId": 1470,
								"contract": "DripWarrior/poolContract.sol:PoolContrcat",
								"label": "blocked",
								"offset": 0,
								"slot": "0",
								"type": "t_bool"
							},
							{
								"astId": 1472,
								"contract": "DripWarrior/poolContract.sol:PoolContrcat",
								"label": "receivedAmount",
								"offset": 0,
								"slot": "1",
								"type": "t_uint256"
							},
							{
								"astId": 1474,
								"contract": "DripWarrior/poolContract.sol:PoolContrcat",
								"label": "withdrawAmount",
								"offset": 0,
								"slot": "2",
								"type": "t_uint256"
							},
							{
								"astId": 1476,
								"contract": "DripWarrior/poolContract.sol:PoolContrcat",
								"label": "receiveFromTreasury",
								"offset": 0,
								"slot": "3",
								"type": "t_uint256"
							},
							{
								"astId": 1478,
								"contract": "DripWarrior/poolContract.sol:PoolContrcat",
								"label": "receiveFromOwneerShip",
								"offset": 0,
								"slot": "4",
								"type": "t_uint256"
							},
							{
								"astId": 1480,
								"contract": "DripWarrior/poolContract.sol:PoolContrcat",
								"label": "totalStakedAmount",
								"offset": 0,
								"slot": "5",
								"type": "t_uint256"
							}
						],
						"numberOfBytes": "192"
					},
					"t_uint256": {
						"encoding": "inplace",
						"label": "uint256",
						"numberOfBytes": "32"
					}
				}
			},
			"userdoc": {
				"kind": "user",
				"methods": {},
				"version": 1
			}
		}
	}
}