{
	"DripWarrior/poolContract.sol": {
		"PoolContrcat": {
			"abi": [
				{
					"inputs": [],
					"stateMutability": "nonpayable",
					"type": "constructor"
				},
				{
					"inputs": [
						{
							"internalType": "address",
							"name": "target",
							"type": "address"
						}
					],
					"name": "AddressEmptyCode",
					"type": "error"
				},
				{
					"inputs": [
						{
							"internalType": "address",
							"name": "implementation",
							"type": "address"
						}
					],
					"name": "ERC1967InvalidImplementation",
					"type": "error"
				},
				{
					"inputs": [],
					"name": "ERC1967NonPayable",
					"type": "error"
				},
				{
					"inputs": [],
					"name": "FailedInnerCall",
					"type": "error"
				},
				{
					"inputs": [],
					"name": "InvalidInitialization",
					"type": "error"
				},
				{
					"inputs": [],
					"name": "NotInitializing",
					"type": "error"
				},
				{
					"inputs": [
						{
							"internalType": "address",
							"name": "owner",
							"type": "address"
						}
					],
					"name": "OwnableInvalidOwner",
					"type": "error"
				},
				{
					"inputs": [
						{
							"internalType": "address",
							"name": "account",
							"type": "address"
						}
					],
					"name": "OwnableUnauthorizedAccount",
					"type": "error"
				},
				{
					"inputs": [],
					"name": "UUPSUnauthorizedCallContext",
					"type": "error"
				},
				{
					"inputs": [
						{
							"internalType": "bytes32",
							"name": "slot",
							"type": "bytes32"
						}
					],
					"name": "UUPSUnsupportedProxiableUUID",
					"type": "error"
				},
				{
					"inputs": [
						{
							"internalType": "bool",
							"name": "transfered",
							"type": "bool"
						}
					],
					"name": "transferFailed",
					"type": "error"
				},
				{
					"inputs": [
						{
							"internalType": "bool",
							"name": "blocked",
							"type": "bool"
						}
					],
					"name": "userBlocked",
					"type": "error"
				},
				{
					"inputs": [
						{
							"internalType": "address",
							"name": "wrongAddress",
							"type": "address"
						}
					],
					"name": "wrongAddress",
					"type": "error"
				},
				{
					"inputs": [
						{
							"internalType": "uint256",
							"name": "amount",
							"type": "uint256"
						}
					],
					"name": "wrongAmount",
					"type": "error"
				},
				{
					"inputs": [
						{
							"internalType": "uint256",
							"name": "updateInterval",
							"type": "uint256"
						}
					],
					"name": "wrongInterval",
					"type": "error"
				},
				{
					"inputs": [
						{
							"internalType": "address",
							"name": "owner",
							"type": "address"
						}
					],
					"name": "wrongOwner",
					"type": "error"
				},
				{
					"inputs": [
						{
							"internalType": "uint256",
							"name": "percentage",
							"type": "uint256"
						}
					],
					"name": "wrongPercentage",
					"type": "error"
				},
				{
					"inputs": [
						{
							"internalType": "uint256",
							"name": "projectNO",
							"type": "uint256"
						}
					],
					"name": "wrongProjectNo",
					"type": "error"
				},
				{
					"inputs": [
						{
							"internalType": "bool",
							"name": "value",
							"type": "bool"
						}
					],
					"name": "wrongValue",
					"type": "error"
				},
				{
					"anonymous": false,
					"inputs": [
						{
							"indexed": false,
							"internalType": "uint256",
							"name": "_amount",
							"type": "uint256"
						},
						{
							"indexed": false,
							"internalType": "uint256",
							"name": "_projectNo",
							"type": "uint256"
						}
					],
					"name": "AddFunds",
					"type": "event"
				},
				{
					"anonymous": false,
					"inputs": [
						{
							"indexed": false,
							"internalType": "uint256",
							"name": "_ownerShipPoolAmount",
							"type": "uint256"
						}
					],
					"name": "AddOwnership",
					"type": "event"
				},
				{
					"anonymous": false,
					"inputs": [
						{
							"indexed": false,
							"internalType": "uint256",
							"name": "projectId",
							"type": "uint256"
						},
						{
							"indexed": false,
							"internalType": "uint256",
							"name": "OpPercentage",
							"type": "uint256"
						},
						{
							"indexed": false,
							"internalType": "uint256",
							"name": "tpPercentage",
							"type": "uint256"
						}
					],
					"name": "AddProject",
					"type": "event"
				},
				{
					"anonymous": false,
					"inputs": [
						{
							"indexed": false,
							"internalType": "uint256",
							"name": "_treasuryPoolAmount",
							"type": "uint256"
						}
					],
					"name": "AddTreasuery",
					"type": "event"
				},
				{
					"anonymous": false,
					"inputs": [
						{
							"indexed": false,
							"internalType": "uint64",
							"name": "version",
							"type": "uint64"
						}
					],
					"name": "Initialized",
					"type": "event"
				},
				{
					"anonymous": false,
					"inputs": [
						{
							"indexed": true,
							"internalType": "address",
							"name": "previousOwner",
							"type": "address"
						},
						{
							"indexed": true,
							"internalType": "address",
							"name": "newOwner",
							"type": "address"
						}
					],
					"name": "OwnershipTransferred",
					"type": "event"
				},
				{
					"anonymous": false,
					"inputs": [
						{
							"indexed": false,
							"internalType": "address",
							"name": "_owner",
							"type": "address"
						},
						{
							"indexed": false,
							"internalType": "uint256",
							"name": "_newPercentage",
							"type": "uint256"
						}
					],
					"name": "PercentageChanged",
					"type": "event"
				},
				{
					"anonymous": false,
					"inputs": [
						{
							"indexed": false,
							"internalType": "address",
							"name": "_owner",
							"type": "address"
						},
						{
							"indexed": false,
							"internalType": "address",
							"name": "_s_forwarderAddress",
							"type": "address"
						}
					],
					"name": "SetForwarderAddress",
					"type": "event"
				},
				{
					"anonymous": false,
					"inputs": [
						{
							"indexed": false,
							"internalType": "address",
							"name": "_owner",
							"type": "address"
						},
						{
							"indexed": false,
							"internalType": "uint256",
							"name": "_interval",
							"type": "uint256"
						},
						{
							"indexed": false,
							"internalType": "uint256",
							"name": "_lastTimeStamp",
							"type": "uint256"
						}
					],
					"name": "SetInterval",
					"type": "event"
				},
				{
					"anonymous": false,
					"inputs": [
						{
							"indexed": false,
							"internalType": "address",
							"name": "sender",
							"type": "address"
						},
						{
							"indexed": false,
							"internalType": "address",
							"name": "recepient",
							"type": "address"
						},
						{
							"indexed": false,
							"internalType": "uint256",
							"name": "usdcAmount",
							"type": "uint256"
						}
					],
					"name": "StakeTokens",
					"type": "event"
				},
				{
					"anonymous": false,
					"inputs": [
						{
							"indexed": true,
							"internalType": "address",
							"name": "implementation",
							"type": "address"
						}
					],
					"name": "Upgraded",
					"type": "event"
				},
				{
					"anonymous": false,
					"inputs": [
						{
							"indexed": false,
							"internalType": "address",
							"name": "owner",
							"type": "address"
						},
						{
							"indexed": false,
							"internalType": "address",
							"name": "blockUserAddress",
							"type": "address"
						},
						{
							"indexed": false,
							"internalType": "bool",
							"name": "blocked",
							"type": "bool"
						}
					],
					"name": "UserBlocked",
					"type": "event"
				},
				{
					"anonymous": false,
					"inputs": [
						{
							"indexed": false,
							"internalType": "address",
							"name": "caller",
							"type": "address"
						},
						{
							"indexed": false,
							"internalType": "uint256",
							"name": "ownerShipPoolAmount",
							"type": "uint256"
						},
						{
							"indexed": false,
							"internalType": "uint256",
							"name": "treasuryPoolAmount",
							"type": "uint256"
						}
					],
					"name": "WeeklyTransfered",
					"type": "event"
				},
				{
					"anonymous": false,
					"inputs": [
						{
							"indexed": false,
							"internalType": "address",
							"name": "recipient",
							"type": "address"
						},
						{
							"indexed": false,
							"internalType": "uint256",
							"name": "usdcAmount",
							"type": "uint256"
						}
					],
					"name": "Withdraw",
					"type": "event"
				},
				{
					"anonymous": false,
					"inputs": [
						{
							"indexed": false,
							"internalType": "address",
							"name": "_owner",
							"type": "address"
						},
						{
							"indexed": false,
							"internalType": "uint256",
							"name": "_interval",
							"type": "uint256"
						}
					],
					"name": "offInterval",
					"type": "event"
				},
				{
					"inputs": [],
					"name": "UPGRADE_INTERFACE_VERSION",
					"outputs": [
						{
							"internalType": "string",
							"name": "",
							"type": "string"
						}
					],
					"stateMutability": "view",
					"type": "function"
				},
				{
					"inputs": [
						{
							"internalType": "uint256",
							"name": "_amount",
							"type": "uint256"
						},
						{
							"internalType": "uint256",
							"name": "_projectNo",
							"type": "uint256"
						}
					],
					"name": "addFunds",
					"outputs": [],
					"stateMutability": "nonpayable",
					"type": "function"
				},
				{
					"inputs": [
						{
							"internalType": "uint256",
							"name": "_amount",
							"type": "uint256"
						}
					],
					"name": "addOwnership",
					"outputs": [],
					"stateMutability": "nonpayable",
					"type": "function"
				},
				{
					"inputs": [
						{
							"internalType": "uint256",
							"name": "_tPPercentage",
							"type": "uint256"
						}
					],
					"name": "addProjects",
					"outputs": [],
					"stateMutability": "nonpayable",
					"type": "function"
				},
				{
					"inputs": [
						{
							"internalType": "uint256",
							"name": "_amount",
							"type": "uint256"
						}
					],
					"name": "addTreasuery",
					"outputs": [],
					"stateMutability": "nonpayable",
					"type": "function"
				},
				{
					"inputs": [
						{
							"internalType": "address",
							"name": "",
							"type": "address"
						}
					],
					"name": "alreadyAdded",
					"outputs": [
						{
							"internalType": "bool",
							"name": "",
							"type": "bool"
						}
					],
					"stateMutability": "view",
					"type": "function"
				},
				{
					"inputs": [
						{
							"internalType": "address",
							"name": "_userAddress",
							"type": "address"
						},
						{
							"internalType": "bool",
							"name": "value",
							"type": "bool"
						}
					],
					"name": "blockUser",
					"outputs": [],
					"stateMutability": "nonpayable",
					"type": "function"
				},
				{
					"inputs": [
						{
							"internalType": "bytes",
							"name": "",
							"type": "bytes"
						}
					],
					"name": "checkUpkeep",
					"outputs": [
						{
							"internalType": "bool",
							"name": "",
							"type": "bool"
						},
						{
							"internalType": "bytes",
							"name": "",
							"type": "bytes"
						}
					],
					"stateMutability": "view",
					"type": "function"
				},
				{
					"inputs": [],
					"name": "flowToTreasuryPercentage",
					"outputs": [
						{
							"internalType": "uint256",
							"name": "",
							"type": "uint256"
						}
					],
					"stateMutability": "view",
					"type": "function"
				},
				{
					"inputs": [
						{
							"internalType": "address",
							"name": "initialOwner",
							"type": "address"
						},
						{
							"internalType": "address",
							"name": "_usdcAddress",
							"type": "address"
						},
						{
							"internalType": "address",
							"name": "_multisigAddress",
							"type": "address"
						}
					],
					"name": "initialize",
					"outputs": [],
					"stateMutability": "nonpayable",
					"type": "function"
				},
				{
					"inputs": [],
					"name": "interval",
					"outputs": [
						{
							"internalType": "uint256",
							"name": "",
							"type": "uint256"
						}
					],
					"stateMutability": "view",
					"type": "function"
				},
				{
					"inputs": [],
					"name": "lastTimeStamp",
					"outputs": [
						{
							"internalType": "uint256",
							"name": "",
							"type": "uint256"
						}
					],
					"stateMutability": "view",
					"type": "function"
				},
				{
					"inputs": [],
					"name": "maintainceFeePercentage",
					"outputs": [
						{
							"internalType": "uint256",
							"name": "",
							"type": "uint256"
						}
					],
					"stateMutability": "view",
					"type": "function"
				},
				{
					"inputs": [],
					"name": "multisigAddress",
					"outputs": [
						{
							"internalType": "address",
							"name": "",
							"type": "address"
						}
					],
					"stateMutability": "view",
					"type": "function"
				},
				{
					"inputs": [],
					"name": "noOfUsers",
					"outputs": [
						{
							"internalType": "uint256",
							"name": "",
							"type": "uint256"
						}
					],
					"stateMutability": "view",
					"type": "function"
				},
				{
					"inputs": [],
					"name": "odividentPayoutPercentage",
					"outputs": [
						{
							"internalType": "uint256",
							"name": "",
							"type": "uint256"
						}
					],
					"stateMutability": "view",
					"type": "function"
				},
				{
					"inputs": [],
					"name": "off",
					"outputs": [],
					"stateMutability": "nonpayable",
					"type": "function"
				},
				{
					"inputs": [],
					"name": "owner",
					"outputs": [
						{
							"internalType": "address",
							"name": "",
							"type": "address"
						}
					],
					"stateMutability": "view",
					"type": "function"
				},
				{
					"inputs": [],
					"name": "ownerShipPoolAmount",
					"outputs": [
						{
							"internalType": "uint256",
							"name": "",
							"type": "uint256"
						}
					],
					"stateMutability": "view",
					"type": "function"
				},
				{
					"inputs": [
						{
							"internalType": "bytes",
							"name": "",
							"type": "bytes"
						}
					],
					"name": "performUpkeep",
					"outputs": [],
					"stateMutability": "nonpayable",
					"type": "function"
				},
				{
					"inputs": [],
					"name": "proxiableUUID",
					"outputs": [
						{
							"internalType": "bytes32",
							"name": "",
							"type": "bytes32"
						}
					],
					"stateMutability": "view",
					"type": "function"
				},
				{
					"inputs": [
						{
							"internalType": "uint256",
							"name": "_amount",
							"type": "uint256"
						}
					],
					"name": "reStakeTokens",
					"outputs": [],
					"stateMutability": "nonpayable",
					"type": "function"
				},
				{
					"inputs": [],
					"name": "renounceOwnership",
					"outputs": [],
					"stateMutability": "nonpayable",
					"type": "function"
				},
				{
					"inputs": [],
					"name": "s_forwarderAddress",
					"outputs": [
						{
							"internalType": "address",
							"name": "",
							"type": "address"
						}
					],
					"stateMutability": "view",
					"type": "function"
				},
				{
					"inputs": [
						{
							"internalType": "address",
							"name": "forwarderAddress",
							"type": "address"
						}
					],
					"name": "setForwarderAddress",
					"outputs": [],
					"stateMutability": "nonpayable",
					"type": "function"
				},
				{
					"inputs": [
						{
							"internalType": "uint256",
							"name": "updateInterval",
							"type": "uint256"
						}
					],
					"name": "setInterval",
					"outputs": [],
					"stateMutability": "nonpayable",
					"type": "function"
				},
				{
					"inputs": [
						{
							"internalType": "uint256",
							"name": "_projectId",
							"type": "uint256"
						},
						{
							"internalType": "uint256",
							"name": "_newPerccentage",
							"type": "uint256"
						}
					],
					"name": "setTeasueryPercentages",
					"outputs": [],
					"stateMutability": "nonpayable",
					"type": "function"
				},
				{
					"inputs": [
						{
							"internalType": "uint256",
							"name": "_newPerccentage",
							"type": "uint256"
						}
					],
					"name": "setflowToTreasuryPercentage",
					"outputs": [],
					"stateMutability": "nonpayable",
					"type": "function"
				},
				{
					"inputs": [
						{
							"internalType": "uint256",
							"name": "_newPerccentage",
							"type": "uint256"
						}
					],
					"name": "setmaintainceFeePercentage",
					"outputs": [],
					"stateMutability": "nonpayable",
					"type": "function"
				},
				{
					"inputs": [
						{
							"internalType": "uint256",
							"name": "_newPerccentage",
							"type": "uint256"
						}
					],
					"name": "setodividentPayoutPercentage",
					"outputs": [],
					"stateMutability": "nonpayable",
					"type": "function"
				},
				{
					"inputs": [
						{
							"internalType": "uint256",
							"name": "_newPerccentage",
							"type": "uint256"
						}
					],
					"name": "settdividentPayoutPercentage",
					"outputs": [],
					"stateMutability": "nonpayable",
					"type": "function"
				},
				{
					"inputs": [
						{
							"internalType": "uint256",
							"name": "_amount",
							"type": "uint256"
						}
					],
					"name": "stakeTokens",
					"outputs": [],
					"stateMutability": "nonpayable",
					"type": "function"
				},
				{
					"inputs": [
						{
							"internalType": "uint256",
							"name": "",
							"type": "uint256"
						}
					],
					"name": "tPPercentages",
					"outputs": [
						{
							"internalType": "uint256",
							"name": "",
							"type": "uint256"
						}
					],
					"stateMutability": "view",
					"type": "function"
				},
				{
					"inputs": [],
					"name": "tdividentPayoutPercentage",
					"outputs": [
						{
							"internalType": "uint256",
							"name": "",
							"type": "uint256"
						}
					],
					"stateMutability": "view",
					"type": "function"
				},
				{
					"inputs": [],
					"name": "totalProjects",
					"outputs": [
						{
							"internalType": "uint256",
							"name": "",
							"type": "uint256"
						}
					],
					"stateMutability": "view",
					"type": "function"
				},
				{
					"inputs": [],
					"name": "totalStakedAmount",
					"outputs": [
						{
							"internalType": "uint256",
							"name": "",
							"type": "uint256"
						}
					],
					"stateMutability": "view",
					"type": "function"
				},
				{
					"inputs": [
						{
							"internalType": "uint256",
							"name": "",
							"type": "uint256"
						}
					],
					"name": "totalUsers",
					"outputs": [
						{
							"internalType": "address",
							"name": "",
							"type": "address"
						}
					],
					"stateMutability": "view",
					"type": "function"
				},
				{
					"inputs": [
						{
							"internalType": "address",
							"name": "newOwner",
							"type": "address"
						}
					],
					"name": "transferOwnership",
					"outputs": [],
					"stateMutability": "nonpayable",
					"type": "function"
				},
				{
					"inputs": [],
					"name": "treasuryPoolAmount",
					"outputs": [
						{
							"internalType": "uint256",
							"name": "",
							"type": "uint256"
						}
					],
					"stateMutability": "view",
					"type": "function"
				},
				{
					"inputs": [
						{
							"internalType": "address",
							"name": "newImplementation",
							"type": "address"
						},
						{
							"internalType": "bytes",
							"name": "data",
							"type": "bytes"
						}
					],
					"name": "upgradeToAndCall",
					"outputs": [],
					"stateMutability": "payable",
					"type": "function"
				},
				{
					"inputs": [],
					"name": "usdcToken",
					"outputs": [
						{
							"internalType": "contract IBEP20",
							"name": "",
							"type": "address"
						}
					],
					"stateMutability": "view",
					"type": "function"
				},
				{
					"inputs": [
						{
							"internalType": "address",
							"name": "",
							"type": "address"
						}
					],
					"name": "userRegistered",
					"outputs": [
						{
							"internalType": "bool",
							"name": "blocked",
							"type": "bool"
						},
						{
							"internalType": "uint256",
							"name": "receivedAmount",
							"type": "uint256"
						},
						{
							"internalType": "uint256",
							"name": "withdrawAmount",
							"type": "uint256"
						},
						{
							"internalType": "uint256",
							"name": "receiveFromTreasury",
							"type": "uint256"
						},
						{
							"internalType": "uint256",
							"name": "receiveFromOwneerShip",
							"type": "uint256"
						},
						{
							"internalType": "uint256",
							"name": "totalStakedAmount",
							"type": "uint256"
						}
					],
					"stateMutability": "view",
					"type": "function"
				},
				{
					"inputs": [
						{
							"internalType": "uint256",
							"name": "_amount",
							"type": "uint256"
						}
					],
					"name": "userWithdrawAmoount",
					"outputs": [],
					"stateMutability": "nonpayable",
					"type": "function"
				},
				{
					"inputs": [],
					"name": "weeklyTransfer",
					"outputs": [],
					"stateMutability": "nonpayable",
					"type": "function"
				}
			],
			"devdoc": {
				"errors": {
					"AddressEmptyCode(address)": [
						{
							"details": "There's no code at `target` (it is not a contract)."
						}
					],
					"ERC1967InvalidImplementation(address)": [
						{
							"details": "The `implementation` of the proxy is invalid."
						}
					],
					"ERC1967NonPayable()": [
						{
							"details": "An upgrade function sees `msg.value > 0` that may be lost."
						}
					],
					"FailedInnerCall()": [
						{
							"details": "A call to an address target failed. The target may have reverted."
						}
					],
					"InvalidInitialization()": [
						{
							"details": "The contract is already initialized."
						}
					],
					"NotInitializing()": [
						{
							"details": "The contract is not initializing."
						}
					],
					"OwnableInvalidOwner(address)": [
						{
							"details": "The owner is not a valid owner account. (eg. `address(0)`)"
						}
					],
					"OwnableUnauthorizedAccount(address)": [
						{
							"details": "The caller account is not authorized to perform an operation."
						}
					],
					"UUPSUnauthorizedCallContext()": [
						{
							"details": "The call is from an unauthorized context."
						}
					],
					"UUPSUnsupportedProxiableUUID(bytes32)": [
						{
							"details": "The storage `slot` is unsupported as a UUID."
						}
					]
				},
				"events": {
					"Initialized(uint64)": {
						"details": "Triggered when the contract has been initialized or reinitialized."
					},
					"Upgraded(address)": {
						"details": "Emitted when the implementation is upgraded."
					}
				},
				"kind": "dev",
				"methods": {
					"constructor": {
						"custom:oz-upgrades-unsafe-allow": "constructor"
					},
					"owner()": {
						"details": "Returns the address of the current owner."
					},
					"proxiableUUID()": {
						"details": "Implementation of the ERC1822 {proxiableUUID} function. This returns the storage slot used by the implementation. It is used to validate the implementation's compatibility when performing an upgrade. IMPORTANT: A proxy pointing at a proxiable contract should not be considered proxiable itself, because this risks bricking a proxy that upgrades to it, by delegating to itself until out of gas. Thus it is critical that this function revert if invoked through a proxy. This is guaranteed by the `notDelegated` modifier."
					},
					"renounceOwnership()": {
						"details": "Leaves the contract without owner. It will not be possible to call `onlyOwner` functions. Can only be called by the current owner. NOTE: Renouncing ownership will leave the contract without an owner, thereby disabling any functionality that is only available to the owner."
					},
					"transferOwnership(address)": {
						"details": "Transfers ownership of the contract to a new account (`newOwner`). Can only be called by the current owner."
					},
					"upgradeToAndCall(address,bytes)": {
						"custom:oz-upgrades-unsafe-allow-reachable": "delegatecall",
						"details": "Upgrade the implementation of the proxy to `newImplementation`, and subsequently execute the function call encoded in `data`. Calls {_authorizeUpgrade}. Emits an {Upgraded} event."
					}
				},
				"version": 1
			},
			"evm": {
				"assembly": "    /* \"DripWarrior/poolContract.sol\":895:15162  contract PoolContrcat is Initializable, OwnableUpgradeable, UUPSUpgradeable, AutomationCompatibleInterface {... */\n  mstore(0x40, 0xa0)\n    /* \"@openzeppelin/contracts-upgradeable/proxy/utils/UUPSUpgradeable.sol\":1171:1175  this */\n  address\n    /* \"@openzeppelin/contracts-upgradeable/proxy/utils/UUPSUpgradeable.sol\":1128:1176  address private immutable __self = address(this) */\n  0xffffffffffffffffffffffffffffffffffffffff\n  and\n  0x80\n  swap1\n  0xffffffffffffffffffffffffffffffffffffffff\n  and\n  dup2\n  mstore\n  pop\n    /* \"DripWarrior/poolContract.sol\":3376:3429  constructor() {... */\n  callvalue\n  dup1\n  iszero\n  tag_1\n  jumpi\n  revert(0x00, 0x00)\ntag_1:\n  pop\n    /* \"DripWarrior/poolContract.sol\":3400:3422  _disableInitializers() */\n  tag_4\n    /* \"DripWarrior/poolContract.sol\":3400:3420  _disableInitializers */\n  shl(0x20, tag_5)\n    /* \"DripWarrior/poolContract.sol\":3400:3422  _disableInitializers() */\n  0x20\n  shr\n  jump\t// in\ntag_4:\n    /* \"DripWarrior/poolContract.sol\":895:15162  contract PoolContrcat is Initializable, OwnableUpgradeable, UUPSUpgradeable, AutomationCompatibleInterface {... */\n  jump(tag_6)\n    /* \"@openzeppelin/contracts-upgradeable/proxy/utils/Initializable.sol\":7711:8133  function _disableInitializers() internal virtual {... */\ntag_5:\n    /* \"@openzeppelin/contracts-upgradeable/proxy/utils/Initializable.sol\":7826:7856  InitializableStorage storage $ */\n  0x00\n    /* \"@openzeppelin/contracts-upgradeable/proxy/utils/Initializable.sol\":7859:7885  _getInitializableStorage() */\n  tag_8\n    /* \"@openzeppelin/contracts-upgradeable/proxy/utils/Initializable.sol\":7859:7883  _getInitializableStorage */\n  shl(0x20, tag_9)\n    /* \"@openzeppelin/contracts-upgradeable/proxy/utils/Initializable.sol\":7859:7885  _getInitializableStorage() */\n  0x20\n  shr\n  jump\t// in\ntag_8:\n    /* \"@openzeppelin/contracts-upgradeable/proxy/utils/Initializable.sol\":7826:7885  InitializableStorage storage $ = _getInitializableStorage() */\n  swap1\n  pop\n    /* \"@openzeppelin/contracts-upgradeable/proxy/utils/Initializable.sol\":7900:7901  $ */\n  dup1\n    /* \"@openzeppelin/contracts-upgradeable/proxy/utils/Initializable.sol\":7900:7915  $._initializing */\n  0x00\n  add\n  0x08\n  swap1\n  sload\n  swap1\n  0x0100\n  exp\n  swap1\n  div\n  0xff\n  and\n    /* \"@openzeppelin/contracts-upgradeable/proxy/utils/Initializable.sol\":7896:7972  if ($._initializing) {... */\n  iszero\n  tag_10\n  jumpi\n    /* \"@openzeppelin/contracts-upgradeable/proxy/utils/Initializable.sol\":7938:7961  InvalidInitialization() */\n  mload(0x40)\n  0xf92ee8a900000000000000000000000000000000000000000000000000000000\n  dup2\n  mstore\n  0x04\n  add\n  mload(0x40)\n  dup1\n  swap2\n  sub\n  swap1\n  revert\n    /* \"@openzeppelin/contracts-upgradeable/proxy/utils/Initializable.sol\":7896:7972  if ($._initializing) {... */\ntag_10:\n    /* \"@openzeppelin/contracts-upgradeable/proxy/utils/Initializable.sol\":8003:8019  type(uint64).max */\n  0xffffffffffffffff\n    /* \"@openzeppelin/contracts-upgradeable/proxy/utils/Initializable.sol\":7985:8019  $._initialized != type(uint64).max */\n  dup1\n  and\n    /* \"@openzeppelin/contracts-upgradeable/proxy/utils/Initializable.sol\":7985:7986  $ */\n  dup2\n    /* \"@openzeppelin/contracts-upgradeable/proxy/utils/Initializable.sol\":7985:7999  $._initialized */\n  0x00\n  add\n  0x00\n  swap1\n  sload\n  swap1\n  0x0100\n  exp\n  swap1\n  div\n  0xffffffffffffffff\n  and\n    /* \"@openzeppelin/contracts-upgradeable/proxy/utils/Initializable.sol\":7985:8019  $._initialized != type(uint64).max */\n  0xffffffffffffffff\n  and\n  eq\n    /* \"@openzeppelin/contracts-upgradeable/proxy/utils/Initializable.sol\":7981:8127  if ($._initialized != type(uint64).max) {... */\n  tag_11\n  jumpi\n    /* \"@openzeppelin/contracts-upgradeable/proxy/utils/Initializable.sol\":8052:8068  type(uint64).max */\n  0xffffffffffffffff\n    /* \"@openzeppelin/contracts-upgradeable/proxy/utils/Initializable.sol\":8035:8036  $ */\n  dup2\n    /* \"@openzeppelin/contracts-upgradeable/proxy/utils/Initializable.sol\":8035:8049  $._initialized */\n  0x00\n  add\n  0x00\n    /* \"@openzeppelin/contracts-upgradeable/proxy/utils/Initializable.sol\":8035:8068  $._initialized = type(uint64).max */\n  0x0100\n  exp\n  dup2\n  sload\n  dup2\n  0xffffffffffffffff\n  mul\n  not\n  and\n  swap1\n  dup4\n  0xffffffffffffffff\n  and\n  mul\n  or\n  swap1\n  sstore\n  pop\n    /* \"@openzeppelin/contracts-upgradeable/proxy/utils/Initializable.sol\":8087:8116  Initialized(type(uint64).max) */\n  0xc7f505b2f371ae2175ee4913f4499e1f2633a7b5936321eed1cdaeb6115181d2\n    /* \"@openzeppelin/contracts-upgradeable/proxy/utils/Initializable.sol\":8099:8115  type(uint64).max */\n  0xffffffffffffffff\n    /* \"@openzeppelin/contracts-upgradeable/proxy/utils/Initializable.sol\":8087:8116  Initialized(type(uint64).max) */\n  mload(0x40)\n  tag_12\n  swap2\n  swap1\n  tag_13\n  jump\t// in\ntag_12:\n  mload(0x40)\n  dup1\n  swap2\n  sub\n  swap1\n  log1\n    /* \"@openzeppelin/contracts-upgradeable/proxy/utils/Initializable.sol\":7981:8127  if ($._initialized != type(uint64).max) {... */\ntag_11:\n    /* \"@openzeppelin/contracts-upgradeable/proxy/utils/Initializable.sol\":7760:8133  {... */\n  pop\n    /* \"@openzeppelin/contracts-upgradeable/proxy/utils/Initializable.sol\":7711:8133  function _disableInitializers() internal virtual {... */\n  jump\t// out\n    /* \"@openzeppelin/contracts-upgradeable/proxy/utils/Initializable.sol\":8737:8907  function _getInitializableStorage() private pure returns (InitializableStorage storage $) {... */\ntag_9:\n    /* \"@openzeppelin/contracts-upgradeable/proxy/utils/Initializable.sol\":8795:8825  InitializableStorage storage $ */\n  0x00\n    /* \"@openzeppelin/contracts-upgradeable/proxy/utils/Initializable.sol\":8870:8891  INITIALIZABLE_STORAGE */\n  0xf0c57e16840df040f15088dc2f81fe391c3923bec73e23a9662efc9c229c6a00\n    /* \"@openzeppelin/contracts-upgradeable/proxy/utils/Initializable.sol\":8860:8891  $.slot := INITIALIZABLE_STORAGE */\n  swap1\n  pop\n    /* \"@openzeppelin/contracts-upgradeable/proxy/utils/Initializable.sol\":8737:8907  function _getInitializableStorage() private pure returns (InitializableStorage storage $) {... */\n  swap1\n  jump\t// out\n    /* \"#utility.yul\":7:108   */\ntag_15:\n    /* \"#utility.yul\":43:50   */\n  0x00\n    /* \"#utility.yul\":83:101   */\n  0xffffffffffffffff\n    /* \"#utility.yul\":76:81   */\n  dup3\n    /* \"#utility.yul\":72:102   */\n  and\n    /* \"#utility.yul\":61:102   */\n  swap1\n  pop\n    /* \"#utility.yul\":7:108   */\n  swap2\n  swap1\n  pop\n  jump\t// out\n    /* \"#utility.yul\":114:229   */\ntag_16:\n    /* \"#utility.yul\":199:222   */\n  tag_20\n    /* \"#utility.yul\":216:221   */\n  dup2\n    /* \"#utility.yul\":199:222   */\n  tag_15\n  jump\t// in\ntag_20:\n    /* \"#utility.yul\":194:197   */\n  dup3\n    /* \"#utility.yul\":187:223   */\n  mstore\n    /* \"#utility.yul\":114:229   */\n  pop\n  pop\n  jump\t// out\n    /* \"#utility.yul\":235:453   */\ntag_13:\n    /* \"#utility.yul\":326:330   */\n  0x00\n    /* \"#utility.yul\":364:366   */\n  0x20\n    /* \"#utility.yul\":353:362   */\n  dup3\n    /* \"#utility.yul\":349:367   */\n  add\n    /* \"#utility.yul\":341:367   */\n  swap1\n  pop\n    /* \"#utility.yul\":377:446   */\n  tag_22\n    /* \"#utility.yul\":443:444   */\n  0x00\n    /* \"#utility.yul\":432:441   */\n  dup4\n    /* \"#utility.yul\":428:445   */\n  add\n    /* \"#utility.yul\":419:425   */\n  dup5\n    /* \"#utility.yul\":377:446   */\n  tag_16\n  jump\t// in\ntag_22:\n    /* \"#utility.yul\":235:453   */\n  swap3\n  swap2\n  pop\n  pop\n  jump\t// out\n    /* \"DripWarrior/poolContract.sol\":895:15162  contract PoolContrcat is Initializable, OwnableUpgradeable, UUPSUpgradeable, AutomationCompatibleInterface {... */\ntag_6:\n  mload(0x80)\n  codecopy(0x00, dataOffset(sub_0), dataSize(sub_0))\n  0x00\n  assignImmutable(\"0x6740f0f1ed974f4bbc4ea3ddf8917f81b1171208e4ec27e89df857ca2a56624a\")\n  return(0x00, dataSize(sub_0))\nstop\n\nsub_0: assembly {\n        /* \"DripWarrior/poolContract.sol\":895:15162  contract PoolContrcat is Initializable, OwnableUpgradeable, UUPSUpgradeable, AutomationCompatibleInterface {... */\n      mstore(0x40, 0x80)\n      jumpi(tag_1, lt(calldatasize, 0x04))\n      shr(0xe0, calldataload(0x00))\n      dup1\n      0x7f111e60\n      gt\n      tag_46\n      jumpi\n      dup1\n      0xb9dac1eb\n      gt\n      tag_47\n      jumpi\n      dup1\n      0xd777cc6d\n      gt\n      tag_48\n      jumpi\n      dup1\n      0xd777cc6d\n      eq\n      tag_40\n      jumpi\n      dup1\n      0xd9b998b4\n      eq\n      tag_41\n      jumpi\n      dup1\n      0xe9c68e2c\n      eq\n      tag_42\n      jumpi\n      dup1\n      0xed061067\n      eq\n      tag_43\n      jumpi\n      dup1\n      0xf2fde38b\n      eq\n      tag_44\n      jumpi\n      dup1\n      0xff3d65d9\n      eq\n      tag_45\n      jumpi\n      jump(tag_1)\n    tag_48:\n      dup1\n      0xb9dac1eb\n      eq\n      tag_35\n      jumpi\n      dup1\n      0xbccbc36c\n      eq\n      tag_36\n      jumpi\n      dup1\n      0xc0c53b8b\n      eq\n      tag_37\n      jumpi\n      dup1\n      0xc7fd5bf0\n      eq\n      tag_38\n      jumpi\n      dup1\n      0xce356a24\n      eq\n      tag_39\n      jumpi\n      jump(tag_1)\n    tag_47:\n      dup1\n      0x947a36fb\n      gt\n      tag_49\n      jumpi\n      dup1\n      0x947a36fb\n      eq\n      tag_29\n      jumpi\n      dup1\n      0x9c361e4e\n      eq\n      tag_30\n      jumpi\n      dup1\n      0xa4f67b8b\n      eq\n      tag_31\n      jumpi\n      dup1\n      0xad3cb1cc\n      eq\n      tag_32\n      jumpi\n      dup1\n      0xad8e5ec4\n      eq\n      tag_33\n      jumpi\n      dup1\n      0xb47ff951\n      eq\n      tag_34\n      jumpi\n      jump(tag_1)\n    tag_49:\n      dup1\n      0x7f111e60\n      eq\n      tag_24\n      jumpi\n      dup1\n      0x7f70c5e7\n      eq\n      tag_25\n      jumpi\n      dup1\n      0x7ffe4d93\n      eq\n      tag_26\n      jumpi\n      dup1\n      0x85f45250\n      eq\n      tag_27\n      jumpi\n      dup1\n      0x8da5cb5b\n      eq\n      tag_28\n      jumpi\n      jump(tag_1)\n    tag_46:\n      dup1\n      0x4f1ef286\n      gt\n      tag_50\n      jumpi\n      dup1\n      0x6626b26d\n      gt\n      tag_51\n      jumpi\n      dup1\n      0x6626b26d\n      eq\n      tag_18\n      jumpi\n      dup1\n      0x67976974\n      eq\n      tag_19\n      jumpi\n      dup1\n      0x6e04ff0d\n      eq\n      tag_20\n      jumpi\n      dup1\n      0x715018a6\n      eq\n      tag_21\n      jumpi\n      dup1\n      0x7547c7a3\n      eq\n      tag_22\n      jumpi\n      dup1\n      0x78fd078d\n      eq\n      tag_23\n      jumpi\n      jump(tag_1)\n    tag_51:\n      dup1\n      0x4f1ef286\n      eq\n      tag_13\n      jumpi\n      dup1\n      0x5256dbbf\n      eq\n      tag_14\n      jumpi\n      dup1\n      0x52d1902d\n      eq\n      tag_15\n      jumpi\n      dup1\n      0x5462870d\n      eq\n      tag_16\n      jumpi\n      dup1\n      0x567e98f9\n      eq\n      tag_17\n      jumpi\n      jump(tag_1)\n    tag_50:\n      dup1\n      0x3070fbf8\n      gt\n      tag_52\n      jumpi\n      dup1\n      0x3070fbf8\n      eq\n      tag_7\n      jumpi\n      dup1\n      0x33244c2c\n      eq\n      tag_8\n      jumpi\n      dup1\n      0x3a71a9e4\n      eq\n      tag_9\n      jumpi\n      dup1\n      0x3f3b3b27\n      eq\n      tag_10\n      jumpi\n      dup1\n      0x44490ff4\n      eq\n      tag_11\n      jumpi\n      dup1\n      0x4585e33b\n      eq\n      tag_12\n      jumpi\n      jump(tag_1)\n    tag_52:\n      dup1\n      0x01934a83\n      eq\n      tag_2\n      jumpi\n      dup1\n      0x11eac855\n      eq\n      tag_3\n      jumpi\n      dup1\n      0x188e07b9\n      eq\n      tag_4\n      jumpi\n      dup1\n      0x22a90082\n      eq\n      tag_5\n      jumpi\n      dup1\n      0x2765df7a\n      eq\n      tag_6\n      jumpi\n    tag_1:\n      revert(0x00, 0x00)\n        /* \"DripWarrior/poolContract.sol\":1343:1367  uint256 public noOfUsers */\n    tag_2:\n      callvalue\n      dup1\n      iszero\n      tag_53\n      jumpi\n      revert(0x00, 0x00)\n    tag_53:\n      pop\n      tag_54\n      tag_55\n      jump\t// in\n    tag_54:\n      mload(0x40)\n      tag_56\n      swap2\n      swap1\n      tag_57\n      jump\t// in\n    tag_56:\n      mload(0x40)\n      dup1\n      swap2\n      sub\n      swap1\n      return\n        /* \"DripWarrior/poolContract.sol\":1009:1032  IBEP20 public usdcToken */\n    tag_3:\n      callvalue\n      dup1\n      iszero\n      tag_58\n      jumpi\n      revert(0x00, 0x00)\n    tag_58:\n      pop\n      tag_59\n      tag_60\n      jump\t// in\n    tag_59:\n      mload(0x40)\n      tag_61\n      swap2\n      swap1\n      tag_62\n      jump\t// in\n    tag_61:\n      mload(0x40)\n      dup1\n      swap2\n      sub\n      swap1\n      return\n        /* \"DripWarrior/poolContract.sol\":1043:1076  uint256 public treasuryPoolAmount */\n    tag_4:\n      callvalue\n      dup1\n      iszero\n      tag_63\n      jumpi\n      revert(0x00, 0x00)\n    tag_63:\n      pop\n      tag_64\n      tag_65\n      jump\t// in\n    tag_64:\n      mload(0x40)\n      tag_66\n      swap2\n      swap1\n      tag_57\n      jump\t// in\n    tag_66:\n      mload(0x40)\n      dup1\n      swap2\n      sub\n      swap1\n      return\n        /* \"DripWarrior/poolContract.sol\":10870:11186  function setInterval (uint256 updateInterval) external  onlyOwner{... */\n    tag_5:\n      callvalue\n      dup1\n      iszero\n      tag_67\n      jumpi\n      revert(0x00, 0x00)\n    tag_67:\n      pop\n      tag_68\n      0x04\n      dup1\n      calldatasize\n      sub\n      dup2\n      add\n      swap1\n      tag_69\n      swap2\n      swap1\n      tag_70\n      jump\t// in\n    tag_69:\n      tag_71\n      jump\t// in\n    tag_68:\n      stop\n        /* \"DripWarrior/poolContract.sol\":4174:4512  function addProjects(uint256 _tPPercentage) external onlyOwner(){... */\n    tag_6:\n      callvalue\n      dup1\n      iszero\n      tag_72\n      jumpi\n      revert(0x00, 0x00)\n    tag_72:\n      pop\n      tag_73\n      0x04\n      dup1\n      calldatasize\n      sub\n      dup2\n      add\n      swap1\n      tag_74\n      swap2\n      swap1\n      tag_70\n      jump\t// in\n    tag_74:\n      tag_75\n      jump\t// in\n    tag_73:\n      stop\n        /* \"DripWarrior/poolContract.sol\":1570:1603  address public s_forwarderAddress */\n    tag_7:\n      callvalue\n      dup1\n      iszero\n      tag_76\n      jumpi\n      revert(0x00, 0x00)\n    tag_76:\n      pop\n      tag_77\n      tag_78\n      jump\t// in\n    tag_77:\n      mload(0x40)\n      tag_79\n      swap2\n      swap1\n      tag_80\n      jump\t// in\n    tag_79:\n      mload(0x40)\n      dup1\n      swap2\n      sub\n      swap1\n      return\n        /* \"DripWarrior/poolContract.sol\":1161:1201  uint256 public tdividentPayoutPercentage */\n    tag_8:\n      callvalue\n      dup1\n      iszero\n      tag_81\n      jumpi\n      revert(0x00, 0x00)\n    tag_81:\n      pop\n      tag_82\n      tag_83\n      jump\t// in\n    tag_82:\n      mload(0x40)\n      tag_84\n      swap2\n      swap1\n      tag_57\n      jump\t// in\n    tag_84:\n      mload(0x40)\n      dup1\n      swap2\n      sub\n      swap1\n      return\n        /* \"DripWarrior/poolContract.sol\":1298:1336  uint256 public maintainceFeePercentage */\n    tag_9:\n      callvalue\n      dup1\n      iszero\n      tag_85\n      jumpi\n      revert(0x00, 0x00)\n    tag_85:\n      pop\n      tag_86\n      tag_87\n      jump\t// in\n    tag_86:\n      mload(0x40)\n      tag_88\n      swap2\n      swap1\n      tag_57\n      jump\t// in\n    tag_88:\n      mload(0x40)\n      dup1\n      swap2\n      sub\n      swap1\n      return\n        /* \"DripWarrior/poolContract.sol\":1486:1514  uint256 public lastTimeStamp */\n    tag_10:\n      callvalue\n      dup1\n      iszero\n      tag_89\n      jumpi\n      revert(0x00, 0x00)\n    tag_89:\n      pop\n      tag_90\n      tag_91\n      jump\t// in\n    tag_90:\n      mload(0x40)\n      tag_92\n      swap2\n      swap1\n      tag_57\n      jump\t// in\n    tag_92:\n      mload(0x40)\n      dup1\n      swap2\n      sub\n      swap1\n      return\n        /* \"DripWarrior/poolContract.sol\":1207:1247  uint256 public odividentPayoutPercentage */\n    tag_11:\n      callvalue\n      dup1\n      iszero\n      tag_93\n      jumpi\n      revert(0x00, 0x00)\n    tag_93:\n      pop\n      tag_94\n      tag_95\n      jump\t// in\n    tag_94:\n      mload(0x40)\n      tag_96\n      swap2\n      swap1\n      tag_57\n      jump\t// in\n    tag_96:\n      mload(0x40)\n      dup1\n      swap2\n      sub\n      swap1\n      return\n        /* \"DripWarrior/poolContract.sol\":10544:10858  function performUpkeep(bytes calldata /*performData*/) external  {... */\n    tag_12:\n      callvalue\n      dup1\n      iszero\n      tag_97\n      jumpi\n      revert(0x00, 0x00)\n    tag_97:\n      pop\n      tag_98\n      0x04\n      dup1\n      calldatasize\n      sub\n      dup2\n      add\n      swap1\n      tag_99\n      swap2\n      swap1\n      tag_100\n      jump\t// in\n    tag_99:\n      tag_101\n      jump\t// in\n    tag_98:\n      stop\n        /* \"@openzeppelin/contracts-upgradeable/proxy/utils/UUPSUpgradeable.sol\":4158:4372  function upgradeToAndCall(address newImplementation, bytes memory data) public payable virtual onlyProxy {... */\n    tag_13:\n      tag_102\n      0x04\n      dup1\n      calldatasize\n      sub\n      dup2\n      add\n      swap1\n      tag_103\n      swap2\n      swap1\n      tag_104\n      jump\t// in\n    tag_103:\n      tag_105\n      jump\t// in\n    tag_102:\n      stop\n        /* \"DripWarrior/poolContract.sol\":4929:5329  function addTreasuery(uint256 _amount) external onlyOwner(){... */\n    tag_14:\n      callvalue\n      dup1\n      iszero\n      tag_106\n      jumpi\n      revert(0x00, 0x00)\n    tag_106:\n      pop\n      tag_107\n      0x04\n      dup1\n      calldatasize\n      sub\n      dup2\n      add\n      swap1\n      tag_108\n      swap2\n      swap1\n      tag_70\n      jump\t// in\n    tag_108:\n      tag_109\n      jump\t// in\n    tag_107:\n      stop\n        /* \"@openzeppelin/contracts-upgradeable/proxy/utils/UUPSUpgradeable.sol\":3705:3839  function proxiableUUID() external view virtual notDelegated returns (bytes32) {... */\n    tag_15:\n      callvalue\n      dup1\n      iszero\n      tag_110\n      jumpi\n      revert(0x00, 0x00)\n    tag_110:\n      pop\n      tag_111\n      tag_112\n      jump\t// in\n    tag_111:\n      mload(0x40)\n      tag_113\n      swap2\n      swap1\n      tag_114\n      jump\t// in\n    tag_113:\n      mload(0x40)\n      dup1\n      swap2\n      sub\n      swap1\n      return\n        /* \"DripWarrior/poolContract.sol\":1373:1403  address public multisigAddress */\n    tag_16:\n      callvalue\n      dup1\n      iszero\n      tag_115\n      jumpi\n      revert(0x00, 0x00)\n    tag_115:\n      pop\n      tag_116\n      tag_117\n      jump\t// in\n    tag_116:\n      mload(0x40)\n      tag_118\n      swap2\n      swap1\n      tag_80\n      jump\t// in\n    tag_118:\n      mload(0x40)\n      dup1\n      swap2\n      sub\n      swap1\n      return\n        /* \"DripWarrior/poolContract.sol\":1122:1154  uint256 public totalStakedAmount */\n    tag_17:\n      callvalue\n      dup1\n      iszero\n      tag_119\n      jumpi\n      revert(0x00, 0x00)\n    tag_119:\n      pop\n      tag_120\n      tag_121\n      jump\t// in\n    tag_120:\n      mload(0x40)\n      tag_122\n      swap2\n      swap1\n      tag_57\n      jump\t// in\n    tag_122:\n      mload(0x40)\n      dup1\n      swap2\n      sub\n      swap1\n      return\n        /* \"DripWarrior/poolContract.sol\":11192:11313  function off () external  onlyOwner{... */\n    tag_18:\n      callvalue\n      dup1\n      iszero\n      tag_123\n      jumpi\n      revert(0x00, 0x00)\n    tag_123:\n      pop\n      tag_124\n      tag_125\n      jump\t// in\n    tag_124:\n      stop\n        /* \"DripWarrior/poolContract.sol\":12056:12620  function userWithdrawAmoount(uint256 _amount) external {... */\n    tag_19:\n      callvalue\n      dup1\n      iszero\n      tag_126\n      jumpi\n      revert(0x00, 0x00)\n    tag_126:\n      pop\n      tag_127\n      0x04\n      dup1\n      calldatasize\n      sub\n      dup2\n      add\n      swap1\n      tag_128\n      swap2\n      swap1\n      tag_70\n      jump\t// in\n    tag_128:\n      tag_129\n      jump\t// in\n    tag_127:\n      stop\n        /* \"DripWarrior/poolContract.sol\":10315:10538  function checkUpkeep(bytes calldata /*checkData*/) external view  returns (bool, bytes memory) {... */\n    tag_20:\n      callvalue\n      dup1\n      iszero\n      tag_130\n      jumpi\n      revert(0x00, 0x00)\n    tag_130:\n      pop\n      tag_131\n      0x04\n      dup1\n      calldatasize\n      sub\n      dup2\n      add\n      swap1\n      tag_132\n      swap2\n      swap1\n      tag_100\n      jump\t// in\n    tag_132:\n      tag_133\n      jump\t// in\n    tag_131:\n      mload(0x40)\n      tag_134\n      swap3\n      swap2\n      swap1\n      tag_135\n      jump\t// in\n    tag_134:\n      mload(0x40)\n      dup1\n      swap2\n      sub\n      swap1\n      return\n        /* \"@openzeppelin/contracts-upgradeable/access/OwnableUpgradeable.sol\":3155:3256  function renounceOwnership() public virtual onlyOwner {... */\n    tag_21:\n      callvalue\n      dup1\n      iszero\n      tag_136\n      jumpi\n      revert(0x00, 0x00)\n    tag_136:\n      pop\n      tag_137\n      tag_138\n      jump\t// in\n    tag_137:\n      stop\n        /* \"DripWarrior/poolContract.sol\":5335:6137  function stakeTokens(uint256 _amount) external  {... */\n    tag_22:\n      callvalue\n      dup1\n      iszero\n      tag_139\n      jumpi\n      revert(0x00, 0x00)\n    tag_139:\n      pop\n      tag_140\n      0x04\n      dup1\n      calldatasize\n      sub\n      dup2\n      add\n      swap1\n      tag_141\n      swap2\n      swap1\n      tag_70\n      jump\t// in\n    tag_141:\n      tag_142\n      jump\t// in\n    tag_140:\n      stop\n        /* \"DripWarrior/poolContract.sol\":4518:4919  function addOwnership(uint256 _amount) external onlyOwner(){... */\n    tag_23:\n      callvalue\n      dup1\n      iszero\n      tag_143\n      jumpi\n      revert(0x00, 0x00)\n    tag_143:\n      pop\n      tag_144\n      0x04\n      dup1\n      calldatasize\n      sub\n      dup2\n      add\n      swap1\n      tag_145\n      swap2\n      swap1\n      tag_70\n      jump\t// in\n    tag_145:\n      tag_146\n      jump\t// in\n    tag_144:\n      stop\n        /* \"DripWarrior/poolContract.sol\":14551:14874  function setmaintainceFeePercentage(uint256 _newPerccentage) external onlyOwner {... */\n    tag_24:\n      callvalue\n      dup1\n      iszero\n      tag_147\n      jumpi\n      revert(0x00, 0x00)\n    tag_147:\n      pop\n      tag_148\n      0x04\n      dup1\n      calldatasize\n      sub\n      dup2\n      add\n      swap1\n      tag_149\n      swap2\n      swap1\n      tag_70\n      jump\t// in\n    tag_149:\n      tag_150\n      jump\t// in\n    tag_148:\n      stop\n        /* \"DripWarrior/poolContract.sol\":13540:13870  function settdividentPayoutPercentage(uint256 _newPerccentage) external onlyOwner {... */\n    tag_25:\n      callvalue\n      dup1\n      iszero\n      tag_151\n      jumpi\n      revert(0x00, 0x00)\n    tag_151:\n      pop\n      tag_152\n      0x04\n      dup1\n      calldatasize\n      sub\n      dup2\n      add\n      swap1\n      tag_153\n      swap2\n      swap1\n      tag_70\n      jump\t// in\n    tag_153:\n      tag_154\n      jump\t// in\n    tag_152:\n      stop\n        /* \"DripWarrior/poolContract.sol\":6143:6789  function reStakeTokens(uint256 _amount) external  {... */\n    tag_26:\n      callvalue\n      dup1\n      iszero\n      tag_155\n      jumpi\n      revert(0x00, 0x00)\n    tag_155:\n      pop\n      tag_156\n      0x04\n      dup1\n      calldatasize\n      sub\n      dup2\n      add\n      swap1\n      tag_157\n      swap2\n      swap1\n      tag_70\n      jump\t// in\n    tag_157:\n      tag_158\n      jump\t// in\n    tag_156:\n      stop\n        /* \"DripWarrior/poolContract.sol\":6799:7340  function addFunds(uint256 _amount, uint256 _projectNo)   external {... */\n    tag_27:\n      callvalue\n      dup1\n      iszero\n      tag_159\n      jumpi\n      revert(0x00, 0x00)\n    tag_159:\n      pop\n      tag_160\n      0x04\n      dup1\n      calldatasize\n      sub\n      dup2\n      add\n      swap1\n      tag_161\n      swap2\n      swap1\n      tag_162\n      jump\t// in\n    tag_161:\n      tag_163\n      jump\t// in\n    tag_160:\n      stop\n        /* \"@openzeppelin/contracts-upgradeable/access/OwnableUpgradeable.sol\":2441:2585  function owner() public view virtual returns (address) {... */\n    tag_28:\n      callvalue\n      dup1\n      iszero\n      tag_164\n      jumpi\n      revert(0x00, 0x00)\n    tag_164:\n      pop\n      tag_165\n      tag_166\n      jump\t// in\n    tag_165:\n      mload(0x40)\n      tag_167\n      swap2\n      swap1\n      tag_80\n      jump\t// in\n    tag_167:\n      mload(0x40)\n      dup1\n      swap2\n      sub\n      swap1\n      return\n        /* \"DripWarrior/poolContract.sol\":1410:1433  uint256 public interval */\n    tag_29:\n      callvalue\n      dup1\n      iszero\n      tag_168\n      jumpi\n      revert(0x00, 0x00)\n    tag_168:\n      pop\n      tag_169\n      tag_170\n      jump\t// in\n    tag_169:\n      mload(0x40)\n      tag_171\n      swap2\n      swap1\n      tag_57\n      jump\t// in\n    tag_171:\n      mload(0x40)\n      dup1\n      swap2\n      sub\n      swap1\n      return\n        /* \"DripWarrior/poolContract.sol\":1842:1870  uint256 public totalProjects */\n    tag_30:\n      callvalue\n      dup1\n      iszero\n      tag_172\n      jumpi\n      revert(0x00, 0x00)\n    tag_172:\n      pop\n      tag_173\n      tag_174\n      jump\t// in\n    tag_173:\n      mload(0x40)\n      tag_175\n      swap2\n      swap1\n      tag_57\n      jump\t// in\n    tag_175:\n      mload(0x40)\n      dup1\n      swap2\n      sub\n      swap1\n      return\n        /* \"DripWarrior/poolContract.sol\":1926:1971  mapping(uint256 => address) public totalUsers */\n    tag_31:\n      callvalue\n      dup1\n      iszero\n      tag_176\n      jumpi\n      revert(0x00, 0x00)\n    tag_176:\n      pop\n      tag_177\n      0x04\n      dup1\n      calldatasize\n      sub\n      dup2\n      add\n      swap1\n      tag_178\n      swap2\n      swap1\n      tag_70\n      jump\t// in\n    tag_178:\n      tag_179\n      jump\t// in\n    tag_177:\n      mload(0x40)\n      tag_180\n      swap2\n      swap1\n      tag_80\n      jump\t// in\n    tag_180:\n      mload(0x40)\n      dup1\n      swap2\n      sub\n      swap1\n      return\n        /* \"@openzeppelin/contracts-upgradeable/proxy/utils/UUPSUpgradeable.sol\":1819:1877  string public constant UPGRADE_INTERFACE_VERSION = \"5.0.0\" */\n    tag_32:\n      callvalue\n      dup1\n      iszero\n      tag_181\n      jumpi\n      revert(0x00, 0x00)\n    tag_181:\n      pop\n      tag_182\n      tag_183\n      jump\t// in\n    tag_182:\n      mload(0x40)\n      tag_184\n      swap2\n      swap1\n      tag_185\n      jump\t// in\n    tag_184:\n      mload(0x40)\n      dup1\n      swap2\n      sub\n      swap1\n      return\n        /* \"DripWarrior/poolContract.sol\":14220:14545  function setflowToTreasuryPercentage(uint256 _newPerccentage) external onlyOwner {... */\n    tag_33:\n      callvalue\n      dup1\n      iszero\n      tag_186\n      jumpi\n      revert(0x00, 0x00)\n    tag_186:\n      pop\n      tag_187\n      0x04\n      dup1\n      calldatasize\n      sub\n      dup2\n      add\n      swap1\n      tag_188\n      swap2\n      swap1\n      tag_70\n      jump\t// in\n    tag_188:\n      tag_189\n      jump\t// in\n    tag_187:\n      stop\n        /* \"DripWarrior/poolContract.sol\":1082:1116  uint256 public ownerShipPoolAmount */\n    tag_34:\n      callvalue\n      dup1\n      iszero\n      tag_190\n      jumpi\n      revert(0x00, 0x00)\n    tag_190:\n      pop\n      tag_191\n      tag_192\n      jump\t// in\n    tag_191:\n      mload(0x40)\n      tag_193\n      swap2\n      swap1\n      tag_57\n      jump\t// in\n    tag_193:\n      mload(0x40)\n      dup1\n      swap2\n      sub\n      swap1\n      return\n        /* \"DripWarrior/poolContract.sol\":13880:14209  function setodividentPayoutPercentage(uint256 _newPerccentage) external onlyOwner {... */\n    tag_35:\n      callvalue\n      dup1\n      iszero\n      tag_194\n      jumpi\n      revert(0x00, 0x00)\n    tag_194:\n      pop\n      tag_195\n      0x04\n      dup1\n      calldatasize\n      sub\n      dup2\n      add\n      swap1\n      tag_196\n      swap2\n      swap1\n      tag_70\n      jump\t// in\n    tag_196:\n      tag_197\n      jump\t// in\n    tag_195:\n      stop\n        /* \"DripWarrior/poolContract.sol\":2031:2087  mapping(address => UserRegistered) public userRegistered */\n    tag_36:\n      callvalue\n      dup1\n      iszero\n      tag_198\n      jumpi\n      revert(0x00, 0x00)\n    tag_198:\n      pop\n      tag_199\n      0x04\n      dup1\n      calldatasize\n      sub\n      dup2\n      add\n      swap1\n      tag_200\n      swap2\n      swap1\n      tag_201\n      jump\t// in\n    tag_200:\n      tag_202\n      jump\t// in\n    tag_199:\n      mload(0x40)\n      tag_203\n      swap7\n      swap6\n      swap5\n      swap4\n      swap3\n      swap2\n      swap1\n      tag_204\n      jump\t// in\n    tag_203:\n      mload(0x40)\n      dup1\n      swap2\n      sub\n      swap1\n      return\n        /* \"DripWarrior/poolContract.sol\":3435:4161  function initialize(address initialOwner,address _usdcAddress,... */\n    tag_37:\n      callvalue\n      dup1\n      iszero\n      tag_205\n      jumpi\n      revert(0x00, 0x00)\n    tag_205:\n      pop\n      tag_206\n      0x04\n      dup1\n      calldatasize\n      sub\n      dup2\n      add\n      swap1\n      tag_207\n      swap2\n      swap1\n      tag_208\n      jump\t// in\n    tag_207:\n      tag_209\n      jump\t// in\n    tag_206:\n      stop\n        /* \"DripWarrior/poolContract.sol\":1876:1920  mapping(address => bool) public alreadyAdded */\n    tag_38:\n      callvalue\n      dup1\n      iszero\n      tag_210\n      jumpi\n      revert(0x00, 0x00)\n    tag_210:\n      pop\n      tag_211\n      0x04\n      dup1\n      calldatasize\n      sub\n      dup2\n      add\n      swap1\n      tag_212\n      swap2\n      swap1\n      tag_201\n      jump\t// in\n    tag_212:\n      tag_213\n      jump\t// in\n    tag_211:\n      mload(0x40)\n      tag_214\n      swap2\n      swap1\n      tag_215\n      jump\t// in\n    tag_214:\n      mload(0x40)\n      dup1\n      swap2\n      sub\n      swap1\n      return\n        /* \"DripWarrior/poolContract.sol\":1253:1292  uint256 public flowToTreasuryPercentage */\n    tag_39:\n      callvalue\n      dup1\n      iszero\n      tag_216\n      jumpi\n      revert(0x00, 0x00)\n    tag_216:\n      pop\n      tag_217\n      tag_218\n      jump\t// in\n    tag_217:\n      mload(0x40)\n      tag_219\n      swap2\n      swap1\n      tag_57\n      jump\t// in\n    tag_219:\n      mload(0x40)\n      dup1\n      swap2\n      sub\n      swap1\n      return\n        /* \"DripWarrior/poolContract.sol\":11320:11638  function setForwarderAddress(address forwarderAddress) external onlyOwner {... */\n    tag_40:\n      callvalue\n      dup1\n      iszero\n      tag_220\n      jumpi\n      revert(0x00, 0x00)\n    tag_220:\n      pop\n      tag_221\n      0x04\n      dup1\n      calldatasize\n      sub\n      dup2\n      add\n      swap1\n      tag_222\n      swap2\n      swap1\n      tag_201\n      jump\t// in\n    tag_222:\n      tag_223\n      jump\t// in\n    tag_221:\n      stop\n        /* \"DripWarrior/poolContract.sol\":12626:13180  function blockUser(address _userAddress, bool value) external onlyOwner {... */\n    tag_41:\n      callvalue\n      dup1\n      iszero\n      tag_224\n      jumpi\n      revert(0x00, 0x00)\n    tag_224:\n      pop\n      tag_225\n      0x04\n      dup1\n      calldatasize\n      sub\n      dup2\n      add\n      swap1\n      tag_226\n      swap2\n      swap1\n      tag_227\n      jump\t// in\n    tag_226:\n      tag_228\n      jump\t// in\n    tag_225:\n      stop\n        /* \"DripWarrior/poolContract.sol\":7734:9146  function weeklyTransfer() public bothOwner {... */\n    tag_42:\n      callvalue\n      dup1\n      iszero\n      tag_229\n      jumpi\n      revert(0x00, 0x00)\n    tag_229:\n      pop\n      tag_230\n      tag_231\n      jump\t// in\n    tag_230:\n      stop\n        /* \"DripWarrior/poolContract.sol\":13192:13534  function setTeasueryPercentages(uint256 _projectId,uint256 _newPerccentage) external onlyOwner {... */\n    tag_43:\n      callvalue\n      dup1\n      iszero\n      tag_232\n      jumpi\n      revert(0x00, 0x00)\n    tag_232:\n      pop\n      tag_233\n      0x04\n      dup1\n      calldatasize\n      sub\n      dup2\n      add\n      swap1\n      tag_234\n      swap2\n      swap1\n      tag_162\n      jump\t// in\n    tag_234:\n      tag_235\n      jump\t// in\n    tag_233:\n      stop\n        /* \"@openzeppelin/contracts-upgradeable/access/OwnableUpgradeable.sol\":3405:3620  function transferOwnership(address newOwner) public virtual onlyOwner {... */\n    tag_44:\n      callvalue\n      dup1\n      iszero\n      tag_236\n      jumpi\n      revert(0x00, 0x00)\n    tag_236:\n      pop\n      tag_237\n      0x04\n      dup1\n      calldatasize\n      sub\n      dup2\n      add\n      swap1\n      tag_238\n      swap2\n      swap1\n      tag_201\n      jump\t// in\n    tag_238:\n      tag_239\n      jump\t// in\n    tag_237:\n      stop\n        /* \"DripWarrior/poolContract.sol\":1977:2025  mapping(uint256 => uint256) public tPPercentages */\n    tag_45:\n      callvalue\n      dup1\n      iszero\n      tag_240\n      jumpi\n      revert(0x00, 0x00)\n    tag_240:\n      pop\n      tag_241\n      0x04\n      dup1\n      calldatasize\n      sub\n      dup2\n      add\n      swap1\n      tag_242\n      swap2\n      swap1\n      tag_70\n      jump\t// in\n    tag_242:\n      tag_243\n      jump\t// in\n    tag_241:\n      mload(0x40)\n      tag_244\n      swap2\n      swap1\n      tag_57\n      jump\t// in\n    tag_244:\n      mload(0x40)\n      dup1\n      swap2\n      sub\n      swap1\n      return\n        /* \"DripWarrior/poolContract.sol\":1343:1367  uint256 public noOfUsers */\n    tag_55:\n      sload(0x08)\n      dup2\n      jump\t// out\n        /* \"DripWarrior/poolContract.sol\":1009:1032  IBEP20 public usdcToken */\n    tag_60:\n      0x00\n      0x00\n      swap1\n      sload\n      swap1\n      0x0100\n      exp\n      swap1\n      div\n      0xffffffffffffffffffffffffffffffffffffffff\n      and\n      dup2\n      jump\t// out\n        /* \"DripWarrior/poolContract.sol\":1043:1076  uint256 public treasuryPoolAmount */\n    tag_65:\n      sload(0x01)\n      dup2\n      jump\t// out\n        /* \"DripWarrior/poolContract.sol\":10870:11186  function setInterval (uint256 updateInterval) external  onlyOwner{... */\n    tag_71:\n        /* \"@openzeppelin/contracts-upgradeable/access/OwnableUpgradeable.sol\":2334:2347  _checkOwner() */\n      tag_246\n        /* \"@openzeppelin/contracts-upgradeable/access/OwnableUpgradeable.sol\":2334:2345  _checkOwner */\n      tag_247\n        /* \"@openzeppelin/contracts-upgradeable/access/OwnableUpgradeable.sol\":2334:2347  _checkOwner() */\n      jump\t// in\n    tag_246:\n        /* \"DripWarrior/poolContract.sol\":10976:10977  0 */\n      0x00\n        /* \"DripWarrior/poolContract.sol\":10958:10972  updateInterval */\n      dup2\n        /* \"DripWarrior/poolContract.sol\":10958:10977  updateInterval <= 0 */\n      gt\n        /* \"DripWarrior/poolContract.sol\":10955:11039  if(updateInterval <= 0){... */\n      tag_249\n      jumpi\n        /* \"DripWarrior/poolContract.sol\":11013:11027  updateInterval */\n      dup1\n        /* \"DripWarrior/poolContract.sol\":10999:11028  wrongInterval(updateInterval) */\n      mload(0x40)\n      0x7154000700000000000000000000000000000000000000000000000000000000\n      dup2\n      mstore\n      0x04\n      add\n      tag_250\n      swap2\n      swap1\n      tag_57\n      jump\t// in\n    tag_250:\n      mload(0x40)\n      dup1\n      swap2\n      sub\n      swap1\n      revert\n        /* \"DripWarrior/poolContract.sol\":10955:11039  if(updateInterval <= 0){... */\n    tag_249:\n        /* \"DripWarrior/poolContract.sol\":11059:11073  updateInterval */\n      dup1\n        /* \"DripWarrior/poolContract.sol\":11048:11056  interval */\n      0x0a\n        /* \"DripWarrior/poolContract.sol\":11048:11073  interval = updateInterval */\n      dup2\n      swap1\n      sstore\n      pop\n        /* \"DripWarrior/poolContract.sol\":11099:11114  block.timestamp */\n      timestamp\n        /* \"DripWarrior/poolContract.sol\":11083:11096  lastTimeStamp */\n      0x0b\n        /* \"DripWarrior/poolContract.sol\":11083:11114  lastTimeStamp = block.timestamp */\n      dup2\n      swap1\n      sstore\n      pop\n        /* \"DripWarrior/poolContract.sol\":11130:11178  SetInterval(msg.sender, interval, lastTimeStamp) */\n      0x2b5090e035d3026f5448298c9adc68db8bbc1b26a8af5c81b2b2a9fc07ca4a00\n        /* \"DripWarrior/poolContract.sol\":11142:11152  msg.sender */\n      caller\n        /* \"DripWarrior/poolContract.sol\":11154:11162  interval */\n      sload(0x0a)\n        /* \"DripWarrior/poolContract.sol\":11164:11177  lastTimeStamp */\n      sload(0x0b)\n        /* \"DripWarrior/poolContract.sol\":11130:11178  SetInterval(msg.sender, interval, lastTimeStamp) */\n      mload(0x40)\n      tag_251\n      swap4\n      swap3\n      swap2\n      swap1\n      tag_252\n      jump\t// in\n    tag_251:\n      mload(0x40)\n      dup1\n      swap2\n      sub\n      swap1\n      log1\n        /* \"DripWarrior/poolContract.sol\":10870:11186  function setInterval (uint256 updateInterval) external  onlyOwner{... */\n      pop\n      jump\t// out\n        /* \"DripWarrior/poolContract.sol\":4174:4512  function addProjects(uint256 _tPPercentage) external onlyOwner(){... */\n    tag_75:\n        /* \"@openzeppelin/contracts-upgradeable/access/OwnableUpgradeable.sol\":2334:2347  _checkOwner() */\n      tag_254\n        /* \"@openzeppelin/contracts-upgradeable/access/OwnableUpgradeable.sol\":2334:2345  _checkOwner */\n      tag_247\n        /* \"@openzeppelin/contracts-upgradeable/access/OwnableUpgradeable.sol\":2334:2347  _checkOwner() */\n      jump\t// in\n    tag_254:\n        /* \"DripWarrior/poolContract.sol\":4277:4278  0 */\n      0x00\n        /* \"DripWarrior/poolContract.sol\":4260:4273  _tPPercentage */\n      dup2\n        /* \"DripWarrior/poolContract.sol\":4260:4278  _tPPercentage <= 0 */\n      gt\n        /* \"DripWarrior/poolContract.sol\":4257:4341  if(_tPPercentage <= 0){... */\n      tag_256\n      jumpi\n        /* \"DripWarrior/poolContract.sol\":4316:4329  _tPPercentage */\n      dup1\n        /* \"DripWarrior/poolContract.sol\":4300:4330  wrongPercentage(_tPPercentage) */\n      mload(0x40)\n      0xcdbc633500000000000000000000000000000000000000000000000000000000\n      dup2\n      mstore\n      0x04\n      add\n      tag_257\n      swap2\n      swap1\n      tag_57\n      jump\t// in\n    tag_257:\n      mload(0x40)\n      dup1\n      swap2\n      sub\n      swap1\n      revert\n        /* \"DripWarrior/poolContract.sol\":4257:4341  if(_tPPercentage <= 0){... */\n    tag_256:\n        /* \"DripWarrior/poolContract.sol\":4382:4395  _tPPercentage */\n      dup1\n        /* \"DripWarrior/poolContract.sol\":4351:4364  tPPercentages */\n      0x10\n        /* \"DripWarrior/poolContract.sol\":4351:4379  tPPercentages[totalProjects] */\n      0x00\n        /* \"DripWarrior/poolContract.sol\":4365:4378  totalProjects */\n      sload(0x0d)\n        /* \"DripWarrior/poolContract.sol\":4351:4379  tPPercentages[totalProjects] */\n      dup2\n      mstore\n      0x20\n      add\n      swap1\n      dup2\n      mstore\n      0x20\n      add\n      0x00\n      keccak256\n        /* \"DripWarrior/poolContract.sol\":4351:4395  tPPercentages[totalProjects] = _tPPercentage */\n      dup2\n      swap1\n      sstore\n      pop\n        /* \"DripWarrior/poolContract.sol\":4405:4418  totalProjects */\n      0x0d\n      0x00\n        /* \"DripWarrior/poolContract.sol\":4405:4420  totalProjects++ */\n      dup2\n      sload\n      dup1\n      swap3\n      swap2\n      swap1\n      tag_258\n      swap1\n      tag_259\n      jump\t// in\n    tag_258:\n      swap2\n      swap1\n      pop\n      sstore\n      pop\n        /* \"DripWarrior/poolContract.sol\":4436:4505  AddProject((totalProjects--), (10000 - _tPPercentage), _tPPercentage) */\n      0xe1976e16ed8ce8e740235978fbe69b27d5eea683b2e017bb0bd2fabb33294b3f\n        /* \"DripWarrior/poolContract.sol\":4448:4461  totalProjects */\n      0x0d\n      0x00\n        /* \"DripWarrior/poolContract.sol\":4448:4463  totalProjects-- */\n      dup2\n      sload\n      dup1\n      swap3\n      swap2\n      swap1\n      tag_260\n      swap1\n      tag_261\n      jump\t// in\n    tag_260:\n      swap2\n      swap1\n      pop\n      sstore\n        /* \"DripWarrior/poolContract.sol\":4475:4488  _tPPercentage */\n      dup3\n        /* \"DripWarrior/poolContract.sol\":4467:4472  10000 */\n      0x2710\n        /* \"DripWarrior/poolContract.sol\":4467:4488  10000 - _tPPercentage */\n      tag_262\n      swap2\n      swap1\n      tag_263\n      jump\t// in\n    tag_262:\n        /* \"DripWarrior/poolContract.sol\":4491:4504  _tPPercentage */\n      dup4\n        /* \"DripWarrior/poolContract.sol\":4436:4505  AddProject((totalProjects--), (10000 - _tPPercentage), _tPPercentage) */\n      mload(0x40)\n      tag_264\n      swap4\n      swap3\n      swap2\n      swap1\n      tag_265\n      jump\t// in\n    tag_264:\n      mload(0x40)\n      dup1\n      swap2\n      sub\n      swap1\n      log1\n        /* \"DripWarrior/poolContract.sol\":4174:4512  function addProjects(uint256 _tPPercentage) external onlyOwner(){... */\n      pop\n      jump\t// out\n        /* \"DripWarrior/poolContract.sol\":1570:1603  address public s_forwarderAddress */\n    tag_78:\n      0x0c\n      0x00\n      swap1\n      sload\n      swap1\n      0x0100\n      exp\n      swap1\n      div\n      0xffffffffffffffffffffffffffffffffffffffff\n      and\n      dup2\n      jump\t// out\n        /* \"DripWarrior/poolContract.sol\":1161:1201  uint256 public tdividentPayoutPercentage */\n    tag_83:\n      sload(0x04)\n      dup2\n      jump\t// out\n        /* \"DripWarrior/poolContract.sol\":1298:1336  uint256 public maintainceFeePercentage */\n    tag_87:\n      sload(0x07)\n      dup2\n      jump\t// out\n        /* \"DripWarrior/poolContract.sol\":1486:1514  uint256 public lastTimeStamp */\n    tag_91:\n      sload(0x0b)\n      dup2\n      jump\t// out\n        /* \"DripWarrior/poolContract.sol\":1207:1247  uint256 public odividentPayoutPercentage */\n    tag_95:\n      sload(0x05)\n      dup2\n      jump\t// out\n        /* \"DripWarrior/poolContract.sol\":10544:10858  function performUpkeep(bytes calldata /*performData*/) external  {... */\n    tag_101:\n        /* \"DripWarrior/poolContract.sol\":10663:10681  s_forwarderAddress */\n      0x0c\n      0x00\n      swap1\n      sload\n      swap1\n      0x0100\n      exp\n      swap1\n      div\n      0xffffffffffffffffffffffffffffffffffffffff\n      and\n        /* \"DripWarrior/poolContract.sol\":10649:10681  msg.sender == s_forwarderAddress */\n      0xffffffffffffffffffffffffffffffffffffffff\n      and\n        /* \"DripWarrior/poolContract.sol\":10649:10659  msg.sender */\n      caller\n        /* \"DripWarrior/poolContract.sol\":10649:10681  msg.sender == s_forwarderAddress */\n      0xffffffffffffffffffffffffffffffffffffffff\n      and\n      eq\n        /* \"DripWarrior/poolContract.sol\":10628:10766  require(... */\n      tag_267\n      jumpi\n      mload(0x40)\n      0x08c379a000000000000000000000000000000000000000000000000000000000\n      dup2\n      mstore\n      0x04\n      add\n      tag_268\n      swap1\n      tag_269\n      jump\t// in\n    tag_268:\n      mload(0x40)\n      dup1\n      swap2\n      sub\n      swap1\n      revert\n    tag_267:\n        /* \"DripWarrior/poolContract.sol\":10801:10816  block.timestamp */\n      timestamp\n        /* \"DripWarrior/poolContract.sol\":10785:10798  lastTimeStamp */\n      0x0b\n        /* \"DripWarrior/poolContract.sol\":10785:10816  lastTimeStamp = block.timestamp */\n      dup2\n      swap1\n      sstore\n      pop\n        /* \"DripWarrior/poolContract.sol\":10826:10842  weeklyTransfer() */\n      tag_270\n        /* \"DripWarrior/poolContract.sol\":10826:10840  weeklyTransfer */\n      tag_231\n        /* \"DripWarrior/poolContract.sol\":10826:10842  weeklyTransfer() */\n      jump\t// in\n    tag_270:\n        /* \"DripWarrior/poolContract.sol\":10544:10858  function performUpkeep(bytes calldata /*performData*/) external  {... */\n      pop\n      pop\n      jump\t// out\n        /* \"@openzeppelin/contracts-upgradeable/proxy/utils/UUPSUpgradeable.sol\":4158:4372  function upgradeToAndCall(address newImplementation, bytes memory data) public payable virtual onlyProxy {... */\n    tag_105:\n        /* \"@openzeppelin/contracts-upgradeable/proxy/utils/UUPSUpgradeable.sol\":2653:2666  _checkProxy() */\n      tag_272\n        /* \"@openzeppelin/contracts-upgradeable/proxy/utils/UUPSUpgradeable.sol\":2653:2664  _checkProxy */\n      tag_273\n        /* \"@openzeppelin/contracts-upgradeable/proxy/utils/UUPSUpgradeable.sol\":2653:2666  _checkProxy() */\n      jump\t// in\n    tag_272:\n        /* \"@openzeppelin/contracts-upgradeable/proxy/utils/UUPSUpgradeable.sol\":4273:4309  _authorizeUpgrade(newImplementation) */\n      tag_275\n        /* \"@openzeppelin/contracts-upgradeable/proxy/utils/UUPSUpgradeable.sol\":4291:4308  newImplementation */\n      dup3\n        /* \"@openzeppelin/contracts-upgradeable/proxy/utils/UUPSUpgradeable.sol\":4273:4290  _authorizeUpgrade */\n      tag_276\n        /* \"@openzeppelin/contracts-upgradeable/proxy/utils/UUPSUpgradeable.sol\":4273:4309  _authorizeUpgrade(newImplementation) */\n      jump\t// in\n    tag_275:\n        /* \"@openzeppelin/contracts-upgradeable/proxy/utils/UUPSUpgradeable.sol\":4319:4365  _upgradeToAndCallUUPS(newImplementation, data) */\n      tag_277\n        /* \"@openzeppelin/contracts-upgradeable/proxy/utils/UUPSUpgradeable.sol\":4341:4358  newImplementation */\n      dup3\n        /* \"@openzeppelin/contracts-upgradeable/proxy/utils/UUPSUpgradeable.sol\":4360:4364  data */\n      dup3\n        /* \"@openzeppelin/contracts-upgradeable/proxy/utils/UUPSUpgradeable.sol\":4319:4340  _upgradeToAndCallUUPS */\n      tag_278\n        /* \"@openzeppelin/contracts-upgradeable/proxy/utils/UUPSUpgradeable.sol\":4319:4365  _upgradeToAndCallUUPS(newImplementation, data) */\n      jump\t// in\n    tag_277:\n        /* \"@openzeppelin/contracts-upgradeable/proxy/utils/UUPSUpgradeable.sol\":4158:4372  function upgradeToAndCall(address newImplementation, bytes memory data) public payable virtual onlyProxy {... */\n      pop\n      pop\n      jump\t// out\n        /* \"DripWarrior/poolContract.sol\":4929:5329  function addTreasuery(uint256 _amount) external onlyOwner(){... */\n    tag_109:\n        /* \"@openzeppelin/contracts-upgradeable/access/OwnableUpgradeable.sol\":2334:2347  _checkOwner() */\n      tag_280\n        /* \"@openzeppelin/contracts-upgradeable/access/OwnableUpgradeable.sol\":2334:2345  _checkOwner */\n      tag_247\n        /* \"@openzeppelin/contracts-upgradeable/access/OwnableUpgradeable.sol\":2334:2347  _checkOwner() */\n      jump\t// in\n    tag_280:\n        /* \"DripWarrior/poolContract.sol\":5021:5022  0 */\n      0x00\n        /* \"DripWarrior/poolContract.sol\":5010:5017  _amount */\n      dup2\n        /* \"DripWarrior/poolContract.sol\":5010:5022  _amount <= 0 */\n      gt\n        /* \"DripWarrior/poolContract.sol\":5007:5075  if(_amount <= 0){... */\n      tag_282\n      jumpi\n        /* \"DripWarrior/poolContract.sol\":5056:5063  _amount */\n      dup1\n        /* \"DripWarrior/poolContract.sol\":5044:5064  wrongAmount(_amount) */\n      mload(0x40)\n      0x2ff4783000000000000000000000000000000000000000000000000000000000\n      dup2\n      mstore\n      0x04\n      add\n      tag_283\n      swap2\n      swap1\n      tag_57\n      jump\t// in\n    tag_283:\n      mload(0x40)\n      dup1\n      swap2\n      sub\n      swap1\n      revert\n        /* \"DripWarrior/poolContract.sol\":5007:5075  if(_amount <= 0){... */\n    tag_282:\n        /* \"DripWarrior/poolContract.sol\":5108:5115  _amount */\n      dup1\n        /* \"DripWarrior/poolContract.sol\":5086:5104  treasuryPoolAmount */\n      0x01\n      0x00\n        /* \"DripWarrior/poolContract.sol\":5086:5115  treasuryPoolAmount += _amount */\n      dup3\n      dup3\n      sload\n      tag_284\n      swap2\n      swap1\n      tag_285\n      jump\t// in\n    tag_284:\n      swap3\n      pop\n      pop\n      dup2\n      swap1\n      sstore\n      pop\n        /* \"DripWarrior/poolContract.sol\":5126:5138  bool success */\n      0x00\n        /* \"DripWarrior/poolContract.sol\":5141:5150  usdcToken */\n      0x00\n      0x00\n      swap1\n      sload\n      swap1\n      0x0100\n      exp\n      swap1\n      div\n      0xffffffffffffffffffffffffffffffffffffffff\n      and\n        /* \"DripWarrior/poolContract.sol\":5141:5163  usdcToken.transferFrom */\n      0xffffffffffffffffffffffffffffffffffffffff\n      and\n      0x23b872dd\n        /* \"DripWarrior/poolContract.sol\":5164:5174  msg.sender */\n      caller\n        /* \"DripWarrior/poolContract.sol\":5183:5187  this */\n      address\n        /* \"DripWarrior/poolContract.sol\":5189:5196  _amount */\n      dup6\n        /* \"DripWarrior/poolContract.sol\":5141:5198  usdcToken.transferFrom(msg.sender,address(this),_amount ) */\n      mload(0x40)\n      dup5\n      0xffffffff\n      and\n      0xe0\n      shl\n      dup2\n      mstore\n      0x04\n      add\n      tag_286\n      swap4\n      swap3\n      swap2\n      swap1\n      tag_287\n      jump\t// in\n    tag_286:\n      0x20\n      mload(0x40)\n      dup1\n      dup4\n      sub\n      dup2\n      0x00\n      dup8\n      gas\n      call\n      iszero\n      dup1\n      iszero\n      tag_289\n      jumpi\n      returndatacopy(0x00, 0x00, returndatasize)\n      revert(0x00, returndatasize)\n    tag_289:\n      pop\n      pop\n      pop\n      pop\n      mload(0x40)\n      returndatasize\n      not(0x1f)\n      0x1f\n      dup3\n      add\n      and\n      dup3\n      add\n      dup1\n      0x40\n      mstore\n      pop\n      dup2\n      add\n      swap1\n      tag_290\n      swap2\n      swap1\n      tag_291\n      jump\t// in\n    tag_290:\n        /* \"DripWarrior/poolContract.sol\":5126:5198  bool success = usdcToken.transferFrom(msg.sender,address(this),_amount ) */\n      swap1\n      pop\n        /* \"DripWarrior/poolContract.sol\":5212:5219  success */\n      dup1\n        /* \"DripWarrior/poolContract.sol\":5208:5275  if(!success){... */\n      tag_292\n      jumpi\n        /* \"DripWarrior/poolContract.sol\":5256:5263  success */\n      dup1\n        /* \"DripWarrior/poolContract.sol\":5241:5264  transferFailed(success) */\n      mload(0x40)\n      0xd85d3cef00000000000000000000000000000000000000000000000000000000\n      dup2\n      mstore\n      0x04\n      add\n      tag_293\n      swap2\n      swap1\n      tag_215\n      jump\t// in\n    tag_293:\n      mload(0x40)\n      dup1\n      swap2\n      sub\n      swap1\n      revert\n        /* \"DripWarrior/poolContract.sol\":5208:5275  if(!success){... */\n    tag_292:\n        /* \"DripWarrior/poolContract.sol\":5290:5322  AddTreasuery(treasuryPoolAmount) */\n      0xa9f166643ec132a11638e74e3c3a78d4ae278fcbf92998240e0e97676f54e404\n        /* \"DripWarrior/poolContract.sol\":5303:5321  treasuryPoolAmount */\n      sload(0x01)\n        /* \"DripWarrior/poolContract.sol\":5290:5322  AddTreasuery(treasuryPoolAmount) */\n      mload(0x40)\n      tag_294\n      swap2\n      swap1\n      tag_57\n      jump\t// in\n    tag_294:\n      mload(0x40)\n      dup1\n      swap2\n      sub\n      swap1\n      log1\n        /* \"DripWarrior/poolContract.sol\":4988:5329  {... */\n      pop\n        /* \"DripWarrior/poolContract.sol\":4929:5329  function addTreasuery(uint256 _amount) external onlyOwner(){... */\n      pop\n      jump\t// out\n        /* \"@openzeppelin/contracts-upgradeable/proxy/utils/UUPSUpgradeable.sol\":3705:3839  function proxiableUUID() external view virtual notDelegated returns (bytes32) {... */\n    tag_112:\n        /* \"@openzeppelin/contracts-upgradeable/proxy/utils/UUPSUpgradeable.sol\":3774:3781  bytes32 */\n      0x00\n        /* \"@openzeppelin/contracts-upgradeable/proxy/utils/UUPSUpgradeable.sol\":2924:2944  _checkNotDelegated() */\n      tag_296\n        /* \"@openzeppelin/contracts-upgradeable/proxy/utils/UUPSUpgradeable.sol\":2924:2942  _checkNotDelegated */\n      tag_297\n        /* \"@openzeppelin/contracts-upgradeable/proxy/utils/UUPSUpgradeable.sol\":2924:2944  _checkNotDelegated() */\n      jump\t// in\n    tag_296:\n        /* \"@openzeppelin/contracts/proxy/ERC1967/ERC1967Utils.sol\":1327:1393  0x360894a13ba1a3210667c828492db98dca3e2076cc3735a920a3ca505d382bbc */\n      0x360894a13ba1a3210667c828492db98dca3e2076cc3735a920a3ca505d382bbc\n        /* \"@openzeppelin/contracts-upgradeable/proxy/utils/UUPSUpgradeable.sol\":3800:3832  ERC1967Utils.IMPLEMENTATION_SLOT */\n      0x00\n      shl\n        /* \"@openzeppelin/contracts-upgradeable/proxy/utils/UUPSUpgradeable.sol\":3793:3832  return ERC1967Utils.IMPLEMENTATION_SLOT */\n      swap1\n      pop\n        /* \"@openzeppelin/contracts-upgradeable/proxy/utils/UUPSUpgradeable.sol\":3705:3839  function proxiableUUID() external view virtual notDelegated returns (bytes32) {... */\n      swap1\n      jump\t// out\n        /* \"DripWarrior/poolContract.sol\":1373:1403  address public multisigAddress */\n    tag_117:\n      0x09\n      0x00\n      swap1\n      sload\n      swap1\n      0x0100\n      exp\n      swap1\n      div\n      0xffffffffffffffffffffffffffffffffffffffff\n      and\n      dup2\n      jump\t// out\n        /* \"DripWarrior/poolContract.sol\":1122:1154  uint256 public totalStakedAmount */\n    tag_121:\n      sload(0x03)\n      dup2\n      jump\t// out\n        /* \"DripWarrior/poolContract.sol\":11192:11313  function off () external  onlyOwner{... */\n    tag_125:\n        /* \"@openzeppelin/contracts-upgradeable/access/OwnableUpgradeable.sol\":2334:2347  _checkOwner() */\n      tag_300\n        /* \"@openzeppelin/contracts-upgradeable/access/OwnableUpgradeable.sol\":2334:2345  _checkOwner */\n      tag_247\n        /* \"@openzeppelin/contracts-upgradeable/access/OwnableUpgradeable.sol\":2334:2347  _checkOwner() */\n      jump\t// in\n    tag_300:\n        /* \"DripWarrior/poolContract.sol\":11256:11257  0 */\n      0x00\n        /* \"DripWarrior/poolContract.sol\":11245:11253  interval */\n      0x0a\n        /* \"DripWarrior/poolContract.sol\":11245:11257  interval = 0 */\n      dup2\n      swap1\n      sstore\n      pop\n        /* \"DripWarrior/poolContract.sol\":11273:11306  offInterval(msg.sender, interval) */\n      0x3b68dc4e210c46d3622293f2b941cdfde795bb6e17286bb289ba05a6a3b5541f\n        /* \"DripWarrior/poolContract.sol\":11285:11295  msg.sender */\n      caller\n        /* \"DripWarrior/poolContract.sol\":11297:11305  interval */\n      sload(0x0a)\n        /* \"DripWarrior/poolContract.sol\":11273:11306  offInterval(msg.sender, interval) */\n      mload(0x40)\n      tag_302\n      swap3\n      swap2\n      swap1\n      tag_303\n      jump\t// in\n    tag_302:\n      mload(0x40)\n      dup1\n      swap2\n      sub\n      swap1\n      log1\n        /* \"DripWarrior/poolContract.sol\":11192:11313  function off () external  onlyOwner{... */\n      jump\t// out\n        /* \"DripWarrior/poolContract.sol\":12056:12620  function userWithdrawAmoount(uint256 _amount) external {... */\n    tag_129:\n        /* \"DripWarrior/poolContract.sol\":12144:12145  0 */\n      0x00\n        /* \"DripWarrior/poolContract.sol\":12133:12140  _amount */\n      dup2\n        /* \"DripWarrior/poolContract.sol\":12133:12145  _amount <= 0 */\n      gt\n        /* \"DripWarrior/poolContract.sol\":12130:12198  if(_amount <= 0){... */\n      tag_305\n      jumpi\n        /* \"DripWarrior/poolContract.sol\":12179:12186  _amount */\n      dup1\n        /* \"DripWarrior/poolContract.sol\":12167:12187  wrongAmount(_amount) */\n      mload(0x40)\n      0x2ff4783000000000000000000000000000000000000000000000000000000000\n      dup2\n      mstore\n      0x04\n      add\n      tag_306\n      swap2\n      swap1\n      tag_57\n      jump\t// in\n    tag_306:\n      mload(0x40)\n      dup1\n      swap2\n      sub\n      swap1\n      revert\n        /* \"DripWarrior/poolContract.sol\":12130:12198  if(_amount <= 0){... */\n    tag_305:\n        /* \"DripWarrior/poolContract.sol\":12226:12240  userRegistered */\n      0x11\n        /* \"DripWarrior/poolContract.sol\":12226:12252  userRegistered[msg.sender] */\n      0x00\n        /* \"DripWarrior/poolContract.sol\":12241:12251  msg.sender */\n      caller\n        /* \"DripWarrior/poolContract.sol\":12226:12252  userRegistered[msg.sender] */\n      0xffffffffffffffffffffffffffffffffffffffff\n      and\n      0xffffffffffffffffffffffffffffffffffffffff\n      and\n      dup2\n      mstore\n      0x20\n      add\n      swap1\n      dup2\n      mstore\n      0x20\n      add\n      0x00\n      keccak256\n        /* \"DripWarrior/poolContract.sol\":12226:12267  userRegistered[msg.sender].receivedAmount */\n      0x01\n      add\n      sload\n        /* \"DripWarrior/poolContract.sol\":12215:12222  _amount */\n      dup2\n        /* \"DripWarrior/poolContract.sol\":12215:12267  _amount <= userRegistered[msg.sender].receivedAmount */\n      gt\n      iszero\n        /* \"DripWarrior/poolContract.sol\":12207:12288  require(_amount <= userRegistered[msg.sender].receivedAmount, \"invalid _amount!\") */\n      tag_307\n      jumpi\n      mload(0x40)\n      0x08c379a000000000000000000000000000000000000000000000000000000000\n      dup2\n      mstore\n      0x04\n      add\n      tag_308\n      swap1\n      tag_309\n      jump\t// in\n    tag_308:\n      mload(0x40)\n      dup1\n      swap2\n      sub\n      swap1\n      revert\n    tag_307:\n        /* \"DripWarrior/poolContract.sol\":12344:12351  _amount */\n      dup1\n        /* \"DripWarrior/poolContract.sol\":12299:12313  userRegistered */\n      0x11\n        /* \"DripWarrior/poolContract.sol\":12299:12325  userRegistered[msg.sender] */\n      0x00\n        /* \"DripWarrior/poolContract.sol\":12314:12324  msg.sender */\n      caller\n        /* \"DripWarrior/poolContract.sol\":12299:12325  userRegistered[msg.sender] */\n      0xffffffffffffffffffffffffffffffffffffffff\n      and\n      0xffffffffffffffffffffffffffffffffffffffff\n      and\n      dup2\n      mstore\n      0x20\n      add\n      swap1\n      dup2\n      mstore\n      0x20\n      add\n      0x00\n      keccak256\n        /* \"DripWarrior/poolContract.sol\":12299:12340  userRegistered[msg.sender].receivedAmount */\n      0x01\n      add\n      0x00\n        /* \"DripWarrior/poolContract.sol\":12299:12351  userRegistered[msg.sender].receivedAmount -= _amount */\n      dup3\n      dup3\n      sload\n      tag_310\n      swap2\n      swap1\n      tag_263\n      jump\t// in\n    tag_310:\n      swap3\n      pop\n      pop\n      dup2\n      swap1\n      sstore\n      pop\n        /* \"DripWarrior/poolContract.sol\":12406:12413  _amount */\n      dup1\n        /* \"DripWarrior/poolContract.sol\":12361:12375  userRegistered */\n      0x11\n        /* \"DripWarrior/poolContract.sol\":12361:12387  userRegistered[msg.sender] */\n      0x00\n        /* \"DripWarrior/poolContract.sol\":12376:12386  msg.sender */\n      caller\n        /* \"DripWarrior/poolContract.sol\":12361:12387  userRegistered[msg.sender] */\n      0xffffffffffffffffffffffffffffffffffffffff\n      and\n      0xffffffffffffffffffffffffffffffffffffffff\n      and\n      dup2\n      mstore\n      0x20\n      add\n      swap1\n      dup2\n      mstore\n      0x20\n      add\n      0x00\n      keccak256\n        /* \"DripWarrior/poolContract.sol\":12361:12402  userRegistered[msg.sender].withdrawAmount */\n      0x02\n      add\n      0x00\n        /* \"DripWarrior/poolContract.sol\":12361:12413  userRegistered[msg.sender].withdrawAmount += _amount */\n      dup3\n      dup3\n      sload\n      tag_311\n      swap2\n      swap1\n      tag_285\n      jump\t// in\n    tag_311:\n      swap3\n      pop\n      pop\n      dup2\n      swap1\n      sstore\n      pop\n        /* \"DripWarrior/poolContract.sol\":12431:12443  bool success */\n      0x00\n        /* \"DripWarrior/poolContract.sol\":12446:12455  usdcToken */\n      0x00\n      0x00\n      swap1\n      sload\n      swap1\n      0x0100\n      exp\n      swap1\n      div\n      0xffffffffffffffffffffffffffffffffffffffff\n      and\n        /* \"DripWarrior/poolContract.sol\":12446:12464  usdcToken.transfer */\n      0xffffffffffffffffffffffffffffffffffffffff\n      and\n      0xa9059cbb\n        /* \"DripWarrior/poolContract.sol\":12465:12475  msg.sender */\n      caller\n        /* \"DripWarrior/poolContract.sol\":12476:12483  _amount */\n      dup5\n        /* \"DripWarrior/poolContract.sol\":12446:12484  usdcToken.transfer(msg.sender,_amount) */\n      mload(0x40)\n      dup4\n      0xffffffff\n      and\n      0xe0\n      shl\n      dup2\n      mstore\n      0x04\n      add\n      tag_312\n      swap3\n      swap2\n      swap1\n      tag_303\n      jump\t// in\n    tag_312:\n      0x20\n      mload(0x40)\n      dup1\n      dup4\n      sub\n      dup2\n      0x00\n      dup8\n      gas\n      call\n      iszero\n      dup1\n      iszero\n      tag_314\n      jumpi\n      returndatacopy(0x00, 0x00, returndatasize)\n      revert(0x00, returndatasize)\n    tag_314:\n      pop\n      pop\n      pop\n      pop\n      mload(0x40)\n      returndatasize\n      not(0x1f)\n      0x1f\n      dup3\n      add\n      and\n      dup3\n      add\n      dup1\n      0x40\n      mstore\n      pop\n      dup2\n      add\n      swap1\n      tag_315\n      swap2\n      swap1\n      tag_291\n      jump\t// in\n    tag_315:\n        /* \"DripWarrior/poolContract.sol\":12431:12484  bool success = usdcToken.transfer(msg.sender,_amount) */\n      swap1\n      pop\n        /* \"DripWarrior/poolContract.sol\":12506:12513  success */\n      dup1\n        /* \"DripWarrior/poolContract.sol\":12502:12569  if(!success){... */\n      tag_316\n      jumpi\n        /* \"DripWarrior/poolContract.sol\":12550:12557  success */\n      dup1\n        /* \"DripWarrior/poolContract.sol\":12535:12558  transferFailed(success) */\n      mload(0x40)\n      0xd85d3cef00000000000000000000000000000000000000000000000000000000\n      dup2\n      mstore\n      0x04\n      add\n      tag_317\n      swap2\n      swap1\n      tag_215\n      jump\t// in\n    tag_317:\n      mload(0x40)\n      dup1\n      swap2\n      sub\n      swap1\n      revert\n        /* \"DripWarrior/poolContract.sol\":12502:12569  if(!success){... */\n    tag_316:\n        /* \"DripWarrior/poolContract.sol\":12584:12613  Withdraw(msg.sender, _amount) */\n      0x884edad9ce6fa2440d8a54cc123490eb96d2768479d49ff9c7366125a9424364\n        /* \"DripWarrior/poolContract.sol\":12593:12603  msg.sender */\n      caller\n        /* \"DripWarrior/poolContract.sol\":12605:12612  _amount */\n      dup4\n        /* \"DripWarrior/poolContract.sol\":12584:12613  Withdraw(msg.sender, _amount) */\n      mload(0x40)\n      tag_318\n      swap3\n      swap2\n      swap1\n      tag_303\n      jump\t// in\n    tag_318:\n      mload(0x40)\n      dup1\n      swap2\n      sub\n      swap1\n      log1\n        /* \"DripWarrior/poolContract.sol\":12111:12620  {... */\n      pop\n        /* \"DripWarrior/poolContract.sol\":12056:12620  function userWithdrawAmoount(uint256 _amount) external {... */\n      pop\n      jump\t// out\n        /* \"DripWarrior/poolContract.sol\":10315:10538  function checkUpkeep(bytes calldata /*checkData*/) external view  returns (bool, bytes memory) {... */\n    tag_133:\n        /* \"DripWarrior/poolContract.sol\":10390:10394  bool */\n      0x00\n        /* \"DripWarrior/poolContract.sol\":10396:10408  bytes memory */\n      0x60\n        /* \"DripWarrior/poolContract.sol\":10427:10443  bool needsUpkeep */\n      0x00\n        /* \"DripWarrior/poolContract.sol\":10482:10490  interval */\n      sload(0x0a)\n        /* \"DripWarrior/poolContract.sol\":10465:10478  lastTimeStamp */\n      sload(0x0b)\n        /* \"DripWarrior/poolContract.sol\":10447:10462  block.timestamp */\n      timestamp\n        /* \"DripWarrior/poolContract.sol\":10447:10478  block.timestamp - lastTimeStamp */\n      tag_320\n      swap2\n      swap1\n      tag_263\n      jump\t// in\n    tag_320:\n        /* \"DripWarrior/poolContract.sol\":10446:10490  (block.timestamp - lastTimeStamp) > interval */\n      gt\n        /* \"DripWarrior/poolContract.sol\":10427:10490  bool needsUpkeep = (block.timestamp - lastTimeStamp) > interval */\n      swap1\n      pop\n        /* \"DripWarrior/poolContract.sol\":10508:10519  needsUpkeep */\n      dup1\n        /* \"DripWarrior/poolContract.sol\":10521:10530  bytes(\"\") */\n      mload(0x40)\n      dup1\n      0x20\n      add\n      0x40\n      mstore\n      dup1\n      0x00\n      dup2\n      mstore\n      pop\n        /* \"DripWarrior/poolContract.sol\":10500:10531  return (needsUpkeep, bytes(\"\")) */\n      swap3\n      pop\n      swap3\n      pop\n      pop\n        /* \"DripWarrior/poolContract.sol\":10315:10538  function checkUpkeep(bytes calldata /*checkData*/) external view  returns (bool, bytes memory) {... */\n      swap3\n      pop\n      swap3\n      swap1\n      pop\n      jump\t// out\n        /* \"@openzeppelin/contracts-upgradeable/access/OwnableUpgradeable.sol\":3155:3256  function renounceOwnership() public virtual onlyOwner {... */\n    tag_138:\n        /* \"@openzeppelin/contracts-upgradeable/access/OwnableUpgradeable.sol\":2334:2347  _checkOwner() */\n      tag_322\n        /* \"@openzeppelin/contracts-upgradeable/access/OwnableUpgradeable.sol\":2334:2345  _checkOwner */\n      tag_247\n        /* \"@openzeppelin/contracts-upgradeable/access/OwnableUpgradeable.sol\":2334:2347  _checkOwner() */\n      jump\t// in\n    tag_322:\n        /* \"@openzeppelin/contracts-upgradeable/access/OwnableUpgradeable.sol\":3219:3249  _transferOwnership(address(0)) */\n      tag_324\n        /* \"@openzeppelin/contracts-upgradeable/access/OwnableUpgradeable.sol\":3246:3247  0 */\n      0x00\n        /* \"@openzeppelin/contracts-upgradeable/access/OwnableUpgradeable.sol\":3219:3237  _transferOwnership */\n      tag_325\n        /* \"@openzeppelin/contracts-upgradeable/access/OwnableUpgradeable.sol\":3219:3249  _transferOwnership(address(0)) */\n      jump\t// in\n    tag_324:\n        /* \"@openzeppelin/contracts-upgradeable/access/OwnableUpgradeable.sol\":3155:3256  function renounceOwnership() public virtual onlyOwner {... */\n      jump\t// out\n        /* \"DripWarrior/poolContract.sol\":5335:6137  function stakeTokens(uint256 _amount) external  {... */\n    tag_142:\n        /* \"DripWarrior/poolContract.sol\":5416:5417  0 */\n      0x00\n        /* \"DripWarrior/poolContract.sol\":5405:5412  _amount */\n      dup2\n        /* \"DripWarrior/poolContract.sol\":5405:5417  _amount <= 0 */\n      gt\n        /* \"DripWarrior/poolContract.sol\":5402:5470  if(_amount <= 0){... */\n      tag_327\n      jumpi\n        /* \"DripWarrior/poolContract.sol\":5451:5458  _amount */\n      dup1\n        /* \"DripWarrior/poolContract.sol\":5439:5459  wrongAmount(_amount) */\n      mload(0x40)\n      0x2ff4783000000000000000000000000000000000000000000000000000000000\n      dup2\n      mstore\n      0x04\n      add\n      tag_328\n      swap2\n      swap1\n      tag_57\n      jump\t// in\n    tag_328:\n      mload(0x40)\n      dup1\n      swap2\n      sub\n      swap1\n      revert\n        /* \"DripWarrior/poolContract.sol\":5402:5470  if(_amount <= 0){... */\n    tag_327:\n        /* \"DripWarrior/poolContract.sol\":5491:5505  userRegistered */\n      0x11\n        /* \"DripWarrior/poolContract.sol\":5491:5517  userRegistered[msg.sender] */\n      0x00\n        /* \"DripWarrior/poolContract.sol\":5506:5516  msg.sender */\n      caller\n        /* \"DripWarrior/poolContract.sol\":5491:5517  userRegistered[msg.sender] */\n      0xffffffffffffffffffffffffffffffffffffffff\n      and\n      0xffffffffffffffffffffffffffffffffffffffff\n      and\n      dup2\n      mstore\n      0x20\n      add\n      swap1\n      dup2\n      mstore\n      0x20\n      add\n      0x00\n      keccak256\n        /* \"DripWarrior/poolContract.sol\":5491:5525  userRegistered[msg.sender].blocked */\n      0x00\n      add\n      0x00\n      swap1\n      sload\n      swap1\n      0x0100\n      exp\n      swap1\n      div\n      0xff\n      and\n        /* \"DripWarrior/poolContract.sol\":5488:5605  if(userRegistered[msg.sender].blocked){... */\n      iszero\n      tag_329\n      jumpi\n        /* \"DripWarrior/poolContract.sol\":5559:5573  userRegistered */\n      0x11\n        /* \"DripWarrior/poolContract.sol\":5559:5585  userRegistered[msg.sender] */\n      0x00\n        /* \"DripWarrior/poolContract.sol\":5574:5584  msg.sender */\n      caller\n        /* \"DripWarrior/poolContract.sol\":5559:5585  userRegistered[msg.sender] */\n      0xffffffffffffffffffffffffffffffffffffffff\n      and\n      0xffffffffffffffffffffffffffffffffffffffff\n      and\n      dup2\n      mstore\n      0x20\n      add\n      swap1\n      dup2\n      mstore\n      0x20\n      add\n      0x00\n      keccak256\n        /* \"DripWarrior/poolContract.sol\":5559:5593  userRegistered[msg.sender].blocked */\n      0x00\n      add\n      0x00\n      swap1\n      sload\n      swap1\n      0x0100\n      exp\n      swap1\n      div\n      0xff\n      and\n        /* \"DripWarrior/poolContract.sol\":5547:5594  userBlocked(userRegistered[msg.sender].blocked) */\n      mload(0x40)\n      0x6fa5c3c000000000000000000000000000000000000000000000000000000000\n      dup2\n      mstore\n      0x04\n      add\n      tag_330\n      swap2\n      swap1\n      tag_215\n      jump\t// in\n    tag_330:\n      mload(0x40)\n      dup1\n      swap2\n      sub\n      swap1\n      revert\n        /* \"DripWarrior/poolContract.sol\":5488:5605  if(userRegistered[msg.sender].blocked){... */\n    tag_329:\n        /* \"DripWarrior/poolContract.sol\":5663:5670  _amount */\n      dup1\n        /* \"DripWarrior/poolContract.sol\":5615:5629  userRegistered */\n      0x11\n        /* \"DripWarrior/poolContract.sol\":5615:5641  userRegistered[msg.sender] */\n      0x00\n        /* \"DripWarrior/poolContract.sol\":5630:5640  msg.sender */\n      caller\n        /* \"DripWarrior/poolContract.sol\":5615:5641  userRegistered[msg.sender] */\n      0xffffffffffffffffffffffffffffffffffffffff\n      and\n      0xffffffffffffffffffffffffffffffffffffffff\n      and\n      dup2\n      mstore\n      0x20\n      add\n      swap1\n      dup2\n      mstore\n      0x20\n      add\n      0x00\n      keccak256\n        /* \"DripWarrior/poolContract.sol\":5615:5659  userRegistered[msg.sender].totalStakedAmount */\n      0x05\n      add\n      0x00\n        /* \"DripWarrior/poolContract.sol\":5615:5670  userRegistered[msg.sender].totalStakedAmount += _amount */\n      dup3\n      dup3\n      sload\n      tag_331\n      swap2\n      swap1\n      tag_285\n      jump\t// in\n    tag_331:\n      swap3\n      pop\n      pop\n      dup2\n      swap1\n      sstore\n      pop\n        /* \"DripWarrior/poolContract.sol\":5692:5704  alreadyAdded */\n      0x0e\n        /* \"DripWarrior/poolContract.sol\":5692:5716  alreadyAdded[msg.sender] */\n      0x00\n        /* \"DripWarrior/poolContract.sol\":5705:5715  msg.sender */\n      caller\n        /* \"DripWarrior/poolContract.sol\":5692:5716  alreadyAdded[msg.sender] */\n      0xffffffffffffffffffffffffffffffffffffffff\n      and\n      0xffffffffffffffffffffffffffffffffffffffff\n      and\n      dup2\n      mstore\n      0x20\n      add\n      swap1\n      dup2\n      mstore\n      0x20\n      add\n      0x00\n      keccak256\n      0x00\n      swap1\n      sload\n      swap1\n      0x0100\n      exp\n      swap1\n      div\n      0xff\n      and\n        /* \"DripWarrior/poolContract.sol\":5688:5859  if(!alreadyAdded[msg.sender]){... */\n      tag_332\n      jumpi\n        /* \"DripWarrior/poolContract.sol\":5768:5778  msg.sender */\n      caller\n        /* \"DripWarrior/poolContract.sol\":5744:5754  totalUsers */\n      0x0f\n        /* \"DripWarrior/poolContract.sol\":5744:5765  totalUsers[noOfUsers] */\n      0x00\n        /* \"DripWarrior/poolContract.sol\":5755:5764  noOfUsers */\n      sload(0x08)\n        /* \"DripWarrior/poolContract.sol\":5744:5765  totalUsers[noOfUsers] */\n      dup2\n      mstore\n      0x20\n      add\n      swap1\n      dup2\n      mstore\n      0x20\n      add\n      0x00\n      keccak256\n      0x00\n        /* \"DripWarrior/poolContract.sol\":5744:5778  totalUsers[noOfUsers] = msg.sender */\n      0x0100\n      exp\n      dup2\n      sload\n      dup2\n      0xffffffffffffffffffffffffffffffffffffffff\n      mul\n      not\n      and\n      swap1\n      dup4\n      0xffffffffffffffffffffffffffffffffffffffff\n      and\n      mul\n      or\n      swap1\n      sstore\n      pop\n        /* \"DripWarrior/poolContract.sol\":5819:5823  true */\n      0x01\n        /* \"DripWarrior/poolContract.sol\":5792:5804  alreadyAdded */\n      0x0e\n        /* \"DripWarrior/poolContract.sol\":5792:5816  alreadyAdded[msg.sender] */\n      0x00\n        /* \"DripWarrior/poolContract.sol\":5805:5815  msg.sender */\n      caller\n        /* \"DripWarrior/poolContract.sol\":5792:5816  alreadyAdded[msg.sender] */\n      0xffffffffffffffffffffffffffffffffffffffff\n      and\n      0xffffffffffffffffffffffffffffffffffffffff\n      and\n      dup2\n      mstore\n      0x20\n      add\n      swap1\n      dup2\n      mstore\n      0x20\n      add\n      0x00\n      keccak256\n      0x00\n        /* \"DripWarrior/poolContract.sol\":5792:5823  alreadyAdded[msg.sender] = true */\n      0x0100\n      exp\n      dup2\n      sload\n      dup2\n      0xff\n      mul\n      not\n      and\n      swap1\n      dup4\n      iszero\n      iszero\n      mul\n      or\n      swap1\n      sstore\n      pop\n        /* \"DripWarrior/poolContract.sol\":5837:5846  noOfUsers */\n      0x08\n      0x00\n        /* \"DripWarrior/poolContract.sol\":5837:5848  noOfUsers++ */\n      dup2\n      sload\n      dup1\n      swap3\n      swap2\n      swap1\n      tag_333\n      swap1\n      tag_259\n      jump\t// in\n    tag_333:\n      swap2\n      swap1\n      pop\n      sstore\n      pop\n        /* \"DripWarrior/poolContract.sol\":5688:5859  if(!alreadyAdded[msg.sender]){... */\n    tag_332:\n        /* \"DripWarrior/poolContract.sol\":5890:5897  _amount */\n      dup1\n        /* \"DripWarrior/poolContract.sol\":5869:5886  totalStakedAmount */\n      0x03\n      0x00\n        /* \"DripWarrior/poolContract.sol\":5869:5897  totalStakedAmount += _amount */\n      dup3\n      dup3\n      sload\n      tag_334\n      swap2\n      swap1\n      tag_285\n      jump\t// in\n    tag_334:\n      swap3\n      pop\n      pop\n      dup2\n      swap1\n      sstore\n      pop\n        /* \"DripWarrior/poolContract.sol\":5908:5920  bool success */\n      0x00\n        /* \"DripWarrior/poolContract.sol\":5922:5931  usdcToken */\n      0x00\n      0x00\n      swap1\n      sload\n      swap1\n      0x0100\n      exp\n      swap1\n      div\n      0xffffffffffffffffffffffffffffffffffffffff\n      and\n        /* \"DripWarrior/poolContract.sol\":5922:5944  usdcToken.transferFrom */\n      0xffffffffffffffffffffffffffffffffffffffff\n      and\n      0x23b872dd\n        /* \"DripWarrior/poolContract.sol\":5945:5955  msg.sender */\n      caller\n        /* \"DripWarrior/poolContract.sol\":5956:5971  multisigAddress */\n      0x09\n      0x00\n      swap1\n      sload\n      swap1\n      0x0100\n      exp\n      swap1\n      div\n      0xffffffffffffffffffffffffffffffffffffffff\n      and\n        /* \"DripWarrior/poolContract.sol\":5972:5979  _amount */\n      dup6\n        /* \"DripWarrior/poolContract.sol\":5922:5980  usdcToken.transferFrom(msg.sender,multisigAddress,_amount) */\n      mload(0x40)\n      dup5\n      0xffffffff\n      and\n      0xe0\n      shl\n      dup2\n      mstore\n      0x04\n      add\n      tag_335\n      swap4\n      swap3\n      swap2\n      swap1\n      tag_287\n      jump\t// in\n    tag_335:\n      0x20\n      mload(0x40)\n      dup1\n      dup4\n      sub\n      dup2\n      0x00\n      dup8\n      gas\n      call\n      iszero\n      dup1\n      iszero\n      tag_337\n      jumpi\n      returndatacopy(0x00, 0x00, returndatasize)\n      revert(0x00, returndatasize)\n    tag_337:\n      pop\n      pop\n      pop\n      pop\n      mload(0x40)\n      returndatasize\n      not(0x1f)\n      0x1f\n      dup3\n      add\n      and\n      dup3\n      add\n      dup1\n      0x40\n      mstore\n      pop\n      dup2\n      add\n      swap1\n      tag_338\n      swap2\n      swap1\n      tag_291\n      jump\t// in\n    tag_338:\n        /* \"DripWarrior/poolContract.sol\":5908:5980  bool success =usdcToken.transferFrom(msg.sender,multisigAddress,_amount) */\n      swap1\n      pop\n        /* \"DripWarrior/poolContract.sol\":6003:6010  success */\n      dup1\n        /* \"DripWarrior/poolContract.sol\":5999:6066  if(!success){... */\n      tag_339\n      jumpi\n        /* \"DripWarrior/poolContract.sol\":6047:6054  success */\n      dup1\n        /* \"DripWarrior/poolContract.sol\":6032:6055  transferFailed(success) */\n      mload(0x40)\n      0xd85d3cef00000000000000000000000000000000000000000000000000000000\n      dup2\n      mstore\n      0x04\n      add\n      tag_340\n      swap2\n      swap1\n      tag_215\n      jump\t// in\n    tag_340:\n      mload(0x40)\n      dup1\n      swap2\n      sub\n      swap1\n      revert\n        /* \"DripWarrior/poolContract.sol\":5999:6066  if(!success){... */\n    tag_339:\n        /* \"DripWarrior/poolContract.sol\":6081:6129  StakeTokens(msg.sender,multisigAddress, _amount) */\n      0x14ee34c24635186d212f515353dadae9c226529edef2d1fcf5504cb33b5c25ab\n        /* \"DripWarrior/poolContract.sol\":6093:6103  msg.sender */\n      caller\n        /* \"DripWarrior/poolContract.sol\":6104:6119  multisigAddress */\n      0x09\n      0x00\n      swap1\n      sload\n      swap1\n      0x0100\n      exp\n      swap1\n      div\n      0xffffffffffffffffffffffffffffffffffffffff\n      and\n        /* \"DripWarrior/poolContract.sol\":6121:6128  _amount */\n      dup5\n        /* \"DripWarrior/poolContract.sol\":6081:6129  StakeTokens(msg.sender,multisigAddress, _amount) */\n      mload(0x40)\n      tag_341\n      swap4\n      swap3\n      swap2\n      swap1\n      tag_287\n      jump\t// in\n    tag_341:\n      mload(0x40)\n      dup1\n      swap2\n      sub\n      swap1\n      log1\n        /* \"DripWarrior/poolContract.sol\":5383:6137  {... */\n      pop\n        /* \"DripWarrior/poolContract.sol\":5335:6137  function stakeTokens(uint256 _amount) external  {... */\n      pop\n      jump\t// out\n        /* \"DripWarrior/poolContract.sol\":4518:4919  function addOwnership(uint256 _amount) external onlyOwner(){... */\n    tag_146:\n        /* \"@openzeppelin/contracts-upgradeable/access/OwnableUpgradeable.sol\":2334:2347  _checkOwner() */\n      tag_343\n        /* \"@openzeppelin/contracts-upgradeable/access/OwnableUpgradeable.sol\":2334:2345  _checkOwner */\n      tag_247\n        /* \"@openzeppelin/contracts-upgradeable/access/OwnableUpgradeable.sol\":2334:2347  _checkOwner() */\n      jump\t// in\n    tag_343:\n        /* \"DripWarrior/poolContract.sol\":4610:4611  0 */\n      0x00\n        /* \"DripWarrior/poolContract.sol\":4599:4606  _amount */\n      dup2\n        /* \"DripWarrior/poolContract.sol\":4599:4611  _amount <= 0 */\n      gt\n        /* \"DripWarrior/poolContract.sol\":4596:4664  if(_amount <= 0){... */\n      tag_345\n      jumpi\n        /* \"DripWarrior/poolContract.sol\":4645:4652  _amount */\n      dup1\n        /* \"DripWarrior/poolContract.sol\":4633:4653  wrongAmount(_amount) */\n      mload(0x40)\n      0x2ff4783000000000000000000000000000000000000000000000000000000000\n      dup2\n      mstore\n      0x04\n      add\n      tag_346\n      swap2\n      swap1\n      tag_57\n      jump\t// in\n    tag_346:\n      mload(0x40)\n      dup1\n      swap2\n      sub\n      swap1\n      revert\n        /* \"DripWarrior/poolContract.sol\":4596:4664  if(_amount <= 0){... */\n    tag_345:\n        /* \"DripWarrior/poolContract.sol\":4697:4704  _amount */\n      dup1\n        /* \"DripWarrior/poolContract.sol\":4674:4693  ownerShipPoolAmount */\n      0x02\n      0x00\n        /* \"DripWarrior/poolContract.sol\":4674:4704  ownerShipPoolAmount += _amount */\n      dup3\n      dup3\n      sload\n      tag_347\n      swap2\n      swap1\n      tag_285\n      jump\t// in\n    tag_347:\n      swap3\n      pop\n      pop\n      dup2\n      swap1\n      sstore\n      pop\n        /* \"DripWarrior/poolContract.sol\":4715:4727  bool success */\n      0x00\n        /* \"DripWarrior/poolContract.sol\":4730:4739  usdcToken */\n      0x00\n      0x00\n      swap1\n      sload\n      swap1\n      0x0100\n      exp\n      swap1\n      div\n      0xffffffffffffffffffffffffffffffffffffffff\n      and\n        /* \"DripWarrior/poolContract.sol\":4730:4752  usdcToken.transferFrom */\n      0xffffffffffffffffffffffffffffffffffffffff\n      and\n      0x23b872dd\n        /* \"DripWarrior/poolContract.sol\":4753:4763  msg.sender */\n      caller\n        /* \"DripWarrior/poolContract.sol\":4772:4776  this */\n      address\n        /* \"DripWarrior/poolContract.sol\":4778:4785  _amount */\n      dup6\n        /* \"DripWarrior/poolContract.sol\":4730:4787  usdcToken.transferFrom(msg.sender,address(this),_amount ) */\n      mload(0x40)\n      dup5\n      0xffffffff\n      and\n      0xe0\n      shl\n      dup2\n      mstore\n      0x04\n      add\n      tag_348\n      swap4\n      swap3\n      swap2\n      swap1\n      tag_287\n      jump\t// in\n    tag_348:\n      0x20\n      mload(0x40)\n      dup1\n      dup4\n      sub\n      dup2\n      0x00\n      dup8\n      gas\n      call\n      iszero\n      dup1\n      iszero\n      tag_350\n      jumpi\n      returndatacopy(0x00, 0x00, returndatasize)\n      revert(0x00, returndatasize)\n    tag_350:\n      pop\n      pop\n      pop\n      pop\n      mload(0x40)\n      returndatasize\n      not(0x1f)\n      0x1f\n      dup3\n      add\n      and\n      dup3\n      add\n      dup1\n      0x40\n      mstore\n      pop\n      dup2\n      add\n      swap1\n      tag_351\n      swap2\n      swap1\n      tag_291\n      jump\t// in\n    tag_351:\n        /* \"DripWarrior/poolContract.sol\":4715:4787  bool success = usdcToken.transferFrom(msg.sender,address(this),_amount ) */\n      swap1\n      pop\n        /* \"DripWarrior/poolContract.sol\":4801:4808  success */\n      dup1\n        /* \"DripWarrior/poolContract.sol\":4797:4864  if(!success){... */\n      tag_352\n      jumpi\n        /* \"DripWarrior/poolContract.sol\":4845:4852  success */\n      dup1\n        /* \"DripWarrior/poolContract.sol\":4830:4853  transferFailed(success) */\n      mload(0x40)\n      0xd85d3cef00000000000000000000000000000000000000000000000000000000\n      dup2\n      mstore\n      0x04\n      add\n      tag_353\n      swap2\n      swap1\n      tag_215\n      jump\t// in\n    tag_353:\n      mload(0x40)\n      dup1\n      swap2\n      sub\n      swap1\n      revert\n        /* \"DripWarrior/poolContract.sol\":4797:4864  if(!success){... */\n    tag_352:\n        /* \"DripWarrior/poolContract.sol\":4879:4912  AddOwnership(ownerShipPoolAmount) */\n      0x73834e1d1ee73ba659470a3603b888903853d3a3c9fda34e71c093a0e35cab94\n        /* \"DripWarrior/poolContract.sol\":4892:4911  ownerShipPoolAmount */\n      sload(0x02)\n        /* \"DripWarrior/poolContract.sol\":4879:4912  AddOwnership(ownerShipPoolAmount) */\n      mload(0x40)\n      tag_354\n      swap2\n      swap1\n      tag_57\n      jump\t// in\n    tag_354:\n      mload(0x40)\n      dup1\n      swap2\n      sub\n      swap1\n      log1\n        /* \"DripWarrior/poolContract.sol\":4577:4919  {... */\n      pop\n        /* \"DripWarrior/poolContract.sol\":4518:4919  function addOwnership(uint256 _amount) external onlyOwner(){... */\n      pop\n      jump\t// out\n        /* \"DripWarrior/poolContract.sol\":14551:14874  function setmaintainceFeePercentage(uint256 _newPerccentage) external onlyOwner {... */\n    tag_150:\n        /* \"@openzeppelin/contracts-upgradeable/access/OwnableUpgradeable.sol\":2334:2347  _checkOwner() */\n      tag_356\n        /* \"@openzeppelin/contracts-upgradeable/access/OwnableUpgradeable.sol\":2334:2345  _checkOwner */\n      tag_247\n        /* \"@openzeppelin/contracts-upgradeable/access/OwnableUpgradeable.sol\":2334:2347  _checkOwner() */\n      jump\t// in\n    tag_356:\n        /* \"DripWarrior/poolContract.sol\":14672:14673  0 */\n      0x00\n        /* \"DripWarrior/poolContract.sol\":14653:14668  _newPerccentage */\n      dup2\n        /* \"DripWarrior/poolContract.sol\":14653:14673  _newPerccentage <= 0 */\n      gt\n        /* \"DripWarrior/poolContract.sol\":14650:14738  if(_newPerccentage <= 0){... */\n      tag_358\n      jumpi\n        /* \"DripWarrior/poolContract.sol\":14711:14726  _newPerccentage */\n      dup1\n        /* \"DripWarrior/poolContract.sol\":14695:14727  wrongPercentage(_newPerccentage) */\n      mload(0x40)\n      0xcdbc633500000000000000000000000000000000000000000000000000000000\n      dup2\n      mstore\n      0x04\n      add\n      tag_359\n      swap2\n      swap1\n      tag_57\n      jump\t// in\n    tag_359:\n      mload(0x40)\n      dup1\n      swap2\n      sub\n      swap1\n      revert\n        /* \"DripWarrior/poolContract.sol\":14650:14738  if(_newPerccentage <= 0){... */\n    tag_358:\n        /* \"DripWarrior/poolContract.sol\":14782:14797  _newPerccentage */\n      dup1\n        /* \"DripWarrior/poolContract.sol\":14756:14779  maintainceFeePercentage */\n      0x07\n        /* \"DripWarrior/poolContract.sol\":14756:14797  maintainceFeePercentage = _newPerccentage */\n      dup2\n      swap1\n      sstore\n      pop\n        /* \"DripWarrior/poolContract.sol\":14813:14867  PercentageChanged(msg.sender, maintainceFeePercentage) */\n      0xb5671393c7c6980552e50a31e778921eb17d764c2e98fbf4d44fff524712def9\n        /* \"DripWarrior/poolContract.sol\":14831:14841  msg.sender */\n      caller\n        /* \"DripWarrior/poolContract.sol\":14843:14866  maintainceFeePercentage */\n      sload(0x07)\n        /* \"DripWarrior/poolContract.sol\":14813:14867  PercentageChanged(msg.sender, maintainceFeePercentage) */\n      mload(0x40)\n      tag_360\n      swap3\n      swap2\n      swap1\n      tag_303\n      jump\t// in\n    tag_360:\n      mload(0x40)\n      dup1\n      swap2\n      sub\n      swap1\n      log1\n        /* \"DripWarrior/poolContract.sol\":14551:14874  function setmaintainceFeePercentage(uint256 _newPerccentage) external onlyOwner {... */\n      pop\n      jump\t// out\n        /* \"DripWarrior/poolContract.sol\":13540:13870  function settdividentPayoutPercentage(uint256 _newPerccentage) external onlyOwner {... */\n    tag_154:\n        /* \"@openzeppelin/contracts-upgradeable/access/OwnableUpgradeable.sol\":2334:2347  _checkOwner() */\n      tag_362\n        /* \"@openzeppelin/contracts-upgradeable/access/OwnableUpgradeable.sol\":2334:2345  _checkOwner */\n      tag_247\n        /* \"@openzeppelin/contracts-upgradeable/access/OwnableUpgradeable.sol\":2334:2347  _checkOwner() */\n      jump\t// in\n    tag_362:\n        /* \"DripWarrior/poolContract.sol\":13663:13664  0 */\n      0x00\n        /* \"DripWarrior/poolContract.sol\":13644:13659  _newPerccentage */\n      dup2\n        /* \"DripWarrior/poolContract.sol\":13644:13664  _newPerccentage <= 0 */\n      gt\n        /* \"DripWarrior/poolContract.sol\":13641:13729  if(_newPerccentage <= 0){... */\n      tag_364\n      jumpi\n        /* \"DripWarrior/poolContract.sol\":13702:13717  _newPerccentage */\n      dup1\n        /* \"DripWarrior/poolContract.sol\":13686:13718  wrongPercentage(_newPerccentage) */\n      mload(0x40)\n      0xcdbc633500000000000000000000000000000000000000000000000000000000\n      dup2\n      mstore\n      0x04\n      add\n      tag_365\n      swap2\n      swap1\n      tag_57\n      jump\t// in\n    tag_365:\n      mload(0x40)\n      dup1\n      swap2\n      sub\n      swap1\n      revert\n        /* \"DripWarrior/poolContract.sol\":13641:13729  if(_newPerccentage <= 0){... */\n    tag_364:\n        /* \"DripWarrior/poolContract.sol\":13775:13790  _newPerccentage */\n      dup1\n        /* \"DripWarrior/poolContract.sol\":13747:13772  tdividentPayoutPercentage */\n      0x04\n        /* \"DripWarrior/poolContract.sol\":13747:13790  tdividentPayoutPercentage = _newPerccentage */\n      dup2\n      swap1\n      sstore\n      pop\n        /* \"DripWarrior/poolContract.sol\":13806:13862  PercentageChanged(msg.sender, tdividentPayoutPercentage) */\n      0xb5671393c7c6980552e50a31e778921eb17d764c2e98fbf4d44fff524712def9\n        /* \"DripWarrior/poolContract.sol\":13824:13834  msg.sender */\n      caller\n        /* \"DripWarrior/poolContract.sol\":13836:13861  tdividentPayoutPercentage */\n      sload(0x04)\n        /* \"DripWarrior/poolContract.sol\":13806:13862  PercentageChanged(msg.sender, tdividentPayoutPercentage) */\n      mload(0x40)\n      tag_366\n      swap3\n      swap2\n      swap1\n      tag_303\n      jump\t// in\n    tag_366:\n      mload(0x40)\n      dup1\n      swap2\n      sub\n      swap1\n      log1\n        /* \"DripWarrior/poolContract.sol\":13540:13870  function settdividentPayoutPercentage(uint256 _newPerccentage) external onlyOwner {... */\n      pop\n      jump\t// out\n        /* \"DripWarrior/poolContract.sol\":6143:6789  function reStakeTokens(uint256 _amount) external  {... */\n    tag_158:\n        /* \"DripWarrior/poolContract.sol\":6226:6227  0 */\n      0x00\n        /* \"DripWarrior/poolContract.sol\":6215:6222  _amount */\n      dup2\n        /* \"DripWarrior/poolContract.sol\":6215:6227  _amount <= 0 */\n      gt\n        /* \"DripWarrior/poolContract.sol\":6212:6280  if(_amount <= 0){... */\n      tag_368\n      jumpi\n        /* \"DripWarrior/poolContract.sol\":6261:6268  _amount */\n      dup1\n        /* \"DripWarrior/poolContract.sol\":6249:6269  wrongAmount(_amount) */\n      mload(0x40)\n      0x2ff4783000000000000000000000000000000000000000000000000000000000\n      dup2\n      mstore\n      0x04\n      add\n      tag_369\n      swap2\n      swap1\n      tag_57\n      jump\t// in\n    tag_369:\n      mload(0x40)\n      dup1\n      swap2\n      sub\n      swap1\n      revert\n        /* \"DripWarrior/poolContract.sol\":6212:6280  if(_amount <= 0){... */\n    tag_368:\n        /* \"DripWarrior/poolContract.sol\":6300:6314  userRegistered */\n      0x11\n        /* \"DripWarrior/poolContract.sol\":6300:6326  userRegistered[msg.sender] */\n      0x00\n        /* \"DripWarrior/poolContract.sol\":6315:6325  msg.sender */\n      caller\n        /* \"DripWarrior/poolContract.sol\":6300:6326  userRegistered[msg.sender] */\n      0xffffffffffffffffffffffffffffffffffffffff\n      and\n      0xffffffffffffffffffffffffffffffffffffffff\n      and\n      dup2\n      mstore\n      0x20\n      add\n      swap1\n      dup2\n      mstore\n      0x20\n      add\n      0x00\n      keccak256\n        /* \"DripWarrior/poolContract.sol\":6300:6334  userRegistered[msg.sender].blocked */\n      0x00\n      add\n      0x00\n      swap1\n      sload\n      swap1\n      0x0100\n      exp\n      swap1\n      div\n      0xff\n      and\n        /* \"DripWarrior/poolContract.sol\":6297:6414  if(userRegistered[msg.sender].blocked){... */\n      iszero\n      tag_370\n      jumpi\n        /* \"DripWarrior/poolContract.sol\":6368:6382  userRegistered */\n      0x11\n        /* \"DripWarrior/poolContract.sol\":6368:6394  userRegistered[msg.sender] */\n      0x00\n        /* \"DripWarrior/poolContract.sol\":6383:6393  msg.sender */\n      caller\n        /* \"DripWarrior/poolContract.sol\":6368:6394  userRegistered[msg.sender] */\n      0xffffffffffffffffffffffffffffffffffffffff\n      and\n      0xffffffffffffffffffffffffffffffffffffffff\n      and\n      dup2\n      mstore\n      0x20\n      add\n      swap1\n      dup2\n      mstore\n      0x20\n      add\n      0x00\n      keccak256\n        /* \"DripWarrior/poolContract.sol\":6368:6402  userRegistered[msg.sender].blocked */\n      0x00\n      add\n      0x00\n      swap1\n      sload\n      swap1\n      0x0100\n      exp\n      swap1\n      div\n      0xff\n      and\n        /* \"DripWarrior/poolContract.sol\":6356:6403  userBlocked(userRegistered[msg.sender].blocked) */\n      mload(0x40)\n      0x6fa5c3c000000000000000000000000000000000000000000000000000000000\n      dup2\n      mstore\n      0x04\n      add\n      tag_371\n      swap2\n      swap1\n      tag_215\n      jump\t// in\n    tag_371:\n      mload(0x40)\n      dup1\n      swap2\n      sub\n      swap1\n      revert\n        /* \"DripWarrior/poolContract.sol\":6297:6414  if(userRegistered[msg.sender].blocked){... */\n    tag_370:\n        /* \"DripWarrior/poolContract.sol\":6443:6457  userRegistered */\n      0x11\n        /* \"DripWarrior/poolContract.sol\":6443:6469  userRegistered[msg.sender] */\n      0x00\n        /* \"DripWarrior/poolContract.sol\":6458:6468  msg.sender */\n      caller\n        /* \"DripWarrior/poolContract.sol\":6443:6469  userRegistered[msg.sender] */\n      0xffffffffffffffffffffffffffffffffffffffff\n      and\n      0xffffffffffffffffffffffffffffffffffffffff\n      and\n      dup2\n      mstore\n      0x20\n      add\n      swap1\n      dup2\n      mstore\n      0x20\n      add\n      0x00\n      keccak256\n        /* \"DripWarrior/poolContract.sol\":6443:6484  userRegistered[msg.sender].receivedAmount */\n      0x01\n      add\n      sload\n        /* \"DripWarrior/poolContract.sol\":6432:6439  _amount */\n      dup2\n        /* \"DripWarrior/poolContract.sol\":6432:6484  _amount <= userRegistered[msg.sender].receivedAmount */\n      gt\n      iszero\n        /* \"DripWarrior/poolContract.sol\":6424:6504  require(_amount <= userRegistered[msg.sender].receivedAmount,\"invalid _amount!\") */\n      tag_372\n      jumpi\n      mload(0x40)\n      0x08c379a000000000000000000000000000000000000000000000000000000000\n      dup2\n      mstore\n      0x04\n      add\n      tag_373\n      swap1\n      tag_309\n      jump\t// in\n    tag_373:\n      mload(0x40)\n      dup1\n      swap2\n      sub\n      swap1\n      revert\n    tag_372:\n        /* \"DripWarrior/poolContract.sol\":6560:6567  _amount */\n      dup1\n        /* \"DripWarrior/poolContract.sol\":6515:6529  userRegistered */\n      0x11\n        /* \"DripWarrior/poolContract.sol\":6515:6541  userRegistered[msg.sender] */\n      0x00\n        /* \"DripWarrior/poolContract.sol\":6530:6540  msg.sender */\n      caller\n        /* \"DripWarrior/poolContract.sol\":6515:6541  userRegistered[msg.sender] */\n      0xffffffffffffffffffffffffffffffffffffffff\n      and\n      0xffffffffffffffffffffffffffffffffffffffff\n      and\n      dup2\n      mstore\n      0x20\n      add\n      swap1\n      dup2\n      mstore\n      0x20\n      add\n      0x00\n      keccak256\n        /* \"DripWarrior/poolContract.sol\":6515:6556  userRegistered[msg.sender].receivedAmount */\n      0x01\n      add\n      0x00\n        /* \"DripWarrior/poolContract.sol\":6515:6567  userRegistered[msg.sender].receivedAmount -= _amount */\n      dup3\n      dup3\n      sload\n      tag_374\n      swap2\n      swap1\n      tag_263\n      jump\t// in\n    tag_374:\n      swap3\n      pop\n      pop\n      dup2\n      swap1\n      sstore\n      pop\n        /* \"DripWarrior/poolContract.sol\":6625:6632  _amount */\n      dup1\n        /* \"DripWarrior/poolContract.sol\":6577:6591  userRegistered */\n      0x11\n        /* \"DripWarrior/poolContract.sol\":6577:6603  userRegistered[msg.sender] */\n      0x00\n        /* \"DripWarrior/poolContract.sol\":6592:6602  msg.sender */\n      caller\n        /* \"DripWarrior/poolContract.sol\":6577:6603  userRegistered[msg.sender] */\n      0xffffffffffffffffffffffffffffffffffffffff\n      and\n      0xffffffffffffffffffffffffffffffffffffffff\n      and\n      dup2\n      mstore\n      0x20\n      add\n      swap1\n      dup2\n      mstore\n      0x20\n      add\n      0x00\n      keccak256\n        /* \"DripWarrior/poolContract.sol\":6577:6621  userRegistered[msg.sender].totalStakedAmount */\n      0x05\n      add\n      0x00\n        /* \"DripWarrior/poolContract.sol\":6577:6632  userRegistered[msg.sender].totalStakedAmount += _amount */\n      dup3\n      dup3\n      sload\n      tag_375\n      swap2\n      swap1\n      tag_285\n      jump\t// in\n    tag_375:\n      swap3\n      pop\n      pop\n      dup2\n      swap1\n      sstore\n      pop\n        /* \"DripWarrior/poolContract.sol\":6674:6681  _amount */\n      dup1\n        /* \"DripWarrior/poolContract.sol\":6651:6670  ownerShipPoolAmount */\n      0x02\n      0x00\n        /* \"DripWarrior/poolContract.sol\":6651:6681  ownerShipPoolAmount += _amount */\n      dup3\n      dup3\n      sload\n      tag_376\n      swap2\n      swap1\n      tag_285\n      jump\t// in\n    tag_376:\n      swap3\n      pop\n      pop\n      dup2\n      swap1\n      sstore\n      pop\n        /* \"DripWarrior/poolContract.sol\":6712:6719  _amount */\n      dup1\n        /* \"DripWarrior/poolContract.sol\":6691:6708  totalStakedAmount */\n      0x03\n      0x00\n        /* \"DripWarrior/poolContract.sol\":6691:6719  totalStakedAmount += _amount */\n      dup3\n      dup3\n      sload\n      tag_377\n      swap2\n      swap1\n      tag_285\n      jump\t// in\n    tag_377:\n      swap3\n      pop\n      pop\n      dup2\n      swap1\n      sstore\n      pop\n        /* \"DripWarrior/poolContract.sol\":6735:6781  StakeTokens(msg.sender,address(this), _amount) */\n      0x14ee34c24635186d212f515353dadae9c226529edef2d1fcf5504cb33b5c25ab\n        /* \"DripWarrior/poolContract.sol\":6747:6757  msg.sender */\n      caller\n        /* \"DripWarrior/poolContract.sol\":6766:6770  this */\n      address\n        /* \"DripWarrior/poolContract.sol\":6773:6780  _amount */\n      dup4\n        /* \"DripWarrior/poolContract.sol\":6735:6781  StakeTokens(msg.sender,address(this), _amount) */\n      mload(0x40)\n      tag_378\n      swap4\n      swap3\n      swap2\n      swap1\n      tag_287\n      jump\t// in\n    tag_378:\n      mload(0x40)\n      dup1\n      swap2\n      sub\n      swap1\n      log1\n        /* \"DripWarrior/poolContract.sol\":6143:6789  function reStakeTokens(uint256 _amount) external  {... */\n      pop\n      jump\t// out\n        /* \"DripWarrior/poolContract.sol\":6799:7340  function addFunds(uint256 _amount, uint256 _projectNo)   external {... */\n    tag_163:\n        /* \"DripWarrior/poolContract.sol\":6890:6891  0 */\n      0x00\n        /* \"DripWarrior/poolContract.sol\":6879:6886  _amount */\n      dup3\n        /* \"DripWarrior/poolContract.sol\":6879:6891  _amount <= 0 */\n      gt\n        /* \"DripWarrior/poolContract.sol\":6876:6944  if(_amount <= 0){... */\n      tag_380\n      jumpi\n        /* \"DripWarrior/poolContract.sol\":6925:6932  _amount */\n      dup2\n        /* \"DripWarrior/poolContract.sol\":6913:6933  wrongAmount(_amount) */\n      mload(0x40)\n      0x2ff4783000000000000000000000000000000000000000000000000000000000\n      dup2\n      mstore\n      0x04\n      add\n      tag_381\n      swap2\n      swap1\n      tag_57\n      jump\t// in\n    tag_381:\n      mload(0x40)\n      dup1\n      swap2\n      sub\n      swap1\n      revert\n        /* \"DripWarrior/poolContract.sol\":6876:6944  if(_amount <= 0){... */\n    tag_380:\n        /* \"DripWarrior/poolContract.sol\":6970:6983  totalProjects */\n      sload(0x0d)\n        /* \"DripWarrior/poolContract.sol\":6957:6967  _projectNo */\n      dup2\n        /* \"DripWarrior/poolContract.sol\":6957:6983  _projectNo > totalProjects */\n      gt\n        /* \"DripWarrior/poolContract.sol\":6954:7042  if(_projectNo > totalProjects){... */\n      iszero\n      tag_382\n      jumpi\n        /* \"DripWarrior/poolContract.sol\":7020:7030  _projectNo */\n      dup1\n        /* \"DripWarrior/poolContract.sol\":7005:7031  wrongProjectNo(_projectNo) */\n      mload(0x40)\n      0x222a50f300000000000000000000000000000000000000000000000000000000\n      dup2\n      mstore\n      0x04\n      add\n      tag_383\n      swap2\n      swap1\n      tag_57\n      jump\t// in\n    tag_383:\n      mload(0x40)\n      dup1\n      swap2\n      sub\n      swap1\n      revert\n        /* \"DripWarrior/poolContract.sol\":6954:7042  if(_projectNo > totalProjects){... */\n    tag_382:\n        /* \"DripWarrior/poolContract.sol\":7064:7113  calculateFees(_amount, tPPercentages[_projectNo]) */\n      tag_384\n        /* \"DripWarrior/poolContract.sol\":7078:7085  _amount */\n      dup3\n        /* \"DripWarrior/poolContract.sol\":7087:7100  tPPercentages */\n      0x10\n        /* \"DripWarrior/poolContract.sol\":7087:7112  tPPercentages[_projectNo] */\n      0x00\n        /* \"DripWarrior/poolContract.sol\":7101:7111  _projectNo */\n      dup5\n        /* \"DripWarrior/poolContract.sol\":7087:7112  tPPercentages[_projectNo] */\n      dup2\n      mstore\n      0x20\n      add\n      swap1\n      dup2\n      mstore\n      0x20\n      add\n      0x00\n      keccak256\n      sload\n        /* \"DripWarrior/poolContract.sol\":7064:7077  calculateFees */\n      tag_385\n        /* \"DripWarrior/poolContract.sol\":7064:7113  calculateFees(_amount, tPPercentages[_projectNo]) */\n      jump\t// in\n    tag_384:\n        /* \"DripWarrior/poolContract.sol\":7132:7144  bool success */\n      0x00\n        /* \"DripWarrior/poolContract.sol\":7147:7156  usdcToken */\n      0x00\n      0x00\n      swap1\n      sload\n      swap1\n      0x0100\n      exp\n      swap1\n      div\n      0xffffffffffffffffffffffffffffffffffffffff\n      and\n        /* \"DripWarrior/poolContract.sol\":7147:7169  usdcToken.transferFrom */\n      0xffffffffffffffffffffffffffffffffffffffff\n      and\n      0x23b872dd\n        /* \"DripWarrior/poolContract.sol\":7170:7180  msg.sender */\n      caller\n        /* \"DripWarrior/poolContract.sol\":7189:7193  this */\n      address\n        /* \"DripWarrior/poolContract.sol\":7195:7202  _amount */\n      dup7\n        /* \"DripWarrior/poolContract.sol\":7147:7204  usdcToken.transferFrom(msg.sender,address(this),_amount ) */\n      mload(0x40)\n      dup5\n      0xffffffff\n      and\n      0xe0\n      shl\n      dup2\n      mstore\n      0x04\n      add\n      tag_386\n      swap4\n      swap3\n      swap2\n      swap1\n      tag_287\n      jump\t// in\n    tag_386:\n      0x20\n      mload(0x40)\n      dup1\n      dup4\n      sub\n      dup2\n      0x00\n      dup8\n      gas\n      call\n      iszero\n      dup1\n      iszero\n      tag_388\n      jumpi\n      returndatacopy(0x00, 0x00, returndatasize)\n      revert(0x00, returndatasize)\n    tag_388:\n      pop\n      pop\n      pop\n      pop\n      mload(0x40)\n      returndatasize\n      not(0x1f)\n      0x1f\n      dup3\n      add\n      and\n      dup3\n      add\n      dup1\n      0x40\n      mstore\n      pop\n      dup2\n      add\n      swap1\n      tag_389\n      swap2\n      swap1\n      tag_291\n      jump\t// in\n    tag_389:\n        /* \"DripWarrior/poolContract.sol\":7132:7204  bool success = usdcToken.transferFrom(msg.sender,address(this),_amount ) */\n      swap1\n      pop\n        /* \"DripWarrior/poolContract.sol\":7218:7225  success */\n      dup1\n        /* \"DripWarrior/poolContract.sol\":7214:7281  if(!success){... */\n      tag_390\n      jumpi\n        /* \"DripWarrior/poolContract.sol\":7262:7269  success */\n      dup1\n        /* \"DripWarrior/poolContract.sol\":7247:7270  transferFailed(success) */\n      mload(0x40)\n      0xd85d3cef00000000000000000000000000000000000000000000000000000000\n      dup2\n      mstore\n      0x04\n      add\n      tag_391\n      swap2\n      swap1\n      tag_215\n      jump\t// in\n    tag_391:\n      mload(0x40)\n      dup1\n      swap2\n      sub\n      swap1\n      revert\n        /* \"DripWarrior/poolContract.sol\":7214:7281  if(!success){... */\n    tag_390:\n        /* \"DripWarrior/poolContract.sol\":7296:7324  AddFunds(_amount,_projectNo) */\n      0xa89b69c5958ec1ccf0df0de746a8708f5b6a6b429430129f16f46f44b319c900\n        /* \"DripWarrior/poolContract.sol\":7305:7312  _amount */\n      dup4\n        /* \"DripWarrior/poolContract.sol\":7313:7323  _projectNo */\n      dup4\n        /* \"DripWarrior/poolContract.sol\":7296:7324  AddFunds(_amount,_projectNo) */\n      mload(0x40)\n      tag_392\n      swap3\n      swap2\n      swap1\n      tag_393\n      jump\t// in\n    tag_392:\n      mload(0x40)\n      dup1\n      swap2\n      sub\n      swap1\n      log1\n        /* \"DripWarrior/poolContract.sol\":6865:7340  {... */\n      pop\n        /* \"DripWarrior/poolContract.sol\":6799:7340  function addFunds(uint256 _amount, uint256 _projectNo)   external {... */\n      pop\n      pop\n      jump\t// out\n        /* \"@openzeppelin/contracts-upgradeable/access/OwnableUpgradeable.sol\":2441:2585  function owner() public view virtual returns (address) {... */\n    tag_166:\n        /* \"@openzeppelin/contracts-upgradeable/access/OwnableUpgradeable.sol\":2487:2494  address */\n      0x00\n        /* \"@openzeppelin/contracts-upgradeable/access/OwnableUpgradeable.sol\":2506:2530  OwnableStorage storage $ */\n      0x00\n        /* \"@openzeppelin/contracts-upgradeable/access/OwnableUpgradeable.sol\":2533:2553  _getOwnableStorage() */\n      tag_395\n        /* \"@openzeppelin/contracts-upgradeable/access/OwnableUpgradeable.sol\":2533:2551  _getOwnableStorage */\n      tag_396\n        /* \"@openzeppelin/contracts-upgradeable/access/OwnableUpgradeable.sol\":2533:2553  _getOwnableStorage() */\n      jump\t// in\n    tag_395:\n        /* \"@openzeppelin/contracts-upgradeable/access/OwnableUpgradeable.sol\":2506:2553  OwnableStorage storage $ = _getOwnableStorage() */\n      swap1\n      pop\n        /* \"@openzeppelin/contracts-upgradeable/access/OwnableUpgradeable.sol\":2570:2571  $ */\n      dup1\n        /* \"@openzeppelin/contracts-upgradeable/access/OwnableUpgradeable.sol\":2570:2578  $._owner */\n      0x00\n      add\n      0x00\n      swap1\n      sload\n      swap1\n      0x0100\n      exp\n      swap1\n      div\n      0xffffffffffffffffffffffffffffffffffffffff\n      and\n        /* \"@openzeppelin/contracts-upgradeable/access/OwnableUpgradeable.sol\":2563:2578  return $._owner */\n      swap2\n      pop\n      pop\n        /* \"@openzeppelin/contracts-upgradeable/access/OwnableUpgradeable.sol\":2441:2585  function owner() public view virtual returns (address) {... */\n      swap1\n      jump\t// out\n        /* \"DripWarrior/poolContract.sol\":1410:1433  uint256 public interval */\n    tag_170:\n      sload(0x0a)\n      dup2\n      jump\t// out\n        /* \"DripWarrior/poolContract.sol\":1842:1870  uint256 public totalProjects */\n    tag_174:\n      sload(0x0d)\n      dup2\n      jump\t// out\n        /* \"DripWarrior/poolContract.sol\":1926:1971  mapping(uint256 => address) public totalUsers */\n    tag_179:\n      mstore(0x20, 0x0f)\n      dup1\n      0x00\n      mstore\n      keccak256(0x00, 0x40)\n      0x00\n      swap2\n      pop\n      sload\n      swap1\n      0x0100\n      exp\n      swap1\n      div\n      0xffffffffffffffffffffffffffffffffffffffff\n      and\n      dup2\n      jump\t// out\n        /* \"@openzeppelin/contracts-upgradeable/proxy/utils/UUPSUpgradeable.sol\":1819:1877  string public constant UPGRADE_INTERFACE_VERSION = \"5.0.0\" */\n    tag_183:\n      mload(0x40)\n      dup1\n      0x40\n      add\n      0x40\n      mstore\n      dup1\n      0x05\n      dup2\n      mstore\n      0x20\n      add\n      0x352e302e30000000000000000000000000000000000000000000000000000000\n      dup2\n      mstore\n      pop\n      dup2\n      jump\t// out\n        /* \"DripWarrior/poolContract.sol\":14220:14545  function setflowToTreasuryPercentage(uint256 _newPerccentage) external onlyOwner {... */\n    tag_189:\n        /* \"@openzeppelin/contracts-upgradeable/access/OwnableUpgradeable.sol\":2334:2347  _checkOwner() */\n      tag_398\n        /* \"@openzeppelin/contracts-upgradeable/access/OwnableUpgradeable.sol\":2334:2345  _checkOwner */\n      tag_247\n        /* \"@openzeppelin/contracts-upgradeable/access/OwnableUpgradeable.sol\":2334:2347  _checkOwner() */\n      jump\t// in\n    tag_398:\n        /* \"DripWarrior/poolContract.sol\":14341:14342  0 */\n      0x00\n        /* \"DripWarrior/poolContract.sol\":14322:14337  _newPerccentage */\n      dup2\n        /* \"DripWarrior/poolContract.sol\":14322:14342  _newPerccentage <= 0 */\n      gt\n        /* \"DripWarrior/poolContract.sol\":14319:14407  if(_newPerccentage <= 0){... */\n      tag_400\n      jumpi\n        /* \"DripWarrior/poolContract.sol\":14380:14395  _newPerccentage */\n      dup1\n        /* \"DripWarrior/poolContract.sol\":14364:14396  wrongPercentage(_newPerccentage) */\n      mload(0x40)\n      0xcdbc633500000000000000000000000000000000000000000000000000000000\n      dup2\n      mstore\n      0x04\n      add\n      tag_401\n      swap2\n      swap1\n      tag_57\n      jump\t// in\n    tag_401:\n      mload(0x40)\n      dup1\n      swap2\n      sub\n      swap1\n      revert\n        /* \"DripWarrior/poolContract.sol\":14319:14407  if(_newPerccentage <= 0){... */\n    tag_400:\n        /* \"DripWarrior/poolContract.sol\":14452:14467  _newPerccentage */\n      dup1\n        /* \"DripWarrior/poolContract.sol\":14425:14449  flowToTreasuryPercentage */\n      0x06\n        /* \"DripWarrior/poolContract.sol\":14425:14467  flowToTreasuryPercentage = _newPerccentage */\n      dup2\n      swap1\n      sstore\n      pop\n        /* \"DripWarrior/poolContract.sol\":14483:14538  PercentageChanged(msg.sender, flowToTreasuryPercentage) */\n      0xb5671393c7c6980552e50a31e778921eb17d764c2e98fbf4d44fff524712def9\n        /* \"DripWarrior/poolContract.sol\":14501:14511  msg.sender */\n      caller\n        /* \"DripWarrior/poolContract.sol\":14513:14537  flowToTreasuryPercentage */\n      sload(0x06)\n        /* \"DripWarrior/poolContract.sol\":14483:14538  PercentageChanged(msg.sender, flowToTreasuryPercentage) */\n      mload(0x40)\n      tag_402\n      swap3\n      swap2\n      swap1\n      tag_303\n      jump\t// in\n    tag_402:\n      mload(0x40)\n      dup1\n      swap2\n      sub\n      swap1\n      log1\n        /* \"DripWarrior/poolContract.sol\":14220:14545  function setflowToTreasuryPercentage(uint256 _newPerccentage) external onlyOwner {... */\n      pop\n      jump\t// out\n        /* \"DripWarrior/poolContract.sol\":1082:1116  uint256 public ownerShipPoolAmount */\n    tag_192:\n      sload(0x02)\n      dup2\n      jump\t// out\n        /* \"DripWarrior/poolContract.sol\":13880:14209  function setodividentPayoutPercentage(uint256 _newPerccentage) external onlyOwner {... */\n    tag_197:\n        /* \"@openzeppelin/contracts-upgradeable/access/OwnableUpgradeable.sol\":2334:2347  _checkOwner() */\n      tag_404\n        /* \"@openzeppelin/contracts-upgradeable/access/OwnableUpgradeable.sol\":2334:2345  _checkOwner */\n      tag_247\n        /* \"@openzeppelin/contracts-upgradeable/access/OwnableUpgradeable.sol\":2334:2347  _checkOwner() */\n      jump\t// in\n    tag_404:\n        /* \"DripWarrior/poolContract.sol\":14003:14004  0 */\n      0x00\n        /* \"DripWarrior/poolContract.sol\":13984:13999  _newPerccentage */\n      dup2\n        /* \"DripWarrior/poolContract.sol\":13984:14004  _newPerccentage <= 0 */\n      gt\n        /* \"DripWarrior/poolContract.sol\":13981:14069  if(_newPerccentage <= 0){... */\n      tag_406\n      jumpi\n        /* \"DripWarrior/poolContract.sol\":14042:14057  _newPerccentage */\n      dup1\n        /* \"DripWarrior/poolContract.sol\":14026:14058  wrongPercentage(_newPerccentage) */\n      mload(0x40)\n      0xcdbc633500000000000000000000000000000000000000000000000000000000\n      dup2\n      mstore\n      0x04\n      add\n      tag_407\n      swap2\n      swap1\n      tag_57\n      jump\t// in\n    tag_407:\n      mload(0x40)\n      dup1\n      swap2\n      sub\n      swap1\n      revert\n        /* \"DripWarrior/poolContract.sol\":13981:14069  if(_newPerccentage <= 0){... */\n    tag_406:\n        /* \"DripWarrior/poolContract.sol\":14115:14130  _newPerccentage */\n      dup1\n        /* \"DripWarrior/poolContract.sol\":14087:14112  odividentPayoutPercentage */\n      0x05\n        /* \"DripWarrior/poolContract.sol\":14087:14130  odividentPayoutPercentage = _newPerccentage */\n      dup2\n      swap1\n      sstore\n      pop\n        /* \"DripWarrior/poolContract.sol\":14146:14202  PercentageChanged(msg.sender, odividentPayoutPercentage) */\n      0xb5671393c7c6980552e50a31e778921eb17d764c2e98fbf4d44fff524712def9\n        /* \"DripWarrior/poolContract.sol\":14164:14174  msg.sender */\n      caller\n        /* \"DripWarrior/poolContract.sol\":14176:14201  odividentPayoutPercentage */\n      sload(0x05)\n        /* \"DripWarrior/poolContract.sol\":14146:14202  PercentageChanged(msg.sender, odividentPayoutPercentage) */\n      mload(0x40)\n      tag_408\n      swap3\n      swap2\n      swap1\n      tag_303\n      jump\t// in\n    tag_408:\n      mload(0x40)\n      dup1\n      swap2\n      sub\n      swap1\n      log1\n        /* \"DripWarrior/poolContract.sol\":13880:14209  function setodividentPayoutPercentage(uint256 _newPerccentage) external onlyOwner {... */\n      pop\n      jump\t// out\n        /* \"DripWarrior/poolContract.sol\":2031:2087  mapping(address => UserRegistered) public userRegistered */\n    tag_202:\n      mstore(0x20, 0x11)\n      dup1\n      0x00\n      mstore\n      keccak256(0x00, 0x40)\n      0x00\n      swap2\n      pop\n      swap1\n      pop\n      dup1\n      0x00\n      add\n      0x00\n      swap1\n      sload\n      swap1\n      0x0100\n      exp\n      swap1\n      div\n      0xff\n      and\n      swap1\n      dup1\n      0x01\n      add\n      sload\n      swap1\n      dup1\n      0x02\n      add\n      sload\n      swap1\n      dup1\n      0x03\n      add\n      sload\n      swap1\n      dup1\n      0x04\n      add\n      sload\n      swap1\n      dup1\n      0x05\n      add\n      sload\n      swap1\n      pop\n      dup7\n      jump\t// out\n        /* \"DripWarrior/poolContract.sol\":3435:4161  function initialize(address initialOwner,address _usdcAddress,... */\n    tag_209:\n        /* \"@openzeppelin/contracts-upgradeable/proxy/utils/Initializable.sol\":4158:4188  InitializableStorage storage $ */\n      0x00\n        /* \"@openzeppelin/contracts-upgradeable/proxy/utils/Initializable.sol\":4191:4217  _getInitializableStorage() */\n      tag_410\n        /* \"@openzeppelin/contracts-upgradeable/proxy/utils/Initializable.sol\":4191:4215  _getInitializableStorage */\n      tag_411\n        /* \"@openzeppelin/contracts-upgradeable/proxy/utils/Initializable.sol\":4191:4217  _getInitializableStorage() */\n      jump\t// in\n    tag_410:\n        /* \"@openzeppelin/contracts-upgradeable/proxy/utils/Initializable.sol\":4158:4217  InitializableStorage storage $ = _getInitializableStorage() */\n      swap1\n      pop\n        /* \"@openzeppelin/contracts-upgradeable/proxy/utils/Initializable.sol\":4279:4298  bool isTopLevelCall */\n      0x00\n        /* \"@openzeppelin/contracts-upgradeable/proxy/utils/Initializable.sol\":4302:4303  $ */\n      dup2\n        /* \"@openzeppelin/contracts-upgradeable/proxy/utils/Initializable.sol\":4302:4317  $._initializing */\n      0x00\n      add\n      0x08\n      swap1\n      sload\n      swap1\n      0x0100\n      exp\n      swap1\n      div\n      0xff\n      and\n        /* \"@openzeppelin/contracts-upgradeable/proxy/utils/Initializable.sol\":4301:4317  !$._initializing */\n      iszero\n        /* \"@openzeppelin/contracts-upgradeable/proxy/utils/Initializable.sol\":4279:4317  bool isTopLevelCall = !$._initializing */\n      swap1\n      pop\n        /* \"@openzeppelin/contracts-upgradeable/proxy/utils/Initializable.sol\":4327:4345  uint64 initialized */\n      0x00\n        /* \"@openzeppelin/contracts-upgradeable/proxy/utils/Initializable.sol\":4348:4349  $ */\n      dup3\n        /* \"@openzeppelin/contracts-upgradeable/proxy/utils/Initializable.sol\":4348:4362  $._initialized */\n      0x00\n      add\n      0x00\n      swap1\n      sload\n      swap1\n      0x0100\n      exp\n      swap1\n      div\n      0xffffffffffffffff\n      and\n        /* \"@openzeppelin/contracts-upgradeable/proxy/utils/Initializable.sol\":4327:4362  uint64 initialized = $._initialized */\n      swap1\n      pop\n        /* \"@openzeppelin/contracts-upgradeable/proxy/utils/Initializable.sol\":4706:4723  bool initialSetup */\n      0x00\n        /* \"@openzeppelin/contracts-upgradeable/proxy/utils/Initializable.sol\":4741:4742  0 */\n      0x00\n        /* \"@openzeppelin/contracts-upgradeable/proxy/utils/Initializable.sol\":4726:4737  initialized */\n      dup3\n        /* \"@openzeppelin/contracts-upgradeable/proxy/utils/Initializable.sol\":4726:4742  initialized == 0 */\n      0xffffffffffffffff\n      and\n      eq\n        /* \"@openzeppelin/contracts-upgradeable/proxy/utils/Initializable.sol\":4726:4760  initialized == 0 && isTopLevelCall */\n      dup1\n      iszero\n      tag_412\n      jumpi\n      pop\n        /* \"@openzeppelin/contracts-upgradeable/proxy/utils/Initializable.sol\":4746:4760  isTopLevelCall */\n      dup3\n        /* \"@openzeppelin/contracts-upgradeable/proxy/utils/Initializable.sol\":4726:4760  initialized == 0 && isTopLevelCall */\n    tag_412:\n        /* \"@openzeppelin/contracts-upgradeable/proxy/utils/Initializable.sol\":4706:4760  bool initialSetup = initialized == 0 && isTopLevelCall */\n      swap1\n      pop\n        /* \"@openzeppelin/contracts-upgradeable/proxy/utils/Initializable.sol\":4770:4787  bool construction */\n      0x00\n        /* \"@openzeppelin/contracts-upgradeable/proxy/utils/Initializable.sol\":4805:4806  1 */\n      0x01\n        /* \"@openzeppelin/contracts-upgradeable/proxy/utils/Initializable.sol\":4790:4801  initialized */\n      dup4\n        /* \"@openzeppelin/contracts-upgradeable/proxy/utils/Initializable.sol\":4790:4806  initialized == 1 */\n      0xffffffffffffffff\n      and\n      eq\n        /* \"@openzeppelin/contracts-upgradeable/proxy/utils/Initializable.sol\":4790:4840  initialized == 1 && address(this).code.length == 0 */\n      dup1\n      iszero\n      tag_413\n      jumpi\n      pop\n        /* \"@openzeppelin/contracts-upgradeable/proxy/utils/Initializable.sol\":4839:4840  0 */\n      0x00\n        /* \"@openzeppelin/contracts-upgradeable/proxy/utils/Initializable.sol\":4818:4822  this */\n      address\n        /* \"@openzeppelin/contracts-upgradeable/proxy/utils/Initializable.sol\":4810:4835  address(this).code.length */\n      0xffffffffffffffffffffffffffffffffffffffff\n      and\n      extcodesize\n        /* \"@openzeppelin/contracts-upgradeable/proxy/utils/Initializable.sol\":4810:4840  address(this).code.length == 0 */\n      eq\n        /* \"@openzeppelin/contracts-upgradeable/proxy/utils/Initializable.sol\":4790:4840  initialized == 1 && address(this).code.length == 0 */\n    tag_413:\n        /* \"@openzeppelin/contracts-upgradeable/proxy/utils/Initializable.sol\":4770:4840  bool construction = initialized == 1 && address(this).code.length == 0 */\n      swap1\n      pop\n        /* \"@openzeppelin/contracts-upgradeable/proxy/utils/Initializable.sol\":4856:4868  initialSetup */\n      dup2\n        /* \"@openzeppelin/contracts-upgradeable/proxy/utils/Initializable.sol\":4855:4868  !initialSetup */\n      iszero\n        /* \"@openzeppelin/contracts-upgradeable/proxy/utils/Initializable.sol\":4855:4885  !initialSetup && !construction */\n      dup1\n      iszero\n      tag_414\n      jumpi\n      pop\n        /* \"@openzeppelin/contracts-upgradeable/proxy/utils/Initializable.sol\":4873:4885  construction */\n      dup1\n        /* \"@openzeppelin/contracts-upgradeable/proxy/utils/Initializable.sol\":4872:4885  !construction */\n      iszero\n        /* \"@openzeppelin/contracts-upgradeable/proxy/utils/Initializable.sol\":4855:4885  !initialSetup && !construction */\n    tag_414:\n        /* \"@openzeppelin/contracts-upgradeable/proxy/utils/Initializable.sol\":4851:4942  if (!initialSetup && !construction) {... */\n      iszero\n      tag_415\n      jumpi\n        /* \"@openzeppelin/contracts-upgradeable/proxy/utils/Initializable.sol\":4908:4931  InvalidInitialization() */\n      mload(0x40)\n      0xf92ee8a900000000000000000000000000000000000000000000000000000000\n      dup2\n      mstore\n      0x04\n      add\n      mload(0x40)\n      dup1\n      swap2\n      sub\n      swap1\n      revert\n        /* \"@openzeppelin/contracts-upgradeable/proxy/utils/Initializable.sol\":4851:4942  if (!initialSetup && !construction) {... */\n    tag_415:\n        /* \"@openzeppelin/contracts-upgradeable/proxy/utils/Initializable.sol\":4968:4969  1 */\n      0x01\n        /* \"@openzeppelin/contracts-upgradeable/proxy/utils/Initializable.sol\":4951:4952  $ */\n      dup6\n        /* \"@openzeppelin/contracts-upgradeable/proxy/utils/Initializable.sol\":4951:4965  $._initialized */\n      0x00\n      add\n      0x00\n        /* \"@openzeppelin/contracts-upgradeable/proxy/utils/Initializable.sol\":4951:4969  $._initialized = 1 */\n      0x0100\n      exp\n      dup2\n      sload\n      dup2\n      0xffffffffffffffff\n      mul\n      not\n      and\n      swap1\n      dup4\n      0xffffffffffffffff\n      and\n      mul\n      or\n      swap1\n      sstore\n      pop\n        /* \"@openzeppelin/contracts-upgradeable/proxy/utils/Initializable.sol\":4983:4997  isTopLevelCall */\n      dup4\n        /* \"@openzeppelin/contracts-upgradeable/proxy/utils/Initializable.sol\":4979:5046  if (isTopLevelCall) {... */\n      iszero\n      tag_416\n      jumpi\n        /* \"@openzeppelin/contracts-upgradeable/proxy/utils/Initializable.sol\":5031:5035  true */\n      0x01\n        /* \"@openzeppelin/contracts-upgradeable/proxy/utils/Initializable.sol\":5013:5014  $ */\n      dup6\n        /* \"@openzeppelin/contracts-upgradeable/proxy/utils/Initializable.sol\":5013:5028  $._initializing */\n      0x00\n      add\n      0x08\n        /* \"@openzeppelin/contracts-upgradeable/proxy/utils/Initializable.sol\":5013:5035  $._initializing = true */\n      0x0100\n      exp\n      dup2\n      sload\n      dup2\n      0xff\n      mul\n      not\n      and\n      swap1\n      dup4\n      iszero\n      iszero\n      mul\n      or\n      swap1\n      sstore\n      pop\n        /* \"@openzeppelin/contracts-upgradeable/proxy/utils/Initializable.sol\":4979:5046  if (isTopLevelCall) {... */\n    tag_416:\n        /* \"DripWarrior/poolContract.sol\":3561:3589  __Ownable_init(initialOwner) */\n      tag_418\n        /* \"DripWarrior/poolContract.sol\":3576:3588  initialOwner */\n      dup9\n        /* \"DripWarrior/poolContract.sol\":3561:3575  __Ownable_init */\n      tag_419\n        /* \"DripWarrior/poolContract.sol\":3561:3589  __Ownable_init(initialOwner) */\n      jump\t// in\n    tag_418:\n        /* \"DripWarrior/poolContract.sol\":3599:3623  __UUPSUpgradeable_init() */\n      tag_420\n        /* \"DripWarrior/poolContract.sol\":3599:3621  __UUPSUpgradeable_init */\n      tag_421\n        /* \"DripWarrior/poolContract.sol\":3599:3623  __UUPSUpgradeable_init() */\n      jump\t// in\n    tag_420:\n        /* \"DripWarrior/poolContract.sol\":3653:3665  _usdcAddress */\n      dup7\n        /* \"DripWarrior/poolContract.sol\":3634:3643  usdcToken */\n      0x00\n      0x00\n        /* \"DripWarrior/poolContract.sol\":3634:3666  usdcToken = IBEP20(_usdcAddress) */\n      0x0100\n      exp\n      dup2\n      sload\n      dup2\n      0xffffffffffffffffffffffffffffffffffffffff\n      mul\n      not\n      and\n      swap1\n      dup4\n      0xffffffffffffffffffffffffffffffffffffffff\n      and\n      mul\n      or\n      swap1\n      sstore\n      pop\n        /* \"DripWarrior/poolContract.sol\":3700:3704  5100 */\n      0x13ec\n        /* \"DripWarrior/poolContract.sol\":3681:3694  tPPercentages */\n      0x10\n        /* \"DripWarrior/poolContract.sol\":3681:3697  tPPercentages[0] */\n      0x00\n        /* \"DripWarrior/poolContract.sol\":3695:3696  0 */\n      0x00\n        /* \"DripWarrior/poolContract.sol\":3681:3697  tPPercentages[0] */\n      dup2\n      mstore\n      0x20\n      add\n      swap1\n      dup2\n      mstore\n      0x20\n      add\n      0x00\n      keccak256\n        /* \"DripWarrior/poolContract.sol\":3681:3704  tPPercentages[0] = 5100 */\n      dup2\n      swap1\n      sstore\n      pop\n        /* \"DripWarrior/poolContract.sol\":3745:3749  7500 */\n      0x1d4c\n        /* \"DripWarrior/poolContract.sol\":3726:3739  tPPercentages */\n      0x10\n        /* \"DripWarrior/poolContract.sol\":3726:3742  tPPercentages[1] */\n      0x00\n        /* \"DripWarrior/poolContract.sol\":3740:3741  1 */\n      0x01\n        /* \"DripWarrior/poolContract.sol\":3726:3742  tPPercentages[1] */\n      dup2\n      mstore\n      0x20\n      add\n      swap1\n      dup2\n      mstore\n      0x20\n      add\n      0x00\n      keccak256\n        /* \"DripWarrior/poolContract.sol\":3726:3749  tPPercentages[1] = 7500 */\n      dup2\n      swap1\n      sstore\n      pop\n        /* \"DripWarrior/poolContract.sol\":3791:3795  3500 */\n      0x0dac\n        /* \"DripWarrior/poolContract.sol\":3772:3785  tPPercentages */\n      0x10\n        /* \"DripWarrior/poolContract.sol\":3772:3788  tPPercentages[2] */\n      0x00\n        /* \"DripWarrior/poolContract.sol\":3786:3787  2 */\n      0x02\n        /* \"DripWarrior/poolContract.sol\":3772:3788  tPPercentages[2] */\n      dup2\n      mstore\n      0x20\n      add\n      swap1\n      dup2\n      mstore\n      0x20\n      add\n      0x00\n      keccak256\n        /* \"DripWarrior/poolContract.sol\":3772:3795  tPPercentages[2] = 3500 */\n      dup2\n      swap1\n      sstore\n      pop\n        /* \"DripWarrior/poolContract.sol\":3836:3840  7700 */\n      0x1e14\n        /* \"DripWarrior/poolContract.sol\":3817:3830  tPPercentages */\n      0x10\n        /* \"DripWarrior/poolContract.sol\":3817:3833  tPPercentages[3] */\n      0x00\n        /* \"DripWarrior/poolContract.sol\":3831:3832  3 */\n      0x03\n        /* \"DripWarrior/poolContract.sol\":3817:3833  tPPercentages[3] */\n      dup2\n      mstore\n      0x20\n      add\n      swap1\n      dup2\n      mstore\n      0x20\n      add\n      0x00\n      keccak256\n        /* \"DripWarrior/poolContract.sol\":3817:3840  tPPercentages[3] = 7700 */\n      dup2\n      swap1\n      sstore\n      pop\n        /* \"DripWarrior/poolContract.sol\":3890:3894  5000 */\n      0x1388\n        /* \"DripWarrior/poolContract.sol\":3862:3887  tdividentPayoutPercentage */\n      0x04\n        /* \"DripWarrior/poolContract.sol\":3862:3894  tdividentPayoutPercentage = 5000 */\n      dup2\n      swap1\n      sstore\n      pop\n        /* \"DripWarrior/poolContract.sol\":3944:3948  7500 */\n      0x1d4c\n        /* \"DripWarrior/poolContract.sol\":3916:3941  odividentPayoutPercentage */\n      0x05\n        /* \"DripWarrior/poolContract.sol\":3916:3948  odividentPayoutPercentage = 7500 */\n      dup2\n      swap1\n      sstore\n      pop\n        /* \"DripWarrior/poolContract.sol\":4010:4014  1500 */\n      0x05dc\n        /* \"DripWarrior/poolContract.sol\":3983:4007  flowToTreasuryPercentage */\n      0x06\n        /* \"DripWarrior/poolContract.sol\":3983:4014  flowToTreasuryPercentage = 1500 */\n      dup2\n      swap1\n      sstore\n      pop\n        /* \"DripWarrior/poolContract.sol\":4061:4065  1000 */\n      0x03e8\n        /* \"DripWarrior/poolContract.sol\":4035:4058  maintainceFeePercentage */\n      0x07\n        /* \"DripWarrior/poolContract.sol\":4035:4065  maintainceFeePercentage = 1000 */\n      dup2\n      swap1\n      sstore\n      pop\n        /* \"DripWarrior/poolContract.sol\":4105:4106  4 */\n      0x04\n        /* \"DripWarrior/poolContract.sol\":4089:4102  totalProjects */\n      0x0d\n        /* \"DripWarrior/poolContract.sol\":4089:4106  totalProjects = 4 */\n      dup2\n      swap1\n      sstore\n      pop\n        /* \"DripWarrior/poolContract.sol\":4138:4154  _multisigAddress */\n      dup6\n        /* \"DripWarrior/poolContract.sol\":4120:4135  multisigAddress */\n      0x09\n      0x00\n        /* \"DripWarrior/poolContract.sol\":4120:4154  multisigAddress = _multisigAddress */\n      0x0100\n      exp\n      dup2\n      sload\n      dup2\n      0xffffffffffffffffffffffffffffffffffffffff\n      mul\n      not\n      and\n      swap1\n      dup4\n      0xffffffffffffffffffffffffffffffffffffffff\n      and\n      mul\n      or\n      swap1\n      sstore\n      pop\n        /* \"@openzeppelin/contracts-upgradeable/proxy/utils/Initializable.sol\":5070:5084  isTopLevelCall */\n      dup4\n        /* \"@openzeppelin/contracts-upgradeable/proxy/utils/Initializable.sol\":5066:5167  if (isTopLevelCall) {... */\n      iszero\n      tag_422\n      jumpi\n        /* \"@openzeppelin/contracts-upgradeable/proxy/utils/Initializable.sol\":5118:5123  false */\n      0x00\n        /* \"@openzeppelin/contracts-upgradeable/proxy/utils/Initializable.sol\":5100:5101  $ */\n      dup6\n        /* \"@openzeppelin/contracts-upgradeable/proxy/utils/Initializable.sol\":5100:5115  $._initializing */\n      0x00\n      add\n      0x08\n        /* \"@openzeppelin/contracts-upgradeable/proxy/utils/Initializable.sol\":5100:5123  $._initializing = false */\n      0x0100\n      exp\n      dup2\n      sload\n      dup2\n      0xff\n      mul\n      not\n      and\n      swap1\n      dup4\n      iszero\n      iszero\n      mul\n      or\n      swap1\n      sstore\n      pop\n        /* \"@openzeppelin/contracts-upgradeable/proxy/utils/Initializable.sol\":5142:5156  Initialized(1) */\n      0xc7f505b2f371ae2175ee4913f4499e1f2633a7b5936321eed1cdaeb6115181d2\n        /* \"@openzeppelin/contracts-upgradeable/proxy/utils/Initializable.sol\":5154:5155  1 */\n      0x01\n        /* \"@openzeppelin/contracts-upgradeable/proxy/utils/Initializable.sol\":5142:5156  Initialized(1) */\n      mload(0x40)\n      tag_423\n      swap2\n      swap1\n      tag_424\n      jump\t// in\n    tag_423:\n      mload(0x40)\n      dup1\n      swap2\n      sub\n      swap1\n      log1\n        /* \"@openzeppelin/contracts-upgradeable/proxy/utils/Initializable.sol\":5066:5167  if (isTopLevelCall) {... */\n    tag_422:\n        /* \"@openzeppelin/contracts-upgradeable/proxy/utils/Initializable.sol\":4092:5173  {... */\n      pop\n      pop\n      pop\n      pop\n      pop\n        /* \"DripWarrior/poolContract.sol\":3435:4161  function initialize(address initialOwner,address _usdcAddress,... */\n      pop\n      pop\n      pop\n      jump\t// out\n        /* \"DripWarrior/poolContract.sol\":1876:1920  mapping(address => bool) public alreadyAdded */\n    tag_213:\n      mstore(0x20, 0x0e)\n      dup1\n      0x00\n      mstore\n      keccak256(0x00, 0x40)\n      0x00\n      swap2\n      pop\n      sload\n      swap1\n      0x0100\n      exp\n      swap1\n      div\n      0xff\n      and\n      dup2\n      jump\t// out\n        /* \"DripWarrior/poolContract.sol\":1253:1292  uint256 public flowToTreasuryPercentage */\n    tag_218:\n      sload(0x06)\n      dup2\n      jump\t// out\n        /* \"DripWarrior/poolContract.sol\":11320:11638  function setForwarderAddress(address forwarderAddress) external onlyOwner {... */\n    tag_223:\n        /* \"@openzeppelin/contracts-upgradeable/access/OwnableUpgradeable.sol\":2334:2347  _checkOwner() */\n      tag_426\n        /* \"@openzeppelin/contracts-upgradeable/access/OwnableUpgradeable.sol\":2334:2345  _checkOwner */\n      tag_247\n        /* \"@openzeppelin/contracts-upgradeable/access/OwnableUpgradeable.sol\":2334:2347  _checkOwner() */\n      jump\t// in\n    tag_426:\n        /* \"DripWarrior/poolContract.sol\":11444:11445  0 */\n      0x00\n        /* \"DripWarrior/poolContract.sol\":11416:11446  forwarderAddress == address(0) */\n      0xffffffffffffffffffffffffffffffffffffffff\n      and\n        /* \"DripWarrior/poolContract.sol\":11416:11432  forwarderAddress */\n      dup2\n        /* \"DripWarrior/poolContract.sol\":11416:11446  forwarderAddress == address(0) */\n      0xffffffffffffffffffffffffffffffffffffffff\n      and\n      sub\n        /* \"DripWarrior/poolContract.sol\":11413:11509  if(forwarderAddress == address(0)){... */\n      tag_428\n      jumpi\n        /* \"DripWarrior/poolContract.sol\":11481:11497  forwarderAddress */\n      dup1\n        /* \"DripWarrior/poolContract.sol\":11468:11498  wrongAddress(forwarderAddress) */\n      mload(0x40)\n      0xe4cfa94d00000000000000000000000000000000000000000000000000000000\n      dup2\n      mstore\n      0x04\n      add\n      tag_429\n      swap2\n      swap1\n      tag_80\n      jump\t// in\n    tag_429:\n      mload(0x40)\n      dup1\n      swap2\n      sub\n      swap1\n      revert\n        /* \"DripWarrior/poolContract.sol\":11413:11509  if(forwarderAddress == address(0)){... */\n    tag_428:\n        /* \"DripWarrior/poolContract.sol\":11548:11564  forwarderAddress */\n      dup1\n        /* \"DripWarrior/poolContract.sol\":11527:11545  s_forwarderAddress */\n      0x0c\n      0x00\n        /* \"DripWarrior/poolContract.sol\":11527:11564  s_forwarderAddress = forwarderAddress */\n      0x0100\n      exp\n      dup2\n      sload\n      dup2\n      0xffffffffffffffffffffffffffffffffffffffff\n      mul\n      not\n      and\n      swap1\n      dup4\n      0xffffffffffffffffffffffffffffffffffffffff\n      and\n      mul\n      or\n      swap1\n      sstore\n      pop\n        /* \"DripWarrior/poolContract.sol\":11580:11631  SetForwarderAddress(msg.sender, s_forwarderAddress) */\n      0x75f91f3cecb8c46f20150f60f77a6e1f0de00776627692db82ef1960af84c33a\n        /* \"DripWarrior/poolContract.sol\":11600:11610  msg.sender */\n      caller\n        /* \"DripWarrior/poolContract.sol\":11612:11630  s_forwarderAddress */\n      0x0c\n      0x00\n      swap1\n      sload\n      swap1\n      0x0100\n      exp\n      swap1\n      div\n      0xffffffffffffffffffffffffffffffffffffffff\n      and\n        /* \"DripWarrior/poolContract.sol\":11580:11631  SetForwarderAddress(msg.sender, s_forwarderAddress) */\n      mload(0x40)\n      tag_430\n      swap3\n      swap2\n      swap1\n      tag_431\n      jump\t// in\n    tag_430:\n      mload(0x40)\n      dup1\n      swap2\n      sub\n      swap1\n      log1\n        /* \"DripWarrior/poolContract.sol\":11320:11638  function setForwarderAddress(address forwarderAddress) external onlyOwner {... */\n      pop\n      jump\t// out\n        /* \"DripWarrior/poolContract.sol\":12626:13180  function blockUser(address _userAddress, bool value) external onlyOwner {... */\n    tag_228:\n        /* \"@openzeppelin/contracts-upgradeable/access/OwnableUpgradeable.sol\":2334:2347  _checkOwner() */\n      tag_433\n        /* \"@openzeppelin/contracts-upgradeable/access/OwnableUpgradeable.sol\":2334:2345  _checkOwner */\n      tag_247\n        /* \"@openzeppelin/contracts-upgradeable/access/OwnableUpgradeable.sol\":2334:2347  _checkOwner() */\n      jump\t// in\n    tag_433:\n        /* \"DripWarrior/poolContract.sol\":12744:12745  0 */\n      0x00\n        /* \"DripWarrior/poolContract.sol\":12720:12746  _userAddress == address(0) */\n      0xffffffffffffffffffffffffffffffffffffffff\n      and\n        /* \"DripWarrior/poolContract.sol\":12720:12732  _userAddress */\n      dup3\n        /* \"DripWarrior/poolContract.sol\":12720:12746  _userAddress == address(0) */\n      0xffffffffffffffffffffffffffffffffffffffff\n      and\n      sub\n        /* \"DripWarrior/poolContract.sol\":12717:12805  if(_userAddress == address(0)){... */\n      tag_435\n      jumpi\n        /* \"DripWarrior/poolContract.sol\":12781:12793  _userAddress */\n      dup2\n        /* \"DripWarrior/poolContract.sol\":12768:12794  wrongAddress(_userAddress) */\n      mload(0x40)\n      0xe4cfa94d00000000000000000000000000000000000000000000000000000000\n      dup2\n      mstore\n      0x04\n      add\n      tag_436\n      swap2\n      swap1\n      tag_80\n      jump\t// in\n    tag_436:\n      mload(0x40)\n      dup1\n      swap2\n      sub\n      swap1\n      revert\n        /* \"DripWarrior/poolContract.sol\":12717:12805  if(_userAddress == address(0)){... */\n    tag_435:\n        /* \"DripWarrior/poolContract.sol\":12827:12831  true */\n      0x01\n        /* \"DripWarrior/poolContract.sol\":12818:12831  value != true */\n      iszero\n      iszero\n        /* \"DripWarrior/poolContract.sol\":12818:12823  value */\n      dup2\n        /* \"DripWarrior/poolContract.sol\":12818:12831  value != true */\n      iszero\n      iszero\n      eq\n      iszero\n        /* \"DripWarrior/poolContract.sol\":12818:12849  value != true && value != false */\n      dup1\n      iszero\n      tag_437\n      jumpi\n      pop\n        /* \"DripWarrior/poolContract.sol\":12844:12849  false */\n      0x00\n        /* \"DripWarrior/poolContract.sol\":12835:12849  value != false */\n      iszero\n      iszero\n        /* \"DripWarrior/poolContract.sol\":12835:12840  value */\n      dup2\n        /* \"DripWarrior/poolContract.sol\":12835:12849  value != false */\n      iszero\n      iszero\n      eq\n      iszero\n        /* \"DripWarrior/poolContract.sol\":12818:12849  value != true && value != false */\n    tag_437:\n        /* \"DripWarrior/poolContract.sol\":12815:12899  if(value != true && value != false){... */\n      iszero\n      tag_438\n      jumpi\n        /* \"DripWarrior/poolContract.sol\":12882:12887  value */\n      dup1\n        /* \"DripWarrior/poolContract.sol\":12871:12888  wrongValue(value) */\n      mload(0x40)\n      0x81ed1ae300000000000000000000000000000000000000000000000000000000\n      dup2\n      mstore\n      0x04\n      add\n      tag_439\n      swap2\n      swap1\n      tag_215\n      jump\t// in\n    tag_439:\n      mload(0x40)\n      dup1\n      swap2\n      sub\n      swap1\n      revert\n        /* \"DripWarrior/poolContract.sol\":12815:12899  if(value != true && value != false){... */\n    tag_438:\n        /* \"DripWarrior/poolContract.sol\":12921:12925  true */\n      0x01\n        /* \"DripWarrior/poolContract.sol\":12912:12925  value == true */\n      iszero\n      iszero\n        /* \"DripWarrior/poolContract.sol\":12912:12917  value */\n      dup2\n        /* \"DripWarrior/poolContract.sol\":12912:12925  value == true */\n      iszero\n      iszero\n      sub\n        /* \"DripWarrior/poolContract.sol\":12909:13076  if(value == true){... */\n      tag_440\n      jumpi\n        /* \"DripWarrior/poolContract.sol\":12980:12984  true */\n      0x01\n        /* \"DripWarrior/poolContract.sol\":12941:12955  userRegistered */\n      0x11\n        /* \"DripWarrior/poolContract.sol\":12941:12969  userRegistered[_userAddress] */\n      0x00\n        /* \"DripWarrior/poolContract.sol\":12956:12968  _userAddress */\n      dup5\n        /* \"DripWarrior/poolContract.sol\":12941:12969  userRegistered[_userAddress] */\n      0xffffffffffffffffffffffffffffffffffffffff\n      and\n      0xffffffffffffffffffffffffffffffffffffffff\n      and\n      dup2\n      mstore\n      0x20\n      add\n      swap1\n      dup2\n      mstore\n      0x20\n      add\n      0x00\n      keccak256\n        /* \"DripWarrior/poolContract.sol\":12941:12977  userRegistered[_userAddress].blocked */\n      0x00\n      add\n      0x00\n        /* \"DripWarrior/poolContract.sol\":12941:12984  userRegistered[_userAddress].blocked = true */\n      0x0100\n      exp\n      dup2\n      sload\n      dup2\n      0xff\n      mul\n      not\n      and\n      swap1\n      dup4\n      iszero\n      iszero\n      mul\n      or\n      swap1\n      sstore\n      pop\n        /* \"DripWarrior/poolContract.sol\":12909:13076  if(value == true){... */\n      jump(tag_441)\n    tag_440:\n        /* \"DripWarrior/poolContract.sol\":13060:13065  false */\n      0x00\n        /* \"DripWarrior/poolContract.sol\":13021:13035  userRegistered */\n      0x11\n        /* \"DripWarrior/poolContract.sol\":13021:13049  userRegistered[_userAddress] */\n      0x00\n        /* \"DripWarrior/poolContract.sol\":13036:13048  _userAddress */\n      dup5\n        /* \"DripWarrior/poolContract.sol\":13021:13049  userRegistered[_userAddress] */\n      0xffffffffffffffffffffffffffffffffffffffff\n      and\n      0xffffffffffffffffffffffffffffffffffffffff\n      and\n      dup2\n      mstore\n      0x20\n      add\n      swap1\n      dup2\n      mstore\n      0x20\n      add\n      0x00\n      keccak256\n        /* \"DripWarrior/poolContract.sol\":13021:13057  userRegistered[_userAddress].blocked */\n      0x00\n      add\n      0x00\n        /* \"DripWarrior/poolContract.sol\":13021:13065  userRegistered[_userAddress].blocked = false */\n      0x0100\n      exp\n      dup2\n      sload\n      dup2\n      0xff\n      mul\n      not\n      and\n      swap1\n      dup4\n      iszero\n      iszero\n      mul\n      or\n      swap1\n      sstore\n      pop\n        /* \"DripWarrior/poolContract.sol\":12909:13076  if(value == true){... */\n    tag_441:\n        /* \"DripWarrior/poolContract.sol\":13099:13173  UserBlocked(msg.sender,_userAddress, userRegistered[_userAddress].blocked) */\n      0x7a1655bc3160d3413bf1d5235e55be12e01b7e8bc2436a9bff09c3b4fa2421f1\n        /* \"DripWarrior/poolContract.sol\":13111:13121  msg.sender */\n      caller\n        /* \"DripWarrior/poolContract.sol\":13122:13134  _userAddress */\n      dup4\n        /* \"DripWarrior/poolContract.sol\":13136:13150  userRegistered */\n      0x11\n        /* \"DripWarrior/poolContract.sol\":13136:13164  userRegistered[_userAddress] */\n      0x00\n        /* \"DripWarrior/poolContract.sol\":13151:13163  _userAddress */\n      dup7\n        /* \"DripWarrior/poolContract.sol\":13136:13164  userRegistered[_userAddress] */\n      0xffffffffffffffffffffffffffffffffffffffff\n      and\n      0xffffffffffffffffffffffffffffffffffffffff\n      and\n      dup2\n      mstore\n      0x20\n      add\n      swap1\n      dup2\n      mstore\n      0x20\n      add\n      0x00\n      keccak256\n        /* \"DripWarrior/poolContract.sol\":13136:13172  userRegistered[_userAddress].blocked */\n      0x00\n      add\n      0x00\n      swap1\n      sload\n      swap1\n      0x0100\n      exp\n      swap1\n      div\n      0xff\n      and\n        /* \"DripWarrior/poolContract.sol\":13099:13173  UserBlocked(msg.sender,_userAddress, userRegistered[_userAddress].blocked) */\n      mload(0x40)\n      tag_442\n      swap4\n      swap3\n      swap2\n      swap1\n      tag_443\n      jump\t// in\n    tag_442:\n      mload(0x40)\n      dup1\n      swap2\n      sub\n      swap1\n      log1\n        /* \"DripWarrior/poolContract.sol\":12626:13180  function blockUser(address _userAddress, bool value) external onlyOwner {... */\n      pop\n      pop\n      jump\t// out\n        /* \"DripWarrior/poolContract.sol\":7734:9146  function weeklyTransfer() public bothOwner {... */\n    tag_231:\n        /* \"DripWarrior/poolContract.sol\":14927:14934  owner() */\n      tag_445\n        /* \"DripWarrior/poolContract.sol\":14927:14932  owner */\n      tag_166\n        /* \"DripWarrior/poolContract.sol\":14927:14934  owner() */\n      jump\t// in\n    tag_445:\n        /* \"DripWarrior/poolContract.sol\":14913:14934  msg.sender != owner() */\n      0xffffffffffffffffffffffffffffffffffffffff\n      and\n        /* \"DripWarrior/poolContract.sol\":14913:14923  msg.sender */\n      caller\n        /* \"DripWarrior/poolContract.sol\":14913:14934  msg.sender != owner() */\n      0xffffffffffffffffffffffffffffffffffffffff\n      and\n      eq\n      iszero\n        /* \"DripWarrior/poolContract.sol\":14913:14970  msg.sender != owner() && msg.sender != s_forwarderAddress */\n      dup1\n      iszero\n      tag_446\n      jumpi\n      pop\n        /* \"DripWarrior/poolContract.sol\":14952:14970  s_forwarderAddress */\n      0x0c\n      0x00\n      swap1\n      sload\n      swap1\n      0x0100\n      exp\n      swap1\n      div\n      0xffffffffffffffffffffffffffffffffffffffff\n      and\n        /* \"DripWarrior/poolContract.sol\":14938:14970  msg.sender != s_forwarderAddress */\n      0xffffffffffffffffffffffffffffffffffffffff\n      and\n        /* \"DripWarrior/poolContract.sol\":14938:14948  msg.sender */\n      caller\n        /* \"DripWarrior/poolContract.sol\":14938:14970  msg.sender != s_forwarderAddress */\n      0xffffffffffffffffffffffffffffffffffffffff\n      and\n      eq\n      iszero\n        /* \"DripWarrior/poolContract.sol\":14913:14970  msg.sender != owner() && msg.sender != s_forwarderAddress */\n    tag_446:\n        /* \"DripWarrior/poolContract.sol\":14910:15025  if(msg.sender != owner() && msg.sender != s_forwarderAddress){... */\n      iszero\n      tag_447\n      jumpi\n        /* \"DripWarrior/poolContract.sol\":15003:15013  msg.sender */\n      caller\n        /* \"DripWarrior/poolContract.sol\":14992:15014  wrongOwner(msg.sender) */\n      mload(0x40)\n      0xf6b79c5800000000000000000000000000000000000000000000000000000000\n      dup2\n      mstore\n      0x04\n      add\n      tag_448\n      swap2\n      swap1\n      tag_80\n      jump\t// in\n    tag_448:\n      mload(0x40)\n      dup1\n      swap2\n      sub\n      swap1\n      revert\n        /* \"DripWarrior/poolContract.sol\":14910:15025  if(msg.sender != owner() && msg.sender != s_forwarderAddress){... */\n    tag_447:\n        /* \"DripWarrior/poolContract.sol\":7798:7822  uint256 remainFiftyOPool */\n      0x00\n        /* \"DripWarrior/poolContract.sol\":7823:7856  uint256 dividentPayoutOPoolAmount */\n      0x00\n        /* \"DripWarrior/poolContract.sol\":7858:7884  uint256 perPersonFromTPool */\n      0x00\n        /* \"DripWarrior/poolContract.sol\":7889:7909  perPoolCalculation() */\n      tag_450\n        /* \"DripWarrior/poolContract.sol\":7889:7907  perPoolCalculation */\n      tag_451\n        /* \"DripWarrior/poolContract.sol\":7889:7909  perPoolCalculation() */\n      jump\t// in\n    tag_450:\n        /* \"DripWarrior/poolContract.sol\":7796:7909  ( uint256 remainFiftyOPool,uint256 dividentPayoutOPoolAmount, uint256 perPersonFromTPool)  = perPoolCalculation() */\n      swap3\n      pop\n      swap3\n      pop\n      swap3\n      pop\n        /* \"DripWarrior/poolContract.sol\":7958:7959  0 */\n      0x00\n        /* \"DripWarrior/poolContract.sol\":7936:7955  ownerShipPoolAmount */\n      sload(0x02)\n        /* \"DripWarrior/poolContract.sol\":7936:7959  ownerShipPoolAmount > 0 */\n      gt\n        /* \"DripWarrior/poolContract.sol\":7936:7985  ownerShipPoolAmount > 0 && treasuryPoolAmount > 0 */\n      dup1\n      iszero\n      tag_452\n      jumpi\n      pop\n        /* \"DripWarrior/poolContract.sol\":7984:7985  0 */\n      0x00\n        /* \"DripWarrior/poolContract.sol\":7963:7981  treasuryPoolAmount */\n      sload(0x01)\n        /* \"DripWarrior/poolContract.sol\":7963:7985  treasuryPoolAmount > 0 */\n      gt\n        /* \"DripWarrior/poolContract.sol\":7936:7985  ownerShipPoolAmount > 0 && treasuryPoolAmount > 0 */\n    tag_452:\n        /* \"DripWarrior/poolContract.sol\":7928:8007  require(ownerShipPoolAmount > 0 && treasuryPoolAmount > 0, \"not enough amount\") */\n      tag_453\n      jumpi\n      mload(0x40)\n      0x08c379a000000000000000000000000000000000000000000000000000000000\n      dup2\n      mstore\n      0x04\n      add\n      tag_454\n      swap1\n      tag_455\n      jump\t// in\n    tag_454:\n      mload(0x40)\n      dup1\n      swap2\n      sub\n      swap1\n      revert\n    tag_453:\n        /* \"DripWarrior/poolContract.sol\":8017:8033  uint256 maxlimit */\n      0x00\n        /* \"DripWarrior/poolContract.sol\":8048:8057  uint256 i */\n      0x00\n        /* \"DripWarrior/poolContract.sol\":8060:8061  0 */\n      0x00\n        /* \"DripWarrior/poolContract.sol\":8048:8061  uint256 i = 0 */\n      swap1\n      pop\n        /* \"DripWarrior/poolContract.sol\":8044:9054  for(uint256 i = 0; i < noOfUsers; i++){... */\n    tag_456:\n        /* \"DripWarrior/poolContract.sol\":8067:8076  noOfUsers */\n      sload(0x08)\n        /* \"DripWarrior/poolContract.sol\":8063:8064  i */\n      dup2\n        /* \"DripWarrior/poolContract.sol\":8063:8076  i < noOfUsers */\n      lt\n        /* \"DripWarrior/poolContract.sol\":8044:9054  for(uint256 i = 0; i < noOfUsers; i++){... */\n      iszero\n      tag_457\n      jumpi\n        /* \"DripWarrior/poolContract.sol\":8101:8115  userRegistered */\n      0x11\n        /* \"DripWarrior/poolContract.sol\":8101:8130  userRegistered[totalUsers[i]] */\n      0x00\n        /* \"DripWarrior/poolContract.sol\":8116:8126  totalUsers */\n      0x0f\n        /* \"DripWarrior/poolContract.sol\":8116:8129  totalUsers[i] */\n      0x00\n        /* \"DripWarrior/poolContract.sol\":8127:8128  i */\n      dup5\n        /* \"DripWarrior/poolContract.sol\":8116:8129  totalUsers[i] */\n      dup2\n      mstore\n      0x20\n      add\n      swap1\n      dup2\n      mstore\n      0x20\n      add\n      0x00\n      keccak256\n      0x00\n      swap1\n      sload\n      swap1\n      0x0100\n      exp\n      swap1\n      div\n      0xffffffffffffffffffffffffffffffffffffffff\n      and\n        /* \"DripWarrior/poolContract.sol\":8101:8130  userRegistered[totalUsers[i]] */\n      0xffffffffffffffffffffffffffffffffffffffff\n      and\n      0xffffffffffffffffffffffffffffffffffffffff\n      and\n      dup2\n      mstore\n      0x20\n      add\n      swap1\n      dup2\n      mstore\n      0x20\n      add\n      0x00\n      keccak256\n        /* \"DripWarrior/poolContract.sol\":8101:8138  userRegistered[totalUsers[i]].blocked */\n      0x00\n      add\n      0x00\n      swap1\n      sload\n      swap1\n      0x0100\n      exp\n      swap1\n      div\n      0xff\n      and\n        /* \"DripWarrior/poolContract.sol\":8097:9031  if(!userRegistered[totalUsers[i]].blocked){... */\n      tag_459\n      jumpi\n        /* \"DripWarrior/poolContract.sol\":8158:8185  uint256 eachSharePercentage */\n      0x00\n        /* \"DripWarrior/poolContract.sol\":8251:8268  totalStakedAmount */\n      sload(0x03)\n        /* \"DripWarrior/poolContract.sol\":8240:8245  10000 */\n      0x2710\n        /* \"DripWarrior/poolContract.sol\":8189:8203  userRegistered */\n      0x11\n        /* \"DripWarrior/poolContract.sol\":8189:8218  userRegistered[totalUsers[i]] */\n      0x00\n        /* \"DripWarrior/poolContract.sol\":8204:8214  totalUsers */\n      0x0f\n        /* \"DripWarrior/poolContract.sol\":8204:8217  totalUsers[i] */\n      0x00\n        /* \"DripWarrior/poolContract.sol\":8215:8216  i */\n      dup8\n        /* \"DripWarrior/poolContract.sol\":8204:8217  totalUsers[i] */\n      dup2\n      mstore\n      0x20\n      add\n      swap1\n      dup2\n      mstore\n      0x20\n      add\n      0x00\n      keccak256\n      0x00\n      swap1\n      sload\n      swap1\n      0x0100\n      exp\n      swap1\n      div\n      0xffffffffffffffffffffffffffffffffffffffff\n      and\n        /* \"DripWarrior/poolContract.sol\":8189:8218  userRegistered[totalUsers[i]] */\n      0xffffffffffffffffffffffffffffffffffffffff\n      and\n      0xffffffffffffffffffffffffffffffffffffffff\n      and\n      dup2\n      mstore\n      0x20\n      add\n      swap1\n      dup2\n      mstore\n      0x20\n      add\n      0x00\n      keccak256\n        /* \"DripWarrior/poolContract.sol\":8189:8236  userRegistered[totalUsers[i]].totalStakedAmount */\n      0x05\n      add\n      sload\n        /* \"DripWarrior/poolContract.sol\":8189:8246  userRegistered[totalUsers[i]].totalStakedAmount * (10000) */\n      tag_460\n      swap2\n      swap1\n      tag_461\n      jump\t// in\n    tag_460:\n        /* \"DripWarrior/poolContract.sol\":8188:8269  (userRegistered[totalUsers[i]].totalStakedAmount * (10000)) / (totalStakedAmount) */\n      tag_462\n      swap2\n      swap1\n      tag_463\n      jump\t// in\n    tag_462:\n        /* \"DripWarrior/poolContract.sol\":8158:8269  uint256 eachSharePercentage = (userRegistered[totalUsers[i]].totalStakedAmount * (10000)) / (totalStakedAmount) */\n      swap1\n      pop\n        /* \"DripWarrior/poolContract.sol\":8304:8326  uint256 eachSendAmount */\n      0x00\n        /* \"DripWarrior/poolContract.sol\":8329:8396  calculatePercentage(dividentPayoutOPoolAmount, eachSharePercentage) */\n      tag_464\n        /* \"DripWarrior/poolContract.sol\":8349:8374  dividentPayoutOPoolAmount */\n      dup7\n        /* \"DripWarrior/poolContract.sol\":8376:8395  eachSharePercentage */\n      dup4\n        /* \"DripWarrior/poolContract.sol\":8329:8348  calculatePercentage */\n      tag_465\n        /* \"DripWarrior/poolContract.sol\":8329:8396  calculatePercentage(dividentPayoutOPoolAmount, eachSharePercentage) */\n      jump\t// in\n    tag_464:\n        /* \"DripWarrior/poolContract.sol\":8304:8396  uint256 eachSendAmount = calculatePercentage(dividentPayoutOPoolAmount, eachSharePercentage) */\n      swap1\n      pop\n        /* \"DripWarrior/poolContract.sol\":8437:8451  eachSendAmount */\n      dup1\n        /* \"DripWarrior/poolContract.sol\":8414:8433  ownerShipPoolAmount */\n      0x02\n      0x00\n        /* \"DripWarrior/poolContract.sol\":8414:8451  ownerShipPoolAmount -= eachSendAmount */\n      dup3\n      dup3\n      sload\n      tag_466\n      swap2\n      swap1\n      tag_263\n      jump\t// in\n    tag_466:\n      swap3\n      pop\n      pop\n      dup2\n      swap1\n      sstore\n      pop\n        /* \"DripWarrior/poolContract.sol\":8506:8520  eachSendAmount */\n      dup1\n        /* \"DripWarrior/poolContract.sol\":8494:8520  maxlimit += eachSendAmount */\n      dup5\n      tag_467\n      swap2\n      swap1\n      tag_285\n      jump\t// in\n    tag_467:\n      swap4\n      pop\n        /* \"DripWarrior/poolContract.sol\":8560:8578  perPersonFromTPool */\n      dup5\n        /* \"DripWarrior/poolContract.sol\":8538:8556  treasuryPoolAmount */\n      0x01\n      0x00\n        /* \"DripWarrior/poolContract.sol\":8538:8578  treasuryPoolAmount -= perPersonFromTPool */\n      dup3\n      dup3\n      sload\n      tag_468\n      swap2\n      swap1\n      tag_263\n      jump\t// in\n    tag_468:\n      swap3\n      pop\n      pop\n      dup2\n      swap1\n      sstore\n      pop\n        /* \"DripWarrior/poolContract.sol\":8649:8667  perPersonFromTPool */\n      dup5\n        /* \"DripWarrior/poolContract.sol\":8597:8611  userRegistered */\n      0x11\n        /* \"DripWarrior/poolContract.sol\":8597:8626  userRegistered[totalUsers[i]] */\n      0x00\n        /* \"DripWarrior/poolContract.sol\":8612:8622  totalUsers */\n      0x0f\n        /* \"DripWarrior/poolContract.sol\":8612:8625  totalUsers[i] */\n      0x00\n        /* \"DripWarrior/poolContract.sol\":8623:8624  i */\n      dup8\n        /* \"DripWarrior/poolContract.sol\":8612:8625  totalUsers[i] */\n      dup2\n      mstore\n      0x20\n      add\n      swap1\n      dup2\n      mstore\n      0x20\n      add\n      0x00\n      keccak256\n      0x00\n      swap1\n      sload\n      swap1\n      0x0100\n      exp\n      swap1\n      div\n      0xffffffffffffffffffffffffffffffffffffffff\n      and\n        /* \"DripWarrior/poolContract.sol\":8597:8626  userRegistered[totalUsers[i]] */\n      0xffffffffffffffffffffffffffffffffffffffff\n      and\n      0xffffffffffffffffffffffffffffffffffffffff\n      and\n      dup2\n      mstore\n      0x20\n      add\n      swap1\n      dup2\n      mstore\n      0x20\n      add\n      0x00\n      keccak256\n        /* \"DripWarrior/poolContract.sol\":8597:8646  userRegistered[totalUsers[i]].receiveFromTreasury */\n      0x03\n      add\n        /* \"DripWarrior/poolContract.sol\":8597:8667  userRegistered[totalUsers[i]].receiveFromTreasury = perPersonFromTPool */\n      dup2\n      swap1\n      sstore\n      pop\n        /* \"DripWarrior/poolContract.sol\":8739:8753  eachSendAmount */\n      dup1\n        /* \"DripWarrior/poolContract.sol\":8685:8699  userRegistered */\n      0x11\n        /* \"DripWarrior/poolContract.sol\":8685:8714  userRegistered[totalUsers[i]] */\n      0x00\n        /* \"DripWarrior/poolContract.sol\":8700:8710  totalUsers */\n      0x0f\n        /* \"DripWarrior/poolContract.sol\":8700:8713  totalUsers[i] */\n      0x00\n        /* \"DripWarrior/poolContract.sol\":8711:8712  i */\n      dup8\n        /* \"DripWarrior/poolContract.sol\":8700:8713  totalUsers[i] */\n      dup2\n      mstore\n      0x20\n      add\n      swap1\n      dup2\n      mstore\n      0x20\n      add\n      0x00\n      keccak256\n      0x00\n      swap1\n      sload\n      swap1\n      0x0100\n      exp\n      swap1\n      div\n      0xffffffffffffffffffffffffffffffffffffffff\n      and\n        /* \"DripWarrior/poolContract.sol\":8685:8714  userRegistered[totalUsers[i]] */\n      0xffffffffffffffffffffffffffffffffffffffff\n      and\n      0xffffffffffffffffffffffffffffffffffffffff\n      and\n      dup2\n      mstore\n      0x20\n      add\n      swap1\n      dup2\n      mstore\n      0x20\n      add\n      0x00\n      keccak256\n        /* \"DripWarrior/poolContract.sol\":8685:8736  userRegistered[totalUsers[i]].receiveFromOwneerShip */\n      0x04\n      add\n        /* \"DripWarrior/poolContract.sol\":8685:8753  userRegistered[totalUsers[i]].receiveFromOwneerShip = eachSendAmount */\n      dup2\n      swap1\n      sstore\n      pop\n        /* \"DripWarrior/poolContract.sol\":8788:8811  uint256 totalSendAmount */\n      0x00\n        /* \"DripWarrior/poolContract.sol\":8831:8849  perPersonFromTPool */\n      dup6\n        /* \"DripWarrior/poolContract.sol\":8814:8828  eachSendAmount */\n      dup3\n        /* \"DripWarrior/poolContract.sol\":8814:8849  eachSendAmount + perPersonFromTPool */\n      tag_469\n      swap2\n      swap1\n      tag_285\n      jump\t// in\n    tag_469:\n        /* \"DripWarrior/poolContract.sol\":8788:8849  uint256 totalSendAmount = eachSendAmount + perPersonFromTPool */\n      swap1\n      pop\n        /* \"DripWarrior/poolContract.sol\":8915:8930  totalSendAmount */\n      dup1\n        /* \"DripWarrior/poolContract.sol\":8867:8881  userRegistered */\n      0x11\n        /* \"DripWarrior/poolContract.sol\":8867:8896  userRegistered[totalUsers[i]] */\n      0x00\n        /* \"DripWarrior/poolContract.sol\":8882:8892  totalUsers */\n      0x0f\n        /* \"DripWarrior/poolContract.sol\":8882:8895  totalUsers[i] */\n      0x00\n        /* \"DripWarrior/poolContract.sol\":8893:8894  i */\n      dup9\n        /* \"DripWarrior/poolContract.sol\":8882:8895  totalUsers[i] */\n      dup2\n      mstore\n      0x20\n      add\n      swap1\n      dup2\n      mstore\n      0x20\n      add\n      0x00\n      keccak256\n      0x00\n      swap1\n      sload\n      swap1\n      0x0100\n      exp\n      swap1\n      div\n      0xffffffffffffffffffffffffffffffffffffffff\n      and\n        /* \"DripWarrior/poolContract.sol\":8867:8896  userRegistered[totalUsers[i]] */\n      0xffffffffffffffffffffffffffffffffffffffff\n      and\n      0xffffffffffffffffffffffffffffffffffffffff\n      and\n      dup2\n      mstore\n      0x20\n      add\n      swap1\n      dup2\n      mstore\n      0x20\n      add\n      0x00\n      keccak256\n        /* \"DripWarrior/poolContract.sol\":8867:8911  userRegistered[totalUsers[i]].receivedAmount */\n      0x01\n      add\n      0x00\n        /* \"DripWarrior/poolContract.sol\":8867:8930  userRegistered[totalUsers[i]].receivedAmount += totalSendAmount */\n      dup3\n      dup3\n      sload\n      tag_470\n      swap2\n      swap1\n      tag_285\n      jump\t// in\n    tag_470:\n      swap3\n      pop\n      pop\n      dup2\n      swap1\n      sstore\n      pop\n        /* \"DripWarrior/poolContract.sol\":8969:8985  remainFiftyOPool */\n      dup8\n        /* \"DripWarrior/poolContract.sol\":8957:8965  maxlimit */\n      dup6\n        /* \"DripWarrior/poolContract.sol\":8957:8985  maxlimit <= remainFiftyOPool */\n      gt\n      iszero\n        /* \"DripWarrior/poolContract.sol\":8949:9016  require(maxlimit <= remainFiftyOPool, \"Amount is greater then 50%\") */\n      tag_471\n      jumpi\n      mload(0x40)\n      0x08c379a000000000000000000000000000000000000000000000000000000000\n      dup2\n      mstore\n      0x04\n      add\n      tag_472\n      swap1\n      tag_473\n      jump\t// in\n    tag_472:\n      mload(0x40)\n      dup1\n      swap2\n      sub\n      swap1\n      revert\n    tag_471:\n        /* \"DripWarrior/poolContract.sol\":8139:9031  {... */\n      pop\n      pop\n      pop\n        /* \"DripWarrior/poolContract.sol\":8097:9031  if(!userRegistered[totalUsers[i]].blocked){... */\n    tag_459:\n        /* \"DripWarrior/poolContract.sol\":8078:8081  i++ */\n      dup1\n      dup1\n      0x01\n      add\n      swap2\n      pop\n      pop\n        /* \"DripWarrior/poolContract.sol\":8044:9054  for(uint256 i = 0; i < noOfUsers; i++){... */\n      jump(tag_456)\n    tag_457:\n      pop\n        /* \"DripWarrior/poolContract.sol\":9069:9138  WeeklyTransfered(msg.sender, ownerShipPoolAmount, treasuryPoolAmount) */\n      0xee826440768329b0c72f81331212ee31fcdac1ea79a248d24821e40c34e58020\n        /* \"DripWarrior/poolContract.sol\":9086:9096  msg.sender */\n      caller\n        /* \"DripWarrior/poolContract.sol\":9098:9117  ownerShipPoolAmount */\n      sload(0x02)\n        /* \"DripWarrior/poolContract.sol\":9119:9137  treasuryPoolAmount */\n      sload(0x01)\n        /* \"DripWarrior/poolContract.sol\":9069:9138  WeeklyTransfered(msg.sender, ownerShipPoolAmount, treasuryPoolAmount) */\n      mload(0x40)\n      tag_474\n      swap4\n      swap3\n      swap2\n      swap1\n      tag_252\n      jump\t// in\n    tag_474:\n      mload(0x40)\n      dup1\n      swap2\n      sub\n      swap1\n      log1\n        /* \"DripWarrior/poolContract.sol\":7777:9146  {... */\n      pop\n      pop\n      pop\n      pop\n        /* \"DripWarrior/poolContract.sol\":7734:9146  function weeklyTransfer() public bothOwner {... */\n      jump\t// out\n        /* \"DripWarrior/poolContract.sol\":13192:13534  function setTeasueryPercentages(uint256 _projectId,uint256 _newPerccentage) external onlyOwner {... */\n    tag_235:\n        /* \"@openzeppelin/contracts-upgradeable/access/OwnableUpgradeable.sol\":2334:2347  _checkOwner() */\n      tag_476\n        /* \"@openzeppelin/contracts-upgradeable/access/OwnableUpgradeable.sol\":2334:2345  _checkOwner */\n      tag_247\n        /* \"@openzeppelin/contracts-upgradeable/access/OwnableUpgradeable.sol\":2334:2347  _checkOwner() */\n      jump\t// in\n    tag_476:\n        /* \"DripWarrior/poolContract.sol\":13328:13329  0 */\n      0x00\n        /* \"DripWarrior/poolContract.sol\":13309:13324  _newPerccentage */\n      dup2\n        /* \"DripWarrior/poolContract.sol\":13309:13329  _newPerccentage <= 0 */\n      gt\n        /* \"DripWarrior/poolContract.sol\":13306:13394  if(_newPerccentage <= 0){... */\n      tag_478\n      jumpi\n        /* \"DripWarrior/poolContract.sol\":13367:13382  _newPerccentage */\n      dup1\n        /* \"DripWarrior/poolContract.sol\":13351:13383  wrongPercentage(_newPerccentage) */\n      mload(0x40)\n      0xcdbc633500000000000000000000000000000000000000000000000000000000\n      dup2\n      mstore\n      0x04\n      add\n      tag_479\n      swap2\n      swap1\n      tag_57\n      jump\t// in\n    tag_479:\n      mload(0x40)\n      dup1\n      swap2\n      sub\n      swap1\n      revert\n        /* \"DripWarrior/poolContract.sol\":13306:13394  if(_newPerccentage <= 0){... */\n    tag_478:\n        /* \"DripWarrior/poolContract.sol\":13440:13455  _newPerccentage */\n      dup1\n        /* \"DripWarrior/poolContract.sol\":13412:13425  tPPercentages */\n      0x10\n        /* \"DripWarrior/poolContract.sol\":13412:13437  tPPercentages[_projectId] */\n      0x00\n        /* \"DripWarrior/poolContract.sol\":13426:13436  _projectId */\n      dup5\n        /* \"DripWarrior/poolContract.sol\":13412:13437  tPPercentages[_projectId] */\n      dup2\n      mstore\n      0x20\n      add\n      swap1\n      dup2\n      mstore\n      0x20\n      add\n      0x00\n      keccak256\n        /* \"DripWarrior/poolContract.sol\":13412:13455  tPPercentages[_projectId] = _newPerccentage */\n      dup2\n      swap1\n      sstore\n      pop\n        /* \"DripWarrior/poolContract.sol\":13471:13527  PercentageChanged(msg.sender, tPPercentages[_projectId]) */\n      0xb5671393c7c6980552e50a31e778921eb17d764c2e98fbf4d44fff524712def9\n        /* \"DripWarrior/poolContract.sol\":13489:13499  msg.sender */\n      caller\n        /* \"DripWarrior/poolContract.sol\":13501:13514  tPPercentages */\n      0x10\n        /* \"DripWarrior/poolContract.sol\":13501:13526  tPPercentages[_projectId] */\n      0x00\n        /* \"DripWarrior/poolContract.sol\":13515:13525  _projectId */\n      dup6\n        /* \"DripWarrior/poolContract.sol\":13501:13526  tPPercentages[_projectId] */\n      dup2\n      mstore\n      0x20\n      add\n      swap1\n      dup2\n      mstore\n      0x20\n      add\n      0x00\n      keccak256\n      sload\n        /* \"DripWarrior/poolContract.sol\":13471:13527  PercentageChanged(msg.sender, tPPercentages[_projectId]) */\n      mload(0x40)\n      tag_480\n      swap3\n      swap2\n      swap1\n      tag_303\n      jump\t// in\n    tag_480:\n      mload(0x40)\n      dup1\n      swap2\n      sub\n      swap1\n      log1\n        /* \"DripWarrior/poolContract.sol\":13192:13534  function setTeasueryPercentages(uint256 _projectId,uint256 _newPerccentage) external onlyOwner {... */\n      pop\n      pop\n      jump\t// out\n        /* \"@openzeppelin/contracts-upgradeable/access/OwnableUpgradeable.sol\":3405:3620  function transferOwnership(address newOwner) public virtual onlyOwner {... */\n    tag_239:\n        /* \"@openzeppelin/contracts-upgradeable/access/OwnableUpgradeable.sol\":2334:2347  _checkOwner() */\n      tag_482\n        /* \"@openzeppelin/contracts-upgradeable/access/OwnableUpgradeable.sol\":2334:2345  _checkOwner */\n      tag_247\n        /* \"@openzeppelin/contracts-upgradeable/access/OwnableUpgradeable.sol\":2334:2347  _checkOwner() */\n      jump\t// in\n    tag_482:\n        /* \"@openzeppelin/contracts-upgradeable/access/OwnableUpgradeable.sol\":3509:3510  0 */\n      0x00\n        /* \"@openzeppelin/contracts-upgradeable/access/OwnableUpgradeable.sol\":3489:3511  newOwner == address(0) */\n      0xffffffffffffffffffffffffffffffffffffffff\n      and\n        /* \"@openzeppelin/contracts-upgradeable/access/OwnableUpgradeable.sol\":3489:3497  newOwner */\n      dup2\n        /* \"@openzeppelin/contracts-upgradeable/access/OwnableUpgradeable.sol\":3489:3511  newOwner == address(0) */\n      0xffffffffffffffffffffffffffffffffffffffff\n      and\n      sub\n        /* \"@openzeppelin/contracts-upgradeable/access/OwnableUpgradeable.sol\":3485:3576  if (newOwner == address(0)) {... */\n      tag_484\n      jumpi\n        /* \"@openzeppelin/contracts-upgradeable/access/OwnableUpgradeable.sol\":3562:3563  0 */\n      0x00\n        /* \"@openzeppelin/contracts-upgradeable/access/OwnableUpgradeable.sol\":3534:3565  OwnableInvalidOwner(address(0)) */\n      mload(0x40)\n      0x1e4fbdf700000000000000000000000000000000000000000000000000000000\n      dup2\n      mstore\n      0x04\n      add\n      tag_485\n      swap2\n      swap1\n      tag_80\n      jump\t// in\n    tag_485:\n      mload(0x40)\n      dup1\n      swap2\n      sub\n      swap1\n      revert\n        /* \"@openzeppelin/contracts-upgradeable/access/OwnableUpgradeable.sol\":3485:3576  if (newOwner == address(0)) {... */\n    tag_484:\n        /* \"@openzeppelin/contracts-upgradeable/access/OwnableUpgradeable.sol\":3585:3613  _transferOwnership(newOwner) */\n      tag_486\n        /* \"@openzeppelin/contracts-upgradeable/access/OwnableUpgradeable.sol\":3604:3612  newOwner */\n      dup2\n        /* \"@openzeppelin/contracts-upgradeable/access/OwnableUpgradeable.sol\":3585:3603  _transferOwnership */\n      tag_325\n        /* \"@openzeppelin/contracts-upgradeable/access/OwnableUpgradeable.sol\":3585:3613  _transferOwnership(newOwner) */\n      jump\t// in\n    tag_486:\n        /* \"@openzeppelin/contracts-upgradeable/access/OwnableUpgradeable.sol\":3405:3620  function transferOwnership(address newOwner) public virtual onlyOwner {... */\n      pop\n      jump\t// out\n        /* \"DripWarrior/poolContract.sol\":1977:2025  mapping(uint256 => uint256) public tPPercentages */\n    tag_243:\n      mstore(0x20, 0x10)\n      dup1\n      0x00\n      mstore\n      keccak256(0x00, 0x40)\n      0x00\n      swap2\n      pop\n      swap1\n      pop\n      sload\n      dup2\n      jump\t// out\n        /* \"@openzeppelin/contracts-upgradeable/access/OwnableUpgradeable.sol\":2658:2820  function _checkOwner() internal view virtual {... */\n    tag_247:\n        /* \"@openzeppelin/contracts-upgradeable/access/OwnableUpgradeable.sol\":2728:2740  _msgSender() */\n      tag_488\n        /* \"@openzeppelin/contracts-upgradeable/access/OwnableUpgradeable.sol\":2728:2738  _msgSender */\n      tag_489\n        /* \"@openzeppelin/contracts-upgradeable/access/OwnableUpgradeable.sol\":2728:2740  _msgSender() */\n      jump\t// in\n    tag_488:\n        /* \"@openzeppelin/contracts-upgradeable/access/OwnableUpgradeable.sol\":2717:2740  owner() != _msgSender() */\n      0xffffffffffffffffffffffffffffffffffffffff\n      and\n        /* \"@openzeppelin/contracts-upgradeable/access/OwnableUpgradeable.sol\":2717:2724  owner() */\n      tag_490\n        /* \"@openzeppelin/contracts-upgradeable/access/OwnableUpgradeable.sol\":2717:2722  owner */\n      tag_166\n        /* \"@openzeppelin/contracts-upgradeable/access/OwnableUpgradeable.sol\":2717:2724  owner() */\n      jump\t// in\n    tag_490:\n        /* \"@openzeppelin/contracts-upgradeable/access/OwnableUpgradeable.sol\":2717:2740  owner() != _msgSender() */\n      0xffffffffffffffffffffffffffffffffffffffff\n      and\n      eq\n        /* \"@openzeppelin/contracts-upgradeable/access/OwnableUpgradeable.sol\":2713:2814  if (owner() != _msgSender()) {... */\n      tag_491\n      jumpi\n        /* \"@openzeppelin/contracts-upgradeable/access/OwnableUpgradeable.sol\":2790:2802  _msgSender() */\n      tag_492\n        /* \"@openzeppelin/contracts-upgradeable/access/OwnableUpgradeable.sol\":2790:2800  _msgSender */\n      tag_489\n        /* \"@openzeppelin/contracts-upgradeable/access/OwnableUpgradeable.sol\":2790:2802  _msgSender() */\n      jump\t// in\n    tag_492:\n        /* \"@openzeppelin/contracts-upgradeable/access/OwnableUpgradeable.sol\":2763:2803  OwnableUnauthorizedAccount(_msgSender()) */\n      mload(0x40)\n      0x118cdaa700000000000000000000000000000000000000000000000000000000\n      dup2\n      mstore\n      0x04\n      add\n      tag_493\n      swap2\n      swap1\n      tag_80\n      jump\t// in\n    tag_493:\n      mload(0x40)\n      dup1\n      swap2\n      sub\n      swap1\n      revert\n        /* \"@openzeppelin/contracts-upgradeable/access/OwnableUpgradeable.sol\":2713:2814  if (owner() != _msgSender()) {... */\n    tag_491:\n        /* \"@openzeppelin/contracts-upgradeable/access/OwnableUpgradeable.sol\":2658:2820  function _checkOwner() internal view virtual {... */\n      jump\t// out\n        /* \"@openzeppelin/contracts-upgradeable/proxy/utils/UUPSUpgradeable.sol\":4599:4911  function _checkProxy() internal view virtual {... */\n    tag_273:\n        /* \"@openzeppelin/contracts-upgradeable/proxy/utils/UUPSUpgradeable.sol\":4688:4694  __self */\n      immutable(\"0x6740f0f1ed974f4bbc4ea3ddf8917f81b1171208e4ec27e89df857ca2a56624a\")\n        /* \"@openzeppelin/contracts-upgradeable/proxy/utils/UUPSUpgradeable.sol\":4671:4694  address(this) == __self */\n      0xffffffffffffffffffffffffffffffffffffffff\n      and\n        /* \"@openzeppelin/contracts-upgradeable/proxy/utils/UUPSUpgradeable.sol\":4679:4683  this */\n      address\n        /* \"@openzeppelin/contracts-upgradeable/proxy/utils/UUPSUpgradeable.sol\":4671:4694  address(this) == __self */\n      0xffffffffffffffffffffffffffffffffffffffff\n      and\n      eq\n        /* \"@openzeppelin/contracts-upgradeable/proxy/utils/UUPSUpgradeable.sol\":4671:4791  address(this) == __self || // Must be called through delegatecall... */\n      dup1\n      tag_495\n      jumpi\n      pop\n        /* \"@openzeppelin/contracts-upgradeable/proxy/utils/UUPSUpgradeable.sol\":4785:4791  __self */\n      immutable(\"0x6740f0f1ed974f4bbc4ea3ddf8917f81b1171208e4ec27e89df857ca2a56624a\")\n        /* \"@openzeppelin/contracts-upgradeable/proxy/utils/UUPSUpgradeable.sol\":4749:4791  ERC1967Utils.getImplementation() != __self */\n      0xffffffffffffffffffffffffffffffffffffffff\n      and\n        /* \"@openzeppelin/contracts-upgradeable/proxy/utils/UUPSUpgradeable.sol\":4749:4781  ERC1967Utils.getImplementation() */\n      tag_496\n        /* \"@openzeppelin/contracts-upgradeable/proxy/utils/UUPSUpgradeable.sol\":4749:4779  ERC1967Utils.getImplementation */\n      tag_497\n        /* \"@openzeppelin/contracts-upgradeable/proxy/utils/UUPSUpgradeable.sol\":4749:4781  ERC1967Utils.getImplementation() */\n      jump\t// in\n    tag_496:\n        /* \"@openzeppelin/contracts-upgradeable/proxy/utils/UUPSUpgradeable.sol\":4749:4791  ERC1967Utils.getImplementation() != __self */\n      0xffffffffffffffffffffffffffffffffffffffff\n      and\n      eq\n      iszero\n        /* \"@openzeppelin/contracts-upgradeable/proxy/utils/UUPSUpgradeable.sol\":4671:4791  address(this) == __self || // Must be called through delegatecall... */\n    tag_495:\n        /* \"@openzeppelin/contracts-upgradeable/proxy/utils/UUPSUpgradeable.sol\":4654:4905  if (... */\n      iszero\n      tag_498\n      jumpi\n        /* \"@openzeppelin/contracts-upgradeable/proxy/utils/UUPSUpgradeable.sol\":4865:4894  UUPSUnauthorizedCallContext() */\n      mload(0x40)\n      0xe07c8dba00000000000000000000000000000000000000000000000000000000\n      dup2\n      mstore\n      0x04\n      add\n      mload(0x40)\n      dup1\n      swap2\n      sub\n      swap1\n      revert\n        /* \"@openzeppelin/contracts-upgradeable/proxy/utils/UUPSUpgradeable.sol\":4654:4905  if (... */\n    tag_498:\n        /* \"@openzeppelin/contracts-upgradeable/proxy/utils/UUPSUpgradeable.sol\":4599:4911  function _checkProxy() internal view virtual {... */\n      jump\t// out\n        /* \"DripWarrior/poolContract.sol\":15048:15160  function _authorizeUpgrade(address newImplementation)... */\n    tag_276:\n        /* \"@openzeppelin/contracts-upgradeable/access/OwnableUpgradeable.sol\":2334:2347  _checkOwner() */\n      tag_500\n        /* \"@openzeppelin/contracts-upgradeable/access/OwnableUpgradeable.sol\":2334:2345  _checkOwner */\n      tag_247\n        /* \"@openzeppelin/contracts-upgradeable/access/OwnableUpgradeable.sol\":2334:2347  _checkOwner() */\n      jump\t// in\n    tag_500:\n        /* \"DripWarrior/poolContract.sol\":15048:15160  function _authorizeUpgrade(address newImplementation)... */\n      pop\n      jump\t// out\n        /* \"@openzeppelin/contracts-upgradeable/proxy/utils/UUPSUpgradeable.sol\":6052:6590  function _upgradeToAndCallUUPS(address newImplementation, bytes memory data) private {... */\n    tag_278:\n        /* \"@openzeppelin/contracts-upgradeable/proxy/utils/UUPSUpgradeable.sol\":6169:6186  newImplementation */\n      dup2\n        /* \"@openzeppelin/contracts-upgradeable/proxy/utils/UUPSUpgradeable.sol\":6151:6201  IERC1822Proxiable(newImplementation).proxiableUUID */\n      0xffffffffffffffffffffffffffffffffffffffff\n      and\n      0x52d1902d\n        /* \"@openzeppelin/contracts-upgradeable/proxy/utils/UUPSUpgradeable.sol\":6151:6203  IERC1822Proxiable(newImplementation).proxiableUUID() */\n      mload(0x40)\n      dup2\n      0xffffffff\n      and\n      0xe0\n      shl\n      dup2\n      mstore\n      0x04\n      add\n      0x20\n      mload(0x40)\n      dup1\n      dup4\n      sub\n      dup2\n      dup7\n      gas\n      staticcall\n      swap3\n      pop\n      pop\n      pop\n      dup1\n      iszero\n      tag_503\n      jumpi\n      pop\n      mload(0x40)\n      returndatasize\n      not(0x1f)\n      0x1f\n      dup3\n      add\n      and\n      dup3\n      add\n      dup1\n      0x40\n      mstore\n      pop\n      dup2\n      add\n      swap1\n      tag_504\n      swap2\n      swap1\n      tag_505\n      jump\t// in\n    tag_504:\n      0x01\n    tag_503:\n        /* \"@openzeppelin/contracts-upgradeable/proxy/utils/UUPSUpgradeable.sol\":6147:6584  try IERC1822Proxiable(newImplementation).proxiableUUID() returns (bytes32 slot) {... */\n      tag_506\n      jumpi\n        /* \"@openzeppelin/contracts-upgradeable/proxy/utils/UUPSUpgradeable.sol\":6555:6572  newImplementation */\n      dup2\n        /* \"@openzeppelin/contracts-upgradeable/proxy/utils/UUPSUpgradeable.sol\":6513:6573  ERC1967Utils.ERC1967InvalidImplementation(newImplementation) */\n      mload(0x40)\n      0x4c9c8ce300000000000000000000000000000000000000000000000000000000\n      dup2\n      mstore\n      0x04\n      add\n      tag_510\n      swap2\n      swap1\n      tag_80\n      jump\t// in\n    tag_510:\n      mload(0x40)\n      dup1\n      swap2\n      sub\n      swap1\n      revert\n        /* \"@openzeppelin/contracts-upgradeable/proxy/utils/UUPSUpgradeable.sol\":6147:6584  try IERC1822Proxiable(newImplementation).proxiableUUID() returns (bytes32 slot) {... */\n    tag_506:\n        /* \"@openzeppelin/contracts/proxy/ERC1967/ERC1967Utils.sol\":1327:1393  0x360894a13ba1a3210667c828492db98dca3e2076cc3735a920a3ca505d382bbc */\n      0x360894a13ba1a3210667c828492db98dca3e2076cc3735a920a3ca505d382bbc\n        /* \"@openzeppelin/contracts-upgradeable/proxy/utils/UUPSUpgradeable.sol\":6253:6285  ERC1967Utils.IMPLEMENTATION_SLOT */\n      0x00\n      shl\n        /* \"@openzeppelin/contracts-upgradeable/proxy/utils/UUPSUpgradeable.sol\":6245:6249  slot */\n      dup2\n        /* \"@openzeppelin/contracts-upgradeable/proxy/utils/UUPSUpgradeable.sol\":6245:6285  slot != ERC1967Utils.IMPLEMENTATION_SLOT */\n      eq\n        /* \"@openzeppelin/contracts-upgradeable/proxy/utils/UUPSUpgradeable.sol\":6241:6361  if (slot != ERC1967Utils.IMPLEMENTATION_SLOT) {... */\n      tag_512\n      jumpi\n        /* \"@openzeppelin/contracts-upgradeable/proxy/utils/UUPSUpgradeable.sol\":6341:6345  slot */\n      dup1\n        /* \"@openzeppelin/contracts-upgradeable/proxy/utils/UUPSUpgradeable.sol\":6312:6346  UUPSUnsupportedProxiableUUID(slot) */\n      mload(0x40)\n      0xaa1d49a400000000000000000000000000000000000000000000000000000000\n      dup2\n      mstore\n      0x04\n      add\n      tag_513\n      swap2\n      swap1\n      tag_114\n      jump\t// in\n    tag_513:\n      mload(0x40)\n      dup1\n      swap2\n      sub\n      swap1\n      revert\n        /* \"@openzeppelin/contracts-upgradeable/proxy/utils/UUPSUpgradeable.sol\":6241:6361  if (slot != ERC1967Utils.IMPLEMENTATION_SLOT) {... */\n    tag_512:\n        /* \"@openzeppelin/contracts-upgradeable/proxy/utils/UUPSUpgradeable.sol\":6374:6428  ERC1967Utils.upgradeToAndCall(newImplementation, data) */\n      tag_514\n        /* \"@openzeppelin/contracts-upgradeable/proxy/utils/UUPSUpgradeable.sol\":6404:6421  newImplementation */\n      dup4\n        /* \"@openzeppelin/contracts-upgradeable/proxy/utils/UUPSUpgradeable.sol\":6423:6427  data */\n      dup4\n        /* \"@openzeppelin/contracts-upgradeable/proxy/utils/UUPSUpgradeable.sol\":6374:6403  ERC1967Utils.upgradeToAndCall */\n      tag_515\n        /* \"@openzeppelin/contracts-upgradeable/proxy/utils/UUPSUpgradeable.sol\":6374:6428  ERC1967Utils.upgradeToAndCall(newImplementation, data) */\n      jump\t// in\n    tag_514:\n        /* \"@openzeppelin/contracts-upgradeable/proxy/utils/UUPSUpgradeable.sol\":6204:6439  returns (bytes32 slot) {... */\n      pop\n        /* \"@openzeppelin/contracts-upgradeable/proxy/utils/UUPSUpgradeable.sol\":6052:6590  function _upgradeToAndCallUUPS(address newImplementation, bytes memory data) private {... */\n      pop\n      pop\n      jump\t// out\n        /* \"@openzeppelin/contracts-upgradeable/proxy/utils/UUPSUpgradeable.sol\":5028:5241  function _checkNotDelegated() internal view virtual {... */\n    tag_297:\n        /* \"@openzeppelin/contracts-upgradeable/proxy/utils/UUPSUpgradeable.sol\":5111:5117  __self */\n      immutable(\"0x6740f0f1ed974f4bbc4ea3ddf8917f81b1171208e4ec27e89df857ca2a56624a\")\n        /* \"@openzeppelin/contracts-upgradeable/proxy/utils/UUPSUpgradeable.sol\":5094:5117  address(this) != __self */\n      0xffffffffffffffffffffffffffffffffffffffff\n      and\n        /* \"@openzeppelin/contracts-upgradeable/proxy/utils/UUPSUpgradeable.sol\":5102:5106  this */\n      address\n        /* \"@openzeppelin/contracts-upgradeable/proxy/utils/UUPSUpgradeable.sol\":5094:5117  address(this) != __self */\n      0xffffffffffffffffffffffffffffffffffffffff\n      and\n      eq\n        /* \"@openzeppelin/contracts-upgradeable/proxy/utils/UUPSUpgradeable.sol\":5090:5235  if (address(this) != __self) {... */\n      tag_517\n      jumpi\n        /* \"@openzeppelin/contracts-upgradeable/proxy/utils/UUPSUpgradeable.sol\":5195:5224  UUPSUnauthorizedCallContext() */\n      mload(0x40)\n      0xe07c8dba00000000000000000000000000000000000000000000000000000000\n      dup2\n      mstore\n      0x04\n      add\n      mload(0x40)\n      dup1\n      swap2\n      sub\n      swap1\n      revert\n        /* \"@openzeppelin/contracts-upgradeable/proxy/utils/UUPSUpgradeable.sol\":5090:5235  if (address(this) != __self) {... */\n    tag_517:\n        /* \"@openzeppelin/contracts-upgradeable/proxy/utils/UUPSUpgradeable.sol\":5028:5241  function _checkNotDelegated() internal view virtual {... */\n      jump\t// out\n        /* \"@openzeppelin/contracts-upgradeable/access/OwnableUpgradeable.sol\":3774:4022  function _transferOwnership(address newOwner) internal virtual {... */\n    tag_325:\n        /* \"@openzeppelin/contracts-upgradeable/access/OwnableUpgradeable.sol\":3847:3871  OwnableStorage storage $ */\n      0x00\n        /* \"@openzeppelin/contracts-upgradeable/access/OwnableUpgradeable.sol\":3874:3894  _getOwnableStorage() */\n      tag_519\n        /* \"@openzeppelin/contracts-upgradeable/access/OwnableUpgradeable.sol\":3874:3892  _getOwnableStorage */\n      tag_396\n        /* \"@openzeppelin/contracts-upgradeable/access/OwnableUpgradeable.sol\":3874:3894  _getOwnableStorage() */\n      jump\t// in\n    tag_519:\n        /* \"@openzeppelin/contracts-upgradeable/access/OwnableUpgradeable.sol\":3847:3894  OwnableStorage storage $ = _getOwnableStorage() */\n      swap1\n      pop\n        /* \"@openzeppelin/contracts-upgradeable/access/OwnableUpgradeable.sol\":3904:3920  address oldOwner */\n      0x00\n        /* \"@openzeppelin/contracts-upgradeable/access/OwnableUpgradeable.sol\":3923:3924  $ */\n      dup2\n        /* \"@openzeppelin/contracts-upgradeable/access/OwnableUpgradeable.sol\":3923:3931  $._owner */\n      0x00\n      add\n      0x00\n      swap1\n      sload\n      swap1\n      0x0100\n      exp\n      swap1\n      div\n      0xffffffffffffffffffffffffffffffffffffffff\n      and\n        /* \"@openzeppelin/contracts-upgradeable/access/OwnableUpgradeable.sol\":3904:3931  address oldOwner = $._owner */\n      swap1\n      pop\n        /* \"@openzeppelin/contracts-upgradeable/access/OwnableUpgradeable.sol\":3952:3960  newOwner */\n      dup3\n        /* \"@openzeppelin/contracts-upgradeable/access/OwnableUpgradeable.sol\":3941:3942  $ */\n      dup3\n        /* \"@openzeppelin/contracts-upgradeable/access/OwnableUpgradeable.sol\":3941:3949  $._owner */\n      0x00\n      add\n      0x00\n        /* \"@openzeppelin/contracts-upgradeable/access/OwnableUpgradeable.sol\":3941:3960  $._owner = newOwner */\n      0x0100\n      exp\n      dup2\n      sload\n      dup2\n      0xffffffffffffffffffffffffffffffffffffffff\n      mul\n      not\n      and\n      swap1\n      dup4\n      0xffffffffffffffffffffffffffffffffffffffff\n      and\n      mul\n      or\n      swap1\n      sstore\n      pop\n        /* \"@openzeppelin/contracts-upgradeable/access/OwnableUpgradeable.sol\":4006:4014  newOwner */\n      dup3\n        /* \"@openzeppelin/contracts-upgradeable/access/OwnableUpgradeable.sol\":3975:4015  OwnershipTransferred(oldOwner, newOwner) */\n      0xffffffffffffffffffffffffffffffffffffffff\n      and\n        /* \"@openzeppelin/contracts-upgradeable/access/OwnableUpgradeable.sol\":3996:4004  oldOwner */\n      dup2\n        /* \"@openzeppelin/contracts-upgradeable/access/OwnableUpgradeable.sol\":3975:4015  OwnershipTransferred(oldOwner, newOwner) */\n      0xffffffffffffffffffffffffffffffffffffffff\n      and\n      0x8be0079c531659141344cd1fd0a4f28419497f9722a3daafe3b4186f6b6457e0\n      mload(0x40)\n      mload(0x40)\n      dup1\n      swap2\n      sub\n      swap1\n      log3\n        /* \"@openzeppelin/contracts-upgradeable/access/OwnableUpgradeable.sol\":3837:4022  {... */\n      pop\n      pop\n        /* \"@openzeppelin/contracts-upgradeable/access/OwnableUpgradeable.sol\":3774:4022  function _transferOwnership(address newOwner) internal virtual {... */\n      pop\n      jump\t// out\n        /* \"DripWarrior/poolContract.sol\":7347:7726  function calculateFees(uint256 _amount, uint256 _tPPercentage) private {... */\n    tag_385:\n        /* \"DripWarrior/poolContract.sol\":7436:7456  uint256 oPPercentage */\n      0x00\n        /* \"DripWarrior/poolContract.sol\":7467:7480  _tPPercentage */\n      dup2\n        /* \"DripWarrior/poolContract.sol\":7459:7464  10000 */\n      0x2710\n        /* \"DripWarrior/poolContract.sol\":7459:7480  10000 - _tPPercentage */\n      tag_521\n      swap2\n      swap1\n      tag_263\n      jump\t// in\n    tag_521:\n        /* \"DripWarrior/poolContract.sol\":7436:7480  uint256 oPPercentage = 10000 - _tPPercentage */\n      swap1\n      pop\n        /* \"DripWarrior/poolContract.sol\":7490:7510  uint256 ownerShipFee */\n      0x00\n        /* \"DripWarrior/poolContract.sol\":7513:7555  calculatePercentage(_amount, oPPercentage) */\n      tag_522\n        /* \"DripWarrior/poolContract.sol\":7533:7540  _amount */\n      dup5\n        /* \"DripWarrior/poolContract.sol\":7542:7554  oPPercentage */\n      dup4\n        /* \"DripWarrior/poolContract.sol\":7513:7532  calculatePercentage */\n      tag_465\n        /* \"DripWarrior/poolContract.sol\":7513:7555  calculatePercentage(_amount, oPPercentage) */\n      jump\t// in\n    tag_522:\n        /* \"DripWarrior/poolContract.sol\":7490:7555  uint256 ownerShipFee = calculatePercentage(_amount, oPPercentage) */\n      swap1\n      pop\n        /* \"DripWarrior/poolContract.sol\":7565:7584  uint256 treasuryFee */\n      0x00\n        /* \"DripWarrior/poolContract.sol\":7587:7630  calculatePercentage(_amount, _tPPercentage) */\n      tag_523\n        /* \"DripWarrior/poolContract.sol\":7607:7614  _amount */\n      dup6\n        /* \"DripWarrior/poolContract.sol\":7616:7629  _tPPercentage */\n      dup6\n        /* \"DripWarrior/poolContract.sol\":7587:7606  calculatePercentage */\n      tag_465\n        /* \"DripWarrior/poolContract.sol\":7587:7630  calculatePercentage(_amount, _tPPercentage) */\n      jump\t// in\n    tag_523:\n        /* \"DripWarrior/poolContract.sol\":7565:7630  uint256 treasuryFee = calculatePercentage(_amount, _tPPercentage) */\n      swap1\n      pop\n        /* \"DripWarrior/poolContract.sol\":7664:7676  ownerShipFee */\n      dup2\n        /* \"DripWarrior/poolContract.sol\":7641:7660  ownerShipPoolAmount */\n      0x02\n      0x00\n        /* \"DripWarrior/poolContract.sol\":7641:7676  ownerShipPoolAmount += ownerShipFee */\n      dup3\n      dup3\n      sload\n      tag_524\n      swap2\n      swap1\n      tag_285\n      jump\t// in\n    tag_524:\n      swap3\n      pop\n      pop\n      dup2\n      swap1\n      sstore\n      pop\n        /* \"DripWarrior/poolContract.sol\":7708:7719  treasuryFee */\n      dup1\n        /* \"DripWarrior/poolContract.sol\":7686:7704  treasuryPoolAmount */\n      0x01\n      0x00\n        /* \"DripWarrior/poolContract.sol\":7686:7719  treasuryPoolAmount += treasuryFee */\n      dup3\n      dup3\n      sload\n      tag_525\n      swap2\n      swap1\n      tag_285\n      jump\t// in\n    tag_525:\n      swap3\n      pop\n      pop\n      dup2\n      swap1\n      sstore\n      pop\n        /* \"DripWarrior/poolContract.sol\":7418:7726  {... */\n      pop\n      pop\n      pop\n        /* \"DripWarrior/poolContract.sol\":7347:7726  function calculateFees(uint256 _amount, uint256 _tPPercentage) private {... */\n      pop\n      pop\n      jump\t// out\n        /* \"@openzeppelin/contracts-upgradeable/access/OwnableUpgradeable.sol\":1192:1351  function _getOwnableStorage() private pure returns (OwnableStorage storage $) {... */\n    tag_396:\n        /* \"@openzeppelin/contracts-upgradeable/access/OwnableUpgradeable.sol\":1244:1268  OwnableStorage storage $ */\n      0x00\n        /* \"@openzeppelin/contracts-upgradeable/access/OwnableUpgradeable.sol\":1313:1335  OwnableStorageLocation */\n      0x9016d09d72d40fdae2fd8ceac6b6234c7706214fd39c1cd1e609a0528c199300\n        /* \"@openzeppelin/contracts-upgradeable/access/OwnableUpgradeable.sol\":1303:1335  $.slot := OwnableStorageLocation */\n      swap1\n      pop\n        /* \"@openzeppelin/contracts-upgradeable/access/OwnableUpgradeable.sol\":1192:1351  function _getOwnableStorage() private pure returns (OwnableStorage storage $) {... */\n      swap1\n      jump\t// out\n        /* \"@openzeppelin/contracts-upgradeable/proxy/utils/Initializable.sol\":8737:8907  function _getInitializableStorage() private pure returns (InitializableStorage storage $) {... */\n    tag_411:\n        /* \"@openzeppelin/contracts-upgradeable/proxy/utils/Initializable.sol\":8795:8825  InitializableStorage storage $ */\n      0x00\n        /* \"@openzeppelin/contracts-upgradeable/proxy/utils/Initializable.sol\":8870:8891  INITIALIZABLE_STORAGE */\n      0xf0c57e16840df040f15088dc2f81fe391c3923bec73e23a9662efc9c229c6a00\n        /* \"@openzeppelin/contracts-upgradeable/proxy/utils/Initializable.sol\":8860:8891  $.slot := INITIALIZABLE_STORAGE */\n      swap1\n      pop\n        /* \"@openzeppelin/contracts-upgradeable/proxy/utils/Initializable.sol\":8737:8907  function _getInitializableStorage() private pure returns (InitializableStorage storage $) {... */\n      swap1\n      jump\t// out\n        /* \"@openzeppelin/contracts-upgradeable/access/OwnableUpgradeable.sol\":1847:1974  function __Ownable_init(address initialOwner) internal onlyInitializing {... */\n    tag_419:\n        /* \"@openzeppelin/contracts-upgradeable/proxy/utils/Initializable.sol\":6931:6951  _checkInitializing() */\n      tag_529\n        /* \"@openzeppelin/contracts-upgradeable/proxy/utils/Initializable.sol\":6931:6949  _checkInitializing */\n      tag_530\n        /* \"@openzeppelin/contracts-upgradeable/proxy/utils/Initializable.sol\":6931:6951  _checkInitializing() */\n      jump\t// in\n    tag_529:\n        /* \"@openzeppelin/contracts-upgradeable/access/OwnableUpgradeable.sol\":1929:1967  __Ownable_init_unchained(initialOwner) */\n      tag_532\n        /* \"@openzeppelin/contracts-upgradeable/access/OwnableUpgradeable.sol\":1954:1966  initialOwner */\n      dup2\n        /* \"@openzeppelin/contracts-upgradeable/access/OwnableUpgradeable.sol\":1929:1953  __Ownable_init_unchained */\n      tag_533\n        /* \"@openzeppelin/contracts-upgradeable/access/OwnableUpgradeable.sol\":1929:1967  __Ownable_init_unchained(initialOwner) */\n      jump\t// in\n    tag_532:\n        /* \"@openzeppelin/contracts-upgradeable/access/OwnableUpgradeable.sol\":1847:1974  function __Ownable_init(address initialOwner) internal onlyInitializing {... */\n      pop\n      jump\t// out\n        /* \"@openzeppelin/contracts-upgradeable/proxy/utils/UUPSUpgradeable.sol\":2968:3035  function __UUPSUpgradeable_init() internal onlyInitializing {... */\n    tag_421:\n        /* \"@openzeppelin/contracts-upgradeable/proxy/utils/Initializable.sol\":6931:6951  _checkInitializing() */\n      tag_535\n        /* \"@openzeppelin/contracts-upgradeable/proxy/utils/Initializable.sol\":6931:6949  _checkInitializing */\n      tag_530\n        /* \"@openzeppelin/contracts-upgradeable/proxy/utils/Initializable.sol\":6931:6951  _checkInitializing() */\n      jump\t// in\n    tag_535:\n        /* \"@openzeppelin/contracts-upgradeable/proxy/utils/UUPSUpgradeable.sol\":2968:3035  function __UUPSUpgradeable_init() internal onlyInitializing {... */\n      jump\t// out\n        /* \"DripWarrior/poolContract.sol\":9158:10309  function perPoolCalculation() private returns(uint256, uint256,uint256){... */\n    tag_451:\n        /* \"DripWarrior/poolContract.sol\":9204:9211  uint256 */\n      0x00\n        /* \"DripWarrior/poolContract.sol\":9213:9220  uint256 */\n      0x00\n        /* \"DripWarrior/poolContract.sol\":9221:9228  uint256 */\n      0x00\n        /* \"DripWarrior/poolContract.sol\":9249:9273  uint256 remainFiftyOPool */\n      0x00\n        /* \"DripWarrior/poolContract.sol\":9276:9322  calculatePercentage(ownerShipPoolAmount, 5000) */\n      tag_538\n        /* \"DripWarrior/poolContract.sol\":9296:9315  ownerShipPoolAmount */\n      sload(0x02)\n        /* \"DripWarrior/poolContract.sol\":9317:9321  5000 */\n      0x1388\n        /* \"DripWarrior/poolContract.sol\":9276:9295  calculatePercentage */\n      tag_465\n        /* \"DripWarrior/poolContract.sol\":9276:9322  calculatePercentage(ownerShipPoolAmount, 5000) */\n      jump\t// in\n    tag_538:\n        /* \"DripWarrior/poolContract.sol\":9249:9322  uint256 remainFiftyOPool = calculatePercentage(ownerShipPoolAmount, 5000) */\n      swap1\n      pop\n        /* \"DripWarrior/poolContract.sol\":9333:9366  uint256 dividentPayoutOPoolAmount */\n      0x00\n        /* \"DripWarrior/poolContract.sol\":9369:9433  calculatePercentage(remainFiftyOPool, odividentPayoutPercentage) */\n      tag_539\n        /* \"DripWarrior/poolContract.sol\":9389:9405  remainFiftyOPool */\n      dup3\n        /* \"DripWarrior/poolContract.sol\":9407:9432  odividentPayoutPercentage */\n      sload(0x05)\n        /* \"DripWarrior/poolContract.sol\":9369:9388  calculatePercentage */\n      tag_465\n        /* \"DripWarrior/poolContract.sol\":9369:9433  calculatePercentage(remainFiftyOPool, odividentPayoutPercentage) */\n      jump\t// in\n    tag_539:\n        /* \"DripWarrior/poolContract.sol\":9333:9433  uint256 dividentPayoutOPoolAmount = calculatePercentage(remainFiftyOPool, odividentPayoutPercentage) */\n      swap1\n      pop\n        /* \"DripWarrior/poolContract.sol\":9443:9479  uint256 fifteenPercenntToTPoolAmount */\n      0x00\n        /* \"DripWarrior/poolContract.sol\":9482:9545  calculatePercentage(remainFiftyOPool, flowToTreasuryPercentage) */\n      tag_540\n        /* \"DripWarrior/poolContract.sol\":9502:9518  remainFiftyOPool */\n      dup4\n        /* \"DripWarrior/poolContract.sol\":9520:9544  flowToTreasuryPercentage */\n      sload(0x06)\n        /* \"DripWarrior/poolContract.sol\":9482:9501  calculatePercentage */\n      tag_465\n        /* \"DripWarrior/poolContract.sol\":9482:9545  calculatePercentage(remainFiftyOPool, flowToTreasuryPercentage) */\n      jump\t// in\n    tag_540:\n        /* \"DripWarrior/poolContract.sol\":9443:9545  uint256 fifteenPercenntToTPoolAmount = calculatePercentage(remainFiftyOPool, flowToTreasuryPercentage) */\n      swap1\n      pop\n        /* \"DripWarrior/poolContract.sol\":9555:9591  uint256 tenPercenntToMaintenceAmount */\n      0x00\n        /* \"DripWarrior/poolContract.sol\":9594:9656  calculatePercentage(remainFiftyOPool, maintainceFeePercentage) */\n      tag_541\n        /* \"DripWarrior/poolContract.sol\":9614:9630  remainFiftyOPool */\n      dup5\n        /* \"DripWarrior/poolContract.sol\":9632:9655  maintainceFeePercentage */\n      sload(0x07)\n        /* \"DripWarrior/poolContract.sol\":9594:9613  calculatePercentage */\n      tag_465\n        /* \"DripWarrior/poolContract.sol\":9594:9656  calculatePercentage(remainFiftyOPool, maintainceFeePercentage) */\n      jump\t// in\n    tag_541:\n        /* \"DripWarrior/poolContract.sol\":9555:9656  uint256 tenPercenntToMaintenceAmount = calculatePercentage(remainFiftyOPool, maintainceFeePercentage) */\n      swap1\n      pop\n        /* \"DripWarrior/poolContract.sol\":9666:9696  uint256 remainFiftyTPoolAmount */\n      0x00\n        /* \"DripWarrior/poolContract.sol\":9699:9765  calculatePercentage(treasuryPoolAmount, tdividentPayoutPercentage) */\n      tag_542\n        /* \"DripWarrior/poolContract.sol\":9719:9737  treasuryPoolAmount */\n      sload(0x01)\n        /* \"DripWarrior/poolContract.sol\":9739:9764  tdividentPayoutPercentage */\n      sload(0x04)\n        /* \"DripWarrior/poolContract.sol\":9699:9718  calculatePercentage */\n      tag_465\n        /* \"DripWarrior/poolContract.sol\":9699:9765  calculatePercentage(treasuryPoolAmount, tdividentPayoutPercentage) */\n      jump\t// in\n    tag_542:\n        /* \"DripWarrior/poolContract.sol\":9666:9765  uint256 remainFiftyTPoolAmount = calculatePercentage(treasuryPoolAmount, tdividentPayoutPercentage) */\n      swap1\n      pop\n        /* \"DripWarrior/poolContract.sol\":9796:9797  0 */\n      0x00\n        /* \"DripWarrior/poolContract.sol\":9784:9793  noOfUsers */\n      sload(0x08)\n        /* \"DripWarrior/poolContract.sol\":9784:9797  noOfUsers > 0 */\n      gt\n        /* \"DripWarrior/poolContract.sol\":9776:9811  require(noOfUsers > 0, \"no users!\") */\n      tag_543\n      jumpi\n      mload(0x40)\n      0x08c379a000000000000000000000000000000000000000000000000000000000\n      dup2\n      mstore\n      0x04\n      add\n      tag_544\n      swap1\n      tag_545\n      jump\t// in\n    tag_544:\n      mload(0x40)\n      dup1\n      swap2\n      sub\n      swap1\n      revert\n    tag_543:\n        /* \"DripWarrior/poolContract.sol\":9830:9856  uint256 perPersonFromTPool */\n      0x00\n        /* \"DripWarrior/poolContract.sol\":9882:9891  noOfUsers */\n      sload(0x08)\n        /* \"DripWarrior/poolContract.sol\":9859:9881  remainFiftyTPoolAmount */\n      dup3\n        /* \"DripWarrior/poolContract.sol\":9859:9891  remainFiftyTPoolAmount/noOfUsers */\n      tag_546\n      swap2\n      swap1\n      tag_463\n      jump\t// in\n    tag_546:\n        /* \"DripWarrior/poolContract.sol\":9830:9891  uint256 perPersonFromTPool = remainFiftyTPoolAmount/noOfUsers */\n      swap1\n      pop\n        /* \"DripWarrior/poolContract.sol\":9965:9993  tenPercenntToMaintenceAmount */\n      dup3\n        /* \"DripWarrior/poolContract.sol\":9934:9962  fifteenPercenntToTPoolAmount */\n      dup5\n        /* \"DripWarrior/poolContract.sol\":9934:9993  fifteenPercenntToTPoolAmount + tenPercenntToMaintenceAmount */\n      tag_547\n      swap2\n      swap1\n      tag_285\n      jump\t// in\n    tag_547:\n        /* \"DripWarrior/poolContract.sol\":9910:9929  ownerShipPoolAmount */\n      0x02\n      0x00\n        /* \"DripWarrior/poolContract.sol\":9910:9994  ownerShipPoolAmount -= (fifteenPercenntToTPoolAmount + tenPercenntToMaintenceAmount) */\n      dup3\n      dup3\n      sload\n      tag_548\n      swap2\n      swap1\n      tag_263\n      jump\t// in\n    tag_548:\n      swap3\n      pop\n      pop\n      dup2\n      swap1\n      sstore\n      pop\n        /* \"DripWarrior/poolContract.sol\":10026:10054  fifteenPercenntToTPoolAmount */\n      dup4\n        /* \"DripWarrior/poolContract.sol\":10004:10022  treasuryPoolAmount */\n      0x01\n      0x00\n        /* \"DripWarrior/poolContract.sol\":10004:10054  treasuryPoolAmount += fifteenPercenntToTPoolAmount */\n      dup3\n      dup3\n      sload\n      tag_549\n      swap2\n      swap1\n      tag_285\n      jump\t// in\n    tag_549:\n      swap3\n      pop\n      pop\n      dup2\n      swap1\n      sstore\n      pop\n        /* \"DripWarrior/poolContract.sol\":10065:10077  bool success */\n      0x00\n        /* \"DripWarrior/poolContract.sol\":10080:10089  usdcToken */\n      0x00\n      0x00\n      swap1\n      sload\n      swap1\n      0x0100\n      exp\n      swap1\n      div\n      0xffffffffffffffffffffffffffffffffffffffff\n      and\n        /* \"DripWarrior/poolContract.sol\":10080:10098  usdcToken.transfer */\n      0xffffffffffffffffffffffffffffffffffffffff\n      and\n      0xa9059cbb\n        /* \"DripWarrior/poolContract.sol\":10099:10114  multisigAddress */\n      0x09\n      0x00\n      swap1\n      sload\n      swap1\n      0x0100\n      exp\n      swap1\n      div\n      0xffffffffffffffffffffffffffffffffffffffff\n      and\n        /* \"DripWarrior/poolContract.sol\":10116:10144  tenPercenntToMaintenceAmount */\n      dup7\n        /* \"DripWarrior/poolContract.sol\":10080:10145  usdcToken.transfer(multisigAddress, tenPercenntToMaintenceAmount) */\n      mload(0x40)\n      dup4\n      0xffffffff\n      and\n      0xe0\n      shl\n      dup2\n      mstore\n      0x04\n      add\n      tag_550\n      swap3\n      swap2\n      swap1\n      tag_303\n      jump\t// in\n    tag_550:\n      0x20\n      mload(0x40)\n      dup1\n      dup4\n      sub\n      dup2\n      0x00\n      dup8\n      gas\n      call\n      iszero\n      dup1\n      iszero\n      tag_552\n      jumpi\n      returndatacopy(0x00, 0x00, returndatasize)\n      revert(0x00, returndatasize)\n    tag_552:\n      pop\n      pop\n      pop\n      pop\n      mload(0x40)\n      returndatasize\n      not(0x1f)\n      0x1f\n      dup3\n      add\n      and\n      dup3\n      add\n      dup1\n      0x40\n      mstore\n      pop\n      dup2\n      add\n      swap1\n      tag_553\n      swap2\n      swap1\n      tag_291\n      jump\t// in\n    tag_553:\n        /* \"DripWarrior/poolContract.sol\":10065:10145  bool success = usdcToken.transfer(multisigAddress, tenPercenntToMaintenceAmount) */\n      swap1\n      pop\n        /* \"DripWarrior/poolContract.sol\":10159:10166  success */\n      dup1\n        /* \"DripWarrior/poolContract.sol\":10155:10222  if(!success){... */\n      tag_554\n      jumpi\n        /* \"DripWarrior/poolContract.sol\":10203:10210  success */\n      dup1\n        /* \"DripWarrior/poolContract.sol\":10188:10211  transferFailed(success) */\n      mload(0x40)\n      0xd85d3cef00000000000000000000000000000000000000000000000000000000\n      dup2\n      mstore\n      0x04\n      add\n      tag_555\n      swap2\n      swap1\n      tag_215\n      jump\t// in\n    tag_555:\n      mload(0x40)\n      dup1\n      swap2\n      sub\n      swap1\n      revert\n        /* \"DripWarrior/poolContract.sol\":10155:10222  if(!success){... */\n    tag_554:\n        /* \"DripWarrior/poolContract.sol\":10240:10256  remainFiftyOPool */\n      dup7\n        /* \"DripWarrior/poolContract.sol\":10257:10282  dividentPayoutOPoolAmount */\n      dup7\n        /* \"DripWarrior/poolContract.sol\":10283:10301  perPersonFromTPool */\n      dup4\n        /* \"DripWarrior/poolContract.sol\":10232:10302  return (remainFiftyOPool,dividentPayoutOPoolAmount,perPersonFromTPool) */\n      swap10\n      pop\n      swap10\n      pop\n      swap10\n      pop\n      pop\n      pop\n      pop\n      pop\n      pop\n      pop\n      pop\n        /* \"DripWarrior/poolContract.sol\":9158:10309  function perPoolCalculation() private returns(uint256, uint256,uint256){... */\n      swap1\n      swap2\n      swap3\n      jump\t// out\n        /* \"DripWarrior/poolContract.sol\":11644:12041  function calculatePercentage(uint256 _totalStakeAmount,uint256 percentageNumber) private pure returns(uint256) {... */\n    tag_465:\n        /* \"DripWarrior/poolContract.sol\":11746:11753  uint256 */\n      0x00\n        /* \"DripWarrior/poolContract.sol\":11802:11803  0 */\n      0x00\n        /* \"DripWarrior/poolContract.sol\":11782:11799  _totalStakeAmount */\n      dup4\n        /* \"DripWarrior/poolContract.sol\":11782:11803  _totalStakeAmount !=0 */\n      sub\n        /* \"DripWarrior/poolContract.sol\":11774:11842  require(_totalStakeAmount !=0 , \"_totalStakeAmount can not be zero\") */\n      tag_557\n      jumpi\n      mload(0x40)\n      0x08c379a000000000000000000000000000000000000000000000000000000000\n      dup2\n      mstore\n      0x04\n      add\n      tag_558\n      swap1\n      tag_559\n      jump\t// in\n    tag_558:\n      mload(0x40)\n      dup1\n      swap2\n      sub\n      swap1\n      revert\n    tag_557:\n        /* \"DripWarrior/poolContract.sol\":11879:11880  0 */\n      0x00\n        /* \"DripWarrior/poolContract.sol\":11860:11876  percentageNumber */\n      dup3\n        /* \"DripWarrior/poolContract.sol\":11860:11880  percentageNumber !=0 */\n      sub\n        /* \"DripWarrior/poolContract.sol\":11852:11919  require(percentageNumber !=0 , \"_totalStakeAmount can not be zero\") */\n      tag_560\n      jumpi\n      mload(0x40)\n      0x08c379a000000000000000000000000000000000000000000000000000000000\n      dup2\n      mstore\n      0x04\n      add\n      tag_561\n      swap1\n      tag_559\n      jump\t// in\n    tag_561:\n      mload(0x40)\n      dup1\n      swap2\n      sub\n      swap1\n      revert\n    tag_560:\n        /* \"DripWarrior/poolContract.sol\":11929:11947  uint256 serviceFee */\n      0x00\n        /* \"DripWarrior/poolContract.sol\":11992:11997  10000 */\n      0x2710\n        /* \"DripWarrior/poolContract.sol\":11971:11987  percentageNumber */\n      dup4\n        /* \"DripWarrior/poolContract.sol\":11950:11967  _totalStakeAmount */\n      dup6\n        /* \"DripWarrior/poolContract.sol\":11950:11988  _totalStakeAmount * (percentageNumber) */\n      tag_562\n      swap2\n      swap1\n      tag_461\n      jump\t// in\n    tag_562:\n        /* \"DripWarrior/poolContract.sol\":11950:11998  _totalStakeAmount * (percentageNumber) / (10000) */\n      tag_563\n      swap2\n      swap1\n      tag_463\n      jump\t// in\n    tag_563:\n        /* \"DripWarrior/poolContract.sol\":11929:11998  uint256 serviceFee = _totalStakeAmount * (percentageNumber) / (10000) */\n      swap1\n      pop\n        /* \"DripWarrior/poolContract.sol\":12024:12034  serviceFee */\n      dup1\n        /* \"DripWarrior/poolContract.sol\":12017:12034  return serviceFee */\n      swap2\n      pop\n      pop\n        /* \"DripWarrior/poolContract.sol\":11644:12041  function calculatePercentage(uint256 _totalStakeAmount,uint256 percentageNumber) private pure returns(uint256) {... */\n      swap3\n      swap2\n      pop\n      pop\n      jump\t// out\n        /* \"@openzeppelin/contracts-upgradeable/utils/ContextUpgradeable.sol\":887:983  function _msgSender() internal view virtual returns (address) {... */\n    tag_489:\n        /* \"@openzeppelin/contracts-upgradeable/utils/ContextUpgradeable.sol\":940:947  address */\n      0x00\n        /* \"@openzeppelin/contracts-upgradeable/utils/ContextUpgradeable.sol\":966:976  msg.sender */\n      caller\n        /* \"@openzeppelin/contracts-upgradeable/utils/ContextUpgradeable.sol\":959:976  return msg.sender */\n      swap1\n      pop\n        /* \"@openzeppelin/contracts-upgradeable/utils/ContextUpgradeable.sol\":887:983  function _msgSender() internal view virtual returns (address) {... */\n      swap1\n      jump\t// out\n        /* \"@openzeppelin/contracts/proxy/ERC1967/ERC1967Utils.sol\":1957:2095  function getImplementation() internal view returns (address) {... */\n    tag_497:\n        /* \"@openzeppelin/contracts/proxy/ERC1967/ERC1967Utils.sol\":2009:2016  address */\n      0x00\n        /* \"@openzeppelin/contracts/proxy/ERC1967/ERC1967Utils.sol\":2035:2082  StorageSlot.getAddressSlot(IMPLEMENTATION_SLOT) */\n      tag_566\n        /* \"@openzeppelin/contracts/proxy/ERC1967/ERC1967Utils.sol\":1327:1393  0x360894a13ba1a3210667c828492db98dca3e2076cc3735a920a3ca505d382bbc */\n      0x360894a13ba1a3210667c828492db98dca3e2076cc3735a920a3ca505d382bbc\n        /* \"@openzeppelin/contracts/proxy/ERC1967/ERC1967Utils.sol\":2062:2081  IMPLEMENTATION_SLOT */\n      0x00\n      shl\n        /* \"@openzeppelin/contracts/proxy/ERC1967/ERC1967Utils.sol\":2035:2061  StorageSlot.getAddressSlot */\n      tag_567\n        /* \"@openzeppelin/contracts/proxy/ERC1967/ERC1967Utils.sol\":2035:2082  StorageSlot.getAddressSlot(IMPLEMENTATION_SLOT) */\n      jump\t// in\n    tag_566:\n        /* \"@openzeppelin/contracts/proxy/ERC1967/ERC1967Utils.sol\":2035:2088  StorageSlot.getAddressSlot(IMPLEMENTATION_SLOT).value */\n      0x00\n      add\n      0x00\n      swap1\n      sload\n      swap1\n      0x0100\n      exp\n      swap1\n      div\n      0xffffffffffffffffffffffffffffffffffffffff\n      and\n        /* \"@openzeppelin/contracts/proxy/ERC1967/ERC1967Utils.sol\":2028:2088  return StorageSlot.getAddressSlot(IMPLEMENTATION_SLOT).value */\n      swap1\n      pop\n        /* \"@openzeppelin/contracts/proxy/ERC1967/ERC1967Utils.sol\":1957:2095  function getImplementation() internal view returns (address) {... */\n      swap1\n      jump\t// out\n        /* \"@openzeppelin/contracts/proxy/ERC1967/ERC1967Utils.sol\":2779:3114  function upgradeToAndCall(address newImplementation, bytes memory data) internal {... */\n    tag_515:\n        /* \"@openzeppelin/contracts/proxy/ERC1967/ERC1967Utils.sol\":2870:2907  _setImplementation(newImplementation) */\n      tag_569\n        /* \"@openzeppelin/contracts/proxy/ERC1967/ERC1967Utils.sol\":2889:2906  newImplementation */\n      dup3\n        /* \"@openzeppelin/contracts/proxy/ERC1967/ERC1967Utils.sol\":2870:2888  _setImplementation */\n      tag_570\n        /* \"@openzeppelin/contracts/proxy/ERC1967/ERC1967Utils.sol\":2870:2907  _setImplementation(newImplementation) */\n      jump\t// in\n    tag_569:\n        /* \"@openzeppelin/contracts/proxy/ERC1967/ERC1967Utils.sol\":2931:2948  newImplementation */\n      dup2\n        /* \"@openzeppelin/contracts/proxy/ERC1967/ERC1967Utils.sol\":2922:2949  Upgraded(newImplementation) */\n      0xffffffffffffffffffffffffffffffffffffffff\n      and\n      0xbc7cd75a20ee27fd9adebab32041f755214dbc6bffa90cc0225b39da2e5c2d3b\n      mload(0x40)\n      mload(0x40)\n      dup1\n      swap2\n      sub\n      swap1\n      log2\n        /* \"@openzeppelin/contracts/proxy/ERC1967/ERC1967Utils.sol\":2978:2979  0 */\n      0x00\n        /* \"@openzeppelin/contracts/proxy/ERC1967/ERC1967Utils.sol\":2964:2968  data */\n      dup2\n        /* \"@openzeppelin/contracts/proxy/ERC1967/ERC1967Utils.sol\":2964:2975  data.length */\n      mload\n        /* \"@openzeppelin/contracts/proxy/ERC1967/ERC1967Utils.sol\":2964:2979  data.length > 0 */\n      gt\n        /* \"@openzeppelin/contracts/proxy/ERC1967/ERC1967Utils.sol\":2960:3108  if (data.length > 0) {... */\n      iszero\n      tag_571\n      jumpi\n        /* \"@openzeppelin/contracts/proxy/ERC1967/ERC1967Utils.sol\":2995:3048  Address.functionDelegateCall(newImplementation, data) */\n      tag_572\n        /* \"@openzeppelin/contracts/proxy/ERC1967/ERC1967Utils.sol\":3024:3041  newImplementation */\n      dup3\n        /* \"@openzeppelin/contracts/proxy/ERC1967/ERC1967Utils.sol\":3043:3047  data */\n      dup3\n        /* \"@openzeppelin/contracts/proxy/ERC1967/ERC1967Utils.sol\":2995:3023  Address.functionDelegateCall */\n      tag_573\n        /* \"@openzeppelin/contracts/proxy/ERC1967/ERC1967Utils.sol\":2995:3048  Address.functionDelegateCall(newImplementation, data) */\n      jump\t// in\n    tag_572:\n      pop\n        /* \"@openzeppelin/contracts/proxy/ERC1967/ERC1967Utils.sol\":2960:3108  if (data.length > 0) {... */\n      jump(tag_574)\n    tag_571:\n        /* \"@openzeppelin/contracts/proxy/ERC1967/ERC1967Utils.sol\":3079:3097  _checkNonPayable() */\n      tag_575\n        /* \"@openzeppelin/contracts/proxy/ERC1967/ERC1967Utils.sol\":3079:3095  _checkNonPayable */\n      tag_576\n        /* \"@openzeppelin/contracts/proxy/ERC1967/ERC1967Utils.sol\":3079:3097  _checkNonPayable() */\n      jump\t// in\n    tag_575:\n        /* \"@openzeppelin/contracts/proxy/ERC1967/ERC1967Utils.sol\":2960:3108  if (data.length > 0) {... */\n    tag_574:\n        /* \"@openzeppelin/contracts/proxy/ERC1967/ERC1967Utils.sol\":2779:3114  function upgradeToAndCall(address newImplementation, bytes memory data) internal {... */\n      pop\n      pop\n      jump\t// out\n        /* \"@openzeppelin/contracts-upgradeable/proxy/utils/Initializable.sol\":7084:7225  function _checkInitializing() internal view virtual {... */\n    tag_530:\n        /* \"@openzeppelin/contracts-upgradeable/proxy/utils/Initializable.sol\":7151:7168  _isInitializing() */\n      tag_578\n        /* \"@openzeppelin/contracts-upgradeable/proxy/utils/Initializable.sol\":7151:7166  _isInitializing */\n      tag_579\n        /* \"@openzeppelin/contracts-upgradeable/proxy/utils/Initializable.sol\":7151:7168  _isInitializing() */\n      jump\t// in\n    tag_578:\n        /* \"@openzeppelin/contracts-upgradeable/proxy/utils/Initializable.sol\":7146:7219  if (!_isInitializing()) {... */\n      tag_580\n      jumpi\n        /* \"@openzeppelin/contracts-upgradeable/proxy/utils/Initializable.sol\":7191:7208  NotInitializing() */\n      mload(0x40)\n      0xd7e6bcf800000000000000000000000000000000000000000000000000000000\n      dup2\n      mstore\n      0x04\n      add\n      mload(0x40)\n      dup1\n      swap2\n      sub\n      swap1\n      revert\n        /* \"@openzeppelin/contracts-upgradeable/proxy/utils/Initializable.sol\":7146:7219  if (!_isInitializing()) {... */\n    tag_580:\n        /* \"@openzeppelin/contracts-upgradeable/proxy/utils/Initializable.sol\":7084:7225  function _checkInitializing() internal view virtual {... */\n      jump\t// out\n        /* \"@openzeppelin/contracts-upgradeable/access/OwnableUpgradeable.sol\":1980:2215  function __Ownable_init_unchained(address initialOwner) internal onlyInitializing {... */\n    tag_533:\n        /* \"@openzeppelin/contracts-upgradeable/proxy/utils/Initializable.sol\":6931:6951  _checkInitializing() */\n      tag_582\n        /* \"@openzeppelin/contracts-upgradeable/proxy/utils/Initializable.sol\":6931:6949  _checkInitializing */\n      tag_530\n        /* \"@openzeppelin/contracts-upgradeable/proxy/utils/Initializable.sol\":6931:6951  _checkInitializing() */\n      jump\t// in\n    tag_582:\n        /* \"@openzeppelin/contracts-upgradeable/access/OwnableUpgradeable.sol\":2100:2101  0 */\n      0x00\n        /* \"@openzeppelin/contracts-upgradeable/access/OwnableUpgradeable.sol\":2076:2102  initialOwner == address(0) */\n      0xffffffffffffffffffffffffffffffffffffffff\n      and\n        /* \"@openzeppelin/contracts-upgradeable/access/OwnableUpgradeable.sol\":2076:2088  initialOwner */\n      dup2\n        /* \"@openzeppelin/contracts-upgradeable/access/OwnableUpgradeable.sol\":2076:2102  initialOwner == address(0) */\n      0xffffffffffffffffffffffffffffffffffffffff\n      and\n      sub\n        /* \"@openzeppelin/contracts-upgradeable/access/OwnableUpgradeable.sol\":2072:2167  if (initialOwner == address(0)) {... */\n      tag_584\n      jumpi\n        /* \"@openzeppelin/contracts-upgradeable/access/OwnableUpgradeable.sol\":2153:2154  0 */\n      0x00\n        /* \"@openzeppelin/contracts-upgradeable/access/OwnableUpgradeable.sol\":2125:2156  OwnableInvalidOwner(address(0)) */\n      mload(0x40)\n      0x1e4fbdf700000000000000000000000000000000000000000000000000000000\n      dup2\n      mstore\n      0x04\n      add\n      tag_585\n      swap2\n      swap1\n      tag_80\n      jump\t// in\n    tag_585:\n      mload(0x40)\n      dup1\n      swap2\n      sub\n      swap1\n      revert\n        /* \"@openzeppelin/contracts-upgradeable/access/OwnableUpgradeable.sol\":2072:2167  if (initialOwner == address(0)) {... */\n    tag_584:\n        /* \"@openzeppelin/contracts-upgradeable/access/OwnableUpgradeable.sol\":2176:2208  _transferOwnership(initialOwner) */\n      tag_586\n        /* \"@openzeppelin/contracts-upgradeable/access/OwnableUpgradeable.sol\":2195:2207  initialOwner */\n      dup2\n        /* \"@openzeppelin/contracts-upgradeable/access/OwnableUpgradeable.sol\":2176:2194  _transferOwnership */\n      tag_325\n        /* \"@openzeppelin/contracts-upgradeable/access/OwnableUpgradeable.sol\":2176:2208  _transferOwnership(initialOwner) */\n      jump\t// in\n    tag_586:\n        /* \"@openzeppelin/contracts-upgradeable/access/OwnableUpgradeable.sol\":1980:2215  function __Ownable_init_unchained(address initialOwner) internal onlyInitializing {... */\n      pop\n      jump\t// out\n        /* \"@openzeppelin/contracts/utils/StorageSlot.sol\":1684:1874  function getAddressSlot(bytes32 slot) internal pure returns (AddressSlot storage r) {... */\n    tag_567:\n        /* \"@openzeppelin/contracts/utils/StorageSlot.sol\":1745:1766  AddressSlot storage r */\n      0x00\n        /* \"@openzeppelin/contracts/utils/StorageSlot.sol\":1854:1858  slot */\n      dup2\n        /* \"@openzeppelin/contracts/utils/StorageSlot.sol\":1844:1858  r.slot := slot */\n      swap1\n      pop\n        /* \"@openzeppelin/contracts/utils/StorageSlot.sol\":1684:1874  function getAddressSlot(bytes32 slot) internal pure returns (AddressSlot storage r) {... */\n      swap2\n      swap1\n      pop\n      jump\t// out\n        /* \"@openzeppelin/contracts/proxy/ERC1967/ERC1967Utils.sol\":2186:2467  function _setImplementation(address newImplementation) private {... */\n    tag_570:\n        /* \"@openzeppelin/contracts/proxy/ERC1967/ERC1967Utils.sol\":2296:2297  0 */\n      0x00\n        /* \"@openzeppelin/contracts/proxy/ERC1967/ERC1967Utils.sol\":2263:2280  newImplementation */\n      dup2\n        /* \"@openzeppelin/contracts/proxy/ERC1967/ERC1967Utils.sol\":2263:2292  newImplementation.code.length */\n      0xffffffffffffffffffffffffffffffffffffffff\n      and\n      extcodesize\n        /* \"@openzeppelin/contracts/proxy/ERC1967/ERC1967Utils.sol\":2263:2297  newImplementation.code.length == 0 */\n      sub\n        /* \"@openzeppelin/contracts/proxy/ERC1967/ERC1967Utils.sol\":2259:2378  if (newImplementation.code.length == 0) {... */\n      tag_589\n      jumpi\n        /* \"@openzeppelin/contracts/proxy/ERC1967/ERC1967Utils.sol\":2349:2366  newImplementation */\n      dup1\n        /* \"@openzeppelin/contracts/proxy/ERC1967/ERC1967Utils.sol\":2320:2367  ERC1967InvalidImplementation(newImplementation) */\n      mload(0x40)\n      0x4c9c8ce300000000000000000000000000000000000000000000000000000000\n      dup2\n      mstore\n      0x04\n      add\n      tag_590\n      swap2\n      swap1\n      tag_80\n      jump\t// in\n    tag_590:\n      mload(0x40)\n      dup1\n      swap2\n      sub\n      swap1\n      revert\n        /* \"@openzeppelin/contracts/proxy/ERC1967/ERC1967Utils.sol\":2259:2378  if (newImplementation.code.length == 0) {... */\n    tag_589:\n        /* \"@openzeppelin/contracts/proxy/ERC1967/ERC1967Utils.sol\":2443:2460  newImplementation */\n      dup1\n        /* \"@openzeppelin/contracts/proxy/ERC1967/ERC1967Utils.sol\":2387:2434  StorageSlot.getAddressSlot(IMPLEMENTATION_SLOT) */\n      tag_591\n        /* \"@openzeppelin/contracts/proxy/ERC1967/ERC1967Utils.sol\":1327:1393  0x360894a13ba1a3210667c828492db98dca3e2076cc3735a920a3ca505d382bbc */\n      0x360894a13ba1a3210667c828492db98dca3e2076cc3735a920a3ca505d382bbc\n        /* \"@openzeppelin/contracts/proxy/ERC1967/ERC1967Utils.sol\":2414:2433  IMPLEMENTATION_SLOT */\n      0x00\n      shl\n        /* \"@openzeppelin/contracts/proxy/ERC1967/ERC1967Utils.sol\":2387:2413  StorageSlot.getAddressSlot */\n      tag_567\n        /* \"@openzeppelin/contracts/proxy/ERC1967/ERC1967Utils.sol\":2387:2434  StorageSlot.getAddressSlot(IMPLEMENTATION_SLOT) */\n      jump\t// in\n    tag_591:\n        /* \"@openzeppelin/contracts/proxy/ERC1967/ERC1967Utils.sol\":2387:2440  StorageSlot.getAddressSlot(IMPLEMENTATION_SLOT).value */\n      0x00\n      add\n      0x00\n        /* \"@openzeppelin/contracts/proxy/ERC1967/ERC1967Utils.sol\":2387:2460  StorageSlot.getAddressSlot(IMPLEMENTATION_SLOT).value = newImplementation */\n      0x0100\n      exp\n      dup2\n      sload\n      dup2\n      0xffffffffffffffffffffffffffffffffffffffff\n      mul\n      not\n      and\n      swap1\n      dup4\n      0xffffffffffffffffffffffffffffffffffffffff\n      and\n      mul\n      or\n      swap1\n      sstore\n      pop\n        /* \"@openzeppelin/contracts/proxy/ERC1967/ERC1967Utils.sol\":2186:2467  function _setImplementation(address newImplementation) private {... */\n      pop\n      jump\t// out\n        /* \"@openzeppelin/contracts/utils/Address.sol\":4106:4359  function functionDelegateCall(address target, bytes memory data) internal returns (bytes memory) {... */\n    tag_573:\n        /* \"@openzeppelin/contracts/utils/Address.sol\":4189:4201  bytes memory */\n      0x60\n        /* \"@openzeppelin/contracts/utils/Address.sol\":4214:4226  bool success */\n      0x00\n        /* \"@openzeppelin/contracts/utils/Address.sol\":4228:4251  bytes memory returndata */\n      0x00\n        /* \"@openzeppelin/contracts/utils/Address.sol\":4255:4261  target */\n      dup5\n        /* \"@openzeppelin/contracts/utils/Address.sol\":4255:4274  target.delegatecall */\n      0xffffffffffffffffffffffffffffffffffffffff\n      and\n        /* \"@openzeppelin/contracts/utils/Address.sol\":4275:4279  data */\n      dup5\n        /* \"@openzeppelin/contracts/utils/Address.sol\":4255:4280  target.delegatecall(data) */\n      mload(0x40)\n      tag_593\n      swap2\n      swap1\n      tag_594\n      jump\t// in\n    tag_593:\n      0x00\n      mload(0x40)\n      dup1\n      dup4\n      sub\n      dup2\n      dup6\n      gas\n      delegatecall\n      swap2\n      pop\n      pop\n      returndatasize\n      dup1\n      0x00\n      dup2\n      eq\n      tag_597\n      jumpi\n      mload(0x40)\n      swap2\n      pop\n      and(add(returndatasize, 0x3f), not(0x1f))\n      dup3\n      add\n      0x40\n      mstore\n      returndatasize\n      dup3\n      mstore\n      returndatasize\n      0x00\n      0x20\n      dup5\n      add\n      returndatacopy\n      jump(tag_596)\n    tag_597:\n      0x60\n      swap2\n      pop\n    tag_596:\n      pop\n        /* \"@openzeppelin/contracts/utils/Address.sol\":4213:4280  (bool success, bytes memory returndata) = target.delegatecall(data) */\n      swap2\n      pop\n      swap2\n      pop\n        /* \"@openzeppelin/contracts/utils/Address.sol\":4297:4352  verifyCallResultFromTarget(target, success, returndata) */\n      tag_598\n        /* \"@openzeppelin/contracts/utils/Address.sol\":4324:4330  target */\n      dup6\n        /* \"@openzeppelin/contracts/utils/Address.sol\":4332:4339  success */\n      dup4\n        /* \"@openzeppelin/contracts/utils/Address.sol\":4341:4351  returndata */\n      dup4\n        /* \"@openzeppelin/contracts/utils/Address.sol\":4297:4323  verifyCallResultFromTarget */\n      tag_599\n        /* \"@openzeppelin/contracts/utils/Address.sol\":4297:4352  verifyCallResultFromTarget(target, success, returndata) */\n      jump\t// in\n    tag_598:\n        /* \"@openzeppelin/contracts/utils/Address.sol\":4290:4352  return verifyCallResultFromTarget(target, success, returndata) */\n      swap3\n      pop\n      pop\n      pop\n        /* \"@openzeppelin/contracts/utils/Address.sol\":4106:4359  function functionDelegateCall(address target, bytes memory data) internal returns (bytes memory) {... */\n      swap3\n      swap2\n      pop\n      pop\n      jump\t// out\n        /* \"@openzeppelin/contracts/proxy/ERC1967/ERC1967Utils.sol\":6598:6720  function _checkNonPayable() private {... */\n    tag_576:\n        /* \"@openzeppelin/contracts/proxy/ERC1967/ERC1967Utils.sol\":6660:6661  0 */\n      0x00\n        /* \"@openzeppelin/contracts/proxy/ERC1967/ERC1967Utils.sol\":6648:6657  msg.value */\n      callvalue\n        /* \"@openzeppelin/contracts/proxy/ERC1967/ERC1967Utils.sol\":6648:6661  msg.value > 0 */\n      gt\n        /* \"@openzeppelin/contracts/proxy/ERC1967/ERC1967Utils.sol\":6644:6714  if (msg.value > 0) {... */\n      iszero\n      tag_601\n      jumpi\n        /* \"@openzeppelin/contracts/proxy/ERC1967/ERC1967Utils.sol\":6684:6703  ERC1967NonPayable() */\n      mload(0x40)\n      0xb398979f00000000000000000000000000000000000000000000000000000000\n      dup2\n      mstore\n      0x04\n      add\n      mload(0x40)\n      dup1\n      swap2\n      sub\n      swap1\n      revert\n        /* \"@openzeppelin/contracts/proxy/ERC1967/ERC1967Utils.sol\":6644:6714  if (msg.value > 0) {... */\n    tag_601:\n        /* \"@openzeppelin/contracts/proxy/ERC1967/ERC1967Utils.sol\":6598:6720  function _checkNonPayable() private {... */\n      jump\t// out\n        /* \"@openzeppelin/contracts-upgradeable/proxy/utils/Initializable.sol\":8487:8607  function _isInitializing() internal view returns (bool) {... */\n    tag_579:\n        /* \"@openzeppelin/contracts-upgradeable/proxy/utils/Initializable.sol\":8537:8541  bool */\n      0x00\n        /* \"@openzeppelin/contracts-upgradeable/proxy/utils/Initializable.sol\":8560:8586  _getInitializableStorage() */\n      tag_603\n        /* \"@openzeppelin/contracts-upgradeable/proxy/utils/Initializable.sol\":8560:8584  _getInitializableStorage */\n      tag_411\n        /* \"@openzeppelin/contracts-upgradeable/proxy/utils/Initializable.sol\":8560:8586  _getInitializableStorage() */\n      jump\t// in\n    tag_603:\n        /* \"@openzeppelin/contracts-upgradeable/proxy/utils/Initializable.sol\":8560:8600  _getInitializableStorage()._initializing */\n      0x00\n      add\n      0x08\n      swap1\n      sload\n      swap1\n      0x0100\n      exp\n      swap1\n      div\n      0xff\n      and\n        /* \"@openzeppelin/contracts-upgradeable/proxy/utils/Initializable.sol\":8553:8600  return _getInitializableStorage()._initializing */\n      swap1\n      pop\n        /* \"@openzeppelin/contracts-upgradeable/proxy/utils/Initializable.sol\":8487:8607  function _isInitializing() internal view returns (bool) {... */\n      swap1\n      jump\t// out\n        /* \"@openzeppelin/contracts/utils/Address.sol\":4625:5207  function verifyCallResultFromTarget(... */\n    tag_599:\n        /* \"@openzeppelin/contracts/utils/Address.sol\":4769:4781  bytes memory */\n      0x60\n        /* \"@openzeppelin/contracts/utils/Address.sol\":4798:4805  success */\n      dup3\n        /* \"@openzeppelin/contracts/utils/Address.sol\":4793:5201  if (!success) {... */\n      tag_605\n      jumpi\n        /* \"@openzeppelin/contracts/utils/Address.sol\":4821:4840  _revert(returndata) */\n      tag_606\n        /* \"@openzeppelin/contracts/utils/Address.sol\":4829:4839  returndata */\n      dup3\n        /* \"@openzeppelin/contracts/utils/Address.sol\":4821:4828  _revert */\n      tag_607\n        /* \"@openzeppelin/contracts/utils/Address.sol\":4821:4840  _revert(returndata) */\n      jump\t// in\n    tag_606:\n        /* \"@openzeppelin/contracts/utils/Address.sol\":4793:5201  if (!success) {... */\n      jump(tag_608)\n    tag_605:\n        /* \"@openzeppelin/contracts/utils/Address.sol\":5066:5067  0 */\n      0x00\n        /* \"@openzeppelin/contracts/utils/Address.sol\":5045:5055  returndata */\n      dup3\n        /* \"@openzeppelin/contracts/utils/Address.sol\":5045:5062  returndata.length */\n      mload\n        /* \"@openzeppelin/contracts/utils/Address.sol\":5045:5067  returndata.length == 0 */\n      eq\n        /* \"@openzeppelin/contracts/utils/Address.sol\":5045:5094  returndata.length == 0 && target.code.length == 0 */\n      dup1\n      iszero\n      tag_609\n      jumpi\n      pop\n        /* \"@openzeppelin/contracts/utils/Address.sol\":5093:5094  0 */\n      0x00\n        /* \"@openzeppelin/contracts/utils/Address.sol\":5071:5077  target */\n      dup5\n        /* \"@openzeppelin/contracts/utils/Address.sol\":5071:5089  target.code.length */\n      0xffffffffffffffffffffffffffffffffffffffff\n      and\n      extcodesize\n        /* \"@openzeppelin/contracts/utils/Address.sol\":5071:5094  target.code.length == 0 */\n      eq\n        /* \"@openzeppelin/contracts/utils/Address.sol\":5045:5094  returndata.length == 0 && target.code.length == 0 */\n    tag_609:\n        /* \"@openzeppelin/contracts/utils/Address.sol\":5041:5160  if (returndata.length == 0 && target.code.length == 0) {... */\n      iszero\n      tag_610\n      jumpi\n        /* \"@openzeppelin/contracts/utils/Address.sol\":5138:5144  target */\n      dup4\n        /* \"@openzeppelin/contracts/utils/Address.sol\":5121:5145  AddressEmptyCode(target) */\n      mload(0x40)\n      0x9996b31500000000000000000000000000000000000000000000000000000000\n      dup2\n      mstore\n      0x04\n      add\n      tag_611\n      swap2\n      swap1\n      tag_80\n      jump\t// in\n    tag_611:\n      mload(0x40)\n      dup1\n      swap2\n      sub\n      swap1\n      revert\n        /* \"@openzeppelin/contracts/utils/Address.sol\":5041:5160  if (returndata.length == 0 && target.code.length == 0) {... */\n    tag_610:\n        /* \"@openzeppelin/contracts/utils/Address.sol\":5180:5190  returndata */\n      dup2\n        /* \"@openzeppelin/contracts/utils/Address.sol\":5173:5190  return returndata */\n      swap1\n      pop\n      jump(tag_604)\n        /* \"@openzeppelin/contracts/utils/Address.sol\":4793:5201  if (!success) {... */\n    tag_608:\n        /* \"@openzeppelin/contracts/utils/Address.sol\":4625:5207  function verifyCallResultFromTarget(... */\n    tag_604:\n      swap4\n      swap3\n      pop\n      pop\n      pop\n      jump\t// out\n        /* \"@openzeppelin/contracts/utils/Address.sol\":5743:6259  function _revert(bytes memory returndata) private pure {... */\n    tag_607:\n        /* \"@openzeppelin/contracts/utils/Address.sol\":5894:5895  0 */\n      0x00\n        /* \"@openzeppelin/contracts/utils/Address.sol\":5874:5884  returndata */\n      dup2\n        /* \"@openzeppelin/contracts/utils/Address.sol\":5874:5891  returndata.length */\n      mload\n        /* \"@openzeppelin/contracts/utils/Address.sol\":5874:5895  returndata.length > 0 */\n      gt\n        /* \"@openzeppelin/contracts/utils/Address.sol\":5870:6253  if (returndata.length > 0) {... */\n      iszero\n      tag_613\n      jumpi\n        /* \"@openzeppelin/contracts/utils/Address.sol\":6102:6112  returndata */\n      dup1\n        /* \"@openzeppelin/contracts/utils/Address.sol\":6096:6113  mload(returndata) */\n      mload\n        /* \"@openzeppelin/contracts/utils/Address.sol\":6158:6173  returndata_size */\n      dup1\n        /* \"@openzeppelin/contracts/utils/Address.sol\":6145:6155  returndata */\n      dup3\n        /* \"@openzeppelin/contracts/utils/Address.sol\":6141:6143  32 */\n      0x20\n        /* \"@openzeppelin/contracts/utils/Address.sol\":6137:6156  add(32, returndata) */\n      add\n        /* \"@openzeppelin/contracts/utils/Address.sol\":6130:6174  revert(add(32, returndata), returndata_size) */\n      revert\n        /* \"@openzeppelin/contracts/utils/Address.sol\":5870:6253  if (returndata.length > 0) {... */\n    tag_613:\n        /* \"@openzeppelin/contracts/utils/Address.sol\":6225:6242  FailedInnerCall() */\n      mload(0x40)\n      0x1425ea4200000000000000000000000000000000000000000000000000000000\n      dup2\n      mstore\n      0x04\n      add\n      mload(0x40)\n      dup1\n      swap2\n      sub\n      swap1\n      revert\n        /* \"#utility.yul\":7:84   */\n    tag_615:\n        /* \"#utility.yul\":44:51   */\n      0x00\n        /* \"#utility.yul\":73:78   */\n      dup2\n        /* \"#utility.yul\":62:78   */\n      swap1\n      pop\n        /* \"#utility.yul\":7:84   */\n      swap2\n      swap1\n      pop\n      jump\t// out\n        /* \"#utility.yul\":90:208   */\n    tag_616:\n        /* \"#utility.yul\":177:201   */\n      tag_684\n        /* \"#utility.yul\":195:200   */\n      dup2\n        /* \"#utility.yul\":177:201   */\n      tag_615\n      jump\t// in\n    tag_684:\n        /* \"#utility.yul\":172:175   */\n      dup3\n        /* \"#utility.yul\":165:202   */\n      mstore\n        /* \"#utility.yul\":90:208   */\n      pop\n      pop\n      jump\t// out\n        /* \"#utility.yul\":214:436   */\n    tag_57:\n        /* \"#utility.yul\":307:311   */\n      0x00\n        /* \"#utility.yul\":345:347   */\n      0x20\n        /* \"#utility.yul\":334:343   */\n      dup3\n        /* \"#utility.yul\":330:348   */\n      add\n        /* \"#utility.yul\":322:348   */\n      swap1\n      pop\n        /* \"#utility.yul\":358:429   */\n      tag_686\n        /* \"#utility.yul\":426:427   */\n      0x00\n        /* \"#utility.yul\":415:424   */\n      dup4\n        /* \"#utility.yul\":411:428   */\n      add\n        /* \"#utility.yul\":402:408   */\n      dup5\n        /* \"#utility.yul\":358:429   */\n      tag_616\n      jump\t// in\n    tag_686:\n        /* \"#utility.yul\":214:436   */\n      swap3\n      swap2\n      pop\n      pop\n      jump\t// out\n        /* \"#utility.yul\":442:568   */\n    tag_617:\n        /* \"#utility.yul\":479:486   */\n      0x00\n        /* \"#utility.yul\":519:561   */\n      0xffffffffffffffffffffffffffffffffffffffff\n        /* \"#utility.yul\":512:517   */\n      dup3\n        /* \"#utility.yul\":508:562   */\n      and\n        /* \"#utility.yul\":497:562   */\n      swap1\n      pop\n        /* \"#utility.yul\":442:568   */\n      swap2\n      swap1\n      pop\n      jump\t// out\n        /* \"#utility.yul\":574:634   */\n    tag_618:\n        /* \"#utility.yul\":602:605   */\n      0x00\n        /* \"#utility.yul\":623:628   */\n      dup2\n        /* \"#utility.yul\":616:628   */\n      swap1\n      pop\n        /* \"#utility.yul\":574:634   */\n      swap2\n      swap1\n      pop\n      jump\t// out\n        /* \"#utility.yul\":640:782   */\n    tag_619:\n        /* \"#utility.yul\":690:699   */\n      0x00\n        /* \"#utility.yul\":723:776   */\n      tag_690\n        /* \"#utility.yul\":741:775   */\n      tag_691\n        /* \"#utility.yul\":750:774   */\n      tag_692\n        /* \"#utility.yul\":768:773   */\n      dup5\n        /* \"#utility.yul\":750:774   */\n      tag_617\n      jump\t// in\n    tag_692:\n        /* \"#utility.yul\":741:775   */\n      tag_618\n      jump\t// in\n    tag_691:\n        /* \"#utility.yul\":723:776   */\n      tag_617\n      jump\t// in\n    tag_690:\n        /* \"#utility.yul\":710:776   */\n      swap1\n      pop\n        /* \"#utility.yul\":640:782   */\n      swap2\n      swap1\n      pop\n      jump\t// out\n        /* \"#utility.yul\":788:914   */\n    tag_620:\n        /* \"#utility.yul\":838:847   */\n      0x00\n        /* \"#utility.yul\":871:908   */\n      tag_694\n        /* \"#utility.yul\":902:907   */\n      dup3\n        /* \"#utility.yul\":871:908   */\n      tag_619\n      jump\t// in\n    tag_694:\n        /* \"#utility.yul\":858:908   */\n      swap1\n      pop\n        /* \"#utility.yul\":788:914   */\n      swap2\n      swap1\n      pop\n      jump\t// out\n        /* \"#utility.yul\":920:1061   */\n    tag_621:\n        /* \"#utility.yul\":985:994   */\n      0x00\n        /* \"#utility.yul\":1018:1055   */\n      tag_696\n        /* \"#utility.yul\":1049:1054   */\n      dup3\n        /* \"#utility.yul\":1018:1055   */\n      tag_620\n      jump\t// in\n    tag_696:\n        /* \"#utility.yul\":1005:1055   */\n      swap1\n      pop\n        /* \"#utility.yul\":920:1061   */\n      swap2\n      swap1\n      pop\n      jump\t// out\n        /* \"#utility.yul\":1067:1228   */\n    tag_622:\n        /* \"#utility.yul\":1169:1221   */\n      tag_698\n        /* \"#utility.yul\":1215:1220   */\n      dup2\n        /* \"#utility.yul\":1169:1221   */\n      tag_621\n      jump\t// in\n    tag_698:\n        /* \"#utility.yul\":1164:1167   */\n      dup3\n        /* \"#utility.yul\":1157:1222   */\n      mstore\n        /* \"#utility.yul\":1067:1228   */\n      pop\n      pop\n      jump\t// out\n        /* \"#utility.yul\":1234:1486   */\n    tag_62:\n        /* \"#utility.yul\":1342:1346   */\n      0x00\n        /* \"#utility.yul\":1380:1382   */\n      0x20\n        /* \"#utility.yul\":1369:1378   */\n      dup3\n        /* \"#utility.yul\":1365:1383   */\n      add\n        /* \"#utility.yul\":1357:1383   */\n      swap1\n      pop\n        /* \"#utility.yul\":1393:1479   */\n      tag_700\n        /* \"#utility.yul\":1476:1477   */\n      0x00\n        /* \"#utility.yul\":1465:1474   */\n      dup4\n        /* \"#utility.yul\":1461:1478   */\n      add\n        /* \"#utility.yul\":1452:1458   */\n      dup5\n        /* \"#utility.yul\":1393:1479   */\n      tag_622\n      jump\t// in\n    tag_700:\n        /* \"#utility.yul\":1234:1486   */\n      swap3\n      swap2\n      pop\n      pop\n      jump\t// out\n        /* \"#utility.yul\":1492:1567   */\n    tag_623:\n        /* \"#utility.yul\":1525:1531   */\n      0x00\n        /* \"#utility.yul\":1558:1560   */\n      0x40\n        /* \"#utility.yul\":1552:1561   */\n      mload\n        /* \"#utility.yul\":1542:1561   */\n      swap1\n      pop\n        /* \"#utility.yul\":1492:1567   */\n      swap1\n      jump\t// out\n        /* \"#utility.yul\":1573:1690   */\n    tag_624:\n        /* \"#utility.yul\":1682:1683   */\n      0x00\n        /* \"#utility.yul\":1679:1680   */\n      0x00\n        /* \"#utility.yul\":1672:1684   */\n      revert\n        /* \"#utility.yul\":1696:1813   */\n    tag_625:\n        /* \"#utility.yul\":1805:1806   */\n      0x00\n        /* \"#utility.yul\":1802:1803   */\n      0x00\n        /* \"#utility.yul\":1795:1807   */\n      revert\n        /* \"#utility.yul\":1819:1941   */\n    tag_626:\n        /* \"#utility.yul\":1892:1916   */\n      tag_705\n        /* \"#utility.yul\":1910:1915   */\n      dup2\n        /* \"#utility.yul\":1892:1916   */\n      tag_615\n      jump\t// in\n    tag_705:\n        /* \"#utility.yul\":1885:1890   */\n      dup2\n        /* \"#utility.yul\":1882:1917   */\n      eq\n        /* \"#utility.yul\":1872:1935   */\n      tag_706\n      jumpi\n        /* \"#utility.yul\":1931:1932   */\n      0x00\n        /* \"#utility.yul\":1928:1929   */\n      0x00\n        /* \"#utility.yul\":1921:1933   */\n      revert\n        /* \"#utility.yul\":1872:1935   */\n    tag_706:\n        /* \"#utility.yul\":1819:1941   */\n      pop\n      jump\t// out\n        /* \"#utility.yul\":1947:2086   */\n    tag_627:\n        /* \"#utility.yul\":1993:1998   */\n      0x00\n        /* \"#utility.yul\":2031:2037   */\n      dup2\n        /* \"#utility.yul\":2018:2038   */\n      calldataload\n        /* \"#utility.yul\":2009:2038   */\n      swap1\n      pop\n        /* \"#utility.yul\":2047:2080   */\n      tag_708\n        /* \"#utility.yul\":2074:2079   */\n      dup2\n        /* \"#utility.yul\":2047:2080   */\n      tag_626\n      jump\t// in\n    tag_708:\n        /* \"#utility.yul\":1947:2086   */\n      swap3\n      swap2\n      pop\n      pop\n      jump\t// out\n        /* \"#utility.yul\":2092:2421   */\n    tag_70:\n        /* \"#utility.yul\":2151:2157   */\n      0x00\n        /* \"#utility.yul\":2200:2202   */\n      0x20\n        /* \"#utility.yul\":2188:2197   */\n      dup3\n        /* \"#utility.yul\":2179:2186   */\n      dup5\n        /* \"#utility.yul\":2175:2198   */\n      sub\n        /* \"#utility.yul\":2171:2203   */\n      slt\n        /* \"#utility.yul\":2168:2287   */\n      iszero\n      tag_710\n      jumpi\n        /* \"#utility.yul\":2206:2285   */\n      tag_711\n      tag_624\n      jump\t// in\n    tag_711:\n        /* \"#utility.yul\":2168:2287   */\n    tag_710:\n        /* \"#utility.yul\":2326:2327   */\n      0x00\n        /* \"#utility.yul\":2351:2404   */\n      tag_712\n        /* \"#utility.yul\":2396:2403   */\n      dup5\n        /* \"#utility.yul\":2387:2393   */\n      dup3\n        /* \"#utility.yul\":2376:2385   */\n      dup6\n        /* \"#utility.yul\":2372:2394   */\n      add\n        /* \"#utility.yul\":2351:2404   */\n      tag_627\n      jump\t// in\n    tag_712:\n        /* \"#utility.yul\":2341:2404   */\n      swap2\n      pop\n        /* \"#utility.yul\":2297:2414   */\n      pop\n        /* \"#utility.yul\":2092:2421   */\n      swap3\n      swap2\n      pop\n      pop\n      jump\t// out\n        /* \"#utility.yul\":2427:2523   */\n    tag_628:\n        /* \"#utility.yul\":2464:2471   */\n      0x00\n        /* \"#utility.yul\":2493:2517   */\n      tag_714\n        /* \"#utility.yul\":2511:2516   */\n      dup3\n        /* \"#utility.yul\":2493:2517   */\n      tag_617\n      jump\t// in\n    tag_714:\n        /* \"#utility.yul\":2482:2517   */\n      swap1\n      pop\n        /* \"#utility.yul\":2427:2523   */\n      swap2\n      swap1\n      pop\n      jump\t// out\n        /* \"#utility.yul\":2529:2647   */\n    tag_629:\n        /* \"#utility.yul\":2616:2640   */\n      tag_716\n        /* \"#utility.yul\":2634:2639   */\n      dup2\n        /* \"#utility.yul\":2616:2640   */\n      tag_628\n      jump\t// in\n    tag_716:\n        /* \"#utility.yul\":2611:2614   */\n      dup3\n        /* \"#utility.yul\":2604:2641   */\n      mstore\n        /* \"#utility.yul\":2529:2647   */\n      pop\n      pop\n      jump\t// out\n        /* \"#utility.yul\":2653:2875   */\n    tag_80:\n        /* \"#utility.yul\":2746:2750   */\n      0x00\n        /* \"#utility.yul\":2784:2786   */\n      0x20\n        /* \"#utility.yul\":2773:2782   */\n      dup3\n        /* \"#utility.yul\":2769:2787   */\n      add\n        /* \"#utility.yul\":2761:2787   */\n      swap1\n      pop\n        /* \"#utility.yul\":2797:2868   */\n      tag_718\n        /* \"#utility.yul\":2865:2866   */\n      0x00\n        /* \"#utility.yul\":2854:2863   */\n      dup4\n        /* \"#utility.yul\":2850:2867   */\n      add\n        /* \"#utility.yul\":2841:2847   */\n      dup5\n        /* \"#utility.yul\":2797:2868   */\n      tag_629\n      jump\t// in\n    tag_718:\n        /* \"#utility.yul\":2653:2875   */\n      swap3\n      swap2\n      pop\n      pop\n      jump\t// out\n        /* \"#utility.yul\":2881:2998   */\n    tag_630:\n        /* \"#utility.yul\":2990:2991   */\n      0x00\n        /* \"#utility.yul\":2987:2988   */\n      0x00\n        /* \"#utility.yul\":2980:2992   */\n      revert\n        /* \"#utility.yul\":3004:3121   */\n    tag_631:\n        /* \"#utility.yul\":3113:3114   */\n      0x00\n        /* \"#utility.yul\":3110:3111   */\n      0x00\n        /* \"#utility.yul\":3103:3115   */\n      revert\n        /* \"#utility.yul\":3127:3244   */\n    tag_632:\n        /* \"#utility.yul\":3236:3237   */\n      0x00\n        /* \"#utility.yul\":3233:3234   */\n      0x00\n        /* \"#utility.yul\":3226:3238   */\n      revert\n        /* \"#utility.yul\":3263:3815   */\n    tag_633:\n        /* \"#utility.yul\":3320:3328   */\n      0x00\n        /* \"#utility.yul\":3330:3336   */\n      0x00\n        /* \"#utility.yul\":3380:3383   */\n      dup4\n        /* \"#utility.yul\":3373:3377   */\n      0x1f\n        /* \"#utility.yul\":3365:3371   */\n      dup5\n        /* \"#utility.yul\":3361:3378   */\n      add\n        /* \"#utility.yul\":3357:3384   */\n      slt\n        /* \"#utility.yul\":3347:3469   */\n      tag_723\n      jumpi\n        /* \"#utility.yul\":3388:3467   */\n      tag_724\n      tag_630\n      jump\t// in\n    tag_724:\n        /* \"#utility.yul\":3347:3469   */\n    tag_723:\n        /* \"#utility.yul\":3501:3507   */\n      dup3\n        /* \"#utility.yul\":3488:3508   */\n      calldataload\n        /* \"#utility.yul\":3478:3508   */\n      swap1\n      pop\n        /* \"#utility.yul\":3531:3549   */\n      0xffffffffffffffff\n        /* \"#utility.yul\":3523:3529   */\n      dup2\n        /* \"#utility.yul\":3520:3550   */\n      gt\n        /* \"#utility.yul\":3517:3634   */\n      iszero\n      tag_725\n      jumpi\n        /* \"#utility.yul\":3553:3632   */\n      tag_726\n      tag_631\n      jump\t// in\n    tag_726:\n        /* \"#utility.yul\":3517:3634   */\n    tag_725:\n        /* \"#utility.yul\":3667:3671   */\n      0x20\n        /* \"#utility.yul\":3659:3665   */\n      dup4\n        /* \"#utility.yul\":3655:3672   */\n      add\n        /* \"#utility.yul\":3643:3672   */\n      swap2\n      pop\n        /* \"#utility.yul\":3721:3724   */\n      dup4\n        /* \"#utility.yul\":3713:3717   */\n      0x01\n        /* \"#utility.yul\":3705:3711   */\n      dup3\n        /* \"#utility.yul\":3701:3718   */\n      mul\n        /* \"#utility.yul\":3691:3699   */\n      dup4\n        /* \"#utility.yul\":3687:3719   */\n      add\n        /* \"#utility.yul\":3684:3725   */\n      gt\n        /* \"#utility.yul\":3681:3809   */\n      iszero\n      tag_727\n      jumpi\n        /* \"#utility.yul\":3728:3807   */\n      tag_728\n      tag_632\n      jump\t// in\n    tag_728:\n        /* \"#utility.yul\":3681:3809   */\n    tag_727:\n        /* \"#utility.yul\":3263:3815   */\n      swap3\n      pop\n      swap3\n      swap1\n      pop\n      jump\t// out\n        /* \"#utility.yul\":3821:4348   */\n    tag_100:\n        /* \"#utility.yul\":3891:3897   */\n      0x00\n        /* \"#utility.yul\":3899:3905   */\n      0x00\n        /* \"#utility.yul\":3948:3950   */\n      0x20\n        /* \"#utility.yul\":3936:3945   */\n      dup4\n        /* \"#utility.yul\":3927:3934   */\n      dup6\n        /* \"#utility.yul\":3923:3946   */\n      sub\n        /* \"#utility.yul\":3919:3951   */\n      slt\n        /* \"#utility.yul\":3916:4035   */\n      iszero\n      tag_730\n      jumpi\n        /* \"#utility.yul\":3954:4033   */\n      tag_731\n      tag_624\n      jump\t// in\n    tag_731:\n        /* \"#utility.yul\":3916:4035   */\n    tag_730:\n        /* \"#utility.yul\":4102:4103   */\n      0x00\n        /* \"#utility.yul\":4091:4100   */\n      dup4\n        /* \"#utility.yul\":4087:4104   */\n      add\n        /* \"#utility.yul\":4074:4105   */\n      calldataload\n        /* \"#utility.yul\":4132:4150   */\n      0xffffffffffffffff\n        /* \"#utility.yul\":4124:4130   */\n      dup2\n        /* \"#utility.yul\":4121:4151   */\n      gt\n        /* \"#utility.yul\":4118:4235   */\n      iszero\n      tag_732\n      jumpi\n        /* \"#utility.yul\":4154:4233   */\n      tag_733\n      tag_625\n      jump\t// in\n    tag_733:\n        /* \"#utility.yul\":4118:4235   */\n    tag_732:\n        /* \"#utility.yul\":4267:4331   */\n      tag_734\n        /* \"#utility.yul\":4323:4330   */\n      dup6\n        /* \"#utility.yul\":4314:4320   */\n      dup3\n        /* \"#utility.yul\":4303:4312   */\n      dup7\n        /* \"#utility.yul\":4299:4321   */\n      add\n        /* \"#utility.yul\":4267:4331   */\n      tag_633\n      jump\t// in\n    tag_734:\n        /* \"#utility.yul\":4249:4331   */\n      swap3\n      pop\n      swap3\n      pop\n        /* \"#utility.yul\":4045:4341   */\n      pop\n        /* \"#utility.yul\":3821:4348   */\n      swap3\n      pop\n      swap3\n      swap1\n      pop\n      jump\t// out\n        /* \"#utility.yul\":4354:4476   */\n    tag_634:\n        /* \"#utility.yul\":4427:4451   */\n      tag_736\n        /* \"#utility.yul\":4445:4450   */\n      dup2\n        /* \"#utility.yul\":4427:4451   */\n      tag_628\n      jump\t// in\n    tag_736:\n        /* \"#utility.yul\":4420:4425   */\n      dup2\n        /* \"#utility.yul\":4417:4452   */\n      eq\n        /* \"#utility.yul\":4407:4470   */\n      tag_737\n      jumpi\n        /* \"#utility.yul\":4466:4467   */\n      0x00\n        /* \"#utility.yul\":4463:4464   */\n      0x00\n        /* \"#utility.yul\":4456:4468   */\n      revert\n        /* \"#utility.yul\":4407:4470   */\n    tag_737:\n        /* \"#utility.yul\":4354:4476   */\n      pop\n      jump\t// out\n        /* \"#utility.yul\":4482:4621   */\n    tag_635:\n        /* \"#utility.yul\":4528:4533   */\n      0x00\n        /* \"#utility.yul\":4566:4572   */\n      dup2\n        /* \"#utility.yul\":4553:4573   */\n      calldataload\n        /* \"#utility.yul\":4544:4573   */\n      swap1\n      pop\n        /* \"#utility.yul\":4582:4615   */\n      tag_739\n        /* \"#utility.yul\":4609:4614   */\n      dup2\n        /* \"#utility.yul\":4582:4615   */\n      tag_634\n      jump\t// in\n    tag_739:\n        /* \"#utility.yul\":4482:4621   */\n      swap3\n      swap2\n      pop\n      pop\n      jump\t// out\n        /* \"#utility.yul\":4627:4744   */\n    tag_636:\n        /* \"#utility.yul\":4736:4737   */\n      0x00\n        /* \"#utility.yul\":4733:4734   */\n      0x00\n        /* \"#utility.yul\":4726:4738   */\n      revert\n        /* \"#utility.yul\":4750:4852   */\n    tag_637:\n        /* \"#utility.yul\":4791:4797   */\n      0x00\n        /* \"#utility.yul\":4842:4844   */\n      0x1f\n        /* \"#utility.yul\":4838:4845   */\n      not\n        /* \"#utility.yul\":4833:4835   */\n      0x1f\n        /* \"#utility.yul\":4826:4831   */\n      dup4\n        /* \"#utility.yul\":4822:4836   */\n      add\n        /* \"#utility.yul\":4818:4846   */\n      and\n        /* \"#utility.yul\":4808:4846   */\n      swap1\n      pop\n        /* \"#utility.yul\":4750:4852   */\n      swap2\n      swap1\n      pop\n      jump\t// out\n        /* \"#utility.yul\":4858:5038   */\n    tag_638:\n        /* \"#utility.yul\":4906:4983   */\n      0x4e487b7100000000000000000000000000000000000000000000000000000000\n        /* \"#utility.yul\":4903:4904   */\n      0x00\n        /* \"#utility.yul\":4896:4984   */\n      mstore\n        /* \"#utility.yul\":5003:5007   */\n      0x41\n        /* \"#utility.yul\":5000:5001   */\n      0x04\n        /* \"#utility.yul\":4993:5008   */\n      mstore\n        /* \"#utility.yul\":5027:5031   */\n      0x24\n        /* \"#utility.yul\":5024:5025   */\n      0x00\n        /* \"#utility.yul\":5017:5032   */\n      revert\n        /* \"#utility.yul\":5044:5325   */\n    tag_639:\n        /* \"#utility.yul\":5127:5154   */\n      tag_744\n        /* \"#utility.yul\":5149:5153   */\n      dup3\n        /* \"#utility.yul\":5127:5154   */\n      tag_637\n      jump\t// in\n    tag_744:\n        /* \"#utility.yul\":5119:5125   */\n      dup2\n        /* \"#utility.yul\":5115:5155   */\n      add\n        /* \"#utility.yul\":5257:5263   */\n      dup2\n        /* \"#utility.yul\":5245:5255   */\n      dup2\n        /* \"#utility.yul\":5242:5264   */\n      lt\n        /* \"#utility.yul\":5221:5239   */\n      0xffffffffffffffff\n        /* \"#utility.yul\":5209:5219   */\n      dup3\n        /* \"#utility.yul\":5206:5240   */\n      gt\n        /* \"#utility.yul\":5203:5265   */\n      or\n        /* \"#utility.yul\":5200:5288   */\n      iszero\n      tag_745\n      jumpi\n        /* \"#utility.yul\":5268:5286   */\n      tag_746\n      tag_638\n      jump\t// in\n    tag_746:\n        /* \"#utility.yul\":5200:5288   */\n    tag_745:\n        /* \"#utility.yul\":5308:5318   */\n      dup1\n        /* \"#utility.yul\":5304:5306   */\n      0x40\n        /* \"#utility.yul\":5297:5319   */\n      mstore\n        /* \"#utility.yul\":5087:5325   */\n      pop\n        /* \"#utility.yul\":5044:5325   */\n      pop\n      pop\n      jump\t// out\n        /* \"#utility.yul\":5331:5460   */\n    tag_640:\n        /* \"#utility.yul\":5365:5371   */\n      0x00\n        /* \"#utility.yul\":5392:5412   */\n      tag_748\n      tag_623\n      jump\t// in\n    tag_748:\n        /* \"#utility.yul\":5382:5412   */\n      swap1\n      pop\n        /* \"#utility.yul\":5421:5454   */\n      tag_749\n        /* \"#utility.yul\":5449:5453   */\n      dup3\n        /* \"#utility.yul\":5441:5447   */\n      dup3\n        /* \"#utility.yul\":5421:5454   */\n      tag_639\n      jump\t// in\n    tag_749:\n        /* \"#utility.yul\":5331:5460   */\n      swap2\n      swap1\n      pop\n      jump\t// out\n        /* \"#utility.yul\":5466:5773   */\n    tag_641:\n        /* \"#utility.yul\":5527:5531   */\n      0x00\n        /* \"#utility.yul\":5617:5635   */\n      0xffffffffffffffff\n        /* \"#utility.yul\":5609:5615   */\n      dup3\n        /* \"#utility.yul\":5606:5636   */\n      gt\n        /* \"#utility.yul\":5603:5659   */\n      iszero\n      tag_751\n      jumpi\n        /* \"#utility.yul\":5639:5657   */\n      tag_752\n      tag_638\n      jump\t// in\n    tag_752:\n        /* \"#utility.yul\":5603:5659   */\n    tag_751:\n        /* \"#utility.yul\":5677:5706   */\n      tag_753\n        /* \"#utility.yul\":5699:5705   */\n      dup3\n        /* \"#utility.yul\":5677:5706   */\n      tag_637\n      jump\t// in\n    tag_753:\n        /* \"#utility.yul\":5669:5706   */\n      swap1\n      pop\n        /* \"#utility.yul\":5761:5765   */\n      0x20\n        /* \"#utility.yul\":5755:5759   */\n      dup2\n        /* \"#utility.yul\":5751:5766   */\n      add\n        /* \"#utility.yul\":5743:5766   */\n      swap1\n      pop\n        /* \"#utility.yul\":5466:5773   */\n      swap2\n      swap1\n      pop\n      jump\t// out\n        /* \"#utility.yul\":5779:5927   */\n    tag_642:\n        /* \"#utility.yul\":5877:5883   */\n      dup3\n        /* \"#utility.yul\":5872:5875   */\n      dup2\n        /* \"#utility.yul\":5867:5870   */\n      dup4\n        /* \"#utility.yul\":5854:5884   */\n      calldatacopy\n        /* \"#utility.yul\":5918:5919   */\n      0x00\n        /* \"#utility.yul\":5909:5915   */\n      dup4\n        /* \"#utility.yul\":5904:5907   */\n      dup4\n        /* \"#utility.yul\":5900:5916   */\n      add\n        /* \"#utility.yul\":5893:5920   */\n      mstore\n        /* \"#utility.yul\":5779:5927   */\n      pop\n      pop\n      pop\n      jump\t// out\n        /* \"#utility.yul\":5933:6356   */\n    tag_643:\n        /* \"#utility.yul\":6010:6015   */\n      0x00\n        /* \"#utility.yul\":6035:6100   */\n      tag_756\n        /* \"#utility.yul\":6051:6099   */\n      tag_757\n        /* \"#utility.yul\":6092:6098   */\n      dup5\n        /* \"#utility.yul\":6051:6099   */\n      tag_641\n      jump\t// in\n    tag_757:\n        /* \"#utility.yul\":6035:6100   */\n      tag_640\n      jump\t// in\n    tag_756:\n        /* \"#utility.yul\":6026:6100   */\n      swap1\n      pop\n        /* \"#utility.yul\":6123:6129   */\n      dup3\n        /* \"#utility.yul\":6116:6121   */\n      dup2\n        /* \"#utility.yul\":6109:6130   */\n      mstore\n        /* \"#utility.yul\":6161:6165   */\n      0x20\n        /* \"#utility.yul\":6154:6159   */\n      dup2\n        /* \"#utility.yul\":6150:6166   */\n      add\n        /* \"#utility.yul\":6199:6202   */\n      dup5\n        /* \"#utility.yul\":6190:6196   */\n      dup5\n        /* \"#utility.yul\":6185:6188   */\n      dup5\n        /* \"#utility.yul\":6181:6197   */\n      add\n        /* \"#utility.yul\":6178:6203   */\n      gt\n        /* \"#utility.yul\":6175:6287   */\n      iszero\n      tag_758\n      jumpi\n        /* \"#utility.yul\":6206:6285   */\n      tag_759\n      tag_636\n      jump\t// in\n    tag_759:\n        /* \"#utility.yul\":6175:6287   */\n    tag_758:\n        /* \"#utility.yul\":6296:6350   */\n      tag_760\n        /* \"#utility.yul\":6343:6349   */\n      dup5\n        /* \"#utility.yul\":6338:6341   */\n      dup3\n        /* \"#utility.yul\":6333:6336   */\n      dup6\n        /* \"#utility.yul\":6296:6350   */\n      tag_642\n      jump\t// in\n    tag_760:\n        /* \"#utility.yul\":6016:6356   */\n      pop\n        /* \"#utility.yul\":5933:6356   */\n      swap4\n      swap3\n      pop\n      pop\n      pop\n      jump\t// out\n        /* \"#utility.yul\":6375:6713   */\n    tag_644:\n        /* \"#utility.yul\":6430:6435   */\n      0x00\n        /* \"#utility.yul\":6479:6482   */\n      dup3\n        /* \"#utility.yul\":6472:6476   */\n      0x1f\n        /* \"#utility.yul\":6464:6470   */\n      dup4\n        /* \"#utility.yul\":6460:6477   */\n      add\n        /* \"#utility.yul\":6456:6483   */\n      slt\n        /* \"#utility.yul\":6446:6568   */\n      tag_762\n      jumpi\n        /* \"#utility.yul\":6487:6566   */\n      tag_763\n      tag_630\n      jump\t// in\n    tag_763:\n        /* \"#utility.yul\":6446:6568   */\n    tag_762:\n        /* \"#utility.yul\":6604:6610   */\n      dup2\n        /* \"#utility.yul\":6591:6611   */\n      calldataload\n        /* \"#utility.yul\":6629:6707   */\n      tag_764\n        /* \"#utility.yul\":6703:6706   */\n      dup5\n        /* \"#utility.yul\":6695:6701   */\n      dup3\n        /* \"#utility.yul\":6688:6692   */\n      0x20\n        /* \"#utility.yul\":6680:6686   */\n      dup7\n        /* \"#utility.yul\":6676:6693   */\n      add\n        /* \"#utility.yul\":6629:6707   */\n      tag_643\n      jump\t// in\n    tag_764:\n        /* \"#utility.yul\":6620:6707   */\n      swap2\n      pop\n        /* \"#utility.yul\":6436:6713   */\n      pop\n        /* \"#utility.yul\":6375:6713   */\n      swap3\n      swap2\n      pop\n      pop\n      jump\t// out\n        /* \"#utility.yul\":6719:7371   */\n    tag_104:\n        /* \"#utility.yul\":6796:6802   */\n      0x00\n        /* \"#utility.yul\":6804:6810   */\n      0x00\n        /* \"#utility.yul\":6853:6855   */\n      0x40\n        /* \"#utility.yul\":6841:6850   */\n      dup4\n        /* \"#utility.yul\":6832:6839   */\n      dup6\n        /* \"#utility.yul\":6828:6851   */\n      sub\n        /* \"#utility.yul\":6824:6856   */\n      slt\n        /* \"#utility.yul\":6821:6940   */\n      iszero\n      tag_766\n      jumpi\n        /* \"#utility.yul\":6859:6938   */\n      tag_767\n      tag_624\n      jump\t// in\n    tag_767:\n        /* \"#utility.yul\":6821:6940   */\n    tag_766:\n        /* \"#utility.yul\":6979:6980   */\n      0x00\n        /* \"#utility.yul\":7004:7057   */\n      tag_768\n        /* \"#utility.yul\":7049:7056   */\n      dup6\n        /* \"#utility.yul\":7040:7046   */\n      dup3\n        /* \"#utility.yul\":7029:7038   */\n      dup7\n        /* \"#utility.yul\":7025:7047   */\n      add\n        /* \"#utility.yul\":7004:7057   */\n      tag_635\n      jump\t// in\n    tag_768:\n        /* \"#utility.yul\":6994:7057   */\n      swap3\n      pop\n        /* \"#utility.yul\":6950:7067   */\n      pop\n        /* \"#utility.yul\":7134:7136   */\n      0x20\n        /* \"#utility.yul\":7123:7132   */\n      dup4\n        /* \"#utility.yul\":7119:7137   */\n      add\n        /* \"#utility.yul\":7106:7138   */\n      calldataload\n        /* \"#utility.yul\":7165:7183   */\n      0xffffffffffffffff\n        /* \"#utility.yul\":7157:7163   */\n      dup2\n        /* \"#utility.yul\":7154:7184   */\n      gt\n        /* \"#utility.yul\":7151:7268   */\n      iszero\n      tag_769\n      jumpi\n        /* \"#utility.yul\":7187:7266   */\n      tag_770\n      tag_625\n      jump\t// in\n    tag_770:\n        /* \"#utility.yul\":7151:7268   */\n    tag_769:\n        /* \"#utility.yul\":7292:7354   */\n      tag_771\n        /* \"#utility.yul\":7346:7353   */\n      dup6\n        /* \"#utility.yul\":7337:7343   */\n      dup3\n        /* \"#utility.yul\":7326:7335   */\n      dup7\n        /* \"#utility.yul\":7322:7344   */\n      add\n        /* \"#utility.yul\":7292:7354   */\n      tag_644\n      jump\t// in\n    tag_771:\n        /* \"#utility.yul\":7282:7354   */\n      swap2\n      pop\n        /* \"#utility.yul\":7077:7364   */\n      pop\n        /* \"#utility.yul\":6719:7371   */\n      swap3\n      pop\n      swap3\n      swap1\n      pop\n      jump\t// out\n        /* \"#utility.yul\":7377:7454   */\n    tag_645:\n        /* \"#utility.yul\":7414:7421   */\n      0x00\n        /* \"#utility.yul\":7443:7448   */\n      dup2\n        /* \"#utility.yul\":7432:7448   */\n      swap1\n      pop\n        /* \"#utility.yul\":7377:7454   */\n      swap2\n      swap1\n      pop\n      jump\t// out\n        /* \"#utility.yul\":7460:7578   */\n    tag_646:\n        /* \"#utility.yul\":7547:7571   */\n      tag_774\n        /* \"#utility.yul\":7565:7570   */\n      dup2\n        /* \"#utility.yul\":7547:7571   */\n      tag_645\n      jump\t// in\n    tag_774:\n        /* \"#utility.yul\":7542:7545   */\n      dup3\n        /* \"#utility.yul\":7535:7572   */\n      mstore\n        /* \"#utility.yul\":7460:7578   */\n      pop\n      pop\n      jump\t// out\n        /* \"#utility.yul\":7584:7806   */\n    tag_114:\n        /* \"#utility.yul\":7677:7681   */\n      0x00\n        /* \"#utility.yul\":7715:7717   */\n      0x20\n        /* \"#utility.yul\":7704:7713   */\n      dup3\n        /* \"#utility.yul\":7700:7718   */\n      add\n        /* \"#utility.yul\":7692:7718   */\n      swap1\n      pop\n        /* \"#utility.yul\":7728:7799   */\n      tag_776\n        /* \"#utility.yul\":7796:7797   */\n      0x00\n        /* \"#utility.yul\":7785:7794   */\n      dup4\n        /* \"#utility.yul\":7781:7798   */\n      add\n        /* \"#utility.yul\":7772:7778   */\n      dup5\n        /* \"#utility.yul\":7728:7799   */\n      tag_646\n      jump\t// in\n    tag_776:\n        /* \"#utility.yul\":7584:7806   */\n      swap3\n      swap2\n      pop\n      pop\n      jump\t// out\n        /* \"#utility.yul\":7812:7902   */\n    tag_647:\n        /* \"#utility.yul\":7846:7853   */\n      0x00\n        /* \"#utility.yul\":7889:7894   */\n      dup2\n        /* \"#utility.yul\":7882:7895   */\n      iszero\n        /* \"#utility.yul\":7875:7896   */\n      iszero\n        /* \"#utility.yul\":7864:7896   */\n      swap1\n      pop\n        /* \"#utility.yul\":7812:7902   */\n      swap2\n      swap1\n      pop\n      jump\t// out\n        /* \"#utility.yul\":7908:8017   */\n    tag_648:\n        /* \"#utility.yul\":7989:8010   */\n      tag_779\n        /* \"#utility.yul\":8004:8009   */\n      dup2\n        /* \"#utility.yul\":7989:8010   */\n      tag_647\n      jump\t// in\n    tag_779:\n        /* \"#utility.yul\":7984:7987   */\n      dup3\n        /* \"#utility.yul\":7977:8011   */\n      mstore\n        /* \"#utility.yul\":7908:8017   */\n      pop\n      pop\n      jump\t// out\n        /* \"#utility.yul\":8023:8121   */\n    tag_649:\n        /* \"#utility.yul\":8074:8080   */\n      0x00\n        /* \"#utility.yul\":8108:8113   */\n      dup2\n        /* \"#utility.yul\":8102:8114   */\n      mload\n        /* \"#utility.yul\":8092:8114   */\n      swap1\n      pop\n        /* \"#utility.yul\":8023:8121   */\n      swap2\n      swap1\n      pop\n      jump\t// out\n        /* \"#utility.yul\":8127:8295   */\n    tag_650:\n        /* \"#utility.yul\":8210:8221   */\n      0x00\n        /* \"#utility.yul\":8244:8250   */\n      dup3\n        /* \"#utility.yul\":8239:8242   */\n      dup3\n        /* \"#utility.yul\":8232:8251   */\n      mstore\n        /* \"#utility.yul\":8284:8288   */\n      0x20\n        /* \"#utility.yul\":8279:8282   */\n      dup3\n        /* \"#utility.yul\":8275:8289   */\n      add\n        /* \"#utility.yul\":8260:8289   */\n      swap1\n      pop\n        /* \"#utility.yul\":8127:8295   */\n      swap3\n      swap2\n      pop\n      pop\n      jump\t// out\n        /* \"#utility.yul\":8301:8440   */\n    tag_651:\n        /* \"#utility.yul\":8390:8396   */\n      dup3\n        /* \"#utility.yul\":8385:8388   */\n      dup2\n        /* \"#utility.yul\":8380:8383   */\n      dup4\n        /* \"#utility.yul\":8374:8397   */\n      mcopy\n        /* \"#utility.yul\":8431:8432   */\n      0x00\n        /* \"#utility.yul\":8422:8428   */\n      dup4\n        /* \"#utility.yul\":8417:8420   */\n      dup4\n        /* \"#utility.yul\":8413:8429   */\n      add\n        /* \"#utility.yul\":8406:8433   */\n      mstore\n        /* \"#utility.yul\":8301:8440   */\n      pop\n      pop\n      pop\n      jump\t// out\n        /* \"#utility.yul\":8446:8819   */\n    tag_652:\n        /* \"#utility.yul\":8532:8535   */\n      0x00\n        /* \"#utility.yul\":8560:8598   */\n      tag_784\n        /* \"#utility.yul\":8592:8597   */\n      dup3\n        /* \"#utility.yul\":8560:8598   */\n      tag_649\n      jump\t// in\n    tag_784:\n        /* \"#utility.yul\":8614:8684   */\n      tag_785\n        /* \"#utility.yul\":8677:8683   */\n      dup2\n        /* \"#utility.yul\":8672:8675   */\n      dup6\n        /* \"#utility.yul\":8614:8684   */\n      tag_650\n      jump\t// in\n    tag_785:\n        /* \"#utility.yul\":8607:8684   */\n      swap4\n      pop\n        /* \"#utility.yul\":8693:8758   */\n      tag_786\n        /* \"#utility.yul\":8751:8757   */\n      dup2\n        /* \"#utility.yul\":8746:8749   */\n      dup6\n        /* \"#utility.yul\":8739:8743   */\n      0x20\n        /* \"#utility.yul\":8732:8737   */\n      dup7\n        /* \"#utility.yul\":8728:8744   */\n      add\n        /* \"#utility.yul\":8693:8758   */\n      tag_651\n      jump\t// in\n    tag_786:\n        /* \"#utility.yul\":8783:8812   */\n      tag_787\n        /* \"#utility.yul\":8805:8811   */\n      dup2\n        /* \"#utility.yul\":8783:8812   */\n      tag_637\n      jump\t// in\n    tag_787:\n        /* \"#utility.yul\":8778:8781   */\n      dup5\n        /* \"#utility.yul\":8774:8813   */\n      add\n        /* \"#utility.yul\":8767:8813   */\n      swap2\n      pop\n        /* \"#utility.yul\":8536:8819   */\n      pop\n        /* \"#utility.yul\":8446:8819   */\n      swap3\n      swap2\n      pop\n      pop\n      jump\t// out\n        /* \"#utility.yul\":8825:9232   */\n    tag_135:\n        /* \"#utility.yul\":8958:8962   */\n      0x00\n        /* \"#utility.yul\":8996:8998   */\n      0x40\n        /* \"#utility.yul\":8985:8994   */\n      dup3\n        /* \"#utility.yul\":8981:8999   */\n      add\n        /* \"#utility.yul\":8973:8999   */\n      swap1\n      pop\n        /* \"#utility.yul\":9009:9074   */\n      tag_789\n        /* \"#utility.yul\":9071:9072   */\n      0x00\n        /* \"#utility.yul\":9060:9069   */\n      dup4\n        /* \"#utility.yul\":9056:9073   */\n      add\n        /* \"#utility.yul\":9047:9053   */\n      dup6\n        /* \"#utility.yul\":9009:9074   */\n      tag_648\n      jump\t// in\n    tag_789:\n        /* \"#utility.yul\":9121:9130   */\n      dup2\n        /* \"#utility.yul\":9115:9119   */\n      dup2\n        /* \"#utility.yul\":9111:9131   */\n      sub\n        /* \"#utility.yul\":9106:9108   */\n      0x20\n        /* \"#utility.yul\":9095:9104   */\n      dup4\n        /* \"#utility.yul\":9091:9109   */\n      add\n        /* \"#utility.yul\":9084:9132   */\n      mstore\n        /* \"#utility.yul\":9149:9225   */\n      tag_790\n        /* \"#utility.yul\":9220:9224   */\n      dup2\n        /* \"#utility.yul\":9211:9217   */\n      dup5\n        /* \"#utility.yul\":9149:9225   */\n      tag_652\n      jump\t// in\n    tag_790:\n        /* \"#utility.yul\":9141:9225   */\n      swap1\n      pop\n        /* \"#utility.yul\":8825:9232   */\n      swap4\n      swap3\n      pop\n      pop\n      pop\n      jump\t// out\n        /* \"#utility.yul\":9238:9712   */\n    tag_162:\n        /* \"#utility.yul\":9306:9312   */\n      0x00\n        /* \"#utility.yul\":9314:9320   */\n      0x00\n        /* \"#utility.yul\":9363:9365   */\n      0x40\n        /* \"#utility.yul\":9351:9360   */\n      dup4\n        /* \"#utility.yul\":9342:9349   */\n      dup6\n        /* \"#utility.yul\":9338:9361   */\n      sub\n        /* \"#utility.yul\":9334:9366   */\n      slt\n        /* \"#utility.yul\":9331:9450   */\n      iszero\n      tag_792\n      jumpi\n        /* \"#utility.yul\":9369:9448   */\n      tag_793\n      tag_624\n      jump\t// in\n    tag_793:\n        /* \"#utility.yul\":9331:9450   */\n    tag_792:\n        /* \"#utility.yul\":9489:9490   */\n      0x00\n        /* \"#utility.yul\":9514:9567   */\n      tag_794\n        /* \"#utility.yul\":9559:9566   */\n      dup6\n        /* \"#utility.yul\":9550:9556   */\n      dup3\n        /* \"#utility.yul\":9539:9548   */\n      dup7\n        /* \"#utility.yul\":9535:9557   */\n      add\n        /* \"#utility.yul\":9514:9567   */\n      tag_627\n      jump\t// in\n    tag_794:\n        /* \"#utility.yul\":9504:9567   */\n      swap3\n      pop\n        /* \"#utility.yul\":9460:9577   */\n      pop\n        /* \"#utility.yul\":9616:9618   */\n      0x20\n        /* \"#utility.yul\":9642:9695   */\n      tag_795\n        /* \"#utility.yul\":9687:9694   */\n      dup6\n        /* \"#utility.yul\":9678:9684   */\n      dup3\n        /* \"#utility.yul\":9667:9676   */\n      dup7\n        /* \"#utility.yul\":9663:9685   */\n      add\n        /* \"#utility.yul\":9642:9695   */\n      tag_627\n      jump\t// in\n    tag_795:\n        /* \"#utility.yul\":9632:9695   */\n      swap2\n      pop\n        /* \"#utility.yul\":9587:9705   */\n      pop\n        /* \"#utility.yul\":9238:9712   */\n      swap3\n      pop\n      swap3\n      swap1\n      pop\n      jump\t// out\n        /* \"#utility.yul\":9718:9817   */\n    tag_653:\n        /* \"#utility.yul\":9770:9776   */\n      0x00\n        /* \"#utility.yul\":9804:9809   */\n      dup2\n        /* \"#utility.yul\":9798:9810   */\n      mload\n        /* \"#utility.yul\":9788:9810   */\n      swap1\n      pop\n        /* \"#utility.yul\":9718:9817   */\n      swap2\n      swap1\n      pop\n      jump\t// out\n        /* \"#utility.yul\":9823:9992   */\n    tag_654:\n        /* \"#utility.yul\":9907:9918   */\n      0x00\n        /* \"#utility.yul\":9941:9947   */\n      dup3\n        /* \"#utility.yul\":9936:9939   */\n      dup3\n        /* \"#utility.yul\":9929:9948   */\n      mstore\n        /* \"#utility.yul\":9981:9985   */\n      0x20\n        /* \"#utility.yul\":9976:9979   */\n      dup3\n        /* \"#utility.yul\":9972:9986   */\n      add\n        /* \"#utility.yul\":9957:9986   */\n      swap1\n      pop\n        /* \"#utility.yul\":9823:9992   */\n      swap3\n      swap2\n      pop\n      pop\n      jump\t// out\n        /* \"#utility.yul\":9998:10375   */\n    tag_655:\n        /* \"#utility.yul\":10086:10089   */\n      0x00\n        /* \"#utility.yul\":10114:10153   */\n      tag_799\n        /* \"#utility.yul\":10147:10152   */\n      dup3\n        /* \"#utility.yul\":10114:10153   */\n      tag_653\n      jump\t// in\n    tag_799:\n        /* \"#utility.yul\":10169:10240   */\n      tag_800\n        /* \"#utility.yul\":10233:10239   */\n      dup2\n        /* \"#utility.yul\":10228:10231   */\n      dup6\n        /* \"#utility.yul\":10169:10240   */\n      tag_654\n      jump\t// in\n    tag_800:\n        /* \"#utility.yul\":10162:10240   */\n      swap4\n      pop\n        /* \"#utility.yul\":10249:10314   */\n      tag_801\n        /* \"#utility.yul\":10307:10313   */\n      dup2\n        /* \"#utility.yul\":10302:10305   */\n      dup6\n        /* \"#utility.yul\":10295:10299   */\n      0x20\n        /* \"#utility.yul\":10288:10293   */\n      dup7\n        /* \"#utility.yul\":10284:10300   */\n      add\n        /* \"#utility.yul\":10249:10314   */\n      tag_651\n      jump\t// in\n    tag_801:\n        /* \"#utility.yul\":10339:10368   */\n      tag_802\n        /* \"#utility.yul\":10361:10367   */\n      dup2\n        /* \"#utility.yul\":10339:10368   */\n      tag_637\n      jump\t// in\n    tag_802:\n        /* \"#utility.yul\":10334:10337   */\n      dup5\n        /* \"#utility.yul\":10330:10369   */\n      add\n        /* \"#utility.yul\":10323:10369   */\n      swap2\n      pop\n        /* \"#utility.yul\":10090:10375   */\n      pop\n        /* \"#utility.yul\":9998:10375   */\n      swap3\n      swap2\n      pop\n      pop\n      jump\t// out\n        /* \"#utility.yul\":10381:10694   */\n    tag_185:\n        /* \"#utility.yul\":10494:10498   */\n      0x00\n        /* \"#utility.yul\":10532:10534   */\n      0x20\n        /* \"#utility.yul\":10521:10530   */\n      dup3\n        /* \"#utility.yul\":10517:10535   */\n      add\n        /* \"#utility.yul\":10509:10535   */\n      swap1\n      pop\n        /* \"#utility.yul\":10581:10590   */\n      dup2\n        /* \"#utility.yul\":10575:10579   */\n      dup2\n        /* \"#utility.yul\":10571:10591   */\n      sub\n        /* \"#utility.yul\":10567:10568   */\n      0x00\n        /* \"#utility.yul\":10556:10565   */\n      dup4\n        /* \"#utility.yul\":10552:10569   */\n      add\n        /* \"#utility.yul\":10545:10592   */\n      mstore\n        /* \"#utility.yul\":10609:10687   */\n      tag_804\n        /* \"#utility.yul\":10682:10686   */\n      dup2\n        /* \"#utility.yul\":10673:10679   */\n      dup5\n        /* \"#utility.yul\":10609:10687   */\n      tag_655\n      jump\t// in\n    tag_804:\n        /* \"#utility.yul\":10601:10687   */\n      swap1\n      pop\n        /* \"#utility.yul\":10381:10694   */\n      swap3\n      swap2\n      pop\n      pop\n      jump\t// out\n        /* \"#utility.yul\":10700:11029   */\n    tag_201:\n        /* \"#utility.yul\":10759:10765   */\n      0x00\n        /* \"#utility.yul\":10808:10810   */\n      0x20\n        /* \"#utility.yul\":10796:10805   */\n      dup3\n        /* \"#utility.yul\":10787:10794   */\n      dup5\n        /* \"#utility.yul\":10783:10806   */\n      sub\n        /* \"#utility.yul\":10779:10811   */\n      slt\n        /* \"#utility.yul\":10776:10895   */\n      iszero\n      tag_806\n      jumpi\n        /* \"#utility.yul\":10814:10893   */\n      tag_807\n      tag_624\n      jump\t// in\n    tag_807:\n        /* \"#utility.yul\":10776:10895   */\n    tag_806:\n        /* \"#utility.yul\":10934:10935   */\n      0x00\n        /* \"#utility.yul\":10959:11012   */\n      tag_808\n        /* \"#utility.yul\":11004:11011   */\n      dup5\n        /* \"#utility.yul\":10995:11001   */\n      dup3\n        /* \"#utility.yul\":10984:10993   */\n      dup6\n        /* \"#utility.yul\":10980:11002   */\n      add\n        /* \"#utility.yul\":10959:11012   */\n      tag_635\n      jump\t// in\n    tag_808:\n        /* \"#utility.yul\":10949:11012   */\n      swap2\n      pop\n        /* \"#utility.yul\":10905:11022   */\n      pop\n        /* \"#utility.yul\":10700:11029   */\n      swap3\n      swap2\n      pop\n      pop\n      jump\t// out\n        /* \"#utility.yul\":11035:11798   */\n    tag_204:\n        /* \"#utility.yul\":11262:11266   */\n      0x00\n        /* \"#utility.yul\":11300:11303   */\n      0xc0\n        /* \"#utility.yul\":11289:11298   */\n      dup3\n        /* \"#utility.yul\":11285:11304   */\n      add\n        /* \"#utility.yul\":11277:11304   */\n      swap1\n      pop\n        /* \"#utility.yul\":11314:11379   */\n      tag_810\n        /* \"#utility.yul\":11376:11377   */\n      0x00\n        /* \"#utility.yul\":11365:11374   */\n      dup4\n        /* \"#utility.yul\":11361:11378   */\n      add\n        /* \"#utility.yul\":11352:11358   */\n      dup10\n        /* \"#utility.yul\":11314:11379   */\n      tag_648\n      jump\t// in\n    tag_810:\n        /* \"#utility.yul\":11389:11461   */\n      tag_811\n        /* \"#utility.yul\":11457:11459   */\n      0x20\n        /* \"#utility.yul\":11446:11455   */\n      dup4\n        /* \"#utility.yul\":11442:11460   */\n      add\n        /* \"#utility.yul\":11433:11439   */\n      dup9\n        /* \"#utility.yul\":11389:11461   */\n      tag_616\n      jump\t// in\n    tag_811:\n        /* \"#utility.yul\":11471:11543   */\n      tag_812\n        /* \"#utility.yul\":11539:11541   */\n      0x40\n        /* \"#utility.yul\":11528:11537   */\n      dup4\n        /* \"#utility.yul\":11524:11542   */\n      add\n        /* \"#utility.yul\":11515:11521   */\n      dup8\n        /* \"#utility.yul\":11471:11543   */\n      tag_616\n      jump\t// in\n    tag_812:\n        /* \"#utility.yul\":11553:11625   */\n      tag_813\n        /* \"#utility.yul\":11621:11623   */\n      0x60\n        /* \"#utility.yul\":11610:11619   */\n      dup4\n        /* \"#utility.yul\":11606:11624   */\n      add\n        /* \"#utility.yul\":11597:11603   */\n      dup7\n        /* \"#utility.yul\":11553:11625   */\n      tag_616\n      jump\t// in\n    tag_813:\n        /* \"#utility.yul\":11635:11708   */\n      tag_814\n        /* \"#utility.yul\":11703:11706   */\n      0x80\n        /* \"#utility.yul\":11692:11701   */\n      dup4\n        /* \"#utility.yul\":11688:11707   */\n      add\n        /* \"#utility.yul\":11679:11685   */\n      dup6\n        /* \"#utility.yul\":11635:11708   */\n      tag_616\n      jump\t// in\n    tag_814:\n        /* \"#utility.yul\":11718:11791   */\n      tag_815\n        /* \"#utility.yul\":11786:11789   */\n      0xa0\n        /* \"#utility.yul\":11775:11784   */\n      dup4\n        /* \"#utility.yul\":11771:11790   */\n      add\n        /* \"#utility.yul\":11762:11768   */\n      dup5\n        /* \"#utility.yul\":11718:11791   */\n      tag_616\n      jump\t// in\n    tag_815:\n        /* \"#utility.yul\":11035:11798   */\n      swap8\n      swap7\n      pop\n      pop\n      pop\n      pop\n      pop\n      pop\n      pop\n      jump\t// out\n        /* \"#utility.yul\":11804:12423   */\n    tag_208:\n        /* \"#utility.yul\":11881:11887   */\n      0x00\n        /* \"#utility.yul\":11889:11895   */\n      0x00\n        /* \"#utility.yul\":11897:11903   */\n      0x00\n        /* \"#utility.yul\":11946:11948   */\n      0x60\n        /* \"#utility.yul\":11934:11943   */\n      dup5\n        /* \"#utility.yul\":11925:11932   */\n      dup7\n        /* \"#utility.yul\":11921:11944   */\n      sub\n        /* \"#utility.yul\":11917:11949   */\n      slt\n        /* \"#utility.yul\":11914:12033   */\n      iszero\n      tag_817\n      jumpi\n        /* \"#utility.yul\":11952:12031   */\n      tag_818\n      tag_624\n      jump\t// in\n    tag_818:\n        /* \"#utility.yul\":11914:12033   */\n    tag_817:\n        /* \"#utility.yul\":12072:12073   */\n      0x00\n        /* \"#utility.yul\":12097:12150   */\n      tag_819\n        /* \"#utility.yul\":12142:12149   */\n      dup7\n        /* \"#utility.yul\":12133:12139   */\n      dup3\n        /* \"#utility.yul\":12122:12131   */\n      dup8\n        /* \"#utility.yul\":12118:12140   */\n      add\n        /* \"#utility.yul\":12097:12150   */\n      tag_635\n      jump\t// in\n    tag_819:\n        /* \"#utility.yul\":12087:12150   */\n      swap4\n      pop\n        /* \"#utility.yul\":12043:12160   */\n      pop\n        /* \"#utility.yul\":12199:12201   */\n      0x20\n        /* \"#utility.yul\":12225:12278   */\n      tag_820\n        /* \"#utility.yul\":12270:12277   */\n      dup7\n        /* \"#utility.yul\":12261:12267   */\n      dup3\n        /* \"#utility.yul\":12250:12259   */\n      dup8\n        /* \"#utility.yul\":12246:12268   */\n      add\n        /* \"#utility.yul\":12225:12278   */\n      tag_635\n      jump\t// in\n    tag_820:\n        /* \"#utility.yul\":12215:12278   */\n      swap3\n      pop\n        /* \"#utility.yul\":12170:12288   */\n      pop\n        /* \"#utility.yul\":12327:12329   */\n      0x40\n        /* \"#utility.yul\":12353:12406   */\n      tag_821\n        /* \"#utility.yul\":12398:12405   */\n      dup7\n        /* \"#utility.yul\":12389:12395   */\n      dup3\n        /* \"#utility.yul\":12378:12387   */\n      dup8\n        /* \"#utility.yul\":12374:12396   */\n      add\n        /* \"#utility.yul\":12353:12406   */\n      tag_635\n      jump\t// in\n    tag_821:\n        /* \"#utility.yul\":12343:12406   */\n      swap2\n      pop\n        /* \"#utility.yul\":12298:12416   */\n      pop\n        /* \"#utility.yul\":11804:12423   */\n      swap3\n      pop\n      swap3\n      pop\n      swap3\n      jump\t// out\n        /* \"#utility.yul\":12429:12639   */\n    tag_215:\n        /* \"#utility.yul\":12516:12520   */\n      0x00\n        /* \"#utility.yul\":12554:12556   */\n      0x20\n        /* \"#utility.yul\":12543:12552   */\n      dup3\n        /* \"#utility.yul\":12539:12557   */\n      add\n        /* \"#utility.yul\":12531:12557   */\n      swap1\n      pop\n        /* \"#utility.yul\":12567:12632   */\n      tag_823\n        /* \"#utility.yul\":12629:12630   */\n      0x00\n        /* \"#utility.yul\":12618:12627   */\n      dup4\n        /* \"#utility.yul\":12614:12631   */\n      add\n        /* \"#utility.yul\":12605:12611   */\n      dup5\n        /* \"#utility.yul\":12567:12632   */\n      tag_648\n      jump\t// in\n    tag_823:\n        /* \"#utility.yul\":12429:12639   */\n      swap3\n      swap2\n      pop\n      pop\n      jump\t// out\n        /* \"#utility.yul\":12645:12761   */\n    tag_656:\n        /* \"#utility.yul\":12715:12736   */\n      tag_825\n        /* \"#utility.yul\":12730:12735   */\n      dup2\n        /* \"#utility.yul\":12715:12736   */\n      tag_647\n      jump\t// in\n    tag_825:\n        /* \"#utility.yul\":12708:12713   */\n      dup2\n        /* \"#utility.yul\":12705:12737   */\n      eq\n        /* \"#utility.yul\":12695:12755   */\n      tag_826\n      jumpi\n        /* \"#utility.yul\":12751:12752   */\n      0x00\n        /* \"#utility.yul\":12748:12749   */\n      0x00\n        /* \"#utility.yul\":12741:12753   */\n      revert\n        /* \"#utility.yul\":12695:12755   */\n    tag_826:\n        /* \"#utility.yul\":12645:12761   */\n      pop\n      jump\t// out\n        /* \"#utility.yul\":12767:12900   */\n    tag_657:\n        /* \"#utility.yul\":12810:12815   */\n      0x00\n        /* \"#utility.yul\":12848:12854   */\n      dup2\n        /* \"#utility.yul\":12835:12855   */\n      calldataload\n        /* \"#utility.yul\":12826:12855   */\n      swap1\n      pop\n        /* \"#utility.yul\":12864:12894   */\n      tag_828\n        /* \"#utility.yul\":12888:12893   */\n      dup2\n        /* \"#utility.yul\":12864:12894   */\n      tag_656\n      jump\t// in\n    tag_828:\n        /* \"#utility.yul\":12767:12900   */\n      swap3\n      swap2\n      pop\n      pop\n      jump\t// out\n        /* \"#utility.yul\":12906:13374   */\n    tag_227:\n        /* \"#utility.yul\":12971:12977   */\n      0x00\n        /* \"#utility.yul\":12979:12985   */\n      0x00\n        /* \"#utility.yul\":13028:13030   */\n      0x40\n        /* \"#utility.yul\":13016:13025   */\n      dup4\n        /* \"#utility.yul\":13007:13014   */\n      dup6\n        /* \"#utility.yul\":13003:13026   */\n      sub\n        /* \"#utility.yul\":12999:13031   */\n      slt\n        /* \"#utility.yul\":12996:13115   */\n      iszero\n      tag_830\n      jumpi\n        /* \"#utility.yul\":13034:13113   */\n      tag_831\n      tag_624\n      jump\t// in\n    tag_831:\n        /* \"#utility.yul\":12996:13115   */\n    tag_830:\n        /* \"#utility.yul\":13154:13155   */\n      0x00\n        /* \"#utility.yul\":13179:13232   */\n      tag_832\n        /* \"#utility.yul\":13224:13231   */\n      dup6\n        /* \"#utility.yul\":13215:13221   */\n      dup3\n        /* \"#utility.yul\":13204:13213   */\n      dup7\n        /* \"#utility.yul\":13200:13222   */\n      add\n        /* \"#utility.yul\":13179:13232   */\n      tag_635\n      jump\t// in\n    tag_832:\n        /* \"#utility.yul\":13169:13232   */\n      swap3\n      pop\n        /* \"#utility.yul\":13125:13242   */\n      pop\n        /* \"#utility.yul\":13281:13283   */\n      0x20\n        /* \"#utility.yul\":13307:13357   */\n      tag_833\n        /* \"#utility.yul\":13349:13356   */\n      dup6\n        /* \"#utility.yul\":13340:13346   */\n      dup3\n        /* \"#utility.yul\":13329:13338   */\n      dup7\n        /* \"#utility.yul\":13325:13347   */\n      add\n        /* \"#utility.yul\":13307:13357   */\n      tag_657\n      jump\t// in\n    tag_833:\n        /* \"#utility.yul\":13297:13357   */\n      swap2\n      pop\n        /* \"#utility.yul\":13252:13367   */\n      pop\n        /* \"#utility.yul\":12906:13374   */\n      swap3\n      pop\n      swap3\n      swap1\n      pop\n      jump\t// out\n        /* \"#utility.yul\":13380:13822   */\n    tag_252:\n        /* \"#utility.yul\":13529:13533   */\n      0x00\n        /* \"#utility.yul\":13567:13569   */\n      0x60\n        /* \"#utility.yul\":13556:13565   */\n      dup3\n        /* \"#utility.yul\":13552:13570   */\n      add\n        /* \"#utility.yul\":13544:13570   */\n      swap1\n      pop\n        /* \"#utility.yul\":13580:13651   */\n      tag_835\n        /* \"#utility.yul\":13648:13649   */\n      0x00\n        /* \"#utility.yul\":13637:13646   */\n      dup4\n        /* \"#utility.yul\":13633:13650   */\n      add\n        /* \"#utility.yul\":13624:13630   */\n      dup7\n        /* \"#utility.yul\":13580:13651   */\n      tag_629\n      jump\t// in\n    tag_835:\n        /* \"#utility.yul\":13661:13733   */\n      tag_836\n        /* \"#utility.yul\":13729:13731   */\n      0x20\n        /* \"#utility.yul\":13718:13727   */\n      dup4\n        /* \"#utility.yul\":13714:13732   */\n      add\n        /* \"#utility.yul\":13705:13711   */\n      dup6\n        /* \"#utility.yul\":13661:13733   */\n      tag_616\n      jump\t// in\n    tag_836:\n        /* \"#utility.yul\":13743:13815   */\n      tag_837\n        /* \"#utility.yul\":13811:13813   */\n      0x40\n        /* \"#utility.yul\":13800:13809   */\n      dup4\n        /* \"#utility.yul\":13796:13814   */\n      add\n        /* \"#utility.yul\":13787:13793   */\n      dup5\n        /* \"#utility.yul\":13743:13815   */\n      tag_616\n      jump\t// in\n    tag_837:\n        /* \"#utility.yul\":13380:13822   */\n      swap5\n      swap4\n      pop\n      pop\n      pop\n      pop\n      jump\t// out\n        /* \"#utility.yul\":13828:14008   */\n    tag_658:\n        /* \"#utility.yul\":13876:13953   */\n      0x4e487b7100000000000000000000000000000000000000000000000000000000\n        /* \"#utility.yul\":13873:13874   */\n      0x00\n        /* \"#utility.yul\":13866:13954   */\n      mstore\n        /* \"#utility.yul\":13973:13977   */\n      0x11\n        /* \"#utility.yul\":13970:13971   */\n      0x04\n        /* \"#utility.yul\":13963:13978   */\n      mstore\n        /* \"#utility.yul\":13997:14001   */\n      0x24\n        /* \"#utility.yul\":13994:13995   */\n      0x00\n        /* \"#utility.yul\":13987:14002   */\n      revert\n        /* \"#utility.yul\":14014:14247   */\n    tag_259:\n        /* \"#utility.yul\":14053:14056   */\n      0x00\n        /* \"#utility.yul\":14076:14100   */\n      tag_840\n        /* \"#utility.yul\":14094:14099   */\n      dup3\n        /* \"#utility.yul\":14076:14100   */\n      tag_615\n      jump\t// in\n    tag_840:\n        /* \"#utility.yul\":14067:14100   */\n      swap2\n      pop\n        /* \"#utility.yul\":14122:14188   */\n      0xffffffffffffffffffffffffffffffffffffffffffffffffffffffffffffffff\n        /* \"#utility.yul\":14115:14120   */\n      dup3\n        /* \"#utility.yul\":14112:14189   */\n      sub\n        /* \"#utility.yul\":14109:14212   */\n      tag_841\n      jumpi\n        /* \"#utility.yul\":14192:14210   */\n      tag_842\n      tag_658\n      jump\t// in\n    tag_842:\n        /* \"#utility.yul\":14109:14212   */\n    tag_841:\n        /* \"#utility.yul\":14239:14240   */\n      0x01\n        /* \"#utility.yul\":14232:14237   */\n      dup3\n        /* \"#utility.yul\":14228:14241   */\n      add\n        /* \"#utility.yul\":14221:14241   */\n      swap1\n      pop\n        /* \"#utility.yul\":14014:14247   */\n      swap2\n      swap1\n      pop\n      jump\t// out\n        /* \"#utility.yul\":14253:14424   */\n    tag_261:\n        /* \"#utility.yul\":14292:14295   */\n      0x00\n        /* \"#utility.yul\":14315:14339   */\n      tag_844\n        /* \"#utility.yul\":14333:14338   */\n      dup3\n        /* \"#utility.yul\":14315:14339   */\n      tag_615\n      jump\t// in\n    tag_844:\n        /* \"#utility.yul\":14306:14339   */\n      swap2\n      pop\n        /* \"#utility.yul\":14361:14365   */\n      0x00\n        /* \"#utility.yul\":14354:14359   */\n      dup3\n        /* \"#utility.yul\":14351:14366   */\n      sub\n        /* \"#utility.yul\":14348:14389   */\n      tag_845\n      jumpi\n        /* \"#utility.yul\":14369:14387   */\n      tag_846\n      tag_658\n      jump\t// in\n    tag_846:\n        /* \"#utility.yul\":14348:14389   */\n    tag_845:\n        /* \"#utility.yul\":14416:14417   */\n      0x01\n        /* \"#utility.yul\":14409:14414   */\n      dup3\n        /* \"#utility.yul\":14405:14418   */\n      sub\n        /* \"#utility.yul\":14398:14418   */\n      swap1\n      pop\n        /* \"#utility.yul\":14253:14424   */\n      swap2\n      swap1\n      pop\n      jump\t// out\n        /* \"#utility.yul\":14430:14624   */\n    tag_263:\n        /* \"#utility.yul\":14470:14474   */\n      0x00\n        /* \"#utility.yul\":14490:14510   */\n      tag_848\n        /* \"#utility.yul\":14508:14509   */\n      dup3\n        /* \"#utility.yul\":14490:14510   */\n      tag_615\n      jump\t// in\n    tag_848:\n        /* \"#utility.yul\":14485:14510   */\n      swap2\n      pop\n        /* \"#utility.yul\":14524:14544   */\n      tag_849\n        /* \"#utility.yul\":14542:14543   */\n      dup4\n        /* \"#utility.yul\":14524:14544   */\n      tag_615\n      jump\t// in\n    tag_849:\n        /* \"#utility.yul\":14519:14544   */\n      swap3\n      pop\n        /* \"#utility.yul\":14568:14569   */\n      dup3\n        /* \"#utility.yul\":14565:14566   */\n      dup3\n        /* \"#utility.yul\":14561:14570   */\n      sub\n        /* \"#utility.yul\":14553:14570   */\n      swap1\n      pop\n        /* \"#utility.yul\":14592:14593   */\n      dup2\n        /* \"#utility.yul\":14586:14590   */\n      dup2\n        /* \"#utility.yul\":14583:14594   */\n      gt\n        /* \"#utility.yul\":14580:14617   */\n      iszero\n      tag_850\n      jumpi\n        /* \"#utility.yul\":14597:14615   */\n      tag_851\n      tag_658\n      jump\t// in\n    tag_851:\n        /* \"#utility.yul\":14580:14617   */\n    tag_850:\n        /* \"#utility.yul\":14430:14624   */\n      swap3\n      swap2\n      pop\n      pop\n      jump\t// out\n        /* \"#utility.yul\":14630:15072   */\n    tag_265:\n        /* \"#utility.yul\":14779:14783   */\n      0x00\n        /* \"#utility.yul\":14817:14819   */\n      0x60\n        /* \"#utility.yul\":14806:14815   */\n      dup3\n        /* \"#utility.yul\":14802:14820   */\n      add\n        /* \"#utility.yul\":14794:14820   */\n      swap1\n      pop\n        /* \"#utility.yul\":14830:14901   */\n      tag_853\n        /* \"#utility.yul\":14898:14899   */\n      0x00\n        /* \"#utility.yul\":14887:14896   */\n      dup4\n        /* \"#utility.yul\":14883:14900   */\n      add\n        /* \"#utility.yul\":14874:14880   */\n      dup7\n        /* \"#utility.yul\":14830:14901   */\n      tag_616\n      jump\t// in\n    tag_853:\n        /* \"#utility.yul\":14911:14983   */\n      tag_854\n        /* \"#utility.yul\":14979:14981   */\n      0x20\n        /* \"#utility.yul\":14968:14977   */\n      dup4\n        /* \"#utility.yul\":14964:14982   */\n      add\n        /* \"#utility.yul\":14955:14961   */\n      dup6\n        /* \"#utility.yul\":14911:14983   */\n      tag_616\n      jump\t// in\n    tag_854:\n        /* \"#utility.yul\":14993:15065   */\n      tag_855\n        /* \"#utility.yul\":15061:15063   */\n      0x40\n        /* \"#utility.yul\":15050:15059   */\n      dup4\n        /* \"#utility.yul\":15046:15064   */\n      add\n        /* \"#utility.yul\":15037:15043   */\n      dup5\n        /* \"#utility.yul\":14993:15065   */\n      tag_616\n      jump\t// in\n    tag_855:\n        /* \"#utility.yul\":14630:15072   */\n      swap5\n      swap4\n      pop\n      pop\n      pop\n      pop\n      jump\t// out\n        /* \"#utility.yul\":15078:15324   */\n    tag_659:\n        /* \"#utility.yul\":15218:15252   */\n      0x54686973206164647265737320646f6573206e6f742068617665207065726d69\n        /* \"#utility.yul\":15214:15215   */\n      0x00\n        /* \"#utility.yul\":15206:15212   */\n      dup3\n        /* \"#utility.yul\":15202:15216   */\n      add\n        /* \"#utility.yul\":15195:15253   */\n      mstore\n        /* \"#utility.yul\":15287:15316   */\n      0x7373696f6e20746f2063616c6c20706572666f726d55706b6565700000000000\n        /* \"#utility.yul\":15282:15284   */\n      0x20\n        /* \"#utility.yul\":15274:15280   */\n      dup3\n        /* \"#utility.yul\":15270:15285   */\n      add\n        /* \"#utility.yul\":15263:15317   */\n      mstore\n        /* \"#utility.yul\":15078:15324   */\n      pop\n      jump\t// out\n        /* \"#utility.yul\":15330:15696   */\n    tag_660:\n        /* \"#utility.yul\":15472:15475   */\n      0x00\n        /* \"#utility.yul\":15493:15560   */\n      tag_858\n        /* \"#utility.yul\":15557:15559   */\n      0x3b\n        /* \"#utility.yul\":15552:15555   */\n      dup4\n        /* \"#utility.yul\":15493:15560   */\n      tag_654\n      jump\t// in\n    tag_858:\n        /* \"#utility.yul\":15486:15560   */\n      swap2\n      pop\n        /* \"#utility.yul\":15569:15662   */\n      tag_859\n        /* \"#utility.yul\":15658:15661   */\n      dup3\n        /* \"#utility.yul\":15569:15662   */\n      tag_659\n      jump\t// in\n    tag_859:\n        /* \"#utility.yul\":15687:15689   */\n      0x40\n        /* \"#utility.yul\":15682:15685   */\n      dup3\n        /* \"#utility.yul\":15678:15690   */\n      add\n        /* \"#utility.yul\":15671:15690   */\n      swap1\n      pop\n        /* \"#utility.yul\":15330:15696   */\n      swap2\n      swap1\n      pop\n      jump\t// out\n        /* \"#utility.yul\":15702:16121   */\n    tag_269:\n        /* \"#utility.yul\":15868:15872   */\n      0x00\n        /* \"#utility.yul\":15906:15908   */\n      0x20\n        /* \"#utility.yul\":15895:15904   */\n      dup3\n        /* \"#utility.yul\":15891:15909   */\n      add\n        /* \"#utility.yul\":15883:15909   */\n      swap1\n      pop\n        /* \"#utility.yul\":15955:15964   */\n      dup2\n        /* \"#utility.yul\":15949:15953   */\n      dup2\n        /* \"#utility.yul\":15945:15965   */\n      sub\n        /* \"#utility.yul\":15941:15942   */\n      0x00\n        /* \"#utility.yul\":15930:15939   */\n      dup4\n        /* \"#utility.yul\":15926:15943   */\n      add\n        /* \"#utility.yul\":15919:15966   */\n      mstore\n        /* \"#utility.yul\":15983:16114   */\n      tag_861\n        /* \"#utility.yul\":16109:16113   */\n      dup2\n        /* \"#utility.yul\":15983:16114   */\n      tag_660\n      jump\t// in\n    tag_861:\n        /* \"#utility.yul\":15975:16114   */\n      swap1\n      pop\n        /* \"#utility.yul\":15702:16121   */\n      swap2\n      swap1\n      pop\n      jump\t// out\n        /* \"#utility.yul\":16127:16318   */\n    tag_285:\n        /* \"#utility.yul\":16167:16170   */\n      0x00\n        /* \"#utility.yul\":16186:16206   */\n      tag_863\n        /* \"#utility.yul\":16204:16205   */\n      dup3\n        /* \"#utility.yul\":16186:16206   */\n      tag_615\n      jump\t// in\n    tag_863:\n        /* \"#utility.yul\":16181:16206   */\n      swap2\n      pop\n        /* \"#utility.yul\":16220:16240   */\n      tag_864\n        /* \"#utility.yul\":16238:16239   */\n      dup4\n        /* \"#utility.yul\":16220:16240   */\n      tag_615\n      jump\t// in\n    tag_864:\n        /* \"#utility.yul\":16215:16240   */\n      swap3\n      pop\n        /* \"#utility.yul\":16263:16264   */\n      dup3\n        /* \"#utility.yul\":16260:16261   */\n      dup3\n        /* \"#utility.yul\":16256:16265   */\n      add\n        /* \"#utility.yul\":16249:16265   */\n      swap1\n      pop\n        /* \"#utility.yul\":16284:16287   */\n      dup1\n        /* \"#utility.yul\":16281:16282   */\n      dup3\n        /* \"#utility.yul\":16278:16288   */\n      gt\n        /* \"#utility.yul\":16275:16311   */\n      iszero\n      tag_865\n      jumpi\n        /* \"#utility.yul\":16291:16309   */\n      tag_866\n      tag_658\n      jump\t// in\n    tag_866:\n        /* \"#utility.yul\":16275:16311   */\n    tag_865:\n        /* \"#utility.yul\":16127:16318   */\n      swap3\n      swap2\n      pop\n      pop\n      jump\t// out\n        /* \"#utility.yul\":16324:16766   */\n    tag_287:\n        /* \"#utility.yul\":16473:16477   */\n      0x00\n        /* \"#utility.yul\":16511:16513   */\n      0x60\n        /* \"#utility.yul\":16500:16509   */\n      dup3\n        /* \"#utility.yul\":16496:16514   */\n      add\n        /* \"#utility.yul\":16488:16514   */\n      swap1\n      pop\n        /* \"#utility.yul\":16524:16595   */\n      tag_868\n        /* \"#utility.yul\":16592:16593   */\n      0x00\n        /* \"#utility.yul\":16581:16590   */\n      dup4\n        /* \"#utility.yul\":16577:16594   */\n      add\n        /* \"#utility.yul\":16568:16574   */\n      dup7\n        /* \"#utility.yul\":16524:16595   */\n      tag_629\n      jump\t// in\n    tag_868:\n        /* \"#utility.yul\":16605:16677   */\n      tag_869\n        /* \"#utility.yul\":16673:16675   */\n      0x20\n        /* \"#utility.yul\":16662:16671   */\n      dup4\n        /* \"#utility.yul\":16658:16676   */\n      add\n        /* \"#utility.yul\":16649:16655   */\n      dup6\n        /* \"#utility.yul\":16605:16677   */\n      tag_629\n      jump\t// in\n    tag_869:\n        /* \"#utility.yul\":16687:16759   */\n      tag_870\n        /* \"#utility.yul\":16755:16757   */\n      0x40\n        /* \"#utility.yul\":16744:16753   */\n      dup4\n        /* \"#utility.yul\":16740:16758   */\n      add\n        /* \"#utility.yul\":16731:16737   */\n      dup5\n        /* \"#utility.yul\":16687:16759   */\n      tag_616\n      jump\t// in\n    tag_870:\n        /* \"#utility.yul\":16324:16766   */\n      swap5\n      swap4\n      pop\n      pop\n      pop\n      pop\n      jump\t// out\n        /* \"#utility.yul\":16772:16909   */\n    tag_661:\n        /* \"#utility.yul\":16826:16831   */\n      0x00\n        /* \"#utility.yul\":16857:16863   */\n      dup2\n        /* \"#utility.yul\":16851:16864   */\n      mload\n        /* \"#utility.yul\":16842:16864   */\n      swap1\n      pop\n        /* \"#utility.yul\":16873:16903   */\n      tag_872\n        /* \"#utility.yul\":16897:16902   */\n      dup2\n        /* \"#utility.yul\":16873:16903   */\n      tag_656\n      jump\t// in\n    tag_872:\n        /* \"#utility.yul\":16772:16909   */\n      swap3\n      swap2\n      pop\n      pop\n      jump\t// out\n        /* \"#utility.yul\":16915:17260   */\n    tag_291:\n        /* \"#utility.yul\":16982:16988   */\n      0x00\n        /* \"#utility.yul\":17031:17033   */\n      0x20\n        /* \"#utility.yul\":17019:17028   */\n      dup3\n        /* \"#utility.yul\":17010:17017   */\n      dup5\n        /* \"#utility.yul\":17006:17029   */\n      sub\n        /* \"#utility.yul\":17002:17034   */\n      slt\n        /* \"#utility.yul\":16999:17118   */\n      iszero\n      tag_874\n      jumpi\n        /* \"#utility.yul\":17037:17116   */\n      tag_875\n      tag_624\n      jump\t// in\n    tag_875:\n        /* \"#utility.yul\":16999:17118   */\n    tag_874:\n        /* \"#utility.yul\":17157:17158   */\n      0x00\n        /* \"#utility.yul\":17182:17243   */\n      tag_876\n        /* \"#utility.yul\":17235:17242   */\n      dup5\n        /* \"#utility.yul\":17226:17232   */\n      dup3\n        /* \"#utility.yul\":17215:17224   */\n      dup6\n        /* \"#utility.yul\":17211:17233   */\n      add\n        /* \"#utility.yul\":17182:17243   */\n      tag_661\n      jump\t// in\n    tag_876:\n        /* \"#utility.yul\":17172:17243   */\n      swap2\n      pop\n        /* \"#utility.yul\":17128:17253   */\n      pop\n        /* \"#utility.yul\":16915:17260   */\n      swap3\n      swap2\n      pop\n      pop\n      jump\t// out\n        /* \"#utility.yul\":17266:17598   */\n    tag_303:\n        /* \"#utility.yul\":17387:17391   */\n      0x00\n        /* \"#utility.yul\":17425:17427   */\n      0x40\n        /* \"#utility.yul\":17414:17423   */\n      dup3\n        /* \"#utility.yul\":17410:17428   */\n      add\n        /* \"#utility.yul\":17402:17428   */\n      swap1\n      pop\n        /* \"#utility.yul\":17438:17509   */\n      tag_878\n        /* \"#utility.yul\":17506:17507   */\n      0x00\n        /* \"#utility.yul\":17495:17504   */\n      dup4\n        /* \"#utility.yul\":17491:17508   */\n      add\n        /* \"#utility.yul\":17482:17488   */\n      dup6\n        /* \"#utility.yul\":17438:17509   */\n      tag_629\n      jump\t// in\n    tag_878:\n        /* \"#utility.yul\":17519:17591   */\n      tag_879\n        /* \"#utility.yul\":17587:17589   */\n      0x20\n        /* \"#utility.yul\":17576:17585   */\n      dup4\n        /* \"#utility.yul\":17572:17590   */\n      add\n        /* \"#utility.yul\":17563:17569   */\n      dup5\n        /* \"#utility.yul\":17519:17591   */\n      tag_616\n      jump\t// in\n    tag_879:\n        /* \"#utility.yul\":17266:17598   */\n      swap4\n      swap3\n      pop\n      pop\n      pop\n      jump\t// out\n        /* \"#utility.yul\":17604:17770   */\n    tag_662:\n        /* \"#utility.yul\":17744:17762   */\n      0x696e76616c6964205f616d6f756e742100000000000000000000000000000000\n        /* \"#utility.yul\":17740:17741   */\n      0x00\n        /* \"#utility.yul\":17732:17738   */\n      dup3\n        /* \"#utility.yul\":17728:17742   */\n      add\n        /* \"#utility.yul\":17721:17763   */\n      mstore\n        /* \"#utility.yul\":17604:17770   */\n      pop\n      jump\t// out\n        /* \"#utility.yul\":17776:18142   */\n    tag_663:\n        /* \"#utility.yul\":17918:17921   */\n      0x00\n        /* \"#utility.yul\":17939:18006   */\n      tag_882\n        /* \"#utility.yul\":18003:18005   */\n      0x10\n        /* \"#utility.yul\":17998:18001   */\n      dup4\n        /* \"#utility.yul\":17939:18006   */\n      tag_654\n      jump\t// in\n    tag_882:\n        /* \"#utility.yul\":17932:18006   */\n      swap2\n      pop\n        /* \"#utility.yul\":18015:18108   */\n      tag_883\n        /* \"#utility.yul\":18104:18107   */\n      dup3\n        /* \"#utility.yul\":18015:18108   */\n      tag_662\n      jump\t// in\n    tag_883:\n        /* \"#utility.yul\":18133:18135   */\n      0x20\n        /* \"#utility.yul\":18128:18131   */\n      dup3\n        /* \"#utility.yul\":18124:18136   */\n      add\n        /* \"#utility.yul\":18117:18136   */\n      swap1\n      pop\n        /* \"#utility.yul\":17776:18142   */\n      swap2\n      swap1\n      pop\n      jump\t// out\n        /* \"#utility.yul\":18148:18567   */\n    tag_309:\n        /* \"#utility.yul\":18314:18318   */\n      0x00\n        /* \"#utility.yul\":18352:18354   */\n      0x20\n        /* \"#utility.yul\":18341:18350   */\n      dup3\n        /* \"#utility.yul\":18337:18355   */\n      add\n        /* \"#utility.yul\":18329:18355   */\n      swap1\n      pop\n        /* \"#utility.yul\":18401:18410   */\n      dup2\n        /* \"#utility.yul\":18395:18399   */\n      dup2\n        /* \"#utility.yul\":18391:18411   */\n      sub\n        /* \"#utility.yul\":18387:18388   */\n      0x00\n        /* \"#utility.yul\":18376:18385   */\n      dup4\n        /* \"#utility.yul\":18372:18389   */\n      add\n        /* \"#utility.yul\":18365:18412   */\n      mstore\n        /* \"#utility.yul\":18429:18560   */\n      tag_885\n        /* \"#utility.yul\":18555:18559   */\n      dup2\n        /* \"#utility.yul\":18429:18560   */\n      tag_663\n      jump\t// in\n    tag_885:\n        /* \"#utility.yul\":18421:18560   */\n      swap1\n      pop\n        /* \"#utility.yul\":18148:18567   */\n      swap2\n      swap1\n      pop\n      jump\t// out\n        /* \"#utility.yul\":18573:18905   */\n    tag_393:\n        /* \"#utility.yul\":18694:18698   */\n      0x00\n        /* \"#utility.yul\":18732:18734   */\n      0x40\n        /* \"#utility.yul\":18721:18730   */\n      dup3\n        /* \"#utility.yul\":18717:18735   */\n      add\n        /* \"#utility.yul\":18709:18735   */\n      swap1\n      pop\n        /* \"#utility.yul\":18745:18816   */\n      tag_887\n        /* \"#utility.yul\":18813:18814   */\n      0x00\n        /* \"#utility.yul\":18802:18811   */\n      dup4\n        /* \"#utility.yul\":18798:18815   */\n      add\n        /* \"#utility.yul\":18789:18795   */\n      dup6\n        /* \"#utility.yul\":18745:18816   */\n      tag_616\n      jump\t// in\n    tag_887:\n        /* \"#utility.yul\":18826:18898   */\n      tag_888\n        /* \"#utility.yul\":18894:18896   */\n      0x20\n        /* \"#utility.yul\":18883:18892   */\n      dup4\n        /* \"#utility.yul\":18879:18897   */\n      add\n        /* \"#utility.yul\":18870:18876   */\n      dup5\n        /* \"#utility.yul\":18826:18898   */\n      tag_616\n      jump\t// in\n    tag_888:\n        /* \"#utility.yul\":18573:18905   */\n      swap4\n      swap3\n      pop\n      pop\n      pop\n      jump\t// out\n        /* \"#utility.yul\":18911:18996   */\n    tag_664:\n        /* \"#utility.yul\":18956:18963   */\n      0x00\n        /* \"#utility.yul\":18985:18990   */\n      dup2\n        /* \"#utility.yul\":18974:18990   */\n      swap1\n      pop\n        /* \"#utility.yul\":18911:18996   */\n      swap2\n      swap1\n      pop\n      jump\t// out\n        /* \"#utility.yul\":19002:19103   */\n    tag_665:\n        /* \"#utility.yul\":19038:19045   */\n      0x00\n        /* \"#utility.yul\":19078:19096   */\n      0xffffffffffffffff\n        /* \"#utility.yul\":19071:19076   */\n      dup3\n        /* \"#utility.yul\":19067:19097   */\n      and\n        /* \"#utility.yul\":19056:19097   */\n      swap1\n      pop\n        /* \"#utility.yul\":19002:19103   */\n      swap2\n      swap1\n      pop\n      jump\t// out\n        /* \"#utility.yul\":19109:19265   */\n    tag_666:\n        /* \"#utility.yul\":19166:19175   */\n      0x00\n        /* \"#utility.yul\":19199:19259   */\n      tag_892\n        /* \"#utility.yul\":19216:19258   */\n      tag_893\n        /* \"#utility.yul\":19225:19257   */\n      tag_894\n        /* \"#utility.yul\":19251:19256   */\n      dup5\n        /* \"#utility.yul\":19225:19257   */\n      tag_664\n      jump\t// in\n    tag_894:\n        /* \"#utility.yul\":19216:19258   */\n      tag_618\n      jump\t// in\n    tag_893:\n        /* \"#utility.yul\":19199:19259   */\n      tag_665\n      jump\t// in\n    tag_892:\n        /* \"#utility.yul\":19186:19259   */\n      swap1\n      pop\n        /* \"#utility.yul\":19109:19265   */\n      swap2\n      swap1\n      pop\n      jump\t// out\n        /* \"#utility.yul\":19271:19416   */\n    tag_667:\n        /* \"#utility.yul\":19365:19409   */\n      tag_896\n        /* \"#utility.yul\":19403:19408   */\n      dup2\n        /* \"#utility.yul\":19365:19409   */\n      tag_666\n      jump\t// in\n    tag_896:\n        /* \"#utility.yul\":19360:19363   */\n      dup3\n        /* \"#utility.yul\":19353:19410   */\n      mstore\n        /* \"#utility.yul\":19271:19416   */\n      pop\n      pop\n      jump\t// out\n        /* \"#utility.yul\":19422:19658   */\n    tag_424:\n        /* \"#utility.yul\":19522:19526   */\n      0x00\n        /* \"#utility.yul\":19560:19562   */\n      0x20\n        /* \"#utility.yul\":19549:19558   */\n      dup3\n        /* \"#utility.yul\":19545:19563   */\n      add\n        /* \"#utility.yul\":19537:19563   */\n      swap1\n      pop\n        /* \"#utility.yul\":19573:19651   */\n      tag_898\n        /* \"#utility.yul\":19648:19649   */\n      0x00\n        /* \"#utility.yul\":19637:19646   */\n      dup4\n        /* \"#utility.yul\":19633:19650   */\n      add\n        /* \"#utility.yul\":19624:19630   */\n      dup5\n        /* \"#utility.yul\":19573:19651   */\n      tag_667\n      jump\t// in\n    tag_898:\n        /* \"#utility.yul\":19422:19658   */\n      swap3\n      swap2\n      pop\n      pop\n      jump\t// out\n        /* \"#utility.yul\":19664:19996   */\n    tag_431:\n        /* \"#utility.yul\":19785:19789   */\n      0x00\n        /* \"#utility.yul\":19823:19825   */\n      0x40\n        /* \"#utility.yul\":19812:19821   */\n      dup3\n        /* \"#utility.yul\":19808:19826   */\n      add\n        /* \"#utility.yul\":19800:19826   */\n      swap1\n      pop\n        /* \"#utility.yul\":19836:19907   */\n      tag_900\n        /* \"#utility.yul\":19904:19905   */\n      0x00\n        /* \"#utility.yul\":19893:19902   */\n      dup4\n        /* \"#utility.yul\":19889:19906   */\n      add\n        /* \"#utility.yul\":19880:19886   */\n      dup6\n        /* \"#utility.yul\":19836:19907   */\n      tag_629\n      jump\t// in\n    tag_900:\n        /* \"#utility.yul\":19917:19989   */\n      tag_901\n        /* \"#utility.yul\":19985:19987   */\n      0x20\n        /* \"#utility.yul\":19974:19983   */\n      dup4\n        /* \"#utility.yul\":19970:19988   */\n      add\n        /* \"#utility.yul\":19961:19967   */\n      dup5\n        /* \"#utility.yul\":19917:19989   */\n      tag_629\n      jump\t// in\n    tag_901:\n        /* \"#utility.yul\":19664:19996   */\n      swap4\n      swap3\n      pop\n      pop\n      pop\n      jump\t// out\n        /* \"#utility.yul\":20002:20432   */\n    tag_443:\n        /* \"#utility.yul\":20145:20149   */\n      0x00\n        /* \"#utility.yul\":20183:20185   */\n      0x60\n        /* \"#utility.yul\":20172:20181   */\n      dup3\n        /* \"#utility.yul\":20168:20186   */\n      add\n        /* \"#utility.yul\":20160:20186   */\n      swap1\n      pop\n        /* \"#utility.yul\":20196:20267   */\n      tag_903\n        /* \"#utility.yul\":20264:20265   */\n      0x00\n        /* \"#utility.yul\":20253:20262   */\n      dup4\n        /* \"#utility.yul\":20249:20266   */\n      add\n        /* \"#utility.yul\":20240:20246   */\n      dup7\n        /* \"#utility.yul\":20196:20267   */\n      tag_629\n      jump\t// in\n    tag_903:\n        /* \"#utility.yul\":20277:20349   */\n      tag_904\n        /* \"#utility.yul\":20345:20347   */\n      0x20\n        /* \"#utility.yul\":20334:20343   */\n      dup4\n        /* \"#utility.yul\":20330:20348   */\n      add\n        /* \"#utility.yul\":20321:20327   */\n      dup6\n        /* \"#utility.yul\":20277:20349   */\n      tag_629\n      jump\t// in\n    tag_904:\n        /* \"#utility.yul\":20359:20425   */\n      tag_905\n        /* \"#utility.yul\":20421:20423   */\n      0x40\n        /* \"#utility.yul\":20410:20419   */\n      dup4\n        /* \"#utility.yul\":20406:20424   */\n      add\n        /* \"#utility.yul\":20397:20403   */\n      dup5\n        /* \"#utility.yul\":20359:20425   */\n      tag_648\n      jump\t// in\n    tag_905:\n        /* \"#utility.yul\":20002:20432   */\n      swap5\n      swap4\n      pop\n      pop\n      pop\n      pop\n      jump\t// out\n        /* \"#utility.yul\":20438:20605   */\n    tag_668:\n        /* \"#utility.yul\":20578:20597   */\n      0x6e6f7420656e6f75676820616d6f756e74000000000000000000000000000000\n        /* \"#utility.yul\":20574:20575   */\n      0x00\n        /* \"#utility.yul\":20566:20572   */\n      dup3\n        /* \"#utility.yul\":20562:20576   */\n      add\n        /* \"#utility.yul\":20555:20598   */\n      mstore\n        /* \"#utility.yul\":20438:20605   */\n      pop\n      jump\t// out\n        /* \"#utility.yul\":20611:20977   */\n    tag_669:\n        /* \"#utility.yul\":20753:20756   */\n      0x00\n        /* \"#utility.yul\":20774:20841   */\n      tag_908\n        /* \"#utility.yul\":20838:20840   */\n      0x11\n        /* \"#utility.yul\":20833:20836   */\n      dup4\n        /* \"#utility.yul\":20774:20841   */\n      tag_654\n      jump\t// in\n    tag_908:\n        /* \"#utility.yul\":20767:20841   */\n      swap2\n      pop\n        /* \"#utility.yul\":20850:20943   */\n      tag_909\n        /* \"#utility.yul\":20939:20942   */\n      dup3\n        /* \"#utility.yul\":20850:20943   */\n      tag_668\n      jump\t// in\n    tag_909:\n        /* \"#utility.yul\":20968:20970   */\n      0x20\n        /* \"#utility.yul\":20963:20966   */\n      dup3\n        /* \"#utility.yul\":20959:20971   */\n      add\n        /* \"#utility.yul\":20952:20971   */\n      swap1\n      pop\n        /* \"#utility.yul\":20611:20977   */\n      swap2\n      swap1\n      pop\n      jump\t// out\n        /* \"#utility.yul\":20983:21402   */\n    tag_455:\n        /* \"#utility.yul\":21149:21153   */\n      0x00\n        /* \"#utility.yul\":21187:21189   */\n      0x20\n        /* \"#utility.yul\":21176:21185   */\n      dup3\n        /* \"#utility.yul\":21172:21190   */\n      add\n        /* \"#utility.yul\":21164:21190   */\n      swap1\n      pop\n        /* \"#utility.yul\":21236:21245   */\n      dup2\n        /* \"#utility.yul\":21230:21234   */\n      dup2\n        /* \"#utility.yul\":21226:21246   */\n      sub\n        /* \"#utility.yul\":21222:21223   */\n      0x00\n        /* \"#utility.yul\":21211:21220   */\n      dup4\n        /* \"#utility.yul\":21207:21224   */\n      add\n        /* \"#utility.yul\":21200:21247   */\n      mstore\n        /* \"#utility.yul\":21264:21395   */\n      tag_911\n        /* \"#utility.yul\":21390:21394   */\n      dup2\n        /* \"#utility.yul\":21264:21395   */\n      tag_669\n      jump\t// in\n    tag_911:\n        /* \"#utility.yul\":21256:21395   */\n      swap1\n      pop\n        /* \"#utility.yul\":20983:21402   */\n      swap2\n      swap1\n      pop\n      jump\t// out\n        /* \"#utility.yul\":21408:21818   */\n    tag_461:\n        /* \"#utility.yul\":21448:21455   */\n      0x00\n        /* \"#utility.yul\":21471:21491   */\n      tag_913\n        /* \"#utility.yul\":21489:21490   */\n      dup3\n        /* \"#utility.yul\":21471:21491   */\n      tag_615\n      jump\t// in\n    tag_913:\n        /* \"#utility.yul\":21466:21491   */\n      swap2\n      pop\n        /* \"#utility.yul\":21505:21525   */\n      tag_914\n        /* \"#utility.yul\":21523:21524   */\n      dup4\n        /* \"#utility.yul\":21505:21525   */\n      tag_615\n      jump\t// in\n    tag_914:\n        /* \"#utility.yul\":21500:21525   */\n      swap3\n      pop\n        /* \"#utility.yul\":21560:21561   */\n      dup3\n        /* \"#utility.yul\":21557:21558   */\n      dup3\n        /* \"#utility.yul\":21553:21562   */\n      mul\n        /* \"#utility.yul\":21582:21612   */\n      tag_915\n        /* \"#utility.yul\":21600:21611   */\n      dup2\n        /* \"#utility.yul\":21582:21612   */\n      tag_615\n      jump\t// in\n    tag_915:\n        /* \"#utility.yul\":21571:21612   */\n      swap2\n      pop\n        /* \"#utility.yul\":21761:21762   */\n      dup3\n        /* \"#utility.yul\":21752:21759   */\n      dup3\n        /* \"#utility.yul\":21748:21763   */\n      div\n        /* \"#utility.yul\":21745:21746   */\n      dup5\n        /* \"#utility.yul\":21742:21764   */\n      eq\n        /* \"#utility.yul\":21722:21723   */\n      dup4\n        /* \"#utility.yul\":21715:21724   */\n      iszero\n        /* \"#utility.yul\":21695:21778   */\n      or\n        /* \"#utility.yul\":21672:21811   */\n      tag_916\n      jumpi\n        /* \"#utility.yul\":21791:21809   */\n      tag_917\n      tag_658\n      jump\t// in\n    tag_917:\n        /* \"#utility.yul\":21672:21811   */\n    tag_916:\n        /* \"#utility.yul\":21456:21818   */\n      pop\n        /* \"#utility.yul\":21408:21818   */\n      swap3\n      swap2\n      pop\n      pop\n      jump\t// out\n        /* \"#utility.yul\":21824:22004   */\n    tag_670:\n        /* \"#utility.yul\":21872:21949   */\n      0x4e487b7100000000000000000000000000000000000000000000000000000000\n        /* \"#utility.yul\":21869:21870   */\n      0x00\n        /* \"#utility.yul\":21862:21950   */\n      mstore\n        /* \"#utility.yul\":21969:21973   */\n      0x12\n        /* \"#utility.yul\":21966:21967   */\n      0x04\n        /* \"#utility.yul\":21959:21974   */\n      mstore\n        /* \"#utility.yul\":21993:21997   */\n      0x24\n        /* \"#utility.yul\":21990:21991   */\n      0x00\n        /* \"#utility.yul\":21983:21998   */\n      revert\n        /* \"#utility.yul\":22010:22195   */\n    tag_463:\n        /* \"#utility.yul\":22050:22051   */\n      0x00\n        /* \"#utility.yul\":22067:22087   */\n      tag_920\n        /* \"#utility.yul\":22085:22086   */\n      dup3\n        /* \"#utility.yul\":22067:22087   */\n      tag_615\n      jump\t// in\n    tag_920:\n        /* \"#utility.yul\":22062:22087   */\n      swap2\n      pop\n        /* \"#utility.yul\":22101:22121   */\n      tag_921\n        /* \"#utility.yul\":22119:22120   */\n      dup4\n        /* \"#utility.yul\":22101:22121   */\n      tag_615\n      jump\t// in\n    tag_921:\n        /* \"#utility.yul\":22096:22121   */\n      swap3\n      pop\n        /* \"#utility.yul\":22140:22141   */\n      dup3\n        /* \"#utility.yul\":22130:22165   */\n      tag_922\n      jumpi\n        /* \"#utility.yul\":22145:22163   */\n      tag_923\n      tag_670\n      jump\t// in\n    tag_923:\n        /* \"#utility.yul\":22130:22165   */\n    tag_922:\n        /* \"#utility.yul\":22187:22188   */\n      dup3\n        /* \"#utility.yul\":22184:22185   */\n      dup3\n        /* \"#utility.yul\":22180:22189   */\n      div\n        /* \"#utility.yul\":22175:22189   */\n      swap1\n      pop\n        /* \"#utility.yul\":22010:22195   */\n      swap3\n      swap2\n      pop\n      pop\n      jump\t// out\n        /* \"#utility.yul\":22201:22377   */\n    tag_671:\n        /* \"#utility.yul\":22341:22369   */\n      0x416d6f756e742069732067726561746572207468656e20353025000000000000\n        /* \"#utility.yul\":22337:22338   */\n      0x00\n        /* \"#utility.yul\":22329:22335   */\n      dup3\n        /* \"#utility.yul\":22325:22339   */\n      add\n        /* \"#utility.yul\":22318:22370   */\n      mstore\n        /* \"#utility.yul\":22201:22377   */\n      pop\n      jump\t// out\n        /* \"#utility.yul\":22383:22749   */\n    tag_672:\n        /* \"#utility.yul\":22525:22528   */\n      0x00\n        /* \"#utility.yul\":22546:22613   */\n      tag_926\n        /* \"#utility.yul\":22610:22612   */\n      0x1a\n        /* \"#utility.yul\":22605:22608   */\n      dup4\n        /* \"#utility.yul\":22546:22613   */\n      tag_654\n      jump\t// in\n    tag_926:\n        /* \"#utility.yul\":22539:22613   */\n      swap2\n      pop\n        /* \"#utility.yul\":22622:22715   */\n      tag_927\n        /* \"#utility.yul\":22711:22714   */\n      dup3\n        /* \"#utility.yul\":22622:22715   */\n      tag_671\n      jump\t// in\n    tag_927:\n        /* \"#utility.yul\":22740:22742   */\n      0x20\n        /* \"#utility.yul\":22735:22738   */\n      dup3\n        /* \"#utility.yul\":22731:22743   */\n      add\n        /* \"#utility.yul\":22724:22743   */\n      swap1\n      pop\n        /* \"#utility.yul\":22383:22749   */\n      swap2\n      swap1\n      pop\n      jump\t// out\n        /* \"#utility.yul\":22755:23174   */\n    tag_473:\n        /* \"#utility.yul\":22921:22925   */\n      0x00\n        /* \"#utility.yul\":22959:22961   */\n      0x20\n        /* \"#utility.yul\":22948:22957   */\n      dup3\n        /* \"#utility.yul\":22944:22962   */\n      add\n        /* \"#utility.yul\":22936:22962   */\n      swap1\n      pop\n        /* \"#utility.yul\":23008:23017   */\n      dup2\n        /* \"#utility.yul\":23002:23006   */\n      dup2\n        /* \"#utility.yul\":22998:23018   */\n      sub\n        /* \"#utility.yul\":22994:22995   */\n      0x00\n        /* \"#utility.yul\":22983:22992   */\n      dup4\n        /* \"#utility.yul\":22979:22996   */\n      add\n        /* \"#utility.yul\":22972:23019   */\n      mstore\n        /* \"#utility.yul\":23036:23167   */\n      tag_929\n        /* \"#utility.yul\":23162:23166   */\n      dup2\n        /* \"#utility.yul\":23036:23167   */\n      tag_672\n      jump\t// in\n    tag_929:\n        /* \"#utility.yul\":23028:23167   */\n      swap1\n      pop\n        /* \"#utility.yul\":22755:23174   */\n      swap2\n      swap1\n      pop\n      jump\t// out\n        /* \"#utility.yul\":23180:23302   */\n    tag_673:\n        /* \"#utility.yul\":23253:23277   */\n      tag_931\n        /* \"#utility.yul\":23271:23276   */\n      dup2\n        /* \"#utility.yul\":23253:23277   */\n      tag_645\n      jump\t// in\n    tag_931:\n        /* \"#utility.yul\":23246:23251   */\n      dup2\n        /* \"#utility.yul\":23243:23278   */\n      eq\n        /* \"#utility.yul\":23233:23296   */\n      tag_932\n      jumpi\n        /* \"#utility.yul\":23292:23293   */\n      0x00\n        /* \"#utility.yul\":23289:23290   */\n      0x00\n        /* \"#utility.yul\":23282:23294   */\n      revert\n        /* \"#utility.yul\":23233:23296   */\n    tag_932:\n        /* \"#utility.yul\":23180:23302   */\n      pop\n      jump\t// out\n        /* \"#utility.yul\":23308:23451   */\n    tag_674:\n        /* \"#utility.yul\":23365:23370   */\n      0x00\n        /* \"#utility.yul\":23396:23402   */\n      dup2\n        /* \"#utility.yul\":23390:23403   */\n      mload\n        /* \"#utility.yul\":23381:23403   */\n      swap1\n      pop\n        /* \"#utility.yul\":23412:23445   */\n      tag_934\n        /* \"#utility.yul\":23439:23444   */\n      dup2\n        /* \"#utility.yul\":23412:23445   */\n      tag_673\n      jump\t// in\n    tag_934:\n        /* \"#utility.yul\":23308:23451   */\n      swap3\n      swap2\n      pop\n      pop\n      jump\t// out\n        /* \"#utility.yul\":23457:23808   */\n    tag_505:\n        /* \"#utility.yul\":23527:23533   */\n      0x00\n        /* \"#utility.yul\":23576:23578   */\n      0x20\n        /* \"#utility.yul\":23564:23573   */\n      dup3\n        /* \"#utility.yul\":23555:23562   */\n      dup5\n        /* \"#utility.yul\":23551:23574   */\n      sub\n        /* \"#utility.yul\":23547:23579   */\n      slt\n        /* \"#utility.yul\":23544:23663   */\n      iszero\n      tag_936\n      jumpi\n        /* \"#utility.yul\":23582:23661   */\n      tag_937\n      tag_624\n      jump\t// in\n    tag_937:\n        /* \"#utility.yul\":23544:23663   */\n    tag_936:\n        /* \"#utility.yul\":23702:23703   */\n      0x00\n        /* \"#utility.yul\":23727:23791   */\n      tag_938\n        /* \"#utility.yul\":23783:23790   */\n      dup5\n        /* \"#utility.yul\":23774:23780   */\n      dup3\n        /* \"#utility.yul\":23763:23772   */\n      dup6\n        /* \"#utility.yul\":23759:23781   */\n      add\n        /* \"#utility.yul\":23727:23791   */\n      tag_674\n      jump\t// in\n    tag_938:\n        /* \"#utility.yul\":23717:23791   */\n      swap2\n      pop\n        /* \"#utility.yul\":23673:23801   */\n      pop\n        /* \"#utility.yul\":23457:23808   */\n      swap3\n      swap2\n      pop\n      pop\n      jump\t// out\n        /* \"#utility.yul\":23814:23973   */\n    tag_675:\n        /* \"#utility.yul\":23954:23965   */\n      0x6e6f207573657273210000000000000000000000000000000000000000000000\n        /* \"#utility.yul\":23950:23951   */\n      0x00\n        /* \"#utility.yul\":23942:23948   */\n      dup3\n        /* \"#utility.yul\":23938:23952   */\n      add\n        /* \"#utility.yul\":23931:23966   */\n      mstore\n        /* \"#utility.yul\":23814:23973   */\n      pop\n      jump\t// out\n        /* \"#utility.yul\":23979:24344   */\n    tag_676:\n        /* \"#utility.yul\":24121:24124   */\n      0x00\n        /* \"#utility.yul\":24142:24208   */\n      tag_941\n        /* \"#utility.yul\":24206:24207   */\n      0x09\n        /* \"#utility.yul\":24201:24204   */\n      dup4\n        /* \"#utility.yul\":24142:24208   */\n      tag_654\n      jump\t// in\n    tag_941:\n        /* \"#utility.yul\":24135:24208   */\n      swap2\n      pop\n        /* \"#utility.yul\":24217:24310   */\n      tag_942\n        /* \"#utility.yul\":24306:24309   */\n      dup3\n        /* \"#utility.yul\":24217:24310   */\n      tag_675\n      jump\t// in\n    tag_942:\n        /* \"#utility.yul\":24335:24337   */\n      0x20\n        /* \"#utility.yul\":24330:24333   */\n      dup3\n        /* \"#utility.yul\":24326:24338   */\n      add\n        /* \"#utility.yul\":24319:24338   */\n      swap1\n      pop\n        /* \"#utility.yul\":23979:24344   */\n      swap2\n      swap1\n      pop\n      jump\t// out\n        /* \"#utility.yul\":24350:24769   */\n    tag_545:\n        /* \"#utility.yul\":24516:24520   */\n      0x00\n        /* \"#utility.yul\":24554:24556   */\n      0x20\n        /* \"#utility.yul\":24543:24552   */\n      dup3\n        /* \"#utility.yul\":24539:24557   */\n      add\n        /* \"#utility.yul\":24531:24557   */\n      swap1\n      pop\n        /* \"#utility.yul\":24603:24612   */\n      dup2\n        /* \"#utility.yul\":24597:24601   */\n      dup2\n        /* \"#utility.yul\":24593:24613   */\n      sub\n        /* \"#utility.yul\":24589:24590   */\n      0x00\n        /* \"#utility.yul\":24578:24587   */\n      dup4\n        /* \"#utility.yul\":24574:24591   */\n      add\n        /* \"#utility.yul\":24567:24614   */\n      mstore\n        /* \"#utility.yul\":24631:24762   */\n      tag_944\n        /* \"#utility.yul\":24757:24761   */\n      dup2\n        /* \"#utility.yul\":24631:24762   */\n      tag_676\n      jump\t// in\n    tag_944:\n        /* \"#utility.yul\":24623:24762   */\n      swap1\n      pop\n        /* \"#utility.yul\":24350:24769   */\n      swap2\n      swap1\n      pop\n      jump\t// out\n        /* \"#utility.yul\":24775:24995   */\n    tag_677:\n        /* \"#utility.yul\":24915:24949   */\n      0x5f746f74616c5374616b65416d6f756e742063616e206e6f74206265207a6572\n        /* \"#utility.yul\":24911:24912   */\n      0x00\n        /* \"#utility.yul\":24903:24909   */\n      dup3\n        /* \"#utility.yul\":24899:24913   */\n      add\n        /* \"#utility.yul\":24892:24950   */\n      mstore\n        /* \"#utility.yul\":24984:24987   */\n      0x6f00000000000000000000000000000000000000000000000000000000000000\n        /* \"#utility.yul\":24979:24981   */\n      0x20\n        /* \"#utility.yul\":24971:24977   */\n      dup3\n        /* \"#utility.yul\":24967:24982   */\n      add\n        /* \"#utility.yul\":24960:24988   */\n      mstore\n        /* \"#utility.yul\":24775:24995   */\n      pop\n      jump\t// out\n        /* \"#utility.yul\":25001:25367   */\n    tag_678:\n        /* \"#utility.yul\":25143:25146   */\n      0x00\n        /* \"#utility.yul\":25164:25231   */\n      tag_947\n        /* \"#utility.yul\":25228:25230   */\n      0x21\n        /* \"#utility.yul\":25223:25226   */\n      dup4\n        /* \"#utility.yul\":25164:25231   */\n      tag_654\n      jump\t// in\n    tag_947:\n        /* \"#utility.yul\":25157:25231   */\n      swap2\n      pop\n        /* \"#utility.yul\":25240:25333   */\n      tag_948\n        /* \"#utility.yul\":25329:25332   */\n      dup3\n        /* \"#utility.yul\":25240:25333   */\n      tag_677\n      jump\t// in\n    tag_948:\n        /* \"#utility.yul\":25358:25360   */\n      0x40\n        /* \"#utility.yul\":25353:25356   */\n      dup3\n        /* \"#utility.yul\":25349:25361   */\n      add\n        /* \"#utility.yul\":25342:25361   */\n      swap1\n      pop\n        /* \"#utility.yul\":25001:25367   */\n      swap2\n      swap1\n      pop\n      jump\t// out\n        /* \"#utility.yul\":25373:25792   */\n    tag_559:\n        /* \"#utility.yul\":25539:25543   */\n      0x00\n        /* \"#utility.yul\":25577:25579   */\n      0x20\n        /* \"#utility.yul\":25566:25575   */\n      dup3\n        /* \"#utility.yul\":25562:25580   */\n      add\n        /* \"#utility.yul\":25554:25580   */\n      swap1\n      pop\n        /* \"#utility.yul\":25626:25635   */\n      dup2\n        /* \"#utility.yul\":25620:25624   */\n      dup2\n        /* \"#utility.yul\":25616:25636   */\n      sub\n        /* \"#utility.yul\":25612:25613   */\n      0x00\n        /* \"#utility.yul\":25601:25610   */\n      dup4\n        /* \"#utility.yul\":25597:25614   */\n      add\n        /* \"#utility.yul\":25590:25637   */\n      mstore\n        /* \"#utility.yul\":25654:25785   */\n      tag_950\n        /* \"#utility.yul\":25780:25784   */\n      dup2\n        /* \"#utility.yul\":25654:25785   */\n      tag_678\n      jump\t// in\n    tag_950:\n        /* \"#utility.yul\":25646:25785   */\n      swap1\n      pop\n        /* \"#utility.yul\":25373:25792   */\n      swap2\n      swap1\n      pop\n      jump\t// out\n        /* \"#utility.yul\":25798:25945   */\n    tag_679:\n        /* \"#utility.yul\":25899:25910   */\n      0x00\n        /* \"#utility.yul\":25936:25939   */\n      dup2\n        /* \"#utility.yul\":25921:25939   */\n      swap1\n      pop\n        /* \"#utility.yul\":25798:25945   */\n      swap3\n      swap2\n      pop\n      pop\n      jump\t// out\n        /* \"#utility.yul\":25951:26337   */\n    tag_680:\n        /* \"#utility.yul\":26055:26058   */\n      0x00\n        /* \"#utility.yul\":26083:26121   */\n      tag_953\n        /* \"#utility.yul\":26115:26120   */\n      dup3\n        /* \"#utility.yul\":26083:26121   */\n      tag_649\n      jump\t// in\n    tag_953:\n        /* \"#utility.yul\":26137:26225   */\n      tag_954\n        /* \"#utility.yul\":26218:26224   */\n      dup2\n        /* \"#utility.yul\":26213:26216   */\n      dup6\n        /* \"#utility.yul\":26137:26225   */\n      tag_679\n      jump\t// in\n    tag_954:\n        /* \"#utility.yul\":26130:26225   */\n      swap4\n      pop\n        /* \"#utility.yul\":26234:26299   */\n      tag_955\n        /* \"#utility.yul\":26292:26298   */\n      dup2\n        /* \"#utility.yul\":26287:26290   */\n      dup6\n        /* \"#utility.yul\":26280:26284   */\n      0x20\n        /* \"#utility.yul\":26273:26278   */\n      dup7\n        /* \"#utility.yul\":26269:26285   */\n      add\n        /* \"#utility.yul\":26234:26299   */\n      tag_651\n      jump\t// in\n    tag_955:\n        /* \"#utility.yul\":26324:26330   */\n      dup1\n        /* \"#utility.yul\":26319:26322   */\n      dup5\n        /* \"#utility.yul\":26315:26331   */\n      add\n        /* \"#utility.yul\":26308:26331   */\n      swap2\n      pop\n        /* \"#utility.yul\":26059:26337   */\n      pop\n        /* \"#utility.yul\":25951:26337   */\n      swap3\n      swap2\n      pop\n      pop\n      jump\t// out\n        /* \"#utility.yul\":26343:26614   */\n    tag_594:\n        /* \"#utility.yul\":26473:26476   */\n      0x00\n        /* \"#utility.yul\":26495:26588   */\n      tag_957\n        /* \"#utility.yul\":26584:26587   */\n      dup3\n        /* \"#utility.yul\":26575:26581   */\n      dup5\n        /* \"#utility.yul\":26495:26588   */\n      tag_680\n      jump\t// in\n    tag_957:\n        /* \"#utility.yul\":26488:26588   */\n      swap2\n      pop\n        /* \"#utility.yul\":26605:26608   */\n      dup2\n        /* \"#utility.yul\":26598:26608   */\n      swap1\n      pop\n        /* \"#utility.yul\":26343:26614   */\n      swap3\n      swap2\n      pop\n      pop\n      jump\t// out\n\n    auxdata: 0xa264697066735822122088f4ef489bb59fb4ede0d7629daaa8fd5462532724323f760c3c9ea574a18eb064736f6c634300081b0033\n}\n",
				"bytecode": {
					"linkReferences": {},
					"object": "60a06040523073ffffffffffffffffffffffffffffffffffffffff1660809073ffffffffffffffffffffffffffffffffffffffff16815250348015610042575f5ffd5b5061005161005660201b60201c565b6101b6565b5f61006561015460201b60201c565b9050805f0160089054906101000a900460ff16156100af576040517ff92ee8a900000000000000000000000000000000000000000000000000000000815260040160405180910390fd5b67ffffffffffffffff8016815f015f9054906101000a900467ffffffffffffffff1667ffffffffffffffff16146101515767ffffffffffffffff815f015f6101000a81548167ffffffffffffffff021916908367ffffffffffffffff1602179055507fc7f505b2f371ae2175ee4913f4499e1f2633a7b5936321eed1cdaeb6115181d267ffffffffffffffff604051610148919061019d565b60405180910390a15b50565b5f7ff0c57e16840df040f15088dc2f81fe391c3923bec73e23a9662efc9c229c6a00905090565b5f67ffffffffffffffff82169050919050565b6101978161017b565b82525050565b5f6020820190506101b05f83018461018e565b92915050565b60805161439a6101dc5f395f8181612ae501528181612b3a0152612cf4015261439a5ff3fe608060405260043610610266575f3560e01c80637f111e6011610143578063b9dac1eb116100b5578063d777cc6d11610079578063d777cc6d146108a2578063d9b998b4146108ca578063e9c68e2c146108f2578063ed06106714610908578063f2fde38b14610930578063ff3d65d91461095857610266565b8063b9dac1eb146107ab578063bccbc36c146107d3578063c0c53b8b14610814578063c7fd5bf01461083c578063ce356a241461087857610266565b8063947a36fb11610107578063947a36fb1461069f5780639c361e4e146106c9578063a4f67b8b146106f3578063ad3cb1cc1461072f578063ad8e5ec414610759578063b47ff9511461078157610266565b80637f111e60146105d55780637f70c5e7146105fd5780637ffe4d931461062557806385f452501461064d5780638da5cb5b1461067557610266565b80634f1ef286116101dc5780636626b26d116101a05780636626b26d146104f4578063679769741461050a5780636e04ff0d14610532578063715018a61461056f5780637547c7a31461058557806378fd078d146105ad57610266565b80634f1ef286146104325780635256dbbf1461044e57806352d1902d146104765780635462870d146104a0578063567e98f9146104ca57610266565b80633070fbf81161022e5780633070fbf81461033857806333244c2c146103625780633a71a9e41461038c5780633f3b3b27146103b657806344490ff4146103e05780634585e33b1461040a57610266565b806301934a831461026a57806311eac85514610294578063188e07b9146102be57806322a90082146102e85780632765df7a14610310575b5f5ffd5b348015610275575f5ffd5b5061027e610994565b60405161028b91906135e0565b60405180910390f35b34801561029f575f5ffd5b506102a861099a565b6040516102b59190613673565b60405180910390f35b3480156102c9575f5ffd5b506102d26109be565b6040516102df91906135e0565b60405180910390f35b3480156102f3575f5ffd5b5061030e600480360381019061030991906136c7565b6109c4565b005b34801561031b575f5ffd5b50610336600480360381019061033191906136c7565b610a60565b005b348015610343575f5ffd5b5061034c610b3b565b6040516103599190613712565b60405180910390f35b34801561036d575f5ffd5b50610376610b60565b60405161038391906135e0565b60405180910390f35b348015610397575f5ffd5b506103a0610b66565b6040516103ad91906135e0565b60405180910390f35b3480156103c1575f5ffd5b506103ca610b6c565b6040516103d791906135e0565b60405180910390f35b3480156103eb575f5ffd5b506103f4610b72565b60405161040191906135e0565b60405180910390f35b348015610415575f5ffd5b50610430600480360381019061042b919061378c565b610b78565b005b61044c60048036038101906104479190613939565b610c1a565b005b348015610459575f5ffd5b50610474600480360381019061046f91906136c7565b610c39565b005b348015610481575f5ffd5b5061048a610dbc565b60405161049791906139ab565b60405180910390f35b3480156104ab575f5ffd5b506104b4610ded565b6040516104c19190613712565b60405180910390f35b3480156104d5575f5ffd5b506104de610e12565b6040516104eb91906135e0565b60405180910390f35b3480156104ff575f5ffd5b50610508610e18565b005b348015610515575f5ffd5b50610530600480360381019061052b91906136c7565b610e64565b005b34801561053d575f5ffd5b506105586004803603810190610553919061378c565b6110f4565b604051610566929190613a3e565b60405180910390f35b34801561057a575f5ffd5b50610583611128565b005b348015610590575f5ffd5b506105ab60048036038101906105a691906136c7565b61113b565b005b3480156105b8575f5ffd5b506105d360048036038101906105ce91906136c7565b611535565b005b3480156105e0575f5ffd5b506105fb60048036038101906105f691906136c7565b6116b8565b005b348015610608575f5ffd5b50610623600480360381019061061e91906136c7565b611749565b005b348015610630575f5ffd5b5061064b600480360381019061064691906136c7565b6117da565b005b348015610658575f5ffd5b50610673600480360381019061066e9190613a6c565b611a94565b005b348015610680575f5ffd5b50610689611c5a565b6040516106969190613712565b60405180910390f35b3480156106aa575f5ffd5b506106b3611c8f565b6040516106c091906135e0565b60405180910390f35b3480156106d4575f5ffd5b506106dd611c95565b6040516106ea91906135e0565b60405180910390f35b3480156106fe575f5ffd5b50610719600480360381019061071491906136c7565b611c9b565b6040516107269190613712565b60405180910390f35b34801561073a575f5ffd5b50610743611ccb565b6040516107509190613afc565b60405180910390f35b348015610764575f5ffd5b5061077f600480360381019061077a91906136c7565b611d04565b005b34801561078c575f5ffd5b50610795611d95565b6040516107a291906135e0565b60405180910390f35b3480156107b6575f5ffd5b506107d160048036038101906107cc91906136c7565b611d9b565b005b3480156107de575f5ffd5b506107f960048036038101906107f49190613b1c565b611e2c565b60405161080b96959493929190613b47565b60405180910390f35b34801561081f575f5ffd5b5061083a60048036038101906108359190613ba6565b611e70565b005b348015610847575f5ffd5b50610862600480360381019061085d9190613b1c565b612109565b60405161086f9190613bf6565b60405180910390f35b348015610883575f5ffd5b5061088c612126565b60405161089991906135e0565b60405180910390f35b3480156108ad575f5ffd5b506108c860048036038101906108c39190613b1c565b61212c565b005b3480156108d5575f5ffd5b506108f060048036038101906108eb9190613c39565b612241565b005b3480156108fd575f5ffd5b5061090661245d565b005b348015610913575f5ffd5b5061092e60048036038101906109299190613a6c565b612913565b005b34801561093b575f5ffd5b5061095660048036038101906109519190613b1c565b6129c3565b005b348015610963575f5ffd5b5061097e600480360381019061097991906136c7565b612a47565b60405161098b91906135e0565b60405180910390f35b60085481565b5f5f9054906101000a900473ffffffffffffffffffffffffffffffffffffffff1681565b60015481565b6109cc612a5c565b5f8111610a1057806040517f71540007000000000000000000000000000000000000000000000000000000008152600401610a0791906135e0565b60405180910390fd5b80600a8190555042600b819055507f2b5090e035d3026f5448298c9adc68db8bbc1b26a8af5c81b2b2a9fc07ca4a0033600a54600b54604051610a5593929190613c77565b60405180910390a150565b610a68612a5c565b5f8111610aac57806040517fcdbc6335000000000000000000000000000000000000000000000000000000008152600401610aa391906135e0565b60405180910390fd5b8060105f600d5481526020019081526020015f2081905550600d5f815480929190610ad690613cd9565b91905055507fe1976e16ed8ce8e740235978fbe69b27d5eea683b2e017bb0bd2fabb33294b3f600d5f815480929190610b0e90613d20565b9190505582612710610b209190613d47565b83604051610b3093929190613d7a565b60405180910390a150565b600c5f9054906101000a900473ffffffffffffffffffffffffffffffffffffffff1681565b60045481565b60075481565b600b5481565b60055481565b600c5f9054906101000a900473ffffffffffffffffffffffffffffffffffffffff1673ffffffffffffffffffffffffffffffffffffffff163373ffffffffffffffffffffffffffffffffffffffff1614610c07576040517f08c379a0000000000000000000000000000000000000000000000000000000008152600401610bfe90613e1f565b60405180910390fd5b42600b81905550610c1661245d565b5050565b610c22612ae3565b610c2b82612bc9565b610c358282612bd4565b5050565b610c41612a5c565b5f8111610c8557806040517f2ff47830000000000000000000000000000000000000000000000000000000008152600401610c7c91906135e0565b60405180910390fd5b8060015f828254610c969190613e3d565b925050819055505f5f5f9054906101000a900473ffffffffffffffffffffffffffffffffffffffff1673ffffffffffffffffffffffffffffffffffffffff166323b872dd3330856040518463ffffffff1660e01b8152600401610cfb93929190613e70565b6020604051808303815f875af1158015610d17573d5f5f3e3d5ffd5b505050506040513d601f19601f82011682018060405250810190610d3b9190613eb9565b905080610d7f57806040517fd85d3cef000000000000000000000000000000000000000000000000000000008152600401610d769190613bf6565b60405180910390fd5b7fa9f166643ec132a11638e74e3c3a78d4ae278fcbf92998240e0e97676f54e404600154604051610db091906135e0565b60405180910390a15050565b5f610dc5612cf2565b7f360894a13ba1a3210667c828492db98dca3e2076cc3735a920a3ca505d382bbc5f1b905090565b60095f9054906101000a900473ffffffffffffffffffffffffffffffffffffffff1681565b60035481565b610e20612a5c565b5f600a819055507f3b68dc4e210c46d3622293f2b941cdfde795bb6e17286bb289ba05a6a3b5541f33600a54604051610e5a929190613ee4565b60405180910390a1565b5f8111610ea857806040517f2ff47830000000000000000000000000000000000000000000000000000000008152600401610e9f91906135e0565b60405180910390fd5b60115f3373ffffffffffffffffffffffffffffffffffffffff1673ffffffffffffffffffffffffffffffffffffffff1681526020019081526020015f2060010154811115610f2b576040517f08c379a0000000000000000000000000000000000000000000000000000000008152600401610f2290613f55565b60405180910390fd5b8060115f3373ffffffffffffffffffffffffffffffffffffffff1673ffffffffffffffffffffffffffffffffffffffff1681526020019081526020015f206001015f828254610f7a9190613d47565b925050819055508060115f3373ffffffffffffffffffffffffffffffffffffffff1673ffffffffffffffffffffffffffffffffffffffff1681526020019081526020015f206002015f828254610fd09190613e3d565b925050819055505f5f5f9054906101000a900473ffffffffffffffffffffffffffffffffffffffff1673ffffffffffffffffffffffffffffffffffffffff1663a9059cbb33846040518363ffffffff1660e01b8152600401611033929190613ee4565b6020604051808303815f875af115801561104f573d5f5f3e3d5ffd5b505050506040513d601f19601f820116820180604052508101906110739190613eb9565b9050806110b757806040517fd85d3cef0000000000000000000000000000000000000000000000000000000081526004016110ae9190613bf6565b60405180910390fd5b7f884edad9ce6fa2440d8a54cc123490eb96d2768479d49ff9c7366125a942436433836040516110e8929190613ee4565b60405180910390a15050565b5f60605f600a54600b54426111099190613d47565b1190508060405180602001604052805f81525092509250509250929050565b611130612a5c565b6111395f612d79565b565b5f811161117f57806040517f2ff4783000000000000000000000000000000000000000000000000000000000815260040161117691906135e0565b60405180910390fd5b60115f3373ffffffffffffffffffffffffffffffffffffffff1673ffffffffffffffffffffffffffffffffffffffff1681526020019081526020015f205f015f9054906101000a900460ff16156112585760115f3373ffffffffffffffffffffffffffffffffffffffff1673ffffffffffffffffffffffffffffffffffffffff1681526020019081526020015f205f015f9054906101000a900460ff166040517f6fa5c3c000000000000000000000000000000000000000000000000000000000815260040161124f9190613bf6565b60405180910390fd5b8060115f3373ffffffffffffffffffffffffffffffffffffffff1673ffffffffffffffffffffffffffffffffffffffff1681526020019081526020015f206005015f8282546112a79190613e3d565b92505081905550600e5f3373ffffffffffffffffffffffffffffffffffffffff1673ffffffffffffffffffffffffffffffffffffffff1681526020019081526020015f205f9054906101000a900460ff166113ba5733600f5f60085481526020019081526020015f205f6101000a81548173ffffffffffffffffffffffffffffffffffffffff021916908373ffffffffffffffffffffffffffffffffffffffff1602179055506001600e5f3373ffffffffffffffffffffffffffffffffffffffff1673ffffffffffffffffffffffffffffffffffffffff1681526020019081526020015f205f6101000a81548160ff02191690831515021790555060085f8154809291906113b490613cd9565b91905055505b8060035f8282546113cb9190613e3d565b925050819055505f5f5f9054906101000a900473ffffffffffffffffffffffffffffffffffffffff1673ffffffffffffffffffffffffffffffffffffffff166323b872dd3360095f9054906101000a900473ffffffffffffffffffffffffffffffffffffffff16856040518463ffffffff1660e01b815260040161145193929190613e70565b6020604051808303815f875af115801561146d573d5f5f3e3d5ffd5b505050506040513d601f19601f820116820180604052508101906114919190613eb9565b9050806114d557806040517fd85d3cef0000000000000000000000000000000000000000000000000000000081526004016114cc9190613bf6565b60405180910390fd5b7f14ee34c24635186d212f515353dadae9c226529edef2d1fcf5504cb33b5c25ab3360095f9054906101000a900473ffffffffffffffffffffffffffffffffffffffff168460405161152993929190613e70565b60405180910390a15050565b61153d612a5c565b5f811161158157806040517f2ff4783000000000000000000000000000000000000000000000000000000000815260040161157891906135e0565b60405180910390fd5b8060025f8282546115929190613e3d565b925050819055505f5f5f9054906101000a900473ffffffffffffffffffffffffffffffffffffffff1673ffffffffffffffffffffffffffffffffffffffff166323b872dd3330856040518463ffffffff1660e01b81526004016115f793929190613e70565b6020604051808303815f875af1158015611613573d5f5f3e3d5ffd5b505050506040513d601f19601f820116820180604052508101906116379190613eb9565b90508061167b57806040517fd85d3cef0000000000000000000000000000000000000000000000000000000081526004016116729190613bf6565b60405180910390fd5b7f73834e1d1ee73ba659470a3603b888903853d3a3c9fda34e71c093a0e35cab946002546040516116ac91906135e0565b60405180910390a15050565b6116c0612a5c565b5f811161170457806040517fcdbc63350000000000000000000000000000000000000000000000000000000081526004016116fb91906135e0565b60405180910390fd5b806007819055507fb5671393c7c6980552e50a31e778921eb17d764c2e98fbf4d44fff524712def93360075460405161173e929190613ee4565b60405180910390a150565b611751612a5c565b5f811161179557806040517fcdbc633500000000000000000000000000000000000000000000000000000000815260040161178c91906135e0565b60405180910390fd5b806004819055507fb5671393c7c6980552e50a31e778921eb17d764c2e98fbf4d44fff524712def9336004546040516117cf929190613ee4565b60405180910390a150565b5f811161181e57806040517f2ff4783000000000000000000000000000000000000000000000000000000000815260040161181591906135e0565b60405180910390fd5b60115f3373ffffffffffffffffffffffffffffffffffffffff1673ffffffffffffffffffffffffffffffffffffffff1681526020019081526020015f205f015f9054906101000a900460ff16156118f75760115f3373ffffffffffffffffffffffffffffffffffffffff1673ffffffffffffffffffffffffffffffffffffffff1681526020019081526020015f205f015f9054906101000a900460ff166040517f6fa5c3c00000000000000000000000000000000000000000000000000000000081526004016118ee9190613bf6565b60405180910390fd5b60115f3373ffffffffffffffffffffffffffffffffffffffff1673ffffffffffffffffffffffffffffffffffffffff1681526020019081526020015f206001015481111561197a576040517f08c379a000000000000000000000000000000000000000000000000000000000815260040161197190613f55565b60405180910390fd5b8060115f3373ffffffffffffffffffffffffffffffffffffffff1673ffffffffffffffffffffffffffffffffffffffff1681526020019081526020015f206001015f8282546119c99190613d47565b925050819055508060115f3373ffffffffffffffffffffffffffffffffffffffff1673ffffffffffffffffffffffffffffffffffffffff1681526020019081526020015f206005015f828254611a1f9190613e3d565b925050819055508060025f828254611a379190613e3d565b925050819055508060035f828254611a4f9190613e3d565b925050819055507f14ee34c24635186d212f515353dadae9c226529edef2d1fcf5504cb33b5c25ab333083604051611a8993929190613e70565b60405180910390a150565b5f8211611ad857816040517f2ff47830000000000000000000000000000000000000000000000000000000008152600401611acf91906135e0565b60405180910390fd5b600d54811115611b1f57806040517f222a50f3000000000000000000000000000000000000000000000000000000008152600401611b1691906135e0565b60405180910390fd5b611b3a8260105f8481526020019081526020015f2054612e4a565b5f5f5f9054906101000a900473ffffffffffffffffffffffffffffffffffffffff1673ffffffffffffffffffffffffffffffffffffffff166323b872dd3330866040518463ffffffff1660e01b8152600401611b9893929190613e70565b6020604051808303815f875af1158015611bb4573d5f5f3e3d5ffd5b505050506040513d601f19601f82011682018060405250810190611bd89190613eb9565b905080611c1c57806040517fd85d3cef000000000000000000000000000000000000000000000000000000008152600401611c139190613bf6565b60405180910390fd5b7fa89b69c5958ec1ccf0df0de746a8708f5b6a6b429430129f16f46f44b319c9008383604051611c4d929190613f73565b60405180910390a1505050565b5f5f611c64612eac565b9050805f015f9054906101000a900473ffffffffffffffffffffffffffffffffffffffff1691505090565b600a5481565b600d5481565b600f602052805f5260405f205f915054906101000a900473ffffffffffffffffffffffffffffffffffffffff1681565b6040518060400160405280600581526020017f352e302e3000000000000000000000000000000000000000000000000000000081525081565b611d0c612a5c565b5f8111611d5057806040517fcdbc6335000000000000000000000000000000000000000000000000000000008152600401611d4791906135e0565b60405180910390fd5b806006819055507fb5671393c7c6980552e50a31e778921eb17d764c2e98fbf4d44fff524712def933600654604051611d8a929190613ee4565b60405180910390a150565b60025481565b611da3612a5c565b5f8111611de757806040517fcdbc6335000000000000000000000000000000000000000000000000000000008152600401611dde91906135e0565b60405180910390fd5b806005819055507fb5671393c7c6980552e50a31e778921eb17d764c2e98fbf4d44fff524712def933600554604051611e21929190613ee4565b60405180910390a150565b6011602052805f5260405f205f91509050805f015f9054906101000a900460ff16908060010154908060020154908060030154908060040154908060050154905086565b5f611e79612ed3565b90505f815f0160089054906101000a900460ff161590505f825f015f9054906101000a900467ffffffffffffffff1690505f5f8267ffffffffffffffff16148015611ec15750825b90505f60018367ffffffffffffffff16148015611ef457505f3073ffffffffffffffffffffffffffffffffffffffff163b145b905081158015611f02575080155b15611f39576040517ff92ee8a900000000000000000000000000000000000000000000000000000000815260040160405180910390fd5b6001855f015f6101000a81548167ffffffffffffffff021916908367ffffffffffffffff1602179055508315611f86576001855f0160086101000a81548160ff0219169083151502179055505b611f8f88612efa565b611f97612f0e565b865f5f6101000a81548173ffffffffffffffffffffffffffffffffffffffff021916908373ffffffffffffffffffffffffffffffffffffffff1602179055506113ec60105f5f81526020019081526020015f2081905550611d4c60105f600181526020019081526020015f2081905550610dac60105f600281526020019081526020015f2081905550611e1460105f600381526020019081526020015f2081905550611388600481905550611d4c6005819055506105dc6006819055506103e86007819055506004600d819055508560095f6101000a81548173ffffffffffffffffffffffffffffffffffffffff021916908373ffffffffffffffffffffffffffffffffffffffff16021790555083156120ff575f855f0160086101000a81548160ff0219169083151502179055507fc7f505b2f371ae2175ee4913f4499e1f2633a7b5936321eed1cdaeb6115181d260016040516120f69190613fe6565b60405180910390a15b5050505050505050565b600e602052805f5260405f205f915054906101000a900460ff1681565b60065481565b612134612a5c565b5f73ffffffffffffffffffffffffffffffffffffffff168173ffffffffffffffffffffffffffffffffffffffff16036121a457806040517fe4cfa94d00000000000000000000000000000000000000000000000000000000815260040161219b9190613712565b60405180910390fd5b80600c5f6101000a81548173ffffffffffffffffffffffffffffffffffffffff021916908373ffffffffffffffffffffffffffffffffffffffff1602179055507f75f91f3cecb8c46f20150f60f77a6e1f0de00776627692db82ef1960af84c33a33600c5f9054906101000a900473ffffffffffffffffffffffffffffffffffffffff16604051612236929190613fff565b60405180910390a150565b612249612a5c565b5f73ffffffffffffffffffffffffffffffffffffffff168273ffffffffffffffffffffffffffffffffffffffff16036122b957816040517fe4cfa94d0000000000000000000000000000000000000000000000000000000081526004016122b09190613712565b60405180910390fd5b60011515811515141580156122d257505f151581151514155b1561231457806040517f81ed1ae300000000000000000000000000000000000000000000000000000000815260040161230b9190613bf6565b60405180910390fd5b600115158115150361237c57600160115f8473ffffffffffffffffffffffffffffffffffffffff1673ffffffffffffffffffffffffffffffffffffffff1681526020019081526020015f205f015f6101000a81548160ff0219169083151502179055506123d3565b5f60115f8473ffffffffffffffffffffffffffffffffffffffff1673ffffffffffffffffffffffffffffffffffffffff1681526020019081526020015f205f015f6101000a81548160ff0219169083151502179055505b7f7a1655bc3160d3413bf1d5235e55be12e01b7e8bc2436a9bff09c3b4fa2421f1338360115f8673ffffffffffffffffffffffffffffffffffffffff1673ffffffffffffffffffffffffffffffffffffffff1681526020019081526020015f205f015f9054906101000a900460ff1660405161245193929190614026565b60405180910390a15050565b612465611c5a565b73ffffffffffffffffffffffffffffffffffffffff163373ffffffffffffffffffffffffffffffffffffffff16141580156124ed5750600c5f9054906101000a900473ffffffffffffffffffffffffffffffffffffffff1673ffffffffffffffffffffffffffffffffffffffff163373ffffffffffffffffffffffffffffffffffffffff1614155b1561252f57336040517ff6b79c580000000000000000000000000000000000000000000000000000000081526004016125269190613712565b60405180910390fd5b5f5f5f61253a612f18565b9250925092505f60025411801561255257505f600154115b612591576040517f08c379a0000000000000000000000000000000000000000000000000000000008152600401612588906140a5565b60405180910390fd5b5f5f5f90505b6008548110156128cd5760115f600f5f8481526020019081526020015f205f9054906101000a900473ffffffffffffffffffffffffffffffffffffffff1673ffffffffffffffffffffffffffffffffffffffff1673ffffffffffffffffffffffffffffffffffffffff1681526020019081526020015f205f015f9054906101000a900460ff166128c0575f60035461271060115f600f5f8781526020019081526020015f205f9054906101000a900473ffffffffffffffffffffffffffffffffffffffff1673ffffffffffffffffffffffffffffffffffffffff1673ffffffffffffffffffffffffffffffffffffffff1681526020019081526020015f20600501546126a391906140c3565b6126ad9190614131565b90505f6126ba8683613110565b90508060025f8282546126cd9190613d47565b9250508190555080846126e09190613e3d565b93508460015f8282546126f39190613d47565b925050819055508460115f600f5f8781526020019081526020015f205f9054906101000a900473ffffffffffffffffffffffffffffffffffffffff1673ffffffffffffffffffffffffffffffffffffffff1673ffffffffffffffffffffffffffffffffffffffff1681526020019081526020015f20600301819055508060115f600f5f8781526020019081526020015f205f9054906101000a900473ffffffffffffffffffffffffffffffffffffffff1673ffffffffffffffffffffffffffffffffffffffff1673ffffffffffffffffffffffffffffffffffffffff1681526020019081526020015f20600401819055505f85826127f19190613e3d565b90508060115f600f5f8881526020019081526020015f205f9054906101000a900473ffffffffffffffffffffffffffffffffffffffff1673ffffffffffffffffffffffffffffffffffffffff1673ffffffffffffffffffffffffffffffffffffffff1681526020019081526020015f206001015f8282546128729190613e3d565b92505081905550878511156128bc576040517f08c379a00000000000000000000000000000000000000000000000000000000081526004016128b3906141ab565b60405180910390fd5b5050505b8080600101915050612597565b507fee826440768329b0c72f81331212ee31fcdac1ea79a248d24821e40c34e580203360025460015460405161290593929190613c77565b60405180910390a150505050565b61291b612a5c565b5f811161295f57806040517fcdbc633500000000000000000000000000000000000000000000000000000000815260040161295691906135e0565b60405180910390fd5b8060105f8481526020019081526020015f20819055507fb5671393c7c6980552e50a31e778921eb17d764c2e98fbf4d44fff524712def93360105f8581526020019081526020015f20546040516129b7929190613ee4565b60405180910390a15050565b6129cb612a5c565b5f73ffffffffffffffffffffffffffffffffffffffff168173ffffffffffffffffffffffffffffffffffffffff1603612a3b575f6040517f1e4fbdf7000000000000000000000000000000000000000000000000000000008152600401612a329190613712565b60405180910390fd5b612a4481612d79565b50565b6010602052805f5260405f205f915090505481565b612a646131bb565b73ffffffffffffffffffffffffffffffffffffffff16612a82611c5a565b73ffffffffffffffffffffffffffffffffffffffff1614612ae157612aa56131bb565b6040517f118cdaa7000000000000000000000000000000000000000000000000000000008152600401612ad89190613712565b60405180910390fd5b565b7f000000000000000000000000000000000000000000000000000000000000000073ffffffffffffffffffffffffffffffffffffffff163073ffffffffffffffffffffffffffffffffffffffff161480612b9057507f000000000000000000000000000000000000000000000000000000000000000073ffffffffffffffffffffffffffffffffffffffff16612b776131c2565b73ffffffffffffffffffffffffffffffffffffffff1614155b15612bc7576040517fe07c8dba00000000000000000000000000000000000000000000000000000000815260040160405180910390fd5b565b612bd1612a5c565b50565b8173ffffffffffffffffffffffffffffffffffffffff166352d1902d6040518163ffffffff1660e01b8152600401602060405180830381865afa925050508015612c3c57506040513d601f19601f82011682018060405250810190612c3991906141f3565b60015b612c7d57816040517f4c9c8ce3000000000000000000000000000000000000000000000000000000008152600401612c749190613712565b60405180910390fd5b7f360894a13ba1a3210667c828492db98dca3e2076cc3735a920a3ca505d382bbc5f1b8114612ce357806040517faa1d49a4000000000000000000000000000000000000000000000000000000008152600401612cda91906139ab565b60405180910390fd5b612ced8383613215565b505050565b7f000000000000000000000000000000000000000000000000000000000000000073ffffffffffffffffffffffffffffffffffffffff163073ffffffffffffffffffffffffffffffffffffffff1614612d77576040517fe07c8dba00000000000000000000000000000000000000000000000000000000815260040160405180910390fd5b565b5f612d82612eac565b90505f815f015f9054906101000a900473ffffffffffffffffffffffffffffffffffffffff16905082825f015f6101000a81548173ffffffffffffffffffffffffffffffffffffffff021916908373ffffffffffffffffffffffffffffffffffffffff1602179055508273ffffffffffffffffffffffffffffffffffffffff168173ffffffffffffffffffffffffffffffffffffffff167f8be0079c531659141344cd1fd0a4f28419497f9722a3daafe3b4186f6b6457e060405160405180910390a3505050565b5f81612710612e599190613d47565b90505f612e668483613110565b90505f612e738585613110565b90508160025f828254612e869190613e3d565b925050819055508060015f828254612e9e9190613e3d565b925050819055505050505050565b5f7f9016d09d72d40fdae2fd8ceac6b6234c7706214fd39c1cd1e609a0528c199300905090565b5f7ff0c57e16840df040f15088dc2f81fe391c3923bec73e23a9662efc9c229c6a00905090565b612f02613287565b612f0b816132c7565b50565b612f16613287565b565b5f5f5f5f612f2a600254611388613110565b90505f612f3982600554613110565b90505f612f4883600654613110565b90505f612f5784600754613110565b90505f612f68600154600454613110565b90505f60085411612fae576040517f08c379a0000000000000000000000000000000000000000000000000000000008152600401612fa590614268565b60405180910390fd5b5f60085482612fbd9190614131565b90508284612fcb9190613e3d565b60025f828254612fdb9190613d47565b925050819055508360015f828254612ff39190613e3d565b925050819055505f5f5f9054906101000a900473ffffffffffffffffffffffffffffffffffffffff1673ffffffffffffffffffffffffffffffffffffffff1663a9059cbb60095f9054906101000a900473ffffffffffffffffffffffffffffffffffffffff16866040518363ffffffff1660e01b8152600401613077929190613ee4565b6020604051808303815f875af1158015613093573d5f5f3e3d5ffd5b505050506040513d601f19601f820116820180604052508101906130b79190613eb9565b9050806130fb57806040517fd85d3cef0000000000000000000000000000000000000000000000000000000081526004016130f29190613bf6565b60405180910390fd5b86868399509950995050505050505050909192565b5f5f8303613153576040517f08c379a000000000000000000000000000000000000000000000000000000000815260040161314a906142f6565b60405180910390fd5b5f8203613195576040517f08c379a000000000000000000000000000000000000000000000000000000000815260040161318c906142f6565b60405180910390fd5b5f61271083856131a591906140c3565b6131af9190614131565b90508091505092915050565b5f33905090565b5f6131ee7f360894a13ba1a3210667c828492db98dca3e2076cc3735a920a3ca505d382bbc5f1b61334b565b5f015f9054906101000a900473ffffffffffffffffffffffffffffffffffffffff16905090565b61321e82613354565b8173ffffffffffffffffffffffffffffffffffffffff167fbc7cd75a20ee27fd9adebab32041f755214dbc6bffa90cc0225b39da2e5c2d3b60405160405180910390a25f8151111561327a57613274828261341d565b50613283565b61328261349d565b5b5050565b61328f6134d9565b6132c5576040517fd7e6bcf800000000000000000000000000000000000000000000000000000000815260040160405180910390fd5b565b6132cf613287565b5f73ffffffffffffffffffffffffffffffffffffffff168173ffffffffffffffffffffffffffffffffffffffff160361333f575f6040517f1e4fbdf70000000000000000000000000000000000000000000000000000000081526004016133369190613712565b60405180910390fd5b61334881612d79565b50565b5f819050919050565b5f8173ffffffffffffffffffffffffffffffffffffffff163b036133af57806040517f4c9c8ce30000000000000000000000000000000000000000000000000000000081526004016133a69190613712565b60405180910390fd5b806133db7f360894a13ba1a3210667c828492db98dca3e2076cc3735a920a3ca505d382bbc5f1b61334b565b5f015f6101000a81548173ffffffffffffffffffffffffffffffffffffffff021916908373ffffffffffffffffffffffffffffffffffffffff16021790555050565b60605f5f8473ffffffffffffffffffffffffffffffffffffffff1684604051613446919061434e565b5f60405180830381855af49150503d805f811461347e576040519150601f19603f3d011682016040523d82523d5f602084013e613483565b606091505b50915091506134938583836134f7565b9250505092915050565b5f3411156134d7576040517fb398979f00000000000000000000000000000000000000000000000000000000815260040160405180910390fd5b565b5f6134e2612ed3565b5f0160089054906101000a900460ff16905090565b60608261350c5761350782613584565b61357c565b5f825114801561353257505f8473ffffffffffffffffffffffffffffffffffffffff163b145b1561357457836040517f9996b31500000000000000000000000000000000000000000000000000000000815260040161356b9190613712565b60405180910390fd5b81905061357d565b5b9392505050565b5f815111156135965780518082602001fd5b6040517f1425ea4200000000000000000000000000000000000000000000000000000000815260040160405180910390fd5b5f819050919050565b6135da816135c8565b82525050565b5f6020820190506135f35f8301846135d1565b92915050565b5f73ffffffffffffffffffffffffffffffffffffffff82169050919050565b5f819050919050565b5f61363b613636613631846135f9565b613618565b6135f9565b9050919050565b5f61364c82613621565b9050919050565b5f61365d82613642565b9050919050565b61366d81613653565b82525050565b5f6020820190506136865f830184613664565b92915050565b5f604051905090565b5f5ffd5b5f5ffd5b6136a6816135c8565b81146136b0575f5ffd5b50565b5f813590506136c18161369d565b92915050565b5f602082840312156136dc576136db613695565b5b5f6136e9848285016136b3565b91505092915050565b5f6136fc826135f9565b9050919050565b61370c816136f2565b82525050565b5f6020820190506137255f830184613703565b92915050565b5f5ffd5b5f5ffd5b5f5ffd5b5f5f83601f84011261374c5761374b61372b565b5b8235905067ffffffffffffffff8111156137695761376861372f565b5b60208301915083600182028301111561378557613784613733565b5b9250929050565b5f5f602083850312156137a2576137a1613695565b5b5f83013567ffffffffffffffff8111156137bf576137be613699565b5b6137cb85828601613737565b92509250509250929050565b6137e0816136f2565b81146137ea575f5ffd5b50565b5f813590506137fb816137d7565b92915050565b5f5ffd5b5f601f19601f8301169050919050565b7f4e487b71000000000000000000000000000000000000000000000000000000005f52604160045260245ffd5b61384b82613805565b810181811067ffffffffffffffff8211171561386a57613869613815565b5b80604052505050565b5f61387c61368c565b90506138888282613842565b919050565b5f67ffffffffffffffff8211156138a7576138a6613815565b5b6138b082613805565b9050602081019050919050565b828183375f83830152505050565b5f6138dd6138d88461388d565b613873565b9050828152602081018484840111156138f9576138f8613801565b5b6139048482856138bd565b509392505050565b5f82601f8301126139205761391f61372b565b5b81356139308482602086016138cb565b91505092915050565b5f5f6040838503121561394f5761394e613695565b5b5f61395c858286016137ed565b925050602083013567ffffffffffffffff81111561397d5761397c613699565b5b6139898582860161390c565b9150509250929050565b5f819050919050565b6139a581613993565b82525050565b5f6020820190506139be5f83018461399c565b92915050565b5f8115159050919050565b6139d8816139c4565b82525050565b5f81519050919050565b5f82825260208201905092915050565b8281835e5f83830152505050565b5f613a10826139de565b613a1a81856139e8565b9350613a2a8185602086016139f8565b613a3381613805565b840191505092915050565b5f604082019050613a515f8301856139cf565b8181036020830152613a638184613a06565b90509392505050565b5f5f60408385031215613a8257613a81613695565b5b5f613a8f858286016136b3565b9250506020613aa0858286016136b3565b9150509250929050565b5f81519050919050565b5f82825260208201905092915050565b5f613ace82613aaa565b613ad88185613ab4565b9350613ae88185602086016139f8565b613af181613805565b840191505092915050565b5f6020820190508181035f830152613b148184613ac4565b905092915050565b5f60208284031215613b3157613b30613695565b5b5f613b3e848285016137ed565b91505092915050565b5f60c082019050613b5a5f8301896139cf565b613b6760208301886135d1565b613b7460408301876135d1565b613b8160608301866135d1565b613b8e60808301856135d1565b613b9b60a08301846135d1565b979650505050505050565b5f5f5f60608486031215613bbd57613bbc613695565b5b5f613bca868287016137ed565b9350506020613bdb868287016137ed565b9250506040613bec868287016137ed565b9150509250925092565b5f602082019050613c095f8301846139cf565b92915050565b613c18816139c4565b8114613c22575f5ffd5b50565b5f81359050613c3381613c0f565b92915050565b5f5f60408385031215613c4f57613c4e613695565b5b5f613c5c858286016137ed565b9250506020613c6d85828601613c25565b9150509250929050565b5f606082019050613c8a5f830186613703565b613c9760208301856135d1565b613ca460408301846135d1565b949350505050565b7f4e487b71000000000000000000000000000000000000000000000000000000005f52601160045260245ffd5b5f613ce3826135c8565b91507fffffffffffffffffffffffffffffffffffffffffffffffffffffffffffffffff8203613d1557613d14613cac565b5b600182019050919050565b5f613d2a826135c8565b91505f8203613d3c57613d3b613cac565b5b600182039050919050565b5f613d51826135c8565b9150613d5c836135c8565b9250828203905081811115613d7457613d73613cac565b5b92915050565b5f606082019050613d8d5f8301866135d1565b613d9a60208301856135d1565b613da760408301846135d1565b949350505050565b7f54686973206164647265737320646f6573206e6f742068617665207065726d695f8201527f7373696f6e20746f2063616c6c20706572666f726d55706b6565700000000000602082015250565b5f613e09603b83613ab4565b9150613e1482613daf565b604082019050919050565b5f6020820190508181035f830152613e3681613dfd565b9050919050565b5f613e47826135c8565b9150613e52836135c8565b9250828201905080821115613e6a57613e69613cac565b5b92915050565b5f606082019050613e835f830186613703565b613e906020830185613703565b613e9d60408301846135d1565b949350505050565b5f81519050613eb381613c0f565b92915050565b5f60208284031215613ece57613ecd613695565b5b5f613edb84828501613ea5565b91505092915050565b5f604082019050613ef75f830185613703565b613f0460208301846135d1565b9392505050565b7f696e76616c6964205f616d6f756e7421000000000000000000000000000000005f82015250565b5f613f3f601083613ab4565b9150613f4a82613f0b565b602082019050919050565b5f6020820190508181035f830152613f6c81613f33565b9050919050565b5f604082019050613f865f8301856135d1565b613f9360208301846135d1565b9392505050565b5f819050919050565b5f67ffffffffffffffff82169050919050565b5f613fd0613fcb613fc684613f9a565b613618565b613fa3565b9050919050565b613fe081613fb6565b82525050565b5f602082019050613ff95f830184613fd7565b92915050565b5f6040820190506140125f830185613703565b61401f6020830184613703565b9392505050565b5f6060820190506140395f830186613703565b6140466020830185613703565b61405360408301846139cf565b949350505050565b7f6e6f7420656e6f75676820616d6f756e740000000000000000000000000000005f82015250565b5f61408f601183613ab4565b915061409a8261405b565b602082019050919050565b5f6020820190508181035f8301526140bc81614083565b9050919050565b5f6140cd826135c8565b91506140d8836135c8565b92508282026140e6816135c8565b915082820484148315176140fd576140fc613cac565b5b5092915050565b7f4e487b71000000000000000000000000000000000000000000000000000000005f52601260045260245ffd5b5f61413b826135c8565b9150614146836135c8565b92508261415657614155614104565b5b828204905092915050565b7f416d6f756e742069732067726561746572207468656e203530250000000000005f82015250565b5f614195601a83613ab4565b91506141a082614161565b602082019050919050565b5f6020820190508181035f8301526141c281614189565b9050919050565b6141d281613993565b81146141dc575f5ffd5b50565b5f815190506141ed816141c9565b92915050565b5f6020828403121561420857614207613695565b5b5f614215848285016141df565b91505092915050565b7f6e6f2075736572732100000000000000000000000000000000000000000000005f82015250565b5f614252600983613ab4565b915061425d8261421e565b602082019050919050565b5f6020820190508181035f83015261427f81614246565b9050919050565b7f5f746f74616c5374616b65416d6f756e742063616e206e6f74206265207a65725f8201527f6f00000000000000000000000000000000000000000000000000000000000000602082015250565b5f6142e0602183613ab4565b91506142eb82614286565b604082019050919050565b5f6020820190508181035f83015261430d816142d4565b9050919050565b5f81905092915050565b5f614328826139de565b6143328185614314565b93506143428185602086016139f8565b80840191505092915050565b5f614359828461431e565b91508190509291505056fea264697066735822122088f4ef489bb59fb4ede0d7629daaa8fd5462532724323f760c3c9ea574a18eb064736f6c634300081b0033",
					"opcodes": "PUSH1 0xA0 PUSH1 0x40 MSTORE ADDRESS PUSH20 0xFFFFFFFFFFFFFFFFFFFFFFFFFFFFFFFFFFFFFFFF AND PUSH1 0x80 SWAP1 PUSH20 0xFFFFFFFFFFFFFFFFFFFFFFFFFFFFFFFFFFFFFFFF AND DUP2 MSTORE POP CALLVALUE DUP1 ISZERO PUSH2 0x42 JUMPI PUSH0 PUSH0 REVERT JUMPDEST POP PUSH2 0x51 PUSH2 0x56 PUSH1 0x20 SHL PUSH1 0x20 SHR JUMP JUMPDEST PUSH2 0x1B6 JUMP JUMPDEST PUSH0 PUSH2 0x65 PUSH2 0x154 PUSH1 0x20 SHL PUSH1 0x20 SHR JUMP JUMPDEST SWAP1 POP DUP1 PUSH0 ADD PUSH1 0x8 SWAP1 SLOAD SWAP1 PUSH2 0x100 EXP SWAP1 DIV PUSH1 0xFF AND ISZERO PUSH2 0xAF JUMPI PUSH1 0x40 MLOAD PUSH32 0xF92EE8A900000000000000000000000000000000000000000000000000000000 DUP2 MSTORE PUSH1 0x4 ADD PUSH1 0x40 MLOAD DUP1 SWAP2 SUB SWAP1 REVERT JUMPDEST PUSH8 0xFFFFFFFFFFFFFFFF DUP1 AND DUP2 PUSH0 ADD PUSH0 SWAP1 SLOAD SWAP1 PUSH2 0x100 EXP SWAP1 DIV PUSH8 0xFFFFFFFFFFFFFFFF AND PUSH8 0xFFFFFFFFFFFFFFFF AND EQ PUSH2 0x151 JUMPI PUSH8 0xFFFFFFFFFFFFFFFF DUP2 PUSH0 ADD PUSH0 PUSH2 0x100 EXP DUP2 SLOAD DUP2 PUSH8 0xFFFFFFFFFFFFFFFF MUL NOT AND SWAP1 DUP4 PUSH8 0xFFFFFFFFFFFFFFFF AND MUL OR SWAP1 SSTORE POP PUSH32 0xC7F505B2F371AE2175EE4913F4499E1F2633A7B5936321EED1CDAEB6115181D2 PUSH8 0xFFFFFFFFFFFFFFFF PUSH1 0x40 MLOAD PUSH2 0x148 SWAP2 SWAP1 PUSH2 0x19D JUMP JUMPDEST PUSH1 0x40 MLOAD DUP1 SWAP2 SUB SWAP1 LOG1 JUMPDEST POP JUMP JUMPDEST PUSH0 PUSH32 0xF0C57E16840DF040F15088DC2F81FE391C3923BEC73E23A9662EFC9C229C6A00 SWAP1 POP SWAP1 JUMP JUMPDEST PUSH0 PUSH8 0xFFFFFFFFFFFFFFFF DUP3 AND SWAP1 POP SWAP2 SWAP1 POP JUMP JUMPDEST PUSH2 0x197 DUP2 PUSH2 0x17B JUMP JUMPDEST DUP3 MSTORE POP POP JUMP JUMPDEST PUSH0 PUSH1 0x20 DUP3 ADD SWAP1 POP PUSH2 0x1B0 PUSH0 DUP4 ADD DUP5 PUSH2 0x18E JUMP JUMPDEST SWAP3 SWAP2 POP POP JUMP JUMPDEST PUSH1 0x80 MLOAD PUSH2 0x439A PUSH2 0x1DC PUSH0 CODECOPY PUSH0 DUP2 DUP2 PUSH2 0x2AE5 ADD MSTORE DUP2 DUP2 PUSH2 0x2B3A ADD MSTORE PUSH2 0x2CF4 ADD MSTORE PUSH2 0x439A PUSH0 RETURN INVALID PUSH1 0x80 PUSH1 0x40 MSTORE PUSH1 0x4 CALLDATASIZE LT PUSH2 0x266 JUMPI PUSH0 CALLDATALOAD PUSH1 0xE0 SHR DUP1 PUSH4 0x7F111E60 GT PUSH2 0x143 JUMPI DUP1 PUSH4 0xB9DAC1EB GT PUSH2 0xB5 JUMPI DUP1 PUSH4 0xD777CC6D GT PUSH2 0x79 JUMPI DUP1 PUSH4 0xD777CC6D EQ PUSH2 0x8A2 JUMPI DUP1 PUSH4 0xD9B998B4 EQ PUSH2 0x8CA JUMPI DUP1 PUSH4 0xE9C68E2C EQ PUSH2 0x8F2 JUMPI DUP1 PUSH4 0xED061067 EQ PUSH2 0x908 JUMPI DUP1 PUSH4 0xF2FDE38B EQ PUSH2 0x930 JUMPI DUP1 PUSH4 0xFF3D65D9 EQ PUSH2 0x958 JUMPI PUSH2 0x266 JUMP JUMPDEST DUP1 PUSH4 0xB9DAC1EB EQ PUSH2 0x7AB JUMPI DUP1 PUSH4 0xBCCBC36C EQ PUSH2 0x7D3 JUMPI DUP1 PUSH4 0xC0C53B8B EQ PUSH2 0x814 JUMPI DUP1 PUSH4 0xC7FD5BF0 EQ PUSH2 0x83C JUMPI DUP1 PUSH4 0xCE356A24 EQ PUSH2 0x878 JUMPI PUSH2 0x266 JUMP JUMPDEST DUP1 PUSH4 0x947A36FB GT PUSH2 0x107 JUMPI DUP1 PUSH4 0x947A36FB EQ PUSH2 0x69F JUMPI DUP1 PUSH4 0x9C361E4E EQ PUSH2 0x6C9 JUMPI DUP1 PUSH4 0xA4F67B8B EQ PUSH2 0x6F3 JUMPI DUP1 PUSH4 0xAD3CB1CC EQ PUSH2 0x72F JUMPI DUP1 PUSH4 0xAD8E5EC4 EQ PUSH2 0x759 JUMPI DUP1 PUSH4 0xB47FF951 EQ PUSH2 0x781 JUMPI PUSH2 0x266 JUMP JUMPDEST DUP1 PUSH4 0x7F111E60 EQ PUSH2 0x5D5 JUMPI DUP1 PUSH4 0x7F70C5E7 EQ PUSH2 0x5FD JUMPI DUP1 PUSH4 0x7FFE4D93 EQ PUSH2 0x625 JUMPI DUP1 PUSH4 0x85F45250 EQ PUSH2 0x64D JUMPI DUP1 PUSH4 0x8DA5CB5B EQ PUSH2 0x675 JUMPI PUSH2 0x266 JUMP JUMPDEST DUP1 PUSH4 0x4F1EF286 GT PUSH2 0x1DC JUMPI DUP1 PUSH4 0x6626B26D GT PUSH2 0x1A0 JUMPI DUP1 PUSH4 0x6626B26D EQ PUSH2 0x4F4 JUMPI DUP1 PUSH4 0x67976974 EQ PUSH2 0x50A JUMPI DUP1 PUSH4 0x6E04FF0D EQ PUSH2 0x532 JUMPI DUP1 PUSH4 0x715018A6 EQ PUSH2 0x56F JUMPI DUP1 PUSH4 0x7547C7A3 EQ PUSH2 0x585 JUMPI DUP1 PUSH4 0x78FD078D EQ PUSH2 0x5AD JUMPI PUSH2 0x266 JUMP JUMPDEST DUP1 PUSH4 0x4F1EF286 EQ PUSH2 0x432 JUMPI DUP1 PUSH4 0x5256DBBF EQ PUSH2 0x44E JUMPI DUP1 PUSH4 0x52D1902D EQ PUSH2 0x476 JUMPI DUP1 PUSH4 0x5462870D EQ PUSH2 0x4A0 JUMPI DUP1 PUSH4 0x567E98F9 EQ PUSH2 0x4CA JUMPI PUSH2 0x266 JUMP JUMPDEST DUP1 PUSH4 0x3070FBF8 GT PUSH2 0x22E JUMPI DUP1 PUSH4 0x3070FBF8 EQ PUSH2 0x338 JUMPI DUP1 PUSH4 0x33244C2C EQ PUSH2 0x362 JUMPI DUP1 PUSH4 0x3A71A9E4 EQ PUSH2 0x38C JUMPI DUP1 PUSH4 0x3F3B3B27 EQ PUSH2 0x3B6 JUMPI DUP1 PUSH4 0x44490FF4 EQ PUSH2 0x3E0 JUMPI DUP1 PUSH4 0x4585E33B EQ PUSH2 0x40A JUMPI PUSH2 0x266 JUMP JUMPDEST DUP1 PUSH4 0x1934A83 EQ PUSH2 0x26A JUMPI DUP1 PUSH4 0x11EAC855 EQ PUSH2 0x294 JUMPI DUP1 PUSH4 0x188E07B9 EQ PUSH2 0x2BE JUMPI DUP1 PUSH4 0x22A90082 EQ PUSH2 0x2E8 JUMPI DUP1 PUSH4 0x2765DF7A EQ PUSH2 0x310 JUMPI JUMPDEST PUSH0 PUSH0 REVERT JUMPDEST CALLVALUE DUP1 ISZERO PUSH2 0x275 JUMPI PUSH0 PUSH0 REVERT JUMPDEST POP PUSH2 0x27E PUSH2 0x994 JUMP JUMPDEST PUSH1 0x40 MLOAD PUSH2 0x28B SWAP2 SWAP1 PUSH2 0x35E0 JUMP JUMPDEST PUSH1 0x40 MLOAD DUP1 SWAP2 SUB SWAP1 RETURN JUMPDEST CALLVALUE DUP1 ISZERO PUSH2 0x29F JUMPI PUSH0 PUSH0 REVERT JUMPDEST POP PUSH2 0x2A8 PUSH2 0x99A JUMP JUMPDEST PUSH1 0x40 MLOAD PUSH2 0x2B5 SWAP2 SWAP1 PUSH2 0x3673 JUMP JUMPDEST PUSH1 0x40 MLOAD DUP1 SWAP2 SUB SWAP1 RETURN JUMPDEST CALLVALUE DUP1 ISZERO PUSH2 0x2C9 JUMPI PUSH0 PUSH0 REVERT JUMPDEST POP PUSH2 0x2D2 PUSH2 0x9BE JUMP JUMPDEST PUSH1 0x40 MLOAD PUSH2 0x2DF SWAP2 SWAP1 PUSH2 0x35E0 JUMP JUMPDEST PUSH1 0x40 MLOAD DUP1 SWAP2 SUB SWAP1 RETURN JUMPDEST CALLVALUE DUP1 ISZERO PUSH2 0x2F3 JUMPI PUSH0 PUSH0 REVERT JUMPDEST POP PUSH2 0x30E PUSH1 0x4 DUP1 CALLDATASIZE SUB DUP2 ADD SWAP1 PUSH2 0x309 SWAP2 SWAP1 PUSH2 0x36C7 JUMP JUMPDEST PUSH2 0x9C4 JUMP JUMPDEST STOP JUMPDEST CALLVALUE DUP1 ISZERO PUSH2 0x31B JUMPI PUSH0 PUSH0 REVERT JUMPDEST POP PUSH2 0x336 PUSH1 0x4 DUP1 CALLDATASIZE SUB DUP2 ADD SWAP1 PUSH2 0x331 SWAP2 SWAP1 PUSH2 0x36C7 JUMP JUMPDEST PUSH2 0xA60 JUMP JUMPDEST STOP JUMPDEST CALLVALUE DUP1 ISZERO PUSH2 0x343 JUMPI PUSH0 PUSH0 REVERT JUMPDEST POP PUSH2 0x34C PUSH2 0xB3B JUMP JUMPDEST PUSH1 0x40 MLOAD PUSH2 0x359 SWAP2 SWAP1 PUSH2 0x3712 JUMP JUMPDEST PUSH1 0x40 MLOAD DUP1 SWAP2 SUB SWAP1 RETURN JUMPDEST CALLVALUE DUP1 ISZERO PUSH2 0x36D JUMPI PUSH0 PUSH0 REVERT JUMPDEST POP PUSH2 0x376 PUSH2 0xB60 JUMP JUMPDEST PUSH1 0x40 MLOAD PUSH2 0x383 SWAP2 SWAP1 PUSH2 0x35E0 JUMP JUMPDEST PUSH1 0x40 MLOAD DUP1 SWAP2 SUB SWAP1 RETURN JUMPDEST CALLVALUE DUP1 ISZERO PUSH2 0x397 JUMPI PUSH0 PUSH0 REVERT JUMPDEST POP PUSH2 0x3A0 PUSH2 0xB66 JUMP JUMPDEST PUSH1 0x40 MLOAD PUSH2 0x3AD SWAP2 SWAP1 PUSH2 0x35E0 JUMP JUMPDEST PUSH1 0x40 MLOAD DUP1 SWAP2 SUB SWAP1 RETURN JUMPDEST CALLVALUE DUP1 ISZERO PUSH2 0x3C1 JUMPI PUSH0 PUSH0 REVERT JUMPDEST POP PUSH2 0x3CA PUSH2 0xB6C JUMP JUMPDEST PUSH1 0x40 MLOAD PUSH2 0x3D7 SWAP2 SWAP1 PUSH2 0x35E0 JUMP JUMPDEST PUSH1 0x40 MLOAD DUP1 SWAP2 SUB SWAP1 RETURN JUMPDEST CALLVALUE DUP1 ISZERO PUSH2 0x3EB JUMPI PUSH0 PUSH0 REVERT JUMPDEST POP PUSH2 0x3F4 PUSH2 0xB72 JUMP JUMPDEST PUSH1 0x40 MLOAD PUSH2 0x401 SWAP2 SWAP1 PUSH2 0x35E0 JUMP JUMPDEST PUSH1 0x40 MLOAD DUP1 SWAP2 SUB SWAP1 RETURN JUMPDEST CALLVALUE DUP1 ISZERO PUSH2 0x415 JUMPI PUSH0 PUSH0 REVERT JUMPDEST POP PUSH2 0x430 PUSH1 0x4 DUP1 CALLDATASIZE SUB DUP2 ADD SWAP1 PUSH2 0x42B SWAP2 SWAP1 PUSH2 0x378C JUMP JUMPDEST PUSH2 0xB78 JUMP JUMPDEST STOP JUMPDEST PUSH2 0x44C PUSH1 0x4 DUP1 CALLDATASIZE SUB DUP2 ADD SWAP1 PUSH2 0x447 SWAP2 SWAP1 PUSH2 0x3939 JUMP JUMPDEST PUSH2 0xC1A JUMP JUMPDEST STOP JUMPDEST CALLVALUE DUP1 ISZERO PUSH2 0x459 JUMPI PUSH0 PUSH0 REVERT JUMPDEST POP PUSH2 0x474 PUSH1 0x4 DUP1 CALLDATASIZE SUB DUP2 ADD SWAP1 PUSH2 0x46F SWAP2 SWAP1 PUSH2 0x36C7 JUMP JUMPDEST PUSH2 0xC39 JUMP JUMPDEST STOP JUMPDEST CALLVALUE DUP1 ISZERO PUSH2 0x481 JUMPI PUSH0 PUSH0 REVERT JUMPDEST POP PUSH2 0x48A PUSH2 0xDBC JUMP JUMPDEST PUSH1 0x40 MLOAD PUSH2 0x497 SWAP2 SWAP1 PUSH2 0x39AB JUMP JUMPDEST PUSH1 0x40 MLOAD DUP1 SWAP2 SUB SWAP1 RETURN JUMPDEST CALLVALUE DUP1 ISZERO PUSH2 0x4AB JUMPI PUSH0 PUSH0 REVERT JUMPDEST POP PUSH2 0x4B4 PUSH2 0xDED JUMP JUMPDEST PUSH1 0x40 MLOAD PUSH2 0x4C1 SWAP2 SWAP1 PUSH2 0x3712 JUMP JUMPDEST PUSH1 0x40 MLOAD DUP1 SWAP2 SUB SWAP1 RETURN JUMPDEST CALLVALUE DUP1 ISZERO PUSH2 0x4D5 JUMPI PUSH0 PUSH0 REVERT JUMPDEST POP PUSH2 0x4DE PUSH2 0xE12 JUMP JUMPDEST PUSH1 0x40 MLOAD PUSH2 0x4EB SWAP2 SWAP1 PUSH2 0x35E0 JUMP JUMPDEST PUSH1 0x40 MLOAD DUP1 SWAP2 SUB SWAP1 RETURN JUMPDEST CALLVALUE DUP1 ISZERO PUSH2 0x4FF JUMPI PUSH0 PUSH0 REVERT JUMPDEST POP PUSH2 0x508 PUSH2 0xE18 JUMP JUMPDEST STOP JUMPDEST CALLVALUE DUP1 ISZERO PUSH2 0x515 JUMPI PUSH0 PUSH0 REVERT JUMPDEST POP PUSH2 0x530 PUSH1 0x4 DUP1 CALLDATASIZE SUB DUP2 ADD SWAP1 PUSH2 0x52B SWAP2 SWAP1 PUSH2 0x36C7 JUMP JUMPDEST PUSH2 0xE64 JUMP JUMPDEST STOP JUMPDEST CALLVALUE DUP1 ISZERO PUSH2 0x53D JUMPI PUSH0 PUSH0 REVERT JUMPDEST POP PUSH2 0x558 PUSH1 0x4 DUP1 CALLDATASIZE SUB DUP2 ADD SWAP1 PUSH2 0x553 SWAP2 SWAP1 PUSH2 0x378C JUMP JUMPDEST PUSH2 0x10F4 JUMP JUMPDEST PUSH1 0x40 MLOAD PUSH2 0x566 SWAP3 SWAP2 SWAP1 PUSH2 0x3A3E JUMP JUMPDEST PUSH1 0x40 MLOAD DUP1 SWAP2 SUB SWAP1 RETURN JUMPDEST CALLVALUE DUP1 ISZERO PUSH2 0x57A JUMPI PUSH0 PUSH0 REVERT JUMPDEST POP PUSH2 0x583 PUSH2 0x1128 JUMP JUMPDEST STOP JUMPDEST CALLVALUE DUP1 ISZERO PUSH2 0x590 JUMPI PUSH0 PUSH0 REVERT JUMPDEST POP PUSH2 0x5AB PUSH1 0x4 DUP1 CALLDATASIZE SUB DUP2 ADD SWAP1 PUSH2 0x5A6 SWAP2 SWAP1 PUSH2 0x36C7 JUMP JUMPDEST PUSH2 0x113B JUMP JUMPDEST STOP JUMPDEST CALLVALUE DUP1 ISZERO PUSH2 0x5B8 JUMPI PUSH0 PUSH0 REVERT JUMPDEST POP PUSH2 0x5D3 PUSH1 0x4 DUP1 CALLDATASIZE SUB DUP2 ADD SWAP1 PUSH2 0x5CE SWAP2 SWAP1 PUSH2 0x36C7 JUMP JUMPDEST PUSH2 0x1535 JUMP JUMPDEST STOP JUMPDEST CALLVALUE DUP1 ISZERO PUSH2 0x5E0 JUMPI PUSH0 PUSH0 REVERT JUMPDEST POP PUSH2 0x5FB PUSH1 0x4 DUP1 CALLDATASIZE SUB DUP2 ADD SWAP1 PUSH2 0x5F6 SWAP2 SWAP1 PUSH2 0x36C7 JUMP JUMPDEST PUSH2 0x16B8 JUMP JUMPDEST STOP JUMPDEST CALLVALUE DUP1 ISZERO PUSH2 0x608 JUMPI PUSH0 PUSH0 REVERT JUMPDEST POP PUSH2 0x623 PUSH1 0x4 DUP1 CALLDATASIZE SUB DUP2 ADD SWAP1 PUSH2 0x61E SWAP2 SWAP1 PUSH2 0x36C7 JUMP JUMPDEST PUSH2 0x1749 JUMP JUMPDEST STOP JUMPDEST CALLVALUE DUP1 ISZERO PUSH2 0x630 JUMPI PUSH0 PUSH0 REVERT JUMPDEST POP PUSH2 0x64B PUSH1 0x4 DUP1 CALLDATASIZE SUB DUP2 ADD SWAP1 PUSH2 0x646 SWAP2 SWAP1 PUSH2 0x36C7 JUMP JUMPDEST PUSH2 0x17DA JUMP JUMPDEST STOP JUMPDEST CALLVALUE DUP1 ISZERO PUSH2 0x658 JUMPI PUSH0 PUSH0 REVERT JUMPDEST POP PUSH2 0x673 PUSH1 0x4 DUP1 CALLDATASIZE SUB DUP2 ADD SWAP1 PUSH2 0x66E SWAP2 SWAP1 PUSH2 0x3A6C JUMP JUMPDEST PUSH2 0x1A94 JUMP JUMPDEST STOP JUMPDEST CALLVALUE DUP1 ISZERO PUSH2 0x680 JUMPI PUSH0 PUSH0 REVERT JUMPDEST POP PUSH2 0x689 PUSH2 0x1C5A JUMP JUMPDEST PUSH1 0x40 MLOAD PUSH2 0x696 SWAP2 SWAP1 PUSH2 0x3712 JUMP JUMPDEST PUSH1 0x40 MLOAD DUP1 SWAP2 SUB SWAP1 RETURN JUMPDEST CALLVALUE DUP1 ISZERO PUSH2 0x6AA JUMPI PUSH0 PUSH0 REVERT JUMPDEST POP PUSH2 0x6B3 PUSH2 0x1C8F JUMP JUMPDEST PUSH1 0x40 MLOAD PUSH2 0x6C0 SWAP2 SWAP1 PUSH2 0x35E0 JUMP JUMPDEST PUSH1 0x40 MLOAD DUP1 SWAP2 SUB SWAP1 RETURN JUMPDEST CALLVALUE DUP1 ISZERO PUSH2 0x6D4 JUMPI PUSH0 PUSH0 REVERT JUMPDEST POP PUSH2 0x6DD PUSH2 0x1C95 JUMP JUMPDEST PUSH1 0x40 MLOAD PUSH2 0x6EA SWAP2 SWAP1 PUSH2 0x35E0 JUMP JUMPDEST PUSH1 0x40 MLOAD DUP1 SWAP2 SUB SWAP1 RETURN JUMPDEST CALLVALUE DUP1 ISZERO PUSH2 0x6FE JUMPI PUSH0 PUSH0 REVERT JUMPDEST POP PUSH2 0x719 PUSH1 0x4 DUP1 CALLDATASIZE SUB DUP2 ADD SWAP1 PUSH2 0x714 SWAP2 SWAP1 PUSH2 0x36C7 JUMP JUMPDEST PUSH2 0x1C9B JUMP JUMPDEST PUSH1 0x40 MLOAD PUSH2 0x726 SWAP2 SWAP1 PUSH2 0x3712 JUMP JUMPDEST PUSH1 0x40 MLOAD DUP1 SWAP2 SUB SWAP1 RETURN JUMPDEST CALLVALUE DUP1 ISZERO PUSH2 0x73A JUMPI PUSH0 PUSH0 REVERT JUMPDEST POP PUSH2 0x743 PUSH2 0x1CCB JUMP JUMPDEST PUSH1 0x40 MLOAD PUSH2 0x750 SWAP2 SWAP1 PUSH2 0x3AFC JUMP JUMPDEST PUSH1 0x40 MLOAD DUP1 SWAP2 SUB SWAP1 RETURN JUMPDEST CALLVALUE DUP1 ISZERO PUSH2 0x764 JUMPI PUSH0 PUSH0 REVERT JUMPDEST POP PUSH2 0x77F PUSH1 0x4 DUP1 CALLDATASIZE SUB DUP2 ADD SWAP1 PUSH2 0x77A SWAP2 SWAP1 PUSH2 0x36C7 JUMP JUMPDEST PUSH2 0x1D04 JUMP JUMPDEST STOP JUMPDEST CALLVALUE DUP1 ISZERO PUSH2 0x78C JUMPI PUSH0 PUSH0 REVERT JUMPDEST POP PUSH2 0x795 PUSH2 0x1D95 JUMP JUMPDEST PUSH1 0x40 MLOAD PUSH2 0x7A2 SWAP2 SWAP1 PUSH2 0x35E0 JUMP JUMPDEST PUSH1 0x40 MLOAD DUP1 SWAP2 SUB SWAP1 RETURN JUMPDEST CALLVALUE DUP1 ISZERO PUSH2 0x7B6 JUMPI PUSH0 PUSH0 REVERT JUMPDEST POP PUSH2 0x7D1 PUSH1 0x4 DUP1 CALLDATASIZE SUB DUP2 ADD SWAP1 PUSH2 0x7CC SWAP2 SWAP1 PUSH2 0x36C7 JUMP JUMPDEST PUSH2 0x1D9B JUMP JUMPDEST STOP JUMPDEST CALLVALUE DUP1 ISZERO PUSH2 0x7DE JUMPI PUSH0 PUSH0 REVERT JUMPDEST POP PUSH2 0x7F9 PUSH1 0x4 DUP1 CALLDATASIZE SUB DUP2 ADD SWAP1 PUSH2 0x7F4 SWAP2 SWAP1 PUSH2 0x3B1C JUMP JUMPDEST PUSH2 0x1E2C JUMP JUMPDEST PUSH1 0x40 MLOAD PUSH2 0x80B SWAP7 SWAP6 SWAP5 SWAP4 SWAP3 SWAP2 SWAP1 PUSH2 0x3B47 JUMP JUMPDEST PUSH1 0x40 MLOAD DUP1 SWAP2 SUB SWAP1 RETURN JUMPDEST CALLVALUE DUP1 ISZERO PUSH2 0x81F JUMPI PUSH0 PUSH0 REVERT JUMPDEST POP PUSH2 0x83A PUSH1 0x4 DUP1 CALLDATASIZE SUB DUP2 ADD SWAP1 PUSH2 0x835 SWAP2 SWAP1 PUSH2 0x3BA6 JUMP JUMPDEST PUSH2 0x1E70 JUMP JUMPDEST STOP JUMPDEST CALLVALUE DUP1 ISZERO PUSH2 0x847 JUMPI PUSH0 PUSH0 REVERT JUMPDEST POP PUSH2 0x862 PUSH1 0x4 DUP1 CALLDATASIZE SUB DUP2 ADD SWAP1 PUSH2 0x85D SWAP2 SWAP1 PUSH2 0x3B1C JUMP JUMPDEST PUSH2 0x2109 JUMP JUMPDEST PUSH1 0x40 MLOAD PUSH2 0x86F SWAP2 SWAP1 PUSH2 0x3BF6 JUMP JUMPDEST PUSH1 0x40 MLOAD DUP1 SWAP2 SUB SWAP1 RETURN JUMPDEST CALLVALUE DUP1 ISZERO PUSH2 0x883 JUMPI PUSH0 PUSH0 REVERT JUMPDEST POP PUSH2 0x88C PUSH2 0x2126 JUMP JUMPDEST PUSH1 0x40 MLOAD PUSH2 0x899 SWAP2 SWAP1 PUSH2 0x35E0 JUMP JUMPDEST PUSH1 0x40 MLOAD DUP1 SWAP2 SUB SWAP1 RETURN JUMPDEST CALLVALUE DUP1 ISZERO PUSH2 0x8AD JUMPI PUSH0 PUSH0 REVERT JUMPDEST POP PUSH2 0x8C8 PUSH1 0x4 DUP1 CALLDATASIZE SUB DUP2 ADD SWAP1 PUSH2 0x8C3 SWAP2 SWAP1 PUSH2 0x3B1C JUMP JUMPDEST PUSH2 0x212C JUMP JUMPDEST STOP JUMPDEST CALLVALUE DUP1 ISZERO PUSH2 0x8D5 JUMPI PUSH0 PUSH0 REVERT JUMPDEST POP PUSH2 0x8F0 PUSH1 0x4 DUP1 CALLDATASIZE SUB DUP2 ADD SWAP1 PUSH2 0x8EB SWAP2 SWAP1 PUSH2 0x3C39 JUMP JUMPDEST PUSH2 0x2241 JUMP JUMPDEST STOP JUMPDEST CALLVALUE DUP1 ISZERO PUSH2 0x8FD JUMPI PUSH0 PUSH0 REVERT JUMPDEST POP PUSH2 0x906 PUSH2 0x245D JUMP JUMPDEST STOP JUMPDEST CALLVALUE DUP1 ISZERO PUSH2 0x913 JUMPI PUSH0 PUSH0 REVERT JUMPDEST POP PUSH2 0x92E PUSH1 0x4 DUP1 CALLDATASIZE SUB DUP2 ADD SWAP1 PUSH2 0x929 SWAP2 SWAP1 PUSH2 0x3A6C JUMP JUMPDEST PUSH2 0x2913 JUMP JUMPDEST STOP JUMPDEST CALLVALUE DUP1 ISZERO PUSH2 0x93B JUMPI PUSH0 PUSH0 REVERT JUMPDEST POP PUSH2 0x956 PUSH1 0x4 DUP1 CALLDATASIZE SUB DUP2 ADD SWAP1 PUSH2 0x951 SWAP2 SWAP1 PUSH2 0x3B1C JUMP JUMPDEST PUSH2 0x29C3 JUMP JUMPDEST STOP JUMPDEST CALLVALUE DUP1 ISZERO PUSH2 0x963 JUMPI PUSH0 PUSH0 REVERT JUMPDEST POP PUSH2 0x97E PUSH1 0x4 DUP1 CALLDATASIZE SUB DUP2 ADD SWAP1 PUSH2 0x979 SWAP2 SWAP1 PUSH2 0x36C7 JUMP JUMPDEST PUSH2 0x2A47 JUMP JUMPDEST PUSH1 0x40 MLOAD PUSH2 0x98B SWAP2 SWAP1 PUSH2 0x35E0 JUMP JUMPDEST PUSH1 0x40 MLOAD DUP1 SWAP2 SUB SWAP1 RETURN JUMPDEST PUSH1 0x8 SLOAD DUP2 JUMP JUMPDEST PUSH0 PUSH0 SWAP1 SLOAD SWAP1 PUSH2 0x100 EXP SWAP1 DIV PUSH20 0xFFFFFFFFFFFFFFFFFFFFFFFFFFFFFFFFFFFFFFFF AND DUP2 JUMP JUMPDEST PUSH1 0x1 SLOAD DUP2 JUMP JUMPDEST PUSH2 0x9CC PUSH2 0x2A5C JUMP JUMPDEST PUSH0 DUP2 GT PUSH2 0xA10 JUMPI DUP1 PUSH1 0x40 MLOAD PUSH32 0x7154000700000000000000000000000000000000000000000000000000000000 DUP2 MSTORE PUSH1 0x4 ADD PUSH2 0xA07 SWAP2 SWAP1 PUSH2 0x35E0 JUMP JUMPDEST PUSH1 0x40 MLOAD DUP1 SWAP2 SUB SWAP1 REVERT JUMPDEST DUP1 PUSH1 0xA DUP2 SWAP1 SSTORE POP TIMESTAMP PUSH1 0xB DUP2 SWAP1 SSTORE POP PUSH32 0x2B5090E035D3026F5448298C9ADC68DB8BBC1B26A8AF5C81B2B2A9FC07CA4A00 CALLER PUSH1 0xA SLOAD PUSH1 0xB SLOAD PUSH1 0x40 MLOAD PUSH2 0xA55 SWAP4 SWAP3 SWAP2 SWAP1 PUSH2 0x3C77 JUMP JUMPDEST PUSH1 0x40 MLOAD DUP1 SWAP2 SUB SWAP1 LOG1 POP JUMP JUMPDEST PUSH2 0xA68 PUSH2 0x2A5C JUMP JUMPDEST PUSH0 DUP2 GT PUSH2 0xAAC JUMPI DUP1 PUSH1 0x40 MLOAD PUSH32 0xCDBC633500000000000000000000000000000000000000000000000000000000 DUP2 MSTORE PUSH1 0x4 ADD PUSH2 0xAA3 SWAP2 SWAP1 PUSH2 0x35E0 JUMP JUMPDEST PUSH1 0x40 MLOAD DUP1 SWAP2 SUB SWAP1 REVERT JUMPDEST DUP1 PUSH1 0x10 PUSH0 PUSH1 0xD SLOAD DUP2 MSTORE PUSH1 0x20 ADD SWAP1 DUP2 MSTORE PUSH1 0x20 ADD PUSH0 KECCAK256 DUP2 SWAP1 SSTORE POP PUSH1 0xD PUSH0 DUP2 SLOAD DUP1 SWAP3 SWAP2 SWAP1 PUSH2 0xAD6 SWAP1 PUSH2 0x3CD9 JUMP JUMPDEST SWAP2 SWAP1 POP SSTORE POP PUSH32 0xE1976E16ED8CE8E740235978FBE69B27D5EEA683B2E017BB0BD2FABB33294B3F PUSH1 0xD PUSH0 DUP2 SLOAD DUP1 SWAP3 SWAP2 SWAP1 PUSH2 0xB0E SWAP1 PUSH2 0x3D20 JUMP JUMPDEST SWAP2 SWAP1 POP SSTORE DUP3 PUSH2 0x2710 PUSH2 0xB20 SWAP2 SWAP1 PUSH2 0x3D47 JUMP JUMPDEST DUP4 PUSH1 0x40 MLOAD PUSH2 0xB30 SWAP4 SWAP3 SWAP2 SWAP1 PUSH2 0x3D7A JUMP JUMPDEST PUSH1 0x40 MLOAD DUP1 SWAP2 SUB SWAP1 LOG1 POP JUMP JUMPDEST PUSH1 0xC PUSH0 SWAP1 SLOAD SWAP1 PUSH2 0x100 EXP SWAP1 DIV PUSH20 0xFFFFFFFFFFFFFFFFFFFFFFFFFFFFFFFFFFFFFFFF AND DUP2 JUMP JUMPDEST PUSH1 0x4 SLOAD DUP2 JUMP JUMPDEST PUSH1 0x7 SLOAD DUP2 JUMP JUMPDEST PUSH1 0xB SLOAD DUP2 JUMP JUMPDEST PUSH1 0x5 SLOAD DUP2 JUMP JUMPDEST PUSH1 0xC PUSH0 SWAP1 SLOAD SWAP1 PUSH2 0x100 EXP SWAP1 DIV PUSH20 0xFFFFFFFFFFFFFFFFFFFFFFFFFFFFFFFFFFFFFFFF AND PUSH20 0xFFFFFFFFFFFFFFFFFFFFFFFFFFFFFFFFFFFFFFFF AND CALLER PUSH20 0xFFFFFFFFFFFFFFFFFFFFFFFFFFFFFFFFFFFFFFFF AND EQ PUSH2 0xC07 JUMPI PUSH1 0x40 MLOAD PUSH32 0x8C379A000000000000000000000000000000000000000000000000000000000 DUP2 MSTORE PUSH1 0x4 ADD PUSH2 0xBFE SWAP1 PUSH2 0x3E1F JUMP JUMPDEST PUSH1 0x40 MLOAD DUP1 SWAP2 SUB SWAP1 REVERT JUMPDEST TIMESTAMP PUSH1 0xB DUP2 SWAP1 SSTORE POP PUSH2 0xC16 PUSH2 0x245D JUMP JUMPDEST POP POP JUMP JUMPDEST PUSH2 0xC22 PUSH2 0x2AE3 JUMP JUMPDEST PUSH2 0xC2B DUP3 PUSH2 0x2BC9 JUMP JUMPDEST PUSH2 0xC35 DUP3 DUP3 PUSH2 0x2BD4 JUMP JUMPDEST POP POP JUMP JUMPDEST PUSH2 0xC41 PUSH2 0x2A5C JUMP JUMPDEST PUSH0 DUP2 GT PUSH2 0xC85 JUMPI DUP1 PUSH1 0x40 MLOAD PUSH32 0x2FF4783000000000000000000000000000000000000000000000000000000000 DUP2 MSTORE PUSH1 0x4 ADD PUSH2 0xC7C SWAP2 SWAP1 PUSH2 0x35E0 JUMP JUMPDEST PUSH1 0x40 MLOAD DUP1 SWAP2 SUB SWAP1 REVERT JUMPDEST DUP1 PUSH1 0x1 PUSH0 DUP3 DUP3 SLOAD PUSH2 0xC96 SWAP2 SWAP1 PUSH2 0x3E3D JUMP JUMPDEST SWAP3 POP POP DUP2 SWAP1 SSTORE POP PUSH0 PUSH0 PUSH0 SWAP1 SLOAD SWAP1 PUSH2 0x100 EXP SWAP1 DIV PUSH20 0xFFFFFFFFFFFFFFFFFFFFFFFFFFFFFFFFFFFFFFFF AND PUSH20 0xFFFFFFFFFFFFFFFFFFFFFFFFFFFFFFFFFFFFFFFF AND PUSH4 0x23B872DD CALLER ADDRESS DUP6 PUSH1 0x40 MLOAD DUP5 PUSH4 0xFFFFFFFF AND PUSH1 0xE0 SHL DUP2 MSTORE PUSH1 0x4 ADD PUSH2 0xCFB SWAP4 SWAP3 SWAP2 SWAP1 PUSH2 0x3E70 JUMP JUMPDEST PUSH1 0x20 PUSH1 0x40 MLOAD DUP1 DUP4 SUB DUP2 PUSH0 DUP8 GAS CALL ISZERO DUP1 ISZERO PUSH2 0xD17 JUMPI RETURNDATASIZE PUSH0 PUSH0 RETURNDATACOPY RETURNDATASIZE PUSH0 REVERT JUMPDEST POP POP POP POP PUSH1 0x40 MLOAD RETURNDATASIZE PUSH1 0x1F NOT PUSH1 0x1F DUP3 ADD AND DUP3 ADD DUP1 PUSH1 0x40 MSTORE POP DUP2 ADD SWAP1 PUSH2 0xD3B SWAP2 SWAP1 PUSH2 0x3EB9 JUMP JUMPDEST SWAP1 POP DUP1 PUSH2 0xD7F JUMPI DUP1 PUSH1 0x40 MLOAD PUSH32 0xD85D3CEF00000000000000000000000000000000000000000000000000000000 DUP2 MSTORE PUSH1 0x4 ADD PUSH2 0xD76 SWAP2 SWAP1 PUSH2 0x3BF6 JUMP JUMPDEST PUSH1 0x40 MLOAD DUP1 SWAP2 SUB SWAP1 REVERT JUMPDEST PUSH32 0xA9F166643EC132A11638E74E3C3A78D4AE278FCBF92998240E0E97676F54E404 PUSH1 0x1 SLOAD PUSH1 0x40 MLOAD PUSH2 0xDB0 SWAP2 SWAP1 PUSH2 0x35E0 JUMP JUMPDEST PUSH1 0x40 MLOAD DUP1 SWAP2 SUB SWAP1 LOG1 POP POP JUMP JUMPDEST PUSH0 PUSH2 0xDC5 PUSH2 0x2CF2 JUMP JUMPDEST PUSH32 0x360894A13BA1A3210667C828492DB98DCA3E2076CC3735A920A3CA505D382BBC PUSH0 SHL SWAP1 POP SWAP1 JUMP JUMPDEST PUSH1 0x9 PUSH0 SWAP1 SLOAD SWAP1 PUSH2 0x100 EXP SWAP1 DIV PUSH20 0xFFFFFFFFFFFFFFFFFFFFFFFFFFFFFFFFFFFFFFFF AND DUP2 JUMP JUMPDEST PUSH1 0x3 SLOAD DUP2 JUMP JUMPDEST PUSH2 0xE20 PUSH2 0x2A5C JUMP JUMPDEST PUSH0 PUSH1 0xA DUP2 SWAP1 SSTORE POP PUSH32 0x3B68DC4E210C46D3622293F2B941CDFDE795BB6E17286BB289BA05A6A3B5541F CALLER PUSH1 0xA SLOAD PUSH1 0x40 MLOAD PUSH2 0xE5A SWAP3 SWAP2 SWAP1 PUSH2 0x3EE4 JUMP JUMPDEST PUSH1 0x40 MLOAD DUP1 SWAP2 SUB SWAP1 LOG1 JUMP JUMPDEST PUSH0 DUP2 GT PUSH2 0xEA8 JUMPI DUP1 PUSH1 0x40 MLOAD PUSH32 0x2FF4783000000000000000000000000000000000000000000000000000000000 DUP2 MSTORE PUSH1 0x4 ADD PUSH2 0xE9F SWAP2 SWAP1 PUSH2 0x35E0 JUMP JUMPDEST PUSH1 0x40 MLOAD DUP1 SWAP2 SUB SWAP1 REVERT JUMPDEST PUSH1 0x11 PUSH0 CALLER PUSH20 0xFFFFFFFFFFFFFFFFFFFFFFFFFFFFFFFFFFFFFFFF AND PUSH20 0xFFFFFFFFFFFFFFFFFFFFFFFFFFFFFFFFFFFFFFFF AND DUP2 MSTORE PUSH1 0x20 ADD SWAP1 DUP2 MSTORE PUSH1 0x20 ADD PUSH0 KECCAK256 PUSH1 0x1 ADD SLOAD DUP2 GT ISZERO PUSH2 0xF2B JUMPI PUSH1 0x40 MLOAD PUSH32 0x8C379A000000000000000000000000000000000000000000000000000000000 DUP2 MSTORE PUSH1 0x4 ADD PUSH2 0xF22 SWAP1 PUSH2 0x3F55 JUMP JUMPDEST PUSH1 0x40 MLOAD DUP1 SWAP2 SUB SWAP1 REVERT JUMPDEST DUP1 PUSH1 0x11 PUSH0 CALLER PUSH20 0xFFFFFFFFFFFFFFFFFFFFFFFFFFFFFFFFFFFFFFFF AND PUSH20 0xFFFFFFFFFFFFFFFFFFFFFFFFFFFFFFFFFFFFFFFF AND DUP2 MSTORE PUSH1 0x20 ADD SWAP1 DUP2 MSTORE PUSH1 0x20 ADD PUSH0 KECCAK256 PUSH1 0x1 ADD PUSH0 DUP3 DUP3 SLOAD PUSH2 0xF7A SWAP2 SWAP1 PUSH2 0x3D47 JUMP JUMPDEST SWAP3 POP POP DUP2 SWAP1 SSTORE POP DUP1 PUSH1 0x11 PUSH0 CALLER PUSH20 0xFFFFFFFFFFFFFFFFFFFFFFFFFFFFFFFFFFFFFFFF AND PUSH20 0xFFFFFFFFFFFFFFFFFFFFFFFFFFFFFFFFFFFFFFFF AND DUP2 MSTORE PUSH1 0x20 ADD SWAP1 DUP2 MSTORE PUSH1 0x20 ADD PUSH0 KECCAK256 PUSH1 0x2 ADD PUSH0 DUP3 DUP3 SLOAD PUSH2 0xFD0 SWAP2 SWAP1 PUSH2 0x3E3D JUMP JUMPDEST SWAP3 POP POP DUP2 SWAP1 SSTORE POP PUSH0 PUSH0 PUSH0 SWAP1 SLOAD SWAP1 PUSH2 0x100 EXP SWAP1 DIV PUSH20 0xFFFFFFFFFFFFFFFFFFFFFFFFFFFFFFFFFFFFFFFF AND PUSH20 0xFFFFFFFFFFFFFFFFFFFFFFFFFFFFFFFFFFFFFFFF AND PUSH4 0xA9059CBB CALLER DUP5 PUSH1 0x40 MLOAD DUP4 PUSH4 0xFFFFFFFF AND PUSH1 0xE0 SHL DUP2 MSTORE PUSH1 0x4 ADD PUSH2 0x1033 SWAP3 SWAP2 SWAP1 PUSH2 0x3EE4 JUMP JUMPDEST PUSH1 0x20 PUSH1 0x40 MLOAD DUP1 DUP4 SUB DUP2 PUSH0 DUP8 GAS CALL ISZERO DUP1 ISZERO PUSH2 0x104F JUMPI RETURNDATASIZE PUSH0 PUSH0 RETURNDATACOPY RETURNDATASIZE PUSH0 REVERT JUMPDEST POP POP POP POP PUSH1 0x40 MLOAD RETURNDATASIZE PUSH1 0x1F NOT PUSH1 0x1F DUP3 ADD AND DUP3 ADD DUP1 PUSH1 0x40 MSTORE POP DUP2 ADD SWAP1 PUSH2 0x1073 SWAP2 SWAP1 PUSH2 0x3EB9 JUMP JUMPDEST SWAP1 POP DUP1 PUSH2 0x10B7 JUMPI DUP1 PUSH1 0x40 MLOAD PUSH32 0xD85D3CEF00000000000000000000000000000000000000000000000000000000 DUP2 MSTORE PUSH1 0x4 ADD PUSH2 0x10AE SWAP2 SWAP1 PUSH2 0x3BF6 JUMP JUMPDEST PUSH1 0x40 MLOAD DUP1 SWAP2 SUB SWAP1 REVERT JUMPDEST PUSH32 0x884EDAD9CE6FA2440D8A54CC123490EB96D2768479D49FF9C7366125A9424364 CALLER DUP4 PUSH1 0x40 MLOAD PUSH2 0x10E8 SWAP3 SWAP2 SWAP1 PUSH2 0x3EE4 JUMP JUMPDEST PUSH1 0x40 MLOAD DUP1 SWAP2 SUB SWAP1 LOG1 POP POP JUMP JUMPDEST PUSH0 PUSH1 0x60 PUSH0 PUSH1 0xA SLOAD PUSH1 0xB SLOAD TIMESTAMP PUSH2 0x1109 SWAP2 SWAP1 PUSH2 0x3D47 JUMP JUMPDEST GT SWAP1 POP DUP1 PUSH1 0x40 MLOAD DUP1 PUSH1 0x20 ADD PUSH1 0x40 MSTORE DUP1 PUSH0 DUP2 MSTORE POP SWAP3 POP SWAP3 POP POP SWAP3 POP SWAP3 SWAP1 POP JUMP JUMPDEST PUSH2 0x1130 PUSH2 0x2A5C JUMP JUMPDEST PUSH2 0x1139 PUSH0 PUSH2 0x2D79 JUMP JUMPDEST JUMP JUMPDEST PUSH0 DUP2 GT PUSH2 0x117F JUMPI DUP1 PUSH1 0x40 MLOAD PUSH32 0x2FF4783000000000000000000000000000000000000000000000000000000000 DUP2 MSTORE PUSH1 0x4 ADD PUSH2 0x1176 SWAP2 SWAP1 PUSH2 0x35E0 JUMP JUMPDEST PUSH1 0x40 MLOAD DUP1 SWAP2 SUB SWAP1 REVERT JUMPDEST PUSH1 0x11 PUSH0 CALLER PUSH20 0xFFFFFFFFFFFFFFFFFFFFFFFFFFFFFFFFFFFFFFFF AND PUSH20 0xFFFFFFFFFFFFFFFFFFFFFFFFFFFFFFFFFFFFFFFF AND DUP2 MSTORE PUSH1 0x20 ADD SWAP1 DUP2 MSTORE PUSH1 0x20 ADD PUSH0 KECCAK256 PUSH0 ADD PUSH0 SWAP1 SLOAD SWAP1 PUSH2 0x100 EXP SWAP1 DIV PUSH1 0xFF AND ISZERO PUSH2 0x1258 JUMPI PUSH1 0x11 PUSH0 CALLER PUSH20 0xFFFFFFFFFFFFFFFFFFFFFFFFFFFFFFFFFFFFFFFF AND PUSH20 0xFFFFFFFFFFFFFFFFFFFFFFFFFFFFFFFFFFFFFFFF AND DUP2 MSTORE PUSH1 0x20 ADD SWAP1 DUP2 MSTORE PUSH1 0x20 ADD PUSH0 KECCAK256 PUSH0 ADD PUSH0 SWAP1 SLOAD SWAP1 PUSH2 0x100 EXP SWAP1 DIV PUSH1 0xFF AND PUSH1 0x40 MLOAD PUSH32 0x6FA5C3C000000000000000000000000000000000000000000000000000000000 DUP2 MSTORE PUSH1 0x4 ADD PUSH2 0x124F SWAP2 SWAP1 PUSH2 0x3BF6 JUMP JUMPDEST PUSH1 0x40 MLOAD DUP1 SWAP2 SUB SWAP1 REVERT JUMPDEST DUP1 PUSH1 0x11 PUSH0 CALLER PUSH20 0xFFFFFFFFFFFFFFFFFFFFFFFFFFFFFFFFFFFFFFFF AND PUSH20 0xFFFFFFFFFFFFFFFFFFFFFFFFFFFFFFFFFFFFFFFF AND DUP2 MSTORE PUSH1 0x20 ADD SWAP1 DUP2 MSTORE PUSH1 0x20 ADD PUSH0 KECCAK256 PUSH1 0x5 ADD PUSH0 DUP3 DUP3 SLOAD PUSH2 0x12A7 SWAP2 SWAP1 PUSH2 0x3E3D JUMP JUMPDEST SWAP3 POP POP DUP2 SWAP1 SSTORE POP PUSH1 0xE PUSH0 CALLER PUSH20 0xFFFFFFFFFFFFFFFFFFFFFFFFFFFFFFFFFFFFFFFF AND PUSH20 0xFFFFFFFFFFFFFFFFFFFFFFFFFFFFFFFFFFFFFFFF AND DUP2 MSTORE PUSH1 0x20 ADD SWAP1 DUP2 MSTORE PUSH1 0x20 ADD PUSH0 KECCAK256 PUSH0 SWAP1 SLOAD SWAP1 PUSH2 0x100 EXP SWAP1 DIV PUSH1 0xFF AND PUSH2 0x13BA JUMPI CALLER PUSH1 0xF PUSH0 PUSH1 0x8 SLOAD DUP2 MSTORE PUSH1 0x20 ADD SWAP1 DUP2 MSTORE PUSH1 0x20 ADD PUSH0 KECCAK256 PUSH0 PUSH2 0x100 EXP DUP2 SLOAD DUP2 PUSH20 0xFFFFFFFFFFFFFFFFFFFFFFFFFFFFFFFFFFFFFFFF MUL NOT AND SWAP1 DUP4 PUSH20 0xFFFFFFFFFFFFFFFFFFFFFFFFFFFFFFFFFFFFFFFF AND MUL OR SWAP1 SSTORE POP PUSH1 0x1 PUSH1 0xE PUSH0 CALLER PUSH20 0xFFFFFFFFFFFFFFFFFFFFFFFFFFFFFFFFFFFFFFFF AND PUSH20 0xFFFFFFFFFFFFFFFFFFFFFFFFFFFFFFFFFFFFFFFF AND DUP2 MSTORE PUSH1 0x20 ADD SWAP1 DUP2 MSTORE PUSH1 0x20 ADD PUSH0 KECCAK256 PUSH0 PUSH2 0x100 EXP DUP2 SLOAD DUP2 PUSH1 0xFF MUL NOT AND SWAP1 DUP4 ISZERO ISZERO MUL OR SWAP1 SSTORE POP PUSH1 0x8 PUSH0 DUP2 SLOAD DUP1 SWAP3 SWAP2 SWAP1 PUSH2 0x13B4 SWAP1 PUSH2 0x3CD9 JUMP JUMPDEST SWAP2 SWAP1 POP SSTORE POP JUMPDEST DUP1 PUSH1 0x3 PUSH0 DUP3 DUP3 SLOAD PUSH2 0x13CB SWAP2 SWAP1 PUSH2 0x3E3D JUMP JUMPDEST SWAP3 POP POP DUP2 SWAP1 SSTORE POP PUSH0 PUSH0 PUSH0 SWAP1 SLOAD SWAP1 PUSH2 0x100 EXP SWAP1 DIV PUSH20 0xFFFFFFFFFFFFFFFFFFFFFFFFFFFFFFFFFFFFFFFF AND PUSH20 0xFFFFFFFFFFFFFFFFFFFFFFFFFFFFFFFFFFFFFFFF AND PUSH4 0x23B872DD CALLER PUSH1 0x9 PUSH0 SWAP1 SLOAD SWAP1 PUSH2 0x100 EXP SWAP1 DIV PUSH20 0xFFFFFFFFFFFFFFFFFFFFFFFFFFFFFFFFFFFFFFFF AND DUP6 PUSH1 0x40 MLOAD DUP5 PUSH4 0xFFFFFFFF AND PUSH1 0xE0 SHL DUP2 MSTORE PUSH1 0x4 ADD PUSH2 0x1451 SWAP4 SWAP3 SWAP2 SWAP1 PUSH2 0x3E70 JUMP JUMPDEST PUSH1 0x20 PUSH1 0x40 MLOAD DUP1 DUP4 SUB DUP2 PUSH0 DUP8 GAS CALL ISZERO DUP1 ISZERO PUSH2 0x146D JUMPI RETURNDATASIZE PUSH0 PUSH0 RETURNDATACOPY RETURNDATASIZE PUSH0 REVERT JUMPDEST POP POP POP POP PUSH1 0x40 MLOAD RETURNDATASIZE PUSH1 0x1F NOT PUSH1 0x1F DUP3 ADD AND DUP3 ADD DUP1 PUSH1 0x40 MSTORE POP DUP2 ADD SWAP1 PUSH2 0x1491 SWAP2 SWAP1 PUSH2 0x3EB9 JUMP JUMPDEST SWAP1 POP DUP1 PUSH2 0x14D5 JUMPI DUP1 PUSH1 0x40 MLOAD PUSH32 0xD85D3CEF00000000000000000000000000000000000000000000000000000000 DUP2 MSTORE PUSH1 0x4 ADD PUSH2 0x14CC SWAP2 SWAP1 PUSH2 0x3BF6 JUMP JUMPDEST PUSH1 0x40 MLOAD DUP1 SWAP2 SUB SWAP1 REVERT JUMPDEST PUSH32 0x14EE34C24635186D212F515353DADAE9C226529EDEF2D1FCF5504CB33B5C25AB CALLER PUSH1 0x9 PUSH0 SWAP1 SLOAD SWAP1 PUSH2 0x100 EXP SWAP1 DIV PUSH20 0xFFFFFFFFFFFFFFFFFFFFFFFFFFFFFFFFFFFFFFFF AND DUP5 PUSH1 0x40 MLOAD PUSH2 0x1529 SWAP4 SWAP3 SWAP2 SWAP1 PUSH2 0x3E70 JUMP JUMPDEST PUSH1 0x40 MLOAD DUP1 SWAP2 SUB SWAP1 LOG1 POP POP JUMP JUMPDEST PUSH2 0x153D PUSH2 0x2A5C JUMP JUMPDEST PUSH0 DUP2 GT PUSH2 0x1581 JUMPI DUP1 PUSH1 0x40 MLOAD PUSH32 0x2FF4783000000000000000000000000000000000000000000000000000000000 DUP2 MSTORE PUSH1 0x4 ADD PUSH2 0x1578 SWAP2 SWAP1 PUSH2 0x35E0 JUMP JUMPDEST PUSH1 0x40 MLOAD DUP1 SWAP2 SUB SWAP1 REVERT JUMPDEST DUP1 PUSH1 0x2 PUSH0 DUP3 DUP3 SLOAD PUSH2 0x1592 SWAP2 SWAP1 PUSH2 0x3E3D JUMP JUMPDEST SWAP3 POP POP DUP2 SWAP1 SSTORE POP PUSH0 PUSH0 PUSH0 SWAP1 SLOAD SWAP1 PUSH2 0x100 EXP SWAP1 DIV PUSH20 0xFFFFFFFFFFFFFFFFFFFFFFFFFFFFFFFFFFFFFFFF AND PUSH20 0xFFFFFFFFFFFFFFFFFFFFFFFFFFFFFFFFFFFFFFFF AND PUSH4 0x23B872DD CALLER ADDRESS DUP6 PUSH1 0x40 MLOAD DUP5 PUSH4 0xFFFFFFFF AND PUSH1 0xE0 SHL DUP2 MSTORE PUSH1 0x4 ADD PUSH2 0x15F7 SWAP4 SWAP3 SWAP2 SWAP1 PUSH2 0x3E70 JUMP JUMPDEST PUSH1 0x20 PUSH1 0x40 MLOAD DUP1 DUP4 SUB DUP2 PUSH0 DUP8 GAS CALL ISZERO DUP1 ISZERO PUSH2 0x1613 JUMPI RETURNDATASIZE PUSH0 PUSH0 RETURNDATACOPY RETURNDATASIZE PUSH0 REVERT JUMPDEST POP POP POP POP PUSH1 0x40 MLOAD RETURNDATASIZE PUSH1 0x1F NOT PUSH1 0x1F DUP3 ADD AND DUP3 ADD DUP1 PUSH1 0x40 MSTORE POP DUP2 ADD SWAP1 PUSH2 0x1637 SWAP2 SWAP1 PUSH2 0x3EB9 JUMP JUMPDEST SWAP1 POP DUP1 PUSH2 0x167B JUMPI DUP1 PUSH1 0x40 MLOAD PUSH32 0xD85D3CEF00000000000000000000000000000000000000000000000000000000 DUP2 MSTORE PUSH1 0x4 ADD PUSH2 0x1672 SWAP2 SWAP1 PUSH2 0x3BF6 JUMP JUMPDEST PUSH1 0x40 MLOAD DUP1 SWAP2 SUB SWAP1 REVERT JUMPDEST PUSH32 0x73834E1D1EE73BA659470A3603B888903853D3A3C9FDA34E71C093A0E35CAB94 PUSH1 0x2 SLOAD PUSH1 0x40 MLOAD PUSH2 0x16AC SWAP2 SWAP1 PUSH2 0x35E0 JUMP JUMPDEST PUSH1 0x40 MLOAD DUP1 SWAP2 SUB SWAP1 LOG1 POP POP JUMP JUMPDEST PUSH2 0x16C0 PUSH2 0x2A5C JUMP JUMPDEST PUSH0 DUP2 GT PUSH2 0x1704 JUMPI DUP1 PUSH1 0x40 MLOAD PUSH32 0xCDBC633500000000000000000000000000000000000000000000000000000000 DUP2 MSTORE PUSH1 0x4 ADD PUSH2 0x16FB SWAP2 SWAP1 PUSH2 0x35E0 JUMP JUMPDEST PUSH1 0x40 MLOAD DUP1 SWAP2 SUB SWAP1 REVERT JUMPDEST DUP1 PUSH1 0x7 DUP2 SWAP1 SSTORE POP PUSH32 0xB5671393C7C6980552E50A31E778921EB17D764C2E98FBF4D44FFF524712DEF9 CALLER PUSH1 0x7 SLOAD PUSH1 0x40 MLOAD PUSH2 0x173E SWAP3 SWAP2 SWAP1 PUSH2 0x3EE4 JUMP JUMPDEST PUSH1 0x40 MLOAD DUP1 SWAP2 SUB SWAP1 LOG1 POP JUMP JUMPDEST PUSH2 0x1751 PUSH2 0x2A5C JUMP JUMPDEST PUSH0 DUP2 GT PUSH2 0x1795 JUMPI DUP1 PUSH1 0x40 MLOAD PUSH32 0xCDBC633500000000000000000000000000000000000000000000000000000000 DUP2 MSTORE PUSH1 0x4 ADD PUSH2 0x178C SWAP2 SWAP1 PUSH2 0x35E0 JUMP JUMPDEST PUSH1 0x40 MLOAD DUP1 SWAP2 SUB SWAP1 REVERT JUMPDEST DUP1 PUSH1 0x4 DUP2 SWAP1 SSTORE POP PUSH32 0xB5671393C7C6980552E50A31E778921EB17D764C2E98FBF4D44FFF524712DEF9 CALLER PUSH1 0x4 SLOAD PUSH1 0x40 MLOAD PUSH2 0x17CF SWAP3 SWAP2 SWAP1 PUSH2 0x3EE4 JUMP JUMPDEST PUSH1 0x40 MLOAD DUP1 SWAP2 SUB SWAP1 LOG1 POP JUMP JUMPDEST PUSH0 DUP2 GT PUSH2 0x181E JUMPI DUP1 PUSH1 0x40 MLOAD PUSH32 0x2FF4783000000000000000000000000000000000000000000000000000000000 DUP2 MSTORE PUSH1 0x4 ADD PUSH2 0x1815 SWAP2 SWAP1 PUSH2 0x35E0 JUMP JUMPDEST PUSH1 0x40 MLOAD DUP1 SWAP2 SUB SWAP1 REVERT JUMPDEST PUSH1 0x11 PUSH0 CALLER PUSH20 0xFFFFFFFFFFFFFFFFFFFFFFFFFFFFFFFFFFFFFFFF AND PUSH20 0xFFFFFFFFFFFFFFFFFFFFFFFFFFFFFFFFFFFFFFFF AND DUP2 MSTORE PUSH1 0x20 ADD SWAP1 DUP2 MSTORE PUSH1 0x20 ADD PUSH0 KECCAK256 PUSH0 ADD PUSH0 SWAP1 SLOAD SWAP1 PUSH2 0x100 EXP SWAP1 DIV PUSH1 0xFF AND ISZERO PUSH2 0x18F7 JUMPI PUSH1 0x11 PUSH0 CALLER PUSH20 0xFFFFFFFFFFFFFFFFFFFFFFFFFFFFFFFFFFFFFFFF AND PUSH20 0xFFFFFFFFFFFFFFFFFFFFFFFFFFFFFFFFFFFFFFFF AND DUP2 MSTORE PUSH1 0x20 ADD SWAP1 DUP2 MSTORE PUSH1 0x20 ADD PUSH0 KECCAK256 PUSH0 ADD PUSH0 SWAP1 SLOAD SWAP1 PUSH2 0x100 EXP SWAP1 DIV PUSH1 0xFF AND PUSH1 0x40 MLOAD PUSH32 0x6FA5C3C000000000000000000000000000000000000000000000000000000000 DUP2 MSTORE PUSH1 0x4 ADD PUSH2 0x18EE SWAP2 SWAP1 PUSH2 0x3BF6 JUMP JUMPDEST PUSH1 0x40 MLOAD DUP1 SWAP2 SUB SWAP1 REVERT JUMPDEST PUSH1 0x11 PUSH0 CALLER PUSH20 0xFFFFFFFFFFFFFFFFFFFFFFFFFFFFFFFFFFFFFFFF AND PUSH20 0xFFFFFFFFFFFFFFFFFFFFFFFFFFFFFFFFFFFFFFFF AND DUP2 MSTORE PUSH1 0x20 ADD SWAP1 DUP2 MSTORE PUSH1 0x20 ADD PUSH0 KECCAK256 PUSH1 0x1 ADD SLOAD DUP2 GT ISZERO PUSH2 0x197A JUMPI PUSH1 0x40 MLOAD PUSH32 0x8C379A000000000000000000000000000000000000000000000000000000000 DUP2 MSTORE PUSH1 0x4 ADD PUSH2 0x1971 SWAP1 PUSH2 0x3F55 JUMP JUMPDEST PUSH1 0x40 MLOAD DUP1 SWAP2 SUB SWAP1 REVERT JUMPDEST DUP1 PUSH1 0x11 PUSH0 CALLER PUSH20 0xFFFFFFFFFFFFFFFFFFFFFFFFFFFFFFFFFFFFFFFF AND PUSH20 0xFFFFFFFFFFFFFFFFFFFFFFFFFFFFFFFFFFFFFFFF AND DUP2 MSTORE PUSH1 0x20 ADD SWAP1 DUP2 MSTORE PUSH1 0x20 ADD PUSH0 KECCAK256 PUSH1 0x1 ADD PUSH0 DUP3 DUP3 SLOAD PUSH2 0x19C9 SWAP2 SWAP1 PUSH2 0x3D47 JUMP JUMPDEST SWAP3 POP POP DUP2 SWAP1 SSTORE POP DUP1 PUSH1 0x11 PUSH0 CALLER PUSH20 0xFFFFFFFFFFFFFFFFFFFFFFFFFFFFFFFFFFFFFFFF AND PUSH20 0xFFFFFFFFFFFFFFFFFFFFFFFFFFFFFFFFFFFFFFFF AND DUP2 MSTORE PUSH1 0x20 ADD SWAP1 DUP2 MSTORE PUSH1 0x20 ADD PUSH0 KECCAK256 PUSH1 0x5 ADD PUSH0 DUP3 DUP3 SLOAD PUSH2 0x1A1F SWAP2 SWAP1 PUSH2 0x3E3D JUMP JUMPDEST SWAP3 POP POP DUP2 SWAP1 SSTORE POP DUP1 PUSH1 0x2 PUSH0 DUP3 DUP3 SLOAD PUSH2 0x1A37 SWAP2 SWAP1 PUSH2 0x3E3D JUMP JUMPDEST SWAP3 POP POP DUP2 SWAP1 SSTORE POP DUP1 PUSH1 0x3 PUSH0 DUP3 DUP3 SLOAD PUSH2 0x1A4F SWAP2 SWAP1 PUSH2 0x3E3D JUMP JUMPDEST SWAP3 POP POP DUP2 SWAP1 SSTORE POP PUSH32 0x14EE34C24635186D212F515353DADAE9C226529EDEF2D1FCF5504CB33B5C25AB CALLER ADDRESS DUP4 PUSH1 0x40 MLOAD PUSH2 0x1A89 SWAP4 SWAP3 SWAP2 SWAP1 PUSH2 0x3E70 JUMP JUMPDEST PUSH1 0x40 MLOAD DUP1 SWAP2 SUB SWAP1 LOG1 POP JUMP JUMPDEST PUSH0 DUP3 GT PUSH2 0x1AD8 JUMPI DUP2 PUSH1 0x40 MLOAD PUSH32 0x2FF4783000000000000000000000000000000000000000000000000000000000 DUP2 MSTORE PUSH1 0x4 ADD PUSH2 0x1ACF SWAP2 SWAP1 PUSH2 0x35E0 JUMP JUMPDEST PUSH1 0x40 MLOAD DUP1 SWAP2 SUB SWAP1 REVERT JUMPDEST PUSH1 0xD SLOAD DUP2 GT ISZERO PUSH2 0x1B1F JUMPI DUP1 PUSH1 0x40 MLOAD PUSH32 0x222A50F300000000000000000000000000000000000000000000000000000000 DUP2 MSTORE PUSH1 0x4 ADD PUSH2 0x1B16 SWAP2 SWAP1 PUSH2 0x35E0 JUMP JUMPDEST PUSH1 0x40 MLOAD DUP1 SWAP2 SUB SWAP1 REVERT JUMPDEST PUSH2 0x1B3A DUP3 PUSH1 0x10 PUSH0 DUP5 DUP2 MSTORE PUSH1 0x20 ADD SWAP1 DUP2 MSTORE PUSH1 0x20 ADD PUSH0 KECCAK256 SLOAD PUSH2 0x2E4A JUMP JUMPDEST PUSH0 PUSH0 PUSH0 SWAP1 SLOAD SWAP1 PUSH2 0x100 EXP SWAP1 DIV PUSH20 0xFFFFFFFFFFFFFFFFFFFFFFFFFFFFFFFFFFFFFFFF AND PUSH20 0xFFFFFFFFFFFFFFFFFFFFFFFFFFFFFFFFFFFFFFFF AND PUSH4 0x23B872DD CALLER ADDRESS DUP7 PUSH1 0x40 MLOAD DUP5 PUSH4 0xFFFFFFFF AND PUSH1 0xE0 SHL DUP2 MSTORE PUSH1 0x4 ADD PUSH2 0x1B98 SWAP4 SWAP3 SWAP2 SWAP1 PUSH2 0x3E70 JUMP JUMPDEST PUSH1 0x20 PUSH1 0x40 MLOAD DUP1 DUP4 SUB DUP2 PUSH0 DUP8 GAS CALL ISZERO DUP1 ISZERO PUSH2 0x1BB4 JUMPI RETURNDATASIZE PUSH0 PUSH0 RETURNDATACOPY RETURNDATASIZE PUSH0 REVERT JUMPDEST POP POP POP POP PUSH1 0x40 MLOAD RETURNDATASIZE PUSH1 0x1F NOT PUSH1 0x1F DUP3 ADD AND DUP3 ADD DUP1 PUSH1 0x40 MSTORE POP DUP2 ADD SWAP1 PUSH2 0x1BD8 SWAP2 SWAP1 PUSH2 0x3EB9 JUMP JUMPDEST SWAP1 POP DUP1 PUSH2 0x1C1C JUMPI DUP1 PUSH1 0x40 MLOAD PUSH32 0xD85D3CEF00000000000000000000000000000000000000000000000000000000 DUP2 MSTORE PUSH1 0x4 ADD PUSH2 0x1C13 SWAP2 SWAP1 PUSH2 0x3BF6 JUMP JUMPDEST PUSH1 0x40 MLOAD DUP1 SWAP2 SUB SWAP1 REVERT JUMPDEST PUSH32 0xA89B69C5958EC1CCF0DF0DE746A8708F5B6A6B429430129F16F46F44B319C900 DUP4 DUP4 PUSH1 0x40 MLOAD PUSH2 0x1C4D SWAP3 SWAP2 SWAP1 PUSH2 0x3F73 JUMP JUMPDEST PUSH1 0x40 MLOAD DUP1 SWAP2 SUB SWAP1 LOG1 POP POP POP JUMP JUMPDEST PUSH0 PUSH0 PUSH2 0x1C64 PUSH2 0x2EAC JUMP JUMPDEST SWAP1 POP DUP1 PUSH0 ADD PUSH0 SWAP1 SLOAD SWAP1 PUSH2 0x100 EXP SWAP1 DIV PUSH20 0xFFFFFFFFFFFFFFFFFFFFFFFFFFFFFFFFFFFFFFFF AND SWAP2 POP POP SWAP1 JUMP JUMPDEST PUSH1 0xA SLOAD DUP2 JUMP JUMPDEST PUSH1 0xD SLOAD DUP2 JUMP JUMPDEST PUSH1 0xF PUSH1 0x20 MSTORE DUP1 PUSH0 MSTORE PUSH1 0x40 PUSH0 KECCAK256 PUSH0 SWAP2 POP SLOAD SWAP1 PUSH2 0x100 EXP SWAP1 DIV PUSH20 0xFFFFFFFFFFFFFFFFFFFFFFFFFFFFFFFFFFFFFFFF AND DUP2 JUMP JUMPDEST PUSH1 0x40 MLOAD DUP1 PUSH1 0x40 ADD PUSH1 0x40 MSTORE DUP1 PUSH1 0x5 DUP2 MSTORE PUSH1 0x20 ADD PUSH32 0x352E302E30000000000000000000000000000000000000000000000000000000 DUP2 MSTORE POP DUP2 JUMP JUMPDEST PUSH2 0x1D0C PUSH2 0x2A5C JUMP JUMPDEST PUSH0 DUP2 GT PUSH2 0x1D50 JUMPI DUP1 PUSH1 0x40 MLOAD PUSH32 0xCDBC633500000000000000000000000000000000000000000000000000000000 DUP2 MSTORE PUSH1 0x4 ADD PUSH2 0x1D47 SWAP2 SWAP1 PUSH2 0x35E0 JUMP JUMPDEST PUSH1 0x40 MLOAD DUP1 SWAP2 SUB SWAP1 REVERT JUMPDEST DUP1 PUSH1 0x6 DUP2 SWAP1 SSTORE POP PUSH32 0xB5671393C7C6980552E50A31E778921EB17D764C2E98FBF4D44FFF524712DEF9 CALLER PUSH1 0x6 SLOAD PUSH1 0x40 MLOAD PUSH2 0x1D8A SWAP3 SWAP2 SWAP1 PUSH2 0x3EE4 JUMP JUMPDEST PUSH1 0x40 MLOAD DUP1 SWAP2 SUB SWAP1 LOG1 POP JUMP JUMPDEST PUSH1 0x2 SLOAD DUP2 JUMP JUMPDEST PUSH2 0x1DA3 PUSH2 0x2A5C JUMP JUMPDEST PUSH0 DUP2 GT PUSH2 0x1DE7 JUMPI DUP1 PUSH1 0x40 MLOAD PUSH32 0xCDBC633500000000000000000000000000000000000000000000000000000000 DUP2 MSTORE PUSH1 0x4 ADD PUSH2 0x1DDE SWAP2 SWAP1 PUSH2 0x35E0 JUMP JUMPDEST PUSH1 0x40 MLOAD DUP1 SWAP2 SUB SWAP1 REVERT JUMPDEST DUP1 PUSH1 0x5 DUP2 SWAP1 SSTORE POP PUSH32 0xB5671393C7C6980552E50A31E778921EB17D764C2E98FBF4D44FFF524712DEF9 CALLER PUSH1 0x5 SLOAD PUSH1 0x40 MLOAD PUSH2 0x1E21 SWAP3 SWAP2 SWAP1 PUSH2 0x3EE4 JUMP JUMPDEST PUSH1 0x40 MLOAD DUP1 SWAP2 SUB SWAP1 LOG1 POP JUMP JUMPDEST PUSH1 0x11 PUSH1 0x20 MSTORE DUP1 PUSH0 MSTORE PUSH1 0x40 PUSH0 KECCAK256 PUSH0 SWAP2 POP SWAP1 POP DUP1 PUSH0 ADD PUSH0 SWAP1 SLOAD SWAP1 PUSH2 0x100 EXP SWAP1 DIV PUSH1 0xFF AND SWAP1 DUP1 PUSH1 0x1 ADD SLOAD SWAP1 DUP1 PUSH1 0x2 ADD SLOAD SWAP1 DUP1 PUSH1 0x3 ADD SLOAD SWAP1 DUP1 PUSH1 0x4 ADD SLOAD SWAP1 DUP1 PUSH1 0x5 ADD SLOAD SWAP1 POP DUP7 JUMP JUMPDEST PUSH0 PUSH2 0x1E79 PUSH2 0x2ED3 JUMP JUMPDEST SWAP1 POP PUSH0 DUP2 PUSH0 ADD PUSH1 0x8 SWAP1 SLOAD SWAP1 PUSH2 0x100 EXP SWAP1 DIV PUSH1 0xFF AND ISZERO SWAP1 POP PUSH0 DUP3 PUSH0 ADD PUSH0 SWAP1 SLOAD SWAP1 PUSH2 0x100 EXP SWAP1 DIV PUSH8 0xFFFFFFFFFFFFFFFF AND SWAP1 POP PUSH0 PUSH0 DUP3 PUSH8 0xFFFFFFFFFFFFFFFF AND EQ DUP1 ISZERO PUSH2 0x1EC1 JUMPI POP DUP3 JUMPDEST SWAP1 POP PUSH0 PUSH1 0x1 DUP4 PUSH8 0xFFFFFFFFFFFFFFFF AND EQ DUP1 ISZERO PUSH2 0x1EF4 JUMPI POP PUSH0 ADDRESS PUSH20 0xFFFFFFFFFFFFFFFFFFFFFFFFFFFFFFFFFFFFFFFF AND EXTCODESIZE EQ JUMPDEST SWAP1 POP DUP2 ISZERO DUP1 ISZERO PUSH2 0x1F02 JUMPI POP DUP1 ISZERO JUMPDEST ISZERO PUSH2 0x1F39 JUMPI PUSH1 0x40 MLOAD PUSH32 0xF92EE8A900000000000000000000000000000000000000000000000000000000 DUP2 MSTORE PUSH1 0x4 ADD PUSH1 0x40 MLOAD DUP1 SWAP2 SUB SWAP1 REVERT JUMPDEST PUSH1 0x1 DUP6 PUSH0 ADD PUSH0 PUSH2 0x100 EXP DUP2 SLOAD DUP2 PUSH8 0xFFFFFFFFFFFFFFFF MUL NOT AND SWAP1 DUP4 PUSH8 0xFFFFFFFFFFFFFFFF AND MUL OR SWAP1 SSTORE POP DUP4 ISZERO PUSH2 0x1F86 JUMPI PUSH1 0x1 DUP6 PUSH0 ADD PUSH1 0x8 PUSH2 0x100 EXP DUP2 SLOAD DUP2 PUSH1 0xFF MUL NOT AND SWAP1 DUP4 ISZERO ISZERO MUL OR SWAP1 SSTORE POP JUMPDEST PUSH2 0x1F8F DUP9 PUSH2 0x2EFA JUMP JUMPDEST PUSH2 0x1F97 PUSH2 0x2F0E JUMP JUMPDEST DUP7 PUSH0 PUSH0 PUSH2 0x100 EXP DUP2 SLOAD DUP2 PUSH20 0xFFFFFFFFFFFFFFFFFFFFFFFFFFFFFFFFFFFFFFFF MUL NOT AND SWAP1 DUP4 PUSH20 0xFFFFFFFFFFFFFFFFFFFFFFFFFFFFFFFFFFFFFFFF AND MUL OR SWAP1 SSTORE POP PUSH2 0x13EC PUSH1 0x10 PUSH0 PUSH0 DUP2 MSTORE PUSH1 0x20 ADD SWAP1 DUP2 MSTORE PUSH1 0x20 ADD PUSH0 KECCAK256 DUP2 SWAP1 SSTORE POP PUSH2 0x1D4C PUSH1 0x10 PUSH0 PUSH1 0x1 DUP2 MSTORE PUSH1 0x20 ADD SWAP1 DUP2 MSTORE PUSH1 0x20 ADD PUSH0 KECCAK256 DUP2 SWAP1 SSTORE POP PUSH2 0xDAC PUSH1 0x10 PUSH0 PUSH1 0x2 DUP2 MSTORE PUSH1 0x20 ADD SWAP1 DUP2 MSTORE PUSH1 0x20 ADD PUSH0 KECCAK256 DUP2 SWAP1 SSTORE POP PUSH2 0x1E14 PUSH1 0x10 PUSH0 PUSH1 0x3 DUP2 MSTORE PUSH1 0x20 ADD SWAP1 DUP2 MSTORE PUSH1 0x20 ADD PUSH0 KECCAK256 DUP2 SWAP1 SSTORE POP PUSH2 0x1388 PUSH1 0x4 DUP2 SWAP1 SSTORE POP PUSH2 0x1D4C PUSH1 0x5 DUP2 SWAP1 SSTORE POP PUSH2 0x5DC PUSH1 0x6 DUP2 SWAP1 SSTORE POP PUSH2 0x3E8 PUSH1 0x7 DUP2 SWAP1 SSTORE POP PUSH1 0x4 PUSH1 0xD DUP2 SWAP1 SSTORE POP DUP6 PUSH1 0x9 PUSH0 PUSH2 0x100 EXP DUP2 SLOAD DUP2 PUSH20 0xFFFFFFFFFFFFFFFFFFFFFFFFFFFFFFFFFFFFFFFF MUL NOT AND SWAP1 DUP4 PUSH20 0xFFFFFFFFFFFFFFFFFFFFFFFFFFFFFFFFFFFFFFFF AND MUL OR SWAP1 SSTORE POP DUP4 ISZERO PUSH2 0x20FF JUMPI PUSH0 DUP6 PUSH0 ADD PUSH1 0x8 PUSH2 0x100 EXP DUP2 SLOAD DUP2 PUSH1 0xFF MUL NOT AND SWAP1 DUP4 ISZERO ISZERO MUL OR SWAP1 SSTORE POP PUSH32 0xC7F505B2F371AE2175EE4913F4499E1F2633A7B5936321EED1CDAEB6115181D2 PUSH1 0x1 PUSH1 0x40 MLOAD PUSH2 0x20F6 SWAP2 SWAP1 PUSH2 0x3FE6 JUMP JUMPDEST PUSH1 0x40 MLOAD DUP1 SWAP2 SUB SWAP1 LOG1 JUMPDEST POP POP POP POP POP POP POP POP JUMP JUMPDEST PUSH1 0xE PUSH1 0x20 MSTORE DUP1 PUSH0 MSTORE PUSH1 0x40 PUSH0 KECCAK256 PUSH0 SWAP2 POP SLOAD SWAP1 PUSH2 0x100 EXP SWAP1 DIV PUSH1 0xFF AND DUP2 JUMP JUMPDEST PUSH1 0x6 SLOAD DUP2 JUMP JUMPDEST PUSH2 0x2134 PUSH2 0x2A5C JUMP JUMPDEST PUSH0 PUSH20 0xFFFFFFFFFFFFFFFFFFFFFFFFFFFFFFFFFFFFFFFF AND DUP2 PUSH20 0xFFFFFFFFFFFFFFFFFFFFFFFFFFFFFFFFFFFFFFFF AND SUB PUSH2 0x21A4 JUMPI DUP1 PUSH1 0x40 MLOAD PUSH32 0xE4CFA94D00000000000000000000000000000000000000000000000000000000 DUP2 MSTORE PUSH1 0x4 ADD PUSH2 0x219B SWAP2 SWAP1 PUSH2 0x3712 JUMP JUMPDEST PUSH1 0x40 MLOAD DUP1 SWAP2 SUB SWAP1 REVERT JUMPDEST DUP1 PUSH1 0xC PUSH0 PUSH2 0x100 EXP DUP2 SLOAD DUP2 PUSH20 0xFFFFFFFFFFFFFFFFFFFFFFFFFFFFFFFFFFFFFFFF MUL NOT AND SWAP1 DUP4 PUSH20 0xFFFFFFFFFFFFFFFFFFFFFFFFFFFFFFFFFFFFFFFF AND MUL OR SWAP1 SSTORE POP PUSH32 0x75F91F3CECB8C46F20150F60F77A6E1F0DE00776627692DB82EF1960AF84C33A CALLER PUSH1 0xC PUSH0 SWAP1 SLOAD SWAP1 PUSH2 0x100 EXP SWAP1 DIV PUSH20 0xFFFFFFFFFFFFFFFFFFFFFFFFFFFFFFFFFFFFFFFF AND PUSH1 0x40 MLOAD PUSH2 0x2236 SWAP3 SWAP2 SWAP1 PUSH2 0x3FFF JUMP JUMPDEST PUSH1 0x40 MLOAD DUP1 SWAP2 SUB SWAP1 LOG1 POP JUMP JUMPDEST PUSH2 0x2249 PUSH2 0x2A5C JUMP JUMPDEST PUSH0 PUSH20 0xFFFFFFFFFFFFFFFFFFFFFFFFFFFFFFFFFFFFFFFF AND DUP3 PUSH20 0xFFFFFFFFFFFFFFFFFFFFFFFFFFFFFFFFFFFFFFFF AND SUB PUSH2 0x22B9 JUMPI DUP2 PUSH1 0x40 MLOAD PUSH32 0xE4CFA94D00000000000000000000000000000000000000000000000000000000 DUP2 MSTORE PUSH1 0x4 ADD PUSH2 0x22B0 SWAP2 SWAP1 PUSH2 0x3712 JUMP JUMPDEST PUSH1 0x40 MLOAD DUP1 SWAP2 SUB SWAP1 REVERT JUMPDEST PUSH1 0x1 ISZERO ISZERO DUP2 ISZERO ISZERO EQ ISZERO DUP1 ISZERO PUSH2 0x22D2 JUMPI POP PUSH0 ISZERO ISZERO DUP2 ISZERO ISZERO EQ ISZERO JUMPDEST ISZERO PUSH2 0x2314 JUMPI DUP1 PUSH1 0x40 MLOAD PUSH32 0x81ED1AE300000000000000000000000000000000000000000000000000000000 DUP2 MSTORE PUSH1 0x4 ADD PUSH2 0x230B SWAP2 SWAP1 PUSH2 0x3BF6 JUMP JUMPDEST PUSH1 0x40 MLOAD DUP1 SWAP2 SUB SWAP1 REVERT JUMPDEST PUSH1 0x1 ISZERO ISZERO DUP2 ISZERO ISZERO SUB PUSH2 0x237C JUMPI PUSH1 0x1 PUSH1 0x11 PUSH0 DUP5 PUSH20 0xFFFFFFFFFFFFFFFFFFFFFFFFFFFFFFFFFFFFFFFF AND PUSH20 0xFFFFFFFFFFFFFFFFFFFFFFFFFFFFFFFFFFFFFFFF AND DUP2 MSTORE PUSH1 0x20 ADD SWAP1 DUP2 MSTORE PUSH1 0x20 ADD PUSH0 KECCAK256 PUSH0 ADD PUSH0 PUSH2 0x100 EXP DUP2 SLOAD DUP2 PUSH1 0xFF MUL NOT AND SWAP1 DUP4 ISZERO ISZERO MUL OR SWAP1 SSTORE POP PUSH2 0x23D3 JUMP JUMPDEST PUSH0 PUSH1 0x11 PUSH0 DUP5 PUSH20 0xFFFFFFFFFFFFFFFFFFFFFFFFFFFFFFFFFFFFFFFF AND PUSH20 0xFFFFFFFFFFFFFFFFFFFFFFFFFFFFFFFFFFFFFFFF AND DUP2 MSTORE PUSH1 0x20 ADD SWAP1 DUP2 MSTORE PUSH1 0x20 ADD PUSH0 KECCAK256 PUSH0 ADD PUSH0 PUSH2 0x100 EXP DUP2 SLOAD DUP2 PUSH1 0xFF MUL NOT AND SWAP1 DUP4 ISZERO ISZERO MUL OR SWAP1 SSTORE POP JUMPDEST PUSH32 0x7A1655BC3160D3413BF1D5235E55BE12E01B7E8BC2436A9BFF09C3B4FA2421F1 CALLER DUP4 PUSH1 0x11 PUSH0 DUP7 PUSH20 0xFFFFFFFFFFFFFFFFFFFFFFFFFFFFFFFFFFFFFFFF AND PUSH20 0xFFFFFFFFFFFFFFFFFFFFFFFFFFFFFFFFFFFFFFFF AND DUP2 MSTORE PUSH1 0x20 ADD SWAP1 DUP2 MSTORE PUSH1 0x20 ADD PUSH0 KECCAK256 PUSH0 ADD PUSH0 SWAP1 SLOAD SWAP1 PUSH2 0x100 EXP SWAP1 DIV PUSH1 0xFF AND PUSH1 0x40 MLOAD PUSH2 0x2451 SWAP4 SWAP3 SWAP2 SWAP1 PUSH2 0x4026 JUMP JUMPDEST PUSH1 0x40 MLOAD DUP1 SWAP2 SUB SWAP1 LOG1 POP POP JUMP JUMPDEST PUSH2 0x2465 PUSH2 0x1C5A JUMP JUMPDEST PUSH20 0xFFFFFFFFFFFFFFFFFFFFFFFFFFFFFFFFFFFFFFFF AND CALLER PUSH20 0xFFFFFFFFFFFFFFFFFFFFFFFFFFFFFFFFFFFFFFFF AND EQ ISZERO DUP1 ISZERO PUSH2 0x24ED JUMPI POP PUSH1 0xC PUSH0 SWAP1 SLOAD SWAP1 PUSH2 0x100 EXP SWAP1 DIV PUSH20 0xFFFFFFFFFFFFFFFFFFFFFFFFFFFFFFFFFFFFFFFF AND PUSH20 0xFFFFFFFFFFFFFFFFFFFFFFFFFFFFFFFFFFFFFFFF AND CALLER PUSH20 0xFFFFFFFFFFFFFFFFFFFFFFFFFFFFFFFFFFFFFFFF AND EQ ISZERO JUMPDEST ISZERO PUSH2 0x252F JUMPI CALLER PUSH1 0x40 MLOAD PUSH32 0xF6B79C5800000000000000000000000000000000000000000000000000000000 DUP2 MSTORE PUSH1 0x4 ADD PUSH2 0x2526 SWAP2 SWAP1 PUSH2 0x3712 JUMP JUMPDEST PUSH1 0x40 MLOAD DUP1 SWAP2 SUB SWAP1 REVERT JUMPDEST PUSH0 PUSH0 PUSH0 PUSH2 0x253A PUSH2 0x2F18 JUMP JUMPDEST SWAP3 POP SWAP3 POP SWAP3 POP PUSH0 PUSH1 0x2 SLOAD GT DUP1 ISZERO PUSH2 0x2552 JUMPI POP PUSH0 PUSH1 0x1 SLOAD GT JUMPDEST PUSH2 0x2591 JUMPI PUSH1 0x40 MLOAD PUSH32 0x8C379A000000000000000000000000000000000000000000000000000000000 DUP2 MSTORE PUSH1 0x4 ADD PUSH2 0x2588 SWAP1 PUSH2 0x40A5 JUMP JUMPDEST PUSH1 0x40 MLOAD DUP1 SWAP2 SUB SWAP1 REVERT JUMPDEST PUSH0 PUSH0 PUSH0 SWAP1 POP JUMPDEST PUSH1 0x8 SLOAD DUP2 LT ISZERO PUSH2 0x28CD JUMPI PUSH1 0x11 PUSH0 PUSH1 0xF PUSH0 DUP5 DUP2 MSTORE PUSH1 0x20 ADD SWAP1 DUP2 MSTORE PUSH1 0x20 ADD PUSH0 KECCAK256 PUSH0 SWAP1 SLOAD SWAP1 PUSH2 0x100 EXP SWAP1 DIV PUSH20 0xFFFFFFFFFFFFFFFFFFFFFFFFFFFFFFFFFFFFFFFF AND PUSH20 0xFFFFFFFFFFFFFFFFFFFFFFFFFFFFFFFFFFFFFFFF AND PUSH20 0xFFFFFFFFFFFFFFFFFFFFFFFFFFFFFFFFFFFFFFFF AND DUP2 MSTORE PUSH1 0x20 ADD SWAP1 DUP2 MSTORE PUSH1 0x20 ADD PUSH0 KECCAK256 PUSH0 ADD PUSH0 SWAP1 SLOAD SWAP1 PUSH2 0x100 EXP SWAP1 DIV PUSH1 0xFF AND PUSH2 0x28C0 JUMPI PUSH0 PUSH1 0x3 SLOAD PUSH2 0x2710 PUSH1 0x11 PUSH0 PUSH1 0xF PUSH0 DUP8 DUP2 MSTORE PUSH1 0x20 ADD SWAP1 DUP2 MSTORE PUSH1 0x20 ADD PUSH0 KECCAK256 PUSH0 SWAP1 SLOAD SWAP1 PUSH2 0x100 EXP SWAP1 DIV PUSH20 0xFFFFFFFFFFFFFFFFFFFFFFFFFFFFFFFFFFFFFFFF AND PUSH20 0xFFFFFFFFFFFFFFFFFFFFFFFFFFFFFFFFFFFFFFFF AND PUSH20 0xFFFFFFFFFFFFFFFFFFFFFFFFFFFFFFFFFFFFFFFF AND DUP2 MSTORE PUSH1 0x20 ADD SWAP1 DUP2 MSTORE PUSH1 0x20 ADD PUSH0 KECCAK256 PUSH1 0x5 ADD SLOAD PUSH2 0x26A3 SWAP2 SWAP1 PUSH2 0x40C3 JUMP JUMPDEST PUSH2 0x26AD SWAP2 SWAP1 PUSH2 0x4131 JUMP JUMPDEST SWAP1 POP PUSH0 PUSH2 0x26BA DUP7 DUP4 PUSH2 0x3110 JUMP JUMPDEST SWAP1 POP DUP1 PUSH1 0x2 PUSH0 DUP3 DUP3 SLOAD PUSH2 0x26CD SWAP2 SWAP1 PUSH2 0x3D47 JUMP JUMPDEST SWAP3 POP POP DUP2 SWAP1 SSTORE POP DUP1 DUP5 PUSH2 0x26E0 SWAP2 SWAP1 PUSH2 0x3E3D JUMP JUMPDEST SWAP4 POP DUP5 PUSH1 0x1 PUSH0 DUP3 DUP3 SLOAD PUSH2 0x26F3 SWAP2 SWAP1 PUSH2 0x3D47 JUMP JUMPDEST SWAP3 POP POP DUP2 SWAP1 SSTORE POP DUP5 PUSH1 0x11 PUSH0 PUSH1 0xF PUSH0 DUP8 DUP2 MSTORE PUSH1 0x20 ADD SWAP1 DUP2 MSTORE PUSH1 0x20 ADD PUSH0 KECCAK256 PUSH0 SWAP1 SLOAD SWAP1 PUSH2 0x100 EXP SWAP1 DIV PUSH20 0xFFFFFFFFFFFFFFFFFFFFFFFFFFFFFFFFFFFFFFFF AND PUSH20 0xFFFFFFFFFFFFFFFFFFFFFFFFFFFFFFFFFFFFFFFF AND PUSH20 0xFFFFFFFFFFFFFFFFFFFFFFFFFFFFFFFFFFFFFFFF AND DUP2 MSTORE PUSH1 0x20 ADD SWAP1 DUP2 MSTORE PUSH1 0x20 ADD PUSH0 KECCAK256 PUSH1 0x3 ADD DUP2 SWAP1 SSTORE POP DUP1 PUSH1 0x11 PUSH0 PUSH1 0xF PUSH0 DUP8 DUP2 MSTORE PUSH1 0x20 ADD SWAP1 DUP2 MSTORE PUSH1 0x20 ADD PUSH0 KECCAK256 PUSH0 SWAP1 SLOAD SWAP1 PUSH2 0x100 EXP SWAP1 DIV PUSH20 0xFFFFFFFFFFFFFFFFFFFFFFFFFFFFFFFFFFFFFFFF AND PUSH20 0xFFFFFFFFFFFFFFFFFFFFFFFFFFFFFFFFFFFFFFFF AND PUSH20 0xFFFFFFFFFFFFFFFFFFFFFFFFFFFFFFFFFFFFFFFF AND DUP2 MSTORE PUSH1 0x20 ADD SWAP1 DUP2 MSTORE PUSH1 0x20 ADD PUSH0 KECCAK256 PUSH1 0x4 ADD DUP2 SWAP1 SSTORE POP PUSH0 DUP6 DUP3 PUSH2 0x27F1 SWAP2 SWAP1 PUSH2 0x3E3D JUMP JUMPDEST SWAP1 POP DUP1 PUSH1 0x11 PUSH0 PUSH1 0xF PUSH0 DUP9 DUP2 MSTORE PUSH1 0x20 ADD SWAP1 DUP2 MSTORE PUSH1 0x20 ADD PUSH0 KECCAK256 PUSH0 SWAP1 SLOAD SWAP1 PUSH2 0x100 EXP SWAP1 DIV PUSH20 0xFFFFFFFFFFFFFFFFFFFFFFFFFFFFFFFFFFFFFFFF AND PUSH20 0xFFFFFFFFFFFFFFFFFFFFFFFFFFFFFFFFFFFFFFFF AND PUSH20 0xFFFFFFFFFFFFFFFFFFFFFFFFFFFFFFFFFFFFFFFF AND DUP2 MSTORE PUSH1 0x20 ADD SWAP1 DUP2 MSTORE PUSH1 0x20 ADD PUSH0 KECCAK256 PUSH1 0x1 ADD PUSH0 DUP3 DUP3 SLOAD PUSH2 0x2872 SWAP2 SWAP1 PUSH2 0x3E3D JUMP JUMPDEST SWAP3 POP POP DUP2 SWAP1 SSTORE POP DUP8 DUP6 GT ISZERO PUSH2 0x28BC JUMPI PUSH1 0x40 MLOAD PUSH32 0x8C379A000000000000000000000000000000000000000000000000000000000 DUP2 MSTORE PUSH1 0x4 ADD PUSH2 0x28B3 SWAP1 PUSH2 0x41AB JUMP JUMPDEST PUSH1 0x40 MLOAD DUP1 SWAP2 SUB SWAP1 REVERT JUMPDEST POP POP POP JUMPDEST DUP1 DUP1 PUSH1 0x1 ADD SWAP2 POP POP PUSH2 0x2597 JUMP JUMPDEST POP PUSH32 0xEE826440768329B0C72F81331212EE31FCDAC1EA79A248D24821E40C34E58020 CALLER PUSH1 0x2 SLOAD PUSH1 0x1 SLOAD PUSH1 0x40 MLOAD PUSH2 0x2905 SWAP4 SWAP3 SWAP2 SWAP1 PUSH2 0x3C77 JUMP JUMPDEST PUSH1 0x40 MLOAD DUP1 SWAP2 SUB SWAP1 LOG1 POP POP POP POP JUMP JUMPDEST PUSH2 0x291B PUSH2 0x2A5C JUMP JUMPDEST PUSH0 DUP2 GT PUSH2 0x295F JUMPI DUP1 PUSH1 0x40 MLOAD PUSH32 0xCDBC633500000000000000000000000000000000000000000000000000000000 DUP2 MSTORE PUSH1 0x4 ADD PUSH2 0x2956 SWAP2 SWAP1 PUSH2 0x35E0 JUMP JUMPDEST PUSH1 0x40 MLOAD DUP1 SWAP2 SUB SWAP1 REVERT JUMPDEST DUP1 PUSH1 0x10 PUSH0 DUP5 DUP2 MSTORE PUSH1 0x20 ADD SWAP1 DUP2 MSTORE PUSH1 0x20 ADD PUSH0 KECCAK256 DUP2 SWAP1 SSTORE POP PUSH32 0xB5671393C7C6980552E50A31E778921EB17D764C2E98FBF4D44FFF524712DEF9 CALLER PUSH1 0x10 PUSH0 DUP6 DUP2 MSTORE PUSH1 0x20 ADD SWAP1 DUP2 MSTORE PUSH1 0x20 ADD PUSH0 KECCAK256 SLOAD PUSH1 0x40 MLOAD PUSH2 0x29B7 SWAP3 SWAP2 SWAP1 PUSH2 0x3EE4 JUMP JUMPDEST PUSH1 0x40 MLOAD DUP1 SWAP2 SUB SWAP1 LOG1 POP POP JUMP JUMPDEST PUSH2 0x29CB PUSH2 0x2A5C JUMP JUMPDEST PUSH0 PUSH20 0xFFFFFFFFFFFFFFFFFFFFFFFFFFFFFFFFFFFFFFFF AND DUP2 PUSH20 0xFFFFFFFFFFFFFFFFFFFFFFFFFFFFFFFFFFFFFFFF AND SUB PUSH2 0x2A3B JUMPI PUSH0 PUSH1 0x40 MLOAD PUSH32 0x1E4FBDF700000000000000000000000000000000000000000000000000000000 DUP2 MSTORE PUSH1 0x4 ADD PUSH2 0x2A32 SWAP2 SWAP1 PUSH2 0x3712 JUMP JUMPDEST PUSH1 0x40 MLOAD DUP1 SWAP2 SUB SWAP1 REVERT JUMPDEST PUSH2 0x2A44 DUP2 PUSH2 0x2D79 JUMP JUMPDEST POP JUMP JUMPDEST PUSH1 0x10 PUSH1 0x20 MSTORE DUP1 PUSH0 MSTORE PUSH1 0x40 PUSH0 KECCAK256 PUSH0 SWAP2 POP SWAP1 POP SLOAD DUP2 JUMP JUMPDEST PUSH2 0x2A64 PUSH2 0x31BB JUMP JUMPDEST PUSH20 0xFFFFFFFFFFFFFFFFFFFFFFFFFFFFFFFFFFFFFFFF AND PUSH2 0x2A82 PUSH2 0x1C5A JUMP JUMPDEST PUSH20 0xFFFFFFFFFFFFFFFFFFFFFFFFFFFFFFFFFFFFFFFF AND EQ PUSH2 0x2AE1 JUMPI PUSH2 0x2AA5 PUSH2 0x31BB JUMP JUMPDEST PUSH1 0x40 MLOAD PUSH32 0x118CDAA700000000000000000000000000000000000000000000000000000000 DUP2 MSTORE PUSH1 0x4 ADD PUSH2 0x2AD8 SWAP2 SWAP1 PUSH2 0x3712 JUMP JUMPDEST PUSH1 0x40 MLOAD DUP1 SWAP2 SUB SWAP1 REVERT JUMPDEST JUMP JUMPDEST PUSH32 0x0 PUSH20 0xFFFFFFFFFFFFFFFFFFFFFFFFFFFFFFFFFFFFFFFF AND ADDRESS PUSH20 0xFFFFFFFFFFFFFFFFFFFFFFFFFFFFFFFFFFFFFFFF AND EQ DUP1 PUSH2 0x2B90 JUMPI POP PUSH32 0x0 PUSH20 0xFFFFFFFFFFFFFFFFFFFFFFFFFFFFFFFFFFFFFFFF AND PUSH2 0x2B77 PUSH2 0x31C2 JUMP JUMPDEST PUSH20 0xFFFFFFFFFFFFFFFFFFFFFFFFFFFFFFFFFFFFFFFF AND EQ ISZERO JUMPDEST ISZERO PUSH2 0x2BC7 JUMPI PUSH1 0x40 MLOAD PUSH32 0xE07C8DBA00000000000000000000000000000000000000000000000000000000 DUP2 MSTORE PUSH1 0x4 ADD PUSH1 0x40 MLOAD DUP1 SWAP2 SUB SWAP1 REVERT JUMPDEST JUMP JUMPDEST PUSH2 0x2BD1 PUSH2 0x2A5C JUMP JUMPDEST POP JUMP JUMPDEST DUP2 PUSH20 0xFFFFFFFFFFFFFFFFFFFFFFFFFFFFFFFFFFFFFFFF AND PUSH4 0x52D1902D PUSH1 0x40 MLOAD DUP2 PUSH4 0xFFFFFFFF AND PUSH1 0xE0 SHL DUP2 MSTORE PUSH1 0x4 ADD PUSH1 0x20 PUSH1 0x40 MLOAD DUP1 DUP4 SUB DUP2 DUP7 GAS STATICCALL SWAP3 POP POP POP DUP1 ISZERO PUSH2 0x2C3C JUMPI POP PUSH1 0x40 MLOAD RETURNDATASIZE PUSH1 0x1F NOT PUSH1 0x1F DUP3 ADD AND DUP3 ADD DUP1 PUSH1 0x40 MSTORE POP DUP2 ADD SWAP1 PUSH2 0x2C39 SWAP2 SWAP1 PUSH2 0x41F3 JUMP JUMPDEST PUSH1 0x1 JUMPDEST PUSH2 0x2C7D JUMPI DUP2 PUSH1 0x40 MLOAD PUSH32 0x4C9C8CE300000000000000000000000000000000000000000000000000000000 DUP2 MSTORE PUSH1 0x4 ADD PUSH2 0x2C74 SWAP2 SWAP1 PUSH2 0x3712 JUMP JUMPDEST PUSH1 0x40 MLOAD DUP1 SWAP2 SUB SWAP1 REVERT JUMPDEST PUSH32 0x360894A13BA1A3210667C828492DB98DCA3E2076CC3735A920A3CA505D382BBC PUSH0 SHL DUP2 EQ PUSH2 0x2CE3 JUMPI DUP1 PUSH1 0x40 MLOAD PUSH32 0xAA1D49A400000000000000000000000000000000000000000000000000000000 DUP2 MSTORE PUSH1 0x4 ADD PUSH2 0x2CDA SWAP2 SWAP1 PUSH2 0x39AB JUMP JUMPDEST PUSH1 0x40 MLOAD DUP1 SWAP2 SUB SWAP1 REVERT JUMPDEST PUSH2 0x2CED DUP4 DUP4 PUSH2 0x3215 JUMP JUMPDEST POP POP POP JUMP JUMPDEST PUSH32 0x0 PUSH20 0xFFFFFFFFFFFFFFFFFFFFFFFFFFFFFFFFFFFFFFFF AND ADDRESS PUSH20 0xFFFFFFFFFFFFFFFFFFFFFFFFFFFFFFFFFFFFFFFF AND EQ PUSH2 0x2D77 JUMPI PUSH1 0x40 MLOAD PUSH32 0xE07C8DBA00000000000000000000000000000000000000000000000000000000 DUP2 MSTORE PUSH1 0x4 ADD PUSH1 0x40 MLOAD DUP1 SWAP2 SUB SWAP1 REVERT JUMPDEST JUMP JUMPDEST PUSH0 PUSH2 0x2D82 PUSH2 0x2EAC JUMP JUMPDEST SWAP1 POP PUSH0 DUP2 PUSH0 ADD PUSH0 SWAP1 SLOAD SWAP1 PUSH2 0x100 EXP SWAP1 DIV PUSH20 0xFFFFFFFFFFFFFFFFFFFFFFFFFFFFFFFFFFFFFFFF AND SWAP1 POP DUP3 DUP3 PUSH0 ADD PUSH0 PUSH2 0x100 EXP DUP2 SLOAD DUP2 PUSH20 0xFFFFFFFFFFFFFFFFFFFFFFFFFFFFFFFFFFFFFFFF MUL NOT AND SWAP1 DUP4 PUSH20 0xFFFFFFFFFFFFFFFFFFFFFFFFFFFFFFFFFFFFFFFF AND MUL OR SWAP1 SSTORE POP DUP3 PUSH20 0xFFFFFFFFFFFFFFFFFFFFFFFFFFFFFFFFFFFFFFFF AND DUP2 PUSH20 0xFFFFFFFFFFFFFFFFFFFFFFFFFFFFFFFFFFFFFFFF AND PUSH32 0x8BE0079C531659141344CD1FD0A4F28419497F9722A3DAAFE3B4186F6B6457E0 PUSH1 0x40 MLOAD PUSH1 0x40 MLOAD DUP1 SWAP2 SUB SWAP1 LOG3 POP POP POP JUMP JUMPDEST PUSH0 DUP2 PUSH2 0x2710 PUSH2 0x2E59 SWAP2 SWAP1 PUSH2 0x3D47 JUMP JUMPDEST SWAP1 POP PUSH0 PUSH2 0x2E66 DUP5 DUP4 PUSH2 0x3110 JUMP JUMPDEST SWAP1 POP PUSH0 PUSH2 0x2E73 DUP6 DUP6 PUSH2 0x3110 JUMP JUMPDEST SWAP1 POP DUP2 PUSH1 0x2 PUSH0 DUP3 DUP3 SLOAD PUSH2 0x2E86 SWAP2 SWAP1 PUSH2 0x3E3D JUMP JUMPDEST SWAP3 POP POP DUP2 SWAP1 SSTORE POP DUP1 PUSH1 0x1 PUSH0 DUP3 DUP3 SLOAD PUSH2 0x2E9E SWAP2 SWAP1 PUSH2 0x3E3D JUMP JUMPDEST SWAP3 POP POP DUP2 SWAP1 SSTORE POP POP POP POP POP POP JUMP JUMPDEST PUSH0 PUSH32 0x9016D09D72D40FDAE2FD8CEAC6B6234C7706214FD39C1CD1E609A0528C199300 SWAP1 POP SWAP1 JUMP JUMPDEST PUSH0 PUSH32 0xF0C57E16840DF040F15088DC2F81FE391C3923BEC73E23A9662EFC9C229C6A00 SWAP1 POP SWAP1 JUMP JUMPDEST PUSH2 0x2F02 PUSH2 0x3287 JUMP JUMPDEST PUSH2 0x2F0B DUP2 PUSH2 0x32C7 JUMP JUMPDEST POP JUMP JUMPDEST PUSH2 0x2F16 PUSH2 0x3287 JUMP JUMPDEST JUMP JUMPDEST PUSH0 PUSH0 PUSH0 PUSH0 PUSH2 0x2F2A PUSH1 0x2 SLOAD PUSH2 0x1388 PUSH2 0x3110 JUMP JUMPDEST SWAP1 POP PUSH0 PUSH2 0x2F39 DUP3 PUSH1 0x5 SLOAD PUSH2 0x3110 JUMP JUMPDEST SWAP1 POP PUSH0 PUSH2 0x2F48 DUP4 PUSH1 0x6 SLOAD PUSH2 0x3110 JUMP JUMPDEST SWAP1 POP PUSH0 PUSH2 0x2F57 DUP5 PUSH1 0x7 SLOAD PUSH2 0x3110 JUMP JUMPDEST SWAP1 POP PUSH0 PUSH2 0x2F68 PUSH1 0x1 SLOAD PUSH1 0x4 SLOAD PUSH2 0x3110 JUMP JUMPDEST SWAP1 POP PUSH0 PUSH1 0x8 SLOAD GT PUSH2 0x2FAE JUMPI PUSH1 0x40 MLOAD PUSH32 0x8C379A000000000000000000000000000000000000000000000000000000000 DUP2 MSTORE PUSH1 0x4 ADD PUSH2 0x2FA5 SWAP1 PUSH2 0x4268 JUMP JUMPDEST PUSH1 0x40 MLOAD DUP1 SWAP2 SUB SWAP1 REVERT JUMPDEST PUSH0 PUSH1 0x8 SLOAD DUP3 PUSH2 0x2FBD SWAP2 SWAP1 PUSH2 0x4131 JUMP JUMPDEST SWAP1 POP DUP3 DUP5 PUSH2 0x2FCB SWAP2 SWAP1 PUSH2 0x3E3D JUMP JUMPDEST PUSH1 0x2 PUSH0 DUP3 DUP3 SLOAD PUSH2 0x2FDB SWAP2 SWAP1 PUSH2 0x3D47 JUMP JUMPDEST SWAP3 POP POP DUP2 SWAP1 SSTORE POP DUP4 PUSH1 0x1 PUSH0 DUP3 DUP3 SLOAD PUSH2 0x2FF3 SWAP2 SWAP1 PUSH2 0x3E3D JUMP JUMPDEST SWAP3 POP POP DUP2 SWAP1 SSTORE POP PUSH0 PUSH0 PUSH0 SWAP1 SLOAD SWAP1 PUSH2 0x100 EXP SWAP1 DIV PUSH20 0xFFFFFFFFFFFFFFFFFFFFFFFFFFFFFFFFFFFFFFFF AND PUSH20 0xFFFFFFFFFFFFFFFFFFFFFFFFFFFFFFFFFFFFFFFF AND PUSH4 0xA9059CBB PUSH1 0x9 PUSH0 SWAP1 SLOAD SWAP1 PUSH2 0x100 EXP SWAP1 DIV PUSH20 0xFFFFFFFFFFFFFFFFFFFFFFFFFFFFFFFFFFFFFFFF AND DUP7 PUSH1 0x40 MLOAD DUP4 PUSH4 0xFFFFFFFF AND PUSH1 0xE0 SHL DUP2 MSTORE PUSH1 0x4 ADD PUSH2 0x3077 SWAP3 SWAP2 SWAP1 PUSH2 0x3EE4 JUMP JUMPDEST PUSH1 0x20 PUSH1 0x40 MLOAD DUP1 DUP4 SUB DUP2 PUSH0 DUP8 GAS CALL ISZERO DUP1 ISZERO PUSH2 0x3093 JUMPI RETURNDATASIZE PUSH0 PUSH0 RETURNDATACOPY RETURNDATASIZE PUSH0 REVERT JUMPDEST POP POP POP POP PUSH1 0x40 MLOAD RETURNDATASIZE PUSH1 0x1F NOT PUSH1 0x1F DUP3 ADD AND DUP3 ADD DUP1 PUSH1 0x40 MSTORE POP DUP2 ADD SWAP1 PUSH2 0x30B7 SWAP2 SWAP1 PUSH2 0x3EB9 JUMP JUMPDEST SWAP1 POP DUP1 PUSH2 0x30FB JUMPI DUP1 PUSH1 0x40 MLOAD PUSH32 0xD85D3CEF00000000000000000000000000000000000000000000000000000000 DUP2 MSTORE PUSH1 0x4 ADD PUSH2 0x30F2 SWAP2 SWAP1 PUSH2 0x3BF6 JUMP JUMPDEST PUSH1 0x40 MLOAD DUP1 SWAP2 SUB SWAP1 REVERT JUMPDEST DUP7 DUP7 DUP4 SWAP10 POP SWAP10 POP SWAP10 POP POP POP POP POP POP POP POP SWAP1 SWAP2 SWAP3 JUMP JUMPDEST PUSH0 PUSH0 DUP4 SUB PUSH2 0x3153 JUMPI PUSH1 0x40 MLOAD PUSH32 0x8C379A000000000000000000000000000000000000000000000000000000000 DUP2 MSTORE PUSH1 0x4 ADD PUSH2 0x314A SWAP1 PUSH2 0x42F6 JUMP JUMPDEST PUSH1 0x40 MLOAD DUP1 SWAP2 SUB SWAP1 REVERT JUMPDEST PUSH0 DUP3 SUB PUSH2 0x3195 JUMPI PUSH1 0x40 MLOAD PUSH32 0x8C379A000000000000000000000000000000000000000000000000000000000 DUP2 MSTORE PUSH1 0x4 ADD PUSH2 0x318C SWAP1 PUSH2 0x42F6 JUMP JUMPDEST PUSH1 0x40 MLOAD DUP1 SWAP2 SUB SWAP1 REVERT JUMPDEST PUSH0 PUSH2 0x2710 DUP4 DUP6 PUSH2 0x31A5 SWAP2 SWAP1 PUSH2 0x40C3 JUMP JUMPDEST PUSH2 0x31AF SWAP2 SWAP1 PUSH2 0x4131 JUMP JUMPDEST SWAP1 POP DUP1 SWAP2 POP POP SWAP3 SWAP2 POP POP JUMP JUMPDEST PUSH0 CALLER SWAP1 POP SWAP1 JUMP JUMPDEST PUSH0 PUSH2 0x31EE PUSH32 0x360894A13BA1A3210667C828492DB98DCA3E2076CC3735A920A3CA505D382BBC PUSH0 SHL PUSH2 0x334B JUMP JUMPDEST PUSH0 ADD PUSH0 SWAP1 SLOAD SWAP1 PUSH2 0x100 EXP SWAP1 DIV PUSH20 0xFFFFFFFFFFFFFFFFFFFFFFFFFFFFFFFFFFFFFFFF AND SWAP1 POP SWAP1 JUMP JUMPDEST PUSH2 0x321E DUP3 PUSH2 0x3354 JUMP JUMPDEST DUP2 PUSH20 0xFFFFFFFFFFFFFFFFFFFFFFFFFFFFFFFFFFFFFFFF AND PUSH32 0xBC7CD75A20EE27FD9ADEBAB32041F755214DBC6BFFA90CC0225B39DA2E5C2D3B PUSH1 0x40 MLOAD PUSH1 0x40 MLOAD DUP1 SWAP2 SUB SWAP1 LOG2 PUSH0 DUP2 MLOAD GT ISZERO PUSH2 0x327A JUMPI PUSH2 0x3274 DUP3 DUP3 PUSH2 0x341D JUMP JUMPDEST POP PUSH2 0x3283 JUMP JUMPDEST PUSH2 0x3282 PUSH2 0x349D JUMP JUMPDEST JUMPDEST POP POP JUMP JUMPDEST PUSH2 0x328F PUSH2 0x34D9 JUMP JUMPDEST PUSH2 0x32C5 JUMPI PUSH1 0x40 MLOAD PUSH32 0xD7E6BCF800000000000000000000000000000000000000000000000000000000 DUP2 MSTORE PUSH1 0x4 ADD PUSH1 0x40 MLOAD DUP1 SWAP2 SUB SWAP1 REVERT JUMPDEST JUMP JUMPDEST PUSH2 0x32CF PUSH2 0x3287 JUMP JUMPDEST PUSH0 PUSH20 0xFFFFFFFFFFFFFFFFFFFFFFFFFFFFFFFFFFFFFFFF AND DUP2 PUSH20 0xFFFFFFFFFFFFFFFFFFFFFFFFFFFFFFFFFFFFFFFF AND SUB PUSH2 0x333F JUMPI PUSH0 PUSH1 0x40 MLOAD PUSH32 0x1E4FBDF700000000000000000000000000000000000000000000000000000000 DUP2 MSTORE PUSH1 0x4 ADD PUSH2 0x3336 SWAP2 SWAP1 PUSH2 0x3712 JUMP JUMPDEST PUSH1 0x40 MLOAD DUP1 SWAP2 SUB SWAP1 REVERT JUMPDEST PUSH2 0x3348 DUP2 PUSH2 0x2D79 JUMP JUMPDEST POP JUMP JUMPDEST PUSH0 DUP2 SWAP1 POP SWAP2 SWAP1 POP JUMP JUMPDEST PUSH0 DUP2 PUSH20 0xFFFFFFFFFFFFFFFFFFFFFFFFFFFFFFFFFFFFFFFF AND EXTCODESIZE SUB PUSH2 0x33AF JUMPI DUP1 PUSH1 0x40 MLOAD PUSH32 0x4C9C8CE300000000000000000000000000000000000000000000000000000000 DUP2 MSTORE PUSH1 0x4 ADD PUSH2 0x33A6 SWAP2 SWAP1 PUSH2 0x3712 JUMP JUMPDEST PUSH1 0x40 MLOAD DUP1 SWAP2 SUB SWAP1 REVERT JUMPDEST DUP1 PUSH2 0x33DB PUSH32 0x360894A13BA1A3210667C828492DB98DCA3E2076CC3735A920A3CA505D382BBC PUSH0 SHL PUSH2 0x334B JUMP JUMPDEST PUSH0 ADD PUSH0 PUSH2 0x100 EXP DUP2 SLOAD DUP2 PUSH20 0xFFFFFFFFFFFFFFFFFFFFFFFFFFFFFFFFFFFFFFFF MUL NOT AND SWAP1 DUP4 PUSH20 0xFFFFFFFFFFFFFFFFFFFFFFFFFFFFFFFFFFFFFFFF AND MUL OR SWAP1 SSTORE POP POP JUMP JUMPDEST PUSH1 0x60 PUSH0 PUSH0 DUP5 PUSH20 0xFFFFFFFFFFFFFFFFFFFFFFFFFFFFFFFFFFFFFFFF AND DUP5 PUSH1 0x40 MLOAD PUSH2 0x3446 SWAP2 SWAP1 PUSH2 0x434E JUMP JUMPDEST PUSH0 PUSH1 0x40 MLOAD DUP1 DUP4 SUB DUP2 DUP6 GAS DELEGATECALL SWAP2 POP POP RETURNDATASIZE DUP1 PUSH0 DUP2 EQ PUSH2 0x347E JUMPI PUSH1 0x40 MLOAD SWAP2 POP PUSH1 0x1F NOT PUSH1 0x3F RETURNDATASIZE ADD AND DUP3 ADD PUSH1 0x40 MSTORE RETURNDATASIZE DUP3 MSTORE RETURNDATASIZE PUSH0 PUSH1 0x20 DUP5 ADD RETURNDATACOPY PUSH2 0x3483 JUMP JUMPDEST PUSH1 0x60 SWAP2 POP JUMPDEST POP SWAP2 POP SWAP2 POP PUSH2 0x3493 DUP6 DUP4 DUP4 PUSH2 0x34F7 JUMP JUMPDEST SWAP3 POP POP POP SWAP3 SWAP2 POP POP JUMP JUMPDEST PUSH0 CALLVALUE GT ISZERO PUSH2 0x34D7 JUMPI PUSH1 0x40 MLOAD PUSH32 0xB398979F00000000000000000000000000000000000000000000000000000000 DUP2 MSTORE PUSH1 0x4 ADD PUSH1 0x40 MLOAD DUP1 SWAP2 SUB SWAP1 REVERT JUMPDEST JUMP JUMPDEST PUSH0 PUSH2 0x34E2 PUSH2 0x2ED3 JUMP JUMPDEST PUSH0 ADD PUSH1 0x8 SWAP1 SLOAD SWAP1 PUSH2 0x100 EXP SWAP1 DIV PUSH1 0xFF AND SWAP1 POP SWAP1 JUMP JUMPDEST PUSH1 0x60 DUP3 PUSH2 0x350C JUMPI PUSH2 0x3507 DUP3 PUSH2 0x3584 JUMP JUMPDEST PUSH2 0x357C JUMP JUMPDEST PUSH0 DUP3 MLOAD EQ DUP1 ISZERO PUSH2 0x3532 JUMPI POP PUSH0 DUP5 PUSH20 0xFFFFFFFFFFFFFFFFFFFFFFFFFFFFFFFFFFFFFFFF AND EXTCODESIZE EQ JUMPDEST ISZERO PUSH2 0x3574 JUMPI DUP4 PUSH1 0x40 MLOAD PUSH32 0x9996B31500000000000000000000000000000000000000000000000000000000 DUP2 MSTORE PUSH1 0x4 ADD PUSH2 0x356B SWAP2 SWAP1 PUSH2 0x3712 JUMP JUMPDEST PUSH1 0x40 MLOAD DUP1 SWAP2 SUB SWAP1 REVERT JUMPDEST DUP2 SWAP1 POP PUSH2 0x357D JUMP JUMPDEST JUMPDEST SWAP4 SWAP3 POP POP POP JUMP JUMPDEST PUSH0 DUP2 MLOAD GT ISZERO PUSH2 0x3596 JUMPI DUP1 MLOAD DUP1 DUP3 PUSH1 0x20 ADD REVERT JUMPDEST PUSH1 0x40 MLOAD PUSH32 0x1425EA4200000000000000000000000000000000000000000000000000000000 DUP2 MSTORE PUSH1 0x4 ADD PUSH1 0x40 MLOAD DUP1 SWAP2 SUB SWAP1 REVERT JUMPDEST PUSH0 DUP2 SWAP1 POP SWAP2 SWAP1 POP JUMP JUMPDEST PUSH2 0x35DA DUP2 PUSH2 0x35C8 JUMP JUMPDEST DUP3 MSTORE POP POP JUMP JUMPDEST PUSH0 PUSH1 0x20 DUP3 ADD SWAP1 POP PUSH2 0x35F3 PUSH0 DUP4 ADD DUP5 PUSH2 0x35D1 JUMP JUMPDEST SWAP3 SWAP2 POP POP JUMP JUMPDEST PUSH0 PUSH20 0xFFFFFFFFFFFFFFFFFFFFFFFFFFFFFFFFFFFFFFFF DUP3 AND SWAP1 POP SWAP2 SWAP1 POP JUMP JUMPDEST PUSH0 DUP2 SWAP1 POP SWAP2 SWAP1 POP JUMP JUMPDEST PUSH0 PUSH2 0x363B PUSH2 0x3636 PUSH2 0x3631 DUP5 PUSH2 0x35F9 JUMP JUMPDEST PUSH2 0x3618 JUMP JUMPDEST PUSH2 0x35F9 JUMP JUMPDEST SWAP1 POP SWAP2 SWAP1 POP JUMP JUMPDEST PUSH0 PUSH2 0x364C DUP3 PUSH2 0x3621 JUMP JUMPDEST SWAP1 POP SWAP2 SWAP1 POP JUMP JUMPDEST PUSH0 PUSH2 0x365D DUP3 PUSH2 0x3642 JUMP JUMPDEST SWAP1 POP SWAP2 SWAP1 POP JUMP JUMPDEST PUSH2 0x366D DUP2 PUSH2 0x3653 JUMP JUMPDEST DUP3 MSTORE POP POP JUMP JUMPDEST PUSH0 PUSH1 0x20 DUP3 ADD SWAP1 POP PUSH2 0x3686 PUSH0 DUP4 ADD DUP5 PUSH2 0x3664 JUMP JUMPDEST SWAP3 SWAP2 POP POP JUMP JUMPDEST PUSH0 PUSH1 0x40 MLOAD SWAP1 POP SWAP1 JUMP JUMPDEST PUSH0 PUSH0 REVERT JUMPDEST PUSH0 PUSH0 REVERT JUMPDEST PUSH2 0x36A6 DUP2 PUSH2 0x35C8 JUMP JUMPDEST DUP2 EQ PUSH2 0x36B0 JUMPI PUSH0 PUSH0 REVERT JUMPDEST POP JUMP JUMPDEST PUSH0 DUP2 CALLDATALOAD SWAP1 POP PUSH2 0x36C1 DUP2 PUSH2 0x369D JUMP JUMPDEST SWAP3 SWAP2 POP POP JUMP JUMPDEST PUSH0 PUSH1 0x20 DUP3 DUP5 SUB SLT ISZERO PUSH2 0x36DC JUMPI PUSH2 0x36DB PUSH2 0x3695 JUMP JUMPDEST JUMPDEST PUSH0 PUSH2 0x36E9 DUP5 DUP3 DUP6 ADD PUSH2 0x36B3 JUMP JUMPDEST SWAP2 POP POP SWAP3 SWAP2 POP POP JUMP JUMPDEST PUSH0 PUSH2 0x36FC DUP3 PUSH2 0x35F9 JUMP JUMPDEST SWAP1 POP SWAP2 SWAP1 POP JUMP JUMPDEST PUSH2 0x370C DUP2 PUSH2 0x36F2 JUMP JUMPDEST DUP3 MSTORE POP POP JUMP JUMPDEST PUSH0 PUSH1 0x20 DUP3 ADD SWAP1 POP PUSH2 0x3725 PUSH0 DUP4 ADD DUP5 PUSH2 0x3703 JUMP JUMPDEST SWAP3 SWAP2 POP POP JUMP JUMPDEST PUSH0 PUSH0 REVERT JUMPDEST PUSH0 PUSH0 REVERT JUMPDEST PUSH0 PUSH0 REVERT JUMPDEST PUSH0 PUSH0 DUP4 PUSH1 0x1F DUP5 ADD SLT PUSH2 0x374C JUMPI PUSH2 0x374B PUSH2 0x372B JUMP JUMPDEST JUMPDEST DUP3 CALLDATALOAD SWAP1 POP PUSH8 0xFFFFFFFFFFFFFFFF DUP2 GT ISZERO PUSH2 0x3769 JUMPI PUSH2 0x3768 PUSH2 0x372F JUMP JUMPDEST JUMPDEST PUSH1 0x20 DUP4 ADD SWAP2 POP DUP4 PUSH1 0x1 DUP3 MUL DUP4 ADD GT ISZERO PUSH2 0x3785 JUMPI PUSH2 0x3784 PUSH2 0x3733 JUMP JUMPDEST JUMPDEST SWAP3 POP SWAP3 SWAP1 POP JUMP JUMPDEST PUSH0 PUSH0 PUSH1 0x20 DUP4 DUP6 SUB SLT ISZERO PUSH2 0x37A2 JUMPI PUSH2 0x37A1 PUSH2 0x3695 JUMP JUMPDEST JUMPDEST PUSH0 DUP4 ADD CALLDATALOAD PUSH8 0xFFFFFFFFFFFFFFFF DUP2 GT ISZERO PUSH2 0x37BF JUMPI PUSH2 0x37BE PUSH2 0x3699 JUMP JUMPDEST JUMPDEST PUSH2 0x37CB DUP6 DUP3 DUP7 ADD PUSH2 0x3737 JUMP JUMPDEST SWAP3 POP SWAP3 POP POP SWAP3 POP SWAP3 SWAP1 POP JUMP JUMPDEST PUSH2 0x37E0 DUP2 PUSH2 0x36F2 JUMP JUMPDEST DUP2 EQ PUSH2 0x37EA JUMPI PUSH0 PUSH0 REVERT JUMPDEST POP JUMP JUMPDEST PUSH0 DUP2 CALLDATALOAD SWAP1 POP PUSH2 0x37FB DUP2 PUSH2 0x37D7 JUMP JUMPDEST SWAP3 SWAP2 POP POP JUMP JUMPDEST PUSH0 PUSH0 REVERT JUMPDEST PUSH0 PUSH1 0x1F NOT PUSH1 0x1F DUP4 ADD AND SWAP1 POP SWAP2 SWAP1 POP JUMP JUMPDEST PUSH32 0x4E487B7100000000000000000000000000000000000000000000000000000000 PUSH0 MSTORE PUSH1 0x41 PUSH1 0x4 MSTORE PUSH1 0x24 PUSH0 REVERT JUMPDEST PUSH2 0x384B DUP3 PUSH2 0x3805 JUMP JUMPDEST DUP2 ADD DUP2 DUP2 LT PUSH8 0xFFFFFFFFFFFFFFFF DUP3 GT OR ISZERO PUSH2 0x386A JUMPI PUSH2 0x3869 PUSH2 0x3815 JUMP JUMPDEST JUMPDEST DUP1 PUSH1 0x40 MSTORE POP POP POP JUMP JUMPDEST PUSH0 PUSH2 0x387C PUSH2 0x368C JUMP JUMPDEST SWAP1 POP PUSH2 0x3888 DUP3 DUP3 PUSH2 0x3842 JUMP JUMPDEST SWAP2 SWAP1 POP JUMP JUMPDEST PUSH0 PUSH8 0xFFFFFFFFFFFFFFFF DUP3 GT ISZERO PUSH2 0x38A7 JUMPI PUSH2 0x38A6 PUSH2 0x3815 JUMP JUMPDEST JUMPDEST PUSH2 0x38B0 DUP3 PUSH2 0x3805 JUMP JUMPDEST SWAP1 POP PUSH1 0x20 DUP2 ADD SWAP1 POP SWAP2 SWAP1 POP JUMP JUMPDEST DUP3 DUP2 DUP4 CALLDATACOPY PUSH0 DUP4 DUP4 ADD MSTORE POP POP POP JUMP JUMPDEST PUSH0 PUSH2 0x38DD PUSH2 0x38D8 DUP5 PUSH2 0x388D JUMP JUMPDEST PUSH2 0x3873 JUMP JUMPDEST SWAP1 POP DUP3 DUP2 MSTORE PUSH1 0x20 DUP2 ADD DUP5 DUP5 DUP5 ADD GT ISZERO PUSH2 0x38F9 JUMPI PUSH2 0x38F8 PUSH2 0x3801 JUMP JUMPDEST JUMPDEST PUSH2 0x3904 DUP5 DUP3 DUP6 PUSH2 0x38BD JUMP JUMPDEST POP SWAP4 SWAP3 POP POP POP JUMP JUMPDEST PUSH0 DUP3 PUSH1 0x1F DUP4 ADD SLT PUSH2 0x3920 JUMPI PUSH2 0x391F PUSH2 0x372B JUMP JUMPDEST JUMPDEST DUP2 CALLDATALOAD PUSH2 0x3930 DUP5 DUP3 PUSH1 0x20 DUP7 ADD PUSH2 0x38CB JUMP JUMPDEST SWAP2 POP POP SWAP3 SWAP2 POP POP JUMP JUMPDEST PUSH0 PUSH0 PUSH1 0x40 DUP4 DUP6 SUB SLT ISZERO PUSH2 0x394F JUMPI PUSH2 0x394E PUSH2 0x3695 JUMP JUMPDEST JUMPDEST PUSH0 PUSH2 0x395C DUP6 DUP3 DUP7 ADD PUSH2 0x37ED JUMP JUMPDEST SWAP3 POP POP PUSH1 0x20 DUP4 ADD CALLDATALOAD PUSH8 0xFFFFFFFFFFFFFFFF DUP2 GT ISZERO PUSH2 0x397D JUMPI PUSH2 0x397C PUSH2 0x3699 JUMP JUMPDEST JUMPDEST PUSH2 0x3989 DUP6 DUP3 DUP7 ADD PUSH2 0x390C JUMP JUMPDEST SWAP2 POP POP SWAP3 POP SWAP3 SWAP1 POP JUMP JUMPDEST PUSH0 DUP2 SWAP1 POP SWAP2 SWAP1 POP JUMP JUMPDEST PUSH2 0x39A5 DUP2 PUSH2 0x3993 JUMP JUMPDEST DUP3 MSTORE POP POP JUMP JUMPDEST PUSH0 PUSH1 0x20 DUP3 ADD SWAP1 POP PUSH2 0x39BE PUSH0 DUP4 ADD DUP5 PUSH2 0x399C JUMP JUMPDEST SWAP3 SWAP2 POP POP JUMP JUMPDEST PUSH0 DUP2 ISZERO ISZERO SWAP1 POP SWAP2 SWAP1 POP JUMP JUMPDEST PUSH2 0x39D8 DUP2 PUSH2 0x39C4 JUMP JUMPDEST DUP3 MSTORE POP POP JUMP JUMPDEST PUSH0 DUP2 MLOAD SWAP1 POP SWAP2 SWAP1 POP JUMP JUMPDEST PUSH0 DUP3 DUP3 MSTORE PUSH1 0x20 DUP3 ADD SWAP1 POP SWAP3 SWAP2 POP POP JUMP JUMPDEST DUP3 DUP2 DUP4 MCOPY PUSH0 DUP4 DUP4 ADD MSTORE POP POP POP JUMP JUMPDEST PUSH0 PUSH2 0x3A10 DUP3 PUSH2 0x39DE JUMP JUMPDEST PUSH2 0x3A1A DUP2 DUP6 PUSH2 0x39E8 JUMP JUMPDEST SWAP4 POP PUSH2 0x3A2A DUP2 DUP6 PUSH1 0x20 DUP7 ADD PUSH2 0x39F8 JUMP JUMPDEST PUSH2 0x3A33 DUP2 PUSH2 0x3805 JUMP JUMPDEST DUP5 ADD SWAP2 POP POP SWAP3 SWAP2 POP POP JUMP JUMPDEST PUSH0 PUSH1 0x40 DUP3 ADD SWAP1 POP PUSH2 0x3A51 PUSH0 DUP4 ADD DUP6 PUSH2 0x39CF JUMP JUMPDEST DUP2 DUP2 SUB PUSH1 0x20 DUP4 ADD MSTORE PUSH2 0x3A63 DUP2 DUP5 PUSH2 0x3A06 JUMP JUMPDEST SWAP1 POP SWAP4 SWAP3 POP POP POP JUMP JUMPDEST PUSH0 PUSH0 PUSH1 0x40 DUP4 DUP6 SUB SLT ISZERO PUSH2 0x3A82 JUMPI PUSH2 0x3A81 PUSH2 0x3695 JUMP JUMPDEST JUMPDEST PUSH0 PUSH2 0x3A8F DUP6 DUP3 DUP7 ADD PUSH2 0x36B3 JUMP JUMPDEST SWAP3 POP POP PUSH1 0x20 PUSH2 0x3AA0 DUP6 DUP3 DUP7 ADD PUSH2 0x36B3 JUMP JUMPDEST SWAP2 POP POP SWAP3 POP SWAP3 SWAP1 POP JUMP JUMPDEST PUSH0 DUP2 MLOAD SWAP1 POP SWAP2 SWAP1 POP JUMP JUMPDEST PUSH0 DUP3 DUP3 MSTORE PUSH1 0x20 DUP3 ADD SWAP1 POP SWAP3 SWAP2 POP POP JUMP JUMPDEST PUSH0 PUSH2 0x3ACE DUP3 PUSH2 0x3AAA JUMP JUMPDEST PUSH2 0x3AD8 DUP2 DUP6 PUSH2 0x3AB4 JUMP JUMPDEST SWAP4 POP PUSH2 0x3AE8 DUP2 DUP6 PUSH1 0x20 DUP7 ADD PUSH2 0x39F8 JUMP JUMPDEST PUSH2 0x3AF1 DUP2 PUSH2 0x3805 JUMP JUMPDEST DUP5 ADD SWAP2 POP POP SWAP3 SWAP2 POP POP JUMP JUMPDEST PUSH0 PUSH1 0x20 DUP3 ADD SWAP1 POP DUP2 DUP2 SUB PUSH0 DUP4 ADD MSTORE PUSH2 0x3B14 DUP2 DUP5 PUSH2 0x3AC4 JUMP JUMPDEST SWAP1 POP SWAP3 SWAP2 POP POP JUMP JUMPDEST PUSH0 PUSH1 0x20 DUP3 DUP5 SUB SLT ISZERO PUSH2 0x3B31 JUMPI PUSH2 0x3B30 PUSH2 0x3695 JUMP JUMPDEST JUMPDEST PUSH0 PUSH2 0x3B3E DUP5 DUP3 DUP6 ADD PUSH2 0x37ED JUMP JUMPDEST SWAP2 POP POP SWAP3 SWAP2 POP POP JUMP JUMPDEST PUSH0 PUSH1 0xC0 DUP3 ADD SWAP1 POP PUSH2 0x3B5A PUSH0 DUP4 ADD DUP10 PUSH2 0x39CF JUMP JUMPDEST PUSH2 0x3B67 PUSH1 0x20 DUP4 ADD DUP9 PUSH2 0x35D1 JUMP JUMPDEST PUSH2 0x3B74 PUSH1 0x40 DUP4 ADD DUP8 PUSH2 0x35D1 JUMP JUMPDEST PUSH2 0x3B81 PUSH1 0x60 DUP4 ADD DUP7 PUSH2 0x35D1 JUMP JUMPDEST PUSH2 0x3B8E PUSH1 0x80 DUP4 ADD DUP6 PUSH2 0x35D1 JUMP JUMPDEST PUSH2 0x3B9B PUSH1 0xA0 DUP4 ADD DUP5 PUSH2 0x35D1 JUMP JUMPDEST SWAP8 SWAP7 POP POP POP POP POP POP POP JUMP JUMPDEST PUSH0 PUSH0 PUSH0 PUSH1 0x60 DUP5 DUP7 SUB SLT ISZERO PUSH2 0x3BBD JUMPI PUSH2 0x3BBC PUSH2 0x3695 JUMP JUMPDEST JUMPDEST PUSH0 PUSH2 0x3BCA DUP7 DUP3 DUP8 ADD PUSH2 0x37ED JUMP JUMPDEST SWAP4 POP POP PUSH1 0x20 PUSH2 0x3BDB DUP7 DUP3 DUP8 ADD PUSH2 0x37ED JUMP JUMPDEST SWAP3 POP POP PUSH1 0x40 PUSH2 0x3BEC DUP7 DUP3 DUP8 ADD PUSH2 0x37ED JUMP JUMPDEST SWAP2 POP POP SWAP3 POP SWAP3 POP SWAP3 JUMP JUMPDEST PUSH0 PUSH1 0x20 DUP3 ADD SWAP1 POP PUSH2 0x3C09 PUSH0 DUP4 ADD DUP5 PUSH2 0x39CF JUMP JUMPDEST SWAP3 SWAP2 POP POP JUMP JUMPDEST PUSH2 0x3C18 DUP2 PUSH2 0x39C4 JUMP JUMPDEST DUP2 EQ PUSH2 0x3C22 JUMPI PUSH0 PUSH0 REVERT JUMPDEST POP JUMP JUMPDEST PUSH0 DUP2 CALLDATALOAD SWAP1 POP PUSH2 0x3C33 DUP2 PUSH2 0x3C0F JUMP JUMPDEST SWAP3 SWAP2 POP POP JUMP JUMPDEST PUSH0 PUSH0 PUSH1 0x40 DUP4 DUP6 SUB SLT ISZERO PUSH2 0x3C4F JUMPI PUSH2 0x3C4E PUSH2 0x3695 JUMP JUMPDEST JUMPDEST PUSH0 PUSH2 0x3C5C DUP6 DUP3 DUP7 ADD PUSH2 0x37ED JUMP JUMPDEST SWAP3 POP POP PUSH1 0x20 PUSH2 0x3C6D DUP6 DUP3 DUP7 ADD PUSH2 0x3C25 JUMP JUMPDEST SWAP2 POP POP SWAP3 POP SWAP3 SWAP1 POP JUMP JUMPDEST PUSH0 PUSH1 0x60 DUP3 ADD SWAP1 POP PUSH2 0x3C8A PUSH0 DUP4 ADD DUP7 PUSH2 0x3703 JUMP JUMPDEST PUSH2 0x3C97 PUSH1 0x20 DUP4 ADD DUP6 PUSH2 0x35D1 JUMP JUMPDEST PUSH2 0x3CA4 PUSH1 0x40 DUP4 ADD DUP5 PUSH2 0x35D1 JUMP JUMPDEST SWAP5 SWAP4 POP POP POP POP JUMP JUMPDEST PUSH32 0x4E487B7100000000000000000000000000000000000000000000000000000000 PUSH0 MSTORE PUSH1 0x11 PUSH1 0x4 MSTORE PUSH1 0x24 PUSH0 REVERT JUMPDEST PUSH0 PUSH2 0x3CE3 DUP3 PUSH2 0x35C8 JUMP JUMPDEST SWAP2 POP PUSH32 0xFFFFFFFFFFFFFFFFFFFFFFFFFFFFFFFFFFFFFFFFFFFFFFFFFFFFFFFFFFFFFFFF DUP3 SUB PUSH2 0x3D15 JUMPI PUSH2 0x3D14 PUSH2 0x3CAC JUMP JUMPDEST JUMPDEST PUSH1 0x1 DUP3 ADD SWAP1 POP SWAP2 SWAP1 POP JUMP JUMPDEST PUSH0 PUSH2 0x3D2A DUP3 PUSH2 0x35C8 JUMP JUMPDEST SWAP2 POP PUSH0 DUP3 SUB PUSH2 0x3D3C JUMPI PUSH2 0x3D3B PUSH2 0x3CAC JUMP JUMPDEST JUMPDEST PUSH1 0x1 DUP3 SUB SWAP1 POP SWAP2 SWAP1 POP JUMP JUMPDEST PUSH0 PUSH2 0x3D51 DUP3 PUSH2 0x35C8 JUMP JUMPDEST SWAP2 POP PUSH2 0x3D5C DUP4 PUSH2 0x35C8 JUMP JUMPDEST SWAP3 POP DUP3 DUP3 SUB SWAP1 POP DUP2 DUP2 GT ISZERO PUSH2 0x3D74 JUMPI PUSH2 0x3D73 PUSH2 0x3CAC JUMP JUMPDEST JUMPDEST SWAP3 SWAP2 POP POP JUMP JUMPDEST PUSH0 PUSH1 0x60 DUP3 ADD SWAP1 POP PUSH2 0x3D8D PUSH0 DUP4 ADD DUP7 PUSH2 0x35D1 JUMP JUMPDEST PUSH2 0x3D9A PUSH1 0x20 DUP4 ADD DUP6 PUSH2 0x35D1 JUMP JUMPDEST PUSH2 0x3DA7 PUSH1 0x40 DUP4 ADD DUP5 PUSH2 0x35D1 JUMP JUMPDEST SWAP5 SWAP4 POP POP POP POP JUMP JUMPDEST PUSH32 0x54686973206164647265737320646F6573206E6F742068617665207065726D69 PUSH0 DUP3 ADD MSTORE PUSH32 0x7373696F6E20746F2063616C6C20706572666F726D55706B6565700000000000 PUSH1 0x20 DUP3 ADD MSTORE POP JUMP JUMPDEST PUSH0 PUSH2 0x3E09 PUSH1 0x3B DUP4 PUSH2 0x3AB4 JUMP JUMPDEST SWAP2 POP PUSH2 0x3E14 DUP3 PUSH2 0x3DAF JUMP JUMPDEST PUSH1 0x40 DUP3 ADD SWAP1 POP SWAP2 SWAP1 POP JUMP JUMPDEST PUSH0 PUSH1 0x20 DUP3 ADD SWAP1 POP DUP2 DUP2 SUB PUSH0 DUP4 ADD MSTORE PUSH2 0x3E36 DUP2 PUSH2 0x3DFD JUMP JUMPDEST SWAP1 POP SWAP2 SWAP1 POP JUMP JUMPDEST PUSH0 PUSH2 0x3E47 DUP3 PUSH2 0x35C8 JUMP JUMPDEST SWAP2 POP PUSH2 0x3E52 DUP4 PUSH2 0x35C8 JUMP JUMPDEST SWAP3 POP DUP3 DUP3 ADD SWAP1 POP DUP1 DUP3 GT ISZERO PUSH2 0x3E6A JUMPI PUSH2 0x3E69 PUSH2 0x3CAC JUMP JUMPDEST JUMPDEST SWAP3 SWAP2 POP POP JUMP JUMPDEST PUSH0 PUSH1 0x60 DUP3 ADD SWAP1 POP PUSH2 0x3E83 PUSH0 DUP4 ADD DUP7 PUSH2 0x3703 JUMP JUMPDEST PUSH2 0x3E90 PUSH1 0x20 DUP4 ADD DUP6 PUSH2 0x3703 JUMP JUMPDEST PUSH2 0x3E9D PUSH1 0x40 DUP4 ADD DUP5 PUSH2 0x35D1 JUMP JUMPDEST SWAP5 SWAP4 POP POP POP POP JUMP JUMPDEST PUSH0 DUP2 MLOAD SWAP1 POP PUSH2 0x3EB3 DUP2 PUSH2 0x3C0F JUMP JUMPDEST SWAP3 SWAP2 POP POP JUMP JUMPDEST PUSH0 PUSH1 0x20 DUP3 DUP5 SUB SLT ISZERO PUSH2 0x3ECE JUMPI PUSH2 0x3ECD PUSH2 0x3695 JUMP JUMPDEST JUMPDEST PUSH0 PUSH2 0x3EDB DUP5 DUP3 DUP6 ADD PUSH2 0x3EA5 JUMP JUMPDEST SWAP2 POP POP SWAP3 SWAP2 POP POP JUMP JUMPDEST PUSH0 PUSH1 0x40 DUP3 ADD SWAP1 POP PUSH2 0x3EF7 PUSH0 DUP4 ADD DUP6 PUSH2 0x3703 JUMP JUMPDEST PUSH2 0x3F04 PUSH1 0x20 DUP4 ADD DUP5 PUSH2 0x35D1 JUMP JUMPDEST SWAP4 SWAP3 POP POP POP JUMP JUMPDEST PUSH32 0x696E76616C6964205F616D6F756E742100000000000000000000000000000000 PUSH0 DUP3 ADD MSTORE POP JUMP JUMPDEST PUSH0 PUSH2 0x3F3F PUSH1 0x10 DUP4 PUSH2 0x3AB4 JUMP JUMPDEST SWAP2 POP PUSH2 0x3F4A DUP3 PUSH2 0x3F0B JUMP JUMPDEST PUSH1 0x20 DUP3 ADD SWAP1 POP SWAP2 SWAP1 POP JUMP JUMPDEST PUSH0 PUSH1 0x20 DUP3 ADD SWAP1 POP DUP2 DUP2 SUB PUSH0 DUP4 ADD MSTORE PUSH2 0x3F6C DUP2 PUSH2 0x3F33 JUMP JUMPDEST SWAP1 POP SWAP2 SWAP1 POP JUMP JUMPDEST PUSH0 PUSH1 0x40 DUP3 ADD SWAP1 POP PUSH2 0x3F86 PUSH0 DUP4 ADD DUP6 PUSH2 0x35D1 JUMP JUMPDEST PUSH2 0x3F93 PUSH1 0x20 DUP4 ADD DUP5 PUSH2 0x35D1 JUMP JUMPDEST SWAP4 SWAP3 POP POP POP JUMP JUMPDEST PUSH0 DUP2 SWAP1 POP SWAP2 SWAP1 POP JUMP JUMPDEST PUSH0 PUSH8 0xFFFFFFFFFFFFFFFF DUP3 AND SWAP1 POP SWAP2 SWAP1 POP JUMP JUMPDEST PUSH0 PUSH2 0x3FD0 PUSH2 0x3FCB PUSH2 0x3FC6 DUP5 PUSH2 0x3F9A JUMP JUMPDEST PUSH2 0x3618 JUMP JUMPDEST PUSH2 0x3FA3 JUMP JUMPDEST SWAP1 POP SWAP2 SWAP1 POP JUMP JUMPDEST PUSH2 0x3FE0 DUP2 PUSH2 0x3FB6 JUMP JUMPDEST DUP3 MSTORE POP POP JUMP JUMPDEST PUSH0 PUSH1 0x20 DUP3 ADD SWAP1 POP PUSH2 0x3FF9 PUSH0 DUP4 ADD DUP5 PUSH2 0x3FD7 JUMP JUMPDEST SWAP3 SWAP2 POP POP JUMP JUMPDEST PUSH0 PUSH1 0x40 DUP3 ADD SWAP1 POP PUSH2 0x4012 PUSH0 DUP4 ADD DUP6 PUSH2 0x3703 JUMP JUMPDEST PUSH2 0x401F PUSH1 0x20 DUP4 ADD DUP5 PUSH2 0x3703 JUMP JUMPDEST SWAP4 SWAP3 POP POP POP JUMP JUMPDEST PUSH0 PUSH1 0x60 DUP3 ADD SWAP1 POP PUSH2 0x4039 PUSH0 DUP4 ADD DUP7 PUSH2 0x3703 JUMP JUMPDEST PUSH2 0x4046 PUSH1 0x20 DUP4 ADD DUP6 PUSH2 0x3703 JUMP JUMPDEST PUSH2 0x4053 PUSH1 0x40 DUP4 ADD DUP5 PUSH2 0x39CF JUMP JUMPDEST SWAP5 SWAP4 POP POP POP POP JUMP JUMPDEST PUSH32 0x6E6F7420656E6F75676820616D6F756E74000000000000000000000000000000 PUSH0 DUP3 ADD MSTORE POP JUMP JUMPDEST PUSH0 PUSH2 0x408F PUSH1 0x11 DUP4 PUSH2 0x3AB4 JUMP JUMPDEST SWAP2 POP PUSH2 0x409A DUP3 PUSH2 0x405B JUMP JUMPDEST PUSH1 0x20 DUP3 ADD SWAP1 POP SWAP2 SWAP1 POP JUMP JUMPDEST PUSH0 PUSH1 0x20 DUP3 ADD SWAP1 POP DUP2 DUP2 SUB PUSH0 DUP4 ADD MSTORE PUSH2 0x40BC DUP2 PUSH2 0x4083 JUMP JUMPDEST SWAP1 POP SWAP2 SWAP1 POP JUMP JUMPDEST PUSH0 PUSH2 0x40CD DUP3 PUSH2 0x35C8 JUMP JUMPDEST SWAP2 POP PUSH2 0x40D8 DUP4 PUSH2 0x35C8 JUMP JUMPDEST SWAP3 POP DUP3 DUP3 MUL PUSH2 0x40E6 DUP2 PUSH2 0x35C8 JUMP JUMPDEST SWAP2 POP DUP3 DUP3 DIV DUP5 EQ DUP4 ISZERO OR PUSH2 0x40FD JUMPI PUSH2 0x40FC PUSH2 0x3CAC JUMP JUMPDEST JUMPDEST POP SWAP3 SWAP2 POP POP JUMP JUMPDEST PUSH32 0x4E487B7100000000000000000000000000000000000000000000000000000000 PUSH0 MSTORE PUSH1 0x12 PUSH1 0x4 MSTORE PUSH1 0x24 PUSH0 REVERT JUMPDEST PUSH0 PUSH2 0x413B DUP3 PUSH2 0x35C8 JUMP JUMPDEST SWAP2 POP PUSH2 0x4146 DUP4 PUSH2 0x35C8 JUMP JUMPDEST SWAP3 POP DUP3 PUSH2 0x4156 JUMPI PUSH2 0x4155 PUSH2 0x4104 JUMP JUMPDEST JUMPDEST DUP3 DUP3 DIV SWAP1 POP SWAP3 SWAP2 POP POP JUMP JUMPDEST PUSH32 0x416D6F756E742069732067726561746572207468656E20353025000000000000 PUSH0 DUP3 ADD MSTORE POP JUMP JUMPDEST PUSH0 PUSH2 0x4195 PUSH1 0x1A DUP4 PUSH2 0x3AB4 JUMP JUMPDEST SWAP2 POP PUSH2 0x41A0 DUP3 PUSH2 0x4161 JUMP JUMPDEST PUSH1 0x20 DUP3 ADD SWAP1 POP SWAP2 SWAP1 POP JUMP JUMPDEST PUSH0 PUSH1 0x20 DUP3 ADD SWAP1 POP DUP2 DUP2 SUB PUSH0 DUP4 ADD MSTORE PUSH2 0x41C2 DUP2 PUSH2 0x4189 JUMP JUMPDEST SWAP1 POP SWAP2 SWAP1 POP JUMP JUMPDEST PUSH2 0x41D2 DUP2 PUSH2 0x3993 JUMP JUMPDEST DUP2 EQ PUSH2 0x41DC JUMPI PUSH0 PUSH0 REVERT JUMPDEST POP JUMP JUMPDEST PUSH0 DUP2 MLOAD SWAP1 POP PUSH2 0x41ED DUP2 PUSH2 0x41C9 JUMP JUMPDEST SWAP3 SWAP2 POP POP JUMP JUMPDEST PUSH0 PUSH1 0x20 DUP3 DUP5 SUB SLT ISZERO PUSH2 0x4208 JUMPI PUSH2 0x4207 PUSH2 0x3695 JUMP JUMPDEST JUMPDEST PUSH0 PUSH2 0x4215 DUP5 DUP3 DUP6 ADD PUSH2 0x41DF JUMP JUMPDEST SWAP2 POP POP SWAP3 SWAP2 POP POP JUMP JUMPDEST PUSH32 0x6E6F207573657273210000000000000000000000000000000000000000000000 PUSH0 DUP3 ADD MSTORE POP JUMP JUMPDEST PUSH0 PUSH2 0x4252 PUSH1 0x9 DUP4 PUSH2 0x3AB4 JUMP JUMPDEST SWAP2 POP PUSH2 0x425D DUP3 PUSH2 0x421E JUMP JUMPDEST PUSH1 0x20 DUP3 ADD SWAP1 POP SWAP2 SWAP1 POP JUMP JUMPDEST PUSH0 PUSH1 0x20 DUP3 ADD SWAP1 POP DUP2 DUP2 SUB PUSH0 DUP4 ADD MSTORE PUSH2 0x427F DUP2 PUSH2 0x4246 JUMP JUMPDEST SWAP1 POP SWAP2 SWAP1 POP JUMP JUMPDEST PUSH32 0x5F746F74616C5374616B65416D6F756E742063616E206E6F74206265207A6572 PUSH0 DUP3 ADD MSTORE PUSH32 0x6F00000000000000000000000000000000000000000000000000000000000000 PUSH1 0x20 DUP3 ADD MSTORE POP JUMP JUMPDEST PUSH0 PUSH2 0x42E0 PUSH1 0x21 DUP4 PUSH2 0x3AB4 JUMP JUMPDEST SWAP2 POP PUSH2 0x42EB DUP3 PUSH2 0x4286 JUMP JUMPDEST PUSH1 0x40 DUP3 ADD SWAP1 POP SWAP2 SWAP1 POP JUMP JUMPDEST PUSH0 PUSH1 0x20 DUP3 ADD SWAP1 POP DUP2 DUP2 SUB PUSH0 DUP4 ADD MSTORE PUSH2 0x430D DUP2 PUSH2 0x42D4 JUMP JUMPDEST SWAP1 POP SWAP2 SWAP1 POP JUMP JUMPDEST PUSH0 DUP2 SWAP1 POP SWAP3 SWAP2 POP POP JUMP JUMPDEST PUSH0 PUSH2 0x4328 DUP3 PUSH2 0x39DE JUMP JUMPDEST PUSH2 0x4332 DUP2 DUP6 PUSH2 0x4314 JUMP JUMPDEST SWAP4 POP PUSH2 0x4342 DUP2 DUP6 PUSH1 0x20 DUP7 ADD PUSH2 0x39F8 JUMP JUMPDEST DUP1 DUP5 ADD SWAP2 POP POP SWAP3 SWAP2 POP POP JUMP JUMPDEST PUSH0 PUSH2 0x4359 DUP3 DUP5 PUSH2 0x431E JUMP JUMPDEST SWAP2 POP DUP2 SWAP1 POP SWAP3 SWAP2 POP POP JUMP INVALID LOG2 PUSH5 0x6970667358 0x22 SLT KECCAK256 DUP9 DELEGATECALL 0xEF BASEFEE SWAP12 0xB5 SWAP16 0xB4 0xED 0xE0 0xD7 PUSH3 0x9DAAA8 REVERT SLOAD PUSH3 0x532724 ORIGIN EXTCODEHASH PUSH23 0xC3C9EA574A18EB064736F6C634300081B003300000000 "
				},
				"gasEstimates": {
					"creation": {
						"codeDepositCost": "3461200",
						"executionCost": "infinite",
						"totalCost": "infinite"
					},
					"external": {
						"UPGRADE_INTERFACE_VERSION()": "infinite",
						"addFunds(uint256,uint256)": "infinite",
						"addOwnership(uint256)": "infinite",
						"addProjects(uint256)": "infinite",
						"addTreasuery(uint256)": "infinite",
						"alreadyAdded(address)": "2944",
						"blockUser(address,bool)": "infinite",
						"checkUpkeep(bytes)": "infinite",
						"flowToTreasuryPercentage()": "2558",
						"initialize(address,address,address)": "infinite",
						"interval()": "2470",
						"lastTimeStamp()": "2537",
						"maintainceFeePercentage()": "2515",
						"multisigAddress()": "2620",
						"noOfUsers()": "2472",
						"odividentPayoutPercentage()": "2559",
						"off()": "infinite",
						"owner()": "2700",
						"ownerShipPoolAmount()": "2580",
						"performUpkeep(bytes)": "infinite",
						"proxiableUUID()": "infinite",
						"reStakeTokens(uint256)": "infinite",
						"renounceOwnership()": "infinite",
						"s_forwarderAddress()": "2554",
						"setForwarderAddress(address)": "infinite",
						"setInterval(uint256)": "infinite",
						"setTeasueryPercentages(uint256,uint256)": "infinite",
						"setflowToTreasuryPercentage(uint256)": "infinite",
						"setmaintainceFeePercentage(uint256)": "infinite",
						"setodividentPayoutPercentage(uint256)": "infinite",
						"settdividentPayoutPercentage(uint256)": "infinite",
						"stakeTokens(uint256)": "infinite",
						"tPPercentages(uint256)": "infinite",
						"tdividentPayoutPercentage()": "2493",
						"totalProjects()": "2492",
						"totalStakedAmount()": "2559",
						"totalUsers(uint256)": "2916",
						"transferOwnership(address)": "infinite",
						"treasuryPoolAmount()": "2516",
						"upgradeToAndCall(address,bytes)": "infinite",
						"usdcToken()": "infinite",
						"userRegistered(address)": "infinite",
						"userWithdrawAmoount(uint256)": "infinite",
						"weeklyTransfer()": "infinite"
					},
					"internal": {
						"_authorizeUpgrade(address)": "infinite",
						"calculateFees(uint256,uint256)": "infinite",
						"calculatePercentage(uint256,uint256)": "infinite",
						"perPoolCalculation()": "infinite"
					}
				},
				"methodIdentifiers": {
					"UPGRADE_INTERFACE_VERSION()": "ad3cb1cc",
					"addFunds(uint256,uint256)": "85f45250",
					"addOwnership(uint256)": "78fd078d",
					"addProjects(uint256)": "2765df7a",
					"addTreasuery(uint256)": "5256dbbf",
					"alreadyAdded(address)": "c7fd5bf0",
					"blockUser(address,bool)": "d9b998b4",
					"checkUpkeep(bytes)": "6e04ff0d",
					"flowToTreasuryPercentage()": "ce356a24",
					"initialize(address,address,address)": "c0c53b8b",
					"interval()": "947a36fb",
					"lastTimeStamp()": "3f3b3b27",
					"maintainceFeePercentage()": "3a71a9e4",
					"multisigAddress()": "5462870d",
					"noOfUsers()": "01934a83",
					"odividentPayoutPercentage()": "44490ff4",
					"off()": "6626b26d",
					"owner()": "8da5cb5b",
					"ownerShipPoolAmount()": "b47ff951",
					"performUpkeep(bytes)": "4585e33b",
					"proxiableUUID()": "52d1902d",
					"reStakeTokens(uint256)": "7ffe4d93",
					"renounceOwnership()": "715018a6",
					"s_forwarderAddress()": "3070fbf8",
					"setForwarderAddress(address)": "d777cc6d",
					"setInterval(uint256)": "22a90082",
					"setTeasueryPercentages(uint256,uint256)": "ed061067",
					"setflowToTreasuryPercentage(uint256)": "ad8e5ec4",
					"setmaintainceFeePercentage(uint256)": "7f111e60",
					"setodividentPayoutPercentage(uint256)": "b9dac1eb",
					"settdividentPayoutPercentage(uint256)": "7f70c5e7",
					"stakeTokens(uint256)": "7547c7a3",
					"tPPercentages(uint256)": "ff3d65d9",
					"tdividentPayoutPercentage()": "33244c2c",
					"totalProjects()": "9c361e4e",
					"totalStakedAmount()": "567e98f9",
					"totalUsers(uint256)": "a4f67b8b",
					"transferOwnership(address)": "f2fde38b",
					"treasuryPoolAmount()": "188e07b9",
					"upgradeToAndCall(address,bytes)": "4f1ef286",
					"usdcToken()": "11eac855",
					"userRegistered(address)": "bccbc36c",
					"userWithdrawAmoount(uint256)": "67976974",
					"weeklyTransfer()": "e9c68e2c"
				}
			},
			"storageLayout": {
				"storage": [
					{
						"astId": 1436,
						"contract": "DripWarrior/poolContract.sol:PoolContrcat",
						"label": "usdcToken",
						"offset": 0,
						"slot": "0",
						"type": "t_contract(IBEP20)1425"
					},
					{
						"astId": 1438,
						"contract": "DripWarrior/poolContract.sol:PoolContrcat",
						"label": "treasuryPoolAmount",
						"offset": 0,
						"slot": "1",
						"type": "t_uint256"
					},
					{
						"astId": 1440,
						"contract": "DripWarrior/poolContract.sol:PoolContrcat",
						"label": "ownerShipPoolAmount",
						"offset": 0,
						"slot": "2",
						"type": "t_uint256"
					},
					{
						"astId": 1442,
						"contract": "DripWarrior/poolContract.sol:PoolContrcat",
						"label": "totalStakedAmount",
						"offset": 0,
						"slot": "3",
						"type": "t_uint256"
					},
					{
						"astId": 1444,
						"contract": "DripWarrior/poolContract.sol:PoolContrcat",
						"label": "tdividentPayoutPercentage",
						"offset": 0,
						"slot": "4",
						"type": "t_uint256"
					},
					{
						"astId": 1446,
						"contract": "DripWarrior/poolContract.sol:PoolContrcat",
						"label": "odividentPayoutPercentage",
						"offset": 0,
						"slot": "5",
						"type": "t_uint256"
					},
					{
						"astId": 1448,
						"contract": "DripWarrior/poolContract.sol:PoolContrcat",
						"label": "flowToTreasuryPercentage",
						"offset": 0,
						"slot": "6",
						"type": "t_uint256"
					},
					{
						"astId": 1450,
						"contract": "DripWarrior/poolContract.sol:PoolContrcat",
						"label": "maintainceFeePercentage",
						"offset": 0,
						"slot": "7",
						"type": "t_uint256"
					},
					{
						"astId": 1452,
						"contract": "DripWarrior/poolContract.sol:PoolContrcat",
						"label": "noOfUsers",
						"offset": 0,
						"slot": "8",
						"type": "t_uint256"
					},
					{
						"astId": 1454,
						"contract": "DripWarrior/poolContract.sol:PoolContrcat",
						"label": "multisigAddress",
						"offset": 0,
						"slot": "9",
						"type": "t_address"
					},
					{
						"astId": 1456,
						"contract": "DripWarrior/poolContract.sol:PoolContrcat",
						"label": "interval",
						"offset": 0,
						"slot": "10",
						"type": "t_uint256"
					},
					{
						"astId": 1458,
						"contract": "DripWarrior/poolContract.sol:PoolContrcat",
						"label": "lastTimeStamp",
						"offset": 0,
						"slot": "11",
						"type": "t_uint256"
					},
					{
						"astId": 1460,
						"contract": "DripWarrior/poolContract.sol:PoolContrcat",
						"label": "s_forwarderAddress",
						"offset": 0,
						"slot": "12",
						"type": "t_address"
					},
					{
						"astId": 1475,
						"contract": "DripWarrior/poolContract.sol:PoolContrcat",
						"label": "totalProjects",
						"offset": 0,
						"slot": "13",
						"type": "t_uint256"
					},
					{
						"astId": 1479,
						"contract": "DripWarrior/poolContract.sol:PoolContrcat",
						"label": "alreadyAdded",
						"offset": 0,
						"slot": "14",
						"type": "t_mapping(t_address,t_bool)"
					},
					{
						"astId": 1483,
						"contract": "DripWarrior/poolContract.sol:PoolContrcat",
						"label": "totalUsers",
						"offset": 0,
						"slot": "15",
						"type": "t_mapping(t_uint256,t_address)"
					},
					{
						"astId": 1487,
						"contract": "DripWarrior/poolContract.sol:PoolContrcat",
						"label": "tPPercentages",
						"offset": 0,
						"slot": "16",
						"type": "t_mapping(t_uint256,t_uint256)"
					},
					{
						"astId": 1492,
						"contract": "DripWarrior/poolContract.sol:PoolContrcat",
						"label": "userRegistered",
						"offset": 0,
						"slot": "17",
						"type": "t_mapping(t_address,t_struct(UserRegistered)1473_storage)"
					}
				],
				"types": {
					"t_address": {
						"encoding": "inplace",
						"label": "address",
						"numberOfBytes": "20"
					},
					"t_bool": {
						"encoding": "inplace",
						"label": "bool",
						"numberOfBytes": "1"
					},
					"t_contract(IBEP20)1425": {
						"encoding": "inplace",
						"label": "contract IBEP20",
						"numberOfBytes": "20"
					},
					"t_mapping(t_address,t_bool)": {
						"encoding": "mapping",
						"key": "t_address",
						"label": "mapping(address => bool)",
						"numberOfBytes": "32",
						"value": "t_bool"
					},
					"t_mapping(t_address,t_struct(UserRegistered)1473_storage)": {
						"encoding": "mapping",
						"key": "t_address",
						"label": "mapping(address => struct PoolContrcat.UserRegistered)",
						"numberOfBytes": "32",
						"value": "t_struct(UserRegistered)1473_storage"
					},
					"t_mapping(t_uint256,t_address)": {
						"encoding": "mapping",
						"key": "t_uint256",
						"label": "mapping(uint256 => address)",
						"numberOfBytes": "32",
						"value": "t_address"
					},
					"t_mapping(t_uint256,t_uint256)": {
						"encoding": "mapping",
						"key": "t_uint256",
						"label": "mapping(uint256 => uint256)",
						"numberOfBytes": "32",
						"value": "t_uint256"
					},
					"t_struct(UserRegistered)1473_storage": {
						"encoding": "inplace",
						"label": "struct PoolContrcat.UserRegistered",
						"members": [
							{
								"astId": 1462,
								"contract": "DripWarrior/poolContract.sol:PoolContrcat",
								"label": "blocked",
								"offset": 0,
								"slot": "0",
								"type": "t_bool"
							},
							{
								"astId": 1464,
								"contract": "DripWarrior/poolContract.sol:PoolContrcat",
								"label": "receivedAmount",
								"offset": 0,
								"slot": "1",
								"type": "t_uint256"
							},
							{
								"astId": 1466,
								"contract": "DripWarrior/poolContract.sol:PoolContrcat",
								"label": "withdrawAmount",
								"offset": 0,
								"slot": "2",
								"type": "t_uint256"
							},
							{
								"astId": 1468,
								"contract": "DripWarrior/poolContract.sol:PoolContrcat",
								"label": "receiveFromTreasury",
								"offset": 0,
								"slot": "3",
								"type": "t_uint256"
							},
							{
								"astId": 1470,
								"contract": "DripWarrior/poolContract.sol:PoolContrcat",
								"label": "receiveFromOwneerShip",
								"offset": 0,
								"slot": "4",
								"type": "t_uint256"
							},
							{
								"astId": 1472,
								"contract": "DripWarrior/poolContract.sol:PoolContrcat",
								"label": "totalStakedAmount",
								"offset": 0,
								"slot": "5",
								"type": "t_uint256"
							}
						],
						"numberOfBytes": "192"
					},
					"t_uint256": {
						"encoding": "inplace",
						"label": "uint256",
						"numberOfBytes": "32"
					}
				}
			},
			"userdoc": {
				"kind": "user",
				"methods": {},
				"version": 1
			}
		}
	}
}