{
	"DripWarrior/poolContract.sol": {
		"PoolContrcat": {
			"abi": [
				{
					"inputs": [],
					"stateMutability": "nonpayable",
					"type": "constructor"
				},
				{
					"inputs": [
						{
							"internalType": "address",
							"name": "target",
							"type": "address"
						}
					],
					"name": "AddressEmptyCode",
					"type": "error"
				},
				{
					"inputs": [],
					"name": "ArrayLengthMismatch",
					"type": "error"
				},
				{
					"inputs": [
						{
							"internalType": "address",
							"name": "implementation",
							"type": "address"
						}
					],
					"name": "ERC1967InvalidImplementation",
					"type": "error"
				},
				{
					"inputs": [],
					"name": "ERC1967NonPayable",
					"type": "error"
				},
				{
					"inputs": [],
					"name": "FailedInnerCall",
					"type": "error"
				},
				{
					"inputs": [],
					"name": "InvalidInitialization",
					"type": "error"
				},
				{
					"inputs": [],
					"name": "NotInitializing",
					"type": "error"
				},
				{
					"inputs": [
						{
							"internalType": "address",
							"name": "owner",
							"type": "address"
						}
					],
					"name": "OwnableInvalidOwner",
					"type": "error"
				},
				{
					"inputs": [
						{
							"internalType": "address",
							"name": "account",
							"type": "address"
						}
					],
					"name": "OwnableUnauthorizedAccount",
					"type": "error"
				},
				{
					"inputs": [],
					"name": "UUPSUnauthorizedCallContext",
					"type": "error"
				},
				{
					"inputs": [
						{
							"internalType": "bytes32",
							"name": "slot",
							"type": "bytes32"
						}
					],
					"name": "UUPSUnsupportedProxiableUUID",
					"type": "error"
				},
				{
					"inputs": [
						{
							"internalType": "uint256",
							"name": "addressLength",
							"type": "uint256"
						}
					],
					"name": "emptyAddresses",
					"type": "error"
				},
				{
					"inputs": [
						{
							"internalType": "uint256",
							"name": "amountLength",
							"type": "uint256"
						}
					],
					"name": "emptyAmount",
					"type": "error"
				},
				{
					"inputs": [
						{
							"internalType": "uint256",
							"name": "ownerShipPoolAmount",
							"type": "uint256"
						},
						{
							"internalType": "uint256",
							"name": "treasuryPoolAmount",
							"type": "uint256"
						}
					],
					"name": "emptyPools",
					"type": "error"
				},
				{
					"inputs": [
						{
							"internalType": "uint256",
							"name": "balanceAmount",
							"type": "uint256"
						}
					],
					"name": "notEnoughAmount",
					"type": "error"
				},
				{
					"inputs": [
						{
							"internalType": "uint256",
							"name": "amount",
							"type": "uint256"
						}
					],
					"name": "notEnoughBalance",
					"type": "error"
				},
				{
					"inputs": [
						{
							"internalType": "bool",
							"name": "transfered",
							"type": "bool"
						}
					],
					"name": "transferFailed",
					"type": "error"
				},
				{
					"inputs": [
						{
							"internalType": "bool",
							"name": "blocked",
							"type": "bool"
						}
					],
					"name": "userBlocked",
					"type": "error"
				},
				{
					"inputs": [
						{
							"internalType": "address",
							"name": "wrongAddress",
							"type": "address"
						}
					],
					"name": "wrongAddress",
					"type": "error"
				},
				{
					"inputs": [
						{
							"internalType": "uint256",
							"name": "amount",
							"type": "uint256"
						}
					],
					"name": "wrongAmount",
					"type": "error"
				},
				{
					"inputs": [
						{
							"internalType": "uint256",
							"name": "updateInterval",
							"type": "uint256"
						}
					],
					"name": "wrongInterval",
					"type": "error"
				},
				{
					"inputs": [
						{
							"internalType": "address",
							"name": "owner",
							"type": "address"
						}
					],
					"name": "wrongOwner",
					"type": "error"
				},
				{
					"inputs": [
						{
							"internalType": "uint256",
							"name": "percentageNumber",
							"type": "uint256"
						}
					],
					"name": "wrongPerceentage",
					"type": "error"
				},
				{
					"inputs": [
						{
							"internalType": "uint256",
							"name": "percentage",
							"type": "uint256"
						}
					],
					"name": "wrongPercentage",
					"type": "error"
				},
				{
					"inputs": [
						{
							"internalType": "uint256",
							"name": "_totalStakeAmount",
							"type": "uint256"
						}
					],
					"name": "wrongPercentageAmount",
					"type": "error"
				},
				{
					"inputs": [
						{
							"internalType": "uint256",
							"name": "projectNO",
							"type": "uint256"
						}
					],
					"name": "wrongProjectNo",
					"type": "error"
				},
				{
					"inputs": [
						{
							"internalType": "uint256",
							"name": "time",
							"type": "uint256"
						}
					],
					"name": "wrongTime",
					"type": "error"
				},
				{
					"inputs": [
						{
							"internalType": "bool",
							"name": "value",
							"type": "bool"
						}
					],
					"name": "wrongValue",
					"type": "error"
				},
				{
					"inputs": [
						{
							"internalType": "uint256",
							"name": "noOfUsers",
							"type": "uint256"
						}
					],
					"name": "zeroUsers",
					"type": "error"
				},
				{
					"anonymous": false,
					"inputs": [
						{
							"indexed": false,
							"internalType": "uint256",
							"name": "_amount",
							"type": "uint256"
						},
						{
							"indexed": false,
							"internalType": "uint256",
							"name": "_projectNo",
							"type": "uint256"
						}
					],
					"name": "AddFunds",
					"type": "event"
				},
				{
					"anonymous": false,
					"inputs": [
						{
							"indexed": false,
							"internalType": "uint256",
							"name": "_ownerShipPoolAmount",
							"type": "uint256"
						}
					],
					"name": "AddOwnership",
					"type": "event"
				},
				{
					"anonymous": false,
					"inputs": [
						{
							"indexed": false,
							"internalType": "uint256",
							"name": "projectId",
							"type": "uint256"
						},
						{
							"indexed": false,
							"internalType": "uint256",
							"name": "OpPercentage",
							"type": "uint256"
						},
						{
							"indexed": false,
							"internalType": "uint256",
							"name": "tpPercentage",
							"type": "uint256"
						}
					],
					"name": "AddProject",
					"type": "event"
				},
				{
					"anonymous": false,
					"inputs": [
						{
							"indexed": false,
							"internalType": "uint256",
							"name": "_treasuryPoolAmount",
							"type": "uint256"
						}
					],
					"name": "AddTreasuery",
					"type": "event"
				},
				{
					"anonymous": false,
					"inputs": [
						{
							"indexed": false,
							"internalType": "uint64",
							"name": "version",
							"type": "uint64"
						}
					],
					"name": "Initialized",
					"type": "event"
				},
				{
					"anonymous": false,
					"inputs": [
						{
							"indexed": true,
							"internalType": "address",
							"name": "previousOwner",
							"type": "address"
						},
						{
							"indexed": true,
							"internalType": "address",
							"name": "newOwner",
							"type": "address"
						}
					],
					"name": "OwnershipTransferred",
					"type": "event"
				},
				{
					"anonymous": false,
					"inputs": [
						{
							"indexed": false,
							"internalType": "address",
							"name": "_owner",
							"type": "address"
						},
						{
							"indexed": false,
							"internalType": "uint256",
							"name": "_newPercentage",
							"type": "uint256"
						}
					],
					"name": "PercentageChanged",
					"type": "event"
				},
				{
					"anonymous": false,
					"inputs": [
						{
							"indexed": false,
							"internalType": "address",
							"name": "_owner",
							"type": "address"
						},
						{
							"indexed": false,
							"internalType": "address",
							"name": "_s_forwarderAddress",
							"type": "address"
						}
					],
					"name": "SetForwarderAddress",
					"type": "event"
				},
				{
					"anonymous": false,
					"inputs": [
						{
							"indexed": false,
							"internalType": "address",
							"name": "_owner",
							"type": "address"
						},
						{
							"indexed": false,
							"internalType": "uint256",
							"name": "_interval",
							"type": "uint256"
						},
						{
							"indexed": false,
							"internalType": "uint256",
							"name": "_lastTimeStamp",
							"type": "uint256"
						}
					],
					"name": "SetInterval",
					"type": "event"
				},
				{
					"anonymous": false,
					"inputs": [
						{
							"indexed": false,
							"internalType": "address",
							"name": "sender",
							"type": "address"
						},
						{
							"indexed": false,
							"internalType": "address",
							"name": "recepient",
							"type": "address"
						},
						{
							"indexed": false,
							"internalType": "uint256",
							"name": "usdcAmount",
							"type": "uint256"
						}
					],
					"name": "StakeTokens",
					"type": "event"
				},
				{
					"anonymous": false,
					"inputs": [
						{
							"indexed": true,
							"internalType": "address",
							"name": "implementation",
							"type": "address"
						}
					],
					"name": "Upgraded",
					"type": "event"
				},
				{
					"anonymous": false,
					"inputs": [
						{
							"indexed": false,
							"internalType": "address",
							"name": "owner",
							"type": "address"
						},
						{
							"indexed": false,
							"internalType": "address",
							"name": "blockUserAddress",
							"type": "address"
						},
						{
							"indexed": false,
							"internalType": "bool",
							"name": "blocked",
							"type": "bool"
						}
					],
					"name": "UserBlocked",
					"type": "event"
				},
				{
					"anonymous": false,
					"inputs": [
						{
							"indexed": false,
							"internalType": "address",
							"name": "caller",
							"type": "address"
						},
						{
							"indexed": false,
							"internalType": "uint256",
							"name": "ownerShipPoolAmount",
							"type": "uint256"
						},
						{
							"indexed": false,
							"internalType": "uint256",
							"name": "treasuryPoolAmount",
							"type": "uint256"
						}
					],
					"name": "WeeklyTransfered",
					"type": "event"
				},
				{
					"anonymous": false,
					"inputs": [
						{
							"indexed": false,
							"internalType": "address",
							"name": "recipient",
							"type": "address"
						},
						{
							"indexed": false,
							"internalType": "uint256",
							"name": "usdcAmount",
							"type": "uint256"
						}
					],
					"name": "Withdraw",
					"type": "event"
				},
				{
					"anonymous": false,
					"inputs": [
						{
							"indexed": false,
							"internalType": "address",
							"name": "owner",
							"type": "address"
						},
						{
							"indexed": false,
							"internalType": "uint256",
							"name": "_amountLength",
							"type": "uint256"
						},
						{
							"indexed": false,
							"internalType": "uint256",
							"name": "usersLength",
							"type": "uint256"
						}
					],
					"name": "multipleUserAddeed",
					"type": "event"
				},
				{
					"anonymous": false,
					"inputs": [
						{
							"indexed": false,
							"internalType": "address",
							"name": "_owner",
							"type": "address"
						},
						{
							"indexed": false,
							"internalType": "uint256",
							"name": "_interval",
							"type": "uint256"
						}
					],
					"name": "offInterval",
					"type": "event"
				},
				{
					"anonymous": false,
					"inputs": [
						{
							"indexed": false,
							"internalType": "address",
							"name": "owner",
							"type": "address"
						},
						{
							"indexed": false,
							"internalType": "uint256",
							"name": "_amount",
							"type": "uint256"
						},
						{
							"indexed": false,
							"internalType": "address",
							"name": "userAddress",
							"type": "address"
						}
					],
					"name": "singleUserAddeed",
					"type": "event"
				},
				{
					"inputs": [],
					"name": "UPGRADE_INTERFACE_VERSION",
					"outputs": [
						{
							"internalType": "string",
							"name": "",
							"type": "string"
						}
					],
					"stateMutability": "view",
					"type": "function"
				},
				{
					"inputs": [
						{
							"internalType": "uint256",
							"name": "_amount",
							"type": "uint256"
						},
						{
							"internalType": "uint256",
							"name": "_projectNo",
							"type": "uint256"
						}
					],
					"name": "addFunds",
					"outputs": [],
					"stateMutability": "nonpayable",
					"type": "function"
				},
				{
					"inputs": [
						{
							"internalType": "uint256",
							"name": "_amount",
							"type": "uint256"
						}
					],
					"name": "addOwnership",
					"outputs": [],
					"stateMutability": "nonpayable",
					"type": "function"
				},
				{
					"inputs": [
						{
							"internalType": "uint256",
							"name": "_tPPercentage",
							"type": "uint256"
						}
					],
					"name": "addProjects",
					"outputs": [],
					"stateMutability": "nonpayable",
					"type": "function"
				},
				{
					"inputs": [
						{
							"internalType": "uint256",
							"name": "_amount",
							"type": "uint256"
						}
					],
					"name": "addTreasuery",
					"outputs": [],
					"stateMutability": "nonpayable",
					"type": "function"
				},
				{
					"inputs": [
						{
							"internalType": "address",
							"name": "",
							"type": "address"
						}
					],
					"name": "alreadyAdded",
					"outputs": [
						{
							"internalType": "bool",
							"name": "",
							"type": "bool"
						}
					],
					"stateMutability": "view",
					"type": "function"
				},
				{
					"inputs": [
						{
							"internalType": "address",
							"name": "_userAddress",
							"type": "address"
						},
						{
							"internalType": "bool",
							"name": "value",
							"type": "bool"
						}
					],
					"name": "blockUser",
					"outputs": [],
					"stateMutability": "nonpayable",
					"type": "function"
				},
				{
					"inputs": [
						{
							"internalType": "bytes",
							"name": "",
							"type": "bytes"
						}
					],
					"name": "checkUpkeep",
					"outputs": [
						{
							"internalType": "bool",
							"name": "",
							"type": "bool"
						},
						{
							"internalType": "bytes",
							"name": "",
							"type": "bytes"
						}
					],
					"stateMutability": "view",
					"type": "function"
				},
				{
					"inputs": [],
					"name": "flowToTreasuryPercentage",
					"outputs": [
						{
							"internalType": "uint256",
							"name": "",
							"type": "uint256"
						}
					],
					"stateMutability": "view",
					"type": "function"
				},
				{
					"inputs": [
						{
							"internalType": "address",
							"name": "initialOwner",
							"type": "address"
						},
						{
							"internalType": "address",
							"name": "_usdcAddress",
							"type": "address"
						},
						{
							"internalType": "address",
							"name": "_ownerOne",
							"type": "address"
						},
						{
							"internalType": "address",
							"name": "_ownerTwo",
							"type": "address"
						},
						{
							"internalType": "address",
							"name": "_multisigAddress",
							"type": "address"
						}
					],
					"name": "initialize",
					"outputs": [],
					"stateMutability": "nonpayable",
					"type": "function"
				},
				{
					"inputs": [],
					"name": "interval",
					"outputs": [
						{
							"internalType": "uint256",
							"name": "",
							"type": "uint256"
						}
					],
					"stateMutability": "view",
					"type": "function"
				},
				{
					"inputs": [],
					"name": "lastTimeStamp",
					"outputs": [
						{
							"internalType": "uint256",
							"name": "",
							"type": "uint256"
						}
					],
					"stateMutability": "view",
					"type": "function"
				},
				{
					"inputs": [],
					"name": "maintainceFeePercentage",
					"outputs": [
						{
							"internalType": "uint256",
							"name": "",
							"type": "uint256"
						}
					],
					"stateMutability": "view",
					"type": "function"
				},
				{
					"inputs": [],
					"name": "multisigAddress",
					"outputs": [
						{
							"internalType": "address",
							"name": "",
							"type": "address"
						}
					],
					"stateMutability": "view",
					"type": "function"
				},
				{
					"inputs": [],
					"name": "noOfUsers",
					"outputs": [
						{
							"internalType": "uint256",
							"name": "",
							"type": "uint256"
						}
					],
					"stateMutability": "view",
					"type": "function"
				},
				{
					"inputs": [],
					"name": "odividentPayoutPercentage",
					"outputs": [
						{
							"internalType": "uint256",
							"name": "",
							"type": "uint256"
						}
					],
					"stateMutability": "view",
					"type": "function"
				},
				{
					"inputs": [],
					"name": "off",
					"outputs": [],
					"stateMutability": "nonpayable",
					"type": "function"
				},
				{
					"inputs": [],
					"name": "owner",
					"outputs": [
						{
							"internalType": "address",
							"name": "",
							"type": "address"
						}
					],
					"stateMutability": "view",
					"type": "function"
				},
				{
					"inputs": [],
					"name": "ownerOne",
					"outputs": [
						{
							"internalType": "address",
							"name": "",
							"type": "address"
						}
					],
					"stateMutability": "view",
					"type": "function"
				},
				{
					"inputs": [],
					"name": "ownerShipPoolAmount",
					"outputs": [
						{
							"internalType": "uint256",
							"name": "",
							"type": "uint256"
						}
					],
					"stateMutability": "view",
					"type": "function"
				},
				{
					"inputs": [],
					"name": "ownerTwo",
					"outputs": [
						{
							"internalType": "address",
							"name": "",
							"type": "address"
						}
					],
					"stateMutability": "view",
					"type": "function"
				},
				{
					"inputs": [
						{
							"internalType": "bytes",
							"name": "",
							"type": "bytes"
						}
					],
					"name": "performUpkeep",
					"outputs": [],
					"stateMutability": "nonpayable",
					"type": "function"
				},
				{
					"inputs": [],
					"name": "proxiableUUID",
					"outputs": [
						{
							"internalType": "bytes32",
							"name": "",
							"type": "bytes32"
						}
					],
					"stateMutability": "view",
					"type": "function"
				},
				{
					"inputs": [
						{
							"internalType": "uint256",
							"name": "_amount",
							"type": "uint256"
						}
					],
					"name": "reStakeTokens",
					"outputs": [],
					"stateMutability": "nonpayable",
					"type": "function"
				},
				{
					"inputs": [],
					"name": "realInterval",
					"outputs": [
						{
							"internalType": "uint256",
							"name": "",
							"type": "uint256"
						}
					],
					"stateMutability": "view",
					"type": "function"
				},
				{
					"inputs": [],
					"name": "renounceOwnership",
					"outputs": [],
					"stateMutability": "nonpayable",
					"type": "function"
				},
				{
					"inputs": [],
					"name": "s_forwarderAddress",
					"outputs": [
						{
							"internalType": "address",
							"name": "",
							"type": "address"
						}
					],
					"stateMutability": "view",
					"type": "function"
				},
				{
					"inputs": [
						{
							"internalType": "address",
							"name": "forwarderAddress",
							"type": "address"
						}
					],
					"name": "setForwarderAddress",
					"outputs": [],
					"stateMutability": "nonpayable",
					"type": "function"
				},
				{
					"inputs": [
						{
							"internalType": "uint256",
							"name": "_startingTime",
							"type": "uint256"
						},
						{
							"internalType": "uint256",
							"name": "updateInterval",
							"type": "uint256"
						}
					],
					"name": "setInterval",
					"outputs": [],
					"stateMutability": "nonpayable",
					"type": "function"
				},
				{
					"inputs": [
						{
							"internalType": "uint256",
							"name": "_projectId",
							"type": "uint256"
						},
						{
							"internalType": "uint256",
							"name": "_newPerccentage",
							"type": "uint256"
						}
					],
					"name": "setTeasueryPercentages",
					"outputs": [],
					"stateMutability": "nonpayable",
					"type": "function"
				},
				{
					"inputs": [
						{
							"internalType": "uint256",
							"name": "_newPerccentage",
							"type": "uint256"
						}
					],
					"name": "setflowToTreasuryPercentage",
					"outputs": [],
					"stateMutability": "nonpayable",
					"type": "function"
				},
				{
					"inputs": [
						{
							"internalType": "uint256",
							"name": "_newPerccentage",
							"type": "uint256"
						}
					],
					"name": "setmaintainceFeePercentage",
					"outputs": [],
					"stateMutability": "nonpayable",
					"type": "function"
				},
				{
					"inputs": [
						{
							"internalType": "uint256",
							"name": "_newPerccentage",
							"type": "uint256"
						}
					],
					"name": "setodividentPayoutPercentage",
					"outputs": [],
					"stateMutability": "nonpayable",
					"type": "function"
				},
				{
					"inputs": [
						{
							"internalType": "uint256",
							"name": "_newPerccentage",
							"type": "uint256"
						}
					],
					"name": "settdividentPayoutPercentage",
					"outputs": [],
					"stateMutability": "nonpayable",
					"type": "function"
				},
				{
					"inputs": [
						{
							"internalType": "uint256",
							"name": "_amount",
							"type": "uint256"
						}
					],
					"name": "stakeTokens",
					"outputs": [],
					"stateMutability": "nonpayable",
					"type": "function"
				},
				{
					"inputs": [
						{
							"internalType": "uint256[]",
							"name": "_amount",
							"type": "uint256[]"
						},
						{
							"internalType": "address[]",
							"name": "users",
							"type": "address[]"
						}
					],
					"name": "stakeTokensByOwner",
					"outputs": [],
					"stateMutability": "nonpayable",
					"type": "function"
				},
				{
					"inputs": [],
					"name": "startingTime",
					"outputs": [
						{
							"internalType": "uint256",
							"name": "",
							"type": "uint256"
						}
					],
					"stateMutability": "view",
					"type": "function"
				},
				{
					"inputs": [
						{
							"internalType": "uint256",
							"name": "",
							"type": "uint256"
						}
					],
					"name": "tPPercentages",
					"outputs": [
						{
							"internalType": "uint256",
							"name": "",
							"type": "uint256"
						}
					],
					"stateMutability": "view",
					"type": "function"
				},
				{
					"inputs": [],
					"name": "tdividentPayoutPercentage",
					"outputs": [
						{
							"internalType": "uint256",
							"name": "",
							"type": "uint256"
						}
					],
					"stateMutability": "view",
					"type": "function"
				},
				{
					"inputs": [],
					"name": "totalProjects",
					"outputs": [
						{
							"internalType": "uint256",
							"name": "",
							"type": "uint256"
						}
					],
					"stateMutability": "view",
					"type": "function"
				},
				{
					"inputs": [],
					"name": "totalStakedAmount",
					"outputs": [
						{
							"internalType": "uint256",
							"name": "",
							"type": "uint256"
						}
					],
					"stateMutability": "view",
					"type": "function"
				},
				{
					"inputs": [
						{
							"internalType": "uint256",
							"name": "",
							"type": "uint256"
						}
					],
					"name": "totalUsers",
					"outputs": [
						{
							"internalType": "address",
							"name": "",
							"type": "address"
						}
					],
					"stateMutability": "view",
					"type": "function"
				},
				{
					"inputs": [
						{
							"internalType": "address",
							"name": "newOwner",
							"type": "address"
						}
					],
					"name": "transferOwnership",
					"outputs": [],
					"stateMutability": "nonpayable",
					"type": "function"
				},
				{
					"inputs": [],
					"name": "treasuryPoolAmount",
					"outputs": [
						{
							"internalType": "uint256",
							"name": "",
							"type": "uint256"
						}
					],
					"stateMutability": "view",
					"type": "function"
				},
				{
					"inputs": [
						{
							"internalType": "address",
							"name": "newImplementation",
							"type": "address"
						},
						{
							"internalType": "bytes",
							"name": "data",
							"type": "bytes"
						}
					],
					"name": "upgradeToAndCall",
					"outputs": [],
					"stateMutability": "payable",
					"type": "function"
				},
				{
					"inputs": [],
					"name": "usdcToken",
					"outputs": [
						{
							"internalType": "contract IBEP20",
							"name": "",
							"type": "address"
						}
					],
					"stateMutability": "view",
					"type": "function"
				},
				{
					"inputs": [
						{
							"internalType": "address",
							"name": "",
							"type": "address"
						}
					],
					"name": "userRegistered",
					"outputs": [
						{
							"internalType": "bool",
							"name": "blocked",
							"type": "bool"
						},
						{
							"internalType": "uint256",
							"name": "receivedAmount",
							"type": "uint256"
						},
						{
							"internalType": "uint256",
							"name": "withdrawAmount",
							"type": "uint256"
						},
						{
							"internalType": "uint256",
							"name": "receiveFromTreasury",
							"type": "uint256"
						},
						{
							"internalType": "uint256",
							"name": "receiveFromOwneerShip",
							"type": "uint256"
						},
						{
							"internalType": "uint256",
							"name": "totalStakedAmount",
							"type": "uint256"
						}
					],
					"stateMutability": "view",
					"type": "function"
				},
				{
					"inputs": [
						{
							"internalType": "uint256",
							"name": "_amount",
							"type": "uint256"
						}
					],
					"name": "userWithdrawAmoount",
					"outputs": [],
					"stateMutability": "nonpayable",
					"type": "function"
				},
				{
					"inputs": [],
					"name": "weeklyTransfer",
					"outputs": [],
					"stateMutability": "nonpayable",
					"type": "function"
				}
			],
			"devdoc": {
				"errors": {
					"AddressEmptyCode(address)": [
						{
							"details": "There's no code at `target` (it is not a contract)."
						}
					],
					"ERC1967InvalidImplementation(address)": [
						{
							"details": "The `implementation` of the proxy is invalid."
						}
					],
					"ERC1967NonPayable()": [
						{
							"details": "An upgrade function sees `msg.value > 0` that may be lost."
						}
					],
					"FailedInnerCall()": [
						{
							"details": "A call to an address target failed. The target may have reverted."
						}
					],
					"InvalidInitialization()": [
						{
							"details": "The contract is already initialized."
						}
					],
					"NotInitializing()": [
						{
							"details": "The contract is not initializing."
						}
					],
					"OwnableInvalidOwner(address)": [
						{
							"details": "The owner is not a valid owner account. (eg. `address(0)`)"
						}
					],
					"OwnableUnauthorizedAccount(address)": [
						{
							"details": "The caller account is not authorized to perform an operation."
						}
					],
					"UUPSUnauthorizedCallContext()": [
						{
							"details": "The call is from an unauthorized context."
						}
					],
					"UUPSUnsupportedProxiableUUID(bytes32)": [
						{
							"details": "The storage `slot` is unsupported as a UUID."
						}
					]
				},
				"events": {
					"Initialized(uint64)": {
						"details": "Triggered when the contract has been initialized or reinitialized."
					},
					"Upgraded(address)": {
						"details": "Emitted when the implementation is upgraded."
					}
				},
				"kind": "dev",
				"methods": {
					"constructor": {
						"custom:oz-upgrades-unsafe-allow": "constructor"
					},
					"owner()": {
						"details": "Returns the address of the current owner."
					},
					"proxiableUUID()": {
						"details": "Implementation of the ERC1822 {proxiableUUID} function. This returns the storage slot used by the implementation. It is used to validate the implementation's compatibility when performing an upgrade. IMPORTANT: A proxy pointing at a proxiable contract should not be considered proxiable itself, because this risks bricking a proxy that upgrades to it, by delegating to itself until out of gas. Thus it is critical that this function revert if invoked through a proxy. This is guaranteed by the `notDelegated` modifier."
					},
					"renounceOwnership()": {
						"details": "Leaves the contract without owner. It will not be possible to call `onlyOwner` functions. Can only be called by the current owner. NOTE: Renouncing ownership will leave the contract without an owner, thereby disabling any functionality that is only available to the owner."
					},
					"transferOwnership(address)": {
						"details": "Transfers ownership of the contract to a new account (`newOwner`). Can only be called by the current owner."
					},
					"upgradeToAndCall(address,bytes)": {
						"custom:oz-upgrades-unsafe-allow-reachable": "delegatecall",
						"details": "Upgrade the implementation of the proxy to `newImplementation`, and subsequently execute the function call encoded in `data`. Calls {_authorizeUpgrade}. Emits an {Upgraded} event."
					}
				},
				"version": 1
			},
			"evm": {
				"assembly": "    /* \"DripWarrior/poolContract.sol\":896:17969  contract PoolContrcat is Initializable, OwnableUpgradeable, UUPSUpgradeable, AutomationCompatibleInterface {... */\n  mstore(0x40, 0xa0)\n    /* \"@openzeppelin/contracts-upgradeable/proxy/utils/UUPSUpgradeable.sol\":1171:1175  this */\n  address\n    /* \"@openzeppelin/contracts-upgradeable/proxy/utils/UUPSUpgradeable.sol\":1128:1176  address private immutable __self = address(this) */\n  0x80\n  mstore\n    /* \"DripWarrior/poolContract.sol\":4233:4286  constructor() {... */\n  callvalue\n  dup1\n  iszero\n  tag_1\n  jumpi\n  0x00\n  dup1\n  revert\ntag_1:\n  pop\n    /* \"DripWarrior/poolContract.sol\":4257:4279  _disableInitializers() */\n  tag_4\n    /* \"DripWarrior/poolContract.sol\":4257:4277  _disableInitializers */\n  tag_5\n    /* \"DripWarrior/poolContract.sol\":4257:4279  _disableInitializers() */\n  jump\t// in\ntag_4:\n    /* \"DripWarrior/poolContract.sol\":896:17969  contract PoolContrcat is Initializable, OwnableUpgradeable, UUPSUpgradeable, AutomationCompatibleInterface {... */\n  jump(tag_15)\n    /* \"@openzeppelin/contracts-upgradeable/proxy/utils/Initializable.sol\":7711:8133  function _disableInitializers() internal virtual {... */\ntag_5:\n    /* \"@openzeppelin/contracts-upgradeable/proxy/utils/Initializable.sol\":8870:8891  INITIALIZABLE_STORAGE */\n  0xf0c57e16840df040f15088dc2f81fe391c3923bec73e23a9662efc9c229c6a00\n    /* \"@openzeppelin/contracts-upgradeable/proxy/utils/Initializable.sol\":7900:7915  $._initializing */\n  dup1\n  sload\n  0x010000000000000000\n  swap1\n  div\n  0xff\n  and\n    /* \"@openzeppelin/contracts-upgradeable/proxy/utils/Initializable.sol\":7896:7972  if ($._initializing) {... */\n  iszero\n  tag_10\n  jumpi\n    /* \"@openzeppelin/contracts-upgradeable/proxy/utils/Initializable.sol\":7938:7961  InvalidInitialization() */\n  mload(0x40)\n  shl(0xe0, 0xf92ee8a9)\n  dup2\n  mstore\n  0x04\n  add\n  mload(0x40)\n  dup1\n  swap2\n  sub\n  swap1\n  revert\n    /* \"@openzeppelin/contracts-upgradeable/proxy/utils/Initializable.sol\":7896:7972  if ($._initializing) {... */\ntag_10:\n    /* \"@openzeppelin/contracts-upgradeable/proxy/utils/Initializable.sol\":7985:7999  $._initialized */\n  dup1\n  sload\n  sub(shl(0x40, 0x01), 0x01)\n  swap1\n  dup2\n  and\n    /* \"@openzeppelin/contracts-upgradeable/proxy/utils/Initializable.sol\":7985:8019  $._initialized != type(uint64).max */\n  eq\n    /* \"@openzeppelin/contracts-upgradeable/proxy/utils/Initializable.sol\":7981:8127  if ($._initialized != type(uint64).max) {... */\n  tag_11\n  jumpi\n    /* \"@openzeppelin/contracts-upgradeable/proxy/utils/Initializable.sol\":8035:8068  $._initialized = type(uint64).max */\n  dup1\n  sload\n  not(sub(shl(0x40, 0x01), 0x01))\n  and\n  sub(shl(0x40, 0x01), 0x01)\n  swap1\n  dup2\n  or\n  dup3\n  sstore\n    /* \"@openzeppelin/contracts-upgradeable/proxy/utils/Initializable.sol\":8087:8116  Initialized(type(uint64).max) */\n  mload(0x40)\n    /* \"#utility.yul\":158:208   */\n  swap1\n  dup2\n  mstore\n    /* \"@openzeppelin/contracts-upgradeable/proxy/utils/Initializable.sol\":8087:8116  Initialized(type(uint64).max) */\n  0xc7f505b2f371ae2175ee4913f4499e1f2633a7b5936321eed1cdaeb6115181d2\n  swap1\n    /* \"#utility.yul\":146:148   */\n  0x20\n    /* \"#utility.yul\":131:149   */\n  add\n    /* \"@openzeppelin/contracts-upgradeable/proxy/utils/Initializable.sol\":8087:8116  Initialized(type(uint64).max) */\n  mload(0x40)\n  dup1\n  swap2\n  sub\n  swap1\n  log1\n    /* \"@openzeppelin/contracts-upgradeable/proxy/utils/Initializable.sol\":7981:8127  if ($._initialized != type(uint64).max) {... */\ntag_11:\n    /* \"@openzeppelin/contracts-upgradeable/proxy/utils/Initializable.sol\":7760:8133  {... */\n  pop\n    /* \"@openzeppelin/contracts-upgradeable/proxy/utils/Initializable.sol\":7711:8133  function _disableInitializers() internal virtual {... */\n  jump\t// out\n    /* \"#utility.yul\":14:214   */\ntag_15:\n    /* \"DripWarrior/poolContract.sol\":896:17969  contract PoolContrcat is Initializable, OwnableUpgradeable, UUPSUpgradeable, AutomationCompatibleInterface {... */\n  mload(0x80)\n  codecopy(0x00, dataOffset(sub_0), dataSize(sub_0))\n  0x00\n  assignImmutable(\"0x6740f0f1ed974f4bbc4ea3ddf8917f81b1171208e4ec27e89df857ca2a56624a\")\n  return(0x00, dataSize(sub_0))\nstop\n\nsub_0: assembly {\n        /* \"DripWarrior/poolContract.sol\":896:17969  contract PoolContrcat is Initializable, OwnableUpgradeable, UUPSUpgradeable, AutomationCompatibleInterface {... */\n      mstore(0x40, 0x80)\n      jumpi(tag_1, lt(calldatasize, 0x04))\n      shr(0xe0, calldataload(0x00))\n      dup1\n      0x7547c7a3\n      gt\n      tag_51\n      jumpi\n      dup1\n      0xad8e5ec4\n      gt\n      tag_52\n      jumpi\n      dup1\n      0xd777cc6d\n      gt\n      tag_53\n      jumpi\n      dup1\n      0xed061067\n      gt\n      tag_54\n      jumpi\n      dup1\n      0xed061067\n      eq\n      tag_47\n      jumpi\n      dup1\n      0xf0664a4f\n      eq\n      tag_48\n      jumpi\n      dup1\n      0xf2fde38b\n      eq\n      tag_49\n      jumpi\n      dup1\n      0xff3d65d9\n      eq\n      tag_50\n      jumpi\n      0x00\n      dup1\n      revert\n    tag_54:\n      dup1\n      0xd777cc6d\n      eq\n      tag_44\n      jumpi\n      dup1\n      0xd9b998b4\n      eq\n      tag_45\n      jumpi\n      dup1\n      0xe9c68e2c\n      eq\n      tag_46\n      jumpi\n      0x00\n      dup1\n      revert\n    tag_53:\n      dup1\n      0xad8e5ec4\n      eq\n      tag_38\n      jumpi\n      dup1\n      0xb47ff951\n      eq\n      tag_39\n      jumpi\n      dup1\n      0xb9dac1eb\n      eq\n      tag_40\n      jumpi\n      dup1\n      0xbccbc36c\n      eq\n      tag_41\n      jumpi\n      dup1\n      0xc7fd5bf0\n      eq\n      tag_42\n      jumpi\n      dup1\n      0xce356a24\n      eq\n      tag_43\n      jumpi\n      0x00\n      dup1\n      revert\n    tag_52:\n      dup1\n      0x85f45250\n      gt\n      tag_55\n      jumpi\n      dup1\n      0x85f45250\n      eq\n      tag_32\n      jumpi\n      dup1\n      0x8da5cb5b\n      eq\n      tag_33\n      jumpi\n      dup1\n      0x947a36fb\n      eq\n      tag_34\n      jumpi\n      dup1\n      0x9c361e4e\n      eq\n      tag_35\n      jumpi\n      dup1\n      0xa4f67b8b\n      eq\n      tag_36\n      jumpi\n      dup1\n      0xad3cb1cc\n      eq\n      tag_37\n      jumpi\n      0x00\n      dup1\n      revert\n    tag_55:\n      dup1\n      0x7547c7a3\n      eq\n      tag_26\n      jumpi\n      dup1\n      0x78fd078d\n      eq\n      tag_27\n      jumpi\n      dup1\n      0x7f111e60\n      eq\n      tag_28\n      jumpi\n      dup1\n      0x7f70c5e7\n      eq\n      tag_29\n      jumpi\n      dup1\n      0x7ffe4d93\n      eq\n      tag_30\n      jumpi\n      dup1\n      0x83aa9985\n      eq\n      tag_31\n      jumpi\n      0x00\n      dup1\n      revert\n    tag_51:\n      dup1\n      0x44490ff4\n      gt\n      tag_56\n      jumpi\n      dup1\n      0x567e98f9\n      gt\n      tag_57\n      jumpi\n      dup1\n      0x567e98f9\n      eq\n      tag_20\n      jumpi\n      dup1\n      0x5f17e616\n      eq\n      tag_21\n      jumpi\n      dup1\n      0x6626b26d\n      eq\n      tag_22\n      jumpi\n      dup1\n      0x67976974\n      eq\n      tag_23\n      jumpi\n      dup1\n      0x6e04ff0d\n      eq\n      tag_24\n      jumpi\n      dup1\n      0x715018a6\n      eq\n      tag_25\n      jumpi\n      0x00\n      dup1\n      revert\n    tag_57:\n      dup1\n      0x44490ff4\n      eq\n      tag_14\n      jumpi\n      dup1\n      0x4585e33b\n      eq\n      tag_15\n      jumpi\n      dup1\n      0x4f1ef286\n      eq\n      tag_16\n      jumpi\n      dup1\n      0x5256dbbf\n      eq\n      tag_17\n      jumpi\n      dup1\n      0x52d1902d\n      eq\n      tag_18\n      jumpi\n      dup1\n      0x5462870d\n      eq\n      tag_19\n      jumpi\n      0x00\n      dup1\n      revert\n    tag_56:\n      dup1\n      0x30cac972\n      gt\n      tag_58\n      jumpi\n      dup1\n      0x30cac972\n      eq\n      tag_8\n      jumpi\n      dup1\n      0x33244c2c\n      eq\n      tag_9\n      jumpi\n      dup1\n      0x34107c87\n      eq\n      tag_10\n      jumpi\n      dup1\n      0x39518b5e\n      eq\n      tag_11\n      jumpi\n      dup1\n      0x3a71a9e4\n      eq\n      tag_12\n      jumpi\n      dup1\n      0x3f3b3b27\n      eq\n      tag_13\n      jumpi\n      0x00\n      dup1\n      revert\n    tag_58:\n      dup1\n      0x01934a83\n      eq\n      tag_2\n      jumpi\n      dup1\n      0x11eac855\n      eq\n      tag_3\n      jumpi\n      dup1\n      0x1459457a\n      eq\n      tag_4\n      jumpi\n      dup1\n      0x188e07b9\n      eq\n      tag_5\n      jumpi\n      dup1\n      0x2765df7a\n      eq\n      tag_6\n      jumpi\n      dup1\n      0x3070fbf8\n      eq\n      tag_7\n      jumpi\n    tag_1:\n      0x00\n      dup1\n      revert\n        /* \"DripWarrior/poolContract.sol\":1344:1368  uint256 public noOfUsers */\n    tag_2:\n      callvalue\n      dup1\n      iszero\n      tag_59\n      jumpi\n      0x00\n      dup1\n      revert\n    tag_59:\n      pop\n      tag_60\n      sload(0x08)\n      dup2\n      jump\n    tag_60:\n      mload(0x40)\n        /* \"#utility.yul\":160:185   */\n      swap1\n      dup2\n      mstore\n        /* \"#utility.yul\":148:150   */\n      0x20\n        /* \"#utility.yul\":133:151   */\n      add\n        /* \"DripWarrior/poolContract.sol\":1344:1368  uint256 public noOfUsers */\n    tag_62:\n      mload(0x40)\n      dup1\n      swap2\n      sub\n      swap1\n      return\n        /* \"DripWarrior/poolContract.sol\":1010:1033  IBEP20 public usdcToken */\n    tag_3:\n      callvalue\n      dup1\n      iszero\n      tag_64\n      jumpi\n      0x00\n      dup1\n      revert\n    tag_64:\n      pop\n      sload(0x00)\n      tag_65\n      swap1\n      sub(shl(0xa0, 0x01), 0x01)\n      and\n      dup2\n      jump\n    tag_65:\n      mload(0x40)\n      sub(shl(0xa0, 0x01), 0x01)\n        /* \"#utility.yul\":375:407   */\n      swap1\n      swap2\n      and\n        /* \"#utility.yul\":357:408   */\n      dup2\n      mstore\n        /* \"#utility.yul\":345:347   */\n      0x20\n        /* \"#utility.yul\":330:348   */\n      add\n        /* \"DripWarrior/poolContract.sol\":1010:1033  IBEP20 public usdcToken */\n      tag_62\n        /* \"#utility.yul\":196:414   */\n      jump\n        /* \"DripWarrior/poolContract.sol\":4292:5194  function initialize(... */\n    tag_4:\n      callvalue\n      dup1\n      iszero\n      tag_69\n      jumpi\n      0x00\n      dup1\n      revert\n    tag_69:\n      pop\n      tag_70\n      tag_71\n      calldatasize\n      0x04\n      tag_72\n      jump\t// in\n    tag_71:\n      tag_73\n      jump\t// in\n    tag_70:\n      stop\n        /* \"DripWarrior/poolContract.sol\":1044:1077  uint256 public treasuryPoolAmount */\n    tag_5:\n      callvalue\n      dup1\n      iszero\n      tag_74\n      jumpi\n      0x00\n      dup1\n      revert\n    tag_74:\n      pop\n      tag_60\n      sload(0x01)\n      dup2\n      jump\n        /* \"DripWarrior/poolContract.sol\":5207:5544  function addProjects(uint256 _tPPercentage) external bothOwner(){... */\n    tag_6:\n      callvalue\n      dup1\n      iszero\n      tag_78\n      jumpi\n      0x00\n      dup1\n      revert\n    tag_78:\n      pop\n      tag_70\n      tag_80\n      calldatasize\n      0x04\n      tag_81\n      jump\t// in\n    tag_80:\n      tag_82\n      jump\t// in\n        /* \"DripWarrior/poolContract.sol\":1710:1743  address public s_forwarderAddress */\n    tag_7:\n      callvalue\n      dup1\n      iszero\n      tag_83\n      jumpi\n      0x00\n      dup1\n      revert\n    tag_83:\n      pop\n      sload(0x0e)\n      tag_65\n      swap1\n      sub(shl(0xa0, 0x01), 0x01)\n      and\n      dup2\n      jump\n        /* \"DripWarrior/poolContract.sol\":1512:1539  uint256 public realInterval */\n    tag_8:\n      callvalue\n      dup1\n      iszero\n      tag_88\n      jumpi\n      0x00\n      dup1\n      revert\n    tag_88:\n      pop\n      tag_60\n      sload(0x0b)\n      dup2\n      jump\n        /* \"DripWarrior/poolContract.sol\":1162:1202  uint256 public tdividentPayoutPercentage */\n    tag_9:\n      callvalue\n      dup1\n      iszero\n      tag_92\n      jumpi\n      0x00\n      dup1\n      revert\n    tag_92:\n      pop\n      tag_60\n      sload(0x04)\n      dup2\n      jump\n        /* \"DripWarrior/poolContract.sol\":7179:7826  function stakeTokensByOwner(uint256[] memory _amount, address[] memory users) external bothOwner() {... */\n    tag_10:\n      callvalue\n      dup1\n      iszero\n      tag_96\n      jumpi\n      0x00\n      dup1\n      revert\n    tag_96:\n      pop\n      tag_70\n      tag_98\n      calldatasize\n      0x04\n      tag_99\n      jump\t// in\n    tag_98:\n      tag_100\n      jump\t// in\n        /* \"DripWarrior/poolContract.sol\":1592:1619  uint256 public startingTime */\n    tag_11:\n      callvalue\n      dup1\n      iszero\n      tag_101\n      jumpi\n      0x00\n      dup1\n      revert\n    tag_101:\n      pop\n      tag_60\n      sload(0x0c)\n      dup2\n      jump\n        /* \"DripWarrior/poolContract.sol\":1299:1337  uint256 public maintainceFeePercentage */\n    tag_12:\n      callvalue\n      dup1\n      iszero\n      tag_105\n      jumpi\n      0x00\n      dup1\n      revert\n    tag_105:\n      pop\n      tag_60\n      sload(0x07)\n      dup2\n      jump\n        /* \"DripWarrior/poolContract.sol\":1626:1654  uint256 public lastTimeStamp */\n    tag_13:\n      callvalue\n      dup1\n      iszero\n      tag_109\n      jumpi\n      0x00\n      dup1\n      revert\n    tag_109:\n      pop\n      tag_60\n      sload(0x0d)\n      dup2\n      jump\n        /* \"DripWarrior/poolContract.sol\":1208:1248  uint256 public odividentPayoutPercentage */\n    tag_14:\n      callvalue\n      dup1\n      iszero\n      tag_113\n      jumpi\n      0x00\n      dup1\n      revert\n    tag_113:\n      pop\n      tag_60\n      sload(0x05)\n      dup2\n      jump\n        /* \"DripWarrior/poolContract.sol\":12528:13161  function performUpkeep(bytes calldata /*performData*/) external  {... */\n    tag_15:\n      callvalue\n      dup1\n      iszero\n      tag_117\n      jumpi\n      0x00\n      dup1\n      revert\n    tag_117:\n      pop\n      tag_70\n      tag_119\n      calldatasize\n      0x04\n      tag_120\n      jump\t// in\n    tag_119:\n      tag_121\n      jump\t// in\n        /* \"@openzeppelin/contracts-upgradeable/proxy/utils/UUPSUpgradeable.sol\":4158:4372  function upgradeToAndCall(address newImplementation, bytes memory data) public payable virtual onlyProxy {... */\n    tag_16:\n      tag_70\n      tag_123\n      calldatasize\n      0x04\n      tag_124\n      jump\t// in\n    tag_123:\n      tag_125\n      jump\t// in\n        /* \"DripWarrior/poolContract.sol\":5961:6360  function addTreasuery(uint256 _amount) external bothOwner(){... */\n    tag_17:\n      callvalue\n      dup1\n      iszero\n      tag_126\n      jumpi\n      0x00\n      dup1\n      revert\n    tag_126:\n      pop\n      tag_70\n      tag_128\n      calldatasize\n      0x04\n      tag_81\n      jump\t// in\n    tag_128:\n      tag_129\n      jump\t// in\n        /* \"@openzeppelin/contracts-upgradeable/proxy/utils/UUPSUpgradeable.sol\":3705:3839  function proxiableUUID() external view virtual notDelegated returns (bytes32) {... */\n    tag_18:\n      callvalue\n      dup1\n      iszero\n      tag_130\n      jumpi\n      0x00\n      dup1\n      revert\n    tag_130:\n      pop\n      tag_60\n      tag_132\n      jump\t// in\n        /* \"DripWarrior/poolContract.sol\":1374:1404  address public multisigAddress */\n    tag_19:\n      callvalue\n      dup1\n      iszero\n      tag_135\n      jumpi\n      0x00\n      dup1\n      revert\n    tag_135:\n      pop\n      sload(0x09)\n      tag_65\n      swap1\n      sub(shl(0xa0, 0x01), 0x01)\n      and\n      dup2\n      jump\n        /* \"DripWarrior/poolContract.sol\":1123:1155  uint256 public totalStakedAmount */\n    tag_20:\n      callvalue\n      dup1\n      iszero\n      tag_139\n      jumpi\n      0x00\n      dup1\n      revert\n    tag_139:\n      pop\n      tag_60\n      sload(0x03)\n      dup2\n      jump\n        /* \"DripWarrior/poolContract.sol\":13172:13714  function setInterval (uint256 _startingTime, uint256 updateInterval) external  bothOwner{... */\n    tag_21:\n      callvalue\n      dup1\n      iszero\n      tag_143\n      jumpi\n      0x00\n      dup1\n      revert\n    tag_143:\n      pop\n      tag_70\n      tag_145\n      calldatasize\n      0x04\n      tag_146\n      jump\t// in\n    tag_145:\n      tag_147\n      jump\t// in\n        /* \"DripWarrior/poolContract.sol\":13720:13840  function off () external  bothOwner{... */\n    tag_22:\n      callvalue\n      dup1\n      iszero\n      tag_148\n      jumpi\n      0x00\n      dup1\n      revert\n    tag_148:\n      pop\n      tag_70\n      tag_150\n      jump\t// in\n        /* \"DripWarrior/poolContract.sol\":14639:15280  function userWithdrawAmoount(uint256 _amount) external nonReentrant {... */\n    tag_23:\n      callvalue\n      dup1\n      iszero\n      tag_151\n      jumpi\n      0x00\n      dup1\n      revert\n    tag_151:\n      pop\n      tag_70\n      tag_153\n      calldatasize\n      0x04\n      tag_81\n      jump\t// in\n    tag_153:\n      tag_154\n      jump\t// in\n        /* \"DripWarrior/poolContract.sol\":12282:12517  function checkUpkeep(bytes calldata /*checkData*/) external override view  returns (bool, bytes memory) {... */\n    tag_24:\n      callvalue\n      dup1\n      iszero\n      tag_155\n      jumpi\n      0x00\n      dup1\n      revert\n    tag_155:\n      pop\n      tag_156\n      tag_157\n      calldatasize\n      0x04\n      tag_120\n      jump\t// in\n    tag_157:\n      tag_158\n      jump\t// in\n    tag_156:\n      mload(0x40)\n      tag_62\n      swap3\n      swap2\n      swap1\n      tag_160\n      jump\t// in\n        /* \"@openzeppelin/contracts-upgradeable/access/OwnableUpgradeable.sol\":3155:3256  function renounceOwnership() public virtual onlyOwner {... */\n    tag_25:\n      callvalue\n      dup1\n      iszero\n      tag_161\n      jumpi\n      0x00\n      dup1\n      revert\n    tag_161:\n      pop\n      tag_70\n      tag_163\n      jump\t// in\n        /* \"DripWarrior/poolContract.sol\":6366:7168  function stakeTokens(uint256 _amount) external  {... */\n    tag_26:\n      callvalue\n      dup1\n      iszero\n      tag_164\n      jumpi\n      0x00\n      dup1\n      revert\n    tag_164:\n      pop\n      tag_70\n      tag_166\n      calldatasize\n      0x04\n      tag_81\n      jump\t// in\n    tag_166:\n      tag_167\n      jump\t// in\n        /* \"DripWarrior/poolContract.sol\":5550:5951  function addOwnership(uint256 _amount) external bothOwner(){... */\n    tag_27:\n      callvalue\n      dup1\n      iszero\n      tag_168\n      jumpi\n      0x00\n      dup1\n      revert\n    tag_168:\n      pop\n      tag_70\n      tag_170\n      calldatasize\n      0x04\n      tag_81\n      jump\t// in\n    tag_170:\n      tag_171\n      jump\t// in\n        /* \"DripWarrior/poolContract.sol\":17211:17534  function setmaintainceFeePercentage(uint256 _newPerccentage) external bothOwner {... */\n    tag_28:\n      callvalue\n      dup1\n      iszero\n      tag_172\n      jumpi\n      0x00\n      dup1\n      revert\n    tag_172:\n      pop\n      tag_70\n      tag_174\n      calldatasize\n      0x04\n      tag_81\n      jump\t// in\n    tag_174:\n      tag_175\n      jump\t// in\n        /* \"DripWarrior/poolContract.sol\":16200:16530  function settdividentPayoutPercentage(uint256 _newPerccentage) external bothOwner {... */\n    tag_29:\n      callvalue\n      dup1\n      iszero\n      tag_176\n      jumpi\n      0x00\n      dup1\n      revert\n    tag_176:\n      pop\n      tag_70\n      tag_178\n      calldatasize\n      0x04\n      tag_81\n      jump\t// in\n    tag_178:\n      tag_179\n      jump\t// in\n        /* \"DripWarrior/poolContract.sol\":7833:8511  function reStakeTokens(uint256 _amount) external  {... */\n    tag_30:\n      callvalue\n      dup1\n      iszero\n      tag_180\n      jumpi\n      0x00\n      dup1\n      revert\n    tag_180:\n      pop\n      tag_70\n      tag_182\n      calldatasize\n      0x04\n      tag_81\n      jump\t// in\n    tag_182:\n      tag_183\n      jump\t// in\n        /* \"DripWarrior/poolContract.sol\":1779:1802  address public ownerTwo */\n    tag_31:\n      callvalue\n      dup1\n      iszero\n      tag_184\n      jumpi\n      0x00\n      dup1\n      revert\n    tag_184:\n      pop\n      sload(0x10)\n      tag_65\n      swap1\n      sub(shl(0xa0, 0x01), 0x01)\n      and\n      dup2\n      jump\n        /* \"DripWarrior/poolContract.sol\":8521:9062  function addFunds(uint256 _amount, uint256 _projectNo)   external {... */\n    tag_32:\n      callvalue\n      dup1\n      iszero\n      tag_188\n      jumpi\n      0x00\n      dup1\n      revert\n    tag_188:\n      pop\n      tag_70\n      tag_190\n      calldatasize\n      0x04\n      tag_146\n      jump\t// in\n    tag_190:\n      tag_191\n      jump\t// in\n        /* \"@openzeppelin/contracts-upgradeable/access/OwnableUpgradeable.sol\":2441:2585  function owner() public view virtual returns (address) {... */\n    tag_33:\n      callvalue\n      dup1\n      iszero\n      tag_192\n      jumpi\n      0x00\n      dup1\n      revert\n    tag_192:\n      pop\n        /* \"@openzeppelin/contracts-upgradeable/access/OwnableUpgradeable.sol\":1313:1335  OwnableStorageLocation */\n      0x9016d09d72d40fdae2fd8ceac6b6234c7706214fd39c1cd1e609a0528c199300\n        /* \"@openzeppelin/contracts-upgradeable/access/OwnableUpgradeable.sol\":2570:2578  $._owner */\n      sload\n      sub(shl(0xa0, 0x01), 0x01)\n      and\n        /* \"@openzeppelin/contracts-upgradeable/access/OwnableUpgradeable.sol\":2441:2585  function owner() public view virtual returns (address) {... */\n      jump(tag_65)\n        /* \"DripWarrior/poolContract.sol\":1436:1459  uint256 public interval */\n    tag_34:\n      callvalue\n      dup1\n      iszero\n      tag_196\n      jumpi\n      0x00\n      dup1\n      revert\n    tag_196:\n      pop\n      tag_60\n      sload(0x0a)\n      dup2\n      jump\n        /* \"DripWarrior/poolContract.sol\":2041:2069  uint256 public totalProjects */\n    tag_35:\n      callvalue\n      dup1\n      iszero\n      tag_200\n      jumpi\n      0x00\n      dup1\n      revert\n    tag_200:\n      pop\n      tag_60\n      sload(0x11)\n      dup2\n      jump\n        /* \"DripWarrior/poolContract.sol\":2125:2170  mapping(uint256 => address) public totalUsers */\n    tag_36:\n      callvalue\n      dup1\n      iszero\n      tag_204\n      jumpi\n      0x00\n      dup1\n      revert\n    tag_204:\n      pop\n      tag_65\n      tag_206\n      calldatasize\n      0x04\n      tag_81\n      jump\t// in\n    tag_206:\n      mstore(0x20, 0x13)\n      0x00\n      swap1\n      dup2\n      mstore\n      0x40\n      swap1\n      keccak256\n      sload\n      sub(shl(0xa0, 0x01), 0x01)\n      and\n      dup2\n      jump\n        /* \"@openzeppelin/contracts-upgradeable/proxy/utils/UUPSUpgradeable.sol\":1819:1877  string public constant UPGRADE_INTERFACE_VERSION = \"5.0.0\" */\n    tag_37:\n      callvalue\n      dup1\n      iszero\n      tag_209\n      jumpi\n      0x00\n      dup1\n      revert\n    tag_209:\n      pop\n      tag_210\n      mload(0x40)\n      dup1\n      0x40\n      add\n      0x40\n      mstore\n      dup1\n      0x05\n      dup2\n      mstore\n      0x20\n      add\n      shl(0xdc, 0x0352e302e3)\n      dup2\n      mstore\n      pop\n      dup2\n      jump\n    tag_210:\n      mload(0x40)\n      tag_62\n      swap2\n      swap1\n      tag_213\n      jump\t// in\n        /* \"DripWarrior/poolContract.sol\":16880:17205  function setflowToTreasuryPercentage(uint256 _newPerccentage) external bothOwner {... */\n    tag_38:\n      callvalue\n      dup1\n      iszero\n      tag_214\n      jumpi\n      0x00\n      dup1\n      revert\n    tag_214:\n      pop\n      tag_70\n      tag_216\n      calldatasize\n      0x04\n      tag_81\n      jump\t// in\n    tag_216:\n      tag_217\n      jump\t// in\n        /* \"DripWarrior/poolContract.sol\":1083:1117  uint256 public ownerShipPoolAmount */\n    tag_39:\n      callvalue\n      dup1\n      iszero\n      tag_218\n      jumpi\n      0x00\n      dup1\n      revert\n    tag_218:\n      pop\n      tag_60\n      sload(0x02)\n      dup2\n      jump\n        /* \"DripWarrior/poolContract.sol\":16540:16869  function setodividentPayoutPercentage(uint256 _newPerccentage) external bothOwner {... */\n    tag_40:\n      callvalue\n      dup1\n      iszero\n      tag_222\n      jumpi\n      0x00\n      dup1\n      revert\n    tag_222:\n      pop\n      tag_70\n      tag_224\n      calldatasize\n      0x04\n      tag_81\n      jump\t// in\n    tag_224:\n      tag_225\n      jump\t// in\n        /* \"DripWarrior/poolContract.sol\":2230:2286  mapping(address => UserRegistered) public userRegistered */\n    tag_41:\n      callvalue\n      dup1\n      iszero\n      tag_226\n      jumpi\n      0x00\n      dup1\n      revert\n    tag_226:\n      pop\n      tag_227\n      tag_228\n      calldatasize\n      0x04\n      tag_229\n      jump\t// in\n    tag_228:\n      mstore(0x20, 0x15)\n      0x00\n      swap1\n      dup2\n      mstore\n      0x40\n      swap1\n      keccak256\n      dup1\n      sload\n      0x01\n      dup3\n      add\n      sload\n      0x02\n      dup4\n      add\n      sload\n      0x03\n      dup5\n      add\n      sload\n      0x04\n      dup6\n      add\n      sload\n      0x05\n      swap1\n      swap6\n      add\n      sload\n      0xff\n      swap1\n      swap5\n      and\n      swap5\n      swap3\n      swap4\n      swap2\n      swap3\n      swap1\n      swap2\n      dup7\n      jump\n    tag_227:\n      0x40\n      dup1\n      mload\n        /* \"#utility.yul\":7289:7303   */\n      swap7\n      iszero\n        /* \"#utility.yul\":7282:7304   */\n      iszero\n        /* \"#utility.yul\":7264:7305   */\n      dup8\n      mstore\n        /* \"#utility.yul\":7336:7338   */\n      0x20\n        /* \"#utility.yul\":7321:7339   */\n      dup8\n      add\n        /* \"#utility.yul\":7314:7348   */\n      swap6\n      swap1\n      swap6\n      mstore\n        /* \"#utility.yul\":7364:7382   */\n      swap4\n      dup6\n      add\n        /* \"#utility.yul\":7357:7391   */\n      swap3\n      swap1\n      swap3\n      mstore\n        /* \"#utility.yul\":7422:7424   */\n      0x60\n        /* \"#utility.yul\":7407:7425   */\n      dup5\n      add\n        /* \"#utility.yul\":7400:7434   */\n      mstore\n        /* \"#utility.yul\":7465:7468   */\n      0x80\n        /* \"#utility.yul\":7450:7469   */\n      dup4\n      add\n        /* \"#utility.yul\":7443:7478   */\n      mstore\n        /* \"#utility.yul\":7509:7512   */\n      0xa0\n        /* \"#utility.yul\":7494:7513   */\n      dup3\n      add\n        /* \"#utility.yul\":7487:7522   */\n      mstore\n        /* \"#utility.yul\":7251:7254   */\n      0xc0\n        /* \"#utility.yul\":7236:7255   */\n      add\n        /* \"DripWarrior/poolContract.sol\":2230:2286  mapping(address => UserRegistered) public userRegistered */\n      tag_62\n        /* \"#utility.yul\":6983:7528   */\n      jump\n        /* \"DripWarrior/poolContract.sol\":2075:2119  mapping(address => bool) public alreadyAdded */\n    tag_42:\n      callvalue\n      dup1\n      iszero\n      tag_233\n      jumpi\n      0x00\n      dup1\n      revert\n    tag_233:\n      pop\n      tag_234\n      tag_235\n      calldatasize\n      0x04\n      tag_229\n      jump\t// in\n    tag_235:\n      mstore(0x20, 0x12)\n      0x00\n      swap1\n      dup2\n      mstore\n      0x40\n      swap1\n      keccak256\n      sload\n      0xff\n      and\n      dup2\n      jump\n    tag_234:\n      mload(0x40)\n        /* \"#utility.yul\":7698:7712   */\n      swap1\n      iszero\n        /* \"#utility.yul\":7691:7713   */\n      iszero\n        /* \"#utility.yul\":7673:7714   */\n      dup2\n      mstore\n        /* \"#utility.yul\":7661:7663   */\n      0x20\n        /* \"#utility.yul\":7646:7664   */\n      add\n        /* \"DripWarrior/poolContract.sol\":2075:2119  mapping(address => bool) public alreadyAdded */\n      tag_62\n        /* \"#utility.yul\":7533:7720   */\n      jump\n        /* \"DripWarrior/poolContract.sol\":1254:1293  uint256 public flowToTreasuryPercentage */\n    tag_43:\n      callvalue\n      dup1\n      iszero\n      tag_239\n      jumpi\n      0x00\n      dup1\n      revert\n    tag_239:\n      pop\n      tag_60\n      sload(0x06)\n      dup2\n      jump\n        /* \"DripWarrior/poolContract.sol\":13847:14165  function setForwarderAddress(address forwarderAddress) external bothOwner {... */\n    tag_44:\n      callvalue\n      dup1\n      iszero\n      tag_243\n      jumpi\n      0x00\n      dup1\n      revert\n    tag_243:\n      pop\n      tag_70\n      tag_245\n      calldatasize\n      0x04\n      tag_229\n      jump\t// in\n    tag_245:\n      tag_246\n      jump\t// in\n        /* \"DripWarrior/poolContract.sol\":15286:15840  function blockUser(address _userAddress, bool value) external bothOwner {... */\n    tag_45:\n      callvalue\n      dup1\n      iszero\n      tag_247\n      jumpi\n      0x00\n      dup1\n      revert\n    tag_247:\n      pop\n      tag_70\n      tag_249\n      calldatasize\n      0x04\n      tag_250\n      jump\t// in\n    tag_249:\n      tag_251\n      jump\t// in\n        /* \"DripWarrior/poolContract.sol\":9456:11079  function weeklyTransfer() public  {... */\n    tag_46:\n      callvalue\n      dup1\n      iszero\n      tag_252\n      jumpi\n      0x00\n      dup1\n      revert\n    tag_252:\n      pop\n      tag_70\n      tag_254\n      jump\t// in\n        /* \"DripWarrior/poolContract.sol\":15852:16194  function setTeasueryPercentages(uint256 _projectId,uint256 _newPerccentage) external bothOwner {... */\n    tag_47:\n      callvalue\n      dup1\n      iszero\n      tag_255\n      jumpi\n      0x00\n      dup1\n      revert\n    tag_255:\n      pop\n      tag_70\n      tag_257\n      calldatasize\n      0x04\n      tag_146\n      jump\t// in\n    tag_257:\n      tag_258\n      jump\t// in\n        /* \"DripWarrior/poolContract.sol\":1750:1773  address public ownerOne */\n    tag_48:\n      callvalue\n      dup1\n      iszero\n      tag_259\n      jumpi\n      0x00\n      dup1\n      revert\n    tag_259:\n      pop\n      sload(0x0f)\n      tag_65\n      swap1\n      sub(shl(0xa0, 0x01), 0x01)\n      and\n      dup2\n      jump\n        /* \"@openzeppelin/contracts-upgradeable/access/OwnableUpgradeable.sol\":3405:3620  function transferOwnership(address newOwner) public virtual onlyOwner {... */\n    tag_49:\n      callvalue\n      dup1\n      iszero\n      tag_263\n      jumpi\n      0x00\n      dup1\n      revert\n    tag_263:\n      pop\n      tag_70\n      tag_265\n      calldatasize\n      0x04\n      tag_229\n      jump\t// in\n    tag_265:\n      tag_266\n      jump\t// in\n        /* \"DripWarrior/poolContract.sol\":2176:2224  mapping(uint256 => uint256) public tPPercentages */\n    tag_50:\n      callvalue\n      dup1\n      iszero\n      tag_267\n      jumpi\n      0x00\n      dup1\n      revert\n    tag_267:\n      pop\n      tag_60\n      tag_269\n      calldatasize\n      0x04\n      tag_81\n      jump\t// in\n    tag_269:\n      mstore(0x20, 0x14)\n      0x00\n      swap1\n      dup2\n      mstore\n      0x40\n      swap1\n      keccak256\n      sload\n      dup2\n      jump\n        /* \"DripWarrior/poolContract.sol\":4292:5194  function initialize(... */\n    tag_73:\n        /* \"@openzeppelin/contracts-upgradeable/proxy/utils/Initializable.sol\":8870:8891  INITIALIZABLE_STORAGE */\n      0xf0c57e16840df040f15088dc2f81fe391c3923bec73e23a9662efc9c229c6a00\n        /* \"@openzeppelin/contracts-upgradeable/proxy/utils/Initializable.sol\":4302:4317  $._initializing */\n      dup1\n      sload\n      shl(0x40, 0x01)\n      dup2\n      div\n      0xff\n      and\n        /* \"@openzeppelin/contracts-upgradeable/proxy/utils/Initializable.sol\":4301:4317  !$._initializing */\n      iszero\n      swap1\n        /* \"@openzeppelin/contracts-upgradeable/proxy/utils/Initializable.sol\":4348:4362  $._initialized */\n      0xffffffffffffffff\n      and\n        /* \"@openzeppelin/contracts-upgradeable/proxy/utils/Initializable.sol\":4158:4188  InitializableStorage storage $ */\n      0x00\n        /* \"@openzeppelin/contracts-upgradeable/proxy/utils/Initializable.sol\":4726:4742  initialized == 0 */\n      dup2\n      iszero\n        /* \"@openzeppelin/contracts-upgradeable/proxy/utils/Initializable.sol\":4726:4760  initialized == 0 && isTopLevelCall */\n      dup1\n      iszero\n      tag_275\n      jumpi\n      pop\n        /* \"@openzeppelin/contracts-upgradeable/proxy/utils/Initializable.sol\":4746:4760  isTopLevelCall */\n      dup3\n        /* \"@openzeppelin/contracts-upgradeable/proxy/utils/Initializable.sol\":4726:4760  initialized == 0 && isTopLevelCall */\n    tag_275:\n        /* \"@openzeppelin/contracts-upgradeable/proxy/utils/Initializable.sol\":4706:4760  bool initialSetup = initialized == 0 && isTopLevelCall */\n      swap1\n      pop\n        /* \"@openzeppelin/contracts-upgradeable/proxy/utils/Initializable.sol\":4770:4787  bool construction */\n      0x00\n        /* \"@openzeppelin/contracts-upgradeable/proxy/utils/Initializable.sol\":4790:4801  initialized */\n      dup3\n        /* \"@openzeppelin/contracts-upgradeable/proxy/utils/Initializable.sol\":4790:4806  initialized == 1 */\n      0xffffffffffffffff\n      and\n        /* \"@openzeppelin/contracts-upgradeable/proxy/utils/Initializable.sol\":4805:4806  1 */\n      0x01\n        /* \"@openzeppelin/contracts-upgradeable/proxy/utils/Initializable.sol\":4790:4806  initialized == 1 */\n      eq\n        /* \"@openzeppelin/contracts-upgradeable/proxy/utils/Initializable.sol\":4790:4840  initialized == 1 && address(this).code.length == 0 */\n      dup1\n      iszero\n      tag_276\n      jumpi\n      pop\n        /* \"@openzeppelin/contracts-upgradeable/proxy/utils/Initializable.sol\":4818:4822  this */\n      address\n        /* \"@openzeppelin/contracts-upgradeable/proxy/utils/Initializable.sol\":4810:4835  address(this).code.length */\n      extcodesize\n        /* \"@openzeppelin/contracts-upgradeable/proxy/utils/Initializable.sol\":4810:4840  address(this).code.length == 0 */\n      iszero\n        /* \"@openzeppelin/contracts-upgradeable/proxy/utils/Initializable.sol\":4790:4840  initialized == 1 && address(this).code.length == 0 */\n    tag_276:\n        /* \"@openzeppelin/contracts-upgradeable/proxy/utils/Initializable.sol\":4770:4840  bool construction = initialized == 1 && address(this).code.length == 0 */\n      swap1\n      pop\n        /* \"@openzeppelin/contracts-upgradeable/proxy/utils/Initializable.sol\":4856:4868  initialSetup */\n      dup2\n        /* \"@openzeppelin/contracts-upgradeable/proxy/utils/Initializable.sol\":4855:4868  !initialSetup */\n      iszero\n        /* \"@openzeppelin/contracts-upgradeable/proxy/utils/Initializable.sol\":4855:4885  !initialSetup && !construction */\n      dup1\n      iszero\n      tag_277\n      jumpi\n      pop\n        /* \"@openzeppelin/contracts-upgradeable/proxy/utils/Initializable.sol\":4873:4885  construction */\n      dup1\n        /* \"@openzeppelin/contracts-upgradeable/proxy/utils/Initializable.sol\":4872:4885  !construction */\n      iszero\n        /* \"@openzeppelin/contracts-upgradeable/proxy/utils/Initializable.sol\":4855:4885  !initialSetup && !construction */\n    tag_277:\n        /* \"@openzeppelin/contracts-upgradeable/proxy/utils/Initializable.sol\":4851:4942  if (!initialSetup && !construction) {... */\n      iszero\n      tag_278\n      jumpi\n        /* \"@openzeppelin/contracts-upgradeable/proxy/utils/Initializable.sol\":4908:4931  InvalidInitialization() */\n      mload(0x40)\n      shl(0xe0, 0xf92ee8a9)\n      dup2\n      mstore\n      0x04\n      add\n      mload(0x40)\n      dup1\n      swap2\n      sub\n      swap1\n      revert\n        /* \"@openzeppelin/contracts-upgradeable/proxy/utils/Initializable.sol\":4851:4942  if (!initialSetup && !construction) {... */\n    tag_278:\n        /* \"@openzeppelin/contracts-upgradeable/proxy/utils/Initializable.sol\":4951:4969  $._initialized = 1 */\n      dup5\n      sload\n      not(0xffffffffffffffff)\n      and\n        /* \"@openzeppelin/contracts-upgradeable/proxy/utils/Initializable.sol\":4968:4969  1 */\n      0x01\n        /* \"@openzeppelin/contracts-upgradeable/proxy/utils/Initializable.sol\":4951:4969  $._initialized = 1 */\n      or\n      dup6\n      sstore\n        /* \"@openzeppelin/contracts-upgradeable/proxy/utils/Initializable.sol\":4979:5046  if (isTopLevelCall) {... */\n      dup4\n      iszero\n      tag_279\n      jumpi\n        /* \"@openzeppelin/contracts-upgradeable/proxy/utils/Initializable.sol\":5013:5035  $._initializing = true */\n      dup5\n      sload\n      not(shl(0x40, 0xff))\n      and\n      shl(0x40, 0x01)\n      or\n      dup6\n      sstore\n        /* \"@openzeppelin/contracts-upgradeable/proxy/utils/Initializable.sol\":4979:5046  if (isTopLevelCall) {... */\n    tag_279:\n        /* \"DripWarrior/poolContract.sol\":4511:4539  __Ownable_init(initialOwner) */\n      tag_281\n        /* \"DripWarrior/poolContract.sol\":4526:4538  initialOwner */\n      dup11\n        /* \"DripWarrior/poolContract.sol\":4511:4525  __Ownable_init */\n      tag_282\n        /* \"DripWarrior/poolContract.sol\":4511:4539  __Ownable_init(initialOwner) */\n      jump\t// in\n    tag_281:\n        /* \"DripWarrior/poolContract.sol\":4549:4573  __UUPSUpgradeable_init() */\n      tag_283\n        /* \"DripWarrior/poolContract.sol\":4549:4571  __UUPSUpgradeable_init */\n      tag_284\n        /* \"DripWarrior/poolContract.sol\":4549:4573  __UUPSUpgradeable_init() */\n      jump\t// in\n    tag_283:\n        /* \"DripWarrior/poolContract.sol\":4584:4593  usdcToken */\n      0x00\n        /* \"DripWarrior/poolContract.sol\":4584:4616  usdcToken = IBEP20(_usdcAddress) */\n      dup1\n      sload\n      sub(shl(0xa0, 0x01), 0x01)\n      dup1\n      dup13\n      and\n      not(sub(shl(0xa0, 0x01), 0x01))\n      swap3\n      dup4\n      and\n      or\n      swap1\n      swap3\n      sstore\n        /* \"DripWarrior/poolContract.sol\":4852:4856  5000 */\n      0x1388\n        /* \"DripWarrior/poolContract.sol\":4824:4849  tdividentPayoutPercentage */\n      0x04\n        /* \"DripWarrior/poolContract.sol\":4824:4856  tdividentPayoutPercentage = 5000 */\n      sstore\n        /* \"DripWarrior/poolContract.sol\":4906:4910  7500 */\n      0x1d4c\n        /* \"DripWarrior/poolContract.sol\":4878:4903  odividentPayoutPercentage */\n      0x05\n        /* \"DripWarrior/poolContract.sol\":4878:4910  odividentPayoutPercentage = 7500 */\n      sstore\n        /* \"DripWarrior/poolContract.sol\":4972:4976  1500 */\n      0x05dc\n        /* \"DripWarrior/poolContract.sol\":4945:4969  flowToTreasuryPercentage */\n      0x06\n        /* \"DripWarrior/poolContract.sol\":4945:4976  flowToTreasuryPercentage = 1500 */\n      sstore\n        /* \"DripWarrior/poolContract.sol\":5023:5027  1000 */\n      0x03e8\n        /* \"DripWarrior/poolContract.sol\":4997:5020  maintainceFeePercentage */\n      0x07\n        /* \"DripWarrior/poolContract.sol\":4997:5027  maintainceFeePercentage = 1000 */\n      sstore\n        /* \"DripWarrior/poolContract.sol\":5085:5100  multisigAddress */\n      0x09\n        /* \"DripWarrior/poolContract.sol\":5085:5119  multisigAddress = _multisigAddress */\n      dup1\n      sload\n      dup10\n      dup5\n      and\n      swap1\n      dup4\n      and\n      or\n      swap1\n      sstore\n        /* \"DripWarrior/poolContract.sol\":5133:5141  ownerOne */\n      0x0f\n        /* \"DripWarrior/poolContract.sol\":5133:5153  ownerOne = _ownerOne */\n      dup1\n      sload\n      dup12\n      dup5\n      and\n      swap1\n      dup4\n      and\n      or\n      swap1\n      sstore\n        /* \"DripWarrior/poolContract.sol\":5167:5175  ownerTwo */\n      0x10\n        /* \"DripWarrior/poolContract.sol\":5167:5187  ownerTwo = _ownerTwo */\n      dup1\n      sload\n      swap3\n      dup11\n      and\n      swap3\n      swap1\n      swap2\n      and\n      swap2\n      swap1\n      swap2\n      or\n      swap1\n      sstore\n        /* \"@openzeppelin/contracts-upgradeable/proxy/utils/Initializable.sol\":5066:5167  if (isTopLevelCall) {... */\n      dup4\n      iszero\n      tag_285\n      jumpi\n        /* \"@openzeppelin/contracts-upgradeable/proxy/utils/Initializable.sol\":5100:5123  $._initializing = false */\n      dup5\n      sload\n      not(shl(0x40, 0xff))\n      and\n      dup6\n      sstore\n        /* \"@openzeppelin/contracts-upgradeable/proxy/utils/Initializable.sol\":5142:5156  Initialized(1) */\n      mload(0x40)\n      0x01\n        /* \"#utility.yul\":8321:8371   */\n      dup2\n      mstore\n        /* \"@openzeppelin/contracts-upgradeable/proxy/utils/Initializable.sol\":5142:5156  Initialized(1) */\n      0xc7f505b2f371ae2175ee4913f4499e1f2633a7b5936321eed1cdaeb6115181d2\n      swap1\n        /* \"#utility.yul\":8309:8311   */\n      0x20\n        /* \"#utility.yul\":8294:8312   */\n      add\n        /* \"@openzeppelin/contracts-upgradeable/proxy/utils/Initializable.sol\":5142:5156  Initialized(1) */\n      mload(0x40)\n      dup1\n      swap2\n      sub\n      swap1\n      log1\n        /* \"@openzeppelin/contracts-upgradeable/proxy/utils/Initializable.sol\":5066:5167  if (isTopLevelCall) {... */\n    tag_285:\n        /* \"@openzeppelin/contracts-upgradeable/proxy/utils/Initializable.sol\":4092:5173  {... */\n      pop\n      pop\n      pop\n      pop\n      pop\n        /* \"DripWarrior/poolContract.sol\":4292:5194  function initialize(... */\n      pop\n      pop\n      pop\n      pop\n      pop\n      jump\t// out\n        /* \"DripWarrior/poolContract.sol\":5207:5544  function addProjects(uint256 _tPPercentage) external bothOwner(){... */\n    tag_82:\n        /* \"DripWarrior/poolContract.sol\":17587:17595  ownerOne */\n      and(sub(shl(0xa0, 0x01), 0x01), sload(0x0f))\n        /* \"DripWarrior/poolContract.sol\":17573:17583  msg.sender */\n      caller\n        /* \"DripWarrior/poolContract.sol\":17573:17595  msg.sender != ownerOne */\n      eq\n      dup1\n      iszero\n      swap1\n        /* \"DripWarrior/poolContract.sol\":17573:17621  msg.sender != ownerOne && msg.sender != ownerTwo */\n      tag_289\n      jumpi\n      pop\n        /* \"DripWarrior/poolContract.sol\":17613:17621  ownerTwo */\n      and(sub(shl(0xa0, 0x01), 0x01), sload(0x10))\n        /* \"DripWarrior/poolContract.sol\":17599:17609  msg.sender */\n      caller\n        /* \"DripWarrior/poolContract.sol\":17599:17621  msg.sender != ownerTwo */\n      eq\n      iszero\n        /* \"DripWarrior/poolContract.sol\":17573:17621  msg.sender != ownerOne && msg.sender != ownerTwo */\n    tag_289:\n        /* \"DripWarrior/poolContract.sol\":17570:17676  if(msg.sender != ownerOne && msg.sender != ownerTwo){... */\n      iszero\n      tag_290\n      jumpi\n        /* \"DripWarrior/poolContract.sol\":17643:17665  wrongOwner(msg.sender) */\n      mload(0x40)\n      shl(0xe3, 0x1ed6f38b)\n      dup2\n      mstore\n        /* \"DripWarrior/poolContract.sol\":17654:17664  msg.sender */\n      caller\n        /* \"DripWarrior/poolContract.sol\":17643:17665  wrongOwner(msg.sender) */\n      0x04\n      dup3\n      add\n        /* \"#utility.yul\":357:408   */\n      mstore\n        /* \"#utility.yul\":330:348   */\n      0x24\n      add\n        /* \"DripWarrior/poolContract.sol\":17643:17665  wrongOwner(msg.sender) */\n    tag_291:\n      mload(0x40)\n      dup1\n      swap2\n      sub\n      swap1\n      revert\n        /* \"DripWarrior/poolContract.sol\":17570:17676  if(msg.sender != ownerOne && msg.sender != ownerTwo){... */\n    tag_290:\n        /* \"DripWarrior/poolContract.sol\":5310:5311  0 */\n      0x00\n        /* \"DripWarrior/poolContract.sol\":5293:5306  _tPPercentage */\n      dup2\n        /* \"DripWarrior/poolContract.sol\":5293:5311  _tPPercentage <= 0 */\n      gt\n        /* \"DripWarrior/poolContract.sol\":5290:5374  if(_tPPercentage <= 0){... */\n      tag_293\n      jumpi\n        /* \"DripWarrior/poolContract.sol\":5333:5363  wrongPercentage(_tPPercentage) */\n      mload(0x40)\n      shl(0xe0, 0xcdbc6335)\n      dup2\n      mstore\n      0x04\n      dup2\n      add\n        /* \"#utility.yul\":160:185   */\n      dup3\n      swap1\n      mstore\n        /* \"#utility.yul\":133:151   */\n      0x24\n      add\n        /* \"DripWarrior/poolContract.sol\":5333:5363  wrongPercentage(_tPPercentage) */\n      tag_291\n        /* \"#utility.yul\":14:191   */\n      jump\n        /* \"DripWarrior/poolContract.sol\":5290:5374  if(_tPPercentage <= 0){... */\n    tag_293:\n        /* \"DripWarrior/poolContract.sol\":5398:5411  totalProjects */\n      0x11\n      dup1\n      sload\n        /* \"DripWarrior/poolContract.sol\":5384:5412  tPPercentages[totalProjects] */\n      0x00\n      swap1\n      dup2\n      mstore\n        /* \"DripWarrior/poolContract.sol\":5384:5397  tPPercentages */\n      0x14\n        /* \"DripWarrior/poolContract.sol\":5384:5412  tPPercentages[totalProjects] */\n      0x20\n      mstore\n      0x40\n      dup2\n      keccak256\n        /* \"DripWarrior/poolContract.sol\":5384:5428  tPPercentages[totalProjects] = _tPPercentage */\n      dup4\n      swap1\n      sstore\n        /* \"DripWarrior/poolContract.sol\":5438:5453  totalProjects++ */\n      dup2\n      sload\n      swap2\n        /* \"DripWarrior/poolContract.sol\":5398:5411  totalProjects */\n      swap1\n        /* \"DripWarrior/poolContract.sol\":5438:5453  totalProjects++ */\n      tag_295\n      dup4\n      tag_296\n      jump\t// in\n    tag_295:\n      swap1\n      swap2\n      sstore\n      pop\n      pop\n        /* \"DripWarrior/poolContract.sol\":5482:5495  totalProjects */\n      sload(0x11)\n        /* \"DripWarrior/poolContract.sol\":5470:5537  AddProject((totalProjects), (10000 - _tPPercentage), _tPPercentage) */\n      0xe1976e16ed8ce8e740235978fbe69b27d5eea683b2e017bb0bd2fabb33294b3f\n      swap1\n        /* \"DripWarrior/poolContract.sol\":5499:5520  10000 - _tPPercentage */\n      tag_297\n        /* \"DripWarrior/poolContract.sol\":5507:5520  _tPPercentage */\n      dup4\n        /* \"DripWarrior/poolContract.sol\":5499:5504  10000 */\n      0x2710\n        /* \"DripWarrior/poolContract.sol\":5499:5520  10000 - _tPPercentage */\n      tag_298\n      jump\t// in\n    tag_297:\n        /* \"DripWarrior/poolContract.sol\":5470:5537  AddProject((totalProjects), (10000 - _tPPercentage), _tPPercentage) */\n      0x40\n      dup1\n      mload\n        /* \"#utility.yul\":8989:9014   */\n      swap3\n      dup4\n      mstore\n        /* \"#utility.yul\":9045:9047   */\n      0x20\n        /* \"#utility.yul\":9030:9048   */\n      dup4\n      add\n        /* \"#utility.yul\":9023:9057   */\n      swap2\n      swap1\n      swap2\n      mstore\n        /* \"#utility.yul\":9073:9091   */\n      dup2\n      add\n        /* \"#utility.yul\":9066:9100   */\n      dup4\n      swap1\n      mstore\n        /* \"#utility.yul\":8977:8979   */\n      0x60\n        /* \"#utility.yul\":8962:8980   */\n      add\n        /* \"DripWarrior/poolContract.sol\":5470:5537  AddProject((totalProjects), (10000 - _tPPercentage), _tPPercentage) */\n    tag_299:\n      mload(0x40)\n      dup1\n      swap2\n      sub\n      swap1\n      log1\n        /* \"DripWarrior/poolContract.sol\":5207:5544  function addProjects(uint256 _tPPercentage) external bothOwner(){... */\n      pop\n      jump\t// out\n        /* \"DripWarrior/poolContract.sol\":7179:7826  function stakeTokensByOwner(uint256[] memory _amount, address[] memory users) external bothOwner() {... */\n    tag_100:\n        /* \"DripWarrior/poolContract.sol\":17587:17595  ownerOne */\n      and(sub(shl(0xa0, 0x01), 0x01), sload(0x0f))\n        /* \"DripWarrior/poolContract.sol\":17573:17583  msg.sender */\n      caller\n        /* \"DripWarrior/poolContract.sol\":17573:17595  msg.sender != ownerOne */\n      eq\n      dup1\n      iszero\n      swap1\n        /* \"DripWarrior/poolContract.sol\":17573:17621  msg.sender != ownerOne && msg.sender != ownerTwo */\n      tag_302\n      jumpi\n      pop\n        /* \"DripWarrior/poolContract.sol\":17613:17621  ownerTwo */\n      and(sub(shl(0xa0, 0x01), 0x01), sload(0x10))\n        /* \"DripWarrior/poolContract.sol\":17599:17609  msg.sender */\n      caller\n        /* \"DripWarrior/poolContract.sol\":17599:17621  msg.sender != ownerTwo */\n      eq\n      iszero\n        /* \"DripWarrior/poolContract.sol\":17573:17621  msg.sender != ownerOne && msg.sender != ownerTwo */\n    tag_302:\n        /* \"DripWarrior/poolContract.sol\":17570:17676  if(msg.sender != ownerOne && msg.sender != ownerTwo){... */\n      iszero\n      tag_303\n      jumpi\n        /* \"DripWarrior/poolContract.sol\":17643:17665  wrongOwner(msg.sender) */\n      mload(0x40)\n      shl(0xe3, 0x1ed6f38b)\n      dup2\n      mstore\n        /* \"DripWarrior/poolContract.sol\":17654:17664  msg.sender */\n      caller\n        /* \"DripWarrior/poolContract.sol\":17643:17665  wrongOwner(msg.sender) */\n      0x04\n      dup3\n      add\n        /* \"#utility.yul\":357:408   */\n      mstore\n        /* \"#utility.yul\":330:348   */\n      0x24\n      add\n        /* \"DripWarrior/poolContract.sol\":17643:17665  wrongOwner(msg.sender) */\n      tag_291\n        /* \"#utility.yul\":196:414   */\n      jump\n        /* \"DripWarrior/poolContract.sol\":17570:17676  if(msg.sender != ownerOne && msg.sender != ownerTwo){... */\n    tag_303:\n        /* \"DripWarrior/poolContract.sol\":7319:7320  0 */\n      0x00\n        /* \"DripWarrior/poolContract.sol\":7301:7308  _amount */\n      dup3\n        /* \"DripWarrior/poolContract.sol\":7301:7315  _amount.length */\n      mload\n        /* \"DripWarrior/poolContract.sol\":7301:7320  _amount.length <= 0 */\n      gt\n        /* \"DripWarrior/poolContract.sol\":7298:7381  if(_amount.length <= 0){... */\n      tag_306\n      jumpi\n        /* \"DripWarrior/poolContract.sol\":7355:7362  _amount */\n      dup2\n        /* \"DripWarrior/poolContract.sol\":7355:7369  _amount.length */\n      mload\n        /* \"DripWarrior/poolContract.sol\":7343:7370  emptyAmount(_amount.length) */\n      mload(0x40)\n      shl(0xe2, 0x3ddd5557)\n      dup2\n      mstore\n      0x04\n      add\n      tag_291\n      swap2\n        /* \"#utility.yul\":160:185   */\n      dup2\n      mstore\n        /* \"#utility.yul\":148:150   */\n      0x20\n        /* \"#utility.yul\":133:151   */\n      add\n      swap1\n        /* \"#utility.yul\":14:191   */\n      jump\n        /* \"DripWarrior/poolContract.sol\":7298:7381  if(_amount.length <= 0){... */\n    tag_306:\n        /* \"DripWarrior/poolContract.sol\":7409:7410  0 */\n      0x00\n        /* \"DripWarrior/poolContract.sol\":7393:7398  users */\n      dup2\n        /* \"DripWarrior/poolContract.sol\":7393:7405  users.length */\n      mload\n        /* \"DripWarrior/poolContract.sol\":7393:7410  users.length <= 0 */\n      gt\n        /* \"DripWarrior/poolContract.sol\":7390:7472  if(users.length <= 0){... */\n      tag_308\n      jumpi\n        /* \"DripWarrior/poolContract.sol\":7448:7453  users */\n      dup1\n        /* \"DripWarrior/poolContract.sol\":7448:7460  users.length */\n      mload\n        /* \"DripWarrior/poolContract.sol\":7433:7461  emptyAddresses(users.length) */\n      mload(0x40)\n      shl(0xe0, 0x3a46e2ab)\n      dup2\n      mstore\n      0x04\n      add\n      tag_291\n      swap2\n        /* \"#utility.yul\":160:185   */\n      dup2\n      mstore\n        /* \"#utility.yul\":148:150   */\n      0x20\n        /* \"#utility.yul\":133:151   */\n      add\n      swap1\n        /* \"#utility.yul\":14:191   */\n      jump\n        /* \"DripWarrior/poolContract.sol\":7390:7472  if(users.length <= 0){... */\n    tag_308:\n        /* \"DripWarrior/poolContract.sol\":7502:7509  _amount */\n      dup2\n        /* \"DripWarrior/poolContract.sol\":7502:7516  _amount.length */\n      mload\n        /* \"DripWarrior/poolContract.sol\":7486:7491  users */\n      dup2\n        /* \"DripWarrior/poolContract.sol\":7486:7498  users.length */\n      mload\n        /* \"DripWarrior/poolContract.sol\":7486:7516  users.length != _amount.length */\n      eq\n        /* \"DripWarrior/poolContract.sol\":7482:7571  if (users.length != _amount.length) {... */\n      tag_310\n      jumpi\n        /* \"DripWarrior/poolContract.sol\":7539:7560  ArrayLengthMismatch() */\n      mload(0x40)\n      shl(0xe1, 0x512509d3)\n      dup2\n      mstore\n      0x04\n      add\n      mload(0x40)\n      dup1\n      swap2\n      sub\n      swap1\n      revert\n        /* \"DripWarrior/poolContract.sol\":7482:7571  if (users.length != _amount.length) {... */\n    tag_310:\n        /* \"DripWarrior/poolContract.sol\":7585:7591  uint i */\n      0x00\n        /* \"DripWarrior/poolContract.sol\":7581:7746  for(uint i=0 ;i < _amount.length; i++){... */\n    tag_311:\n        /* \"DripWarrior/poolContract.sol\":7599:7606  _amount */\n      dup3\n        /* \"DripWarrior/poolContract.sol\":7599:7613  _amount.length */\n      mload\n        /* \"DripWarrior/poolContract.sol\":7595:7596  i */\n      dup2\n        /* \"DripWarrior/poolContract.sol\":7595:7613  i < _amount.length */\n      lt\n        /* \"DripWarrior/poolContract.sol\":7581:7746  for(uint i=0 ;i < _amount.length; i++){... */\n      iszero\n      tag_312\n      jumpi\n        /* \"DripWarrior/poolContract.sol\":7680:7687  _amount */\n      dup3\n        /* \"DripWarrior/poolContract.sol\":7688:7689  i */\n      dup2\n        /* \"DripWarrior/poolContract.sol\":7680:7690  _amount[i] */\n      dup2\n      mload\n      dup2\n      lt\n      tag_315\n      jumpi\n      tag_315\n      tag_316\n      jump\t// in\n    tag_315:\n      0x20\n      mul\n      0x20\n      add\n      add\n      mload\n        /* \"DripWarrior/poolContract.sol\":7634:7648  userRegistered */\n      0x15\n        /* \"DripWarrior/poolContract.sol\":7634:7658  userRegistered[users[i]] */\n      0x00\n        /* \"DripWarrior/poolContract.sol\":7649:7654  users */\n      dup5\n        /* \"DripWarrior/poolContract.sol\":7655:7656  i */\n      dup5\n        /* \"DripWarrior/poolContract.sol\":7649:7657  users[i] */\n      dup2\n      mload\n      dup2\n      lt\n      tag_318\n      jumpi\n      tag_318\n      tag_316\n      jump\t// in\n    tag_318:\n      0x20\n      mul\n      0x20\n      add\n      add\n      mload\n      sub(shl(0xa0, 0x01), 0x01)\n        /* \"DripWarrior/poolContract.sol\":7634:7658  userRegistered[users[i]] */\n      and\n      sub(shl(0xa0, 0x01), 0x01)\n      and\n      dup2\n      mstore\n      0x20\n      add\n      swap1\n      dup2\n      mstore\n      0x20\n      add\n      0x00\n      keccak256\n        /* \"DripWarrior/poolContract.sol\":7634:7676  userRegistered[users[i]].totalStakedAmount */\n      0x05\n      add\n      0x00\n        /* \"DripWarrior/poolContract.sol\":7634:7690  userRegistered[users[i]].totalStakedAmount += _amount[i] */\n      dup3\n      dup3\n      sload\n      tag_319\n      swap2\n      swap1\n      tag_320\n      jump\t// in\n    tag_319:\n      swap3\n      pop\n      pop\n      dup2\n      swap1\n      sstore\n      pop\n        /* \"DripWarrior/poolContract.sol\":7725:7732  _amount */\n      dup3\n        /* \"DripWarrior/poolContract.sol\":7733:7734  i */\n      dup2\n        /* \"DripWarrior/poolContract.sol\":7725:7735  _amount[i] */\n      dup2\n      mload\n      dup2\n      lt\n      tag_322\n      jumpi\n      tag_322\n      tag_316\n      jump\t// in\n    tag_322:\n      0x20\n      mul\n      0x20\n      add\n      add\n      mload\n        /* \"DripWarrior/poolContract.sol\":7704:7721  totalStakedAmount */\n      0x03\n      0x00\n        /* \"DripWarrior/poolContract.sol\":7704:7735  totalStakedAmount += _amount[i] */\n      dup3\n      dup3\n      sload\n      tag_323\n      swap2\n      swap1\n      tag_320\n      jump\t// in\n    tag_323:\n      swap1\n      swap2\n      sstore\n      pop\n      pop\n        /* \"DripWarrior/poolContract.sol\":7615:7618  i++ */\n      0x01\n      add\n        /* \"DripWarrior/poolContract.sol\":7581:7746  for(uint i=0 ;i < _amount.length; i++){... */\n      jump(tag_311)\n    tag_312:\n      pop\n        /* \"DripWarrior/poolContract.sol\":7791:7805  _amount.length */\n      dup2\n      mload\n        /* \"DripWarrior/poolContract.sol\":7806:7818  users.length */\n      dup2\n      mload\n        /* \"DripWarrior/poolContract.sol\":7761:7819  multipleUserAddeed(msg.sender,_amount.length,users.length) */\n      0x40\n      dup1\n      mload\n        /* \"DripWarrior/poolContract.sol\":7780:7790  msg.sender */\n      caller\n        /* \"#utility.yul\":9575:9626   */\n      dup2\n      mstore\n        /* \"#utility.yul\":9657:9659   */\n      0x20\n        /* \"#utility.yul\":9642:9660   */\n      dup2\n      add\n        /* \"#utility.yul\":9635:9669   */\n      swap4\n      swap1\n      swap4\n      mstore\n        /* \"#utility.yul\":9685:9703   */\n      dup3\n      add\n        /* \"#utility.yul\":9678:9712   */\n      mstore\n        /* \"DripWarrior/poolContract.sol\":7761:7819  multipleUserAddeed(msg.sender,_amount.length,users.length) */\n      0x472714a70b748503a00efa85a1c3081b2a3477ce3be0227cb140455f82ccaeb6\n      swap1\n        /* \"#utility.yul\":9563:9565   */\n      0x60\n        /* \"#utility.yul\":9548:9566   */\n      add\n        /* \"DripWarrior/poolContract.sol\":7761:7819  multipleUserAddeed(msg.sender,_amount.length,users.length) */\n    tag_324:\n      mload(0x40)\n      dup1\n      swap2\n      sub\n      swap1\n      log1\n        /* \"DripWarrior/poolContract.sol\":7179:7826  function stakeTokensByOwner(uint256[] memory _amount, address[] memory users) external bothOwner() {... */\n      pop\n      pop\n      jump\t// out\n        /* \"DripWarrior/poolContract.sol\":12528:13161  function performUpkeep(bytes calldata /*performData*/) external  {... */\n    tag_121:\n        /* \"DripWarrior/poolContract.sol\":12647:12665  s_forwarderAddress */\n      and(sub(shl(0xa0, 0x01), 0x01), sload(0x0e))\n        /* \"DripWarrior/poolContract.sol\":12633:12643  msg.sender */\n      caller\n        /* \"DripWarrior/poolContract.sol\":12633:12665  msg.sender == s_forwarderAddress */\n      eq\n        /* \"DripWarrior/poolContract.sol\":12612:12750  require(... */\n      tag_327\n      jumpi\n      mload(0x40)\n      shl(0xe5, 0x461bcd)\n      dup2\n      mstore\n        /* \"#utility.yul\":9925:9927   */\n      0x20\n        /* \"DripWarrior/poolContract.sol\":12612:12750  require(... */\n      0x04\n      dup3\n      add\n        /* \"#utility.yul\":9907:9928   */\n      mstore\n        /* \"#utility.yul\":9964:9966   */\n      0x3b\n        /* \"#utility.yul\":9944:9962   */\n      0x24\n      dup3\n      add\n        /* \"#utility.yul\":9937:9967   */\n      mstore\n        /* \"#utility.yul\":10003:10037   */\n      0x54686973206164647265737320646f6573206e6f742068617665207065726d69\n        /* \"#utility.yul\":9983:10001   */\n      0x44\n      dup3\n      add\n        /* \"#utility.yul\":9976:10038   */\n      mstore\n        /* \"#utility.yul\":10074:10103   */\n      0x7373696f6e20746f2063616c6c20706572666f726d55706b6565700000000000\n        /* \"#utility.yul\":10054:10072   */\n      0x64\n      dup3\n      add\n        /* \"#utility.yul\":10047:10104   */\n      mstore\n        /* \"#utility.yul\":10121:10140   */\n      0x84\n      add\n        /* \"DripWarrior/poolContract.sol\":12612:12750  require(... */\n      tag_291\n        /* \"#utility.yul\":9723:10146   */\n      jump\n        /* \"DripWarrior/poolContract.sol\":12612:12750  require(... */\n    tag_327:\n        /* \"DripWarrior/poolContract.sol\":12772:12780  interval */\n      sload(0x0a)\n        /* \"DripWarrior/poolContract.sol\":12784:12785  0 */\n      0x00\n        /* \"DripWarrior/poolContract.sol\":12772:12785  interval == 0 */\n      sub\n        /* \"DripWarrior/poolContract.sol\":12768:12841  if (interval == 0){... */\n      tag_330\n      jumpi\n        /* \"DripWarrior/poolContract.sol\":12821:12829  interval */\n      sload(0x0a)\n        /* \"DripWarrior/poolContract.sol\":12807:12830  wrongInterval(interval) */\n      mload(0x40)\n      shl(0xe0, 0x71540007)\n      dup2\n      mstore\n      0x04\n      add\n      tag_291\n      swap2\n        /* \"#utility.yul\":160:185   */\n      dup2\n      mstore\n        /* \"#utility.yul\":148:150   */\n      0x20\n        /* \"#utility.yul\":133:151   */\n      add\n      swap1\n        /* \"#utility.yul\":14:191   */\n      jump\n        /* \"DripWarrior/poolContract.sol\":12768:12841  if (interval == 0){... */\n    tag_330:\n        /* \"DripWarrior/poolContract.sol\":12882:12894  startingTime */\n      sload(0x0c)\n        /* \"DripWarrior/poolContract.sol\":12863:12878  block.timestamp */\n      timestamp\n        /* \"DripWarrior/poolContract.sol\":12863:12894  block.timestamp >= startingTime */\n      lt\n        /* \"DripWarrior/poolContract.sol\":12860:13146  if(block.timestamp >= startingTime){... */\n      tag_332\n      jumpi\n        /* \"DripWarrior/poolContract.sol\":12921:12933  realInterval */\n      sload(0x0b)\n        /* \"DripWarrior/poolContract.sol\":12910:12918  interval */\n      0x0a\n        /* \"DripWarrior/poolContract.sol\":12910:12933  interval = realInterval */\n      dup2\n      swap1\n      sstore\n        /* \"DripWarrior/poolContract.sol\":12963:12978  block.timestamp */\n      timestamp\n        /* \"DripWarrior/poolContract.sol\":12947:12960  lastTimeStamp */\n      0x0d\n        /* \"DripWarrior/poolContract.sol\":12947:12978  lastTimeStamp = block.timestamp */\n      dup2\n      swap1\n      sstore\n        /* \"DripWarrior/poolContract.sol\":13007:13037  block.timestamp + realInterval */\n      tag_333\n      swap2\n        /* \"DripWarrior/poolContract.sol\":12921:12933  realInterval */\n      swap1\n        /* \"DripWarrior/poolContract.sol\":13007:13037  block.timestamp + realInterval */\n      tag_320\n      jump\t// in\n    tag_333:\n        /* \"DripWarrior/poolContract.sol\":12992:13004  startingTime */\n      0x0c\n        /* \"DripWarrior/poolContract.sol\":12992:13037  startingTime = block.timestamp + realInterval */\n      sstore\n        /* \"DripWarrior/poolContract.sol\":13051:13067  weeklyTransfer() */\n      tag_334\n        /* \"DripWarrior/poolContract.sol\":13051:13065  weeklyTransfer */\n      tag_254\n        /* \"DripWarrior/poolContract.sol\":13051:13067  weeklyTransfer() */\n      jump\t// in\n    tag_334:\n        /* \"DripWarrior/poolContract.sol\":12528:13161  function performUpkeep(bytes calldata /*performData*/) external  {... */\n      pop\n      pop\n      jump\t// out\n        /* \"DripWarrior/poolContract.sol\":12860:13146  if(block.timestamp >= startingTime){... */\n    tag_332:\n        /* \"DripWarrior/poolContract.sol\":13122:13134  startingTime */\n      sload(0x0c)\n        /* \"DripWarrior/poolContract.sol\":13112:13135  wrongTime(startingTime) */\n      mload(0x40)\n      shl(0xe0, 0x54593e75)\n      dup2\n      mstore\n      0x04\n      add\n      tag_291\n      swap2\n        /* \"#utility.yul\":160:185   */\n      dup2\n      mstore\n        /* \"#utility.yul\":148:150   */\n      0x20\n        /* \"#utility.yul\":133:151   */\n      add\n      swap1\n        /* \"#utility.yul\":14:191   */\n      jump\n        /* \"@openzeppelin/contracts-upgradeable/proxy/utils/UUPSUpgradeable.sol\":4158:4372  function upgradeToAndCall(address newImplementation, bytes memory data) public payable virtual onlyProxy {... */\n    tag_125:\n        /* \"@openzeppelin/contracts-upgradeable/proxy/utils/UUPSUpgradeable.sol\":2653:2666  _checkProxy() */\n      tag_338\n        /* \"@openzeppelin/contracts-upgradeable/proxy/utils/UUPSUpgradeable.sol\":2653:2664  _checkProxy */\n      tag_339\n        /* \"@openzeppelin/contracts-upgradeable/proxy/utils/UUPSUpgradeable.sol\":2653:2666  _checkProxy() */\n      jump\t// in\n    tag_338:\n        /* \"@openzeppelin/contracts-upgradeable/proxy/utils/UUPSUpgradeable.sol\":4273:4309  _authorizeUpgrade(newImplementation) */\n      tag_341\n        /* \"@openzeppelin/contracts-upgradeable/proxy/utils/UUPSUpgradeable.sol\":4291:4308  newImplementation */\n      dup3\n        /* \"@openzeppelin/contracts-upgradeable/proxy/utils/UUPSUpgradeable.sol\":4273:4290  _authorizeUpgrade */\n      tag_342\n        /* \"@openzeppelin/contracts-upgradeable/proxy/utils/UUPSUpgradeable.sol\":4273:4309  _authorizeUpgrade(newImplementation) */\n      jump\t// in\n    tag_341:\n        /* \"@openzeppelin/contracts-upgradeable/proxy/utils/UUPSUpgradeable.sol\":4319:4365  _upgradeToAndCallUUPS(newImplementation, data) */\n      tag_334\n        /* \"@openzeppelin/contracts-upgradeable/proxy/utils/UUPSUpgradeable.sol\":4341:4358  newImplementation */\n      dup3\n        /* \"@openzeppelin/contracts-upgradeable/proxy/utils/UUPSUpgradeable.sol\":4360:4364  data */\n      dup3\n        /* \"@openzeppelin/contracts-upgradeable/proxy/utils/UUPSUpgradeable.sol\":4319:4340  _upgradeToAndCallUUPS */\n      tag_344\n        /* \"@openzeppelin/contracts-upgradeable/proxy/utils/UUPSUpgradeable.sol\":4319:4365  _upgradeToAndCallUUPS(newImplementation, data) */\n      jump\t// in\n        /* \"DripWarrior/poolContract.sol\":5961:6360  function addTreasuery(uint256 _amount) external bothOwner(){... */\n    tag_129:\n        /* \"DripWarrior/poolContract.sol\":17587:17595  ownerOne */\n      and(sub(shl(0xa0, 0x01), 0x01), sload(0x0f))\n        /* \"DripWarrior/poolContract.sol\":17573:17583  msg.sender */\n      caller\n        /* \"DripWarrior/poolContract.sol\":17573:17595  msg.sender != ownerOne */\n      eq\n      dup1\n      iszero\n      swap1\n        /* \"DripWarrior/poolContract.sol\":17573:17621  msg.sender != ownerOne && msg.sender != ownerTwo */\n      tag_346\n      jumpi\n      pop\n        /* \"DripWarrior/poolContract.sol\":17613:17621  ownerTwo */\n      and(sub(shl(0xa0, 0x01), 0x01), sload(0x10))\n        /* \"DripWarrior/poolContract.sol\":17599:17609  msg.sender */\n      caller\n        /* \"DripWarrior/poolContract.sol\":17599:17621  msg.sender != ownerTwo */\n      eq\n      iszero\n        /* \"DripWarrior/poolContract.sol\":17573:17621  msg.sender != ownerOne && msg.sender != ownerTwo */\n    tag_346:\n        /* \"DripWarrior/poolContract.sol\":17570:17676  if(msg.sender != ownerOne && msg.sender != ownerTwo){... */\n      iszero\n      tag_347\n      jumpi\n        /* \"DripWarrior/poolContract.sol\":17643:17665  wrongOwner(msg.sender) */\n      mload(0x40)\n      shl(0xe3, 0x1ed6f38b)\n      dup2\n      mstore\n        /* \"DripWarrior/poolContract.sol\":17654:17664  msg.sender */\n      caller\n        /* \"DripWarrior/poolContract.sol\":17643:17665  wrongOwner(msg.sender) */\n      0x04\n      dup3\n      add\n        /* \"#utility.yul\":357:408   */\n      mstore\n        /* \"#utility.yul\":330:348   */\n      0x24\n      add\n        /* \"DripWarrior/poolContract.sol\":17643:17665  wrongOwner(msg.sender) */\n      tag_291\n        /* \"#utility.yul\":196:414   */\n      jump\n        /* \"DripWarrior/poolContract.sol\":17570:17676  if(msg.sender != ownerOne && msg.sender != ownerTwo){... */\n    tag_347:\n        /* \"DripWarrior/poolContract.sol\":6053:6054  0 */\n      0x00\n        /* \"DripWarrior/poolContract.sol\":6042:6049  _amount */\n      dup2\n        /* \"DripWarrior/poolContract.sol\":6042:6054  _amount <= 0 */\n      gt\n        /* \"DripWarrior/poolContract.sol\":6039:6107  if(_amount <= 0){... */\n      tag_350\n      jumpi\n        /* \"DripWarrior/poolContract.sol\":6076:6096  wrongAmount(_amount) */\n      mload(0x40)\n      shl(0xe4, 0x02ff4783)\n      dup2\n      mstore\n      0x04\n      dup2\n      add\n        /* \"#utility.yul\":160:185   */\n      dup3\n      swap1\n      mstore\n        /* \"#utility.yul\":133:151   */\n      0x24\n      add\n        /* \"DripWarrior/poolContract.sol\":6076:6096  wrongAmount(_amount) */\n      tag_291\n        /* \"#utility.yul\":14:191   */\n      jump\n        /* \"DripWarrior/poolContract.sol\":6039:6107  if(_amount <= 0){... */\n    tag_350:\n        /* \"DripWarrior/poolContract.sol\":6139:6146  _amount */\n      dup1\n        /* \"DripWarrior/poolContract.sol\":6117:6135  treasuryPoolAmount */\n      0x01\n      0x00\n        /* \"DripWarrior/poolContract.sol\":6117:6146  treasuryPoolAmount += _amount */\n      dup3\n      dup3\n      sload\n      tag_352\n      swap2\n      swap1\n      tag_320\n      jump\t// in\n    tag_352:\n      swap1\n      swap2\n      sstore\n      pop\n      pop\n        /* \"DripWarrior/poolContract.sol\":6157:6169  bool success */\n      0x00\n        /* \"DripWarrior/poolContract.sol\":6172:6181  usdcToken */\n      dup1\n      sload\n        /* \"DripWarrior/poolContract.sol\":6172:6229  usdcToken.transferFrom(msg.sender,address(this),_amount ) */\n      mload(0x40)\n      shl(0xe0, 0x23b872dd)\n      dup2\n      mstore\n      sub(shl(0xa0, 0x01), 0x01)\n        /* \"DripWarrior/poolContract.sol\":6172:6181  usdcToken */\n      swap1\n      swap2\n      and\n      swap1\n        /* \"DripWarrior/poolContract.sol\":6172:6194  usdcToken.transferFrom */\n      0x23b872dd\n      swap1\n        /* \"DripWarrior/poolContract.sol\":6172:6229  usdcToken.transferFrom(msg.sender,address(this),_amount ) */\n      tag_353\n      swap1\n        /* \"DripWarrior/poolContract.sol\":6195:6205  msg.sender */\n      caller\n      swap1\n        /* \"DripWarrior/poolContract.sol\":6214:6218  this */\n      address\n      swap1\n        /* \"DripWarrior/poolContract.sol\":6220:6227  _amount */\n      dup8\n      swap1\n        /* \"DripWarrior/poolContract.sol\":6172:6229  usdcToken.transferFrom(msg.sender,address(this),_amount ) */\n      0x04\n      add\n      tag_354\n      jump\t// in\n    tag_353:\n      0x20\n      mload(0x40)\n      dup1\n      dup4\n      sub\n      dup2\n      0x00\n      dup8\n      gas\n      call\n      iszero\n      dup1\n      iszero\n      tag_356\n      jumpi\n      returndatasize\n      0x00\n      dup1\n      returndatacopy\n      revert(0x00, returndatasize)\n    tag_356:\n      pop\n      pop\n      pop\n      pop\n      mload(0x40)\n      returndatasize\n      not(0x1f)\n      0x1f\n      dup3\n      add\n      and\n      dup3\n      add\n      dup1\n      0x40\n      mstore\n      pop\n      dup2\n      add\n      swap1\n      tag_357\n      swap2\n      swap1\n      tag_358\n      jump\t// in\n    tag_357:\n        /* \"DripWarrior/poolContract.sol\":6157:6229  bool success = usdcToken.transferFrom(msg.sender,address(this),_amount ) */\n      swap1\n      pop\n        /* \"DripWarrior/poolContract.sol\":6243:6250  success */\n      dup1\n        /* \"DripWarrior/poolContract.sol\":6239:6306  if(!success){... */\n      tag_359\n      jumpi\n        /* \"DripWarrior/poolContract.sol\":6272:6295  transferFailed(success) */\n      mload(0x40)\n      shl(0xe0, 0xd85d3cef)\n      dup2\n      mstore\n        /* \"#utility.yul\":7698:7712   */\n      dup2\n      iszero\n        /* \"#utility.yul\":7691:7713   */\n      iszero\n        /* \"DripWarrior/poolContract.sol\":6272:6295  transferFailed(success) */\n      0x04\n      dup3\n      add\n        /* \"#utility.yul\":7673:7714   */\n      mstore\n        /* \"#utility.yul\":7646:7664   */\n      0x24\n      add\n        /* \"DripWarrior/poolContract.sol\":6272:6295  transferFailed(success) */\n      tag_291\n        /* \"#utility.yul\":7533:7720   */\n      jump\n        /* \"DripWarrior/poolContract.sol\":6239:6306  if(!success){... */\n    tag_359:\n        /* \"DripWarrior/poolContract.sol\":6321:6353  AddTreasuery(treasuryPoolAmount) */\n      0xa9f166643ec132a11638e74e3c3a78d4ae278fcbf92998240e0e97676f54e404\n        /* \"DripWarrior/poolContract.sol\":6334:6352  treasuryPoolAmount */\n      sload(0x01)\n        /* \"DripWarrior/poolContract.sol\":6321:6353  AddTreasuery(treasuryPoolAmount) */\n      mload(0x40)\n      tag_324\n      swap2\n        /* \"#utility.yul\":160:185   */\n      dup2\n      mstore\n        /* \"#utility.yul\":148:150   */\n      0x20\n        /* \"#utility.yul\":133:151   */\n      add\n      swap1\n        /* \"#utility.yul\":14:191   */\n      jump\n        /* \"@openzeppelin/contracts-upgradeable/proxy/utils/UUPSUpgradeable.sol\":3705:3839  function proxiableUUID() external view virtual notDelegated returns (bytes32) {... */\n    tag_132:\n        /* \"@openzeppelin/contracts-upgradeable/proxy/utils/UUPSUpgradeable.sol\":3774:3781  bytes32 */\n      0x00\n        /* \"@openzeppelin/contracts-upgradeable/proxy/utils/UUPSUpgradeable.sol\":2924:2944  _checkNotDelegated() */\n      tag_363\n        /* \"@openzeppelin/contracts-upgradeable/proxy/utils/UUPSUpgradeable.sol\":2924:2942  _checkNotDelegated */\n      tag_364\n        /* \"@openzeppelin/contracts-upgradeable/proxy/utils/UUPSUpgradeable.sol\":2924:2944  _checkNotDelegated() */\n      jump\t// in\n    tag_363:\n      pop\n      0x00\n      dup1\n      mload\n      0x20\n      data_75b20eef8615de99c108b05f0dbda081c91897128caa336d75dffb97c4132b4d\n      dup4\n      codecopy\n      dup2\n      mload\n      swap2\n      mstore\n        /* \"@openzeppelin/contracts-upgradeable/proxy/utils/UUPSUpgradeable.sol\":3705:3839  function proxiableUUID() external view virtual notDelegated returns (bytes32) {... */\n      swap1\n      jump\t// out\n        /* \"DripWarrior/poolContract.sol\":13172:13714  function setInterval (uint256 _startingTime, uint256 updateInterval) external  bothOwner{... */\n    tag_147:\n        /* \"DripWarrior/poolContract.sol\":17587:17595  ownerOne */\n      and(sub(shl(0xa0, 0x01), 0x01), sload(0x0f))\n        /* \"DripWarrior/poolContract.sol\":17573:17583  msg.sender */\n      caller\n        /* \"DripWarrior/poolContract.sol\":17573:17595  msg.sender != ownerOne */\n      eq\n      dup1\n      iszero\n      swap1\n        /* \"DripWarrior/poolContract.sol\":17573:17621  msg.sender != ownerOne && msg.sender != ownerTwo */\n      tag_367\n      jumpi\n      pop\n        /* \"DripWarrior/poolContract.sol\":17613:17621  ownerTwo */\n      and(sub(shl(0xa0, 0x01), 0x01), sload(0x10))\n        /* \"DripWarrior/poolContract.sol\":17599:17609  msg.sender */\n      caller\n        /* \"DripWarrior/poolContract.sol\":17599:17621  msg.sender != ownerTwo */\n      eq\n      iszero\n        /* \"DripWarrior/poolContract.sol\":17573:17621  msg.sender != ownerOne && msg.sender != ownerTwo */\n    tag_367:\n        /* \"DripWarrior/poolContract.sol\":17570:17676  if(msg.sender != ownerOne && msg.sender != ownerTwo){... */\n      iszero\n      tag_368\n      jumpi\n        /* \"DripWarrior/poolContract.sol\":17643:17665  wrongOwner(msg.sender) */\n      mload(0x40)\n      shl(0xe3, 0x1ed6f38b)\n      dup2\n      mstore\n        /* \"DripWarrior/poolContract.sol\":17654:17664  msg.sender */\n      caller\n        /* \"DripWarrior/poolContract.sol\":17643:17665  wrongOwner(msg.sender) */\n      0x04\n      dup3\n      add\n        /* \"#utility.yul\":357:408   */\n      mstore\n        /* \"#utility.yul\":330:348   */\n      0x24\n      add\n        /* \"DripWarrior/poolContract.sol\":17643:17665  wrongOwner(msg.sender) */\n      tag_291\n        /* \"#utility.yul\":196:414   */\n      jump\n        /* \"DripWarrior/poolContract.sol\":17570:17676  if(msg.sender != ownerOne && msg.sender != ownerTwo){... */\n    tag_368:\n        /* \"DripWarrior/poolContract.sol\":13300:13301  0 */\n      0x00\n        /* \"DripWarrior/poolContract.sol\":13282:13296  updateInterval */\n      dup2\n        /* \"DripWarrior/poolContract.sol\":13282:13301  updateInterval <= 0 */\n      gt\n        /* \"DripWarrior/poolContract.sol\":13279:13363  if(updateInterval <= 0){... */\n      tag_371\n      jumpi\n        /* \"DripWarrior/poolContract.sol\":13323:13352  wrongInterval(updateInterval) */\n      mload(0x40)\n      shl(0xe0, 0x71540007)\n      dup2\n      mstore\n      0x04\n      dup2\n      add\n        /* \"#utility.yul\":160:185   */\n      dup3\n      swap1\n      mstore\n        /* \"#utility.yul\":133:151   */\n      0x24\n      add\n        /* \"DripWarrior/poolContract.sol\":13323:13352  wrongInterval(updateInterval) */\n      tag_291\n        /* \"#utility.yul\":14:191   */\n      jump\n        /* \"DripWarrior/poolContract.sol\":13279:13363  if(updateInterval <= 0){... */\n    tag_371:\n        /* \"DripWarrior/poolContract.sol\":13400:13415  block.timestamp */\n      timestamp\n        /* \"DripWarrior/poolContract.sol\":13384:13397  _startingTime */\n      dup3\n        /* \"DripWarrior/poolContract.sol\":13384:13415  _startingTime < block.timestamp */\n      lt\n        /* \"DripWarrior/poolContract.sol\":13381:13472  if(_startingTime < block.timestamp){... */\n      iszero\n      tag_373\n      jumpi\n        /* \"DripWarrior/poolContract.sol\":13437:13461  wrongTime(_startingTime) */\n      mload(0x40)\n      shl(0xe0, 0x54593e75)\n      dup2\n      mstore\n      0x04\n      dup2\n      add\n        /* \"#utility.yul\":160:185   */\n      dup4\n      swap1\n      mstore\n        /* \"#utility.yul\":133:151   */\n      0x24\n      add\n        /* \"DripWarrior/poolContract.sol\":13437:13461  wrongTime(_startingTime) */\n      tag_291\n        /* \"#utility.yul\":14:191   */\n      jump\n        /* \"DripWarrior/poolContract.sol\":13381:13472  if(_startingTime < block.timestamp){... */\n    tag_373:\n        /* \"DripWarrior/poolContract.sol\":13493:13524  _startingTime - block.timestamp */\n      tag_375\n        /* \"DripWarrior/poolContract.sol\":13509:13524  block.timestamp */\n      timestamp\n        /* \"DripWarrior/poolContract.sol\":13493:13506  _startingTime */\n      dup4\n        /* \"DripWarrior/poolContract.sol\":13493:13524  _startingTime - block.timestamp */\n      tag_298\n      jump\t// in\n    tag_375:\n        /* \"DripWarrior/poolContract.sol\":13482:13490  interval */\n      0x0a\n        /* \"DripWarrior/poolContract.sol\":13482:13524  interval = _startingTime - block.timestamp */\n      dup2\n      swap1\n      sstore\n        /* \"DripWarrior/poolContract.sol\":13534:13546  startingTime */\n      0x0c\n        /* \"DripWarrior/poolContract.sol\":13534:13562  startingTime = _startingTime */\n      dup4\n      swap1\n      sstore\n        /* \"DripWarrior/poolContract.sol\":13588:13603  block.timestamp */\n      timestamp\n        /* \"DripWarrior/poolContract.sol\":13572:13585  lastTimeStamp */\n      0x0d\n        /* \"DripWarrior/poolContract.sol\":13572:13603  lastTimeStamp = block.timestamp */\n      dup2\n      swap1\n      sstore\n        /* \"DripWarrior/poolContract.sol\":13613:13625  realInterval */\n      0x0b\n        /* \"DripWarrior/poolContract.sol\":13613:13642  realInterval = updateInterval */\n      dup4\n      swap1\n      sstore\n        /* \"DripWarrior/poolContract.sol\":13658:13706  SetInterval(msg.sender, interval, lastTimeStamp) */\n      0x40\n      dup1\n      mload\n        /* \"DripWarrior/poolContract.sol\":13670:13680  msg.sender */\n      caller\n        /* \"#utility.yul\":9575:9626   */\n      dup2\n      mstore\n        /* \"#utility.yul\":9657:9659   */\n      0x20\n        /* \"#utility.yul\":9642:9660   */\n      dup2\n      add\n        /* \"#utility.yul\":9635:9669   */\n      swap4\n      swap1\n      swap4\n      mstore\n        /* \"#utility.yul\":9685:9703   */\n      dup3\n      add\n        /* \"#utility.yul\":9678:9712   */\n      mstore\n        /* \"DripWarrior/poolContract.sol\":13658:13706  SetInterval(msg.sender, interval, lastTimeStamp) */\n      0x2b5090e035d3026f5448298c9adc68db8bbc1b26a8af5c81b2b2a9fc07ca4a00\n      swap1\n        /* \"#utility.yul\":9563:9565   */\n      0x60\n        /* \"#utility.yul\":9548:9566   */\n      add\n        /* \"DripWarrior/poolContract.sol\":13658:13706  SetInterval(msg.sender, interval, lastTimeStamp) */\n      tag_324\n        /* \"#utility.yul\":9373:9718   */\n      jump\n        /* \"DripWarrior/poolContract.sol\":13720:13840  function off () external  bothOwner{... */\n    tag_150:\n        /* \"DripWarrior/poolContract.sol\":17587:17595  ownerOne */\n      and(sub(shl(0xa0, 0x01), 0x01), sload(0x0f))\n        /* \"DripWarrior/poolContract.sol\":17573:17583  msg.sender */\n      caller\n        /* \"DripWarrior/poolContract.sol\":17573:17595  msg.sender != ownerOne */\n      eq\n      dup1\n      iszero\n      swap1\n        /* \"DripWarrior/poolContract.sol\":17573:17621  msg.sender != ownerOne && msg.sender != ownerTwo */\n      tag_378\n      jumpi\n      pop\n        /* \"DripWarrior/poolContract.sol\":17613:17621  ownerTwo */\n      and(sub(shl(0xa0, 0x01), 0x01), sload(0x10))\n        /* \"DripWarrior/poolContract.sol\":17599:17609  msg.sender */\n      caller\n        /* \"DripWarrior/poolContract.sol\":17599:17621  msg.sender != ownerTwo */\n      eq\n      iszero\n        /* \"DripWarrior/poolContract.sol\":17573:17621  msg.sender != ownerOne && msg.sender != ownerTwo */\n    tag_378:\n        /* \"DripWarrior/poolContract.sol\":17570:17676  if(msg.sender != ownerOne && msg.sender != ownerTwo){... */\n      iszero\n      tag_379\n      jumpi\n        /* \"DripWarrior/poolContract.sol\":17643:17665  wrongOwner(msg.sender) */\n      mload(0x40)\n      shl(0xe3, 0x1ed6f38b)\n      dup2\n      mstore\n        /* \"DripWarrior/poolContract.sol\":17654:17664  msg.sender */\n      caller\n        /* \"DripWarrior/poolContract.sol\":17643:17665  wrongOwner(msg.sender) */\n      0x04\n      dup3\n      add\n        /* \"#utility.yul\":357:408   */\n      mstore\n        /* \"#utility.yul\":330:348   */\n      0x24\n      add\n        /* \"DripWarrior/poolContract.sol\":17643:17665  wrongOwner(msg.sender) */\n      tag_291\n        /* \"#utility.yul\":196:414   */\n      jump\n        /* \"DripWarrior/poolContract.sol\":17570:17676  if(msg.sender != ownerOne && msg.sender != ownerTwo){... */\n    tag_379:\n        /* \"DripWarrior/poolContract.sol\":13784:13785  0 */\n      0x00\n        /* \"DripWarrior/poolContract.sol\":13773:13781  interval */\n      0x0a\n        /* \"DripWarrior/poolContract.sol\":13773:13785  interval = 0 */\n      dup2\n      swap1\n      sstore\n        /* \"DripWarrior/poolContract.sol\":13800:13833  offInterval(msg.sender, interval) */\n      0x40\n      dup1\n      mload\n        /* \"DripWarrior/poolContract.sol\":13812:13822  msg.sender */\n      caller\n        /* \"#utility.yul\":10951:11002   */\n      dup2\n      mstore\n        /* \"#utility.yul\":11033:11035   */\n      0x20\n        /* \"#utility.yul\":11018:11036   */\n      dup2\n      add\n        /* \"#utility.yul\":11011:11045   */\n      swap3\n      swap1\n      swap3\n      mstore\n        /* \"DripWarrior/poolContract.sol\":13800:13833  offInterval(msg.sender, interval) */\n      0x3b68dc4e210c46d3622293f2b941cdfde795bb6e17286bb289ba05a6a3b5541f\n      swap2\n        /* \"#utility.yul\":10924:10942   */\n      add\n        /* \"DripWarrior/poolContract.sol\":13800:13833  offInterval(msg.sender, interval) */\n      mload(0x40)\n      dup1\n      swap2\n      sub\n      swap1\n      log1\n        /* \"DripWarrior/poolContract.sol\":13720:13840  function off () external  bothOwner{... */\n      jump\t// out\n        /* \"DripWarrior/poolContract.sol\":14639:15280  function userWithdrawAmoount(uint256 _amount) external nonReentrant {... */\n    tag_154:\n        /* \"DripWarrior/poolContract.sol\":17742:17748  locked */\n      sload(0x09)\n      shl(0xa0, 0x01)\n      swap1\n      div\n      0xff\n      and\n        /* \"DripWarrior/poolContract.sol\":17741:17748  !locked */\n      iszero\n        /* \"DripWarrior/poolContract.sol\":17733:17784  require(!locked, \"ReentrancyGuard: reentrant call\") */\n      tag_385\n      jumpi\n      mload(0x40)\n      shl(0xe5, 0x461bcd)\n      dup2\n      mstore\n        /* \"#utility.yul\":11258:11260   */\n      0x20\n        /* \"DripWarrior/poolContract.sol\":17733:17784  require(!locked, \"ReentrancyGuard: reentrant call\") */\n      0x04\n      dup3\n      add\n        /* \"#utility.yul\":11240:11261   */\n      mstore\n        /* \"#utility.yul\":11297:11299   */\n      0x1f\n        /* \"#utility.yul\":11277:11295   */\n      0x24\n      dup3\n      add\n        /* \"#utility.yul\":11270:11300   */\n      mstore\n        /* \"#utility.yul\":11336:11369   */\n      0x5265656e7472616e637947756172643a207265656e7472616e742063616c6c00\n        /* \"#utility.yul\":11316:11334   */\n      0x44\n      dup3\n      add\n        /* \"#utility.yul\":11309:11370   */\n      mstore\n        /* \"#utility.yul\":11387:11405   */\n      0x64\n      add\n        /* \"DripWarrior/poolContract.sol\":17733:17784  require(!locked, \"ReentrancyGuard: reentrant call\") */\n      tag_291\n        /* \"#utility.yul\":11056:11411   */\n      jump\n        /* \"DripWarrior/poolContract.sol\":17733:17784  require(!locked, \"ReentrancyGuard: reentrant call\") */\n    tag_385:\n        /* \"DripWarrior/poolContract.sol\":17794:17800  locked */\n      0x09\n        /* \"DripWarrior/poolContract.sol\":17794:17807  locked = true */\n      dup1\n      sload\n      not(shl(0xa0, 0xff))\n      and\n      shl(0xa0, 0x01)\n      or\n      swap1\n      sstore\n        /* \"DripWarrior/poolContract.sol\":14729:14741  _amount <= 0 */\n      dup1\n        /* \"DripWarrior/poolContract.sol\":14726:14794  if(_amount <= 0){... */\n      tag_389\n      jumpi\n        /* \"DripWarrior/poolContract.sol\":14763:14783  wrongAmount(_amount) */\n      mload(0x40)\n      shl(0xe4, 0x02ff4783)\n      dup2\n      mstore\n      0x04\n      dup2\n      add\n        /* \"#utility.yul\":160:185   */\n      dup3\n      swap1\n      mstore\n        /* \"#utility.yul\":133:151   */\n      0x24\n      add\n        /* \"DripWarrior/poolContract.sol\":14763:14783  wrongAmount(_amount) */\n      tag_291\n        /* \"#utility.yul\":14:191   */\n      jump\n        /* \"DripWarrior/poolContract.sol\":14726:14794  if(_amount <= 0){... */\n    tag_389:\n        /* \"DripWarrior/poolContract.sol\":14832:14842  msg.sender */\n      caller\n        /* \"DripWarrior/poolContract.sol\":14817:14843  userRegistered[msg.sender] */\n      0x00\n      swap1\n      dup2\n      mstore\n        /* \"DripWarrior/poolContract.sol\":14817:14831  userRegistered */\n      0x15\n        /* \"DripWarrior/poolContract.sol\":14817:14843  userRegistered[msg.sender] */\n      0x20\n      mstore\n      0x40\n      swap1\n      keccak256\n        /* \"DripWarrior/poolContract.sol\":14817:14858  userRegistered[msg.sender].receivedAmount */\n      0x01\n      add\n      sload\n        /* \"DripWarrior/poolContract.sol\":14807:14858  _amount > userRegistered[msg.sender].receivedAmount */\n      dup2\n      gt\n        /* \"DripWarrior/poolContract.sol\":14804:14949  if(_amount > userRegistered[msg.sender].receivedAmount){... */\n      iszero\n      tag_391\n      jumpi\n        /* \"DripWarrior/poolContract.sol\":14911:14921  msg.sender */\n      caller\n        /* \"DripWarrior/poolContract.sol\":14896:14922  userRegistered[msg.sender] */\n      0x00\n      swap1\n      dup2\n      mstore\n        /* \"DripWarrior/poolContract.sol\":14896:14910  userRegistered */\n      0x15\n        /* \"DripWarrior/poolContract.sol\":14896:14922  userRegistered[msg.sender] */\n      0x20\n      mstore\n      0x40\n      swap1\n      dup2\n      swap1\n      keccak256\n        /* \"DripWarrior/poolContract.sol\":14896:14937  userRegistered[msg.sender].receivedAmount */\n      0x01\n      add\n      sload\n        /* \"DripWarrior/poolContract.sol\":14880:14938  notEnoughAmount(userRegistered[msg.sender].receivedAmount) */\n      swap1\n      mload\n      shl(0xe0, 0x98e712c3)\n      dup2\n      mstore\n      0x04\n      dup2\n      add\n        /* \"#utility.yul\":160:185   */\n      swap2\n      swap1\n      swap2\n      mstore\n        /* \"#utility.yul\":133:151   */\n      0x24\n      add\n        /* \"DripWarrior/poolContract.sol\":14880:14938  notEnoughAmount(userRegistered[msg.sender].receivedAmount) */\n      tag_291\n        /* \"#utility.yul\":14:191   */\n      jump\n        /* \"DripWarrior/poolContract.sol\":14804:14949  if(_amount > userRegistered[msg.sender].receivedAmount){... */\n    tag_391:\n        /* \"DripWarrior/poolContract.sol\":14974:14984  msg.sender */\n      caller\n        /* \"DripWarrior/poolContract.sol\":14959:14985  userRegistered[msg.sender] */\n      0x00\n      swap1\n      dup2\n      mstore\n        /* \"DripWarrior/poolContract.sol\":14959:14973  userRegistered */\n      0x15\n        /* \"DripWarrior/poolContract.sol\":14959:14985  userRegistered[msg.sender] */\n      0x20\n      mstore\n      0x40\n      dup2\n      keccak256\n        /* \"DripWarrior/poolContract.sol\":14959:15000  userRegistered[msg.sender].receivedAmount */\n      0x01\n      add\n        /* \"DripWarrior/poolContract.sol\":14959:15011  userRegistered[msg.sender].receivedAmount -= _amount */\n      dup1\n      sload\n        /* \"DripWarrior/poolContract.sol\":15004:15011  _amount */\n      dup4\n      swap3\n        /* \"DripWarrior/poolContract.sol\":14959:14985  userRegistered[msg.sender] */\n      swap1\n        /* \"DripWarrior/poolContract.sol\":14959:15011  userRegistered[msg.sender].receivedAmount -= _amount */\n      tag_393\n      swap1\n        /* \"DripWarrior/poolContract.sol\":15004:15011  _amount */\n      dup5\n      swap1\n        /* \"DripWarrior/poolContract.sol\":14959:15011  userRegistered[msg.sender].receivedAmount -= _amount */\n      tag_298\n      jump\t// in\n    tag_393:\n      swap1\n      swap2\n      sstore\n      pop\n      pop\n        /* \"DripWarrior/poolContract.sol\":15036:15046  msg.sender */\n      caller\n        /* \"DripWarrior/poolContract.sol\":15021:15047  userRegistered[msg.sender] */\n      0x00\n      swap1\n      dup2\n      mstore\n        /* \"DripWarrior/poolContract.sol\":15021:15035  userRegistered */\n      0x15\n        /* \"DripWarrior/poolContract.sol\":15021:15047  userRegistered[msg.sender] */\n      0x20\n      mstore\n      0x40\n      dup2\n      keccak256\n        /* \"DripWarrior/poolContract.sol\":15021:15062  userRegistered[msg.sender].withdrawAmount */\n      0x02\n      add\n        /* \"DripWarrior/poolContract.sol\":15021:15073  userRegistered[msg.sender].withdrawAmount += _amount */\n      dup1\n      sload\n        /* \"DripWarrior/poolContract.sol\":15066:15073  _amount */\n      dup4\n      swap3\n        /* \"DripWarrior/poolContract.sol\":15021:15047  userRegistered[msg.sender] */\n      swap1\n        /* \"DripWarrior/poolContract.sol\":15021:15073  userRegistered[msg.sender].withdrawAmount += _amount */\n      tag_394\n      swap1\n        /* \"DripWarrior/poolContract.sol\":15066:15073  _amount */\n      dup5\n      swap1\n        /* \"DripWarrior/poolContract.sol\":15021:15073  userRegistered[msg.sender].withdrawAmount += _amount */\n      tag_320\n      jump\t// in\n    tag_394:\n      swap1\n      swap2\n      sstore\n      pop\n      pop\n        /* \"DripWarrior/poolContract.sol\":15091:15103  bool success */\n      0x00\n        /* \"DripWarrior/poolContract.sol\":15106:15115  usdcToken */\n      dup1\n      sload\n        /* \"DripWarrior/poolContract.sol\":15106:15144  usdcToken.transfer(msg.sender,_amount) */\n      mload(0x40)\n      shl(0xe0, 0xa9059cbb)\n      dup2\n      mstore\n        /* \"DripWarrior/poolContract.sol\":15125:15135  msg.sender */\n      caller\n        /* \"DripWarrior/poolContract.sol\":15106:15144  usdcToken.transfer(msg.sender,_amount) */\n      0x04\n      dup3\n      add\n        /* \"#utility.yul\":10951:11002   */\n      mstore\n        /* \"#utility.yul\":11018:11036   */\n      0x24\n      dup2\n      add\n        /* \"#utility.yul\":11011:11045   */\n      dup5\n      swap1\n      mstore\n      sub(shl(0xa0, 0x01), 0x01)\n        /* \"DripWarrior/poolContract.sol\":15106:15115  usdcToken */\n      swap1\n      swap2\n      and\n      swap1\n        /* \"DripWarrior/poolContract.sol\":15106:15124  usdcToken.transfer */\n      0xa9059cbb\n      swap1\n        /* \"#utility.yul\":10924:10942   */\n      0x44\n      add\n        /* \"DripWarrior/poolContract.sol\":15106:15144  usdcToken.transfer(msg.sender,_amount) */\n      0x20\n      mload(0x40)\n      dup1\n      dup4\n      sub\n      dup2\n      0x00\n      dup8\n      gas\n      call\n      iszero\n      dup1\n      iszero\n      tag_397\n      jumpi\n      returndatasize\n      0x00\n      dup1\n      returndatacopy\n      revert(0x00, returndatasize)\n    tag_397:\n      pop\n      pop\n      pop\n      pop\n      mload(0x40)\n      returndatasize\n      not(0x1f)\n      0x1f\n      dup3\n      add\n      and\n      dup3\n      add\n      dup1\n      0x40\n      mstore\n      pop\n      dup2\n      add\n      swap1\n      tag_398\n      swap2\n      swap1\n      tag_358\n      jump\t// in\n    tag_398:\n        /* \"DripWarrior/poolContract.sol\":15091:15144  bool success = usdcToken.transfer(msg.sender,_amount) */\n      swap1\n      pop\n        /* \"DripWarrior/poolContract.sol\":15166:15173  success */\n      dup1\n        /* \"DripWarrior/poolContract.sol\":15162:15229  if(!success){... */\n      tag_399\n      jumpi\n        /* \"DripWarrior/poolContract.sol\":15195:15218  transferFailed(success) */\n      mload(0x40)\n      shl(0xe0, 0xd85d3cef)\n      dup2\n      mstore\n        /* \"#utility.yul\":7698:7712   */\n      dup2\n      iszero\n        /* \"#utility.yul\":7691:7713   */\n      iszero\n        /* \"DripWarrior/poolContract.sol\":15195:15218  transferFailed(success) */\n      0x04\n      dup3\n      add\n        /* \"#utility.yul\":7673:7714   */\n      mstore\n        /* \"#utility.yul\":7646:7664   */\n      0x24\n      add\n        /* \"DripWarrior/poolContract.sol\":15195:15218  transferFailed(success) */\n      tag_291\n        /* \"#utility.yul\":7533:7720   */\n      jump\n        /* \"DripWarrior/poolContract.sol\":15162:15229  if(!success){... */\n    tag_399:\n        /* \"DripWarrior/poolContract.sol\":15244:15273  Withdraw(msg.sender, _amount) */\n      0x40\n      dup1\n      mload\n        /* \"DripWarrior/poolContract.sol\":15253:15263  msg.sender */\n      caller\n        /* \"#utility.yul\":10951:11002   */\n      dup2\n      mstore\n        /* \"#utility.yul\":11033:11035   */\n      0x20\n        /* \"#utility.yul\":11018:11036   */\n      dup2\n      add\n        /* \"#utility.yul\":11011:11045   */\n      dup5\n      swap1\n      mstore\n        /* \"DripWarrior/poolContract.sol\":15244:15273  Withdraw(msg.sender, _amount) */\n      0x884edad9ce6fa2440d8a54cc123490eb96d2768479d49ff9c7366125a9424364\n      swap2\n        /* \"#utility.yul\":10924:10942   */\n      add\n        /* \"DripWarrior/poolContract.sol\":15244:15273  Withdraw(msg.sender, _amount) */\n      mload(0x40)\n      dup1\n      swap2\n      sub\n      swap1\n      log1\n      pop\n      pop\n        /* \"DripWarrior/poolContract.sol\":17828:17834  locked */\n      0x09\n        /* \"DripWarrior/poolContract.sol\":17828:17842  locked = false */\n      dup1\n      sload\n      not(shl(0xa0, 0xff))\n      and\n      swap1\n      sstore\n        /* \"DripWarrior/poolContract.sol\":14639:15280  function userWithdrawAmoount(uint256 _amount) external nonReentrant {... */\n      jump\t// out\n        /* \"DripWarrior/poolContract.sol\":12282:12517  function checkUpkeep(bytes calldata /*checkData*/) external override view  returns (bool, bytes memory) {... */\n    tag_158:\n        /* \"DripWarrior/poolContract.sol\":12366:12370  bool */\n      0x00\n        /* \"DripWarrior/poolContract.sol\":12372:12384  bytes memory */\n      0x60\n        /* \"DripWarrior/poolContract.sol\":12406:12422  bool needsUpkeep */\n      0x00\n        /* \"DripWarrior/poolContract.sol\":12461:12469  interval */\n      sload(0x0a)\n        /* \"DripWarrior/poolContract.sol\":12444:12457  lastTimeStamp */\n      sload(0x0d)\n        /* \"DripWarrior/poolContract.sol\":12426:12441  block.timestamp */\n      timestamp\n        /* \"DripWarrior/poolContract.sol\":12426:12457  block.timestamp - lastTimeStamp */\n      tag_403\n      swap2\n      swap1\n      tag_298\n      jump\t// in\n    tag_403:\n        /* \"DripWarrior/poolContract.sol\":12500:12509  bytes(\"\") */\n      0x40\n      dup1\n      mload\n      0x20\n      dup2\n      add\n      swap1\n      swap2\n      mstore\n      0x00\n      dup2\n      mstore\n      swap2\n      lt\n      swap7\n      swap1\n      swap6\n      pop\n        /* \"DripWarrior/poolContract.sol\":12282:12517  function checkUpkeep(bytes calldata /*checkData*/) external override view  returns (bool, bytes memory) {... */\n      swap4\n      pop\n      pop\n      pop\n      pop\n      jump\t// out\n        /* \"@openzeppelin/contracts-upgradeable/access/OwnableUpgradeable.sol\":3155:3256  function renounceOwnership() public virtual onlyOwner {... */\n    tag_163:\n        /* \"@openzeppelin/contracts-upgradeable/access/OwnableUpgradeable.sol\":2334:2347  _checkOwner() */\n      tag_405\n        /* \"@openzeppelin/contracts-upgradeable/access/OwnableUpgradeable.sol\":2334:2345  _checkOwner */\n      tag_406\n        /* \"@openzeppelin/contracts-upgradeable/access/OwnableUpgradeable.sol\":2334:2347  _checkOwner() */\n      jump\t// in\n    tag_405:\n        /* \"@openzeppelin/contracts-upgradeable/access/OwnableUpgradeable.sol\":3219:3249  _transferOwnership(address(0)) */\n      tag_408\n        /* \"@openzeppelin/contracts-upgradeable/access/OwnableUpgradeable.sol\":3246:3247  0 */\n      0x00\n        /* \"@openzeppelin/contracts-upgradeable/access/OwnableUpgradeable.sol\":3219:3237  _transferOwnership */\n      tag_409\n        /* \"@openzeppelin/contracts-upgradeable/access/OwnableUpgradeable.sol\":3219:3249  _transferOwnership(address(0)) */\n      jump\t// in\n    tag_408:\n        /* \"@openzeppelin/contracts-upgradeable/access/OwnableUpgradeable.sol\":3155:3256  function renounceOwnership() public virtual onlyOwner {... */\n      jump\t// out\n        /* \"DripWarrior/poolContract.sol\":6366:7168  function stakeTokens(uint256 _amount) external  {... */\n    tag_167:\n        /* \"DripWarrior/poolContract.sol\":6447:6448  0 */\n      0x00\n        /* \"DripWarrior/poolContract.sol\":6436:6443  _amount */\n      dup2\n        /* \"DripWarrior/poolContract.sol\":6436:6448  _amount <= 0 */\n      gt\n        /* \"DripWarrior/poolContract.sol\":6433:6501  if(_amount <= 0){... */\n      tag_411\n      jumpi\n        /* \"DripWarrior/poolContract.sol\":6470:6490  wrongAmount(_amount) */\n      mload(0x40)\n      shl(0xe4, 0x02ff4783)\n      dup2\n      mstore\n      0x04\n      dup2\n      add\n        /* \"#utility.yul\":160:185   */\n      dup3\n      swap1\n      mstore\n        /* \"#utility.yul\":133:151   */\n      0x24\n      add\n        /* \"DripWarrior/poolContract.sol\":6470:6490  wrongAmount(_amount) */\n      tag_291\n        /* \"#utility.yul\":14:191   */\n      jump\n        /* \"DripWarrior/poolContract.sol\":6433:6501  if(_amount <= 0){... */\n    tag_411:\n        /* \"DripWarrior/poolContract.sol\":6537:6547  msg.sender */\n      caller\n        /* \"DripWarrior/poolContract.sol\":6522:6548  userRegistered[msg.sender] */\n      0x00\n      swap1\n      dup2\n      mstore\n        /* \"DripWarrior/poolContract.sol\":6522:6536  userRegistered */\n      0x15\n        /* \"DripWarrior/poolContract.sol\":6522:6548  userRegistered[msg.sender] */\n      0x20\n      mstore\n      0x40\n      swap1\n      keccak256\n        /* \"DripWarrior/poolContract.sol\":6522:6556  userRegistered[msg.sender].blocked */\n      sload\n      0xff\n      and\n        /* \"DripWarrior/poolContract.sol\":6519:6636  if(userRegistered[msg.sender].blocked){... */\n      iszero\n      tag_413\n      jumpi\n        /* \"DripWarrior/poolContract.sol\":6605:6615  msg.sender */\n      caller\n        /* \"DripWarrior/poolContract.sol\":6590:6616  userRegistered[msg.sender] */\n      0x00\n      swap1\n      dup2\n      mstore\n        /* \"DripWarrior/poolContract.sol\":6590:6604  userRegistered */\n      0x15\n        /* \"DripWarrior/poolContract.sol\":6590:6616  userRegistered[msg.sender] */\n      0x20\n      mstore\n      0x40\n      swap1\n      dup2\n      swap1\n      keccak256\n        /* \"DripWarrior/poolContract.sol\":6590:6624  userRegistered[msg.sender].blocked */\n      sload\n        /* \"DripWarrior/poolContract.sol\":6578:6625  userBlocked(userRegistered[msg.sender].blocked) */\n      swap1\n      mload\n      shl(0xe6, 0x01be970f)\n      dup2\n      mstore\n        /* \"DripWarrior/poolContract.sol\":6590:6624  userRegistered[msg.sender].blocked */\n      0xff\n      swap1\n      swap2\n      and\n        /* \"#utility.yul\":7698:7712   */\n      iszero\n        /* \"#utility.yul\":7691:7713   */\n      iszero\n        /* \"DripWarrior/poolContract.sol\":6578:6625  userBlocked(userRegistered[msg.sender].blocked) */\n      0x04\n      dup3\n      add\n        /* \"#utility.yul\":7673:7714   */\n      mstore\n        /* \"#utility.yul\":7646:7664   */\n      0x24\n      add\n        /* \"DripWarrior/poolContract.sol\":6578:6625  userBlocked(userRegistered[msg.sender].blocked) */\n      tag_291\n        /* \"#utility.yul\":7533:7720   */\n      jump\n        /* \"DripWarrior/poolContract.sol\":6519:6636  if(userRegistered[msg.sender].blocked){... */\n    tag_413:\n        /* \"DripWarrior/poolContract.sol\":6661:6671  msg.sender */\n      caller\n        /* \"DripWarrior/poolContract.sol\":6646:6672  userRegistered[msg.sender] */\n      0x00\n      swap1\n      dup2\n      mstore\n        /* \"DripWarrior/poolContract.sol\":6646:6660  userRegistered */\n      0x15\n        /* \"DripWarrior/poolContract.sol\":6646:6672  userRegistered[msg.sender] */\n      0x20\n      mstore\n      0x40\n      dup2\n      keccak256\n        /* \"DripWarrior/poolContract.sol\":6646:6690  userRegistered[msg.sender].totalStakedAmount */\n      0x05\n      add\n        /* \"DripWarrior/poolContract.sol\":6646:6701  userRegistered[msg.sender].totalStakedAmount += _amount */\n      dup1\n      sload\n        /* \"DripWarrior/poolContract.sol\":6694:6701  _amount */\n      dup4\n      swap3\n        /* \"DripWarrior/poolContract.sol\":6646:6672  userRegistered[msg.sender] */\n      swap1\n        /* \"DripWarrior/poolContract.sol\":6646:6701  userRegistered[msg.sender].totalStakedAmount += _amount */\n      tag_415\n      swap1\n        /* \"DripWarrior/poolContract.sol\":6694:6701  _amount */\n      dup5\n      swap1\n        /* \"DripWarrior/poolContract.sol\":6646:6701  userRegistered[msg.sender].totalStakedAmount += _amount */\n      tag_320\n      jump\t// in\n    tag_415:\n      swap1\n      swap2\n      sstore\n      pop\n      pop\n        /* \"DripWarrior/poolContract.sol\":6736:6746  msg.sender */\n      caller\n        /* \"DripWarrior/poolContract.sol\":6723:6747  alreadyAdded[msg.sender] */\n      0x00\n      swap1\n      dup2\n      mstore\n        /* \"DripWarrior/poolContract.sol\":6723:6735  alreadyAdded */\n      0x12\n        /* \"DripWarrior/poolContract.sol\":6723:6747  alreadyAdded[msg.sender] */\n      0x20\n      mstore\n      0x40\n      swap1\n      keccak256\n      sload\n      0xff\n      and\n        /* \"DripWarrior/poolContract.sol\":6719:6890  if(!alreadyAdded[msg.sender]){... */\n      tag_416\n      jumpi\n        /* \"DripWarrior/poolContract.sol\":6786:6795  noOfUsers */\n      0x08\n      dup1\n      sload\n        /* \"DripWarrior/poolContract.sol\":6775:6796  totalUsers[noOfUsers] */\n      0x00\n      swap1\n      dup2\n      mstore\n        /* \"DripWarrior/poolContract.sol\":6775:6785  totalUsers */\n      0x13\n        /* \"DripWarrior/poolContract.sol\":6775:6796  totalUsers[noOfUsers] */\n      0x20\n      swap1\n      dup2\n      mstore\n      0x40\n      dup1\n      dup4\n      keccak256\n        /* \"DripWarrior/poolContract.sol\":6775:6809  totalUsers[noOfUsers] = msg.sender */\n      dup1\n      sload\n      not(sub(shl(0xa0, 0x01), 0x01))\n      and\n        /* \"DripWarrior/poolContract.sol\":6799:6809  msg.sender */\n      caller\n        /* \"DripWarrior/poolContract.sol\":6775:6809  totalUsers[noOfUsers] = msg.sender */\n      swap1\n      dup2\n      or\n      swap1\n      swap2\n      sstore\n        /* \"DripWarrior/poolContract.sol\":6823:6847  alreadyAdded[msg.sender] */\n      dup4\n      mstore\n        /* \"DripWarrior/poolContract.sol\":6823:6835  alreadyAdded */\n      0x12\n        /* \"DripWarrior/poolContract.sol\":6823:6847  alreadyAdded[msg.sender] */\n      swap1\n      swap2\n      mstore\n      dup2\n      keccak256\n        /* \"DripWarrior/poolContract.sol\":6823:6854  alreadyAdded[msg.sender] = true */\n      dup1\n      sload\n      not(0xff)\n      and\n        /* \"DripWarrior/poolContract.sol\":6775:6809  totalUsers[noOfUsers] = msg.sender */\n      0x01\n        /* \"DripWarrior/poolContract.sol\":6823:6854  alreadyAdded[msg.sender] = true */\n      or\n      swap1\n      sstore\n        /* \"DripWarrior/poolContract.sol\":6868:6879  noOfUsers++ */\n      dup2\n      sload\n      swap2\n        /* \"DripWarrior/poolContract.sol\":6786:6795  noOfUsers */\n      swap1\n        /* \"DripWarrior/poolContract.sol\":6868:6879  noOfUsers++ */\n      tag_417\n      dup4\n      tag_296\n      jump\t// in\n    tag_417:\n      swap2\n      swap1\n      pop\n      sstore\n      pop\n        /* \"DripWarrior/poolContract.sol\":6719:6890  if(!alreadyAdded[msg.sender]){... */\n    tag_416:\n        /* \"DripWarrior/poolContract.sol\":6921:6928  _amount */\n      dup1\n        /* \"DripWarrior/poolContract.sol\":6900:6917  totalStakedAmount */\n      0x03\n      0x00\n        /* \"DripWarrior/poolContract.sol\":6900:6928  totalStakedAmount += _amount */\n      dup3\n      dup3\n      sload\n      tag_418\n      swap2\n      swap1\n      tag_320\n      jump\t// in\n    tag_418:\n      swap1\n      swap2\n      sstore\n      pop\n      pop\n        /* \"DripWarrior/poolContract.sol\":6939:6951  bool success */\n      0x00\n        /* \"DripWarrior/poolContract.sol\":6953:6962  usdcToken */\n      dup1\n      sload\n        /* \"DripWarrior/poolContract.sol\":6987:7002  multisigAddress */\n      sload(0x09)\n        /* \"DripWarrior/poolContract.sol\":6953:7011  usdcToken.transferFrom(msg.sender,multisigAddress,_amount) */\n      mload(0x40)\n      shl(0xe0, 0x23b872dd)\n      dup2\n      mstore\n      sub(shl(0xa0, 0x01), 0x01)\n        /* \"DripWarrior/poolContract.sol\":6953:6962  usdcToken */\n      swap3\n      dup4\n      and\n      swap3\n        /* \"DripWarrior/poolContract.sol\":6953:6975  usdcToken.transferFrom */\n      0x23b872dd\n      swap3\n        /* \"DripWarrior/poolContract.sol\":6953:7011  usdcToken.transferFrom(msg.sender,multisigAddress,_amount) */\n      tag_419\n      swap3\n        /* \"DripWarrior/poolContract.sol\":6976:6986  msg.sender */\n      caller\n      swap3\n        /* \"DripWarrior/poolContract.sol\":6987:7002  multisigAddress */\n      swap1\n      swap2\n      and\n      swap1\n        /* \"DripWarrior/poolContract.sol\":7003:7010  _amount */\n      dup8\n      swap1\n        /* \"DripWarrior/poolContract.sol\":6953:7011  usdcToken.transferFrom(msg.sender,multisigAddress,_amount) */\n      0x04\n      add\n      tag_354\n      jump\t// in\n    tag_419:\n      0x20\n      mload(0x40)\n      dup1\n      dup4\n      sub\n      dup2\n      0x00\n      dup8\n      gas\n      call\n      iszero\n      dup1\n      iszero\n      tag_421\n      jumpi\n      returndatasize\n      0x00\n      dup1\n      returndatacopy\n      revert(0x00, returndatasize)\n    tag_421:\n      pop\n      pop\n      pop\n      pop\n      mload(0x40)\n      returndatasize\n      not(0x1f)\n      0x1f\n      dup3\n      add\n      and\n      dup3\n      add\n      dup1\n      0x40\n      mstore\n      pop\n      dup2\n      add\n      swap1\n      tag_422\n      swap2\n      swap1\n      tag_358\n      jump\t// in\n    tag_422:\n        /* \"DripWarrior/poolContract.sol\":6939:7011  bool success =usdcToken.transferFrom(msg.sender,multisigAddress,_amount) */\n      swap1\n      pop\n        /* \"DripWarrior/poolContract.sol\":7034:7041  success */\n      dup1\n        /* \"DripWarrior/poolContract.sol\":7030:7097  if(!success){... */\n      tag_423\n      jumpi\n        /* \"DripWarrior/poolContract.sol\":7063:7086  transferFailed(success) */\n      mload(0x40)\n      shl(0xe0, 0xd85d3cef)\n      dup2\n      mstore\n        /* \"#utility.yul\":7698:7712   */\n      dup2\n      iszero\n        /* \"#utility.yul\":7691:7713   */\n      iszero\n        /* \"DripWarrior/poolContract.sol\":7063:7086  transferFailed(success) */\n      0x04\n      dup3\n      add\n        /* \"#utility.yul\":7673:7714   */\n      mstore\n        /* \"#utility.yul\":7646:7664   */\n      0x24\n      add\n        /* \"DripWarrior/poolContract.sol\":7063:7086  transferFailed(success) */\n      tag_291\n        /* \"#utility.yul\":7533:7720   */\n      jump\n        /* \"DripWarrior/poolContract.sol\":7030:7097  if(!success){... */\n    tag_423:\n        /* \"DripWarrior/poolContract.sol\":7135:7150  multisigAddress */\n      sload(0x09)\n        /* \"DripWarrior/poolContract.sol\":7112:7160  StakeTokens(msg.sender,multisigAddress, _amount) */\n      mload(0x40)\n      0x14ee34c24635186d212f515353dadae9c226529edef2d1fcf5504cb33b5c25ab\n      swap2\n      tag_324\n      swap2\n        /* \"DripWarrior/poolContract.sol\":7124:7134  msg.sender */\n      caller\n      swap2\n      sub(shl(0xa0, 0x01), 0x01)\n        /* \"DripWarrior/poolContract.sol\":7135:7150  multisigAddress */\n      and\n      swap1\n        /* \"DripWarrior/poolContract.sol\":7152:7159  _amount */\n      dup7\n      swap1\n        /* \"DripWarrior/poolContract.sol\":7112:7160  StakeTokens(msg.sender,multisigAddress, _amount) */\n      tag_354\n      jump\t// in\n        /* \"DripWarrior/poolContract.sol\":5550:5951  function addOwnership(uint256 _amount) external bothOwner(){... */\n    tag_171:\n        /* \"DripWarrior/poolContract.sol\":17587:17595  ownerOne */\n      and(sub(shl(0xa0, 0x01), 0x01), sload(0x0f))\n        /* \"DripWarrior/poolContract.sol\":17573:17583  msg.sender */\n      caller\n        /* \"DripWarrior/poolContract.sol\":17573:17595  msg.sender != ownerOne */\n      eq\n      dup1\n      iszero\n      swap1\n        /* \"DripWarrior/poolContract.sol\":17573:17621  msg.sender != ownerOne && msg.sender != ownerTwo */\n      tag_427\n      jumpi\n      pop\n        /* \"DripWarrior/poolContract.sol\":17613:17621  ownerTwo */\n      and(sub(shl(0xa0, 0x01), 0x01), sload(0x10))\n        /* \"DripWarrior/poolContract.sol\":17599:17609  msg.sender */\n      caller\n        /* \"DripWarrior/poolContract.sol\":17599:17621  msg.sender != ownerTwo */\n      eq\n      iszero\n        /* \"DripWarrior/poolContract.sol\":17573:17621  msg.sender != ownerOne && msg.sender != ownerTwo */\n    tag_427:\n        /* \"DripWarrior/poolContract.sol\":17570:17676  if(msg.sender != ownerOne && msg.sender != ownerTwo){... */\n      iszero\n      tag_428\n      jumpi\n        /* \"DripWarrior/poolContract.sol\":17643:17665  wrongOwner(msg.sender) */\n      mload(0x40)\n      shl(0xe3, 0x1ed6f38b)\n      dup2\n      mstore\n        /* \"DripWarrior/poolContract.sol\":17654:17664  msg.sender */\n      caller\n        /* \"DripWarrior/poolContract.sol\":17643:17665  wrongOwner(msg.sender) */\n      0x04\n      dup3\n      add\n        /* \"#utility.yul\":357:408   */\n      mstore\n        /* \"#utility.yul\":330:348   */\n      0x24\n      add\n        /* \"DripWarrior/poolContract.sol\":17643:17665  wrongOwner(msg.sender) */\n      tag_291\n        /* \"#utility.yul\":196:414   */\n      jump\n        /* \"DripWarrior/poolContract.sol\":17570:17676  if(msg.sender != ownerOne && msg.sender != ownerTwo){... */\n    tag_428:\n        /* \"DripWarrior/poolContract.sol\":5642:5643  0 */\n      0x00\n        /* \"DripWarrior/poolContract.sol\":5631:5638  _amount */\n      dup2\n        /* \"DripWarrior/poolContract.sol\":5631:5643  _amount <= 0 */\n      gt\n        /* \"DripWarrior/poolContract.sol\":5628:5696  if(_amount <= 0){... */\n      tag_431\n      jumpi\n        /* \"DripWarrior/poolContract.sol\":5665:5685  wrongAmount(_amount) */\n      mload(0x40)\n      shl(0xe4, 0x02ff4783)\n      dup2\n      mstore\n      0x04\n      dup2\n      add\n        /* \"#utility.yul\":160:185   */\n      dup3\n      swap1\n      mstore\n        /* \"#utility.yul\":133:151   */\n      0x24\n      add\n        /* \"DripWarrior/poolContract.sol\":5665:5685  wrongAmount(_amount) */\n      tag_291\n        /* \"#utility.yul\":14:191   */\n      jump\n        /* \"DripWarrior/poolContract.sol\":5628:5696  if(_amount <= 0){... */\n    tag_431:\n        /* \"DripWarrior/poolContract.sol\":5729:5736  _amount */\n      dup1\n        /* \"DripWarrior/poolContract.sol\":5706:5725  ownerShipPoolAmount */\n      0x02\n      0x00\n        /* \"DripWarrior/poolContract.sol\":5706:5736  ownerShipPoolAmount += _amount */\n      dup3\n      dup3\n      sload\n      tag_433\n      swap2\n      swap1\n      tag_320\n      jump\t// in\n    tag_433:\n      swap1\n      swap2\n      sstore\n      pop\n      pop\n        /* \"DripWarrior/poolContract.sol\":5747:5759  bool success */\n      0x00\n        /* \"DripWarrior/poolContract.sol\":5762:5771  usdcToken */\n      dup1\n      sload\n        /* \"DripWarrior/poolContract.sol\":5762:5819  usdcToken.transferFrom(msg.sender,address(this),_amount ) */\n      mload(0x40)\n      shl(0xe0, 0x23b872dd)\n      dup2\n      mstore\n      sub(shl(0xa0, 0x01), 0x01)\n        /* \"DripWarrior/poolContract.sol\":5762:5771  usdcToken */\n      swap1\n      swap2\n      and\n      swap1\n        /* \"DripWarrior/poolContract.sol\":5762:5784  usdcToken.transferFrom */\n      0x23b872dd\n      swap1\n        /* \"DripWarrior/poolContract.sol\":5762:5819  usdcToken.transferFrom(msg.sender,address(this),_amount ) */\n      tag_434\n      swap1\n        /* \"DripWarrior/poolContract.sol\":5785:5795  msg.sender */\n      caller\n      swap1\n        /* \"DripWarrior/poolContract.sol\":5804:5808  this */\n      address\n      swap1\n        /* \"DripWarrior/poolContract.sol\":5810:5817  _amount */\n      dup8\n      swap1\n        /* \"DripWarrior/poolContract.sol\":5762:5819  usdcToken.transferFrom(msg.sender,address(this),_amount ) */\n      0x04\n      add\n      tag_354\n      jump\t// in\n    tag_434:\n      0x20\n      mload(0x40)\n      dup1\n      dup4\n      sub\n      dup2\n      0x00\n      dup8\n      gas\n      call\n      iszero\n      dup1\n      iszero\n      tag_436\n      jumpi\n      returndatasize\n      0x00\n      dup1\n      returndatacopy\n      revert(0x00, returndatasize)\n    tag_436:\n      pop\n      pop\n      pop\n      pop\n      mload(0x40)\n      returndatasize\n      not(0x1f)\n      0x1f\n      dup3\n      add\n      and\n      dup3\n      add\n      dup1\n      0x40\n      mstore\n      pop\n      dup2\n      add\n      swap1\n      tag_437\n      swap2\n      swap1\n      tag_358\n      jump\t// in\n    tag_437:\n        /* \"DripWarrior/poolContract.sol\":5747:5819  bool success = usdcToken.transferFrom(msg.sender,address(this),_amount ) */\n      swap1\n      pop\n        /* \"DripWarrior/poolContract.sol\":5833:5840  success */\n      dup1\n        /* \"DripWarrior/poolContract.sol\":5829:5896  if(!success){... */\n      tag_438\n      jumpi\n        /* \"DripWarrior/poolContract.sol\":5862:5885  transferFailed(success) */\n      mload(0x40)\n      shl(0xe0, 0xd85d3cef)\n      dup2\n      mstore\n        /* \"#utility.yul\":7698:7712   */\n      dup2\n      iszero\n        /* \"#utility.yul\":7691:7713   */\n      iszero\n        /* \"DripWarrior/poolContract.sol\":5862:5885  transferFailed(success) */\n      0x04\n      dup3\n      add\n        /* \"#utility.yul\":7673:7714   */\n      mstore\n        /* \"#utility.yul\":7646:7664   */\n      0x24\n      add\n        /* \"DripWarrior/poolContract.sol\":5862:5885  transferFailed(success) */\n      tag_291\n        /* \"#utility.yul\":7533:7720   */\n      jump\n        /* \"DripWarrior/poolContract.sol\":5829:5896  if(!success){... */\n    tag_438:\n        /* \"DripWarrior/poolContract.sol\":5911:5944  AddOwnership(ownerShipPoolAmount) */\n      0x73834e1d1ee73ba659470a3603b888903853d3a3c9fda34e71c093a0e35cab94\n        /* \"DripWarrior/poolContract.sol\":5924:5943  ownerShipPoolAmount */\n      sload(0x02)\n        /* \"DripWarrior/poolContract.sol\":5911:5944  AddOwnership(ownerShipPoolAmount) */\n      mload(0x40)\n      tag_324\n      swap2\n        /* \"#utility.yul\":160:185   */\n      dup2\n      mstore\n        /* \"#utility.yul\":148:150   */\n      0x20\n        /* \"#utility.yul\":133:151   */\n      add\n      swap1\n        /* \"#utility.yul\":14:191   */\n      jump\n        /* \"DripWarrior/poolContract.sol\":17211:17534  function setmaintainceFeePercentage(uint256 _newPerccentage) external bothOwner {... */\n    tag_175:\n        /* \"DripWarrior/poolContract.sol\":17587:17595  ownerOne */\n      and(sub(shl(0xa0, 0x01), 0x01), sload(0x0f))\n        /* \"DripWarrior/poolContract.sol\":17573:17583  msg.sender */\n      caller\n        /* \"DripWarrior/poolContract.sol\":17573:17595  msg.sender != ownerOne */\n      eq\n      dup1\n      iszero\n      swap1\n        /* \"DripWarrior/poolContract.sol\":17573:17621  msg.sender != ownerOne && msg.sender != ownerTwo */\n      tag_442\n      jumpi\n      pop\n        /* \"DripWarrior/poolContract.sol\":17613:17621  ownerTwo */\n      and(sub(shl(0xa0, 0x01), 0x01), sload(0x10))\n        /* \"DripWarrior/poolContract.sol\":17599:17609  msg.sender */\n      caller\n        /* \"DripWarrior/poolContract.sol\":17599:17621  msg.sender != ownerTwo */\n      eq\n      iszero\n        /* \"DripWarrior/poolContract.sol\":17573:17621  msg.sender != ownerOne && msg.sender != ownerTwo */\n    tag_442:\n        /* \"DripWarrior/poolContract.sol\":17570:17676  if(msg.sender != ownerOne && msg.sender != ownerTwo){... */\n      iszero\n      tag_443\n      jumpi\n        /* \"DripWarrior/poolContract.sol\":17643:17665  wrongOwner(msg.sender) */\n      mload(0x40)\n      shl(0xe3, 0x1ed6f38b)\n      dup2\n      mstore\n        /* \"DripWarrior/poolContract.sol\":17654:17664  msg.sender */\n      caller\n        /* \"DripWarrior/poolContract.sol\":17643:17665  wrongOwner(msg.sender) */\n      0x04\n      dup3\n      add\n        /* \"#utility.yul\":357:408   */\n      mstore\n        /* \"#utility.yul\":330:348   */\n      0x24\n      add\n        /* \"DripWarrior/poolContract.sol\":17643:17665  wrongOwner(msg.sender) */\n      tag_291\n        /* \"#utility.yul\":196:414   */\n      jump\n        /* \"DripWarrior/poolContract.sol\":17570:17676  if(msg.sender != ownerOne && msg.sender != ownerTwo){... */\n    tag_443:\n        /* \"DripWarrior/poolContract.sol\":17332:17333  0 */\n      0x00\n        /* \"DripWarrior/poolContract.sol\":17313:17328  _newPerccentage */\n      dup2\n        /* \"DripWarrior/poolContract.sol\":17313:17333  _newPerccentage <= 0 */\n      gt\n        /* \"DripWarrior/poolContract.sol\":17310:17398  if(_newPerccentage <= 0){... */\n      tag_446\n      jumpi\n        /* \"DripWarrior/poolContract.sol\":17355:17387  wrongPercentage(_newPerccentage) */\n      mload(0x40)\n      shl(0xe0, 0xcdbc6335)\n      dup2\n      mstore\n      0x04\n      dup2\n      add\n        /* \"#utility.yul\":160:185   */\n      dup3\n      swap1\n      mstore\n        /* \"#utility.yul\":133:151   */\n      0x24\n      add\n        /* \"DripWarrior/poolContract.sol\":17355:17387  wrongPercentage(_newPerccentage) */\n      tag_291\n        /* \"#utility.yul\":14:191   */\n      jump\n        /* \"DripWarrior/poolContract.sol\":17310:17398  if(_newPerccentage <= 0){... */\n    tag_446:\n        /* \"DripWarrior/poolContract.sol\":17416:17439  maintainceFeePercentage */\n      0x07\n        /* \"DripWarrior/poolContract.sol\":17416:17457  maintainceFeePercentage = _newPerccentage */\n      dup2\n      swap1\n      sstore\n        /* \"DripWarrior/poolContract.sol\":17473:17527  PercentageChanged(msg.sender, maintainceFeePercentage) */\n      0x40\n      dup1\n      mload\n        /* \"DripWarrior/poolContract.sol\":17491:17501  msg.sender */\n      caller\n        /* \"#utility.yul\":10951:11002   */\n      dup2\n      mstore\n        /* \"#utility.yul\":11033:11035   */\n      0x20\n        /* \"#utility.yul\":11018:11036   */\n      dup2\n      add\n        /* \"#utility.yul\":11011:11045   */\n      dup4\n      swap1\n      mstore\n      0x00\n      dup1\n      mload\n      0x20\n      data_d85598d6ea860439b48fc265883a1cac638ff64dca5391fe12b46f27076e26fe\n      dup4\n      codecopy\n      dup2\n      mload\n      swap2\n      mstore\n        /* \"DripWarrior/poolContract.sol\":17473:17527  PercentageChanged(msg.sender, maintainceFeePercentage) */\n      swap2\n        /* \"#utility.yul\":10924:10942   */\n      add\n        /* \"DripWarrior/poolContract.sol\":17473:17527  PercentageChanged(msg.sender, maintainceFeePercentage) */\n      tag_299\n        /* \"#utility.yul\":10777:11051   */\n      jump\n        /* \"DripWarrior/poolContract.sol\":16200:16530  function settdividentPayoutPercentage(uint256 _newPerccentage) external bothOwner {... */\n    tag_179:\n        /* \"DripWarrior/poolContract.sol\":17587:17595  ownerOne */\n      and(sub(shl(0xa0, 0x01), 0x01), sload(0x0f))\n        /* \"DripWarrior/poolContract.sol\":17573:17583  msg.sender */\n      caller\n        /* \"DripWarrior/poolContract.sol\":17573:17595  msg.sender != ownerOne */\n      eq\n      dup1\n      iszero\n      swap1\n        /* \"DripWarrior/poolContract.sol\":17573:17621  msg.sender != ownerOne && msg.sender != ownerTwo */\n      tag_450\n      jumpi\n      pop\n        /* \"DripWarrior/poolContract.sol\":17613:17621  ownerTwo */\n      and(sub(shl(0xa0, 0x01), 0x01), sload(0x10))\n        /* \"DripWarrior/poolContract.sol\":17599:17609  msg.sender */\n      caller\n        /* \"DripWarrior/poolContract.sol\":17599:17621  msg.sender != ownerTwo */\n      eq\n      iszero\n        /* \"DripWarrior/poolContract.sol\":17573:17621  msg.sender != ownerOne && msg.sender != ownerTwo */\n    tag_450:\n        /* \"DripWarrior/poolContract.sol\":17570:17676  if(msg.sender != ownerOne && msg.sender != ownerTwo){... */\n      iszero\n      tag_451\n      jumpi\n        /* \"DripWarrior/poolContract.sol\":17643:17665  wrongOwner(msg.sender) */\n      mload(0x40)\n      shl(0xe3, 0x1ed6f38b)\n      dup2\n      mstore\n        /* \"DripWarrior/poolContract.sol\":17654:17664  msg.sender */\n      caller\n        /* \"DripWarrior/poolContract.sol\":17643:17665  wrongOwner(msg.sender) */\n      0x04\n      dup3\n      add\n        /* \"#utility.yul\":357:408   */\n      mstore\n        /* \"#utility.yul\":330:348   */\n      0x24\n      add\n        /* \"DripWarrior/poolContract.sol\":17643:17665  wrongOwner(msg.sender) */\n      tag_291\n        /* \"#utility.yul\":196:414   */\n      jump\n        /* \"DripWarrior/poolContract.sol\":17570:17676  if(msg.sender != ownerOne && msg.sender != ownerTwo){... */\n    tag_451:\n        /* \"DripWarrior/poolContract.sol\":16323:16324  0 */\n      0x00\n        /* \"DripWarrior/poolContract.sol\":16304:16319  _newPerccentage */\n      dup2\n        /* \"DripWarrior/poolContract.sol\":16304:16324  _newPerccentage <= 0 */\n      gt\n        /* \"DripWarrior/poolContract.sol\":16301:16389  if(_newPerccentage <= 0){... */\n      tag_454\n      jumpi\n        /* \"DripWarrior/poolContract.sol\":16346:16378  wrongPercentage(_newPerccentage) */\n      mload(0x40)\n      shl(0xe0, 0xcdbc6335)\n      dup2\n      mstore\n      0x04\n      dup2\n      add\n        /* \"#utility.yul\":160:185   */\n      dup3\n      swap1\n      mstore\n        /* \"#utility.yul\":133:151   */\n      0x24\n      add\n        /* \"DripWarrior/poolContract.sol\":16346:16378  wrongPercentage(_newPerccentage) */\n      tag_291\n        /* \"#utility.yul\":14:191   */\n      jump\n        /* \"DripWarrior/poolContract.sol\":16301:16389  if(_newPerccentage <= 0){... */\n    tag_454:\n        /* \"DripWarrior/poolContract.sol\":16407:16432  tdividentPayoutPercentage */\n      0x04\n        /* \"DripWarrior/poolContract.sol\":16407:16450  tdividentPayoutPercentage = _newPerccentage */\n      dup2\n      swap1\n      sstore\n        /* \"DripWarrior/poolContract.sol\":16466:16522  PercentageChanged(msg.sender, tdividentPayoutPercentage) */\n      0x40\n      dup1\n      mload\n        /* \"DripWarrior/poolContract.sol\":16484:16494  msg.sender */\n      caller\n        /* \"#utility.yul\":10951:11002   */\n      dup2\n      mstore\n        /* \"#utility.yul\":11033:11035   */\n      0x20\n        /* \"#utility.yul\":11018:11036   */\n      dup2\n      add\n        /* \"#utility.yul\":11011:11045   */\n      dup4\n      swap1\n      mstore\n      0x00\n      dup1\n      mload\n      0x20\n      data_d85598d6ea860439b48fc265883a1cac638ff64dca5391fe12b46f27076e26fe\n      dup4\n      codecopy\n      dup2\n      mload\n      swap2\n      mstore\n        /* \"DripWarrior/poolContract.sol\":16466:16522  PercentageChanged(msg.sender, tdividentPayoutPercentage) */\n      swap2\n        /* \"#utility.yul\":10924:10942   */\n      add\n        /* \"DripWarrior/poolContract.sol\":16466:16522  PercentageChanged(msg.sender, tdividentPayoutPercentage) */\n      tag_299\n        /* \"#utility.yul\":10777:11051   */\n      jump\n        /* \"DripWarrior/poolContract.sol\":7833:8511  function reStakeTokens(uint256 _amount) external  {... */\n    tag_183:\n        /* \"DripWarrior/poolContract.sol\":7916:7917  0 */\n      0x00\n        /* \"DripWarrior/poolContract.sol\":7905:7912  _amount */\n      dup2\n        /* \"DripWarrior/poolContract.sol\":7905:7917  _amount <= 0 */\n      gt\n        /* \"DripWarrior/poolContract.sol\":7902:7970  if(_amount <= 0){... */\n      tag_458\n      jumpi\n        /* \"DripWarrior/poolContract.sol\":7939:7959  wrongAmount(_amount) */\n      mload(0x40)\n      shl(0xe4, 0x02ff4783)\n      dup2\n      mstore\n      0x04\n      dup2\n      add\n        /* \"#utility.yul\":160:185   */\n      dup3\n      swap1\n      mstore\n        /* \"#utility.yul\":133:151   */\n      0x24\n      add\n        /* \"DripWarrior/poolContract.sol\":7939:7959  wrongAmount(_amount) */\n      tag_291\n        /* \"#utility.yul\":14:191   */\n      jump\n        /* \"DripWarrior/poolContract.sol\":7902:7970  if(_amount <= 0){... */\n    tag_458:\n        /* \"DripWarrior/poolContract.sol\":8005:8015  msg.sender */\n      caller\n        /* \"DripWarrior/poolContract.sol\":7990:8016  userRegistered[msg.sender] */\n      0x00\n      swap1\n      dup2\n      mstore\n        /* \"DripWarrior/poolContract.sol\":7990:8004  userRegistered */\n      0x15\n        /* \"DripWarrior/poolContract.sol\":7990:8016  userRegistered[msg.sender] */\n      0x20\n      mstore\n      0x40\n      swap1\n      keccak256\n        /* \"DripWarrior/poolContract.sol\":7990:8024  userRegistered[msg.sender].blocked */\n      sload\n      0xff\n      and\n        /* \"DripWarrior/poolContract.sol\":7987:8104  if(userRegistered[msg.sender].blocked){... */\n      iszero\n      tag_460\n      jumpi\n        /* \"DripWarrior/poolContract.sol\":8073:8083  msg.sender */\n      caller\n        /* \"DripWarrior/poolContract.sol\":8058:8084  userRegistered[msg.sender] */\n      0x00\n      swap1\n      dup2\n      mstore\n        /* \"DripWarrior/poolContract.sol\":8058:8072  userRegistered */\n      0x15\n        /* \"DripWarrior/poolContract.sol\":8058:8084  userRegistered[msg.sender] */\n      0x20\n      mstore\n      0x40\n      swap1\n      dup2\n      swap1\n      keccak256\n        /* \"DripWarrior/poolContract.sol\":8058:8092  userRegistered[msg.sender].blocked */\n      sload\n        /* \"DripWarrior/poolContract.sol\":8046:8093  userBlocked(userRegistered[msg.sender].blocked) */\n      swap1\n      mload\n      shl(0xe6, 0x01be970f)\n      dup2\n      mstore\n        /* \"DripWarrior/poolContract.sol\":8058:8092  userRegistered[msg.sender].blocked */\n      0xff\n      swap1\n      swap2\n      and\n        /* \"#utility.yul\":7698:7712   */\n      iszero\n        /* \"#utility.yul\":7691:7713   */\n      iszero\n        /* \"DripWarrior/poolContract.sol\":8046:8093  userBlocked(userRegistered[msg.sender].blocked) */\n      0x04\n      dup3\n      add\n        /* \"#utility.yul\":7673:7714   */\n      mstore\n        /* \"#utility.yul\":7646:7664   */\n      0x24\n      add\n        /* \"DripWarrior/poolContract.sol\":8046:8093  userBlocked(userRegistered[msg.sender].blocked) */\n      tag_291\n        /* \"#utility.yul\":7533:7720   */\n      jump\n        /* \"DripWarrior/poolContract.sol\":7987:8104  if(userRegistered[msg.sender].blocked){... */\n    tag_460:\n        /* \"DripWarrior/poolContract.sol\":8132:8142  msg.sender */\n      caller\n        /* \"DripWarrior/poolContract.sol\":8117:8143  userRegistered[msg.sender] */\n      0x00\n      swap1\n      dup2\n      mstore\n        /* \"DripWarrior/poolContract.sol\":8117:8131  userRegistered */\n      0x15\n        /* \"DripWarrior/poolContract.sol\":8117:8143  userRegistered[msg.sender] */\n      0x20\n      mstore\n      0x40\n      swap1\n      keccak256\n        /* \"DripWarrior/poolContract.sol\":8117:8158  userRegistered[msg.sender].receivedAmount */\n      0x01\n      add\n      sload\n        /* \"DripWarrior/poolContract.sol\":8117:8169  userRegistered[msg.sender].receivedAmount <= _amount */\n      dup2\n      lt\n        /* \"DripWarrior/poolContract.sol\":8114:8227  if(userRegistered[msg.sender].receivedAmount <= _amount){... */\n      tag_462\n      jumpi\n        /* \"DripWarrior/poolContract.sol\":8191:8216  notEnoughBalance(_amount) */\n      mload(0x40)\n      shl(0xe3, 0x0636dc6b)\n      dup2\n      mstore\n      0x04\n      dup2\n      add\n        /* \"#utility.yul\":160:185   */\n      dup3\n      swap1\n      mstore\n        /* \"#utility.yul\":133:151   */\n      0x24\n      add\n        /* \"DripWarrior/poolContract.sol\":8191:8216  notEnoughBalance(_amount) */\n      tag_291\n        /* \"#utility.yul\":14:191   */\n      jump\n        /* \"DripWarrior/poolContract.sol\":8114:8227  if(userRegistered[msg.sender].receivedAmount <= _amount){... */\n    tag_462:\n        /* \"DripWarrior/poolContract.sol\":8252:8262  msg.sender */\n      caller\n        /* \"DripWarrior/poolContract.sol\":8237:8263  userRegistered[msg.sender] */\n      0x00\n      swap1\n      dup2\n      mstore\n        /* \"DripWarrior/poolContract.sol\":8237:8251  userRegistered */\n      0x15\n        /* \"DripWarrior/poolContract.sol\":8237:8263  userRegistered[msg.sender] */\n      0x20\n      mstore\n      0x40\n      dup2\n      keccak256\n        /* \"DripWarrior/poolContract.sol\":8237:8278  userRegistered[msg.sender].receivedAmount */\n      0x01\n      add\n        /* \"DripWarrior/poolContract.sol\":8237:8289  userRegistered[msg.sender].receivedAmount -= _amount */\n      dup1\n      sload\n        /* \"DripWarrior/poolContract.sol\":8282:8289  _amount */\n      dup4\n      swap3\n        /* \"DripWarrior/poolContract.sol\":8237:8263  userRegistered[msg.sender] */\n      swap1\n        /* \"DripWarrior/poolContract.sol\":8237:8289  userRegistered[msg.sender].receivedAmount -= _amount */\n      tag_464\n      swap1\n        /* \"DripWarrior/poolContract.sol\":8282:8289  _amount */\n      dup5\n      swap1\n        /* \"DripWarrior/poolContract.sol\":8237:8289  userRegistered[msg.sender].receivedAmount -= _amount */\n      tag_298\n      jump\t// in\n    tag_464:\n      swap1\n      swap2\n      sstore\n      pop\n      pop\n        /* \"DripWarrior/poolContract.sol\":8314:8324  msg.sender */\n      caller\n        /* \"DripWarrior/poolContract.sol\":8299:8325  userRegistered[msg.sender] */\n      0x00\n      swap1\n      dup2\n      mstore\n        /* \"DripWarrior/poolContract.sol\":8299:8313  userRegistered */\n      0x15\n        /* \"DripWarrior/poolContract.sol\":8299:8325  userRegistered[msg.sender] */\n      0x20\n      mstore\n      0x40\n      dup2\n      keccak256\n        /* \"DripWarrior/poolContract.sol\":8299:8343  userRegistered[msg.sender].totalStakedAmount */\n      0x05\n      add\n        /* \"DripWarrior/poolContract.sol\":8299:8354  userRegistered[msg.sender].totalStakedAmount += _amount */\n      dup1\n      sload\n        /* \"DripWarrior/poolContract.sol\":8347:8354  _amount */\n      dup4\n      swap3\n        /* \"DripWarrior/poolContract.sol\":8299:8325  userRegistered[msg.sender] */\n      swap1\n        /* \"DripWarrior/poolContract.sol\":8299:8354  userRegistered[msg.sender].totalStakedAmount += _amount */\n      tag_465\n      swap1\n        /* \"DripWarrior/poolContract.sol\":8347:8354  _amount */\n      dup5\n      swap1\n        /* \"DripWarrior/poolContract.sol\":8299:8354  userRegistered[msg.sender].totalStakedAmount += _amount */\n      tag_320\n      jump\t// in\n    tag_465:\n      swap3\n      pop\n      pop\n      dup2\n      swap1\n      sstore\n      pop\n        /* \"DripWarrior/poolContract.sol\":8396:8403  _amount */\n      dup1\n        /* \"DripWarrior/poolContract.sol\":8373:8392  ownerShipPoolAmount */\n      0x02\n      0x00\n        /* \"DripWarrior/poolContract.sol\":8373:8403  ownerShipPoolAmount += _amount */\n      dup3\n      dup3\n      sload\n      tag_466\n      swap2\n      swap1\n      tag_320\n      jump\t// in\n    tag_466:\n      swap3\n      pop\n      pop\n      dup2\n      swap1\n      sstore\n      pop\n        /* \"DripWarrior/poolContract.sol\":8434:8441  _amount */\n      dup1\n        /* \"DripWarrior/poolContract.sol\":8413:8430  totalStakedAmount */\n      0x03\n      0x00\n        /* \"DripWarrior/poolContract.sol\":8413:8441  totalStakedAmount += _amount */\n      dup3\n      dup3\n      sload\n      tag_467\n      swap2\n      swap1\n      tag_320\n      jump\t// in\n    tag_467:\n      swap1\n      swap2\n      sstore\n      pop\n      pop\n        /* \"DripWarrior/poolContract.sol\":8457:8503  StakeTokens(msg.sender,address(this), _amount) */\n      mload(0x40)\n      0x14ee34c24635186d212f515353dadae9c226529edef2d1fcf5504cb33b5c25ab\n      swap1\n      tag_299\n      swap1\n        /* \"DripWarrior/poolContract.sol\":8469:8479  msg.sender */\n      caller\n      swap1\n        /* \"DripWarrior/poolContract.sol\":8488:8492  this */\n      address\n      swap1\n        /* \"DripWarrior/poolContract.sol\":8495:8502  _amount */\n      dup6\n      swap1\n        /* \"DripWarrior/poolContract.sol\":8457:8503  StakeTokens(msg.sender,address(this), _amount) */\n      tag_354\n      jump\t// in\n        /* \"DripWarrior/poolContract.sol\":8521:9062  function addFunds(uint256 _amount, uint256 _projectNo)   external {... */\n    tag_191:\n        /* \"DripWarrior/poolContract.sol\":8612:8613  0 */\n      0x00\n        /* \"DripWarrior/poolContract.sol\":8601:8608  _amount */\n      dup3\n        /* \"DripWarrior/poolContract.sol\":8601:8613  _amount <= 0 */\n      gt\n        /* \"DripWarrior/poolContract.sol\":8598:8666  if(_amount <= 0){... */\n      tag_470\n      jumpi\n        /* \"DripWarrior/poolContract.sol\":8635:8655  wrongAmount(_amount) */\n      mload(0x40)\n      shl(0xe4, 0x02ff4783)\n      dup2\n      mstore\n      0x04\n      dup2\n      add\n        /* \"#utility.yul\":160:185   */\n      dup4\n      swap1\n      mstore\n        /* \"#utility.yul\":133:151   */\n      0x24\n      add\n        /* \"DripWarrior/poolContract.sol\":8635:8655  wrongAmount(_amount) */\n      tag_291\n        /* \"#utility.yul\":14:191   */\n      jump\n        /* \"DripWarrior/poolContract.sol\":8598:8666  if(_amount <= 0){... */\n    tag_470:\n        /* \"DripWarrior/poolContract.sol\":8692:8705  totalProjects */\n      sload(0x11)\n        /* \"DripWarrior/poolContract.sol\":8679:8689  _projectNo */\n      dup2\n        /* \"DripWarrior/poolContract.sol\":8679:8705  _projectNo > totalProjects */\n      gt\n        /* \"DripWarrior/poolContract.sol\":8676:8764  if(_projectNo > totalProjects){... */\n      iszero\n      tag_472\n      jumpi\n        /* \"DripWarrior/poolContract.sol\":8727:8753  wrongProjectNo(_projectNo) */\n      mload(0x40)\n      shl(0xe0, 0x222a50f3)\n      dup2\n      mstore\n      0x04\n      dup2\n      add\n        /* \"#utility.yul\":160:185   */\n      dup3\n      swap1\n      mstore\n        /* \"#utility.yul\":133:151   */\n      0x24\n      add\n        /* \"DripWarrior/poolContract.sol\":8727:8753  wrongProjectNo(_projectNo) */\n      tag_291\n        /* \"#utility.yul\":14:191   */\n      jump\n        /* \"DripWarrior/poolContract.sol\":8676:8764  if(_projectNo > totalProjects){... */\n    tag_472:\n        /* \"DripWarrior/poolContract.sol\":8809:8834  tPPercentages[_projectNo] */\n      0x00\n      dup2\n      dup2\n      mstore\n        /* \"DripWarrior/poolContract.sol\":8809:8822  tPPercentages */\n      0x14\n        /* \"DripWarrior/poolContract.sol\":8809:8834  tPPercentages[_projectNo] */\n      0x20\n      mstore\n      0x40\n      swap1\n      keccak256\n      sload\n        /* \"DripWarrior/poolContract.sol\":8786:8835  calculateFees(_amount, tPPercentages[_projectNo]) */\n      tag_474\n      swap1\n        /* \"DripWarrior/poolContract.sol\":8800:8807  _amount */\n      dup4\n      swap1\n        /* \"DripWarrior/poolContract.sol\":8786:8799  calculateFees */\n      tag_475\n        /* \"DripWarrior/poolContract.sol\":8786:8835  calculateFees(_amount, tPPercentages[_projectNo]) */\n      jump\t// in\n    tag_474:\n        /* \"DripWarrior/poolContract.sol\":8854:8866  bool success */\n      0x00\n        /* \"DripWarrior/poolContract.sol\":8869:8878  usdcToken */\n      dup1\n      sload\n        /* \"DripWarrior/poolContract.sol\":8869:8926  usdcToken.transferFrom(msg.sender,address(this),_amount ) */\n      mload(0x40)\n      shl(0xe0, 0x23b872dd)\n      dup2\n      mstore\n      sub(shl(0xa0, 0x01), 0x01)\n        /* \"DripWarrior/poolContract.sol\":8869:8878  usdcToken */\n      swap1\n      swap2\n      and\n      swap1\n        /* \"DripWarrior/poolContract.sol\":8869:8891  usdcToken.transferFrom */\n      0x23b872dd\n      swap1\n        /* \"DripWarrior/poolContract.sol\":8869:8926  usdcToken.transferFrom(msg.sender,address(this),_amount ) */\n      tag_476\n      swap1\n        /* \"DripWarrior/poolContract.sol\":8892:8902  msg.sender */\n      caller\n      swap1\n        /* \"DripWarrior/poolContract.sol\":8911:8915  this */\n      address\n      swap1\n        /* \"DripWarrior/poolContract.sol\":8917:8924  _amount */\n      dup9\n      swap1\n        /* \"DripWarrior/poolContract.sol\":8869:8926  usdcToken.transferFrom(msg.sender,address(this),_amount ) */\n      0x04\n      add\n      tag_354\n      jump\t// in\n    tag_476:\n      0x20\n      mload(0x40)\n      dup1\n      dup4\n      sub\n      dup2\n      0x00\n      dup8\n      gas\n      call\n      iszero\n      dup1\n      iszero\n      tag_478\n      jumpi\n      returndatasize\n      0x00\n      dup1\n      returndatacopy\n      revert(0x00, returndatasize)\n    tag_478:\n      pop\n      pop\n      pop\n      pop\n      mload(0x40)\n      returndatasize\n      not(0x1f)\n      0x1f\n      dup3\n      add\n      and\n      dup3\n      add\n      dup1\n      0x40\n      mstore\n      pop\n      dup2\n      add\n      swap1\n      tag_479\n      swap2\n      swap1\n      tag_358\n      jump\t// in\n    tag_479:\n        /* \"DripWarrior/poolContract.sol\":8854:8926  bool success = usdcToken.transferFrom(msg.sender,address(this),_amount ) */\n      swap1\n      pop\n        /* \"DripWarrior/poolContract.sol\":8940:8947  success */\n      dup1\n        /* \"DripWarrior/poolContract.sol\":8936:9003  if(!success){... */\n      tag_480\n      jumpi\n        /* \"DripWarrior/poolContract.sol\":8969:8992  transferFailed(success) */\n      mload(0x40)\n      shl(0xe0, 0xd85d3cef)\n      dup2\n      mstore\n        /* \"#utility.yul\":7698:7712   */\n      dup2\n      iszero\n        /* \"#utility.yul\":7691:7713   */\n      iszero\n        /* \"DripWarrior/poolContract.sol\":8969:8992  transferFailed(success) */\n      0x04\n      dup3\n      add\n        /* \"#utility.yul\":7673:7714   */\n      mstore\n        /* \"#utility.yul\":7646:7664   */\n      0x24\n      add\n        /* \"DripWarrior/poolContract.sol\":8969:8992  transferFailed(success) */\n      tag_291\n        /* \"#utility.yul\":7533:7720   */\n      jump\n        /* \"DripWarrior/poolContract.sol\":8936:9003  if(!success){... */\n    tag_480:\n        /* \"DripWarrior/poolContract.sol\":9018:9046  AddFunds(_amount,_projectNo) */\n      0x40\n      dup1\n      mload\n        /* \"#utility.yul\":11590:11615   */\n      dup5\n      dup2\n      mstore\n        /* \"#utility.yul\":11646:11648   */\n      0x20\n        /* \"#utility.yul\":11631:11649   */\n      dup2\n      add\n        /* \"#utility.yul\":11624:11658   */\n      dup5\n      swap1\n      mstore\n        /* \"DripWarrior/poolContract.sol\":9018:9046  AddFunds(_amount,_projectNo) */\n      0xa89b69c5958ec1ccf0df0de746a8708f5b6a6b429430129f16f46f44b319c900\n      swap2\n        /* \"#utility.yul\":11563:11581   */\n      add\n        /* \"DripWarrior/poolContract.sol\":9018:9046  AddFunds(_amount,_projectNo) */\n      mload(0x40)\n      dup1\n      swap2\n      sub\n      swap1\n      log1\n        /* \"DripWarrior/poolContract.sol\":8587:9062  {... */\n      pop\n        /* \"DripWarrior/poolContract.sol\":8521:9062  function addFunds(uint256 _amount, uint256 _projectNo)   external {... */\n      pop\n      pop\n      jump\t// out\n        /* \"DripWarrior/poolContract.sol\":16880:17205  function setflowToTreasuryPercentage(uint256 _newPerccentage) external bothOwner {... */\n    tag_217:\n        /* \"DripWarrior/poolContract.sol\":17587:17595  ownerOne */\n      and(sub(shl(0xa0, 0x01), 0x01), sload(0x0f))\n        /* \"DripWarrior/poolContract.sol\":17573:17583  msg.sender */\n      caller\n        /* \"DripWarrior/poolContract.sol\":17573:17595  msg.sender != ownerOne */\n      eq\n      dup1\n      iszero\n      swap1\n        /* \"DripWarrior/poolContract.sol\":17573:17621  msg.sender != ownerOne && msg.sender != ownerTwo */\n      tag_488\n      jumpi\n      pop\n        /* \"DripWarrior/poolContract.sol\":17613:17621  ownerTwo */\n      and(sub(shl(0xa0, 0x01), 0x01), sload(0x10))\n        /* \"DripWarrior/poolContract.sol\":17599:17609  msg.sender */\n      caller\n        /* \"DripWarrior/poolContract.sol\":17599:17621  msg.sender != ownerTwo */\n      eq\n      iszero\n        /* \"DripWarrior/poolContract.sol\":17573:17621  msg.sender != ownerOne && msg.sender != ownerTwo */\n    tag_488:\n        /* \"DripWarrior/poolContract.sol\":17570:17676  if(msg.sender != ownerOne && msg.sender != ownerTwo){... */\n      iszero\n      tag_489\n      jumpi\n        /* \"DripWarrior/poolContract.sol\":17643:17665  wrongOwner(msg.sender) */\n      mload(0x40)\n      shl(0xe3, 0x1ed6f38b)\n      dup2\n      mstore\n        /* \"DripWarrior/poolContract.sol\":17654:17664  msg.sender */\n      caller\n        /* \"DripWarrior/poolContract.sol\":17643:17665  wrongOwner(msg.sender) */\n      0x04\n      dup3\n      add\n        /* \"#utility.yul\":357:408   */\n      mstore\n        /* \"#utility.yul\":330:348   */\n      0x24\n      add\n        /* \"DripWarrior/poolContract.sol\":17643:17665  wrongOwner(msg.sender) */\n      tag_291\n        /* \"#utility.yul\":196:414   */\n      jump\n        /* \"DripWarrior/poolContract.sol\":17570:17676  if(msg.sender != ownerOne && msg.sender != ownerTwo){... */\n    tag_489:\n        /* \"DripWarrior/poolContract.sol\":17001:17002  0 */\n      0x00\n        /* \"DripWarrior/poolContract.sol\":16982:16997  _newPerccentage */\n      dup2\n        /* \"DripWarrior/poolContract.sol\":16982:17002  _newPerccentage <= 0 */\n      gt\n        /* \"DripWarrior/poolContract.sol\":16979:17067  if(_newPerccentage <= 0){... */\n      tag_492\n      jumpi\n        /* \"DripWarrior/poolContract.sol\":17024:17056  wrongPercentage(_newPerccentage) */\n      mload(0x40)\n      shl(0xe0, 0xcdbc6335)\n      dup2\n      mstore\n      0x04\n      dup2\n      add\n        /* \"#utility.yul\":160:185   */\n      dup3\n      swap1\n      mstore\n        /* \"#utility.yul\":133:151   */\n      0x24\n      add\n        /* \"DripWarrior/poolContract.sol\":17024:17056  wrongPercentage(_newPerccentage) */\n      tag_291\n        /* \"#utility.yul\":14:191   */\n      jump\n        /* \"DripWarrior/poolContract.sol\":16979:17067  if(_newPerccentage <= 0){... */\n    tag_492:\n        /* \"DripWarrior/poolContract.sol\":17085:17109  flowToTreasuryPercentage */\n      0x06\n        /* \"DripWarrior/poolContract.sol\":17085:17127  flowToTreasuryPercentage = _newPerccentage */\n      dup2\n      swap1\n      sstore\n        /* \"DripWarrior/poolContract.sol\":17143:17198  PercentageChanged(msg.sender, flowToTreasuryPercentage) */\n      0x40\n      dup1\n      mload\n        /* \"DripWarrior/poolContract.sol\":17161:17171  msg.sender */\n      caller\n        /* \"#utility.yul\":10951:11002   */\n      dup2\n      mstore\n        /* \"#utility.yul\":11033:11035   */\n      0x20\n        /* \"#utility.yul\":11018:11036   */\n      dup2\n      add\n        /* \"#utility.yul\":11011:11045   */\n      dup4\n      swap1\n      mstore\n      0x00\n      dup1\n      mload\n      0x20\n      data_d85598d6ea860439b48fc265883a1cac638ff64dca5391fe12b46f27076e26fe\n      dup4\n      codecopy\n      dup2\n      mload\n      swap2\n      mstore\n        /* \"DripWarrior/poolContract.sol\":17143:17198  PercentageChanged(msg.sender, flowToTreasuryPercentage) */\n      swap2\n        /* \"#utility.yul\":10924:10942   */\n      add\n        /* \"DripWarrior/poolContract.sol\":17143:17198  PercentageChanged(msg.sender, flowToTreasuryPercentage) */\n      tag_299\n        /* \"#utility.yul\":10777:11051   */\n      jump\n        /* \"DripWarrior/poolContract.sol\":16540:16869  function setodividentPayoutPercentage(uint256 _newPerccentage) external bothOwner {... */\n    tag_225:\n        /* \"DripWarrior/poolContract.sol\":17587:17595  ownerOne */\n      and(sub(shl(0xa0, 0x01), 0x01), sload(0x0f))\n        /* \"DripWarrior/poolContract.sol\":17573:17583  msg.sender */\n      caller\n        /* \"DripWarrior/poolContract.sol\":17573:17595  msg.sender != ownerOne */\n      eq\n      dup1\n      iszero\n      swap1\n        /* \"DripWarrior/poolContract.sol\":17573:17621  msg.sender != ownerOne && msg.sender != ownerTwo */\n      tag_496\n      jumpi\n      pop\n        /* \"DripWarrior/poolContract.sol\":17613:17621  ownerTwo */\n      and(sub(shl(0xa0, 0x01), 0x01), sload(0x10))\n        /* \"DripWarrior/poolContract.sol\":17599:17609  msg.sender */\n      caller\n        /* \"DripWarrior/poolContract.sol\":17599:17621  msg.sender != ownerTwo */\n      eq\n      iszero\n        /* \"DripWarrior/poolContract.sol\":17573:17621  msg.sender != ownerOne && msg.sender != ownerTwo */\n    tag_496:\n        /* \"DripWarrior/poolContract.sol\":17570:17676  if(msg.sender != ownerOne && msg.sender != ownerTwo){... */\n      iszero\n      tag_497\n      jumpi\n        /* \"DripWarrior/poolContract.sol\":17643:17665  wrongOwner(msg.sender) */\n      mload(0x40)\n      shl(0xe3, 0x1ed6f38b)\n      dup2\n      mstore\n        /* \"DripWarrior/poolContract.sol\":17654:17664  msg.sender */\n      caller\n        /* \"DripWarrior/poolContract.sol\":17643:17665  wrongOwner(msg.sender) */\n      0x04\n      dup3\n      add\n        /* \"#utility.yul\":357:408   */\n      mstore\n        /* \"#utility.yul\":330:348   */\n      0x24\n      add\n        /* \"DripWarrior/poolContract.sol\":17643:17665  wrongOwner(msg.sender) */\n      tag_291\n        /* \"#utility.yul\":196:414   */\n      jump\n        /* \"DripWarrior/poolContract.sol\":17570:17676  if(msg.sender != ownerOne && msg.sender != ownerTwo){... */\n    tag_497:\n        /* \"DripWarrior/poolContract.sol\":16663:16664  0 */\n      0x00\n        /* \"DripWarrior/poolContract.sol\":16644:16659  _newPerccentage */\n      dup2\n        /* \"DripWarrior/poolContract.sol\":16644:16664  _newPerccentage <= 0 */\n      gt\n        /* \"DripWarrior/poolContract.sol\":16641:16729  if(_newPerccentage <= 0){... */\n      tag_500\n      jumpi\n        /* \"DripWarrior/poolContract.sol\":16686:16718  wrongPercentage(_newPerccentage) */\n      mload(0x40)\n      shl(0xe0, 0xcdbc6335)\n      dup2\n      mstore\n      0x04\n      dup2\n      add\n        /* \"#utility.yul\":160:185   */\n      dup3\n      swap1\n      mstore\n        /* \"#utility.yul\":133:151   */\n      0x24\n      add\n        /* \"DripWarrior/poolContract.sol\":16686:16718  wrongPercentage(_newPerccentage) */\n      tag_291\n        /* \"#utility.yul\":14:191   */\n      jump\n        /* \"DripWarrior/poolContract.sol\":16641:16729  if(_newPerccentage <= 0){... */\n    tag_500:\n        /* \"DripWarrior/poolContract.sol\":16747:16772  odividentPayoutPercentage */\n      0x05\n        /* \"DripWarrior/poolContract.sol\":16747:16790  odividentPayoutPercentage = _newPerccentage */\n      dup2\n      swap1\n      sstore\n        /* \"DripWarrior/poolContract.sol\":16806:16862  PercentageChanged(msg.sender, odividentPayoutPercentage) */\n      0x40\n      dup1\n      mload\n        /* \"DripWarrior/poolContract.sol\":16824:16834  msg.sender */\n      caller\n        /* \"#utility.yul\":10951:11002   */\n      dup2\n      mstore\n        /* \"#utility.yul\":11033:11035   */\n      0x20\n        /* \"#utility.yul\":11018:11036   */\n      dup2\n      add\n        /* \"#utility.yul\":11011:11045   */\n      dup4\n      swap1\n      mstore\n      0x00\n      dup1\n      mload\n      0x20\n      data_d85598d6ea860439b48fc265883a1cac638ff64dca5391fe12b46f27076e26fe\n      dup4\n      codecopy\n      dup2\n      mload\n      swap2\n      mstore\n        /* \"DripWarrior/poolContract.sol\":16806:16862  PercentageChanged(msg.sender, odividentPayoutPercentage) */\n      swap2\n        /* \"#utility.yul\":10924:10942   */\n      add\n        /* \"DripWarrior/poolContract.sol\":16806:16862  PercentageChanged(msg.sender, odividentPayoutPercentage) */\n      tag_299\n        /* \"#utility.yul\":10777:11051   */\n      jump\n        /* \"DripWarrior/poolContract.sol\":13847:14165  function setForwarderAddress(address forwarderAddress) external bothOwner {... */\n    tag_246:\n        /* \"DripWarrior/poolContract.sol\":17587:17595  ownerOne */\n      and(sub(shl(0xa0, 0x01), 0x01), sload(0x0f))\n        /* \"DripWarrior/poolContract.sol\":17573:17583  msg.sender */\n      caller\n        /* \"DripWarrior/poolContract.sol\":17573:17595  msg.sender != ownerOne */\n      eq\n      dup1\n      iszero\n      swap1\n        /* \"DripWarrior/poolContract.sol\":17573:17621  msg.sender != ownerOne && msg.sender != ownerTwo */\n      tag_504\n      jumpi\n      pop\n        /* \"DripWarrior/poolContract.sol\":17613:17621  ownerTwo */\n      and(sub(shl(0xa0, 0x01), 0x01), sload(0x10))\n        /* \"DripWarrior/poolContract.sol\":17599:17609  msg.sender */\n      caller\n        /* \"DripWarrior/poolContract.sol\":17599:17621  msg.sender != ownerTwo */\n      eq\n      iszero\n        /* \"DripWarrior/poolContract.sol\":17573:17621  msg.sender != ownerOne && msg.sender != ownerTwo */\n    tag_504:\n        /* \"DripWarrior/poolContract.sol\":17570:17676  if(msg.sender != ownerOne && msg.sender != ownerTwo){... */\n      iszero\n      tag_505\n      jumpi\n        /* \"DripWarrior/poolContract.sol\":17643:17665  wrongOwner(msg.sender) */\n      mload(0x40)\n      shl(0xe3, 0x1ed6f38b)\n      dup2\n      mstore\n        /* \"DripWarrior/poolContract.sol\":17654:17664  msg.sender */\n      caller\n        /* \"DripWarrior/poolContract.sol\":17643:17665  wrongOwner(msg.sender) */\n      0x04\n      dup3\n      add\n        /* \"#utility.yul\":357:408   */\n      mstore\n        /* \"#utility.yul\":330:348   */\n      0x24\n      add\n        /* \"DripWarrior/poolContract.sol\":17643:17665  wrongOwner(msg.sender) */\n      tag_291\n        /* \"#utility.yul\":196:414   */\n      jump\n        /* \"DripWarrior/poolContract.sol\":17570:17676  if(msg.sender != ownerOne && msg.sender != ownerTwo){... */\n    tag_505:\n      sub(shl(0xa0, 0x01), 0x01)\n        /* \"DripWarrior/poolContract.sol\":13943:13973  forwarderAddress == address(0) */\n      dup2\n      and\n        /* \"DripWarrior/poolContract.sol\":13940:14036  if(forwarderAddress == address(0)){... */\n      tag_508\n      jumpi\n        /* \"DripWarrior/poolContract.sol\":13995:14025  wrongAddress(forwarderAddress) */\n      mload(0x40)\n      shl(0xe0, 0xe4cfa94d)\n      dup2\n      mstore\n      sub(shl(0xa0, 0x01), 0x01)\n        /* \"#utility.yul\":375:407   */\n      dup3\n      and\n        /* \"DripWarrior/poolContract.sol\":13995:14025  wrongAddress(forwarderAddress) */\n      0x04\n      dup3\n      add\n        /* \"#utility.yul\":357:408   */\n      mstore\n        /* \"#utility.yul\":330:348   */\n      0x24\n      add\n        /* \"DripWarrior/poolContract.sol\":13995:14025  wrongAddress(forwarderAddress) */\n      tag_291\n        /* \"#utility.yul\":196:414   */\n      jump\n        /* \"DripWarrior/poolContract.sol\":13940:14036  if(forwarderAddress == address(0)){... */\n    tag_508:\n        /* \"DripWarrior/poolContract.sol\":14054:14072  s_forwarderAddress */\n      0x0e\n        /* \"DripWarrior/poolContract.sol\":14054:14091  s_forwarderAddress = forwarderAddress */\n      dup1\n      sload\n      not(sub(shl(0xa0, 0x01), 0x01))\n      and\n      sub(shl(0xa0, 0x01), 0x01)\n      dup4\n      and\n      swap1\n      dup2\n      or\n      swap1\n      swap2\n      sstore\n        /* \"DripWarrior/poolContract.sol\":14107:14158  SetForwarderAddress(msg.sender, s_forwarderAddress) */\n      0x40\n      dup1\n      mload\n        /* \"DripWarrior/poolContract.sol\":14127:14137  msg.sender */\n      caller\n        /* \"#utility.yul\":11843:11894   */\n      dup2\n      mstore\n        /* \"#utility.yul\":11925:11927   */\n      0x20\n        /* \"#utility.yul\":11910:11928   */\n      dup2\n      add\n        /* \"#utility.yul\":11903:11963   */\n      swap3\n      swap1\n      swap3\n      mstore\n        /* \"DripWarrior/poolContract.sol\":14107:14158  SetForwarderAddress(msg.sender, s_forwarderAddress) */\n      0x75f91f3cecb8c46f20150f60f77a6e1f0de00776627692db82ef1960af84c33a\n      swap2\n        /* \"#utility.yul\":11816:11834   */\n      add\n        /* \"DripWarrior/poolContract.sol\":14107:14158  SetForwarderAddress(msg.sender, s_forwarderAddress) */\n      tag_299\n        /* \"#utility.yul\":11669:11969   */\n      jump\n        /* \"DripWarrior/poolContract.sol\":15286:15840  function blockUser(address _userAddress, bool value) external bothOwner {... */\n    tag_251:\n        /* \"DripWarrior/poolContract.sol\":17587:17595  ownerOne */\n      and(sub(shl(0xa0, 0x01), 0x01), sload(0x0f))\n        /* \"DripWarrior/poolContract.sol\":17573:17583  msg.sender */\n      caller\n        /* \"DripWarrior/poolContract.sol\":17573:17595  msg.sender != ownerOne */\n      eq\n      dup1\n      iszero\n      swap1\n        /* \"DripWarrior/poolContract.sol\":17573:17621  msg.sender != ownerOne && msg.sender != ownerTwo */\n      tag_513\n      jumpi\n      pop\n        /* \"DripWarrior/poolContract.sol\":17613:17621  ownerTwo */\n      and(sub(shl(0xa0, 0x01), 0x01), sload(0x10))\n        /* \"DripWarrior/poolContract.sol\":17599:17609  msg.sender */\n      caller\n        /* \"DripWarrior/poolContract.sol\":17599:17621  msg.sender != ownerTwo */\n      eq\n      iszero\n        /* \"DripWarrior/poolContract.sol\":17573:17621  msg.sender != ownerOne && msg.sender != ownerTwo */\n    tag_513:\n        /* \"DripWarrior/poolContract.sol\":17570:17676  if(msg.sender != ownerOne && msg.sender != ownerTwo){... */\n      iszero\n      tag_514\n      jumpi\n        /* \"DripWarrior/poolContract.sol\":17643:17665  wrongOwner(msg.sender) */\n      mload(0x40)\n      shl(0xe3, 0x1ed6f38b)\n      dup2\n      mstore\n        /* \"DripWarrior/poolContract.sol\":17654:17664  msg.sender */\n      caller\n        /* \"DripWarrior/poolContract.sol\":17643:17665  wrongOwner(msg.sender) */\n      0x04\n      dup3\n      add\n        /* \"#utility.yul\":357:408   */\n      mstore\n        /* \"#utility.yul\":330:348   */\n      0x24\n      add\n        /* \"DripWarrior/poolContract.sol\":17643:17665  wrongOwner(msg.sender) */\n      tag_291\n        /* \"#utility.yul\":196:414   */\n      jump\n        /* \"DripWarrior/poolContract.sol\":17570:17676  if(msg.sender != ownerOne && msg.sender != ownerTwo){... */\n    tag_514:\n      sub(shl(0xa0, 0x01), 0x01)\n        /* \"DripWarrior/poolContract.sol\":15380:15406  _userAddress == address(0) */\n      dup3\n      and\n        /* \"DripWarrior/poolContract.sol\":15377:15465  if(_userAddress == address(0)){... */\n      tag_517\n      jumpi\n        /* \"DripWarrior/poolContract.sol\":15428:15454  wrongAddress(_userAddress) */\n      mload(0x40)\n      shl(0xe0, 0xe4cfa94d)\n      dup2\n      mstore\n      sub(shl(0xa0, 0x01), 0x01)\n        /* \"#utility.yul\":375:407   */\n      dup4\n      and\n        /* \"DripWarrior/poolContract.sol\":15428:15454  wrongAddress(_userAddress) */\n      0x04\n      dup3\n      add\n        /* \"#utility.yul\":357:408   */\n      mstore\n        /* \"#utility.yul\":330:348   */\n      0x24\n      add\n        /* \"DripWarrior/poolContract.sol\":15428:15454  wrongAddress(_userAddress) */\n      tag_291\n        /* \"#utility.yul\":196:414   */\n      jump\n        /* \"DripWarrior/poolContract.sol\":15377:15465  if(_userAddress == address(0)){... */\n    tag_517:\n        /* \"DripWarrior/poolContract.sol\":15487:15491  true */\n      0x01\n        /* \"DripWarrior/poolContract.sol\":15478:15491  value != true */\n      dup2\n      iszero\n      iszero\n      eq\n      dup1\n      iszero\n      swap1\n        /* \"DripWarrior/poolContract.sol\":15478:15509  value != true && value != false */\n      tag_519\n      jumpi\n      pop\n        /* \"DripWarrior/poolContract.sol\":15495:15509  value != false */\n      dup1\n      iszero\n      iszero\n        /* \"DripWarrior/poolContract.sol\":15478:15509  value != true && value != false */\n    tag_519:\n        /* \"DripWarrior/poolContract.sol\":15475:15559  if(value != true && value != false){... */\n      iszero\n      tag_520\n      jumpi\n        /* \"DripWarrior/poolContract.sol\":15531:15548  wrongValue(value) */\n      mload(0x40)\n      shl(0xe0, 0x81ed1ae3)\n      dup2\n      mstore\n        /* \"#utility.yul\":7698:7712   */\n      dup2\n      iszero\n        /* \"#utility.yul\":7691:7713   */\n      iszero\n        /* \"DripWarrior/poolContract.sol\":15531:15548  wrongValue(value) */\n      0x04\n      dup3\n      add\n        /* \"#utility.yul\":7673:7714   */\n      mstore\n        /* \"#utility.yul\":7646:7664   */\n      0x24\n      add\n        /* \"DripWarrior/poolContract.sol\":15531:15548  wrongValue(value) */\n      tag_291\n        /* \"#utility.yul\":7533:7720   */\n      jump\n        /* \"DripWarrior/poolContract.sol\":15475:15559  if(value != true && value != false){... */\n    tag_520:\n        /* \"DripWarrior/poolContract.sol\":15572:15585  value == true */\n      dup1\n      iszero\n      iszero\n        /* \"DripWarrior/poolContract.sol\":15581:15585  true */\n      0x01\n        /* \"DripWarrior/poolContract.sol\":15572:15585  value == true */\n      sub\n        /* \"DripWarrior/poolContract.sol\":15569:15736  if(value == true){... */\n      tag_522\n      jumpi\n      sub(shl(0xa0, 0x01), 0x01)\n        /* \"DripWarrior/poolContract.sol\":15601:15629  userRegistered[_userAddress] */\n      dup3\n      and\n      0x00\n      swap1\n      dup2\n      mstore\n        /* \"DripWarrior/poolContract.sol\":15601:15615  userRegistered */\n      0x15\n        /* \"DripWarrior/poolContract.sol\":15601:15629  userRegistered[_userAddress] */\n      0x20\n      mstore\n      0x40\n      swap1\n      keccak256\n        /* \"DripWarrior/poolContract.sol\":15601:15644  userRegistered[_userAddress].blocked = true */\n      dup1\n      sload\n      not(0xff)\n      and\n        /* \"DripWarrior/poolContract.sol\":15640:15644  true */\n      0x01\n        /* \"DripWarrior/poolContract.sol\":15601:15644  userRegistered[_userAddress].blocked = true */\n      or\n      swap1\n      sstore\n        /* \"DripWarrior/poolContract.sol\":15569:15736  if(value == true){... */\n      jump(tag_523)\n    tag_522:\n      sub(shl(0xa0, 0x01), 0x01)\n        /* \"DripWarrior/poolContract.sol\":15681:15709  userRegistered[_userAddress] */\n      dup3\n      and\n        /* \"DripWarrior/poolContract.sol\":15720:15725  false */\n      0x00\n        /* \"DripWarrior/poolContract.sol\":15681:15709  userRegistered[_userAddress] */\n      swap1\n      dup2\n      mstore\n        /* \"DripWarrior/poolContract.sol\":15681:15695  userRegistered */\n      0x15\n        /* \"DripWarrior/poolContract.sol\":15681:15709  userRegistered[_userAddress] */\n      0x20\n      mstore\n      0x40\n      swap1\n      keccak256\n        /* \"DripWarrior/poolContract.sol\":15681:15725  userRegistered[_userAddress].blocked = false */\n      dup1\n      sload\n      not(0xff)\n      and\n      swap1\n      sstore\n        /* \"DripWarrior/poolContract.sol\":15569:15736  if(value == true){... */\n    tag_523:\n      sub(shl(0xa0, 0x01), 0x01)\n        /* \"DripWarrior/poolContract.sol\":15796:15824  userRegistered[_userAddress] */\n      dup3\n      and\n      0x00\n      dup2\n      dup2\n      mstore\n        /* \"DripWarrior/poolContract.sol\":15796:15810  userRegistered */\n      0x15\n        /* \"DripWarrior/poolContract.sol\":15796:15824  userRegistered[_userAddress] */\n      0x20\n      swap1\n      dup2\n      mstore\n      0x40\n      swap2\n      dup3\n      swap1\n      keccak256\n        /* \"DripWarrior/poolContract.sol\":15796:15832  userRegistered[_userAddress].blocked */\n      sload\n        /* \"DripWarrior/poolContract.sol\":15759:15833  UserBlocked(msg.sender,_userAddress, userRegistered[_userAddress].blocked) */\n      dup3\n      mload\n        /* \"DripWarrior/poolContract.sol\":15771:15781  msg.sender */\n      caller\n        /* \"#utility.yul\":12170:12221   */\n      dup2\n      mstore\n        /* \"#utility.yul\":12237:12255   */\n      swap2\n      dup3\n      add\n        /* \"#utility.yul\":12230:12290   */\n      swap4\n      swap1\n      swap4\n      mstore\n        /* \"DripWarrior/poolContract.sol\":15796:15832  userRegistered[_userAddress].blocked */\n      0xff\n      swap1\n      swap3\n      and\n        /* \"#utility.yul\":12333:12347   */\n      iszero\n        /* \"#utility.yul\":12326:12348   */\n      iszero\n        /* \"#utility.yul\":12306:12324   */\n      swap1\n      dup3\n      add\n        /* \"#utility.yul\":12299:12349   */\n      mstore\n        /* \"DripWarrior/poolContract.sol\":15759:15833  UserBlocked(msg.sender,_userAddress, userRegistered[_userAddress].blocked) */\n      0x7a1655bc3160d3413bf1d5235e55be12e01b7e8bc2436a9bff09c3b4fa2421f1\n      swap1\n        /* \"#utility.yul\":12158:12160   */\n      0x60\n        /* \"#utility.yul\":12143:12161   */\n      add\n        /* \"DripWarrior/poolContract.sol\":15759:15833  UserBlocked(msg.sender,_userAddress, userRegistered[_userAddress].blocked) */\n      tag_324\n        /* \"#utility.yul\":11974:12355   */\n      jump\n        /* \"DripWarrior/poolContract.sol\":9456:11079  function weeklyTransfer() public  {... */\n    tag_254:\n        /* \"DripWarrior/poolContract.sol\":9518:9536  s_forwarderAddress */\n      and(sub(shl(0xa0, 0x01), 0x01), sload(0x0e))\n        /* \"DripWarrior/poolContract.sol\":9504:9514  msg.sender */\n      caller\n        /* \"DripWarrior/poolContract.sol\":9504:9536  msg.sender != s_forwarderAddress */\n      eq\n      dup1\n      iszero\n      swap1\n        /* \"DripWarrior/poolContract.sol\":9504:9562  msg.sender != s_forwarderAddress && msg.sender != ownerOne */\n      tag_527\n      jumpi\n      pop\n        /* \"DripWarrior/poolContract.sol\":9554:9562  ownerOne */\n      and(sub(shl(0xa0, 0x01), 0x01), sload(0x0f))\n        /* \"DripWarrior/poolContract.sol\":9540:9550  msg.sender */\n      caller\n        /* \"DripWarrior/poolContract.sol\":9540:9562  msg.sender != ownerOne */\n      eq\n      iszero\n        /* \"DripWarrior/poolContract.sol\":9504:9562  msg.sender != s_forwarderAddress && msg.sender != ownerOne */\n    tag_527:\n        /* \"DripWarrior/poolContract.sol\":9504:9588  msg.sender != s_forwarderAddress && msg.sender != ownerOne && msg.sender != ownerTwo */\n      dup1\n      iszero\n      tag_528\n      jumpi\n      pop\n        /* \"DripWarrior/poolContract.sol\":9580:9588  ownerTwo */\n      and(sub(shl(0xa0, 0x01), 0x01), sload(0x10))\n        /* \"DripWarrior/poolContract.sol\":9566:9576  msg.sender */\n      caller\n        /* \"DripWarrior/poolContract.sol\":9566:9588  msg.sender != ownerTwo */\n      eq\n      iszero\n        /* \"DripWarrior/poolContract.sol\":9504:9588  msg.sender != s_forwarderAddress && msg.sender != ownerOne && msg.sender != ownerTwo */\n    tag_528:\n        /* \"DripWarrior/poolContract.sol\":9501:9643  if(msg.sender != s_forwarderAddress && msg.sender != ownerOne && msg.sender != ownerTwo){... */\n      iszero\n      tag_529\n      jumpi\n        /* \"DripWarrior/poolContract.sol\":9610:9632  wrongOwner(msg.sender) */\n      mload(0x40)\n      shl(0xe3, 0x1ed6f38b)\n      dup2\n      mstore\n        /* \"DripWarrior/poolContract.sol\":9621:9631  msg.sender */\n      caller\n        /* \"DripWarrior/poolContract.sol\":9610:9632  wrongOwner(msg.sender) */\n      0x04\n      dup3\n      add\n        /* \"#utility.yul\":357:408   */\n      mstore\n        /* \"#utility.yul\":330:348   */\n      0x24\n      add\n        /* \"DripWarrior/poolContract.sol\":9610:9632  wrongOwner(msg.sender) */\n      tag_291\n        /* \"#utility.yul\":196:414   */\n      jump\n        /* \"DripWarrior/poolContract.sol\":9501:9643  if(msg.sender != s_forwarderAddress && msg.sender != ownerOne && msg.sender != ownerTwo){... */\n    tag_529:\n        /* \"DripWarrior/poolContract.sol\":9656:9675  ownerShipPoolAmount */\n      sload(0x02)\n        /* \"DripWarrior/poolContract.sol\":9656:9680  ownerShipPoolAmount <= 0 */\n      iszero\n      dup1\n      iszero\n        /* \"DripWarrior/poolContract.sol\":9656:9707  ownerShipPoolAmount <= 0 && treasuryPoolAmount <= 0 */\n      tag_531\n      jumpi\n      pop\n        /* \"DripWarrior/poolContract.sol\":9684:9702  treasuryPoolAmount */\n      sload(0x01)\n        /* \"DripWarrior/poolContract.sol\":9684:9707  treasuryPoolAmount <= 0 */\n      iszero\n        /* \"DripWarrior/poolContract.sol\":9656:9707  ownerShipPoolAmount <= 0 && treasuryPoolAmount <= 0 */\n    tag_531:\n        /* \"DripWarrior/poolContract.sol\":9653:9790  if(ownerShipPoolAmount <= 0 && treasuryPoolAmount <= 0){... */\n      iszero\n      tag_532\n      jumpi\n        /* \"DripWarrior/poolContract.sol\":9740:9759  ownerShipPoolAmount */\n      sload(0x02)\n        /* \"DripWarrior/poolContract.sol\":9760:9778  treasuryPoolAmount */\n      sload(0x01)\n        /* \"DripWarrior/poolContract.sol\":9729:9779  emptyPools(ownerShipPoolAmount,treasuryPoolAmount) */\n      mload(0x40)\n      shl(0xe0, 0x2fd92d8d)\n      dup2\n      mstore\n      0x04\n      dup2\n      add\n        /* \"#utility.yul\":11590:11615   */\n      swap3\n      swap1\n      swap3\n      mstore\n        /* \"#utility.yul\":11631:11649   */\n      0x24\n      dup3\n      add\n        /* \"#utility.yul\":11624:11658   */\n      mstore\n        /* \"#utility.yul\":11563:11581   */\n      0x44\n      add\n        /* \"DripWarrior/poolContract.sol\":9729:9779  emptyPools(ownerShipPoolAmount,treasuryPoolAmount) */\n      tag_291\n        /* \"#utility.yul\":11416:11664   */\n      jump\n        /* \"DripWarrior/poolContract.sol\":9653:9790  if(ownerShipPoolAmount <= 0 && treasuryPoolAmount <= 0){... */\n    tag_532:\n        /* \"DripWarrior/poolContract.sol\":9810:9834  uint256 remainFiftyOPool */\n      0x00\n        /* \"DripWarrior/poolContract.sol\":9835:9868  uint256 dividentPayoutOPoolAmount */\n      dup1\n        /* \"DripWarrior/poolContract.sol\":9870:9896  uint256 perPersonFromTPool */\n      0x00\n        /* \"DripWarrior/poolContract.sol\":9901:9921  perPoolCalculation() */\n      tag_534\n        /* \"DripWarrior/poolContract.sol\":9901:9919  perPoolCalculation */\n      tag_535\n        /* \"DripWarrior/poolContract.sol\":9901:9921  perPoolCalculation() */\n      jump\t// in\n    tag_534:\n        /* \"DripWarrior/poolContract.sol\":9808:9921  ( uint256 remainFiftyOPool,uint256 dividentPayoutOPoolAmount, uint256 perPersonFromTPool)  = perPoolCalculation() */\n      swap2\n      swap5\n      pop\n      swap3\n      pop\n      swap1\n      pop\n        /* \"DripWarrior/poolContract.sol\":9948:9964  uint256 maxlimit */\n      0x00\n      dup1\n        /* \"DripWarrior/poolContract.sol\":9975:10987  for(uint256 i = 0; i < noOfUsers; i++){... */\n    tag_536:\n        /* \"DripWarrior/poolContract.sol\":9998:10007  noOfUsers */\n      sload(0x08)\n        /* \"DripWarrior/poolContract.sol\":9994:9995  i */\n      dup2\n        /* \"DripWarrior/poolContract.sol\":9994:10007  i < noOfUsers */\n      lt\n        /* \"DripWarrior/poolContract.sol\":9975:10987  for(uint256 i = 0; i < noOfUsers; i++){... */\n      iszero\n      tag_537\n      jumpi\n        /* \"DripWarrior/poolContract.sol\":10032:10061  userRegistered[totalUsers[i]] */\n      0x00\n        /* \"DripWarrior/poolContract.sol\":10047:10060  totalUsers[i] */\n      dup2\n      dup2\n      mstore\n        /* \"DripWarrior/poolContract.sol\":10047:10057  totalUsers */\n      0x13\n        /* \"DripWarrior/poolContract.sol\":10047:10060  totalUsers[i] */\n      0x20\n      swap1\n      dup2\n      mstore\n      0x40\n      dup1\n      dup4\n      keccak256\n      sload\n      sub(shl(0xa0, 0x01), 0x01)\n      and\n        /* \"DripWarrior/poolContract.sol\":10032:10061  userRegistered[totalUsers[i]] */\n      dup4\n      mstore\n        /* \"DripWarrior/poolContract.sol\":10032:10046  userRegistered */\n      0x15\n        /* \"DripWarrior/poolContract.sol\":10032:10061  userRegistered[totalUsers[i]] */\n      swap1\n      swap2\n      mstore\n      swap1\n      keccak256\n        /* \"DripWarrior/poolContract.sol\":10032:10069  userRegistered[totalUsers[i]].blocked */\n      sload\n      0xff\n      and\n        /* \"DripWarrior/poolContract.sol\":10028:10964  if(!userRegistered[totalUsers[i]].blocked){... */\n      tag_539\n      jumpi\n        /* \"DripWarrior/poolContract.sol\":10182:10199  totalStakedAmount */\n      sload(0x03)\n        /* \"DripWarrior/poolContract.sol\":10089:10116  uint256 eachSharePercentage */\n      0x00\n        /* \"DripWarrior/poolContract.sol\":10135:10148  totalUsers[i] */\n      dup3\n      dup2\n      mstore\n        /* \"DripWarrior/poolContract.sol\":10135:10145  totalUsers */\n      0x13\n        /* \"DripWarrior/poolContract.sol\":10135:10148  totalUsers[i] */\n      0x20\n      swap1\n      dup2\n      mstore\n      0x40\n      dup1\n      dup4\n      keccak256\n      sload\n      sub(shl(0xa0, 0x01), 0x01)\n      and\n        /* \"DripWarrior/poolContract.sol\":10120:10149  userRegistered[totalUsers[i]] */\n      dup4\n      mstore\n        /* \"DripWarrior/poolContract.sol\":10120:10134  userRegistered */\n      0x15\n        /* \"DripWarrior/poolContract.sol\":10120:10149  userRegistered[totalUsers[i]] */\n      swap1\n      swap2\n      mstore\n      dup2\n      keccak256\n        /* \"DripWarrior/poolContract.sol\":10120:10167  userRegistered[totalUsers[i]].totalStakedAmount */\n      0x05\n      add\n      sload\n        /* \"DripWarrior/poolContract.sol\":10089:10116  uint256 eachSharePercentage */\n      swap1\n      swap2\n        /* \"DripWarrior/poolContract.sol\":10182:10199  totalStakedAmount */\n      swap1\n        /* \"DripWarrior/poolContract.sol\":10120:10177  userRegistered[totalUsers[i]].totalStakedAmount * (10000) */\n      tag_540\n      swap1\n        /* \"DripWarrior/poolContract.sol\":10171:10176  10000 */\n      0x2710\n        /* \"DripWarrior/poolContract.sol\":10120:10177  userRegistered[totalUsers[i]].totalStakedAmount * (10000) */\n      tag_541\n      jump\t// in\n    tag_540:\n        /* \"DripWarrior/poolContract.sol\":10119:10200  (userRegistered[totalUsers[i]].totalStakedAmount * (10000)) / (totalStakedAmount) */\n      tag_542\n      swap2\n      swap1\n      tag_543\n      jump\t// in\n    tag_542:\n        /* \"DripWarrior/poolContract.sol\":10089:10200  uint256 eachSharePercentage = (userRegistered[totalUsers[i]].totalStakedAmount * (10000)) / (totalStakedAmount) */\n      swap1\n      pop\n        /* \"DripWarrior/poolContract.sol\":10235:10257  uint256 eachSendAmount */\n      0x00\n        /* \"DripWarrior/poolContract.sol\":10260:10327  calculatePercentage(dividentPayoutOPoolAmount, eachSharePercentage) */\n      tag_544\n        /* \"DripWarrior/poolContract.sol\":10280:10305  dividentPayoutOPoolAmount */\n      dup7\n        /* \"DripWarrior/poolContract.sol\":10307:10326  eachSharePercentage */\n      dup4\n        /* \"DripWarrior/poolContract.sol\":10260:10279  calculatePercentage */\n      tag_545\n        /* \"DripWarrior/poolContract.sol\":10260:10327  calculatePercentage(dividentPayoutOPoolAmount, eachSharePercentage) */\n      jump\t// in\n    tag_544:\n        /* \"DripWarrior/poolContract.sol\":10235:10327  uint256 eachSendAmount = calculatePercentage(dividentPayoutOPoolAmount, eachSharePercentage) */\n      swap1\n      pop\n        /* \"DripWarrior/poolContract.sol\":10368:10382  eachSendAmount */\n      dup1\n        /* \"DripWarrior/poolContract.sol\":10345:10364  ownerShipPoolAmount */\n      0x02\n      0x00\n        /* \"DripWarrior/poolContract.sol\":10345:10382  ownerShipPoolAmount -= eachSendAmount */\n      dup3\n      dup3\n      sload\n      tag_546\n      swap2\n      swap1\n      tag_298\n      jump\t// in\n    tag_546:\n      swap1\n      swap2\n      sstore\n      pop\n        /* \"DripWarrior/poolContract.sol\":10425:10451  maxlimit += eachSendAmount */\n      tag_547\n      swap1\n      pop\n        /* \"DripWarrior/poolContract.sol\":10437:10451  eachSendAmount */\n      dup2\n        /* \"DripWarrior/poolContract.sol\":10425:10451  maxlimit += eachSendAmount */\n      dup6\n      tag_320\n      jump\t// in\n    tag_547:\n      swap4\n      pop\n        /* \"DripWarrior/poolContract.sol\":10491:10509  perPersonFromTPool */\n      dup5\n        /* \"DripWarrior/poolContract.sol\":10469:10487  treasuryPoolAmount */\n      0x01\n      0x00\n        /* \"DripWarrior/poolContract.sol\":10469:10509  treasuryPoolAmount -= perPersonFromTPool */\n      dup3\n      dup3\n      sload\n      tag_548\n      swap2\n      swap1\n      tag_298\n      jump\t// in\n    tag_548:\n      swap1\n      swap2\n      sstore\n      pop\n      pop\n        /* \"DripWarrior/poolContract.sol\":10528:10557  userRegistered[totalUsers[i]] */\n      0x00\n        /* \"DripWarrior/poolContract.sol\":10543:10556  totalUsers[i] */\n      dup4\n      dup2\n      mstore\n        /* \"DripWarrior/poolContract.sol\":10543:10553  totalUsers */\n      0x13\n        /* \"DripWarrior/poolContract.sol\":10543:10556  totalUsers[i] */\n      0x20\n      swap1\n      dup2\n      mstore\n      0x40\n      dup1\n      dup4\n      keccak256\n      sload\n      sub(shl(0xa0, 0x01), 0x01)\n      and\n        /* \"DripWarrior/poolContract.sol\":10528:10557  userRegistered[totalUsers[i]] */\n      dup4\n      mstore\n        /* \"DripWarrior/poolContract.sol\":10528:10542  userRegistered */\n      0x15\n        /* \"DripWarrior/poolContract.sol\":10528:10557  userRegistered[totalUsers[i]] */\n      swap1\n      swap2\n      mstore\n      dup2\n      keccak256\n        /* \"DripWarrior/poolContract.sol\":10528:10577  userRegistered[totalUsers[i]].receiveFromTreasury */\n      0x03\n      add\n        /* \"DripWarrior/poolContract.sol\":10528:10599  userRegistered[totalUsers[i]].receiveFromTreasury += perPersonFromTPool */\n      dup1\n      sload\n        /* \"DripWarrior/poolContract.sol\":10581:10599  perPersonFromTPool */\n      dup8\n      swap3\n        /* \"DripWarrior/poolContract.sol\":10528:10557  userRegistered[totalUsers[i]] */\n      swap1\n        /* \"DripWarrior/poolContract.sol\":10528:10599  userRegistered[totalUsers[i]].receiveFromTreasury += perPersonFromTPool */\n      tag_549\n      swap1\n        /* \"DripWarrior/poolContract.sol\":10581:10599  perPersonFromTPool */\n      dup5\n      swap1\n        /* \"DripWarrior/poolContract.sol\":10528:10599  userRegistered[totalUsers[i]].receiveFromTreasury += perPersonFromTPool */\n      tag_320\n      jump\t// in\n    tag_549:\n      swap1\n      swap2\n      sstore\n      pop\n      pop\n        /* \"DripWarrior/poolContract.sol\":10617:10646  userRegistered[totalUsers[i]] */\n      0x00\n        /* \"DripWarrior/poolContract.sol\":10632:10645  totalUsers[i] */\n      dup4\n      dup2\n      mstore\n        /* \"DripWarrior/poolContract.sol\":10632:10642  totalUsers */\n      0x13\n        /* \"DripWarrior/poolContract.sol\":10632:10645  totalUsers[i] */\n      0x20\n      swap1\n      dup2\n      mstore\n      0x40\n      dup1\n      dup4\n      keccak256\n      sload\n      sub(shl(0xa0, 0x01), 0x01)\n      and\n        /* \"DripWarrior/poolContract.sol\":10617:10646  userRegistered[totalUsers[i]] */\n      dup4\n      mstore\n        /* \"DripWarrior/poolContract.sol\":10617:10631  userRegistered */\n      0x15\n        /* \"DripWarrior/poolContract.sol\":10617:10646  userRegistered[totalUsers[i]] */\n      swap1\n      swap2\n      mstore\n      dup2\n      keccak256\n        /* \"DripWarrior/poolContract.sol\":10617:10668  userRegistered[totalUsers[i]].receiveFromOwneerShip */\n      0x04\n      add\n        /* \"DripWarrior/poolContract.sol\":10617:10686  userRegistered[totalUsers[i]].receiveFromOwneerShip += eachSendAmount */\n      dup1\n      sload\n        /* \"DripWarrior/poolContract.sol\":10672:10686  eachSendAmount */\n      dup4\n      swap3\n        /* \"DripWarrior/poolContract.sol\":10617:10646  userRegistered[totalUsers[i]] */\n      swap1\n        /* \"DripWarrior/poolContract.sol\":10617:10686  userRegistered[totalUsers[i]].receiveFromOwneerShip += eachSendAmount */\n      tag_550\n      swap1\n        /* \"DripWarrior/poolContract.sol\":10672:10686  eachSendAmount */\n      dup5\n      swap1\n        /* \"DripWarrior/poolContract.sol\":10617:10686  userRegistered[totalUsers[i]].receiveFromOwneerShip += eachSendAmount */\n      tag_320\n      jump\t// in\n    tag_550:\n      swap1\n      swap2\n      sstore\n      pop\n        /* \"DripWarrior/poolContract.sol\":10721:10744  uint256 totalSendAmount */\n      0x00\n      swap1\n      pop\n        /* \"DripWarrior/poolContract.sol\":10747:10782  eachSendAmount + perPersonFromTPool */\n      tag_551\n        /* \"DripWarrior/poolContract.sol\":10764:10782  perPersonFromTPool */\n      dup7\n        /* \"DripWarrior/poolContract.sol\":10747:10761  eachSendAmount */\n      dup4\n        /* \"DripWarrior/poolContract.sol\":10747:10782  eachSendAmount + perPersonFromTPool */\n      tag_320\n      jump\t// in\n    tag_551:\n        /* \"DripWarrior/poolContract.sol\":10800:10829  userRegistered[totalUsers[i]] */\n      0x00\n        /* \"DripWarrior/poolContract.sol\":10815:10828  totalUsers[i] */\n      dup6\n      dup2\n      mstore\n        /* \"DripWarrior/poolContract.sol\":10815:10825  totalUsers */\n      0x13\n        /* \"DripWarrior/poolContract.sol\":10815:10828  totalUsers[i] */\n      0x20\n      swap1\n      dup2\n      mstore\n      0x40\n      dup1\n      dup4\n      keccak256\n      sload\n      sub(shl(0xa0, 0x01), 0x01)\n      and\n        /* \"DripWarrior/poolContract.sol\":10800:10829  userRegistered[totalUsers[i]] */\n      dup4\n      mstore\n        /* \"DripWarrior/poolContract.sol\":10800:10814  userRegistered */\n      0x15\n        /* \"DripWarrior/poolContract.sol\":10800:10829  userRegistered[totalUsers[i]] */\n      swap1\n      swap2\n      mstore\n      dup2\n      keccak256\n        /* \"DripWarrior/poolContract.sol\":10815:10828  totalUsers[i] */\n      0x01\n        /* \"DripWarrior/poolContract.sol\":10800:10844  userRegistered[totalUsers[i]].receivedAmount */\n      add\n        /* \"DripWarrior/poolContract.sol\":10800:10863  userRegistered[totalUsers[i]].receivedAmount += totalSendAmount */\n      dup1\n      sload\n        /* \"DripWarrior/poolContract.sol\":10721:10782  uint256 totalSendAmount = eachSendAmount + perPersonFromTPool */\n      swap3\n      swap4\n      pop\n      dup4\n      swap3\n        /* \"DripWarrior/poolContract.sol\":10800:10844  userRegistered[totalUsers[i]].receivedAmount */\n      swap1\n      swap2\n        /* \"DripWarrior/poolContract.sol\":10800:10829  userRegistered[totalUsers[i]] */\n      swap1\n        /* \"DripWarrior/poolContract.sol\":10800:10863  userRegistered[totalUsers[i]].receivedAmount += totalSendAmount */\n      tag_552\n      swap1\n        /* \"DripWarrior/poolContract.sol\":10721:10782  uint256 totalSendAmount = eachSendAmount + perPersonFromTPool */\n      dup5\n      swap1\n        /* \"DripWarrior/poolContract.sol\":10800:10863  userRegistered[totalUsers[i]].receivedAmount += totalSendAmount */\n      tag_320\n      jump\t// in\n    tag_552:\n      swap1\n      swap2\n      sstore\n      pop\n      pop\n        /* \"DripWarrior/poolContract.sol\":10890:10918  maxlimit <= remainFiftyOPool */\n      dup8\n      dup6\n      gt\n      iszero\n        /* \"DripWarrior/poolContract.sol\":10882:10949  require(maxlimit <= remainFiftyOPool, \"Amount is greater then 50%\") */\n      tag_553\n      jumpi\n      mload(0x40)\n      shl(0xe5, 0x461bcd)\n      dup2\n      mstore\n        /* \"#utility.yul\":12957:12959   */\n      0x20\n        /* \"DripWarrior/poolContract.sol\":10882:10949  require(maxlimit <= remainFiftyOPool, \"Amount is greater then 50%\") */\n      0x04\n      dup3\n      add\n        /* \"#utility.yul\":12939:12960   */\n      mstore\n        /* \"#utility.yul\":12996:12998   */\n      0x1a\n        /* \"#utility.yul\":12976:12994   */\n      0x24\n      dup3\n      add\n        /* \"#utility.yul\":12969:12999   */\n      mstore\n        /* \"#utility.yul\":13035:13063   */\n      0x416d6f756e742069732067726561746572207468656e20353025000000000000\n        /* \"#utility.yul\":13015:13033   */\n      0x44\n      dup3\n      add\n        /* \"#utility.yul\":13008:13064   */\n      mstore\n        /* \"#utility.yul\":13081:13099   */\n      0x64\n      add\n        /* \"DripWarrior/poolContract.sol\":10882:10949  require(maxlimit <= remainFiftyOPool, \"Amount is greater then 50%\") */\n      tag_291\n        /* \"#utility.yul\":12755:13105   */\n      jump\n        /* \"DripWarrior/poolContract.sol\":10882:10949  require(maxlimit <= remainFiftyOPool, \"Amount is greater then 50%\") */\n    tag_553:\n        /* \"DripWarrior/poolContract.sol\":10070:10964  {... */\n      pop\n      pop\n      pop\n        /* \"DripWarrior/poolContract.sol\":10028:10964  if(!userRegistered[totalUsers[i]].blocked){... */\n    tag_539:\n        /* \"DripWarrior/poolContract.sol\":10009:10012  i++ */\n      0x01\n      add\n        /* \"DripWarrior/poolContract.sol\":9975:10987  for(uint256 i = 0; i < noOfUsers; i++){... */\n      jump(tag_536)\n    tag_537:\n      pop\n        /* \"DripWarrior/poolContract.sol\":11031:11050  ownerShipPoolAmount */\n      sload(0x02)\n        /* \"DripWarrior/poolContract.sol\":11052:11070  treasuryPoolAmount */\n      sload(0x01)\n        /* \"DripWarrior/poolContract.sol\":11002:11071  WeeklyTransfered(msg.sender, ownerShipPoolAmount, treasuryPoolAmount) */\n      0x40\n      dup1\n      mload\n        /* \"DripWarrior/poolContract.sol\":11019:11029  msg.sender */\n      caller\n        /* \"#utility.yul\":9575:9626   */\n      dup2\n      mstore\n        /* \"#utility.yul\":9657:9659   */\n      0x20\n        /* \"#utility.yul\":9642:9660   */\n      dup2\n      add\n        /* \"#utility.yul\":9635:9669   */\n      swap4\n      swap1\n      swap4\n      mstore\n        /* \"#utility.yul\":9685:9703   */\n      dup3\n      add\n        /* \"#utility.yul\":9678:9712   */\n      mstore\n        /* \"DripWarrior/poolContract.sol\":11002:11071  WeeklyTransfered(msg.sender, ownerShipPoolAmount, treasuryPoolAmount) */\n      0xee826440768329b0c72f81331212ee31fcdac1ea79a248d24821e40c34e58020\n      swap1\n        /* \"#utility.yul\":9563:9565   */\n      0x60\n        /* \"#utility.yul\":9548:9566   */\n      add\n        /* \"DripWarrior/poolContract.sol\":11002:11071  WeeklyTransfered(msg.sender, ownerShipPoolAmount, treasuryPoolAmount) */\n      mload(0x40)\n      dup1\n      swap2\n      sub\n      swap1\n      log1\n        /* \"DripWarrior/poolContract.sol\":9490:11079  {... */\n      pop\n      pop\n      pop\n      pop\n        /* \"DripWarrior/poolContract.sol\":9456:11079  function weeklyTransfer() public  {... */\n      jump\t// out\n        /* \"DripWarrior/poolContract.sol\":15852:16194  function setTeasueryPercentages(uint256 _projectId,uint256 _newPerccentage) external bothOwner {... */\n    tag_258:\n        /* \"DripWarrior/poolContract.sol\":17587:17595  ownerOne */\n      and(sub(shl(0xa0, 0x01), 0x01), sload(0x0f))\n        /* \"DripWarrior/poolContract.sol\":17573:17583  msg.sender */\n      caller\n        /* \"DripWarrior/poolContract.sol\":17573:17595  msg.sender != ownerOne */\n      eq\n      dup1\n      iszero\n      swap1\n        /* \"DripWarrior/poolContract.sol\":17573:17621  msg.sender != ownerOne && msg.sender != ownerTwo */\n      tag_558\n      jumpi\n      pop\n        /* \"DripWarrior/poolContract.sol\":17613:17621  ownerTwo */\n      and(sub(shl(0xa0, 0x01), 0x01), sload(0x10))\n        /* \"DripWarrior/poolContract.sol\":17599:17609  msg.sender */\n      caller\n        /* \"DripWarrior/poolContract.sol\":17599:17621  msg.sender != ownerTwo */\n      eq\n      iszero\n        /* \"DripWarrior/poolContract.sol\":17573:17621  msg.sender != ownerOne && msg.sender != ownerTwo */\n    tag_558:\n        /* \"DripWarrior/poolContract.sol\":17570:17676  if(msg.sender != ownerOne && msg.sender != ownerTwo){... */\n      iszero\n      tag_559\n      jumpi\n        /* \"DripWarrior/poolContract.sol\":17643:17665  wrongOwner(msg.sender) */\n      mload(0x40)\n      shl(0xe3, 0x1ed6f38b)\n      dup2\n      mstore\n        /* \"DripWarrior/poolContract.sol\":17654:17664  msg.sender */\n      caller\n        /* \"DripWarrior/poolContract.sol\":17643:17665  wrongOwner(msg.sender) */\n      0x04\n      dup3\n      add\n        /* \"#utility.yul\":357:408   */\n      mstore\n        /* \"#utility.yul\":330:348   */\n      0x24\n      add\n        /* \"DripWarrior/poolContract.sol\":17643:17665  wrongOwner(msg.sender) */\n      tag_291\n        /* \"#utility.yul\":196:414   */\n      jump\n        /* \"DripWarrior/poolContract.sol\":17570:17676  if(msg.sender != ownerOne && msg.sender != ownerTwo){... */\n    tag_559:\n        /* \"DripWarrior/poolContract.sol\":15988:15989  0 */\n      0x00\n        /* \"DripWarrior/poolContract.sol\":15969:15984  _newPerccentage */\n      dup2\n        /* \"DripWarrior/poolContract.sol\":15969:15989  _newPerccentage <= 0 */\n      gt\n        /* \"DripWarrior/poolContract.sol\":15966:16054  if(_newPerccentage <= 0){... */\n      tag_562\n      jumpi\n        /* \"DripWarrior/poolContract.sol\":16011:16043  wrongPercentage(_newPerccentage) */\n      mload(0x40)\n      shl(0xe0, 0xcdbc6335)\n      dup2\n      mstore\n      0x04\n      dup2\n      add\n        /* \"#utility.yul\":160:185   */\n      dup3\n      swap1\n      mstore\n        /* \"#utility.yul\":133:151   */\n      0x24\n      add\n        /* \"DripWarrior/poolContract.sol\":16011:16043  wrongPercentage(_newPerccentage) */\n      tag_291\n        /* \"#utility.yul\":14:191   */\n      jump\n        /* \"DripWarrior/poolContract.sol\":15966:16054  if(_newPerccentage <= 0){... */\n    tag_562:\n        /* \"DripWarrior/poolContract.sol\":16072:16097  tPPercentages[_projectId] */\n      0x00\n      dup3\n      dup2\n      mstore\n        /* \"DripWarrior/poolContract.sol\":16072:16085  tPPercentages */\n      0x14\n        /* \"DripWarrior/poolContract.sol\":16072:16097  tPPercentages[_projectId] */\n      0x20\n      swap1\n      dup2\n      mstore\n      0x40\n      swap2\n      dup3\n      swap1\n      keccak256\n        /* \"DripWarrior/poolContract.sol\":16072:16115  tPPercentages[_projectId] = _newPerccentage */\n      dup4\n      swap1\n      sstore\n        /* \"DripWarrior/poolContract.sol\":16131:16187  PercentageChanged(msg.sender, tPPercentages[_projectId]) */\n      dup2\n      mload\n        /* \"DripWarrior/poolContract.sol\":16149:16159  msg.sender */\n      caller\n        /* \"#utility.yul\":10951:11002   */\n      dup2\n      mstore\n        /* \"#utility.yul\":11018:11036   */\n      swap1\n      dup2\n      add\n        /* \"#utility.yul\":11011:11045   */\n      dup4\n      swap1\n      mstore\n      0x00\n      dup1\n      mload\n      0x20\n      data_d85598d6ea860439b48fc265883a1cac638ff64dca5391fe12b46f27076e26fe\n      dup4\n      codecopy\n      dup2\n      mload\n      swap2\n      mstore\n        /* \"DripWarrior/poolContract.sol\":16131:16187  PercentageChanged(msg.sender, tPPercentages[_projectId]) */\n      swap2\n        /* \"#utility.yul\":10924:10942   */\n      add\n        /* \"DripWarrior/poolContract.sol\":16131:16187  PercentageChanged(msg.sender, tPPercentages[_projectId]) */\n      tag_324\n        /* \"#utility.yul\":10777:11051   */\n      jump\n        /* \"@openzeppelin/contracts-upgradeable/access/OwnableUpgradeable.sol\":3405:3620  function transferOwnership(address newOwner) public virtual onlyOwner {... */\n    tag_266:\n        /* \"@openzeppelin/contracts-upgradeable/access/OwnableUpgradeable.sol\":2334:2347  _checkOwner() */\n      tag_566\n        /* \"@openzeppelin/contracts-upgradeable/access/OwnableUpgradeable.sol\":2334:2345  _checkOwner */\n      tag_406\n        /* \"@openzeppelin/contracts-upgradeable/access/OwnableUpgradeable.sol\":2334:2347  _checkOwner() */\n      jump\t// in\n    tag_566:\n      sub(shl(0xa0, 0x01), 0x01)\n        /* \"@openzeppelin/contracts-upgradeable/access/OwnableUpgradeable.sol\":3489:3511  newOwner == address(0) */\n      dup2\n      and\n        /* \"@openzeppelin/contracts-upgradeable/access/OwnableUpgradeable.sol\":3485:3576  if (newOwner == address(0)) {... */\n      tag_568\n      jumpi\n        /* \"@openzeppelin/contracts-upgradeable/access/OwnableUpgradeable.sol\":3534:3565  OwnableInvalidOwner(address(0)) */\n      mload(0x40)\n      shl(0xe0, 0x1e4fbdf7)\n      dup2\n      mstore\n        /* \"@openzeppelin/contracts-upgradeable/access/OwnableUpgradeable.sol\":3562:3563  0 */\n      0x00\n        /* \"@openzeppelin/contracts-upgradeable/access/OwnableUpgradeable.sol\":3534:3565  OwnableInvalidOwner(address(0)) */\n      0x04\n      dup3\n      add\n        /* \"#utility.yul\":357:408   */\n      mstore\n        /* \"#utility.yul\":330:348   */\n      0x24\n      add\n        /* \"@openzeppelin/contracts-upgradeable/access/OwnableUpgradeable.sol\":3534:3565  OwnableInvalidOwner(address(0)) */\n      tag_291\n        /* \"#utility.yul\":196:414   */\n      jump\n        /* \"@openzeppelin/contracts-upgradeable/access/OwnableUpgradeable.sol\":3485:3576  if (newOwner == address(0)) {... */\n    tag_568:\n        /* \"@openzeppelin/contracts-upgradeable/access/OwnableUpgradeable.sol\":3585:3613  _transferOwnership(newOwner) */\n      tag_570\n        /* \"@openzeppelin/contracts-upgradeable/access/OwnableUpgradeable.sol\":3604:3612  newOwner */\n      dup2\n        /* \"@openzeppelin/contracts-upgradeable/access/OwnableUpgradeable.sol\":3585:3603  _transferOwnership */\n      tag_409\n        /* \"@openzeppelin/contracts-upgradeable/access/OwnableUpgradeable.sol\":3585:3613  _transferOwnership(newOwner) */\n      jump\t// in\n    tag_570:\n        /* \"@openzeppelin/contracts-upgradeable/access/OwnableUpgradeable.sol\":3405:3620  function transferOwnership(address newOwner) public virtual onlyOwner {... */\n      pop\n      jump\t// out\n        /* \"@openzeppelin/contracts-upgradeable/access/OwnableUpgradeable.sol\":1847:1974  function __Ownable_init(address initialOwner) internal onlyInitializing {... */\n    tag_282:\n        /* \"@openzeppelin/contracts-upgradeable/proxy/utils/Initializable.sol\":6931:6951  _checkInitializing() */\n      tag_573\n        /* \"@openzeppelin/contracts-upgradeable/proxy/utils/Initializable.sol\":6931:6949  _checkInitializing */\n      tag_574\n        /* \"@openzeppelin/contracts-upgradeable/proxy/utils/Initializable.sol\":6931:6951  _checkInitializing() */\n      jump\t// in\n    tag_573:\n        /* \"@openzeppelin/contracts-upgradeable/access/OwnableUpgradeable.sol\":1929:1967  __Ownable_init_unchained(initialOwner) */\n      tag_570\n        /* \"@openzeppelin/contracts-upgradeable/access/OwnableUpgradeable.sol\":1954:1966  initialOwner */\n      dup2\n        /* \"@openzeppelin/contracts-upgradeable/access/OwnableUpgradeable.sol\":1929:1953  __Ownable_init_unchained */\n      tag_577\n        /* \"@openzeppelin/contracts-upgradeable/access/OwnableUpgradeable.sol\":1929:1967  __Ownable_init_unchained(initialOwner) */\n      jump\t// in\n        /* \"@openzeppelin/contracts-upgradeable/proxy/utils/UUPSUpgradeable.sol\":2968:3035  function __UUPSUpgradeable_init() internal onlyInitializing {... */\n    tag_284:\n        /* \"@openzeppelin/contracts-upgradeable/proxy/utils/Initializable.sol\":6931:6951  _checkInitializing() */\n      tag_408\n        /* \"@openzeppelin/contracts-upgradeable/proxy/utils/Initializable.sol\":6931:6949  _checkInitializing */\n      tag_574\n        /* \"@openzeppelin/contracts-upgradeable/proxy/utils/Initializable.sol\":6931:6951  _checkInitializing() */\n      jump\t// in\n        /* \"@openzeppelin/contracts-upgradeable/proxy/utils/UUPSUpgradeable.sol\":4599:4911  function _checkProxy() internal view virtual {... */\n    tag_339:\n        /* \"@openzeppelin/contracts-upgradeable/proxy/utils/UUPSUpgradeable.sol\":4679:4683  this */\n      address\n      sub(shl(0xa0, 0x01), 0x01)\n        /* \"@openzeppelin/contracts-upgradeable/proxy/utils/UUPSUpgradeable.sol\":4688:4694  __self */\n      immutable(\"0x6740f0f1ed974f4bbc4ea3ddf8917f81b1171208e4ec27e89df857ca2a56624a\")\n        /* \"@openzeppelin/contracts-upgradeable/proxy/utils/UUPSUpgradeable.sol\":4671:4694  address(this) == __self */\n      and\n      eq\n      dup1\n        /* \"@openzeppelin/contracts-upgradeable/proxy/utils/UUPSUpgradeable.sol\":4671:4791  address(this) == __self || // Must be called through delegatecall... */\n      tag_582\n      jumpi\n      pop\n        /* \"@openzeppelin/contracts-upgradeable/proxy/utils/UUPSUpgradeable.sol\":4785:4791  __self */\n      immutable(\"0x6740f0f1ed974f4bbc4ea3ddf8917f81b1171208e4ec27e89df857ca2a56624a\")\n      sub(shl(0xa0, 0x01), 0x01)\n        /* \"@openzeppelin/contracts-upgradeable/proxy/utils/UUPSUpgradeable.sol\":4749:4791  ERC1967Utils.getImplementation() != __self */\n      and\n        /* \"@openzeppelin/contracts-upgradeable/proxy/utils/UUPSUpgradeable.sol\":4749:4781  ERC1967Utils.getImplementation() */\n      tag_583\n      0x00\n      dup1\n      mload\n      0x20\n      data_75b20eef8615de99c108b05f0dbda081c91897128caa336d75dffb97c4132b4d\n      dup4\n      codecopy\n      dup2\n      mload\n      swap2\n      mstore\n        /* \"@openzeppelin/contracts/proxy/ERC1967/ERC1967Utils.sol\":2035:2088  StorageSlot.getAddressSlot(IMPLEMENTATION_SLOT).value */\n      sload\n      sub(shl(0xa0, 0x01), 0x01)\n      and\n      swap1\n        /* \"@openzeppelin/contracts/proxy/ERC1967/ERC1967Utils.sol\":1957:2095  function getImplementation() internal view returns (address) {... */\n      jump\n        /* \"@openzeppelin/contracts-upgradeable/proxy/utils/UUPSUpgradeable.sol\":4749:4781  ERC1967Utils.getImplementation() */\n    tag_583:\n      sub(shl(0xa0, 0x01), 0x01)\n        /* \"@openzeppelin/contracts-upgradeable/proxy/utils/UUPSUpgradeable.sol\":4749:4791  ERC1967Utils.getImplementation() != __self */\n      and\n      eq\n      iszero\n        /* \"@openzeppelin/contracts-upgradeable/proxy/utils/UUPSUpgradeable.sol\":4671:4791  address(this) == __self || // Must be called through delegatecall... */\n    tag_582:\n        /* \"@openzeppelin/contracts-upgradeable/proxy/utils/UUPSUpgradeable.sol\":4654:4905  if (... */\n      iszero\n      tag_408\n      jumpi\n        /* \"@openzeppelin/contracts-upgradeable/proxy/utils/UUPSUpgradeable.sol\":4865:4894  UUPSUnauthorizedCallContext() */\n      mload(0x40)\n      shl(0xe1, 0x703e46dd)\n      dup2\n      mstore\n      0x04\n      add\n      mload(0x40)\n      dup1\n      swap2\n      sub\n      swap1\n      revert\n        /* \"DripWarrior/poolContract.sol\":17855:17967  function _authorizeUpgrade(address newImplementation)... */\n    tag_342:\n        /* \"@openzeppelin/contracts-upgradeable/access/OwnableUpgradeable.sol\":2334:2347  _checkOwner() */\n      tag_570\n        /* \"@openzeppelin/contracts-upgradeable/access/OwnableUpgradeable.sol\":2334:2345  _checkOwner */\n      tag_406\n        /* \"@openzeppelin/contracts-upgradeable/access/OwnableUpgradeable.sol\":2334:2347  _checkOwner() */\n      jump\t// in\n        /* \"@openzeppelin/contracts-upgradeable/proxy/utils/UUPSUpgradeable.sol\":6052:6590  function _upgradeToAndCallUUPS(address newImplementation, bytes memory data) private {... */\n    tag_344:\n        /* \"@openzeppelin/contracts-upgradeable/proxy/utils/UUPSUpgradeable.sol\":6169:6186  newImplementation */\n      dup2\n      sub(shl(0xa0, 0x01), 0x01)\n        /* \"@openzeppelin/contracts-upgradeable/proxy/utils/UUPSUpgradeable.sol\":6151:6201  IERC1822Proxiable(newImplementation).proxiableUUID */\n      and\n      0x52d1902d\n        /* \"@openzeppelin/contracts-upgradeable/proxy/utils/UUPSUpgradeable.sol\":6151:6203  IERC1822Proxiable(newImplementation).proxiableUUID() */\n      mload(0x40)\n      dup2\n      0xffffffff\n      and\n      0xe0\n      shl\n      dup2\n      mstore\n      0x04\n      add\n      0x20\n      mload(0x40)\n      dup1\n      dup4\n      sub\n      dup2\n      dup7\n      gas\n      staticcall\n      swap3\n      pop\n      pop\n      pop\n      dup1\n      iszero\n      tag_590\n      jumpi\n      pop\n      0x40\n      dup1\n      mload\n      0x1f\n      returndatasize\n      swap1\n      dup2\n      add\n      not(0x1f)\n      and\n      dup3\n      add\n      swap1\n      swap3\n      mstore\n      tag_591\n      swap2\n      dup2\n      add\n      swap1\n      tag_592\n      jump\t// in\n    tag_591:\n      0x01\n    tag_590:\n        /* \"@openzeppelin/contracts-upgradeable/proxy/utils/UUPSUpgradeable.sol\":6147:6584  try IERC1822Proxiable(newImplementation).proxiableUUID() returns (bytes32 slot) {... */\n      tag_593\n      jumpi\n        /* \"@openzeppelin/contracts-upgradeable/proxy/utils/UUPSUpgradeable.sol\":6513:6573  ERC1967Utils.ERC1967InvalidImplementation(newImplementation) */\n      mload(0x40)\n      shl(0xe0, 0x4c9c8ce3)\n      dup2\n      mstore\n      sub(shl(0xa0, 0x01), 0x01)\n        /* \"#utility.yul\":375:407   */\n      dup4\n      and\n        /* \"@openzeppelin/contracts-upgradeable/proxy/utils/UUPSUpgradeable.sol\":6513:6573  ERC1967Utils.ERC1967InvalidImplementation(newImplementation) */\n      0x04\n      dup3\n      add\n        /* \"#utility.yul\":357:408   */\n      mstore\n        /* \"#utility.yul\":330:348   */\n      0x24\n      add\n        /* \"@openzeppelin/contracts-upgradeable/proxy/utils/UUPSUpgradeable.sol\":6513:6573  ERC1967Utils.ERC1967InvalidImplementation(newImplementation) */\n      tag_291\n        /* \"#utility.yul\":196:414   */\n      jump\n        /* \"@openzeppelin/contracts-upgradeable/proxy/utils/UUPSUpgradeable.sol\":6147:6584  try IERC1822Proxiable(newImplementation).proxiableUUID() returns (bytes32 slot) {... */\n    tag_593:\n      0x00\n      dup1\n      mload\n      0x20\n      data_75b20eef8615de99c108b05f0dbda081c91897128caa336d75dffb97c4132b4d\n      dup4\n      codecopy\n      dup2\n      mload\n      swap2\n      mstore\n        /* \"@openzeppelin/contracts-upgradeable/proxy/utils/UUPSUpgradeable.sol\":6245:6285  slot != ERC1967Utils.IMPLEMENTATION_SLOT */\n      dup2\n      eq\n        /* \"@openzeppelin/contracts-upgradeable/proxy/utils/UUPSUpgradeable.sol\":6241:6361  if (slot != ERC1967Utils.IMPLEMENTATION_SLOT) {... */\n      tag_599\n      jumpi\n        /* \"@openzeppelin/contracts-upgradeable/proxy/utils/UUPSUpgradeable.sol\":6312:6346  UUPSUnsupportedProxiableUUID(slot) */\n      mload(0x40)\n      shl(0xe2, 0x2a875269)\n      dup2\n      mstore\n      0x04\n      dup2\n      add\n        /* \"#utility.yul\":160:185   */\n      dup3\n      swap1\n      mstore\n        /* \"#utility.yul\":133:151   */\n      0x24\n      add\n        /* \"@openzeppelin/contracts-upgradeable/proxy/utils/UUPSUpgradeable.sol\":6312:6346  UUPSUnsupportedProxiableUUID(slot) */\n      tag_291\n        /* \"#utility.yul\":14:191   */\n      jump\n        /* \"@openzeppelin/contracts-upgradeable/proxy/utils/UUPSUpgradeable.sol\":6241:6361  if (slot != ERC1967Utils.IMPLEMENTATION_SLOT) {... */\n    tag_599:\n        /* \"@openzeppelin/contracts-upgradeable/proxy/utils/UUPSUpgradeable.sol\":6374:6428  ERC1967Utils.upgradeToAndCall(newImplementation, data) */\n      tag_601\n        /* \"@openzeppelin/contracts-upgradeable/proxy/utils/UUPSUpgradeable.sol\":6404:6421  newImplementation */\n      dup4\n        /* \"@openzeppelin/contracts-upgradeable/proxy/utils/UUPSUpgradeable.sol\":6423:6427  data */\n      dup4\n        /* \"@openzeppelin/contracts-upgradeable/proxy/utils/UUPSUpgradeable.sol\":6374:6403  ERC1967Utils.upgradeToAndCall */\n      tag_602\n        /* \"@openzeppelin/contracts-upgradeable/proxy/utils/UUPSUpgradeable.sol\":6374:6428  ERC1967Utils.upgradeToAndCall(newImplementation, data) */\n      jump\t// in\n    tag_601:\n        /* \"@openzeppelin/contracts-upgradeable/proxy/utils/UUPSUpgradeable.sol\":6204:6439  returns (bytes32 slot) {... */\n      pop\n        /* \"@openzeppelin/contracts-upgradeable/proxy/utils/UUPSUpgradeable.sol\":6052:6590  function _upgradeToAndCallUUPS(address newImplementation, bytes memory data) private {... */\n      pop\n      pop\n      jump\t// out\n        /* \"@openzeppelin/contracts-upgradeable/proxy/utils/UUPSUpgradeable.sol\":5028:5241  function _checkNotDelegated() internal view virtual {... */\n    tag_364:\n        /* \"@openzeppelin/contracts-upgradeable/proxy/utils/UUPSUpgradeable.sol\":5102:5106  this */\n      address\n      sub(shl(0xa0, 0x01), 0x01)\n        /* \"@openzeppelin/contracts-upgradeable/proxy/utils/UUPSUpgradeable.sol\":5111:5117  __self */\n      immutable(\"0x6740f0f1ed974f4bbc4ea3ddf8917f81b1171208e4ec27e89df857ca2a56624a\")\n        /* \"@openzeppelin/contracts-upgradeable/proxy/utils/UUPSUpgradeable.sol\":5094:5117  address(this) != __self */\n      and\n      eq\n        /* \"@openzeppelin/contracts-upgradeable/proxy/utils/UUPSUpgradeable.sol\":5090:5235  if (address(this) != __self) {... */\n      tag_408\n      jumpi\n        /* \"@openzeppelin/contracts-upgradeable/proxy/utils/UUPSUpgradeable.sol\":5195:5224  UUPSUnauthorizedCallContext() */\n      mload(0x40)\n      shl(0xe1, 0x703e46dd)\n      dup2\n      mstore\n      0x04\n      add\n      mload(0x40)\n      dup1\n      swap2\n      sub\n      swap1\n      revert\n        /* \"@openzeppelin/contracts-upgradeable/access/OwnableUpgradeable.sol\":2658:2820  function _checkOwner() internal view virtual {... */\n    tag_406:\n        /* \"@openzeppelin/contracts-upgradeable/utils/ContextUpgradeable.sol\":966:976  msg.sender */\n      caller\n        /* \"@openzeppelin/contracts-upgradeable/access/OwnableUpgradeable.sol\":2717:2724  owner() */\n      tag_608\n        /* \"@openzeppelin/contracts-upgradeable/access/OwnableUpgradeable.sol\":1313:1335  OwnableStorageLocation */\n      0x9016d09d72d40fdae2fd8ceac6b6234c7706214fd39c1cd1e609a0528c199300\n        /* \"@openzeppelin/contracts-upgradeable/access/OwnableUpgradeable.sol\":2570:2578  $._owner */\n      sload\n      sub(shl(0xa0, 0x01), 0x01)\n      and\n      swap1\n        /* \"@openzeppelin/contracts-upgradeable/access/OwnableUpgradeable.sol\":2441:2585  function owner() public view virtual returns (address) {... */\n      jump\n        /* \"@openzeppelin/contracts-upgradeable/access/OwnableUpgradeable.sol\":2717:2724  owner() */\n    tag_608:\n      sub(shl(0xa0, 0x01), 0x01)\n        /* \"@openzeppelin/contracts-upgradeable/access/OwnableUpgradeable.sol\":2717:2740  owner() != _msgSender() */\n      and\n      eq\n        /* \"@openzeppelin/contracts-upgradeable/access/OwnableUpgradeable.sol\":2713:2814  if (owner() != _msgSender()) {... */\n      tag_408\n      jumpi\n        /* \"@openzeppelin/contracts-upgradeable/access/OwnableUpgradeable.sol\":2763:2803  OwnableUnauthorizedAccount(_msgSender()) */\n      mload(0x40)\n      shl(0xe0, 0x118cdaa7)\n      dup2\n      mstore\n        /* \"@openzeppelin/contracts-upgradeable/utils/ContextUpgradeable.sol\":966:976  msg.sender */\n      caller\n        /* \"@openzeppelin/contracts-upgradeable/access/OwnableUpgradeable.sol\":2763:2803  OwnableUnauthorizedAccount(_msgSender()) */\n      0x04\n      dup3\n      add\n        /* \"#utility.yul\":357:408   */\n      mstore\n        /* \"#utility.yul\":330:348   */\n      0x24\n      add\n        /* \"@openzeppelin/contracts-upgradeable/access/OwnableUpgradeable.sol\":2763:2803  OwnableUnauthorizedAccount(_msgSender()) */\n      tag_291\n        /* \"#utility.yul\":196:414   */\n      jump\n        /* \"@openzeppelin/contracts-upgradeable/access/OwnableUpgradeable.sol\":3774:4022  function _transferOwnership(address newOwner) internal virtual {... */\n    tag_409:\n        /* \"@openzeppelin/contracts-upgradeable/access/OwnableUpgradeable.sol\":1313:1335  OwnableStorageLocation */\n      0x9016d09d72d40fdae2fd8ceac6b6234c7706214fd39c1cd1e609a0528c199300\n        /* \"@openzeppelin/contracts-upgradeable/access/OwnableUpgradeable.sol\":3923:3931  $._owner */\n      dup1\n      sload\n      not(sub(shl(0xa0, 0x01), 0x01))\n        /* \"@openzeppelin/contracts-upgradeable/access/OwnableUpgradeable.sol\":3941:3960  $._owner = newOwner */\n      dup2\n      and\n      sub(shl(0xa0, 0x01), 0x01)\n      dup5\n      dup2\n      and\n      swap2\n      dup3\n      or\n      dup5\n      sstore\n        /* \"@openzeppelin/contracts-upgradeable/access/OwnableUpgradeable.sol\":3975:4015  OwnershipTransferred(oldOwner, newOwner) */\n      mload(0x40)\n        /* \"@openzeppelin/contracts-upgradeable/access/OwnableUpgradeable.sol\":3923:3931  $._owner */\n      swap3\n      and\n      swap2\n      dup3\n      swap1\n        /* \"@openzeppelin/contracts-upgradeable/access/OwnableUpgradeable.sol\":3975:4015  OwnershipTransferred(oldOwner, newOwner) */\n      0x8be0079c531659141344cd1fd0a4f28419497f9722a3daafe3b4186f6b6457e0\n      swap1\n        /* \"@openzeppelin/contracts-upgradeable/access/OwnableUpgradeable.sol\":3847:3871  OwnableStorage storage $ */\n      0x00\n      swap1\n        /* \"@openzeppelin/contracts-upgradeable/access/OwnableUpgradeable.sol\":3975:4015  OwnershipTransferred(oldOwner, newOwner) */\n      log3\n        /* \"@openzeppelin/contracts-upgradeable/access/OwnableUpgradeable.sol\":3837:4022  {... */\n      pop\n      pop\n        /* \"@openzeppelin/contracts-upgradeable/access/OwnableUpgradeable.sol\":3774:4022  function _transferOwnership(address newOwner) internal virtual {... */\n      pop\n      jump\t// out\n        /* \"DripWarrior/poolContract.sol\":9069:9448  function calculateFees(uint256 _amount, uint256 _tPPercentage) private {... */\n    tag_475:\n        /* \"DripWarrior/poolContract.sol\":9158:9178  uint256 oPPercentage */\n      0x00\n        /* \"DripWarrior/poolContract.sol\":9181:9202  10000 - _tPPercentage */\n      tag_615\n        /* \"DripWarrior/poolContract.sol\":9189:9202  _tPPercentage */\n      dup3\n        /* \"DripWarrior/poolContract.sol\":9181:9186  10000 */\n      0x2710\n        /* \"DripWarrior/poolContract.sol\":9181:9202  10000 - _tPPercentage */\n      tag_298\n      jump\t// in\n    tag_615:\n        /* \"DripWarrior/poolContract.sol\":9158:9202  uint256 oPPercentage = 10000 - _tPPercentage */\n      swap1\n      pop\n        /* \"DripWarrior/poolContract.sol\":9212:9232  uint256 ownerShipFee */\n      0x00\n        /* \"DripWarrior/poolContract.sol\":9235:9277  calculatePercentage(_amount, oPPercentage) */\n      tag_616\n        /* \"DripWarrior/poolContract.sol\":9255:9262  _amount */\n      dup5\n        /* \"DripWarrior/poolContract.sol\":9264:9276  oPPercentage */\n      dup4\n        /* \"DripWarrior/poolContract.sol\":9235:9254  calculatePercentage */\n      tag_545\n        /* \"DripWarrior/poolContract.sol\":9235:9277  calculatePercentage(_amount, oPPercentage) */\n      jump\t// in\n    tag_616:\n        /* \"DripWarrior/poolContract.sol\":9212:9277  uint256 ownerShipFee = calculatePercentage(_amount, oPPercentage) */\n      swap1\n      pop\n        /* \"DripWarrior/poolContract.sol\":9287:9306  uint256 treasuryFee */\n      0x00\n        /* \"DripWarrior/poolContract.sol\":9309:9352  calculatePercentage(_amount, _tPPercentage) */\n      tag_617\n        /* \"DripWarrior/poolContract.sol\":9329:9336  _amount */\n      dup6\n        /* \"DripWarrior/poolContract.sol\":9338:9351  _tPPercentage */\n      dup6\n        /* \"DripWarrior/poolContract.sol\":9309:9328  calculatePercentage */\n      tag_545\n        /* \"DripWarrior/poolContract.sol\":9309:9352  calculatePercentage(_amount, _tPPercentage) */\n      jump\t// in\n    tag_617:\n        /* \"DripWarrior/poolContract.sol\":9287:9352  uint256 treasuryFee = calculatePercentage(_amount, _tPPercentage) */\n      swap1\n      pop\n        /* \"DripWarrior/poolContract.sol\":9386:9398  ownerShipFee */\n      dup2\n        /* \"DripWarrior/poolContract.sol\":9363:9382  ownerShipPoolAmount */\n      0x02\n      0x00\n        /* \"DripWarrior/poolContract.sol\":9363:9398  ownerShipPoolAmount += ownerShipFee */\n      dup3\n      dup3\n      sload\n      tag_618\n      swap2\n      swap1\n      tag_320\n      jump\t// in\n    tag_618:\n      swap3\n      pop\n      pop\n      dup2\n      swap1\n      sstore\n      pop\n        /* \"DripWarrior/poolContract.sol\":9430:9441  treasuryFee */\n      dup1\n        /* \"DripWarrior/poolContract.sol\":9408:9426  treasuryPoolAmount */\n      0x01\n      0x00\n        /* \"DripWarrior/poolContract.sol\":9408:9441  treasuryPoolAmount += treasuryFee */\n      dup3\n      dup3\n      sload\n      tag_619\n      swap2\n      swap1\n      tag_320\n      jump\t// in\n    tag_619:\n      swap1\n      swap2\n      sstore\n      pop\n      pop\n      pop\n      pop\n      pop\n      pop\n      pop\n        /* \"DripWarrior/poolContract.sol\":9069:9448  function calculateFees(uint256 _amount, uint256 _tPPercentage) private {... */\n      jump\t// out\n        /* \"DripWarrior/poolContract.sol\":11091:12276  function perPoolCalculation() private returns(uint256, uint256,uint256){... */\n    tag_535:\n        /* \"DripWarrior/poolContract.sol\":11137:11144  uint256 */\n      0x00\n        /* \"DripWarrior/poolContract.sol\":11146:11153  uint256 */\n      dup1\n        /* \"DripWarrior/poolContract.sol\":11154:11161  uint256 */\n      0x00\n        /* \"DripWarrior/poolContract.sol\":11182:11206  uint256 remainFiftyOPool */\n      dup1\n        /* \"DripWarrior/poolContract.sol\":11209:11255  calculatePercentage(ownerShipPoolAmount, 5000) */\n      tag_622\n        /* \"DripWarrior/poolContract.sol\":11229:11248  ownerShipPoolAmount */\n      sload(0x02)\n        /* \"DripWarrior/poolContract.sol\":11250:11254  5000 */\n      0x1388\n        /* \"DripWarrior/poolContract.sol\":11209:11228  calculatePercentage */\n      tag_545\n        /* \"DripWarrior/poolContract.sol\":11209:11255  calculatePercentage(ownerShipPoolAmount, 5000) */\n      jump\t// in\n    tag_622:\n        /* \"DripWarrior/poolContract.sol\":11182:11255  uint256 remainFiftyOPool = calculatePercentage(ownerShipPoolAmount, 5000) */\n      swap1\n      pop\n        /* \"DripWarrior/poolContract.sol\":11266:11299  uint256 dividentPayoutOPoolAmount */\n      0x00\n        /* \"DripWarrior/poolContract.sol\":11302:11366  calculatePercentage(remainFiftyOPool, odividentPayoutPercentage) */\n      tag_623\n        /* \"DripWarrior/poolContract.sol\":11322:11338  remainFiftyOPool */\n      dup3\n        /* \"DripWarrior/poolContract.sol\":11340:11365  odividentPayoutPercentage */\n      sload(0x05)\n        /* \"DripWarrior/poolContract.sol\":11302:11321  calculatePercentage */\n      tag_545\n        /* \"DripWarrior/poolContract.sol\":11302:11366  calculatePercentage(remainFiftyOPool, odividentPayoutPercentage) */\n      jump\t// in\n    tag_623:\n        /* \"DripWarrior/poolContract.sol\":11266:11366  uint256 dividentPayoutOPoolAmount = calculatePercentage(remainFiftyOPool, odividentPayoutPercentage) */\n      swap1\n      pop\n        /* \"DripWarrior/poolContract.sol\":11376:11412  uint256 fifteenPercenntToTPoolAmount */\n      0x00\n        /* \"DripWarrior/poolContract.sol\":11415:11478  calculatePercentage(remainFiftyOPool, flowToTreasuryPercentage) */\n      tag_624\n        /* \"DripWarrior/poolContract.sol\":11435:11451  remainFiftyOPool */\n      dup4\n        /* \"DripWarrior/poolContract.sol\":11453:11477  flowToTreasuryPercentage */\n      sload(0x06)\n        /* \"DripWarrior/poolContract.sol\":11415:11434  calculatePercentage */\n      tag_545\n        /* \"DripWarrior/poolContract.sol\":11415:11478  calculatePercentage(remainFiftyOPool, flowToTreasuryPercentage) */\n      jump\t// in\n    tag_624:\n        /* \"DripWarrior/poolContract.sol\":11376:11478  uint256 fifteenPercenntToTPoolAmount = calculatePercentage(remainFiftyOPool, flowToTreasuryPercentage) */\n      swap1\n      pop\n        /* \"DripWarrior/poolContract.sol\":11488:11524  uint256 tenPercenntToMaintenceAmount */\n      0x00\n        /* \"DripWarrior/poolContract.sol\":11527:11589  calculatePercentage(remainFiftyOPool, maintainceFeePercentage) */\n      tag_625\n        /* \"DripWarrior/poolContract.sol\":11547:11563  remainFiftyOPool */\n      dup5\n        /* \"DripWarrior/poolContract.sol\":11565:11588  maintainceFeePercentage */\n      sload(0x07)\n        /* \"DripWarrior/poolContract.sol\":11527:11546  calculatePercentage */\n      tag_545\n        /* \"DripWarrior/poolContract.sol\":11527:11589  calculatePercentage(remainFiftyOPool, maintainceFeePercentage) */\n      jump\t// in\n    tag_625:\n        /* \"DripWarrior/poolContract.sol\":11488:11589  uint256 tenPercenntToMaintenceAmount = calculatePercentage(remainFiftyOPool, maintainceFeePercentage) */\n      swap1\n      pop\n        /* \"DripWarrior/poolContract.sol\":11599:11629  uint256 remainFiftyTPoolAmount */\n      0x00\n        /* \"DripWarrior/poolContract.sol\":11632:11698  calculatePercentage(treasuryPoolAmount, tdividentPayoutPercentage) */\n      tag_626\n        /* \"DripWarrior/poolContract.sol\":11652:11670  treasuryPoolAmount */\n      sload(0x01)\n        /* \"DripWarrior/poolContract.sol\":11672:11697  tdividentPayoutPercentage */\n      sload(0x04)\n        /* \"DripWarrior/poolContract.sol\":11632:11651  calculatePercentage */\n      tag_545\n        /* \"DripWarrior/poolContract.sol\":11632:11698  calculatePercentage(treasuryPoolAmount, tdividentPayoutPercentage) */\n      jump\t// in\n    tag_626:\n        /* \"DripWarrior/poolContract.sol\":11599:11698  uint256 remainFiftyTPoolAmount = calculatePercentage(treasuryPoolAmount, tdividentPayoutPercentage) */\n      swap1\n      pop\n        /* \"DripWarrior/poolContract.sol\":11725:11726  0 */\n      0x00\n        /* \"DripWarrior/poolContract.sol\":11712:11721  noOfUsers */\n      sload(0x08)\n        /* \"DripWarrior/poolContract.sol\":11712:11726  noOfUsers <= 0 */\n      gt\n        /* \"DripWarrior/poolContract.sol\":11709:11779  if(noOfUsers <= 0){... */\n      tag_627\n      jumpi\n        /* \"DripWarrior/poolContract.sol\":11758:11767  noOfUsers */\n      sload(0x08)\n        /* \"DripWarrior/poolContract.sol\":11748:11768  zeroUsers(noOfUsers) */\n      mload(0x40)\n      shl(0xe0, 0x7ca8d0db)\n      dup2\n      mstore\n      0x04\n      add\n      tag_291\n      swap2\n        /* \"#utility.yul\":160:185   */\n      dup2\n      mstore\n        /* \"#utility.yul\":148:150   */\n      0x20\n        /* \"#utility.yul\":133:151   */\n      add\n      swap1\n        /* \"#utility.yul\":14:191   */\n      jump\n        /* \"DripWarrior/poolContract.sol\":11709:11779  if(noOfUsers <= 0){... */\n    tag_627:\n        /* \"DripWarrior/poolContract.sol\":11797:11823  uint256 perPersonFromTPool */\n      0x00\n        /* \"DripWarrior/poolContract.sol\":11849:11858  noOfUsers */\n      sload(0x08)\n        /* \"DripWarrior/poolContract.sol\":11826:11848  remainFiftyTPoolAmount */\n      dup3\n        /* \"DripWarrior/poolContract.sol\":11826:11858  remainFiftyTPoolAmount/noOfUsers */\n      tag_629\n      swap2\n      swap1\n      tag_543\n      jump\t// in\n    tag_629:\n        /* \"DripWarrior/poolContract.sol\":11797:11858  uint256 perPersonFromTPool = remainFiftyTPoolAmount/noOfUsers */\n      swap1\n      pop\n        /* \"DripWarrior/poolContract.sol\":11901:11960  fifteenPercenntToTPoolAmount + tenPercenntToMaintenceAmount */\n      tag_630\n        /* \"DripWarrior/poolContract.sol\":11932:11960  tenPercenntToMaintenceAmount */\n      dup4\n        /* \"DripWarrior/poolContract.sol\":11901:11929  fifteenPercenntToTPoolAmount */\n      dup6\n        /* \"DripWarrior/poolContract.sol\":11901:11960  fifteenPercenntToTPoolAmount + tenPercenntToMaintenceAmount */\n      tag_320\n      jump\t// in\n    tag_630:\n        /* \"DripWarrior/poolContract.sol\":11877:11896  ownerShipPoolAmount */\n      0x02\n      0x00\n        /* \"DripWarrior/poolContract.sol\":11877:11961  ownerShipPoolAmount -= (fifteenPercenntToTPoolAmount + tenPercenntToMaintenceAmount) */\n      dup3\n      dup3\n      sload\n      tag_631\n      swap2\n      swap1\n      tag_298\n      jump\t// in\n    tag_631:\n      swap3\n      pop\n      pop\n      dup2\n      swap1\n      sstore\n      pop\n        /* \"DripWarrior/poolContract.sol\":11993:12021  fifteenPercenntToTPoolAmount */\n      dup4\n        /* \"DripWarrior/poolContract.sol\":11971:11989  treasuryPoolAmount */\n      0x01\n      0x00\n        /* \"DripWarrior/poolContract.sol\":11971:12021  treasuryPoolAmount += fifteenPercenntToTPoolAmount */\n      dup3\n      dup3\n      sload\n      tag_632\n      swap2\n      swap1\n      tag_320\n      jump\t// in\n    tag_632:\n      swap1\n      swap2\n      sstore\n      pop\n      pop\n        /* \"DripWarrior/poolContract.sol\":12032:12044  bool success */\n      0x00\n        /* \"DripWarrior/poolContract.sol\":12047:12056  usdcToken */\n      dup1\n      sload\n        /* \"DripWarrior/poolContract.sol\":12066:12081  multisigAddress */\n      sload(0x09)\n        /* \"DripWarrior/poolContract.sol\":12047:12112  usdcToken.transfer(multisigAddress, tenPercenntToMaintenceAmount) */\n      mload(0x40)\n      shl(0xe0, 0xa9059cbb)\n      dup2\n      mstore\n      sub(shl(0xa0, 0x01), 0x01)\n        /* \"DripWarrior/poolContract.sol\":12066:12081  multisigAddress */\n      swap2\n      dup3\n      and\n        /* \"DripWarrior/poolContract.sol\":12047:12112  usdcToken.transfer(multisigAddress, tenPercenntToMaintenceAmount) */\n      0x04\n      dup3\n      add\n        /* \"#utility.yul\":10951:11002   */\n      mstore\n        /* \"#utility.yul\":11018:11036   */\n      0x24\n      dup2\n      add\n        /* \"#utility.yul\":11011:11045   */\n      dup8\n      swap1\n      mstore\n        /* \"DripWarrior/poolContract.sol\":12047:12056  usdcToken */\n      swap2\n      and\n      swap1\n        /* \"DripWarrior/poolContract.sol\":12047:12065  usdcToken.transfer */\n      0xa9059cbb\n      swap1\n        /* \"#utility.yul\":10924:10942   */\n      0x44\n      add\n        /* \"DripWarrior/poolContract.sol\":12047:12112  usdcToken.transfer(multisigAddress, tenPercenntToMaintenceAmount) */\n      0x20\n      mload(0x40)\n      dup1\n      dup4\n      sub\n      dup2\n      0x00\n      dup8\n      gas\n      call\n      iszero\n      dup1\n      iszero\n      tag_635\n      jumpi\n      returndatasize\n      0x00\n      dup1\n      returndatacopy\n      revert(0x00, returndatasize)\n    tag_635:\n      pop\n      pop\n      pop\n      pop\n      mload(0x40)\n      returndatasize\n      not(0x1f)\n      0x1f\n      dup3\n      add\n      and\n      dup3\n      add\n      dup1\n      0x40\n      mstore\n      pop\n      dup2\n      add\n      swap1\n      tag_636\n      swap2\n      swap1\n      tag_358\n      jump\t// in\n    tag_636:\n        /* \"DripWarrior/poolContract.sol\":12032:12112  bool success = usdcToken.transfer(multisigAddress, tenPercenntToMaintenceAmount) */\n      swap1\n      pop\n        /* \"DripWarrior/poolContract.sol\":12126:12133  success */\n      dup1\n        /* \"DripWarrior/poolContract.sol\":12122:12189  if(!success){... */\n      tag_637\n      jumpi\n        /* \"DripWarrior/poolContract.sol\":12155:12178  transferFailed(success) */\n      mload(0x40)\n      shl(0xe0, 0xd85d3cef)\n      dup2\n      mstore\n        /* \"#utility.yul\":7698:7712   */\n      dup2\n      iszero\n        /* \"#utility.yul\":7691:7713   */\n      iszero\n        /* \"DripWarrior/poolContract.sol\":12155:12178  transferFailed(success) */\n      0x04\n      dup3\n      add\n        /* \"#utility.yul\":7673:7714   */\n      mstore\n        /* \"#utility.yul\":7646:7664   */\n      0x24\n      add\n        /* \"DripWarrior/poolContract.sol\":12155:12178  transferFailed(success) */\n      tag_291\n        /* \"#utility.yul\":7533:7720   */\n      jump\n        /* \"DripWarrior/poolContract.sol\":12122:12189  if(!success){... */\n    tag_637:\n      pop\n        /* \"DripWarrior/poolContract.sol\":12207:12223  remainFiftyOPool */\n      swap5\n      swap9\n        /* \"DripWarrior/poolContract.sol\":12224:12249  dividentPayoutOPoolAmount */\n      swap4\n      swap8\n      pop\n        /* \"DripWarrior/poolContract.sol\":12250:12268  perPersonFromTPool */\n      swap4\n      swap6\n      pop\n        /* \"DripWarrior/poolContract.sol\":11091:12276  function perPoolCalculation() private returns(uint256, uint256,uint256){... */\n      swap2\n      swap4\n      pop\n      pop\n      pop\n      pop\n      jump\t// out\n        /* \"DripWarrior/poolContract.sol\":14171:14628  function calculatePercentage(uint256 _totalStakeAmount,uint256 percentageNumber) private pure returns(uint256) {... */\n    tag_545:\n        /* \"DripWarrior/poolContract.sol\":14273:14280  uint256 */\n      0x00\n        /* \"DripWarrior/poolContract.sol\":14325:14326  0 */\n      dup1\n        /* \"DripWarrior/poolContract.sol\":14304:14321  _totalStakeAmount */\n      dup4\n        /* \"DripWarrior/poolContract.sol\":14304:14326  _totalStakeAmount <= 0 */\n      gt\n        /* \"DripWarrior/poolContract.sol\":14301:14399  if(_totalStakeAmount <= 0){... */\n      tag_640\n      jumpi\n        /* \"DripWarrior/poolContract.sol\":14348:14388  wrongPercentageAmount(_totalStakeAmount) */\n      mload(0x40)\n      shl(0xe0, 0x9b7220af)\n      dup2\n      mstore\n      0x04\n      dup2\n      add\n        /* \"#utility.yul\":160:185   */\n      dup5\n      swap1\n      mstore\n        /* \"#utility.yul\":133:151   */\n      0x24\n      add\n        /* \"DripWarrior/poolContract.sol\":14348:14388  wrongPercentageAmount(_totalStakeAmount) */\n      tag_291\n        /* \"#utility.yul\":14:191   */\n      jump\n        /* \"DripWarrior/poolContract.sol\":14301:14399  if(_totalStakeAmount <= 0){... */\n    tag_640:\n        /* \"DripWarrior/poolContract.sol\":14431:14432  0 */\n      0x00\n        /* \"DripWarrior/poolContract.sol\":14411:14427  percentageNumber */\n      dup3\n        /* \"DripWarrior/poolContract.sol\":14411:14432  percentageNumber <= 0 */\n      gt\n        /* \"DripWarrior/poolContract.sol\":14408:14499  if(percentageNumber <= 0){... */\n      tag_642\n      jumpi\n        /* \"DripWarrior/poolContract.sol\":14454:14488  wrongPerceentage(percentageNumber) */\n      mload(0x40)\n      shl(0xe3, 0x0b015aa7)\n      dup2\n      mstore\n      0x04\n      dup2\n      add\n        /* \"#utility.yul\":160:185   */\n      dup4\n      swap1\n      mstore\n        /* \"#utility.yul\":133:151   */\n      0x24\n      add\n        /* \"DripWarrior/poolContract.sol\":14454:14488  wrongPerceentage(percentageNumber) */\n      tag_291\n        /* \"#utility.yul\":14:191   */\n      jump\n        /* \"DripWarrior/poolContract.sol\":14408:14499  if(percentageNumber <= 0){... */\n    tag_642:\n        /* \"DripWarrior/poolContract.sol\":14516:14534  uint256 serviceFee */\n      0x00\n        /* \"DripWarrior/poolContract.sol\":14579:14584  10000 */\n      0x2710\n        /* \"DripWarrior/poolContract.sol\":14537:14575  _totalStakeAmount * (percentageNumber) */\n      tag_644\n        /* \"DripWarrior/poolContract.sol\":14558:14574  percentageNumber */\n      dup5\n        /* \"DripWarrior/poolContract.sol\":14537:14554  _totalStakeAmount */\n      dup7\n        /* \"DripWarrior/poolContract.sol\":14537:14575  _totalStakeAmount * (percentageNumber) */\n      tag_541\n      jump\t// in\n    tag_644:\n        /* \"DripWarrior/poolContract.sol\":14537:14585  _totalStakeAmount * (percentageNumber) / (10000) */\n      tag_645\n      swap2\n      swap1\n      tag_543\n      jump\t// in\n    tag_645:\n        /* \"DripWarrior/poolContract.sol\":14516:14585  uint256 serviceFee = _totalStakeAmount * (percentageNumber) / (10000) */\n      swap2\n      pop\n      pop\n        /* \"DripWarrior/poolContract.sol\":14171:14628  function calculatePercentage(uint256 _totalStakeAmount,uint256 percentageNumber) private pure returns(uint256) {... */\n    tag_639:\n      swap3\n      swap2\n      pop\n      pop\n      jump\t// out\n        /* \"@openzeppelin/contracts-upgradeable/proxy/utils/Initializable.sol\":7084:7225  function _checkInitializing() internal view virtual {... */\n    tag_574:\n        /* \"@openzeppelin/contracts-upgradeable/proxy/utils/Initializable.sol\":8870:8891  INITIALIZABLE_STORAGE */\n      0xf0c57e16840df040f15088dc2f81fe391c3923bec73e23a9662efc9c229c6a00\n        /* \"@openzeppelin/contracts-upgradeable/proxy/utils/Initializable.sol\":8560:8600  _getInitializableStorage()._initializing */\n      sload\n      shl(0x40, 0x01)\n      swap1\n      div\n      0xff\n      and\n        /* \"@openzeppelin/contracts-upgradeable/proxy/utils/Initializable.sol\":7146:7219  if (!_isInitializing()) {... */\n      tag_408\n      jumpi\n        /* \"@openzeppelin/contracts-upgradeable/proxy/utils/Initializable.sol\":7191:7208  NotInitializing() */\n      mload(0x40)\n      shl(0xe3, 0x1afcd79f)\n      dup2\n      mstore\n      0x04\n      add\n      mload(0x40)\n      dup1\n      swap2\n      sub\n      swap1\n      revert\n        /* \"@openzeppelin/contracts-upgradeable/access/OwnableUpgradeable.sol\":1980:2215  function __Ownable_init_unchained(address initialOwner) internal onlyInitializing {... */\n    tag_577:\n        /* \"@openzeppelin/contracts-upgradeable/proxy/utils/Initializable.sol\":6931:6951  _checkInitializing() */\n      tag_566\n        /* \"@openzeppelin/contracts-upgradeable/proxy/utils/Initializable.sol\":6931:6949  _checkInitializing */\n      tag_574\n        /* \"@openzeppelin/contracts-upgradeable/proxy/utils/Initializable.sol\":6931:6951  _checkInitializing() */\n      jump\t// in\n        /* \"@openzeppelin/contracts/proxy/ERC1967/ERC1967Utils.sol\":2779:3114  function upgradeToAndCall(address newImplementation, bytes memory data) internal {... */\n    tag_602:\n        /* \"@openzeppelin/contracts/proxy/ERC1967/ERC1967Utils.sol\":2870:2907  _setImplementation(newImplementation) */\n      tag_660\n        /* \"@openzeppelin/contracts/proxy/ERC1967/ERC1967Utils.sol\":2889:2906  newImplementation */\n      dup3\n        /* \"@openzeppelin/contracts/proxy/ERC1967/ERC1967Utils.sol\":2870:2888  _setImplementation */\n      tag_661\n        /* \"@openzeppelin/contracts/proxy/ERC1967/ERC1967Utils.sol\":2870:2907  _setImplementation(newImplementation) */\n      jump\t// in\n    tag_660:\n        /* \"@openzeppelin/contracts/proxy/ERC1967/ERC1967Utils.sol\":2922:2949  Upgraded(newImplementation) */\n      mload(0x40)\n      sub(shl(0xa0, 0x01), 0x01)\n      dup4\n      and\n      swap1\n      0xbc7cd75a20ee27fd9adebab32041f755214dbc6bffa90cc0225b39da2e5c2d3b\n      swap1\n      0x00\n      swap1\n      log2\n        /* \"@openzeppelin/contracts/proxy/ERC1967/ERC1967Utils.sol\":2964:2975  data.length */\n      dup1\n      mload\n        /* \"@openzeppelin/contracts/proxy/ERC1967/ERC1967Utils.sol\":2964:2979  data.length > 0 */\n      iszero\n        /* \"@openzeppelin/contracts/proxy/ERC1967/ERC1967Utils.sol\":2960:3108  if (data.length > 0) {... */\n      tag_662\n      jumpi\n        /* \"@openzeppelin/contracts/proxy/ERC1967/ERC1967Utils.sol\":2995:3048  Address.functionDelegateCall(newImplementation, data) */\n      tag_601\n        /* \"@openzeppelin/contracts/proxy/ERC1967/ERC1967Utils.sol\":3024:3041  newImplementation */\n      dup3\n        /* \"@openzeppelin/contracts/proxy/ERC1967/ERC1967Utils.sol\":3043:3047  data */\n      dup3\n        /* \"@openzeppelin/contracts/proxy/ERC1967/ERC1967Utils.sol\":2995:3023  Address.functionDelegateCall */\n      tag_664\n        /* \"@openzeppelin/contracts/proxy/ERC1967/ERC1967Utils.sol\":2995:3048  Address.functionDelegateCall(newImplementation, data) */\n      jump\t// in\n        /* \"@openzeppelin/contracts/proxy/ERC1967/ERC1967Utils.sol\":2960:3108  if (data.length > 0) {... */\n    tag_662:\n        /* \"@openzeppelin/contracts/proxy/ERC1967/ERC1967Utils.sol\":3079:3097  _checkNonPayable() */\n      tag_334\n        /* \"@openzeppelin/contracts/proxy/ERC1967/ERC1967Utils.sol\":3079:3095  _checkNonPayable */\n      tag_667\n        /* \"@openzeppelin/contracts/proxy/ERC1967/ERC1967Utils.sol\":3079:3097  _checkNonPayable() */\n      jump\t// in\n        /* \"@openzeppelin/contracts/proxy/ERC1967/ERC1967Utils.sol\":2186:2467  function _setImplementation(address newImplementation) private {... */\n    tag_661:\n        /* \"@openzeppelin/contracts/proxy/ERC1967/ERC1967Utils.sol\":2263:2280  newImplementation */\n      dup1\n      sub(shl(0xa0, 0x01), 0x01)\n        /* \"@openzeppelin/contracts/proxy/ERC1967/ERC1967Utils.sol\":2263:2292  newImplementation.code.length */\n      and\n      extcodesize\n        /* \"@openzeppelin/contracts/proxy/ERC1967/ERC1967Utils.sol\":2296:2297  0 */\n      0x00\n        /* \"@openzeppelin/contracts/proxy/ERC1967/ERC1967Utils.sol\":2263:2297  newImplementation.code.length == 0 */\n      sub\n        /* \"@openzeppelin/contracts/proxy/ERC1967/ERC1967Utils.sol\":2259:2378  if (newImplementation.code.length == 0) {... */\n      tag_673\n      jumpi\n        /* \"@openzeppelin/contracts/proxy/ERC1967/ERC1967Utils.sol\":2320:2367  ERC1967InvalidImplementation(newImplementation) */\n      mload(0x40)\n      shl(0xe0, 0x4c9c8ce3)\n      dup2\n      mstore\n      sub(shl(0xa0, 0x01), 0x01)\n        /* \"#utility.yul\":375:407   */\n      dup3\n      and\n        /* \"@openzeppelin/contracts/proxy/ERC1967/ERC1967Utils.sol\":2320:2367  ERC1967InvalidImplementation(newImplementation) */\n      0x04\n      dup3\n      add\n        /* \"#utility.yul\":357:408   */\n      mstore\n        /* \"#utility.yul\":330:348   */\n      0x24\n      add\n        /* \"@openzeppelin/contracts/proxy/ERC1967/ERC1967Utils.sol\":2320:2367  ERC1967InvalidImplementation(newImplementation) */\n      tag_291\n        /* \"#utility.yul\":196:414   */\n      jump\n        /* \"@openzeppelin/contracts/proxy/ERC1967/ERC1967Utils.sol\":2259:2378  if (newImplementation.code.length == 0) {... */\n    tag_673:\n      0x00\n      dup1\n      mload\n      0x20\n      data_75b20eef8615de99c108b05f0dbda081c91897128caa336d75dffb97c4132b4d\n      dup4\n      codecopy\n      dup2\n      mload\n      swap2\n      mstore\n        /* \"@openzeppelin/contracts/proxy/ERC1967/ERC1967Utils.sol\":2387:2460  StorageSlot.getAddressSlot(IMPLEMENTATION_SLOT).value = newImplementation */\n      dup1\n      sload\n      not(sub(shl(0xa0, 0x01), 0x01))\n      and\n      sub(shl(0xa0, 0x01), 0x01)\n      swap3\n      swap1\n      swap3\n      and\n      swap2\n      swap1\n      swap2\n      or\n      swap1\n      sstore\n        /* \"@openzeppelin/contracts/proxy/ERC1967/ERC1967Utils.sol\":2186:2467  function _setImplementation(address newImplementation) private {... */\n      jump\t// out\n        /* \"@openzeppelin/contracts/utils/Address.sol\":4106:4359  function functionDelegateCall(address target, bytes memory data) internal returns (bytes memory) {... */\n    tag_664:\n        /* \"@openzeppelin/contracts/utils/Address.sol\":4189:4201  bytes memory */\n      0x60\n        /* \"@openzeppelin/contracts/utils/Address.sol\":4214:4226  bool success */\n      0x00\n        /* \"@openzeppelin/contracts/utils/Address.sol\":4228:4251  bytes memory returndata */\n      dup1\n        /* \"@openzeppelin/contracts/utils/Address.sol\":4255:4261  target */\n      dup5\n      sub(shl(0xa0, 0x01), 0x01)\n        /* \"@openzeppelin/contracts/utils/Address.sol\":4255:4274  target.delegatecall */\n      and\n        /* \"@openzeppelin/contracts/utils/Address.sol\":4275:4279  data */\n      dup5\n        /* \"@openzeppelin/contracts/utils/Address.sol\":4255:4280  target.delegatecall(data) */\n      mload(0x40)\n      tag_677\n      swap2\n      swap1\n      tag_678\n      jump\t// in\n    tag_677:\n      0x00\n      mload(0x40)\n      dup1\n      dup4\n      sub\n      dup2\n      dup6\n      gas\n      delegatecall\n      swap2\n      pop\n      pop\n      returndatasize\n      dup1\n      0x00\n      dup2\n      eq\n      tag_681\n      jumpi\n      mload(0x40)\n      swap2\n      pop\n      and(add(returndatasize, 0x3f), not(0x1f))\n      dup3\n      add\n      0x40\n      mstore\n      returndatasize\n      dup3\n      mstore\n      returndatasize\n      0x00\n      0x20\n      dup5\n      add\n      returndatacopy\n      jump(tag_680)\n    tag_681:\n      0x60\n      swap2\n      pop\n    tag_680:\n      pop\n        /* \"@openzeppelin/contracts/utils/Address.sol\":4213:4280  (bool success, bytes memory returndata) = target.delegatecall(data) */\n      swap2\n      pop\n      swap2\n      pop\n        /* \"@openzeppelin/contracts/utils/Address.sol\":4297:4352  verifyCallResultFromTarget(target, success, returndata) */\n      tag_682\n        /* \"@openzeppelin/contracts/utils/Address.sol\":4324:4330  target */\n      dup6\n        /* \"@openzeppelin/contracts/utils/Address.sol\":4332:4339  success */\n      dup4\n        /* \"@openzeppelin/contracts/utils/Address.sol\":4341:4351  returndata */\n      dup4\n        /* \"@openzeppelin/contracts/utils/Address.sol\":4297:4323  verifyCallResultFromTarget */\n      tag_683\n        /* \"@openzeppelin/contracts/utils/Address.sol\":4297:4352  verifyCallResultFromTarget(target, success, returndata) */\n      jump\t// in\n    tag_682:\n        /* \"@openzeppelin/contracts/utils/Address.sol\":4290:4352  return verifyCallResultFromTarget(target, success, returndata) */\n      swap6\n        /* \"@openzeppelin/contracts/utils/Address.sol\":4106:4359  function functionDelegateCall(address target, bytes memory data) internal returns (bytes memory) {... */\n      swap5\n      pop\n      pop\n      pop\n      pop\n      pop\n      jump\t// out\n        /* \"@openzeppelin/contracts/proxy/ERC1967/ERC1967Utils.sol\":6598:6720  function _checkNonPayable() private {... */\n    tag_667:\n        /* \"@openzeppelin/contracts/proxy/ERC1967/ERC1967Utils.sol\":6648:6657  msg.value */\n      callvalue\n        /* \"@openzeppelin/contracts/proxy/ERC1967/ERC1967Utils.sol\":6648:6661  msg.value > 0 */\n      iszero\n        /* \"@openzeppelin/contracts/proxy/ERC1967/ERC1967Utils.sol\":6644:6714  if (msg.value > 0) {... */\n      tag_408\n      jumpi\n        /* \"@openzeppelin/contracts/proxy/ERC1967/ERC1967Utils.sol\":6684:6703  ERC1967NonPayable() */\n      mload(0x40)\n      shl(0xe0, 0xb398979f)\n      dup2\n      mstore\n      0x04\n      add\n      mload(0x40)\n      dup1\n      swap2\n      sub\n      swap1\n      revert\n        /* \"@openzeppelin/contracts/utils/Address.sol\":4625:5207  function verifyCallResultFromTarget(... */\n    tag_683:\n        /* \"@openzeppelin/contracts/utils/Address.sol\":4769:4781  bytes memory */\n      0x60\n        /* \"@openzeppelin/contracts/utils/Address.sol\":4798:4805  success */\n      dup3\n        /* \"@openzeppelin/contracts/utils/Address.sol\":4793:5201  if (!success) {... */\n      tag_687\n      jumpi\n        /* \"@openzeppelin/contracts/utils/Address.sol\":4821:4840  _revert(returndata) */\n      tag_688\n        /* \"@openzeppelin/contracts/utils/Address.sol\":4829:4839  returndata */\n      dup3\n        /* \"@openzeppelin/contracts/utils/Address.sol\":4821:4828  _revert */\n      tag_689\n        /* \"@openzeppelin/contracts/utils/Address.sol\":4821:4840  _revert(returndata) */\n      jump\t// in\n    tag_688:\n        /* \"@openzeppelin/contracts/utils/Address.sol\":4793:5201  if (!success) {... */\n      jump(tag_690)\n    tag_687:\n        /* \"@openzeppelin/contracts/utils/Address.sol\":5045:5062  returndata.length */\n      dup2\n      mload\n        /* \"@openzeppelin/contracts/utils/Address.sol\":5045:5067  returndata.length == 0 */\n      iszero\n        /* \"@openzeppelin/contracts/utils/Address.sol\":5045:5094  returndata.length == 0 && target.code.length == 0 */\n      dup1\n      iszero\n      tag_691\n      jumpi\n      pop\n      sub(shl(0xa0, 0x01), 0x01)\n        /* \"@openzeppelin/contracts/utils/Address.sol\":5071:5089  target.code.length */\n      dup5\n      and\n      extcodesize\n        /* \"@openzeppelin/contracts/utils/Address.sol\":5071:5094  target.code.length == 0 */\n      iszero\n        /* \"@openzeppelin/contracts/utils/Address.sol\":5045:5094  returndata.length == 0 && target.code.length == 0 */\n    tag_691:\n        /* \"@openzeppelin/contracts/utils/Address.sol\":5041:5160  if (returndata.length == 0 && target.code.length == 0) {... */\n      iszero\n      tag_692\n      jumpi\n        /* \"@openzeppelin/contracts/utils/Address.sol\":5121:5145  AddressEmptyCode(target) */\n      mload(0x40)\n      shl(0xe0, 0x9996b315)\n      dup2\n      mstore\n      sub(shl(0xa0, 0x01), 0x01)\n        /* \"#utility.yul\":375:407   */\n      dup6\n      and\n        /* \"@openzeppelin/contracts/utils/Address.sol\":5121:5145  AddressEmptyCode(target) */\n      0x04\n      dup3\n      add\n        /* \"#utility.yul\":357:408   */\n      mstore\n        /* \"#utility.yul\":330:348   */\n      0x24\n      add\n        /* \"@openzeppelin/contracts/utils/Address.sol\":5121:5145  AddressEmptyCode(target) */\n      tag_291\n        /* \"#utility.yul\":196:414   */\n      jump\n        /* \"@openzeppelin/contracts/utils/Address.sol\":5041:5160  if (returndata.length == 0 && target.code.length == 0) {... */\n    tag_692:\n      pop\n        /* \"@openzeppelin/contracts/utils/Address.sol\":5180:5190  returndata */\n      dup1\n        /* \"@openzeppelin/contracts/utils/Address.sol\":4793:5201  if (!success) {... */\n    tag_690:\n        /* \"@openzeppelin/contracts/utils/Address.sol\":4625:5207  function verifyCallResultFromTarget(... */\n      swap4\n      swap3\n      pop\n      pop\n      pop\n      jump\t// out\n        /* \"@openzeppelin/contracts/utils/Address.sol\":5743:6259  function _revert(bytes memory returndata) private pure {... */\n    tag_689:\n        /* \"@openzeppelin/contracts/utils/Address.sol\":5874:5891  returndata.length */\n      dup1\n      mload\n        /* \"@openzeppelin/contracts/utils/Address.sol\":5874:5895  returndata.length > 0 */\n      iszero\n        /* \"@openzeppelin/contracts/utils/Address.sol\":5870:6253  if (returndata.length > 0) {... */\n      tag_695\n      jumpi\n        /* \"@openzeppelin/contracts/utils/Address.sol\":6102:6112  returndata */\n      dup1\n        /* \"@openzeppelin/contracts/utils/Address.sol\":6096:6113  mload(returndata) */\n      mload\n        /* \"@openzeppelin/contracts/utils/Address.sol\":6158:6173  returndata_size */\n      dup1\n        /* \"@openzeppelin/contracts/utils/Address.sol\":6145:6155  returndata */\n      dup3\n        /* \"@openzeppelin/contracts/utils/Address.sol\":6141:6143  32 */\n      0x20\n        /* \"@openzeppelin/contracts/utils/Address.sol\":6137:6156  add(32, returndata) */\n      add\n        /* \"@openzeppelin/contracts/utils/Address.sol\":6130:6174  revert(add(32, returndata), returndata_size) */\n      revert\n        /* \"@openzeppelin/contracts/utils/Address.sol\":5870:6253  if (returndata.length > 0) {... */\n    tag_695:\n        /* \"@openzeppelin/contracts/utils/Address.sol\":6225:6242  FailedInnerCall() */\n      mload(0x40)\n      shl(0xe1, 0x0a12f521)\n      dup2\n      mstore\n      0x04\n      add\n      mload(0x40)\n      dup1\n      swap2\n      sub\n      swap1\n      revert\n        /* \"#utility.yul\":419:592   */\n    tag_697:\n        /* \"#utility.yul\":487:507   */\n      dup1\n      calldataload\n      sub(shl(0xa0, 0x01), 0x01)\n        /* \"#utility.yul\":536:567   */\n      dup2\n      and\n        /* \"#utility.yul\":526:568   */\n      dup2\n      eq\n        /* \"#utility.yul\":516:586   */\n      tag_709\n      jumpi\n        /* \"#utility.yul\":582:583   */\n      0x00\n        /* \"#utility.yul\":579:580   */\n      dup1\n        /* \"#utility.yul\":572:584   */\n      revert\n        /* \"#utility.yul\":516:586   */\n    tag_709:\n        /* \"#utility.yul\":419:592   */\n      swap2\n      swap1\n      pop\n      jump\t// out\n        /* \"#utility.yul\":597:1081   */\n    tag_72:\n        /* \"#utility.yul\":692:698   */\n      0x00\n        /* \"#utility.yul\":700:706   */\n      dup1\n        /* \"#utility.yul\":708:714   */\n      0x00\n        /* \"#utility.yul\":716:722   */\n      dup1\n        /* \"#utility.yul\":724:730   */\n      0x00\n        /* \"#utility.yul\":777:780   */\n      0xa0\n        /* \"#utility.yul\":765:774   */\n      dup7\n        /* \"#utility.yul\":756:763   */\n      dup9\n        /* \"#utility.yul\":752:775   */\n      sub\n        /* \"#utility.yul\":748:781   */\n      slt\n        /* \"#utility.yul\":745:798   */\n      iszero\n      tag_711\n      jumpi\n        /* \"#utility.yul\":794:795   */\n      0x00\n        /* \"#utility.yul\":791:792   */\n      dup1\n        /* \"#utility.yul\":784:796   */\n      revert\n        /* \"#utility.yul\":745:798   */\n    tag_711:\n        /* \"#utility.yul\":817:846   */\n      tag_712\n        /* \"#utility.yul\":836:845   */\n      dup7\n        /* \"#utility.yul\":817:846   */\n      tag_697\n      jump\t// in\n    tag_712:\n        /* \"#utility.yul\":807:846   */\n      swap5\n      pop\n        /* \"#utility.yul\":865:903   */\n      tag_713\n        /* \"#utility.yul\":899:901   */\n      0x20\n        /* \"#utility.yul\":888:897   */\n      dup8\n        /* \"#utility.yul\":884:902   */\n      add\n        /* \"#utility.yul\":865:903   */\n      tag_697\n      jump\t// in\n    tag_713:\n        /* \"#utility.yul\":855:903   */\n      swap4\n      pop\n        /* \"#utility.yul\":922:960   */\n      tag_714\n        /* \"#utility.yul\":956:958   */\n      0x40\n        /* \"#utility.yul\":945:954   */\n      dup8\n        /* \"#utility.yul\":941:959   */\n      add\n        /* \"#utility.yul\":922:960   */\n      tag_697\n      jump\t// in\n    tag_714:\n        /* \"#utility.yul\":912:960   */\n      swap3\n      pop\n        /* \"#utility.yul\":979:1017   */\n      tag_715\n        /* \"#utility.yul\":1013:1015   */\n      0x60\n        /* \"#utility.yul\":1002:1011   */\n      dup8\n        /* \"#utility.yul\":998:1016   */\n      add\n        /* \"#utility.yul\":979:1017   */\n      tag_697\n      jump\t// in\n    tag_715:\n        /* \"#utility.yul\":969:1017   */\n      swap2\n      pop\n        /* \"#utility.yul\":1036:1075   */\n      tag_716\n        /* \"#utility.yul\":1070:1073   */\n      0x80\n        /* \"#utility.yul\":1059:1068   */\n      dup8\n        /* \"#utility.yul\":1055:1074   */\n      add\n        /* \"#utility.yul\":1036:1075   */\n      tag_697\n      jump\t// in\n    tag_716:\n        /* \"#utility.yul\":1026:1075   */\n      swap1\n      pop\n        /* \"#utility.yul\":597:1081   */\n      swap3\n      swap6\n      pop\n      swap3\n      swap6\n      swap1\n      swap4\n      pop\n      jump\t// out\n        /* \"#utility.yul\":1086:1312   */\n    tag_81:\n        /* \"#utility.yul\":1145:1151   */\n      0x00\n        /* \"#utility.yul\":1198:1200   */\n      0x20\n        /* \"#utility.yul\":1186:1195   */\n      dup3\n        /* \"#utility.yul\":1177:1184   */\n      dup5\n        /* \"#utility.yul\":1173:1196   */\n      sub\n        /* \"#utility.yul\":1169:1201   */\n      slt\n        /* \"#utility.yul\":1166:1218   */\n      iszero\n      tag_718\n      jumpi\n        /* \"#utility.yul\":1214:1215   */\n      0x00\n        /* \"#utility.yul\":1211:1212   */\n      dup1\n        /* \"#utility.yul\":1204:1216   */\n      revert\n        /* \"#utility.yul\":1166:1218   */\n    tag_718:\n      pop\n        /* \"#utility.yul\":1259:1282   */\n      calldataload\n      swap2\n        /* \"#utility.yul\":1086:1312   */\n      swap1\n      pop\n      jump\t// out\n        /* \"#utility.yul\":1525:1652   */\n    tag_698:\n        /* \"#utility.yul\":1586:1596   */\n      0x4e487b71\n        /* \"#utility.yul\":1581:1584   */\n      0xe0\n        /* \"#utility.yul\":1577:1597   */\n      shl\n        /* \"#utility.yul\":1574:1575   */\n      0x00\n        /* \"#utility.yul\":1567:1598   */\n      mstore\n        /* \"#utility.yul\":1617:1621   */\n      0x41\n        /* \"#utility.yul\":1614:1615   */\n      0x04\n        /* \"#utility.yul\":1607:1622   */\n      mstore\n        /* \"#utility.yul\":1641:1645   */\n      0x24\n        /* \"#utility.yul\":1638:1639   */\n      0x00\n        /* \"#utility.yul\":1631:1646   */\n      revert\n        /* \"#utility.yul\":1657:1932   */\n    tag_699:\n        /* \"#utility.yul\":1728:1730   */\n      0x40\n        /* \"#utility.yul\":1722:1731   */\n      mload\n        /* \"#utility.yul\":1793:1795   */\n      0x1f\n        /* \"#utility.yul\":1774:1787   */\n      dup3\n      add\n      not(0x1f)\n        /* \"#utility.yul\":1770:1797   */\n      and\n        /* \"#utility.yul\":1758:1798   */\n      dup2\n      add\n        /* \"#utility.yul\":1828:1846   */\n      0xffffffffffffffff\n        /* \"#utility.yul\":1813:1847   */\n      dup2\n      gt\n        /* \"#utility.yul\":1849:1871   */\n      dup3\n      dup3\n      lt\n        /* \"#utility.yul\":1810:1872   */\n      or\n        /* \"#utility.yul\":1807:1895   */\n      iszero\n      tag_723\n      jumpi\n        /* \"#utility.yul\":1875:1893   */\n      tag_723\n      tag_698\n      jump\t// in\n    tag_723:\n        /* \"#utility.yul\":1911:1913   */\n      0x40\n        /* \"#utility.yul\":1904:1926   */\n      mstore\n        /* \"#utility.yul\":1657:1932   */\n      swap2\n      swap1\n      pop\n      jump\t// out\n        /* \"#utility.yul\":1937:2120   */\n    tag_700:\n        /* \"#utility.yul\":1997:2001   */\n      0x00\n        /* \"#utility.yul\":2030:2048   */\n      0xffffffffffffffff\n        /* \"#utility.yul\":2022:2028   */\n      dup3\n        /* \"#utility.yul\":2019:2049   */\n      gt\n        /* \"#utility.yul\":2016:2072   */\n      iszero\n      tag_726\n      jumpi\n        /* \"#utility.yul\":2052:2070   */\n      tag_726\n      tag_698\n      jump\t// in\n    tag_726:\n      pop\n        /* \"#utility.yul\":2097:2098   */\n      0x05\n        /* \"#utility.yul\":2093:2107   */\n      shl\n        /* \"#utility.yul\":2109:2113   */\n      0x20\n        /* \"#utility.yul\":2089:2114   */\n      add\n      swap1\n        /* \"#utility.yul\":1937:2120   */\n      jump\t// out\n        /* \"#utility.yul\":2125:2800   */\n    tag_701:\n        /* \"#utility.yul\":2179:2184   */\n      0x00\n        /* \"#utility.yul\":2232:2235   */\n      dup3\n        /* \"#utility.yul\":2225:2229   */\n      0x1f\n        /* \"#utility.yul\":2217:2223   */\n      dup4\n        /* \"#utility.yul\":2213:2230   */\n      add\n        /* \"#utility.yul\":2209:2236   */\n      slt\n        /* \"#utility.yul\":2199:2254   */\n      tag_728\n      jumpi\n        /* \"#utility.yul\":2250:2251   */\n      0x00\n        /* \"#utility.yul\":2247:2248   */\n      dup1\n        /* \"#utility.yul\":2240:2252   */\n      revert\n        /* \"#utility.yul\":2199:2254   */\n    tag_728:\n        /* \"#utility.yul\":2290:2296   */\n      dup2\n        /* \"#utility.yul\":2277:2297   */\n      calldataload\n        /* \"#utility.yul\":2317:2381   */\n      tag_729\n        /* \"#utility.yul\":2333:2380   */\n      tag_730\n        /* \"#utility.yul\":2373:2379   */\n      dup3\n        /* \"#utility.yul\":2333:2380   */\n      tag_700\n      jump\t// in\n    tag_730:\n        /* \"#utility.yul\":2317:2381   */\n      tag_699\n      jump\t// in\n    tag_729:\n        /* \"#utility.yul\":2405:2408   */\n      dup1\n        /* \"#utility.yul\":2429:2435   */\n      dup3\n        /* \"#utility.yul\":2424:2427   */\n      dup3\n        /* \"#utility.yul\":2417:2436   */\n      mstore\n        /* \"#utility.yul\":2461:2465   */\n      0x20\n        /* \"#utility.yul\":2456:2459   */\n      dup3\n        /* \"#utility.yul\":2452:2466   */\n      add\n        /* \"#utility.yul\":2445:2466   */\n      swap2\n      pop\n        /* \"#utility.yul\":2522:2526   */\n      0x20\n        /* \"#utility.yul\":2512:2518   */\n      dup4\n        /* \"#utility.yul\":2509:2510   */\n      0x05\n        /* \"#utility.yul\":2505:2519   */\n      shl\n        /* \"#utility.yul\":2497:2503   */\n      dup7\n        /* \"#utility.yul\":2493:2520   */\n      add\n        /* \"#utility.yul\":2489:2527   */\n      add\n        /* \"#utility.yul\":2475:2527   */\n      swap3\n      pop\n        /* \"#utility.yul\":2550:2553   */\n      dup6\n        /* \"#utility.yul\":2542:2548   */\n      dup4\n        /* \"#utility.yul\":2539:2554   */\n      gt\n        /* \"#utility.yul\":2536:2571   */\n      iszero\n      tag_731\n      jumpi\n        /* \"#utility.yul\":2567:2568   */\n      0x00\n        /* \"#utility.yul\":2564:2565   */\n      dup1\n        /* \"#utility.yul\":2557:2569   */\n      revert\n        /* \"#utility.yul\":2536:2571   */\n    tag_731:\n        /* \"#utility.yul\":2603:2607   */\n      0x20\n        /* \"#utility.yul\":2595:2601   */\n      dup6\n        /* \"#utility.yul\":2591:2608   */\n      add\n        /* \"#utility.yul\":2617:2769   */\n    tag_732:\n        /* \"#utility.yul\":2633:2639   */\n      dup4\n        /* \"#utility.yul\":2628:2631   */\n      dup2\n        /* \"#utility.yul\":2625:2640   */\n      lt\n        /* \"#utility.yul\":2617:2769   */\n      iszero\n      tag_734\n      jumpi\n        /* \"#utility.yul\":2701:2724   */\n      tag_735\n        /* \"#utility.yul\":2720:2723   */\n      dup2\n        /* \"#utility.yul\":2701:2724   */\n      tag_697\n      jump\t// in\n    tag_735:\n        /* \"#utility.yul\":2689:2725   */\n      dup4\n      mstore\n        /* \"#utility.yul\":2754:2758   */\n      0x20\n        /* \"#utility.yul\":2745:2759   */\n      swap3\n      dup4\n      add\n      swap3\n        /* \"#utility.yul\":2650:2664   */\n      add\n        /* \"#utility.yul\":2617:2769   */\n      jump(tag_732)\n    tag_734:\n      pop\n        /* \"#utility.yul\":2787:2794   */\n      swap6\n        /* \"#utility.yul\":2125:2800   */\n      swap5\n      pop\n      pop\n      pop\n      pop\n      pop\n      jump\t// out\n        /* \"#utility.yul\":2805:3999   */\n    tag_99:\n        /* \"#utility.yul\":2923:2929   */\n      0x00\n        /* \"#utility.yul\":2931:2937   */\n      dup1\n        /* \"#utility.yul\":2984:2986   */\n      0x40\n        /* \"#utility.yul\":2972:2981   */\n      dup4\n        /* \"#utility.yul\":2963:2970   */\n      dup6\n        /* \"#utility.yul\":2959:2982   */\n      sub\n        /* \"#utility.yul\":2955:2987   */\n      slt\n        /* \"#utility.yul\":2952:3004   */\n      iszero\n      tag_737\n      jumpi\n        /* \"#utility.yul\":3000:3001   */\n      0x00\n        /* \"#utility.yul\":2997:2998   */\n      dup1\n        /* \"#utility.yul\":2990:3002   */\n      revert\n        /* \"#utility.yul\":2952:3004   */\n    tag_737:\n        /* \"#utility.yul\":3040:3049   */\n      dup3\n        /* \"#utility.yul\":3027:3050   */\n      calldataload\n        /* \"#utility.yul\":3073:3091   */\n      0xffffffffffffffff\n        /* \"#utility.yul\":3065:3071   */\n      dup2\n        /* \"#utility.yul\":3062:3092   */\n      gt\n        /* \"#utility.yul\":3059:3109   */\n      iszero\n      tag_738\n      jumpi\n        /* \"#utility.yul\":3105:3106   */\n      0x00\n        /* \"#utility.yul\":3102:3103   */\n      dup1\n        /* \"#utility.yul\":3095:3107   */\n      revert\n        /* \"#utility.yul\":3059:3109   */\n    tag_738:\n        /* \"#utility.yul\":3128:3150   */\n      dup4\n      add\n        /* \"#utility.yul\":3181:3185   */\n      0x1f\n        /* \"#utility.yul\":3173:3186   */\n      dup2\n      add\n        /* \"#utility.yul\":3169:3196   */\n      dup6\n      sgt\n        /* \"#utility.yul\":3159:3214   */\n      tag_739\n      jumpi\n        /* \"#utility.yul\":3210:3211   */\n      0x00\n        /* \"#utility.yul\":3207:3208   */\n      dup1\n        /* \"#utility.yul\":3200:3212   */\n      revert\n        /* \"#utility.yul\":3159:3214   */\n    tag_739:\n        /* \"#utility.yul\":3250:3252   */\n      dup1\n        /* \"#utility.yul\":3237:3253   */\n      calldataload\n        /* \"#utility.yul\":3273:3337   */\n      tag_740\n        /* \"#utility.yul\":3289:3336   */\n      tag_730\n        /* \"#utility.yul\":3329:3335   */\n      dup3\n        /* \"#utility.yul\":3289:3336   */\n      tag_700\n      jump\t// in\n        /* \"#utility.yul\":3273:3337   */\n    tag_740:\n        /* \"#utility.yul\":3359:3362   */\n      dup1\n        /* \"#utility.yul\":3383:3389   */\n      dup3\n        /* \"#utility.yul\":3378:3381   */\n      dup3\n        /* \"#utility.yul\":3371:3390   */\n      mstore\n        /* \"#utility.yul\":3415:3419   */\n      0x20\n        /* \"#utility.yul\":3410:3413   */\n      dup3\n        /* \"#utility.yul\":3406:3420   */\n      add\n        /* \"#utility.yul\":3399:3420   */\n      swap2\n      pop\n        /* \"#utility.yul\":3472:3476   */\n      0x20\n        /* \"#utility.yul\":3462:3468   */\n      dup4\n        /* \"#utility.yul\":3459:3460   */\n      0x05\n        /* \"#utility.yul\":3455:3469   */\n      shl\n        /* \"#utility.yul\":3451:3453   */\n      dup6\n        /* \"#utility.yul\":3447:3470   */\n      add\n        /* \"#utility.yul\":3443:3477   */\n      add\n        /* \"#utility.yul\":3429:3477   */\n      swap3\n      pop\n        /* \"#utility.yul\":3500:3507   */\n      dup8\n        /* \"#utility.yul\":3492:3498   */\n      dup4\n        /* \"#utility.yul\":3489:3508   */\n      gt\n        /* \"#utility.yul\":3486:3525   */\n      iszero\n      tag_742\n      jumpi\n        /* \"#utility.yul\":3521:3522   */\n      0x00\n        /* \"#utility.yul\":3518:3519   */\n      dup1\n        /* \"#utility.yul\":3511:3523   */\n      revert\n        /* \"#utility.yul\":3486:3525   */\n    tag_742:\n        /* \"#utility.yul\":3553:3557   */\n      0x20\n        /* \"#utility.yul\":3549:3551   */\n      dup5\n        /* \"#utility.yul\":3545:3558   */\n      add\n        /* \"#utility.yul\":3534:3558   */\n      swap4\n      pop\n        /* \"#utility.yul\":3567:3767   */\n    tag_743:\n        /* \"#utility.yul\":3583:3589   */\n      dup3\n        /* \"#utility.yul\":3578:3581   */\n      dup5\n        /* \"#utility.yul\":3575:3590   */\n      lt\n        /* \"#utility.yul\":3567:3767   */\n      iszero\n      tag_745\n      jumpi\n        /* \"#utility.yul\":3675:3692   */\n      dup4\n      calldataload\n        /* \"#utility.yul\":3705:3723   */\n      dup3\n      mstore\n        /* \"#utility.yul\":3752:3756   */\n      0x20\n        /* \"#utility.yul\":3600:3614   */\n      swap4\n      dup5\n      add\n      swap4\n        /* \"#utility.yul\":3743:3757   */\n      swap1\n      swap2\n      add\n      swap1\n        /* \"#utility.yul\":3567:3767   */\n      jump(tag_743)\n    tag_745:\n        /* \"#utility.yul\":3786:3791   */\n      swap5\n      pop\n      pop\n      pop\n      pop\n        /* \"#utility.yul\":3844:3848   */\n      0x20\n        /* \"#utility.yul\":3829:3849   */\n      dup4\n      add\n        /* \"#utility.yul\":3816:3850   */\n      calldataload\n        /* \"#utility.yul\":3875:3893   */\n      0xffffffffffffffff\n        /* \"#utility.yul\":3862:3894   */\n      dup2\n      gt\n        /* \"#utility.yul\":3859:3911   */\n      iszero\n      tag_746\n      jumpi\n        /* \"#utility.yul\":3907:3908   */\n      0x00\n        /* \"#utility.yul\":3904:3905   */\n      dup1\n        /* \"#utility.yul\":3897:3909   */\n      revert\n        /* \"#utility.yul\":3859:3911   */\n    tag_746:\n        /* \"#utility.yul\":3930:3993   */\n      tag_747\n        /* \"#utility.yul\":3985:3992   */\n      dup6\n        /* \"#utility.yul\":3974:3982   */\n      dup3\n        /* \"#utility.yul\":3963:3972   */\n      dup7\n        /* \"#utility.yul\":3959:3983   */\n      add\n        /* \"#utility.yul\":3930:3993   */\n      tag_701\n      jump\t// in\n    tag_747:\n        /* \"#utility.yul\":3920:3993   */\n      swap2\n      pop\n      pop\n        /* \"#utility.yul\":2805:3999   */\n      swap3\n      pop\n      swap3\n      swap1\n      pop\n      jump\t// out\n        /* \"#utility.yul\":4004:4590   */\n    tag_120:\n        /* \"#utility.yul\":4074:4080   */\n      0x00\n        /* \"#utility.yul\":4082:4088   */\n      dup1\n        /* \"#utility.yul\":4135:4137   */\n      0x20\n        /* \"#utility.yul\":4123:4132   */\n      dup4\n        /* \"#utility.yul\":4114:4121   */\n      dup6\n        /* \"#utility.yul\":4110:4133   */\n      sub\n        /* \"#utility.yul\":4106:4138   */\n      slt\n        /* \"#utility.yul\":4103:4155   */\n      iszero\n      tag_749\n      jumpi\n        /* \"#utility.yul\":4151:4152   */\n      0x00\n        /* \"#utility.yul\":4148:4149   */\n      dup1\n        /* \"#utility.yul\":4141:4153   */\n      revert\n        /* \"#utility.yul\":4103:4155   */\n    tag_749:\n        /* \"#utility.yul\":4191:4200   */\n      dup3\n        /* \"#utility.yul\":4178:4201   */\n      calldataload\n        /* \"#utility.yul\":4224:4242   */\n      0xffffffffffffffff\n        /* \"#utility.yul\":4216:4222   */\n      dup2\n        /* \"#utility.yul\":4213:4243   */\n      gt\n        /* \"#utility.yul\":4210:4260   */\n      iszero\n      tag_750\n      jumpi\n        /* \"#utility.yul\":4256:4257   */\n      0x00\n        /* \"#utility.yul\":4253:4254   */\n      dup1\n        /* \"#utility.yul\":4246:4258   */\n      revert\n        /* \"#utility.yul\":4210:4260   */\n    tag_750:\n        /* \"#utility.yul\":4279:4301   */\n      dup4\n      add\n        /* \"#utility.yul\":4332:4336   */\n      0x1f\n        /* \"#utility.yul\":4324:4337   */\n      dup2\n      add\n        /* \"#utility.yul\":4320:4347   */\n      dup6\n      sgt\n        /* \"#utility.yul\":4310:4365   */\n      tag_751\n      jumpi\n        /* \"#utility.yul\":4361:4362   */\n      0x00\n        /* \"#utility.yul\":4358:4359   */\n      dup1\n        /* \"#utility.yul\":4351:4363   */\n      revert\n        /* \"#utility.yul\":4310:4365   */\n    tag_751:\n        /* \"#utility.yul\":4401:4403   */\n      dup1\n        /* \"#utility.yul\":4388:4404   */\n      calldataload\n        /* \"#utility.yul\":4427:4445   */\n      0xffffffffffffffff\n        /* \"#utility.yul\":4419:4425   */\n      dup2\n        /* \"#utility.yul\":4416:4446   */\n      gt\n        /* \"#utility.yul\":4413:4463   */\n      iszero\n      tag_752\n      jumpi\n        /* \"#utility.yul\":4459:4460   */\n      0x00\n        /* \"#utility.yul\":4456:4457   */\n      dup1\n        /* \"#utility.yul\":4449:4461   */\n      revert\n        /* \"#utility.yul\":4413:4463   */\n    tag_752:\n        /* \"#utility.yul\":4504:4511   */\n      dup6\n        /* \"#utility.yul\":4499:4501   */\n      0x20\n        /* \"#utility.yul\":4490:4496   */\n      dup3\n        /* \"#utility.yul\":4486:4488   */\n      dup5\n        /* \"#utility.yul\":4482:4497   */\n      add\n        /* \"#utility.yul\":4478:4502   */\n      add\n        /* \"#utility.yul\":4475:4512   */\n      gt\n        /* \"#utility.yul\":4472:4529   */\n      iszero\n      tag_753\n      jumpi\n        /* \"#utility.yul\":4525:4526   */\n      0x00\n        /* \"#utility.yul\":4522:4523   */\n      dup1\n        /* \"#utility.yul\":4515:4527   */\n      revert\n        /* \"#utility.yul\":4472:4529   */\n    tag_753:\n        /* \"#utility.yul\":4556:4558   */\n      0x20\n        /* \"#utility.yul\":4548:4559   */\n      swap2\n      swap1\n      swap2\n      add\n      swap6\n        /* \"#utility.yul\":4578:4584   */\n      swap1\n      swap5\n      pop\n        /* \"#utility.yul\":4004:4590   */\n      swap3\n      pop\n      pop\n      pop\n      jump\t// out\n        /* \"#utility.yul\":4595:5434   */\n    tag_124:\n        /* \"#utility.yul\":4672:4678   */\n      0x00\n        /* \"#utility.yul\":4680:4686   */\n      dup1\n        /* \"#utility.yul\":4733:4735   */\n      0x40\n        /* \"#utility.yul\":4721:4730   */\n      dup4\n        /* \"#utility.yul\":4712:4719   */\n      dup6\n        /* \"#utility.yul\":4708:4731   */\n      sub\n        /* \"#utility.yul\":4704:4736   */\n      slt\n        /* \"#utility.yul\":4701:4753   */\n      iszero\n      tag_755\n      jumpi\n        /* \"#utility.yul\":4749:4750   */\n      0x00\n        /* \"#utility.yul\":4746:4747   */\n      dup1\n        /* \"#utility.yul\":4739:4751   */\n      revert\n        /* \"#utility.yul\":4701:4753   */\n    tag_755:\n        /* \"#utility.yul\":4772:4801   */\n      tag_756\n        /* \"#utility.yul\":4791:4800   */\n      dup4\n        /* \"#utility.yul\":4772:4801   */\n      tag_697\n      jump\t// in\n    tag_756:\n        /* \"#utility.yul\":4762:4801   */\n      swap2\n      pop\n        /* \"#utility.yul\":4852:4854   */\n      0x20\n        /* \"#utility.yul\":4841:4850   */\n      dup4\n        /* \"#utility.yul\":4837:4855   */\n      add\n        /* \"#utility.yul\":4824:4856   */\n      calldataload\n        /* \"#utility.yul\":4879:4897   */\n      0xffffffffffffffff\n        /* \"#utility.yul\":4871:4877   */\n      dup2\n        /* \"#utility.yul\":4868:4898   */\n      gt\n        /* \"#utility.yul\":4865:4915   */\n      iszero\n      tag_757\n      jumpi\n        /* \"#utility.yul\":4911:4912   */\n      0x00\n        /* \"#utility.yul\":4908:4909   */\n      dup1\n        /* \"#utility.yul\":4901:4913   */\n      revert\n        /* \"#utility.yul\":4865:4915   */\n    tag_757:\n        /* \"#utility.yul\":4934:4956   */\n      dup4\n      add\n        /* \"#utility.yul\":4987:4991   */\n      0x1f\n        /* \"#utility.yul\":4979:4992   */\n      dup2\n      add\n        /* \"#utility.yul\":4975:5002   */\n      dup6\n      sgt\n        /* \"#utility.yul\":4965:5020   */\n      tag_758\n      jumpi\n        /* \"#utility.yul\":5016:5017   */\n      0x00\n        /* \"#utility.yul\":5013:5014   */\n      dup1\n        /* \"#utility.yul\":5006:5018   */\n      revert\n        /* \"#utility.yul\":4965:5020   */\n    tag_758:\n        /* \"#utility.yul\":5056:5058   */\n      dup1\n        /* \"#utility.yul\":5043:5059   */\n      calldataload\n        /* \"#utility.yul\":5082:5100   */\n      0xffffffffffffffff\n        /* \"#utility.yul\":5074:5080   */\n      dup2\n        /* \"#utility.yul\":5071:5101   */\n      gt\n        /* \"#utility.yul\":5068:5124   */\n      iszero\n      tag_760\n      jumpi\n        /* \"#utility.yul\":5104:5122   */\n      tag_760\n      tag_698\n      jump\t// in\n    tag_760:\n        /* \"#utility.yul\":5146:5203   */\n      tag_761\n        /* \"#utility.yul\":5193:5195   */\n      0x1f\n        /* \"#utility.yul\":5170:5187   */\n      dup3\n      add\n      not(0x1f)\n        /* \"#utility.yul\":5166:5197   */\n      and\n        /* \"#utility.yul\":5199:5201   */\n      0x20\n        /* \"#utility.yul\":5162:5202   */\n      add\n        /* \"#utility.yul\":5146:5203   */\n      tag_699\n      jump\t// in\n    tag_761:\n        /* \"#utility.yul\":5226:5232   */\n      dup2\n        /* \"#utility.yul\":5219:5224   */\n      dup2\n        /* \"#utility.yul\":5212:5233   */\n      mstore\n        /* \"#utility.yul\":5274:5281   */\n      dup7\n        /* \"#utility.yul\":5269:5271   */\n      0x20\n        /* \"#utility.yul\":5260:5266   */\n      dup4\n        /* \"#utility.yul\":5256:5258   */\n      dup6\n        /* \"#utility.yul\":5252:5267   */\n      add\n        /* \"#utility.yul\":5248:5272   */\n      add\n        /* \"#utility.yul\":5245:5282   */\n      gt\n        /* \"#utility.yul\":5242:5299   */\n      iszero\n      tag_762\n      jumpi\n        /* \"#utility.yul\":5295:5296   */\n      0x00\n        /* \"#utility.yul\":5292:5293   */\n      dup1\n        /* \"#utility.yul\":5285:5297   */\n      revert\n        /* \"#utility.yul\":5242:5299   */\n    tag_762:\n        /* \"#utility.yul\":5350:5356   */\n      dup2\n        /* \"#utility.yul\":5345:5347   */\n      0x20\n        /* \"#utility.yul\":5341:5343   */\n      dup5\n        /* \"#utility.yul\":5337:5348   */\n      add\n        /* \"#utility.yul\":5332:5334   */\n      0x20\n        /* \"#utility.yul\":5325:5330   */\n      dup4\n        /* \"#utility.yul\":5321:5335   */\n      add\n        /* \"#utility.yul\":5308:5357   */\n      calldatacopy\n        /* \"#utility.yul\":5402:5403   */\n      0x00\n        /* \"#utility.yul\":5397:5399   */\n      0x20\n        /* \"#utility.yul\":5388:5394   */\n      dup4\n        /* \"#utility.yul\":5381:5386   */\n      dup4\n        /* \"#utility.yul\":5377:5395   */\n      add\n        /* \"#utility.yul\":5373:5400   */\n      add\n        /* \"#utility.yul\":5366:5404   */\n      mstore\n        /* \"#utility.yul\":5423:5428   */\n      dup1\n        /* \"#utility.yul\":5413:5428   */\n      swap4\n      pop\n      pop\n      pop\n      pop\n        /* \"#utility.yul\":4595:5434   */\n      swap3\n      pop\n      swap3\n      swap1\n      pop\n      jump\t// out\n        /* \"#utility.yul\":5621:5967   */\n    tag_146:\n        /* \"#utility.yul\":5689:5695   */\n      0x00\n        /* \"#utility.yul\":5697:5703   */\n      dup1\n        /* \"#utility.yul\":5750:5752   */\n      0x40\n        /* \"#utility.yul\":5738:5747   */\n      dup4\n        /* \"#utility.yul\":5729:5736   */\n      dup6\n        /* \"#utility.yul\":5725:5748   */\n      sub\n        /* \"#utility.yul\":5721:5753   */\n      slt\n        /* \"#utility.yul\":5718:5770   */\n      iszero\n      tag_765\n      jumpi\n        /* \"#utility.yul\":5766:5767   */\n      0x00\n        /* \"#utility.yul\":5763:5764   */\n      dup1\n        /* \"#utility.yul\":5756:5768   */\n      revert\n        /* \"#utility.yul\":5718:5770   */\n    tag_765:\n      pop\n      pop\n        /* \"#utility.yul\":5811:5834   */\n      dup1\n      calldataload\n      swap3\n        /* \"#utility.yul\":5931:5933   */\n      0x20\n        /* \"#utility.yul\":5916:5934   */\n      swap1\n      swap2\n      add\n        /* \"#utility.yul\":5903:5935   */\n      calldataload\n      swap2\n      pop\n        /* \"#utility.yul\":5621:5967   */\n      jump\t// out\n        /* \"#utility.yul\":5972:6260   */\n    tag_702:\n        /* \"#utility.yul\":6013:6016   */\n      0x00\n        /* \"#utility.yul\":6051:6056   */\n      dup2\n        /* \"#utility.yul\":6045:6057   */\n      mload\n        /* \"#utility.yul\":6078:6084   */\n      dup1\n        /* \"#utility.yul\":6073:6076   */\n      dup5\n        /* \"#utility.yul\":6066:6085   */\n      mstore\n        /* \"#utility.yul\":6134:6140   */\n      dup1\n        /* \"#utility.yul\":6127:6131   */\n      0x20\n        /* \"#utility.yul\":6120:6125   */\n      dup5\n        /* \"#utility.yul\":6116:6132   */\n      add\n        /* \"#utility.yul\":6109:6113   */\n      0x20\n        /* \"#utility.yul\":6104:6107   */\n      dup7\n        /* \"#utility.yul\":6100:6114   */\n      add\n        /* \"#utility.yul\":6094:6141   */\n      mcopy\n        /* \"#utility.yul\":6186:6187   */\n      0x00\n        /* \"#utility.yul\":6179:6183   */\n      0x20\n        /* \"#utility.yul\":6170:6176   */\n      dup3\n        /* \"#utility.yul\":6165:6168   */\n      dup7\n        /* \"#utility.yul\":6161:6177   */\n      add\n        /* \"#utility.yul\":6157:6184   */\n      add\n        /* \"#utility.yul\":6150:6188   */\n      mstore\n        /* \"#utility.yul\":6249:6253   */\n      0x20\n        /* \"#utility.yul\":6242:6244   */\n      0x1f\n        /* \"#utility.yul\":6238:6245   */\n      not\n        /* \"#utility.yul\":6233:6235   */\n      0x1f\n        /* \"#utility.yul\":6225:6231   */\n      dup4\n        /* \"#utility.yul\":6221:6236   */\n      add\n        /* \"#utility.yul\":6217:6246   */\n      and\n        /* \"#utility.yul\":6212:6215   */\n      dup6\n        /* \"#utility.yul\":6208:6247   */\n      add\n        /* \"#utility.yul\":6204:6254   */\n      add\n        /* \"#utility.yul\":6197:6254   */\n      swap2\n      pop\n      pop\n        /* \"#utility.yul\":5972:6260   */\n      swap3\n      swap2\n      pop\n      pop\n      jump\t// out\n        /* \"#utility.yul\":6265:6563   */\n    tag_160:\n        /* \"#utility.yul\":6448:6454   */\n      dup3\n        /* \"#utility.yul\":6441:6455   */\n      iszero\n        /* \"#utility.yul\":6434:6456   */\n      iszero\n        /* \"#utility.yul\":6423:6432   */\n      dup2\n        /* \"#utility.yul\":6416:6457   */\n      mstore\n        /* \"#utility.yul\":6493:6495   */\n      0x40\n        /* \"#utility.yul\":6488:6490   */\n      0x20\n        /* \"#utility.yul\":6477:6486   */\n      dup3\n        /* \"#utility.yul\":6473:6491   */\n      add\n        /* \"#utility.yul\":6466:6496   */\n      mstore\n        /* \"#utility.yul\":6397:6401   */\n      0x00\n        /* \"#utility.yul\":6513:6557   */\n      tag_768\n        /* \"#utility.yul\":6553:6555   */\n      0x40\n        /* \"#utility.yul\":6542:6551   */\n      dup4\n        /* \"#utility.yul\":6538:6556   */\n      add\n        /* \"#utility.yul\":6530:6536   */\n      dup5\n        /* \"#utility.yul\":6513:6557   */\n      tag_702\n      jump\t// in\n    tag_768:\n        /* \"#utility.yul\":6505:6557   */\n      swap5\n        /* \"#utility.yul\":6265:6563   */\n      swap4\n      pop\n      pop\n      pop\n      pop\n      jump\t// out\n        /* \"#utility.yul\":6568:6787   */\n    tag_213:\n        /* \"#utility.yul\":6717:6719   */\n      0x20\n        /* \"#utility.yul\":6706:6715   */\n      dup2\n        /* \"#utility.yul\":6699:6720   */\n      mstore\n        /* \"#utility.yul\":6680:6684   */\n      0x00\n        /* \"#utility.yul\":6737:6781   */\n      tag_690\n        /* \"#utility.yul\":6777:6779   */\n      0x20\n        /* \"#utility.yul\":6766:6775   */\n      dup4\n        /* \"#utility.yul\":6762:6780   */\n      add\n        /* \"#utility.yul\":6754:6760   */\n      dup5\n        /* \"#utility.yul\":6737:6781   */\n      tag_702\n      jump\t// in\n        /* \"#utility.yul\":6792:6978   */\n    tag_229:\n        /* \"#utility.yul\":6851:6857   */\n      0x00\n        /* \"#utility.yul\":6904:6906   */\n      0x20\n        /* \"#utility.yul\":6892:6901   */\n      dup3\n        /* \"#utility.yul\":6883:6890   */\n      dup5\n        /* \"#utility.yul\":6879:6902   */\n      sub\n        /* \"#utility.yul\":6875:6907   */\n      slt\n        /* \"#utility.yul\":6872:6924   */\n      iszero\n      tag_772\n      jumpi\n        /* \"#utility.yul\":6920:6921   */\n      0x00\n        /* \"#utility.yul\":6917:6918   */\n      dup1\n        /* \"#utility.yul\":6910:6922   */\n      revert\n        /* \"#utility.yul\":6872:6924   */\n    tag_772:\n        /* \"#utility.yul\":6943:6972   */\n      tag_690\n        /* \"#utility.yul\":6962:6971   */\n      dup3\n        /* \"#utility.yul\":6943:6972   */\n      tag_697\n      jump\t// in\n        /* \"#utility.yul\":7725:7843   */\n    tag_703:\n        /* \"#utility.yul\":7811:7816   */\n      dup1\n        /* \"#utility.yul\":7804:7817   */\n      iszero\n        /* \"#utility.yul\":7797:7818   */\n      iszero\n        /* \"#utility.yul\":7790:7795   */\n      dup2\n        /* \"#utility.yul\":7787:7819   */\n      eq\n        /* \"#utility.yul\":7777:7837   */\n      tag_570\n      jumpi\n        /* \"#utility.yul\":7833:7834   */\n      0x00\n        /* \"#utility.yul\":7830:7831   */\n      dup1\n        /* \"#utility.yul\":7823:7835   */\n      revert\n        /* \"#utility.yul\":7848:8163   */\n    tag_250:\n        /* \"#utility.yul\":7913:7919   */\n      0x00\n        /* \"#utility.yul\":7921:7927   */\n      dup1\n        /* \"#utility.yul\":7974:7976   */\n      0x40\n        /* \"#utility.yul\":7962:7971   */\n      dup4\n        /* \"#utility.yul\":7953:7960   */\n      dup6\n        /* \"#utility.yul\":7949:7972   */\n      sub\n        /* \"#utility.yul\":7945:7977   */\n      slt\n        /* \"#utility.yul\":7942:7994   */\n      iszero\n      tag_779\n      jumpi\n        /* \"#utility.yul\":7990:7991   */\n      0x00\n        /* \"#utility.yul\":7987:7988   */\n      dup1\n        /* \"#utility.yul\":7980:7992   */\n      revert\n        /* \"#utility.yul\":7942:7994   */\n    tag_779:\n        /* \"#utility.yul\":8013:8042   */\n      tag_780\n        /* \"#utility.yul\":8032:8041   */\n      dup4\n        /* \"#utility.yul\":8013:8042   */\n      tag_697\n      jump\t// in\n    tag_780:\n        /* \"#utility.yul\":8003:8042   */\n      swap2\n      pop\n        /* \"#utility.yul\":8092:8094   */\n      0x20\n        /* \"#utility.yul\":8081:8090   */\n      dup4\n        /* \"#utility.yul\":8077:8095   */\n      add\n        /* \"#utility.yul\":8064:8096   */\n      calldataload\n        /* \"#utility.yul\":8105:8133   */\n      tag_781\n        /* \"#utility.yul\":8127:8132   */\n      dup2\n        /* \"#utility.yul\":8105:8133   */\n      tag_703\n      jump\t// in\n    tag_781:\n        /* \"#utility.yul\":8152:8157   */\n      dup1\n        /* \"#utility.yul\":8142:8157   */\n      swap2\n      pop\n      pop\n        /* \"#utility.yul\":7848:8163   */\n      swap3\n      pop\n      swap3\n      swap1\n      pop\n      jump\t// out\n        /* \"#utility.yul\":8382:8509   */\n    tag_704:\n        /* \"#utility.yul\":8443:8453   */\n      0x4e487b71\n        /* \"#utility.yul\":8438:8441   */\n      0xe0\n        /* \"#utility.yul\":8434:8454   */\n      shl\n        /* \"#utility.yul\":8431:8432   */\n      0x00\n        /* \"#utility.yul\":8424:8455   */\n      mstore\n        /* \"#utility.yul\":8474:8478   */\n      0x11\n        /* \"#utility.yul\":8471:8472   */\n      0x04\n        /* \"#utility.yul\":8464:8479   */\n      mstore\n        /* \"#utility.yul\":8498:8502   */\n      0x24\n        /* \"#utility.yul\":8495:8496   */\n      0x00\n        /* \"#utility.yul\":8488:8503   */\n      revert\n        /* \"#utility.yul\":8514:8649   */\n    tag_296:\n        /* \"#utility.yul\":8553:8556   */\n      0x00\n        /* \"#utility.yul\":8574:8591   */\n      0x01\n      dup3\n      add\n        /* \"#utility.yul\":8571:8614   */\n      tag_786\n      jumpi\n        /* \"#utility.yul\":8594:8612   */\n      tag_786\n      tag_704\n      jump\t// in\n    tag_786:\n      pop\n        /* \"#utility.yul\":8641:8642   */\n      0x01\n        /* \"#utility.yul\":8630:8643   */\n      add\n      swap1\n        /* \"#utility.yul\":8514:8649   */\n      jump\t// out\n        /* \"#utility.yul\":8654:8782   */\n    tag_298:\n        /* \"#utility.yul\":8721:8730   */\n      dup2\n      dup2\n      sub\n        /* \"#utility.yul\":8742:8753   */\n      dup2\n      dup2\n      gt\n        /* \"#utility.yul\":8739:8776   */\n      iszero\n      tag_639\n      jumpi\n        /* \"#utility.yul\":8756:8774   */\n      tag_639\n      tag_704\n      jump\t// in\n        /* \"#utility.yul\":9111:9238   */\n    tag_316:\n        /* \"#utility.yul\":9172:9182   */\n      0x4e487b71\n        /* \"#utility.yul\":9167:9170   */\n      0xe0\n        /* \"#utility.yul\":9163:9183   */\n      shl\n        /* \"#utility.yul\":9160:9161   */\n      0x00\n        /* \"#utility.yul\":9153:9184   */\n      mstore\n        /* \"#utility.yul\":9203:9207   */\n      0x32\n        /* \"#utility.yul\":9200:9201   */\n      0x04\n        /* \"#utility.yul\":9193:9208   */\n      mstore\n        /* \"#utility.yul\":9227:9231   */\n      0x24\n        /* \"#utility.yul\":9224:9225   */\n      0x00\n        /* \"#utility.yul\":9217:9232   */\n      revert\n        /* \"#utility.yul\":9243:9368   */\n    tag_320:\n        /* \"#utility.yul\":9308:9317   */\n      dup1\n      dup3\n      add\n        /* \"#utility.yul\":9329:9339   */\n      dup1\n      dup3\n      gt\n        /* \"#utility.yul\":9326:9362   */\n      iszero\n      tag_639\n      jumpi\n        /* \"#utility.yul\":9342:9360   */\n      tag_639\n      tag_704\n      jump\t// in\n        /* \"#utility.yul\":10151:10522   */\n    tag_354:\n      sub(shl(0xa0, 0x01), 0x01)\n        /* \"#utility.yul\":10371:10403   */\n      swap4\n      dup5\n      and\n        /* \"#utility.yul\":10353:10404   */\n      dup2\n      mstore\n        /* \"#utility.yul\":10440:10472   */\n      swap2\n      swap1\n      swap3\n      and\n        /* \"#utility.yul\":10435:10437   */\n      0x20\n        /* \"#utility.yul\":10420:10438   */\n      dup3\n      add\n        /* \"#utility.yul\":10413:10473   */\n      mstore\n        /* \"#utility.yul\":10504:10506   */\n      0x40\n        /* \"#utility.yul\":10489:10507   */\n      dup2\n      add\n        /* \"#utility.yul\":10482:10516   */\n      swap2\n      swap1\n      swap2\n      mstore\n        /* \"#utility.yul\":10341:10343   */\n      0x60\n        /* \"#utility.yul\":10326:10344   */\n      add\n      swap1\n        /* \"#utility.yul\":10151:10522   */\n      jump\t// out\n        /* \"#utility.yul\":10527:10772   */\n    tag_358:\n        /* \"#utility.yul\":10594:10600   */\n      0x00\n        /* \"#utility.yul\":10647:10649   */\n      0x20\n        /* \"#utility.yul\":10635:10644   */\n      dup3\n        /* \"#utility.yul\":10626:10633   */\n      dup5\n        /* \"#utility.yul\":10622:10645   */\n      sub\n        /* \"#utility.yul\":10618:10650   */\n      slt\n        /* \"#utility.yul\":10615:10667   */\n      iszero\n      tag_799\n      jumpi\n        /* \"#utility.yul\":10663:10664   */\n      0x00\n        /* \"#utility.yul\":10660:10661   */\n      dup1\n        /* \"#utility.yul\":10653:10665   */\n      revert\n        /* \"#utility.yul\":10615:10667   */\n    tag_799:\n        /* \"#utility.yul\":10695:10704   */\n      dup2\n        /* \"#utility.yul\":10689:10705   */\n      mload\n        /* \"#utility.yul\":10714:10742   */\n      tag_690\n        /* \"#utility.yul\":10736:10741   */\n      dup2\n        /* \"#utility.yul\":10714:10742   */\n      tag_703\n      jump\t// in\n        /* \"#utility.yul\":12360:12528   */\n    tag_541:\n        /* \"#utility.yul\":12433:12442   */\n      dup1\n      dup3\n      mul\n        /* \"#utility.yul\":12464:12473   */\n      dup2\n      iszero\n        /* \"#utility.yul\":12481:12496   */\n      dup3\n      dup3\n      div\n        /* \"#utility.yul\":12475:12497   */\n      dup5\n      eq\n        /* \"#utility.yul\":12461:12498   */\n      or\n        /* \"#utility.yul\":12451:12522   */\n      tag_639\n      jumpi\n        /* \"#utility.yul\":12502:12520   */\n      tag_639\n      tag_704\n      jump\t// in\n        /* \"#utility.yul\":12533:12750   */\n    tag_543:\n        /* \"#utility.yul\":12573:12574   */\n      0x00\n        /* \"#utility.yul\":12599:12600   */\n      dup3\n        /* \"#utility.yul\":12589:12721   */\n      tag_810\n      jumpi\n        /* \"#utility.yul\":12643:12653   */\n      0x4e487b71\n        /* \"#utility.yul\":12638:12641   */\n      0xe0\n        /* \"#utility.yul\":12634:12654   */\n      shl\n        /* \"#utility.yul\":12631:12632   */\n      0x00\n        /* \"#utility.yul\":12624:12655   */\n      mstore\n        /* \"#utility.yul\":12678:12682   */\n      0x12\n        /* \"#utility.yul\":12675:12676   */\n      0x04\n        /* \"#utility.yul\":12668:12683   */\n      mstore\n        /* \"#utility.yul\":12706:12710   */\n      0x24\n        /* \"#utility.yul\":12703:12704   */\n      0x00\n        /* \"#utility.yul\":12696:12711   */\n      revert\n        /* \"#utility.yul\":12589:12721   */\n    tag_810:\n      pop\n        /* \"#utility.yul\":12735:12744   */\n      div\n      swap1\n        /* \"#utility.yul\":12533:12750   */\n      jump\t// out\n        /* \"#utility.yul\":13110:13294   */\n    tag_592:\n        /* \"#utility.yul\":13180:13186   */\n      0x00\n        /* \"#utility.yul\":13233:13235   */\n      0x20\n        /* \"#utility.yul\":13221:13230   */\n      dup3\n        /* \"#utility.yul\":13212:13219   */\n      dup5\n        /* \"#utility.yul\":13208:13231   */\n      sub\n        /* \"#utility.yul\":13204:13236   */\n      slt\n        /* \"#utility.yul\":13201:13253   */\n      iszero\n      tag_813\n      jumpi\n        /* \"#utility.yul\":13249:13250   */\n      0x00\n        /* \"#utility.yul\":13246:13247   */\n      dup1\n        /* \"#utility.yul\":13239:13251   */\n      revert\n        /* \"#utility.yul\":13201:13253   */\n    tag_813:\n      pop\n        /* \"#utility.yul\":13272:13288   */\n      mload\n      swap2\n        /* \"#utility.yul\":13110:13294   */\n      swap1\n      pop\n      jump\t// out\n        /* \"#utility.yul\":13299:13600   */\n    tag_678:\n        /* \"#utility.yul\":13428:13431   */\n      0x00\n        /* \"#utility.yul\":13466:13472   */\n      dup3\n        /* \"#utility.yul\":13460:13473   */\n      mload\n        /* \"#utility.yul\":13512:13518   */\n      dup1\n        /* \"#utility.yul\":13505:13509   */\n      0x20\n        /* \"#utility.yul\":13497:13503   */\n      dup6\n        /* \"#utility.yul\":13493:13510   */\n      add\n        /* \"#utility.yul\":13488:13491   */\n      dup5\n        /* \"#utility.yul\":13482:13519   */\n      mcopy\n        /* \"#utility.yul\":13574:13575   */\n      0x00\n        /* \"#utility.yul\":13538:13554   */\n      swap3\n      add\n        /* \"#utility.yul\":13563:13576   */\n      swap2\n      dup3\n      mstore\n      pop\n        /* \"#utility.yul\":13538:13554   */\n      swap2\n        /* \"#utility.yul\":13299:13600   */\n      swap1\n      pop\n      jump\t// out\n    stop\n    data_75b20eef8615de99c108b05f0dbda081c91897128caa336d75dffb97c4132b4d 360894a13ba1a3210667c828492db98dca3e2076cc3735a920a3ca505d382bbc\n    data_d85598d6ea860439b48fc265883a1cac638ff64dca5391fe12b46f27076e26fe b5671393c7c6980552e50a31e778921eb17d764c2e98fbf4d44fff524712def9\n\n    auxdata: 0xa26469706673582212208faa61c493bc1e7ec40ac17c40f46b6e4f326660a1aff6215ed06ee7754902f664736f6c634300081a0033\n}\n",
				"bytecode": {
					"linkReferences": {},
					"object": "60a060405230608052348015610013575f80fd5b5061001c610021565b6100d3565b7ff0c57e16840df040f15088dc2f81fe391c3923bec73e23a9662efc9c229c6a00805468010000000000000000900460ff16156100715760405163f92ee8a960e01b815260040160405180910390fd5b80546001600160401b03908116146100d05780546001600160401b0319166001600160401b0390811782556040519081527fc7f505b2f371ae2175ee4913f4499e1f2633a7b5936321eed1cdaeb6115181d29060200160405180910390a15b50565b608051612d8e6100f95f395f818161212c0152818161215501526122990152612d8e5ff3fe6080604052600436106102a5575f3560e01c80637547c7a31161016f578063ad8e5ec4116100d8578063d777cc6d11610092578063ed0610671161006d578063ed0610671461086d578063f0664a4f1461088c578063f2fde38b146108ab578063ff3d65d9146108ca575f80fd5b8063d777cc6d1461081b578063d9b998b41461083a578063e9c68e2c14610859575f80fd5b8063ad8e5ec4146106f4578063b47ff95114610713578063b9dac1eb14610728578063bccbc36c14610747578063c7fd5bf0146107c8578063ce356a2414610806575f80fd5b806385f452501161012957806385f45250146105fe5780638da5cb5b1461061d578063947a36fb146106595780639c361e4e1461066e578063a4f67b8b14610683578063ad3cb1cc146106b7575f80fd5b80637547c7a31461054457806378fd078d146105635780637f111e60146105825780637f70c5e7146105a15780637ffe4d93146105c057806383aa9985146105df575f80fd5b806344490ff411610211578063567e98f9116101cb578063567e98f91461049c5780635f17e616146104b15780636626b26d146104d057806367976974146104e45780636e04ff0d14610503578063715018a614610530575f80fd5b806344490ff4146104035780634585e33b146104185780634f1ef286146104375780635256dbbf1461044a57806352d1902d146104695780635462870d1461047d575f80fd5b806330cac9721161026257806330cac9721461037b57806333244c2c1461039057806334107c87146103a557806339518b5e146103c45780633a71a9e4146103d95780633f3b3b27146103ee575f80fd5b806301934a83146102a957806311eac855146102d15780631459457a14610307578063188e07b9146103285780632765df7a1461033d5780633070fbf81461035c575b5f80fd5b3480156102b4575f80fd5b506102be60085481565b6040519081526020015b60405180910390f35b3480156102dc575f80fd5b505f546102ef906001600160a01b031681565b6040516001600160a01b0390911681526020016102c8565b348015610312575f80fd5b50610326610321366004612813565b6108f5565b005b348015610333575f80fd5b506102be60015481565b348015610348575f80fd5b50610326610357366004612874565b610a70565b348015610367575f80fd5b50600e546102ef906001600160a01b031681565b348015610386575f80fd5b506102be600b5481565b34801561039b575f80fd5b506102be60045481565b3480156103b0575f80fd5b506103266103bf366004612964565b610b58565b3480156103cf575f80fd5b506102be600c5481565b3480156103e4575f80fd5b506102be60075481565b3480156103f9575f80fd5b506102be600d5481565b34801561040e575f80fd5b506102be60055481565b348015610423575f80fd5b50610326610432366004612a20565b610d05565b610326610445366004612a8e565b610dfc565b348015610455575f80fd5b50610326610464366004612874565b610e17565b348015610474575f80fd5b506102be610f61565b348015610488575f80fd5b506009546102ef906001600160a01b031681565b3480156104a7575f80fd5b506102be60035481565b3480156104bc575f80fd5b506103266104cb366004612b33565b610f7c565b3480156104db575f80fd5b50610326611064565b3480156104ef575f80fd5b506103266104fe366004612874565b6110ec565b34801561050e575f80fd5b5061052261051d366004612a20565b6112ef565b6040516102c8929190612b81565b34801561053b575f80fd5b5061032661131f565b34801561054f575f80fd5b5061032661055e366004612874565b611332565b34801561056e575f80fd5b5061032661057d366004612874565b611519565b34801561058d575f80fd5b5061032661059c366004612874565b611663565b3480156105ac575f80fd5b506103266105bb366004612874565b6116f4565b3480156105cb575f80fd5b506103266105da366004612874565b611785565b3480156105ea575f80fd5b506010546102ef906001600160a01b031681565b348015610609575f80fd5b50610326610618366004612b33565b6118d4565b348015610628575f80fd5b507f9016d09d72d40fdae2fd8ceac6b6234c7706214fd39c1cd1e609a0528c199300546001600160a01b03166102ef565b348015610664575f80fd5b506102be600a5481565b348015610679575f80fd5b506102be60115481565b34801561068e575f80fd5b506102ef61069d366004612874565b60136020525f90815260409020546001600160a01b031681565b3480156106c2575f80fd5b506106e7604051806040016040528060058152602001640352e302e360dc1b81525081565b6040516102c89190612ba3565b3480156106ff575f80fd5b5061032661070e366004612874565b611a0c565b34801561071e575f80fd5b506102be60025481565b348015610733575f80fd5b50610326610742366004612874565b611a9d565b348015610752575f80fd5b50610799610761366004612bb5565b60156020525f908152604090208054600182015460028301546003840154600485015460059095015460ff9094169492939192909186565b6040805196151587526020870195909552938501929092526060840152608083015260a082015260c0016102c8565b3480156107d3575f80fd5b506107f66107e2366004612bb5565b60126020525f908152604090205460ff1681565b60405190151581526020016102c8565b348015610811575f80fd5b506102be60065481565b348015610826575f80fd5b50610326610835366004612bb5565b611b2e565b348015610845575f80fd5b50610326610854366004612bdb565b611bfb565b348015610864575f80fd5b50610326611d55565b348015610878575f80fd5b50610326610887366004612b33565b61202e565b348015610897575f80fd5b50600f546102ef906001600160a01b031681565b3480156108b6575f80fd5b506103266108c5366004612bb5565b6120cb565b3480156108d5575f80fd5b506102be6108e4366004612874565b60146020525f908152604090205481565b7ff0c57e16840df040f15088dc2f81fe391c3923bec73e23a9662efc9c229c6a008054600160401b810460ff16159067ffffffffffffffff165f8115801561093a5750825b90505f8267ffffffffffffffff1660011480156109565750303b155b905081158015610964575080155b156109825760405163f92ee8a960e01b815260040160405180910390fd5b845467ffffffffffffffff1916600117855583156109ac57845460ff60401b1916600160401b1785555b6109b58a612108565b6109bd612119565b5f80546001600160a01b03808c166001600160a01b031992831617909255611388600455611d4c6005556105dc6006556103e860075560098054898416908316179055600f80548b841690831617905560108054928a16929091169190911790558315610a6457845460ff60401b19168555604051600181527fc7f505b2f371ae2175ee4913f4499e1f2633a7b5936321eed1cdaeb6115181d29060200160405180910390a15b50505050505050505050565b600f546001600160a01b03163314801590610a9657506010546001600160a01b03163314155b15610abb57604051631ed6f38b60e31b81523360048201526024015b60405180910390fd5b5f8111610ade5760405163cdbc633560e01b815260048101829052602401610ab2565b601180545f90815260146020526040812083905581549190610aff83612c24565b90915550506011547fe1976e16ed8ce8e740235978fbe69b27d5eea683b2e017bb0bd2fabb33294b3f90610b3583612710612c3c565b60408051928352602083019190915281018390526060015b60405180910390a150565b600f546001600160a01b03163314801590610b7e57506010546001600160a01b03163314155b15610b9e57604051631ed6f38b60e31b8152336004820152602401610ab2565b5f825111610bc4578151604051633ddd555760e21b8152600401610ab291815260200190565b5f815111610bea578051604051633a46e2ab60e01b8152600401610ab291815260200190565b8151815114610c0c5760405163512509d360e11b815260040160405180910390fd5b5f5b8251811015610cbc57828181518110610c2957610c29612c4f565b602002602001015160155f848481518110610c4657610c46612c4f565b60200260200101516001600160a01b03166001600160a01b031681526020019081526020015f206005015f828254610c7e9190612c63565b92505081905550828181518110610c9757610c97612c4f565b602002602001015160035f828254610caf9190612c63565b9091555050600101610c0e565b50815181516040805133815260208101939093528201527f472714a70b748503a00efa85a1c3081b2a3477ce3be0227cb140455f82ccaeb6906060015b60405180910390a15050565b600e546001600160a01b03163314610d855760405162461bcd60e51b815260206004820152603b60248201527f54686973206164647265737320646f6573206e6f742068617665207065726d6960448201527f7373696f6e20746f2063616c6c20706572666f726d55706b65657000000000006064820152608401610ab2565b600a545f03610dad57600a54604051637154000760e01b8152600401610ab291815260200190565b600c544210610ddd57600b54600a81905542600d819055610dce9190612c63565b600c55610dd9611d55565b5050565b600c546040516354593e7560e01b8152600401610ab291815260200190565b610e04612121565b610e0d826121c5565b610dd982826121cd565b600f546001600160a01b03163314801590610e3d57506010546001600160a01b03163314155b15610e5d57604051631ed6f38b60e31b8152336004820152602401610ab2565b5f8111610e80576040516302ff478360e41b815260048101829052602401610ab2565b8060015f828254610e919190612c63565b90915550505f80546040516323b872dd60e01b81526001600160a01b03909116906323b872dd90610eca90339030908790600401612c76565b6020604051808303815f875af1158015610ee6573d5f803e3d5ffd5b505050506040513d601f19601f82011682018060405250810190610f0a9190612c9a565b905080610f2e5760405163d85d3cef60e01b81528115156004820152602401610ab2565b7fa9f166643ec132a11638e74e3c3a78d4ae278fcbf92998240e0e97676f54e404600154604051610cf991815260200190565b5f610f6a61228e565b505f80516020612d1983398151915290565b600f546001600160a01b03163314801590610fa257506010546001600160a01b03163314155b15610fc257604051631ed6f38b60e31b8152336004820152602401610ab2565b5f8111610fe557604051637154000760e01b815260048101829052602401610ab2565b42821015611009576040516354593e7560e01b815260048101839052602401610ab2565b6110134283612c3c565b600a819055600c83905542600d819055600b8390556040805133815260208101939093528201527f2b5090e035d3026f5448298c9adc68db8bbc1b26a8af5c81b2b2a9fc07ca4a0090606001610cf9565b600f546001600160a01b0316331480159061108a57506010546001600160a01b03163314155b156110aa57604051631ed6f38b60e31b8152336004820152602401610ab2565b5f600a8190556040805133815260208101929092527f3b68dc4e210c46d3622293f2b941cdfde795bb6e17286bb289ba05a6a3b5541f910160405180910390a1565b600954600160a01b900460ff16156111465760405162461bcd60e51b815260206004820152601f60248201527f5265656e7472616e637947756172643a207265656e7472616e742063616c6c006044820152606401610ab2565b6009805460ff60a01b1916600160a01b1790558061117a576040516302ff478360e41b815260048101829052602401610ab2565b335f908152601560205260409020600101548111156111c357335f90815260156020526040908190206001015490516398e712c360e01b81526004810191909152602401610ab2565b335f90815260156020526040812060010180548392906111e4908490612c3c565b9091555050335f908152601560205260408120600201805483929061120a908490612c63565b90915550505f805460405163a9059cbb60e01b8152336004820152602481018490526001600160a01b039091169063a9059cbb906044016020604051808303815f875af115801561125d573d5f803e3d5ffd5b505050506040513d601f19601f820116820180604052508101906112819190612c9a565b9050806112a55760405163d85d3cef60e01b81528115156004820152602401610ab2565b60408051338152602081018490527f884edad9ce6fa2440d8a54cc123490eb96d2768479d49ff9c7366125a9424364910160405180910390a150506009805460ff60a01b19169055565b5f60605f600a54600d54426113049190612c3c565b60408051602081019091525f81529110969095509350505050565b6113276122d7565b6113305f612332565b565b5f8111611355576040516302ff478360e41b815260048101829052602401610ab2565b335f9081526015602052604090205460ff161561139d57335f90815260156020526040908190205490516301be970f60e61b815260ff90911615156004820152602401610ab2565b335f90815260156020526040812060050180548392906113be908490612c63565b9091555050335f9081526012602052604090205460ff1661142757600880545f90815260136020908152604080832080546001600160a01b03191633908117909155835260129091528120805460ff191660011790558154919061142183612c24565b91905055505b8060035f8282546114389190612c63565b90915550505f80546009546040516323b872dd60e01b81526001600160a01b03928316926323b872dd92611476923392909116908790600401612c76565b6020604051808303815f875af1158015611492573d5f803e3d5ffd5b505050506040513d601f19601f820116820180604052508101906114b69190612c9a565b9050806114da5760405163d85d3cef60e01b81528115156004820152602401610ab2565b6009546040517f14ee34c24635186d212f515353dadae9c226529edef2d1fcf5504cb33b5c25ab91610cf99133916001600160a01b0316908690612c76565b600f546001600160a01b0316331480159061153f57506010546001600160a01b03163314155b1561155f57604051631ed6f38b60e31b8152336004820152602401610ab2565b5f8111611582576040516302ff478360e41b815260048101829052602401610ab2565b8060025f8282546115939190612c63565b90915550505f80546040516323b872dd60e01b81526001600160a01b03909116906323b872dd906115cc90339030908790600401612c76565b6020604051808303815f875af11580156115e8573d5f803e3d5ffd5b505050506040513d601f19601f8201168201806040525081019061160c9190612c9a565b9050806116305760405163d85d3cef60e01b81528115156004820152602401610ab2565b7f73834e1d1ee73ba659470a3603b888903853d3a3c9fda34e71c093a0e35cab94600254604051610cf991815260200190565b600f546001600160a01b0316331480159061168957506010546001600160a01b03163314155b156116a957604051631ed6f38b60e31b8152336004820152602401610ab2565b5f81116116cc5760405163cdbc633560e01b815260048101829052602401610ab2565b600781905560408051338152602081018390525f80516020612d398339815191529101610b4d565b600f546001600160a01b0316331480159061171a57506010546001600160a01b03163314155b1561173a57604051631ed6f38b60e31b8152336004820152602401610ab2565b5f811161175d5760405163cdbc633560e01b815260048101829052602401610ab2565b600481905560408051338152602081018390525f80516020612d398339815191529101610b4d565b5f81116117a8576040516302ff478360e41b815260048101829052602401610ab2565b335f9081526015602052604090205460ff16156117f057335f90815260156020526040908190205490516301be970f60e61b815260ff90911615156004820152602401610ab2565b335f90815260156020526040902060010154811061182457604051630636dc6b60e31b815260048101829052602401610ab2565b335f9081526015602052604081206001018054839290611845908490612c3c565b9091555050335f908152601560205260408120600501805483929061186b908490612c63565b925050819055508060025f8282546118839190612c63565b925050819055508060035f82825461189b9190612c63565b90915550506040517f14ee34c24635186d212f515353dadae9c226529edef2d1fcf5504cb33b5c25ab90610b4d90339030908590612c76565b5f82116118f7576040516302ff478360e41b815260048101839052602401610ab2565b60115481111561191d5760405163222a50f360e01b815260048101829052602401610ab2565b5f818152601460205260409020546119369083906123a2565b5f80546040516323b872dd60e01b81526001600160a01b03909116906323b872dd9061196a90339030908890600401612c76565b6020604051808303815f875af1158015611986573d5f803e3d5ffd5b505050506040513d601f19601f820116820180604052508101906119aa9190612c9a565b9050806119ce5760405163d85d3cef60e01b81528115156004820152602401610ab2565b60408051848152602081018490527fa89b69c5958ec1ccf0df0de746a8708f5b6a6b429430129f16f46f44b319c900910160405180910390a1505050565b600f546001600160a01b03163314801590611a3257506010546001600160a01b03163314155b15611a5257604051631ed6f38b60e31b8152336004820152602401610ab2565b5f8111611a755760405163cdbc633560e01b815260048101829052602401610ab2565b600681905560408051338152602081018390525f80516020612d398339815191529101610b4d565b600f546001600160a01b03163314801590611ac357506010546001600160a01b03163314155b15611ae357604051631ed6f38b60e31b8152336004820152602401610ab2565b5f8111611b065760405163cdbc633560e01b815260048101829052602401610ab2565b600581905560408051338152602081018390525f80516020612d398339815191529101610b4d565b600f546001600160a01b03163314801590611b5457506010546001600160a01b03163314155b15611b7457604051631ed6f38b60e31b8152336004820152602401610ab2565b6001600160a01b038116611ba65760405163e4cfa94d60e01b81526001600160a01b0382166004820152602401610ab2565b600e80546001600160a01b0319166001600160a01b0383169081179091556040805133815260208101929092527f75f91f3cecb8c46f20150f60f77a6e1f0de00776627692db82ef1960af84c33a9101610b4d565b600f546001600160a01b03163314801590611c2157506010546001600160a01b03163314155b15611c4157604051631ed6f38b60e31b8152336004820152602401610ab2565b6001600160a01b038216611c735760405163e4cfa94d60e01b81526001600160a01b0383166004820152602401610ab2565b600181151514801590611c8557508015155b15611ca7576040516381ed1ae360e01b81528115156004820152602401610ab2565b801515600103611cd8576001600160a01b0382165f908152601560205260409020805460ff19166001179055611cf8565b6001600160a01b0382165f908152601560205260409020805460ff191690555b6001600160a01b0382165f818152601560209081526040918290205482513381529182019390935260ff9092161515908201527f7a1655bc3160d3413bf1d5235e55be12e01b7e8bc2436a9bff09c3b4fa2421f190606001610cf9565b600e546001600160a01b03163314801590611d7b5750600f546001600160a01b03163314155b8015611d9257506010546001600160a01b03163314155b15611db257604051631ed6f38b60e31b8152336004820152602401610ab2565b600254158015611dc25750600154155b15611def57600254600154604051632fd92d8d60e01b815260048101929092526024820152604401610ab2565b5f805f611dfa612400565b919450925090505f805b600854811015611fe2575f818152601360209081526040808320546001600160a01b03168352601590915290205460ff16611fda576003545f828152601360209081526040808320546001600160a01b031683526015909152812060050154909190611e7290612710612cb5565b611e7c9190612ccc565b90505f611e89868361256d565b90508060025f828254611e9c9190612c3c565b90915550611eac90508185612c63565b93508460015f828254611ebf9190612c3c565b90915550505f838152601360209081526040808320546001600160a01b03168352601590915281206003018054879290611efa908490612c63565b90915550505f838152601360209081526040808320546001600160a01b03168352601590915281206004018054839290611f35908490612c63565b909155505f9050611f468683612c63565b5f858152601360209081526040808320546001600160a01b031683526015909152812060010180549293508392909190611f81908490612c63565b909155505087851115611fd65760405162461bcd60e51b815260206004820152601a60248201527f416d6f756e742069732067726561746572207468656e203530250000000000006044820152606401610ab2565b5050505b600101611e04565b506002546001546040805133815260208101939093528201527fee826440768329b0c72f81331212ee31fcdac1ea79a248d24821e40c34e580209060600160405180910390a150505050565b600f546001600160a01b0316331480159061205457506010546001600160a01b03163314155b1561207457604051631ed6f38b60e31b8152336004820152602401610ab2565b5f81116120975760405163cdbc633560e01b815260048101829052602401610ab2565b5f8281526014602090815260409182902083905581513381529081018390525f80516020612d398339815191529101610cf9565b6120d36122d7565b6001600160a01b0381166120fc57604051631e4fbdf760e01b81525f6004820152602401610ab2565b61210581612332565b50565b6121106125d6565b6121058161261f565b6113306125d6565b306001600160a01b037f00000000000000000000000000000000000000000000000000000000000000001614806121a757507f00000000000000000000000000000000000000000000000000000000000000006001600160a01b031661219b5f80516020612d19833981519152546001600160a01b031690565b6001600160a01b031614155b156113305760405163703e46dd60e11b815260040160405180910390fd5b6121056122d7565b816001600160a01b03166352d1902d6040518163ffffffff1660e01b8152600401602060405180830381865afa925050508015612227575060408051601f3d908101601f1916820190925261222491810190612ceb565b60015b61224f57604051634c9c8ce360e01b81526001600160a01b0383166004820152602401610ab2565b5f80516020612d19833981519152811461227f57604051632a87526960e21b815260048101829052602401610ab2565b6122898383612627565b505050565b306001600160a01b037f000000000000000000000000000000000000000000000000000000000000000016146113305760405163703e46dd60e11b815260040160405180910390fd5b336123097f9016d09d72d40fdae2fd8ceac6b6234c7706214fd39c1cd1e609a0528c199300546001600160a01b031690565b6001600160a01b0316146113305760405163118cdaa760e01b8152336004820152602401610ab2565b7f9016d09d72d40fdae2fd8ceac6b6234c7706214fd39c1cd1e609a0528c19930080546001600160a01b031981166001600160a01b03848116918217845560405192169182907f8be0079c531659141344cd1fd0a4f28419497f9722a3daafe3b4186f6b6457e0905f90a3505050565b5f6123af82612710612c3c565b90505f6123bc848361256d565b90505f6123c9858561256d565b90508160025f8282546123dc9190612c63565b925050819055508060015f8282546123f49190612c63565b90915550505050505050565b5f805f8061241260025461138861256d565b90505f6124218260055461256d565b90505f6124308360065461256d565b90505f61243f8460075461256d565b90505f61245060015460045461256d565b90505f6008541161247a57600854604051637ca8d0db60e01b8152600401610ab291815260200190565b5f600854826124899190612ccc565b90506124958385612c63565b60025f8282546124a59190612c3c565b925050819055508360015f8282546124bd9190612c63565b90915550505f805460095460405163a9059cbb60e01b81526001600160a01b0391821660048201526024810187905291169063a9059cbb906044016020604051808303815f875af1158015612514573d5f803e3d5ffd5b505050506040513d601f19601f820116820180604052508101906125389190612c9a565b90508061255c5760405163d85d3cef60e01b81528115156004820152602401610ab2565b509498939750939550919350505050565b5f80831161259157604051639b7220af60e01b815260048101849052602401610ab2565b5f82116125b457604051630b015aa760e31b815260048101839052602401610ab2565b5f6127106125c28486612cb5565b6125cc9190612ccc565b9150505b92915050565b7ff0c57e16840df040f15088dc2f81fe391c3923bec73e23a9662efc9c229c6a0054600160401b900460ff1661133057604051631afcd79f60e31b815260040160405180910390fd5b6120d36125d6565b6126308261267c565b6040516001600160a01b038316907fbc7cd75a20ee27fd9adebab32041f755214dbc6bffa90cc0225b39da2e5c2d3b905f90a28051156126745761228982826126df565b610dd9612751565b806001600160a01b03163b5f036126b157604051634c9c8ce360e01b81526001600160a01b0382166004820152602401610ab2565b5f80516020612d1983398151915280546001600160a01b0319166001600160a01b0392909216919091179055565b60605f80846001600160a01b0316846040516126fb9190612d02565b5f60405180830381855af49150503d805f8114612733576040519150601f19603f3d011682016040523d82523d5f602084013e612738565b606091505b5091509150612748858383612770565b95945050505050565b34156113305760405163b398979f60e01b815260040160405180910390fd5b60608261278557612780826127cf565b6127c8565b815115801561279c57506001600160a01b0384163b155b156127c557604051639996b31560e01b81526001600160a01b0385166004820152602401610ab2565b50805b9392505050565b8051156127df5780518082602001fd5b604051630a12f52160e11b815260040160405180910390fd5b80356001600160a01b038116811461280e575f80fd5b919050565b5f805f805f60a08688031215612827575f80fd5b612830866127f8565b945061283e602087016127f8565b935061284c604087016127f8565b925061285a606087016127f8565b9150612868608087016127f8565b90509295509295909350565b5f60208284031215612884575f80fd5b5035919050565b634e487b7160e01b5f52604160045260245ffd5b604051601f8201601f1916810167ffffffffffffffff811182821017156128c8576128c861288b565b604052919050565b5f67ffffffffffffffff8211156128e9576128e961288b565b5060051b60200190565b5f82601f830112612902575f80fd5b8135612915612910826128d0565b61289f565b8082825260208201915060208360051b860101925085831115612936575f80fd5b602085015b8381101561295a5761294c816127f8565b83526020928301920161293b565b5095945050505050565b5f8060408385031215612975575f80fd5b823567ffffffffffffffff81111561298b575f80fd5b8301601f8101851361299b575f80fd5b80356129a9612910826128d0565b8082825260208201915060208360051b8501019250878311156129ca575f80fd5b6020840193505b828410156129ec5783358252602093840193909101906129d1565b9450505050602083013567ffffffffffffffff811115612a0a575f80fd5b612a16858286016128f3565b9150509250929050565b5f8060208385031215612a31575f80fd5b823567ffffffffffffffff811115612a47575f80fd5b8301601f81018513612a57575f80fd5b803567ffffffffffffffff811115612a6d575f80fd5b856020828401011115612a7e575f80fd5b6020919091019590945092505050565b5f8060408385031215612a9f575f80fd5b612aa8836127f8565b9150602083013567ffffffffffffffff811115612ac3575f80fd5b8301601f81018513612ad3575f80fd5b803567ffffffffffffffff811115612aed57612aed61288b565b612b00601f8201601f191660200161289f565b818152866020838501011115612b14575f80fd5b816020840160208301375f602083830101528093505050509250929050565b5f8060408385031215612b44575f80fd5b50508035926020909101359150565b5f81518084528060208401602086015e5f602082860101526020601f19601f83011685010191505092915050565b8215158152604060208201525f612b9b6040830184612b53565b949350505050565b602081525f6127c86020830184612b53565b5f60208284031215612bc5575f80fd5b6127c8826127f8565b8015158114612105575f80fd5b5f8060408385031215612bec575f80fd5b612bf5836127f8565b91506020830135612c0581612bce565b809150509250929050565b634e487b7160e01b5f52601160045260245ffd5b5f60018201612c3557612c35612c10565b5060010190565b818103818111156125d0576125d0612c10565b634e487b7160e01b5f52603260045260245ffd5b808201808211156125d0576125d0612c10565b6001600160a01b039384168152919092166020820152604081019190915260600190565b5f60208284031215612caa575f80fd5b81516127c881612bce565b80820281158282048414176125d0576125d0612c10565b5f82612ce657634e487b7160e01b5f52601260045260245ffd5b500490565b5f60208284031215612cfb575f80fd5b5051919050565b5f82518060208501845e5f92019182525091905056fe360894a13ba1a3210667c828492db98dca3e2076cc3735a920a3ca505d382bbcb5671393c7c6980552e50a31e778921eb17d764c2e98fbf4d44fff524712def9a26469706673582212208faa61c493bc1e7ec40ac17c40f46b6e4f326660a1aff6215ed06ee7754902f664736f6c634300081a0033",
					"opcodes": "PUSH1 0xA0 PUSH1 0x40 MSTORE ADDRESS PUSH1 0x80 MSTORE CALLVALUE DUP1 ISZERO PUSH2 0x13 JUMPI PUSH0 DUP1 REVERT JUMPDEST POP PUSH2 0x1C PUSH2 0x21 JUMP JUMPDEST PUSH2 0xD3 JUMP JUMPDEST PUSH32 0xF0C57E16840DF040F15088DC2F81FE391C3923BEC73E23A9662EFC9C229C6A00 DUP1 SLOAD PUSH9 0x10000000000000000 SWAP1 DIV PUSH1 0xFF AND ISZERO PUSH2 0x71 JUMPI PUSH1 0x40 MLOAD PUSH4 0xF92EE8A9 PUSH1 0xE0 SHL DUP2 MSTORE PUSH1 0x4 ADD PUSH1 0x40 MLOAD DUP1 SWAP2 SUB SWAP1 REVERT JUMPDEST DUP1 SLOAD PUSH1 0x1 PUSH1 0x1 PUSH1 0x40 SHL SUB SWAP1 DUP2 AND EQ PUSH2 0xD0 JUMPI DUP1 SLOAD PUSH1 0x1 PUSH1 0x1 PUSH1 0x40 SHL SUB NOT AND PUSH1 0x1 PUSH1 0x1 PUSH1 0x40 SHL SUB SWAP1 DUP2 OR DUP3 SSTORE PUSH1 0x40 MLOAD SWAP1 DUP2 MSTORE PUSH32 0xC7F505B2F371AE2175EE4913F4499E1F2633A7B5936321EED1CDAEB6115181D2 SWAP1 PUSH1 0x20 ADD PUSH1 0x40 MLOAD DUP1 SWAP2 SUB SWAP1 LOG1 JUMPDEST POP JUMP JUMPDEST PUSH1 0x80 MLOAD PUSH2 0x2D8E PUSH2 0xF9 PUSH0 CODECOPY PUSH0 DUP2 DUP2 PUSH2 0x212C ADD MSTORE DUP2 DUP2 PUSH2 0x2155 ADD MSTORE PUSH2 0x2299 ADD MSTORE PUSH2 0x2D8E PUSH0 RETURN INVALID PUSH1 0x80 PUSH1 0x40 MSTORE PUSH1 0x4 CALLDATASIZE LT PUSH2 0x2A5 JUMPI PUSH0 CALLDATALOAD PUSH1 0xE0 SHR DUP1 PUSH4 0x7547C7A3 GT PUSH2 0x16F JUMPI DUP1 PUSH4 0xAD8E5EC4 GT PUSH2 0xD8 JUMPI DUP1 PUSH4 0xD777CC6D GT PUSH2 0x92 JUMPI DUP1 PUSH4 0xED061067 GT PUSH2 0x6D JUMPI DUP1 PUSH4 0xED061067 EQ PUSH2 0x86D JUMPI DUP1 PUSH4 0xF0664A4F EQ PUSH2 0x88C JUMPI DUP1 PUSH4 0xF2FDE38B EQ PUSH2 0x8AB JUMPI DUP1 PUSH4 0xFF3D65D9 EQ PUSH2 0x8CA JUMPI PUSH0 DUP1 REVERT JUMPDEST DUP1 PUSH4 0xD777CC6D EQ PUSH2 0x81B JUMPI DUP1 PUSH4 0xD9B998B4 EQ PUSH2 0x83A JUMPI DUP1 PUSH4 0xE9C68E2C EQ PUSH2 0x859 JUMPI PUSH0 DUP1 REVERT JUMPDEST DUP1 PUSH4 0xAD8E5EC4 EQ PUSH2 0x6F4 JUMPI DUP1 PUSH4 0xB47FF951 EQ PUSH2 0x713 JUMPI DUP1 PUSH4 0xB9DAC1EB EQ PUSH2 0x728 JUMPI DUP1 PUSH4 0xBCCBC36C EQ PUSH2 0x747 JUMPI DUP1 PUSH4 0xC7FD5BF0 EQ PUSH2 0x7C8 JUMPI DUP1 PUSH4 0xCE356A24 EQ PUSH2 0x806 JUMPI PUSH0 DUP1 REVERT JUMPDEST DUP1 PUSH4 0x85F45250 GT PUSH2 0x129 JUMPI DUP1 PUSH4 0x85F45250 EQ PUSH2 0x5FE JUMPI DUP1 PUSH4 0x8DA5CB5B EQ PUSH2 0x61D JUMPI DUP1 PUSH4 0x947A36FB EQ PUSH2 0x659 JUMPI DUP1 PUSH4 0x9C361E4E EQ PUSH2 0x66E JUMPI DUP1 PUSH4 0xA4F67B8B EQ PUSH2 0x683 JUMPI DUP1 PUSH4 0xAD3CB1CC EQ PUSH2 0x6B7 JUMPI PUSH0 DUP1 REVERT JUMPDEST DUP1 PUSH4 0x7547C7A3 EQ PUSH2 0x544 JUMPI DUP1 PUSH4 0x78FD078D EQ PUSH2 0x563 JUMPI DUP1 PUSH4 0x7F111E60 EQ PUSH2 0x582 JUMPI DUP1 PUSH4 0x7F70C5E7 EQ PUSH2 0x5A1 JUMPI DUP1 PUSH4 0x7FFE4D93 EQ PUSH2 0x5C0 JUMPI DUP1 PUSH4 0x83AA9985 EQ PUSH2 0x5DF JUMPI PUSH0 DUP1 REVERT JUMPDEST DUP1 PUSH4 0x44490FF4 GT PUSH2 0x211 JUMPI DUP1 PUSH4 0x567E98F9 GT PUSH2 0x1CB JUMPI DUP1 PUSH4 0x567E98F9 EQ PUSH2 0x49C JUMPI DUP1 PUSH4 0x5F17E616 EQ PUSH2 0x4B1 JUMPI DUP1 PUSH4 0x6626B26D EQ PUSH2 0x4D0 JUMPI DUP1 PUSH4 0x67976974 EQ PUSH2 0x4E4 JUMPI DUP1 PUSH4 0x6E04FF0D EQ PUSH2 0x503 JUMPI DUP1 PUSH4 0x715018A6 EQ PUSH2 0x530 JUMPI PUSH0 DUP1 REVERT JUMPDEST DUP1 PUSH4 0x44490FF4 EQ PUSH2 0x403 JUMPI DUP1 PUSH4 0x4585E33B EQ PUSH2 0x418 JUMPI DUP1 PUSH4 0x4F1EF286 EQ PUSH2 0x437 JUMPI DUP1 PUSH4 0x5256DBBF EQ PUSH2 0x44A JUMPI DUP1 PUSH4 0x52D1902D EQ PUSH2 0x469 JUMPI DUP1 PUSH4 0x5462870D EQ PUSH2 0x47D JUMPI PUSH0 DUP1 REVERT JUMPDEST DUP1 PUSH4 0x30CAC972 GT PUSH2 0x262 JUMPI DUP1 PUSH4 0x30CAC972 EQ PUSH2 0x37B JUMPI DUP1 PUSH4 0x33244C2C EQ PUSH2 0x390 JUMPI DUP1 PUSH4 0x34107C87 EQ PUSH2 0x3A5 JUMPI DUP1 PUSH4 0x39518B5E EQ PUSH2 0x3C4 JUMPI DUP1 PUSH4 0x3A71A9E4 EQ PUSH2 0x3D9 JUMPI DUP1 PUSH4 0x3F3B3B27 EQ PUSH2 0x3EE JUMPI PUSH0 DUP1 REVERT JUMPDEST DUP1 PUSH4 0x1934A83 EQ PUSH2 0x2A9 JUMPI DUP1 PUSH4 0x11EAC855 EQ PUSH2 0x2D1 JUMPI DUP1 PUSH4 0x1459457A EQ PUSH2 0x307 JUMPI DUP1 PUSH4 0x188E07B9 EQ PUSH2 0x328 JUMPI DUP1 PUSH4 0x2765DF7A EQ PUSH2 0x33D JUMPI DUP1 PUSH4 0x3070FBF8 EQ PUSH2 0x35C JUMPI JUMPDEST PUSH0 DUP1 REVERT JUMPDEST CALLVALUE DUP1 ISZERO PUSH2 0x2B4 JUMPI PUSH0 DUP1 REVERT JUMPDEST POP PUSH2 0x2BE PUSH1 0x8 SLOAD DUP2 JUMP JUMPDEST PUSH1 0x40 MLOAD SWAP1 DUP2 MSTORE PUSH1 0x20 ADD JUMPDEST PUSH1 0x40 MLOAD DUP1 SWAP2 SUB SWAP1 RETURN JUMPDEST CALLVALUE DUP1 ISZERO PUSH2 0x2DC JUMPI PUSH0 DUP1 REVERT JUMPDEST POP PUSH0 SLOAD PUSH2 0x2EF SWAP1 PUSH1 0x1 PUSH1 0x1 PUSH1 0xA0 SHL SUB AND DUP2 JUMP JUMPDEST PUSH1 0x40 MLOAD PUSH1 0x1 PUSH1 0x1 PUSH1 0xA0 SHL SUB SWAP1 SWAP2 AND DUP2 MSTORE PUSH1 0x20 ADD PUSH2 0x2C8 JUMP JUMPDEST CALLVALUE DUP1 ISZERO PUSH2 0x312 JUMPI PUSH0 DUP1 REVERT JUMPDEST POP PUSH2 0x326 PUSH2 0x321 CALLDATASIZE PUSH1 0x4 PUSH2 0x2813 JUMP JUMPDEST PUSH2 0x8F5 JUMP JUMPDEST STOP JUMPDEST CALLVALUE DUP1 ISZERO PUSH2 0x333 JUMPI PUSH0 DUP1 REVERT JUMPDEST POP PUSH2 0x2BE PUSH1 0x1 SLOAD DUP2 JUMP JUMPDEST CALLVALUE DUP1 ISZERO PUSH2 0x348 JUMPI PUSH0 DUP1 REVERT JUMPDEST POP PUSH2 0x326 PUSH2 0x357 CALLDATASIZE PUSH1 0x4 PUSH2 0x2874 JUMP JUMPDEST PUSH2 0xA70 JUMP JUMPDEST CALLVALUE DUP1 ISZERO PUSH2 0x367 JUMPI PUSH0 DUP1 REVERT JUMPDEST POP PUSH1 0xE SLOAD PUSH2 0x2EF SWAP1 PUSH1 0x1 PUSH1 0x1 PUSH1 0xA0 SHL SUB AND DUP2 JUMP JUMPDEST CALLVALUE DUP1 ISZERO PUSH2 0x386 JUMPI PUSH0 DUP1 REVERT JUMPDEST POP PUSH2 0x2BE PUSH1 0xB SLOAD DUP2 JUMP JUMPDEST CALLVALUE DUP1 ISZERO PUSH2 0x39B JUMPI PUSH0 DUP1 REVERT JUMPDEST POP PUSH2 0x2BE PUSH1 0x4 SLOAD DUP2 JUMP JUMPDEST CALLVALUE DUP1 ISZERO PUSH2 0x3B0 JUMPI PUSH0 DUP1 REVERT JUMPDEST POP PUSH2 0x326 PUSH2 0x3BF CALLDATASIZE PUSH1 0x4 PUSH2 0x2964 JUMP JUMPDEST PUSH2 0xB58 JUMP JUMPDEST CALLVALUE DUP1 ISZERO PUSH2 0x3CF JUMPI PUSH0 DUP1 REVERT JUMPDEST POP PUSH2 0x2BE PUSH1 0xC SLOAD DUP2 JUMP JUMPDEST CALLVALUE DUP1 ISZERO PUSH2 0x3E4 JUMPI PUSH0 DUP1 REVERT JUMPDEST POP PUSH2 0x2BE PUSH1 0x7 SLOAD DUP2 JUMP JUMPDEST CALLVALUE DUP1 ISZERO PUSH2 0x3F9 JUMPI PUSH0 DUP1 REVERT JUMPDEST POP PUSH2 0x2BE PUSH1 0xD SLOAD DUP2 JUMP JUMPDEST CALLVALUE DUP1 ISZERO PUSH2 0x40E JUMPI PUSH0 DUP1 REVERT JUMPDEST POP PUSH2 0x2BE PUSH1 0x5 SLOAD DUP2 JUMP JUMPDEST CALLVALUE DUP1 ISZERO PUSH2 0x423 JUMPI PUSH0 DUP1 REVERT JUMPDEST POP PUSH2 0x326 PUSH2 0x432 CALLDATASIZE PUSH1 0x4 PUSH2 0x2A20 JUMP JUMPDEST PUSH2 0xD05 JUMP JUMPDEST PUSH2 0x326 PUSH2 0x445 CALLDATASIZE PUSH1 0x4 PUSH2 0x2A8E JUMP JUMPDEST PUSH2 0xDFC JUMP JUMPDEST CALLVALUE DUP1 ISZERO PUSH2 0x455 JUMPI PUSH0 DUP1 REVERT JUMPDEST POP PUSH2 0x326 PUSH2 0x464 CALLDATASIZE PUSH1 0x4 PUSH2 0x2874 JUMP JUMPDEST PUSH2 0xE17 JUMP JUMPDEST CALLVALUE DUP1 ISZERO PUSH2 0x474 JUMPI PUSH0 DUP1 REVERT JUMPDEST POP PUSH2 0x2BE PUSH2 0xF61 JUMP JUMPDEST CALLVALUE DUP1 ISZERO PUSH2 0x488 JUMPI PUSH0 DUP1 REVERT JUMPDEST POP PUSH1 0x9 SLOAD PUSH2 0x2EF SWAP1 PUSH1 0x1 PUSH1 0x1 PUSH1 0xA0 SHL SUB AND DUP2 JUMP JUMPDEST CALLVALUE DUP1 ISZERO PUSH2 0x4A7 JUMPI PUSH0 DUP1 REVERT JUMPDEST POP PUSH2 0x2BE PUSH1 0x3 SLOAD DUP2 JUMP JUMPDEST CALLVALUE DUP1 ISZERO PUSH2 0x4BC JUMPI PUSH0 DUP1 REVERT JUMPDEST POP PUSH2 0x326 PUSH2 0x4CB CALLDATASIZE PUSH1 0x4 PUSH2 0x2B33 JUMP JUMPDEST PUSH2 0xF7C JUMP JUMPDEST CALLVALUE DUP1 ISZERO PUSH2 0x4DB JUMPI PUSH0 DUP1 REVERT JUMPDEST POP PUSH2 0x326 PUSH2 0x1064 JUMP JUMPDEST CALLVALUE DUP1 ISZERO PUSH2 0x4EF JUMPI PUSH0 DUP1 REVERT JUMPDEST POP PUSH2 0x326 PUSH2 0x4FE CALLDATASIZE PUSH1 0x4 PUSH2 0x2874 JUMP JUMPDEST PUSH2 0x10EC JUMP JUMPDEST CALLVALUE DUP1 ISZERO PUSH2 0x50E JUMPI PUSH0 DUP1 REVERT JUMPDEST POP PUSH2 0x522 PUSH2 0x51D CALLDATASIZE PUSH1 0x4 PUSH2 0x2A20 JUMP JUMPDEST PUSH2 0x12EF JUMP JUMPDEST PUSH1 0x40 MLOAD PUSH2 0x2C8 SWAP3 SWAP2 SWAP1 PUSH2 0x2B81 JUMP JUMPDEST CALLVALUE DUP1 ISZERO PUSH2 0x53B JUMPI PUSH0 DUP1 REVERT JUMPDEST POP PUSH2 0x326 PUSH2 0x131F JUMP JUMPDEST CALLVALUE DUP1 ISZERO PUSH2 0x54F JUMPI PUSH0 DUP1 REVERT JUMPDEST POP PUSH2 0x326 PUSH2 0x55E CALLDATASIZE PUSH1 0x4 PUSH2 0x2874 JUMP JUMPDEST PUSH2 0x1332 JUMP JUMPDEST CALLVALUE DUP1 ISZERO PUSH2 0x56E JUMPI PUSH0 DUP1 REVERT JUMPDEST POP PUSH2 0x326 PUSH2 0x57D CALLDATASIZE PUSH1 0x4 PUSH2 0x2874 JUMP JUMPDEST PUSH2 0x1519 JUMP JUMPDEST CALLVALUE DUP1 ISZERO PUSH2 0x58D JUMPI PUSH0 DUP1 REVERT JUMPDEST POP PUSH2 0x326 PUSH2 0x59C CALLDATASIZE PUSH1 0x4 PUSH2 0x2874 JUMP JUMPDEST PUSH2 0x1663 JUMP JUMPDEST CALLVALUE DUP1 ISZERO PUSH2 0x5AC JUMPI PUSH0 DUP1 REVERT JUMPDEST POP PUSH2 0x326 PUSH2 0x5BB CALLDATASIZE PUSH1 0x4 PUSH2 0x2874 JUMP JUMPDEST PUSH2 0x16F4 JUMP JUMPDEST CALLVALUE DUP1 ISZERO PUSH2 0x5CB JUMPI PUSH0 DUP1 REVERT JUMPDEST POP PUSH2 0x326 PUSH2 0x5DA CALLDATASIZE PUSH1 0x4 PUSH2 0x2874 JUMP JUMPDEST PUSH2 0x1785 JUMP JUMPDEST CALLVALUE DUP1 ISZERO PUSH2 0x5EA JUMPI PUSH0 DUP1 REVERT JUMPDEST POP PUSH1 0x10 SLOAD PUSH2 0x2EF SWAP1 PUSH1 0x1 PUSH1 0x1 PUSH1 0xA0 SHL SUB AND DUP2 JUMP JUMPDEST CALLVALUE DUP1 ISZERO PUSH2 0x609 JUMPI PUSH0 DUP1 REVERT JUMPDEST POP PUSH2 0x326 PUSH2 0x618 CALLDATASIZE PUSH1 0x4 PUSH2 0x2B33 JUMP JUMPDEST PUSH2 0x18D4 JUMP JUMPDEST CALLVALUE DUP1 ISZERO PUSH2 0x628 JUMPI PUSH0 DUP1 REVERT JUMPDEST POP PUSH32 0x9016D09D72D40FDAE2FD8CEAC6B6234C7706214FD39C1CD1E609A0528C199300 SLOAD PUSH1 0x1 PUSH1 0x1 PUSH1 0xA0 SHL SUB AND PUSH2 0x2EF JUMP JUMPDEST CALLVALUE DUP1 ISZERO PUSH2 0x664 JUMPI PUSH0 DUP1 REVERT JUMPDEST POP PUSH2 0x2BE PUSH1 0xA SLOAD DUP2 JUMP JUMPDEST CALLVALUE DUP1 ISZERO PUSH2 0x679 JUMPI PUSH0 DUP1 REVERT JUMPDEST POP PUSH2 0x2BE PUSH1 0x11 SLOAD DUP2 JUMP JUMPDEST CALLVALUE DUP1 ISZERO PUSH2 0x68E JUMPI PUSH0 DUP1 REVERT JUMPDEST POP PUSH2 0x2EF PUSH2 0x69D CALLDATASIZE PUSH1 0x4 PUSH2 0x2874 JUMP JUMPDEST PUSH1 0x13 PUSH1 0x20 MSTORE PUSH0 SWAP1 DUP2 MSTORE PUSH1 0x40 SWAP1 KECCAK256 SLOAD PUSH1 0x1 PUSH1 0x1 PUSH1 0xA0 SHL SUB AND DUP2 JUMP JUMPDEST CALLVALUE DUP1 ISZERO PUSH2 0x6C2 JUMPI PUSH0 DUP1 REVERT JUMPDEST POP PUSH2 0x6E7 PUSH1 0x40 MLOAD DUP1 PUSH1 0x40 ADD PUSH1 0x40 MSTORE DUP1 PUSH1 0x5 DUP2 MSTORE PUSH1 0x20 ADD PUSH5 0x352E302E3 PUSH1 0xDC SHL DUP2 MSTORE POP DUP2 JUMP JUMPDEST PUSH1 0x40 MLOAD PUSH2 0x2C8 SWAP2 SWAP1 PUSH2 0x2BA3 JUMP JUMPDEST CALLVALUE DUP1 ISZERO PUSH2 0x6FF JUMPI PUSH0 DUP1 REVERT JUMPDEST POP PUSH2 0x326 PUSH2 0x70E CALLDATASIZE PUSH1 0x4 PUSH2 0x2874 JUMP JUMPDEST PUSH2 0x1A0C JUMP JUMPDEST CALLVALUE DUP1 ISZERO PUSH2 0x71E JUMPI PUSH0 DUP1 REVERT JUMPDEST POP PUSH2 0x2BE PUSH1 0x2 SLOAD DUP2 JUMP JUMPDEST CALLVALUE DUP1 ISZERO PUSH2 0x733 JUMPI PUSH0 DUP1 REVERT JUMPDEST POP PUSH2 0x326 PUSH2 0x742 CALLDATASIZE PUSH1 0x4 PUSH2 0x2874 JUMP JUMPDEST PUSH2 0x1A9D JUMP JUMPDEST CALLVALUE DUP1 ISZERO PUSH2 0x752 JUMPI PUSH0 DUP1 REVERT JUMPDEST POP PUSH2 0x799 PUSH2 0x761 CALLDATASIZE PUSH1 0x4 PUSH2 0x2BB5 JUMP JUMPDEST PUSH1 0x15 PUSH1 0x20 MSTORE PUSH0 SWAP1 DUP2 MSTORE PUSH1 0x40 SWAP1 KECCAK256 DUP1 SLOAD PUSH1 0x1 DUP3 ADD SLOAD PUSH1 0x2 DUP4 ADD SLOAD PUSH1 0x3 DUP5 ADD SLOAD PUSH1 0x4 DUP6 ADD SLOAD PUSH1 0x5 SWAP1 SWAP6 ADD SLOAD PUSH1 0xFF SWAP1 SWAP5 AND SWAP5 SWAP3 SWAP4 SWAP2 SWAP3 SWAP1 SWAP2 DUP7 JUMP JUMPDEST PUSH1 0x40 DUP1 MLOAD SWAP7 ISZERO ISZERO DUP8 MSTORE PUSH1 0x20 DUP8 ADD SWAP6 SWAP1 SWAP6 MSTORE SWAP4 DUP6 ADD SWAP3 SWAP1 SWAP3 MSTORE PUSH1 0x60 DUP5 ADD MSTORE PUSH1 0x80 DUP4 ADD MSTORE PUSH1 0xA0 DUP3 ADD MSTORE PUSH1 0xC0 ADD PUSH2 0x2C8 JUMP JUMPDEST CALLVALUE DUP1 ISZERO PUSH2 0x7D3 JUMPI PUSH0 DUP1 REVERT JUMPDEST POP PUSH2 0x7F6 PUSH2 0x7E2 CALLDATASIZE PUSH1 0x4 PUSH2 0x2BB5 JUMP JUMPDEST PUSH1 0x12 PUSH1 0x20 MSTORE PUSH0 SWAP1 DUP2 MSTORE PUSH1 0x40 SWAP1 KECCAK256 SLOAD PUSH1 0xFF AND DUP2 JUMP JUMPDEST PUSH1 0x40 MLOAD SWAP1 ISZERO ISZERO DUP2 MSTORE PUSH1 0x20 ADD PUSH2 0x2C8 JUMP JUMPDEST CALLVALUE DUP1 ISZERO PUSH2 0x811 JUMPI PUSH0 DUP1 REVERT JUMPDEST POP PUSH2 0x2BE PUSH1 0x6 SLOAD DUP2 JUMP JUMPDEST CALLVALUE DUP1 ISZERO PUSH2 0x826 JUMPI PUSH0 DUP1 REVERT JUMPDEST POP PUSH2 0x326 PUSH2 0x835 CALLDATASIZE PUSH1 0x4 PUSH2 0x2BB5 JUMP JUMPDEST PUSH2 0x1B2E JUMP JUMPDEST CALLVALUE DUP1 ISZERO PUSH2 0x845 JUMPI PUSH0 DUP1 REVERT JUMPDEST POP PUSH2 0x326 PUSH2 0x854 CALLDATASIZE PUSH1 0x4 PUSH2 0x2BDB JUMP JUMPDEST PUSH2 0x1BFB JUMP JUMPDEST CALLVALUE DUP1 ISZERO PUSH2 0x864 JUMPI PUSH0 DUP1 REVERT JUMPDEST POP PUSH2 0x326 PUSH2 0x1D55 JUMP JUMPDEST CALLVALUE DUP1 ISZERO PUSH2 0x878 JUMPI PUSH0 DUP1 REVERT JUMPDEST POP PUSH2 0x326 PUSH2 0x887 CALLDATASIZE PUSH1 0x4 PUSH2 0x2B33 JUMP JUMPDEST PUSH2 0x202E JUMP JUMPDEST CALLVALUE DUP1 ISZERO PUSH2 0x897 JUMPI PUSH0 DUP1 REVERT JUMPDEST POP PUSH1 0xF SLOAD PUSH2 0x2EF SWAP1 PUSH1 0x1 PUSH1 0x1 PUSH1 0xA0 SHL SUB AND DUP2 JUMP JUMPDEST CALLVALUE DUP1 ISZERO PUSH2 0x8B6 JUMPI PUSH0 DUP1 REVERT JUMPDEST POP PUSH2 0x326 PUSH2 0x8C5 CALLDATASIZE PUSH1 0x4 PUSH2 0x2BB5 JUMP JUMPDEST PUSH2 0x20CB JUMP JUMPDEST CALLVALUE DUP1 ISZERO PUSH2 0x8D5 JUMPI PUSH0 DUP1 REVERT JUMPDEST POP PUSH2 0x2BE PUSH2 0x8E4 CALLDATASIZE PUSH1 0x4 PUSH2 0x2874 JUMP JUMPDEST PUSH1 0x14 PUSH1 0x20 MSTORE PUSH0 SWAP1 DUP2 MSTORE PUSH1 0x40 SWAP1 KECCAK256 SLOAD DUP2 JUMP JUMPDEST PUSH32 0xF0C57E16840DF040F15088DC2F81FE391C3923BEC73E23A9662EFC9C229C6A00 DUP1 SLOAD PUSH1 0x1 PUSH1 0x40 SHL DUP2 DIV PUSH1 0xFF AND ISZERO SWAP1 PUSH8 0xFFFFFFFFFFFFFFFF AND PUSH0 DUP2 ISZERO DUP1 ISZERO PUSH2 0x93A JUMPI POP DUP3 JUMPDEST SWAP1 POP PUSH0 DUP3 PUSH8 0xFFFFFFFFFFFFFFFF AND PUSH1 0x1 EQ DUP1 ISZERO PUSH2 0x956 JUMPI POP ADDRESS EXTCODESIZE ISZERO JUMPDEST SWAP1 POP DUP2 ISZERO DUP1 ISZERO PUSH2 0x964 JUMPI POP DUP1 ISZERO JUMPDEST ISZERO PUSH2 0x982 JUMPI PUSH1 0x40 MLOAD PUSH4 0xF92EE8A9 PUSH1 0xE0 SHL DUP2 MSTORE PUSH1 0x4 ADD PUSH1 0x40 MLOAD DUP1 SWAP2 SUB SWAP1 REVERT JUMPDEST DUP5 SLOAD PUSH8 0xFFFFFFFFFFFFFFFF NOT AND PUSH1 0x1 OR DUP6 SSTORE DUP4 ISZERO PUSH2 0x9AC JUMPI DUP5 SLOAD PUSH1 0xFF PUSH1 0x40 SHL NOT AND PUSH1 0x1 PUSH1 0x40 SHL OR DUP6 SSTORE JUMPDEST PUSH2 0x9B5 DUP11 PUSH2 0x2108 JUMP JUMPDEST PUSH2 0x9BD PUSH2 0x2119 JUMP JUMPDEST PUSH0 DUP1 SLOAD PUSH1 0x1 PUSH1 0x1 PUSH1 0xA0 SHL SUB DUP1 DUP13 AND PUSH1 0x1 PUSH1 0x1 PUSH1 0xA0 SHL SUB NOT SWAP3 DUP4 AND OR SWAP1 SWAP3 SSTORE PUSH2 0x1388 PUSH1 0x4 SSTORE PUSH2 0x1D4C PUSH1 0x5 SSTORE PUSH2 0x5DC PUSH1 0x6 SSTORE PUSH2 0x3E8 PUSH1 0x7 SSTORE PUSH1 0x9 DUP1 SLOAD DUP10 DUP5 AND SWAP1 DUP4 AND OR SWAP1 SSTORE PUSH1 0xF DUP1 SLOAD DUP12 DUP5 AND SWAP1 DUP4 AND OR SWAP1 SSTORE PUSH1 0x10 DUP1 SLOAD SWAP3 DUP11 AND SWAP3 SWAP1 SWAP2 AND SWAP2 SWAP1 SWAP2 OR SWAP1 SSTORE DUP4 ISZERO PUSH2 0xA64 JUMPI DUP5 SLOAD PUSH1 0xFF PUSH1 0x40 SHL NOT AND DUP6 SSTORE PUSH1 0x40 MLOAD PUSH1 0x1 DUP2 MSTORE PUSH32 0xC7F505B2F371AE2175EE4913F4499E1F2633A7B5936321EED1CDAEB6115181D2 SWAP1 PUSH1 0x20 ADD PUSH1 0x40 MLOAD DUP1 SWAP2 SUB SWAP1 LOG1 JUMPDEST POP POP POP POP POP POP POP POP POP POP JUMP JUMPDEST PUSH1 0xF SLOAD PUSH1 0x1 PUSH1 0x1 PUSH1 0xA0 SHL SUB AND CALLER EQ DUP1 ISZERO SWAP1 PUSH2 0xA96 JUMPI POP PUSH1 0x10 SLOAD PUSH1 0x1 PUSH1 0x1 PUSH1 0xA0 SHL SUB AND CALLER EQ ISZERO JUMPDEST ISZERO PUSH2 0xABB JUMPI PUSH1 0x40 MLOAD PUSH4 0x1ED6F38B PUSH1 0xE3 SHL DUP2 MSTORE CALLER PUSH1 0x4 DUP3 ADD MSTORE PUSH1 0x24 ADD JUMPDEST PUSH1 0x40 MLOAD DUP1 SWAP2 SUB SWAP1 REVERT JUMPDEST PUSH0 DUP2 GT PUSH2 0xADE JUMPI PUSH1 0x40 MLOAD PUSH4 0xCDBC6335 PUSH1 0xE0 SHL DUP2 MSTORE PUSH1 0x4 DUP2 ADD DUP3 SWAP1 MSTORE PUSH1 0x24 ADD PUSH2 0xAB2 JUMP JUMPDEST PUSH1 0x11 DUP1 SLOAD PUSH0 SWAP1 DUP2 MSTORE PUSH1 0x14 PUSH1 0x20 MSTORE PUSH1 0x40 DUP2 KECCAK256 DUP4 SWAP1 SSTORE DUP2 SLOAD SWAP2 SWAP1 PUSH2 0xAFF DUP4 PUSH2 0x2C24 JUMP JUMPDEST SWAP1 SWAP2 SSTORE POP POP PUSH1 0x11 SLOAD PUSH32 0xE1976E16ED8CE8E740235978FBE69B27D5EEA683B2E017BB0BD2FABB33294B3F SWAP1 PUSH2 0xB35 DUP4 PUSH2 0x2710 PUSH2 0x2C3C JUMP JUMPDEST PUSH1 0x40 DUP1 MLOAD SWAP3 DUP4 MSTORE PUSH1 0x20 DUP4 ADD SWAP2 SWAP1 SWAP2 MSTORE DUP2 ADD DUP4 SWAP1 MSTORE PUSH1 0x60 ADD JUMPDEST PUSH1 0x40 MLOAD DUP1 SWAP2 SUB SWAP1 LOG1 POP JUMP JUMPDEST PUSH1 0xF SLOAD PUSH1 0x1 PUSH1 0x1 PUSH1 0xA0 SHL SUB AND CALLER EQ DUP1 ISZERO SWAP1 PUSH2 0xB7E JUMPI POP PUSH1 0x10 SLOAD PUSH1 0x1 PUSH1 0x1 PUSH1 0xA0 SHL SUB AND CALLER EQ ISZERO JUMPDEST ISZERO PUSH2 0xB9E JUMPI PUSH1 0x40 MLOAD PUSH4 0x1ED6F38B PUSH1 0xE3 SHL DUP2 MSTORE CALLER PUSH1 0x4 DUP3 ADD MSTORE PUSH1 0x24 ADD PUSH2 0xAB2 JUMP JUMPDEST PUSH0 DUP3 MLOAD GT PUSH2 0xBC4 JUMPI DUP2 MLOAD PUSH1 0x40 MLOAD PUSH4 0x3DDD5557 PUSH1 0xE2 SHL DUP2 MSTORE PUSH1 0x4 ADD PUSH2 0xAB2 SWAP2 DUP2 MSTORE PUSH1 0x20 ADD SWAP1 JUMP JUMPDEST PUSH0 DUP2 MLOAD GT PUSH2 0xBEA JUMPI DUP1 MLOAD PUSH1 0x40 MLOAD PUSH4 0x3A46E2AB PUSH1 0xE0 SHL DUP2 MSTORE PUSH1 0x4 ADD PUSH2 0xAB2 SWAP2 DUP2 MSTORE PUSH1 0x20 ADD SWAP1 JUMP JUMPDEST DUP2 MLOAD DUP2 MLOAD EQ PUSH2 0xC0C JUMPI PUSH1 0x40 MLOAD PUSH4 0x512509D3 PUSH1 0xE1 SHL DUP2 MSTORE PUSH1 0x4 ADD PUSH1 0x40 MLOAD DUP1 SWAP2 SUB SWAP1 REVERT JUMPDEST PUSH0 JUMPDEST DUP3 MLOAD DUP2 LT ISZERO PUSH2 0xCBC JUMPI DUP3 DUP2 DUP2 MLOAD DUP2 LT PUSH2 0xC29 JUMPI PUSH2 0xC29 PUSH2 0x2C4F JUMP JUMPDEST PUSH1 0x20 MUL PUSH1 0x20 ADD ADD MLOAD PUSH1 0x15 PUSH0 DUP5 DUP5 DUP2 MLOAD DUP2 LT PUSH2 0xC46 JUMPI PUSH2 0xC46 PUSH2 0x2C4F JUMP JUMPDEST PUSH1 0x20 MUL PUSH1 0x20 ADD ADD MLOAD PUSH1 0x1 PUSH1 0x1 PUSH1 0xA0 SHL SUB AND PUSH1 0x1 PUSH1 0x1 PUSH1 0xA0 SHL SUB AND DUP2 MSTORE PUSH1 0x20 ADD SWAP1 DUP2 MSTORE PUSH1 0x20 ADD PUSH0 KECCAK256 PUSH1 0x5 ADD PUSH0 DUP3 DUP3 SLOAD PUSH2 0xC7E SWAP2 SWAP1 PUSH2 0x2C63 JUMP JUMPDEST SWAP3 POP POP DUP2 SWAP1 SSTORE POP DUP3 DUP2 DUP2 MLOAD DUP2 LT PUSH2 0xC97 JUMPI PUSH2 0xC97 PUSH2 0x2C4F JUMP JUMPDEST PUSH1 0x20 MUL PUSH1 0x20 ADD ADD MLOAD PUSH1 0x3 PUSH0 DUP3 DUP3 SLOAD PUSH2 0xCAF SWAP2 SWAP1 PUSH2 0x2C63 JUMP JUMPDEST SWAP1 SWAP2 SSTORE POP POP PUSH1 0x1 ADD PUSH2 0xC0E JUMP JUMPDEST POP DUP2 MLOAD DUP2 MLOAD PUSH1 0x40 DUP1 MLOAD CALLER DUP2 MSTORE PUSH1 0x20 DUP2 ADD SWAP4 SWAP1 SWAP4 MSTORE DUP3 ADD MSTORE PUSH32 0x472714A70B748503A00EFA85A1C3081B2A3477CE3BE0227CB140455F82CCAEB6 SWAP1 PUSH1 0x60 ADD JUMPDEST PUSH1 0x40 MLOAD DUP1 SWAP2 SUB SWAP1 LOG1 POP POP JUMP JUMPDEST PUSH1 0xE SLOAD PUSH1 0x1 PUSH1 0x1 PUSH1 0xA0 SHL SUB AND CALLER EQ PUSH2 0xD85 JUMPI PUSH1 0x40 MLOAD PUSH3 0x461BCD PUSH1 0xE5 SHL DUP2 MSTORE PUSH1 0x20 PUSH1 0x4 DUP3 ADD MSTORE PUSH1 0x3B PUSH1 0x24 DUP3 ADD MSTORE PUSH32 0x54686973206164647265737320646F6573206E6F742068617665207065726D69 PUSH1 0x44 DUP3 ADD MSTORE PUSH32 0x7373696F6E20746F2063616C6C20706572666F726D55706B6565700000000000 PUSH1 0x64 DUP3 ADD MSTORE PUSH1 0x84 ADD PUSH2 0xAB2 JUMP JUMPDEST PUSH1 0xA SLOAD PUSH0 SUB PUSH2 0xDAD JUMPI PUSH1 0xA SLOAD PUSH1 0x40 MLOAD PUSH4 0x71540007 PUSH1 0xE0 SHL DUP2 MSTORE PUSH1 0x4 ADD PUSH2 0xAB2 SWAP2 DUP2 MSTORE PUSH1 0x20 ADD SWAP1 JUMP JUMPDEST PUSH1 0xC SLOAD TIMESTAMP LT PUSH2 0xDDD JUMPI PUSH1 0xB SLOAD PUSH1 0xA DUP2 SWAP1 SSTORE TIMESTAMP PUSH1 0xD DUP2 SWAP1 SSTORE PUSH2 0xDCE SWAP2 SWAP1 PUSH2 0x2C63 JUMP JUMPDEST PUSH1 0xC SSTORE PUSH2 0xDD9 PUSH2 0x1D55 JUMP JUMPDEST POP POP JUMP JUMPDEST PUSH1 0xC SLOAD PUSH1 0x40 MLOAD PUSH4 0x54593E75 PUSH1 0xE0 SHL DUP2 MSTORE PUSH1 0x4 ADD PUSH2 0xAB2 SWAP2 DUP2 MSTORE PUSH1 0x20 ADD SWAP1 JUMP JUMPDEST PUSH2 0xE04 PUSH2 0x2121 JUMP JUMPDEST PUSH2 0xE0D DUP3 PUSH2 0x21C5 JUMP JUMPDEST PUSH2 0xDD9 DUP3 DUP3 PUSH2 0x21CD JUMP JUMPDEST PUSH1 0xF SLOAD PUSH1 0x1 PUSH1 0x1 PUSH1 0xA0 SHL SUB AND CALLER EQ DUP1 ISZERO SWAP1 PUSH2 0xE3D JUMPI POP PUSH1 0x10 SLOAD PUSH1 0x1 PUSH1 0x1 PUSH1 0xA0 SHL SUB AND CALLER EQ ISZERO JUMPDEST ISZERO PUSH2 0xE5D JUMPI PUSH1 0x40 MLOAD PUSH4 0x1ED6F38B PUSH1 0xE3 SHL DUP2 MSTORE CALLER PUSH1 0x4 DUP3 ADD MSTORE PUSH1 0x24 ADD PUSH2 0xAB2 JUMP JUMPDEST PUSH0 DUP2 GT PUSH2 0xE80 JUMPI PUSH1 0x40 MLOAD PUSH4 0x2FF4783 PUSH1 0xE4 SHL DUP2 MSTORE PUSH1 0x4 DUP2 ADD DUP3 SWAP1 MSTORE PUSH1 0x24 ADD PUSH2 0xAB2 JUMP JUMPDEST DUP1 PUSH1 0x1 PUSH0 DUP3 DUP3 SLOAD PUSH2 0xE91 SWAP2 SWAP1 PUSH2 0x2C63 JUMP JUMPDEST SWAP1 SWAP2 SSTORE POP POP PUSH0 DUP1 SLOAD PUSH1 0x40 MLOAD PUSH4 0x23B872DD PUSH1 0xE0 SHL DUP2 MSTORE PUSH1 0x1 PUSH1 0x1 PUSH1 0xA0 SHL SUB SWAP1 SWAP2 AND SWAP1 PUSH4 0x23B872DD SWAP1 PUSH2 0xECA SWAP1 CALLER SWAP1 ADDRESS SWAP1 DUP8 SWAP1 PUSH1 0x4 ADD PUSH2 0x2C76 JUMP JUMPDEST PUSH1 0x20 PUSH1 0x40 MLOAD DUP1 DUP4 SUB DUP2 PUSH0 DUP8 GAS CALL ISZERO DUP1 ISZERO PUSH2 0xEE6 JUMPI RETURNDATASIZE PUSH0 DUP1 RETURNDATACOPY RETURNDATASIZE PUSH0 REVERT JUMPDEST POP POP POP POP PUSH1 0x40 MLOAD RETURNDATASIZE PUSH1 0x1F NOT PUSH1 0x1F DUP3 ADD AND DUP3 ADD DUP1 PUSH1 0x40 MSTORE POP DUP2 ADD SWAP1 PUSH2 0xF0A SWAP2 SWAP1 PUSH2 0x2C9A JUMP JUMPDEST SWAP1 POP DUP1 PUSH2 0xF2E JUMPI PUSH1 0x40 MLOAD PUSH4 0xD85D3CEF PUSH1 0xE0 SHL DUP2 MSTORE DUP2 ISZERO ISZERO PUSH1 0x4 DUP3 ADD MSTORE PUSH1 0x24 ADD PUSH2 0xAB2 JUMP JUMPDEST PUSH32 0xA9F166643EC132A11638E74E3C3A78D4AE278FCBF92998240E0E97676F54E404 PUSH1 0x1 SLOAD PUSH1 0x40 MLOAD PUSH2 0xCF9 SWAP2 DUP2 MSTORE PUSH1 0x20 ADD SWAP1 JUMP JUMPDEST PUSH0 PUSH2 0xF6A PUSH2 0x228E JUMP JUMPDEST POP PUSH0 DUP1 MLOAD PUSH1 0x20 PUSH2 0x2D19 DUP4 CODECOPY DUP2 MLOAD SWAP2 MSTORE SWAP1 JUMP JUMPDEST PUSH1 0xF SLOAD PUSH1 0x1 PUSH1 0x1 PUSH1 0xA0 SHL SUB AND CALLER EQ DUP1 ISZERO SWAP1 PUSH2 0xFA2 JUMPI POP PUSH1 0x10 SLOAD PUSH1 0x1 PUSH1 0x1 PUSH1 0xA0 SHL SUB AND CALLER EQ ISZERO JUMPDEST ISZERO PUSH2 0xFC2 JUMPI PUSH1 0x40 MLOAD PUSH4 0x1ED6F38B PUSH1 0xE3 SHL DUP2 MSTORE CALLER PUSH1 0x4 DUP3 ADD MSTORE PUSH1 0x24 ADD PUSH2 0xAB2 JUMP JUMPDEST PUSH0 DUP2 GT PUSH2 0xFE5 JUMPI PUSH1 0x40 MLOAD PUSH4 0x71540007 PUSH1 0xE0 SHL DUP2 MSTORE PUSH1 0x4 DUP2 ADD DUP3 SWAP1 MSTORE PUSH1 0x24 ADD PUSH2 0xAB2 JUMP JUMPDEST TIMESTAMP DUP3 LT ISZERO PUSH2 0x1009 JUMPI PUSH1 0x40 MLOAD PUSH4 0x54593E75 PUSH1 0xE0 SHL DUP2 MSTORE PUSH1 0x4 DUP2 ADD DUP4 SWAP1 MSTORE PUSH1 0x24 ADD PUSH2 0xAB2 JUMP JUMPDEST PUSH2 0x1013 TIMESTAMP DUP4 PUSH2 0x2C3C JUMP JUMPDEST PUSH1 0xA DUP2 SWAP1 SSTORE PUSH1 0xC DUP4 SWAP1 SSTORE TIMESTAMP PUSH1 0xD DUP2 SWAP1 SSTORE PUSH1 0xB DUP4 SWAP1 SSTORE PUSH1 0x40 DUP1 MLOAD CALLER DUP2 MSTORE PUSH1 0x20 DUP2 ADD SWAP4 SWAP1 SWAP4 MSTORE DUP3 ADD MSTORE PUSH32 0x2B5090E035D3026F5448298C9ADC68DB8BBC1B26A8AF5C81B2B2A9FC07CA4A00 SWAP1 PUSH1 0x60 ADD PUSH2 0xCF9 JUMP JUMPDEST PUSH1 0xF SLOAD PUSH1 0x1 PUSH1 0x1 PUSH1 0xA0 SHL SUB AND CALLER EQ DUP1 ISZERO SWAP1 PUSH2 0x108A JUMPI POP PUSH1 0x10 SLOAD PUSH1 0x1 PUSH1 0x1 PUSH1 0xA0 SHL SUB AND CALLER EQ ISZERO JUMPDEST ISZERO PUSH2 0x10AA JUMPI PUSH1 0x40 MLOAD PUSH4 0x1ED6F38B PUSH1 0xE3 SHL DUP2 MSTORE CALLER PUSH1 0x4 DUP3 ADD MSTORE PUSH1 0x24 ADD PUSH2 0xAB2 JUMP JUMPDEST PUSH0 PUSH1 0xA DUP2 SWAP1 SSTORE PUSH1 0x40 DUP1 MLOAD CALLER DUP2 MSTORE PUSH1 0x20 DUP2 ADD SWAP3 SWAP1 SWAP3 MSTORE PUSH32 0x3B68DC4E210C46D3622293F2B941CDFDE795BB6E17286BB289BA05A6A3B5541F SWAP2 ADD PUSH1 0x40 MLOAD DUP1 SWAP2 SUB SWAP1 LOG1 JUMP JUMPDEST PUSH1 0x9 SLOAD PUSH1 0x1 PUSH1 0xA0 SHL SWAP1 DIV PUSH1 0xFF AND ISZERO PUSH2 0x1146 JUMPI PUSH1 0x40 MLOAD PUSH3 0x461BCD PUSH1 0xE5 SHL DUP2 MSTORE PUSH1 0x20 PUSH1 0x4 DUP3 ADD MSTORE PUSH1 0x1F PUSH1 0x24 DUP3 ADD MSTORE PUSH32 0x5265656E7472616E637947756172643A207265656E7472616E742063616C6C00 PUSH1 0x44 DUP3 ADD MSTORE PUSH1 0x64 ADD PUSH2 0xAB2 JUMP JUMPDEST PUSH1 0x9 DUP1 SLOAD PUSH1 0xFF PUSH1 0xA0 SHL NOT AND PUSH1 0x1 PUSH1 0xA0 SHL OR SWAP1 SSTORE DUP1 PUSH2 0x117A JUMPI PUSH1 0x40 MLOAD PUSH4 0x2FF4783 PUSH1 0xE4 SHL DUP2 MSTORE PUSH1 0x4 DUP2 ADD DUP3 SWAP1 MSTORE PUSH1 0x24 ADD PUSH2 0xAB2 JUMP JUMPDEST CALLER PUSH0 SWAP1 DUP2 MSTORE PUSH1 0x15 PUSH1 0x20 MSTORE PUSH1 0x40 SWAP1 KECCAK256 PUSH1 0x1 ADD SLOAD DUP2 GT ISZERO PUSH2 0x11C3 JUMPI CALLER PUSH0 SWAP1 DUP2 MSTORE PUSH1 0x15 PUSH1 0x20 MSTORE PUSH1 0x40 SWAP1 DUP2 SWAP1 KECCAK256 PUSH1 0x1 ADD SLOAD SWAP1 MLOAD PUSH4 0x98E712C3 PUSH1 0xE0 SHL DUP2 MSTORE PUSH1 0x4 DUP2 ADD SWAP2 SWAP1 SWAP2 MSTORE PUSH1 0x24 ADD PUSH2 0xAB2 JUMP JUMPDEST CALLER PUSH0 SWAP1 DUP2 MSTORE PUSH1 0x15 PUSH1 0x20 MSTORE PUSH1 0x40 DUP2 KECCAK256 PUSH1 0x1 ADD DUP1 SLOAD DUP4 SWAP3 SWAP1 PUSH2 0x11E4 SWAP1 DUP5 SWAP1 PUSH2 0x2C3C JUMP JUMPDEST SWAP1 SWAP2 SSTORE POP POP CALLER PUSH0 SWAP1 DUP2 MSTORE PUSH1 0x15 PUSH1 0x20 MSTORE PUSH1 0x40 DUP2 KECCAK256 PUSH1 0x2 ADD DUP1 SLOAD DUP4 SWAP3 SWAP1 PUSH2 0x120A SWAP1 DUP5 SWAP1 PUSH2 0x2C63 JUMP JUMPDEST SWAP1 SWAP2 SSTORE POP POP PUSH0 DUP1 SLOAD PUSH1 0x40 MLOAD PUSH4 0xA9059CBB PUSH1 0xE0 SHL DUP2 MSTORE CALLER PUSH1 0x4 DUP3 ADD MSTORE PUSH1 0x24 DUP2 ADD DUP5 SWAP1 MSTORE PUSH1 0x1 PUSH1 0x1 PUSH1 0xA0 SHL SUB SWAP1 SWAP2 AND SWAP1 PUSH4 0xA9059CBB SWAP1 PUSH1 0x44 ADD PUSH1 0x20 PUSH1 0x40 MLOAD DUP1 DUP4 SUB DUP2 PUSH0 DUP8 GAS CALL ISZERO DUP1 ISZERO PUSH2 0x125D JUMPI RETURNDATASIZE PUSH0 DUP1 RETURNDATACOPY RETURNDATASIZE PUSH0 REVERT JUMPDEST POP POP POP POP PUSH1 0x40 MLOAD RETURNDATASIZE PUSH1 0x1F NOT PUSH1 0x1F DUP3 ADD AND DUP3 ADD DUP1 PUSH1 0x40 MSTORE POP DUP2 ADD SWAP1 PUSH2 0x1281 SWAP2 SWAP1 PUSH2 0x2C9A JUMP JUMPDEST SWAP1 POP DUP1 PUSH2 0x12A5 JUMPI PUSH1 0x40 MLOAD PUSH4 0xD85D3CEF PUSH1 0xE0 SHL DUP2 MSTORE DUP2 ISZERO ISZERO PUSH1 0x4 DUP3 ADD MSTORE PUSH1 0x24 ADD PUSH2 0xAB2 JUMP JUMPDEST PUSH1 0x40 DUP1 MLOAD CALLER DUP2 MSTORE PUSH1 0x20 DUP2 ADD DUP5 SWAP1 MSTORE PUSH32 0x884EDAD9CE6FA2440D8A54CC123490EB96D2768479D49FF9C7366125A9424364 SWAP2 ADD PUSH1 0x40 MLOAD DUP1 SWAP2 SUB SWAP1 LOG1 POP POP PUSH1 0x9 DUP1 SLOAD PUSH1 0xFF PUSH1 0xA0 SHL NOT AND SWAP1 SSTORE JUMP JUMPDEST PUSH0 PUSH1 0x60 PUSH0 PUSH1 0xA SLOAD PUSH1 0xD SLOAD TIMESTAMP PUSH2 0x1304 SWAP2 SWAP1 PUSH2 0x2C3C JUMP JUMPDEST PUSH1 0x40 DUP1 MLOAD PUSH1 0x20 DUP2 ADD SWAP1 SWAP2 MSTORE PUSH0 DUP2 MSTORE SWAP2 LT SWAP7 SWAP1 SWAP6 POP SWAP4 POP POP POP POP JUMP JUMPDEST PUSH2 0x1327 PUSH2 0x22D7 JUMP JUMPDEST PUSH2 0x1330 PUSH0 PUSH2 0x2332 JUMP JUMPDEST JUMP JUMPDEST PUSH0 DUP2 GT PUSH2 0x1355 JUMPI PUSH1 0x40 MLOAD PUSH4 0x2FF4783 PUSH1 0xE4 SHL DUP2 MSTORE PUSH1 0x4 DUP2 ADD DUP3 SWAP1 MSTORE PUSH1 0x24 ADD PUSH2 0xAB2 JUMP JUMPDEST CALLER PUSH0 SWAP1 DUP2 MSTORE PUSH1 0x15 PUSH1 0x20 MSTORE PUSH1 0x40 SWAP1 KECCAK256 SLOAD PUSH1 0xFF AND ISZERO PUSH2 0x139D JUMPI CALLER PUSH0 SWAP1 DUP2 MSTORE PUSH1 0x15 PUSH1 0x20 MSTORE PUSH1 0x40 SWAP1 DUP2 SWAP1 KECCAK256 SLOAD SWAP1 MLOAD PUSH4 0x1BE970F PUSH1 0xE6 SHL DUP2 MSTORE PUSH1 0xFF SWAP1 SWAP2 AND ISZERO ISZERO PUSH1 0x4 DUP3 ADD MSTORE PUSH1 0x24 ADD PUSH2 0xAB2 JUMP JUMPDEST CALLER PUSH0 SWAP1 DUP2 MSTORE PUSH1 0x15 PUSH1 0x20 MSTORE PUSH1 0x40 DUP2 KECCAK256 PUSH1 0x5 ADD DUP1 SLOAD DUP4 SWAP3 SWAP1 PUSH2 0x13BE SWAP1 DUP5 SWAP1 PUSH2 0x2C63 JUMP JUMPDEST SWAP1 SWAP2 SSTORE POP POP CALLER PUSH0 SWAP1 DUP2 MSTORE PUSH1 0x12 PUSH1 0x20 MSTORE PUSH1 0x40 SWAP1 KECCAK256 SLOAD PUSH1 0xFF AND PUSH2 0x1427 JUMPI PUSH1 0x8 DUP1 SLOAD PUSH0 SWAP1 DUP2 MSTORE PUSH1 0x13 PUSH1 0x20 SWAP1 DUP2 MSTORE PUSH1 0x40 DUP1 DUP4 KECCAK256 DUP1 SLOAD PUSH1 0x1 PUSH1 0x1 PUSH1 0xA0 SHL SUB NOT AND CALLER SWAP1 DUP2 OR SWAP1 SWAP2 SSTORE DUP4 MSTORE PUSH1 0x12 SWAP1 SWAP2 MSTORE DUP2 KECCAK256 DUP1 SLOAD PUSH1 0xFF NOT AND PUSH1 0x1 OR SWAP1 SSTORE DUP2 SLOAD SWAP2 SWAP1 PUSH2 0x1421 DUP4 PUSH2 0x2C24 JUMP JUMPDEST SWAP2 SWAP1 POP SSTORE POP JUMPDEST DUP1 PUSH1 0x3 PUSH0 DUP3 DUP3 SLOAD PUSH2 0x1438 SWAP2 SWAP1 PUSH2 0x2C63 JUMP JUMPDEST SWAP1 SWAP2 SSTORE POP POP PUSH0 DUP1 SLOAD PUSH1 0x9 SLOAD PUSH1 0x40 MLOAD PUSH4 0x23B872DD PUSH1 0xE0 SHL DUP2 MSTORE PUSH1 0x1 PUSH1 0x1 PUSH1 0xA0 SHL SUB SWAP3 DUP4 AND SWAP3 PUSH4 0x23B872DD SWAP3 PUSH2 0x1476 SWAP3 CALLER SWAP3 SWAP1 SWAP2 AND SWAP1 DUP8 SWAP1 PUSH1 0x4 ADD PUSH2 0x2C76 JUMP JUMPDEST PUSH1 0x20 PUSH1 0x40 MLOAD DUP1 DUP4 SUB DUP2 PUSH0 DUP8 GAS CALL ISZERO DUP1 ISZERO PUSH2 0x1492 JUMPI RETURNDATASIZE PUSH0 DUP1 RETURNDATACOPY RETURNDATASIZE PUSH0 REVERT JUMPDEST POP POP POP POP PUSH1 0x40 MLOAD RETURNDATASIZE PUSH1 0x1F NOT PUSH1 0x1F DUP3 ADD AND DUP3 ADD DUP1 PUSH1 0x40 MSTORE POP DUP2 ADD SWAP1 PUSH2 0x14B6 SWAP2 SWAP1 PUSH2 0x2C9A JUMP JUMPDEST SWAP1 POP DUP1 PUSH2 0x14DA JUMPI PUSH1 0x40 MLOAD PUSH4 0xD85D3CEF PUSH1 0xE0 SHL DUP2 MSTORE DUP2 ISZERO ISZERO PUSH1 0x4 DUP3 ADD MSTORE PUSH1 0x24 ADD PUSH2 0xAB2 JUMP JUMPDEST PUSH1 0x9 SLOAD PUSH1 0x40 MLOAD PUSH32 0x14EE34C24635186D212F515353DADAE9C226529EDEF2D1FCF5504CB33B5C25AB SWAP2 PUSH2 0xCF9 SWAP2 CALLER SWAP2 PUSH1 0x1 PUSH1 0x1 PUSH1 0xA0 SHL SUB AND SWAP1 DUP7 SWAP1 PUSH2 0x2C76 JUMP JUMPDEST PUSH1 0xF SLOAD PUSH1 0x1 PUSH1 0x1 PUSH1 0xA0 SHL SUB AND CALLER EQ DUP1 ISZERO SWAP1 PUSH2 0x153F JUMPI POP PUSH1 0x10 SLOAD PUSH1 0x1 PUSH1 0x1 PUSH1 0xA0 SHL SUB AND CALLER EQ ISZERO JUMPDEST ISZERO PUSH2 0x155F JUMPI PUSH1 0x40 MLOAD PUSH4 0x1ED6F38B PUSH1 0xE3 SHL DUP2 MSTORE CALLER PUSH1 0x4 DUP3 ADD MSTORE PUSH1 0x24 ADD PUSH2 0xAB2 JUMP JUMPDEST PUSH0 DUP2 GT PUSH2 0x1582 JUMPI PUSH1 0x40 MLOAD PUSH4 0x2FF4783 PUSH1 0xE4 SHL DUP2 MSTORE PUSH1 0x4 DUP2 ADD DUP3 SWAP1 MSTORE PUSH1 0x24 ADD PUSH2 0xAB2 JUMP JUMPDEST DUP1 PUSH1 0x2 PUSH0 DUP3 DUP3 SLOAD PUSH2 0x1593 SWAP2 SWAP1 PUSH2 0x2C63 JUMP JUMPDEST SWAP1 SWAP2 SSTORE POP POP PUSH0 DUP1 SLOAD PUSH1 0x40 MLOAD PUSH4 0x23B872DD PUSH1 0xE0 SHL DUP2 MSTORE PUSH1 0x1 PUSH1 0x1 PUSH1 0xA0 SHL SUB SWAP1 SWAP2 AND SWAP1 PUSH4 0x23B872DD SWAP1 PUSH2 0x15CC SWAP1 CALLER SWAP1 ADDRESS SWAP1 DUP8 SWAP1 PUSH1 0x4 ADD PUSH2 0x2C76 JUMP JUMPDEST PUSH1 0x20 PUSH1 0x40 MLOAD DUP1 DUP4 SUB DUP2 PUSH0 DUP8 GAS CALL ISZERO DUP1 ISZERO PUSH2 0x15E8 JUMPI RETURNDATASIZE PUSH0 DUP1 RETURNDATACOPY RETURNDATASIZE PUSH0 REVERT JUMPDEST POP POP POP POP PUSH1 0x40 MLOAD RETURNDATASIZE PUSH1 0x1F NOT PUSH1 0x1F DUP3 ADD AND DUP3 ADD DUP1 PUSH1 0x40 MSTORE POP DUP2 ADD SWAP1 PUSH2 0x160C SWAP2 SWAP1 PUSH2 0x2C9A JUMP JUMPDEST SWAP1 POP DUP1 PUSH2 0x1630 JUMPI PUSH1 0x40 MLOAD PUSH4 0xD85D3CEF PUSH1 0xE0 SHL DUP2 MSTORE DUP2 ISZERO ISZERO PUSH1 0x4 DUP3 ADD MSTORE PUSH1 0x24 ADD PUSH2 0xAB2 JUMP JUMPDEST PUSH32 0x73834E1D1EE73BA659470A3603B888903853D3A3C9FDA34E71C093A0E35CAB94 PUSH1 0x2 SLOAD PUSH1 0x40 MLOAD PUSH2 0xCF9 SWAP2 DUP2 MSTORE PUSH1 0x20 ADD SWAP1 JUMP JUMPDEST PUSH1 0xF SLOAD PUSH1 0x1 PUSH1 0x1 PUSH1 0xA0 SHL SUB AND CALLER EQ DUP1 ISZERO SWAP1 PUSH2 0x1689 JUMPI POP PUSH1 0x10 SLOAD PUSH1 0x1 PUSH1 0x1 PUSH1 0xA0 SHL SUB AND CALLER EQ ISZERO JUMPDEST ISZERO PUSH2 0x16A9 JUMPI PUSH1 0x40 MLOAD PUSH4 0x1ED6F38B PUSH1 0xE3 SHL DUP2 MSTORE CALLER PUSH1 0x4 DUP3 ADD MSTORE PUSH1 0x24 ADD PUSH2 0xAB2 JUMP JUMPDEST PUSH0 DUP2 GT PUSH2 0x16CC JUMPI PUSH1 0x40 MLOAD PUSH4 0xCDBC6335 PUSH1 0xE0 SHL DUP2 MSTORE PUSH1 0x4 DUP2 ADD DUP3 SWAP1 MSTORE PUSH1 0x24 ADD PUSH2 0xAB2 JUMP JUMPDEST PUSH1 0x7 DUP2 SWAP1 SSTORE PUSH1 0x40 DUP1 MLOAD CALLER DUP2 MSTORE PUSH1 0x20 DUP2 ADD DUP4 SWAP1 MSTORE PUSH0 DUP1 MLOAD PUSH1 0x20 PUSH2 0x2D39 DUP4 CODECOPY DUP2 MLOAD SWAP2 MSTORE SWAP2 ADD PUSH2 0xB4D JUMP JUMPDEST PUSH1 0xF SLOAD PUSH1 0x1 PUSH1 0x1 PUSH1 0xA0 SHL SUB AND CALLER EQ DUP1 ISZERO SWAP1 PUSH2 0x171A JUMPI POP PUSH1 0x10 SLOAD PUSH1 0x1 PUSH1 0x1 PUSH1 0xA0 SHL SUB AND CALLER EQ ISZERO JUMPDEST ISZERO PUSH2 0x173A JUMPI PUSH1 0x40 MLOAD PUSH4 0x1ED6F38B PUSH1 0xE3 SHL DUP2 MSTORE CALLER PUSH1 0x4 DUP3 ADD MSTORE PUSH1 0x24 ADD PUSH2 0xAB2 JUMP JUMPDEST PUSH0 DUP2 GT PUSH2 0x175D JUMPI PUSH1 0x40 MLOAD PUSH4 0xCDBC6335 PUSH1 0xE0 SHL DUP2 MSTORE PUSH1 0x4 DUP2 ADD DUP3 SWAP1 MSTORE PUSH1 0x24 ADD PUSH2 0xAB2 JUMP JUMPDEST PUSH1 0x4 DUP2 SWAP1 SSTORE PUSH1 0x40 DUP1 MLOAD CALLER DUP2 MSTORE PUSH1 0x20 DUP2 ADD DUP4 SWAP1 MSTORE PUSH0 DUP1 MLOAD PUSH1 0x20 PUSH2 0x2D39 DUP4 CODECOPY DUP2 MLOAD SWAP2 MSTORE SWAP2 ADD PUSH2 0xB4D JUMP JUMPDEST PUSH0 DUP2 GT PUSH2 0x17A8 JUMPI PUSH1 0x40 MLOAD PUSH4 0x2FF4783 PUSH1 0xE4 SHL DUP2 MSTORE PUSH1 0x4 DUP2 ADD DUP3 SWAP1 MSTORE PUSH1 0x24 ADD PUSH2 0xAB2 JUMP JUMPDEST CALLER PUSH0 SWAP1 DUP2 MSTORE PUSH1 0x15 PUSH1 0x20 MSTORE PUSH1 0x40 SWAP1 KECCAK256 SLOAD PUSH1 0xFF AND ISZERO PUSH2 0x17F0 JUMPI CALLER PUSH0 SWAP1 DUP2 MSTORE PUSH1 0x15 PUSH1 0x20 MSTORE PUSH1 0x40 SWAP1 DUP2 SWAP1 KECCAK256 SLOAD SWAP1 MLOAD PUSH4 0x1BE970F PUSH1 0xE6 SHL DUP2 MSTORE PUSH1 0xFF SWAP1 SWAP2 AND ISZERO ISZERO PUSH1 0x4 DUP3 ADD MSTORE PUSH1 0x24 ADD PUSH2 0xAB2 JUMP JUMPDEST CALLER PUSH0 SWAP1 DUP2 MSTORE PUSH1 0x15 PUSH1 0x20 MSTORE PUSH1 0x40 SWAP1 KECCAK256 PUSH1 0x1 ADD SLOAD DUP2 LT PUSH2 0x1824 JUMPI PUSH1 0x40 MLOAD PUSH4 0x636DC6B PUSH1 0xE3 SHL DUP2 MSTORE PUSH1 0x4 DUP2 ADD DUP3 SWAP1 MSTORE PUSH1 0x24 ADD PUSH2 0xAB2 JUMP JUMPDEST CALLER PUSH0 SWAP1 DUP2 MSTORE PUSH1 0x15 PUSH1 0x20 MSTORE PUSH1 0x40 DUP2 KECCAK256 PUSH1 0x1 ADD DUP1 SLOAD DUP4 SWAP3 SWAP1 PUSH2 0x1845 SWAP1 DUP5 SWAP1 PUSH2 0x2C3C JUMP JUMPDEST SWAP1 SWAP2 SSTORE POP POP CALLER PUSH0 SWAP1 DUP2 MSTORE PUSH1 0x15 PUSH1 0x20 MSTORE PUSH1 0x40 DUP2 KECCAK256 PUSH1 0x5 ADD DUP1 SLOAD DUP4 SWAP3 SWAP1 PUSH2 0x186B SWAP1 DUP5 SWAP1 PUSH2 0x2C63 JUMP JUMPDEST SWAP3 POP POP DUP2 SWAP1 SSTORE POP DUP1 PUSH1 0x2 PUSH0 DUP3 DUP3 SLOAD PUSH2 0x1883 SWAP2 SWAP1 PUSH2 0x2C63 JUMP JUMPDEST SWAP3 POP POP DUP2 SWAP1 SSTORE POP DUP1 PUSH1 0x3 PUSH0 DUP3 DUP3 SLOAD PUSH2 0x189B SWAP2 SWAP1 PUSH2 0x2C63 JUMP JUMPDEST SWAP1 SWAP2 SSTORE POP POP PUSH1 0x40 MLOAD PUSH32 0x14EE34C24635186D212F515353DADAE9C226529EDEF2D1FCF5504CB33B5C25AB SWAP1 PUSH2 0xB4D SWAP1 CALLER SWAP1 ADDRESS SWAP1 DUP6 SWAP1 PUSH2 0x2C76 JUMP JUMPDEST PUSH0 DUP3 GT PUSH2 0x18F7 JUMPI PUSH1 0x40 MLOAD PUSH4 0x2FF4783 PUSH1 0xE4 SHL DUP2 MSTORE PUSH1 0x4 DUP2 ADD DUP4 SWAP1 MSTORE PUSH1 0x24 ADD PUSH2 0xAB2 JUMP JUMPDEST PUSH1 0x11 SLOAD DUP2 GT ISZERO PUSH2 0x191D JUMPI PUSH1 0x40 MLOAD PUSH4 0x222A50F3 PUSH1 0xE0 SHL DUP2 MSTORE PUSH1 0x4 DUP2 ADD DUP3 SWAP1 MSTORE PUSH1 0x24 ADD PUSH2 0xAB2 JUMP JUMPDEST PUSH0 DUP2 DUP2 MSTORE PUSH1 0x14 PUSH1 0x20 MSTORE PUSH1 0x40 SWAP1 KECCAK256 SLOAD PUSH2 0x1936 SWAP1 DUP4 SWAP1 PUSH2 0x23A2 JUMP JUMPDEST PUSH0 DUP1 SLOAD PUSH1 0x40 MLOAD PUSH4 0x23B872DD PUSH1 0xE0 SHL DUP2 MSTORE PUSH1 0x1 PUSH1 0x1 PUSH1 0xA0 SHL SUB SWAP1 SWAP2 AND SWAP1 PUSH4 0x23B872DD SWAP1 PUSH2 0x196A SWAP1 CALLER SWAP1 ADDRESS SWAP1 DUP9 SWAP1 PUSH1 0x4 ADD PUSH2 0x2C76 JUMP JUMPDEST PUSH1 0x20 PUSH1 0x40 MLOAD DUP1 DUP4 SUB DUP2 PUSH0 DUP8 GAS CALL ISZERO DUP1 ISZERO PUSH2 0x1986 JUMPI RETURNDATASIZE PUSH0 DUP1 RETURNDATACOPY RETURNDATASIZE PUSH0 REVERT JUMPDEST POP POP POP POP PUSH1 0x40 MLOAD RETURNDATASIZE PUSH1 0x1F NOT PUSH1 0x1F DUP3 ADD AND DUP3 ADD DUP1 PUSH1 0x40 MSTORE POP DUP2 ADD SWAP1 PUSH2 0x19AA SWAP2 SWAP1 PUSH2 0x2C9A JUMP JUMPDEST SWAP1 POP DUP1 PUSH2 0x19CE JUMPI PUSH1 0x40 MLOAD PUSH4 0xD85D3CEF PUSH1 0xE0 SHL DUP2 MSTORE DUP2 ISZERO ISZERO PUSH1 0x4 DUP3 ADD MSTORE PUSH1 0x24 ADD PUSH2 0xAB2 JUMP JUMPDEST PUSH1 0x40 DUP1 MLOAD DUP5 DUP2 MSTORE PUSH1 0x20 DUP2 ADD DUP5 SWAP1 MSTORE PUSH32 0xA89B69C5958EC1CCF0DF0DE746A8708F5B6A6B429430129F16F46F44B319C900 SWAP2 ADD PUSH1 0x40 MLOAD DUP1 SWAP2 SUB SWAP1 LOG1 POP POP POP JUMP JUMPDEST PUSH1 0xF SLOAD PUSH1 0x1 PUSH1 0x1 PUSH1 0xA0 SHL SUB AND CALLER EQ DUP1 ISZERO SWAP1 PUSH2 0x1A32 JUMPI POP PUSH1 0x10 SLOAD PUSH1 0x1 PUSH1 0x1 PUSH1 0xA0 SHL SUB AND CALLER EQ ISZERO JUMPDEST ISZERO PUSH2 0x1A52 JUMPI PUSH1 0x40 MLOAD PUSH4 0x1ED6F38B PUSH1 0xE3 SHL DUP2 MSTORE CALLER PUSH1 0x4 DUP3 ADD MSTORE PUSH1 0x24 ADD PUSH2 0xAB2 JUMP JUMPDEST PUSH0 DUP2 GT PUSH2 0x1A75 JUMPI PUSH1 0x40 MLOAD PUSH4 0xCDBC6335 PUSH1 0xE0 SHL DUP2 MSTORE PUSH1 0x4 DUP2 ADD DUP3 SWAP1 MSTORE PUSH1 0x24 ADD PUSH2 0xAB2 JUMP JUMPDEST PUSH1 0x6 DUP2 SWAP1 SSTORE PUSH1 0x40 DUP1 MLOAD CALLER DUP2 MSTORE PUSH1 0x20 DUP2 ADD DUP4 SWAP1 MSTORE PUSH0 DUP1 MLOAD PUSH1 0x20 PUSH2 0x2D39 DUP4 CODECOPY DUP2 MLOAD SWAP2 MSTORE SWAP2 ADD PUSH2 0xB4D JUMP JUMPDEST PUSH1 0xF SLOAD PUSH1 0x1 PUSH1 0x1 PUSH1 0xA0 SHL SUB AND CALLER EQ DUP1 ISZERO SWAP1 PUSH2 0x1AC3 JUMPI POP PUSH1 0x10 SLOAD PUSH1 0x1 PUSH1 0x1 PUSH1 0xA0 SHL SUB AND CALLER EQ ISZERO JUMPDEST ISZERO PUSH2 0x1AE3 JUMPI PUSH1 0x40 MLOAD PUSH4 0x1ED6F38B PUSH1 0xE3 SHL DUP2 MSTORE CALLER PUSH1 0x4 DUP3 ADD MSTORE PUSH1 0x24 ADD PUSH2 0xAB2 JUMP JUMPDEST PUSH0 DUP2 GT PUSH2 0x1B06 JUMPI PUSH1 0x40 MLOAD PUSH4 0xCDBC6335 PUSH1 0xE0 SHL DUP2 MSTORE PUSH1 0x4 DUP2 ADD DUP3 SWAP1 MSTORE PUSH1 0x24 ADD PUSH2 0xAB2 JUMP JUMPDEST PUSH1 0x5 DUP2 SWAP1 SSTORE PUSH1 0x40 DUP1 MLOAD CALLER DUP2 MSTORE PUSH1 0x20 DUP2 ADD DUP4 SWAP1 MSTORE PUSH0 DUP1 MLOAD PUSH1 0x20 PUSH2 0x2D39 DUP4 CODECOPY DUP2 MLOAD SWAP2 MSTORE SWAP2 ADD PUSH2 0xB4D JUMP JUMPDEST PUSH1 0xF SLOAD PUSH1 0x1 PUSH1 0x1 PUSH1 0xA0 SHL SUB AND CALLER EQ DUP1 ISZERO SWAP1 PUSH2 0x1B54 JUMPI POP PUSH1 0x10 SLOAD PUSH1 0x1 PUSH1 0x1 PUSH1 0xA0 SHL SUB AND CALLER EQ ISZERO JUMPDEST ISZERO PUSH2 0x1B74 JUMPI PUSH1 0x40 MLOAD PUSH4 0x1ED6F38B PUSH1 0xE3 SHL DUP2 MSTORE CALLER PUSH1 0x4 DUP3 ADD MSTORE PUSH1 0x24 ADD PUSH2 0xAB2 JUMP JUMPDEST PUSH1 0x1 PUSH1 0x1 PUSH1 0xA0 SHL SUB DUP2 AND PUSH2 0x1BA6 JUMPI PUSH1 0x40 MLOAD PUSH4 0xE4CFA94D PUSH1 0xE0 SHL DUP2 MSTORE PUSH1 0x1 PUSH1 0x1 PUSH1 0xA0 SHL SUB DUP3 AND PUSH1 0x4 DUP3 ADD MSTORE PUSH1 0x24 ADD PUSH2 0xAB2 JUMP JUMPDEST PUSH1 0xE DUP1 SLOAD PUSH1 0x1 PUSH1 0x1 PUSH1 0xA0 SHL SUB NOT AND PUSH1 0x1 PUSH1 0x1 PUSH1 0xA0 SHL SUB DUP4 AND SWAP1 DUP2 OR SWAP1 SWAP2 SSTORE PUSH1 0x40 DUP1 MLOAD CALLER DUP2 MSTORE PUSH1 0x20 DUP2 ADD SWAP3 SWAP1 SWAP3 MSTORE PUSH32 0x75F91F3CECB8C46F20150F60F77A6E1F0DE00776627692DB82EF1960AF84C33A SWAP2 ADD PUSH2 0xB4D JUMP JUMPDEST PUSH1 0xF SLOAD PUSH1 0x1 PUSH1 0x1 PUSH1 0xA0 SHL SUB AND CALLER EQ DUP1 ISZERO SWAP1 PUSH2 0x1C21 JUMPI POP PUSH1 0x10 SLOAD PUSH1 0x1 PUSH1 0x1 PUSH1 0xA0 SHL SUB AND CALLER EQ ISZERO JUMPDEST ISZERO PUSH2 0x1C41 JUMPI PUSH1 0x40 MLOAD PUSH4 0x1ED6F38B PUSH1 0xE3 SHL DUP2 MSTORE CALLER PUSH1 0x4 DUP3 ADD MSTORE PUSH1 0x24 ADD PUSH2 0xAB2 JUMP JUMPDEST PUSH1 0x1 PUSH1 0x1 PUSH1 0xA0 SHL SUB DUP3 AND PUSH2 0x1C73 JUMPI PUSH1 0x40 MLOAD PUSH4 0xE4CFA94D PUSH1 0xE0 SHL DUP2 MSTORE PUSH1 0x1 PUSH1 0x1 PUSH1 0xA0 SHL SUB DUP4 AND PUSH1 0x4 DUP3 ADD MSTORE PUSH1 0x24 ADD PUSH2 0xAB2 JUMP JUMPDEST PUSH1 0x1 DUP2 ISZERO ISZERO EQ DUP1 ISZERO SWAP1 PUSH2 0x1C85 JUMPI POP DUP1 ISZERO ISZERO JUMPDEST ISZERO PUSH2 0x1CA7 JUMPI PUSH1 0x40 MLOAD PUSH4 0x81ED1AE3 PUSH1 0xE0 SHL DUP2 MSTORE DUP2 ISZERO ISZERO PUSH1 0x4 DUP3 ADD MSTORE PUSH1 0x24 ADD PUSH2 0xAB2 JUMP JUMPDEST DUP1 ISZERO ISZERO PUSH1 0x1 SUB PUSH2 0x1CD8 JUMPI PUSH1 0x1 PUSH1 0x1 PUSH1 0xA0 SHL SUB DUP3 AND PUSH0 SWAP1 DUP2 MSTORE PUSH1 0x15 PUSH1 0x20 MSTORE PUSH1 0x40 SWAP1 KECCAK256 DUP1 SLOAD PUSH1 0xFF NOT AND PUSH1 0x1 OR SWAP1 SSTORE PUSH2 0x1CF8 JUMP JUMPDEST PUSH1 0x1 PUSH1 0x1 PUSH1 0xA0 SHL SUB DUP3 AND PUSH0 SWAP1 DUP2 MSTORE PUSH1 0x15 PUSH1 0x20 MSTORE PUSH1 0x40 SWAP1 KECCAK256 DUP1 SLOAD PUSH1 0xFF NOT AND SWAP1 SSTORE JUMPDEST PUSH1 0x1 PUSH1 0x1 PUSH1 0xA0 SHL SUB DUP3 AND PUSH0 DUP2 DUP2 MSTORE PUSH1 0x15 PUSH1 0x20 SWAP1 DUP2 MSTORE PUSH1 0x40 SWAP2 DUP3 SWAP1 KECCAK256 SLOAD DUP3 MLOAD CALLER DUP2 MSTORE SWAP2 DUP3 ADD SWAP4 SWAP1 SWAP4 MSTORE PUSH1 0xFF SWAP1 SWAP3 AND ISZERO ISZERO SWAP1 DUP3 ADD MSTORE PUSH32 0x7A1655BC3160D3413BF1D5235E55BE12E01B7E8BC2436A9BFF09C3B4FA2421F1 SWAP1 PUSH1 0x60 ADD PUSH2 0xCF9 JUMP JUMPDEST PUSH1 0xE SLOAD PUSH1 0x1 PUSH1 0x1 PUSH1 0xA0 SHL SUB AND CALLER EQ DUP1 ISZERO SWAP1 PUSH2 0x1D7B JUMPI POP PUSH1 0xF SLOAD PUSH1 0x1 PUSH1 0x1 PUSH1 0xA0 SHL SUB AND CALLER EQ ISZERO JUMPDEST DUP1 ISZERO PUSH2 0x1D92 JUMPI POP PUSH1 0x10 SLOAD PUSH1 0x1 PUSH1 0x1 PUSH1 0xA0 SHL SUB AND CALLER EQ ISZERO JUMPDEST ISZERO PUSH2 0x1DB2 JUMPI PUSH1 0x40 MLOAD PUSH4 0x1ED6F38B PUSH1 0xE3 SHL DUP2 MSTORE CALLER PUSH1 0x4 DUP3 ADD MSTORE PUSH1 0x24 ADD PUSH2 0xAB2 JUMP JUMPDEST PUSH1 0x2 SLOAD ISZERO DUP1 ISZERO PUSH2 0x1DC2 JUMPI POP PUSH1 0x1 SLOAD ISZERO JUMPDEST ISZERO PUSH2 0x1DEF JUMPI PUSH1 0x2 SLOAD PUSH1 0x1 SLOAD PUSH1 0x40 MLOAD PUSH4 0x2FD92D8D PUSH1 0xE0 SHL DUP2 MSTORE PUSH1 0x4 DUP2 ADD SWAP3 SWAP1 SWAP3 MSTORE PUSH1 0x24 DUP3 ADD MSTORE PUSH1 0x44 ADD PUSH2 0xAB2 JUMP JUMPDEST PUSH0 DUP1 PUSH0 PUSH2 0x1DFA PUSH2 0x2400 JUMP JUMPDEST SWAP2 SWAP5 POP SWAP3 POP SWAP1 POP PUSH0 DUP1 JUMPDEST PUSH1 0x8 SLOAD DUP2 LT ISZERO PUSH2 0x1FE2 JUMPI PUSH0 DUP2 DUP2 MSTORE PUSH1 0x13 PUSH1 0x20 SWAP1 DUP2 MSTORE PUSH1 0x40 DUP1 DUP4 KECCAK256 SLOAD PUSH1 0x1 PUSH1 0x1 PUSH1 0xA0 SHL SUB AND DUP4 MSTORE PUSH1 0x15 SWAP1 SWAP2 MSTORE SWAP1 KECCAK256 SLOAD PUSH1 0xFF AND PUSH2 0x1FDA JUMPI PUSH1 0x3 SLOAD PUSH0 DUP3 DUP2 MSTORE PUSH1 0x13 PUSH1 0x20 SWAP1 DUP2 MSTORE PUSH1 0x40 DUP1 DUP4 KECCAK256 SLOAD PUSH1 0x1 PUSH1 0x1 PUSH1 0xA0 SHL SUB AND DUP4 MSTORE PUSH1 0x15 SWAP1 SWAP2 MSTORE DUP2 KECCAK256 PUSH1 0x5 ADD SLOAD SWAP1 SWAP2 SWAP1 PUSH2 0x1E72 SWAP1 PUSH2 0x2710 PUSH2 0x2CB5 JUMP JUMPDEST PUSH2 0x1E7C SWAP2 SWAP1 PUSH2 0x2CCC JUMP JUMPDEST SWAP1 POP PUSH0 PUSH2 0x1E89 DUP7 DUP4 PUSH2 0x256D JUMP JUMPDEST SWAP1 POP DUP1 PUSH1 0x2 PUSH0 DUP3 DUP3 SLOAD PUSH2 0x1E9C SWAP2 SWAP1 PUSH2 0x2C3C JUMP JUMPDEST SWAP1 SWAP2 SSTORE POP PUSH2 0x1EAC SWAP1 POP DUP2 DUP6 PUSH2 0x2C63 JUMP JUMPDEST SWAP4 POP DUP5 PUSH1 0x1 PUSH0 DUP3 DUP3 SLOAD PUSH2 0x1EBF SWAP2 SWAP1 PUSH2 0x2C3C JUMP JUMPDEST SWAP1 SWAP2 SSTORE POP POP PUSH0 DUP4 DUP2 MSTORE PUSH1 0x13 PUSH1 0x20 SWAP1 DUP2 MSTORE PUSH1 0x40 DUP1 DUP4 KECCAK256 SLOAD PUSH1 0x1 PUSH1 0x1 PUSH1 0xA0 SHL SUB AND DUP4 MSTORE PUSH1 0x15 SWAP1 SWAP2 MSTORE DUP2 KECCAK256 PUSH1 0x3 ADD DUP1 SLOAD DUP8 SWAP3 SWAP1 PUSH2 0x1EFA SWAP1 DUP5 SWAP1 PUSH2 0x2C63 JUMP JUMPDEST SWAP1 SWAP2 SSTORE POP POP PUSH0 DUP4 DUP2 MSTORE PUSH1 0x13 PUSH1 0x20 SWAP1 DUP2 MSTORE PUSH1 0x40 DUP1 DUP4 KECCAK256 SLOAD PUSH1 0x1 PUSH1 0x1 PUSH1 0xA0 SHL SUB AND DUP4 MSTORE PUSH1 0x15 SWAP1 SWAP2 MSTORE DUP2 KECCAK256 PUSH1 0x4 ADD DUP1 SLOAD DUP4 SWAP3 SWAP1 PUSH2 0x1F35 SWAP1 DUP5 SWAP1 PUSH2 0x2C63 JUMP JUMPDEST SWAP1 SWAP2 SSTORE POP PUSH0 SWAP1 POP PUSH2 0x1F46 DUP7 DUP4 PUSH2 0x2C63 JUMP JUMPDEST PUSH0 DUP6 DUP2 MSTORE PUSH1 0x13 PUSH1 0x20 SWAP1 DUP2 MSTORE PUSH1 0x40 DUP1 DUP4 KECCAK256 SLOAD PUSH1 0x1 PUSH1 0x1 PUSH1 0xA0 SHL SUB AND DUP4 MSTORE PUSH1 0x15 SWAP1 SWAP2 MSTORE DUP2 KECCAK256 PUSH1 0x1 ADD DUP1 SLOAD SWAP3 SWAP4 POP DUP4 SWAP3 SWAP1 SWAP2 SWAP1 PUSH2 0x1F81 SWAP1 DUP5 SWAP1 PUSH2 0x2C63 JUMP JUMPDEST SWAP1 SWAP2 SSTORE POP POP DUP8 DUP6 GT ISZERO PUSH2 0x1FD6 JUMPI PUSH1 0x40 MLOAD PUSH3 0x461BCD PUSH1 0xE5 SHL DUP2 MSTORE PUSH1 0x20 PUSH1 0x4 DUP3 ADD MSTORE PUSH1 0x1A PUSH1 0x24 DUP3 ADD MSTORE PUSH32 0x416D6F756E742069732067726561746572207468656E20353025000000000000 PUSH1 0x44 DUP3 ADD MSTORE PUSH1 0x64 ADD PUSH2 0xAB2 JUMP JUMPDEST POP POP POP JUMPDEST PUSH1 0x1 ADD PUSH2 0x1E04 JUMP JUMPDEST POP PUSH1 0x2 SLOAD PUSH1 0x1 SLOAD PUSH1 0x40 DUP1 MLOAD CALLER DUP2 MSTORE PUSH1 0x20 DUP2 ADD SWAP4 SWAP1 SWAP4 MSTORE DUP3 ADD MSTORE PUSH32 0xEE826440768329B0C72F81331212EE31FCDAC1EA79A248D24821E40C34E58020 SWAP1 PUSH1 0x60 ADD PUSH1 0x40 MLOAD DUP1 SWAP2 SUB SWAP1 LOG1 POP POP POP POP JUMP JUMPDEST PUSH1 0xF SLOAD PUSH1 0x1 PUSH1 0x1 PUSH1 0xA0 SHL SUB AND CALLER EQ DUP1 ISZERO SWAP1 PUSH2 0x2054 JUMPI POP PUSH1 0x10 SLOAD PUSH1 0x1 PUSH1 0x1 PUSH1 0xA0 SHL SUB AND CALLER EQ ISZERO JUMPDEST ISZERO PUSH2 0x2074 JUMPI PUSH1 0x40 MLOAD PUSH4 0x1ED6F38B PUSH1 0xE3 SHL DUP2 MSTORE CALLER PUSH1 0x4 DUP3 ADD MSTORE PUSH1 0x24 ADD PUSH2 0xAB2 JUMP JUMPDEST PUSH0 DUP2 GT PUSH2 0x2097 JUMPI PUSH1 0x40 MLOAD PUSH4 0xCDBC6335 PUSH1 0xE0 SHL DUP2 MSTORE PUSH1 0x4 DUP2 ADD DUP3 SWAP1 MSTORE PUSH1 0x24 ADD PUSH2 0xAB2 JUMP JUMPDEST PUSH0 DUP3 DUP2 MSTORE PUSH1 0x14 PUSH1 0x20 SWAP1 DUP2 MSTORE PUSH1 0x40 SWAP2 DUP3 SWAP1 KECCAK256 DUP4 SWAP1 SSTORE DUP2 MLOAD CALLER DUP2 MSTORE SWAP1 DUP2 ADD DUP4 SWAP1 MSTORE PUSH0 DUP1 MLOAD PUSH1 0x20 PUSH2 0x2D39 DUP4 CODECOPY DUP2 MLOAD SWAP2 MSTORE SWAP2 ADD PUSH2 0xCF9 JUMP JUMPDEST PUSH2 0x20D3 PUSH2 0x22D7 JUMP JUMPDEST PUSH1 0x1 PUSH1 0x1 PUSH1 0xA0 SHL SUB DUP2 AND PUSH2 0x20FC JUMPI PUSH1 0x40 MLOAD PUSH4 0x1E4FBDF7 PUSH1 0xE0 SHL DUP2 MSTORE PUSH0 PUSH1 0x4 DUP3 ADD MSTORE PUSH1 0x24 ADD PUSH2 0xAB2 JUMP JUMPDEST PUSH2 0x2105 DUP2 PUSH2 0x2332 JUMP JUMPDEST POP JUMP JUMPDEST PUSH2 0x2110 PUSH2 0x25D6 JUMP JUMPDEST PUSH2 0x2105 DUP2 PUSH2 0x261F JUMP JUMPDEST PUSH2 0x1330 PUSH2 0x25D6 JUMP JUMPDEST ADDRESS PUSH1 0x1 PUSH1 0x1 PUSH1 0xA0 SHL SUB PUSH32 0x0 AND EQ DUP1 PUSH2 0x21A7 JUMPI POP PUSH32 0x0 PUSH1 0x1 PUSH1 0x1 PUSH1 0xA0 SHL SUB AND PUSH2 0x219B PUSH0 DUP1 MLOAD PUSH1 0x20 PUSH2 0x2D19 DUP4 CODECOPY DUP2 MLOAD SWAP2 MSTORE SLOAD PUSH1 0x1 PUSH1 0x1 PUSH1 0xA0 SHL SUB AND SWAP1 JUMP JUMPDEST PUSH1 0x1 PUSH1 0x1 PUSH1 0xA0 SHL SUB AND EQ ISZERO JUMPDEST ISZERO PUSH2 0x1330 JUMPI PUSH1 0x40 MLOAD PUSH4 0x703E46DD PUSH1 0xE1 SHL DUP2 MSTORE PUSH1 0x4 ADD PUSH1 0x40 MLOAD DUP1 SWAP2 SUB SWAP1 REVERT JUMPDEST PUSH2 0x2105 PUSH2 0x22D7 JUMP JUMPDEST DUP2 PUSH1 0x1 PUSH1 0x1 PUSH1 0xA0 SHL SUB AND PUSH4 0x52D1902D PUSH1 0x40 MLOAD DUP2 PUSH4 0xFFFFFFFF AND PUSH1 0xE0 SHL DUP2 MSTORE PUSH1 0x4 ADD PUSH1 0x20 PUSH1 0x40 MLOAD DUP1 DUP4 SUB DUP2 DUP7 GAS STATICCALL SWAP3 POP POP POP DUP1 ISZERO PUSH2 0x2227 JUMPI POP PUSH1 0x40 DUP1 MLOAD PUSH1 0x1F RETURNDATASIZE SWAP1 DUP2 ADD PUSH1 0x1F NOT AND DUP3 ADD SWAP1 SWAP3 MSTORE PUSH2 0x2224 SWAP2 DUP2 ADD SWAP1 PUSH2 0x2CEB JUMP JUMPDEST PUSH1 0x1 JUMPDEST PUSH2 0x224F JUMPI PUSH1 0x40 MLOAD PUSH4 0x4C9C8CE3 PUSH1 0xE0 SHL DUP2 MSTORE PUSH1 0x1 PUSH1 0x1 PUSH1 0xA0 SHL SUB DUP4 AND PUSH1 0x4 DUP3 ADD MSTORE PUSH1 0x24 ADD PUSH2 0xAB2 JUMP JUMPDEST PUSH0 DUP1 MLOAD PUSH1 0x20 PUSH2 0x2D19 DUP4 CODECOPY DUP2 MLOAD SWAP2 MSTORE DUP2 EQ PUSH2 0x227F JUMPI PUSH1 0x40 MLOAD PUSH4 0x2A875269 PUSH1 0xE2 SHL DUP2 MSTORE PUSH1 0x4 DUP2 ADD DUP3 SWAP1 MSTORE PUSH1 0x24 ADD PUSH2 0xAB2 JUMP JUMPDEST PUSH2 0x2289 DUP4 DUP4 PUSH2 0x2627 JUMP JUMPDEST POP POP POP JUMP JUMPDEST ADDRESS PUSH1 0x1 PUSH1 0x1 PUSH1 0xA0 SHL SUB PUSH32 0x0 AND EQ PUSH2 0x1330 JUMPI PUSH1 0x40 MLOAD PUSH4 0x703E46DD PUSH1 0xE1 SHL DUP2 MSTORE PUSH1 0x4 ADD PUSH1 0x40 MLOAD DUP1 SWAP2 SUB SWAP1 REVERT JUMPDEST CALLER PUSH2 0x2309 PUSH32 0x9016D09D72D40FDAE2FD8CEAC6B6234C7706214FD39C1CD1E609A0528C199300 SLOAD PUSH1 0x1 PUSH1 0x1 PUSH1 0xA0 SHL SUB AND SWAP1 JUMP JUMPDEST PUSH1 0x1 PUSH1 0x1 PUSH1 0xA0 SHL SUB AND EQ PUSH2 0x1330 JUMPI PUSH1 0x40 MLOAD PUSH4 0x118CDAA7 PUSH1 0xE0 SHL DUP2 MSTORE CALLER PUSH1 0x4 DUP3 ADD MSTORE PUSH1 0x24 ADD PUSH2 0xAB2 JUMP JUMPDEST PUSH32 0x9016D09D72D40FDAE2FD8CEAC6B6234C7706214FD39C1CD1E609A0528C199300 DUP1 SLOAD PUSH1 0x1 PUSH1 0x1 PUSH1 0xA0 SHL SUB NOT DUP2 AND PUSH1 0x1 PUSH1 0x1 PUSH1 0xA0 SHL SUB DUP5 DUP2 AND SWAP2 DUP3 OR DUP5 SSTORE PUSH1 0x40 MLOAD SWAP3 AND SWAP2 DUP3 SWAP1 PUSH32 0x8BE0079C531659141344CD1FD0A4F28419497F9722A3DAAFE3B4186F6B6457E0 SWAP1 PUSH0 SWAP1 LOG3 POP POP POP JUMP JUMPDEST PUSH0 PUSH2 0x23AF DUP3 PUSH2 0x2710 PUSH2 0x2C3C JUMP JUMPDEST SWAP1 POP PUSH0 PUSH2 0x23BC DUP5 DUP4 PUSH2 0x256D JUMP JUMPDEST SWAP1 POP PUSH0 PUSH2 0x23C9 DUP6 DUP6 PUSH2 0x256D JUMP JUMPDEST SWAP1 POP DUP2 PUSH1 0x2 PUSH0 DUP3 DUP3 SLOAD PUSH2 0x23DC SWAP2 SWAP1 PUSH2 0x2C63 JUMP JUMPDEST SWAP3 POP POP DUP2 SWAP1 SSTORE POP DUP1 PUSH1 0x1 PUSH0 DUP3 DUP3 SLOAD PUSH2 0x23F4 SWAP2 SWAP1 PUSH2 0x2C63 JUMP JUMPDEST SWAP1 SWAP2 SSTORE POP POP POP POP POP POP POP JUMP JUMPDEST PUSH0 DUP1 PUSH0 DUP1 PUSH2 0x2412 PUSH1 0x2 SLOAD PUSH2 0x1388 PUSH2 0x256D JUMP JUMPDEST SWAP1 POP PUSH0 PUSH2 0x2421 DUP3 PUSH1 0x5 SLOAD PUSH2 0x256D JUMP JUMPDEST SWAP1 POP PUSH0 PUSH2 0x2430 DUP4 PUSH1 0x6 SLOAD PUSH2 0x256D JUMP JUMPDEST SWAP1 POP PUSH0 PUSH2 0x243F DUP5 PUSH1 0x7 SLOAD PUSH2 0x256D JUMP JUMPDEST SWAP1 POP PUSH0 PUSH2 0x2450 PUSH1 0x1 SLOAD PUSH1 0x4 SLOAD PUSH2 0x256D JUMP JUMPDEST SWAP1 POP PUSH0 PUSH1 0x8 SLOAD GT PUSH2 0x247A JUMPI PUSH1 0x8 SLOAD PUSH1 0x40 MLOAD PUSH4 0x7CA8D0DB PUSH1 0xE0 SHL DUP2 MSTORE PUSH1 0x4 ADD PUSH2 0xAB2 SWAP2 DUP2 MSTORE PUSH1 0x20 ADD SWAP1 JUMP JUMPDEST PUSH0 PUSH1 0x8 SLOAD DUP3 PUSH2 0x2489 SWAP2 SWAP1 PUSH2 0x2CCC JUMP JUMPDEST SWAP1 POP PUSH2 0x2495 DUP4 DUP6 PUSH2 0x2C63 JUMP JUMPDEST PUSH1 0x2 PUSH0 DUP3 DUP3 SLOAD PUSH2 0x24A5 SWAP2 SWAP1 PUSH2 0x2C3C JUMP JUMPDEST SWAP3 POP POP DUP2 SWAP1 SSTORE POP DUP4 PUSH1 0x1 PUSH0 DUP3 DUP3 SLOAD PUSH2 0x24BD SWAP2 SWAP1 PUSH2 0x2C63 JUMP JUMPDEST SWAP1 SWAP2 SSTORE POP POP PUSH0 DUP1 SLOAD PUSH1 0x9 SLOAD PUSH1 0x40 MLOAD PUSH4 0xA9059CBB PUSH1 0xE0 SHL DUP2 MSTORE PUSH1 0x1 PUSH1 0x1 PUSH1 0xA0 SHL SUB SWAP2 DUP3 AND PUSH1 0x4 DUP3 ADD MSTORE PUSH1 0x24 DUP2 ADD DUP8 SWAP1 MSTORE SWAP2 AND SWAP1 PUSH4 0xA9059CBB SWAP1 PUSH1 0x44 ADD PUSH1 0x20 PUSH1 0x40 MLOAD DUP1 DUP4 SUB DUP2 PUSH0 DUP8 GAS CALL ISZERO DUP1 ISZERO PUSH2 0x2514 JUMPI RETURNDATASIZE PUSH0 DUP1 RETURNDATACOPY RETURNDATASIZE PUSH0 REVERT JUMPDEST POP POP POP POP PUSH1 0x40 MLOAD RETURNDATASIZE PUSH1 0x1F NOT PUSH1 0x1F DUP3 ADD AND DUP3 ADD DUP1 PUSH1 0x40 MSTORE POP DUP2 ADD SWAP1 PUSH2 0x2538 SWAP2 SWAP1 PUSH2 0x2C9A JUMP JUMPDEST SWAP1 POP DUP1 PUSH2 0x255C JUMPI PUSH1 0x40 MLOAD PUSH4 0xD85D3CEF PUSH1 0xE0 SHL DUP2 MSTORE DUP2 ISZERO ISZERO PUSH1 0x4 DUP3 ADD MSTORE PUSH1 0x24 ADD PUSH2 0xAB2 JUMP JUMPDEST POP SWAP5 SWAP9 SWAP4 SWAP8 POP SWAP4 SWAP6 POP SWAP2 SWAP4 POP POP POP POP JUMP JUMPDEST PUSH0 DUP1 DUP4 GT PUSH2 0x2591 JUMPI PUSH1 0x40 MLOAD PUSH4 0x9B7220AF PUSH1 0xE0 SHL DUP2 MSTORE PUSH1 0x4 DUP2 ADD DUP5 SWAP1 MSTORE PUSH1 0x24 ADD PUSH2 0xAB2 JUMP JUMPDEST PUSH0 DUP3 GT PUSH2 0x25B4 JUMPI PUSH1 0x40 MLOAD PUSH4 0xB015AA7 PUSH1 0xE3 SHL DUP2 MSTORE PUSH1 0x4 DUP2 ADD DUP4 SWAP1 MSTORE PUSH1 0x24 ADD PUSH2 0xAB2 JUMP JUMPDEST PUSH0 PUSH2 0x2710 PUSH2 0x25C2 DUP5 DUP7 PUSH2 0x2CB5 JUMP JUMPDEST PUSH2 0x25CC SWAP2 SWAP1 PUSH2 0x2CCC JUMP JUMPDEST SWAP2 POP POP JUMPDEST SWAP3 SWAP2 POP POP JUMP JUMPDEST PUSH32 0xF0C57E16840DF040F15088DC2F81FE391C3923BEC73E23A9662EFC9C229C6A00 SLOAD PUSH1 0x1 PUSH1 0x40 SHL SWAP1 DIV PUSH1 0xFF AND PUSH2 0x1330 JUMPI PUSH1 0x40 MLOAD PUSH4 0x1AFCD79F PUSH1 0xE3 SHL DUP2 MSTORE PUSH1 0x4 ADD PUSH1 0x40 MLOAD DUP1 SWAP2 SUB SWAP1 REVERT JUMPDEST PUSH2 0x20D3 PUSH2 0x25D6 JUMP JUMPDEST PUSH2 0x2630 DUP3 PUSH2 0x267C JUMP JUMPDEST PUSH1 0x40 MLOAD PUSH1 0x1 PUSH1 0x1 PUSH1 0xA0 SHL SUB DUP4 AND SWAP1 PUSH32 0xBC7CD75A20EE27FD9ADEBAB32041F755214DBC6BFFA90CC0225B39DA2E5C2D3B SWAP1 PUSH0 SWAP1 LOG2 DUP1 MLOAD ISZERO PUSH2 0x2674 JUMPI PUSH2 0x2289 DUP3 DUP3 PUSH2 0x26DF JUMP JUMPDEST PUSH2 0xDD9 PUSH2 0x2751 JUMP JUMPDEST DUP1 PUSH1 0x1 PUSH1 0x1 PUSH1 0xA0 SHL SUB AND EXTCODESIZE PUSH0 SUB PUSH2 0x26B1 JUMPI PUSH1 0x40 MLOAD PUSH4 0x4C9C8CE3 PUSH1 0xE0 SHL DUP2 MSTORE PUSH1 0x1 PUSH1 0x1 PUSH1 0xA0 SHL SUB DUP3 AND PUSH1 0x4 DUP3 ADD MSTORE PUSH1 0x24 ADD PUSH2 0xAB2 JUMP JUMPDEST PUSH0 DUP1 MLOAD PUSH1 0x20 PUSH2 0x2D19 DUP4 CODECOPY DUP2 MLOAD SWAP2 MSTORE DUP1 SLOAD PUSH1 0x1 PUSH1 0x1 PUSH1 0xA0 SHL SUB NOT AND PUSH1 0x1 PUSH1 0x1 PUSH1 0xA0 SHL SUB SWAP3 SWAP1 SWAP3 AND SWAP2 SWAP1 SWAP2 OR SWAP1 SSTORE JUMP JUMPDEST PUSH1 0x60 PUSH0 DUP1 DUP5 PUSH1 0x1 PUSH1 0x1 PUSH1 0xA0 SHL SUB AND DUP5 PUSH1 0x40 MLOAD PUSH2 0x26FB SWAP2 SWAP1 PUSH2 0x2D02 JUMP JUMPDEST PUSH0 PUSH1 0x40 MLOAD DUP1 DUP4 SUB DUP2 DUP6 GAS DELEGATECALL SWAP2 POP POP RETURNDATASIZE DUP1 PUSH0 DUP2 EQ PUSH2 0x2733 JUMPI PUSH1 0x40 MLOAD SWAP2 POP PUSH1 0x1F NOT PUSH1 0x3F RETURNDATASIZE ADD AND DUP3 ADD PUSH1 0x40 MSTORE RETURNDATASIZE DUP3 MSTORE RETURNDATASIZE PUSH0 PUSH1 0x20 DUP5 ADD RETURNDATACOPY PUSH2 0x2738 JUMP JUMPDEST PUSH1 0x60 SWAP2 POP JUMPDEST POP SWAP2 POP SWAP2 POP PUSH2 0x2748 DUP6 DUP4 DUP4 PUSH2 0x2770 JUMP JUMPDEST SWAP6 SWAP5 POP POP POP POP POP JUMP JUMPDEST CALLVALUE ISZERO PUSH2 0x1330 JUMPI PUSH1 0x40 MLOAD PUSH4 0xB398979F PUSH1 0xE0 SHL DUP2 MSTORE PUSH1 0x4 ADD PUSH1 0x40 MLOAD DUP1 SWAP2 SUB SWAP1 REVERT JUMPDEST PUSH1 0x60 DUP3 PUSH2 0x2785 JUMPI PUSH2 0x2780 DUP3 PUSH2 0x27CF JUMP JUMPDEST PUSH2 0x27C8 JUMP JUMPDEST DUP2 MLOAD ISZERO DUP1 ISZERO PUSH2 0x279C JUMPI POP PUSH1 0x1 PUSH1 0x1 PUSH1 0xA0 SHL SUB DUP5 AND EXTCODESIZE ISZERO JUMPDEST ISZERO PUSH2 0x27C5 JUMPI PUSH1 0x40 MLOAD PUSH4 0x9996B315 PUSH1 0xE0 SHL DUP2 MSTORE PUSH1 0x1 PUSH1 0x1 PUSH1 0xA0 SHL SUB DUP6 AND PUSH1 0x4 DUP3 ADD MSTORE PUSH1 0x24 ADD PUSH2 0xAB2 JUMP JUMPDEST POP DUP1 JUMPDEST SWAP4 SWAP3 POP POP POP JUMP JUMPDEST DUP1 MLOAD ISZERO PUSH2 0x27DF JUMPI DUP1 MLOAD DUP1 DUP3 PUSH1 0x20 ADD REVERT JUMPDEST PUSH1 0x40 MLOAD PUSH4 0xA12F521 PUSH1 0xE1 SHL DUP2 MSTORE PUSH1 0x4 ADD PUSH1 0x40 MLOAD DUP1 SWAP2 SUB SWAP1 REVERT JUMPDEST DUP1 CALLDATALOAD PUSH1 0x1 PUSH1 0x1 PUSH1 0xA0 SHL SUB DUP2 AND DUP2 EQ PUSH2 0x280E JUMPI PUSH0 DUP1 REVERT JUMPDEST SWAP2 SWAP1 POP JUMP JUMPDEST PUSH0 DUP1 PUSH0 DUP1 PUSH0 PUSH1 0xA0 DUP7 DUP9 SUB SLT ISZERO PUSH2 0x2827 JUMPI PUSH0 DUP1 REVERT JUMPDEST PUSH2 0x2830 DUP7 PUSH2 0x27F8 JUMP JUMPDEST SWAP5 POP PUSH2 0x283E PUSH1 0x20 DUP8 ADD PUSH2 0x27F8 JUMP JUMPDEST SWAP4 POP PUSH2 0x284C PUSH1 0x40 DUP8 ADD PUSH2 0x27F8 JUMP JUMPDEST SWAP3 POP PUSH2 0x285A PUSH1 0x60 DUP8 ADD PUSH2 0x27F8 JUMP JUMPDEST SWAP2 POP PUSH2 0x2868 PUSH1 0x80 DUP8 ADD PUSH2 0x27F8 JUMP JUMPDEST SWAP1 POP SWAP3 SWAP6 POP SWAP3 SWAP6 SWAP1 SWAP4 POP JUMP JUMPDEST PUSH0 PUSH1 0x20 DUP3 DUP5 SUB SLT ISZERO PUSH2 0x2884 JUMPI PUSH0 DUP1 REVERT JUMPDEST POP CALLDATALOAD SWAP2 SWAP1 POP JUMP JUMPDEST PUSH4 0x4E487B71 PUSH1 0xE0 SHL PUSH0 MSTORE PUSH1 0x41 PUSH1 0x4 MSTORE PUSH1 0x24 PUSH0 REVERT JUMPDEST PUSH1 0x40 MLOAD PUSH1 0x1F DUP3 ADD PUSH1 0x1F NOT AND DUP2 ADD PUSH8 0xFFFFFFFFFFFFFFFF DUP2 GT DUP3 DUP3 LT OR ISZERO PUSH2 0x28C8 JUMPI PUSH2 0x28C8 PUSH2 0x288B JUMP JUMPDEST PUSH1 0x40 MSTORE SWAP2 SWAP1 POP JUMP JUMPDEST PUSH0 PUSH8 0xFFFFFFFFFFFFFFFF DUP3 GT ISZERO PUSH2 0x28E9 JUMPI PUSH2 0x28E9 PUSH2 0x288B JUMP JUMPDEST POP PUSH1 0x5 SHL PUSH1 0x20 ADD SWAP1 JUMP JUMPDEST PUSH0 DUP3 PUSH1 0x1F DUP4 ADD SLT PUSH2 0x2902 JUMPI PUSH0 DUP1 REVERT JUMPDEST DUP2 CALLDATALOAD PUSH2 0x2915 PUSH2 0x2910 DUP3 PUSH2 0x28D0 JUMP JUMPDEST PUSH2 0x289F JUMP JUMPDEST DUP1 DUP3 DUP3 MSTORE PUSH1 0x20 DUP3 ADD SWAP2 POP PUSH1 0x20 DUP4 PUSH1 0x5 SHL DUP7 ADD ADD SWAP3 POP DUP6 DUP4 GT ISZERO PUSH2 0x2936 JUMPI PUSH0 DUP1 REVERT JUMPDEST PUSH1 0x20 DUP6 ADD JUMPDEST DUP4 DUP2 LT ISZERO PUSH2 0x295A JUMPI PUSH2 0x294C DUP2 PUSH2 0x27F8 JUMP JUMPDEST DUP4 MSTORE PUSH1 0x20 SWAP3 DUP4 ADD SWAP3 ADD PUSH2 0x293B JUMP JUMPDEST POP SWAP6 SWAP5 POP POP POP POP POP JUMP JUMPDEST PUSH0 DUP1 PUSH1 0x40 DUP4 DUP6 SUB SLT ISZERO PUSH2 0x2975 JUMPI PUSH0 DUP1 REVERT JUMPDEST DUP3 CALLDATALOAD PUSH8 0xFFFFFFFFFFFFFFFF DUP2 GT ISZERO PUSH2 0x298B JUMPI PUSH0 DUP1 REVERT JUMPDEST DUP4 ADD PUSH1 0x1F DUP2 ADD DUP6 SGT PUSH2 0x299B JUMPI PUSH0 DUP1 REVERT JUMPDEST DUP1 CALLDATALOAD PUSH2 0x29A9 PUSH2 0x2910 DUP3 PUSH2 0x28D0 JUMP JUMPDEST DUP1 DUP3 DUP3 MSTORE PUSH1 0x20 DUP3 ADD SWAP2 POP PUSH1 0x20 DUP4 PUSH1 0x5 SHL DUP6 ADD ADD SWAP3 POP DUP8 DUP4 GT ISZERO PUSH2 0x29CA JUMPI PUSH0 DUP1 REVERT JUMPDEST PUSH1 0x20 DUP5 ADD SWAP4 POP JUMPDEST DUP3 DUP5 LT ISZERO PUSH2 0x29EC JUMPI DUP4 CALLDATALOAD DUP3 MSTORE PUSH1 0x20 SWAP4 DUP5 ADD SWAP4 SWAP1 SWAP2 ADD SWAP1 PUSH2 0x29D1 JUMP JUMPDEST SWAP5 POP POP POP POP PUSH1 0x20 DUP4 ADD CALLDATALOAD PUSH8 0xFFFFFFFFFFFFFFFF DUP2 GT ISZERO PUSH2 0x2A0A JUMPI PUSH0 DUP1 REVERT JUMPDEST PUSH2 0x2A16 DUP6 DUP3 DUP7 ADD PUSH2 0x28F3 JUMP JUMPDEST SWAP2 POP POP SWAP3 POP SWAP3 SWAP1 POP JUMP JUMPDEST PUSH0 DUP1 PUSH1 0x20 DUP4 DUP6 SUB SLT ISZERO PUSH2 0x2A31 JUMPI PUSH0 DUP1 REVERT JUMPDEST DUP3 CALLDATALOAD PUSH8 0xFFFFFFFFFFFFFFFF DUP2 GT ISZERO PUSH2 0x2A47 JUMPI PUSH0 DUP1 REVERT JUMPDEST DUP4 ADD PUSH1 0x1F DUP2 ADD DUP6 SGT PUSH2 0x2A57 JUMPI PUSH0 DUP1 REVERT JUMPDEST DUP1 CALLDATALOAD PUSH8 0xFFFFFFFFFFFFFFFF DUP2 GT ISZERO PUSH2 0x2A6D JUMPI PUSH0 DUP1 REVERT JUMPDEST DUP6 PUSH1 0x20 DUP3 DUP5 ADD ADD GT ISZERO PUSH2 0x2A7E JUMPI PUSH0 DUP1 REVERT JUMPDEST PUSH1 0x20 SWAP2 SWAP1 SWAP2 ADD SWAP6 SWAP1 SWAP5 POP SWAP3 POP POP POP JUMP JUMPDEST PUSH0 DUP1 PUSH1 0x40 DUP4 DUP6 SUB SLT ISZERO PUSH2 0x2A9F JUMPI PUSH0 DUP1 REVERT JUMPDEST PUSH2 0x2AA8 DUP4 PUSH2 0x27F8 JUMP JUMPDEST SWAP2 POP PUSH1 0x20 DUP4 ADD CALLDATALOAD PUSH8 0xFFFFFFFFFFFFFFFF DUP2 GT ISZERO PUSH2 0x2AC3 JUMPI PUSH0 DUP1 REVERT JUMPDEST DUP4 ADD PUSH1 0x1F DUP2 ADD DUP6 SGT PUSH2 0x2AD3 JUMPI PUSH0 DUP1 REVERT JUMPDEST DUP1 CALLDATALOAD PUSH8 0xFFFFFFFFFFFFFFFF DUP2 GT ISZERO PUSH2 0x2AED JUMPI PUSH2 0x2AED PUSH2 0x288B JUMP JUMPDEST PUSH2 0x2B00 PUSH1 0x1F DUP3 ADD PUSH1 0x1F NOT AND PUSH1 0x20 ADD PUSH2 0x289F JUMP JUMPDEST DUP2 DUP2 MSTORE DUP7 PUSH1 0x20 DUP4 DUP6 ADD ADD GT ISZERO PUSH2 0x2B14 JUMPI PUSH0 DUP1 REVERT JUMPDEST DUP2 PUSH1 0x20 DUP5 ADD PUSH1 0x20 DUP4 ADD CALLDATACOPY PUSH0 PUSH1 0x20 DUP4 DUP4 ADD ADD MSTORE DUP1 SWAP4 POP POP POP POP SWAP3 POP SWAP3 SWAP1 POP JUMP JUMPDEST PUSH0 DUP1 PUSH1 0x40 DUP4 DUP6 SUB SLT ISZERO PUSH2 0x2B44 JUMPI PUSH0 DUP1 REVERT JUMPDEST POP POP DUP1 CALLDATALOAD SWAP3 PUSH1 0x20 SWAP1 SWAP2 ADD CALLDATALOAD SWAP2 POP JUMP JUMPDEST PUSH0 DUP2 MLOAD DUP1 DUP5 MSTORE DUP1 PUSH1 0x20 DUP5 ADD PUSH1 0x20 DUP7 ADD MCOPY PUSH0 PUSH1 0x20 DUP3 DUP7 ADD ADD MSTORE PUSH1 0x20 PUSH1 0x1F NOT PUSH1 0x1F DUP4 ADD AND DUP6 ADD ADD SWAP2 POP POP SWAP3 SWAP2 POP POP JUMP JUMPDEST DUP3 ISZERO ISZERO DUP2 MSTORE PUSH1 0x40 PUSH1 0x20 DUP3 ADD MSTORE PUSH0 PUSH2 0x2B9B PUSH1 0x40 DUP4 ADD DUP5 PUSH2 0x2B53 JUMP JUMPDEST SWAP5 SWAP4 POP POP POP POP JUMP JUMPDEST PUSH1 0x20 DUP2 MSTORE PUSH0 PUSH2 0x27C8 PUSH1 0x20 DUP4 ADD DUP5 PUSH2 0x2B53 JUMP JUMPDEST PUSH0 PUSH1 0x20 DUP3 DUP5 SUB SLT ISZERO PUSH2 0x2BC5 JUMPI PUSH0 DUP1 REVERT JUMPDEST PUSH2 0x27C8 DUP3 PUSH2 0x27F8 JUMP JUMPDEST DUP1 ISZERO ISZERO DUP2 EQ PUSH2 0x2105 JUMPI PUSH0 DUP1 REVERT JUMPDEST PUSH0 DUP1 PUSH1 0x40 DUP4 DUP6 SUB SLT ISZERO PUSH2 0x2BEC JUMPI PUSH0 DUP1 REVERT JUMPDEST PUSH2 0x2BF5 DUP4 PUSH2 0x27F8 JUMP JUMPDEST SWAP2 POP PUSH1 0x20 DUP4 ADD CALLDATALOAD PUSH2 0x2C05 DUP2 PUSH2 0x2BCE JUMP JUMPDEST DUP1 SWAP2 POP POP SWAP3 POP SWAP3 SWAP1 POP JUMP JUMPDEST PUSH4 0x4E487B71 PUSH1 0xE0 SHL PUSH0 MSTORE PUSH1 0x11 PUSH1 0x4 MSTORE PUSH1 0x24 PUSH0 REVERT JUMPDEST PUSH0 PUSH1 0x1 DUP3 ADD PUSH2 0x2C35 JUMPI PUSH2 0x2C35 PUSH2 0x2C10 JUMP JUMPDEST POP PUSH1 0x1 ADD SWAP1 JUMP JUMPDEST DUP2 DUP2 SUB DUP2 DUP2 GT ISZERO PUSH2 0x25D0 JUMPI PUSH2 0x25D0 PUSH2 0x2C10 JUMP JUMPDEST PUSH4 0x4E487B71 PUSH1 0xE0 SHL PUSH0 MSTORE PUSH1 0x32 PUSH1 0x4 MSTORE PUSH1 0x24 PUSH0 REVERT JUMPDEST DUP1 DUP3 ADD DUP1 DUP3 GT ISZERO PUSH2 0x25D0 JUMPI PUSH2 0x25D0 PUSH2 0x2C10 JUMP JUMPDEST PUSH1 0x1 PUSH1 0x1 PUSH1 0xA0 SHL SUB SWAP4 DUP5 AND DUP2 MSTORE SWAP2 SWAP1 SWAP3 AND PUSH1 0x20 DUP3 ADD MSTORE PUSH1 0x40 DUP2 ADD SWAP2 SWAP1 SWAP2 MSTORE PUSH1 0x60 ADD SWAP1 JUMP JUMPDEST PUSH0 PUSH1 0x20 DUP3 DUP5 SUB SLT ISZERO PUSH2 0x2CAA JUMPI PUSH0 DUP1 REVERT JUMPDEST DUP2 MLOAD PUSH2 0x27C8 DUP2 PUSH2 0x2BCE JUMP JUMPDEST DUP1 DUP3 MUL DUP2 ISZERO DUP3 DUP3 DIV DUP5 EQ OR PUSH2 0x25D0 JUMPI PUSH2 0x25D0 PUSH2 0x2C10 JUMP JUMPDEST PUSH0 DUP3 PUSH2 0x2CE6 JUMPI PUSH4 0x4E487B71 PUSH1 0xE0 SHL PUSH0 MSTORE PUSH1 0x12 PUSH1 0x4 MSTORE PUSH1 0x24 PUSH0 REVERT JUMPDEST POP DIV SWAP1 JUMP JUMPDEST PUSH0 PUSH1 0x20 DUP3 DUP5 SUB SLT ISZERO PUSH2 0x2CFB JUMPI PUSH0 DUP1 REVERT JUMPDEST POP MLOAD SWAP2 SWAP1 POP JUMP JUMPDEST PUSH0 DUP3 MLOAD DUP1 PUSH1 0x20 DUP6 ADD DUP5 MCOPY PUSH0 SWAP3 ADD SWAP2 DUP3 MSTORE POP SWAP2 SWAP1 POP JUMP INVALID CALLDATASIZE ADDMOD SWAP5 LOG1 EXTCODESIZE LOG1 LOG3 0x21 MOD PUSH8 0xC828492DB98DCA3E KECCAK256 PUSH23 0xCC3735A920A3CA505D382BBCB5671393C7C6980552E50A BALANCE 0xE7 PUSH25 0x921EB17D764C2E98FBF4D44FFF524712DEF9A2646970667358 0x22 SLT KECCAK256 DUP16 0xAA PUSH2 0xC493 0xBC 0x1E PUSH31 0xC40AC17C40F46B6E4F326660A1AFF6215ED06EE7754902F664736F6C634300 ADDMOD BYTE STOP CALLER "
				},
				"gasEstimates": {
					"creation": {
						"codeDepositCost": "2332400",
						"executionCost": "infinite",
						"totalCost": "infinite"
					},
					"external": {
						"UPGRADE_INTERFACE_VERSION()": "infinite",
						"addFunds(uint256,uint256)": "infinite",
						"addOwnership(uint256)": "infinite",
						"addProjects(uint256)": "57030",
						"addTreasuery(uint256)": "infinite",
						"alreadyAdded(address)": "2661",
						"blockUser(address,bool)": "33068",
						"checkUpkeep(bytes)": "infinite",
						"flowToTreasuryPercentage()": "2438",
						"initialize(address,address,address,address,address)": "infinite",
						"interval()": "2372",
						"lastTimeStamp()": "2439",
						"maintainceFeePercentage()": "2417",
						"multisigAddress()": "2492",
						"noOfUsers()": "2330",
						"odividentPayoutPercentage()": "2329",
						"off()": "10876",
						"owner()": "2397",
						"ownerOne()": "2424",
						"ownerShipPoolAmount()": "2350",
						"ownerTwo()": "2492",
						"performUpkeep(bytes)": "infinite",
						"proxiableUUID()": "infinite",
						"reStakeTokens(uint256)": "infinite",
						"realInterval()": "2329",
						"renounceOwnership()": "infinite",
						"s_forwarderAddress()": "2493",
						"setForwarderAddress(address)": "30312",
						"setInterval(uint256,uint256)": "94788",
						"setTeasueryPercentages(uint256,uint256)": "infinite",
						"setflowToTreasuryPercentage(uint256)": "infinite",
						"setmaintainceFeePercentage(uint256)": "infinite",
						"setodividentPayoutPercentage(uint256)": "infinite",
						"settdividentPayoutPercentage(uint256)": "infinite",
						"stakeTokens(uint256)": "infinite",
						"stakeTokensByOwner(uint256[],address[])": "infinite",
						"startingTime()": "2395",
						"tPPercentages(uint256)": "2556",
						"tdividentPayoutPercentage()": "2351",
						"totalProjects()": "2394",
						"totalStakedAmount()": "2328",
						"totalUsers(uint256)": "2607",
						"transferOwnership(address)": "28475",
						"treasuryPoolAmount()": "2396",
						"upgradeToAndCall(address,bytes)": "infinite",
						"usdcToken()": "2404",
						"userRegistered(address)": "13313",
						"userWithdrawAmoount(uint256)": "infinite",
						"weeklyTransfer()": "infinite"
					},
					"internal": {
						"_authorizeUpgrade(address)": "infinite",
						"calculateFees(uint256,uint256)": "infinite",
						"calculatePercentage(uint256,uint256)": "infinite",
						"perPoolCalculation()": "infinite"
					}
				},
				"methodIdentifiers": {
					"UPGRADE_INTERFACE_VERSION()": "ad3cb1cc",
					"addFunds(uint256,uint256)": "85f45250",
					"addOwnership(uint256)": "78fd078d",
					"addProjects(uint256)": "2765df7a",
					"addTreasuery(uint256)": "5256dbbf",
					"alreadyAdded(address)": "c7fd5bf0",
					"blockUser(address,bool)": "d9b998b4",
					"checkUpkeep(bytes)": "6e04ff0d",
					"flowToTreasuryPercentage()": "ce356a24",
					"initialize(address,address,address,address,address)": "1459457a",
					"interval()": "947a36fb",
					"lastTimeStamp()": "3f3b3b27",
					"maintainceFeePercentage()": "3a71a9e4",
					"multisigAddress()": "5462870d",
					"noOfUsers()": "01934a83",
					"odividentPayoutPercentage()": "44490ff4",
					"off()": "6626b26d",
					"owner()": "8da5cb5b",
					"ownerOne()": "f0664a4f",
					"ownerShipPoolAmount()": "b47ff951",
					"ownerTwo()": "83aa9985",
					"performUpkeep(bytes)": "4585e33b",
					"proxiableUUID()": "52d1902d",
					"reStakeTokens(uint256)": "7ffe4d93",
					"realInterval()": "30cac972",
					"renounceOwnership()": "715018a6",
					"s_forwarderAddress()": "3070fbf8",
					"setForwarderAddress(address)": "d777cc6d",
					"setInterval(uint256,uint256)": "5f17e616",
					"setTeasueryPercentages(uint256,uint256)": "ed061067",
					"setflowToTreasuryPercentage(uint256)": "ad8e5ec4",
					"setmaintainceFeePercentage(uint256)": "7f111e60",
					"setodividentPayoutPercentage(uint256)": "b9dac1eb",
					"settdividentPayoutPercentage(uint256)": "7f70c5e7",
					"stakeTokens(uint256)": "7547c7a3",
					"stakeTokensByOwner(uint256[],address[])": "34107c87",
					"startingTime()": "39518b5e",
					"tPPercentages(uint256)": "ff3d65d9",
					"tdividentPayoutPercentage()": "33244c2c",
					"totalProjects()": "9c361e4e",
					"totalStakedAmount()": "567e98f9",
					"totalUsers(uint256)": "a4f67b8b",
					"transferOwnership(address)": "f2fde38b",
					"treasuryPoolAmount()": "188e07b9",
					"upgradeToAndCall(address,bytes)": "4f1ef286",
					"usdcToken()": "11eac855",
					"userRegistered(address)": "bccbc36c",
					"userWithdrawAmoount(uint256)": "67976974",
					"weeklyTransfer()": "e9c68e2c"
				}
			},
			"storageLayout": {
				"storage": [
					{
						"astId": 1436,
						"contract": "DripWarrior/poolContract.sol:PoolContrcat",
						"label": "usdcToken",
						"offset": 0,
						"slot": "0",
						"type": "t_contract(IBEP20)1425"
					},
					{
						"astId": 1438,
						"contract": "DripWarrior/poolContract.sol:PoolContrcat",
						"label": "treasuryPoolAmount",
						"offset": 0,
						"slot": "1",
						"type": "t_uint256"
					},
					{
						"astId": 1440,
						"contract": "DripWarrior/poolContract.sol:PoolContrcat",
						"label": "ownerShipPoolAmount",
						"offset": 0,
						"slot": "2",
						"type": "t_uint256"
					},
					{
						"astId": 1442,
						"contract": "DripWarrior/poolContract.sol:PoolContrcat",
						"label": "totalStakedAmount",
						"offset": 0,
						"slot": "3",
						"type": "t_uint256"
					},
					{
						"astId": 1444,
						"contract": "DripWarrior/poolContract.sol:PoolContrcat",
						"label": "tdividentPayoutPercentage",
						"offset": 0,
						"slot": "4",
						"type": "t_uint256"
					},
					{
						"astId": 1446,
						"contract": "DripWarrior/poolContract.sol:PoolContrcat",
						"label": "odividentPayoutPercentage",
						"offset": 0,
						"slot": "5",
						"type": "t_uint256"
					},
					{
						"astId": 1448,
						"contract": "DripWarrior/poolContract.sol:PoolContrcat",
						"label": "flowToTreasuryPercentage",
						"offset": 0,
						"slot": "6",
						"type": "t_uint256"
					},
					{
						"astId": 1450,
						"contract": "DripWarrior/poolContract.sol:PoolContrcat",
						"label": "maintainceFeePercentage",
						"offset": 0,
						"slot": "7",
						"type": "t_uint256"
					},
					{
						"astId": 1452,
						"contract": "DripWarrior/poolContract.sol:PoolContrcat",
						"label": "noOfUsers",
						"offset": 0,
						"slot": "8",
						"type": "t_uint256"
					},
					{
						"astId": 1454,
						"contract": "DripWarrior/poolContract.sol:PoolContrcat",
						"label": "multisigAddress",
						"offset": 0,
						"slot": "9",
						"type": "t_address"
					},
					{
						"astId": 1456,
						"contract": "DripWarrior/poolContract.sol:PoolContrcat",
						"label": "locked",
						"offset": 20,
						"slot": "9",
						"type": "t_bool"
					},
					{
						"astId": 1458,
						"contract": "DripWarrior/poolContract.sol:PoolContrcat",
						"label": "interval",
						"offset": 0,
						"slot": "10",
						"type": "t_uint256"
					},
					{
						"astId": 1460,
						"contract": "DripWarrior/poolContract.sol:PoolContrcat",
						"label": "realInterval",
						"offset": 0,
						"slot": "11",
						"type": "t_uint256"
					},
					{
						"astId": 1462,
						"contract": "DripWarrior/poolContract.sol:PoolContrcat",
						"label": "startingTime",
						"offset": 0,
						"slot": "12",
						"type": "t_uint256"
					},
					{
						"astId": 1464,
						"contract": "DripWarrior/poolContract.sol:PoolContrcat",
						"label": "lastTimeStamp",
						"offset": 0,
						"slot": "13",
						"type": "t_uint256"
					},
					{
						"astId": 1466,
						"contract": "DripWarrior/poolContract.sol:PoolContrcat",
						"label": "s_forwarderAddress",
						"offset": 0,
						"slot": "14",
						"type": "t_address"
					},
					{
						"astId": 1468,
						"contract": "DripWarrior/poolContract.sol:PoolContrcat",
						"label": "ownerOne",
						"offset": 0,
						"slot": "15",
						"type": "t_address"
					},
					{
						"astId": 1470,
						"contract": "DripWarrior/poolContract.sol:PoolContrcat",
						"label": "ownerTwo",
						"offset": 0,
						"slot": "16",
						"type": "t_address"
					},
					{
						"astId": 1485,
						"contract": "DripWarrior/poolContract.sol:PoolContrcat",
						"label": "totalProjects",
						"offset": 0,
						"slot": "17",
						"type": "t_uint256"
					},
					{
						"astId": 1489,
						"contract": "DripWarrior/poolContract.sol:PoolContrcat",
						"label": "alreadyAdded",
						"offset": 0,
						"slot": "18",
						"type": "t_mapping(t_address,t_bool)"
					},
					{
						"astId": 1493,
						"contract": "DripWarrior/poolContract.sol:PoolContrcat",
						"label": "totalUsers",
						"offset": 0,
						"slot": "19",
						"type": "t_mapping(t_uint256,t_address)"
					},
					{
						"astId": 1497,
						"contract": "DripWarrior/poolContract.sol:PoolContrcat",
						"label": "tPPercentages",
						"offset": 0,
						"slot": "20",
						"type": "t_mapping(t_uint256,t_uint256)"
					},
					{
						"astId": 1502,
						"contract": "DripWarrior/poolContract.sol:PoolContrcat",
						"label": "userRegistered",
						"offset": 0,
						"slot": "21",
						"type": "t_mapping(t_address,t_struct(UserRegistered)1483_storage)"
					}
				],
				"types": {
					"t_address": {
						"encoding": "inplace",
						"label": "address",
						"numberOfBytes": "20"
					},
					"t_bool": {
						"encoding": "inplace",
						"label": "bool",
						"numberOfBytes": "1"
					},
					"t_contract(IBEP20)1425": {
						"encoding": "inplace",
						"label": "contract IBEP20",
						"numberOfBytes": "20"
					},
					"t_mapping(t_address,t_bool)": {
						"encoding": "mapping",
						"key": "t_address",
						"label": "mapping(address => bool)",
						"numberOfBytes": "32",
						"value": "t_bool"
					},
					"t_mapping(t_address,t_struct(UserRegistered)1483_storage)": {
						"encoding": "mapping",
						"key": "t_address",
						"label": "mapping(address => struct PoolContrcat.UserRegistered)",
						"numberOfBytes": "32",
						"value": "t_struct(UserRegistered)1483_storage"
					},
					"t_mapping(t_uint256,t_address)": {
						"encoding": "mapping",
						"key": "t_uint256",
						"label": "mapping(uint256 => address)",
						"numberOfBytes": "32",
						"value": "t_address"
					},
					"t_mapping(t_uint256,t_uint256)": {
						"encoding": "mapping",
						"key": "t_uint256",
						"label": "mapping(uint256 => uint256)",
						"numberOfBytes": "32",
						"value": "t_uint256"
					},
					"t_struct(UserRegistered)1483_storage": {
						"encoding": "inplace",
						"label": "struct PoolContrcat.UserRegistered",
						"members": [
							{
								"astId": 1472,
								"contract": "DripWarrior/poolContract.sol:PoolContrcat",
								"label": "blocked",
								"offset": 0,
								"slot": "0",
								"type": "t_bool"
							},
							{
								"astId": 1474,
								"contract": "DripWarrior/poolContract.sol:PoolContrcat",
								"label": "receivedAmount",
								"offset": 0,
								"slot": "1",
								"type": "t_uint256"
							},
							{
								"astId": 1476,
								"contract": "DripWarrior/poolContract.sol:PoolContrcat",
								"label": "withdrawAmount",
								"offset": 0,
								"slot": "2",
								"type": "t_uint256"
							},
							{
								"astId": 1478,
								"contract": "DripWarrior/poolContract.sol:PoolContrcat",
								"label": "receiveFromTreasury",
								"offset": 0,
								"slot": "3",
								"type": "t_uint256"
							},
							{
								"astId": 1480,
								"contract": "DripWarrior/poolContract.sol:PoolContrcat",
								"label": "receiveFromOwneerShip",
								"offset": 0,
								"slot": "4",
								"type": "t_uint256"
							},
							{
								"astId": 1482,
								"contract": "DripWarrior/poolContract.sol:PoolContrcat",
								"label": "totalStakedAmount",
								"offset": 0,
								"slot": "5",
								"type": "t_uint256"
							}
						],
						"numberOfBytes": "192"
					},
					"t_uint256": {
						"encoding": "inplace",
						"label": "uint256",
						"numberOfBytes": "32"
					}
				}
			},
			"userdoc": {
				"kind": "user",
				"methods": {},
				"version": 1
			}
		}
	}
}