{
	"DripWarrior/poolContract.sol": {
		"PoolContrcat": {
			"abi": [
				{
					"inputs": [],
					"stateMutability": "nonpayable",
					"type": "constructor"
				},
				{
					"inputs": [
						{
							"internalType": "address",
							"name": "target",
							"type": "address"
						}
					],
					"name": "AddressEmptyCode",
					"type": "error"
				},
				{
					"inputs": [
						{
							"internalType": "address",
							"name": "implementation",
							"type": "address"
						}
					],
					"name": "ERC1967InvalidImplementation",
					"type": "error"
				},
				{
					"inputs": [],
					"name": "ERC1967NonPayable",
					"type": "error"
				},
				{
					"inputs": [],
					"name": "FailedInnerCall",
					"type": "error"
				},
				{
					"inputs": [],
					"name": "InvalidInitialization",
					"type": "error"
				},
				{
					"inputs": [],
					"name": "NotInitializing",
					"type": "error"
				},
				{
					"inputs": [
						{
							"internalType": "address",
							"name": "owner",
							"type": "address"
						}
					],
					"name": "OwnableInvalidOwner",
					"type": "error"
				},
				{
					"inputs": [
						{
							"internalType": "address",
							"name": "account",
							"type": "address"
						}
					],
					"name": "OwnableUnauthorizedAccount",
					"type": "error"
				},
				{
					"inputs": [],
					"name": "UUPSUnauthorizedCallContext",
					"type": "error"
				},
				{
					"inputs": [
						{
							"internalType": "bytes32",
							"name": "slot",
							"type": "bytes32"
						}
					],
					"name": "UUPSUnsupportedProxiableUUID",
					"type": "error"
				},
				{
					"inputs": [
						{
							"internalType": "uint256",
							"name": "amount",
							"type": "uint256"
						}
					],
					"name": "notEnoughBalance",
					"type": "error"
				},
				{
					"inputs": [
						{
							"internalType": "bool",
							"name": "transfered",
							"type": "bool"
						}
					],
					"name": "transferFailed",
					"type": "error"
				},
				{
					"inputs": [
						{
							"internalType": "bool",
							"name": "blocked",
							"type": "bool"
						}
					],
					"name": "userBlocked",
					"type": "error"
				},
				{
					"inputs": [
						{
							"internalType": "address",
							"name": "wrongAddress",
							"type": "address"
						}
					],
					"name": "wrongAddress",
					"type": "error"
				},
				{
					"inputs": [
						{
							"internalType": "uint256",
							"name": "amount",
							"type": "uint256"
						}
					],
					"name": "wrongAmount",
					"type": "error"
				},
				{
					"inputs": [
						{
							"internalType": "uint256",
							"name": "updateInterval",
							"type": "uint256"
						}
					],
					"name": "wrongInterval",
					"type": "error"
				},
				{
					"inputs": [
						{
							"internalType": "address",
							"name": "owner",
							"type": "address"
						}
					],
					"name": "wrongOwner",
					"type": "error"
				},
				{
					"inputs": [
						{
							"internalType": "uint256",
							"name": "percentage",
							"type": "uint256"
						}
					],
					"name": "wrongPercentage",
					"type": "error"
				},
				{
					"inputs": [
						{
							"internalType": "uint256",
							"name": "projectNO",
							"type": "uint256"
						}
					],
					"name": "wrongProjectNo",
					"type": "error"
				},
				{
					"inputs": [
						{
							"internalType": "uint256",
							"name": "time",
							"type": "uint256"
						}
					],
					"name": "wrongTime",
					"type": "error"
				},
				{
					"inputs": [
						{
							"internalType": "bool",
							"name": "value",
							"type": "bool"
						}
					],
					"name": "wrongValue",
					"type": "error"
				},
				{
					"anonymous": false,
					"inputs": [
						{
							"indexed": false,
							"internalType": "uint256",
							"name": "_amount",
							"type": "uint256"
						},
						{
							"indexed": false,
							"internalType": "uint256",
							"name": "_projectNo",
							"type": "uint256"
						}
					],
					"name": "AddFunds",
					"type": "event"
				},
				{
					"anonymous": false,
					"inputs": [
						{
							"indexed": false,
							"internalType": "uint256",
							"name": "_ownerShipPoolAmount",
							"type": "uint256"
						}
					],
					"name": "AddOwnership",
					"type": "event"
				},
				{
					"anonymous": false,
					"inputs": [
						{
							"indexed": false,
							"internalType": "uint256",
							"name": "projectId",
							"type": "uint256"
						},
						{
							"indexed": false,
							"internalType": "uint256",
							"name": "OpPercentage",
							"type": "uint256"
						},
						{
							"indexed": false,
							"internalType": "uint256",
							"name": "tpPercentage",
							"type": "uint256"
						}
					],
					"name": "AddProject",
					"type": "event"
				},
				{
					"anonymous": false,
					"inputs": [
						{
							"indexed": false,
							"internalType": "uint256",
							"name": "_treasuryPoolAmount",
							"type": "uint256"
						}
					],
					"name": "AddTreasuery",
					"type": "event"
				},
				{
					"anonymous": false,
					"inputs": [
						{
							"indexed": false,
							"internalType": "uint64",
							"name": "version",
							"type": "uint64"
						}
					],
					"name": "Initialized",
					"type": "event"
				},
				{
					"anonymous": false,
					"inputs": [
						{
							"indexed": true,
							"internalType": "address",
							"name": "previousOwner",
							"type": "address"
						},
						{
							"indexed": true,
							"internalType": "address",
							"name": "newOwner",
							"type": "address"
						}
					],
					"name": "OwnershipTransferred",
					"type": "event"
				},
				{
					"anonymous": false,
					"inputs": [
						{
							"indexed": false,
							"internalType": "address",
							"name": "_owner",
							"type": "address"
						},
						{
							"indexed": false,
							"internalType": "uint256",
							"name": "_newPercentage",
							"type": "uint256"
						}
					],
					"name": "PercentageChanged",
					"type": "event"
				},
				{
					"anonymous": false,
					"inputs": [
						{
							"indexed": false,
							"internalType": "address",
							"name": "_owner",
							"type": "address"
						},
						{
							"indexed": false,
							"internalType": "address",
							"name": "_s_forwarderAddress",
							"type": "address"
						}
					],
					"name": "SetForwarderAddress",
					"type": "event"
				},
				{
					"anonymous": false,
					"inputs": [
						{
							"indexed": false,
							"internalType": "address",
							"name": "_owner",
							"type": "address"
						},
						{
							"indexed": false,
							"internalType": "uint256",
							"name": "_interval",
							"type": "uint256"
						},
						{
							"indexed": false,
							"internalType": "uint256",
							"name": "_lastTimeStamp",
							"type": "uint256"
						}
					],
					"name": "SetInterval",
					"type": "event"
				},
				{
					"anonymous": false,
					"inputs": [
						{
							"indexed": false,
							"internalType": "address",
							"name": "sender",
							"type": "address"
						},
						{
							"indexed": false,
							"internalType": "address",
							"name": "recepient",
							"type": "address"
						},
						{
							"indexed": false,
							"internalType": "uint256",
							"name": "usdcAmount",
							"type": "uint256"
						}
					],
					"name": "StakeTokens",
					"type": "event"
				},
				{
					"anonymous": false,
					"inputs": [
						{
							"indexed": true,
							"internalType": "address",
							"name": "implementation",
							"type": "address"
						}
					],
					"name": "Upgraded",
					"type": "event"
				},
				{
					"anonymous": false,
					"inputs": [
						{
							"indexed": false,
							"internalType": "address",
							"name": "owner",
							"type": "address"
						},
						{
							"indexed": false,
							"internalType": "address",
							"name": "blockUserAddress",
							"type": "address"
						},
						{
							"indexed": false,
							"internalType": "bool",
							"name": "blocked",
							"type": "bool"
						}
					],
					"name": "UserBlocked",
					"type": "event"
				},
				{
					"anonymous": false,
					"inputs": [
						{
							"indexed": false,
							"internalType": "address",
							"name": "caller",
							"type": "address"
						},
						{
							"indexed": false,
							"internalType": "uint256",
							"name": "ownerShipPoolAmount",
							"type": "uint256"
						},
						{
							"indexed": false,
							"internalType": "uint256",
							"name": "treasuryPoolAmount",
							"type": "uint256"
						}
					],
					"name": "WeeklyTransfered",
					"type": "event"
				},
				{
					"anonymous": false,
					"inputs": [
						{
							"indexed": false,
							"internalType": "address",
							"name": "recipient",
							"type": "address"
						},
						{
							"indexed": false,
							"internalType": "uint256",
							"name": "usdcAmount",
							"type": "uint256"
						}
					],
					"name": "Withdraw",
					"type": "event"
				},
				{
					"anonymous": false,
					"inputs": [
						{
							"indexed": false,
							"internalType": "address",
							"name": "_owner",
							"type": "address"
						},
						{
							"indexed": false,
							"internalType": "uint256",
							"name": "_interval",
							"type": "uint256"
						}
					],
					"name": "offInterval",
					"type": "event"
				},
				{
					"inputs": [],
					"name": "UPGRADE_INTERFACE_VERSION",
					"outputs": [
						{
							"internalType": "string",
							"name": "",
							"type": "string"
						}
					],
					"stateMutability": "view",
					"type": "function"
				},
				{
					"inputs": [
						{
							"internalType": "uint256",
							"name": "_amount",
							"type": "uint256"
						},
						{
							"internalType": "uint256",
							"name": "_projectNo",
							"type": "uint256"
						}
					],
					"name": "addFunds",
					"outputs": [],
					"stateMutability": "nonpayable",
					"type": "function"
				},
				{
					"inputs": [
						{
							"internalType": "uint256",
							"name": "_amount",
							"type": "uint256"
						}
					],
					"name": "addOwnership",
					"outputs": [],
					"stateMutability": "nonpayable",
					"type": "function"
				},
				{
					"inputs": [
						{
							"internalType": "uint256",
							"name": "_tPPercentage",
							"type": "uint256"
						}
					],
					"name": "addProjects",
					"outputs": [],
					"stateMutability": "nonpayable",
					"type": "function"
				},
				{
					"inputs": [
						{
							"internalType": "uint256",
							"name": "_amount",
							"type": "uint256"
						}
					],
					"name": "addTreasuery",
					"outputs": [],
					"stateMutability": "nonpayable",
					"type": "function"
				},
				{
					"inputs": [
						{
							"internalType": "address",
							"name": "",
							"type": "address"
						}
					],
					"name": "alreadyAdded",
					"outputs": [
						{
							"internalType": "bool",
							"name": "",
							"type": "bool"
						}
					],
					"stateMutability": "view",
					"type": "function"
				},
				{
					"inputs": [
						{
							"internalType": "address",
							"name": "_userAddress",
							"type": "address"
						},
						{
							"internalType": "bool",
							"name": "value",
							"type": "bool"
						}
					],
					"name": "blockUser",
					"outputs": [],
					"stateMutability": "nonpayable",
					"type": "function"
				},
				{
					"inputs": [],
					"name": "checkOnce",
					"outputs": [
						{
							"internalType": "bool",
							"name": "",
							"type": "bool"
						}
					],
					"stateMutability": "view",
					"type": "function"
				},
				{
					"inputs": [
						{
							"internalType": "bytes",
							"name": "",
							"type": "bytes"
						}
					],
					"name": "checkUpkeep",
					"outputs": [
						{
							"internalType": "bool",
							"name": "",
							"type": "bool"
						},
						{
							"internalType": "bytes",
							"name": "",
							"type": "bytes"
						}
					],
					"stateMutability": "view",
					"type": "function"
				},
				{
					"inputs": [],
					"name": "flowToTreasuryPercentage",
					"outputs": [
						{
							"internalType": "uint256",
							"name": "",
							"type": "uint256"
						}
					],
					"stateMutability": "view",
					"type": "function"
				},
				{
					"inputs": [
						{
							"internalType": "address",
							"name": "initialOwner",
							"type": "address"
						},
						{
							"internalType": "address",
							"name": "_usdcAddress",
							"type": "address"
						},
						{
							"internalType": "address",
							"name": "_multisigAddress",
							"type": "address"
						}
					],
					"name": "initialize",
					"outputs": [],
					"stateMutability": "nonpayable",
					"type": "function"
				},
				{
					"inputs": [],
					"name": "interval",
					"outputs": [
						{
							"internalType": "uint256",
							"name": "",
							"type": "uint256"
						}
					],
					"stateMutability": "view",
					"type": "function"
				},
				{
					"inputs": [],
					"name": "lastTimeStamp",
					"outputs": [
						{
							"internalType": "uint256",
							"name": "",
							"type": "uint256"
						}
					],
					"stateMutability": "view",
					"type": "function"
				},
				{
					"inputs": [],
					"name": "maintainceFeePercentage",
					"outputs": [
						{
							"internalType": "uint256",
							"name": "",
							"type": "uint256"
						}
					],
					"stateMutability": "view",
					"type": "function"
				},
				{
					"inputs": [],
					"name": "multisigAddress",
					"outputs": [
						{
							"internalType": "address",
							"name": "",
							"type": "address"
						}
					],
					"stateMutability": "view",
					"type": "function"
				},
				{
					"inputs": [],
					"name": "noOfUsers",
					"outputs": [
						{
							"internalType": "uint256",
							"name": "",
							"type": "uint256"
						}
					],
					"stateMutability": "view",
					"type": "function"
				},
				{
					"inputs": [],
					"name": "odividentPayoutPercentage",
					"outputs": [
						{
							"internalType": "uint256",
							"name": "",
							"type": "uint256"
						}
					],
					"stateMutability": "view",
					"type": "function"
				},
				{
					"inputs": [],
					"name": "off",
					"outputs": [],
					"stateMutability": "nonpayable",
					"type": "function"
				},
				{
					"inputs": [],
					"name": "owner",
					"outputs": [
						{
							"internalType": "address",
							"name": "",
							"type": "address"
						}
					],
					"stateMutability": "view",
					"type": "function"
				},
				{
					"inputs": [],
					"name": "ownerShipPoolAmount",
					"outputs": [
						{
							"internalType": "uint256",
							"name": "",
							"type": "uint256"
						}
					],
					"stateMutability": "view",
					"type": "function"
				},
				{
					"inputs": [
						{
							"internalType": "bytes",
							"name": "",
							"type": "bytes"
						}
					],
					"name": "performUpkeep",
					"outputs": [],
					"stateMutability": "nonpayable",
					"type": "function"
				},
				{
					"inputs": [],
					"name": "proxiableUUID",
					"outputs": [
						{
							"internalType": "bytes32",
							"name": "",
							"type": "bytes32"
						}
					],
					"stateMutability": "view",
					"type": "function"
				},
				{
					"inputs": [
						{
							"internalType": "uint256",
							"name": "_amount",
							"type": "uint256"
						}
					],
					"name": "reStakeTokens",
					"outputs": [],
					"stateMutability": "nonpayable",
					"type": "function"
				},
				{
					"inputs": [],
					"name": "renounceOwnership",
					"outputs": [],
					"stateMutability": "nonpayable",
					"type": "function"
				},
				{
					"inputs": [],
					"name": "s_forwarderAddress",
					"outputs": [
						{
							"internalType": "address",
							"name": "",
							"type": "address"
						}
					],
					"stateMutability": "view",
					"type": "function"
				},
				{
					"inputs": [
						{
							"internalType": "address",
							"name": "forwarderAddress",
							"type": "address"
						}
					],
					"name": "setForwarderAddress",
					"outputs": [],
					"stateMutability": "nonpayable",
					"type": "function"
				},
				{
					"inputs": [
						{
							"internalType": "uint256",
							"name": "_startingTime",
							"type": "uint256"
						},
						{
							"internalType": "uint256",
							"name": "updateInterval",
							"type": "uint256"
						}
					],
					"name": "setInterval",
					"outputs": [],
					"stateMutability": "nonpayable",
					"type": "function"
				},
				{
					"inputs": [
						{
							"internalType": "uint256",
							"name": "_projectId",
							"type": "uint256"
						},
						{
							"internalType": "uint256",
							"name": "_newPerccentage",
							"type": "uint256"
						}
					],
					"name": "setTeasueryPercentages",
					"outputs": [],
					"stateMutability": "nonpayable",
					"type": "function"
				},
				{
					"inputs": [
						{
							"internalType": "uint256",
							"name": "_newPerccentage",
							"type": "uint256"
						}
					],
					"name": "setflowToTreasuryPercentage",
					"outputs": [],
					"stateMutability": "nonpayable",
					"type": "function"
				},
				{
					"inputs": [
						{
							"internalType": "uint256",
							"name": "_newPerccentage",
							"type": "uint256"
						}
					],
					"name": "setmaintainceFeePercentage",
					"outputs": [],
					"stateMutability": "nonpayable",
					"type": "function"
				},
				{
					"inputs": [
						{
							"internalType": "uint256",
							"name": "_newPerccentage",
							"type": "uint256"
						}
					],
					"name": "setodividentPayoutPercentage",
					"outputs": [],
					"stateMutability": "nonpayable",
					"type": "function"
				},
				{
					"inputs": [
						{
							"internalType": "uint256",
							"name": "_newPerccentage",
							"type": "uint256"
						}
					],
					"name": "settdividentPayoutPercentage",
					"outputs": [],
					"stateMutability": "nonpayable",
					"type": "function"
				},
				{
					"inputs": [
						{
							"internalType": "uint256",
							"name": "_amount",
							"type": "uint256"
						}
					],
					"name": "stakeTokens",
					"outputs": [],
					"stateMutability": "nonpayable",
					"type": "function"
				},
				{
					"inputs": [],
					"name": "startingTime",
					"outputs": [
						{
							"internalType": "uint256",
							"name": "",
							"type": "uint256"
						}
					],
					"stateMutability": "view",
					"type": "function"
				},
				{
					"inputs": [
						{
							"internalType": "uint256",
							"name": "",
							"type": "uint256"
						}
					],
					"name": "tPPercentages",
					"outputs": [
						{
							"internalType": "uint256",
							"name": "",
							"type": "uint256"
						}
					],
					"stateMutability": "view",
					"type": "function"
				},
				{
					"inputs": [],
					"name": "tdividentPayoutPercentage",
					"outputs": [
						{
							"internalType": "uint256",
							"name": "",
							"type": "uint256"
						}
					],
					"stateMutability": "view",
					"type": "function"
				},
				{
					"inputs": [],
					"name": "totalProjects",
					"outputs": [
						{
							"internalType": "uint256",
							"name": "",
							"type": "uint256"
						}
					],
					"stateMutability": "view",
					"type": "function"
				},
				{
					"inputs": [],
					"name": "totalStakedAmount",
					"outputs": [
						{
							"internalType": "uint256",
							"name": "",
							"type": "uint256"
						}
					],
					"stateMutability": "view",
					"type": "function"
				},
				{
					"inputs": [
						{
							"internalType": "uint256",
							"name": "",
							"type": "uint256"
						}
					],
					"name": "totalUsers",
					"outputs": [
						{
							"internalType": "address",
							"name": "",
							"type": "address"
						}
					],
					"stateMutability": "view",
					"type": "function"
				},
				{
					"inputs": [
						{
							"internalType": "address",
							"name": "newOwner",
							"type": "address"
						}
					],
					"name": "transferOwnership",
					"outputs": [],
					"stateMutability": "nonpayable",
					"type": "function"
				},
				{
					"inputs": [],
					"name": "treasuryPoolAmount",
					"outputs": [
						{
							"internalType": "uint256",
							"name": "",
							"type": "uint256"
						}
					],
					"stateMutability": "view",
					"type": "function"
				},
				{
					"inputs": [
						{
							"internalType": "address",
							"name": "newImplementation",
							"type": "address"
						},
						{
							"internalType": "bytes",
							"name": "data",
							"type": "bytes"
						}
					],
					"name": "upgradeToAndCall",
					"outputs": [],
					"stateMutability": "payable",
					"type": "function"
				},
				{
					"inputs": [],
					"name": "usdcToken",
					"outputs": [
						{
							"internalType": "contract IBEP20",
							"name": "",
							"type": "address"
						}
					],
					"stateMutability": "view",
					"type": "function"
				},
				{
					"inputs": [
						{
							"internalType": "address",
							"name": "",
							"type": "address"
						}
					],
					"name": "userRegistered",
					"outputs": [
						{
							"internalType": "bool",
							"name": "blocked",
							"type": "bool"
						},
						{
							"internalType": "uint256",
							"name": "receivedAmount",
							"type": "uint256"
						},
						{
							"internalType": "uint256",
							"name": "withdrawAmount",
							"type": "uint256"
						},
						{
							"internalType": "uint256",
							"name": "receiveFromTreasury",
							"type": "uint256"
						},
						{
							"internalType": "uint256",
							"name": "receiveFromOwneerShip",
							"type": "uint256"
						},
						{
							"internalType": "uint256",
							"name": "totalStakedAmount",
							"type": "uint256"
						}
					],
					"stateMutability": "view",
					"type": "function"
				},
				{
					"inputs": [
						{
							"internalType": "uint256",
							"name": "_amount",
							"type": "uint256"
						}
					],
					"name": "userWithdrawAmoount",
					"outputs": [],
					"stateMutability": "nonpayable",
					"type": "function"
				},
				{
					"inputs": [],
					"name": "weeklyTransfer",
					"outputs": [],
					"stateMutability": "nonpayable",
					"type": "function"
				}
			],
			"devdoc": {
				"errors": {
					"AddressEmptyCode(address)": [
						{
							"details": "There's no code at `target` (it is not a contract)."
						}
					],
					"ERC1967InvalidImplementation(address)": [
						{
							"details": "The `implementation` of the proxy is invalid."
						}
					],
					"ERC1967NonPayable()": [
						{
							"details": "An upgrade function sees `msg.value > 0` that may be lost."
						}
					],
					"FailedInnerCall()": [
						{
							"details": "A call to an address target failed. The target may have reverted."
						}
					],
					"InvalidInitialization()": [
						{
							"details": "The contract is already initialized."
						}
					],
					"NotInitializing()": [
						{
							"details": "The contract is not initializing."
						}
					],
					"OwnableInvalidOwner(address)": [
						{
							"details": "The owner is not a valid owner account. (eg. `address(0)`)"
						}
					],
					"OwnableUnauthorizedAccount(address)": [
						{
							"details": "The caller account is not authorized to perform an operation."
						}
					],
					"UUPSUnauthorizedCallContext()": [
						{
							"details": "The call is from an unauthorized context."
						}
					],
					"UUPSUnsupportedProxiableUUID(bytes32)": [
						{
							"details": "The storage `slot` is unsupported as a UUID."
						}
					]
				},
				"events": {
					"Initialized(uint64)": {
						"details": "Triggered when the contract has been initialized or reinitialized."
					},
					"Upgraded(address)": {
						"details": "Emitted when the implementation is upgraded."
					}
				},
				"kind": "dev",
				"methods": {
					"constructor": {
						"custom:oz-upgrades-unsafe-allow": "constructor"
					},
					"owner()": {
						"details": "Returns the address of the current owner."
					},
					"proxiableUUID()": {
						"details": "Implementation of the ERC1822 {proxiableUUID} function. This returns the storage slot used by the implementation. It is used to validate the implementation's compatibility when performing an upgrade. IMPORTANT: A proxy pointing at a proxiable contract should not be considered proxiable itself, because this risks bricking a proxy that upgrades to it, by delegating to itself until out of gas. Thus it is critical that this function revert if invoked through a proxy. This is guaranteed by the `notDelegated` modifier."
					},
					"renounceOwnership()": {
						"details": "Leaves the contract without owner. It will not be possible to call `onlyOwner` functions. Can only be called by the current owner. NOTE: Renouncing ownership will leave the contract without an owner, thereby disabling any functionality that is only available to the owner."
					},
					"transferOwnership(address)": {
						"details": "Transfers ownership of the contract to a new account (`newOwner`). Can only be called by the current owner."
					},
					"upgradeToAndCall(address,bytes)": {
						"custom:oz-upgrades-unsafe-allow-reachable": "delegatecall",
						"details": "Upgrade the implementation of the proxy to `newImplementation`, and subsequently execute the function call encoded in `data`. Calls {_authorizeUpgrade}. Emits an {Upgraded} event."
					}
				},
				"version": 1
			},
			"evm": {
				"assembly": "    /* \"DripWarrior/poolContract.sol\":895:16201  contract PoolContrcat is Initializable, OwnableUpgradeable, UUPSUpgradeable, AutomationCompatibleInterface {... */\n  mstore(0x40, 0xa0)\n    /* \"@openzeppelin/contracts-upgradeable/proxy/utils/UUPSUpgradeable.sol\":1171:1175  this */\n  address\n    /* \"@openzeppelin/contracts-upgradeable/proxy/utils/UUPSUpgradeable.sol\":1128:1176  address private immutable __self = address(this) */\n  0xffffffffffffffffffffffffffffffffffffffff\n  and\n  0x80\n  swap1\n  0xffffffffffffffffffffffffffffffffffffffff\n  and\n  dup2\n  mstore\n  pop\n    /* \"DripWarrior/poolContract.sol\":3541:3594  constructor() {... */\n  callvalue\n  dup1\n  iszero\n  tag_1\n  jumpi\n  0x00\n  dup1\n  revert\ntag_1:\n  pop\n    /* \"DripWarrior/poolContract.sol\":3565:3587  _disableInitializers() */\n  tag_4\n    /* \"DripWarrior/poolContract.sol\":3565:3585  _disableInitializers */\n  shl(0x20, tag_5)\n    /* \"DripWarrior/poolContract.sol\":3565:3587  _disableInitializers() */\n  0x20\n  shr\n  jump\t// in\ntag_4:\n    /* \"DripWarrior/poolContract.sol\":895:16201  contract PoolContrcat is Initializable, OwnableUpgradeable, UUPSUpgradeable, AutomationCompatibleInterface {... */\n  jump(tag_6)\n    /* \"@openzeppelin/contracts-upgradeable/proxy/utils/Initializable.sol\":7711:8133  function _disableInitializers() internal virtual {... */\ntag_5:\n    /* \"@openzeppelin/contracts-upgradeable/proxy/utils/Initializable.sol\":7826:7856  InitializableStorage storage $ */\n  0x00\n    /* \"@openzeppelin/contracts-upgradeable/proxy/utils/Initializable.sol\":7859:7885  _getInitializableStorage() */\n  tag_8\n    /* \"@openzeppelin/contracts-upgradeable/proxy/utils/Initializable.sol\":7859:7883  _getInitializableStorage */\n  shl(0x20, tag_9)\n    /* \"@openzeppelin/contracts-upgradeable/proxy/utils/Initializable.sol\":7859:7885  _getInitializableStorage() */\n  0x20\n  shr\n  jump\t// in\ntag_8:\n    /* \"@openzeppelin/contracts-upgradeable/proxy/utils/Initializable.sol\":7826:7885  InitializableStorage storage $ = _getInitializableStorage() */\n  swap1\n  pop\n    /* \"@openzeppelin/contracts-upgradeable/proxy/utils/Initializable.sol\":7900:7901  $ */\n  dup1\n    /* \"@openzeppelin/contracts-upgradeable/proxy/utils/Initializable.sol\":7900:7915  $._initializing */\n  0x00\n  add\n  0x08\n  swap1\n  sload\n  swap1\n  0x0100\n  exp\n  swap1\n  div\n  0xff\n  and\n    /* \"@openzeppelin/contracts-upgradeable/proxy/utils/Initializable.sol\":7896:7972  if ($._initializing) {... */\n  iszero\n  tag_10\n  jumpi\n    /* \"@openzeppelin/contracts-upgradeable/proxy/utils/Initializable.sol\":7938:7961  InvalidInitialization() */\n  mload(0x40)\n  0xf92ee8a900000000000000000000000000000000000000000000000000000000\n  dup2\n  mstore\n  0x04\n  add\n  mload(0x40)\n  dup1\n  swap2\n  sub\n  swap1\n  revert\n    /* \"@openzeppelin/contracts-upgradeable/proxy/utils/Initializable.sol\":7896:7972  if ($._initializing) {... */\ntag_10:\n    /* \"@openzeppelin/contracts-upgradeable/proxy/utils/Initializable.sol\":8003:8019  type(uint64).max */\n  0xffffffffffffffff\n    /* \"@openzeppelin/contracts-upgradeable/proxy/utils/Initializable.sol\":7985:8019  $._initialized != type(uint64).max */\n  dup1\n  and\n    /* \"@openzeppelin/contracts-upgradeable/proxy/utils/Initializable.sol\":7985:7986  $ */\n  dup2\n    /* \"@openzeppelin/contracts-upgradeable/proxy/utils/Initializable.sol\":7985:7999  $._initialized */\n  0x00\n  add\n  0x00\n  swap1\n  sload\n  swap1\n  0x0100\n  exp\n  swap1\n  div\n  0xffffffffffffffff\n  and\n    /* \"@openzeppelin/contracts-upgradeable/proxy/utils/Initializable.sol\":7985:8019  $._initialized != type(uint64).max */\n  0xffffffffffffffff\n  and\n  eq\n    /* \"@openzeppelin/contracts-upgradeable/proxy/utils/Initializable.sol\":7981:8127  if ($._initialized != type(uint64).max) {... */\n  tag_11\n  jumpi\n    /* \"@openzeppelin/contracts-upgradeable/proxy/utils/Initializable.sol\":8052:8068  type(uint64).max */\n  0xffffffffffffffff\n    /* \"@openzeppelin/contracts-upgradeable/proxy/utils/Initializable.sol\":8035:8036  $ */\n  dup2\n    /* \"@openzeppelin/contracts-upgradeable/proxy/utils/Initializable.sol\":8035:8049  $._initialized */\n  0x00\n  add\n  0x00\n    /* \"@openzeppelin/contracts-upgradeable/proxy/utils/Initializable.sol\":8035:8068  $._initialized = type(uint64).max */\n  0x0100\n  exp\n  dup2\n  sload\n  dup2\n  0xffffffffffffffff\n  mul\n  not\n  and\n  swap1\n  dup4\n  0xffffffffffffffff\n  and\n  mul\n  or\n  swap1\n  sstore\n  pop\n    /* \"@openzeppelin/contracts-upgradeable/proxy/utils/Initializable.sol\":8087:8116  Initialized(type(uint64).max) */\n  0xc7f505b2f371ae2175ee4913f4499e1f2633a7b5936321eed1cdaeb6115181d2\n    /* \"@openzeppelin/contracts-upgradeable/proxy/utils/Initializable.sol\":8099:8115  type(uint64).max */\n  0xffffffffffffffff\n    /* \"@openzeppelin/contracts-upgradeable/proxy/utils/Initializable.sol\":8087:8116  Initialized(type(uint64).max) */\n  mload(0x40)\n  tag_12\n  swap2\n  swap1\n  tag_13\n  jump\t// in\ntag_12:\n  mload(0x40)\n  dup1\n  swap2\n  sub\n  swap1\n  log1\n    /* \"@openzeppelin/contracts-upgradeable/proxy/utils/Initializable.sol\":7981:8127  if ($._initialized != type(uint64).max) {... */\ntag_11:\n    /* \"@openzeppelin/contracts-upgradeable/proxy/utils/Initializable.sol\":7760:8133  {... */\n  pop\n    /* \"@openzeppelin/contracts-upgradeable/proxy/utils/Initializable.sol\":7711:8133  function _disableInitializers() internal virtual {... */\n  jump\t// out\n    /* \"@openzeppelin/contracts-upgradeable/proxy/utils/Initializable.sol\":8737:8907  function _getInitializableStorage() private pure returns (InitializableStorage storage $) {... */\ntag_9:\n    /* \"@openzeppelin/contracts-upgradeable/proxy/utils/Initializable.sol\":8795:8825  InitializableStorage storage $ */\n  0x00\n    /* \"@openzeppelin/contracts-upgradeable/proxy/utils/Initializable.sol\":8870:8891  INITIALIZABLE_STORAGE */\n  0xf0c57e16840df040f15088dc2f81fe391c3923bec73e23a9662efc9c229c6a00\n    /* \"@openzeppelin/contracts-upgradeable/proxy/utils/Initializable.sol\":8860:8891  $.slot := INITIALIZABLE_STORAGE */\n  swap1\n  pop\n    /* \"@openzeppelin/contracts-upgradeable/proxy/utils/Initializable.sol\":8737:8907  function _getInitializableStorage() private pure returns (InitializableStorage storage $) {... */\n  swap1\n  jump\t// out\n    /* \"#utility.yul\":7:108   */\ntag_15:\n    /* \"#utility.yul\":43:50   */\n  0x00\n    /* \"#utility.yul\":83:101   */\n  0xffffffffffffffff\n    /* \"#utility.yul\":76:81   */\n  dup3\n    /* \"#utility.yul\":72:102   */\n  and\n    /* \"#utility.yul\":61:102   */\n  swap1\n  pop\n    /* \"#utility.yul\":7:108   */\n  swap2\n  swap1\n  pop\n  jump\t// out\n    /* \"#utility.yul\":114:229   */\ntag_16:\n    /* \"#utility.yul\":199:222   */\n  tag_20\n    /* \"#utility.yul\":216:221   */\n  dup2\n    /* \"#utility.yul\":199:222   */\n  tag_15\n  jump\t// in\ntag_20:\n    /* \"#utility.yul\":194:197   */\n  dup3\n    /* \"#utility.yul\":187:223   */\n  mstore\n    /* \"#utility.yul\":114:229   */\n  pop\n  pop\n  jump\t// out\n    /* \"#utility.yul\":235:453   */\ntag_13:\n    /* \"#utility.yul\":326:330   */\n  0x00\n    /* \"#utility.yul\":364:366   */\n  0x20\n    /* \"#utility.yul\":353:362   */\n  dup3\n    /* \"#utility.yul\":349:367   */\n  add\n    /* \"#utility.yul\":341:367   */\n  swap1\n  pop\n    /* \"#utility.yul\":377:446   */\n  tag_22\n    /* \"#utility.yul\":443:444   */\n  0x00\n    /* \"#utility.yul\":432:441   */\n  dup4\n    /* \"#utility.yul\":428:445   */\n  add\n    /* \"#utility.yul\":419:425   */\n  dup5\n    /* \"#utility.yul\":377:446   */\n  tag_16\n  jump\t// in\ntag_22:\n    /* \"#utility.yul\":235:453   */\n  swap3\n  swap2\n  pop\n  pop\n  jump\t// out\n    /* \"DripWarrior/poolContract.sol\":895:16201  contract PoolContrcat is Initializable, OwnableUpgradeable, UUPSUpgradeable, AutomationCompatibleInterface {... */\ntag_6:\n  mload(0x80)\n  codecopy(0x00, dataOffset(sub_0), dataSize(sub_0))\n  0x00\n  assignImmutable(\"0x6740f0f1ed974f4bbc4ea3ddf8917f81b1171208e4ec27e89df857ca2a56624a\")\n  return(0x00, dataSize(sub_0))\nstop\n\nsub_0: assembly {\n        /* \"DripWarrior/poolContract.sol\":895:16201  contract PoolContrcat is Initializable, OwnableUpgradeable, UUPSUpgradeable, AutomationCompatibleInterface {... */\n      mstore(0x40, 0x80)\n      jumpi(tag_1, lt(calldatasize, 0x04))\n      shr(0xe0, calldataload(0x00))\n      dup1\n      0x78fd078d\n      gt\n      tag_48\n      jumpi\n      dup1\n      0xb47ff951\n      gt\n      tag_49\n      jumpi\n      dup1\n      0xd777cc6d\n      gt\n      tag_50\n      jumpi\n      dup1\n      0xd777cc6d\n      eq\n      tag_42\n      jumpi\n      dup1\n      0xd9b998b4\n      eq\n      tag_43\n      jumpi\n      dup1\n      0xe9c68e2c\n      eq\n      tag_44\n      jumpi\n      dup1\n      0xed061067\n      eq\n      tag_45\n      jumpi\n      dup1\n      0xf2fde38b\n      eq\n      tag_46\n      jumpi\n      dup1\n      0xff3d65d9\n      eq\n      tag_47\n      jumpi\n      jump(tag_1)\n    tag_50:\n      dup1\n      0xb47ff951\n      eq\n      tag_36\n      jumpi\n      dup1\n      0xb9dac1eb\n      eq\n      tag_37\n      jumpi\n      dup1\n      0xbccbc36c\n      eq\n      tag_38\n      jumpi\n      dup1\n      0xc0c53b8b\n      eq\n      tag_39\n      jumpi\n      dup1\n      0xc7fd5bf0\n      eq\n      tag_40\n      jumpi\n      dup1\n      0xce356a24\n      eq\n      tag_41\n      jumpi\n      jump(tag_1)\n    tag_49:\n      dup1\n      0x8da5cb5b\n      gt\n      tag_51\n      jumpi\n      dup1\n      0x8da5cb5b\n      eq\n      tag_30\n      jumpi\n      dup1\n      0x947a36fb\n      eq\n      tag_31\n      jumpi\n      dup1\n      0x9c361e4e\n      eq\n      tag_32\n      jumpi\n      dup1\n      0xa4f67b8b\n      eq\n      tag_33\n      jumpi\n      dup1\n      0xad3cb1cc\n      eq\n      tag_34\n      jumpi\n      dup1\n      0xad8e5ec4\n      eq\n      tag_35\n      jumpi\n      jump(tag_1)\n    tag_51:\n      dup1\n      0x78fd078d\n      eq\n      tag_25\n      jumpi\n      dup1\n      0x7f111e60\n      eq\n      tag_26\n      jumpi\n      dup1\n      0x7f70c5e7\n      eq\n      tag_27\n      jumpi\n      dup1\n      0x7ffe4d93\n      eq\n      tag_28\n      jumpi\n      dup1\n      0x85f45250\n      eq\n      tag_29\n      jumpi\n      jump(tag_1)\n    tag_48:\n      dup1\n      0x4585e33b\n      gt\n      tag_52\n      jumpi\n      dup1\n      0x5f17e616\n      gt\n      tag_53\n      jumpi\n      dup1\n      0x5f17e616\n      eq\n      tag_19\n      jumpi\n      dup1\n      0x6626b26d\n      eq\n      tag_20\n      jumpi\n      dup1\n      0x67976974\n      eq\n      tag_21\n      jumpi\n      dup1\n      0x6e04ff0d\n      eq\n      tag_22\n      jumpi\n      dup1\n      0x715018a6\n      eq\n      tag_23\n      jumpi\n      dup1\n      0x7547c7a3\n      eq\n      tag_24\n      jumpi\n      jump(tag_1)\n    tag_53:\n      dup1\n      0x4585e33b\n      eq\n      tag_13\n      jumpi\n      dup1\n      0x4f1ef286\n      eq\n      tag_14\n      jumpi\n      dup1\n      0x5256dbbf\n      eq\n      tag_15\n      jumpi\n      dup1\n      0x52d1902d\n      eq\n      tag_16\n      jumpi\n      dup1\n      0x5462870d\n      eq\n      tag_17\n      jumpi\n      dup1\n      0x567e98f9\n      eq\n      tag_18\n      jumpi\n      jump(tag_1)\n    tag_52:\n      dup1\n      0x30e3f8f8\n      gt\n      tag_54\n      jumpi\n      dup1\n      0x30e3f8f8\n      eq\n      tag_7\n      jumpi\n      dup1\n      0x33244c2c\n      eq\n      tag_8\n      jumpi\n      dup1\n      0x39518b5e\n      eq\n      tag_9\n      jumpi\n      dup1\n      0x3a71a9e4\n      eq\n      tag_10\n      jumpi\n      dup1\n      0x3f3b3b27\n      eq\n      tag_11\n      jumpi\n      dup1\n      0x44490ff4\n      eq\n      tag_12\n      jumpi\n      jump(tag_1)\n    tag_54:\n      dup1\n      0x01934a83\n      eq\n      tag_2\n      jumpi\n      dup1\n      0x11eac855\n      eq\n      tag_3\n      jumpi\n      dup1\n      0x188e07b9\n      eq\n      tag_4\n      jumpi\n      dup1\n      0x2765df7a\n      eq\n      tag_5\n      jumpi\n      dup1\n      0x3070fbf8\n      eq\n      tag_6\n      jumpi\n    tag_1:\n      0x00\n      dup1\n      revert\n        /* \"DripWarrior/poolContract.sol\":1343:1367  uint256 public noOfUsers */\n    tag_2:\n      callvalue\n      dup1\n      iszero\n      tag_55\n      jumpi\n      0x00\n      dup1\n      revert\n    tag_55:\n      pop\n      tag_56\n      tag_57\n      jump\t// in\n    tag_56:\n      mload(0x40)\n      tag_58\n      swap2\n      swap1\n      tag_59\n      jump\t// in\n    tag_58:\n      mload(0x40)\n      dup1\n      swap2\n      sub\n      swap1\n      return\n        /* \"DripWarrior/poolContract.sol\":1009:1032  IBEP20 public usdcToken */\n    tag_3:\n      callvalue\n      dup1\n      iszero\n      tag_60\n      jumpi\n      0x00\n      dup1\n      revert\n    tag_60:\n      pop\n      tag_61\n      tag_62\n      jump\t// in\n    tag_61:\n      mload(0x40)\n      tag_63\n      swap2\n      swap1\n      tag_64\n      jump\t// in\n    tag_63:\n      mload(0x40)\n      dup1\n      swap2\n      sub\n      swap1\n      return\n        /* \"DripWarrior/poolContract.sol\":1043:1076  uint256 public treasuryPoolAmount */\n    tag_4:\n      callvalue\n      dup1\n      iszero\n      tag_65\n      jumpi\n      0x00\n      dup1\n      revert\n    tag_65:\n      pop\n      tag_66\n      tag_67\n      jump\t// in\n    tag_66:\n      mload(0x40)\n      tag_68\n      swap2\n      swap1\n      tag_59\n      jump\t// in\n    tag_68:\n      mload(0x40)\n      dup1\n      swap2\n      sub\n      swap1\n      return\n        /* \"DripWarrior/poolContract.sol\":4339:4677  function addProjects(uint256 _tPPercentage) external onlyOwner(){... */\n    tag_5:\n      callvalue\n      dup1\n      iszero\n      tag_69\n      jumpi\n      0x00\n      dup1\n      revert\n    tag_69:\n      pop\n      tag_70\n      0x04\n      dup1\n      calldatasize\n      sub\n      dup2\n      add\n      swap1\n      tag_71\n      swap2\n      swap1\n      tag_72\n      jump\t// in\n    tag_71:\n      tag_73\n      jump\t// in\n    tag_70:\n      stop\n        /* \"DripWarrior/poolContract.sol\":1656:1689  address public s_forwarderAddress */\n    tag_6:\n      callvalue\n      dup1\n      iszero\n      tag_74\n      jumpi\n      0x00\n      dup1\n      revert\n    tag_74:\n      pop\n      tag_75\n      tag_76\n      jump\t// in\n    tag_75:\n      mload(0x40)\n      tag_77\n      swap2\n      swap1\n      tag_78\n      jump\t// in\n    tag_77:\n      mload(0x40)\n      dup1\n      swap2\n      sub\n      swap1\n      return\n        /* \"DripWarrior/poolContract.sol\":1410:1431  bool public checkOnce */\n    tag_7:\n      callvalue\n      dup1\n      iszero\n      tag_79\n      jumpi\n      0x00\n      dup1\n      revert\n    tag_79:\n      pop\n      tag_80\n      tag_81\n      jump\t// in\n    tag_80:\n      mload(0x40)\n      tag_82\n      swap2\n      swap1\n      tag_83\n      jump\t// in\n    tag_82:\n      mload(0x40)\n      dup1\n      swap2\n      sub\n      swap1\n      return\n        /* \"DripWarrior/poolContract.sol\":1161:1201  uint256 public tdividentPayoutPercentage */\n    tag_8:\n      callvalue\n      dup1\n      iszero\n      tag_84\n      jumpi\n      0x00\n      dup1\n      revert\n    tag_84:\n      pop\n      tag_85\n      tag_86\n      jump\t// in\n    tag_85:\n      mload(0x40)\n      tag_87\n      swap2\n      swap1\n      tag_59\n      jump\t// in\n    tag_87:\n      mload(0x40)\n      dup1\n      swap2\n      sub\n      swap1\n      return\n        /* \"DripWarrior/poolContract.sol\":1538:1565  uint256 public startingTime */\n    tag_9:\n      callvalue\n      dup1\n      iszero\n      tag_88\n      jumpi\n      0x00\n      dup1\n      revert\n    tag_88:\n      pop\n      tag_89\n      tag_90\n      jump\t// in\n    tag_89:\n      mload(0x40)\n      tag_91\n      swap2\n      swap1\n      tag_59\n      jump\t// in\n    tag_91:\n      mload(0x40)\n      dup1\n      swap2\n      sub\n      swap1\n      return\n        /* \"DripWarrior/poolContract.sol\":1298:1336  uint256 public maintainceFeePercentage */\n    tag_10:\n      callvalue\n      dup1\n      iszero\n      tag_92\n      jumpi\n      0x00\n      dup1\n      revert\n    tag_92:\n      pop\n      tag_93\n      tag_94\n      jump\t// in\n    tag_93:\n      mload(0x40)\n      tag_95\n      swap2\n      swap1\n      tag_59\n      jump\t// in\n    tag_95:\n      mload(0x40)\n      dup1\n      swap2\n      sub\n      swap1\n      return\n        /* \"DripWarrior/poolContract.sol\":1572:1600  uint256 public lastTimeStamp */\n    tag_11:\n      callvalue\n      dup1\n      iszero\n      tag_96\n      jumpi\n      0x00\n      dup1\n      revert\n    tag_96:\n      pop\n      tag_97\n      tag_98\n      jump\t// in\n    tag_97:\n      mload(0x40)\n      tag_99\n      swap2\n      swap1\n      tag_59\n      jump\t// in\n    tag_99:\n      mload(0x40)\n      dup1\n      swap2\n      sub\n      swap1\n      return\n        /* \"DripWarrior/poolContract.sol\":1207:1247  uint256 public odividentPayoutPercentage */\n    tag_12:\n      callvalue\n      dup1\n      iszero\n      tag_100\n      jumpi\n      0x00\n      dup1\n      revert\n    tag_100:\n      pop\n      tag_101\n      tag_102\n      jump\t// in\n    tag_101:\n      mload(0x40)\n      tag_103\n      swap2\n      swap1\n      tag_59\n      jump\t// in\n    tag_103:\n      mload(0x40)\n      dup1\n      swap2\n      sub\n      swap1\n      return\n        /* \"DripWarrior/poolContract.sol\":10749:11530  function performUpkeep(bytes calldata /*performData*/) external  {... */\n    tag_13:\n      callvalue\n      dup1\n      iszero\n      tag_104\n      jumpi\n      0x00\n      dup1\n      revert\n    tag_104:\n      pop\n      tag_105\n      0x04\n      dup1\n      calldatasize\n      sub\n      dup2\n      add\n      swap1\n      tag_106\n      swap2\n      swap1\n      tag_107\n      jump\t// in\n    tag_106:\n      tag_108\n      jump\t// in\n    tag_105:\n      stop\n        /* \"@openzeppelin/contracts-upgradeable/proxy/utils/UUPSUpgradeable.sol\":4158:4372  function upgradeToAndCall(address newImplementation, bytes memory data) public payable virtual onlyProxy {... */\n    tag_14:\n      tag_109\n      0x04\n      dup1\n      calldatasize\n      sub\n      dup2\n      add\n      swap1\n      tag_110\n      swap2\n      swap1\n      tag_111\n      jump\t// in\n    tag_110:\n      tag_112\n      jump\t// in\n    tag_109:\n      stop\n        /* \"DripWarrior/poolContract.sol\":5094:5494  function addTreasuery(uint256 _amount) external onlyOwner(){... */\n    tag_15:\n      callvalue\n      dup1\n      iszero\n      tag_113\n      jumpi\n      0x00\n      dup1\n      revert\n    tag_113:\n      pop\n      tag_114\n      0x04\n      dup1\n      calldatasize\n      sub\n      dup2\n      add\n      swap1\n      tag_115\n      swap2\n      swap1\n      tag_72\n      jump\t// in\n    tag_115:\n      tag_116\n      jump\t// in\n    tag_114:\n      stop\n        /* \"@openzeppelin/contracts-upgradeable/proxy/utils/UUPSUpgradeable.sol\":3705:3839  function proxiableUUID() external view virtual notDelegated returns (bytes32) {... */\n    tag_16:\n      callvalue\n      dup1\n      iszero\n      tag_117\n      jumpi\n      0x00\n      dup1\n      revert\n    tag_117:\n      pop\n      tag_118\n      tag_119\n      jump\t// in\n    tag_118:\n      mload(0x40)\n      tag_120\n      swap2\n      swap1\n      tag_121\n      jump\t// in\n    tag_120:\n      mload(0x40)\n      dup1\n      swap2\n      sub\n      swap1\n      return\n        /* \"DripWarrior/poolContract.sol\":1373:1403  address public multisigAddress */\n    tag_17:\n      callvalue\n      dup1\n      iszero\n      tag_122\n      jumpi\n      0x00\n      dup1\n      revert\n    tag_122:\n      pop\n      tag_123\n      tag_124\n      jump\t// in\n    tag_123:\n      mload(0x40)\n      tag_125\n      swap2\n      swap1\n      tag_78\n      jump\t// in\n    tag_125:\n      mload(0x40)\n      dup1\n      swap2\n      sub\n      swap1\n      return\n        /* \"DripWarrior/poolContract.sol\":1122:1154  uint256 public totalStakedAmount */\n    tag_18:\n      callvalue\n      dup1\n      iszero\n      tag_126\n      jumpi\n      0x00\n      dup1\n      revert\n    tag_126:\n      pop\n      tag_127\n      tag_128\n      jump\t// in\n    tag_127:\n      mload(0x40)\n      tag_129\n      swap2\n      swap1\n      tag_59\n      jump\t// in\n    tag_129:\n      mload(0x40)\n      dup1\n      swap2\n      sub\n      swap1\n      return\n        /* \"DripWarrior/poolContract.sol\":11542:12029  function setInterval (uint256 _startingTime, uint256 updateInterval) external  onlyOwner{... */\n    tag_19:\n      callvalue\n      dup1\n      iszero\n      tag_130\n      jumpi\n      0x00\n      dup1\n      revert\n    tag_130:\n      pop\n      tag_131\n      0x04\n      dup1\n      calldatasize\n      sub\n      dup2\n      add\n      swap1\n      tag_132\n      swap2\n      swap1\n      tag_133\n      jump\t// in\n    tag_132:\n      tag_134\n      jump\t// in\n    tag_131:\n      stop\n        /* \"DripWarrior/poolContract.sol\":12035:12183  function off () external  onlyOwner{... */\n    tag_20:\n      callvalue\n      dup1\n      iszero\n      tag_135\n      jumpi\n      0x00\n      dup1\n      revert\n    tag_135:\n      pop\n      tag_136\n      tag_137\n      jump\t// in\n    tag_136:\n      stop\n        /* \"DripWarrior/poolContract.sol\":12926:13503  function userWithdrawAmoount(uint256 _amount) external nonReentrant {... */\n    tag_21:\n      callvalue\n      dup1\n      iszero\n      tag_138\n      jumpi\n      0x00\n      dup1\n      revert\n    tag_138:\n      pop\n      tag_139\n      0x04\n      dup1\n      calldatasize\n      sub\n      dup2\n      add\n      swap1\n      tag_140\n      swap2\n      swap1\n      tag_72\n      jump\t// in\n    tag_140:\n      tag_141\n      jump\t// in\n    tag_139:\n      stop\n        /* \"DripWarrior/poolContract.sol\":10511:10743  function checkUpkeep(bytes calldata /*checkData*/) external override view  returns (bool, bytes memory) {... */\n    tag_22:\n      callvalue\n      dup1\n      iszero\n      tag_142\n      jumpi\n      0x00\n      dup1\n      revert\n    tag_142:\n      pop\n      tag_143\n      0x04\n      dup1\n      calldatasize\n      sub\n      dup2\n      add\n      swap1\n      tag_144\n      swap2\n      swap1\n      tag_107\n      jump\t// in\n    tag_144:\n      tag_145\n      jump\t// in\n    tag_143:\n      mload(0x40)\n      tag_146\n      swap3\n      swap2\n      swap1\n      tag_147\n      jump\t// in\n    tag_146:\n      mload(0x40)\n      dup1\n      swap2\n      sub\n      swap1\n      return\n        /* \"@openzeppelin/contracts-upgradeable/access/OwnableUpgradeable.sol\":3155:3256  function renounceOwnership() public virtual onlyOwner {... */\n    tag_23:\n      callvalue\n      dup1\n      iszero\n      tag_148\n      jumpi\n      0x00\n      dup1\n      revert\n    tag_148:\n      pop\n      tag_149\n      tag_150\n      jump\t// in\n    tag_149:\n      stop\n        /* \"DripWarrior/poolContract.sol\":5500:6302  function stakeTokens(uint256 _amount) external  {... */\n    tag_24:\n      callvalue\n      dup1\n      iszero\n      tag_151\n      jumpi\n      0x00\n      dup1\n      revert\n    tag_151:\n      pop\n      tag_152\n      0x04\n      dup1\n      calldatasize\n      sub\n      dup2\n      add\n      swap1\n      tag_153\n      swap2\n      swap1\n      tag_72\n      jump\t// in\n    tag_153:\n      tag_154\n      jump\t// in\n    tag_152:\n      stop\n        /* \"DripWarrior/poolContract.sol\":4683:5084  function addOwnership(uint256 _amount) external onlyOwner(){... */\n    tag_25:\n      callvalue\n      dup1\n      iszero\n      tag_155\n      jumpi\n      0x00\n      dup1\n      revert\n    tag_155:\n      pop\n      tag_156\n      0x04\n      dup1\n      calldatasize\n      sub\n      dup2\n      add\n      swap1\n      tag_157\n      swap2\n      swap1\n      tag_72\n      jump\t// in\n    tag_157:\n      tag_158\n      jump\t// in\n    tag_156:\n      stop\n        /* \"DripWarrior/poolContract.sol\":15434:15757  function setmaintainceFeePercentage(uint256 _newPerccentage) external onlyOwner {... */\n    tag_26:\n      callvalue\n      dup1\n      iszero\n      tag_159\n      jumpi\n      0x00\n      dup1\n      revert\n    tag_159:\n      pop\n      tag_160\n      0x04\n      dup1\n      calldatasize\n      sub\n      dup2\n      add\n      swap1\n      tag_161\n      swap2\n      swap1\n      tag_72\n      jump\t// in\n    tag_161:\n      tag_162\n      jump\t// in\n    tag_160:\n      stop\n        /* \"DripWarrior/poolContract.sol\":14423:14753  function settdividentPayoutPercentage(uint256 _newPerccentage) external onlyOwner {... */\n    tag_27:\n      callvalue\n      dup1\n      iszero\n      tag_163\n      jumpi\n      0x00\n      dup1\n      revert\n    tag_163:\n      pop\n      tag_164\n      0x04\n      dup1\n      calldatasize\n      sub\n      dup2\n      add\n      swap1\n      tag_165\n      swap2\n      swap1\n      tag_72\n      jump\t// in\n    tag_165:\n      tag_166\n      jump\t// in\n    tag_164:\n      stop\n        /* \"DripWarrior/poolContract.sol\":6308:6986  function reStakeTokens(uint256 _amount) external  {... */\n    tag_28:\n      callvalue\n      dup1\n      iszero\n      tag_167\n      jumpi\n      0x00\n      dup1\n      revert\n    tag_167:\n      pop\n      tag_168\n      0x04\n      dup1\n      calldatasize\n      sub\n      dup2\n      add\n      swap1\n      tag_169\n      swap2\n      swap1\n      tag_72\n      jump\t// in\n    tag_169:\n      tag_170\n      jump\t// in\n    tag_168:\n      stop\n        /* \"DripWarrior/poolContract.sol\":6996:7537  function addFunds(uint256 _amount, uint256 _projectNo)   external {... */\n    tag_29:\n      callvalue\n      dup1\n      iszero\n      tag_171\n      jumpi\n      0x00\n      dup1\n      revert\n    tag_171:\n      pop\n      tag_172\n      0x04\n      dup1\n      calldatasize\n      sub\n      dup2\n      add\n      swap1\n      tag_173\n      swap2\n      swap1\n      tag_133\n      jump\t// in\n    tag_173:\n      tag_174\n      jump\t// in\n    tag_172:\n      stop\n        /* \"@openzeppelin/contracts-upgradeable/access/OwnableUpgradeable.sol\":2441:2585  function owner() public view virtual returns (address) {... */\n    tag_30:\n      callvalue\n      dup1\n      iszero\n      tag_175\n      jumpi\n      0x00\n      dup1\n      revert\n    tag_175:\n      pop\n      tag_176\n      tag_177\n      jump\t// in\n    tag_176:\n      mload(0x40)\n      tag_178\n      swap2\n      swap1\n      tag_78\n      jump\t// in\n    tag_178:\n      mload(0x40)\n      dup1\n      swap2\n      sub\n      swap1\n      return\n        /* \"DripWarrior/poolContract.sol\":1462:1485  uint256 public interval */\n    tag_31:\n      callvalue\n      dup1\n      iszero\n      tag_179\n      jumpi\n      0x00\n      dup1\n      revert\n    tag_179:\n      pop\n      tag_180\n      tag_181\n      jump\t// in\n    tag_180:\n      mload(0x40)\n      tag_182\n      swap2\n      swap1\n      tag_59\n      jump\t// in\n    tag_182:\n      mload(0x40)\n      dup1\n      swap2\n      sub\n      swap1\n      return\n        /* \"DripWarrior/poolContract.sol\":1928:1956  uint256 public totalProjects */\n    tag_32:\n      callvalue\n      dup1\n      iszero\n      tag_183\n      jumpi\n      0x00\n      dup1\n      revert\n    tag_183:\n      pop\n      tag_184\n      tag_185\n      jump\t// in\n    tag_184:\n      mload(0x40)\n      tag_186\n      swap2\n      swap1\n      tag_59\n      jump\t// in\n    tag_186:\n      mload(0x40)\n      dup1\n      swap2\n      sub\n      swap1\n      return\n        /* \"DripWarrior/poolContract.sol\":2012:2057  mapping(uint256 => address) public totalUsers */\n    tag_33:\n      callvalue\n      dup1\n      iszero\n      tag_187\n      jumpi\n      0x00\n      dup1\n      revert\n    tag_187:\n      pop\n      tag_188\n      0x04\n      dup1\n      calldatasize\n      sub\n      dup2\n      add\n      swap1\n      tag_189\n      swap2\n      swap1\n      tag_72\n      jump\t// in\n    tag_189:\n      tag_190\n      jump\t// in\n    tag_188:\n      mload(0x40)\n      tag_191\n      swap2\n      swap1\n      tag_78\n      jump\t// in\n    tag_191:\n      mload(0x40)\n      dup1\n      swap2\n      sub\n      swap1\n      return\n        /* \"@openzeppelin/contracts-upgradeable/proxy/utils/UUPSUpgradeable.sol\":1819:1877  string public constant UPGRADE_INTERFACE_VERSION = \"5.0.0\" */\n    tag_34:\n      callvalue\n      dup1\n      iszero\n      tag_192\n      jumpi\n      0x00\n      dup1\n      revert\n    tag_192:\n      pop\n      tag_193\n      tag_194\n      jump\t// in\n    tag_193:\n      mload(0x40)\n      tag_195\n      swap2\n      swap1\n      tag_196\n      jump\t// in\n    tag_195:\n      mload(0x40)\n      dup1\n      swap2\n      sub\n      swap1\n      return\n        /* \"DripWarrior/poolContract.sol\":15103:15428  function setflowToTreasuryPercentage(uint256 _newPerccentage) external onlyOwner {... */\n    tag_35:\n      callvalue\n      dup1\n      iszero\n      tag_197\n      jumpi\n      0x00\n      dup1\n      revert\n    tag_197:\n      pop\n      tag_198\n      0x04\n      dup1\n      calldatasize\n      sub\n      dup2\n      add\n      swap1\n      tag_199\n      swap2\n      swap1\n      tag_72\n      jump\t// in\n    tag_199:\n      tag_200\n      jump\t// in\n    tag_198:\n      stop\n        /* \"DripWarrior/poolContract.sol\":1082:1116  uint256 public ownerShipPoolAmount */\n    tag_36:\n      callvalue\n      dup1\n      iszero\n      tag_201\n      jumpi\n      0x00\n      dup1\n      revert\n    tag_201:\n      pop\n      tag_202\n      tag_203\n      jump\t// in\n    tag_202:\n      mload(0x40)\n      tag_204\n      swap2\n      swap1\n      tag_59\n      jump\t// in\n    tag_204:\n      mload(0x40)\n      dup1\n      swap2\n      sub\n      swap1\n      return\n        /* \"DripWarrior/poolContract.sol\":14763:15092  function setodividentPayoutPercentage(uint256 _newPerccentage) external onlyOwner {... */\n    tag_37:\n      callvalue\n      dup1\n      iszero\n      tag_205\n      jumpi\n      0x00\n      dup1\n      revert\n    tag_205:\n      pop\n      tag_206\n      0x04\n      dup1\n      calldatasize\n      sub\n      dup2\n      add\n      swap1\n      tag_207\n      swap2\n      swap1\n      tag_72\n      jump\t// in\n    tag_207:\n      tag_208\n      jump\t// in\n    tag_206:\n      stop\n        /* \"DripWarrior/poolContract.sol\":2117:2173  mapping(address => UserRegistered) public userRegistered */\n    tag_38:\n      callvalue\n      dup1\n      iszero\n      tag_209\n      jumpi\n      0x00\n      dup1\n      revert\n    tag_209:\n      pop\n      tag_210\n      0x04\n      dup1\n      calldatasize\n      sub\n      dup2\n      add\n      swap1\n      tag_211\n      swap2\n      swap1\n      tag_212\n      jump\t// in\n    tag_211:\n      tag_213\n      jump\t// in\n    tag_210:\n      mload(0x40)\n      tag_214\n      swap7\n      swap6\n      swap5\n      swap4\n      swap3\n      swap2\n      swap1\n      tag_215\n      jump\t// in\n    tag_214:\n      mload(0x40)\n      dup1\n      swap2\n      sub\n      swap1\n      return\n        /* \"DripWarrior/poolContract.sol\":3600:4326  function initialize(address initialOwner,address _usdcAddress,... */\n    tag_39:\n      callvalue\n      dup1\n      iszero\n      tag_216\n      jumpi\n      0x00\n      dup1\n      revert\n    tag_216:\n      pop\n      tag_217\n      0x04\n      dup1\n      calldatasize\n      sub\n      dup2\n      add\n      swap1\n      tag_218\n      swap2\n      swap1\n      tag_219\n      jump\t// in\n    tag_218:\n      tag_220\n      jump\t// in\n    tag_217:\n      stop\n        /* \"DripWarrior/poolContract.sol\":1962:2006  mapping(address => bool) public alreadyAdded */\n    tag_40:\n      callvalue\n      dup1\n      iszero\n      tag_221\n      jumpi\n      0x00\n      dup1\n      revert\n    tag_221:\n      pop\n      tag_222\n      0x04\n      dup1\n      calldatasize\n      sub\n      dup2\n      add\n      swap1\n      tag_223\n      swap2\n      swap1\n      tag_212\n      jump\t// in\n    tag_223:\n      tag_224\n      jump\t// in\n    tag_222:\n      mload(0x40)\n      tag_225\n      swap2\n      swap1\n      tag_83\n      jump\t// in\n    tag_225:\n      mload(0x40)\n      dup1\n      swap2\n      sub\n      swap1\n      return\n        /* \"DripWarrior/poolContract.sol\":1253:1292  uint256 public flowToTreasuryPercentage */\n    tag_41:\n      callvalue\n      dup1\n      iszero\n      tag_226\n      jumpi\n      0x00\n      dup1\n      revert\n    tag_226:\n      pop\n      tag_227\n      tag_228\n      jump\t// in\n    tag_227:\n      mload(0x40)\n      tag_229\n      swap2\n      swap1\n      tag_59\n      jump\t// in\n    tag_229:\n      mload(0x40)\n      dup1\n      swap2\n      sub\n      swap1\n      return\n        /* \"DripWarrior/poolContract.sol\":12190:12508  function setForwarderAddress(address forwarderAddress) external onlyOwner {... */\n    tag_42:\n      callvalue\n      dup1\n      iszero\n      tag_230\n      jumpi\n      0x00\n      dup1\n      revert\n    tag_230:\n      pop\n      tag_231\n      0x04\n      dup1\n      calldatasize\n      sub\n      dup2\n      add\n      swap1\n      tag_232\n      swap2\n      swap1\n      tag_212\n      jump\t// in\n    tag_232:\n      tag_233\n      jump\t// in\n    tag_231:\n      stop\n        /* \"DripWarrior/poolContract.sol\":13509:14063  function blockUser(address _userAddress, bool value) external onlyOwner {... */\n    tag_43:\n      callvalue\n      dup1\n      iszero\n      tag_234\n      jumpi\n      0x00\n      dup1\n      revert\n    tag_234:\n      pop\n      tag_235\n      0x04\n      dup1\n      calldatasize\n      sub\n      dup2\n      add\n      swap1\n      tag_236\n      swap2\n      swap1\n      tag_237\n      jump\t// in\n    tag_236:\n      tag_238\n      jump\t// in\n    tag_235:\n      stop\n        /* \"DripWarrior/poolContract.sol\":7931:9342  function weeklyTransfer() public  {... */\n    tag_44:\n      callvalue\n      dup1\n      iszero\n      tag_239\n      jumpi\n      0x00\n      dup1\n      revert\n    tag_239:\n      pop\n      tag_240\n      tag_241\n      jump\t// in\n    tag_240:\n      stop\n        /* \"DripWarrior/poolContract.sol\":14075:14417  function setTeasueryPercentages(uint256 _projectId,uint256 _newPerccentage) external onlyOwner {... */\n    tag_45:\n      callvalue\n      dup1\n      iszero\n      tag_242\n      jumpi\n      0x00\n      dup1\n      revert\n    tag_242:\n      pop\n      tag_243\n      0x04\n      dup1\n      calldatasize\n      sub\n      dup2\n      add\n      swap1\n      tag_244\n      swap2\n      swap1\n      tag_133\n      jump\t// in\n    tag_244:\n      tag_245\n      jump\t// in\n    tag_243:\n      stop\n        /* \"@openzeppelin/contracts-upgradeable/access/OwnableUpgradeable.sol\":3405:3620  function transferOwnership(address newOwner) public virtual onlyOwner {... */\n    tag_46:\n      callvalue\n      dup1\n      iszero\n      tag_246\n      jumpi\n      0x00\n      dup1\n      revert\n    tag_246:\n      pop\n      tag_247\n      0x04\n      dup1\n      calldatasize\n      sub\n      dup2\n      add\n      swap1\n      tag_248\n      swap2\n      swap1\n      tag_212\n      jump\t// in\n    tag_248:\n      tag_249\n      jump\t// in\n    tag_247:\n      stop\n        /* \"DripWarrior/poolContract.sol\":2063:2111  mapping(uint256 => uint256) public tPPercentages */\n    tag_47:\n      callvalue\n      dup1\n      iszero\n      tag_250\n      jumpi\n      0x00\n      dup1\n      revert\n    tag_250:\n      pop\n      tag_251\n      0x04\n      dup1\n      calldatasize\n      sub\n      dup2\n      add\n      swap1\n      tag_252\n      swap2\n      swap1\n      tag_72\n      jump\t// in\n    tag_252:\n      tag_253\n      jump\t// in\n    tag_251:\n      mload(0x40)\n      tag_254\n      swap2\n      swap1\n      tag_59\n      jump\t// in\n    tag_254:\n      mload(0x40)\n      dup1\n      swap2\n      sub\n      swap1\n      return\n        /* \"DripWarrior/poolContract.sol\":1343:1367  uint256 public noOfUsers */\n    tag_57:\n      sload(0x08)\n      dup2\n      jump\t// out\n        /* \"DripWarrior/poolContract.sol\":1009:1032  IBEP20 public usdcToken */\n    tag_62:\n      0x00\n      dup1\n      sload\n      swap1\n      0x0100\n      exp\n      swap1\n      div\n      0xffffffffffffffffffffffffffffffffffffffff\n      and\n      dup2\n      jump\t// out\n        /* \"DripWarrior/poolContract.sol\":1043:1076  uint256 public treasuryPoolAmount */\n    tag_67:\n      sload(0x01)\n      dup2\n      jump\t// out\n        /* \"DripWarrior/poolContract.sol\":4339:4677  function addProjects(uint256 _tPPercentage) external onlyOwner(){... */\n    tag_73:\n        /* \"@openzeppelin/contracts-upgradeable/access/OwnableUpgradeable.sol\":2334:2347  _checkOwner() */\n      tag_256\n        /* \"@openzeppelin/contracts-upgradeable/access/OwnableUpgradeable.sol\":2334:2345  _checkOwner */\n      tag_257\n        /* \"@openzeppelin/contracts-upgradeable/access/OwnableUpgradeable.sol\":2334:2347  _checkOwner() */\n      jump\t// in\n    tag_256:\n        /* \"DripWarrior/poolContract.sol\":4442:4443  0 */\n      0x00\n        /* \"DripWarrior/poolContract.sol\":4425:4438  _tPPercentage */\n      dup2\n        /* \"DripWarrior/poolContract.sol\":4425:4443  _tPPercentage <= 0 */\n      gt\n        /* \"DripWarrior/poolContract.sol\":4422:4506  if(_tPPercentage <= 0){... */\n      tag_259\n      jumpi\n        /* \"DripWarrior/poolContract.sol\":4481:4494  _tPPercentage */\n      dup1\n        /* \"DripWarrior/poolContract.sol\":4465:4495  wrongPercentage(_tPPercentage) */\n      mload(0x40)\n      0xcdbc633500000000000000000000000000000000000000000000000000000000\n      dup2\n      mstore\n      0x04\n      add\n      tag_260\n      swap2\n      swap1\n      tag_59\n      jump\t// in\n    tag_260:\n      mload(0x40)\n      dup1\n      swap2\n      sub\n      swap1\n      revert\n        /* \"DripWarrior/poolContract.sol\":4422:4506  if(_tPPercentage <= 0){... */\n    tag_259:\n        /* \"DripWarrior/poolContract.sol\":4547:4560  _tPPercentage */\n      dup1\n        /* \"DripWarrior/poolContract.sol\":4516:4529  tPPercentages */\n      0x11\n        /* \"DripWarrior/poolContract.sol\":4516:4544  tPPercentages[totalProjects] */\n      0x00\n        /* \"DripWarrior/poolContract.sol\":4530:4543  totalProjects */\n      sload(0x0e)\n        /* \"DripWarrior/poolContract.sol\":4516:4544  tPPercentages[totalProjects] */\n      dup2\n      mstore\n      0x20\n      add\n      swap1\n      dup2\n      mstore\n      0x20\n      add\n      0x00\n      keccak256\n        /* \"DripWarrior/poolContract.sol\":4516:4560  tPPercentages[totalProjects] = _tPPercentage */\n      dup2\n      swap1\n      sstore\n      pop\n        /* \"DripWarrior/poolContract.sol\":4570:4583  totalProjects */\n      0x0e\n      0x00\n        /* \"DripWarrior/poolContract.sol\":4570:4585  totalProjects++ */\n      dup2\n      sload\n      dup1\n      swap3\n      swap2\n      swap1\n      tag_261\n      swap1\n      tag_262\n      jump\t// in\n    tag_261:\n      swap2\n      swap1\n      pop\n      sstore\n      pop\n        /* \"DripWarrior/poolContract.sol\":4601:4670  AddProject((totalProjects--), (10000 - _tPPercentage), _tPPercentage) */\n      0xe1976e16ed8ce8e740235978fbe69b27d5eea683b2e017bb0bd2fabb33294b3f\n        /* \"DripWarrior/poolContract.sol\":4613:4626  totalProjects */\n      0x0e\n      0x00\n        /* \"DripWarrior/poolContract.sol\":4613:4628  totalProjects-- */\n      dup2\n      sload\n      dup1\n      swap3\n      swap2\n      swap1\n      tag_263\n      swap1\n      tag_264\n      jump\t// in\n    tag_263:\n      swap2\n      swap1\n      pop\n      sstore\n        /* \"DripWarrior/poolContract.sol\":4640:4653  _tPPercentage */\n      dup3\n        /* \"DripWarrior/poolContract.sol\":4632:4637  10000 */\n      0x2710\n        /* \"DripWarrior/poolContract.sol\":4632:4653  10000 - _tPPercentage */\n      tag_265\n      swap2\n      swap1\n      tag_266\n      jump\t// in\n    tag_265:\n        /* \"DripWarrior/poolContract.sol\":4656:4669  _tPPercentage */\n      dup4\n        /* \"DripWarrior/poolContract.sol\":4601:4670  AddProject((totalProjects--), (10000 - _tPPercentage), _tPPercentage) */\n      mload(0x40)\n      tag_267\n      swap4\n      swap3\n      swap2\n      swap1\n      tag_268\n      jump\t// in\n    tag_267:\n      mload(0x40)\n      dup1\n      swap2\n      sub\n      swap1\n      log1\n        /* \"DripWarrior/poolContract.sol\":4339:4677  function addProjects(uint256 _tPPercentage) external onlyOwner(){... */\n      pop\n      jump\t// out\n        /* \"DripWarrior/poolContract.sol\":1656:1689  address public s_forwarderAddress */\n    tag_76:\n      0x0d\n      0x00\n      swap1\n      sload\n      swap1\n      0x0100\n      exp\n      swap1\n      div\n      0xffffffffffffffffffffffffffffffffffffffff\n      and\n      dup2\n      jump\t// out\n        /* \"DripWarrior/poolContract.sol\":1410:1431  bool public checkOnce */\n    tag_81:\n      0x09\n      0x14\n      swap1\n      sload\n      swap1\n      0x0100\n      exp\n      swap1\n      div\n      0xff\n      and\n      dup2\n      jump\t// out\n        /* \"DripWarrior/poolContract.sol\":1161:1201  uint256 public tdividentPayoutPercentage */\n    tag_86:\n      sload(0x04)\n      dup2\n      jump\t// out\n        /* \"DripWarrior/poolContract.sol\":1538:1565  uint256 public startingTime */\n    tag_90:\n      sload(0x0b)\n      dup2\n      jump\t// out\n        /* \"DripWarrior/poolContract.sol\":1298:1336  uint256 public maintainceFeePercentage */\n    tag_94:\n      sload(0x07)\n      dup2\n      jump\t// out\n        /* \"DripWarrior/poolContract.sol\":1572:1600  uint256 public lastTimeStamp */\n    tag_98:\n      sload(0x0c)\n      dup2\n      jump\t// out\n        /* \"DripWarrior/poolContract.sol\":1207:1247  uint256 public odividentPayoutPercentage */\n    tag_102:\n      sload(0x05)\n      dup2\n      jump\t// out\n        /* \"DripWarrior/poolContract.sol\":10749:11530  function performUpkeep(bytes calldata /*performData*/) external  {... */\n    tag_108:\n        /* \"DripWarrior/poolContract.sol\":10868:10886  s_forwarderAddress */\n      0x0d\n      0x00\n      swap1\n      sload\n      swap1\n      0x0100\n      exp\n      swap1\n      div\n      0xffffffffffffffffffffffffffffffffffffffff\n      and\n        /* \"DripWarrior/poolContract.sol\":10854:10886  msg.sender == s_forwarderAddress */\n      0xffffffffffffffffffffffffffffffffffffffff\n      and\n        /* \"DripWarrior/poolContract.sol\":10854:10864  msg.sender */\n      caller\n        /* \"DripWarrior/poolContract.sol\":10854:10886  msg.sender == s_forwarderAddress */\n      0xffffffffffffffffffffffffffffffffffffffff\n      and\n      eq\n        /* \"DripWarrior/poolContract.sol\":10833:10971  require(... */\n      tag_270\n      jumpi\n      mload(0x40)\n      0x08c379a000000000000000000000000000000000000000000000000000000000\n      dup2\n      mstore\n      0x04\n      add\n      tag_271\n      swap1\n      tag_272\n      jump\t// in\n    tag_271:\n      mload(0x40)\n      dup1\n      swap2\n      sub\n      swap1\n      revert\n    tag_270:\n        /* \"DripWarrior/poolContract.sol\":11005:11006  0 */\n      0x00\n        /* \"DripWarrior/poolContract.sol\":10993:11001  interval */\n      sload(0x0a)\n        /* \"DripWarrior/poolContract.sol\":10993:11006  interval == 0 */\n      sub\n        /* \"DripWarrior/poolContract.sol\":10989:11062  if (interval == 0){... */\n      tag_273\n      jumpi\n        /* \"DripWarrior/poolContract.sol\":11042:11050  interval */\n      sload(0x0a)\n        /* \"DripWarrior/poolContract.sol\":11028:11051  wrongInterval(interval) */\n      mload(0x40)\n      0x7154000700000000000000000000000000000000000000000000000000000000\n      dup2\n      mstore\n      0x04\n      add\n      tag_274\n      swap2\n      swap1\n      tag_59\n      jump\t// in\n    tag_274:\n      mload(0x40)\n      dup1\n      swap2\n      sub\n      swap1\n      revert\n        /* \"DripWarrior/poolContract.sol\":10989:11062  if (interval == 0){... */\n    tag_273:\n        /* \"DripWarrior/poolContract.sol\":11084:11093  checkOnce */\n      0x09\n      0x14\n      swap1\n      sload\n      swap1\n      0x0100\n      exp\n      swap1\n      div\n      0xff\n      and\n        /* \"DripWarrior/poolContract.sol\":11080:11443  if(!checkOnce){... */\n      tag_275\n      jumpi\n        /* \"DripWarrior/poolContract.sol\":11131:11143  startingTime */\n      sload(0x0b)\n        /* \"DripWarrior/poolContract.sol\":11112:11127  block.timestamp */\n      timestamp\n        /* \"DripWarrior/poolContract.sol\":11112:11143  block.timestamp >= startingTime */\n      lt\n        /* \"DripWarrior/poolContract.sol\":11109:11322  if(block.timestamp >= startingTime){... */\n      tag_276\n      jumpi\n        /* \"DripWarrior/poolContract.sol\":11178:11193  block.timestamp */\n      timestamp\n        /* \"DripWarrior/poolContract.sol\":11162:11175  lastTimeStamp */\n      0x0c\n        /* \"DripWarrior/poolContract.sol\":11162:11193  lastTimeStamp = block.timestamp */\n      dup2\n      swap1\n      sstore\n      pop\n        /* \"DripWarrior/poolContract.sol\":11211:11227  weeklyTransfer() */\n      tag_277\n        /* \"DripWarrior/poolContract.sol\":11211:11225  weeklyTransfer */\n      tag_241\n        /* \"DripWarrior/poolContract.sol\":11211:11227  weeklyTransfer() */\n      jump\t// in\n    tag_277:\n        /* \"DripWarrior/poolContract.sol\":11109:11322  if(block.timestamp >= startingTime){... */\n      jump(tag_278)\n    tag_276:\n        /* \"DripWarrior/poolContract.sol\":11294:11306  startingTime */\n      sload(0x0b)\n        /* \"DripWarrior/poolContract.sol\":11284:11307  wrongTime(startingTime) */\n      mload(0x40)\n      0x54593e7500000000000000000000000000000000000000000000000000000000\n      dup2\n      mstore\n      0x04\n      add\n      tag_279\n      swap2\n      swap1\n      tag_59\n      jump\t// in\n    tag_279:\n      mload(0x40)\n      dup1\n      swap2\n      sub\n      swap1\n      revert\n        /* \"DripWarrior/poolContract.sol\":11109:11322  if(block.timestamp >= startingTime){... */\n    tag_278:\n        /* \"DripWarrior/poolContract.sol\":11080:11443  if(!checkOnce){... */\n      jump(tag_280)\n    tag_275:\n        /* \"DripWarrior/poolContract.sol\":11387:11402  block.timestamp */\n      timestamp\n        /* \"DripWarrior/poolContract.sol\":11371:11384  lastTimeStamp */\n      0x0c\n        /* \"DripWarrior/poolContract.sol\":11371:11402  lastTimeStamp = block.timestamp */\n      dup2\n      swap1\n      sstore\n      pop\n        /* \"DripWarrior/poolContract.sol\":11416:11432  weeklyTransfer() */\n      tag_281\n        /* \"DripWarrior/poolContract.sol\":11416:11430  weeklyTransfer */\n      tag_241\n        /* \"DripWarrior/poolContract.sol\":11416:11432  weeklyTransfer() */\n      jump\t// in\n    tag_281:\n        /* \"DripWarrior/poolContract.sol\":11080:11443  if(!checkOnce){... */\n    tag_280:\n        /* \"DripWarrior/poolContract.sol\":11464:11473  checkOnce */\n      0x09\n      0x14\n      swap1\n      sload\n      swap1\n      0x0100\n      exp\n      swap1\n      div\n      0xff\n      and\n        /* \"DripWarrior/poolContract.sol\":11460:11515  if(!checkOnce){... */\n      tag_282\n      jumpi\n        /* \"DripWarrior/poolContract.sol\":11500:11504  true */\n      0x01\n        /* \"DripWarrior/poolContract.sol\":11488:11497  checkOnce */\n      0x09\n      0x14\n        /* \"DripWarrior/poolContract.sol\":11488:11504  checkOnce = true */\n      0x0100\n      exp\n      dup2\n      sload\n      dup2\n      0xff\n      mul\n      not\n      and\n      swap1\n      dup4\n      iszero\n      iszero\n      mul\n      or\n      swap1\n      sstore\n      pop\n        /* \"DripWarrior/poolContract.sol\":11460:11515  if(!checkOnce){... */\n    tag_282:\n        /* \"DripWarrior/poolContract.sol\":10749:11530  function performUpkeep(bytes calldata /*performData*/) external  {... */\n      pop\n      pop\n      jump\t// out\n        /* \"@openzeppelin/contracts-upgradeable/proxy/utils/UUPSUpgradeable.sol\":4158:4372  function upgradeToAndCall(address newImplementation, bytes memory data) public payable virtual onlyProxy {... */\n    tag_112:\n        /* \"@openzeppelin/contracts-upgradeable/proxy/utils/UUPSUpgradeable.sol\":2653:2666  _checkProxy() */\n      tag_284\n        /* \"@openzeppelin/contracts-upgradeable/proxy/utils/UUPSUpgradeable.sol\":2653:2664  _checkProxy */\n      tag_285\n        /* \"@openzeppelin/contracts-upgradeable/proxy/utils/UUPSUpgradeable.sol\":2653:2666  _checkProxy() */\n      jump\t// in\n    tag_284:\n        /* \"@openzeppelin/contracts-upgradeable/proxy/utils/UUPSUpgradeable.sol\":4273:4309  _authorizeUpgrade(newImplementation) */\n      tag_287\n        /* \"@openzeppelin/contracts-upgradeable/proxy/utils/UUPSUpgradeable.sol\":4291:4308  newImplementation */\n      dup3\n        /* \"@openzeppelin/contracts-upgradeable/proxy/utils/UUPSUpgradeable.sol\":4273:4290  _authorizeUpgrade */\n      tag_288\n        /* \"@openzeppelin/contracts-upgradeable/proxy/utils/UUPSUpgradeable.sol\":4273:4309  _authorizeUpgrade(newImplementation) */\n      jump\t// in\n    tag_287:\n        /* \"@openzeppelin/contracts-upgradeable/proxy/utils/UUPSUpgradeable.sol\":4319:4365  _upgradeToAndCallUUPS(newImplementation, data) */\n      tag_289\n        /* \"@openzeppelin/contracts-upgradeable/proxy/utils/UUPSUpgradeable.sol\":4341:4358  newImplementation */\n      dup3\n        /* \"@openzeppelin/contracts-upgradeable/proxy/utils/UUPSUpgradeable.sol\":4360:4364  data */\n      dup3\n        /* \"@openzeppelin/contracts-upgradeable/proxy/utils/UUPSUpgradeable.sol\":4319:4340  _upgradeToAndCallUUPS */\n      tag_290\n        /* \"@openzeppelin/contracts-upgradeable/proxy/utils/UUPSUpgradeable.sol\":4319:4365  _upgradeToAndCallUUPS(newImplementation, data) */\n      jump\t// in\n    tag_289:\n        /* \"@openzeppelin/contracts-upgradeable/proxy/utils/UUPSUpgradeable.sol\":4158:4372  function upgradeToAndCall(address newImplementation, bytes memory data) public payable virtual onlyProxy {... */\n      pop\n      pop\n      jump\t// out\n        /* \"DripWarrior/poolContract.sol\":5094:5494  function addTreasuery(uint256 _amount) external onlyOwner(){... */\n    tag_116:\n        /* \"@openzeppelin/contracts-upgradeable/access/OwnableUpgradeable.sol\":2334:2347  _checkOwner() */\n      tag_292\n        /* \"@openzeppelin/contracts-upgradeable/access/OwnableUpgradeable.sol\":2334:2345  _checkOwner */\n      tag_257\n        /* \"@openzeppelin/contracts-upgradeable/access/OwnableUpgradeable.sol\":2334:2347  _checkOwner() */\n      jump\t// in\n    tag_292:\n        /* \"DripWarrior/poolContract.sol\":5186:5187  0 */\n      0x00\n        /* \"DripWarrior/poolContract.sol\":5175:5182  _amount */\n      dup2\n        /* \"DripWarrior/poolContract.sol\":5175:5187  _amount <= 0 */\n      gt\n        /* \"DripWarrior/poolContract.sol\":5172:5240  if(_amount <= 0){... */\n      tag_294\n      jumpi\n        /* \"DripWarrior/poolContract.sol\":5221:5228  _amount */\n      dup1\n        /* \"DripWarrior/poolContract.sol\":5209:5229  wrongAmount(_amount) */\n      mload(0x40)\n      0x2ff4783000000000000000000000000000000000000000000000000000000000\n      dup2\n      mstore\n      0x04\n      add\n      tag_295\n      swap2\n      swap1\n      tag_59\n      jump\t// in\n    tag_295:\n      mload(0x40)\n      dup1\n      swap2\n      sub\n      swap1\n      revert\n        /* \"DripWarrior/poolContract.sol\":5172:5240  if(_amount <= 0){... */\n    tag_294:\n        /* \"DripWarrior/poolContract.sol\":5273:5280  _amount */\n      dup1\n        /* \"DripWarrior/poolContract.sol\":5251:5269  treasuryPoolAmount */\n      0x01\n      0x00\n        /* \"DripWarrior/poolContract.sol\":5251:5280  treasuryPoolAmount += _amount */\n      dup3\n      dup3\n      sload\n      tag_296\n      swap2\n      swap1\n      tag_297\n      jump\t// in\n    tag_296:\n      swap3\n      pop\n      pop\n      dup2\n      swap1\n      sstore\n      pop\n        /* \"DripWarrior/poolContract.sol\":5291:5303  bool success */\n      0x00\n        /* \"DripWarrior/poolContract.sol\":5306:5315  usdcToken */\n      dup1\n      0x00\n      swap1\n      sload\n      swap1\n      0x0100\n      exp\n      swap1\n      div\n      0xffffffffffffffffffffffffffffffffffffffff\n      and\n        /* \"DripWarrior/poolContract.sol\":5306:5328  usdcToken.transferFrom */\n      0xffffffffffffffffffffffffffffffffffffffff\n      and\n      0x23b872dd\n        /* \"DripWarrior/poolContract.sol\":5329:5339  msg.sender */\n      caller\n        /* \"DripWarrior/poolContract.sol\":5348:5352  this */\n      address\n        /* \"DripWarrior/poolContract.sol\":5354:5361  _amount */\n      dup6\n        /* \"DripWarrior/poolContract.sol\":5306:5363  usdcToken.transferFrom(msg.sender,address(this),_amount ) */\n      mload(0x40)\n      dup5\n      0xffffffff\n      and\n      0xe0\n      shl\n      dup2\n      mstore\n      0x04\n      add\n      tag_298\n      swap4\n      swap3\n      swap2\n      swap1\n      tag_299\n      jump\t// in\n    tag_298:\n      0x20\n      mload(0x40)\n      dup1\n      dup4\n      sub\n      dup2\n      0x00\n      dup8\n      gas\n      call\n      iszero\n      dup1\n      iszero\n      tag_301\n      jumpi\n      returndatasize\n      0x00\n      dup1\n      returndatacopy\n      revert(0x00, returndatasize)\n    tag_301:\n      pop\n      pop\n      pop\n      pop\n      mload(0x40)\n      returndatasize\n      not(0x1f)\n      0x1f\n      dup3\n      add\n      and\n      dup3\n      add\n      dup1\n      0x40\n      mstore\n      pop\n      dup2\n      add\n      swap1\n      tag_302\n      swap2\n      swap1\n      tag_303\n      jump\t// in\n    tag_302:\n        /* \"DripWarrior/poolContract.sol\":5291:5363  bool success = usdcToken.transferFrom(msg.sender,address(this),_amount ) */\n      swap1\n      pop\n        /* \"DripWarrior/poolContract.sol\":5377:5384  success */\n      dup1\n        /* \"DripWarrior/poolContract.sol\":5373:5440  if(!success){... */\n      tag_304\n      jumpi\n        /* \"DripWarrior/poolContract.sol\":5421:5428  success */\n      dup1\n        /* \"DripWarrior/poolContract.sol\":5406:5429  transferFailed(success) */\n      mload(0x40)\n      0xd85d3cef00000000000000000000000000000000000000000000000000000000\n      dup2\n      mstore\n      0x04\n      add\n      tag_305\n      swap2\n      swap1\n      tag_83\n      jump\t// in\n    tag_305:\n      mload(0x40)\n      dup1\n      swap2\n      sub\n      swap1\n      revert\n        /* \"DripWarrior/poolContract.sol\":5373:5440  if(!success){... */\n    tag_304:\n        /* \"DripWarrior/poolContract.sol\":5455:5487  AddTreasuery(treasuryPoolAmount) */\n      0xa9f166643ec132a11638e74e3c3a78d4ae278fcbf92998240e0e97676f54e404\n        /* \"DripWarrior/poolContract.sol\":5468:5486  treasuryPoolAmount */\n      sload(0x01)\n        /* \"DripWarrior/poolContract.sol\":5455:5487  AddTreasuery(treasuryPoolAmount) */\n      mload(0x40)\n      tag_306\n      swap2\n      swap1\n      tag_59\n      jump\t// in\n    tag_306:\n      mload(0x40)\n      dup1\n      swap2\n      sub\n      swap1\n      log1\n        /* \"DripWarrior/poolContract.sol\":5153:5494  {... */\n      pop\n        /* \"DripWarrior/poolContract.sol\":5094:5494  function addTreasuery(uint256 _amount) external onlyOwner(){... */\n      pop\n      jump\t// out\n        /* \"@openzeppelin/contracts-upgradeable/proxy/utils/UUPSUpgradeable.sol\":3705:3839  function proxiableUUID() external view virtual notDelegated returns (bytes32) {... */\n    tag_119:\n        /* \"@openzeppelin/contracts-upgradeable/proxy/utils/UUPSUpgradeable.sol\":3774:3781  bytes32 */\n      0x00\n        /* \"@openzeppelin/contracts-upgradeable/proxy/utils/UUPSUpgradeable.sol\":2924:2944  _checkNotDelegated() */\n      tag_308\n        /* \"@openzeppelin/contracts-upgradeable/proxy/utils/UUPSUpgradeable.sol\":2924:2942  _checkNotDelegated */\n      tag_309\n        /* \"@openzeppelin/contracts-upgradeable/proxy/utils/UUPSUpgradeable.sol\":2924:2944  _checkNotDelegated() */\n      jump\t// in\n    tag_308:\n        /* \"@openzeppelin/contracts/proxy/ERC1967/ERC1967Utils.sol\":1327:1393  0x360894a13ba1a3210667c828492db98dca3e2076cc3735a920a3ca505d382bbc */\n      0x360894a13ba1a3210667c828492db98dca3e2076cc3735a920a3ca505d382bbc\n        /* \"@openzeppelin/contracts-upgradeable/proxy/utils/UUPSUpgradeable.sol\":3800:3832  ERC1967Utils.IMPLEMENTATION_SLOT */\n      0x00\n      shl\n        /* \"@openzeppelin/contracts-upgradeable/proxy/utils/UUPSUpgradeable.sol\":3793:3832  return ERC1967Utils.IMPLEMENTATION_SLOT */\n      swap1\n      pop\n        /* \"@openzeppelin/contracts-upgradeable/proxy/utils/UUPSUpgradeable.sol\":3705:3839  function proxiableUUID() external view virtual notDelegated returns (bytes32) {... */\n      swap1\n      jump\t// out\n        /* \"DripWarrior/poolContract.sol\":1373:1403  address public multisigAddress */\n    tag_124:\n      0x09\n      0x00\n      swap1\n      sload\n      swap1\n      0x0100\n      exp\n      swap1\n      div\n      0xffffffffffffffffffffffffffffffffffffffff\n      and\n      dup2\n      jump\t// out\n        /* \"DripWarrior/poolContract.sol\":1122:1154  uint256 public totalStakedAmount */\n    tag_128:\n      sload(0x03)\n      dup2\n      jump\t// out\n        /* \"DripWarrior/poolContract.sol\":11542:12029  function setInterval (uint256 _startingTime, uint256 updateInterval) external  onlyOwner{... */\n    tag_134:\n        /* \"@openzeppelin/contracts-upgradeable/access/OwnableUpgradeable.sol\":2334:2347  _checkOwner() */\n      tag_312\n        /* \"@openzeppelin/contracts-upgradeable/access/OwnableUpgradeable.sol\":2334:2345  _checkOwner */\n      tag_257\n        /* \"@openzeppelin/contracts-upgradeable/access/OwnableUpgradeable.sol\":2334:2347  _checkOwner() */\n      jump\t// in\n    tag_312:\n        /* \"DripWarrior/poolContract.sol\":11671:11672  0 */\n      0x00\n        /* \"DripWarrior/poolContract.sol\":11653:11667  updateInterval */\n      dup2\n        /* \"DripWarrior/poolContract.sol\":11653:11672  updateInterval <= 0 */\n      gt\n        /* \"DripWarrior/poolContract.sol\":11650:11734  if(updateInterval <= 0){... */\n      tag_314\n      jumpi\n        /* \"DripWarrior/poolContract.sol\":11708:11722  updateInterval */\n      dup1\n        /* \"DripWarrior/poolContract.sol\":11694:11723  wrongInterval(updateInterval) */\n      mload(0x40)\n      0x7154000700000000000000000000000000000000000000000000000000000000\n      dup2\n      mstore\n      0x04\n      add\n      tag_315\n      swap2\n      swap1\n      tag_59\n      jump\t// in\n    tag_315:\n      mload(0x40)\n      dup1\n      swap2\n      sub\n      swap1\n      revert\n        /* \"DripWarrior/poolContract.sol\":11650:11734  if(updateInterval <= 0){... */\n    tag_314:\n        /* \"DripWarrior/poolContract.sol\":11771:11786  block.timestamp */\n      timestamp\n        /* \"DripWarrior/poolContract.sol\":11755:11768  _startingTime */\n      dup3\n        /* \"DripWarrior/poolContract.sol\":11755:11786  _startingTime < block.timestamp */\n      lt\n        /* \"DripWarrior/poolContract.sol\":11752:11843  if(_startingTime < block.timestamp){... */\n      iszero\n      tag_316\n      jumpi\n        /* \"DripWarrior/poolContract.sol\":11818:11831  _startingTime */\n      dup2\n        /* \"DripWarrior/poolContract.sol\":11808:11832  wrongTime(_startingTime) */\n      mload(0x40)\n      0x54593e7500000000000000000000000000000000000000000000000000000000\n      dup2\n      mstore\n      0x04\n      add\n      tag_317\n      swap2\n      swap1\n      tag_59\n      jump\t// in\n    tag_317:\n      mload(0x40)\n      dup1\n      swap2\n      sub\n      swap1\n      revert\n        /* \"DripWarrior/poolContract.sol\":11752:11843  if(_startingTime < block.timestamp){... */\n    tag_316:\n        /* \"DripWarrior/poolContract.sol\":11864:11878  updateInterval */\n      dup1\n        /* \"DripWarrior/poolContract.sol\":11853:11861  interval */\n      0x0a\n        /* \"DripWarrior/poolContract.sol\":11853:11878  interval = updateInterval */\n      dup2\n      swap1\n      sstore\n      pop\n        /* \"DripWarrior/poolContract.sol\":11903:11916  _startingTime */\n      dup2\n        /* \"DripWarrior/poolContract.sol\":11888:11900  startingTime */\n      0x0b\n        /* \"DripWarrior/poolContract.sol\":11888:11916  startingTime = _startingTime */\n      dup2\n      swap1\n      sstore\n      pop\n        /* \"DripWarrior/poolContract.sol\":11942:11957  block.timestamp */\n      timestamp\n        /* \"DripWarrior/poolContract.sol\":11926:11939  lastTimeStamp */\n      0x0c\n        /* \"DripWarrior/poolContract.sol\":11926:11957  lastTimeStamp = block.timestamp */\n      dup2\n      swap1\n      sstore\n      pop\n        /* \"DripWarrior/poolContract.sol\":11973:12021  SetInterval(msg.sender, interval, lastTimeStamp) */\n      0x2b5090e035d3026f5448298c9adc68db8bbc1b26a8af5c81b2b2a9fc07ca4a00\n        /* \"DripWarrior/poolContract.sol\":11985:11995  msg.sender */\n      caller\n        /* \"DripWarrior/poolContract.sol\":11997:12005  interval */\n      sload(0x0a)\n        /* \"DripWarrior/poolContract.sol\":12007:12020  lastTimeStamp */\n      sload(0x0c)\n        /* \"DripWarrior/poolContract.sol\":11973:12021  SetInterval(msg.sender, interval, lastTimeStamp) */\n      mload(0x40)\n      tag_318\n      swap4\n      swap3\n      swap2\n      swap1\n      tag_319\n      jump\t// in\n    tag_318:\n      mload(0x40)\n      dup1\n      swap2\n      sub\n      swap1\n      log1\n        /* \"DripWarrior/poolContract.sol\":11542:12029  function setInterval (uint256 _startingTime, uint256 updateInterval) external  onlyOwner{... */\n      pop\n      pop\n      jump\t// out\n        /* \"DripWarrior/poolContract.sol\":12035:12183  function off () external  onlyOwner{... */\n    tag_137:\n        /* \"@openzeppelin/contracts-upgradeable/access/OwnableUpgradeable.sol\":2334:2347  _checkOwner() */\n      tag_321\n        /* \"@openzeppelin/contracts-upgradeable/access/OwnableUpgradeable.sol\":2334:2345  _checkOwner */\n      tag_257\n        /* \"@openzeppelin/contracts-upgradeable/access/OwnableUpgradeable.sol\":2334:2347  _checkOwner() */\n      jump\t// in\n    tag_321:\n        /* \"DripWarrior/poolContract.sol\":12099:12100  0 */\n      0x00\n        /* \"DripWarrior/poolContract.sol\":12088:12096  interval */\n      0x0a\n        /* \"DripWarrior/poolContract.sol\":12088:12100  interval = 0 */\n      dup2\n      swap1\n      sstore\n      pop\n        /* \"DripWarrior/poolContract.sol\":12122:12127  false */\n      0x00\n        /* \"DripWarrior/poolContract.sol\":12110:12119  checkOnce */\n      0x09\n      0x14\n        /* \"DripWarrior/poolContract.sol\":12110:12127  checkOnce = false */\n      0x0100\n      exp\n      dup2\n      sload\n      dup2\n      0xff\n      mul\n      not\n      and\n      swap1\n      dup4\n      iszero\n      iszero\n      mul\n      or\n      swap1\n      sstore\n      pop\n        /* \"DripWarrior/poolContract.sol\":12143:12176  offInterval(msg.sender, interval) */\n      0x3b68dc4e210c46d3622293f2b941cdfde795bb6e17286bb289ba05a6a3b5541f\n        /* \"DripWarrior/poolContract.sol\":12155:12165  msg.sender */\n      caller\n        /* \"DripWarrior/poolContract.sol\":12167:12175  interval */\n      sload(0x0a)\n        /* \"DripWarrior/poolContract.sol\":12143:12176  offInterval(msg.sender, interval) */\n      mload(0x40)\n      tag_323\n      swap3\n      swap2\n      swap1\n      tag_324\n      jump\t// in\n    tag_323:\n      mload(0x40)\n      dup1\n      swap2\n      sub\n      swap1\n      log1\n        /* \"DripWarrior/poolContract.sol\":12035:12183  function off () external  onlyOwner{... */\n      jump\t// out\n        /* \"DripWarrior/poolContract.sol\":12926:13503  function userWithdrawAmoount(uint256 _amount) external nonReentrant {... */\n    tag_141:\n        /* \"DripWarrior/poolContract.sol\":15974:15980  locked */\n      0x09\n      0x15\n      swap1\n      sload\n      swap1\n      0x0100\n      exp\n      swap1\n      div\n      0xff\n      and\n        /* \"DripWarrior/poolContract.sol\":15973:15980  !locked */\n      iszero\n        /* \"DripWarrior/poolContract.sol\":15965:16016  require(!locked, \"ReentrancyGuard: reentrant call\") */\n      tag_326\n      jumpi\n      mload(0x40)\n      0x08c379a000000000000000000000000000000000000000000000000000000000\n      dup2\n      mstore\n      0x04\n      add\n      tag_327\n      swap1\n      tag_328\n      jump\t// in\n    tag_327:\n      mload(0x40)\n      dup1\n      swap2\n      sub\n      swap1\n      revert\n    tag_326:\n        /* \"DripWarrior/poolContract.sol\":16035:16039  true */\n      0x01\n        /* \"DripWarrior/poolContract.sol\":16026:16032  locked */\n      0x09\n      0x15\n        /* \"DripWarrior/poolContract.sol\":16026:16039  locked = true */\n      0x0100\n      exp\n      dup2\n      sload\n      dup2\n      0xff\n      mul\n      not\n      and\n      swap1\n      dup4\n      iszero\n      iszero\n      mul\n      or\n      swap1\n      sstore\n      pop\n        /* \"DripWarrior/poolContract.sol\":13027:13028  0 */\n      0x00\n        /* \"DripWarrior/poolContract.sol\":13016:13023  _amount */\n      dup2\n        /* \"DripWarrior/poolContract.sol\":13016:13028  _amount <= 0 */\n      gt\n        /* \"DripWarrior/poolContract.sol\":13013:13081  if(_amount <= 0){... */\n      tag_330\n      jumpi\n        /* \"DripWarrior/poolContract.sol\":13062:13069  _amount */\n      dup1\n        /* \"DripWarrior/poolContract.sol\":13050:13070  wrongAmount(_amount) */\n      mload(0x40)\n      0x2ff4783000000000000000000000000000000000000000000000000000000000\n      dup2\n      mstore\n      0x04\n      add\n      tag_331\n      swap2\n      swap1\n      tag_59\n      jump\t// in\n    tag_331:\n      mload(0x40)\n      dup1\n      swap2\n      sub\n      swap1\n      revert\n        /* \"DripWarrior/poolContract.sol\":13013:13081  if(_amount <= 0){... */\n    tag_330:\n        /* \"DripWarrior/poolContract.sol\":13109:13123  userRegistered */\n      0x12\n        /* \"DripWarrior/poolContract.sol\":13109:13135  userRegistered[msg.sender] */\n      0x00\n        /* \"DripWarrior/poolContract.sol\":13124:13134  msg.sender */\n      caller\n        /* \"DripWarrior/poolContract.sol\":13109:13135  userRegistered[msg.sender] */\n      0xffffffffffffffffffffffffffffffffffffffff\n      and\n      0xffffffffffffffffffffffffffffffffffffffff\n      and\n      dup2\n      mstore\n      0x20\n      add\n      swap1\n      dup2\n      mstore\n      0x20\n      add\n      0x00\n      keccak256\n        /* \"DripWarrior/poolContract.sol\":13109:13150  userRegistered[msg.sender].receivedAmount */\n      0x01\n      add\n      sload\n        /* \"DripWarrior/poolContract.sol\":13098:13105  _amount */\n      dup2\n        /* \"DripWarrior/poolContract.sol\":13098:13150  _amount <= userRegistered[msg.sender].receivedAmount */\n      gt\n      iszero\n        /* \"DripWarrior/poolContract.sol\":13090:13171  require(_amount <= userRegistered[msg.sender].receivedAmount, \"invalid _amount!\") */\n      tag_332\n      jumpi\n      mload(0x40)\n      0x08c379a000000000000000000000000000000000000000000000000000000000\n      dup2\n      mstore\n      0x04\n      add\n      tag_333\n      swap1\n      tag_334\n      jump\t// in\n    tag_333:\n      mload(0x40)\n      dup1\n      swap2\n      sub\n      swap1\n      revert\n    tag_332:\n        /* \"DripWarrior/poolContract.sol\":13227:13234  _amount */\n      dup1\n        /* \"DripWarrior/poolContract.sol\":13182:13196  userRegistered */\n      0x12\n        /* \"DripWarrior/poolContract.sol\":13182:13208  userRegistered[msg.sender] */\n      0x00\n        /* \"DripWarrior/poolContract.sol\":13197:13207  msg.sender */\n      caller\n        /* \"DripWarrior/poolContract.sol\":13182:13208  userRegistered[msg.sender] */\n      0xffffffffffffffffffffffffffffffffffffffff\n      and\n      0xffffffffffffffffffffffffffffffffffffffff\n      and\n      dup2\n      mstore\n      0x20\n      add\n      swap1\n      dup2\n      mstore\n      0x20\n      add\n      0x00\n      keccak256\n        /* \"DripWarrior/poolContract.sol\":13182:13223  userRegistered[msg.sender].receivedAmount */\n      0x01\n      add\n      0x00\n        /* \"DripWarrior/poolContract.sol\":13182:13234  userRegistered[msg.sender].receivedAmount -= _amount */\n      dup3\n      dup3\n      sload\n      tag_335\n      swap2\n      swap1\n      tag_266\n      jump\t// in\n    tag_335:\n      swap3\n      pop\n      pop\n      dup2\n      swap1\n      sstore\n      pop\n        /* \"DripWarrior/poolContract.sol\":13289:13296  _amount */\n      dup1\n        /* \"DripWarrior/poolContract.sol\":13244:13258  userRegistered */\n      0x12\n        /* \"DripWarrior/poolContract.sol\":13244:13270  userRegistered[msg.sender] */\n      0x00\n        /* \"DripWarrior/poolContract.sol\":13259:13269  msg.sender */\n      caller\n        /* \"DripWarrior/poolContract.sol\":13244:13270  userRegistered[msg.sender] */\n      0xffffffffffffffffffffffffffffffffffffffff\n      and\n      0xffffffffffffffffffffffffffffffffffffffff\n      and\n      dup2\n      mstore\n      0x20\n      add\n      swap1\n      dup2\n      mstore\n      0x20\n      add\n      0x00\n      keccak256\n        /* \"DripWarrior/poolContract.sol\":13244:13285  userRegistered[msg.sender].withdrawAmount */\n      0x02\n      add\n      0x00\n        /* \"DripWarrior/poolContract.sol\":13244:13296  userRegistered[msg.sender].withdrawAmount += _amount */\n      dup3\n      dup3\n      sload\n      tag_336\n      swap2\n      swap1\n      tag_297\n      jump\t// in\n    tag_336:\n      swap3\n      pop\n      pop\n      dup2\n      swap1\n      sstore\n      pop\n        /* \"DripWarrior/poolContract.sol\":13314:13326  bool success */\n      0x00\n        /* \"DripWarrior/poolContract.sol\":13329:13338  usdcToken */\n      dup1\n      0x00\n      swap1\n      sload\n      swap1\n      0x0100\n      exp\n      swap1\n      div\n      0xffffffffffffffffffffffffffffffffffffffff\n      and\n        /* \"DripWarrior/poolContract.sol\":13329:13347  usdcToken.transfer */\n      0xffffffffffffffffffffffffffffffffffffffff\n      and\n      0xa9059cbb\n        /* \"DripWarrior/poolContract.sol\":13348:13358  msg.sender */\n      caller\n        /* \"DripWarrior/poolContract.sol\":13359:13366  _amount */\n      dup5\n        /* \"DripWarrior/poolContract.sol\":13329:13367  usdcToken.transfer(msg.sender,_amount) */\n      mload(0x40)\n      dup4\n      0xffffffff\n      and\n      0xe0\n      shl\n      dup2\n      mstore\n      0x04\n      add\n      tag_337\n      swap3\n      swap2\n      swap1\n      tag_324\n      jump\t// in\n    tag_337:\n      0x20\n      mload(0x40)\n      dup1\n      dup4\n      sub\n      dup2\n      0x00\n      dup8\n      gas\n      call\n      iszero\n      dup1\n      iszero\n      tag_339\n      jumpi\n      returndatasize\n      0x00\n      dup1\n      returndatacopy\n      revert(0x00, returndatasize)\n    tag_339:\n      pop\n      pop\n      pop\n      pop\n      mload(0x40)\n      returndatasize\n      not(0x1f)\n      0x1f\n      dup3\n      add\n      and\n      dup3\n      add\n      dup1\n      0x40\n      mstore\n      pop\n      dup2\n      add\n      swap1\n      tag_340\n      swap2\n      swap1\n      tag_303\n      jump\t// in\n    tag_340:\n        /* \"DripWarrior/poolContract.sol\":13314:13367  bool success = usdcToken.transfer(msg.sender,_amount) */\n      swap1\n      pop\n        /* \"DripWarrior/poolContract.sol\":13389:13396  success */\n      dup1\n        /* \"DripWarrior/poolContract.sol\":13385:13452  if(!success){... */\n      tag_341\n      jumpi\n        /* \"DripWarrior/poolContract.sol\":13433:13440  success */\n      dup1\n        /* \"DripWarrior/poolContract.sol\":13418:13441  transferFailed(success) */\n      mload(0x40)\n      0xd85d3cef00000000000000000000000000000000000000000000000000000000\n      dup2\n      mstore\n      0x04\n      add\n      tag_342\n      swap2\n      swap1\n      tag_83\n      jump\t// in\n    tag_342:\n      mload(0x40)\n      dup1\n      swap2\n      sub\n      swap1\n      revert\n        /* \"DripWarrior/poolContract.sol\":13385:13452  if(!success){... */\n    tag_341:\n        /* \"DripWarrior/poolContract.sol\":13467:13496  Withdraw(msg.sender, _amount) */\n      0x884edad9ce6fa2440d8a54cc123490eb96d2768479d49ff9c7366125a9424364\n        /* \"DripWarrior/poolContract.sol\":13476:13486  msg.sender */\n      caller\n        /* \"DripWarrior/poolContract.sol\":13488:13495  _amount */\n      dup4\n        /* \"DripWarrior/poolContract.sol\":13467:13496  Withdraw(msg.sender, _amount) */\n      mload(0x40)\n      tag_343\n      swap3\n      swap2\n      swap1\n      tag_324\n      jump\t// in\n    tag_343:\n      mload(0x40)\n      dup1\n      swap2\n      sub\n      swap1\n      log1\n        /* \"DripWarrior/poolContract.sol\":12994:13503  {... */\n      pop\n        /* \"DripWarrior/poolContract.sol\":16069:16074  false */\n      0x00\n        /* \"DripWarrior/poolContract.sol\":16060:16066  locked */\n      0x09\n      0x15\n        /* \"DripWarrior/poolContract.sol\":16060:16074  locked = false */\n      0x0100\n      exp\n      dup2\n      sload\n      dup2\n      0xff\n      mul\n      not\n      and\n      swap1\n      dup4\n      iszero\n      iszero\n      mul\n      or\n      swap1\n      sstore\n      pop\n        /* \"DripWarrior/poolContract.sol\":12926:13503  function userWithdrawAmoount(uint256 _amount) external nonReentrant {... */\n      pop\n      jump\t// out\n        /* \"DripWarrior/poolContract.sol\":10511:10743  function checkUpkeep(bytes calldata /*checkData*/) external override view  returns (bool, bytes memory) {... */\n    tag_145:\n        /* \"DripWarrior/poolContract.sol\":10595:10599  bool */\n      0x00\n        /* \"DripWarrior/poolContract.sol\":10601:10613  bytes memory */\n      0x60\n        /* \"DripWarrior/poolContract.sol\":10632:10648  bool needsUpkeep */\n      0x00\n        /* \"DripWarrior/poolContract.sol\":10687:10695  interval */\n      sload(0x0a)\n        /* \"DripWarrior/poolContract.sol\":10670:10683  lastTimeStamp */\n      sload(0x0c)\n        /* \"DripWarrior/poolContract.sol\":10652:10667  block.timestamp */\n      timestamp\n        /* \"DripWarrior/poolContract.sol\":10652:10683  block.timestamp - lastTimeStamp */\n      tag_345\n      swap2\n      swap1\n      tag_266\n      jump\t// in\n    tag_345:\n        /* \"DripWarrior/poolContract.sol\":10651:10695  (block.timestamp - lastTimeStamp) > interval */\n      gt\n        /* \"DripWarrior/poolContract.sol\":10632:10695  bool needsUpkeep = (block.timestamp - lastTimeStamp) > interval */\n      swap1\n      pop\n        /* \"DripWarrior/poolContract.sol\":10713:10724  needsUpkeep */\n      dup1\n        /* \"DripWarrior/poolContract.sol\":10726:10735  bytes(\"\") */\n      mload(0x40)\n      dup1\n      0x20\n      add\n      0x40\n      mstore\n      dup1\n      0x00\n      dup2\n      mstore\n      pop\n        /* \"DripWarrior/poolContract.sol\":10705:10736  return (needsUpkeep, bytes(\"\")) */\n      swap3\n      pop\n      swap3\n      pop\n      pop\n        /* \"DripWarrior/poolContract.sol\":10511:10743  function checkUpkeep(bytes calldata /*checkData*/) external override view  returns (bool, bytes memory) {... */\n      swap3\n      pop\n      swap3\n      swap1\n      pop\n      jump\t// out\n        /* \"@openzeppelin/contracts-upgradeable/access/OwnableUpgradeable.sol\":3155:3256  function renounceOwnership() public virtual onlyOwner {... */\n    tag_150:\n        /* \"@openzeppelin/contracts-upgradeable/access/OwnableUpgradeable.sol\":2334:2347  _checkOwner() */\n      tag_347\n        /* \"@openzeppelin/contracts-upgradeable/access/OwnableUpgradeable.sol\":2334:2345  _checkOwner */\n      tag_257\n        /* \"@openzeppelin/contracts-upgradeable/access/OwnableUpgradeable.sol\":2334:2347  _checkOwner() */\n      jump\t// in\n    tag_347:\n        /* \"@openzeppelin/contracts-upgradeable/access/OwnableUpgradeable.sol\":3219:3249  _transferOwnership(address(0)) */\n      tag_349\n        /* \"@openzeppelin/contracts-upgradeable/access/OwnableUpgradeable.sol\":3246:3247  0 */\n      0x00\n        /* \"@openzeppelin/contracts-upgradeable/access/OwnableUpgradeable.sol\":3219:3237  _transferOwnership */\n      tag_350\n        /* \"@openzeppelin/contracts-upgradeable/access/OwnableUpgradeable.sol\":3219:3249  _transferOwnership(address(0)) */\n      jump\t// in\n    tag_349:\n        /* \"@openzeppelin/contracts-upgradeable/access/OwnableUpgradeable.sol\":3155:3256  function renounceOwnership() public virtual onlyOwner {... */\n      jump\t// out\n        /* \"DripWarrior/poolContract.sol\":5500:6302  function stakeTokens(uint256 _amount) external  {... */\n    tag_154:\n        /* \"DripWarrior/poolContract.sol\":5581:5582  0 */\n      0x00\n        /* \"DripWarrior/poolContract.sol\":5570:5577  _amount */\n      dup2\n        /* \"DripWarrior/poolContract.sol\":5570:5582  _amount <= 0 */\n      gt\n        /* \"DripWarrior/poolContract.sol\":5567:5635  if(_amount <= 0){... */\n      tag_352\n      jumpi\n        /* \"DripWarrior/poolContract.sol\":5616:5623  _amount */\n      dup1\n        /* \"DripWarrior/poolContract.sol\":5604:5624  wrongAmount(_amount) */\n      mload(0x40)\n      0x2ff4783000000000000000000000000000000000000000000000000000000000\n      dup2\n      mstore\n      0x04\n      add\n      tag_353\n      swap2\n      swap1\n      tag_59\n      jump\t// in\n    tag_353:\n      mload(0x40)\n      dup1\n      swap2\n      sub\n      swap1\n      revert\n        /* \"DripWarrior/poolContract.sol\":5567:5635  if(_amount <= 0){... */\n    tag_352:\n        /* \"DripWarrior/poolContract.sol\":5656:5670  userRegistered */\n      0x12\n        /* \"DripWarrior/poolContract.sol\":5656:5682  userRegistered[msg.sender] */\n      0x00\n        /* \"DripWarrior/poolContract.sol\":5671:5681  msg.sender */\n      caller\n        /* \"DripWarrior/poolContract.sol\":5656:5682  userRegistered[msg.sender] */\n      0xffffffffffffffffffffffffffffffffffffffff\n      and\n      0xffffffffffffffffffffffffffffffffffffffff\n      and\n      dup2\n      mstore\n      0x20\n      add\n      swap1\n      dup2\n      mstore\n      0x20\n      add\n      0x00\n      keccak256\n        /* \"DripWarrior/poolContract.sol\":5656:5690  userRegistered[msg.sender].blocked */\n      0x00\n      add\n      0x00\n      swap1\n      sload\n      swap1\n      0x0100\n      exp\n      swap1\n      div\n      0xff\n      and\n        /* \"DripWarrior/poolContract.sol\":5653:5770  if(userRegistered[msg.sender].blocked){... */\n      iszero\n      tag_354\n      jumpi\n        /* \"DripWarrior/poolContract.sol\":5724:5738  userRegistered */\n      0x12\n        /* \"DripWarrior/poolContract.sol\":5724:5750  userRegistered[msg.sender] */\n      0x00\n        /* \"DripWarrior/poolContract.sol\":5739:5749  msg.sender */\n      caller\n        /* \"DripWarrior/poolContract.sol\":5724:5750  userRegistered[msg.sender] */\n      0xffffffffffffffffffffffffffffffffffffffff\n      and\n      0xffffffffffffffffffffffffffffffffffffffff\n      and\n      dup2\n      mstore\n      0x20\n      add\n      swap1\n      dup2\n      mstore\n      0x20\n      add\n      0x00\n      keccak256\n        /* \"DripWarrior/poolContract.sol\":5724:5758  userRegistered[msg.sender].blocked */\n      0x00\n      add\n      0x00\n      swap1\n      sload\n      swap1\n      0x0100\n      exp\n      swap1\n      div\n      0xff\n      and\n        /* \"DripWarrior/poolContract.sol\":5712:5759  userBlocked(userRegistered[msg.sender].blocked) */\n      mload(0x40)\n      0x6fa5c3c000000000000000000000000000000000000000000000000000000000\n      dup2\n      mstore\n      0x04\n      add\n      tag_355\n      swap2\n      swap1\n      tag_83\n      jump\t// in\n    tag_355:\n      mload(0x40)\n      dup1\n      swap2\n      sub\n      swap1\n      revert\n        /* \"DripWarrior/poolContract.sol\":5653:5770  if(userRegistered[msg.sender].blocked){... */\n    tag_354:\n        /* \"DripWarrior/poolContract.sol\":5828:5835  _amount */\n      dup1\n        /* \"DripWarrior/poolContract.sol\":5780:5794  userRegistered */\n      0x12\n        /* \"DripWarrior/poolContract.sol\":5780:5806  userRegistered[msg.sender] */\n      0x00\n        /* \"DripWarrior/poolContract.sol\":5795:5805  msg.sender */\n      caller\n        /* \"DripWarrior/poolContract.sol\":5780:5806  userRegistered[msg.sender] */\n      0xffffffffffffffffffffffffffffffffffffffff\n      and\n      0xffffffffffffffffffffffffffffffffffffffff\n      and\n      dup2\n      mstore\n      0x20\n      add\n      swap1\n      dup2\n      mstore\n      0x20\n      add\n      0x00\n      keccak256\n        /* \"DripWarrior/poolContract.sol\":5780:5824  userRegistered[msg.sender].totalStakedAmount */\n      0x05\n      add\n      0x00\n        /* \"DripWarrior/poolContract.sol\":5780:5835  userRegistered[msg.sender].totalStakedAmount += _amount */\n      dup3\n      dup3\n      sload\n      tag_356\n      swap2\n      swap1\n      tag_297\n      jump\t// in\n    tag_356:\n      swap3\n      pop\n      pop\n      dup2\n      swap1\n      sstore\n      pop\n        /* \"DripWarrior/poolContract.sol\":5857:5869  alreadyAdded */\n      0x0f\n        /* \"DripWarrior/poolContract.sol\":5857:5881  alreadyAdded[msg.sender] */\n      0x00\n        /* \"DripWarrior/poolContract.sol\":5870:5880  msg.sender */\n      caller\n        /* \"DripWarrior/poolContract.sol\":5857:5881  alreadyAdded[msg.sender] */\n      0xffffffffffffffffffffffffffffffffffffffff\n      and\n      0xffffffffffffffffffffffffffffffffffffffff\n      and\n      dup2\n      mstore\n      0x20\n      add\n      swap1\n      dup2\n      mstore\n      0x20\n      add\n      0x00\n      keccak256\n      0x00\n      swap1\n      sload\n      swap1\n      0x0100\n      exp\n      swap1\n      div\n      0xff\n      and\n        /* \"DripWarrior/poolContract.sol\":5853:6024  if(!alreadyAdded[msg.sender]){... */\n      tag_357\n      jumpi\n        /* \"DripWarrior/poolContract.sol\":5933:5943  msg.sender */\n      caller\n        /* \"DripWarrior/poolContract.sol\":5909:5919  totalUsers */\n      0x10\n        /* \"DripWarrior/poolContract.sol\":5909:5930  totalUsers[noOfUsers] */\n      0x00\n        /* \"DripWarrior/poolContract.sol\":5920:5929  noOfUsers */\n      sload(0x08)\n        /* \"DripWarrior/poolContract.sol\":5909:5930  totalUsers[noOfUsers] */\n      dup2\n      mstore\n      0x20\n      add\n      swap1\n      dup2\n      mstore\n      0x20\n      add\n      0x00\n      keccak256\n      0x00\n        /* \"DripWarrior/poolContract.sol\":5909:5943  totalUsers[noOfUsers] = msg.sender */\n      0x0100\n      exp\n      dup2\n      sload\n      dup2\n      0xffffffffffffffffffffffffffffffffffffffff\n      mul\n      not\n      and\n      swap1\n      dup4\n      0xffffffffffffffffffffffffffffffffffffffff\n      and\n      mul\n      or\n      swap1\n      sstore\n      pop\n        /* \"DripWarrior/poolContract.sol\":5984:5988  true */\n      0x01\n        /* \"DripWarrior/poolContract.sol\":5957:5969  alreadyAdded */\n      0x0f\n        /* \"DripWarrior/poolContract.sol\":5957:5981  alreadyAdded[msg.sender] */\n      0x00\n        /* \"DripWarrior/poolContract.sol\":5970:5980  msg.sender */\n      caller\n        /* \"DripWarrior/poolContract.sol\":5957:5981  alreadyAdded[msg.sender] */\n      0xffffffffffffffffffffffffffffffffffffffff\n      and\n      0xffffffffffffffffffffffffffffffffffffffff\n      and\n      dup2\n      mstore\n      0x20\n      add\n      swap1\n      dup2\n      mstore\n      0x20\n      add\n      0x00\n      keccak256\n      0x00\n        /* \"DripWarrior/poolContract.sol\":5957:5988  alreadyAdded[msg.sender] = true */\n      0x0100\n      exp\n      dup2\n      sload\n      dup2\n      0xff\n      mul\n      not\n      and\n      swap1\n      dup4\n      iszero\n      iszero\n      mul\n      or\n      swap1\n      sstore\n      pop\n        /* \"DripWarrior/poolContract.sol\":6002:6011  noOfUsers */\n      0x08\n      0x00\n        /* \"DripWarrior/poolContract.sol\":6002:6013  noOfUsers++ */\n      dup2\n      sload\n      dup1\n      swap3\n      swap2\n      swap1\n      tag_358\n      swap1\n      tag_262\n      jump\t// in\n    tag_358:\n      swap2\n      swap1\n      pop\n      sstore\n      pop\n        /* \"DripWarrior/poolContract.sol\":5853:6024  if(!alreadyAdded[msg.sender]){... */\n    tag_357:\n        /* \"DripWarrior/poolContract.sol\":6055:6062  _amount */\n      dup1\n        /* \"DripWarrior/poolContract.sol\":6034:6051  totalStakedAmount */\n      0x03\n      0x00\n        /* \"DripWarrior/poolContract.sol\":6034:6062  totalStakedAmount += _amount */\n      dup3\n      dup3\n      sload\n      tag_359\n      swap2\n      swap1\n      tag_297\n      jump\t// in\n    tag_359:\n      swap3\n      pop\n      pop\n      dup2\n      swap1\n      sstore\n      pop\n        /* \"DripWarrior/poolContract.sol\":6073:6085  bool success */\n      0x00\n        /* \"DripWarrior/poolContract.sol\":6087:6096  usdcToken */\n      dup1\n      0x00\n      swap1\n      sload\n      swap1\n      0x0100\n      exp\n      swap1\n      div\n      0xffffffffffffffffffffffffffffffffffffffff\n      and\n        /* \"DripWarrior/poolContract.sol\":6087:6109  usdcToken.transferFrom */\n      0xffffffffffffffffffffffffffffffffffffffff\n      and\n      0x23b872dd\n        /* \"DripWarrior/poolContract.sol\":6110:6120  msg.sender */\n      caller\n        /* \"DripWarrior/poolContract.sol\":6121:6136  multisigAddress */\n      0x09\n      0x00\n      swap1\n      sload\n      swap1\n      0x0100\n      exp\n      swap1\n      div\n      0xffffffffffffffffffffffffffffffffffffffff\n      and\n        /* \"DripWarrior/poolContract.sol\":6137:6144  _amount */\n      dup6\n        /* \"DripWarrior/poolContract.sol\":6087:6145  usdcToken.transferFrom(msg.sender,multisigAddress,_amount) */\n      mload(0x40)\n      dup5\n      0xffffffff\n      and\n      0xe0\n      shl\n      dup2\n      mstore\n      0x04\n      add\n      tag_360\n      swap4\n      swap3\n      swap2\n      swap1\n      tag_299\n      jump\t// in\n    tag_360:\n      0x20\n      mload(0x40)\n      dup1\n      dup4\n      sub\n      dup2\n      0x00\n      dup8\n      gas\n      call\n      iszero\n      dup1\n      iszero\n      tag_362\n      jumpi\n      returndatasize\n      0x00\n      dup1\n      returndatacopy\n      revert(0x00, returndatasize)\n    tag_362:\n      pop\n      pop\n      pop\n      pop\n      mload(0x40)\n      returndatasize\n      not(0x1f)\n      0x1f\n      dup3\n      add\n      and\n      dup3\n      add\n      dup1\n      0x40\n      mstore\n      pop\n      dup2\n      add\n      swap1\n      tag_363\n      swap2\n      swap1\n      tag_303\n      jump\t// in\n    tag_363:\n        /* \"DripWarrior/poolContract.sol\":6073:6145  bool success =usdcToken.transferFrom(msg.sender,multisigAddress,_amount) */\n      swap1\n      pop\n        /* \"DripWarrior/poolContract.sol\":6168:6175  success */\n      dup1\n        /* \"DripWarrior/poolContract.sol\":6164:6231  if(!success){... */\n      tag_364\n      jumpi\n        /* \"DripWarrior/poolContract.sol\":6212:6219  success */\n      dup1\n        /* \"DripWarrior/poolContract.sol\":6197:6220  transferFailed(success) */\n      mload(0x40)\n      0xd85d3cef00000000000000000000000000000000000000000000000000000000\n      dup2\n      mstore\n      0x04\n      add\n      tag_365\n      swap2\n      swap1\n      tag_83\n      jump\t// in\n    tag_365:\n      mload(0x40)\n      dup1\n      swap2\n      sub\n      swap1\n      revert\n        /* \"DripWarrior/poolContract.sol\":6164:6231  if(!success){... */\n    tag_364:\n        /* \"DripWarrior/poolContract.sol\":6246:6294  StakeTokens(msg.sender,multisigAddress, _amount) */\n      0x14ee34c24635186d212f515353dadae9c226529edef2d1fcf5504cb33b5c25ab\n        /* \"DripWarrior/poolContract.sol\":6258:6268  msg.sender */\n      caller\n        /* \"DripWarrior/poolContract.sol\":6269:6284  multisigAddress */\n      0x09\n      0x00\n      swap1\n      sload\n      swap1\n      0x0100\n      exp\n      swap1\n      div\n      0xffffffffffffffffffffffffffffffffffffffff\n      and\n        /* \"DripWarrior/poolContract.sol\":6286:6293  _amount */\n      dup5\n        /* \"DripWarrior/poolContract.sol\":6246:6294  StakeTokens(msg.sender,multisigAddress, _amount) */\n      mload(0x40)\n      tag_366\n      swap4\n      swap3\n      swap2\n      swap1\n      tag_299\n      jump\t// in\n    tag_366:\n      mload(0x40)\n      dup1\n      swap2\n      sub\n      swap1\n      log1\n        /* \"DripWarrior/poolContract.sol\":5548:6302  {... */\n      pop\n        /* \"DripWarrior/poolContract.sol\":5500:6302  function stakeTokens(uint256 _amount) external  {... */\n      pop\n      jump\t// out\n        /* \"DripWarrior/poolContract.sol\":4683:5084  function addOwnership(uint256 _amount) external onlyOwner(){... */\n    tag_158:\n        /* \"@openzeppelin/contracts-upgradeable/access/OwnableUpgradeable.sol\":2334:2347  _checkOwner() */\n      tag_368\n        /* \"@openzeppelin/contracts-upgradeable/access/OwnableUpgradeable.sol\":2334:2345  _checkOwner */\n      tag_257\n        /* \"@openzeppelin/contracts-upgradeable/access/OwnableUpgradeable.sol\":2334:2347  _checkOwner() */\n      jump\t// in\n    tag_368:\n        /* \"DripWarrior/poolContract.sol\":4775:4776  0 */\n      0x00\n        /* \"DripWarrior/poolContract.sol\":4764:4771  _amount */\n      dup2\n        /* \"DripWarrior/poolContract.sol\":4764:4776  _amount <= 0 */\n      gt\n        /* \"DripWarrior/poolContract.sol\":4761:4829  if(_amount <= 0){... */\n      tag_370\n      jumpi\n        /* \"DripWarrior/poolContract.sol\":4810:4817  _amount */\n      dup1\n        /* \"DripWarrior/poolContract.sol\":4798:4818  wrongAmount(_amount) */\n      mload(0x40)\n      0x2ff4783000000000000000000000000000000000000000000000000000000000\n      dup2\n      mstore\n      0x04\n      add\n      tag_371\n      swap2\n      swap1\n      tag_59\n      jump\t// in\n    tag_371:\n      mload(0x40)\n      dup1\n      swap2\n      sub\n      swap1\n      revert\n        /* \"DripWarrior/poolContract.sol\":4761:4829  if(_amount <= 0){... */\n    tag_370:\n        /* \"DripWarrior/poolContract.sol\":4862:4869  _amount */\n      dup1\n        /* \"DripWarrior/poolContract.sol\":4839:4858  ownerShipPoolAmount */\n      0x02\n      0x00\n        /* \"DripWarrior/poolContract.sol\":4839:4869  ownerShipPoolAmount += _amount */\n      dup3\n      dup3\n      sload\n      tag_372\n      swap2\n      swap1\n      tag_297\n      jump\t// in\n    tag_372:\n      swap3\n      pop\n      pop\n      dup2\n      swap1\n      sstore\n      pop\n        /* \"DripWarrior/poolContract.sol\":4880:4892  bool success */\n      0x00\n        /* \"DripWarrior/poolContract.sol\":4895:4904  usdcToken */\n      dup1\n      0x00\n      swap1\n      sload\n      swap1\n      0x0100\n      exp\n      swap1\n      div\n      0xffffffffffffffffffffffffffffffffffffffff\n      and\n        /* \"DripWarrior/poolContract.sol\":4895:4917  usdcToken.transferFrom */\n      0xffffffffffffffffffffffffffffffffffffffff\n      and\n      0x23b872dd\n        /* \"DripWarrior/poolContract.sol\":4918:4928  msg.sender */\n      caller\n        /* \"DripWarrior/poolContract.sol\":4937:4941  this */\n      address\n        /* \"DripWarrior/poolContract.sol\":4943:4950  _amount */\n      dup6\n        /* \"DripWarrior/poolContract.sol\":4895:4952  usdcToken.transferFrom(msg.sender,address(this),_amount ) */\n      mload(0x40)\n      dup5\n      0xffffffff\n      and\n      0xe0\n      shl\n      dup2\n      mstore\n      0x04\n      add\n      tag_373\n      swap4\n      swap3\n      swap2\n      swap1\n      tag_299\n      jump\t// in\n    tag_373:\n      0x20\n      mload(0x40)\n      dup1\n      dup4\n      sub\n      dup2\n      0x00\n      dup8\n      gas\n      call\n      iszero\n      dup1\n      iszero\n      tag_375\n      jumpi\n      returndatasize\n      0x00\n      dup1\n      returndatacopy\n      revert(0x00, returndatasize)\n    tag_375:\n      pop\n      pop\n      pop\n      pop\n      mload(0x40)\n      returndatasize\n      not(0x1f)\n      0x1f\n      dup3\n      add\n      and\n      dup3\n      add\n      dup1\n      0x40\n      mstore\n      pop\n      dup2\n      add\n      swap1\n      tag_376\n      swap2\n      swap1\n      tag_303\n      jump\t// in\n    tag_376:\n        /* \"DripWarrior/poolContract.sol\":4880:4952  bool success = usdcToken.transferFrom(msg.sender,address(this),_amount ) */\n      swap1\n      pop\n        /* \"DripWarrior/poolContract.sol\":4966:4973  success */\n      dup1\n        /* \"DripWarrior/poolContract.sol\":4962:5029  if(!success){... */\n      tag_377\n      jumpi\n        /* \"DripWarrior/poolContract.sol\":5010:5017  success */\n      dup1\n        /* \"DripWarrior/poolContract.sol\":4995:5018  transferFailed(success) */\n      mload(0x40)\n      0xd85d3cef00000000000000000000000000000000000000000000000000000000\n      dup2\n      mstore\n      0x04\n      add\n      tag_378\n      swap2\n      swap1\n      tag_83\n      jump\t// in\n    tag_378:\n      mload(0x40)\n      dup1\n      swap2\n      sub\n      swap1\n      revert\n        /* \"DripWarrior/poolContract.sol\":4962:5029  if(!success){... */\n    tag_377:\n        /* \"DripWarrior/poolContract.sol\":5044:5077  AddOwnership(ownerShipPoolAmount) */\n      0x73834e1d1ee73ba659470a3603b888903853d3a3c9fda34e71c093a0e35cab94\n        /* \"DripWarrior/poolContract.sol\":5057:5076  ownerShipPoolAmount */\n      sload(0x02)\n        /* \"DripWarrior/poolContract.sol\":5044:5077  AddOwnership(ownerShipPoolAmount) */\n      mload(0x40)\n      tag_379\n      swap2\n      swap1\n      tag_59\n      jump\t// in\n    tag_379:\n      mload(0x40)\n      dup1\n      swap2\n      sub\n      swap1\n      log1\n        /* \"DripWarrior/poolContract.sol\":4742:5084  {... */\n      pop\n        /* \"DripWarrior/poolContract.sol\":4683:5084  function addOwnership(uint256 _amount) external onlyOwner(){... */\n      pop\n      jump\t// out\n        /* \"DripWarrior/poolContract.sol\":15434:15757  function setmaintainceFeePercentage(uint256 _newPerccentage) external onlyOwner {... */\n    tag_162:\n        /* \"@openzeppelin/contracts-upgradeable/access/OwnableUpgradeable.sol\":2334:2347  _checkOwner() */\n      tag_381\n        /* \"@openzeppelin/contracts-upgradeable/access/OwnableUpgradeable.sol\":2334:2345  _checkOwner */\n      tag_257\n        /* \"@openzeppelin/contracts-upgradeable/access/OwnableUpgradeable.sol\":2334:2347  _checkOwner() */\n      jump\t// in\n    tag_381:\n        /* \"DripWarrior/poolContract.sol\":15555:15556  0 */\n      0x00\n        /* \"DripWarrior/poolContract.sol\":15536:15551  _newPerccentage */\n      dup2\n        /* \"DripWarrior/poolContract.sol\":15536:15556  _newPerccentage <= 0 */\n      gt\n        /* \"DripWarrior/poolContract.sol\":15533:15621  if(_newPerccentage <= 0){... */\n      tag_383\n      jumpi\n        /* \"DripWarrior/poolContract.sol\":15594:15609  _newPerccentage */\n      dup1\n        /* \"DripWarrior/poolContract.sol\":15578:15610  wrongPercentage(_newPerccentage) */\n      mload(0x40)\n      0xcdbc633500000000000000000000000000000000000000000000000000000000\n      dup2\n      mstore\n      0x04\n      add\n      tag_384\n      swap2\n      swap1\n      tag_59\n      jump\t// in\n    tag_384:\n      mload(0x40)\n      dup1\n      swap2\n      sub\n      swap1\n      revert\n        /* \"DripWarrior/poolContract.sol\":15533:15621  if(_newPerccentage <= 0){... */\n    tag_383:\n        /* \"DripWarrior/poolContract.sol\":15665:15680  _newPerccentage */\n      dup1\n        /* \"DripWarrior/poolContract.sol\":15639:15662  maintainceFeePercentage */\n      0x07\n        /* \"DripWarrior/poolContract.sol\":15639:15680  maintainceFeePercentage = _newPerccentage */\n      dup2\n      swap1\n      sstore\n      pop\n        /* \"DripWarrior/poolContract.sol\":15696:15750  PercentageChanged(msg.sender, maintainceFeePercentage) */\n      0xb5671393c7c6980552e50a31e778921eb17d764c2e98fbf4d44fff524712def9\n        /* \"DripWarrior/poolContract.sol\":15714:15724  msg.sender */\n      caller\n        /* \"DripWarrior/poolContract.sol\":15726:15749  maintainceFeePercentage */\n      sload(0x07)\n        /* \"DripWarrior/poolContract.sol\":15696:15750  PercentageChanged(msg.sender, maintainceFeePercentage) */\n      mload(0x40)\n      tag_385\n      swap3\n      swap2\n      swap1\n      tag_324\n      jump\t// in\n    tag_385:\n      mload(0x40)\n      dup1\n      swap2\n      sub\n      swap1\n      log1\n        /* \"DripWarrior/poolContract.sol\":15434:15757  function setmaintainceFeePercentage(uint256 _newPerccentage) external onlyOwner {... */\n      pop\n      jump\t// out\n        /* \"DripWarrior/poolContract.sol\":14423:14753  function settdividentPayoutPercentage(uint256 _newPerccentage) external onlyOwner {... */\n    tag_166:\n        /* \"@openzeppelin/contracts-upgradeable/access/OwnableUpgradeable.sol\":2334:2347  _checkOwner() */\n      tag_387\n        /* \"@openzeppelin/contracts-upgradeable/access/OwnableUpgradeable.sol\":2334:2345  _checkOwner */\n      tag_257\n        /* \"@openzeppelin/contracts-upgradeable/access/OwnableUpgradeable.sol\":2334:2347  _checkOwner() */\n      jump\t// in\n    tag_387:\n        /* \"DripWarrior/poolContract.sol\":14546:14547  0 */\n      0x00\n        /* \"DripWarrior/poolContract.sol\":14527:14542  _newPerccentage */\n      dup2\n        /* \"DripWarrior/poolContract.sol\":14527:14547  _newPerccentage <= 0 */\n      gt\n        /* \"DripWarrior/poolContract.sol\":14524:14612  if(_newPerccentage <= 0){... */\n      tag_389\n      jumpi\n        /* \"DripWarrior/poolContract.sol\":14585:14600  _newPerccentage */\n      dup1\n        /* \"DripWarrior/poolContract.sol\":14569:14601  wrongPercentage(_newPerccentage) */\n      mload(0x40)\n      0xcdbc633500000000000000000000000000000000000000000000000000000000\n      dup2\n      mstore\n      0x04\n      add\n      tag_390\n      swap2\n      swap1\n      tag_59\n      jump\t// in\n    tag_390:\n      mload(0x40)\n      dup1\n      swap2\n      sub\n      swap1\n      revert\n        /* \"DripWarrior/poolContract.sol\":14524:14612  if(_newPerccentage <= 0){... */\n    tag_389:\n        /* \"DripWarrior/poolContract.sol\":14658:14673  _newPerccentage */\n      dup1\n        /* \"DripWarrior/poolContract.sol\":14630:14655  tdividentPayoutPercentage */\n      0x04\n        /* \"DripWarrior/poolContract.sol\":14630:14673  tdividentPayoutPercentage = _newPerccentage */\n      dup2\n      swap1\n      sstore\n      pop\n        /* \"DripWarrior/poolContract.sol\":14689:14745  PercentageChanged(msg.sender, tdividentPayoutPercentage) */\n      0xb5671393c7c6980552e50a31e778921eb17d764c2e98fbf4d44fff524712def9\n        /* \"DripWarrior/poolContract.sol\":14707:14717  msg.sender */\n      caller\n        /* \"DripWarrior/poolContract.sol\":14719:14744  tdividentPayoutPercentage */\n      sload(0x04)\n        /* \"DripWarrior/poolContract.sol\":14689:14745  PercentageChanged(msg.sender, tdividentPayoutPercentage) */\n      mload(0x40)\n      tag_391\n      swap3\n      swap2\n      swap1\n      tag_324\n      jump\t// in\n    tag_391:\n      mload(0x40)\n      dup1\n      swap2\n      sub\n      swap1\n      log1\n        /* \"DripWarrior/poolContract.sol\":14423:14753  function settdividentPayoutPercentage(uint256 _newPerccentage) external onlyOwner {... */\n      pop\n      jump\t// out\n        /* \"DripWarrior/poolContract.sol\":6308:6986  function reStakeTokens(uint256 _amount) external  {... */\n    tag_170:\n        /* \"DripWarrior/poolContract.sol\":6391:6392  0 */\n      0x00\n        /* \"DripWarrior/poolContract.sol\":6380:6387  _amount */\n      dup2\n        /* \"DripWarrior/poolContract.sol\":6380:6392  _amount <= 0 */\n      gt\n        /* \"DripWarrior/poolContract.sol\":6377:6445  if(_amount <= 0){... */\n      tag_393\n      jumpi\n        /* \"DripWarrior/poolContract.sol\":6426:6433  _amount */\n      dup1\n        /* \"DripWarrior/poolContract.sol\":6414:6434  wrongAmount(_amount) */\n      mload(0x40)\n      0x2ff4783000000000000000000000000000000000000000000000000000000000\n      dup2\n      mstore\n      0x04\n      add\n      tag_394\n      swap2\n      swap1\n      tag_59\n      jump\t// in\n    tag_394:\n      mload(0x40)\n      dup1\n      swap2\n      sub\n      swap1\n      revert\n        /* \"DripWarrior/poolContract.sol\":6377:6445  if(_amount <= 0){... */\n    tag_393:\n        /* \"DripWarrior/poolContract.sol\":6465:6479  userRegistered */\n      0x12\n        /* \"DripWarrior/poolContract.sol\":6465:6491  userRegistered[msg.sender] */\n      0x00\n        /* \"DripWarrior/poolContract.sol\":6480:6490  msg.sender */\n      caller\n        /* \"DripWarrior/poolContract.sol\":6465:6491  userRegistered[msg.sender] */\n      0xffffffffffffffffffffffffffffffffffffffff\n      and\n      0xffffffffffffffffffffffffffffffffffffffff\n      and\n      dup2\n      mstore\n      0x20\n      add\n      swap1\n      dup2\n      mstore\n      0x20\n      add\n      0x00\n      keccak256\n        /* \"DripWarrior/poolContract.sol\":6465:6499  userRegistered[msg.sender].blocked */\n      0x00\n      add\n      0x00\n      swap1\n      sload\n      swap1\n      0x0100\n      exp\n      swap1\n      div\n      0xff\n      and\n        /* \"DripWarrior/poolContract.sol\":6462:6579  if(userRegistered[msg.sender].blocked){... */\n      iszero\n      tag_395\n      jumpi\n        /* \"DripWarrior/poolContract.sol\":6533:6547  userRegistered */\n      0x12\n        /* \"DripWarrior/poolContract.sol\":6533:6559  userRegistered[msg.sender] */\n      0x00\n        /* \"DripWarrior/poolContract.sol\":6548:6558  msg.sender */\n      caller\n        /* \"DripWarrior/poolContract.sol\":6533:6559  userRegistered[msg.sender] */\n      0xffffffffffffffffffffffffffffffffffffffff\n      and\n      0xffffffffffffffffffffffffffffffffffffffff\n      and\n      dup2\n      mstore\n      0x20\n      add\n      swap1\n      dup2\n      mstore\n      0x20\n      add\n      0x00\n      keccak256\n        /* \"DripWarrior/poolContract.sol\":6533:6567  userRegistered[msg.sender].blocked */\n      0x00\n      add\n      0x00\n      swap1\n      sload\n      swap1\n      0x0100\n      exp\n      swap1\n      div\n      0xff\n      and\n        /* \"DripWarrior/poolContract.sol\":6521:6568  userBlocked(userRegistered[msg.sender].blocked) */\n      mload(0x40)\n      0x6fa5c3c000000000000000000000000000000000000000000000000000000000\n      dup2\n      mstore\n      0x04\n      add\n      tag_396\n      swap2\n      swap1\n      tag_83\n      jump\t// in\n    tag_396:\n      mload(0x40)\n      dup1\n      swap2\n      sub\n      swap1\n      revert\n        /* \"DripWarrior/poolContract.sol\":6462:6579  if(userRegistered[msg.sender].blocked){... */\n    tag_395:\n        /* \"DripWarrior/poolContract.sol\":6637:6644  _amount */\n      dup1\n        /* \"DripWarrior/poolContract.sol\":6592:6606  userRegistered */\n      0x12\n        /* \"DripWarrior/poolContract.sol\":6592:6618  userRegistered[msg.sender] */\n      0x00\n        /* \"DripWarrior/poolContract.sol\":6607:6617  msg.sender */\n      caller\n        /* \"DripWarrior/poolContract.sol\":6592:6618  userRegistered[msg.sender] */\n      0xffffffffffffffffffffffffffffffffffffffff\n      and\n      0xffffffffffffffffffffffffffffffffffffffff\n      and\n      dup2\n      mstore\n      0x20\n      add\n      swap1\n      dup2\n      mstore\n      0x20\n      add\n      0x00\n      keccak256\n        /* \"DripWarrior/poolContract.sol\":6592:6633  userRegistered[msg.sender].receivedAmount */\n      0x01\n      add\n      sload\n        /* \"DripWarrior/poolContract.sol\":6592:6644  userRegistered[msg.sender].receivedAmount <= _amount */\n      gt\n        /* \"DripWarrior/poolContract.sol\":6589:6702  if(userRegistered[msg.sender].receivedAmount <= _amount){... */\n      tag_397\n      jumpi\n        /* \"DripWarrior/poolContract.sol\":6683:6690  _amount */\n      dup1\n        /* \"DripWarrior/poolContract.sol\":6666:6691  notEnoughBalance(_amount) */\n      mload(0x40)\n      0x31b6e35800000000000000000000000000000000000000000000000000000000\n      dup2\n      mstore\n      0x04\n      add\n      tag_398\n      swap2\n      swap1\n      tag_59\n      jump\t// in\n    tag_398:\n      mload(0x40)\n      dup1\n      swap2\n      sub\n      swap1\n      revert\n        /* \"DripWarrior/poolContract.sol\":6589:6702  if(userRegistered[msg.sender].receivedAmount <= _amount){... */\n    tag_397:\n        /* \"DripWarrior/poolContract.sol\":6757:6764  _amount */\n      dup1\n        /* \"DripWarrior/poolContract.sol\":6712:6726  userRegistered */\n      0x12\n        /* \"DripWarrior/poolContract.sol\":6712:6738  userRegistered[msg.sender] */\n      0x00\n        /* \"DripWarrior/poolContract.sol\":6727:6737  msg.sender */\n      caller\n        /* \"DripWarrior/poolContract.sol\":6712:6738  userRegistered[msg.sender] */\n      0xffffffffffffffffffffffffffffffffffffffff\n      and\n      0xffffffffffffffffffffffffffffffffffffffff\n      and\n      dup2\n      mstore\n      0x20\n      add\n      swap1\n      dup2\n      mstore\n      0x20\n      add\n      0x00\n      keccak256\n        /* \"DripWarrior/poolContract.sol\":6712:6753  userRegistered[msg.sender].receivedAmount */\n      0x01\n      add\n      0x00\n        /* \"DripWarrior/poolContract.sol\":6712:6764  userRegistered[msg.sender].receivedAmount -= _amount */\n      dup3\n      dup3\n      sload\n      tag_399\n      swap2\n      swap1\n      tag_266\n      jump\t// in\n    tag_399:\n      swap3\n      pop\n      pop\n      dup2\n      swap1\n      sstore\n      pop\n        /* \"DripWarrior/poolContract.sol\":6822:6829  _amount */\n      dup1\n        /* \"DripWarrior/poolContract.sol\":6774:6788  userRegistered */\n      0x12\n        /* \"DripWarrior/poolContract.sol\":6774:6800  userRegistered[msg.sender] */\n      0x00\n        /* \"DripWarrior/poolContract.sol\":6789:6799  msg.sender */\n      caller\n        /* \"DripWarrior/poolContract.sol\":6774:6800  userRegistered[msg.sender] */\n      0xffffffffffffffffffffffffffffffffffffffff\n      and\n      0xffffffffffffffffffffffffffffffffffffffff\n      and\n      dup2\n      mstore\n      0x20\n      add\n      swap1\n      dup2\n      mstore\n      0x20\n      add\n      0x00\n      keccak256\n        /* \"DripWarrior/poolContract.sol\":6774:6818  userRegistered[msg.sender].totalStakedAmount */\n      0x05\n      add\n      0x00\n        /* \"DripWarrior/poolContract.sol\":6774:6829  userRegistered[msg.sender].totalStakedAmount += _amount */\n      dup3\n      dup3\n      sload\n      tag_400\n      swap2\n      swap1\n      tag_297\n      jump\t// in\n    tag_400:\n      swap3\n      pop\n      pop\n      dup2\n      swap1\n      sstore\n      pop\n        /* \"DripWarrior/poolContract.sol\":6871:6878  _amount */\n      dup1\n        /* \"DripWarrior/poolContract.sol\":6848:6867  ownerShipPoolAmount */\n      0x02\n      0x00\n        /* \"DripWarrior/poolContract.sol\":6848:6878  ownerShipPoolAmount += _amount */\n      dup3\n      dup3\n      sload\n      tag_401\n      swap2\n      swap1\n      tag_297\n      jump\t// in\n    tag_401:\n      swap3\n      pop\n      pop\n      dup2\n      swap1\n      sstore\n      pop\n        /* \"DripWarrior/poolContract.sol\":6909:6916  _amount */\n      dup1\n        /* \"DripWarrior/poolContract.sol\":6888:6905  totalStakedAmount */\n      0x03\n      0x00\n        /* \"DripWarrior/poolContract.sol\":6888:6916  totalStakedAmount += _amount */\n      dup3\n      dup3\n      sload\n      tag_402\n      swap2\n      swap1\n      tag_297\n      jump\t// in\n    tag_402:\n      swap3\n      pop\n      pop\n      dup2\n      swap1\n      sstore\n      pop\n        /* \"DripWarrior/poolContract.sol\":6932:6978  StakeTokens(msg.sender,address(this), _amount) */\n      0x14ee34c24635186d212f515353dadae9c226529edef2d1fcf5504cb33b5c25ab\n        /* \"DripWarrior/poolContract.sol\":6944:6954  msg.sender */\n      caller\n        /* \"DripWarrior/poolContract.sol\":6963:6967  this */\n      address\n        /* \"DripWarrior/poolContract.sol\":6970:6977  _amount */\n      dup4\n        /* \"DripWarrior/poolContract.sol\":6932:6978  StakeTokens(msg.sender,address(this), _amount) */\n      mload(0x40)\n      tag_403\n      swap4\n      swap3\n      swap2\n      swap1\n      tag_299\n      jump\t// in\n    tag_403:\n      mload(0x40)\n      dup1\n      swap2\n      sub\n      swap1\n      log1\n        /* \"DripWarrior/poolContract.sol\":6308:6986  function reStakeTokens(uint256 _amount) external  {... */\n      pop\n      jump\t// out\n        /* \"DripWarrior/poolContract.sol\":6996:7537  function addFunds(uint256 _amount, uint256 _projectNo)   external {... */\n    tag_174:\n        /* \"DripWarrior/poolContract.sol\":7087:7088  0 */\n      0x00\n        /* \"DripWarrior/poolContract.sol\":7076:7083  _amount */\n      dup3\n        /* \"DripWarrior/poolContract.sol\":7076:7088  _amount <= 0 */\n      gt\n        /* \"DripWarrior/poolContract.sol\":7073:7141  if(_amount <= 0){... */\n      tag_405\n      jumpi\n        /* \"DripWarrior/poolContract.sol\":7122:7129  _amount */\n      dup2\n        /* \"DripWarrior/poolContract.sol\":7110:7130  wrongAmount(_amount) */\n      mload(0x40)\n      0x2ff4783000000000000000000000000000000000000000000000000000000000\n      dup2\n      mstore\n      0x04\n      add\n      tag_406\n      swap2\n      swap1\n      tag_59\n      jump\t// in\n    tag_406:\n      mload(0x40)\n      dup1\n      swap2\n      sub\n      swap1\n      revert\n        /* \"DripWarrior/poolContract.sol\":7073:7141  if(_amount <= 0){... */\n    tag_405:\n        /* \"DripWarrior/poolContract.sol\":7167:7180  totalProjects */\n      sload(0x0e)\n        /* \"DripWarrior/poolContract.sol\":7154:7164  _projectNo */\n      dup2\n        /* \"DripWarrior/poolContract.sol\":7154:7180  _projectNo > totalProjects */\n      gt\n        /* \"DripWarrior/poolContract.sol\":7151:7239  if(_projectNo > totalProjects){... */\n      iszero\n      tag_407\n      jumpi\n        /* \"DripWarrior/poolContract.sol\":7217:7227  _projectNo */\n      dup1\n        /* \"DripWarrior/poolContract.sol\":7202:7228  wrongProjectNo(_projectNo) */\n      mload(0x40)\n      0x222a50f300000000000000000000000000000000000000000000000000000000\n      dup2\n      mstore\n      0x04\n      add\n      tag_408\n      swap2\n      swap1\n      tag_59\n      jump\t// in\n    tag_408:\n      mload(0x40)\n      dup1\n      swap2\n      sub\n      swap1\n      revert\n        /* \"DripWarrior/poolContract.sol\":7151:7239  if(_projectNo > totalProjects){... */\n    tag_407:\n        /* \"DripWarrior/poolContract.sol\":7261:7310  calculateFees(_amount, tPPercentages[_projectNo]) */\n      tag_409\n        /* \"DripWarrior/poolContract.sol\":7275:7282  _amount */\n      dup3\n        /* \"DripWarrior/poolContract.sol\":7284:7297  tPPercentages */\n      0x11\n        /* \"DripWarrior/poolContract.sol\":7284:7309  tPPercentages[_projectNo] */\n      0x00\n        /* \"DripWarrior/poolContract.sol\":7298:7308  _projectNo */\n      dup5\n        /* \"DripWarrior/poolContract.sol\":7284:7309  tPPercentages[_projectNo] */\n      dup2\n      mstore\n      0x20\n      add\n      swap1\n      dup2\n      mstore\n      0x20\n      add\n      0x00\n      keccak256\n      sload\n        /* \"DripWarrior/poolContract.sol\":7261:7274  calculateFees */\n      tag_410\n        /* \"DripWarrior/poolContract.sol\":7261:7310  calculateFees(_amount, tPPercentages[_projectNo]) */\n      jump\t// in\n    tag_409:\n        /* \"DripWarrior/poolContract.sol\":7329:7341  bool success */\n      0x00\n        /* \"DripWarrior/poolContract.sol\":7344:7353  usdcToken */\n      dup1\n      0x00\n      swap1\n      sload\n      swap1\n      0x0100\n      exp\n      swap1\n      div\n      0xffffffffffffffffffffffffffffffffffffffff\n      and\n        /* \"DripWarrior/poolContract.sol\":7344:7366  usdcToken.transferFrom */\n      0xffffffffffffffffffffffffffffffffffffffff\n      and\n      0x23b872dd\n        /* \"DripWarrior/poolContract.sol\":7367:7377  msg.sender */\n      caller\n        /* \"DripWarrior/poolContract.sol\":7386:7390  this */\n      address\n        /* \"DripWarrior/poolContract.sol\":7392:7399  _amount */\n      dup7\n        /* \"DripWarrior/poolContract.sol\":7344:7401  usdcToken.transferFrom(msg.sender,address(this),_amount ) */\n      mload(0x40)\n      dup5\n      0xffffffff\n      and\n      0xe0\n      shl\n      dup2\n      mstore\n      0x04\n      add\n      tag_411\n      swap4\n      swap3\n      swap2\n      swap1\n      tag_299\n      jump\t// in\n    tag_411:\n      0x20\n      mload(0x40)\n      dup1\n      dup4\n      sub\n      dup2\n      0x00\n      dup8\n      gas\n      call\n      iszero\n      dup1\n      iszero\n      tag_413\n      jumpi\n      returndatasize\n      0x00\n      dup1\n      returndatacopy\n      revert(0x00, returndatasize)\n    tag_413:\n      pop\n      pop\n      pop\n      pop\n      mload(0x40)\n      returndatasize\n      not(0x1f)\n      0x1f\n      dup3\n      add\n      and\n      dup3\n      add\n      dup1\n      0x40\n      mstore\n      pop\n      dup2\n      add\n      swap1\n      tag_414\n      swap2\n      swap1\n      tag_303\n      jump\t// in\n    tag_414:\n        /* \"DripWarrior/poolContract.sol\":7329:7401  bool success = usdcToken.transferFrom(msg.sender,address(this),_amount ) */\n      swap1\n      pop\n        /* \"DripWarrior/poolContract.sol\":7415:7422  success */\n      dup1\n        /* \"DripWarrior/poolContract.sol\":7411:7478  if(!success){... */\n      tag_415\n      jumpi\n        /* \"DripWarrior/poolContract.sol\":7459:7466  success */\n      dup1\n        /* \"DripWarrior/poolContract.sol\":7444:7467  transferFailed(success) */\n      mload(0x40)\n      0xd85d3cef00000000000000000000000000000000000000000000000000000000\n      dup2\n      mstore\n      0x04\n      add\n      tag_416\n      swap2\n      swap1\n      tag_83\n      jump\t// in\n    tag_416:\n      mload(0x40)\n      dup1\n      swap2\n      sub\n      swap1\n      revert\n        /* \"DripWarrior/poolContract.sol\":7411:7478  if(!success){... */\n    tag_415:\n        /* \"DripWarrior/poolContract.sol\":7493:7521  AddFunds(_amount,_projectNo) */\n      0xa89b69c5958ec1ccf0df0de746a8708f5b6a6b429430129f16f46f44b319c900\n        /* \"DripWarrior/poolContract.sol\":7502:7509  _amount */\n      dup4\n        /* \"DripWarrior/poolContract.sol\":7510:7520  _projectNo */\n      dup4\n        /* \"DripWarrior/poolContract.sol\":7493:7521  AddFunds(_amount,_projectNo) */\n      mload(0x40)\n      tag_417\n      swap3\n      swap2\n      swap1\n      tag_418\n      jump\t// in\n    tag_417:\n      mload(0x40)\n      dup1\n      swap2\n      sub\n      swap1\n      log1\n        /* \"DripWarrior/poolContract.sol\":7062:7537  {... */\n      pop\n        /* \"DripWarrior/poolContract.sol\":6996:7537  function addFunds(uint256 _amount, uint256 _projectNo)   external {... */\n      pop\n      pop\n      jump\t// out\n        /* \"@openzeppelin/contracts-upgradeable/access/OwnableUpgradeable.sol\":2441:2585  function owner() public view virtual returns (address) {... */\n    tag_177:\n        /* \"@openzeppelin/contracts-upgradeable/access/OwnableUpgradeable.sol\":2487:2494  address */\n      0x00\n        /* \"@openzeppelin/contracts-upgradeable/access/OwnableUpgradeable.sol\":2506:2530  OwnableStorage storage $ */\n      dup1\n        /* \"@openzeppelin/contracts-upgradeable/access/OwnableUpgradeable.sol\":2533:2553  _getOwnableStorage() */\n      tag_420\n        /* \"@openzeppelin/contracts-upgradeable/access/OwnableUpgradeable.sol\":2533:2551  _getOwnableStorage */\n      tag_421\n        /* \"@openzeppelin/contracts-upgradeable/access/OwnableUpgradeable.sol\":2533:2553  _getOwnableStorage() */\n      jump\t// in\n    tag_420:\n        /* \"@openzeppelin/contracts-upgradeable/access/OwnableUpgradeable.sol\":2506:2553  OwnableStorage storage $ = _getOwnableStorage() */\n      swap1\n      pop\n        /* \"@openzeppelin/contracts-upgradeable/access/OwnableUpgradeable.sol\":2570:2571  $ */\n      dup1\n        /* \"@openzeppelin/contracts-upgradeable/access/OwnableUpgradeable.sol\":2570:2578  $._owner */\n      0x00\n      add\n      0x00\n      swap1\n      sload\n      swap1\n      0x0100\n      exp\n      swap1\n      div\n      0xffffffffffffffffffffffffffffffffffffffff\n      and\n        /* \"@openzeppelin/contracts-upgradeable/access/OwnableUpgradeable.sol\":2563:2578  return $._owner */\n      swap2\n      pop\n      pop\n        /* \"@openzeppelin/contracts-upgradeable/access/OwnableUpgradeable.sol\":2441:2585  function owner() public view virtual returns (address) {... */\n      swap1\n      jump\t// out\n        /* \"DripWarrior/poolContract.sol\":1462:1485  uint256 public interval */\n    tag_181:\n      sload(0x0a)\n      dup2\n      jump\t// out\n        /* \"DripWarrior/poolContract.sol\":1928:1956  uint256 public totalProjects */\n    tag_185:\n      sload(0x0e)\n      dup2\n      jump\t// out\n        /* \"DripWarrior/poolContract.sol\":2012:2057  mapping(uint256 => address) public totalUsers */\n    tag_190:\n      mstore(0x20, 0x10)\n      dup1\n      0x00\n      mstore\n      keccak256(0x00, 0x40)\n      0x00\n      swap2\n      pop\n      sload\n      swap1\n      0x0100\n      exp\n      swap1\n      div\n      0xffffffffffffffffffffffffffffffffffffffff\n      and\n      dup2\n      jump\t// out\n        /* \"@openzeppelin/contracts-upgradeable/proxy/utils/UUPSUpgradeable.sol\":1819:1877  string public constant UPGRADE_INTERFACE_VERSION = \"5.0.0\" */\n    tag_194:\n      mload(0x40)\n      dup1\n      0x40\n      add\n      0x40\n      mstore\n      dup1\n      0x05\n      dup2\n      mstore\n      0x20\n      add\n      0x352e302e30000000000000000000000000000000000000000000000000000000\n      dup2\n      mstore\n      pop\n      dup2\n      jump\t// out\n        /* \"DripWarrior/poolContract.sol\":15103:15428  function setflowToTreasuryPercentage(uint256 _newPerccentage) external onlyOwner {... */\n    tag_200:\n        /* \"@openzeppelin/contracts-upgradeable/access/OwnableUpgradeable.sol\":2334:2347  _checkOwner() */\n      tag_423\n        /* \"@openzeppelin/contracts-upgradeable/access/OwnableUpgradeable.sol\":2334:2345  _checkOwner */\n      tag_257\n        /* \"@openzeppelin/contracts-upgradeable/access/OwnableUpgradeable.sol\":2334:2347  _checkOwner() */\n      jump\t// in\n    tag_423:\n        /* \"DripWarrior/poolContract.sol\":15224:15225  0 */\n      0x00\n        /* \"DripWarrior/poolContract.sol\":15205:15220  _newPerccentage */\n      dup2\n        /* \"DripWarrior/poolContract.sol\":15205:15225  _newPerccentage <= 0 */\n      gt\n        /* \"DripWarrior/poolContract.sol\":15202:15290  if(_newPerccentage <= 0){... */\n      tag_425\n      jumpi\n        /* \"DripWarrior/poolContract.sol\":15263:15278  _newPerccentage */\n      dup1\n        /* \"DripWarrior/poolContract.sol\":15247:15279  wrongPercentage(_newPerccentage) */\n      mload(0x40)\n      0xcdbc633500000000000000000000000000000000000000000000000000000000\n      dup2\n      mstore\n      0x04\n      add\n      tag_426\n      swap2\n      swap1\n      tag_59\n      jump\t// in\n    tag_426:\n      mload(0x40)\n      dup1\n      swap2\n      sub\n      swap1\n      revert\n        /* \"DripWarrior/poolContract.sol\":15202:15290  if(_newPerccentage <= 0){... */\n    tag_425:\n        /* \"DripWarrior/poolContract.sol\":15335:15350  _newPerccentage */\n      dup1\n        /* \"DripWarrior/poolContract.sol\":15308:15332  flowToTreasuryPercentage */\n      0x06\n        /* \"DripWarrior/poolContract.sol\":15308:15350  flowToTreasuryPercentage = _newPerccentage */\n      dup2\n      swap1\n      sstore\n      pop\n        /* \"DripWarrior/poolContract.sol\":15366:15421  PercentageChanged(msg.sender, flowToTreasuryPercentage) */\n      0xb5671393c7c6980552e50a31e778921eb17d764c2e98fbf4d44fff524712def9\n        /* \"DripWarrior/poolContract.sol\":15384:15394  msg.sender */\n      caller\n        /* \"DripWarrior/poolContract.sol\":15396:15420  flowToTreasuryPercentage */\n      sload(0x06)\n        /* \"DripWarrior/poolContract.sol\":15366:15421  PercentageChanged(msg.sender, flowToTreasuryPercentage) */\n      mload(0x40)\n      tag_427\n      swap3\n      swap2\n      swap1\n      tag_324\n      jump\t// in\n    tag_427:\n      mload(0x40)\n      dup1\n      swap2\n      sub\n      swap1\n      log1\n        /* \"DripWarrior/poolContract.sol\":15103:15428  function setflowToTreasuryPercentage(uint256 _newPerccentage) external onlyOwner {... */\n      pop\n      jump\t// out\n        /* \"DripWarrior/poolContract.sol\":1082:1116  uint256 public ownerShipPoolAmount */\n    tag_203:\n      sload(0x02)\n      dup2\n      jump\t// out\n        /* \"DripWarrior/poolContract.sol\":14763:15092  function setodividentPayoutPercentage(uint256 _newPerccentage) external onlyOwner {... */\n    tag_208:\n        /* \"@openzeppelin/contracts-upgradeable/access/OwnableUpgradeable.sol\":2334:2347  _checkOwner() */\n      tag_429\n        /* \"@openzeppelin/contracts-upgradeable/access/OwnableUpgradeable.sol\":2334:2345  _checkOwner */\n      tag_257\n        /* \"@openzeppelin/contracts-upgradeable/access/OwnableUpgradeable.sol\":2334:2347  _checkOwner() */\n      jump\t// in\n    tag_429:\n        /* \"DripWarrior/poolContract.sol\":14886:14887  0 */\n      0x00\n        /* \"DripWarrior/poolContract.sol\":14867:14882  _newPerccentage */\n      dup2\n        /* \"DripWarrior/poolContract.sol\":14867:14887  _newPerccentage <= 0 */\n      gt\n        /* \"DripWarrior/poolContract.sol\":14864:14952  if(_newPerccentage <= 0){... */\n      tag_431\n      jumpi\n        /* \"DripWarrior/poolContract.sol\":14925:14940  _newPerccentage */\n      dup1\n        /* \"DripWarrior/poolContract.sol\":14909:14941  wrongPercentage(_newPerccentage) */\n      mload(0x40)\n      0xcdbc633500000000000000000000000000000000000000000000000000000000\n      dup2\n      mstore\n      0x04\n      add\n      tag_432\n      swap2\n      swap1\n      tag_59\n      jump\t// in\n    tag_432:\n      mload(0x40)\n      dup1\n      swap2\n      sub\n      swap1\n      revert\n        /* \"DripWarrior/poolContract.sol\":14864:14952  if(_newPerccentage <= 0){... */\n    tag_431:\n        /* \"DripWarrior/poolContract.sol\":14998:15013  _newPerccentage */\n      dup1\n        /* \"DripWarrior/poolContract.sol\":14970:14995  odividentPayoutPercentage */\n      0x05\n        /* \"DripWarrior/poolContract.sol\":14970:15013  odividentPayoutPercentage = _newPerccentage */\n      dup2\n      swap1\n      sstore\n      pop\n        /* \"DripWarrior/poolContract.sol\":15029:15085  PercentageChanged(msg.sender, odividentPayoutPercentage) */\n      0xb5671393c7c6980552e50a31e778921eb17d764c2e98fbf4d44fff524712def9\n        /* \"DripWarrior/poolContract.sol\":15047:15057  msg.sender */\n      caller\n        /* \"DripWarrior/poolContract.sol\":15059:15084  odividentPayoutPercentage */\n      sload(0x05)\n        /* \"DripWarrior/poolContract.sol\":15029:15085  PercentageChanged(msg.sender, odividentPayoutPercentage) */\n      mload(0x40)\n      tag_433\n      swap3\n      swap2\n      swap1\n      tag_324\n      jump\t// in\n    tag_433:\n      mload(0x40)\n      dup1\n      swap2\n      sub\n      swap1\n      log1\n        /* \"DripWarrior/poolContract.sol\":14763:15092  function setodividentPayoutPercentage(uint256 _newPerccentage) external onlyOwner {... */\n      pop\n      jump\t// out\n        /* \"DripWarrior/poolContract.sol\":2117:2173  mapping(address => UserRegistered) public userRegistered */\n    tag_213:\n      mstore(0x20, 0x12)\n      dup1\n      0x00\n      mstore\n      keccak256(0x00, 0x40)\n      0x00\n      swap2\n      pop\n      swap1\n      pop\n      dup1\n      0x00\n      add\n      0x00\n      swap1\n      sload\n      swap1\n      0x0100\n      exp\n      swap1\n      div\n      0xff\n      and\n      swap1\n      dup1\n      0x01\n      add\n      sload\n      swap1\n      dup1\n      0x02\n      add\n      sload\n      swap1\n      dup1\n      0x03\n      add\n      sload\n      swap1\n      dup1\n      0x04\n      add\n      sload\n      swap1\n      dup1\n      0x05\n      add\n      sload\n      swap1\n      pop\n      dup7\n      jump\t// out\n        /* \"DripWarrior/poolContract.sol\":3600:4326  function initialize(address initialOwner,address _usdcAddress,... */\n    tag_220:\n        /* \"@openzeppelin/contracts-upgradeable/proxy/utils/Initializable.sol\":4158:4188  InitializableStorage storage $ */\n      0x00\n        /* \"@openzeppelin/contracts-upgradeable/proxy/utils/Initializable.sol\":4191:4217  _getInitializableStorage() */\n      tag_435\n        /* \"@openzeppelin/contracts-upgradeable/proxy/utils/Initializable.sol\":4191:4215  _getInitializableStorage */\n      tag_436\n        /* \"@openzeppelin/contracts-upgradeable/proxy/utils/Initializable.sol\":4191:4217  _getInitializableStorage() */\n      jump\t// in\n    tag_435:\n        /* \"@openzeppelin/contracts-upgradeable/proxy/utils/Initializable.sol\":4158:4217  InitializableStorage storage $ = _getInitializableStorage() */\n      swap1\n      pop\n        /* \"@openzeppelin/contracts-upgradeable/proxy/utils/Initializable.sol\":4279:4298  bool isTopLevelCall */\n      0x00\n        /* \"@openzeppelin/contracts-upgradeable/proxy/utils/Initializable.sol\":4302:4303  $ */\n      dup2\n        /* \"@openzeppelin/contracts-upgradeable/proxy/utils/Initializable.sol\":4302:4317  $._initializing */\n      0x00\n      add\n      0x08\n      swap1\n      sload\n      swap1\n      0x0100\n      exp\n      swap1\n      div\n      0xff\n      and\n        /* \"@openzeppelin/contracts-upgradeable/proxy/utils/Initializable.sol\":4301:4317  !$._initializing */\n      iszero\n        /* \"@openzeppelin/contracts-upgradeable/proxy/utils/Initializable.sol\":4279:4317  bool isTopLevelCall = !$._initializing */\n      swap1\n      pop\n        /* \"@openzeppelin/contracts-upgradeable/proxy/utils/Initializable.sol\":4327:4345  uint64 initialized */\n      0x00\n        /* \"@openzeppelin/contracts-upgradeable/proxy/utils/Initializable.sol\":4348:4349  $ */\n      dup3\n        /* \"@openzeppelin/contracts-upgradeable/proxy/utils/Initializable.sol\":4348:4362  $._initialized */\n      0x00\n      add\n      0x00\n      swap1\n      sload\n      swap1\n      0x0100\n      exp\n      swap1\n      div\n      0xffffffffffffffff\n      and\n        /* \"@openzeppelin/contracts-upgradeable/proxy/utils/Initializable.sol\":4327:4362  uint64 initialized = $._initialized */\n      swap1\n      pop\n        /* \"@openzeppelin/contracts-upgradeable/proxy/utils/Initializable.sol\":4706:4723  bool initialSetup */\n      0x00\n        /* \"@openzeppelin/contracts-upgradeable/proxy/utils/Initializable.sol\":4741:4742  0 */\n      dup1\n        /* \"@openzeppelin/contracts-upgradeable/proxy/utils/Initializable.sol\":4726:4737  initialized */\n      dup3\n        /* \"@openzeppelin/contracts-upgradeable/proxy/utils/Initializable.sol\":4726:4742  initialized == 0 */\n      0xffffffffffffffff\n      and\n      eq\n        /* \"@openzeppelin/contracts-upgradeable/proxy/utils/Initializable.sol\":4726:4760  initialized == 0 && isTopLevelCall */\n      dup1\n      iszero\n      tag_437\n      jumpi\n      pop\n        /* \"@openzeppelin/contracts-upgradeable/proxy/utils/Initializable.sol\":4746:4760  isTopLevelCall */\n      dup3\n        /* \"@openzeppelin/contracts-upgradeable/proxy/utils/Initializable.sol\":4726:4760  initialized == 0 && isTopLevelCall */\n    tag_437:\n        /* \"@openzeppelin/contracts-upgradeable/proxy/utils/Initializable.sol\":4706:4760  bool initialSetup = initialized == 0 && isTopLevelCall */\n      swap1\n      pop\n        /* \"@openzeppelin/contracts-upgradeable/proxy/utils/Initializable.sol\":4770:4787  bool construction */\n      0x00\n        /* \"@openzeppelin/contracts-upgradeable/proxy/utils/Initializable.sol\":4805:4806  1 */\n      0x01\n        /* \"@openzeppelin/contracts-upgradeable/proxy/utils/Initializable.sol\":4790:4801  initialized */\n      dup4\n        /* \"@openzeppelin/contracts-upgradeable/proxy/utils/Initializable.sol\":4790:4806  initialized == 1 */\n      0xffffffffffffffff\n      and\n      eq\n        /* \"@openzeppelin/contracts-upgradeable/proxy/utils/Initializable.sol\":4790:4840  initialized == 1 && address(this).code.length == 0 */\n      dup1\n      iszero\n      tag_438\n      jumpi\n      pop\n        /* \"@openzeppelin/contracts-upgradeable/proxy/utils/Initializable.sol\":4839:4840  0 */\n      0x00\n        /* \"@openzeppelin/contracts-upgradeable/proxy/utils/Initializable.sol\":4818:4822  this */\n      address\n        /* \"@openzeppelin/contracts-upgradeable/proxy/utils/Initializable.sol\":4810:4835  address(this).code.length */\n      0xffffffffffffffffffffffffffffffffffffffff\n      and\n      extcodesize\n        /* \"@openzeppelin/contracts-upgradeable/proxy/utils/Initializable.sol\":4810:4840  address(this).code.length == 0 */\n      eq\n        /* \"@openzeppelin/contracts-upgradeable/proxy/utils/Initializable.sol\":4790:4840  initialized == 1 && address(this).code.length == 0 */\n    tag_438:\n        /* \"@openzeppelin/contracts-upgradeable/proxy/utils/Initializable.sol\":4770:4840  bool construction = initialized == 1 && address(this).code.length == 0 */\n      swap1\n      pop\n        /* \"@openzeppelin/contracts-upgradeable/proxy/utils/Initializable.sol\":4856:4868  initialSetup */\n      dup2\n        /* \"@openzeppelin/contracts-upgradeable/proxy/utils/Initializable.sol\":4855:4868  !initialSetup */\n      iszero\n        /* \"@openzeppelin/contracts-upgradeable/proxy/utils/Initializable.sol\":4855:4885  !initialSetup && !construction */\n      dup1\n      iszero\n      tag_439\n      jumpi\n      pop\n        /* \"@openzeppelin/contracts-upgradeable/proxy/utils/Initializable.sol\":4873:4885  construction */\n      dup1\n        /* \"@openzeppelin/contracts-upgradeable/proxy/utils/Initializable.sol\":4872:4885  !construction */\n      iszero\n        /* \"@openzeppelin/contracts-upgradeable/proxy/utils/Initializable.sol\":4855:4885  !initialSetup && !construction */\n    tag_439:\n        /* \"@openzeppelin/contracts-upgradeable/proxy/utils/Initializable.sol\":4851:4942  if (!initialSetup && !construction) {... */\n      iszero\n      tag_440\n      jumpi\n        /* \"@openzeppelin/contracts-upgradeable/proxy/utils/Initializable.sol\":4908:4931  InvalidInitialization() */\n      mload(0x40)\n      0xf92ee8a900000000000000000000000000000000000000000000000000000000\n      dup2\n      mstore\n      0x04\n      add\n      mload(0x40)\n      dup1\n      swap2\n      sub\n      swap1\n      revert\n        /* \"@openzeppelin/contracts-upgradeable/proxy/utils/Initializable.sol\":4851:4942  if (!initialSetup && !construction) {... */\n    tag_440:\n        /* \"@openzeppelin/contracts-upgradeable/proxy/utils/Initializable.sol\":4968:4969  1 */\n      0x01\n        /* \"@openzeppelin/contracts-upgradeable/proxy/utils/Initializable.sol\":4951:4952  $ */\n      dup6\n        /* \"@openzeppelin/contracts-upgradeable/proxy/utils/Initializable.sol\":4951:4965  $._initialized */\n      0x00\n      add\n      0x00\n        /* \"@openzeppelin/contracts-upgradeable/proxy/utils/Initializable.sol\":4951:4969  $._initialized = 1 */\n      0x0100\n      exp\n      dup2\n      sload\n      dup2\n      0xffffffffffffffff\n      mul\n      not\n      and\n      swap1\n      dup4\n      0xffffffffffffffff\n      and\n      mul\n      or\n      swap1\n      sstore\n      pop\n        /* \"@openzeppelin/contracts-upgradeable/proxy/utils/Initializable.sol\":4983:4997  isTopLevelCall */\n      dup4\n        /* \"@openzeppelin/contracts-upgradeable/proxy/utils/Initializable.sol\":4979:5046  if (isTopLevelCall) {... */\n      iszero\n      tag_441\n      jumpi\n        /* \"@openzeppelin/contracts-upgradeable/proxy/utils/Initializable.sol\":5031:5035  true */\n      0x01\n        /* \"@openzeppelin/contracts-upgradeable/proxy/utils/Initializable.sol\":5013:5014  $ */\n      dup6\n        /* \"@openzeppelin/contracts-upgradeable/proxy/utils/Initializable.sol\":5013:5028  $._initializing */\n      0x00\n      add\n      0x08\n        /* \"@openzeppelin/contracts-upgradeable/proxy/utils/Initializable.sol\":5013:5035  $._initializing = true */\n      0x0100\n      exp\n      dup2\n      sload\n      dup2\n      0xff\n      mul\n      not\n      and\n      swap1\n      dup4\n      iszero\n      iszero\n      mul\n      or\n      swap1\n      sstore\n      pop\n        /* \"@openzeppelin/contracts-upgradeable/proxy/utils/Initializable.sol\":4979:5046  if (isTopLevelCall) {... */\n    tag_441:\n        /* \"DripWarrior/poolContract.sol\":3726:3754  __Ownable_init(initialOwner) */\n      tag_443\n        /* \"DripWarrior/poolContract.sol\":3741:3753  initialOwner */\n      dup9\n        /* \"DripWarrior/poolContract.sol\":3726:3740  __Ownable_init */\n      tag_444\n        /* \"DripWarrior/poolContract.sol\":3726:3754  __Ownable_init(initialOwner) */\n      jump\t// in\n    tag_443:\n        /* \"DripWarrior/poolContract.sol\":3764:3788  __UUPSUpgradeable_init() */\n      tag_445\n        /* \"DripWarrior/poolContract.sol\":3764:3786  __UUPSUpgradeable_init */\n      tag_446\n        /* \"DripWarrior/poolContract.sol\":3764:3788  __UUPSUpgradeable_init() */\n      jump\t// in\n    tag_445:\n        /* \"DripWarrior/poolContract.sol\":3818:3830  _usdcAddress */\n      dup7\n        /* \"DripWarrior/poolContract.sol\":3799:3808  usdcToken */\n      0x00\n      dup1\n        /* \"DripWarrior/poolContract.sol\":3799:3831  usdcToken = IBEP20(_usdcAddress) */\n      0x0100\n      exp\n      dup2\n      sload\n      dup2\n      0xffffffffffffffffffffffffffffffffffffffff\n      mul\n      not\n      and\n      swap1\n      dup4\n      0xffffffffffffffffffffffffffffffffffffffff\n      and\n      mul\n      or\n      swap1\n      sstore\n      pop\n        /* \"DripWarrior/poolContract.sol\":3865:3869  5100 */\n      0x13ec\n        /* \"DripWarrior/poolContract.sol\":3846:3859  tPPercentages */\n      0x11\n        /* \"DripWarrior/poolContract.sol\":3846:3862  tPPercentages[0] */\n      0x00\n        /* \"DripWarrior/poolContract.sol\":3860:3861  0 */\n      dup1\n        /* \"DripWarrior/poolContract.sol\":3846:3862  tPPercentages[0] */\n      dup2\n      mstore\n      0x20\n      add\n      swap1\n      dup2\n      mstore\n      0x20\n      add\n      0x00\n      keccak256\n        /* \"DripWarrior/poolContract.sol\":3846:3869  tPPercentages[0] = 5100 */\n      dup2\n      swap1\n      sstore\n      pop\n        /* \"DripWarrior/poolContract.sol\":3910:3914  7500 */\n      0x1d4c\n        /* \"DripWarrior/poolContract.sol\":3891:3904  tPPercentages */\n      0x11\n        /* \"DripWarrior/poolContract.sol\":3891:3907  tPPercentages[1] */\n      0x00\n        /* \"DripWarrior/poolContract.sol\":3905:3906  1 */\n      0x01\n        /* \"DripWarrior/poolContract.sol\":3891:3907  tPPercentages[1] */\n      dup2\n      mstore\n      0x20\n      add\n      swap1\n      dup2\n      mstore\n      0x20\n      add\n      0x00\n      keccak256\n        /* \"DripWarrior/poolContract.sol\":3891:3914  tPPercentages[1] = 7500 */\n      dup2\n      swap1\n      sstore\n      pop\n        /* \"DripWarrior/poolContract.sol\":3956:3960  3500 */\n      0x0dac\n        /* \"DripWarrior/poolContract.sol\":3937:3950  tPPercentages */\n      0x11\n        /* \"DripWarrior/poolContract.sol\":3937:3953  tPPercentages[2] */\n      0x00\n        /* \"DripWarrior/poolContract.sol\":3951:3952  2 */\n      0x02\n        /* \"DripWarrior/poolContract.sol\":3937:3953  tPPercentages[2] */\n      dup2\n      mstore\n      0x20\n      add\n      swap1\n      dup2\n      mstore\n      0x20\n      add\n      0x00\n      keccak256\n        /* \"DripWarrior/poolContract.sol\":3937:3960  tPPercentages[2] = 3500 */\n      dup2\n      swap1\n      sstore\n      pop\n        /* \"DripWarrior/poolContract.sol\":4001:4005  7700 */\n      0x1e14\n        /* \"DripWarrior/poolContract.sol\":3982:3995  tPPercentages */\n      0x11\n        /* \"DripWarrior/poolContract.sol\":3982:3998  tPPercentages[3] */\n      0x00\n        /* \"DripWarrior/poolContract.sol\":3996:3997  3 */\n      0x03\n        /* \"DripWarrior/poolContract.sol\":3982:3998  tPPercentages[3] */\n      dup2\n      mstore\n      0x20\n      add\n      swap1\n      dup2\n      mstore\n      0x20\n      add\n      0x00\n      keccak256\n        /* \"DripWarrior/poolContract.sol\":3982:4005  tPPercentages[3] = 7700 */\n      dup2\n      swap1\n      sstore\n      pop\n        /* \"DripWarrior/poolContract.sol\":4055:4059  5000 */\n      0x1388\n        /* \"DripWarrior/poolContract.sol\":4027:4052  tdividentPayoutPercentage */\n      0x04\n        /* \"DripWarrior/poolContract.sol\":4027:4059  tdividentPayoutPercentage = 5000 */\n      dup2\n      swap1\n      sstore\n      pop\n        /* \"DripWarrior/poolContract.sol\":4109:4113  7500 */\n      0x1d4c\n        /* \"DripWarrior/poolContract.sol\":4081:4106  odividentPayoutPercentage */\n      0x05\n        /* \"DripWarrior/poolContract.sol\":4081:4113  odividentPayoutPercentage = 7500 */\n      dup2\n      swap1\n      sstore\n      pop\n        /* \"DripWarrior/poolContract.sol\":4175:4179  1500 */\n      0x05dc\n        /* \"DripWarrior/poolContract.sol\":4148:4172  flowToTreasuryPercentage */\n      0x06\n        /* \"DripWarrior/poolContract.sol\":4148:4179  flowToTreasuryPercentage = 1500 */\n      dup2\n      swap1\n      sstore\n      pop\n        /* \"DripWarrior/poolContract.sol\":4226:4230  1000 */\n      0x03e8\n        /* \"DripWarrior/poolContract.sol\":4200:4223  maintainceFeePercentage */\n      0x07\n        /* \"DripWarrior/poolContract.sol\":4200:4230  maintainceFeePercentage = 1000 */\n      dup2\n      swap1\n      sstore\n      pop\n        /* \"DripWarrior/poolContract.sol\":4270:4271  4 */\n      0x04\n        /* \"DripWarrior/poolContract.sol\":4254:4267  totalProjects */\n      0x0e\n        /* \"DripWarrior/poolContract.sol\":4254:4271  totalProjects = 4 */\n      dup2\n      swap1\n      sstore\n      pop\n        /* \"DripWarrior/poolContract.sol\":4303:4319  _multisigAddress */\n      dup6\n        /* \"DripWarrior/poolContract.sol\":4285:4300  multisigAddress */\n      0x09\n      0x00\n        /* \"DripWarrior/poolContract.sol\":4285:4319  multisigAddress = _multisigAddress */\n      0x0100\n      exp\n      dup2\n      sload\n      dup2\n      0xffffffffffffffffffffffffffffffffffffffff\n      mul\n      not\n      and\n      swap1\n      dup4\n      0xffffffffffffffffffffffffffffffffffffffff\n      and\n      mul\n      or\n      swap1\n      sstore\n      pop\n        /* \"@openzeppelin/contracts-upgradeable/proxy/utils/Initializable.sol\":5070:5084  isTopLevelCall */\n      dup4\n        /* \"@openzeppelin/contracts-upgradeable/proxy/utils/Initializable.sol\":5066:5167  if (isTopLevelCall) {... */\n      iszero\n      tag_447\n      jumpi\n        /* \"@openzeppelin/contracts-upgradeable/proxy/utils/Initializable.sol\":5118:5123  false */\n      0x00\n        /* \"@openzeppelin/contracts-upgradeable/proxy/utils/Initializable.sol\":5100:5101  $ */\n      dup6\n        /* \"@openzeppelin/contracts-upgradeable/proxy/utils/Initializable.sol\":5100:5115  $._initializing */\n      0x00\n      add\n      0x08\n        /* \"@openzeppelin/contracts-upgradeable/proxy/utils/Initializable.sol\":5100:5123  $._initializing = false */\n      0x0100\n      exp\n      dup2\n      sload\n      dup2\n      0xff\n      mul\n      not\n      and\n      swap1\n      dup4\n      iszero\n      iszero\n      mul\n      or\n      swap1\n      sstore\n      pop\n        /* \"@openzeppelin/contracts-upgradeable/proxy/utils/Initializable.sol\":5142:5156  Initialized(1) */\n      0xc7f505b2f371ae2175ee4913f4499e1f2633a7b5936321eed1cdaeb6115181d2\n        /* \"@openzeppelin/contracts-upgradeable/proxy/utils/Initializable.sol\":5154:5155  1 */\n      0x01\n        /* \"@openzeppelin/contracts-upgradeable/proxy/utils/Initializable.sol\":5142:5156  Initialized(1) */\n      mload(0x40)\n      tag_448\n      swap2\n      swap1\n      tag_449\n      jump\t// in\n    tag_448:\n      mload(0x40)\n      dup1\n      swap2\n      sub\n      swap1\n      log1\n        /* \"@openzeppelin/contracts-upgradeable/proxy/utils/Initializable.sol\":5066:5167  if (isTopLevelCall) {... */\n    tag_447:\n        /* \"@openzeppelin/contracts-upgradeable/proxy/utils/Initializable.sol\":4092:5173  {... */\n      pop\n      pop\n      pop\n      pop\n      pop\n        /* \"DripWarrior/poolContract.sol\":3600:4326  function initialize(address initialOwner,address _usdcAddress,... */\n      pop\n      pop\n      pop\n      jump\t// out\n        /* \"DripWarrior/poolContract.sol\":1962:2006  mapping(address => bool) public alreadyAdded */\n    tag_224:\n      mstore(0x20, 0x0f)\n      dup1\n      0x00\n      mstore\n      keccak256(0x00, 0x40)\n      0x00\n      swap2\n      pop\n      sload\n      swap1\n      0x0100\n      exp\n      swap1\n      div\n      0xff\n      and\n      dup2\n      jump\t// out\n        /* \"DripWarrior/poolContract.sol\":1253:1292  uint256 public flowToTreasuryPercentage */\n    tag_228:\n      sload(0x06)\n      dup2\n      jump\t// out\n        /* \"DripWarrior/poolContract.sol\":12190:12508  function setForwarderAddress(address forwarderAddress) external onlyOwner {... */\n    tag_233:\n        /* \"@openzeppelin/contracts-upgradeable/access/OwnableUpgradeable.sol\":2334:2347  _checkOwner() */\n      tag_451\n        /* \"@openzeppelin/contracts-upgradeable/access/OwnableUpgradeable.sol\":2334:2345  _checkOwner */\n      tag_257\n        /* \"@openzeppelin/contracts-upgradeable/access/OwnableUpgradeable.sol\":2334:2347  _checkOwner() */\n      jump\t// in\n    tag_451:\n        /* \"DripWarrior/poolContract.sol\":12314:12315  0 */\n      0x00\n        /* \"DripWarrior/poolContract.sol\":12286:12316  forwarderAddress == address(0) */\n      0xffffffffffffffffffffffffffffffffffffffff\n      and\n        /* \"DripWarrior/poolContract.sol\":12286:12302  forwarderAddress */\n      dup2\n        /* \"DripWarrior/poolContract.sol\":12286:12316  forwarderAddress == address(0) */\n      0xffffffffffffffffffffffffffffffffffffffff\n      and\n      sub\n        /* \"DripWarrior/poolContract.sol\":12283:12379  if(forwarderAddress == address(0)){... */\n      tag_453\n      jumpi\n        /* \"DripWarrior/poolContract.sol\":12351:12367  forwarderAddress */\n      dup1\n        /* \"DripWarrior/poolContract.sol\":12338:12368  wrongAddress(forwarderAddress) */\n      mload(0x40)\n      0xe4cfa94d00000000000000000000000000000000000000000000000000000000\n      dup2\n      mstore\n      0x04\n      add\n      tag_454\n      swap2\n      swap1\n      tag_78\n      jump\t// in\n    tag_454:\n      mload(0x40)\n      dup1\n      swap2\n      sub\n      swap1\n      revert\n        /* \"DripWarrior/poolContract.sol\":12283:12379  if(forwarderAddress == address(0)){... */\n    tag_453:\n        /* \"DripWarrior/poolContract.sol\":12418:12434  forwarderAddress */\n      dup1\n        /* \"DripWarrior/poolContract.sol\":12397:12415  s_forwarderAddress */\n      0x0d\n      0x00\n        /* \"DripWarrior/poolContract.sol\":12397:12434  s_forwarderAddress = forwarderAddress */\n      0x0100\n      exp\n      dup2\n      sload\n      dup2\n      0xffffffffffffffffffffffffffffffffffffffff\n      mul\n      not\n      and\n      swap1\n      dup4\n      0xffffffffffffffffffffffffffffffffffffffff\n      and\n      mul\n      or\n      swap1\n      sstore\n      pop\n        /* \"DripWarrior/poolContract.sol\":12450:12501  SetForwarderAddress(msg.sender, s_forwarderAddress) */\n      0x75f91f3cecb8c46f20150f60f77a6e1f0de00776627692db82ef1960af84c33a\n        /* \"DripWarrior/poolContract.sol\":12470:12480  msg.sender */\n      caller\n        /* \"DripWarrior/poolContract.sol\":12482:12500  s_forwarderAddress */\n      0x0d\n      0x00\n      swap1\n      sload\n      swap1\n      0x0100\n      exp\n      swap1\n      div\n      0xffffffffffffffffffffffffffffffffffffffff\n      and\n        /* \"DripWarrior/poolContract.sol\":12450:12501  SetForwarderAddress(msg.sender, s_forwarderAddress) */\n      mload(0x40)\n      tag_455\n      swap3\n      swap2\n      swap1\n      tag_456\n      jump\t// in\n    tag_455:\n      mload(0x40)\n      dup1\n      swap2\n      sub\n      swap1\n      log1\n        /* \"DripWarrior/poolContract.sol\":12190:12508  function setForwarderAddress(address forwarderAddress) external onlyOwner {... */\n      pop\n      jump\t// out\n        /* \"DripWarrior/poolContract.sol\":13509:14063  function blockUser(address _userAddress, bool value) external onlyOwner {... */\n    tag_238:\n        /* \"@openzeppelin/contracts-upgradeable/access/OwnableUpgradeable.sol\":2334:2347  _checkOwner() */\n      tag_458\n        /* \"@openzeppelin/contracts-upgradeable/access/OwnableUpgradeable.sol\":2334:2345  _checkOwner */\n      tag_257\n        /* \"@openzeppelin/contracts-upgradeable/access/OwnableUpgradeable.sol\":2334:2347  _checkOwner() */\n      jump\t// in\n    tag_458:\n        /* \"DripWarrior/poolContract.sol\":13627:13628  0 */\n      0x00\n        /* \"DripWarrior/poolContract.sol\":13603:13629  _userAddress == address(0) */\n      0xffffffffffffffffffffffffffffffffffffffff\n      and\n        /* \"DripWarrior/poolContract.sol\":13603:13615  _userAddress */\n      dup3\n        /* \"DripWarrior/poolContract.sol\":13603:13629  _userAddress == address(0) */\n      0xffffffffffffffffffffffffffffffffffffffff\n      and\n      sub\n        /* \"DripWarrior/poolContract.sol\":13600:13688  if(_userAddress == address(0)){... */\n      tag_460\n      jumpi\n        /* \"DripWarrior/poolContract.sol\":13664:13676  _userAddress */\n      dup2\n        /* \"DripWarrior/poolContract.sol\":13651:13677  wrongAddress(_userAddress) */\n      mload(0x40)\n      0xe4cfa94d00000000000000000000000000000000000000000000000000000000\n      dup2\n      mstore\n      0x04\n      add\n      tag_461\n      swap2\n      swap1\n      tag_78\n      jump\t// in\n    tag_461:\n      mload(0x40)\n      dup1\n      swap2\n      sub\n      swap1\n      revert\n        /* \"DripWarrior/poolContract.sol\":13600:13688  if(_userAddress == address(0)){... */\n    tag_460:\n        /* \"DripWarrior/poolContract.sol\":13710:13714  true */\n      0x01\n        /* \"DripWarrior/poolContract.sol\":13701:13714  value != true */\n      iszero\n      iszero\n        /* \"DripWarrior/poolContract.sol\":13701:13706  value */\n      dup2\n        /* \"DripWarrior/poolContract.sol\":13701:13714  value != true */\n      iszero\n      iszero\n      eq\n      iszero\n        /* \"DripWarrior/poolContract.sol\":13701:13732  value != true && value != false */\n      dup1\n      iszero\n      tag_462\n      jumpi\n      pop\n        /* \"DripWarrior/poolContract.sol\":13727:13732  false */\n      0x00\n        /* \"DripWarrior/poolContract.sol\":13718:13732  value != false */\n      iszero\n      iszero\n        /* \"DripWarrior/poolContract.sol\":13718:13723  value */\n      dup2\n        /* \"DripWarrior/poolContract.sol\":13718:13732  value != false */\n      iszero\n      iszero\n      eq\n      iszero\n        /* \"DripWarrior/poolContract.sol\":13701:13732  value != true && value != false */\n    tag_462:\n        /* \"DripWarrior/poolContract.sol\":13698:13782  if(value != true && value != false){... */\n      iszero\n      tag_463\n      jumpi\n        /* \"DripWarrior/poolContract.sol\":13765:13770  value */\n      dup1\n        /* \"DripWarrior/poolContract.sol\":13754:13771  wrongValue(value) */\n      mload(0x40)\n      0x81ed1ae300000000000000000000000000000000000000000000000000000000\n      dup2\n      mstore\n      0x04\n      add\n      tag_464\n      swap2\n      swap1\n      tag_83\n      jump\t// in\n    tag_464:\n      mload(0x40)\n      dup1\n      swap2\n      sub\n      swap1\n      revert\n        /* \"DripWarrior/poolContract.sol\":13698:13782  if(value != true && value != false){... */\n    tag_463:\n        /* \"DripWarrior/poolContract.sol\":13804:13808  true */\n      0x01\n        /* \"DripWarrior/poolContract.sol\":13795:13808  value == true */\n      iszero\n      iszero\n        /* \"DripWarrior/poolContract.sol\":13795:13800  value */\n      dup2\n        /* \"DripWarrior/poolContract.sol\":13795:13808  value == true */\n      iszero\n      iszero\n      sub\n        /* \"DripWarrior/poolContract.sol\":13792:13959  if(value == true){... */\n      tag_465\n      jumpi\n        /* \"DripWarrior/poolContract.sol\":13863:13867  true */\n      0x01\n        /* \"DripWarrior/poolContract.sol\":13824:13838  userRegistered */\n      0x12\n        /* \"DripWarrior/poolContract.sol\":13824:13852  userRegistered[_userAddress] */\n      0x00\n        /* \"DripWarrior/poolContract.sol\":13839:13851  _userAddress */\n      dup5\n        /* \"DripWarrior/poolContract.sol\":13824:13852  userRegistered[_userAddress] */\n      0xffffffffffffffffffffffffffffffffffffffff\n      and\n      0xffffffffffffffffffffffffffffffffffffffff\n      and\n      dup2\n      mstore\n      0x20\n      add\n      swap1\n      dup2\n      mstore\n      0x20\n      add\n      0x00\n      keccak256\n        /* \"DripWarrior/poolContract.sol\":13824:13860  userRegistered[_userAddress].blocked */\n      0x00\n      add\n      0x00\n        /* \"DripWarrior/poolContract.sol\":13824:13867  userRegistered[_userAddress].blocked = true */\n      0x0100\n      exp\n      dup2\n      sload\n      dup2\n      0xff\n      mul\n      not\n      and\n      swap1\n      dup4\n      iszero\n      iszero\n      mul\n      or\n      swap1\n      sstore\n      pop\n        /* \"DripWarrior/poolContract.sol\":13792:13959  if(value == true){... */\n      jump(tag_466)\n    tag_465:\n        /* \"DripWarrior/poolContract.sol\":13943:13948  false */\n      0x00\n        /* \"DripWarrior/poolContract.sol\":13904:13918  userRegistered */\n      0x12\n        /* \"DripWarrior/poolContract.sol\":13904:13932  userRegistered[_userAddress] */\n      0x00\n        /* \"DripWarrior/poolContract.sol\":13919:13931  _userAddress */\n      dup5\n        /* \"DripWarrior/poolContract.sol\":13904:13932  userRegistered[_userAddress] */\n      0xffffffffffffffffffffffffffffffffffffffff\n      and\n      0xffffffffffffffffffffffffffffffffffffffff\n      and\n      dup2\n      mstore\n      0x20\n      add\n      swap1\n      dup2\n      mstore\n      0x20\n      add\n      0x00\n      keccak256\n        /* \"DripWarrior/poolContract.sol\":13904:13940  userRegistered[_userAddress].blocked */\n      0x00\n      add\n      0x00\n        /* \"DripWarrior/poolContract.sol\":13904:13948  userRegistered[_userAddress].blocked = false */\n      0x0100\n      exp\n      dup2\n      sload\n      dup2\n      0xff\n      mul\n      not\n      and\n      swap1\n      dup4\n      iszero\n      iszero\n      mul\n      or\n      swap1\n      sstore\n      pop\n        /* \"DripWarrior/poolContract.sol\":13792:13959  if(value == true){... */\n    tag_466:\n        /* \"DripWarrior/poolContract.sol\":13982:14056  UserBlocked(msg.sender,_userAddress, userRegistered[_userAddress].blocked) */\n      0x7a1655bc3160d3413bf1d5235e55be12e01b7e8bc2436a9bff09c3b4fa2421f1\n        /* \"DripWarrior/poolContract.sol\":13994:14004  msg.sender */\n      caller\n        /* \"DripWarrior/poolContract.sol\":14005:14017  _userAddress */\n      dup4\n        /* \"DripWarrior/poolContract.sol\":14019:14033  userRegistered */\n      0x12\n        /* \"DripWarrior/poolContract.sol\":14019:14047  userRegistered[_userAddress] */\n      0x00\n        /* \"DripWarrior/poolContract.sol\":14034:14046  _userAddress */\n      dup7\n        /* \"DripWarrior/poolContract.sol\":14019:14047  userRegistered[_userAddress] */\n      0xffffffffffffffffffffffffffffffffffffffff\n      and\n      0xffffffffffffffffffffffffffffffffffffffff\n      and\n      dup2\n      mstore\n      0x20\n      add\n      swap1\n      dup2\n      mstore\n      0x20\n      add\n      0x00\n      keccak256\n        /* \"DripWarrior/poolContract.sol\":14019:14055  userRegistered[_userAddress].blocked */\n      0x00\n      add\n      0x00\n      swap1\n      sload\n      swap1\n      0x0100\n      exp\n      swap1\n      div\n      0xff\n      and\n        /* \"DripWarrior/poolContract.sol\":13982:14056  UserBlocked(msg.sender,_userAddress, userRegistered[_userAddress].blocked) */\n      mload(0x40)\n      tag_467\n      swap4\n      swap3\n      swap2\n      swap1\n      tag_468\n      jump\t// in\n    tag_467:\n      mload(0x40)\n      dup1\n      swap2\n      sub\n      swap1\n      log1\n        /* \"DripWarrior/poolContract.sol\":13509:14063  function blockUser(address _userAddress, bool value) external onlyOwner {... */\n      pop\n      pop\n      jump\t// out\n        /* \"DripWarrior/poolContract.sol\":7931:9342  function weeklyTransfer() public  {... */\n    tag_241:\n        /* \"DripWarrior/poolContract.sol\":7986:8010  uint256 remainFiftyOPool */\n      0x00\n        /* \"DripWarrior/poolContract.sol\":8011:8044  uint256 dividentPayoutOPoolAmount */\n      dup1\n        /* \"DripWarrior/poolContract.sol\":8046:8072  uint256 perPersonFromTPool */\n      0x00\n        /* \"DripWarrior/poolContract.sol\":8077:8097  perPoolCalculation() */\n      tag_470\n        /* \"DripWarrior/poolContract.sol\":8077:8095  perPoolCalculation */\n      tag_471\n        /* \"DripWarrior/poolContract.sol\":8077:8097  perPoolCalculation() */\n      jump\t// in\n    tag_470:\n        /* \"DripWarrior/poolContract.sol\":7984:8097  ( uint256 remainFiftyOPool,uint256 dividentPayoutOPoolAmount, uint256 perPersonFromTPool)  = perPoolCalculation() */\n      swap3\n      pop\n      swap3\n      pop\n      swap3\n      pop\n        /* \"DripWarrior/poolContract.sol\":8146:8147  0 */\n      0x00\n        /* \"DripWarrior/poolContract.sol\":8124:8143  ownerShipPoolAmount */\n      sload(0x02)\n        /* \"DripWarrior/poolContract.sol\":8124:8147  ownerShipPoolAmount > 0 */\n      gt\n        /* \"DripWarrior/poolContract.sol\":8124:8173  ownerShipPoolAmount > 0 && treasuryPoolAmount > 0 */\n      dup1\n      iszero\n      tag_472\n      jumpi\n      pop\n        /* \"DripWarrior/poolContract.sol\":8172:8173  0 */\n      0x00\n        /* \"DripWarrior/poolContract.sol\":8151:8169  treasuryPoolAmount */\n      sload(0x01)\n        /* \"DripWarrior/poolContract.sol\":8151:8173  treasuryPoolAmount > 0 */\n      gt\n        /* \"DripWarrior/poolContract.sol\":8124:8173  ownerShipPoolAmount > 0 && treasuryPoolAmount > 0 */\n    tag_472:\n        /* \"DripWarrior/poolContract.sol\":8116:8195  require(ownerShipPoolAmount > 0 && treasuryPoolAmount > 0, \"not enough amount\") */\n      tag_473\n      jumpi\n      mload(0x40)\n      0x08c379a000000000000000000000000000000000000000000000000000000000\n      dup2\n      mstore\n      0x04\n      add\n      tag_474\n      swap1\n      tag_475\n      jump\t// in\n    tag_474:\n      mload(0x40)\n      dup1\n      swap2\n      sub\n      swap1\n      revert\n    tag_473:\n        /* \"DripWarrior/poolContract.sol\":8213:8229  uint256 maxlimit */\n      0x00\n        /* \"DripWarrior/poolContract.sol\":8244:8253  uint256 i */\n      dup1\n        /* \"DripWarrior/poolContract.sol\":8256:8257  0 */\n      0x00\n        /* \"DripWarrior/poolContract.sol\":8244:8257  uint256 i = 0 */\n      swap1\n      pop\n        /* \"DripWarrior/poolContract.sol\":8240:9250  for(uint256 i = 0; i < noOfUsers; i++){... */\n    tag_476:\n        /* \"DripWarrior/poolContract.sol\":8263:8272  noOfUsers */\n      sload(0x08)\n        /* \"DripWarrior/poolContract.sol\":8259:8260  i */\n      dup2\n        /* \"DripWarrior/poolContract.sol\":8259:8272  i < noOfUsers */\n      lt\n        /* \"DripWarrior/poolContract.sol\":8240:9250  for(uint256 i = 0; i < noOfUsers; i++){... */\n      iszero\n      tag_477\n      jumpi\n        /* \"DripWarrior/poolContract.sol\":8297:8311  userRegistered */\n      0x12\n        /* \"DripWarrior/poolContract.sol\":8297:8326  userRegistered[totalUsers[i]] */\n      0x00\n        /* \"DripWarrior/poolContract.sol\":8312:8322  totalUsers */\n      0x10\n        /* \"DripWarrior/poolContract.sol\":8312:8325  totalUsers[i] */\n      0x00\n        /* \"DripWarrior/poolContract.sol\":8323:8324  i */\n      dup5\n        /* \"DripWarrior/poolContract.sol\":8312:8325  totalUsers[i] */\n      dup2\n      mstore\n      0x20\n      add\n      swap1\n      dup2\n      mstore\n      0x20\n      add\n      0x00\n      keccak256\n      0x00\n      swap1\n      sload\n      swap1\n      0x0100\n      exp\n      swap1\n      div\n      0xffffffffffffffffffffffffffffffffffffffff\n      and\n        /* \"DripWarrior/poolContract.sol\":8297:8326  userRegistered[totalUsers[i]] */\n      0xffffffffffffffffffffffffffffffffffffffff\n      and\n      0xffffffffffffffffffffffffffffffffffffffff\n      and\n      dup2\n      mstore\n      0x20\n      add\n      swap1\n      dup2\n      mstore\n      0x20\n      add\n      0x00\n      keccak256\n        /* \"DripWarrior/poolContract.sol\":8297:8334  userRegistered[totalUsers[i]].blocked */\n      0x00\n      add\n      0x00\n      swap1\n      sload\n      swap1\n      0x0100\n      exp\n      swap1\n      div\n      0xff\n      and\n        /* \"DripWarrior/poolContract.sol\":8293:9227  if(!userRegistered[totalUsers[i]].blocked){... */\n      tag_479\n      jumpi\n        /* \"DripWarrior/poolContract.sol\":8354:8381  uint256 eachSharePercentage */\n      0x00\n        /* \"DripWarrior/poolContract.sol\":8447:8464  totalStakedAmount */\n      sload(0x03)\n        /* \"DripWarrior/poolContract.sol\":8436:8441  10000 */\n      0x2710\n        /* \"DripWarrior/poolContract.sol\":8385:8399  userRegistered */\n      0x12\n        /* \"DripWarrior/poolContract.sol\":8385:8414  userRegistered[totalUsers[i]] */\n      0x00\n        /* \"DripWarrior/poolContract.sol\":8400:8410  totalUsers */\n      0x10\n        /* \"DripWarrior/poolContract.sol\":8400:8413  totalUsers[i] */\n      0x00\n        /* \"DripWarrior/poolContract.sol\":8411:8412  i */\n      dup8\n        /* \"DripWarrior/poolContract.sol\":8400:8413  totalUsers[i] */\n      dup2\n      mstore\n      0x20\n      add\n      swap1\n      dup2\n      mstore\n      0x20\n      add\n      0x00\n      keccak256\n      0x00\n      swap1\n      sload\n      swap1\n      0x0100\n      exp\n      swap1\n      div\n      0xffffffffffffffffffffffffffffffffffffffff\n      and\n        /* \"DripWarrior/poolContract.sol\":8385:8414  userRegistered[totalUsers[i]] */\n      0xffffffffffffffffffffffffffffffffffffffff\n      and\n      0xffffffffffffffffffffffffffffffffffffffff\n      and\n      dup2\n      mstore\n      0x20\n      add\n      swap1\n      dup2\n      mstore\n      0x20\n      add\n      0x00\n      keccak256\n        /* \"DripWarrior/poolContract.sol\":8385:8432  userRegistered[totalUsers[i]].totalStakedAmount */\n      0x05\n      add\n      sload\n        /* \"DripWarrior/poolContract.sol\":8385:8442  userRegistered[totalUsers[i]].totalStakedAmount * (10000) */\n      tag_480\n      swap2\n      swap1\n      tag_481\n      jump\t// in\n    tag_480:\n        /* \"DripWarrior/poolContract.sol\":8384:8465  (userRegistered[totalUsers[i]].totalStakedAmount * (10000)) / (totalStakedAmount) */\n      tag_482\n      swap2\n      swap1\n      tag_483\n      jump\t// in\n    tag_482:\n        /* \"DripWarrior/poolContract.sol\":8354:8465  uint256 eachSharePercentage = (userRegistered[totalUsers[i]].totalStakedAmount * (10000)) / (totalStakedAmount) */\n      swap1\n      pop\n        /* \"DripWarrior/poolContract.sol\":8500:8522  uint256 eachSendAmount */\n      0x00\n        /* \"DripWarrior/poolContract.sol\":8525:8592  calculatePercentage(dividentPayoutOPoolAmount, eachSharePercentage) */\n      tag_484\n        /* \"DripWarrior/poolContract.sol\":8545:8570  dividentPayoutOPoolAmount */\n      dup7\n        /* \"DripWarrior/poolContract.sol\":8572:8591  eachSharePercentage */\n      dup4\n        /* \"DripWarrior/poolContract.sol\":8525:8544  calculatePercentage */\n      tag_485\n        /* \"DripWarrior/poolContract.sol\":8525:8592  calculatePercentage(dividentPayoutOPoolAmount, eachSharePercentage) */\n      jump\t// in\n    tag_484:\n        /* \"DripWarrior/poolContract.sol\":8500:8592  uint256 eachSendAmount = calculatePercentage(dividentPayoutOPoolAmount, eachSharePercentage) */\n      swap1\n      pop\n        /* \"DripWarrior/poolContract.sol\":8633:8647  eachSendAmount */\n      dup1\n        /* \"DripWarrior/poolContract.sol\":8610:8629  ownerShipPoolAmount */\n      0x02\n      0x00\n        /* \"DripWarrior/poolContract.sol\":8610:8647  ownerShipPoolAmount -= eachSendAmount */\n      dup3\n      dup3\n      sload\n      tag_486\n      swap2\n      swap1\n      tag_266\n      jump\t// in\n    tag_486:\n      swap3\n      pop\n      pop\n      dup2\n      swap1\n      sstore\n      pop\n        /* \"DripWarrior/poolContract.sol\":8702:8716  eachSendAmount */\n      dup1\n        /* \"DripWarrior/poolContract.sol\":8690:8716  maxlimit += eachSendAmount */\n      dup5\n      tag_487\n      swap2\n      swap1\n      tag_297\n      jump\t// in\n    tag_487:\n      swap4\n      pop\n        /* \"DripWarrior/poolContract.sol\":8756:8774  perPersonFromTPool */\n      dup5\n        /* \"DripWarrior/poolContract.sol\":8734:8752  treasuryPoolAmount */\n      0x01\n      0x00\n        /* \"DripWarrior/poolContract.sol\":8734:8774  treasuryPoolAmount -= perPersonFromTPool */\n      dup3\n      dup3\n      sload\n      tag_488\n      swap2\n      swap1\n      tag_266\n      jump\t// in\n    tag_488:\n      swap3\n      pop\n      pop\n      dup2\n      swap1\n      sstore\n      pop\n        /* \"DripWarrior/poolContract.sol\":8845:8863  perPersonFromTPool */\n      dup5\n        /* \"DripWarrior/poolContract.sol\":8793:8807  userRegistered */\n      0x12\n        /* \"DripWarrior/poolContract.sol\":8793:8822  userRegistered[totalUsers[i]] */\n      0x00\n        /* \"DripWarrior/poolContract.sol\":8808:8818  totalUsers */\n      0x10\n        /* \"DripWarrior/poolContract.sol\":8808:8821  totalUsers[i] */\n      0x00\n        /* \"DripWarrior/poolContract.sol\":8819:8820  i */\n      dup8\n        /* \"DripWarrior/poolContract.sol\":8808:8821  totalUsers[i] */\n      dup2\n      mstore\n      0x20\n      add\n      swap1\n      dup2\n      mstore\n      0x20\n      add\n      0x00\n      keccak256\n      0x00\n      swap1\n      sload\n      swap1\n      0x0100\n      exp\n      swap1\n      div\n      0xffffffffffffffffffffffffffffffffffffffff\n      and\n        /* \"DripWarrior/poolContract.sol\":8793:8822  userRegistered[totalUsers[i]] */\n      0xffffffffffffffffffffffffffffffffffffffff\n      and\n      0xffffffffffffffffffffffffffffffffffffffff\n      and\n      dup2\n      mstore\n      0x20\n      add\n      swap1\n      dup2\n      mstore\n      0x20\n      add\n      0x00\n      keccak256\n        /* \"DripWarrior/poolContract.sol\":8793:8842  userRegistered[totalUsers[i]].receiveFromTreasury */\n      0x03\n      add\n        /* \"DripWarrior/poolContract.sol\":8793:8863  userRegistered[totalUsers[i]].receiveFromTreasury = perPersonFromTPool */\n      dup2\n      swap1\n      sstore\n      pop\n        /* \"DripWarrior/poolContract.sol\":8935:8949  eachSendAmount */\n      dup1\n        /* \"DripWarrior/poolContract.sol\":8881:8895  userRegistered */\n      0x12\n        /* \"DripWarrior/poolContract.sol\":8881:8910  userRegistered[totalUsers[i]] */\n      0x00\n        /* \"DripWarrior/poolContract.sol\":8896:8906  totalUsers */\n      0x10\n        /* \"DripWarrior/poolContract.sol\":8896:8909  totalUsers[i] */\n      0x00\n        /* \"DripWarrior/poolContract.sol\":8907:8908  i */\n      dup8\n        /* \"DripWarrior/poolContract.sol\":8896:8909  totalUsers[i] */\n      dup2\n      mstore\n      0x20\n      add\n      swap1\n      dup2\n      mstore\n      0x20\n      add\n      0x00\n      keccak256\n      0x00\n      swap1\n      sload\n      swap1\n      0x0100\n      exp\n      swap1\n      div\n      0xffffffffffffffffffffffffffffffffffffffff\n      and\n        /* \"DripWarrior/poolContract.sol\":8881:8910  userRegistered[totalUsers[i]] */\n      0xffffffffffffffffffffffffffffffffffffffff\n      and\n      0xffffffffffffffffffffffffffffffffffffffff\n      and\n      dup2\n      mstore\n      0x20\n      add\n      swap1\n      dup2\n      mstore\n      0x20\n      add\n      0x00\n      keccak256\n        /* \"DripWarrior/poolContract.sol\":8881:8932  userRegistered[totalUsers[i]].receiveFromOwneerShip */\n      0x04\n      add\n        /* \"DripWarrior/poolContract.sol\":8881:8949  userRegistered[totalUsers[i]].receiveFromOwneerShip = eachSendAmount */\n      dup2\n      swap1\n      sstore\n      pop\n        /* \"DripWarrior/poolContract.sol\":8984:9007  uint256 totalSendAmount */\n      0x00\n        /* \"DripWarrior/poolContract.sol\":9027:9045  perPersonFromTPool */\n      dup6\n        /* \"DripWarrior/poolContract.sol\":9010:9024  eachSendAmount */\n      dup3\n        /* \"DripWarrior/poolContract.sol\":9010:9045  eachSendAmount + perPersonFromTPool */\n      tag_489\n      swap2\n      swap1\n      tag_297\n      jump\t// in\n    tag_489:\n        /* \"DripWarrior/poolContract.sol\":8984:9045  uint256 totalSendAmount = eachSendAmount + perPersonFromTPool */\n      swap1\n      pop\n        /* \"DripWarrior/poolContract.sol\":9111:9126  totalSendAmount */\n      dup1\n        /* \"DripWarrior/poolContract.sol\":9063:9077  userRegistered */\n      0x12\n        /* \"DripWarrior/poolContract.sol\":9063:9092  userRegistered[totalUsers[i]] */\n      0x00\n        /* \"DripWarrior/poolContract.sol\":9078:9088  totalUsers */\n      0x10\n        /* \"DripWarrior/poolContract.sol\":9078:9091  totalUsers[i] */\n      0x00\n        /* \"DripWarrior/poolContract.sol\":9089:9090  i */\n      dup9\n        /* \"DripWarrior/poolContract.sol\":9078:9091  totalUsers[i] */\n      dup2\n      mstore\n      0x20\n      add\n      swap1\n      dup2\n      mstore\n      0x20\n      add\n      0x00\n      keccak256\n      0x00\n      swap1\n      sload\n      swap1\n      0x0100\n      exp\n      swap1\n      div\n      0xffffffffffffffffffffffffffffffffffffffff\n      and\n        /* \"DripWarrior/poolContract.sol\":9063:9092  userRegistered[totalUsers[i]] */\n      0xffffffffffffffffffffffffffffffffffffffff\n      and\n      0xffffffffffffffffffffffffffffffffffffffff\n      and\n      dup2\n      mstore\n      0x20\n      add\n      swap1\n      dup2\n      mstore\n      0x20\n      add\n      0x00\n      keccak256\n        /* \"DripWarrior/poolContract.sol\":9063:9107  userRegistered[totalUsers[i]].receivedAmount */\n      0x01\n      add\n      0x00\n        /* \"DripWarrior/poolContract.sol\":9063:9126  userRegistered[totalUsers[i]].receivedAmount += totalSendAmount */\n      dup3\n      dup3\n      sload\n      tag_490\n      swap2\n      swap1\n      tag_297\n      jump\t// in\n    tag_490:\n      swap3\n      pop\n      pop\n      dup2\n      swap1\n      sstore\n      pop\n        /* \"DripWarrior/poolContract.sol\":9165:9181  remainFiftyOPool */\n      dup8\n        /* \"DripWarrior/poolContract.sol\":9153:9161  maxlimit */\n      dup6\n        /* \"DripWarrior/poolContract.sol\":9153:9181  maxlimit <= remainFiftyOPool */\n      gt\n      iszero\n        /* \"DripWarrior/poolContract.sol\":9145:9212  require(maxlimit <= remainFiftyOPool, \"Amount is greater then 50%\") */\n      tag_491\n      jumpi\n      mload(0x40)\n      0x08c379a000000000000000000000000000000000000000000000000000000000\n      dup2\n      mstore\n      0x04\n      add\n      tag_492\n      swap1\n      tag_493\n      jump\t// in\n    tag_492:\n      mload(0x40)\n      dup1\n      swap2\n      sub\n      swap1\n      revert\n    tag_491:\n        /* \"DripWarrior/poolContract.sol\":8335:9227  {... */\n      pop\n      pop\n      pop\n        /* \"DripWarrior/poolContract.sol\":8293:9227  if(!userRegistered[totalUsers[i]].blocked){... */\n    tag_479:\n        /* \"DripWarrior/poolContract.sol\":8274:8277  i++ */\n      dup1\n      dup1\n      0x01\n      add\n      swap2\n      pop\n      pop\n        /* \"DripWarrior/poolContract.sol\":8240:9250  for(uint256 i = 0; i < noOfUsers; i++){... */\n      jump(tag_476)\n    tag_477:\n      pop\n        /* \"DripWarrior/poolContract.sol\":9265:9334  WeeklyTransfered(msg.sender, ownerShipPoolAmount, treasuryPoolAmount) */\n      0xee826440768329b0c72f81331212ee31fcdac1ea79a248d24821e40c34e58020\n        /* \"DripWarrior/poolContract.sol\":9282:9292  msg.sender */\n      caller\n        /* \"DripWarrior/poolContract.sol\":9294:9313  ownerShipPoolAmount */\n      sload(0x02)\n        /* \"DripWarrior/poolContract.sol\":9315:9333  treasuryPoolAmount */\n      sload(0x01)\n        /* \"DripWarrior/poolContract.sol\":9265:9334  WeeklyTransfered(msg.sender, ownerShipPoolAmount, treasuryPoolAmount) */\n      mload(0x40)\n      tag_494\n      swap4\n      swap3\n      swap2\n      swap1\n      tag_319\n      jump\t// in\n    tag_494:\n      mload(0x40)\n      dup1\n      swap2\n      sub\n      swap1\n      log1\n        /* \"DripWarrior/poolContract.sol\":7965:9342  {... */\n      pop\n      pop\n      pop\n      pop\n        /* \"DripWarrior/poolContract.sol\":7931:9342  function weeklyTransfer() public  {... */\n      jump\t// out\n        /* \"DripWarrior/poolContract.sol\":14075:14417  function setTeasueryPercentages(uint256 _projectId,uint256 _newPerccentage) external onlyOwner {... */\n    tag_245:\n        /* \"@openzeppelin/contracts-upgradeable/access/OwnableUpgradeable.sol\":2334:2347  _checkOwner() */\n      tag_496\n        /* \"@openzeppelin/contracts-upgradeable/access/OwnableUpgradeable.sol\":2334:2345  _checkOwner */\n      tag_257\n        /* \"@openzeppelin/contracts-upgradeable/access/OwnableUpgradeable.sol\":2334:2347  _checkOwner() */\n      jump\t// in\n    tag_496:\n        /* \"DripWarrior/poolContract.sol\":14211:14212  0 */\n      0x00\n        /* \"DripWarrior/poolContract.sol\":14192:14207  _newPerccentage */\n      dup2\n        /* \"DripWarrior/poolContract.sol\":14192:14212  _newPerccentage <= 0 */\n      gt\n        /* \"DripWarrior/poolContract.sol\":14189:14277  if(_newPerccentage <= 0){... */\n      tag_498\n      jumpi\n        /* \"DripWarrior/poolContract.sol\":14250:14265  _newPerccentage */\n      dup1\n        /* \"DripWarrior/poolContract.sol\":14234:14266  wrongPercentage(_newPerccentage) */\n      mload(0x40)\n      0xcdbc633500000000000000000000000000000000000000000000000000000000\n      dup2\n      mstore\n      0x04\n      add\n      tag_499\n      swap2\n      swap1\n      tag_59\n      jump\t// in\n    tag_499:\n      mload(0x40)\n      dup1\n      swap2\n      sub\n      swap1\n      revert\n        /* \"DripWarrior/poolContract.sol\":14189:14277  if(_newPerccentage <= 0){... */\n    tag_498:\n        /* \"DripWarrior/poolContract.sol\":14323:14338  _newPerccentage */\n      dup1\n        /* \"DripWarrior/poolContract.sol\":14295:14308  tPPercentages */\n      0x11\n        /* \"DripWarrior/poolContract.sol\":14295:14320  tPPercentages[_projectId] */\n      0x00\n        /* \"DripWarrior/poolContract.sol\":14309:14319  _projectId */\n      dup5\n        /* \"DripWarrior/poolContract.sol\":14295:14320  tPPercentages[_projectId] */\n      dup2\n      mstore\n      0x20\n      add\n      swap1\n      dup2\n      mstore\n      0x20\n      add\n      0x00\n      keccak256\n        /* \"DripWarrior/poolContract.sol\":14295:14338  tPPercentages[_projectId] = _newPerccentage */\n      dup2\n      swap1\n      sstore\n      pop\n        /* \"DripWarrior/poolContract.sol\":14354:14410  PercentageChanged(msg.sender, tPPercentages[_projectId]) */\n      0xb5671393c7c6980552e50a31e778921eb17d764c2e98fbf4d44fff524712def9\n        /* \"DripWarrior/poolContract.sol\":14372:14382  msg.sender */\n      caller\n        /* \"DripWarrior/poolContract.sol\":14384:14397  tPPercentages */\n      0x11\n        /* \"DripWarrior/poolContract.sol\":14384:14409  tPPercentages[_projectId] */\n      0x00\n        /* \"DripWarrior/poolContract.sol\":14398:14408  _projectId */\n      dup6\n        /* \"DripWarrior/poolContract.sol\":14384:14409  tPPercentages[_projectId] */\n      dup2\n      mstore\n      0x20\n      add\n      swap1\n      dup2\n      mstore\n      0x20\n      add\n      0x00\n      keccak256\n      sload\n        /* \"DripWarrior/poolContract.sol\":14354:14410  PercentageChanged(msg.sender, tPPercentages[_projectId]) */\n      mload(0x40)\n      tag_500\n      swap3\n      swap2\n      swap1\n      tag_324\n      jump\t// in\n    tag_500:\n      mload(0x40)\n      dup1\n      swap2\n      sub\n      swap1\n      log1\n        /* \"DripWarrior/poolContract.sol\":14075:14417  function setTeasueryPercentages(uint256 _projectId,uint256 _newPerccentage) external onlyOwner {... */\n      pop\n      pop\n      jump\t// out\n        /* \"@openzeppelin/contracts-upgradeable/access/OwnableUpgradeable.sol\":3405:3620  function transferOwnership(address newOwner) public virtual onlyOwner {... */\n    tag_249:\n        /* \"@openzeppelin/contracts-upgradeable/access/OwnableUpgradeable.sol\":2334:2347  _checkOwner() */\n      tag_502\n        /* \"@openzeppelin/contracts-upgradeable/access/OwnableUpgradeable.sol\":2334:2345  _checkOwner */\n      tag_257\n        /* \"@openzeppelin/contracts-upgradeable/access/OwnableUpgradeable.sol\":2334:2347  _checkOwner() */\n      jump\t// in\n    tag_502:\n        /* \"@openzeppelin/contracts-upgradeable/access/OwnableUpgradeable.sol\":3509:3510  0 */\n      0x00\n        /* \"@openzeppelin/contracts-upgradeable/access/OwnableUpgradeable.sol\":3489:3511  newOwner == address(0) */\n      0xffffffffffffffffffffffffffffffffffffffff\n      and\n        /* \"@openzeppelin/contracts-upgradeable/access/OwnableUpgradeable.sol\":3489:3497  newOwner */\n      dup2\n        /* \"@openzeppelin/contracts-upgradeable/access/OwnableUpgradeable.sol\":3489:3511  newOwner == address(0) */\n      0xffffffffffffffffffffffffffffffffffffffff\n      and\n      sub\n        /* \"@openzeppelin/contracts-upgradeable/access/OwnableUpgradeable.sol\":3485:3576  if (newOwner == address(0)) {... */\n      tag_504\n      jumpi\n        /* \"@openzeppelin/contracts-upgradeable/access/OwnableUpgradeable.sol\":3562:3563  0 */\n      0x00\n        /* \"@openzeppelin/contracts-upgradeable/access/OwnableUpgradeable.sol\":3534:3565  OwnableInvalidOwner(address(0)) */\n      mload(0x40)\n      0x1e4fbdf700000000000000000000000000000000000000000000000000000000\n      dup2\n      mstore\n      0x04\n      add\n      tag_505\n      swap2\n      swap1\n      tag_78\n      jump\t// in\n    tag_505:\n      mload(0x40)\n      dup1\n      swap2\n      sub\n      swap1\n      revert\n        /* \"@openzeppelin/contracts-upgradeable/access/OwnableUpgradeable.sol\":3485:3576  if (newOwner == address(0)) {... */\n    tag_504:\n        /* \"@openzeppelin/contracts-upgradeable/access/OwnableUpgradeable.sol\":3585:3613  _transferOwnership(newOwner) */\n      tag_506\n        /* \"@openzeppelin/contracts-upgradeable/access/OwnableUpgradeable.sol\":3604:3612  newOwner */\n      dup2\n        /* \"@openzeppelin/contracts-upgradeable/access/OwnableUpgradeable.sol\":3585:3603  _transferOwnership */\n      tag_350\n        /* \"@openzeppelin/contracts-upgradeable/access/OwnableUpgradeable.sol\":3585:3613  _transferOwnership(newOwner) */\n      jump\t// in\n    tag_506:\n        /* \"@openzeppelin/contracts-upgradeable/access/OwnableUpgradeable.sol\":3405:3620  function transferOwnership(address newOwner) public virtual onlyOwner {... */\n      pop\n      jump\t// out\n        /* \"DripWarrior/poolContract.sol\":2063:2111  mapping(uint256 => uint256) public tPPercentages */\n    tag_253:\n      mstore(0x20, 0x11)\n      dup1\n      0x00\n      mstore\n      keccak256(0x00, 0x40)\n      0x00\n      swap2\n      pop\n      swap1\n      pop\n      sload\n      dup2\n      jump\t// out\n        /* \"@openzeppelin/contracts-upgradeable/access/OwnableUpgradeable.sol\":2658:2820  function _checkOwner() internal view virtual {... */\n    tag_257:\n        /* \"@openzeppelin/contracts-upgradeable/access/OwnableUpgradeable.sol\":2728:2740  _msgSender() */\n      tag_508\n        /* \"@openzeppelin/contracts-upgradeable/access/OwnableUpgradeable.sol\":2728:2738  _msgSender */\n      tag_509\n        /* \"@openzeppelin/contracts-upgradeable/access/OwnableUpgradeable.sol\":2728:2740  _msgSender() */\n      jump\t// in\n    tag_508:\n        /* \"@openzeppelin/contracts-upgradeable/access/OwnableUpgradeable.sol\":2717:2740  owner() != _msgSender() */\n      0xffffffffffffffffffffffffffffffffffffffff\n      and\n        /* \"@openzeppelin/contracts-upgradeable/access/OwnableUpgradeable.sol\":2717:2724  owner() */\n      tag_510\n        /* \"@openzeppelin/contracts-upgradeable/access/OwnableUpgradeable.sol\":2717:2722  owner */\n      tag_177\n        /* \"@openzeppelin/contracts-upgradeable/access/OwnableUpgradeable.sol\":2717:2724  owner() */\n      jump\t// in\n    tag_510:\n        /* \"@openzeppelin/contracts-upgradeable/access/OwnableUpgradeable.sol\":2717:2740  owner() != _msgSender() */\n      0xffffffffffffffffffffffffffffffffffffffff\n      and\n      eq\n        /* \"@openzeppelin/contracts-upgradeable/access/OwnableUpgradeable.sol\":2713:2814  if (owner() != _msgSender()) {... */\n      tag_511\n      jumpi\n        /* \"@openzeppelin/contracts-upgradeable/access/OwnableUpgradeable.sol\":2790:2802  _msgSender() */\n      tag_512\n        /* \"@openzeppelin/contracts-upgradeable/access/OwnableUpgradeable.sol\":2790:2800  _msgSender */\n      tag_509\n        /* \"@openzeppelin/contracts-upgradeable/access/OwnableUpgradeable.sol\":2790:2802  _msgSender() */\n      jump\t// in\n    tag_512:\n        /* \"@openzeppelin/contracts-upgradeable/access/OwnableUpgradeable.sol\":2763:2803  OwnableUnauthorizedAccount(_msgSender()) */\n      mload(0x40)\n      0x118cdaa700000000000000000000000000000000000000000000000000000000\n      dup2\n      mstore\n      0x04\n      add\n      tag_513\n      swap2\n      swap1\n      tag_78\n      jump\t// in\n    tag_513:\n      mload(0x40)\n      dup1\n      swap2\n      sub\n      swap1\n      revert\n        /* \"@openzeppelin/contracts-upgradeable/access/OwnableUpgradeable.sol\":2713:2814  if (owner() != _msgSender()) {... */\n    tag_511:\n        /* \"@openzeppelin/contracts-upgradeable/access/OwnableUpgradeable.sol\":2658:2820  function _checkOwner() internal view virtual {... */\n      jump\t// out\n        /* \"@openzeppelin/contracts-upgradeable/proxy/utils/UUPSUpgradeable.sol\":4599:4911  function _checkProxy() internal view virtual {... */\n    tag_285:\n        /* \"@openzeppelin/contracts-upgradeable/proxy/utils/UUPSUpgradeable.sol\":4688:4694  __self */\n      immutable(\"0x6740f0f1ed974f4bbc4ea3ddf8917f81b1171208e4ec27e89df857ca2a56624a\")\n        /* \"@openzeppelin/contracts-upgradeable/proxy/utils/UUPSUpgradeable.sol\":4671:4694  address(this) == __self */\n      0xffffffffffffffffffffffffffffffffffffffff\n      and\n        /* \"@openzeppelin/contracts-upgradeable/proxy/utils/UUPSUpgradeable.sol\":4679:4683  this */\n      address\n        /* \"@openzeppelin/contracts-upgradeable/proxy/utils/UUPSUpgradeable.sol\":4671:4694  address(this) == __self */\n      0xffffffffffffffffffffffffffffffffffffffff\n      and\n      eq\n        /* \"@openzeppelin/contracts-upgradeable/proxy/utils/UUPSUpgradeable.sol\":4671:4791  address(this) == __self || // Must be called through delegatecall... */\n      dup1\n      tag_515\n      jumpi\n      pop\n        /* \"@openzeppelin/contracts-upgradeable/proxy/utils/UUPSUpgradeable.sol\":4785:4791  __self */\n      immutable(\"0x6740f0f1ed974f4bbc4ea3ddf8917f81b1171208e4ec27e89df857ca2a56624a\")\n        /* \"@openzeppelin/contracts-upgradeable/proxy/utils/UUPSUpgradeable.sol\":4749:4791  ERC1967Utils.getImplementation() != __self */\n      0xffffffffffffffffffffffffffffffffffffffff\n      and\n        /* \"@openzeppelin/contracts-upgradeable/proxy/utils/UUPSUpgradeable.sol\":4749:4781  ERC1967Utils.getImplementation() */\n      tag_516\n        /* \"@openzeppelin/contracts-upgradeable/proxy/utils/UUPSUpgradeable.sol\":4749:4779  ERC1967Utils.getImplementation */\n      tag_517\n        /* \"@openzeppelin/contracts-upgradeable/proxy/utils/UUPSUpgradeable.sol\":4749:4781  ERC1967Utils.getImplementation() */\n      jump\t// in\n    tag_516:\n        /* \"@openzeppelin/contracts-upgradeable/proxy/utils/UUPSUpgradeable.sol\":4749:4791  ERC1967Utils.getImplementation() != __self */\n      0xffffffffffffffffffffffffffffffffffffffff\n      and\n      eq\n      iszero\n        /* \"@openzeppelin/contracts-upgradeable/proxy/utils/UUPSUpgradeable.sol\":4671:4791  address(this) == __self || // Must be called through delegatecall... */\n    tag_515:\n        /* \"@openzeppelin/contracts-upgradeable/proxy/utils/UUPSUpgradeable.sol\":4654:4905  if (... */\n      iszero\n      tag_518\n      jumpi\n        /* \"@openzeppelin/contracts-upgradeable/proxy/utils/UUPSUpgradeable.sol\":4865:4894  UUPSUnauthorizedCallContext() */\n      mload(0x40)\n      0xe07c8dba00000000000000000000000000000000000000000000000000000000\n      dup2\n      mstore\n      0x04\n      add\n      mload(0x40)\n      dup1\n      swap2\n      sub\n      swap1\n      revert\n        /* \"@openzeppelin/contracts-upgradeable/proxy/utils/UUPSUpgradeable.sol\":4654:4905  if (... */\n    tag_518:\n        /* \"@openzeppelin/contracts-upgradeable/proxy/utils/UUPSUpgradeable.sol\":4599:4911  function _checkProxy() internal view virtual {... */\n      jump\t// out\n        /* \"DripWarrior/poolContract.sol\":16087:16199  function _authorizeUpgrade(address newImplementation)... */\n    tag_288:\n        /* \"@openzeppelin/contracts-upgradeable/access/OwnableUpgradeable.sol\":2334:2347  _checkOwner() */\n      tag_520\n        /* \"@openzeppelin/contracts-upgradeable/access/OwnableUpgradeable.sol\":2334:2345  _checkOwner */\n      tag_257\n        /* \"@openzeppelin/contracts-upgradeable/access/OwnableUpgradeable.sol\":2334:2347  _checkOwner() */\n      jump\t// in\n    tag_520:\n        /* \"DripWarrior/poolContract.sol\":16087:16199  function _authorizeUpgrade(address newImplementation)... */\n      pop\n      jump\t// out\n        /* \"@openzeppelin/contracts-upgradeable/proxy/utils/UUPSUpgradeable.sol\":6052:6590  function _upgradeToAndCallUUPS(address newImplementation, bytes memory data) private {... */\n    tag_290:\n        /* \"@openzeppelin/contracts-upgradeable/proxy/utils/UUPSUpgradeable.sol\":6169:6186  newImplementation */\n      dup2\n        /* \"@openzeppelin/contracts-upgradeable/proxy/utils/UUPSUpgradeable.sol\":6151:6201  IERC1822Proxiable(newImplementation).proxiableUUID */\n      0xffffffffffffffffffffffffffffffffffffffff\n      and\n      0x52d1902d\n        /* \"@openzeppelin/contracts-upgradeable/proxy/utils/UUPSUpgradeable.sol\":6151:6203  IERC1822Proxiable(newImplementation).proxiableUUID() */\n      mload(0x40)\n      dup2\n      0xffffffff\n      and\n      0xe0\n      shl\n      dup2\n      mstore\n      0x04\n      add\n      0x20\n      mload(0x40)\n      dup1\n      dup4\n      sub\n      dup2\n      dup7\n      gas\n      staticcall\n      swap3\n      pop\n      pop\n      pop\n      dup1\n      iszero\n      tag_523\n      jumpi\n      pop\n      mload(0x40)\n      returndatasize\n      not(0x1f)\n      0x1f\n      dup3\n      add\n      and\n      dup3\n      add\n      dup1\n      0x40\n      mstore\n      pop\n      dup2\n      add\n      swap1\n      tag_524\n      swap2\n      swap1\n      tag_525\n      jump\t// in\n    tag_524:\n      0x01\n    tag_523:\n        /* \"@openzeppelin/contracts-upgradeable/proxy/utils/UUPSUpgradeable.sol\":6147:6584  try IERC1822Proxiable(newImplementation).proxiableUUID() returns (bytes32 slot) {... */\n      tag_526\n      jumpi\n        /* \"@openzeppelin/contracts-upgradeable/proxy/utils/UUPSUpgradeable.sol\":6555:6572  newImplementation */\n      dup2\n        /* \"@openzeppelin/contracts-upgradeable/proxy/utils/UUPSUpgradeable.sol\":6513:6573  ERC1967Utils.ERC1967InvalidImplementation(newImplementation) */\n      mload(0x40)\n      0x4c9c8ce300000000000000000000000000000000000000000000000000000000\n      dup2\n      mstore\n      0x04\n      add\n      tag_530\n      swap2\n      swap1\n      tag_78\n      jump\t// in\n    tag_530:\n      mload(0x40)\n      dup1\n      swap2\n      sub\n      swap1\n      revert\n        /* \"@openzeppelin/contracts-upgradeable/proxy/utils/UUPSUpgradeable.sol\":6147:6584  try IERC1822Proxiable(newImplementation).proxiableUUID() returns (bytes32 slot) {... */\n    tag_526:\n        /* \"@openzeppelin/contracts/proxy/ERC1967/ERC1967Utils.sol\":1327:1393  0x360894a13ba1a3210667c828492db98dca3e2076cc3735a920a3ca505d382bbc */\n      0x360894a13ba1a3210667c828492db98dca3e2076cc3735a920a3ca505d382bbc\n        /* \"@openzeppelin/contracts-upgradeable/proxy/utils/UUPSUpgradeable.sol\":6253:6285  ERC1967Utils.IMPLEMENTATION_SLOT */\n      0x00\n      shl\n        /* \"@openzeppelin/contracts-upgradeable/proxy/utils/UUPSUpgradeable.sol\":6245:6249  slot */\n      dup2\n        /* \"@openzeppelin/contracts-upgradeable/proxy/utils/UUPSUpgradeable.sol\":6245:6285  slot != ERC1967Utils.IMPLEMENTATION_SLOT */\n      eq\n        /* \"@openzeppelin/contracts-upgradeable/proxy/utils/UUPSUpgradeable.sol\":6241:6361  if (slot != ERC1967Utils.IMPLEMENTATION_SLOT) {... */\n      tag_532\n      jumpi\n        /* \"@openzeppelin/contracts-upgradeable/proxy/utils/UUPSUpgradeable.sol\":6341:6345  slot */\n      dup1\n        /* \"@openzeppelin/contracts-upgradeable/proxy/utils/UUPSUpgradeable.sol\":6312:6346  UUPSUnsupportedProxiableUUID(slot) */\n      mload(0x40)\n      0xaa1d49a400000000000000000000000000000000000000000000000000000000\n      dup2\n      mstore\n      0x04\n      add\n      tag_533\n      swap2\n      swap1\n      tag_121\n      jump\t// in\n    tag_533:\n      mload(0x40)\n      dup1\n      swap2\n      sub\n      swap1\n      revert\n        /* \"@openzeppelin/contracts-upgradeable/proxy/utils/UUPSUpgradeable.sol\":6241:6361  if (slot != ERC1967Utils.IMPLEMENTATION_SLOT) {... */\n    tag_532:\n        /* \"@openzeppelin/contracts-upgradeable/proxy/utils/UUPSUpgradeable.sol\":6374:6428  ERC1967Utils.upgradeToAndCall(newImplementation, data) */\n      tag_534\n        /* \"@openzeppelin/contracts-upgradeable/proxy/utils/UUPSUpgradeable.sol\":6404:6421  newImplementation */\n      dup4\n        /* \"@openzeppelin/contracts-upgradeable/proxy/utils/UUPSUpgradeable.sol\":6423:6427  data */\n      dup4\n        /* \"@openzeppelin/contracts-upgradeable/proxy/utils/UUPSUpgradeable.sol\":6374:6403  ERC1967Utils.upgradeToAndCall */\n      tag_535\n        /* \"@openzeppelin/contracts-upgradeable/proxy/utils/UUPSUpgradeable.sol\":6374:6428  ERC1967Utils.upgradeToAndCall(newImplementation, data) */\n      jump\t// in\n    tag_534:\n        /* \"@openzeppelin/contracts-upgradeable/proxy/utils/UUPSUpgradeable.sol\":6204:6439  returns (bytes32 slot) {... */\n      pop\n        /* \"@openzeppelin/contracts-upgradeable/proxy/utils/UUPSUpgradeable.sol\":6052:6590  function _upgradeToAndCallUUPS(address newImplementation, bytes memory data) private {... */\n      pop\n      pop\n      jump\t// out\n        /* \"@openzeppelin/contracts-upgradeable/proxy/utils/UUPSUpgradeable.sol\":5028:5241  function _checkNotDelegated() internal view virtual {... */\n    tag_309:\n        /* \"@openzeppelin/contracts-upgradeable/proxy/utils/UUPSUpgradeable.sol\":5111:5117  __self */\n      immutable(\"0x6740f0f1ed974f4bbc4ea3ddf8917f81b1171208e4ec27e89df857ca2a56624a\")\n        /* \"@openzeppelin/contracts-upgradeable/proxy/utils/UUPSUpgradeable.sol\":5094:5117  address(this) != __self */\n      0xffffffffffffffffffffffffffffffffffffffff\n      and\n        /* \"@openzeppelin/contracts-upgradeable/proxy/utils/UUPSUpgradeable.sol\":5102:5106  this */\n      address\n        /* \"@openzeppelin/contracts-upgradeable/proxy/utils/UUPSUpgradeable.sol\":5094:5117  address(this) != __self */\n      0xffffffffffffffffffffffffffffffffffffffff\n      and\n      eq\n        /* \"@openzeppelin/contracts-upgradeable/proxy/utils/UUPSUpgradeable.sol\":5090:5235  if (address(this) != __self) {... */\n      tag_537\n      jumpi\n        /* \"@openzeppelin/contracts-upgradeable/proxy/utils/UUPSUpgradeable.sol\":5195:5224  UUPSUnauthorizedCallContext() */\n      mload(0x40)\n      0xe07c8dba00000000000000000000000000000000000000000000000000000000\n      dup2\n      mstore\n      0x04\n      add\n      mload(0x40)\n      dup1\n      swap2\n      sub\n      swap1\n      revert\n        /* \"@openzeppelin/contracts-upgradeable/proxy/utils/UUPSUpgradeable.sol\":5090:5235  if (address(this) != __self) {... */\n    tag_537:\n        /* \"@openzeppelin/contracts-upgradeable/proxy/utils/UUPSUpgradeable.sol\":5028:5241  function _checkNotDelegated() internal view virtual {... */\n      jump\t// out\n        /* \"@openzeppelin/contracts-upgradeable/access/OwnableUpgradeable.sol\":3774:4022  function _transferOwnership(address newOwner) internal virtual {... */\n    tag_350:\n        /* \"@openzeppelin/contracts-upgradeable/access/OwnableUpgradeable.sol\":3847:3871  OwnableStorage storage $ */\n      0x00\n        /* \"@openzeppelin/contracts-upgradeable/access/OwnableUpgradeable.sol\":3874:3894  _getOwnableStorage() */\n      tag_539\n        /* \"@openzeppelin/contracts-upgradeable/access/OwnableUpgradeable.sol\":3874:3892  _getOwnableStorage */\n      tag_421\n        /* \"@openzeppelin/contracts-upgradeable/access/OwnableUpgradeable.sol\":3874:3894  _getOwnableStorage() */\n      jump\t// in\n    tag_539:\n        /* \"@openzeppelin/contracts-upgradeable/access/OwnableUpgradeable.sol\":3847:3894  OwnableStorage storage $ = _getOwnableStorage() */\n      swap1\n      pop\n        /* \"@openzeppelin/contracts-upgradeable/access/OwnableUpgradeable.sol\":3904:3920  address oldOwner */\n      0x00\n        /* \"@openzeppelin/contracts-upgradeable/access/OwnableUpgradeable.sol\":3923:3924  $ */\n      dup2\n        /* \"@openzeppelin/contracts-upgradeable/access/OwnableUpgradeable.sol\":3923:3931  $._owner */\n      0x00\n      add\n      0x00\n      swap1\n      sload\n      swap1\n      0x0100\n      exp\n      swap1\n      div\n      0xffffffffffffffffffffffffffffffffffffffff\n      and\n        /* \"@openzeppelin/contracts-upgradeable/access/OwnableUpgradeable.sol\":3904:3931  address oldOwner = $._owner */\n      swap1\n      pop\n        /* \"@openzeppelin/contracts-upgradeable/access/OwnableUpgradeable.sol\":3952:3960  newOwner */\n      dup3\n        /* \"@openzeppelin/contracts-upgradeable/access/OwnableUpgradeable.sol\":3941:3942  $ */\n      dup3\n        /* \"@openzeppelin/contracts-upgradeable/access/OwnableUpgradeable.sol\":3941:3949  $._owner */\n      0x00\n      add\n      0x00\n        /* \"@openzeppelin/contracts-upgradeable/access/OwnableUpgradeable.sol\":3941:3960  $._owner = newOwner */\n      0x0100\n      exp\n      dup2\n      sload\n      dup2\n      0xffffffffffffffffffffffffffffffffffffffff\n      mul\n      not\n      and\n      swap1\n      dup4\n      0xffffffffffffffffffffffffffffffffffffffff\n      and\n      mul\n      or\n      swap1\n      sstore\n      pop\n        /* \"@openzeppelin/contracts-upgradeable/access/OwnableUpgradeable.sol\":4006:4014  newOwner */\n      dup3\n        /* \"@openzeppelin/contracts-upgradeable/access/OwnableUpgradeable.sol\":3975:4015  OwnershipTransferred(oldOwner, newOwner) */\n      0xffffffffffffffffffffffffffffffffffffffff\n      and\n        /* \"@openzeppelin/contracts-upgradeable/access/OwnableUpgradeable.sol\":3996:4004  oldOwner */\n      dup2\n        /* \"@openzeppelin/contracts-upgradeable/access/OwnableUpgradeable.sol\":3975:4015  OwnershipTransferred(oldOwner, newOwner) */\n      0xffffffffffffffffffffffffffffffffffffffff\n      and\n      0x8be0079c531659141344cd1fd0a4f28419497f9722a3daafe3b4186f6b6457e0\n      mload(0x40)\n      mload(0x40)\n      dup1\n      swap2\n      sub\n      swap1\n      log3\n        /* \"@openzeppelin/contracts-upgradeable/access/OwnableUpgradeable.sol\":3837:4022  {... */\n      pop\n      pop\n        /* \"@openzeppelin/contracts-upgradeable/access/OwnableUpgradeable.sol\":3774:4022  function _transferOwnership(address newOwner) internal virtual {... */\n      pop\n      jump\t// out\n        /* \"DripWarrior/poolContract.sol\":7544:7923  function calculateFees(uint256 _amount, uint256 _tPPercentage) private {... */\n    tag_410:\n        /* \"DripWarrior/poolContract.sol\":7633:7653  uint256 oPPercentage */\n      0x00\n        /* \"DripWarrior/poolContract.sol\":7664:7677  _tPPercentage */\n      dup2\n        /* \"DripWarrior/poolContract.sol\":7656:7661  10000 */\n      0x2710\n        /* \"DripWarrior/poolContract.sol\":7656:7677  10000 - _tPPercentage */\n      tag_541\n      swap2\n      swap1\n      tag_266\n      jump\t// in\n    tag_541:\n        /* \"DripWarrior/poolContract.sol\":7633:7677  uint256 oPPercentage = 10000 - _tPPercentage */\n      swap1\n      pop\n        /* \"DripWarrior/poolContract.sol\":7687:7707  uint256 ownerShipFee */\n      0x00\n        /* \"DripWarrior/poolContract.sol\":7710:7752  calculatePercentage(_amount, oPPercentage) */\n      tag_542\n        /* \"DripWarrior/poolContract.sol\":7730:7737  _amount */\n      dup5\n        /* \"DripWarrior/poolContract.sol\":7739:7751  oPPercentage */\n      dup4\n        /* \"DripWarrior/poolContract.sol\":7710:7729  calculatePercentage */\n      tag_485\n        /* \"DripWarrior/poolContract.sol\":7710:7752  calculatePercentage(_amount, oPPercentage) */\n      jump\t// in\n    tag_542:\n        /* \"DripWarrior/poolContract.sol\":7687:7752  uint256 ownerShipFee = calculatePercentage(_amount, oPPercentage) */\n      swap1\n      pop\n        /* \"DripWarrior/poolContract.sol\":7762:7781  uint256 treasuryFee */\n      0x00\n        /* \"DripWarrior/poolContract.sol\":7784:7827  calculatePercentage(_amount, _tPPercentage) */\n      tag_543\n        /* \"DripWarrior/poolContract.sol\":7804:7811  _amount */\n      dup6\n        /* \"DripWarrior/poolContract.sol\":7813:7826  _tPPercentage */\n      dup6\n        /* \"DripWarrior/poolContract.sol\":7784:7803  calculatePercentage */\n      tag_485\n        /* \"DripWarrior/poolContract.sol\":7784:7827  calculatePercentage(_amount, _tPPercentage) */\n      jump\t// in\n    tag_543:\n        /* \"DripWarrior/poolContract.sol\":7762:7827  uint256 treasuryFee = calculatePercentage(_amount, _tPPercentage) */\n      swap1\n      pop\n        /* \"DripWarrior/poolContract.sol\":7861:7873  ownerShipFee */\n      dup2\n        /* \"DripWarrior/poolContract.sol\":7838:7857  ownerShipPoolAmount */\n      0x02\n      0x00\n        /* \"DripWarrior/poolContract.sol\":7838:7873  ownerShipPoolAmount += ownerShipFee */\n      dup3\n      dup3\n      sload\n      tag_544\n      swap2\n      swap1\n      tag_297\n      jump\t// in\n    tag_544:\n      swap3\n      pop\n      pop\n      dup2\n      swap1\n      sstore\n      pop\n        /* \"DripWarrior/poolContract.sol\":7905:7916  treasuryFee */\n      dup1\n        /* \"DripWarrior/poolContract.sol\":7883:7901  treasuryPoolAmount */\n      0x01\n      0x00\n        /* \"DripWarrior/poolContract.sol\":7883:7916  treasuryPoolAmount += treasuryFee */\n      dup3\n      dup3\n      sload\n      tag_545\n      swap2\n      swap1\n      tag_297\n      jump\t// in\n    tag_545:\n      swap3\n      pop\n      pop\n      dup2\n      swap1\n      sstore\n      pop\n        /* \"DripWarrior/poolContract.sol\":7615:7923  {... */\n      pop\n      pop\n      pop\n        /* \"DripWarrior/poolContract.sol\":7544:7923  function calculateFees(uint256 _amount, uint256 _tPPercentage) private {... */\n      pop\n      pop\n      jump\t// out\n        /* \"@openzeppelin/contracts-upgradeable/access/OwnableUpgradeable.sol\":1192:1351  function _getOwnableStorage() private pure returns (OwnableStorage storage $) {... */\n    tag_421:\n        /* \"@openzeppelin/contracts-upgradeable/access/OwnableUpgradeable.sol\":1244:1268  OwnableStorage storage $ */\n      0x00\n        /* \"@openzeppelin/contracts-upgradeable/access/OwnableUpgradeable.sol\":1313:1335  OwnableStorageLocation */\n      0x9016d09d72d40fdae2fd8ceac6b6234c7706214fd39c1cd1e609a0528c199300\n        /* \"@openzeppelin/contracts-upgradeable/access/OwnableUpgradeable.sol\":1303:1335  $.slot := OwnableStorageLocation */\n      swap1\n      pop\n        /* \"@openzeppelin/contracts-upgradeable/access/OwnableUpgradeable.sol\":1192:1351  function _getOwnableStorage() private pure returns (OwnableStorage storage $) {... */\n      swap1\n      jump\t// out\n        /* \"@openzeppelin/contracts-upgradeable/proxy/utils/Initializable.sol\":8737:8907  function _getInitializableStorage() private pure returns (InitializableStorage storage $) {... */\n    tag_436:\n        /* \"@openzeppelin/contracts-upgradeable/proxy/utils/Initializable.sol\":8795:8825  InitializableStorage storage $ */\n      0x00\n        /* \"@openzeppelin/contracts-upgradeable/proxy/utils/Initializable.sol\":8870:8891  INITIALIZABLE_STORAGE */\n      0xf0c57e16840df040f15088dc2f81fe391c3923bec73e23a9662efc9c229c6a00\n        /* \"@openzeppelin/contracts-upgradeable/proxy/utils/Initializable.sol\":8860:8891  $.slot := INITIALIZABLE_STORAGE */\n      swap1\n      pop\n        /* \"@openzeppelin/contracts-upgradeable/proxy/utils/Initializable.sol\":8737:8907  function _getInitializableStorage() private pure returns (InitializableStorage storage $) {... */\n      swap1\n      jump\t// out\n        /* \"@openzeppelin/contracts-upgradeable/access/OwnableUpgradeable.sol\":1847:1974  function __Ownable_init(address initialOwner) internal onlyInitializing {... */\n    tag_444:\n        /* \"@openzeppelin/contracts-upgradeable/proxy/utils/Initializable.sol\":6931:6951  _checkInitializing() */\n      tag_549\n        /* \"@openzeppelin/contracts-upgradeable/proxy/utils/Initializable.sol\":6931:6949  _checkInitializing */\n      tag_550\n        /* \"@openzeppelin/contracts-upgradeable/proxy/utils/Initializable.sol\":6931:6951  _checkInitializing() */\n      jump\t// in\n    tag_549:\n        /* \"@openzeppelin/contracts-upgradeable/access/OwnableUpgradeable.sol\":1929:1967  __Ownable_init_unchained(initialOwner) */\n      tag_552\n        /* \"@openzeppelin/contracts-upgradeable/access/OwnableUpgradeable.sol\":1954:1966  initialOwner */\n      dup2\n        /* \"@openzeppelin/contracts-upgradeable/access/OwnableUpgradeable.sol\":1929:1953  __Ownable_init_unchained */\n      tag_553\n        /* \"@openzeppelin/contracts-upgradeable/access/OwnableUpgradeable.sol\":1929:1967  __Ownable_init_unchained(initialOwner) */\n      jump\t// in\n    tag_552:\n        /* \"@openzeppelin/contracts-upgradeable/access/OwnableUpgradeable.sol\":1847:1974  function __Ownable_init(address initialOwner) internal onlyInitializing {... */\n      pop\n      jump\t// out\n        /* \"@openzeppelin/contracts-upgradeable/proxy/utils/UUPSUpgradeable.sol\":2968:3035  function __UUPSUpgradeable_init() internal onlyInitializing {... */\n    tag_446:\n        /* \"@openzeppelin/contracts-upgradeable/proxy/utils/Initializable.sol\":6931:6951  _checkInitializing() */\n      tag_555\n        /* \"@openzeppelin/contracts-upgradeable/proxy/utils/Initializable.sol\":6931:6949  _checkInitializing */\n      tag_550\n        /* \"@openzeppelin/contracts-upgradeable/proxy/utils/Initializable.sol\":6931:6951  _checkInitializing() */\n      jump\t// in\n    tag_555:\n        /* \"@openzeppelin/contracts-upgradeable/proxy/utils/UUPSUpgradeable.sol\":2968:3035  function __UUPSUpgradeable_init() internal onlyInitializing {... */\n      jump\t// out\n        /* \"DripWarrior/poolContract.sol\":9354:10505  function perPoolCalculation() private returns(uint256, uint256,uint256){... */\n    tag_471:\n        /* \"DripWarrior/poolContract.sol\":9400:9407  uint256 */\n      0x00\n        /* \"DripWarrior/poolContract.sol\":9409:9416  uint256 */\n      dup1\n        /* \"DripWarrior/poolContract.sol\":9417:9424  uint256 */\n      0x00\n        /* \"DripWarrior/poolContract.sol\":9445:9469  uint256 remainFiftyOPool */\n      dup1\n        /* \"DripWarrior/poolContract.sol\":9472:9518  calculatePercentage(ownerShipPoolAmount, 5000) */\n      tag_558\n        /* \"DripWarrior/poolContract.sol\":9492:9511  ownerShipPoolAmount */\n      sload(0x02)\n        /* \"DripWarrior/poolContract.sol\":9513:9517  5000 */\n      0x1388\n        /* \"DripWarrior/poolContract.sol\":9472:9491  calculatePercentage */\n      tag_485\n        /* \"DripWarrior/poolContract.sol\":9472:9518  calculatePercentage(ownerShipPoolAmount, 5000) */\n      jump\t// in\n    tag_558:\n        /* \"DripWarrior/poolContract.sol\":9445:9518  uint256 remainFiftyOPool = calculatePercentage(ownerShipPoolAmount, 5000) */\n      swap1\n      pop\n        /* \"DripWarrior/poolContract.sol\":9529:9562  uint256 dividentPayoutOPoolAmount */\n      0x00\n        /* \"DripWarrior/poolContract.sol\":9565:9629  calculatePercentage(remainFiftyOPool, odividentPayoutPercentage) */\n      tag_559\n        /* \"DripWarrior/poolContract.sol\":9585:9601  remainFiftyOPool */\n      dup3\n        /* \"DripWarrior/poolContract.sol\":9603:9628  odividentPayoutPercentage */\n      sload(0x05)\n        /* \"DripWarrior/poolContract.sol\":9565:9584  calculatePercentage */\n      tag_485\n        /* \"DripWarrior/poolContract.sol\":9565:9629  calculatePercentage(remainFiftyOPool, odividentPayoutPercentage) */\n      jump\t// in\n    tag_559:\n        /* \"DripWarrior/poolContract.sol\":9529:9629  uint256 dividentPayoutOPoolAmount = calculatePercentage(remainFiftyOPool, odividentPayoutPercentage) */\n      swap1\n      pop\n        /* \"DripWarrior/poolContract.sol\":9639:9675  uint256 fifteenPercenntToTPoolAmount */\n      0x00\n        /* \"DripWarrior/poolContract.sol\":9678:9741  calculatePercentage(remainFiftyOPool, flowToTreasuryPercentage) */\n      tag_560\n        /* \"DripWarrior/poolContract.sol\":9698:9714  remainFiftyOPool */\n      dup4\n        /* \"DripWarrior/poolContract.sol\":9716:9740  flowToTreasuryPercentage */\n      sload(0x06)\n        /* \"DripWarrior/poolContract.sol\":9678:9697  calculatePercentage */\n      tag_485\n        /* \"DripWarrior/poolContract.sol\":9678:9741  calculatePercentage(remainFiftyOPool, flowToTreasuryPercentage) */\n      jump\t// in\n    tag_560:\n        /* \"DripWarrior/poolContract.sol\":9639:9741  uint256 fifteenPercenntToTPoolAmount = calculatePercentage(remainFiftyOPool, flowToTreasuryPercentage) */\n      swap1\n      pop\n        /* \"DripWarrior/poolContract.sol\":9751:9787  uint256 tenPercenntToMaintenceAmount */\n      0x00\n        /* \"DripWarrior/poolContract.sol\":9790:9852  calculatePercentage(remainFiftyOPool, maintainceFeePercentage) */\n      tag_561\n        /* \"DripWarrior/poolContract.sol\":9810:9826  remainFiftyOPool */\n      dup5\n        /* \"DripWarrior/poolContract.sol\":9828:9851  maintainceFeePercentage */\n      sload(0x07)\n        /* \"DripWarrior/poolContract.sol\":9790:9809  calculatePercentage */\n      tag_485\n        /* \"DripWarrior/poolContract.sol\":9790:9852  calculatePercentage(remainFiftyOPool, maintainceFeePercentage) */\n      jump\t// in\n    tag_561:\n        /* \"DripWarrior/poolContract.sol\":9751:9852  uint256 tenPercenntToMaintenceAmount = calculatePercentage(remainFiftyOPool, maintainceFeePercentage) */\n      swap1\n      pop\n        /* \"DripWarrior/poolContract.sol\":9862:9892  uint256 remainFiftyTPoolAmount */\n      0x00\n        /* \"DripWarrior/poolContract.sol\":9895:9961  calculatePercentage(treasuryPoolAmount, tdividentPayoutPercentage) */\n      tag_562\n        /* \"DripWarrior/poolContract.sol\":9915:9933  treasuryPoolAmount */\n      sload(0x01)\n        /* \"DripWarrior/poolContract.sol\":9935:9960  tdividentPayoutPercentage */\n      sload(0x04)\n        /* \"DripWarrior/poolContract.sol\":9895:9914  calculatePercentage */\n      tag_485\n        /* \"DripWarrior/poolContract.sol\":9895:9961  calculatePercentage(treasuryPoolAmount, tdividentPayoutPercentage) */\n      jump\t// in\n    tag_562:\n        /* \"DripWarrior/poolContract.sol\":9862:9961  uint256 remainFiftyTPoolAmount = calculatePercentage(treasuryPoolAmount, tdividentPayoutPercentage) */\n      swap1\n      pop\n        /* \"DripWarrior/poolContract.sol\":9992:9993  0 */\n      0x00\n        /* \"DripWarrior/poolContract.sol\":9980:9989  noOfUsers */\n      sload(0x08)\n        /* \"DripWarrior/poolContract.sol\":9980:9993  noOfUsers > 0 */\n      gt\n        /* \"DripWarrior/poolContract.sol\":9972:10007  require(noOfUsers > 0, \"no users!\") */\n      tag_563\n      jumpi\n      mload(0x40)\n      0x08c379a000000000000000000000000000000000000000000000000000000000\n      dup2\n      mstore\n      0x04\n      add\n      tag_564\n      swap1\n      tag_565\n      jump\t// in\n    tag_564:\n      mload(0x40)\n      dup1\n      swap2\n      sub\n      swap1\n      revert\n    tag_563:\n        /* \"DripWarrior/poolContract.sol\":10026:10052  uint256 perPersonFromTPool */\n      0x00\n        /* \"DripWarrior/poolContract.sol\":10078:10087  noOfUsers */\n      sload(0x08)\n        /* \"DripWarrior/poolContract.sol\":10055:10077  remainFiftyTPoolAmount */\n      dup3\n        /* \"DripWarrior/poolContract.sol\":10055:10087  remainFiftyTPoolAmount/noOfUsers */\n      tag_566\n      swap2\n      swap1\n      tag_483\n      jump\t// in\n    tag_566:\n        /* \"DripWarrior/poolContract.sol\":10026:10087  uint256 perPersonFromTPool = remainFiftyTPoolAmount/noOfUsers */\n      swap1\n      pop\n        /* \"DripWarrior/poolContract.sol\":10161:10189  tenPercenntToMaintenceAmount */\n      dup3\n        /* \"DripWarrior/poolContract.sol\":10130:10158  fifteenPercenntToTPoolAmount */\n      dup5\n        /* \"DripWarrior/poolContract.sol\":10130:10189  fifteenPercenntToTPoolAmount + tenPercenntToMaintenceAmount */\n      tag_567\n      swap2\n      swap1\n      tag_297\n      jump\t// in\n    tag_567:\n        /* \"DripWarrior/poolContract.sol\":10106:10125  ownerShipPoolAmount */\n      0x02\n      0x00\n        /* \"DripWarrior/poolContract.sol\":10106:10190  ownerShipPoolAmount -= (fifteenPercenntToTPoolAmount + tenPercenntToMaintenceAmount) */\n      dup3\n      dup3\n      sload\n      tag_568\n      swap2\n      swap1\n      tag_266\n      jump\t// in\n    tag_568:\n      swap3\n      pop\n      pop\n      dup2\n      swap1\n      sstore\n      pop\n        /* \"DripWarrior/poolContract.sol\":10222:10250  fifteenPercenntToTPoolAmount */\n      dup4\n        /* \"DripWarrior/poolContract.sol\":10200:10218  treasuryPoolAmount */\n      0x01\n      0x00\n        /* \"DripWarrior/poolContract.sol\":10200:10250  treasuryPoolAmount += fifteenPercenntToTPoolAmount */\n      dup3\n      dup3\n      sload\n      tag_569\n      swap2\n      swap1\n      tag_297\n      jump\t// in\n    tag_569:\n      swap3\n      pop\n      pop\n      dup2\n      swap1\n      sstore\n      pop\n        /* \"DripWarrior/poolContract.sol\":10261:10273  bool success */\n      0x00\n        /* \"DripWarrior/poolContract.sol\":10276:10285  usdcToken */\n      dup1\n      0x00\n      swap1\n      sload\n      swap1\n      0x0100\n      exp\n      swap1\n      div\n      0xffffffffffffffffffffffffffffffffffffffff\n      and\n        /* \"DripWarrior/poolContract.sol\":10276:10294  usdcToken.transfer */\n      0xffffffffffffffffffffffffffffffffffffffff\n      and\n      0xa9059cbb\n        /* \"DripWarrior/poolContract.sol\":10295:10310  multisigAddress */\n      0x09\n      0x00\n      swap1\n      sload\n      swap1\n      0x0100\n      exp\n      swap1\n      div\n      0xffffffffffffffffffffffffffffffffffffffff\n      and\n        /* \"DripWarrior/poolContract.sol\":10312:10340  tenPercenntToMaintenceAmount */\n      dup7\n        /* \"DripWarrior/poolContract.sol\":10276:10341  usdcToken.transfer(multisigAddress, tenPercenntToMaintenceAmount) */\n      mload(0x40)\n      dup4\n      0xffffffff\n      and\n      0xe0\n      shl\n      dup2\n      mstore\n      0x04\n      add\n      tag_570\n      swap3\n      swap2\n      swap1\n      tag_324\n      jump\t// in\n    tag_570:\n      0x20\n      mload(0x40)\n      dup1\n      dup4\n      sub\n      dup2\n      0x00\n      dup8\n      gas\n      call\n      iszero\n      dup1\n      iszero\n      tag_572\n      jumpi\n      returndatasize\n      0x00\n      dup1\n      returndatacopy\n      revert(0x00, returndatasize)\n    tag_572:\n      pop\n      pop\n      pop\n      pop\n      mload(0x40)\n      returndatasize\n      not(0x1f)\n      0x1f\n      dup3\n      add\n      and\n      dup3\n      add\n      dup1\n      0x40\n      mstore\n      pop\n      dup2\n      add\n      swap1\n      tag_573\n      swap2\n      swap1\n      tag_303\n      jump\t// in\n    tag_573:\n        /* \"DripWarrior/poolContract.sol\":10261:10341  bool success = usdcToken.transfer(multisigAddress, tenPercenntToMaintenceAmount) */\n      swap1\n      pop\n        /* \"DripWarrior/poolContract.sol\":10355:10362  success */\n      dup1\n        /* \"DripWarrior/poolContract.sol\":10351:10418  if(!success){... */\n      tag_574\n      jumpi\n        /* \"DripWarrior/poolContract.sol\":10399:10406  success */\n      dup1\n        /* \"DripWarrior/poolContract.sol\":10384:10407  transferFailed(success) */\n      mload(0x40)\n      0xd85d3cef00000000000000000000000000000000000000000000000000000000\n      dup2\n      mstore\n      0x04\n      add\n      tag_575\n      swap2\n      swap1\n      tag_83\n      jump\t// in\n    tag_575:\n      mload(0x40)\n      dup1\n      swap2\n      sub\n      swap1\n      revert\n        /* \"DripWarrior/poolContract.sol\":10351:10418  if(!success){... */\n    tag_574:\n        /* \"DripWarrior/poolContract.sol\":10436:10452  remainFiftyOPool */\n      dup7\n        /* \"DripWarrior/poolContract.sol\":10453:10478  dividentPayoutOPoolAmount */\n      dup7\n        /* \"DripWarrior/poolContract.sol\":10479:10497  perPersonFromTPool */\n      dup4\n        /* \"DripWarrior/poolContract.sol\":10428:10498  return (remainFiftyOPool,dividentPayoutOPoolAmount,perPersonFromTPool) */\n      swap10\n      pop\n      swap10\n      pop\n      swap10\n      pop\n      pop\n      pop\n      pop\n      pop\n      pop\n      pop\n      pop\n        /* \"DripWarrior/poolContract.sol\":9354:10505  function perPoolCalculation() private returns(uint256, uint256,uint256){... */\n      swap1\n      swap2\n      swap3\n      jump\t// out\n        /* \"DripWarrior/poolContract.sol\":12514:12911  function calculatePercentage(uint256 _totalStakeAmount,uint256 percentageNumber) private pure returns(uint256) {... */\n    tag_485:\n        /* \"DripWarrior/poolContract.sol\":12616:12623  uint256 */\n      0x00\n        /* \"DripWarrior/poolContract.sol\":12672:12673  0 */\n      dup1\n        /* \"DripWarrior/poolContract.sol\":12652:12669  _totalStakeAmount */\n      dup4\n        /* \"DripWarrior/poolContract.sol\":12652:12673  _totalStakeAmount !=0 */\n      sub\n        /* \"DripWarrior/poolContract.sol\":12644:12712  require(_totalStakeAmount !=0 , \"_totalStakeAmount can not be zero\") */\n      tag_577\n      jumpi\n      mload(0x40)\n      0x08c379a000000000000000000000000000000000000000000000000000000000\n      dup2\n      mstore\n      0x04\n      add\n      tag_578\n      swap1\n      tag_579\n      jump\t// in\n    tag_578:\n      mload(0x40)\n      dup1\n      swap2\n      sub\n      swap1\n      revert\n    tag_577:\n        /* \"DripWarrior/poolContract.sol\":12749:12750  0 */\n      0x00\n        /* \"DripWarrior/poolContract.sol\":12730:12746  percentageNumber */\n      dup3\n        /* \"DripWarrior/poolContract.sol\":12730:12750  percentageNumber !=0 */\n      sub\n        /* \"DripWarrior/poolContract.sol\":12722:12789  require(percentageNumber !=0 , \"_totalStakeAmount can not be zero\") */\n      tag_580\n      jumpi\n      mload(0x40)\n      0x08c379a000000000000000000000000000000000000000000000000000000000\n      dup2\n      mstore\n      0x04\n      add\n      tag_581\n      swap1\n      tag_579\n      jump\t// in\n    tag_581:\n      mload(0x40)\n      dup1\n      swap2\n      sub\n      swap1\n      revert\n    tag_580:\n        /* \"DripWarrior/poolContract.sol\":12799:12817  uint256 serviceFee */\n      0x00\n        /* \"DripWarrior/poolContract.sol\":12862:12867  10000 */\n      0x2710\n        /* \"DripWarrior/poolContract.sol\":12841:12857  percentageNumber */\n      dup4\n        /* \"DripWarrior/poolContract.sol\":12820:12837  _totalStakeAmount */\n      dup6\n        /* \"DripWarrior/poolContract.sol\":12820:12858  _totalStakeAmount * (percentageNumber) */\n      tag_582\n      swap2\n      swap1\n      tag_481\n      jump\t// in\n    tag_582:\n        /* \"DripWarrior/poolContract.sol\":12820:12868  _totalStakeAmount * (percentageNumber) / (10000) */\n      tag_583\n      swap2\n      swap1\n      tag_483\n      jump\t// in\n    tag_583:\n        /* \"DripWarrior/poolContract.sol\":12799:12868  uint256 serviceFee = _totalStakeAmount * (percentageNumber) / (10000) */\n      swap1\n      pop\n        /* \"DripWarrior/poolContract.sol\":12894:12904  serviceFee */\n      dup1\n        /* \"DripWarrior/poolContract.sol\":12887:12904  return serviceFee */\n      swap2\n      pop\n      pop\n        /* \"DripWarrior/poolContract.sol\":12514:12911  function calculatePercentage(uint256 _totalStakeAmount,uint256 percentageNumber) private pure returns(uint256) {... */\n      swap3\n      swap2\n      pop\n      pop\n      jump\t// out\n        /* \"@openzeppelin/contracts-upgradeable/utils/ContextUpgradeable.sol\":887:983  function _msgSender() internal view virtual returns (address) {... */\n    tag_509:\n        /* \"@openzeppelin/contracts-upgradeable/utils/ContextUpgradeable.sol\":940:947  address */\n      0x00\n        /* \"@openzeppelin/contracts-upgradeable/utils/ContextUpgradeable.sol\":966:976  msg.sender */\n      caller\n        /* \"@openzeppelin/contracts-upgradeable/utils/ContextUpgradeable.sol\":959:976  return msg.sender */\n      swap1\n      pop\n        /* \"@openzeppelin/contracts-upgradeable/utils/ContextUpgradeable.sol\":887:983  function _msgSender() internal view virtual returns (address) {... */\n      swap1\n      jump\t// out\n        /* \"@openzeppelin/contracts/proxy/ERC1967/ERC1967Utils.sol\":1957:2095  function getImplementation() internal view returns (address) {... */\n    tag_517:\n        /* \"@openzeppelin/contracts/proxy/ERC1967/ERC1967Utils.sol\":2009:2016  address */\n      0x00\n        /* \"@openzeppelin/contracts/proxy/ERC1967/ERC1967Utils.sol\":2035:2082  StorageSlot.getAddressSlot(IMPLEMENTATION_SLOT) */\n      tag_586\n        /* \"@openzeppelin/contracts/proxy/ERC1967/ERC1967Utils.sol\":1327:1393  0x360894a13ba1a3210667c828492db98dca3e2076cc3735a920a3ca505d382bbc */\n      0x360894a13ba1a3210667c828492db98dca3e2076cc3735a920a3ca505d382bbc\n        /* \"@openzeppelin/contracts/proxy/ERC1967/ERC1967Utils.sol\":2062:2081  IMPLEMENTATION_SLOT */\n      0x00\n      shl\n        /* \"@openzeppelin/contracts/proxy/ERC1967/ERC1967Utils.sol\":2035:2061  StorageSlot.getAddressSlot */\n      tag_587\n        /* \"@openzeppelin/contracts/proxy/ERC1967/ERC1967Utils.sol\":2035:2082  StorageSlot.getAddressSlot(IMPLEMENTATION_SLOT) */\n      jump\t// in\n    tag_586:\n        /* \"@openzeppelin/contracts/proxy/ERC1967/ERC1967Utils.sol\":2035:2088  StorageSlot.getAddressSlot(IMPLEMENTATION_SLOT).value */\n      0x00\n      add\n      0x00\n      swap1\n      sload\n      swap1\n      0x0100\n      exp\n      swap1\n      div\n      0xffffffffffffffffffffffffffffffffffffffff\n      and\n        /* \"@openzeppelin/contracts/proxy/ERC1967/ERC1967Utils.sol\":2028:2088  return StorageSlot.getAddressSlot(IMPLEMENTATION_SLOT).value */\n      swap1\n      pop\n        /* \"@openzeppelin/contracts/proxy/ERC1967/ERC1967Utils.sol\":1957:2095  function getImplementation() internal view returns (address) {... */\n      swap1\n      jump\t// out\n        /* \"@openzeppelin/contracts/proxy/ERC1967/ERC1967Utils.sol\":2779:3114  function upgradeToAndCall(address newImplementation, bytes memory data) internal {... */\n    tag_535:\n        /* \"@openzeppelin/contracts/proxy/ERC1967/ERC1967Utils.sol\":2870:2907  _setImplementation(newImplementation) */\n      tag_589\n        /* \"@openzeppelin/contracts/proxy/ERC1967/ERC1967Utils.sol\":2889:2906  newImplementation */\n      dup3\n        /* \"@openzeppelin/contracts/proxy/ERC1967/ERC1967Utils.sol\":2870:2888  _setImplementation */\n      tag_590\n        /* \"@openzeppelin/contracts/proxy/ERC1967/ERC1967Utils.sol\":2870:2907  _setImplementation(newImplementation) */\n      jump\t// in\n    tag_589:\n        /* \"@openzeppelin/contracts/proxy/ERC1967/ERC1967Utils.sol\":2931:2948  newImplementation */\n      dup2\n        /* \"@openzeppelin/contracts/proxy/ERC1967/ERC1967Utils.sol\":2922:2949  Upgraded(newImplementation) */\n      0xffffffffffffffffffffffffffffffffffffffff\n      and\n      0xbc7cd75a20ee27fd9adebab32041f755214dbc6bffa90cc0225b39da2e5c2d3b\n      mload(0x40)\n      mload(0x40)\n      dup1\n      swap2\n      sub\n      swap1\n      log2\n        /* \"@openzeppelin/contracts/proxy/ERC1967/ERC1967Utils.sol\":2978:2979  0 */\n      0x00\n        /* \"@openzeppelin/contracts/proxy/ERC1967/ERC1967Utils.sol\":2964:2968  data */\n      dup2\n        /* \"@openzeppelin/contracts/proxy/ERC1967/ERC1967Utils.sol\":2964:2975  data.length */\n      mload\n        /* \"@openzeppelin/contracts/proxy/ERC1967/ERC1967Utils.sol\":2964:2979  data.length > 0 */\n      gt\n        /* \"@openzeppelin/contracts/proxy/ERC1967/ERC1967Utils.sol\":2960:3108  if (data.length > 0) {... */\n      iszero\n      tag_591\n      jumpi\n        /* \"@openzeppelin/contracts/proxy/ERC1967/ERC1967Utils.sol\":2995:3048  Address.functionDelegateCall(newImplementation, data) */\n      tag_592\n        /* \"@openzeppelin/contracts/proxy/ERC1967/ERC1967Utils.sol\":3024:3041  newImplementation */\n      dup3\n        /* \"@openzeppelin/contracts/proxy/ERC1967/ERC1967Utils.sol\":3043:3047  data */\n      dup3\n        /* \"@openzeppelin/contracts/proxy/ERC1967/ERC1967Utils.sol\":2995:3023  Address.functionDelegateCall */\n      tag_593\n        /* \"@openzeppelin/contracts/proxy/ERC1967/ERC1967Utils.sol\":2995:3048  Address.functionDelegateCall(newImplementation, data) */\n      jump\t// in\n    tag_592:\n      pop\n        /* \"@openzeppelin/contracts/proxy/ERC1967/ERC1967Utils.sol\":2960:3108  if (data.length > 0) {... */\n      jump(tag_594)\n    tag_591:\n        /* \"@openzeppelin/contracts/proxy/ERC1967/ERC1967Utils.sol\":3079:3097  _checkNonPayable() */\n      tag_595\n        /* \"@openzeppelin/contracts/proxy/ERC1967/ERC1967Utils.sol\":3079:3095  _checkNonPayable */\n      tag_596\n        /* \"@openzeppelin/contracts/proxy/ERC1967/ERC1967Utils.sol\":3079:3097  _checkNonPayable() */\n      jump\t// in\n    tag_595:\n        /* \"@openzeppelin/contracts/proxy/ERC1967/ERC1967Utils.sol\":2960:3108  if (data.length > 0) {... */\n    tag_594:\n        /* \"@openzeppelin/contracts/proxy/ERC1967/ERC1967Utils.sol\":2779:3114  function upgradeToAndCall(address newImplementation, bytes memory data) internal {... */\n      pop\n      pop\n      jump\t// out\n        /* \"@openzeppelin/contracts-upgradeable/proxy/utils/Initializable.sol\":7084:7225  function _checkInitializing() internal view virtual {... */\n    tag_550:\n        /* \"@openzeppelin/contracts-upgradeable/proxy/utils/Initializable.sol\":7151:7168  _isInitializing() */\n      tag_598\n        /* \"@openzeppelin/contracts-upgradeable/proxy/utils/Initializable.sol\":7151:7166  _isInitializing */\n      tag_599\n        /* \"@openzeppelin/contracts-upgradeable/proxy/utils/Initializable.sol\":7151:7168  _isInitializing() */\n      jump\t// in\n    tag_598:\n        /* \"@openzeppelin/contracts-upgradeable/proxy/utils/Initializable.sol\":7146:7219  if (!_isInitializing()) {... */\n      tag_600\n      jumpi\n        /* \"@openzeppelin/contracts-upgradeable/proxy/utils/Initializable.sol\":7191:7208  NotInitializing() */\n      mload(0x40)\n      0xd7e6bcf800000000000000000000000000000000000000000000000000000000\n      dup2\n      mstore\n      0x04\n      add\n      mload(0x40)\n      dup1\n      swap2\n      sub\n      swap1\n      revert\n        /* \"@openzeppelin/contracts-upgradeable/proxy/utils/Initializable.sol\":7146:7219  if (!_isInitializing()) {... */\n    tag_600:\n        /* \"@openzeppelin/contracts-upgradeable/proxy/utils/Initializable.sol\":7084:7225  function _checkInitializing() internal view virtual {... */\n      jump\t// out\n        /* \"@openzeppelin/contracts-upgradeable/access/OwnableUpgradeable.sol\":1980:2215  function __Ownable_init_unchained(address initialOwner) internal onlyInitializing {... */\n    tag_553:\n        /* \"@openzeppelin/contracts-upgradeable/proxy/utils/Initializable.sol\":6931:6951  _checkInitializing() */\n      tag_602\n        /* \"@openzeppelin/contracts-upgradeable/proxy/utils/Initializable.sol\":6931:6949  _checkInitializing */\n      tag_550\n        /* \"@openzeppelin/contracts-upgradeable/proxy/utils/Initializable.sol\":6931:6951  _checkInitializing() */\n      jump\t// in\n    tag_602:\n        /* \"@openzeppelin/contracts-upgradeable/access/OwnableUpgradeable.sol\":2100:2101  0 */\n      0x00\n        /* \"@openzeppelin/contracts-upgradeable/access/OwnableUpgradeable.sol\":2076:2102  initialOwner == address(0) */\n      0xffffffffffffffffffffffffffffffffffffffff\n      and\n        /* \"@openzeppelin/contracts-upgradeable/access/OwnableUpgradeable.sol\":2076:2088  initialOwner */\n      dup2\n        /* \"@openzeppelin/contracts-upgradeable/access/OwnableUpgradeable.sol\":2076:2102  initialOwner == address(0) */\n      0xffffffffffffffffffffffffffffffffffffffff\n      and\n      sub\n        /* \"@openzeppelin/contracts-upgradeable/access/OwnableUpgradeable.sol\":2072:2167  if (initialOwner == address(0)) {... */\n      tag_604\n      jumpi\n        /* \"@openzeppelin/contracts-upgradeable/access/OwnableUpgradeable.sol\":2153:2154  0 */\n      0x00\n        /* \"@openzeppelin/contracts-upgradeable/access/OwnableUpgradeable.sol\":2125:2156  OwnableInvalidOwner(address(0)) */\n      mload(0x40)\n      0x1e4fbdf700000000000000000000000000000000000000000000000000000000\n      dup2\n      mstore\n      0x04\n      add\n      tag_605\n      swap2\n      swap1\n      tag_78\n      jump\t// in\n    tag_605:\n      mload(0x40)\n      dup1\n      swap2\n      sub\n      swap1\n      revert\n        /* \"@openzeppelin/contracts-upgradeable/access/OwnableUpgradeable.sol\":2072:2167  if (initialOwner == address(0)) {... */\n    tag_604:\n        /* \"@openzeppelin/contracts-upgradeable/access/OwnableUpgradeable.sol\":2176:2208  _transferOwnership(initialOwner) */\n      tag_606\n        /* \"@openzeppelin/contracts-upgradeable/access/OwnableUpgradeable.sol\":2195:2207  initialOwner */\n      dup2\n        /* \"@openzeppelin/contracts-upgradeable/access/OwnableUpgradeable.sol\":2176:2194  _transferOwnership */\n      tag_350\n        /* \"@openzeppelin/contracts-upgradeable/access/OwnableUpgradeable.sol\":2176:2208  _transferOwnership(initialOwner) */\n      jump\t// in\n    tag_606:\n        /* \"@openzeppelin/contracts-upgradeable/access/OwnableUpgradeable.sol\":1980:2215  function __Ownable_init_unchained(address initialOwner) internal onlyInitializing {... */\n      pop\n      jump\t// out\n        /* \"@openzeppelin/contracts/utils/StorageSlot.sol\":1684:1874  function getAddressSlot(bytes32 slot) internal pure returns (AddressSlot storage r) {... */\n    tag_587:\n        /* \"@openzeppelin/contracts/utils/StorageSlot.sol\":1745:1766  AddressSlot storage r */\n      0x00\n        /* \"@openzeppelin/contracts/utils/StorageSlot.sol\":1854:1858  slot */\n      dup2\n        /* \"@openzeppelin/contracts/utils/StorageSlot.sol\":1844:1858  r.slot := slot */\n      swap1\n      pop\n        /* \"@openzeppelin/contracts/utils/StorageSlot.sol\":1684:1874  function getAddressSlot(bytes32 slot) internal pure returns (AddressSlot storage r) {... */\n      swap2\n      swap1\n      pop\n      jump\t// out\n        /* \"@openzeppelin/contracts/proxy/ERC1967/ERC1967Utils.sol\":2186:2467  function _setImplementation(address newImplementation) private {... */\n    tag_590:\n        /* \"@openzeppelin/contracts/proxy/ERC1967/ERC1967Utils.sol\":2296:2297  0 */\n      0x00\n        /* \"@openzeppelin/contracts/proxy/ERC1967/ERC1967Utils.sol\":2263:2280  newImplementation */\n      dup2\n        /* \"@openzeppelin/contracts/proxy/ERC1967/ERC1967Utils.sol\":2263:2292  newImplementation.code.length */\n      0xffffffffffffffffffffffffffffffffffffffff\n      and\n      extcodesize\n        /* \"@openzeppelin/contracts/proxy/ERC1967/ERC1967Utils.sol\":2263:2297  newImplementation.code.length == 0 */\n      sub\n        /* \"@openzeppelin/contracts/proxy/ERC1967/ERC1967Utils.sol\":2259:2378  if (newImplementation.code.length == 0) {... */\n      tag_609\n      jumpi\n        /* \"@openzeppelin/contracts/proxy/ERC1967/ERC1967Utils.sol\":2349:2366  newImplementation */\n      dup1\n        /* \"@openzeppelin/contracts/proxy/ERC1967/ERC1967Utils.sol\":2320:2367  ERC1967InvalidImplementation(newImplementation) */\n      mload(0x40)\n      0x4c9c8ce300000000000000000000000000000000000000000000000000000000\n      dup2\n      mstore\n      0x04\n      add\n      tag_610\n      swap2\n      swap1\n      tag_78\n      jump\t// in\n    tag_610:\n      mload(0x40)\n      dup1\n      swap2\n      sub\n      swap1\n      revert\n        /* \"@openzeppelin/contracts/proxy/ERC1967/ERC1967Utils.sol\":2259:2378  if (newImplementation.code.length == 0) {... */\n    tag_609:\n        /* \"@openzeppelin/contracts/proxy/ERC1967/ERC1967Utils.sol\":2443:2460  newImplementation */\n      dup1\n        /* \"@openzeppelin/contracts/proxy/ERC1967/ERC1967Utils.sol\":2387:2434  StorageSlot.getAddressSlot(IMPLEMENTATION_SLOT) */\n      tag_611\n        /* \"@openzeppelin/contracts/proxy/ERC1967/ERC1967Utils.sol\":1327:1393  0x360894a13ba1a3210667c828492db98dca3e2076cc3735a920a3ca505d382bbc */\n      0x360894a13ba1a3210667c828492db98dca3e2076cc3735a920a3ca505d382bbc\n        /* \"@openzeppelin/contracts/proxy/ERC1967/ERC1967Utils.sol\":2414:2433  IMPLEMENTATION_SLOT */\n      0x00\n      shl\n        /* \"@openzeppelin/contracts/proxy/ERC1967/ERC1967Utils.sol\":2387:2413  StorageSlot.getAddressSlot */\n      tag_587\n        /* \"@openzeppelin/contracts/proxy/ERC1967/ERC1967Utils.sol\":2387:2434  StorageSlot.getAddressSlot(IMPLEMENTATION_SLOT) */\n      jump\t// in\n    tag_611:\n        /* \"@openzeppelin/contracts/proxy/ERC1967/ERC1967Utils.sol\":2387:2440  StorageSlot.getAddressSlot(IMPLEMENTATION_SLOT).value */\n      0x00\n      add\n      0x00\n        /* \"@openzeppelin/contracts/proxy/ERC1967/ERC1967Utils.sol\":2387:2460  StorageSlot.getAddressSlot(IMPLEMENTATION_SLOT).value = newImplementation */\n      0x0100\n      exp\n      dup2\n      sload\n      dup2\n      0xffffffffffffffffffffffffffffffffffffffff\n      mul\n      not\n      and\n      swap1\n      dup4\n      0xffffffffffffffffffffffffffffffffffffffff\n      and\n      mul\n      or\n      swap1\n      sstore\n      pop\n        /* \"@openzeppelin/contracts/proxy/ERC1967/ERC1967Utils.sol\":2186:2467  function _setImplementation(address newImplementation) private {... */\n      pop\n      jump\t// out\n        /* \"@openzeppelin/contracts/utils/Address.sol\":4106:4359  function functionDelegateCall(address target, bytes memory data) internal returns (bytes memory) {... */\n    tag_593:\n        /* \"@openzeppelin/contracts/utils/Address.sol\":4189:4201  bytes memory */\n      0x60\n        /* \"@openzeppelin/contracts/utils/Address.sol\":4214:4226  bool success */\n      0x00\n        /* \"@openzeppelin/contracts/utils/Address.sol\":4228:4251  bytes memory returndata */\n      dup1\n        /* \"@openzeppelin/contracts/utils/Address.sol\":4255:4261  target */\n      dup5\n        /* \"@openzeppelin/contracts/utils/Address.sol\":4255:4274  target.delegatecall */\n      0xffffffffffffffffffffffffffffffffffffffff\n      and\n        /* \"@openzeppelin/contracts/utils/Address.sol\":4275:4279  data */\n      dup5\n        /* \"@openzeppelin/contracts/utils/Address.sol\":4255:4280  target.delegatecall(data) */\n      mload(0x40)\n      tag_613\n      swap2\n      swap1\n      tag_614\n      jump\t// in\n    tag_613:\n      0x00\n      mload(0x40)\n      dup1\n      dup4\n      sub\n      dup2\n      dup6\n      gas\n      delegatecall\n      swap2\n      pop\n      pop\n      returndatasize\n      dup1\n      0x00\n      dup2\n      eq\n      tag_617\n      jumpi\n      mload(0x40)\n      swap2\n      pop\n      and(add(returndatasize, 0x3f), not(0x1f))\n      dup3\n      add\n      0x40\n      mstore\n      returndatasize\n      dup3\n      mstore\n      returndatasize\n      0x00\n      0x20\n      dup5\n      add\n      returndatacopy\n      jump(tag_616)\n    tag_617:\n      0x60\n      swap2\n      pop\n    tag_616:\n      pop\n        /* \"@openzeppelin/contracts/utils/Address.sol\":4213:4280  (bool success, bytes memory returndata) = target.delegatecall(data) */\n      swap2\n      pop\n      swap2\n      pop\n        /* \"@openzeppelin/contracts/utils/Address.sol\":4297:4352  verifyCallResultFromTarget(target, success, returndata) */\n      tag_618\n        /* \"@openzeppelin/contracts/utils/Address.sol\":4324:4330  target */\n      dup6\n        /* \"@openzeppelin/contracts/utils/Address.sol\":4332:4339  success */\n      dup4\n        /* \"@openzeppelin/contracts/utils/Address.sol\":4341:4351  returndata */\n      dup4\n        /* \"@openzeppelin/contracts/utils/Address.sol\":4297:4323  verifyCallResultFromTarget */\n      tag_619\n        /* \"@openzeppelin/contracts/utils/Address.sol\":4297:4352  verifyCallResultFromTarget(target, success, returndata) */\n      jump\t// in\n    tag_618:\n        /* \"@openzeppelin/contracts/utils/Address.sol\":4290:4352  return verifyCallResultFromTarget(target, success, returndata) */\n      swap3\n      pop\n      pop\n      pop\n        /* \"@openzeppelin/contracts/utils/Address.sol\":4106:4359  function functionDelegateCall(address target, bytes memory data) internal returns (bytes memory) {... */\n      swap3\n      swap2\n      pop\n      pop\n      jump\t// out\n        /* \"@openzeppelin/contracts/proxy/ERC1967/ERC1967Utils.sol\":6598:6720  function _checkNonPayable() private {... */\n    tag_596:\n        /* \"@openzeppelin/contracts/proxy/ERC1967/ERC1967Utils.sol\":6660:6661  0 */\n      0x00\n        /* \"@openzeppelin/contracts/proxy/ERC1967/ERC1967Utils.sol\":6648:6657  msg.value */\n      callvalue\n        /* \"@openzeppelin/contracts/proxy/ERC1967/ERC1967Utils.sol\":6648:6661  msg.value > 0 */\n      gt\n        /* \"@openzeppelin/contracts/proxy/ERC1967/ERC1967Utils.sol\":6644:6714  if (msg.value > 0) {... */\n      iszero\n      tag_621\n      jumpi\n        /* \"@openzeppelin/contracts/proxy/ERC1967/ERC1967Utils.sol\":6684:6703  ERC1967NonPayable() */\n      mload(0x40)\n      0xb398979f00000000000000000000000000000000000000000000000000000000\n      dup2\n      mstore\n      0x04\n      add\n      mload(0x40)\n      dup1\n      swap2\n      sub\n      swap1\n      revert\n        /* \"@openzeppelin/contracts/proxy/ERC1967/ERC1967Utils.sol\":6644:6714  if (msg.value > 0) {... */\n    tag_621:\n        /* \"@openzeppelin/contracts/proxy/ERC1967/ERC1967Utils.sol\":6598:6720  function _checkNonPayable() private {... */\n      jump\t// out\n        /* \"@openzeppelin/contracts-upgradeable/proxy/utils/Initializable.sol\":8487:8607  function _isInitializing() internal view returns (bool) {... */\n    tag_599:\n        /* \"@openzeppelin/contracts-upgradeable/proxy/utils/Initializable.sol\":8537:8541  bool */\n      0x00\n        /* \"@openzeppelin/contracts-upgradeable/proxy/utils/Initializable.sol\":8560:8586  _getInitializableStorage() */\n      tag_623\n        /* \"@openzeppelin/contracts-upgradeable/proxy/utils/Initializable.sol\":8560:8584  _getInitializableStorage */\n      tag_436\n        /* \"@openzeppelin/contracts-upgradeable/proxy/utils/Initializable.sol\":8560:8586  _getInitializableStorage() */\n      jump\t// in\n    tag_623:\n        /* \"@openzeppelin/contracts-upgradeable/proxy/utils/Initializable.sol\":8560:8600  _getInitializableStorage()._initializing */\n      0x00\n      add\n      0x08\n      swap1\n      sload\n      swap1\n      0x0100\n      exp\n      swap1\n      div\n      0xff\n      and\n        /* \"@openzeppelin/contracts-upgradeable/proxy/utils/Initializable.sol\":8553:8600  return _getInitializableStorage()._initializing */\n      swap1\n      pop\n        /* \"@openzeppelin/contracts-upgradeable/proxy/utils/Initializable.sol\":8487:8607  function _isInitializing() internal view returns (bool) {... */\n      swap1\n      jump\t// out\n        /* \"@openzeppelin/contracts/utils/Address.sol\":4625:5207  function verifyCallResultFromTarget(... */\n    tag_619:\n        /* \"@openzeppelin/contracts/utils/Address.sol\":4769:4781  bytes memory */\n      0x60\n        /* \"@openzeppelin/contracts/utils/Address.sol\":4798:4805  success */\n      dup3\n        /* \"@openzeppelin/contracts/utils/Address.sol\":4793:5201  if (!success) {... */\n      tag_625\n      jumpi\n        /* \"@openzeppelin/contracts/utils/Address.sol\":4821:4840  _revert(returndata) */\n      tag_626\n        /* \"@openzeppelin/contracts/utils/Address.sol\":4829:4839  returndata */\n      dup3\n        /* \"@openzeppelin/contracts/utils/Address.sol\":4821:4828  _revert */\n      tag_627\n        /* \"@openzeppelin/contracts/utils/Address.sol\":4821:4840  _revert(returndata) */\n      jump\t// in\n    tag_626:\n        /* \"@openzeppelin/contracts/utils/Address.sol\":4793:5201  if (!success) {... */\n      jump(tag_628)\n    tag_625:\n        /* \"@openzeppelin/contracts/utils/Address.sol\":5066:5067  0 */\n      0x00\n        /* \"@openzeppelin/contracts/utils/Address.sol\":5045:5055  returndata */\n      dup3\n        /* \"@openzeppelin/contracts/utils/Address.sol\":5045:5062  returndata.length */\n      mload\n        /* \"@openzeppelin/contracts/utils/Address.sol\":5045:5067  returndata.length == 0 */\n      eq\n        /* \"@openzeppelin/contracts/utils/Address.sol\":5045:5094  returndata.length == 0 && target.code.length == 0 */\n      dup1\n      iszero\n      tag_629\n      jumpi\n      pop\n        /* \"@openzeppelin/contracts/utils/Address.sol\":5093:5094  0 */\n      0x00\n        /* \"@openzeppelin/contracts/utils/Address.sol\":5071:5077  target */\n      dup5\n        /* \"@openzeppelin/contracts/utils/Address.sol\":5071:5089  target.code.length */\n      0xffffffffffffffffffffffffffffffffffffffff\n      and\n      extcodesize\n        /* \"@openzeppelin/contracts/utils/Address.sol\":5071:5094  target.code.length == 0 */\n      eq\n        /* \"@openzeppelin/contracts/utils/Address.sol\":5045:5094  returndata.length == 0 && target.code.length == 0 */\n    tag_629:\n        /* \"@openzeppelin/contracts/utils/Address.sol\":5041:5160  if (returndata.length == 0 && target.code.length == 0) {... */\n      iszero\n      tag_630\n      jumpi\n        /* \"@openzeppelin/contracts/utils/Address.sol\":5138:5144  target */\n      dup4\n        /* \"@openzeppelin/contracts/utils/Address.sol\":5121:5145  AddressEmptyCode(target) */\n      mload(0x40)\n      0x9996b31500000000000000000000000000000000000000000000000000000000\n      dup2\n      mstore\n      0x04\n      add\n      tag_631\n      swap2\n      swap1\n      tag_78\n      jump\t// in\n    tag_631:\n      mload(0x40)\n      dup1\n      swap2\n      sub\n      swap1\n      revert\n        /* \"@openzeppelin/contracts/utils/Address.sol\":5041:5160  if (returndata.length == 0 && target.code.length == 0) {... */\n    tag_630:\n        /* \"@openzeppelin/contracts/utils/Address.sol\":5180:5190  returndata */\n      dup2\n        /* \"@openzeppelin/contracts/utils/Address.sol\":5173:5190  return returndata */\n      swap1\n      pop\n      jump(tag_624)\n        /* \"@openzeppelin/contracts/utils/Address.sol\":4793:5201  if (!success) {... */\n    tag_628:\n        /* \"@openzeppelin/contracts/utils/Address.sol\":4625:5207  function verifyCallResultFromTarget(... */\n    tag_624:\n      swap4\n      swap3\n      pop\n      pop\n      pop\n      jump\t// out\n        /* \"@openzeppelin/contracts/utils/Address.sol\":5743:6259  function _revert(bytes memory returndata) private pure {... */\n    tag_627:\n        /* \"@openzeppelin/contracts/utils/Address.sol\":5894:5895  0 */\n      0x00\n        /* \"@openzeppelin/contracts/utils/Address.sol\":5874:5884  returndata */\n      dup2\n        /* \"@openzeppelin/contracts/utils/Address.sol\":5874:5891  returndata.length */\n      mload\n        /* \"@openzeppelin/contracts/utils/Address.sol\":5874:5895  returndata.length > 0 */\n      gt\n        /* \"@openzeppelin/contracts/utils/Address.sol\":5870:6253  if (returndata.length > 0) {... */\n      iszero\n      tag_633\n      jumpi\n        /* \"@openzeppelin/contracts/utils/Address.sol\":6102:6112  returndata */\n      dup1\n        /* \"@openzeppelin/contracts/utils/Address.sol\":6096:6113  mload(returndata) */\n      mload\n        /* \"@openzeppelin/contracts/utils/Address.sol\":6158:6173  returndata_size */\n      dup1\n        /* \"@openzeppelin/contracts/utils/Address.sol\":6145:6155  returndata */\n      dup3\n        /* \"@openzeppelin/contracts/utils/Address.sol\":6141:6143  32 */\n      0x20\n        /* \"@openzeppelin/contracts/utils/Address.sol\":6137:6156  add(32, returndata) */\n      add\n        /* \"@openzeppelin/contracts/utils/Address.sol\":6130:6174  revert(add(32, returndata), returndata_size) */\n      revert\n        /* \"@openzeppelin/contracts/utils/Address.sol\":5870:6253  if (returndata.length > 0) {... */\n    tag_633:\n        /* \"@openzeppelin/contracts/utils/Address.sol\":6225:6242  FailedInnerCall() */\n      mload(0x40)\n      0x1425ea4200000000000000000000000000000000000000000000000000000000\n      dup2\n      mstore\n      0x04\n      add\n      mload(0x40)\n      dup1\n      swap2\n      sub\n      swap1\n      revert\n        /* \"#utility.yul\":7:84   */\n    tag_635:\n        /* \"#utility.yul\":44:51   */\n      0x00\n        /* \"#utility.yul\":73:78   */\n      dup2\n        /* \"#utility.yul\":62:78   */\n      swap1\n      pop\n        /* \"#utility.yul\":7:84   */\n      swap2\n      swap1\n      pop\n      jump\t// out\n        /* \"#utility.yul\":90:208   */\n    tag_636:\n        /* \"#utility.yul\":177:201   */\n      tag_706\n        /* \"#utility.yul\":195:200   */\n      dup2\n        /* \"#utility.yul\":177:201   */\n      tag_635\n      jump\t// in\n    tag_706:\n        /* \"#utility.yul\":172:175   */\n      dup3\n        /* \"#utility.yul\":165:202   */\n      mstore\n        /* \"#utility.yul\":90:208   */\n      pop\n      pop\n      jump\t// out\n        /* \"#utility.yul\":214:436   */\n    tag_59:\n        /* \"#utility.yul\":307:311   */\n      0x00\n        /* \"#utility.yul\":345:347   */\n      0x20\n        /* \"#utility.yul\":334:343   */\n      dup3\n        /* \"#utility.yul\":330:348   */\n      add\n        /* \"#utility.yul\":322:348   */\n      swap1\n      pop\n        /* \"#utility.yul\":358:429   */\n      tag_708\n        /* \"#utility.yul\":426:427   */\n      0x00\n        /* \"#utility.yul\":415:424   */\n      dup4\n        /* \"#utility.yul\":411:428   */\n      add\n        /* \"#utility.yul\":402:408   */\n      dup5\n        /* \"#utility.yul\":358:429   */\n      tag_636\n      jump\t// in\n    tag_708:\n        /* \"#utility.yul\":214:436   */\n      swap3\n      swap2\n      pop\n      pop\n      jump\t// out\n        /* \"#utility.yul\":442:568   */\n    tag_637:\n        /* \"#utility.yul\":479:486   */\n      0x00\n        /* \"#utility.yul\":519:561   */\n      0xffffffffffffffffffffffffffffffffffffffff\n        /* \"#utility.yul\":512:517   */\n      dup3\n        /* \"#utility.yul\":508:562   */\n      and\n        /* \"#utility.yul\":497:562   */\n      swap1\n      pop\n        /* \"#utility.yul\":442:568   */\n      swap2\n      swap1\n      pop\n      jump\t// out\n        /* \"#utility.yul\":574:634   */\n    tag_638:\n        /* \"#utility.yul\":602:605   */\n      0x00\n        /* \"#utility.yul\":623:628   */\n      dup2\n        /* \"#utility.yul\":616:628   */\n      swap1\n      pop\n        /* \"#utility.yul\":574:634   */\n      swap2\n      swap1\n      pop\n      jump\t// out\n        /* \"#utility.yul\":640:782   */\n    tag_639:\n        /* \"#utility.yul\":690:699   */\n      0x00\n        /* \"#utility.yul\":723:776   */\n      tag_712\n        /* \"#utility.yul\":741:775   */\n      tag_713\n        /* \"#utility.yul\":750:774   */\n      tag_714\n        /* \"#utility.yul\":768:773   */\n      dup5\n        /* \"#utility.yul\":750:774   */\n      tag_637\n      jump\t// in\n    tag_714:\n        /* \"#utility.yul\":741:775   */\n      tag_638\n      jump\t// in\n    tag_713:\n        /* \"#utility.yul\":723:776   */\n      tag_637\n      jump\t// in\n    tag_712:\n        /* \"#utility.yul\":710:776   */\n      swap1\n      pop\n        /* \"#utility.yul\":640:782   */\n      swap2\n      swap1\n      pop\n      jump\t// out\n        /* \"#utility.yul\":788:914   */\n    tag_640:\n        /* \"#utility.yul\":838:847   */\n      0x00\n        /* \"#utility.yul\":871:908   */\n      tag_716\n        /* \"#utility.yul\":902:907   */\n      dup3\n        /* \"#utility.yul\":871:908   */\n      tag_639\n      jump\t// in\n    tag_716:\n        /* \"#utility.yul\":858:908   */\n      swap1\n      pop\n        /* \"#utility.yul\":788:914   */\n      swap2\n      swap1\n      pop\n      jump\t// out\n        /* \"#utility.yul\":920:1061   */\n    tag_641:\n        /* \"#utility.yul\":985:994   */\n      0x00\n        /* \"#utility.yul\":1018:1055   */\n      tag_718\n        /* \"#utility.yul\":1049:1054   */\n      dup3\n        /* \"#utility.yul\":1018:1055   */\n      tag_640\n      jump\t// in\n    tag_718:\n        /* \"#utility.yul\":1005:1055   */\n      swap1\n      pop\n        /* \"#utility.yul\":920:1061   */\n      swap2\n      swap1\n      pop\n      jump\t// out\n        /* \"#utility.yul\":1067:1228   */\n    tag_642:\n        /* \"#utility.yul\":1169:1221   */\n      tag_720\n        /* \"#utility.yul\":1215:1220   */\n      dup2\n        /* \"#utility.yul\":1169:1221   */\n      tag_641\n      jump\t// in\n    tag_720:\n        /* \"#utility.yul\":1164:1167   */\n      dup3\n        /* \"#utility.yul\":1157:1222   */\n      mstore\n        /* \"#utility.yul\":1067:1228   */\n      pop\n      pop\n      jump\t// out\n        /* \"#utility.yul\":1234:1486   */\n    tag_64:\n        /* \"#utility.yul\":1342:1346   */\n      0x00\n        /* \"#utility.yul\":1380:1382   */\n      0x20\n        /* \"#utility.yul\":1369:1378   */\n      dup3\n        /* \"#utility.yul\":1365:1383   */\n      add\n        /* \"#utility.yul\":1357:1383   */\n      swap1\n      pop\n        /* \"#utility.yul\":1393:1479   */\n      tag_722\n        /* \"#utility.yul\":1476:1477   */\n      0x00\n        /* \"#utility.yul\":1465:1474   */\n      dup4\n        /* \"#utility.yul\":1461:1478   */\n      add\n        /* \"#utility.yul\":1452:1458   */\n      dup5\n        /* \"#utility.yul\":1393:1479   */\n      tag_642\n      jump\t// in\n    tag_722:\n        /* \"#utility.yul\":1234:1486   */\n      swap3\n      swap2\n      pop\n      pop\n      jump\t// out\n        /* \"#utility.yul\":1492:1567   */\n    tag_643:\n        /* \"#utility.yul\":1525:1531   */\n      0x00\n        /* \"#utility.yul\":1558:1560   */\n      0x40\n        /* \"#utility.yul\":1552:1561   */\n      mload\n        /* \"#utility.yul\":1542:1561   */\n      swap1\n      pop\n        /* \"#utility.yul\":1492:1567   */\n      swap1\n      jump\t// out\n        /* \"#utility.yul\":1573:1690   */\n    tag_644:\n        /* \"#utility.yul\":1682:1683   */\n      0x00\n        /* \"#utility.yul\":1679:1680   */\n      dup1\n        /* \"#utility.yul\":1672:1684   */\n      revert\n        /* \"#utility.yul\":1696:1813   */\n    tag_645:\n        /* \"#utility.yul\":1805:1806   */\n      0x00\n        /* \"#utility.yul\":1802:1803   */\n      dup1\n        /* \"#utility.yul\":1795:1807   */\n      revert\n        /* \"#utility.yul\":1819:1941   */\n    tag_646:\n        /* \"#utility.yul\":1892:1916   */\n      tag_727\n        /* \"#utility.yul\":1910:1915   */\n      dup2\n        /* \"#utility.yul\":1892:1916   */\n      tag_635\n      jump\t// in\n    tag_727:\n        /* \"#utility.yul\":1885:1890   */\n      dup2\n        /* \"#utility.yul\":1882:1917   */\n      eq\n        /* \"#utility.yul\":1872:1935   */\n      tag_728\n      jumpi\n        /* \"#utility.yul\":1931:1932   */\n      0x00\n        /* \"#utility.yul\":1928:1929   */\n      dup1\n        /* \"#utility.yul\":1921:1933   */\n      revert\n        /* \"#utility.yul\":1872:1935   */\n    tag_728:\n        /* \"#utility.yul\":1819:1941   */\n      pop\n      jump\t// out\n        /* \"#utility.yul\":1947:2086   */\n    tag_647:\n        /* \"#utility.yul\":1993:1998   */\n      0x00\n        /* \"#utility.yul\":2031:2037   */\n      dup2\n        /* \"#utility.yul\":2018:2038   */\n      calldataload\n        /* \"#utility.yul\":2009:2038   */\n      swap1\n      pop\n        /* \"#utility.yul\":2047:2080   */\n      tag_730\n        /* \"#utility.yul\":2074:2079   */\n      dup2\n        /* \"#utility.yul\":2047:2080   */\n      tag_646\n      jump\t// in\n    tag_730:\n        /* \"#utility.yul\":1947:2086   */\n      swap3\n      swap2\n      pop\n      pop\n      jump\t// out\n        /* \"#utility.yul\":2092:2421   */\n    tag_72:\n        /* \"#utility.yul\":2151:2157   */\n      0x00\n        /* \"#utility.yul\":2200:2202   */\n      0x20\n        /* \"#utility.yul\":2188:2197   */\n      dup3\n        /* \"#utility.yul\":2179:2186   */\n      dup5\n        /* \"#utility.yul\":2175:2198   */\n      sub\n        /* \"#utility.yul\":2171:2203   */\n      slt\n        /* \"#utility.yul\":2168:2287   */\n      iszero\n      tag_732\n      jumpi\n        /* \"#utility.yul\":2206:2285   */\n      tag_733\n      tag_644\n      jump\t// in\n    tag_733:\n        /* \"#utility.yul\":2168:2287   */\n    tag_732:\n        /* \"#utility.yul\":2326:2327   */\n      0x00\n        /* \"#utility.yul\":2351:2404   */\n      tag_734\n        /* \"#utility.yul\":2396:2403   */\n      dup5\n        /* \"#utility.yul\":2387:2393   */\n      dup3\n        /* \"#utility.yul\":2376:2385   */\n      dup6\n        /* \"#utility.yul\":2372:2394   */\n      add\n        /* \"#utility.yul\":2351:2404   */\n      tag_647\n      jump\t// in\n    tag_734:\n        /* \"#utility.yul\":2341:2404   */\n      swap2\n      pop\n        /* \"#utility.yul\":2297:2414   */\n      pop\n        /* \"#utility.yul\":2092:2421   */\n      swap3\n      swap2\n      pop\n      pop\n      jump\t// out\n        /* \"#utility.yul\":2427:2523   */\n    tag_648:\n        /* \"#utility.yul\":2464:2471   */\n      0x00\n        /* \"#utility.yul\":2493:2517   */\n      tag_736\n        /* \"#utility.yul\":2511:2516   */\n      dup3\n        /* \"#utility.yul\":2493:2517   */\n      tag_637\n      jump\t// in\n    tag_736:\n        /* \"#utility.yul\":2482:2517   */\n      swap1\n      pop\n        /* \"#utility.yul\":2427:2523   */\n      swap2\n      swap1\n      pop\n      jump\t// out\n        /* \"#utility.yul\":2529:2647   */\n    tag_649:\n        /* \"#utility.yul\":2616:2640   */\n      tag_738\n        /* \"#utility.yul\":2634:2639   */\n      dup2\n        /* \"#utility.yul\":2616:2640   */\n      tag_648\n      jump\t// in\n    tag_738:\n        /* \"#utility.yul\":2611:2614   */\n      dup3\n        /* \"#utility.yul\":2604:2641   */\n      mstore\n        /* \"#utility.yul\":2529:2647   */\n      pop\n      pop\n      jump\t// out\n        /* \"#utility.yul\":2653:2875   */\n    tag_78:\n        /* \"#utility.yul\":2746:2750   */\n      0x00\n        /* \"#utility.yul\":2784:2786   */\n      0x20\n        /* \"#utility.yul\":2773:2782   */\n      dup3\n        /* \"#utility.yul\":2769:2787   */\n      add\n        /* \"#utility.yul\":2761:2787   */\n      swap1\n      pop\n        /* \"#utility.yul\":2797:2868   */\n      tag_740\n        /* \"#utility.yul\":2865:2866   */\n      0x00\n        /* \"#utility.yul\":2854:2863   */\n      dup4\n        /* \"#utility.yul\":2850:2867   */\n      add\n        /* \"#utility.yul\":2841:2847   */\n      dup5\n        /* \"#utility.yul\":2797:2868   */\n      tag_649\n      jump\t// in\n    tag_740:\n        /* \"#utility.yul\":2653:2875   */\n      swap3\n      swap2\n      pop\n      pop\n      jump\t// out\n        /* \"#utility.yul\":2881:2971   */\n    tag_650:\n        /* \"#utility.yul\":2915:2922   */\n      0x00\n        /* \"#utility.yul\":2958:2963   */\n      dup2\n        /* \"#utility.yul\":2951:2964   */\n      iszero\n        /* \"#utility.yul\":2944:2965   */\n      iszero\n        /* \"#utility.yul\":2933:2965   */\n      swap1\n      pop\n        /* \"#utility.yul\":2881:2971   */\n      swap2\n      swap1\n      pop\n      jump\t// out\n        /* \"#utility.yul\":2977:3086   */\n    tag_651:\n        /* \"#utility.yul\":3058:3079   */\n      tag_743\n        /* \"#utility.yul\":3073:3078   */\n      dup2\n        /* \"#utility.yul\":3058:3079   */\n      tag_650\n      jump\t// in\n    tag_743:\n        /* \"#utility.yul\":3053:3056   */\n      dup3\n        /* \"#utility.yul\":3046:3080   */\n      mstore\n        /* \"#utility.yul\":2977:3086   */\n      pop\n      pop\n      jump\t// out\n        /* \"#utility.yul\":3092:3302   */\n    tag_83:\n        /* \"#utility.yul\":3179:3183   */\n      0x00\n        /* \"#utility.yul\":3217:3219   */\n      0x20\n        /* \"#utility.yul\":3206:3215   */\n      dup3\n        /* \"#utility.yul\":3202:3220   */\n      add\n        /* \"#utility.yul\":3194:3220   */\n      swap1\n      pop\n        /* \"#utility.yul\":3230:3295   */\n      tag_745\n        /* \"#utility.yul\":3292:3293   */\n      0x00\n        /* \"#utility.yul\":3281:3290   */\n      dup4\n        /* \"#utility.yul\":3277:3294   */\n      add\n        /* \"#utility.yul\":3268:3274   */\n      dup5\n        /* \"#utility.yul\":3230:3295   */\n      tag_651\n      jump\t// in\n    tag_745:\n        /* \"#utility.yul\":3092:3302   */\n      swap3\n      swap2\n      pop\n      pop\n      jump\t// out\n        /* \"#utility.yul\":3308:3425   */\n    tag_652:\n        /* \"#utility.yul\":3417:3418   */\n      0x00\n        /* \"#utility.yul\":3414:3415   */\n      dup1\n        /* \"#utility.yul\":3407:3419   */\n      revert\n        /* \"#utility.yul\":3431:3548   */\n    tag_653:\n        /* \"#utility.yul\":3540:3541   */\n      0x00\n        /* \"#utility.yul\":3537:3538   */\n      dup1\n        /* \"#utility.yul\":3530:3542   */\n      revert\n        /* \"#utility.yul\":3554:3671   */\n    tag_654:\n        /* \"#utility.yul\":3663:3664   */\n      0x00\n        /* \"#utility.yul\":3660:3661   */\n      dup1\n        /* \"#utility.yul\":3653:3665   */\n      revert\n        /* \"#utility.yul\":3690:4242   */\n    tag_655:\n        /* \"#utility.yul\":3747:3755   */\n      0x00\n        /* \"#utility.yul\":3757:3763   */\n      dup1\n        /* \"#utility.yul\":3807:3810   */\n      dup4\n        /* \"#utility.yul\":3800:3804   */\n      0x1f\n        /* \"#utility.yul\":3792:3798   */\n      dup5\n        /* \"#utility.yul\":3788:3805   */\n      add\n        /* \"#utility.yul\":3784:3811   */\n      slt\n        /* \"#utility.yul\":3774:3896   */\n      tag_750\n      jumpi\n        /* \"#utility.yul\":3815:3894   */\n      tag_751\n      tag_652\n      jump\t// in\n    tag_751:\n        /* \"#utility.yul\":3774:3896   */\n    tag_750:\n        /* \"#utility.yul\":3928:3934   */\n      dup3\n        /* \"#utility.yul\":3915:3935   */\n      calldataload\n        /* \"#utility.yul\":3905:3935   */\n      swap1\n      pop\n        /* \"#utility.yul\":3958:3976   */\n      0xffffffffffffffff\n        /* \"#utility.yul\":3950:3956   */\n      dup2\n        /* \"#utility.yul\":3947:3977   */\n      gt\n        /* \"#utility.yul\":3944:4061   */\n      iszero\n      tag_752\n      jumpi\n        /* \"#utility.yul\":3980:4059   */\n      tag_753\n      tag_653\n      jump\t// in\n    tag_753:\n        /* \"#utility.yul\":3944:4061   */\n    tag_752:\n        /* \"#utility.yul\":4094:4098   */\n      0x20\n        /* \"#utility.yul\":4086:4092   */\n      dup4\n        /* \"#utility.yul\":4082:4099   */\n      add\n        /* \"#utility.yul\":4070:4099   */\n      swap2\n      pop\n        /* \"#utility.yul\":4148:4151   */\n      dup4\n        /* \"#utility.yul\":4140:4144   */\n      0x01\n        /* \"#utility.yul\":4132:4138   */\n      dup3\n        /* \"#utility.yul\":4128:4145   */\n      mul\n        /* \"#utility.yul\":4118:4126   */\n      dup4\n        /* \"#utility.yul\":4114:4146   */\n      add\n        /* \"#utility.yul\":4111:4152   */\n      gt\n        /* \"#utility.yul\":4108:4236   */\n      iszero\n      tag_754\n      jumpi\n        /* \"#utility.yul\":4155:4234   */\n      tag_755\n      tag_654\n      jump\t// in\n    tag_755:\n        /* \"#utility.yul\":4108:4236   */\n    tag_754:\n        /* \"#utility.yul\":3690:4242   */\n      swap3\n      pop\n      swap3\n      swap1\n      pop\n      jump\t// out\n        /* \"#utility.yul\":4248:4775   */\n    tag_107:\n        /* \"#utility.yul\":4318:4324   */\n      0x00\n        /* \"#utility.yul\":4326:4332   */\n      dup1\n        /* \"#utility.yul\":4375:4377   */\n      0x20\n        /* \"#utility.yul\":4363:4372   */\n      dup4\n        /* \"#utility.yul\":4354:4361   */\n      dup6\n        /* \"#utility.yul\":4350:4373   */\n      sub\n        /* \"#utility.yul\":4346:4378   */\n      slt\n        /* \"#utility.yul\":4343:4462   */\n      iszero\n      tag_757\n      jumpi\n        /* \"#utility.yul\":4381:4460   */\n      tag_758\n      tag_644\n      jump\t// in\n    tag_758:\n        /* \"#utility.yul\":4343:4462   */\n    tag_757:\n        /* \"#utility.yul\":4529:4530   */\n      0x00\n        /* \"#utility.yul\":4518:4527   */\n      dup4\n        /* \"#utility.yul\":4514:4531   */\n      add\n        /* \"#utility.yul\":4501:4532   */\n      calldataload\n        /* \"#utility.yul\":4559:4577   */\n      0xffffffffffffffff\n        /* \"#utility.yul\":4551:4557   */\n      dup2\n        /* \"#utility.yul\":4548:4578   */\n      gt\n        /* \"#utility.yul\":4545:4662   */\n      iszero\n      tag_759\n      jumpi\n        /* \"#utility.yul\":4581:4660   */\n      tag_760\n      tag_645\n      jump\t// in\n    tag_760:\n        /* \"#utility.yul\":4545:4662   */\n    tag_759:\n        /* \"#utility.yul\":4694:4758   */\n      tag_761\n        /* \"#utility.yul\":4750:4757   */\n      dup6\n        /* \"#utility.yul\":4741:4747   */\n      dup3\n        /* \"#utility.yul\":4730:4739   */\n      dup7\n        /* \"#utility.yul\":4726:4748   */\n      add\n        /* \"#utility.yul\":4694:4758   */\n      tag_655\n      jump\t// in\n    tag_761:\n        /* \"#utility.yul\":4676:4758   */\n      swap3\n      pop\n      swap3\n      pop\n        /* \"#utility.yul\":4472:4768   */\n      pop\n        /* \"#utility.yul\":4248:4775   */\n      swap3\n      pop\n      swap3\n      swap1\n      pop\n      jump\t// out\n        /* \"#utility.yul\":4781:4903   */\n    tag_656:\n        /* \"#utility.yul\":4854:4878   */\n      tag_763\n        /* \"#utility.yul\":4872:4877   */\n      dup2\n        /* \"#utility.yul\":4854:4878   */\n      tag_648\n      jump\t// in\n    tag_763:\n        /* \"#utility.yul\":4847:4852   */\n      dup2\n        /* \"#utility.yul\":4844:4879   */\n      eq\n        /* \"#utility.yul\":4834:4897   */\n      tag_764\n      jumpi\n        /* \"#utility.yul\":4893:4894   */\n      0x00\n        /* \"#utility.yul\":4890:4891   */\n      dup1\n        /* \"#utility.yul\":4883:4895   */\n      revert\n        /* \"#utility.yul\":4834:4897   */\n    tag_764:\n        /* \"#utility.yul\":4781:4903   */\n      pop\n      jump\t// out\n        /* \"#utility.yul\":4909:5048   */\n    tag_657:\n        /* \"#utility.yul\":4955:4960   */\n      0x00\n        /* \"#utility.yul\":4993:4999   */\n      dup2\n        /* \"#utility.yul\":4980:5000   */\n      calldataload\n        /* \"#utility.yul\":4971:5000   */\n      swap1\n      pop\n        /* \"#utility.yul\":5009:5042   */\n      tag_766\n        /* \"#utility.yul\":5036:5041   */\n      dup2\n        /* \"#utility.yul\":5009:5042   */\n      tag_656\n      jump\t// in\n    tag_766:\n        /* \"#utility.yul\":4909:5048   */\n      swap3\n      swap2\n      pop\n      pop\n      jump\t// out\n        /* \"#utility.yul\":5054:5171   */\n    tag_658:\n        /* \"#utility.yul\":5163:5164   */\n      0x00\n        /* \"#utility.yul\":5160:5161   */\n      dup1\n        /* \"#utility.yul\":5153:5165   */\n      revert\n        /* \"#utility.yul\":5177:5279   */\n    tag_659:\n        /* \"#utility.yul\":5218:5224   */\n      0x00\n        /* \"#utility.yul\":5269:5271   */\n      0x1f\n        /* \"#utility.yul\":5265:5272   */\n      not\n        /* \"#utility.yul\":5260:5262   */\n      0x1f\n        /* \"#utility.yul\":5253:5258   */\n      dup4\n        /* \"#utility.yul\":5249:5263   */\n      add\n        /* \"#utility.yul\":5245:5273   */\n      and\n        /* \"#utility.yul\":5235:5273   */\n      swap1\n      pop\n        /* \"#utility.yul\":5177:5279   */\n      swap2\n      swap1\n      pop\n      jump\t// out\n        /* \"#utility.yul\":5285:5465   */\n    tag_660:\n        /* \"#utility.yul\":5333:5410   */\n      0x4e487b7100000000000000000000000000000000000000000000000000000000\n        /* \"#utility.yul\":5330:5331   */\n      0x00\n        /* \"#utility.yul\":5323:5411   */\n      mstore\n        /* \"#utility.yul\":5430:5434   */\n      0x41\n        /* \"#utility.yul\":5427:5428   */\n      0x04\n        /* \"#utility.yul\":5420:5435   */\n      mstore\n        /* \"#utility.yul\":5454:5458   */\n      0x24\n        /* \"#utility.yul\":5451:5452   */\n      0x00\n        /* \"#utility.yul\":5444:5459   */\n      revert\n        /* \"#utility.yul\":5471:5752   */\n    tag_661:\n        /* \"#utility.yul\":5554:5581   */\n      tag_771\n        /* \"#utility.yul\":5576:5580   */\n      dup3\n        /* \"#utility.yul\":5554:5581   */\n      tag_659\n      jump\t// in\n    tag_771:\n        /* \"#utility.yul\":5546:5552   */\n      dup2\n        /* \"#utility.yul\":5542:5582   */\n      add\n        /* \"#utility.yul\":5684:5690   */\n      dup2\n        /* \"#utility.yul\":5672:5682   */\n      dup2\n        /* \"#utility.yul\":5669:5691   */\n      lt\n        /* \"#utility.yul\":5648:5666   */\n      0xffffffffffffffff\n        /* \"#utility.yul\":5636:5646   */\n      dup3\n        /* \"#utility.yul\":5633:5667   */\n      gt\n        /* \"#utility.yul\":5630:5692   */\n      or\n        /* \"#utility.yul\":5627:5715   */\n      iszero\n      tag_772\n      jumpi\n        /* \"#utility.yul\":5695:5713   */\n      tag_773\n      tag_660\n      jump\t// in\n    tag_773:\n        /* \"#utility.yul\":5627:5715   */\n    tag_772:\n        /* \"#utility.yul\":5735:5745   */\n      dup1\n        /* \"#utility.yul\":5731:5733   */\n      0x40\n        /* \"#utility.yul\":5724:5746   */\n      mstore\n        /* \"#utility.yul\":5514:5752   */\n      pop\n        /* \"#utility.yul\":5471:5752   */\n      pop\n      pop\n      jump\t// out\n        /* \"#utility.yul\":5758:5887   */\n    tag_662:\n        /* \"#utility.yul\":5792:5798   */\n      0x00\n        /* \"#utility.yul\":5819:5839   */\n      tag_775\n      tag_643\n      jump\t// in\n    tag_775:\n        /* \"#utility.yul\":5809:5839   */\n      swap1\n      pop\n        /* \"#utility.yul\":5848:5881   */\n      tag_776\n        /* \"#utility.yul\":5876:5880   */\n      dup3\n        /* \"#utility.yul\":5868:5874   */\n      dup3\n        /* \"#utility.yul\":5848:5881   */\n      tag_661\n      jump\t// in\n    tag_776:\n        /* \"#utility.yul\":5758:5887   */\n      swap2\n      swap1\n      pop\n      jump\t// out\n        /* \"#utility.yul\":5893:6200   */\n    tag_663:\n        /* \"#utility.yul\":5954:5958   */\n      0x00\n        /* \"#utility.yul\":6044:6062   */\n      0xffffffffffffffff\n        /* \"#utility.yul\":6036:6042   */\n      dup3\n        /* \"#utility.yul\":6033:6063   */\n      gt\n        /* \"#utility.yul\":6030:6086   */\n      iszero\n      tag_778\n      jumpi\n        /* \"#utility.yul\":6066:6084   */\n      tag_779\n      tag_660\n      jump\t// in\n    tag_779:\n        /* \"#utility.yul\":6030:6086   */\n    tag_778:\n        /* \"#utility.yul\":6104:6133   */\n      tag_780\n        /* \"#utility.yul\":6126:6132   */\n      dup3\n        /* \"#utility.yul\":6104:6133   */\n      tag_659\n      jump\t// in\n    tag_780:\n        /* \"#utility.yul\":6096:6133   */\n      swap1\n      pop\n        /* \"#utility.yul\":6188:6192   */\n      0x20\n        /* \"#utility.yul\":6182:6186   */\n      dup2\n        /* \"#utility.yul\":6178:6193   */\n      add\n        /* \"#utility.yul\":6170:6193   */\n      swap1\n      pop\n        /* \"#utility.yul\":5893:6200   */\n      swap2\n      swap1\n      pop\n      jump\t// out\n        /* \"#utility.yul\":6206:6354   */\n    tag_664:\n        /* \"#utility.yul\":6304:6310   */\n      dup3\n        /* \"#utility.yul\":6299:6302   */\n      dup2\n        /* \"#utility.yul\":6294:6297   */\n      dup4\n        /* \"#utility.yul\":6281:6311   */\n      calldatacopy\n        /* \"#utility.yul\":6345:6346   */\n      0x00\n        /* \"#utility.yul\":6336:6342   */\n      dup4\n        /* \"#utility.yul\":6331:6334   */\n      dup4\n        /* \"#utility.yul\":6327:6343   */\n      add\n        /* \"#utility.yul\":6320:6347   */\n      mstore\n        /* \"#utility.yul\":6206:6354   */\n      pop\n      pop\n      pop\n      jump\t// out\n        /* \"#utility.yul\":6360:6783   */\n    tag_665:\n        /* \"#utility.yul\":6437:6442   */\n      0x00\n        /* \"#utility.yul\":6462:6527   */\n      tag_783\n        /* \"#utility.yul\":6478:6526   */\n      tag_784\n        /* \"#utility.yul\":6519:6525   */\n      dup5\n        /* \"#utility.yul\":6478:6526   */\n      tag_663\n      jump\t// in\n    tag_784:\n        /* \"#utility.yul\":6462:6527   */\n      tag_662\n      jump\t// in\n    tag_783:\n        /* \"#utility.yul\":6453:6527   */\n      swap1\n      pop\n        /* \"#utility.yul\":6550:6556   */\n      dup3\n        /* \"#utility.yul\":6543:6548   */\n      dup2\n        /* \"#utility.yul\":6536:6557   */\n      mstore\n        /* \"#utility.yul\":6588:6592   */\n      0x20\n        /* \"#utility.yul\":6581:6586   */\n      dup2\n        /* \"#utility.yul\":6577:6593   */\n      add\n        /* \"#utility.yul\":6626:6629   */\n      dup5\n        /* \"#utility.yul\":6617:6623   */\n      dup5\n        /* \"#utility.yul\":6612:6615   */\n      dup5\n        /* \"#utility.yul\":6608:6624   */\n      add\n        /* \"#utility.yul\":6605:6630   */\n      gt\n        /* \"#utility.yul\":6602:6714   */\n      iszero\n      tag_785\n      jumpi\n        /* \"#utility.yul\":6633:6712   */\n      tag_786\n      tag_658\n      jump\t// in\n    tag_786:\n        /* \"#utility.yul\":6602:6714   */\n    tag_785:\n        /* \"#utility.yul\":6723:6777   */\n      tag_787\n        /* \"#utility.yul\":6770:6776   */\n      dup5\n        /* \"#utility.yul\":6765:6768   */\n      dup3\n        /* \"#utility.yul\":6760:6763   */\n      dup6\n        /* \"#utility.yul\":6723:6777   */\n      tag_664\n      jump\t// in\n    tag_787:\n        /* \"#utility.yul\":6443:6783   */\n      pop\n        /* \"#utility.yul\":6360:6783   */\n      swap4\n      swap3\n      pop\n      pop\n      pop\n      jump\t// out\n        /* \"#utility.yul\":6802:7140   */\n    tag_666:\n        /* \"#utility.yul\":6857:6862   */\n      0x00\n        /* \"#utility.yul\":6906:6909   */\n      dup3\n        /* \"#utility.yul\":6899:6903   */\n      0x1f\n        /* \"#utility.yul\":6891:6897   */\n      dup4\n        /* \"#utility.yul\":6887:6904   */\n      add\n        /* \"#utility.yul\":6883:6910   */\n      slt\n        /* \"#utility.yul\":6873:6995   */\n      tag_789\n      jumpi\n        /* \"#utility.yul\":6914:6993   */\n      tag_790\n      tag_652\n      jump\t// in\n    tag_790:\n        /* \"#utility.yul\":6873:6995   */\n    tag_789:\n        /* \"#utility.yul\":7031:7037   */\n      dup2\n        /* \"#utility.yul\":7018:7038   */\n      calldataload\n        /* \"#utility.yul\":7056:7134   */\n      tag_791\n        /* \"#utility.yul\":7130:7133   */\n      dup5\n        /* \"#utility.yul\":7122:7128   */\n      dup3\n        /* \"#utility.yul\":7115:7119   */\n      0x20\n        /* \"#utility.yul\":7107:7113   */\n      dup7\n        /* \"#utility.yul\":7103:7120   */\n      add\n        /* \"#utility.yul\":7056:7134   */\n      tag_665\n      jump\t// in\n    tag_791:\n        /* \"#utility.yul\":7047:7134   */\n      swap2\n      pop\n        /* \"#utility.yul\":6863:7140   */\n      pop\n        /* \"#utility.yul\":6802:7140   */\n      swap3\n      swap2\n      pop\n      pop\n      jump\t// out\n        /* \"#utility.yul\":7146:7798   */\n    tag_111:\n        /* \"#utility.yul\":7223:7229   */\n      0x00\n        /* \"#utility.yul\":7231:7237   */\n      dup1\n        /* \"#utility.yul\":7280:7282   */\n      0x40\n        /* \"#utility.yul\":7268:7277   */\n      dup4\n        /* \"#utility.yul\":7259:7266   */\n      dup6\n        /* \"#utility.yul\":7255:7278   */\n      sub\n        /* \"#utility.yul\":7251:7283   */\n      slt\n        /* \"#utility.yul\":7248:7367   */\n      iszero\n      tag_793\n      jumpi\n        /* \"#utility.yul\":7286:7365   */\n      tag_794\n      tag_644\n      jump\t// in\n    tag_794:\n        /* \"#utility.yul\":7248:7367   */\n    tag_793:\n        /* \"#utility.yul\":7406:7407   */\n      0x00\n        /* \"#utility.yul\":7431:7484   */\n      tag_795\n        /* \"#utility.yul\":7476:7483   */\n      dup6\n        /* \"#utility.yul\":7467:7473   */\n      dup3\n        /* \"#utility.yul\":7456:7465   */\n      dup7\n        /* \"#utility.yul\":7452:7474   */\n      add\n        /* \"#utility.yul\":7431:7484   */\n      tag_657\n      jump\t// in\n    tag_795:\n        /* \"#utility.yul\":7421:7484   */\n      swap3\n      pop\n        /* \"#utility.yul\":7377:7494   */\n      pop\n        /* \"#utility.yul\":7561:7563   */\n      0x20\n        /* \"#utility.yul\":7550:7559   */\n      dup4\n        /* \"#utility.yul\":7546:7564   */\n      add\n        /* \"#utility.yul\":7533:7565   */\n      calldataload\n        /* \"#utility.yul\":7592:7610   */\n      0xffffffffffffffff\n        /* \"#utility.yul\":7584:7590   */\n      dup2\n        /* \"#utility.yul\":7581:7611   */\n      gt\n        /* \"#utility.yul\":7578:7695   */\n      iszero\n      tag_796\n      jumpi\n        /* \"#utility.yul\":7614:7693   */\n      tag_797\n      tag_645\n      jump\t// in\n    tag_797:\n        /* \"#utility.yul\":7578:7695   */\n    tag_796:\n        /* \"#utility.yul\":7719:7781   */\n      tag_798\n        /* \"#utility.yul\":7773:7780   */\n      dup6\n        /* \"#utility.yul\":7764:7770   */\n      dup3\n        /* \"#utility.yul\":7753:7762   */\n      dup7\n        /* \"#utility.yul\":7749:7771   */\n      add\n        /* \"#utility.yul\":7719:7781   */\n      tag_666\n      jump\t// in\n    tag_798:\n        /* \"#utility.yul\":7709:7781   */\n      swap2\n      pop\n        /* \"#utility.yul\":7504:7791   */\n      pop\n        /* \"#utility.yul\":7146:7798   */\n      swap3\n      pop\n      swap3\n      swap1\n      pop\n      jump\t// out\n        /* \"#utility.yul\":7804:7881   */\n    tag_667:\n        /* \"#utility.yul\":7841:7848   */\n      0x00\n        /* \"#utility.yul\":7870:7875   */\n      dup2\n        /* \"#utility.yul\":7859:7875   */\n      swap1\n      pop\n        /* \"#utility.yul\":7804:7881   */\n      swap2\n      swap1\n      pop\n      jump\t// out\n        /* \"#utility.yul\":7887:8005   */\n    tag_668:\n        /* \"#utility.yul\":7974:7998   */\n      tag_801\n        /* \"#utility.yul\":7992:7997   */\n      dup2\n        /* \"#utility.yul\":7974:7998   */\n      tag_667\n      jump\t// in\n    tag_801:\n        /* \"#utility.yul\":7969:7972   */\n      dup3\n        /* \"#utility.yul\":7962:7999   */\n      mstore\n        /* \"#utility.yul\":7887:8005   */\n      pop\n      pop\n      jump\t// out\n        /* \"#utility.yul\":8011:8233   */\n    tag_121:\n        /* \"#utility.yul\":8104:8108   */\n      0x00\n        /* \"#utility.yul\":8142:8144   */\n      0x20\n        /* \"#utility.yul\":8131:8140   */\n      dup3\n        /* \"#utility.yul\":8127:8145   */\n      add\n        /* \"#utility.yul\":8119:8145   */\n      swap1\n      pop\n        /* \"#utility.yul\":8155:8226   */\n      tag_803\n        /* \"#utility.yul\":8223:8224   */\n      0x00\n        /* \"#utility.yul\":8212:8221   */\n      dup4\n        /* \"#utility.yul\":8208:8225   */\n      add\n        /* \"#utility.yul\":8199:8205   */\n      dup5\n        /* \"#utility.yul\":8155:8226   */\n      tag_668\n      jump\t// in\n    tag_803:\n        /* \"#utility.yul\":8011:8233   */\n      swap3\n      swap2\n      pop\n      pop\n      jump\t// out\n        /* \"#utility.yul\":8239:8713   */\n    tag_133:\n        /* \"#utility.yul\":8307:8313   */\n      0x00\n        /* \"#utility.yul\":8315:8321   */\n      dup1\n        /* \"#utility.yul\":8364:8366   */\n      0x40\n        /* \"#utility.yul\":8352:8361   */\n      dup4\n        /* \"#utility.yul\":8343:8350   */\n      dup6\n        /* \"#utility.yul\":8339:8362   */\n      sub\n        /* \"#utility.yul\":8335:8367   */\n      slt\n        /* \"#utility.yul\":8332:8451   */\n      iszero\n      tag_805\n      jumpi\n        /* \"#utility.yul\":8370:8449   */\n      tag_806\n      tag_644\n      jump\t// in\n    tag_806:\n        /* \"#utility.yul\":8332:8451   */\n    tag_805:\n        /* \"#utility.yul\":8490:8491   */\n      0x00\n        /* \"#utility.yul\":8515:8568   */\n      tag_807\n        /* \"#utility.yul\":8560:8567   */\n      dup6\n        /* \"#utility.yul\":8551:8557   */\n      dup3\n        /* \"#utility.yul\":8540:8549   */\n      dup7\n        /* \"#utility.yul\":8536:8558   */\n      add\n        /* \"#utility.yul\":8515:8568   */\n      tag_647\n      jump\t// in\n    tag_807:\n        /* \"#utility.yul\":8505:8568   */\n      swap3\n      pop\n        /* \"#utility.yul\":8461:8578   */\n      pop\n        /* \"#utility.yul\":8617:8619   */\n      0x20\n        /* \"#utility.yul\":8643:8696   */\n      tag_808\n        /* \"#utility.yul\":8688:8695   */\n      dup6\n        /* \"#utility.yul\":8679:8685   */\n      dup3\n        /* \"#utility.yul\":8668:8677   */\n      dup7\n        /* \"#utility.yul\":8664:8686   */\n      add\n        /* \"#utility.yul\":8643:8696   */\n      tag_647\n      jump\t// in\n    tag_808:\n        /* \"#utility.yul\":8633:8696   */\n      swap2\n      pop\n        /* \"#utility.yul\":8588:8706   */\n      pop\n        /* \"#utility.yul\":8239:8713   */\n      swap3\n      pop\n      swap3\n      swap1\n      pop\n      jump\t// out\n        /* \"#utility.yul\":8719:8817   */\n    tag_669:\n        /* \"#utility.yul\":8770:8776   */\n      0x00\n        /* \"#utility.yul\":8804:8809   */\n      dup2\n        /* \"#utility.yul\":8798:8810   */\n      mload\n        /* \"#utility.yul\":8788:8810   */\n      swap1\n      pop\n        /* \"#utility.yul\":8719:8817   */\n      swap2\n      swap1\n      pop\n      jump\t// out\n        /* \"#utility.yul\":8823:8991   */\n    tag_670:\n        /* \"#utility.yul\":8906:8917   */\n      0x00\n        /* \"#utility.yul\":8940:8946   */\n      dup3\n        /* \"#utility.yul\":8935:8938   */\n      dup3\n        /* \"#utility.yul\":8928:8947   */\n      mstore\n        /* \"#utility.yul\":8980:8984   */\n      0x20\n        /* \"#utility.yul\":8975:8978   */\n      dup3\n        /* \"#utility.yul\":8971:8985   */\n      add\n        /* \"#utility.yul\":8956:8985   */\n      swap1\n      pop\n        /* \"#utility.yul\":8823:8991   */\n      swap3\n      swap2\n      pop\n      pop\n      jump\t// out\n        /* \"#utility.yul\":8997:9136   */\n    tag_671:\n        /* \"#utility.yul\":9086:9092   */\n      dup3\n        /* \"#utility.yul\":9081:9084   */\n      dup2\n        /* \"#utility.yul\":9076:9079   */\n      dup4\n        /* \"#utility.yul\":9070:9093   */\n      mcopy\n        /* \"#utility.yul\":9127:9128   */\n      0x00\n        /* \"#utility.yul\":9118:9124   */\n      dup4\n        /* \"#utility.yul\":9113:9116   */\n      dup4\n        /* \"#utility.yul\":9109:9125   */\n      add\n        /* \"#utility.yul\":9102:9129   */\n      mstore\n        /* \"#utility.yul\":8997:9136   */\n      pop\n      pop\n      pop\n      jump\t// out\n        /* \"#utility.yul\":9142:9515   */\n    tag_672:\n        /* \"#utility.yul\":9228:9231   */\n      0x00\n        /* \"#utility.yul\":9256:9294   */\n      tag_813\n        /* \"#utility.yul\":9288:9293   */\n      dup3\n        /* \"#utility.yul\":9256:9294   */\n      tag_669\n      jump\t// in\n    tag_813:\n        /* \"#utility.yul\":9310:9380   */\n      tag_814\n        /* \"#utility.yul\":9373:9379   */\n      dup2\n        /* \"#utility.yul\":9368:9371   */\n      dup6\n        /* \"#utility.yul\":9310:9380   */\n      tag_670\n      jump\t// in\n    tag_814:\n        /* \"#utility.yul\":9303:9380   */\n      swap4\n      pop\n        /* \"#utility.yul\":9389:9454   */\n      tag_815\n        /* \"#utility.yul\":9447:9453   */\n      dup2\n        /* \"#utility.yul\":9442:9445   */\n      dup6\n        /* \"#utility.yul\":9435:9439   */\n      0x20\n        /* \"#utility.yul\":9428:9433   */\n      dup7\n        /* \"#utility.yul\":9424:9440   */\n      add\n        /* \"#utility.yul\":9389:9454   */\n      tag_671\n      jump\t// in\n    tag_815:\n        /* \"#utility.yul\":9479:9508   */\n      tag_816\n        /* \"#utility.yul\":9501:9507   */\n      dup2\n        /* \"#utility.yul\":9479:9508   */\n      tag_659\n      jump\t// in\n    tag_816:\n        /* \"#utility.yul\":9474:9477   */\n      dup5\n        /* \"#utility.yul\":9470:9509   */\n      add\n        /* \"#utility.yul\":9463:9509   */\n      swap2\n      pop\n        /* \"#utility.yul\":9232:9515   */\n      pop\n        /* \"#utility.yul\":9142:9515   */\n      swap3\n      swap2\n      pop\n      pop\n      jump\t// out\n        /* \"#utility.yul\":9521:9928   */\n    tag_147:\n        /* \"#utility.yul\":9654:9658   */\n      0x00\n        /* \"#utility.yul\":9692:9694   */\n      0x40\n        /* \"#utility.yul\":9681:9690   */\n      dup3\n        /* \"#utility.yul\":9677:9695   */\n      add\n        /* \"#utility.yul\":9669:9695   */\n      swap1\n      pop\n        /* \"#utility.yul\":9705:9770   */\n      tag_818\n        /* \"#utility.yul\":9767:9768   */\n      0x00\n        /* \"#utility.yul\":9756:9765   */\n      dup4\n        /* \"#utility.yul\":9752:9769   */\n      add\n        /* \"#utility.yul\":9743:9749   */\n      dup6\n        /* \"#utility.yul\":9705:9770   */\n      tag_651\n      jump\t// in\n    tag_818:\n        /* \"#utility.yul\":9817:9826   */\n      dup2\n        /* \"#utility.yul\":9811:9815   */\n      dup2\n        /* \"#utility.yul\":9807:9827   */\n      sub\n        /* \"#utility.yul\":9802:9804   */\n      0x20\n        /* \"#utility.yul\":9791:9800   */\n      dup4\n        /* \"#utility.yul\":9787:9805   */\n      add\n        /* \"#utility.yul\":9780:9828   */\n      mstore\n        /* \"#utility.yul\":9845:9921   */\n      tag_819\n        /* \"#utility.yul\":9916:9920   */\n      dup2\n        /* \"#utility.yul\":9907:9913   */\n      dup5\n        /* \"#utility.yul\":9845:9921   */\n      tag_672\n      jump\t// in\n    tag_819:\n        /* \"#utility.yul\":9837:9921   */\n      swap1\n      pop\n        /* \"#utility.yul\":9521:9928   */\n      swap4\n      swap3\n      pop\n      pop\n      pop\n      jump\t// out\n        /* \"#utility.yul\":9934:10033   */\n    tag_673:\n        /* \"#utility.yul\":9986:9992   */\n      0x00\n        /* \"#utility.yul\":10020:10025   */\n      dup2\n        /* \"#utility.yul\":10014:10026   */\n      mload\n        /* \"#utility.yul\":10004:10026   */\n      swap1\n      pop\n        /* \"#utility.yul\":9934:10033   */\n      swap2\n      swap1\n      pop\n      jump\t// out\n        /* \"#utility.yul\":10039:10208   */\n    tag_674:\n        /* \"#utility.yul\":10123:10134   */\n      0x00\n        /* \"#utility.yul\":10157:10163   */\n      dup3\n        /* \"#utility.yul\":10152:10155   */\n      dup3\n        /* \"#utility.yul\":10145:10164   */\n      mstore\n        /* \"#utility.yul\":10197:10201   */\n      0x20\n        /* \"#utility.yul\":10192:10195   */\n      dup3\n        /* \"#utility.yul\":10188:10202   */\n      add\n        /* \"#utility.yul\":10173:10202   */\n      swap1\n      pop\n        /* \"#utility.yul\":10039:10208   */\n      swap3\n      swap2\n      pop\n      pop\n      jump\t// out\n        /* \"#utility.yul\":10214:10591   */\n    tag_675:\n        /* \"#utility.yul\":10302:10305   */\n      0x00\n        /* \"#utility.yul\":10330:10369   */\n      tag_823\n        /* \"#utility.yul\":10363:10368   */\n      dup3\n        /* \"#utility.yul\":10330:10369   */\n      tag_673\n      jump\t// in\n    tag_823:\n        /* \"#utility.yul\":10385:10456   */\n      tag_824\n        /* \"#utility.yul\":10449:10455   */\n      dup2\n        /* \"#utility.yul\":10444:10447   */\n      dup6\n        /* \"#utility.yul\":10385:10456   */\n      tag_674\n      jump\t// in\n    tag_824:\n        /* \"#utility.yul\":10378:10456   */\n      swap4\n      pop\n        /* \"#utility.yul\":10465:10530   */\n      tag_825\n        /* \"#utility.yul\":10523:10529   */\n      dup2\n        /* \"#utility.yul\":10518:10521   */\n      dup6\n        /* \"#utility.yul\":10511:10515   */\n      0x20\n        /* \"#utility.yul\":10504:10509   */\n      dup7\n        /* \"#utility.yul\":10500:10516   */\n      add\n        /* \"#utility.yul\":10465:10530   */\n      tag_671\n      jump\t// in\n    tag_825:\n        /* \"#utility.yul\":10555:10584   */\n      tag_826\n        /* \"#utility.yul\":10577:10583   */\n      dup2\n        /* \"#utility.yul\":10555:10584   */\n      tag_659\n      jump\t// in\n    tag_826:\n        /* \"#utility.yul\":10550:10553   */\n      dup5\n        /* \"#utility.yul\":10546:10585   */\n      add\n        /* \"#utility.yul\":10539:10585   */\n      swap2\n      pop\n        /* \"#utility.yul\":10306:10591   */\n      pop\n        /* \"#utility.yul\":10214:10591   */\n      swap3\n      swap2\n      pop\n      pop\n      jump\t// out\n        /* \"#utility.yul\":10597:10910   */\n    tag_196:\n        /* \"#utility.yul\":10710:10714   */\n      0x00\n        /* \"#utility.yul\":10748:10750   */\n      0x20\n        /* \"#utility.yul\":10737:10746   */\n      dup3\n        /* \"#utility.yul\":10733:10751   */\n      add\n        /* \"#utility.yul\":10725:10751   */\n      swap1\n      pop\n        /* \"#utility.yul\":10797:10806   */\n      dup2\n        /* \"#utility.yul\":10791:10795   */\n      dup2\n        /* \"#utility.yul\":10787:10807   */\n      sub\n        /* \"#utility.yul\":10783:10784   */\n      0x00\n        /* \"#utility.yul\":10772:10781   */\n      dup4\n        /* \"#utility.yul\":10768:10785   */\n      add\n        /* \"#utility.yul\":10761:10808   */\n      mstore\n        /* \"#utility.yul\":10825:10903   */\n      tag_828\n        /* \"#utility.yul\":10898:10902   */\n      dup2\n        /* \"#utility.yul\":10889:10895   */\n      dup5\n        /* \"#utility.yul\":10825:10903   */\n      tag_675\n      jump\t// in\n    tag_828:\n        /* \"#utility.yul\":10817:10903   */\n      swap1\n      pop\n        /* \"#utility.yul\":10597:10910   */\n      swap3\n      swap2\n      pop\n      pop\n      jump\t// out\n        /* \"#utility.yul\":10916:11245   */\n    tag_212:\n        /* \"#utility.yul\":10975:10981   */\n      0x00\n        /* \"#utility.yul\":11024:11026   */\n      0x20\n        /* \"#utility.yul\":11012:11021   */\n      dup3\n        /* \"#utility.yul\":11003:11010   */\n      dup5\n        /* \"#utility.yul\":10999:11022   */\n      sub\n        /* \"#utility.yul\":10995:11027   */\n      slt\n        /* \"#utility.yul\":10992:11111   */\n      iszero\n      tag_830\n      jumpi\n        /* \"#utility.yul\":11030:11109   */\n      tag_831\n      tag_644\n      jump\t// in\n    tag_831:\n        /* \"#utility.yul\":10992:11111   */\n    tag_830:\n        /* \"#utility.yul\":11150:11151   */\n      0x00\n        /* \"#utility.yul\":11175:11228   */\n      tag_832\n        /* \"#utility.yul\":11220:11227   */\n      dup5\n        /* \"#utility.yul\":11211:11217   */\n      dup3\n        /* \"#utility.yul\":11200:11209   */\n      dup6\n        /* \"#utility.yul\":11196:11218   */\n      add\n        /* \"#utility.yul\":11175:11228   */\n      tag_657\n      jump\t// in\n    tag_832:\n        /* \"#utility.yul\":11165:11228   */\n      swap2\n      pop\n        /* \"#utility.yul\":11121:11238   */\n      pop\n        /* \"#utility.yul\":10916:11245   */\n      swap3\n      swap2\n      pop\n      pop\n      jump\t// out\n        /* \"#utility.yul\":11251:12014   */\n    tag_215:\n        /* \"#utility.yul\":11478:11482   */\n      0x00\n        /* \"#utility.yul\":11516:11519   */\n      0xc0\n        /* \"#utility.yul\":11505:11514   */\n      dup3\n        /* \"#utility.yul\":11501:11520   */\n      add\n        /* \"#utility.yul\":11493:11520   */\n      swap1\n      pop\n        /* \"#utility.yul\":11530:11595   */\n      tag_834\n        /* \"#utility.yul\":11592:11593   */\n      0x00\n        /* \"#utility.yul\":11581:11590   */\n      dup4\n        /* \"#utility.yul\":11577:11594   */\n      add\n        /* \"#utility.yul\":11568:11574   */\n      dup10\n        /* \"#utility.yul\":11530:11595   */\n      tag_651\n      jump\t// in\n    tag_834:\n        /* \"#utility.yul\":11605:11677   */\n      tag_835\n        /* \"#utility.yul\":11673:11675   */\n      0x20\n        /* \"#utility.yul\":11662:11671   */\n      dup4\n        /* \"#utility.yul\":11658:11676   */\n      add\n        /* \"#utility.yul\":11649:11655   */\n      dup9\n        /* \"#utility.yul\":11605:11677   */\n      tag_636\n      jump\t// in\n    tag_835:\n        /* \"#utility.yul\":11687:11759   */\n      tag_836\n        /* \"#utility.yul\":11755:11757   */\n      0x40\n        /* \"#utility.yul\":11744:11753   */\n      dup4\n        /* \"#utility.yul\":11740:11758   */\n      add\n        /* \"#utility.yul\":11731:11737   */\n      dup8\n        /* \"#utility.yul\":11687:11759   */\n      tag_636\n      jump\t// in\n    tag_836:\n        /* \"#utility.yul\":11769:11841   */\n      tag_837\n        /* \"#utility.yul\":11837:11839   */\n      0x60\n        /* \"#utility.yul\":11826:11835   */\n      dup4\n        /* \"#utility.yul\":11822:11840   */\n      add\n        /* \"#utility.yul\":11813:11819   */\n      dup7\n        /* \"#utility.yul\":11769:11841   */\n      tag_636\n      jump\t// in\n    tag_837:\n        /* \"#utility.yul\":11851:11924   */\n      tag_838\n        /* \"#utility.yul\":11919:11922   */\n      0x80\n        /* \"#utility.yul\":11908:11917   */\n      dup4\n        /* \"#utility.yul\":11904:11923   */\n      add\n        /* \"#utility.yul\":11895:11901   */\n      dup6\n        /* \"#utility.yul\":11851:11924   */\n      tag_636\n      jump\t// in\n    tag_838:\n        /* \"#utility.yul\":11934:12007   */\n      tag_839\n        /* \"#utility.yul\":12002:12005   */\n      0xa0\n        /* \"#utility.yul\":11991:12000   */\n      dup4\n        /* \"#utility.yul\":11987:12006   */\n      add\n        /* \"#utility.yul\":11978:11984   */\n      dup5\n        /* \"#utility.yul\":11934:12007   */\n      tag_636\n      jump\t// in\n    tag_839:\n        /* \"#utility.yul\":11251:12014   */\n      swap8\n      swap7\n      pop\n      pop\n      pop\n      pop\n      pop\n      pop\n      pop\n      jump\t// out\n        /* \"#utility.yul\":12020:12639   */\n    tag_219:\n        /* \"#utility.yul\":12097:12103   */\n      0x00\n        /* \"#utility.yul\":12105:12111   */\n      dup1\n        /* \"#utility.yul\":12113:12119   */\n      0x00\n        /* \"#utility.yul\":12162:12164   */\n      0x60\n        /* \"#utility.yul\":12150:12159   */\n      dup5\n        /* \"#utility.yul\":12141:12148   */\n      dup7\n        /* \"#utility.yul\":12137:12160   */\n      sub\n        /* \"#utility.yul\":12133:12165   */\n      slt\n        /* \"#utility.yul\":12130:12249   */\n      iszero\n      tag_841\n      jumpi\n        /* \"#utility.yul\":12168:12247   */\n      tag_842\n      tag_644\n      jump\t// in\n    tag_842:\n        /* \"#utility.yul\":12130:12249   */\n    tag_841:\n        /* \"#utility.yul\":12288:12289   */\n      0x00\n        /* \"#utility.yul\":12313:12366   */\n      tag_843\n        /* \"#utility.yul\":12358:12365   */\n      dup7\n        /* \"#utility.yul\":12349:12355   */\n      dup3\n        /* \"#utility.yul\":12338:12347   */\n      dup8\n        /* \"#utility.yul\":12334:12356   */\n      add\n        /* \"#utility.yul\":12313:12366   */\n      tag_657\n      jump\t// in\n    tag_843:\n        /* \"#utility.yul\":12303:12366   */\n      swap4\n      pop\n        /* \"#utility.yul\":12259:12376   */\n      pop\n        /* \"#utility.yul\":12415:12417   */\n      0x20\n        /* \"#utility.yul\":12441:12494   */\n      tag_844\n        /* \"#utility.yul\":12486:12493   */\n      dup7\n        /* \"#utility.yul\":12477:12483   */\n      dup3\n        /* \"#utility.yul\":12466:12475   */\n      dup8\n        /* \"#utility.yul\":12462:12484   */\n      add\n        /* \"#utility.yul\":12441:12494   */\n      tag_657\n      jump\t// in\n    tag_844:\n        /* \"#utility.yul\":12431:12494   */\n      swap3\n      pop\n        /* \"#utility.yul\":12386:12504   */\n      pop\n        /* \"#utility.yul\":12543:12545   */\n      0x40\n        /* \"#utility.yul\":12569:12622   */\n      tag_845\n        /* \"#utility.yul\":12614:12621   */\n      dup7\n        /* \"#utility.yul\":12605:12611   */\n      dup3\n        /* \"#utility.yul\":12594:12603   */\n      dup8\n        /* \"#utility.yul\":12590:12612   */\n      add\n        /* \"#utility.yul\":12569:12622   */\n      tag_657\n      jump\t// in\n    tag_845:\n        /* \"#utility.yul\":12559:12622   */\n      swap2\n      pop\n        /* \"#utility.yul\":12514:12632   */\n      pop\n        /* \"#utility.yul\":12020:12639   */\n      swap3\n      pop\n      swap3\n      pop\n      swap3\n      jump\t// out\n        /* \"#utility.yul\":12645:12761   */\n    tag_676:\n        /* \"#utility.yul\":12715:12736   */\n      tag_847\n        /* \"#utility.yul\":12730:12735   */\n      dup2\n        /* \"#utility.yul\":12715:12736   */\n      tag_650\n      jump\t// in\n    tag_847:\n        /* \"#utility.yul\":12708:12713   */\n      dup2\n        /* \"#utility.yul\":12705:12737   */\n      eq\n        /* \"#utility.yul\":12695:12755   */\n      tag_848\n      jumpi\n        /* \"#utility.yul\":12751:12752   */\n      0x00\n        /* \"#utility.yul\":12748:12749   */\n      dup1\n        /* \"#utility.yul\":12741:12753   */\n      revert\n        /* \"#utility.yul\":12695:12755   */\n    tag_848:\n        /* \"#utility.yul\":12645:12761   */\n      pop\n      jump\t// out\n        /* \"#utility.yul\":12767:12900   */\n    tag_677:\n        /* \"#utility.yul\":12810:12815   */\n      0x00\n        /* \"#utility.yul\":12848:12854   */\n      dup2\n        /* \"#utility.yul\":12835:12855   */\n      calldataload\n        /* \"#utility.yul\":12826:12855   */\n      swap1\n      pop\n        /* \"#utility.yul\":12864:12894   */\n      tag_850\n        /* \"#utility.yul\":12888:12893   */\n      dup2\n        /* \"#utility.yul\":12864:12894   */\n      tag_676\n      jump\t// in\n    tag_850:\n        /* \"#utility.yul\":12767:12900   */\n      swap3\n      swap2\n      pop\n      pop\n      jump\t// out\n        /* \"#utility.yul\":12906:13374   */\n    tag_237:\n        /* \"#utility.yul\":12971:12977   */\n      0x00\n        /* \"#utility.yul\":12979:12985   */\n      dup1\n        /* \"#utility.yul\":13028:13030   */\n      0x40\n        /* \"#utility.yul\":13016:13025   */\n      dup4\n        /* \"#utility.yul\":13007:13014   */\n      dup6\n        /* \"#utility.yul\":13003:13026   */\n      sub\n        /* \"#utility.yul\":12999:13031   */\n      slt\n        /* \"#utility.yul\":12996:13115   */\n      iszero\n      tag_852\n      jumpi\n        /* \"#utility.yul\":13034:13113   */\n      tag_853\n      tag_644\n      jump\t// in\n    tag_853:\n        /* \"#utility.yul\":12996:13115   */\n    tag_852:\n        /* \"#utility.yul\":13154:13155   */\n      0x00\n        /* \"#utility.yul\":13179:13232   */\n      tag_854\n        /* \"#utility.yul\":13224:13231   */\n      dup6\n        /* \"#utility.yul\":13215:13221   */\n      dup3\n        /* \"#utility.yul\":13204:13213   */\n      dup7\n        /* \"#utility.yul\":13200:13222   */\n      add\n        /* \"#utility.yul\":13179:13232   */\n      tag_657\n      jump\t// in\n    tag_854:\n        /* \"#utility.yul\":13169:13232   */\n      swap3\n      pop\n        /* \"#utility.yul\":13125:13242   */\n      pop\n        /* \"#utility.yul\":13281:13283   */\n      0x20\n        /* \"#utility.yul\":13307:13357   */\n      tag_855\n        /* \"#utility.yul\":13349:13356   */\n      dup6\n        /* \"#utility.yul\":13340:13346   */\n      dup3\n        /* \"#utility.yul\":13329:13338   */\n      dup7\n        /* \"#utility.yul\":13325:13347   */\n      add\n        /* \"#utility.yul\":13307:13357   */\n      tag_677\n      jump\t// in\n    tag_855:\n        /* \"#utility.yul\":13297:13357   */\n      swap2\n      pop\n        /* \"#utility.yul\":13252:13367   */\n      pop\n        /* \"#utility.yul\":12906:13374   */\n      swap3\n      pop\n      swap3\n      swap1\n      pop\n      jump\t// out\n        /* \"#utility.yul\":13380:13560   */\n    tag_678:\n        /* \"#utility.yul\":13428:13505   */\n      0x4e487b7100000000000000000000000000000000000000000000000000000000\n        /* \"#utility.yul\":13425:13426   */\n      0x00\n        /* \"#utility.yul\":13418:13506   */\n      mstore\n        /* \"#utility.yul\":13525:13529   */\n      0x11\n        /* \"#utility.yul\":13522:13523   */\n      0x04\n        /* \"#utility.yul\":13515:13530   */\n      mstore\n        /* \"#utility.yul\":13549:13553   */\n      0x24\n        /* \"#utility.yul\":13546:13547   */\n      0x00\n        /* \"#utility.yul\":13539:13554   */\n      revert\n        /* \"#utility.yul\":13566:13799   */\n    tag_262:\n        /* \"#utility.yul\":13605:13608   */\n      0x00\n        /* \"#utility.yul\":13628:13652   */\n      tag_858\n        /* \"#utility.yul\":13646:13651   */\n      dup3\n        /* \"#utility.yul\":13628:13652   */\n      tag_635\n      jump\t// in\n    tag_858:\n        /* \"#utility.yul\":13619:13652   */\n      swap2\n      pop\n        /* \"#utility.yul\":13674:13740   */\n      0xffffffffffffffffffffffffffffffffffffffffffffffffffffffffffffffff\n        /* \"#utility.yul\":13667:13672   */\n      dup3\n        /* \"#utility.yul\":13664:13741   */\n      sub\n        /* \"#utility.yul\":13661:13764   */\n      tag_859\n      jumpi\n        /* \"#utility.yul\":13744:13762   */\n      tag_860\n      tag_678\n      jump\t// in\n    tag_860:\n        /* \"#utility.yul\":13661:13764   */\n    tag_859:\n        /* \"#utility.yul\":13791:13792   */\n      0x01\n        /* \"#utility.yul\":13784:13789   */\n      dup3\n        /* \"#utility.yul\":13780:13793   */\n      add\n        /* \"#utility.yul\":13773:13793   */\n      swap1\n      pop\n        /* \"#utility.yul\":13566:13799   */\n      swap2\n      swap1\n      pop\n      jump\t// out\n        /* \"#utility.yul\":13805:13976   */\n    tag_264:\n        /* \"#utility.yul\":13844:13847   */\n      0x00\n        /* \"#utility.yul\":13867:13891   */\n      tag_862\n        /* \"#utility.yul\":13885:13890   */\n      dup3\n        /* \"#utility.yul\":13867:13891   */\n      tag_635\n      jump\t// in\n    tag_862:\n        /* \"#utility.yul\":13858:13891   */\n      swap2\n      pop\n        /* \"#utility.yul\":13913:13917   */\n      0x00\n        /* \"#utility.yul\":13906:13911   */\n      dup3\n        /* \"#utility.yul\":13903:13918   */\n      sub\n        /* \"#utility.yul\":13900:13941   */\n      tag_863\n      jumpi\n        /* \"#utility.yul\":13921:13939   */\n      tag_864\n      tag_678\n      jump\t// in\n    tag_864:\n        /* \"#utility.yul\":13900:13941   */\n    tag_863:\n        /* \"#utility.yul\":13968:13969   */\n      0x01\n        /* \"#utility.yul\":13961:13966   */\n      dup3\n        /* \"#utility.yul\":13957:13970   */\n      sub\n        /* \"#utility.yul\":13950:13970   */\n      swap1\n      pop\n        /* \"#utility.yul\":13805:13976   */\n      swap2\n      swap1\n      pop\n      jump\t// out\n        /* \"#utility.yul\":13982:14176   */\n    tag_266:\n        /* \"#utility.yul\":14022:14026   */\n      0x00\n        /* \"#utility.yul\":14042:14062   */\n      tag_866\n        /* \"#utility.yul\":14060:14061   */\n      dup3\n        /* \"#utility.yul\":14042:14062   */\n      tag_635\n      jump\t// in\n    tag_866:\n        /* \"#utility.yul\":14037:14062   */\n      swap2\n      pop\n        /* \"#utility.yul\":14076:14096   */\n      tag_867\n        /* \"#utility.yul\":14094:14095   */\n      dup4\n        /* \"#utility.yul\":14076:14096   */\n      tag_635\n      jump\t// in\n    tag_867:\n        /* \"#utility.yul\":14071:14096   */\n      swap3\n      pop\n        /* \"#utility.yul\":14120:14121   */\n      dup3\n        /* \"#utility.yul\":14117:14118   */\n      dup3\n        /* \"#utility.yul\":14113:14122   */\n      sub\n        /* \"#utility.yul\":14105:14122   */\n      swap1\n      pop\n        /* \"#utility.yul\":14144:14145   */\n      dup2\n        /* \"#utility.yul\":14138:14142   */\n      dup2\n        /* \"#utility.yul\":14135:14146   */\n      gt\n        /* \"#utility.yul\":14132:14169   */\n      iszero\n      tag_868\n      jumpi\n        /* \"#utility.yul\":14149:14167   */\n      tag_869\n      tag_678\n      jump\t// in\n    tag_869:\n        /* \"#utility.yul\":14132:14169   */\n    tag_868:\n        /* \"#utility.yul\":13982:14176   */\n      swap3\n      swap2\n      pop\n      pop\n      jump\t// out\n        /* \"#utility.yul\":14182:14624   */\n    tag_268:\n        /* \"#utility.yul\":14331:14335   */\n      0x00\n        /* \"#utility.yul\":14369:14371   */\n      0x60\n        /* \"#utility.yul\":14358:14367   */\n      dup3\n        /* \"#utility.yul\":14354:14372   */\n      add\n        /* \"#utility.yul\":14346:14372   */\n      swap1\n      pop\n        /* \"#utility.yul\":14382:14453   */\n      tag_871\n        /* \"#utility.yul\":14450:14451   */\n      0x00\n        /* \"#utility.yul\":14439:14448   */\n      dup4\n        /* \"#utility.yul\":14435:14452   */\n      add\n        /* \"#utility.yul\":14426:14432   */\n      dup7\n        /* \"#utility.yul\":14382:14453   */\n      tag_636\n      jump\t// in\n    tag_871:\n        /* \"#utility.yul\":14463:14535   */\n      tag_872\n        /* \"#utility.yul\":14531:14533   */\n      0x20\n        /* \"#utility.yul\":14520:14529   */\n      dup4\n        /* \"#utility.yul\":14516:14534   */\n      add\n        /* \"#utility.yul\":14507:14513   */\n      dup6\n        /* \"#utility.yul\":14463:14535   */\n      tag_636\n      jump\t// in\n    tag_872:\n        /* \"#utility.yul\":14545:14617   */\n      tag_873\n        /* \"#utility.yul\":14613:14615   */\n      0x40\n        /* \"#utility.yul\":14602:14611   */\n      dup4\n        /* \"#utility.yul\":14598:14616   */\n      add\n        /* \"#utility.yul\":14589:14595   */\n      dup5\n        /* \"#utility.yul\":14545:14617   */\n      tag_636\n      jump\t// in\n    tag_873:\n        /* \"#utility.yul\":14182:14624   */\n      swap5\n      swap4\n      pop\n      pop\n      pop\n      pop\n      jump\t// out\n        /* \"#utility.yul\":14630:14876   */\n    tag_679:\n        /* \"#utility.yul\":14770:14804   */\n      0x54686973206164647265737320646f6573206e6f742068617665207065726d69\n        /* \"#utility.yul\":14766:14767   */\n      0x00\n        /* \"#utility.yul\":14758:14764   */\n      dup3\n        /* \"#utility.yul\":14754:14768   */\n      add\n        /* \"#utility.yul\":14747:14805   */\n      mstore\n        /* \"#utility.yul\":14839:14868   */\n      0x7373696f6e20746f2063616c6c20706572666f726d55706b6565700000000000\n        /* \"#utility.yul\":14834:14836   */\n      0x20\n        /* \"#utility.yul\":14826:14832   */\n      dup3\n        /* \"#utility.yul\":14822:14837   */\n      add\n        /* \"#utility.yul\":14815:14869   */\n      mstore\n        /* \"#utility.yul\":14630:14876   */\n      pop\n      jump\t// out\n        /* \"#utility.yul\":14882:15248   */\n    tag_680:\n        /* \"#utility.yul\":15024:15027   */\n      0x00\n        /* \"#utility.yul\":15045:15112   */\n      tag_876\n        /* \"#utility.yul\":15109:15111   */\n      0x3b\n        /* \"#utility.yul\":15104:15107   */\n      dup4\n        /* \"#utility.yul\":15045:15112   */\n      tag_674\n      jump\t// in\n    tag_876:\n        /* \"#utility.yul\":15038:15112   */\n      swap2\n      pop\n        /* \"#utility.yul\":15121:15214   */\n      tag_877\n        /* \"#utility.yul\":15210:15213   */\n      dup3\n        /* \"#utility.yul\":15121:15214   */\n      tag_679\n      jump\t// in\n    tag_877:\n        /* \"#utility.yul\":15239:15241   */\n      0x40\n        /* \"#utility.yul\":15234:15237   */\n      dup3\n        /* \"#utility.yul\":15230:15242   */\n      add\n        /* \"#utility.yul\":15223:15242   */\n      swap1\n      pop\n        /* \"#utility.yul\":14882:15248   */\n      swap2\n      swap1\n      pop\n      jump\t// out\n        /* \"#utility.yul\":15254:15673   */\n    tag_272:\n        /* \"#utility.yul\":15420:15424   */\n      0x00\n        /* \"#utility.yul\":15458:15460   */\n      0x20\n        /* \"#utility.yul\":15447:15456   */\n      dup3\n        /* \"#utility.yul\":15443:15461   */\n      add\n        /* \"#utility.yul\":15435:15461   */\n      swap1\n      pop\n        /* \"#utility.yul\":15507:15516   */\n      dup2\n        /* \"#utility.yul\":15501:15505   */\n      dup2\n        /* \"#utility.yul\":15497:15517   */\n      sub\n        /* \"#utility.yul\":15493:15494   */\n      0x00\n        /* \"#utility.yul\":15482:15491   */\n      dup4\n        /* \"#utility.yul\":15478:15495   */\n      add\n        /* \"#utility.yul\":15471:15518   */\n      mstore\n        /* \"#utility.yul\":15535:15666   */\n      tag_879\n        /* \"#utility.yul\":15661:15665   */\n      dup2\n        /* \"#utility.yul\":15535:15666   */\n      tag_680\n      jump\t// in\n    tag_879:\n        /* \"#utility.yul\":15527:15666   */\n      swap1\n      pop\n        /* \"#utility.yul\":15254:15673   */\n      swap2\n      swap1\n      pop\n      jump\t// out\n        /* \"#utility.yul\":15679:15870   */\n    tag_297:\n        /* \"#utility.yul\":15719:15722   */\n      0x00\n        /* \"#utility.yul\":15738:15758   */\n      tag_881\n        /* \"#utility.yul\":15756:15757   */\n      dup3\n        /* \"#utility.yul\":15738:15758   */\n      tag_635\n      jump\t// in\n    tag_881:\n        /* \"#utility.yul\":15733:15758   */\n      swap2\n      pop\n        /* \"#utility.yul\":15772:15792   */\n      tag_882\n        /* \"#utility.yul\":15790:15791   */\n      dup4\n        /* \"#utility.yul\":15772:15792   */\n      tag_635\n      jump\t// in\n    tag_882:\n        /* \"#utility.yul\":15767:15792   */\n      swap3\n      pop\n        /* \"#utility.yul\":15815:15816   */\n      dup3\n        /* \"#utility.yul\":15812:15813   */\n      dup3\n        /* \"#utility.yul\":15808:15817   */\n      add\n        /* \"#utility.yul\":15801:15817   */\n      swap1\n      pop\n        /* \"#utility.yul\":15836:15839   */\n      dup1\n        /* \"#utility.yul\":15833:15834   */\n      dup3\n        /* \"#utility.yul\":15830:15840   */\n      gt\n        /* \"#utility.yul\":15827:15863   */\n      iszero\n      tag_883\n      jumpi\n        /* \"#utility.yul\":15843:15861   */\n      tag_884\n      tag_678\n      jump\t// in\n    tag_884:\n        /* \"#utility.yul\":15827:15863   */\n    tag_883:\n        /* \"#utility.yul\":15679:15870   */\n      swap3\n      swap2\n      pop\n      pop\n      jump\t// out\n        /* \"#utility.yul\":15876:16318   */\n    tag_299:\n        /* \"#utility.yul\":16025:16029   */\n      0x00\n        /* \"#utility.yul\":16063:16065   */\n      0x60\n        /* \"#utility.yul\":16052:16061   */\n      dup3\n        /* \"#utility.yul\":16048:16066   */\n      add\n        /* \"#utility.yul\":16040:16066   */\n      swap1\n      pop\n        /* \"#utility.yul\":16076:16147   */\n      tag_886\n        /* \"#utility.yul\":16144:16145   */\n      0x00\n        /* \"#utility.yul\":16133:16142   */\n      dup4\n        /* \"#utility.yul\":16129:16146   */\n      add\n        /* \"#utility.yul\":16120:16126   */\n      dup7\n        /* \"#utility.yul\":16076:16147   */\n      tag_649\n      jump\t// in\n    tag_886:\n        /* \"#utility.yul\":16157:16229   */\n      tag_887\n        /* \"#utility.yul\":16225:16227   */\n      0x20\n        /* \"#utility.yul\":16214:16223   */\n      dup4\n        /* \"#utility.yul\":16210:16228   */\n      add\n        /* \"#utility.yul\":16201:16207   */\n      dup6\n        /* \"#utility.yul\":16157:16229   */\n      tag_649\n      jump\t// in\n    tag_887:\n        /* \"#utility.yul\":16239:16311   */\n      tag_888\n        /* \"#utility.yul\":16307:16309   */\n      0x40\n        /* \"#utility.yul\":16296:16305   */\n      dup4\n        /* \"#utility.yul\":16292:16310   */\n      add\n        /* \"#utility.yul\":16283:16289   */\n      dup5\n        /* \"#utility.yul\":16239:16311   */\n      tag_636\n      jump\t// in\n    tag_888:\n        /* \"#utility.yul\":15876:16318   */\n      swap5\n      swap4\n      pop\n      pop\n      pop\n      pop\n      jump\t// out\n        /* \"#utility.yul\":16324:16461   */\n    tag_681:\n        /* \"#utility.yul\":16378:16383   */\n      0x00\n        /* \"#utility.yul\":16409:16415   */\n      dup2\n        /* \"#utility.yul\":16403:16416   */\n      mload\n        /* \"#utility.yul\":16394:16416   */\n      swap1\n      pop\n        /* \"#utility.yul\":16425:16455   */\n      tag_890\n        /* \"#utility.yul\":16449:16454   */\n      dup2\n        /* \"#utility.yul\":16425:16455   */\n      tag_676\n      jump\t// in\n    tag_890:\n        /* \"#utility.yul\":16324:16461   */\n      swap3\n      swap2\n      pop\n      pop\n      jump\t// out\n        /* \"#utility.yul\":16467:16812   */\n    tag_303:\n        /* \"#utility.yul\":16534:16540   */\n      0x00\n        /* \"#utility.yul\":16583:16585   */\n      0x20\n        /* \"#utility.yul\":16571:16580   */\n      dup3\n        /* \"#utility.yul\":16562:16569   */\n      dup5\n        /* \"#utility.yul\":16558:16581   */\n      sub\n        /* \"#utility.yul\":16554:16586   */\n      slt\n        /* \"#utility.yul\":16551:16670   */\n      iszero\n      tag_892\n      jumpi\n        /* \"#utility.yul\":16589:16668   */\n      tag_893\n      tag_644\n      jump\t// in\n    tag_893:\n        /* \"#utility.yul\":16551:16670   */\n    tag_892:\n        /* \"#utility.yul\":16709:16710   */\n      0x00\n        /* \"#utility.yul\":16734:16795   */\n      tag_894\n        /* \"#utility.yul\":16787:16794   */\n      dup5\n        /* \"#utility.yul\":16778:16784   */\n      dup3\n        /* \"#utility.yul\":16767:16776   */\n      dup6\n        /* \"#utility.yul\":16763:16785   */\n      add\n        /* \"#utility.yul\":16734:16795   */\n      tag_681\n      jump\t// in\n    tag_894:\n        /* \"#utility.yul\":16724:16795   */\n      swap2\n      pop\n        /* \"#utility.yul\":16680:16805   */\n      pop\n        /* \"#utility.yul\":16467:16812   */\n      swap3\n      swap2\n      pop\n      pop\n      jump\t// out\n        /* \"#utility.yul\":16818:17260   */\n    tag_319:\n        /* \"#utility.yul\":16967:16971   */\n      0x00\n        /* \"#utility.yul\":17005:17007   */\n      0x60\n        /* \"#utility.yul\":16994:17003   */\n      dup3\n        /* \"#utility.yul\":16990:17008   */\n      add\n        /* \"#utility.yul\":16982:17008   */\n      swap1\n      pop\n        /* \"#utility.yul\":17018:17089   */\n      tag_896\n        /* \"#utility.yul\":17086:17087   */\n      0x00\n        /* \"#utility.yul\":17075:17084   */\n      dup4\n        /* \"#utility.yul\":17071:17088   */\n      add\n        /* \"#utility.yul\":17062:17068   */\n      dup7\n        /* \"#utility.yul\":17018:17089   */\n      tag_649\n      jump\t// in\n    tag_896:\n        /* \"#utility.yul\":17099:17171   */\n      tag_897\n        /* \"#utility.yul\":17167:17169   */\n      0x20\n        /* \"#utility.yul\":17156:17165   */\n      dup4\n        /* \"#utility.yul\":17152:17170   */\n      add\n        /* \"#utility.yul\":17143:17149   */\n      dup6\n        /* \"#utility.yul\":17099:17171   */\n      tag_636\n      jump\t// in\n    tag_897:\n        /* \"#utility.yul\":17181:17253   */\n      tag_898\n        /* \"#utility.yul\":17249:17251   */\n      0x40\n        /* \"#utility.yul\":17238:17247   */\n      dup4\n        /* \"#utility.yul\":17234:17252   */\n      add\n        /* \"#utility.yul\":17225:17231   */\n      dup5\n        /* \"#utility.yul\":17181:17253   */\n      tag_636\n      jump\t// in\n    tag_898:\n        /* \"#utility.yul\":16818:17260   */\n      swap5\n      swap4\n      pop\n      pop\n      pop\n      pop\n      jump\t// out\n        /* \"#utility.yul\":17266:17598   */\n    tag_324:\n        /* \"#utility.yul\":17387:17391   */\n      0x00\n        /* \"#utility.yul\":17425:17427   */\n      0x40\n        /* \"#utility.yul\":17414:17423   */\n      dup3\n        /* \"#utility.yul\":17410:17428   */\n      add\n        /* \"#utility.yul\":17402:17428   */\n      swap1\n      pop\n        /* \"#utility.yul\":17438:17509   */\n      tag_900\n        /* \"#utility.yul\":17506:17507   */\n      0x00\n        /* \"#utility.yul\":17495:17504   */\n      dup4\n        /* \"#utility.yul\":17491:17508   */\n      add\n        /* \"#utility.yul\":17482:17488   */\n      dup6\n        /* \"#utility.yul\":17438:17509   */\n      tag_649\n      jump\t// in\n    tag_900:\n        /* \"#utility.yul\":17519:17591   */\n      tag_901\n        /* \"#utility.yul\":17587:17589   */\n      0x20\n        /* \"#utility.yul\":17576:17585   */\n      dup4\n        /* \"#utility.yul\":17572:17590   */\n      add\n        /* \"#utility.yul\":17563:17569   */\n      dup5\n        /* \"#utility.yul\":17519:17591   */\n      tag_636\n      jump\t// in\n    tag_901:\n        /* \"#utility.yul\":17266:17598   */\n      swap4\n      swap3\n      pop\n      pop\n      pop\n      jump\t// out\n        /* \"#utility.yul\":17604:17785   */\n    tag_682:\n        /* \"#utility.yul\":17744:17777   */\n      0x5265656e7472616e637947756172643a207265656e7472616e742063616c6c00\n        /* \"#utility.yul\":17740:17741   */\n      0x00\n        /* \"#utility.yul\":17732:17738   */\n      dup3\n        /* \"#utility.yul\":17728:17742   */\n      add\n        /* \"#utility.yul\":17721:17778   */\n      mstore\n        /* \"#utility.yul\":17604:17785   */\n      pop\n      jump\t// out\n        /* \"#utility.yul\":17791:18157   */\n    tag_683:\n        /* \"#utility.yul\":17933:17936   */\n      0x00\n        /* \"#utility.yul\":17954:18021   */\n      tag_904\n        /* \"#utility.yul\":18018:18020   */\n      0x1f\n        /* \"#utility.yul\":18013:18016   */\n      dup4\n        /* \"#utility.yul\":17954:18021   */\n      tag_674\n      jump\t// in\n    tag_904:\n        /* \"#utility.yul\":17947:18021   */\n      swap2\n      pop\n        /* \"#utility.yul\":18030:18123   */\n      tag_905\n        /* \"#utility.yul\":18119:18122   */\n      dup3\n        /* \"#utility.yul\":18030:18123   */\n      tag_682\n      jump\t// in\n    tag_905:\n        /* \"#utility.yul\":18148:18150   */\n      0x20\n        /* \"#utility.yul\":18143:18146   */\n      dup3\n        /* \"#utility.yul\":18139:18151   */\n      add\n        /* \"#utility.yul\":18132:18151   */\n      swap1\n      pop\n        /* \"#utility.yul\":17791:18157   */\n      swap2\n      swap1\n      pop\n      jump\t// out\n        /* \"#utility.yul\":18163:18582   */\n    tag_328:\n        /* \"#utility.yul\":18329:18333   */\n      0x00\n        /* \"#utility.yul\":18367:18369   */\n      0x20\n        /* \"#utility.yul\":18356:18365   */\n      dup3\n        /* \"#utility.yul\":18352:18370   */\n      add\n        /* \"#utility.yul\":18344:18370   */\n      swap1\n      pop\n        /* \"#utility.yul\":18416:18425   */\n      dup2\n        /* \"#utility.yul\":18410:18414   */\n      dup2\n        /* \"#utility.yul\":18406:18426   */\n      sub\n        /* \"#utility.yul\":18402:18403   */\n      0x00\n        /* \"#utility.yul\":18391:18400   */\n      dup4\n        /* \"#utility.yul\":18387:18404   */\n      add\n        /* \"#utility.yul\":18380:18427   */\n      mstore\n        /* \"#utility.yul\":18444:18575   */\n      tag_907\n        /* \"#utility.yul\":18570:18574   */\n      dup2\n        /* \"#utility.yul\":18444:18575   */\n      tag_683\n      jump\t// in\n    tag_907:\n        /* \"#utility.yul\":18436:18575   */\n      swap1\n      pop\n        /* \"#utility.yul\":18163:18582   */\n      swap2\n      swap1\n      pop\n      jump\t// out\n        /* \"#utility.yul\":18588:18754   */\n    tag_684:\n        /* \"#utility.yul\":18728:18746   */\n      0x696e76616c6964205f616d6f756e742100000000000000000000000000000000\n        /* \"#utility.yul\":18724:18725   */\n      0x00\n        /* \"#utility.yul\":18716:18722   */\n      dup3\n        /* \"#utility.yul\":18712:18726   */\n      add\n        /* \"#utility.yul\":18705:18747   */\n      mstore\n        /* \"#utility.yul\":18588:18754   */\n      pop\n      jump\t// out\n        /* \"#utility.yul\":18760:19126   */\n    tag_685:\n        /* \"#utility.yul\":18902:18905   */\n      0x00\n        /* \"#utility.yul\":18923:18990   */\n      tag_910\n        /* \"#utility.yul\":18987:18989   */\n      0x10\n        /* \"#utility.yul\":18982:18985   */\n      dup4\n        /* \"#utility.yul\":18923:18990   */\n      tag_674\n      jump\t// in\n    tag_910:\n        /* \"#utility.yul\":18916:18990   */\n      swap2\n      pop\n        /* \"#utility.yul\":18999:19092   */\n      tag_911\n        /* \"#utility.yul\":19088:19091   */\n      dup3\n        /* \"#utility.yul\":18999:19092   */\n      tag_684\n      jump\t// in\n    tag_911:\n        /* \"#utility.yul\":19117:19119   */\n      0x20\n        /* \"#utility.yul\":19112:19115   */\n      dup3\n        /* \"#utility.yul\":19108:19120   */\n      add\n        /* \"#utility.yul\":19101:19120   */\n      swap1\n      pop\n        /* \"#utility.yul\":18760:19126   */\n      swap2\n      swap1\n      pop\n      jump\t// out\n        /* \"#utility.yul\":19132:19551   */\n    tag_334:\n        /* \"#utility.yul\":19298:19302   */\n      0x00\n        /* \"#utility.yul\":19336:19338   */\n      0x20\n        /* \"#utility.yul\":19325:19334   */\n      dup3\n        /* \"#utility.yul\":19321:19339   */\n      add\n        /* \"#utility.yul\":19313:19339   */\n      swap1\n      pop\n        /* \"#utility.yul\":19385:19394   */\n      dup2\n        /* \"#utility.yul\":19379:19383   */\n      dup2\n        /* \"#utility.yul\":19375:19395   */\n      sub\n        /* \"#utility.yul\":19371:19372   */\n      0x00\n        /* \"#utility.yul\":19360:19369   */\n      dup4\n        /* \"#utility.yul\":19356:19373   */\n      add\n        /* \"#utility.yul\":19349:19396   */\n      mstore\n        /* \"#utility.yul\":19413:19544   */\n      tag_913\n        /* \"#utility.yul\":19539:19543   */\n      dup2\n        /* \"#utility.yul\":19413:19544   */\n      tag_685\n      jump\t// in\n    tag_913:\n        /* \"#utility.yul\":19405:19544   */\n      swap1\n      pop\n        /* \"#utility.yul\":19132:19551   */\n      swap2\n      swap1\n      pop\n      jump\t// out\n        /* \"#utility.yul\":19557:19889   */\n    tag_418:\n        /* \"#utility.yul\":19678:19682   */\n      0x00\n        /* \"#utility.yul\":19716:19718   */\n      0x40\n        /* \"#utility.yul\":19705:19714   */\n      dup3\n        /* \"#utility.yul\":19701:19719   */\n      add\n        /* \"#utility.yul\":19693:19719   */\n      swap1\n      pop\n        /* \"#utility.yul\":19729:19800   */\n      tag_915\n        /* \"#utility.yul\":19797:19798   */\n      0x00\n        /* \"#utility.yul\":19786:19795   */\n      dup4\n        /* \"#utility.yul\":19782:19799   */\n      add\n        /* \"#utility.yul\":19773:19779   */\n      dup6\n        /* \"#utility.yul\":19729:19800   */\n      tag_636\n      jump\t// in\n    tag_915:\n        /* \"#utility.yul\":19810:19882   */\n      tag_916\n        /* \"#utility.yul\":19878:19880   */\n      0x20\n        /* \"#utility.yul\":19867:19876   */\n      dup4\n        /* \"#utility.yul\":19863:19881   */\n      add\n        /* \"#utility.yul\":19854:19860   */\n      dup5\n        /* \"#utility.yul\":19810:19882   */\n      tag_636\n      jump\t// in\n    tag_916:\n        /* \"#utility.yul\":19557:19889   */\n      swap4\n      swap3\n      pop\n      pop\n      pop\n      jump\t// out\n        /* \"#utility.yul\":19895:19980   */\n    tag_686:\n        /* \"#utility.yul\":19940:19947   */\n      0x00\n        /* \"#utility.yul\":19969:19974   */\n      dup2\n        /* \"#utility.yul\":19958:19974   */\n      swap1\n      pop\n        /* \"#utility.yul\":19895:19980   */\n      swap2\n      swap1\n      pop\n      jump\t// out\n        /* \"#utility.yul\":19986:20087   */\n    tag_687:\n        /* \"#utility.yul\":20022:20029   */\n      0x00\n        /* \"#utility.yul\":20062:20080   */\n      0xffffffffffffffff\n        /* \"#utility.yul\":20055:20060   */\n      dup3\n        /* \"#utility.yul\":20051:20081   */\n      and\n        /* \"#utility.yul\":20040:20081   */\n      swap1\n      pop\n        /* \"#utility.yul\":19986:20087   */\n      swap2\n      swap1\n      pop\n      jump\t// out\n        /* \"#utility.yul\":20093:20249   */\n    tag_688:\n        /* \"#utility.yul\":20150:20159   */\n      0x00\n        /* \"#utility.yul\":20183:20243   */\n      tag_920\n        /* \"#utility.yul\":20200:20242   */\n      tag_921\n        /* \"#utility.yul\":20209:20241   */\n      tag_922\n        /* \"#utility.yul\":20235:20240   */\n      dup5\n        /* \"#utility.yul\":20209:20241   */\n      tag_686\n      jump\t// in\n    tag_922:\n        /* \"#utility.yul\":20200:20242   */\n      tag_638\n      jump\t// in\n    tag_921:\n        /* \"#utility.yul\":20183:20243   */\n      tag_687\n      jump\t// in\n    tag_920:\n        /* \"#utility.yul\":20170:20243   */\n      swap1\n      pop\n        /* \"#utility.yul\":20093:20249   */\n      swap2\n      swap1\n      pop\n      jump\t// out\n        /* \"#utility.yul\":20255:20400   */\n    tag_689:\n        /* \"#utility.yul\":20349:20393   */\n      tag_924\n        /* \"#utility.yul\":20387:20392   */\n      dup2\n        /* \"#utility.yul\":20349:20393   */\n      tag_688\n      jump\t// in\n    tag_924:\n        /* \"#utility.yul\":20344:20347   */\n      dup3\n        /* \"#utility.yul\":20337:20394   */\n      mstore\n        /* \"#utility.yul\":20255:20400   */\n      pop\n      pop\n      jump\t// out\n        /* \"#utility.yul\":20406:20642   */\n    tag_449:\n        /* \"#utility.yul\":20506:20510   */\n      0x00\n        /* \"#utility.yul\":20544:20546   */\n      0x20\n        /* \"#utility.yul\":20533:20542   */\n      dup3\n        /* \"#utility.yul\":20529:20547   */\n      add\n        /* \"#utility.yul\":20521:20547   */\n      swap1\n      pop\n        /* \"#utility.yul\":20557:20635   */\n      tag_926\n        /* \"#utility.yul\":20632:20633   */\n      0x00\n        /* \"#utility.yul\":20621:20630   */\n      dup4\n        /* \"#utility.yul\":20617:20634   */\n      add\n        /* \"#utility.yul\":20608:20614   */\n      dup5\n        /* \"#utility.yul\":20557:20635   */\n      tag_689\n      jump\t// in\n    tag_926:\n        /* \"#utility.yul\":20406:20642   */\n      swap3\n      swap2\n      pop\n      pop\n      jump\t// out\n        /* \"#utility.yul\":20648:20980   */\n    tag_456:\n        /* \"#utility.yul\":20769:20773   */\n      0x00\n        /* \"#utility.yul\":20807:20809   */\n      0x40\n        /* \"#utility.yul\":20796:20805   */\n      dup3\n        /* \"#utility.yul\":20792:20810   */\n      add\n        /* \"#utility.yul\":20784:20810   */\n      swap1\n      pop\n        /* \"#utility.yul\":20820:20891   */\n      tag_928\n        /* \"#utility.yul\":20888:20889   */\n      0x00\n        /* \"#utility.yul\":20877:20886   */\n      dup4\n        /* \"#utility.yul\":20873:20890   */\n      add\n        /* \"#utility.yul\":20864:20870   */\n      dup6\n        /* \"#utility.yul\":20820:20891   */\n      tag_649\n      jump\t// in\n    tag_928:\n        /* \"#utility.yul\":20901:20973   */\n      tag_929\n        /* \"#utility.yul\":20969:20971   */\n      0x20\n        /* \"#utility.yul\":20958:20967   */\n      dup4\n        /* \"#utility.yul\":20954:20972   */\n      add\n        /* \"#utility.yul\":20945:20951   */\n      dup5\n        /* \"#utility.yul\":20901:20973   */\n      tag_649\n      jump\t// in\n    tag_929:\n        /* \"#utility.yul\":20648:20980   */\n      swap4\n      swap3\n      pop\n      pop\n      pop\n      jump\t// out\n        /* \"#utility.yul\":20986:21416   */\n    tag_468:\n        /* \"#utility.yul\":21129:21133   */\n      0x00\n        /* \"#utility.yul\":21167:21169   */\n      0x60\n        /* \"#utility.yul\":21156:21165   */\n      dup3\n        /* \"#utility.yul\":21152:21170   */\n      add\n        /* \"#utility.yul\":21144:21170   */\n      swap1\n      pop\n        /* \"#utility.yul\":21180:21251   */\n      tag_931\n        /* \"#utility.yul\":21248:21249   */\n      0x00\n        /* \"#utility.yul\":21237:21246   */\n      dup4\n        /* \"#utility.yul\":21233:21250   */\n      add\n        /* \"#utility.yul\":21224:21230   */\n      dup7\n        /* \"#utility.yul\":21180:21251   */\n      tag_649\n      jump\t// in\n    tag_931:\n        /* \"#utility.yul\":21261:21333   */\n      tag_932\n        /* \"#utility.yul\":21329:21331   */\n      0x20\n        /* \"#utility.yul\":21318:21327   */\n      dup4\n        /* \"#utility.yul\":21314:21332   */\n      add\n        /* \"#utility.yul\":21305:21311   */\n      dup6\n        /* \"#utility.yul\":21261:21333   */\n      tag_649\n      jump\t// in\n    tag_932:\n        /* \"#utility.yul\":21343:21409   */\n      tag_933\n        /* \"#utility.yul\":21405:21407   */\n      0x40\n        /* \"#utility.yul\":21394:21403   */\n      dup4\n        /* \"#utility.yul\":21390:21408   */\n      add\n        /* \"#utility.yul\":21381:21387   */\n      dup5\n        /* \"#utility.yul\":21343:21409   */\n      tag_651\n      jump\t// in\n    tag_933:\n        /* \"#utility.yul\":20986:21416   */\n      swap5\n      swap4\n      pop\n      pop\n      pop\n      pop\n      jump\t// out\n        /* \"#utility.yul\":21422:21589   */\n    tag_690:\n        /* \"#utility.yul\":21562:21581   */\n      0x6e6f7420656e6f75676820616d6f756e74000000000000000000000000000000\n        /* \"#utility.yul\":21558:21559   */\n      0x00\n        /* \"#utility.yul\":21550:21556   */\n      dup3\n        /* \"#utility.yul\":21546:21560   */\n      add\n        /* \"#utility.yul\":21539:21582   */\n      mstore\n        /* \"#utility.yul\":21422:21589   */\n      pop\n      jump\t// out\n        /* \"#utility.yul\":21595:21961   */\n    tag_691:\n        /* \"#utility.yul\":21737:21740   */\n      0x00\n        /* \"#utility.yul\":21758:21825   */\n      tag_936\n        /* \"#utility.yul\":21822:21824   */\n      0x11\n        /* \"#utility.yul\":21817:21820   */\n      dup4\n        /* \"#utility.yul\":21758:21825   */\n      tag_674\n      jump\t// in\n    tag_936:\n        /* \"#utility.yul\":21751:21825   */\n      swap2\n      pop\n        /* \"#utility.yul\":21834:21927   */\n      tag_937\n        /* \"#utility.yul\":21923:21926   */\n      dup3\n        /* \"#utility.yul\":21834:21927   */\n      tag_690\n      jump\t// in\n    tag_937:\n        /* \"#utility.yul\":21952:21954   */\n      0x20\n        /* \"#utility.yul\":21947:21950   */\n      dup3\n        /* \"#utility.yul\":21943:21955   */\n      add\n        /* \"#utility.yul\":21936:21955   */\n      swap1\n      pop\n        /* \"#utility.yul\":21595:21961   */\n      swap2\n      swap1\n      pop\n      jump\t// out\n        /* \"#utility.yul\":21967:22386   */\n    tag_475:\n        /* \"#utility.yul\":22133:22137   */\n      0x00\n        /* \"#utility.yul\":22171:22173   */\n      0x20\n        /* \"#utility.yul\":22160:22169   */\n      dup3\n        /* \"#utility.yul\":22156:22174   */\n      add\n        /* \"#utility.yul\":22148:22174   */\n      swap1\n      pop\n        /* \"#utility.yul\":22220:22229   */\n      dup2\n        /* \"#utility.yul\":22214:22218   */\n      dup2\n        /* \"#utility.yul\":22210:22230   */\n      sub\n        /* \"#utility.yul\":22206:22207   */\n      0x00\n        /* \"#utility.yul\":22195:22204   */\n      dup4\n        /* \"#utility.yul\":22191:22208   */\n      add\n        /* \"#utility.yul\":22184:22231   */\n      mstore\n        /* \"#utility.yul\":22248:22379   */\n      tag_939\n        /* \"#utility.yul\":22374:22378   */\n      dup2\n        /* \"#utility.yul\":22248:22379   */\n      tag_691\n      jump\t// in\n    tag_939:\n        /* \"#utility.yul\":22240:22379   */\n      swap1\n      pop\n        /* \"#utility.yul\":21967:22386   */\n      swap2\n      swap1\n      pop\n      jump\t// out\n        /* \"#utility.yul\":22392:22802   */\n    tag_481:\n        /* \"#utility.yul\":22432:22439   */\n      0x00\n        /* \"#utility.yul\":22455:22475   */\n      tag_941\n        /* \"#utility.yul\":22473:22474   */\n      dup3\n        /* \"#utility.yul\":22455:22475   */\n      tag_635\n      jump\t// in\n    tag_941:\n        /* \"#utility.yul\":22450:22475   */\n      swap2\n      pop\n        /* \"#utility.yul\":22489:22509   */\n      tag_942\n        /* \"#utility.yul\":22507:22508   */\n      dup4\n        /* \"#utility.yul\":22489:22509   */\n      tag_635\n      jump\t// in\n    tag_942:\n        /* \"#utility.yul\":22484:22509   */\n      swap3\n      pop\n        /* \"#utility.yul\":22544:22545   */\n      dup3\n        /* \"#utility.yul\":22541:22542   */\n      dup3\n        /* \"#utility.yul\":22537:22546   */\n      mul\n        /* \"#utility.yul\":22566:22596   */\n      tag_943\n        /* \"#utility.yul\":22584:22595   */\n      dup2\n        /* \"#utility.yul\":22566:22596   */\n      tag_635\n      jump\t// in\n    tag_943:\n        /* \"#utility.yul\":22555:22596   */\n      swap2\n      pop\n        /* \"#utility.yul\":22745:22746   */\n      dup3\n        /* \"#utility.yul\":22736:22743   */\n      dup3\n        /* \"#utility.yul\":22732:22747   */\n      div\n        /* \"#utility.yul\":22729:22730   */\n      dup5\n        /* \"#utility.yul\":22726:22748   */\n      eq\n        /* \"#utility.yul\":22706:22707   */\n      dup4\n        /* \"#utility.yul\":22699:22708   */\n      iszero\n        /* \"#utility.yul\":22679:22762   */\n      or\n        /* \"#utility.yul\":22656:22795   */\n      tag_944\n      jumpi\n        /* \"#utility.yul\":22775:22793   */\n      tag_945\n      tag_678\n      jump\t// in\n    tag_945:\n        /* \"#utility.yul\":22656:22795   */\n    tag_944:\n        /* \"#utility.yul\":22440:22802   */\n      pop\n        /* \"#utility.yul\":22392:22802   */\n      swap3\n      swap2\n      pop\n      pop\n      jump\t// out\n        /* \"#utility.yul\":22808:22988   */\n    tag_692:\n        /* \"#utility.yul\":22856:22933   */\n      0x4e487b7100000000000000000000000000000000000000000000000000000000\n        /* \"#utility.yul\":22853:22854   */\n      0x00\n        /* \"#utility.yul\":22846:22934   */\n      mstore\n        /* \"#utility.yul\":22953:22957   */\n      0x12\n        /* \"#utility.yul\":22950:22951   */\n      0x04\n        /* \"#utility.yul\":22943:22958   */\n      mstore\n        /* \"#utility.yul\":22977:22981   */\n      0x24\n        /* \"#utility.yul\":22974:22975   */\n      0x00\n        /* \"#utility.yul\":22967:22982   */\n      revert\n        /* \"#utility.yul\":22994:23179   */\n    tag_483:\n        /* \"#utility.yul\":23034:23035   */\n      0x00\n        /* \"#utility.yul\":23051:23071   */\n      tag_948\n        /* \"#utility.yul\":23069:23070   */\n      dup3\n        /* \"#utility.yul\":23051:23071   */\n      tag_635\n      jump\t// in\n    tag_948:\n        /* \"#utility.yul\":23046:23071   */\n      swap2\n      pop\n        /* \"#utility.yul\":23085:23105   */\n      tag_949\n        /* \"#utility.yul\":23103:23104   */\n      dup4\n        /* \"#utility.yul\":23085:23105   */\n      tag_635\n      jump\t// in\n    tag_949:\n        /* \"#utility.yul\":23080:23105   */\n      swap3\n      pop\n        /* \"#utility.yul\":23124:23125   */\n      dup3\n        /* \"#utility.yul\":23114:23149   */\n      tag_950\n      jumpi\n        /* \"#utility.yul\":23129:23147   */\n      tag_951\n      tag_692\n      jump\t// in\n    tag_951:\n        /* \"#utility.yul\":23114:23149   */\n    tag_950:\n        /* \"#utility.yul\":23171:23172   */\n      dup3\n        /* \"#utility.yul\":23168:23169   */\n      dup3\n        /* \"#utility.yul\":23164:23173   */\n      div\n        /* \"#utility.yul\":23159:23173   */\n      swap1\n      pop\n        /* \"#utility.yul\":22994:23179   */\n      swap3\n      swap2\n      pop\n      pop\n      jump\t// out\n        /* \"#utility.yul\":23185:23361   */\n    tag_693:\n        /* \"#utility.yul\":23325:23353   */\n      0x416d6f756e742069732067726561746572207468656e20353025000000000000\n        /* \"#utility.yul\":23321:23322   */\n      0x00\n        /* \"#utility.yul\":23313:23319   */\n      dup3\n        /* \"#utility.yul\":23309:23323   */\n      add\n        /* \"#utility.yul\":23302:23354   */\n      mstore\n        /* \"#utility.yul\":23185:23361   */\n      pop\n      jump\t// out\n        /* \"#utility.yul\":23367:23733   */\n    tag_694:\n        /* \"#utility.yul\":23509:23512   */\n      0x00\n        /* \"#utility.yul\":23530:23597   */\n      tag_954\n        /* \"#utility.yul\":23594:23596   */\n      0x1a\n        /* \"#utility.yul\":23589:23592   */\n      dup4\n        /* \"#utility.yul\":23530:23597   */\n      tag_674\n      jump\t// in\n    tag_954:\n        /* \"#utility.yul\":23523:23597   */\n      swap2\n      pop\n        /* \"#utility.yul\":23606:23699   */\n      tag_955\n        /* \"#utility.yul\":23695:23698   */\n      dup3\n        /* \"#utility.yul\":23606:23699   */\n      tag_693\n      jump\t// in\n    tag_955:\n        /* \"#utility.yul\":23724:23726   */\n      0x20\n        /* \"#utility.yul\":23719:23722   */\n      dup3\n        /* \"#utility.yul\":23715:23727   */\n      add\n        /* \"#utility.yul\":23708:23727   */\n      swap1\n      pop\n        /* \"#utility.yul\":23367:23733   */\n      swap2\n      swap1\n      pop\n      jump\t// out\n        /* \"#utility.yul\":23739:24158   */\n    tag_493:\n        /* \"#utility.yul\":23905:23909   */\n      0x00\n        /* \"#utility.yul\":23943:23945   */\n      0x20\n        /* \"#utility.yul\":23932:23941   */\n      dup3\n        /* \"#utility.yul\":23928:23946   */\n      add\n        /* \"#utility.yul\":23920:23946   */\n      swap1\n      pop\n        /* \"#utility.yul\":23992:24001   */\n      dup2\n        /* \"#utility.yul\":23986:23990   */\n      dup2\n        /* \"#utility.yul\":23982:24002   */\n      sub\n        /* \"#utility.yul\":23978:23979   */\n      0x00\n        /* \"#utility.yul\":23967:23976   */\n      dup4\n        /* \"#utility.yul\":23963:23980   */\n      add\n        /* \"#utility.yul\":23956:24003   */\n      mstore\n        /* \"#utility.yul\":24020:24151   */\n      tag_957\n        /* \"#utility.yul\":24146:24150   */\n      dup2\n        /* \"#utility.yul\":24020:24151   */\n      tag_694\n      jump\t// in\n    tag_957:\n        /* \"#utility.yul\":24012:24151   */\n      swap1\n      pop\n        /* \"#utility.yul\":23739:24158   */\n      swap2\n      swap1\n      pop\n      jump\t// out\n        /* \"#utility.yul\":24164:24286   */\n    tag_695:\n        /* \"#utility.yul\":24237:24261   */\n      tag_959\n        /* \"#utility.yul\":24255:24260   */\n      dup2\n        /* \"#utility.yul\":24237:24261   */\n      tag_667\n      jump\t// in\n    tag_959:\n        /* \"#utility.yul\":24230:24235   */\n      dup2\n        /* \"#utility.yul\":24227:24262   */\n      eq\n        /* \"#utility.yul\":24217:24280   */\n      tag_960\n      jumpi\n        /* \"#utility.yul\":24276:24277   */\n      0x00\n        /* \"#utility.yul\":24273:24274   */\n      dup1\n        /* \"#utility.yul\":24266:24278   */\n      revert\n        /* \"#utility.yul\":24217:24280   */\n    tag_960:\n        /* \"#utility.yul\":24164:24286   */\n      pop\n      jump\t// out\n        /* \"#utility.yul\":24292:24435   */\n    tag_696:\n        /* \"#utility.yul\":24349:24354   */\n      0x00\n        /* \"#utility.yul\":24380:24386   */\n      dup2\n        /* \"#utility.yul\":24374:24387   */\n      mload\n        /* \"#utility.yul\":24365:24387   */\n      swap1\n      pop\n        /* \"#utility.yul\":24396:24429   */\n      tag_962\n        /* \"#utility.yul\":24423:24428   */\n      dup2\n        /* \"#utility.yul\":24396:24429   */\n      tag_695\n      jump\t// in\n    tag_962:\n        /* \"#utility.yul\":24292:24435   */\n      swap3\n      swap2\n      pop\n      pop\n      jump\t// out\n        /* \"#utility.yul\":24441:24792   */\n    tag_525:\n        /* \"#utility.yul\":24511:24517   */\n      0x00\n        /* \"#utility.yul\":24560:24562   */\n      0x20\n        /* \"#utility.yul\":24548:24557   */\n      dup3\n        /* \"#utility.yul\":24539:24546   */\n      dup5\n        /* \"#utility.yul\":24535:24558   */\n      sub\n        /* \"#utility.yul\":24531:24563   */\n      slt\n        /* \"#utility.yul\":24528:24647   */\n      iszero\n      tag_964\n      jumpi\n        /* \"#utility.yul\":24566:24645   */\n      tag_965\n      tag_644\n      jump\t// in\n    tag_965:\n        /* \"#utility.yul\":24528:24647   */\n    tag_964:\n        /* \"#utility.yul\":24686:24687   */\n      0x00\n        /* \"#utility.yul\":24711:24775   */\n      tag_966\n        /* \"#utility.yul\":24767:24774   */\n      dup5\n        /* \"#utility.yul\":24758:24764   */\n      dup3\n        /* \"#utility.yul\":24747:24756   */\n      dup6\n        /* \"#utility.yul\":24743:24765   */\n      add\n        /* \"#utility.yul\":24711:24775   */\n      tag_696\n      jump\t// in\n    tag_966:\n        /* \"#utility.yul\":24701:24775   */\n      swap2\n      pop\n        /* \"#utility.yul\":24657:24785   */\n      pop\n        /* \"#utility.yul\":24441:24792   */\n      swap3\n      swap2\n      pop\n      pop\n      jump\t// out\n        /* \"#utility.yul\":24798:24957   */\n    tag_697:\n        /* \"#utility.yul\":24938:24949   */\n      0x6e6f207573657273210000000000000000000000000000000000000000000000\n        /* \"#utility.yul\":24934:24935   */\n      0x00\n        /* \"#utility.yul\":24926:24932   */\n      dup3\n        /* \"#utility.yul\":24922:24936   */\n      add\n        /* \"#utility.yul\":24915:24950   */\n      mstore\n        /* \"#utility.yul\":24798:24957   */\n      pop\n      jump\t// out\n        /* \"#utility.yul\":24963:25328   */\n    tag_698:\n        /* \"#utility.yul\":25105:25108   */\n      0x00\n        /* \"#utility.yul\":25126:25192   */\n      tag_969\n        /* \"#utility.yul\":25190:25191   */\n      0x09\n        /* \"#utility.yul\":25185:25188   */\n      dup4\n        /* \"#utility.yul\":25126:25192   */\n      tag_674\n      jump\t// in\n    tag_969:\n        /* \"#utility.yul\":25119:25192   */\n      swap2\n      pop\n        /* \"#utility.yul\":25201:25294   */\n      tag_970\n        /* \"#utility.yul\":25290:25293   */\n      dup3\n        /* \"#utility.yul\":25201:25294   */\n      tag_697\n      jump\t// in\n    tag_970:\n        /* \"#utility.yul\":25319:25321   */\n      0x20\n        /* \"#utility.yul\":25314:25317   */\n      dup3\n        /* \"#utility.yul\":25310:25322   */\n      add\n        /* \"#utility.yul\":25303:25322   */\n      swap1\n      pop\n        /* \"#utility.yul\":24963:25328   */\n      swap2\n      swap1\n      pop\n      jump\t// out\n        /* \"#utility.yul\":25334:25753   */\n    tag_565:\n        /* \"#utility.yul\":25500:25504   */\n      0x00\n        /* \"#utility.yul\":25538:25540   */\n      0x20\n        /* \"#utility.yul\":25527:25536   */\n      dup3\n        /* \"#utility.yul\":25523:25541   */\n      add\n        /* \"#utility.yul\":25515:25541   */\n      swap1\n      pop\n        /* \"#utility.yul\":25587:25596   */\n      dup2\n        /* \"#utility.yul\":25581:25585   */\n      dup2\n        /* \"#utility.yul\":25577:25597   */\n      sub\n        /* \"#utility.yul\":25573:25574   */\n      0x00\n        /* \"#utility.yul\":25562:25571   */\n      dup4\n        /* \"#utility.yul\":25558:25575   */\n      add\n        /* \"#utility.yul\":25551:25598   */\n      mstore\n        /* \"#utility.yul\":25615:25746   */\n      tag_972\n        /* \"#utility.yul\":25741:25745   */\n      dup2\n        /* \"#utility.yul\":25615:25746   */\n      tag_698\n      jump\t// in\n    tag_972:\n        /* \"#utility.yul\":25607:25746   */\n      swap1\n      pop\n        /* \"#utility.yul\":25334:25753   */\n      swap2\n      swap1\n      pop\n      jump\t// out\n        /* \"#utility.yul\":25759:25979   */\n    tag_699:\n        /* \"#utility.yul\":25899:25933   */\n      0x5f746f74616c5374616b65416d6f756e742063616e206e6f74206265207a6572\n        /* \"#utility.yul\":25895:25896   */\n      0x00\n        /* \"#utility.yul\":25887:25893   */\n      dup3\n        /* \"#utility.yul\":25883:25897   */\n      add\n        /* \"#utility.yul\":25876:25934   */\n      mstore\n        /* \"#utility.yul\":25968:25971   */\n      0x6f00000000000000000000000000000000000000000000000000000000000000\n        /* \"#utility.yul\":25963:25965   */\n      0x20\n        /* \"#utility.yul\":25955:25961   */\n      dup3\n        /* \"#utility.yul\":25951:25966   */\n      add\n        /* \"#utility.yul\":25944:25972   */\n      mstore\n        /* \"#utility.yul\":25759:25979   */\n      pop\n      jump\t// out\n        /* \"#utility.yul\":25985:26351   */\n    tag_700:\n        /* \"#utility.yul\":26127:26130   */\n      0x00\n        /* \"#utility.yul\":26148:26215   */\n      tag_975\n        /* \"#utility.yul\":26212:26214   */\n      0x21\n        /* \"#utility.yul\":26207:26210   */\n      dup4\n        /* \"#utility.yul\":26148:26215   */\n      tag_674\n      jump\t// in\n    tag_975:\n        /* \"#utility.yul\":26141:26215   */\n      swap2\n      pop\n        /* \"#utility.yul\":26224:26317   */\n      tag_976\n        /* \"#utility.yul\":26313:26316   */\n      dup3\n        /* \"#utility.yul\":26224:26317   */\n      tag_699\n      jump\t// in\n    tag_976:\n        /* \"#utility.yul\":26342:26344   */\n      0x40\n        /* \"#utility.yul\":26337:26340   */\n      dup3\n        /* \"#utility.yul\":26333:26345   */\n      add\n        /* \"#utility.yul\":26326:26345   */\n      swap1\n      pop\n        /* \"#utility.yul\":25985:26351   */\n      swap2\n      swap1\n      pop\n      jump\t// out\n        /* \"#utility.yul\":26357:26776   */\n    tag_579:\n        /* \"#utility.yul\":26523:26527   */\n      0x00\n        /* \"#utility.yul\":26561:26563   */\n      0x20\n        /* \"#utility.yul\":26550:26559   */\n      dup3\n        /* \"#utility.yul\":26546:26564   */\n      add\n        /* \"#utility.yul\":26538:26564   */\n      swap1\n      pop\n        /* \"#utility.yul\":26610:26619   */\n      dup2\n        /* \"#utility.yul\":26604:26608   */\n      dup2\n        /* \"#utility.yul\":26600:26620   */\n      sub\n        /* \"#utility.yul\":26596:26597   */\n      0x00\n        /* \"#utility.yul\":26585:26594   */\n      dup4\n        /* \"#utility.yul\":26581:26598   */\n      add\n        /* \"#utility.yul\":26574:26621   */\n      mstore\n        /* \"#utility.yul\":26638:26769   */\n      tag_978\n        /* \"#utility.yul\":26764:26768   */\n      dup2\n        /* \"#utility.yul\":26638:26769   */\n      tag_700\n      jump\t// in\n    tag_978:\n        /* \"#utility.yul\":26630:26769   */\n      swap1\n      pop\n        /* \"#utility.yul\":26357:26776   */\n      swap2\n      swap1\n      pop\n      jump\t// out\n        /* \"#utility.yul\":26782:26929   */\n    tag_701:\n        /* \"#utility.yul\":26883:26894   */\n      0x00\n        /* \"#utility.yul\":26920:26923   */\n      dup2\n        /* \"#utility.yul\":26905:26923   */\n      swap1\n      pop\n        /* \"#utility.yul\":26782:26929   */\n      swap3\n      swap2\n      pop\n      pop\n      jump\t// out\n        /* \"#utility.yul\":26935:27321   */\n    tag_702:\n        /* \"#utility.yul\":27039:27042   */\n      0x00\n        /* \"#utility.yul\":27067:27105   */\n      tag_981\n        /* \"#utility.yul\":27099:27104   */\n      dup3\n        /* \"#utility.yul\":27067:27105   */\n      tag_669\n      jump\t// in\n    tag_981:\n        /* \"#utility.yul\":27121:27209   */\n      tag_982\n        /* \"#utility.yul\":27202:27208   */\n      dup2\n        /* \"#utility.yul\":27197:27200   */\n      dup6\n        /* \"#utility.yul\":27121:27209   */\n      tag_701\n      jump\t// in\n    tag_982:\n        /* \"#utility.yul\":27114:27209   */\n      swap4\n      pop\n        /* \"#utility.yul\":27218:27283   */\n      tag_983\n        /* \"#utility.yul\":27276:27282   */\n      dup2\n        /* \"#utility.yul\":27271:27274   */\n      dup6\n        /* \"#utility.yul\":27264:27268   */\n      0x20\n        /* \"#utility.yul\":27257:27262   */\n      dup7\n        /* \"#utility.yul\":27253:27269   */\n      add\n        /* \"#utility.yul\":27218:27283   */\n      tag_671\n      jump\t// in\n    tag_983:\n        /* \"#utility.yul\":27308:27314   */\n      dup1\n        /* \"#utility.yul\":27303:27306   */\n      dup5\n        /* \"#utility.yul\":27299:27315   */\n      add\n        /* \"#utility.yul\":27292:27315   */\n      swap2\n      pop\n        /* \"#utility.yul\":27043:27321   */\n      pop\n        /* \"#utility.yul\":26935:27321   */\n      swap3\n      swap2\n      pop\n      pop\n      jump\t// out\n        /* \"#utility.yul\":27327:27598   */\n    tag_614:\n        /* \"#utility.yul\":27457:27460   */\n      0x00\n        /* \"#utility.yul\":27479:27572   */\n      tag_985\n        /* \"#utility.yul\":27568:27571   */\n      dup3\n        /* \"#utility.yul\":27559:27565   */\n      dup5\n        /* \"#utility.yul\":27479:27572   */\n      tag_702\n      jump\t// in\n    tag_985:\n        /* \"#utility.yul\":27472:27572   */\n      swap2\n      pop\n        /* \"#utility.yul\":27589:27592   */\n      dup2\n        /* \"#utility.yul\":27582:27592   */\n      swap1\n      pop\n        /* \"#utility.yul\":27327:27598   */\n      swap3\n      swap2\n      pop\n      pop\n      jump\t// out\n\n    auxdata: 0xa2646970667358221220f36150c7fb538b77d53823601c8489e67d6e39b440bcbace7dae24bf482151b964736f6c634300081a0033\n}\n",
				"bytecode": {
					"linkReferences": {},
					"object": "60a06040523073ffffffffffffffffffffffffffffffffffffffff1660809073ffffffffffffffffffffffffffffffffffffffff16815250348015610042575f80fd5b5061005161005660201b60201c565b6101b6565b5f61006561015460201b60201c565b9050805f0160089054906101000a900460ff16156100af576040517ff92ee8a900000000000000000000000000000000000000000000000000000000815260040160405180910390fd5b67ffffffffffffffff8016815f015f9054906101000a900467ffffffffffffffff1667ffffffffffffffff16146101515767ffffffffffffffff815f015f6101000a81548167ffffffffffffffff021916908367ffffffffffffffff1602179055507fc7f505b2f371ae2175ee4913f4499e1f2633a7b5936321eed1cdaeb6115181d267ffffffffffffffff604051610148919061019d565b60405180910390a15b50565b5f7ff0c57e16840df040f15088dc2f81fe391c3923bec73e23a9662efc9c229c6a00905090565b5f67ffffffffffffffff82169050919050565b6101978161017b565b82525050565b5f6020820190506101b05f83018461018e565b92915050565b60805161458d6101dc5f395f8181612c7001528181612cc50152612e7f015261458d5ff3fe60806040526004361061027c575f3560e01c806378fd078d1161014e578063b47ff951116100c0578063d777cc6d11610079578063d777cc6d1461090c578063d9b998b414610934578063e9c68e2c1461095c578063ed06106714610972578063f2fde38b1461099a578063ff3d65d9146109c25761027c565b8063b47ff951146107eb578063b9dac1eb14610815578063bccbc36c1461083d578063c0c53b8b1461087e578063c7fd5bf0146108a6578063ce356a24146108e25761027c565b80638da5cb5b116101125780638da5cb5b146106df578063947a36fb146107095780639c361e4e14610733578063a4f67b8b1461075d578063ad3cb1cc14610799578063ad8e5ec4146107c35761027c565b806378fd078d146106175780637f111e601461063f5780637f70c5e7146106675780637ffe4d931461068f57806385f45250146106b75761027c565b80634585e33b116101f25780635f17e616116101ab5780635f17e616146105365780636626b26d1461055e57806367976974146105745780636e04ff0d1461059c578063715018a6146105d95780637547c7a3146105ef5761027c565b80634585e33b1461044c5780634f1ef286146104745780635256dbbf1461049057806352d1902d146104b85780635462870d146104e2578063567e98f91461050c5761027c565b806330e3f8f81161024457806330e3f8f81461035057806333244c2c1461037a57806339518b5e146103a45780633a71a9e4146103ce5780633f3b3b27146103f857806344490ff4146104225761027c565b806301934a831461028057806311eac855146102aa578063188e07b9146102d45780632765df7a146102fe5780633070fbf814610326575b5f80fd5b34801561028b575f80fd5b506102946109fe565b6040516102a1919061376b565b60405180910390f35b3480156102b5575f80fd5b506102be610a04565b6040516102cb91906137fe565b60405180910390f35b3480156102df575f80fd5b506102e8610a27565b6040516102f5919061376b565b60405180910390f35b348015610309575f80fd5b50610324600480360381019061031f9190613852565b610a2d565b005b348015610331575f80fd5b5061033a610b08565b604051610347919061389d565b60405180910390f35b34801561035b575f80fd5b50610364610b2d565b60405161037191906138d0565b60405180910390f35b348015610385575f80fd5b5061038e610b40565b60405161039b919061376b565b60405180910390f35b3480156103af575f80fd5b506103b8610b46565b6040516103c5919061376b565b60405180910390f35b3480156103d9575f80fd5b506103e2610b4c565b6040516103ef919061376b565b60405180910390f35b348015610403575f80fd5b5061040c610b52565b604051610419919061376b565b60405180910390f35b34801561042d575f80fd5b50610436610b58565b604051610443919061376b565b60405180910390f35b348015610457575f80fd5b50610472600480360381019061046d919061394a565b610b5e565b005b61048e60048036038101906104899190613af7565b610cee565b005b34801561049b575f80fd5b506104b660048036038101906104b19190613852565b610d0d565b005b3480156104c3575f80fd5b506104cc610e90565b6040516104d99190613b69565b60405180910390f35b3480156104ed575f80fd5b506104f6610ec1565b604051610503919061389d565b60405180910390f35b348015610517575f80fd5b50610520610ee6565b60405161052d919061376b565b60405180910390f35b348015610541575f80fd5b5061055c60048036038101906105579190613b82565b610eec565b005b348015610569575f80fd5b50610572610fd5565b005b34801561057f575f80fd5b5061059a60048036038101906105959190613852565b61103b565b005b3480156105a7575f80fd5b506105c260048036038101906105bd919061394a565b611350565b6040516105d0929190613c20565b60405180910390f35b3480156105e4575f80fd5b506105ed611384565b005b3480156105fa575f80fd5b5061061560048036038101906106109190613852565b611397565b005b348015610622575f80fd5b5061063d60048036038101906106389190613852565b611791565b005b34801561064a575f80fd5b5061066560048036038101906106609190613852565b611914565b005b348015610672575f80fd5b5061068d60048036038101906106889190613852565b6119a5565b005b34801561069a575f80fd5b506106b560048036038101906106b09190613852565b611a36565b005b3480156106c2575f80fd5b506106dd60048036038101906106d89190613b82565b611cf1565b005b3480156106ea575f80fd5b506106f3611eb7565b604051610700919061389d565b60405180910390f35b348015610714575f80fd5b5061071d611eec565b60405161072a919061376b565b60405180910390f35b34801561073e575f80fd5b50610747611ef2565b604051610754919061376b565b60405180910390f35b348015610768575f80fd5b50610783600480360381019061077e9190613852565b611ef8565b604051610790919061389d565b60405180910390f35b3480156107a4575f80fd5b506107ad611f28565b6040516107ba9190613ca0565b60405180910390f35b3480156107ce575f80fd5b506107e960048036038101906107e49190613852565b611f61565b005b3480156107f6575f80fd5b506107ff611ff2565b60405161080c919061376b565b60405180910390f35b348015610820575f80fd5b5061083b60048036038101906108369190613852565b611ff8565b005b348015610848575f80fd5b50610863600480360381019061085e9190613cc0565b612089565b60405161087596959493929190613ceb565b60405180910390f35b348015610889575f80fd5b506108a4600480360381019061089f9190613d4a565b6120cd565b005b3480156108b1575f80fd5b506108cc60048036038101906108c79190613cc0565b612366565b6040516108d991906138d0565b60405180910390f35b3480156108ed575f80fd5b506108f6612383565b604051610903919061376b565b60405180910390f35b348015610917575f80fd5b50610932600480360381019061092d9190613cc0565b612389565b005b34801561093f575f80fd5b5061095a60048036038101906109559190613dc4565b61249e565b005b348015610967575f80fd5b506109706126ba565b005b34801561097d575f80fd5b5061099860048036038101906109939190613b82565b612a9e565b005b3480156109a5575f80fd5b506109c060048036038101906109bb9190613cc0565b612b4e565b005b3480156109cd575f80fd5b506109e860048036038101906109e39190613852565b612bd2565b6040516109f5919061376b565b60405180910390f35b60085481565b5f8054906101000a900473ffffffffffffffffffffffffffffffffffffffff1681565b60015481565b610a35612be7565b5f8111610a7957806040517fcdbc6335000000000000000000000000000000000000000000000000000000008152600401610a70919061376b565b60405180910390fd5b8060115f600e5481526020019081526020015f2081905550600e5f815480929190610aa390613e2f565b91905055507fe1976e16ed8ce8e740235978fbe69b27d5eea683b2e017bb0bd2fabb33294b3f600e5f815480929190610adb90613e76565b9190505582612710610aed9190613e9d565b83604051610afd93929190613ed0565b60405180910390a150565b600d5f9054906101000a900473ffffffffffffffffffffffffffffffffffffffff1681565b600960149054906101000a900460ff1681565b60045481565b600b5481565b60075481565b600c5481565b60055481565b600d5f9054906101000a900473ffffffffffffffffffffffffffffffffffffffff1673ffffffffffffffffffffffffffffffffffffffff163373ffffffffffffffffffffffffffffffffffffffff1614610bed576040517f08c379a0000000000000000000000000000000000000000000000000000000008152600401610be490613f75565b60405180910390fd5b5f600a5403610c3557600a546040517f71540007000000000000000000000000000000000000000000000000000000008152600401610c2c919061376b565b60405180910390fd5b600960149054906101000a900460ff16610caa57600b544210610c665742600c81905550610c616126ba565b610ca5565b600b546040517f54593e75000000000000000000000000000000000000000000000000000000008152600401610c9c919061376b565b60405180910390fd5b610cba565b42600c81905550610cb96126ba565b5b600960149054906101000a900460ff16610cea576001600960146101000a81548160ff0219169083151502179055505b5050565b610cf6612c6e565b610cff82612d54565b610d098282612d5f565b5050565b610d15612be7565b5f8111610d5957806040517f2ff47830000000000000000000000000000000000000000000000000000000008152600401610d50919061376b565b60405180910390fd5b8060015f828254610d6a9190613f93565b925050819055505f805f9054906101000a900473ffffffffffffffffffffffffffffffffffffffff1673ffffffffffffffffffffffffffffffffffffffff166323b872dd3330856040518463ffffffff1660e01b8152600401610dcf93929190613fc6565b6020604051808303815f875af1158015610deb573d5f803e3d5ffd5b505050506040513d601f19601f82011682018060405250810190610e0f919061400f565b905080610e5357806040517fd85d3cef000000000000000000000000000000000000000000000000000000008152600401610e4a91906138d0565b60405180910390fd5b7fa9f166643ec132a11638e74e3c3a78d4ae278fcbf92998240e0e97676f54e404600154604051610e84919061376b565b60405180910390a15050565b5f610e99612e7d565b7f360894a13ba1a3210667c828492db98dca3e2076cc3735a920a3ca505d382bbc5f1b905090565b60095f9054906101000a900473ffffffffffffffffffffffffffffffffffffffff1681565b60035481565b610ef4612be7565b5f8111610f3857806040517f71540007000000000000000000000000000000000000000000000000000000008152600401610f2f919061376b565b60405180910390fd5b42821015610f7d57816040517f54593e75000000000000000000000000000000000000000000000000000000008152600401610f74919061376b565b60405180910390fd5b80600a8190555081600b8190555042600c819055507f2b5090e035d3026f5448298c9adc68db8bbc1b26a8af5c81b2b2a9fc07ca4a0033600a54600c54604051610fc99392919061403a565b60405180910390a15050565b610fdd612be7565b5f600a819055505f600960146101000a81548160ff0219169083151502179055507f3b68dc4e210c46d3622293f2b941cdfde795bb6e17286bb289ba05a6a3b5541f33600a5460405161103192919061406f565b60405180910390a1565b600960159054906101000a900460ff161561108b576040517f08c379a0000000000000000000000000000000000000000000000000000000008152600401611082906140e0565b60405180910390fd5b6001600960156101000a81548160ff0219169083151502179055505f81116110ea57806040517f2ff478300000000000000000000000000000000000000000000000000000000081526004016110e1919061376b565b60405180910390fd5b60125f3373ffffffffffffffffffffffffffffffffffffffff1673ffffffffffffffffffffffffffffffffffffffff1681526020019081526020015f206001015481111561116d576040517f08c379a000000000000000000000000000000000000000000000000000000000815260040161116490614148565b60405180910390fd5b8060125f3373ffffffffffffffffffffffffffffffffffffffff1673ffffffffffffffffffffffffffffffffffffffff1681526020019081526020015f206001015f8282546111bc9190613e9d565b925050819055508060125f3373ffffffffffffffffffffffffffffffffffffffff1673ffffffffffffffffffffffffffffffffffffffff1681526020019081526020015f206002015f8282546112129190613f93565b925050819055505f805f9054906101000a900473ffffffffffffffffffffffffffffffffffffffff1673ffffffffffffffffffffffffffffffffffffffff1663a9059cbb33846040518363ffffffff1660e01b815260040161127592919061406f565b6020604051808303815f875af1158015611291573d5f803e3d5ffd5b505050506040513d601f19601f820116820180604052508101906112b5919061400f565b9050806112f957806040517fd85d3cef0000000000000000000000000000000000000000000000000000000081526004016112f091906138d0565b60405180910390fd5b7f884edad9ce6fa2440d8a54cc123490eb96d2768479d49ff9c7366125a9424364338360405161132a92919061406f565b60405180910390a1505f600960156101000a81548160ff02191690831515021790555050565b5f60605f600a54600c54426113659190613e9d565b1190508060405180602001604052805f81525092509250509250929050565b61138c612be7565b6113955f612f04565b565b5f81116113db57806040517f2ff478300000000000000000000000000000000000000000000000000000000081526004016113d2919061376b565b60405180910390fd5b60125f3373ffffffffffffffffffffffffffffffffffffffff1673ffffffffffffffffffffffffffffffffffffffff1681526020019081526020015f205f015f9054906101000a900460ff16156114b45760125f3373ffffffffffffffffffffffffffffffffffffffff1673ffffffffffffffffffffffffffffffffffffffff1681526020019081526020015f205f015f9054906101000a900460ff166040517f6fa5c3c00000000000000000000000000000000000000000000000000000000081526004016114ab91906138d0565b60405180910390fd5b8060125f3373ffffffffffffffffffffffffffffffffffffffff1673ffffffffffffffffffffffffffffffffffffffff1681526020019081526020015f206005015f8282546115039190613f93565b92505081905550600f5f3373ffffffffffffffffffffffffffffffffffffffff1673ffffffffffffffffffffffffffffffffffffffff1681526020019081526020015f205f9054906101000a900460ff16611616573360105f60085481526020019081526020015f205f6101000a81548173ffffffffffffffffffffffffffffffffffffffff021916908373ffffffffffffffffffffffffffffffffffffffff1602179055506001600f5f3373ffffffffffffffffffffffffffffffffffffffff1673ffffffffffffffffffffffffffffffffffffffff1681526020019081526020015f205f6101000a81548160ff02191690831515021790555060085f81548092919061161090613e2f565b91905055505b8060035f8282546116279190613f93565b925050819055505f805f9054906101000a900473ffffffffffffffffffffffffffffffffffffffff1673ffffffffffffffffffffffffffffffffffffffff166323b872dd3360095f9054906101000a900473ffffffffffffffffffffffffffffffffffffffff16856040518463ffffffff1660e01b81526004016116ad93929190613fc6565b6020604051808303815f875af11580156116c9573d5f803e3d5ffd5b505050506040513d601f19601f820116820180604052508101906116ed919061400f565b90508061173157806040517fd85d3cef00000000000000000000000000000000000000000000000000000000815260040161172891906138d0565b60405180910390fd5b7f14ee34c24635186d212f515353dadae9c226529edef2d1fcf5504cb33b5c25ab3360095f9054906101000a900473ffffffffffffffffffffffffffffffffffffffff168460405161178593929190613fc6565b60405180910390a15050565b611799612be7565b5f81116117dd57806040517f2ff478300000000000000000000000000000000000000000000000000000000081526004016117d4919061376b565b60405180910390fd5b8060025f8282546117ee9190613f93565b925050819055505f805f9054906101000a900473ffffffffffffffffffffffffffffffffffffffff1673ffffffffffffffffffffffffffffffffffffffff166323b872dd3330856040518463ffffffff1660e01b815260040161185393929190613fc6565b6020604051808303815f875af115801561186f573d5f803e3d5ffd5b505050506040513d601f19601f82011682018060405250810190611893919061400f565b9050806118d757806040517fd85d3cef0000000000000000000000000000000000000000000000000000000081526004016118ce91906138d0565b60405180910390fd5b7f73834e1d1ee73ba659470a3603b888903853d3a3c9fda34e71c093a0e35cab94600254604051611908919061376b565b60405180910390a15050565b61191c612be7565b5f811161196057806040517fcdbc6335000000000000000000000000000000000000000000000000000000008152600401611957919061376b565b60405180910390fd5b806007819055507fb5671393c7c6980552e50a31e778921eb17d764c2e98fbf4d44fff524712def93360075460405161199a92919061406f565b60405180910390a150565b6119ad612be7565b5f81116119f157806040517fcdbc63350000000000000000000000000000000000000000000000000000000081526004016119e8919061376b565b60405180910390fd5b806004819055507fb5671393c7c6980552e50a31e778921eb17d764c2e98fbf4d44fff524712def933600454604051611a2b92919061406f565b60405180910390a150565b5f8111611a7a57806040517f2ff47830000000000000000000000000000000000000000000000000000000008152600401611a71919061376b565b60405180910390fd5b60125f3373ffffffffffffffffffffffffffffffffffffffff1673ffffffffffffffffffffffffffffffffffffffff1681526020019081526020015f205f015f9054906101000a900460ff1615611b535760125f3373ffffffffffffffffffffffffffffffffffffffff1673ffffffffffffffffffffffffffffffffffffffff1681526020019081526020015f205f015f9054906101000a900460ff166040517f6fa5c3c0000000000000000000000000000000000000000000000000000000008152600401611b4a91906138d0565b60405180910390fd5b8060125f3373ffffffffffffffffffffffffffffffffffffffff1673ffffffffffffffffffffffffffffffffffffffff1681526020019081526020015f206001015411611bd757806040517f31b6e358000000000000000000000000000000000000000000000000000000008152600401611bce919061376b565b60405180910390fd5b8060125f3373ffffffffffffffffffffffffffffffffffffffff1673ffffffffffffffffffffffffffffffffffffffff1681526020019081526020015f206001015f828254611c269190613e9d565b925050819055508060125f3373ffffffffffffffffffffffffffffffffffffffff1673ffffffffffffffffffffffffffffffffffffffff1681526020019081526020015f206005015f828254611c7c9190613f93565b925050819055508060025f828254611c949190613f93565b925050819055508060035f828254611cac9190613f93565b925050819055507f14ee34c24635186d212f515353dadae9c226529edef2d1fcf5504cb33b5c25ab333083604051611ce693929190613fc6565b60405180910390a150565b5f8211611d3557816040517f2ff47830000000000000000000000000000000000000000000000000000000008152600401611d2c919061376b565b60405180910390fd5b600e54811115611d7c57806040517f222a50f3000000000000000000000000000000000000000000000000000000008152600401611d73919061376b565b60405180910390fd5b611d978260115f8481526020019081526020015f2054612fd5565b5f805f9054906101000a900473ffffffffffffffffffffffffffffffffffffffff1673ffffffffffffffffffffffffffffffffffffffff166323b872dd3330866040518463ffffffff1660e01b8152600401611df593929190613fc6565b6020604051808303815f875af1158015611e11573d5f803e3d5ffd5b505050506040513d601f19601f82011682018060405250810190611e35919061400f565b905080611e7957806040517fd85d3cef000000000000000000000000000000000000000000000000000000008152600401611e7091906138d0565b60405180910390fd5b7fa89b69c5958ec1ccf0df0de746a8708f5b6a6b429430129f16f46f44b319c9008383604051611eaa929190614166565b60405180910390a1505050565b5f80611ec1613037565b9050805f015f9054906101000a900473ffffffffffffffffffffffffffffffffffffffff1691505090565b600a5481565b600e5481565b6010602052805f5260405f205f915054906101000a900473ffffffffffffffffffffffffffffffffffffffff1681565b6040518060400160405280600581526020017f352e302e3000000000000000000000000000000000000000000000000000000081525081565b611f69612be7565b5f8111611fad57806040517fcdbc6335000000000000000000000000000000000000000000000000000000008152600401611fa4919061376b565b60405180910390fd5b806006819055507fb5671393c7c6980552e50a31e778921eb17d764c2e98fbf4d44fff524712def933600654604051611fe792919061406f565b60405180910390a150565b60025481565b612000612be7565b5f811161204457806040517fcdbc633500000000000000000000000000000000000000000000000000000000815260040161203b919061376b565b60405180910390fd5b806005819055507fb5671393c7c6980552e50a31e778921eb17d764c2e98fbf4d44fff524712def93360055460405161207e92919061406f565b60405180910390a150565b6012602052805f5260405f205f91509050805f015f9054906101000a900460ff16908060010154908060020154908060030154908060040154908060050154905086565b5f6120d661305e565b90505f815f0160089054906101000a900460ff161590505f825f015f9054906101000a900467ffffffffffffffff1690505f808267ffffffffffffffff1614801561211e5750825b90505f60018367ffffffffffffffff1614801561215157505f3073ffffffffffffffffffffffffffffffffffffffff163b145b90508115801561215f575080155b15612196576040517ff92ee8a900000000000000000000000000000000000000000000000000000000815260040160405180910390fd5b6001855f015f6101000a81548167ffffffffffffffff021916908367ffffffffffffffff16021790555083156121e3576001855f0160086101000a81548160ff0219169083151502179055505b6121ec88613085565b6121f4613099565b865f806101000a81548173ffffffffffffffffffffffffffffffffffffffff021916908373ffffffffffffffffffffffffffffffffffffffff1602179055506113ec60115f8081526020019081526020015f2081905550611d4c60115f600181526020019081526020015f2081905550610dac60115f600281526020019081526020015f2081905550611e1460115f600381526020019081526020015f2081905550611388600481905550611d4c6005819055506105dc6006819055506103e86007819055506004600e819055508560095f6101000a81548173ffffffffffffffffffffffffffffffffffffffff021916908373ffffffffffffffffffffffffffffffffffffffff160217905550831561235c575f855f0160086101000a81548160ff0219169083151502179055507fc7f505b2f371ae2175ee4913f4499e1f2633a7b5936321eed1cdaeb6115181d2600160405161235391906141d9565b60405180910390a15b5050505050505050565b600f602052805f5260405f205f915054906101000a900460ff1681565b60065481565b612391612be7565b5f73ffffffffffffffffffffffffffffffffffffffff168173ffffffffffffffffffffffffffffffffffffffff160361240157806040517fe4cfa94d0000000000000000000000000000000000000000000000000000000081526004016123f8919061389d565b60405180910390fd5b80600d5f6101000a81548173ffffffffffffffffffffffffffffffffffffffff021916908373ffffffffffffffffffffffffffffffffffffffff1602179055507f75f91f3cecb8c46f20150f60f77a6e1f0de00776627692db82ef1960af84c33a33600d5f9054906101000a900473ffffffffffffffffffffffffffffffffffffffff166040516124939291906141f2565b60405180910390a150565b6124a6612be7565b5f73ffffffffffffffffffffffffffffffffffffffff168273ffffffffffffffffffffffffffffffffffffffff160361251657816040517fe4cfa94d00000000000000000000000000000000000000000000000000000000815260040161250d919061389d565b60405180910390fd5b600115158115151415801561252f57505f151581151514155b1561257157806040517f81ed1ae300000000000000000000000000000000000000000000000000000000815260040161256891906138d0565b60405180910390fd5b60011515811515036125d957600160125f8473ffffffffffffffffffffffffffffffffffffffff1673ffffffffffffffffffffffffffffffffffffffff1681526020019081526020015f205f015f6101000a81548160ff021916908315150217905550612630565b5f60125f8473ffffffffffffffffffffffffffffffffffffffff1673ffffffffffffffffffffffffffffffffffffffff1681526020019081526020015f205f015f6101000a81548160ff0219169083151502179055505b7f7a1655bc3160d3413bf1d5235e55be12e01b7e8bc2436a9bff09c3b4fa2421f1338360125f8673ffffffffffffffffffffffffffffffffffffffff1673ffffffffffffffffffffffffffffffffffffffff1681526020019081526020015f205f015f9054906101000a900460ff166040516126ae93929190614219565b60405180910390a15050565b5f805f6126c56130a3565b9250925092505f6002541180156126dd57505f600154115b61271c576040517f08c379a000000000000000000000000000000000000000000000000000000000815260040161271390614298565b60405180910390fd5b5f805f90505b600854811015612a585760125f60105f8481526020019081526020015f205f9054906101000a900473ffffffffffffffffffffffffffffffffffffffff1673ffffffffffffffffffffffffffffffffffffffff1673ffffffffffffffffffffffffffffffffffffffff1681526020019081526020015f205f015f9054906101000a900460ff16612a4b575f60035461271060125f60105f8781526020019081526020015f205f9054906101000a900473ffffffffffffffffffffffffffffffffffffffff1673ffffffffffffffffffffffffffffffffffffffff1673ffffffffffffffffffffffffffffffffffffffff1681526020019081526020015f206005015461282e91906142b6565b6128389190614324565b90505f612845868361329b565b90508060025f8282546128589190613e9d565b92505081905550808461286b9190613f93565b93508460015f82825461287e9190613e9d565b925050819055508460125f60105f8781526020019081526020015f205f9054906101000a900473ffffffffffffffffffffffffffffffffffffffff1673ffffffffffffffffffffffffffffffffffffffff1673ffffffffffffffffffffffffffffffffffffffff1681526020019081526020015f20600301819055508060125f60105f8781526020019081526020015f205f9054906101000a900473ffffffffffffffffffffffffffffffffffffffff1673ffffffffffffffffffffffffffffffffffffffff1673ffffffffffffffffffffffffffffffffffffffff1681526020019081526020015f20600401819055505f858261297c9190613f93565b90508060125f60105f8881526020019081526020015f205f9054906101000a900473ffffffffffffffffffffffffffffffffffffffff1673ffffffffffffffffffffffffffffffffffffffff1673ffffffffffffffffffffffffffffffffffffffff1681526020019081526020015f206001015f8282546129fd9190613f93565b9250508190555087851115612a47576040517f08c379a0000000000000000000000000000000000000000000000000000000008152600401612a3e9061439e565b60405180910390fd5b5050505b8080600101915050612722565b507fee826440768329b0c72f81331212ee31fcdac1ea79a248d24821e40c34e5802033600254600154604051612a909392919061403a565b60405180910390a150505050565b612aa6612be7565b5f8111612aea57806040517fcdbc6335000000000000000000000000000000000000000000000000000000008152600401612ae1919061376b565b60405180910390fd5b8060115f8481526020019081526020015f20819055507fb5671393c7c6980552e50a31e778921eb17d764c2e98fbf4d44fff524712def93360115f8581526020019081526020015f2054604051612b4292919061406f565b60405180910390a15050565b612b56612be7565b5f73ffffffffffffffffffffffffffffffffffffffff168173ffffffffffffffffffffffffffffffffffffffff1603612bc6575f6040517f1e4fbdf7000000000000000000000000000000000000000000000000000000008152600401612bbd919061389d565b60405180910390fd5b612bcf81612f04565b50565b6011602052805f5260405f205f915090505481565b612bef613346565b73ffffffffffffffffffffffffffffffffffffffff16612c0d611eb7565b73ffffffffffffffffffffffffffffffffffffffff1614612c6c57612c30613346565b6040517f118cdaa7000000000000000000000000000000000000000000000000000000008152600401612c63919061389d565b60405180910390fd5b565b7f000000000000000000000000000000000000000000000000000000000000000073ffffffffffffffffffffffffffffffffffffffff163073ffffffffffffffffffffffffffffffffffffffff161480612d1b57507f000000000000000000000000000000000000000000000000000000000000000073ffffffffffffffffffffffffffffffffffffffff16612d0261334d565b73ffffffffffffffffffffffffffffffffffffffff1614155b15612d52576040517fe07c8dba00000000000000000000000000000000000000000000000000000000815260040160405180910390fd5b565b612d5c612be7565b50565b8173ffffffffffffffffffffffffffffffffffffffff166352d1902d6040518163ffffffff1660e01b8152600401602060405180830381865afa925050508015612dc757506040513d601f19601f82011682018060405250810190612dc491906143e6565b60015b612e0857816040517f4c9c8ce3000000000000000000000000000000000000000000000000000000008152600401612dff919061389d565b60405180910390fd5b7f360894a13ba1a3210667c828492db98dca3e2076cc3735a920a3ca505d382bbc5f1b8114612e6e57806040517faa1d49a4000000000000000000000000000000000000000000000000000000008152600401612e659190613b69565b60405180910390fd5b612e7883836133a0565b505050565b7f000000000000000000000000000000000000000000000000000000000000000073ffffffffffffffffffffffffffffffffffffffff163073ffffffffffffffffffffffffffffffffffffffff1614612f02576040517fe07c8dba00000000000000000000000000000000000000000000000000000000815260040160405180910390fd5b565b5f612f0d613037565b90505f815f015f9054906101000a900473ffffffffffffffffffffffffffffffffffffffff16905082825f015f6101000a81548173ffffffffffffffffffffffffffffffffffffffff021916908373ffffffffffffffffffffffffffffffffffffffff1602179055508273ffffffffffffffffffffffffffffffffffffffff168173ffffffffffffffffffffffffffffffffffffffff167f8be0079c531659141344cd1fd0a4f28419497f9722a3daafe3b4186f6b6457e060405160405180910390a3505050565b5f81612710612fe49190613e9d565b90505f612ff1848361329b565b90505f612ffe858561329b565b90508160025f8282546130119190613f93565b925050819055508060015f8282546130299190613f93565b925050819055505050505050565b5f7f9016d09d72d40fdae2fd8ceac6b6234c7706214fd39c1cd1e609a0528c199300905090565b5f7ff0c57e16840df040f15088dc2f81fe391c3923bec73e23a9662efc9c229c6a00905090565b61308d613412565b61309681613452565b50565b6130a1613412565b565b5f805f806130b560025461138861329b565b90505f6130c48260055461329b565b90505f6130d38360065461329b565b90505f6130e28460075461329b565b90505f6130f360015460045461329b565b90505f60085411613139576040517f08c379a00000000000000000000000000000000000000000000000000000000081526004016131309061445b565b60405180910390fd5b5f600854826131489190614324565b905082846131569190613f93565b60025f8282546131669190613e9d565b925050819055508360015f82825461317e9190613f93565b925050819055505f805f9054906101000a900473ffffffffffffffffffffffffffffffffffffffff1673ffffffffffffffffffffffffffffffffffffffff1663a9059cbb60095f9054906101000a900473ffffffffffffffffffffffffffffffffffffffff16866040518363ffffffff1660e01b815260040161320292919061406f565b6020604051808303815f875af115801561321e573d5f803e3d5ffd5b505050506040513d601f19601f82011682018060405250810190613242919061400f565b90508061328657806040517fd85d3cef00000000000000000000000000000000000000000000000000000000815260040161327d91906138d0565b60405180910390fd5b86868399509950995050505050505050909192565b5f8083036132de576040517f08c379a00000000000000000000000000000000000000000000000000000000081526004016132d5906144e9565b60405180910390fd5b5f8203613320576040517f08c379a0000000000000000000000000000000000000000000000000000000008152600401613317906144e9565b60405180910390fd5b5f612710838561333091906142b6565b61333a9190614324565b90508091505092915050565b5f33905090565b5f6133797f360894a13ba1a3210667c828492db98dca3e2076cc3735a920a3ca505d382bbc5f1b6134d6565b5f015f9054906101000a900473ffffffffffffffffffffffffffffffffffffffff16905090565b6133a9826134df565b8173ffffffffffffffffffffffffffffffffffffffff167fbc7cd75a20ee27fd9adebab32041f755214dbc6bffa90cc0225b39da2e5c2d3b60405160405180910390a25f81511115613405576133ff82826135a8565b5061340e565b61340d613628565b5b5050565b61341a613664565b613450576040517fd7e6bcf800000000000000000000000000000000000000000000000000000000815260040160405180910390fd5b565b61345a613412565b5f73ffffffffffffffffffffffffffffffffffffffff168173ffffffffffffffffffffffffffffffffffffffff16036134ca575f6040517f1e4fbdf70000000000000000000000000000000000000000000000000000000081526004016134c1919061389d565b60405180910390fd5b6134d381612f04565b50565b5f819050919050565b5f8173ffffffffffffffffffffffffffffffffffffffff163b0361353a57806040517f4c9c8ce3000000000000000000000000000000000000000000000000000000008152600401613531919061389d565b60405180910390fd5b806135667f360894a13ba1a3210667c828492db98dca3e2076cc3735a920a3ca505d382bbc5f1b6134d6565b5f015f6101000a81548173ffffffffffffffffffffffffffffffffffffffff021916908373ffffffffffffffffffffffffffffffffffffffff16021790555050565b60605f808473ffffffffffffffffffffffffffffffffffffffff16846040516135d19190614541565b5f60405180830381855af49150503d805f8114613609576040519150601f19603f3d011682016040523d82523d5f602084013e61360e565b606091505b509150915061361e858383613682565b9250505092915050565b5f341115613662576040517fb398979f00000000000000000000000000000000000000000000000000000000815260040160405180910390fd5b565b5f61366d61305e565b5f0160089054906101000a900460ff16905090565b606082613697576136928261370f565b613707565b5f82511480156136bd57505f8473ffffffffffffffffffffffffffffffffffffffff163b145b156136ff57836040517f9996b3150000000000000000000000000000000000000000000000000000000081526004016136f6919061389d565b60405180910390fd5b819050613708565b5b9392505050565b5f815111156137215780518082602001fd5b6040517f1425ea4200000000000000000000000000000000000000000000000000000000815260040160405180910390fd5b5f819050919050565b61376581613753565b82525050565b5f60208201905061377e5f83018461375c565b92915050565b5f73ffffffffffffffffffffffffffffffffffffffff82169050919050565b5f819050919050565b5f6137c66137c16137bc84613784565b6137a3565b613784565b9050919050565b5f6137d7826137ac565b9050919050565b5f6137e8826137cd565b9050919050565b6137f8816137de565b82525050565b5f6020820190506138115f8301846137ef565b92915050565b5f604051905090565b5f80fd5b5f80fd5b61383181613753565b811461383b575f80fd5b50565b5f8135905061384c81613828565b92915050565b5f6020828403121561386757613866613820565b5b5f6138748482850161383e565b91505092915050565b5f61388782613784565b9050919050565b6138978161387d565b82525050565b5f6020820190506138b05f83018461388e565b92915050565b5f8115159050919050565b6138ca816138b6565b82525050565b5f6020820190506138e35f8301846138c1565b92915050565b5f80fd5b5f80fd5b5f80fd5b5f8083601f84011261390a576139096138e9565b5b8235905067ffffffffffffffff811115613927576139266138ed565b5b602083019150836001820283011115613943576139426138f1565b5b9250929050565b5f80602083850312156139605761395f613820565b5b5f83013567ffffffffffffffff81111561397d5761397c613824565b5b613989858286016138f5565b92509250509250929050565b61399e8161387d565b81146139a8575f80fd5b50565b5f813590506139b981613995565b92915050565b5f80fd5b5f601f19601f8301169050919050565b7f4e487b71000000000000000000000000000000000000000000000000000000005f52604160045260245ffd5b613a09826139c3565b810181811067ffffffffffffffff82111715613a2857613a276139d3565b5b80604052505050565b5f613a3a613817565b9050613a468282613a00565b919050565b5f67ffffffffffffffff821115613a6557613a646139d3565b5b613a6e826139c3565b9050602081019050919050565b828183375f83830152505050565b5f613a9b613a9684613a4b565b613a31565b905082815260208101848484011115613ab757613ab66139bf565b5b613ac2848285613a7b565b509392505050565b5f82601f830112613ade57613add6138e9565b5b8135613aee848260208601613a89565b91505092915050565b5f8060408385031215613b0d57613b0c613820565b5b5f613b1a858286016139ab565b925050602083013567ffffffffffffffff811115613b3b57613b3a613824565b5b613b4785828601613aca565b9150509250929050565b5f819050919050565b613b6381613b51565b82525050565b5f602082019050613b7c5f830184613b5a565b92915050565b5f8060408385031215613b9857613b97613820565b5b5f613ba58582860161383e565b9250506020613bb68582860161383e565b9150509250929050565b5f81519050919050565b5f82825260208201905092915050565b8281835e5f83830152505050565b5f613bf282613bc0565b613bfc8185613bca565b9350613c0c818560208601613bda565b613c15816139c3565b840191505092915050565b5f604082019050613c335f8301856138c1565b8181036020830152613c458184613be8565b90509392505050565b5f81519050919050565b5f82825260208201905092915050565b5f613c7282613c4e565b613c7c8185613c58565b9350613c8c818560208601613bda565b613c95816139c3565b840191505092915050565b5f6020820190508181035f830152613cb88184613c68565b905092915050565b5f60208284031215613cd557613cd4613820565b5b5f613ce2848285016139ab565b91505092915050565b5f60c082019050613cfe5f8301896138c1565b613d0b602083018861375c565b613d18604083018761375c565b613d25606083018661375c565b613d32608083018561375c565b613d3f60a083018461375c565b979650505050505050565b5f805f60608486031215613d6157613d60613820565b5b5f613d6e868287016139ab565b9350506020613d7f868287016139ab565b9250506040613d90868287016139ab565b9150509250925092565b613da3816138b6565b8114613dad575f80fd5b50565b5f81359050613dbe81613d9a565b92915050565b5f8060408385031215613dda57613dd9613820565b5b5f613de7858286016139ab565b9250506020613df885828601613db0565b9150509250929050565b7f4e487b71000000000000000000000000000000000000000000000000000000005f52601160045260245ffd5b5f613e3982613753565b91507fffffffffffffffffffffffffffffffffffffffffffffffffffffffffffffffff8203613e6b57613e6a613e02565b5b600182019050919050565b5f613e8082613753565b91505f8203613e9257613e91613e02565b5b600182039050919050565b5f613ea782613753565b9150613eb283613753565b9250828203905081811115613eca57613ec9613e02565b5b92915050565b5f606082019050613ee35f83018661375c565b613ef0602083018561375c565b613efd604083018461375c565b949350505050565b7f54686973206164647265737320646f6573206e6f742068617665207065726d695f8201527f7373696f6e20746f2063616c6c20706572666f726d55706b6565700000000000602082015250565b5f613f5f603b83613c58565b9150613f6a82613f05565b604082019050919050565b5f6020820190508181035f830152613f8c81613f53565b9050919050565b5f613f9d82613753565b9150613fa883613753565b9250828201905080821115613fc057613fbf613e02565b5b92915050565b5f606082019050613fd95f83018661388e565b613fe6602083018561388e565b613ff3604083018461375c565b949350505050565b5f8151905061400981613d9a565b92915050565b5f6020828403121561402457614023613820565b5b5f61403184828501613ffb565b91505092915050565b5f60608201905061404d5f83018661388e565b61405a602083018561375c565b614067604083018461375c565b949350505050565b5f6040820190506140825f83018561388e565b61408f602083018461375c565b9392505050565b7f5265656e7472616e637947756172643a207265656e7472616e742063616c6c005f82015250565b5f6140ca601f83613c58565b91506140d582614096565b602082019050919050565b5f6020820190508181035f8301526140f7816140be565b9050919050565b7f696e76616c6964205f616d6f756e7421000000000000000000000000000000005f82015250565b5f614132601083613c58565b915061413d826140fe565b602082019050919050565b5f6020820190508181035f83015261415f81614126565b9050919050565b5f6040820190506141795f83018561375c565b614186602083018461375c565b9392505050565b5f819050919050565b5f67ffffffffffffffff82169050919050565b5f6141c36141be6141b98461418d565b6137a3565b614196565b9050919050565b6141d3816141a9565b82525050565b5f6020820190506141ec5f8301846141ca565b92915050565b5f6040820190506142055f83018561388e565b614212602083018461388e565b9392505050565b5f60608201905061422c5f83018661388e565b614239602083018561388e565b61424660408301846138c1565b949350505050565b7f6e6f7420656e6f75676820616d6f756e740000000000000000000000000000005f82015250565b5f614282601183613c58565b915061428d8261424e565b602082019050919050565b5f6020820190508181035f8301526142af81614276565b9050919050565b5f6142c082613753565b91506142cb83613753565b92508282026142d981613753565b915082820484148315176142f0576142ef613e02565b5b5092915050565b7f4e487b71000000000000000000000000000000000000000000000000000000005f52601260045260245ffd5b5f61432e82613753565b915061433983613753565b925082614349576143486142f7565b5b828204905092915050565b7f416d6f756e742069732067726561746572207468656e203530250000000000005f82015250565b5f614388601a83613c58565b915061439382614354565b602082019050919050565b5f6020820190508181035f8301526143b58161437c565b9050919050565b6143c581613b51565b81146143cf575f80fd5b50565b5f815190506143e0816143bc565b92915050565b5f602082840312156143fb576143fa613820565b5b5f614408848285016143d2565b91505092915050565b7f6e6f2075736572732100000000000000000000000000000000000000000000005f82015250565b5f614445600983613c58565b915061445082614411565b602082019050919050565b5f6020820190508181035f83015261447281614439565b9050919050565b7f5f746f74616c5374616b65416d6f756e742063616e206e6f74206265207a65725f8201527f6f00000000000000000000000000000000000000000000000000000000000000602082015250565b5f6144d3602183613c58565b91506144de82614479565b604082019050919050565b5f6020820190508181035f830152614500816144c7565b9050919050565b5f81905092915050565b5f61451b82613bc0565b6145258185614507565b9350614535818560208601613bda565b80840191505092915050565b5f61454c8284614511565b91508190509291505056fea2646970667358221220f36150c7fb538b77d53823601c8489e67d6e39b440bcbace7dae24bf482151b964736f6c634300081a0033",
					"opcodes": "PUSH1 0xA0 PUSH1 0x40 MSTORE ADDRESS PUSH20 0xFFFFFFFFFFFFFFFFFFFFFFFFFFFFFFFFFFFFFFFF AND PUSH1 0x80 SWAP1 PUSH20 0xFFFFFFFFFFFFFFFFFFFFFFFFFFFFFFFFFFFFFFFF AND DUP2 MSTORE POP CALLVALUE DUP1 ISZERO PUSH2 0x42 JUMPI PUSH0 DUP1 REVERT JUMPDEST POP PUSH2 0x51 PUSH2 0x56 PUSH1 0x20 SHL PUSH1 0x20 SHR JUMP JUMPDEST PUSH2 0x1B6 JUMP JUMPDEST PUSH0 PUSH2 0x65 PUSH2 0x154 PUSH1 0x20 SHL PUSH1 0x20 SHR JUMP JUMPDEST SWAP1 POP DUP1 PUSH0 ADD PUSH1 0x8 SWAP1 SLOAD SWAP1 PUSH2 0x100 EXP SWAP1 DIV PUSH1 0xFF AND ISZERO PUSH2 0xAF JUMPI PUSH1 0x40 MLOAD PUSH32 0xF92EE8A900000000000000000000000000000000000000000000000000000000 DUP2 MSTORE PUSH1 0x4 ADD PUSH1 0x40 MLOAD DUP1 SWAP2 SUB SWAP1 REVERT JUMPDEST PUSH8 0xFFFFFFFFFFFFFFFF DUP1 AND DUP2 PUSH0 ADD PUSH0 SWAP1 SLOAD SWAP1 PUSH2 0x100 EXP SWAP1 DIV PUSH8 0xFFFFFFFFFFFFFFFF AND PUSH8 0xFFFFFFFFFFFFFFFF AND EQ PUSH2 0x151 JUMPI PUSH8 0xFFFFFFFFFFFFFFFF DUP2 PUSH0 ADD PUSH0 PUSH2 0x100 EXP DUP2 SLOAD DUP2 PUSH8 0xFFFFFFFFFFFFFFFF MUL NOT AND SWAP1 DUP4 PUSH8 0xFFFFFFFFFFFFFFFF AND MUL OR SWAP1 SSTORE POP PUSH32 0xC7F505B2F371AE2175EE4913F4499E1F2633A7B5936321EED1CDAEB6115181D2 PUSH8 0xFFFFFFFFFFFFFFFF PUSH1 0x40 MLOAD PUSH2 0x148 SWAP2 SWAP1 PUSH2 0x19D JUMP JUMPDEST PUSH1 0x40 MLOAD DUP1 SWAP2 SUB SWAP1 LOG1 JUMPDEST POP JUMP JUMPDEST PUSH0 PUSH32 0xF0C57E16840DF040F15088DC2F81FE391C3923BEC73E23A9662EFC9C229C6A00 SWAP1 POP SWAP1 JUMP JUMPDEST PUSH0 PUSH8 0xFFFFFFFFFFFFFFFF DUP3 AND SWAP1 POP SWAP2 SWAP1 POP JUMP JUMPDEST PUSH2 0x197 DUP2 PUSH2 0x17B JUMP JUMPDEST DUP3 MSTORE POP POP JUMP JUMPDEST PUSH0 PUSH1 0x20 DUP3 ADD SWAP1 POP PUSH2 0x1B0 PUSH0 DUP4 ADD DUP5 PUSH2 0x18E JUMP JUMPDEST SWAP3 SWAP2 POP POP JUMP JUMPDEST PUSH1 0x80 MLOAD PUSH2 0x458D PUSH2 0x1DC PUSH0 CODECOPY PUSH0 DUP2 DUP2 PUSH2 0x2C70 ADD MSTORE DUP2 DUP2 PUSH2 0x2CC5 ADD MSTORE PUSH2 0x2E7F ADD MSTORE PUSH2 0x458D PUSH0 RETURN INVALID PUSH1 0x80 PUSH1 0x40 MSTORE PUSH1 0x4 CALLDATASIZE LT PUSH2 0x27C JUMPI PUSH0 CALLDATALOAD PUSH1 0xE0 SHR DUP1 PUSH4 0x78FD078D GT PUSH2 0x14E JUMPI DUP1 PUSH4 0xB47FF951 GT PUSH2 0xC0 JUMPI DUP1 PUSH4 0xD777CC6D GT PUSH2 0x79 JUMPI DUP1 PUSH4 0xD777CC6D EQ PUSH2 0x90C JUMPI DUP1 PUSH4 0xD9B998B4 EQ PUSH2 0x934 JUMPI DUP1 PUSH4 0xE9C68E2C EQ PUSH2 0x95C JUMPI DUP1 PUSH4 0xED061067 EQ PUSH2 0x972 JUMPI DUP1 PUSH4 0xF2FDE38B EQ PUSH2 0x99A JUMPI DUP1 PUSH4 0xFF3D65D9 EQ PUSH2 0x9C2 JUMPI PUSH2 0x27C JUMP JUMPDEST DUP1 PUSH4 0xB47FF951 EQ PUSH2 0x7EB JUMPI DUP1 PUSH4 0xB9DAC1EB EQ PUSH2 0x815 JUMPI DUP1 PUSH4 0xBCCBC36C EQ PUSH2 0x83D JUMPI DUP1 PUSH4 0xC0C53B8B EQ PUSH2 0x87E JUMPI DUP1 PUSH4 0xC7FD5BF0 EQ PUSH2 0x8A6 JUMPI DUP1 PUSH4 0xCE356A24 EQ PUSH2 0x8E2 JUMPI PUSH2 0x27C JUMP JUMPDEST DUP1 PUSH4 0x8DA5CB5B GT PUSH2 0x112 JUMPI DUP1 PUSH4 0x8DA5CB5B EQ PUSH2 0x6DF JUMPI DUP1 PUSH4 0x947A36FB EQ PUSH2 0x709 JUMPI DUP1 PUSH4 0x9C361E4E EQ PUSH2 0x733 JUMPI DUP1 PUSH4 0xA4F67B8B EQ PUSH2 0x75D JUMPI DUP1 PUSH4 0xAD3CB1CC EQ PUSH2 0x799 JUMPI DUP1 PUSH4 0xAD8E5EC4 EQ PUSH2 0x7C3 JUMPI PUSH2 0x27C JUMP JUMPDEST DUP1 PUSH4 0x78FD078D EQ PUSH2 0x617 JUMPI DUP1 PUSH4 0x7F111E60 EQ PUSH2 0x63F JUMPI DUP1 PUSH4 0x7F70C5E7 EQ PUSH2 0x667 JUMPI DUP1 PUSH4 0x7FFE4D93 EQ PUSH2 0x68F JUMPI DUP1 PUSH4 0x85F45250 EQ PUSH2 0x6B7 JUMPI PUSH2 0x27C JUMP JUMPDEST DUP1 PUSH4 0x4585E33B GT PUSH2 0x1F2 JUMPI DUP1 PUSH4 0x5F17E616 GT PUSH2 0x1AB JUMPI DUP1 PUSH4 0x5F17E616 EQ PUSH2 0x536 JUMPI DUP1 PUSH4 0x6626B26D EQ PUSH2 0x55E JUMPI DUP1 PUSH4 0x67976974 EQ PUSH2 0x574 JUMPI DUP1 PUSH4 0x6E04FF0D EQ PUSH2 0x59C JUMPI DUP1 PUSH4 0x715018A6 EQ PUSH2 0x5D9 JUMPI DUP1 PUSH4 0x7547C7A3 EQ PUSH2 0x5EF JUMPI PUSH2 0x27C JUMP JUMPDEST DUP1 PUSH4 0x4585E33B EQ PUSH2 0x44C JUMPI DUP1 PUSH4 0x4F1EF286 EQ PUSH2 0x474 JUMPI DUP1 PUSH4 0x5256DBBF EQ PUSH2 0x490 JUMPI DUP1 PUSH4 0x52D1902D EQ PUSH2 0x4B8 JUMPI DUP1 PUSH4 0x5462870D EQ PUSH2 0x4E2 JUMPI DUP1 PUSH4 0x567E98F9 EQ PUSH2 0x50C JUMPI PUSH2 0x27C JUMP JUMPDEST DUP1 PUSH4 0x30E3F8F8 GT PUSH2 0x244 JUMPI DUP1 PUSH4 0x30E3F8F8 EQ PUSH2 0x350 JUMPI DUP1 PUSH4 0x33244C2C EQ PUSH2 0x37A JUMPI DUP1 PUSH4 0x39518B5E EQ PUSH2 0x3A4 JUMPI DUP1 PUSH4 0x3A71A9E4 EQ PUSH2 0x3CE JUMPI DUP1 PUSH4 0x3F3B3B27 EQ PUSH2 0x3F8 JUMPI DUP1 PUSH4 0x44490FF4 EQ PUSH2 0x422 JUMPI PUSH2 0x27C JUMP JUMPDEST DUP1 PUSH4 0x1934A83 EQ PUSH2 0x280 JUMPI DUP1 PUSH4 0x11EAC855 EQ PUSH2 0x2AA JUMPI DUP1 PUSH4 0x188E07B9 EQ PUSH2 0x2D4 JUMPI DUP1 PUSH4 0x2765DF7A EQ PUSH2 0x2FE JUMPI DUP1 PUSH4 0x3070FBF8 EQ PUSH2 0x326 JUMPI JUMPDEST PUSH0 DUP1 REVERT JUMPDEST CALLVALUE DUP1 ISZERO PUSH2 0x28B JUMPI PUSH0 DUP1 REVERT JUMPDEST POP PUSH2 0x294 PUSH2 0x9FE JUMP JUMPDEST PUSH1 0x40 MLOAD PUSH2 0x2A1 SWAP2 SWAP1 PUSH2 0x376B JUMP JUMPDEST PUSH1 0x40 MLOAD DUP1 SWAP2 SUB SWAP1 RETURN JUMPDEST CALLVALUE DUP1 ISZERO PUSH2 0x2B5 JUMPI PUSH0 DUP1 REVERT JUMPDEST POP PUSH2 0x2BE PUSH2 0xA04 JUMP JUMPDEST PUSH1 0x40 MLOAD PUSH2 0x2CB SWAP2 SWAP1 PUSH2 0x37FE JUMP JUMPDEST PUSH1 0x40 MLOAD DUP1 SWAP2 SUB SWAP1 RETURN JUMPDEST CALLVALUE DUP1 ISZERO PUSH2 0x2DF JUMPI PUSH0 DUP1 REVERT JUMPDEST POP PUSH2 0x2E8 PUSH2 0xA27 JUMP JUMPDEST PUSH1 0x40 MLOAD PUSH2 0x2F5 SWAP2 SWAP1 PUSH2 0x376B JUMP JUMPDEST PUSH1 0x40 MLOAD DUP1 SWAP2 SUB SWAP1 RETURN JUMPDEST CALLVALUE DUP1 ISZERO PUSH2 0x309 JUMPI PUSH0 DUP1 REVERT JUMPDEST POP PUSH2 0x324 PUSH1 0x4 DUP1 CALLDATASIZE SUB DUP2 ADD SWAP1 PUSH2 0x31F SWAP2 SWAP1 PUSH2 0x3852 JUMP JUMPDEST PUSH2 0xA2D JUMP JUMPDEST STOP JUMPDEST CALLVALUE DUP1 ISZERO PUSH2 0x331 JUMPI PUSH0 DUP1 REVERT JUMPDEST POP PUSH2 0x33A PUSH2 0xB08 JUMP JUMPDEST PUSH1 0x40 MLOAD PUSH2 0x347 SWAP2 SWAP1 PUSH2 0x389D JUMP JUMPDEST PUSH1 0x40 MLOAD DUP1 SWAP2 SUB SWAP1 RETURN JUMPDEST CALLVALUE DUP1 ISZERO PUSH2 0x35B JUMPI PUSH0 DUP1 REVERT JUMPDEST POP PUSH2 0x364 PUSH2 0xB2D JUMP JUMPDEST PUSH1 0x40 MLOAD PUSH2 0x371 SWAP2 SWAP1 PUSH2 0x38D0 JUMP JUMPDEST PUSH1 0x40 MLOAD DUP1 SWAP2 SUB SWAP1 RETURN JUMPDEST CALLVALUE DUP1 ISZERO PUSH2 0x385 JUMPI PUSH0 DUP1 REVERT JUMPDEST POP PUSH2 0x38E PUSH2 0xB40 JUMP JUMPDEST PUSH1 0x40 MLOAD PUSH2 0x39B SWAP2 SWAP1 PUSH2 0x376B JUMP JUMPDEST PUSH1 0x40 MLOAD DUP1 SWAP2 SUB SWAP1 RETURN JUMPDEST CALLVALUE DUP1 ISZERO PUSH2 0x3AF JUMPI PUSH0 DUP1 REVERT JUMPDEST POP PUSH2 0x3B8 PUSH2 0xB46 JUMP JUMPDEST PUSH1 0x40 MLOAD PUSH2 0x3C5 SWAP2 SWAP1 PUSH2 0x376B JUMP JUMPDEST PUSH1 0x40 MLOAD DUP1 SWAP2 SUB SWAP1 RETURN JUMPDEST CALLVALUE DUP1 ISZERO PUSH2 0x3D9 JUMPI PUSH0 DUP1 REVERT JUMPDEST POP PUSH2 0x3E2 PUSH2 0xB4C JUMP JUMPDEST PUSH1 0x40 MLOAD PUSH2 0x3EF SWAP2 SWAP1 PUSH2 0x376B JUMP JUMPDEST PUSH1 0x40 MLOAD DUP1 SWAP2 SUB SWAP1 RETURN JUMPDEST CALLVALUE DUP1 ISZERO PUSH2 0x403 JUMPI PUSH0 DUP1 REVERT JUMPDEST POP PUSH2 0x40C PUSH2 0xB52 JUMP JUMPDEST PUSH1 0x40 MLOAD PUSH2 0x419 SWAP2 SWAP1 PUSH2 0x376B JUMP JUMPDEST PUSH1 0x40 MLOAD DUP1 SWAP2 SUB SWAP1 RETURN JUMPDEST CALLVALUE DUP1 ISZERO PUSH2 0x42D JUMPI PUSH0 DUP1 REVERT JUMPDEST POP PUSH2 0x436 PUSH2 0xB58 JUMP JUMPDEST PUSH1 0x40 MLOAD PUSH2 0x443 SWAP2 SWAP1 PUSH2 0x376B JUMP JUMPDEST PUSH1 0x40 MLOAD DUP1 SWAP2 SUB SWAP1 RETURN JUMPDEST CALLVALUE DUP1 ISZERO PUSH2 0x457 JUMPI PUSH0 DUP1 REVERT JUMPDEST POP PUSH2 0x472 PUSH1 0x4 DUP1 CALLDATASIZE SUB DUP2 ADD SWAP1 PUSH2 0x46D SWAP2 SWAP1 PUSH2 0x394A JUMP JUMPDEST PUSH2 0xB5E JUMP JUMPDEST STOP JUMPDEST PUSH2 0x48E PUSH1 0x4 DUP1 CALLDATASIZE SUB DUP2 ADD SWAP1 PUSH2 0x489 SWAP2 SWAP1 PUSH2 0x3AF7 JUMP JUMPDEST PUSH2 0xCEE JUMP JUMPDEST STOP JUMPDEST CALLVALUE DUP1 ISZERO PUSH2 0x49B JUMPI PUSH0 DUP1 REVERT JUMPDEST POP PUSH2 0x4B6 PUSH1 0x4 DUP1 CALLDATASIZE SUB DUP2 ADD SWAP1 PUSH2 0x4B1 SWAP2 SWAP1 PUSH2 0x3852 JUMP JUMPDEST PUSH2 0xD0D JUMP JUMPDEST STOP JUMPDEST CALLVALUE DUP1 ISZERO PUSH2 0x4C3 JUMPI PUSH0 DUP1 REVERT JUMPDEST POP PUSH2 0x4CC PUSH2 0xE90 JUMP JUMPDEST PUSH1 0x40 MLOAD PUSH2 0x4D9 SWAP2 SWAP1 PUSH2 0x3B69 JUMP JUMPDEST PUSH1 0x40 MLOAD DUP1 SWAP2 SUB SWAP1 RETURN JUMPDEST CALLVALUE DUP1 ISZERO PUSH2 0x4ED JUMPI PUSH0 DUP1 REVERT JUMPDEST POP PUSH2 0x4F6 PUSH2 0xEC1 JUMP JUMPDEST PUSH1 0x40 MLOAD PUSH2 0x503 SWAP2 SWAP1 PUSH2 0x389D JUMP JUMPDEST PUSH1 0x40 MLOAD DUP1 SWAP2 SUB SWAP1 RETURN JUMPDEST CALLVALUE DUP1 ISZERO PUSH2 0x517 JUMPI PUSH0 DUP1 REVERT JUMPDEST POP PUSH2 0x520 PUSH2 0xEE6 JUMP JUMPDEST PUSH1 0x40 MLOAD PUSH2 0x52D SWAP2 SWAP1 PUSH2 0x376B JUMP JUMPDEST PUSH1 0x40 MLOAD DUP1 SWAP2 SUB SWAP1 RETURN JUMPDEST CALLVALUE DUP1 ISZERO PUSH2 0x541 JUMPI PUSH0 DUP1 REVERT JUMPDEST POP PUSH2 0x55C PUSH1 0x4 DUP1 CALLDATASIZE SUB DUP2 ADD SWAP1 PUSH2 0x557 SWAP2 SWAP1 PUSH2 0x3B82 JUMP JUMPDEST PUSH2 0xEEC JUMP JUMPDEST STOP JUMPDEST CALLVALUE DUP1 ISZERO PUSH2 0x569 JUMPI PUSH0 DUP1 REVERT JUMPDEST POP PUSH2 0x572 PUSH2 0xFD5 JUMP JUMPDEST STOP JUMPDEST CALLVALUE DUP1 ISZERO PUSH2 0x57F JUMPI PUSH0 DUP1 REVERT JUMPDEST POP PUSH2 0x59A PUSH1 0x4 DUP1 CALLDATASIZE SUB DUP2 ADD SWAP1 PUSH2 0x595 SWAP2 SWAP1 PUSH2 0x3852 JUMP JUMPDEST PUSH2 0x103B JUMP JUMPDEST STOP JUMPDEST CALLVALUE DUP1 ISZERO PUSH2 0x5A7 JUMPI PUSH0 DUP1 REVERT JUMPDEST POP PUSH2 0x5C2 PUSH1 0x4 DUP1 CALLDATASIZE SUB DUP2 ADD SWAP1 PUSH2 0x5BD SWAP2 SWAP1 PUSH2 0x394A JUMP JUMPDEST PUSH2 0x1350 JUMP JUMPDEST PUSH1 0x40 MLOAD PUSH2 0x5D0 SWAP3 SWAP2 SWAP1 PUSH2 0x3C20 JUMP JUMPDEST PUSH1 0x40 MLOAD DUP1 SWAP2 SUB SWAP1 RETURN JUMPDEST CALLVALUE DUP1 ISZERO PUSH2 0x5E4 JUMPI PUSH0 DUP1 REVERT JUMPDEST POP PUSH2 0x5ED PUSH2 0x1384 JUMP JUMPDEST STOP JUMPDEST CALLVALUE DUP1 ISZERO PUSH2 0x5FA JUMPI PUSH0 DUP1 REVERT JUMPDEST POP PUSH2 0x615 PUSH1 0x4 DUP1 CALLDATASIZE SUB DUP2 ADD SWAP1 PUSH2 0x610 SWAP2 SWAP1 PUSH2 0x3852 JUMP JUMPDEST PUSH2 0x1397 JUMP JUMPDEST STOP JUMPDEST CALLVALUE DUP1 ISZERO PUSH2 0x622 JUMPI PUSH0 DUP1 REVERT JUMPDEST POP PUSH2 0x63D PUSH1 0x4 DUP1 CALLDATASIZE SUB DUP2 ADD SWAP1 PUSH2 0x638 SWAP2 SWAP1 PUSH2 0x3852 JUMP JUMPDEST PUSH2 0x1791 JUMP JUMPDEST STOP JUMPDEST CALLVALUE DUP1 ISZERO PUSH2 0x64A JUMPI PUSH0 DUP1 REVERT JUMPDEST POP PUSH2 0x665 PUSH1 0x4 DUP1 CALLDATASIZE SUB DUP2 ADD SWAP1 PUSH2 0x660 SWAP2 SWAP1 PUSH2 0x3852 JUMP JUMPDEST PUSH2 0x1914 JUMP JUMPDEST STOP JUMPDEST CALLVALUE DUP1 ISZERO PUSH2 0x672 JUMPI PUSH0 DUP1 REVERT JUMPDEST POP PUSH2 0x68D PUSH1 0x4 DUP1 CALLDATASIZE SUB DUP2 ADD SWAP1 PUSH2 0x688 SWAP2 SWAP1 PUSH2 0x3852 JUMP JUMPDEST PUSH2 0x19A5 JUMP JUMPDEST STOP JUMPDEST CALLVALUE DUP1 ISZERO PUSH2 0x69A JUMPI PUSH0 DUP1 REVERT JUMPDEST POP PUSH2 0x6B5 PUSH1 0x4 DUP1 CALLDATASIZE SUB DUP2 ADD SWAP1 PUSH2 0x6B0 SWAP2 SWAP1 PUSH2 0x3852 JUMP JUMPDEST PUSH2 0x1A36 JUMP JUMPDEST STOP JUMPDEST CALLVALUE DUP1 ISZERO PUSH2 0x6C2 JUMPI PUSH0 DUP1 REVERT JUMPDEST POP PUSH2 0x6DD PUSH1 0x4 DUP1 CALLDATASIZE SUB DUP2 ADD SWAP1 PUSH2 0x6D8 SWAP2 SWAP1 PUSH2 0x3B82 JUMP JUMPDEST PUSH2 0x1CF1 JUMP JUMPDEST STOP JUMPDEST CALLVALUE DUP1 ISZERO PUSH2 0x6EA JUMPI PUSH0 DUP1 REVERT JUMPDEST POP PUSH2 0x6F3 PUSH2 0x1EB7 JUMP JUMPDEST PUSH1 0x40 MLOAD PUSH2 0x700 SWAP2 SWAP1 PUSH2 0x389D JUMP JUMPDEST PUSH1 0x40 MLOAD DUP1 SWAP2 SUB SWAP1 RETURN JUMPDEST CALLVALUE DUP1 ISZERO PUSH2 0x714 JUMPI PUSH0 DUP1 REVERT JUMPDEST POP PUSH2 0x71D PUSH2 0x1EEC JUMP JUMPDEST PUSH1 0x40 MLOAD PUSH2 0x72A SWAP2 SWAP1 PUSH2 0x376B JUMP JUMPDEST PUSH1 0x40 MLOAD DUP1 SWAP2 SUB SWAP1 RETURN JUMPDEST CALLVALUE DUP1 ISZERO PUSH2 0x73E JUMPI PUSH0 DUP1 REVERT JUMPDEST POP PUSH2 0x747 PUSH2 0x1EF2 JUMP JUMPDEST PUSH1 0x40 MLOAD PUSH2 0x754 SWAP2 SWAP1 PUSH2 0x376B JUMP JUMPDEST PUSH1 0x40 MLOAD DUP1 SWAP2 SUB SWAP1 RETURN JUMPDEST CALLVALUE DUP1 ISZERO PUSH2 0x768 JUMPI PUSH0 DUP1 REVERT JUMPDEST POP PUSH2 0x783 PUSH1 0x4 DUP1 CALLDATASIZE SUB DUP2 ADD SWAP1 PUSH2 0x77E SWAP2 SWAP1 PUSH2 0x3852 JUMP JUMPDEST PUSH2 0x1EF8 JUMP JUMPDEST PUSH1 0x40 MLOAD PUSH2 0x790 SWAP2 SWAP1 PUSH2 0x389D JUMP JUMPDEST PUSH1 0x40 MLOAD DUP1 SWAP2 SUB SWAP1 RETURN JUMPDEST CALLVALUE DUP1 ISZERO PUSH2 0x7A4 JUMPI PUSH0 DUP1 REVERT JUMPDEST POP PUSH2 0x7AD PUSH2 0x1F28 JUMP JUMPDEST PUSH1 0x40 MLOAD PUSH2 0x7BA SWAP2 SWAP1 PUSH2 0x3CA0 JUMP JUMPDEST PUSH1 0x40 MLOAD DUP1 SWAP2 SUB SWAP1 RETURN JUMPDEST CALLVALUE DUP1 ISZERO PUSH2 0x7CE JUMPI PUSH0 DUP1 REVERT JUMPDEST POP PUSH2 0x7E9 PUSH1 0x4 DUP1 CALLDATASIZE SUB DUP2 ADD SWAP1 PUSH2 0x7E4 SWAP2 SWAP1 PUSH2 0x3852 JUMP JUMPDEST PUSH2 0x1F61 JUMP JUMPDEST STOP JUMPDEST CALLVALUE DUP1 ISZERO PUSH2 0x7F6 JUMPI PUSH0 DUP1 REVERT JUMPDEST POP PUSH2 0x7FF PUSH2 0x1FF2 JUMP JUMPDEST PUSH1 0x40 MLOAD PUSH2 0x80C SWAP2 SWAP1 PUSH2 0x376B JUMP JUMPDEST PUSH1 0x40 MLOAD DUP1 SWAP2 SUB SWAP1 RETURN JUMPDEST CALLVALUE DUP1 ISZERO PUSH2 0x820 JUMPI PUSH0 DUP1 REVERT JUMPDEST POP PUSH2 0x83B PUSH1 0x4 DUP1 CALLDATASIZE SUB DUP2 ADD SWAP1 PUSH2 0x836 SWAP2 SWAP1 PUSH2 0x3852 JUMP JUMPDEST PUSH2 0x1FF8 JUMP JUMPDEST STOP JUMPDEST CALLVALUE DUP1 ISZERO PUSH2 0x848 JUMPI PUSH0 DUP1 REVERT JUMPDEST POP PUSH2 0x863 PUSH1 0x4 DUP1 CALLDATASIZE SUB DUP2 ADD SWAP1 PUSH2 0x85E SWAP2 SWAP1 PUSH2 0x3CC0 JUMP JUMPDEST PUSH2 0x2089 JUMP JUMPDEST PUSH1 0x40 MLOAD PUSH2 0x875 SWAP7 SWAP6 SWAP5 SWAP4 SWAP3 SWAP2 SWAP1 PUSH2 0x3CEB JUMP JUMPDEST PUSH1 0x40 MLOAD DUP1 SWAP2 SUB SWAP1 RETURN JUMPDEST CALLVALUE DUP1 ISZERO PUSH2 0x889 JUMPI PUSH0 DUP1 REVERT JUMPDEST POP PUSH2 0x8A4 PUSH1 0x4 DUP1 CALLDATASIZE SUB DUP2 ADD SWAP1 PUSH2 0x89F SWAP2 SWAP1 PUSH2 0x3D4A JUMP JUMPDEST PUSH2 0x20CD JUMP JUMPDEST STOP JUMPDEST CALLVALUE DUP1 ISZERO PUSH2 0x8B1 JUMPI PUSH0 DUP1 REVERT JUMPDEST POP PUSH2 0x8CC PUSH1 0x4 DUP1 CALLDATASIZE SUB DUP2 ADD SWAP1 PUSH2 0x8C7 SWAP2 SWAP1 PUSH2 0x3CC0 JUMP JUMPDEST PUSH2 0x2366 JUMP JUMPDEST PUSH1 0x40 MLOAD PUSH2 0x8D9 SWAP2 SWAP1 PUSH2 0x38D0 JUMP JUMPDEST PUSH1 0x40 MLOAD DUP1 SWAP2 SUB SWAP1 RETURN JUMPDEST CALLVALUE DUP1 ISZERO PUSH2 0x8ED JUMPI PUSH0 DUP1 REVERT JUMPDEST POP PUSH2 0x8F6 PUSH2 0x2383 JUMP JUMPDEST PUSH1 0x40 MLOAD PUSH2 0x903 SWAP2 SWAP1 PUSH2 0x376B JUMP JUMPDEST PUSH1 0x40 MLOAD DUP1 SWAP2 SUB SWAP1 RETURN JUMPDEST CALLVALUE DUP1 ISZERO PUSH2 0x917 JUMPI PUSH0 DUP1 REVERT JUMPDEST POP PUSH2 0x932 PUSH1 0x4 DUP1 CALLDATASIZE SUB DUP2 ADD SWAP1 PUSH2 0x92D SWAP2 SWAP1 PUSH2 0x3CC0 JUMP JUMPDEST PUSH2 0x2389 JUMP JUMPDEST STOP JUMPDEST CALLVALUE DUP1 ISZERO PUSH2 0x93F JUMPI PUSH0 DUP1 REVERT JUMPDEST POP PUSH2 0x95A PUSH1 0x4 DUP1 CALLDATASIZE SUB DUP2 ADD SWAP1 PUSH2 0x955 SWAP2 SWAP1 PUSH2 0x3DC4 JUMP JUMPDEST PUSH2 0x249E JUMP JUMPDEST STOP JUMPDEST CALLVALUE DUP1 ISZERO PUSH2 0x967 JUMPI PUSH0 DUP1 REVERT JUMPDEST POP PUSH2 0x970 PUSH2 0x26BA JUMP JUMPDEST STOP JUMPDEST CALLVALUE DUP1 ISZERO PUSH2 0x97D JUMPI PUSH0 DUP1 REVERT JUMPDEST POP PUSH2 0x998 PUSH1 0x4 DUP1 CALLDATASIZE SUB DUP2 ADD SWAP1 PUSH2 0x993 SWAP2 SWAP1 PUSH2 0x3B82 JUMP JUMPDEST PUSH2 0x2A9E JUMP JUMPDEST STOP JUMPDEST CALLVALUE DUP1 ISZERO PUSH2 0x9A5 JUMPI PUSH0 DUP1 REVERT JUMPDEST POP PUSH2 0x9C0 PUSH1 0x4 DUP1 CALLDATASIZE SUB DUP2 ADD SWAP1 PUSH2 0x9BB SWAP2 SWAP1 PUSH2 0x3CC0 JUMP JUMPDEST PUSH2 0x2B4E JUMP JUMPDEST STOP JUMPDEST CALLVALUE DUP1 ISZERO PUSH2 0x9CD JUMPI PUSH0 DUP1 REVERT JUMPDEST POP PUSH2 0x9E8 PUSH1 0x4 DUP1 CALLDATASIZE SUB DUP2 ADD SWAP1 PUSH2 0x9E3 SWAP2 SWAP1 PUSH2 0x3852 JUMP JUMPDEST PUSH2 0x2BD2 JUMP JUMPDEST PUSH1 0x40 MLOAD PUSH2 0x9F5 SWAP2 SWAP1 PUSH2 0x376B JUMP JUMPDEST PUSH1 0x40 MLOAD DUP1 SWAP2 SUB SWAP1 RETURN JUMPDEST PUSH1 0x8 SLOAD DUP2 JUMP JUMPDEST PUSH0 DUP1 SLOAD SWAP1 PUSH2 0x100 EXP SWAP1 DIV PUSH20 0xFFFFFFFFFFFFFFFFFFFFFFFFFFFFFFFFFFFFFFFF AND DUP2 JUMP JUMPDEST PUSH1 0x1 SLOAD DUP2 JUMP JUMPDEST PUSH2 0xA35 PUSH2 0x2BE7 JUMP JUMPDEST PUSH0 DUP2 GT PUSH2 0xA79 JUMPI DUP1 PUSH1 0x40 MLOAD PUSH32 0xCDBC633500000000000000000000000000000000000000000000000000000000 DUP2 MSTORE PUSH1 0x4 ADD PUSH2 0xA70 SWAP2 SWAP1 PUSH2 0x376B JUMP JUMPDEST PUSH1 0x40 MLOAD DUP1 SWAP2 SUB SWAP1 REVERT JUMPDEST DUP1 PUSH1 0x11 PUSH0 PUSH1 0xE SLOAD DUP2 MSTORE PUSH1 0x20 ADD SWAP1 DUP2 MSTORE PUSH1 0x20 ADD PUSH0 KECCAK256 DUP2 SWAP1 SSTORE POP PUSH1 0xE PUSH0 DUP2 SLOAD DUP1 SWAP3 SWAP2 SWAP1 PUSH2 0xAA3 SWAP1 PUSH2 0x3E2F JUMP JUMPDEST SWAP2 SWAP1 POP SSTORE POP PUSH32 0xE1976E16ED8CE8E740235978FBE69B27D5EEA683B2E017BB0BD2FABB33294B3F PUSH1 0xE PUSH0 DUP2 SLOAD DUP1 SWAP3 SWAP2 SWAP1 PUSH2 0xADB SWAP1 PUSH2 0x3E76 JUMP JUMPDEST SWAP2 SWAP1 POP SSTORE DUP3 PUSH2 0x2710 PUSH2 0xAED SWAP2 SWAP1 PUSH2 0x3E9D JUMP JUMPDEST DUP4 PUSH1 0x40 MLOAD PUSH2 0xAFD SWAP4 SWAP3 SWAP2 SWAP1 PUSH2 0x3ED0 JUMP JUMPDEST PUSH1 0x40 MLOAD DUP1 SWAP2 SUB SWAP1 LOG1 POP JUMP JUMPDEST PUSH1 0xD PUSH0 SWAP1 SLOAD SWAP1 PUSH2 0x100 EXP SWAP1 DIV PUSH20 0xFFFFFFFFFFFFFFFFFFFFFFFFFFFFFFFFFFFFFFFF AND DUP2 JUMP JUMPDEST PUSH1 0x9 PUSH1 0x14 SWAP1 SLOAD SWAP1 PUSH2 0x100 EXP SWAP1 DIV PUSH1 0xFF AND DUP2 JUMP JUMPDEST PUSH1 0x4 SLOAD DUP2 JUMP JUMPDEST PUSH1 0xB SLOAD DUP2 JUMP JUMPDEST PUSH1 0x7 SLOAD DUP2 JUMP JUMPDEST PUSH1 0xC SLOAD DUP2 JUMP JUMPDEST PUSH1 0x5 SLOAD DUP2 JUMP JUMPDEST PUSH1 0xD PUSH0 SWAP1 SLOAD SWAP1 PUSH2 0x100 EXP SWAP1 DIV PUSH20 0xFFFFFFFFFFFFFFFFFFFFFFFFFFFFFFFFFFFFFFFF AND PUSH20 0xFFFFFFFFFFFFFFFFFFFFFFFFFFFFFFFFFFFFFFFF AND CALLER PUSH20 0xFFFFFFFFFFFFFFFFFFFFFFFFFFFFFFFFFFFFFFFF AND EQ PUSH2 0xBED JUMPI PUSH1 0x40 MLOAD PUSH32 0x8C379A000000000000000000000000000000000000000000000000000000000 DUP2 MSTORE PUSH1 0x4 ADD PUSH2 0xBE4 SWAP1 PUSH2 0x3F75 JUMP JUMPDEST PUSH1 0x40 MLOAD DUP1 SWAP2 SUB SWAP1 REVERT JUMPDEST PUSH0 PUSH1 0xA SLOAD SUB PUSH2 0xC35 JUMPI PUSH1 0xA SLOAD PUSH1 0x40 MLOAD PUSH32 0x7154000700000000000000000000000000000000000000000000000000000000 DUP2 MSTORE PUSH1 0x4 ADD PUSH2 0xC2C SWAP2 SWAP1 PUSH2 0x376B JUMP JUMPDEST PUSH1 0x40 MLOAD DUP1 SWAP2 SUB SWAP1 REVERT JUMPDEST PUSH1 0x9 PUSH1 0x14 SWAP1 SLOAD SWAP1 PUSH2 0x100 EXP SWAP1 DIV PUSH1 0xFF AND PUSH2 0xCAA JUMPI PUSH1 0xB SLOAD TIMESTAMP LT PUSH2 0xC66 JUMPI TIMESTAMP PUSH1 0xC DUP2 SWAP1 SSTORE POP PUSH2 0xC61 PUSH2 0x26BA JUMP JUMPDEST PUSH2 0xCA5 JUMP JUMPDEST PUSH1 0xB SLOAD PUSH1 0x40 MLOAD PUSH32 0x54593E7500000000000000000000000000000000000000000000000000000000 DUP2 MSTORE PUSH1 0x4 ADD PUSH2 0xC9C SWAP2 SWAP1 PUSH2 0x376B JUMP JUMPDEST PUSH1 0x40 MLOAD DUP1 SWAP2 SUB SWAP1 REVERT JUMPDEST PUSH2 0xCBA JUMP JUMPDEST TIMESTAMP PUSH1 0xC DUP2 SWAP1 SSTORE POP PUSH2 0xCB9 PUSH2 0x26BA JUMP JUMPDEST JUMPDEST PUSH1 0x9 PUSH1 0x14 SWAP1 SLOAD SWAP1 PUSH2 0x100 EXP SWAP1 DIV PUSH1 0xFF AND PUSH2 0xCEA JUMPI PUSH1 0x1 PUSH1 0x9 PUSH1 0x14 PUSH2 0x100 EXP DUP2 SLOAD DUP2 PUSH1 0xFF MUL NOT AND SWAP1 DUP4 ISZERO ISZERO MUL OR SWAP1 SSTORE POP JUMPDEST POP POP JUMP JUMPDEST PUSH2 0xCF6 PUSH2 0x2C6E JUMP JUMPDEST PUSH2 0xCFF DUP3 PUSH2 0x2D54 JUMP JUMPDEST PUSH2 0xD09 DUP3 DUP3 PUSH2 0x2D5F JUMP JUMPDEST POP POP JUMP JUMPDEST PUSH2 0xD15 PUSH2 0x2BE7 JUMP JUMPDEST PUSH0 DUP2 GT PUSH2 0xD59 JUMPI DUP1 PUSH1 0x40 MLOAD PUSH32 0x2FF4783000000000000000000000000000000000000000000000000000000000 DUP2 MSTORE PUSH1 0x4 ADD PUSH2 0xD50 SWAP2 SWAP1 PUSH2 0x376B JUMP JUMPDEST PUSH1 0x40 MLOAD DUP1 SWAP2 SUB SWAP1 REVERT JUMPDEST DUP1 PUSH1 0x1 PUSH0 DUP3 DUP3 SLOAD PUSH2 0xD6A SWAP2 SWAP1 PUSH2 0x3F93 JUMP JUMPDEST SWAP3 POP POP DUP2 SWAP1 SSTORE POP PUSH0 DUP1 PUSH0 SWAP1 SLOAD SWAP1 PUSH2 0x100 EXP SWAP1 DIV PUSH20 0xFFFFFFFFFFFFFFFFFFFFFFFFFFFFFFFFFFFFFFFF AND PUSH20 0xFFFFFFFFFFFFFFFFFFFFFFFFFFFFFFFFFFFFFFFF AND PUSH4 0x23B872DD CALLER ADDRESS DUP6 PUSH1 0x40 MLOAD DUP5 PUSH4 0xFFFFFFFF AND PUSH1 0xE0 SHL DUP2 MSTORE PUSH1 0x4 ADD PUSH2 0xDCF SWAP4 SWAP3 SWAP2 SWAP1 PUSH2 0x3FC6 JUMP JUMPDEST PUSH1 0x20 PUSH1 0x40 MLOAD DUP1 DUP4 SUB DUP2 PUSH0 DUP8 GAS CALL ISZERO DUP1 ISZERO PUSH2 0xDEB JUMPI RETURNDATASIZE PUSH0 DUP1 RETURNDATACOPY RETURNDATASIZE PUSH0 REVERT JUMPDEST POP POP POP POP PUSH1 0x40 MLOAD RETURNDATASIZE PUSH1 0x1F NOT PUSH1 0x1F DUP3 ADD AND DUP3 ADD DUP1 PUSH1 0x40 MSTORE POP DUP2 ADD SWAP1 PUSH2 0xE0F SWAP2 SWAP1 PUSH2 0x400F JUMP JUMPDEST SWAP1 POP DUP1 PUSH2 0xE53 JUMPI DUP1 PUSH1 0x40 MLOAD PUSH32 0xD85D3CEF00000000000000000000000000000000000000000000000000000000 DUP2 MSTORE PUSH1 0x4 ADD PUSH2 0xE4A SWAP2 SWAP1 PUSH2 0x38D0 JUMP JUMPDEST PUSH1 0x40 MLOAD DUP1 SWAP2 SUB SWAP1 REVERT JUMPDEST PUSH32 0xA9F166643EC132A11638E74E3C3A78D4AE278FCBF92998240E0E97676F54E404 PUSH1 0x1 SLOAD PUSH1 0x40 MLOAD PUSH2 0xE84 SWAP2 SWAP1 PUSH2 0x376B JUMP JUMPDEST PUSH1 0x40 MLOAD DUP1 SWAP2 SUB SWAP1 LOG1 POP POP JUMP JUMPDEST PUSH0 PUSH2 0xE99 PUSH2 0x2E7D JUMP JUMPDEST PUSH32 0x360894A13BA1A3210667C828492DB98DCA3E2076CC3735A920A3CA505D382BBC PUSH0 SHL SWAP1 POP SWAP1 JUMP JUMPDEST PUSH1 0x9 PUSH0 SWAP1 SLOAD SWAP1 PUSH2 0x100 EXP SWAP1 DIV PUSH20 0xFFFFFFFFFFFFFFFFFFFFFFFFFFFFFFFFFFFFFFFF AND DUP2 JUMP JUMPDEST PUSH1 0x3 SLOAD DUP2 JUMP JUMPDEST PUSH2 0xEF4 PUSH2 0x2BE7 JUMP JUMPDEST PUSH0 DUP2 GT PUSH2 0xF38 JUMPI DUP1 PUSH1 0x40 MLOAD PUSH32 0x7154000700000000000000000000000000000000000000000000000000000000 DUP2 MSTORE PUSH1 0x4 ADD PUSH2 0xF2F SWAP2 SWAP1 PUSH2 0x376B JUMP JUMPDEST PUSH1 0x40 MLOAD DUP1 SWAP2 SUB SWAP1 REVERT JUMPDEST TIMESTAMP DUP3 LT ISZERO PUSH2 0xF7D JUMPI DUP2 PUSH1 0x40 MLOAD PUSH32 0x54593E7500000000000000000000000000000000000000000000000000000000 DUP2 MSTORE PUSH1 0x4 ADD PUSH2 0xF74 SWAP2 SWAP1 PUSH2 0x376B JUMP JUMPDEST PUSH1 0x40 MLOAD DUP1 SWAP2 SUB SWAP1 REVERT JUMPDEST DUP1 PUSH1 0xA DUP2 SWAP1 SSTORE POP DUP2 PUSH1 0xB DUP2 SWAP1 SSTORE POP TIMESTAMP PUSH1 0xC DUP2 SWAP1 SSTORE POP PUSH32 0x2B5090E035D3026F5448298C9ADC68DB8BBC1B26A8AF5C81B2B2A9FC07CA4A00 CALLER PUSH1 0xA SLOAD PUSH1 0xC SLOAD PUSH1 0x40 MLOAD PUSH2 0xFC9 SWAP4 SWAP3 SWAP2 SWAP1 PUSH2 0x403A JUMP JUMPDEST PUSH1 0x40 MLOAD DUP1 SWAP2 SUB SWAP1 LOG1 POP POP JUMP JUMPDEST PUSH2 0xFDD PUSH2 0x2BE7 JUMP JUMPDEST PUSH0 PUSH1 0xA DUP2 SWAP1 SSTORE POP PUSH0 PUSH1 0x9 PUSH1 0x14 PUSH2 0x100 EXP DUP2 SLOAD DUP2 PUSH1 0xFF MUL NOT AND SWAP1 DUP4 ISZERO ISZERO MUL OR SWAP1 SSTORE POP PUSH32 0x3B68DC4E210C46D3622293F2B941CDFDE795BB6E17286BB289BA05A6A3B5541F CALLER PUSH1 0xA SLOAD PUSH1 0x40 MLOAD PUSH2 0x1031 SWAP3 SWAP2 SWAP1 PUSH2 0x406F JUMP JUMPDEST PUSH1 0x40 MLOAD DUP1 SWAP2 SUB SWAP1 LOG1 JUMP JUMPDEST PUSH1 0x9 PUSH1 0x15 SWAP1 SLOAD SWAP1 PUSH2 0x100 EXP SWAP1 DIV PUSH1 0xFF AND ISZERO PUSH2 0x108B JUMPI PUSH1 0x40 MLOAD PUSH32 0x8C379A000000000000000000000000000000000000000000000000000000000 DUP2 MSTORE PUSH1 0x4 ADD PUSH2 0x1082 SWAP1 PUSH2 0x40E0 JUMP JUMPDEST PUSH1 0x40 MLOAD DUP1 SWAP2 SUB SWAP1 REVERT JUMPDEST PUSH1 0x1 PUSH1 0x9 PUSH1 0x15 PUSH2 0x100 EXP DUP2 SLOAD DUP2 PUSH1 0xFF MUL NOT AND SWAP1 DUP4 ISZERO ISZERO MUL OR SWAP1 SSTORE POP PUSH0 DUP2 GT PUSH2 0x10EA JUMPI DUP1 PUSH1 0x40 MLOAD PUSH32 0x2FF4783000000000000000000000000000000000000000000000000000000000 DUP2 MSTORE PUSH1 0x4 ADD PUSH2 0x10E1 SWAP2 SWAP1 PUSH2 0x376B JUMP JUMPDEST PUSH1 0x40 MLOAD DUP1 SWAP2 SUB SWAP1 REVERT JUMPDEST PUSH1 0x12 PUSH0 CALLER PUSH20 0xFFFFFFFFFFFFFFFFFFFFFFFFFFFFFFFFFFFFFFFF AND PUSH20 0xFFFFFFFFFFFFFFFFFFFFFFFFFFFFFFFFFFFFFFFF AND DUP2 MSTORE PUSH1 0x20 ADD SWAP1 DUP2 MSTORE PUSH1 0x20 ADD PUSH0 KECCAK256 PUSH1 0x1 ADD SLOAD DUP2 GT ISZERO PUSH2 0x116D JUMPI PUSH1 0x40 MLOAD PUSH32 0x8C379A000000000000000000000000000000000000000000000000000000000 DUP2 MSTORE PUSH1 0x4 ADD PUSH2 0x1164 SWAP1 PUSH2 0x4148 JUMP JUMPDEST PUSH1 0x40 MLOAD DUP1 SWAP2 SUB SWAP1 REVERT JUMPDEST DUP1 PUSH1 0x12 PUSH0 CALLER PUSH20 0xFFFFFFFFFFFFFFFFFFFFFFFFFFFFFFFFFFFFFFFF AND PUSH20 0xFFFFFFFFFFFFFFFFFFFFFFFFFFFFFFFFFFFFFFFF AND DUP2 MSTORE PUSH1 0x20 ADD SWAP1 DUP2 MSTORE PUSH1 0x20 ADD PUSH0 KECCAK256 PUSH1 0x1 ADD PUSH0 DUP3 DUP3 SLOAD PUSH2 0x11BC SWAP2 SWAP1 PUSH2 0x3E9D JUMP JUMPDEST SWAP3 POP POP DUP2 SWAP1 SSTORE POP DUP1 PUSH1 0x12 PUSH0 CALLER PUSH20 0xFFFFFFFFFFFFFFFFFFFFFFFFFFFFFFFFFFFFFFFF AND PUSH20 0xFFFFFFFFFFFFFFFFFFFFFFFFFFFFFFFFFFFFFFFF AND DUP2 MSTORE PUSH1 0x20 ADD SWAP1 DUP2 MSTORE PUSH1 0x20 ADD PUSH0 KECCAK256 PUSH1 0x2 ADD PUSH0 DUP3 DUP3 SLOAD PUSH2 0x1212 SWAP2 SWAP1 PUSH2 0x3F93 JUMP JUMPDEST SWAP3 POP POP DUP2 SWAP1 SSTORE POP PUSH0 DUP1 PUSH0 SWAP1 SLOAD SWAP1 PUSH2 0x100 EXP SWAP1 DIV PUSH20 0xFFFFFFFFFFFFFFFFFFFFFFFFFFFFFFFFFFFFFFFF AND PUSH20 0xFFFFFFFFFFFFFFFFFFFFFFFFFFFFFFFFFFFFFFFF AND PUSH4 0xA9059CBB CALLER DUP5 PUSH1 0x40 MLOAD DUP4 PUSH4 0xFFFFFFFF AND PUSH1 0xE0 SHL DUP2 MSTORE PUSH1 0x4 ADD PUSH2 0x1275 SWAP3 SWAP2 SWAP1 PUSH2 0x406F JUMP JUMPDEST PUSH1 0x20 PUSH1 0x40 MLOAD DUP1 DUP4 SUB DUP2 PUSH0 DUP8 GAS CALL ISZERO DUP1 ISZERO PUSH2 0x1291 JUMPI RETURNDATASIZE PUSH0 DUP1 RETURNDATACOPY RETURNDATASIZE PUSH0 REVERT JUMPDEST POP POP POP POP PUSH1 0x40 MLOAD RETURNDATASIZE PUSH1 0x1F NOT PUSH1 0x1F DUP3 ADD AND DUP3 ADD DUP1 PUSH1 0x40 MSTORE POP DUP2 ADD SWAP1 PUSH2 0x12B5 SWAP2 SWAP1 PUSH2 0x400F JUMP JUMPDEST SWAP1 POP DUP1 PUSH2 0x12F9 JUMPI DUP1 PUSH1 0x40 MLOAD PUSH32 0xD85D3CEF00000000000000000000000000000000000000000000000000000000 DUP2 MSTORE PUSH1 0x4 ADD PUSH2 0x12F0 SWAP2 SWAP1 PUSH2 0x38D0 JUMP JUMPDEST PUSH1 0x40 MLOAD DUP1 SWAP2 SUB SWAP1 REVERT JUMPDEST PUSH32 0x884EDAD9CE6FA2440D8A54CC123490EB96D2768479D49FF9C7366125A9424364 CALLER DUP4 PUSH1 0x40 MLOAD PUSH2 0x132A SWAP3 SWAP2 SWAP1 PUSH2 0x406F JUMP JUMPDEST PUSH1 0x40 MLOAD DUP1 SWAP2 SUB SWAP1 LOG1 POP PUSH0 PUSH1 0x9 PUSH1 0x15 PUSH2 0x100 EXP DUP2 SLOAD DUP2 PUSH1 0xFF MUL NOT AND SWAP1 DUP4 ISZERO ISZERO MUL OR SWAP1 SSTORE POP POP JUMP JUMPDEST PUSH0 PUSH1 0x60 PUSH0 PUSH1 0xA SLOAD PUSH1 0xC SLOAD TIMESTAMP PUSH2 0x1365 SWAP2 SWAP1 PUSH2 0x3E9D JUMP JUMPDEST GT SWAP1 POP DUP1 PUSH1 0x40 MLOAD DUP1 PUSH1 0x20 ADD PUSH1 0x40 MSTORE DUP1 PUSH0 DUP2 MSTORE POP SWAP3 POP SWAP3 POP POP SWAP3 POP SWAP3 SWAP1 POP JUMP JUMPDEST PUSH2 0x138C PUSH2 0x2BE7 JUMP JUMPDEST PUSH2 0x1395 PUSH0 PUSH2 0x2F04 JUMP JUMPDEST JUMP JUMPDEST PUSH0 DUP2 GT PUSH2 0x13DB JUMPI DUP1 PUSH1 0x40 MLOAD PUSH32 0x2FF4783000000000000000000000000000000000000000000000000000000000 DUP2 MSTORE PUSH1 0x4 ADD PUSH2 0x13D2 SWAP2 SWAP1 PUSH2 0x376B JUMP JUMPDEST PUSH1 0x40 MLOAD DUP1 SWAP2 SUB SWAP1 REVERT JUMPDEST PUSH1 0x12 PUSH0 CALLER PUSH20 0xFFFFFFFFFFFFFFFFFFFFFFFFFFFFFFFFFFFFFFFF AND PUSH20 0xFFFFFFFFFFFFFFFFFFFFFFFFFFFFFFFFFFFFFFFF AND DUP2 MSTORE PUSH1 0x20 ADD SWAP1 DUP2 MSTORE PUSH1 0x20 ADD PUSH0 KECCAK256 PUSH0 ADD PUSH0 SWAP1 SLOAD SWAP1 PUSH2 0x100 EXP SWAP1 DIV PUSH1 0xFF AND ISZERO PUSH2 0x14B4 JUMPI PUSH1 0x12 PUSH0 CALLER PUSH20 0xFFFFFFFFFFFFFFFFFFFFFFFFFFFFFFFFFFFFFFFF AND PUSH20 0xFFFFFFFFFFFFFFFFFFFFFFFFFFFFFFFFFFFFFFFF AND DUP2 MSTORE PUSH1 0x20 ADD SWAP1 DUP2 MSTORE PUSH1 0x20 ADD PUSH0 KECCAK256 PUSH0 ADD PUSH0 SWAP1 SLOAD SWAP1 PUSH2 0x100 EXP SWAP1 DIV PUSH1 0xFF AND PUSH1 0x40 MLOAD PUSH32 0x6FA5C3C000000000000000000000000000000000000000000000000000000000 DUP2 MSTORE PUSH1 0x4 ADD PUSH2 0x14AB SWAP2 SWAP1 PUSH2 0x38D0 JUMP JUMPDEST PUSH1 0x40 MLOAD DUP1 SWAP2 SUB SWAP1 REVERT JUMPDEST DUP1 PUSH1 0x12 PUSH0 CALLER PUSH20 0xFFFFFFFFFFFFFFFFFFFFFFFFFFFFFFFFFFFFFFFF AND PUSH20 0xFFFFFFFFFFFFFFFFFFFFFFFFFFFFFFFFFFFFFFFF AND DUP2 MSTORE PUSH1 0x20 ADD SWAP1 DUP2 MSTORE PUSH1 0x20 ADD PUSH0 KECCAK256 PUSH1 0x5 ADD PUSH0 DUP3 DUP3 SLOAD PUSH2 0x1503 SWAP2 SWAP1 PUSH2 0x3F93 JUMP JUMPDEST SWAP3 POP POP DUP2 SWAP1 SSTORE POP PUSH1 0xF PUSH0 CALLER PUSH20 0xFFFFFFFFFFFFFFFFFFFFFFFFFFFFFFFFFFFFFFFF AND PUSH20 0xFFFFFFFFFFFFFFFFFFFFFFFFFFFFFFFFFFFFFFFF AND DUP2 MSTORE PUSH1 0x20 ADD SWAP1 DUP2 MSTORE PUSH1 0x20 ADD PUSH0 KECCAK256 PUSH0 SWAP1 SLOAD SWAP1 PUSH2 0x100 EXP SWAP1 DIV PUSH1 0xFF AND PUSH2 0x1616 JUMPI CALLER PUSH1 0x10 PUSH0 PUSH1 0x8 SLOAD DUP2 MSTORE PUSH1 0x20 ADD SWAP1 DUP2 MSTORE PUSH1 0x20 ADD PUSH0 KECCAK256 PUSH0 PUSH2 0x100 EXP DUP2 SLOAD DUP2 PUSH20 0xFFFFFFFFFFFFFFFFFFFFFFFFFFFFFFFFFFFFFFFF MUL NOT AND SWAP1 DUP4 PUSH20 0xFFFFFFFFFFFFFFFFFFFFFFFFFFFFFFFFFFFFFFFF AND MUL OR SWAP1 SSTORE POP PUSH1 0x1 PUSH1 0xF PUSH0 CALLER PUSH20 0xFFFFFFFFFFFFFFFFFFFFFFFFFFFFFFFFFFFFFFFF AND PUSH20 0xFFFFFFFFFFFFFFFFFFFFFFFFFFFFFFFFFFFFFFFF AND DUP2 MSTORE PUSH1 0x20 ADD SWAP1 DUP2 MSTORE PUSH1 0x20 ADD PUSH0 KECCAK256 PUSH0 PUSH2 0x100 EXP DUP2 SLOAD DUP2 PUSH1 0xFF MUL NOT AND SWAP1 DUP4 ISZERO ISZERO MUL OR SWAP1 SSTORE POP PUSH1 0x8 PUSH0 DUP2 SLOAD DUP1 SWAP3 SWAP2 SWAP1 PUSH2 0x1610 SWAP1 PUSH2 0x3E2F JUMP JUMPDEST SWAP2 SWAP1 POP SSTORE POP JUMPDEST DUP1 PUSH1 0x3 PUSH0 DUP3 DUP3 SLOAD PUSH2 0x1627 SWAP2 SWAP1 PUSH2 0x3F93 JUMP JUMPDEST SWAP3 POP POP DUP2 SWAP1 SSTORE POP PUSH0 DUP1 PUSH0 SWAP1 SLOAD SWAP1 PUSH2 0x100 EXP SWAP1 DIV PUSH20 0xFFFFFFFFFFFFFFFFFFFFFFFFFFFFFFFFFFFFFFFF AND PUSH20 0xFFFFFFFFFFFFFFFFFFFFFFFFFFFFFFFFFFFFFFFF AND PUSH4 0x23B872DD CALLER PUSH1 0x9 PUSH0 SWAP1 SLOAD SWAP1 PUSH2 0x100 EXP SWAP1 DIV PUSH20 0xFFFFFFFFFFFFFFFFFFFFFFFFFFFFFFFFFFFFFFFF AND DUP6 PUSH1 0x40 MLOAD DUP5 PUSH4 0xFFFFFFFF AND PUSH1 0xE0 SHL DUP2 MSTORE PUSH1 0x4 ADD PUSH2 0x16AD SWAP4 SWAP3 SWAP2 SWAP1 PUSH2 0x3FC6 JUMP JUMPDEST PUSH1 0x20 PUSH1 0x40 MLOAD DUP1 DUP4 SUB DUP2 PUSH0 DUP8 GAS CALL ISZERO DUP1 ISZERO PUSH2 0x16C9 JUMPI RETURNDATASIZE PUSH0 DUP1 RETURNDATACOPY RETURNDATASIZE PUSH0 REVERT JUMPDEST POP POP POP POP PUSH1 0x40 MLOAD RETURNDATASIZE PUSH1 0x1F NOT PUSH1 0x1F DUP3 ADD AND DUP3 ADD DUP1 PUSH1 0x40 MSTORE POP DUP2 ADD SWAP1 PUSH2 0x16ED SWAP2 SWAP1 PUSH2 0x400F JUMP JUMPDEST SWAP1 POP DUP1 PUSH2 0x1731 JUMPI DUP1 PUSH1 0x40 MLOAD PUSH32 0xD85D3CEF00000000000000000000000000000000000000000000000000000000 DUP2 MSTORE PUSH1 0x4 ADD PUSH2 0x1728 SWAP2 SWAP1 PUSH2 0x38D0 JUMP JUMPDEST PUSH1 0x40 MLOAD DUP1 SWAP2 SUB SWAP1 REVERT JUMPDEST PUSH32 0x14EE34C24635186D212F515353DADAE9C226529EDEF2D1FCF5504CB33B5C25AB CALLER PUSH1 0x9 PUSH0 SWAP1 SLOAD SWAP1 PUSH2 0x100 EXP SWAP1 DIV PUSH20 0xFFFFFFFFFFFFFFFFFFFFFFFFFFFFFFFFFFFFFFFF AND DUP5 PUSH1 0x40 MLOAD PUSH2 0x1785 SWAP4 SWAP3 SWAP2 SWAP1 PUSH2 0x3FC6 JUMP JUMPDEST PUSH1 0x40 MLOAD DUP1 SWAP2 SUB SWAP1 LOG1 POP POP JUMP JUMPDEST PUSH2 0x1799 PUSH2 0x2BE7 JUMP JUMPDEST PUSH0 DUP2 GT PUSH2 0x17DD JUMPI DUP1 PUSH1 0x40 MLOAD PUSH32 0x2FF4783000000000000000000000000000000000000000000000000000000000 DUP2 MSTORE PUSH1 0x4 ADD PUSH2 0x17D4 SWAP2 SWAP1 PUSH2 0x376B JUMP JUMPDEST PUSH1 0x40 MLOAD DUP1 SWAP2 SUB SWAP1 REVERT JUMPDEST DUP1 PUSH1 0x2 PUSH0 DUP3 DUP3 SLOAD PUSH2 0x17EE SWAP2 SWAP1 PUSH2 0x3F93 JUMP JUMPDEST SWAP3 POP POP DUP2 SWAP1 SSTORE POP PUSH0 DUP1 PUSH0 SWAP1 SLOAD SWAP1 PUSH2 0x100 EXP SWAP1 DIV PUSH20 0xFFFFFFFFFFFFFFFFFFFFFFFFFFFFFFFFFFFFFFFF AND PUSH20 0xFFFFFFFFFFFFFFFFFFFFFFFFFFFFFFFFFFFFFFFF AND PUSH4 0x23B872DD CALLER ADDRESS DUP6 PUSH1 0x40 MLOAD DUP5 PUSH4 0xFFFFFFFF AND PUSH1 0xE0 SHL DUP2 MSTORE PUSH1 0x4 ADD PUSH2 0x1853 SWAP4 SWAP3 SWAP2 SWAP1 PUSH2 0x3FC6 JUMP JUMPDEST PUSH1 0x20 PUSH1 0x40 MLOAD DUP1 DUP4 SUB DUP2 PUSH0 DUP8 GAS CALL ISZERO DUP1 ISZERO PUSH2 0x186F JUMPI RETURNDATASIZE PUSH0 DUP1 RETURNDATACOPY RETURNDATASIZE PUSH0 REVERT JUMPDEST POP POP POP POP PUSH1 0x40 MLOAD RETURNDATASIZE PUSH1 0x1F NOT PUSH1 0x1F DUP3 ADD AND DUP3 ADD DUP1 PUSH1 0x40 MSTORE POP DUP2 ADD SWAP1 PUSH2 0x1893 SWAP2 SWAP1 PUSH2 0x400F JUMP JUMPDEST SWAP1 POP DUP1 PUSH2 0x18D7 JUMPI DUP1 PUSH1 0x40 MLOAD PUSH32 0xD85D3CEF00000000000000000000000000000000000000000000000000000000 DUP2 MSTORE PUSH1 0x4 ADD PUSH2 0x18CE SWAP2 SWAP1 PUSH2 0x38D0 JUMP JUMPDEST PUSH1 0x40 MLOAD DUP1 SWAP2 SUB SWAP1 REVERT JUMPDEST PUSH32 0x73834E1D1EE73BA659470A3603B888903853D3A3C9FDA34E71C093A0E35CAB94 PUSH1 0x2 SLOAD PUSH1 0x40 MLOAD PUSH2 0x1908 SWAP2 SWAP1 PUSH2 0x376B JUMP JUMPDEST PUSH1 0x40 MLOAD DUP1 SWAP2 SUB SWAP1 LOG1 POP POP JUMP JUMPDEST PUSH2 0x191C PUSH2 0x2BE7 JUMP JUMPDEST PUSH0 DUP2 GT PUSH2 0x1960 JUMPI DUP1 PUSH1 0x40 MLOAD PUSH32 0xCDBC633500000000000000000000000000000000000000000000000000000000 DUP2 MSTORE PUSH1 0x4 ADD PUSH2 0x1957 SWAP2 SWAP1 PUSH2 0x376B JUMP JUMPDEST PUSH1 0x40 MLOAD DUP1 SWAP2 SUB SWAP1 REVERT JUMPDEST DUP1 PUSH1 0x7 DUP2 SWAP1 SSTORE POP PUSH32 0xB5671393C7C6980552E50A31E778921EB17D764C2E98FBF4D44FFF524712DEF9 CALLER PUSH1 0x7 SLOAD PUSH1 0x40 MLOAD PUSH2 0x199A SWAP3 SWAP2 SWAP1 PUSH2 0x406F JUMP JUMPDEST PUSH1 0x40 MLOAD DUP1 SWAP2 SUB SWAP1 LOG1 POP JUMP JUMPDEST PUSH2 0x19AD PUSH2 0x2BE7 JUMP JUMPDEST PUSH0 DUP2 GT PUSH2 0x19F1 JUMPI DUP1 PUSH1 0x40 MLOAD PUSH32 0xCDBC633500000000000000000000000000000000000000000000000000000000 DUP2 MSTORE PUSH1 0x4 ADD PUSH2 0x19E8 SWAP2 SWAP1 PUSH2 0x376B JUMP JUMPDEST PUSH1 0x40 MLOAD DUP1 SWAP2 SUB SWAP1 REVERT JUMPDEST DUP1 PUSH1 0x4 DUP2 SWAP1 SSTORE POP PUSH32 0xB5671393C7C6980552E50A31E778921EB17D764C2E98FBF4D44FFF524712DEF9 CALLER PUSH1 0x4 SLOAD PUSH1 0x40 MLOAD PUSH2 0x1A2B SWAP3 SWAP2 SWAP1 PUSH2 0x406F JUMP JUMPDEST PUSH1 0x40 MLOAD DUP1 SWAP2 SUB SWAP1 LOG1 POP JUMP JUMPDEST PUSH0 DUP2 GT PUSH2 0x1A7A JUMPI DUP1 PUSH1 0x40 MLOAD PUSH32 0x2FF4783000000000000000000000000000000000000000000000000000000000 DUP2 MSTORE PUSH1 0x4 ADD PUSH2 0x1A71 SWAP2 SWAP1 PUSH2 0x376B JUMP JUMPDEST PUSH1 0x40 MLOAD DUP1 SWAP2 SUB SWAP1 REVERT JUMPDEST PUSH1 0x12 PUSH0 CALLER PUSH20 0xFFFFFFFFFFFFFFFFFFFFFFFFFFFFFFFFFFFFFFFF AND PUSH20 0xFFFFFFFFFFFFFFFFFFFFFFFFFFFFFFFFFFFFFFFF AND DUP2 MSTORE PUSH1 0x20 ADD SWAP1 DUP2 MSTORE PUSH1 0x20 ADD PUSH0 KECCAK256 PUSH0 ADD PUSH0 SWAP1 SLOAD SWAP1 PUSH2 0x100 EXP SWAP1 DIV PUSH1 0xFF AND ISZERO PUSH2 0x1B53 JUMPI PUSH1 0x12 PUSH0 CALLER PUSH20 0xFFFFFFFFFFFFFFFFFFFFFFFFFFFFFFFFFFFFFFFF AND PUSH20 0xFFFFFFFFFFFFFFFFFFFFFFFFFFFFFFFFFFFFFFFF AND DUP2 MSTORE PUSH1 0x20 ADD SWAP1 DUP2 MSTORE PUSH1 0x20 ADD PUSH0 KECCAK256 PUSH0 ADD PUSH0 SWAP1 SLOAD SWAP1 PUSH2 0x100 EXP SWAP1 DIV PUSH1 0xFF AND PUSH1 0x40 MLOAD PUSH32 0x6FA5C3C000000000000000000000000000000000000000000000000000000000 DUP2 MSTORE PUSH1 0x4 ADD PUSH2 0x1B4A SWAP2 SWAP1 PUSH2 0x38D0 JUMP JUMPDEST PUSH1 0x40 MLOAD DUP1 SWAP2 SUB SWAP1 REVERT JUMPDEST DUP1 PUSH1 0x12 PUSH0 CALLER PUSH20 0xFFFFFFFFFFFFFFFFFFFFFFFFFFFFFFFFFFFFFFFF AND PUSH20 0xFFFFFFFFFFFFFFFFFFFFFFFFFFFFFFFFFFFFFFFF AND DUP2 MSTORE PUSH1 0x20 ADD SWAP1 DUP2 MSTORE PUSH1 0x20 ADD PUSH0 KECCAK256 PUSH1 0x1 ADD SLOAD GT PUSH2 0x1BD7 JUMPI DUP1 PUSH1 0x40 MLOAD PUSH32 0x31B6E35800000000000000000000000000000000000000000000000000000000 DUP2 MSTORE PUSH1 0x4 ADD PUSH2 0x1BCE SWAP2 SWAP1 PUSH2 0x376B JUMP JUMPDEST PUSH1 0x40 MLOAD DUP1 SWAP2 SUB SWAP1 REVERT JUMPDEST DUP1 PUSH1 0x12 PUSH0 CALLER PUSH20 0xFFFFFFFFFFFFFFFFFFFFFFFFFFFFFFFFFFFFFFFF AND PUSH20 0xFFFFFFFFFFFFFFFFFFFFFFFFFFFFFFFFFFFFFFFF AND DUP2 MSTORE PUSH1 0x20 ADD SWAP1 DUP2 MSTORE PUSH1 0x20 ADD PUSH0 KECCAK256 PUSH1 0x1 ADD PUSH0 DUP3 DUP3 SLOAD PUSH2 0x1C26 SWAP2 SWAP1 PUSH2 0x3E9D JUMP JUMPDEST SWAP3 POP POP DUP2 SWAP1 SSTORE POP DUP1 PUSH1 0x12 PUSH0 CALLER PUSH20 0xFFFFFFFFFFFFFFFFFFFFFFFFFFFFFFFFFFFFFFFF AND PUSH20 0xFFFFFFFFFFFFFFFFFFFFFFFFFFFFFFFFFFFFFFFF AND DUP2 MSTORE PUSH1 0x20 ADD SWAP1 DUP2 MSTORE PUSH1 0x20 ADD PUSH0 KECCAK256 PUSH1 0x5 ADD PUSH0 DUP3 DUP3 SLOAD PUSH2 0x1C7C SWAP2 SWAP1 PUSH2 0x3F93 JUMP JUMPDEST SWAP3 POP POP DUP2 SWAP1 SSTORE POP DUP1 PUSH1 0x2 PUSH0 DUP3 DUP3 SLOAD PUSH2 0x1C94 SWAP2 SWAP1 PUSH2 0x3F93 JUMP JUMPDEST SWAP3 POP POP DUP2 SWAP1 SSTORE POP DUP1 PUSH1 0x3 PUSH0 DUP3 DUP3 SLOAD PUSH2 0x1CAC SWAP2 SWAP1 PUSH2 0x3F93 JUMP JUMPDEST SWAP3 POP POP DUP2 SWAP1 SSTORE POP PUSH32 0x14EE34C24635186D212F515353DADAE9C226529EDEF2D1FCF5504CB33B5C25AB CALLER ADDRESS DUP4 PUSH1 0x40 MLOAD PUSH2 0x1CE6 SWAP4 SWAP3 SWAP2 SWAP1 PUSH2 0x3FC6 JUMP JUMPDEST PUSH1 0x40 MLOAD DUP1 SWAP2 SUB SWAP1 LOG1 POP JUMP JUMPDEST PUSH0 DUP3 GT PUSH2 0x1D35 JUMPI DUP2 PUSH1 0x40 MLOAD PUSH32 0x2FF4783000000000000000000000000000000000000000000000000000000000 DUP2 MSTORE PUSH1 0x4 ADD PUSH2 0x1D2C SWAP2 SWAP1 PUSH2 0x376B JUMP JUMPDEST PUSH1 0x40 MLOAD DUP1 SWAP2 SUB SWAP1 REVERT JUMPDEST PUSH1 0xE SLOAD DUP2 GT ISZERO PUSH2 0x1D7C JUMPI DUP1 PUSH1 0x40 MLOAD PUSH32 0x222A50F300000000000000000000000000000000000000000000000000000000 DUP2 MSTORE PUSH1 0x4 ADD PUSH2 0x1D73 SWAP2 SWAP1 PUSH2 0x376B JUMP JUMPDEST PUSH1 0x40 MLOAD DUP1 SWAP2 SUB SWAP1 REVERT JUMPDEST PUSH2 0x1D97 DUP3 PUSH1 0x11 PUSH0 DUP5 DUP2 MSTORE PUSH1 0x20 ADD SWAP1 DUP2 MSTORE PUSH1 0x20 ADD PUSH0 KECCAK256 SLOAD PUSH2 0x2FD5 JUMP JUMPDEST PUSH0 DUP1 PUSH0 SWAP1 SLOAD SWAP1 PUSH2 0x100 EXP SWAP1 DIV PUSH20 0xFFFFFFFFFFFFFFFFFFFFFFFFFFFFFFFFFFFFFFFF AND PUSH20 0xFFFFFFFFFFFFFFFFFFFFFFFFFFFFFFFFFFFFFFFF AND PUSH4 0x23B872DD CALLER ADDRESS DUP7 PUSH1 0x40 MLOAD DUP5 PUSH4 0xFFFFFFFF AND PUSH1 0xE0 SHL DUP2 MSTORE PUSH1 0x4 ADD PUSH2 0x1DF5 SWAP4 SWAP3 SWAP2 SWAP1 PUSH2 0x3FC6 JUMP JUMPDEST PUSH1 0x20 PUSH1 0x40 MLOAD DUP1 DUP4 SUB DUP2 PUSH0 DUP8 GAS CALL ISZERO DUP1 ISZERO PUSH2 0x1E11 JUMPI RETURNDATASIZE PUSH0 DUP1 RETURNDATACOPY RETURNDATASIZE PUSH0 REVERT JUMPDEST POP POP POP POP PUSH1 0x40 MLOAD RETURNDATASIZE PUSH1 0x1F NOT PUSH1 0x1F DUP3 ADD AND DUP3 ADD DUP1 PUSH1 0x40 MSTORE POP DUP2 ADD SWAP1 PUSH2 0x1E35 SWAP2 SWAP1 PUSH2 0x400F JUMP JUMPDEST SWAP1 POP DUP1 PUSH2 0x1E79 JUMPI DUP1 PUSH1 0x40 MLOAD PUSH32 0xD85D3CEF00000000000000000000000000000000000000000000000000000000 DUP2 MSTORE PUSH1 0x4 ADD PUSH2 0x1E70 SWAP2 SWAP1 PUSH2 0x38D0 JUMP JUMPDEST PUSH1 0x40 MLOAD DUP1 SWAP2 SUB SWAP1 REVERT JUMPDEST PUSH32 0xA89B69C5958EC1CCF0DF0DE746A8708F5B6A6B429430129F16F46F44B319C900 DUP4 DUP4 PUSH1 0x40 MLOAD PUSH2 0x1EAA SWAP3 SWAP2 SWAP1 PUSH2 0x4166 JUMP JUMPDEST PUSH1 0x40 MLOAD DUP1 SWAP2 SUB SWAP1 LOG1 POP POP POP JUMP JUMPDEST PUSH0 DUP1 PUSH2 0x1EC1 PUSH2 0x3037 JUMP JUMPDEST SWAP1 POP DUP1 PUSH0 ADD PUSH0 SWAP1 SLOAD SWAP1 PUSH2 0x100 EXP SWAP1 DIV PUSH20 0xFFFFFFFFFFFFFFFFFFFFFFFFFFFFFFFFFFFFFFFF AND SWAP2 POP POP SWAP1 JUMP JUMPDEST PUSH1 0xA SLOAD DUP2 JUMP JUMPDEST PUSH1 0xE SLOAD DUP2 JUMP JUMPDEST PUSH1 0x10 PUSH1 0x20 MSTORE DUP1 PUSH0 MSTORE PUSH1 0x40 PUSH0 KECCAK256 PUSH0 SWAP2 POP SLOAD SWAP1 PUSH2 0x100 EXP SWAP1 DIV PUSH20 0xFFFFFFFFFFFFFFFFFFFFFFFFFFFFFFFFFFFFFFFF AND DUP2 JUMP JUMPDEST PUSH1 0x40 MLOAD DUP1 PUSH1 0x40 ADD PUSH1 0x40 MSTORE DUP1 PUSH1 0x5 DUP2 MSTORE PUSH1 0x20 ADD PUSH32 0x352E302E30000000000000000000000000000000000000000000000000000000 DUP2 MSTORE POP DUP2 JUMP JUMPDEST PUSH2 0x1F69 PUSH2 0x2BE7 JUMP JUMPDEST PUSH0 DUP2 GT PUSH2 0x1FAD JUMPI DUP1 PUSH1 0x40 MLOAD PUSH32 0xCDBC633500000000000000000000000000000000000000000000000000000000 DUP2 MSTORE PUSH1 0x4 ADD PUSH2 0x1FA4 SWAP2 SWAP1 PUSH2 0x376B JUMP JUMPDEST PUSH1 0x40 MLOAD DUP1 SWAP2 SUB SWAP1 REVERT JUMPDEST DUP1 PUSH1 0x6 DUP2 SWAP1 SSTORE POP PUSH32 0xB5671393C7C6980552E50A31E778921EB17D764C2E98FBF4D44FFF524712DEF9 CALLER PUSH1 0x6 SLOAD PUSH1 0x40 MLOAD PUSH2 0x1FE7 SWAP3 SWAP2 SWAP1 PUSH2 0x406F JUMP JUMPDEST PUSH1 0x40 MLOAD DUP1 SWAP2 SUB SWAP1 LOG1 POP JUMP JUMPDEST PUSH1 0x2 SLOAD DUP2 JUMP JUMPDEST PUSH2 0x2000 PUSH2 0x2BE7 JUMP JUMPDEST PUSH0 DUP2 GT PUSH2 0x2044 JUMPI DUP1 PUSH1 0x40 MLOAD PUSH32 0xCDBC633500000000000000000000000000000000000000000000000000000000 DUP2 MSTORE PUSH1 0x4 ADD PUSH2 0x203B SWAP2 SWAP1 PUSH2 0x376B JUMP JUMPDEST PUSH1 0x40 MLOAD DUP1 SWAP2 SUB SWAP1 REVERT JUMPDEST DUP1 PUSH1 0x5 DUP2 SWAP1 SSTORE POP PUSH32 0xB5671393C7C6980552E50A31E778921EB17D764C2E98FBF4D44FFF524712DEF9 CALLER PUSH1 0x5 SLOAD PUSH1 0x40 MLOAD PUSH2 0x207E SWAP3 SWAP2 SWAP1 PUSH2 0x406F JUMP JUMPDEST PUSH1 0x40 MLOAD DUP1 SWAP2 SUB SWAP1 LOG1 POP JUMP JUMPDEST PUSH1 0x12 PUSH1 0x20 MSTORE DUP1 PUSH0 MSTORE PUSH1 0x40 PUSH0 KECCAK256 PUSH0 SWAP2 POP SWAP1 POP DUP1 PUSH0 ADD PUSH0 SWAP1 SLOAD SWAP1 PUSH2 0x100 EXP SWAP1 DIV PUSH1 0xFF AND SWAP1 DUP1 PUSH1 0x1 ADD SLOAD SWAP1 DUP1 PUSH1 0x2 ADD SLOAD SWAP1 DUP1 PUSH1 0x3 ADD SLOAD SWAP1 DUP1 PUSH1 0x4 ADD SLOAD SWAP1 DUP1 PUSH1 0x5 ADD SLOAD SWAP1 POP DUP7 JUMP JUMPDEST PUSH0 PUSH2 0x20D6 PUSH2 0x305E JUMP JUMPDEST SWAP1 POP PUSH0 DUP2 PUSH0 ADD PUSH1 0x8 SWAP1 SLOAD SWAP1 PUSH2 0x100 EXP SWAP1 DIV PUSH1 0xFF AND ISZERO SWAP1 POP PUSH0 DUP3 PUSH0 ADD PUSH0 SWAP1 SLOAD SWAP1 PUSH2 0x100 EXP SWAP1 DIV PUSH8 0xFFFFFFFFFFFFFFFF AND SWAP1 POP PUSH0 DUP1 DUP3 PUSH8 0xFFFFFFFFFFFFFFFF AND EQ DUP1 ISZERO PUSH2 0x211E JUMPI POP DUP3 JUMPDEST SWAP1 POP PUSH0 PUSH1 0x1 DUP4 PUSH8 0xFFFFFFFFFFFFFFFF AND EQ DUP1 ISZERO PUSH2 0x2151 JUMPI POP PUSH0 ADDRESS PUSH20 0xFFFFFFFFFFFFFFFFFFFFFFFFFFFFFFFFFFFFFFFF AND EXTCODESIZE EQ JUMPDEST SWAP1 POP DUP2 ISZERO DUP1 ISZERO PUSH2 0x215F JUMPI POP DUP1 ISZERO JUMPDEST ISZERO PUSH2 0x2196 JUMPI PUSH1 0x40 MLOAD PUSH32 0xF92EE8A900000000000000000000000000000000000000000000000000000000 DUP2 MSTORE PUSH1 0x4 ADD PUSH1 0x40 MLOAD DUP1 SWAP2 SUB SWAP1 REVERT JUMPDEST PUSH1 0x1 DUP6 PUSH0 ADD PUSH0 PUSH2 0x100 EXP DUP2 SLOAD DUP2 PUSH8 0xFFFFFFFFFFFFFFFF MUL NOT AND SWAP1 DUP4 PUSH8 0xFFFFFFFFFFFFFFFF AND MUL OR SWAP1 SSTORE POP DUP4 ISZERO PUSH2 0x21E3 JUMPI PUSH1 0x1 DUP6 PUSH0 ADD PUSH1 0x8 PUSH2 0x100 EXP DUP2 SLOAD DUP2 PUSH1 0xFF MUL NOT AND SWAP1 DUP4 ISZERO ISZERO MUL OR SWAP1 SSTORE POP JUMPDEST PUSH2 0x21EC DUP9 PUSH2 0x3085 JUMP JUMPDEST PUSH2 0x21F4 PUSH2 0x3099 JUMP JUMPDEST DUP7 PUSH0 DUP1 PUSH2 0x100 EXP DUP2 SLOAD DUP2 PUSH20 0xFFFFFFFFFFFFFFFFFFFFFFFFFFFFFFFFFFFFFFFF MUL NOT AND SWAP1 DUP4 PUSH20 0xFFFFFFFFFFFFFFFFFFFFFFFFFFFFFFFFFFFFFFFF AND MUL OR SWAP1 SSTORE POP PUSH2 0x13EC PUSH1 0x11 PUSH0 DUP1 DUP2 MSTORE PUSH1 0x20 ADD SWAP1 DUP2 MSTORE PUSH1 0x20 ADD PUSH0 KECCAK256 DUP2 SWAP1 SSTORE POP PUSH2 0x1D4C PUSH1 0x11 PUSH0 PUSH1 0x1 DUP2 MSTORE PUSH1 0x20 ADD SWAP1 DUP2 MSTORE PUSH1 0x20 ADD PUSH0 KECCAK256 DUP2 SWAP1 SSTORE POP PUSH2 0xDAC PUSH1 0x11 PUSH0 PUSH1 0x2 DUP2 MSTORE PUSH1 0x20 ADD SWAP1 DUP2 MSTORE PUSH1 0x20 ADD PUSH0 KECCAK256 DUP2 SWAP1 SSTORE POP PUSH2 0x1E14 PUSH1 0x11 PUSH0 PUSH1 0x3 DUP2 MSTORE PUSH1 0x20 ADD SWAP1 DUP2 MSTORE PUSH1 0x20 ADD PUSH0 KECCAK256 DUP2 SWAP1 SSTORE POP PUSH2 0x1388 PUSH1 0x4 DUP2 SWAP1 SSTORE POP PUSH2 0x1D4C PUSH1 0x5 DUP2 SWAP1 SSTORE POP PUSH2 0x5DC PUSH1 0x6 DUP2 SWAP1 SSTORE POP PUSH2 0x3E8 PUSH1 0x7 DUP2 SWAP1 SSTORE POP PUSH1 0x4 PUSH1 0xE DUP2 SWAP1 SSTORE POP DUP6 PUSH1 0x9 PUSH0 PUSH2 0x100 EXP DUP2 SLOAD DUP2 PUSH20 0xFFFFFFFFFFFFFFFFFFFFFFFFFFFFFFFFFFFFFFFF MUL NOT AND SWAP1 DUP4 PUSH20 0xFFFFFFFFFFFFFFFFFFFFFFFFFFFFFFFFFFFFFFFF AND MUL OR SWAP1 SSTORE POP DUP4 ISZERO PUSH2 0x235C JUMPI PUSH0 DUP6 PUSH0 ADD PUSH1 0x8 PUSH2 0x100 EXP DUP2 SLOAD DUP2 PUSH1 0xFF MUL NOT AND SWAP1 DUP4 ISZERO ISZERO MUL OR SWAP1 SSTORE POP PUSH32 0xC7F505B2F371AE2175EE4913F4499E1F2633A7B5936321EED1CDAEB6115181D2 PUSH1 0x1 PUSH1 0x40 MLOAD PUSH2 0x2353 SWAP2 SWAP1 PUSH2 0x41D9 JUMP JUMPDEST PUSH1 0x40 MLOAD DUP1 SWAP2 SUB SWAP1 LOG1 JUMPDEST POP POP POP POP POP POP POP POP JUMP JUMPDEST PUSH1 0xF PUSH1 0x20 MSTORE DUP1 PUSH0 MSTORE PUSH1 0x40 PUSH0 KECCAK256 PUSH0 SWAP2 POP SLOAD SWAP1 PUSH2 0x100 EXP SWAP1 DIV PUSH1 0xFF AND DUP2 JUMP JUMPDEST PUSH1 0x6 SLOAD DUP2 JUMP JUMPDEST PUSH2 0x2391 PUSH2 0x2BE7 JUMP JUMPDEST PUSH0 PUSH20 0xFFFFFFFFFFFFFFFFFFFFFFFFFFFFFFFFFFFFFFFF AND DUP2 PUSH20 0xFFFFFFFFFFFFFFFFFFFFFFFFFFFFFFFFFFFFFFFF AND SUB PUSH2 0x2401 JUMPI DUP1 PUSH1 0x40 MLOAD PUSH32 0xE4CFA94D00000000000000000000000000000000000000000000000000000000 DUP2 MSTORE PUSH1 0x4 ADD PUSH2 0x23F8 SWAP2 SWAP1 PUSH2 0x389D JUMP JUMPDEST PUSH1 0x40 MLOAD DUP1 SWAP2 SUB SWAP1 REVERT JUMPDEST DUP1 PUSH1 0xD PUSH0 PUSH2 0x100 EXP DUP2 SLOAD DUP2 PUSH20 0xFFFFFFFFFFFFFFFFFFFFFFFFFFFFFFFFFFFFFFFF MUL NOT AND SWAP1 DUP4 PUSH20 0xFFFFFFFFFFFFFFFFFFFFFFFFFFFFFFFFFFFFFFFF AND MUL OR SWAP1 SSTORE POP PUSH32 0x75F91F3CECB8C46F20150F60F77A6E1F0DE00776627692DB82EF1960AF84C33A CALLER PUSH1 0xD PUSH0 SWAP1 SLOAD SWAP1 PUSH2 0x100 EXP SWAP1 DIV PUSH20 0xFFFFFFFFFFFFFFFFFFFFFFFFFFFFFFFFFFFFFFFF AND PUSH1 0x40 MLOAD PUSH2 0x2493 SWAP3 SWAP2 SWAP1 PUSH2 0x41F2 JUMP JUMPDEST PUSH1 0x40 MLOAD DUP1 SWAP2 SUB SWAP1 LOG1 POP JUMP JUMPDEST PUSH2 0x24A6 PUSH2 0x2BE7 JUMP JUMPDEST PUSH0 PUSH20 0xFFFFFFFFFFFFFFFFFFFFFFFFFFFFFFFFFFFFFFFF AND DUP3 PUSH20 0xFFFFFFFFFFFFFFFFFFFFFFFFFFFFFFFFFFFFFFFF AND SUB PUSH2 0x2516 JUMPI DUP2 PUSH1 0x40 MLOAD PUSH32 0xE4CFA94D00000000000000000000000000000000000000000000000000000000 DUP2 MSTORE PUSH1 0x4 ADD PUSH2 0x250D SWAP2 SWAP1 PUSH2 0x389D JUMP JUMPDEST PUSH1 0x40 MLOAD DUP1 SWAP2 SUB SWAP1 REVERT JUMPDEST PUSH1 0x1 ISZERO ISZERO DUP2 ISZERO ISZERO EQ ISZERO DUP1 ISZERO PUSH2 0x252F JUMPI POP PUSH0 ISZERO ISZERO DUP2 ISZERO ISZERO EQ ISZERO JUMPDEST ISZERO PUSH2 0x2571 JUMPI DUP1 PUSH1 0x40 MLOAD PUSH32 0x81ED1AE300000000000000000000000000000000000000000000000000000000 DUP2 MSTORE PUSH1 0x4 ADD PUSH2 0x2568 SWAP2 SWAP1 PUSH2 0x38D0 JUMP JUMPDEST PUSH1 0x40 MLOAD DUP1 SWAP2 SUB SWAP1 REVERT JUMPDEST PUSH1 0x1 ISZERO ISZERO DUP2 ISZERO ISZERO SUB PUSH2 0x25D9 JUMPI PUSH1 0x1 PUSH1 0x12 PUSH0 DUP5 PUSH20 0xFFFFFFFFFFFFFFFFFFFFFFFFFFFFFFFFFFFFFFFF AND PUSH20 0xFFFFFFFFFFFFFFFFFFFFFFFFFFFFFFFFFFFFFFFF AND DUP2 MSTORE PUSH1 0x20 ADD SWAP1 DUP2 MSTORE PUSH1 0x20 ADD PUSH0 KECCAK256 PUSH0 ADD PUSH0 PUSH2 0x100 EXP DUP2 SLOAD DUP2 PUSH1 0xFF MUL NOT AND SWAP1 DUP4 ISZERO ISZERO MUL OR SWAP1 SSTORE POP PUSH2 0x2630 JUMP JUMPDEST PUSH0 PUSH1 0x12 PUSH0 DUP5 PUSH20 0xFFFFFFFFFFFFFFFFFFFFFFFFFFFFFFFFFFFFFFFF AND PUSH20 0xFFFFFFFFFFFFFFFFFFFFFFFFFFFFFFFFFFFFFFFF AND DUP2 MSTORE PUSH1 0x20 ADD SWAP1 DUP2 MSTORE PUSH1 0x20 ADD PUSH0 KECCAK256 PUSH0 ADD PUSH0 PUSH2 0x100 EXP DUP2 SLOAD DUP2 PUSH1 0xFF MUL NOT AND SWAP1 DUP4 ISZERO ISZERO MUL OR SWAP1 SSTORE POP JUMPDEST PUSH32 0x7A1655BC3160D3413BF1D5235E55BE12E01B7E8BC2436A9BFF09C3B4FA2421F1 CALLER DUP4 PUSH1 0x12 PUSH0 DUP7 PUSH20 0xFFFFFFFFFFFFFFFFFFFFFFFFFFFFFFFFFFFFFFFF AND PUSH20 0xFFFFFFFFFFFFFFFFFFFFFFFFFFFFFFFFFFFFFFFF AND DUP2 MSTORE PUSH1 0x20 ADD SWAP1 DUP2 MSTORE PUSH1 0x20 ADD PUSH0 KECCAK256 PUSH0 ADD PUSH0 SWAP1 SLOAD SWAP1 PUSH2 0x100 EXP SWAP1 DIV PUSH1 0xFF AND PUSH1 0x40 MLOAD PUSH2 0x26AE SWAP4 SWAP3 SWAP2 SWAP1 PUSH2 0x4219 JUMP JUMPDEST PUSH1 0x40 MLOAD DUP1 SWAP2 SUB SWAP1 LOG1 POP POP JUMP JUMPDEST PUSH0 DUP1 PUSH0 PUSH2 0x26C5 PUSH2 0x30A3 JUMP JUMPDEST SWAP3 POP SWAP3 POP SWAP3 POP PUSH0 PUSH1 0x2 SLOAD GT DUP1 ISZERO PUSH2 0x26DD JUMPI POP PUSH0 PUSH1 0x1 SLOAD GT JUMPDEST PUSH2 0x271C JUMPI PUSH1 0x40 MLOAD PUSH32 0x8C379A000000000000000000000000000000000000000000000000000000000 DUP2 MSTORE PUSH1 0x4 ADD PUSH2 0x2713 SWAP1 PUSH2 0x4298 JUMP JUMPDEST PUSH1 0x40 MLOAD DUP1 SWAP2 SUB SWAP1 REVERT JUMPDEST PUSH0 DUP1 PUSH0 SWAP1 POP JUMPDEST PUSH1 0x8 SLOAD DUP2 LT ISZERO PUSH2 0x2A58 JUMPI PUSH1 0x12 PUSH0 PUSH1 0x10 PUSH0 DUP5 DUP2 MSTORE PUSH1 0x20 ADD SWAP1 DUP2 MSTORE PUSH1 0x20 ADD PUSH0 KECCAK256 PUSH0 SWAP1 SLOAD SWAP1 PUSH2 0x100 EXP SWAP1 DIV PUSH20 0xFFFFFFFFFFFFFFFFFFFFFFFFFFFFFFFFFFFFFFFF AND PUSH20 0xFFFFFFFFFFFFFFFFFFFFFFFFFFFFFFFFFFFFFFFF AND PUSH20 0xFFFFFFFFFFFFFFFFFFFFFFFFFFFFFFFFFFFFFFFF AND DUP2 MSTORE PUSH1 0x20 ADD SWAP1 DUP2 MSTORE PUSH1 0x20 ADD PUSH0 KECCAK256 PUSH0 ADD PUSH0 SWAP1 SLOAD SWAP1 PUSH2 0x100 EXP SWAP1 DIV PUSH1 0xFF AND PUSH2 0x2A4B JUMPI PUSH0 PUSH1 0x3 SLOAD PUSH2 0x2710 PUSH1 0x12 PUSH0 PUSH1 0x10 PUSH0 DUP8 DUP2 MSTORE PUSH1 0x20 ADD SWAP1 DUP2 MSTORE PUSH1 0x20 ADD PUSH0 KECCAK256 PUSH0 SWAP1 SLOAD SWAP1 PUSH2 0x100 EXP SWAP1 DIV PUSH20 0xFFFFFFFFFFFFFFFFFFFFFFFFFFFFFFFFFFFFFFFF AND PUSH20 0xFFFFFFFFFFFFFFFFFFFFFFFFFFFFFFFFFFFFFFFF AND PUSH20 0xFFFFFFFFFFFFFFFFFFFFFFFFFFFFFFFFFFFFFFFF AND DUP2 MSTORE PUSH1 0x20 ADD SWAP1 DUP2 MSTORE PUSH1 0x20 ADD PUSH0 KECCAK256 PUSH1 0x5 ADD SLOAD PUSH2 0x282E SWAP2 SWAP1 PUSH2 0x42B6 JUMP JUMPDEST PUSH2 0x2838 SWAP2 SWAP1 PUSH2 0x4324 JUMP JUMPDEST SWAP1 POP PUSH0 PUSH2 0x2845 DUP7 DUP4 PUSH2 0x329B JUMP JUMPDEST SWAP1 POP DUP1 PUSH1 0x2 PUSH0 DUP3 DUP3 SLOAD PUSH2 0x2858 SWAP2 SWAP1 PUSH2 0x3E9D JUMP JUMPDEST SWAP3 POP POP DUP2 SWAP1 SSTORE POP DUP1 DUP5 PUSH2 0x286B SWAP2 SWAP1 PUSH2 0x3F93 JUMP JUMPDEST SWAP4 POP DUP5 PUSH1 0x1 PUSH0 DUP3 DUP3 SLOAD PUSH2 0x287E SWAP2 SWAP1 PUSH2 0x3E9D JUMP JUMPDEST SWAP3 POP POP DUP2 SWAP1 SSTORE POP DUP5 PUSH1 0x12 PUSH0 PUSH1 0x10 PUSH0 DUP8 DUP2 MSTORE PUSH1 0x20 ADD SWAP1 DUP2 MSTORE PUSH1 0x20 ADD PUSH0 KECCAK256 PUSH0 SWAP1 SLOAD SWAP1 PUSH2 0x100 EXP SWAP1 DIV PUSH20 0xFFFFFFFFFFFFFFFFFFFFFFFFFFFFFFFFFFFFFFFF AND PUSH20 0xFFFFFFFFFFFFFFFFFFFFFFFFFFFFFFFFFFFFFFFF AND PUSH20 0xFFFFFFFFFFFFFFFFFFFFFFFFFFFFFFFFFFFFFFFF AND DUP2 MSTORE PUSH1 0x20 ADD SWAP1 DUP2 MSTORE PUSH1 0x20 ADD PUSH0 KECCAK256 PUSH1 0x3 ADD DUP2 SWAP1 SSTORE POP DUP1 PUSH1 0x12 PUSH0 PUSH1 0x10 PUSH0 DUP8 DUP2 MSTORE PUSH1 0x20 ADD SWAP1 DUP2 MSTORE PUSH1 0x20 ADD PUSH0 KECCAK256 PUSH0 SWAP1 SLOAD SWAP1 PUSH2 0x100 EXP SWAP1 DIV PUSH20 0xFFFFFFFFFFFFFFFFFFFFFFFFFFFFFFFFFFFFFFFF AND PUSH20 0xFFFFFFFFFFFFFFFFFFFFFFFFFFFFFFFFFFFFFFFF AND PUSH20 0xFFFFFFFFFFFFFFFFFFFFFFFFFFFFFFFFFFFFFFFF AND DUP2 MSTORE PUSH1 0x20 ADD SWAP1 DUP2 MSTORE PUSH1 0x20 ADD PUSH0 KECCAK256 PUSH1 0x4 ADD DUP2 SWAP1 SSTORE POP PUSH0 DUP6 DUP3 PUSH2 0x297C SWAP2 SWAP1 PUSH2 0x3F93 JUMP JUMPDEST SWAP1 POP DUP1 PUSH1 0x12 PUSH0 PUSH1 0x10 PUSH0 DUP9 DUP2 MSTORE PUSH1 0x20 ADD SWAP1 DUP2 MSTORE PUSH1 0x20 ADD PUSH0 KECCAK256 PUSH0 SWAP1 SLOAD SWAP1 PUSH2 0x100 EXP SWAP1 DIV PUSH20 0xFFFFFFFFFFFFFFFFFFFFFFFFFFFFFFFFFFFFFFFF AND PUSH20 0xFFFFFFFFFFFFFFFFFFFFFFFFFFFFFFFFFFFFFFFF AND PUSH20 0xFFFFFFFFFFFFFFFFFFFFFFFFFFFFFFFFFFFFFFFF AND DUP2 MSTORE PUSH1 0x20 ADD SWAP1 DUP2 MSTORE PUSH1 0x20 ADD PUSH0 KECCAK256 PUSH1 0x1 ADD PUSH0 DUP3 DUP3 SLOAD PUSH2 0x29FD SWAP2 SWAP1 PUSH2 0x3F93 JUMP JUMPDEST SWAP3 POP POP DUP2 SWAP1 SSTORE POP DUP8 DUP6 GT ISZERO PUSH2 0x2A47 JUMPI PUSH1 0x40 MLOAD PUSH32 0x8C379A000000000000000000000000000000000000000000000000000000000 DUP2 MSTORE PUSH1 0x4 ADD PUSH2 0x2A3E SWAP1 PUSH2 0x439E JUMP JUMPDEST PUSH1 0x40 MLOAD DUP1 SWAP2 SUB SWAP1 REVERT JUMPDEST POP POP POP JUMPDEST DUP1 DUP1 PUSH1 0x1 ADD SWAP2 POP POP PUSH2 0x2722 JUMP JUMPDEST POP PUSH32 0xEE826440768329B0C72F81331212EE31FCDAC1EA79A248D24821E40C34E58020 CALLER PUSH1 0x2 SLOAD PUSH1 0x1 SLOAD PUSH1 0x40 MLOAD PUSH2 0x2A90 SWAP4 SWAP3 SWAP2 SWAP1 PUSH2 0x403A JUMP JUMPDEST PUSH1 0x40 MLOAD DUP1 SWAP2 SUB SWAP1 LOG1 POP POP POP POP JUMP JUMPDEST PUSH2 0x2AA6 PUSH2 0x2BE7 JUMP JUMPDEST PUSH0 DUP2 GT PUSH2 0x2AEA JUMPI DUP1 PUSH1 0x40 MLOAD PUSH32 0xCDBC633500000000000000000000000000000000000000000000000000000000 DUP2 MSTORE PUSH1 0x4 ADD PUSH2 0x2AE1 SWAP2 SWAP1 PUSH2 0x376B JUMP JUMPDEST PUSH1 0x40 MLOAD DUP1 SWAP2 SUB SWAP1 REVERT JUMPDEST DUP1 PUSH1 0x11 PUSH0 DUP5 DUP2 MSTORE PUSH1 0x20 ADD SWAP1 DUP2 MSTORE PUSH1 0x20 ADD PUSH0 KECCAK256 DUP2 SWAP1 SSTORE POP PUSH32 0xB5671393C7C6980552E50A31E778921EB17D764C2E98FBF4D44FFF524712DEF9 CALLER PUSH1 0x11 PUSH0 DUP6 DUP2 MSTORE PUSH1 0x20 ADD SWAP1 DUP2 MSTORE PUSH1 0x20 ADD PUSH0 KECCAK256 SLOAD PUSH1 0x40 MLOAD PUSH2 0x2B42 SWAP3 SWAP2 SWAP1 PUSH2 0x406F JUMP JUMPDEST PUSH1 0x40 MLOAD DUP1 SWAP2 SUB SWAP1 LOG1 POP POP JUMP JUMPDEST PUSH2 0x2B56 PUSH2 0x2BE7 JUMP JUMPDEST PUSH0 PUSH20 0xFFFFFFFFFFFFFFFFFFFFFFFFFFFFFFFFFFFFFFFF AND DUP2 PUSH20 0xFFFFFFFFFFFFFFFFFFFFFFFFFFFFFFFFFFFFFFFF AND SUB PUSH2 0x2BC6 JUMPI PUSH0 PUSH1 0x40 MLOAD PUSH32 0x1E4FBDF700000000000000000000000000000000000000000000000000000000 DUP2 MSTORE PUSH1 0x4 ADD PUSH2 0x2BBD SWAP2 SWAP1 PUSH2 0x389D JUMP JUMPDEST PUSH1 0x40 MLOAD DUP1 SWAP2 SUB SWAP1 REVERT JUMPDEST PUSH2 0x2BCF DUP2 PUSH2 0x2F04 JUMP JUMPDEST POP JUMP JUMPDEST PUSH1 0x11 PUSH1 0x20 MSTORE DUP1 PUSH0 MSTORE PUSH1 0x40 PUSH0 KECCAK256 PUSH0 SWAP2 POP SWAP1 POP SLOAD DUP2 JUMP JUMPDEST PUSH2 0x2BEF PUSH2 0x3346 JUMP JUMPDEST PUSH20 0xFFFFFFFFFFFFFFFFFFFFFFFFFFFFFFFFFFFFFFFF AND PUSH2 0x2C0D PUSH2 0x1EB7 JUMP JUMPDEST PUSH20 0xFFFFFFFFFFFFFFFFFFFFFFFFFFFFFFFFFFFFFFFF AND EQ PUSH2 0x2C6C JUMPI PUSH2 0x2C30 PUSH2 0x3346 JUMP JUMPDEST PUSH1 0x40 MLOAD PUSH32 0x118CDAA700000000000000000000000000000000000000000000000000000000 DUP2 MSTORE PUSH1 0x4 ADD PUSH2 0x2C63 SWAP2 SWAP1 PUSH2 0x389D JUMP JUMPDEST PUSH1 0x40 MLOAD DUP1 SWAP2 SUB SWAP1 REVERT JUMPDEST JUMP JUMPDEST PUSH32 0x0 PUSH20 0xFFFFFFFFFFFFFFFFFFFFFFFFFFFFFFFFFFFFFFFF AND ADDRESS PUSH20 0xFFFFFFFFFFFFFFFFFFFFFFFFFFFFFFFFFFFFFFFF AND EQ DUP1 PUSH2 0x2D1B JUMPI POP PUSH32 0x0 PUSH20 0xFFFFFFFFFFFFFFFFFFFFFFFFFFFFFFFFFFFFFFFF AND PUSH2 0x2D02 PUSH2 0x334D JUMP JUMPDEST PUSH20 0xFFFFFFFFFFFFFFFFFFFFFFFFFFFFFFFFFFFFFFFF AND EQ ISZERO JUMPDEST ISZERO PUSH2 0x2D52 JUMPI PUSH1 0x40 MLOAD PUSH32 0xE07C8DBA00000000000000000000000000000000000000000000000000000000 DUP2 MSTORE PUSH1 0x4 ADD PUSH1 0x40 MLOAD DUP1 SWAP2 SUB SWAP1 REVERT JUMPDEST JUMP JUMPDEST PUSH2 0x2D5C PUSH2 0x2BE7 JUMP JUMPDEST POP JUMP JUMPDEST DUP2 PUSH20 0xFFFFFFFFFFFFFFFFFFFFFFFFFFFFFFFFFFFFFFFF AND PUSH4 0x52D1902D PUSH1 0x40 MLOAD DUP2 PUSH4 0xFFFFFFFF AND PUSH1 0xE0 SHL DUP2 MSTORE PUSH1 0x4 ADD PUSH1 0x20 PUSH1 0x40 MLOAD DUP1 DUP4 SUB DUP2 DUP7 GAS STATICCALL SWAP3 POP POP POP DUP1 ISZERO PUSH2 0x2DC7 JUMPI POP PUSH1 0x40 MLOAD RETURNDATASIZE PUSH1 0x1F NOT PUSH1 0x1F DUP3 ADD AND DUP3 ADD DUP1 PUSH1 0x40 MSTORE POP DUP2 ADD SWAP1 PUSH2 0x2DC4 SWAP2 SWAP1 PUSH2 0x43E6 JUMP JUMPDEST PUSH1 0x1 JUMPDEST PUSH2 0x2E08 JUMPI DUP2 PUSH1 0x40 MLOAD PUSH32 0x4C9C8CE300000000000000000000000000000000000000000000000000000000 DUP2 MSTORE PUSH1 0x4 ADD PUSH2 0x2DFF SWAP2 SWAP1 PUSH2 0x389D JUMP JUMPDEST PUSH1 0x40 MLOAD DUP1 SWAP2 SUB SWAP1 REVERT JUMPDEST PUSH32 0x360894A13BA1A3210667C828492DB98DCA3E2076CC3735A920A3CA505D382BBC PUSH0 SHL DUP2 EQ PUSH2 0x2E6E JUMPI DUP1 PUSH1 0x40 MLOAD PUSH32 0xAA1D49A400000000000000000000000000000000000000000000000000000000 DUP2 MSTORE PUSH1 0x4 ADD PUSH2 0x2E65 SWAP2 SWAP1 PUSH2 0x3B69 JUMP JUMPDEST PUSH1 0x40 MLOAD DUP1 SWAP2 SUB SWAP1 REVERT JUMPDEST PUSH2 0x2E78 DUP4 DUP4 PUSH2 0x33A0 JUMP JUMPDEST POP POP POP JUMP JUMPDEST PUSH32 0x0 PUSH20 0xFFFFFFFFFFFFFFFFFFFFFFFFFFFFFFFFFFFFFFFF AND ADDRESS PUSH20 0xFFFFFFFFFFFFFFFFFFFFFFFFFFFFFFFFFFFFFFFF AND EQ PUSH2 0x2F02 JUMPI PUSH1 0x40 MLOAD PUSH32 0xE07C8DBA00000000000000000000000000000000000000000000000000000000 DUP2 MSTORE PUSH1 0x4 ADD PUSH1 0x40 MLOAD DUP1 SWAP2 SUB SWAP1 REVERT JUMPDEST JUMP JUMPDEST PUSH0 PUSH2 0x2F0D PUSH2 0x3037 JUMP JUMPDEST SWAP1 POP PUSH0 DUP2 PUSH0 ADD PUSH0 SWAP1 SLOAD SWAP1 PUSH2 0x100 EXP SWAP1 DIV PUSH20 0xFFFFFFFFFFFFFFFFFFFFFFFFFFFFFFFFFFFFFFFF AND SWAP1 POP DUP3 DUP3 PUSH0 ADD PUSH0 PUSH2 0x100 EXP DUP2 SLOAD DUP2 PUSH20 0xFFFFFFFFFFFFFFFFFFFFFFFFFFFFFFFFFFFFFFFF MUL NOT AND SWAP1 DUP4 PUSH20 0xFFFFFFFFFFFFFFFFFFFFFFFFFFFFFFFFFFFFFFFF AND MUL OR SWAP1 SSTORE POP DUP3 PUSH20 0xFFFFFFFFFFFFFFFFFFFFFFFFFFFFFFFFFFFFFFFF AND DUP2 PUSH20 0xFFFFFFFFFFFFFFFFFFFFFFFFFFFFFFFFFFFFFFFF AND PUSH32 0x8BE0079C531659141344CD1FD0A4F28419497F9722A3DAAFE3B4186F6B6457E0 PUSH1 0x40 MLOAD PUSH1 0x40 MLOAD DUP1 SWAP2 SUB SWAP1 LOG3 POP POP POP JUMP JUMPDEST PUSH0 DUP2 PUSH2 0x2710 PUSH2 0x2FE4 SWAP2 SWAP1 PUSH2 0x3E9D JUMP JUMPDEST SWAP1 POP PUSH0 PUSH2 0x2FF1 DUP5 DUP4 PUSH2 0x329B JUMP JUMPDEST SWAP1 POP PUSH0 PUSH2 0x2FFE DUP6 DUP6 PUSH2 0x329B JUMP JUMPDEST SWAP1 POP DUP2 PUSH1 0x2 PUSH0 DUP3 DUP3 SLOAD PUSH2 0x3011 SWAP2 SWAP1 PUSH2 0x3F93 JUMP JUMPDEST SWAP3 POP POP DUP2 SWAP1 SSTORE POP DUP1 PUSH1 0x1 PUSH0 DUP3 DUP3 SLOAD PUSH2 0x3029 SWAP2 SWAP1 PUSH2 0x3F93 JUMP JUMPDEST SWAP3 POP POP DUP2 SWAP1 SSTORE POP POP POP POP POP POP JUMP JUMPDEST PUSH0 PUSH32 0x9016D09D72D40FDAE2FD8CEAC6B6234C7706214FD39C1CD1E609A0528C199300 SWAP1 POP SWAP1 JUMP JUMPDEST PUSH0 PUSH32 0xF0C57E16840DF040F15088DC2F81FE391C3923BEC73E23A9662EFC9C229C6A00 SWAP1 POP SWAP1 JUMP JUMPDEST PUSH2 0x308D PUSH2 0x3412 JUMP JUMPDEST PUSH2 0x3096 DUP2 PUSH2 0x3452 JUMP JUMPDEST POP JUMP JUMPDEST PUSH2 0x30A1 PUSH2 0x3412 JUMP JUMPDEST JUMP JUMPDEST PUSH0 DUP1 PUSH0 DUP1 PUSH2 0x30B5 PUSH1 0x2 SLOAD PUSH2 0x1388 PUSH2 0x329B JUMP JUMPDEST SWAP1 POP PUSH0 PUSH2 0x30C4 DUP3 PUSH1 0x5 SLOAD PUSH2 0x329B JUMP JUMPDEST SWAP1 POP PUSH0 PUSH2 0x30D3 DUP4 PUSH1 0x6 SLOAD PUSH2 0x329B JUMP JUMPDEST SWAP1 POP PUSH0 PUSH2 0x30E2 DUP5 PUSH1 0x7 SLOAD PUSH2 0x329B JUMP JUMPDEST SWAP1 POP PUSH0 PUSH2 0x30F3 PUSH1 0x1 SLOAD PUSH1 0x4 SLOAD PUSH2 0x329B JUMP JUMPDEST SWAP1 POP PUSH0 PUSH1 0x8 SLOAD GT PUSH2 0x3139 JUMPI PUSH1 0x40 MLOAD PUSH32 0x8C379A000000000000000000000000000000000000000000000000000000000 DUP2 MSTORE PUSH1 0x4 ADD PUSH2 0x3130 SWAP1 PUSH2 0x445B JUMP JUMPDEST PUSH1 0x40 MLOAD DUP1 SWAP2 SUB SWAP1 REVERT JUMPDEST PUSH0 PUSH1 0x8 SLOAD DUP3 PUSH2 0x3148 SWAP2 SWAP1 PUSH2 0x4324 JUMP JUMPDEST SWAP1 POP DUP3 DUP5 PUSH2 0x3156 SWAP2 SWAP1 PUSH2 0x3F93 JUMP JUMPDEST PUSH1 0x2 PUSH0 DUP3 DUP3 SLOAD PUSH2 0x3166 SWAP2 SWAP1 PUSH2 0x3E9D JUMP JUMPDEST SWAP3 POP POP DUP2 SWAP1 SSTORE POP DUP4 PUSH1 0x1 PUSH0 DUP3 DUP3 SLOAD PUSH2 0x317E SWAP2 SWAP1 PUSH2 0x3F93 JUMP JUMPDEST SWAP3 POP POP DUP2 SWAP1 SSTORE POP PUSH0 DUP1 PUSH0 SWAP1 SLOAD SWAP1 PUSH2 0x100 EXP SWAP1 DIV PUSH20 0xFFFFFFFFFFFFFFFFFFFFFFFFFFFFFFFFFFFFFFFF AND PUSH20 0xFFFFFFFFFFFFFFFFFFFFFFFFFFFFFFFFFFFFFFFF AND PUSH4 0xA9059CBB PUSH1 0x9 PUSH0 SWAP1 SLOAD SWAP1 PUSH2 0x100 EXP SWAP1 DIV PUSH20 0xFFFFFFFFFFFFFFFFFFFFFFFFFFFFFFFFFFFFFFFF AND DUP7 PUSH1 0x40 MLOAD DUP4 PUSH4 0xFFFFFFFF AND PUSH1 0xE0 SHL DUP2 MSTORE PUSH1 0x4 ADD PUSH2 0x3202 SWAP3 SWAP2 SWAP1 PUSH2 0x406F JUMP JUMPDEST PUSH1 0x20 PUSH1 0x40 MLOAD DUP1 DUP4 SUB DUP2 PUSH0 DUP8 GAS CALL ISZERO DUP1 ISZERO PUSH2 0x321E JUMPI RETURNDATASIZE PUSH0 DUP1 RETURNDATACOPY RETURNDATASIZE PUSH0 REVERT JUMPDEST POP POP POP POP PUSH1 0x40 MLOAD RETURNDATASIZE PUSH1 0x1F NOT PUSH1 0x1F DUP3 ADD AND DUP3 ADD DUP1 PUSH1 0x40 MSTORE POP DUP2 ADD SWAP1 PUSH2 0x3242 SWAP2 SWAP1 PUSH2 0x400F JUMP JUMPDEST SWAP1 POP DUP1 PUSH2 0x3286 JUMPI DUP1 PUSH1 0x40 MLOAD PUSH32 0xD85D3CEF00000000000000000000000000000000000000000000000000000000 DUP2 MSTORE PUSH1 0x4 ADD PUSH2 0x327D SWAP2 SWAP1 PUSH2 0x38D0 JUMP JUMPDEST PUSH1 0x40 MLOAD DUP1 SWAP2 SUB SWAP1 REVERT JUMPDEST DUP7 DUP7 DUP4 SWAP10 POP SWAP10 POP SWAP10 POP POP POP POP POP POP POP POP SWAP1 SWAP2 SWAP3 JUMP JUMPDEST PUSH0 DUP1 DUP4 SUB PUSH2 0x32DE JUMPI PUSH1 0x40 MLOAD PUSH32 0x8C379A000000000000000000000000000000000000000000000000000000000 DUP2 MSTORE PUSH1 0x4 ADD PUSH2 0x32D5 SWAP1 PUSH2 0x44E9 JUMP JUMPDEST PUSH1 0x40 MLOAD DUP1 SWAP2 SUB SWAP1 REVERT JUMPDEST PUSH0 DUP3 SUB PUSH2 0x3320 JUMPI PUSH1 0x40 MLOAD PUSH32 0x8C379A000000000000000000000000000000000000000000000000000000000 DUP2 MSTORE PUSH1 0x4 ADD PUSH2 0x3317 SWAP1 PUSH2 0x44E9 JUMP JUMPDEST PUSH1 0x40 MLOAD DUP1 SWAP2 SUB SWAP1 REVERT JUMPDEST PUSH0 PUSH2 0x2710 DUP4 DUP6 PUSH2 0x3330 SWAP2 SWAP1 PUSH2 0x42B6 JUMP JUMPDEST PUSH2 0x333A SWAP2 SWAP1 PUSH2 0x4324 JUMP JUMPDEST SWAP1 POP DUP1 SWAP2 POP POP SWAP3 SWAP2 POP POP JUMP JUMPDEST PUSH0 CALLER SWAP1 POP SWAP1 JUMP JUMPDEST PUSH0 PUSH2 0x3379 PUSH32 0x360894A13BA1A3210667C828492DB98DCA3E2076CC3735A920A3CA505D382BBC PUSH0 SHL PUSH2 0x34D6 JUMP JUMPDEST PUSH0 ADD PUSH0 SWAP1 SLOAD SWAP1 PUSH2 0x100 EXP SWAP1 DIV PUSH20 0xFFFFFFFFFFFFFFFFFFFFFFFFFFFFFFFFFFFFFFFF AND SWAP1 POP SWAP1 JUMP JUMPDEST PUSH2 0x33A9 DUP3 PUSH2 0x34DF JUMP JUMPDEST DUP2 PUSH20 0xFFFFFFFFFFFFFFFFFFFFFFFFFFFFFFFFFFFFFFFF AND PUSH32 0xBC7CD75A20EE27FD9ADEBAB32041F755214DBC6BFFA90CC0225B39DA2E5C2D3B PUSH1 0x40 MLOAD PUSH1 0x40 MLOAD DUP1 SWAP2 SUB SWAP1 LOG2 PUSH0 DUP2 MLOAD GT ISZERO PUSH2 0x3405 JUMPI PUSH2 0x33FF DUP3 DUP3 PUSH2 0x35A8 JUMP JUMPDEST POP PUSH2 0x340E JUMP JUMPDEST PUSH2 0x340D PUSH2 0x3628 JUMP JUMPDEST JUMPDEST POP POP JUMP JUMPDEST PUSH2 0x341A PUSH2 0x3664 JUMP JUMPDEST PUSH2 0x3450 JUMPI PUSH1 0x40 MLOAD PUSH32 0xD7E6BCF800000000000000000000000000000000000000000000000000000000 DUP2 MSTORE PUSH1 0x4 ADD PUSH1 0x40 MLOAD DUP1 SWAP2 SUB SWAP1 REVERT JUMPDEST JUMP JUMPDEST PUSH2 0x345A PUSH2 0x3412 JUMP JUMPDEST PUSH0 PUSH20 0xFFFFFFFFFFFFFFFFFFFFFFFFFFFFFFFFFFFFFFFF AND DUP2 PUSH20 0xFFFFFFFFFFFFFFFFFFFFFFFFFFFFFFFFFFFFFFFF AND SUB PUSH2 0x34CA JUMPI PUSH0 PUSH1 0x40 MLOAD PUSH32 0x1E4FBDF700000000000000000000000000000000000000000000000000000000 DUP2 MSTORE PUSH1 0x4 ADD PUSH2 0x34C1 SWAP2 SWAP1 PUSH2 0x389D JUMP JUMPDEST PUSH1 0x40 MLOAD DUP1 SWAP2 SUB SWAP1 REVERT JUMPDEST PUSH2 0x34D3 DUP2 PUSH2 0x2F04 JUMP JUMPDEST POP JUMP JUMPDEST PUSH0 DUP2 SWAP1 POP SWAP2 SWAP1 POP JUMP JUMPDEST PUSH0 DUP2 PUSH20 0xFFFFFFFFFFFFFFFFFFFFFFFFFFFFFFFFFFFFFFFF AND EXTCODESIZE SUB PUSH2 0x353A JUMPI DUP1 PUSH1 0x40 MLOAD PUSH32 0x4C9C8CE300000000000000000000000000000000000000000000000000000000 DUP2 MSTORE PUSH1 0x4 ADD PUSH2 0x3531 SWAP2 SWAP1 PUSH2 0x389D JUMP JUMPDEST PUSH1 0x40 MLOAD DUP1 SWAP2 SUB SWAP1 REVERT JUMPDEST DUP1 PUSH2 0x3566 PUSH32 0x360894A13BA1A3210667C828492DB98DCA3E2076CC3735A920A3CA505D382BBC PUSH0 SHL PUSH2 0x34D6 JUMP JUMPDEST PUSH0 ADD PUSH0 PUSH2 0x100 EXP DUP2 SLOAD DUP2 PUSH20 0xFFFFFFFFFFFFFFFFFFFFFFFFFFFFFFFFFFFFFFFF MUL NOT AND SWAP1 DUP4 PUSH20 0xFFFFFFFFFFFFFFFFFFFFFFFFFFFFFFFFFFFFFFFF AND MUL OR SWAP1 SSTORE POP POP JUMP JUMPDEST PUSH1 0x60 PUSH0 DUP1 DUP5 PUSH20 0xFFFFFFFFFFFFFFFFFFFFFFFFFFFFFFFFFFFFFFFF AND DUP5 PUSH1 0x40 MLOAD PUSH2 0x35D1 SWAP2 SWAP1 PUSH2 0x4541 JUMP JUMPDEST PUSH0 PUSH1 0x40 MLOAD DUP1 DUP4 SUB DUP2 DUP6 GAS DELEGATECALL SWAP2 POP POP RETURNDATASIZE DUP1 PUSH0 DUP2 EQ PUSH2 0x3609 JUMPI PUSH1 0x40 MLOAD SWAP2 POP PUSH1 0x1F NOT PUSH1 0x3F RETURNDATASIZE ADD AND DUP3 ADD PUSH1 0x40 MSTORE RETURNDATASIZE DUP3 MSTORE RETURNDATASIZE PUSH0 PUSH1 0x20 DUP5 ADD RETURNDATACOPY PUSH2 0x360E JUMP JUMPDEST PUSH1 0x60 SWAP2 POP JUMPDEST POP SWAP2 POP SWAP2 POP PUSH2 0x361E DUP6 DUP4 DUP4 PUSH2 0x3682 JUMP JUMPDEST SWAP3 POP POP POP SWAP3 SWAP2 POP POP JUMP JUMPDEST PUSH0 CALLVALUE GT ISZERO PUSH2 0x3662 JUMPI PUSH1 0x40 MLOAD PUSH32 0xB398979F00000000000000000000000000000000000000000000000000000000 DUP2 MSTORE PUSH1 0x4 ADD PUSH1 0x40 MLOAD DUP1 SWAP2 SUB SWAP1 REVERT JUMPDEST JUMP JUMPDEST PUSH0 PUSH2 0x366D PUSH2 0x305E JUMP JUMPDEST PUSH0 ADD PUSH1 0x8 SWAP1 SLOAD SWAP1 PUSH2 0x100 EXP SWAP1 DIV PUSH1 0xFF AND SWAP1 POP SWAP1 JUMP JUMPDEST PUSH1 0x60 DUP3 PUSH2 0x3697 JUMPI PUSH2 0x3692 DUP3 PUSH2 0x370F JUMP JUMPDEST PUSH2 0x3707 JUMP JUMPDEST PUSH0 DUP3 MLOAD EQ DUP1 ISZERO PUSH2 0x36BD JUMPI POP PUSH0 DUP5 PUSH20 0xFFFFFFFFFFFFFFFFFFFFFFFFFFFFFFFFFFFFFFFF AND EXTCODESIZE EQ JUMPDEST ISZERO PUSH2 0x36FF JUMPI DUP4 PUSH1 0x40 MLOAD PUSH32 0x9996B31500000000000000000000000000000000000000000000000000000000 DUP2 MSTORE PUSH1 0x4 ADD PUSH2 0x36F6 SWAP2 SWAP1 PUSH2 0x389D JUMP JUMPDEST PUSH1 0x40 MLOAD DUP1 SWAP2 SUB SWAP1 REVERT JUMPDEST DUP2 SWAP1 POP PUSH2 0x3708 JUMP JUMPDEST JUMPDEST SWAP4 SWAP3 POP POP POP JUMP JUMPDEST PUSH0 DUP2 MLOAD GT ISZERO PUSH2 0x3721 JUMPI DUP1 MLOAD DUP1 DUP3 PUSH1 0x20 ADD REVERT JUMPDEST PUSH1 0x40 MLOAD PUSH32 0x1425EA4200000000000000000000000000000000000000000000000000000000 DUP2 MSTORE PUSH1 0x4 ADD PUSH1 0x40 MLOAD DUP1 SWAP2 SUB SWAP1 REVERT JUMPDEST PUSH0 DUP2 SWAP1 POP SWAP2 SWAP1 POP JUMP JUMPDEST PUSH2 0x3765 DUP2 PUSH2 0x3753 JUMP JUMPDEST DUP3 MSTORE POP POP JUMP JUMPDEST PUSH0 PUSH1 0x20 DUP3 ADD SWAP1 POP PUSH2 0x377E PUSH0 DUP4 ADD DUP5 PUSH2 0x375C JUMP JUMPDEST SWAP3 SWAP2 POP POP JUMP JUMPDEST PUSH0 PUSH20 0xFFFFFFFFFFFFFFFFFFFFFFFFFFFFFFFFFFFFFFFF DUP3 AND SWAP1 POP SWAP2 SWAP1 POP JUMP JUMPDEST PUSH0 DUP2 SWAP1 POP SWAP2 SWAP1 POP JUMP JUMPDEST PUSH0 PUSH2 0x37C6 PUSH2 0x37C1 PUSH2 0x37BC DUP5 PUSH2 0x3784 JUMP JUMPDEST PUSH2 0x37A3 JUMP JUMPDEST PUSH2 0x3784 JUMP JUMPDEST SWAP1 POP SWAP2 SWAP1 POP JUMP JUMPDEST PUSH0 PUSH2 0x37D7 DUP3 PUSH2 0x37AC JUMP JUMPDEST SWAP1 POP SWAP2 SWAP1 POP JUMP JUMPDEST PUSH0 PUSH2 0x37E8 DUP3 PUSH2 0x37CD JUMP JUMPDEST SWAP1 POP SWAP2 SWAP1 POP JUMP JUMPDEST PUSH2 0x37F8 DUP2 PUSH2 0x37DE JUMP JUMPDEST DUP3 MSTORE POP POP JUMP JUMPDEST PUSH0 PUSH1 0x20 DUP3 ADD SWAP1 POP PUSH2 0x3811 PUSH0 DUP4 ADD DUP5 PUSH2 0x37EF JUMP JUMPDEST SWAP3 SWAP2 POP POP JUMP JUMPDEST PUSH0 PUSH1 0x40 MLOAD SWAP1 POP SWAP1 JUMP JUMPDEST PUSH0 DUP1 REVERT JUMPDEST PUSH0 DUP1 REVERT JUMPDEST PUSH2 0x3831 DUP2 PUSH2 0x3753 JUMP JUMPDEST DUP2 EQ PUSH2 0x383B JUMPI PUSH0 DUP1 REVERT JUMPDEST POP JUMP JUMPDEST PUSH0 DUP2 CALLDATALOAD SWAP1 POP PUSH2 0x384C DUP2 PUSH2 0x3828 JUMP JUMPDEST SWAP3 SWAP2 POP POP JUMP JUMPDEST PUSH0 PUSH1 0x20 DUP3 DUP5 SUB SLT ISZERO PUSH2 0x3867 JUMPI PUSH2 0x3866 PUSH2 0x3820 JUMP JUMPDEST JUMPDEST PUSH0 PUSH2 0x3874 DUP5 DUP3 DUP6 ADD PUSH2 0x383E JUMP JUMPDEST SWAP2 POP POP SWAP3 SWAP2 POP POP JUMP JUMPDEST PUSH0 PUSH2 0x3887 DUP3 PUSH2 0x3784 JUMP JUMPDEST SWAP1 POP SWAP2 SWAP1 POP JUMP JUMPDEST PUSH2 0x3897 DUP2 PUSH2 0x387D JUMP JUMPDEST DUP3 MSTORE POP POP JUMP JUMPDEST PUSH0 PUSH1 0x20 DUP3 ADD SWAP1 POP PUSH2 0x38B0 PUSH0 DUP4 ADD DUP5 PUSH2 0x388E JUMP JUMPDEST SWAP3 SWAP2 POP POP JUMP JUMPDEST PUSH0 DUP2 ISZERO ISZERO SWAP1 POP SWAP2 SWAP1 POP JUMP JUMPDEST PUSH2 0x38CA DUP2 PUSH2 0x38B6 JUMP JUMPDEST DUP3 MSTORE POP POP JUMP JUMPDEST PUSH0 PUSH1 0x20 DUP3 ADD SWAP1 POP PUSH2 0x38E3 PUSH0 DUP4 ADD DUP5 PUSH2 0x38C1 JUMP JUMPDEST SWAP3 SWAP2 POP POP JUMP JUMPDEST PUSH0 DUP1 REVERT JUMPDEST PUSH0 DUP1 REVERT JUMPDEST PUSH0 DUP1 REVERT JUMPDEST PUSH0 DUP1 DUP4 PUSH1 0x1F DUP5 ADD SLT PUSH2 0x390A JUMPI PUSH2 0x3909 PUSH2 0x38E9 JUMP JUMPDEST JUMPDEST DUP3 CALLDATALOAD SWAP1 POP PUSH8 0xFFFFFFFFFFFFFFFF DUP2 GT ISZERO PUSH2 0x3927 JUMPI PUSH2 0x3926 PUSH2 0x38ED JUMP JUMPDEST JUMPDEST PUSH1 0x20 DUP4 ADD SWAP2 POP DUP4 PUSH1 0x1 DUP3 MUL DUP4 ADD GT ISZERO PUSH2 0x3943 JUMPI PUSH2 0x3942 PUSH2 0x38F1 JUMP JUMPDEST JUMPDEST SWAP3 POP SWAP3 SWAP1 POP JUMP JUMPDEST PUSH0 DUP1 PUSH1 0x20 DUP4 DUP6 SUB SLT ISZERO PUSH2 0x3960 JUMPI PUSH2 0x395F PUSH2 0x3820 JUMP JUMPDEST JUMPDEST PUSH0 DUP4 ADD CALLDATALOAD PUSH8 0xFFFFFFFFFFFFFFFF DUP2 GT ISZERO PUSH2 0x397D JUMPI PUSH2 0x397C PUSH2 0x3824 JUMP JUMPDEST JUMPDEST PUSH2 0x3989 DUP6 DUP3 DUP7 ADD PUSH2 0x38F5 JUMP JUMPDEST SWAP3 POP SWAP3 POP POP SWAP3 POP SWAP3 SWAP1 POP JUMP JUMPDEST PUSH2 0x399E DUP2 PUSH2 0x387D JUMP JUMPDEST DUP2 EQ PUSH2 0x39A8 JUMPI PUSH0 DUP1 REVERT JUMPDEST POP JUMP JUMPDEST PUSH0 DUP2 CALLDATALOAD SWAP1 POP PUSH2 0x39B9 DUP2 PUSH2 0x3995 JUMP JUMPDEST SWAP3 SWAP2 POP POP JUMP JUMPDEST PUSH0 DUP1 REVERT JUMPDEST PUSH0 PUSH1 0x1F NOT PUSH1 0x1F DUP4 ADD AND SWAP1 POP SWAP2 SWAP1 POP JUMP JUMPDEST PUSH32 0x4E487B7100000000000000000000000000000000000000000000000000000000 PUSH0 MSTORE PUSH1 0x41 PUSH1 0x4 MSTORE PUSH1 0x24 PUSH0 REVERT JUMPDEST PUSH2 0x3A09 DUP3 PUSH2 0x39C3 JUMP JUMPDEST DUP2 ADD DUP2 DUP2 LT PUSH8 0xFFFFFFFFFFFFFFFF DUP3 GT OR ISZERO PUSH2 0x3A28 JUMPI PUSH2 0x3A27 PUSH2 0x39D3 JUMP JUMPDEST JUMPDEST DUP1 PUSH1 0x40 MSTORE POP POP POP JUMP JUMPDEST PUSH0 PUSH2 0x3A3A PUSH2 0x3817 JUMP JUMPDEST SWAP1 POP PUSH2 0x3A46 DUP3 DUP3 PUSH2 0x3A00 JUMP JUMPDEST SWAP2 SWAP1 POP JUMP JUMPDEST PUSH0 PUSH8 0xFFFFFFFFFFFFFFFF DUP3 GT ISZERO PUSH2 0x3A65 JUMPI PUSH2 0x3A64 PUSH2 0x39D3 JUMP JUMPDEST JUMPDEST PUSH2 0x3A6E DUP3 PUSH2 0x39C3 JUMP JUMPDEST SWAP1 POP PUSH1 0x20 DUP2 ADD SWAP1 POP SWAP2 SWAP1 POP JUMP JUMPDEST DUP3 DUP2 DUP4 CALLDATACOPY PUSH0 DUP4 DUP4 ADD MSTORE POP POP POP JUMP JUMPDEST PUSH0 PUSH2 0x3A9B PUSH2 0x3A96 DUP5 PUSH2 0x3A4B JUMP JUMPDEST PUSH2 0x3A31 JUMP JUMPDEST SWAP1 POP DUP3 DUP2 MSTORE PUSH1 0x20 DUP2 ADD DUP5 DUP5 DUP5 ADD GT ISZERO PUSH2 0x3AB7 JUMPI PUSH2 0x3AB6 PUSH2 0x39BF JUMP JUMPDEST JUMPDEST PUSH2 0x3AC2 DUP5 DUP3 DUP6 PUSH2 0x3A7B JUMP JUMPDEST POP SWAP4 SWAP3 POP POP POP JUMP JUMPDEST PUSH0 DUP3 PUSH1 0x1F DUP4 ADD SLT PUSH2 0x3ADE JUMPI PUSH2 0x3ADD PUSH2 0x38E9 JUMP JUMPDEST JUMPDEST DUP2 CALLDATALOAD PUSH2 0x3AEE DUP5 DUP3 PUSH1 0x20 DUP7 ADD PUSH2 0x3A89 JUMP JUMPDEST SWAP2 POP POP SWAP3 SWAP2 POP POP JUMP JUMPDEST PUSH0 DUP1 PUSH1 0x40 DUP4 DUP6 SUB SLT ISZERO PUSH2 0x3B0D JUMPI PUSH2 0x3B0C PUSH2 0x3820 JUMP JUMPDEST JUMPDEST PUSH0 PUSH2 0x3B1A DUP6 DUP3 DUP7 ADD PUSH2 0x39AB JUMP JUMPDEST SWAP3 POP POP PUSH1 0x20 DUP4 ADD CALLDATALOAD PUSH8 0xFFFFFFFFFFFFFFFF DUP2 GT ISZERO PUSH2 0x3B3B JUMPI PUSH2 0x3B3A PUSH2 0x3824 JUMP JUMPDEST JUMPDEST PUSH2 0x3B47 DUP6 DUP3 DUP7 ADD PUSH2 0x3ACA JUMP JUMPDEST SWAP2 POP POP SWAP3 POP SWAP3 SWAP1 POP JUMP JUMPDEST PUSH0 DUP2 SWAP1 POP SWAP2 SWAP1 POP JUMP JUMPDEST PUSH2 0x3B63 DUP2 PUSH2 0x3B51 JUMP JUMPDEST DUP3 MSTORE POP POP JUMP JUMPDEST PUSH0 PUSH1 0x20 DUP3 ADD SWAP1 POP PUSH2 0x3B7C PUSH0 DUP4 ADD DUP5 PUSH2 0x3B5A JUMP JUMPDEST SWAP3 SWAP2 POP POP JUMP JUMPDEST PUSH0 DUP1 PUSH1 0x40 DUP4 DUP6 SUB SLT ISZERO PUSH2 0x3B98 JUMPI PUSH2 0x3B97 PUSH2 0x3820 JUMP JUMPDEST JUMPDEST PUSH0 PUSH2 0x3BA5 DUP6 DUP3 DUP7 ADD PUSH2 0x383E JUMP JUMPDEST SWAP3 POP POP PUSH1 0x20 PUSH2 0x3BB6 DUP6 DUP3 DUP7 ADD PUSH2 0x383E JUMP JUMPDEST SWAP2 POP POP SWAP3 POP SWAP3 SWAP1 POP JUMP JUMPDEST PUSH0 DUP2 MLOAD SWAP1 POP SWAP2 SWAP1 POP JUMP JUMPDEST PUSH0 DUP3 DUP3 MSTORE PUSH1 0x20 DUP3 ADD SWAP1 POP SWAP3 SWAP2 POP POP JUMP JUMPDEST DUP3 DUP2 DUP4 MCOPY PUSH0 DUP4 DUP4 ADD MSTORE POP POP POP JUMP JUMPDEST PUSH0 PUSH2 0x3BF2 DUP3 PUSH2 0x3BC0 JUMP JUMPDEST PUSH2 0x3BFC DUP2 DUP6 PUSH2 0x3BCA JUMP JUMPDEST SWAP4 POP PUSH2 0x3C0C DUP2 DUP6 PUSH1 0x20 DUP7 ADD PUSH2 0x3BDA JUMP JUMPDEST PUSH2 0x3C15 DUP2 PUSH2 0x39C3 JUMP JUMPDEST DUP5 ADD SWAP2 POP POP SWAP3 SWAP2 POP POP JUMP JUMPDEST PUSH0 PUSH1 0x40 DUP3 ADD SWAP1 POP PUSH2 0x3C33 PUSH0 DUP4 ADD DUP6 PUSH2 0x38C1 JUMP JUMPDEST DUP2 DUP2 SUB PUSH1 0x20 DUP4 ADD MSTORE PUSH2 0x3C45 DUP2 DUP5 PUSH2 0x3BE8 JUMP JUMPDEST SWAP1 POP SWAP4 SWAP3 POP POP POP JUMP JUMPDEST PUSH0 DUP2 MLOAD SWAP1 POP SWAP2 SWAP1 POP JUMP JUMPDEST PUSH0 DUP3 DUP3 MSTORE PUSH1 0x20 DUP3 ADD SWAP1 POP SWAP3 SWAP2 POP POP JUMP JUMPDEST PUSH0 PUSH2 0x3C72 DUP3 PUSH2 0x3C4E JUMP JUMPDEST PUSH2 0x3C7C DUP2 DUP6 PUSH2 0x3C58 JUMP JUMPDEST SWAP4 POP PUSH2 0x3C8C DUP2 DUP6 PUSH1 0x20 DUP7 ADD PUSH2 0x3BDA JUMP JUMPDEST PUSH2 0x3C95 DUP2 PUSH2 0x39C3 JUMP JUMPDEST DUP5 ADD SWAP2 POP POP SWAP3 SWAP2 POP POP JUMP JUMPDEST PUSH0 PUSH1 0x20 DUP3 ADD SWAP1 POP DUP2 DUP2 SUB PUSH0 DUP4 ADD MSTORE PUSH2 0x3CB8 DUP2 DUP5 PUSH2 0x3C68 JUMP JUMPDEST SWAP1 POP SWAP3 SWAP2 POP POP JUMP JUMPDEST PUSH0 PUSH1 0x20 DUP3 DUP5 SUB SLT ISZERO PUSH2 0x3CD5 JUMPI PUSH2 0x3CD4 PUSH2 0x3820 JUMP JUMPDEST JUMPDEST PUSH0 PUSH2 0x3CE2 DUP5 DUP3 DUP6 ADD PUSH2 0x39AB JUMP JUMPDEST SWAP2 POP POP SWAP3 SWAP2 POP POP JUMP JUMPDEST PUSH0 PUSH1 0xC0 DUP3 ADD SWAP1 POP PUSH2 0x3CFE PUSH0 DUP4 ADD DUP10 PUSH2 0x38C1 JUMP JUMPDEST PUSH2 0x3D0B PUSH1 0x20 DUP4 ADD DUP9 PUSH2 0x375C JUMP JUMPDEST PUSH2 0x3D18 PUSH1 0x40 DUP4 ADD DUP8 PUSH2 0x375C JUMP JUMPDEST PUSH2 0x3D25 PUSH1 0x60 DUP4 ADD DUP7 PUSH2 0x375C JUMP JUMPDEST PUSH2 0x3D32 PUSH1 0x80 DUP4 ADD DUP6 PUSH2 0x375C JUMP JUMPDEST PUSH2 0x3D3F PUSH1 0xA0 DUP4 ADD DUP5 PUSH2 0x375C JUMP JUMPDEST SWAP8 SWAP7 POP POP POP POP POP POP POP JUMP JUMPDEST PUSH0 DUP1 PUSH0 PUSH1 0x60 DUP5 DUP7 SUB SLT ISZERO PUSH2 0x3D61 JUMPI PUSH2 0x3D60 PUSH2 0x3820 JUMP JUMPDEST JUMPDEST PUSH0 PUSH2 0x3D6E DUP7 DUP3 DUP8 ADD PUSH2 0x39AB JUMP JUMPDEST SWAP4 POP POP PUSH1 0x20 PUSH2 0x3D7F DUP7 DUP3 DUP8 ADD PUSH2 0x39AB JUMP JUMPDEST SWAP3 POP POP PUSH1 0x40 PUSH2 0x3D90 DUP7 DUP3 DUP8 ADD PUSH2 0x39AB JUMP JUMPDEST SWAP2 POP POP SWAP3 POP SWAP3 POP SWAP3 JUMP JUMPDEST PUSH2 0x3DA3 DUP2 PUSH2 0x38B6 JUMP JUMPDEST DUP2 EQ PUSH2 0x3DAD JUMPI PUSH0 DUP1 REVERT JUMPDEST POP JUMP JUMPDEST PUSH0 DUP2 CALLDATALOAD SWAP1 POP PUSH2 0x3DBE DUP2 PUSH2 0x3D9A JUMP JUMPDEST SWAP3 SWAP2 POP POP JUMP JUMPDEST PUSH0 DUP1 PUSH1 0x40 DUP4 DUP6 SUB SLT ISZERO PUSH2 0x3DDA JUMPI PUSH2 0x3DD9 PUSH2 0x3820 JUMP JUMPDEST JUMPDEST PUSH0 PUSH2 0x3DE7 DUP6 DUP3 DUP7 ADD PUSH2 0x39AB JUMP JUMPDEST SWAP3 POP POP PUSH1 0x20 PUSH2 0x3DF8 DUP6 DUP3 DUP7 ADD PUSH2 0x3DB0 JUMP JUMPDEST SWAP2 POP POP SWAP3 POP SWAP3 SWAP1 POP JUMP JUMPDEST PUSH32 0x4E487B7100000000000000000000000000000000000000000000000000000000 PUSH0 MSTORE PUSH1 0x11 PUSH1 0x4 MSTORE PUSH1 0x24 PUSH0 REVERT JUMPDEST PUSH0 PUSH2 0x3E39 DUP3 PUSH2 0x3753 JUMP JUMPDEST SWAP2 POP PUSH32 0xFFFFFFFFFFFFFFFFFFFFFFFFFFFFFFFFFFFFFFFFFFFFFFFFFFFFFFFFFFFFFFFF DUP3 SUB PUSH2 0x3E6B JUMPI PUSH2 0x3E6A PUSH2 0x3E02 JUMP JUMPDEST JUMPDEST PUSH1 0x1 DUP3 ADD SWAP1 POP SWAP2 SWAP1 POP JUMP JUMPDEST PUSH0 PUSH2 0x3E80 DUP3 PUSH2 0x3753 JUMP JUMPDEST SWAP2 POP PUSH0 DUP3 SUB PUSH2 0x3E92 JUMPI PUSH2 0x3E91 PUSH2 0x3E02 JUMP JUMPDEST JUMPDEST PUSH1 0x1 DUP3 SUB SWAP1 POP SWAP2 SWAP1 POP JUMP JUMPDEST PUSH0 PUSH2 0x3EA7 DUP3 PUSH2 0x3753 JUMP JUMPDEST SWAP2 POP PUSH2 0x3EB2 DUP4 PUSH2 0x3753 JUMP JUMPDEST SWAP3 POP DUP3 DUP3 SUB SWAP1 POP DUP2 DUP2 GT ISZERO PUSH2 0x3ECA JUMPI PUSH2 0x3EC9 PUSH2 0x3E02 JUMP JUMPDEST JUMPDEST SWAP3 SWAP2 POP POP JUMP JUMPDEST PUSH0 PUSH1 0x60 DUP3 ADD SWAP1 POP PUSH2 0x3EE3 PUSH0 DUP4 ADD DUP7 PUSH2 0x375C JUMP JUMPDEST PUSH2 0x3EF0 PUSH1 0x20 DUP4 ADD DUP6 PUSH2 0x375C JUMP JUMPDEST PUSH2 0x3EFD PUSH1 0x40 DUP4 ADD DUP5 PUSH2 0x375C JUMP JUMPDEST SWAP5 SWAP4 POP POP POP POP JUMP JUMPDEST PUSH32 0x54686973206164647265737320646F6573206E6F742068617665207065726D69 PUSH0 DUP3 ADD MSTORE PUSH32 0x7373696F6E20746F2063616C6C20706572666F726D55706B6565700000000000 PUSH1 0x20 DUP3 ADD MSTORE POP JUMP JUMPDEST PUSH0 PUSH2 0x3F5F PUSH1 0x3B DUP4 PUSH2 0x3C58 JUMP JUMPDEST SWAP2 POP PUSH2 0x3F6A DUP3 PUSH2 0x3F05 JUMP JUMPDEST PUSH1 0x40 DUP3 ADD SWAP1 POP SWAP2 SWAP1 POP JUMP JUMPDEST PUSH0 PUSH1 0x20 DUP3 ADD SWAP1 POP DUP2 DUP2 SUB PUSH0 DUP4 ADD MSTORE PUSH2 0x3F8C DUP2 PUSH2 0x3F53 JUMP JUMPDEST SWAP1 POP SWAP2 SWAP1 POP JUMP JUMPDEST PUSH0 PUSH2 0x3F9D DUP3 PUSH2 0x3753 JUMP JUMPDEST SWAP2 POP PUSH2 0x3FA8 DUP4 PUSH2 0x3753 JUMP JUMPDEST SWAP3 POP DUP3 DUP3 ADD SWAP1 POP DUP1 DUP3 GT ISZERO PUSH2 0x3FC0 JUMPI PUSH2 0x3FBF PUSH2 0x3E02 JUMP JUMPDEST JUMPDEST SWAP3 SWAP2 POP POP JUMP JUMPDEST PUSH0 PUSH1 0x60 DUP3 ADD SWAP1 POP PUSH2 0x3FD9 PUSH0 DUP4 ADD DUP7 PUSH2 0x388E JUMP JUMPDEST PUSH2 0x3FE6 PUSH1 0x20 DUP4 ADD DUP6 PUSH2 0x388E JUMP JUMPDEST PUSH2 0x3FF3 PUSH1 0x40 DUP4 ADD DUP5 PUSH2 0x375C JUMP JUMPDEST SWAP5 SWAP4 POP POP POP POP JUMP JUMPDEST PUSH0 DUP2 MLOAD SWAP1 POP PUSH2 0x4009 DUP2 PUSH2 0x3D9A JUMP JUMPDEST SWAP3 SWAP2 POP POP JUMP JUMPDEST PUSH0 PUSH1 0x20 DUP3 DUP5 SUB SLT ISZERO PUSH2 0x4024 JUMPI PUSH2 0x4023 PUSH2 0x3820 JUMP JUMPDEST JUMPDEST PUSH0 PUSH2 0x4031 DUP5 DUP3 DUP6 ADD PUSH2 0x3FFB JUMP JUMPDEST SWAP2 POP POP SWAP3 SWAP2 POP POP JUMP JUMPDEST PUSH0 PUSH1 0x60 DUP3 ADD SWAP1 POP PUSH2 0x404D PUSH0 DUP4 ADD DUP7 PUSH2 0x388E JUMP JUMPDEST PUSH2 0x405A PUSH1 0x20 DUP4 ADD DUP6 PUSH2 0x375C JUMP JUMPDEST PUSH2 0x4067 PUSH1 0x40 DUP4 ADD DUP5 PUSH2 0x375C JUMP JUMPDEST SWAP5 SWAP4 POP POP POP POP JUMP JUMPDEST PUSH0 PUSH1 0x40 DUP3 ADD SWAP1 POP PUSH2 0x4082 PUSH0 DUP4 ADD DUP6 PUSH2 0x388E JUMP JUMPDEST PUSH2 0x408F PUSH1 0x20 DUP4 ADD DUP5 PUSH2 0x375C JUMP JUMPDEST SWAP4 SWAP3 POP POP POP JUMP JUMPDEST PUSH32 0x5265656E7472616E637947756172643A207265656E7472616E742063616C6C00 PUSH0 DUP3 ADD MSTORE POP JUMP JUMPDEST PUSH0 PUSH2 0x40CA PUSH1 0x1F DUP4 PUSH2 0x3C58 JUMP JUMPDEST SWAP2 POP PUSH2 0x40D5 DUP3 PUSH2 0x4096 JUMP JUMPDEST PUSH1 0x20 DUP3 ADD SWAP1 POP SWAP2 SWAP1 POP JUMP JUMPDEST PUSH0 PUSH1 0x20 DUP3 ADD SWAP1 POP DUP2 DUP2 SUB PUSH0 DUP4 ADD MSTORE PUSH2 0x40F7 DUP2 PUSH2 0x40BE JUMP JUMPDEST SWAP1 POP SWAP2 SWAP1 POP JUMP JUMPDEST PUSH32 0x696E76616C6964205F616D6F756E742100000000000000000000000000000000 PUSH0 DUP3 ADD MSTORE POP JUMP JUMPDEST PUSH0 PUSH2 0x4132 PUSH1 0x10 DUP4 PUSH2 0x3C58 JUMP JUMPDEST SWAP2 POP PUSH2 0x413D DUP3 PUSH2 0x40FE JUMP JUMPDEST PUSH1 0x20 DUP3 ADD SWAP1 POP SWAP2 SWAP1 POP JUMP JUMPDEST PUSH0 PUSH1 0x20 DUP3 ADD SWAP1 POP DUP2 DUP2 SUB PUSH0 DUP4 ADD MSTORE PUSH2 0x415F DUP2 PUSH2 0x4126 JUMP JUMPDEST SWAP1 POP SWAP2 SWAP1 POP JUMP JUMPDEST PUSH0 PUSH1 0x40 DUP3 ADD SWAP1 POP PUSH2 0x4179 PUSH0 DUP4 ADD DUP6 PUSH2 0x375C JUMP JUMPDEST PUSH2 0x4186 PUSH1 0x20 DUP4 ADD DUP5 PUSH2 0x375C JUMP JUMPDEST SWAP4 SWAP3 POP POP POP JUMP JUMPDEST PUSH0 DUP2 SWAP1 POP SWAP2 SWAP1 POP JUMP JUMPDEST PUSH0 PUSH8 0xFFFFFFFFFFFFFFFF DUP3 AND SWAP1 POP SWAP2 SWAP1 POP JUMP JUMPDEST PUSH0 PUSH2 0x41C3 PUSH2 0x41BE PUSH2 0x41B9 DUP5 PUSH2 0x418D JUMP JUMPDEST PUSH2 0x37A3 JUMP JUMPDEST PUSH2 0x4196 JUMP JUMPDEST SWAP1 POP SWAP2 SWAP1 POP JUMP JUMPDEST PUSH2 0x41D3 DUP2 PUSH2 0x41A9 JUMP JUMPDEST DUP3 MSTORE POP POP JUMP JUMPDEST PUSH0 PUSH1 0x20 DUP3 ADD SWAP1 POP PUSH2 0x41EC PUSH0 DUP4 ADD DUP5 PUSH2 0x41CA JUMP JUMPDEST SWAP3 SWAP2 POP POP JUMP JUMPDEST PUSH0 PUSH1 0x40 DUP3 ADD SWAP1 POP PUSH2 0x4205 PUSH0 DUP4 ADD DUP6 PUSH2 0x388E JUMP JUMPDEST PUSH2 0x4212 PUSH1 0x20 DUP4 ADD DUP5 PUSH2 0x388E JUMP JUMPDEST SWAP4 SWAP3 POP POP POP JUMP JUMPDEST PUSH0 PUSH1 0x60 DUP3 ADD SWAP1 POP PUSH2 0x422C PUSH0 DUP4 ADD DUP7 PUSH2 0x388E JUMP JUMPDEST PUSH2 0x4239 PUSH1 0x20 DUP4 ADD DUP6 PUSH2 0x388E JUMP JUMPDEST PUSH2 0x4246 PUSH1 0x40 DUP4 ADD DUP5 PUSH2 0x38C1 JUMP JUMPDEST SWAP5 SWAP4 POP POP POP POP JUMP JUMPDEST PUSH32 0x6E6F7420656E6F75676820616D6F756E74000000000000000000000000000000 PUSH0 DUP3 ADD MSTORE POP JUMP JUMPDEST PUSH0 PUSH2 0x4282 PUSH1 0x11 DUP4 PUSH2 0x3C58 JUMP JUMPDEST SWAP2 POP PUSH2 0x428D DUP3 PUSH2 0x424E JUMP JUMPDEST PUSH1 0x20 DUP3 ADD SWAP1 POP SWAP2 SWAP1 POP JUMP JUMPDEST PUSH0 PUSH1 0x20 DUP3 ADD SWAP1 POP DUP2 DUP2 SUB PUSH0 DUP4 ADD MSTORE PUSH2 0x42AF DUP2 PUSH2 0x4276 JUMP JUMPDEST SWAP1 POP SWAP2 SWAP1 POP JUMP JUMPDEST PUSH0 PUSH2 0x42C0 DUP3 PUSH2 0x3753 JUMP JUMPDEST SWAP2 POP PUSH2 0x42CB DUP4 PUSH2 0x3753 JUMP JUMPDEST SWAP3 POP DUP3 DUP3 MUL PUSH2 0x42D9 DUP2 PUSH2 0x3753 JUMP JUMPDEST SWAP2 POP DUP3 DUP3 DIV DUP5 EQ DUP4 ISZERO OR PUSH2 0x42F0 JUMPI PUSH2 0x42EF PUSH2 0x3E02 JUMP JUMPDEST JUMPDEST POP SWAP3 SWAP2 POP POP JUMP JUMPDEST PUSH32 0x4E487B7100000000000000000000000000000000000000000000000000000000 PUSH0 MSTORE PUSH1 0x12 PUSH1 0x4 MSTORE PUSH1 0x24 PUSH0 REVERT JUMPDEST PUSH0 PUSH2 0x432E DUP3 PUSH2 0x3753 JUMP JUMPDEST SWAP2 POP PUSH2 0x4339 DUP4 PUSH2 0x3753 JUMP JUMPDEST SWAP3 POP DUP3 PUSH2 0x4349 JUMPI PUSH2 0x4348 PUSH2 0x42F7 JUMP JUMPDEST JUMPDEST DUP3 DUP3 DIV SWAP1 POP SWAP3 SWAP2 POP POP JUMP JUMPDEST PUSH32 0x416D6F756E742069732067726561746572207468656E20353025000000000000 PUSH0 DUP3 ADD MSTORE POP JUMP JUMPDEST PUSH0 PUSH2 0x4388 PUSH1 0x1A DUP4 PUSH2 0x3C58 JUMP JUMPDEST SWAP2 POP PUSH2 0x4393 DUP3 PUSH2 0x4354 JUMP JUMPDEST PUSH1 0x20 DUP3 ADD SWAP1 POP SWAP2 SWAP1 POP JUMP JUMPDEST PUSH0 PUSH1 0x20 DUP3 ADD SWAP1 POP DUP2 DUP2 SUB PUSH0 DUP4 ADD MSTORE PUSH2 0x43B5 DUP2 PUSH2 0x437C JUMP JUMPDEST SWAP1 POP SWAP2 SWAP1 POP JUMP JUMPDEST PUSH2 0x43C5 DUP2 PUSH2 0x3B51 JUMP JUMPDEST DUP2 EQ PUSH2 0x43CF JUMPI PUSH0 DUP1 REVERT JUMPDEST POP JUMP JUMPDEST PUSH0 DUP2 MLOAD SWAP1 POP PUSH2 0x43E0 DUP2 PUSH2 0x43BC JUMP JUMPDEST SWAP3 SWAP2 POP POP JUMP JUMPDEST PUSH0 PUSH1 0x20 DUP3 DUP5 SUB SLT ISZERO PUSH2 0x43FB JUMPI PUSH2 0x43FA PUSH2 0x3820 JUMP JUMPDEST JUMPDEST PUSH0 PUSH2 0x4408 DUP5 DUP3 DUP6 ADD PUSH2 0x43D2 JUMP JUMPDEST SWAP2 POP POP SWAP3 SWAP2 POP POP JUMP JUMPDEST PUSH32 0x6E6F207573657273210000000000000000000000000000000000000000000000 PUSH0 DUP3 ADD MSTORE POP JUMP JUMPDEST PUSH0 PUSH2 0x4445 PUSH1 0x9 DUP4 PUSH2 0x3C58 JUMP JUMPDEST SWAP2 POP PUSH2 0x4450 DUP3 PUSH2 0x4411 JUMP JUMPDEST PUSH1 0x20 DUP3 ADD SWAP1 POP SWAP2 SWAP1 POP JUMP JUMPDEST PUSH0 PUSH1 0x20 DUP3 ADD SWAP1 POP DUP2 DUP2 SUB PUSH0 DUP4 ADD MSTORE PUSH2 0x4472 DUP2 PUSH2 0x4439 JUMP JUMPDEST SWAP1 POP SWAP2 SWAP1 POP JUMP JUMPDEST PUSH32 0x5F746F74616C5374616B65416D6F756E742063616E206E6F74206265207A6572 PUSH0 DUP3 ADD MSTORE PUSH32 0x6F00000000000000000000000000000000000000000000000000000000000000 PUSH1 0x20 DUP3 ADD MSTORE POP JUMP JUMPDEST PUSH0 PUSH2 0x44D3 PUSH1 0x21 DUP4 PUSH2 0x3C58 JUMP JUMPDEST SWAP2 POP PUSH2 0x44DE DUP3 PUSH2 0x4479 JUMP JUMPDEST PUSH1 0x40 DUP3 ADD SWAP1 POP SWAP2 SWAP1 POP JUMP JUMPDEST PUSH0 PUSH1 0x20 DUP3 ADD SWAP1 POP DUP2 DUP2 SUB PUSH0 DUP4 ADD MSTORE PUSH2 0x4500 DUP2 PUSH2 0x44C7 JUMP JUMPDEST SWAP1 POP SWAP2 SWAP1 POP JUMP JUMPDEST PUSH0 DUP2 SWAP1 POP SWAP3 SWAP2 POP POP JUMP JUMPDEST PUSH0 PUSH2 0x451B DUP3 PUSH2 0x3BC0 JUMP JUMPDEST PUSH2 0x4525 DUP2 DUP6 PUSH2 0x4507 JUMP JUMPDEST SWAP4 POP PUSH2 0x4535 DUP2 DUP6 PUSH1 0x20 DUP7 ADD PUSH2 0x3BDA JUMP JUMPDEST DUP1 DUP5 ADD SWAP2 POP POP SWAP3 SWAP2 POP POP JUMP JUMPDEST PUSH0 PUSH2 0x454C DUP3 DUP5 PUSH2 0x4511 JUMP JUMPDEST SWAP2 POP DUP2 SWAP1 POP SWAP3 SWAP2 POP POP JUMP INVALID LOG2 PUSH5 0x6970667358 0x22 SLT KECCAK256 RETURN PUSH2 0x50C7 0xFB MSTORE8 DUP12 PUSH24 0xD53823601C8489E67D6E39B440BCBACE7DAE24BF482151B9 PUSH5 0x736F6C6343 STOP ADDMOD BYTE STOP CALLER "
				},
				"gasEstimates": {
					"creation": {
						"codeDepositCost": "3561000",
						"executionCost": "infinite",
						"totalCost": "infinite"
					},
					"external": {
						"UPGRADE_INTERFACE_VERSION()": "infinite",
						"addFunds(uint256,uint256)": "infinite",
						"addOwnership(uint256)": "infinite",
						"addProjects(uint256)": "infinite",
						"addTreasuery(uint256)": "infinite",
						"alreadyAdded(address)": "2966",
						"blockUser(address,bool)": "infinite",
						"checkOnce()": "2563",
						"checkUpkeep(bytes)": "infinite",
						"flowToTreasuryPercentage()": "2580",
						"initialize(address,address,address)": "infinite",
						"interval()": "2492",
						"lastTimeStamp()": "2559",
						"maintainceFeePercentage()": "2537",
						"multisigAddress()": "2642",
						"noOfUsers()": "2472",
						"odividentPayoutPercentage()": "2581",
						"off()": "infinite",
						"owner()": "2612",
						"ownerShipPoolAmount()": "2470",
						"performUpkeep(bytes)": "infinite",
						"proxiableUUID()": "infinite",
						"reStakeTokens(uint256)": "infinite",
						"renounceOwnership()": "infinite",
						"s_forwarderAddress()": "2643",
						"setForwarderAddress(address)": "infinite",
						"setInterval(uint256,uint256)": "infinite",
						"setTeasueryPercentages(uint256,uint256)": "infinite",
						"setflowToTreasuryPercentage(uint256)": "infinite",
						"setmaintainceFeePercentage(uint256)": "infinite",
						"setodividentPayoutPercentage(uint256)": "infinite",
						"settdividentPayoutPercentage(uint256)": "infinite",
						"stakeTokens(uint256)": "infinite",
						"startingTime()": "2515",
						"tPPercentages(uint256)": "infinite",
						"tdividentPayoutPercentage()": "2493",
						"totalProjects()": "2514",
						"totalStakedAmount()": "2581",
						"totalUsers(uint256)": "2938",
						"transferOwnership(address)": "infinite",
						"treasuryPoolAmount()": "2516",
						"upgradeToAndCall(address,bytes)": "infinite",
						"usdcToken()": "infinite",
						"userRegistered(address)": "infinite",
						"userWithdrawAmoount(uint256)": "infinite",
						"weeklyTransfer()": "infinite"
					},
					"internal": {
						"_authorizeUpgrade(address)": "infinite",
						"calculateFees(uint256,uint256)": "infinite",
						"calculatePercentage(uint256,uint256)": "infinite",
						"perPoolCalculation()": "infinite"
					}
				},
				"methodIdentifiers": {
					"UPGRADE_INTERFACE_VERSION()": "ad3cb1cc",
					"addFunds(uint256,uint256)": "85f45250",
					"addOwnership(uint256)": "78fd078d",
					"addProjects(uint256)": "2765df7a",
					"addTreasuery(uint256)": "5256dbbf",
					"alreadyAdded(address)": "c7fd5bf0",
					"blockUser(address,bool)": "d9b998b4",
					"checkOnce()": "30e3f8f8",
					"checkUpkeep(bytes)": "6e04ff0d",
					"flowToTreasuryPercentage()": "ce356a24",
					"initialize(address,address,address)": "c0c53b8b",
					"interval()": "947a36fb",
					"lastTimeStamp()": "3f3b3b27",
					"maintainceFeePercentage()": "3a71a9e4",
					"multisigAddress()": "5462870d",
					"noOfUsers()": "01934a83",
					"odividentPayoutPercentage()": "44490ff4",
					"off()": "6626b26d",
					"owner()": "8da5cb5b",
					"ownerShipPoolAmount()": "b47ff951",
					"performUpkeep(bytes)": "4585e33b",
					"proxiableUUID()": "52d1902d",
					"reStakeTokens(uint256)": "7ffe4d93",
					"renounceOwnership()": "715018a6",
					"s_forwarderAddress()": "3070fbf8",
					"setForwarderAddress(address)": "d777cc6d",
					"setInterval(uint256,uint256)": "5f17e616",
					"setTeasueryPercentages(uint256,uint256)": "ed061067",
					"setflowToTreasuryPercentage(uint256)": "ad8e5ec4",
					"setmaintainceFeePercentage(uint256)": "7f111e60",
					"setodividentPayoutPercentage(uint256)": "b9dac1eb",
					"settdividentPayoutPercentage(uint256)": "7f70c5e7",
					"stakeTokens(uint256)": "7547c7a3",
					"startingTime()": "39518b5e",
					"tPPercentages(uint256)": "ff3d65d9",
					"tdividentPayoutPercentage()": "33244c2c",
					"totalProjects()": "9c361e4e",
					"totalStakedAmount()": "567e98f9",
					"totalUsers(uint256)": "a4f67b8b",
					"transferOwnership(address)": "f2fde38b",
					"treasuryPoolAmount()": "188e07b9",
					"upgradeToAndCall(address,bytes)": "4f1ef286",
					"usdcToken()": "11eac855",
					"userRegistered(address)": "bccbc36c",
					"userWithdrawAmoount(uint256)": "67976974",
					"weeklyTransfer()": "e9c68e2c"
				}
			},
			"storageLayout": {
				"storage": [
					{
						"astId": 1436,
						"contract": "DripWarrior/poolContract.sol:PoolContrcat",
						"label": "usdcToken",
						"offset": 0,
						"slot": "0",
						"type": "t_contract(IBEP20)1425"
					},
					{
						"astId": 1438,
						"contract": "DripWarrior/poolContract.sol:PoolContrcat",
						"label": "treasuryPoolAmount",
						"offset": 0,
						"slot": "1",
						"type": "t_uint256"
					},
					{
						"astId": 1440,
						"contract": "DripWarrior/poolContract.sol:PoolContrcat",
						"label": "ownerShipPoolAmount",
						"offset": 0,
						"slot": "2",
						"type": "t_uint256"
					},
					{
						"astId": 1442,
						"contract": "DripWarrior/poolContract.sol:PoolContrcat",
						"label": "totalStakedAmount",
						"offset": 0,
						"slot": "3",
						"type": "t_uint256"
					},
					{
						"astId": 1444,
						"contract": "DripWarrior/poolContract.sol:PoolContrcat",
						"label": "tdividentPayoutPercentage",
						"offset": 0,
						"slot": "4",
						"type": "t_uint256"
					},
					{
						"astId": 1446,
						"contract": "DripWarrior/poolContract.sol:PoolContrcat",
						"label": "odividentPayoutPercentage",
						"offset": 0,
						"slot": "5",
						"type": "t_uint256"
					},
					{
						"astId": 1448,
						"contract": "DripWarrior/poolContract.sol:PoolContrcat",
						"label": "flowToTreasuryPercentage",
						"offset": 0,
						"slot": "6",
						"type": "t_uint256"
					},
					{
						"astId": 1450,
						"contract": "DripWarrior/poolContract.sol:PoolContrcat",
						"label": "maintainceFeePercentage",
						"offset": 0,
						"slot": "7",
						"type": "t_uint256"
					},
					{
						"astId": 1452,
						"contract": "DripWarrior/poolContract.sol:PoolContrcat",
						"label": "noOfUsers",
						"offset": 0,
						"slot": "8",
						"type": "t_uint256"
					},
					{
						"astId": 1454,
						"contract": "DripWarrior/poolContract.sol:PoolContrcat",
						"label": "multisigAddress",
						"offset": 0,
						"slot": "9",
						"type": "t_address"
					},
					{
						"astId": 1456,
						"contract": "DripWarrior/poolContract.sol:PoolContrcat",
						"label": "checkOnce",
						"offset": 20,
						"slot": "9",
						"type": "t_bool"
					},
					{
						"astId": 1458,
						"contract": "DripWarrior/poolContract.sol:PoolContrcat",
						"label": "locked",
						"offset": 21,
						"slot": "9",
						"type": "t_bool"
					},
					{
						"astId": 1460,
						"contract": "DripWarrior/poolContract.sol:PoolContrcat",
						"label": "interval",
						"offset": 0,
						"slot": "10",
						"type": "t_uint256"
					},
					{
						"astId": 1462,
						"contract": "DripWarrior/poolContract.sol:PoolContrcat",
						"label": "startingTime",
						"offset": 0,
						"slot": "11",
						"type": "t_uint256"
					},
					{
						"astId": 1464,
						"contract": "DripWarrior/poolContract.sol:PoolContrcat",
						"label": "lastTimeStamp",
						"offset": 0,
						"slot": "12",
						"type": "t_uint256"
					},
					{
						"astId": 1466,
						"contract": "DripWarrior/poolContract.sol:PoolContrcat",
						"label": "s_forwarderAddress",
						"offset": 0,
						"slot": "13",
						"type": "t_address"
					},
					{
						"astId": 1481,
						"contract": "DripWarrior/poolContract.sol:PoolContrcat",
						"label": "totalProjects",
						"offset": 0,
						"slot": "14",
						"type": "t_uint256"
					},
					{
						"astId": 1485,
						"contract": "DripWarrior/poolContract.sol:PoolContrcat",
						"label": "alreadyAdded",
						"offset": 0,
						"slot": "15",
						"type": "t_mapping(t_address,t_bool)"
					},
					{
						"astId": 1489,
						"contract": "DripWarrior/poolContract.sol:PoolContrcat",
						"label": "totalUsers",
						"offset": 0,
						"slot": "16",
						"type": "t_mapping(t_uint256,t_address)"
					},
					{
						"astId": 1493,
						"contract": "DripWarrior/poolContract.sol:PoolContrcat",
						"label": "tPPercentages",
						"offset": 0,
						"slot": "17",
						"type": "t_mapping(t_uint256,t_uint256)"
					},
					{
						"astId": 1498,
						"contract": "DripWarrior/poolContract.sol:PoolContrcat",
						"label": "userRegistered",
						"offset": 0,
						"slot": "18",
						"type": "t_mapping(t_address,t_struct(UserRegistered)1479_storage)"
					}
				],
				"types": {
					"t_address": {
						"encoding": "inplace",
						"label": "address",
						"numberOfBytes": "20"
					},
					"t_bool": {
						"encoding": "inplace",
						"label": "bool",
						"numberOfBytes": "1"
					},
					"t_contract(IBEP20)1425": {
						"encoding": "inplace",
						"label": "contract IBEP20",
						"numberOfBytes": "20"
					},
					"t_mapping(t_address,t_bool)": {
						"encoding": "mapping",
						"key": "t_address",
						"label": "mapping(address => bool)",
						"numberOfBytes": "32",
						"value": "t_bool"
					},
					"t_mapping(t_address,t_struct(UserRegistered)1479_storage)": {
						"encoding": "mapping",
						"key": "t_address",
						"label": "mapping(address => struct PoolContrcat.UserRegistered)",
						"numberOfBytes": "32",
						"value": "t_struct(UserRegistered)1479_storage"
					},
					"t_mapping(t_uint256,t_address)": {
						"encoding": "mapping",
						"key": "t_uint256",
						"label": "mapping(uint256 => address)",
						"numberOfBytes": "32",
						"value": "t_address"
					},
					"t_mapping(t_uint256,t_uint256)": {
						"encoding": "mapping",
						"key": "t_uint256",
						"label": "mapping(uint256 => uint256)",
						"numberOfBytes": "32",
						"value": "t_uint256"
					},
					"t_struct(UserRegistered)1479_storage": {
						"encoding": "inplace",
						"label": "struct PoolContrcat.UserRegistered",
						"members": [
							{
								"astId": 1468,
								"contract": "DripWarrior/poolContract.sol:PoolContrcat",
								"label": "blocked",
								"offset": 0,
								"slot": "0",
								"type": "t_bool"
							},
							{
								"astId": 1470,
								"contract": "DripWarrior/poolContract.sol:PoolContrcat",
								"label": "receivedAmount",
								"offset": 0,
								"slot": "1",
								"type": "t_uint256"
							},
							{
								"astId": 1472,
								"contract": "DripWarrior/poolContract.sol:PoolContrcat",
								"label": "withdrawAmount",
								"offset": 0,
								"slot": "2",
								"type": "t_uint256"
							},
							{
								"astId": 1474,
								"contract": "DripWarrior/poolContract.sol:PoolContrcat",
								"label": "receiveFromTreasury",
								"offset": 0,
								"slot": "3",
								"type": "t_uint256"
							},
							{
								"astId": 1476,
								"contract": "DripWarrior/poolContract.sol:PoolContrcat",
								"label": "receiveFromOwneerShip",
								"offset": 0,
								"slot": "4",
								"type": "t_uint256"
							},
							{
								"astId": 1478,
								"contract": "DripWarrior/poolContract.sol:PoolContrcat",
								"label": "totalStakedAmount",
								"offset": 0,
								"slot": "5",
								"type": "t_uint256"
							}
						],
						"numberOfBytes": "192"
					},
					"t_uint256": {
						"encoding": "inplace",
						"label": "uint256",
						"numberOfBytes": "32"
					}
				}
			},
			"userdoc": {
				"kind": "user",
				"methods": {},
				"version": 1
			}
		}
	}
}