{
	"DripWarrior/poolContract.sol": {
		"PoolContrcat": {
			"abi": [
				{
					"inputs": [],
					"stateMutability": "nonpayable",
					"type": "constructor"
				},
				{
					"inputs": [
						{
							"internalType": "address",
							"name": "target",
							"type": "address"
						}
					],
					"name": "AddressEmptyCode",
					"type": "error"
				},
				{
					"inputs": [
						{
							"internalType": "address",
							"name": "implementation",
							"type": "address"
						}
					],
					"name": "ERC1967InvalidImplementation",
					"type": "error"
				},
				{
					"inputs": [],
					"name": "ERC1967NonPayable",
					"type": "error"
				},
				{
					"inputs": [],
					"name": "FailedInnerCall",
					"type": "error"
				},
				{
					"inputs": [],
					"name": "InvalidInitialization",
					"type": "error"
				},
				{
					"inputs": [],
					"name": "NotInitializing",
					"type": "error"
				},
				{
					"inputs": [
						{
							"internalType": "address",
							"name": "owner",
							"type": "address"
						}
					],
					"name": "OwnableInvalidOwner",
					"type": "error"
				},
				{
					"inputs": [
						{
							"internalType": "address",
							"name": "account",
							"type": "address"
						}
					],
					"name": "OwnableUnauthorizedAccount",
					"type": "error"
				},
				{
					"inputs": [],
					"name": "UUPSUnauthorizedCallContext",
					"type": "error"
				},
				{
					"inputs": [
						{
							"internalType": "bytes32",
							"name": "slot",
							"type": "bytes32"
						}
					],
					"name": "UUPSUnsupportedProxiableUUID",
					"type": "error"
				},
				{
					"inputs": [
						{
							"internalType": "uint256",
							"name": "amount",
							"type": "uint256"
						}
					],
					"name": "notEnoughBalance",
					"type": "error"
				},
				{
					"inputs": [
						{
							"internalType": "bool",
							"name": "transfered",
							"type": "bool"
						}
					],
					"name": "transferFailed",
					"type": "error"
				},
				{
					"inputs": [
						{
							"internalType": "bool",
							"name": "blocked",
							"type": "bool"
						}
					],
					"name": "userBlocked",
					"type": "error"
				},
				{
					"inputs": [
						{
							"internalType": "address",
							"name": "wrongAddress",
							"type": "address"
						}
					],
					"name": "wrongAddress",
					"type": "error"
				},
				{
					"inputs": [
						{
							"internalType": "uint256",
							"name": "amount",
							"type": "uint256"
						}
					],
					"name": "wrongAmount",
					"type": "error"
				},
				{
					"inputs": [
						{
							"internalType": "uint256",
							"name": "updateInterval",
							"type": "uint256"
						}
					],
					"name": "wrongInterval",
					"type": "error"
				},
				{
					"inputs": [
						{
							"internalType": "address",
							"name": "owner",
							"type": "address"
						}
					],
					"name": "wrongOwner",
					"type": "error"
				},
				{
					"inputs": [
						{
							"internalType": "uint256",
							"name": "percentage",
							"type": "uint256"
						}
					],
					"name": "wrongPercentage",
					"type": "error"
				},
				{
					"inputs": [
						{
							"internalType": "uint256",
							"name": "projectNO",
							"type": "uint256"
						}
					],
					"name": "wrongProjectNo",
					"type": "error"
				},
				{
					"inputs": [
						{
							"internalType": "uint256",
							"name": "time",
							"type": "uint256"
						}
					],
					"name": "wrongTime",
					"type": "error"
				},
				{
					"inputs": [
						{
							"internalType": "bool",
							"name": "value",
							"type": "bool"
						}
					],
					"name": "wrongValue",
					"type": "error"
				},
				{
					"anonymous": false,
					"inputs": [
						{
							"indexed": false,
							"internalType": "uint256",
							"name": "_amount",
							"type": "uint256"
						},
						{
							"indexed": false,
							"internalType": "uint256",
							"name": "_projectNo",
							"type": "uint256"
						}
					],
					"name": "AddFunds",
					"type": "event"
				},
				{
					"anonymous": false,
					"inputs": [
						{
							"indexed": false,
							"internalType": "uint256",
							"name": "_ownerShipPoolAmount",
							"type": "uint256"
						}
					],
					"name": "AddOwnership",
					"type": "event"
				},
				{
					"anonymous": false,
					"inputs": [
						{
							"indexed": false,
							"internalType": "uint256",
							"name": "projectId",
							"type": "uint256"
						},
						{
							"indexed": false,
							"internalType": "uint256",
							"name": "OpPercentage",
							"type": "uint256"
						},
						{
							"indexed": false,
							"internalType": "uint256",
							"name": "tpPercentage",
							"type": "uint256"
						}
					],
					"name": "AddProject",
					"type": "event"
				},
				{
					"anonymous": false,
					"inputs": [
						{
							"indexed": false,
							"internalType": "uint256",
							"name": "_treasuryPoolAmount",
							"type": "uint256"
						}
					],
					"name": "AddTreasuery",
					"type": "event"
				},
				{
					"anonymous": false,
					"inputs": [
						{
							"indexed": false,
							"internalType": "uint64",
							"name": "version",
							"type": "uint64"
						}
					],
					"name": "Initialized",
					"type": "event"
				},
				{
					"anonymous": false,
					"inputs": [
						{
							"indexed": true,
							"internalType": "address",
							"name": "previousOwner",
							"type": "address"
						},
						{
							"indexed": true,
							"internalType": "address",
							"name": "newOwner",
							"type": "address"
						}
					],
					"name": "OwnershipTransferred",
					"type": "event"
				},
				{
					"anonymous": false,
					"inputs": [
						{
							"indexed": false,
							"internalType": "address",
							"name": "_owner",
							"type": "address"
						},
						{
							"indexed": false,
							"internalType": "uint256",
							"name": "_newPercentage",
							"type": "uint256"
						}
					],
					"name": "PercentageChanged",
					"type": "event"
				},
				{
					"anonymous": false,
					"inputs": [
						{
							"indexed": false,
							"internalType": "address",
							"name": "_owner",
							"type": "address"
						},
						{
							"indexed": false,
							"internalType": "address",
							"name": "_s_forwarderAddress",
							"type": "address"
						}
					],
					"name": "SetForwarderAddress",
					"type": "event"
				},
				{
					"anonymous": false,
					"inputs": [
						{
							"indexed": false,
							"internalType": "address",
							"name": "_owner",
							"type": "address"
						},
						{
							"indexed": false,
							"internalType": "uint256",
							"name": "_interval",
							"type": "uint256"
						},
						{
							"indexed": false,
							"internalType": "uint256",
							"name": "_lastTimeStamp",
							"type": "uint256"
						}
					],
					"name": "SetInterval",
					"type": "event"
				},
				{
					"anonymous": false,
					"inputs": [
						{
							"indexed": false,
							"internalType": "address",
							"name": "sender",
							"type": "address"
						},
						{
							"indexed": false,
							"internalType": "address",
							"name": "recepient",
							"type": "address"
						},
						{
							"indexed": false,
							"internalType": "uint256",
							"name": "usdcAmount",
							"type": "uint256"
						}
					],
					"name": "StakeTokens",
					"type": "event"
				},
				{
					"anonymous": false,
					"inputs": [
						{
							"indexed": true,
							"internalType": "address",
							"name": "implementation",
							"type": "address"
						}
					],
					"name": "Upgraded",
					"type": "event"
				},
				{
					"anonymous": false,
					"inputs": [
						{
							"indexed": false,
							"internalType": "address",
							"name": "owner",
							"type": "address"
						},
						{
							"indexed": false,
							"internalType": "address",
							"name": "blockUserAddress",
							"type": "address"
						},
						{
							"indexed": false,
							"internalType": "bool",
							"name": "blocked",
							"type": "bool"
						}
					],
					"name": "UserBlocked",
					"type": "event"
				},
				{
					"anonymous": false,
					"inputs": [
						{
							"indexed": false,
							"internalType": "address",
							"name": "caller",
							"type": "address"
						},
						{
							"indexed": false,
							"internalType": "uint256",
							"name": "ownerShipPoolAmount",
							"type": "uint256"
						},
						{
							"indexed": false,
							"internalType": "uint256",
							"name": "treasuryPoolAmount",
							"type": "uint256"
						}
					],
					"name": "WeeklyTransfered",
					"type": "event"
				},
				{
					"anonymous": false,
					"inputs": [
						{
							"indexed": false,
							"internalType": "address",
							"name": "recipient",
							"type": "address"
						},
						{
							"indexed": false,
							"internalType": "uint256",
							"name": "usdcAmount",
							"type": "uint256"
						}
					],
					"name": "Withdraw",
					"type": "event"
				},
				{
					"anonymous": false,
					"inputs": [
						{
							"indexed": false,
							"internalType": "address",
							"name": "_owner",
							"type": "address"
						},
						{
							"indexed": false,
							"internalType": "uint256",
							"name": "_interval",
							"type": "uint256"
						}
					],
					"name": "offInterval",
					"type": "event"
				},
				{
					"inputs": [],
					"name": "UPGRADE_INTERFACE_VERSION",
					"outputs": [
						{
							"internalType": "string",
							"name": "",
							"type": "string"
						}
					],
					"stateMutability": "view",
					"type": "function"
				},
				{
					"inputs": [
						{
							"internalType": "uint256",
							"name": "_amount",
							"type": "uint256"
						},
						{
							"internalType": "uint256",
							"name": "_projectNo",
							"type": "uint256"
						}
					],
					"name": "addFunds",
					"outputs": [],
					"stateMutability": "nonpayable",
					"type": "function"
				},
				{
					"inputs": [
						{
							"internalType": "uint256",
							"name": "_amount",
							"type": "uint256"
						}
					],
					"name": "addOwnership",
					"outputs": [],
					"stateMutability": "nonpayable",
					"type": "function"
				},
				{
					"inputs": [
						{
							"internalType": "uint256",
							"name": "_tPPercentage",
							"type": "uint256"
						}
					],
					"name": "addProjects",
					"outputs": [],
					"stateMutability": "nonpayable",
					"type": "function"
				},
				{
					"inputs": [
						{
							"internalType": "uint256",
							"name": "_amount",
							"type": "uint256"
						}
					],
					"name": "addTreasuery",
					"outputs": [],
					"stateMutability": "nonpayable",
					"type": "function"
				},
				{
					"inputs": [
						{
							"internalType": "address",
							"name": "",
							"type": "address"
						}
					],
					"name": "alreadyAdded",
					"outputs": [
						{
							"internalType": "bool",
							"name": "",
							"type": "bool"
						}
					],
					"stateMutability": "view",
					"type": "function"
				},
				{
					"inputs": [
						{
							"internalType": "address",
							"name": "_userAddress",
							"type": "address"
						},
						{
							"internalType": "bool",
							"name": "value",
							"type": "bool"
						}
					],
					"name": "blockUser",
					"outputs": [],
					"stateMutability": "nonpayable",
					"type": "function"
				},
				{
					"inputs": [],
					"name": "checkOnce",
					"outputs": [
						{
							"internalType": "bool",
							"name": "",
							"type": "bool"
						}
					],
					"stateMutability": "view",
					"type": "function"
				},
				{
					"inputs": [
						{
							"internalType": "bytes",
							"name": "",
							"type": "bytes"
						}
					],
					"name": "checkUpkeep",
					"outputs": [
						{
							"internalType": "bool",
							"name": "",
							"type": "bool"
						},
						{
							"internalType": "bytes",
							"name": "",
							"type": "bytes"
						}
					],
					"stateMutability": "view",
					"type": "function"
				},
				{
					"inputs": [],
					"name": "flowToTreasuryPercentage",
					"outputs": [
						{
							"internalType": "uint256",
							"name": "",
							"type": "uint256"
						}
					],
					"stateMutability": "view",
					"type": "function"
				},
				{
					"inputs": [
						{
							"internalType": "address",
							"name": "initialOwner",
							"type": "address"
						},
						{
							"internalType": "address",
							"name": "_usdcAddress",
							"type": "address"
						},
						{
							"internalType": "address",
							"name": "_multisigAddress",
							"type": "address"
						}
					],
					"name": "initialize",
					"outputs": [],
					"stateMutability": "nonpayable",
					"type": "function"
				},
				{
					"inputs": [],
					"name": "interval",
					"outputs": [
						{
							"internalType": "uint256",
							"name": "",
							"type": "uint256"
						}
					],
					"stateMutability": "view",
					"type": "function"
				},
				{
					"inputs": [],
					"name": "lastTimeStamp",
					"outputs": [
						{
							"internalType": "uint256",
							"name": "",
							"type": "uint256"
						}
					],
					"stateMutability": "view",
					"type": "function"
				},
				{
					"inputs": [],
					"name": "maintainceFeePercentage",
					"outputs": [
						{
							"internalType": "uint256",
							"name": "",
							"type": "uint256"
						}
					],
					"stateMutability": "view",
					"type": "function"
				},
				{
					"inputs": [],
					"name": "multisigAddress",
					"outputs": [
						{
							"internalType": "address",
							"name": "",
							"type": "address"
						}
					],
					"stateMutability": "view",
					"type": "function"
				},
				{
					"inputs": [],
					"name": "noOfUsers",
					"outputs": [
						{
							"internalType": "uint256",
							"name": "",
							"type": "uint256"
						}
					],
					"stateMutability": "view",
					"type": "function"
				},
				{
					"inputs": [],
					"name": "odividentPayoutPercentage",
					"outputs": [
						{
							"internalType": "uint256",
							"name": "",
							"type": "uint256"
						}
					],
					"stateMutability": "view",
					"type": "function"
				},
				{
					"inputs": [],
					"name": "off",
					"outputs": [],
					"stateMutability": "nonpayable",
					"type": "function"
				},
				{
					"inputs": [],
					"name": "owner",
					"outputs": [
						{
							"internalType": "address",
							"name": "",
							"type": "address"
						}
					],
					"stateMutability": "view",
					"type": "function"
				},
				{
					"inputs": [],
					"name": "ownerShipPoolAmount",
					"outputs": [
						{
							"internalType": "uint256",
							"name": "",
							"type": "uint256"
						}
					],
					"stateMutability": "view",
					"type": "function"
				},
				{
					"inputs": [
						{
							"internalType": "bytes",
							"name": "",
							"type": "bytes"
						}
					],
					"name": "performUpkeep",
					"outputs": [],
					"stateMutability": "nonpayable",
					"type": "function"
				},
				{
					"inputs": [],
					"name": "proxiableUUID",
					"outputs": [
						{
							"internalType": "bytes32",
							"name": "",
							"type": "bytes32"
						}
					],
					"stateMutability": "view",
					"type": "function"
				},
				{
					"inputs": [
						{
							"internalType": "uint256",
							"name": "_amount",
							"type": "uint256"
						}
					],
					"name": "reStakeTokens",
					"outputs": [],
					"stateMutability": "nonpayable",
					"type": "function"
				},
				{
					"inputs": [],
					"name": "realInterval",
					"outputs": [
						{
							"internalType": "uint256",
							"name": "",
							"type": "uint256"
						}
					],
					"stateMutability": "view",
					"type": "function"
				},
				{
					"inputs": [],
					"name": "renounceOwnership",
					"outputs": [],
					"stateMutability": "nonpayable",
					"type": "function"
				},
				{
					"inputs": [],
					"name": "s_forwarderAddress",
					"outputs": [
						{
							"internalType": "address",
							"name": "",
							"type": "address"
						}
					],
					"stateMutability": "view",
					"type": "function"
				},
				{
					"inputs": [
						{
							"internalType": "address",
							"name": "forwarderAddress",
							"type": "address"
						}
					],
					"name": "setForwarderAddress",
					"outputs": [],
					"stateMutability": "nonpayable",
					"type": "function"
				},
				{
					"inputs": [
						{
							"internalType": "uint256",
							"name": "_startingTime",
							"type": "uint256"
						},
						{
							"internalType": "uint256",
							"name": "updateInterval",
							"type": "uint256"
						}
					],
					"name": "setInterval",
					"outputs": [],
					"stateMutability": "nonpayable",
					"type": "function"
				},
				{
					"inputs": [
						{
							"internalType": "uint256",
							"name": "_projectId",
							"type": "uint256"
						},
						{
							"internalType": "uint256",
							"name": "_newPerccentage",
							"type": "uint256"
						}
					],
					"name": "setTeasueryPercentages",
					"outputs": [],
					"stateMutability": "nonpayable",
					"type": "function"
				},
				{
					"inputs": [
						{
							"internalType": "uint256",
							"name": "_newPerccentage",
							"type": "uint256"
						}
					],
					"name": "setflowToTreasuryPercentage",
					"outputs": [],
					"stateMutability": "nonpayable",
					"type": "function"
				},
				{
					"inputs": [
						{
							"internalType": "uint256",
							"name": "_newPerccentage",
							"type": "uint256"
						}
					],
					"name": "setmaintainceFeePercentage",
					"outputs": [],
					"stateMutability": "nonpayable",
					"type": "function"
				},
				{
					"inputs": [
						{
							"internalType": "uint256",
							"name": "_newPerccentage",
							"type": "uint256"
						}
					],
					"name": "setodividentPayoutPercentage",
					"outputs": [],
					"stateMutability": "nonpayable",
					"type": "function"
				},
				{
					"inputs": [
						{
							"internalType": "uint256",
							"name": "_newPerccentage",
							"type": "uint256"
						}
					],
					"name": "settdividentPayoutPercentage",
					"outputs": [],
					"stateMutability": "nonpayable",
					"type": "function"
				},
				{
					"inputs": [
						{
							"internalType": "uint256",
							"name": "_amount",
							"type": "uint256"
						}
					],
					"name": "stakeTokens",
					"outputs": [],
					"stateMutability": "nonpayable",
					"type": "function"
				},
				{
					"inputs": [],
					"name": "startingTime",
					"outputs": [
						{
							"internalType": "uint256",
							"name": "",
							"type": "uint256"
						}
					],
					"stateMutability": "view",
					"type": "function"
				},
				{
					"inputs": [
						{
							"internalType": "uint256",
							"name": "",
							"type": "uint256"
						}
					],
					"name": "tPPercentages",
					"outputs": [
						{
							"internalType": "uint256",
							"name": "",
							"type": "uint256"
						}
					],
					"stateMutability": "view",
					"type": "function"
				},
				{
					"inputs": [],
					"name": "tdividentPayoutPercentage",
					"outputs": [
						{
							"internalType": "uint256",
							"name": "",
							"type": "uint256"
						}
					],
					"stateMutability": "view",
					"type": "function"
				},
				{
					"inputs": [],
					"name": "totalProjects",
					"outputs": [
						{
							"internalType": "uint256",
							"name": "",
							"type": "uint256"
						}
					],
					"stateMutability": "view",
					"type": "function"
				},
				{
					"inputs": [],
					"name": "totalStakedAmount",
					"outputs": [
						{
							"internalType": "uint256",
							"name": "",
							"type": "uint256"
						}
					],
					"stateMutability": "view",
					"type": "function"
				},
				{
					"inputs": [
						{
							"internalType": "uint256",
							"name": "",
							"type": "uint256"
						}
					],
					"name": "totalUsers",
					"outputs": [
						{
							"internalType": "address",
							"name": "",
							"type": "address"
						}
					],
					"stateMutability": "view",
					"type": "function"
				},
				{
					"inputs": [
						{
							"internalType": "address",
							"name": "newOwner",
							"type": "address"
						}
					],
					"name": "transferOwnership",
					"outputs": [],
					"stateMutability": "nonpayable",
					"type": "function"
				},
				{
					"inputs": [],
					"name": "treasuryPoolAmount",
					"outputs": [
						{
							"internalType": "uint256",
							"name": "",
							"type": "uint256"
						}
					],
					"stateMutability": "view",
					"type": "function"
				},
				{
					"inputs": [
						{
							"internalType": "address",
							"name": "newImplementation",
							"type": "address"
						},
						{
							"internalType": "bytes",
							"name": "data",
							"type": "bytes"
						}
					],
					"name": "upgradeToAndCall",
					"outputs": [],
					"stateMutability": "payable",
					"type": "function"
				},
				{
					"inputs": [],
					"name": "usdcToken",
					"outputs": [
						{
							"internalType": "contract IBEP20",
							"name": "",
							"type": "address"
						}
					],
					"stateMutability": "view",
					"type": "function"
				},
				{
					"inputs": [
						{
							"internalType": "address",
							"name": "",
							"type": "address"
						}
					],
					"name": "userRegistered",
					"outputs": [
						{
							"internalType": "bool",
							"name": "blocked",
							"type": "bool"
						},
						{
							"internalType": "uint256",
							"name": "receivedAmount",
							"type": "uint256"
						},
						{
							"internalType": "uint256",
							"name": "withdrawAmount",
							"type": "uint256"
						},
						{
							"internalType": "uint256",
							"name": "receiveFromTreasury",
							"type": "uint256"
						},
						{
							"internalType": "uint256",
							"name": "receiveFromOwneerShip",
							"type": "uint256"
						},
						{
							"internalType": "uint256",
							"name": "totalStakedAmount",
							"type": "uint256"
						}
					],
					"stateMutability": "view",
					"type": "function"
				},
				{
					"inputs": [
						{
							"internalType": "uint256",
							"name": "_amount",
							"type": "uint256"
						}
					],
					"name": "userWithdrawAmoount",
					"outputs": [],
					"stateMutability": "nonpayable",
					"type": "function"
				},
				{
					"inputs": [],
					"name": "weeklyTransfer",
					"outputs": [],
					"stateMutability": "nonpayable",
					"type": "function"
				}
			],
			"devdoc": {
				"errors": {
					"AddressEmptyCode(address)": [
						{
							"details": "There's no code at `target` (it is not a contract)."
						}
					],
					"ERC1967InvalidImplementation(address)": [
						{
							"details": "The `implementation` of the proxy is invalid."
						}
					],
					"ERC1967NonPayable()": [
						{
							"details": "An upgrade function sees `msg.value > 0` that may be lost."
						}
					],
					"FailedInnerCall()": [
						{
							"details": "A call to an address target failed. The target may have reverted."
						}
					],
					"InvalidInitialization()": [
						{
							"details": "The contract is already initialized."
						}
					],
					"NotInitializing()": [
						{
							"details": "The contract is not initializing."
						}
					],
					"OwnableInvalidOwner(address)": [
						{
							"details": "The owner is not a valid owner account. (eg. `address(0)`)"
						}
					],
					"OwnableUnauthorizedAccount(address)": [
						{
							"details": "The caller account is not authorized to perform an operation."
						}
					],
					"UUPSUnauthorizedCallContext()": [
						{
							"details": "The call is from an unauthorized context."
						}
					],
					"UUPSUnsupportedProxiableUUID(bytes32)": [
						{
							"details": "The storage `slot` is unsupported as a UUID."
						}
					]
				},
				"events": {
					"Initialized(uint64)": {
						"details": "Triggered when the contract has been initialized or reinitialized."
					},
					"Upgraded(address)": {
						"details": "Emitted when the implementation is upgraded."
					}
				},
				"kind": "dev",
				"methods": {
					"constructor": {
						"custom:oz-upgrades-unsafe-allow": "constructor"
					},
					"owner()": {
						"details": "Returns the address of the current owner."
					},
					"proxiableUUID()": {
						"details": "Implementation of the ERC1822 {proxiableUUID} function. This returns the storage slot used by the implementation. It is used to validate the implementation's compatibility when performing an upgrade. IMPORTANT: A proxy pointing at a proxiable contract should not be considered proxiable itself, because this risks bricking a proxy that upgrades to it, by delegating to itself until out of gas. Thus it is critical that this function revert if invoked through a proxy. This is guaranteed by the `notDelegated` modifier."
					},
					"renounceOwnership()": {
						"details": "Leaves the contract without owner. It will not be possible to call `onlyOwner` functions. Can only be called by the current owner. NOTE: Renouncing ownership will leave the contract without an owner, thereby disabling any functionality that is only available to the owner."
					},
					"transferOwnership(address)": {
						"details": "Transfers ownership of the contract to a new account (`newOwner`). Can only be called by the current owner."
					},
					"upgradeToAndCall(address,bytes)": {
						"custom:oz-upgrades-unsafe-allow-reachable": "delegatecall",
						"details": "Upgrade the implementation of the proxy to `newImplementation`, and subsequently execute the function call encoded in `data`. Calls {_authorizeUpgrade}. Emits an {Upgraded} event."
					}
				},
				"version": 1
			},
			"evm": {
				"assembly": "    /* \"DripWarrior/poolContract.sol\":896:16549  contract PoolContrcat is Initializable, OwnableUpgradeable, UUPSUpgradeable, AutomationCompatibleInterface {... */\n  mstore(0x40, 0xa0)\n    /* \"@openzeppelin/contracts-upgradeable/proxy/utils/UUPSUpgradeable.sol\":1171:1175  this */\n  address\n    /* \"@openzeppelin/contracts-upgradeable/proxy/utils/UUPSUpgradeable.sol\":1128:1176  address private immutable __self = address(this) */\n  0x80\n  mstore\n    /* \"DripWarrior/poolContract.sol\":3622:3675  constructor() {... */\n  callvalue\n  dup1\n  iszero\n  tag_1\n  jumpi\n  0x00\n  dup1\n  revert\ntag_1:\n  pop\n    /* \"DripWarrior/poolContract.sol\":3646:3668  _disableInitializers() */\n  tag_4\n    /* \"DripWarrior/poolContract.sol\":3646:3666  _disableInitializers */\n  tag_5\n    /* \"DripWarrior/poolContract.sol\":3646:3668  _disableInitializers() */\n  jump\t// in\ntag_4:\n    /* \"DripWarrior/poolContract.sol\":896:16549  contract PoolContrcat is Initializable, OwnableUpgradeable, UUPSUpgradeable, AutomationCompatibleInterface {... */\n  jump(tag_15)\n    /* \"@openzeppelin/contracts-upgradeable/proxy/utils/Initializable.sol\":7711:8133  function _disableInitializers() internal virtual {... */\ntag_5:\n    /* \"@openzeppelin/contracts-upgradeable/proxy/utils/Initializable.sol\":8870:8891  INITIALIZABLE_STORAGE */\n  0xf0c57e16840df040f15088dc2f81fe391c3923bec73e23a9662efc9c229c6a00\n    /* \"@openzeppelin/contracts-upgradeable/proxy/utils/Initializable.sol\":7900:7915  $._initializing */\n  dup1\n  sload\n  0x010000000000000000\n  swap1\n  div\n  0xff\n  and\n    /* \"@openzeppelin/contracts-upgradeable/proxy/utils/Initializable.sol\":7896:7972  if ($._initializing) {... */\n  iszero\n  tag_10\n  jumpi\n    /* \"@openzeppelin/contracts-upgradeable/proxy/utils/Initializable.sol\":7938:7961  InvalidInitialization() */\n  mload(0x40)\n  shl(0xe0, 0xf92ee8a9)\n  dup2\n  mstore\n  0x04\n  add\n  mload(0x40)\n  dup1\n  swap2\n  sub\n  swap1\n  revert\n    /* \"@openzeppelin/contracts-upgradeable/proxy/utils/Initializable.sol\":7896:7972  if ($._initializing) {... */\ntag_10:\n    /* \"@openzeppelin/contracts-upgradeable/proxy/utils/Initializable.sol\":7985:7999  $._initialized */\n  dup1\n  sload\n  sub(shl(0x40, 0x01), 0x01)\n  swap1\n  dup2\n  and\n    /* \"@openzeppelin/contracts-upgradeable/proxy/utils/Initializable.sol\":7985:8019  $._initialized != type(uint64).max */\n  eq\n    /* \"@openzeppelin/contracts-upgradeable/proxy/utils/Initializable.sol\":7981:8127  if ($._initialized != type(uint64).max) {... */\n  tag_11\n  jumpi\n    /* \"@openzeppelin/contracts-upgradeable/proxy/utils/Initializable.sol\":8035:8068  $._initialized = type(uint64).max */\n  dup1\n  sload\n  not(sub(shl(0x40, 0x01), 0x01))\n  and\n  sub(shl(0x40, 0x01), 0x01)\n  swap1\n  dup2\n  or\n  dup3\n  sstore\n    /* \"@openzeppelin/contracts-upgradeable/proxy/utils/Initializable.sol\":8087:8116  Initialized(type(uint64).max) */\n  mload(0x40)\n    /* \"#utility.yul\":158:208   */\n  swap1\n  dup2\n  mstore\n    /* \"@openzeppelin/contracts-upgradeable/proxy/utils/Initializable.sol\":8087:8116  Initialized(type(uint64).max) */\n  0xc7f505b2f371ae2175ee4913f4499e1f2633a7b5936321eed1cdaeb6115181d2\n  swap1\n    /* \"#utility.yul\":146:148   */\n  0x20\n    /* \"#utility.yul\":131:149   */\n  add\n    /* \"@openzeppelin/contracts-upgradeable/proxy/utils/Initializable.sol\":8087:8116  Initialized(type(uint64).max) */\n  mload(0x40)\n  dup1\n  swap2\n  sub\n  swap1\n  log1\n    /* \"@openzeppelin/contracts-upgradeable/proxy/utils/Initializable.sol\":7981:8127  if ($._initialized != type(uint64).max) {... */\ntag_11:\n    /* \"@openzeppelin/contracts-upgradeable/proxy/utils/Initializable.sol\":7760:8133  {... */\n  pop\n    /* \"@openzeppelin/contracts-upgradeable/proxy/utils/Initializable.sol\":7711:8133  function _disableInitializers() internal virtual {... */\n  jump\t// out\n    /* \"#utility.yul\":14:214   */\ntag_15:\n    /* \"DripWarrior/poolContract.sol\":896:16549  contract PoolContrcat is Initializable, OwnableUpgradeable, UUPSUpgradeable, AutomationCompatibleInterface {... */\n  mload(0x80)\n  codecopy(0x00, dataOffset(sub_0), dataSize(sub_0))\n  0x00\n  assignImmutable(\"0x6740f0f1ed974f4bbc4ea3ddf8917f81b1171208e4ec27e89df857ca2a56624a\")\n  return(0x00, dataSize(sub_0))\nstop\n\nsub_0: assembly {\n        /* \"DripWarrior/poolContract.sol\":896:16549  contract PoolContrcat is Initializable, OwnableUpgradeable, UUPSUpgradeable, AutomationCompatibleInterface {... */\n      mstore(0x40, 0x80)\n      jumpi(tag_1, lt(calldatasize, 0x04))\n      shr(0xe0, calldataload(0x00))\n      dup1\n      0x7547c7a3\n      gt\n      tag_49\n      jumpi\n      dup1\n      0xb47ff951\n      gt\n      tag_50\n      jumpi\n      dup1\n      0xd777cc6d\n      gt\n      tag_51\n      jumpi\n      dup1\n      0xd777cc6d\n      eq\n      tag_43\n      jumpi\n      dup1\n      0xd9b998b4\n      eq\n      tag_44\n      jumpi\n      dup1\n      0xe9c68e2c\n      eq\n      tag_45\n      jumpi\n      dup1\n      0xed061067\n      eq\n      tag_46\n      jumpi\n      dup1\n      0xf2fde38b\n      eq\n      tag_47\n      jumpi\n      dup1\n      0xff3d65d9\n      eq\n      tag_48\n      jumpi\n      0x00\n      dup1\n      revert\n    tag_51:\n      dup1\n      0xb47ff951\n      eq\n      tag_37\n      jumpi\n      dup1\n      0xb9dac1eb\n      eq\n      tag_38\n      jumpi\n      dup1\n      0xbccbc36c\n      eq\n      tag_39\n      jumpi\n      dup1\n      0xc0c53b8b\n      eq\n      tag_40\n      jumpi\n      dup1\n      0xc7fd5bf0\n      eq\n      tag_41\n      jumpi\n      dup1\n      0xce356a24\n      eq\n      tag_42\n      jumpi\n      0x00\n      dup1\n      revert\n    tag_50:\n      dup1\n      0x8da5cb5b\n      gt\n      tag_52\n      jumpi\n      dup1\n      0x8da5cb5b\n      eq\n      tag_31\n      jumpi\n      dup1\n      0x947a36fb\n      eq\n      tag_32\n      jumpi\n      dup1\n      0x9c361e4e\n      eq\n      tag_33\n      jumpi\n      dup1\n      0xa4f67b8b\n      eq\n      tag_34\n      jumpi\n      dup1\n      0xad3cb1cc\n      eq\n      tag_35\n      jumpi\n      dup1\n      0xad8e5ec4\n      eq\n      tag_36\n      jumpi\n      0x00\n      dup1\n      revert\n    tag_52:\n      dup1\n      0x7547c7a3\n      eq\n      tag_25\n      jumpi\n      dup1\n      0x78fd078d\n      eq\n      tag_26\n      jumpi\n      dup1\n      0x7f111e60\n      eq\n      tag_27\n      jumpi\n      dup1\n      0x7f70c5e7\n      eq\n      tag_28\n      jumpi\n      dup1\n      0x7ffe4d93\n      eq\n      tag_29\n      jumpi\n      dup1\n      0x85f45250\n      eq\n      tag_30\n      jumpi\n      0x00\n      dup1\n      revert\n    tag_49:\n      dup1\n      0x44490ff4\n      gt\n      tag_53\n      jumpi\n      dup1\n      0x567e98f9\n      gt\n      tag_54\n      jumpi\n      dup1\n      0x567e98f9\n      eq\n      tag_19\n      jumpi\n      dup1\n      0x5f17e616\n      eq\n      tag_20\n      jumpi\n      dup1\n      0x6626b26d\n      eq\n      tag_21\n      jumpi\n      dup1\n      0x67976974\n      eq\n      tag_22\n      jumpi\n      dup1\n      0x6e04ff0d\n      eq\n      tag_23\n      jumpi\n      dup1\n      0x715018a6\n      eq\n      tag_24\n      jumpi\n      0x00\n      dup1\n      revert\n    tag_54:\n      dup1\n      0x44490ff4\n      eq\n      tag_13\n      jumpi\n      dup1\n      0x4585e33b\n      eq\n      tag_14\n      jumpi\n      dup1\n      0x4f1ef286\n      eq\n      tag_15\n      jumpi\n      dup1\n      0x5256dbbf\n      eq\n      tag_16\n      jumpi\n      dup1\n      0x52d1902d\n      eq\n      tag_17\n      jumpi\n      dup1\n      0x5462870d\n      eq\n      tag_18\n      jumpi\n      0x00\n      dup1\n      revert\n    tag_53:\n      dup1\n      0x30cac972\n      gt\n      tag_55\n      jumpi\n      dup1\n      0x30cac972\n      eq\n      tag_7\n      jumpi\n      dup1\n      0x30e3f8f8\n      eq\n      tag_8\n      jumpi\n      dup1\n      0x33244c2c\n      eq\n      tag_9\n      jumpi\n      dup1\n      0x39518b5e\n      eq\n      tag_10\n      jumpi\n      dup1\n      0x3a71a9e4\n      eq\n      tag_11\n      jumpi\n      dup1\n      0x3f3b3b27\n      eq\n      tag_12\n      jumpi\n      0x00\n      dup1\n      revert\n    tag_55:\n      dup1\n      0x01934a83\n      eq\n      tag_2\n      jumpi\n      dup1\n      0x11eac855\n      eq\n      tag_3\n      jumpi\n      dup1\n      0x188e07b9\n      eq\n      tag_4\n      jumpi\n      dup1\n      0x2765df7a\n      eq\n      tag_5\n      jumpi\n      dup1\n      0x3070fbf8\n      eq\n      tag_6\n      jumpi\n    tag_1:\n      0x00\n      dup1\n      revert\n        /* \"DripWarrior/poolContract.sol\":1344:1368  uint256 public noOfUsers */\n    tag_2:\n      callvalue\n      dup1\n      iszero\n      tag_56\n      jumpi\n      0x00\n      dup1\n      revert\n    tag_56:\n      pop\n      tag_57\n      sload(0x08)\n      dup2\n      jump\n    tag_57:\n      mload(0x40)\n        /* \"#utility.yul\":160:185   */\n      swap1\n      dup2\n      mstore\n        /* \"#utility.yul\":148:150   */\n      0x20\n        /* \"#utility.yul\":133:151   */\n      add\n        /* \"DripWarrior/poolContract.sol\":1344:1368  uint256 public noOfUsers */\n    tag_59:\n      mload(0x40)\n      dup1\n      swap2\n      sub\n      swap1\n      return\n        /* \"DripWarrior/poolContract.sol\":1010:1033  IBEP20 public usdcToken */\n    tag_3:\n      callvalue\n      dup1\n      iszero\n      tag_61\n      jumpi\n      0x00\n      dup1\n      revert\n    tag_61:\n      pop\n      sload(0x00)\n      tag_62\n      swap1\n      sub(shl(0xa0, 0x01), 0x01)\n      and\n      dup2\n      jump\n    tag_62:\n      mload(0x40)\n      sub(shl(0xa0, 0x01), 0x01)\n        /* \"#utility.yul\":375:407   */\n      swap1\n      swap2\n      and\n        /* \"#utility.yul\":357:408   */\n      dup2\n      mstore\n        /* \"#utility.yul\":345:347   */\n      0x20\n        /* \"#utility.yul\":330:348   */\n      add\n        /* \"DripWarrior/poolContract.sol\":1010:1033  IBEP20 public usdcToken */\n      tag_59\n        /* \"#utility.yul\":196:414   */\n      jump\n        /* \"DripWarrior/poolContract.sol\":1044:1077  uint256 public treasuryPoolAmount */\n    tag_4:\n      callvalue\n      dup1\n      iszero\n      tag_66\n      jumpi\n      0x00\n      dup1\n      revert\n    tag_66:\n      pop\n      tag_57\n      sload(0x01)\n      dup2\n      jump\n        /* \"DripWarrior/poolContract.sol\":4435:4772  function addProjects(uint256 _tPPercentage) external onlyOwner(){... */\n    tag_5:\n      callvalue\n      dup1\n      iszero\n      tag_70\n      jumpi\n      0x00\n      dup1\n      revert\n    tag_70:\n      pop\n      tag_71\n      tag_72\n      calldatasize\n      0x04\n      tag_73\n      jump\t// in\n    tag_72:\n      tag_74\n      jump\t// in\n    tag_71:\n      stop\n        /* \"DripWarrior/poolContract.sol\":1737:1770  address public s_forwarderAddress */\n    tag_6:\n      callvalue\n      dup1\n      iszero\n      tag_75\n      jumpi\n      0x00\n      dup1\n      revert\n    tag_75:\n      pop\n      sload(0x0e)\n      tag_62\n      swap1\n      sub(shl(0xa0, 0x01), 0x01)\n      and\n      dup2\n      jump\n        /* \"DripWarrior/poolContract.sol\":1539:1566  uint256 public realInterval */\n    tag_7:\n      callvalue\n      dup1\n      iszero\n      tag_80\n      jumpi\n      0x00\n      dup1\n      revert\n    tag_80:\n      pop\n      tag_57\n      sload(0x0b)\n      dup2\n      jump\n        /* \"DripWarrior/poolContract.sol\":1411:1432  bool public checkOnce */\n    tag_8:\n      callvalue\n      dup1\n      iszero\n      tag_84\n      jumpi\n      0x00\n      dup1\n      revert\n    tag_84:\n      pop\n      sload(0x09)\n      tag_85\n      swap1\n      shl(0xa0, 0x01)\n      swap1\n      div\n      0xff\n      and\n      dup2\n      jump\n    tag_85:\n      mload(0x40)\n        /* \"#utility.yul\":1023:1037   */\n      swap1\n      iszero\n        /* \"#utility.yul\":1016:1038   */\n      iszero\n        /* \"#utility.yul\":998:1039   */\n      dup2\n      mstore\n        /* \"#utility.yul\":986:988   */\n      0x20\n        /* \"#utility.yul\":971:989   */\n      add\n        /* \"DripWarrior/poolContract.sol\":1411:1432  bool public checkOnce */\n      tag_59\n        /* \"#utility.yul\":858:1045   */\n      jump\n        /* \"DripWarrior/poolContract.sol\":1162:1202  uint256 public tdividentPayoutPercentage */\n    tag_9:\n      callvalue\n      dup1\n      iszero\n      tag_89\n      jumpi\n      0x00\n      dup1\n      revert\n    tag_89:\n      pop\n      tag_57\n      sload(0x04)\n      dup2\n      jump\n        /* \"DripWarrior/poolContract.sol\":1619:1646  uint256 public startingTime */\n    tag_10:\n      callvalue\n      dup1\n      iszero\n      tag_93\n      jumpi\n      0x00\n      dup1\n      revert\n    tag_93:\n      pop\n      tag_57\n      sload(0x0c)\n      dup2\n      jump\n        /* \"DripWarrior/poolContract.sol\":1299:1337  uint256 public maintainceFeePercentage */\n    tag_11:\n      callvalue\n      dup1\n      iszero\n      tag_97\n      jumpi\n      0x00\n      dup1\n      revert\n    tag_97:\n      pop\n      tag_57\n      sload(0x07)\n      dup2\n      jump\n        /* \"DripWarrior/poolContract.sol\":1653:1681  uint256 public lastTimeStamp */\n    tag_12:\n      callvalue\n      dup1\n      iszero\n      tag_101\n      jumpi\n      0x00\n      dup1\n      revert\n    tag_101:\n      pop\n      tag_57\n      sload(0x0d)\n      dup2\n      jump\n        /* \"DripWarrior/poolContract.sol\":1208:1248  uint256 public odividentPayoutPercentage */\n    tag_13:\n      callvalue\n      dup1\n      iszero\n      tag_105\n      jumpi\n      0x00\n      dup1\n      revert\n    tag_105:\n      pop\n      tag_57\n      sload(0x05)\n      dup2\n      jump\n        /* \"DripWarrior/poolContract.sol\":11001:11823  function performUpkeep(bytes calldata /*performData*/) external  {... */\n    tag_14:\n      callvalue\n      dup1\n      iszero\n      tag_109\n      jumpi\n      0x00\n      dup1\n      revert\n    tag_109:\n      pop\n      tag_71\n      tag_111\n      calldatasize\n      0x04\n      tag_112\n      jump\t// in\n    tag_111:\n      tag_113\n      jump\t// in\n        /* \"@openzeppelin/contracts-upgradeable/proxy/utils/UUPSUpgradeable.sol\":4158:4372  function upgradeToAndCall(address newImplementation, bytes memory data) public payable virtual onlyProxy {... */\n    tag_15:\n      tag_71\n      tag_115\n      calldatasize\n      0x04\n      tag_116\n      jump\t// in\n    tag_115:\n      tag_117\n      jump\t// in\n        /* \"DripWarrior/poolContract.sol\":5189:5589  function addTreasuery(uint256 _amount) external onlyOwner(){... */\n    tag_16:\n      callvalue\n      dup1\n      iszero\n      tag_118\n      jumpi\n      0x00\n      dup1\n      revert\n    tag_118:\n      pop\n      tag_71\n      tag_120\n      calldatasize\n      0x04\n      tag_73\n      jump\t// in\n    tag_120:\n      tag_121\n      jump\t// in\n        /* \"@openzeppelin/contracts-upgradeable/proxy/utils/UUPSUpgradeable.sol\":3705:3839  function proxiableUUID() external view virtual notDelegated returns (bytes32) {... */\n    tag_17:\n      callvalue\n      dup1\n      iszero\n      tag_122\n      jumpi\n      0x00\n      dup1\n      revert\n    tag_122:\n      pop\n      tag_57\n      tag_124\n      jump\t// in\n        /* \"DripWarrior/poolContract.sol\":1374:1404  address public multisigAddress */\n    tag_18:\n      callvalue\n      dup1\n      iszero\n      tag_127\n      jumpi\n      0x00\n      dup1\n      revert\n    tag_127:\n      pop\n      sload(0x09)\n      tag_62\n      swap1\n      sub(shl(0xa0, 0x01), 0x01)\n      and\n      dup2\n      jump\n        /* \"DripWarrior/poolContract.sol\":1123:1155  uint256 public totalStakedAmount */\n    tag_19:\n      callvalue\n      dup1\n      iszero\n      tag_131\n      jumpi\n      0x00\n      dup1\n      revert\n    tag_131:\n      pop\n      tag_57\n      sload(0x03)\n      dup2\n      jump\n        /* \"DripWarrior/poolContract.sol\":11835:12377  function setInterval (uint256 _startingTime, uint256 updateInterval) external  onlyOwner{... */\n    tag_20:\n      callvalue\n      dup1\n      iszero\n      tag_135\n      jumpi\n      0x00\n      dup1\n      revert\n    tag_135:\n      pop\n      tag_71\n      tag_137\n      calldatasize\n      0x04\n      tag_138\n      jump\t// in\n    tag_137:\n      tag_139\n      jump\t// in\n        /* \"DripWarrior/poolContract.sol\":12383:12531  function off () external  onlyOwner{... */\n    tag_21:\n      callvalue\n      dup1\n      iszero\n      tag_140\n      jumpi\n      0x00\n      dup1\n      revert\n    tag_140:\n      pop\n      tag_71\n      tag_142\n      jump\t// in\n        /* \"DripWarrior/poolContract.sol\":13274:13851  function userWithdrawAmoount(uint256 _amount) external nonReentrant {... */\n    tag_22:\n      callvalue\n      dup1\n      iszero\n      tag_143\n      jumpi\n      0x00\n      dup1\n      revert\n    tag_143:\n      pop\n      tag_71\n      tag_145\n      calldatasize\n      0x04\n      tag_73\n      jump\t// in\n    tag_145:\n      tag_146\n      jump\t// in\n        /* \"DripWarrior/poolContract.sol\":10755:10990  function checkUpkeep(bytes calldata /*checkData*/) external override view  returns (bool, bytes memory) {... */\n    tag_23:\n      callvalue\n      dup1\n      iszero\n      tag_147\n      jumpi\n      0x00\n      dup1\n      revert\n    tag_147:\n      pop\n      tag_148\n      tag_149\n      calldatasize\n      0x04\n      tag_112\n      jump\t// in\n    tag_149:\n      tag_150\n      jump\t// in\n    tag_148:\n      mload(0x40)\n      tag_59\n      swap3\n      swap2\n      swap1\n      tag_152\n      jump\t// in\n        /* \"@openzeppelin/contracts-upgradeable/access/OwnableUpgradeable.sol\":3155:3256  function renounceOwnership() public virtual onlyOwner {... */\n    tag_24:\n      callvalue\n      dup1\n      iszero\n      tag_153\n      jumpi\n      0x00\n      dup1\n      revert\n    tag_153:\n      pop\n      tag_71\n      tag_155\n      jump\t// in\n        /* \"DripWarrior/poolContract.sol\":5595:6397  function stakeTokens(uint256 _amount) external  {... */\n    tag_25:\n      callvalue\n      dup1\n      iszero\n      tag_156\n      jumpi\n      0x00\n      dup1\n      revert\n    tag_156:\n      pop\n      tag_71\n      tag_158\n      calldatasize\n      0x04\n      tag_73\n      jump\t// in\n    tag_158:\n      tag_159\n      jump\t// in\n        /* \"DripWarrior/poolContract.sol\":4778:5179  function addOwnership(uint256 _amount) external onlyOwner(){... */\n    tag_26:\n      callvalue\n      dup1\n      iszero\n      tag_160\n      jumpi\n      0x00\n      dup1\n      revert\n    tag_160:\n      pop\n      tag_71\n      tag_162\n      calldatasize\n      0x04\n      tag_73\n      jump\t// in\n    tag_162:\n      tag_163\n      jump\t// in\n        /* \"DripWarrior/poolContract.sol\":15782:16105  function setmaintainceFeePercentage(uint256 _newPerccentage) external onlyOwner {... */\n    tag_27:\n      callvalue\n      dup1\n      iszero\n      tag_164\n      jumpi\n      0x00\n      dup1\n      revert\n    tag_164:\n      pop\n      tag_71\n      tag_166\n      calldatasize\n      0x04\n      tag_73\n      jump\t// in\n    tag_166:\n      tag_167\n      jump\t// in\n        /* \"DripWarrior/poolContract.sol\":14771:15101  function settdividentPayoutPercentage(uint256 _newPerccentage) external onlyOwner {... */\n    tag_28:\n      callvalue\n      dup1\n      iszero\n      tag_168\n      jumpi\n      0x00\n      dup1\n      revert\n    tag_168:\n      pop\n      tag_71\n      tag_170\n      calldatasize\n      0x04\n      tag_73\n      jump\t// in\n    tag_170:\n      tag_171\n      jump\t// in\n        /* \"DripWarrior/poolContract.sol\":6403:7081  function reStakeTokens(uint256 _amount) external  {... */\n    tag_29:\n      callvalue\n      dup1\n      iszero\n      tag_172\n      jumpi\n      0x00\n      dup1\n      revert\n    tag_172:\n      pop\n      tag_71\n      tag_174\n      calldatasize\n      0x04\n      tag_73\n      jump\t// in\n    tag_174:\n      tag_175\n      jump\t// in\n        /* \"DripWarrior/poolContract.sol\":7091:7632  function addFunds(uint256 _amount, uint256 _projectNo)   external {... */\n    tag_30:\n      callvalue\n      dup1\n      iszero\n      tag_176\n      jumpi\n      0x00\n      dup1\n      revert\n    tag_176:\n      pop\n      tag_71\n      tag_178\n      calldatasize\n      0x04\n      tag_138\n      jump\t// in\n    tag_178:\n      tag_179\n      jump\t// in\n        /* \"@openzeppelin/contracts-upgradeable/access/OwnableUpgradeable.sol\":2441:2585  function owner() public view virtual returns (address) {... */\n    tag_31:\n      callvalue\n      dup1\n      iszero\n      tag_180\n      jumpi\n      0x00\n      dup1\n      revert\n    tag_180:\n      pop\n        /* \"@openzeppelin/contracts-upgradeable/access/OwnableUpgradeable.sol\":1313:1335  OwnableStorageLocation */\n      0x9016d09d72d40fdae2fd8ceac6b6234c7706214fd39c1cd1e609a0528c199300\n        /* \"@openzeppelin/contracts-upgradeable/access/OwnableUpgradeable.sol\":2570:2578  $._owner */\n      sload\n      sub(shl(0xa0, 0x01), 0x01)\n      and\n        /* \"@openzeppelin/contracts-upgradeable/access/OwnableUpgradeable.sol\":2441:2585  function owner() public view virtual returns (address) {... */\n      jump(tag_62)\n        /* \"DripWarrior/poolContract.sol\":1463:1486  uint256 public interval */\n    tag_32:\n      callvalue\n      dup1\n      iszero\n      tag_184\n      jumpi\n      0x00\n      dup1\n      revert\n    tag_184:\n      pop\n      tag_57\n      sload(0x0a)\n      dup2\n      jump\n        /* \"DripWarrior/poolContract.sol\":2009:2037  uint256 public totalProjects */\n    tag_33:\n      callvalue\n      dup1\n      iszero\n      tag_188\n      jumpi\n      0x00\n      dup1\n      revert\n    tag_188:\n      pop\n      tag_57\n      sload(0x0f)\n      dup2\n      jump\n        /* \"DripWarrior/poolContract.sol\":2093:2138  mapping(uint256 => address) public totalUsers */\n    tag_34:\n      callvalue\n      dup1\n      iszero\n      tag_192\n      jumpi\n      0x00\n      dup1\n      revert\n    tag_192:\n      pop\n      tag_62\n      tag_194\n      calldatasize\n      0x04\n      tag_73\n      jump\t// in\n    tag_194:\n      mstore(0x20, 0x11)\n      0x00\n      swap1\n      dup2\n      mstore\n      0x40\n      swap1\n      keccak256\n      sload\n      sub(shl(0xa0, 0x01), 0x01)\n      and\n      dup2\n      jump\n        /* \"@openzeppelin/contracts-upgradeable/proxy/utils/UUPSUpgradeable.sol\":1819:1877  string public constant UPGRADE_INTERFACE_VERSION = \"5.0.0\" */\n    tag_35:\n      callvalue\n      dup1\n      iszero\n      tag_197\n      jumpi\n      0x00\n      dup1\n      revert\n    tag_197:\n      pop\n      tag_198\n      mload(0x40)\n      dup1\n      0x40\n      add\n      0x40\n      mstore\n      dup1\n      0x05\n      dup2\n      mstore\n      0x20\n      add\n      shl(0xdc, 0x0352e302e3)\n      dup2\n      mstore\n      pop\n      dup2\n      jump\n    tag_198:\n      mload(0x40)\n      tag_59\n      swap2\n      swap1\n      tag_201\n      jump\t// in\n        /* \"DripWarrior/poolContract.sol\":15451:15776  function setflowToTreasuryPercentage(uint256 _newPerccentage) external onlyOwner {... */\n    tag_36:\n      callvalue\n      dup1\n      iszero\n      tag_202\n      jumpi\n      0x00\n      dup1\n      revert\n    tag_202:\n      pop\n      tag_71\n      tag_204\n      calldatasize\n      0x04\n      tag_73\n      jump\t// in\n    tag_204:\n      tag_205\n      jump\t// in\n        /* \"DripWarrior/poolContract.sol\":1083:1117  uint256 public ownerShipPoolAmount */\n    tag_37:\n      callvalue\n      dup1\n      iszero\n      tag_206\n      jumpi\n      0x00\n      dup1\n      revert\n    tag_206:\n      pop\n      tag_57\n      sload(0x02)\n      dup2\n      jump\n        /* \"DripWarrior/poolContract.sol\":15111:15440  function setodividentPayoutPercentage(uint256 _newPerccentage) external onlyOwner {... */\n    tag_38:\n      callvalue\n      dup1\n      iszero\n      tag_210\n      jumpi\n      0x00\n      dup1\n      revert\n    tag_210:\n      pop\n      tag_71\n      tag_212\n      calldatasize\n      0x04\n      tag_73\n      jump\t// in\n    tag_212:\n      tag_213\n      jump\t// in\n        /* \"DripWarrior/poolContract.sol\":2198:2254  mapping(address => UserRegistered) public userRegistered */\n    tag_39:\n      callvalue\n      dup1\n      iszero\n      tag_214\n      jumpi\n      0x00\n      dup1\n      revert\n    tag_214:\n      pop\n      tag_215\n      tag_216\n      calldatasize\n      0x04\n      tag_217\n      jump\t// in\n    tag_216:\n      mstore(0x20, 0x13)\n      0x00\n      swap1\n      dup2\n      mstore\n      0x40\n      swap1\n      keccak256\n      dup1\n      sload\n      0x01\n      dup3\n      add\n      sload\n      0x02\n      dup4\n      add\n      sload\n      0x03\n      dup5\n      add\n      sload\n      0x04\n      dup6\n      add\n      sload\n      0x05\n      swap1\n      swap6\n      add\n      sload\n      0xff\n      swap1\n      swap5\n      and\n      swap5\n      swap3\n      swap4\n      swap2\n      swap3\n      swap1\n      swap2\n      dup7\n      jump\n    tag_215:\n      0x40\n      dup1\n      mload\n        /* \"#utility.yul\":4824:4838   */\n      swap7\n      iszero\n        /* \"#utility.yul\":4817:4839   */\n      iszero\n        /* \"#utility.yul\":4799:4840   */\n      dup8\n      mstore\n        /* \"#utility.yul\":4871:4873   */\n      0x20\n        /* \"#utility.yul\":4856:4874   */\n      dup8\n      add\n        /* \"#utility.yul\":4849:4883   */\n      swap6\n      swap1\n      swap6\n      mstore\n        /* \"#utility.yul\":4899:4917   */\n      swap4\n      dup6\n      add\n        /* \"#utility.yul\":4892:4926   */\n      swap3\n      swap1\n      swap3\n      mstore\n        /* \"#utility.yul\":4957:4959   */\n      0x60\n        /* \"#utility.yul\":4942:4960   */\n      dup5\n      add\n        /* \"#utility.yul\":4935:4969   */\n      mstore\n        /* \"#utility.yul\":5000:5003   */\n      0x80\n        /* \"#utility.yul\":4985:5004   */\n      dup4\n      add\n        /* \"#utility.yul\":4978:5013   */\n      mstore\n        /* \"#utility.yul\":5044:5047   */\n      0xa0\n        /* \"#utility.yul\":5029:5048   */\n      dup3\n      add\n        /* \"#utility.yul\":5022:5057   */\n      mstore\n        /* \"#utility.yul\":4786:4789   */\n      0xc0\n        /* \"#utility.yul\":4771:4790   */\n      add\n        /* \"DripWarrior/poolContract.sol\":2198:2254  mapping(address => UserRegistered) public userRegistered */\n      tag_59\n        /* \"#utility.yul\":4518:5063   */\n      jump\n        /* \"DripWarrior/poolContract.sol\":3681:4422  function initialize(address initialOwner,address _usdcAddress,... */\n    tag_40:\n      callvalue\n      dup1\n      iszero\n      tag_221\n      jumpi\n      0x00\n      dup1\n      revert\n    tag_221:\n      pop\n      tag_71\n      tag_223\n      calldatasize\n      0x04\n      tag_224\n      jump\t// in\n    tag_223:\n      tag_225\n      jump\t// in\n        /* \"DripWarrior/poolContract.sol\":2043:2087  mapping(address => bool) public alreadyAdded */\n    tag_41:\n      callvalue\n      dup1\n      iszero\n      tag_226\n      jumpi\n      0x00\n      dup1\n      revert\n    tag_226:\n      pop\n      tag_85\n      tag_228\n      calldatasize\n      0x04\n      tag_217\n      jump\t// in\n    tag_228:\n      mstore(0x20, 0x10)\n      0x00\n      swap1\n      dup2\n      mstore\n      0x40\n      swap1\n      keccak256\n      sload\n      0xff\n      and\n      dup2\n      jump\n        /* \"DripWarrior/poolContract.sol\":1254:1293  uint256 public flowToTreasuryPercentage */\n    tag_42:\n      callvalue\n      dup1\n      iszero\n      tag_231\n      jumpi\n      0x00\n      dup1\n      revert\n    tag_231:\n      pop\n      tag_57\n      sload(0x06)\n      dup2\n      jump\n        /* \"DripWarrior/poolContract.sol\":12538:12856  function setForwarderAddress(address forwarderAddress) external onlyOwner {... */\n    tag_43:\n      callvalue\n      dup1\n      iszero\n      tag_235\n      jumpi\n      0x00\n      dup1\n      revert\n    tag_235:\n      pop\n      tag_71\n      tag_237\n      calldatasize\n      0x04\n      tag_217\n      jump\t// in\n    tag_237:\n      tag_238\n      jump\t// in\n        /* \"DripWarrior/poolContract.sol\":13857:14411  function blockUser(address _userAddress, bool value) external onlyOwner {... */\n    tag_44:\n      callvalue\n      dup1\n      iszero\n      tag_239\n      jumpi\n      0x00\n      dup1\n      revert\n    tag_239:\n      pop\n      tag_71\n      tag_241\n      calldatasize\n      0x04\n      tag_242\n      jump\t// in\n    tag_241:\n      tag_243\n      jump\t// in\n        /* \"DripWarrior/poolContract.sol\":8026:9586  function weeklyTransfer() public  {... */\n    tag_45:\n      callvalue\n      dup1\n      iszero\n      tag_244\n      jumpi\n      0x00\n      dup1\n      revert\n    tag_244:\n      pop\n      tag_71\n      tag_246\n      jump\t// in\n        /* \"DripWarrior/poolContract.sol\":14423:14765  function setTeasueryPercentages(uint256 _projectId,uint256 _newPerccentage) external onlyOwner {... */\n    tag_46:\n      callvalue\n      dup1\n      iszero\n      tag_247\n      jumpi\n      0x00\n      dup1\n      revert\n    tag_247:\n      pop\n      tag_71\n      tag_249\n      calldatasize\n      0x04\n      tag_138\n      jump\t// in\n    tag_249:\n      tag_250\n      jump\t// in\n        /* \"@openzeppelin/contracts-upgradeable/access/OwnableUpgradeable.sol\":3405:3620  function transferOwnership(address newOwner) public virtual onlyOwner {... */\n    tag_47:\n      callvalue\n      dup1\n      iszero\n      tag_251\n      jumpi\n      0x00\n      dup1\n      revert\n    tag_251:\n      pop\n      tag_71\n      tag_253\n      calldatasize\n      0x04\n      tag_217\n      jump\t// in\n    tag_253:\n      tag_254\n      jump\t// in\n        /* \"DripWarrior/poolContract.sol\":2144:2192  mapping(uint256 => uint256) public tPPercentages */\n    tag_48:\n      callvalue\n      dup1\n      iszero\n      tag_255\n      jumpi\n      0x00\n      dup1\n      revert\n    tag_255:\n      pop\n      tag_57\n      tag_257\n      calldatasize\n      0x04\n      tag_73\n      jump\t// in\n    tag_257:\n      mstore(0x20, 0x12)\n      0x00\n      swap1\n      dup2\n      mstore\n      0x40\n      swap1\n      keccak256\n      sload\n      dup2\n      jump\n        /* \"DripWarrior/poolContract.sol\":4435:4772  function addProjects(uint256 _tPPercentage) external onlyOwner(){... */\n    tag_74:\n        /* \"@openzeppelin/contracts-upgradeable/access/OwnableUpgradeable.sol\":2334:2347  _checkOwner() */\n      tag_261\n        /* \"@openzeppelin/contracts-upgradeable/access/OwnableUpgradeable.sol\":2334:2345  _checkOwner */\n      tag_262\n        /* \"@openzeppelin/contracts-upgradeable/access/OwnableUpgradeable.sol\":2334:2347  _checkOwner() */\n      jump\t// in\n    tag_261:\n        /* \"DripWarrior/poolContract.sol\":4538:4539  0 */\n      0x00\n        /* \"DripWarrior/poolContract.sol\":4521:4534  _tPPercentage */\n      dup2\n        /* \"DripWarrior/poolContract.sol\":4521:4539  _tPPercentage <= 0 */\n      gt\n        /* \"DripWarrior/poolContract.sol\":4518:4602  if(_tPPercentage <= 0){... */\n      tag_264\n      jumpi\n        /* \"DripWarrior/poolContract.sol\":4561:4591  wrongPercentage(_tPPercentage) */\n      mload(0x40)\n      shl(0xe0, 0xcdbc6335)\n      dup2\n      mstore\n      0x04\n      dup2\n      add\n        /* \"#utility.yul\":160:185   */\n      dup3\n      swap1\n      mstore\n        /* \"#utility.yul\":133:151   */\n      0x24\n      add\n        /* \"DripWarrior/poolContract.sol\":4561:4591  wrongPercentage(_tPPercentage) */\n    tag_265:\n      mload(0x40)\n      dup1\n      swap2\n      sub\n      swap1\n      revert\n        /* \"DripWarrior/poolContract.sol\":4518:4602  if(_tPPercentage <= 0){... */\n    tag_264:\n        /* \"DripWarrior/poolContract.sol\":4626:4639  totalProjects */\n      0x0f\n      dup1\n      sload\n        /* \"DripWarrior/poolContract.sol\":4612:4640  tPPercentages[totalProjects] */\n      0x00\n      swap1\n      dup2\n      mstore\n        /* \"DripWarrior/poolContract.sol\":4612:4625  tPPercentages */\n      0x12\n        /* \"DripWarrior/poolContract.sol\":4612:4640  tPPercentages[totalProjects] */\n      0x20\n      mstore\n      0x40\n      dup2\n      keccak256\n        /* \"DripWarrior/poolContract.sol\":4612:4656  tPPercentages[totalProjects] = _tPPercentage */\n      dup4\n      swap1\n      sstore\n        /* \"DripWarrior/poolContract.sol\":4666:4681  totalProjects++ */\n      dup2\n      sload\n      swap2\n        /* \"DripWarrior/poolContract.sol\":4626:4639  totalProjects */\n      swap1\n        /* \"DripWarrior/poolContract.sol\":4666:4681  totalProjects++ */\n      tag_266\n      dup4\n      tag_267\n      jump\t// in\n    tag_266:\n      swap1\n      swap2\n      sstore\n      pop\n      pop\n        /* \"DripWarrior/poolContract.sol\":4710:4723  totalProjects */\n      sload(0x0f)\n        /* \"DripWarrior/poolContract.sol\":4698:4765  AddProject((totalProjects), (10000 - _tPPercentage), _tPPercentage) */\n      0xe1976e16ed8ce8e740235978fbe69b27d5eea683b2e017bb0bd2fabb33294b3f\n      swap1\n        /* \"DripWarrior/poolContract.sol\":4727:4748  10000 - _tPPercentage */\n      tag_268\n        /* \"DripWarrior/poolContract.sol\":4735:4748  _tPPercentage */\n      dup4\n        /* \"DripWarrior/poolContract.sol\":4727:4732  10000 */\n      0x2710\n        /* \"DripWarrior/poolContract.sol\":4727:4748  10000 - _tPPercentage */\n      tag_269\n      jump\t// in\n    tag_268:\n        /* \"DripWarrior/poolContract.sol\":4698:4765  AddProject((totalProjects), (10000 - _tPPercentage), _tPPercentage) */\n      0x40\n      dup1\n      mload\n        /* \"#utility.yul\":6457:6482   */\n      swap3\n      dup4\n      mstore\n        /* \"#utility.yul\":6513:6515   */\n      0x20\n        /* \"#utility.yul\":6498:6516   */\n      dup4\n      add\n        /* \"#utility.yul\":6491:6525   */\n      swap2\n      swap1\n      swap2\n      mstore\n        /* \"#utility.yul\":6541:6559   */\n      dup2\n      add\n        /* \"#utility.yul\":6534:6568   */\n      dup4\n      swap1\n      mstore\n        /* \"#utility.yul\":6445:6447   */\n      0x60\n        /* \"#utility.yul\":6430:6448   */\n      add\n        /* \"DripWarrior/poolContract.sol\":4698:4765  AddProject((totalProjects), (10000 - _tPPercentage), _tPPercentage) */\n    tag_270:\n      mload(0x40)\n      dup1\n      swap2\n      sub\n      swap1\n      log1\n        /* \"DripWarrior/poolContract.sol\":4435:4772  function addProjects(uint256 _tPPercentage) external onlyOwner(){... */\n      pop\n      jump\t// out\n        /* \"DripWarrior/poolContract.sol\":11001:11823  function performUpkeep(bytes calldata /*performData*/) external  {... */\n    tag_113:\n        /* \"DripWarrior/poolContract.sol\":11120:11138  s_forwarderAddress */\n      and(sub(shl(0xa0, 0x01), 0x01), sload(0x0e))\n        /* \"DripWarrior/poolContract.sol\":11106:11116  msg.sender */\n      caller\n        /* \"DripWarrior/poolContract.sol\":11106:11138  msg.sender == s_forwarderAddress */\n      eq\n        /* \"DripWarrior/poolContract.sol\":11085:11223  require(... */\n      tag_273\n      jumpi\n      mload(0x40)\n      shl(0xe5, 0x461bcd)\n      dup2\n      mstore\n      0x04\n      add\n      tag_265\n      swap1\n      tag_275\n      jump\t// in\n    tag_273:\n        /* \"DripWarrior/poolContract.sol\":11245:11253  interval */\n      sload(0x0a)\n        /* \"DripWarrior/poolContract.sol\":11257:11258  0 */\n      0x00\n        /* \"DripWarrior/poolContract.sol\":11245:11258  interval == 0 */\n      sub\n        /* \"DripWarrior/poolContract.sol\":11241:11314  if (interval == 0){... */\n      tag_276\n      jumpi\n        /* \"DripWarrior/poolContract.sol\":11294:11302  interval */\n      sload(0x0a)\n        /* \"DripWarrior/poolContract.sol\":11280:11303  wrongInterval(interval) */\n      mload(0x40)\n      shl(0xe0, 0x71540007)\n      dup2\n      mstore\n      0x04\n      add\n      tag_265\n      swap2\n        /* \"#utility.yul\":160:185   */\n      dup2\n      mstore\n        /* \"#utility.yul\":148:150   */\n      0x20\n        /* \"#utility.yul\":133:151   */\n      add\n      swap1\n        /* \"#utility.yul\":14:191   */\n      jump\n        /* \"DripWarrior/poolContract.sol\":11241:11314  if (interval == 0){... */\n    tag_276:\n        /* \"DripWarrior/poolContract.sol\":11336:11345  checkOnce */\n      sload(0x09)\n      shl(0xa0, 0x01)\n      swap1\n      div\n      0xff\n      and\n        /* \"DripWarrior/poolContract.sol\":11332:11736  if(!checkOnce){... */\n      tag_278\n      jumpi\n        /* \"DripWarrior/poolContract.sol\":11383:11395  startingTime */\n      sload(0x0c)\n        /* \"DripWarrior/poolContract.sol\":11364:11379  block.timestamp */\n      timestamp\n        /* \"DripWarrior/poolContract.sol\":11364:11395  block.timestamp >= startingTime */\n      lt\n        /* \"DripWarrior/poolContract.sol\":11361:11615  if(block.timestamp >= startingTime){... */\n      tag_279\n      jumpi\n        /* \"DripWarrior/poolContract.sol\":11430:11445  block.timestamp */\n      timestamp\n        /* \"DripWarrior/poolContract.sol\":11414:11427  lastTimeStamp */\n      0x0d\n        /* \"DripWarrior/poolContract.sol\":11414:11445  lastTimeStamp = block.timestamp */\n      sstore\n        /* \"DripWarrior/poolContract.sol\":11463:11479  weeklyTransfer() */\n      tag_280\n        /* \"DripWarrior/poolContract.sol\":11463:11477  weeklyTransfer */\n      tag_246\n        /* \"DripWarrior/poolContract.sol\":11463:11479  weeklyTransfer() */\n      jump\t// in\n    tag_280:\n        /* \"DripWarrior/poolContract.sol\":11508:11520  realInterval */\n      sload(0x0b)\n        /* \"DripWarrior/poolContract.sol\":11497:11505  interval */\n      0x0a\n        /* \"DripWarrior/poolContract.sol\":11497:11520  interval = realInterval */\n      sstore\n        /* \"DripWarrior/poolContract.sol\":11332:11736  if(!checkOnce){... */\n      jump(tag_284)\n        /* \"DripWarrior/poolContract.sol\":11361:11615  if(block.timestamp >= startingTime){... */\n    tag_279:\n        /* \"DripWarrior/poolContract.sol\":11587:11599  startingTime */\n      sload(0x0c)\n        /* \"DripWarrior/poolContract.sol\":11577:11600  wrongTime(startingTime) */\n      mload(0x40)\n      shl(0xe0, 0x54593e75)\n      dup2\n      mstore\n      0x04\n      add\n      tag_265\n      swap2\n        /* \"#utility.yul\":160:185   */\n      dup2\n      mstore\n        /* \"#utility.yul\":148:150   */\n      0x20\n        /* \"#utility.yul\":133:151   */\n      add\n      swap1\n        /* \"#utility.yul\":14:191   */\n      jump\n        /* \"DripWarrior/poolContract.sol\":11332:11736  if(!checkOnce){... */\n    tag_278:\n        /* \"DripWarrior/poolContract.sol\":11680:11695  block.timestamp */\n      timestamp\n        /* \"DripWarrior/poolContract.sol\":11664:11677  lastTimeStamp */\n      0x0d\n        /* \"DripWarrior/poolContract.sol\":11664:11695  lastTimeStamp = block.timestamp */\n      sstore\n        /* \"DripWarrior/poolContract.sol\":11709:11725  weeklyTransfer() */\n      tag_284\n        /* \"DripWarrior/poolContract.sol\":11709:11723  weeklyTransfer */\n      tag_246\n        /* \"DripWarrior/poolContract.sol\":11709:11725  weeklyTransfer() */\n      jump\t// in\n    tag_284:\n        /* \"DripWarrior/poolContract.sol\":11757:11766  checkOnce */\n      sload(0x09)\n      shl(0xa0, 0x01)\n      swap1\n      div\n      0xff\n      and\n        /* \"DripWarrior/poolContract.sol\":11753:11808  if(!checkOnce){... */\n      tag_285\n      jumpi\n        /* \"DripWarrior/poolContract.sol\":11781:11790  checkOnce */\n      0x09\n        /* \"DripWarrior/poolContract.sol\":11781:11797  checkOnce = true */\n      dup1\n      sload\n      not(shl(0xa0, 0xff))\n      and\n      shl(0xa0, 0x01)\n      or\n      swap1\n      sstore\n        /* \"DripWarrior/poolContract.sol\":11753:11808  if(!checkOnce){... */\n    tag_285:\n        /* \"DripWarrior/poolContract.sol\":11001:11823  function performUpkeep(bytes calldata /*performData*/) external  {... */\n      pop\n      pop\n      jump\t// out\n        /* \"@openzeppelin/contracts-upgradeable/proxy/utils/UUPSUpgradeable.sol\":4158:4372  function upgradeToAndCall(address newImplementation, bytes memory data) public payable virtual onlyProxy {... */\n    tag_117:\n        /* \"@openzeppelin/contracts-upgradeable/proxy/utils/UUPSUpgradeable.sol\":2653:2666  _checkProxy() */\n      tag_287\n        /* \"@openzeppelin/contracts-upgradeable/proxy/utils/UUPSUpgradeable.sol\":2653:2664  _checkProxy */\n      tag_288\n        /* \"@openzeppelin/contracts-upgradeable/proxy/utils/UUPSUpgradeable.sol\":2653:2666  _checkProxy() */\n      jump\t// in\n    tag_287:\n        /* \"@openzeppelin/contracts-upgradeable/proxy/utils/UUPSUpgradeable.sol\":4273:4309  _authorizeUpgrade(newImplementation) */\n      tag_290\n        /* \"@openzeppelin/contracts-upgradeable/proxy/utils/UUPSUpgradeable.sol\":4291:4308  newImplementation */\n      dup3\n        /* \"@openzeppelin/contracts-upgradeable/proxy/utils/UUPSUpgradeable.sol\":4273:4290  _authorizeUpgrade */\n      tag_291\n        /* \"@openzeppelin/contracts-upgradeable/proxy/utils/UUPSUpgradeable.sol\":4273:4309  _authorizeUpgrade(newImplementation) */\n      jump\t// in\n    tag_290:\n        /* \"@openzeppelin/contracts-upgradeable/proxy/utils/UUPSUpgradeable.sol\":4319:4365  _upgradeToAndCallUUPS(newImplementation, data) */\n      tag_285\n        /* \"@openzeppelin/contracts-upgradeable/proxy/utils/UUPSUpgradeable.sol\":4341:4358  newImplementation */\n      dup3\n        /* \"@openzeppelin/contracts-upgradeable/proxy/utils/UUPSUpgradeable.sol\":4360:4364  data */\n      dup3\n        /* \"@openzeppelin/contracts-upgradeable/proxy/utils/UUPSUpgradeable.sol\":4319:4340  _upgradeToAndCallUUPS */\n      tag_293\n        /* \"@openzeppelin/contracts-upgradeable/proxy/utils/UUPSUpgradeable.sol\":4319:4365  _upgradeToAndCallUUPS(newImplementation, data) */\n      jump\t// in\n        /* \"DripWarrior/poolContract.sol\":5189:5589  function addTreasuery(uint256 _amount) external onlyOwner(){... */\n    tag_121:\n        /* \"@openzeppelin/contracts-upgradeable/access/OwnableUpgradeable.sol\":2334:2347  _checkOwner() */\n      tag_295\n        /* \"@openzeppelin/contracts-upgradeable/access/OwnableUpgradeable.sol\":2334:2345  _checkOwner */\n      tag_262\n        /* \"@openzeppelin/contracts-upgradeable/access/OwnableUpgradeable.sol\":2334:2347  _checkOwner() */\n      jump\t// in\n    tag_295:\n        /* \"DripWarrior/poolContract.sol\":5281:5282  0 */\n      0x00\n        /* \"DripWarrior/poolContract.sol\":5270:5277  _amount */\n      dup2\n        /* \"DripWarrior/poolContract.sol\":5270:5282  _amount <= 0 */\n      gt\n        /* \"DripWarrior/poolContract.sol\":5267:5335  if(_amount <= 0){... */\n      tag_297\n      jumpi\n        /* \"DripWarrior/poolContract.sol\":5304:5324  wrongAmount(_amount) */\n      mload(0x40)\n      shl(0xe4, 0x02ff4783)\n      dup2\n      mstore\n      0x04\n      dup2\n      add\n        /* \"#utility.yul\":160:185   */\n      dup3\n      swap1\n      mstore\n        /* \"#utility.yul\":133:151   */\n      0x24\n      add\n        /* \"DripWarrior/poolContract.sol\":5304:5324  wrongAmount(_amount) */\n      tag_265\n        /* \"#utility.yul\":14:191   */\n      jump\n        /* \"DripWarrior/poolContract.sol\":5267:5335  if(_amount <= 0){... */\n    tag_297:\n        /* \"DripWarrior/poolContract.sol\":5368:5375  _amount */\n      dup1\n        /* \"DripWarrior/poolContract.sol\":5346:5364  treasuryPoolAmount */\n      0x01\n      0x00\n        /* \"DripWarrior/poolContract.sol\":5346:5375  treasuryPoolAmount += _amount */\n      dup3\n      dup3\n      sload\n      tag_299\n      swap2\n      swap1\n      tag_300\n      jump\t// in\n    tag_299:\n      swap1\n      swap2\n      sstore\n      pop\n      pop\n        /* \"DripWarrior/poolContract.sol\":5386:5398  bool success */\n      0x00\n        /* \"DripWarrior/poolContract.sol\":5401:5410  usdcToken */\n      dup1\n      sload\n        /* \"DripWarrior/poolContract.sol\":5401:5458  usdcToken.transferFrom(msg.sender,address(this),_amount ) */\n      mload(0x40)\n      shl(0xe0, 0x23b872dd)\n      dup2\n      mstore\n      sub(shl(0xa0, 0x01), 0x01)\n        /* \"DripWarrior/poolContract.sol\":5401:5410  usdcToken */\n      swap1\n      swap2\n      and\n      swap1\n        /* \"DripWarrior/poolContract.sol\":5401:5423  usdcToken.transferFrom */\n      0x23b872dd\n      swap1\n        /* \"DripWarrior/poolContract.sol\":5401:5458  usdcToken.transferFrom(msg.sender,address(this),_amount ) */\n      tag_301\n      swap1\n        /* \"DripWarrior/poolContract.sol\":5424:5434  msg.sender */\n      caller\n      swap1\n        /* \"DripWarrior/poolContract.sol\":5443:5447  this */\n      address\n      swap1\n        /* \"DripWarrior/poolContract.sol\":5449:5456  _amount */\n      dup8\n      swap1\n        /* \"DripWarrior/poolContract.sol\":5401:5458  usdcToken.transferFrom(msg.sender,address(this),_amount ) */\n      0x04\n      add\n      tag_302\n      jump\t// in\n    tag_301:\n      0x20\n      mload(0x40)\n      dup1\n      dup4\n      sub\n      dup2\n      0x00\n      dup8\n      gas\n      call\n      iszero\n      dup1\n      iszero\n      tag_304\n      jumpi\n      returndatasize\n      0x00\n      dup1\n      returndatacopy\n      revert(0x00, returndatasize)\n    tag_304:\n      pop\n      pop\n      pop\n      pop\n      mload(0x40)\n      returndatasize\n      not(0x1f)\n      0x1f\n      dup3\n      add\n      and\n      dup3\n      add\n      dup1\n      0x40\n      mstore\n      pop\n      dup2\n      add\n      swap1\n      tag_305\n      swap2\n      swap1\n      tag_306\n      jump\t// in\n    tag_305:\n        /* \"DripWarrior/poolContract.sol\":5386:5458  bool success = usdcToken.transferFrom(msg.sender,address(this),_amount ) */\n      swap1\n      pop\n        /* \"DripWarrior/poolContract.sol\":5472:5479  success */\n      dup1\n        /* \"DripWarrior/poolContract.sol\":5468:5535  if(!success){... */\n      tag_307\n      jumpi\n        /* \"DripWarrior/poolContract.sol\":5501:5524  transferFailed(success) */\n      mload(0x40)\n      shl(0xe0, 0xd85d3cef)\n      dup2\n      mstore\n        /* \"#utility.yul\":1023:1037   */\n      dup2\n      iszero\n        /* \"#utility.yul\":1016:1038   */\n      iszero\n        /* \"DripWarrior/poolContract.sol\":5501:5524  transferFailed(success) */\n      0x04\n      dup3\n      add\n        /* \"#utility.yul\":998:1039   */\n      mstore\n        /* \"#utility.yul\":971:989   */\n      0x24\n      add\n        /* \"DripWarrior/poolContract.sol\":5501:5524  transferFailed(success) */\n      tag_265\n        /* \"#utility.yul\":858:1045   */\n      jump\n        /* \"DripWarrior/poolContract.sol\":5468:5535  if(!success){... */\n    tag_307:\n        /* \"DripWarrior/poolContract.sol\":5550:5582  AddTreasuery(treasuryPoolAmount) */\n      0xa9f166643ec132a11638e74e3c3a78d4ae278fcbf92998240e0e97676f54e404\n        /* \"DripWarrior/poolContract.sol\":5563:5581  treasuryPoolAmount */\n      sload(0x01)\n        /* \"DripWarrior/poolContract.sol\":5550:5582  AddTreasuery(treasuryPoolAmount) */\n      mload(0x40)\n      tag_309\n      swap2\n        /* \"#utility.yul\":160:185   */\n      dup2\n      mstore\n        /* \"#utility.yul\":148:150   */\n      0x20\n        /* \"#utility.yul\":133:151   */\n      add\n      swap1\n        /* \"#utility.yul\":14:191   */\n      jump\n        /* \"DripWarrior/poolContract.sol\":5550:5582  AddTreasuery(treasuryPoolAmount) */\n    tag_309:\n      mload(0x40)\n      dup1\n      swap2\n      sub\n      swap1\n      log1\n        /* \"DripWarrior/poolContract.sol\":5248:5589  {... */\n      pop\n        /* \"DripWarrior/poolContract.sol\":5189:5589  function addTreasuery(uint256 _amount) external onlyOwner(){... */\n      pop\n      jump\t// out\n        /* \"@openzeppelin/contracts-upgradeable/proxy/utils/UUPSUpgradeable.sol\":3705:3839  function proxiableUUID() external view virtual notDelegated returns (bytes32) {... */\n    tag_124:\n        /* \"@openzeppelin/contracts-upgradeable/proxy/utils/UUPSUpgradeable.sol\":3774:3781  bytes32 */\n      0x00\n        /* \"@openzeppelin/contracts-upgradeable/proxy/utils/UUPSUpgradeable.sol\":2924:2944  _checkNotDelegated() */\n      tag_311\n        /* \"@openzeppelin/contracts-upgradeable/proxy/utils/UUPSUpgradeable.sol\":2924:2942  _checkNotDelegated */\n      tag_312\n        /* \"@openzeppelin/contracts-upgradeable/proxy/utils/UUPSUpgradeable.sol\":2924:2944  _checkNotDelegated() */\n      jump\t// in\n    tag_311:\n      pop\n      0x00\n      dup1\n      mload\n      0x20\n      data_75b20eef8615de99c108b05f0dbda081c91897128caa336d75dffb97c4132b4d\n      dup4\n      codecopy\n      dup2\n      mload\n      swap2\n      mstore\n        /* \"@openzeppelin/contracts-upgradeable/proxy/utils/UUPSUpgradeable.sol\":3705:3839  function proxiableUUID() external view virtual notDelegated returns (bytes32) {... */\n      swap1\n      jump\t// out\n        /* \"DripWarrior/poolContract.sol\":11835:12377  function setInterval (uint256 _startingTime, uint256 updateInterval) external  onlyOwner{... */\n    tag_139:\n        /* \"@openzeppelin/contracts-upgradeable/access/OwnableUpgradeable.sol\":2334:2347  _checkOwner() */\n      tag_315\n        /* \"@openzeppelin/contracts-upgradeable/access/OwnableUpgradeable.sol\":2334:2345  _checkOwner */\n      tag_262\n        /* \"@openzeppelin/contracts-upgradeable/access/OwnableUpgradeable.sol\":2334:2347  _checkOwner() */\n      jump\t// in\n    tag_315:\n        /* \"DripWarrior/poolContract.sol\":11963:11964  0 */\n      0x00\n        /* \"DripWarrior/poolContract.sol\":11945:11959  updateInterval */\n      dup2\n        /* \"DripWarrior/poolContract.sol\":11945:11964  updateInterval <= 0 */\n      gt\n        /* \"DripWarrior/poolContract.sol\":11942:12026  if(updateInterval <= 0){... */\n      tag_317\n      jumpi\n        /* \"DripWarrior/poolContract.sol\":11986:12015  wrongInterval(updateInterval) */\n      mload(0x40)\n      shl(0xe0, 0x71540007)\n      dup2\n      mstore\n      0x04\n      dup2\n      add\n        /* \"#utility.yul\":160:185   */\n      dup3\n      swap1\n      mstore\n        /* \"#utility.yul\":133:151   */\n      0x24\n      add\n        /* \"DripWarrior/poolContract.sol\":11986:12015  wrongInterval(updateInterval) */\n      tag_265\n        /* \"#utility.yul\":14:191   */\n      jump\n        /* \"DripWarrior/poolContract.sol\":11942:12026  if(updateInterval <= 0){... */\n    tag_317:\n        /* \"DripWarrior/poolContract.sol\":12063:12078  block.timestamp */\n      timestamp\n        /* \"DripWarrior/poolContract.sol\":12047:12060  _startingTime */\n      dup3\n        /* \"DripWarrior/poolContract.sol\":12047:12078  _startingTime < block.timestamp */\n      lt\n        /* \"DripWarrior/poolContract.sol\":12044:12135  if(_startingTime < block.timestamp){... */\n      iszero\n      tag_319\n      jumpi\n        /* \"DripWarrior/poolContract.sol\":12100:12124  wrongTime(_startingTime) */\n      mload(0x40)\n      shl(0xe0, 0x54593e75)\n      dup2\n      mstore\n      0x04\n      dup2\n      add\n        /* \"#utility.yul\":160:185   */\n      dup4\n      swap1\n      mstore\n        /* \"#utility.yul\":133:151   */\n      0x24\n      add\n        /* \"DripWarrior/poolContract.sol\":12100:12124  wrongTime(_startingTime) */\n      tag_265\n        /* \"#utility.yul\":14:191   */\n      jump\n        /* \"DripWarrior/poolContract.sol\":12044:12135  if(_startingTime < block.timestamp){... */\n    tag_319:\n        /* \"DripWarrior/poolContract.sol\":12156:12187  _startingTime - block.timestamp */\n      tag_321\n        /* \"DripWarrior/poolContract.sol\":12172:12187  block.timestamp */\n      timestamp\n        /* \"DripWarrior/poolContract.sol\":12156:12169  _startingTime */\n      dup4\n        /* \"DripWarrior/poolContract.sol\":12156:12187  _startingTime - block.timestamp */\n      tag_269\n      jump\t// in\n    tag_321:\n        /* \"DripWarrior/poolContract.sol\":12145:12153  interval */\n      0x0a\n        /* \"DripWarrior/poolContract.sol\":12145:12187  interval = _startingTime - block.timestamp */\n      dup2\n      swap1\n      sstore\n        /* \"DripWarrior/poolContract.sol\":12197:12209  startingTime */\n      0x0c\n        /* \"DripWarrior/poolContract.sol\":12197:12225  startingTime = _startingTime */\n      dup4\n      swap1\n      sstore\n        /* \"DripWarrior/poolContract.sol\":12251:12266  block.timestamp */\n      timestamp\n        /* \"DripWarrior/poolContract.sol\":12235:12248  lastTimeStamp */\n      0x0d\n        /* \"DripWarrior/poolContract.sol\":12235:12266  lastTimeStamp = block.timestamp */\n      dup2\n      swap1\n      sstore\n        /* \"DripWarrior/poolContract.sol\":12276:12288  realInterval */\n      0x0b\n        /* \"DripWarrior/poolContract.sol\":12276:12305  realInterval = updateInterval */\n      dup4\n      swap1\n      sstore\n        /* \"DripWarrior/poolContract.sol\":12321:12369  SetInterval(msg.sender, interval, lastTimeStamp) */\n      0x40\n      dup1\n      mload\n        /* \"DripWarrior/poolContract.sol\":12333:12343  msg.sender */\n      caller\n        /* \"#utility.yul\":7965:8016   */\n      dup2\n      mstore\n        /* \"#utility.yul\":8047:8049   */\n      0x20\n        /* \"#utility.yul\":8032:8050   */\n      dup2\n      add\n        /* \"#utility.yul\":8025:8059   */\n      swap4\n      swap1\n      swap4\n      mstore\n        /* \"#utility.yul\":8075:8093   */\n      dup3\n      add\n        /* \"#utility.yul\":8068:8102   */\n      mstore\n        /* \"DripWarrior/poolContract.sol\":12321:12369  SetInterval(msg.sender, interval, lastTimeStamp) */\n      0x2b5090e035d3026f5448298c9adc68db8bbc1b26a8af5c81b2b2a9fc07ca4a00\n      swap1\n        /* \"#utility.yul\":7953:7955   */\n      0x60\n        /* \"#utility.yul\":7938:7956   */\n      add\n        /* \"DripWarrior/poolContract.sol\":12321:12369  SetInterval(msg.sender, interval, lastTimeStamp) */\n      tag_309\n        /* \"#utility.yul\":7763:8108   */\n      jump\n        /* \"DripWarrior/poolContract.sol\":12383:12531  function off () external  onlyOwner{... */\n    tag_142:\n        /* \"@openzeppelin/contracts-upgradeable/access/OwnableUpgradeable.sol\":2334:2347  _checkOwner() */\n      tag_325\n        /* \"@openzeppelin/contracts-upgradeable/access/OwnableUpgradeable.sol\":2334:2345  _checkOwner */\n      tag_262\n        /* \"@openzeppelin/contracts-upgradeable/access/OwnableUpgradeable.sol\":2334:2347  _checkOwner() */\n      jump\t// in\n    tag_325:\n        /* \"DripWarrior/poolContract.sol\":12447:12448  0 */\n      0x00\n        /* \"DripWarrior/poolContract.sol\":12436:12444  interval */\n      0x0a\n        /* \"DripWarrior/poolContract.sol\":12436:12448  interval = 0 */\n      dup2\n      swap1\n      sstore\n        /* \"DripWarrior/poolContract.sol\":12458:12467  checkOnce */\n      0x09\n        /* \"DripWarrior/poolContract.sol\":12458:12475  checkOnce = false */\n      dup1\n      sload\n      not(shl(0xa0, 0xff))\n      and\n      swap1\n      sstore\n        /* \"DripWarrior/poolContract.sol\":12491:12524  offInterval(msg.sender, interval) */\n      0x40\n      dup1\n      mload\n        /* \"DripWarrior/poolContract.sol\":12503:12513  msg.sender */\n      caller\n        /* \"#utility.yul\":8287:8338   */\n      dup2\n      mstore\n        /* \"#utility.yul\":8369:8371   */\n      0x20\n        /* \"#utility.yul\":8354:8372   */\n      dup2\n      add\n        /* \"#utility.yul\":8347:8381   */\n      swap3\n      swap1\n      swap3\n      mstore\n        /* \"DripWarrior/poolContract.sol\":12491:12524  offInterval(msg.sender, interval) */\n      0x3b68dc4e210c46d3622293f2b941cdfde795bb6e17286bb289ba05a6a3b5541f\n      swap2\n        /* \"#utility.yul\":8260:8278   */\n      add\n        /* \"DripWarrior/poolContract.sol\":12491:12524  offInterval(msg.sender, interval) */\n      mload(0x40)\n      dup1\n      swap2\n      sub\n      swap1\n      log1\n        /* \"DripWarrior/poolContract.sol\":12383:12531  function off () external  onlyOwner{... */\n      jump\t// out\n        /* \"DripWarrior/poolContract.sol\":13274:13851  function userWithdrawAmoount(uint256 _amount) external nonReentrant {... */\n    tag_146:\n        /* \"DripWarrior/poolContract.sol\":16322:16328  locked */\n      sload(0x09)\n      shl(0xa8, 0x01)\n      swap1\n      div\n      0xff\n      and\n        /* \"DripWarrior/poolContract.sol\":16321:16328  !locked */\n      iszero\n        /* \"DripWarrior/poolContract.sol\":16313:16364  require(!locked, \"ReentrancyGuard: reentrant call\") */\n      tag_330\n      jumpi\n      mload(0x40)\n      shl(0xe5, 0x461bcd)\n      dup2\n      mstore\n        /* \"#utility.yul\":8594:8596   */\n      0x20\n        /* \"DripWarrior/poolContract.sol\":16313:16364  require(!locked, \"ReentrancyGuard: reentrant call\") */\n      0x04\n      dup3\n      add\n        /* \"#utility.yul\":8576:8597   */\n      mstore\n        /* \"#utility.yul\":8633:8635   */\n      0x1f\n        /* \"#utility.yul\":8613:8631   */\n      0x24\n      dup3\n      add\n        /* \"#utility.yul\":8606:8636   */\n      mstore\n        /* \"#utility.yul\":8672:8705   */\n      0x5265656e7472616e637947756172643a207265656e7472616e742063616c6c00\n        /* \"#utility.yul\":8652:8670   */\n      0x44\n      dup3\n      add\n        /* \"#utility.yul\":8645:8706   */\n      mstore\n        /* \"#utility.yul\":8723:8741   */\n      0x64\n      add\n        /* \"DripWarrior/poolContract.sol\":16313:16364  require(!locked, \"ReentrancyGuard: reentrant call\") */\n      tag_265\n        /* \"#utility.yul\":8392:8747   */\n      jump\n        /* \"DripWarrior/poolContract.sol\":16313:16364  require(!locked, \"ReentrancyGuard: reentrant call\") */\n    tag_330:\n        /* \"DripWarrior/poolContract.sol\":16374:16380  locked */\n      0x09\n        /* \"DripWarrior/poolContract.sol\":16374:16387  locked = true */\n      dup1\n      sload\n      not(shl(0xa8, 0xff))\n      and\n      shl(0xa8, 0x01)\n      or\n      swap1\n      sstore\n        /* \"DripWarrior/poolContract.sol\":13364:13376  _amount <= 0 */\n      dup1\n        /* \"DripWarrior/poolContract.sol\":13361:13429  if(_amount <= 0){... */\n      tag_334\n      jumpi\n        /* \"DripWarrior/poolContract.sol\":13398:13418  wrongAmount(_amount) */\n      mload(0x40)\n      shl(0xe4, 0x02ff4783)\n      dup2\n      mstore\n      0x04\n      dup2\n      add\n        /* \"#utility.yul\":160:185   */\n      dup3\n      swap1\n      mstore\n        /* \"#utility.yul\":133:151   */\n      0x24\n      add\n        /* \"DripWarrior/poolContract.sol\":13398:13418  wrongAmount(_amount) */\n      tag_265\n        /* \"#utility.yul\":14:191   */\n      jump\n        /* \"DripWarrior/poolContract.sol\":13361:13429  if(_amount <= 0){... */\n    tag_334:\n        /* \"DripWarrior/poolContract.sol\":13472:13482  msg.sender */\n      caller\n        /* \"DripWarrior/poolContract.sol\":13457:13483  userRegistered[msg.sender] */\n      0x00\n      swap1\n      dup2\n      mstore\n        /* \"DripWarrior/poolContract.sol\":13457:13471  userRegistered */\n      0x13\n        /* \"DripWarrior/poolContract.sol\":13457:13483  userRegistered[msg.sender] */\n      0x20\n      mstore\n      0x40\n      swap1\n      keccak256\n        /* \"DripWarrior/poolContract.sol\":13457:13498  userRegistered[msg.sender].receivedAmount */\n      0x01\n      add\n      sload\n        /* \"DripWarrior/poolContract.sol\":13446:13498  _amount <= userRegistered[msg.sender].receivedAmount */\n      dup2\n      gt\n      iszero\n        /* \"DripWarrior/poolContract.sol\":13438:13519  require(_amount <= userRegistered[msg.sender].receivedAmount, \"invalid _amount!\") */\n      tag_336\n      jumpi\n      mload(0x40)\n      shl(0xe5, 0x461bcd)\n      dup2\n      mstore\n        /* \"#utility.yul\":8954:8956   */\n      0x20\n        /* \"DripWarrior/poolContract.sol\":13438:13519  require(_amount <= userRegistered[msg.sender].receivedAmount, \"invalid _amount!\") */\n      0x04\n      dup3\n      add\n        /* \"#utility.yul\":8936:8957   */\n      mstore\n        /* \"#utility.yul\":8993:8995   */\n      0x10\n        /* \"#utility.yul\":8973:8991   */\n      0x24\n      dup3\n      add\n        /* \"#utility.yul\":8966:8996   */\n      mstore\n      shl(0x80, 0x696e76616c6964205f616d6f756e7421)\n        /* \"#utility.yul\":9012:9030   */\n      0x44\n      dup3\n      add\n        /* \"#utility.yul\":9005:9051   */\n      mstore\n        /* \"#utility.yul\":9068:9086   */\n      0x64\n      add\n        /* \"DripWarrior/poolContract.sol\":13438:13519  require(_amount <= userRegistered[msg.sender].receivedAmount, \"invalid _amount!\") */\n      tag_265\n        /* \"#utility.yul\":8752:9092   */\n      jump\n        /* \"DripWarrior/poolContract.sol\":13438:13519  require(_amount <= userRegistered[msg.sender].receivedAmount, \"invalid _amount!\") */\n    tag_336:\n        /* \"DripWarrior/poolContract.sol\":13545:13555  msg.sender */\n      caller\n        /* \"DripWarrior/poolContract.sol\":13530:13556  userRegistered[msg.sender] */\n      0x00\n      swap1\n      dup2\n      mstore\n        /* \"DripWarrior/poolContract.sol\":13530:13544  userRegistered */\n      0x13\n        /* \"DripWarrior/poolContract.sol\":13530:13556  userRegistered[msg.sender] */\n      0x20\n      mstore\n      0x40\n      dup2\n      keccak256\n        /* \"DripWarrior/poolContract.sol\":13530:13571  userRegistered[msg.sender].receivedAmount */\n      0x01\n      add\n        /* \"DripWarrior/poolContract.sol\":13530:13582  userRegistered[msg.sender].receivedAmount -= _amount */\n      dup1\n      sload\n        /* \"DripWarrior/poolContract.sol\":13575:13582  _amount */\n      dup4\n      swap3\n        /* \"DripWarrior/poolContract.sol\":13530:13556  userRegistered[msg.sender] */\n      swap1\n        /* \"DripWarrior/poolContract.sol\":13530:13582  userRegistered[msg.sender].receivedAmount -= _amount */\n      tag_339\n      swap1\n        /* \"DripWarrior/poolContract.sol\":13575:13582  _amount */\n      dup5\n      swap1\n        /* \"DripWarrior/poolContract.sol\":13530:13582  userRegistered[msg.sender].receivedAmount -= _amount */\n      tag_269\n      jump\t// in\n    tag_339:\n      swap1\n      swap2\n      sstore\n      pop\n      pop\n        /* \"DripWarrior/poolContract.sol\":13607:13617  msg.sender */\n      caller\n        /* \"DripWarrior/poolContract.sol\":13592:13618  userRegistered[msg.sender] */\n      0x00\n      swap1\n      dup2\n      mstore\n        /* \"DripWarrior/poolContract.sol\":13592:13606  userRegistered */\n      0x13\n        /* \"DripWarrior/poolContract.sol\":13592:13618  userRegistered[msg.sender] */\n      0x20\n      mstore\n      0x40\n      dup2\n      keccak256\n        /* \"DripWarrior/poolContract.sol\":13592:13633  userRegistered[msg.sender].withdrawAmount */\n      0x02\n      add\n        /* \"DripWarrior/poolContract.sol\":13592:13644  userRegistered[msg.sender].withdrawAmount += _amount */\n      dup1\n      sload\n        /* \"DripWarrior/poolContract.sol\":13637:13644  _amount */\n      dup4\n      swap3\n        /* \"DripWarrior/poolContract.sol\":13592:13618  userRegistered[msg.sender] */\n      swap1\n        /* \"DripWarrior/poolContract.sol\":13592:13644  userRegistered[msg.sender].withdrawAmount += _amount */\n      tag_340\n      swap1\n        /* \"DripWarrior/poolContract.sol\":13637:13644  _amount */\n      dup5\n      swap1\n        /* \"DripWarrior/poolContract.sol\":13592:13644  userRegistered[msg.sender].withdrawAmount += _amount */\n      tag_300\n      jump\t// in\n    tag_340:\n      swap1\n      swap2\n      sstore\n      pop\n      pop\n        /* \"DripWarrior/poolContract.sol\":13662:13674  bool success */\n      0x00\n        /* \"DripWarrior/poolContract.sol\":13677:13686  usdcToken */\n      dup1\n      sload\n        /* \"DripWarrior/poolContract.sol\":13677:13715  usdcToken.transfer(msg.sender,_amount) */\n      mload(0x40)\n      shl(0xe0, 0xa9059cbb)\n      dup2\n      mstore\n        /* \"DripWarrior/poolContract.sol\":13696:13706  msg.sender */\n      caller\n        /* \"DripWarrior/poolContract.sol\":13677:13715  usdcToken.transfer(msg.sender,_amount) */\n      0x04\n      dup3\n      add\n        /* \"#utility.yul\":8287:8338   */\n      mstore\n        /* \"#utility.yul\":8354:8372   */\n      0x24\n      dup2\n      add\n        /* \"#utility.yul\":8347:8381   */\n      dup5\n      swap1\n      mstore\n      sub(shl(0xa0, 0x01), 0x01)\n        /* \"DripWarrior/poolContract.sol\":13677:13686  usdcToken */\n      swap1\n      swap2\n      and\n      swap1\n        /* \"DripWarrior/poolContract.sol\":13677:13695  usdcToken.transfer */\n      0xa9059cbb\n      swap1\n        /* \"#utility.yul\":8260:8278   */\n      0x44\n      add\n        /* \"DripWarrior/poolContract.sol\":13677:13715  usdcToken.transfer(msg.sender,_amount) */\n      0x20\n      mload(0x40)\n      dup1\n      dup4\n      sub\n      dup2\n      0x00\n      dup8\n      gas\n      call\n      iszero\n      dup1\n      iszero\n      tag_343\n      jumpi\n      returndatasize\n      0x00\n      dup1\n      returndatacopy\n      revert(0x00, returndatasize)\n    tag_343:\n      pop\n      pop\n      pop\n      pop\n      mload(0x40)\n      returndatasize\n      not(0x1f)\n      0x1f\n      dup3\n      add\n      and\n      dup3\n      add\n      dup1\n      0x40\n      mstore\n      pop\n      dup2\n      add\n      swap1\n      tag_344\n      swap2\n      swap1\n      tag_306\n      jump\t// in\n    tag_344:\n        /* \"DripWarrior/poolContract.sol\":13662:13715  bool success = usdcToken.transfer(msg.sender,_amount) */\n      swap1\n      pop\n        /* \"DripWarrior/poolContract.sol\":13737:13744  success */\n      dup1\n        /* \"DripWarrior/poolContract.sol\":13733:13800  if(!success){... */\n      tag_345\n      jumpi\n        /* \"DripWarrior/poolContract.sol\":13766:13789  transferFailed(success) */\n      mload(0x40)\n      shl(0xe0, 0xd85d3cef)\n      dup2\n      mstore\n        /* \"#utility.yul\":1023:1037   */\n      dup2\n      iszero\n        /* \"#utility.yul\":1016:1038   */\n      iszero\n        /* \"DripWarrior/poolContract.sol\":13766:13789  transferFailed(success) */\n      0x04\n      dup3\n      add\n        /* \"#utility.yul\":998:1039   */\n      mstore\n        /* \"#utility.yul\":971:989   */\n      0x24\n      add\n        /* \"DripWarrior/poolContract.sol\":13766:13789  transferFailed(success) */\n      tag_265\n        /* \"#utility.yul\":858:1045   */\n      jump\n        /* \"DripWarrior/poolContract.sol\":13733:13800  if(!success){... */\n    tag_345:\n        /* \"DripWarrior/poolContract.sol\":13815:13844  Withdraw(msg.sender, _amount) */\n      0x40\n      dup1\n      mload\n        /* \"DripWarrior/poolContract.sol\":13824:13834  msg.sender */\n      caller\n        /* \"#utility.yul\":8287:8338   */\n      dup2\n      mstore\n        /* \"#utility.yul\":8369:8371   */\n      0x20\n        /* \"#utility.yul\":8354:8372   */\n      dup2\n      add\n        /* \"#utility.yul\":8347:8381   */\n      dup5\n      swap1\n      mstore\n        /* \"DripWarrior/poolContract.sol\":13815:13844  Withdraw(msg.sender, _amount) */\n      0x884edad9ce6fa2440d8a54cc123490eb96d2768479d49ff9c7366125a9424364\n      swap2\n        /* \"#utility.yul\":8260:8278   */\n      add\n        /* \"DripWarrior/poolContract.sol\":13815:13844  Withdraw(msg.sender, _amount) */\n      mload(0x40)\n      dup1\n      swap2\n      sub\n      swap1\n      log1\n      pop\n      pop\n        /* \"DripWarrior/poolContract.sol\":16408:16414  locked */\n      0x09\n        /* \"DripWarrior/poolContract.sol\":16408:16422  locked = false */\n      dup1\n      sload\n      not(shl(0xa8, 0xff))\n      and\n      swap1\n      sstore\n        /* \"DripWarrior/poolContract.sol\":13274:13851  function userWithdrawAmoount(uint256 _amount) external nonReentrant {... */\n      jump\t// out\n        /* \"DripWarrior/poolContract.sol\":10755:10990  function checkUpkeep(bytes calldata /*checkData*/) external override view  returns (bool, bytes memory) {... */\n    tag_150:\n        /* \"DripWarrior/poolContract.sol\":10839:10843  bool */\n      0x00\n        /* \"DripWarrior/poolContract.sol\":10845:10857  bytes memory */\n      0x60\n        /* \"DripWarrior/poolContract.sol\":10879:10895  bool needsUpkeep */\n      0x00\n        /* \"DripWarrior/poolContract.sol\":10934:10942  interval */\n      sload(0x0a)\n        /* \"DripWarrior/poolContract.sol\":10917:10930  lastTimeStamp */\n      sload(0x0d)\n        /* \"DripWarrior/poolContract.sol\":10899:10914  block.timestamp */\n      timestamp\n        /* \"DripWarrior/poolContract.sol\":10899:10930  block.timestamp - lastTimeStamp */\n      tag_349\n      swap2\n      swap1\n      tag_269\n      jump\t// in\n    tag_349:\n        /* \"DripWarrior/poolContract.sol\":10973:10982  bytes(\"\") */\n      0x40\n      dup1\n      mload\n      0x20\n      dup2\n      add\n      swap1\n      swap2\n      mstore\n      0x00\n      dup2\n      mstore\n      swap2\n      lt\n      swap7\n      swap1\n      swap6\n      pop\n        /* \"DripWarrior/poolContract.sol\":10755:10990  function checkUpkeep(bytes calldata /*checkData*/) external override view  returns (bool, bytes memory) {... */\n      swap4\n      pop\n      pop\n      pop\n      pop\n      jump\t// out\n        /* \"@openzeppelin/contracts-upgradeable/access/OwnableUpgradeable.sol\":3155:3256  function renounceOwnership() public virtual onlyOwner {... */\n    tag_155:\n        /* \"@openzeppelin/contracts-upgradeable/access/OwnableUpgradeable.sol\":2334:2347  _checkOwner() */\n      tag_351\n        /* \"@openzeppelin/contracts-upgradeable/access/OwnableUpgradeable.sol\":2334:2345  _checkOwner */\n      tag_262\n        /* \"@openzeppelin/contracts-upgradeable/access/OwnableUpgradeable.sol\":2334:2347  _checkOwner() */\n      jump\t// in\n    tag_351:\n        /* \"@openzeppelin/contracts-upgradeable/access/OwnableUpgradeable.sol\":3219:3249  _transferOwnership(address(0)) */\n      tag_353\n        /* \"@openzeppelin/contracts-upgradeable/access/OwnableUpgradeable.sol\":3246:3247  0 */\n      0x00\n        /* \"@openzeppelin/contracts-upgradeable/access/OwnableUpgradeable.sol\":3219:3237  _transferOwnership */\n      tag_354\n        /* \"@openzeppelin/contracts-upgradeable/access/OwnableUpgradeable.sol\":3219:3249  _transferOwnership(address(0)) */\n      jump\t// in\n    tag_353:\n        /* \"@openzeppelin/contracts-upgradeable/access/OwnableUpgradeable.sol\":3155:3256  function renounceOwnership() public virtual onlyOwner {... */\n      jump\t// out\n        /* \"DripWarrior/poolContract.sol\":5595:6397  function stakeTokens(uint256 _amount) external  {... */\n    tag_159:\n        /* \"DripWarrior/poolContract.sol\":5676:5677  0 */\n      0x00\n        /* \"DripWarrior/poolContract.sol\":5665:5672  _amount */\n      dup2\n        /* \"DripWarrior/poolContract.sol\":5665:5677  _amount <= 0 */\n      gt\n        /* \"DripWarrior/poolContract.sol\":5662:5730  if(_amount <= 0){... */\n      tag_356\n      jumpi\n        /* \"DripWarrior/poolContract.sol\":5699:5719  wrongAmount(_amount) */\n      mload(0x40)\n      shl(0xe4, 0x02ff4783)\n      dup2\n      mstore\n      0x04\n      dup2\n      add\n        /* \"#utility.yul\":160:185   */\n      dup3\n      swap1\n      mstore\n        /* \"#utility.yul\":133:151   */\n      0x24\n      add\n        /* \"DripWarrior/poolContract.sol\":5699:5719  wrongAmount(_amount) */\n      tag_265\n        /* \"#utility.yul\":14:191   */\n      jump\n        /* \"DripWarrior/poolContract.sol\":5662:5730  if(_amount <= 0){... */\n    tag_356:\n        /* \"DripWarrior/poolContract.sol\":5766:5776  msg.sender */\n      caller\n        /* \"DripWarrior/poolContract.sol\":5751:5777  userRegistered[msg.sender] */\n      0x00\n      swap1\n      dup2\n      mstore\n        /* \"DripWarrior/poolContract.sol\":5751:5765  userRegistered */\n      0x13\n        /* \"DripWarrior/poolContract.sol\":5751:5777  userRegistered[msg.sender] */\n      0x20\n      mstore\n      0x40\n      swap1\n      keccak256\n        /* \"DripWarrior/poolContract.sol\":5751:5785  userRegistered[msg.sender].blocked */\n      sload\n      0xff\n      and\n        /* \"DripWarrior/poolContract.sol\":5748:5865  if(userRegistered[msg.sender].blocked){... */\n      iszero\n      tag_358\n      jumpi\n        /* \"DripWarrior/poolContract.sol\":5834:5844  msg.sender */\n      caller\n        /* \"DripWarrior/poolContract.sol\":5819:5845  userRegistered[msg.sender] */\n      0x00\n      swap1\n      dup2\n      mstore\n        /* \"DripWarrior/poolContract.sol\":5819:5833  userRegistered */\n      0x13\n        /* \"DripWarrior/poolContract.sol\":5819:5845  userRegistered[msg.sender] */\n      0x20\n      mstore\n      0x40\n      swap1\n      dup2\n      swap1\n      keccak256\n        /* \"DripWarrior/poolContract.sol\":5819:5853  userRegistered[msg.sender].blocked */\n      sload\n        /* \"DripWarrior/poolContract.sol\":5807:5854  userBlocked(userRegistered[msg.sender].blocked) */\n      swap1\n      mload\n      shl(0xe6, 0x01be970f)\n      dup2\n      mstore\n        /* \"DripWarrior/poolContract.sol\":5819:5853  userRegistered[msg.sender].blocked */\n      0xff\n      swap1\n      swap2\n      and\n        /* \"#utility.yul\":1023:1037   */\n      iszero\n        /* \"#utility.yul\":1016:1038   */\n      iszero\n        /* \"DripWarrior/poolContract.sol\":5807:5854  userBlocked(userRegistered[msg.sender].blocked) */\n      0x04\n      dup3\n      add\n        /* \"#utility.yul\":998:1039   */\n      mstore\n        /* \"#utility.yul\":971:989   */\n      0x24\n      add\n        /* \"DripWarrior/poolContract.sol\":5807:5854  userBlocked(userRegistered[msg.sender].blocked) */\n      tag_265\n        /* \"#utility.yul\":858:1045   */\n      jump\n        /* \"DripWarrior/poolContract.sol\":5748:5865  if(userRegistered[msg.sender].blocked){... */\n    tag_358:\n        /* \"DripWarrior/poolContract.sol\":5890:5900  msg.sender */\n      caller\n        /* \"DripWarrior/poolContract.sol\":5875:5901  userRegistered[msg.sender] */\n      0x00\n      swap1\n      dup2\n      mstore\n        /* \"DripWarrior/poolContract.sol\":5875:5889  userRegistered */\n      0x13\n        /* \"DripWarrior/poolContract.sol\":5875:5901  userRegistered[msg.sender] */\n      0x20\n      mstore\n      0x40\n      dup2\n      keccak256\n        /* \"DripWarrior/poolContract.sol\":5875:5919  userRegistered[msg.sender].totalStakedAmount */\n      0x05\n      add\n        /* \"DripWarrior/poolContract.sol\":5875:5930  userRegistered[msg.sender].totalStakedAmount += _amount */\n      dup1\n      sload\n        /* \"DripWarrior/poolContract.sol\":5923:5930  _amount */\n      dup4\n      swap3\n        /* \"DripWarrior/poolContract.sol\":5875:5901  userRegistered[msg.sender] */\n      swap1\n        /* \"DripWarrior/poolContract.sol\":5875:5930  userRegistered[msg.sender].totalStakedAmount += _amount */\n      tag_360\n      swap1\n        /* \"DripWarrior/poolContract.sol\":5923:5930  _amount */\n      dup5\n      swap1\n        /* \"DripWarrior/poolContract.sol\":5875:5930  userRegistered[msg.sender].totalStakedAmount += _amount */\n      tag_300\n      jump\t// in\n    tag_360:\n      swap1\n      swap2\n      sstore\n      pop\n      pop\n        /* \"DripWarrior/poolContract.sol\":5965:5975  msg.sender */\n      caller\n        /* \"DripWarrior/poolContract.sol\":5952:5976  alreadyAdded[msg.sender] */\n      0x00\n      swap1\n      dup2\n      mstore\n        /* \"DripWarrior/poolContract.sol\":5952:5964  alreadyAdded */\n      0x10\n        /* \"DripWarrior/poolContract.sol\":5952:5976  alreadyAdded[msg.sender] */\n      0x20\n      mstore\n      0x40\n      swap1\n      keccak256\n      sload\n      0xff\n      and\n        /* \"DripWarrior/poolContract.sol\":5948:6119  if(!alreadyAdded[msg.sender]){... */\n      tag_361\n      jumpi\n        /* \"DripWarrior/poolContract.sol\":6015:6024  noOfUsers */\n      0x08\n      dup1\n      sload\n        /* \"DripWarrior/poolContract.sol\":6004:6025  totalUsers[noOfUsers] */\n      0x00\n      swap1\n      dup2\n      mstore\n        /* \"DripWarrior/poolContract.sol\":6004:6014  totalUsers */\n      0x11\n        /* \"DripWarrior/poolContract.sol\":6004:6025  totalUsers[noOfUsers] */\n      0x20\n      swap1\n      dup2\n      mstore\n      0x40\n      dup1\n      dup4\n      keccak256\n        /* \"DripWarrior/poolContract.sol\":6004:6038  totalUsers[noOfUsers] = msg.sender */\n      dup1\n      sload\n      not(sub(shl(0xa0, 0x01), 0x01))\n      and\n        /* \"DripWarrior/poolContract.sol\":6028:6038  msg.sender */\n      caller\n        /* \"DripWarrior/poolContract.sol\":6004:6038  totalUsers[noOfUsers] = msg.sender */\n      swap1\n      dup2\n      or\n      swap1\n      swap2\n      sstore\n        /* \"DripWarrior/poolContract.sol\":6052:6076  alreadyAdded[msg.sender] */\n      dup4\n      mstore\n        /* \"DripWarrior/poolContract.sol\":6052:6064  alreadyAdded */\n      0x10\n        /* \"DripWarrior/poolContract.sol\":6052:6076  alreadyAdded[msg.sender] */\n      swap1\n      swap2\n      mstore\n      dup2\n      keccak256\n        /* \"DripWarrior/poolContract.sol\":6052:6083  alreadyAdded[msg.sender] = true */\n      dup1\n      sload\n      not(0xff)\n      and\n        /* \"DripWarrior/poolContract.sol\":6004:6038  totalUsers[noOfUsers] = msg.sender */\n      0x01\n        /* \"DripWarrior/poolContract.sol\":6052:6083  alreadyAdded[msg.sender] = true */\n      or\n      swap1\n      sstore\n        /* \"DripWarrior/poolContract.sol\":6097:6108  noOfUsers++ */\n      dup2\n      sload\n      swap2\n        /* \"DripWarrior/poolContract.sol\":6015:6024  noOfUsers */\n      swap1\n        /* \"DripWarrior/poolContract.sol\":6097:6108  noOfUsers++ */\n      tag_362\n      dup4\n      tag_267\n      jump\t// in\n    tag_362:\n      swap2\n      swap1\n      pop\n      sstore\n      pop\n        /* \"DripWarrior/poolContract.sol\":5948:6119  if(!alreadyAdded[msg.sender]){... */\n    tag_361:\n        /* \"DripWarrior/poolContract.sol\":6150:6157  _amount */\n      dup1\n        /* \"DripWarrior/poolContract.sol\":6129:6146  totalStakedAmount */\n      0x03\n      0x00\n        /* \"DripWarrior/poolContract.sol\":6129:6157  totalStakedAmount += _amount */\n      dup3\n      dup3\n      sload\n      tag_363\n      swap2\n      swap1\n      tag_300\n      jump\t// in\n    tag_363:\n      swap1\n      swap2\n      sstore\n      pop\n      pop\n        /* \"DripWarrior/poolContract.sol\":6168:6180  bool success */\n      0x00\n        /* \"DripWarrior/poolContract.sol\":6182:6191  usdcToken */\n      dup1\n      sload\n        /* \"DripWarrior/poolContract.sol\":6216:6231  multisigAddress */\n      sload(0x09)\n        /* \"DripWarrior/poolContract.sol\":6182:6240  usdcToken.transferFrom(msg.sender,multisigAddress,_amount) */\n      mload(0x40)\n      shl(0xe0, 0x23b872dd)\n      dup2\n      mstore\n      sub(shl(0xa0, 0x01), 0x01)\n        /* \"DripWarrior/poolContract.sol\":6182:6191  usdcToken */\n      swap3\n      dup4\n      and\n      swap3\n        /* \"DripWarrior/poolContract.sol\":6182:6204  usdcToken.transferFrom */\n      0x23b872dd\n      swap3\n        /* \"DripWarrior/poolContract.sol\":6182:6240  usdcToken.transferFrom(msg.sender,multisigAddress,_amount) */\n      tag_364\n      swap3\n        /* \"DripWarrior/poolContract.sol\":6205:6215  msg.sender */\n      caller\n      swap3\n        /* \"DripWarrior/poolContract.sol\":6216:6231  multisigAddress */\n      swap1\n      swap2\n      and\n      swap1\n        /* \"DripWarrior/poolContract.sol\":6232:6239  _amount */\n      dup8\n      swap1\n        /* \"DripWarrior/poolContract.sol\":6182:6240  usdcToken.transferFrom(msg.sender,multisigAddress,_amount) */\n      0x04\n      add\n      tag_302\n      jump\t// in\n    tag_364:\n      0x20\n      mload(0x40)\n      dup1\n      dup4\n      sub\n      dup2\n      0x00\n      dup8\n      gas\n      call\n      iszero\n      dup1\n      iszero\n      tag_366\n      jumpi\n      returndatasize\n      0x00\n      dup1\n      returndatacopy\n      revert(0x00, returndatasize)\n    tag_366:\n      pop\n      pop\n      pop\n      pop\n      mload(0x40)\n      returndatasize\n      not(0x1f)\n      0x1f\n      dup3\n      add\n      and\n      dup3\n      add\n      dup1\n      0x40\n      mstore\n      pop\n      dup2\n      add\n      swap1\n      tag_367\n      swap2\n      swap1\n      tag_306\n      jump\t// in\n    tag_367:\n        /* \"DripWarrior/poolContract.sol\":6168:6240  bool success =usdcToken.transferFrom(msg.sender,multisigAddress,_amount) */\n      swap1\n      pop\n        /* \"DripWarrior/poolContract.sol\":6263:6270  success */\n      dup1\n        /* \"DripWarrior/poolContract.sol\":6259:6326  if(!success){... */\n      tag_368\n      jumpi\n        /* \"DripWarrior/poolContract.sol\":6292:6315  transferFailed(success) */\n      mload(0x40)\n      shl(0xe0, 0xd85d3cef)\n      dup2\n      mstore\n        /* \"#utility.yul\":1023:1037   */\n      dup2\n      iszero\n        /* \"#utility.yul\":1016:1038   */\n      iszero\n        /* \"DripWarrior/poolContract.sol\":6292:6315  transferFailed(success) */\n      0x04\n      dup3\n      add\n        /* \"#utility.yul\":998:1039   */\n      mstore\n        /* \"#utility.yul\":971:989   */\n      0x24\n      add\n        /* \"DripWarrior/poolContract.sol\":6292:6315  transferFailed(success) */\n      tag_265\n        /* \"#utility.yul\":858:1045   */\n      jump\n        /* \"DripWarrior/poolContract.sol\":6259:6326  if(!success){... */\n    tag_368:\n        /* \"DripWarrior/poolContract.sol\":6364:6379  multisigAddress */\n      sload(0x09)\n        /* \"DripWarrior/poolContract.sol\":6341:6389  StakeTokens(msg.sender,multisigAddress, _amount) */\n      mload(0x40)\n      0x14ee34c24635186d212f515353dadae9c226529edef2d1fcf5504cb33b5c25ab\n      swap2\n      tag_309\n      swap2\n        /* \"DripWarrior/poolContract.sol\":6353:6363  msg.sender */\n      caller\n      swap2\n      sub(shl(0xa0, 0x01), 0x01)\n        /* \"DripWarrior/poolContract.sol\":6364:6379  multisigAddress */\n      and\n      swap1\n        /* \"DripWarrior/poolContract.sol\":6381:6388  _amount */\n      dup7\n      swap1\n        /* \"DripWarrior/poolContract.sol\":6341:6389  StakeTokens(msg.sender,multisigAddress, _amount) */\n      tag_302\n      jump\t// in\n        /* \"DripWarrior/poolContract.sol\":4778:5179  function addOwnership(uint256 _amount) external onlyOwner(){... */\n    tag_163:\n        /* \"@openzeppelin/contracts-upgradeable/access/OwnableUpgradeable.sol\":2334:2347  _checkOwner() */\n      tag_372\n        /* \"@openzeppelin/contracts-upgradeable/access/OwnableUpgradeable.sol\":2334:2345  _checkOwner */\n      tag_262\n        /* \"@openzeppelin/contracts-upgradeable/access/OwnableUpgradeable.sol\":2334:2347  _checkOwner() */\n      jump\t// in\n    tag_372:\n        /* \"DripWarrior/poolContract.sol\":4870:4871  0 */\n      0x00\n        /* \"DripWarrior/poolContract.sol\":4859:4866  _amount */\n      dup2\n        /* \"DripWarrior/poolContract.sol\":4859:4871  _amount <= 0 */\n      gt\n        /* \"DripWarrior/poolContract.sol\":4856:4924  if(_amount <= 0){... */\n      tag_374\n      jumpi\n        /* \"DripWarrior/poolContract.sol\":4893:4913  wrongAmount(_amount) */\n      mload(0x40)\n      shl(0xe4, 0x02ff4783)\n      dup2\n      mstore\n      0x04\n      dup2\n      add\n        /* \"#utility.yul\":160:185   */\n      dup3\n      swap1\n      mstore\n        /* \"#utility.yul\":133:151   */\n      0x24\n      add\n        /* \"DripWarrior/poolContract.sol\":4893:4913  wrongAmount(_amount) */\n      tag_265\n        /* \"#utility.yul\":14:191   */\n      jump\n        /* \"DripWarrior/poolContract.sol\":4856:4924  if(_amount <= 0){... */\n    tag_374:\n        /* \"DripWarrior/poolContract.sol\":4957:4964  _amount */\n      dup1\n        /* \"DripWarrior/poolContract.sol\":4934:4953  ownerShipPoolAmount */\n      0x02\n      0x00\n        /* \"DripWarrior/poolContract.sol\":4934:4964  ownerShipPoolAmount += _amount */\n      dup3\n      dup3\n      sload\n      tag_376\n      swap2\n      swap1\n      tag_300\n      jump\t// in\n    tag_376:\n      swap1\n      swap2\n      sstore\n      pop\n      pop\n        /* \"DripWarrior/poolContract.sol\":4975:4987  bool success */\n      0x00\n        /* \"DripWarrior/poolContract.sol\":4990:4999  usdcToken */\n      dup1\n      sload\n        /* \"DripWarrior/poolContract.sol\":4990:5047  usdcToken.transferFrom(msg.sender,address(this),_amount ) */\n      mload(0x40)\n      shl(0xe0, 0x23b872dd)\n      dup2\n      mstore\n      sub(shl(0xa0, 0x01), 0x01)\n        /* \"DripWarrior/poolContract.sol\":4990:4999  usdcToken */\n      swap1\n      swap2\n      and\n      swap1\n        /* \"DripWarrior/poolContract.sol\":4990:5012  usdcToken.transferFrom */\n      0x23b872dd\n      swap1\n        /* \"DripWarrior/poolContract.sol\":4990:5047  usdcToken.transferFrom(msg.sender,address(this),_amount ) */\n      tag_377\n      swap1\n        /* \"DripWarrior/poolContract.sol\":5013:5023  msg.sender */\n      caller\n      swap1\n        /* \"DripWarrior/poolContract.sol\":5032:5036  this */\n      address\n      swap1\n        /* \"DripWarrior/poolContract.sol\":5038:5045  _amount */\n      dup8\n      swap1\n        /* \"DripWarrior/poolContract.sol\":4990:5047  usdcToken.transferFrom(msg.sender,address(this),_amount ) */\n      0x04\n      add\n      tag_302\n      jump\t// in\n    tag_377:\n      0x20\n      mload(0x40)\n      dup1\n      dup4\n      sub\n      dup2\n      0x00\n      dup8\n      gas\n      call\n      iszero\n      dup1\n      iszero\n      tag_379\n      jumpi\n      returndatasize\n      0x00\n      dup1\n      returndatacopy\n      revert(0x00, returndatasize)\n    tag_379:\n      pop\n      pop\n      pop\n      pop\n      mload(0x40)\n      returndatasize\n      not(0x1f)\n      0x1f\n      dup3\n      add\n      and\n      dup3\n      add\n      dup1\n      0x40\n      mstore\n      pop\n      dup2\n      add\n      swap1\n      tag_380\n      swap2\n      swap1\n      tag_306\n      jump\t// in\n    tag_380:\n        /* \"DripWarrior/poolContract.sol\":4975:5047  bool success = usdcToken.transferFrom(msg.sender,address(this),_amount ) */\n      swap1\n      pop\n        /* \"DripWarrior/poolContract.sol\":5061:5068  success */\n      dup1\n        /* \"DripWarrior/poolContract.sol\":5057:5124  if(!success){... */\n      tag_381\n      jumpi\n        /* \"DripWarrior/poolContract.sol\":5090:5113  transferFailed(success) */\n      mload(0x40)\n      shl(0xe0, 0xd85d3cef)\n      dup2\n      mstore\n        /* \"#utility.yul\":1023:1037   */\n      dup2\n      iszero\n        /* \"#utility.yul\":1016:1038   */\n      iszero\n        /* \"DripWarrior/poolContract.sol\":5090:5113  transferFailed(success) */\n      0x04\n      dup3\n      add\n        /* \"#utility.yul\":998:1039   */\n      mstore\n        /* \"#utility.yul\":971:989   */\n      0x24\n      add\n        /* \"DripWarrior/poolContract.sol\":5090:5113  transferFailed(success) */\n      tag_265\n        /* \"#utility.yul\":858:1045   */\n      jump\n        /* \"DripWarrior/poolContract.sol\":5057:5124  if(!success){... */\n    tag_381:\n        /* \"DripWarrior/poolContract.sol\":5139:5172  AddOwnership(ownerShipPoolAmount) */\n      0x73834e1d1ee73ba659470a3603b888903853d3a3c9fda34e71c093a0e35cab94\n        /* \"DripWarrior/poolContract.sol\":5152:5171  ownerShipPoolAmount */\n      sload(0x02)\n        /* \"DripWarrior/poolContract.sol\":5139:5172  AddOwnership(ownerShipPoolAmount) */\n      mload(0x40)\n      tag_309\n      swap2\n        /* \"#utility.yul\":160:185   */\n      dup2\n      mstore\n        /* \"#utility.yul\":148:150   */\n      0x20\n        /* \"#utility.yul\":133:151   */\n      add\n      swap1\n        /* \"#utility.yul\":14:191   */\n      jump\n        /* \"DripWarrior/poolContract.sol\":15782:16105  function setmaintainceFeePercentage(uint256 _newPerccentage) external onlyOwner {... */\n    tag_167:\n        /* \"@openzeppelin/contracts-upgradeable/access/OwnableUpgradeable.sol\":2334:2347  _checkOwner() */\n      tag_385\n        /* \"@openzeppelin/contracts-upgradeable/access/OwnableUpgradeable.sol\":2334:2345  _checkOwner */\n      tag_262\n        /* \"@openzeppelin/contracts-upgradeable/access/OwnableUpgradeable.sol\":2334:2347  _checkOwner() */\n      jump\t// in\n    tag_385:\n        /* \"DripWarrior/poolContract.sol\":15903:15904  0 */\n      0x00\n        /* \"DripWarrior/poolContract.sol\":15884:15899  _newPerccentage */\n      dup2\n        /* \"DripWarrior/poolContract.sol\":15884:15904  _newPerccentage <= 0 */\n      gt\n        /* \"DripWarrior/poolContract.sol\":15881:15969  if(_newPerccentage <= 0){... */\n      tag_387\n      jumpi\n        /* \"DripWarrior/poolContract.sol\":15926:15958  wrongPercentage(_newPerccentage) */\n      mload(0x40)\n      shl(0xe0, 0xcdbc6335)\n      dup2\n      mstore\n      0x04\n      dup2\n      add\n        /* \"#utility.yul\":160:185   */\n      dup3\n      swap1\n      mstore\n        /* \"#utility.yul\":133:151   */\n      0x24\n      add\n        /* \"DripWarrior/poolContract.sol\":15926:15958  wrongPercentage(_newPerccentage) */\n      tag_265\n        /* \"#utility.yul\":14:191   */\n      jump\n        /* \"DripWarrior/poolContract.sol\":15881:15969  if(_newPerccentage <= 0){... */\n    tag_387:\n        /* \"DripWarrior/poolContract.sol\":15987:16010  maintainceFeePercentage */\n      0x07\n        /* \"DripWarrior/poolContract.sol\":15987:16028  maintainceFeePercentage = _newPerccentage */\n      dup2\n      swap1\n      sstore\n        /* \"DripWarrior/poolContract.sol\":16044:16098  PercentageChanged(msg.sender, maintainceFeePercentage) */\n      0x40\n      dup1\n      mload\n        /* \"DripWarrior/poolContract.sol\":16062:16072  msg.sender */\n      caller\n        /* \"#utility.yul\":8287:8338   */\n      dup2\n      mstore\n        /* \"#utility.yul\":8369:8371   */\n      0x20\n        /* \"#utility.yul\":8354:8372   */\n      dup2\n      add\n        /* \"#utility.yul\":8347:8381   */\n      dup4\n      swap1\n      mstore\n      0x00\n      dup1\n      mload\n      0x20\n      data_d85598d6ea860439b48fc265883a1cac638ff64dca5391fe12b46f27076e26fe\n      dup4\n      codecopy\n      dup2\n      mload\n      swap2\n      mstore\n        /* \"DripWarrior/poolContract.sol\":16044:16098  PercentageChanged(msg.sender, maintainceFeePercentage) */\n      swap2\n        /* \"#utility.yul\":8260:8278   */\n      add\n        /* \"DripWarrior/poolContract.sol\":16044:16098  PercentageChanged(msg.sender, maintainceFeePercentage) */\n      tag_270\n        /* \"#utility.yul\":8113:8387   */\n      jump\n        /* \"DripWarrior/poolContract.sol\":14771:15101  function settdividentPayoutPercentage(uint256 _newPerccentage) external onlyOwner {... */\n    tag_171:\n        /* \"@openzeppelin/contracts-upgradeable/access/OwnableUpgradeable.sol\":2334:2347  _checkOwner() */\n      tag_391\n        /* \"@openzeppelin/contracts-upgradeable/access/OwnableUpgradeable.sol\":2334:2345  _checkOwner */\n      tag_262\n        /* \"@openzeppelin/contracts-upgradeable/access/OwnableUpgradeable.sol\":2334:2347  _checkOwner() */\n      jump\t// in\n    tag_391:\n        /* \"DripWarrior/poolContract.sol\":14894:14895  0 */\n      0x00\n        /* \"DripWarrior/poolContract.sol\":14875:14890  _newPerccentage */\n      dup2\n        /* \"DripWarrior/poolContract.sol\":14875:14895  _newPerccentage <= 0 */\n      gt\n        /* \"DripWarrior/poolContract.sol\":14872:14960  if(_newPerccentage <= 0){... */\n      tag_393\n      jumpi\n        /* \"DripWarrior/poolContract.sol\":14917:14949  wrongPercentage(_newPerccentage) */\n      mload(0x40)\n      shl(0xe0, 0xcdbc6335)\n      dup2\n      mstore\n      0x04\n      dup2\n      add\n        /* \"#utility.yul\":160:185   */\n      dup3\n      swap1\n      mstore\n        /* \"#utility.yul\":133:151   */\n      0x24\n      add\n        /* \"DripWarrior/poolContract.sol\":14917:14949  wrongPercentage(_newPerccentage) */\n      tag_265\n        /* \"#utility.yul\":14:191   */\n      jump\n        /* \"DripWarrior/poolContract.sol\":14872:14960  if(_newPerccentage <= 0){... */\n    tag_393:\n        /* \"DripWarrior/poolContract.sol\":14978:15003  tdividentPayoutPercentage */\n      0x04\n        /* \"DripWarrior/poolContract.sol\":14978:15021  tdividentPayoutPercentage = _newPerccentage */\n      dup2\n      swap1\n      sstore\n        /* \"DripWarrior/poolContract.sol\":15037:15093  PercentageChanged(msg.sender, tdividentPayoutPercentage) */\n      0x40\n      dup1\n      mload\n        /* \"DripWarrior/poolContract.sol\":15055:15065  msg.sender */\n      caller\n        /* \"#utility.yul\":8287:8338   */\n      dup2\n      mstore\n        /* \"#utility.yul\":8369:8371   */\n      0x20\n        /* \"#utility.yul\":8354:8372   */\n      dup2\n      add\n        /* \"#utility.yul\":8347:8381   */\n      dup4\n      swap1\n      mstore\n      0x00\n      dup1\n      mload\n      0x20\n      data_d85598d6ea860439b48fc265883a1cac638ff64dca5391fe12b46f27076e26fe\n      dup4\n      codecopy\n      dup2\n      mload\n      swap2\n      mstore\n        /* \"DripWarrior/poolContract.sol\":15037:15093  PercentageChanged(msg.sender, tdividentPayoutPercentage) */\n      swap2\n        /* \"#utility.yul\":8260:8278   */\n      add\n        /* \"DripWarrior/poolContract.sol\":15037:15093  PercentageChanged(msg.sender, tdividentPayoutPercentage) */\n      tag_270\n        /* \"#utility.yul\":8113:8387   */\n      jump\n        /* \"DripWarrior/poolContract.sol\":6403:7081  function reStakeTokens(uint256 _amount) external  {... */\n    tag_175:\n        /* \"DripWarrior/poolContract.sol\":6486:6487  0 */\n      0x00\n        /* \"DripWarrior/poolContract.sol\":6475:6482  _amount */\n      dup2\n        /* \"DripWarrior/poolContract.sol\":6475:6487  _amount <= 0 */\n      gt\n        /* \"DripWarrior/poolContract.sol\":6472:6540  if(_amount <= 0){... */\n      tag_397\n      jumpi\n        /* \"DripWarrior/poolContract.sol\":6509:6529  wrongAmount(_amount) */\n      mload(0x40)\n      shl(0xe4, 0x02ff4783)\n      dup2\n      mstore\n      0x04\n      dup2\n      add\n        /* \"#utility.yul\":160:185   */\n      dup3\n      swap1\n      mstore\n        /* \"#utility.yul\":133:151   */\n      0x24\n      add\n        /* \"DripWarrior/poolContract.sol\":6509:6529  wrongAmount(_amount) */\n      tag_265\n        /* \"#utility.yul\":14:191   */\n      jump\n        /* \"DripWarrior/poolContract.sol\":6472:6540  if(_amount <= 0){... */\n    tag_397:\n        /* \"DripWarrior/poolContract.sol\":6575:6585  msg.sender */\n      caller\n        /* \"DripWarrior/poolContract.sol\":6560:6586  userRegistered[msg.sender] */\n      0x00\n      swap1\n      dup2\n      mstore\n        /* \"DripWarrior/poolContract.sol\":6560:6574  userRegistered */\n      0x13\n        /* \"DripWarrior/poolContract.sol\":6560:6586  userRegistered[msg.sender] */\n      0x20\n      mstore\n      0x40\n      swap1\n      keccak256\n        /* \"DripWarrior/poolContract.sol\":6560:6594  userRegistered[msg.sender].blocked */\n      sload\n      0xff\n      and\n        /* \"DripWarrior/poolContract.sol\":6557:6674  if(userRegistered[msg.sender].blocked){... */\n      iszero\n      tag_399\n      jumpi\n        /* \"DripWarrior/poolContract.sol\":6643:6653  msg.sender */\n      caller\n        /* \"DripWarrior/poolContract.sol\":6628:6654  userRegistered[msg.sender] */\n      0x00\n      swap1\n      dup2\n      mstore\n        /* \"DripWarrior/poolContract.sol\":6628:6642  userRegistered */\n      0x13\n        /* \"DripWarrior/poolContract.sol\":6628:6654  userRegistered[msg.sender] */\n      0x20\n      mstore\n      0x40\n      swap1\n      dup2\n      swap1\n      keccak256\n        /* \"DripWarrior/poolContract.sol\":6628:6662  userRegistered[msg.sender].blocked */\n      sload\n        /* \"DripWarrior/poolContract.sol\":6616:6663  userBlocked(userRegistered[msg.sender].blocked) */\n      swap1\n      mload\n      shl(0xe6, 0x01be970f)\n      dup2\n      mstore\n        /* \"DripWarrior/poolContract.sol\":6628:6662  userRegistered[msg.sender].blocked */\n      0xff\n      swap1\n      swap2\n      and\n        /* \"#utility.yul\":1023:1037   */\n      iszero\n        /* \"#utility.yul\":1016:1038   */\n      iszero\n        /* \"DripWarrior/poolContract.sol\":6616:6663  userBlocked(userRegistered[msg.sender].blocked) */\n      0x04\n      dup3\n      add\n        /* \"#utility.yul\":998:1039   */\n      mstore\n        /* \"#utility.yul\":971:989   */\n      0x24\n      add\n        /* \"DripWarrior/poolContract.sol\":6616:6663  userBlocked(userRegistered[msg.sender].blocked) */\n      tag_265\n        /* \"#utility.yul\":858:1045   */\n      jump\n        /* \"DripWarrior/poolContract.sol\":6557:6674  if(userRegistered[msg.sender].blocked){... */\n    tag_399:\n        /* \"DripWarrior/poolContract.sol\":6702:6712  msg.sender */\n      caller\n        /* \"DripWarrior/poolContract.sol\":6687:6713  userRegistered[msg.sender] */\n      0x00\n      swap1\n      dup2\n      mstore\n        /* \"DripWarrior/poolContract.sol\":6687:6701  userRegistered */\n      0x13\n        /* \"DripWarrior/poolContract.sol\":6687:6713  userRegistered[msg.sender] */\n      0x20\n      mstore\n      0x40\n      swap1\n      keccak256\n        /* \"DripWarrior/poolContract.sol\":6687:6728  userRegistered[msg.sender].receivedAmount */\n      0x01\n      add\n      sload\n        /* \"DripWarrior/poolContract.sol\":6687:6739  userRegistered[msg.sender].receivedAmount <= _amount */\n      dup2\n      lt\n        /* \"DripWarrior/poolContract.sol\":6684:6797  if(userRegistered[msg.sender].receivedAmount <= _amount){... */\n      tag_401\n      jumpi\n        /* \"DripWarrior/poolContract.sol\":6761:6786  notEnoughBalance(_amount) */\n      mload(0x40)\n      shl(0xe3, 0x0636dc6b)\n      dup2\n      mstore\n      0x04\n      dup2\n      add\n        /* \"#utility.yul\":160:185   */\n      dup3\n      swap1\n      mstore\n        /* \"#utility.yul\":133:151   */\n      0x24\n      add\n        /* \"DripWarrior/poolContract.sol\":6761:6786  notEnoughBalance(_amount) */\n      tag_265\n        /* \"#utility.yul\":14:191   */\n      jump\n        /* \"DripWarrior/poolContract.sol\":6684:6797  if(userRegistered[msg.sender].receivedAmount <= _amount){... */\n    tag_401:\n        /* \"DripWarrior/poolContract.sol\":6822:6832  msg.sender */\n      caller\n        /* \"DripWarrior/poolContract.sol\":6807:6833  userRegistered[msg.sender] */\n      0x00\n      swap1\n      dup2\n      mstore\n        /* \"DripWarrior/poolContract.sol\":6807:6821  userRegistered */\n      0x13\n        /* \"DripWarrior/poolContract.sol\":6807:6833  userRegistered[msg.sender] */\n      0x20\n      mstore\n      0x40\n      dup2\n      keccak256\n        /* \"DripWarrior/poolContract.sol\":6807:6848  userRegistered[msg.sender].receivedAmount */\n      0x01\n      add\n        /* \"DripWarrior/poolContract.sol\":6807:6859  userRegistered[msg.sender].receivedAmount -= _amount */\n      dup1\n      sload\n        /* \"DripWarrior/poolContract.sol\":6852:6859  _amount */\n      dup4\n      swap3\n        /* \"DripWarrior/poolContract.sol\":6807:6833  userRegistered[msg.sender] */\n      swap1\n        /* \"DripWarrior/poolContract.sol\":6807:6859  userRegistered[msg.sender].receivedAmount -= _amount */\n      tag_403\n      swap1\n        /* \"DripWarrior/poolContract.sol\":6852:6859  _amount */\n      dup5\n      swap1\n        /* \"DripWarrior/poolContract.sol\":6807:6859  userRegistered[msg.sender].receivedAmount -= _amount */\n      tag_269\n      jump\t// in\n    tag_403:\n      swap1\n      swap2\n      sstore\n      pop\n      pop\n        /* \"DripWarrior/poolContract.sol\":6884:6894  msg.sender */\n      caller\n        /* \"DripWarrior/poolContract.sol\":6869:6895  userRegistered[msg.sender] */\n      0x00\n      swap1\n      dup2\n      mstore\n        /* \"DripWarrior/poolContract.sol\":6869:6883  userRegistered */\n      0x13\n        /* \"DripWarrior/poolContract.sol\":6869:6895  userRegistered[msg.sender] */\n      0x20\n      mstore\n      0x40\n      dup2\n      keccak256\n        /* \"DripWarrior/poolContract.sol\":6869:6913  userRegistered[msg.sender].totalStakedAmount */\n      0x05\n      add\n        /* \"DripWarrior/poolContract.sol\":6869:6924  userRegistered[msg.sender].totalStakedAmount += _amount */\n      dup1\n      sload\n        /* \"DripWarrior/poolContract.sol\":6917:6924  _amount */\n      dup4\n      swap3\n        /* \"DripWarrior/poolContract.sol\":6869:6895  userRegistered[msg.sender] */\n      swap1\n        /* \"DripWarrior/poolContract.sol\":6869:6924  userRegistered[msg.sender].totalStakedAmount += _amount */\n      tag_404\n      swap1\n        /* \"DripWarrior/poolContract.sol\":6917:6924  _amount */\n      dup5\n      swap1\n        /* \"DripWarrior/poolContract.sol\":6869:6924  userRegistered[msg.sender].totalStakedAmount += _amount */\n      tag_300\n      jump\t// in\n    tag_404:\n      swap3\n      pop\n      pop\n      dup2\n      swap1\n      sstore\n      pop\n        /* \"DripWarrior/poolContract.sol\":6966:6973  _amount */\n      dup1\n        /* \"DripWarrior/poolContract.sol\":6943:6962  ownerShipPoolAmount */\n      0x02\n      0x00\n        /* \"DripWarrior/poolContract.sol\":6943:6973  ownerShipPoolAmount += _amount */\n      dup3\n      dup3\n      sload\n      tag_405\n      swap2\n      swap1\n      tag_300\n      jump\t// in\n    tag_405:\n      swap3\n      pop\n      pop\n      dup2\n      swap1\n      sstore\n      pop\n        /* \"DripWarrior/poolContract.sol\":7004:7011  _amount */\n      dup1\n        /* \"DripWarrior/poolContract.sol\":6983:7000  totalStakedAmount */\n      0x03\n      0x00\n        /* \"DripWarrior/poolContract.sol\":6983:7011  totalStakedAmount += _amount */\n      dup3\n      dup3\n      sload\n      tag_406\n      swap2\n      swap1\n      tag_300\n      jump\t// in\n    tag_406:\n      swap1\n      swap2\n      sstore\n      pop\n      pop\n        /* \"DripWarrior/poolContract.sol\":7027:7073  StakeTokens(msg.sender,address(this), _amount) */\n      mload(0x40)\n      0x14ee34c24635186d212f515353dadae9c226529edef2d1fcf5504cb33b5c25ab\n      swap1\n      tag_270\n      swap1\n        /* \"DripWarrior/poolContract.sol\":7039:7049  msg.sender */\n      caller\n      swap1\n        /* \"DripWarrior/poolContract.sol\":7058:7062  this */\n      address\n      swap1\n        /* \"DripWarrior/poolContract.sol\":7065:7072  _amount */\n      dup6\n      swap1\n        /* \"DripWarrior/poolContract.sol\":7027:7073  StakeTokens(msg.sender,address(this), _amount) */\n      tag_302\n      jump\t// in\n        /* \"DripWarrior/poolContract.sol\":7091:7632  function addFunds(uint256 _amount, uint256 _projectNo)   external {... */\n    tag_179:\n        /* \"DripWarrior/poolContract.sol\":7182:7183  0 */\n      0x00\n        /* \"DripWarrior/poolContract.sol\":7171:7178  _amount */\n      dup3\n        /* \"DripWarrior/poolContract.sol\":7171:7183  _amount <= 0 */\n      gt\n        /* \"DripWarrior/poolContract.sol\":7168:7236  if(_amount <= 0){... */\n      tag_409\n      jumpi\n        /* \"DripWarrior/poolContract.sol\":7205:7225  wrongAmount(_amount) */\n      mload(0x40)\n      shl(0xe4, 0x02ff4783)\n      dup2\n      mstore\n      0x04\n      dup2\n      add\n        /* \"#utility.yul\":160:185   */\n      dup4\n      swap1\n      mstore\n        /* \"#utility.yul\":133:151   */\n      0x24\n      add\n        /* \"DripWarrior/poolContract.sol\":7205:7225  wrongAmount(_amount) */\n      tag_265\n        /* \"#utility.yul\":14:191   */\n      jump\n        /* \"DripWarrior/poolContract.sol\":7168:7236  if(_amount <= 0){... */\n    tag_409:\n        /* \"DripWarrior/poolContract.sol\":7262:7275  totalProjects */\n      sload(0x0f)\n        /* \"DripWarrior/poolContract.sol\":7249:7259  _projectNo */\n      dup2\n        /* \"DripWarrior/poolContract.sol\":7249:7275  _projectNo > totalProjects */\n      gt\n        /* \"DripWarrior/poolContract.sol\":7246:7334  if(_projectNo > totalProjects){... */\n      iszero\n      tag_411\n      jumpi\n        /* \"DripWarrior/poolContract.sol\":7297:7323  wrongProjectNo(_projectNo) */\n      mload(0x40)\n      shl(0xe0, 0x222a50f3)\n      dup2\n      mstore\n      0x04\n      dup2\n      add\n        /* \"#utility.yul\":160:185   */\n      dup3\n      swap1\n      mstore\n        /* \"#utility.yul\":133:151   */\n      0x24\n      add\n        /* \"DripWarrior/poolContract.sol\":7297:7323  wrongProjectNo(_projectNo) */\n      tag_265\n        /* \"#utility.yul\":14:191   */\n      jump\n        /* \"DripWarrior/poolContract.sol\":7246:7334  if(_projectNo > totalProjects){... */\n    tag_411:\n        /* \"DripWarrior/poolContract.sol\":7379:7404  tPPercentages[_projectNo] */\n      0x00\n      dup2\n      dup2\n      mstore\n        /* \"DripWarrior/poolContract.sol\":7379:7392  tPPercentages */\n      0x12\n        /* \"DripWarrior/poolContract.sol\":7379:7404  tPPercentages[_projectNo] */\n      0x20\n      mstore\n      0x40\n      swap1\n      keccak256\n      sload\n        /* \"DripWarrior/poolContract.sol\":7356:7405  calculateFees(_amount, tPPercentages[_projectNo]) */\n      tag_413\n      swap1\n        /* \"DripWarrior/poolContract.sol\":7370:7377  _amount */\n      dup4\n      swap1\n        /* \"DripWarrior/poolContract.sol\":7356:7369  calculateFees */\n      tag_414\n        /* \"DripWarrior/poolContract.sol\":7356:7405  calculateFees(_amount, tPPercentages[_projectNo]) */\n      jump\t// in\n    tag_413:\n        /* \"DripWarrior/poolContract.sol\":7424:7436  bool success */\n      0x00\n        /* \"DripWarrior/poolContract.sol\":7439:7448  usdcToken */\n      dup1\n      sload\n        /* \"DripWarrior/poolContract.sol\":7439:7496  usdcToken.transferFrom(msg.sender,address(this),_amount ) */\n      mload(0x40)\n      shl(0xe0, 0x23b872dd)\n      dup2\n      mstore\n      sub(shl(0xa0, 0x01), 0x01)\n        /* \"DripWarrior/poolContract.sol\":7439:7448  usdcToken */\n      swap1\n      swap2\n      and\n      swap1\n        /* \"DripWarrior/poolContract.sol\":7439:7461  usdcToken.transferFrom */\n      0x23b872dd\n      swap1\n        /* \"DripWarrior/poolContract.sol\":7439:7496  usdcToken.transferFrom(msg.sender,address(this),_amount ) */\n      tag_415\n      swap1\n        /* \"DripWarrior/poolContract.sol\":7462:7472  msg.sender */\n      caller\n      swap1\n        /* \"DripWarrior/poolContract.sol\":7481:7485  this */\n      address\n      swap1\n        /* \"DripWarrior/poolContract.sol\":7487:7494  _amount */\n      dup9\n      swap1\n        /* \"DripWarrior/poolContract.sol\":7439:7496  usdcToken.transferFrom(msg.sender,address(this),_amount ) */\n      0x04\n      add\n      tag_302\n      jump\t// in\n    tag_415:\n      0x20\n      mload(0x40)\n      dup1\n      dup4\n      sub\n      dup2\n      0x00\n      dup8\n      gas\n      call\n      iszero\n      dup1\n      iszero\n      tag_417\n      jumpi\n      returndatasize\n      0x00\n      dup1\n      returndatacopy\n      revert(0x00, returndatasize)\n    tag_417:\n      pop\n      pop\n      pop\n      pop\n      mload(0x40)\n      returndatasize\n      not(0x1f)\n      0x1f\n      dup3\n      add\n      and\n      dup3\n      add\n      dup1\n      0x40\n      mstore\n      pop\n      dup2\n      add\n      swap1\n      tag_418\n      swap2\n      swap1\n      tag_306\n      jump\t// in\n    tag_418:\n        /* \"DripWarrior/poolContract.sol\":7424:7496  bool success = usdcToken.transferFrom(msg.sender,address(this),_amount ) */\n      swap1\n      pop\n        /* \"DripWarrior/poolContract.sol\":7510:7517  success */\n      dup1\n        /* \"DripWarrior/poolContract.sol\":7506:7573  if(!success){... */\n      tag_419\n      jumpi\n        /* \"DripWarrior/poolContract.sol\":7539:7562  transferFailed(success) */\n      mload(0x40)\n      shl(0xe0, 0xd85d3cef)\n      dup2\n      mstore\n        /* \"#utility.yul\":1023:1037   */\n      dup2\n      iszero\n        /* \"#utility.yul\":1016:1038   */\n      iszero\n        /* \"DripWarrior/poolContract.sol\":7539:7562  transferFailed(success) */\n      0x04\n      dup3\n      add\n        /* \"#utility.yul\":998:1039   */\n      mstore\n        /* \"#utility.yul\":971:989   */\n      0x24\n      add\n        /* \"DripWarrior/poolContract.sol\":7539:7562  transferFailed(success) */\n      tag_265\n        /* \"#utility.yul\":858:1045   */\n      jump\n        /* \"DripWarrior/poolContract.sol\":7506:7573  if(!success){... */\n    tag_419:\n        /* \"DripWarrior/poolContract.sol\":7588:7616  AddFunds(_amount,_projectNo) */\n      0x40\n      dup1\n      mload\n        /* \"#utility.yul\":9271:9296   */\n      dup5\n      dup2\n      mstore\n        /* \"#utility.yul\":9327:9329   */\n      0x20\n        /* \"#utility.yul\":9312:9330   */\n      dup2\n      add\n        /* \"#utility.yul\":9305:9339   */\n      dup5\n      swap1\n      mstore\n        /* \"DripWarrior/poolContract.sol\":7588:7616  AddFunds(_amount,_projectNo) */\n      0xa89b69c5958ec1ccf0df0de746a8708f5b6a6b429430129f16f46f44b319c900\n      swap2\n        /* \"#utility.yul\":9244:9262   */\n      add\n        /* \"DripWarrior/poolContract.sol\":7588:7616  AddFunds(_amount,_projectNo) */\n      mload(0x40)\n      dup1\n      swap2\n      sub\n      swap1\n      log1\n        /* \"DripWarrior/poolContract.sol\":7157:7632  {... */\n      pop\n        /* \"DripWarrior/poolContract.sol\":7091:7632  function addFunds(uint256 _amount, uint256 _projectNo)   external {... */\n      pop\n      pop\n      jump\t// out\n        /* \"DripWarrior/poolContract.sol\":15451:15776  function setflowToTreasuryPercentage(uint256 _newPerccentage) external onlyOwner {... */\n    tag_205:\n        /* \"@openzeppelin/contracts-upgradeable/access/OwnableUpgradeable.sol\":2334:2347  _checkOwner() */\n      tag_427\n        /* \"@openzeppelin/contracts-upgradeable/access/OwnableUpgradeable.sol\":2334:2345  _checkOwner */\n      tag_262\n        /* \"@openzeppelin/contracts-upgradeable/access/OwnableUpgradeable.sol\":2334:2347  _checkOwner() */\n      jump\t// in\n    tag_427:\n        /* \"DripWarrior/poolContract.sol\":15572:15573  0 */\n      0x00\n        /* \"DripWarrior/poolContract.sol\":15553:15568  _newPerccentage */\n      dup2\n        /* \"DripWarrior/poolContract.sol\":15553:15573  _newPerccentage <= 0 */\n      gt\n        /* \"DripWarrior/poolContract.sol\":15550:15638  if(_newPerccentage <= 0){... */\n      tag_429\n      jumpi\n        /* \"DripWarrior/poolContract.sol\":15595:15627  wrongPercentage(_newPerccentage) */\n      mload(0x40)\n      shl(0xe0, 0xcdbc6335)\n      dup2\n      mstore\n      0x04\n      dup2\n      add\n        /* \"#utility.yul\":160:185   */\n      dup3\n      swap1\n      mstore\n        /* \"#utility.yul\":133:151   */\n      0x24\n      add\n        /* \"DripWarrior/poolContract.sol\":15595:15627  wrongPercentage(_newPerccentage) */\n      tag_265\n        /* \"#utility.yul\":14:191   */\n      jump\n        /* \"DripWarrior/poolContract.sol\":15550:15638  if(_newPerccentage <= 0){... */\n    tag_429:\n        /* \"DripWarrior/poolContract.sol\":15656:15680  flowToTreasuryPercentage */\n      0x06\n        /* \"DripWarrior/poolContract.sol\":15656:15698  flowToTreasuryPercentage = _newPerccentage */\n      dup2\n      swap1\n      sstore\n        /* \"DripWarrior/poolContract.sol\":15714:15769  PercentageChanged(msg.sender, flowToTreasuryPercentage) */\n      0x40\n      dup1\n      mload\n        /* \"DripWarrior/poolContract.sol\":15732:15742  msg.sender */\n      caller\n        /* \"#utility.yul\":8287:8338   */\n      dup2\n      mstore\n        /* \"#utility.yul\":8369:8371   */\n      0x20\n        /* \"#utility.yul\":8354:8372   */\n      dup2\n      add\n        /* \"#utility.yul\":8347:8381   */\n      dup4\n      swap1\n      mstore\n      0x00\n      dup1\n      mload\n      0x20\n      data_d85598d6ea860439b48fc265883a1cac638ff64dca5391fe12b46f27076e26fe\n      dup4\n      codecopy\n      dup2\n      mload\n      swap2\n      mstore\n        /* \"DripWarrior/poolContract.sol\":15714:15769  PercentageChanged(msg.sender, flowToTreasuryPercentage) */\n      swap2\n        /* \"#utility.yul\":8260:8278   */\n      add\n        /* \"DripWarrior/poolContract.sol\":15714:15769  PercentageChanged(msg.sender, flowToTreasuryPercentage) */\n      tag_270\n        /* \"#utility.yul\":8113:8387   */\n      jump\n        /* \"DripWarrior/poolContract.sol\":15111:15440  function setodividentPayoutPercentage(uint256 _newPerccentage) external onlyOwner {... */\n    tag_213:\n        /* \"@openzeppelin/contracts-upgradeable/access/OwnableUpgradeable.sol\":2334:2347  _checkOwner() */\n      tag_433\n        /* \"@openzeppelin/contracts-upgradeable/access/OwnableUpgradeable.sol\":2334:2345  _checkOwner */\n      tag_262\n        /* \"@openzeppelin/contracts-upgradeable/access/OwnableUpgradeable.sol\":2334:2347  _checkOwner() */\n      jump\t// in\n    tag_433:\n        /* \"DripWarrior/poolContract.sol\":15234:15235  0 */\n      0x00\n        /* \"DripWarrior/poolContract.sol\":15215:15230  _newPerccentage */\n      dup2\n        /* \"DripWarrior/poolContract.sol\":15215:15235  _newPerccentage <= 0 */\n      gt\n        /* \"DripWarrior/poolContract.sol\":15212:15300  if(_newPerccentage <= 0){... */\n      tag_435\n      jumpi\n        /* \"DripWarrior/poolContract.sol\":15257:15289  wrongPercentage(_newPerccentage) */\n      mload(0x40)\n      shl(0xe0, 0xcdbc6335)\n      dup2\n      mstore\n      0x04\n      dup2\n      add\n        /* \"#utility.yul\":160:185   */\n      dup3\n      swap1\n      mstore\n        /* \"#utility.yul\":133:151   */\n      0x24\n      add\n        /* \"DripWarrior/poolContract.sol\":15257:15289  wrongPercentage(_newPerccentage) */\n      tag_265\n        /* \"#utility.yul\":14:191   */\n      jump\n        /* \"DripWarrior/poolContract.sol\":15212:15300  if(_newPerccentage <= 0){... */\n    tag_435:\n        /* \"DripWarrior/poolContract.sol\":15318:15343  odividentPayoutPercentage */\n      0x05\n        /* \"DripWarrior/poolContract.sol\":15318:15361  odividentPayoutPercentage = _newPerccentage */\n      dup2\n      swap1\n      sstore\n        /* \"DripWarrior/poolContract.sol\":15377:15433  PercentageChanged(msg.sender, odividentPayoutPercentage) */\n      0x40\n      dup1\n      mload\n        /* \"DripWarrior/poolContract.sol\":15395:15405  msg.sender */\n      caller\n        /* \"#utility.yul\":8287:8338   */\n      dup2\n      mstore\n        /* \"#utility.yul\":8369:8371   */\n      0x20\n        /* \"#utility.yul\":8354:8372   */\n      dup2\n      add\n        /* \"#utility.yul\":8347:8381   */\n      dup4\n      swap1\n      mstore\n      0x00\n      dup1\n      mload\n      0x20\n      data_d85598d6ea860439b48fc265883a1cac638ff64dca5391fe12b46f27076e26fe\n      dup4\n      codecopy\n      dup2\n      mload\n      swap2\n      mstore\n        /* \"DripWarrior/poolContract.sol\":15377:15433  PercentageChanged(msg.sender, odividentPayoutPercentage) */\n      swap2\n        /* \"#utility.yul\":8260:8278   */\n      add\n        /* \"DripWarrior/poolContract.sol\":15377:15433  PercentageChanged(msg.sender, odividentPayoutPercentage) */\n      tag_270\n        /* \"#utility.yul\":8113:8387   */\n      jump\n        /* \"DripWarrior/poolContract.sol\":3681:4422  function initialize(address initialOwner,address _usdcAddress,... */\n    tag_225:\n        /* \"@openzeppelin/contracts-upgradeable/proxy/utils/Initializable.sol\":8870:8891  INITIALIZABLE_STORAGE */\n      0xf0c57e16840df040f15088dc2f81fe391c3923bec73e23a9662efc9c229c6a00\n        /* \"@openzeppelin/contracts-upgradeable/proxy/utils/Initializable.sol\":4302:4317  $._initializing */\n      dup1\n      sload\n      shl(0x40, 0x01)\n      dup2\n      div\n      0xff\n      and\n        /* \"@openzeppelin/contracts-upgradeable/proxy/utils/Initializable.sol\":4301:4317  !$._initializing */\n      iszero\n      swap1\n        /* \"@openzeppelin/contracts-upgradeable/proxy/utils/Initializable.sol\":4348:4362  $._initialized */\n      0xffffffffffffffff\n      and\n        /* \"@openzeppelin/contracts-upgradeable/proxy/utils/Initializable.sol\":4158:4188  InitializableStorage storage $ */\n      0x00\n        /* \"@openzeppelin/contracts-upgradeable/proxy/utils/Initializable.sol\":4726:4742  initialized == 0 */\n      dup2\n      iszero\n        /* \"@openzeppelin/contracts-upgradeable/proxy/utils/Initializable.sol\":4726:4760  initialized == 0 && isTopLevelCall */\n      dup1\n      iszero\n      tag_441\n      jumpi\n      pop\n        /* \"@openzeppelin/contracts-upgradeable/proxy/utils/Initializable.sol\":4746:4760  isTopLevelCall */\n      dup3\n        /* \"@openzeppelin/contracts-upgradeable/proxy/utils/Initializable.sol\":4726:4760  initialized == 0 && isTopLevelCall */\n    tag_441:\n        /* \"@openzeppelin/contracts-upgradeable/proxy/utils/Initializable.sol\":4706:4760  bool initialSetup = initialized == 0 && isTopLevelCall */\n      swap1\n      pop\n        /* \"@openzeppelin/contracts-upgradeable/proxy/utils/Initializable.sol\":4770:4787  bool construction */\n      0x00\n        /* \"@openzeppelin/contracts-upgradeable/proxy/utils/Initializable.sol\":4790:4801  initialized */\n      dup3\n        /* \"@openzeppelin/contracts-upgradeable/proxy/utils/Initializable.sol\":4790:4806  initialized == 1 */\n      0xffffffffffffffff\n      and\n        /* \"@openzeppelin/contracts-upgradeable/proxy/utils/Initializable.sol\":4805:4806  1 */\n      0x01\n        /* \"@openzeppelin/contracts-upgradeable/proxy/utils/Initializable.sol\":4790:4806  initialized == 1 */\n      eq\n        /* \"@openzeppelin/contracts-upgradeable/proxy/utils/Initializable.sol\":4790:4840  initialized == 1 && address(this).code.length == 0 */\n      dup1\n      iszero\n      tag_442\n      jumpi\n      pop\n        /* \"@openzeppelin/contracts-upgradeable/proxy/utils/Initializable.sol\":4818:4822  this */\n      address\n        /* \"@openzeppelin/contracts-upgradeable/proxy/utils/Initializable.sol\":4810:4835  address(this).code.length */\n      extcodesize\n        /* \"@openzeppelin/contracts-upgradeable/proxy/utils/Initializable.sol\":4810:4840  address(this).code.length == 0 */\n      iszero\n        /* \"@openzeppelin/contracts-upgradeable/proxy/utils/Initializable.sol\":4790:4840  initialized == 1 && address(this).code.length == 0 */\n    tag_442:\n        /* \"@openzeppelin/contracts-upgradeable/proxy/utils/Initializable.sol\":4770:4840  bool construction = initialized == 1 && address(this).code.length == 0 */\n      swap1\n      pop\n        /* \"@openzeppelin/contracts-upgradeable/proxy/utils/Initializable.sol\":4856:4868  initialSetup */\n      dup2\n        /* \"@openzeppelin/contracts-upgradeable/proxy/utils/Initializable.sol\":4855:4868  !initialSetup */\n      iszero\n        /* \"@openzeppelin/contracts-upgradeable/proxy/utils/Initializable.sol\":4855:4885  !initialSetup && !construction */\n      dup1\n      iszero\n      tag_443\n      jumpi\n      pop\n        /* \"@openzeppelin/contracts-upgradeable/proxy/utils/Initializable.sol\":4873:4885  construction */\n      dup1\n        /* \"@openzeppelin/contracts-upgradeable/proxy/utils/Initializable.sol\":4872:4885  !construction */\n      iszero\n        /* \"@openzeppelin/contracts-upgradeable/proxy/utils/Initializable.sol\":4855:4885  !initialSetup && !construction */\n    tag_443:\n        /* \"@openzeppelin/contracts-upgradeable/proxy/utils/Initializable.sol\":4851:4942  if (!initialSetup && !construction) {... */\n      iszero\n      tag_444\n      jumpi\n        /* \"@openzeppelin/contracts-upgradeable/proxy/utils/Initializable.sol\":4908:4931  InvalidInitialization() */\n      mload(0x40)\n      shl(0xe0, 0xf92ee8a9)\n      dup2\n      mstore\n      0x04\n      add\n      mload(0x40)\n      dup1\n      swap2\n      sub\n      swap1\n      revert\n        /* \"@openzeppelin/contracts-upgradeable/proxy/utils/Initializable.sol\":4851:4942  if (!initialSetup && !construction) {... */\n    tag_444:\n        /* \"@openzeppelin/contracts-upgradeable/proxy/utils/Initializable.sol\":4951:4969  $._initialized = 1 */\n      dup5\n      sload\n      not(0xffffffffffffffff)\n      and\n        /* \"@openzeppelin/contracts-upgradeable/proxy/utils/Initializable.sol\":4968:4969  1 */\n      0x01\n        /* \"@openzeppelin/contracts-upgradeable/proxy/utils/Initializable.sol\":4951:4969  $._initialized = 1 */\n      or\n      dup6\n      sstore\n        /* \"@openzeppelin/contracts-upgradeable/proxy/utils/Initializable.sol\":4979:5046  if (isTopLevelCall) {... */\n      dup4\n      iszero\n      tag_445\n      jumpi\n        /* \"@openzeppelin/contracts-upgradeable/proxy/utils/Initializable.sol\":5013:5035  $._initializing = true */\n      dup5\n      sload\n      not(shl(0x40, 0xff))\n      and\n      shl(0x40, 0x01)\n      or\n      dup6\n      sstore\n        /* \"@openzeppelin/contracts-upgradeable/proxy/utils/Initializable.sol\":4979:5046  if (isTopLevelCall) {... */\n    tag_445:\n        /* \"DripWarrior/poolContract.sol\":3807:3835  __Ownable_init(initialOwner) */\n      tag_447\n        /* \"DripWarrior/poolContract.sol\":3822:3834  initialOwner */\n      dup9\n        /* \"DripWarrior/poolContract.sol\":3807:3821  __Ownable_init */\n      tag_448\n        /* \"DripWarrior/poolContract.sol\":3807:3835  __Ownable_init(initialOwner) */\n      jump\t// in\n    tag_447:\n        /* \"DripWarrior/poolContract.sol\":3845:3869  __UUPSUpgradeable_init() */\n      tag_449\n        /* \"DripWarrior/poolContract.sol\":3845:3867  __UUPSUpgradeable_init */\n      tag_450\n        /* \"DripWarrior/poolContract.sol\":3845:3869  __UUPSUpgradeable_init() */\n      jump\t// in\n    tag_449:\n        /* \"DripWarrior/poolContract.sol\":3880:3889  usdcToken */\n      0x00\n        /* \"DripWarrior/poolContract.sol\":3880:3912  usdcToken = IBEP20(_usdcAddress) */\n      dup1\n      sload\n      sub(shl(0xa0, 0x01), 0x01)\n      dup1\n      dup11\n      and\n      not(sub(shl(0xa0, 0x01), 0x01))\n      swap3\n      dup4\n      and\n      or\n      swap1\n      swap3\n      sstore\n        /* \"DripWarrior/poolContract.sol\":4148:4152  5000 */\n      0x1388\n        /* \"DripWarrior/poolContract.sol\":4120:4145  tdividentPayoutPercentage */\n      0x04\n        /* \"DripWarrior/poolContract.sol\":4120:4152  tdividentPayoutPercentage = 5000 */\n      sstore\n        /* \"DripWarrior/poolContract.sol\":4202:4206  7500 */\n      0x1d4c\n        /* \"DripWarrior/poolContract.sol\":4174:4199  odividentPayoutPercentage */\n      0x05\n        /* \"DripWarrior/poolContract.sol\":4174:4206  odividentPayoutPercentage = 7500 */\n      sstore\n        /* \"DripWarrior/poolContract.sol\":4268:4272  1500 */\n      0x05dc\n        /* \"DripWarrior/poolContract.sol\":4241:4265  flowToTreasuryPercentage */\n      0x06\n        /* \"DripWarrior/poolContract.sol\":4241:4272  flowToTreasuryPercentage = 1500 */\n      sstore\n        /* \"DripWarrior/poolContract.sol\":4319:4323  1000 */\n      0x03e8\n        /* \"DripWarrior/poolContract.sol\":4293:4316  maintainceFeePercentage */\n      0x07\n        /* \"DripWarrior/poolContract.sol\":4293:4323  maintainceFeePercentage = 1000 */\n      sstore\n        /* \"DripWarrior/poolContract.sol\":4381:4396  multisigAddress */\n      0x09\n        /* \"DripWarrior/poolContract.sol\":4381:4415  multisigAddress = _multisigAddress */\n      dup1\n      sload\n      swap3\n      dup10\n      and\n      swap3\n      swap1\n      swap2\n      and\n      swap2\n      swap1\n      swap2\n      or\n      swap1\n      sstore\n        /* \"@openzeppelin/contracts-upgradeable/proxy/utils/Initializable.sol\":5066:5167  if (isTopLevelCall) {... */\n      dup4\n      iszero\n      tag_451\n      jumpi\n        /* \"@openzeppelin/contracts-upgradeable/proxy/utils/Initializable.sol\":5100:5123  $._initializing = false */\n      dup5\n      sload\n      not(shl(0x40, 0xff))\n      and\n      dup6\n      sstore\n        /* \"@openzeppelin/contracts-upgradeable/proxy/utils/Initializable.sol\":5142:5156  Initialized(1) */\n      mload(0x40)\n      0x01\n        /* \"#utility.yul\":9503:9553   */\n      dup2\n      mstore\n        /* \"@openzeppelin/contracts-upgradeable/proxy/utils/Initializable.sol\":5142:5156  Initialized(1) */\n      0xc7f505b2f371ae2175ee4913f4499e1f2633a7b5936321eed1cdaeb6115181d2\n      swap1\n        /* \"#utility.yul\":9491:9493   */\n      0x20\n        /* \"#utility.yul\":9476:9494   */\n      add\n        /* \"@openzeppelin/contracts-upgradeable/proxy/utils/Initializable.sol\":5142:5156  Initialized(1) */\n      mload(0x40)\n      dup1\n      swap2\n      sub\n      swap1\n      log1\n        /* \"@openzeppelin/contracts-upgradeable/proxy/utils/Initializable.sol\":5066:5167  if (isTopLevelCall) {... */\n    tag_451:\n        /* \"@openzeppelin/contracts-upgradeable/proxy/utils/Initializable.sol\":4092:5173  {... */\n      pop\n      pop\n      pop\n      pop\n      pop\n        /* \"DripWarrior/poolContract.sol\":3681:4422  function initialize(address initialOwner,address _usdcAddress,... */\n      pop\n      pop\n      pop\n      jump\t// out\n        /* \"DripWarrior/poolContract.sol\":12538:12856  function setForwarderAddress(address forwarderAddress) external onlyOwner {... */\n    tag_238:\n        /* \"@openzeppelin/contracts-upgradeable/access/OwnableUpgradeable.sol\":2334:2347  _checkOwner() */\n      tag_455\n        /* \"@openzeppelin/contracts-upgradeable/access/OwnableUpgradeable.sol\":2334:2345  _checkOwner */\n      tag_262\n        /* \"@openzeppelin/contracts-upgradeable/access/OwnableUpgradeable.sol\":2334:2347  _checkOwner() */\n      jump\t// in\n    tag_455:\n      sub(shl(0xa0, 0x01), 0x01)\n        /* \"DripWarrior/poolContract.sol\":12634:12664  forwarderAddress == address(0) */\n      dup2\n      and\n        /* \"DripWarrior/poolContract.sol\":12631:12727  if(forwarderAddress == address(0)){... */\n      tag_457\n      jumpi\n        /* \"DripWarrior/poolContract.sol\":12686:12716  wrongAddress(forwarderAddress) */\n      mload(0x40)\n      shl(0xe0, 0xe4cfa94d)\n      dup2\n      mstore\n      sub(shl(0xa0, 0x01), 0x01)\n        /* \"#utility.yul\":375:407   */\n      dup3\n      and\n        /* \"DripWarrior/poolContract.sol\":12686:12716  wrongAddress(forwarderAddress) */\n      0x04\n      dup3\n      add\n        /* \"#utility.yul\":357:408   */\n      mstore\n        /* \"#utility.yul\":330:348   */\n      0x24\n      add\n        /* \"DripWarrior/poolContract.sol\":12686:12716  wrongAddress(forwarderAddress) */\n      tag_265\n        /* \"#utility.yul\":196:414   */\n      jump\n        /* \"DripWarrior/poolContract.sol\":12631:12727  if(forwarderAddress == address(0)){... */\n    tag_457:\n        /* \"DripWarrior/poolContract.sol\":12745:12763  s_forwarderAddress */\n      0x0e\n        /* \"DripWarrior/poolContract.sol\":12745:12782  s_forwarderAddress = forwarderAddress */\n      dup1\n      sload\n      not(sub(shl(0xa0, 0x01), 0x01))\n      and\n      sub(shl(0xa0, 0x01), 0x01)\n      dup4\n      and\n      swap1\n      dup2\n      or\n      swap1\n      swap2\n      sstore\n        /* \"DripWarrior/poolContract.sol\":12798:12849  SetForwarderAddress(msg.sender, s_forwarderAddress) */\n      0x40\n      dup1\n      mload\n        /* \"DripWarrior/poolContract.sol\":12818:12828  msg.sender */\n      caller\n        /* \"#utility.yul\":9738:9789   */\n      dup2\n      mstore\n        /* \"#utility.yul\":9820:9822   */\n      0x20\n        /* \"#utility.yul\":9805:9823   */\n      dup2\n      add\n        /* \"#utility.yul\":9798:9858   */\n      swap3\n      swap1\n      swap3\n      mstore\n        /* \"DripWarrior/poolContract.sol\":12798:12849  SetForwarderAddress(msg.sender, s_forwarderAddress) */\n      0x75f91f3cecb8c46f20150f60f77a6e1f0de00776627692db82ef1960af84c33a\n      swap2\n        /* \"#utility.yul\":9711:9729   */\n      add\n        /* \"DripWarrior/poolContract.sol\":12798:12849  SetForwarderAddress(msg.sender, s_forwarderAddress) */\n      tag_270\n        /* \"#utility.yul\":9564:9864   */\n      jump\n        /* \"DripWarrior/poolContract.sol\":13857:14411  function blockUser(address _userAddress, bool value) external onlyOwner {... */\n    tag_243:\n        /* \"@openzeppelin/contracts-upgradeable/access/OwnableUpgradeable.sol\":2334:2347  _checkOwner() */\n      tag_462\n        /* \"@openzeppelin/contracts-upgradeable/access/OwnableUpgradeable.sol\":2334:2345  _checkOwner */\n      tag_262\n        /* \"@openzeppelin/contracts-upgradeable/access/OwnableUpgradeable.sol\":2334:2347  _checkOwner() */\n      jump\t// in\n    tag_462:\n      sub(shl(0xa0, 0x01), 0x01)\n        /* \"DripWarrior/poolContract.sol\":13951:13977  _userAddress == address(0) */\n      dup3\n      and\n        /* \"DripWarrior/poolContract.sol\":13948:14036  if(_userAddress == address(0)){... */\n      tag_464\n      jumpi\n        /* \"DripWarrior/poolContract.sol\":13999:14025  wrongAddress(_userAddress) */\n      mload(0x40)\n      shl(0xe0, 0xe4cfa94d)\n      dup2\n      mstore\n      sub(shl(0xa0, 0x01), 0x01)\n        /* \"#utility.yul\":375:407   */\n      dup4\n      and\n        /* \"DripWarrior/poolContract.sol\":13999:14025  wrongAddress(_userAddress) */\n      0x04\n      dup3\n      add\n        /* \"#utility.yul\":357:408   */\n      mstore\n        /* \"#utility.yul\":330:348   */\n      0x24\n      add\n        /* \"DripWarrior/poolContract.sol\":13999:14025  wrongAddress(_userAddress) */\n      tag_265\n        /* \"#utility.yul\":196:414   */\n      jump\n        /* \"DripWarrior/poolContract.sol\":13948:14036  if(_userAddress == address(0)){... */\n    tag_464:\n        /* \"DripWarrior/poolContract.sol\":14058:14062  true */\n      0x01\n        /* \"DripWarrior/poolContract.sol\":14049:14062  value != true */\n      dup2\n      iszero\n      iszero\n      eq\n      dup1\n      iszero\n      swap1\n        /* \"DripWarrior/poolContract.sol\":14049:14080  value != true && value != false */\n      tag_466\n      jumpi\n      pop\n        /* \"DripWarrior/poolContract.sol\":14066:14080  value != false */\n      dup1\n      iszero\n      iszero\n        /* \"DripWarrior/poolContract.sol\":14049:14080  value != true && value != false */\n    tag_466:\n        /* \"DripWarrior/poolContract.sol\":14046:14130  if(value != true && value != false){... */\n      iszero\n      tag_467\n      jumpi\n        /* \"DripWarrior/poolContract.sol\":14102:14119  wrongValue(value) */\n      mload(0x40)\n      shl(0xe0, 0x81ed1ae3)\n      dup2\n      mstore\n        /* \"#utility.yul\":1023:1037   */\n      dup2\n      iszero\n        /* \"#utility.yul\":1016:1038   */\n      iszero\n        /* \"DripWarrior/poolContract.sol\":14102:14119  wrongValue(value) */\n      0x04\n      dup3\n      add\n        /* \"#utility.yul\":998:1039   */\n      mstore\n        /* \"#utility.yul\":971:989   */\n      0x24\n      add\n        /* \"DripWarrior/poolContract.sol\":14102:14119  wrongValue(value) */\n      tag_265\n        /* \"#utility.yul\":858:1045   */\n      jump\n        /* \"DripWarrior/poolContract.sol\":14046:14130  if(value != true && value != false){... */\n    tag_467:\n        /* \"DripWarrior/poolContract.sol\":14143:14156  value == true */\n      dup1\n      iszero\n      iszero\n        /* \"DripWarrior/poolContract.sol\":14152:14156  true */\n      0x01\n        /* \"DripWarrior/poolContract.sol\":14143:14156  value == true */\n      sub\n        /* \"DripWarrior/poolContract.sol\":14140:14307  if(value == true){... */\n      tag_469\n      jumpi\n      sub(shl(0xa0, 0x01), 0x01)\n        /* \"DripWarrior/poolContract.sol\":14172:14200  userRegistered[_userAddress] */\n      dup3\n      and\n      0x00\n      swap1\n      dup2\n      mstore\n        /* \"DripWarrior/poolContract.sol\":14172:14186  userRegistered */\n      0x13\n        /* \"DripWarrior/poolContract.sol\":14172:14200  userRegistered[_userAddress] */\n      0x20\n      mstore\n      0x40\n      swap1\n      keccak256\n        /* \"DripWarrior/poolContract.sol\":14172:14215  userRegistered[_userAddress].blocked = true */\n      dup1\n      sload\n      not(0xff)\n      and\n        /* \"DripWarrior/poolContract.sol\":14211:14215  true */\n      0x01\n        /* \"DripWarrior/poolContract.sol\":14172:14215  userRegistered[_userAddress].blocked = true */\n      or\n      swap1\n      sstore\n        /* \"DripWarrior/poolContract.sol\":14140:14307  if(value == true){... */\n      jump(tag_470)\n    tag_469:\n      sub(shl(0xa0, 0x01), 0x01)\n        /* \"DripWarrior/poolContract.sol\":14252:14280  userRegistered[_userAddress] */\n      dup3\n      and\n        /* \"DripWarrior/poolContract.sol\":14291:14296  false */\n      0x00\n        /* \"DripWarrior/poolContract.sol\":14252:14280  userRegistered[_userAddress] */\n      swap1\n      dup2\n      mstore\n        /* \"DripWarrior/poolContract.sol\":14252:14266  userRegistered */\n      0x13\n        /* \"DripWarrior/poolContract.sol\":14252:14280  userRegistered[_userAddress] */\n      0x20\n      mstore\n      0x40\n      swap1\n      keccak256\n        /* \"DripWarrior/poolContract.sol\":14252:14296  userRegistered[_userAddress].blocked = false */\n      dup1\n      sload\n      not(0xff)\n      and\n      swap1\n      sstore\n        /* \"DripWarrior/poolContract.sol\":14140:14307  if(value == true){... */\n    tag_470:\n      sub(shl(0xa0, 0x01), 0x01)\n        /* \"DripWarrior/poolContract.sol\":14367:14395  userRegistered[_userAddress] */\n      dup3\n      and\n      0x00\n      dup2\n      dup2\n      mstore\n        /* \"DripWarrior/poolContract.sol\":14367:14381  userRegistered */\n      0x13\n        /* \"DripWarrior/poolContract.sol\":14367:14395  userRegistered[_userAddress] */\n      0x20\n      swap1\n      dup2\n      mstore\n      0x40\n      swap2\n      dup3\n      swap1\n      keccak256\n        /* \"DripWarrior/poolContract.sol\":14367:14403  userRegistered[_userAddress].blocked */\n      sload\n        /* \"DripWarrior/poolContract.sol\":14330:14404  UserBlocked(msg.sender,_userAddress, userRegistered[_userAddress].blocked) */\n      dup3\n      mload\n        /* \"DripWarrior/poolContract.sol\":14342:14352  msg.sender */\n      caller\n        /* \"#utility.yul\":10065:10116   */\n      dup2\n      mstore\n        /* \"#utility.yul\":10132:10150   */\n      swap2\n      dup3\n      add\n        /* \"#utility.yul\":10125:10185   */\n      swap4\n      swap1\n      swap4\n      mstore\n        /* \"DripWarrior/poolContract.sol\":14367:14403  userRegistered[_userAddress].blocked */\n      0xff\n      swap1\n      swap3\n      and\n        /* \"#utility.yul\":10228:10242   */\n      iszero\n        /* \"#utility.yul\":10221:10243   */\n      iszero\n        /* \"#utility.yul\":10201:10219   */\n      swap1\n      dup3\n      add\n        /* \"#utility.yul\":10194:10244   */\n      mstore\n        /* \"DripWarrior/poolContract.sol\":14330:14404  UserBlocked(msg.sender,_userAddress, userRegistered[_userAddress].blocked) */\n      0x7a1655bc3160d3413bf1d5235e55be12e01b7e8bc2436a9bff09c3b4fa2421f1\n      swap1\n        /* \"#utility.yul\":10053:10055   */\n      0x60\n        /* \"#utility.yul\":10038:10056   */\n      add\n        /* \"DripWarrior/poolContract.sol\":14330:14404  UserBlocked(msg.sender,_userAddress, userRegistered[_userAddress].blocked) */\n      tag_309\n        /* \"#utility.yul\":9869:10250   */\n      jump\n        /* \"DripWarrior/poolContract.sol\":8026:9586  function weeklyTransfer() public  {... */\n    tag_246:\n        /* \"DripWarrior/poolContract.sol\":8106:8124  s_forwarderAddress */\n      and(sub(shl(0xa0, 0x01), 0x01), sload(0x0e))\n        /* \"DripWarrior/poolContract.sol\":8092:8102  msg.sender */\n      caller\n        /* \"DripWarrior/poolContract.sol\":8092:8124  msg.sender == s_forwarderAddress */\n      eq\n        /* \"DripWarrior/poolContract.sol\":8071:8209  require(... */\n      tag_474\n      jumpi\n      mload(0x40)\n      shl(0xe5, 0x461bcd)\n      dup2\n      mstore\n      0x04\n      add\n      tag_265\n      swap1\n      tag_275\n      jump\t// in\n    tag_474:\n        /* \"DripWarrior/poolContract.sol\":8230:8254  uint256 remainFiftyOPool */\n      0x00\n        /* \"DripWarrior/poolContract.sol\":8255:8288  uint256 dividentPayoutOPoolAmount */\n      dup1\n        /* \"DripWarrior/poolContract.sol\":8290:8316  uint256 perPersonFromTPool */\n      0x00\n        /* \"DripWarrior/poolContract.sol\":8321:8341  perPoolCalculation() */\n      tag_476\n        /* \"DripWarrior/poolContract.sol\":8321:8339  perPoolCalculation */\n      tag_477\n        /* \"DripWarrior/poolContract.sol\":8321:8341  perPoolCalculation() */\n      jump\t// in\n    tag_476:\n        /* \"DripWarrior/poolContract.sol\":8228:8341  ( uint256 remainFiftyOPool,uint256 dividentPayoutOPoolAmount, uint256 perPersonFromTPool)  = perPoolCalculation() */\n      swap3\n      pop\n      swap3\n      pop\n      swap3\n      pop\n        /* \"DripWarrior/poolContract.sol\":8390:8391  0 */\n      0x00\n        /* \"DripWarrior/poolContract.sol\":8368:8387  ownerShipPoolAmount */\n      sload(0x02)\n        /* \"DripWarrior/poolContract.sol\":8368:8391  ownerShipPoolAmount > 0 */\n      gt\n        /* \"DripWarrior/poolContract.sol\":8368:8417  ownerShipPoolAmount > 0 && treasuryPoolAmount > 0 */\n      dup1\n      iszero\n      tag_478\n      jumpi\n      pop\n        /* \"DripWarrior/poolContract.sol\":8416:8417  0 */\n      0x00\n        /* \"DripWarrior/poolContract.sol\":8395:8413  treasuryPoolAmount */\n      sload(0x01)\n        /* \"DripWarrior/poolContract.sol\":8395:8417  treasuryPoolAmount > 0 */\n      gt\n        /* \"DripWarrior/poolContract.sol\":8368:8417  ownerShipPoolAmount > 0 && treasuryPoolAmount > 0 */\n    tag_478:\n        /* \"DripWarrior/poolContract.sol\":8360:8439  require(ownerShipPoolAmount > 0 && treasuryPoolAmount > 0, \"not enough amount\") */\n      tag_479\n      jumpi\n      mload(0x40)\n      shl(0xe5, 0x461bcd)\n      dup2\n      mstore\n        /* \"#utility.yul\":10457:10459   */\n      0x20\n        /* \"DripWarrior/poolContract.sol\":8360:8439  require(ownerShipPoolAmount > 0 && treasuryPoolAmount > 0, \"not enough amount\") */\n      0x04\n      dup3\n      add\n        /* \"#utility.yul\":10439:10460   */\n      mstore\n        /* \"#utility.yul\":10496:10498   */\n      0x11\n        /* \"#utility.yul\":10476:10494   */\n      0x24\n      dup3\n      add\n        /* \"#utility.yul\":10469:10499   */\n      mstore\n      shl(0x7a, 0x1b9bdd08195b9bdd59da08185b5bdd5b9d)\n        /* \"#utility.yul\":10515:10533   */\n      0x44\n      dup3\n      add\n        /* \"#utility.yul\":10508:10555   */\n      mstore\n        /* \"#utility.yul\":10572:10590   */\n      0x64\n      add\n        /* \"DripWarrior/poolContract.sol\":8360:8439  require(ownerShipPoolAmount > 0 && treasuryPoolAmount > 0, \"not enough amount\") */\n      tag_265\n        /* \"#utility.yul\":10255:10596   */\n      jump\n        /* \"DripWarrior/poolContract.sol\":8360:8439  require(ownerShipPoolAmount > 0 && treasuryPoolAmount > 0, \"not enough amount\") */\n    tag_479:\n        /* \"DripWarrior/poolContract.sol\":8457:8473  uint256 maxlimit */\n      0x00\n      dup1\n        /* \"DripWarrior/poolContract.sol\":8484:9494  for(uint256 i = 0; i < noOfUsers; i++){... */\n    tag_482:\n        /* \"DripWarrior/poolContract.sol\":8507:8516  noOfUsers */\n      sload(0x08)\n        /* \"DripWarrior/poolContract.sol\":8503:8504  i */\n      dup2\n        /* \"DripWarrior/poolContract.sol\":8503:8516  i < noOfUsers */\n      lt\n        /* \"DripWarrior/poolContract.sol\":8484:9494  for(uint256 i = 0; i < noOfUsers; i++){... */\n      iszero\n      tag_483\n      jumpi\n        /* \"DripWarrior/poolContract.sol\":8541:8570  userRegistered[totalUsers[i]] */\n      0x00\n        /* \"DripWarrior/poolContract.sol\":8556:8569  totalUsers[i] */\n      dup2\n      dup2\n      mstore\n        /* \"DripWarrior/poolContract.sol\":8556:8566  totalUsers */\n      0x11\n        /* \"DripWarrior/poolContract.sol\":8556:8569  totalUsers[i] */\n      0x20\n      swap1\n      dup2\n      mstore\n      0x40\n      dup1\n      dup4\n      keccak256\n      sload\n      sub(shl(0xa0, 0x01), 0x01)\n      and\n        /* \"DripWarrior/poolContract.sol\":8541:8570  userRegistered[totalUsers[i]] */\n      dup4\n      mstore\n        /* \"DripWarrior/poolContract.sol\":8541:8555  userRegistered */\n      0x13\n        /* \"DripWarrior/poolContract.sol\":8541:8570  userRegistered[totalUsers[i]] */\n      swap1\n      swap2\n      mstore\n      swap1\n      keccak256\n        /* \"DripWarrior/poolContract.sol\":8541:8578  userRegistered[totalUsers[i]].blocked */\n      sload\n      0xff\n      and\n        /* \"DripWarrior/poolContract.sol\":8537:9471  if(!userRegistered[totalUsers[i]].blocked){... */\n      tag_485\n      jumpi\n        /* \"DripWarrior/poolContract.sol\":8691:8708  totalStakedAmount */\n      sload(0x03)\n        /* \"DripWarrior/poolContract.sol\":8598:8625  uint256 eachSharePercentage */\n      0x00\n        /* \"DripWarrior/poolContract.sol\":8644:8657  totalUsers[i] */\n      dup3\n      dup2\n      mstore\n        /* \"DripWarrior/poolContract.sol\":8644:8654  totalUsers */\n      0x11\n        /* \"DripWarrior/poolContract.sol\":8644:8657  totalUsers[i] */\n      0x20\n      swap1\n      dup2\n      mstore\n      0x40\n      dup1\n      dup4\n      keccak256\n      sload\n      sub(shl(0xa0, 0x01), 0x01)\n      and\n        /* \"DripWarrior/poolContract.sol\":8629:8658  userRegistered[totalUsers[i]] */\n      dup4\n      mstore\n        /* \"DripWarrior/poolContract.sol\":8629:8643  userRegistered */\n      0x13\n        /* \"DripWarrior/poolContract.sol\":8629:8658  userRegistered[totalUsers[i]] */\n      swap1\n      swap2\n      mstore\n      dup2\n      keccak256\n        /* \"DripWarrior/poolContract.sol\":8629:8676  userRegistered[totalUsers[i]].totalStakedAmount */\n      0x05\n      add\n      sload\n        /* \"DripWarrior/poolContract.sol\":8598:8625  uint256 eachSharePercentage */\n      swap1\n      swap2\n        /* \"DripWarrior/poolContract.sol\":8691:8708  totalStakedAmount */\n      swap1\n        /* \"DripWarrior/poolContract.sol\":8629:8686  userRegistered[totalUsers[i]].totalStakedAmount * (10000) */\n      tag_486\n      swap1\n        /* \"DripWarrior/poolContract.sol\":8680:8685  10000 */\n      0x2710\n        /* \"DripWarrior/poolContract.sol\":8629:8686  userRegistered[totalUsers[i]].totalStakedAmount * (10000) */\n      tag_487\n      jump\t// in\n    tag_486:\n        /* \"DripWarrior/poolContract.sol\":8628:8709  (userRegistered[totalUsers[i]].totalStakedAmount * (10000)) / (totalStakedAmount) */\n      tag_488\n      swap2\n      swap1\n      tag_489\n      jump\t// in\n    tag_488:\n        /* \"DripWarrior/poolContract.sol\":8598:8709  uint256 eachSharePercentage = (userRegistered[totalUsers[i]].totalStakedAmount * (10000)) / (totalStakedAmount) */\n      swap1\n      pop\n        /* \"DripWarrior/poolContract.sol\":8744:8766  uint256 eachSendAmount */\n      0x00\n        /* \"DripWarrior/poolContract.sol\":8769:8836  calculatePercentage(dividentPayoutOPoolAmount, eachSharePercentage) */\n      tag_490\n        /* \"DripWarrior/poolContract.sol\":8789:8814  dividentPayoutOPoolAmount */\n      dup7\n        /* \"DripWarrior/poolContract.sol\":8816:8835  eachSharePercentage */\n      dup4\n        /* \"DripWarrior/poolContract.sol\":8769:8788  calculatePercentage */\n      tag_491\n        /* \"DripWarrior/poolContract.sol\":8769:8836  calculatePercentage(dividentPayoutOPoolAmount, eachSharePercentage) */\n      jump\t// in\n    tag_490:\n        /* \"DripWarrior/poolContract.sol\":8744:8836  uint256 eachSendAmount = calculatePercentage(dividentPayoutOPoolAmount, eachSharePercentage) */\n      swap1\n      pop\n        /* \"DripWarrior/poolContract.sol\":8877:8891  eachSendAmount */\n      dup1\n        /* \"DripWarrior/poolContract.sol\":8854:8873  ownerShipPoolAmount */\n      0x02\n      0x00\n        /* \"DripWarrior/poolContract.sol\":8854:8891  ownerShipPoolAmount -= eachSendAmount */\n      dup3\n      dup3\n      sload\n      tag_492\n      swap2\n      swap1\n      tag_269\n      jump\t// in\n    tag_492:\n      swap1\n      swap2\n      sstore\n      pop\n        /* \"DripWarrior/poolContract.sol\":8934:8960  maxlimit += eachSendAmount */\n      tag_493\n      swap1\n      pop\n        /* \"DripWarrior/poolContract.sol\":8946:8960  eachSendAmount */\n      dup2\n        /* \"DripWarrior/poolContract.sol\":8934:8960  maxlimit += eachSendAmount */\n      dup6\n      tag_300\n      jump\t// in\n    tag_493:\n      swap4\n      pop\n        /* \"DripWarrior/poolContract.sol\":9000:9018  perPersonFromTPool */\n      dup5\n        /* \"DripWarrior/poolContract.sol\":8978:8996  treasuryPoolAmount */\n      0x01\n      0x00\n        /* \"DripWarrior/poolContract.sol\":8978:9018  treasuryPoolAmount -= perPersonFromTPool */\n      dup3\n      dup3\n      sload\n      tag_494\n      swap2\n      swap1\n      tag_269\n      jump\t// in\n    tag_494:\n      swap1\n      swap2\n      sstore\n      pop\n      pop\n        /* \"DripWarrior/poolContract.sol\":9037:9066  userRegistered[totalUsers[i]] */\n      0x00\n        /* \"DripWarrior/poolContract.sol\":9052:9065  totalUsers[i] */\n      dup4\n      dup2\n      mstore\n        /* \"DripWarrior/poolContract.sol\":9052:9062  totalUsers */\n      0x11\n        /* \"DripWarrior/poolContract.sol\":9052:9065  totalUsers[i] */\n      0x20\n      swap1\n      dup2\n      mstore\n      0x40\n      dup1\n      dup4\n      keccak256\n      dup1\n      sload\n      sub(shl(0xa0, 0x01), 0x01)\n      swap1\n      dup2\n      and\n        /* \"DripWarrior/poolContract.sol\":9037:9066  userRegistered[totalUsers[i]] */\n      dup6\n      mstore\n        /* \"DripWarrior/poolContract.sol\":9037:9051  userRegistered */\n      0x13\n        /* \"DripWarrior/poolContract.sol\":9037:9066  userRegistered[totalUsers[i]] */\n      swap1\n      swap4\n      mstore\n      dup2\n      dup5\n      keccak256\n        /* \"DripWarrior/poolContract.sol\":9037:9086  userRegistered[totalUsers[i]].receiveFromTreasury */\n      0x03\n      add\n        /* \"DripWarrior/poolContract.sol\":9037:9107  userRegistered[totalUsers[i]].receiveFromTreasury = perPersonFromTPool */\n      dup10\n      swap1\n      sstore\n        /* \"DripWarrior/poolContract.sol\":9140:9153  totalUsers[i] */\n      sload\n      swap1\n      swap2\n      and\n        /* \"DripWarrior/poolContract.sol\":9125:9154  userRegistered[totalUsers[i]] */\n      dup3\n      mstore\n      dup2\n      keccak256\n        /* \"DripWarrior/poolContract.sol\":9125:9176  userRegistered[totalUsers[i]].receiveFromOwneerShip */\n      0x04\n      add\n        /* \"DripWarrior/poolContract.sol\":9125:9193  userRegistered[totalUsers[i]].receiveFromOwneerShip = eachSendAmount */\n      dup3\n      swap1\n      sstore\n        /* \"DripWarrior/poolContract.sol\":9254:9289  eachSendAmount + perPersonFromTPool */\n      tag_495\n        /* \"DripWarrior/poolContract.sol\":9037:9107  userRegistered[totalUsers[i]].receiveFromTreasury = perPersonFromTPool */\n      dup7\n        /* \"DripWarrior/poolContract.sol\":9125:9193  userRegistered[totalUsers[i]].receiveFromOwneerShip = eachSendAmount */\n      dup4\n        /* \"DripWarrior/poolContract.sol\":9254:9289  eachSendAmount + perPersonFromTPool */\n      tag_300\n      jump\t// in\n    tag_495:\n        /* \"DripWarrior/poolContract.sol\":9307:9336  userRegistered[totalUsers[i]] */\n      0x00\n        /* \"DripWarrior/poolContract.sol\":9322:9335  totalUsers[i] */\n      dup6\n      dup2\n      mstore\n        /* \"DripWarrior/poolContract.sol\":9322:9332  totalUsers */\n      0x11\n        /* \"DripWarrior/poolContract.sol\":9322:9335  totalUsers[i] */\n      0x20\n      swap1\n      dup2\n      mstore\n      0x40\n      dup1\n      dup4\n      keccak256\n      sload\n      sub(shl(0xa0, 0x01), 0x01)\n      and\n        /* \"DripWarrior/poolContract.sol\":9307:9336  userRegistered[totalUsers[i]] */\n      dup4\n      mstore\n        /* \"DripWarrior/poolContract.sol\":9307:9321  userRegistered */\n      0x13\n        /* \"DripWarrior/poolContract.sol\":9307:9336  userRegistered[totalUsers[i]] */\n      swap1\n      swap2\n      mstore\n      dup2\n      keccak256\n        /* \"DripWarrior/poolContract.sol\":9322:9335  totalUsers[i] */\n      0x01\n        /* \"DripWarrior/poolContract.sol\":9307:9351  userRegistered[totalUsers[i]].receivedAmount */\n      add\n        /* \"DripWarrior/poolContract.sol\":9307:9370  userRegistered[totalUsers[i]].receivedAmount += totalSendAmount */\n      dup1\n      sload\n        /* \"DripWarrior/poolContract.sol\":9228:9289  uint256 totalSendAmount = eachSendAmount + perPersonFromTPool */\n      swap3\n      swap4\n      pop\n      dup4\n      swap3\n        /* \"DripWarrior/poolContract.sol\":9307:9351  userRegistered[totalUsers[i]].receivedAmount */\n      swap1\n      swap2\n        /* \"DripWarrior/poolContract.sol\":9307:9336  userRegistered[totalUsers[i]] */\n      swap1\n        /* \"DripWarrior/poolContract.sol\":9307:9370  userRegistered[totalUsers[i]].receivedAmount += totalSendAmount */\n      tag_496\n      swap1\n        /* \"DripWarrior/poolContract.sol\":9228:9289  uint256 totalSendAmount = eachSendAmount + perPersonFromTPool */\n      dup5\n      swap1\n        /* \"DripWarrior/poolContract.sol\":9307:9370  userRegistered[totalUsers[i]].receivedAmount += totalSendAmount */\n      tag_300\n      jump\t// in\n    tag_496:\n      swap1\n      swap2\n      sstore\n      pop\n      pop\n        /* \"DripWarrior/poolContract.sol\":9397:9425  maxlimit <= remainFiftyOPool */\n      dup8\n      dup6\n      gt\n      iszero\n        /* \"DripWarrior/poolContract.sol\":9389:9456  require(maxlimit <= remainFiftyOPool, \"Amount is greater then 50%\") */\n      tag_497\n      jumpi\n      mload(0x40)\n      shl(0xe5, 0x461bcd)\n      dup2\n      mstore\n        /* \"#utility.yul\":11198:11200   */\n      0x20\n        /* \"DripWarrior/poolContract.sol\":9389:9456  require(maxlimit <= remainFiftyOPool, \"Amount is greater then 50%\") */\n      0x04\n      dup3\n      add\n        /* \"#utility.yul\":11180:11201   */\n      mstore\n        /* \"#utility.yul\":11237:11239   */\n      0x1a\n        /* \"#utility.yul\":11217:11235   */\n      0x24\n      dup3\n      add\n        /* \"#utility.yul\":11210:11240   */\n      mstore\n        /* \"#utility.yul\":11276:11304   */\n      0x416d6f756e742069732067726561746572207468656e20353025000000000000\n        /* \"#utility.yul\":11256:11274   */\n      0x44\n      dup3\n      add\n        /* \"#utility.yul\":11249:11305   */\n      mstore\n        /* \"#utility.yul\":11322:11340   */\n      0x64\n      add\n        /* \"DripWarrior/poolContract.sol\":9389:9456  require(maxlimit <= remainFiftyOPool, \"Amount is greater then 50%\") */\n      tag_265\n        /* \"#utility.yul\":10996:11346   */\n      jump\n        /* \"DripWarrior/poolContract.sol\":9389:9456  require(maxlimit <= remainFiftyOPool, \"Amount is greater then 50%\") */\n    tag_497:\n        /* \"DripWarrior/poolContract.sol\":8579:9471  {... */\n      pop\n      pop\n      pop\n        /* \"DripWarrior/poolContract.sol\":8537:9471  if(!userRegistered[totalUsers[i]].blocked){... */\n    tag_485:\n        /* \"DripWarrior/poolContract.sol\":8518:8521  i++ */\n      0x01\n      add\n        /* \"DripWarrior/poolContract.sol\":8484:9494  for(uint256 i = 0; i < noOfUsers; i++){... */\n      jump(tag_482)\n    tag_483:\n      pop\n        /* \"DripWarrior/poolContract.sol\":9538:9557  ownerShipPoolAmount */\n      sload(0x02)\n        /* \"DripWarrior/poolContract.sol\":9559:9577  treasuryPoolAmount */\n      sload(0x01)\n        /* \"DripWarrior/poolContract.sol\":9509:9578  WeeklyTransfered(msg.sender, ownerShipPoolAmount, treasuryPoolAmount) */\n      0x40\n      dup1\n      mload\n        /* \"DripWarrior/poolContract.sol\":9526:9536  msg.sender */\n      caller\n        /* \"#utility.yul\":7965:8016   */\n      dup2\n      mstore\n        /* \"#utility.yul\":8047:8049   */\n      0x20\n        /* \"#utility.yul\":8032:8050   */\n      dup2\n      add\n        /* \"#utility.yul\":8025:8059   */\n      swap4\n      swap1\n      swap4\n      mstore\n        /* \"#utility.yul\":8075:8093   */\n      dup3\n      add\n        /* \"#utility.yul\":8068:8102   */\n      mstore\n        /* \"DripWarrior/poolContract.sol\":9509:9578  WeeklyTransfered(msg.sender, ownerShipPoolAmount, treasuryPoolAmount) */\n      0xee826440768329b0c72f81331212ee31fcdac1ea79a248d24821e40c34e58020\n      swap1\n        /* \"#utility.yul\":7953:7955   */\n      0x60\n        /* \"#utility.yul\":7938:7956   */\n      add\n        /* \"DripWarrior/poolContract.sol\":9509:9578  WeeklyTransfered(msg.sender, ownerShipPoolAmount, treasuryPoolAmount) */\n      mload(0x40)\n      dup1\n      swap2\n      sub\n      swap1\n      log1\n        /* \"DripWarrior/poolContract.sol\":8060:9586  {... */\n      pop\n      pop\n      pop\n      pop\n        /* \"DripWarrior/poolContract.sol\":8026:9586  function weeklyTransfer() public  {... */\n      jump\t// out\n        /* \"DripWarrior/poolContract.sol\":14423:14765  function setTeasueryPercentages(uint256 _projectId,uint256 _newPerccentage) external onlyOwner {... */\n    tag_250:\n        /* \"@openzeppelin/contracts-upgradeable/access/OwnableUpgradeable.sol\":2334:2347  _checkOwner() */\n      tag_502\n        /* \"@openzeppelin/contracts-upgradeable/access/OwnableUpgradeable.sol\":2334:2345  _checkOwner */\n      tag_262\n        /* \"@openzeppelin/contracts-upgradeable/access/OwnableUpgradeable.sol\":2334:2347  _checkOwner() */\n      jump\t// in\n    tag_502:\n        /* \"DripWarrior/poolContract.sol\":14559:14560  0 */\n      0x00\n        /* \"DripWarrior/poolContract.sol\":14540:14555  _newPerccentage */\n      dup2\n        /* \"DripWarrior/poolContract.sol\":14540:14560  _newPerccentage <= 0 */\n      gt\n        /* \"DripWarrior/poolContract.sol\":14537:14625  if(_newPerccentage <= 0){... */\n      tag_504\n      jumpi\n        /* \"DripWarrior/poolContract.sol\":14582:14614  wrongPercentage(_newPerccentage) */\n      mload(0x40)\n      shl(0xe0, 0xcdbc6335)\n      dup2\n      mstore\n      0x04\n      dup2\n      add\n        /* \"#utility.yul\":160:185   */\n      dup3\n      swap1\n      mstore\n        /* \"#utility.yul\":133:151   */\n      0x24\n      add\n        /* \"DripWarrior/poolContract.sol\":14582:14614  wrongPercentage(_newPerccentage) */\n      tag_265\n        /* \"#utility.yul\":14:191   */\n      jump\n        /* \"DripWarrior/poolContract.sol\":14537:14625  if(_newPerccentage <= 0){... */\n    tag_504:\n        /* \"DripWarrior/poolContract.sol\":14643:14668  tPPercentages[_projectId] */\n      0x00\n      dup3\n      dup2\n      mstore\n        /* \"DripWarrior/poolContract.sol\":14643:14656  tPPercentages */\n      0x12\n        /* \"DripWarrior/poolContract.sol\":14643:14668  tPPercentages[_projectId] */\n      0x20\n      swap1\n      dup2\n      mstore\n      0x40\n      swap2\n      dup3\n      swap1\n      keccak256\n        /* \"DripWarrior/poolContract.sol\":14643:14686  tPPercentages[_projectId] = _newPerccentage */\n      dup4\n      swap1\n      sstore\n        /* \"DripWarrior/poolContract.sol\":14702:14758  PercentageChanged(msg.sender, tPPercentages[_projectId]) */\n      dup2\n      mload\n        /* \"DripWarrior/poolContract.sol\":14720:14730  msg.sender */\n      caller\n        /* \"#utility.yul\":8287:8338   */\n      dup2\n      mstore\n        /* \"#utility.yul\":8354:8372   */\n      swap1\n      dup2\n      add\n        /* \"#utility.yul\":8347:8381   */\n      dup4\n      swap1\n      mstore\n      0x00\n      dup1\n      mload\n      0x20\n      data_d85598d6ea860439b48fc265883a1cac638ff64dca5391fe12b46f27076e26fe\n      dup4\n      codecopy\n      dup2\n      mload\n      swap2\n      mstore\n        /* \"DripWarrior/poolContract.sol\":14702:14758  PercentageChanged(msg.sender, tPPercentages[_projectId]) */\n      swap2\n        /* \"#utility.yul\":8260:8278   */\n      add\n        /* \"DripWarrior/poolContract.sol\":14702:14758  PercentageChanged(msg.sender, tPPercentages[_projectId]) */\n      tag_309\n        /* \"#utility.yul\":8113:8387   */\n      jump\n        /* \"@openzeppelin/contracts-upgradeable/access/OwnableUpgradeable.sol\":3405:3620  function transferOwnership(address newOwner) public virtual onlyOwner {... */\n    tag_254:\n        /* \"@openzeppelin/contracts-upgradeable/access/OwnableUpgradeable.sol\":2334:2347  _checkOwner() */\n      tag_508\n        /* \"@openzeppelin/contracts-upgradeable/access/OwnableUpgradeable.sol\":2334:2345  _checkOwner */\n      tag_262\n        /* \"@openzeppelin/contracts-upgradeable/access/OwnableUpgradeable.sol\":2334:2347  _checkOwner() */\n      jump\t// in\n    tag_508:\n      sub(shl(0xa0, 0x01), 0x01)\n        /* \"@openzeppelin/contracts-upgradeable/access/OwnableUpgradeable.sol\":3489:3511  newOwner == address(0) */\n      dup2\n      and\n        /* \"@openzeppelin/contracts-upgradeable/access/OwnableUpgradeable.sol\":3485:3576  if (newOwner == address(0)) {... */\n      tag_510\n      jumpi\n        /* \"@openzeppelin/contracts-upgradeable/access/OwnableUpgradeable.sol\":3534:3565  OwnableInvalidOwner(address(0)) */\n      mload(0x40)\n      shl(0xe0, 0x1e4fbdf7)\n      dup2\n      mstore\n        /* \"@openzeppelin/contracts-upgradeable/access/OwnableUpgradeable.sol\":3562:3563  0 */\n      0x00\n        /* \"@openzeppelin/contracts-upgradeable/access/OwnableUpgradeable.sol\":3534:3565  OwnableInvalidOwner(address(0)) */\n      0x04\n      dup3\n      add\n        /* \"#utility.yul\":357:408   */\n      mstore\n        /* \"#utility.yul\":330:348   */\n      0x24\n      add\n        /* \"@openzeppelin/contracts-upgradeable/access/OwnableUpgradeable.sol\":3534:3565  OwnableInvalidOwner(address(0)) */\n      tag_265\n        /* \"#utility.yul\":196:414   */\n      jump\n        /* \"@openzeppelin/contracts-upgradeable/access/OwnableUpgradeable.sol\":3485:3576  if (newOwner == address(0)) {... */\n    tag_510:\n        /* \"@openzeppelin/contracts-upgradeable/access/OwnableUpgradeable.sol\":3585:3613  _transferOwnership(newOwner) */\n      tag_512\n        /* \"@openzeppelin/contracts-upgradeable/access/OwnableUpgradeable.sol\":3604:3612  newOwner */\n      dup2\n        /* \"@openzeppelin/contracts-upgradeable/access/OwnableUpgradeable.sol\":3585:3603  _transferOwnership */\n      tag_354\n        /* \"@openzeppelin/contracts-upgradeable/access/OwnableUpgradeable.sol\":3585:3613  _transferOwnership(newOwner) */\n      jump\t// in\n    tag_512:\n        /* \"@openzeppelin/contracts-upgradeable/access/OwnableUpgradeable.sol\":3405:3620  function transferOwnership(address newOwner) public virtual onlyOwner {... */\n      pop\n      jump\t// out\n        /* \"@openzeppelin/contracts-upgradeable/access/OwnableUpgradeable.sol\":2658:2820  function _checkOwner() internal view virtual {... */\n    tag_262:\n        /* \"@openzeppelin/contracts-upgradeable/utils/ContextUpgradeable.sol\":966:976  msg.sender */\n      caller\n        /* \"@openzeppelin/contracts-upgradeable/access/OwnableUpgradeable.sol\":2717:2724  owner() */\n      tag_516\n        /* \"@openzeppelin/contracts-upgradeable/access/OwnableUpgradeable.sol\":1313:1335  OwnableStorageLocation */\n      0x9016d09d72d40fdae2fd8ceac6b6234c7706214fd39c1cd1e609a0528c199300\n        /* \"@openzeppelin/contracts-upgradeable/access/OwnableUpgradeable.sol\":2570:2578  $._owner */\n      sload\n      sub(shl(0xa0, 0x01), 0x01)\n      and\n      swap1\n        /* \"@openzeppelin/contracts-upgradeable/access/OwnableUpgradeable.sol\":2441:2585  function owner() public view virtual returns (address) {... */\n      jump\n        /* \"@openzeppelin/contracts-upgradeable/access/OwnableUpgradeable.sol\":2717:2724  owner() */\n    tag_516:\n      sub(shl(0xa0, 0x01), 0x01)\n        /* \"@openzeppelin/contracts-upgradeable/access/OwnableUpgradeable.sol\":2717:2740  owner() != _msgSender() */\n      and\n      eq\n        /* \"@openzeppelin/contracts-upgradeable/access/OwnableUpgradeable.sol\":2713:2814  if (owner() != _msgSender()) {... */\n      tag_353\n      jumpi\n        /* \"@openzeppelin/contracts-upgradeable/access/OwnableUpgradeable.sol\":2763:2803  OwnableUnauthorizedAccount(_msgSender()) */\n      mload(0x40)\n      shl(0xe0, 0x118cdaa7)\n      dup2\n      mstore\n        /* \"@openzeppelin/contracts-upgradeable/utils/ContextUpgradeable.sol\":966:976  msg.sender */\n      caller\n        /* \"@openzeppelin/contracts-upgradeable/access/OwnableUpgradeable.sol\":2763:2803  OwnableUnauthorizedAccount(_msgSender()) */\n      0x04\n      dup3\n      add\n        /* \"#utility.yul\":357:408   */\n      mstore\n        /* \"#utility.yul\":330:348   */\n      0x24\n      add\n        /* \"@openzeppelin/contracts-upgradeable/access/OwnableUpgradeable.sol\":2763:2803  OwnableUnauthorizedAccount(_msgSender()) */\n      tag_265\n        /* \"#utility.yul\":196:414   */\n      jump\n        /* \"@openzeppelin/contracts-upgradeable/proxy/utils/UUPSUpgradeable.sol\":4599:4911  function _checkProxy() internal view virtual {... */\n    tag_288:\n        /* \"@openzeppelin/contracts-upgradeable/proxy/utils/UUPSUpgradeable.sol\":4679:4683  this */\n      address\n      sub(shl(0xa0, 0x01), 0x01)\n        /* \"@openzeppelin/contracts-upgradeable/proxy/utils/UUPSUpgradeable.sol\":4688:4694  __self */\n      immutable(\"0x6740f0f1ed974f4bbc4ea3ddf8917f81b1171208e4ec27e89df857ca2a56624a\")\n        /* \"@openzeppelin/contracts-upgradeable/proxy/utils/UUPSUpgradeable.sol\":4671:4694  address(this) == __self */\n      and\n      eq\n      dup1\n        /* \"@openzeppelin/contracts-upgradeable/proxy/utils/UUPSUpgradeable.sol\":4671:4791  address(this) == __self || // Must be called through delegatecall... */\n      tag_521\n      jumpi\n      pop\n        /* \"@openzeppelin/contracts-upgradeable/proxy/utils/UUPSUpgradeable.sol\":4785:4791  __self */\n      immutable(\"0x6740f0f1ed974f4bbc4ea3ddf8917f81b1171208e4ec27e89df857ca2a56624a\")\n      sub(shl(0xa0, 0x01), 0x01)\n        /* \"@openzeppelin/contracts-upgradeable/proxy/utils/UUPSUpgradeable.sol\":4749:4791  ERC1967Utils.getImplementation() != __self */\n      and\n        /* \"@openzeppelin/contracts-upgradeable/proxy/utils/UUPSUpgradeable.sol\":4749:4781  ERC1967Utils.getImplementation() */\n      tag_522\n      0x00\n      dup1\n      mload\n      0x20\n      data_75b20eef8615de99c108b05f0dbda081c91897128caa336d75dffb97c4132b4d\n      dup4\n      codecopy\n      dup2\n      mload\n      swap2\n      mstore\n        /* \"@openzeppelin/contracts/proxy/ERC1967/ERC1967Utils.sol\":2035:2088  StorageSlot.getAddressSlot(IMPLEMENTATION_SLOT).value */\n      sload\n      sub(shl(0xa0, 0x01), 0x01)\n      and\n      swap1\n        /* \"@openzeppelin/contracts/proxy/ERC1967/ERC1967Utils.sol\":1957:2095  function getImplementation() internal view returns (address) {... */\n      jump\n        /* \"@openzeppelin/contracts-upgradeable/proxy/utils/UUPSUpgradeable.sol\":4749:4781  ERC1967Utils.getImplementation() */\n    tag_522:\n      sub(shl(0xa0, 0x01), 0x01)\n        /* \"@openzeppelin/contracts-upgradeable/proxy/utils/UUPSUpgradeable.sol\":4749:4791  ERC1967Utils.getImplementation() != __self */\n      and\n      eq\n      iszero\n        /* \"@openzeppelin/contracts-upgradeable/proxy/utils/UUPSUpgradeable.sol\":4671:4791  address(this) == __self || // Must be called through delegatecall... */\n    tag_521:\n        /* \"@openzeppelin/contracts-upgradeable/proxy/utils/UUPSUpgradeable.sol\":4654:4905  if (... */\n      iszero\n      tag_353\n      jumpi\n        /* \"@openzeppelin/contracts-upgradeable/proxy/utils/UUPSUpgradeable.sol\":4865:4894  UUPSUnauthorizedCallContext() */\n      mload(0x40)\n      shl(0xe1, 0x703e46dd)\n      dup2\n      mstore\n      0x04\n      add\n      mload(0x40)\n      dup1\n      swap2\n      sub\n      swap1\n      revert\n        /* \"DripWarrior/poolContract.sol\":16435:16547  function _authorizeUpgrade(address newImplementation)... */\n    tag_291:\n        /* \"@openzeppelin/contracts-upgradeable/access/OwnableUpgradeable.sol\":2334:2347  _checkOwner() */\n      tag_512\n        /* \"@openzeppelin/contracts-upgradeable/access/OwnableUpgradeable.sol\":2334:2345  _checkOwner */\n      tag_262\n        /* \"@openzeppelin/contracts-upgradeable/access/OwnableUpgradeable.sol\":2334:2347  _checkOwner() */\n      jump\t// in\n        /* \"@openzeppelin/contracts-upgradeable/proxy/utils/UUPSUpgradeable.sol\":6052:6590  function _upgradeToAndCallUUPS(address newImplementation, bytes memory data) private {... */\n    tag_293:\n        /* \"@openzeppelin/contracts-upgradeable/proxy/utils/UUPSUpgradeable.sol\":6169:6186  newImplementation */\n      dup2\n      sub(shl(0xa0, 0x01), 0x01)\n        /* \"@openzeppelin/contracts-upgradeable/proxy/utils/UUPSUpgradeable.sol\":6151:6201  IERC1822Proxiable(newImplementation).proxiableUUID */\n      and\n      0x52d1902d\n        /* \"@openzeppelin/contracts-upgradeable/proxy/utils/UUPSUpgradeable.sol\":6151:6203  IERC1822Proxiable(newImplementation).proxiableUUID() */\n      mload(0x40)\n      dup2\n      0xffffffff\n      and\n      0xe0\n      shl\n      dup2\n      mstore\n      0x04\n      add\n      0x20\n      mload(0x40)\n      dup1\n      dup4\n      sub\n      dup2\n      dup7\n      gas\n      staticcall\n      swap3\n      pop\n      pop\n      pop\n      dup1\n      iszero\n      tag_529\n      jumpi\n      pop\n      0x40\n      dup1\n      mload\n      0x1f\n      returndatasize\n      swap1\n      dup2\n      add\n      not(0x1f)\n      and\n      dup3\n      add\n      swap1\n      swap3\n      mstore\n      tag_530\n      swap2\n      dup2\n      add\n      swap1\n      tag_531\n      jump\t// in\n    tag_530:\n      0x01\n    tag_529:\n        /* \"@openzeppelin/contracts-upgradeable/proxy/utils/UUPSUpgradeable.sol\":6147:6584  try IERC1822Proxiable(newImplementation).proxiableUUID() returns (bytes32 slot) {... */\n      tag_532\n      jumpi\n        /* \"@openzeppelin/contracts-upgradeable/proxy/utils/UUPSUpgradeable.sol\":6513:6573  ERC1967Utils.ERC1967InvalidImplementation(newImplementation) */\n      mload(0x40)\n      shl(0xe0, 0x4c9c8ce3)\n      dup2\n      mstore\n      sub(shl(0xa0, 0x01), 0x01)\n        /* \"#utility.yul\":375:407   */\n      dup4\n      and\n        /* \"@openzeppelin/contracts-upgradeable/proxy/utils/UUPSUpgradeable.sol\":6513:6573  ERC1967Utils.ERC1967InvalidImplementation(newImplementation) */\n      0x04\n      dup3\n      add\n        /* \"#utility.yul\":357:408   */\n      mstore\n        /* \"#utility.yul\":330:348   */\n      0x24\n      add\n        /* \"@openzeppelin/contracts-upgradeable/proxy/utils/UUPSUpgradeable.sol\":6513:6573  ERC1967Utils.ERC1967InvalidImplementation(newImplementation) */\n      tag_265\n        /* \"#utility.yul\":196:414   */\n      jump\n        /* \"@openzeppelin/contracts-upgradeable/proxy/utils/UUPSUpgradeable.sol\":6147:6584  try IERC1822Proxiable(newImplementation).proxiableUUID() returns (bytes32 slot) {... */\n    tag_532:\n      0x00\n      dup1\n      mload\n      0x20\n      data_75b20eef8615de99c108b05f0dbda081c91897128caa336d75dffb97c4132b4d\n      dup4\n      codecopy\n      dup2\n      mload\n      swap2\n      mstore\n        /* \"@openzeppelin/contracts-upgradeable/proxy/utils/UUPSUpgradeable.sol\":6245:6285  slot != ERC1967Utils.IMPLEMENTATION_SLOT */\n      dup2\n      eq\n        /* \"@openzeppelin/contracts-upgradeable/proxy/utils/UUPSUpgradeable.sol\":6241:6361  if (slot != ERC1967Utils.IMPLEMENTATION_SLOT) {... */\n      tag_538\n      jumpi\n        /* \"@openzeppelin/contracts-upgradeable/proxy/utils/UUPSUpgradeable.sol\":6312:6346  UUPSUnsupportedProxiableUUID(slot) */\n      mload(0x40)\n      shl(0xe2, 0x2a875269)\n      dup2\n      mstore\n      0x04\n      dup2\n      add\n        /* \"#utility.yul\":160:185   */\n      dup3\n      swap1\n      mstore\n        /* \"#utility.yul\":133:151   */\n      0x24\n      add\n        /* \"@openzeppelin/contracts-upgradeable/proxy/utils/UUPSUpgradeable.sol\":6312:6346  UUPSUnsupportedProxiableUUID(slot) */\n      tag_265\n        /* \"#utility.yul\":14:191   */\n      jump\n        /* \"@openzeppelin/contracts-upgradeable/proxy/utils/UUPSUpgradeable.sol\":6241:6361  if (slot != ERC1967Utils.IMPLEMENTATION_SLOT) {... */\n    tag_538:\n        /* \"@openzeppelin/contracts-upgradeable/proxy/utils/UUPSUpgradeable.sol\":6374:6428  ERC1967Utils.upgradeToAndCall(newImplementation, data) */\n      tag_540\n        /* \"@openzeppelin/contracts-upgradeable/proxy/utils/UUPSUpgradeable.sol\":6404:6421  newImplementation */\n      dup4\n        /* \"@openzeppelin/contracts-upgradeable/proxy/utils/UUPSUpgradeable.sol\":6423:6427  data */\n      dup4\n        /* \"@openzeppelin/contracts-upgradeable/proxy/utils/UUPSUpgradeable.sol\":6374:6403  ERC1967Utils.upgradeToAndCall */\n      tag_541\n        /* \"@openzeppelin/contracts-upgradeable/proxy/utils/UUPSUpgradeable.sol\":6374:6428  ERC1967Utils.upgradeToAndCall(newImplementation, data) */\n      jump\t// in\n    tag_540:\n        /* \"@openzeppelin/contracts-upgradeable/proxy/utils/UUPSUpgradeable.sol\":6204:6439  returns (bytes32 slot) {... */\n      pop\n        /* \"@openzeppelin/contracts-upgradeable/proxy/utils/UUPSUpgradeable.sol\":6052:6590  function _upgradeToAndCallUUPS(address newImplementation, bytes memory data) private {... */\n      pop\n      pop\n      jump\t// out\n        /* \"@openzeppelin/contracts-upgradeable/proxy/utils/UUPSUpgradeable.sol\":5028:5241  function _checkNotDelegated() internal view virtual {... */\n    tag_312:\n        /* \"@openzeppelin/contracts-upgradeable/proxy/utils/UUPSUpgradeable.sol\":5102:5106  this */\n      address\n      sub(shl(0xa0, 0x01), 0x01)\n        /* \"@openzeppelin/contracts-upgradeable/proxy/utils/UUPSUpgradeable.sol\":5111:5117  __self */\n      immutable(\"0x6740f0f1ed974f4bbc4ea3ddf8917f81b1171208e4ec27e89df857ca2a56624a\")\n        /* \"@openzeppelin/contracts-upgradeable/proxy/utils/UUPSUpgradeable.sol\":5094:5117  address(this) != __self */\n      and\n      eq\n        /* \"@openzeppelin/contracts-upgradeable/proxy/utils/UUPSUpgradeable.sol\":5090:5235  if (address(this) != __self) {... */\n      tag_353\n      jumpi\n        /* \"@openzeppelin/contracts-upgradeable/proxy/utils/UUPSUpgradeable.sol\":5195:5224  UUPSUnauthorizedCallContext() */\n      mload(0x40)\n      shl(0xe1, 0x703e46dd)\n      dup2\n      mstore\n      0x04\n      add\n      mload(0x40)\n      dup1\n      swap2\n      sub\n      swap1\n      revert\n        /* \"@openzeppelin/contracts-upgradeable/access/OwnableUpgradeable.sol\":3774:4022  function _transferOwnership(address newOwner) internal virtual {... */\n    tag_354:\n        /* \"@openzeppelin/contracts-upgradeable/access/OwnableUpgradeable.sol\":1313:1335  OwnableStorageLocation */\n      0x9016d09d72d40fdae2fd8ceac6b6234c7706214fd39c1cd1e609a0528c199300\n        /* \"@openzeppelin/contracts-upgradeable/access/OwnableUpgradeable.sol\":3923:3931  $._owner */\n      dup1\n      sload\n      not(sub(shl(0xa0, 0x01), 0x01))\n        /* \"@openzeppelin/contracts-upgradeable/access/OwnableUpgradeable.sol\":3941:3960  $._owner = newOwner */\n      dup2\n      and\n      sub(shl(0xa0, 0x01), 0x01)\n      dup5\n      dup2\n      and\n      swap2\n      dup3\n      or\n      dup5\n      sstore\n        /* \"@openzeppelin/contracts-upgradeable/access/OwnableUpgradeable.sol\":3975:4015  OwnershipTransferred(oldOwner, newOwner) */\n      mload(0x40)\n        /* \"@openzeppelin/contracts-upgradeable/access/OwnableUpgradeable.sol\":3923:3931  $._owner */\n      swap3\n      and\n      swap2\n      dup3\n      swap1\n        /* \"@openzeppelin/contracts-upgradeable/access/OwnableUpgradeable.sol\":3975:4015  OwnershipTransferred(oldOwner, newOwner) */\n      0x8be0079c531659141344cd1fd0a4f28419497f9722a3daafe3b4186f6b6457e0\n      swap1\n        /* \"@openzeppelin/contracts-upgradeable/access/OwnableUpgradeable.sol\":3847:3871  OwnableStorage storage $ */\n      0x00\n      swap1\n        /* \"@openzeppelin/contracts-upgradeable/access/OwnableUpgradeable.sol\":3975:4015  OwnershipTransferred(oldOwner, newOwner) */\n      log3\n        /* \"@openzeppelin/contracts-upgradeable/access/OwnableUpgradeable.sol\":3837:4022  {... */\n      pop\n      pop\n        /* \"@openzeppelin/contracts-upgradeable/access/OwnableUpgradeable.sol\":3774:4022  function _transferOwnership(address newOwner) internal virtual {... */\n      pop\n      jump\t// out\n        /* \"DripWarrior/poolContract.sol\":7639:8018  function calculateFees(uint256 _amount, uint256 _tPPercentage) private {... */\n    tag_414:\n        /* \"DripWarrior/poolContract.sol\":7728:7748  uint256 oPPercentage */\n      0x00\n        /* \"DripWarrior/poolContract.sol\":7751:7772  10000 - _tPPercentage */\n      tag_547\n        /* \"DripWarrior/poolContract.sol\":7759:7772  _tPPercentage */\n      dup3\n        /* \"DripWarrior/poolContract.sol\":7751:7756  10000 */\n      0x2710\n        /* \"DripWarrior/poolContract.sol\":7751:7772  10000 - _tPPercentage */\n      tag_269\n      jump\t// in\n    tag_547:\n        /* \"DripWarrior/poolContract.sol\":7728:7772  uint256 oPPercentage = 10000 - _tPPercentage */\n      swap1\n      pop\n        /* \"DripWarrior/poolContract.sol\":7782:7802  uint256 ownerShipFee */\n      0x00\n        /* \"DripWarrior/poolContract.sol\":7805:7847  calculatePercentage(_amount, oPPercentage) */\n      tag_548\n        /* \"DripWarrior/poolContract.sol\":7825:7832  _amount */\n      dup5\n        /* \"DripWarrior/poolContract.sol\":7834:7846  oPPercentage */\n      dup4\n        /* \"DripWarrior/poolContract.sol\":7805:7824  calculatePercentage */\n      tag_491\n        /* \"DripWarrior/poolContract.sol\":7805:7847  calculatePercentage(_amount, oPPercentage) */\n      jump\t// in\n    tag_548:\n        /* \"DripWarrior/poolContract.sol\":7782:7847  uint256 ownerShipFee = calculatePercentage(_amount, oPPercentage) */\n      swap1\n      pop\n        /* \"DripWarrior/poolContract.sol\":7857:7876  uint256 treasuryFee */\n      0x00\n        /* \"DripWarrior/poolContract.sol\":7879:7922  calculatePercentage(_amount, _tPPercentage) */\n      tag_549\n        /* \"DripWarrior/poolContract.sol\":7899:7906  _amount */\n      dup6\n        /* \"DripWarrior/poolContract.sol\":7908:7921  _tPPercentage */\n      dup6\n        /* \"DripWarrior/poolContract.sol\":7879:7898  calculatePercentage */\n      tag_491\n        /* \"DripWarrior/poolContract.sol\":7879:7922  calculatePercentage(_amount, _tPPercentage) */\n      jump\t// in\n    tag_549:\n        /* \"DripWarrior/poolContract.sol\":7857:7922  uint256 treasuryFee = calculatePercentage(_amount, _tPPercentage) */\n      swap1\n      pop\n        /* \"DripWarrior/poolContract.sol\":7956:7968  ownerShipFee */\n      dup2\n        /* \"DripWarrior/poolContract.sol\":7933:7952  ownerShipPoolAmount */\n      0x02\n      0x00\n        /* \"DripWarrior/poolContract.sol\":7933:7968  ownerShipPoolAmount += ownerShipFee */\n      dup3\n      dup3\n      sload\n      tag_550\n      swap2\n      swap1\n      tag_300\n      jump\t// in\n    tag_550:\n      swap3\n      pop\n      pop\n      dup2\n      swap1\n      sstore\n      pop\n        /* \"DripWarrior/poolContract.sol\":8000:8011  treasuryFee */\n      dup1\n        /* \"DripWarrior/poolContract.sol\":7978:7996  treasuryPoolAmount */\n      0x01\n      0x00\n        /* \"DripWarrior/poolContract.sol\":7978:8011  treasuryPoolAmount += treasuryFee */\n      dup3\n      dup3\n      sload\n      tag_551\n      swap2\n      swap1\n      tag_300\n      jump\t// in\n    tag_551:\n      swap1\n      swap2\n      sstore\n      pop\n      pop\n      pop\n      pop\n      pop\n      pop\n      pop\n        /* \"DripWarrior/poolContract.sol\":7639:8018  function calculateFees(uint256 _amount, uint256 _tPPercentage) private {... */\n      jump\t// out\n        /* \"@openzeppelin/contracts-upgradeable/access/OwnableUpgradeable.sol\":1847:1974  function __Ownable_init(address initialOwner) internal onlyInitializing {... */\n    tag_448:\n        /* \"@openzeppelin/contracts-upgradeable/proxy/utils/Initializable.sol\":6931:6951  _checkInitializing() */\n      tag_555\n        /* \"@openzeppelin/contracts-upgradeable/proxy/utils/Initializable.sol\":6931:6949  _checkInitializing */\n      tag_556\n        /* \"@openzeppelin/contracts-upgradeable/proxy/utils/Initializable.sol\":6931:6951  _checkInitializing() */\n      jump\t// in\n    tag_555:\n        /* \"@openzeppelin/contracts-upgradeable/access/OwnableUpgradeable.sol\":1929:1967  __Ownable_init_unchained(initialOwner) */\n      tag_512\n        /* \"@openzeppelin/contracts-upgradeable/access/OwnableUpgradeable.sol\":1954:1966  initialOwner */\n      dup2\n        /* \"@openzeppelin/contracts-upgradeable/access/OwnableUpgradeable.sol\":1929:1953  __Ownable_init_unchained */\n      tag_559\n        /* \"@openzeppelin/contracts-upgradeable/access/OwnableUpgradeable.sol\":1929:1967  __Ownable_init_unchained(initialOwner) */\n      jump\t// in\n        /* \"@openzeppelin/contracts-upgradeable/proxy/utils/UUPSUpgradeable.sol\":2968:3035  function __UUPSUpgradeable_init() internal onlyInitializing {... */\n    tag_450:\n        /* \"@openzeppelin/contracts-upgradeable/proxy/utils/Initializable.sol\":6931:6951  _checkInitializing() */\n      tag_353\n        /* \"@openzeppelin/contracts-upgradeable/proxy/utils/Initializable.sol\":6931:6949  _checkInitializing */\n      tag_556\n        /* \"@openzeppelin/contracts-upgradeable/proxy/utils/Initializable.sol\":6931:6951  _checkInitializing() */\n      jump\t// in\n        /* \"DripWarrior/poolContract.sol\":9598:10749  function perPoolCalculation() private returns(uint256, uint256,uint256){... */\n    tag_477:\n        /* \"DripWarrior/poolContract.sol\":9644:9651  uint256 */\n      0x00\n        /* \"DripWarrior/poolContract.sol\":9653:9660  uint256 */\n      dup1\n        /* \"DripWarrior/poolContract.sol\":9661:9668  uint256 */\n      0x00\n        /* \"DripWarrior/poolContract.sol\":9689:9713  uint256 remainFiftyOPool */\n      dup1\n        /* \"DripWarrior/poolContract.sol\":9716:9762  calculatePercentage(ownerShipPoolAmount, 5000) */\n      tag_564\n        /* \"DripWarrior/poolContract.sol\":9736:9755  ownerShipPoolAmount */\n      sload(0x02)\n        /* \"DripWarrior/poolContract.sol\":9757:9761  5000 */\n      0x1388\n        /* \"DripWarrior/poolContract.sol\":9716:9735  calculatePercentage */\n      tag_491\n        /* \"DripWarrior/poolContract.sol\":9716:9762  calculatePercentage(ownerShipPoolAmount, 5000) */\n      jump\t// in\n    tag_564:\n        /* \"DripWarrior/poolContract.sol\":9689:9762  uint256 remainFiftyOPool = calculatePercentage(ownerShipPoolAmount, 5000) */\n      swap1\n      pop\n        /* \"DripWarrior/poolContract.sol\":9773:9806  uint256 dividentPayoutOPoolAmount */\n      0x00\n        /* \"DripWarrior/poolContract.sol\":9809:9873  calculatePercentage(remainFiftyOPool, odividentPayoutPercentage) */\n      tag_565\n        /* \"DripWarrior/poolContract.sol\":9829:9845  remainFiftyOPool */\n      dup3\n        /* \"DripWarrior/poolContract.sol\":9847:9872  odividentPayoutPercentage */\n      sload(0x05)\n        /* \"DripWarrior/poolContract.sol\":9809:9828  calculatePercentage */\n      tag_491\n        /* \"DripWarrior/poolContract.sol\":9809:9873  calculatePercentage(remainFiftyOPool, odividentPayoutPercentage) */\n      jump\t// in\n    tag_565:\n        /* \"DripWarrior/poolContract.sol\":9773:9873  uint256 dividentPayoutOPoolAmount = calculatePercentage(remainFiftyOPool, odividentPayoutPercentage) */\n      swap1\n      pop\n        /* \"DripWarrior/poolContract.sol\":9883:9919  uint256 fifteenPercenntToTPoolAmount */\n      0x00\n        /* \"DripWarrior/poolContract.sol\":9922:9985  calculatePercentage(remainFiftyOPool, flowToTreasuryPercentage) */\n      tag_566\n        /* \"DripWarrior/poolContract.sol\":9942:9958  remainFiftyOPool */\n      dup4\n        /* \"DripWarrior/poolContract.sol\":9960:9984  flowToTreasuryPercentage */\n      sload(0x06)\n        /* \"DripWarrior/poolContract.sol\":9922:9941  calculatePercentage */\n      tag_491\n        /* \"DripWarrior/poolContract.sol\":9922:9985  calculatePercentage(remainFiftyOPool, flowToTreasuryPercentage) */\n      jump\t// in\n    tag_566:\n        /* \"DripWarrior/poolContract.sol\":9883:9985  uint256 fifteenPercenntToTPoolAmount = calculatePercentage(remainFiftyOPool, flowToTreasuryPercentage) */\n      swap1\n      pop\n        /* \"DripWarrior/poolContract.sol\":9995:10031  uint256 tenPercenntToMaintenceAmount */\n      0x00\n        /* \"DripWarrior/poolContract.sol\":10034:10096  calculatePercentage(remainFiftyOPool, maintainceFeePercentage) */\n      tag_567\n        /* \"DripWarrior/poolContract.sol\":10054:10070  remainFiftyOPool */\n      dup5\n        /* \"DripWarrior/poolContract.sol\":10072:10095  maintainceFeePercentage */\n      sload(0x07)\n        /* \"DripWarrior/poolContract.sol\":10034:10053  calculatePercentage */\n      tag_491\n        /* \"DripWarrior/poolContract.sol\":10034:10096  calculatePercentage(remainFiftyOPool, maintainceFeePercentage) */\n      jump\t// in\n    tag_567:\n        /* \"DripWarrior/poolContract.sol\":9995:10096  uint256 tenPercenntToMaintenceAmount = calculatePercentage(remainFiftyOPool, maintainceFeePercentage) */\n      swap1\n      pop\n        /* \"DripWarrior/poolContract.sol\":10106:10136  uint256 remainFiftyTPoolAmount */\n      0x00\n        /* \"DripWarrior/poolContract.sol\":10139:10205  calculatePercentage(treasuryPoolAmount, tdividentPayoutPercentage) */\n      tag_568\n        /* \"DripWarrior/poolContract.sol\":10159:10177  treasuryPoolAmount */\n      sload(0x01)\n        /* \"DripWarrior/poolContract.sol\":10179:10204  tdividentPayoutPercentage */\n      sload(0x04)\n        /* \"DripWarrior/poolContract.sol\":10139:10158  calculatePercentage */\n      tag_491\n        /* \"DripWarrior/poolContract.sol\":10139:10205  calculatePercentage(treasuryPoolAmount, tdividentPayoutPercentage) */\n      jump\t// in\n    tag_568:\n        /* \"DripWarrior/poolContract.sol\":10106:10205  uint256 remainFiftyTPoolAmount = calculatePercentage(treasuryPoolAmount, tdividentPayoutPercentage) */\n      swap1\n      pop\n        /* \"DripWarrior/poolContract.sol\":10236:10237  0 */\n      0x00\n        /* \"DripWarrior/poolContract.sol\":10224:10233  noOfUsers */\n      sload(0x08)\n        /* \"DripWarrior/poolContract.sol\":10224:10237  noOfUsers > 0 */\n      gt\n        /* \"DripWarrior/poolContract.sol\":10216:10251  require(noOfUsers > 0, \"no users!\") */\n      tag_569\n      jumpi\n      mload(0x40)\n      shl(0xe5, 0x461bcd)\n      dup2\n      mstore\n        /* \"#utility.yul\":11742:11744   */\n      0x20\n        /* \"DripWarrior/poolContract.sol\":10216:10251  require(noOfUsers > 0, \"no users!\") */\n      0x04\n      dup3\n      add\n        /* \"#utility.yul\":11724:11745   */\n      mstore\n        /* \"#utility.yul\":11781:11782   */\n      0x09\n        /* \"#utility.yul\":11761:11779   */\n      0x24\n      dup3\n      add\n        /* \"#utility.yul\":11754:11783   */\n      mstore\n      shl(0xb8, 0x6e6f20757365727321)\n        /* \"#utility.yul\":11799:11817   */\n      0x44\n      dup3\n      add\n        /* \"#utility.yul\":11792:11831   */\n      mstore\n        /* \"#utility.yul\":11848:11866   */\n      0x64\n      add\n        /* \"DripWarrior/poolContract.sol\":10216:10251  require(noOfUsers > 0, \"no users!\") */\n      tag_265\n        /* \"#utility.yul\":11540:11872   */\n      jump\n        /* \"DripWarrior/poolContract.sol\":10216:10251  require(noOfUsers > 0, \"no users!\") */\n    tag_569:\n        /* \"DripWarrior/poolContract.sol\":10270:10296  uint256 perPersonFromTPool */\n      0x00\n        /* \"DripWarrior/poolContract.sol\":10322:10331  noOfUsers */\n      sload(0x08)\n        /* \"DripWarrior/poolContract.sol\":10299:10321  remainFiftyTPoolAmount */\n      dup3\n        /* \"DripWarrior/poolContract.sol\":10299:10331  remainFiftyTPoolAmount/noOfUsers */\n      tag_572\n      swap2\n      swap1\n      tag_489\n      jump\t// in\n    tag_572:\n        /* \"DripWarrior/poolContract.sol\":10270:10331  uint256 perPersonFromTPool = remainFiftyTPoolAmount/noOfUsers */\n      swap1\n      pop\n        /* \"DripWarrior/poolContract.sol\":10374:10433  fifteenPercenntToTPoolAmount + tenPercenntToMaintenceAmount */\n      tag_573\n        /* \"DripWarrior/poolContract.sol\":10405:10433  tenPercenntToMaintenceAmount */\n      dup4\n        /* \"DripWarrior/poolContract.sol\":10374:10402  fifteenPercenntToTPoolAmount */\n      dup6\n        /* \"DripWarrior/poolContract.sol\":10374:10433  fifteenPercenntToTPoolAmount + tenPercenntToMaintenceAmount */\n      tag_300\n      jump\t// in\n    tag_573:\n        /* \"DripWarrior/poolContract.sol\":10350:10369  ownerShipPoolAmount */\n      0x02\n      0x00\n        /* \"DripWarrior/poolContract.sol\":10350:10434  ownerShipPoolAmount -= (fifteenPercenntToTPoolAmount + tenPercenntToMaintenceAmount) */\n      dup3\n      dup3\n      sload\n      tag_574\n      swap2\n      swap1\n      tag_269\n      jump\t// in\n    tag_574:\n      swap3\n      pop\n      pop\n      dup2\n      swap1\n      sstore\n      pop\n        /* \"DripWarrior/poolContract.sol\":10466:10494  fifteenPercenntToTPoolAmount */\n      dup4\n        /* \"DripWarrior/poolContract.sol\":10444:10462  treasuryPoolAmount */\n      0x01\n      0x00\n        /* \"DripWarrior/poolContract.sol\":10444:10494  treasuryPoolAmount += fifteenPercenntToTPoolAmount */\n      dup3\n      dup3\n      sload\n      tag_575\n      swap2\n      swap1\n      tag_300\n      jump\t// in\n    tag_575:\n      swap1\n      swap2\n      sstore\n      pop\n      pop\n        /* \"DripWarrior/poolContract.sol\":10505:10517  bool success */\n      0x00\n        /* \"DripWarrior/poolContract.sol\":10520:10529  usdcToken */\n      dup1\n      sload\n        /* \"DripWarrior/poolContract.sol\":10539:10554  multisigAddress */\n      sload(0x09)\n        /* \"DripWarrior/poolContract.sol\":10520:10585  usdcToken.transfer(multisigAddress, tenPercenntToMaintenceAmount) */\n      mload(0x40)\n      shl(0xe0, 0xa9059cbb)\n      dup2\n      mstore\n      sub(shl(0xa0, 0x01), 0x01)\n        /* \"DripWarrior/poolContract.sol\":10539:10554  multisigAddress */\n      swap2\n      dup3\n      and\n        /* \"DripWarrior/poolContract.sol\":10520:10585  usdcToken.transfer(multisigAddress, tenPercenntToMaintenceAmount) */\n      0x04\n      dup3\n      add\n        /* \"#utility.yul\":8287:8338   */\n      mstore\n        /* \"#utility.yul\":8354:8372   */\n      0x24\n      dup2\n      add\n        /* \"#utility.yul\":8347:8381   */\n      dup8\n      swap1\n      mstore\n        /* \"DripWarrior/poolContract.sol\":10520:10529  usdcToken */\n      swap2\n      and\n      swap1\n        /* \"DripWarrior/poolContract.sol\":10520:10538  usdcToken.transfer */\n      0xa9059cbb\n      swap1\n        /* \"#utility.yul\":8260:8278   */\n      0x44\n      add\n        /* \"DripWarrior/poolContract.sol\":10520:10585  usdcToken.transfer(multisigAddress, tenPercenntToMaintenceAmount) */\n      0x20\n      mload(0x40)\n      dup1\n      dup4\n      sub\n      dup2\n      0x00\n      dup8\n      gas\n      call\n      iszero\n      dup1\n      iszero\n      tag_578\n      jumpi\n      returndatasize\n      0x00\n      dup1\n      returndatacopy\n      revert(0x00, returndatasize)\n    tag_578:\n      pop\n      pop\n      pop\n      pop\n      mload(0x40)\n      returndatasize\n      not(0x1f)\n      0x1f\n      dup3\n      add\n      and\n      dup3\n      add\n      dup1\n      0x40\n      mstore\n      pop\n      dup2\n      add\n      swap1\n      tag_579\n      swap2\n      swap1\n      tag_306\n      jump\t// in\n    tag_579:\n        /* \"DripWarrior/poolContract.sol\":10505:10585  bool success = usdcToken.transfer(multisigAddress, tenPercenntToMaintenceAmount) */\n      swap1\n      pop\n        /* \"DripWarrior/poolContract.sol\":10599:10606  success */\n      dup1\n        /* \"DripWarrior/poolContract.sol\":10595:10662  if(!success){... */\n      tag_580\n      jumpi\n        /* \"DripWarrior/poolContract.sol\":10628:10651  transferFailed(success) */\n      mload(0x40)\n      shl(0xe0, 0xd85d3cef)\n      dup2\n      mstore\n        /* \"#utility.yul\":1023:1037   */\n      dup2\n      iszero\n        /* \"#utility.yul\":1016:1038   */\n      iszero\n        /* \"DripWarrior/poolContract.sol\":10628:10651  transferFailed(success) */\n      0x04\n      dup3\n      add\n        /* \"#utility.yul\":998:1039   */\n      mstore\n        /* \"#utility.yul\":971:989   */\n      0x24\n      add\n        /* \"DripWarrior/poolContract.sol\":10628:10651  transferFailed(success) */\n      tag_265\n        /* \"#utility.yul\":858:1045   */\n      jump\n        /* \"DripWarrior/poolContract.sol\":10595:10662  if(!success){... */\n    tag_580:\n      pop\n        /* \"DripWarrior/poolContract.sol\":10680:10696  remainFiftyOPool */\n      swap5\n      swap9\n        /* \"DripWarrior/poolContract.sol\":10697:10722  dividentPayoutOPoolAmount */\n      swap4\n      swap8\n      pop\n        /* \"DripWarrior/poolContract.sol\":10723:10741  perPersonFromTPool */\n      swap4\n      swap6\n      pop\n        /* \"DripWarrior/poolContract.sol\":9598:10749  function perPoolCalculation() private returns(uint256, uint256,uint256){... */\n      swap2\n      swap4\n      pop\n      pop\n      pop\n      pop\n      jump\t// out\n        /* \"DripWarrior/poolContract.sol\":12862:13259  function calculatePercentage(uint256 _totalStakeAmount,uint256 percentageNumber) private pure returns(uint256) {... */\n    tag_491:\n        /* \"DripWarrior/poolContract.sol\":12964:12971  uint256 */\n      0x00\n        /* \"DripWarrior/poolContract.sol\":13000:13017  _totalStakeAmount */\n      dup3\n        /* \"DripWarrior/poolContract.sol\":13020:13021  0 */\n      0x00\n        /* \"DripWarrior/poolContract.sol\":13000:13021  _totalStakeAmount !=0 */\n      sub\n        /* \"DripWarrior/poolContract.sol\":12992:13060  require(_totalStakeAmount !=0 , \"_totalStakeAmount can not be zero\") */\n      tag_583\n      jumpi\n      mload(0x40)\n      shl(0xe5, 0x461bcd)\n      dup2\n      mstore\n      0x04\n      add\n      tag_265\n      swap1\n      tag_585\n      jump\t// in\n    tag_583:\n        /* \"DripWarrior/poolContract.sol\":13078:13094  percentageNumber */\n      dup2\n        /* \"DripWarrior/poolContract.sol\":13097:13098  0 */\n      0x00\n        /* \"DripWarrior/poolContract.sol\":13078:13098  percentageNumber !=0 */\n      sub\n        /* \"DripWarrior/poolContract.sol\":13070:13137  require(percentageNumber !=0 , \"_totalStakeAmount can not be zero\") */\n      tag_586\n      jumpi\n      mload(0x40)\n      shl(0xe5, 0x461bcd)\n      dup2\n      mstore\n      0x04\n      add\n      tag_265\n      swap1\n      tag_585\n      jump\t// in\n    tag_586:\n        /* \"DripWarrior/poolContract.sol\":13147:13165  uint256 serviceFee */\n      0x00\n        /* \"DripWarrior/poolContract.sol\":13210:13215  10000 */\n      0x2710\n        /* \"DripWarrior/poolContract.sol\":13168:13206  _totalStakeAmount * (percentageNumber) */\n      tag_588\n        /* \"DripWarrior/poolContract.sol\":13189:13205  percentageNumber */\n      dup5\n        /* \"DripWarrior/poolContract.sol\":13168:13185  _totalStakeAmount */\n      dup7\n        /* \"DripWarrior/poolContract.sol\":13168:13206  _totalStakeAmount * (percentageNumber) */\n      tag_487\n      jump\t// in\n    tag_588:\n        /* \"DripWarrior/poolContract.sol\":13168:13216  _totalStakeAmount * (percentageNumber) / (10000) */\n      tag_589\n      swap2\n      swap1\n      tag_489\n      jump\t// in\n    tag_589:\n        /* \"DripWarrior/poolContract.sol\":13147:13216  uint256 serviceFee = _totalStakeAmount * (percentageNumber) / (10000) */\n      swap2\n      pop\n      pop\n        /* \"DripWarrior/poolContract.sol\":12862:13259  function calculatePercentage(uint256 _totalStakeAmount,uint256 percentageNumber) private pure returns(uint256) {... */\n    tag_582:\n      swap3\n      swap2\n      pop\n      pop\n      jump\t// out\n        /* \"@openzeppelin/contracts/proxy/ERC1967/ERC1967Utils.sol\":2779:3114  function upgradeToAndCall(address newImplementation, bytes memory data) internal {... */\n    tag_541:\n        /* \"@openzeppelin/contracts/proxy/ERC1967/ERC1967Utils.sol\":2870:2907  _setImplementation(newImplementation) */\n      tag_595\n        /* \"@openzeppelin/contracts/proxy/ERC1967/ERC1967Utils.sol\":2889:2906  newImplementation */\n      dup3\n        /* \"@openzeppelin/contracts/proxy/ERC1967/ERC1967Utils.sol\":2870:2888  _setImplementation */\n      tag_596\n        /* \"@openzeppelin/contracts/proxy/ERC1967/ERC1967Utils.sol\":2870:2907  _setImplementation(newImplementation) */\n      jump\t// in\n    tag_595:\n        /* \"@openzeppelin/contracts/proxy/ERC1967/ERC1967Utils.sol\":2922:2949  Upgraded(newImplementation) */\n      mload(0x40)\n      sub(shl(0xa0, 0x01), 0x01)\n      dup4\n      and\n      swap1\n      0xbc7cd75a20ee27fd9adebab32041f755214dbc6bffa90cc0225b39da2e5c2d3b\n      swap1\n      0x00\n      swap1\n      log2\n        /* \"@openzeppelin/contracts/proxy/ERC1967/ERC1967Utils.sol\":2964:2975  data.length */\n      dup1\n      mload\n        /* \"@openzeppelin/contracts/proxy/ERC1967/ERC1967Utils.sol\":2964:2979  data.length > 0 */\n      iszero\n        /* \"@openzeppelin/contracts/proxy/ERC1967/ERC1967Utils.sol\":2960:3108  if (data.length > 0) {... */\n      tag_597\n      jumpi\n        /* \"@openzeppelin/contracts/proxy/ERC1967/ERC1967Utils.sol\":2995:3048  Address.functionDelegateCall(newImplementation, data) */\n      tag_540\n        /* \"@openzeppelin/contracts/proxy/ERC1967/ERC1967Utils.sol\":3024:3041  newImplementation */\n      dup3\n        /* \"@openzeppelin/contracts/proxy/ERC1967/ERC1967Utils.sol\":3043:3047  data */\n      dup3\n        /* \"@openzeppelin/contracts/proxy/ERC1967/ERC1967Utils.sol\":2995:3023  Address.functionDelegateCall */\n      tag_599\n        /* \"@openzeppelin/contracts/proxy/ERC1967/ERC1967Utils.sol\":2995:3048  Address.functionDelegateCall(newImplementation, data) */\n      jump\t// in\n        /* \"@openzeppelin/contracts/proxy/ERC1967/ERC1967Utils.sol\":2960:3108  if (data.length > 0) {... */\n    tag_597:\n        /* \"@openzeppelin/contracts/proxy/ERC1967/ERC1967Utils.sol\":3079:3097  _checkNonPayable() */\n      tag_285\n        /* \"@openzeppelin/contracts/proxy/ERC1967/ERC1967Utils.sol\":3079:3095  _checkNonPayable */\n      tag_602\n        /* \"@openzeppelin/contracts/proxy/ERC1967/ERC1967Utils.sol\":3079:3097  _checkNonPayable() */\n      jump\t// in\n        /* \"@openzeppelin/contracts-upgradeable/proxy/utils/Initializable.sol\":7084:7225  function _checkInitializing() internal view virtual {... */\n    tag_556:\n        /* \"@openzeppelin/contracts-upgradeable/proxy/utils/Initializable.sol\":8870:8891  INITIALIZABLE_STORAGE */\n      0xf0c57e16840df040f15088dc2f81fe391c3923bec73e23a9662efc9c229c6a00\n        /* \"@openzeppelin/contracts-upgradeable/proxy/utils/Initializable.sol\":8560:8600  _getInitializableStorage()._initializing */\n      sload\n      shl(0x40, 0x01)\n      swap1\n      div\n      0xff\n      and\n        /* \"@openzeppelin/contracts-upgradeable/proxy/utils/Initializable.sol\":7146:7219  if (!_isInitializing()) {... */\n      tag_353\n      jumpi\n        /* \"@openzeppelin/contracts-upgradeable/proxy/utils/Initializable.sol\":7191:7208  NotInitializing() */\n      mload(0x40)\n      shl(0xe3, 0x1afcd79f)\n      dup2\n      mstore\n      0x04\n      add\n      mload(0x40)\n      dup1\n      swap2\n      sub\n      swap1\n      revert\n        /* \"@openzeppelin/contracts-upgradeable/access/OwnableUpgradeable.sol\":1980:2215  function __Ownable_init_unchained(address initialOwner) internal onlyInitializing {... */\n    tag_559:\n        /* \"@openzeppelin/contracts-upgradeable/proxy/utils/Initializable.sol\":6931:6951  _checkInitializing() */\n      tag_508\n        /* \"@openzeppelin/contracts-upgradeable/proxy/utils/Initializable.sol\":6931:6949  _checkInitializing */\n      tag_556\n        /* \"@openzeppelin/contracts-upgradeable/proxy/utils/Initializable.sol\":6931:6951  _checkInitializing() */\n      jump\t// in\n        /* \"@openzeppelin/contracts/proxy/ERC1967/ERC1967Utils.sol\":2186:2467  function _setImplementation(address newImplementation) private {... */\n    tag_596:\n        /* \"@openzeppelin/contracts/proxy/ERC1967/ERC1967Utils.sol\":2263:2280  newImplementation */\n      dup1\n      sub(shl(0xa0, 0x01), 0x01)\n        /* \"@openzeppelin/contracts/proxy/ERC1967/ERC1967Utils.sol\":2263:2292  newImplementation.code.length */\n      and\n      extcodesize\n        /* \"@openzeppelin/contracts/proxy/ERC1967/ERC1967Utils.sol\":2296:2297  0 */\n      0x00\n        /* \"@openzeppelin/contracts/proxy/ERC1967/ERC1967Utils.sol\":2263:2297  newImplementation.code.length == 0 */\n      sub\n        /* \"@openzeppelin/contracts/proxy/ERC1967/ERC1967Utils.sol\":2259:2378  if (newImplementation.code.length == 0) {... */\n      tag_615\n      jumpi\n        /* \"@openzeppelin/contracts/proxy/ERC1967/ERC1967Utils.sol\":2320:2367  ERC1967InvalidImplementation(newImplementation) */\n      mload(0x40)\n      shl(0xe0, 0x4c9c8ce3)\n      dup2\n      mstore\n      sub(shl(0xa0, 0x01), 0x01)\n        /* \"#utility.yul\":375:407   */\n      dup3\n      and\n        /* \"@openzeppelin/contracts/proxy/ERC1967/ERC1967Utils.sol\":2320:2367  ERC1967InvalidImplementation(newImplementation) */\n      0x04\n      dup3\n      add\n        /* \"#utility.yul\":357:408   */\n      mstore\n        /* \"#utility.yul\":330:348   */\n      0x24\n      add\n        /* \"@openzeppelin/contracts/proxy/ERC1967/ERC1967Utils.sol\":2320:2367  ERC1967InvalidImplementation(newImplementation) */\n      tag_265\n        /* \"#utility.yul\":196:414   */\n      jump\n        /* \"@openzeppelin/contracts/proxy/ERC1967/ERC1967Utils.sol\":2259:2378  if (newImplementation.code.length == 0) {... */\n    tag_615:\n      0x00\n      dup1\n      mload\n      0x20\n      data_75b20eef8615de99c108b05f0dbda081c91897128caa336d75dffb97c4132b4d\n      dup4\n      codecopy\n      dup2\n      mload\n      swap2\n      mstore\n        /* \"@openzeppelin/contracts/proxy/ERC1967/ERC1967Utils.sol\":2387:2460  StorageSlot.getAddressSlot(IMPLEMENTATION_SLOT).value = newImplementation */\n      dup1\n      sload\n      not(sub(shl(0xa0, 0x01), 0x01))\n      and\n      sub(shl(0xa0, 0x01), 0x01)\n      swap3\n      swap1\n      swap3\n      and\n      swap2\n      swap1\n      swap2\n      or\n      swap1\n      sstore\n        /* \"@openzeppelin/contracts/proxy/ERC1967/ERC1967Utils.sol\":2186:2467  function _setImplementation(address newImplementation) private {... */\n      jump\t// out\n        /* \"@openzeppelin/contracts/utils/Address.sol\":4106:4359  function functionDelegateCall(address target, bytes memory data) internal returns (bytes memory) {... */\n    tag_599:\n        /* \"@openzeppelin/contracts/utils/Address.sol\":4189:4201  bytes memory */\n      0x60\n        /* \"@openzeppelin/contracts/utils/Address.sol\":4214:4226  bool success */\n      0x00\n        /* \"@openzeppelin/contracts/utils/Address.sol\":4228:4251  bytes memory returndata */\n      dup1\n        /* \"@openzeppelin/contracts/utils/Address.sol\":4255:4261  target */\n      dup5\n      sub(shl(0xa0, 0x01), 0x01)\n        /* \"@openzeppelin/contracts/utils/Address.sol\":4255:4274  target.delegatecall */\n      and\n        /* \"@openzeppelin/contracts/utils/Address.sol\":4275:4279  data */\n      dup5\n        /* \"@openzeppelin/contracts/utils/Address.sol\":4255:4280  target.delegatecall(data) */\n      mload(0x40)\n      tag_619\n      swap2\n      swap1\n      tag_620\n      jump\t// in\n    tag_619:\n      0x00\n      mload(0x40)\n      dup1\n      dup4\n      sub\n      dup2\n      dup6\n      gas\n      delegatecall\n      swap2\n      pop\n      pop\n      returndatasize\n      dup1\n      0x00\n      dup2\n      eq\n      tag_623\n      jumpi\n      mload(0x40)\n      swap2\n      pop\n      and(add(returndatasize, 0x3f), not(0x1f))\n      dup3\n      add\n      0x40\n      mstore\n      returndatasize\n      dup3\n      mstore\n      returndatasize\n      0x00\n      0x20\n      dup5\n      add\n      returndatacopy\n      jump(tag_622)\n    tag_623:\n      0x60\n      swap2\n      pop\n    tag_622:\n      pop\n        /* \"@openzeppelin/contracts/utils/Address.sol\":4213:4280  (bool success, bytes memory returndata) = target.delegatecall(data) */\n      swap2\n      pop\n      swap2\n      pop\n        /* \"@openzeppelin/contracts/utils/Address.sol\":4297:4352  verifyCallResultFromTarget(target, success, returndata) */\n      tag_624\n        /* \"@openzeppelin/contracts/utils/Address.sol\":4324:4330  target */\n      dup6\n        /* \"@openzeppelin/contracts/utils/Address.sol\":4332:4339  success */\n      dup4\n        /* \"@openzeppelin/contracts/utils/Address.sol\":4341:4351  returndata */\n      dup4\n        /* \"@openzeppelin/contracts/utils/Address.sol\":4297:4323  verifyCallResultFromTarget */\n      tag_625\n        /* \"@openzeppelin/contracts/utils/Address.sol\":4297:4352  verifyCallResultFromTarget(target, success, returndata) */\n      jump\t// in\n    tag_624:\n        /* \"@openzeppelin/contracts/utils/Address.sol\":4290:4352  return verifyCallResultFromTarget(target, success, returndata) */\n      swap6\n        /* \"@openzeppelin/contracts/utils/Address.sol\":4106:4359  function functionDelegateCall(address target, bytes memory data) internal returns (bytes memory) {... */\n      swap5\n      pop\n      pop\n      pop\n      pop\n      pop\n      jump\t// out\n        /* \"@openzeppelin/contracts/proxy/ERC1967/ERC1967Utils.sol\":6598:6720  function _checkNonPayable() private {... */\n    tag_602:\n        /* \"@openzeppelin/contracts/proxy/ERC1967/ERC1967Utils.sol\":6648:6657  msg.value */\n      callvalue\n        /* \"@openzeppelin/contracts/proxy/ERC1967/ERC1967Utils.sol\":6648:6661  msg.value > 0 */\n      iszero\n        /* \"@openzeppelin/contracts/proxy/ERC1967/ERC1967Utils.sol\":6644:6714  if (msg.value > 0) {... */\n      tag_353\n      jumpi\n        /* \"@openzeppelin/contracts/proxy/ERC1967/ERC1967Utils.sol\":6684:6703  ERC1967NonPayable() */\n      mload(0x40)\n      shl(0xe0, 0xb398979f)\n      dup2\n      mstore\n      0x04\n      add\n      mload(0x40)\n      dup1\n      swap2\n      sub\n      swap1\n      revert\n        /* \"@openzeppelin/contracts/utils/Address.sol\":4625:5207  function verifyCallResultFromTarget(... */\n    tag_625:\n        /* \"@openzeppelin/contracts/utils/Address.sol\":4769:4781  bytes memory */\n      0x60\n        /* \"@openzeppelin/contracts/utils/Address.sol\":4798:4805  success */\n      dup3\n        /* \"@openzeppelin/contracts/utils/Address.sol\":4793:5201  if (!success) {... */\n      tag_631\n      jumpi\n        /* \"@openzeppelin/contracts/utils/Address.sol\":4821:4840  _revert(returndata) */\n      tag_632\n        /* \"@openzeppelin/contracts/utils/Address.sol\":4829:4839  returndata */\n      dup3\n        /* \"@openzeppelin/contracts/utils/Address.sol\":4821:4828  _revert */\n      tag_633\n        /* \"@openzeppelin/contracts/utils/Address.sol\":4821:4840  _revert(returndata) */\n      jump\t// in\n    tag_632:\n        /* \"@openzeppelin/contracts/utils/Address.sol\":4793:5201  if (!success) {... */\n      jump(tag_634)\n    tag_631:\n        /* \"@openzeppelin/contracts/utils/Address.sol\":5045:5062  returndata.length */\n      dup2\n      mload\n        /* \"@openzeppelin/contracts/utils/Address.sol\":5045:5067  returndata.length == 0 */\n      iszero\n        /* \"@openzeppelin/contracts/utils/Address.sol\":5045:5094  returndata.length == 0 && target.code.length == 0 */\n      dup1\n      iszero\n      tag_635\n      jumpi\n      pop\n      sub(shl(0xa0, 0x01), 0x01)\n        /* \"@openzeppelin/contracts/utils/Address.sol\":5071:5089  target.code.length */\n      dup5\n      and\n      extcodesize\n        /* \"@openzeppelin/contracts/utils/Address.sol\":5071:5094  target.code.length == 0 */\n      iszero\n        /* \"@openzeppelin/contracts/utils/Address.sol\":5045:5094  returndata.length == 0 && target.code.length == 0 */\n    tag_635:\n        /* \"@openzeppelin/contracts/utils/Address.sol\":5041:5160  if (returndata.length == 0 && target.code.length == 0) {... */\n      iszero\n      tag_636\n      jumpi\n        /* \"@openzeppelin/contracts/utils/Address.sol\":5121:5145  AddressEmptyCode(target) */\n      mload(0x40)\n      shl(0xe0, 0x9996b315)\n      dup2\n      mstore\n      sub(shl(0xa0, 0x01), 0x01)\n        /* \"#utility.yul\":375:407   */\n      dup6\n      and\n        /* \"@openzeppelin/contracts/utils/Address.sol\":5121:5145  AddressEmptyCode(target) */\n      0x04\n      dup3\n      add\n        /* \"#utility.yul\":357:408   */\n      mstore\n        /* \"#utility.yul\":330:348   */\n      0x24\n      add\n        /* \"@openzeppelin/contracts/utils/Address.sol\":5121:5145  AddressEmptyCode(target) */\n      tag_265\n        /* \"#utility.yul\":196:414   */\n      jump\n        /* \"@openzeppelin/contracts/utils/Address.sol\":5041:5160  if (returndata.length == 0 && target.code.length == 0) {... */\n    tag_636:\n      pop\n        /* \"@openzeppelin/contracts/utils/Address.sol\":5180:5190  returndata */\n      dup1\n        /* \"@openzeppelin/contracts/utils/Address.sol\":4793:5201  if (!success) {... */\n    tag_634:\n        /* \"@openzeppelin/contracts/utils/Address.sol\":4625:5207  function verifyCallResultFromTarget(... */\n      swap4\n      swap3\n      pop\n      pop\n      pop\n      jump\t// out\n        /* \"@openzeppelin/contracts/utils/Address.sol\":5743:6259  function _revert(bytes memory returndata) private pure {... */\n    tag_633:\n        /* \"@openzeppelin/contracts/utils/Address.sol\":5874:5891  returndata.length */\n      dup1\n      mload\n        /* \"@openzeppelin/contracts/utils/Address.sol\":5874:5895  returndata.length > 0 */\n      iszero\n        /* \"@openzeppelin/contracts/utils/Address.sol\":5870:6253  if (returndata.length > 0) {... */\n      tag_639\n      jumpi\n        /* \"@openzeppelin/contracts/utils/Address.sol\":6102:6112  returndata */\n      dup1\n        /* \"@openzeppelin/contracts/utils/Address.sol\":6096:6113  mload(returndata) */\n      mload\n        /* \"@openzeppelin/contracts/utils/Address.sol\":6158:6173  returndata_size */\n      dup1\n        /* \"@openzeppelin/contracts/utils/Address.sol\":6145:6155  returndata */\n      dup3\n        /* \"@openzeppelin/contracts/utils/Address.sol\":6141:6143  32 */\n      0x20\n        /* \"@openzeppelin/contracts/utils/Address.sol\":6137:6156  add(32, returndata) */\n      add\n        /* \"@openzeppelin/contracts/utils/Address.sol\":6130:6174  revert(add(32, returndata), returndata_size) */\n      revert\n        /* \"@openzeppelin/contracts/utils/Address.sol\":5870:6253  if (returndata.length > 0) {... */\n    tag_639:\n        /* \"@openzeppelin/contracts/utils/Address.sol\":6225:6242  FailedInnerCall() */\n      mload(0x40)\n      shl(0xe1, 0x0a12f521)\n      dup2\n      mstore\n      0x04\n      add\n      mload(0x40)\n      dup1\n      swap2\n      sub\n      swap1\n      revert\n        /* \"#utility.yul\":419:645   */\n    tag_73:\n        /* \"#utility.yul\":478:484   */\n      0x00\n        /* \"#utility.yul\":531:533   */\n      0x20\n        /* \"#utility.yul\":519:528   */\n      dup3\n        /* \"#utility.yul\":510:517   */\n      dup5\n        /* \"#utility.yul\":506:529   */\n      sub\n        /* \"#utility.yul\":502:534   */\n      slt\n        /* \"#utility.yul\":499:551   */\n      iszero\n      tag_650\n      jumpi\n        /* \"#utility.yul\":547:548   */\n      0x00\n        /* \"#utility.yul\":544:545   */\n      dup1\n        /* \"#utility.yul\":537:549   */\n      revert\n        /* \"#utility.yul\":499:551   */\n    tag_650:\n      pop\n        /* \"#utility.yul\":592:615   */\n      calldataload\n      swap2\n        /* \"#utility.yul\":419:645   */\n      swap1\n      pop\n      jump\t// out\n        /* \"#utility.yul\":1050:1636   */\n    tag_112:\n        /* \"#utility.yul\":1120:1126   */\n      0x00\n        /* \"#utility.yul\":1128:1134   */\n      dup1\n        /* \"#utility.yul\":1181:1183   */\n      0x20\n        /* \"#utility.yul\":1169:1178   */\n      dup4\n        /* \"#utility.yul\":1160:1167   */\n      dup6\n        /* \"#utility.yul\":1156:1179   */\n      sub\n        /* \"#utility.yul\":1152:1184   */\n      slt\n        /* \"#utility.yul\":1149:1201   */\n      iszero\n      tag_654\n      jumpi\n        /* \"#utility.yul\":1197:1198   */\n      0x00\n        /* \"#utility.yul\":1194:1195   */\n      dup1\n        /* \"#utility.yul\":1187:1199   */\n      revert\n        /* \"#utility.yul\":1149:1201   */\n    tag_654:\n        /* \"#utility.yul\":1237:1246   */\n      dup3\n        /* \"#utility.yul\":1224:1247   */\n      calldataload\n        /* \"#utility.yul\":1270:1288   */\n      0xffffffffffffffff\n        /* \"#utility.yul\":1262:1268   */\n      dup2\n        /* \"#utility.yul\":1259:1289   */\n      gt\n        /* \"#utility.yul\":1256:1306   */\n      iszero\n      tag_655\n      jumpi\n        /* \"#utility.yul\":1302:1303   */\n      0x00\n        /* \"#utility.yul\":1299:1300   */\n      dup1\n        /* \"#utility.yul\":1292:1304   */\n      revert\n        /* \"#utility.yul\":1256:1306   */\n    tag_655:\n        /* \"#utility.yul\":1325:1347   */\n      dup4\n      add\n        /* \"#utility.yul\":1378:1382   */\n      0x1f\n        /* \"#utility.yul\":1370:1383   */\n      dup2\n      add\n        /* \"#utility.yul\":1366:1393   */\n      dup6\n      sgt\n        /* \"#utility.yul\":1356:1411   */\n      tag_656\n      jumpi\n        /* \"#utility.yul\":1407:1408   */\n      0x00\n        /* \"#utility.yul\":1404:1405   */\n      dup1\n        /* \"#utility.yul\":1397:1409   */\n      revert\n        /* \"#utility.yul\":1356:1411   */\n    tag_656:\n        /* \"#utility.yul\":1447:1449   */\n      dup1\n        /* \"#utility.yul\":1434:1450   */\n      calldataload\n        /* \"#utility.yul\":1473:1491   */\n      0xffffffffffffffff\n        /* \"#utility.yul\":1465:1471   */\n      dup2\n        /* \"#utility.yul\":1462:1492   */\n      gt\n        /* \"#utility.yul\":1459:1509   */\n      iszero\n      tag_657\n      jumpi\n        /* \"#utility.yul\":1505:1506   */\n      0x00\n        /* \"#utility.yul\":1502:1503   */\n      dup1\n        /* \"#utility.yul\":1495:1507   */\n      revert\n        /* \"#utility.yul\":1459:1509   */\n    tag_657:\n        /* \"#utility.yul\":1550:1557   */\n      dup6\n        /* \"#utility.yul\":1545:1547   */\n      0x20\n        /* \"#utility.yul\":1536:1542   */\n      dup3\n        /* \"#utility.yul\":1532:1534   */\n      dup5\n        /* \"#utility.yul\":1528:1543   */\n      add\n        /* \"#utility.yul\":1524:1548   */\n      add\n        /* \"#utility.yul\":1521:1558   */\n      gt\n        /* \"#utility.yul\":1518:1575   */\n      iszero\n      tag_658\n      jumpi\n        /* \"#utility.yul\":1571:1572   */\n      0x00\n        /* \"#utility.yul\":1568:1569   */\n      dup1\n        /* \"#utility.yul\":1561:1573   */\n      revert\n        /* \"#utility.yul\":1518:1575   */\n    tag_658:\n        /* \"#utility.yul\":1602:1604   */\n      0x20\n        /* \"#utility.yul\":1594:1605   */\n      swap2\n      swap1\n      swap2\n      add\n      swap6\n        /* \"#utility.yul\":1624:1630   */\n      swap1\n      swap5\n      pop\n        /* \"#utility.yul\":1050:1636   */\n      swap3\n      pop\n      pop\n      pop\n      jump\t// out\n        /* \"#utility.yul\":1641:1814   */\n    tag_641:\n        /* \"#utility.yul\":1709:1729   */\n      dup1\n      calldataload\n      sub(shl(0xa0, 0x01), 0x01)\n        /* \"#utility.yul\":1758:1789   */\n      dup2\n      and\n        /* \"#utility.yul\":1748:1790   */\n      dup2\n      eq\n        /* \"#utility.yul\":1738:1808   */\n      tag_660\n      jumpi\n        /* \"#utility.yul\":1804:1805   */\n      0x00\n        /* \"#utility.yul\":1801:1802   */\n      dup1\n        /* \"#utility.yul\":1794:1806   */\n      revert\n        /* \"#utility.yul\":1738:1808   */\n    tag_660:\n        /* \"#utility.yul\":1641:1814   */\n      swap2\n      swap1\n      pop\n      jump\t// out\n        /* \"#utility.yul\":1819:1946   */\n    tag_642:\n        /* \"#utility.yul\":1880:1890   */\n      0x4e487b71\n        /* \"#utility.yul\":1875:1878   */\n      0xe0\n        /* \"#utility.yul\":1871:1891   */\n      shl\n        /* \"#utility.yul\":1868:1869   */\n      0x00\n        /* \"#utility.yul\":1861:1892   */\n      mstore\n        /* \"#utility.yul\":1911:1915   */\n      0x41\n        /* \"#utility.yul\":1908:1909   */\n      0x04\n        /* \"#utility.yul\":1901:1916   */\n      mstore\n        /* \"#utility.yul\":1935:1939   */\n      0x24\n        /* \"#utility.yul\":1932:1933   */\n      0x00\n        /* \"#utility.yul\":1925:1940   */\n      revert\n        /* \"#utility.yul\":1951:2969   */\n    tag_116:\n        /* \"#utility.yul\":2028:2034   */\n      0x00\n        /* \"#utility.yul\":2036:2042   */\n      dup1\n        /* \"#utility.yul\":2089:2091   */\n      0x40\n        /* \"#utility.yul\":2077:2086   */\n      dup4\n        /* \"#utility.yul\":2068:2075   */\n      dup6\n        /* \"#utility.yul\":2064:2087   */\n      sub\n        /* \"#utility.yul\":2060:2092   */\n      slt\n        /* \"#utility.yul\":2057:2109   */\n      iszero\n      tag_663\n      jumpi\n        /* \"#utility.yul\":2105:2106   */\n      0x00\n        /* \"#utility.yul\":2102:2103   */\n      dup1\n        /* \"#utility.yul\":2095:2107   */\n      revert\n        /* \"#utility.yul\":2057:2109   */\n    tag_663:\n        /* \"#utility.yul\":2128:2157   */\n      tag_664\n        /* \"#utility.yul\":2147:2156   */\n      dup4\n        /* \"#utility.yul\":2128:2157   */\n      tag_641\n      jump\t// in\n    tag_664:\n        /* \"#utility.yul\":2118:2157   */\n      swap2\n      pop\n        /* \"#utility.yul\":2208:2210   */\n      0x20\n        /* \"#utility.yul\":2197:2206   */\n      dup4\n        /* \"#utility.yul\":2193:2211   */\n      add\n        /* \"#utility.yul\":2180:2212   */\n      calldataload\n        /* \"#utility.yul\":2235:2253   */\n      0xffffffffffffffff\n        /* \"#utility.yul\":2227:2233   */\n      dup2\n        /* \"#utility.yul\":2224:2254   */\n      gt\n        /* \"#utility.yul\":2221:2271   */\n      iszero\n      tag_665\n      jumpi\n        /* \"#utility.yul\":2267:2268   */\n      0x00\n        /* \"#utility.yul\":2264:2265   */\n      dup1\n        /* \"#utility.yul\":2257:2269   */\n      revert\n        /* \"#utility.yul\":2221:2271   */\n    tag_665:\n        /* \"#utility.yul\":2290:2312   */\n      dup4\n      add\n        /* \"#utility.yul\":2343:2347   */\n      0x1f\n        /* \"#utility.yul\":2335:2348   */\n      dup2\n      add\n        /* \"#utility.yul\":2331:2358   */\n      dup6\n      sgt\n        /* \"#utility.yul\":2321:2376   */\n      tag_666\n      jumpi\n        /* \"#utility.yul\":2372:2373   */\n      0x00\n        /* \"#utility.yul\":2369:2370   */\n      dup1\n        /* \"#utility.yul\":2362:2374   */\n      revert\n        /* \"#utility.yul\":2321:2376   */\n    tag_666:\n        /* \"#utility.yul\":2412:2414   */\n      dup1\n        /* \"#utility.yul\":2399:2415   */\n      calldataload\n        /* \"#utility.yul\":2438:2456   */\n      0xffffffffffffffff\n        /* \"#utility.yul\":2430:2436   */\n      dup2\n        /* \"#utility.yul\":2427:2457   */\n      gt\n        /* \"#utility.yul\":2424:2480   */\n      iszero\n      tag_668\n      jumpi\n        /* \"#utility.yul\":2460:2478   */\n      tag_668\n      tag_642\n      jump\t// in\n    tag_668:\n        /* \"#utility.yul\":2509:2511   */\n      0x40\n        /* \"#utility.yul\":2503:2512   */\n      mload\n        /* \"#utility.yul\":2601:2603   */\n      0x1f\n        /* \"#utility.yul\":2563:2580   */\n      dup3\n      add\n      not(0x1f)\n        /* \"#utility.yul\":2559:2590   */\n      swap1\n      dup2\n      and\n        /* \"#utility.yul\":2592:2594   */\n      0x3f\n        /* \"#utility.yul\":2555:2595   */\n      add\n        /* \"#utility.yul\":2551:2605   */\n      and\n        /* \"#utility.yul\":2539:2606   */\n      dup2\n      add\n        /* \"#utility.yul\":2636:2654   */\n      0xffffffffffffffff\n        /* \"#utility.yul\":2621:2655   */\n      dup2\n      gt\n        /* \"#utility.yul\":2657:2679   */\n      dup3\n      dup3\n      lt\n        /* \"#utility.yul\":2618:2680   */\n      or\n        /* \"#utility.yul\":2615:2703   */\n      iszero\n      tag_670\n      jumpi\n        /* \"#utility.yul\":2683:2701   */\n      tag_670\n      tag_642\n      jump\t// in\n    tag_670:\n        /* \"#utility.yul\":2719:2721   */\n      0x40\n        /* \"#utility.yul\":2712:2734   */\n      mstore\n        /* \"#utility.yul\":2743:2765   */\n      dup2\n      dup2\n      mstore\n        /* \"#utility.yul\":2784:2799   */\n      dup3\n      dup3\n      add\n        /* \"#utility.yul\":2801:2803   */\n      0x20\n        /* \"#utility.yul\":2780:2804   */\n      add\n        /* \"#utility.yul\":2777:2814   */\n      dup8\n      lt\n        /* \"#utility.yul\":2774:2831   */\n      iszero\n      tag_671\n      jumpi\n        /* \"#utility.yul\":2827:2828   */\n      0x00\n        /* \"#utility.yul\":2824:2825   */\n      dup1\n        /* \"#utility.yul\":2817:2829   */\n      revert\n        /* \"#utility.yul\":2774:2831   */\n    tag_671:\n        /* \"#utility.yul\":2883:2889   */\n      dup2\n        /* \"#utility.yul\":2878:2880   */\n      0x20\n        /* \"#utility.yul\":2874:2876   */\n      dup5\n        /* \"#utility.yul\":2870:2881   */\n      add\n        /* \"#utility.yul\":2865:2867   */\n      0x20\n        /* \"#utility.yul\":2857:2863   */\n      dup4\n        /* \"#utility.yul\":2853:2868   */\n      add\n        /* \"#utility.yul\":2840:2890   */\n      calldatacopy\n        /* \"#utility.yul\":2936:2937   */\n      0x00\n        /* \"#utility.yul\":2931:2933   */\n      0x20\n        /* \"#utility.yul\":2922:2928   */\n      dup4\n        /* \"#utility.yul\":2914:2920   */\n      dup4\n        /* \"#utility.yul\":2910:2929   */\n      add\n        /* \"#utility.yul\":2906:2934   */\n      add\n        /* \"#utility.yul\":2899:2938   */\n      mstore\n        /* \"#utility.yul\":2957:2963   */\n      dup1\n        /* \"#utility.yul\":2947:2963   */\n      swap4\n      pop\n      pop\n      pop\n      pop\n        /* \"#utility.yul\":1951:2969   */\n      swap3\n      pop\n      swap3\n      swap1\n      pop\n      jump\t// out\n        /* \"#utility.yul\":3156:3502   */\n    tag_138:\n        /* \"#utility.yul\":3224:3230   */\n      0x00\n        /* \"#utility.yul\":3232:3238   */\n      dup1\n        /* \"#utility.yul\":3285:3287   */\n      0x40\n        /* \"#utility.yul\":3273:3282   */\n      dup4\n        /* \"#utility.yul\":3264:3271   */\n      dup6\n        /* \"#utility.yul\":3260:3283   */\n      sub\n        /* \"#utility.yul\":3256:3288   */\n      slt\n        /* \"#utility.yul\":3253:3305   */\n      iszero\n      tag_674\n      jumpi\n        /* \"#utility.yul\":3301:3302   */\n      0x00\n        /* \"#utility.yul\":3298:3299   */\n      dup1\n        /* \"#utility.yul\":3291:3303   */\n      revert\n        /* \"#utility.yul\":3253:3305   */\n    tag_674:\n      pop\n      pop\n        /* \"#utility.yul\":3346:3369   */\n      dup1\n      calldataload\n      swap3\n        /* \"#utility.yul\":3466:3468   */\n      0x20\n        /* \"#utility.yul\":3451:3469   */\n      swap1\n      swap2\n      add\n        /* \"#utility.yul\":3438:3470   */\n      calldataload\n      swap2\n      pop\n        /* \"#utility.yul\":3156:3502   */\n      jump\t// out\n        /* \"#utility.yul\":3507:3795   */\n    tag_643:\n        /* \"#utility.yul\":3548:3551   */\n      0x00\n        /* \"#utility.yul\":3586:3591   */\n      dup2\n        /* \"#utility.yul\":3580:3592   */\n      mload\n        /* \"#utility.yul\":3613:3619   */\n      dup1\n        /* \"#utility.yul\":3608:3611   */\n      dup5\n        /* \"#utility.yul\":3601:3620   */\n      mstore\n        /* \"#utility.yul\":3669:3675   */\n      dup1\n        /* \"#utility.yul\":3662:3666   */\n      0x20\n        /* \"#utility.yul\":3655:3660   */\n      dup5\n        /* \"#utility.yul\":3651:3667   */\n      add\n        /* \"#utility.yul\":3644:3648   */\n      0x20\n        /* \"#utility.yul\":3639:3642   */\n      dup7\n        /* \"#utility.yul\":3635:3649   */\n      add\n        /* \"#utility.yul\":3629:3676   */\n      mcopy\n        /* \"#utility.yul\":3721:3722   */\n      0x00\n        /* \"#utility.yul\":3714:3718   */\n      0x20\n        /* \"#utility.yul\":3705:3711   */\n      dup3\n        /* \"#utility.yul\":3700:3703   */\n      dup7\n        /* \"#utility.yul\":3696:3712   */\n      add\n        /* \"#utility.yul\":3692:3719   */\n      add\n        /* \"#utility.yul\":3685:3723   */\n      mstore\n        /* \"#utility.yul\":3784:3788   */\n      0x20\n        /* \"#utility.yul\":3777:3779   */\n      0x1f\n        /* \"#utility.yul\":3773:3780   */\n      not\n        /* \"#utility.yul\":3768:3770   */\n      0x1f\n        /* \"#utility.yul\":3760:3766   */\n      dup4\n        /* \"#utility.yul\":3756:3771   */\n      add\n        /* \"#utility.yul\":3752:3781   */\n      and\n        /* \"#utility.yul\":3747:3750   */\n      dup6\n        /* \"#utility.yul\":3743:3782   */\n      add\n        /* \"#utility.yul\":3739:3789   */\n      add\n        /* \"#utility.yul\":3732:3789   */\n      swap2\n      pop\n      pop\n        /* \"#utility.yul\":3507:3795   */\n      swap3\n      swap2\n      pop\n      pop\n      jump\t// out\n        /* \"#utility.yul\":3800:4098   */\n    tag_152:\n        /* \"#utility.yul\":3983:3989   */\n      dup3\n        /* \"#utility.yul\":3976:3990   */\n      iszero\n        /* \"#utility.yul\":3969:3991   */\n      iszero\n        /* \"#utility.yul\":3958:3967   */\n      dup2\n        /* \"#utility.yul\":3951:3992   */\n      mstore\n        /* \"#utility.yul\":4028:4030   */\n      0x40\n        /* \"#utility.yul\":4023:4025   */\n      0x20\n        /* \"#utility.yul\":4012:4021   */\n      dup3\n        /* \"#utility.yul\":4008:4026   */\n      add\n        /* \"#utility.yul\":4001:4031   */\n      mstore\n        /* \"#utility.yul\":3932:3936   */\n      0x00\n        /* \"#utility.yul\":4048:4092   */\n      tag_677\n        /* \"#utility.yul\":4088:4090   */\n      0x40\n        /* \"#utility.yul\":4077:4086   */\n      dup4\n        /* \"#utility.yul\":4073:4091   */\n      add\n        /* \"#utility.yul\":4065:4071   */\n      dup5\n        /* \"#utility.yul\":4048:4092   */\n      tag_643\n      jump\t// in\n    tag_677:\n        /* \"#utility.yul\":4040:4092   */\n      swap5\n        /* \"#utility.yul\":3800:4098   */\n      swap4\n      pop\n      pop\n      pop\n      pop\n      jump\t// out\n        /* \"#utility.yul\":4103:4322   */\n    tag_201:\n        /* \"#utility.yul\":4252:4254   */\n      0x20\n        /* \"#utility.yul\":4241:4250   */\n      dup2\n        /* \"#utility.yul\":4234:4255   */\n      mstore\n        /* \"#utility.yul\":4215:4219   */\n      0x00\n        /* \"#utility.yul\":4272:4316   */\n      tag_634\n        /* \"#utility.yul\":4312:4314   */\n      0x20\n        /* \"#utility.yul\":4301:4310   */\n      dup4\n        /* \"#utility.yul\":4297:4315   */\n      add\n        /* \"#utility.yul\":4289:4295   */\n      dup5\n        /* \"#utility.yul\":4272:4316   */\n      tag_643\n      jump\t// in\n        /* \"#utility.yul\":4327:4513   */\n    tag_217:\n        /* \"#utility.yul\":4386:4392   */\n      0x00\n        /* \"#utility.yul\":4439:4441   */\n      0x20\n        /* \"#utility.yul\":4427:4436   */\n      dup3\n        /* \"#utility.yul\":4418:4425   */\n      dup5\n        /* \"#utility.yul\":4414:4437   */\n      sub\n        /* \"#utility.yul\":4410:4442   */\n      slt\n        /* \"#utility.yul\":4407:4459   */\n      iszero\n      tag_681\n      jumpi\n        /* \"#utility.yul\":4455:4456   */\n      0x00\n        /* \"#utility.yul\":4452:4453   */\n      dup1\n        /* \"#utility.yul\":4445:4457   */\n      revert\n        /* \"#utility.yul\":4407:4459   */\n    tag_681:\n        /* \"#utility.yul\":4478:4507   */\n      tag_634\n        /* \"#utility.yul\":4497:4506   */\n      dup3\n        /* \"#utility.yul\":4478:4507   */\n      tag_641\n      jump\t// in\n        /* \"#utility.yul\":5068:5402   */\n    tag_224:\n        /* \"#utility.yul\":5145:5151   */\n      0x00\n        /* \"#utility.yul\":5153:5159   */\n      dup1\n        /* \"#utility.yul\":5161:5167   */\n      0x00\n        /* \"#utility.yul\":5214:5216   */\n      0x60\n        /* \"#utility.yul\":5202:5211   */\n      dup5\n        /* \"#utility.yul\":5193:5200   */\n      dup7\n        /* \"#utility.yul\":5189:5212   */\n      sub\n        /* \"#utility.yul\":5185:5217   */\n      slt\n        /* \"#utility.yul\":5182:5234   */\n      iszero\n      tag_685\n      jumpi\n        /* \"#utility.yul\":5230:5231   */\n      0x00\n        /* \"#utility.yul\":5227:5228   */\n      dup1\n        /* \"#utility.yul\":5220:5232   */\n      revert\n        /* \"#utility.yul\":5182:5234   */\n    tag_685:\n        /* \"#utility.yul\":5253:5282   */\n      tag_686\n        /* \"#utility.yul\":5272:5281   */\n      dup5\n        /* \"#utility.yul\":5253:5282   */\n      tag_641\n      jump\t// in\n    tag_686:\n        /* \"#utility.yul\":5243:5282   */\n      swap3\n      pop\n        /* \"#utility.yul\":5301:5339   */\n      tag_687\n        /* \"#utility.yul\":5335:5337   */\n      0x20\n        /* \"#utility.yul\":5324:5333   */\n      dup6\n        /* \"#utility.yul\":5320:5338   */\n      add\n        /* \"#utility.yul\":5301:5339   */\n      tag_641\n      jump\t// in\n    tag_687:\n        /* \"#utility.yul\":5291:5339   */\n      swap2\n      pop\n        /* \"#utility.yul\":5358:5396   */\n      tag_688\n        /* \"#utility.yul\":5392:5394   */\n      0x40\n        /* \"#utility.yul\":5381:5390   */\n      dup6\n        /* \"#utility.yul\":5377:5395   */\n      add\n        /* \"#utility.yul\":5358:5396   */\n      tag_641\n      jump\t// in\n    tag_688:\n        /* \"#utility.yul\":5348:5396   */\n      swap1\n      pop\n        /* \"#utility.yul\":5068:5402   */\n      swap3\n      pop\n      swap3\n      pop\n      swap3\n      jump\t// out\n        /* \"#utility.yul\":5407:5525   */\n    tag_644:\n        /* \"#utility.yul\":5493:5498   */\n      dup1\n        /* \"#utility.yul\":5486:5499   */\n      iszero\n        /* \"#utility.yul\":5479:5500   */\n      iszero\n        /* \"#utility.yul\":5472:5477   */\n      dup2\n        /* \"#utility.yul\":5469:5501   */\n      eq\n        /* \"#utility.yul\":5459:5519   */\n      tag_512\n      jumpi\n        /* \"#utility.yul\":5515:5516   */\n      0x00\n        /* \"#utility.yul\":5512:5513   */\n      dup1\n        /* \"#utility.yul\":5505:5517   */\n      revert\n        /* \"#utility.yul\":5530:5845   */\n    tag_242:\n        /* \"#utility.yul\":5595:5601   */\n      0x00\n        /* \"#utility.yul\":5603:5609   */\n      dup1\n        /* \"#utility.yul\":5656:5658   */\n      0x40\n        /* \"#utility.yul\":5644:5653   */\n      dup4\n        /* \"#utility.yul\":5635:5642   */\n      dup6\n        /* \"#utility.yul\":5631:5654   */\n      sub\n        /* \"#utility.yul\":5627:5659   */\n      slt\n        /* \"#utility.yul\":5624:5676   */\n      iszero\n      tag_692\n      jumpi\n        /* \"#utility.yul\":5672:5673   */\n      0x00\n        /* \"#utility.yul\":5669:5670   */\n      dup1\n        /* \"#utility.yul\":5662:5674   */\n      revert\n        /* \"#utility.yul\":5624:5676   */\n    tag_692:\n        /* \"#utility.yul\":5695:5724   */\n      tag_693\n        /* \"#utility.yul\":5714:5723   */\n      dup4\n        /* \"#utility.yul\":5695:5724   */\n      tag_641\n      jump\t// in\n    tag_693:\n        /* \"#utility.yul\":5685:5724   */\n      swap2\n      pop\n        /* \"#utility.yul\":5774:5776   */\n      0x20\n        /* \"#utility.yul\":5763:5772   */\n      dup4\n        /* \"#utility.yul\":5759:5777   */\n      add\n        /* \"#utility.yul\":5746:5778   */\n      calldataload\n        /* \"#utility.yul\":5787:5815   */\n      tag_694\n        /* \"#utility.yul\":5809:5814   */\n      dup2\n        /* \"#utility.yul\":5787:5815   */\n      tag_644\n      jump\t// in\n    tag_694:\n        /* \"#utility.yul\":5834:5839   */\n      dup1\n        /* \"#utility.yul\":5824:5839   */\n      swap2\n      pop\n      pop\n        /* \"#utility.yul\":5530:5845   */\n      swap3\n      pop\n      swap3\n      swap1\n      pop\n      jump\t// out\n        /* \"#utility.yul\":5850:5977   */\n    tag_645:\n        /* \"#utility.yul\":5911:5921   */\n      0x4e487b71\n        /* \"#utility.yul\":5906:5909   */\n      0xe0\n        /* \"#utility.yul\":5902:5922   */\n      shl\n        /* \"#utility.yul\":5899:5900   */\n      0x00\n        /* \"#utility.yul\":5892:5923   */\n      mstore\n        /* \"#utility.yul\":5942:5946   */\n      0x11\n        /* \"#utility.yul\":5939:5940   */\n      0x04\n        /* \"#utility.yul\":5932:5947   */\n      mstore\n        /* \"#utility.yul\":5966:5970   */\n      0x24\n        /* \"#utility.yul\":5963:5964   */\n      0x00\n        /* \"#utility.yul\":5956:5971   */\n      revert\n        /* \"#utility.yul\":5982:6117   */\n    tag_267:\n        /* \"#utility.yul\":6021:6024   */\n      0x00\n        /* \"#utility.yul\":6042:6059   */\n      0x01\n      dup3\n      add\n        /* \"#utility.yul\":6039:6082   */\n      tag_698\n      jumpi\n        /* \"#utility.yul\":6062:6080   */\n      tag_698\n      tag_645\n      jump\t// in\n    tag_698:\n      pop\n        /* \"#utility.yul\":6109:6110   */\n      0x01\n        /* \"#utility.yul\":6098:6111   */\n      add\n      swap1\n        /* \"#utility.yul\":5982:6117   */\n      jump\t// out\n        /* \"#utility.yul\":6122:6250   */\n    tag_269:\n        /* \"#utility.yul\":6189:6198   */\n      dup2\n      dup2\n      sub\n        /* \"#utility.yul\":6210:6221   */\n      dup2\n      dup2\n      gt\n        /* \"#utility.yul\":6207:6244   */\n      iszero\n      tag_582\n      jumpi\n        /* \"#utility.yul\":6224:6242   */\n      tag_582\n      tag_645\n      jump\t// in\n        /* \"#utility.yul\":6579:7002   */\n    tag_275:\n        /* \"#utility.yul\":6781:6783   */\n      0x20\n        /* \"#utility.yul\":6763:6784   */\n      dup1\n      dup3\n      mstore\n        /* \"#utility.yul\":6820:6822   */\n      0x3b\n        /* \"#utility.yul\":6800:6818   */\n      swap1\n      dup3\n      add\n        /* \"#utility.yul\":6793:6823   */\n      mstore\n        /* \"#utility.yul\":6859:6893   */\n      0x54686973206164647265737320646f6573206e6f742068617665207065726d69\n        /* \"#utility.yul\":6854:6856   */\n      0x40\n        /* \"#utility.yul\":6839:6857   */\n      dup3\n      add\n        /* \"#utility.yul\":6832:6894   */\n      mstore\n        /* \"#utility.yul\":6930:6959   */\n      0x7373696f6e20746f2063616c6c20706572666f726d55706b6565700000000000\n        /* \"#utility.yul\":6925:6927   */\n      0x60\n        /* \"#utility.yul\":6910:6928   */\n      dup3\n      add\n        /* \"#utility.yul\":6903:6960   */\n      mstore\n        /* \"#utility.yul\":6992:6995   */\n      0x80\n        /* \"#utility.yul\":6977:6996   */\n      add\n      swap1\n        /* \"#utility.yul\":6579:7002   */\n      jump\t// out\n        /* \"#utility.yul\":7007:7132   */\n    tag_300:\n        /* \"#utility.yul\":7072:7081   */\n      dup1\n      dup3\n      add\n        /* \"#utility.yul\":7093:7103   */\n      dup1\n      dup3\n      gt\n        /* \"#utility.yul\":7090:7126   */\n      iszero\n      tag_582\n      jumpi\n        /* \"#utility.yul\":7106:7124   */\n      tag_582\n      tag_645\n      jump\t// in\n        /* \"#utility.yul\":7137:7508   */\n    tag_302:\n      sub(shl(0xa0, 0x01), 0x01)\n        /* \"#utility.yul\":7357:7389   */\n      swap4\n      dup5\n      and\n        /* \"#utility.yul\":7339:7390   */\n      dup2\n      mstore\n        /* \"#utility.yul\":7426:7458   */\n      swap2\n      swap1\n      swap3\n      and\n        /* \"#utility.yul\":7421:7423   */\n      0x20\n        /* \"#utility.yul\":7406:7424   */\n      dup3\n      add\n        /* \"#utility.yul\":7399:7459   */\n      mstore\n        /* \"#utility.yul\":7490:7492   */\n      0x40\n        /* \"#utility.yul\":7475:7493   */\n      dup2\n      add\n        /* \"#utility.yul\":7468:7502   */\n      swap2\n      swap1\n      swap2\n      mstore\n        /* \"#utility.yul\":7327:7329   */\n      0x60\n        /* \"#utility.yul\":7312:7330   */\n      add\n      swap1\n        /* \"#utility.yul\":7137:7508   */\n      jump\t// out\n        /* \"#utility.yul\":7513:7758   */\n    tag_306:\n        /* \"#utility.yul\":7580:7586   */\n      0x00\n        /* \"#utility.yul\":7633:7635   */\n      0x20\n        /* \"#utility.yul\":7621:7630   */\n      dup3\n        /* \"#utility.yul\":7612:7619   */\n      dup5\n        /* \"#utility.yul\":7608:7631   */\n      sub\n        /* \"#utility.yul\":7604:7636   */\n      slt\n        /* \"#utility.yul\":7601:7653   */\n      iszero\n      tag_709\n      jumpi\n        /* \"#utility.yul\":7649:7650   */\n      0x00\n        /* \"#utility.yul\":7646:7647   */\n      dup1\n        /* \"#utility.yul\":7639:7651   */\n      revert\n        /* \"#utility.yul\":7601:7653   */\n    tag_709:\n        /* \"#utility.yul\":7681:7690   */\n      dup2\n        /* \"#utility.yul\":7675:7691   */\n      mload\n        /* \"#utility.yul\":7700:7728   */\n      tag_634\n        /* \"#utility.yul\":7722:7727   */\n      dup2\n        /* \"#utility.yul\":7700:7728   */\n      tag_644\n      jump\t// in\n        /* \"#utility.yul\":10601:10769   */\n    tag_487:\n        /* \"#utility.yul\":10674:10683   */\n      dup1\n      dup3\n      mul\n        /* \"#utility.yul\":10705:10714   */\n      dup2\n      iszero\n        /* \"#utility.yul\":10722:10737   */\n      dup3\n      dup3\n      div\n        /* \"#utility.yul\":10716:10738   */\n      dup5\n      eq\n        /* \"#utility.yul\":10702:10739   */\n      or\n        /* \"#utility.yul\":10692:10763   */\n      tag_582\n      jumpi\n        /* \"#utility.yul\":10743:10761   */\n      tag_582\n      tag_645\n      jump\t// in\n        /* \"#utility.yul\":10774:10991   */\n    tag_489:\n        /* \"#utility.yul\":10814:10815   */\n      0x00\n        /* \"#utility.yul\":10840:10841   */\n      dup3\n        /* \"#utility.yul\":10830:10962   */\n      tag_724\n      jumpi\n        /* \"#utility.yul\":10884:10894   */\n      0x4e487b71\n        /* \"#utility.yul\":10879:10882   */\n      0xe0\n        /* \"#utility.yul\":10875:10895   */\n      shl\n        /* \"#utility.yul\":10872:10873   */\n      0x00\n        /* \"#utility.yul\":10865:10896   */\n      mstore\n        /* \"#utility.yul\":10919:10923   */\n      0x12\n        /* \"#utility.yul\":10916:10917   */\n      0x04\n        /* \"#utility.yul\":10909:10924   */\n      mstore\n        /* \"#utility.yul\":10947:10951   */\n      0x24\n        /* \"#utility.yul\":10944:10945   */\n      0x00\n        /* \"#utility.yul\":10937:10952   */\n      revert\n        /* \"#utility.yul\":10830:10962   */\n    tag_724:\n      pop\n        /* \"#utility.yul\":10976:10985   */\n      div\n      swap1\n        /* \"#utility.yul\":10774:10991   */\n      jump\t// out\n        /* \"#utility.yul\":11351:11535   */\n    tag_531:\n        /* \"#utility.yul\":11421:11427   */\n      0x00\n        /* \"#utility.yul\":11474:11476   */\n      0x20\n        /* \"#utility.yul\":11462:11471   */\n      dup3\n        /* \"#utility.yul\":11453:11460   */\n      dup5\n        /* \"#utility.yul\":11449:11472   */\n      sub\n        /* \"#utility.yul\":11445:11477   */\n      slt\n        /* \"#utility.yul\":11442:11494   */\n      iszero\n      tag_727\n      jumpi\n        /* \"#utility.yul\":11490:11491   */\n      0x00\n        /* \"#utility.yul\":11487:11488   */\n      dup1\n        /* \"#utility.yul\":11480:11492   */\n      revert\n        /* \"#utility.yul\":11442:11494   */\n    tag_727:\n      pop\n        /* \"#utility.yul\":11513:11529   */\n      mload\n      swap2\n        /* \"#utility.yul\":11351:11535   */\n      swap1\n      pop\n      jump\t// out\n        /* \"#utility.yul\":11877:12274   */\n    tag_585:\n        /* \"#utility.yul\":12079:12081   */\n      0x20\n        /* \"#utility.yul\":12061:12082   */\n      dup1\n      dup3\n      mstore\n        /* \"#utility.yul\":12118:12120   */\n      0x21\n        /* \"#utility.yul\":12098:12116   */\n      swap1\n      dup3\n      add\n        /* \"#utility.yul\":12091:12121   */\n      mstore\n        /* \"#utility.yul\":12157:12191   */\n      0x5f746f74616c5374616b65416d6f756e742063616e206e6f74206265207a6572\n        /* \"#utility.yul\":12152:12154   */\n      0x40\n        /* \"#utility.yul\":12137:12155   */\n      dup3\n      add\n        /* \"#utility.yul\":12130:12192   */\n      mstore\n      shl(0xf8, 0x6f)\n        /* \"#utility.yul\":12223:12225   */\n      0x60\n        /* \"#utility.yul\":12208:12226   */\n      dup3\n      add\n        /* \"#utility.yul\":12201:12232   */\n      mstore\n        /* \"#utility.yul\":12264:12267   */\n      0x80\n        /* \"#utility.yul\":12249:12268   */\n      add\n      swap1\n        /* \"#utility.yul\":11877:12274   */\n      jump\t// out\n        /* \"#utility.yul\":12279:12580   */\n    tag_620:\n        /* \"#utility.yul\":12408:12411   */\n      0x00\n        /* \"#utility.yul\":12446:12452   */\n      dup3\n        /* \"#utility.yul\":12440:12453   */\n      mload\n        /* \"#utility.yul\":12492:12498   */\n      dup1\n        /* \"#utility.yul\":12485:12489   */\n      0x20\n        /* \"#utility.yul\":12477:12483   */\n      dup6\n        /* \"#utility.yul\":12473:12490   */\n      add\n        /* \"#utility.yul\":12468:12471   */\n      dup5\n        /* \"#utility.yul\":12462:12499   */\n      mcopy\n        /* \"#utility.yul\":12554:12555   */\n      0x00\n        /* \"#utility.yul\":12518:12534   */\n      swap3\n      add\n        /* \"#utility.yul\":12543:12556   */\n      swap2\n      dup3\n      mstore\n      pop\n        /* \"#utility.yul\":12518:12534   */\n      swap2\n        /* \"#utility.yul\":12279:12580   */\n      swap1\n      pop\n      jump\t// out\n    stop\n    data_75b20eef8615de99c108b05f0dbda081c91897128caa336d75dffb97c4132b4d 360894a13ba1a3210667c828492db98dca3e2076cc3735a920a3ca505d382bbc\n    data_d85598d6ea860439b48fc265883a1cac638ff64dca5391fe12b46f27076e26fe b5671393c7c6980552e50a31e778921eb17d764c2e98fbf4d44fff524712def9\n\n    auxdata: 0xa264697066735822122098dbf646b85250c6f3e5cab4d8c752d4e3b911caa181aaad08e377720756eb7c64736f6c634300081a0033\n}\n",
				"bytecode": {
					"linkReferences": {},
					"object": "60a060405230608052348015610013575f80fd5b5061001c610021565b6100d3565b7ff0c57e16840df040f15088dc2f81fe391c3923bec73e23a9662efc9c229c6a00805468010000000000000000900460ff16156100715760405163f92ee8a960e01b815260040160405180910390fd5b80546001600160401b03908116146100d05780546001600160401b0319166001600160401b0390811782556040519081527fc7f505b2f371ae2175ee4913f4499e1f2633a7b5936321eed1cdaeb6115181d29060200160405180910390a15b50565b6080516127376100f95f395f8181611c0301528181611c2c0152611d7001526127375ff3fe608060405260043610610280575f3560e01c80637547c7a311610155578063b47ff951116100be578063d777cc6d11610078578063d777cc6d146107d8578063d9b998b4146107f7578063e9c68e2c14610816578063ed0610671461082a578063f2fde38b14610849578063ff3d65d914610868575f80fd5b8063b47ff951146106c1578063b9dac1eb146106d6578063bccbc36c146106f5578063c0c53b8b14610776578063c7fd5bf014610795578063ce356a24146107c3575f80fd5b80638da5cb5b1161010f5780638da5cb5b146105cb578063947a36fb146106075780639c361e4e1461061c578063a4f67b8b14610631578063ad3cb1cc14610665578063ad8e5ec4146106a2575f80fd5b80637547c7a31461051157806378fd078d146105305780637f111e601461054f5780637f70c5e71461056e5780637ffe4d931461058d57806385f45250146105ac575f80fd5b806344490ff4116101f7578063567e98f9116101b1578063567e98f9146104695780635f17e6161461047e5780636626b26d1461049d57806367976974146104b15780636e04ff0d146104d0578063715018a6146104fd575f80fd5b806344490ff4146103d05780634585e33b146103e55780634f1ef286146104045780635256dbbf1461041757806352d1902d146104365780635462870d1461044a575f80fd5b806330cac9721161024857806330cac9721461033757806330e3f8f81461034c57806333244c2c1461037c57806339518b5e146103915780633a71a9e4146103a65780633f3b3b27146103bb575f80fd5b806301934a831461028457806311eac855146102ac578063188e07b9146102e25780632765df7a146102f75780633070fbf814610318575b5f80fd5b34801561028f575f80fd5b5061029960085481565b6040519081526020015b60405180910390f35b3480156102b7575f80fd5b505f546102ca906001600160a01b031681565b6040516001600160a01b0390911681526020016102a3565b3480156102ed575f80fd5b5061029960015481565b348015610302575f80fd5b5061031661031136600461229a565b610893565b005b348015610323575f80fd5b50600e546102ca906001600160a01b031681565b348015610342575f80fd5b50610299600b5481565b348015610357575f80fd5b5060095461036c90600160a01b900460ff1681565b60405190151581526020016102a3565b348015610387575f80fd5b5061029960045481565b34801561039c575f80fd5b50610299600c5481565b3480156103b1575f80fd5b5061029960075481565b3480156103c6575f80fd5b50610299600d5481565b3480156103db575f80fd5b5061029960055481565b3480156103f0575f80fd5b506103166103ff3660046122b1565b61093d565b61031661041236600461234e565b610a14565b348015610422575f80fd5b5061031661043136600461229a565b610a2f565b348015610441575f80fd5b50610299610b47565b348015610455575f80fd5b506009546102ca906001600160a01b031681565b348015610474575f80fd5b5061029960035481565b348015610489575f80fd5b50610316610498366004612412565b610b62565b3480156104a8575f80fd5b50610316610c0c565b3480156104bc575f80fd5b506103166104cb36600461229a565b610c63565b3480156104db575f80fd5b506104ef6104ea3660046122b1565b610e71565b6040516102a3929190612460565b348015610508575f80fd5b50610316610ea1565b34801561051c575f80fd5b5061031661052b36600461229a565b610eb4565b34801561053b575f80fd5b5061031661054a36600461229a565b61109b565b34801561055a575f80fd5b5061031661056936600461229a565b6111a7565b348015610579575f80fd5b5061031661058836600461229a565b6111fa565b348015610598575f80fd5b506103166105a736600461229a565b61124d565b3480156105b7575f80fd5b506103166105c6366004612412565b61139c565b3480156105d6575f80fd5b507f9016d09d72d40fdae2fd8ceac6b6234c7706214fd39c1cd1e609a0528c199300546001600160a01b03166102ca565b348015610612575f80fd5b50610299600a5481565b348015610627575f80fd5b50610299600f5481565b34801561063c575f80fd5b506102ca61064b36600461229a565b60116020525f90815260409020546001600160a01b031681565b348015610670575f80fd5b50610695604051806040016040528060058152602001640352e302e360dc1b81525081565b6040516102a39190612482565b3480156106ad575f80fd5b506103166106bc36600461229a565b6114d4565b3480156106cc575f80fd5b5061029960025481565b3480156106e1575f80fd5b506103166106f036600461229a565b611527565b348015610700575f80fd5b5061074761070f366004612494565b60136020525f908152604090208054600182015460028301546003840154600485015460059095015460ff9094169492939192909186565b6040805196151587526020870195909552938501929092526060840152608083015260a082015260c0016102a3565b348015610781575f80fd5b506103166107903660046124ad565b61157a565b3480156107a0575f80fd5b5061036c6107af366004612494565b60106020525f908152604090205460ff1681565b3480156107ce575f80fd5b5061029960065481565b3480156107e3575f80fd5b506103166107f2366004612494565b6116d9565b348015610802575f80fd5b506103166108113660046124fa565b611768565b348015610821575f80fd5b50610316611884565b348015610835575f80fd5b50610316610844366004612412565b611b01565b348015610854575f80fd5b50610316610863366004612494565b611b60565b348015610873575f80fd5b5061029961088236600461229a565b60126020525f908152604090205481565b61089b611b9d565b5f81116108c35760405163cdbc633560e01b8152600481018290526024015b60405180910390fd5b600f80545f908152601260205260408120839055815491906108e483612543565b9091555050600f547fe1976e16ed8ce8e740235978fbe69b27d5eea683b2e017bb0bd2fabb33294b3f9061091a8361271061255b565b60408051928352602083019190915281018390526060015b60405180910390a150565b600e546001600160a01b031633146109675760405162461bcd60e51b81526004016108ba9061256e565b600a545f0361098f57600a54604051637154000760e01b81526004016108ba91815260200190565b600954600160a01b900460ff166109df57600c5442106109c05742600d556109b5611884565b600b54600a556109eb565b600c546040516354593e7560e01b81526004016108ba91815260200190565b42600d556109eb611884565b600954600160a01b900460ff16610a10576009805460ff60a01b1916600160a01b1790555b5050565b610a1c611bf8565b610a2582611c9c565b610a108282611ca4565b610a37611b9d565b5f8111610a5a576040516302ff478360e41b8152600481018290526024016108ba565b8060015f828254610a6b91906125cb565b90915550505f80546040516323b872dd60e01b81526001600160a01b03909116906323b872dd90610aa4903390309087906004016125de565b6020604051808303815f875af1158015610ac0573d5f803e3d5ffd5b505050506040513d601f19601f82011682018060405250810190610ae49190612602565b905080610b085760405163d85d3cef60e01b815281151560048201526024016108ba565b7fa9f166643ec132a11638e74e3c3a78d4ae278fcbf92998240e0e97676f54e404600154604051610b3b91815260200190565b60405180910390a15050565b5f610b50611d65565b505f805160206126c283398151915290565b610b6a611b9d565b5f8111610b8d57604051637154000760e01b8152600481018290526024016108ba565b42821015610bb1576040516354593e7560e01b8152600481018390526024016108ba565b610bbb428361255b565b600a819055600c83905542600d819055600b8390556040805133815260208101939093528201527f2b5090e035d3026f5448298c9adc68db8bbc1b26a8af5c81b2b2a9fc07ca4a0090606001610b3b565b610c14611b9d565b5f600a8190556009805460ff60a01b191690556040805133815260208101929092527f3b68dc4e210c46d3622293f2b941cdfde795bb6e17286bb289ba05a6a3b5541f910160405180910390a1565b600954600160a81b900460ff1615610cbd5760405162461bcd60e51b815260206004820152601f60248201527f5265656e7472616e637947756172643a207265656e7472616e742063616c6c0060448201526064016108ba565b6009805460ff60a81b1916600160a81b17905580610cf1576040516302ff478360e41b8152600481018290526024016108ba565b335f90815260136020526040902060010154811115610d455760405162461bcd60e51b815260206004820152601060248201526f696e76616c6964205f616d6f756e742160801b60448201526064016108ba565b335f9081526013602052604081206001018054839290610d6690849061255b565b9091555050335f9081526013602052604081206002018054839290610d8c9084906125cb565b90915550505f805460405163a9059cbb60e01b8152336004820152602481018490526001600160a01b039091169063a9059cbb906044016020604051808303815f875af1158015610ddf573d5f803e3d5ffd5b505050506040513d601f19601f82011682018060405250810190610e039190612602565b905080610e275760405163d85d3cef60e01b815281151560048201526024016108ba565b60408051338152602081018490527f884edad9ce6fa2440d8a54cc123490eb96d2768479d49ff9c7366125a9424364910160405180910390a150506009805460ff60a81b19169055565b5f60605f600a54600d5442610e86919061255b565b60408051602081019091525f81529110969095509350505050565b610ea9611b9d565b610eb25f611dae565b565b5f8111610ed7576040516302ff478360e41b8152600481018290526024016108ba565b335f9081526013602052604090205460ff1615610f1f57335f90815260136020526040908190205490516301be970f60e61b815260ff909116151560048201526024016108ba565b335f9081526013602052604081206005018054839290610f409084906125cb565b9091555050335f9081526010602052604090205460ff16610fa957600880545f90815260116020908152604080832080546001600160a01b03191633908117909155835260109091528120805460ff1916600117905581549190610fa383612543565b91905055505b8060035f828254610fba91906125cb565b90915550505f80546009546040516323b872dd60e01b81526001600160a01b03928316926323b872dd92610ff89233929091169087906004016125de565b6020604051808303815f875af1158015611014573d5f803e3d5ffd5b505050506040513d601f19601f820116820180604052508101906110389190612602565b90508061105c5760405163d85d3cef60e01b815281151560048201526024016108ba565b6009546040517f14ee34c24635186d212f515353dadae9c226529edef2d1fcf5504cb33b5c25ab91610b3b9133916001600160a01b03169086906125de565b6110a3611b9d565b5f81116110c6576040516302ff478360e41b8152600481018290526024016108ba565b8060025f8282546110d791906125cb565b90915550505f80546040516323b872dd60e01b81526001600160a01b03909116906323b872dd90611110903390309087906004016125de565b6020604051808303815f875af115801561112c573d5f803e3d5ffd5b505050506040513d601f19601f820116820180604052508101906111509190612602565b9050806111745760405163d85d3cef60e01b815281151560048201526024016108ba565b7f73834e1d1ee73ba659470a3603b888903853d3a3c9fda34e71c093a0e35cab94600254604051610b3b91815260200190565b6111af611b9d565b5f81116111d25760405163cdbc633560e01b8152600481018290526024016108ba565b600781905560408051338152602081018390525f805160206126e28339815191529101610932565b611202611b9d565b5f81116112255760405163cdbc633560e01b8152600481018290526024016108ba565b600481905560408051338152602081018390525f805160206126e28339815191529101610932565b5f8111611270576040516302ff478360e41b8152600481018290526024016108ba565b335f9081526013602052604090205460ff16156112b857335f90815260136020526040908190205490516301be970f60e61b815260ff909116151560048201526024016108ba565b335f9081526013602052604090206001015481106112ec57604051630636dc6b60e31b8152600481018290526024016108ba565b335f908152601360205260408120600101805483929061130d90849061255b565b9091555050335f90815260136020526040812060050180548392906113339084906125cb565b925050819055508060025f82825461134b91906125cb565b925050819055508060035f82825461136391906125cb565b90915550506040517f14ee34c24635186d212f515353dadae9c226529edef2d1fcf5504cb33b5c25ab90610932903390309085906125de565b5f82116113bf576040516302ff478360e41b8152600481018390526024016108ba565b600f548111156113e55760405163222a50f360e01b8152600481018290526024016108ba565b5f818152601260205260409020546113fe908390611e1e565b5f80546040516323b872dd60e01b81526001600160a01b03909116906323b872dd90611432903390309088906004016125de565b6020604051808303815f875af115801561144e573d5f803e3d5ffd5b505050506040513d601f19601f820116820180604052508101906114729190612602565b9050806114965760405163d85d3cef60e01b815281151560048201526024016108ba565b60408051848152602081018490527fa89b69c5958ec1ccf0df0de746a8708f5b6a6b429430129f16f46f44b319c900910160405180910390a1505050565b6114dc611b9d565b5f81116114ff5760405163cdbc633560e01b8152600481018290526024016108ba565b600681905560408051338152602081018390525f805160206126e28339815191529101610932565b61152f611b9d565b5f81116115525760405163cdbc633560e01b8152600481018290526024016108ba565b600581905560408051338152602081018390525f805160206126e28339815191529101610932565b7ff0c57e16840df040f15088dc2f81fe391c3923bec73e23a9662efc9c229c6a008054600160401b810460ff16159067ffffffffffffffff165f811580156115bf5750825b90505f8267ffffffffffffffff1660011480156115db5750303b155b9050811580156115e9575080155b156116075760405163f92ee8a960e01b815260040160405180910390fd5b845467ffffffffffffffff19166001178555831561163157845460ff60401b1916600160401b1785555b61163a88611e7c565b611642611e8d565b5f80546001600160a01b03808a166001600160a01b031992831617909255611388600455611d4c6005556105dc6006556103e8600755600980549289169290911691909117905583156116cf57845460ff60401b19168555604051600181527fc7f505b2f371ae2175ee4913f4499e1f2633a7b5936321eed1cdaeb6115181d29060200160405180910390a15b5050505050505050565b6116e1611b9d565b6001600160a01b0381166117135760405163e4cfa94d60e01b81526001600160a01b03821660048201526024016108ba565b600e80546001600160a01b0319166001600160a01b0383169081179091556040805133815260208101929092527f75f91f3cecb8c46f20150f60f77a6e1f0de00776627692db82ef1960af84c33a9101610932565b611770611b9d565b6001600160a01b0382166117a25760405163e4cfa94d60e01b81526001600160a01b03831660048201526024016108ba565b6001811515148015906117b457508015155b156117d6576040516381ed1ae360e01b815281151560048201526024016108ba565b801515600103611807576001600160a01b0382165f908152601360205260409020805460ff19166001179055611827565b6001600160a01b0382165f908152601360205260409020805460ff191690555b6001600160a01b0382165f818152601360209081526040918290205482513381529182019390935260ff9092161515908201527f7a1655bc3160d3413bf1d5235e55be12e01b7e8bc2436a9bff09c3b4fa2421f190606001610b3b565b600e546001600160a01b031633146118ae5760405162461bcd60e51b81526004016108ba9061256e565b5f805f6118b9611e95565b9250925092505f6002541180156118d157505f600154115b6119115760405162461bcd60e51b81526020600482015260116024820152701b9bdd08195b9bdd59da08185b5bdd5b9d607a1b60448201526064016108ba565b5f805b600854811015611ab5575f818152601160209081526040808320546001600160a01b03168352601390915290205460ff16611aad576003545f828152601160209081526040808320546001600160a01b0316835260139091528120600501549091906119829061271061261d565b61198c9190612634565b90505f6119998683612017565b90508060025f8282546119ac919061255b565b909155506119bc905081856125cb565b93508460015f8282546119cf919061255b565b90915550505f83815260116020908152604080832080546001600160a01b03908116855260139093528184206003018990555490911682528120600401829055611a1986836125cb565b5f858152601160209081526040808320546001600160a01b031683526013909152812060010180549293508392909190611a549084906125cb565b909155505087851115611aa95760405162461bcd60e51b815260206004820152601a60248201527f416d6f756e742069732067726561746572207468656e2035302500000000000060448201526064016108ba565b5050505b600101611914565b506002546001546040805133815260208101939093528201527fee826440768329b0c72f81331212ee31fcdac1ea79a248d24821e40c34e580209060600160405180910390a150505050565b611b09611b9d565b5f8111611b2c5760405163cdbc633560e01b8152600481018290526024016108ba565b5f8281526012602090815260409182902083905581513381529081018390525f805160206126e28339815191529101610b3b565b611b68611b9d565b6001600160a01b038116611b9157604051631e4fbdf760e01b81525f60048201526024016108ba565b611b9a81611dae565b50565b33611bcf7f9016d09d72d40fdae2fd8ceac6b6234c7706214fd39c1cd1e609a0528c199300546001600160a01b031690565b6001600160a01b031614610eb25760405163118cdaa760e01b81523360048201526024016108ba565b306001600160a01b037f0000000000000000000000000000000000000000000000000000000000000000161480611c7e57507f00000000000000000000000000000000000000000000000000000000000000006001600160a01b0316611c725f805160206126c2833981519152546001600160a01b031690565b6001600160a01b031614155b15610eb25760405163703e46dd60e11b815260040160405180910390fd5b611b9a611b9d565b816001600160a01b03166352d1902d6040518163ffffffff1660e01b8152600401602060405180830381865afa925050508015611cfe575060408051601f3d908101601f19168201909252611cfb91810190612653565b60015b611d2657604051634c9c8ce360e01b81526001600160a01b03831660048201526024016108ba565b5f805160206126c28339815191528114611d5657604051632a87526960e21b8152600481018290526024016108ba565b611d608383612078565b505050565b306001600160a01b037f00000000000000000000000000000000000000000000000000000000000000001614610eb25760405163703e46dd60e11b815260040160405180910390fd5b7f9016d09d72d40fdae2fd8ceac6b6234c7706214fd39c1cd1e609a0528c19930080546001600160a01b031981166001600160a01b03848116918217845560405192169182907f8be0079c531659141344cd1fd0a4f28419497f9722a3daafe3b4186f6b6457e0905f90a3505050565b5f611e2b8261271061255b565b90505f611e388483612017565b90505f611e458585612017565b90508160025f828254611e5891906125cb565b925050819055508060015f828254611e7091906125cb565b90915550505050505050565b611e846120cd565b611b9a81612116565b610eb26120cd565b5f805f80611ea7600254611388612017565b90505f611eb682600554612017565b90505f611ec583600654612017565b90505f611ed484600754612017565b90505f611ee5600154600454612017565b90505f60085411611f245760405162461bcd60e51b81526020600482015260096024820152686e6f2075736572732160b81b60448201526064016108ba565b5f60085482611f339190612634565b9050611f3f83856125cb565b60025f828254611f4f919061255b565b925050819055508360015f828254611f6791906125cb565b90915550505f805460095460405163a9059cbb60e01b81526001600160a01b0391821660048201526024810187905291169063a9059cbb906044016020604051808303815f875af1158015611fbe573d5f803e3d5ffd5b505050506040513d601f19601f82011682018060405250810190611fe29190612602565b9050806120065760405163d85d3cef60e01b815281151560048201526024016108ba565b509498939750939550919350505050565b5f825f036120375760405162461bcd60e51b81526004016108ba9061266a565b815f036120565760405162461bcd60e51b81526004016108ba9061266a565b5f612710612064848661261d565b61206e9190612634565b9150505b92915050565b6120818261211e565b6040516001600160a01b038316907fbc7cd75a20ee27fd9adebab32041f755214dbc6bffa90cc0225b39da2e5c2d3b905f90a28051156120c557611d608282612181565b610a106121f3565b7ff0c57e16840df040f15088dc2f81fe391c3923bec73e23a9662efc9c229c6a0054600160401b900460ff16610eb257604051631afcd79f60e31b815260040160405180910390fd5b611b686120cd565b806001600160a01b03163b5f0361215357604051634c9c8ce360e01b81526001600160a01b03821660048201526024016108ba565b5f805160206126c283398151915280546001600160a01b0319166001600160a01b0392909216919091179055565b60605f80846001600160a01b03168460405161219d91906126ab565b5f60405180830381855af49150503d805f81146121d5576040519150601f19603f3d011682016040523d82523d5f602084013e6121da565b606091505b50915091506121ea858383612212565b95945050505050565b3415610eb25760405163b398979f60e01b815260040160405180910390fd5b6060826122275761222282612271565b61226a565b815115801561223e57506001600160a01b0384163b155b1561226757604051639996b31560e01b81526001600160a01b03851660048201526024016108ba565b50805b9392505050565b8051156122815780518082602001fd5b604051630a12f52160e11b815260040160405180910390fd5b5f602082840312156122aa575f80fd5b5035919050565b5f80602083850312156122c2575f80fd5b823567ffffffffffffffff8111156122d8575f80fd5b8301601f810185136122e8575f80fd5b803567ffffffffffffffff8111156122fe575f80fd5b85602082840101111561230f575f80fd5b6020919091019590945092505050565b80356001600160a01b0381168114612335575f80fd5b919050565b634e487b7160e01b5f52604160045260245ffd5b5f806040838503121561235f575f80fd5b6123688361231f565b9150602083013567ffffffffffffffff811115612383575f80fd5b8301601f81018513612393575f80fd5b803567ffffffffffffffff8111156123ad576123ad61233a565b604051601f8201601f19908116603f0116810167ffffffffffffffff811182821017156123dc576123dc61233a565b6040528181528282016020018710156123f3575f80fd5b816020840160208301375f602083830101528093505050509250929050565b5f8060408385031215612423575f80fd5b50508035926020909101359150565b5f81518084528060208401602086015e5f602082860101526020601f19601f83011685010191505092915050565b8215158152604060208201525f61247a6040830184612432565b949350505050565b602081525f61226a6020830184612432565b5f602082840312156124a4575f80fd5b61226a8261231f565b5f805f606084860312156124bf575f80fd5b6124c88461231f565b92506124d66020850161231f565b91506124e46040850161231f565b90509250925092565b8015158114611b9a575f80fd5b5f806040838503121561250b575f80fd5b6125148361231f565b91506020830135612524816124ed565b809150509250929050565b634e487b7160e01b5f52601160045260245ffd5b5f600182016125545761255461252f565b5060010190565b818103818111156120725761207261252f565b6020808252603b908201527f54686973206164647265737320646f6573206e6f742068617665207065726d6960408201527f7373696f6e20746f2063616c6c20706572666f726d55706b6565700000000000606082015260800190565b808201808211156120725761207261252f565b6001600160a01b039384168152919092166020820152604081019190915260600190565b5f60208284031215612612575f80fd5b815161226a816124ed565b80820281158282048414176120725761207261252f565b5f8261264e57634e487b7160e01b5f52601260045260245ffd5b500490565b5f60208284031215612663575f80fd5b5051919050565b60208082526021908201527f5f746f74616c5374616b65416d6f756e742063616e206e6f74206265207a65726040820152606f60f81b606082015260800190565b5f82518060208501845e5f92019182525091905056fe360894a13ba1a3210667c828492db98dca3e2076cc3735a920a3ca505d382bbcb5671393c7c6980552e50a31e778921eb17d764c2e98fbf4d44fff524712def9a264697066735822122098dbf646b85250c6f3e5cab4d8c752d4e3b911caa181aaad08e377720756eb7c64736f6c634300081a0033",
					"opcodes": "PUSH1 0xA0 PUSH1 0x40 MSTORE ADDRESS PUSH1 0x80 MSTORE CALLVALUE DUP1 ISZERO PUSH2 0x13 JUMPI PUSH0 DUP1 REVERT JUMPDEST POP PUSH2 0x1C PUSH2 0x21 JUMP JUMPDEST PUSH2 0xD3 JUMP JUMPDEST PUSH32 0xF0C57E16840DF040F15088DC2F81FE391C3923BEC73E23A9662EFC9C229C6A00 DUP1 SLOAD PUSH9 0x10000000000000000 SWAP1 DIV PUSH1 0xFF AND ISZERO PUSH2 0x71 JUMPI PUSH1 0x40 MLOAD PUSH4 0xF92EE8A9 PUSH1 0xE0 SHL DUP2 MSTORE PUSH1 0x4 ADD PUSH1 0x40 MLOAD DUP1 SWAP2 SUB SWAP1 REVERT JUMPDEST DUP1 SLOAD PUSH1 0x1 PUSH1 0x1 PUSH1 0x40 SHL SUB SWAP1 DUP2 AND EQ PUSH2 0xD0 JUMPI DUP1 SLOAD PUSH1 0x1 PUSH1 0x1 PUSH1 0x40 SHL SUB NOT AND PUSH1 0x1 PUSH1 0x1 PUSH1 0x40 SHL SUB SWAP1 DUP2 OR DUP3 SSTORE PUSH1 0x40 MLOAD SWAP1 DUP2 MSTORE PUSH32 0xC7F505B2F371AE2175EE4913F4499E1F2633A7B5936321EED1CDAEB6115181D2 SWAP1 PUSH1 0x20 ADD PUSH1 0x40 MLOAD DUP1 SWAP2 SUB SWAP1 LOG1 JUMPDEST POP JUMP JUMPDEST PUSH1 0x80 MLOAD PUSH2 0x2737 PUSH2 0xF9 PUSH0 CODECOPY PUSH0 DUP2 DUP2 PUSH2 0x1C03 ADD MSTORE DUP2 DUP2 PUSH2 0x1C2C ADD MSTORE PUSH2 0x1D70 ADD MSTORE PUSH2 0x2737 PUSH0 RETURN INVALID PUSH1 0x80 PUSH1 0x40 MSTORE PUSH1 0x4 CALLDATASIZE LT PUSH2 0x280 JUMPI PUSH0 CALLDATALOAD PUSH1 0xE0 SHR DUP1 PUSH4 0x7547C7A3 GT PUSH2 0x155 JUMPI DUP1 PUSH4 0xB47FF951 GT PUSH2 0xBE JUMPI DUP1 PUSH4 0xD777CC6D GT PUSH2 0x78 JUMPI DUP1 PUSH4 0xD777CC6D EQ PUSH2 0x7D8 JUMPI DUP1 PUSH4 0xD9B998B4 EQ PUSH2 0x7F7 JUMPI DUP1 PUSH4 0xE9C68E2C EQ PUSH2 0x816 JUMPI DUP1 PUSH4 0xED061067 EQ PUSH2 0x82A JUMPI DUP1 PUSH4 0xF2FDE38B EQ PUSH2 0x849 JUMPI DUP1 PUSH4 0xFF3D65D9 EQ PUSH2 0x868 JUMPI PUSH0 DUP1 REVERT JUMPDEST DUP1 PUSH4 0xB47FF951 EQ PUSH2 0x6C1 JUMPI DUP1 PUSH4 0xB9DAC1EB EQ PUSH2 0x6D6 JUMPI DUP1 PUSH4 0xBCCBC36C EQ PUSH2 0x6F5 JUMPI DUP1 PUSH4 0xC0C53B8B EQ PUSH2 0x776 JUMPI DUP1 PUSH4 0xC7FD5BF0 EQ PUSH2 0x795 JUMPI DUP1 PUSH4 0xCE356A24 EQ PUSH2 0x7C3 JUMPI PUSH0 DUP1 REVERT JUMPDEST DUP1 PUSH4 0x8DA5CB5B GT PUSH2 0x10F JUMPI DUP1 PUSH4 0x8DA5CB5B EQ PUSH2 0x5CB JUMPI DUP1 PUSH4 0x947A36FB EQ PUSH2 0x607 JUMPI DUP1 PUSH4 0x9C361E4E EQ PUSH2 0x61C JUMPI DUP1 PUSH4 0xA4F67B8B EQ PUSH2 0x631 JUMPI DUP1 PUSH4 0xAD3CB1CC EQ PUSH2 0x665 JUMPI DUP1 PUSH4 0xAD8E5EC4 EQ PUSH2 0x6A2 JUMPI PUSH0 DUP1 REVERT JUMPDEST DUP1 PUSH4 0x7547C7A3 EQ PUSH2 0x511 JUMPI DUP1 PUSH4 0x78FD078D EQ PUSH2 0x530 JUMPI DUP1 PUSH4 0x7F111E60 EQ PUSH2 0x54F JUMPI DUP1 PUSH4 0x7F70C5E7 EQ PUSH2 0x56E JUMPI DUP1 PUSH4 0x7FFE4D93 EQ PUSH2 0x58D JUMPI DUP1 PUSH4 0x85F45250 EQ PUSH2 0x5AC JUMPI PUSH0 DUP1 REVERT JUMPDEST DUP1 PUSH4 0x44490FF4 GT PUSH2 0x1F7 JUMPI DUP1 PUSH4 0x567E98F9 GT PUSH2 0x1B1 JUMPI DUP1 PUSH4 0x567E98F9 EQ PUSH2 0x469 JUMPI DUP1 PUSH4 0x5F17E616 EQ PUSH2 0x47E JUMPI DUP1 PUSH4 0x6626B26D EQ PUSH2 0x49D JUMPI DUP1 PUSH4 0x67976974 EQ PUSH2 0x4B1 JUMPI DUP1 PUSH4 0x6E04FF0D EQ PUSH2 0x4D0 JUMPI DUP1 PUSH4 0x715018A6 EQ PUSH2 0x4FD JUMPI PUSH0 DUP1 REVERT JUMPDEST DUP1 PUSH4 0x44490FF4 EQ PUSH2 0x3D0 JUMPI DUP1 PUSH4 0x4585E33B EQ PUSH2 0x3E5 JUMPI DUP1 PUSH4 0x4F1EF286 EQ PUSH2 0x404 JUMPI DUP1 PUSH4 0x5256DBBF EQ PUSH2 0x417 JUMPI DUP1 PUSH4 0x52D1902D EQ PUSH2 0x436 JUMPI DUP1 PUSH4 0x5462870D EQ PUSH2 0x44A JUMPI PUSH0 DUP1 REVERT JUMPDEST DUP1 PUSH4 0x30CAC972 GT PUSH2 0x248 JUMPI DUP1 PUSH4 0x30CAC972 EQ PUSH2 0x337 JUMPI DUP1 PUSH4 0x30E3F8F8 EQ PUSH2 0x34C JUMPI DUP1 PUSH4 0x33244C2C EQ PUSH2 0x37C JUMPI DUP1 PUSH4 0x39518B5E EQ PUSH2 0x391 JUMPI DUP1 PUSH4 0x3A71A9E4 EQ PUSH2 0x3A6 JUMPI DUP1 PUSH4 0x3F3B3B27 EQ PUSH2 0x3BB JUMPI PUSH0 DUP1 REVERT JUMPDEST DUP1 PUSH4 0x1934A83 EQ PUSH2 0x284 JUMPI DUP1 PUSH4 0x11EAC855 EQ PUSH2 0x2AC JUMPI DUP1 PUSH4 0x188E07B9 EQ PUSH2 0x2E2 JUMPI DUP1 PUSH4 0x2765DF7A EQ PUSH2 0x2F7 JUMPI DUP1 PUSH4 0x3070FBF8 EQ PUSH2 0x318 JUMPI JUMPDEST PUSH0 DUP1 REVERT JUMPDEST CALLVALUE DUP1 ISZERO PUSH2 0x28F JUMPI PUSH0 DUP1 REVERT JUMPDEST POP PUSH2 0x299 PUSH1 0x8 SLOAD DUP2 JUMP JUMPDEST PUSH1 0x40 MLOAD SWAP1 DUP2 MSTORE PUSH1 0x20 ADD JUMPDEST PUSH1 0x40 MLOAD DUP1 SWAP2 SUB SWAP1 RETURN JUMPDEST CALLVALUE DUP1 ISZERO PUSH2 0x2B7 JUMPI PUSH0 DUP1 REVERT JUMPDEST POP PUSH0 SLOAD PUSH2 0x2CA SWAP1 PUSH1 0x1 PUSH1 0x1 PUSH1 0xA0 SHL SUB AND DUP2 JUMP JUMPDEST PUSH1 0x40 MLOAD PUSH1 0x1 PUSH1 0x1 PUSH1 0xA0 SHL SUB SWAP1 SWAP2 AND DUP2 MSTORE PUSH1 0x20 ADD PUSH2 0x2A3 JUMP JUMPDEST CALLVALUE DUP1 ISZERO PUSH2 0x2ED JUMPI PUSH0 DUP1 REVERT JUMPDEST POP PUSH2 0x299 PUSH1 0x1 SLOAD DUP2 JUMP JUMPDEST CALLVALUE DUP1 ISZERO PUSH2 0x302 JUMPI PUSH0 DUP1 REVERT JUMPDEST POP PUSH2 0x316 PUSH2 0x311 CALLDATASIZE PUSH1 0x4 PUSH2 0x229A JUMP JUMPDEST PUSH2 0x893 JUMP JUMPDEST STOP JUMPDEST CALLVALUE DUP1 ISZERO PUSH2 0x323 JUMPI PUSH0 DUP1 REVERT JUMPDEST POP PUSH1 0xE SLOAD PUSH2 0x2CA SWAP1 PUSH1 0x1 PUSH1 0x1 PUSH1 0xA0 SHL SUB AND DUP2 JUMP JUMPDEST CALLVALUE DUP1 ISZERO PUSH2 0x342 JUMPI PUSH0 DUP1 REVERT JUMPDEST POP PUSH2 0x299 PUSH1 0xB SLOAD DUP2 JUMP JUMPDEST CALLVALUE DUP1 ISZERO PUSH2 0x357 JUMPI PUSH0 DUP1 REVERT JUMPDEST POP PUSH1 0x9 SLOAD PUSH2 0x36C SWAP1 PUSH1 0x1 PUSH1 0xA0 SHL SWAP1 DIV PUSH1 0xFF AND DUP2 JUMP JUMPDEST PUSH1 0x40 MLOAD SWAP1 ISZERO ISZERO DUP2 MSTORE PUSH1 0x20 ADD PUSH2 0x2A3 JUMP JUMPDEST CALLVALUE DUP1 ISZERO PUSH2 0x387 JUMPI PUSH0 DUP1 REVERT JUMPDEST POP PUSH2 0x299 PUSH1 0x4 SLOAD DUP2 JUMP JUMPDEST CALLVALUE DUP1 ISZERO PUSH2 0x39C JUMPI PUSH0 DUP1 REVERT JUMPDEST POP PUSH2 0x299 PUSH1 0xC SLOAD DUP2 JUMP JUMPDEST CALLVALUE DUP1 ISZERO PUSH2 0x3B1 JUMPI PUSH0 DUP1 REVERT JUMPDEST POP PUSH2 0x299 PUSH1 0x7 SLOAD DUP2 JUMP JUMPDEST CALLVALUE DUP1 ISZERO PUSH2 0x3C6 JUMPI PUSH0 DUP1 REVERT JUMPDEST POP PUSH2 0x299 PUSH1 0xD SLOAD DUP2 JUMP JUMPDEST CALLVALUE DUP1 ISZERO PUSH2 0x3DB JUMPI PUSH0 DUP1 REVERT JUMPDEST POP PUSH2 0x299 PUSH1 0x5 SLOAD DUP2 JUMP JUMPDEST CALLVALUE DUP1 ISZERO PUSH2 0x3F0 JUMPI PUSH0 DUP1 REVERT JUMPDEST POP PUSH2 0x316 PUSH2 0x3FF CALLDATASIZE PUSH1 0x4 PUSH2 0x22B1 JUMP JUMPDEST PUSH2 0x93D JUMP JUMPDEST PUSH2 0x316 PUSH2 0x412 CALLDATASIZE PUSH1 0x4 PUSH2 0x234E JUMP JUMPDEST PUSH2 0xA14 JUMP JUMPDEST CALLVALUE DUP1 ISZERO PUSH2 0x422 JUMPI PUSH0 DUP1 REVERT JUMPDEST POP PUSH2 0x316 PUSH2 0x431 CALLDATASIZE PUSH1 0x4 PUSH2 0x229A JUMP JUMPDEST PUSH2 0xA2F JUMP JUMPDEST CALLVALUE DUP1 ISZERO PUSH2 0x441 JUMPI PUSH0 DUP1 REVERT JUMPDEST POP PUSH2 0x299 PUSH2 0xB47 JUMP JUMPDEST CALLVALUE DUP1 ISZERO PUSH2 0x455 JUMPI PUSH0 DUP1 REVERT JUMPDEST POP PUSH1 0x9 SLOAD PUSH2 0x2CA SWAP1 PUSH1 0x1 PUSH1 0x1 PUSH1 0xA0 SHL SUB AND DUP2 JUMP JUMPDEST CALLVALUE DUP1 ISZERO PUSH2 0x474 JUMPI PUSH0 DUP1 REVERT JUMPDEST POP PUSH2 0x299 PUSH1 0x3 SLOAD DUP2 JUMP JUMPDEST CALLVALUE DUP1 ISZERO PUSH2 0x489 JUMPI PUSH0 DUP1 REVERT JUMPDEST POP PUSH2 0x316 PUSH2 0x498 CALLDATASIZE PUSH1 0x4 PUSH2 0x2412 JUMP JUMPDEST PUSH2 0xB62 JUMP JUMPDEST CALLVALUE DUP1 ISZERO PUSH2 0x4A8 JUMPI PUSH0 DUP1 REVERT JUMPDEST POP PUSH2 0x316 PUSH2 0xC0C JUMP JUMPDEST CALLVALUE DUP1 ISZERO PUSH2 0x4BC JUMPI PUSH0 DUP1 REVERT JUMPDEST POP PUSH2 0x316 PUSH2 0x4CB CALLDATASIZE PUSH1 0x4 PUSH2 0x229A JUMP JUMPDEST PUSH2 0xC63 JUMP JUMPDEST CALLVALUE DUP1 ISZERO PUSH2 0x4DB JUMPI PUSH0 DUP1 REVERT JUMPDEST POP PUSH2 0x4EF PUSH2 0x4EA CALLDATASIZE PUSH1 0x4 PUSH2 0x22B1 JUMP JUMPDEST PUSH2 0xE71 JUMP JUMPDEST PUSH1 0x40 MLOAD PUSH2 0x2A3 SWAP3 SWAP2 SWAP1 PUSH2 0x2460 JUMP JUMPDEST CALLVALUE DUP1 ISZERO PUSH2 0x508 JUMPI PUSH0 DUP1 REVERT JUMPDEST POP PUSH2 0x316 PUSH2 0xEA1 JUMP JUMPDEST CALLVALUE DUP1 ISZERO PUSH2 0x51C JUMPI PUSH0 DUP1 REVERT JUMPDEST POP PUSH2 0x316 PUSH2 0x52B CALLDATASIZE PUSH1 0x4 PUSH2 0x229A JUMP JUMPDEST PUSH2 0xEB4 JUMP JUMPDEST CALLVALUE DUP1 ISZERO PUSH2 0x53B JUMPI PUSH0 DUP1 REVERT JUMPDEST POP PUSH2 0x316 PUSH2 0x54A CALLDATASIZE PUSH1 0x4 PUSH2 0x229A JUMP JUMPDEST PUSH2 0x109B JUMP JUMPDEST CALLVALUE DUP1 ISZERO PUSH2 0x55A JUMPI PUSH0 DUP1 REVERT JUMPDEST POP PUSH2 0x316 PUSH2 0x569 CALLDATASIZE PUSH1 0x4 PUSH2 0x229A JUMP JUMPDEST PUSH2 0x11A7 JUMP JUMPDEST CALLVALUE DUP1 ISZERO PUSH2 0x579 JUMPI PUSH0 DUP1 REVERT JUMPDEST POP PUSH2 0x316 PUSH2 0x588 CALLDATASIZE PUSH1 0x4 PUSH2 0x229A JUMP JUMPDEST PUSH2 0x11FA JUMP JUMPDEST CALLVALUE DUP1 ISZERO PUSH2 0x598 JUMPI PUSH0 DUP1 REVERT JUMPDEST POP PUSH2 0x316 PUSH2 0x5A7 CALLDATASIZE PUSH1 0x4 PUSH2 0x229A JUMP JUMPDEST PUSH2 0x124D JUMP JUMPDEST CALLVALUE DUP1 ISZERO PUSH2 0x5B7 JUMPI PUSH0 DUP1 REVERT JUMPDEST POP PUSH2 0x316 PUSH2 0x5C6 CALLDATASIZE PUSH1 0x4 PUSH2 0x2412 JUMP JUMPDEST PUSH2 0x139C JUMP JUMPDEST CALLVALUE DUP1 ISZERO PUSH2 0x5D6 JUMPI PUSH0 DUP1 REVERT JUMPDEST POP PUSH32 0x9016D09D72D40FDAE2FD8CEAC6B6234C7706214FD39C1CD1E609A0528C199300 SLOAD PUSH1 0x1 PUSH1 0x1 PUSH1 0xA0 SHL SUB AND PUSH2 0x2CA JUMP JUMPDEST CALLVALUE DUP1 ISZERO PUSH2 0x612 JUMPI PUSH0 DUP1 REVERT JUMPDEST POP PUSH2 0x299 PUSH1 0xA SLOAD DUP2 JUMP JUMPDEST CALLVALUE DUP1 ISZERO PUSH2 0x627 JUMPI PUSH0 DUP1 REVERT JUMPDEST POP PUSH2 0x299 PUSH1 0xF SLOAD DUP2 JUMP JUMPDEST CALLVALUE DUP1 ISZERO PUSH2 0x63C JUMPI PUSH0 DUP1 REVERT JUMPDEST POP PUSH2 0x2CA PUSH2 0x64B CALLDATASIZE PUSH1 0x4 PUSH2 0x229A JUMP JUMPDEST PUSH1 0x11 PUSH1 0x20 MSTORE PUSH0 SWAP1 DUP2 MSTORE PUSH1 0x40 SWAP1 KECCAK256 SLOAD PUSH1 0x1 PUSH1 0x1 PUSH1 0xA0 SHL SUB AND DUP2 JUMP JUMPDEST CALLVALUE DUP1 ISZERO PUSH2 0x670 JUMPI PUSH0 DUP1 REVERT JUMPDEST POP PUSH2 0x695 PUSH1 0x40 MLOAD DUP1 PUSH1 0x40 ADD PUSH1 0x40 MSTORE DUP1 PUSH1 0x5 DUP2 MSTORE PUSH1 0x20 ADD PUSH5 0x352E302E3 PUSH1 0xDC SHL DUP2 MSTORE POP DUP2 JUMP JUMPDEST PUSH1 0x40 MLOAD PUSH2 0x2A3 SWAP2 SWAP1 PUSH2 0x2482 JUMP JUMPDEST CALLVALUE DUP1 ISZERO PUSH2 0x6AD JUMPI PUSH0 DUP1 REVERT JUMPDEST POP PUSH2 0x316 PUSH2 0x6BC CALLDATASIZE PUSH1 0x4 PUSH2 0x229A JUMP JUMPDEST PUSH2 0x14D4 JUMP JUMPDEST CALLVALUE DUP1 ISZERO PUSH2 0x6CC JUMPI PUSH0 DUP1 REVERT JUMPDEST POP PUSH2 0x299 PUSH1 0x2 SLOAD DUP2 JUMP JUMPDEST CALLVALUE DUP1 ISZERO PUSH2 0x6E1 JUMPI PUSH0 DUP1 REVERT JUMPDEST POP PUSH2 0x316 PUSH2 0x6F0 CALLDATASIZE PUSH1 0x4 PUSH2 0x229A JUMP JUMPDEST PUSH2 0x1527 JUMP JUMPDEST CALLVALUE DUP1 ISZERO PUSH2 0x700 JUMPI PUSH0 DUP1 REVERT JUMPDEST POP PUSH2 0x747 PUSH2 0x70F CALLDATASIZE PUSH1 0x4 PUSH2 0x2494 JUMP JUMPDEST PUSH1 0x13 PUSH1 0x20 MSTORE PUSH0 SWAP1 DUP2 MSTORE PUSH1 0x40 SWAP1 KECCAK256 DUP1 SLOAD PUSH1 0x1 DUP3 ADD SLOAD PUSH1 0x2 DUP4 ADD SLOAD PUSH1 0x3 DUP5 ADD SLOAD PUSH1 0x4 DUP6 ADD SLOAD PUSH1 0x5 SWAP1 SWAP6 ADD SLOAD PUSH1 0xFF SWAP1 SWAP5 AND SWAP5 SWAP3 SWAP4 SWAP2 SWAP3 SWAP1 SWAP2 DUP7 JUMP JUMPDEST PUSH1 0x40 DUP1 MLOAD SWAP7 ISZERO ISZERO DUP8 MSTORE PUSH1 0x20 DUP8 ADD SWAP6 SWAP1 SWAP6 MSTORE SWAP4 DUP6 ADD SWAP3 SWAP1 SWAP3 MSTORE PUSH1 0x60 DUP5 ADD MSTORE PUSH1 0x80 DUP4 ADD MSTORE PUSH1 0xA0 DUP3 ADD MSTORE PUSH1 0xC0 ADD PUSH2 0x2A3 JUMP JUMPDEST CALLVALUE DUP1 ISZERO PUSH2 0x781 JUMPI PUSH0 DUP1 REVERT JUMPDEST POP PUSH2 0x316 PUSH2 0x790 CALLDATASIZE PUSH1 0x4 PUSH2 0x24AD JUMP JUMPDEST PUSH2 0x157A JUMP JUMPDEST CALLVALUE DUP1 ISZERO PUSH2 0x7A0 JUMPI PUSH0 DUP1 REVERT JUMPDEST POP PUSH2 0x36C PUSH2 0x7AF CALLDATASIZE PUSH1 0x4 PUSH2 0x2494 JUMP JUMPDEST PUSH1 0x10 PUSH1 0x20 MSTORE PUSH0 SWAP1 DUP2 MSTORE PUSH1 0x40 SWAP1 KECCAK256 SLOAD PUSH1 0xFF AND DUP2 JUMP JUMPDEST CALLVALUE DUP1 ISZERO PUSH2 0x7CE JUMPI PUSH0 DUP1 REVERT JUMPDEST POP PUSH2 0x299 PUSH1 0x6 SLOAD DUP2 JUMP JUMPDEST CALLVALUE DUP1 ISZERO PUSH2 0x7E3 JUMPI PUSH0 DUP1 REVERT JUMPDEST POP PUSH2 0x316 PUSH2 0x7F2 CALLDATASIZE PUSH1 0x4 PUSH2 0x2494 JUMP JUMPDEST PUSH2 0x16D9 JUMP JUMPDEST CALLVALUE DUP1 ISZERO PUSH2 0x802 JUMPI PUSH0 DUP1 REVERT JUMPDEST POP PUSH2 0x316 PUSH2 0x811 CALLDATASIZE PUSH1 0x4 PUSH2 0x24FA JUMP JUMPDEST PUSH2 0x1768 JUMP JUMPDEST CALLVALUE DUP1 ISZERO PUSH2 0x821 JUMPI PUSH0 DUP1 REVERT JUMPDEST POP PUSH2 0x316 PUSH2 0x1884 JUMP JUMPDEST CALLVALUE DUP1 ISZERO PUSH2 0x835 JUMPI PUSH0 DUP1 REVERT JUMPDEST POP PUSH2 0x316 PUSH2 0x844 CALLDATASIZE PUSH1 0x4 PUSH2 0x2412 JUMP JUMPDEST PUSH2 0x1B01 JUMP JUMPDEST CALLVALUE DUP1 ISZERO PUSH2 0x854 JUMPI PUSH0 DUP1 REVERT JUMPDEST POP PUSH2 0x316 PUSH2 0x863 CALLDATASIZE PUSH1 0x4 PUSH2 0x2494 JUMP JUMPDEST PUSH2 0x1B60 JUMP JUMPDEST CALLVALUE DUP1 ISZERO PUSH2 0x873 JUMPI PUSH0 DUP1 REVERT JUMPDEST POP PUSH2 0x299 PUSH2 0x882 CALLDATASIZE PUSH1 0x4 PUSH2 0x229A JUMP JUMPDEST PUSH1 0x12 PUSH1 0x20 MSTORE PUSH0 SWAP1 DUP2 MSTORE PUSH1 0x40 SWAP1 KECCAK256 SLOAD DUP2 JUMP JUMPDEST PUSH2 0x89B PUSH2 0x1B9D JUMP JUMPDEST PUSH0 DUP2 GT PUSH2 0x8C3 JUMPI PUSH1 0x40 MLOAD PUSH4 0xCDBC6335 PUSH1 0xE0 SHL DUP2 MSTORE PUSH1 0x4 DUP2 ADD DUP3 SWAP1 MSTORE PUSH1 0x24 ADD JUMPDEST PUSH1 0x40 MLOAD DUP1 SWAP2 SUB SWAP1 REVERT JUMPDEST PUSH1 0xF DUP1 SLOAD PUSH0 SWAP1 DUP2 MSTORE PUSH1 0x12 PUSH1 0x20 MSTORE PUSH1 0x40 DUP2 KECCAK256 DUP4 SWAP1 SSTORE DUP2 SLOAD SWAP2 SWAP1 PUSH2 0x8E4 DUP4 PUSH2 0x2543 JUMP JUMPDEST SWAP1 SWAP2 SSTORE POP POP PUSH1 0xF SLOAD PUSH32 0xE1976E16ED8CE8E740235978FBE69B27D5EEA683B2E017BB0BD2FABB33294B3F SWAP1 PUSH2 0x91A DUP4 PUSH2 0x2710 PUSH2 0x255B JUMP JUMPDEST PUSH1 0x40 DUP1 MLOAD SWAP3 DUP4 MSTORE PUSH1 0x20 DUP4 ADD SWAP2 SWAP1 SWAP2 MSTORE DUP2 ADD DUP4 SWAP1 MSTORE PUSH1 0x60 ADD JUMPDEST PUSH1 0x40 MLOAD DUP1 SWAP2 SUB SWAP1 LOG1 POP JUMP JUMPDEST PUSH1 0xE SLOAD PUSH1 0x1 PUSH1 0x1 PUSH1 0xA0 SHL SUB AND CALLER EQ PUSH2 0x967 JUMPI PUSH1 0x40 MLOAD PUSH3 0x461BCD PUSH1 0xE5 SHL DUP2 MSTORE PUSH1 0x4 ADD PUSH2 0x8BA SWAP1 PUSH2 0x256E JUMP JUMPDEST PUSH1 0xA SLOAD PUSH0 SUB PUSH2 0x98F JUMPI PUSH1 0xA SLOAD PUSH1 0x40 MLOAD PUSH4 0x71540007 PUSH1 0xE0 SHL DUP2 MSTORE PUSH1 0x4 ADD PUSH2 0x8BA SWAP2 DUP2 MSTORE PUSH1 0x20 ADD SWAP1 JUMP JUMPDEST PUSH1 0x9 SLOAD PUSH1 0x1 PUSH1 0xA0 SHL SWAP1 DIV PUSH1 0xFF AND PUSH2 0x9DF JUMPI PUSH1 0xC SLOAD TIMESTAMP LT PUSH2 0x9C0 JUMPI TIMESTAMP PUSH1 0xD SSTORE PUSH2 0x9B5 PUSH2 0x1884 JUMP JUMPDEST PUSH1 0xB SLOAD PUSH1 0xA SSTORE PUSH2 0x9EB JUMP JUMPDEST PUSH1 0xC SLOAD PUSH1 0x40 MLOAD PUSH4 0x54593E75 PUSH1 0xE0 SHL DUP2 MSTORE PUSH1 0x4 ADD PUSH2 0x8BA SWAP2 DUP2 MSTORE PUSH1 0x20 ADD SWAP1 JUMP JUMPDEST TIMESTAMP PUSH1 0xD SSTORE PUSH2 0x9EB PUSH2 0x1884 JUMP JUMPDEST PUSH1 0x9 SLOAD PUSH1 0x1 PUSH1 0xA0 SHL SWAP1 DIV PUSH1 0xFF AND PUSH2 0xA10 JUMPI PUSH1 0x9 DUP1 SLOAD PUSH1 0xFF PUSH1 0xA0 SHL NOT AND PUSH1 0x1 PUSH1 0xA0 SHL OR SWAP1 SSTORE JUMPDEST POP POP JUMP JUMPDEST PUSH2 0xA1C PUSH2 0x1BF8 JUMP JUMPDEST PUSH2 0xA25 DUP3 PUSH2 0x1C9C JUMP JUMPDEST PUSH2 0xA10 DUP3 DUP3 PUSH2 0x1CA4 JUMP JUMPDEST PUSH2 0xA37 PUSH2 0x1B9D JUMP JUMPDEST PUSH0 DUP2 GT PUSH2 0xA5A JUMPI PUSH1 0x40 MLOAD PUSH4 0x2FF4783 PUSH1 0xE4 SHL DUP2 MSTORE PUSH1 0x4 DUP2 ADD DUP3 SWAP1 MSTORE PUSH1 0x24 ADD PUSH2 0x8BA JUMP JUMPDEST DUP1 PUSH1 0x1 PUSH0 DUP3 DUP3 SLOAD PUSH2 0xA6B SWAP2 SWAP1 PUSH2 0x25CB JUMP JUMPDEST SWAP1 SWAP2 SSTORE POP POP PUSH0 DUP1 SLOAD PUSH1 0x40 MLOAD PUSH4 0x23B872DD PUSH1 0xE0 SHL DUP2 MSTORE PUSH1 0x1 PUSH1 0x1 PUSH1 0xA0 SHL SUB SWAP1 SWAP2 AND SWAP1 PUSH4 0x23B872DD SWAP1 PUSH2 0xAA4 SWAP1 CALLER SWAP1 ADDRESS SWAP1 DUP8 SWAP1 PUSH1 0x4 ADD PUSH2 0x25DE JUMP JUMPDEST PUSH1 0x20 PUSH1 0x40 MLOAD DUP1 DUP4 SUB DUP2 PUSH0 DUP8 GAS CALL ISZERO DUP1 ISZERO PUSH2 0xAC0 JUMPI RETURNDATASIZE PUSH0 DUP1 RETURNDATACOPY RETURNDATASIZE PUSH0 REVERT JUMPDEST POP POP POP POP PUSH1 0x40 MLOAD RETURNDATASIZE PUSH1 0x1F NOT PUSH1 0x1F DUP3 ADD AND DUP3 ADD DUP1 PUSH1 0x40 MSTORE POP DUP2 ADD SWAP1 PUSH2 0xAE4 SWAP2 SWAP1 PUSH2 0x2602 JUMP JUMPDEST SWAP1 POP DUP1 PUSH2 0xB08 JUMPI PUSH1 0x40 MLOAD PUSH4 0xD85D3CEF PUSH1 0xE0 SHL DUP2 MSTORE DUP2 ISZERO ISZERO PUSH1 0x4 DUP3 ADD MSTORE PUSH1 0x24 ADD PUSH2 0x8BA JUMP JUMPDEST PUSH32 0xA9F166643EC132A11638E74E3C3A78D4AE278FCBF92998240E0E97676F54E404 PUSH1 0x1 SLOAD PUSH1 0x40 MLOAD PUSH2 0xB3B SWAP2 DUP2 MSTORE PUSH1 0x20 ADD SWAP1 JUMP JUMPDEST PUSH1 0x40 MLOAD DUP1 SWAP2 SUB SWAP1 LOG1 POP POP JUMP JUMPDEST PUSH0 PUSH2 0xB50 PUSH2 0x1D65 JUMP JUMPDEST POP PUSH0 DUP1 MLOAD PUSH1 0x20 PUSH2 0x26C2 DUP4 CODECOPY DUP2 MLOAD SWAP2 MSTORE SWAP1 JUMP JUMPDEST PUSH2 0xB6A PUSH2 0x1B9D JUMP JUMPDEST PUSH0 DUP2 GT PUSH2 0xB8D JUMPI PUSH1 0x40 MLOAD PUSH4 0x71540007 PUSH1 0xE0 SHL DUP2 MSTORE PUSH1 0x4 DUP2 ADD DUP3 SWAP1 MSTORE PUSH1 0x24 ADD PUSH2 0x8BA JUMP JUMPDEST TIMESTAMP DUP3 LT ISZERO PUSH2 0xBB1 JUMPI PUSH1 0x40 MLOAD PUSH4 0x54593E75 PUSH1 0xE0 SHL DUP2 MSTORE PUSH1 0x4 DUP2 ADD DUP4 SWAP1 MSTORE PUSH1 0x24 ADD PUSH2 0x8BA JUMP JUMPDEST PUSH2 0xBBB TIMESTAMP DUP4 PUSH2 0x255B JUMP JUMPDEST PUSH1 0xA DUP2 SWAP1 SSTORE PUSH1 0xC DUP4 SWAP1 SSTORE TIMESTAMP PUSH1 0xD DUP2 SWAP1 SSTORE PUSH1 0xB DUP4 SWAP1 SSTORE PUSH1 0x40 DUP1 MLOAD CALLER DUP2 MSTORE PUSH1 0x20 DUP2 ADD SWAP4 SWAP1 SWAP4 MSTORE DUP3 ADD MSTORE PUSH32 0x2B5090E035D3026F5448298C9ADC68DB8BBC1B26A8AF5C81B2B2A9FC07CA4A00 SWAP1 PUSH1 0x60 ADD PUSH2 0xB3B JUMP JUMPDEST PUSH2 0xC14 PUSH2 0x1B9D JUMP JUMPDEST PUSH0 PUSH1 0xA DUP2 SWAP1 SSTORE PUSH1 0x9 DUP1 SLOAD PUSH1 0xFF PUSH1 0xA0 SHL NOT AND SWAP1 SSTORE PUSH1 0x40 DUP1 MLOAD CALLER DUP2 MSTORE PUSH1 0x20 DUP2 ADD SWAP3 SWAP1 SWAP3 MSTORE PUSH32 0x3B68DC4E210C46D3622293F2B941CDFDE795BB6E17286BB289BA05A6A3B5541F SWAP2 ADD PUSH1 0x40 MLOAD DUP1 SWAP2 SUB SWAP1 LOG1 JUMP JUMPDEST PUSH1 0x9 SLOAD PUSH1 0x1 PUSH1 0xA8 SHL SWAP1 DIV PUSH1 0xFF AND ISZERO PUSH2 0xCBD JUMPI PUSH1 0x40 MLOAD PUSH3 0x461BCD PUSH1 0xE5 SHL DUP2 MSTORE PUSH1 0x20 PUSH1 0x4 DUP3 ADD MSTORE PUSH1 0x1F PUSH1 0x24 DUP3 ADD MSTORE PUSH32 0x5265656E7472616E637947756172643A207265656E7472616E742063616C6C00 PUSH1 0x44 DUP3 ADD MSTORE PUSH1 0x64 ADD PUSH2 0x8BA JUMP JUMPDEST PUSH1 0x9 DUP1 SLOAD PUSH1 0xFF PUSH1 0xA8 SHL NOT AND PUSH1 0x1 PUSH1 0xA8 SHL OR SWAP1 SSTORE DUP1 PUSH2 0xCF1 JUMPI PUSH1 0x40 MLOAD PUSH4 0x2FF4783 PUSH1 0xE4 SHL DUP2 MSTORE PUSH1 0x4 DUP2 ADD DUP3 SWAP1 MSTORE PUSH1 0x24 ADD PUSH2 0x8BA JUMP JUMPDEST CALLER PUSH0 SWAP1 DUP2 MSTORE PUSH1 0x13 PUSH1 0x20 MSTORE PUSH1 0x40 SWAP1 KECCAK256 PUSH1 0x1 ADD SLOAD DUP2 GT ISZERO PUSH2 0xD45 JUMPI PUSH1 0x40 MLOAD PUSH3 0x461BCD PUSH1 0xE5 SHL DUP2 MSTORE PUSH1 0x20 PUSH1 0x4 DUP3 ADD MSTORE PUSH1 0x10 PUSH1 0x24 DUP3 ADD MSTORE PUSH16 0x696E76616C6964205F616D6F756E7421 PUSH1 0x80 SHL PUSH1 0x44 DUP3 ADD MSTORE PUSH1 0x64 ADD PUSH2 0x8BA JUMP JUMPDEST CALLER PUSH0 SWAP1 DUP2 MSTORE PUSH1 0x13 PUSH1 0x20 MSTORE PUSH1 0x40 DUP2 KECCAK256 PUSH1 0x1 ADD DUP1 SLOAD DUP4 SWAP3 SWAP1 PUSH2 0xD66 SWAP1 DUP5 SWAP1 PUSH2 0x255B JUMP JUMPDEST SWAP1 SWAP2 SSTORE POP POP CALLER PUSH0 SWAP1 DUP2 MSTORE PUSH1 0x13 PUSH1 0x20 MSTORE PUSH1 0x40 DUP2 KECCAK256 PUSH1 0x2 ADD DUP1 SLOAD DUP4 SWAP3 SWAP1 PUSH2 0xD8C SWAP1 DUP5 SWAP1 PUSH2 0x25CB JUMP JUMPDEST SWAP1 SWAP2 SSTORE POP POP PUSH0 DUP1 SLOAD PUSH1 0x40 MLOAD PUSH4 0xA9059CBB PUSH1 0xE0 SHL DUP2 MSTORE CALLER PUSH1 0x4 DUP3 ADD MSTORE PUSH1 0x24 DUP2 ADD DUP5 SWAP1 MSTORE PUSH1 0x1 PUSH1 0x1 PUSH1 0xA0 SHL SUB SWAP1 SWAP2 AND SWAP1 PUSH4 0xA9059CBB SWAP1 PUSH1 0x44 ADD PUSH1 0x20 PUSH1 0x40 MLOAD DUP1 DUP4 SUB DUP2 PUSH0 DUP8 GAS CALL ISZERO DUP1 ISZERO PUSH2 0xDDF JUMPI RETURNDATASIZE PUSH0 DUP1 RETURNDATACOPY RETURNDATASIZE PUSH0 REVERT JUMPDEST POP POP POP POP PUSH1 0x40 MLOAD RETURNDATASIZE PUSH1 0x1F NOT PUSH1 0x1F DUP3 ADD AND DUP3 ADD DUP1 PUSH1 0x40 MSTORE POP DUP2 ADD SWAP1 PUSH2 0xE03 SWAP2 SWAP1 PUSH2 0x2602 JUMP JUMPDEST SWAP1 POP DUP1 PUSH2 0xE27 JUMPI PUSH1 0x40 MLOAD PUSH4 0xD85D3CEF PUSH1 0xE0 SHL DUP2 MSTORE DUP2 ISZERO ISZERO PUSH1 0x4 DUP3 ADD MSTORE PUSH1 0x24 ADD PUSH2 0x8BA JUMP JUMPDEST PUSH1 0x40 DUP1 MLOAD CALLER DUP2 MSTORE PUSH1 0x20 DUP2 ADD DUP5 SWAP1 MSTORE PUSH32 0x884EDAD9CE6FA2440D8A54CC123490EB96D2768479D49FF9C7366125A9424364 SWAP2 ADD PUSH1 0x40 MLOAD DUP1 SWAP2 SUB SWAP1 LOG1 POP POP PUSH1 0x9 DUP1 SLOAD PUSH1 0xFF PUSH1 0xA8 SHL NOT AND SWAP1 SSTORE JUMP JUMPDEST PUSH0 PUSH1 0x60 PUSH0 PUSH1 0xA SLOAD PUSH1 0xD SLOAD TIMESTAMP PUSH2 0xE86 SWAP2 SWAP1 PUSH2 0x255B JUMP JUMPDEST PUSH1 0x40 DUP1 MLOAD PUSH1 0x20 DUP2 ADD SWAP1 SWAP2 MSTORE PUSH0 DUP2 MSTORE SWAP2 LT SWAP7 SWAP1 SWAP6 POP SWAP4 POP POP POP POP JUMP JUMPDEST PUSH2 0xEA9 PUSH2 0x1B9D JUMP JUMPDEST PUSH2 0xEB2 PUSH0 PUSH2 0x1DAE JUMP JUMPDEST JUMP JUMPDEST PUSH0 DUP2 GT PUSH2 0xED7 JUMPI PUSH1 0x40 MLOAD PUSH4 0x2FF4783 PUSH1 0xE4 SHL DUP2 MSTORE PUSH1 0x4 DUP2 ADD DUP3 SWAP1 MSTORE PUSH1 0x24 ADD PUSH2 0x8BA JUMP JUMPDEST CALLER PUSH0 SWAP1 DUP2 MSTORE PUSH1 0x13 PUSH1 0x20 MSTORE PUSH1 0x40 SWAP1 KECCAK256 SLOAD PUSH1 0xFF AND ISZERO PUSH2 0xF1F JUMPI CALLER PUSH0 SWAP1 DUP2 MSTORE PUSH1 0x13 PUSH1 0x20 MSTORE PUSH1 0x40 SWAP1 DUP2 SWAP1 KECCAK256 SLOAD SWAP1 MLOAD PUSH4 0x1BE970F PUSH1 0xE6 SHL DUP2 MSTORE PUSH1 0xFF SWAP1 SWAP2 AND ISZERO ISZERO PUSH1 0x4 DUP3 ADD MSTORE PUSH1 0x24 ADD PUSH2 0x8BA JUMP JUMPDEST CALLER PUSH0 SWAP1 DUP2 MSTORE PUSH1 0x13 PUSH1 0x20 MSTORE PUSH1 0x40 DUP2 KECCAK256 PUSH1 0x5 ADD DUP1 SLOAD DUP4 SWAP3 SWAP1 PUSH2 0xF40 SWAP1 DUP5 SWAP1 PUSH2 0x25CB JUMP JUMPDEST SWAP1 SWAP2 SSTORE POP POP CALLER PUSH0 SWAP1 DUP2 MSTORE PUSH1 0x10 PUSH1 0x20 MSTORE PUSH1 0x40 SWAP1 KECCAK256 SLOAD PUSH1 0xFF AND PUSH2 0xFA9 JUMPI PUSH1 0x8 DUP1 SLOAD PUSH0 SWAP1 DUP2 MSTORE PUSH1 0x11 PUSH1 0x20 SWAP1 DUP2 MSTORE PUSH1 0x40 DUP1 DUP4 KECCAK256 DUP1 SLOAD PUSH1 0x1 PUSH1 0x1 PUSH1 0xA0 SHL SUB NOT AND CALLER SWAP1 DUP2 OR SWAP1 SWAP2 SSTORE DUP4 MSTORE PUSH1 0x10 SWAP1 SWAP2 MSTORE DUP2 KECCAK256 DUP1 SLOAD PUSH1 0xFF NOT AND PUSH1 0x1 OR SWAP1 SSTORE DUP2 SLOAD SWAP2 SWAP1 PUSH2 0xFA3 DUP4 PUSH2 0x2543 JUMP JUMPDEST SWAP2 SWAP1 POP SSTORE POP JUMPDEST DUP1 PUSH1 0x3 PUSH0 DUP3 DUP3 SLOAD PUSH2 0xFBA SWAP2 SWAP1 PUSH2 0x25CB JUMP JUMPDEST SWAP1 SWAP2 SSTORE POP POP PUSH0 DUP1 SLOAD PUSH1 0x9 SLOAD PUSH1 0x40 MLOAD PUSH4 0x23B872DD PUSH1 0xE0 SHL DUP2 MSTORE PUSH1 0x1 PUSH1 0x1 PUSH1 0xA0 SHL SUB SWAP3 DUP4 AND SWAP3 PUSH4 0x23B872DD SWAP3 PUSH2 0xFF8 SWAP3 CALLER SWAP3 SWAP1 SWAP2 AND SWAP1 DUP8 SWAP1 PUSH1 0x4 ADD PUSH2 0x25DE JUMP JUMPDEST PUSH1 0x20 PUSH1 0x40 MLOAD DUP1 DUP4 SUB DUP2 PUSH0 DUP8 GAS CALL ISZERO DUP1 ISZERO PUSH2 0x1014 JUMPI RETURNDATASIZE PUSH0 DUP1 RETURNDATACOPY RETURNDATASIZE PUSH0 REVERT JUMPDEST POP POP POP POP PUSH1 0x40 MLOAD RETURNDATASIZE PUSH1 0x1F NOT PUSH1 0x1F DUP3 ADD AND DUP3 ADD DUP1 PUSH1 0x40 MSTORE POP DUP2 ADD SWAP1 PUSH2 0x1038 SWAP2 SWAP1 PUSH2 0x2602 JUMP JUMPDEST SWAP1 POP DUP1 PUSH2 0x105C JUMPI PUSH1 0x40 MLOAD PUSH4 0xD85D3CEF PUSH1 0xE0 SHL DUP2 MSTORE DUP2 ISZERO ISZERO PUSH1 0x4 DUP3 ADD MSTORE PUSH1 0x24 ADD PUSH2 0x8BA JUMP JUMPDEST PUSH1 0x9 SLOAD PUSH1 0x40 MLOAD PUSH32 0x14EE34C24635186D212F515353DADAE9C226529EDEF2D1FCF5504CB33B5C25AB SWAP2 PUSH2 0xB3B SWAP2 CALLER SWAP2 PUSH1 0x1 PUSH1 0x1 PUSH1 0xA0 SHL SUB AND SWAP1 DUP7 SWAP1 PUSH2 0x25DE JUMP JUMPDEST PUSH2 0x10A3 PUSH2 0x1B9D JUMP JUMPDEST PUSH0 DUP2 GT PUSH2 0x10C6 JUMPI PUSH1 0x40 MLOAD PUSH4 0x2FF4783 PUSH1 0xE4 SHL DUP2 MSTORE PUSH1 0x4 DUP2 ADD DUP3 SWAP1 MSTORE PUSH1 0x24 ADD PUSH2 0x8BA JUMP JUMPDEST DUP1 PUSH1 0x2 PUSH0 DUP3 DUP3 SLOAD PUSH2 0x10D7 SWAP2 SWAP1 PUSH2 0x25CB JUMP JUMPDEST SWAP1 SWAP2 SSTORE POP POP PUSH0 DUP1 SLOAD PUSH1 0x40 MLOAD PUSH4 0x23B872DD PUSH1 0xE0 SHL DUP2 MSTORE PUSH1 0x1 PUSH1 0x1 PUSH1 0xA0 SHL SUB SWAP1 SWAP2 AND SWAP1 PUSH4 0x23B872DD SWAP1 PUSH2 0x1110 SWAP1 CALLER SWAP1 ADDRESS SWAP1 DUP8 SWAP1 PUSH1 0x4 ADD PUSH2 0x25DE JUMP JUMPDEST PUSH1 0x20 PUSH1 0x40 MLOAD DUP1 DUP4 SUB DUP2 PUSH0 DUP8 GAS CALL ISZERO DUP1 ISZERO PUSH2 0x112C JUMPI RETURNDATASIZE PUSH0 DUP1 RETURNDATACOPY RETURNDATASIZE PUSH0 REVERT JUMPDEST POP POP POP POP PUSH1 0x40 MLOAD RETURNDATASIZE PUSH1 0x1F NOT PUSH1 0x1F DUP3 ADD AND DUP3 ADD DUP1 PUSH1 0x40 MSTORE POP DUP2 ADD SWAP1 PUSH2 0x1150 SWAP2 SWAP1 PUSH2 0x2602 JUMP JUMPDEST SWAP1 POP DUP1 PUSH2 0x1174 JUMPI PUSH1 0x40 MLOAD PUSH4 0xD85D3CEF PUSH1 0xE0 SHL DUP2 MSTORE DUP2 ISZERO ISZERO PUSH1 0x4 DUP3 ADD MSTORE PUSH1 0x24 ADD PUSH2 0x8BA JUMP JUMPDEST PUSH32 0x73834E1D1EE73BA659470A3603B888903853D3A3C9FDA34E71C093A0E35CAB94 PUSH1 0x2 SLOAD PUSH1 0x40 MLOAD PUSH2 0xB3B SWAP2 DUP2 MSTORE PUSH1 0x20 ADD SWAP1 JUMP JUMPDEST PUSH2 0x11AF PUSH2 0x1B9D JUMP JUMPDEST PUSH0 DUP2 GT PUSH2 0x11D2 JUMPI PUSH1 0x40 MLOAD PUSH4 0xCDBC6335 PUSH1 0xE0 SHL DUP2 MSTORE PUSH1 0x4 DUP2 ADD DUP3 SWAP1 MSTORE PUSH1 0x24 ADD PUSH2 0x8BA JUMP JUMPDEST PUSH1 0x7 DUP2 SWAP1 SSTORE PUSH1 0x40 DUP1 MLOAD CALLER DUP2 MSTORE PUSH1 0x20 DUP2 ADD DUP4 SWAP1 MSTORE PUSH0 DUP1 MLOAD PUSH1 0x20 PUSH2 0x26E2 DUP4 CODECOPY DUP2 MLOAD SWAP2 MSTORE SWAP2 ADD PUSH2 0x932 JUMP JUMPDEST PUSH2 0x1202 PUSH2 0x1B9D JUMP JUMPDEST PUSH0 DUP2 GT PUSH2 0x1225 JUMPI PUSH1 0x40 MLOAD PUSH4 0xCDBC6335 PUSH1 0xE0 SHL DUP2 MSTORE PUSH1 0x4 DUP2 ADD DUP3 SWAP1 MSTORE PUSH1 0x24 ADD PUSH2 0x8BA JUMP JUMPDEST PUSH1 0x4 DUP2 SWAP1 SSTORE PUSH1 0x40 DUP1 MLOAD CALLER DUP2 MSTORE PUSH1 0x20 DUP2 ADD DUP4 SWAP1 MSTORE PUSH0 DUP1 MLOAD PUSH1 0x20 PUSH2 0x26E2 DUP4 CODECOPY DUP2 MLOAD SWAP2 MSTORE SWAP2 ADD PUSH2 0x932 JUMP JUMPDEST PUSH0 DUP2 GT PUSH2 0x1270 JUMPI PUSH1 0x40 MLOAD PUSH4 0x2FF4783 PUSH1 0xE4 SHL DUP2 MSTORE PUSH1 0x4 DUP2 ADD DUP3 SWAP1 MSTORE PUSH1 0x24 ADD PUSH2 0x8BA JUMP JUMPDEST CALLER PUSH0 SWAP1 DUP2 MSTORE PUSH1 0x13 PUSH1 0x20 MSTORE PUSH1 0x40 SWAP1 KECCAK256 SLOAD PUSH1 0xFF AND ISZERO PUSH2 0x12B8 JUMPI CALLER PUSH0 SWAP1 DUP2 MSTORE PUSH1 0x13 PUSH1 0x20 MSTORE PUSH1 0x40 SWAP1 DUP2 SWAP1 KECCAK256 SLOAD SWAP1 MLOAD PUSH4 0x1BE970F PUSH1 0xE6 SHL DUP2 MSTORE PUSH1 0xFF SWAP1 SWAP2 AND ISZERO ISZERO PUSH1 0x4 DUP3 ADD MSTORE PUSH1 0x24 ADD PUSH2 0x8BA JUMP JUMPDEST CALLER PUSH0 SWAP1 DUP2 MSTORE PUSH1 0x13 PUSH1 0x20 MSTORE PUSH1 0x40 SWAP1 KECCAK256 PUSH1 0x1 ADD SLOAD DUP2 LT PUSH2 0x12EC JUMPI PUSH1 0x40 MLOAD PUSH4 0x636DC6B PUSH1 0xE3 SHL DUP2 MSTORE PUSH1 0x4 DUP2 ADD DUP3 SWAP1 MSTORE PUSH1 0x24 ADD PUSH2 0x8BA JUMP JUMPDEST CALLER PUSH0 SWAP1 DUP2 MSTORE PUSH1 0x13 PUSH1 0x20 MSTORE PUSH1 0x40 DUP2 KECCAK256 PUSH1 0x1 ADD DUP1 SLOAD DUP4 SWAP3 SWAP1 PUSH2 0x130D SWAP1 DUP5 SWAP1 PUSH2 0x255B JUMP JUMPDEST SWAP1 SWAP2 SSTORE POP POP CALLER PUSH0 SWAP1 DUP2 MSTORE PUSH1 0x13 PUSH1 0x20 MSTORE PUSH1 0x40 DUP2 KECCAK256 PUSH1 0x5 ADD DUP1 SLOAD DUP4 SWAP3 SWAP1 PUSH2 0x1333 SWAP1 DUP5 SWAP1 PUSH2 0x25CB JUMP JUMPDEST SWAP3 POP POP DUP2 SWAP1 SSTORE POP DUP1 PUSH1 0x2 PUSH0 DUP3 DUP3 SLOAD PUSH2 0x134B SWAP2 SWAP1 PUSH2 0x25CB JUMP JUMPDEST SWAP3 POP POP DUP2 SWAP1 SSTORE POP DUP1 PUSH1 0x3 PUSH0 DUP3 DUP3 SLOAD PUSH2 0x1363 SWAP2 SWAP1 PUSH2 0x25CB JUMP JUMPDEST SWAP1 SWAP2 SSTORE POP POP PUSH1 0x40 MLOAD PUSH32 0x14EE34C24635186D212F515353DADAE9C226529EDEF2D1FCF5504CB33B5C25AB SWAP1 PUSH2 0x932 SWAP1 CALLER SWAP1 ADDRESS SWAP1 DUP6 SWAP1 PUSH2 0x25DE JUMP JUMPDEST PUSH0 DUP3 GT PUSH2 0x13BF JUMPI PUSH1 0x40 MLOAD PUSH4 0x2FF4783 PUSH1 0xE4 SHL DUP2 MSTORE PUSH1 0x4 DUP2 ADD DUP4 SWAP1 MSTORE PUSH1 0x24 ADD PUSH2 0x8BA JUMP JUMPDEST PUSH1 0xF SLOAD DUP2 GT ISZERO PUSH2 0x13E5 JUMPI PUSH1 0x40 MLOAD PUSH4 0x222A50F3 PUSH1 0xE0 SHL DUP2 MSTORE PUSH1 0x4 DUP2 ADD DUP3 SWAP1 MSTORE PUSH1 0x24 ADD PUSH2 0x8BA JUMP JUMPDEST PUSH0 DUP2 DUP2 MSTORE PUSH1 0x12 PUSH1 0x20 MSTORE PUSH1 0x40 SWAP1 KECCAK256 SLOAD PUSH2 0x13FE SWAP1 DUP4 SWAP1 PUSH2 0x1E1E JUMP JUMPDEST PUSH0 DUP1 SLOAD PUSH1 0x40 MLOAD PUSH4 0x23B872DD PUSH1 0xE0 SHL DUP2 MSTORE PUSH1 0x1 PUSH1 0x1 PUSH1 0xA0 SHL SUB SWAP1 SWAP2 AND SWAP1 PUSH4 0x23B872DD SWAP1 PUSH2 0x1432 SWAP1 CALLER SWAP1 ADDRESS SWAP1 DUP9 SWAP1 PUSH1 0x4 ADD PUSH2 0x25DE JUMP JUMPDEST PUSH1 0x20 PUSH1 0x40 MLOAD DUP1 DUP4 SUB DUP2 PUSH0 DUP8 GAS CALL ISZERO DUP1 ISZERO PUSH2 0x144E JUMPI RETURNDATASIZE PUSH0 DUP1 RETURNDATACOPY RETURNDATASIZE PUSH0 REVERT JUMPDEST POP POP POP POP PUSH1 0x40 MLOAD RETURNDATASIZE PUSH1 0x1F NOT PUSH1 0x1F DUP3 ADD AND DUP3 ADD DUP1 PUSH1 0x40 MSTORE POP DUP2 ADD SWAP1 PUSH2 0x1472 SWAP2 SWAP1 PUSH2 0x2602 JUMP JUMPDEST SWAP1 POP DUP1 PUSH2 0x1496 JUMPI PUSH1 0x40 MLOAD PUSH4 0xD85D3CEF PUSH1 0xE0 SHL DUP2 MSTORE DUP2 ISZERO ISZERO PUSH1 0x4 DUP3 ADD MSTORE PUSH1 0x24 ADD PUSH2 0x8BA JUMP JUMPDEST PUSH1 0x40 DUP1 MLOAD DUP5 DUP2 MSTORE PUSH1 0x20 DUP2 ADD DUP5 SWAP1 MSTORE PUSH32 0xA89B69C5958EC1CCF0DF0DE746A8708F5B6A6B429430129F16F46F44B319C900 SWAP2 ADD PUSH1 0x40 MLOAD DUP1 SWAP2 SUB SWAP1 LOG1 POP POP POP JUMP JUMPDEST PUSH2 0x14DC PUSH2 0x1B9D JUMP JUMPDEST PUSH0 DUP2 GT PUSH2 0x14FF JUMPI PUSH1 0x40 MLOAD PUSH4 0xCDBC6335 PUSH1 0xE0 SHL DUP2 MSTORE PUSH1 0x4 DUP2 ADD DUP3 SWAP1 MSTORE PUSH1 0x24 ADD PUSH2 0x8BA JUMP JUMPDEST PUSH1 0x6 DUP2 SWAP1 SSTORE PUSH1 0x40 DUP1 MLOAD CALLER DUP2 MSTORE PUSH1 0x20 DUP2 ADD DUP4 SWAP1 MSTORE PUSH0 DUP1 MLOAD PUSH1 0x20 PUSH2 0x26E2 DUP4 CODECOPY DUP2 MLOAD SWAP2 MSTORE SWAP2 ADD PUSH2 0x932 JUMP JUMPDEST PUSH2 0x152F PUSH2 0x1B9D JUMP JUMPDEST PUSH0 DUP2 GT PUSH2 0x1552 JUMPI PUSH1 0x40 MLOAD PUSH4 0xCDBC6335 PUSH1 0xE0 SHL DUP2 MSTORE PUSH1 0x4 DUP2 ADD DUP3 SWAP1 MSTORE PUSH1 0x24 ADD PUSH2 0x8BA JUMP JUMPDEST PUSH1 0x5 DUP2 SWAP1 SSTORE PUSH1 0x40 DUP1 MLOAD CALLER DUP2 MSTORE PUSH1 0x20 DUP2 ADD DUP4 SWAP1 MSTORE PUSH0 DUP1 MLOAD PUSH1 0x20 PUSH2 0x26E2 DUP4 CODECOPY DUP2 MLOAD SWAP2 MSTORE SWAP2 ADD PUSH2 0x932 JUMP JUMPDEST PUSH32 0xF0C57E16840DF040F15088DC2F81FE391C3923BEC73E23A9662EFC9C229C6A00 DUP1 SLOAD PUSH1 0x1 PUSH1 0x40 SHL DUP2 DIV PUSH1 0xFF AND ISZERO SWAP1 PUSH8 0xFFFFFFFFFFFFFFFF AND PUSH0 DUP2 ISZERO DUP1 ISZERO PUSH2 0x15BF JUMPI POP DUP3 JUMPDEST SWAP1 POP PUSH0 DUP3 PUSH8 0xFFFFFFFFFFFFFFFF AND PUSH1 0x1 EQ DUP1 ISZERO PUSH2 0x15DB JUMPI POP ADDRESS EXTCODESIZE ISZERO JUMPDEST SWAP1 POP DUP2 ISZERO DUP1 ISZERO PUSH2 0x15E9 JUMPI POP DUP1 ISZERO JUMPDEST ISZERO PUSH2 0x1607 JUMPI PUSH1 0x40 MLOAD PUSH4 0xF92EE8A9 PUSH1 0xE0 SHL DUP2 MSTORE PUSH1 0x4 ADD PUSH1 0x40 MLOAD DUP1 SWAP2 SUB SWAP1 REVERT JUMPDEST DUP5 SLOAD PUSH8 0xFFFFFFFFFFFFFFFF NOT AND PUSH1 0x1 OR DUP6 SSTORE DUP4 ISZERO PUSH2 0x1631 JUMPI DUP5 SLOAD PUSH1 0xFF PUSH1 0x40 SHL NOT AND PUSH1 0x1 PUSH1 0x40 SHL OR DUP6 SSTORE JUMPDEST PUSH2 0x163A DUP9 PUSH2 0x1E7C JUMP JUMPDEST PUSH2 0x1642 PUSH2 0x1E8D JUMP JUMPDEST PUSH0 DUP1 SLOAD PUSH1 0x1 PUSH1 0x1 PUSH1 0xA0 SHL SUB DUP1 DUP11 AND PUSH1 0x1 PUSH1 0x1 PUSH1 0xA0 SHL SUB NOT SWAP3 DUP4 AND OR SWAP1 SWAP3 SSTORE PUSH2 0x1388 PUSH1 0x4 SSTORE PUSH2 0x1D4C PUSH1 0x5 SSTORE PUSH2 0x5DC PUSH1 0x6 SSTORE PUSH2 0x3E8 PUSH1 0x7 SSTORE PUSH1 0x9 DUP1 SLOAD SWAP3 DUP10 AND SWAP3 SWAP1 SWAP2 AND SWAP2 SWAP1 SWAP2 OR SWAP1 SSTORE DUP4 ISZERO PUSH2 0x16CF JUMPI DUP5 SLOAD PUSH1 0xFF PUSH1 0x40 SHL NOT AND DUP6 SSTORE PUSH1 0x40 MLOAD PUSH1 0x1 DUP2 MSTORE PUSH32 0xC7F505B2F371AE2175EE4913F4499E1F2633A7B5936321EED1CDAEB6115181D2 SWAP1 PUSH1 0x20 ADD PUSH1 0x40 MLOAD DUP1 SWAP2 SUB SWAP1 LOG1 JUMPDEST POP POP POP POP POP POP POP POP JUMP JUMPDEST PUSH2 0x16E1 PUSH2 0x1B9D JUMP JUMPDEST PUSH1 0x1 PUSH1 0x1 PUSH1 0xA0 SHL SUB DUP2 AND PUSH2 0x1713 JUMPI PUSH1 0x40 MLOAD PUSH4 0xE4CFA94D PUSH1 0xE0 SHL DUP2 MSTORE PUSH1 0x1 PUSH1 0x1 PUSH1 0xA0 SHL SUB DUP3 AND PUSH1 0x4 DUP3 ADD MSTORE PUSH1 0x24 ADD PUSH2 0x8BA JUMP JUMPDEST PUSH1 0xE DUP1 SLOAD PUSH1 0x1 PUSH1 0x1 PUSH1 0xA0 SHL SUB NOT AND PUSH1 0x1 PUSH1 0x1 PUSH1 0xA0 SHL SUB DUP4 AND SWAP1 DUP2 OR SWAP1 SWAP2 SSTORE PUSH1 0x40 DUP1 MLOAD CALLER DUP2 MSTORE PUSH1 0x20 DUP2 ADD SWAP3 SWAP1 SWAP3 MSTORE PUSH32 0x75F91F3CECB8C46F20150F60F77A6E1F0DE00776627692DB82EF1960AF84C33A SWAP2 ADD PUSH2 0x932 JUMP JUMPDEST PUSH2 0x1770 PUSH2 0x1B9D JUMP JUMPDEST PUSH1 0x1 PUSH1 0x1 PUSH1 0xA0 SHL SUB DUP3 AND PUSH2 0x17A2 JUMPI PUSH1 0x40 MLOAD PUSH4 0xE4CFA94D PUSH1 0xE0 SHL DUP2 MSTORE PUSH1 0x1 PUSH1 0x1 PUSH1 0xA0 SHL SUB DUP4 AND PUSH1 0x4 DUP3 ADD MSTORE PUSH1 0x24 ADD PUSH2 0x8BA JUMP JUMPDEST PUSH1 0x1 DUP2 ISZERO ISZERO EQ DUP1 ISZERO SWAP1 PUSH2 0x17B4 JUMPI POP DUP1 ISZERO ISZERO JUMPDEST ISZERO PUSH2 0x17D6 JUMPI PUSH1 0x40 MLOAD PUSH4 0x81ED1AE3 PUSH1 0xE0 SHL DUP2 MSTORE DUP2 ISZERO ISZERO PUSH1 0x4 DUP3 ADD MSTORE PUSH1 0x24 ADD PUSH2 0x8BA JUMP JUMPDEST DUP1 ISZERO ISZERO PUSH1 0x1 SUB PUSH2 0x1807 JUMPI PUSH1 0x1 PUSH1 0x1 PUSH1 0xA0 SHL SUB DUP3 AND PUSH0 SWAP1 DUP2 MSTORE PUSH1 0x13 PUSH1 0x20 MSTORE PUSH1 0x40 SWAP1 KECCAK256 DUP1 SLOAD PUSH1 0xFF NOT AND PUSH1 0x1 OR SWAP1 SSTORE PUSH2 0x1827 JUMP JUMPDEST PUSH1 0x1 PUSH1 0x1 PUSH1 0xA0 SHL SUB DUP3 AND PUSH0 SWAP1 DUP2 MSTORE PUSH1 0x13 PUSH1 0x20 MSTORE PUSH1 0x40 SWAP1 KECCAK256 DUP1 SLOAD PUSH1 0xFF NOT AND SWAP1 SSTORE JUMPDEST PUSH1 0x1 PUSH1 0x1 PUSH1 0xA0 SHL SUB DUP3 AND PUSH0 DUP2 DUP2 MSTORE PUSH1 0x13 PUSH1 0x20 SWAP1 DUP2 MSTORE PUSH1 0x40 SWAP2 DUP3 SWAP1 KECCAK256 SLOAD DUP3 MLOAD CALLER DUP2 MSTORE SWAP2 DUP3 ADD SWAP4 SWAP1 SWAP4 MSTORE PUSH1 0xFF SWAP1 SWAP3 AND ISZERO ISZERO SWAP1 DUP3 ADD MSTORE PUSH32 0x7A1655BC3160D3413BF1D5235E55BE12E01B7E8BC2436A9BFF09C3B4FA2421F1 SWAP1 PUSH1 0x60 ADD PUSH2 0xB3B JUMP JUMPDEST PUSH1 0xE SLOAD PUSH1 0x1 PUSH1 0x1 PUSH1 0xA0 SHL SUB AND CALLER EQ PUSH2 0x18AE JUMPI PUSH1 0x40 MLOAD PUSH3 0x461BCD PUSH1 0xE5 SHL DUP2 MSTORE PUSH1 0x4 ADD PUSH2 0x8BA SWAP1 PUSH2 0x256E JUMP JUMPDEST PUSH0 DUP1 PUSH0 PUSH2 0x18B9 PUSH2 0x1E95 JUMP JUMPDEST SWAP3 POP SWAP3 POP SWAP3 POP PUSH0 PUSH1 0x2 SLOAD GT DUP1 ISZERO PUSH2 0x18D1 JUMPI POP PUSH0 PUSH1 0x1 SLOAD GT JUMPDEST PUSH2 0x1911 JUMPI PUSH1 0x40 MLOAD PUSH3 0x461BCD PUSH1 0xE5 SHL DUP2 MSTORE PUSH1 0x20 PUSH1 0x4 DUP3 ADD MSTORE PUSH1 0x11 PUSH1 0x24 DUP3 ADD MSTORE PUSH17 0x1B9BDD08195B9BDD59DA08185B5BDD5B9D PUSH1 0x7A SHL PUSH1 0x44 DUP3 ADD MSTORE PUSH1 0x64 ADD PUSH2 0x8BA JUMP JUMPDEST PUSH0 DUP1 JUMPDEST PUSH1 0x8 SLOAD DUP2 LT ISZERO PUSH2 0x1AB5 JUMPI PUSH0 DUP2 DUP2 MSTORE PUSH1 0x11 PUSH1 0x20 SWAP1 DUP2 MSTORE PUSH1 0x40 DUP1 DUP4 KECCAK256 SLOAD PUSH1 0x1 PUSH1 0x1 PUSH1 0xA0 SHL SUB AND DUP4 MSTORE PUSH1 0x13 SWAP1 SWAP2 MSTORE SWAP1 KECCAK256 SLOAD PUSH1 0xFF AND PUSH2 0x1AAD JUMPI PUSH1 0x3 SLOAD PUSH0 DUP3 DUP2 MSTORE PUSH1 0x11 PUSH1 0x20 SWAP1 DUP2 MSTORE PUSH1 0x40 DUP1 DUP4 KECCAK256 SLOAD PUSH1 0x1 PUSH1 0x1 PUSH1 0xA0 SHL SUB AND DUP4 MSTORE PUSH1 0x13 SWAP1 SWAP2 MSTORE DUP2 KECCAK256 PUSH1 0x5 ADD SLOAD SWAP1 SWAP2 SWAP1 PUSH2 0x1982 SWAP1 PUSH2 0x2710 PUSH2 0x261D JUMP JUMPDEST PUSH2 0x198C SWAP2 SWAP1 PUSH2 0x2634 JUMP JUMPDEST SWAP1 POP PUSH0 PUSH2 0x1999 DUP7 DUP4 PUSH2 0x2017 JUMP JUMPDEST SWAP1 POP DUP1 PUSH1 0x2 PUSH0 DUP3 DUP3 SLOAD PUSH2 0x19AC SWAP2 SWAP1 PUSH2 0x255B JUMP JUMPDEST SWAP1 SWAP2 SSTORE POP PUSH2 0x19BC SWAP1 POP DUP2 DUP6 PUSH2 0x25CB JUMP JUMPDEST SWAP4 POP DUP5 PUSH1 0x1 PUSH0 DUP3 DUP3 SLOAD PUSH2 0x19CF SWAP2 SWAP1 PUSH2 0x255B JUMP JUMPDEST SWAP1 SWAP2 SSTORE POP POP PUSH0 DUP4 DUP2 MSTORE PUSH1 0x11 PUSH1 0x20 SWAP1 DUP2 MSTORE PUSH1 0x40 DUP1 DUP4 KECCAK256 DUP1 SLOAD PUSH1 0x1 PUSH1 0x1 PUSH1 0xA0 SHL SUB SWAP1 DUP2 AND DUP6 MSTORE PUSH1 0x13 SWAP1 SWAP4 MSTORE DUP2 DUP5 KECCAK256 PUSH1 0x3 ADD DUP10 SWAP1 SSTORE SLOAD SWAP1 SWAP2 AND DUP3 MSTORE DUP2 KECCAK256 PUSH1 0x4 ADD DUP3 SWAP1 SSTORE PUSH2 0x1A19 DUP7 DUP4 PUSH2 0x25CB JUMP JUMPDEST PUSH0 DUP6 DUP2 MSTORE PUSH1 0x11 PUSH1 0x20 SWAP1 DUP2 MSTORE PUSH1 0x40 DUP1 DUP4 KECCAK256 SLOAD PUSH1 0x1 PUSH1 0x1 PUSH1 0xA0 SHL SUB AND DUP4 MSTORE PUSH1 0x13 SWAP1 SWAP2 MSTORE DUP2 KECCAK256 PUSH1 0x1 ADD DUP1 SLOAD SWAP3 SWAP4 POP DUP4 SWAP3 SWAP1 SWAP2 SWAP1 PUSH2 0x1A54 SWAP1 DUP5 SWAP1 PUSH2 0x25CB JUMP JUMPDEST SWAP1 SWAP2 SSTORE POP POP DUP8 DUP6 GT ISZERO PUSH2 0x1AA9 JUMPI PUSH1 0x40 MLOAD PUSH3 0x461BCD PUSH1 0xE5 SHL DUP2 MSTORE PUSH1 0x20 PUSH1 0x4 DUP3 ADD MSTORE PUSH1 0x1A PUSH1 0x24 DUP3 ADD MSTORE PUSH32 0x416D6F756E742069732067726561746572207468656E20353025000000000000 PUSH1 0x44 DUP3 ADD MSTORE PUSH1 0x64 ADD PUSH2 0x8BA JUMP JUMPDEST POP POP POP JUMPDEST PUSH1 0x1 ADD PUSH2 0x1914 JUMP JUMPDEST POP PUSH1 0x2 SLOAD PUSH1 0x1 SLOAD PUSH1 0x40 DUP1 MLOAD CALLER DUP2 MSTORE PUSH1 0x20 DUP2 ADD SWAP4 SWAP1 SWAP4 MSTORE DUP3 ADD MSTORE PUSH32 0xEE826440768329B0C72F81331212EE31FCDAC1EA79A248D24821E40C34E58020 SWAP1 PUSH1 0x60 ADD PUSH1 0x40 MLOAD DUP1 SWAP2 SUB SWAP1 LOG1 POP POP POP POP JUMP JUMPDEST PUSH2 0x1B09 PUSH2 0x1B9D JUMP JUMPDEST PUSH0 DUP2 GT PUSH2 0x1B2C JUMPI PUSH1 0x40 MLOAD PUSH4 0xCDBC6335 PUSH1 0xE0 SHL DUP2 MSTORE PUSH1 0x4 DUP2 ADD DUP3 SWAP1 MSTORE PUSH1 0x24 ADD PUSH2 0x8BA JUMP JUMPDEST PUSH0 DUP3 DUP2 MSTORE PUSH1 0x12 PUSH1 0x20 SWAP1 DUP2 MSTORE PUSH1 0x40 SWAP2 DUP3 SWAP1 KECCAK256 DUP4 SWAP1 SSTORE DUP2 MLOAD CALLER DUP2 MSTORE SWAP1 DUP2 ADD DUP4 SWAP1 MSTORE PUSH0 DUP1 MLOAD PUSH1 0x20 PUSH2 0x26E2 DUP4 CODECOPY DUP2 MLOAD SWAP2 MSTORE SWAP2 ADD PUSH2 0xB3B JUMP JUMPDEST PUSH2 0x1B68 PUSH2 0x1B9D JUMP JUMPDEST PUSH1 0x1 PUSH1 0x1 PUSH1 0xA0 SHL SUB DUP2 AND PUSH2 0x1B91 JUMPI PUSH1 0x40 MLOAD PUSH4 0x1E4FBDF7 PUSH1 0xE0 SHL DUP2 MSTORE PUSH0 PUSH1 0x4 DUP3 ADD MSTORE PUSH1 0x24 ADD PUSH2 0x8BA JUMP JUMPDEST PUSH2 0x1B9A DUP2 PUSH2 0x1DAE JUMP JUMPDEST POP JUMP JUMPDEST CALLER PUSH2 0x1BCF PUSH32 0x9016D09D72D40FDAE2FD8CEAC6B6234C7706214FD39C1CD1E609A0528C199300 SLOAD PUSH1 0x1 PUSH1 0x1 PUSH1 0xA0 SHL SUB AND SWAP1 JUMP JUMPDEST PUSH1 0x1 PUSH1 0x1 PUSH1 0xA0 SHL SUB AND EQ PUSH2 0xEB2 JUMPI PUSH1 0x40 MLOAD PUSH4 0x118CDAA7 PUSH1 0xE0 SHL DUP2 MSTORE CALLER PUSH1 0x4 DUP3 ADD MSTORE PUSH1 0x24 ADD PUSH2 0x8BA JUMP JUMPDEST ADDRESS PUSH1 0x1 PUSH1 0x1 PUSH1 0xA0 SHL SUB PUSH32 0x0 AND EQ DUP1 PUSH2 0x1C7E JUMPI POP PUSH32 0x0 PUSH1 0x1 PUSH1 0x1 PUSH1 0xA0 SHL SUB AND PUSH2 0x1C72 PUSH0 DUP1 MLOAD PUSH1 0x20 PUSH2 0x26C2 DUP4 CODECOPY DUP2 MLOAD SWAP2 MSTORE SLOAD PUSH1 0x1 PUSH1 0x1 PUSH1 0xA0 SHL SUB AND SWAP1 JUMP JUMPDEST PUSH1 0x1 PUSH1 0x1 PUSH1 0xA0 SHL SUB AND EQ ISZERO JUMPDEST ISZERO PUSH2 0xEB2 JUMPI PUSH1 0x40 MLOAD PUSH4 0x703E46DD PUSH1 0xE1 SHL DUP2 MSTORE PUSH1 0x4 ADD PUSH1 0x40 MLOAD DUP1 SWAP2 SUB SWAP1 REVERT JUMPDEST PUSH2 0x1B9A PUSH2 0x1B9D JUMP JUMPDEST DUP2 PUSH1 0x1 PUSH1 0x1 PUSH1 0xA0 SHL SUB AND PUSH4 0x52D1902D PUSH1 0x40 MLOAD DUP2 PUSH4 0xFFFFFFFF AND PUSH1 0xE0 SHL DUP2 MSTORE PUSH1 0x4 ADD PUSH1 0x20 PUSH1 0x40 MLOAD DUP1 DUP4 SUB DUP2 DUP7 GAS STATICCALL SWAP3 POP POP POP DUP1 ISZERO PUSH2 0x1CFE JUMPI POP PUSH1 0x40 DUP1 MLOAD PUSH1 0x1F RETURNDATASIZE SWAP1 DUP2 ADD PUSH1 0x1F NOT AND DUP3 ADD SWAP1 SWAP3 MSTORE PUSH2 0x1CFB SWAP2 DUP2 ADD SWAP1 PUSH2 0x2653 JUMP JUMPDEST PUSH1 0x1 JUMPDEST PUSH2 0x1D26 JUMPI PUSH1 0x40 MLOAD PUSH4 0x4C9C8CE3 PUSH1 0xE0 SHL DUP2 MSTORE PUSH1 0x1 PUSH1 0x1 PUSH1 0xA0 SHL SUB DUP4 AND PUSH1 0x4 DUP3 ADD MSTORE PUSH1 0x24 ADD PUSH2 0x8BA JUMP JUMPDEST PUSH0 DUP1 MLOAD PUSH1 0x20 PUSH2 0x26C2 DUP4 CODECOPY DUP2 MLOAD SWAP2 MSTORE DUP2 EQ PUSH2 0x1D56 JUMPI PUSH1 0x40 MLOAD PUSH4 0x2A875269 PUSH1 0xE2 SHL DUP2 MSTORE PUSH1 0x4 DUP2 ADD DUP3 SWAP1 MSTORE PUSH1 0x24 ADD PUSH2 0x8BA JUMP JUMPDEST PUSH2 0x1D60 DUP4 DUP4 PUSH2 0x2078 JUMP JUMPDEST POP POP POP JUMP JUMPDEST ADDRESS PUSH1 0x1 PUSH1 0x1 PUSH1 0xA0 SHL SUB PUSH32 0x0 AND EQ PUSH2 0xEB2 JUMPI PUSH1 0x40 MLOAD PUSH4 0x703E46DD PUSH1 0xE1 SHL DUP2 MSTORE PUSH1 0x4 ADD PUSH1 0x40 MLOAD DUP1 SWAP2 SUB SWAP1 REVERT JUMPDEST PUSH32 0x9016D09D72D40FDAE2FD8CEAC6B6234C7706214FD39C1CD1E609A0528C199300 DUP1 SLOAD PUSH1 0x1 PUSH1 0x1 PUSH1 0xA0 SHL SUB NOT DUP2 AND PUSH1 0x1 PUSH1 0x1 PUSH1 0xA0 SHL SUB DUP5 DUP2 AND SWAP2 DUP3 OR DUP5 SSTORE PUSH1 0x40 MLOAD SWAP3 AND SWAP2 DUP3 SWAP1 PUSH32 0x8BE0079C531659141344CD1FD0A4F28419497F9722A3DAAFE3B4186F6B6457E0 SWAP1 PUSH0 SWAP1 LOG3 POP POP POP JUMP JUMPDEST PUSH0 PUSH2 0x1E2B DUP3 PUSH2 0x2710 PUSH2 0x255B JUMP JUMPDEST SWAP1 POP PUSH0 PUSH2 0x1E38 DUP5 DUP4 PUSH2 0x2017 JUMP JUMPDEST SWAP1 POP PUSH0 PUSH2 0x1E45 DUP6 DUP6 PUSH2 0x2017 JUMP JUMPDEST SWAP1 POP DUP2 PUSH1 0x2 PUSH0 DUP3 DUP3 SLOAD PUSH2 0x1E58 SWAP2 SWAP1 PUSH2 0x25CB JUMP JUMPDEST SWAP3 POP POP DUP2 SWAP1 SSTORE POP DUP1 PUSH1 0x1 PUSH0 DUP3 DUP3 SLOAD PUSH2 0x1E70 SWAP2 SWAP1 PUSH2 0x25CB JUMP JUMPDEST SWAP1 SWAP2 SSTORE POP POP POP POP POP POP POP JUMP JUMPDEST PUSH2 0x1E84 PUSH2 0x20CD JUMP JUMPDEST PUSH2 0x1B9A DUP2 PUSH2 0x2116 JUMP JUMPDEST PUSH2 0xEB2 PUSH2 0x20CD JUMP JUMPDEST PUSH0 DUP1 PUSH0 DUP1 PUSH2 0x1EA7 PUSH1 0x2 SLOAD PUSH2 0x1388 PUSH2 0x2017 JUMP JUMPDEST SWAP1 POP PUSH0 PUSH2 0x1EB6 DUP3 PUSH1 0x5 SLOAD PUSH2 0x2017 JUMP JUMPDEST SWAP1 POP PUSH0 PUSH2 0x1EC5 DUP4 PUSH1 0x6 SLOAD PUSH2 0x2017 JUMP JUMPDEST SWAP1 POP PUSH0 PUSH2 0x1ED4 DUP5 PUSH1 0x7 SLOAD PUSH2 0x2017 JUMP JUMPDEST SWAP1 POP PUSH0 PUSH2 0x1EE5 PUSH1 0x1 SLOAD PUSH1 0x4 SLOAD PUSH2 0x2017 JUMP JUMPDEST SWAP1 POP PUSH0 PUSH1 0x8 SLOAD GT PUSH2 0x1F24 JUMPI PUSH1 0x40 MLOAD PUSH3 0x461BCD PUSH1 0xE5 SHL DUP2 MSTORE PUSH1 0x20 PUSH1 0x4 DUP3 ADD MSTORE PUSH1 0x9 PUSH1 0x24 DUP3 ADD MSTORE PUSH9 0x6E6F20757365727321 PUSH1 0xB8 SHL PUSH1 0x44 DUP3 ADD MSTORE PUSH1 0x64 ADD PUSH2 0x8BA JUMP JUMPDEST PUSH0 PUSH1 0x8 SLOAD DUP3 PUSH2 0x1F33 SWAP2 SWAP1 PUSH2 0x2634 JUMP JUMPDEST SWAP1 POP PUSH2 0x1F3F DUP4 DUP6 PUSH2 0x25CB JUMP JUMPDEST PUSH1 0x2 PUSH0 DUP3 DUP3 SLOAD PUSH2 0x1F4F SWAP2 SWAP1 PUSH2 0x255B JUMP JUMPDEST SWAP3 POP POP DUP2 SWAP1 SSTORE POP DUP4 PUSH1 0x1 PUSH0 DUP3 DUP3 SLOAD PUSH2 0x1F67 SWAP2 SWAP1 PUSH2 0x25CB JUMP JUMPDEST SWAP1 SWAP2 SSTORE POP POP PUSH0 DUP1 SLOAD PUSH1 0x9 SLOAD PUSH1 0x40 MLOAD PUSH4 0xA9059CBB PUSH1 0xE0 SHL DUP2 MSTORE PUSH1 0x1 PUSH1 0x1 PUSH1 0xA0 SHL SUB SWAP2 DUP3 AND PUSH1 0x4 DUP3 ADD MSTORE PUSH1 0x24 DUP2 ADD DUP8 SWAP1 MSTORE SWAP2 AND SWAP1 PUSH4 0xA9059CBB SWAP1 PUSH1 0x44 ADD PUSH1 0x20 PUSH1 0x40 MLOAD DUP1 DUP4 SUB DUP2 PUSH0 DUP8 GAS CALL ISZERO DUP1 ISZERO PUSH2 0x1FBE JUMPI RETURNDATASIZE PUSH0 DUP1 RETURNDATACOPY RETURNDATASIZE PUSH0 REVERT JUMPDEST POP POP POP POP PUSH1 0x40 MLOAD RETURNDATASIZE PUSH1 0x1F NOT PUSH1 0x1F DUP3 ADD AND DUP3 ADD DUP1 PUSH1 0x40 MSTORE POP DUP2 ADD SWAP1 PUSH2 0x1FE2 SWAP2 SWAP1 PUSH2 0x2602 JUMP JUMPDEST SWAP1 POP DUP1 PUSH2 0x2006 JUMPI PUSH1 0x40 MLOAD PUSH4 0xD85D3CEF PUSH1 0xE0 SHL DUP2 MSTORE DUP2 ISZERO ISZERO PUSH1 0x4 DUP3 ADD MSTORE PUSH1 0x24 ADD PUSH2 0x8BA JUMP JUMPDEST POP SWAP5 SWAP9 SWAP4 SWAP8 POP SWAP4 SWAP6 POP SWAP2 SWAP4 POP POP POP POP JUMP JUMPDEST PUSH0 DUP3 PUSH0 SUB PUSH2 0x2037 JUMPI PUSH1 0x40 MLOAD PUSH3 0x461BCD PUSH1 0xE5 SHL DUP2 MSTORE PUSH1 0x4 ADD PUSH2 0x8BA SWAP1 PUSH2 0x266A JUMP JUMPDEST DUP2 PUSH0 SUB PUSH2 0x2056 JUMPI PUSH1 0x40 MLOAD PUSH3 0x461BCD PUSH1 0xE5 SHL DUP2 MSTORE PUSH1 0x4 ADD PUSH2 0x8BA SWAP1 PUSH2 0x266A JUMP JUMPDEST PUSH0 PUSH2 0x2710 PUSH2 0x2064 DUP5 DUP7 PUSH2 0x261D JUMP JUMPDEST PUSH2 0x206E SWAP2 SWAP1 PUSH2 0x2634 JUMP JUMPDEST SWAP2 POP POP JUMPDEST SWAP3 SWAP2 POP POP JUMP JUMPDEST PUSH2 0x2081 DUP3 PUSH2 0x211E JUMP JUMPDEST PUSH1 0x40 MLOAD PUSH1 0x1 PUSH1 0x1 PUSH1 0xA0 SHL SUB DUP4 AND SWAP1 PUSH32 0xBC7CD75A20EE27FD9ADEBAB32041F755214DBC6BFFA90CC0225B39DA2E5C2D3B SWAP1 PUSH0 SWAP1 LOG2 DUP1 MLOAD ISZERO PUSH2 0x20C5 JUMPI PUSH2 0x1D60 DUP3 DUP3 PUSH2 0x2181 JUMP JUMPDEST PUSH2 0xA10 PUSH2 0x21F3 JUMP JUMPDEST PUSH32 0xF0C57E16840DF040F15088DC2F81FE391C3923BEC73E23A9662EFC9C229C6A00 SLOAD PUSH1 0x1 PUSH1 0x40 SHL SWAP1 DIV PUSH1 0xFF AND PUSH2 0xEB2 JUMPI PUSH1 0x40 MLOAD PUSH4 0x1AFCD79F PUSH1 0xE3 SHL DUP2 MSTORE PUSH1 0x4 ADD PUSH1 0x40 MLOAD DUP1 SWAP2 SUB SWAP1 REVERT JUMPDEST PUSH2 0x1B68 PUSH2 0x20CD JUMP JUMPDEST DUP1 PUSH1 0x1 PUSH1 0x1 PUSH1 0xA0 SHL SUB AND EXTCODESIZE PUSH0 SUB PUSH2 0x2153 JUMPI PUSH1 0x40 MLOAD PUSH4 0x4C9C8CE3 PUSH1 0xE0 SHL DUP2 MSTORE PUSH1 0x1 PUSH1 0x1 PUSH1 0xA0 SHL SUB DUP3 AND PUSH1 0x4 DUP3 ADD MSTORE PUSH1 0x24 ADD PUSH2 0x8BA JUMP JUMPDEST PUSH0 DUP1 MLOAD PUSH1 0x20 PUSH2 0x26C2 DUP4 CODECOPY DUP2 MLOAD SWAP2 MSTORE DUP1 SLOAD PUSH1 0x1 PUSH1 0x1 PUSH1 0xA0 SHL SUB NOT AND PUSH1 0x1 PUSH1 0x1 PUSH1 0xA0 SHL SUB SWAP3 SWAP1 SWAP3 AND SWAP2 SWAP1 SWAP2 OR SWAP1 SSTORE JUMP JUMPDEST PUSH1 0x60 PUSH0 DUP1 DUP5 PUSH1 0x1 PUSH1 0x1 PUSH1 0xA0 SHL SUB AND DUP5 PUSH1 0x40 MLOAD PUSH2 0x219D SWAP2 SWAP1 PUSH2 0x26AB JUMP JUMPDEST PUSH0 PUSH1 0x40 MLOAD DUP1 DUP4 SUB DUP2 DUP6 GAS DELEGATECALL SWAP2 POP POP RETURNDATASIZE DUP1 PUSH0 DUP2 EQ PUSH2 0x21D5 JUMPI PUSH1 0x40 MLOAD SWAP2 POP PUSH1 0x1F NOT PUSH1 0x3F RETURNDATASIZE ADD AND DUP3 ADD PUSH1 0x40 MSTORE RETURNDATASIZE DUP3 MSTORE RETURNDATASIZE PUSH0 PUSH1 0x20 DUP5 ADD RETURNDATACOPY PUSH2 0x21DA JUMP JUMPDEST PUSH1 0x60 SWAP2 POP JUMPDEST POP SWAP2 POP SWAP2 POP PUSH2 0x21EA DUP6 DUP4 DUP4 PUSH2 0x2212 JUMP JUMPDEST SWAP6 SWAP5 POP POP POP POP POP JUMP JUMPDEST CALLVALUE ISZERO PUSH2 0xEB2 JUMPI PUSH1 0x40 MLOAD PUSH4 0xB398979F PUSH1 0xE0 SHL DUP2 MSTORE PUSH1 0x4 ADD PUSH1 0x40 MLOAD DUP1 SWAP2 SUB SWAP1 REVERT JUMPDEST PUSH1 0x60 DUP3 PUSH2 0x2227 JUMPI PUSH2 0x2222 DUP3 PUSH2 0x2271 JUMP JUMPDEST PUSH2 0x226A JUMP JUMPDEST DUP2 MLOAD ISZERO DUP1 ISZERO PUSH2 0x223E JUMPI POP PUSH1 0x1 PUSH1 0x1 PUSH1 0xA0 SHL SUB DUP5 AND EXTCODESIZE ISZERO JUMPDEST ISZERO PUSH2 0x2267 JUMPI PUSH1 0x40 MLOAD PUSH4 0x9996B315 PUSH1 0xE0 SHL DUP2 MSTORE PUSH1 0x1 PUSH1 0x1 PUSH1 0xA0 SHL SUB DUP6 AND PUSH1 0x4 DUP3 ADD MSTORE PUSH1 0x24 ADD PUSH2 0x8BA JUMP JUMPDEST POP DUP1 JUMPDEST SWAP4 SWAP3 POP POP POP JUMP JUMPDEST DUP1 MLOAD ISZERO PUSH2 0x2281 JUMPI DUP1 MLOAD DUP1 DUP3 PUSH1 0x20 ADD REVERT JUMPDEST PUSH1 0x40 MLOAD PUSH4 0xA12F521 PUSH1 0xE1 SHL DUP2 MSTORE PUSH1 0x4 ADD PUSH1 0x40 MLOAD DUP1 SWAP2 SUB SWAP1 REVERT JUMPDEST PUSH0 PUSH1 0x20 DUP3 DUP5 SUB SLT ISZERO PUSH2 0x22AA JUMPI PUSH0 DUP1 REVERT JUMPDEST POP CALLDATALOAD SWAP2 SWAP1 POP JUMP JUMPDEST PUSH0 DUP1 PUSH1 0x20 DUP4 DUP6 SUB SLT ISZERO PUSH2 0x22C2 JUMPI PUSH0 DUP1 REVERT JUMPDEST DUP3 CALLDATALOAD PUSH8 0xFFFFFFFFFFFFFFFF DUP2 GT ISZERO PUSH2 0x22D8 JUMPI PUSH0 DUP1 REVERT JUMPDEST DUP4 ADD PUSH1 0x1F DUP2 ADD DUP6 SGT PUSH2 0x22E8 JUMPI PUSH0 DUP1 REVERT JUMPDEST DUP1 CALLDATALOAD PUSH8 0xFFFFFFFFFFFFFFFF DUP2 GT ISZERO PUSH2 0x22FE JUMPI PUSH0 DUP1 REVERT JUMPDEST DUP6 PUSH1 0x20 DUP3 DUP5 ADD ADD GT ISZERO PUSH2 0x230F JUMPI PUSH0 DUP1 REVERT JUMPDEST PUSH1 0x20 SWAP2 SWAP1 SWAP2 ADD SWAP6 SWAP1 SWAP5 POP SWAP3 POP POP POP JUMP JUMPDEST DUP1 CALLDATALOAD PUSH1 0x1 PUSH1 0x1 PUSH1 0xA0 SHL SUB DUP2 AND DUP2 EQ PUSH2 0x2335 JUMPI PUSH0 DUP1 REVERT JUMPDEST SWAP2 SWAP1 POP JUMP JUMPDEST PUSH4 0x4E487B71 PUSH1 0xE0 SHL PUSH0 MSTORE PUSH1 0x41 PUSH1 0x4 MSTORE PUSH1 0x24 PUSH0 REVERT JUMPDEST PUSH0 DUP1 PUSH1 0x40 DUP4 DUP6 SUB SLT ISZERO PUSH2 0x235F JUMPI PUSH0 DUP1 REVERT JUMPDEST PUSH2 0x2368 DUP4 PUSH2 0x231F JUMP JUMPDEST SWAP2 POP PUSH1 0x20 DUP4 ADD CALLDATALOAD PUSH8 0xFFFFFFFFFFFFFFFF DUP2 GT ISZERO PUSH2 0x2383 JUMPI PUSH0 DUP1 REVERT JUMPDEST DUP4 ADD PUSH1 0x1F DUP2 ADD DUP6 SGT PUSH2 0x2393 JUMPI PUSH0 DUP1 REVERT JUMPDEST DUP1 CALLDATALOAD PUSH8 0xFFFFFFFFFFFFFFFF DUP2 GT ISZERO PUSH2 0x23AD JUMPI PUSH2 0x23AD PUSH2 0x233A JUMP JUMPDEST PUSH1 0x40 MLOAD PUSH1 0x1F DUP3 ADD PUSH1 0x1F NOT SWAP1 DUP2 AND PUSH1 0x3F ADD AND DUP2 ADD PUSH8 0xFFFFFFFFFFFFFFFF DUP2 GT DUP3 DUP3 LT OR ISZERO PUSH2 0x23DC JUMPI PUSH2 0x23DC PUSH2 0x233A JUMP JUMPDEST PUSH1 0x40 MSTORE DUP2 DUP2 MSTORE DUP3 DUP3 ADD PUSH1 0x20 ADD DUP8 LT ISZERO PUSH2 0x23F3 JUMPI PUSH0 DUP1 REVERT JUMPDEST DUP2 PUSH1 0x20 DUP5 ADD PUSH1 0x20 DUP4 ADD CALLDATACOPY PUSH0 PUSH1 0x20 DUP4 DUP4 ADD ADD MSTORE DUP1 SWAP4 POP POP POP POP SWAP3 POP SWAP3 SWAP1 POP JUMP JUMPDEST PUSH0 DUP1 PUSH1 0x40 DUP4 DUP6 SUB SLT ISZERO PUSH2 0x2423 JUMPI PUSH0 DUP1 REVERT JUMPDEST POP POP DUP1 CALLDATALOAD SWAP3 PUSH1 0x20 SWAP1 SWAP2 ADD CALLDATALOAD SWAP2 POP JUMP JUMPDEST PUSH0 DUP2 MLOAD DUP1 DUP5 MSTORE DUP1 PUSH1 0x20 DUP5 ADD PUSH1 0x20 DUP7 ADD MCOPY PUSH0 PUSH1 0x20 DUP3 DUP7 ADD ADD MSTORE PUSH1 0x20 PUSH1 0x1F NOT PUSH1 0x1F DUP4 ADD AND DUP6 ADD ADD SWAP2 POP POP SWAP3 SWAP2 POP POP JUMP JUMPDEST DUP3 ISZERO ISZERO DUP2 MSTORE PUSH1 0x40 PUSH1 0x20 DUP3 ADD MSTORE PUSH0 PUSH2 0x247A PUSH1 0x40 DUP4 ADD DUP5 PUSH2 0x2432 JUMP JUMPDEST SWAP5 SWAP4 POP POP POP POP JUMP JUMPDEST PUSH1 0x20 DUP2 MSTORE PUSH0 PUSH2 0x226A PUSH1 0x20 DUP4 ADD DUP5 PUSH2 0x2432 JUMP JUMPDEST PUSH0 PUSH1 0x20 DUP3 DUP5 SUB SLT ISZERO PUSH2 0x24A4 JUMPI PUSH0 DUP1 REVERT JUMPDEST PUSH2 0x226A DUP3 PUSH2 0x231F JUMP JUMPDEST PUSH0 DUP1 PUSH0 PUSH1 0x60 DUP5 DUP7 SUB SLT ISZERO PUSH2 0x24BF JUMPI PUSH0 DUP1 REVERT JUMPDEST PUSH2 0x24C8 DUP5 PUSH2 0x231F JUMP JUMPDEST SWAP3 POP PUSH2 0x24D6 PUSH1 0x20 DUP6 ADD PUSH2 0x231F JUMP JUMPDEST SWAP2 POP PUSH2 0x24E4 PUSH1 0x40 DUP6 ADD PUSH2 0x231F JUMP JUMPDEST SWAP1 POP SWAP3 POP SWAP3 POP SWAP3 JUMP JUMPDEST DUP1 ISZERO ISZERO DUP2 EQ PUSH2 0x1B9A JUMPI PUSH0 DUP1 REVERT JUMPDEST PUSH0 DUP1 PUSH1 0x40 DUP4 DUP6 SUB SLT ISZERO PUSH2 0x250B JUMPI PUSH0 DUP1 REVERT JUMPDEST PUSH2 0x2514 DUP4 PUSH2 0x231F JUMP JUMPDEST SWAP2 POP PUSH1 0x20 DUP4 ADD CALLDATALOAD PUSH2 0x2524 DUP2 PUSH2 0x24ED JUMP JUMPDEST DUP1 SWAP2 POP POP SWAP3 POP SWAP3 SWAP1 POP JUMP JUMPDEST PUSH4 0x4E487B71 PUSH1 0xE0 SHL PUSH0 MSTORE PUSH1 0x11 PUSH1 0x4 MSTORE PUSH1 0x24 PUSH0 REVERT JUMPDEST PUSH0 PUSH1 0x1 DUP3 ADD PUSH2 0x2554 JUMPI PUSH2 0x2554 PUSH2 0x252F JUMP JUMPDEST POP PUSH1 0x1 ADD SWAP1 JUMP JUMPDEST DUP2 DUP2 SUB DUP2 DUP2 GT ISZERO PUSH2 0x2072 JUMPI PUSH2 0x2072 PUSH2 0x252F JUMP JUMPDEST PUSH1 0x20 DUP1 DUP3 MSTORE PUSH1 0x3B SWAP1 DUP3 ADD MSTORE PUSH32 0x54686973206164647265737320646F6573206E6F742068617665207065726D69 PUSH1 0x40 DUP3 ADD MSTORE PUSH32 0x7373696F6E20746F2063616C6C20706572666F726D55706B6565700000000000 PUSH1 0x60 DUP3 ADD MSTORE PUSH1 0x80 ADD SWAP1 JUMP JUMPDEST DUP1 DUP3 ADD DUP1 DUP3 GT ISZERO PUSH2 0x2072 JUMPI PUSH2 0x2072 PUSH2 0x252F JUMP JUMPDEST PUSH1 0x1 PUSH1 0x1 PUSH1 0xA0 SHL SUB SWAP4 DUP5 AND DUP2 MSTORE SWAP2 SWAP1 SWAP3 AND PUSH1 0x20 DUP3 ADD MSTORE PUSH1 0x40 DUP2 ADD SWAP2 SWAP1 SWAP2 MSTORE PUSH1 0x60 ADD SWAP1 JUMP JUMPDEST PUSH0 PUSH1 0x20 DUP3 DUP5 SUB SLT ISZERO PUSH2 0x2612 JUMPI PUSH0 DUP1 REVERT JUMPDEST DUP2 MLOAD PUSH2 0x226A DUP2 PUSH2 0x24ED JUMP JUMPDEST DUP1 DUP3 MUL DUP2 ISZERO DUP3 DUP3 DIV DUP5 EQ OR PUSH2 0x2072 JUMPI PUSH2 0x2072 PUSH2 0x252F JUMP JUMPDEST PUSH0 DUP3 PUSH2 0x264E JUMPI PUSH4 0x4E487B71 PUSH1 0xE0 SHL PUSH0 MSTORE PUSH1 0x12 PUSH1 0x4 MSTORE PUSH1 0x24 PUSH0 REVERT JUMPDEST POP DIV SWAP1 JUMP JUMPDEST PUSH0 PUSH1 0x20 DUP3 DUP5 SUB SLT ISZERO PUSH2 0x2663 JUMPI PUSH0 DUP1 REVERT JUMPDEST POP MLOAD SWAP2 SWAP1 POP JUMP JUMPDEST PUSH1 0x20 DUP1 DUP3 MSTORE PUSH1 0x21 SWAP1 DUP3 ADD MSTORE PUSH32 0x5F746F74616C5374616B65416D6F756E742063616E206E6F74206265207A6572 PUSH1 0x40 DUP3 ADD MSTORE PUSH1 0x6F PUSH1 0xF8 SHL PUSH1 0x60 DUP3 ADD MSTORE PUSH1 0x80 ADD SWAP1 JUMP JUMPDEST PUSH0 DUP3 MLOAD DUP1 PUSH1 0x20 DUP6 ADD DUP5 MCOPY PUSH0 SWAP3 ADD SWAP2 DUP3 MSTORE POP SWAP2 SWAP1 POP JUMP INVALID CALLDATASIZE ADDMOD SWAP5 LOG1 EXTCODESIZE LOG1 LOG3 0x21 MOD PUSH8 0xC828492DB98DCA3E KECCAK256 PUSH23 0xCC3735A920A3CA505D382BBCB5671393C7C6980552E50A BALANCE 0xE7 PUSH25 0x921EB17D764C2E98FBF4D44FFF524712DEF9A2646970667358 0x22 SLT KECCAK256 SWAP9 0xDB 0xF6 CHAINID 0xB8 MSTORE POP 0xC6 RETURN 0xE5 0xCA 0xB4 0xD8 0xC7 MSTORE 0xD4 0xE3 0xB9 GT 0xCA LOG1 DUP2 0xAA 0xAD ADDMOD 0xE3 PUSH24 0x720756EB7C64736F6C634300081A00330000000000000000 "
				},
				"gasEstimates": {
					"creation": {
						"codeDepositCost": "2007800",
						"executionCost": "infinite",
						"totalCost": "infinite"
					},
					"external": {
						"UPGRADE_INTERFACE_VERSION()": "infinite",
						"addFunds(uint256,uint256)": "infinite",
						"addOwnership(uint256)": "infinite",
						"addProjects(uint256)": "54908",
						"addTreasuery(uint256)": "infinite",
						"alreadyAdded(address)": "2661",
						"blockUser(address,bool)": "30945",
						"checkOnce()": "2394",
						"checkUpkeep(bytes)": "infinite",
						"flowToTreasuryPercentage()": "2438",
						"initialize(address,address,address)": "infinite",
						"interval()": "2350",
						"lastTimeStamp()": "2439",
						"maintainceFeePercentage()": "2417",
						"multisigAddress()": "2492",
						"noOfUsers()": "2330",
						"odividentPayoutPercentage()": "2329",
						"off()": "33000",
						"owner()": "2375",
						"ownerShipPoolAmount()": "2328",
						"performUpkeep(bytes)": "infinite",
						"proxiableUUID()": "infinite",
						"reStakeTokens(uint256)": "infinite",
						"realInterval()": "2329",
						"renounceOwnership()": "infinite",
						"s_forwarderAddress()": "2471",
						"setForwarderAddress(address)": "28189",
						"setInterval(uint256,uint256)": "92688",
						"setTeasueryPercentages(uint256,uint256)": "infinite",
						"setflowToTreasuryPercentage(uint256)": "infinite",
						"setmaintainceFeePercentage(uint256)": "infinite",
						"setodividentPayoutPercentage(uint256)": "infinite",
						"settdividentPayoutPercentage(uint256)": "infinite",
						"stakeTokens(uint256)": "infinite",
						"startingTime()": "2395",
						"tPPercentages(uint256)": "2578",
						"tdividentPayoutPercentage()": "2373",
						"totalProjects()": "2372",
						"totalStakedAmount()": "2328",
						"totalUsers(uint256)": "2585",
						"transferOwnership(address)": "28497",
						"treasuryPoolAmount()": "2374",
						"upgradeToAndCall(address,bytes)": "infinite",
						"usdcToken()": "2404",
						"userRegistered(address)": "13291",
						"userWithdrawAmoount(uint256)": "infinite",
						"weeklyTransfer()": "infinite"
					},
					"internal": {
						"_authorizeUpgrade(address)": "infinite",
						"calculateFees(uint256,uint256)": "infinite",
						"calculatePercentage(uint256,uint256)": "infinite",
						"perPoolCalculation()": "infinite"
					}
				},
				"methodIdentifiers": {
					"UPGRADE_INTERFACE_VERSION()": "ad3cb1cc",
					"addFunds(uint256,uint256)": "85f45250",
					"addOwnership(uint256)": "78fd078d",
					"addProjects(uint256)": "2765df7a",
					"addTreasuery(uint256)": "5256dbbf",
					"alreadyAdded(address)": "c7fd5bf0",
					"blockUser(address,bool)": "d9b998b4",
					"checkOnce()": "30e3f8f8",
					"checkUpkeep(bytes)": "6e04ff0d",
					"flowToTreasuryPercentage()": "ce356a24",
					"initialize(address,address,address)": "c0c53b8b",
					"interval()": "947a36fb",
					"lastTimeStamp()": "3f3b3b27",
					"maintainceFeePercentage()": "3a71a9e4",
					"multisigAddress()": "5462870d",
					"noOfUsers()": "01934a83",
					"odividentPayoutPercentage()": "44490ff4",
					"off()": "6626b26d",
					"owner()": "8da5cb5b",
					"ownerShipPoolAmount()": "b47ff951",
					"performUpkeep(bytes)": "4585e33b",
					"proxiableUUID()": "52d1902d",
					"reStakeTokens(uint256)": "7ffe4d93",
					"realInterval()": "30cac972",
					"renounceOwnership()": "715018a6",
					"s_forwarderAddress()": "3070fbf8",
					"setForwarderAddress(address)": "d777cc6d",
					"setInterval(uint256,uint256)": "5f17e616",
					"setTeasueryPercentages(uint256,uint256)": "ed061067",
					"setflowToTreasuryPercentage(uint256)": "ad8e5ec4",
					"setmaintainceFeePercentage(uint256)": "7f111e60",
					"setodividentPayoutPercentage(uint256)": "b9dac1eb",
					"settdividentPayoutPercentage(uint256)": "7f70c5e7",
					"stakeTokens(uint256)": "7547c7a3",
					"startingTime()": "39518b5e",
					"tPPercentages(uint256)": "ff3d65d9",
					"tdividentPayoutPercentage()": "33244c2c",
					"totalProjects()": "9c361e4e",
					"totalStakedAmount()": "567e98f9",
					"totalUsers(uint256)": "a4f67b8b",
					"transferOwnership(address)": "f2fde38b",
					"treasuryPoolAmount()": "188e07b9",
					"upgradeToAndCall(address,bytes)": "4f1ef286",
					"usdcToken()": "11eac855",
					"userRegistered(address)": "bccbc36c",
					"userWithdrawAmoount(uint256)": "67976974",
					"weeklyTransfer()": "e9c68e2c"
				}
			},
			"storageLayout": {
				"storage": [
					{
						"astId": 1436,
						"contract": "DripWarrior/poolContract.sol:PoolContrcat",
						"label": "usdcToken",
						"offset": 0,
						"slot": "0",
						"type": "t_contract(IBEP20)1425"
					},
					{
						"astId": 1438,
						"contract": "DripWarrior/poolContract.sol:PoolContrcat",
						"label": "treasuryPoolAmount",
						"offset": 0,
						"slot": "1",
						"type": "t_uint256"
					},
					{
						"astId": 1440,
						"contract": "DripWarrior/poolContract.sol:PoolContrcat",
						"label": "ownerShipPoolAmount",
						"offset": 0,
						"slot": "2",
						"type": "t_uint256"
					},
					{
						"astId": 1442,
						"contract": "DripWarrior/poolContract.sol:PoolContrcat",
						"label": "totalStakedAmount",
						"offset": 0,
						"slot": "3",
						"type": "t_uint256"
					},
					{
						"astId": 1444,
						"contract": "DripWarrior/poolContract.sol:PoolContrcat",
						"label": "tdividentPayoutPercentage",
						"offset": 0,
						"slot": "4",
						"type": "t_uint256"
					},
					{
						"astId": 1446,
						"contract": "DripWarrior/poolContract.sol:PoolContrcat",
						"label": "odividentPayoutPercentage",
						"offset": 0,
						"slot": "5",
						"type": "t_uint256"
					},
					{
						"astId": 1448,
						"contract": "DripWarrior/poolContract.sol:PoolContrcat",
						"label": "flowToTreasuryPercentage",
						"offset": 0,
						"slot": "6",
						"type": "t_uint256"
					},
					{
						"astId": 1450,
						"contract": "DripWarrior/poolContract.sol:PoolContrcat",
						"label": "maintainceFeePercentage",
						"offset": 0,
						"slot": "7",
						"type": "t_uint256"
					},
					{
						"astId": 1452,
						"contract": "DripWarrior/poolContract.sol:PoolContrcat",
						"label": "noOfUsers",
						"offset": 0,
						"slot": "8",
						"type": "t_uint256"
					},
					{
						"astId": 1454,
						"contract": "DripWarrior/poolContract.sol:PoolContrcat",
						"label": "multisigAddress",
						"offset": 0,
						"slot": "9",
						"type": "t_address"
					},
					{
						"astId": 1456,
						"contract": "DripWarrior/poolContract.sol:PoolContrcat",
						"label": "checkOnce",
						"offset": 20,
						"slot": "9",
						"type": "t_bool"
					},
					{
						"astId": 1458,
						"contract": "DripWarrior/poolContract.sol:PoolContrcat",
						"label": "locked",
						"offset": 21,
						"slot": "9",
						"type": "t_bool"
					},
					{
						"astId": 1460,
						"contract": "DripWarrior/poolContract.sol:PoolContrcat",
						"label": "interval",
						"offset": 0,
						"slot": "10",
						"type": "t_uint256"
					},
					{
						"astId": 1462,
						"contract": "DripWarrior/poolContract.sol:PoolContrcat",
						"label": "realInterval",
						"offset": 0,
						"slot": "11",
						"type": "t_uint256"
					},
					{
						"astId": 1464,
						"contract": "DripWarrior/poolContract.sol:PoolContrcat",
						"label": "startingTime",
						"offset": 0,
						"slot": "12",
						"type": "t_uint256"
					},
					{
						"astId": 1466,
						"contract": "DripWarrior/poolContract.sol:PoolContrcat",
						"label": "lastTimeStamp",
						"offset": 0,
						"slot": "13",
						"type": "t_uint256"
					},
					{
						"astId": 1468,
						"contract": "DripWarrior/poolContract.sol:PoolContrcat",
						"label": "s_forwarderAddress",
						"offset": 0,
						"slot": "14",
						"type": "t_address"
					},
					{
						"astId": 1483,
						"contract": "DripWarrior/poolContract.sol:PoolContrcat",
						"label": "totalProjects",
						"offset": 0,
						"slot": "15",
						"type": "t_uint256"
					},
					{
						"astId": 1487,
						"contract": "DripWarrior/poolContract.sol:PoolContrcat",
						"label": "alreadyAdded",
						"offset": 0,
						"slot": "16",
						"type": "t_mapping(t_address,t_bool)"
					},
					{
						"astId": 1491,
						"contract": "DripWarrior/poolContract.sol:PoolContrcat",
						"label": "totalUsers",
						"offset": 0,
						"slot": "17",
						"type": "t_mapping(t_uint256,t_address)"
					},
					{
						"astId": 1495,
						"contract": "DripWarrior/poolContract.sol:PoolContrcat",
						"label": "tPPercentages",
						"offset": 0,
						"slot": "18",
						"type": "t_mapping(t_uint256,t_uint256)"
					},
					{
						"astId": 1500,
						"contract": "DripWarrior/poolContract.sol:PoolContrcat",
						"label": "userRegistered",
						"offset": 0,
						"slot": "19",
						"type": "t_mapping(t_address,t_struct(UserRegistered)1481_storage)"
					}
				],
				"types": {
					"t_address": {
						"encoding": "inplace",
						"label": "address",
						"numberOfBytes": "20"
					},
					"t_bool": {
						"encoding": "inplace",
						"label": "bool",
						"numberOfBytes": "1"
					},
					"t_contract(IBEP20)1425": {
						"encoding": "inplace",
						"label": "contract IBEP20",
						"numberOfBytes": "20"
					},
					"t_mapping(t_address,t_bool)": {
						"encoding": "mapping",
						"key": "t_address",
						"label": "mapping(address => bool)",
						"numberOfBytes": "32",
						"value": "t_bool"
					},
					"t_mapping(t_address,t_struct(UserRegistered)1481_storage)": {
						"encoding": "mapping",
						"key": "t_address",
						"label": "mapping(address => struct PoolContrcat.UserRegistered)",
						"numberOfBytes": "32",
						"value": "t_struct(UserRegistered)1481_storage"
					},
					"t_mapping(t_uint256,t_address)": {
						"encoding": "mapping",
						"key": "t_uint256",
						"label": "mapping(uint256 => address)",
						"numberOfBytes": "32",
						"value": "t_address"
					},
					"t_mapping(t_uint256,t_uint256)": {
						"encoding": "mapping",
						"key": "t_uint256",
						"label": "mapping(uint256 => uint256)",
						"numberOfBytes": "32",
						"value": "t_uint256"
					},
					"t_struct(UserRegistered)1481_storage": {
						"encoding": "inplace",
						"label": "struct PoolContrcat.UserRegistered",
						"members": [
							{
								"astId": 1470,
								"contract": "DripWarrior/poolContract.sol:PoolContrcat",
								"label": "blocked",
								"offset": 0,
								"slot": "0",
								"type": "t_bool"
							},
							{
								"astId": 1472,
								"contract": "DripWarrior/poolContract.sol:PoolContrcat",
								"label": "receivedAmount",
								"offset": 0,
								"slot": "1",
								"type": "t_uint256"
							},
							{
								"astId": 1474,
								"contract": "DripWarrior/poolContract.sol:PoolContrcat",
								"label": "withdrawAmount",
								"offset": 0,
								"slot": "2",
								"type": "t_uint256"
							},
							{
								"astId": 1476,
								"contract": "DripWarrior/poolContract.sol:PoolContrcat",
								"label": "receiveFromTreasury",
								"offset": 0,
								"slot": "3",
								"type": "t_uint256"
							},
							{
								"astId": 1478,
								"contract": "DripWarrior/poolContract.sol:PoolContrcat",
								"label": "receiveFromOwneerShip",
								"offset": 0,
								"slot": "4",
								"type": "t_uint256"
							},
							{
								"astId": 1480,
								"contract": "DripWarrior/poolContract.sol:PoolContrcat",
								"label": "totalStakedAmount",
								"offset": 0,
								"slot": "5",
								"type": "t_uint256"
							}
						],
						"numberOfBytes": "192"
					},
					"t_uint256": {
						"encoding": "inplace",
						"label": "uint256",
						"numberOfBytes": "32"
					}
				}
			},
			"userdoc": {
				"kind": "user",
				"methods": {},
				"version": 1
			}
		}
	}
}