{
	"DripWarrior/checckUpKep_flattened.sol": {
		"CounterwForwarder": {
			"abi": [
				{
					"inputs": [],
					"stateMutability": "nonpayable",
					"type": "constructor"
				},
				{
					"inputs": [
						{
							"internalType": "address",
							"name": "owner",
							"type": "address"
						}
					],
					"name": "OwnableInvalidOwner",
					"type": "error"
				},
				{
					"inputs": [
						{
							"internalType": "address",
							"name": "account",
							"type": "address"
						}
					],
					"name": "OwnableUnauthorizedAccount",
					"type": "error"
				},
				{
					"inputs": [
						{
							"internalType": "uint256",
							"name": "updateInterval",
							"type": "uint256"
						}
					],
					"name": "wrongInterval",
					"type": "error"
				},
				{
					"inputs": [
						{
							"internalType": "uint256",
							"name": "time",
							"type": "uint256"
						}
					],
					"name": "wrongTime",
					"type": "error"
				},
				{
					"anonymous": false,
					"inputs": [
						{
							"indexed": true,
							"internalType": "address",
							"name": "previousOwner",
							"type": "address"
						},
						{
							"indexed": true,
							"internalType": "address",
							"name": "newOwner",
							"type": "address"
						}
					],
					"name": "OwnershipTransferred",
					"type": "event"
				},
				{
					"inputs": [],
					"name": "checkOnce",
					"outputs": [
						{
							"internalType": "bool",
							"name": "",
							"type": "bool"
						}
					],
					"stateMutability": "view",
					"type": "function"
				},
				{
					"inputs": [
						{
							"internalType": "bytes",
							"name": "",
							"type": "bytes"
						}
					],
					"name": "checkUpkeep",
					"outputs": [
						{
							"internalType": "bool",
							"name": "",
							"type": "bool"
						},
						{
							"internalType": "bytes",
							"name": "",
							"type": "bytes"
						}
					],
					"stateMutability": "view",
					"type": "function"
				},
				{
					"inputs": [],
					"name": "counter",
					"outputs": [
						{
							"internalType": "uint256",
							"name": "",
							"type": "uint256"
						}
					],
					"stateMutability": "view",
					"type": "function"
				},
				{
					"inputs": [],
					"name": "doWee",
					"outputs": [],
					"stateMutability": "nonpayable",
					"type": "function"
				},
				{
					"inputs": [],
					"name": "interval",
					"outputs": [
						{
							"internalType": "uint256",
							"name": "",
							"type": "uint256"
						}
					],
					"stateMutability": "view",
					"type": "function"
				},
				{
					"inputs": [],
					"name": "lastTimeStamp",
					"outputs": [
						{
							"internalType": "uint256",
							"name": "",
							"type": "uint256"
						}
					],
					"stateMutability": "view",
					"type": "function"
				},
				{
					"inputs": [],
					"name": "off",
					"outputs": [],
					"stateMutability": "nonpayable",
					"type": "function"
				},
				{
					"inputs": [],
					"name": "owner",
					"outputs": [
						{
							"internalType": "address",
							"name": "",
							"type": "address"
						}
					],
					"stateMutability": "view",
					"type": "function"
				},
				{
					"inputs": [
						{
							"internalType": "bytes",
							"name": "",
							"type": "bytes"
						}
					],
					"name": "performUpkeep",
					"outputs": [],
					"stateMutability": "nonpayable",
					"type": "function"
				},
				{
					"inputs": [],
					"name": "realInterval",
					"outputs": [
						{
							"internalType": "uint256",
							"name": "",
							"type": "uint256"
						}
					],
					"stateMutability": "view",
					"type": "function"
				},
				{
					"inputs": [],
					"name": "renounceOwnership",
					"outputs": [],
					"stateMutability": "nonpayable",
					"type": "function"
				},
				{
					"inputs": [],
					"name": "s_forwarderAddress",
					"outputs": [
						{
							"internalType": "address",
							"name": "",
							"type": "address"
						}
					],
					"stateMutability": "view",
					"type": "function"
				},
				{
					"inputs": [
						{
							"internalType": "address",
							"name": "forwarderAddress",
							"type": "address"
						}
					],
					"name": "setForwarderAddress",
					"outputs": [],
					"stateMutability": "nonpayable",
					"type": "function"
				},
				{
					"inputs": [
						{
							"internalType": "uint256",
							"name": "_startingTime",
							"type": "uint256"
						},
						{
							"internalType": "uint256",
							"name": "updateInterval",
							"type": "uint256"
						}
					],
					"name": "setInterval",
					"outputs": [],
					"stateMutability": "nonpayable",
					"type": "function"
				},
				{
					"inputs": [],
					"name": "startingTime",
					"outputs": [
						{
							"internalType": "uint256",
							"name": "",
							"type": "uint256"
						}
					],
					"stateMutability": "view",
					"type": "function"
				},
				{
					"inputs": [
						{
							"internalType": "address",
							"name": "newOwner",
							"type": "address"
						}
					],
					"name": "transferOwnership",
					"outputs": [],
					"stateMutability": "nonpayable",
					"type": "function"
				},
				{
					"inputs": [],
					"name": "weeklyTransfer",
					"outputs": [],
					"stateMutability": "nonpayable",
					"type": "function"
				}
			],
			"devdoc": {
				"errors": {
					"OwnableInvalidOwner(address)": [
						{
							"details": "The owner is not a valid owner account. (eg. `address(0)`)"
						}
					],
					"OwnableUnauthorizedAccount(address)": [
						{
							"details": "The caller account is not authorized to perform an operation."
						}
					]
				},
				"kind": "dev",
				"methods": {
					"owner()": {
						"details": "Returns the address of the current owner."
					},
					"renounceOwnership()": {
						"details": "Leaves the contract without owner. It will not be possible to call `onlyOwner` functions. Can only be called by the current owner. NOTE: Renouncing ownership will leave the contract without an owner, thereby disabling any functionality that is only available to the owner."
					},
					"setForwarderAddress(address)": {
						"details": "Only callable by the owner",
						"params": {
							"forwarderAddress": "the address to set"
						}
					},
					"transferOwnership(address)": {
						"details": "Transfers ownership of the contract to a new account (`newOwner`). Can only be called by the current owner."
					}
				},
				"version": 1
			},
			"evm": {
				"assembly": "    /* \"DripWarrior/checckUpKep_flattened.sol\":6858:9864  contract CounterwForwarder is AutomationCompatibleInterface,Ownable {... */\n  mstore(0x40, 0x80)\n    /* \"DripWarrior/checckUpKep_flattened.sol\":7464:7513  constructor()Ownable(msg.sender) {... */\n  callvalue\n  dup1\n  iszero\n  tag_1\n  jumpi\n  0x00\n  dup1\n  revert\ntag_1:\n  pop\n    /* \"DripWarrior/checckUpKep_flattened.sol\":7485:7495  msg.sender */\n  caller\n    /* \"DripWarrior/checckUpKep_flattened.sol\":4681:4682  0 */\n  0x00\n    /* \"DripWarrior/checckUpKep_flattened.sol\":4657:4683  initialOwner == address(0) */\n  0xffffffffffffffffffffffffffffffffffffffff\n  and\n    /* \"DripWarrior/checckUpKep_flattened.sol\":4657:4669  initialOwner */\n  dup2\n    /* \"DripWarrior/checckUpKep_flattened.sol\":4657:4683  initialOwner == address(0) */\n  0xffffffffffffffffffffffffffffffffffffffff\n  and\n  sub\n    /* \"DripWarrior/checckUpKep_flattened.sol\":4653:4748  if (initialOwner == address(0)) {... */\n  tag_5\n  jumpi\n    /* \"DripWarrior/checckUpKep_flattened.sol\":4734:4735  0 */\n  0x00\n    /* \"DripWarrior/checckUpKep_flattened.sol\":4706:4737  OwnableInvalidOwner(address(0)) */\n  mload(0x40)\n  0x1e4fbdf700000000000000000000000000000000000000000000000000000000\n  dup2\n  mstore\n  0x04\n  add\n  tag_6\n  swap2\n  swap1\n  tag_7\n  jump\t// in\ntag_6:\n  mload(0x40)\n  dup1\n  swap2\n  sub\n  swap1\n  revert\n    /* \"DripWarrior/checckUpKep_flattened.sol\":4653:4748  if (initialOwner == address(0)) {... */\ntag_5:\n    /* \"DripWarrior/checckUpKep_flattened.sol\":4757:4789  _transferOwnership(initialOwner) */\n  tag_8\n    /* \"DripWarrior/checckUpKep_flattened.sol\":4776:4788  initialOwner */\n  dup2\n    /* \"DripWarrior/checckUpKep_flattened.sol\":4757:4775  _transferOwnership */\n  shl(0x20, tag_9)\n    /* \"DripWarrior/checckUpKep_flattened.sol\":4757:4789  _transferOwnership(initialOwner) */\n  0x20\n  shr\n  jump\t// in\ntag_8:\n    /* \"DripWarrior/checckUpKep_flattened.sol\":4609:4796  constructor(address initialOwner) {... */\n  pop\n    /* \"DripWarrior/checckUpKep_flattened.sol\":6858:9864  contract CounterwForwarder is AutomationCompatibleInterface,Ownable {... */\n  jump(tag_11)\n    /* \"DripWarrior/checckUpKep_flattened.sol\":6296:6483  function _transferOwnership(address newOwner) internal virtual {... */\ntag_9:\n    /* \"DripWarrior/checckUpKep_flattened.sol\":6369:6385  address oldOwner */\n  0x00\n    /* \"DripWarrior/checckUpKep_flattened.sol\":6388:6394  _owner */\n  dup1\n  0x00\n  swap1\n  sload\n  swap1\n  0x0100\n  exp\n  swap1\n  div\n  0xffffffffffffffffffffffffffffffffffffffff\n  and\n    /* \"DripWarrior/checckUpKep_flattened.sol\":6369:6394  address oldOwner = _owner */\n  swap1\n  pop\n    /* \"DripWarrior/checckUpKep_flattened.sol\":6413:6421  newOwner */\n  dup2\n    /* \"DripWarrior/checckUpKep_flattened.sol\":6404:6410  _owner */\n  0x00\n  dup1\n    /* \"DripWarrior/checckUpKep_flattened.sol\":6404:6421  _owner = newOwner */\n  0x0100\n  exp\n  dup2\n  sload\n  dup2\n  0xffffffffffffffffffffffffffffffffffffffff\n  mul\n  not\n  and\n  swap1\n  dup4\n  0xffffffffffffffffffffffffffffffffffffffff\n  and\n  mul\n  or\n  swap1\n  sstore\n  pop\n    /* \"DripWarrior/checckUpKep_flattened.sol\":6467:6475  newOwner */\n  dup2\n    /* \"DripWarrior/checckUpKep_flattened.sol\":6436:6476  OwnershipTransferred(oldOwner, newOwner) */\n  0xffffffffffffffffffffffffffffffffffffffff\n  and\n    /* \"DripWarrior/checckUpKep_flattened.sol\":6457:6465  oldOwner */\n  dup2\n    /* \"DripWarrior/checckUpKep_flattened.sol\":6436:6476  OwnershipTransferred(oldOwner, newOwner) */\n  0xffffffffffffffffffffffffffffffffffffffff\n  and\n  0x8be0079c531659141344cd1fd0a4f28419497f9722a3daafe3b4186f6b6457e0\n  mload(0x40)\n  mload(0x40)\n  dup1\n  swap2\n  sub\n  swap1\n  log3\n    /* \"DripWarrior/checckUpKep_flattened.sol\":6359:6483  {... */\n  pop\n    /* \"DripWarrior/checckUpKep_flattened.sol\":6296:6483  function _transferOwnership(address newOwner) internal virtual {... */\n  pop\n  jump\t// out\n    /* \"#utility.yul\":7:133   */\ntag_13:\n    /* \"#utility.yul\":44:51   */\n  0x00\n    /* \"#utility.yul\":84:126   */\n  0xffffffffffffffffffffffffffffffffffffffff\n    /* \"#utility.yul\":77:82   */\n  dup3\n    /* \"#utility.yul\":73:127   */\n  and\n    /* \"#utility.yul\":62:127   */\n  swap1\n  pop\n    /* \"#utility.yul\":7:133   */\n  swap2\n  swap1\n  pop\n  jump\t// out\n    /* \"#utility.yul\":139:235   */\ntag_14:\n    /* \"#utility.yul\":176:183   */\n  0x00\n    /* \"#utility.yul\":205:229   */\n  tag_19\n    /* \"#utility.yul\":223:228   */\n  dup3\n    /* \"#utility.yul\":205:229   */\n  tag_13\n  jump\t// in\ntag_19:\n    /* \"#utility.yul\":194:229   */\n  swap1\n  pop\n    /* \"#utility.yul\":139:235   */\n  swap2\n  swap1\n  pop\n  jump\t// out\n    /* \"#utility.yul\":241:359   */\ntag_15:\n    /* \"#utility.yul\":328:352   */\n  tag_21\n    /* \"#utility.yul\":346:351   */\n  dup2\n    /* \"#utility.yul\":328:352   */\n  tag_14\n  jump\t// in\ntag_21:\n    /* \"#utility.yul\":323:326   */\n  dup3\n    /* \"#utility.yul\":316:353   */\n  mstore\n    /* \"#utility.yul\":241:359   */\n  pop\n  pop\n  jump\t// out\n    /* \"#utility.yul\":365:587   */\ntag_7:\n    /* \"#utility.yul\":458:462   */\n  0x00\n    /* \"#utility.yul\":496:498   */\n  0x20\n    /* \"#utility.yul\":485:494   */\n  dup3\n    /* \"#utility.yul\":481:499   */\n  add\n    /* \"#utility.yul\":473:499   */\n  swap1\n  pop\n    /* \"#utility.yul\":509:580   */\n  tag_23\n    /* \"#utility.yul\":577:578   */\n  0x00\n    /* \"#utility.yul\":566:575   */\n  dup4\n    /* \"#utility.yul\":562:579   */\n  add\n    /* \"#utility.yul\":553:559   */\n  dup5\n    /* \"#utility.yul\":509:580   */\n  tag_15\n  jump\t// in\ntag_23:\n    /* \"#utility.yul\":365:587   */\n  swap3\n  swap2\n  pop\n  pop\n  jump\t// out\n    /* \"DripWarrior/checckUpKep_flattened.sol\":6858:9864  contract CounterwForwarder is AutomationCompatibleInterface,Ownable {... */\ntag_11:\n  dataSize(sub_0)\n  dup1\n  dataOffset(sub_0)\n  0x00\n  codecopy\n  0x00\n  return\nstop\n\nsub_0: assembly {\n        /* \"DripWarrior/checckUpKep_flattened.sol\":6858:9864  contract CounterwForwarder is AutomationCompatibleInterface,Ownable {... */\n      mstore(0x40, 0x80)\n      callvalue\n      dup1\n      iszero\n      tag_1\n      jumpi\n      0x00\n      dup1\n      revert\n    tag_1:\n      pop\n      jumpi(tag_2, lt(calldatasize, 0x04))\n      shr(0xe0, calldataload(0x00))\n      dup1\n      0x6626b26d\n      gt\n      tag_20\n      jumpi\n      dup1\n      0x947a36fb\n      gt\n      tag_21\n      jumpi\n      dup1\n      0x947a36fb\n      eq\n      tag_15\n      jumpi\n      dup1\n      0xb7106f9e\n      eq\n      tag_16\n      jumpi\n      dup1\n      0xd777cc6d\n      eq\n      tag_17\n      jumpi\n      dup1\n      0xe9c68e2c\n      eq\n      tag_18\n      jumpi\n      dup1\n      0xf2fde38b\n      eq\n      tag_19\n      jumpi\n      jump(tag_2)\n    tag_21:\n      dup1\n      0x6626b26d\n      eq\n      tag_11\n      jumpi\n      dup1\n      0x6e04ff0d\n      eq\n      tag_12\n      jumpi\n      dup1\n      0x715018a6\n      eq\n      tag_13\n      jumpi\n      dup1\n      0x8da5cb5b\n      eq\n      tag_14\n      jumpi\n      jump(tag_2)\n    tag_20:\n      dup1\n      0x3f3b3b27\n      gt\n      tag_22\n      jumpi\n      dup1\n      0x3f3b3b27\n      eq\n      tag_7\n      jumpi\n      dup1\n      0x4585e33b\n      eq\n      tag_8\n      jumpi\n      dup1\n      0x5f17e616\n      eq\n      tag_9\n      jumpi\n      dup1\n      0x61bc221a\n      eq\n      tag_10\n      jumpi\n      jump(tag_2)\n    tag_22:\n      dup1\n      0x3070fbf8\n      eq\n      tag_3\n      jumpi\n      dup1\n      0x30cac972\n      eq\n      tag_4\n      jumpi\n      dup1\n      0x30e3f8f8\n      eq\n      tag_5\n      jumpi\n      dup1\n      0x39518b5e\n      eq\n      tag_6\n      jumpi\n    tag_2:\n      0x00\n      dup1\n      revert\n        /* \"DripWarrior/checckUpKep_flattened.sol\":7297:7330  address public s_forwarderAddress */\n    tag_3:\n      tag_23\n      tag_24\n      jump\t// in\n    tag_23:\n      mload(0x40)\n      tag_25\n      swap2\n      swap1\n      tag_26\n      jump\t// in\n    tag_25:\n      mload(0x40)\n      dup1\n      swap2\n      sub\n      swap1\n      return\n        /* \"DripWarrior/checckUpKep_flattened.sol\":7095:7122  uint256 public realInterval */\n    tag_4:\n      tag_27\n      tag_28\n      jump\t// in\n    tag_27:\n      mload(0x40)\n      tag_29\n      swap2\n      swap1\n      tag_30\n      jump\t// in\n    tag_29:\n      mload(0x40)\n      dup1\n      swap2\n      sub\n      swap1\n      return\n        /* \"DripWarrior/checckUpKep_flattened.sol\":7341:7362  bool public checkOnce */\n    tag_5:\n      tag_31\n      tag_32\n      jump\t// in\n    tag_31:\n      mload(0x40)\n      tag_33\n      swap2\n      swap1\n      tag_34\n      jump\t// in\n    tag_33:\n      mload(0x40)\n      dup1\n      swap2\n      sub\n      swap1\n      return\n        /* \"DripWarrior/checckUpKep_flattened.sol\":7175:7202  uint256 public startingTime */\n    tag_6:\n      tag_35\n      tag_36\n      jump\t// in\n    tag_35:\n      mload(0x40)\n      tag_37\n      swap2\n      swap1\n      tag_30\n      jump\t// in\n    tag_37:\n      mload(0x40)\n      dup1\n      swap2\n      sub\n      swap1\n      return\n        /* \"DripWarrior/checckUpKep_flattened.sol\":7208:7236  uint256 public lastTimeStamp */\n    tag_7:\n      tag_38\n      tag_39\n      jump\t// in\n    tag_38:\n      mload(0x40)\n      tag_40\n      swap2\n      swap1\n      tag_30\n      jump\t// in\n    tag_40:\n      mload(0x40)\n      dup1\n      swap2\n      sub\n      swap1\n      return\n        /* \"DripWarrior/checckUpKep_flattened.sol\":7752:8583  function performUpkeep(bytes calldata /*performData*/) external override {... */\n    tag_8:\n      tag_41\n      0x04\n      dup1\n      calldatasize\n      sub\n      dup2\n      add\n      swap1\n      tag_42\n      swap2\n      swap1\n      tag_43\n      jump\t// in\n    tag_42:\n      tag_44\n      jump\t// in\n    tag_41:\n      stop\n        /* \"DripWarrior/checckUpKep_flattened.sol\":8590:9136  function setInterval (uint256 _startingTime, uint256 updateInterval) external  onlyOwner{... */\n    tag_9:\n      tag_45\n      0x04\n      dup1\n      calldatasize\n      sub\n      dup2\n      add\n      swap1\n      tag_46\n      swap2\n      swap1\n      tag_47\n      jump\t// in\n    tag_46:\n      tag_48\n      jump\t// in\n    tag_45:\n      stop\n        /* \"DripWarrior/checckUpKep_flattened.sol\":6937:6959  uint256 public counter */\n    tag_10:\n      tag_49\n      tag_50\n      jump\t// in\n    tag_49:\n      mload(0x40)\n      tag_51\n      swap2\n      swap1\n      tag_30\n      jump\t// in\n    tag_51:\n      mload(0x40)\n      dup1\n      swap2\n      sub\n      swap1\n      return\n        /* \"DripWarrior/checckUpKep_flattened.sol\":9142:9250  function off () external  onlyOwner{... */\n    tag_11:\n      tag_52\n      tag_53\n      jump\t// in\n    tag_52:\n      stop\n        /* \"DripWarrior/checckUpKep_flattened.sol\":7519:7745  function checkUpkeep(bytes calldata /*checkData*/) external override view  returns (bool, bytes memory) {... */\n    tag_12:\n      tag_54\n      0x04\n      dup1\n      calldatasize\n      sub\n      dup2\n      add\n      swap1\n      tag_55\n      swap2\n      swap1\n      tag_43\n      jump\t// in\n    tag_55:\n      tag_56\n      jump\t// in\n    tag_54:\n      mload(0x40)\n      tag_57\n      swap3\n      swap2\n      swap1\n      tag_58\n      jump\t// in\n    tag_57:\n      mload(0x40)\n      dup1\n      swap2\n      sub\n      swap1\n      return\n        /* \"DripWarrior/checckUpKep_flattened.sol\":5677:5778  function renounceOwnership() public virtual onlyOwner {... */\n    tag_13:\n      tag_59\n      tag_60\n      jump\t// in\n    tag_59:\n      stop\n        /* \"DripWarrior/checckUpKep_flattened.sol\":5022:5107  function owner() public view virtual returns (address) {... */\n    tag_14:\n      tag_61\n      tag_62\n      jump\t// in\n    tag_61:\n      mload(0x40)\n      tag_63\n      swap2\n      swap1\n      tag_26\n      jump\t// in\n    tag_63:\n      mload(0x40)\n      dup1\n      swap2\n      sub\n      swap1\n      return\n        /* \"DripWarrior/checckUpKep_flattened.sol\":7015:7038  uint256 public interval */\n    tag_15:\n      tag_64\n      tag_65\n      jump\t// in\n    tag_64:\n      mload(0x40)\n      tag_66\n      swap2\n      swap1\n      tag_30\n      jump\t// in\n    tag_66:\n      mload(0x40)\n      dup1\n      swap2\n      sub\n      swap1\n      return\n        /* \"DripWarrior/checckUpKep_flattened.sol\":9763:9862  function doWee() public {... */\n    tag_16:\n      tag_67\n      tag_68\n      jump\t// in\n    tag_67:\n      stop\n        /* \"DripWarrior/checckUpKep_flattened.sol\":9629:9757  function setForwarderAddress(address forwarderAddress) external onlyOwner {... */\n    tag_17:\n      tag_69\n      0x04\n      dup1\n      calldatasize\n      sub\n      dup2\n      add\n      swap1\n      tag_70\n      swap2\n      swap1\n      tag_71\n      jump\t// in\n    tag_70:\n      tag_72\n      jump\t// in\n    tag_69:\n      stop\n        /* \"DripWarrior/checckUpKep_flattened.sol\":9256:9464  function weeklyTransfer() public {... */\n    tag_18:\n      tag_73\n      tag_74\n      jump\t// in\n    tag_73:\n      stop\n        /* \"DripWarrior/checckUpKep_flattened.sol\":5927:6142  function transferOwnership(address newOwner) public virtual onlyOwner {... */\n    tag_19:\n      tag_75\n      0x04\n      dup1\n      calldatasize\n      sub\n      dup2\n      add\n      swap1\n      tag_76\n      swap2\n      swap1\n      tag_71\n      jump\t// in\n    tag_76:\n      tag_77\n      jump\t// in\n    tag_75:\n      stop\n        /* \"DripWarrior/checckUpKep_flattened.sol\":7297:7330  address public s_forwarderAddress */\n    tag_24:\n      0x06\n      0x00\n      swap1\n      sload\n      swap1\n      0x0100\n      exp\n      swap1\n      div\n      0xffffffffffffffffffffffffffffffffffffffff\n      and\n      dup2\n      jump\t// out\n        /* \"DripWarrior/checckUpKep_flattened.sol\":7095:7122  uint256 public realInterval */\n    tag_28:\n      sload(0x03)\n      dup2\n      jump\t// out\n        /* \"DripWarrior/checckUpKep_flattened.sol\":7341:7362  bool public checkOnce */\n    tag_32:\n      0x06\n      0x14\n      swap1\n      sload\n      swap1\n      0x0100\n      exp\n      swap1\n      div\n      0xff\n      and\n      dup2\n      jump\t// out\n        /* \"DripWarrior/checckUpKep_flattened.sol\":7175:7202  uint256 public startingTime */\n    tag_36:\n      sload(0x04)\n      dup2\n      jump\t// out\n        /* \"DripWarrior/checckUpKep_flattened.sol\":7208:7236  uint256 public lastTimeStamp */\n    tag_39:\n      sload(0x05)\n      dup2\n      jump\t// out\n        /* \"DripWarrior/checckUpKep_flattened.sol\":7752:8583  function performUpkeep(bytes calldata /*performData*/) external override {... */\n    tag_44:\n        /* \"DripWarrior/checckUpKep_flattened.sol\":7880:7898  s_forwarderAddress */\n      0x06\n      0x00\n      swap1\n      sload\n      swap1\n      0x0100\n      exp\n      swap1\n      div\n      0xffffffffffffffffffffffffffffffffffffffff\n      and\n        /* \"DripWarrior/checckUpKep_flattened.sol\":7866:7898  msg.sender == s_forwarderAddress */\n      0xffffffffffffffffffffffffffffffffffffffff\n      and\n        /* \"DripWarrior/checckUpKep_flattened.sol\":7866:7876  msg.sender */\n      caller\n        /* \"DripWarrior/checckUpKep_flattened.sol\":7866:7898  msg.sender == s_forwarderAddress */\n      0xffffffffffffffffffffffffffffffffffffffff\n      and\n      eq\n        /* \"DripWarrior/checckUpKep_flattened.sol\":7845:7983  require(... */\n      tag_79\n      jumpi\n      mload(0x40)\n      0x08c379a000000000000000000000000000000000000000000000000000000000\n      dup2\n      mstore\n      0x04\n      add\n      tag_80\n      swap1\n      tag_81\n      jump\t// in\n    tag_80:\n      mload(0x40)\n      dup1\n      swap2\n      sub\n      swap1\n      revert\n    tag_79:\n        /* \"DripWarrior/checckUpKep_flattened.sol\":8017:8018  0 */\n      0x00\n        /* \"DripWarrior/checckUpKep_flattened.sol\":8005:8013  interval */\n      sload(0x02)\n        /* \"DripWarrior/checckUpKep_flattened.sol\":8005:8018  interval == 0 */\n      sub\n        /* \"DripWarrior/checckUpKep_flattened.sol\":8001:8074  if (interval == 0){... */\n      tag_82\n      jumpi\n        /* \"DripWarrior/checckUpKep_flattened.sol\":8054:8062  interval */\n      sload(0x02)\n        /* \"DripWarrior/checckUpKep_flattened.sol\":8040:8063  wrongInterval(interval) */\n      mload(0x40)\n      0x7154000700000000000000000000000000000000000000000000000000000000\n      dup2\n      mstore\n      0x04\n      add\n      tag_83\n      swap2\n      swap1\n      tag_30\n      jump\t// in\n    tag_83:\n      mload(0x40)\n      dup1\n      swap2\n      sub\n      swap1\n      revert\n        /* \"DripWarrior/checckUpKep_flattened.sol\":8001:8074  if (interval == 0){... */\n    tag_82:\n        /* \"DripWarrior/checckUpKep_flattened.sol\":8096:8105  checkOnce */\n      0x06\n      0x14\n      swap1\n      sload\n      swap1\n      0x0100\n      exp\n      swap1\n      div\n      0xff\n      and\n        /* \"DripWarrior/checckUpKep_flattened.sol\":8092:8496  if(!checkOnce){... */\n      tag_84\n      jumpi\n        /* \"DripWarrior/checckUpKep_flattened.sol\":8143:8155  startingTime */\n      sload(0x04)\n        /* \"DripWarrior/checckUpKep_flattened.sol\":8124:8139  block.timestamp */\n      timestamp\n        /* \"DripWarrior/checckUpKep_flattened.sol\":8124:8155  block.timestamp >= startingTime */\n      lt\n        /* \"DripWarrior/checckUpKep_flattened.sol\":8121:8375  if(block.timestamp >= startingTime){... */\n      tag_85\n      jumpi\n        /* \"DripWarrior/checckUpKep_flattened.sol\":8190:8205  block.timestamp */\n      timestamp\n        /* \"DripWarrior/checckUpKep_flattened.sol\":8174:8187  lastTimeStamp */\n      0x05\n        /* \"DripWarrior/checckUpKep_flattened.sol\":8174:8205  lastTimeStamp = block.timestamp */\n      dup2\n      swap1\n      sstore\n      pop\n        /* \"DripWarrior/checckUpKep_flattened.sol\":8223:8239  weeklyTransfer() */\n      tag_86\n        /* \"DripWarrior/checckUpKep_flattened.sol\":8223:8237  weeklyTransfer */\n      tag_74\n        /* \"DripWarrior/checckUpKep_flattened.sol\":8223:8239  weeklyTransfer() */\n      jump\t// in\n    tag_86:\n        /* \"DripWarrior/checckUpKep_flattened.sol\":8268:8280  realInterval */\n      sload(0x03)\n        /* \"DripWarrior/checckUpKep_flattened.sol\":8257:8265  interval */\n      0x02\n        /* \"DripWarrior/checckUpKep_flattened.sol\":8257:8280  interval = realInterval */\n      dup2\n      swap1\n      sstore\n      pop\n        /* \"DripWarrior/checckUpKep_flattened.sol\":8121:8375  if(block.timestamp >= startingTime){... */\n      jump(tag_87)\n    tag_85:\n        /* \"DripWarrior/checckUpKep_flattened.sol\":8347:8359  startingTime */\n      sload(0x04)\n        /* \"DripWarrior/checckUpKep_flattened.sol\":8337:8360  wrongTime(startingTime) */\n      mload(0x40)\n      0x54593e7500000000000000000000000000000000000000000000000000000000\n      dup2\n      mstore\n      0x04\n      add\n      tag_88\n      swap2\n      swap1\n      tag_30\n      jump\t// in\n    tag_88:\n      mload(0x40)\n      dup1\n      swap2\n      sub\n      swap1\n      revert\n        /* \"DripWarrior/checckUpKep_flattened.sol\":8121:8375  if(block.timestamp >= startingTime){... */\n    tag_87:\n        /* \"DripWarrior/checckUpKep_flattened.sol\":8092:8496  if(!checkOnce){... */\n      jump(tag_89)\n    tag_84:\n        /* \"DripWarrior/checckUpKep_flattened.sol\":8440:8455  block.timestamp */\n      timestamp\n        /* \"DripWarrior/checckUpKep_flattened.sol\":8424:8437  lastTimeStamp */\n      0x05\n        /* \"DripWarrior/checckUpKep_flattened.sol\":8424:8455  lastTimeStamp = block.timestamp */\n      dup2\n      swap1\n      sstore\n      pop\n        /* \"DripWarrior/checckUpKep_flattened.sol\":8469:8485  weeklyTransfer() */\n      tag_90\n        /* \"DripWarrior/checckUpKep_flattened.sol\":8469:8483  weeklyTransfer */\n      tag_74\n        /* \"DripWarrior/checckUpKep_flattened.sol\":8469:8485  weeklyTransfer() */\n      jump\t// in\n    tag_90:\n        /* \"DripWarrior/checckUpKep_flattened.sol\":8092:8496  if(!checkOnce){... */\n    tag_89:\n        /* \"DripWarrior/checckUpKep_flattened.sol\":8517:8526  checkOnce */\n      0x06\n      0x14\n      swap1\n      sload\n      swap1\n      0x0100\n      exp\n      swap1\n      div\n      0xff\n      and\n        /* \"DripWarrior/checckUpKep_flattened.sol\":8513:8568  if(!checkOnce){... */\n      tag_91\n      jumpi\n        /* \"DripWarrior/checckUpKep_flattened.sol\":8553:8557  true */\n      0x01\n        /* \"DripWarrior/checckUpKep_flattened.sol\":8541:8550  checkOnce */\n      0x06\n      0x14\n        /* \"DripWarrior/checckUpKep_flattened.sol\":8541:8557  checkOnce = true */\n      0x0100\n      exp\n      dup2\n      sload\n      dup2\n      0xff\n      mul\n      not\n      and\n      swap1\n      dup4\n      iszero\n      iszero\n      mul\n      or\n      swap1\n      sstore\n      pop\n        /* \"DripWarrior/checckUpKep_flattened.sol\":8513:8568  if(!checkOnce){... */\n    tag_91:\n        /* \"DripWarrior/checckUpKep_flattened.sol\":7752:8583  function performUpkeep(bytes calldata /*performData*/) external override {... */\n      pop\n      pop\n      jump\t// out\n        /* \"DripWarrior/checckUpKep_flattened.sol\":8590:9136  function setInterval (uint256 _startingTime, uint256 updateInterval) external  onlyOwner{... */\n    tag_48:\n        /* \"DripWarrior/checckUpKep_flattened.sol\":4915:4928  _checkOwner() */\n      tag_93\n        /* \"DripWarrior/checckUpKep_flattened.sol\":4915:4926  _checkOwner */\n      tag_94\n        /* \"DripWarrior/checckUpKep_flattened.sol\":4915:4928  _checkOwner() */\n      jump\t// in\n    tag_93:\n        /* \"DripWarrior/checckUpKep_flattened.sol\":8719:8720  0 */\n      0x00\n        /* \"DripWarrior/checckUpKep_flattened.sol\":8701:8715  updateInterval */\n      dup2\n        /* \"DripWarrior/checckUpKep_flattened.sol\":8701:8720  updateInterval <= 0 */\n      gt\n        /* \"DripWarrior/checckUpKep_flattened.sol\":8698:8782  if(updateInterval <= 0){... */\n      tag_96\n      jumpi\n        /* \"DripWarrior/checckUpKep_flattened.sol\":8756:8770  updateInterval */\n      dup1\n        /* \"DripWarrior/checckUpKep_flattened.sol\":8742:8771  wrongInterval(updateInterval) */\n      mload(0x40)\n      0x7154000700000000000000000000000000000000000000000000000000000000\n      dup2\n      mstore\n      0x04\n      add\n      tag_97\n      swap2\n      swap1\n      tag_30\n      jump\t// in\n    tag_97:\n      mload(0x40)\n      dup1\n      swap2\n      sub\n      swap1\n      revert\n        /* \"DripWarrior/checckUpKep_flattened.sol\":8698:8782  if(updateInterval <= 0){... */\n    tag_96:\n        /* \"DripWarrior/checckUpKep_flattened.sol\":8819:8834  block.timestamp */\n      timestamp\n        /* \"DripWarrior/checckUpKep_flattened.sol\":8803:8816  _startingTime */\n      dup3\n        /* \"DripWarrior/checckUpKep_flattened.sol\":8803:8834  _startingTime < block.timestamp */\n      lt\n        /* \"DripWarrior/checckUpKep_flattened.sol\":8800:8891  if(_startingTime < block.timestamp){... */\n      iszero\n      tag_98\n      jumpi\n        /* \"DripWarrior/checckUpKep_flattened.sol\":8866:8879  _startingTime */\n      dup2\n        /* \"DripWarrior/checckUpKep_flattened.sol\":8856:8880  wrongTime(_startingTime) */\n      mload(0x40)\n      0x54593e7500000000000000000000000000000000000000000000000000000000\n      dup2\n      mstore\n      0x04\n      add\n      tag_99\n      swap2\n      swap1\n      tag_30\n      jump\t// in\n    tag_99:\n      mload(0x40)\n      dup1\n      swap2\n      sub\n      swap1\n      revert\n        /* \"DripWarrior/checckUpKep_flattened.sol\":8800:8891  if(_startingTime < block.timestamp){... */\n    tag_98:\n        /* \"DripWarrior/checckUpKep_flattened.sol\":8928:8943  block.timestamp */\n      timestamp\n        /* \"DripWarrior/checckUpKep_flattened.sol\":8912:8925  _startingTime */\n      dup3\n        /* \"DripWarrior/checckUpKep_flattened.sol\":8912:8943  _startingTime - block.timestamp */\n      tag_100\n      swap2\n      swap1\n      tag_101\n      jump\t// in\n    tag_100:\n        /* \"DripWarrior/checckUpKep_flattened.sol\":8901:8909  interval */\n      0x02\n        /* \"DripWarrior/checckUpKep_flattened.sol\":8901:8943  interval = _startingTime - block.timestamp */\n      dup2\n      swap1\n      sstore\n      pop\n        /* \"DripWarrior/checckUpKep_flattened.sol\":8968:8981  _startingTime */\n      dup2\n        /* \"DripWarrior/checckUpKep_flattened.sol\":8953:8965  startingTime */\n      0x04\n        /* \"DripWarrior/checckUpKep_flattened.sol\":8953:8981  startingTime = _startingTime */\n      dup2\n      swap1\n      sstore\n      pop\n        /* \"DripWarrior/checckUpKep_flattened.sol\":9007:9022  block.timestamp */\n      timestamp\n        /* \"DripWarrior/checckUpKep_flattened.sol\":8991:9004  lastTimeStamp */\n      0x05\n        /* \"DripWarrior/checckUpKep_flattened.sol\":8991:9022  lastTimeStamp = block.timestamp */\n      dup2\n      swap1\n      sstore\n      pop\n        /* \"DripWarrior/checckUpKep_flattened.sol\":9047:9061  updateInterval */\n      dup1\n        /* \"DripWarrior/checckUpKep_flattened.sol\":9032:9044  realInterval */\n      0x03\n        /* \"DripWarrior/checckUpKep_flattened.sol\":9032:9061  realInterval = updateInterval */\n      dup2\n      swap1\n      sstore\n      pop\n        /* \"DripWarrior/checckUpKep_flattened.sol\":8590:9136  function setInterval (uint256 _startingTime, uint256 updateInterval) external  onlyOwner{... */\n      pop\n      pop\n      jump\t// out\n        /* \"DripWarrior/checckUpKep_flattened.sol\":6937:6959  uint256 public counter */\n    tag_50:\n      sload(0x01)\n      dup2\n      jump\t// out\n        /* \"DripWarrior/checckUpKep_flattened.sol\":9142:9250  function off () external  onlyOwner{... */\n    tag_53:\n        /* \"DripWarrior/checckUpKep_flattened.sol\":4915:4928  _checkOwner() */\n      tag_103\n        /* \"DripWarrior/checckUpKep_flattened.sol\":4915:4926  _checkOwner */\n      tag_94\n        /* \"DripWarrior/checckUpKep_flattened.sol\":4915:4928  _checkOwner() */\n      jump\t// in\n    tag_103:\n        /* \"DripWarrior/checckUpKep_flattened.sol\":9206:9207  0 */\n      0x00\n        /* \"DripWarrior/checckUpKep_flattened.sol\":9195:9203  interval */\n      0x02\n        /* \"DripWarrior/checckUpKep_flattened.sol\":9195:9207  interval = 0 */\n      dup2\n      swap1\n      sstore\n      pop\n        /* \"DripWarrior/checckUpKep_flattened.sol\":9229:9234  false */\n      0x00\n        /* \"DripWarrior/checckUpKep_flattened.sol\":9217:9226  checkOnce */\n      0x06\n      0x14\n        /* \"DripWarrior/checckUpKep_flattened.sol\":9217:9234  checkOnce = false */\n      0x0100\n      exp\n      dup2\n      sload\n      dup2\n      0xff\n      mul\n      not\n      and\n      swap1\n      dup4\n      iszero\n      iszero\n      mul\n      or\n      swap1\n      sstore\n      pop\n        /* \"DripWarrior/checckUpKep_flattened.sol\":9142:9250  function off () external  onlyOwner{... */\n      jump\t// out\n        /* \"DripWarrior/checckUpKep_flattened.sol\":7519:7745  function checkUpkeep(bytes calldata /*checkData*/) external override view  returns (bool, bytes memory) {... */\n    tag_56:\n        /* \"DripWarrior/checckUpKep_flattened.sol\":7603:7607  bool */\n      0x00\n        /* \"DripWarrior/checckUpKep_flattened.sol\":7609:7621  bytes memory */\n      0x60\n        /* \"DripWarrior/checckUpKep_flattened.sol\":7634:7650  bool needsUpkeep */\n      0x00\n        /* \"DripWarrior/checckUpKep_flattened.sol\":7689:7697  interval */\n      sload(0x02)\n        /* \"DripWarrior/checckUpKep_flattened.sol\":7672:7685  lastTimeStamp */\n      sload(0x05)\n        /* \"DripWarrior/checckUpKep_flattened.sol\":7654:7669  block.timestamp */\n      timestamp\n        /* \"DripWarrior/checckUpKep_flattened.sol\":7654:7685  block.timestamp - lastTimeStamp */\n      tag_106\n      swap2\n      swap1\n      tag_101\n      jump\t// in\n    tag_106:\n        /* \"DripWarrior/checckUpKep_flattened.sol\":7653:7697  (block.timestamp - lastTimeStamp) > interval */\n      gt\n        /* \"DripWarrior/checckUpKep_flattened.sol\":7634:7697  bool needsUpkeep = (block.timestamp - lastTimeStamp) > interval */\n      swap1\n      pop\n        /* \"DripWarrior/checckUpKep_flattened.sol\":7715:7726  needsUpkeep */\n      dup1\n        /* \"DripWarrior/checckUpKep_flattened.sol\":7728:7737  bytes(\"\") */\n      mload(0x40)\n      dup1\n      0x20\n      add\n      0x40\n      mstore\n      dup1\n      0x00\n      dup2\n      mstore\n      pop\n        /* \"DripWarrior/checckUpKep_flattened.sol\":7707:7738  return (needsUpkeep, bytes(\"\")) */\n      swap3\n      pop\n      swap3\n      pop\n      pop\n        /* \"DripWarrior/checckUpKep_flattened.sol\":7519:7745  function checkUpkeep(bytes calldata /*checkData*/) external override view  returns (bool, bytes memory) {... */\n      swap3\n      pop\n      swap3\n      swap1\n      pop\n      jump\t// out\n        /* \"DripWarrior/checckUpKep_flattened.sol\":5677:5778  function renounceOwnership() public virtual onlyOwner {... */\n    tag_60:\n        /* \"DripWarrior/checckUpKep_flattened.sol\":4915:4928  _checkOwner() */\n      tag_108\n        /* \"DripWarrior/checckUpKep_flattened.sol\":4915:4926  _checkOwner */\n      tag_94\n        /* \"DripWarrior/checckUpKep_flattened.sol\":4915:4928  _checkOwner() */\n      jump\t// in\n    tag_108:\n        /* \"DripWarrior/checckUpKep_flattened.sol\":5741:5771  _transferOwnership(address(0)) */\n      tag_110\n        /* \"DripWarrior/checckUpKep_flattened.sol\":5768:5769  0 */\n      0x00\n        /* \"DripWarrior/checckUpKep_flattened.sol\":5741:5759  _transferOwnership */\n      tag_111\n        /* \"DripWarrior/checckUpKep_flattened.sol\":5741:5771  _transferOwnership(address(0)) */\n      jump\t// in\n    tag_110:\n        /* \"DripWarrior/checckUpKep_flattened.sol\":5677:5778  function renounceOwnership() public virtual onlyOwner {... */\n      jump\t// out\n        /* \"DripWarrior/checckUpKep_flattened.sol\":5022:5107  function owner() public view virtual returns (address) {... */\n    tag_62:\n        /* \"DripWarrior/checckUpKep_flattened.sol\":5068:5075  address */\n      0x00\n        /* \"DripWarrior/checckUpKep_flattened.sol\":5094:5100  _owner */\n      dup1\n      0x00\n      swap1\n      sload\n      swap1\n      0x0100\n      exp\n      swap1\n      div\n      0xffffffffffffffffffffffffffffffffffffffff\n      and\n        /* \"DripWarrior/checckUpKep_flattened.sol\":5087:5100  return _owner */\n      swap1\n      pop\n        /* \"DripWarrior/checckUpKep_flattened.sol\":5022:5107  function owner() public view virtual returns (address) {... */\n      swap1\n      jump\t// out\n        /* \"DripWarrior/checckUpKep_flattened.sol\":7015:7038  uint256 public interval */\n    tag_65:\n      sload(0x02)\n      dup2\n      jump\t// out\n        /* \"DripWarrior/checckUpKep_flattened.sol\":9763:9862  function doWee() public {... */\n    tag_68:\n        /* \"DripWarrior/checckUpKep_flattened.sol\":9801:9810  checkOnce */\n      0x06\n      0x14\n      swap1\n      sload\n      swap1\n      0x0100\n      exp\n      swap1\n      div\n      0xff\n      and\n        /* \"DripWarrior/checckUpKep_flattened.sol\":9797:9856  if(!checkOnce){... */\n      tag_114\n      jumpi\n        /* \"DripWarrior/checckUpKep_flattened.sol\":9841:9845  true */\n      0x01\n        /* \"DripWarrior/checckUpKep_flattened.sol\":9829:9838  checkOnce */\n      0x06\n      0x14\n        /* \"DripWarrior/checckUpKep_flattened.sol\":9829:9845  checkOnce = true */\n      0x0100\n      exp\n      dup2\n      sload\n      dup2\n      0xff\n      mul\n      not\n      and\n      swap1\n      dup4\n      iszero\n      iszero\n      mul\n      or\n      swap1\n      sstore\n      pop\n        /* \"DripWarrior/checckUpKep_flattened.sol\":9797:9856  if(!checkOnce){... */\n    tag_114:\n        /* \"DripWarrior/checckUpKep_flattened.sol\":9763:9862  function doWee() public {... */\n      jump\t// out\n        /* \"DripWarrior/checckUpKep_flattened.sol\":9629:9757  function setForwarderAddress(address forwarderAddress) external onlyOwner {... */\n    tag_72:\n        /* \"DripWarrior/checckUpKep_flattened.sol\":4915:4928  _checkOwner() */\n      tag_116\n        /* \"DripWarrior/checckUpKep_flattened.sol\":4915:4926  _checkOwner */\n      tag_94\n        /* \"DripWarrior/checckUpKep_flattened.sol\":4915:4928  _checkOwner() */\n      jump\t// in\n    tag_116:\n        /* \"DripWarrior/checckUpKep_flattened.sol\":9734:9750  forwarderAddress */\n      dup1\n        /* \"DripWarrior/checckUpKep_flattened.sol\":9713:9731  s_forwarderAddress */\n      0x06\n      0x00\n        /* \"DripWarrior/checckUpKep_flattened.sol\":9713:9750  s_forwarderAddress = forwarderAddress */\n      0x0100\n      exp\n      dup2\n      sload\n      dup2\n      0xffffffffffffffffffffffffffffffffffffffff\n      mul\n      not\n      and\n      swap1\n      dup4\n      0xffffffffffffffffffffffffffffffffffffffff\n      and\n      mul\n      or\n      swap1\n      sstore\n      pop\n        /* \"DripWarrior/checckUpKep_flattened.sol\":9629:9757  function setForwarderAddress(address forwarderAddress) external onlyOwner {... */\n      pop\n      jump\t// out\n        /* \"DripWarrior/checckUpKep_flattened.sol\":9256:9464  function weeklyTransfer() public {... */\n    tag_74:\n        /* \"DripWarrior/checckUpKep_flattened.sol\":9334:9352  s_forwarderAddress */\n      0x06\n      0x00\n      swap1\n      sload\n      swap1\n      0x0100\n      exp\n      swap1\n      div\n      0xffffffffffffffffffffffffffffffffffffffff\n      and\n        /* \"DripWarrior/checckUpKep_flattened.sol\":9320:9352  msg.sender == s_forwarderAddress */\n      0xffffffffffffffffffffffffffffffffffffffff\n      and\n        /* \"DripWarrior/checckUpKep_flattened.sol\":9320:9330  msg.sender */\n      caller\n        /* \"DripWarrior/checckUpKep_flattened.sol\":9320:9352  msg.sender == s_forwarderAddress */\n      0xffffffffffffffffffffffffffffffffffffffff\n      and\n      eq\n        /* \"DripWarrior/checckUpKep_flattened.sol\":9299:9437  require(... */\n      tag_119\n      jumpi\n      mload(0x40)\n      0x08c379a000000000000000000000000000000000000000000000000000000000\n      dup2\n      mstore\n      0x04\n      add\n      tag_120\n      swap1\n      tag_81\n      jump\t// in\n    tag_120:\n      mload(0x40)\n      dup1\n      swap2\n      sub\n      swap1\n      revert\n    tag_119:\n        /* \"DripWarrior/checckUpKep_flattened.sol\":9447:9454  counter */\n      0x01\n      0x00\n        /* \"DripWarrior/checckUpKep_flattened.sol\":9447:9457  counter ++ */\n      dup2\n      sload\n      dup1\n      swap3\n      swap2\n      swap1\n      tag_121\n      swap1\n      tag_122\n      jump\t// in\n    tag_121:\n      swap2\n      swap1\n      pop\n      sstore\n      pop\n        /* \"DripWarrior/checckUpKep_flattened.sol\":9256:9464  function weeklyTransfer() public {... */\n      jump\t// out\n        /* \"DripWarrior/checckUpKep_flattened.sol\":5927:6142  function transferOwnership(address newOwner) public virtual onlyOwner {... */\n    tag_77:\n        /* \"DripWarrior/checckUpKep_flattened.sol\":4915:4928  _checkOwner() */\n      tag_124\n        /* \"DripWarrior/checckUpKep_flattened.sol\":4915:4926  _checkOwner */\n      tag_94\n        /* \"DripWarrior/checckUpKep_flattened.sol\":4915:4928  _checkOwner() */\n      jump\t// in\n    tag_124:\n        /* \"DripWarrior/checckUpKep_flattened.sol\":6031:6032  0 */\n      0x00\n        /* \"DripWarrior/checckUpKep_flattened.sol\":6011:6033  newOwner == address(0) */\n      0xffffffffffffffffffffffffffffffffffffffff\n      and\n        /* \"DripWarrior/checckUpKep_flattened.sol\":6011:6019  newOwner */\n      dup2\n        /* \"DripWarrior/checckUpKep_flattened.sol\":6011:6033  newOwner == address(0) */\n      0xffffffffffffffffffffffffffffffffffffffff\n      and\n      sub\n        /* \"DripWarrior/checckUpKep_flattened.sol\":6007:6098  if (newOwner == address(0)) {... */\n      tag_126\n      jumpi\n        /* \"DripWarrior/checckUpKep_flattened.sol\":6084:6085  0 */\n      0x00\n        /* \"DripWarrior/checckUpKep_flattened.sol\":6056:6087  OwnableInvalidOwner(address(0)) */\n      mload(0x40)\n      0x1e4fbdf700000000000000000000000000000000000000000000000000000000\n      dup2\n      mstore\n      0x04\n      add\n      tag_127\n      swap2\n      swap1\n      tag_26\n      jump\t// in\n    tag_127:\n      mload(0x40)\n      dup1\n      swap2\n      sub\n      swap1\n      revert\n        /* \"DripWarrior/checckUpKep_flattened.sol\":6007:6098  if (newOwner == address(0)) {... */\n    tag_126:\n        /* \"DripWarrior/checckUpKep_flattened.sol\":6107:6135  _transferOwnership(newOwner) */\n      tag_128\n        /* \"DripWarrior/checckUpKep_flattened.sol\":6126:6134  newOwner */\n      dup2\n        /* \"DripWarrior/checckUpKep_flattened.sol\":6107:6125  _transferOwnership */\n      tag_111\n        /* \"DripWarrior/checckUpKep_flattened.sol\":6107:6135  _transferOwnership(newOwner) */\n      jump\t// in\n    tag_128:\n        /* \"DripWarrior/checckUpKep_flattened.sol\":5927:6142  function transferOwnership(address newOwner) public virtual onlyOwner {... */\n      pop\n      jump\t// out\n        /* \"DripWarrior/checckUpKep_flattened.sol\":5180:5342  function _checkOwner() internal view virtual {... */\n    tag_94:\n        /* \"DripWarrior/checckUpKep_flattened.sol\":5250:5262  _msgSender() */\n      tag_130\n        /* \"DripWarrior/checckUpKep_flattened.sol\":5250:5260  _msgSender */\n      tag_131\n        /* \"DripWarrior/checckUpKep_flattened.sol\":5250:5262  _msgSender() */\n      jump\t// in\n    tag_130:\n        /* \"DripWarrior/checckUpKep_flattened.sol\":5239:5262  owner() != _msgSender() */\n      0xffffffffffffffffffffffffffffffffffffffff\n      and\n        /* \"DripWarrior/checckUpKep_flattened.sol\":5239:5246  owner() */\n      tag_132\n        /* \"DripWarrior/checckUpKep_flattened.sol\":5239:5244  owner */\n      tag_62\n        /* \"DripWarrior/checckUpKep_flattened.sol\":5239:5246  owner() */\n      jump\t// in\n    tag_132:\n        /* \"DripWarrior/checckUpKep_flattened.sol\":5239:5262  owner() != _msgSender() */\n      0xffffffffffffffffffffffffffffffffffffffff\n      and\n      eq\n        /* \"DripWarrior/checckUpKep_flattened.sol\":5235:5336  if (owner() != _msgSender()) {... */\n      tag_133\n      jumpi\n        /* \"DripWarrior/checckUpKep_flattened.sol\":5312:5324  _msgSender() */\n      tag_134\n        /* \"DripWarrior/checckUpKep_flattened.sol\":5312:5322  _msgSender */\n      tag_131\n        /* \"DripWarrior/checckUpKep_flattened.sol\":5312:5324  _msgSender() */\n      jump\t// in\n    tag_134:\n        /* \"DripWarrior/checckUpKep_flattened.sol\":5285:5325  OwnableUnauthorizedAccount(_msgSender()) */\n      mload(0x40)\n      0x118cdaa700000000000000000000000000000000000000000000000000000000\n      dup2\n      mstore\n      0x04\n      add\n      tag_135\n      swap2\n      swap1\n      tag_26\n      jump\t// in\n    tag_135:\n      mload(0x40)\n      dup1\n      swap2\n      sub\n      swap1\n      revert\n        /* \"DripWarrior/checckUpKep_flattened.sol\":5235:5336  if (owner() != _msgSender()) {... */\n    tag_133:\n        /* \"DripWarrior/checckUpKep_flattened.sol\":5180:5342  function _checkOwner() internal view virtual {... */\n      jump\t// out\n        /* \"DripWarrior/checckUpKep_flattened.sol\":6296:6483  function _transferOwnership(address newOwner) internal virtual {... */\n    tag_111:\n        /* \"DripWarrior/checckUpKep_flattened.sol\":6369:6385  address oldOwner */\n      0x00\n        /* \"DripWarrior/checckUpKep_flattened.sol\":6388:6394  _owner */\n      dup1\n      0x00\n      swap1\n      sload\n      swap1\n      0x0100\n      exp\n      swap1\n      div\n      0xffffffffffffffffffffffffffffffffffffffff\n      and\n        /* \"DripWarrior/checckUpKep_flattened.sol\":6369:6394  address oldOwner = _owner */\n      swap1\n      pop\n        /* \"DripWarrior/checckUpKep_flattened.sol\":6413:6421  newOwner */\n      dup2\n        /* \"DripWarrior/checckUpKep_flattened.sol\":6404:6410  _owner */\n      0x00\n      dup1\n        /* \"DripWarrior/checckUpKep_flattened.sol\":6404:6421  _owner = newOwner */\n      0x0100\n      exp\n      dup2\n      sload\n      dup2\n      0xffffffffffffffffffffffffffffffffffffffff\n      mul\n      not\n      and\n      swap1\n      dup4\n      0xffffffffffffffffffffffffffffffffffffffff\n      and\n      mul\n      or\n      swap1\n      sstore\n      pop\n        /* \"DripWarrior/checckUpKep_flattened.sol\":6467:6475  newOwner */\n      dup2\n        /* \"DripWarrior/checckUpKep_flattened.sol\":6436:6476  OwnershipTransferred(oldOwner, newOwner) */\n      0xffffffffffffffffffffffffffffffffffffffff\n      and\n        /* \"DripWarrior/checckUpKep_flattened.sol\":6457:6465  oldOwner */\n      dup2\n        /* \"DripWarrior/checckUpKep_flattened.sol\":6436:6476  OwnershipTransferred(oldOwner, newOwner) */\n      0xffffffffffffffffffffffffffffffffffffffff\n      and\n      0x8be0079c531659141344cd1fd0a4f28419497f9722a3daafe3b4186f6b6457e0\n      mload(0x40)\n      mload(0x40)\n      dup1\n      swap2\n      sub\n      swap1\n      log3\n        /* \"DripWarrior/checckUpKep_flattened.sol\":6359:6483  {... */\n      pop\n        /* \"DripWarrior/checckUpKep_flattened.sol\":6296:6483  function _transferOwnership(address newOwner) internal virtual {... */\n      pop\n      jump\t// out\n        /* \"DripWarrior/checckUpKep_flattened.sol\":3100:3196  function _msgSender() internal view virtual returns (address) {... */\n    tag_131:\n        /* \"DripWarrior/checckUpKep_flattened.sol\":3153:3160  address */\n      0x00\n        /* \"DripWarrior/checckUpKep_flattened.sol\":3179:3189  msg.sender */\n      caller\n        /* \"DripWarrior/checckUpKep_flattened.sol\":3172:3189  return msg.sender */\n      swap1\n      pop\n        /* \"DripWarrior/checckUpKep_flattened.sol\":3100:3196  function _msgSender() internal view virtual returns (address) {... */\n      swap1\n      jump\t// out\n        /* \"#utility.yul\":7:133   */\n    tag_138:\n        /* \"#utility.yul\":44:51   */\n      0x00\n        /* \"#utility.yul\":84:126   */\n      0xffffffffffffffffffffffffffffffffffffffff\n        /* \"#utility.yul\":77:82   */\n      dup3\n        /* \"#utility.yul\":73:127   */\n      and\n        /* \"#utility.yul\":62:127   */\n      swap1\n      pop\n        /* \"#utility.yul\":7:133   */\n      swap2\n      swap1\n      pop\n      jump\t// out\n        /* \"#utility.yul\":139:235   */\n    tag_139:\n        /* \"#utility.yul\":176:183   */\n      0x00\n        /* \"#utility.yul\":205:229   */\n      tag_168\n        /* \"#utility.yul\":223:228   */\n      dup3\n        /* \"#utility.yul\":205:229   */\n      tag_138\n      jump\t// in\n    tag_168:\n        /* \"#utility.yul\":194:229   */\n      swap1\n      pop\n        /* \"#utility.yul\":139:235   */\n      swap2\n      swap1\n      pop\n      jump\t// out\n        /* \"#utility.yul\":241:359   */\n    tag_140:\n        /* \"#utility.yul\":328:352   */\n      tag_170\n        /* \"#utility.yul\":346:351   */\n      dup2\n        /* \"#utility.yul\":328:352   */\n      tag_139\n      jump\t// in\n    tag_170:\n        /* \"#utility.yul\":323:326   */\n      dup3\n        /* \"#utility.yul\":316:353   */\n      mstore\n        /* \"#utility.yul\":241:359   */\n      pop\n      pop\n      jump\t// out\n        /* \"#utility.yul\":365:587   */\n    tag_26:\n        /* \"#utility.yul\":458:462   */\n      0x00\n        /* \"#utility.yul\":496:498   */\n      0x20\n        /* \"#utility.yul\":485:494   */\n      dup3\n        /* \"#utility.yul\":481:499   */\n      add\n        /* \"#utility.yul\":473:499   */\n      swap1\n      pop\n        /* \"#utility.yul\":509:580   */\n      tag_172\n        /* \"#utility.yul\":577:578   */\n      0x00\n        /* \"#utility.yul\":566:575   */\n      dup4\n        /* \"#utility.yul\":562:579   */\n      add\n        /* \"#utility.yul\":553:559   */\n      dup5\n        /* \"#utility.yul\":509:580   */\n      tag_140\n      jump\t// in\n    tag_172:\n        /* \"#utility.yul\":365:587   */\n      swap3\n      swap2\n      pop\n      pop\n      jump\t// out\n        /* \"#utility.yul\":593:670   */\n    tag_141:\n        /* \"#utility.yul\":630:637   */\n      0x00\n        /* \"#utility.yul\":659:664   */\n      dup2\n        /* \"#utility.yul\":648:664   */\n      swap1\n      pop\n        /* \"#utility.yul\":593:670   */\n      swap2\n      swap1\n      pop\n      jump\t// out\n        /* \"#utility.yul\":676:794   */\n    tag_142:\n        /* \"#utility.yul\":763:787   */\n      tag_175\n        /* \"#utility.yul\":781:786   */\n      dup2\n        /* \"#utility.yul\":763:787   */\n      tag_141\n      jump\t// in\n    tag_175:\n        /* \"#utility.yul\":758:761   */\n      dup3\n        /* \"#utility.yul\":751:788   */\n      mstore\n        /* \"#utility.yul\":676:794   */\n      pop\n      pop\n      jump\t// out\n        /* \"#utility.yul\":800:1022   */\n    tag_30:\n        /* \"#utility.yul\":893:897   */\n      0x00\n        /* \"#utility.yul\":931:933   */\n      0x20\n        /* \"#utility.yul\":920:929   */\n      dup3\n        /* \"#utility.yul\":916:934   */\n      add\n        /* \"#utility.yul\":908:934   */\n      swap1\n      pop\n        /* \"#utility.yul\":944:1015   */\n      tag_177\n        /* \"#utility.yul\":1012:1013   */\n      0x00\n        /* \"#utility.yul\":1001:1010   */\n      dup4\n        /* \"#utility.yul\":997:1014   */\n      add\n        /* \"#utility.yul\":988:994   */\n      dup5\n        /* \"#utility.yul\":944:1015   */\n      tag_142\n      jump\t// in\n    tag_177:\n        /* \"#utility.yul\":800:1022   */\n      swap3\n      swap2\n      pop\n      pop\n      jump\t// out\n        /* \"#utility.yul\":1028:1118   */\n    tag_143:\n        /* \"#utility.yul\":1062:1069   */\n      0x00\n        /* \"#utility.yul\":1105:1110   */\n      dup2\n        /* \"#utility.yul\":1098:1111   */\n      iszero\n        /* \"#utility.yul\":1091:1112   */\n      iszero\n        /* \"#utility.yul\":1080:1112   */\n      swap1\n      pop\n        /* \"#utility.yul\":1028:1118   */\n      swap2\n      swap1\n      pop\n      jump\t// out\n        /* \"#utility.yul\":1124:1233   */\n    tag_144:\n        /* \"#utility.yul\":1205:1226   */\n      tag_180\n        /* \"#utility.yul\":1220:1225   */\n      dup2\n        /* \"#utility.yul\":1205:1226   */\n      tag_143\n      jump\t// in\n    tag_180:\n        /* \"#utility.yul\":1200:1203   */\n      dup3\n        /* \"#utility.yul\":1193:1227   */\n      mstore\n        /* \"#utility.yul\":1124:1233   */\n      pop\n      pop\n      jump\t// out\n        /* \"#utility.yul\":1239:1449   */\n    tag_34:\n        /* \"#utility.yul\":1326:1330   */\n      0x00\n        /* \"#utility.yul\":1364:1366   */\n      0x20\n        /* \"#utility.yul\":1353:1362   */\n      dup3\n        /* \"#utility.yul\":1349:1367   */\n      add\n        /* \"#utility.yul\":1341:1367   */\n      swap1\n      pop\n        /* \"#utility.yul\":1377:1442   */\n      tag_182\n        /* \"#utility.yul\":1439:1440   */\n      0x00\n        /* \"#utility.yul\":1428:1437   */\n      dup4\n        /* \"#utility.yul\":1424:1441   */\n      add\n        /* \"#utility.yul\":1415:1421   */\n      dup5\n        /* \"#utility.yul\":1377:1442   */\n      tag_144\n      jump\t// in\n    tag_182:\n        /* \"#utility.yul\":1239:1449   */\n      swap3\n      swap2\n      pop\n      pop\n      jump\t// out\n        /* \"#utility.yul\":1536:1653   */\n    tag_146:\n        /* \"#utility.yul\":1645:1646   */\n      0x00\n        /* \"#utility.yul\":1642:1643   */\n      dup1\n        /* \"#utility.yul\":1635:1647   */\n      revert\n        /* \"#utility.yul\":1659:1776   */\n    tag_147:\n        /* \"#utility.yul\":1768:1769   */\n      0x00\n        /* \"#utility.yul\":1765:1766   */\n      dup1\n        /* \"#utility.yul\":1758:1770   */\n      revert\n        /* \"#utility.yul\":1782:1899   */\n    tag_148:\n        /* \"#utility.yul\":1891:1892   */\n      0x00\n        /* \"#utility.yul\":1888:1889   */\n      dup1\n        /* \"#utility.yul\":1881:1893   */\n      revert\n        /* \"#utility.yul\":1905:2022   */\n    tag_149:\n        /* \"#utility.yul\":2014:2015   */\n      0x00\n        /* \"#utility.yul\":2011:2012   */\n      dup1\n        /* \"#utility.yul\":2004:2016   */\n      revert\n        /* \"#utility.yul\":2028:2145   */\n    tag_150:\n        /* \"#utility.yul\":2137:2138   */\n      0x00\n        /* \"#utility.yul\":2134:2135   */\n      dup1\n        /* \"#utility.yul\":2127:2139   */\n      revert\n        /* \"#utility.yul\":2164:2716   */\n    tag_151:\n        /* \"#utility.yul\":2221:2229   */\n      0x00\n        /* \"#utility.yul\":2231:2237   */\n      dup1\n        /* \"#utility.yul\":2281:2284   */\n      dup4\n        /* \"#utility.yul\":2274:2278   */\n      0x1f\n        /* \"#utility.yul\":2266:2272   */\n      dup5\n        /* \"#utility.yul\":2262:2279   */\n      add\n        /* \"#utility.yul\":2258:2285   */\n      slt\n        /* \"#utility.yul\":2248:2370   */\n      tag_190\n      jumpi\n        /* \"#utility.yul\":2289:2368   */\n      tag_191\n      tag_148\n      jump\t// in\n    tag_191:\n        /* \"#utility.yul\":2248:2370   */\n    tag_190:\n        /* \"#utility.yul\":2402:2408   */\n      dup3\n        /* \"#utility.yul\":2389:2409   */\n      calldataload\n        /* \"#utility.yul\":2379:2409   */\n      swap1\n      pop\n        /* \"#utility.yul\":2432:2450   */\n      0xffffffffffffffff\n        /* \"#utility.yul\":2424:2430   */\n      dup2\n        /* \"#utility.yul\":2421:2451   */\n      gt\n        /* \"#utility.yul\":2418:2535   */\n      iszero\n      tag_192\n      jumpi\n        /* \"#utility.yul\":2454:2533   */\n      tag_193\n      tag_149\n      jump\t// in\n    tag_193:\n        /* \"#utility.yul\":2418:2535   */\n    tag_192:\n        /* \"#utility.yul\":2568:2572   */\n      0x20\n        /* \"#utility.yul\":2560:2566   */\n      dup4\n        /* \"#utility.yul\":2556:2573   */\n      add\n        /* \"#utility.yul\":2544:2573   */\n      swap2\n      pop\n        /* \"#utility.yul\":2622:2625   */\n      dup4\n        /* \"#utility.yul\":2614:2618   */\n      0x01\n        /* \"#utility.yul\":2606:2612   */\n      dup3\n        /* \"#utility.yul\":2602:2619   */\n      mul\n        /* \"#utility.yul\":2592:2600   */\n      dup4\n        /* \"#utility.yul\":2588:2620   */\n      add\n        /* \"#utility.yul\":2585:2626   */\n      gt\n        /* \"#utility.yul\":2582:2710   */\n      iszero\n      tag_194\n      jumpi\n        /* \"#utility.yul\":2629:2708   */\n      tag_195\n      tag_150\n      jump\t// in\n    tag_195:\n        /* \"#utility.yul\":2582:2710   */\n    tag_194:\n        /* \"#utility.yul\":2164:2716   */\n      swap3\n      pop\n      swap3\n      swap1\n      pop\n      jump\t// out\n        /* \"#utility.yul\":2722:3249   */\n    tag_43:\n        /* \"#utility.yul\":2792:2798   */\n      0x00\n        /* \"#utility.yul\":2800:2806   */\n      dup1\n        /* \"#utility.yul\":2849:2851   */\n      0x20\n        /* \"#utility.yul\":2837:2846   */\n      dup4\n        /* \"#utility.yul\":2828:2835   */\n      dup6\n        /* \"#utility.yul\":2824:2847   */\n      sub\n        /* \"#utility.yul\":2820:2852   */\n      slt\n        /* \"#utility.yul\":2817:2936   */\n      iszero\n      tag_197\n      jumpi\n        /* \"#utility.yul\":2855:2934   */\n      tag_198\n      tag_146\n      jump\t// in\n    tag_198:\n        /* \"#utility.yul\":2817:2936   */\n    tag_197:\n        /* \"#utility.yul\":3003:3004   */\n      0x00\n        /* \"#utility.yul\":2992:3001   */\n      dup4\n        /* \"#utility.yul\":2988:3005   */\n      add\n        /* \"#utility.yul\":2975:3006   */\n      calldataload\n        /* \"#utility.yul\":3033:3051   */\n      0xffffffffffffffff\n        /* \"#utility.yul\":3025:3031   */\n      dup2\n        /* \"#utility.yul\":3022:3052   */\n      gt\n        /* \"#utility.yul\":3019:3136   */\n      iszero\n      tag_199\n      jumpi\n        /* \"#utility.yul\":3055:3134   */\n      tag_200\n      tag_147\n      jump\t// in\n    tag_200:\n        /* \"#utility.yul\":3019:3136   */\n    tag_199:\n        /* \"#utility.yul\":3168:3232   */\n      tag_201\n        /* \"#utility.yul\":3224:3231   */\n      dup6\n        /* \"#utility.yul\":3215:3221   */\n      dup3\n        /* \"#utility.yul\":3204:3213   */\n      dup7\n        /* \"#utility.yul\":3200:3222   */\n      add\n        /* \"#utility.yul\":3168:3232   */\n      tag_151\n      jump\t// in\n    tag_201:\n        /* \"#utility.yul\":3150:3232   */\n      swap3\n      pop\n      swap3\n      pop\n        /* \"#utility.yul\":2946:3242   */\n      pop\n        /* \"#utility.yul\":2722:3249   */\n      swap3\n      pop\n      swap3\n      swap1\n      pop\n      jump\t// out\n        /* \"#utility.yul\":3255:3377   */\n    tag_152:\n        /* \"#utility.yul\":3328:3352   */\n      tag_203\n        /* \"#utility.yul\":3346:3351   */\n      dup2\n        /* \"#utility.yul\":3328:3352   */\n      tag_141\n      jump\t// in\n    tag_203:\n        /* \"#utility.yul\":3321:3326   */\n      dup2\n        /* \"#utility.yul\":3318:3353   */\n      eq\n        /* \"#utility.yul\":3308:3371   */\n      tag_204\n      jumpi\n        /* \"#utility.yul\":3367:3368   */\n      0x00\n        /* \"#utility.yul\":3364:3365   */\n      dup1\n        /* \"#utility.yul\":3357:3369   */\n      revert\n        /* \"#utility.yul\":3308:3371   */\n    tag_204:\n        /* \"#utility.yul\":3255:3377   */\n      pop\n      jump\t// out\n        /* \"#utility.yul\":3383:3522   */\n    tag_153:\n        /* \"#utility.yul\":3429:3434   */\n      0x00\n        /* \"#utility.yul\":3467:3473   */\n      dup2\n        /* \"#utility.yul\":3454:3474   */\n      calldataload\n        /* \"#utility.yul\":3445:3474   */\n      swap1\n      pop\n        /* \"#utility.yul\":3483:3516   */\n      tag_206\n        /* \"#utility.yul\":3510:3515   */\n      dup2\n        /* \"#utility.yul\":3483:3516   */\n      tag_152\n      jump\t// in\n    tag_206:\n        /* \"#utility.yul\":3383:3522   */\n      swap3\n      swap2\n      pop\n      pop\n      jump\t// out\n        /* \"#utility.yul\":3528:4002   */\n    tag_47:\n        /* \"#utility.yul\":3596:3602   */\n      0x00\n        /* \"#utility.yul\":3604:3610   */\n      dup1\n        /* \"#utility.yul\":3653:3655   */\n      0x40\n        /* \"#utility.yul\":3641:3650   */\n      dup4\n        /* \"#utility.yul\":3632:3639   */\n      dup6\n        /* \"#utility.yul\":3628:3651   */\n      sub\n        /* \"#utility.yul\":3624:3656   */\n      slt\n        /* \"#utility.yul\":3621:3740   */\n      iszero\n      tag_208\n      jumpi\n        /* \"#utility.yul\":3659:3738   */\n      tag_209\n      tag_146\n      jump\t// in\n    tag_209:\n        /* \"#utility.yul\":3621:3740   */\n    tag_208:\n        /* \"#utility.yul\":3779:3780   */\n      0x00\n        /* \"#utility.yul\":3804:3857   */\n      tag_210\n        /* \"#utility.yul\":3849:3856   */\n      dup6\n        /* \"#utility.yul\":3840:3846   */\n      dup3\n        /* \"#utility.yul\":3829:3838   */\n      dup7\n        /* \"#utility.yul\":3825:3847   */\n      add\n        /* \"#utility.yul\":3804:3857   */\n      tag_153\n      jump\t// in\n    tag_210:\n        /* \"#utility.yul\":3794:3857   */\n      swap3\n      pop\n        /* \"#utility.yul\":3750:3867   */\n      pop\n        /* \"#utility.yul\":3906:3908   */\n      0x20\n        /* \"#utility.yul\":3932:3985   */\n      tag_211\n        /* \"#utility.yul\":3977:3984   */\n      dup6\n        /* \"#utility.yul\":3968:3974   */\n      dup3\n        /* \"#utility.yul\":3957:3966   */\n      dup7\n        /* \"#utility.yul\":3953:3975   */\n      add\n        /* \"#utility.yul\":3932:3985   */\n      tag_153\n      jump\t// in\n    tag_211:\n        /* \"#utility.yul\":3922:3985   */\n      swap2\n      pop\n        /* \"#utility.yul\":3877:3995   */\n      pop\n        /* \"#utility.yul\":3528:4002   */\n      swap3\n      pop\n      swap3\n      swap1\n      pop\n      jump\t// out\n        /* \"#utility.yul\":4008:4106   */\n    tag_154:\n        /* \"#utility.yul\":4059:4065   */\n      0x00\n        /* \"#utility.yul\":4093:4098   */\n      dup2\n        /* \"#utility.yul\":4087:4099   */\n      mload\n        /* \"#utility.yul\":4077:4099   */\n      swap1\n      pop\n        /* \"#utility.yul\":4008:4106   */\n      swap2\n      swap1\n      pop\n      jump\t// out\n        /* \"#utility.yul\":4112:4280   */\n    tag_155:\n        /* \"#utility.yul\":4195:4206   */\n      0x00\n        /* \"#utility.yul\":4229:4235   */\n      dup3\n        /* \"#utility.yul\":4224:4227   */\n      dup3\n        /* \"#utility.yul\":4217:4236   */\n      mstore\n        /* \"#utility.yul\":4269:4273   */\n      0x20\n        /* \"#utility.yul\":4264:4267   */\n      dup3\n        /* \"#utility.yul\":4260:4274   */\n      add\n        /* \"#utility.yul\":4245:4274   */\n      swap1\n      pop\n        /* \"#utility.yul\":4112:4280   */\n      swap3\n      swap2\n      pop\n      pop\n      jump\t// out\n        /* \"#utility.yul\":4286:4425   */\n    tag_156:\n        /* \"#utility.yul\":4375:4381   */\n      dup3\n        /* \"#utility.yul\":4370:4373   */\n      dup2\n        /* \"#utility.yul\":4365:4368   */\n      dup4\n        /* \"#utility.yul\":4359:4382   */\n      mcopy\n        /* \"#utility.yul\":4416:4417   */\n      0x00\n        /* \"#utility.yul\":4407:4413   */\n      dup4\n        /* \"#utility.yul\":4402:4405   */\n      dup4\n        /* \"#utility.yul\":4398:4414   */\n      add\n        /* \"#utility.yul\":4391:4418   */\n      mstore\n        /* \"#utility.yul\":4286:4425   */\n      pop\n      pop\n      pop\n      jump\t// out\n        /* \"#utility.yul\":4431:4533   */\n    tag_157:\n        /* \"#utility.yul\":4472:4478   */\n      0x00\n        /* \"#utility.yul\":4523:4525   */\n      0x1f\n        /* \"#utility.yul\":4519:4526   */\n      not\n        /* \"#utility.yul\":4514:4516   */\n      0x1f\n        /* \"#utility.yul\":4507:4512   */\n      dup4\n        /* \"#utility.yul\":4503:4517   */\n      add\n        /* \"#utility.yul\":4499:4527   */\n      and\n        /* \"#utility.yul\":4489:4527   */\n      swap1\n      pop\n        /* \"#utility.yul\":4431:4533   */\n      swap2\n      swap1\n      pop\n      jump\t// out\n        /* \"#utility.yul\":4539:4912   */\n    tag_158:\n        /* \"#utility.yul\":4625:4628   */\n      0x00\n        /* \"#utility.yul\":4653:4691   */\n      tag_217\n        /* \"#utility.yul\":4685:4690   */\n      dup3\n        /* \"#utility.yul\":4653:4691   */\n      tag_154\n      jump\t// in\n    tag_217:\n        /* \"#utility.yul\":4707:4777   */\n      tag_218\n        /* \"#utility.yul\":4770:4776   */\n      dup2\n        /* \"#utility.yul\":4765:4768   */\n      dup6\n        /* \"#utility.yul\":4707:4777   */\n      tag_155\n      jump\t// in\n    tag_218:\n        /* \"#utility.yul\":4700:4777   */\n      swap4\n      pop\n        /* \"#utility.yul\":4786:4851   */\n      tag_219\n        /* \"#utility.yul\":4844:4850   */\n      dup2\n        /* \"#utility.yul\":4839:4842   */\n      dup6\n        /* \"#utility.yul\":4832:4836   */\n      0x20\n        /* \"#utility.yul\":4825:4830   */\n      dup7\n        /* \"#utility.yul\":4821:4837   */\n      add\n        /* \"#utility.yul\":4786:4851   */\n      tag_156\n      jump\t// in\n    tag_219:\n        /* \"#utility.yul\":4876:4905   */\n      tag_220\n        /* \"#utility.yul\":4898:4904   */\n      dup2\n        /* \"#utility.yul\":4876:4905   */\n      tag_157\n      jump\t// in\n    tag_220:\n        /* \"#utility.yul\":4871:4874   */\n      dup5\n        /* \"#utility.yul\":4867:4906   */\n      add\n        /* \"#utility.yul\":4860:4906   */\n      swap2\n      pop\n        /* \"#utility.yul\":4629:4912   */\n      pop\n        /* \"#utility.yul\":4539:4912   */\n      swap3\n      swap2\n      pop\n      pop\n      jump\t// out\n        /* \"#utility.yul\":4918:5325   */\n    tag_58:\n        /* \"#utility.yul\":5051:5055   */\n      0x00\n        /* \"#utility.yul\":5089:5091   */\n      0x40\n        /* \"#utility.yul\":5078:5087   */\n      dup3\n        /* \"#utility.yul\":5074:5092   */\n      add\n        /* \"#utility.yul\":5066:5092   */\n      swap1\n      pop\n        /* \"#utility.yul\":5102:5167   */\n      tag_222\n        /* \"#utility.yul\":5164:5165   */\n      0x00\n        /* \"#utility.yul\":5153:5162   */\n      dup4\n        /* \"#utility.yul\":5149:5166   */\n      add\n        /* \"#utility.yul\":5140:5146   */\n      dup6\n        /* \"#utility.yul\":5102:5167   */\n      tag_144\n      jump\t// in\n    tag_222:\n        /* \"#utility.yul\":5214:5223   */\n      dup2\n        /* \"#utility.yul\":5208:5212   */\n      dup2\n        /* \"#utility.yul\":5204:5224   */\n      sub\n        /* \"#utility.yul\":5199:5201   */\n      0x20\n        /* \"#utility.yul\":5188:5197   */\n      dup4\n        /* \"#utility.yul\":5184:5202   */\n      add\n        /* \"#utility.yul\":5177:5225   */\n      mstore\n        /* \"#utility.yul\":5242:5318   */\n      tag_223\n        /* \"#utility.yul\":5313:5317   */\n      dup2\n        /* \"#utility.yul\":5304:5310   */\n      dup5\n        /* \"#utility.yul\":5242:5318   */\n      tag_158\n      jump\t// in\n    tag_223:\n        /* \"#utility.yul\":5234:5318   */\n      swap1\n      pop\n        /* \"#utility.yul\":4918:5325   */\n      swap4\n      swap3\n      pop\n      pop\n      pop\n      jump\t// out\n        /* \"#utility.yul\":5331:5453   */\n    tag_159:\n        /* \"#utility.yul\":5404:5428   */\n      tag_225\n        /* \"#utility.yul\":5422:5427   */\n      dup2\n        /* \"#utility.yul\":5404:5428   */\n      tag_139\n      jump\t// in\n    tag_225:\n        /* \"#utility.yul\":5397:5402   */\n      dup2\n        /* \"#utility.yul\":5394:5429   */\n      eq\n        /* \"#utility.yul\":5384:5447   */\n      tag_226\n      jumpi\n        /* \"#utility.yul\":5443:5444   */\n      0x00\n        /* \"#utility.yul\":5440:5441   */\n      dup1\n        /* \"#utility.yul\":5433:5445   */\n      revert\n        /* \"#utility.yul\":5384:5447   */\n    tag_226:\n        /* \"#utility.yul\":5331:5453   */\n      pop\n      jump\t// out\n        /* \"#utility.yul\":5459:5598   */\n    tag_160:\n        /* \"#utility.yul\":5505:5510   */\n      0x00\n        /* \"#utility.yul\":5543:5549   */\n      dup2\n        /* \"#utility.yul\":5530:5550   */\n      calldataload\n        /* \"#utility.yul\":5521:5550   */\n      swap1\n      pop\n        /* \"#utility.yul\":5559:5592   */\n      tag_228\n        /* \"#utility.yul\":5586:5591   */\n      dup2\n        /* \"#utility.yul\":5559:5592   */\n      tag_159\n      jump\t// in\n    tag_228:\n        /* \"#utility.yul\":5459:5598   */\n      swap3\n      swap2\n      pop\n      pop\n      jump\t// out\n        /* \"#utility.yul\":5604:5933   */\n    tag_71:\n        /* \"#utility.yul\":5663:5669   */\n      0x00\n        /* \"#utility.yul\":5712:5714   */\n      0x20\n        /* \"#utility.yul\":5700:5709   */\n      dup3\n        /* \"#utility.yul\":5691:5698   */\n      dup5\n        /* \"#utility.yul\":5687:5710   */\n      sub\n        /* \"#utility.yul\":5683:5715   */\n      slt\n        /* \"#utility.yul\":5680:5799   */\n      iszero\n      tag_230\n      jumpi\n        /* \"#utility.yul\":5718:5797   */\n      tag_231\n      tag_146\n      jump\t// in\n    tag_231:\n        /* \"#utility.yul\":5680:5799   */\n    tag_230:\n        /* \"#utility.yul\":5838:5839   */\n      0x00\n        /* \"#utility.yul\":5863:5916   */\n      tag_232\n        /* \"#utility.yul\":5908:5915   */\n      dup5\n        /* \"#utility.yul\":5899:5905   */\n      dup3\n        /* \"#utility.yul\":5888:5897   */\n      dup6\n        /* \"#utility.yul\":5884:5906   */\n      add\n        /* \"#utility.yul\":5863:5916   */\n      tag_160\n      jump\t// in\n    tag_232:\n        /* \"#utility.yul\":5853:5916   */\n      swap2\n      pop\n        /* \"#utility.yul\":5809:5926   */\n      pop\n        /* \"#utility.yul\":5604:5933   */\n      swap3\n      swap2\n      pop\n      pop\n      jump\t// out\n        /* \"#utility.yul\":5939:6108   */\n    tag_161:\n        /* \"#utility.yul\":6023:6034   */\n      0x00\n        /* \"#utility.yul\":6057:6063   */\n      dup3\n        /* \"#utility.yul\":6052:6055   */\n      dup3\n        /* \"#utility.yul\":6045:6064   */\n      mstore\n        /* \"#utility.yul\":6097:6101   */\n      0x20\n        /* \"#utility.yul\":6092:6095   */\n      dup3\n        /* \"#utility.yul\":6088:6102   */\n      add\n        /* \"#utility.yul\":6073:6102   */\n      swap1\n      pop\n        /* \"#utility.yul\":5939:6108   */\n      swap3\n      swap2\n      pop\n      pop\n      jump\t// out\n        /* \"#utility.yul\":6114:6360   */\n    tag_162:\n        /* \"#utility.yul\":6254:6288   */\n      0x54686973206164647265737320646f6573206e6f742068617665207065726d69\n        /* \"#utility.yul\":6250:6251   */\n      0x00\n        /* \"#utility.yul\":6242:6248   */\n      dup3\n        /* \"#utility.yul\":6238:6252   */\n      add\n        /* \"#utility.yul\":6231:6289   */\n      mstore\n        /* \"#utility.yul\":6323:6352   */\n      0x7373696f6e20746f2063616c6c20706572666f726d55706b6565700000000000\n        /* \"#utility.yul\":6318:6320   */\n      0x20\n        /* \"#utility.yul\":6310:6316   */\n      dup3\n        /* \"#utility.yul\":6306:6321   */\n      add\n        /* \"#utility.yul\":6299:6353   */\n      mstore\n        /* \"#utility.yul\":6114:6360   */\n      pop\n      jump\t// out\n        /* \"#utility.yul\":6366:6732   */\n    tag_163:\n        /* \"#utility.yul\":6508:6511   */\n      0x00\n        /* \"#utility.yul\":6529:6596   */\n      tag_236\n        /* \"#utility.yul\":6593:6595   */\n      0x3b\n        /* \"#utility.yul\":6588:6591   */\n      dup4\n        /* \"#utility.yul\":6529:6596   */\n      tag_161\n      jump\t// in\n    tag_236:\n        /* \"#utility.yul\":6522:6596   */\n      swap2\n      pop\n        /* \"#utility.yul\":6605:6698   */\n      tag_237\n        /* \"#utility.yul\":6694:6697   */\n      dup3\n        /* \"#utility.yul\":6605:6698   */\n      tag_162\n      jump\t// in\n    tag_237:\n        /* \"#utility.yul\":6723:6725   */\n      0x40\n        /* \"#utility.yul\":6718:6721   */\n      dup3\n        /* \"#utility.yul\":6714:6726   */\n      add\n        /* \"#utility.yul\":6707:6726   */\n      swap1\n      pop\n        /* \"#utility.yul\":6366:6732   */\n      swap2\n      swap1\n      pop\n      jump\t// out\n        /* \"#utility.yul\":6738:7157   */\n    tag_81:\n        /* \"#utility.yul\":6904:6908   */\n      0x00\n        /* \"#utility.yul\":6942:6944   */\n      0x20\n        /* \"#utility.yul\":6931:6940   */\n      dup3\n        /* \"#utility.yul\":6927:6945   */\n      add\n        /* \"#utility.yul\":6919:6945   */\n      swap1\n      pop\n        /* \"#utility.yul\":6991:7000   */\n      dup2\n        /* \"#utility.yul\":6985:6989   */\n      dup2\n        /* \"#utility.yul\":6981:7001   */\n      sub\n        /* \"#utility.yul\":6977:6978   */\n      0x00\n        /* \"#utility.yul\":6966:6975   */\n      dup4\n        /* \"#utility.yul\":6962:6979   */\n      add\n        /* \"#utility.yul\":6955:7002   */\n      mstore\n        /* \"#utility.yul\":7019:7150   */\n      tag_239\n        /* \"#utility.yul\":7145:7149   */\n      dup2\n        /* \"#utility.yul\":7019:7150   */\n      tag_163\n      jump\t// in\n    tag_239:\n        /* \"#utility.yul\":7011:7150   */\n      swap1\n      pop\n        /* \"#utility.yul\":6738:7157   */\n      swap2\n      swap1\n      pop\n      jump\t// out\n        /* \"#utility.yul\":7163:7343   */\n    tag_164:\n        /* \"#utility.yul\":7211:7288   */\n      0x4e487b7100000000000000000000000000000000000000000000000000000000\n        /* \"#utility.yul\":7208:7209   */\n      0x00\n        /* \"#utility.yul\":7201:7289   */\n      mstore\n        /* \"#utility.yul\":7308:7312   */\n      0x11\n        /* \"#utility.yul\":7305:7306   */\n      0x04\n        /* \"#utility.yul\":7298:7313   */\n      mstore\n        /* \"#utility.yul\":7332:7336   */\n      0x24\n        /* \"#utility.yul\":7329:7330   */\n      0x00\n        /* \"#utility.yul\":7322:7337   */\n      revert\n        /* \"#utility.yul\":7349:7543   */\n    tag_101:\n        /* \"#utility.yul\":7389:7393   */\n      0x00\n        /* \"#utility.yul\":7409:7429   */\n      tag_242\n        /* \"#utility.yul\":7427:7428   */\n      dup3\n        /* \"#utility.yul\":7409:7429   */\n      tag_141\n      jump\t// in\n    tag_242:\n        /* \"#utility.yul\":7404:7429   */\n      swap2\n      pop\n        /* \"#utility.yul\":7443:7463   */\n      tag_243\n        /* \"#utility.yul\":7461:7462   */\n      dup4\n        /* \"#utility.yul\":7443:7463   */\n      tag_141\n      jump\t// in\n    tag_243:\n        /* \"#utility.yul\":7438:7463   */\n      swap3\n      pop\n        /* \"#utility.yul\":7487:7488   */\n      dup3\n        /* \"#utility.yul\":7484:7485   */\n      dup3\n        /* \"#utility.yul\":7480:7489   */\n      sub\n        /* \"#utility.yul\":7472:7489   */\n      swap1\n      pop\n        /* \"#utility.yul\":7511:7512   */\n      dup2\n        /* \"#utility.yul\":7505:7509   */\n      dup2\n        /* \"#utility.yul\":7502:7513   */\n      gt\n        /* \"#utility.yul\":7499:7536   */\n      iszero\n      tag_244\n      jumpi\n        /* \"#utility.yul\":7516:7534   */\n      tag_245\n      tag_164\n      jump\t// in\n    tag_245:\n        /* \"#utility.yul\":7499:7536   */\n    tag_244:\n        /* \"#utility.yul\":7349:7543   */\n      swap3\n      swap2\n      pop\n      pop\n      jump\t// out\n        /* \"#utility.yul\":7549:7782   */\n    tag_122:\n        /* \"#utility.yul\":7588:7591   */\n      0x00\n        /* \"#utility.yul\":7611:7635   */\n      tag_247\n        /* \"#utility.yul\":7629:7634   */\n      dup3\n        /* \"#utility.yul\":7611:7635   */\n      tag_141\n      jump\t// in\n    tag_247:\n        /* \"#utility.yul\":7602:7635   */\n      swap2\n      pop\n        /* \"#utility.yul\":7657:7723   */\n      0xffffffffffffffffffffffffffffffffffffffffffffffffffffffffffffffff\n        /* \"#utility.yul\":7650:7655   */\n      dup3\n        /* \"#utility.yul\":7647:7724   */\n      sub\n        /* \"#utility.yul\":7644:7747   */\n      tag_248\n      jumpi\n        /* \"#utility.yul\":7727:7745   */\n      tag_249\n      tag_164\n      jump\t// in\n    tag_249:\n        /* \"#utility.yul\":7644:7747   */\n    tag_248:\n        /* \"#utility.yul\":7774:7775   */\n      0x01\n        /* \"#utility.yul\":7767:7772   */\n      dup3\n        /* \"#utility.yul\":7763:7776   */\n      add\n        /* \"#utility.yul\":7756:7776   */\n      swap1\n      pop\n        /* \"#utility.yul\":7549:7782   */\n      swap2\n      swap1\n      pop\n      jump\t// out\n\n    auxdata: 0xa2646970667358221220a99e6fb93924600622fc8ee6ba545cf74f38a7e2cf398005c2f3b521b6d39b1664736f6c634300081a0033\n}\n",
				"bytecode": {
					"linkReferences": {},
					"object": "608060405234801561000f575f80fd5b50335f73ffffffffffffffffffffffffffffffffffffffff168173ffffffffffffffffffffffffffffffffffffffff1603610081575f6040517f1e4fbdf70000000000000000000000000000000000000000000000000000000081526004016100789190610196565b60405180910390fd5b6100908161009660201b60201c565b506101af565b5f805f9054906101000a900473ffffffffffffffffffffffffffffffffffffffff169050815f806101000a81548173ffffffffffffffffffffffffffffffffffffffff021916908373ffffffffffffffffffffffffffffffffffffffff1602179055508173ffffffffffffffffffffffffffffffffffffffff168173ffffffffffffffffffffffffffffffffffffffff167f8be0079c531659141344cd1fd0a4f28419497f9722a3daafe3b4186f6b6457e060405160405180910390a35050565b5f73ffffffffffffffffffffffffffffffffffffffff82169050919050565b5f61018082610157565b9050919050565b61019081610176565b82525050565b5f6020820190506101a95f830184610187565b92915050565b610d48806101bc5f395ff3fe608060405234801561000f575f80fd5b5060043610610109575f3560e01c80636626b26d116100a0578063947a36fb1161006f578063947a36fb1461025c578063b7106f9e1461027a578063d777cc6d14610284578063e9c68e2c146102a0578063f2fde38b146102aa57610109565b80636626b26d146101f95780636e04ff0d14610203578063715018a6146102345780638da5cb5b1461023e57610109565b80633f3b3b27116100dc5780633f3b3b27146101855780634585e33b146101a35780635f17e616146101bf57806361bc221a146101db57610109565b80633070fbf81461010d57806330cac9721461012b57806330e3f8f81461014957806339518b5e14610167575b5f80fd5b6101156102c6565b6040516101229190610941565b60405180910390f35b6101336102eb565b6040516101409190610972565b60405180910390f35b6101516102f1565b60405161015e91906109a5565b60405180910390f35b61016f610304565b60405161017c9190610972565b60405180910390f35b61018d61030a565b60405161019a9190610972565b60405180910390f35b6101bd60048036038101906101b89190610a27565b610310565b005b6101d960048036038101906101d49190610a9c565b6104a9565b005b6101e3610565565b6040516101f09190610972565b60405180910390f35b61020161056b565b005b61021d60048036038101906102189190610a27565b610596565b60405161022b929190610b4a565b60405180910390f35b61023c6105ca565b005b6102466105dd565b6040516102539190610941565b60405180910390f35b610264610604565b6040516102719190610972565b60405180910390f35b61028261060a565b005b61029e60048036038101906102999190610ba2565b61063c565b005b6102a8610687565b005b6102c460048036038101906102bf9190610ba2565b61072f565b005b60065f9054906101000a900473ffffffffffffffffffffffffffffffffffffffff1681565b60035481565b600660149054906101000a900460ff1681565b60045481565b60055481565b60065f9054906101000a900473ffffffffffffffffffffffffffffffffffffffff1673ffffffffffffffffffffffffffffffffffffffff163373ffffffffffffffffffffffffffffffffffffffff161461039f576040517f08c379a000000000000000000000000000000000000000000000000000000000815260040161039690610c4d565b60405180910390fd5b5f600254036103e7576002546040517f715400070000000000000000000000000000000000000000000000000000000081526004016103de9190610972565b60405180910390fd5b600660149054906101000a900460ff166104655760045442106104215742600581905550610413610687565b600354600281905550610460565b6004546040517f54593e750000000000000000000000000000000000000000000000000000000081526004016104579190610972565b60405180910390fd5b610475565b42600581905550610474610687565b5b600660149054906101000a900460ff166104a5576001600660146101000a81548160ff0219169083151502179055505b5050565b6104b16107b3565b5f81116104f557806040517f715400070000000000000000000000000000000000000000000000000000000081526004016104ec9190610972565b60405180910390fd5b4282101561053a57816040517f54593e750000000000000000000000000000000000000000000000000000000081526004016105319190610972565b60405180910390fd5b42826105469190610c98565b6002819055508160048190555042600581905550806003819055505050565b60015481565b6105736107b3565b5f6002819055505f600660146101000a81548160ff021916908315150217905550565b5f60605f600254600554426105ab9190610c98565b1190508060405180602001604052805f81525092509250509250929050565b6105d26107b3565b6105db5f61083a565b565b5f805f9054906101000a900473ffffffffffffffffffffffffffffffffffffffff16905090565b60025481565b600660149054906101000a900460ff1661063a576001600660146101000a81548160ff0219169083151502179055505b565b6106446107b3565b8060065f6101000a81548173ffffffffffffffffffffffffffffffffffffffff021916908373ffffffffffffffffffffffffffffffffffffffff16021790555050565b60065f9054906101000a900473ffffffffffffffffffffffffffffffffffffffff1673ffffffffffffffffffffffffffffffffffffffff163373ffffffffffffffffffffffffffffffffffffffff1614610716576040517f08c379a000000000000000000000000000000000000000000000000000000000815260040161070d90610c4d565b60405180910390fd5b60015f81548092919061072890610ccb565b9190505550565b6107376107b3565b5f73ffffffffffffffffffffffffffffffffffffffff168173ffffffffffffffffffffffffffffffffffffffff16036107a7575f6040517f1e4fbdf700000000000000000000000000000000000000000000000000000000815260040161079e9190610941565b60405180910390fd5b6107b08161083a565b50565b6107bb6108fb565b73ffffffffffffffffffffffffffffffffffffffff166107d96105dd565b73ffffffffffffffffffffffffffffffffffffffff1614610838576107fc6108fb565b6040517f118cdaa700000000000000000000000000000000000000000000000000000000815260040161082f9190610941565b60405180910390fd5b565b5f805f9054906101000a900473ffffffffffffffffffffffffffffffffffffffff169050815f806101000a81548173ffffffffffffffffffffffffffffffffffffffff021916908373ffffffffffffffffffffffffffffffffffffffff1602179055508173ffffffffffffffffffffffffffffffffffffffff168173ffffffffffffffffffffffffffffffffffffffff167f8be0079c531659141344cd1fd0a4f28419497f9722a3daafe3b4186f6b6457e060405160405180910390a35050565b5f33905090565b5f73ffffffffffffffffffffffffffffffffffffffff82169050919050565b5f61092b82610902565b9050919050565b61093b81610921565b82525050565b5f6020820190506109545f830184610932565b92915050565b5f819050919050565b61096c8161095a565b82525050565b5f6020820190506109855f830184610963565b92915050565b5f8115159050919050565b61099f8161098b565b82525050565b5f6020820190506109b85f830184610996565b92915050565b5f80fd5b5f80fd5b5f80fd5b5f80fd5b5f80fd5b5f8083601f8401126109e7576109e66109c6565b5b8235905067ffffffffffffffff811115610a0457610a036109ca565b5b602083019150836001820283011115610a2057610a1f6109ce565b5b9250929050565b5f8060208385031215610a3d57610a3c6109be565b5b5f83013567ffffffffffffffff811115610a5a57610a596109c2565b5b610a66858286016109d2565b92509250509250929050565b610a7b8161095a565b8114610a85575f80fd5b50565b5f81359050610a9681610a72565b92915050565b5f8060408385031215610ab257610ab16109be565b5b5f610abf85828601610a88565b9250506020610ad085828601610a88565b9150509250929050565b5f81519050919050565b5f82825260208201905092915050565b8281835e5f83830152505050565b5f601f19601f8301169050919050565b5f610b1c82610ada565b610b268185610ae4565b9350610b36818560208601610af4565b610b3f81610b02565b840191505092915050565b5f604082019050610b5d5f830185610996565b8181036020830152610b6f8184610b12565b90509392505050565b610b8181610921565b8114610b8b575f80fd5b50565b5f81359050610b9c81610b78565b92915050565b5f60208284031215610bb757610bb66109be565b5b5f610bc484828501610b8e565b91505092915050565b5f82825260208201905092915050565b7f54686973206164647265737320646f6573206e6f742068617665207065726d695f8201527f7373696f6e20746f2063616c6c20706572666f726d55706b6565700000000000602082015250565b5f610c37603b83610bcd565b9150610c4282610bdd565b604082019050919050565b5f6020820190508181035f830152610c6481610c2b565b9050919050565b7f4e487b71000000000000000000000000000000000000000000000000000000005f52601160045260245ffd5b5f610ca28261095a565b9150610cad8361095a565b9250828203905081811115610cc557610cc4610c6b565b5b92915050565b5f610cd58261095a565b91507fffffffffffffffffffffffffffffffffffffffffffffffffffffffffffffffff8203610d0757610d06610c6b565b5b60018201905091905056fea2646970667358221220a99e6fb93924600622fc8ee6ba545cf74f38a7e2cf398005c2f3b521b6d39b1664736f6c634300081a0033",
					"opcodes": "PUSH1 0x80 PUSH1 0x40 MSTORE CALLVALUE DUP1 ISZERO PUSH2 0xF JUMPI PUSH0 DUP1 REVERT JUMPDEST POP CALLER PUSH0 PUSH20 0xFFFFFFFFFFFFFFFFFFFFFFFFFFFFFFFFFFFFFFFF AND DUP2 PUSH20 0xFFFFFFFFFFFFFFFFFFFFFFFFFFFFFFFFFFFFFFFF AND SUB PUSH2 0x81 JUMPI PUSH0 PUSH1 0x40 MLOAD PUSH32 0x1E4FBDF700000000000000000000000000000000000000000000000000000000 DUP2 MSTORE PUSH1 0x4 ADD PUSH2 0x78 SWAP2 SWAP1 PUSH2 0x196 JUMP JUMPDEST PUSH1 0x40 MLOAD DUP1 SWAP2 SUB SWAP1 REVERT JUMPDEST PUSH2 0x90 DUP2 PUSH2 0x96 PUSH1 0x20 SHL PUSH1 0x20 SHR JUMP JUMPDEST POP PUSH2 0x1AF JUMP JUMPDEST PUSH0 DUP1 PUSH0 SWAP1 SLOAD SWAP1 PUSH2 0x100 EXP SWAP1 DIV PUSH20 0xFFFFFFFFFFFFFFFFFFFFFFFFFFFFFFFFFFFFFFFF AND SWAP1 POP DUP2 PUSH0 DUP1 PUSH2 0x100 EXP DUP2 SLOAD DUP2 PUSH20 0xFFFFFFFFFFFFFFFFFFFFFFFFFFFFFFFFFFFFFFFF MUL NOT AND SWAP1 DUP4 PUSH20 0xFFFFFFFFFFFFFFFFFFFFFFFFFFFFFFFFFFFFFFFF AND MUL OR SWAP1 SSTORE POP DUP2 PUSH20 0xFFFFFFFFFFFFFFFFFFFFFFFFFFFFFFFFFFFFFFFF AND DUP2 PUSH20 0xFFFFFFFFFFFFFFFFFFFFFFFFFFFFFFFFFFFFFFFF AND PUSH32 0x8BE0079C531659141344CD1FD0A4F28419497F9722A3DAAFE3B4186F6B6457E0 PUSH1 0x40 MLOAD PUSH1 0x40 MLOAD DUP1 SWAP2 SUB SWAP1 LOG3 POP POP JUMP JUMPDEST PUSH0 PUSH20 0xFFFFFFFFFFFFFFFFFFFFFFFFFFFFFFFFFFFFFFFF DUP3 AND SWAP1 POP SWAP2 SWAP1 POP JUMP JUMPDEST PUSH0 PUSH2 0x180 DUP3 PUSH2 0x157 JUMP JUMPDEST SWAP1 POP SWAP2 SWAP1 POP JUMP JUMPDEST PUSH2 0x190 DUP2 PUSH2 0x176 JUMP JUMPDEST DUP3 MSTORE POP POP JUMP JUMPDEST PUSH0 PUSH1 0x20 DUP3 ADD SWAP1 POP PUSH2 0x1A9 PUSH0 DUP4 ADD DUP5 PUSH2 0x187 JUMP JUMPDEST SWAP3 SWAP2 POP POP JUMP JUMPDEST PUSH2 0xD48 DUP1 PUSH2 0x1BC PUSH0 CODECOPY PUSH0 RETURN INVALID PUSH1 0x80 PUSH1 0x40 MSTORE CALLVALUE DUP1 ISZERO PUSH2 0xF JUMPI PUSH0 DUP1 REVERT JUMPDEST POP PUSH1 0x4 CALLDATASIZE LT PUSH2 0x109 JUMPI PUSH0 CALLDATALOAD PUSH1 0xE0 SHR DUP1 PUSH4 0x6626B26D GT PUSH2 0xA0 JUMPI DUP1 PUSH4 0x947A36FB GT PUSH2 0x6F JUMPI DUP1 PUSH4 0x947A36FB EQ PUSH2 0x25C JUMPI DUP1 PUSH4 0xB7106F9E EQ PUSH2 0x27A JUMPI DUP1 PUSH4 0xD777CC6D EQ PUSH2 0x284 JUMPI DUP1 PUSH4 0xE9C68E2C EQ PUSH2 0x2A0 JUMPI DUP1 PUSH4 0xF2FDE38B EQ PUSH2 0x2AA JUMPI PUSH2 0x109 JUMP JUMPDEST DUP1 PUSH4 0x6626B26D EQ PUSH2 0x1F9 JUMPI DUP1 PUSH4 0x6E04FF0D EQ PUSH2 0x203 JUMPI DUP1 PUSH4 0x715018A6 EQ PUSH2 0x234 JUMPI DUP1 PUSH4 0x8DA5CB5B EQ PUSH2 0x23E JUMPI PUSH2 0x109 JUMP JUMPDEST DUP1 PUSH4 0x3F3B3B27 GT PUSH2 0xDC JUMPI DUP1 PUSH4 0x3F3B3B27 EQ PUSH2 0x185 JUMPI DUP1 PUSH4 0x4585E33B EQ PUSH2 0x1A3 JUMPI DUP1 PUSH4 0x5F17E616 EQ PUSH2 0x1BF JUMPI DUP1 PUSH4 0x61BC221A EQ PUSH2 0x1DB JUMPI PUSH2 0x109 JUMP JUMPDEST DUP1 PUSH4 0x3070FBF8 EQ PUSH2 0x10D JUMPI DUP1 PUSH4 0x30CAC972 EQ PUSH2 0x12B JUMPI DUP1 PUSH4 0x30E3F8F8 EQ PUSH2 0x149 JUMPI DUP1 PUSH4 0x39518B5E EQ PUSH2 0x167 JUMPI JUMPDEST PUSH0 DUP1 REVERT JUMPDEST PUSH2 0x115 PUSH2 0x2C6 JUMP JUMPDEST PUSH1 0x40 MLOAD PUSH2 0x122 SWAP2 SWAP1 PUSH2 0x941 JUMP JUMPDEST PUSH1 0x40 MLOAD DUP1 SWAP2 SUB SWAP1 RETURN JUMPDEST PUSH2 0x133 PUSH2 0x2EB JUMP JUMPDEST PUSH1 0x40 MLOAD PUSH2 0x140 SWAP2 SWAP1 PUSH2 0x972 JUMP JUMPDEST PUSH1 0x40 MLOAD DUP1 SWAP2 SUB SWAP1 RETURN JUMPDEST PUSH2 0x151 PUSH2 0x2F1 JUMP JUMPDEST PUSH1 0x40 MLOAD PUSH2 0x15E SWAP2 SWAP1 PUSH2 0x9A5 JUMP JUMPDEST PUSH1 0x40 MLOAD DUP1 SWAP2 SUB SWAP1 RETURN JUMPDEST PUSH2 0x16F PUSH2 0x304 JUMP JUMPDEST PUSH1 0x40 MLOAD PUSH2 0x17C SWAP2 SWAP1 PUSH2 0x972 JUMP JUMPDEST PUSH1 0x40 MLOAD DUP1 SWAP2 SUB SWAP1 RETURN JUMPDEST PUSH2 0x18D PUSH2 0x30A JUMP JUMPDEST PUSH1 0x40 MLOAD PUSH2 0x19A SWAP2 SWAP1 PUSH2 0x972 JUMP JUMPDEST PUSH1 0x40 MLOAD DUP1 SWAP2 SUB SWAP1 RETURN JUMPDEST PUSH2 0x1BD PUSH1 0x4 DUP1 CALLDATASIZE SUB DUP2 ADD SWAP1 PUSH2 0x1B8 SWAP2 SWAP1 PUSH2 0xA27 JUMP JUMPDEST PUSH2 0x310 JUMP JUMPDEST STOP JUMPDEST PUSH2 0x1D9 PUSH1 0x4 DUP1 CALLDATASIZE SUB DUP2 ADD SWAP1 PUSH2 0x1D4 SWAP2 SWAP1 PUSH2 0xA9C JUMP JUMPDEST PUSH2 0x4A9 JUMP JUMPDEST STOP JUMPDEST PUSH2 0x1E3 PUSH2 0x565 JUMP JUMPDEST PUSH1 0x40 MLOAD PUSH2 0x1F0 SWAP2 SWAP1 PUSH2 0x972 JUMP JUMPDEST PUSH1 0x40 MLOAD DUP1 SWAP2 SUB SWAP1 RETURN JUMPDEST PUSH2 0x201 PUSH2 0x56B JUMP JUMPDEST STOP JUMPDEST PUSH2 0x21D PUSH1 0x4 DUP1 CALLDATASIZE SUB DUP2 ADD SWAP1 PUSH2 0x218 SWAP2 SWAP1 PUSH2 0xA27 JUMP JUMPDEST PUSH2 0x596 JUMP JUMPDEST PUSH1 0x40 MLOAD PUSH2 0x22B SWAP3 SWAP2 SWAP1 PUSH2 0xB4A JUMP JUMPDEST PUSH1 0x40 MLOAD DUP1 SWAP2 SUB SWAP1 RETURN JUMPDEST PUSH2 0x23C PUSH2 0x5CA JUMP JUMPDEST STOP JUMPDEST PUSH2 0x246 PUSH2 0x5DD JUMP JUMPDEST PUSH1 0x40 MLOAD PUSH2 0x253 SWAP2 SWAP1 PUSH2 0x941 JUMP JUMPDEST PUSH1 0x40 MLOAD DUP1 SWAP2 SUB SWAP1 RETURN JUMPDEST PUSH2 0x264 PUSH2 0x604 JUMP JUMPDEST PUSH1 0x40 MLOAD PUSH2 0x271 SWAP2 SWAP1 PUSH2 0x972 JUMP JUMPDEST PUSH1 0x40 MLOAD DUP1 SWAP2 SUB SWAP1 RETURN JUMPDEST PUSH2 0x282 PUSH2 0x60A JUMP JUMPDEST STOP JUMPDEST PUSH2 0x29E PUSH1 0x4 DUP1 CALLDATASIZE SUB DUP2 ADD SWAP1 PUSH2 0x299 SWAP2 SWAP1 PUSH2 0xBA2 JUMP JUMPDEST PUSH2 0x63C JUMP JUMPDEST STOP JUMPDEST PUSH2 0x2A8 PUSH2 0x687 JUMP JUMPDEST STOP JUMPDEST PUSH2 0x2C4 PUSH1 0x4 DUP1 CALLDATASIZE SUB DUP2 ADD SWAP1 PUSH2 0x2BF SWAP2 SWAP1 PUSH2 0xBA2 JUMP JUMPDEST PUSH2 0x72F JUMP JUMPDEST STOP JUMPDEST PUSH1 0x6 PUSH0 SWAP1 SLOAD SWAP1 PUSH2 0x100 EXP SWAP1 DIV PUSH20 0xFFFFFFFFFFFFFFFFFFFFFFFFFFFFFFFFFFFFFFFF AND DUP2 JUMP JUMPDEST PUSH1 0x3 SLOAD DUP2 JUMP JUMPDEST PUSH1 0x6 PUSH1 0x14 SWAP1 SLOAD SWAP1 PUSH2 0x100 EXP SWAP1 DIV PUSH1 0xFF AND DUP2 JUMP JUMPDEST PUSH1 0x4 SLOAD DUP2 JUMP JUMPDEST PUSH1 0x5 SLOAD DUP2 JUMP JUMPDEST PUSH1 0x6 PUSH0 SWAP1 SLOAD SWAP1 PUSH2 0x100 EXP SWAP1 DIV PUSH20 0xFFFFFFFFFFFFFFFFFFFFFFFFFFFFFFFFFFFFFFFF AND PUSH20 0xFFFFFFFFFFFFFFFFFFFFFFFFFFFFFFFFFFFFFFFF AND CALLER PUSH20 0xFFFFFFFFFFFFFFFFFFFFFFFFFFFFFFFFFFFFFFFF AND EQ PUSH2 0x39F JUMPI PUSH1 0x40 MLOAD PUSH32 0x8C379A000000000000000000000000000000000000000000000000000000000 DUP2 MSTORE PUSH1 0x4 ADD PUSH2 0x396 SWAP1 PUSH2 0xC4D JUMP JUMPDEST PUSH1 0x40 MLOAD DUP1 SWAP2 SUB SWAP1 REVERT JUMPDEST PUSH0 PUSH1 0x2 SLOAD SUB PUSH2 0x3E7 JUMPI PUSH1 0x2 SLOAD PUSH1 0x40 MLOAD PUSH32 0x7154000700000000000000000000000000000000000000000000000000000000 DUP2 MSTORE PUSH1 0x4 ADD PUSH2 0x3DE SWAP2 SWAP1 PUSH2 0x972 JUMP JUMPDEST PUSH1 0x40 MLOAD DUP1 SWAP2 SUB SWAP1 REVERT JUMPDEST PUSH1 0x6 PUSH1 0x14 SWAP1 SLOAD SWAP1 PUSH2 0x100 EXP SWAP1 DIV PUSH1 0xFF AND PUSH2 0x465 JUMPI PUSH1 0x4 SLOAD TIMESTAMP LT PUSH2 0x421 JUMPI TIMESTAMP PUSH1 0x5 DUP2 SWAP1 SSTORE POP PUSH2 0x413 PUSH2 0x687 JUMP JUMPDEST PUSH1 0x3 SLOAD PUSH1 0x2 DUP2 SWAP1 SSTORE POP PUSH2 0x460 JUMP JUMPDEST PUSH1 0x4 SLOAD PUSH1 0x40 MLOAD PUSH32 0x54593E7500000000000000000000000000000000000000000000000000000000 DUP2 MSTORE PUSH1 0x4 ADD PUSH2 0x457 SWAP2 SWAP1 PUSH2 0x972 JUMP JUMPDEST PUSH1 0x40 MLOAD DUP1 SWAP2 SUB SWAP1 REVERT JUMPDEST PUSH2 0x475 JUMP JUMPDEST TIMESTAMP PUSH1 0x5 DUP2 SWAP1 SSTORE POP PUSH2 0x474 PUSH2 0x687 JUMP JUMPDEST JUMPDEST PUSH1 0x6 PUSH1 0x14 SWAP1 SLOAD SWAP1 PUSH2 0x100 EXP SWAP1 DIV PUSH1 0xFF AND PUSH2 0x4A5 JUMPI PUSH1 0x1 PUSH1 0x6 PUSH1 0x14 PUSH2 0x100 EXP DUP2 SLOAD DUP2 PUSH1 0xFF MUL NOT AND SWAP1 DUP4 ISZERO ISZERO MUL OR SWAP1 SSTORE POP JUMPDEST POP POP JUMP JUMPDEST PUSH2 0x4B1 PUSH2 0x7B3 JUMP JUMPDEST PUSH0 DUP2 GT PUSH2 0x4F5 JUMPI DUP1 PUSH1 0x40 MLOAD PUSH32 0x7154000700000000000000000000000000000000000000000000000000000000 DUP2 MSTORE PUSH1 0x4 ADD PUSH2 0x4EC SWAP2 SWAP1 PUSH2 0x972 JUMP JUMPDEST PUSH1 0x40 MLOAD DUP1 SWAP2 SUB SWAP1 REVERT JUMPDEST TIMESTAMP DUP3 LT ISZERO PUSH2 0x53A JUMPI DUP2 PUSH1 0x40 MLOAD PUSH32 0x54593E7500000000000000000000000000000000000000000000000000000000 DUP2 MSTORE PUSH1 0x4 ADD PUSH2 0x531 SWAP2 SWAP1 PUSH2 0x972 JUMP JUMPDEST PUSH1 0x40 MLOAD DUP1 SWAP2 SUB SWAP1 REVERT JUMPDEST TIMESTAMP DUP3 PUSH2 0x546 SWAP2 SWAP1 PUSH2 0xC98 JUMP JUMPDEST PUSH1 0x2 DUP2 SWAP1 SSTORE POP DUP2 PUSH1 0x4 DUP2 SWAP1 SSTORE POP TIMESTAMP PUSH1 0x5 DUP2 SWAP1 SSTORE POP DUP1 PUSH1 0x3 DUP2 SWAP1 SSTORE POP POP POP JUMP JUMPDEST PUSH1 0x1 SLOAD DUP2 JUMP JUMPDEST PUSH2 0x573 PUSH2 0x7B3 JUMP JUMPDEST PUSH0 PUSH1 0x2 DUP2 SWAP1 SSTORE POP PUSH0 PUSH1 0x6 PUSH1 0x14 PUSH2 0x100 EXP DUP2 SLOAD DUP2 PUSH1 0xFF MUL NOT AND SWAP1 DUP4 ISZERO ISZERO MUL OR SWAP1 SSTORE POP JUMP JUMPDEST PUSH0 PUSH1 0x60 PUSH0 PUSH1 0x2 SLOAD PUSH1 0x5 SLOAD TIMESTAMP PUSH2 0x5AB SWAP2 SWAP1 PUSH2 0xC98 JUMP JUMPDEST GT SWAP1 POP DUP1 PUSH1 0x40 MLOAD DUP1 PUSH1 0x20 ADD PUSH1 0x40 MSTORE DUP1 PUSH0 DUP2 MSTORE POP SWAP3 POP SWAP3 POP POP SWAP3 POP SWAP3 SWAP1 POP JUMP JUMPDEST PUSH2 0x5D2 PUSH2 0x7B3 JUMP JUMPDEST PUSH2 0x5DB PUSH0 PUSH2 0x83A JUMP JUMPDEST JUMP JUMPDEST PUSH0 DUP1 PUSH0 SWAP1 SLOAD SWAP1 PUSH2 0x100 EXP SWAP1 DIV PUSH20 0xFFFFFFFFFFFFFFFFFFFFFFFFFFFFFFFFFFFFFFFF AND SWAP1 POP SWAP1 JUMP JUMPDEST PUSH1 0x2 SLOAD DUP2 JUMP JUMPDEST PUSH1 0x6 PUSH1 0x14 SWAP1 SLOAD SWAP1 PUSH2 0x100 EXP SWAP1 DIV PUSH1 0xFF AND PUSH2 0x63A JUMPI PUSH1 0x1 PUSH1 0x6 PUSH1 0x14 PUSH2 0x100 EXP DUP2 SLOAD DUP2 PUSH1 0xFF MUL NOT AND SWAP1 DUP4 ISZERO ISZERO MUL OR SWAP1 SSTORE POP JUMPDEST JUMP JUMPDEST PUSH2 0x644 PUSH2 0x7B3 JUMP JUMPDEST DUP1 PUSH1 0x6 PUSH0 PUSH2 0x100 EXP DUP2 SLOAD DUP2 PUSH20 0xFFFFFFFFFFFFFFFFFFFFFFFFFFFFFFFFFFFFFFFF MUL NOT AND SWAP1 DUP4 PUSH20 0xFFFFFFFFFFFFFFFFFFFFFFFFFFFFFFFFFFFFFFFF AND MUL OR SWAP1 SSTORE POP POP JUMP JUMPDEST PUSH1 0x6 PUSH0 SWAP1 SLOAD SWAP1 PUSH2 0x100 EXP SWAP1 DIV PUSH20 0xFFFFFFFFFFFFFFFFFFFFFFFFFFFFFFFFFFFFFFFF AND PUSH20 0xFFFFFFFFFFFFFFFFFFFFFFFFFFFFFFFFFFFFFFFF AND CALLER PUSH20 0xFFFFFFFFFFFFFFFFFFFFFFFFFFFFFFFFFFFFFFFF AND EQ PUSH2 0x716 JUMPI PUSH1 0x40 MLOAD PUSH32 0x8C379A000000000000000000000000000000000000000000000000000000000 DUP2 MSTORE PUSH1 0x4 ADD PUSH2 0x70D SWAP1 PUSH2 0xC4D JUMP JUMPDEST PUSH1 0x40 MLOAD DUP1 SWAP2 SUB SWAP1 REVERT JUMPDEST PUSH1 0x1 PUSH0 DUP2 SLOAD DUP1 SWAP3 SWAP2 SWAP1 PUSH2 0x728 SWAP1 PUSH2 0xCCB JUMP JUMPDEST SWAP2 SWAP1 POP SSTORE POP JUMP JUMPDEST PUSH2 0x737 PUSH2 0x7B3 JUMP JUMPDEST PUSH0 PUSH20 0xFFFFFFFFFFFFFFFFFFFFFFFFFFFFFFFFFFFFFFFF AND DUP2 PUSH20 0xFFFFFFFFFFFFFFFFFFFFFFFFFFFFFFFFFFFFFFFF AND SUB PUSH2 0x7A7 JUMPI PUSH0 PUSH1 0x40 MLOAD PUSH32 0x1E4FBDF700000000000000000000000000000000000000000000000000000000 DUP2 MSTORE PUSH1 0x4 ADD PUSH2 0x79E SWAP2 SWAP1 PUSH2 0x941 JUMP JUMPDEST PUSH1 0x40 MLOAD DUP1 SWAP2 SUB SWAP1 REVERT JUMPDEST PUSH2 0x7B0 DUP2 PUSH2 0x83A JUMP JUMPDEST POP JUMP JUMPDEST PUSH2 0x7BB PUSH2 0x8FB JUMP JUMPDEST PUSH20 0xFFFFFFFFFFFFFFFFFFFFFFFFFFFFFFFFFFFFFFFF AND PUSH2 0x7D9 PUSH2 0x5DD JUMP JUMPDEST PUSH20 0xFFFFFFFFFFFFFFFFFFFFFFFFFFFFFFFFFFFFFFFF AND EQ PUSH2 0x838 JUMPI PUSH2 0x7FC PUSH2 0x8FB JUMP JUMPDEST PUSH1 0x40 MLOAD PUSH32 0x118CDAA700000000000000000000000000000000000000000000000000000000 DUP2 MSTORE PUSH1 0x4 ADD PUSH2 0x82F SWAP2 SWAP1 PUSH2 0x941 JUMP JUMPDEST PUSH1 0x40 MLOAD DUP1 SWAP2 SUB SWAP1 REVERT JUMPDEST JUMP JUMPDEST PUSH0 DUP1 PUSH0 SWAP1 SLOAD SWAP1 PUSH2 0x100 EXP SWAP1 DIV PUSH20 0xFFFFFFFFFFFFFFFFFFFFFFFFFFFFFFFFFFFFFFFF AND SWAP1 POP DUP2 PUSH0 DUP1 PUSH2 0x100 EXP DUP2 SLOAD DUP2 PUSH20 0xFFFFFFFFFFFFFFFFFFFFFFFFFFFFFFFFFFFFFFFF MUL NOT AND SWAP1 DUP4 PUSH20 0xFFFFFFFFFFFFFFFFFFFFFFFFFFFFFFFFFFFFFFFF AND MUL OR SWAP1 SSTORE POP DUP2 PUSH20 0xFFFFFFFFFFFFFFFFFFFFFFFFFFFFFFFFFFFFFFFF AND DUP2 PUSH20 0xFFFFFFFFFFFFFFFFFFFFFFFFFFFFFFFFFFFFFFFF AND PUSH32 0x8BE0079C531659141344CD1FD0A4F28419497F9722A3DAAFE3B4186F6B6457E0 PUSH1 0x40 MLOAD PUSH1 0x40 MLOAD DUP1 SWAP2 SUB SWAP1 LOG3 POP POP JUMP JUMPDEST PUSH0 CALLER SWAP1 POP SWAP1 JUMP JUMPDEST PUSH0 PUSH20 0xFFFFFFFFFFFFFFFFFFFFFFFFFFFFFFFFFFFFFFFF DUP3 AND SWAP1 POP SWAP2 SWAP1 POP JUMP JUMPDEST PUSH0 PUSH2 0x92B DUP3 PUSH2 0x902 JUMP JUMPDEST SWAP1 POP SWAP2 SWAP1 POP JUMP JUMPDEST PUSH2 0x93B DUP2 PUSH2 0x921 JUMP JUMPDEST DUP3 MSTORE POP POP JUMP JUMPDEST PUSH0 PUSH1 0x20 DUP3 ADD SWAP1 POP PUSH2 0x954 PUSH0 DUP4 ADD DUP5 PUSH2 0x932 JUMP JUMPDEST SWAP3 SWAP2 POP POP JUMP JUMPDEST PUSH0 DUP2 SWAP1 POP SWAP2 SWAP1 POP JUMP JUMPDEST PUSH2 0x96C DUP2 PUSH2 0x95A JUMP JUMPDEST DUP3 MSTORE POP POP JUMP JUMPDEST PUSH0 PUSH1 0x20 DUP3 ADD SWAP1 POP PUSH2 0x985 PUSH0 DUP4 ADD DUP5 PUSH2 0x963 JUMP JUMPDEST SWAP3 SWAP2 POP POP JUMP JUMPDEST PUSH0 DUP2 ISZERO ISZERO SWAP1 POP SWAP2 SWAP1 POP JUMP JUMPDEST PUSH2 0x99F DUP2 PUSH2 0x98B JUMP JUMPDEST DUP3 MSTORE POP POP JUMP JUMPDEST PUSH0 PUSH1 0x20 DUP3 ADD SWAP1 POP PUSH2 0x9B8 PUSH0 DUP4 ADD DUP5 PUSH2 0x996 JUMP JUMPDEST SWAP3 SWAP2 POP POP JUMP JUMPDEST PUSH0 DUP1 REVERT JUMPDEST PUSH0 DUP1 REVERT JUMPDEST PUSH0 DUP1 REVERT JUMPDEST PUSH0 DUP1 REVERT JUMPDEST PUSH0 DUP1 REVERT JUMPDEST PUSH0 DUP1 DUP4 PUSH1 0x1F DUP5 ADD SLT PUSH2 0x9E7 JUMPI PUSH2 0x9E6 PUSH2 0x9C6 JUMP JUMPDEST JUMPDEST DUP3 CALLDATALOAD SWAP1 POP PUSH8 0xFFFFFFFFFFFFFFFF DUP2 GT ISZERO PUSH2 0xA04 JUMPI PUSH2 0xA03 PUSH2 0x9CA JUMP JUMPDEST JUMPDEST PUSH1 0x20 DUP4 ADD SWAP2 POP DUP4 PUSH1 0x1 DUP3 MUL DUP4 ADD GT ISZERO PUSH2 0xA20 JUMPI PUSH2 0xA1F PUSH2 0x9CE JUMP JUMPDEST JUMPDEST SWAP3 POP SWAP3 SWAP1 POP JUMP JUMPDEST PUSH0 DUP1 PUSH1 0x20 DUP4 DUP6 SUB SLT ISZERO PUSH2 0xA3D JUMPI PUSH2 0xA3C PUSH2 0x9BE JUMP JUMPDEST JUMPDEST PUSH0 DUP4 ADD CALLDATALOAD PUSH8 0xFFFFFFFFFFFFFFFF DUP2 GT ISZERO PUSH2 0xA5A JUMPI PUSH2 0xA59 PUSH2 0x9C2 JUMP JUMPDEST JUMPDEST PUSH2 0xA66 DUP6 DUP3 DUP7 ADD PUSH2 0x9D2 JUMP JUMPDEST SWAP3 POP SWAP3 POP POP SWAP3 POP SWAP3 SWAP1 POP JUMP JUMPDEST PUSH2 0xA7B DUP2 PUSH2 0x95A JUMP JUMPDEST DUP2 EQ PUSH2 0xA85 JUMPI PUSH0 DUP1 REVERT JUMPDEST POP JUMP JUMPDEST PUSH0 DUP2 CALLDATALOAD SWAP1 POP PUSH2 0xA96 DUP2 PUSH2 0xA72 JUMP JUMPDEST SWAP3 SWAP2 POP POP JUMP JUMPDEST PUSH0 DUP1 PUSH1 0x40 DUP4 DUP6 SUB SLT ISZERO PUSH2 0xAB2 JUMPI PUSH2 0xAB1 PUSH2 0x9BE JUMP JUMPDEST JUMPDEST PUSH0 PUSH2 0xABF DUP6 DUP3 DUP7 ADD PUSH2 0xA88 JUMP JUMPDEST SWAP3 POP POP PUSH1 0x20 PUSH2 0xAD0 DUP6 DUP3 DUP7 ADD PUSH2 0xA88 JUMP JUMPDEST SWAP2 POP POP SWAP3 POP SWAP3 SWAP1 POP JUMP JUMPDEST PUSH0 DUP2 MLOAD SWAP1 POP SWAP2 SWAP1 POP JUMP JUMPDEST PUSH0 DUP3 DUP3 MSTORE PUSH1 0x20 DUP3 ADD SWAP1 POP SWAP3 SWAP2 POP POP JUMP JUMPDEST DUP3 DUP2 DUP4 MCOPY PUSH0 DUP4 DUP4 ADD MSTORE POP POP POP JUMP JUMPDEST PUSH0 PUSH1 0x1F NOT PUSH1 0x1F DUP4 ADD AND SWAP1 POP SWAP2 SWAP1 POP JUMP JUMPDEST PUSH0 PUSH2 0xB1C DUP3 PUSH2 0xADA JUMP JUMPDEST PUSH2 0xB26 DUP2 DUP6 PUSH2 0xAE4 JUMP JUMPDEST SWAP4 POP PUSH2 0xB36 DUP2 DUP6 PUSH1 0x20 DUP7 ADD PUSH2 0xAF4 JUMP JUMPDEST PUSH2 0xB3F DUP2 PUSH2 0xB02 JUMP JUMPDEST DUP5 ADD SWAP2 POP POP SWAP3 SWAP2 POP POP JUMP JUMPDEST PUSH0 PUSH1 0x40 DUP3 ADD SWAP1 POP PUSH2 0xB5D PUSH0 DUP4 ADD DUP6 PUSH2 0x996 JUMP JUMPDEST DUP2 DUP2 SUB PUSH1 0x20 DUP4 ADD MSTORE PUSH2 0xB6F DUP2 DUP5 PUSH2 0xB12 JUMP JUMPDEST SWAP1 POP SWAP4 SWAP3 POP POP POP JUMP JUMPDEST PUSH2 0xB81 DUP2 PUSH2 0x921 JUMP JUMPDEST DUP2 EQ PUSH2 0xB8B JUMPI PUSH0 DUP1 REVERT JUMPDEST POP JUMP JUMPDEST PUSH0 DUP2 CALLDATALOAD SWAP1 POP PUSH2 0xB9C DUP2 PUSH2 0xB78 JUMP JUMPDEST SWAP3 SWAP2 POP POP JUMP JUMPDEST PUSH0 PUSH1 0x20 DUP3 DUP5 SUB SLT ISZERO PUSH2 0xBB7 JUMPI PUSH2 0xBB6 PUSH2 0x9BE JUMP JUMPDEST JUMPDEST PUSH0 PUSH2 0xBC4 DUP5 DUP3 DUP6 ADD PUSH2 0xB8E JUMP JUMPDEST SWAP2 POP POP SWAP3 SWAP2 POP POP JUMP JUMPDEST PUSH0 DUP3 DUP3 MSTORE PUSH1 0x20 DUP3 ADD SWAP1 POP SWAP3 SWAP2 POP POP JUMP JUMPDEST PUSH32 0x54686973206164647265737320646F6573206E6F742068617665207065726D69 PUSH0 DUP3 ADD MSTORE PUSH32 0x7373696F6E20746F2063616C6C20706572666F726D55706B6565700000000000 PUSH1 0x20 DUP3 ADD MSTORE POP JUMP JUMPDEST PUSH0 PUSH2 0xC37 PUSH1 0x3B DUP4 PUSH2 0xBCD JUMP JUMPDEST SWAP2 POP PUSH2 0xC42 DUP3 PUSH2 0xBDD JUMP JUMPDEST PUSH1 0x40 DUP3 ADD SWAP1 POP SWAP2 SWAP1 POP JUMP JUMPDEST PUSH0 PUSH1 0x20 DUP3 ADD SWAP1 POP DUP2 DUP2 SUB PUSH0 DUP4 ADD MSTORE PUSH2 0xC64 DUP2 PUSH2 0xC2B JUMP JUMPDEST SWAP1 POP SWAP2 SWAP1 POP JUMP JUMPDEST PUSH32 0x4E487B7100000000000000000000000000000000000000000000000000000000 PUSH0 MSTORE PUSH1 0x11 PUSH1 0x4 MSTORE PUSH1 0x24 PUSH0 REVERT JUMPDEST PUSH0 PUSH2 0xCA2 DUP3 PUSH2 0x95A JUMP JUMPDEST SWAP2 POP PUSH2 0xCAD DUP4 PUSH2 0x95A JUMP JUMPDEST SWAP3 POP DUP3 DUP3 SUB SWAP1 POP DUP2 DUP2 GT ISZERO PUSH2 0xCC5 JUMPI PUSH2 0xCC4 PUSH2 0xC6B JUMP JUMPDEST JUMPDEST SWAP3 SWAP2 POP POP JUMP JUMPDEST PUSH0 PUSH2 0xCD5 DUP3 PUSH2 0x95A JUMP JUMPDEST SWAP2 POP PUSH32 0xFFFFFFFFFFFFFFFFFFFFFFFFFFFFFFFFFFFFFFFFFFFFFFFFFFFFFFFFFFFFFFFF DUP3 SUB PUSH2 0xD07 JUMPI PUSH2 0xD06 PUSH2 0xC6B JUMP JUMPDEST JUMPDEST PUSH1 0x1 DUP3 ADD SWAP1 POP SWAP2 SWAP1 POP JUMP INVALID LOG2 PUSH5 0x6970667358 0x22 SLT KECCAK256 0xA9 SWAP15 PUSH16 0xB93924600622FC8EE6BA545CF74F38A7 0xE2 0xCF CODECOPY DUP1 SDIV 0xC2 RETURN 0xB5 0x21 0xB6 0xD3 SWAP12 AND PUSH5 0x736F6C6343 STOP ADDMOD BYTE STOP CALLER "
				},
				"gasEstimates": {
					"creation": {
						"codeDepositCost": "680000",
						"executionCost": "infinite",
						"totalCost": "infinite"
					},
					"external": {
						"checkOnce()": "2585",
						"checkUpkeep(bytes)": "infinite",
						"counter()": "2514",
						"doWee()": "26707",
						"interval()": "2447",
						"lastTimeStamp()": "2448",
						"off()": "infinite",
						"owner()": "2604",
						"performUpkeep(bytes)": "108547",
						"realInterval()": "2471",
						"renounceOwnership()": "infinite",
						"s_forwarderAddress()": "2532",
						"setForwarderAddress(address)": "infinite",
						"setInterval(uint256,uint256)": "infinite",
						"startingTime()": "2515",
						"transferOwnership(address)": "infinite",
						"weeklyTransfer()": "26754"
					}
				},
				"methodIdentifiers": {
					"checkOnce()": "30e3f8f8",
					"checkUpkeep(bytes)": "6e04ff0d",
					"counter()": "61bc221a",
					"doWee()": "b7106f9e",
					"interval()": "947a36fb",
					"lastTimeStamp()": "3f3b3b27",
					"off()": "6626b26d",
					"owner()": "8da5cb5b",
					"performUpkeep(bytes)": "4585e33b",
					"realInterval()": "30cac972",
					"renounceOwnership()": "715018a6",
					"s_forwarderAddress()": "3070fbf8",
					"setForwarderAddress(address)": "d777cc6d",
					"setInterval(uint256,uint256)": "5f17e616",
					"startingTime()": "39518b5e",
					"transferOwnership(address)": "f2fde38b",
					"weeklyTransfer()": "e9c68e2c"
				}
			},
			"storageLayout": {
				"storage": [
					{
						"astId": 53,
						"contract": "DripWarrior/checckUpKep_flattened.sol:CounterwForwarder",
						"label": "_owner",
						"offset": 0,
						"slot": "0",
						"type": "t_address"
					},
					{
						"astId": 200,
						"contract": "DripWarrior/checckUpKep_flattened.sol:CounterwForwarder",
						"label": "counter",
						"offset": 0,
						"slot": "1",
						"type": "t_uint256"
					},
					{
						"astId": 202,
						"contract": "DripWarrior/checckUpKep_flattened.sol:CounterwForwarder",
						"label": "interval",
						"offset": 0,
						"slot": "2",
						"type": "t_uint256"
					},
					{
						"astId": 204,
						"contract": "DripWarrior/checckUpKep_flattened.sol:CounterwForwarder",
						"label": "realInterval",
						"offset": 0,
						"slot": "3",
						"type": "t_uint256"
					},
					{
						"astId": 206,
						"contract": "DripWarrior/checckUpKep_flattened.sol:CounterwForwarder",
						"label": "startingTime",
						"offset": 0,
						"slot": "4",
						"type": "t_uint256"
					},
					{
						"astId": 208,
						"contract": "DripWarrior/checckUpKep_flattened.sol:CounterwForwarder",
						"label": "lastTimeStamp",
						"offset": 0,
						"slot": "5",
						"type": "t_uint256"
					},
					{
						"astId": 210,
						"contract": "DripWarrior/checckUpKep_flattened.sol:CounterwForwarder",
						"label": "s_forwarderAddress",
						"offset": 0,
						"slot": "6",
						"type": "t_address"
					},
					{
						"astId": 212,
						"contract": "DripWarrior/checckUpKep_flattened.sol:CounterwForwarder",
						"label": "checkOnce",
						"offset": 20,
						"slot": "6",
						"type": "t_bool"
					}
				],
				"types": {
					"t_address": {
						"encoding": "inplace",
						"label": "address",
						"numberOfBytes": "20"
					},
					"t_bool": {
						"encoding": "inplace",
						"label": "bool",
						"numberOfBytes": "1"
					},
					"t_uint256": {
						"encoding": "inplace",
						"label": "uint256",
						"numberOfBytes": "32"
					}
				}
			},
			"userdoc": {
				"kind": "user",
				"methods": {
					"setForwarderAddress(address)": {
						"notice": "Set the address that `performUpkeep` is called from"
					}
				},
				"notice": "THIS IS AN EXAMPLE CONTRACT THAT USES HARDCODED VALUES FOR CLARITY. THIS IS AN EXAMPLE CONTRACT THAT USES UN-AUDITED CODE. DO NOT USE THIS CODE IN PRODUCTION.",
				"version": 1
			}
		}
	}
}