{
	"DripWarrior/checckUpKep_flattened.sol": {
		"CounterwForwarder": {
			"abi": [
				{
					"inputs": [],
					"stateMutability": "nonpayable",
					"type": "constructor"
				},
				{
					"inputs": [
						{
							"internalType": "address",
							"name": "owner",
							"type": "address"
						}
					],
					"name": "OwnableInvalidOwner",
					"type": "error"
				},
				{
					"inputs": [
						{
							"internalType": "address",
							"name": "account",
							"type": "address"
						}
					],
					"name": "OwnableUnauthorizedAccount",
					"type": "error"
				},
				{
					"inputs": [
						{
							"internalType": "uint256",
							"name": "updateInterval",
							"type": "uint256"
						}
					],
					"name": "wrongInterval",
					"type": "error"
				},
				{
					"inputs": [
						{
							"internalType": "uint256",
							"name": "time",
							"type": "uint256"
						}
					],
					"name": "wrongTime",
					"type": "error"
				},
				{
					"anonymous": false,
					"inputs": [
						{
							"indexed": true,
							"internalType": "address",
							"name": "previousOwner",
							"type": "address"
						},
						{
							"indexed": true,
							"internalType": "address",
							"name": "newOwner",
							"type": "address"
						}
					],
					"name": "OwnershipTransferred",
					"type": "event"
				},
				{
					"inputs": [],
					"name": "checkOnce",
					"outputs": [
						{
							"internalType": "bool",
							"name": "",
							"type": "bool"
						}
					],
					"stateMutability": "view",
					"type": "function"
				},
				{
					"inputs": [
						{
							"internalType": "bytes",
							"name": "",
							"type": "bytes"
						}
					],
					"name": "checkUpkeep",
					"outputs": [
						{
							"internalType": "bool",
							"name": "",
							"type": "bool"
						},
						{
							"internalType": "bytes",
							"name": "",
							"type": "bytes"
						}
					],
					"stateMutability": "view",
					"type": "function"
				},
				{
					"inputs": [],
					"name": "counter",
					"outputs": [
						{
							"internalType": "uint256",
							"name": "",
							"type": "uint256"
						}
					],
					"stateMutability": "view",
					"type": "function"
				},
				{
					"inputs": [],
					"name": "doWee",
					"outputs": [],
					"stateMutability": "nonpayable",
					"type": "function"
				},
				{
					"inputs": [],
					"name": "interval",
					"outputs": [
						{
							"internalType": "uint256",
							"name": "",
							"type": "uint256"
						}
					],
					"stateMutability": "view",
					"type": "function"
				},
				{
					"inputs": [],
					"name": "lastTimeStamp",
					"outputs": [
						{
							"internalType": "uint256",
							"name": "",
							"type": "uint256"
						}
					],
					"stateMutability": "view",
					"type": "function"
				},
				{
					"inputs": [],
					"name": "off",
					"outputs": [],
					"stateMutability": "nonpayable",
					"type": "function"
				},
				{
					"inputs": [],
					"name": "owner",
					"outputs": [
						{
							"internalType": "address",
							"name": "",
							"type": "address"
						}
					],
					"stateMutability": "view",
					"type": "function"
				},
				{
					"inputs": [
						{
							"internalType": "bytes",
							"name": "",
							"type": "bytes"
						}
					],
					"name": "performUpkeep",
					"outputs": [],
					"stateMutability": "nonpayable",
					"type": "function"
				},
				{
					"inputs": [],
					"name": "realInterval",
					"outputs": [
						{
							"internalType": "uint256",
							"name": "",
							"type": "uint256"
						}
					],
					"stateMutability": "view",
					"type": "function"
				},
				{
					"inputs": [],
					"name": "renounceOwnership",
					"outputs": [],
					"stateMutability": "nonpayable",
					"type": "function"
				},
				{
					"inputs": [],
					"name": "s_forwarderAddress",
					"outputs": [
						{
							"internalType": "address",
							"name": "",
							"type": "address"
						}
					],
					"stateMutability": "view",
					"type": "function"
				},
				{
					"inputs": [
						{
							"internalType": "address",
							"name": "forwarderAddress",
							"type": "address"
						}
					],
					"name": "setForwarderAddress",
					"outputs": [],
					"stateMutability": "nonpayable",
					"type": "function"
				},
				{
					"inputs": [
						{
							"internalType": "uint256",
							"name": "_startingTime",
							"type": "uint256"
						},
						{
							"internalType": "uint256",
							"name": "updateInterval",
							"type": "uint256"
						}
					],
					"name": "setInterval",
					"outputs": [],
					"stateMutability": "nonpayable",
					"type": "function"
				},
				{
					"inputs": [],
					"name": "startingTime",
					"outputs": [
						{
							"internalType": "uint256",
							"name": "",
							"type": "uint256"
						}
					],
					"stateMutability": "view",
					"type": "function"
				},
				{
					"inputs": [
						{
							"internalType": "address",
							"name": "newOwner",
							"type": "address"
						}
					],
					"name": "transferOwnership",
					"outputs": [],
					"stateMutability": "nonpayable",
					"type": "function"
				},
				{
					"inputs": [],
					"name": "weeklyTransfer",
					"outputs": [],
					"stateMutability": "nonpayable",
					"type": "function"
				}
			],
			"devdoc": {
				"errors": {
					"OwnableInvalidOwner(address)": [
						{
							"details": "The owner is not a valid owner account. (eg. `address(0)`)"
						}
					],
					"OwnableUnauthorizedAccount(address)": [
						{
							"details": "The caller account is not authorized to perform an operation."
						}
					]
				},
				"kind": "dev",
				"methods": {
					"owner()": {
						"details": "Returns the address of the current owner."
					},
					"renounceOwnership()": {
						"details": "Leaves the contract without owner. It will not be possible to call `onlyOwner` functions. Can only be called by the current owner. NOTE: Renouncing ownership will leave the contract without an owner, thereby disabling any functionality that is only available to the owner."
					},
					"setForwarderAddress(address)": {
						"details": "Only callable by the owner",
						"params": {
							"forwarderAddress": "the address to set"
						}
					},
					"transferOwnership(address)": {
						"details": "Transfers ownership of the contract to a new account (`newOwner`). Can only be called by the current owner."
					}
				},
				"version": 1
			},
			"evm": {
				"assembly": "    /* \"DripWarrior/checckUpKep_flattened.sol\":6858:9865  contract CounterwForwarder is AutomationCompatibleInterface,Ownable {... */\n  mstore(0x40, 0x80)\n    /* \"DripWarrior/checckUpKep_flattened.sol\":7464:7513  constructor()Ownable(msg.sender) {... */\n  callvalue\n  dup1\n  iszero\n  tag_1\n  jumpi\n  0x00\n  dup1\n  revert\ntag_1:\n  pop\n    /* \"DripWarrior/checckUpKep_flattened.sol\":7485:7495  msg.sender */\n  caller\n  dup1\n    /* \"DripWarrior/checckUpKep_flattened.sol\":4653:4748  if (initialOwner == address(0)) {... */\n  tag_5\n  jumpi\n    /* \"DripWarrior/checckUpKep_flattened.sol\":4706:4737  OwnableInvalidOwner(address(0)) */\n  mload(0x40)\n  shl(0xe0, 0x1e4fbdf7)\n  dup2\n  mstore\n    /* \"DripWarrior/checckUpKep_flattened.sol\":4734:4735  0 */\n  0x00\n    /* \"DripWarrior/checckUpKep_flattened.sol\":4706:4737  OwnableInvalidOwner(address(0)) */\n  0x04\n  dup3\n  add\n    /* \"#utility.yul\":160:211   */\n  mstore\n    /* \"#utility.yul\":133:151   */\n  0x24\n  add\n    /* \"DripWarrior/checckUpKep_flattened.sol\":4706:4737  OwnableInvalidOwner(address(0)) */\n  mload(0x40)\n  dup1\n  swap2\n  sub\n  swap1\n  revert\n    /* \"DripWarrior/checckUpKep_flattened.sol\":4653:4748  if (initialOwner == address(0)) {... */\ntag_5:\n    /* \"DripWarrior/checckUpKep_flattened.sol\":4757:4789  _transferOwnership(initialOwner) */\n  tag_8\n    /* \"DripWarrior/checckUpKep_flattened.sol\":4776:4788  initialOwner */\n  dup2\n    /* \"DripWarrior/checckUpKep_flattened.sol\":4757:4775  _transferOwnership */\n  tag_9\n    /* \"DripWarrior/checckUpKep_flattened.sol\":4757:4789  _transferOwnership(initialOwner) */\n  jump\t// in\ntag_8:\n    /* \"DripWarrior/checckUpKep_flattened.sol\":4609:4796  constructor(address initialOwner) {... */\n  pop\n    /* \"DripWarrior/checckUpKep_flattened.sol\":6858:9865  contract CounterwForwarder is AutomationCompatibleInterface,Ownable {... */\n  jump(tag_13)\n    /* \"DripWarrior/checckUpKep_flattened.sol\":6296:6483  function _transferOwnership(address newOwner) internal virtual {... */\ntag_9:\n    /* \"DripWarrior/checckUpKep_flattened.sol\":6369:6385  address oldOwner */\n  0x00\n    /* \"DripWarrior/checckUpKep_flattened.sol\":6388:6394  _owner */\n  dup1\n  sload\n  sub(shl(0xa0, 0x01), 0x01)\n    /* \"DripWarrior/checckUpKep_flattened.sol\":6404:6421  _owner = newOwner */\n  dup4\n  dup2\n  and\n  not(sub(shl(0xa0, 0x01), 0x01))\n  dup4\n  and\n  dup2\n  or\n  dup5\n  sstore\n    /* \"DripWarrior/checckUpKep_flattened.sol\":6436:6476  OwnershipTransferred(oldOwner, newOwner) */\n  mload(0x40)\n    /* \"DripWarrior/checckUpKep_flattened.sol\":6388:6394  _owner */\n  swap2\n  swap1\n  swap3\n  and\n  swap3\n  dup4\n  swap2\n    /* \"DripWarrior/checckUpKep_flattened.sol\":6436:6476  OwnershipTransferred(oldOwner, newOwner) */\n  0x8be0079c531659141344cd1fd0a4f28419497f9722a3daafe3b4186f6b6457e0\n  swap2\n    /* \"DripWarrior/checckUpKep_flattened.sol\":6369:6385  address oldOwner */\n  swap1\n    /* \"DripWarrior/checckUpKep_flattened.sol\":6436:6476  OwnershipTransferred(oldOwner, newOwner) */\n  log3\n    /* \"DripWarrior/checckUpKep_flattened.sol\":6359:6483  {... */\n  pop\n    /* \"DripWarrior/checckUpKep_flattened.sol\":6296:6483  function _transferOwnership(address newOwner) internal virtual {... */\n  pop\n  jump\t// out\n    /* \"#utility.yul\":14:217   */\ntag_13:\n    /* \"DripWarrior/checckUpKep_flattened.sol\":6858:9865  contract CounterwForwarder is AutomationCompatibleInterface,Ownable {... */\n  dataSize(sub_0)\n  dup1\n  dataOffset(sub_0)\n  0x00\n  codecopy\n  0x00\n  return\nstop\n\nsub_0: assembly {\n        /* \"DripWarrior/checckUpKep_flattened.sol\":6858:9865  contract CounterwForwarder is AutomationCompatibleInterface,Ownable {... */\n      mstore(0x40, 0x80)\n      callvalue\n      dup1\n      iszero\n      tag_1\n      jumpi\n      0x00\n      dup1\n      revert\n    tag_1:\n      pop\n      jumpi(tag_2, lt(calldatasize, 0x04))\n      shr(0xe0, calldataload(0x00))\n      dup1\n      0x6626b26d\n      gt\n      tag_20\n      jumpi\n      dup1\n      0x947a36fb\n      gt\n      tag_21\n      jumpi\n      dup1\n      0x947a36fb\n      eq\n      tag_15\n      jumpi\n      dup1\n      0xb7106f9e\n      eq\n      tag_16\n      jumpi\n      dup1\n      0xd777cc6d\n      eq\n      tag_17\n      jumpi\n      dup1\n      0xe9c68e2c\n      eq\n      tag_18\n      jumpi\n      dup1\n      0xf2fde38b\n      eq\n      tag_19\n      jumpi\n      0x00\n      dup1\n      revert\n    tag_21:\n      dup1\n      0x6626b26d\n      eq\n      tag_11\n      jumpi\n      dup1\n      0x6e04ff0d\n      eq\n      tag_12\n      jumpi\n      dup1\n      0x715018a6\n      eq\n      tag_13\n      jumpi\n      dup1\n      0x8da5cb5b\n      eq\n      tag_14\n      jumpi\n      0x00\n      dup1\n      revert\n    tag_20:\n      dup1\n      0x3f3b3b27\n      gt\n      tag_22\n      jumpi\n      dup1\n      0x3f3b3b27\n      eq\n      tag_7\n      jumpi\n      dup1\n      0x4585e33b\n      eq\n      tag_8\n      jumpi\n      dup1\n      0x5f17e616\n      eq\n      tag_9\n      jumpi\n      dup1\n      0x61bc221a\n      eq\n      tag_10\n      jumpi\n      0x00\n      dup1\n      revert\n    tag_22:\n      dup1\n      0x3070fbf8\n      eq\n      tag_3\n      jumpi\n      dup1\n      0x30cac972\n      eq\n      tag_4\n      jumpi\n      dup1\n      0x30e3f8f8\n      eq\n      tag_5\n      jumpi\n      dup1\n      0x39518b5e\n      eq\n      tag_6\n      jumpi\n    tag_2:\n      0x00\n      dup1\n      revert\n        /* \"DripWarrior/checckUpKep_flattened.sol\":7297:7330  address public s_forwarderAddress */\n    tag_3:\n      sload(0x06)\n      tag_23\n      swap1\n      sub(shl(0xa0, 0x01), 0x01)\n      and\n      dup2\n      jump\n    tag_23:\n      mload(0x40)\n      sub(shl(0xa0, 0x01), 0x01)\n        /* \"#utility.yul\":178:210   */\n      swap1\n      swap2\n      and\n        /* \"#utility.yul\":160:211   */\n      dup2\n      mstore\n        /* \"#utility.yul\":148:150   */\n      0x20\n        /* \"#utility.yul\":133:151   */\n      add\n        /* \"DripWarrior/checckUpKep_flattened.sol\":7297:7330  address public s_forwarderAddress */\n    tag_25:\n      mload(0x40)\n      dup1\n      swap2\n      sub\n      swap1\n      return\n        /* \"DripWarrior/checckUpKep_flattened.sol\":7095:7122  uint256 public realInterval */\n    tag_4:\n      tag_27\n      sload(0x03)\n      dup2\n      jump\n    tag_27:\n      mload(0x40)\n        /* \"#utility.yul\":368:393   */\n      swap1\n      dup2\n      mstore\n        /* \"#utility.yul\":356:358   */\n      0x20\n        /* \"#utility.yul\":341:359   */\n      add\n        /* \"DripWarrior/checckUpKep_flattened.sol\":7095:7122  uint256 public realInterval */\n      tag_25\n        /* \"#utility.yul\":222:399   */\n      jump\n        /* \"DripWarrior/checckUpKep_flattened.sol\":7341:7362  bool public checkOnce */\n    tag_5:\n      sload(0x06)\n      tag_31\n      swap1\n      shl(0xa0, 0x01)\n      swap1\n      div\n      0xff\n      and\n      dup2\n      jump\n    tag_31:\n      mload(0x40)\n        /* \"#utility.yul\":569:583   */\n      swap1\n      iszero\n        /* \"#utility.yul\":562:584   */\n      iszero\n        /* \"#utility.yul\":544:585   */\n      dup2\n      mstore\n        /* \"#utility.yul\":532:534   */\n      0x20\n        /* \"#utility.yul\":517:535   */\n      add\n        /* \"DripWarrior/checckUpKep_flattened.sol\":7341:7362  bool public checkOnce */\n      tag_25\n        /* \"#utility.yul\":404:591   */\n      jump\n        /* \"DripWarrior/checckUpKep_flattened.sol\":7175:7202  uint256 public startingTime */\n    tag_6:\n      tag_27\n      sload(0x04)\n      dup2\n      jump\n        /* \"DripWarrior/checckUpKep_flattened.sol\":7208:7236  uint256 public lastTimeStamp */\n    tag_7:\n      tag_27\n      sload(0x05)\n      dup2\n      jump\n        /* \"DripWarrior/checckUpKep_flattened.sol\":7752:8583  function performUpkeep(bytes calldata /*performData*/) external override {... */\n    tag_8:\n      tag_41\n      tag_42\n      calldatasize\n      0x04\n      tag_43\n      jump\t// in\n    tag_42:\n      tag_44\n      jump\t// in\n    tag_41:\n      stop\n        /* \"DripWarrior/checckUpKep_flattened.sol\":8590:9136  function setInterval (uint256 _startingTime, uint256 updateInterval) external  onlyOwner{... */\n    tag_9:\n      tag_41\n      tag_46\n      calldatasize\n      0x04\n      tag_47\n      jump\t// in\n    tag_46:\n      tag_48\n      jump\t// in\n        /* \"DripWarrior/checckUpKep_flattened.sol\":6937:6959  uint256 public counter */\n    tag_10:\n      tag_27\n      sload(0x01)\n      dup2\n      jump\n        /* \"DripWarrior/checckUpKep_flattened.sol\":9142:9250  function off () external  onlyOwner{... */\n    tag_11:\n      tag_41\n      tag_53\n      jump\t// in\n        /* \"DripWarrior/checckUpKep_flattened.sol\":7519:7745  function checkUpkeep(bytes calldata /*checkData*/) external override view  returns (bool, bytes memory) {... */\n    tag_12:\n      tag_54\n      tag_55\n      calldatasize\n      0x04\n      tag_43\n      jump\t// in\n    tag_55:\n      tag_56\n      jump\t// in\n    tag_54:\n      mload(0x40)\n      tag_25\n      swap3\n      swap2\n      swap1\n      tag_58\n      jump\t// in\n        /* \"DripWarrior/checckUpKep_flattened.sol\":5677:5778  function renounceOwnership() public virtual onlyOwner {... */\n    tag_13:\n      tag_41\n      tag_60\n      jump\t// in\n        /* \"DripWarrior/checckUpKep_flattened.sol\":5022:5107  function owner() public view virtual returns (address) {... */\n    tag_14:\n        /* \"DripWarrior/checckUpKep_flattened.sol\":5068:5075  address */\n      0x00\n        /* \"DripWarrior/checckUpKep_flattened.sol\":5094:5100  _owner */\n      sload\n      sub(shl(0xa0, 0x01), 0x01)\n      and\n        /* \"DripWarrior/checckUpKep_flattened.sol\":5022:5107  function owner() public view virtual returns (address) {... */\n      jump(tag_23)\n        /* \"DripWarrior/checckUpKep_flattened.sol\":7015:7038  uint256 public interval */\n    tag_15:\n      tag_27\n      sload(0x02)\n      dup2\n      jump\n        /* \"DripWarrior/checckUpKep_flattened.sol\":9764:9863  function doWee() public {... */\n    tag_16:\n      tag_41\n      tag_68\n      jump\t// in\n        /* \"DripWarrior/checckUpKep_flattened.sol\":9630:9758  function setForwarderAddress(address forwarderAddress) external onlyOwner {... */\n    tag_17:\n      tag_41\n      tag_70\n      calldatasize\n      0x04\n      tag_71\n      jump\t// in\n    tag_70:\n      tag_72\n      jump\t// in\n        /* \"DripWarrior/checckUpKep_flattened.sol\":9256:9465  function weeklyTransfer() public  {... */\n    tag_18:\n      tag_41\n      tag_74\n      jump\t// in\n        /* \"DripWarrior/checckUpKep_flattened.sol\":5927:6142  function transferOwnership(address newOwner) public virtual onlyOwner {... */\n    tag_19:\n      tag_41\n      tag_76\n      calldatasize\n      0x04\n      tag_71\n      jump\t// in\n    tag_76:\n      tag_77\n      jump\t// in\n        /* \"DripWarrior/checckUpKep_flattened.sol\":7752:8583  function performUpkeep(bytes calldata /*performData*/) external override {... */\n    tag_44:\n        /* \"DripWarrior/checckUpKep_flattened.sol\":7880:7898  s_forwarderAddress */\n      and(sub(shl(0xa0, 0x01), 0x01), sload(0x06))\n        /* \"DripWarrior/checckUpKep_flattened.sol\":7866:7876  msg.sender */\n      caller\n        /* \"DripWarrior/checckUpKep_flattened.sol\":7866:7898  msg.sender == s_forwarderAddress */\n      eq\n        /* \"DripWarrior/checckUpKep_flattened.sol\":7845:7983  require(... */\n      tag_79\n      jumpi\n      mload(0x40)\n      shl(0xe5, 0x461bcd)\n      dup2\n      mstore\n      0x04\n      add\n      tag_80\n      swap1\n      tag_81\n      jump\t// in\n    tag_80:\n      mload(0x40)\n      dup1\n      swap2\n      sub\n      swap1\n      revert\n    tag_79:\n        /* \"DripWarrior/checckUpKep_flattened.sol\":8005:8013  interval */\n      sload(0x02)\n        /* \"DripWarrior/checckUpKep_flattened.sol\":8017:8018  0 */\n      0x00\n        /* \"DripWarrior/checckUpKep_flattened.sol\":8005:8018  interval == 0 */\n      sub\n        /* \"DripWarrior/checckUpKep_flattened.sol\":8001:8074  if (interval == 0){... */\n      tag_82\n      jumpi\n        /* \"DripWarrior/checckUpKep_flattened.sol\":8054:8062  interval */\n      sload(0x02)\n        /* \"DripWarrior/checckUpKep_flattened.sol\":8040:8063  wrongInterval(interval) */\n      mload(0x40)\n      shl(0xe0, 0x71540007)\n      dup2\n      mstore\n      0x04\n      add\n      tag_80\n      swap2\n        /* \"#utility.yul\":368:393   */\n      dup2\n      mstore\n        /* \"#utility.yul\":356:358   */\n      0x20\n        /* \"#utility.yul\":341:359   */\n      add\n      swap1\n        /* \"#utility.yul\":222:399   */\n      jump\n        /* \"DripWarrior/checckUpKep_flattened.sol\":8001:8074  if (interval == 0){... */\n    tag_82:\n        /* \"DripWarrior/checckUpKep_flattened.sol\":8096:8105  checkOnce */\n      sload(0x06)\n      shl(0xa0, 0x01)\n      swap1\n      div\n      0xff\n      and\n        /* \"DripWarrior/checckUpKep_flattened.sol\":8092:8496  if(!checkOnce){... */\n      tag_84\n      jumpi\n        /* \"DripWarrior/checckUpKep_flattened.sol\":8143:8155  startingTime */\n      sload(0x04)\n        /* \"DripWarrior/checckUpKep_flattened.sol\":8124:8139  block.timestamp */\n      timestamp\n        /* \"DripWarrior/checckUpKep_flattened.sol\":8124:8155  block.timestamp >= startingTime */\n      lt\n        /* \"DripWarrior/checckUpKep_flattened.sol\":8121:8375  if(block.timestamp >= startingTime){... */\n      tag_85\n      jumpi\n        /* \"DripWarrior/checckUpKep_flattened.sol\":8190:8205  block.timestamp */\n      timestamp\n        /* \"DripWarrior/checckUpKep_flattened.sol\":8174:8187  lastTimeStamp */\n      0x05\n        /* \"DripWarrior/checckUpKep_flattened.sol\":8174:8205  lastTimeStamp = block.timestamp */\n      sstore\n        /* \"DripWarrior/checckUpKep_flattened.sol\":8223:8239  weeklyTransfer() */\n      tag_86\n        /* \"DripWarrior/checckUpKep_flattened.sol\":8223:8237  weeklyTransfer */\n      tag_74\n        /* \"DripWarrior/checckUpKep_flattened.sol\":8223:8239  weeklyTransfer() */\n      jump\t// in\n    tag_86:\n        /* \"DripWarrior/checckUpKep_flattened.sol\":8268:8280  realInterval */\n      sload(0x03)\n        /* \"DripWarrior/checckUpKep_flattened.sol\":8257:8265  interval */\n      0x02\n        /* \"DripWarrior/checckUpKep_flattened.sol\":8257:8280  interval = realInterval */\n      sstore\n        /* \"DripWarrior/checckUpKep_flattened.sol\":8092:8496  if(!checkOnce){... */\n      jump(tag_90)\n        /* \"DripWarrior/checckUpKep_flattened.sol\":8121:8375  if(block.timestamp >= startingTime){... */\n    tag_85:\n        /* \"DripWarrior/checckUpKep_flattened.sol\":8347:8359  startingTime */\n      0x04\n      dup1\n      sload\n        /* \"DripWarrior/checckUpKep_flattened.sol\":8337:8360  wrongTime(startingTime) */\n      mload(0x40)\n      shl(0xe0, 0x54593e75)\n      dup2\n      mstore\n      swap2\n      dup3\n      add\n        /* \"#utility.yul\":368:393   */\n      mstore\n        /* \"#utility.yul\":341:359   */\n      0x24\n      add\n        /* \"DripWarrior/checckUpKep_flattened.sol\":8337:8360  wrongTime(startingTime) */\n      tag_80\n        /* \"#utility.yul\":222:399   */\n      jump\n        /* \"DripWarrior/checckUpKep_flattened.sol\":8092:8496  if(!checkOnce){... */\n    tag_84:\n        /* \"DripWarrior/checckUpKep_flattened.sol\":8440:8455  block.timestamp */\n      timestamp\n        /* \"DripWarrior/checckUpKep_flattened.sol\":8424:8437  lastTimeStamp */\n      0x05\n        /* \"DripWarrior/checckUpKep_flattened.sol\":8424:8455  lastTimeStamp = block.timestamp */\n      sstore\n        /* \"DripWarrior/checckUpKep_flattened.sol\":8469:8485  weeklyTransfer() */\n      tag_90\n        /* \"DripWarrior/checckUpKep_flattened.sol\":8469:8483  weeklyTransfer */\n      tag_74\n        /* \"DripWarrior/checckUpKep_flattened.sol\":8469:8485  weeklyTransfer() */\n      jump\t// in\n    tag_90:\n        /* \"DripWarrior/checckUpKep_flattened.sol\":8517:8526  checkOnce */\n      sload(0x06)\n      shl(0xa0, 0x01)\n      swap1\n      div\n      0xff\n      and\n        /* \"DripWarrior/checckUpKep_flattened.sol\":8513:8568  if(!checkOnce){... */\n      tag_91\n      jumpi\n        /* \"DripWarrior/checckUpKep_flattened.sol\":8541:8550  checkOnce */\n      0x06\n        /* \"DripWarrior/checckUpKep_flattened.sol\":8541:8557  checkOnce = true */\n      dup1\n      sload\n      not(shl(0xa0, 0xff))\n      and\n      shl(0xa0, 0x01)\n      or\n      swap1\n      sstore\n        /* \"DripWarrior/checckUpKep_flattened.sol\":8513:8568  if(!checkOnce){... */\n    tag_91:\n        /* \"DripWarrior/checckUpKep_flattened.sol\":7752:8583  function performUpkeep(bytes calldata /*performData*/) external override {... */\n      pop\n      pop\n      jump\t// out\n        /* \"DripWarrior/checckUpKep_flattened.sol\":8590:9136  function setInterval (uint256 _startingTime, uint256 updateInterval) external  onlyOwner{... */\n    tag_48:\n        /* \"DripWarrior/checckUpKep_flattened.sol\":4915:4928  _checkOwner() */\n      tag_93\n        /* \"DripWarrior/checckUpKep_flattened.sol\":4915:4926  _checkOwner */\n      tag_94\n        /* \"DripWarrior/checckUpKep_flattened.sol\":4915:4928  _checkOwner() */\n      jump\t// in\n    tag_93:\n        /* \"DripWarrior/checckUpKep_flattened.sol\":8719:8720  0 */\n      0x00\n        /* \"DripWarrior/checckUpKep_flattened.sol\":8701:8715  updateInterval */\n      dup2\n        /* \"DripWarrior/checckUpKep_flattened.sol\":8701:8720  updateInterval <= 0 */\n      gt\n        /* \"DripWarrior/checckUpKep_flattened.sol\":8698:8782  if(updateInterval <= 0){... */\n      tag_96\n      jumpi\n        /* \"DripWarrior/checckUpKep_flattened.sol\":8742:8771  wrongInterval(updateInterval) */\n      mload(0x40)\n      shl(0xe0, 0x71540007)\n      dup2\n      mstore\n      0x04\n      dup2\n      add\n        /* \"#utility.yul\":368:393   */\n      dup3\n      swap1\n      mstore\n        /* \"#utility.yul\":341:359   */\n      0x24\n      add\n        /* \"DripWarrior/checckUpKep_flattened.sol\":8742:8771  wrongInterval(updateInterval) */\n      tag_80\n        /* \"#utility.yul\":222:399   */\n      jump\n        /* \"DripWarrior/checckUpKep_flattened.sol\":8698:8782  if(updateInterval <= 0){... */\n    tag_96:\n        /* \"DripWarrior/checckUpKep_flattened.sol\":8819:8834  block.timestamp */\n      timestamp\n        /* \"DripWarrior/checckUpKep_flattened.sol\":8803:8816  _startingTime */\n      dup3\n        /* \"DripWarrior/checckUpKep_flattened.sol\":8803:8834  _startingTime < block.timestamp */\n      lt\n        /* \"DripWarrior/checckUpKep_flattened.sol\":8800:8891  if(_startingTime < block.timestamp){... */\n      iszero\n      tag_98\n      jumpi\n        /* \"DripWarrior/checckUpKep_flattened.sol\":8856:8880  wrongTime(_startingTime) */\n      mload(0x40)\n      shl(0xe0, 0x54593e75)\n      dup2\n      mstore\n      0x04\n      dup2\n      add\n        /* \"#utility.yul\":368:393   */\n      dup4\n      swap1\n      mstore\n        /* \"#utility.yul\":341:359   */\n      0x24\n      add\n        /* \"DripWarrior/checckUpKep_flattened.sol\":8856:8880  wrongTime(_startingTime) */\n      tag_80\n        /* \"#utility.yul\":222:399   */\n      jump\n        /* \"DripWarrior/checckUpKep_flattened.sol\":8800:8891  if(_startingTime < block.timestamp){... */\n    tag_98:\n        /* \"DripWarrior/checckUpKep_flattened.sol\":8912:8943  _startingTime - block.timestamp */\n      tag_100\n        /* \"DripWarrior/checckUpKep_flattened.sol\":8928:8943  block.timestamp */\n      timestamp\n        /* \"DripWarrior/checckUpKep_flattened.sol\":8912:8925  _startingTime */\n      dup4\n        /* \"DripWarrior/checckUpKep_flattened.sol\":8912:8943  _startingTime - block.timestamp */\n      tag_101\n      jump\t// in\n    tag_100:\n        /* \"DripWarrior/checckUpKep_flattened.sol\":8901:8909  interval */\n      0x02\n        /* \"DripWarrior/checckUpKep_flattened.sol\":8901:8943  interval = _startingTime - block.timestamp */\n      sstore\n        /* \"DripWarrior/checckUpKep_flattened.sol\":8953:8965  startingTime */\n      0x04\n        /* \"DripWarrior/checckUpKep_flattened.sol\":8953:8981  startingTime = _startingTime */\n      swap2\n      swap1\n      swap2\n      sstore\n        /* \"DripWarrior/checckUpKep_flattened.sol\":9007:9022  block.timestamp */\n      timestamp\n        /* \"DripWarrior/checckUpKep_flattened.sol\":8991:9004  lastTimeStamp */\n      0x05\n        /* \"DripWarrior/checckUpKep_flattened.sol\":8991:9022  lastTimeStamp = block.timestamp */\n      sstore\n        /* \"DripWarrior/checckUpKep_flattened.sol\":9032:9044  realInterval */\n      0x03\n        /* \"DripWarrior/checckUpKep_flattened.sol\":9032:9061  realInterval = updateInterval */\n      sstore\n        /* \"DripWarrior/checckUpKep_flattened.sol\":8590:9136  function setInterval (uint256 _startingTime, uint256 updateInterval) external  onlyOwner{... */\n      jump\t// out\n        /* \"DripWarrior/checckUpKep_flattened.sol\":9142:9250  function off () external  onlyOwner{... */\n    tag_53:\n        /* \"DripWarrior/checckUpKep_flattened.sol\":4915:4928  _checkOwner() */\n      tag_103\n        /* \"DripWarrior/checckUpKep_flattened.sol\":4915:4926  _checkOwner */\n      tag_94\n        /* \"DripWarrior/checckUpKep_flattened.sol\":4915:4928  _checkOwner() */\n      jump\t// in\n    tag_103:\n        /* \"DripWarrior/checckUpKep_flattened.sol\":9206:9207  0 */\n      0x00\n        /* \"DripWarrior/checckUpKep_flattened.sol\":9195:9203  interval */\n      0x02\n        /* \"DripWarrior/checckUpKep_flattened.sol\":9195:9207  interval = 0 */\n      sstore\n        /* \"DripWarrior/checckUpKep_flattened.sol\":9217:9226  checkOnce */\n      0x06\n        /* \"DripWarrior/checckUpKep_flattened.sol\":9217:9234  checkOnce = false */\n      dup1\n      sload\n      not(shl(0xa0, 0xff))\n      and\n      swap1\n      sstore\n        /* \"DripWarrior/checckUpKep_flattened.sol\":9142:9250  function off () external  onlyOwner{... */\n      jump\t// out\n        /* \"DripWarrior/checckUpKep_flattened.sol\":7519:7745  function checkUpkeep(bytes calldata /*checkData*/) external override view  returns (bool, bytes memory) {... */\n    tag_56:\n        /* \"DripWarrior/checckUpKep_flattened.sol\":7603:7607  bool */\n      0x00\n        /* \"DripWarrior/checckUpKep_flattened.sol\":7609:7621  bytes memory */\n      0x60\n        /* \"DripWarrior/checckUpKep_flattened.sol\":7634:7650  bool needsUpkeep */\n      0x00\n        /* \"DripWarrior/checckUpKep_flattened.sol\":7689:7697  interval */\n      sload(0x02)\n        /* \"DripWarrior/checckUpKep_flattened.sol\":7672:7685  lastTimeStamp */\n      sload(0x05)\n        /* \"DripWarrior/checckUpKep_flattened.sol\":7654:7669  block.timestamp */\n      timestamp\n        /* \"DripWarrior/checckUpKep_flattened.sol\":7654:7685  block.timestamp - lastTimeStamp */\n      tag_106\n      swap2\n      swap1\n      tag_101\n      jump\t// in\n    tag_106:\n        /* \"DripWarrior/checckUpKep_flattened.sol\":7728:7737  bytes(\"\") */\n      0x40\n      dup1\n      mload\n      0x20\n      dup2\n      add\n      swap1\n      swap2\n      mstore\n      0x00\n      dup2\n      mstore\n      swap2\n      lt\n      swap7\n      swap1\n      swap6\n      pop\n        /* \"DripWarrior/checckUpKep_flattened.sol\":7519:7745  function checkUpkeep(bytes calldata /*checkData*/) external override view  returns (bool, bytes memory) {... */\n      swap4\n      pop\n      pop\n      pop\n      pop\n      jump\t// out\n        /* \"DripWarrior/checckUpKep_flattened.sol\":5677:5778  function renounceOwnership() public virtual onlyOwner {... */\n    tag_60:\n        /* \"DripWarrior/checckUpKep_flattened.sol\":4915:4928  _checkOwner() */\n      tag_108\n        /* \"DripWarrior/checckUpKep_flattened.sol\":4915:4926  _checkOwner */\n      tag_94\n        /* \"DripWarrior/checckUpKep_flattened.sol\":4915:4928  _checkOwner() */\n      jump\t// in\n    tag_108:\n        /* \"DripWarrior/checckUpKep_flattened.sol\":5741:5771  _transferOwnership(address(0)) */\n      tag_110\n        /* \"DripWarrior/checckUpKep_flattened.sol\":5768:5769  0 */\n      0x00\n        /* \"DripWarrior/checckUpKep_flattened.sol\":5741:5759  _transferOwnership */\n      tag_111\n        /* \"DripWarrior/checckUpKep_flattened.sol\":5741:5771  _transferOwnership(address(0)) */\n      jump\t// in\n    tag_110:\n        /* \"DripWarrior/checckUpKep_flattened.sol\":5677:5778  function renounceOwnership() public virtual onlyOwner {... */\n      jump\t// out\n        /* \"DripWarrior/checckUpKep_flattened.sol\":9764:9863  function doWee() public {... */\n    tag_68:\n        /* \"DripWarrior/checckUpKep_flattened.sol\":9802:9811  checkOnce */\n      sload(0x06)\n      shl(0xa0, 0x01)\n      swap1\n      div\n      0xff\n      and\n        /* \"DripWarrior/checckUpKep_flattened.sol\":9798:9857  if(!checkOnce){... */\n      tag_110\n      jumpi\n        /* \"DripWarrior/checckUpKep_flattened.sol\":9830:9839  checkOnce */\n      0x06\n        /* \"DripWarrior/checckUpKep_flattened.sol\":9830:9846  checkOnce = true */\n      dup1\n      sload\n      not(shl(0xa0, 0xff))\n      and\n      shl(0xa0, 0x01)\n      or\n      swap1\n      sstore\n        /* \"DripWarrior/checckUpKep_flattened.sol\":9764:9863  function doWee() public {... */\n      jump\t// out\n        /* \"DripWarrior/checckUpKep_flattened.sol\":9630:9758  function setForwarderAddress(address forwarderAddress) external onlyOwner {... */\n    tag_72:\n        /* \"DripWarrior/checckUpKep_flattened.sol\":4915:4928  _checkOwner() */\n      tag_116\n        /* \"DripWarrior/checckUpKep_flattened.sol\":4915:4926  _checkOwner */\n      tag_94\n        /* \"DripWarrior/checckUpKep_flattened.sol\":4915:4928  _checkOwner() */\n      jump\t// in\n    tag_116:\n        /* \"DripWarrior/checckUpKep_flattened.sol\":9714:9732  s_forwarderAddress */\n      0x06\n        /* \"DripWarrior/checckUpKep_flattened.sol\":9714:9751  s_forwarderAddress = forwarderAddress */\n      dup1\n      sload\n      not(sub(shl(0xa0, 0x01), 0x01))\n      and\n      sub(shl(0xa0, 0x01), 0x01)\n      swap3\n      swap1\n      swap3\n      and\n      swap2\n      swap1\n      swap2\n      or\n      swap1\n      sstore\n        /* \"DripWarrior/checckUpKep_flattened.sol\":9630:9758  function setForwarderAddress(address forwarderAddress) external onlyOwner {... */\n      jump\t// out\n        /* \"DripWarrior/checckUpKep_flattened.sol\":9256:9465  function weeklyTransfer() public  {... */\n    tag_74:\n        /* \"DripWarrior/checckUpKep_flattened.sol\":9335:9353  s_forwarderAddress */\n      and(sub(shl(0xa0, 0x01), 0x01), sload(0x06))\n        /* \"DripWarrior/checckUpKep_flattened.sol\":9321:9331  msg.sender */\n      caller\n        /* \"DripWarrior/checckUpKep_flattened.sol\":9321:9353  msg.sender == s_forwarderAddress */\n      eq\n        /* \"DripWarrior/checckUpKep_flattened.sol\":9300:9438  require(... */\n      tag_119\n      jumpi\n      mload(0x40)\n      shl(0xe5, 0x461bcd)\n      dup2\n      mstore\n      0x04\n      add\n      tag_80\n      swap1\n      tag_81\n      jump\t// in\n    tag_119:\n        /* \"DripWarrior/checckUpKep_flattened.sol\":9448:9455  counter */\n      0x01\n        /* \"DripWarrior/checckUpKep_flattened.sol\":9448:9458  counter ++ */\n      dup1\n      sload\n      swap1\n        /* \"DripWarrior/checckUpKep_flattened.sol\":9448:9455  counter */\n      0x00\n        /* \"DripWarrior/checckUpKep_flattened.sol\":9448:9458  counter ++ */\n      tag_121\n      dup4\n      tag_122\n      jump\t// in\n    tag_121:\n      swap2\n      swap1\n      pop\n      sstore\n      pop\n        /* \"DripWarrior/checckUpKep_flattened.sol\":9256:9465  function weeklyTransfer() public  {... */\n      jump\t// out\n        /* \"DripWarrior/checckUpKep_flattened.sol\":5927:6142  function transferOwnership(address newOwner) public virtual onlyOwner {... */\n    tag_77:\n        /* \"DripWarrior/checckUpKep_flattened.sol\":4915:4928  _checkOwner() */\n      tag_124\n        /* \"DripWarrior/checckUpKep_flattened.sol\":4915:4926  _checkOwner */\n      tag_94\n        /* \"DripWarrior/checckUpKep_flattened.sol\":4915:4928  _checkOwner() */\n      jump\t// in\n    tag_124:\n      sub(shl(0xa0, 0x01), 0x01)\n        /* \"DripWarrior/checckUpKep_flattened.sol\":6011:6033  newOwner == address(0) */\n      dup2\n      and\n        /* \"DripWarrior/checckUpKep_flattened.sol\":6007:6098  if (newOwner == address(0)) {... */\n      tag_126\n      jumpi\n        /* \"DripWarrior/checckUpKep_flattened.sol\":6056:6087  OwnableInvalidOwner(address(0)) */\n      mload(0x40)\n      shl(0xe0, 0x1e4fbdf7)\n      dup2\n      mstore\n        /* \"DripWarrior/checckUpKep_flattened.sol\":6084:6085  0 */\n      0x00\n        /* \"DripWarrior/checckUpKep_flattened.sol\":6056:6087  OwnableInvalidOwner(address(0)) */\n      0x04\n      dup3\n      add\n        /* \"#utility.yul\":160:211   */\n      mstore\n        /* \"#utility.yul\":133:151   */\n      0x24\n      add\n        /* \"DripWarrior/checckUpKep_flattened.sol\":6056:6087  OwnableInvalidOwner(address(0)) */\n      tag_80\n        /* \"#utility.yul\":14:217   */\n      jump\n        /* \"DripWarrior/checckUpKep_flattened.sol\":6007:6098  if (newOwner == address(0)) {... */\n    tag_126:\n        /* \"DripWarrior/checckUpKep_flattened.sol\":6107:6135  _transferOwnership(newOwner) */\n      tag_128\n        /* \"DripWarrior/checckUpKep_flattened.sol\":6126:6134  newOwner */\n      dup2\n        /* \"DripWarrior/checckUpKep_flattened.sol\":6107:6125  _transferOwnership */\n      tag_111\n        /* \"DripWarrior/checckUpKep_flattened.sol\":6107:6135  _transferOwnership(newOwner) */\n      jump\t// in\n    tag_128:\n        /* \"DripWarrior/checckUpKep_flattened.sol\":5927:6142  function transferOwnership(address newOwner) public virtual onlyOwner {... */\n      pop\n      jump\t// out\n        /* \"DripWarrior/checckUpKep_flattened.sol\":5180:5342  function _checkOwner() internal view virtual {... */\n    tag_94:\n        /* \"DripWarrior/checckUpKep_flattened.sol\":5068:5075  address */\n      0x00\n        /* \"DripWarrior/checckUpKep_flattened.sol\":5094:5100  _owner */\n      sload\n      sub(shl(0xa0, 0x01), 0x01)\n      and\n        /* \"DripWarrior/checckUpKep_flattened.sol\":3179:3189  msg.sender */\n      caller\n        /* \"DripWarrior/checckUpKep_flattened.sol\":5239:5262  owner() != _msgSender() */\n      eq\n        /* \"DripWarrior/checckUpKep_flattened.sol\":5235:5336  if (owner() != _msgSender()) {... */\n      tag_110\n      jumpi\n        /* \"DripWarrior/checckUpKep_flattened.sol\":5285:5325  OwnableUnauthorizedAccount(_msgSender()) */\n      mload(0x40)\n      shl(0xe0, 0x118cdaa7)\n      dup2\n      mstore\n        /* \"DripWarrior/checckUpKep_flattened.sol\":3179:3189  msg.sender */\n      caller\n        /* \"DripWarrior/checckUpKep_flattened.sol\":5285:5325  OwnableUnauthorizedAccount(_msgSender()) */\n      0x04\n      dup3\n      add\n        /* \"#utility.yul\":160:211   */\n      mstore\n        /* \"#utility.yul\":133:151   */\n      0x24\n      add\n        /* \"DripWarrior/checckUpKep_flattened.sol\":5285:5325  OwnableUnauthorizedAccount(_msgSender()) */\n      tag_80\n        /* \"#utility.yul\":14:217   */\n      jump\n        /* \"DripWarrior/checckUpKep_flattened.sol\":6296:6483  function _transferOwnership(address newOwner) internal virtual {... */\n    tag_111:\n        /* \"DripWarrior/checckUpKep_flattened.sol\":6369:6385  address oldOwner */\n      0x00\n        /* \"DripWarrior/checckUpKep_flattened.sol\":6388:6394  _owner */\n      dup1\n      sload\n      sub(shl(0xa0, 0x01), 0x01)\n        /* \"DripWarrior/checckUpKep_flattened.sol\":6404:6421  _owner = newOwner */\n      dup4\n      dup2\n      and\n      not(sub(shl(0xa0, 0x01), 0x01))\n      dup4\n      and\n      dup2\n      or\n      dup5\n      sstore\n        /* \"DripWarrior/checckUpKep_flattened.sol\":6436:6476  OwnershipTransferred(oldOwner, newOwner) */\n      mload(0x40)\n        /* \"DripWarrior/checckUpKep_flattened.sol\":6388:6394  _owner */\n      swap2\n      swap1\n      swap3\n      and\n      swap3\n      dup4\n      swap2\n        /* \"DripWarrior/checckUpKep_flattened.sol\":6436:6476  OwnershipTransferred(oldOwner, newOwner) */\n      0x8be0079c531659141344cd1fd0a4f28419497f9722a3daafe3b4186f6b6457e0\n      swap2\n        /* \"DripWarrior/checckUpKep_flattened.sol\":6369:6385  address oldOwner */\n      swap1\n        /* \"DripWarrior/checckUpKep_flattened.sol\":6436:6476  OwnershipTransferred(oldOwner, newOwner) */\n      log3\n        /* \"DripWarrior/checckUpKep_flattened.sol\":6359:6483  {... */\n      pop\n        /* \"DripWarrior/checckUpKep_flattened.sol\":6296:6483  function _transferOwnership(address newOwner) internal virtual {... */\n      pop\n      jump\t// out\n        /* \"#utility.yul\":596:1182   */\n    tag_43:\n        /* \"#utility.yul\":666:672   */\n      0x00\n        /* \"#utility.yul\":674:680   */\n      dup1\n        /* \"#utility.yul\":727:729   */\n      0x20\n        /* \"#utility.yul\":715:724   */\n      dup4\n        /* \"#utility.yul\":706:713   */\n      dup6\n        /* \"#utility.yul\":702:725   */\n      sub\n        /* \"#utility.yul\":698:730   */\n      slt\n        /* \"#utility.yul\":695:747   */\n      iszero\n      tag_144\n      jumpi\n        /* \"#utility.yul\":743:744   */\n      0x00\n        /* \"#utility.yul\":740:741   */\n      dup1\n        /* \"#utility.yul\":733:745   */\n      revert\n        /* \"#utility.yul\":695:747   */\n    tag_144:\n        /* \"#utility.yul\":783:792   */\n      dup3\n        /* \"#utility.yul\":770:793   */\n      calldataload\n        /* \"#utility.yul\":816:834   */\n      0xffffffffffffffff\n        /* \"#utility.yul\":808:814   */\n      dup2\n        /* \"#utility.yul\":805:835   */\n      gt\n        /* \"#utility.yul\":802:852   */\n      iszero\n      tag_145\n      jumpi\n        /* \"#utility.yul\":848:849   */\n      0x00\n        /* \"#utility.yul\":845:846   */\n      dup1\n        /* \"#utility.yul\":838:850   */\n      revert\n        /* \"#utility.yul\":802:852   */\n    tag_145:\n        /* \"#utility.yul\":871:893   */\n      dup4\n      add\n        /* \"#utility.yul\":924:928   */\n      0x1f\n        /* \"#utility.yul\":916:929   */\n      dup2\n      add\n        /* \"#utility.yul\":912:939   */\n      dup6\n      sgt\n        /* \"#utility.yul\":902:957   */\n      tag_146\n      jumpi\n        /* \"#utility.yul\":953:954   */\n      0x00\n        /* \"#utility.yul\":950:951   */\n      dup1\n        /* \"#utility.yul\":943:955   */\n      revert\n        /* \"#utility.yul\":902:957   */\n    tag_146:\n        /* \"#utility.yul\":993:995   */\n      dup1\n        /* \"#utility.yul\":980:996   */\n      calldataload\n        /* \"#utility.yul\":1019:1037   */\n      0xffffffffffffffff\n        /* \"#utility.yul\":1011:1017   */\n      dup2\n        /* \"#utility.yul\":1008:1038   */\n      gt\n        /* \"#utility.yul\":1005:1055   */\n      iszero\n      tag_147\n      jumpi\n        /* \"#utility.yul\":1051:1052   */\n      0x00\n        /* \"#utility.yul\":1048:1049   */\n      dup1\n        /* \"#utility.yul\":1041:1053   */\n      revert\n        /* \"#utility.yul\":1005:1055   */\n    tag_147:\n        /* \"#utility.yul\":1096:1103   */\n      dup6\n        /* \"#utility.yul\":1091:1093   */\n      0x20\n        /* \"#utility.yul\":1082:1088   */\n      dup3\n        /* \"#utility.yul\":1078:1080   */\n      dup5\n        /* \"#utility.yul\":1074:1089   */\n      add\n        /* \"#utility.yul\":1070:1094   */\n      add\n        /* \"#utility.yul\":1067:1104   */\n      gt\n        /* \"#utility.yul\":1064:1121   */\n      iszero\n      tag_148\n      jumpi\n        /* \"#utility.yul\":1117:1118   */\n      0x00\n        /* \"#utility.yul\":1114:1115   */\n      dup1\n        /* \"#utility.yul\":1107:1119   */\n      revert\n        /* \"#utility.yul\":1064:1121   */\n    tag_148:\n        /* \"#utility.yul\":1148:1150   */\n      0x20\n        /* \"#utility.yul\":1140:1151   */\n      swap2\n      swap1\n      swap2\n      add\n      swap6\n        /* \"#utility.yul\":1170:1176   */\n      swap1\n      swap5\n      pop\n        /* \"#utility.yul\":596:1182   */\n      swap3\n      pop\n      pop\n      pop\n      jump\t// out\n        /* \"#utility.yul\":1187:1533   */\n    tag_47:\n        /* \"#utility.yul\":1255:1261   */\n      0x00\n        /* \"#utility.yul\":1263:1269   */\n      dup1\n        /* \"#utility.yul\":1316:1318   */\n      0x40\n        /* \"#utility.yul\":1304:1313   */\n      dup4\n        /* \"#utility.yul\":1295:1302   */\n      dup6\n        /* \"#utility.yul\":1291:1314   */\n      sub\n        /* \"#utility.yul\":1287:1319   */\n      slt\n        /* \"#utility.yul\":1284:1336   */\n      iszero\n      tag_150\n      jumpi\n        /* \"#utility.yul\":1332:1333   */\n      0x00\n        /* \"#utility.yul\":1329:1330   */\n      dup1\n        /* \"#utility.yul\":1322:1334   */\n      revert\n        /* \"#utility.yul\":1284:1336   */\n    tag_150:\n      pop\n      pop\n        /* \"#utility.yul\":1377:1400   */\n      dup1\n      calldataload\n      swap3\n        /* \"#utility.yul\":1497:1499   */\n      0x20\n        /* \"#utility.yul\":1482:1500   */\n      swap1\n      swap2\n      add\n        /* \"#utility.yul\":1469:1501   */\n      calldataload\n      swap2\n      pop\n        /* \"#utility.yul\":1187:1533   */\n      jump\t// out\n        /* \"#utility.yul\":1538:2035   */\n    tag_58:\n        /* \"#utility.yul\":1721:1727   */\n      dup3\n        /* \"#utility.yul\":1714:1728   */\n      iszero\n        /* \"#utility.yul\":1707:1729   */\n      iszero\n        /* \"#utility.yul\":1696:1705   */\n      dup2\n        /* \"#utility.yul\":1689:1730   */\n      mstore\n        /* \"#utility.yul\":1766:1768   */\n      0x40\n        /* \"#utility.yul\":1761:1763   */\n      0x20\n        /* \"#utility.yul\":1750:1759   */\n      dup3\n        /* \"#utility.yul\":1746:1764   */\n      add\n        /* \"#utility.yul\":1739:1769   */\n      mstore\n        /* \"#utility.yul\":1670:1674   */\n      0x00\n        /* \"#utility.yul\":1798:1804   */\n      dup3\n        /* \"#utility.yul\":1792:1805   */\n      mload\n        /* \"#utility.yul\":1841:1847   */\n      dup1\n        /* \"#utility.yul\":1836:1838   */\n      0x40\n        /* \"#utility.yul\":1825:1834   */\n      dup5\n        /* \"#utility.yul\":1821:1839   */\n      add\n        /* \"#utility.yul\":1814:1848   */\n      mstore\n        /* \"#utility.yul\":1900:1906   */\n      dup1\n        /* \"#utility.yul\":1895:1897   */\n      0x20\n        /* \"#utility.yul\":1887:1893   */\n      dup6\n        /* \"#utility.yul\":1883:1898   */\n      add\n        /* \"#utility.yul\":1878:1880   */\n      0x60\n        /* \"#utility.yul\":1867:1876   */\n      dup6\n        /* \"#utility.yul\":1863:1881   */\n      add\n        /* \"#utility.yul\":1857:1907   */\n      mcopy\n        /* \"#utility.yul\":1956:1957   */\n      0x00\n        /* \"#utility.yul\":1951:1953   */\n      0x60\n        /* \"#utility.yul\":1942:1948   */\n      dup3\n        /* \"#utility.yul\":1931:1940   */\n      dup6\n        /* \"#utility.yul\":1927:1949   */\n      add\n        /* \"#utility.yul\":1923:1954   */\n      add\n        /* \"#utility.yul\":1916:1958   */\n      mstore\n        /* \"#utility.yul\":2026:2028   */\n      0x60\n        /* \"#utility.yul\":2019:2021   */\n      0x1f\n        /* \"#utility.yul\":2015:2022   */\n      not\n        /* \"#utility.yul\":2010:2012   */\n      0x1f\n        /* \"#utility.yul\":2002:2008   */\n      dup4\n        /* \"#utility.yul\":1998:2013   */\n      add\n        /* \"#utility.yul\":1994:2023   */\n      and\n        /* \"#utility.yul\":1983:1992   */\n      dup5\n        /* \"#utility.yul\":1979:2024   */\n      add\n        /* \"#utility.yul\":1975:2029   */\n      add\n        /* \"#utility.yul\":1967:2029   */\n      swap2\n      pop\n      pop\n        /* \"#utility.yul\":1538:2035   */\n      swap4\n      swap3\n      pop\n      pop\n      pop\n      jump\t// out\n        /* \"#utility.yul\":2040:2326   */\n    tag_71:\n        /* \"#utility.yul\":2099:2105   */\n      0x00\n        /* \"#utility.yul\":2152:2154   */\n      0x20\n        /* \"#utility.yul\":2140:2149   */\n      dup3\n        /* \"#utility.yul\":2131:2138   */\n      dup5\n        /* \"#utility.yul\":2127:2150   */\n      sub\n        /* \"#utility.yul\":2123:2155   */\n      slt\n        /* \"#utility.yul\":2120:2172   */\n      iszero\n      tag_153\n      jumpi\n        /* \"#utility.yul\":2168:2169   */\n      0x00\n        /* \"#utility.yul\":2165:2166   */\n      dup1\n        /* \"#utility.yul\":2158:2170   */\n      revert\n        /* \"#utility.yul\":2120:2172   */\n    tag_153:\n        /* \"#utility.yul\":2194:2217   */\n      dup2\n      calldataload\n      sub(shl(0xa0, 0x01), 0x01)\n        /* \"#utility.yul\":2246:2277   */\n      dup2\n      and\n        /* \"#utility.yul\":2236:2278   */\n      dup2\n      eq\n        /* \"#utility.yul\":2226:2296   */\n      tag_154\n      jumpi\n        /* \"#utility.yul\":2292:2293   */\n      0x00\n        /* \"#utility.yul\":2289:2290   */\n      dup1\n        /* \"#utility.yul\":2282:2294   */\n      revert\n        /* \"#utility.yul\":2226:2296   */\n    tag_154:\n        /* \"#utility.yul\":2315:2320   */\n      swap4\n        /* \"#utility.yul\":2040:2326   */\n      swap3\n      pop\n      pop\n      pop\n      jump\t// out\n        /* \"#utility.yul\":2331:2754   */\n    tag_81:\n        /* \"#utility.yul\":2533:2535   */\n      0x20\n        /* \"#utility.yul\":2515:2536   */\n      dup1\n      dup3\n      mstore\n        /* \"#utility.yul\":2572:2574   */\n      0x3b\n        /* \"#utility.yul\":2552:2570   */\n      swap1\n      dup3\n      add\n        /* \"#utility.yul\":2545:2575   */\n      mstore\n        /* \"#utility.yul\":2611:2645   */\n      0x54686973206164647265737320646f6573206e6f742068617665207065726d69\n        /* \"#utility.yul\":2606:2608   */\n      0x40\n        /* \"#utility.yul\":2591:2609   */\n      dup3\n      add\n        /* \"#utility.yul\":2584:2646   */\n      mstore\n        /* \"#utility.yul\":2682:2711   */\n      0x7373696f6e20746f2063616c6c20706572666f726d55706b6565700000000000\n        /* \"#utility.yul\":2677:2679   */\n      0x60\n        /* \"#utility.yul\":2662:2680   */\n      dup3\n      add\n        /* \"#utility.yul\":2655:2712   */\n      mstore\n        /* \"#utility.yul\":2744:2747   */\n      0x80\n        /* \"#utility.yul\":2729:2748   */\n      add\n      swap1\n        /* \"#utility.yul\":2331:2754   */\n      jump\t// out\n        /* \"#utility.yul\":2759:2886   */\n    tag_138:\n        /* \"#utility.yul\":2820:2830   */\n      0x4e487b71\n        /* \"#utility.yul\":2815:2818   */\n      0xe0\n        /* \"#utility.yul\":2811:2831   */\n      shl\n        /* \"#utility.yul\":2808:2809   */\n      0x00\n        /* \"#utility.yul\":2801:2832   */\n      mstore\n        /* \"#utility.yul\":2851:2855   */\n      0x11\n        /* \"#utility.yul\":2848:2849   */\n      0x04\n        /* \"#utility.yul\":2841:2856   */\n      mstore\n        /* \"#utility.yul\":2875:2879   */\n      0x24\n        /* \"#utility.yul\":2872:2873   */\n      0x00\n        /* \"#utility.yul\":2865:2880   */\n      revert\n        /* \"#utility.yul\":2891:3019   */\n    tag_101:\n        /* \"#utility.yul\":2958:2967   */\n      dup2\n      dup2\n      sub\n        /* \"#utility.yul\":2979:2990   */\n      dup2\n      dup2\n      gt\n        /* \"#utility.yul\":2976:3013   */\n      iszero\n      tag_159\n      jumpi\n        /* \"#utility.yul\":2993:3011   */\n      tag_159\n      tag_138\n      jump\t// in\n    tag_159:\n        /* \"#utility.yul\":2891:3019   */\n      swap3\n      swap2\n      pop\n      pop\n      jump\t// out\n        /* \"#utility.yul\":3024:3159   */\n    tag_122:\n        /* \"#utility.yul\":3063:3066   */\n      0x00\n        /* \"#utility.yul\":3084:3101   */\n      0x01\n      dup3\n      add\n        /* \"#utility.yul\":3081:3124   */\n      tag_162\n      jumpi\n        /* \"#utility.yul\":3104:3122   */\n      tag_162\n      tag_138\n      jump\t// in\n    tag_162:\n      pop\n        /* \"#utility.yul\":3151:3152   */\n      0x01\n        /* \"#utility.yul\":3140:3153   */\n      add\n      swap1\n        /* \"#utility.yul\":3024:3159   */\n      jump\t// out\n\n    auxdata: 0xa2646970667358221220848840f1597c7dc6e9d54e21e52f8b2b99b4a556a87fe067003a9f2069ddf6b864736f6c634300081a0033\n}\n",
				"bytecode": {
					"linkReferences": {},
					"object": "6080604052348015600e575f80fd5b503380603357604051631e4fbdf760e01b81525f600482015260240160405180910390fd5b603a81603f565b50608e565b5f80546001600160a01b038381166001600160a01b0319831681178455604051919092169283917f8be0079c531659141344cd1fd0a4f28419497f9722a3daafe3b4186f6b6457e09190a35050565b6106f88061009b5f395ff3fe608060405234801561000f575f80fd5b5060043610610106575f3560e01c80636626b26d1161009e578063947a36fb1161006e578063947a36fb146101f9578063b7106f9e14610202578063d777cc6d1461020a578063e9c68e2c1461021d578063f2fde38b14610225575f80fd5b80636626b26d146101b85780636e04ff0d146101c0578063715018a6146101e15780638da5cb5b146101e9575f80fd5b80633f3b3b27116100d95780633f3b3b271461017e5780634585e33b146101875780635f17e6161461019c57806361bc221a146101af575f80fd5b80633070fbf81461010a57806330cac9721461013a57806330e3f8f81461015157806339518b5e14610175575b5f80fd5b60065461011d906001600160a01b031681565b6040516001600160a01b0390911681526020015b60405180910390f35b61014360035481565b604051908152602001610131565b60065461016590600160a01b900460ff1681565b6040519015158152602001610131565b61014360045481565b61014360055481565b61019a610195366004610527565b610238565b005b61019a6101aa366004610595565b610316565b61014360015481565b61019a610381565b6101d36101ce366004610527565b61039c565b6040516101319291906105b5565b61019a6103cc565b5f546001600160a01b031661011d565b61014360025481565b61019a6103df565b61019a6102183660046105f3565b610405565b61019a61042f565b61019a6102333660046105f3565b61046f565b6006546001600160a01b0316331461026b5760405162461bcd60e51b815260040161026290610620565b60405180910390fd5b6002545f0361029357600254604051637154000760e01b815260040161026291815260200190565b600654600160a01b900460ff166102e15760045442106102c457426005556102b961042f565b6003546002556102ed565b600480546040516354593e7560e01b815291820152602401610262565b426005556102ed61042f565b600654600160a01b900460ff16610312576006805460ff60a01b1916600160a01b1790555b5050565b61031e6104ac565b5f811161034157604051637154000760e01b815260048101829052602401610262565b42821015610365576040516354593e7560e01b815260048101839052602401610262565b61036f4283610691565b60025560049190915542600555600355565b6103896104ac565b5f6002556006805460ff60a01b19169055565b5f60605f600254600554426103b19190610691565b60408051602081019091525f81529110969095509350505050565b6103d46104ac565b6103dd5f6104d8565b565b600654600160a01b900460ff166103dd576006805460ff60a01b1916600160a01b179055565b61040d6104ac565b600680546001600160a01b0319166001600160a01b0392909216919091179055565b6006546001600160a01b031633146104595760405162461bcd60e51b815260040161026290610620565b60018054905f610468836106aa565b9190505550565b6104776104ac565b6001600160a01b0381166104a057604051631e4fbdf760e01b81525f6004820152602401610262565b6104a9816104d8565b50565b5f546001600160a01b031633146103dd5760405163118cdaa760e01b8152336004820152602401610262565b5f80546001600160a01b038381166001600160a01b0319831681178455604051919092169283917f8be0079c531659141344cd1fd0a4f28419497f9722a3daafe3b4186f6b6457e09190a35050565b5f8060208385031215610538575f80fd5b823567ffffffffffffffff81111561054e575f80fd5b8301601f8101851361055e575f80fd5b803567ffffffffffffffff811115610574575f80fd5b856020828401011115610585575f80fd5b6020919091019590945092505050565b5f80604083850312156105a6575f80fd5b50508035926020909101359150565b8215158152604060208201525f82518060408401528060208501606085015e5f606082850101526060601f19601f8301168401019150509392505050565b5f60208284031215610603575f80fd5b81356001600160a01b0381168114610619575f80fd5b9392505050565b6020808252603b908201527f54686973206164647265737320646f6573206e6f742068617665207065726d6960408201527f7373696f6e20746f2063616c6c20706572666f726d55706b6565700000000000606082015260800190565b634e487b7160e01b5f52601160045260245ffd5b818103818111156106a4576106a461067d565b92915050565b5f600182016106bb576106bb61067d565b506001019056fea2646970667358221220848840f1597c7dc6e9d54e21e52f8b2b99b4a556a87fe067003a9f2069ddf6b864736f6c634300081a0033",
					"opcodes": "PUSH1 0x80 PUSH1 0x40 MSTORE CALLVALUE DUP1 ISZERO PUSH1 0xE JUMPI PUSH0 DUP1 REVERT JUMPDEST POP CALLER DUP1 PUSH1 0x33 JUMPI PUSH1 0x40 MLOAD PUSH4 0x1E4FBDF7 PUSH1 0xE0 SHL DUP2 MSTORE PUSH0 PUSH1 0x4 DUP3 ADD MSTORE PUSH1 0x24 ADD PUSH1 0x40 MLOAD DUP1 SWAP2 SUB SWAP1 REVERT JUMPDEST PUSH1 0x3A DUP2 PUSH1 0x3F JUMP JUMPDEST POP PUSH1 0x8E JUMP JUMPDEST PUSH0 DUP1 SLOAD PUSH1 0x1 PUSH1 0x1 PUSH1 0xA0 SHL SUB DUP4 DUP2 AND PUSH1 0x1 PUSH1 0x1 PUSH1 0xA0 SHL SUB NOT DUP4 AND DUP2 OR DUP5 SSTORE PUSH1 0x40 MLOAD SWAP2 SWAP1 SWAP3 AND SWAP3 DUP4 SWAP2 PUSH32 0x8BE0079C531659141344CD1FD0A4F28419497F9722A3DAAFE3B4186F6B6457E0 SWAP2 SWAP1 LOG3 POP POP JUMP JUMPDEST PUSH2 0x6F8 DUP1 PUSH2 0x9B PUSH0 CODECOPY PUSH0 RETURN INVALID PUSH1 0x80 PUSH1 0x40 MSTORE CALLVALUE DUP1 ISZERO PUSH2 0xF JUMPI PUSH0 DUP1 REVERT JUMPDEST POP PUSH1 0x4 CALLDATASIZE LT PUSH2 0x106 JUMPI PUSH0 CALLDATALOAD PUSH1 0xE0 SHR DUP1 PUSH4 0x6626B26D GT PUSH2 0x9E JUMPI DUP1 PUSH4 0x947A36FB GT PUSH2 0x6E JUMPI DUP1 PUSH4 0x947A36FB EQ PUSH2 0x1F9 JUMPI DUP1 PUSH4 0xB7106F9E EQ PUSH2 0x202 JUMPI DUP1 PUSH4 0xD777CC6D EQ PUSH2 0x20A JUMPI DUP1 PUSH4 0xE9C68E2C EQ PUSH2 0x21D JUMPI DUP1 PUSH4 0xF2FDE38B EQ PUSH2 0x225 JUMPI PUSH0 DUP1 REVERT JUMPDEST DUP1 PUSH4 0x6626B26D EQ PUSH2 0x1B8 JUMPI DUP1 PUSH4 0x6E04FF0D EQ PUSH2 0x1C0 JUMPI DUP1 PUSH4 0x715018A6 EQ PUSH2 0x1E1 JUMPI DUP1 PUSH4 0x8DA5CB5B EQ PUSH2 0x1E9 JUMPI PUSH0 DUP1 REVERT JUMPDEST DUP1 PUSH4 0x3F3B3B27 GT PUSH2 0xD9 JUMPI DUP1 PUSH4 0x3F3B3B27 EQ PUSH2 0x17E JUMPI DUP1 PUSH4 0x4585E33B EQ PUSH2 0x187 JUMPI DUP1 PUSH4 0x5F17E616 EQ PUSH2 0x19C JUMPI DUP1 PUSH4 0x61BC221A EQ PUSH2 0x1AF JUMPI PUSH0 DUP1 REVERT JUMPDEST DUP1 PUSH4 0x3070FBF8 EQ PUSH2 0x10A JUMPI DUP1 PUSH4 0x30CAC972 EQ PUSH2 0x13A JUMPI DUP1 PUSH4 0x30E3F8F8 EQ PUSH2 0x151 JUMPI DUP1 PUSH4 0x39518B5E EQ PUSH2 0x175 JUMPI JUMPDEST PUSH0 DUP1 REVERT JUMPDEST PUSH1 0x6 SLOAD PUSH2 0x11D SWAP1 PUSH1 0x1 PUSH1 0x1 PUSH1 0xA0 SHL SUB AND DUP2 JUMP JUMPDEST PUSH1 0x40 MLOAD PUSH1 0x1 PUSH1 0x1 PUSH1 0xA0 SHL SUB SWAP1 SWAP2 AND DUP2 MSTORE PUSH1 0x20 ADD JUMPDEST PUSH1 0x40 MLOAD DUP1 SWAP2 SUB SWAP1 RETURN JUMPDEST PUSH2 0x143 PUSH1 0x3 SLOAD DUP2 JUMP JUMPDEST PUSH1 0x40 MLOAD SWAP1 DUP2 MSTORE PUSH1 0x20 ADD PUSH2 0x131 JUMP JUMPDEST PUSH1 0x6 SLOAD PUSH2 0x165 SWAP1 PUSH1 0x1 PUSH1 0xA0 SHL SWAP1 DIV PUSH1 0xFF AND DUP2 JUMP JUMPDEST PUSH1 0x40 MLOAD SWAP1 ISZERO ISZERO DUP2 MSTORE PUSH1 0x20 ADD PUSH2 0x131 JUMP JUMPDEST PUSH2 0x143 PUSH1 0x4 SLOAD DUP2 JUMP JUMPDEST PUSH2 0x143 PUSH1 0x5 SLOAD DUP2 JUMP JUMPDEST PUSH2 0x19A PUSH2 0x195 CALLDATASIZE PUSH1 0x4 PUSH2 0x527 JUMP JUMPDEST PUSH2 0x238 JUMP JUMPDEST STOP JUMPDEST PUSH2 0x19A PUSH2 0x1AA CALLDATASIZE PUSH1 0x4 PUSH2 0x595 JUMP JUMPDEST PUSH2 0x316 JUMP JUMPDEST PUSH2 0x143 PUSH1 0x1 SLOAD DUP2 JUMP JUMPDEST PUSH2 0x19A PUSH2 0x381 JUMP JUMPDEST PUSH2 0x1D3 PUSH2 0x1CE CALLDATASIZE PUSH1 0x4 PUSH2 0x527 JUMP JUMPDEST PUSH2 0x39C JUMP JUMPDEST PUSH1 0x40 MLOAD PUSH2 0x131 SWAP3 SWAP2 SWAP1 PUSH2 0x5B5 JUMP JUMPDEST PUSH2 0x19A PUSH2 0x3CC JUMP JUMPDEST PUSH0 SLOAD PUSH1 0x1 PUSH1 0x1 PUSH1 0xA0 SHL SUB AND PUSH2 0x11D JUMP JUMPDEST PUSH2 0x143 PUSH1 0x2 SLOAD DUP2 JUMP JUMPDEST PUSH2 0x19A PUSH2 0x3DF JUMP JUMPDEST PUSH2 0x19A PUSH2 0x218 CALLDATASIZE PUSH1 0x4 PUSH2 0x5F3 JUMP JUMPDEST PUSH2 0x405 JUMP JUMPDEST PUSH2 0x19A PUSH2 0x42F JUMP JUMPDEST PUSH2 0x19A PUSH2 0x233 CALLDATASIZE PUSH1 0x4 PUSH2 0x5F3 JUMP JUMPDEST PUSH2 0x46F JUMP JUMPDEST PUSH1 0x6 SLOAD PUSH1 0x1 PUSH1 0x1 PUSH1 0xA0 SHL SUB AND CALLER EQ PUSH2 0x26B JUMPI PUSH1 0x40 MLOAD PUSH3 0x461BCD PUSH1 0xE5 SHL DUP2 MSTORE PUSH1 0x4 ADD PUSH2 0x262 SWAP1 PUSH2 0x620 JUMP JUMPDEST PUSH1 0x40 MLOAD DUP1 SWAP2 SUB SWAP1 REVERT JUMPDEST PUSH1 0x2 SLOAD PUSH0 SUB PUSH2 0x293 JUMPI PUSH1 0x2 SLOAD PUSH1 0x40 MLOAD PUSH4 0x71540007 PUSH1 0xE0 SHL DUP2 MSTORE PUSH1 0x4 ADD PUSH2 0x262 SWAP2 DUP2 MSTORE PUSH1 0x20 ADD SWAP1 JUMP JUMPDEST PUSH1 0x6 SLOAD PUSH1 0x1 PUSH1 0xA0 SHL SWAP1 DIV PUSH1 0xFF AND PUSH2 0x2E1 JUMPI PUSH1 0x4 SLOAD TIMESTAMP LT PUSH2 0x2C4 JUMPI TIMESTAMP PUSH1 0x5 SSTORE PUSH2 0x2B9 PUSH2 0x42F JUMP JUMPDEST PUSH1 0x3 SLOAD PUSH1 0x2 SSTORE PUSH2 0x2ED JUMP JUMPDEST PUSH1 0x4 DUP1 SLOAD PUSH1 0x40 MLOAD PUSH4 0x54593E75 PUSH1 0xE0 SHL DUP2 MSTORE SWAP2 DUP3 ADD MSTORE PUSH1 0x24 ADD PUSH2 0x262 JUMP JUMPDEST TIMESTAMP PUSH1 0x5 SSTORE PUSH2 0x2ED PUSH2 0x42F JUMP JUMPDEST PUSH1 0x6 SLOAD PUSH1 0x1 PUSH1 0xA0 SHL SWAP1 DIV PUSH1 0xFF AND PUSH2 0x312 JUMPI PUSH1 0x6 DUP1 SLOAD PUSH1 0xFF PUSH1 0xA0 SHL NOT AND PUSH1 0x1 PUSH1 0xA0 SHL OR SWAP1 SSTORE JUMPDEST POP POP JUMP JUMPDEST PUSH2 0x31E PUSH2 0x4AC JUMP JUMPDEST PUSH0 DUP2 GT PUSH2 0x341 JUMPI PUSH1 0x40 MLOAD PUSH4 0x71540007 PUSH1 0xE0 SHL DUP2 MSTORE PUSH1 0x4 DUP2 ADD DUP3 SWAP1 MSTORE PUSH1 0x24 ADD PUSH2 0x262 JUMP JUMPDEST TIMESTAMP DUP3 LT ISZERO PUSH2 0x365 JUMPI PUSH1 0x40 MLOAD PUSH4 0x54593E75 PUSH1 0xE0 SHL DUP2 MSTORE PUSH1 0x4 DUP2 ADD DUP4 SWAP1 MSTORE PUSH1 0x24 ADD PUSH2 0x262 JUMP JUMPDEST PUSH2 0x36F TIMESTAMP DUP4 PUSH2 0x691 JUMP JUMPDEST PUSH1 0x2 SSTORE PUSH1 0x4 SWAP2 SWAP1 SWAP2 SSTORE TIMESTAMP PUSH1 0x5 SSTORE PUSH1 0x3 SSTORE JUMP JUMPDEST PUSH2 0x389 PUSH2 0x4AC JUMP JUMPDEST PUSH0 PUSH1 0x2 SSTORE PUSH1 0x6 DUP1 SLOAD PUSH1 0xFF PUSH1 0xA0 SHL NOT AND SWAP1 SSTORE JUMP JUMPDEST PUSH0 PUSH1 0x60 PUSH0 PUSH1 0x2 SLOAD PUSH1 0x5 SLOAD TIMESTAMP PUSH2 0x3B1 SWAP2 SWAP1 PUSH2 0x691 JUMP JUMPDEST PUSH1 0x40 DUP1 MLOAD PUSH1 0x20 DUP2 ADD SWAP1 SWAP2 MSTORE PUSH0 DUP2 MSTORE SWAP2 LT SWAP7 SWAP1 SWAP6 POP SWAP4 POP POP POP POP JUMP JUMPDEST PUSH2 0x3D4 PUSH2 0x4AC JUMP JUMPDEST PUSH2 0x3DD PUSH0 PUSH2 0x4D8 JUMP JUMPDEST JUMP JUMPDEST PUSH1 0x6 SLOAD PUSH1 0x1 PUSH1 0xA0 SHL SWAP1 DIV PUSH1 0xFF AND PUSH2 0x3DD JUMPI PUSH1 0x6 DUP1 SLOAD PUSH1 0xFF PUSH1 0xA0 SHL NOT AND PUSH1 0x1 PUSH1 0xA0 SHL OR SWAP1 SSTORE JUMP JUMPDEST PUSH2 0x40D PUSH2 0x4AC JUMP JUMPDEST PUSH1 0x6 DUP1 SLOAD PUSH1 0x1 PUSH1 0x1 PUSH1 0xA0 SHL SUB NOT AND PUSH1 0x1 PUSH1 0x1 PUSH1 0xA0 SHL SUB SWAP3 SWAP1 SWAP3 AND SWAP2 SWAP1 SWAP2 OR SWAP1 SSTORE JUMP JUMPDEST PUSH1 0x6 SLOAD PUSH1 0x1 PUSH1 0x1 PUSH1 0xA0 SHL SUB AND CALLER EQ PUSH2 0x459 JUMPI PUSH1 0x40 MLOAD PUSH3 0x461BCD PUSH1 0xE5 SHL DUP2 MSTORE PUSH1 0x4 ADD PUSH2 0x262 SWAP1 PUSH2 0x620 JUMP JUMPDEST PUSH1 0x1 DUP1 SLOAD SWAP1 PUSH0 PUSH2 0x468 DUP4 PUSH2 0x6AA JUMP JUMPDEST SWAP2 SWAP1 POP SSTORE POP JUMP JUMPDEST PUSH2 0x477 PUSH2 0x4AC JUMP JUMPDEST PUSH1 0x1 PUSH1 0x1 PUSH1 0xA0 SHL SUB DUP2 AND PUSH2 0x4A0 JUMPI PUSH1 0x40 MLOAD PUSH4 0x1E4FBDF7 PUSH1 0xE0 SHL DUP2 MSTORE PUSH0 PUSH1 0x4 DUP3 ADD MSTORE PUSH1 0x24 ADD PUSH2 0x262 JUMP JUMPDEST PUSH2 0x4A9 DUP2 PUSH2 0x4D8 JUMP JUMPDEST POP JUMP JUMPDEST PUSH0 SLOAD PUSH1 0x1 PUSH1 0x1 PUSH1 0xA0 SHL SUB AND CALLER EQ PUSH2 0x3DD JUMPI PUSH1 0x40 MLOAD PUSH4 0x118CDAA7 PUSH1 0xE0 SHL DUP2 MSTORE CALLER PUSH1 0x4 DUP3 ADD MSTORE PUSH1 0x24 ADD PUSH2 0x262 JUMP JUMPDEST PUSH0 DUP1 SLOAD PUSH1 0x1 PUSH1 0x1 PUSH1 0xA0 SHL SUB DUP4 DUP2 AND PUSH1 0x1 PUSH1 0x1 PUSH1 0xA0 SHL SUB NOT DUP4 AND DUP2 OR DUP5 SSTORE PUSH1 0x40 MLOAD SWAP2 SWAP1 SWAP3 AND SWAP3 DUP4 SWAP2 PUSH32 0x8BE0079C531659141344CD1FD0A4F28419497F9722A3DAAFE3B4186F6B6457E0 SWAP2 SWAP1 LOG3 POP POP JUMP JUMPDEST PUSH0 DUP1 PUSH1 0x20 DUP4 DUP6 SUB SLT ISZERO PUSH2 0x538 JUMPI PUSH0 DUP1 REVERT JUMPDEST DUP3 CALLDATALOAD PUSH8 0xFFFFFFFFFFFFFFFF DUP2 GT ISZERO PUSH2 0x54E JUMPI PUSH0 DUP1 REVERT JUMPDEST DUP4 ADD PUSH1 0x1F DUP2 ADD DUP6 SGT PUSH2 0x55E JUMPI PUSH0 DUP1 REVERT JUMPDEST DUP1 CALLDATALOAD PUSH8 0xFFFFFFFFFFFFFFFF DUP2 GT ISZERO PUSH2 0x574 JUMPI PUSH0 DUP1 REVERT JUMPDEST DUP6 PUSH1 0x20 DUP3 DUP5 ADD ADD GT ISZERO PUSH2 0x585 JUMPI PUSH0 DUP1 REVERT JUMPDEST PUSH1 0x20 SWAP2 SWAP1 SWAP2 ADD SWAP6 SWAP1 SWAP5 POP SWAP3 POP POP POP JUMP JUMPDEST PUSH0 DUP1 PUSH1 0x40 DUP4 DUP6 SUB SLT ISZERO PUSH2 0x5A6 JUMPI PUSH0 DUP1 REVERT JUMPDEST POP POP DUP1 CALLDATALOAD SWAP3 PUSH1 0x20 SWAP1 SWAP2 ADD CALLDATALOAD SWAP2 POP JUMP JUMPDEST DUP3 ISZERO ISZERO DUP2 MSTORE PUSH1 0x40 PUSH1 0x20 DUP3 ADD MSTORE PUSH0 DUP3 MLOAD DUP1 PUSH1 0x40 DUP5 ADD MSTORE DUP1 PUSH1 0x20 DUP6 ADD PUSH1 0x60 DUP6 ADD MCOPY PUSH0 PUSH1 0x60 DUP3 DUP6 ADD ADD MSTORE PUSH1 0x60 PUSH1 0x1F NOT PUSH1 0x1F DUP4 ADD AND DUP5 ADD ADD SWAP2 POP POP SWAP4 SWAP3 POP POP POP JUMP JUMPDEST PUSH0 PUSH1 0x20 DUP3 DUP5 SUB SLT ISZERO PUSH2 0x603 JUMPI PUSH0 DUP1 REVERT JUMPDEST DUP2 CALLDATALOAD PUSH1 0x1 PUSH1 0x1 PUSH1 0xA0 SHL SUB DUP2 AND DUP2 EQ PUSH2 0x619 JUMPI PUSH0 DUP1 REVERT JUMPDEST SWAP4 SWAP3 POP POP POP JUMP JUMPDEST PUSH1 0x20 DUP1 DUP3 MSTORE PUSH1 0x3B SWAP1 DUP3 ADD MSTORE PUSH32 0x54686973206164647265737320646F6573206E6F742068617665207065726D69 PUSH1 0x40 DUP3 ADD MSTORE PUSH32 0x7373696F6E20746F2063616C6C20706572666F726D55706B6565700000000000 PUSH1 0x60 DUP3 ADD MSTORE PUSH1 0x80 ADD SWAP1 JUMP JUMPDEST PUSH4 0x4E487B71 PUSH1 0xE0 SHL PUSH0 MSTORE PUSH1 0x11 PUSH1 0x4 MSTORE PUSH1 0x24 PUSH0 REVERT JUMPDEST DUP2 DUP2 SUB DUP2 DUP2 GT ISZERO PUSH2 0x6A4 JUMPI PUSH2 0x6A4 PUSH2 0x67D JUMP JUMPDEST SWAP3 SWAP2 POP POP JUMP JUMPDEST PUSH0 PUSH1 0x1 DUP3 ADD PUSH2 0x6BB JUMPI PUSH2 0x6BB PUSH2 0x67D JUMP JUMPDEST POP PUSH1 0x1 ADD SWAP1 JUMP INVALID LOG2 PUSH5 0x6970667358 0x22 SLT KECCAK256 DUP5 DUP9 BLOCKHASH CALL MSIZE PUSH29 0x7DC6E9D54E21E52F8B2B99B4A556A87FE067003A9F2069DDF6B864736F PUSH13 0x634300081A0033000000000000 "
				},
				"gasEstimates": {
					"creation": {
						"codeDepositCost": "356800",
						"executionCost": "26253",
						"totalCost": "383053"
					},
					"external": {
						"checkOnce()": "2394",
						"checkUpkeep(bytes)": "infinite",
						"counter()": "2383",
						"doWee()": "26562",
						"interval()": "2316",
						"lastTimeStamp()": "2317",
						"off()": "31558",
						"owner()": "2407",
						"performUpkeep(bytes)": "108099",
						"realInterval()": "2340",
						"renounceOwnership()": "infinite",
						"s_forwarderAddress()": "2349",
						"setForwarderAddress(address)": "26763",
						"setInterval(uint256,uint256)": "91016",
						"startingTime()": "2384",
						"transferOwnership(address)": "28404",
						"weeklyTransfer()": "26655"
					}
				},
				"methodIdentifiers": {
					"checkOnce()": "30e3f8f8",
					"checkUpkeep(bytes)": "6e04ff0d",
					"counter()": "61bc221a",
					"doWee()": "b7106f9e",
					"interval()": "947a36fb",
					"lastTimeStamp()": "3f3b3b27",
					"off()": "6626b26d",
					"owner()": "8da5cb5b",
					"performUpkeep(bytes)": "4585e33b",
					"realInterval()": "30cac972",
					"renounceOwnership()": "715018a6",
					"s_forwarderAddress()": "3070fbf8",
					"setForwarderAddress(address)": "d777cc6d",
					"setInterval(uint256,uint256)": "5f17e616",
					"startingTime()": "39518b5e",
					"transferOwnership(address)": "f2fde38b",
					"weeklyTransfer()": "e9c68e2c"
				}
			},
			"storageLayout": {
				"storage": [
					{
						"astId": 53,
						"contract": "DripWarrior/checckUpKep_flattened.sol:CounterwForwarder",
						"label": "_owner",
						"offset": 0,
						"slot": "0",
						"type": "t_address"
					},
					{
						"astId": 200,
						"contract": "DripWarrior/checckUpKep_flattened.sol:CounterwForwarder",
						"label": "counter",
						"offset": 0,
						"slot": "1",
						"type": "t_uint256"
					},
					{
						"astId": 202,
						"contract": "DripWarrior/checckUpKep_flattened.sol:CounterwForwarder",
						"label": "interval",
						"offset": 0,
						"slot": "2",
						"type": "t_uint256"
					},
					{
						"astId": 204,
						"contract": "DripWarrior/checckUpKep_flattened.sol:CounterwForwarder",
						"label": "realInterval",
						"offset": 0,
						"slot": "3",
						"type": "t_uint256"
					},
					{
						"astId": 206,
						"contract": "DripWarrior/checckUpKep_flattened.sol:CounterwForwarder",
						"label": "startingTime",
						"offset": 0,
						"slot": "4",
						"type": "t_uint256"
					},
					{
						"astId": 208,
						"contract": "DripWarrior/checckUpKep_flattened.sol:CounterwForwarder",
						"label": "lastTimeStamp",
						"offset": 0,
						"slot": "5",
						"type": "t_uint256"
					},
					{
						"astId": 210,
						"contract": "DripWarrior/checckUpKep_flattened.sol:CounterwForwarder",
						"label": "s_forwarderAddress",
						"offset": 0,
						"slot": "6",
						"type": "t_address"
					},
					{
						"astId": 212,
						"contract": "DripWarrior/checckUpKep_flattened.sol:CounterwForwarder",
						"label": "checkOnce",
						"offset": 20,
						"slot": "6",
						"type": "t_bool"
					}
				],
				"types": {
					"t_address": {
						"encoding": "inplace",
						"label": "address",
						"numberOfBytes": "20"
					},
					"t_bool": {
						"encoding": "inplace",
						"label": "bool",
						"numberOfBytes": "1"
					},
					"t_uint256": {
						"encoding": "inplace",
						"label": "uint256",
						"numberOfBytes": "32"
					}
				}
			},
			"userdoc": {
				"kind": "user",
				"methods": {
					"setForwarderAddress(address)": {
						"notice": "Set the address that `performUpkeep` is called from"
					}
				},
				"notice": "THIS IS AN EXAMPLE CONTRACT THAT USES HARDCODED VALUES FOR CLARITY. THIS IS AN EXAMPLE CONTRACT THAT USES UN-AUDITED CODE. DO NOT USE THIS CODE IN PRODUCTION.",
				"version": 1
			}
		}
	}
}