{
	"DripWarrior/checckUpKep.sol": {
		"CounterwForwarder": {
			"abi": [
				{
					"inputs": [],
					"stateMutability": "nonpayable",
					"type": "constructor"
				},
				{
					"inputs": [
						{
							"internalType": "address",
							"name": "owner",
							"type": "address"
						}
					],
					"name": "OwnableInvalidOwner",
					"type": "error"
				},
				{
					"inputs": [
						{
							"internalType": "address",
							"name": "account",
							"type": "address"
						}
					],
					"name": "OwnableUnauthorizedAccount",
					"type": "error"
				},
				{
					"inputs": [
						{
							"internalType": "uint256",
							"name": "updateInterval",
							"type": "uint256"
						}
					],
					"name": "wrongInterval",
					"type": "error"
				},
				{
					"inputs": [
						{
							"internalType": "uint256",
							"name": "time",
							"type": "uint256"
						}
					],
					"name": "wrongTime",
					"type": "error"
				},
				{
					"anonymous": false,
					"inputs": [
						{
							"indexed": true,
							"internalType": "address",
							"name": "previousOwner",
							"type": "address"
						},
						{
							"indexed": true,
							"internalType": "address",
							"name": "newOwner",
							"type": "address"
						}
					],
					"name": "OwnershipTransferred",
					"type": "event"
				},
				{
					"inputs": [],
					"name": "checkOnce",
					"outputs": [
						{
							"internalType": "bool",
							"name": "",
							"type": "bool"
						}
					],
					"stateMutability": "view",
					"type": "function"
				},
				{
					"inputs": [
						{
							"internalType": "bytes",
							"name": "",
							"type": "bytes"
						}
					],
					"name": "checkUpkeep",
					"outputs": [
						{
							"internalType": "bool",
							"name": "",
							"type": "bool"
						},
						{
							"internalType": "bytes",
							"name": "",
							"type": "bytes"
						}
					],
					"stateMutability": "view",
					"type": "function"
				},
				{
					"inputs": [],
					"name": "counter",
					"outputs": [
						{
							"internalType": "uint256",
							"name": "",
							"type": "uint256"
						}
					],
					"stateMutability": "view",
					"type": "function"
				},
				{
					"inputs": [],
					"name": "interval",
					"outputs": [
						{
							"internalType": "uint256",
							"name": "",
							"type": "uint256"
						}
					],
					"stateMutability": "view",
					"type": "function"
				},
				{
					"inputs": [],
					"name": "lastTimeStamp",
					"outputs": [
						{
							"internalType": "uint256",
							"name": "",
							"type": "uint256"
						}
					],
					"stateMutability": "view",
					"type": "function"
				},
				{
					"inputs": [],
					"name": "off",
					"outputs": [],
					"stateMutability": "nonpayable",
					"type": "function"
				},
				{
					"inputs": [],
					"name": "owner",
					"outputs": [
						{
							"internalType": "address",
							"name": "",
							"type": "address"
						}
					],
					"stateMutability": "view",
					"type": "function"
				},
				{
					"inputs": [
						{
							"internalType": "bytes",
							"name": "",
							"type": "bytes"
						}
					],
					"name": "performUpkeep",
					"outputs": [],
					"stateMutability": "nonpayable",
					"type": "function"
				},
				{
					"inputs": [],
					"name": "realInterval",
					"outputs": [
						{
							"internalType": "uint256",
							"name": "",
							"type": "uint256"
						}
					],
					"stateMutability": "view",
					"type": "function"
				},
				{
					"inputs": [],
					"name": "renounceOwnership",
					"outputs": [],
					"stateMutability": "nonpayable",
					"type": "function"
				},
				{
					"inputs": [],
					"name": "s_forwarderAddress",
					"outputs": [
						{
							"internalType": "address",
							"name": "",
							"type": "address"
						}
					],
					"stateMutability": "view",
					"type": "function"
				},
				{
					"inputs": [
						{
							"internalType": "address",
							"name": "forwarderAddress",
							"type": "address"
						}
					],
					"name": "setForwarderAddress",
					"outputs": [],
					"stateMutability": "nonpayable",
					"type": "function"
				},
				{
					"inputs": [
						{
							"internalType": "uint256",
							"name": "_startingTime",
							"type": "uint256"
						},
						{
							"internalType": "uint256",
							"name": "updateInterval",
							"type": "uint256"
						}
					],
					"name": "setInterval",
					"outputs": [],
					"stateMutability": "nonpayable",
					"type": "function"
				},
				{
					"inputs": [],
					"name": "startingTime",
					"outputs": [
						{
							"internalType": "uint256",
							"name": "",
							"type": "uint256"
						}
					],
					"stateMutability": "view",
					"type": "function"
				},
				{
					"inputs": [
						{
							"internalType": "address",
							"name": "newOwner",
							"type": "address"
						}
					],
					"name": "transferOwnership",
					"outputs": [],
					"stateMutability": "nonpayable",
					"type": "function"
				},
				{
					"inputs": [],
					"name": "weeklyTransfer",
					"outputs": [],
					"stateMutability": "nonpayable",
					"type": "function"
				}
			],
			"devdoc": {
				"errors": {
					"OwnableInvalidOwner(address)": [
						{
							"details": "The owner is not a valid owner account. (eg. `address(0)`)"
						}
					],
					"OwnableUnauthorizedAccount(address)": [
						{
							"details": "The caller account is not authorized to perform an operation."
						}
					]
				},
				"kind": "dev",
				"methods": {
					"owner()": {
						"details": "Returns the address of the current owner."
					},
					"renounceOwnership()": {
						"details": "Leaves the contract without owner. It will not be possible to call `onlyOwner` functions. Can only be called by the current owner. NOTE: Renouncing ownership will leave the contract without an owner, thereby disabling any functionality that is only available to the owner."
					},
					"transferOwnership(address)": {
						"details": "Transfers ownership of the contract to a new account (`newOwner`). Can only be called by the current owner."
					}
				},
				"version": 1
			},
			"evm": {
				"assembly": "    /* \"DripWarrior/checckUpKep.sol\":549:7094  contract CounterwForwarder is AutomationCompatibleInterface,Ownable {... */\n  mstore(0x40, 0x80)\n    /* \"DripWarrior/checckUpKep.sol\":4170:4190  bool blocked = false */\n  0x09\n  dup1\n  sload\n  not(0xff)\n  and\n  swap1\n  sstore\n    /* \"DripWarrior/checckUpKep.sol\":4254:4262  20 ether */\n  0x01158e460913d00000\n    /* \"DripWarrior/checckUpKep.sol\":4225:4262  uint256  totalStakedAmount = 20 ether */\n  0x0b\n  sstore\n    /* \"DripWarrior/checckUpKep.sol\":5425:5428  100 */\n  0x64\n    /* \"DripWarrior/checckUpKep.sol\":5405:5428  uint256 noOfUsers = 100 */\n  0x0c\n  sstore\n    /* \"DripWarrior/checckUpKep.sol\":5466:5496  999999999999999999999999 ether */\n  0x0b7abc627050305adf1495f92d4c589c0000\n    /* \"DripWarrior/checckUpKep.sol\":5435:5496  uint256  ownerShipPoolAmount = 999999999999999999999999 ether */\n  0x0d\n  dup2\n  swap1\n  sstore\n    /* \"DripWarrior/checckUpKep.sol\":5504:5565  uint256   treasuryPoolAmount = 999999999999999999999999 ether */\n  0x0e\n  sstore\n    /* \"DripWarrior/checckUpKep.sol\":5610:5613  200 */\n  0xc8\n    /* \"DripWarrior/checckUpKep.sol\":5573:5613  uint256  odividentPayoutPercentage = 200 */\n  0x0f\n  dup2\n  swap1\n  sstore\n    /* \"DripWarrior/checckUpKep.sol\":5622:5660  uint256 flowToTreasuryPercentage = 200 */\n  0x10\n  dup2\n  swap1\n  sstore\n    /* \"DripWarrior/checckUpKep.sol\":5669:5706  uint256 maintainceFeePercentage = 200 */\n  0x11\n  dup2\n  swap1\n  sstore\n    /* \"DripWarrior/checckUpKep.sol\":5716:5755  uint256 tdividentPayoutPercentage = 200 */\n  0x12\n  sstore\n    /* \"DripWarrior/checckUpKep.sol\":1155:1204  constructor()Ownable(msg.sender) {... */\n  callvalue\n  dup1\n  iszero\n  tag_1\n  jumpi\n  0x00\n  dup1\n  revert\ntag_1:\n  pop\n    /* \"DripWarrior/checckUpKep.sol\":1176:1186  msg.sender */\n  caller\n  dup1\n    /* \"@openzeppelin/contracts/access/Ownable.sol\":1269:1364  if (initialOwner == address(0)) {... */\n  tag_5\n  jumpi\n    /* \"@openzeppelin/contracts/access/Ownable.sol\":1322:1353  OwnableInvalidOwner(address(0)) */\n  mload(0x40)\n  shl(0xe0, 0x1e4fbdf7)\n  dup2\n  mstore\n    /* \"@openzeppelin/contracts/access/Ownable.sol\":1350:1351  0 */\n  0x00\n    /* \"@openzeppelin/contracts/access/Ownable.sol\":1322:1353  OwnableInvalidOwner(address(0)) */\n  0x04\n  dup3\n  add\n    /* \"#utility.yul\":160:211   */\n  mstore\n    /* \"#utility.yul\":133:151   */\n  0x24\n  add\n    /* \"@openzeppelin/contracts/access/Ownable.sol\":1322:1353  OwnableInvalidOwner(address(0)) */\n  mload(0x40)\n  dup1\n  swap2\n  sub\n  swap1\n  revert\n    /* \"@openzeppelin/contracts/access/Ownable.sol\":1269:1364  if (initialOwner == address(0)) {... */\ntag_5:\n    /* \"@openzeppelin/contracts/access/Ownable.sol\":1373:1405  _transferOwnership(initialOwner) */\n  tag_8\n    /* \"@openzeppelin/contracts/access/Ownable.sol\":1392:1404  initialOwner */\n  dup2\n    /* \"@openzeppelin/contracts/access/Ownable.sol\":1373:1391  _transferOwnership */\n  tag_9\n    /* \"@openzeppelin/contracts/access/Ownable.sol\":1373:1405  _transferOwnership(initialOwner) */\n  jump\t// in\ntag_8:\n    /* \"@openzeppelin/contracts/access/Ownable.sol\":1225:1412  constructor(address initialOwner) {... */\n  pop\n    /* \"DripWarrior/checckUpKep.sol\":549:7094  contract CounterwForwarder is AutomationCompatibleInterface,Ownable {... */\n  jump(tag_13)\n    /* \"@openzeppelin/contracts/access/Ownable.sol\":2912:3099  function _transferOwnership(address newOwner) internal virtual {... */\ntag_9:\n    /* \"@openzeppelin/contracts/access/Ownable.sol\":2985:3001  address oldOwner */\n  0x00\n    /* \"@openzeppelin/contracts/access/Ownable.sol\":3004:3010  _owner */\n  dup1\n  sload\n  sub(shl(0xa0, 0x01), 0x01)\n    /* \"@openzeppelin/contracts/access/Ownable.sol\":3020:3037  _owner = newOwner */\n  dup4\n  dup2\n  and\n  not(sub(shl(0xa0, 0x01), 0x01))\n  dup4\n  and\n  dup2\n  or\n  dup5\n  sstore\n    /* \"@openzeppelin/contracts/access/Ownable.sol\":3052:3092  OwnershipTransferred(oldOwner, newOwner) */\n  mload(0x40)\n    /* \"@openzeppelin/contracts/access/Ownable.sol\":3004:3010  _owner */\n  swap2\n  swap1\n  swap3\n  and\n  swap3\n  dup4\n  swap2\n    /* \"@openzeppelin/contracts/access/Ownable.sol\":3052:3092  OwnershipTransferred(oldOwner, newOwner) */\n  0x8be0079c531659141344cd1fd0a4f28419497f9722a3daafe3b4186f6b6457e0\n  swap2\n    /* \"@openzeppelin/contracts/access/Ownable.sol\":2985:3001  address oldOwner */\n  swap1\n    /* \"@openzeppelin/contracts/access/Ownable.sol\":3052:3092  OwnershipTransferred(oldOwner, newOwner) */\n  log3\n    /* \"@openzeppelin/contracts/access/Ownable.sol\":2975:3099  {... */\n  pop\n    /* \"@openzeppelin/contracts/access/Ownable.sol\":2912:3099  function _transferOwnership(address newOwner) internal virtual {... */\n  pop\n  jump\t// out\n    /* \"#utility.yul\":14:217   */\ntag_13:\n    /* \"DripWarrior/checckUpKep.sol\":549:7094  contract CounterwForwarder is AutomationCompatibleInterface,Ownable {... */\n  dataSize(sub_0)\n  dup1\n  dataOffset(sub_0)\n  0x00\n  codecopy\n  0x00\n  return\nstop\n\nsub_0: assembly {\n        /* \"DripWarrior/checckUpKep.sol\":549:7094  contract CounterwForwarder is AutomationCompatibleInterface,Ownable {... */\n      mstore(0x40, 0x80)\n      callvalue\n      dup1\n      iszero\n      tag_1\n      jumpi\n      0x00\n      dup1\n      revert\n    tag_1:\n      pop\n      jumpi(tag_2, lt(calldatasize, 0x04))\n      shr(0xe0, calldataload(0x00))\n      dup1\n      0x6626b26d\n      gt\n      tag_19\n      jumpi\n      dup1\n      0x947a36fb\n      gt\n      tag_20\n      jumpi\n      dup1\n      0x947a36fb\n      eq\n      tag_15\n      jumpi\n      dup1\n      0xd777cc6d\n      eq\n      tag_16\n      jumpi\n      dup1\n      0xe9c68e2c\n      eq\n      tag_17\n      jumpi\n      dup1\n      0xf2fde38b\n      eq\n      tag_18\n      jumpi\n      0x00\n      dup1\n      revert\n    tag_20:\n      dup1\n      0x6626b26d\n      eq\n      tag_11\n      jumpi\n      dup1\n      0x6e04ff0d\n      eq\n      tag_12\n      jumpi\n      dup1\n      0x715018a6\n      eq\n      tag_13\n      jumpi\n      dup1\n      0x8da5cb5b\n      eq\n      tag_14\n      jumpi\n      0x00\n      dup1\n      revert\n    tag_19:\n      dup1\n      0x3f3b3b27\n      gt\n      tag_21\n      jumpi\n      dup1\n      0x3f3b3b27\n      eq\n      tag_7\n      jumpi\n      dup1\n      0x4585e33b\n      eq\n      tag_8\n      jumpi\n      dup1\n      0x5f17e616\n      eq\n      tag_9\n      jumpi\n      dup1\n      0x61bc221a\n      eq\n      tag_10\n      jumpi\n      0x00\n      dup1\n      revert\n    tag_21:\n      dup1\n      0x3070fbf8\n      eq\n      tag_3\n      jumpi\n      dup1\n      0x30cac972\n      eq\n      tag_4\n      jumpi\n      dup1\n      0x30e3f8f8\n      eq\n      tag_5\n      jumpi\n      dup1\n      0x39518b5e\n      eq\n      tag_6\n      jumpi\n    tag_2:\n      0x00\n      dup1\n      revert\n        /* \"DripWarrior/checckUpKep.sol\":988:1021  address public s_forwarderAddress */\n    tag_3:\n      sload(0x06)\n      tag_22\n      swap1\n      sub(shl(0xa0, 0x01), 0x01)\n      and\n      dup2\n      jump\n    tag_22:\n      mload(0x40)\n      sub(shl(0xa0, 0x01), 0x01)\n        /* \"#utility.yul\":178:210   */\n      swap1\n      swap2\n      and\n        /* \"#utility.yul\":160:211   */\n      dup2\n      mstore\n        /* \"#utility.yul\":148:150   */\n      0x20\n        /* \"#utility.yul\":133:151   */\n      add\n        /* \"DripWarrior/checckUpKep.sol\":988:1021  address public s_forwarderAddress */\n    tag_24:\n      mload(0x40)\n      dup1\n      swap2\n      sub\n      swap1\n      return\n        /* \"DripWarrior/checckUpKep.sol\":786:813  uint256 public realInterval */\n    tag_4:\n      tag_26\n      sload(0x03)\n      dup2\n      jump\n    tag_26:\n      mload(0x40)\n        /* \"#utility.yul\":368:393   */\n      swap1\n      dup2\n      mstore\n        /* \"#utility.yul\":356:358   */\n      0x20\n        /* \"#utility.yul\":341:359   */\n      add\n        /* \"DripWarrior/checckUpKep.sol\":786:813  uint256 public realInterval */\n      tag_24\n        /* \"#utility.yul\":222:399   */\n      jump\n        /* \"DripWarrior/checckUpKep.sol\":1032:1053  bool public checkOnce */\n    tag_5:\n      sload(0x06)\n      tag_30\n      swap1\n      shl(0xa0, 0x01)\n      swap1\n      div\n      0xff\n      and\n      dup2\n      jump\n    tag_30:\n      mload(0x40)\n        /* \"#utility.yul\":569:583   */\n      swap1\n      iszero\n        /* \"#utility.yul\":562:584   */\n      iszero\n        /* \"#utility.yul\":544:585   */\n      dup2\n      mstore\n        /* \"#utility.yul\":532:534   */\n      0x20\n        /* \"#utility.yul\":517:535   */\n      add\n        /* \"DripWarrior/checckUpKep.sol\":1032:1053  bool public checkOnce */\n      tag_24\n        /* \"#utility.yul\":404:591   */\n      jump\n        /* \"DripWarrior/checckUpKep.sol\":866:893  uint256 public startingTime */\n    tag_6:\n      tag_26\n      sload(0x04)\n      dup2\n      jump\n        /* \"DripWarrior/checckUpKep.sol\":899:927  uint256 public lastTimeStamp */\n    tag_7:\n      tag_26\n      sload(0x05)\n      dup2\n      jump\n        /* \"DripWarrior/checckUpKep.sol\":1444:2495  function performUpkeep(bytes calldata /*performData*/) external  {... */\n    tag_8:\n      tag_40\n      tag_41\n      calldatasize\n      0x04\n      tag_42\n      jump\t// in\n    tag_41:\n      tag_43\n      jump\t// in\n    tag_40:\n      stop\n        /* \"DripWarrior/checckUpKep.sol\":3422:3968  function setInterval (uint256 _startingTime, uint256 updateInterval) external  onlyOwner{... */\n    tag_9:\n      tag_40\n      tag_45\n      calldatasize\n      0x04\n      tag_46\n      jump\t// in\n    tag_45:\n      tag_47\n      jump\t// in\n        /* \"DripWarrior/checckUpKep.sol\":628:650  uint256 public counter */\n    tag_10:\n      tag_26\n      sload(0x01)\n      dup2\n      jump\n        /* \"DripWarrior/checckUpKep.sol\":3974:4082  function off () external  onlyOwner{... */\n    tag_11:\n      tag_40\n      tag_52\n      jump\t// in\n        /* \"DripWarrior/checckUpKep.sol\":1210:1436  function checkUpkeep(bytes calldata /*checkData*/) external override view  returns (bool, bytes memory) {... */\n    tag_12:\n      tag_53\n      tag_54\n      calldatasize\n      0x04\n      tag_42\n      jump\t// in\n    tag_54:\n      tag_55\n      jump\t// in\n    tag_53:\n      mload(0x40)\n      tag_24\n      swap3\n      swap2\n      swap1\n      tag_57\n      jump\t// in\n        /* \"@openzeppelin/contracts/access/Ownable.sol\":2293:2394  function renounceOwnership() public virtual onlyOwner {... */\n    tag_13:\n      tag_40\n      tag_59\n      jump\t// in\n        /* \"@openzeppelin/contracts/access/Ownable.sol\":1638:1723  function owner() public view virtual returns (address) {... */\n    tag_14:\n        /* \"@openzeppelin/contracts/access/Ownable.sol\":1684:1691  address */\n      0x00\n        /* \"@openzeppelin/contracts/access/Ownable.sol\":1710:1716  _owner */\n      sload\n      sub(shl(0xa0, 0x01), 0x01)\n      and\n        /* \"@openzeppelin/contracts/access/Ownable.sol\":1638:1723  function owner() public view virtual returns (address) {... */\n      jump(tag_22)\n        /* \"DripWarrior/checckUpKep.sol\":706:729  uint256 public interval */\n    tag_15:\n      tag_26\n      sload(0x02)\n      dup2\n      jump\n        /* \"DripWarrior/checckUpKep.sol\":6963:7091  function setForwarderAddress(address forwarderAddress) external onlyOwner {... */\n    tag_16:\n      tag_40\n      tag_67\n      calldatasize\n      0x04\n      tag_68\n      jump\t// in\n    tag_67:\n      tag_69\n      jump\t// in\n        /* \"DripWarrior/checckUpKep.sol\":4269:5400  function weeklyTransfer() public  {... */\n    tag_17:\n      tag_40\n      tag_71\n      jump\t// in\n        /* \"@openzeppelin/contracts/access/Ownable.sol\":2543:2758  function transferOwnership(address newOwner) public virtual onlyOwner {... */\n    tag_18:\n      tag_40\n      tag_73\n      calldatasize\n      0x04\n      tag_68\n      jump\t// in\n    tag_73:\n      tag_74\n      jump\t// in\n        /* \"DripWarrior/checckUpKep.sol\":1444:2495  function performUpkeep(bytes calldata /*performData*/) external  {... */\n    tag_43:\n        /* \"DripWarrior/checckUpKep.sol\":1555:1573  s_forwarderAddress */\n      and(sub(shl(0xa0, 0x01), 0x01), sload(0x06))\n        /* \"DripWarrior/checckUpKep.sol\":1541:1551  msg.sender */\n      caller\n        /* \"DripWarrior/checckUpKep.sol\":1541:1573  msg.sender == s_forwarderAddress */\n      eq\n        /* \"DripWarrior/checckUpKep.sol\":1520:1658  require(... */\n      tag_76\n      jumpi\n      mload(0x40)\n      shl(0xe5, 0x461bcd)\n      dup2\n      mstore\n        /* \"#utility.yul\":2533:2535   */\n      0x20\n        /* \"DripWarrior/checckUpKep.sol\":1520:1658  require(... */\n      0x04\n      dup3\n      add\n        /* \"#utility.yul\":2515:2536   */\n      mstore\n        /* \"#utility.yul\":2572:2574   */\n      0x3b\n        /* \"#utility.yul\":2552:2570   */\n      0x24\n      dup3\n      add\n        /* \"#utility.yul\":2545:2575   */\n      mstore\n        /* \"#utility.yul\":2611:2645   */\n      0x54686973206164647265737320646f6573206e6f742068617665207065726d69\n        /* \"#utility.yul\":2591:2609   */\n      0x44\n      dup3\n      add\n        /* \"#utility.yul\":2584:2646   */\n      mstore\n        /* \"#utility.yul\":2682:2711   */\n      0x7373696f6e20746f2063616c6c20706572666f726d55706b6565700000000000\n        /* \"#utility.yul\":2662:2680   */\n      0x64\n      dup3\n      add\n        /* \"#utility.yul\":2655:2712   */\n      mstore\n        /* \"#utility.yul\":2729:2748   */\n      0x84\n      add\n        /* \"DripWarrior/checckUpKep.sol\":1520:1658  require(... */\n    tag_77:\n      mload(0x40)\n      dup1\n      swap2\n      sub\n      swap1\n      revert\n    tag_76:\n        /* \"DripWarrior/checckUpKep.sol\":1680:1688  interval */\n      sload(0x02)\n        /* \"DripWarrior/checckUpKep.sol\":1692:1693  0 */\n      0x00\n        /* \"DripWarrior/checckUpKep.sol\":1680:1693  interval == 0 */\n      sub\n        /* \"DripWarrior/checckUpKep.sol\":1676:1749  if (interval == 0){... */\n      tag_79\n      jumpi\n        /* \"DripWarrior/checckUpKep.sol\":1729:1737  interval */\n      sload(0x02)\n        /* \"DripWarrior/checckUpKep.sol\":1715:1738  wrongInterval(interval) */\n      mload(0x40)\n      shl(0xe0, 0x71540007)\n      dup2\n      mstore\n      0x04\n      add\n      tag_77\n      swap2\n        /* \"#utility.yul\":368:393   */\n      dup2\n      mstore\n        /* \"#utility.yul\":356:358   */\n      0x20\n        /* \"#utility.yul\":341:359   */\n      add\n      swap1\n        /* \"#utility.yul\":222:399   */\n      jump\n        /* \"DripWarrior/checckUpKep.sol\":1676:1749  if (interval == 0){... */\n    tag_79:\n        /* \"DripWarrior/checckUpKep.sol\":1790:1802  startingTime */\n      sload(0x04)\n        /* \"DripWarrior/checckUpKep.sol\":1771:1786  block.timestamp */\n      timestamp\n        /* \"DripWarrior/checckUpKep.sol\":1771:1802  block.timestamp >= startingTime */\n      lt\n        /* \"DripWarrior/checckUpKep.sol\":1768:2480  if(block.timestamp >= startingTime){... */\n      tag_81\n      jumpi\n        /* \"DripWarrior/checckUpKep.sol\":2172:2187  block.timestamp */\n      timestamp\n        /* \"DripWarrior/checckUpKep.sol\":2156:2169  lastTimeStamp */\n      0x05\n        /* \"DripWarrior/checckUpKep.sol\":2156:2187  lastTimeStamp = block.timestamp */\n      dup2\n      swap1\n      sstore\n        /* \"DripWarrior/checckUpKep.sol\":2203:2219  weeklyTransfer() */\n      tag_82\n        /* \"DripWarrior/checckUpKep.sol\":2203:2217  weeklyTransfer */\n      tag_71\n        /* \"DripWarrior/checckUpKep.sol\":2203:2219  weeklyTransfer() */\n      jump\t// in\n    tag_82:\n        /* \"DripWarrior/checckUpKep.sol\":2233:2258  uint256 executionDuration */\n      0x00\n        /* \"DripWarrior/checckUpKep.sol\":2261:2297  block.timestamp - startExecutionTime */\n      tag_83\n        /* \"DripWarrior/checckUpKep.sol\":2279:2297  startExecutionTime */\n      dup3\n        /* \"DripWarrior/checckUpKep.sol\":2261:2276  block.timestamp */\n      timestamp\n        /* \"DripWarrior/checckUpKep.sol\":2261:2297  block.timestamp - startExecutionTime */\n      tag_84\n      jump\t// in\n    tag_83:\n        /* \"DripWarrior/checckUpKep.sol\":2233:2297  uint256 executionDuration = block.timestamp - startExecutionTime */\n      swap1\n      pop\n        /* \"DripWarrior/checckUpKep.sol\":2338:2355  executionDuration */\n      dup1\n        /* \"DripWarrior/checckUpKep.sol\":2323:2335  realInterval */\n      sload(0x03)\n        /* \"DripWarrior/checckUpKep.sol\":2323:2355  realInterval - executionDuration */\n      tag_85\n      swap2\n      swap1\n      tag_84\n      jump\t// in\n    tag_85:\n        /* \"DripWarrior/checckUpKep.sol\":2312:2320  interval */\n      0x02\n        /* \"DripWarrior/checckUpKep.sol\":2312:2355  interval = realInterval - executionDuration */\n      sstore\n      pop\n        /* \"DripWarrior/checckUpKep.sol\":1768:2480  if(block.timestamp >= startingTime){... */\n      tag_86\n      swap1\n      pop\n      jump\n    tag_81:\n        /* \"DripWarrior/checckUpKep.sol\":2456:2468  startingTime */\n      0x04\n      dup1\n      sload\n        /* \"DripWarrior/checckUpKep.sol\":2446:2469  wrongTime(startingTime) */\n      mload(0x40)\n      shl(0xe0, 0x54593e75)\n      dup2\n      mstore\n      swap2\n      dup3\n      add\n        /* \"#utility.yul\":368:393   */\n      mstore\n        /* \"#utility.yul\":341:359   */\n      0x24\n      add\n        /* \"DripWarrior/checckUpKep.sol\":2446:2469  wrongTime(startingTime) */\n      tag_77\n        /* \"#utility.yul\":222:399   */\n      jump\n        /* \"DripWarrior/checckUpKep.sol\":1768:2480  if(block.timestamp >= startingTime){... */\n    tag_86:\n        /* \"DripWarrior/checckUpKep.sol\":1444:2495  function performUpkeep(bytes calldata /*performData*/) external  {... */\n      pop\n      pop\n      jump\t// out\n        /* \"DripWarrior/checckUpKep.sol\":3422:3968  function setInterval (uint256 _startingTime, uint256 updateInterval) external  onlyOwner{... */\n    tag_47:\n        /* \"@openzeppelin/contracts/access/Ownable.sol\":1531:1544  _checkOwner() */\n      tag_89\n        /* \"@openzeppelin/contracts/access/Ownable.sol\":1531:1542  _checkOwner */\n      tag_90\n        /* \"@openzeppelin/contracts/access/Ownable.sol\":1531:1544  _checkOwner() */\n      jump\t// in\n    tag_89:\n        /* \"DripWarrior/checckUpKep.sol\":3551:3552  0 */\n      0x00\n        /* \"DripWarrior/checckUpKep.sol\":3533:3547  updateInterval */\n      dup2\n        /* \"DripWarrior/checckUpKep.sol\":3533:3552  updateInterval <= 0 */\n      gt\n        /* \"DripWarrior/checckUpKep.sol\":3530:3614  if(updateInterval <= 0){... */\n      tag_92\n      jumpi\n        /* \"DripWarrior/checckUpKep.sol\":3574:3603  wrongInterval(updateInterval) */\n      mload(0x40)\n      shl(0xe0, 0x71540007)\n      dup2\n      mstore\n      0x04\n      dup2\n      add\n        /* \"#utility.yul\":368:393   */\n      dup3\n      swap1\n      mstore\n        /* \"#utility.yul\":341:359   */\n      0x24\n      add\n        /* \"DripWarrior/checckUpKep.sol\":3574:3603  wrongInterval(updateInterval) */\n      tag_77\n        /* \"#utility.yul\":222:399   */\n      jump\n        /* \"DripWarrior/checckUpKep.sol\":3530:3614  if(updateInterval <= 0){... */\n    tag_92:\n        /* \"DripWarrior/checckUpKep.sol\":3651:3666  block.timestamp */\n      timestamp\n        /* \"DripWarrior/checckUpKep.sol\":3635:3648  _startingTime */\n      dup3\n        /* \"DripWarrior/checckUpKep.sol\":3635:3666  _startingTime < block.timestamp */\n      lt\n        /* \"DripWarrior/checckUpKep.sol\":3632:3723  if(_startingTime < block.timestamp){... */\n      iszero\n      tag_94\n      jumpi\n        /* \"DripWarrior/checckUpKep.sol\":3688:3712  wrongTime(_startingTime) */\n      mload(0x40)\n      shl(0xe0, 0x54593e75)\n      dup2\n      mstore\n      0x04\n      dup2\n      add\n        /* \"#utility.yul\":368:393   */\n      dup4\n      swap1\n      mstore\n        /* \"#utility.yul\":341:359   */\n      0x24\n      add\n        /* \"DripWarrior/checckUpKep.sol\":3688:3712  wrongTime(_startingTime) */\n      tag_77\n        /* \"#utility.yul\":222:399   */\n      jump\n        /* \"DripWarrior/checckUpKep.sol\":3632:3723  if(_startingTime < block.timestamp){... */\n    tag_94:\n        /* \"DripWarrior/checckUpKep.sol\":3744:3775  _startingTime - block.timestamp */\n      tag_96\n        /* \"DripWarrior/checckUpKep.sol\":3760:3775  block.timestamp */\n      timestamp\n        /* \"DripWarrior/checckUpKep.sol\":3744:3757  _startingTime */\n      dup4\n        /* \"DripWarrior/checckUpKep.sol\":3744:3775  _startingTime - block.timestamp */\n      tag_84\n      jump\t// in\n    tag_96:\n        /* \"DripWarrior/checckUpKep.sol\":3733:3741  interval */\n      0x02\n        /* \"DripWarrior/checckUpKep.sol\":3733:3775  interval = _startingTime - block.timestamp */\n      sstore\n        /* \"DripWarrior/checckUpKep.sol\":3785:3797  startingTime */\n      0x04\n        /* \"DripWarrior/checckUpKep.sol\":3785:3813  startingTime = _startingTime */\n      swap2\n      swap1\n      swap2\n      sstore\n        /* \"DripWarrior/checckUpKep.sol\":3839:3854  block.timestamp */\n      timestamp\n        /* \"DripWarrior/checckUpKep.sol\":3823:3836  lastTimeStamp */\n      0x05\n        /* \"DripWarrior/checckUpKep.sol\":3823:3854  lastTimeStamp = block.timestamp */\n      sstore\n        /* \"DripWarrior/checckUpKep.sol\":3864:3876  realInterval */\n      0x03\n        /* \"DripWarrior/checckUpKep.sol\":3864:3893  realInterval = updateInterval */\n      sstore\n        /* \"DripWarrior/checckUpKep.sol\":3422:3968  function setInterval (uint256 _startingTime, uint256 updateInterval) external  onlyOwner{... */\n      jump\t// out\n        /* \"DripWarrior/checckUpKep.sol\":3974:4082  function off () external  onlyOwner{... */\n    tag_52:\n        /* \"@openzeppelin/contracts/access/Ownable.sol\":1531:1544  _checkOwner() */\n      tag_98\n        /* \"@openzeppelin/contracts/access/Ownable.sol\":1531:1542  _checkOwner */\n      tag_90\n        /* \"@openzeppelin/contracts/access/Ownable.sol\":1531:1544  _checkOwner() */\n      jump\t// in\n    tag_98:\n        /* \"DripWarrior/checckUpKep.sol\":4038:4039  0 */\n      0x00\n        /* \"DripWarrior/checckUpKep.sol\":4027:4035  interval */\n      0x02\n        /* \"DripWarrior/checckUpKep.sol\":4027:4039  interval = 0 */\n      sstore\n        /* \"DripWarrior/checckUpKep.sol\":4049:4058  checkOnce */\n      0x06\n        /* \"DripWarrior/checckUpKep.sol\":4049:4066  checkOnce = false */\n      dup1\n      sload\n      not(shl(0xa0, 0xff))\n      and\n      swap1\n      sstore\n        /* \"DripWarrior/checckUpKep.sol\":3974:4082  function off () external  onlyOwner{... */\n      jump\t// out\n        /* \"DripWarrior/checckUpKep.sol\":1210:1436  function checkUpkeep(bytes calldata /*checkData*/) external override view  returns (bool, bytes memory) {... */\n    tag_55:\n        /* \"DripWarrior/checckUpKep.sol\":1294:1298  bool */\n      0x00\n        /* \"DripWarrior/checckUpKep.sol\":1300:1312  bytes memory */\n      0x60\n        /* \"DripWarrior/checckUpKep.sol\":1325:1341  bool needsUpkeep */\n      0x00\n        /* \"DripWarrior/checckUpKep.sol\":1380:1388  interval */\n      sload(0x02)\n        /* \"DripWarrior/checckUpKep.sol\":1363:1376  lastTimeStamp */\n      sload(0x05)\n        /* \"DripWarrior/checckUpKep.sol\":1345:1360  block.timestamp */\n      timestamp\n        /* \"DripWarrior/checckUpKep.sol\":1345:1376  block.timestamp - lastTimeStamp */\n      tag_101\n      swap2\n      swap1\n      tag_84\n      jump\t// in\n    tag_101:\n        /* \"DripWarrior/checckUpKep.sol\":1419:1428  bytes(\"\") */\n      0x40\n      dup1\n      mload\n      0x20\n      dup2\n      add\n      swap1\n      swap2\n      mstore\n      0x00\n      dup2\n      mstore\n      swap2\n      lt\n      swap7\n      swap1\n      swap6\n      pop\n        /* \"DripWarrior/checckUpKep.sol\":1210:1436  function checkUpkeep(bytes calldata /*checkData*/) external override view  returns (bool, bytes memory) {... */\n      swap4\n      pop\n      pop\n      pop\n      pop\n      jump\t// out\n        /* \"@openzeppelin/contracts/access/Ownable.sol\":2293:2394  function renounceOwnership() public virtual onlyOwner {... */\n    tag_59:\n        /* \"@openzeppelin/contracts/access/Ownable.sol\":1531:1544  _checkOwner() */\n      tag_103\n        /* \"@openzeppelin/contracts/access/Ownable.sol\":1531:1542  _checkOwner */\n      tag_90\n        /* \"@openzeppelin/contracts/access/Ownable.sol\":1531:1544  _checkOwner() */\n      jump\t// in\n    tag_103:\n        /* \"@openzeppelin/contracts/access/Ownable.sol\":2357:2387  _transferOwnership(address(0)) */\n      tag_105\n        /* \"@openzeppelin/contracts/access/Ownable.sol\":2384:2385  0 */\n      0x00\n        /* \"@openzeppelin/contracts/access/Ownable.sol\":2357:2375  _transferOwnership */\n      tag_106\n        /* \"@openzeppelin/contracts/access/Ownable.sol\":2357:2387  _transferOwnership(address(0)) */\n      jump\t// in\n    tag_105:\n        /* \"@openzeppelin/contracts/access/Ownable.sol\":2293:2394  function renounceOwnership() public virtual onlyOwner {... */\n      jump\t// out\n        /* \"DripWarrior/checckUpKep.sol\":6963:7091  function setForwarderAddress(address forwarderAddress) external onlyOwner {... */\n    tag_69:\n        /* \"@openzeppelin/contracts/access/Ownable.sol\":1531:1544  _checkOwner() */\n      tag_109\n        /* \"@openzeppelin/contracts/access/Ownable.sol\":1531:1542  _checkOwner */\n      tag_90\n        /* \"@openzeppelin/contracts/access/Ownable.sol\":1531:1544  _checkOwner() */\n      jump\t// in\n    tag_109:\n        /* \"DripWarrior/checckUpKep.sol\":7047:7065  s_forwarderAddress */\n      0x06\n        /* \"DripWarrior/checckUpKep.sol\":7047:7084  s_forwarderAddress = forwarderAddress */\n      dup1\n      sload\n      not(sub(shl(0xa0, 0x01), 0x01))\n      and\n      sub(shl(0xa0, 0x01), 0x01)\n      swap3\n      swap1\n      swap3\n      and\n      swap2\n      swap1\n      swap2\n      or\n      swap1\n      sstore\n        /* \"DripWarrior/checckUpKep.sol\":6963:7091  function setForwarderAddress(address forwarderAddress) external onlyOwner {... */\n      jump\t// out\n        /* \"DripWarrior/checckUpKep.sol\":4269:5400  function weeklyTransfer() public  {... */\n    tag_71:\n        /* \"DripWarrior/checckUpKep.sol\":4325:4349  uint256 remainFiftyOPool */\n      0x00\n        /* \"DripWarrior/checckUpKep.sol\":4350:4383  uint256 dividentPayoutOPoolAmount */\n      dup1\n        /* \"DripWarrior/checckUpKep.sol\":4385:4411  uint256 perPersonFromTPool */\n      0x00\n        /* \"DripWarrior/checckUpKep.sol\":4416:4436  perPoolCalculation() */\n      tag_112\n        /* \"DripWarrior/checckUpKep.sol\":4416:4434  perPoolCalculation */\n      tag_113\n        /* \"DripWarrior/checckUpKep.sol\":4416:4436  perPoolCalculation() */\n      jump\t// in\n    tag_112:\n        /* \"DripWarrior/checckUpKep.sol\":4323:4436  ( uint256 remainFiftyOPool,uint256 dividentPayoutOPoolAmount, uint256 perPersonFromTPool)  = perPoolCalculation() */\n      swap2\n      swap5\n      pop\n      swap3\n      pop\n      swap1\n      pop\n        /* \"DripWarrior/checckUpKep.sol\":4463:4479  uint256 maxlimit */\n      0x00\n      dup1\n        /* \"DripWarrior/checckUpKep.sol\":4490:5384  for(uint256 i = 0; i < noOfUsers; i++){... */\n    tag_114:\n        /* \"DripWarrior/checckUpKep.sol\":4513:4522  noOfUsers */\n      sload(0x0c)\n        /* \"DripWarrior/checckUpKep.sol\":4509:4510  i */\n      dup2\n        /* \"DripWarrior/checckUpKep.sol\":4509:4522  i < noOfUsers */\n      lt\n        /* \"DripWarrior/checckUpKep.sol\":4490:5384  for(uint256 i = 0; i < noOfUsers; i++){... */\n      iszero\n      tag_115\n      jumpi\n        /* \"DripWarrior/checckUpKep.sol\":4547:4554  blocked */\n      and(0xff, sload(0x09))\n        /* \"DripWarrior/checckUpKep.sol\":4543:5361  if(!blocked){... */\n      tag_117\n      jumpi\n        /* \"DripWarrior/checckUpKep.sol\":4637:4654  totalStakedAmount */\n      sload(0x0b)\n        /* \"DripWarrior/checckUpKep.sol\":4574:4601  uint256 eachSharePercentage */\n      0x00\n      swap1\n        /* \"DripWarrior/checckUpKep.sol\":4605:4632  totalStakedAmount * (10000) */\n      tag_118\n        /* \"DripWarrior/checckUpKep.sol\":4637:4654  totalStakedAmount */\n      dup2\n        /* \"DripWarrior/checckUpKep.sol\":4626:4631  10000 */\n      0x2710\n        /* \"DripWarrior/checckUpKep.sol\":4605:4632  totalStakedAmount * (10000) */\n      tag_119\n      jump\t// in\n    tag_118:\n        /* \"DripWarrior/checckUpKep.sol\":4604:4655  (totalStakedAmount * (10000)) / (totalStakedAmount) */\n      tag_120\n      swap2\n      swap1\n      tag_121\n      jump\t// in\n    tag_120:\n        /* \"DripWarrior/checckUpKep.sol\":4574:4655  uint256 eachSharePercentage = (totalStakedAmount * (10000)) / (totalStakedAmount) */\n      swap1\n      pop\n        /* \"DripWarrior/checckUpKep.sol\":4690:4712  uint256 eachSendAmount */\n      0x00\n        /* \"DripWarrior/checckUpKep.sol\":4715:4782  calculatePercentage(dividentPayoutOPoolAmount, eachSharePercentage) */\n      tag_122\n        /* \"DripWarrior/checckUpKep.sol\":4735:4760  dividentPayoutOPoolAmount */\n      dup7\n        /* \"DripWarrior/checckUpKep.sol\":4762:4781  eachSharePercentage */\n      dup4\n        /* \"DripWarrior/checckUpKep.sol\":4715:4734  calculatePercentage */\n      tag_123\n        /* \"DripWarrior/checckUpKep.sol\":4715:4782  calculatePercentage(dividentPayoutOPoolAmount, eachSharePercentage) */\n      jump\t// in\n    tag_122:\n        /* \"DripWarrior/checckUpKep.sol\":4690:4782  uint256 eachSendAmount = calculatePercentage(dividentPayoutOPoolAmount, eachSharePercentage) */\n      swap1\n      pop\n        /* \"DripWarrior/checckUpKep.sol\":4800:4823  uint256 eachSendAmount1 */\n      0x00\n        /* \"DripWarrior/checckUpKep.sol\":4826:4884  calculatePercentage(remainFiftyOPool, eachSharePercentage) */\n      tag_124\n        /* \"DripWarrior/checckUpKep.sol\":4846:4862  remainFiftyOPool */\n      dup9\n        /* \"DripWarrior/checckUpKep.sol\":4864:4883  eachSharePercentage */\n      dup5\n        /* \"DripWarrior/checckUpKep.sol\":4826:4845  calculatePercentage */\n      tag_123\n        /* \"DripWarrior/checckUpKep.sol\":4826:4884  calculatePercentage(remainFiftyOPool, eachSharePercentage) */\n      jump\t// in\n    tag_124:\n        /* \"DripWarrior/checckUpKep.sol\":4800:4884  uint256 eachSendAmount1 = calculatePercentage(remainFiftyOPool, eachSharePercentage) */\n      swap1\n      pop\n        /* \"DripWarrior/checckUpKep.sol\":4942:4956  eachSendAmount */\n      dup2\n        /* \"DripWarrior/checckUpKep.sol\":4919:4938  ownerShipPoolAmount */\n      0x0d\n      0x00\n        /* \"DripWarrior/checckUpKep.sol\":4919:4956  ownerShipPoolAmount -= eachSendAmount */\n      dup3\n      dup3\n      sload\n      tag_125\n      swap2\n      swap1\n      tag_84\n      jump\t// in\n    tag_125:\n      swap1\n      swap2\n      sstore\n      pop\n        /* \"DripWarrior/checckUpKep.sol\":4999:5025  maxlimit += eachSendAmount */\n      tag_126\n      swap1\n      pop\n        /* \"DripWarrior/checckUpKep.sol\":5011:5025  eachSendAmount */\n      dup3\n        /* \"DripWarrior/checckUpKep.sol\":4999:5025  maxlimit += eachSendAmount */\n      dup7\n      tag_127\n      jump\t// in\n    tag_126:\n      swap5\n      pop\n        /* \"DripWarrior/checckUpKep.sol\":5065:5083  perPersonFromTPool */\n      dup6\n        /* \"DripWarrior/checckUpKep.sol\":5043:5061  treasuryPoolAmount */\n      0x0e\n      0x00\n        /* \"DripWarrior/checckUpKep.sol\":5043:5083  treasuryPoolAmount -= perPersonFromTPool */\n      dup3\n      dup3\n      sload\n      tag_128\n      swap2\n      swap1\n      tag_84\n      jump\t// in\n    tag_128:\n      swap3\n      pop\n      pop\n      dup2\n      swap1\n      sstore\n      pop\n        /* \"DripWarrior/checckUpKep.sol\":5125:5143  perPersonFromTPool */\n      dup6\n        /* \"DripWarrior/checckUpKep.sol\":5102:5121  receiveFromTreasury */\n      0x07\n      0x00\n        /* \"DripWarrior/checckUpKep.sol\":5102:5143  receiveFromTreasury += perPersonFromTPool */\n      dup3\n      dup3\n      sload\n      tag_129\n      swap2\n      swap1\n      tag_127\n      jump\t// in\n    tag_129:\n      swap3\n      pop\n      pop\n      dup2\n      swap1\n      sstore\n      pop\n        /* \"DripWarrior/checckUpKep.sol\":5185:5199  eachSendAmount */\n      dup2\n        /* \"DripWarrior/checckUpKep.sol\":5160:5181  receiveFromOwneerShip */\n      0x08\n      0x00\n        /* \"DripWarrior/checckUpKep.sol\":5160:5199  receiveFromOwneerShip += eachSendAmount */\n      dup3\n      dup3\n      sload\n      tag_130\n      swap2\n      swap1\n      tag_127\n      jump\t// in\n    tag_130:\n      swap1\n      swap2\n      sstore\n      pop\n        /* \"DripWarrior/checckUpKep.sol\":5234:5257  uint256 totalSendAmount */\n      0x00\n      swap1\n      pop\n        /* \"DripWarrior/checckUpKep.sol\":5260:5295  eachSendAmount + perPersonFromTPool */\n      tag_131\n        /* \"DripWarrior/checckUpKep.sol\":5277:5295  perPersonFromTPool */\n      dup8\n        /* \"DripWarrior/checckUpKep.sol\":5260:5274  eachSendAmount */\n      dup5\n        /* \"DripWarrior/checckUpKep.sol\":5260:5295  eachSendAmount + perPersonFromTPool */\n      tag_127\n      jump\t// in\n    tag_131:\n        /* \"DripWarrior/checckUpKep.sol\":5234:5295  uint256 totalSendAmount = eachSendAmount + perPersonFromTPool */\n      swap1\n      pop\n        /* \"DripWarrior/checckUpKep.sol\":5330:5345  totalSendAmount */\n      dup1\n        /* \"DripWarrior/checckUpKep.sol\":5312:5326  receivedAmount */\n      0x0a\n      0x00\n        /* \"DripWarrior/checckUpKep.sol\":5312:5345  receivedAmount += totalSendAmount */\n      dup3\n      dup3\n      sload\n      tag_132\n      swap2\n      swap1\n      tag_127\n      jump\t// in\n    tag_132:\n      swap1\n      swap2\n      sstore\n      pop\n      pop\n      pop\n      pop\n      pop\n      pop\n        /* \"DripWarrior/checckUpKep.sol\":4543:5361  if(!blocked){... */\n    tag_117:\n        /* \"DripWarrior/checckUpKep.sol\":4524:4527  i++ */\n      0x01\n      add\n        /* \"DripWarrior/checckUpKep.sol\":4490:5384  for(uint256 i = 0; i < noOfUsers; i++){... */\n      jump(tag_114)\n    tag_115:\n      pop\n        /* \"DripWarrior/checckUpKep.sol\":4303:5400  {... */\n      pop\n      pop\n      pop\n      pop\n        /* \"DripWarrior/checckUpKep.sol\":4269:5400  function weeklyTransfer() public  {... */\n      jump\t// out\n        /* \"@openzeppelin/contracts/access/Ownable.sol\":2543:2758  function transferOwnership(address newOwner) public virtual onlyOwner {... */\n    tag_74:\n        /* \"@openzeppelin/contracts/access/Ownable.sol\":1531:1544  _checkOwner() */\n      tag_134\n        /* \"@openzeppelin/contracts/access/Ownable.sol\":1531:1542  _checkOwner */\n      tag_90\n        /* \"@openzeppelin/contracts/access/Ownable.sol\":1531:1544  _checkOwner() */\n      jump\t// in\n    tag_134:\n      sub(shl(0xa0, 0x01), 0x01)\n        /* \"@openzeppelin/contracts/access/Ownable.sol\":2627:2649  newOwner == address(0) */\n      dup2\n      and\n        /* \"@openzeppelin/contracts/access/Ownable.sol\":2623:2714  if (newOwner == address(0)) {... */\n      tag_136\n      jumpi\n        /* \"@openzeppelin/contracts/access/Ownable.sol\":2672:2703  OwnableInvalidOwner(address(0)) */\n      mload(0x40)\n      shl(0xe0, 0x1e4fbdf7)\n      dup2\n      mstore\n        /* \"@openzeppelin/contracts/access/Ownable.sol\":2700:2701  0 */\n      0x00\n        /* \"@openzeppelin/contracts/access/Ownable.sol\":2672:2703  OwnableInvalidOwner(address(0)) */\n      0x04\n      dup3\n      add\n        /* \"#utility.yul\":160:211   */\n      mstore\n        /* \"#utility.yul\":133:151   */\n      0x24\n      add\n        /* \"@openzeppelin/contracts/access/Ownable.sol\":2672:2703  OwnableInvalidOwner(address(0)) */\n      tag_77\n        /* \"#utility.yul\":14:217   */\n      jump\n        /* \"@openzeppelin/contracts/access/Ownable.sol\":2623:2714  if (newOwner == address(0)) {... */\n    tag_136:\n        /* \"@openzeppelin/contracts/access/Ownable.sol\":2723:2751  _transferOwnership(newOwner) */\n      tag_138\n        /* \"@openzeppelin/contracts/access/Ownable.sol\":2742:2750  newOwner */\n      dup2\n        /* \"@openzeppelin/contracts/access/Ownable.sol\":2723:2741  _transferOwnership */\n      tag_106\n        /* \"@openzeppelin/contracts/access/Ownable.sol\":2723:2751  _transferOwnership(newOwner) */\n      jump\t// in\n    tag_138:\n        /* \"@openzeppelin/contracts/access/Ownable.sol\":2543:2758  function transferOwnership(address newOwner) public virtual onlyOwner {... */\n      pop\n      jump\t// out\n        /* \"@openzeppelin/contracts/access/Ownable.sol\":1796:1958  function _checkOwner() internal view virtual {... */\n    tag_90:\n        /* \"@openzeppelin/contracts/access/Ownable.sol\":1684:1691  address */\n      0x00\n        /* \"@openzeppelin/contracts/access/Ownable.sol\":1710:1716  _owner */\n      sload\n      sub(shl(0xa0, 0x01), 0x01)\n      and\n        /* \"@openzeppelin/contracts/utils/Context.sol\":735:745  msg.sender */\n      caller\n        /* \"@openzeppelin/contracts/access/Ownable.sol\":1855:1878  owner() != _msgSender() */\n      eq\n        /* \"@openzeppelin/contracts/access/Ownable.sol\":1851:1952  if (owner() != _msgSender()) {... */\n      tag_105\n      jumpi\n        /* \"@openzeppelin/contracts/access/Ownable.sol\":1901:1941  OwnableUnauthorizedAccount(_msgSender()) */\n      mload(0x40)\n      shl(0xe0, 0x118cdaa7)\n      dup2\n      mstore\n        /* \"@openzeppelin/contracts/utils/Context.sol\":735:745  msg.sender */\n      caller\n        /* \"@openzeppelin/contracts/access/Ownable.sol\":1901:1941  OwnableUnauthorizedAccount(_msgSender()) */\n      0x04\n      dup3\n      add\n        /* \"#utility.yul\":160:211   */\n      mstore\n        /* \"#utility.yul\":133:151   */\n      0x24\n      add\n        /* \"@openzeppelin/contracts/access/Ownable.sol\":1901:1941  OwnableUnauthorizedAccount(_msgSender()) */\n      tag_77\n        /* \"#utility.yul\":14:217   */\n      jump\n        /* \"@openzeppelin/contracts/access/Ownable.sol\":2912:3099  function _transferOwnership(address newOwner) internal virtual {... */\n    tag_106:\n        /* \"@openzeppelin/contracts/access/Ownable.sol\":2985:3001  address oldOwner */\n      0x00\n        /* \"@openzeppelin/contracts/access/Ownable.sol\":3004:3010  _owner */\n      dup1\n      sload\n      sub(shl(0xa0, 0x01), 0x01)\n        /* \"@openzeppelin/contracts/access/Ownable.sol\":3020:3037  _owner = newOwner */\n      dup4\n      dup2\n      and\n      not(sub(shl(0xa0, 0x01), 0x01))\n      dup4\n      and\n      dup2\n      or\n      dup5\n      sstore\n        /* \"@openzeppelin/contracts/access/Ownable.sol\":3052:3092  OwnershipTransferred(oldOwner, newOwner) */\n      mload(0x40)\n        /* \"@openzeppelin/contracts/access/Ownable.sol\":3004:3010  _owner */\n      swap2\n      swap1\n      swap3\n      and\n      swap3\n      dup4\n      swap2\n        /* \"@openzeppelin/contracts/access/Ownable.sol\":3052:3092  OwnershipTransferred(oldOwner, newOwner) */\n      0x8be0079c531659141344cd1fd0a4f28419497f9722a3daafe3b4186f6b6457e0\n      swap2\n        /* \"@openzeppelin/contracts/access/Ownable.sol\":2985:3001  address oldOwner */\n      swap1\n        /* \"@openzeppelin/contracts/access/Ownable.sol\":3052:3092  OwnershipTransferred(oldOwner, newOwner) */\n      log3\n        /* \"@openzeppelin/contracts/access/Ownable.sol\":2975:3099  {... */\n      pop\n        /* \"@openzeppelin/contracts/access/Ownable.sol\":2912:3099  function _transferOwnership(address newOwner) internal virtual {... */\n      pop\n      jump\t// out\n        /* \"DripWarrior/checckUpKep.sol\":5762:6710  function perPoolCalculation() private returns(uint256, uint256,uint256){... */\n    tag_113:\n        /* \"DripWarrior/checckUpKep.sol\":5808:5815  uint256 */\n      0x00\n        /* \"DripWarrior/checckUpKep.sol\":5817:5824  uint256 */\n      dup1\n        /* \"DripWarrior/checckUpKep.sol\":5825:5832  uint256 */\n      0x00\n        /* \"DripWarrior/checckUpKep.sol\":5853:5877  uint256 remainFiftyOPool */\n      dup1\n        /* \"DripWarrior/checckUpKep.sol\":5880:5926  calculatePercentage(ownerShipPoolAmount, 5000) */\n      tag_148\n        /* \"DripWarrior/checckUpKep.sol\":5900:5919  ownerShipPoolAmount */\n      sload(0x0d)\n        /* \"DripWarrior/checckUpKep.sol\":5921:5925  5000 */\n      0x1388\n        /* \"DripWarrior/checckUpKep.sol\":5880:5899  calculatePercentage */\n      tag_123\n        /* \"DripWarrior/checckUpKep.sol\":5880:5926  calculatePercentage(ownerShipPoolAmount, 5000) */\n      jump\t// in\n    tag_148:\n        /* \"DripWarrior/checckUpKep.sol\":5853:5926  uint256 remainFiftyOPool = calculatePercentage(ownerShipPoolAmount, 5000) */\n      swap1\n      pop\n        /* \"DripWarrior/checckUpKep.sol\":5937:5970  uint256 dividentPayoutOPoolAmount */\n      0x00\n        /* \"DripWarrior/checckUpKep.sol\":5973:6037  calculatePercentage(remainFiftyOPool, odividentPayoutPercentage) */\n      tag_149\n        /* \"DripWarrior/checckUpKep.sol\":5993:6009  remainFiftyOPool */\n      dup3\n        /* \"DripWarrior/checckUpKep.sol\":6011:6036  odividentPayoutPercentage */\n      sload(0x0f)\n        /* \"DripWarrior/checckUpKep.sol\":5973:5992  calculatePercentage */\n      tag_123\n        /* \"DripWarrior/checckUpKep.sol\":5973:6037  calculatePercentage(remainFiftyOPool, odividentPayoutPercentage) */\n      jump\t// in\n    tag_149:\n        /* \"DripWarrior/checckUpKep.sol\":5937:6037  uint256 dividentPayoutOPoolAmount = calculatePercentage(remainFiftyOPool, odividentPayoutPercentage) */\n      swap1\n      pop\n        /* \"DripWarrior/checckUpKep.sol\":6047:6083  uint256 fifteenPercenntToTPoolAmount */\n      0x00\n        /* \"DripWarrior/checckUpKep.sol\":6086:6149  calculatePercentage(remainFiftyOPool, flowToTreasuryPercentage) */\n      tag_150\n        /* \"DripWarrior/checckUpKep.sol\":6106:6122  remainFiftyOPool */\n      dup4\n        /* \"DripWarrior/checckUpKep.sol\":6124:6148  flowToTreasuryPercentage */\n      sload(0x10)\n        /* \"DripWarrior/checckUpKep.sol\":6086:6105  calculatePercentage */\n      tag_123\n        /* \"DripWarrior/checckUpKep.sol\":6086:6149  calculatePercentage(remainFiftyOPool, flowToTreasuryPercentage) */\n      jump\t// in\n    tag_150:\n        /* \"DripWarrior/checckUpKep.sol\":6047:6149  uint256 fifteenPercenntToTPoolAmount = calculatePercentage(remainFiftyOPool, flowToTreasuryPercentage) */\n      swap1\n      pop\n        /* \"DripWarrior/checckUpKep.sol\":6159:6195  uint256 tenPercenntToMaintenceAmount */\n      0x00\n        /* \"DripWarrior/checckUpKep.sol\":6198:6260  calculatePercentage(remainFiftyOPool, maintainceFeePercentage) */\n      tag_151\n        /* \"DripWarrior/checckUpKep.sol\":6218:6234  remainFiftyOPool */\n      dup5\n        /* \"DripWarrior/checckUpKep.sol\":6236:6259  maintainceFeePercentage */\n      sload(0x11)\n        /* \"DripWarrior/checckUpKep.sol\":6198:6217  calculatePercentage */\n      tag_123\n        /* \"DripWarrior/checckUpKep.sol\":6198:6260  calculatePercentage(remainFiftyOPool, maintainceFeePercentage) */\n      jump\t// in\n    tag_151:\n        /* \"DripWarrior/checckUpKep.sol\":6159:6260  uint256 tenPercenntToMaintenceAmount = calculatePercentage(remainFiftyOPool, maintainceFeePercentage) */\n      swap1\n      pop\n        /* \"DripWarrior/checckUpKep.sol\":6270:6300  uint256 remainFiftyTPoolAmount */\n      0x00\n        /* \"DripWarrior/checckUpKep.sol\":6303:6369  calculatePercentage(treasuryPoolAmount, tdividentPayoutPercentage) */\n      tag_152\n        /* \"DripWarrior/checckUpKep.sol\":6323:6341  treasuryPoolAmount */\n      sload(0x0e)\n        /* \"DripWarrior/checckUpKep.sol\":6343:6368  tdividentPayoutPercentage */\n      sload(0x12)\n        /* \"DripWarrior/checckUpKep.sol\":6303:6322  calculatePercentage */\n      tag_123\n        /* \"DripWarrior/checckUpKep.sol\":6303:6369  calculatePercentage(treasuryPoolAmount, tdividentPayoutPercentage) */\n      jump\t// in\n    tag_152:\n        /* \"DripWarrior/checckUpKep.sol\":6270:6369  uint256 remainFiftyTPoolAmount = calculatePercentage(treasuryPoolAmount, tdividentPayoutPercentage) */\n      swap1\n      pop\n        /* \"DripWarrior/checckUpKep.sol\":6388:6414  uint256 perPersonFromTPool */\n      0x00\n        /* \"DripWarrior/checckUpKep.sol\":6440:6449  noOfUsers */\n      sload(0x0c)\n        /* \"DripWarrior/checckUpKep.sol\":6417:6439  remainFiftyTPoolAmount */\n      dup3\n        /* \"DripWarrior/checckUpKep.sol\":6417:6449  remainFiftyTPoolAmount/noOfUsers */\n      tag_153\n      swap2\n      swap1\n      tag_121\n      jump\t// in\n    tag_153:\n        /* \"DripWarrior/checckUpKep.sol\":6388:6449  uint256 perPersonFromTPool = remainFiftyTPoolAmount/noOfUsers */\n      swap1\n      pop\n        /* \"DripWarrior/checckUpKep.sol\":6492:6551  fifteenPercenntToTPoolAmount + tenPercenntToMaintenceAmount */\n      tag_154\n        /* \"DripWarrior/checckUpKep.sol\":6523:6551  tenPercenntToMaintenceAmount */\n      dup4\n        /* \"DripWarrior/checckUpKep.sol\":6492:6520  fifteenPercenntToTPoolAmount */\n      dup6\n        /* \"DripWarrior/checckUpKep.sol\":6492:6551  fifteenPercenntToTPoolAmount + tenPercenntToMaintenceAmount */\n      tag_127\n      jump\t// in\n    tag_154:\n        /* \"DripWarrior/checckUpKep.sol\":6468:6487  ownerShipPoolAmount */\n      0x0d\n      0x00\n        /* \"DripWarrior/checckUpKep.sol\":6468:6552  ownerShipPoolAmount -= (fifteenPercenntToTPoolAmount + tenPercenntToMaintenceAmount) */\n      dup3\n      dup3\n      sload\n      tag_155\n      swap2\n      swap1\n      tag_84\n      jump\t// in\n    tag_155:\n      swap3\n      pop\n      pop\n      dup2\n      swap1\n      sstore\n      pop\n        /* \"DripWarrior/checckUpKep.sol\":6584:6612  fifteenPercenntToTPoolAmount */\n      dup4\n        /* \"DripWarrior/checckUpKep.sol\":6562:6580  treasuryPoolAmount */\n      0x0e\n      0x00\n        /* \"DripWarrior/checckUpKep.sol\":6562:6612  treasuryPoolAmount += fifteenPercenntToTPoolAmount */\n      dup3\n      dup3\n      sload\n      tag_156\n      swap2\n      swap1\n      tag_127\n      jump\t// in\n    tag_156:\n      swap1\n      swap2\n      sstore\n      pop\n        /* \"DripWarrior/checckUpKep.sol\":6641:6657  remainFiftyOPool */\n      swap6\n      swap10\n        /* \"DripWarrior/checckUpKep.sol\":6658:6683  dividentPayoutOPoolAmount */\n      swap5\n      swap9\n      pop\n        /* \"DripWarrior/checckUpKep.sol\":6684:6702  perPersonFromTPool */\n      swap7\n      pop\n        /* \"DripWarrior/checckUpKep.sol\":5762:6710  function perPoolCalculation() private returns(uint256, uint256,uint256){... */\n      swap3\n      swap5\n      pop\n      pop\n      pop\n      pop\n      pop\n      jump\t// out\n        /* \"DripWarrior/checckUpKep.sol\":6716:6957  function calculatePercentage(uint256 _totalStakeAmount,uint256 percentageNumber) private pure returns(uint256) {... */\n    tag_123:\n        /* \"DripWarrior/checckUpKep.sol\":6818:6825  uint256 */\n      0x00\n      dup1\n        /* \"DripWarrior/checckUpKep.sol\":6908:6913  10000 */\n      0x2710\n        /* \"DripWarrior/checckUpKep.sol\":6866:6904  _totalStakeAmount * (percentageNumber) */\n      tag_158\n        /* \"DripWarrior/checckUpKep.sol\":6887:6903  percentageNumber */\n      dup5\n        /* \"DripWarrior/checckUpKep.sol\":6866:6883  _totalStakeAmount */\n      dup7\n        /* \"DripWarrior/checckUpKep.sol\":6866:6904  _totalStakeAmount * (percentageNumber) */\n      tag_119\n      jump\t// in\n    tag_158:\n        /* \"DripWarrior/checckUpKep.sol\":6866:6914  _totalStakeAmount * (percentageNumber) / (10000) */\n      tag_159\n      swap2\n      swap1\n      tag_121\n      jump\t// in\n    tag_159:\n        /* \"DripWarrior/checckUpKep.sol\":6845:6914  uint256 serviceFee = _totalStakeAmount * (percentageNumber) / (10000) */\n      swap2\n      pop\n      pop\n        /* \"DripWarrior/checckUpKep.sol\":6716:6957  function calculatePercentage(uint256 _totalStakeAmount,uint256 percentageNumber) private pure returns(uint256) {... */\n    tag_157:\n      swap3\n      swap2\n      pop\n      pop\n      jump\t// out\n        /* \"#utility.yul\":596:1182   */\n    tag_42:\n        /* \"#utility.yul\":666:672   */\n      0x00\n        /* \"#utility.yul\":674:680   */\n      dup1\n        /* \"#utility.yul\":727:729   */\n      0x20\n        /* \"#utility.yul\":715:724   */\n      dup4\n        /* \"#utility.yul\":706:713   */\n      dup6\n        /* \"#utility.yul\":702:725   */\n      sub\n        /* \"#utility.yul\":698:730   */\n      slt\n        /* \"#utility.yul\":695:747   */\n      iszero\n      tag_167\n      jumpi\n        /* \"#utility.yul\":743:744   */\n      0x00\n        /* \"#utility.yul\":740:741   */\n      dup1\n        /* \"#utility.yul\":733:745   */\n      revert\n        /* \"#utility.yul\":695:747   */\n    tag_167:\n        /* \"#utility.yul\":783:792   */\n      dup3\n        /* \"#utility.yul\":770:793   */\n      calldataload\n        /* \"#utility.yul\":816:834   */\n      0xffffffffffffffff\n        /* \"#utility.yul\":808:814   */\n      dup2\n        /* \"#utility.yul\":805:835   */\n      gt\n        /* \"#utility.yul\":802:852   */\n      iszero\n      tag_168\n      jumpi\n        /* \"#utility.yul\":848:849   */\n      0x00\n        /* \"#utility.yul\":845:846   */\n      dup1\n        /* \"#utility.yul\":838:850   */\n      revert\n        /* \"#utility.yul\":802:852   */\n    tag_168:\n        /* \"#utility.yul\":871:893   */\n      dup4\n      add\n        /* \"#utility.yul\":924:928   */\n      0x1f\n        /* \"#utility.yul\":916:929   */\n      dup2\n      add\n        /* \"#utility.yul\":912:939   */\n      dup6\n      sgt\n        /* \"#utility.yul\":902:957   */\n      tag_169\n      jumpi\n        /* \"#utility.yul\":953:954   */\n      0x00\n        /* \"#utility.yul\":950:951   */\n      dup1\n        /* \"#utility.yul\":943:955   */\n      revert\n        /* \"#utility.yul\":902:957   */\n    tag_169:\n        /* \"#utility.yul\":993:995   */\n      dup1\n        /* \"#utility.yul\":980:996   */\n      calldataload\n        /* \"#utility.yul\":1019:1037   */\n      0xffffffffffffffff\n        /* \"#utility.yul\":1011:1017   */\n      dup2\n        /* \"#utility.yul\":1008:1038   */\n      gt\n        /* \"#utility.yul\":1005:1055   */\n      iszero\n      tag_170\n      jumpi\n        /* \"#utility.yul\":1051:1052   */\n      0x00\n        /* \"#utility.yul\":1048:1049   */\n      dup1\n        /* \"#utility.yul\":1041:1053   */\n      revert\n        /* \"#utility.yul\":1005:1055   */\n    tag_170:\n        /* \"#utility.yul\":1096:1103   */\n      dup6\n        /* \"#utility.yul\":1091:1093   */\n      0x20\n        /* \"#utility.yul\":1082:1088   */\n      dup3\n        /* \"#utility.yul\":1078:1080   */\n      dup5\n        /* \"#utility.yul\":1074:1089   */\n      add\n        /* \"#utility.yul\":1070:1094   */\n      add\n        /* \"#utility.yul\":1067:1104   */\n      gt\n        /* \"#utility.yul\":1064:1121   */\n      iszero\n      tag_171\n      jumpi\n        /* \"#utility.yul\":1117:1118   */\n      0x00\n        /* \"#utility.yul\":1114:1115   */\n      dup1\n        /* \"#utility.yul\":1107:1119   */\n      revert\n        /* \"#utility.yul\":1064:1121   */\n    tag_171:\n        /* \"#utility.yul\":1148:1150   */\n      0x20\n        /* \"#utility.yul\":1140:1151   */\n      swap2\n      swap1\n      swap2\n      add\n      swap6\n        /* \"#utility.yul\":1170:1176   */\n      swap1\n      swap5\n      pop\n        /* \"#utility.yul\":596:1182   */\n      swap3\n      pop\n      pop\n      pop\n      jump\t// out\n        /* \"#utility.yul\":1187:1533   */\n    tag_46:\n        /* \"#utility.yul\":1255:1261   */\n      0x00\n        /* \"#utility.yul\":1263:1269   */\n      dup1\n        /* \"#utility.yul\":1316:1318   */\n      0x40\n        /* \"#utility.yul\":1304:1313   */\n      dup4\n        /* \"#utility.yul\":1295:1302   */\n      dup6\n        /* \"#utility.yul\":1291:1314   */\n      sub\n        /* \"#utility.yul\":1287:1319   */\n      slt\n        /* \"#utility.yul\":1284:1336   */\n      iszero\n      tag_173\n      jumpi\n        /* \"#utility.yul\":1332:1333   */\n      0x00\n        /* \"#utility.yul\":1329:1330   */\n      dup1\n        /* \"#utility.yul\":1322:1334   */\n      revert\n        /* \"#utility.yul\":1284:1336   */\n    tag_173:\n      pop\n      pop\n        /* \"#utility.yul\":1377:1400   */\n      dup1\n      calldataload\n      swap3\n        /* \"#utility.yul\":1497:1499   */\n      0x20\n        /* \"#utility.yul\":1482:1500   */\n      swap1\n      swap2\n      add\n        /* \"#utility.yul\":1469:1501   */\n      calldataload\n      swap2\n      pop\n        /* \"#utility.yul\":1187:1533   */\n      jump\t// out\n        /* \"#utility.yul\":1538:2035   */\n    tag_57:\n        /* \"#utility.yul\":1721:1727   */\n      dup3\n        /* \"#utility.yul\":1714:1728   */\n      iszero\n        /* \"#utility.yul\":1707:1729   */\n      iszero\n        /* \"#utility.yul\":1696:1705   */\n      dup2\n        /* \"#utility.yul\":1689:1730   */\n      mstore\n        /* \"#utility.yul\":1766:1768   */\n      0x40\n        /* \"#utility.yul\":1761:1763   */\n      0x20\n        /* \"#utility.yul\":1750:1759   */\n      dup3\n        /* \"#utility.yul\":1746:1764   */\n      add\n        /* \"#utility.yul\":1739:1769   */\n      mstore\n        /* \"#utility.yul\":1670:1674   */\n      0x00\n        /* \"#utility.yul\":1798:1804   */\n      dup3\n        /* \"#utility.yul\":1792:1805   */\n      mload\n        /* \"#utility.yul\":1841:1847   */\n      dup1\n        /* \"#utility.yul\":1836:1838   */\n      0x40\n        /* \"#utility.yul\":1825:1834   */\n      dup5\n        /* \"#utility.yul\":1821:1839   */\n      add\n        /* \"#utility.yul\":1814:1848   */\n      mstore\n        /* \"#utility.yul\":1900:1906   */\n      dup1\n        /* \"#utility.yul\":1895:1897   */\n      0x20\n        /* \"#utility.yul\":1887:1893   */\n      dup6\n        /* \"#utility.yul\":1883:1898   */\n      add\n        /* \"#utility.yul\":1878:1880   */\n      0x60\n        /* \"#utility.yul\":1867:1876   */\n      dup6\n        /* \"#utility.yul\":1863:1881   */\n      add\n        /* \"#utility.yul\":1857:1907   */\n      mcopy\n        /* \"#utility.yul\":1956:1957   */\n      0x00\n        /* \"#utility.yul\":1951:1953   */\n      0x60\n        /* \"#utility.yul\":1942:1948   */\n      dup3\n        /* \"#utility.yul\":1931:1940   */\n      dup6\n        /* \"#utility.yul\":1927:1949   */\n      add\n        /* \"#utility.yul\":1923:1954   */\n      add\n        /* \"#utility.yul\":1916:1958   */\n      mstore\n        /* \"#utility.yul\":2026:2028   */\n      0x60\n        /* \"#utility.yul\":2019:2021   */\n      0x1f\n        /* \"#utility.yul\":2015:2022   */\n      not\n        /* \"#utility.yul\":2010:2012   */\n      0x1f\n        /* \"#utility.yul\":2002:2008   */\n      dup4\n        /* \"#utility.yul\":1998:2013   */\n      add\n        /* \"#utility.yul\":1994:2023   */\n      and\n        /* \"#utility.yul\":1983:1992   */\n      dup5\n        /* \"#utility.yul\":1979:2024   */\n      add\n        /* \"#utility.yul\":1975:2029   */\n      add\n        /* \"#utility.yul\":1967:2029   */\n      swap2\n      pop\n      pop\n        /* \"#utility.yul\":1538:2035   */\n      swap4\n      swap3\n      pop\n      pop\n      pop\n      jump\t// out\n        /* \"#utility.yul\":2040:2326   */\n    tag_68:\n        /* \"#utility.yul\":2099:2105   */\n      0x00\n        /* \"#utility.yul\":2152:2154   */\n      0x20\n        /* \"#utility.yul\":2140:2149   */\n      dup3\n        /* \"#utility.yul\":2131:2138   */\n      dup5\n        /* \"#utility.yul\":2127:2150   */\n      sub\n        /* \"#utility.yul\":2123:2155   */\n      slt\n        /* \"#utility.yul\":2120:2172   */\n      iszero\n      tag_176\n      jumpi\n        /* \"#utility.yul\":2168:2169   */\n      0x00\n        /* \"#utility.yul\":2165:2166   */\n      dup1\n        /* \"#utility.yul\":2158:2170   */\n      revert\n        /* \"#utility.yul\":2120:2172   */\n    tag_176:\n        /* \"#utility.yul\":2194:2217   */\n      dup2\n      calldataload\n      sub(shl(0xa0, 0x01), 0x01)\n        /* \"#utility.yul\":2246:2277   */\n      dup2\n      and\n        /* \"#utility.yul\":2236:2278   */\n      dup2\n      eq\n        /* \"#utility.yul\":2226:2296   */\n      tag_177\n      jumpi\n        /* \"#utility.yul\":2292:2293   */\n      0x00\n        /* \"#utility.yul\":2289:2290   */\n      dup1\n        /* \"#utility.yul\":2282:2294   */\n      revert\n        /* \"#utility.yul\":2226:2296   */\n    tag_177:\n        /* \"#utility.yul\":2315:2320   */\n      swap4\n        /* \"#utility.yul\":2040:2326   */\n      swap3\n      pop\n      pop\n      pop\n      jump\t// out\n        /* \"#utility.yul\":2759:2886   */\n    tag_161:\n        /* \"#utility.yul\":2820:2830   */\n      0x4e487b71\n        /* \"#utility.yul\":2815:2818   */\n      0xe0\n        /* \"#utility.yul\":2811:2831   */\n      shl\n        /* \"#utility.yul\":2808:2809   */\n      0x00\n        /* \"#utility.yul\":2801:2832   */\n      mstore\n        /* \"#utility.yul\":2851:2855   */\n      0x11\n        /* \"#utility.yul\":2848:2849   */\n      0x04\n        /* \"#utility.yul\":2841:2856   */\n      mstore\n        /* \"#utility.yul\":2875:2879   */\n      0x24\n        /* \"#utility.yul\":2872:2873   */\n      0x00\n        /* \"#utility.yul\":2865:2880   */\n      revert\n        /* \"#utility.yul\":2891:3019   */\n    tag_84:\n        /* \"#utility.yul\":2958:2967   */\n      dup2\n      dup2\n      sub\n        /* \"#utility.yul\":2979:2990   */\n      dup2\n      dup2\n      gt\n        /* \"#utility.yul\":2976:3013   */\n      iszero\n      tag_157\n      jumpi\n        /* \"#utility.yul\":2993:3011   */\n      tag_157\n      tag_161\n      jump\t// in\n        /* \"#utility.yul\":3024:3192   */\n    tag_119:\n        /* \"#utility.yul\":3097:3106   */\n      dup1\n      dup3\n      mul\n        /* \"#utility.yul\":3128:3137   */\n      dup2\n      iszero\n        /* \"#utility.yul\":3145:3160   */\n      dup3\n      dup3\n      div\n        /* \"#utility.yul\":3139:3161   */\n      dup5\n      eq\n        /* \"#utility.yul\":3125:3162   */\n      or\n        /* \"#utility.yul\":3115:3186   */\n      tag_157\n      jumpi\n        /* \"#utility.yul\":3166:3184   */\n      tag_157\n      tag_161\n      jump\t// in\n        /* \"#utility.yul\":3197:3414   */\n    tag_121:\n        /* \"#utility.yul\":3237:3238   */\n      0x00\n        /* \"#utility.yul\":3263:3264   */\n      dup3\n        /* \"#utility.yul\":3253:3385   */\n      tag_187\n      jumpi\n        /* \"#utility.yul\":3307:3317   */\n      0x4e487b71\n        /* \"#utility.yul\":3302:3305   */\n      0xe0\n        /* \"#utility.yul\":3298:3318   */\n      shl\n        /* \"#utility.yul\":3295:3296   */\n      0x00\n        /* \"#utility.yul\":3288:3319   */\n      mstore\n        /* \"#utility.yul\":3342:3346   */\n      0x12\n        /* \"#utility.yul\":3339:3340   */\n      0x04\n        /* \"#utility.yul\":3332:3347   */\n      mstore\n        /* \"#utility.yul\":3370:3374   */\n      0x24\n        /* \"#utility.yul\":3367:3368   */\n      0x00\n        /* \"#utility.yul\":3360:3375   */\n      revert\n        /* \"#utility.yul\":3253:3385   */\n    tag_187:\n      pop\n        /* \"#utility.yul\":3399:3408   */\n      div\n      swap1\n        /* \"#utility.yul\":3197:3414   */\n      jump\t// out\n        /* \"#utility.yul\":3419:3544   */\n    tag_127:\n        /* \"#utility.yul\":3484:3493   */\n      dup1\n      dup3\n      add\n        /* \"#utility.yul\":3505:3515   */\n      dup1\n      dup3\n      gt\n        /* \"#utility.yul\":3502:3538   */\n      iszero\n      tag_157\n      jumpi\n        /* \"#utility.yul\":3518:3536   */\n      tag_157\n      tag_161\n      jump\t// in\n\n    auxdata: 0xa26469706673582212209120a310dae1205a957815b459e1251be6b70cc35bfc17a2d9ed5f829eccedb964736f6c634300081a0033\n}\n",
				"bytecode": {
					"linkReferences": {},
					"object": "60806040526009805460ff191690556801158e460913d00000600b556064600c55710b7abc627050305adf1495f92d4c589c0000600d819055600e5560c8600f819055601081905560118190556012553480156059575f80fd5b503380607e57604051631e4fbdf760e01b81525f600482015260240160405180910390fd5b608581608a565b5060d9565b5f80546001600160a01b038381166001600160a01b0319831681178455604051919092169283917f8be0079c531659141344cd1fd0a4f28419497f9722a3daafe3b4186f6b6457e09190a35050565b610847806100e65f395ff3fe608060405234801561000f575f80fd5b50600436106100fb575f3560e01c80636626b26d11610093578063947a36fb11610063578063947a36fb146101ee578063d777cc6d146101f7578063e9c68e2c1461020a578063f2fde38b14610212575f80fd5b80636626b26d146101ad5780636e04ff0d146101b5578063715018a6146101d65780638da5cb5b146101de575f80fd5b80633f3b3b27116100ce5780633f3b3b27146101735780634585e33b1461017c5780635f17e6161461019157806361bc221a146101a4575f80fd5b80633070fbf8146100ff57806330cac9721461012f57806330e3f8f81461014657806339518b5e1461016a575b5f80fd5b600654610112906001600160a01b031681565b6040516001600160a01b0390911681526020015b60405180910390f35b61013860035481565b604051908152602001610126565b60065461015a90600160a01b900460ff1681565b6040519015158152602001610126565b61013860045481565b61013860055481565b61018f61018a3660046106a8565b610225565b005b61018f61019f366004610716565b610330565b61013860015481565b61018f61039b565b6101c86101c33660046106a8565b6103b6565b604051610126929190610736565b61018f6103e6565b5f546001600160a01b0316610112565b61013860025481565b61018f610205366004610774565b6103f9565b61018f610423565b61018f610220366004610774565b610524565b6006546001600160a01b031633146102aa5760405162461bcd60e51b815260206004820152603b60248201527f54686973206164647265737320646f6573206e6f742068617665207065726d6960448201527f7373696f6e20746f2063616c6c20706572666f726d55706b656570000000000060648201526084015b60405180910390fd5b6002545f036102d257600254604051637154000760e01b81526004016102a191815260200190565b600454421061030f574260058190556102e9610423565b5f6102f482426107b5565b90508060035461030491906107b5565b6002555061032c9050565b600480546040516354593e7560e01b8152918201526024016102a1565b5050565b610338610561565b5f811161035b57604051637154000760e01b8152600481018290526024016102a1565b4282101561037f576040516354593e7560e01b8152600481018390526024016102a1565b61038942836107b5565b60025560049190915542600555600355565b6103a3610561565b5f6002556006805460ff60a01b19169055565b5f60605f600254600554426103cb91906107b5565b60408051602081019091525f81529110969095509350505050565b6103ee610561565b6103f75f61058d565b565b610401610561565b600680546001600160a01b0319166001600160a01b0392909216919091179055565b5f805f61042e6105dc565b919450925090505f805b600c5481101561051d5760095460ff1661051557600b545f9061045d816127106107c8565b61046791906107df565b90505f6104748683610685565b90505f6104818884610685565b905081600d5f82825461049491906107b5565b909155506104a4905082866107fe565b945085600e5f8282546104b791906107b5565b925050819055508560075f8282546104cf91906107fe565b925050819055508160085f8282546104e791906107fe565b909155505f90506104f887846107fe565b905080600a5f82825461050b91906107fe565b9091555050505050505b600101610438565b5050505050565b61052c610561565b6001600160a01b03811661055557604051631e4fbdf760e01b81525f60048201526024016102a1565b61055e8161058d565b50565b5f546001600160a01b031633146103f75760405163118cdaa760e01b81523360048201526024016102a1565b5f80546001600160a01b038381166001600160a01b0319831681178455604051919092169283917f8be0079c531659141344cd1fd0a4f28419497f9722a3daafe3b4186f6b6457e09190a35050565b5f805f806105ee600d54611388610685565b90505f6105fd82600f54610685565b90505f61060c83601054610685565b90505f61061b84601154610685565b90505f61062c600e54601254610685565b90505f600c548261063d91906107df565b905061064983856107fe565b600d5f82825461065991906107b5565b9250508190555083600e5f82825461067191906107fe565b909155509599949850965092945050505050565b5f8061271061069484866107c8565b61069e91906107df565b9150505b92915050565b5f80602083850312156106b9575f80fd5b823567ffffffffffffffff8111156106cf575f80fd5b8301601f810185136106df575f80fd5b803567ffffffffffffffff8111156106f5575f80fd5b856020828401011115610706575f80fd5b6020919091019590945092505050565b5f8060408385031215610727575f80fd5b50508035926020909101359150565b8215158152604060208201525f82518060408401528060208501606085015e5f606082850101526060601f19601f8301168401019150509392505050565b5f60208284031215610784575f80fd5b81356001600160a01b038116811461079a575f80fd5b9392505050565b634e487b7160e01b5f52601160045260245ffd5b818103818111156106a2576106a26107a1565b80820281158282048414176106a2576106a26107a1565b5f826107f957634e487b7160e01b5f52601260045260245ffd5b500490565b808201808211156106a2576106a26107a156fea26469706673582212209120a310dae1205a957815b459e1251be6b70cc35bfc17a2d9ed5f829eccedb964736f6c634300081a0033",
					"opcodes": "PUSH1 0x80 PUSH1 0x40 MSTORE PUSH1 0x9 DUP1 SLOAD PUSH1 0xFF NOT AND SWAP1 SSTORE PUSH9 0x1158E460913D00000 PUSH1 0xB SSTORE PUSH1 0x64 PUSH1 0xC SSTORE PUSH18 0xB7ABC627050305ADF1495F92D4C589C0000 PUSH1 0xD DUP2 SWAP1 SSTORE PUSH1 0xE SSTORE PUSH1 0xC8 PUSH1 0xF DUP2 SWAP1 SSTORE PUSH1 0x10 DUP2 SWAP1 SSTORE PUSH1 0x11 DUP2 SWAP1 SSTORE PUSH1 0x12 SSTORE CALLVALUE DUP1 ISZERO PUSH1 0x59 JUMPI PUSH0 DUP1 REVERT JUMPDEST POP CALLER DUP1 PUSH1 0x7E JUMPI PUSH1 0x40 MLOAD PUSH4 0x1E4FBDF7 PUSH1 0xE0 SHL DUP2 MSTORE PUSH0 PUSH1 0x4 DUP3 ADD MSTORE PUSH1 0x24 ADD PUSH1 0x40 MLOAD DUP1 SWAP2 SUB SWAP1 REVERT JUMPDEST PUSH1 0x85 DUP2 PUSH1 0x8A JUMP JUMPDEST POP PUSH1 0xD9 JUMP JUMPDEST PUSH0 DUP1 SLOAD PUSH1 0x1 PUSH1 0x1 PUSH1 0xA0 SHL SUB DUP4 DUP2 AND PUSH1 0x1 PUSH1 0x1 PUSH1 0xA0 SHL SUB NOT DUP4 AND DUP2 OR DUP5 SSTORE PUSH1 0x40 MLOAD SWAP2 SWAP1 SWAP3 AND SWAP3 DUP4 SWAP2 PUSH32 0x8BE0079C531659141344CD1FD0A4F28419497F9722A3DAAFE3B4186F6B6457E0 SWAP2 SWAP1 LOG3 POP POP JUMP JUMPDEST PUSH2 0x847 DUP1 PUSH2 0xE6 PUSH0 CODECOPY PUSH0 RETURN INVALID PUSH1 0x80 PUSH1 0x40 MSTORE CALLVALUE DUP1 ISZERO PUSH2 0xF JUMPI PUSH0 DUP1 REVERT JUMPDEST POP PUSH1 0x4 CALLDATASIZE LT PUSH2 0xFB JUMPI PUSH0 CALLDATALOAD PUSH1 0xE0 SHR DUP1 PUSH4 0x6626B26D GT PUSH2 0x93 JUMPI DUP1 PUSH4 0x947A36FB GT PUSH2 0x63 JUMPI DUP1 PUSH4 0x947A36FB EQ PUSH2 0x1EE JUMPI DUP1 PUSH4 0xD777CC6D EQ PUSH2 0x1F7 JUMPI DUP1 PUSH4 0xE9C68E2C EQ PUSH2 0x20A JUMPI DUP1 PUSH4 0xF2FDE38B EQ PUSH2 0x212 JUMPI PUSH0 DUP1 REVERT JUMPDEST DUP1 PUSH4 0x6626B26D EQ PUSH2 0x1AD JUMPI DUP1 PUSH4 0x6E04FF0D EQ PUSH2 0x1B5 JUMPI DUP1 PUSH4 0x715018A6 EQ PUSH2 0x1D6 JUMPI DUP1 PUSH4 0x8DA5CB5B EQ PUSH2 0x1DE JUMPI PUSH0 DUP1 REVERT JUMPDEST DUP1 PUSH4 0x3F3B3B27 GT PUSH2 0xCE JUMPI DUP1 PUSH4 0x3F3B3B27 EQ PUSH2 0x173 JUMPI DUP1 PUSH4 0x4585E33B EQ PUSH2 0x17C JUMPI DUP1 PUSH4 0x5F17E616 EQ PUSH2 0x191 JUMPI DUP1 PUSH4 0x61BC221A EQ PUSH2 0x1A4 JUMPI PUSH0 DUP1 REVERT JUMPDEST DUP1 PUSH4 0x3070FBF8 EQ PUSH2 0xFF JUMPI DUP1 PUSH4 0x30CAC972 EQ PUSH2 0x12F JUMPI DUP1 PUSH4 0x30E3F8F8 EQ PUSH2 0x146 JUMPI DUP1 PUSH4 0x39518B5E EQ PUSH2 0x16A JUMPI JUMPDEST PUSH0 DUP1 REVERT JUMPDEST PUSH1 0x6 SLOAD PUSH2 0x112 SWAP1 PUSH1 0x1 PUSH1 0x1 PUSH1 0xA0 SHL SUB AND DUP2 JUMP JUMPDEST PUSH1 0x40 MLOAD PUSH1 0x1 PUSH1 0x1 PUSH1 0xA0 SHL SUB SWAP1 SWAP2 AND DUP2 MSTORE PUSH1 0x20 ADD JUMPDEST PUSH1 0x40 MLOAD DUP1 SWAP2 SUB SWAP1 RETURN JUMPDEST PUSH2 0x138 PUSH1 0x3 SLOAD DUP2 JUMP JUMPDEST PUSH1 0x40 MLOAD SWAP1 DUP2 MSTORE PUSH1 0x20 ADD PUSH2 0x126 JUMP JUMPDEST PUSH1 0x6 SLOAD PUSH2 0x15A SWAP1 PUSH1 0x1 PUSH1 0xA0 SHL SWAP1 DIV PUSH1 0xFF AND DUP2 JUMP JUMPDEST PUSH1 0x40 MLOAD SWAP1 ISZERO ISZERO DUP2 MSTORE PUSH1 0x20 ADD PUSH2 0x126 JUMP JUMPDEST PUSH2 0x138 PUSH1 0x4 SLOAD DUP2 JUMP JUMPDEST PUSH2 0x138 PUSH1 0x5 SLOAD DUP2 JUMP JUMPDEST PUSH2 0x18F PUSH2 0x18A CALLDATASIZE PUSH1 0x4 PUSH2 0x6A8 JUMP JUMPDEST PUSH2 0x225 JUMP JUMPDEST STOP JUMPDEST PUSH2 0x18F PUSH2 0x19F CALLDATASIZE PUSH1 0x4 PUSH2 0x716 JUMP JUMPDEST PUSH2 0x330 JUMP JUMPDEST PUSH2 0x138 PUSH1 0x1 SLOAD DUP2 JUMP JUMPDEST PUSH2 0x18F PUSH2 0x39B JUMP JUMPDEST PUSH2 0x1C8 PUSH2 0x1C3 CALLDATASIZE PUSH1 0x4 PUSH2 0x6A8 JUMP JUMPDEST PUSH2 0x3B6 JUMP JUMPDEST PUSH1 0x40 MLOAD PUSH2 0x126 SWAP3 SWAP2 SWAP1 PUSH2 0x736 JUMP JUMPDEST PUSH2 0x18F PUSH2 0x3E6 JUMP JUMPDEST PUSH0 SLOAD PUSH1 0x1 PUSH1 0x1 PUSH1 0xA0 SHL SUB AND PUSH2 0x112 JUMP JUMPDEST PUSH2 0x138 PUSH1 0x2 SLOAD DUP2 JUMP JUMPDEST PUSH2 0x18F PUSH2 0x205 CALLDATASIZE PUSH1 0x4 PUSH2 0x774 JUMP JUMPDEST PUSH2 0x3F9 JUMP JUMPDEST PUSH2 0x18F PUSH2 0x423 JUMP JUMPDEST PUSH2 0x18F PUSH2 0x220 CALLDATASIZE PUSH1 0x4 PUSH2 0x774 JUMP JUMPDEST PUSH2 0x524 JUMP JUMPDEST PUSH1 0x6 SLOAD PUSH1 0x1 PUSH1 0x1 PUSH1 0xA0 SHL SUB AND CALLER EQ PUSH2 0x2AA JUMPI PUSH1 0x40 MLOAD PUSH3 0x461BCD PUSH1 0xE5 SHL DUP2 MSTORE PUSH1 0x20 PUSH1 0x4 DUP3 ADD MSTORE PUSH1 0x3B PUSH1 0x24 DUP3 ADD MSTORE PUSH32 0x54686973206164647265737320646F6573206E6F742068617665207065726D69 PUSH1 0x44 DUP3 ADD MSTORE PUSH32 0x7373696F6E20746F2063616C6C20706572666F726D55706B6565700000000000 PUSH1 0x64 DUP3 ADD MSTORE PUSH1 0x84 ADD JUMPDEST PUSH1 0x40 MLOAD DUP1 SWAP2 SUB SWAP1 REVERT JUMPDEST PUSH1 0x2 SLOAD PUSH0 SUB PUSH2 0x2D2 JUMPI PUSH1 0x2 SLOAD PUSH1 0x40 MLOAD PUSH4 0x71540007 PUSH1 0xE0 SHL DUP2 MSTORE PUSH1 0x4 ADD PUSH2 0x2A1 SWAP2 DUP2 MSTORE PUSH1 0x20 ADD SWAP1 JUMP JUMPDEST PUSH1 0x4 SLOAD TIMESTAMP LT PUSH2 0x30F JUMPI TIMESTAMP PUSH1 0x5 DUP2 SWAP1 SSTORE PUSH2 0x2E9 PUSH2 0x423 JUMP JUMPDEST PUSH0 PUSH2 0x2F4 DUP3 TIMESTAMP PUSH2 0x7B5 JUMP JUMPDEST SWAP1 POP DUP1 PUSH1 0x3 SLOAD PUSH2 0x304 SWAP2 SWAP1 PUSH2 0x7B5 JUMP JUMPDEST PUSH1 0x2 SSTORE POP PUSH2 0x32C SWAP1 POP JUMP JUMPDEST PUSH1 0x4 DUP1 SLOAD PUSH1 0x40 MLOAD PUSH4 0x54593E75 PUSH1 0xE0 SHL DUP2 MSTORE SWAP2 DUP3 ADD MSTORE PUSH1 0x24 ADD PUSH2 0x2A1 JUMP JUMPDEST POP POP JUMP JUMPDEST PUSH2 0x338 PUSH2 0x561 JUMP JUMPDEST PUSH0 DUP2 GT PUSH2 0x35B JUMPI PUSH1 0x40 MLOAD PUSH4 0x71540007 PUSH1 0xE0 SHL DUP2 MSTORE PUSH1 0x4 DUP2 ADD DUP3 SWAP1 MSTORE PUSH1 0x24 ADD PUSH2 0x2A1 JUMP JUMPDEST TIMESTAMP DUP3 LT ISZERO PUSH2 0x37F JUMPI PUSH1 0x40 MLOAD PUSH4 0x54593E75 PUSH1 0xE0 SHL DUP2 MSTORE PUSH1 0x4 DUP2 ADD DUP4 SWAP1 MSTORE PUSH1 0x24 ADD PUSH2 0x2A1 JUMP JUMPDEST PUSH2 0x389 TIMESTAMP DUP4 PUSH2 0x7B5 JUMP JUMPDEST PUSH1 0x2 SSTORE PUSH1 0x4 SWAP2 SWAP1 SWAP2 SSTORE TIMESTAMP PUSH1 0x5 SSTORE PUSH1 0x3 SSTORE JUMP JUMPDEST PUSH2 0x3A3 PUSH2 0x561 JUMP JUMPDEST PUSH0 PUSH1 0x2 SSTORE PUSH1 0x6 DUP1 SLOAD PUSH1 0xFF PUSH1 0xA0 SHL NOT AND SWAP1 SSTORE JUMP JUMPDEST PUSH0 PUSH1 0x60 PUSH0 PUSH1 0x2 SLOAD PUSH1 0x5 SLOAD TIMESTAMP PUSH2 0x3CB SWAP2 SWAP1 PUSH2 0x7B5 JUMP JUMPDEST PUSH1 0x40 DUP1 MLOAD PUSH1 0x20 DUP2 ADD SWAP1 SWAP2 MSTORE PUSH0 DUP2 MSTORE SWAP2 LT SWAP7 SWAP1 SWAP6 POP SWAP4 POP POP POP POP JUMP JUMPDEST PUSH2 0x3EE PUSH2 0x561 JUMP JUMPDEST PUSH2 0x3F7 PUSH0 PUSH2 0x58D JUMP JUMPDEST JUMP JUMPDEST PUSH2 0x401 PUSH2 0x561 JUMP JUMPDEST PUSH1 0x6 DUP1 SLOAD PUSH1 0x1 PUSH1 0x1 PUSH1 0xA0 SHL SUB NOT AND PUSH1 0x1 PUSH1 0x1 PUSH1 0xA0 SHL SUB SWAP3 SWAP1 SWAP3 AND SWAP2 SWAP1 SWAP2 OR SWAP1 SSTORE JUMP JUMPDEST PUSH0 DUP1 PUSH0 PUSH2 0x42E PUSH2 0x5DC JUMP JUMPDEST SWAP2 SWAP5 POP SWAP3 POP SWAP1 POP PUSH0 DUP1 JUMPDEST PUSH1 0xC SLOAD DUP2 LT ISZERO PUSH2 0x51D JUMPI PUSH1 0x9 SLOAD PUSH1 0xFF AND PUSH2 0x515 JUMPI PUSH1 0xB SLOAD PUSH0 SWAP1 PUSH2 0x45D DUP2 PUSH2 0x2710 PUSH2 0x7C8 JUMP JUMPDEST PUSH2 0x467 SWAP2 SWAP1 PUSH2 0x7DF JUMP JUMPDEST SWAP1 POP PUSH0 PUSH2 0x474 DUP7 DUP4 PUSH2 0x685 JUMP JUMPDEST SWAP1 POP PUSH0 PUSH2 0x481 DUP9 DUP5 PUSH2 0x685 JUMP JUMPDEST SWAP1 POP DUP2 PUSH1 0xD PUSH0 DUP3 DUP3 SLOAD PUSH2 0x494 SWAP2 SWAP1 PUSH2 0x7B5 JUMP JUMPDEST SWAP1 SWAP2 SSTORE POP PUSH2 0x4A4 SWAP1 POP DUP3 DUP7 PUSH2 0x7FE JUMP JUMPDEST SWAP5 POP DUP6 PUSH1 0xE PUSH0 DUP3 DUP3 SLOAD PUSH2 0x4B7 SWAP2 SWAP1 PUSH2 0x7B5 JUMP JUMPDEST SWAP3 POP POP DUP2 SWAP1 SSTORE POP DUP6 PUSH1 0x7 PUSH0 DUP3 DUP3 SLOAD PUSH2 0x4CF SWAP2 SWAP1 PUSH2 0x7FE JUMP JUMPDEST SWAP3 POP POP DUP2 SWAP1 SSTORE POP DUP2 PUSH1 0x8 PUSH0 DUP3 DUP3 SLOAD PUSH2 0x4E7 SWAP2 SWAP1 PUSH2 0x7FE JUMP JUMPDEST SWAP1 SWAP2 SSTORE POP PUSH0 SWAP1 POP PUSH2 0x4F8 DUP8 DUP5 PUSH2 0x7FE JUMP JUMPDEST SWAP1 POP DUP1 PUSH1 0xA PUSH0 DUP3 DUP3 SLOAD PUSH2 0x50B SWAP2 SWAP1 PUSH2 0x7FE JUMP JUMPDEST SWAP1 SWAP2 SSTORE POP POP POP POP POP POP JUMPDEST PUSH1 0x1 ADD PUSH2 0x438 JUMP JUMPDEST POP POP POP POP POP JUMP JUMPDEST PUSH2 0x52C PUSH2 0x561 JUMP JUMPDEST PUSH1 0x1 PUSH1 0x1 PUSH1 0xA0 SHL SUB DUP2 AND PUSH2 0x555 JUMPI PUSH1 0x40 MLOAD PUSH4 0x1E4FBDF7 PUSH1 0xE0 SHL DUP2 MSTORE PUSH0 PUSH1 0x4 DUP3 ADD MSTORE PUSH1 0x24 ADD PUSH2 0x2A1 JUMP JUMPDEST PUSH2 0x55E DUP2 PUSH2 0x58D JUMP JUMPDEST POP JUMP JUMPDEST PUSH0 SLOAD PUSH1 0x1 PUSH1 0x1 PUSH1 0xA0 SHL SUB AND CALLER EQ PUSH2 0x3F7 JUMPI PUSH1 0x40 MLOAD PUSH4 0x118CDAA7 PUSH1 0xE0 SHL DUP2 MSTORE CALLER PUSH1 0x4 DUP3 ADD MSTORE PUSH1 0x24 ADD PUSH2 0x2A1 JUMP JUMPDEST PUSH0 DUP1 SLOAD PUSH1 0x1 PUSH1 0x1 PUSH1 0xA0 SHL SUB DUP4 DUP2 AND PUSH1 0x1 PUSH1 0x1 PUSH1 0xA0 SHL SUB NOT DUP4 AND DUP2 OR DUP5 SSTORE PUSH1 0x40 MLOAD SWAP2 SWAP1 SWAP3 AND SWAP3 DUP4 SWAP2 PUSH32 0x8BE0079C531659141344CD1FD0A4F28419497F9722A3DAAFE3B4186F6B6457E0 SWAP2 SWAP1 LOG3 POP POP JUMP JUMPDEST PUSH0 DUP1 PUSH0 DUP1 PUSH2 0x5EE PUSH1 0xD SLOAD PUSH2 0x1388 PUSH2 0x685 JUMP JUMPDEST SWAP1 POP PUSH0 PUSH2 0x5FD DUP3 PUSH1 0xF SLOAD PUSH2 0x685 JUMP JUMPDEST SWAP1 POP PUSH0 PUSH2 0x60C DUP4 PUSH1 0x10 SLOAD PUSH2 0x685 JUMP JUMPDEST SWAP1 POP PUSH0 PUSH2 0x61B DUP5 PUSH1 0x11 SLOAD PUSH2 0x685 JUMP JUMPDEST SWAP1 POP PUSH0 PUSH2 0x62C PUSH1 0xE SLOAD PUSH1 0x12 SLOAD PUSH2 0x685 JUMP JUMPDEST SWAP1 POP PUSH0 PUSH1 0xC SLOAD DUP3 PUSH2 0x63D SWAP2 SWAP1 PUSH2 0x7DF JUMP JUMPDEST SWAP1 POP PUSH2 0x649 DUP4 DUP6 PUSH2 0x7FE JUMP JUMPDEST PUSH1 0xD PUSH0 DUP3 DUP3 SLOAD PUSH2 0x659 SWAP2 SWAP1 PUSH2 0x7B5 JUMP JUMPDEST SWAP3 POP POP DUP2 SWAP1 SSTORE POP DUP4 PUSH1 0xE PUSH0 DUP3 DUP3 SLOAD PUSH2 0x671 SWAP2 SWAP1 PUSH2 0x7FE JUMP JUMPDEST SWAP1 SWAP2 SSTORE POP SWAP6 SWAP10 SWAP5 SWAP9 POP SWAP7 POP SWAP3 SWAP5 POP POP POP POP POP JUMP JUMPDEST PUSH0 DUP1 PUSH2 0x2710 PUSH2 0x694 DUP5 DUP7 PUSH2 0x7C8 JUMP JUMPDEST PUSH2 0x69E SWAP2 SWAP1 PUSH2 0x7DF JUMP JUMPDEST SWAP2 POP POP JUMPDEST SWAP3 SWAP2 POP POP JUMP JUMPDEST PUSH0 DUP1 PUSH1 0x20 DUP4 DUP6 SUB SLT ISZERO PUSH2 0x6B9 JUMPI PUSH0 DUP1 REVERT JUMPDEST DUP3 CALLDATALOAD PUSH8 0xFFFFFFFFFFFFFFFF DUP2 GT ISZERO PUSH2 0x6CF JUMPI PUSH0 DUP1 REVERT JUMPDEST DUP4 ADD PUSH1 0x1F DUP2 ADD DUP6 SGT PUSH2 0x6DF JUMPI PUSH0 DUP1 REVERT JUMPDEST DUP1 CALLDATALOAD PUSH8 0xFFFFFFFFFFFFFFFF DUP2 GT ISZERO PUSH2 0x6F5 JUMPI PUSH0 DUP1 REVERT JUMPDEST DUP6 PUSH1 0x20 DUP3 DUP5 ADD ADD GT ISZERO PUSH2 0x706 JUMPI PUSH0 DUP1 REVERT JUMPDEST PUSH1 0x20 SWAP2 SWAP1 SWAP2 ADD SWAP6 SWAP1 SWAP5 POP SWAP3 POP POP POP JUMP JUMPDEST PUSH0 DUP1 PUSH1 0x40 DUP4 DUP6 SUB SLT ISZERO PUSH2 0x727 JUMPI PUSH0 DUP1 REVERT JUMPDEST POP POP DUP1 CALLDATALOAD SWAP3 PUSH1 0x20 SWAP1 SWAP2 ADD CALLDATALOAD SWAP2 POP JUMP JUMPDEST DUP3 ISZERO ISZERO DUP2 MSTORE PUSH1 0x40 PUSH1 0x20 DUP3 ADD MSTORE PUSH0 DUP3 MLOAD DUP1 PUSH1 0x40 DUP5 ADD MSTORE DUP1 PUSH1 0x20 DUP6 ADD PUSH1 0x60 DUP6 ADD MCOPY PUSH0 PUSH1 0x60 DUP3 DUP6 ADD ADD MSTORE PUSH1 0x60 PUSH1 0x1F NOT PUSH1 0x1F DUP4 ADD AND DUP5 ADD ADD SWAP2 POP POP SWAP4 SWAP3 POP POP POP JUMP JUMPDEST PUSH0 PUSH1 0x20 DUP3 DUP5 SUB SLT ISZERO PUSH2 0x784 JUMPI PUSH0 DUP1 REVERT JUMPDEST DUP2 CALLDATALOAD PUSH1 0x1 PUSH1 0x1 PUSH1 0xA0 SHL SUB DUP2 AND DUP2 EQ PUSH2 0x79A JUMPI PUSH0 DUP1 REVERT JUMPDEST SWAP4 SWAP3 POP POP POP JUMP JUMPDEST PUSH4 0x4E487B71 PUSH1 0xE0 SHL PUSH0 MSTORE PUSH1 0x11 PUSH1 0x4 MSTORE PUSH1 0x24 PUSH0 REVERT JUMPDEST DUP2 DUP2 SUB DUP2 DUP2 GT ISZERO PUSH2 0x6A2 JUMPI PUSH2 0x6A2 PUSH2 0x7A1 JUMP JUMPDEST DUP1 DUP3 MUL DUP2 ISZERO DUP3 DUP3 DIV DUP5 EQ OR PUSH2 0x6A2 JUMPI PUSH2 0x6A2 PUSH2 0x7A1 JUMP JUMPDEST PUSH0 DUP3 PUSH2 0x7F9 JUMPI PUSH4 0x4E487B71 PUSH1 0xE0 SHL PUSH0 MSTORE PUSH1 0x12 PUSH1 0x4 MSTORE PUSH1 0x24 PUSH0 REVERT JUMPDEST POP DIV SWAP1 JUMP JUMPDEST DUP1 DUP3 ADD DUP1 DUP3 GT ISZERO PUSH2 0x6A2 JUMPI PUSH2 0x6A2 PUSH2 0x7A1 JUMP INVALID LOG2 PUSH5 0x6970667358 0x22 SLT KECCAK256 SWAP2 KECCAK256 LOG3 LT 0xDA 0xE1 KECCAK256 GAS SWAP6 PUSH25 0x15B459E1251BE6B70CC35BFC17A2D9ED5F829ECCEDB964736F PUSH13 0x634300081A0033000000000000 "
				},
				"gasEstimates": {
					"creation": {
						"codeDepositCost": "423800",
						"executionCost": "227399",
						"totalCost": "651199"
					},
					"external": {
						"checkOnce()": "2394",
						"checkUpkeep(bytes)": "infinite",
						"counter()": "2383",
						"interval()": "2316",
						"lastTimeStamp()": "2317",
						"off()": "31558",
						"owner()": "2407",
						"performUpkeep(bytes)": "infinite",
						"realInterval()": "2340",
						"renounceOwnership()": "infinite",
						"s_forwarderAddress()": "2349",
						"setForwarderAddress(address)": "26741",
						"setInterval(uint256,uint256)": "91016",
						"startingTime()": "2384",
						"transferOwnership(address)": "28382",
						"weeklyTransfer()": "infinite"
					},
					"internal": {
						"calculatePercentage(uint256,uint256)": "infinite",
						"perPoolCalculation()": "infinite"
					}
				},
				"methodIdentifiers": {
					"checkOnce()": "30e3f8f8",
					"checkUpkeep(bytes)": "6e04ff0d",
					"counter()": "61bc221a",
					"interval()": "947a36fb",
					"lastTimeStamp()": "3f3b3b27",
					"off()": "6626b26d",
					"owner()": "8da5cb5b",
					"performUpkeep(bytes)": "4585e33b",
					"realInterval()": "30cac972",
					"renounceOwnership()": "715018a6",
					"s_forwarderAddress()": "3070fbf8",
					"setForwarderAddress(address)": "d777cc6d",
					"setInterval(uint256,uint256)": "5f17e616",
					"startingTime()": "39518b5e",
					"transferOwnership(address)": "f2fde38b",
					"weeklyTransfer()": "e9c68e2c"
				}
			},
			"storageLayout": {
				"storage": [
					{
						"astId": 27,
						"contract": "DripWarrior/checckUpKep.sol:CounterwForwarder",
						"label": "_owner",
						"offset": 0,
						"slot": "0",
						"type": "t_address"
					},
					{
						"astId": 207,
						"contract": "DripWarrior/checckUpKep.sol:CounterwForwarder",
						"label": "counter",
						"offset": 0,
						"slot": "1",
						"type": "t_uint256"
					},
					{
						"astId": 209,
						"contract": "DripWarrior/checckUpKep.sol:CounterwForwarder",
						"label": "interval",
						"offset": 0,
						"slot": "2",
						"type": "t_uint256"
					},
					{
						"astId": 211,
						"contract": "DripWarrior/checckUpKep.sol:CounterwForwarder",
						"label": "realInterval",
						"offset": 0,
						"slot": "3",
						"type": "t_uint256"
					},
					{
						"astId": 213,
						"contract": "DripWarrior/checckUpKep.sol:CounterwForwarder",
						"label": "startingTime",
						"offset": 0,
						"slot": "4",
						"type": "t_uint256"
					},
					{
						"astId": 215,
						"contract": "DripWarrior/checckUpKep.sol:CounterwForwarder",
						"label": "lastTimeStamp",
						"offset": 0,
						"slot": "5",
						"type": "t_uint256"
					},
					{
						"astId": 217,
						"contract": "DripWarrior/checckUpKep.sol:CounterwForwarder",
						"label": "s_forwarderAddress",
						"offset": 0,
						"slot": "6",
						"type": "t_address"
					},
					{
						"astId": 219,
						"contract": "DripWarrior/checckUpKep.sol:CounterwForwarder",
						"label": "checkOnce",
						"offset": 20,
						"slot": "6",
						"type": "t_bool"
					},
					{
						"astId": 385,
						"contract": "DripWarrior/checckUpKep.sol:CounterwForwarder",
						"label": "receiveFromTreasury",
						"offset": 0,
						"slot": "7",
						"type": "t_uint256"
					},
					{
						"astId": 387,
						"contract": "DripWarrior/checckUpKep.sol:CounterwForwarder",
						"label": "receiveFromOwneerShip",
						"offset": 0,
						"slot": "8",
						"type": "t_uint256"
					},
					{
						"astId": 390,
						"contract": "DripWarrior/checckUpKep.sol:CounterwForwarder",
						"label": "blocked",
						"offset": 0,
						"slot": "9",
						"type": "t_bool"
					},
					{
						"astId": 392,
						"contract": "DripWarrior/checckUpKep.sol:CounterwForwarder",
						"label": "receivedAmount",
						"offset": 0,
						"slot": "10",
						"type": "t_uint256"
					},
					{
						"astId": 395,
						"contract": "DripWarrior/checckUpKep.sol:CounterwForwarder",
						"label": "totalStakedAmount",
						"offset": 0,
						"slot": "11",
						"type": "t_uint256"
					},
					{
						"astId": 485,
						"contract": "DripWarrior/checckUpKep.sol:CounterwForwarder",
						"label": "noOfUsers",
						"offset": 0,
						"slot": "12",
						"type": "t_uint256"
					},
					{
						"astId": 488,
						"contract": "DripWarrior/checckUpKep.sol:CounterwForwarder",
						"label": "ownerShipPoolAmount",
						"offset": 0,
						"slot": "13",
						"type": "t_uint256"
					},
					{
						"astId": 491,
						"contract": "DripWarrior/checckUpKep.sol:CounterwForwarder",
						"label": "treasuryPoolAmount",
						"offset": 0,
						"slot": "14",
						"type": "t_uint256"
					},
					{
						"astId": 494,
						"contract": "DripWarrior/checckUpKep.sol:CounterwForwarder",
						"label": "odividentPayoutPercentage",
						"offset": 0,
						"slot": "15",
						"type": "t_uint256"
					},
					{
						"astId": 497,
						"contract": "DripWarrior/checckUpKep.sol:CounterwForwarder",
						"label": "flowToTreasuryPercentage",
						"offset": 0,
						"slot": "16",
						"type": "t_uint256"
					},
					{
						"astId": 500,
						"contract": "DripWarrior/checckUpKep.sol:CounterwForwarder",
						"label": "maintainceFeePercentage",
						"offset": 0,
						"slot": "17",
						"type": "t_uint256"
					},
					{
						"astId": 503,
						"contract": "DripWarrior/checckUpKep.sol:CounterwForwarder",
						"label": "tdividentPayoutPercentage",
						"offset": 0,
						"slot": "18",
						"type": "t_uint256"
					}
				],
				"types": {
					"t_address": {
						"encoding": "inplace",
						"label": "address",
						"numberOfBytes": "20"
					},
					"t_bool": {
						"encoding": "inplace",
						"label": "bool",
						"numberOfBytes": "1"
					},
					"t_uint256": {
						"encoding": "inplace",
						"label": "uint256",
						"numberOfBytes": "32"
					}
				}
			},
			"userdoc": {
				"kind": "user",
				"methods": {},
				"version": 1
			}
		}
	}
}