{
	"FacctoryContract/WagerContract.sol": {
		"Market": {
			"abi": [
				{
					"inputs": [
						{
							"internalType": "address",
							"name": "initialOwner",
							"type": "address"
						},
						{
							"internalType": "address",
							"name": "_usdcToken",
							"type": "address"
						},
						{
							"internalType": "uint256",
							"name": "_endTime",
							"type": "uint256"
						}
					],
					"stateMutability": "nonpayable",
					"type": "constructor"
				},
				{
					"inputs": [
						{
							"internalType": "address",
							"name": "owner",
							"type": "address"
						}
					],
					"name": "OwnableInvalidOwner",
					"type": "error"
				},
				{
					"inputs": [
						{
							"internalType": "address",
							"name": "account",
							"type": "address"
						}
					],
					"name": "OwnableUnauthorizedAccount",
					"type": "error"
				},
				{
					"inputs": [
						{
							"internalType": "bool",
							"name": "sold",
							"type": "bool"
						}
					],
					"name": "alreadySold",
					"type": "error"
				},
				{
					"inputs": [
						{
							"internalType": "uint256",
							"name": "contractBalance",
							"type": "uint256"
						}
					],
					"name": "contractLowbalance",
					"type": "error"
				},
				{
					"inputs": [
						{
							"internalType": "uint256",
							"name": "contractBalance",
							"type": "uint256"
						}
					],
					"name": "contractLowbalanceForOwner",
					"type": "error"
				},
				{
					"inputs": [],
					"name": "marketResolved",
					"type": "error"
				},
				{
					"inputs": [
						{
							"internalType": "bool",
							"name": "beted",
							"type": "bool"
						}
					],
					"name": "notBet",
					"type": "error"
				},
				{
					"inputs": [
						{
							"internalType": "uint256",
							"name": "listNo",
							"type": "uint256"
						}
					],
					"name": "notListed",
					"type": "error"
				},
				{
					"inputs": [
						{
							"internalType": "uint256",
							"name": "endTime",
							"type": "uint256"
						}
					],
					"name": "notResolvedBeforeTime",
					"type": "error"
				},
				{
					"inputs": [
						{
							"internalType": "uint256",
							"name": "amount",
							"type": "uint256"
						}
					],
					"name": "wrongAmount",
					"type": "error"
				},
				{
					"inputs": [
						{
							"internalType": "uint256",
							"name": "betIndex",
							"type": "uint256"
						}
					],
					"name": "wrongBetIndex",
					"type": "error"
				},
				{
					"inputs": [
						{
							"internalType": "address",
							"name": "owner",
							"type": "address"
						}
					],
					"name": "wrongOwner",
					"type": "error"
				},
				{
					"inputs": [
						{
							"internalType": "uint256",
							"name": "price",
							"type": "uint256"
						}
					],
					"name": "wrongPrice",
					"type": "error"
				},
				{
					"anonymous": false,
					"inputs": [
						{
							"indexed": true,
							"internalType": "address",
							"name": "user",
							"type": "address"
						},
						{
							"indexed": true,
							"internalType": "uint256",
							"name": "_amount",
							"type": "uint256"
						},
						{
							"indexed": false,
							"internalType": "uint256",
							"name": "_betOn",
							"type": "uint256"
						}
					],
					"name": "Bet",
					"type": "event"
				},
				{
					"anonymous": false,
					"inputs": [
						{
							"indexed": false,
							"internalType": "address",
							"name": "buyer",
							"type": "address"
						},
						{
							"indexed": false,
							"internalType": "address",
							"name": "seller",
							"type": "address"
						},
						{
							"indexed": false,
							"internalType": "uint256",
							"name": "_amountBBuyed",
							"type": "uint256"
						},
						{
							"indexed": false,
							"internalType": "uint256",
							"name": "onPrice",
							"type": "uint256"
						}
					],
					"name": "BuyShare",
					"type": "event"
				},
				{
					"anonymous": false,
					"inputs": [
						{
							"indexed": true,
							"internalType": "address",
							"name": "previousOwner",
							"type": "address"
						},
						{
							"indexed": true,
							"internalType": "address",
							"name": "newOwner",
							"type": "address"
						}
					],
					"name": "OwnershipTransferred",
					"type": "event"
				},
				{
					"anonymous": false,
					"inputs": [
						{
							"indexed": false,
							"internalType": "address",
							"name": "ownerAddress",
							"type": "address"
						},
						{
							"indexed": false,
							"internalType": "uint256",
							"name": "ownerAmount",
							"type": "uint256"
						},
						{
							"indexed": false,
							"internalType": "uint256",
							"name": "perShareAmount",
							"type": "uint256"
						},
						{
							"indexed": false,
							"internalType": "uint256",
							"name": "winningIndex",
							"type": "uint256"
						}
					],
					"name": "ResolveMarket",
					"type": "event"
				},
				{
					"anonymous": false,
					"inputs": [
						{
							"indexed": true,
							"internalType": "address",
							"name": "user",
							"type": "address"
						},
						{
							"indexed": false,
							"internalType": "uint256",
							"name": "listNo",
							"type": "uint256"
						},
						{
							"indexed": false,
							"internalType": "uint256",
							"name": "onPrice",
							"type": "uint256"
						}
					],
					"name": "SellShare",
					"type": "event"
				},
				{
					"inputs": [
						{
							"internalType": "uint256",
							"name": "_totalBetAmountOnLahore",
							"type": "uint256"
						},
						{
							"internalType": "uint256",
							"name": "_totalBetAmountOnKarachi",
							"type": "uint256"
						}
					],
					"name": "PriceCalculation",
					"outputs": [
						{
							"internalType": "uint256",
							"name": "yesSharePrice",
							"type": "uint256"
						},
						{
							"internalType": "uint256",
							"name": "noSharePrice",
							"type": "uint256"
						}
					],
					"stateMutability": "pure",
					"type": "function"
				},
				{
					"inputs": [
						{
							"internalType": "uint256",
							"name": "_amount",
							"type": "uint256"
						},
						{
							"internalType": "uint256",
							"name": "_betOn",
							"type": "uint256"
						}
					],
					"name": "bet",
					"outputs": [],
					"stateMutability": "nonpayable",
					"type": "function"
				},
				{
					"inputs": [
						{
							"internalType": "uint256",
							"name": "_listNo",
							"type": "uint256"
						},
						{
							"internalType": "address",
							"name": "_owner",
							"type": "address"
						}
					],
					"name": "buyShare",
					"outputs": [],
					"stateMutability": "nonpayable",
					"type": "function"
				},
				{
					"inputs": [
						{
							"internalType": "uint256",
							"name": "shares",
							"type": "uint256"
						},
						{
							"internalType": "uint256",
							"name": "_betOn",
							"type": "uint256"
						}
					],
					"name": "calculateInvestment",
					"outputs": [
						{
							"internalType": "uint256",
							"name": "",
							"type": "uint256"
						}
					],
					"stateMutability": "view",
					"type": "function"
				},
				{
					"inputs": [
						{
							"internalType": "uint256",
							"name": "_amount",
							"type": "uint256"
						},
						{
							"internalType": "uint256",
							"name": "_betOn",
							"type": "uint256"
						}
					],
					"name": "calculateShares",
					"outputs": [
						{
							"internalType": "uint256",
							"name": "",
							"type": "uint256"
						}
					],
					"stateMutability": "view",
					"type": "function"
				},
				{
					"inputs": [
						{
							"internalType": "uint256",
							"name": "",
							"type": "uint256"
						}
					],
					"name": "eachUser",
					"outputs": [
						{
							"internalType": "address",
							"name": "",
							"type": "address"
						}
					],
					"stateMutability": "view",
					"type": "function"
				},
				{
					"inputs": [],
					"name": "getInitialPrices",
					"outputs": [
						{
							"internalType": "uint256",
							"name": "",
							"type": "uint256"
						},
						{
							"internalType": "uint256",
							"name": "",
							"type": "uint256"
						}
					],
					"stateMutability": "view",
					"type": "function"
				},
				{
					"inputs": [
						{
							"internalType": "address",
							"name": "",
							"type": "address"
						}
					],
					"name": "marketInfo",
					"outputs": [
						{
							"internalType": "bool",
							"name": "resolved",
							"type": "bool"
						},
						{
							"internalType": "uint256",
							"name": "endTime",
							"type": "uint256"
						},
						{
							"internalType": "uint256",
							"name": "totalBets",
							"type": "uint256"
						},
						{
							"internalType": "uint256",
							"name": "totalAmount",
							"type": "uint256"
						},
						{
							"internalType": "uint256",
							"name": "totalBetsOnYes",
							"type": "uint256"
						},
						{
							"internalType": "uint256",
							"name": "totalBetsOnNo",
							"type": "uint256"
						}
					],
					"stateMutability": "view",
					"type": "function"
				},
				{
					"inputs": [],
					"name": "owner",
					"outputs": [
						{
							"internalType": "address",
							"name": "",
							"type": "address"
						}
					],
					"stateMutability": "view",
					"type": "function"
				},
				{
					"inputs": [],
					"name": "profitPercentage",
					"outputs": [
						{
							"internalType": "uint256",
							"name": "",
							"type": "uint256"
						}
					],
					"stateMutability": "view",
					"type": "function"
				},
				{
					"inputs": [
						{
							"internalType": "address",
							"name": "_owner",
							"type": "address"
						},
						{
							"internalType": "uint256",
							"name": "_id",
							"type": "uint256"
						}
					],
					"name": "readSellInfo",
					"outputs": [
						{
							"internalType": "bool",
							"name": "list",
							"type": "bool"
						},
						{
							"internalType": "bool",
							"name": "sold",
							"type": "bool"
						},
						{
							"internalType": "address",
							"name": "owner",
							"type": "address"
						},
						{
							"internalType": "uint256",
							"name": "price",
							"type": "uint256"
						},
						{
							"internalType": "uint256",
							"name": "amount",
							"type": "uint256"
						},
						{
							"internalType": "uint256",
							"name": "listOn",
							"type": "uint256"
						}
					],
					"stateMutability": "view",
					"type": "function"
				},
				{
					"inputs": [],
					"name": "renounceOwnership",
					"outputs": [],
					"stateMutability": "nonpayable",
					"type": "function"
				},
				{
					"inputs": [
						{
							"internalType": "uint256",
							"name": "winningIndex",
							"type": "uint256"
						}
					],
					"name": "resolveMarket",
					"outputs": [],
					"stateMutability": "nonpayable",
					"type": "function"
				},
				{
					"inputs": [
						{
							"internalType": "address",
							"name": "",
							"type": "address"
						},
						{
							"internalType": "uint256",
							"name": "",
							"type": "uint256"
						}
					],
					"name": "sellInfo",
					"outputs": [
						{
							"internalType": "bool",
							"name": "list",
							"type": "bool"
						},
						{
							"internalType": "bool",
							"name": "sold",
							"type": "bool"
						},
						{
							"internalType": "address",
							"name": "owner",
							"type": "address"
						},
						{
							"internalType": "uint256",
							"name": "price",
							"type": "uint256"
						},
						{
							"internalType": "uint256",
							"name": "amount",
							"type": "uint256"
						},
						{
							"internalType": "uint256",
							"name": "listOn",
							"type": "uint256"
						}
					],
					"stateMutability": "view",
					"type": "function"
				},
				{
					"inputs": [
						{
							"internalType": "uint256",
							"name": "_amount",
							"type": "uint256"
						},
						{
							"internalType": "uint256",
							"name": "_price",
							"type": "uint256"
						},
						{
							"internalType": "uint256",
							"name": "_sellOf",
							"type": "uint256"
						}
					],
					"name": "sellShare",
					"outputs": [],
					"stateMutability": "nonpayable",
					"type": "function"
				},
				{
					"inputs": [],
					"name": "totalUsers",
					"outputs": [
						{
							"internalType": "uint256",
							"name": "",
							"type": "uint256"
						}
					],
					"stateMutability": "view",
					"type": "function"
				},
				{
					"inputs": [
						{
							"internalType": "address",
							"name": "newOwner",
							"type": "address"
						}
					],
					"name": "transferOwnership",
					"outputs": [],
					"stateMutability": "nonpayable",
					"type": "function"
				},
				{
					"inputs": [],
					"name": "usdcToken",
					"outputs": [
						{
							"internalType": "contract ERC20",
							"name": "",
							"type": "address"
						}
					],
					"stateMutability": "view",
					"type": "function"
				},
				{
					"inputs": [
						{
							"internalType": "address",
							"name": "_user",
							"type": "address"
						},
						{
							"internalType": "uint256",
							"name": "_betIndex",
							"type": "uint256"
						}
					],
					"name": "userBetOn",
					"outputs": [
						{
							"internalType": "bool",
							"name": "",
							"type": "bool"
						}
					],
					"stateMutability": "view",
					"type": "function"
				},
				{
					"inputs": [
						{
							"internalType": "address",
							"name": "",
							"type": "address"
						}
					],
					"name": "userInfo",
					"outputs": [
						{
							"internalType": "uint256",
							"name": "listNo",
							"type": "uint256"
						},
						{
							"internalType": "uint256",
							"name": "noBetAmount",
							"type": "uint256"
						},
						{
							"internalType": "uint256",
							"name": "rewardAmount",
							"type": "uint256"
						},
						{
							"internalType": "uint256",
							"name": "yesBetAmount",
							"type": "uint256"
						},
						{
							"internalType": "uint256",
							"name": "shareAmount",
							"type": "uint256"
						}
					],
					"stateMutability": "view",
					"type": "function"
				}
			],
			"devdoc": {
				"errors": {
					"OwnableInvalidOwner(address)": [
						{
							"details": "The owner is not a valid owner account. (eg. `address(0)`)"
						}
					],
					"OwnableUnauthorizedAccount(address)": [
						{
							"details": "The caller account is not authorized to perform an operation."
						}
					]
				},
				"kind": "dev",
				"methods": {
					"owner()": {
						"details": "Returns the address of the current owner."
					},
					"renounceOwnership()": {
						"details": "Leaves the contract without owner. It will not be possible to call `onlyOwner` functions. Can only be called by the current owner. NOTE: Renouncing ownership will leave the contract without an owner, thereby disabling any functionality that is only available to the owner."
					},
					"transferOwnership(address)": {
						"details": "Transfers ownership of the contract to a new account (`newOwner`). Can only be called by the current owner."
					}
				},
				"version": 1
			},
			"evm": {
				"assembly": "    /* \"FacctoryContract/WagerContract.sol\":218:12363  contract Market is Ownable {... */\n  mstore(0x40, 0x80)\n    /* \"FacctoryContract/WagerContract.sol\":1996:2432  constructor(... */\n  callvalue\n  dup1\n  iszero\n  tag_1\n  jumpi\n  0x00\n  dup1\n  revert\ntag_1:\n  pop\n  mload(0x40)\n  sub(codesize, bytecodeSize)\n  dup1\n  bytecodeSize\n  dup4\n  codecopy\n  dup2\n  dup2\n  add\n  0x40\n  mstore\n  dup2\n  add\n  swap1\n  tag_2\n  swap2\n  swap1\n  tag_3\n  jump\t// in\ntag_2:\n    /* \"FacctoryContract/WagerContract.sol\":2112:2124  initialOwner */\n  dup3\n    /* \"@openzeppelin/contracts/access/Ownable.sol\":1297:1298  0 */\n  0x00\n    /* \"@openzeppelin/contracts/access/Ownable.sol\":1273:1299  initialOwner == address(0) */\n  0xffffffffffffffffffffffffffffffffffffffff\n  and\n    /* \"@openzeppelin/contracts/access/Ownable.sol\":1273:1285  initialOwner */\n  dup2\n    /* \"@openzeppelin/contracts/access/Ownable.sol\":1273:1299  initialOwner == address(0) */\n  0xffffffffffffffffffffffffffffffffffffffff\n  and\n  sub\n    /* \"@openzeppelin/contracts/access/Ownable.sol\":1269:1364  if (initialOwner == address(0)) {... */\n  tag_7\n  jumpi\n    /* \"@openzeppelin/contracts/access/Ownable.sol\":1350:1351  0 */\n  0x00\n    /* \"@openzeppelin/contracts/access/Ownable.sol\":1322:1353  OwnableInvalidOwner(address(0)) */\n  mload(0x40)\n  0x1e4fbdf700000000000000000000000000000000000000000000000000000000\n  dup2\n  mstore\n  0x04\n  add\n  tag_8\n  swap2\n  swap1\n  tag_9\n  jump\t// in\ntag_8:\n  mload(0x40)\n  dup1\n  swap2\n  sub\n  swap1\n  revert\n    /* \"@openzeppelin/contracts/access/Ownable.sol\":1269:1364  if (initialOwner == address(0)) {... */\ntag_7:\n    /* \"@openzeppelin/contracts/access/Ownable.sol\":1373:1405  _transferOwnership(initialOwner) */\n  tag_10\n    /* \"@openzeppelin/contracts/access/Ownable.sol\":1392:1404  initialOwner */\n  dup2\n    /* \"@openzeppelin/contracts/access/Ownable.sol\":1373:1391  _transferOwnership */\n  shl(0x20, tag_11)\n    /* \"@openzeppelin/contracts/access/Ownable.sol\":1373:1405  _transferOwnership(initialOwner) */\n  0x20\n  shr\n  jump\t// in\ntag_10:\n    /* \"@openzeppelin/contracts/access/Ownable.sol\":1225:1412  constructor(address initialOwner) {... */\n  pop\n    /* \"FacctoryContract/WagerContract.sol\":2177:2185  _endTime */\n  dup1\n    /* \"FacctoryContract/WagerContract.sol\":2141:2151  marketInfo */\n  0x06\n    /* \"FacctoryContract/WagerContract.sol\":2141:2166  marketInfo[address(this)] */\n  0x00\n    /* \"FacctoryContract/WagerContract.sol\":2160:2164  this */\n  address\n    /* \"FacctoryContract/WagerContract.sol\":2141:2166  marketInfo[address(this)] */\n  0xffffffffffffffffffffffffffffffffffffffff\n  and\n  0xffffffffffffffffffffffffffffffffffffffff\n  and\n  dup2\n  mstore\n  0x20\n  add\n  swap1\n  dup2\n  mstore\n  0x20\n  add\n  0x00\n  keccak256\n    /* \"FacctoryContract/WagerContract.sol\":2141:2174  marketInfo[address(this)].endTime */\n  0x01\n  add\n    /* \"FacctoryContract/WagerContract.sol\":2141:2185  marketInfo[address(this)].endTime = _endTime */\n  dup2\n  swap1\n  sstore\n  pop\n    /* \"FacctoryContract/WagerContract.sol\":2243:2261  500000000000000000 */\n  0x06f05b59d3b20000\n    /* \"FacctoryContract/WagerContract.sol\":2199:2209  marketInfo */\n  0x06\n    /* \"FacctoryContract/WagerContract.sol\":2199:2224  marketInfo[address(this)] */\n  0x00\n    /* \"FacctoryContract/WagerContract.sol\":2218:2222  this */\n  address\n    /* \"FacctoryContract/WagerContract.sol\":2199:2224  marketInfo[address(this)] */\n  0xffffffffffffffffffffffffffffffffffffffff\n  and\n  0xffffffffffffffffffffffffffffffffffffffff\n  and\n  dup2\n  mstore\n  0x20\n  add\n  swap1\n  dup2\n  mstore\n  0x20\n  add\n  0x00\n  keccak256\n    /* \"FacctoryContract/WagerContract.sol\":2199:2237  marketInfo[address(this)].initialPrice */\n  0x04\n  add\n    /* \"FacctoryContract/WagerContract.sol\":2238:2239  0 */\n  0x00\n    /* \"FacctoryContract/WagerContract.sol\":2199:2240  marketInfo[address(this)].initialPrice[0] */\n  0x02\n  dup2\n  lt\n  tag_13\n  jumpi\n  tag_14\n  tag_15\n  jump\t// in\ntag_14:\ntag_13:\n  add\n    /* \"FacctoryContract/WagerContract.sol\":2199:2261  marketInfo[address(this)].initialPrice[0] = 500000000000000000 */\n  dup2\n  swap1\n  sstore\n  pop\n    /* \"FacctoryContract/WagerContract.sol\":2319:2337  500000000000000000 */\n  0x06f05b59d3b20000\n    /* \"FacctoryContract/WagerContract.sol\":2275:2285  marketInfo */\n  0x06\n    /* \"FacctoryContract/WagerContract.sol\":2275:2300  marketInfo[address(this)] */\n  0x00\n    /* \"FacctoryContract/WagerContract.sol\":2294:2298  this */\n  address\n    /* \"FacctoryContract/WagerContract.sol\":2275:2300  marketInfo[address(this)] */\n  0xffffffffffffffffffffffffffffffffffffffff\n  and\n  0xffffffffffffffffffffffffffffffffffffffff\n  and\n  dup2\n  mstore\n  0x20\n  add\n  swap1\n  dup2\n  mstore\n  0x20\n  add\n  0x00\n  keccak256\n    /* \"FacctoryContract/WagerContract.sol\":2275:2313  marketInfo[address(this)].initialPrice */\n  0x04\n  add\n    /* \"FacctoryContract/WagerContract.sol\":2314:2315  1 */\n  0x01\n    /* \"FacctoryContract/WagerContract.sol\":2275:2316  marketInfo[address(this)].initialPrice[1] */\n  0x02\n  dup2\n  lt\n  tag_17\n  jumpi\n  tag_18\n  tag_15\n  jump\t// in\ntag_18:\ntag_17:\n  add\n    /* \"FacctoryContract/WagerContract.sol\":2275:2337  marketInfo[address(this)].initialPrice[1] = 500000000000000000 */\n  dup2\n  swap1\n  sstore\n  pop\n    /* \"FacctoryContract/WagerContract.sol\":2369:2379  _usdcToken */\n  dup2\n    /* \"FacctoryContract/WagerContract.sol\":2351:2360  usdcToken */\n  0x01\n  0x00\n    /* \"FacctoryContract/WagerContract.sol\":2351:2380  usdcToken = ERC20(_usdcToken) */\n  0x0100\n  exp\n  dup2\n  sload\n  dup2\n  0xffffffffffffffffffffffffffffffffffffffff\n  mul\n  not\n  and\n  swap1\n  dup4\n  0xffffffffffffffffffffffffffffffffffffffff\n  and\n  mul\n  or\n  swap1\n  sstore\n  pop\n    /* \"FacctoryContract/WagerContract.sol\":2413:2417  1000 */\n  0x03e8\n    /* \"FacctoryContract/WagerContract.sol\":2394:2410  profitPercentage */\n  0x03\n    /* \"FacctoryContract/WagerContract.sol\":2394:2417  profitPercentage = 1000 */\n  dup2\n  swap1\n  sstore\n  pop\n    /* \"FacctoryContract/WagerContract.sol\":1996:2432  constructor(... */\n  pop\n  pop\n  pop\n    /* \"FacctoryContract/WagerContract.sol\":218:12363  contract Market is Ownable {... */\n  jump(tag_20)\n    /* \"@openzeppelin/contracts/access/Ownable.sol\":2912:3099  function _transferOwnership(address newOwner) internal virtual {... */\ntag_11:\n    /* \"@openzeppelin/contracts/access/Ownable.sol\":2985:3001  address oldOwner */\n  0x00\n    /* \"@openzeppelin/contracts/access/Ownable.sol\":3004:3010  _owner */\n  dup1\n  0x00\n  swap1\n  sload\n  swap1\n  0x0100\n  exp\n  swap1\n  div\n  0xffffffffffffffffffffffffffffffffffffffff\n  and\n    /* \"@openzeppelin/contracts/access/Ownable.sol\":2985:3010  address oldOwner = _owner */\n  swap1\n  pop\n    /* \"@openzeppelin/contracts/access/Ownable.sol\":3029:3037  newOwner */\n  dup2\n    /* \"@openzeppelin/contracts/access/Ownable.sol\":3020:3026  _owner */\n  0x00\n  dup1\n    /* \"@openzeppelin/contracts/access/Ownable.sol\":3020:3037  _owner = newOwner */\n  0x0100\n  exp\n  dup2\n  sload\n  dup2\n  0xffffffffffffffffffffffffffffffffffffffff\n  mul\n  not\n  and\n  swap1\n  dup4\n  0xffffffffffffffffffffffffffffffffffffffff\n  and\n  mul\n  or\n  swap1\n  sstore\n  pop\n    /* \"@openzeppelin/contracts/access/Ownable.sol\":3083:3091  newOwner */\n  dup2\n    /* \"@openzeppelin/contracts/access/Ownable.sol\":3052:3092  OwnershipTransferred(oldOwner, newOwner) */\n  0xffffffffffffffffffffffffffffffffffffffff\n  and\n    /* \"@openzeppelin/contracts/access/Ownable.sol\":3073:3081  oldOwner */\n  dup2\n    /* \"@openzeppelin/contracts/access/Ownable.sol\":3052:3092  OwnershipTransferred(oldOwner, newOwner) */\n  0xffffffffffffffffffffffffffffffffffffffff\n  and\n  0x8be0079c531659141344cd1fd0a4f28419497f9722a3daafe3b4186f6b6457e0\n  mload(0x40)\n  mload(0x40)\n  dup1\n  swap2\n  sub\n  swap1\n  log3\n    /* \"@openzeppelin/contracts/access/Ownable.sol\":2975:3099  {... */\n  pop\n    /* \"@openzeppelin/contracts/access/Ownable.sol\":2912:3099  function _transferOwnership(address newOwner) internal virtual {... */\n  pop\n  jump\t// out\n    /* \"#utility.yul\":88:205   */\ntag_23:\n    /* \"#utility.yul\":197:198   */\n  0x00\n    /* \"#utility.yul\":194:195   */\n  dup1\n    /* \"#utility.yul\":187:199   */\n  revert\n    /* \"#utility.yul\":334:460   */\ntag_25:\n    /* \"#utility.yul\":371:378   */\n  0x00\n    /* \"#utility.yul\":411:453   */\n  0xffffffffffffffffffffffffffffffffffffffff\n    /* \"#utility.yul\":404:409   */\n  dup3\n    /* \"#utility.yul\":400:454   */\n  and\n    /* \"#utility.yul\":389:454   */\n  swap1\n  pop\n    /* \"#utility.yul\":334:460   */\n  swap2\n  swap1\n  pop\n  jump\t// out\n    /* \"#utility.yul\":466:562   */\ntag_26:\n    /* \"#utility.yul\":503:510   */\n  0x00\n    /* \"#utility.yul\":532:556   */\n  tag_39\n    /* \"#utility.yul\":550:555   */\n  dup3\n    /* \"#utility.yul\":532:556   */\n  tag_25\n  jump\t// in\ntag_39:\n    /* \"#utility.yul\":521:556   */\n  swap1\n  pop\n    /* \"#utility.yul\":466:562   */\n  swap2\n  swap1\n  pop\n  jump\t// out\n    /* \"#utility.yul\":568:690   */\ntag_27:\n    /* \"#utility.yul\":641:665   */\n  tag_41\n    /* \"#utility.yul\":659:664   */\n  dup2\n    /* \"#utility.yul\":641:665   */\n  tag_26\n  jump\t// in\ntag_41:\n    /* \"#utility.yul\":634:639   */\n  dup2\n    /* \"#utility.yul\":631:666   */\n  eq\n    /* \"#utility.yul\":621:684   */\n  tag_42\n  jumpi\n    /* \"#utility.yul\":680:681   */\n  0x00\n    /* \"#utility.yul\":677:678   */\n  dup1\n    /* \"#utility.yul\":670:682   */\n  revert\n    /* \"#utility.yul\":621:684   */\ntag_42:\n    /* \"#utility.yul\":568:690   */\n  pop\n  jump\t// out\n    /* \"#utility.yul\":696:839   */\ntag_28:\n    /* \"#utility.yul\":753:758   */\n  0x00\n    /* \"#utility.yul\":784:790   */\n  dup2\n    /* \"#utility.yul\":778:791   */\n  mload\n    /* \"#utility.yul\":769:791   */\n  swap1\n  pop\n    /* \"#utility.yul\":800:833   */\n  tag_44\n    /* \"#utility.yul\":827:832   */\n  dup2\n    /* \"#utility.yul\":800:833   */\n  tag_27\n  jump\t// in\ntag_44:\n    /* \"#utility.yul\":696:839   */\n  swap3\n  swap2\n  pop\n  pop\n  jump\t// out\n    /* \"#utility.yul\":845:922   */\ntag_29:\n    /* \"#utility.yul\":882:889   */\n  0x00\n    /* \"#utility.yul\":911:916   */\n  dup2\n    /* \"#utility.yul\":900:916   */\n  swap1\n  pop\n    /* \"#utility.yul\":845:922   */\n  swap2\n  swap1\n  pop\n  jump\t// out\n    /* \"#utility.yul\":928:1050   */\ntag_30:\n    /* \"#utility.yul\":1001:1025   */\n  tag_47\n    /* \"#utility.yul\":1019:1024   */\n  dup2\n    /* \"#utility.yul\":1001:1025   */\n  tag_29\n  jump\t// in\ntag_47:\n    /* \"#utility.yul\":994:999   */\n  dup2\n    /* \"#utility.yul\":991:1026   */\n  eq\n    /* \"#utility.yul\":981:1044   */\n  tag_48\n  jumpi\n    /* \"#utility.yul\":1040:1041   */\n  0x00\n    /* \"#utility.yul\":1037:1038   */\n  dup1\n    /* \"#utility.yul\":1030:1042   */\n  revert\n    /* \"#utility.yul\":981:1044   */\ntag_48:\n    /* \"#utility.yul\":928:1050   */\n  pop\n  jump\t// out\n    /* \"#utility.yul\":1056:1199   */\ntag_31:\n    /* \"#utility.yul\":1113:1118   */\n  0x00\n    /* \"#utility.yul\":1144:1150   */\n  dup2\n    /* \"#utility.yul\":1138:1151   */\n  mload\n    /* \"#utility.yul\":1129:1151   */\n  swap1\n  pop\n    /* \"#utility.yul\":1160:1193   */\n  tag_50\n    /* \"#utility.yul\":1187:1192   */\n  dup2\n    /* \"#utility.yul\":1160:1193   */\n  tag_30\n  jump\t// in\ntag_50:\n    /* \"#utility.yul\":1056:1199   */\n  swap3\n  swap2\n  pop\n  pop\n  jump\t// out\n    /* \"#utility.yul\":1205:1868   */\ntag_3:\n    /* \"#utility.yul\":1293:1299   */\n  0x00\n    /* \"#utility.yul\":1301:1307   */\n  dup1\n    /* \"#utility.yul\":1309:1315   */\n  0x00\n    /* \"#utility.yul\":1358:1360   */\n  0x60\n    /* \"#utility.yul\":1346:1355   */\n  dup5\n    /* \"#utility.yul\":1337:1344   */\n  dup7\n    /* \"#utility.yul\":1333:1356   */\n  sub\n    /* \"#utility.yul\":1329:1361   */\n  slt\n    /* \"#utility.yul\":1326:1445   */\n  iszero\n  tag_52\n  jumpi\n    /* \"#utility.yul\":1364:1443   */\n  tag_53\n  tag_23\n  jump\t// in\ntag_53:\n    /* \"#utility.yul\":1326:1445   */\ntag_52:\n    /* \"#utility.yul\":1484:1485   */\n  0x00\n    /* \"#utility.yul\":1509:1573   */\n  tag_54\n    /* \"#utility.yul\":1565:1572   */\n  dup7\n    /* \"#utility.yul\":1556:1562   */\n  dup3\n    /* \"#utility.yul\":1545:1554   */\n  dup8\n    /* \"#utility.yul\":1541:1563   */\n  add\n    /* \"#utility.yul\":1509:1573   */\n  tag_28\n  jump\t// in\ntag_54:\n    /* \"#utility.yul\":1499:1573   */\n  swap4\n  pop\n    /* \"#utility.yul\":1455:1583   */\n  pop\n    /* \"#utility.yul\":1622:1624   */\n  0x20\n    /* \"#utility.yul\":1648:1712   */\n  tag_55\n    /* \"#utility.yul\":1704:1711   */\n  dup7\n    /* \"#utility.yul\":1695:1701   */\n  dup3\n    /* \"#utility.yul\":1684:1693   */\n  dup8\n    /* \"#utility.yul\":1680:1702   */\n  add\n    /* \"#utility.yul\":1648:1712   */\n  tag_28\n  jump\t// in\ntag_55:\n    /* \"#utility.yul\":1638:1712   */\n  swap3\n  pop\n    /* \"#utility.yul\":1593:1722   */\n  pop\n    /* \"#utility.yul\":1761:1763   */\n  0x40\n    /* \"#utility.yul\":1787:1851   */\n  tag_56\n    /* \"#utility.yul\":1843:1850   */\n  dup7\n    /* \"#utility.yul\":1834:1840   */\n  dup3\n    /* \"#utility.yul\":1823:1832   */\n  dup8\n    /* \"#utility.yul\":1819:1841   */\n  add\n    /* \"#utility.yul\":1787:1851   */\n  tag_31\n  jump\t// in\ntag_56:\n    /* \"#utility.yul\":1777:1851   */\n  swap2\n  pop\n    /* \"#utility.yul\":1732:1861   */\n  pop\n    /* \"#utility.yul\":1205:1868   */\n  swap3\n  pop\n  swap3\n  pop\n  swap3\n  jump\t// out\n    /* \"#utility.yul\":1874:1992   */\ntag_32:\n    /* \"#utility.yul\":1961:1985   */\n  tag_58\n    /* \"#utility.yul\":1979:1984   */\n  dup2\n    /* \"#utility.yul\":1961:1985   */\n  tag_26\n  jump\t// in\ntag_58:\n    /* \"#utility.yul\":1956:1959   */\n  dup3\n    /* \"#utility.yul\":1949:1986   */\n  mstore\n    /* \"#utility.yul\":1874:1992   */\n  pop\n  pop\n  jump\t// out\n    /* \"#utility.yul\":1998:2220   */\ntag_9:\n    /* \"#utility.yul\":2091:2095   */\n  0x00\n    /* \"#utility.yul\":2129:2131   */\n  0x20\n    /* \"#utility.yul\":2118:2127   */\n  dup3\n    /* \"#utility.yul\":2114:2132   */\n  add\n    /* \"#utility.yul\":2106:2132   */\n  swap1\n  pop\n    /* \"#utility.yul\":2142:2213   */\n  tag_60\n    /* \"#utility.yul\":2210:2211   */\n  0x00\n    /* \"#utility.yul\":2199:2208   */\n  dup4\n    /* \"#utility.yul\":2195:2212   */\n  add\n    /* \"#utility.yul\":2186:2192   */\n  dup5\n    /* \"#utility.yul\":2142:2213   */\n  tag_32\n  jump\t// in\ntag_60:\n    /* \"#utility.yul\":1998:2220   */\n  swap3\n  swap2\n  pop\n  pop\n  jump\t// out\n    /* \"#utility.yul\":2226:2406   */\ntag_15:\n    /* \"#utility.yul\":2274:2351   */\n  0x4e487b7100000000000000000000000000000000000000000000000000000000\n    /* \"#utility.yul\":2271:2272   */\n  0x00\n    /* \"#utility.yul\":2264:2352   */\n  mstore\n    /* \"#utility.yul\":2371:2375   */\n  0x32\n    /* \"#utility.yul\":2368:2369   */\n  0x04\n    /* \"#utility.yul\":2361:2376   */\n  mstore\n    /* \"#utility.yul\":2395:2399   */\n  0x24\n    /* \"#utility.yul\":2392:2393   */\n  0x00\n    /* \"#utility.yul\":2385:2400   */\n  revert\n    /* \"FacctoryContract/WagerContract.sol\":218:12363  contract Market is Ownable {... */\ntag_20:\n  dataSize(sub_0)\n  dup1\n  dataOffset(sub_0)\n  0x00\n  codecopy\n  0x00\n  return\nstop\n\nsub_0: assembly {\n        /* \"FacctoryContract/WagerContract.sol\":218:12363  contract Market is Ownable {... */\n      mstore(0x40, 0x80)\n      callvalue\n      dup1\n      iszero\n      tag_1\n      jumpi\n      0x00\n      dup1\n      revert\n    tag_1:\n      pop\n      jumpi(tag_2, lt(calldatasize, 0x04))\n      shr(0xe0, calldataload(0x00))\n      dup1\n      0x6ffcc719\n      gt\n      tag_23\n      jumpi\n      dup1\n      0xb677d9d2\n      gt\n      tag_24\n      jumpi\n      dup1\n      0xb677d9d2\n      eq\n      tag_18\n      jumpi\n      dup1\n      0xbff1f9e1\n      eq\n      tag_19\n      jumpi\n      dup1\n      0xc4351386\n      eq\n      tag_20\n      jumpi\n      dup1\n      0xf2fde38b\n      eq\n      tag_21\n      jumpi\n      dup1\n      0xfbea0b06\n      eq\n      tag_22\n      jumpi\n      jump(tag_2)\n    tag_24:\n      dup1\n      0x6ffcc719\n      eq\n      tag_13\n      jumpi\n      dup1\n      0x715018a6\n      eq\n      tag_14\n      jumpi\n      dup1\n      0x84b5aca6\n      eq\n      tag_15\n      jumpi\n      dup1\n      0x8da5cb5b\n      eq\n      tag_16\n      jumpi\n      dup1\n      0xb3c740e8\n      eq\n      tag_17\n      jumpi\n      jump(tag_2)\n    tag_23:\n      dup1\n      0x21d0d9af\n      gt\n      tag_25\n      jumpi\n      dup1\n      0x21d0d9af\n      eq\n      tag_8\n      jumpi\n      dup1\n      0x3774ca25\n      eq\n      tag_9\n      jumpi\n      dup1\n      0x456e62ba\n      eq\n      tag_10\n      jumpi\n      dup1\n      0x61d464ef\n      eq\n      tag_11\n      jumpi\n      dup1\n      0x6399d03d\n      eq\n      tag_12\n      jumpi\n      jump(tag_2)\n    tag_25:\n      dup1\n      0x08ef962e\n      eq\n      tag_3\n      jumpi\n      dup1\n      0x0efa82f6\n      eq\n      tag_4\n      jumpi\n      dup1\n      0x11eac855\n      eq\n      tag_5\n      jumpi\n      dup1\n      0x1959a002\n      eq\n      tag_6\n      jumpi\n      dup1\n      0x208c86a4\n      eq\n      tag_7\n      jumpi\n    tag_2:\n      0x00\n      dup1\n      revert\n        /* \"FacctoryContract/WagerContract.sol\":953:996  mapping(uint256 => address) public eachUser */\n    tag_3:\n      tag_26\n      0x04\n      dup1\n      calldatasize\n      sub\n      dup2\n      add\n      swap1\n      tag_27\n      swap2\n      swap1\n      tag_28\n      jump\t// in\n    tag_27:\n      tag_29\n      jump\t// in\n    tag_26:\n      mload(0x40)\n      tag_30\n      swap2\n      swap1\n      tag_31\n      jump\t// in\n    tag_30:\n      mload(0x40)\n      dup1\n      swap2\n      sub\n      swap1\n      return\n        /* \"FacctoryContract/WagerContract.sol\":12222:12358  function userBetOn(address _user, uint256 _betIndex) public view returns (bool) {... */\n    tag_4:\n      tag_32\n      0x04\n      dup1\n      calldatasize\n      sub\n      dup2\n      add\n      swap1\n      tag_33\n      swap2\n      swap1\n      tag_34\n      jump\t// in\n    tag_33:\n      tag_35\n      jump\t// in\n    tag_32:\n      mload(0x40)\n      tag_36\n      swap2\n      swap1\n      tag_37\n      jump\t// in\n    tag_36:\n      mload(0x40)\n      dup1\n      swap2\n      sub\n      swap1\n      return\n        /* \"FacctoryContract/WagerContract.sol\":252:274  ERC20 public usdcToken */\n    tag_5:\n      tag_38\n      tag_39\n      jump\t// in\n    tag_38:\n      mload(0x40)\n      tag_40\n      swap2\n      swap1\n      tag_41\n      jump\t// in\n    tag_40:\n      mload(0x40)\n      dup1\n      swap2\n      sub\n      swap1\n      return\n        /* \"FacctoryContract/WagerContract.sol\":1002:1046  mapping(address => UserInfo) public userInfo */\n    tag_6:\n      tag_42\n      0x04\n      dup1\n      calldatasize\n      sub\n      dup2\n      add\n      swap1\n      tag_43\n      swap2\n      swap1\n      tag_44\n      jump\t// in\n    tag_43:\n      tag_45\n      jump\t// in\n    tag_42:\n      mload(0x40)\n      tag_46\n      swap6\n      swap5\n      swap4\n      swap3\n      swap2\n      swap1\n      tag_47\n      jump\t// in\n    tag_46:\n      mload(0x40)\n      dup1\n      swap2\n      sub\n      swap1\n      return\n        /* \"FacctoryContract/WagerContract.sol\":11542:11719  function getInitialPrices() public view returns (uint256, uint256) {... */\n    tag_7:\n      tag_48\n      tag_49\n      jump\t// in\n    tag_48:\n      mload(0x40)\n      tag_50\n      swap3\n      swap2\n      swap1\n      tag_51\n      jump\t// in\n    tag_50:\n      mload(0x40)\n      dup1\n      swap2\n      sub\n      swap1\n      return\n        /* \"FacctoryContract/WagerContract.sol\":3765:4449  function PriceCalculation(uint256 _totalBetAmountOnLahore, uint256 _totalBetAmountOnKarachi) public pure returns (uint256 yesSharePrice, uint256 noSharePrice) {... */\n    tag_8:\n      tag_52\n      0x04\n      dup1\n      calldatasize\n      sub\n      dup2\n      add\n      swap1\n      tag_53\n      swap2\n      swap1\n      tag_54\n      jump\t// in\n    tag_53:\n      tag_55\n      jump\t// in\n    tag_52:\n      mload(0x40)\n      tag_56\n      swap3\n      swap2\n      swap1\n      tag_51\n      jump\t// in\n    tag_56:\n      mload(0x40)\n      dup1\n      swap2\n      sub\n      swap1\n      return\n        /* \"FacctoryContract/WagerContract.sol\":11726:12216  function readSellInfo(address _owner, uint256 _id) public view returns (... */\n    tag_9:\n      tag_57\n      0x04\n      dup1\n      calldatasize\n      sub\n      dup2\n      add\n      swap1\n      tag_58\n      swap2\n      swap1\n      tag_34\n      jump\t// in\n    tag_58:\n      tag_59\n      jump\t// in\n    tag_57:\n      mload(0x40)\n      tag_60\n      swap7\n      swap6\n      swap5\n      swap4\n      swap3\n      swap2\n      swap1\n      tag_61\n      jump\t// in\n    tag_60:\n      mload(0x40)\n      dup1\n      swap2\n      sub\n      swap1\n      return\n        /* \"FacctoryContract/WagerContract.sol\":4693:6025  function sellShare(uint256 _amount, uint256 _price, uint256 _sellOf) external {... */\n    tag_10:\n      tag_62\n      0x04\n      dup1\n      calldatasize\n      sub\n      dup2\n      add\n      swap1\n      tag_63\n      swap2\n      swap1\n      tag_64\n      jump\t// in\n    tag_63:\n      tag_65\n      jump\t// in\n    tag_62:\n      stop\n        /* \"FacctoryContract/WagerContract.sol\":1106:1170  mapping(address => mapping(uint256 => SellInfo)) public sellInfo */\n    tag_11:\n      tag_66\n      0x04\n      dup1\n      calldatasize\n      sub\n      dup2\n      add\n      swap1\n      tag_67\n      swap2\n      swap1\n      tag_34\n      jump\t// in\n    tag_67:\n      tag_68\n      jump\t// in\n    tag_66:\n      mload(0x40)\n      tag_69\n      swap7\n      swap6\n      swap5\n      swap4\n      swap3\n      swap2\n      swap1\n      tag_61\n      jump\t// in\n    tag_69:\n      mload(0x40)\n      dup1\n      swap2\n      sub\n      swap1\n      return\n        /* \"FacctoryContract/WagerContract.sol\":7516:10269  function resolveMarket(uint256 winningIndex) external   {... */\n    tag_12:\n      tag_70\n      0x04\n      dup1\n      calldatasize\n      sub\n      dup2\n      add\n      swap1\n      tag_71\n      swap2\n      swap1\n      tag_28\n      jump\t// in\n    tag_71:\n      tag_72\n      jump\t// in\n    tag_70:\n      stop\n        /* \"FacctoryContract/WagerContract.sol\":2438:3758  function bet(uint256 _amount, uint256 _betOn) external {... */\n    tag_13:\n      tag_73\n      0x04\n      dup1\n      calldatasize\n      sub\n      dup2\n      add\n      swap1\n      tag_74\n      swap2\n      swap1\n      tag_54\n      jump\t// in\n    tag_74:\n      tag_75\n      jump\t// in\n    tag_73:\n      stop\n        /* \"@openzeppelin/contracts/access/Ownable.sol\":2293:2394  function renounceOwnership() public virtual onlyOwner {... */\n    tag_14:\n      tag_76\n      tag_77\n      jump\t// in\n    tag_76:\n      stop\n        /* \"FacctoryContract/WagerContract.sol\":11228:11536  function calculateInvestment(uint256 shares, uint256 _betOn) public view returns (uint256) {... */\n    tag_15:\n      tag_78\n      0x04\n      dup1\n      calldatasize\n      sub\n      dup2\n      add\n      swap1\n      tag_79\n      swap2\n      swap1\n      tag_54\n      jump\t// in\n    tag_79:\n      tag_80\n      jump\t// in\n    tag_78:\n      mload(0x40)\n      tag_81\n      swap2\n      swap1\n      tag_82\n      jump\t// in\n    tag_81:\n      mload(0x40)\n      dup1\n      swap2\n      sub\n      swap1\n      return\n        /* \"@openzeppelin/contracts/access/Ownable.sol\":1638:1723  function owner() public view virtual returns (address) {... */\n    tag_16:\n      tag_83\n      tag_84\n      jump\t// in\n    tag_83:\n      mload(0x40)\n      tag_85\n      swap2\n      swap1\n      tag_31\n      jump\t// in\n    tag_85:\n      mload(0x40)\n      dup1\n      swap2\n      sub\n      swap1\n      return\n        /* \"FacctoryContract/WagerContract.sol\":10280:10587  function calculateShares(uint256 _amount, uint256 _betOn ) public view returns (uint256) {... */\n    tag_17:\n      tag_86\n      0x04\n      dup1\n      calldatasize\n      sub\n      dup2\n      add\n      swap1\n      tag_87\n      swap2\n      swap1\n      tag_54\n      jump\t// in\n    tag_87:\n      tag_88\n      jump\t// in\n    tag_86:\n      mload(0x40)\n      tag_89\n      swap2\n      swap1\n      tag_82\n      jump\t// in\n    tag_89:\n      mload(0x40)\n      dup1\n      swap2\n      sub\n      swap1\n      return\n        /* \"FacctoryContract/WagerContract.sol\":915:946  uint256 public profitPercentage */\n    tag_18:\n      tag_90\n      tag_91\n      jump\t// in\n    tag_90:\n      mload(0x40)\n      tag_92\n      swap2\n      swap1\n      tag_82\n      jump\t// in\n    tag_92:\n      mload(0x40)\n      dup1\n      swap2\n      sub\n      swap1\n      return\n        /* \"FacctoryContract/WagerContract.sol\":884:909  uint256 public totalUsers */\n    tag_19:\n      tag_93\n      tag_94\n      jump\t// in\n    tag_93:\n      mload(0x40)\n      tag_95\n      swap2\n      swap1\n      tag_82\n      jump\t// in\n    tag_95:\n      mload(0x40)\n      dup1\n      swap2\n      sub\n      swap1\n      return\n        /* \"FacctoryContract/WagerContract.sol\":1052:1100  mapping(address => MarketInfo) public marketInfo */\n    tag_20:\n      tag_96\n      0x04\n      dup1\n      calldatasize\n      sub\n      dup2\n      add\n      swap1\n      tag_97\n      swap2\n      swap1\n      tag_44\n      jump\t// in\n    tag_97:\n      tag_98\n      jump\t// in\n    tag_96:\n      mload(0x40)\n      tag_99\n      swap7\n      swap6\n      swap5\n      swap4\n      swap3\n      swap2\n      swap1\n      tag_100\n      jump\t// in\n    tag_99:\n      mload(0x40)\n      dup1\n      swap2\n      sub\n      swap1\n      return\n        /* \"@openzeppelin/contracts/access/Ownable.sol\":2543:2758  function transferOwnership(address newOwner) public virtual onlyOwner {... */\n    tag_21:\n      tag_101\n      0x04\n      dup1\n      calldatasize\n      sub\n      dup2\n      add\n      swap1\n      tag_102\n      swap2\n      swap1\n      tag_44\n      jump\t// in\n    tag_102:\n      tag_103\n      jump\t// in\n    tag_101:\n      stop\n        /* \"FacctoryContract/WagerContract.sol\":6031:7504  function buyShare(uint256 _listNo, address _owner) external {... */\n    tag_22:\n      tag_104\n      0x04\n      dup1\n      calldatasize\n      sub\n      dup2\n      add\n      swap1\n      tag_105\n      swap2\n      swap1\n      tag_106\n      jump\t// in\n    tag_105:\n      tag_107\n      jump\t// in\n    tag_104:\n      stop\n        /* \"FacctoryContract/WagerContract.sol\":953:996  mapping(uint256 => address) public eachUser */\n    tag_29:\n      mstore(0x20, 0x04)\n      dup1\n      0x00\n      mstore\n      keccak256(0x00, 0x40)\n      0x00\n      swap2\n      pop\n      sload\n      swap1\n      0x0100\n      exp\n      swap1\n      div\n      0xffffffffffffffffffffffffffffffffffffffff\n      and\n      dup2\n      jump\t// out\n        /* \"FacctoryContract/WagerContract.sol\":12222:12358  function userBetOn(address _user, uint256 _betIndex) public view returns (bool) {... */\n    tag_35:\n        /* \"FacctoryContract/WagerContract.sol\":12296:12300  bool */\n      0x00\n        /* \"FacctoryContract/WagerContract.sol\":12319:12327  userInfo */\n      0x05\n        /* \"FacctoryContract/WagerContract.sol\":12319:12334  userInfo[_user] */\n      0x00\n        /* \"FacctoryContract/WagerContract.sol\":12328:12333  _user */\n      dup5\n        /* \"FacctoryContract/WagerContract.sol\":12319:12334  userInfo[_user] */\n      0xffffffffffffffffffffffffffffffffffffffff\n      and\n      0xffffffffffffffffffffffffffffffffffffffff\n      and\n      dup2\n      mstore\n      0x20\n      add\n      swap1\n      dup2\n      mstore\n      0x20\n      add\n      0x00\n      keccak256\n        /* \"FacctoryContract/WagerContract.sol\":12319:12340  userInfo[_user].betOn */\n      0x05\n      add\n        /* \"FacctoryContract/WagerContract.sol\":12319:12351  userInfo[_user].betOn[_betIndex] */\n      0x00\n        /* \"FacctoryContract/WagerContract.sol\":12341:12350  _betIndex */\n      dup4\n        /* \"FacctoryContract/WagerContract.sol\":12319:12351  userInfo[_user].betOn[_betIndex] */\n      dup2\n      mstore\n      0x20\n      add\n      swap1\n      dup2\n      mstore\n      0x20\n      add\n      0x00\n      keccak256\n      0x00\n      swap1\n      sload\n      swap1\n      0x0100\n      exp\n      swap1\n      div\n      0xff\n      and\n        /* \"FacctoryContract/WagerContract.sol\":12312:12351  return userInfo[_user].betOn[_betIndex] */\n      swap1\n      pop\n        /* \"FacctoryContract/WagerContract.sol\":12222:12358  function userBetOn(address _user, uint256 _betIndex) public view returns (bool) {... */\n      swap3\n      swap2\n      pop\n      pop\n      jump\t// out\n        /* \"FacctoryContract/WagerContract.sol\":252:274  ERC20 public usdcToken */\n    tag_39:\n      0x01\n      0x00\n      swap1\n      sload\n      swap1\n      0x0100\n      exp\n      swap1\n      div\n      0xffffffffffffffffffffffffffffffffffffffff\n      and\n      dup2\n      jump\t// out\n        /* \"FacctoryContract/WagerContract.sol\":1002:1046  mapping(address => UserInfo) public userInfo */\n    tag_45:\n      mstore(0x20, 0x05)\n      dup1\n      0x00\n      mstore\n      keccak256(0x00, 0x40)\n      0x00\n      swap2\n      pop\n      swap1\n      pop\n      dup1\n      0x00\n      add\n      sload\n      swap1\n      dup1\n      0x01\n      add\n      sload\n      swap1\n      dup1\n      0x02\n      add\n      sload\n      swap1\n      dup1\n      0x03\n      add\n      sload\n      swap1\n      dup1\n      0x04\n      add\n      sload\n      swap1\n      pop\n      dup6\n      jump\t// out\n        /* \"FacctoryContract/WagerContract.sol\":11542:11719  function getInitialPrices() public view returns (uint256, uint256) {... */\n    tag_49:\n        /* \"FacctoryContract/WagerContract.sol\":11591:11598  uint256 */\n      0x00\n        /* \"FacctoryContract/WagerContract.sol\":11600:11607  uint256 */\n      dup1\n        /* \"FacctoryContract/WagerContract.sol\":11627:11637  marketInfo */\n      0x06\n        /* \"FacctoryContract/WagerContract.sol\":11627:11652  marketInfo[address(this)] */\n      0x00\n        /* \"FacctoryContract/WagerContract.sol\":11646:11650  this */\n      address\n        /* \"FacctoryContract/WagerContract.sol\":11627:11652  marketInfo[address(this)] */\n      0xffffffffffffffffffffffffffffffffffffffff\n      and\n      0xffffffffffffffffffffffffffffffffffffffff\n      and\n      dup2\n      mstore\n      0x20\n      add\n      swap1\n      dup2\n      mstore\n      0x20\n      add\n      0x00\n      keccak256\n        /* \"FacctoryContract/WagerContract.sol\":11627:11665  marketInfo[address(this)].initialPrice */\n      0x04\n      add\n        /* \"FacctoryContract/WagerContract.sol\":11666:11667  0 */\n      0x00\n        /* \"FacctoryContract/WagerContract.sol\":11627:11668  marketInfo[address(this)].initialPrice[0] */\n      0x02\n      dup2\n      lt\n      tag_110\n      jumpi\n      tag_111\n      tag_112\n      jump\t// in\n    tag_111:\n    tag_110:\n      add\n      sload\n        /* \"FacctoryContract/WagerContract.sol\":11670:11680  marketInfo */\n      0x06\n        /* \"FacctoryContract/WagerContract.sol\":11670:11695  marketInfo[address(this)] */\n      0x00\n        /* \"FacctoryContract/WagerContract.sol\":11689:11693  this */\n      address\n        /* \"FacctoryContract/WagerContract.sol\":11670:11695  marketInfo[address(this)] */\n      0xffffffffffffffffffffffffffffffffffffffff\n      and\n      0xffffffffffffffffffffffffffffffffffffffff\n      and\n      dup2\n      mstore\n      0x20\n      add\n      swap1\n      dup2\n      mstore\n      0x20\n      add\n      0x00\n      keccak256\n        /* \"FacctoryContract/WagerContract.sol\":11670:11708  marketInfo[address(this)].initialPrice */\n      0x04\n      add\n        /* \"FacctoryContract/WagerContract.sol\":11709:11710  1 */\n      0x01\n        /* \"FacctoryContract/WagerContract.sol\":11670:11711  marketInfo[address(this)].initialPrice[1] */\n      0x02\n      dup2\n      lt\n      tag_114\n      jumpi\n      tag_115\n      tag_112\n      jump\t// in\n    tag_115:\n    tag_114:\n      add\n      sload\n        /* \"FacctoryContract/WagerContract.sol\":11619:11712  return (marketInfo[address(this)].initialPrice[0], marketInfo[address(this)].initialPrice[1]) */\n      swap2\n      pop\n      swap2\n      pop\n        /* \"FacctoryContract/WagerContract.sol\":11542:11719  function getInitialPrices() public view returns (uint256, uint256) {... */\n      swap1\n      swap2\n      jump\t// out\n        /* \"FacctoryContract/WagerContract.sol\":3765:4449  function PriceCalculation(uint256 _totalBetAmountOnLahore, uint256 _totalBetAmountOnKarachi) public pure returns (uint256 yesSharePrice, uint256 noSharePrice) {... */\n    tag_55:\n        /* \"FacctoryContract/WagerContract.sol\":3879:3900  uint256 yesSharePrice */\n      0x00\n        /* \"FacctoryContract/WagerContract.sol\":3902:3922  uint256 noSharePrice */\n      dup1\n        /* \"FacctoryContract/WagerContract.sol\":3934:3951  uint256 _totalBet */\n      0x00\n        /* \"FacctoryContract/WagerContract.sol\":3980:4004  _totalBetAmountOnKarachi */\n      dup4\n        /* \"FacctoryContract/WagerContract.sol\":3954:3977  _totalBetAmountOnLahore */\n      dup6\n        /* \"FacctoryContract/WagerContract.sol\":3954:4004  _totalBetAmountOnLahore + _totalBetAmountOnKarachi */\n      tag_118\n      swap2\n      swap1\n      tag_119\n      jump\t// in\n    tag_118:\n        /* \"FacctoryContract/WagerContract.sol\":3934:4004  uint256 _totalBet = _totalBetAmountOnLahore + _totalBetAmountOnKarachi */\n      swap1\n      pop\n        /* \"FacctoryContract/WagerContract.sol\":4031:4032  0 */\n      0x00\n        /* \"FacctoryContract/WagerContract.sol\":4018:4027  _totalBet */\n      dup2\n        /* \"FacctoryContract/WagerContract.sol\":4018:4032  _totalBet == 0 */\n      sub\n        /* \"FacctoryContract/WagerContract.sol\":4014:4133  if (_totalBet == 0) {... */\n      tag_120\n      jumpi\n        /* \"FacctoryContract/WagerContract.sol\":4056:4065  0.5 ether */\n      0x06f05b59d3b20000\n        /* \"FacctoryContract/WagerContract.sol\":4067:4076  0.5 ether */\n      dup1\n        /* \"FacctoryContract/WagerContract.sol\":4048:4077  return (0.5 ether, 0.5 ether) */\n      swap3\n      pop\n      swap3\n      pop\n      pop\n      jump(tag_117)\n        /* \"FacctoryContract/WagerContract.sol\":4014:4133  if (_totalBet == 0) {... */\n    tag_120:\n        /* \"FacctoryContract/WagerContract.sol\":4143:4162  uint256 lahoreRatio */\n      0x00\n        /* \"FacctoryContract/WagerContract.sol\":4200:4209  _totalBet */\n      dup2\n        /* \"FacctoryContract/WagerContract.sol\":4193:4196  100 */\n      0x64\n        /* \"FacctoryContract/WagerContract.sol\":4166:4190  _totalBetAmountOnKarachi */\n      dup7\n        /* \"FacctoryContract/WagerContract.sol\":4166:4196  _totalBetAmountOnKarachi * 100 */\n      tag_121\n      swap2\n      swap1\n      tag_122\n      jump\t// in\n    tag_121:\n        /* \"FacctoryContract/WagerContract.sol\":4165:4209  (_totalBetAmountOnKarachi * 100) / _totalBet */\n      tag_123\n      swap2\n      swap1\n      tag_124\n      jump\t// in\n    tag_123:\n        /* \"FacctoryContract/WagerContract.sol\":4143:4209  uint256 lahoreRatio = (_totalBetAmountOnKarachi * 100) / _totalBet */\n      swap1\n      pop\n        /* \"FacctoryContract/WagerContract.sol\":4219:4239  uint256 karachiRatio */\n      0x00\n        /* \"FacctoryContract/WagerContract.sol\":4276:4285  _totalBet */\n      dup3\n        /* \"FacctoryContract/WagerContract.sol\":4269:4272  100 */\n      0x64\n        /* \"FacctoryContract/WagerContract.sol\":4243:4266  _totalBetAmountOnLahore */\n      dup9\n        /* \"FacctoryContract/WagerContract.sol\":4243:4272  _totalBetAmountOnLahore * 100 */\n      tag_125\n      swap2\n      swap1\n      tag_122\n      jump\t// in\n    tag_125:\n        /* \"FacctoryContract/WagerContract.sol\":4242:4285  (_totalBetAmountOnLahore * 100) / _totalBet */\n      tag_126\n      swap2\n      swap1\n      tag_124\n      jump\t// in\n    tag_126:\n        /* \"FacctoryContract/WagerContract.sol\":4219:4285  uint256 karachiRatio = (_totalBetAmountOnLahore * 100) / _totalBet */\n      swap1\n      pop\n        /* \"FacctoryContract/WagerContract.sol\":4360:4364  1e16 */\n      0x2386f26fc10000\n        /* \"FacctoryContract/WagerContract.sol\":4312:4357  clamp(((lahoreRatio * 99) / 100) + 1, 1, 100) */\n      tag_127\n        /* \"FacctoryContract/WagerContract.sol\":4347:4348  1 */\n      0x01\n        /* \"FacctoryContract/WagerContract.sol\":4340:4343  100 */\n      0x64\n        /* \"FacctoryContract/WagerContract.sol\":4334:4336  99 */\n      0x63\n        /* \"FacctoryContract/WagerContract.sol\":4320:4331  lahoreRatio */\n      dup7\n        /* \"FacctoryContract/WagerContract.sol\":4320:4336  lahoreRatio * 99 */\n      tag_128\n      swap2\n      swap1\n      tag_122\n      jump\t// in\n    tag_128:\n        /* \"FacctoryContract/WagerContract.sol\":4319:4343  (lahoreRatio * 99) / 100 */\n      tag_129\n      swap2\n      swap1\n      tag_124\n      jump\t// in\n    tag_129:\n        /* \"FacctoryContract/WagerContract.sol\":4318:4348  ((lahoreRatio * 99) / 100) + 1 */\n      tag_130\n      swap2\n      swap1\n      tag_119\n      jump\t// in\n    tag_130:\n        /* \"FacctoryContract/WagerContract.sol\":4350:4351  1 */\n      0x01\n        /* \"FacctoryContract/WagerContract.sol\":4353:4356  100 */\n      0x64\n        /* \"FacctoryContract/WagerContract.sol\":4312:4317  clamp */\n      tag_131\n        /* \"FacctoryContract/WagerContract.sol\":4312:4357  clamp(((lahoreRatio * 99) / 100) + 1, 1, 100) */\n      jump\t// in\n    tag_127:\n        /* \"FacctoryContract/WagerContract.sol\":4312:4364  clamp(((lahoreRatio * 99) / 100) + 1, 1, 100) * 1e16 */\n      tag_132\n      swap2\n      swap1\n      tag_122\n      jump\t// in\n    tag_132:\n        /* \"FacctoryContract/WagerContract.sol\":4296:4364  yesSharePrice = clamp(((lahoreRatio * 99) / 100) + 1, 1, 100) * 1e16 */\n      swap5\n      pop\n        /* \"FacctoryContract/WagerContract.sol\":4438:4442  1e16 */\n      0x2386f26fc10000\n        /* \"FacctoryContract/WagerContract.sol\":4389:4435  clamp(((karachiRatio * 99) / 100) + 1, 1, 100) */\n      tag_133\n        /* \"FacctoryContract/WagerContract.sol\":4425:4426  1 */\n      0x01\n        /* \"FacctoryContract/WagerContract.sol\":4418:4421  100 */\n      0x64\n        /* \"FacctoryContract/WagerContract.sol\":4412:4414  99 */\n      0x63\n        /* \"FacctoryContract/WagerContract.sol\":4397:4409  karachiRatio */\n      dup6\n        /* \"FacctoryContract/WagerContract.sol\":4397:4414  karachiRatio * 99 */\n      tag_134\n      swap2\n      swap1\n      tag_122\n      jump\t// in\n    tag_134:\n        /* \"FacctoryContract/WagerContract.sol\":4396:4421  (karachiRatio * 99) / 100 */\n      tag_135\n      swap2\n      swap1\n      tag_124\n      jump\t// in\n    tag_135:\n        /* \"FacctoryContract/WagerContract.sol\":4395:4426  ((karachiRatio * 99) / 100) + 1 */\n      tag_136\n      swap2\n      swap1\n      tag_119\n      jump\t// in\n    tag_136:\n        /* \"FacctoryContract/WagerContract.sol\":4428:4429  1 */\n      0x01\n        /* \"FacctoryContract/WagerContract.sol\":4431:4434  100 */\n      0x64\n        /* \"FacctoryContract/WagerContract.sol\":4389:4394  clamp */\n      tag_131\n        /* \"FacctoryContract/WagerContract.sol\":4389:4435  clamp(((karachiRatio * 99) / 100) + 1, 1, 100) */\n      jump\t// in\n    tag_133:\n        /* \"FacctoryContract/WagerContract.sol\":4389:4442  clamp(((karachiRatio * 99) / 100) + 1, 1, 100) * 1e16 */\n      tag_137\n      swap2\n      swap1\n      tag_122\n      jump\t// in\n    tag_137:\n        /* \"FacctoryContract/WagerContract.sol\":4374:4442  noSharePrice = clamp(((karachiRatio * 99) / 100) + 1, 1, 100) * 1e16 */\n      swap4\n      pop\n        /* \"FacctoryContract/WagerContract.sol\":3924:4449  {... */\n      pop\n      pop\n      pop\n        /* \"FacctoryContract/WagerContract.sol\":3765:4449  function PriceCalculation(uint256 _totalBetAmountOnLahore, uint256 _totalBetAmountOnKarachi) public pure returns (uint256 yesSharePrice, uint256 noSharePrice) {... */\n    tag_117:\n      swap3\n      pop\n      swap3\n      swap1\n      pop\n      jump\t// out\n        /* \"FacctoryContract/WagerContract.sol\":11726:12216  function readSellInfo(address _owner, uint256 _id) public view returns (... */\n    tag_59:\n        /* \"FacctoryContract/WagerContract.sol\":11807:11816  bool list */\n      0x00\n        /* \"FacctoryContract/WagerContract.sol\":11826:11835  bool sold */\n      dup1\n        /* \"FacctoryContract/WagerContract.sol\":11845:11858  address owner */\n      0x00\n        /* \"FacctoryContract/WagerContract.sol\":11868:11881  uint256 price */\n      dup1\n        /* \"FacctoryContract/WagerContract.sol\":11891:11905  uint256 amount */\n      0x00\n        /* \"FacctoryContract/WagerContract.sol\":11915:11929  uint256 listOn */\n      dup1\n        /* \"FacctoryContract/WagerContract.sol\":11967:11975  sellInfo */\n      0x07\n        /* \"FacctoryContract/WagerContract.sol\":11967:11983  sellInfo[_owner] */\n      0x00\n        /* \"FacctoryContract/WagerContract.sol\":11976:11982  _owner */\n      dup10\n        /* \"FacctoryContract/WagerContract.sol\":11967:11983  sellInfo[_owner] */\n      0xffffffffffffffffffffffffffffffffffffffff\n      and\n      0xffffffffffffffffffffffffffffffffffffffff\n      and\n      dup2\n      mstore\n      0x20\n      add\n      swap1\n      dup2\n      mstore\n      0x20\n      add\n      0x00\n      keccak256\n        /* \"FacctoryContract/WagerContract.sol\":11967:11988  sellInfo[_owner][_id] */\n      0x00\n        /* \"FacctoryContract/WagerContract.sol\":11984:11987  _id */\n      dup9\n        /* \"FacctoryContract/WagerContract.sol\":11967:11988  sellInfo[_owner][_id] */\n      dup2\n      mstore\n      0x20\n      add\n      swap1\n      dup2\n      mstore\n      0x20\n      add\n      0x00\n      keccak256\n        /* \"FacctoryContract/WagerContract.sol\":11967:11993  sellInfo[_owner][_id].list */\n      0x00\n      add\n      0x00\n      swap1\n      sload\n      swap1\n      0x0100\n      exp\n      swap1\n      div\n      0xff\n      and\n        /* \"FacctoryContract/WagerContract.sol\":12007:12015  sellInfo */\n      0x07\n        /* \"FacctoryContract/WagerContract.sol\":12007:12023  sellInfo[_owner] */\n      0x00\n        /* \"FacctoryContract/WagerContract.sol\":12016:12022  _owner */\n      dup11\n        /* \"FacctoryContract/WagerContract.sol\":12007:12023  sellInfo[_owner] */\n      0xffffffffffffffffffffffffffffffffffffffff\n      and\n      0xffffffffffffffffffffffffffffffffffffffff\n      and\n      dup2\n      mstore\n      0x20\n      add\n      swap1\n      dup2\n      mstore\n      0x20\n      add\n      0x00\n      keccak256\n        /* \"FacctoryContract/WagerContract.sol\":12007:12028  sellInfo[_owner][_id] */\n      0x00\n        /* \"FacctoryContract/WagerContract.sol\":12024:12027  _id */\n      dup10\n        /* \"FacctoryContract/WagerContract.sol\":12007:12028  sellInfo[_owner][_id] */\n      dup2\n      mstore\n      0x20\n      add\n      swap1\n      dup2\n      mstore\n      0x20\n      add\n      0x00\n      keccak256\n        /* \"FacctoryContract/WagerContract.sol\":12007:12033  sellInfo[_owner][_id].sold */\n      0x00\n      add\n      0x01\n      swap1\n      sload\n      swap1\n      0x0100\n      exp\n      swap1\n      div\n      0xff\n      and\n        /* \"FacctoryContract/WagerContract.sol\":12047:12055  sellInfo */\n      0x07\n        /* \"FacctoryContract/WagerContract.sol\":12047:12063  sellInfo[_owner] */\n      0x00\n        /* \"FacctoryContract/WagerContract.sol\":12056:12062  _owner */\n      dup12\n        /* \"FacctoryContract/WagerContract.sol\":12047:12063  sellInfo[_owner] */\n      0xffffffffffffffffffffffffffffffffffffffff\n      and\n      0xffffffffffffffffffffffffffffffffffffffff\n      and\n      dup2\n      mstore\n      0x20\n      add\n      swap1\n      dup2\n      mstore\n      0x20\n      add\n      0x00\n      keccak256\n        /* \"FacctoryContract/WagerContract.sol\":12047:12068  sellInfo[_owner][_id] */\n      0x00\n        /* \"FacctoryContract/WagerContract.sol\":12064:12067  _id */\n      dup11\n        /* \"FacctoryContract/WagerContract.sol\":12047:12068  sellInfo[_owner][_id] */\n      dup2\n      mstore\n      0x20\n      add\n      swap1\n      dup2\n      mstore\n      0x20\n      add\n      0x00\n      keccak256\n        /* \"FacctoryContract/WagerContract.sol\":12047:12074  sellInfo[_owner][_id].owner */\n      0x00\n      add\n      0x02\n      swap1\n      sload\n      swap1\n      0x0100\n      exp\n      swap1\n      div\n      0xffffffffffffffffffffffffffffffffffffffff\n      and\n        /* \"FacctoryContract/WagerContract.sol\":12088:12096  sellInfo */\n      0x07\n        /* \"FacctoryContract/WagerContract.sol\":12088:12104  sellInfo[_owner] */\n      0x00\n        /* \"FacctoryContract/WagerContract.sol\":12097:12103  _owner */\n      dup13\n        /* \"FacctoryContract/WagerContract.sol\":12088:12104  sellInfo[_owner] */\n      0xffffffffffffffffffffffffffffffffffffffff\n      and\n      0xffffffffffffffffffffffffffffffffffffffff\n      and\n      dup2\n      mstore\n      0x20\n      add\n      swap1\n      dup2\n      mstore\n      0x20\n      add\n      0x00\n      keccak256\n        /* \"FacctoryContract/WagerContract.sol\":12088:12109  sellInfo[_owner][_id] */\n      0x00\n        /* \"FacctoryContract/WagerContract.sol\":12105:12108  _id */\n      dup12\n        /* \"FacctoryContract/WagerContract.sol\":12088:12109  sellInfo[_owner][_id] */\n      dup2\n      mstore\n      0x20\n      add\n      swap1\n      dup2\n      mstore\n      0x20\n      add\n      0x00\n      keccak256\n        /* \"FacctoryContract/WagerContract.sol\":12088:12115  sellInfo[_owner][_id].price */\n      0x01\n      add\n      sload\n        /* \"FacctoryContract/WagerContract.sol\":12129:12137  sellInfo */\n      0x07\n        /* \"FacctoryContract/WagerContract.sol\":12129:12145  sellInfo[_owner] */\n      0x00\n        /* \"FacctoryContract/WagerContract.sol\":12138:12144  _owner */\n      dup14\n        /* \"FacctoryContract/WagerContract.sol\":12129:12145  sellInfo[_owner] */\n      0xffffffffffffffffffffffffffffffffffffffff\n      and\n      0xffffffffffffffffffffffffffffffffffffffff\n      and\n      dup2\n      mstore\n      0x20\n      add\n      swap1\n      dup2\n      mstore\n      0x20\n      add\n      0x00\n      keccak256\n        /* \"FacctoryContract/WagerContract.sol\":12129:12150  sellInfo[_owner][_id] */\n      0x00\n        /* \"FacctoryContract/WagerContract.sol\":12146:12149  _id */\n      dup13\n        /* \"FacctoryContract/WagerContract.sol\":12129:12150  sellInfo[_owner][_id] */\n      dup2\n      mstore\n      0x20\n      add\n      swap1\n      dup2\n      mstore\n      0x20\n      add\n      0x00\n      keccak256\n        /* \"FacctoryContract/WagerContract.sol\":12129:12157  sellInfo[_owner][_id].amount */\n      0x02\n      add\n      sload\n        /* \"FacctoryContract/WagerContract.sol\":12171:12179  sellInfo */\n      0x07\n        /* \"FacctoryContract/WagerContract.sol\":12171:12187  sellInfo[_owner] */\n      0x00\n        /* \"FacctoryContract/WagerContract.sol\":12180:12186  _owner */\n      dup15\n        /* \"FacctoryContract/WagerContract.sol\":12171:12187  sellInfo[_owner] */\n      0xffffffffffffffffffffffffffffffffffffffff\n      and\n      0xffffffffffffffffffffffffffffffffffffffff\n      and\n      dup2\n      mstore\n      0x20\n      add\n      swap1\n      dup2\n      mstore\n      0x20\n      add\n      0x00\n      keccak256\n        /* \"FacctoryContract/WagerContract.sol\":12171:12192  sellInfo[_owner][_id] */\n      0x00\n        /* \"FacctoryContract/WagerContract.sol\":12188:12191  _id */\n      dup14\n        /* \"FacctoryContract/WagerContract.sol\":12171:12192  sellInfo[_owner][_id] */\n      dup2\n      mstore\n      0x20\n      add\n      swap1\n      dup2\n      mstore\n      0x20\n      add\n      0x00\n      keccak256\n        /* \"FacctoryContract/WagerContract.sol\":12171:12199  sellInfo[_owner][_id].listOn */\n      0x03\n      add\n      sload\n        /* \"FacctoryContract/WagerContract.sol\":11946:12209  return (... */\n      swap6\n      pop\n      swap6\n      pop\n      swap6\n      pop\n      swap6\n      pop\n      swap6\n      pop\n      swap6\n      pop\n        /* \"FacctoryContract/WagerContract.sol\":11726:12216  function readSellInfo(address _owner, uint256 _id) public view returns (... */\n      swap3\n      swap6\n      pop\n      swap3\n      swap6\n      pop\n      swap3\n      swap6\n      jump\t// out\n        /* \"FacctoryContract/WagerContract.sol\":4693:6025  function sellShare(uint256 _amount, uint256 _price, uint256 _sellOf) external {... */\n    tag_65:\n        /* \"FacctoryContract/WagerContract.sol\":4804:4805  0 */\n      0x00\n        /* \"FacctoryContract/WagerContract.sol\":4793:4800  _sellOf */\n      dup2\n        /* \"FacctoryContract/WagerContract.sol\":4793:4805  _sellOf != 0 */\n      eq\n      iszero\n        /* \"FacctoryContract/WagerContract.sol\":4793:4821  _sellOf != 0 && _sellOf != 1 */\n      dup1\n      iszero\n      tag_140\n      jumpi\n      pop\n        /* \"FacctoryContract/WagerContract.sol\":4820:4821  1 */\n      0x01\n        /* \"FacctoryContract/WagerContract.sol\":4809:4816  _sellOf */\n      dup2\n        /* \"FacctoryContract/WagerContract.sol\":4809:4821  _sellOf != 1 */\n      eq\n      iszero\n        /* \"FacctoryContract/WagerContract.sol\":4793:4821  _sellOf != 0 && _sellOf != 1 */\n    tag_140:\n        /* \"FacctoryContract/WagerContract.sol\":4790:4876  if(_sellOf != 0 && _sellOf != 1){... */\n      iszero\n      tag_141\n      jumpi\n        /* \"FacctoryContract/WagerContract.sol\":4857:4864  _sellOf */\n      dup1\n        /* \"FacctoryContract/WagerContract.sol\":4843:4865  wrongBetIndex(_sellOf) */\n      mload(0x40)\n      0xd7acbe8900000000000000000000000000000000000000000000000000000000\n      dup2\n      mstore\n      0x04\n      add\n      tag_142\n      swap2\n      swap1\n      tag_82\n      jump\t// in\n    tag_142:\n      mload(0x40)\n      dup1\n      swap2\n      sub\n      swap1\n      revert\n        /* \"FacctoryContract/WagerContract.sol\":4790:4876  if(_sellOf != 0 && _sellOf != 1){... */\n    tag_141:\n        /* \"FacctoryContract/WagerContract.sol\":4899:4900  0 */\n      0x00\n        /* \"FacctoryContract/WagerContract.sol\":4888:4895  _amount */\n      dup4\n        /* \"FacctoryContract/WagerContract.sol\":4888:4900  _amount <= 0 */\n      gt\n        /* \"FacctoryContract/WagerContract.sol\":4885:4953  if(_amount <= 0){... */\n      tag_143\n      jumpi\n        /* \"FacctoryContract/WagerContract.sol\":4934:4941  _amount */\n      dup3\n        /* \"FacctoryContract/WagerContract.sol\":4922:4942  wrongAmount(_amount) */\n      mload(0x40)\n      0x2ff4783000000000000000000000000000000000000000000000000000000000\n      dup2\n      mstore\n      0x04\n      add\n      tag_144\n      swap2\n      swap1\n      tag_82\n      jump\t// in\n    tag_144:\n      mload(0x40)\n      dup1\n      swap2\n      sub\n      swap1\n      revert\n        /* \"FacctoryContract/WagerContract.sol\":4885:4953  if(_amount <= 0){... */\n    tag_143:\n        /* \"FacctoryContract/WagerContract.sol\":4974:4984  marketInfo */\n      0x06\n        /* \"FacctoryContract/WagerContract.sol\":4974:4999  marketInfo[address(this)] */\n      0x00\n        /* \"FacctoryContract/WagerContract.sol\":4993:4997  this */\n      address\n        /* \"FacctoryContract/WagerContract.sol\":4974:4999  marketInfo[address(this)] */\n      0xffffffffffffffffffffffffffffffffffffffff\n      and\n      0xffffffffffffffffffffffffffffffffffffffff\n      and\n      dup2\n      mstore\n      0x20\n      add\n      swap1\n      dup2\n      mstore\n      0x20\n      add\n      0x00\n      keccak256\n        /* \"FacctoryContract/WagerContract.sol\":4974:5008  marketInfo[address(this)].resolved */\n      0x00\n      add\n      0x00\n      swap1\n      sload\n      swap1\n      0x0100\n      exp\n      swap1\n      div\n      0xff\n      and\n        /* \"FacctoryContract/WagerContract.sol\":4971:5057  if(marketInfo[address(this)].resolved){... */\n      iszero\n      tag_145\n      jumpi\n        /* \"FacctoryContract/WagerContract.sol\":5030:5046  marketResolved() */\n      mload(0x40)\n      0x853fd42100000000000000000000000000000000000000000000000000000000\n      dup2\n      mstore\n      0x04\n      add\n      mload(0x40)\n      dup1\n      swap2\n      sub\n      swap1\n      revert\n        /* \"FacctoryContract/WagerContract.sol\":4971:5057  if(marketInfo[address(this)].resolved){... */\n    tag_145:\n        /* \"FacctoryContract/WagerContract.sol\":5071:5079  userInfo */\n      0x05\n        /* \"FacctoryContract/WagerContract.sol\":5071:5091  userInfo[msg.sender] */\n      0x00\n        /* \"FacctoryContract/WagerContract.sol\":5080:5090  msg.sender */\n      caller\n        /* \"FacctoryContract/WagerContract.sol\":5071:5091  userInfo[msg.sender] */\n      0xffffffffffffffffffffffffffffffffffffffff\n      and\n      0xffffffffffffffffffffffffffffffffffffffff\n      and\n      dup2\n      mstore\n      0x20\n      add\n      swap1\n      dup2\n      mstore\n      0x20\n      add\n      0x00\n      keccak256\n        /* \"FacctoryContract/WagerContract.sol\":5071:5097  userInfo[msg.sender].betOn */\n      0x05\n      add\n        /* \"FacctoryContract/WagerContract.sol\":5071:5106  userInfo[msg.sender].betOn[_sellOf] */\n      0x00\n        /* \"FacctoryContract/WagerContract.sol\":5098:5105  _sellOf */\n      dup3\n        /* \"FacctoryContract/WagerContract.sol\":5071:5106  userInfo[msg.sender].betOn[_sellOf] */\n      dup2\n      mstore\n      0x20\n      add\n      swap1\n      dup2\n      mstore\n      0x20\n      add\n      0x00\n      keccak256\n      0x00\n      swap1\n      sload\n      swap1\n      0x0100\n      exp\n      swap1\n      div\n      0xff\n      and\n        /* \"FacctoryContract/WagerContract.sol\":5067:5182  if(!userInfo[msg.sender].betOn[_sellOf]){... */\n      tag_146\n      jumpi\n        /* \"FacctoryContract/WagerContract.sol\":5135:5143  userInfo */\n      0x05\n        /* \"FacctoryContract/WagerContract.sol\":5135:5155  userInfo[msg.sender] */\n      0x00\n        /* \"FacctoryContract/WagerContract.sol\":5144:5154  msg.sender */\n      caller\n        /* \"FacctoryContract/WagerContract.sol\":5135:5155  userInfo[msg.sender] */\n      0xffffffffffffffffffffffffffffffffffffffff\n      and\n      0xffffffffffffffffffffffffffffffffffffffff\n      and\n      dup2\n      mstore\n      0x20\n      add\n      swap1\n      dup2\n      mstore\n      0x20\n      add\n      0x00\n      keccak256\n        /* \"FacctoryContract/WagerContract.sol\":5135:5161  userInfo[msg.sender].betOn */\n      0x05\n      add\n        /* \"FacctoryContract/WagerContract.sol\":5135:5170  userInfo[msg.sender].betOn[_sellOf] */\n      0x00\n        /* \"FacctoryContract/WagerContract.sol\":5162:5169  _sellOf */\n      dup3\n        /* \"FacctoryContract/WagerContract.sol\":5135:5170  userInfo[msg.sender].betOn[_sellOf] */\n      dup2\n      mstore\n      0x20\n      add\n      swap1\n      dup2\n      mstore\n      0x20\n      add\n      0x00\n      keccak256\n      0x00\n      swap1\n      sload\n      swap1\n      0x0100\n      exp\n      swap1\n      div\n      0xff\n      and\n        /* \"FacctoryContract/WagerContract.sol\":5128:5171  notBet(userInfo[msg.sender].betOn[_sellOf]) */\n      mload(0x40)\n      0x3c3a312800000000000000000000000000000000000000000000000000000000\n      dup2\n      mstore\n      0x04\n      add\n      tag_147\n      swap2\n      swap1\n      tag_37\n      jump\t// in\n    tag_147:\n      mload(0x40)\n      dup1\n      swap2\n      sub\n      swap1\n      revert\n        /* \"FacctoryContract/WagerContract.sol\":5067:5182  if(!userInfo[msg.sender].betOn[_sellOf]){... */\n    tag_146:\n        /* \"FacctoryContract/WagerContract.sol\":5204:5205  0 */\n      0x00\n        /* \"FacctoryContract/WagerContract.sol\":5194:5200  _price */\n      dup3\n        /* \"FacctoryContract/WagerContract.sol\":5194:5205  _price <= 0 */\n      gt\n        /* \"FacctoryContract/WagerContract.sol\":5191:5256  if(_price <= 0){... */\n      tag_148\n      jumpi\n        /* \"FacctoryContract/WagerContract.sol\":5238:5244  _price */\n      dup2\n        /* \"FacctoryContract/WagerContract.sol\":5227:5245  wrongPrice(_price) */\n      mload(0x40)\n      0xbfc1948200000000000000000000000000000000000000000000000000000000\n      dup2\n      mstore\n      0x04\n      add\n      tag_149\n      swap2\n      swap1\n      tag_82\n      jump\t// in\n    tag_149:\n      mload(0x40)\n      dup1\n      swap2\n      sub\n      swap1\n      revert\n        /* \"FacctoryContract/WagerContract.sol\":5191:5256  if(_price <= 0){... */\n    tag_148:\n        /* \"FacctoryContract/WagerContract.sol\":5288:5289  0 */\n      0x00\n        /* \"FacctoryContract/WagerContract.sol\":5277:5284  _sellOf */\n      dup2\n        /* \"FacctoryContract/WagerContract.sol\":5277:5289  _sellOf == 0 */\n      sub\n        /* \"FacctoryContract/WagerContract.sol\":5274:5505  if(_sellOf == 0){... */\n      tag_150\n      jumpi\n        /* \"FacctoryContract/WagerContract.sol\":5324:5332  userInfo */\n      0x05\n        /* \"FacctoryContract/WagerContract.sol\":5324:5344  userInfo[msg.sender] */\n      0x00\n        /* \"FacctoryContract/WagerContract.sol\":5333:5343  msg.sender */\n      caller\n        /* \"FacctoryContract/WagerContract.sol\":5324:5344  userInfo[msg.sender] */\n      0xffffffffffffffffffffffffffffffffffffffff\n      and\n      0xffffffffffffffffffffffffffffffffffffffff\n      and\n      dup2\n      mstore\n      0x20\n      add\n      swap1\n      dup2\n      mstore\n      0x20\n      add\n      0x00\n      keccak256\n        /* \"FacctoryContract/WagerContract.sol\":5324:5356  userInfo[msg.sender].noBetAmount */\n      0x01\n      add\n      sload\n        /* \"FacctoryContract/WagerContract.sol\":5313:5320  _amount */\n      dup4\n        /* \"FacctoryContract/WagerContract.sol\":5313:5356  _amount <= userInfo[msg.sender].noBetAmount */\n      gt\n      iszero\n        /* \"FacctoryContract/WagerContract.sol\":5305:5378  require(_amount <= userInfo[msg.sender].noBetAmount, \"not enough Amount\") */\n      tag_151\n      jumpi\n      mload(0x40)\n      0x08c379a000000000000000000000000000000000000000000000000000000000\n      dup2\n      mstore\n      0x04\n      add\n      tag_152\n      swap1\n      tag_153\n      jump\t// in\n    tag_152:\n      mload(0x40)\n      dup1\n      swap2\n      sub\n      swap1\n      revert\n    tag_151:\n        /* \"FacctoryContract/WagerContract.sol\":5274:5505  if(_sellOf == 0){... */\n      jump(tag_154)\n    tag_150:\n        /* \"FacctoryContract/WagerContract.sol\":5439:5447  userInfo */\n      0x05\n        /* \"FacctoryContract/WagerContract.sol\":5439:5459  userInfo[msg.sender] */\n      0x00\n        /* \"FacctoryContract/WagerContract.sol\":5448:5458  msg.sender */\n      caller\n        /* \"FacctoryContract/WagerContract.sol\":5439:5459  userInfo[msg.sender] */\n      0xffffffffffffffffffffffffffffffffffffffff\n      and\n      0xffffffffffffffffffffffffffffffffffffffff\n      and\n      dup2\n      mstore\n      0x20\n      add\n      swap1\n      dup2\n      mstore\n      0x20\n      add\n      0x00\n      keccak256\n        /* \"FacctoryContract/WagerContract.sol\":5439:5472  userInfo[msg.sender].yesBetAmount */\n      0x03\n      add\n      sload\n        /* \"FacctoryContract/WagerContract.sol\":5428:5435  _amount */\n      dup4\n        /* \"FacctoryContract/WagerContract.sol\":5428:5472  _amount <= userInfo[msg.sender].yesBetAmount */\n      gt\n      iszero\n        /* \"FacctoryContract/WagerContract.sol\":5420:5494  require(_amount <= userInfo[msg.sender].yesBetAmount, \"not enough Amount\") */\n      tag_155\n      jumpi\n      mload(0x40)\n      0x08c379a000000000000000000000000000000000000000000000000000000000\n      dup2\n      mstore\n      0x04\n      add\n      tag_156\n      swap1\n      tag_153\n      jump\t// in\n    tag_156:\n      mload(0x40)\n      dup1\n      swap2\n      sub\n      swap1\n      revert\n    tag_155:\n        /* \"FacctoryContract/WagerContract.sol\":5274:5505  if(_sellOf == 0){... */\n    tag_154:\n        /* \"FacctoryContract/WagerContract.sol\":5523:5531  userInfo */\n      0x05\n        /* \"FacctoryContract/WagerContract.sol\":5523:5543  userInfo[msg.sender] */\n      0x00\n        /* \"FacctoryContract/WagerContract.sol\":5532:5542  msg.sender */\n      caller\n        /* \"FacctoryContract/WagerContract.sol\":5523:5543  userInfo[msg.sender] */\n      0xffffffffffffffffffffffffffffffffffffffff\n      and\n      0xffffffffffffffffffffffffffffffffffffffff\n      and\n      dup2\n      mstore\n      0x20\n      add\n      swap1\n      dup2\n      mstore\n      0x20\n      add\n      0x00\n      keccak256\n        /* \"FacctoryContract/WagerContract.sol\":5523:5550  userInfo[msg.sender].listNo */\n      0x00\n      add\n      0x00\n        /* \"FacctoryContract/WagerContract.sol\":5523:5552  userInfo[msg.sender].listNo++ */\n      dup2\n      sload\n      dup1\n      swap3\n      swap2\n      swap1\n      tag_157\n      swap1\n      tag_158\n      jump\t// in\n    tag_157:\n      swap2\n      swap1\n      pop\n      sstore\n      pop\n        /* \"FacctoryContract/WagerContract.sol\":5620:5624  true */\n      0x01\n        /* \"FacctoryContract/WagerContract.sol\":5563:5571  sellInfo */\n      0x07\n        /* \"FacctoryContract/WagerContract.sol\":5563:5583  sellInfo[msg.sender] */\n      0x00\n        /* \"FacctoryContract/WagerContract.sol\":5572:5582  msg.sender */\n      caller\n        /* \"FacctoryContract/WagerContract.sol\":5563:5583  sellInfo[msg.sender] */\n      0xffffffffffffffffffffffffffffffffffffffff\n      and\n      0xffffffffffffffffffffffffffffffffffffffff\n      and\n      dup2\n      mstore\n      0x20\n      add\n      swap1\n      dup2\n      mstore\n      0x20\n      add\n      0x00\n      keccak256\n        /* \"FacctoryContract/WagerContract.sol\":5563:5612  sellInfo[msg.sender][userInfo[msg.sender].listNo] */\n      0x00\n        /* \"FacctoryContract/WagerContract.sol\":5584:5592  userInfo */\n      0x05\n        /* \"FacctoryContract/WagerContract.sol\":5584:5604  userInfo[msg.sender] */\n      0x00\n        /* \"FacctoryContract/WagerContract.sol\":5593:5603  msg.sender */\n      caller\n        /* \"FacctoryContract/WagerContract.sol\":5584:5604  userInfo[msg.sender] */\n      0xffffffffffffffffffffffffffffffffffffffff\n      and\n      0xffffffffffffffffffffffffffffffffffffffff\n      and\n      dup2\n      mstore\n      0x20\n      add\n      swap1\n      dup2\n      mstore\n      0x20\n      add\n      0x00\n      keccak256\n        /* \"FacctoryContract/WagerContract.sol\":5584:5611  userInfo[msg.sender].listNo */\n      0x00\n      add\n      sload\n        /* \"FacctoryContract/WagerContract.sol\":5563:5612  sellInfo[msg.sender][userInfo[msg.sender].listNo] */\n      dup2\n      mstore\n      0x20\n      add\n      swap1\n      dup2\n      mstore\n      0x20\n      add\n      0x00\n      keccak256\n        /* \"FacctoryContract/WagerContract.sol\":5563:5617  sellInfo[msg.sender][userInfo[msg.sender].listNo].list */\n      0x00\n      add\n      0x00\n        /* \"FacctoryContract/WagerContract.sol\":5563:5624  sellInfo[msg.sender][userInfo[msg.sender].listNo].list = true */\n      0x0100\n      exp\n      dup2\n      sload\n      dup2\n      0xff\n      mul\n      not\n      and\n      swap1\n      dup4\n      iszero\n      iszero\n      mul\n      or\n      swap1\n      sstore\n      pop\n        /* \"FacctoryContract/WagerContract.sol\":5692:5698  _price */\n      dup2\n        /* \"FacctoryContract/WagerContract.sol\":5634:5642  sellInfo */\n      0x07\n        /* \"FacctoryContract/WagerContract.sol\":5634:5654  sellInfo[msg.sender] */\n      0x00\n        /* \"FacctoryContract/WagerContract.sol\":5643:5653  msg.sender */\n      caller\n        /* \"FacctoryContract/WagerContract.sol\":5634:5654  sellInfo[msg.sender] */\n      0xffffffffffffffffffffffffffffffffffffffff\n      and\n      0xffffffffffffffffffffffffffffffffffffffff\n      and\n      dup2\n      mstore\n      0x20\n      add\n      swap1\n      dup2\n      mstore\n      0x20\n      add\n      0x00\n      keccak256\n        /* \"FacctoryContract/WagerContract.sol\":5634:5683  sellInfo[msg.sender][userInfo[msg.sender].listNo] */\n      0x00\n        /* \"FacctoryContract/WagerContract.sol\":5655:5663  userInfo */\n      0x05\n        /* \"FacctoryContract/WagerContract.sol\":5655:5675  userInfo[msg.sender] */\n      0x00\n        /* \"FacctoryContract/WagerContract.sol\":5664:5674  msg.sender */\n      caller\n        /* \"FacctoryContract/WagerContract.sol\":5655:5675  userInfo[msg.sender] */\n      0xffffffffffffffffffffffffffffffffffffffff\n      and\n      0xffffffffffffffffffffffffffffffffffffffff\n      and\n      dup2\n      mstore\n      0x20\n      add\n      swap1\n      dup2\n      mstore\n      0x20\n      add\n      0x00\n      keccak256\n        /* \"FacctoryContract/WagerContract.sol\":5655:5682  userInfo[msg.sender].listNo */\n      0x00\n      add\n      sload\n        /* \"FacctoryContract/WagerContract.sol\":5634:5683  sellInfo[msg.sender][userInfo[msg.sender].listNo] */\n      dup2\n      mstore\n      0x20\n      add\n      swap1\n      dup2\n      mstore\n      0x20\n      add\n      0x00\n      keccak256\n        /* \"FacctoryContract/WagerContract.sol\":5634:5689  sellInfo[msg.sender][userInfo[msg.sender].listNo].price */\n      0x01\n      add\n        /* \"FacctoryContract/WagerContract.sol\":5634:5698  sellInfo[msg.sender][userInfo[msg.sender].listNo].price = _price */\n      dup2\n      swap1\n      sstore\n      pop\n        /* \"FacctoryContract/WagerContract.sol\":5768:5775  _amount */\n      dup3\n        /* \"FacctoryContract/WagerContract.sol\":5709:5717  sellInfo */\n      0x07\n        /* \"FacctoryContract/WagerContract.sol\":5709:5729  sellInfo[msg.sender] */\n      0x00\n        /* \"FacctoryContract/WagerContract.sol\":5718:5728  msg.sender */\n      caller\n        /* \"FacctoryContract/WagerContract.sol\":5709:5729  sellInfo[msg.sender] */\n      0xffffffffffffffffffffffffffffffffffffffff\n      and\n      0xffffffffffffffffffffffffffffffffffffffff\n      and\n      dup2\n      mstore\n      0x20\n      add\n      swap1\n      dup2\n      mstore\n      0x20\n      add\n      0x00\n      keccak256\n        /* \"FacctoryContract/WagerContract.sol\":5709:5758  sellInfo[msg.sender][userInfo[msg.sender].listNo] */\n      0x00\n        /* \"FacctoryContract/WagerContract.sol\":5730:5738  userInfo */\n      0x05\n        /* \"FacctoryContract/WagerContract.sol\":5730:5750  userInfo[msg.sender] */\n      0x00\n        /* \"FacctoryContract/WagerContract.sol\":5739:5749  msg.sender */\n      caller\n        /* \"FacctoryContract/WagerContract.sol\":5730:5750  userInfo[msg.sender] */\n      0xffffffffffffffffffffffffffffffffffffffff\n      and\n      0xffffffffffffffffffffffffffffffffffffffff\n      and\n      dup2\n      mstore\n      0x20\n      add\n      swap1\n      dup2\n      mstore\n      0x20\n      add\n      0x00\n      keccak256\n        /* \"FacctoryContract/WagerContract.sol\":5730:5757  userInfo[msg.sender].listNo */\n      0x00\n      add\n      sload\n        /* \"FacctoryContract/WagerContract.sol\":5709:5758  sellInfo[msg.sender][userInfo[msg.sender].listNo] */\n      dup2\n      mstore\n      0x20\n      add\n      swap1\n      dup2\n      mstore\n      0x20\n      add\n      0x00\n      keccak256\n        /* \"FacctoryContract/WagerContract.sol\":5709:5765  sellInfo[msg.sender][userInfo[msg.sender].listNo].amount */\n      0x02\n      add\n        /* \"FacctoryContract/WagerContract.sol\":5709:5775  sellInfo[msg.sender][userInfo[msg.sender].listNo].amount = _amount */\n      dup2\n      swap1\n      sstore\n      pop\n        /* \"FacctoryContract/WagerContract.sol\":5844:5854  msg.sender */\n      caller\n        /* \"FacctoryContract/WagerContract.sol\":5786:5794  sellInfo */\n      0x07\n        /* \"FacctoryContract/WagerContract.sol\":5786:5806  sellInfo[msg.sender] */\n      0x00\n        /* \"FacctoryContract/WagerContract.sol\":5795:5805  msg.sender */\n      caller\n        /* \"FacctoryContract/WagerContract.sol\":5786:5806  sellInfo[msg.sender] */\n      0xffffffffffffffffffffffffffffffffffffffff\n      and\n      0xffffffffffffffffffffffffffffffffffffffff\n      and\n      dup2\n      mstore\n      0x20\n      add\n      swap1\n      dup2\n      mstore\n      0x20\n      add\n      0x00\n      keccak256\n        /* \"FacctoryContract/WagerContract.sol\":5786:5835  sellInfo[msg.sender][userInfo[msg.sender].listNo] */\n      0x00\n        /* \"FacctoryContract/WagerContract.sol\":5807:5815  userInfo */\n      0x05\n        /* \"FacctoryContract/WagerContract.sol\":5807:5827  userInfo[msg.sender] */\n      0x00\n        /* \"FacctoryContract/WagerContract.sol\":5816:5826  msg.sender */\n      caller\n        /* \"FacctoryContract/WagerContract.sol\":5807:5827  userInfo[msg.sender] */\n      0xffffffffffffffffffffffffffffffffffffffff\n      and\n      0xffffffffffffffffffffffffffffffffffffffff\n      and\n      dup2\n      mstore\n      0x20\n      add\n      swap1\n      dup2\n      mstore\n      0x20\n      add\n      0x00\n      keccak256\n        /* \"FacctoryContract/WagerContract.sol\":5807:5834  userInfo[msg.sender].listNo */\n      0x00\n      add\n      sload\n        /* \"FacctoryContract/WagerContract.sol\":5786:5835  sellInfo[msg.sender][userInfo[msg.sender].listNo] */\n      dup2\n      mstore\n      0x20\n      add\n      swap1\n      dup2\n      mstore\n      0x20\n      add\n      0x00\n      keccak256\n        /* \"FacctoryContract/WagerContract.sol\":5786:5841  sellInfo[msg.sender][userInfo[msg.sender].listNo].owner */\n      0x00\n      add\n      0x02\n        /* \"FacctoryContract/WagerContract.sol\":5786:5854  sellInfo[msg.sender][userInfo[msg.sender].listNo].owner = msg.sender */\n      0x0100\n      exp\n      dup2\n      sload\n      dup2\n      0xffffffffffffffffffffffffffffffffffffffff\n      mul\n      not\n      and\n      swap1\n      dup4\n      0xffffffffffffffffffffffffffffffffffffffff\n      and\n      mul\n      or\n      swap1\n      sstore\n      pop\n        /* \"FacctoryContract/WagerContract.sol\":5924:5931  _sellOf */\n      dup1\n        /* \"FacctoryContract/WagerContract.sol\":5865:5873  sellInfo */\n      0x07\n        /* \"FacctoryContract/WagerContract.sol\":5865:5885  sellInfo[msg.sender] */\n      0x00\n        /* \"FacctoryContract/WagerContract.sol\":5874:5884  msg.sender */\n      caller\n        /* \"FacctoryContract/WagerContract.sol\":5865:5885  sellInfo[msg.sender] */\n      0xffffffffffffffffffffffffffffffffffffffff\n      and\n      0xffffffffffffffffffffffffffffffffffffffff\n      and\n      dup2\n      mstore\n      0x20\n      add\n      swap1\n      dup2\n      mstore\n      0x20\n      add\n      0x00\n      keccak256\n        /* \"FacctoryContract/WagerContract.sol\":5865:5914  sellInfo[msg.sender][userInfo[msg.sender].listNo] */\n      0x00\n        /* \"FacctoryContract/WagerContract.sol\":5886:5894  userInfo */\n      0x05\n        /* \"FacctoryContract/WagerContract.sol\":5886:5906  userInfo[msg.sender] */\n      0x00\n        /* \"FacctoryContract/WagerContract.sol\":5895:5905  msg.sender */\n      caller\n        /* \"FacctoryContract/WagerContract.sol\":5886:5906  userInfo[msg.sender] */\n      0xffffffffffffffffffffffffffffffffffffffff\n      and\n      0xffffffffffffffffffffffffffffffffffffffff\n      and\n      dup2\n      mstore\n      0x20\n      add\n      swap1\n      dup2\n      mstore\n      0x20\n      add\n      0x00\n      keccak256\n        /* \"FacctoryContract/WagerContract.sol\":5886:5913  userInfo[msg.sender].listNo */\n      0x00\n      add\n      sload\n        /* \"FacctoryContract/WagerContract.sol\":5865:5914  sellInfo[msg.sender][userInfo[msg.sender].listNo] */\n      dup2\n      mstore\n      0x20\n      add\n      swap1\n      dup2\n      mstore\n      0x20\n      add\n      0x00\n      keccak256\n        /* \"FacctoryContract/WagerContract.sol\":5865:5921  sellInfo[msg.sender][userInfo[msg.sender].listNo].listOn */\n      0x03\n      add\n        /* \"FacctoryContract/WagerContract.sol\":5865:5931  sellInfo[msg.sender][userInfo[msg.sender].listNo].listOn = _sellOf */\n      dup2\n      swap1\n      sstore\n      pop\n        /* \"FacctoryContract/WagerContract.sol\":5970:5980  msg.sender */\n      caller\n        /* \"FacctoryContract/WagerContract.sol\":5960:6018  SellShare(msg.sender, userInfo[msg.sender].listNo, _price) */\n      0xffffffffffffffffffffffffffffffffffffffff\n      and\n      0x578d9bb67ff50e6081576125ad4c2410d6e82de6dbc1a5dcac37f8e5aa9ca4f4\n        /* \"FacctoryContract/WagerContract.sol\":5982:5990  userInfo */\n      0x05\n        /* \"FacctoryContract/WagerContract.sol\":5982:6002  userInfo[msg.sender] */\n      0x00\n        /* \"FacctoryContract/WagerContract.sol\":5991:6001  msg.sender */\n      caller\n        /* \"FacctoryContract/WagerContract.sol\":5982:6002  userInfo[msg.sender] */\n      0xffffffffffffffffffffffffffffffffffffffff\n      and\n      0xffffffffffffffffffffffffffffffffffffffff\n      and\n      dup2\n      mstore\n      0x20\n      add\n      swap1\n      dup2\n      mstore\n      0x20\n      add\n      0x00\n      keccak256\n        /* \"FacctoryContract/WagerContract.sol\":5982:6009  userInfo[msg.sender].listNo */\n      0x00\n      add\n      sload\n        /* \"FacctoryContract/WagerContract.sol\":6011:6017  _price */\n      dup5\n        /* \"FacctoryContract/WagerContract.sol\":5960:6018  SellShare(msg.sender, userInfo[msg.sender].listNo, _price) */\n      mload(0x40)\n      tag_159\n      swap3\n      swap2\n      swap1\n      tag_51\n      jump\t// in\n    tag_159:\n      mload(0x40)\n      dup1\n      swap2\n      sub\n      swap1\n      log2\n        /* \"FacctoryContract/WagerContract.sol\":4693:6025  function sellShare(uint256 _amount, uint256 _price, uint256 _sellOf) external {... */\n      pop\n      pop\n      pop\n      jump\t// out\n        /* \"FacctoryContract/WagerContract.sol\":1106:1170  mapping(address => mapping(uint256 => SellInfo)) public sellInfo */\n    tag_68:\n      mstore(0x20, 0x07)\n      dup2\n      0x00\n      mstore\n      mstore(0x20, keccak256(0x00, 0x40))\n      dup1\n      0x00\n      mstore\n      keccak256(0x00, 0x40)\n      0x00\n      swap2\n      pop\n      swap2\n      pop\n      pop\n      dup1\n      0x00\n      add\n      0x00\n      swap1\n      sload\n      swap1\n      0x0100\n      exp\n      swap1\n      div\n      0xff\n      and\n      swap1\n      dup1\n      0x00\n      add\n      0x01\n      swap1\n      sload\n      swap1\n      0x0100\n      exp\n      swap1\n      div\n      0xff\n      and\n      swap1\n      dup1\n      0x00\n      add\n      0x02\n      swap1\n      sload\n      swap1\n      0x0100\n      exp\n      swap1\n      div\n      0xffffffffffffffffffffffffffffffffffffffff\n      and\n      swap1\n      dup1\n      0x01\n      add\n      sload\n      swap1\n      dup1\n      0x02\n      add\n      sload\n      swap1\n      dup1\n      0x03\n      add\n      sload\n      swap1\n      pop\n      dup7\n      jump\t// out\n        /* \"FacctoryContract/WagerContract.sol\":7516:10269  function resolveMarket(uint256 winningIndex) external   {... */\n    tag_72:\n        /* \"FacctoryContract/WagerContract.sol\":7610:7611  0 */\n      0x00\n        /* \"FacctoryContract/WagerContract.sol\":7594:7606  winningIndex */\n      dup2\n        /* \"FacctoryContract/WagerContract.sol\":7594:7611  winningIndex != 0 */\n      eq\n      iszero\n        /* \"FacctoryContract/WagerContract.sol\":7594:7632  winningIndex != 0 && winningIndex != 1 */\n      dup1\n      iszero\n      tag_161\n      jumpi\n      pop\n        /* \"FacctoryContract/WagerContract.sol\":7631:7632  1 */\n      0x01\n        /* \"FacctoryContract/WagerContract.sol\":7615:7627  winningIndex */\n      dup2\n        /* \"FacctoryContract/WagerContract.sol\":7615:7632  winningIndex != 1 */\n      eq\n      iszero\n        /* \"FacctoryContract/WagerContract.sol\":7594:7632  winningIndex != 0 && winningIndex != 1 */\n    tag_161:\n        /* \"FacctoryContract/WagerContract.sol\":7591:7692  if(winningIndex != 0 && winningIndex != 1){... */\n      iszero\n      tag_162\n      jumpi\n        /* \"FacctoryContract/WagerContract.sol\":7668:7680  winningIndex */\n      dup1\n        /* \"FacctoryContract/WagerContract.sol\":7654:7681  wrongBetIndex(winningIndex) */\n      mload(0x40)\n      0xd7acbe8900000000000000000000000000000000000000000000000000000000\n      dup2\n      mstore\n      0x04\n      add\n      tag_163\n      swap2\n      swap1\n      tag_82\n      jump\t// in\n    tag_163:\n      mload(0x40)\n      dup1\n      swap2\n      sub\n      swap1\n      revert\n        /* \"FacctoryContract/WagerContract.sol\":7591:7692  if(winningIndex != 0 && winningIndex != 1){... */\n    tag_162:\n        /* \"FacctoryContract/WagerContract.sol\":7713:7723  marketInfo */\n      0x06\n        /* \"FacctoryContract/WagerContract.sol\":7713:7738  marketInfo[address(this)] */\n      0x00\n        /* \"FacctoryContract/WagerContract.sol\":7732:7736  this */\n      address\n        /* \"FacctoryContract/WagerContract.sol\":7713:7738  marketInfo[address(this)] */\n      0xffffffffffffffffffffffffffffffffffffffff\n      and\n      0xffffffffffffffffffffffffffffffffffffffff\n      and\n      dup2\n      mstore\n      0x20\n      add\n      swap1\n      dup2\n      mstore\n      0x20\n      add\n      0x00\n      keccak256\n        /* \"FacctoryContract/WagerContract.sol\":7713:7747  marketInfo[address(this)].resolved */\n      0x00\n      add\n      0x00\n      swap1\n      sload\n      swap1\n      0x0100\n      exp\n      swap1\n      div\n      0xff\n      and\n        /* \"FacctoryContract/WagerContract.sol\":7710:7796  if(marketInfo[address(this)].resolved){... */\n      iszero\n      tag_164\n      jumpi\n        /* \"FacctoryContract/WagerContract.sol\":7769:7785  marketResolved() */\n      mload(0x40)\n      0x853fd42100000000000000000000000000000000000000000000000000000000\n      dup2\n      mstore\n      0x04\n      add\n      mload(0x40)\n      dup1\n      swap2\n      sub\n      swap1\n      revert\n        /* \"FacctoryContract/WagerContract.sol\":7710:7796  if(marketInfo[address(this)].resolved){... */\n    tag_164:\n        /* \"FacctoryContract/WagerContract.sol\":7845:7860  block.timestamp */\n      timestamp\n        /* \"FacctoryContract/WagerContract.sol\":7809:7819  marketInfo */\n      0x06\n        /* \"FacctoryContract/WagerContract.sol\":7809:7834  marketInfo[address(this)] */\n      0x00\n        /* \"FacctoryContract/WagerContract.sol\":7828:7832  this */\n      address\n        /* \"FacctoryContract/WagerContract.sol\":7809:7834  marketInfo[address(this)] */\n      0xffffffffffffffffffffffffffffffffffffffff\n      and\n      0xffffffffffffffffffffffffffffffffffffffff\n      and\n      dup2\n      mstore\n      0x20\n      add\n      swap1\n      dup2\n      mstore\n      0x20\n      add\n      0x00\n      keccak256\n        /* \"FacctoryContract/WagerContract.sol\":7809:7842  marketInfo[address(this)].endTime */\n      0x01\n      add\n      sload\n        /* \"FacctoryContract/WagerContract.sol\":7809:7860  marketInfo[address(this)].endTime > block.timestamp */\n      gt\n        /* \"FacctoryContract/WagerContract.sol\":7806:7949  if(marketInfo[address(this)].endTime > block.timestamp){... */\n      iszero\n      tag_165\n      jumpi\n        /* \"FacctoryContract/WagerContract.sol\":7904:7914  marketInfo */\n      0x06\n        /* \"FacctoryContract/WagerContract.sol\":7904:7929  marketInfo[address(this)] */\n      0x00\n        /* \"FacctoryContract/WagerContract.sol\":7923:7927  this */\n      address\n        /* \"FacctoryContract/WagerContract.sol\":7904:7929  marketInfo[address(this)] */\n      0xffffffffffffffffffffffffffffffffffffffff\n      and\n      0xffffffffffffffffffffffffffffffffffffffff\n      and\n      dup2\n      mstore\n      0x20\n      add\n      swap1\n      dup2\n      mstore\n      0x20\n      add\n      0x00\n      keccak256\n        /* \"FacctoryContract/WagerContract.sol\":7904:7937  marketInfo[address(this)].endTime */\n      0x01\n      add\n      sload\n        /* \"FacctoryContract/WagerContract.sol\":7882:7938  notResolvedBeforeTime(marketInfo[address(this)].endTime) */\n      mload(0x40)\n      0x79073e7b00000000000000000000000000000000000000000000000000000000\n      dup2\n      mstore\n      0x04\n      add\n      tag_166\n      swap2\n      swap1\n      tag_82\n      jump\t// in\n    tag_166:\n      mload(0x40)\n      dup1\n      swap2\n      sub\n      swap1\n      revert\n        /* \"FacctoryContract/WagerContract.sol\":7806:7949  if(marketInfo[address(this)].endTime > block.timestamp){... */\n    tag_165:\n        /* \"FacctoryContract/WagerContract.sol\":7959:7983  uint256 totalWinnerShare */\n      0x00\n        /* \"FacctoryContract/WagerContract.sol\":7998:8007  uint256 i */\n      dup1\n        /* \"FacctoryContract/WagerContract.sol\":8010:8011  0 */\n      0x00\n        /* \"FacctoryContract/WagerContract.sol\":7998:8011  uint256 i = 0 */\n      swap1\n      pop\n        /* \"FacctoryContract/WagerContract.sol\":7994:8822  for(uint256 i = 0; i < totalUsers; i++){... */\n    tag_167:\n        /* \"FacctoryContract/WagerContract.sol\":8017:8027  totalUsers */\n      sload(0x02)\n        /* \"FacctoryContract/WagerContract.sol\":8013:8014  i */\n      dup2\n        /* \"FacctoryContract/WagerContract.sol\":8013:8027  i < totalUsers */\n      lt\n        /* \"FacctoryContract/WagerContract.sol\":7994:8822  for(uint256 i = 0; i < totalUsers; i++){... */\n      iszero\n      tag_168\n      jumpi\n        /* \"FacctoryContract/WagerContract.sol\":8052:8060  userInfo */\n      0x05\n        /* \"FacctoryContract/WagerContract.sol\":8052:8073  userInfo[eachUser[i]] */\n      0x00\n        /* \"FacctoryContract/WagerContract.sol\":8061:8069  eachUser */\n      0x04\n        /* \"FacctoryContract/WagerContract.sol\":8061:8072  eachUser[i] */\n      0x00\n        /* \"FacctoryContract/WagerContract.sol\":8070:8071  i */\n      dup5\n        /* \"FacctoryContract/WagerContract.sol\":8061:8072  eachUser[i] */\n      dup2\n      mstore\n      0x20\n      add\n      swap1\n      dup2\n      mstore\n      0x20\n      add\n      0x00\n      keccak256\n      0x00\n      swap1\n      sload\n      swap1\n      0x0100\n      exp\n      swap1\n      div\n      0xffffffffffffffffffffffffffffffffffffffff\n      and\n        /* \"FacctoryContract/WagerContract.sol\":8052:8073  userInfo[eachUser[i]] */\n      0xffffffffffffffffffffffffffffffffffffffff\n      and\n      0xffffffffffffffffffffffffffffffffffffffff\n      and\n      dup2\n      mstore\n      0x20\n      add\n      swap1\n      dup2\n      mstore\n      0x20\n      add\n      0x00\n      keccak256\n        /* \"FacctoryContract/WagerContract.sol\":8052:8079  userInfo[eachUser[i]].betOn */\n      0x05\n      add\n        /* \"FacctoryContract/WagerContract.sol\":8052:8093  userInfo[eachUser[i]].betOn[winningIndex] */\n      0x00\n        /* \"FacctoryContract/WagerContract.sol\":8080:8092  winningIndex */\n      dup5\n        /* \"FacctoryContract/WagerContract.sol\":8052:8093  userInfo[eachUser[i]].betOn[winningIndex] */\n      dup2\n      mstore\n      0x20\n      add\n      swap1\n      dup2\n      mstore\n      0x20\n      add\n      0x00\n      keccak256\n      0x00\n      swap1\n      sload\n      swap1\n      0x0100\n      exp\n      swap1\n      div\n      0xff\n      and\n        /* \"FacctoryContract/WagerContract.sol\":8049:8809  if(userInfo[eachUser[i]].betOn[winningIndex]) {... */\n      iszero\n      tag_170\n      jumpi\n        /* \"FacctoryContract/WagerContract.sol\":8133:8134  0 */\n      0x00\n        /* \"FacctoryContract/WagerContract.sol\":8117:8129  winningIndex */\n      dup4\n        /* \"FacctoryContract/WagerContract.sol\":8117:8134  winningIndex == 0 */\n      eq\n        /* \"FacctoryContract/WagerContract.sol\":8117:8176  winningIndex == 0 && userInfo[eachUser[i]].noBetAmount != 0 */\n      dup1\n      iszero\n      tag_171\n      jumpi\n      pop\n        /* \"FacctoryContract/WagerContract.sol\":8175:8176  0 */\n      0x00\n        /* \"FacctoryContract/WagerContract.sol\":8138:8146  userInfo */\n      0x05\n        /* \"FacctoryContract/WagerContract.sol\":8138:8159  userInfo[eachUser[i]] */\n      0x00\n        /* \"FacctoryContract/WagerContract.sol\":8147:8155  eachUser */\n      0x04\n        /* \"FacctoryContract/WagerContract.sol\":8147:8158  eachUser[i] */\n      0x00\n        /* \"FacctoryContract/WagerContract.sol\":8156:8157  i */\n      dup6\n        /* \"FacctoryContract/WagerContract.sol\":8147:8158  eachUser[i] */\n      dup2\n      mstore\n      0x20\n      add\n      swap1\n      dup2\n      mstore\n      0x20\n      add\n      0x00\n      keccak256\n      0x00\n      swap1\n      sload\n      swap1\n      0x0100\n      exp\n      swap1\n      div\n      0xffffffffffffffffffffffffffffffffffffffff\n      and\n        /* \"FacctoryContract/WagerContract.sol\":8138:8159  userInfo[eachUser[i]] */\n      0xffffffffffffffffffffffffffffffffffffffff\n      and\n      0xffffffffffffffffffffffffffffffffffffffff\n      and\n      dup2\n      mstore\n      0x20\n      add\n      swap1\n      dup2\n      mstore\n      0x20\n      add\n      0x00\n      keccak256\n        /* \"FacctoryContract/WagerContract.sol\":8138:8171  userInfo[eachUser[i]].noBetAmount */\n      0x01\n      add\n      sload\n        /* \"FacctoryContract/WagerContract.sol\":8138:8176  userInfo[eachUser[i]].noBetAmount != 0 */\n      eq\n      iszero\n        /* \"FacctoryContract/WagerContract.sol\":8117:8176  winningIndex == 0 && userInfo[eachUser[i]].noBetAmount != 0 */\n    tag_171:\n        /* \"FacctoryContract/WagerContract.sol\":8114:8794  if(winningIndex == 0 && userInfo[eachUser[i]].noBetAmount != 0){... */\n      iszero\n      tag_172\n      jumpi\n        /* \"FacctoryContract/WagerContract.sol\":8256:8390  calculateShares(... */\n      tag_173\n        /* \"FacctoryContract/WagerContract.sol\":8297:8305  userInfo */\n      0x05\n        /* \"FacctoryContract/WagerContract.sol\":8297:8318  userInfo[eachUser[i]] */\n      0x00\n        /* \"FacctoryContract/WagerContract.sol\":8306:8314  eachUser */\n      0x04\n        /* \"FacctoryContract/WagerContract.sol\":8306:8317  eachUser[i] */\n      0x00\n        /* \"FacctoryContract/WagerContract.sol\":8315:8316  i */\n      dup6\n        /* \"FacctoryContract/WagerContract.sol\":8306:8317  eachUser[i] */\n      dup2\n      mstore\n      0x20\n      add\n      swap1\n      dup2\n      mstore\n      0x20\n      add\n      0x00\n      keccak256\n      0x00\n      swap1\n      sload\n      swap1\n      0x0100\n      exp\n      swap1\n      div\n      0xffffffffffffffffffffffffffffffffffffffff\n      and\n        /* \"FacctoryContract/WagerContract.sol\":8297:8318  userInfo[eachUser[i]] */\n      0xffffffffffffffffffffffffffffffffffffffff\n      and\n      0xffffffffffffffffffffffffffffffffffffffff\n      and\n      dup2\n      mstore\n      0x20\n      add\n      swap1\n      dup2\n      mstore\n      0x20\n      add\n      0x00\n      keccak256\n        /* \"FacctoryContract/WagerContract.sol\":8297:8330  userInfo[eachUser[i]].noBetAmount */\n      0x01\n      add\n      sload\n        /* \"FacctoryContract/WagerContract.sol\":8356:8368  winningIndex */\n      dup5\n        /* \"FacctoryContract/WagerContract.sol\":8256:8271  calculateShares */\n      tag_88\n        /* \"FacctoryContract/WagerContract.sol\":8256:8390  calculateShares(... */\n      jump\t// in\n    tag_173:\n        /* \"FacctoryContract/WagerContract.sol\":8220:8228  userInfo */\n      0x05\n        /* \"FacctoryContract/WagerContract.sol\":8220:8241  userInfo[eachUser[i]] */\n      0x00\n        /* \"FacctoryContract/WagerContract.sol\":8229:8237  eachUser */\n      0x04\n        /* \"FacctoryContract/WagerContract.sol\":8229:8240  eachUser[i] */\n      0x00\n        /* \"FacctoryContract/WagerContract.sol\":8238:8239  i */\n      dup6\n        /* \"FacctoryContract/WagerContract.sol\":8229:8240  eachUser[i] */\n      dup2\n      mstore\n      0x20\n      add\n      swap1\n      dup2\n      mstore\n      0x20\n      add\n      0x00\n      keccak256\n      0x00\n      swap1\n      sload\n      swap1\n      0x0100\n      exp\n      swap1\n      div\n      0xffffffffffffffffffffffffffffffffffffffff\n      and\n        /* \"FacctoryContract/WagerContract.sol\":8220:8241  userInfo[eachUser[i]] */\n      0xffffffffffffffffffffffffffffffffffffffff\n      and\n      0xffffffffffffffffffffffffffffffffffffffff\n      and\n      dup2\n      mstore\n      0x20\n      add\n      swap1\n      dup2\n      mstore\n      0x20\n      add\n      0x00\n      keccak256\n        /* \"FacctoryContract/WagerContract.sol\":8220:8253  userInfo[eachUser[i]].shareAmount */\n      0x04\n      add\n        /* \"FacctoryContract/WagerContract.sol\":8220:8390  userInfo[eachUser[i]].shareAmount = calculateShares(... */\n      dup2\n      swap1\n      sstore\n      pop\n        /* \"FacctoryContract/WagerContract.sol\":8432:8440  userInfo */\n      0x05\n        /* \"FacctoryContract/WagerContract.sol\":8432:8453  userInfo[eachUser[i]] */\n      0x00\n        /* \"FacctoryContract/WagerContract.sol\":8441:8449  eachUser */\n      0x04\n        /* \"FacctoryContract/WagerContract.sol\":8441:8452  eachUser[i] */\n      0x00\n        /* \"FacctoryContract/WagerContract.sol\":8450:8451  i */\n      dup5\n        /* \"FacctoryContract/WagerContract.sol\":8441:8452  eachUser[i] */\n      dup2\n      mstore\n      0x20\n      add\n      swap1\n      dup2\n      mstore\n      0x20\n      add\n      0x00\n      keccak256\n      0x00\n      swap1\n      sload\n      swap1\n      0x0100\n      exp\n      swap1\n      div\n      0xffffffffffffffffffffffffffffffffffffffff\n      and\n        /* \"FacctoryContract/WagerContract.sol\":8432:8453  userInfo[eachUser[i]] */\n      0xffffffffffffffffffffffffffffffffffffffff\n      and\n      0xffffffffffffffffffffffffffffffffffffffff\n      and\n      dup2\n      mstore\n      0x20\n      add\n      swap1\n      dup2\n      mstore\n      0x20\n      add\n      0x00\n      keccak256\n        /* \"FacctoryContract/WagerContract.sol\":8432:8465  userInfo[eachUser[i]].shareAmount */\n      0x04\n      add\n      sload\n        /* \"FacctoryContract/WagerContract.sol\":8412:8465  totalWinnerShare += userInfo[eachUser[i]].shareAmount */\n      dup3\n      tag_174\n      swap2\n      swap1\n      tag_119\n      jump\t// in\n    tag_174:\n      swap2\n      pop\n        /* \"FacctoryContract/WagerContract.sol\":8114:8794  if(winningIndex == 0 && userInfo[eachUser[i]].noBetAmount != 0){... */\n      jump(tag_175)\n    tag_172:\n        /* \"FacctoryContract/WagerContract.sol\":8564:8699  calculateShares(... */\n      tag_176\n        /* \"FacctoryContract/WagerContract.sol\":8605:8613  userInfo */\n      0x05\n        /* \"FacctoryContract/WagerContract.sol\":8605:8626  userInfo[eachUser[i]] */\n      0x00\n        /* \"FacctoryContract/WagerContract.sol\":8614:8622  eachUser */\n      0x04\n        /* \"FacctoryContract/WagerContract.sol\":8614:8625  eachUser[i] */\n      0x00\n        /* \"FacctoryContract/WagerContract.sol\":8623:8624  i */\n      dup6\n        /* \"FacctoryContract/WagerContract.sol\":8614:8625  eachUser[i] */\n      dup2\n      mstore\n      0x20\n      add\n      swap1\n      dup2\n      mstore\n      0x20\n      add\n      0x00\n      keccak256\n      0x00\n      swap1\n      sload\n      swap1\n      0x0100\n      exp\n      swap1\n      div\n      0xffffffffffffffffffffffffffffffffffffffff\n      and\n        /* \"FacctoryContract/WagerContract.sol\":8605:8626  userInfo[eachUser[i]] */\n      0xffffffffffffffffffffffffffffffffffffffff\n      and\n      0xffffffffffffffffffffffffffffffffffffffff\n      and\n      dup2\n      mstore\n      0x20\n      add\n      swap1\n      dup2\n      mstore\n      0x20\n      add\n      0x00\n      keccak256\n        /* \"FacctoryContract/WagerContract.sol\":8605:8639  userInfo[eachUser[i]].yesBetAmount */\n      0x03\n      add\n      sload\n        /* \"FacctoryContract/WagerContract.sol\":8665:8677  winningIndex */\n      dup5\n        /* \"FacctoryContract/WagerContract.sol\":8564:8579  calculateShares */\n      tag_88\n        /* \"FacctoryContract/WagerContract.sol\":8564:8699  calculateShares(... */\n      jump\t// in\n    tag_176:\n        /* \"FacctoryContract/WagerContract.sol\":8528:8536  userInfo */\n      0x05\n        /* \"FacctoryContract/WagerContract.sol\":8528:8549  userInfo[eachUser[i]] */\n      0x00\n        /* \"FacctoryContract/WagerContract.sol\":8537:8545  eachUser */\n      0x04\n        /* \"FacctoryContract/WagerContract.sol\":8537:8548  eachUser[i] */\n      0x00\n        /* \"FacctoryContract/WagerContract.sol\":8546:8547  i */\n      dup6\n        /* \"FacctoryContract/WagerContract.sol\":8537:8548  eachUser[i] */\n      dup2\n      mstore\n      0x20\n      add\n      swap1\n      dup2\n      mstore\n      0x20\n      add\n      0x00\n      keccak256\n      0x00\n      swap1\n      sload\n      swap1\n      0x0100\n      exp\n      swap1\n      div\n      0xffffffffffffffffffffffffffffffffffffffff\n      and\n        /* \"FacctoryContract/WagerContract.sol\":8528:8549  userInfo[eachUser[i]] */\n      0xffffffffffffffffffffffffffffffffffffffff\n      and\n      0xffffffffffffffffffffffffffffffffffffffff\n      and\n      dup2\n      mstore\n      0x20\n      add\n      swap1\n      dup2\n      mstore\n      0x20\n      add\n      0x00\n      keccak256\n        /* \"FacctoryContract/WagerContract.sol\":8528:8561  userInfo[eachUser[i]].shareAmount */\n      0x04\n      add\n        /* \"FacctoryContract/WagerContract.sol\":8528:8699  userInfo[eachUser[i]].shareAmount = calculateShares(... */\n      dup2\n      swap1\n      sstore\n      pop\n        /* \"FacctoryContract/WagerContract.sol\":8742:8750  userInfo */\n      0x05\n        /* \"FacctoryContract/WagerContract.sol\":8742:8763  userInfo[eachUser[i]] */\n      0x00\n        /* \"FacctoryContract/WagerContract.sol\":8751:8759  eachUser */\n      0x04\n        /* \"FacctoryContract/WagerContract.sol\":8751:8762  eachUser[i] */\n      0x00\n        /* \"FacctoryContract/WagerContract.sol\":8760:8761  i */\n      dup5\n        /* \"FacctoryContract/WagerContract.sol\":8751:8762  eachUser[i] */\n      dup2\n      mstore\n      0x20\n      add\n      swap1\n      dup2\n      mstore\n      0x20\n      add\n      0x00\n      keccak256\n      0x00\n      swap1\n      sload\n      swap1\n      0x0100\n      exp\n      swap1\n      div\n      0xffffffffffffffffffffffffffffffffffffffff\n      and\n        /* \"FacctoryContract/WagerContract.sol\":8742:8763  userInfo[eachUser[i]] */\n      0xffffffffffffffffffffffffffffffffffffffff\n      and\n      0xffffffffffffffffffffffffffffffffffffffff\n      and\n      dup2\n      mstore\n      0x20\n      add\n      swap1\n      dup2\n      mstore\n      0x20\n      add\n      0x00\n      keccak256\n        /* \"FacctoryContract/WagerContract.sol\":8742:8775  userInfo[eachUser[i]].shareAmount */\n      0x04\n      add\n      sload\n        /* \"FacctoryContract/WagerContract.sol\":8722:8775  totalWinnerShare += userInfo[eachUser[i]].shareAmount */\n      dup3\n      tag_177\n      swap2\n      swap1\n      tag_119\n      jump\t// in\n    tag_177:\n      swap2\n      pop\n        /* \"FacctoryContract/WagerContract.sol\":8114:8794  if(winningIndex == 0 && userInfo[eachUser[i]].noBetAmount != 0){... */\n    tag_175:\n        /* \"FacctoryContract/WagerContract.sol\":8049:8809  if(userInfo[eachUser[i]].betOn[winningIndex]) {... */\n    tag_170:\n        /* \"FacctoryContract/WagerContract.sol\":8029:8032  i++ */\n      dup1\n      dup1\n      0x01\n      add\n      swap2\n      pop\n      pop\n        /* \"FacctoryContract/WagerContract.sol\":7994:8822  for(uint256 i = 0; i < totalUsers; i++){... */\n      jump(tag_167)\n    tag_168:\n      pop\n        /* \"FacctoryContract/WagerContract.sol\":8832:8849  uint256 _perShare */\n      0x00\n        /* \"FacctoryContract/WagerContract.sol\":8892:8908  totalWinnerShare */\n      dup2\n        /* \"FacctoryContract/WagerContract.sol\":8852:8862  marketInfo */\n      0x06\n        /* \"FacctoryContract/WagerContract.sol\":8852:8877  marketInfo[address(this)] */\n      0x00\n        /* \"FacctoryContract/WagerContract.sol\":8871:8875  this */\n      address\n        /* \"FacctoryContract/WagerContract.sol\":8852:8877  marketInfo[address(this)] */\n      0xffffffffffffffffffffffffffffffffffffffff\n      and\n      0xffffffffffffffffffffffffffffffffffffffff\n      and\n      dup2\n      mstore\n      0x20\n      add\n      swap1\n      dup2\n      mstore\n      0x20\n      add\n      0x00\n      keccak256\n        /* \"FacctoryContract/WagerContract.sol\":8852:8889  marketInfo[address(this)].totalAmount */\n      0x03\n      add\n      sload\n        /* \"FacctoryContract/WagerContract.sol\":8852:8908  marketInfo[address(this)].totalAmount / totalWinnerShare */\n      tag_178\n      swap2\n      swap1\n      tag_124\n      jump\t// in\n    tag_178:\n        /* \"FacctoryContract/WagerContract.sol\":8832:8908  uint256 _perShare = marketInfo[address(this)].totalAmount / totalWinnerShare */\n      swap1\n      pop\n        /* \"FacctoryContract/WagerContract.sol\":8918:8938  uint256 _ownerAmount */\n      0x00\n        /* \"FacctoryContract/WagerContract.sol\":8962:8971  uint256 i */\n      dup1\n        /* \"FacctoryContract/WagerContract.sol\":8974:8975  0 */\n      0x00\n        /* \"FacctoryContract/WagerContract.sol\":8962:8975  uint256 i = 0 */\n      swap1\n      pop\n        /* \"FacctoryContract/WagerContract.sol\":8957:9855  for (uint256 i = 0; i < totalUsers; i++) {... */\n    tag_179:\n        /* \"FacctoryContract/WagerContract.sol\":8981:8991  totalUsers */\n      sload(0x02)\n        /* \"FacctoryContract/WagerContract.sol\":8977:8978  i */\n      dup2\n        /* \"FacctoryContract/WagerContract.sol\":8977:8991  i < totalUsers */\n      lt\n        /* \"FacctoryContract/WagerContract.sol\":8957:9855  for (uint256 i = 0; i < totalUsers; i++) {... */\n      iszero\n      tag_180\n      jumpi\n        /* \"FacctoryContract/WagerContract.sol\":9028:9036  userInfo */\n      0x05\n        /* \"FacctoryContract/WagerContract.sol\":9028:9049  userInfo[eachUser[i]] */\n      0x00\n        /* \"FacctoryContract/WagerContract.sol\":9037:9045  eachUser */\n      0x04\n        /* \"FacctoryContract/WagerContract.sol\":9037:9048  eachUser[i] */\n      0x00\n        /* \"FacctoryContract/WagerContract.sol\":9046:9047  i */\n      dup5\n        /* \"FacctoryContract/WagerContract.sol\":9037:9048  eachUser[i] */\n      dup2\n      mstore\n      0x20\n      add\n      swap1\n      dup2\n      mstore\n      0x20\n      add\n      0x00\n      keccak256\n      0x00\n      swap1\n      sload\n      swap1\n      0x0100\n      exp\n      swap1\n      div\n      0xffffffffffffffffffffffffffffffffffffffff\n      and\n        /* \"FacctoryContract/WagerContract.sol\":9028:9049  userInfo[eachUser[i]] */\n      0xffffffffffffffffffffffffffffffffffffffff\n      and\n      0xffffffffffffffffffffffffffffffffffffffff\n      and\n      dup2\n      mstore\n      0x20\n      add\n      swap1\n      dup2\n      mstore\n      0x20\n      add\n      0x00\n      keccak256\n        /* \"FacctoryContract/WagerContract.sol\":9028:9055  userInfo[eachUser[i]].betOn */\n      0x05\n      add\n        /* \"FacctoryContract/WagerContract.sol\":9028:9069  userInfo[eachUser[i]].betOn[winningIndex] */\n      0x00\n        /* \"FacctoryContract/WagerContract.sol\":9056:9068  winningIndex */\n      dup7\n        /* \"FacctoryContract/WagerContract.sol\":9028:9069  userInfo[eachUser[i]].betOn[winningIndex] */\n      dup2\n      mstore\n      0x20\n      add\n      swap1\n      dup2\n      mstore\n      0x20\n      add\n      0x00\n      keccak256\n      0x00\n      swap1\n      sload\n      swap1\n      0x0100\n      exp\n      swap1\n      div\n      0xff\n      and\n        /* \"FacctoryContract/WagerContract.sol\":9025:9845  if(userInfo[eachUser[i]].betOn[winningIndex]) {... */\n      iszero\n      tag_182\n      jumpi\n        /* \"FacctoryContract/WagerContract.sol\":9090:9113  uint256 userTotalAmount */\n      0x00\n        /* \"FacctoryContract/WagerContract.sol\":9152:9161  _perShare */\n      dup4\n        /* \"FacctoryContract/WagerContract.sol\":9116:9124  userInfo */\n      0x05\n        /* \"FacctoryContract/WagerContract.sol\":9116:9137  userInfo[eachUser[i]] */\n      0x00\n        /* \"FacctoryContract/WagerContract.sol\":9125:9133  eachUser */\n      0x04\n        /* \"FacctoryContract/WagerContract.sol\":9125:9136  eachUser[i] */\n      0x00\n        /* \"FacctoryContract/WagerContract.sol\":9134:9135  i */\n      dup7\n        /* \"FacctoryContract/WagerContract.sol\":9125:9136  eachUser[i] */\n      dup2\n      mstore\n      0x20\n      add\n      swap1\n      dup2\n      mstore\n      0x20\n      add\n      0x00\n      keccak256\n      0x00\n      swap1\n      sload\n      swap1\n      0x0100\n      exp\n      swap1\n      div\n      0xffffffffffffffffffffffffffffffffffffffff\n      and\n        /* \"FacctoryContract/WagerContract.sol\":9116:9137  userInfo[eachUser[i]] */\n      0xffffffffffffffffffffffffffffffffffffffff\n      and\n      0xffffffffffffffffffffffffffffffffffffffff\n      and\n      dup2\n      mstore\n      0x20\n      add\n      swap1\n      dup2\n      mstore\n      0x20\n      add\n      0x00\n      keccak256\n        /* \"FacctoryContract/WagerContract.sol\":9116:9149  userInfo[eachUser[i]].shareAmount */\n      0x04\n      add\n      sload\n        /* \"FacctoryContract/WagerContract.sol\":9116:9161  userInfo[eachUser[i]].shareAmount * _perShare */\n      tag_183\n      swap2\n      swap1\n      tag_122\n      jump\t// in\n    tag_183:\n        /* \"FacctoryContract/WagerContract.sol\":9090:9161  uint256 userTotalAmount = userInfo[eachUser[i]].shareAmount * _perShare */\n      swap1\n      pop\n        /* \"FacctoryContract/WagerContract.sol\":9179:9209  uint256 userProfitAmountAmount */\n      0x00\n        /* \"FacctoryContract/WagerContract.sol\":9230:9238  userInfo */\n      0x05\n        /* \"FacctoryContract/WagerContract.sol\":9230:9251  userInfo[eachUser[i]] */\n      0x00\n        /* \"FacctoryContract/WagerContract.sol\":9239:9247  eachUser */\n      0x04\n        /* \"FacctoryContract/WagerContract.sol\":9239:9250  eachUser[i] */\n      0x00\n        /* \"FacctoryContract/WagerContract.sol\":9248:9249  i */\n      dup7\n        /* \"FacctoryContract/WagerContract.sol\":9239:9250  eachUser[i] */\n      dup2\n      mstore\n      0x20\n      add\n      swap1\n      dup2\n      mstore\n      0x20\n      add\n      0x00\n      keccak256\n      0x00\n      swap1\n      sload\n      swap1\n      0x0100\n      exp\n      swap1\n      div\n      0xffffffffffffffffffffffffffffffffffffffff\n      and\n        /* \"FacctoryContract/WagerContract.sol\":9230:9251  userInfo[eachUser[i]] */\n      0xffffffffffffffffffffffffffffffffffffffff\n      and\n      0xffffffffffffffffffffffffffffffffffffffff\n      and\n      dup2\n      mstore\n      0x20\n      add\n      swap1\n      dup2\n      mstore\n      0x20\n      add\n      0x00\n      keccak256\n        /* \"FacctoryContract/WagerContract.sol\":9230:9263  userInfo[eachUser[i]].shareAmount */\n      0x04\n      add\n      sload\n        /* \"FacctoryContract/WagerContract.sol\":9212:9227  userTotalAmount */\n      dup3\n        /* \"FacctoryContract/WagerContract.sol\":9212:9263  userTotalAmount - userInfo[eachUser[i]].shareAmount */\n      tag_184\n      swap2\n      swap1\n      tag_185\n      jump\t// in\n    tag_184:\n        /* \"FacctoryContract/WagerContract.sol\":9179:9263  uint256 userProfitAmountAmount = userTotalAmount - userInfo[eachUser[i]].shareAmount */\n      swap1\n      pop\n        /* \"FacctoryContract/WagerContract.sol\":9282:9306  uint256 tenPercentAmount */\n      0x00\n        /* \"FacctoryContract/WagerContract.sol\":9309:9369  calculatePercentage(userProfitAmountAmount,profitPercentage) */\n      tag_186\n        /* \"FacctoryContract/WagerContract.sol\":9329:9351  userProfitAmountAmount */\n      dup3\n        /* \"FacctoryContract/WagerContract.sol\":9352:9368  profitPercentage */\n      sload(0x03)\n        /* \"FacctoryContract/WagerContract.sol\":9309:9328  calculatePercentage */\n      tag_187\n        /* \"FacctoryContract/WagerContract.sol\":9309:9369  calculatePercentage(userProfitAmountAmount,profitPercentage) */\n      jump\t// in\n    tag_186:\n        /* \"FacctoryContract/WagerContract.sol\":9282:9369  uint256 tenPercentAmount = calculatePercentage(userProfitAmountAmount,profitPercentage) */\n      swap1\n      pop\n        /* \"FacctoryContract/WagerContract.sol\":9403:9419  tenPercentAmount */\n      dup1\n        /* \"FacctoryContract/WagerContract.sol\":9387:9419  _ownerAmount += tenPercentAmount */\n      dup6\n      tag_188\n      swap2\n      swap1\n      tag_119\n      jump\t// in\n    tag_188:\n      swap5\n      pop\n        /* \"FacctoryContract/WagerContract.sol\":9497:9513  tenPercentAmount */\n      dup1\n        /* \"FacctoryContract/WagerContract.sol\":9479:9494  userTotalAmount */\n      dup4\n        /* \"FacctoryContract/WagerContract.sol\":9479:9513  userTotalAmount - tenPercentAmount */\n      tag_189\n      swap2\n      swap1\n      tag_185\n      jump\t// in\n    tag_189:\n        /* \"FacctoryContract/WagerContract.sol\":9441:9450  usdcToken */\n      0x01\n      0x00\n      swap1\n      sload\n      swap1\n      0x0100\n      exp\n      swap1\n      div\n      0xffffffffffffffffffffffffffffffffffffffff\n      and\n        /* \"FacctoryContract/WagerContract.sol\":9441:9460  usdcToken.balanceOf */\n      0xffffffffffffffffffffffffffffffffffffffff\n      and\n      0x70a08231\n        /* \"FacctoryContract/WagerContract.sol\":9469:9473  this */\n      address\n        /* \"FacctoryContract/WagerContract.sol\":9441:9475  usdcToken.balanceOf(address(this)) */\n      mload(0x40)\n      dup3\n      0xffffffff\n      and\n      0xe0\n      shl\n      dup2\n      mstore\n      0x04\n      add\n      tag_190\n      swap2\n      swap1\n      tag_31\n      jump\t// in\n    tag_190:\n      0x20\n      mload(0x40)\n      dup1\n      dup4\n      sub\n      dup2\n      dup7\n      gas\n      staticcall\n      iszero\n      dup1\n      iszero\n      tag_192\n      jumpi\n      returndatasize\n      0x00\n      dup1\n      returndatacopy\n      revert(0x00, returndatasize)\n    tag_192:\n      pop\n      pop\n      pop\n      pop\n      mload(0x40)\n      returndatasize\n      not(0x1f)\n      0x1f\n      dup3\n      add\n      and\n      dup3\n      add\n      dup1\n      0x40\n      mstore\n      pop\n      dup2\n      add\n      swap1\n      tag_193\n      swap2\n      swap1\n      tag_194\n      jump\t// in\n    tag_193:\n        /* \"FacctoryContract/WagerContract.sol\":9441:9514  usdcToken.balanceOf(address(this)) < (userTotalAmount - tenPercentAmount) */\n      lt\n        /* \"FacctoryContract/WagerContract.sol\":9438:9617  if(usdcToken.balanceOf(address(this)) < (userTotalAmount - tenPercentAmount)){... */\n      iszero\n      tag_195\n      jumpi\n        /* \"FacctoryContract/WagerContract.sol\":9563:9572  usdcToken */\n      0x01\n      0x00\n      swap1\n      sload\n      swap1\n      0x0100\n      exp\n      swap1\n      div\n      0xffffffffffffffffffffffffffffffffffffffff\n      and\n        /* \"FacctoryContract/WagerContract.sol\":9563:9582  usdcToken.balanceOf */\n      0xffffffffffffffffffffffffffffffffffffffff\n      and\n      0x70a08231\n        /* \"FacctoryContract/WagerContract.sol\":9591:9595  this */\n      address\n        /* \"FacctoryContract/WagerContract.sol\":9563:9597  usdcToken.balanceOf(address(this)) */\n      mload(0x40)\n      dup3\n      0xffffffff\n      and\n      0xe0\n      shl\n      dup2\n      mstore\n      0x04\n      add\n      tag_196\n      swap2\n      swap1\n      tag_31\n      jump\t// in\n    tag_196:\n      0x20\n      mload(0x40)\n      dup1\n      dup4\n      sub\n      dup2\n      dup7\n      gas\n      staticcall\n      iszero\n      dup1\n      iszero\n      tag_198\n      jumpi\n      returndatasize\n      0x00\n      dup1\n      returndatacopy\n      revert(0x00, returndatasize)\n    tag_198:\n      pop\n      pop\n      pop\n      pop\n      mload(0x40)\n      returndatasize\n      not(0x1f)\n      0x1f\n      dup3\n      add\n      and\n      dup3\n      add\n      dup1\n      0x40\n      mstore\n      pop\n      dup2\n      add\n      swap1\n      tag_199\n      swap2\n      swap1\n      tag_194\n      jump\t// in\n    tag_199:\n        /* \"FacctoryContract/WagerContract.sol\":9544:9598  contractLowbalance(usdcToken.balanceOf(address(this))) */\n      mload(0x40)\n      0xf9ae0cb400000000000000000000000000000000000000000000000000000000\n      dup2\n      mstore\n      0x04\n      add\n      tag_200\n      swap2\n      swap1\n      tag_82\n      jump\t// in\n    tag_200:\n      mload(0x40)\n      dup1\n      swap2\n      sub\n      swap1\n      revert\n        /* \"FacctoryContract/WagerContract.sol\":9438:9617  if(usdcToken.balanceOf(address(this)) < (userTotalAmount - tenPercentAmount)){... */\n    tag_195:\n        /* \"FacctoryContract/WagerContract.sol\":9636:9648  bool success */\n      0x00\n        /* \"FacctoryContract/WagerContract.sol\":9651:9660  usdcToken */\n      0x01\n      0x00\n      swap1\n      sload\n      swap1\n      0x0100\n      exp\n      swap1\n      div\n      0xffffffffffffffffffffffffffffffffffffffff\n      and\n        /* \"FacctoryContract/WagerContract.sol\":9651:9669  usdcToken.transfer */\n      0xffffffffffffffffffffffffffffffffffffffff\n      and\n      0xa9059cbb\n        /* \"FacctoryContract/WagerContract.sol\":9691:9699  eachUser */\n      0x04\n        /* \"FacctoryContract/WagerContract.sol\":9691:9702  eachUser[i] */\n      0x00\n        /* \"FacctoryContract/WagerContract.sol\":9700:9701  i */\n      dup9\n        /* \"FacctoryContract/WagerContract.sol\":9691:9702  eachUser[i] */\n      dup2\n      mstore\n      0x20\n      add\n      swap1\n      dup2\n      mstore\n      0x20\n      add\n      0x00\n      keccak256\n      0x00\n      swap1\n      sload\n      swap1\n      0x0100\n      exp\n      swap1\n      div\n      0xffffffffffffffffffffffffffffffffffffffff\n      and\n        /* \"FacctoryContract/WagerContract.sol\":9742:9758  tenPercentAmount */\n      dup5\n        /* \"FacctoryContract/WagerContract.sol\":9724:9739  userTotalAmount */\n      dup8\n        /* \"FacctoryContract/WagerContract.sol\":9724:9758  userTotalAmount - tenPercentAmount */\n      tag_201\n      swap2\n      swap1\n      tag_185\n      jump\t// in\n    tag_201:\n        /* \"FacctoryContract/WagerContract.sol\":9651:9776  usdcToken.transfer(... */\n      mload(0x40)\n      dup4\n      0xffffffff\n      and\n      0xe0\n      shl\n      dup2\n      mstore\n      0x04\n      add\n      tag_202\n      swap3\n      swap2\n      swap1\n      tag_203\n      jump\t// in\n    tag_202:\n      0x20\n      mload(0x40)\n      dup1\n      dup4\n      sub\n      dup2\n      0x00\n      dup8\n      gas\n      call\n      iszero\n      dup1\n      iszero\n      tag_205\n      jumpi\n      returndatasize\n      0x00\n      dup1\n      returndatacopy\n      revert(0x00, returndatasize)\n    tag_205:\n      pop\n      pop\n      pop\n      pop\n      mload(0x40)\n      returndatasize\n      not(0x1f)\n      0x1f\n      dup3\n      add\n      and\n      dup3\n      add\n      dup1\n      0x40\n      mstore\n      pop\n      dup2\n      add\n      swap1\n      tag_206\n      swap2\n      swap1\n      tag_207\n      jump\t// in\n    tag_206:\n        /* \"FacctoryContract/WagerContract.sol\":9636:9776  bool success = usdcToken.transfer(... */\n      swap1\n      pop\n        /* \"FacctoryContract/WagerContract.sol\":9802:9809  success */\n      dup1\n        /* \"FacctoryContract/WagerContract.sol\":9794:9829  require(success, \"Transfer failed\") */\n      tag_208\n      jumpi\n      mload(0x40)\n      0x08c379a000000000000000000000000000000000000000000000000000000000\n      dup2\n      mstore\n      0x04\n      add\n      tag_209\n      swap1\n      tag_210\n      jump\t// in\n    tag_209:\n      mload(0x40)\n      dup1\n      swap2\n      sub\n      swap1\n      revert\n    tag_208:\n        /* \"FacctoryContract/WagerContract.sol\":9071:9845  {... */\n      pop\n      pop\n      pop\n      pop\n        /* \"FacctoryContract/WagerContract.sol\":9025:9845  if(userInfo[eachUser[i]].betOn[winningIndex]) {... */\n    tag_182:\n        /* \"FacctoryContract/WagerContract.sol\":8993:8996  i++ */\n      dup1\n      dup1\n      0x01\n      add\n      swap2\n      pop\n      pop\n        /* \"FacctoryContract/WagerContract.sol\":8957:9855  for (uint256 i = 0; i < totalUsers; i++) {... */\n      jump(tag_179)\n    tag_180:\n      pop\n        /* \"FacctoryContract/WagerContract.sol\":9905:9917  _ownerAmount */\n      dup1\n        /* \"FacctoryContract/WagerContract.sol\":9868:9877  usdcToken */\n      0x01\n      0x00\n      swap1\n      sload\n      swap1\n      0x0100\n      exp\n      swap1\n      div\n      0xffffffffffffffffffffffffffffffffffffffff\n      and\n        /* \"FacctoryContract/WagerContract.sol\":9868:9887  usdcToken.balanceOf */\n      0xffffffffffffffffffffffffffffffffffffffff\n      and\n      0x70a08231\n        /* \"FacctoryContract/WagerContract.sol\":9896:9900  this */\n      address\n        /* \"FacctoryContract/WagerContract.sol\":9868:9902  usdcToken.balanceOf(address(this)) */\n      mload(0x40)\n      dup3\n      0xffffffff\n      and\n      0xe0\n      shl\n      dup2\n      mstore\n      0x04\n      add\n      tag_211\n      swap2\n      swap1\n      tag_31\n      jump\t// in\n    tag_211:\n      0x20\n      mload(0x40)\n      dup1\n      dup4\n      sub\n      dup2\n      dup7\n      gas\n      staticcall\n      iszero\n      dup1\n      iszero\n      tag_213\n      jumpi\n      returndatasize\n      0x00\n      dup1\n      returndatacopy\n      revert(0x00, returndatasize)\n    tag_213:\n      pop\n      pop\n      pop\n      pop\n      mload(0x40)\n      returndatasize\n      not(0x1f)\n      0x1f\n      dup3\n      add\n      and\n      dup3\n      add\n      dup1\n      0x40\n      mstore\n      pop\n      dup2\n      add\n      swap1\n      tag_214\n      swap2\n      swap1\n      tag_194\n      jump\t// in\n    tag_214:\n        /* \"FacctoryContract/WagerContract.sol\":9868:9917  usdcToken.balanceOf(address(this)) < _ownerAmount */\n      lt\n        /* \"FacctoryContract/WagerContract.sol\":9865:10012  if(usdcToken.balanceOf(address(this)) < _ownerAmount){... */\n      iszero\n      tag_215\n      jumpi\n        /* \"FacctoryContract/WagerContract.sol\":9966:9975  usdcToken */\n      0x01\n      0x00\n      swap1\n      sload\n      swap1\n      0x0100\n      exp\n      swap1\n      div\n      0xffffffffffffffffffffffffffffffffffffffff\n      and\n        /* \"FacctoryContract/WagerContract.sol\":9966:9985  usdcToken.balanceOf */\n      0xffffffffffffffffffffffffffffffffffffffff\n      and\n      0x70a08231\n        /* \"FacctoryContract/WagerContract.sol\":9994:9998  this */\n      address\n        /* \"FacctoryContract/WagerContract.sol\":9966:10000  usdcToken.balanceOf(address(this)) */\n      mload(0x40)\n      dup3\n      0xffffffff\n      and\n      0xe0\n      shl\n      dup2\n      mstore\n      0x04\n      add\n      tag_216\n      swap2\n      swap1\n      tag_31\n      jump\t// in\n    tag_216:\n      0x20\n      mload(0x40)\n      dup1\n      dup4\n      sub\n      dup2\n      dup7\n      gas\n      staticcall\n      iszero\n      dup1\n      iszero\n      tag_218\n      jumpi\n      returndatasize\n      0x00\n      dup1\n      returndatacopy\n      revert(0x00, returndatasize)\n    tag_218:\n      pop\n      pop\n      pop\n      pop\n      mload(0x40)\n      returndatasize\n      not(0x1f)\n      0x1f\n      dup3\n      add\n      and\n      dup3\n      add\n      dup1\n      0x40\n      mstore\n      pop\n      dup2\n      add\n      swap1\n      tag_219\n      swap2\n      swap1\n      tag_194\n      jump\t// in\n    tag_219:\n        /* \"FacctoryContract/WagerContract.sol\":9939:10001  contractLowbalanceForOwner(usdcToken.balanceOf(address(this))) */\n      mload(0x40)\n      0xba9c3e4f00000000000000000000000000000000000000000000000000000000\n      dup2\n      mstore\n      0x04\n      add\n      tag_220\n      swap2\n      swap1\n      tag_82\n      jump\t// in\n    tag_220:\n      mload(0x40)\n      dup1\n      swap2\n      sub\n      swap1\n      revert\n        /* \"FacctoryContract/WagerContract.sol\":9865:10012  if(usdcToken.balanceOf(address(this)) < _ownerAmount){... */\n    tag_215:\n        /* \"FacctoryContract/WagerContract.sol\":10059:10063  true */\n      0x01\n        /* \"FacctoryContract/WagerContract.sol\":10022:10032  marketInfo */\n      0x06\n        /* \"FacctoryContract/WagerContract.sol\":10022:10047  marketInfo[address(this)] */\n      0x00\n        /* \"FacctoryContract/WagerContract.sol\":10041:10045  this */\n      address\n        /* \"FacctoryContract/WagerContract.sol\":10022:10047  marketInfo[address(this)] */\n      0xffffffffffffffffffffffffffffffffffffffff\n      and\n      0xffffffffffffffffffffffffffffffffffffffff\n      and\n      dup2\n      mstore\n      0x20\n      add\n      swap1\n      dup2\n      mstore\n      0x20\n      add\n      0x00\n      keccak256\n        /* \"FacctoryContract/WagerContract.sol\":10022:10056  marketInfo[address(this)].resolved */\n      0x00\n      add\n      0x00\n        /* \"FacctoryContract/WagerContract.sol\":10022:10063  marketInfo[address(this)].resolved = true */\n      0x0100\n      exp\n      dup2\n      sload\n      dup2\n      0xff\n      mul\n      not\n      and\n      swap1\n      dup4\n      iszero\n      iszero\n      mul\n      or\n      swap1\n      sstore\n      pop\n        /* \"FacctoryContract/WagerContract.sol\":10082:10095  bool success1 */\n      0x00\n        /* \"FacctoryContract/WagerContract.sol\":10098:10107  usdcToken */\n      0x01\n      0x00\n      swap1\n      sload\n      swap1\n      0x0100\n      exp\n      swap1\n      div\n      0xffffffffffffffffffffffffffffffffffffffff\n      and\n        /* \"FacctoryContract/WagerContract.sol\":10098:10116  usdcToken.transfer */\n      0xffffffffffffffffffffffffffffffffffffffff\n      and\n      0xa9059cbb\n        /* \"FacctoryContract/WagerContract.sol\":10117:10124  owner() */\n      tag_221\n        /* \"FacctoryContract/WagerContract.sol\":10117:10122  owner */\n      tag_84\n        /* \"FacctoryContract/WagerContract.sol\":10117:10124  owner() */\n      jump\t// in\n    tag_221:\n        /* \"FacctoryContract/WagerContract.sol\":10125:10137  _ownerAmount */\n      dup5\n        /* \"FacctoryContract/WagerContract.sol\":10098:10138  usdcToken.transfer(owner(),_ownerAmount) */\n      mload(0x40)\n      dup4\n      0xffffffff\n      and\n      0xe0\n      shl\n      dup2\n      mstore\n      0x04\n      add\n      tag_222\n      swap3\n      swap2\n      swap1\n      tag_203\n      jump\t// in\n    tag_222:\n      0x20\n      mload(0x40)\n      dup1\n      dup4\n      sub\n      dup2\n      0x00\n      dup8\n      gas\n      call\n      iszero\n      dup1\n      iszero\n      tag_224\n      jumpi\n      returndatasize\n      0x00\n      dup1\n      returndatacopy\n      revert(0x00, returndatasize)\n    tag_224:\n      pop\n      pop\n      pop\n      pop\n      mload(0x40)\n      returndatasize\n      not(0x1f)\n      0x1f\n      dup3\n      add\n      and\n      dup3\n      add\n      dup1\n      0x40\n      mstore\n      pop\n      dup2\n      add\n      swap1\n      tag_225\n      swap2\n      swap1\n      tag_207\n      jump\t// in\n    tag_225:\n        /* \"FacctoryContract/WagerContract.sol\":10082:10138  bool success1 = usdcToken.transfer(owner(),_ownerAmount) */\n      swap1\n      pop\n        /* \"FacctoryContract/WagerContract.sol\":10156:10164  success1 */\n      dup1\n        /* \"FacctoryContract/WagerContract.sol\":10148:10184  require(success1, \"Transfer failed\") */\n      tag_226\n      jumpi\n      mload(0x40)\n      0x08c379a000000000000000000000000000000000000000000000000000000000\n      dup2\n      mstore\n      0x04\n      add\n      tag_227\n      swap1\n      tag_210\n      jump\t// in\n    tag_227:\n      mload(0x40)\n      dup1\n      swap2\n      sub\n      swap1\n      revert\n    tag_226:\n        /* \"FacctoryContract/WagerContract.sol\":10200:10262  ResolveMarket( owner(), _ownerAmount, _perShare, winningIndex) */\n      0x4d21af759c8d2f25c6246594b4cfc2edeb2b901bc0c6e87f5e21c212a12ca1fd\n        /* \"FacctoryContract/WagerContract.sol\":10215:10222  owner() */\n      tag_228\n        /* \"FacctoryContract/WagerContract.sol\":10215:10220  owner */\n      tag_84\n        /* \"FacctoryContract/WagerContract.sol\":10215:10222  owner() */\n      jump\t// in\n    tag_228:\n        /* \"FacctoryContract/WagerContract.sol\":10224:10236  _ownerAmount */\n      dup4\n        /* \"FacctoryContract/WagerContract.sol\":10238:10247  _perShare */\n      dup6\n        /* \"FacctoryContract/WagerContract.sol\":10249:10261  winningIndex */\n      dup9\n        /* \"FacctoryContract/WagerContract.sol\":10200:10262  ResolveMarket( owner(), _ownerAmount, _perShare, winningIndex) */\n      mload(0x40)\n      tag_229\n      swap5\n      swap4\n      swap3\n      swap2\n      swap1\n      tag_230\n      jump\t// in\n    tag_229:\n      mload(0x40)\n      dup1\n      swap2\n      sub\n      swap1\n      log1\n        /* \"FacctoryContract/WagerContract.sol\":7572:10269  {... */\n      pop\n      pop\n      pop\n      pop\n        /* \"FacctoryContract/WagerContract.sol\":7516:10269  function resolveMarket(uint256 winningIndex) external   {... */\n      pop\n      jump\t// out\n        /* \"FacctoryContract/WagerContract.sol\":2438:3758  function bet(uint256 _amount, uint256 _betOn) external {... */\n    tag_75:\n        /* \"FacctoryContract/WagerContract.sol\":2517:2518  0 */\n      0x00\n        /* \"FacctoryContract/WagerContract.sol\":2507:2513  _betOn */\n      dup2\n        /* \"FacctoryContract/WagerContract.sol\":2507:2518  _betOn != 0 */\n      eq\n      iszero\n        /* \"FacctoryContract/WagerContract.sol\":2507:2533  _betOn != 0 && _betOn != 1 */\n      dup1\n      iszero\n      tag_232\n      jumpi\n      pop\n        /* \"FacctoryContract/WagerContract.sol\":2532:2533  1 */\n      0x01\n        /* \"FacctoryContract/WagerContract.sol\":2522:2528  _betOn */\n      dup2\n        /* \"FacctoryContract/WagerContract.sol\":2522:2533  _betOn != 1 */\n      eq\n      iszero\n        /* \"FacctoryContract/WagerContract.sol\":2507:2533  _betOn != 0 && _betOn != 1 */\n    tag_232:\n        /* \"FacctoryContract/WagerContract.sol\":2504:2587  if(_betOn != 0 && _betOn != 1){... */\n      iszero\n      tag_233\n      jumpi\n        /* \"FacctoryContract/WagerContract.sol\":2569:2575  _betOn */\n      dup1\n        /* \"FacctoryContract/WagerContract.sol\":2555:2576  wrongBetIndex(_betOn) */\n      mload(0x40)\n      0xd7acbe8900000000000000000000000000000000000000000000000000000000\n      dup2\n      mstore\n      0x04\n      add\n      tag_234\n      swap2\n      swap1\n      tag_82\n      jump\t// in\n    tag_234:\n      mload(0x40)\n      dup1\n      swap2\n      sub\n      swap1\n      revert\n        /* \"FacctoryContract/WagerContract.sol\":2504:2587  if(_betOn != 0 && _betOn != 1){... */\n    tag_233:\n        /* \"FacctoryContract/WagerContract.sol\":2610:2611  0 */\n      0x00\n        /* \"FacctoryContract/WagerContract.sol\":2599:2606  _amount */\n      dup3\n        /* \"FacctoryContract/WagerContract.sol\":2599:2611  _amount <= 0 */\n      gt\n        /* \"FacctoryContract/WagerContract.sol\":2596:2664  if(_amount <= 0){... */\n      tag_235\n      jumpi\n        /* \"FacctoryContract/WagerContract.sol\":2645:2652  _amount */\n      dup2\n        /* \"FacctoryContract/WagerContract.sol\":2633:2653  wrongAmount(_amount) */\n      mload(0x40)\n      0x2ff4783000000000000000000000000000000000000000000000000000000000\n      dup2\n      mstore\n      0x04\n      add\n      tag_236\n      swap2\n      swap1\n      tag_82\n      jump\t// in\n    tag_236:\n      mload(0x40)\n      dup1\n      swap2\n      sub\n      swap1\n      revert\n        /* \"FacctoryContract/WagerContract.sol\":2596:2664  if(_amount <= 0){... */\n    tag_235:\n        /* \"FacctoryContract/WagerContract.sol\":2685:2695  marketInfo */\n      0x06\n        /* \"FacctoryContract/WagerContract.sol\":2685:2710  marketInfo[address(this)] */\n      0x00\n        /* \"FacctoryContract/WagerContract.sol\":2704:2708  this */\n      address\n        /* \"FacctoryContract/WagerContract.sol\":2685:2710  marketInfo[address(this)] */\n      0xffffffffffffffffffffffffffffffffffffffff\n      and\n      0xffffffffffffffffffffffffffffffffffffffff\n      and\n      dup2\n      mstore\n      0x20\n      add\n      swap1\n      dup2\n      mstore\n      0x20\n      add\n      0x00\n      keccak256\n        /* \"FacctoryContract/WagerContract.sol\":2685:2719  marketInfo[address(this)].resolved */\n      0x00\n      add\n      0x00\n      swap1\n      sload\n      swap1\n      0x0100\n      exp\n      swap1\n      div\n      0xff\n      and\n        /* \"FacctoryContract/WagerContract.sol\":2682:2768  if(marketInfo[address(this)].resolved){... */\n      iszero\n      tag_237\n      jumpi\n        /* \"FacctoryContract/WagerContract.sol\":2741:2757  marketResolved() */\n      mload(0x40)\n      0x853fd42100000000000000000000000000000000000000000000000000000000\n      dup2\n      mstore\n      0x04\n      add\n      mload(0x40)\n      dup1\n      swap2\n      sub\n      swap1\n      revert\n        /* \"FacctoryContract/WagerContract.sol\":2682:2768  if(marketInfo[address(this)].resolved){... */\n    tag_237:\n        /* \"FacctoryContract/WagerContract.sol\":2791:2799  userInfo */\n      0x05\n        /* \"FacctoryContract/WagerContract.sol\":2791:2811  userInfo[msg.sender] */\n      0x00\n        /* \"FacctoryContract/WagerContract.sol\":2800:2810  msg.sender */\n      caller\n        /* \"FacctoryContract/WagerContract.sol\":2791:2811  userInfo[msg.sender] */\n      0xffffffffffffffffffffffffffffffffffffffff\n      and\n      0xffffffffffffffffffffffffffffffffffffffff\n      and\n      dup2\n      mstore\n      0x20\n      add\n      swap1\n      dup2\n      mstore\n      0x20\n      add\n      0x00\n      keccak256\n        /* \"FacctoryContract/WagerContract.sol\":2791:2817  userInfo[msg.sender].betOn */\n      0x05\n      add\n        /* \"FacctoryContract/WagerContract.sol\":2791:2825  userInfo[msg.sender].betOn[_betOn] */\n      0x00\n        /* \"FacctoryContract/WagerContract.sol\":2818:2824  _betOn */\n      dup3\n        /* \"FacctoryContract/WagerContract.sol\":2791:2825  userInfo[msg.sender].betOn[_betOn] */\n      dup2\n      mstore\n      0x20\n      add\n      swap1\n      dup2\n      mstore\n      0x20\n      add\n      0x00\n      keccak256\n      0x00\n      swap1\n      sload\n      swap1\n      0x0100\n      exp\n      swap1\n      div\n      0xff\n      and\n        /* \"FacctoryContract/WagerContract.sol\":2787:2915  if(!userInfo[msg.sender].betOn[_betOn]){     ... */\n      tag_238\n      jumpi\n        /* \"FacctoryContract/WagerContract.sol\":2868:2878  msg.sender */\n      caller\n        /* \"FacctoryContract/WagerContract.sol\":2845:2853  eachUser */\n      0x04\n        /* \"FacctoryContract/WagerContract.sol\":2845:2865  eachUser[totalUsers] */\n      0x00\n        /* \"FacctoryContract/WagerContract.sol\":2854:2864  totalUsers */\n      sload(0x02)\n        /* \"FacctoryContract/WagerContract.sol\":2845:2865  eachUser[totalUsers] */\n      dup2\n      mstore\n      0x20\n      add\n      swap1\n      dup2\n      mstore\n      0x20\n      add\n      0x00\n      keccak256\n      0x00\n        /* \"FacctoryContract/WagerContract.sol\":2845:2878  eachUser[totalUsers] = msg.sender */\n      0x0100\n      exp\n      dup2\n      sload\n      dup2\n      0xffffffffffffffffffffffffffffffffffffffff\n      mul\n      not\n      and\n      swap1\n      dup4\n      0xffffffffffffffffffffffffffffffffffffffff\n      and\n      mul\n      or\n      swap1\n      sstore\n      pop\n        /* \"FacctoryContract/WagerContract.sol\":2892:2902  totalUsers */\n      0x02\n      0x00\n        /* \"FacctoryContract/WagerContract.sol\":2892:2904  totalUsers++ */\n      dup2\n      sload\n      dup1\n      swap3\n      swap2\n      swap1\n      tag_239\n      swap1\n      tag_158\n      jump\t// in\n    tag_239:\n      swap2\n      swap1\n      pop\n      sstore\n      pop\n        /* \"FacctoryContract/WagerContract.sol\":2787:2915  if(!userInfo[msg.sender].betOn[_betOn]){     ... */\n    tag_238:\n        /* \"FacctoryContract/WagerContract.sol\":2938:2939  0 */\n      0x00\n        /* \"FacctoryContract/WagerContract.sol\":2928:2934  _betOn */\n      dup2\n        /* \"FacctoryContract/WagerContract.sol\":2928:2939  _betOn == 0 */\n      sub\n        /* \"FacctoryContract/WagerContract.sol\":2925:3199  if(_betOn == 0 ){... */\n      tag_240\n      jumpi\n        /* \"FacctoryContract/WagerContract.sol\":2956:2966  marketInfo */\n      0x06\n        /* \"FacctoryContract/WagerContract.sol\":2956:2981  marketInfo[address(this)] */\n      0x00\n        /* \"FacctoryContract/WagerContract.sol\":2975:2979  this */\n      address\n        /* \"FacctoryContract/WagerContract.sol\":2956:2981  marketInfo[address(this)] */\n      0xffffffffffffffffffffffffffffffffffffffff\n      and\n      0xffffffffffffffffffffffffffffffffffffffff\n      and\n      dup2\n      mstore\n      0x20\n      add\n      swap1\n      dup2\n      mstore\n      0x20\n      add\n      0x00\n      keccak256\n        /* \"FacctoryContract/WagerContract.sol\":2956:2995  marketInfo[address(this)].totalBetsOnNo */\n      0x07\n      add\n      0x00\n        /* \"FacctoryContract/WagerContract.sol\":2956:2997  marketInfo[address(this)].totalBetsOnNo++ */\n      dup2\n      sload\n      dup1\n      swap3\n      swap2\n      swap1\n      tag_241\n      swap1\n      tag_158\n      jump\t// in\n    tag_241:\n      swap2\n      swap1\n      pop\n      sstore\n      pop\n        /* \"FacctoryContract/WagerContract.sol\":3047:3054  _amount */\n      dup2\n        /* \"FacctoryContract/WagerContract.sol\":3011:3019  userInfo */\n      0x05\n        /* \"FacctoryContract/WagerContract.sol\":3011:3031  userInfo[msg.sender] */\n      0x00\n        /* \"FacctoryContract/WagerContract.sol\":3020:3030  msg.sender */\n      caller\n        /* \"FacctoryContract/WagerContract.sol\":3011:3031  userInfo[msg.sender] */\n      0xffffffffffffffffffffffffffffffffffffffff\n      and\n      0xffffffffffffffffffffffffffffffffffffffff\n      and\n      dup2\n      mstore\n      0x20\n      add\n      swap1\n      dup2\n      mstore\n      0x20\n      add\n      0x00\n      keccak256\n        /* \"FacctoryContract/WagerContract.sol\":3011:3043  userInfo[msg.sender].noBetAmount */\n      0x01\n      add\n      0x00\n        /* \"FacctoryContract/WagerContract.sol\":3011:3054  userInfo[msg.sender].noBetAmount += _amount */\n      dup3\n      dup3\n      sload\n      tag_242\n      swap2\n      swap1\n      tag_119\n      jump\t// in\n    tag_242:\n      swap3\n      pop\n      pop\n      dup2\n      swap1\n      sstore\n      pop\n        /* \"FacctoryContract/WagerContract.sol\":2925:3199  if(_betOn == 0 ){... */\n      jump(tag_243)\n    tag_240:\n        /* \"FacctoryContract/WagerContract.sol\":3086:3096  marketInfo */\n      0x06\n        /* \"FacctoryContract/WagerContract.sol\":3086:3111  marketInfo[address(this)] */\n      0x00\n        /* \"FacctoryContract/WagerContract.sol\":3105:3109  this */\n      address\n        /* \"FacctoryContract/WagerContract.sol\":3086:3111  marketInfo[address(this)] */\n      0xffffffffffffffffffffffffffffffffffffffff\n      and\n      0xffffffffffffffffffffffffffffffffffffffff\n      and\n      dup2\n      mstore\n      0x20\n      add\n      swap1\n      dup2\n      mstore\n      0x20\n      add\n      0x00\n      keccak256\n        /* \"FacctoryContract/WagerContract.sol\":3086:3126  marketInfo[address(this)].totalBetsOnYes */\n      0x06\n      add\n      0x00\n        /* \"FacctoryContract/WagerContract.sol\":3086:3128  marketInfo[address(this)].totalBetsOnYes++ */\n      dup2\n      sload\n      dup1\n      swap3\n      swap2\n      swap1\n      tag_244\n      swap1\n      tag_158\n      jump\t// in\n    tag_244:\n      swap2\n      swap1\n      pop\n      sstore\n      pop\n        /* \"FacctoryContract/WagerContract.sol\":3181:3188  _amount */\n      dup2\n        /* \"FacctoryContract/WagerContract.sol\":3144:3152  userInfo */\n      0x05\n        /* \"FacctoryContract/WagerContract.sol\":3144:3164  userInfo[msg.sender] */\n      0x00\n        /* \"FacctoryContract/WagerContract.sol\":3153:3163  msg.sender */\n      caller\n        /* \"FacctoryContract/WagerContract.sol\":3144:3164  userInfo[msg.sender] */\n      0xffffffffffffffffffffffffffffffffffffffff\n      and\n      0xffffffffffffffffffffffffffffffffffffffff\n      and\n      dup2\n      mstore\n      0x20\n      add\n      swap1\n      dup2\n      mstore\n      0x20\n      add\n      0x00\n      keccak256\n        /* \"FacctoryContract/WagerContract.sol\":3144:3177  userInfo[msg.sender].yesBetAmount */\n      0x03\n      add\n      0x00\n        /* \"FacctoryContract/WagerContract.sol\":3144:3188  userInfo[msg.sender].yesBetAmount += _amount */\n      dup3\n      dup3\n      sload\n      tag_245\n      swap2\n      swap1\n      tag_119\n      jump\t// in\n    tag_245:\n      swap3\n      pop\n      pop\n      dup2\n      swap1\n      sstore\n      pop\n        /* \"FacctoryContract/WagerContract.sol\":2925:3199  if(_betOn == 0 ){... */\n    tag_243:\n        /* \"FacctoryContract/WagerContract.sol\":3250:3257  _amount */\n      dup2\n        /* \"FacctoryContract/WagerContract.sol\":3209:3219  marketInfo */\n      0x06\n        /* \"FacctoryContract/WagerContract.sol\":3209:3234  marketInfo[address(this)] */\n      0x00\n        /* \"FacctoryContract/WagerContract.sol\":3228:3232  this */\n      address\n        /* \"FacctoryContract/WagerContract.sol\":3209:3234  marketInfo[address(this)] */\n      0xffffffffffffffffffffffffffffffffffffffff\n      and\n      0xffffffffffffffffffffffffffffffffffffffff\n      and\n      dup2\n      mstore\n      0x20\n      add\n      swap1\n      dup2\n      mstore\n      0x20\n      add\n      0x00\n      keccak256\n        /* \"FacctoryContract/WagerContract.sol\":3209:3246  marketInfo[address(this)].totalAmount */\n      0x03\n      add\n      0x00\n        /* \"FacctoryContract/WagerContract.sol\":3209:3257  marketInfo[address(this)].totalAmount += _amount */\n      dup3\n      dup3\n      sload\n      tag_246\n      swap2\n      swap1\n      tag_119\n      jump\t// in\n    tag_246:\n      swap3\n      pop\n      pop\n      dup2\n      swap1\n      sstore\n      pop\n        /* \"FacctoryContract/WagerContract.sol\":3267:3277  marketInfo */\n      0x06\n        /* \"FacctoryContract/WagerContract.sol\":3267:3292  marketInfo[address(this)] */\n      0x00\n        /* \"FacctoryContract/WagerContract.sol\":3286:3290  this */\n      address\n        /* \"FacctoryContract/WagerContract.sol\":3267:3292  marketInfo[address(this)] */\n      0xffffffffffffffffffffffffffffffffffffffff\n      and\n      0xffffffffffffffffffffffffffffffffffffffff\n      and\n      dup2\n      mstore\n      0x20\n      add\n      swap1\n      dup2\n      mstore\n      0x20\n      add\n      0x00\n      keccak256\n        /* \"FacctoryContract/WagerContract.sol\":3267:3302  marketInfo[address(this)].totalBets */\n      0x02\n      add\n      0x00\n        /* \"FacctoryContract/WagerContract.sol\":3267:3304  marketInfo[address(this)].totalBets++ */\n      dup2\n      sload\n      dup1\n      swap3\n      swap2\n      swap1\n      tag_247\n      swap1\n      tag_158\n      jump\t// in\n    tag_247:\n      swap2\n      swap1\n      pop\n      sstore\n      pop\n        /* \"FacctoryContract/WagerContract.sol\":3351:3355  true */\n      0x01\n        /* \"FacctoryContract/WagerContract.sol\":3314:3322  userInfo */\n      0x05\n        /* \"FacctoryContract/WagerContract.sol\":3314:3334  userInfo[msg.sender] */\n      0x00\n        /* \"FacctoryContract/WagerContract.sol\":3323:3333  msg.sender */\n      caller\n        /* \"FacctoryContract/WagerContract.sol\":3314:3334  userInfo[msg.sender] */\n      0xffffffffffffffffffffffffffffffffffffffff\n      and\n      0xffffffffffffffffffffffffffffffffffffffff\n      and\n      dup2\n      mstore\n      0x20\n      add\n      swap1\n      dup2\n      mstore\n      0x20\n      add\n      0x00\n      keccak256\n        /* \"FacctoryContract/WagerContract.sol\":3314:3340  userInfo[msg.sender].betOn */\n      0x05\n      add\n        /* \"FacctoryContract/WagerContract.sol\":3314:3348  userInfo[msg.sender].betOn[_betOn] */\n      0x00\n        /* \"FacctoryContract/WagerContract.sol\":3341:3347  _betOn */\n      dup4\n        /* \"FacctoryContract/WagerContract.sol\":3314:3348  userInfo[msg.sender].betOn[_betOn] */\n      dup2\n      mstore\n      0x20\n      add\n      swap1\n      dup2\n      mstore\n      0x20\n      add\n      0x00\n      keccak256\n      0x00\n        /* \"FacctoryContract/WagerContract.sol\":3314:3355  userInfo[msg.sender].betOn[_betOn] = true */\n      0x0100\n      exp\n      dup2\n      sload\n      dup2\n      0xff\n      mul\n      not\n      and\n      swap1\n      dup4\n      iszero\n      iszero\n      mul\n      or\n      swap1\n      sstore\n      pop\n        /* \"FacctoryContract/WagerContract.sol\":3468:3567  PriceCalculation(marketInfo[address(this)].totalBetsOnNo, marketInfo[address(this)].totalBetsOnYes) */\n      tag_248\n        /* \"FacctoryContract/WagerContract.sol\":3485:3495  marketInfo */\n      0x06\n        /* \"FacctoryContract/WagerContract.sol\":3485:3510  marketInfo[address(this)] */\n      0x00\n        /* \"FacctoryContract/WagerContract.sol\":3504:3508  this */\n      address\n        /* \"FacctoryContract/WagerContract.sol\":3485:3510  marketInfo[address(this)] */\n      0xffffffffffffffffffffffffffffffffffffffff\n      and\n      0xffffffffffffffffffffffffffffffffffffffff\n      and\n      dup2\n      mstore\n      0x20\n      add\n      swap1\n      dup2\n      mstore\n      0x20\n      add\n      0x00\n      keccak256\n        /* \"FacctoryContract/WagerContract.sol\":3485:3524  marketInfo[address(this)].totalBetsOnNo */\n      0x07\n      add\n      sload\n        /* \"FacctoryContract/WagerContract.sol\":3526:3536  marketInfo */\n      0x06\n        /* \"FacctoryContract/WagerContract.sol\":3526:3551  marketInfo[address(this)] */\n      0x00\n        /* \"FacctoryContract/WagerContract.sol\":3545:3549  this */\n      address\n        /* \"FacctoryContract/WagerContract.sol\":3526:3551  marketInfo[address(this)] */\n      0xffffffffffffffffffffffffffffffffffffffff\n      and\n      0xffffffffffffffffffffffffffffffffffffffff\n      and\n      dup2\n      mstore\n      0x20\n      add\n      swap1\n      dup2\n      mstore\n      0x20\n      add\n      0x00\n      keccak256\n        /* \"FacctoryContract/WagerContract.sol\":3526:3566  marketInfo[address(this)].totalBetsOnYes */\n      0x06\n      add\n      sload\n        /* \"FacctoryContract/WagerContract.sol\":3468:3484  PriceCalculation */\n      tag_55\n        /* \"FacctoryContract/WagerContract.sol\":3468:3567  PriceCalculation(marketInfo[address(this)].totalBetsOnNo, marketInfo[address(this)].totalBetsOnYes) */\n      jump\t// in\n    tag_248:\n        /* \"FacctoryContract/WagerContract.sol\":3368:3378  marketInfo */\n      0x06\n        /* \"FacctoryContract/WagerContract.sol\":3368:3393  marketInfo[address(this)] */\n      0x00\n        /* \"FacctoryContract/WagerContract.sol\":3387:3391  this */\n      address\n        /* \"FacctoryContract/WagerContract.sol\":3368:3393  marketInfo[address(this)] */\n      0xffffffffffffffffffffffffffffffffffffffff\n      and\n      0xffffffffffffffffffffffffffffffffffffffff\n      and\n      dup2\n      mstore\n      0x20\n      add\n      swap1\n      dup2\n      mstore\n      0x20\n      add\n      0x00\n      keccak256\n        /* \"FacctoryContract/WagerContract.sol\":3368:3406  marketInfo[address(this)].initialPrice */\n      0x04\n      add\n        /* \"FacctoryContract/WagerContract.sol\":3407:3408  0 */\n      0x00\n        /* \"FacctoryContract/WagerContract.sol\":3368:3409  marketInfo[address(this)].initialPrice[0] */\n      0x02\n      dup2\n      lt\n      tag_249\n      jumpi\n      tag_250\n      tag_112\n      jump\t// in\n    tag_250:\n    tag_249:\n      add\n      0x00\n        /* \"FacctoryContract/WagerContract.sol\":3410:3420  marketInfo */\n      0x06\n        /* \"FacctoryContract/WagerContract.sol\":3410:3435  marketInfo[address(this)] */\n      0x00\n        /* \"FacctoryContract/WagerContract.sol\":3429:3433  this */\n      address\n        /* \"FacctoryContract/WagerContract.sol\":3410:3435  marketInfo[address(this)] */\n      0xffffffffffffffffffffffffffffffffffffffff\n      and\n      0xffffffffffffffffffffffffffffffffffffffff\n      and\n      dup2\n      mstore\n      0x20\n      add\n      swap1\n      dup2\n      mstore\n      0x20\n      add\n      0x00\n      keccak256\n        /* \"FacctoryContract/WagerContract.sol\":3410:3448  marketInfo[address(this)].initialPrice */\n      0x04\n      add\n        /* \"FacctoryContract/WagerContract.sol\":3449:3450  1 */\n      0x01\n        /* \"FacctoryContract/WagerContract.sol\":3410:3451  marketInfo[address(this)].initialPrice[1] */\n      0x02\n      dup2\n      lt\n      tag_252\n      jumpi\n      tag_253\n      tag_112\n      jump\t// in\n    tag_253:\n    tag_252:\n      add\n      0x00\n        /* \"FacctoryContract/WagerContract.sol\":3367:3567  (marketInfo[address(this)].initialPrice[0],marketInfo[address(this)].initialPrice[1]) = ... */\n      dup5\n      swap2\n      swap1\n      pop\n      sstore\n      dup4\n      swap2\n      swap1\n      pop\n      sstore\n      pop\n      pop\n        /* \"FacctoryContract/WagerContract.sol\":3585:3597  bool success */\n      0x00\n        /* \"FacctoryContract/WagerContract.sol\":3600:3609  usdcToken */\n      0x01\n      0x00\n      swap1\n      sload\n      swap1\n      0x0100\n      exp\n      swap1\n      div\n      0xffffffffffffffffffffffffffffffffffffffff\n      and\n        /* \"FacctoryContract/WagerContract.sol\":3600:3622  usdcToken.transferFrom */\n      0xffffffffffffffffffffffffffffffffffffffff\n      and\n      0x23b872dd\n        /* \"FacctoryContract/WagerContract.sol\":3623:3633  msg.sender */\n      caller\n        /* \"FacctoryContract/WagerContract.sol\":3643:3647  this */\n      address\n        /* \"FacctoryContract/WagerContract.sol\":3650:3657  _amount */\n      dup7\n        /* \"FacctoryContract/WagerContract.sol\":3600:3658  usdcToken.transferFrom(msg.sender, address(this), _amount) */\n      mload(0x40)\n      dup5\n      0xffffffff\n      and\n      0xe0\n      shl\n      dup2\n      mstore\n      0x04\n      add\n      tag_255\n      swap4\n      swap3\n      swap2\n      swap1\n      tag_256\n      jump\t// in\n    tag_255:\n      0x20\n      mload(0x40)\n      dup1\n      dup4\n      sub\n      dup2\n      0x00\n      dup8\n      gas\n      call\n      iszero\n      dup1\n      iszero\n      tag_258\n      jumpi\n      returndatasize\n      0x00\n      dup1\n      returndatacopy\n      revert(0x00, returndatasize)\n    tag_258:\n      pop\n      pop\n      pop\n      pop\n      mload(0x40)\n      returndatasize\n      not(0x1f)\n      0x1f\n      dup3\n      add\n      and\n      dup3\n      add\n      dup1\n      0x40\n      mstore\n      pop\n      dup2\n      add\n      swap1\n      tag_259\n      swap2\n      swap1\n      tag_207\n      jump\t// in\n    tag_259:\n        /* \"FacctoryContract/WagerContract.sol\":3585:3658  bool success = usdcToken.transferFrom(msg.sender, address(this), _amount) */\n      swap1\n      pop\n        /* \"FacctoryContract/WagerContract.sol\":3676:3683  success */\n      dup1\n        /* \"FacctoryContract/WagerContract.sol\":3668:3703  require(success, \"Transfer failed\") */\n      tag_260\n      jumpi\n      mload(0x40)\n      0x08c379a000000000000000000000000000000000000000000000000000000000\n      dup2\n      mstore\n      0x04\n      add\n      tag_261\n      swap1\n      tag_210\n      jump\t// in\n    tag_261:\n      mload(0x40)\n      dup1\n      swap2\n      sub\n      swap1\n      revert\n    tag_260:\n        /* \"FacctoryContract/WagerContract.sol\":3735:3742  _amount */\n      dup3\n        /* \"FacctoryContract/WagerContract.sol\":3723:3733  msg.sender */\n      caller\n        /* \"FacctoryContract/WagerContract.sol\":3719:3751  Bet(msg.sender, _amount, _betOn) */\n      0xffffffffffffffffffffffffffffffffffffffff\n      and\n      0xf41b7910e085d0992d604fd470931728fd77cc8eb504d99e50e51a0a30fcfd1a\n        /* \"FacctoryContract/WagerContract.sol\":3744:3750  _betOn */\n      dup5\n        /* \"FacctoryContract/WagerContract.sol\":3719:3751  Bet(msg.sender, _amount, _betOn) */\n      mload(0x40)\n      tag_262\n      swap2\n      swap1\n      tag_82\n      jump\t// in\n    tag_262:\n      mload(0x40)\n      dup1\n      swap2\n      sub\n      swap1\n      log3\n        /* \"FacctoryContract/WagerContract.sol\":2493:3758  {... */\n      pop\n        /* \"FacctoryContract/WagerContract.sol\":2438:3758  function bet(uint256 _amount, uint256 _betOn) external {... */\n      pop\n      pop\n      jump\t// out\n        /* \"@openzeppelin/contracts/access/Ownable.sol\":2293:2394  function renounceOwnership() public virtual onlyOwner {... */\n    tag_77:\n        /* \"@openzeppelin/contracts/access/Ownable.sol\":1531:1544  _checkOwner() */\n      tag_264\n        /* \"@openzeppelin/contracts/access/Ownable.sol\":1531:1542  _checkOwner */\n      tag_265\n        /* \"@openzeppelin/contracts/access/Ownable.sol\":1531:1544  _checkOwner() */\n      jump\t// in\n    tag_264:\n        /* \"@openzeppelin/contracts/access/Ownable.sol\":2357:2387  _transferOwnership(address(0)) */\n      tag_267\n        /* \"@openzeppelin/contracts/access/Ownable.sol\":2384:2385  0 */\n      0x00\n        /* \"@openzeppelin/contracts/access/Ownable.sol\":2357:2375  _transferOwnership */\n      tag_268\n        /* \"@openzeppelin/contracts/access/Ownable.sol\":2357:2387  _transferOwnership(address(0)) */\n      jump\t// in\n    tag_267:\n        /* \"@openzeppelin/contracts/access/Ownable.sol\":2293:2394  function renounceOwnership() public virtual onlyOwner {... */\n      jump\t// out\n        /* \"FacctoryContract/WagerContract.sol\":11228:11536  function calculateInvestment(uint256 shares, uint256 _betOn) public view returns (uint256) {... */\n    tag_80:\n        /* \"FacctoryContract/WagerContract.sol\":11310:11317  uint256 */\n      0x00\n        /* \"FacctoryContract/WagerContract.sol\":11355:11356  0 */\n      dup1\n        /* \"FacctoryContract/WagerContract.sol\":11346:11352  shares */\n      dup4\n        /* \"FacctoryContract/WagerContract.sol\":11346:11356  shares > 0 */\n      gt\n        /* \"FacctoryContract/WagerContract.sol\":11338:11393  require(shares > 0, \"Shares must be greater than zero\") */\n      tag_270\n      jumpi\n      mload(0x40)\n      0x08c379a000000000000000000000000000000000000000000000000000000000\n      dup2\n      mstore\n      0x04\n      add\n      tag_271\n      swap1\n      tag_272\n      jump\t// in\n    tag_271:\n      mload(0x40)\n      dup1\n      swap2\n      sub\n      swap1\n      revert\n    tag_270:\n        /* \"FacctoryContract/WagerContract.sol\":11403:11424  uint256 amountInCents */\n      0x00\n        /* \"FacctoryContract/WagerContract.sol\":11487:11490  100 */\n      0x64\n        /* \"FacctoryContract/WagerContract.sol\":11437:11447  marketInfo */\n      0x06\n        /* \"FacctoryContract/WagerContract.sol\":11437:11462  marketInfo[address(this)] */\n      0x00\n        /* \"FacctoryContract/WagerContract.sol\":11456:11460  this */\n      address\n        /* \"FacctoryContract/WagerContract.sol\":11437:11462  marketInfo[address(this)] */\n      0xffffffffffffffffffffffffffffffffffffffff\n      and\n      0xffffffffffffffffffffffffffffffffffffffff\n      and\n      dup2\n      mstore\n      0x20\n      add\n      swap1\n      dup2\n      mstore\n      0x20\n      add\n      0x00\n      keccak256\n        /* \"FacctoryContract/WagerContract.sol\":11437:11475  marketInfo[address(this)].initialPrice */\n      0x04\n      add\n        /* \"FacctoryContract/WagerContract.sol\":11476:11482  _betOn */\n      dup5\n        /* \"FacctoryContract/WagerContract.sol\":11437:11483  marketInfo[address(this)].initialPrice[_betOn] */\n      0x02\n      dup2\n      lt\n      tag_273\n      jumpi\n      tag_274\n      tag_112\n      jump\t// in\n    tag_274:\n    tag_273:\n      add\n      sload\n        /* \"FacctoryContract/WagerContract.sol\":11428:11434  shares */\n      dup6\n        /* \"FacctoryContract/WagerContract.sol\":11428:11483  shares * marketInfo[address(this)].initialPrice[_betOn] */\n      tag_276\n      swap2\n      swap1\n      tag_122\n      jump\t// in\n    tag_276:\n        /* \"FacctoryContract/WagerContract.sol\":11427:11490  (shares * marketInfo[address(this)].initialPrice[_betOn]) / 100 */\n      tag_277\n      swap2\n      swap1\n      tag_124\n      jump\t// in\n    tag_277:\n        /* \"FacctoryContract/WagerContract.sol\":11403:11490  uint256 amountInCents = (shares * marketInfo[address(this)].initialPrice[_betOn]) / 100 */\n      swap1\n      pop\n        /* \"FacctoryContract/WagerContract.sol\":11516:11529  amountInCents */\n      dup1\n        /* \"FacctoryContract/WagerContract.sol\":11509:11529  return amountInCents */\n      swap2\n      pop\n      pop\n        /* \"FacctoryContract/WagerContract.sol\":11228:11536  function calculateInvestment(uint256 shares, uint256 _betOn) public view returns (uint256) {... */\n      swap3\n      swap2\n      pop\n      pop\n      jump\t// out\n        /* \"@openzeppelin/contracts/access/Ownable.sol\":1638:1723  function owner() public view virtual returns (address) {... */\n    tag_84:\n        /* \"@openzeppelin/contracts/access/Ownable.sol\":1684:1691  address */\n      0x00\n        /* \"@openzeppelin/contracts/access/Ownable.sol\":1710:1716  _owner */\n      dup1\n      0x00\n      swap1\n      sload\n      swap1\n      0x0100\n      exp\n      swap1\n      div\n      0xffffffffffffffffffffffffffffffffffffffff\n      and\n        /* \"@openzeppelin/contracts/access/Ownable.sol\":1703:1716  return _owner */\n      swap1\n      pop\n        /* \"@openzeppelin/contracts/access/Ownable.sol\":1638:1723  function owner() public view virtual returns (address) {... */\n      swap1\n      jump\t// out\n        /* \"FacctoryContract/WagerContract.sol\":10280:10587  function calculateShares(uint256 _amount, uint256 _betOn ) public view returns (uint256) {... */\n    tag_88:\n        /* \"FacctoryContract/WagerContract.sol\":10360:10367  uint256 */\n      0x00\n        /* \"FacctoryContract/WagerContract.sol\":10380:10393  uint256 price */\n      dup1\n        /* \"FacctoryContract/WagerContract.sol\":10397:10407  marketInfo */\n      0x06\n        /* \"FacctoryContract/WagerContract.sol\":10397:10422  marketInfo[address(this)] */\n      0x00\n        /* \"FacctoryContract/WagerContract.sol\":10416:10420  this */\n      address\n        /* \"FacctoryContract/WagerContract.sol\":10397:10422  marketInfo[address(this)] */\n      0xffffffffffffffffffffffffffffffffffffffff\n      and\n      0xffffffffffffffffffffffffffffffffffffffff\n      and\n      dup2\n      mstore\n      0x20\n      add\n      swap1\n      dup2\n      mstore\n      0x20\n      add\n      0x00\n      keccak256\n        /* \"FacctoryContract/WagerContract.sol\":10397:10435  marketInfo[address(this)].initialPrice */\n      0x04\n      add\n        /* \"FacctoryContract/WagerContract.sol\":10436:10442  _betOn */\n      dup4\n        /* \"FacctoryContract/WagerContract.sol\":10397:10443  marketInfo[address(this)].initialPrice[_betOn] */\n      0x02\n      dup2\n      lt\n      tag_280\n      jumpi\n      tag_281\n      tag_112\n      jump\t// in\n    tag_281:\n    tag_280:\n      add\n      sload\n        /* \"FacctoryContract/WagerContract.sol\":10380:10443  uint256 price =  marketInfo[address(this)].initialPrice[_betOn] */\n      swap1\n      pop\n        /* \"FacctoryContract/WagerContract.sol\":10479:10480  0 */\n      0x00\n        /* \"FacctoryContract/WagerContract.sol\":10470:10475  price */\n      dup2\n        /* \"FacctoryContract/WagerContract.sol\":10470:10480  price != 0 */\n      sub\n        /* \"FacctoryContract/WagerContract.sol\":10462:10506  require(price != 0, \"_price cannot be zero\") */\n      tag_283\n      jumpi\n      mload(0x40)\n      0x08c379a000000000000000000000000000000000000000000000000000000000\n      dup2\n      mstore\n      0x04\n      add\n      tag_284\n      swap1\n      tag_285\n      jump\t// in\n    tag_284:\n      mload(0x40)\n      dup1\n      swap2\n      sub\n      swap1\n      revert\n    tag_283:\n        /* \"FacctoryContract/WagerContract.sol\":10516:10530  uint256 result */\n      0x00\n        /* \"FacctoryContract/WagerContract.sol\":10543:10548  price */\n      dup2\n        /* \"FacctoryContract/WagerContract.sol\":10533:10540  _amount */\n      dup6\n        /* \"FacctoryContract/WagerContract.sol\":10533:10548  _amount / price */\n      tag_286\n      swap2\n      swap1\n      tag_124\n      jump\t// in\n    tag_286:\n        /* \"FacctoryContract/WagerContract.sol\":10516:10548  uint256 result = _amount / price */\n      swap1\n      pop\n        /* \"FacctoryContract/WagerContract.sol\":10574:10580  result */\n      dup1\n        /* \"FacctoryContract/WagerContract.sol\":10567:10580  return result */\n      swap3\n      pop\n      pop\n      pop\n        /* \"FacctoryContract/WagerContract.sol\":10280:10587  function calculateShares(uint256 _amount, uint256 _betOn ) public view returns (uint256) {... */\n      swap3\n      swap2\n      pop\n      pop\n      jump\t// out\n        /* \"FacctoryContract/WagerContract.sol\":915:946  uint256 public profitPercentage */\n    tag_91:\n      sload(0x03)\n      dup2\n      jump\t// out\n        /* \"FacctoryContract/WagerContract.sol\":884:909  uint256 public totalUsers */\n    tag_94:\n      sload(0x02)\n      dup2\n      jump\t// out\n        /* \"FacctoryContract/WagerContract.sol\":1052:1100  mapping(address => MarketInfo) public marketInfo */\n    tag_98:\n      mstore(0x20, 0x06)\n      dup1\n      0x00\n      mstore\n      keccak256(0x00, 0x40)\n      0x00\n      swap2\n      pop\n      swap1\n      pop\n      dup1\n      0x00\n      add\n      0x00\n      swap1\n      sload\n      swap1\n      0x0100\n      exp\n      swap1\n      div\n      0xff\n      and\n      swap1\n      dup1\n      0x01\n      add\n      sload\n      swap1\n      dup1\n      0x02\n      add\n      sload\n      swap1\n      dup1\n      0x03\n      add\n      sload\n      swap1\n      dup1\n      0x06\n      add\n      sload\n      swap1\n      dup1\n      0x07\n      add\n      sload\n      swap1\n      pop\n      dup7\n      jump\t// out\n        /* \"@openzeppelin/contracts/access/Ownable.sol\":2543:2758  function transferOwnership(address newOwner) public virtual onlyOwner {... */\n    tag_103:\n        /* \"@openzeppelin/contracts/access/Ownable.sol\":1531:1544  _checkOwner() */\n      tag_288\n        /* \"@openzeppelin/contracts/access/Ownable.sol\":1531:1542  _checkOwner */\n      tag_265\n        /* \"@openzeppelin/contracts/access/Ownable.sol\":1531:1544  _checkOwner() */\n      jump\t// in\n    tag_288:\n        /* \"@openzeppelin/contracts/access/Ownable.sol\":2647:2648  0 */\n      0x00\n        /* \"@openzeppelin/contracts/access/Ownable.sol\":2627:2649  newOwner == address(0) */\n      0xffffffffffffffffffffffffffffffffffffffff\n      and\n        /* \"@openzeppelin/contracts/access/Ownable.sol\":2627:2635  newOwner */\n      dup2\n        /* \"@openzeppelin/contracts/access/Ownable.sol\":2627:2649  newOwner == address(0) */\n      0xffffffffffffffffffffffffffffffffffffffff\n      and\n      sub\n        /* \"@openzeppelin/contracts/access/Ownable.sol\":2623:2714  if (newOwner == address(0)) {... */\n      tag_290\n      jumpi\n        /* \"@openzeppelin/contracts/access/Ownable.sol\":2700:2701  0 */\n      0x00\n        /* \"@openzeppelin/contracts/access/Ownable.sol\":2672:2703  OwnableInvalidOwner(address(0)) */\n      mload(0x40)\n      0x1e4fbdf700000000000000000000000000000000000000000000000000000000\n      dup2\n      mstore\n      0x04\n      add\n      tag_291\n      swap2\n      swap1\n      tag_31\n      jump\t// in\n    tag_291:\n      mload(0x40)\n      dup1\n      swap2\n      sub\n      swap1\n      revert\n        /* \"@openzeppelin/contracts/access/Ownable.sol\":2623:2714  if (newOwner == address(0)) {... */\n    tag_290:\n        /* \"@openzeppelin/contracts/access/Ownable.sol\":2723:2751  _transferOwnership(newOwner) */\n      tag_292\n        /* \"@openzeppelin/contracts/access/Ownable.sol\":2742:2750  newOwner */\n      dup2\n        /* \"@openzeppelin/contracts/access/Ownable.sol\":2723:2741  _transferOwnership */\n      tag_268\n        /* \"@openzeppelin/contracts/access/Ownable.sol\":2723:2751  _transferOwnership(newOwner) */\n      jump\t// in\n    tag_292:\n        /* \"@openzeppelin/contracts/access/Ownable.sol\":2543:2758  function transferOwnership(address newOwner) public virtual onlyOwner {... */\n      pop\n      jump\t// out\n        /* \"FacctoryContract/WagerContract.sol\":6031:7504  function buyShare(uint256 _listNo, address _owner) external {... */\n    tag_107:\n        /* \"FacctoryContract/WagerContract.sol\":6114:6122  sellInfo */\n      0x07\n        /* \"FacctoryContract/WagerContract.sol\":6114:6130  sellInfo[_owner] */\n      0x00\n        /* \"FacctoryContract/WagerContract.sol\":6123:6129  _owner */\n      dup3\n        /* \"FacctoryContract/WagerContract.sol\":6114:6130  sellInfo[_owner] */\n      0xffffffffffffffffffffffffffffffffffffffff\n      and\n      0xffffffffffffffffffffffffffffffffffffffff\n      and\n      dup2\n      mstore\n      0x20\n      add\n      swap1\n      dup2\n      mstore\n      0x20\n      add\n      0x00\n      keccak256\n        /* \"FacctoryContract/WagerContract.sol\":6114:6139  sellInfo[_owner][_listNo] */\n      0x00\n        /* \"FacctoryContract/WagerContract.sol\":6131:6138  _listNo */\n      dup4\n        /* \"FacctoryContract/WagerContract.sol\":6114:6139  sellInfo[_owner][_listNo] */\n      dup2\n      mstore\n      0x20\n      add\n      swap1\n      dup2\n      mstore\n      0x20\n      add\n      0x00\n      keccak256\n        /* \"FacctoryContract/WagerContract.sol\":6114:6144  sellInfo[_owner][_listNo].list */\n      0x00\n      add\n      0x00\n      swap1\n      sload\n      swap1\n      0x0100\n      exp\n      swap1\n      div\n      0xff\n      and\n        /* \"FacctoryContract/WagerContract.sol\":6110:6195  if(!sellInfo[_owner][_listNo].list){... */\n      tag_294\n      jumpi\n        /* \"FacctoryContract/WagerContract.sol\":6176:6183  _listNo */\n      dup2\n        /* \"FacctoryContract/WagerContract.sol\":6166:6184  notListed(_listNo) */\n      mload(0x40)\n      0x1599706800000000000000000000000000000000000000000000000000000000\n      dup2\n      mstore\n      0x04\n      add\n      tag_295\n      swap2\n      swap1\n      tag_82\n      jump\t// in\n    tag_295:\n      mload(0x40)\n      dup1\n      swap2\n      sub\n      swap1\n      revert\n        /* \"FacctoryContract/WagerContract.sol\":6110:6195  if(!sellInfo[_owner][_listNo].list){... */\n    tag_294:\n        /* \"FacctoryContract/WagerContract.sol\":6207:6215  sellInfo */\n      0x07\n        /* \"FacctoryContract/WagerContract.sol\":6207:6223  sellInfo[_owner] */\n      0x00\n        /* \"FacctoryContract/WagerContract.sol\":6216:6222  _owner */\n      dup3\n        /* \"FacctoryContract/WagerContract.sol\":6207:6223  sellInfo[_owner] */\n      0xffffffffffffffffffffffffffffffffffffffff\n      and\n      0xffffffffffffffffffffffffffffffffffffffff\n      and\n      dup2\n      mstore\n      0x20\n      add\n      swap1\n      dup2\n      mstore\n      0x20\n      add\n      0x00\n      keccak256\n        /* \"FacctoryContract/WagerContract.sol\":6207:6232  sellInfo[_owner][_listNo] */\n      0x00\n        /* \"FacctoryContract/WagerContract.sol\":6224:6231  _listNo */\n      dup4\n        /* \"FacctoryContract/WagerContract.sol\":6207:6232  sellInfo[_owner][_listNo] */\n      dup2\n      mstore\n      0x20\n      add\n      swap1\n      dup2\n      mstore\n      0x20\n      add\n      0x00\n      keccak256\n        /* \"FacctoryContract/WagerContract.sol\":6207:6237  sellInfo[_owner][_listNo].sold */\n      0x00\n      add\n      0x01\n      swap1\n      sload\n      swap1\n      0x0100\n      exp\n      swap1\n      div\n      0xff\n      and\n        /* \"FacctoryContract/WagerContract.sol\":6204:6313  if(sellInfo[_owner][_listNo].sold){... */\n      iszero\n      tag_296\n      jumpi\n        /* \"FacctoryContract/WagerContract.sol\":6271:6279  sellInfo */\n      0x07\n        /* \"FacctoryContract/WagerContract.sol\":6271:6287  sellInfo[_owner] */\n      0x00\n        /* \"FacctoryContract/WagerContract.sol\":6280:6286  _owner */\n      dup3\n        /* \"FacctoryContract/WagerContract.sol\":6271:6287  sellInfo[_owner] */\n      0xffffffffffffffffffffffffffffffffffffffff\n      and\n      0xffffffffffffffffffffffffffffffffffffffff\n      and\n      dup2\n      mstore\n      0x20\n      add\n      swap1\n      dup2\n      mstore\n      0x20\n      add\n      0x00\n      keccak256\n        /* \"FacctoryContract/WagerContract.sol\":6271:6296  sellInfo[_owner][_listNo] */\n      0x00\n        /* \"FacctoryContract/WagerContract.sol\":6288:6295  _listNo */\n      dup4\n        /* \"FacctoryContract/WagerContract.sol\":6271:6296  sellInfo[_owner][_listNo] */\n      dup2\n      mstore\n      0x20\n      add\n      swap1\n      dup2\n      mstore\n      0x20\n      add\n      0x00\n      keccak256\n        /* \"FacctoryContract/WagerContract.sol\":6271:6301  sellInfo[_owner][_listNo].sold */\n      0x00\n      add\n      0x01\n      swap1\n      sload\n      swap1\n      0x0100\n      exp\n      swap1\n      div\n      0xff\n      and\n        /* \"FacctoryContract/WagerContract.sol\":6259:6302  alreadySold(sellInfo[_owner][_listNo].sold) */\n      mload(0x40)\n      0xca1c6eb300000000000000000000000000000000000000000000000000000000\n      dup2\n      mstore\n      0x04\n      add\n      tag_297\n      swap2\n      swap1\n      tag_37\n      jump\t// in\n    tag_297:\n      mload(0x40)\n      dup1\n      swap2\n      sub\n      swap1\n      revert\n        /* \"FacctoryContract/WagerContract.sol\":6204:6313  if(sellInfo[_owner][_listNo].sold){... */\n    tag_296:\n        /* \"FacctoryContract/WagerContract.sol\":6334:6344  marketInfo */\n      0x06\n        /* \"FacctoryContract/WagerContract.sol\":6334:6359  marketInfo[address(this)] */\n      0x00\n        /* \"FacctoryContract/WagerContract.sol\":6353:6357  this */\n      address\n        /* \"FacctoryContract/WagerContract.sol\":6334:6359  marketInfo[address(this)] */\n      0xffffffffffffffffffffffffffffffffffffffff\n      and\n      0xffffffffffffffffffffffffffffffffffffffff\n      and\n      dup2\n      mstore\n      0x20\n      add\n      swap1\n      dup2\n      mstore\n      0x20\n      add\n      0x00\n      keccak256\n        /* \"FacctoryContract/WagerContract.sol\":6334:6368  marketInfo[address(this)].resolved */\n      0x00\n      add\n      0x00\n      swap1\n      sload\n      swap1\n      0x0100\n      exp\n      swap1\n      div\n      0xff\n      and\n        /* \"FacctoryContract/WagerContract.sol\":6331:6417  if(marketInfo[address(this)].resolved){... */\n      iszero\n      tag_298\n      jumpi\n        /* \"FacctoryContract/WagerContract.sol\":6390:6406  marketResolved() */\n      mload(0x40)\n      0x853fd42100000000000000000000000000000000000000000000000000000000\n      dup2\n      mstore\n      0x04\n      add\n      mload(0x40)\n      dup1\n      swap2\n      sub\n      swap1\n      revert\n        /* \"FacctoryContract/WagerContract.sol\":6331:6417  if(marketInfo[address(this)].resolved){... */\n    tag_298:\n        /* \"FacctoryContract/WagerContract.sol\":6465:6471  _owner */\n      dup1\n        /* \"FacctoryContract/WagerContract.sol\":6430:6471  sellInfo[_owner][_listNo].owner != _owner */\n      0xffffffffffffffffffffffffffffffffffffffff\n      and\n        /* \"FacctoryContract/WagerContract.sol\":6430:6438  sellInfo */\n      0x07\n        /* \"FacctoryContract/WagerContract.sol\":6430:6446  sellInfo[_owner] */\n      0x00\n        /* \"FacctoryContract/WagerContract.sol\":6439:6445  _owner */\n      dup4\n        /* \"FacctoryContract/WagerContract.sol\":6430:6446  sellInfo[_owner] */\n      0xffffffffffffffffffffffffffffffffffffffff\n      and\n      0xffffffffffffffffffffffffffffffffffffffff\n      and\n      dup2\n      mstore\n      0x20\n      add\n      swap1\n      dup2\n      mstore\n      0x20\n      add\n      0x00\n      keccak256\n        /* \"FacctoryContract/WagerContract.sol\":6430:6455  sellInfo[_owner][_listNo] */\n      0x00\n        /* \"FacctoryContract/WagerContract.sol\":6447:6454  _listNo */\n      dup5\n        /* \"FacctoryContract/WagerContract.sol\":6430:6455  sellInfo[_owner][_listNo] */\n      dup2\n      mstore\n      0x20\n      add\n      swap1\n      dup2\n      mstore\n      0x20\n      add\n      0x00\n      keccak256\n        /* \"FacctoryContract/WagerContract.sol\":6430:6461  sellInfo[_owner][_listNo].owner */\n      0x00\n      add\n      0x02\n      swap1\n      sload\n      swap1\n      0x0100\n      exp\n      swap1\n      div\n      0xffffffffffffffffffffffffffffffffffffffff\n      and\n        /* \"FacctoryContract/WagerContract.sol\":6430:6471  sellInfo[_owner][_listNo].owner != _owner */\n      0xffffffffffffffffffffffffffffffffffffffff\n      and\n      eq\n        /* \"FacctoryContract/WagerContract.sol\":6427:6522  if(sellInfo[_owner][_listNo].owner != _owner){... */\n      tag_299\n      jumpi\n        /* \"FacctoryContract/WagerContract.sol\":6504:6510  _owner */\n      dup1\n        /* \"FacctoryContract/WagerContract.sol\":6493:6511  wrongOwner(_owner) */\n      mload(0x40)\n      0xf6b79c5800000000000000000000000000000000000000000000000000000000\n      dup2\n      mstore\n      0x04\n      add\n      tag_300\n      swap2\n      swap1\n      tag_31\n      jump\t// in\n    tag_300:\n      mload(0x40)\n      dup1\n      swap2\n      sub\n      swap1\n      revert\n        /* \"FacctoryContract/WagerContract.sol\":6427:6522  if(sellInfo[_owner][_listNo].owner != _owner){... */\n    tag_299:\n        /* \"FacctoryContract/WagerContract.sol\":6565:6569  true */\n      0x01\n        /* \"FacctoryContract/WagerContract.sol\":6532:6540  sellInfo */\n      0x07\n        /* \"FacctoryContract/WagerContract.sol\":6532:6548  sellInfo[_owner] */\n      0x00\n        /* \"FacctoryContract/WagerContract.sol\":6541:6547  _owner */\n      dup4\n        /* \"FacctoryContract/WagerContract.sol\":6532:6548  sellInfo[_owner] */\n      0xffffffffffffffffffffffffffffffffffffffff\n      and\n      0xffffffffffffffffffffffffffffffffffffffff\n      and\n      dup2\n      mstore\n      0x20\n      add\n      swap1\n      dup2\n      mstore\n      0x20\n      add\n      0x00\n      keccak256\n        /* \"FacctoryContract/WagerContract.sol\":6532:6557  sellInfo[_owner][_listNo] */\n      0x00\n        /* \"FacctoryContract/WagerContract.sol\":6549:6556  _listNo */\n      dup5\n        /* \"FacctoryContract/WagerContract.sol\":6532:6557  sellInfo[_owner][_listNo] */\n      dup2\n      mstore\n      0x20\n      add\n      swap1\n      dup2\n      mstore\n      0x20\n      add\n      0x00\n      keccak256\n        /* \"FacctoryContract/WagerContract.sol\":6532:6562  sellInfo[_owner][_listNo].sold */\n      0x00\n      add\n      0x01\n        /* \"FacctoryContract/WagerContract.sol\":6532:6569  sellInfo[_owner][_listNo].sold = true */\n      0x0100\n      exp\n      dup2\n      sload\n      dup2\n      0xff\n      mul\n      not\n      and\n      swap1\n      dup4\n      iszero\n      iszero\n      mul\n      or\n      swap1\n      sstore\n      pop\n        /* \"FacctoryContract/WagerContract.sol\":6613:6623  msg.sender */\n      caller\n        /* \"FacctoryContract/WagerContract.sol\":6579:6587  sellInfo */\n      0x07\n        /* \"FacctoryContract/WagerContract.sol\":6579:6595  sellInfo[_owner] */\n      0x00\n        /* \"FacctoryContract/WagerContract.sol\":6588:6594  _owner */\n      dup4\n        /* \"FacctoryContract/WagerContract.sol\":6579:6595  sellInfo[_owner] */\n      0xffffffffffffffffffffffffffffffffffffffff\n      and\n      0xffffffffffffffffffffffffffffffffffffffff\n      and\n      dup2\n      mstore\n      0x20\n      add\n      swap1\n      dup2\n      mstore\n      0x20\n      add\n      0x00\n      keccak256\n        /* \"FacctoryContract/WagerContract.sol\":6579:6604  sellInfo[_owner][_listNo] */\n      0x00\n        /* \"FacctoryContract/WagerContract.sol\":6596:6603  _listNo */\n      dup5\n        /* \"FacctoryContract/WagerContract.sol\":6579:6604  sellInfo[_owner][_listNo] */\n      dup2\n      mstore\n      0x20\n      add\n      swap1\n      dup2\n      mstore\n      0x20\n      add\n      0x00\n      keccak256\n        /* \"FacctoryContract/WagerContract.sol\":6579:6610  sellInfo[_owner][_listNo].owner */\n      0x00\n      add\n      0x02\n        /* \"FacctoryContract/WagerContract.sol\":6579:6623  sellInfo[_owner][_listNo].owner = msg.sender */\n      0x0100\n      exp\n      dup2\n      sload\n      dup2\n      0xffffffffffffffffffffffffffffffffffffffff\n      mul\n      not\n      and\n      swap1\n      dup4\n      0xffffffffffffffffffffffffffffffffffffffff\n      and\n      mul\n      or\n      swap1\n      sstore\n      pop\n        /* \"FacctoryContract/WagerContract.sol\":6681:6682  0 */\n      0x00\n        /* \"FacctoryContract/WagerContract.sol\":6645:6653  sellInfo */\n      0x07\n        /* \"FacctoryContract/WagerContract.sol\":6645:6661  sellInfo[_owner] */\n      0x00\n        /* \"FacctoryContract/WagerContract.sol\":6654:6660  _owner */\n      dup4\n        /* \"FacctoryContract/WagerContract.sol\":6645:6661  sellInfo[_owner] */\n      0xffffffffffffffffffffffffffffffffffffffff\n      and\n      0xffffffffffffffffffffffffffffffffffffffff\n      and\n      dup2\n      mstore\n      0x20\n      add\n      swap1\n      dup2\n      mstore\n      0x20\n      add\n      0x00\n      keccak256\n        /* \"FacctoryContract/WagerContract.sol\":6645:6670  sellInfo[_owner][_listNo] */\n      0x00\n        /* \"FacctoryContract/WagerContract.sol\":6662:6669  _listNo */\n      dup5\n        /* \"FacctoryContract/WagerContract.sol\":6645:6670  sellInfo[_owner][_listNo] */\n      dup2\n      mstore\n      0x20\n      add\n      swap1\n      dup2\n      mstore\n      0x20\n      add\n      0x00\n      keccak256\n        /* \"FacctoryContract/WagerContract.sol\":6645:6677  sellInfo[_owner][_listNo].listOn */\n      0x03\n      add\n      sload\n        /* \"FacctoryContract/WagerContract.sol\":6645:6682  sellInfo[_owner][_listNo].listOn == 0 */\n      sub\n        /* \"FacctoryContract/WagerContract.sol\":6642:7045  if(sellInfo[_owner][_listNo].listOn == 0){... */\n      tag_301\n      jumpi\n        /* \"FacctoryContract/WagerContract.sol\":6746:6754  sellInfo */\n      0x07\n        /* \"FacctoryContract/WagerContract.sol\":6746:6762  sellInfo[_owner] */\n      0x00\n        /* \"FacctoryContract/WagerContract.sol\":6755:6761  _owner */\n      dup3\n        /* \"FacctoryContract/WagerContract.sol\":6746:6762  sellInfo[_owner] */\n      0xffffffffffffffffffffffffffffffffffffffff\n      and\n      0xffffffffffffffffffffffffffffffffffffffff\n      and\n      dup2\n      mstore\n      0x20\n      add\n      swap1\n      dup2\n      mstore\n      0x20\n      add\n      0x00\n      keccak256\n        /* \"FacctoryContract/WagerContract.sol\":6746:6771  sellInfo[_owner][_listNo] */\n      0x00\n        /* \"FacctoryContract/WagerContract.sol\":6763:6770  _listNo */\n      dup4\n        /* \"FacctoryContract/WagerContract.sol\":6746:6771  sellInfo[_owner][_listNo] */\n      dup2\n      mstore\n      0x20\n      add\n      swap1\n      dup2\n      mstore\n      0x20\n      add\n      0x00\n      keccak256\n        /* \"FacctoryContract/WagerContract.sol\":6746:6778  sellInfo[_owner][_listNo].amount */\n      0x02\n      add\n      sload\n        /* \"FacctoryContract/WagerContract.sol\":6710:6718  userInfo */\n      0x05\n        /* \"FacctoryContract/WagerContract.sol\":6710:6730  userInfo[msg.sender] */\n      0x00\n        /* \"FacctoryContract/WagerContract.sol\":6719:6729  msg.sender */\n      caller\n        /* \"FacctoryContract/WagerContract.sol\":6710:6730  userInfo[msg.sender] */\n      0xffffffffffffffffffffffffffffffffffffffff\n      and\n      0xffffffffffffffffffffffffffffffffffffffff\n      and\n      dup2\n      mstore\n      0x20\n      add\n      swap1\n      dup2\n      mstore\n      0x20\n      add\n      0x00\n      keccak256\n        /* \"FacctoryContract/WagerContract.sol\":6710:6742  userInfo[msg.sender].noBetAmount */\n      0x01\n      add\n      0x00\n        /* \"FacctoryContract/WagerContract.sol\":6710:6778  userInfo[msg.sender].noBetAmount += sellInfo[_owner][_listNo].amount */\n      dup3\n      dup3\n      sload\n      tag_302\n      swap2\n      swap1\n      tag_119\n      jump\t// in\n    tag_302:\n      swap3\n      pop\n      pop\n      dup2\n      swap1\n      sstore\n      pop\n        /* \"FacctoryContract/WagerContract.sol\":6824:6832  sellInfo */\n      0x07\n        /* \"FacctoryContract/WagerContract.sol\":6824:6840  sellInfo[_owner] */\n      0x00\n        /* \"FacctoryContract/WagerContract.sol\":6833:6839  _owner */\n      dup3\n        /* \"FacctoryContract/WagerContract.sol\":6824:6840  sellInfo[_owner] */\n      0xffffffffffffffffffffffffffffffffffffffff\n      and\n      0xffffffffffffffffffffffffffffffffffffffff\n      and\n      dup2\n      mstore\n      0x20\n      add\n      swap1\n      dup2\n      mstore\n      0x20\n      add\n      0x00\n      keccak256\n        /* \"FacctoryContract/WagerContract.sol\":6824:6849  sellInfo[_owner][_listNo] */\n      0x00\n        /* \"FacctoryContract/WagerContract.sol\":6841:6848  _listNo */\n      dup4\n        /* \"FacctoryContract/WagerContract.sol\":6824:6849  sellInfo[_owner][_listNo] */\n      dup2\n      mstore\n      0x20\n      add\n      swap1\n      dup2\n      mstore\n      0x20\n      add\n      0x00\n      keccak256\n        /* \"FacctoryContract/WagerContract.sol\":6824:6856  sellInfo[_owner][_listNo].amount */\n      0x02\n      add\n      sload\n        /* \"FacctoryContract/WagerContract.sol\":6792:6800  userInfo */\n      0x05\n        /* \"FacctoryContract/WagerContract.sol\":6792:6808  userInfo[_owner] */\n      0x00\n        /* \"FacctoryContract/WagerContract.sol\":6801:6807  _owner */\n      dup4\n        /* \"FacctoryContract/WagerContract.sol\":6792:6808  userInfo[_owner] */\n      0xffffffffffffffffffffffffffffffffffffffff\n      and\n      0xffffffffffffffffffffffffffffffffffffffff\n      and\n      dup2\n      mstore\n      0x20\n      add\n      swap1\n      dup2\n      mstore\n      0x20\n      add\n      0x00\n      keccak256\n        /* \"FacctoryContract/WagerContract.sol\":6792:6820  userInfo[_owner].noBetAmount */\n      0x01\n      add\n      0x00\n        /* \"FacctoryContract/WagerContract.sol\":6792:6856  userInfo[_owner].noBetAmount -= sellInfo[_owner][_listNo].amount */\n      dup3\n      dup3\n      sload\n      tag_303\n      swap2\n      swap1\n      tag_185\n      jump\t// in\n    tag_303:\n      swap3\n      pop\n      pop\n      dup2\n      swap1\n      sstore\n      pop\n        /* \"FacctoryContract/WagerContract.sol\":6642:7045  if(sellInfo[_owner][_listNo].listOn == 0){... */\n      jump(tag_304)\n    tag_301:\n        /* \"FacctoryContract/WagerContract.sol\":6919:6927  sellInfo */\n      0x07\n        /* \"FacctoryContract/WagerContract.sol\":6919:6935  sellInfo[_owner] */\n      0x00\n        /* \"FacctoryContract/WagerContract.sol\":6928:6934  _owner */\n      dup3\n        /* \"FacctoryContract/WagerContract.sol\":6919:6935  sellInfo[_owner] */\n      0xffffffffffffffffffffffffffffffffffffffff\n      and\n      0xffffffffffffffffffffffffffffffffffffffff\n      and\n      dup2\n      mstore\n      0x20\n      add\n      swap1\n      dup2\n      mstore\n      0x20\n      add\n      0x00\n      keccak256\n        /* \"FacctoryContract/WagerContract.sol\":6919:6944  sellInfo[_owner][_listNo] */\n      0x00\n        /* \"FacctoryContract/WagerContract.sol\":6936:6943  _listNo */\n      dup4\n        /* \"FacctoryContract/WagerContract.sol\":6919:6944  sellInfo[_owner][_listNo] */\n      dup2\n      mstore\n      0x20\n      add\n      swap1\n      dup2\n      mstore\n      0x20\n      add\n      0x00\n      keccak256\n        /* \"FacctoryContract/WagerContract.sol\":6919:6951  sellInfo[_owner][_listNo].amount */\n      0x02\n      add\n      sload\n        /* \"FacctoryContract/WagerContract.sol\":6886:6894  userInfo */\n      0x05\n        /* \"FacctoryContract/WagerContract.sol\":6886:6902  userInfo[_owner] */\n      0x00\n        /* \"FacctoryContract/WagerContract.sol\":6895:6901  _owner */\n      dup4\n        /* \"FacctoryContract/WagerContract.sol\":6886:6902  userInfo[_owner] */\n      0xffffffffffffffffffffffffffffffffffffffff\n      and\n      0xffffffffffffffffffffffffffffffffffffffff\n      and\n      dup2\n      mstore\n      0x20\n      add\n      swap1\n      dup2\n      mstore\n      0x20\n      add\n      0x00\n      keccak256\n        /* \"FacctoryContract/WagerContract.sol\":6886:6915  userInfo[_owner].yesBetAmount */\n      0x03\n      add\n      0x00\n        /* \"FacctoryContract/WagerContract.sol\":6886:6951  userInfo[_owner].yesBetAmount -= sellInfo[_owner][_listNo].amount */\n      dup3\n      dup3\n      sload\n      tag_305\n      swap2\n      swap1\n      tag_185\n      jump\t// in\n    tag_305:\n      swap3\n      pop\n      pop\n      dup2\n      swap1\n      sstore\n      pop\n        /* \"FacctoryContract/WagerContract.sol\":7002:7010  sellInfo */\n      0x07\n        /* \"FacctoryContract/WagerContract.sol\":7002:7018  sellInfo[_owner] */\n      0x00\n        /* \"FacctoryContract/WagerContract.sol\":7011:7017  _owner */\n      dup3\n        /* \"FacctoryContract/WagerContract.sol\":7002:7018  sellInfo[_owner] */\n      0xffffffffffffffffffffffffffffffffffffffff\n      and\n      0xffffffffffffffffffffffffffffffffffffffff\n      and\n      dup2\n      mstore\n      0x20\n      add\n      swap1\n      dup2\n      mstore\n      0x20\n      add\n      0x00\n      keccak256\n        /* \"FacctoryContract/WagerContract.sol\":7002:7027  sellInfo[_owner][_listNo] */\n      0x00\n        /* \"FacctoryContract/WagerContract.sol\":7019:7026  _listNo */\n      dup4\n        /* \"FacctoryContract/WagerContract.sol\":7002:7027  sellInfo[_owner][_listNo] */\n      dup2\n      mstore\n      0x20\n      add\n      swap1\n      dup2\n      mstore\n      0x20\n      add\n      0x00\n      keccak256\n        /* \"FacctoryContract/WagerContract.sol\":7002:7034  sellInfo[_owner][_listNo].amount */\n      0x02\n      add\n      sload\n        /* \"FacctoryContract/WagerContract.sol\":6965:6973  userInfo */\n      0x05\n        /* \"FacctoryContract/WagerContract.sol\":6965:6985  userInfo[msg.sender] */\n      0x00\n        /* \"FacctoryContract/WagerContract.sol\":6974:6984  msg.sender */\n      caller\n        /* \"FacctoryContract/WagerContract.sol\":6965:6985  userInfo[msg.sender] */\n      0xffffffffffffffffffffffffffffffffffffffff\n      and\n      0xffffffffffffffffffffffffffffffffffffffff\n      and\n      dup2\n      mstore\n      0x20\n      add\n      swap1\n      dup2\n      mstore\n      0x20\n      add\n      0x00\n      keccak256\n        /* \"FacctoryContract/WagerContract.sol\":6965:6998  userInfo[msg.sender].yesBetAmount */\n      0x03\n      add\n      0x00\n        /* \"FacctoryContract/WagerContract.sol\":6965:7034  userInfo[msg.sender].yesBetAmount += sellInfo[_owner][_listNo].amount */\n      dup3\n      dup3\n      sload\n      tag_306\n      swap2\n      swap1\n      tag_119\n      jump\t// in\n    tag_306:\n      swap3\n      pop\n      pop\n      dup2\n      swap1\n      sstore\n      pop\n        /* \"FacctoryContract/WagerContract.sol\":6642:7045  if(sellInfo[_owner][_listNo].listOn == 0){... */\n    tag_304:\n        /* \"FacctoryContract/WagerContract.sol\":7126:7130  true */\n      0x01\n        /* \"FacctoryContract/WagerContract.sol\":7063:7071  userInfo */\n      0x05\n        /* \"FacctoryContract/WagerContract.sol\":7063:7083  userInfo[msg.sender] */\n      0x00\n        /* \"FacctoryContract/WagerContract.sol\":7072:7082  msg.sender */\n      caller\n        /* \"FacctoryContract/WagerContract.sol\":7063:7083  userInfo[msg.sender] */\n      0xffffffffffffffffffffffffffffffffffffffff\n      and\n      0xffffffffffffffffffffffffffffffffffffffff\n      and\n      dup2\n      mstore\n      0x20\n      add\n      swap1\n      dup2\n      mstore\n      0x20\n      add\n      0x00\n      keccak256\n        /* \"FacctoryContract/WagerContract.sol\":7063:7089  userInfo[msg.sender].betOn */\n      0x05\n      add\n        /* \"FacctoryContract/WagerContract.sol\":7063:7123  userInfo[msg.sender].betOn[sellInfo[_owner][_listNo].listOn] */\n      0x00\n        /* \"FacctoryContract/WagerContract.sol\":7090:7098  sellInfo */\n      0x07\n        /* \"FacctoryContract/WagerContract.sol\":7090:7106  sellInfo[_owner] */\n      0x00\n        /* \"FacctoryContract/WagerContract.sol\":7099:7105  _owner */\n      dup6\n        /* \"FacctoryContract/WagerContract.sol\":7090:7106  sellInfo[_owner] */\n      0xffffffffffffffffffffffffffffffffffffffff\n      and\n      0xffffffffffffffffffffffffffffffffffffffff\n      and\n      dup2\n      mstore\n      0x20\n      add\n      swap1\n      dup2\n      mstore\n      0x20\n      add\n      0x00\n      keccak256\n        /* \"FacctoryContract/WagerContract.sol\":7090:7115  sellInfo[_owner][_listNo] */\n      0x00\n        /* \"FacctoryContract/WagerContract.sol\":7107:7114  _listNo */\n      dup7\n        /* \"FacctoryContract/WagerContract.sol\":7090:7115  sellInfo[_owner][_listNo] */\n      dup2\n      mstore\n      0x20\n      add\n      swap1\n      dup2\n      mstore\n      0x20\n      add\n      0x00\n      keccak256\n        /* \"FacctoryContract/WagerContract.sol\":7090:7122  sellInfo[_owner][_listNo].listOn */\n      0x03\n      add\n      sload\n        /* \"FacctoryContract/WagerContract.sol\":7063:7123  userInfo[msg.sender].betOn[sellInfo[_owner][_listNo].listOn] */\n      dup2\n      mstore\n      0x20\n      add\n      swap1\n      dup2\n      mstore\n      0x20\n      add\n      0x00\n      keccak256\n      0x00\n        /* \"FacctoryContract/WagerContract.sol\":7063:7130  userInfo[msg.sender].betOn[sellInfo[_owner][_listNo].listOn] = true */\n      0x0100\n      exp\n      dup2\n      sload\n      dup2\n      0xff\n      mul\n      not\n      and\n      swap1\n      dup4\n      iszero\n      iszero\n      mul\n      or\n      swap1\n      sstore\n      pop\n        /* \"FacctoryContract/WagerContract.sol\":7163:7173  msg.sender */\n      caller\n        /* \"FacctoryContract/WagerContract.sol\":7140:7148  eachUser */\n      0x04\n        /* \"FacctoryContract/WagerContract.sol\":7140:7160  eachUser[totalUsers] */\n      0x00\n        /* \"FacctoryContract/WagerContract.sol\":7149:7159  totalUsers */\n      sload(0x02)\n        /* \"FacctoryContract/WagerContract.sol\":7140:7160  eachUser[totalUsers] */\n      dup2\n      mstore\n      0x20\n      add\n      swap1\n      dup2\n      mstore\n      0x20\n      add\n      0x00\n      keccak256\n      0x00\n        /* \"FacctoryContract/WagerContract.sol\":7140:7173  eachUser[totalUsers] = msg.sender */\n      0x0100\n      exp\n      dup2\n      sload\n      dup2\n      0xffffffffffffffffffffffffffffffffffffffff\n      mul\n      not\n      and\n      swap1\n      dup4\n      0xffffffffffffffffffffffffffffffffffffffff\n      and\n      mul\n      or\n      swap1\n      sstore\n      pop\n        /* \"FacctoryContract/WagerContract.sol\":7183:7193  totalUsers */\n      0x02\n      0x00\n        /* \"FacctoryContract/WagerContract.sol\":7183:7195  totalUsers++ */\n      dup2\n      sload\n      dup1\n      swap3\n      swap2\n      swap1\n      tag_307\n      swap1\n      tag_158\n      jump\t// in\n    tag_307:\n      swap2\n      swap1\n      pop\n      sstore\n      pop\n        /* \"FacctoryContract/WagerContract.sol\":7206:7218  bool success */\n      0x00\n        /* \"FacctoryContract/WagerContract.sol\":7221:7230  usdcToken */\n      0x01\n      0x00\n      swap1\n      sload\n      swap1\n      0x0100\n      exp\n      swap1\n      div\n      0xffffffffffffffffffffffffffffffffffffffff\n      and\n        /* \"FacctoryContract/WagerContract.sol\":7221:7243  usdcToken.transferFrom */\n      0xffffffffffffffffffffffffffffffffffffffff\n      and\n      0x23b872dd\n        /* \"FacctoryContract/WagerContract.sol\":7257:7267  msg.sender */\n      caller\n        /* \"FacctoryContract/WagerContract.sol\":7281:7287  _owner */\n      dup5\n        /* \"FacctoryContract/WagerContract.sol\":7301:7309  sellInfo */\n      0x07\n        /* \"FacctoryContract/WagerContract.sol\":7301:7317  sellInfo[_owner] */\n      0x00\n        /* \"FacctoryContract/WagerContract.sol\":7310:7316  _owner */\n      dup8\n        /* \"FacctoryContract/WagerContract.sol\":7301:7317  sellInfo[_owner] */\n      0xffffffffffffffffffffffffffffffffffffffff\n      and\n      0xffffffffffffffffffffffffffffffffffffffff\n      and\n      dup2\n      mstore\n      0x20\n      add\n      swap1\n      dup2\n      mstore\n      0x20\n      add\n      0x00\n      keccak256\n        /* \"FacctoryContract/WagerContract.sol\":7301:7326  sellInfo[_owner][_listNo] */\n      0x00\n        /* \"FacctoryContract/WagerContract.sol\":7318:7325  _listNo */\n      dup9\n        /* \"FacctoryContract/WagerContract.sol\":7301:7326  sellInfo[_owner][_listNo] */\n      dup2\n      mstore\n      0x20\n      add\n      swap1\n      dup2\n      mstore\n      0x20\n      add\n      0x00\n      keccak256\n        /* \"FacctoryContract/WagerContract.sol\":7301:7332  sellInfo[_owner][_listNo].price */\n      0x01\n      add\n      sload\n        /* \"FacctoryContract/WagerContract.sol\":7221:7342  usdcToken.transferFrom(... */\n      mload(0x40)\n      dup5\n      0xffffffff\n      and\n      0xe0\n      shl\n      dup2\n      mstore\n      0x04\n      add\n      tag_308\n      swap4\n      swap3\n      swap2\n      swap1\n      tag_256\n      jump\t// in\n    tag_308:\n      0x20\n      mload(0x40)\n      dup1\n      dup4\n      sub\n      dup2\n      0x00\n      dup8\n      gas\n      call\n      iszero\n      dup1\n      iszero\n      tag_310\n      jumpi\n      returndatasize\n      0x00\n      dup1\n      returndatacopy\n      revert(0x00, returndatasize)\n    tag_310:\n      pop\n      pop\n      pop\n      pop\n      mload(0x40)\n      returndatasize\n      not(0x1f)\n      0x1f\n      dup3\n      add\n      and\n      dup3\n      add\n      dup1\n      0x40\n      mstore\n      pop\n      dup2\n      add\n      swap1\n      tag_311\n      swap2\n      swap1\n      tag_207\n      jump\t// in\n    tag_311:\n        /* \"FacctoryContract/WagerContract.sol\":7206:7342  bool success = usdcToken.transferFrom(... */\n      swap1\n      pop\n        /* \"FacctoryContract/WagerContract.sol\":7360:7367  success */\n      dup1\n        /* \"FacctoryContract/WagerContract.sol\":7352:7387  require(success, \"Transfer failed\") */\n      tag_312\n      jumpi\n      mload(0x40)\n      0x08c379a000000000000000000000000000000000000000000000000000000000\n      dup2\n      mstore\n      0x04\n      add\n      tag_313\n      swap1\n      tag_210\n      jump\t// in\n    tag_313:\n      mload(0x40)\n      dup1\n      swap2\n      sub\n      swap1\n      revert\n    tag_312:\n        /* \"FacctoryContract/WagerContract.sol\":7403:7497  BuyShare(msg.sender,_owner, sellInfo[_owner][_listNo].amount, sellInfo[_owner][_listNo].price) */\n      0xc891adf8dfbf643a02668e73c35bbbb3c8aa9d86e0dc779d260026cfc0ab8b99\n        /* \"FacctoryContract/WagerContract.sol\":7412:7422  msg.sender */\n      caller\n        /* \"FacctoryContract/WagerContract.sol\":7423:7429  _owner */\n      dup4\n        /* \"FacctoryContract/WagerContract.sol\":7431:7439  sellInfo */\n      0x07\n        /* \"FacctoryContract/WagerContract.sol\":7431:7447  sellInfo[_owner] */\n      0x00\n        /* \"FacctoryContract/WagerContract.sol\":7440:7446  _owner */\n      dup7\n        /* \"FacctoryContract/WagerContract.sol\":7431:7447  sellInfo[_owner] */\n      0xffffffffffffffffffffffffffffffffffffffff\n      and\n      0xffffffffffffffffffffffffffffffffffffffff\n      and\n      dup2\n      mstore\n      0x20\n      add\n      swap1\n      dup2\n      mstore\n      0x20\n      add\n      0x00\n      keccak256\n        /* \"FacctoryContract/WagerContract.sol\":7431:7456  sellInfo[_owner][_listNo] */\n      0x00\n        /* \"FacctoryContract/WagerContract.sol\":7448:7455  _listNo */\n      dup8\n        /* \"FacctoryContract/WagerContract.sol\":7431:7456  sellInfo[_owner][_listNo] */\n      dup2\n      mstore\n      0x20\n      add\n      swap1\n      dup2\n      mstore\n      0x20\n      add\n      0x00\n      keccak256\n        /* \"FacctoryContract/WagerContract.sol\":7431:7463  sellInfo[_owner][_listNo].amount */\n      0x02\n      add\n      sload\n        /* \"FacctoryContract/WagerContract.sol\":7465:7473  sellInfo */\n      0x07\n        /* \"FacctoryContract/WagerContract.sol\":7465:7481  sellInfo[_owner] */\n      0x00\n        /* \"FacctoryContract/WagerContract.sol\":7474:7480  _owner */\n      dup8\n        /* \"FacctoryContract/WagerContract.sol\":7465:7481  sellInfo[_owner] */\n      0xffffffffffffffffffffffffffffffffffffffff\n      and\n      0xffffffffffffffffffffffffffffffffffffffff\n      and\n      dup2\n      mstore\n      0x20\n      add\n      swap1\n      dup2\n      mstore\n      0x20\n      add\n      0x00\n      keccak256\n        /* \"FacctoryContract/WagerContract.sol\":7465:7490  sellInfo[_owner][_listNo] */\n      0x00\n        /* \"FacctoryContract/WagerContract.sol\":7482:7489  _listNo */\n      dup9\n        /* \"FacctoryContract/WagerContract.sol\":7465:7490  sellInfo[_owner][_listNo] */\n      dup2\n      mstore\n      0x20\n      add\n      swap1\n      dup2\n      mstore\n      0x20\n      add\n      0x00\n      keccak256\n        /* \"FacctoryContract/WagerContract.sol\":7465:7496  sellInfo[_owner][_listNo].price */\n      0x01\n      add\n      sload\n        /* \"FacctoryContract/WagerContract.sol\":7403:7497  BuyShare(msg.sender,_owner, sellInfo[_owner][_listNo].amount, sellInfo[_owner][_listNo].price) */\n      mload(0x40)\n      tag_314\n      swap5\n      swap4\n      swap3\n      swap2\n      swap1\n      tag_315\n      jump\t// in\n    tag_314:\n      mload(0x40)\n      dup1\n      swap2\n      sub\n      swap1\n      log1\n        /* \"FacctoryContract/WagerContract.sol\":6091:7504  {... */\n      pop\n        /* \"FacctoryContract/WagerContract.sol\":6031:7504  function buyShare(uint256 _listNo, address _owner) external {... */\n      pop\n      pop\n      jump\t// out\n        /* \"FacctoryContract/WagerContract.sol\":4494:4685  function clamp(uint256 value, uint256 min, uint256 max) internal pure returns (uint256) {... */\n    tag_131:\n        /* \"FacctoryContract/WagerContract.sol\":4573:4580  uint256 */\n      0x00\n        /* \"FacctoryContract/WagerContract.sol\":4604:4607  min */\n      dup3\n        /* \"FacctoryContract/WagerContract.sol\":4596:4601  value */\n      dup5\n        /* \"FacctoryContract/WagerContract.sol\":4596:4607  value < min */\n      lt\n        /* \"FacctoryContract/WagerContract.sol\":4592:4619  if (value < min) return min */\n      iszero\n      tag_317\n      jumpi\n        /* \"FacctoryContract/WagerContract.sol\":4616:4619  min */\n      dup3\n        /* \"FacctoryContract/WagerContract.sol\":4609:4619  return min */\n      swap1\n      pop\n      jump(tag_316)\n        /* \"FacctoryContract/WagerContract.sol\":4592:4619  if (value < min) return min */\n    tag_317:\n        /* \"FacctoryContract/WagerContract.sol\":4641:4644  max */\n      dup2\n        /* \"FacctoryContract/WagerContract.sol\":4633:4638  value */\n      dup5\n        /* \"FacctoryContract/WagerContract.sol\":4633:4644  value > max */\n      gt\n        /* \"FacctoryContract/WagerContract.sol\":4629:4656  if (value > max) return max */\n      iszero\n      tag_318\n      jumpi\n        /* \"FacctoryContract/WagerContract.sol\":4653:4656  max */\n      dup2\n        /* \"FacctoryContract/WagerContract.sol\":4646:4656  return max */\n      swap1\n      pop\n      jump(tag_316)\n        /* \"FacctoryContract/WagerContract.sol\":4629:4656  if (value > max) return max */\n    tag_318:\n        /* \"FacctoryContract/WagerContract.sol\":4673:4678  value */\n      dup4\n        /* \"FacctoryContract/WagerContract.sol\":4666:4678  return value */\n      swap1\n      pop\n        /* \"FacctoryContract/WagerContract.sol\":4494:4685  function clamp(uint256 value, uint256 min, uint256 max) internal pure returns (uint256) {... */\n    tag_316:\n      swap4\n      swap3\n      pop\n      pop\n      pop\n      jump\t// out\n        /* \"FacctoryContract/WagerContract.sol\":10594:10989  function calculatePercentage(uint256 _totalStakeAmount,uint256 percentageNumber) private pure returns(uint256) {... */\n    tag_187:\n        /* \"FacctoryContract/WagerContract.sol\":10696:10703  uint256 */\n      0x00\n        /* \"FacctoryContract/WagerContract.sol\":10752:10753  0 */\n      dup1\n        /* \"FacctoryContract/WagerContract.sol\":10732:10749  _totalStakeAmount */\n      dup4\n        /* \"FacctoryContract/WagerContract.sol\":10732:10753  _totalStakeAmount !=0 */\n      sub\n        /* \"FacctoryContract/WagerContract.sol\":10724:10792  require(_totalStakeAmount !=0 , \"_totalStakeAmount can not be zero\") */\n      tag_320\n      jumpi\n      mload(0x40)\n      0x08c379a000000000000000000000000000000000000000000000000000000000\n      dup2\n      mstore\n      0x04\n      add\n      tag_321\n      swap1\n      tag_322\n      jump\t// in\n    tag_321:\n      mload(0x40)\n      dup1\n      swap2\n      sub\n      swap1\n      revert\n    tag_320:\n        /* \"FacctoryContract/WagerContract.sol\":10829:10830  0 */\n      0x00\n        /* \"FacctoryContract/WagerContract.sol\":10810:10826  percentageNumber */\n      dup3\n        /* \"FacctoryContract/WagerContract.sol\":10810:10830  percentageNumber !=0 */\n      sub\n        /* \"FacctoryContract/WagerContract.sol\":10802:10869  require(percentageNumber !=0 , \"_totalStakeAmount can not be zero\") */\n      tag_323\n      jumpi\n      mload(0x40)\n      0x08c379a000000000000000000000000000000000000000000000000000000000\n      dup2\n      mstore\n      0x04\n      add\n      tag_324\n      swap1\n      tag_322\n      jump\t// in\n    tag_324:\n      mload(0x40)\n      dup1\n      swap2\n      sub\n      swap1\n      revert\n    tag_323:\n        /* \"FacctoryContract/WagerContract.sol\":10879:10897  uint256 serviceFee */\n      0x00\n        /* \"FacctoryContract/WagerContract.sol\":10940:10945  10000 */\n      0x2710\n        /* \"FacctoryContract/WagerContract.sol\":10921:10937  percentageNumber */\n      dup4\n        /* \"FacctoryContract/WagerContract.sol\":10901:10918  _totalStakeAmount */\n      dup6\n        /* \"FacctoryContract/WagerContract.sol\":10901:10937  _totalStakeAmount * percentageNumber */\n      tag_325\n      swap2\n      swap1\n      tag_122\n      jump\t// in\n    tag_325:\n        /* \"FacctoryContract/WagerContract.sol\":10900:10946  (_totalStakeAmount * percentageNumber)/(10000) */\n      tag_326\n      swap2\n      swap1\n      tag_124\n      jump\t// in\n    tag_326:\n        /* \"FacctoryContract/WagerContract.sol\":10879:10946  uint256 serviceFee = (_totalStakeAmount * percentageNumber)/(10000) */\n      swap1\n      pop\n        /* \"FacctoryContract/WagerContract.sol\":10972:10982  serviceFee */\n      dup1\n        /* \"FacctoryContract/WagerContract.sol\":10965:10982  return serviceFee */\n      swap2\n      pop\n      pop\n        /* \"FacctoryContract/WagerContract.sol\":10594:10989  function calculatePercentage(uint256 _totalStakeAmount,uint256 percentageNumber) private pure returns(uint256) {... */\n      swap3\n      swap2\n      pop\n      pop\n      jump\t// out\n        /* \"@openzeppelin/contracts/access/Ownable.sol\":1796:1958  function _checkOwner() internal view virtual {... */\n    tag_265:\n        /* \"@openzeppelin/contracts/access/Ownable.sol\":1866:1878  _msgSender() */\n      tag_328\n        /* \"@openzeppelin/contracts/access/Ownable.sol\":1866:1876  _msgSender */\n      tag_329\n        /* \"@openzeppelin/contracts/access/Ownable.sol\":1866:1878  _msgSender() */\n      jump\t// in\n    tag_328:\n        /* \"@openzeppelin/contracts/access/Ownable.sol\":1855:1878  owner() != _msgSender() */\n      0xffffffffffffffffffffffffffffffffffffffff\n      and\n        /* \"@openzeppelin/contracts/access/Ownable.sol\":1855:1862  owner() */\n      tag_330\n        /* \"@openzeppelin/contracts/access/Ownable.sol\":1855:1860  owner */\n      tag_84\n        /* \"@openzeppelin/contracts/access/Ownable.sol\":1855:1862  owner() */\n      jump\t// in\n    tag_330:\n        /* \"@openzeppelin/contracts/access/Ownable.sol\":1855:1878  owner() != _msgSender() */\n      0xffffffffffffffffffffffffffffffffffffffff\n      and\n      eq\n        /* \"@openzeppelin/contracts/access/Ownable.sol\":1851:1952  if (owner() != _msgSender()) {... */\n      tag_331\n      jumpi\n        /* \"@openzeppelin/contracts/access/Ownable.sol\":1928:1940  _msgSender() */\n      tag_332\n        /* \"@openzeppelin/contracts/access/Ownable.sol\":1928:1938  _msgSender */\n      tag_329\n        /* \"@openzeppelin/contracts/access/Ownable.sol\":1928:1940  _msgSender() */\n      jump\t// in\n    tag_332:\n        /* \"@openzeppelin/contracts/access/Ownable.sol\":1901:1941  OwnableUnauthorizedAccount(_msgSender()) */\n      mload(0x40)\n      0x118cdaa700000000000000000000000000000000000000000000000000000000\n      dup2\n      mstore\n      0x04\n      add\n      tag_333\n      swap2\n      swap1\n      tag_31\n      jump\t// in\n    tag_333:\n      mload(0x40)\n      dup1\n      swap2\n      sub\n      swap1\n      revert\n        /* \"@openzeppelin/contracts/access/Ownable.sol\":1851:1952  if (owner() != _msgSender()) {... */\n    tag_331:\n        /* \"@openzeppelin/contracts/access/Ownable.sol\":1796:1958  function _checkOwner() internal view virtual {... */\n      jump\t// out\n        /* \"@openzeppelin/contracts/access/Ownable.sol\":2912:3099  function _transferOwnership(address newOwner) internal virtual {... */\n    tag_268:\n        /* \"@openzeppelin/contracts/access/Ownable.sol\":2985:3001  address oldOwner */\n      0x00\n        /* \"@openzeppelin/contracts/access/Ownable.sol\":3004:3010  _owner */\n      dup1\n      0x00\n      swap1\n      sload\n      swap1\n      0x0100\n      exp\n      swap1\n      div\n      0xffffffffffffffffffffffffffffffffffffffff\n      and\n        /* \"@openzeppelin/contracts/access/Ownable.sol\":2985:3010  address oldOwner = _owner */\n      swap1\n      pop\n        /* \"@openzeppelin/contracts/access/Ownable.sol\":3029:3037  newOwner */\n      dup2\n        /* \"@openzeppelin/contracts/access/Ownable.sol\":3020:3026  _owner */\n      0x00\n      dup1\n        /* \"@openzeppelin/contracts/access/Ownable.sol\":3020:3037  _owner = newOwner */\n      0x0100\n      exp\n      dup2\n      sload\n      dup2\n      0xffffffffffffffffffffffffffffffffffffffff\n      mul\n      not\n      and\n      swap1\n      dup4\n      0xffffffffffffffffffffffffffffffffffffffff\n      and\n      mul\n      or\n      swap1\n      sstore\n      pop\n        /* \"@openzeppelin/contracts/access/Ownable.sol\":3083:3091  newOwner */\n      dup2\n        /* \"@openzeppelin/contracts/access/Ownable.sol\":3052:3092  OwnershipTransferred(oldOwner, newOwner) */\n      0xffffffffffffffffffffffffffffffffffffffff\n      and\n        /* \"@openzeppelin/contracts/access/Ownable.sol\":3073:3081  oldOwner */\n      dup2\n        /* \"@openzeppelin/contracts/access/Ownable.sol\":3052:3092  OwnershipTransferred(oldOwner, newOwner) */\n      0xffffffffffffffffffffffffffffffffffffffff\n      and\n      0x8be0079c531659141344cd1fd0a4f28419497f9722a3daafe3b4186f6b6457e0\n      mload(0x40)\n      mload(0x40)\n      dup1\n      swap2\n      sub\n      swap1\n      log3\n        /* \"@openzeppelin/contracts/access/Ownable.sol\":2975:3099  {... */\n      pop\n        /* \"@openzeppelin/contracts/access/Ownable.sol\":2912:3099  function _transferOwnership(address newOwner) internal virtual {... */\n      pop\n      jump\t// out\n        /* \"@openzeppelin/contracts/utils/Context.sol\":656:752  function _msgSender() internal view virtual returns (address) {... */\n    tag_329:\n        /* \"@openzeppelin/contracts/utils/Context.sol\":709:716  address */\n      0x00\n        /* \"@openzeppelin/contracts/utils/Context.sol\":735:745  msg.sender */\n      caller\n        /* \"@openzeppelin/contracts/utils/Context.sol\":728:745  return msg.sender */\n      swap1\n      pop\n        /* \"@openzeppelin/contracts/utils/Context.sol\":656:752  function _msgSender() internal view virtual returns (address) {... */\n      swap1\n      jump\t// out\n        /* \"#utility.yul\":88:205   */\n    tag_337:\n        /* \"#utility.yul\":197:198   */\n      0x00\n        /* \"#utility.yul\":194:195   */\n      dup1\n        /* \"#utility.yul\":187:199   */\n      revert\n        /* \"#utility.yul\":334:411   */\n    tag_339:\n        /* \"#utility.yul\":371:378   */\n      0x00\n        /* \"#utility.yul\":400:405   */\n      dup2\n        /* \"#utility.yul\":389:405   */\n      swap1\n      pop\n        /* \"#utility.yul\":334:411   */\n      swap2\n      swap1\n      pop\n      jump\t// out\n        /* \"#utility.yul\":417:539   */\n    tag_340:\n        /* \"#utility.yul\":490:514   */\n      tag_377\n        /* \"#utility.yul\":508:513   */\n      dup2\n        /* \"#utility.yul\":490:514   */\n      tag_339\n      jump\t// in\n    tag_377:\n        /* \"#utility.yul\":483:488   */\n      dup2\n        /* \"#utility.yul\":480:515   */\n      eq\n        /* \"#utility.yul\":470:533   */\n      tag_378\n      jumpi\n        /* \"#utility.yul\":529:530   */\n      0x00\n        /* \"#utility.yul\":526:527   */\n      dup1\n        /* \"#utility.yul\":519:531   */\n      revert\n        /* \"#utility.yul\":470:533   */\n    tag_378:\n        /* \"#utility.yul\":417:539   */\n      pop\n      jump\t// out\n        /* \"#utility.yul\":545:684   */\n    tag_341:\n        /* \"#utility.yul\":591:596   */\n      0x00\n        /* \"#utility.yul\":629:635   */\n      dup2\n        /* \"#utility.yul\":616:636   */\n      calldataload\n        /* \"#utility.yul\":607:636   */\n      swap1\n      pop\n        /* \"#utility.yul\":645:678   */\n      tag_380\n        /* \"#utility.yul\":672:677   */\n      dup2\n        /* \"#utility.yul\":645:678   */\n      tag_340\n      jump\t// in\n    tag_380:\n        /* \"#utility.yul\":545:684   */\n      swap3\n      swap2\n      pop\n      pop\n      jump\t// out\n        /* \"#utility.yul\":690:1019   */\n    tag_28:\n        /* \"#utility.yul\":749:755   */\n      0x00\n        /* \"#utility.yul\":798:800   */\n      0x20\n        /* \"#utility.yul\":786:795   */\n      dup3\n        /* \"#utility.yul\":777:784   */\n      dup5\n        /* \"#utility.yul\":773:796   */\n      sub\n        /* \"#utility.yul\":769:801   */\n      slt\n        /* \"#utility.yul\":766:885   */\n      iszero\n      tag_382\n      jumpi\n        /* \"#utility.yul\":804:883   */\n      tag_383\n      tag_337\n      jump\t// in\n    tag_383:\n        /* \"#utility.yul\":766:885   */\n    tag_382:\n        /* \"#utility.yul\":924:925   */\n      0x00\n        /* \"#utility.yul\":949:1002   */\n      tag_384\n        /* \"#utility.yul\":994:1001   */\n      dup5\n        /* \"#utility.yul\":985:991   */\n      dup3\n        /* \"#utility.yul\":974:983   */\n      dup6\n        /* \"#utility.yul\":970:992   */\n      add\n        /* \"#utility.yul\":949:1002   */\n      tag_341\n      jump\t// in\n    tag_384:\n        /* \"#utility.yul\":939:1002   */\n      swap2\n      pop\n        /* \"#utility.yul\":895:1012   */\n      pop\n        /* \"#utility.yul\":690:1019   */\n      swap3\n      swap2\n      pop\n      pop\n      jump\t// out\n        /* \"#utility.yul\":1025:1151   */\n    tag_342:\n        /* \"#utility.yul\":1062:1069   */\n      0x00\n        /* \"#utility.yul\":1102:1144   */\n      0xffffffffffffffffffffffffffffffffffffffff\n        /* \"#utility.yul\":1095:1100   */\n      dup3\n        /* \"#utility.yul\":1091:1145   */\n      and\n        /* \"#utility.yul\":1080:1145   */\n      swap1\n      pop\n        /* \"#utility.yul\":1025:1151   */\n      swap2\n      swap1\n      pop\n      jump\t// out\n        /* \"#utility.yul\":1157:1253   */\n    tag_343:\n        /* \"#utility.yul\":1194:1201   */\n      0x00\n        /* \"#utility.yul\":1223:1247   */\n      tag_387\n        /* \"#utility.yul\":1241:1246   */\n      dup3\n        /* \"#utility.yul\":1223:1247   */\n      tag_342\n      jump\t// in\n    tag_387:\n        /* \"#utility.yul\":1212:1247   */\n      swap1\n      pop\n        /* \"#utility.yul\":1157:1253   */\n      swap2\n      swap1\n      pop\n      jump\t// out\n        /* \"#utility.yul\":1259:1377   */\n    tag_344:\n        /* \"#utility.yul\":1346:1370   */\n      tag_389\n        /* \"#utility.yul\":1364:1369   */\n      dup2\n        /* \"#utility.yul\":1346:1370   */\n      tag_343\n      jump\t// in\n    tag_389:\n        /* \"#utility.yul\":1341:1344   */\n      dup3\n        /* \"#utility.yul\":1334:1371   */\n      mstore\n        /* \"#utility.yul\":1259:1377   */\n      pop\n      pop\n      jump\t// out\n        /* \"#utility.yul\":1383:1605   */\n    tag_31:\n        /* \"#utility.yul\":1476:1480   */\n      0x00\n        /* \"#utility.yul\":1514:1516   */\n      0x20\n        /* \"#utility.yul\":1503:1512   */\n      dup3\n        /* \"#utility.yul\":1499:1517   */\n      add\n        /* \"#utility.yul\":1491:1517   */\n      swap1\n      pop\n        /* \"#utility.yul\":1527:1598   */\n      tag_391\n        /* \"#utility.yul\":1595:1596   */\n      0x00\n        /* \"#utility.yul\":1584:1593   */\n      dup4\n        /* \"#utility.yul\":1580:1597   */\n      add\n        /* \"#utility.yul\":1571:1577   */\n      dup5\n        /* \"#utility.yul\":1527:1598   */\n      tag_344\n      jump\t// in\n    tag_391:\n        /* \"#utility.yul\":1383:1605   */\n      swap3\n      swap2\n      pop\n      pop\n      jump\t// out\n        /* \"#utility.yul\":1611:1733   */\n    tag_345:\n        /* \"#utility.yul\":1684:1708   */\n      tag_393\n        /* \"#utility.yul\":1702:1707   */\n      dup2\n        /* \"#utility.yul\":1684:1708   */\n      tag_343\n      jump\t// in\n    tag_393:\n        /* \"#utility.yul\":1677:1682   */\n      dup2\n        /* \"#utility.yul\":1674:1709   */\n      eq\n        /* \"#utility.yul\":1664:1727   */\n      tag_394\n      jumpi\n        /* \"#utility.yul\":1723:1724   */\n      0x00\n        /* \"#utility.yul\":1720:1721   */\n      dup1\n        /* \"#utility.yul\":1713:1725   */\n      revert\n        /* \"#utility.yul\":1664:1727   */\n    tag_394:\n        /* \"#utility.yul\":1611:1733   */\n      pop\n      jump\t// out\n        /* \"#utility.yul\":1739:1878   */\n    tag_346:\n        /* \"#utility.yul\":1785:1790   */\n      0x00\n        /* \"#utility.yul\":1823:1829   */\n      dup2\n        /* \"#utility.yul\":1810:1830   */\n      calldataload\n        /* \"#utility.yul\":1801:1830   */\n      swap1\n      pop\n        /* \"#utility.yul\":1839:1872   */\n      tag_396\n        /* \"#utility.yul\":1866:1871   */\n      dup2\n        /* \"#utility.yul\":1839:1872   */\n      tag_345\n      jump\t// in\n    tag_396:\n        /* \"#utility.yul\":1739:1878   */\n      swap3\n      swap2\n      pop\n      pop\n      jump\t// out\n        /* \"#utility.yul\":1884:2358   */\n    tag_34:\n        /* \"#utility.yul\":1952:1958   */\n      0x00\n        /* \"#utility.yul\":1960:1966   */\n      dup1\n        /* \"#utility.yul\":2009:2011   */\n      0x40\n        /* \"#utility.yul\":1997:2006   */\n      dup4\n        /* \"#utility.yul\":1988:1995   */\n      dup6\n        /* \"#utility.yul\":1984:2007   */\n      sub\n        /* \"#utility.yul\":1980:2012   */\n      slt\n        /* \"#utility.yul\":1977:2096   */\n      iszero\n      tag_398\n      jumpi\n        /* \"#utility.yul\":2015:2094   */\n      tag_399\n      tag_337\n      jump\t// in\n    tag_399:\n        /* \"#utility.yul\":1977:2096   */\n    tag_398:\n        /* \"#utility.yul\":2135:2136   */\n      0x00\n        /* \"#utility.yul\":2160:2213   */\n      tag_400\n        /* \"#utility.yul\":2205:2212   */\n      dup6\n        /* \"#utility.yul\":2196:2202   */\n      dup3\n        /* \"#utility.yul\":2185:2194   */\n      dup7\n        /* \"#utility.yul\":2181:2203   */\n      add\n        /* \"#utility.yul\":2160:2213   */\n      tag_346\n      jump\t// in\n    tag_400:\n        /* \"#utility.yul\":2150:2213   */\n      swap3\n      pop\n        /* \"#utility.yul\":2106:2223   */\n      pop\n        /* \"#utility.yul\":2262:2264   */\n      0x20\n        /* \"#utility.yul\":2288:2341   */\n      tag_401\n        /* \"#utility.yul\":2333:2340   */\n      dup6\n        /* \"#utility.yul\":2324:2330   */\n      dup3\n        /* \"#utility.yul\":2313:2322   */\n      dup7\n        /* \"#utility.yul\":2309:2331   */\n      add\n        /* \"#utility.yul\":2288:2341   */\n      tag_341\n      jump\t// in\n    tag_401:\n        /* \"#utility.yul\":2278:2341   */\n      swap2\n      pop\n        /* \"#utility.yul\":2233:2351   */\n      pop\n        /* \"#utility.yul\":1884:2358   */\n      swap3\n      pop\n      swap3\n      swap1\n      pop\n      jump\t// out\n        /* \"#utility.yul\":2364:2454   */\n    tag_347:\n        /* \"#utility.yul\":2398:2405   */\n      0x00\n        /* \"#utility.yul\":2441:2446   */\n      dup2\n        /* \"#utility.yul\":2434:2447   */\n      iszero\n        /* \"#utility.yul\":2427:2448   */\n      iszero\n        /* \"#utility.yul\":2416:2448   */\n      swap1\n      pop\n        /* \"#utility.yul\":2364:2454   */\n      swap2\n      swap1\n      pop\n      jump\t// out\n        /* \"#utility.yul\":2460:2569   */\n    tag_348:\n        /* \"#utility.yul\":2541:2562   */\n      tag_404\n        /* \"#utility.yul\":2556:2561   */\n      dup2\n        /* \"#utility.yul\":2541:2562   */\n      tag_347\n      jump\t// in\n    tag_404:\n        /* \"#utility.yul\":2536:2539   */\n      dup3\n        /* \"#utility.yul\":2529:2563   */\n      mstore\n        /* \"#utility.yul\":2460:2569   */\n      pop\n      pop\n      jump\t// out\n        /* \"#utility.yul\":2575:2785   */\n    tag_37:\n        /* \"#utility.yul\":2662:2666   */\n      0x00\n        /* \"#utility.yul\":2700:2702   */\n      0x20\n        /* \"#utility.yul\":2689:2698   */\n      dup3\n        /* \"#utility.yul\":2685:2703   */\n      add\n        /* \"#utility.yul\":2677:2703   */\n      swap1\n      pop\n        /* \"#utility.yul\":2713:2778   */\n      tag_406\n        /* \"#utility.yul\":2775:2776   */\n      0x00\n        /* \"#utility.yul\":2764:2773   */\n      dup4\n        /* \"#utility.yul\":2760:2777   */\n      add\n        /* \"#utility.yul\":2751:2757   */\n      dup5\n        /* \"#utility.yul\":2713:2778   */\n      tag_348\n      jump\t// in\n    tag_406:\n        /* \"#utility.yul\":2575:2785   */\n      swap3\n      swap2\n      pop\n      pop\n      jump\t// out\n        /* \"#utility.yul\":2791:2851   */\n    tag_349:\n        /* \"#utility.yul\":2819:2822   */\n      0x00\n        /* \"#utility.yul\":2840:2845   */\n      dup2\n        /* \"#utility.yul\":2833:2845   */\n      swap1\n      pop\n        /* \"#utility.yul\":2791:2851   */\n      swap2\n      swap1\n      pop\n      jump\t// out\n        /* \"#utility.yul\":2857:2999   */\n    tag_350:\n        /* \"#utility.yul\":2907:2916   */\n      0x00\n        /* \"#utility.yul\":2940:2993   */\n      tag_409\n        /* \"#utility.yul\":2958:2992   */\n      tag_410\n        /* \"#utility.yul\":2967:2991   */\n      tag_411\n        /* \"#utility.yul\":2985:2990   */\n      dup5\n        /* \"#utility.yul\":2967:2991   */\n      tag_342\n      jump\t// in\n    tag_411:\n        /* \"#utility.yul\":2958:2992   */\n      tag_349\n      jump\t// in\n    tag_410:\n        /* \"#utility.yul\":2940:2993   */\n      tag_342\n      jump\t// in\n    tag_409:\n        /* \"#utility.yul\":2927:2993   */\n      swap1\n      pop\n        /* \"#utility.yul\":2857:2999   */\n      swap2\n      swap1\n      pop\n      jump\t// out\n        /* \"#utility.yul\":3005:3131   */\n    tag_351:\n        /* \"#utility.yul\":3055:3064   */\n      0x00\n        /* \"#utility.yul\":3088:3125   */\n      tag_413\n        /* \"#utility.yul\":3119:3124   */\n      dup3\n        /* \"#utility.yul\":3088:3125   */\n      tag_350\n      jump\t// in\n    tag_413:\n        /* \"#utility.yul\":3075:3125   */\n      swap1\n      pop\n        /* \"#utility.yul\":3005:3131   */\n      swap2\n      swap1\n      pop\n      jump\t// out\n        /* \"#utility.yul\":3137:3276   */\n    tag_352:\n        /* \"#utility.yul\":3200:3209   */\n      0x00\n        /* \"#utility.yul\":3233:3270   */\n      tag_415\n        /* \"#utility.yul\":3264:3269   */\n      dup3\n        /* \"#utility.yul\":3233:3270   */\n      tag_351\n      jump\t// in\n    tag_415:\n        /* \"#utility.yul\":3220:3270   */\n      swap1\n      pop\n        /* \"#utility.yul\":3137:3276   */\n      swap2\n      swap1\n      pop\n      jump\t// out\n        /* \"#utility.yul\":3282:3439   */\n    tag_353:\n        /* \"#utility.yul\":3382:3432   */\n      tag_417\n        /* \"#utility.yul\":3426:3431   */\n      dup2\n        /* \"#utility.yul\":3382:3432   */\n      tag_352\n      jump\t// in\n    tag_417:\n        /* \"#utility.yul\":3377:3380   */\n      dup3\n        /* \"#utility.yul\":3370:3433   */\n      mstore\n        /* \"#utility.yul\":3282:3439   */\n      pop\n      pop\n      jump\t// out\n        /* \"#utility.yul\":3445:3693   */\n    tag_41:\n        /* \"#utility.yul\":3551:3555   */\n      0x00\n        /* \"#utility.yul\":3589:3591   */\n      0x20\n        /* \"#utility.yul\":3578:3587   */\n      dup3\n        /* \"#utility.yul\":3574:3592   */\n      add\n        /* \"#utility.yul\":3566:3592   */\n      swap1\n      pop\n        /* \"#utility.yul\":3602:3686   */\n      tag_419\n        /* \"#utility.yul\":3683:3684   */\n      0x00\n        /* \"#utility.yul\":3672:3681   */\n      dup4\n        /* \"#utility.yul\":3668:3685   */\n      add\n        /* \"#utility.yul\":3659:3665   */\n      dup5\n        /* \"#utility.yul\":3602:3686   */\n      tag_353\n      jump\t// in\n    tag_419:\n        /* \"#utility.yul\":3445:3693   */\n      swap3\n      swap2\n      pop\n      pop\n      jump\t// out\n        /* \"#utility.yul\":3699:4028   */\n    tag_44:\n        /* \"#utility.yul\":3758:3764   */\n      0x00\n        /* \"#utility.yul\":3807:3809   */\n      0x20\n        /* \"#utility.yul\":3795:3804   */\n      dup3\n        /* \"#utility.yul\":3786:3793   */\n      dup5\n        /* \"#utility.yul\":3782:3805   */\n      sub\n        /* \"#utility.yul\":3778:3810   */\n      slt\n        /* \"#utility.yul\":3775:3894   */\n      iszero\n      tag_421\n      jumpi\n        /* \"#utility.yul\":3813:3892   */\n      tag_422\n      tag_337\n      jump\t// in\n    tag_422:\n        /* \"#utility.yul\":3775:3894   */\n    tag_421:\n        /* \"#utility.yul\":3933:3934   */\n      0x00\n        /* \"#utility.yul\":3958:4011   */\n      tag_423\n        /* \"#utility.yul\":4003:4010   */\n      dup5\n        /* \"#utility.yul\":3994:4000   */\n      dup3\n        /* \"#utility.yul\":3983:3992   */\n      dup6\n        /* \"#utility.yul\":3979:4001   */\n      add\n        /* \"#utility.yul\":3958:4011   */\n      tag_346\n      jump\t// in\n    tag_423:\n        /* \"#utility.yul\":3948:4011   */\n      swap2\n      pop\n        /* \"#utility.yul\":3904:4021   */\n      pop\n        /* \"#utility.yul\":3699:4028   */\n      swap3\n      swap2\n      pop\n      pop\n      jump\t// out\n        /* \"#utility.yul\":4034:4152   */\n    tag_354:\n        /* \"#utility.yul\":4121:4145   */\n      tag_425\n        /* \"#utility.yul\":4139:4144   */\n      dup2\n        /* \"#utility.yul\":4121:4145   */\n      tag_339\n      jump\t// in\n    tag_425:\n        /* \"#utility.yul\":4116:4119   */\n      dup3\n        /* \"#utility.yul\":4109:4146   */\n      mstore\n        /* \"#utility.yul\":4034:4152   */\n      pop\n      pop\n      jump\t// out\n        /* \"#utility.yul\":4158:4822   */\n    tag_47:\n        /* \"#utility.yul\":4363:4367   */\n      0x00\n        /* \"#utility.yul\":4401:4404   */\n      0xa0\n        /* \"#utility.yul\":4390:4399   */\n      dup3\n        /* \"#utility.yul\":4386:4405   */\n      add\n        /* \"#utility.yul\":4378:4405   */\n      swap1\n      pop\n        /* \"#utility.yul\":4415:4486   */\n      tag_427\n        /* \"#utility.yul\":4483:4484   */\n      0x00\n        /* \"#utility.yul\":4472:4481   */\n      dup4\n        /* \"#utility.yul\":4468:4485   */\n      add\n        /* \"#utility.yul\":4459:4465   */\n      dup9\n        /* \"#utility.yul\":4415:4486   */\n      tag_354\n      jump\t// in\n    tag_427:\n        /* \"#utility.yul\":4496:4568   */\n      tag_428\n        /* \"#utility.yul\":4564:4566   */\n      0x20\n        /* \"#utility.yul\":4553:4562   */\n      dup4\n        /* \"#utility.yul\":4549:4567   */\n      add\n        /* \"#utility.yul\":4540:4546   */\n      dup8\n        /* \"#utility.yul\":4496:4568   */\n      tag_354\n      jump\t// in\n    tag_428:\n        /* \"#utility.yul\":4578:4650   */\n      tag_429\n        /* \"#utility.yul\":4646:4648   */\n      0x40\n        /* \"#utility.yul\":4635:4644   */\n      dup4\n        /* \"#utility.yul\":4631:4649   */\n      add\n        /* \"#utility.yul\":4622:4628   */\n      dup7\n        /* \"#utility.yul\":4578:4650   */\n      tag_354\n      jump\t// in\n    tag_429:\n        /* \"#utility.yul\":4660:4732   */\n      tag_430\n        /* \"#utility.yul\":4728:4730   */\n      0x60\n        /* \"#utility.yul\":4717:4726   */\n      dup4\n        /* \"#utility.yul\":4713:4731   */\n      add\n        /* \"#utility.yul\":4704:4710   */\n      dup6\n        /* \"#utility.yul\":4660:4732   */\n      tag_354\n      jump\t// in\n    tag_430:\n        /* \"#utility.yul\":4742:4815   */\n      tag_431\n        /* \"#utility.yul\":4810:4813   */\n      0x80\n        /* \"#utility.yul\":4799:4808   */\n      dup4\n        /* \"#utility.yul\":4795:4814   */\n      add\n        /* \"#utility.yul\":4786:4792   */\n      dup5\n        /* \"#utility.yul\":4742:4815   */\n      tag_354\n      jump\t// in\n    tag_431:\n        /* \"#utility.yul\":4158:4822   */\n      swap7\n      swap6\n      pop\n      pop\n      pop\n      pop\n      pop\n      pop\n      jump\t// out\n        /* \"#utility.yul\":4828:5160   */\n    tag_51:\n        /* \"#utility.yul\":4949:4953   */\n      0x00\n        /* \"#utility.yul\":4987:4989   */\n      0x40\n        /* \"#utility.yul\":4976:4985   */\n      dup3\n        /* \"#utility.yul\":4972:4990   */\n      add\n        /* \"#utility.yul\":4964:4990   */\n      swap1\n      pop\n        /* \"#utility.yul\":5000:5071   */\n      tag_433\n        /* \"#utility.yul\":5068:5069   */\n      0x00\n        /* \"#utility.yul\":5057:5066   */\n      dup4\n        /* \"#utility.yul\":5053:5070   */\n      add\n        /* \"#utility.yul\":5044:5050   */\n      dup6\n        /* \"#utility.yul\":5000:5071   */\n      tag_354\n      jump\t// in\n    tag_433:\n        /* \"#utility.yul\":5081:5153   */\n      tag_434\n        /* \"#utility.yul\":5149:5151   */\n      0x20\n        /* \"#utility.yul\":5138:5147   */\n      dup4\n        /* \"#utility.yul\":5134:5152   */\n      add\n        /* \"#utility.yul\":5125:5131   */\n      dup5\n        /* \"#utility.yul\":5081:5153   */\n      tag_354\n      jump\t// in\n    tag_434:\n        /* \"#utility.yul\":4828:5160   */\n      swap4\n      swap3\n      pop\n      pop\n      pop\n      jump\t// out\n        /* \"#utility.yul\":5166:5640   */\n    tag_54:\n        /* \"#utility.yul\":5234:5240   */\n      0x00\n        /* \"#utility.yul\":5242:5248   */\n      dup1\n        /* \"#utility.yul\":5291:5293   */\n      0x40\n        /* \"#utility.yul\":5279:5288   */\n      dup4\n        /* \"#utility.yul\":5270:5277   */\n      dup6\n        /* \"#utility.yul\":5266:5289   */\n      sub\n        /* \"#utility.yul\":5262:5294   */\n      slt\n        /* \"#utility.yul\":5259:5378   */\n      iszero\n      tag_436\n      jumpi\n        /* \"#utility.yul\":5297:5376   */\n      tag_437\n      tag_337\n      jump\t// in\n    tag_437:\n        /* \"#utility.yul\":5259:5378   */\n    tag_436:\n        /* \"#utility.yul\":5417:5418   */\n      0x00\n        /* \"#utility.yul\":5442:5495   */\n      tag_438\n        /* \"#utility.yul\":5487:5494   */\n      dup6\n        /* \"#utility.yul\":5478:5484   */\n      dup3\n        /* \"#utility.yul\":5467:5476   */\n      dup7\n        /* \"#utility.yul\":5463:5485   */\n      add\n        /* \"#utility.yul\":5442:5495   */\n      tag_341\n      jump\t// in\n    tag_438:\n        /* \"#utility.yul\":5432:5495   */\n      swap3\n      pop\n        /* \"#utility.yul\":5388:5505   */\n      pop\n        /* \"#utility.yul\":5544:5546   */\n      0x20\n        /* \"#utility.yul\":5570:5623   */\n      tag_439\n        /* \"#utility.yul\":5615:5622   */\n      dup6\n        /* \"#utility.yul\":5606:5612   */\n      dup3\n        /* \"#utility.yul\":5595:5604   */\n      dup7\n        /* \"#utility.yul\":5591:5613   */\n      add\n        /* \"#utility.yul\":5570:5623   */\n      tag_341\n      jump\t// in\n    tag_439:\n        /* \"#utility.yul\":5560:5623   */\n      swap2\n      pop\n        /* \"#utility.yul\":5515:5633   */\n      pop\n        /* \"#utility.yul\":5166:5640   */\n      swap3\n      pop\n      swap3\n      swap1\n      pop\n      jump\t// out\n        /* \"#utility.yul\":5646:6397   */\n    tag_61:\n        /* \"#utility.yul\":5867:5871   */\n      0x00\n        /* \"#utility.yul\":5905:5908   */\n      0xc0\n        /* \"#utility.yul\":5894:5903   */\n      dup3\n        /* \"#utility.yul\":5890:5909   */\n      add\n        /* \"#utility.yul\":5882:5909   */\n      swap1\n      pop\n        /* \"#utility.yul\":5919:5984   */\n      tag_441\n        /* \"#utility.yul\":5981:5982   */\n      0x00\n        /* \"#utility.yul\":5970:5979   */\n      dup4\n        /* \"#utility.yul\":5966:5983   */\n      add\n        /* \"#utility.yul\":5957:5963   */\n      dup10\n        /* \"#utility.yul\":5919:5984   */\n      tag_348\n      jump\t// in\n    tag_441:\n        /* \"#utility.yul\":5994:6060   */\n      tag_442\n        /* \"#utility.yul\":6056:6058   */\n      0x20\n        /* \"#utility.yul\":6045:6054   */\n      dup4\n        /* \"#utility.yul\":6041:6059   */\n      add\n        /* \"#utility.yul\":6032:6038   */\n      dup9\n        /* \"#utility.yul\":5994:6060   */\n      tag_348\n      jump\t// in\n    tag_442:\n        /* \"#utility.yul\":6070:6142   */\n      tag_443\n        /* \"#utility.yul\":6138:6140   */\n      0x40\n        /* \"#utility.yul\":6127:6136   */\n      dup4\n        /* \"#utility.yul\":6123:6141   */\n      add\n        /* \"#utility.yul\":6114:6120   */\n      dup8\n        /* \"#utility.yul\":6070:6142   */\n      tag_344\n      jump\t// in\n    tag_443:\n        /* \"#utility.yul\":6152:6224   */\n      tag_444\n        /* \"#utility.yul\":6220:6222   */\n      0x60\n        /* \"#utility.yul\":6209:6218   */\n      dup4\n        /* \"#utility.yul\":6205:6223   */\n      add\n        /* \"#utility.yul\":6196:6202   */\n      dup7\n        /* \"#utility.yul\":6152:6224   */\n      tag_354\n      jump\t// in\n    tag_444:\n        /* \"#utility.yul\":6234:6307   */\n      tag_445\n        /* \"#utility.yul\":6302:6305   */\n      0x80\n        /* \"#utility.yul\":6291:6300   */\n      dup4\n        /* \"#utility.yul\":6287:6306   */\n      add\n        /* \"#utility.yul\":6278:6284   */\n      dup6\n        /* \"#utility.yul\":6234:6307   */\n      tag_354\n      jump\t// in\n    tag_445:\n        /* \"#utility.yul\":6317:6390   */\n      tag_446\n        /* \"#utility.yul\":6385:6388   */\n      0xa0\n        /* \"#utility.yul\":6374:6383   */\n      dup4\n        /* \"#utility.yul\":6370:6389   */\n      add\n        /* \"#utility.yul\":6361:6367   */\n      dup5\n        /* \"#utility.yul\":6317:6390   */\n      tag_354\n      jump\t// in\n    tag_446:\n        /* \"#utility.yul\":5646:6397   */\n      swap8\n      swap7\n      pop\n      pop\n      pop\n      pop\n      pop\n      pop\n      pop\n      jump\t// out\n        /* \"#utility.yul\":6403:7022   */\n    tag_64:\n        /* \"#utility.yul\":6480:6486   */\n      0x00\n        /* \"#utility.yul\":6488:6494   */\n      dup1\n        /* \"#utility.yul\":6496:6502   */\n      0x00\n        /* \"#utility.yul\":6545:6547   */\n      0x60\n        /* \"#utility.yul\":6533:6542   */\n      dup5\n        /* \"#utility.yul\":6524:6531   */\n      dup7\n        /* \"#utility.yul\":6520:6543   */\n      sub\n        /* \"#utility.yul\":6516:6548   */\n      slt\n        /* \"#utility.yul\":6513:6632   */\n      iszero\n      tag_448\n      jumpi\n        /* \"#utility.yul\":6551:6630   */\n      tag_449\n      tag_337\n      jump\t// in\n    tag_449:\n        /* \"#utility.yul\":6513:6632   */\n    tag_448:\n        /* \"#utility.yul\":6671:6672   */\n      0x00\n        /* \"#utility.yul\":6696:6749   */\n      tag_450\n        /* \"#utility.yul\":6741:6748   */\n      dup7\n        /* \"#utility.yul\":6732:6738   */\n      dup3\n        /* \"#utility.yul\":6721:6730   */\n      dup8\n        /* \"#utility.yul\":6717:6739   */\n      add\n        /* \"#utility.yul\":6696:6749   */\n      tag_341\n      jump\t// in\n    tag_450:\n        /* \"#utility.yul\":6686:6749   */\n      swap4\n      pop\n        /* \"#utility.yul\":6642:6759   */\n      pop\n        /* \"#utility.yul\":6798:6800   */\n      0x20\n        /* \"#utility.yul\":6824:6877   */\n      tag_451\n        /* \"#utility.yul\":6869:6876   */\n      dup7\n        /* \"#utility.yul\":6860:6866   */\n      dup3\n        /* \"#utility.yul\":6849:6858   */\n      dup8\n        /* \"#utility.yul\":6845:6867   */\n      add\n        /* \"#utility.yul\":6824:6877   */\n      tag_341\n      jump\t// in\n    tag_451:\n        /* \"#utility.yul\":6814:6877   */\n      swap3\n      pop\n        /* \"#utility.yul\":6769:6887   */\n      pop\n        /* \"#utility.yul\":6926:6928   */\n      0x40\n        /* \"#utility.yul\":6952:7005   */\n      tag_452\n        /* \"#utility.yul\":6997:7004   */\n      dup7\n        /* \"#utility.yul\":6988:6994   */\n      dup3\n        /* \"#utility.yul\":6977:6986   */\n      dup8\n        /* \"#utility.yul\":6973:6995   */\n      add\n        /* \"#utility.yul\":6952:7005   */\n      tag_341\n      jump\t// in\n    tag_452:\n        /* \"#utility.yul\":6942:7005   */\n      swap2\n      pop\n        /* \"#utility.yul\":6897:7015   */\n      pop\n        /* \"#utility.yul\":6403:7022   */\n      swap3\n      pop\n      swap3\n      pop\n      swap3\n      jump\t// out\n        /* \"#utility.yul\":7028:7250   */\n    tag_82:\n        /* \"#utility.yul\":7121:7125   */\n      0x00\n        /* \"#utility.yul\":7159:7161   */\n      0x20\n        /* \"#utility.yul\":7148:7157   */\n      dup3\n        /* \"#utility.yul\":7144:7162   */\n      add\n        /* \"#utility.yul\":7136:7162   */\n      swap1\n      pop\n        /* \"#utility.yul\":7172:7243   */\n      tag_454\n        /* \"#utility.yul\":7240:7241   */\n      0x00\n        /* \"#utility.yul\":7229:7238   */\n      dup4\n        /* \"#utility.yul\":7225:7242   */\n      add\n        /* \"#utility.yul\":7216:7222   */\n      dup5\n        /* \"#utility.yul\":7172:7243   */\n      tag_354\n      jump\t// in\n    tag_454:\n        /* \"#utility.yul\":7028:7250   */\n      swap3\n      swap2\n      pop\n      pop\n      jump\t// out\n        /* \"#utility.yul\":7256:8019   */\n    tag_100:\n        /* \"#utility.yul\":7483:7487   */\n      0x00\n        /* \"#utility.yul\":7521:7524   */\n      0xc0\n        /* \"#utility.yul\":7510:7519   */\n      dup3\n        /* \"#utility.yul\":7506:7525   */\n      add\n        /* \"#utility.yul\":7498:7525   */\n      swap1\n      pop\n        /* \"#utility.yul\":7535:7600   */\n      tag_456\n        /* \"#utility.yul\":7597:7598   */\n      0x00\n        /* \"#utility.yul\":7586:7595   */\n      dup4\n        /* \"#utility.yul\":7582:7599   */\n      add\n        /* \"#utility.yul\":7573:7579   */\n      dup10\n        /* \"#utility.yul\":7535:7600   */\n      tag_348\n      jump\t// in\n    tag_456:\n        /* \"#utility.yul\":7610:7682   */\n      tag_457\n        /* \"#utility.yul\":7678:7680   */\n      0x20\n        /* \"#utility.yul\":7667:7676   */\n      dup4\n        /* \"#utility.yul\":7663:7681   */\n      add\n        /* \"#utility.yul\":7654:7660   */\n      dup9\n        /* \"#utility.yul\":7610:7682   */\n      tag_354\n      jump\t// in\n    tag_457:\n        /* \"#utility.yul\":7692:7764   */\n      tag_458\n        /* \"#utility.yul\":7760:7762   */\n      0x40\n        /* \"#utility.yul\":7749:7758   */\n      dup4\n        /* \"#utility.yul\":7745:7763   */\n      add\n        /* \"#utility.yul\":7736:7742   */\n      dup8\n        /* \"#utility.yul\":7692:7764   */\n      tag_354\n      jump\t// in\n    tag_458:\n        /* \"#utility.yul\":7774:7846   */\n      tag_459\n        /* \"#utility.yul\":7842:7844   */\n      0x60\n        /* \"#utility.yul\":7831:7840   */\n      dup4\n        /* \"#utility.yul\":7827:7845   */\n      add\n        /* \"#utility.yul\":7818:7824   */\n      dup7\n        /* \"#utility.yul\":7774:7846   */\n      tag_354\n      jump\t// in\n    tag_459:\n        /* \"#utility.yul\":7856:7929   */\n      tag_460\n        /* \"#utility.yul\":7924:7927   */\n      0x80\n        /* \"#utility.yul\":7913:7922   */\n      dup4\n        /* \"#utility.yul\":7909:7928   */\n      add\n        /* \"#utility.yul\":7900:7906   */\n      dup6\n        /* \"#utility.yul\":7856:7929   */\n      tag_354\n      jump\t// in\n    tag_460:\n        /* \"#utility.yul\":7939:8012   */\n      tag_461\n        /* \"#utility.yul\":8007:8010   */\n      0xa0\n        /* \"#utility.yul\":7996:8005   */\n      dup4\n        /* \"#utility.yul\":7992:8011   */\n      add\n        /* \"#utility.yul\":7983:7989   */\n      dup5\n        /* \"#utility.yul\":7939:8012   */\n      tag_354\n      jump\t// in\n    tag_461:\n        /* \"#utility.yul\":7256:8019   */\n      swap8\n      swap7\n      pop\n      pop\n      pop\n      pop\n      pop\n      pop\n      pop\n      jump\t// out\n        /* \"#utility.yul\":8025:8499   */\n    tag_106:\n        /* \"#utility.yul\":8093:8099   */\n      0x00\n        /* \"#utility.yul\":8101:8107   */\n      dup1\n        /* \"#utility.yul\":8150:8152   */\n      0x40\n        /* \"#utility.yul\":8138:8147   */\n      dup4\n        /* \"#utility.yul\":8129:8136   */\n      dup6\n        /* \"#utility.yul\":8125:8148   */\n      sub\n        /* \"#utility.yul\":8121:8153   */\n      slt\n        /* \"#utility.yul\":8118:8237   */\n      iszero\n      tag_463\n      jumpi\n        /* \"#utility.yul\":8156:8235   */\n      tag_464\n      tag_337\n      jump\t// in\n    tag_464:\n        /* \"#utility.yul\":8118:8237   */\n    tag_463:\n        /* \"#utility.yul\":8276:8277   */\n      0x00\n        /* \"#utility.yul\":8301:8354   */\n      tag_465\n        /* \"#utility.yul\":8346:8353   */\n      dup6\n        /* \"#utility.yul\":8337:8343   */\n      dup3\n        /* \"#utility.yul\":8326:8335   */\n      dup7\n        /* \"#utility.yul\":8322:8344   */\n      add\n        /* \"#utility.yul\":8301:8354   */\n      tag_341\n      jump\t// in\n    tag_465:\n        /* \"#utility.yul\":8291:8354   */\n      swap3\n      pop\n        /* \"#utility.yul\":8247:8364   */\n      pop\n        /* \"#utility.yul\":8403:8405   */\n      0x20\n        /* \"#utility.yul\":8429:8482   */\n      tag_466\n        /* \"#utility.yul\":8474:8481   */\n      dup6\n        /* \"#utility.yul\":8465:8471   */\n      dup3\n        /* \"#utility.yul\":8454:8463   */\n      dup7\n        /* \"#utility.yul\":8450:8472   */\n      add\n        /* \"#utility.yul\":8429:8482   */\n      tag_346\n      jump\t// in\n    tag_466:\n        /* \"#utility.yul\":8419:8482   */\n      swap2\n      pop\n        /* \"#utility.yul\":8374:8492   */\n      pop\n        /* \"#utility.yul\":8025:8499   */\n      swap3\n      pop\n      swap3\n      swap1\n      pop\n      jump\t// out\n        /* \"#utility.yul\":8505:8685   */\n    tag_112:\n        /* \"#utility.yul\":8553:8630   */\n      0x4e487b7100000000000000000000000000000000000000000000000000000000\n        /* \"#utility.yul\":8550:8551   */\n      0x00\n        /* \"#utility.yul\":8543:8631   */\n      mstore\n        /* \"#utility.yul\":8650:8654   */\n      0x32\n        /* \"#utility.yul\":8647:8648   */\n      0x04\n        /* \"#utility.yul\":8640:8655   */\n      mstore\n        /* \"#utility.yul\":8674:8678   */\n      0x24\n        /* \"#utility.yul\":8671:8672   */\n      0x00\n        /* \"#utility.yul\":8664:8679   */\n      revert\n        /* \"#utility.yul\":8691:8871   */\n    tag_355:\n        /* \"#utility.yul\":8739:8816   */\n      0x4e487b7100000000000000000000000000000000000000000000000000000000\n        /* \"#utility.yul\":8736:8737   */\n      0x00\n        /* \"#utility.yul\":8729:8817   */\n      mstore\n        /* \"#utility.yul\":8836:8840   */\n      0x11\n        /* \"#utility.yul\":8833:8834   */\n      0x04\n        /* \"#utility.yul\":8826:8841   */\n      mstore\n        /* \"#utility.yul\":8860:8864   */\n      0x24\n        /* \"#utility.yul\":8857:8858   */\n      0x00\n        /* \"#utility.yul\":8850:8865   */\n      revert\n        /* \"#utility.yul\":8877:9068   */\n    tag_119:\n        /* \"#utility.yul\":8917:8920   */\n      0x00\n        /* \"#utility.yul\":8936:8956   */\n      tag_470\n        /* \"#utility.yul\":8954:8955   */\n      dup3\n        /* \"#utility.yul\":8936:8956   */\n      tag_339\n      jump\t// in\n    tag_470:\n        /* \"#utility.yul\":8931:8956   */\n      swap2\n      pop\n        /* \"#utility.yul\":8970:8990   */\n      tag_471\n        /* \"#utility.yul\":8988:8989   */\n      dup4\n        /* \"#utility.yul\":8970:8990   */\n      tag_339\n      jump\t// in\n    tag_471:\n        /* \"#utility.yul\":8965:8990   */\n      swap3\n      pop\n        /* \"#utility.yul\":9013:9014   */\n      dup3\n        /* \"#utility.yul\":9010:9011   */\n      dup3\n        /* \"#utility.yul\":9006:9015   */\n      add\n        /* \"#utility.yul\":8999:9015   */\n      swap1\n      pop\n        /* \"#utility.yul\":9034:9037   */\n      dup1\n        /* \"#utility.yul\":9031:9032   */\n      dup3\n        /* \"#utility.yul\":9028:9038   */\n      gt\n        /* \"#utility.yul\":9025:9061   */\n      iszero\n      tag_472\n      jumpi\n        /* \"#utility.yul\":9041:9059   */\n      tag_473\n      tag_355\n      jump\t// in\n    tag_473:\n        /* \"#utility.yul\":9025:9061   */\n    tag_472:\n        /* \"#utility.yul\":8877:9068   */\n      swap3\n      swap2\n      pop\n      pop\n      jump\t// out\n        /* \"#utility.yul\":9074:9484   */\n    tag_122:\n        /* \"#utility.yul\":9114:9121   */\n      0x00\n        /* \"#utility.yul\":9137:9157   */\n      tag_475\n        /* \"#utility.yul\":9155:9156   */\n      dup3\n        /* \"#utility.yul\":9137:9157   */\n      tag_339\n      jump\t// in\n    tag_475:\n        /* \"#utility.yul\":9132:9157   */\n      swap2\n      pop\n        /* \"#utility.yul\":9171:9191   */\n      tag_476\n        /* \"#utility.yul\":9189:9190   */\n      dup4\n        /* \"#utility.yul\":9171:9191   */\n      tag_339\n      jump\t// in\n    tag_476:\n        /* \"#utility.yul\":9166:9191   */\n      swap3\n      pop\n        /* \"#utility.yul\":9226:9227   */\n      dup3\n        /* \"#utility.yul\":9223:9224   */\n      dup3\n        /* \"#utility.yul\":9219:9228   */\n      mul\n        /* \"#utility.yul\":9248:9278   */\n      tag_477\n        /* \"#utility.yul\":9266:9277   */\n      dup2\n        /* \"#utility.yul\":9248:9278   */\n      tag_339\n      jump\t// in\n    tag_477:\n        /* \"#utility.yul\":9237:9278   */\n      swap2\n      pop\n        /* \"#utility.yul\":9427:9428   */\n      dup3\n        /* \"#utility.yul\":9418:9425   */\n      dup3\n        /* \"#utility.yul\":9414:9429   */\n      div\n        /* \"#utility.yul\":9411:9412   */\n      dup5\n        /* \"#utility.yul\":9408:9430   */\n      eq\n        /* \"#utility.yul\":9388:9389   */\n      dup4\n        /* \"#utility.yul\":9381:9390   */\n      iszero\n        /* \"#utility.yul\":9361:9444   */\n      or\n        /* \"#utility.yul\":9338:9477   */\n      tag_478\n      jumpi\n        /* \"#utility.yul\":9457:9475   */\n      tag_479\n      tag_355\n      jump\t// in\n    tag_479:\n        /* \"#utility.yul\":9338:9477   */\n    tag_478:\n        /* \"#utility.yul\":9122:9484   */\n      pop\n        /* \"#utility.yul\":9074:9484   */\n      swap3\n      swap2\n      pop\n      pop\n      jump\t// out\n        /* \"#utility.yul\":9490:9670   */\n    tag_356:\n        /* \"#utility.yul\":9538:9615   */\n      0x4e487b7100000000000000000000000000000000000000000000000000000000\n        /* \"#utility.yul\":9535:9536   */\n      0x00\n        /* \"#utility.yul\":9528:9616   */\n      mstore\n        /* \"#utility.yul\":9635:9639   */\n      0x12\n        /* \"#utility.yul\":9632:9633   */\n      0x04\n        /* \"#utility.yul\":9625:9640   */\n      mstore\n        /* \"#utility.yul\":9659:9663   */\n      0x24\n        /* \"#utility.yul\":9656:9657   */\n      0x00\n        /* \"#utility.yul\":9649:9664   */\n      revert\n        /* \"#utility.yul\":9676:9861   */\n    tag_124:\n        /* \"#utility.yul\":9716:9717   */\n      0x00\n        /* \"#utility.yul\":9733:9753   */\n      tag_482\n        /* \"#utility.yul\":9751:9752   */\n      dup3\n        /* \"#utility.yul\":9733:9753   */\n      tag_339\n      jump\t// in\n    tag_482:\n        /* \"#utility.yul\":9728:9753   */\n      swap2\n      pop\n        /* \"#utility.yul\":9767:9787   */\n      tag_483\n        /* \"#utility.yul\":9785:9786   */\n      dup4\n        /* \"#utility.yul\":9767:9787   */\n      tag_339\n      jump\t// in\n    tag_483:\n        /* \"#utility.yul\":9762:9787   */\n      swap3\n      pop\n        /* \"#utility.yul\":9806:9807   */\n      dup3\n        /* \"#utility.yul\":9796:9831   */\n      tag_484\n      jumpi\n        /* \"#utility.yul\":9811:9829   */\n      tag_485\n      tag_356\n      jump\t// in\n    tag_485:\n        /* \"#utility.yul\":9796:9831   */\n    tag_484:\n        /* \"#utility.yul\":9853:9854   */\n      dup3\n        /* \"#utility.yul\":9850:9851   */\n      dup3\n        /* \"#utility.yul\":9846:9855   */\n      div\n        /* \"#utility.yul\":9841:9855   */\n      swap1\n      pop\n        /* \"#utility.yul\":9676:9861   */\n      swap3\n      swap2\n      pop\n      pop\n      jump\t// out\n        /* \"#utility.yul\":9867:10036   */\n    tag_357:\n        /* \"#utility.yul\":9951:9962   */\n      0x00\n        /* \"#utility.yul\":9985:9991   */\n      dup3\n        /* \"#utility.yul\":9980:9983   */\n      dup3\n        /* \"#utility.yul\":9973:9992   */\n      mstore\n        /* \"#utility.yul\":10025:10029   */\n      0x20\n        /* \"#utility.yul\":10020:10023   */\n      dup3\n        /* \"#utility.yul\":10016:10030   */\n      add\n        /* \"#utility.yul\":10001:10030   */\n      swap1\n      pop\n        /* \"#utility.yul\":9867:10036   */\n      swap3\n      swap2\n      pop\n      pop\n      jump\t// out\n        /* \"#utility.yul\":10042:10209   */\n    tag_358:\n        /* \"#utility.yul\":10182:10201   */\n      0x6e6f7420656e6f75676820416d6f756e74000000000000000000000000000000\n        /* \"#utility.yul\":10178:10179   */\n      0x00\n        /* \"#utility.yul\":10170:10176   */\n      dup3\n        /* \"#utility.yul\":10166:10180   */\n      add\n        /* \"#utility.yul\":10159:10202   */\n      mstore\n        /* \"#utility.yul\":10042:10209   */\n      pop\n      jump\t// out\n        /* \"#utility.yul\":10215:10581   */\n    tag_359:\n        /* \"#utility.yul\":10357:10360   */\n      0x00\n        /* \"#utility.yul\":10378:10445   */\n      tag_489\n        /* \"#utility.yul\":10442:10444   */\n      0x11\n        /* \"#utility.yul\":10437:10440   */\n      dup4\n        /* \"#utility.yul\":10378:10445   */\n      tag_357\n      jump\t// in\n    tag_489:\n        /* \"#utility.yul\":10371:10445   */\n      swap2\n      pop\n        /* \"#utility.yul\":10454:10547   */\n      tag_490\n        /* \"#utility.yul\":10543:10546   */\n      dup3\n        /* \"#utility.yul\":10454:10547   */\n      tag_358\n      jump\t// in\n    tag_490:\n        /* \"#utility.yul\":10572:10574   */\n      0x20\n        /* \"#utility.yul\":10567:10570   */\n      dup3\n        /* \"#utility.yul\":10563:10575   */\n      add\n        /* \"#utility.yul\":10556:10575   */\n      swap1\n      pop\n        /* \"#utility.yul\":10215:10581   */\n      swap2\n      swap1\n      pop\n      jump\t// out\n        /* \"#utility.yul\":10587:11006   */\n    tag_153:\n        /* \"#utility.yul\":10753:10757   */\n      0x00\n        /* \"#utility.yul\":10791:10793   */\n      0x20\n        /* \"#utility.yul\":10780:10789   */\n      dup3\n        /* \"#utility.yul\":10776:10794   */\n      add\n        /* \"#utility.yul\":10768:10794   */\n      swap1\n      pop\n        /* \"#utility.yul\":10840:10849   */\n      dup2\n        /* \"#utility.yul\":10834:10838   */\n      dup2\n        /* \"#utility.yul\":10830:10850   */\n      sub\n        /* \"#utility.yul\":10826:10827   */\n      0x00\n        /* \"#utility.yul\":10815:10824   */\n      dup4\n        /* \"#utility.yul\":10811:10828   */\n      add\n        /* \"#utility.yul\":10804:10851   */\n      mstore\n        /* \"#utility.yul\":10868:10999   */\n      tag_492\n        /* \"#utility.yul\":10994:10998   */\n      dup2\n        /* \"#utility.yul\":10868:10999   */\n      tag_359\n      jump\t// in\n    tag_492:\n        /* \"#utility.yul\":10860:10999   */\n      swap1\n      pop\n        /* \"#utility.yul\":10587:11006   */\n      swap2\n      swap1\n      pop\n      jump\t// out\n        /* \"#utility.yul\":11012:11245   */\n    tag_158:\n        /* \"#utility.yul\":11051:11054   */\n      0x00\n        /* \"#utility.yul\":11074:11098   */\n      tag_494\n        /* \"#utility.yul\":11092:11097   */\n      dup3\n        /* \"#utility.yul\":11074:11098   */\n      tag_339\n      jump\t// in\n    tag_494:\n        /* \"#utility.yul\":11065:11098   */\n      swap2\n      pop\n        /* \"#utility.yul\":11120:11186   */\n      0xffffffffffffffffffffffffffffffffffffffffffffffffffffffffffffffff\n        /* \"#utility.yul\":11113:11118   */\n      dup3\n        /* \"#utility.yul\":11110:11187   */\n      sub\n        /* \"#utility.yul\":11107:11210   */\n      tag_495\n      jumpi\n        /* \"#utility.yul\":11190:11208   */\n      tag_496\n      tag_355\n      jump\t// in\n    tag_496:\n        /* \"#utility.yul\":11107:11210   */\n    tag_495:\n        /* \"#utility.yul\":11237:11238   */\n      0x01\n        /* \"#utility.yul\":11230:11235   */\n      dup3\n        /* \"#utility.yul\":11226:11239   */\n      add\n        /* \"#utility.yul\":11219:11239   */\n      swap1\n      pop\n        /* \"#utility.yul\":11012:11245   */\n      swap2\n      swap1\n      pop\n      jump\t// out\n        /* \"#utility.yul\":11251:11445   */\n    tag_185:\n        /* \"#utility.yul\":11291:11295   */\n      0x00\n        /* \"#utility.yul\":11311:11331   */\n      tag_498\n        /* \"#utility.yul\":11329:11330   */\n      dup3\n        /* \"#utility.yul\":11311:11331   */\n      tag_339\n      jump\t// in\n    tag_498:\n        /* \"#utility.yul\":11306:11331   */\n      swap2\n      pop\n        /* \"#utility.yul\":11345:11365   */\n      tag_499\n        /* \"#utility.yul\":11363:11364   */\n      dup4\n        /* \"#utility.yul\":11345:11365   */\n      tag_339\n      jump\t// in\n    tag_499:\n        /* \"#utility.yul\":11340:11365   */\n      swap3\n      pop\n        /* \"#utility.yul\":11389:11390   */\n      dup3\n        /* \"#utility.yul\":11386:11387   */\n      dup3\n        /* \"#utility.yul\":11382:11391   */\n      sub\n        /* \"#utility.yul\":11374:11391   */\n      swap1\n      pop\n        /* \"#utility.yul\":11413:11414   */\n      dup2\n        /* \"#utility.yul\":11407:11411   */\n      dup2\n        /* \"#utility.yul\":11404:11415   */\n      gt\n        /* \"#utility.yul\":11401:11438   */\n      iszero\n      tag_500\n      jumpi\n        /* \"#utility.yul\":11418:11436   */\n      tag_501\n      tag_355\n      jump\t// in\n    tag_501:\n        /* \"#utility.yul\":11401:11438   */\n    tag_500:\n        /* \"#utility.yul\":11251:11445   */\n      swap3\n      swap2\n      pop\n      pop\n      jump\t// out\n        /* \"#utility.yul\":11451:11594   */\n    tag_360:\n        /* \"#utility.yul\":11508:11513   */\n      0x00\n        /* \"#utility.yul\":11539:11545   */\n      dup2\n        /* \"#utility.yul\":11533:11546   */\n      mload\n        /* \"#utility.yul\":11524:11546   */\n      swap1\n      pop\n        /* \"#utility.yul\":11555:11588   */\n      tag_503\n        /* \"#utility.yul\":11582:11587   */\n      dup2\n        /* \"#utility.yul\":11555:11588   */\n      tag_340\n      jump\t// in\n    tag_503:\n        /* \"#utility.yul\":11451:11594   */\n      swap3\n      swap2\n      pop\n      pop\n      jump\t// out\n        /* \"#utility.yul\":11600:11951   */\n    tag_194:\n        /* \"#utility.yul\":11670:11676   */\n      0x00\n        /* \"#utility.yul\":11719:11721   */\n      0x20\n        /* \"#utility.yul\":11707:11716   */\n      dup3\n        /* \"#utility.yul\":11698:11705   */\n      dup5\n        /* \"#utility.yul\":11694:11717   */\n      sub\n        /* \"#utility.yul\":11690:11722   */\n      slt\n        /* \"#utility.yul\":11687:11806   */\n      iszero\n      tag_505\n      jumpi\n        /* \"#utility.yul\":11725:11804   */\n      tag_506\n      tag_337\n      jump\t// in\n    tag_506:\n        /* \"#utility.yul\":11687:11806   */\n    tag_505:\n        /* \"#utility.yul\":11845:11846   */\n      0x00\n        /* \"#utility.yul\":11870:11934   */\n      tag_507\n        /* \"#utility.yul\":11926:11933   */\n      dup5\n        /* \"#utility.yul\":11917:11923   */\n      dup3\n        /* \"#utility.yul\":11906:11915   */\n      dup6\n        /* \"#utility.yul\":11902:11924   */\n      add\n        /* \"#utility.yul\":11870:11934   */\n      tag_360\n      jump\t// in\n    tag_507:\n        /* \"#utility.yul\":11860:11934   */\n      swap2\n      pop\n        /* \"#utility.yul\":11816:11944   */\n      pop\n        /* \"#utility.yul\":11600:11951   */\n      swap3\n      swap2\n      pop\n      pop\n      jump\t// out\n        /* \"#utility.yul\":11957:12289   */\n    tag_203:\n        /* \"#utility.yul\":12078:12082   */\n      0x00\n        /* \"#utility.yul\":12116:12118   */\n      0x40\n        /* \"#utility.yul\":12105:12114   */\n      dup3\n        /* \"#utility.yul\":12101:12119   */\n      add\n        /* \"#utility.yul\":12093:12119   */\n      swap1\n      pop\n        /* \"#utility.yul\":12129:12200   */\n      tag_509\n        /* \"#utility.yul\":12197:12198   */\n      0x00\n        /* \"#utility.yul\":12186:12195   */\n      dup4\n        /* \"#utility.yul\":12182:12199   */\n      add\n        /* \"#utility.yul\":12173:12179   */\n      dup6\n        /* \"#utility.yul\":12129:12200   */\n      tag_344\n      jump\t// in\n    tag_509:\n        /* \"#utility.yul\":12210:12282   */\n      tag_510\n        /* \"#utility.yul\":12278:12280   */\n      0x20\n        /* \"#utility.yul\":12267:12276   */\n      dup4\n        /* \"#utility.yul\":12263:12281   */\n      add\n        /* \"#utility.yul\":12254:12260   */\n      dup5\n        /* \"#utility.yul\":12210:12282   */\n      tag_354\n      jump\t// in\n    tag_510:\n        /* \"#utility.yul\":11957:12289   */\n      swap4\n      swap3\n      pop\n      pop\n      pop\n      jump\t// out\n        /* \"#utility.yul\":12295:12411   */\n    tag_361:\n        /* \"#utility.yul\":12365:12386   */\n      tag_512\n        /* \"#utility.yul\":12380:12385   */\n      dup2\n        /* \"#utility.yul\":12365:12386   */\n      tag_347\n      jump\t// in\n    tag_512:\n        /* \"#utility.yul\":12358:12363   */\n      dup2\n        /* \"#utility.yul\":12355:12387   */\n      eq\n        /* \"#utility.yul\":12345:12405   */\n      tag_513\n      jumpi\n        /* \"#utility.yul\":12401:12402   */\n      0x00\n        /* \"#utility.yul\":12398:12399   */\n      dup1\n        /* \"#utility.yul\":12391:12403   */\n      revert\n        /* \"#utility.yul\":12345:12405   */\n    tag_513:\n        /* \"#utility.yul\":12295:12411   */\n      pop\n      jump\t// out\n        /* \"#utility.yul\":12417:12554   */\n    tag_362:\n        /* \"#utility.yul\":12471:12476   */\n      0x00\n        /* \"#utility.yul\":12502:12508   */\n      dup2\n        /* \"#utility.yul\":12496:12509   */\n      mload\n        /* \"#utility.yul\":12487:12509   */\n      swap1\n      pop\n        /* \"#utility.yul\":12518:12548   */\n      tag_515\n        /* \"#utility.yul\":12542:12547   */\n      dup2\n        /* \"#utility.yul\":12518:12548   */\n      tag_361\n      jump\t// in\n    tag_515:\n        /* \"#utility.yul\":12417:12554   */\n      swap3\n      swap2\n      pop\n      pop\n      jump\t// out\n        /* \"#utility.yul\":12560:12905   */\n    tag_207:\n        /* \"#utility.yul\":12627:12633   */\n      0x00\n        /* \"#utility.yul\":12676:12678   */\n      0x20\n        /* \"#utility.yul\":12664:12673   */\n      dup3\n        /* \"#utility.yul\":12655:12662   */\n      dup5\n        /* \"#utility.yul\":12651:12674   */\n      sub\n        /* \"#utility.yul\":12647:12679   */\n      slt\n        /* \"#utility.yul\":12644:12763   */\n      iszero\n      tag_517\n      jumpi\n        /* \"#utility.yul\":12682:12761   */\n      tag_518\n      tag_337\n      jump\t// in\n    tag_518:\n        /* \"#utility.yul\":12644:12763   */\n    tag_517:\n        /* \"#utility.yul\":12802:12803   */\n      0x00\n        /* \"#utility.yul\":12827:12888   */\n      tag_519\n        /* \"#utility.yul\":12880:12887   */\n      dup5\n        /* \"#utility.yul\":12871:12877   */\n      dup3\n        /* \"#utility.yul\":12860:12869   */\n      dup6\n        /* \"#utility.yul\":12856:12878   */\n      add\n        /* \"#utility.yul\":12827:12888   */\n      tag_362\n      jump\t// in\n    tag_519:\n        /* \"#utility.yul\":12817:12888   */\n      swap2\n      pop\n        /* \"#utility.yul\":12773:12898   */\n      pop\n        /* \"#utility.yul\":12560:12905   */\n      swap3\n      swap2\n      pop\n      pop\n      jump\t// out\n        /* \"#utility.yul\":12911:13076   */\n    tag_363:\n        /* \"#utility.yul\":13051:13068   */\n      0x5472616e73666572206661696c65640000000000000000000000000000000000\n        /* \"#utility.yul\":13047:13048   */\n      0x00\n        /* \"#utility.yul\":13039:13045   */\n      dup3\n        /* \"#utility.yul\":13035:13049   */\n      add\n        /* \"#utility.yul\":13028:13069   */\n      mstore\n        /* \"#utility.yul\":12911:13076   */\n      pop\n      jump\t// out\n        /* \"#utility.yul\":13082:13448   */\n    tag_364:\n        /* \"#utility.yul\":13224:13227   */\n      0x00\n        /* \"#utility.yul\":13245:13312   */\n      tag_522\n        /* \"#utility.yul\":13309:13311   */\n      0x0f\n        /* \"#utility.yul\":13304:13307   */\n      dup4\n        /* \"#utility.yul\":13245:13312   */\n      tag_357\n      jump\t// in\n    tag_522:\n        /* \"#utility.yul\":13238:13312   */\n      swap2\n      pop\n        /* \"#utility.yul\":13321:13414   */\n      tag_523\n        /* \"#utility.yul\":13410:13413   */\n      dup3\n        /* \"#utility.yul\":13321:13414   */\n      tag_363\n      jump\t// in\n    tag_523:\n        /* \"#utility.yul\":13439:13441   */\n      0x20\n        /* \"#utility.yul\":13434:13437   */\n      dup3\n        /* \"#utility.yul\":13430:13442   */\n      add\n        /* \"#utility.yul\":13423:13442   */\n      swap1\n      pop\n        /* \"#utility.yul\":13082:13448   */\n      swap2\n      swap1\n      pop\n      jump\t// out\n        /* \"#utility.yul\":13454:13873   */\n    tag_210:\n        /* \"#utility.yul\":13620:13624   */\n      0x00\n        /* \"#utility.yul\":13658:13660   */\n      0x20\n        /* \"#utility.yul\":13647:13656   */\n      dup3\n        /* \"#utility.yul\":13643:13661   */\n      add\n        /* \"#utility.yul\":13635:13661   */\n      swap1\n      pop\n        /* \"#utility.yul\":13707:13716   */\n      dup2\n        /* \"#utility.yul\":13701:13705   */\n      dup2\n        /* \"#utility.yul\":13697:13717   */\n      sub\n        /* \"#utility.yul\":13693:13694   */\n      0x00\n        /* \"#utility.yul\":13682:13691   */\n      dup4\n        /* \"#utility.yul\":13678:13695   */\n      add\n        /* \"#utility.yul\":13671:13718   */\n      mstore\n        /* \"#utility.yul\":13735:13866   */\n      tag_525\n        /* \"#utility.yul\":13861:13865   */\n      dup2\n        /* \"#utility.yul\":13735:13866   */\n      tag_364\n      jump\t// in\n    tag_525:\n        /* \"#utility.yul\":13727:13866   */\n      swap1\n      pop\n        /* \"#utility.yul\":13454:13873   */\n      swap2\n      swap1\n      pop\n      jump\t// out\n        /* \"#utility.yul\":13879:14432   */\n    tag_230:\n        /* \"#utility.yul\":14056:14060   */\n      0x00\n        /* \"#utility.yul\":14094:14097   */\n      0x80\n        /* \"#utility.yul\":14083:14092   */\n      dup3\n        /* \"#utility.yul\":14079:14098   */\n      add\n        /* \"#utility.yul\":14071:14098   */\n      swap1\n      pop\n        /* \"#utility.yul\":14108:14179   */\n      tag_527\n        /* \"#utility.yul\":14176:14177   */\n      0x00\n        /* \"#utility.yul\":14165:14174   */\n      dup4\n        /* \"#utility.yul\":14161:14178   */\n      add\n        /* \"#utility.yul\":14152:14158   */\n      dup8\n        /* \"#utility.yul\":14108:14179   */\n      tag_344\n      jump\t// in\n    tag_527:\n        /* \"#utility.yul\":14189:14261   */\n      tag_528\n        /* \"#utility.yul\":14257:14259   */\n      0x20\n        /* \"#utility.yul\":14246:14255   */\n      dup4\n        /* \"#utility.yul\":14242:14260   */\n      add\n        /* \"#utility.yul\":14233:14239   */\n      dup7\n        /* \"#utility.yul\":14189:14261   */\n      tag_354\n      jump\t// in\n    tag_528:\n        /* \"#utility.yul\":14271:14343   */\n      tag_529\n        /* \"#utility.yul\":14339:14341   */\n      0x40\n        /* \"#utility.yul\":14328:14337   */\n      dup4\n        /* \"#utility.yul\":14324:14342   */\n      add\n        /* \"#utility.yul\":14315:14321   */\n      dup6\n        /* \"#utility.yul\":14271:14343   */\n      tag_354\n      jump\t// in\n    tag_529:\n        /* \"#utility.yul\":14353:14425   */\n      tag_530\n        /* \"#utility.yul\":14421:14423   */\n      0x60\n        /* \"#utility.yul\":14410:14419   */\n      dup4\n        /* \"#utility.yul\":14406:14424   */\n      add\n        /* \"#utility.yul\":14397:14403   */\n      dup5\n        /* \"#utility.yul\":14353:14425   */\n      tag_354\n      jump\t// in\n    tag_530:\n        /* \"#utility.yul\":13879:14432   */\n      swap6\n      swap5\n      pop\n      pop\n      pop\n      pop\n      pop\n      jump\t// out\n        /* \"#utility.yul\":14438:14880   */\n    tag_256:\n        /* \"#utility.yul\":14587:14591   */\n      0x00\n        /* \"#utility.yul\":14625:14627   */\n      0x60\n        /* \"#utility.yul\":14614:14623   */\n      dup3\n        /* \"#utility.yul\":14610:14628   */\n      add\n        /* \"#utility.yul\":14602:14628   */\n      swap1\n      pop\n        /* \"#utility.yul\":14638:14709   */\n      tag_532\n        /* \"#utility.yul\":14706:14707   */\n      0x00\n        /* \"#utility.yul\":14695:14704   */\n      dup4\n        /* \"#utility.yul\":14691:14708   */\n      add\n        /* \"#utility.yul\":14682:14688   */\n      dup7\n        /* \"#utility.yul\":14638:14709   */\n      tag_344\n      jump\t// in\n    tag_532:\n        /* \"#utility.yul\":14719:14791   */\n      tag_533\n        /* \"#utility.yul\":14787:14789   */\n      0x20\n        /* \"#utility.yul\":14776:14785   */\n      dup4\n        /* \"#utility.yul\":14772:14790   */\n      add\n        /* \"#utility.yul\":14763:14769   */\n      dup6\n        /* \"#utility.yul\":14719:14791   */\n      tag_344\n      jump\t// in\n    tag_533:\n        /* \"#utility.yul\":14801:14873   */\n      tag_534\n        /* \"#utility.yul\":14869:14871   */\n      0x40\n        /* \"#utility.yul\":14858:14867   */\n      dup4\n        /* \"#utility.yul\":14854:14872   */\n      add\n        /* \"#utility.yul\":14845:14851   */\n      dup5\n        /* \"#utility.yul\":14801:14873   */\n      tag_354\n      jump\t// in\n    tag_534:\n        /* \"#utility.yul\":14438:14880   */\n      swap5\n      swap4\n      pop\n      pop\n      pop\n      pop\n      jump\t// out\n        /* \"#utility.yul\":14886:15068   */\n    tag_365:\n        /* \"#utility.yul\":15026:15060   */\n      0x536861726573206d7573742062652067726561746572207468616e207a65726f\n        /* \"#utility.yul\":15022:15023   */\n      0x00\n        /* \"#utility.yul\":15014:15020   */\n      dup3\n        /* \"#utility.yul\":15010:15024   */\n      add\n        /* \"#utility.yul\":15003:15061   */\n      mstore\n        /* \"#utility.yul\":14886:15068   */\n      pop\n      jump\t// out\n        /* \"#utility.yul\":15074:15440   */\n    tag_366:\n        /* \"#utility.yul\":15216:15219   */\n      0x00\n        /* \"#utility.yul\":15237:15304   */\n      tag_537\n        /* \"#utility.yul\":15301:15303   */\n      0x20\n        /* \"#utility.yul\":15296:15299   */\n      dup4\n        /* \"#utility.yul\":15237:15304   */\n      tag_357\n      jump\t// in\n    tag_537:\n        /* \"#utility.yul\":15230:15304   */\n      swap2\n      pop\n        /* \"#utility.yul\":15313:15406   */\n      tag_538\n        /* \"#utility.yul\":15402:15405   */\n      dup3\n        /* \"#utility.yul\":15313:15406   */\n      tag_365\n      jump\t// in\n    tag_538:\n        /* \"#utility.yul\":15431:15433   */\n      0x20\n        /* \"#utility.yul\":15426:15429   */\n      dup3\n        /* \"#utility.yul\":15422:15434   */\n      add\n        /* \"#utility.yul\":15415:15434   */\n      swap1\n      pop\n        /* \"#utility.yul\":15074:15440   */\n      swap2\n      swap1\n      pop\n      jump\t// out\n        /* \"#utility.yul\":15446:15865   */\n    tag_272:\n        /* \"#utility.yul\":15612:15616   */\n      0x00\n        /* \"#utility.yul\":15650:15652   */\n      0x20\n        /* \"#utility.yul\":15639:15648   */\n      dup3\n        /* \"#utility.yul\":15635:15653   */\n      add\n        /* \"#utility.yul\":15627:15653   */\n      swap1\n      pop\n        /* \"#utility.yul\":15699:15708   */\n      dup2\n        /* \"#utility.yul\":15693:15697   */\n      dup2\n        /* \"#utility.yul\":15689:15709   */\n      sub\n        /* \"#utility.yul\":15685:15686   */\n      0x00\n        /* \"#utility.yul\":15674:15683   */\n      dup4\n        /* \"#utility.yul\":15670:15687   */\n      add\n        /* \"#utility.yul\":15663:15710   */\n      mstore\n        /* \"#utility.yul\":15727:15858   */\n      tag_540\n        /* \"#utility.yul\":15853:15857   */\n      dup2\n        /* \"#utility.yul\":15727:15858   */\n      tag_366\n      jump\t// in\n    tag_540:\n        /* \"#utility.yul\":15719:15858   */\n      swap1\n      pop\n        /* \"#utility.yul\":15446:15865   */\n      swap2\n      swap1\n      pop\n      jump\t// out\n        /* \"#utility.yul\":15871:16042   */\n    tag_367:\n        /* \"#utility.yul\":16011:16034   */\n      0x5f70726963652063616e6e6f74206265207a65726f0000000000000000000000\n        /* \"#utility.yul\":16007:16008   */\n      0x00\n        /* \"#utility.yul\":15999:16005   */\n      dup3\n        /* \"#utility.yul\":15995:16009   */\n      add\n        /* \"#utility.yul\":15988:16035   */\n      mstore\n        /* \"#utility.yul\":15871:16042   */\n      pop\n      jump\t// out\n        /* \"#utility.yul\":16048:16414   */\n    tag_368:\n        /* \"#utility.yul\":16190:16193   */\n      0x00\n        /* \"#utility.yul\":16211:16278   */\n      tag_543\n        /* \"#utility.yul\":16275:16277   */\n      0x15\n        /* \"#utility.yul\":16270:16273   */\n      dup4\n        /* \"#utility.yul\":16211:16278   */\n      tag_357\n      jump\t// in\n    tag_543:\n        /* \"#utility.yul\":16204:16278   */\n      swap2\n      pop\n        /* \"#utility.yul\":16287:16380   */\n      tag_544\n        /* \"#utility.yul\":16376:16379   */\n      dup3\n        /* \"#utility.yul\":16287:16380   */\n      tag_367\n      jump\t// in\n    tag_544:\n        /* \"#utility.yul\":16405:16407   */\n      0x20\n        /* \"#utility.yul\":16400:16403   */\n      dup3\n        /* \"#utility.yul\":16396:16408   */\n      add\n        /* \"#utility.yul\":16389:16408   */\n      swap1\n      pop\n        /* \"#utility.yul\":16048:16414   */\n      swap2\n      swap1\n      pop\n      jump\t// out\n        /* \"#utility.yul\":16420:16839   */\n    tag_285:\n        /* \"#utility.yul\":16586:16590   */\n      0x00\n        /* \"#utility.yul\":16624:16626   */\n      0x20\n        /* \"#utility.yul\":16613:16622   */\n      dup3\n        /* \"#utility.yul\":16609:16627   */\n      add\n        /* \"#utility.yul\":16601:16627   */\n      swap1\n      pop\n        /* \"#utility.yul\":16673:16682   */\n      dup2\n        /* \"#utility.yul\":16667:16671   */\n      dup2\n        /* \"#utility.yul\":16663:16683   */\n      sub\n        /* \"#utility.yul\":16659:16660   */\n      0x00\n        /* \"#utility.yul\":16648:16657   */\n      dup4\n        /* \"#utility.yul\":16644:16661   */\n      add\n        /* \"#utility.yul\":16637:16684   */\n      mstore\n        /* \"#utility.yul\":16701:16832   */\n      tag_546\n        /* \"#utility.yul\":16827:16831   */\n      dup2\n        /* \"#utility.yul\":16701:16832   */\n      tag_368\n      jump\t// in\n    tag_546:\n        /* \"#utility.yul\":16693:16832   */\n      swap1\n      pop\n        /* \"#utility.yul\":16420:16839   */\n      swap2\n      swap1\n      pop\n      jump\t// out\n        /* \"#utility.yul\":16845:17398   */\n    tag_315:\n        /* \"#utility.yul\":17022:17026   */\n      0x00\n        /* \"#utility.yul\":17060:17063   */\n      0x80\n        /* \"#utility.yul\":17049:17058   */\n      dup3\n        /* \"#utility.yul\":17045:17064   */\n      add\n        /* \"#utility.yul\":17037:17064   */\n      swap1\n      pop\n        /* \"#utility.yul\":17074:17145   */\n      tag_548\n        /* \"#utility.yul\":17142:17143   */\n      0x00\n        /* \"#utility.yul\":17131:17140   */\n      dup4\n        /* \"#utility.yul\":17127:17144   */\n      add\n        /* \"#utility.yul\":17118:17124   */\n      dup8\n        /* \"#utility.yul\":17074:17145   */\n      tag_344\n      jump\t// in\n    tag_548:\n        /* \"#utility.yul\":17155:17227   */\n      tag_549\n        /* \"#utility.yul\":17223:17225   */\n      0x20\n        /* \"#utility.yul\":17212:17221   */\n      dup4\n        /* \"#utility.yul\":17208:17226   */\n      add\n        /* \"#utility.yul\":17199:17205   */\n      dup7\n        /* \"#utility.yul\":17155:17227   */\n      tag_344\n      jump\t// in\n    tag_549:\n        /* \"#utility.yul\":17237:17309   */\n      tag_550\n        /* \"#utility.yul\":17305:17307   */\n      0x40\n        /* \"#utility.yul\":17294:17303   */\n      dup4\n        /* \"#utility.yul\":17290:17308   */\n      add\n        /* \"#utility.yul\":17281:17287   */\n      dup6\n        /* \"#utility.yul\":17237:17309   */\n      tag_354\n      jump\t// in\n    tag_550:\n        /* \"#utility.yul\":17319:17391   */\n      tag_551\n        /* \"#utility.yul\":17387:17389   */\n      0x60\n        /* \"#utility.yul\":17376:17385   */\n      dup4\n        /* \"#utility.yul\":17372:17390   */\n      add\n        /* \"#utility.yul\":17363:17369   */\n      dup5\n        /* \"#utility.yul\":17319:17391   */\n      tag_354\n      jump\t// in\n    tag_551:\n        /* \"#utility.yul\":16845:17398   */\n      swap6\n      swap5\n      pop\n      pop\n      pop\n      pop\n      pop\n      jump\t// out\n        /* \"#utility.yul\":17404:17624   */\n    tag_369:\n        /* \"#utility.yul\":17544:17578   */\n      0x5f746f74616c5374616b65416d6f756e742063616e206e6f74206265207a6572\n        /* \"#utility.yul\":17540:17541   */\n      0x00\n        /* \"#utility.yul\":17532:17538   */\n      dup3\n        /* \"#utility.yul\":17528:17542   */\n      add\n        /* \"#utility.yul\":17521:17579   */\n      mstore\n        /* \"#utility.yul\":17613:17616   */\n      0x6f00000000000000000000000000000000000000000000000000000000000000\n        /* \"#utility.yul\":17608:17610   */\n      0x20\n        /* \"#utility.yul\":17600:17606   */\n      dup3\n        /* \"#utility.yul\":17596:17611   */\n      add\n        /* \"#utility.yul\":17589:17617   */\n      mstore\n        /* \"#utility.yul\":17404:17624   */\n      pop\n      jump\t// out\n        /* \"#utility.yul\":17630:17996   */\n    tag_370:\n        /* \"#utility.yul\":17772:17775   */\n      0x00\n        /* \"#utility.yul\":17793:17860   */\n      tag_554\n        /* \"#utility.yul\":17857:17859   */\n      0x21\n        /* \"#utility.yul\":17852:17855   */\n      dup4\n        /* \"#utility.yul\":17793:17860   */\n      tag_357\n      jump\t// in\n    tag_554:\n        /* \"#utility.yul\":17786:17860   */\n      swap2\n      pop\n        /* \"#utility.yul\":17869:17962   */\n      tag_555\n        /* \"#utility.yul\":17958:17961   */\n      dup3\n        /* \"#utility.yul\":17869:17962   */\n      tag_369\n      jump\t// in\n    tag_555:\n        /* \"#utility.yul\":17987:17989   */\n      0x40\n        /* \"#utility.yul\":17982:17985   */\n      dup3\n        /* \"#utility.yul\":17978:17990   */\n      add\n        /* \"#utility.yul\":17971:17990   */\n      swap1\n      pop\n        /* \"#utility.yul\":17630:17996   */\n      swap2\n      swap1\n      pop\n      jump\t// out\n        /* \"#utility.yul\":18002:18421   */\n    tag_322:\n        /* \"#utility.yul\":18168:18172   */\n      0x00\n        /* \"#utility.yul\":18206:18208   */\n      0x20\n        /* \"#utility.yul\":18195:18204   */\n      dup3\n        /* \"#utility.yul\":18191:18209   */\n      add\n        /* \"#utility.yul\":18183:18209   */\n      swap1\n      pop\n        /* \"#utility.yul\":18255:18264   */\n      dup2\n        /* \"#utility.yul\":18249:18253   */\n      dup2\n        /* \"#utility.yul\":18245:18265   */\n      sub\n        /* \"#utility.yul\":18241:18242   */\n      0x00\n        /* \"#utility.yul\":18230:18239   */\n      dup4\n        /* \"#utility.yul\":18226:18243   */\n      add\n        /* \"#utility.yul\":18219:18266   */\n      mstore\n        /* \"#utility.yul\":18283:18414   */\n      tag_557\n        /* \"#utility.yul\":18409:18413   */\n      dup2\n        /* \"#utility.yul\":18283:18414   */\n      tag_370\n      jump\t// in\n    tag_557:\n        /* \"#utility.yul\":18275:18414   */\n      swap1\n      pop\n        /* \"#utility.yul\":18002:18421   */\n      swap2\n      swap1\n      pop\n      jump\t// out\n\n    auxdata: 0xa2646970667358221220843be86c186dbb2d0b9ede340935e1dd935147a90d76f0c9773d9f58b93f3b9064736f6c634300081a0033\n}\n",
				"bytecode": {
					"linkReferences": {},
					"object": "608060405234801561000f575f80fd5b5060405161416f38038061416f8339818101604052810190610031919061035b565b825f73ffffffffffffffffffffffffffffffffffffffff168173ffffffffffffffffffffffffffffffffffffffff16036100a2575f6040517f1e4fbdf700000000000000000000000000000000000000000000000000000000815260040161009991906103ba565b60405180910390fd5b6100b18161020960201b60201c565b508060065f3073ffffffffffffffffffffffffffffffffffffffff1673ffffffffffffffffffffffffffffffffffffffff1681526020019081526020015f20600101819055506706f05b59d3b2000060065f3073ffffffffffffffffffffffffffffffffffffffff1673ffffffffffffffffffffffffffffffffffffffff1681526020019081526020015f206004015f60028110610152576101516103d3565b5b01819055506706f05b59d3b2000060065f3073ffffffffffffffffffffffffffffffffffffffff1673ffffffffffffffffffffffffffffffffffffffff1681526020019081526020015f206004016001600281106101b3576101b26103d3565b5b01819055508160015f6101000a81548173ffffffffffffffffffffffffffffffffffffffff021916908373ffffffffffffffffffffffffffffffffffffffff1602179055506103e8600381905550505050610400565b5f805f9054906101000a900473ffffffffffffffffffffffffffffffffffffffff169050815f806101000a81548173ffffffffffffffffffffffffffffffffffffffff021916908373ffffffffffffffffffffffffffffffffffffffff1602179055508173ffffffffffffffffffffffffffffffffffffffff168173ffffffffffffffffffffffffffffffffffffffff167f8be0079c531659141344cd1fd0a4f28419497f9722a3daafe3b4186f6b6457e060405160405180910390a35050565b5f80fd5b5f73ffffffffffffffffffffffffffffffffffffffff82169050919050565b5f6102f7826102ce565b9050919050565b610307816102ed565b8114610311575f80fd5b50565b5f81519050610322816102fe565b92915050565b5f819050919050565b61033a81610328565b8114610344575f80fd5b50565b5f8151905061035581610331565b92915050565b5f805f60608486031215610372576103716102ca565b5b5f61037f86828701610314565b935050602061039086828701610314565b92505060406103a186828701610347565b9150509250925092565b6103b4816102ed565b82525050565b5f6020820190506103cd5f8301846103ab565b92915050565b7f4e487b71000000000000000000000000000000000000000000000000000000005f52603260045260245ffd5b613d628061040d5f395ff3fe608060405234801561000f575f80fd5b506004361061012a575f3560e01c80636ffcc719116100ab578063b677d9d21161006f578063b677d9d214610376578063bff1f9e114610394578063c4351386146103b2578063f2fde38b146103e7578063fbea0b06146104035761012a565b80636ffcc719146102d2578063715018a6146102ee57806384b5aca6146102f85780638da5cb5b14610328578063b3c740e8146103465761012a565b806321d0d9af116100f257806321d0d9af146101ff5780633774ca2514610230578063456e62ba1461026557806361d464ef146102815780636399d03d146102b65761012a565b806308ef962e1461012e5780630efa82f61461015e57806311eac8551461018e5780631959a002146101ac578063208c86a4146101e0575b5f80fd5b610148600480360381019061014391906133ec565b61041f565b6040516101559190613456565b60405180910390f35b61017860048036038101906101739190613499565b61044f565b60405161018591906134f1565b60405180910390f35b6101966104b4565b6040516101a39190613565565b60405180910390f35b6101c660048036038101906101c1919061357e565b6104d9565b6040516101d79594939291906135b8565b60405180910390f35b6101e861050b565b6040516101f6929190613609565b60405180910390f35b61021960048036038101906102149190613630565b6105be565b604051610227929190613609565b60405180910390f35b61024a60048036038101906102459190613499565b6106b5565b60405161025c9695949392919061366e565b60405180910390f35b61027f600480360381019061027a91906136cd565b6108e7565b005b61029b60048036038101906102969190613499565b611062565b6040516102ad9695949392919061366e565b60405180910390f35b6102d060048036038101906102cb91906133ec565b6110dc565b005b6102ec60048036038101906102e79190613630565b611e3e565b005b6102f661250a565b005b610312600480360381019061030d9190613630565b61251d565b60405161031f919061371d565b60405180910390f35b6103306125d8565b60405161033d9190613456565b60405180910390f35b610360600480360381019061035b9190613630565b6125ff565b60405161036d919061371d565b60405180910390f35b61037e6126b3565b60405161038b919061371d565b60405180910390f35b61039c6126b9565b6040516103a9919061371d565b60405180910390f35b6103cc60048036038101906103c7919061357e565b6126bf565b6040516103de96959493929190613736565b60405180910390f35b61040160048036038101906103fc919061357e565b612703565b005b61041d60048036038101906104189190613795565b612787565b005b6004602052805f5260405f205f915054906101000a900473ffffffffffffffffffffffffffffffffffffffff1681565b5f60055f8473ffffffffffffffffffffffffffffffffffffffff1673ffffffffffffffffffffffffffffffffffffffff1681526020019081526020015f206005015f8381526020019081526020015f205f9054906101000a900460ff16905092915050565b60015f9054906101000a900473ffffffffffffffffffffffffffffffffffffffff1681565b6005602052805f5260405f205f91509050805f0154908060010154908060020154908060030154908060040154905085565b5f8060065f3073ffffffffffffffffffffffffffffffffffffffff1673ffffffffffffffffffffffffffffffffffffffff1681526020019081526020015f206004015f6002811061055f5761055e6137d3565b5b015460065f3073ffffffffffffffffffffffffffffffffffffffff1673ffffffffffffffffffffffffffffffffffffffff1681526020019081526020015f206004016001600281106105b4576105b36137d3565b5b0154915091509091565b5f805f83856105cd919061382d565b90505f81036105ea576706f05b59d3b200008092509250506106ae565b5f816064866105f99190613860565b61060391906138ce565b90505f826064886106149190613860565b61061e91906138ce565b9050662386f26fc100006106596001606460638661063c9190613860565b61064691906138ce565b610650919061382d565b6001606461318f565b6106639190613860565b9450662386f26fc1000061069e600160646063856106819190613860565b61068b91906138ce565b610695919061382d565b6001606461318f565b6106a89190613860565b93505050505b9250929050565b5f805f805f8060075f8973ffffffffffffffffffffffffffffffffffffffff1673ffffffffffffffffffffffffffffffffffffffff1681526020019081526020015f205f8881526020019081526020015f205f015f9054906101000a900460ff1660075f8a73ffffffffffffffffffffffffffffffffffffffff1673ffffffffffffffffffffffffffffffffffffffff1681526020019081526020015f205f8981526020019081526020015f205f0160019054906101000a900460ff1660075f8b73ffffffffffffffffffffffffffffffffffffffff1673ffffffffffffffffffffffffffffffffffffffff1681526020019081526020015f205f8a81526020019081526020015f205f0160029054906101000a900473ffffffffffffffffffffffffffffffffffffffff1660075f8c73ffffffffffffffffffffffffffffffffffffffff1673ffffffffffffffffffffffffffffffffffffffff1681526020019081526020015f205f8b81526020019081526020015f206001015460075f8d73ffffffffffffffffffffffffffffffffffffffff1673ffffffffffffffffffffffffffffffffffffffff1681526020019081526020015f205f8c81526020019081526020015f206002015460075f8e73ffffffffffffffffffffffffffffffffffffffff1673ffffffffffffffffffffffffffffffffffffffff1681526020019081526020015f205f8d81526020019081526020015f20600301549550955095509550955095509295509295509295565b5f81141580156108f8575060018114155b1561093a57806040517fd7acbe89000000000000000000000000000000000000000000000000000000008152600401610931919061371d565b60405180910390fd5b5f831161097e57826040517f2ff47830000000000000000000000000000000000000000000000000000000008152600401610975919061371d565b60405180910390fd5b60065f3073ffffffffffffffffffffffffffffffffffffffff1673ffffffffffffffffffffffffffffffffffffffff1681526020019081526020015f205f015f9054906101000a900460ff1615610a01576040517f853fd42100000000000000000000000000000000000000000000000000000000815260040160405180910390fd5b60055f3373ffffffffffffffffffffffffffffffffffffffff1673ffffffffffffffffffffffffffffffffffffffff1681526020019081526020015f206005015f8281526020019081526020015f205f9054906101000a900460ff16610af95760055f3373ffffffffffffffffffffffffffffffffffffffff1673ffffffffffffffffffffffffffffffffffffffff1681526020019081526020015f206005015f8281526020019081526020015f205f9054906101000a900460ff166040517f3c3a3128000000000000000000000000000000000000000000000000000000008152600401610af091906134f1565b60405180910390fd5b5f8211610b3d57816040517fbfc19482000000000000000000000000000000000000000000000000000000008152600401610b34919061371d565b60405180910390fd5b5f8103610bcc5760055f3373ffffffffffffffffffffffffffffffffffffffff1673ffffffffffffffffffffffffffffffffffffffff1681526020019081526020015f2060010154831115610bc7576040517f08c379a0000000000000000000000000000000000000000000000000000000008152600401610bbe90613958565b60405180910390fd5b610c50565b60055f3373ffffffffffffffffffffffffffffffffffffffff1673ffffffffffffffffffffffffffffffffffffffff1681526020019081526020015f2060030154831115610c4f576040517f08c379a0000000000000000000000000000000000000000000000000000000008152600401610c4690613958565b60405180910390fd5b5b60055f3373ffffffffffffffffffffffffffffffffffffffff1673ffffffffffffffffffffffffffffffffffffffff1681526020019081526020015f205f015f815480929190610c9f90613976565b9190505550600160075f3373ffffffffffffffffffffffffffffffffffffffff1673ffffffffffffffffffffffffffffffffffffffff1681526020019081526020015f205f60055f3373ffffffffffffffffffffffffffffffffffffffff1673ffffffffffffffffffffffffffffffffffffffff1681526020019081526020015f205f015481526020019081526020015f205f015f6101000a81548160ff0219169083151502179055508160075f3373ffffffffffffffffffffffffffffffffffffffff1673ffffffffffffffffffffffffffffffffffffffff1681526020019081526020015f205f60055f3373ffffffffffffffffffffffffffffffffffffffff1673ffffffffffffffffffffffffffffffffffffffff1681526020019081526020015f205f015481526020019081526020015f20600101819055508260075f3373ffffffffffffffffffffffffffffffffffffffff1673ffffffffffffffffffffffffffffffffffffffff1681526020019081526020015f205f60055f3373ffffffffffffffffffffffffffffffffffffffff1673ffffffffffffffffffffffffffffffffffffffff1681526020019081526020015f205f015481526020019081526020015f20600201819055503360075f3373ffffffffffffffffffffffffffffffffffffffff1673ffffffffffffffffffffffffffffffffffffffff1681526020019081526020015f205f60055f3373ffffffffffffffffffffffffffffffffffffffff1673ffffffffffffffffffffffffffffffffffffffff1681526020019081526020015f205f015481526020019081526020015f205f0160026101000a81548173ffffffffffffffffffffffffffffffffffffffff021916908373ffffffffffffffffffffffffffffffffffffffff1602179055508060075f3373ffffffffffffffffffffffffffffffffffffffff1673ffffffffffffffffffffffffffffffffffffffff1681526020019081526020015f205f60055f3373ffffffffffffffffffffffffffffffffffffffff1673ffffffffffffffffffffffffffffffffffffffff1681526020019081526020015f205f015481526020019081526020015f20600301819055503373ffffffffffffffffffffffffffffffffffffffff167f578d9bb67ff50e6081576125ad4c2410d6e82de6dbc1a5dcac37f8e5aa9ca4f460055f3373ffffffffffffffffffffffffffffffffffffffff1673ffffffffffffffffffffffffffffffffffffffff1681526020019081526020015f205f015484604051611055929190613609565b60405180910390a2505050565b6007602052815f5260405f20602052805f5260405f205f9150915050805f015f9054906101000a900460ff1690805f0160019054906101000a900460ff1690805f0160029054906101000a900473ffffffffffffffffffffffffffffffffffffffff16908060010154908060020154908060030154905086565b5f81141580156110ed575060018114155b1561112f57806040517fd7acbe89000000000000000000000000000000000000000000000000000000008152600401611126919061371d565b60405180910390fd5b60065f3073ffffffffffffffffffffffffffffffffffffffff1673ffffffffffffffffffffffffffffffffffffffff1681526020019081526020015f205f015f9054906101000a900460ff16156111b2576040517f853fd42100000000000000000000000000000000000000000000000000000000815260040160405180910390fd5b4260065f3073ffffffffffffffffffffffffffffffffffffffff1673ffffffffffffffffffffffffffffffffffffffff1681526020019081526020015f206001015411156112775760065f3073ffffffffffffffffffffffffffffffffffffffff1673ffffffffffffffffffffffffffffffffffffffff1681526020019081526020015f20600101546040517f79073e7b00000000000000000000000000000000000000000000000000000000815260040161126e919061371d565b60405180910390fd5b5f805f90505b6002548110156116885760055f60045f8481526020019081526020015f205f9054906101000a900473ffffffffffffffffffffffffffffffffffffffff1673ffffffffffffffffffffffffffffffffffffffff1673ffffffffffffffffffffffffffffffffffffffff1681526020019081526020015f206005015f8481526020019081526020015f205f9054906101000a900460ff161561167b575f8314801561139757505f60055f60045f8581526020019081526020015f205f9054906101000a900473ffffffffffffffffffffffffffffffffffffffff1673ffffffffffffffffffffffffffffffffffffffff1673ffffffffffffffffffffffffffffffffffffffff1681526020019081526020015f206001015414155b1561150d5761141660055f60045f8581526020019081526020015f205f9054906101000a900473ffffffffffffffffffffffffffffffffffffffff1673ffffffffffffffffffffffffffffffffffffffff1673ffffffffffffffffffffffffffffffffffffffff1681526020019081526020015f2060010154846125ff565b60055f60045f8581526020019081526020015f205f9054906101000a900473ffffffffffffffffffffffffffffffffffffffff1673ffffffffffffffffffffffffffffffffffffffff1673ffffffffffffffffffffffffffffffffffffffff1681526020019081526020015f206004018190555060055f60045f8481526020019081526020015f205f9054906101000a900473ffffffffffffffffffffffffffffffffffffffff1673ffffffffffffffffffffffffffffffffffffffff1673ffffffffffffffffffffffffffffffffffffffff1681526020019081526020015f206004015482611506919061382d565b915061167a565b61158760055f60045f8581526020019081526020015f205f9054906101000a900473ffffffffffffffffffffffffffffffffffffffff1673ffffffffffffffffffffffffffffffffffffffff1673ffffffffffffffffffffffffffffffffffffffff1681526020019081526020015f2060030154846125ff565b60055f60045f8581526020019081526020015f205f9054906101000a900473ffffffffffffffffffffffffffffffffffffffff1673ffffffffffffffffffffffffffffffffffffffff1673ffffffffffffffffffffffffffffffffffffffff1681526020019081526020015f206004018190555060055f60045f8481526020019081526020015f205f9054906101000a900473ffffffffffffffffffffffffffffffffffffffff1673ffffffffffffffffffffffffffffffffffffffff1673ffffffffffffffffffffffffffffffffffffffff1681526020019081526020015f206004015482611677919061382d565b91505b5b808060010191505061127d565b505f8160065f3073ffffffffffffffffffffffffffffffffffffffff1673ffffffffffffffffffffffffffffffffffffffff1681526020019081526020015f20600301546116d691906138ce565b90505f805f90505b600254811015611b405760055f60045f8481526020019081526020015f205f9054906101000a900473ffffffffffffffffffffffffffffffffffffffff1673ffffffffffffffffffffffffffffffffffffffff1673ffffffffffffffffffffffffffffffffffffffff1681526020019081526020015f206005015f8681526020019081526020015f205f9054906101000a900460ff1615611b33575f8360055f60045f8681526020019081526020015f205f9054906101000a900473ffffffffffffffffffffffffffffffffffffffff1673ffffffffffffffffffffffffffffffffffffffff1673ffffffffffffffffffffffffffffffffffffffff1681526020019081526020015f20600401546117f69190613860565b90505f60055f60045f8681526020019081526020015f205f9054906101000a900473ffffffffffffffffffffffffffffffffffffffff1673ffffffffffffffffffffffffffffffffffffffff1673ffffffffffffffffffffffffffffffffffffffff1681526020019081526020015f20600401548261187591906139bd565b90505f611884826003546131bb565b90508085611892919061382d565b945080836118a091906139bd565b60015f9054906101000a900473ffffffffffffffffffffffffffffffffffffffff1673ffffffffffffffffffffffffffffffffffffffff166370a08231306040518263ffffffff1660e01b81526004016118fa9190613456565b602060405180830381865afa158015611915573d5f803e3d5ffd5b505050506040513d601f19601f820116820180604052508101906119399190613a04565b1015611a145760015f9054906101000a900473ffffffffffffffffffffffffffffffffffffffff1673ffffffffffffffffffffffffffffffffffffffff166370a08231306040518263ffffffff1660e01b81526004016119999190613456565b602060405180830381865afa1580156119b4573d5f803e3d5ffd5b505050506040513d601f19601f820116820180604052508101906119d89190613a04565b6040517ff9ae0cb4000000000000000000000000000000000000000000000000000000008152600401611a0b919061371d565b60405180910390fd5b5f60015f9054906101000a900473ffffffffffffffffffffffffffffffffffffffff1673ffffffffffffffffffffffffffffffffffffffff1663a9059cbb60045f8881526020019081526020015f205f9054906101000a900473ffffffffffffffffffffffffffffffffffffffff168487611a8f91906139bd565b6040518363ffffffff1660e01b8152600401611aac929190613a2f565b6020604051808303815f875af1158015611ac8573d5f803e3d5ffd5b505050506040513d601f19601f82011682018060405250810190611aec9190613a80565b905080611b2e576040517f08c379a0000000000000000000000000000000000000000000000000000000008152600401611b2590613af5565b60405180910390fd5b505050505b80806001019150506116de565b508060015f9054906101000a900473ffffffffffffffffffffffffffffffffffffffff1673ffffffffffffffffffffffffffffffffffffffff166370a08231306040518263ffffffff1660e01b8152600401611b9c9190613456565b602060405180830381865afa158015611bb7573d5f803e3d5ffd5b505050506040513d601f19601f82011682018060405250810190611bdb9190613a04565b1015611cb65760015f9054906101000a900473ffffffffffffffffffffffffffffffffffffffff1673ffffffffffffffffffffffffffffffffffffffff166370a08231306040518263ffffffff1660e01b8152600401611c3b9190613456565b602060405180830381865afa158015611c56573d5f803e3d5ffd5b505050506040513d601f19601f82011682018060405250810190611c7a9190613a04565b6040517fba9c3e4f000000000000000000000000000000000000000000000000000000008152600401611cad919061371d565b60405180910390fd5b600160065f3073ffffffffffffffffffffffffffffffffffffffff1673ffffffffffffffffffffffffffffffffffffffff1681526020019081526020015f205f015f6101000a81548160ff0219169083151502179055505f60015f9054906101000a900473ffffffffffffffffffffffffffffffffffffffff1673ffffffffffffffffffffffffffffffffffffffff1663a9059cbb611d536125d8565b846040518363ffffffff1660e01b8152600401611d71929190613a2f565b6020604051808303815f875af1158015611d8d573d5f803e3d5ffd5b505050506040513d601f19601f82011682018060405250810190611db19190613a80565b905080611df3576040517f08c379a0000000000000000000000000000000000000000000000000000000008152600401611dea90613af5565b60405180910390fd5b7f4d21af759c8d2f25c6246594b4cfc2edeb2b901bc0c6e87f5e21c212a12ca1fd611e1c6125d8565b838588604051611e2f9493929190613b13565b60405180910390a15050505050565b5f8114158015611e4f575060018114155b15611e9157806040517fd7acbe89000000000000000000000000000000000000000000000000000000008152600401611e88919061371d565b60405180910390fd5b5f8211611ed557816040517f2ff47830000000000000000000000000000000000000000000000000000000008152600401611ecc919061371d565b60405180910390fd5b60065f3073ffffffffffffffffffffffffffffffffffffffff1673ffffffffffffffffffffffffffffffffffffffff1681526020019081526020015f205f015f9054906101000a900460ff1615611f58576040517f853fd42100000000000000000000000000000000000000000000000000000000815260040160405180910390fd5b60055f3373ffffffffffffffffffffffffffffffffffffffff1673ffffffffffffffffffffffffffffffffffffffff1681526020019081526020015f206005015f8281526020019081526020015f205f9054906101000a900460ff16612021573360045f60025481526020019081526020015f205f6101000a81548173ffffffffffffffffffffffffffffffffffffffff021916908373ffffffffffffffffffffffffffffffffffffffff16021790555060025f81548092919061201b90613976565b91905055505b5f81036120d85760065f3073ffffffffffffffffffffffffffffffffffffffff1673ffffffffffffffffffffffffffffffffffffffff1681526020019081526020015f206007015f81548092919061207890613976565b91905055508160055f3373ffffffffffffffffffffffffffffffffffffffff1673ffffffffffffffffffffffffffffffffffffffff1681526020019081526020015f206001015f8282546120cc919061382d565b92505081905550612184565b60065f3073ffffffffffffffffffffffffffffffffffffffff1673ffffffffffffffffffffffffffffffffffffffff1681526020019081526020015f206006015f81548092919061212890613976565b91905055508160055f3373ffffffffffffffffffffffffffffffffffffffff1673ffffffffffffffffffffffffffffffffffffffff1681526020019081526020015f206003015f82825461217c919061382d565b925050819055505b8160065f3073ffffffffffffffffffffffffffffffffffffffff1673ffffffffffffffffffffffffffffffffffffffff1681526020019081526020015f206003015f8282546121d3919061382d565b9250508190555060065f3073ffffffffffffffffffffffffffffffffffffffff1673ffffffffffffffffffffffffffffffffffffffff1681526020019081526020015f206002015f81548092919061222a90613976565b9190505550600160055f3373ffffffffffffffffffffffffffffffffffffffff1673ffffffffffffffffffffffffffffffffffffffff1681526020019081526020015f206005015f8381526020019081526020015f205f6101000a81548160ff02191690831515021790555061232060065f3073ffffffffffffffffffffffffffffffffffffffff1673ffffffffffffffffffffffffffffffffffffffff1681526020019081526020015f206007015460065f3073ffffffffffffffffffffffffffffffffffffffff1673ffffffffffffffffffffffffffffffffffffffff1681526020019081526020015f20600601546105be565b60065f3073ffffffffffffffffffffffffffffffffffffffff1673ffffffffffffffffffffffffffffffffffffffff1681526020019081526020015f206004015f60028110612372576123716137d3565b5b015f60065f3073ffffffffffffffffffffffffffffffffffffffff1673ffffffffffffffffffffffffffffffffffffffff1681526020019081526020015f206004016001600281106123c7576123c66137d3565b5b015f8491905055839190505550505f60015f9054906101000a900473ffffffffffffffffffffffffffffffffffffffff1673ffffffffffffffffffffffffffffffffffffffff166323b872dd3330866040518463ffffffff1660e01b815260040161243493929190613b56565b6020604051808303815f875af1158015612450573d5f803e3d5ffd5b505050506040513d601f19601f820116820180604052508101906124749190613a80565b9050806124b6576040517f08c379a00000000000000000000000000000000000000000000000000000000081526004016124ad90613af5565b60405180910390fd5b823373ffffffffffffffffffffffffffffffffffffffff167ff41b7910e085d0992d604fd470931728fd77cc8eb504d99e50e51a0a30fcfd1a846040516124fd919061371d565b60405180910390a3505050565b612512613266565b61251b5f6132ed565b565b5f808311612560576040517f08c379a000000000000000000000000000000000000000000000000000000000815260040161255790613bd5565b60405180910390fd5b5f606460065f3073ffffffffffffffffffffffffffffffffffffffff1673ffffffffffffffffffffffffffffffffffffffff1681526020019081526020015f2060040184600281106125b5576125b46137d3565b5b0154856125c29190613860565b6125cc91906138ce565b90508091505092915050565b5f805f9054906101000a900473ffffffffffffffffffffffffffffffffffffffff16905090565b5f8060065f3073ffffffffffffffffffffffffffffffffffffffff1673ffffffffffffffffffffffffffffffffffffffff1681526020019081526020015f206004018360028110612653576126526137d3565b5b015490505f8103612699576040517f08c379a000000000000000000000000000000000000000000000000000000000815260040161269090613c3d565b60405180910390fd5b5f81856126a691906138ce565b9050809250505092915050565b60035481565b60025481565b6006602052805f5260405f205f91509050805f015f9054906101000a900460ff16908060010154908060020154908060030154908060060154908060070154905086565b61270b613266565b5f73ffffffffffffffffffffffffffffffffffffffff168173ffffffffffffffffffffffffffffffffffffffff160361277b575f6040517f1e4fbdf70000000000000000000000000000000000000000000000000000000081526004016127729190613456565b60405180910390fd5b612784816132ed565b50565b60075f8273ffffffffffffffffffffffffffffffffffffffff1673ffffffffffffffffffffffffffffffffffffffff1681526020019081526020015f205f8381526020019081526020015f205f015f9054906101000a900460ff1661282357816040517f1599706800000000000000000000000000000000000000000000000000000000815260040161281a919061371d565b60405180910390fd5b60075f8273ffffffffffffffffffffffffffffffffffffffff1673ffffffffffffffffffffffffffffffffffffffff1681526020019081526020015f205f8381526020019081526020015f205f0160019054906101000a900460ff161561291c5760075f8273ffffffffffffffffffffffffffffffffffffffff1673ffffffffffffffffffffffffffffffffffffffff1681526020019081526020015f205f8381526020019081526020015f205f0160019054906101000a900460ff166040517fca1c6eb300000000000000000000000000000000000000000000000000000000815260040161291391906134f1565b60405180910390fd5b60065f3073ffffffffffffffffffffffffffffffffffffffff1673ffffffffffffffffffffffffffffffffffffffff1681526020019081526020015f205f015f9054906101000a900460ff161561299f576040517f853fd42100000000000000000000000000000000000000000000000000000000815260040160405180910390fd5b8073ffffffffffffffffffffffffffffffffffffffff1660075f8373ffffffffffffffffffffffffffffffffffffffff1673ffffffffffffffffffffffffffffffffffffffff1681526020019081526020015f205f8481526020019081526020015f205f0160029054906101000a900473ffffffffffffffffffffffffffffffffffffffff1673ffffffffffffffffffffffffffffffffffffffff1614612a7d57806040517ff6b79c58000000000000000000000000000000000000000000000000000000008152600401612a749190613456565b60405180910390fd5b600160075f8373ffffffffffffffffffffffffffffffffffffffff1673ffffffffffffffffffffffffffffffffffffffff1681526020019081526020015f205f8481526020019081526020015f205f0160016101000a81548160ff0219169083151502179055503360075f8373ffffffffffffffffffffffffffffffffffffffff1673ffffffffffffffffffffffffffffffffffffffff1681526020019081526020015f205f8481526020019081526020015f205f0160026101000a81548173ffffffffffffffffffffffffffffffffffffffff021916908373ffffffffffffffffffffffffffffffffffffffff1602179055505f60075f8373ffffffffffffffffffffffffffffffffffffffff1673ffffffffffffffffffffffffffffffffffffffff1681526020019081526020015f205f8481526020019081526020015f206003015403612d165760075f8273ffffffffffffffffffffffffffffffffffffffff1673ffffffffffffffffffffffffffffffffffffffff1681526020019081526020015f205f8381526020019081526020015f206002015460055f3373ffffffffffffffffffffffffffffffffffffffff1673ffffffffffffffffffffffffffffffffffffffff1681526020019081526020015f206001015f828254612c65919061382d565b9250508190555060075f8273ffffffffffffffffffffffffffffffffffffffff1673ffffffffffffffffffffffffffffffffffffffff1681526020019081526020015f205f8381526020019081526020015f206002015460055f8373ffffffffffffffffffffffffffffffffffffffff1673ffffffffffffffffffffffffffffffffffffffff1681526020019081526020015f206001015f828254612d0a91906139bd565b92505081905550612e61565b60075f8273ffffffffffffffffffffffffffffffffffffffff1673ffffffffffffffffffffffffffffffffffffffff1681526020019081526020015f205f8381526020019081526020015f206002015460055f8373ffffffffffffffffffffffffffffffffffffffff1673ffffffffffffffffffffffffffffffffffffffff1681526020019081526020015f206003015f828254612db491906139bd565b9250508190555060075f8273ffffffffffffffffffffffffffffffffffffffff1673ffffffffffffffffffffffffffffffffffffffff1681526020019081526020015f205f8381526020019081526020015f206002015460055f3373ffffffffffffffffffffffffffffffffffffffff1673ffffffffffffffffffffffffffffffffffffffff1681526020019081526020015f206003015f828254612e59919061382d565b925050819055505b600160055f3373ffffffffffffffffffffffffffffffffffffffff1673ffffffffffffffffffffffffffffffffffffffff1681526020019081526020015f206005015f60075f8573ffffffffffffffffffffffffffffffffffffffff1673ffffffffffffffffffffffffffffffffffffffff1681526020019081526020015f205f8681526020019081526020015f206003015481526020019081526020015f205f6101000a81548160ff0219169083151502179055503360045f60025481526020019081526020015f205f6101000a81548173ffffffffffffffffffffffffffffffffffffffff021916908373ffffffffffffffffffffffffffffffffffffffff16021790555060025f815480929190612f7a90613976565b91905055505f60015f9054906101000a900473ffffffffffffffffffffffffffffffffffffffff1673ffffffffffffffffffffffffffffffffffffffff166323b872dd338460075f8773ffffffffffffffffffffffffffffffffffffffff1673ffffffffffffffffffffffffffffffffffffffff1681526020019081526020015f205f8881526020019081526020015f20600101546040518463ffffffff1660e01b815260040161302d93929190613b56565b6020604051808303815f875af1158015613049573d5f803e3d5ffd5b505050506040513d601f19601f8201168201806040525081019061306d9190613a80565b9050806130af576040517f08c379a00000000000000000000000000000000000000000000000000000000081526004016130a690613af5565b60405180910390fd5b7fc891adf8dfbf643a02668e73c35bbbb3c8aa9d86e0dc779d260026cfc0ab8b99338360075f8673ffffffffffffffffffffffffffffffffffffffff1673ffffffffffffffffffffffffffffffffffffffff1681526020019081526020015f205f8781526020019081526020015f206002015460075f8773ffffffffffffffffffffffffffffffffffffffff1673ffffffffffffffffffffffffffffffffffffffff1681526020019081526020015f205f8881526020019081526020015f20600101546040516131829493929190613c5b565b60405180910390a1505050565b5f828410156131a0578290506131b4565b818411156131b0578190506131b4565b8390505b9392505050565b5f8083036131fe576040517f08c379a00000000000000000000000000000000000000000000000000000000081526004016131f590613d0e565b60405180910390fd5b5f8203613240576040517f08c379a000000000000000000000000000000000000000000000000000000000815260040161323790613d0e565b60405180910390fd5b5f61271083856132509190613860565b61325a91906138ce565b90508091505092915050565b61326e6133ae565b73ffffffffffffffffffffffffffffffffffffffff1661328c6125d8565b73ffffffffffffffffffffffffffffffffffffffff16146132eb576132af6133ae565b6040517f118cdaa70000000000000000000000000000000000000000000000000000000081526004016132e29190613456565b60405180910390fd5b565b5f805f9054906101000a900473ffffffffffffffffffffffffffffffffffffffff169050815f806101000a81548173ffffffffffffffffffffffffffffffffffffffff021916908373ffffffffffffffffffffffffffffffffffffffff1602179055508173ffffffffffffffffffffffffffffffffffffffff168173ffffffffffffffffffffffffffffffffffffffff167f8be0079c531659141344cd1fd0a4f28419497f9722a3daafe3b4186f6b6457e060405160405180910390a35050565b5f33905090565b5f80fd5b5f819050919050565b6133cb816133b9565b81146133d5575f80fd5b50565b5f813590506133e6816133c2565b92915050565b5f60208284031215613401576134006133b5565b5b5f61340e848285016133d8565b91505092915050565b5f73ffffffffffffffffffffffffffffffffffffffff82169050919050565b5f61344082613417565b9050919050565b61345081613436565b82525050565b5f6020820190506134695f830184613447565b92915050565b61347881613436565b8114613482575f80fd5b50565b5f813590506134938161346f565b92915050565b5f80604083850312156134af576134ae6133b5565b5b5f6134bc85828601613485565b92505060206134cd858286016133d8565b9150509250929050565b5f8115159050919050565b6134eb816134d7565b82525050565b5f6020820190506135045f8301846134e2565b92915050565b5f819050919050565b5f61352d61352861352384613417565b61350a565b613417565b9050919050565b5f61353e82613513565b9050919050565b5f61354f82613534565b9050919050565b61355f81613545565b82525050565b5f6020820190506135785f830184613556565b92915050565b5f60208284031215613593576135926133b5565b5b5f6135a084828501613485565b91505092915050565b6135b2816133b9565b82525050565b5f60a0820190506135cb5f8301886135a9565b6135d860208301876135a9565b6135e560408301866135a9565b6135f260608301856135a9565b6135ff60808301846135a9565b9695505050505050565b5f60408201905061361c5f8301856135a9565b61362960208301846135a9565b9392505050565b5f8060408385031215613646576136456133b5565b5b5f613653858286016133d8565b9250506020613664858286016133d8565b9150509250929050565b5f60c0820190506136815f8301896134e2565b61368e60208301886134e2565b61369b6040830187613447565b6136a860608301866135a9565b6136b560808301856135a9565b6136c260a08301846135a9565b979650505050505050565b5f805f606084860312156136e4576136e36133b5565b5b5f6136f1868287016133d8565b9350506020613702868287016133d8565b9250506040613713868287016133d8565b9150509250925092565b5f6020820190506137305f8301846135a9565b92915050565b5f60c0820190506137495f8301896134e2565b61375660208301886135a9565b61376360408301876135a9565b61377060608301866135a9565b61377d60808301856135a9565b61378a60a08301846135a9565b979650505050505050565b5f80604083850312156137ab576137aa6133b5565b5b5f6137b8858286016133d8565b92505060206137c985828601613485565b9150509250929050565b7f4e487b71000000000000000000000000000000000000000000000000000000005f52603260045260245ffd5b7f4e487b71000000000000000000000000000000000000000000000000000000005f52601160045260245ffd5b5f613837826133b9565b9150613842836133b9565b925082820190508082111561385a57613859613800565b5b92915050565b5f61386a826133b9565b9150613875836133b9565b9250828202613883816133b9565b9150828204841483151761389a57613899613800565b5b5092915050565b7f4e487b71000000000000000000000000000000000000000000000000000000005f52601260045260245ffd5b5f6138d8826133b9565b91506138e3836133b9565b9250826138f3576138f26138a1565b5b828204905092915050565b5f82825260208201905092915050565b7f6e6f7420656e6f75676820416d6f756e740000000000000000000000000000005f82015250565b5f6139426011836138fe565b915061394d8261390e565b602082019050919050565b5f6020820190508181035f83015261396f81613936565b9050919050565b5f613980826133b9565b91507fffffffffffffffffffffffffffffffffffffffffffffffffffffffffffffffff82036139b2576139b1613800565b5b600182019050919050565b5f6139c7826133b9565b91506139d2836133b9565b92508282039050818111156139ea576139e9613800565b5b92915050565b5f815190506139fe816133c2565b92915050565b5f60208284031215613a1957613a186133b5565b5b5f613a26848285016139f0565b91505092915050565b5f604082019050613a425f830185613447565b613a4f60208301846135a9565b9392505050565b613a5f816134d7565b8114613a69575f80fd5b50565b5f81519050613a7a81613a56565b92915050565b5f60208284031215613a9557613a946133b5565b5b5f613aa284828501613a6c565b91505092915050565b7f5472616e73666572206661696c656400000000000000000000000000000000005f82015250565b5f613adf600f836138fe565b9150613aea82613aab565b602082019050919050565b5f6020820190508181035f830152613b0c81613ad3565b9050919050565b5f608082019050613b265f830187613447565b613b3360208301866135a9565b613b4060408301856135a9565b613b4d60608301846135a9565b95945050505050565b5f606082019050613b695f830186613447565b613b766020830185613447565b613b8360408301846135a9565b949350505050565b7f536861726573206d7573742062652067726561746572207468616e207a65726f5f82015250565b5f613bbf6020836138fe565b9150613bca82613b8b565b602082019050919050565b5f6020820190508181035f830152613bec81613bb3565b9050919050565b7f5f70726963652063616e6e6f74206265207a65726f00000000000000000000005f82015250565b5f613c276015836138fe565b9150613c3282613bf3565b602082019050919050565b5f6020820190508181035f830152613c5481613c1b565b9050919050565b5f608082019050613c6e5f830187613447565b613c7b6020830186613447565b613c8860408301856135a9565b613c9560608301846135a9565b95945050505050565b7f5f746f74616c5374616b65416d6f756e742063616e206e6f74206265207a65725f8201527f6f00000000000000000000000000000000000000000000000000000000000000602082015250565b5f613cf86021836138fe565b9150613d0382613c9e565b604082019050919050565b5f6020820190508181035f830152613d2581613cec565b905091905056fea2646970667358221220843be86c186dbb2d0b9ede340935e1dd935147a90d76f0c9773d9f58b93f3b9064736f6c634300081a0033",
					"opcodes": "PUSH1 0x80 PUSH1 0x40 MSTORE CALLVALUE DUP1 ISZERO PUSH2 0xF JUMPI PUSH0 DUP1 REVERT JUMPDEST POP PUSH1 0x40 MLOAD PUSH2 0x416F CODESIZE SUB DUP1 PUSH2 0x416F DUP4 CODECOPY DUP2 DUP2 ADD PUSH1 0x40 MSTORE DUP2 ADD SWAP1 PUSH2 0x31 SWAP2 SWAP1 PUSH2 0x35B JUMP JUMPDEST DUP3 PUSH0 PUSH20 0xFFFFFFFFFFFFFFFFFFFFFFFFFFFFFFFFFFFFFFFF AND DUP2 PUSH20 0xFFFFFFFFFFFFFFFFFFFFFFFFFFFFFFFFFFFFFFFF AND SUB PUSH2 0xA2 JUMPI PUSH0 PUSH1 0x40 MLOAD PUSH32 0x1E4FBDF700000000000000000000000000000000000000000000000000000000 DUP2 MSTORE PUSH1 0x4 ADD PUSH2 0x99 SWAP2 SWAP1 PUSH2 0x3BA JUMP JUMPDEST PUSH1 0x40 MLOAD DUP1 SWAP2 SUB SWAP1 REVERT JUMPDEST PUSH2 0xB1 DUP2 PUSH2 0x209 PUSH1 0x20 SHL PUSH1 0x20 SHR JUMP JUMPDEST POP DUP1 PUSH1 0x6 PUSH0 ADDRESS PUSH20 0xFFFFFFFFFFFFFFFFFFFFFFFFFFFFFFFFFFFFFFFF AND PUSH20 0xFFFFFFFFFFFFFFFFFFFFFFFFFFFFFFFFFFFFFFFF AND DUP2 MSTORE PUSH1 0x20 ADD SWAP1 DUP2 MSTORE PUSH1 0x20 ADD PUSH0 KECCAK256 PUSH1 0x1 ADD DUP2 SWAP1 SSTORE POP PUSH8 0x6F05B59D3B20000 PUSH1 0x6 PUSH0 ADDRESS PUSH20 0xFFFFFFFFFFFFFFFFFFFFFFFFFFFFFFFFFFFFFFFF AND PUSH20 0xFFFFFFFFFFFFFFFFFFFFFFFFFFFFFFFFFFFFFFFF AND DUP2 MSTORE PUSH1 0x20 ADD SWAP1 DUP2 MSTORE PUSH1 0x20 ADD PUSH0 KECCAK256 PUSH1 0x4 ADD PUSH0 PUSH1 0x2 DUP2 LT PUSH2 0x152 JUMPI PUSH2 0x151 PUSH2 0x3D3 JUMP JUMPDEST JUMPDEST ADD DUP2 SWAP1 SSTORE POP PUSH8 0x6F05B59D3B20000 PUSH1 0x6 PUSH0 ADDRESS PUSH20 0xFFFFFFFFFFFFFFFFFFFFFFFFFFFFFFFFFFFFFFFF AND PUSH20 0xFFFFFFFFFFFFFFFFFFFFFFFFFFFFFFFFFFFFFFFF AND DUP2 MSTORE PUSH1 0x20 ADD SWAP1 DUP2 MSTORE PUSH1 0x20 ADD PUSH0 KECCAK256 PUSH1 0x4 ADD PUSH1 0x1 PUSH1 0x2 DUP2 LT PUSH2 0x1B3 JUMPI PUSH2 0x1B2 PUSH2 0x3D3 JUMP JUMPDEST JUMPDEST ADD DUP2 SWAP1 SSTORE POP DUP2 PUSH1 0x1 PUSH0 PUSH2 0x100 EXP DUP2 SLOAD DUP2 PUSH20 0xFFFFFFFFFFFFFFFFFFFFFFFFFFFFFFFFFFFFFFFF MUL NOT AND SWAP1 DUP4 PUSH20 0xFFFFFFFFFFFFFFFFFFFFFFFFFFFFFFFFFFFFFFFF AND MUL OR SWAP1 SSTORE POP PUSH2 0x3E8 PUSH1 0x3 DUP2 SWAP1 SSTORE POP POP POP POP PUSH2 0x400 JUMP JUMPDEST PUSH0 DUP1 PUSH0 SWAP1 SLOAD SWAP1 PUSH2 0x100 EXP SWAP1 DIV PUSH20 0xFFFFFFFFFFFFFFFFFFFFFFFFFFFFFFFFFFFFFFFF AND SWAP1 POP DUP2 PUSH0 DUP1 PUSH2 0x100 EXP DUP2 SLOAD DUP2 PUSH20 0xFFFFFFFFFFFFFFFFFFFFFFFFFFFFFFFFFFFFFFFF MUL NOT AND SWAP1 DUP4 PUSH20 0xFFFFFFFFFFFFFFFFFFFFFFFFFFFFFFFFFFFFFFFF AND MUL OR SWAP1 SSTORE POP DUP2 PUSH20 0xFFFFFFFFFFFFFFFFFFFFFFFFFFFFFFFFFFFFFFFF AND DUP2 PUSH20 0xFFFFFFFFFFFFFFFFFFFFFFFFFFFFFFFFFFFFFFFF AND PUSH32 0x8BE0079C531659141344CD1FD0A4F28419497F9722A3DAAFE3B4186F6B6457E0 PUSH1 0x40 MLOAD PUSH1 0x40 MLOAD DUP1 SWAP2 SUB SWAP1 LOG3 POP POP JUMP JUMPDEST PUSH0 DUP1 REVERT JUMPDEST PUSH0 PUSH20 0xFFFFFFFFFFFFFFFFFFFFFFFFFFFFFFFFFFFFFFFF DUP3 AND SWAP1 POP SWAP2 SWAP1 POP JUMP JUMPDEST PUSH0 PUSH2 0x2F7 DUP3 PUSH2 0x2CE JUMP JUMPDEST SWAP1 POP SWAP2 SWAP1 POP JUMP JUMPDEST PUSH2 0x307 DUP2 PUSH2 0x2ED JUMP JUMPDEST DUP2 EQ PUSH2 0x311 JUMPI PUSH0 DUP1 REVERT JUMPDEST POP JUMP JUMPDEST PUSH0 DUP2 MLOAD SWAP1 POP PUSH2 0x322 DUP2 PUSH2 0x2FE JUMP JUMPDEST SWAP3 SWAP2 POP POP JUMP JUMPDEST PUSH0 DUP2 SWAP1 POP SWAP2 SWAP1 POP JUMP JUMPDEST PUSH2 0x33A DUP2 PUSH2 0x328 JUMP JUMPDEST DUP2 EQ PUSH2 0x344 JUMPI PUSH0 DUP1 REVERT JUMPDEST POP JUMP JUMPDEST PUSH0 DUP2 MLOAD SWAP1 POP PUSH2 0x355 DUP2 PUSH2 0x331 JUMP JUMPDEST SWAP3 SWAP2 POP POP JUMP JUMPDEST PUSH0 DUP1 PUSH0 PUSH1 0x60 DUP5 DUP7 SUB SLT ISZERO PUSH2 0x372 JUMPI PUSH2 0x371 PUSH2 0x2CA JUMP JUMPDEST JUMPDEST PUSH0 PUSH2 0x37F DUP7 DUP3 DUP8 ADD PUSH2 0x314 JUMP JUMPDEST SWAP4 POP POP PUSH1 0x20 PUSH2 0x390 DUP7 DUP3 DUP8 ADD PUSH2 0x314 JUMP JUMPDEST SWAP3 POP POP PUSH1 0x40 PUSH2 0x3A1 DUP7 DUP3 DUP8 ADD PUSH2 0x347 JUMP JUMPDEST SWAP2 POP POP SWAP3 POP SWAP3 POP SWAP3 JUMP JUMPDEST PUSH2 0x3B4 DUP2 PUSH2 0x2ED JUMP JUMPDEST DUP3 MSTORE POP POP JUMP JUMPDEST PUSH0 PUSH1 0x20 DUP3 ADD SWAP1 POP PUSH2 0x3CD PUSH0 DUP4 ADD DUP5 PUSH2 0x3AB JUMP JUMPDEST SWAP3 SWAP2 POP POP JUMP JUMPDEST PUSH32 0x4E487B7100000000000000000000000000000000000000000000000000000000 PUSH0 MSTORE PUSH1 0x32 PUSH1 0x4 MSTORE PUSH1 0x24 PUSH0 REVERT JUMPDEST PUSH2 0x3D62 DUP1 PUSH2 0x40D PUSH0 CODECOPY PUSH0 RETURN INVALID PUSH1 0x80 PUSH1 0x40 MSTORE CALLVALUE DUP1 ISZERO PUSH2 0xF JUMPI PUSH0 DUP1 REVERT JUMPDEST POP PUSH1 0x4 CALLDATASIZE LT PUSH2 0x12A JUMPI PUSH0 CALLDATALOAD PUSH1 0xE0 SHR DUP1 PUSH4 0x6FFCC719 GT PUSH2 0xAB JUMPI DUP1 PUSH4 0xB677D9D2 GT PUSH2 0x6F JUMPI DUP1 PUSH4 0xB677D9D2 EQ PUSH2 0x376 JUMPI DUP1 PUSH4 0xBFF1F9E1 EQ PUSH2 0x394 JUMPI DUP1 PUSH4 0xC4351386 EQ PUSH2 0x3B2 JUMPI DUP1 PUSH4 0xF2FDE38B EQ PUSH2 0x3E7 JUMPI DUP1 PUSH4 0xFBEA0B06 EQ PUSH2 0x403 JUMPI PUSH2 0x12A JUMP JUMPDEST DUP1 PUSH4 0x6FFCC719 EQ PUSH2 0x2D2 JUMPI DUP1 PUSH4 0x715018A6 EQ PUSH2 0x2EE JUMPI DUP1 PUSH4 0x84B5ACA6 EQ PUSH2 0x2F8 JUMPI DUP1 PUSH4 0x8DA5CB5B EQ PUSH2 0x328 JUMPI DUP1 PUSH4 0xB3C740E8 EQ PUSH2 0x346 JUMPI PUSH2 0x12A JUMP JUMPDEST DUP1 PUSH4 0x21D0D9AF GT PUSH2 0xF2 JUMPI DUP1 PUSH4 0x21D0D9AF EQ PUSH2 0x1FF JUMPI DUP1 PUSH4 0x3774CA25 EQ PUSH2 0x230 JUMPI DUP1 PUSH4 0x456E62BA EQ PUSH2 0x265 JUMPI DUP1 PUSH4 0x61D464EF EQ PUSH2 0x281 JUMPI DUP1 PUSH4 0x6399D03D EQ PUSH2 0x2B6 JUMPI PUSH2 0x12A JUMP JUMPDEST DUP1 PUSH4 0x8EF962E EQ PUSH2 0x12E JUMPI DUP1 PUSH4 0xEFA82F6 EQ PUSH2 0x15E JUMPI DUP1 PUSH4 0x11EAC855 EQ PUSH2 0x18E JUMPI DUP1 PUSH4 0x1959A002 EQ PUSH2 0x1AC JUMPI DUP1 PUSH4 0x208C86A4 EQ PUSH2 0x1E0 JUMPI JUMPDEST PUSH0 DUP1 REVERT JUMPDEST PUSH2 0x148 PUSH1 0x4 DUP1 CALLDATASIZE SUB DUP2 ADD SWAP1 PUSH2 0x143 SWAP2 SWAP1 PUSH2 0x33EC JUMP JUMPDEST PUSH2 0x41F JUMP JUMPDEST PUSH1 0x40 MLOAD PUSH2 0x155 SWAP2 SWAP1 PUSH2 0x3456 JUMP JUMPDEST PUSH1 0x40 MLOAD DUP1 SWAP2 SUB SWAP1 RETURN JUMPDEST PUSH2 0x178 PUSH1 0x4 DUP1 CALLDATASIZE SUB DUP2 ADD SWAP1 PUSH2 0x173 SWAP2 SWAP1 PUSH2 0x3499 JUMP JUMPDEST PUSH2 0x44F JUMP JUMPDEST PUSH1 0x40 MLOAD PUSH2 0x185 SWAP2 SWAP1 PUSH2 0x34F1 JUMP JUMPDEST PUSH1 0x40 MLOAD DUP1 SWAP2 SUB SWAP1 RETURN JUMPDEST PUSH2 0x196 PUSH2 0x4B4 JUMP JUMPDEST PUSH1 0x40 MLOAD PUSH2 0x1A3 SWAP2 SWAP1 PUSH2 0x3565 JUMP JUMPDEST PUSH1 0x40 MLOAD DUP1 SWAP2 SUB SWAP1 RETURN JUMPDEST PUSH2 0x1C6 PUSH1 0x4 DUP1 CALLDATASIZE SUB DUP2 ADD SWAP1 PUSH2 0x1C1 SWAP2 SWAP1 PUSH2 0x357E JUMP JUMPDEST PUSH2 0x4D9 JUMP JUMPDEST PUSH1 0x40 MLOAD PUSH2 0x1D7 SWAP6 SWAP5 SWAP4 SWAP3 SWAP2 SWAP1 PUSH2 0x35B8 JUMP JUMPDEST PUSH1 0x40 MLOAD DUP1 SWAP2 SUB SWAP1 RETURN JUMPDEST PUSH2 0x1E8 PUSH2 0x50B JUMP JUMPDEST PUSH1 0x40 MLOAD PUSH2 0x1F6 SWAP3 SWAP2 SWAP1 PUSH2 0x3609 JUMP JUMPDEST PUSH1 0x40 MLOAD DUP1 SWAP2 SUB SWAP1 RETURN JUMPDEST PUSH2 0x219 PUSH1 0x4 DUP1 CALLDATASIZE SUB DUP2 ADD SWAP1 PUSH2 0x214 SWAP2 SWAP1 PUSH2 0x3630 JUMP JUMPDEST PUSH2 0x5BE JUMP JUMPDEST PUSH1 0x40 MLOAD PUSH2 0x227 SWAP3 SWAP2 SWAP1 PUSH2 0x3609 JUMP JUMPDEST PUSH1 0x40 MLOAD DUP1 SWAP2 SUB SWAP1 RETURN JUMPDEST PUSH2 0x24A PUSH1 0x4 DUP1 CALLDATASIZE SUB DUP2 ADD SWAP1 PUSH2 0x245 SWAP2 SWAP1 PUSH2 0x3499 JUMP JUMPDEST PUSH2 0x6B5 JUMP JUMPDEST PUSH1 0x40 MLOAD PUSH2 0x25C SWAP7 SWAP6 SWAP5 SWAP4 SWAP3 SWAP2 SWAP1 PUSH2 0x366E JUMP JUMPDEST PUSH1 0x40 MLOAD DUP1 SWAP2 SUB SWAP1 RETURN JUMPDEST PUSH2 0x27F PUSH1 0x4 DUP1 CALLDATASIZE SUB DUP2 ADD SWAP1 PUSH2 0x27A SWAP2 SWAP1 PUSH2 0x36CD JUMP JUMPDEST PUSH2 0x8E7 JUMP JUMPDEST STOP JUMPDEST PUSH2 0x29B PUSH1 0x4 DUP1 CALLDATASIZE SUB DUP2 ADD SWAP1 PUSH2 0x296 SWAP2 SWAP1 PUSH2 0x3499 JUMP JUMPDEST PUSH2 0x1062 JUMP JUMPDEST PUSH1 0x40 MLOAD PUSH2 0x2AD SWAP7 SWAP6 SWAP5 SWAP4 SWAP3 SWAP2 SWAP1 PUSH2 0x366E JUMP JUMPDEST PUSH1 0x40 MLOAD DUP1 SWAP2 SUB SWAP1 RETURN JUMPDEST PUSH2 0x2D0 PUSH1 0x4 DUP1 CALLDATASIZE SUB DUP2 ADD SWAP1 PUSH2 0x2CB SWAP2 SWAP1 PUSH2 0x33EC JUMP JUMPDEST PUSH2 0x10DC JUMP JUMPDEST STOP JUMPDEST PUSH2 0x2EC PUSH1 0x4 DUP1 CALLDATASIZE SUB DUP2 ADD SWAP1 PUSH2 0x2E7 SWAP2 SWAP1 PUSH2 0x3630 JUMP JUMPDEST PUSH2 0x1E3E JUMP JUMPDEST STOP JUMPDEST PUSH2 0x2F6 PUSH2 0x250A JUMP JUMPDEST STOP JUMPDEST PUSH2 0x312 PUSH1 0x4 DUP1 CALLDATASIZE SUB DUP2 ADD SWAP1 PUSH2 0x30D SWAP2 SWAP1 PUSH2 0x3630 JUMP JUMPDEST PUSH2 0x251D JUMP JUMPDEST PUSH1 0x40 MLOAD PUSH2 0x31F SWAP2 SWAP1 PUSH2 0x371D JUMP JUMPDEST PUSH1 0x40 MLOAD DUP1 SWAP2 SUB SWAP1 RETURN JUMPDEST PUSH2 0x330 PUSH2 0x25D8 JUMP JUMPDEST PUSH1 0x40 MLOAD PUSH2 0x33D SWAP2 SWAP1 PUSH2 0x3456 JUMP JUMPDEST PUSH1 0x40 MLOAD DUP1 SWAP2 SUB SWAP1 RETURN JUMPDEST PUSH2 0x360 PUSH1 0x4 DUP1 CALLDATASIZE SUB DUP2 ADD SWAP1 PUSH2 0x35B SWAP2 SWAP1 PUSH2 0x3630 JUMP JUMPDEST PUSH2 0x25FF JUMP JUMPDEST PUSH1 0x40 MLOAD PUSH2 0x36D SWAP2 SWAP1 PUSH2 0x371D JUMP JUMPDEST PUSH1 0x40 MLOAD DUP1 SWAP2 SUB SWAP1 RETURN JUMPDEST PUSH2 0x37E PUSH2 0x26B3 JUMP JUMPDEST PUSH1 0x40 MLOAD PUSH2 0x38B SWAP2 SWAP1 PUSH2 0x371D JUMP JUMPDEST PUSH1 0x40 MLOAD DUP1 SWAP2 SUB SWAP1 RETURN JUMPDEST PUSH2 0x39C PUSH2 0x26B9 JUMP JUMPDEST PUSH1 0x40 MLOAD PUSH2 0x3A9 SWAP2 SWAP1 PUSH2 0x371D JUMP JUMPDEST PUSH1 0x40 MLOAD DUP1 SWAP2 SUB SWAP1 RETURN JUMPDEST PUSH2 0x3CC PUSH1 0x4 DUP1 CALLDATASIZE SUB DUP2 ADD SWAP1 PUSH2 0x3C7 SWAP2 SWAP1 PUSH2 0x357E JUMP JUMPDEST PUSH2 0x26BF JUMP JUMPDEST PUSH1 0x40 MLOAD PUSH2 0x3DE SWAP7 SWAP6 SWAP5 SWAP4 SWAP3 SWAP2 SWAP1 PUSH2 0x3736 JUMP JUMPDEST PUSH1 0x40 MLOAD DUP1 SWAP2 SUB SWAP1 RETURN JUMPDEST PUSH2 0x401 PUSH1 0x4 DUP1 CALLDATASIZE SUB DUP2 ADD SWAP1 PUSH2 0x3FC SWAP2 SWAP1 PUSH2 0x357E JUMP JUMPDEST PUSH2 0x2703 JUMP JUMPDEST STOP JUMPDEST PUSH2 0x41D PUSH1 0x4 DUP1 CALLDATASIZE SUB DUP2 ADD SWAP1 PUSH2 0x418 SWAP2 SWAP1 PUSH2 0x3795 JUMP JUMPDEST PUSH2 0x2787 JUMP JUMPDEST STOP JUMPDEST PUSH1 0x4 PUSH1 0x20 MSTORE DUP1 PUSH0 MSTORE PUSH1 0x40 PUSH0 KECCAK256 PUSH0 SWAP2 POP SLOAD SWAP1 PUSH2 0x100 EXP SWAP1 DIV PUSH20 0xFFFFFFFFFFFFFFFFFFFFFFFFFFFFFFFFFFFFFFFF AND DUP2 JUMP JUMPDEST PUSH0 PUSH1 0x5 PUSH0 DUP5 PUSH20 0xFFFFFFFFFFFFFFFFFFFFFFFFFFFFFFFFFFFFFFFF AND PUSH20 0xFFFFFFFFFFFFFFFFFFFFFFFFFFFFFFFFFFFFFFFF AND DUP2 MSTORE PUSH1 0x20 ADD SWAP1 DUP2 MSTORE PUSH1 0x20 ADD PUSH0 KECCAK256 PUSH1 0x5 ADD PUSH0 DUP4 DUP2 MSTORE PUSH1 0x20 ADD SWAP1 DUP2 MSTORE PUSH1 0x20 ADD PUSH0 KECCAK256 PUSH0 SWAP1 SLOAD SWAP1 PUSH2 0x100 EXP SWAP1 DIV PUSH1 0xFF AND SWAP1 POP SWAP3 SWAP2 POP POP JUMP JUMPDEST PUSH1 0x1 PUSH0 SWAP1 SLOAD SWAP1 PUSH2 0x100 EXP SWAP1 DIV PUSH20 0xFFFFFFFFFFFFFFFFFFFFFFFFFFFFFFFFFFFFFFFF AND DUP2 JUMP JUMPDEST PUSH1 0x5 PUSH1 0x20 MSTORE DUP1 PUSH0 MSTORE PUSH1 0x40 PUSH0 KECCAK256 PUSH0 SWAP2 POP SWAP1 POP DUP1 PUSH0 ADD SLOAD SWAP1 DUP1 PUSH1 0x1 ADD SLOAD SWAP1 DUP1 PUSH1 0x2 ADD SLOAD SWAP1 DUP1 PUSH1 0x3 ADD SLOAD SWAP1 DUP1 PUSH1 0x4 ADD SLOAD SWAP1 POP DUP6 JUMP JUMPDEST PUSH0 DUP1 PUSH1 0x6 PUSH0 ADDRESS PUSH20 0xFFFFFFFFFFFFFFFFFFFFFFFFFFFFFFFFFFFFFFFF AND PUSH20 0xFFFFFFFFFFFFFFFFFFFFFFFFFFFFFFFFFFFFFFFF AND DUP2 MSTORE PUSH1 0x20 ADD SWAP1 DUP2 MSTORE PUSH1 0x20 ADD PUSH0 KECCAK256 PUSH1 0x4 ADD PUSH0 PUSH1 0x2 DUP2 LT PUSH2 0x55F JUMPI PUSH2 0x55E PUSH2 0x37D3 JUMP JUMPDEST JUMPDEST ADD SLOAD PUSH1 0x6 PUSH0 ADDRESS PUSH20 0xFFFFFFFFFFFFFFFFFFFFFFFFFFFFFFFFFFFFFFFF AND PUSH20 0xFFFFFFFFFFFFFFFFFFFFFFFFFFFFFFFFFFFFFFFF AND DUP2 MSTORE PUSH1 0x20 ADD SWAP1 DUP2 MSTORE PUSH1 0x20 ADD PUSH0 KECCAK256 PUSH1 0x4 ADD PUSH1 0x1 PUSH1 0x2 DUP2 LT PUSH2 0x5B4 JUMPI PUSH2 0x5B3 PUSH2 0x37D3 JUMP JUMPDEST JUMPDEST ADD SLOAD SWAP2 POP SWAP2 POP SWAP1 SWAP2 JUMP JUMPDEST PUSH0 DUP1 PUSH0 DUP4 DUP6 PUSH2 0x5CD SWAP2 SWAP1 PUSH2 0x382D JUMP JUMPDEST SWAP1 POP PUSH0 DUP2 SUB PUSH2 0x5EA JUMPI PUSH8 0x6F05B59D3B20000 DUP1 SWAP3 POP SWAP3 POP POP PUSH2 0x6AE JUMP JUMPDEST PUSH0 DUP2 PUSH1 0x64 DUP7 PUSH2 0x5F9 SWAP2 SWAP1 PUSH2 0x3860 JUMP JUMPDEST PUSH2 0x603 SWAP2 SWAP1 PUSH2 0x38CE JUMP JUMPDEST SWAP1 POP PUSH0 DUP3 PUSH1 0x64 DUP9 PUSH2 0x614 SWAP2 SWAP1 PUSH2 0x3860 JUMP JUMPDEST PUSH2 0x61E SWAP2 SWAP1 PUSH2 0x38CE JUMP JUMPDEST SWAP1 POP PUSH7 0x2386F26FC10000 PUSH2 0x659 PUSH1 0x1 PUSH1 0x64 PUSH1 0x63 DUP7 PUSH2 0x63C SWAP2 SWAP1 PUSH2 0x3860 JUMP JUMPDEST PUSH2 0x646 SWAP2 SWAP1 PUSH2 0x38CE JUMP JUMPDEST PUSH2 0x650 SWAP2 SWAP1 PUSH2 0x382D JUMP JUMPDEST PUSH1 0x1 PUSH1 0x64 PUSH2 0x318F JUMP JUMPDEST PUSH2 0x663 SWAP2 SWAP1 PUSH2 0x3860 JUMP JUMPDEST SWAP5 POP PUSH7 0x2386F26FC10000 PUSH2 0x69E PUSH1 0x1 PUSH1 0x64 PUSH1 0x63 DUP6 PUSH2 0x681 SWAP2 SWAP1 PUSH2 0x3860 JUMP JUMPDEST PUSH2 0x68B SWAP2 SWAP1 PUSH2 0x38CE JUMP JUMPDEST PUSH2 0x695 SWAP2 SWAP1 PUSH2 0x382D JUMP JUMPDEST PUSH1 0x1 PUSH1 0x64 PUSH2 0x318F JUMP JUMPDEST PUSH2 0x6A8 SWAP2 SWAP1 PUSH2 0x3860 JUMP JUMPDEST SWAP4 POP POP POP POP JUMPDEST SWAP3 POP SWAP3 SWAP1 POP JUMP JUMPDEST PUSH0 DUP1 PUSH0 DUP1 PUSH0 DUP1 PUSH1 0x7 PUSH0 DUP10 PUSH20 0xFFFFFFFFFFFFFFFFFFFFFFFFFFFFFFFFFFFFFFFF AND PUSH20 0xFFFFFFFFFFFFFFFFFFFFFFFFFFFFFFFFFFFFFFFF AND DUP2 MSTORE PUSH1 0x20 ADD SWAP1 DUP2 MSTORE PUSH1 0x20 ADD PUSH0 KECCAK256 PUSH0 DUP9 DUP2 MSTORE PUSH1 0x20 ADD SWAP1 DUP2 MSTORE PUSH1 0x20 ADD PUSH0 KECCAK256 PUSH0 ADD PUSH0 SWAP1 SLOAD SWAP1 PUSH2 0x100 EXP SWAP1 DIV PUSH1 0xFF AND PUSH1 0x7 PUSH0 DUP11 PUSH20 0xFFFFFFFFFFFFFFFFFFFFFFFFFFFFFFFFFFFFFFFF AND PUSH20 0xFFFFFFFFFFFFFFFFFFFFFFFFFFFFFFFFFFFFFFFF AND DUP2 MSTORE PUSH1 0x20 ADD SWAP1 DUP2 MSTORE PUSH1 0x20 ADD PUSH0 KECCAK256 PUSH0 DUP10 DUP2 MSTORE PUSH1 0x20 ADD SWAP1 DUP2 MSTORE PUSH1 0x20 ADD PUSH0 KECCAK256 PUSH0 ADD PUSH1 0x1 SWAP1 SLOAD SWAP1 PUSH2 0x100 EXP SWAP1 DIV PUSH1 0xFF AND PUSH1 0x7 PUSH0 DUP12 PUSH20 0xFFFFFFFFFFFFFFFFFFFFFFFFFFFFFFFFFFFFFFFF AND PUSH20 0xFFFFFFFFFFFFFFFFFFFFFFFFFFFFFFFFFFFFFFFF AND DUP2 MSTORE PUSH1 0x20 ADD SWAP1 DUP2 MSTORE PUSH1 0x20 ADD PUSH0 KECCAK256 PUSH0 DUP11 DUP2 MSTORE PUSH1 0x20 ADD SWAP1 DUP2 MSTORE PUSH1 0x20 ADD PUSH0 KECCAK256 PUSH0 ADD PUSH1 0x2 SWAP1 SLOAD SWAP1 PUSH2 0x100 EXP SWAP1 DIV PUSH20 0xFFFFFFFFFFFFFFFFFFFFFFFFFFFFFFFFFFFFFFFF AND PUSH1 0x7 PUSH0 DUP13 PUSH20 0xFFFFFFFFFFFFFFFFFFFFFFFFFFFFFFFFFFFFFFFF AND PUSH20 0xFFFFFFFFFFFFFFFFFFFFFFFFFFFFFFFFFFFFFFFF AND DUP2 MSTORE PUSH1 0x20 ADD SWAP1 DUP2 MSTORE PUSH1 0x20 ADD PUSH0 KECCAK256 PUSH0 DUP12 DUP2 MSTORE PUSH1 0x20 ADD SWAP1 DUP2 MSTORE PUSH1 0x20 ADD PUSH0 KECCAK256 PUSH1 0x1 ADD SLOAD PUSH1 0x7 PUSH0 DUP14 PUSH20 0xFFFFFFFFFFFFFFFFFFFFFFFFFFFFFFFFFFFFFFFF AND PUSH20 0xFFFFFFFFFFFFFFFFFFFFFFFFFFFFFFFFFFFFFFFF AND DUP2 MSTORE PUSH1 0x20 ADD SWAP1 DUP2 MSTORE PUSH1 0x20 ADD PUSH0 KECCAK256 PUSH0 DUP13 DUP2 MSTORE PUSH1 0x20 ADD SWAP1 DUP2 MSTORE PUSH1 0x20 ADD PUSH0 KECCAK256 PUSH1 0x2 ADD SLOAD PUSH1 0x7 PUSH0 DUP15 PUSH20 0xFFFFFFFFFFFFFFFFFFFFFFFFFFFFFFFFFFFFFFFF AND PUSH20 0xFFFFFFFFFFFFFFFFFFFFFFFFFFFFFFFFFFFFFFFF AND DUP2 MSTORE PUSH1 0x20 ADD SWAP1 DUP2 MSTORE PUSH1 0x20 ADD PUSH0 KECCAK256 PUSH0 DUP14 DUP2 MSTORE PUSH1 0x20 ADD SWAP1 DUP2 MSTORE PUSH1 0x20 ADD PUSH0 KECCAK256 PUSH1 0x3 ADD SLOAD SWAP6 POP SWAP6 POP SWAP6 POP SWAP6 POP SWAP6 POP SWAP6 POP SWAP3 SWAP6 POP SWAP3 SWAP6 POP SWAP3 SWAP6 JUMP JUMPDEST PUSH0 DUP2 EQ ISZERO DUP1 ISZERO PUSH2 0x8F8 JUMPI POP PUSH1 0x1 DUP2 EQ ISZERO JUMPDEST ISZERO PUSH2 0x93A JUMPI DUP1 PUSH1 0x40 MLOAD PUSH32 0xD7ACBE8900000000000000000000000000000000000000000000000000000000 DUP2 MSTORE PUSH1 0x4 ADD PUSH2 0x931 SWAP2 SWAP1 PUSH2 0x371D JUMP JUMPDEST PUSH1 0x40 MLOAD DUP1 SWAP2 SUB SWAP1 REVERT JUMPDEST PUSH0 DUP4 GT PUSH2 0x97E JUMPI DUP3 PUSH1 0x40 MLOAD PUSH32 0x2FF4783000000000000000000000000000000000000000000000000000000000 DUP2 MSTORE PUSH1 0x4 ADD PUSH2 0x975 SWAP2 SWAP1 PUSH2 0x371D JUMP JUMPDEST PUSH1 0x40 MLOAD DUP1 SWAP2 SUB SWAP1 REVERT JUMPDEST PUSH1 0x6 PUSH0 ADDRESS PUSH20 0xFFFFFFFFFFFFFFFFFFFFFFFFFFFFFFFFFFFFFFFF AND PUSH20 0xFFFFFFFFFFFFFFFFFFFFFFFFFFFFFFFFFFFFFFFF AND DUP2 MSTORE PUSH1 0x20 ADD SWAP1 DUP2 MSTORE PUSH1 0x20 ADD PUSH0 KECCAK256 PUSH0 ADD PUSH0 SWAP1 SLOAD SWAP1 PUSH2 0x100 EXP SWAP1 DIV PUSH1 0xFF AND ISZERO PUSH2 0xA01 JUMPI PUSH1 0x40 MLOAD PUSH32 0x853FD42100000000000000000000000000000000000000000000000000000000 DUP2 MSTORE PUSH1 0x4 ADD PUSH1 0x40 MLOAD DUP1 SWAP2 SUB SWAP1 REVERT JUMPDEST PUSH1 0x5 PUSH0 CALLER PUSH20 0xFFFFFFFFFFFFFFFFFFFFFFFFFFFFFFFFFFFFFFFF AND PUSH20 0xFFFFFFFFFFFFFFFFFFFFFFFFFFFFFFFFFFFFFFFF AND DUP2 MSTORE PUSH1 0x20 ADD SWAP1 DUP2 MSTORE PUSH1 0x20 ADD PUSH0 KECCAK256 PUSH1 0x5 ADD PUSH0 DUP3 DUP2 MSTORE PUSH1 0x20 ADD SWAP1 DUP2 MSTORE PUSH1 0x20 ADD PUSH0 KECCAK256 PUSH0 SWAP1 SLOAD SWAP1 PUSH2 0x100 EXP SWAP1 DIV PUSH1 0xFF AND PUSH2 0xAF9 JUMPI PUSH1 0x5 PUSH0 CALLER PUSH20 0xFFFFFFFFFFFFFFFFFFFFFFFFFFFFFFFFFFFFFFFF AND PUSH20 0xFFFFFFFFFFFFFFFFFFFFFFFFFFFFFFFFFFFFFFFF AND DUP2 MSTORE PUSH1 0x20 ADD SWAP1 DUP2 MSTORE PUSH1 0x20 ADD PUSH0 KECCAK256 PUSH1 0x5 ADD PUSH0 DUP3 DUP2 MSTORE PUSH1 0x20 ADD SWAP1 DUP2 MSTORE PUSH1 0x20 ADD PUSH0 KECCAK256 PUSH0 SWAP1 SLOAD SWAP1 PUSH2 0x100 EXP SWAP1 DIV PUSH1 0xFF AND PUSH1 0x40 MLOAD PUSH32 0x3C3A312800000000000000000000000000000000000000000000000000000000 DUP2 MSTORE PUSH1 0x4 ADD PUSH2 0xAF0 SWAP2 SWAP1 PUSH2 0x34F1 JUMP JUMPDEST PUSH1 0x40 MLOAD DUP1 SWAP2 SUB SWAP1 REVERT JUMPDEST PUSH0 DUP3 GT PUSH2 0xB3D JUMPI DUP2 PUSH1 0x40 MLOAD PUSH32 0xBFC1948200000000000000000000000000000000000000000000000000000000 DUP2 MSTORE PUSH1 0x4 ADD PUSH2 0xB34 SWAP2 SWAP1 PUSH2 0x371D JUMP JUMPDEST PUSH1 0x40 MLOAD DUP1 SWAP2 SUB SWAP1 REVERT JUMPDEST PUSH0 DUP2 SUB PUSH2 0xBCC JUMPI PUSH1 0x5 PUSH0 CALLER PUSH20 0xFFFFFFFFFFFFFFFFFFFFFFFFFFFFFFFFFFFFFFFF AND PUSH20 0xFFFFFFFFFFFFFFFFFFFFFFFFFFFFFFFFFFFFFFFF AND DUP2 MSTORE PUSH1 0x20 ADD SWAP1 DUP2 MSTORE PUSH1 0x20 ADD PUSH0 KECCAK256 PUSH1 0x1 ADD SLOAD DUP4 GT ISZERO PUSH2 0xBC7 JUMPI PUSH1 0x40 MLOAD PUSH32 0x8C379A000000000000000000000000000000000000000000000000000000000 DUP2 MSTORE PUSH1 0x4 ADD PUSH2 0xBBE SWAP1 PUSH2 0x3958 JUMP JUMPDEST PUSH1 0x40 MLOAD DUP1 SWAP2 SUB SWAP1 REVERT JUMPDEST PUSH2 0xC50 JUMP JUMPDEST PUSH1 0x5 PUSH0 CALLER PUSH20 0xFFFFFFFFFFFFFFFFFFFFFFFFFFFFFFFFFFFFFFFF AND PUSH20 0xFFFFFFFFFFFFFFFFFFFFFFFFFFFFFFFFFFFFFFFF AND DUP2 MSTORE PUSH1 0x20 ADD SWAP1 DUP2 MSTORE PUSH1 0x20 ADD PUSH0 KECCAK256 PUSH1 0x3 ADD SLOAD DUP4 GT ISZERO PUSH2 0xC4F JUMPI PUSH1 0x40 MLOAD PUSH32 0x8C379A000000000000000000000000000000000000000000000000000000000 DUP2 MSTORE PUSH1 0x4 ADD PUSH2 0xC46 SWAP1 PUSH2 0x3958 JUMP JUMPDEST PUSH1 0x40 MLOAD DUP1 SWAP2 SUB SWAP1 REVERT JUMPDEST JUMPDEST PUSH1 0x5 PUSH0 CALLER PUSH20 0xFFFFFFFFFFFFFFFFFFFFFFFFFFFFFFFFFFFFFFFF AND PUSH20 0xFFFFFFFFFFFFFFFFFFFFFFFFFFFFFFFFFFFFFFFF AND DUP2 MSTORE PUSH1 0x20 ADD SWAP1 DUP2 MSTORE PUSH1 0x20 ADD PUSH0 KECCAK256 PUSH0 ADD PUSH0 DUP2 SLOAD DUP1 SWAP3 SWAP2 SWAP1 PUSH2 0xC9F SWAP1 PUSH2 0x3976 JUMP JUMPDEST SWAP2 SWAP1 POP SSTORE POP PUSH1 0x1 PUSH1 0x7 PUSH0 CALLER PUSH20 0xFFFFFFFFFFFFFFFFFFFFFFFFFFFFFFFFFFFFFFFF AND PUSH20 0xFFFFFFFFFFFFFFFFFFFFFFFFFFFFFFFFFFFFFFFF AND DUP2 MSTORE PUSH1 0x20 ADD SWAP1 DUP2 MSTORE PUSH1 0x20 ADD PUSH0 KECCAK256 PUSH0 PUSH1 0x5 PUSH0 CALLER PUSH20 0xFFFFFFFFFFFFFFFFFFFFFFFFFFFFFFFFFFFFFFFF AND PUSH20 0xFFFFFFFFFFFFFFFFFFFFFFFFFFFFFFFFFFFFFFFF AND DUP2 MSTORE PUSH1 0x20 ADD SWAP1 DUP2 MSTORE PUSH1 0x20 ADD PUSH0 KECCAK256 PUSH0 ADD SLOAD DUP2 MSTORE PUSH1 0x20 ADD SWAP1 DUP2 MSTORE PUSH1 0x20 ADD PUSH0 KECCAK256 PUSH0 ADD PUSH0 PUSH2 0x100 EXP DUP2 SLOAD DUP2 PUSH1 0xFF MUL NOT AND SWAP1 DUP4 ISZERO ISZERO MUL OR SWAP1 SSTORE POP DUP2 PUSH1 0x7 PUSH0 CALLER PUSH20 0xFFFFFFFFFFFFFFFFFFFFFFFFFFFFFFFFFFFFFFFF AND PUSH20 0xFFFFFFFFFFFFFFFFFFFFFFFFFFFFFFFFFFFFFFFF AND DUP2 MSTORE PUSH1 0x20 ADD SWAP1 DUP2 MSTORE PUSH1 0x20 ADD PUSH0 KECCAK256 PUSH0 PUSH1 0x5 PUSH0 CALLER PUSH20 0xFFFFFFFFFFFFFFFFFFFFFFFFFFFFFFFFFFFFFFFF AND PUSH20 0xFFFFFFFFFFFFFFFFFFFFFFFFFFFFFFFFFFFFFFFF AND DUP2 MSTORE PUSH1 0x20 ADD SWAP1 DUP2 MSTORE PUSH1 0x20 ADD PUSH0 KECCAK256 PUSH0 ADD SLOAD DUP2 MSTORE PUSH1 0x20 ADD SWAP1 DUP2 MSTORE PUSH1 0x20 ADD PUSH0 KECCAK256 PUSH1 0x1 ADD DUP2 SWAP1 SSTORE POP DUP3 PUSH1 0x7 PUSH0 CALLER PUSH20 0xFFFFFFFFFFFFFFFFFFFFFFFFFFFFFFFFFFFFFFFF AND PUSH20 0xFFFFFFFFFFFFFFFFFFFFFFFFFFFFFFFFFFFFFFFF AND DUP2 MSTORE PUSH1 0x20 ADD SWAP1 DUP2 MSTORE PUSH1 0x20 ADD PUSH0 KECCAK256 PUSH0 PUSH1 0x5 PUSH0 CALLER PUSH20 0xFFFFFFFFFFFFFFFFFFFFFFFFFFFFFFFFFFFFFFFF AND PUSH20 0xFFFFFFFFFFFFFFFFFFFFFFFFFFFFFFFFFFFFFFFF AND DUP2 MSTORE PUSH1 0x20 ADD SWAP1 DUP2 MSTORE PUSH1 0x20 ADD PUSH0 KECCAK256 PUSH0 ADD SLOAD DUP2 MSTORE PUSH1 0x20 ADD SWAP1 DUP2 MSTORE PUSH1 0x20 ADD PUSH0 KECCAK256 PUSH1 0x2 ADD DUP2 SWAP1 SSTORE POP CALLER PUSH1 0x7 PUSH0 CALLER PUSH20 0xFFFFFFFFFFFFFFFFFFFFFFFFFFFFFFFFFFFFFFFF AND PUSH20 0xFFFFFFFFFFFFFFFFFFFFFFFFFFFFFFFFFFFFFFFF AND DUP2 MSTORE PUSH1 0x20 ADD SWAP1 DUP2 MSTORE PUSH1 0x20 ADD PUSH0 KECCAK256 PUSH0 PUSH1 0x5 PUSH0 CALLER PUSH20 0xFFFFFFFFFFFFFFFFFFFFFFFFFFFFFFFFFFFFFFFF AND PUSH20 0xFFFFFFFFFFFFFFFFFFFFFFFFFFFFFFFFFFFFFFFF AND DUP2 MSTORE PUSH1 0x20 ADD SWAP1 DUP2 MSTORE PUSH1 0x20 ADD PUSH0 KECCAK256 PUSH0 ADD SLOAD DUP2 MSTORE PUSH1 0x20 ADD SWAP1 DUP2 MSTORE PUSH1 0x20 ADD PUSH0 KECCAK256 PUSH0 ADD PUSH1 0x2 PUSH2 0x100 EXP DUP2 SLOAD DUP2 PUSH20 0xFFFFFFFFFFFFFFFFFFFFFFFFFFFFFFFFFFFFFFFF MUL NOT AND SWAP1 DUP4 PUSH20 0xFFFFFFFFFFFFFFFFFFFFFFFFFFFFFFFFFFFFFFFF AND MUL OR SWAP1 SSTORE POP DUP1 PUSH1 0x7 PUSH0 CALLER PUSH20 0xFFFFFFFFFFFFFFFFFFFFFFFFFFFFFFFFFFFFFFFF AND PUSH20 0xFFFFFFFFFFFFFFFFFFFFFFFFFFFFFFFFFFFFFFFF AND DUP2 MSTORE PUSH1 0x20 ADD SWAP1 DUP2 MSTORE PUSH1 0x20 ADD PUSH0 KECCAK256 PUSH0 PUSH1 0x5 PUSH0 CALLER PUSH20 0xFFFFFFFFFFFFFFFFFFFFFFFFFFFFFFFFFFFFFFFF AND PUSH20 0xFFFFFFFFFFFFFFFFFFFFFFFFFFFFFFFFFFFFFFFF AND DUP2 MSTORE PUSH1 0x20 ADD SWAP1 DUP2 MSTORE PUSH1 0x20 ADD PUSH0 KECCAK256 PUSH0 ADD SLOAD DUP2 MSTORE PUSH1 0x20 ADD SWAP1 DUP2 MSTORE PUSH1 0x20 ADD PUSH0 KECCAK256 PUSH1 0x3 ADD DUP2 SWAP1 SSTORE POP CALLER PUSH20 0xFFFFFFFFFFFFFFFFFFFFFFFFFFFFFFFFFFFFFFFF AND PUSH32 0x578D9BB67FF50E6081576125AD4C2410D6E82DE6DBC1A5DCAC37F8E5AA9CA4F4 PUSH1 0x5 PUSH0 CALLER PUSH20 0xFFFFFFFFFFFFFFFFFFFFFFFFFFFFFFFFFFFFFFFF AND PUSH20 0xFFFFFFFFFFFFFFFFFFFFFFFFFFFFFFFFFFFFFFFF AND DUP2 MSTORE PUSH1 0x20 ADD SWAP1 DUP2 MSTORE PUSH1 0x20 ADD PUSH0 KECCAK256 PUSH0 ADD SLOAD DUP5 PUSH1 0x40 MLOAD PUSH2 0x1055 SWAP3 SWAP2 SWAP1 PUSH2 0x3609 JUMP JUMPDEST PUSH1 0x40 MLOAD DUP1 SWAP2 SUB SWAP1 LOG2 POP POP POP JUMP JUMPDEST PUSH1 0x7 PUSH1 0x20 MSTORE DUP2 PUSH0 MSTORE PUSH1 0x40 PUSH0 KECCAK256 PUSH1 0x20 MSTORE DUP1 PUSH0 MSTORE PUSH1 0x40 PUSH0 KECCAK256 PUSH0 SWAP2 POP SWAP2 POP POP DUP1 PUSH0 ADD PUSH0 SWAP1 SLOAD SWAP1 PUSH2 0x100 EXP SWAP1 DIV PUSH1 0xFF AND SWAP1 DUP1 PUSH0 ADD PUSH1 0x1 SWAP1 SLOAD SWAP1 PUSH2 0x100 EXP SWAP1 DIV PUSH1 0xFF AND SWAP1 DUP1 PUSH0 ADD PUSH1 0x2 SWAP1 SLOAD SWAP1 PUSH2 0x100 EXP SWAP1 DIV PUSH20 0xFFFFFFFFFFFFFFFFFFFFFFFFFFFFFFFFFFFFFFFF AND SWAP1 DUP1 PUSH1 0x1 ADD SLOAD SWAP1 DUP1 PUSH1 0x2 ADD SLOAD SWAP1 DUP1 PUSH1 0x3 ADD SLOAD SWAP1 POP DUP7 JUMP JUMPDEST PUSH0 DUP2 EQ ISZERO DUP1 ISZERO PUSH2 0x10ED JUMPI POP PUSH1 0x1 DUP2 EQ ISZERO JUMPDEST ISZERO PUSH2 0x112F JUMPI DUP1 PUSH1 0x40 MLOAD PUSH32 0xD7ACBE8900000000000000000000000000000000000000000000000000000000 DUP2 MSTORE PUSH1 0x4 ADD PUSH2 0x1126 SWAP2 SWAP1 PUSH2 0x371D JUMP JUMPDEST PUSH1 0x40 MLOAD DUP1 SWAP2 SUB SWAP1 REVERT JUMPDEST PUSH1 0x6 PUSH0 ADDRESS PUSH20 0xFFFFFFFFFFFFFFFFFFFFFFFFFFFFFFFFFFFFFFFF AND PUSH20 0xFFFFFFFFFFFFFFFFFFFFFFFFFFFFFFFFFFFFFFFF AND DUP2 MSTORE PUSH1 0x20 ADD SWAP1 DUP2 MSTORE PUSH1 0x20 ADD PUSH0 KECCAK256 PUSH0 ADD PUSH0 SWAP1 SLOAD SWAP1 PUSH2 0x100 EXP SWAP1 DIV PUSH1 0xFF AND ISZERO PUSH2 0x11B2 JUMPI PUSH1 0x40 MLOAD PUSH32 0x853FD42100000000000000000000000000000000000000000000000000000000 DUP2 MSTORE PUSH1 0x4 ADD PUSH1 0x40 MLOAD DUP1 SWAP2 SUB SWAP1 REVERT JUMPDEST TIMESTAMP PUSH1 0x6 PUSH0 ADDRESS PUSH20 0xFFFFFFFFFFFFFFFFFFFFFFFFFFFFFFFFFFFFFFFF AND PUSH20 0xFFFFFFFFFFFFFFFFFFFFFFFFFFFFFFFFFFFFFFFF AND DUP2 MSTORE PUSH1 0x20 ADD SWAP1 DUP2 MSTORE PUSH1 0x20 ADD PUSH0 KECCAK256 PUSH1 0x1 ADD SLOAD GT ISZERO PUSH2 0x1277 JUMPI PUSH1 0x6 PUSH0 ADDRESS PUSH20 0xFFFFFFFFFFFFFFFFFFFFFFFFFFFFFFFFFFFFFFFF AND PUSH20 0xFFFFFFFFFFFFFFFFFFFFFFFFFFFFFFFFFFFFFFFF AND DUP2 MSTORE PUSH1 0x20 ADD SWAP1 DUP2 MSTORE PUSH1 0x20 ADD PUSH0 KECCAK256 PUSH1 0x1 ADD SLOAD PUSH1 0x40 MLOAD PUSH32 0x79073E7B00000000000000000000000000000000000000000000000000000000 DUP2 MSTORE PUSH1 0x4 ADD PUSH2 0x126E SWAP2 SWAP1 PUSH2 0x371D JUMP JUMPDEST PUSH1 0x40 MLOAD DUP1 SWAP2 SUB SWAP1 REVERT JUMPDEST PUSH0 DUP1 PUSH0 SWAP1 POP JUMPDEST PUSH1 0x2 SLOAD DUP2 LT ISZERO PUSH2 0x1688 JUMPI PUSH1 0x5 PUSH0 PUSH1 0x4 PUSH0 DUP5 DUP2 MSTORE PUSH1 0x20 ADD SWAP1 DUP2 MSTORE PUSH1 0x20 ADD PUSH0 KECCAK256 PUSH0 SWAP1 SLOAD SWAP1 PUSH2 0x100 EXP SWAP1 DIV PUSH20 0xFFFFFFFFFFFFFFFFFFFFFFFFFFFFFFFFFFFFFFFF AND PUSH20 0xFFFFFFFFFFFFFFFFFFFFFFFFFFFFFFFFFFFFFFFF AND PUSH20 0xFFFFFFFFFFFFFFFFFFFFFFFFFFFFFFFFFFFFFFFF AND DUP2 MSTORE PUSH1 0x20 ADD SWAP1 DUP2 MSTORE PUSH1 0x20 ADD PUSH0 KECCAK256 PUSH1 0x5 ADD PUSH0 DUP5 DUP2 MSTORE PUSH1 0x20 ADD SWAP1 DUP2 MSTORE PUSH1 0x20 ADD PUSH0 KECCAK256 PUSH0 SWAP1 SLOAD SWAP1 PUSH2 0x100 EXP SWAP1 DIV PUSH1 0xFF AND ISZERO PUSH2 0x167B JUMPI PUSH0 DUP4 EQ DUP1 ISZERO PUSH2 0x1397 JUMPI POP PUSH0 PUSH1 0x5 PUSH0 PUSH1 0x4 PUSH0 DUP6 DUP2 MSTORE PUSH1 0x20 ADD SWAP1 DUP2 MSTORE PUSH1 0x20 ADD PUSH0 KECCAK256 PUSH0 SWAP1 SLOAD SWAP1 PUSH2 0x100 EXP SWAP1 DIV PUSH20 0xFFFFFFFFFFFFFFFFFFFFFFFFFFFFFFFFFFFFFFFF AND PUSH20 0xFFFFFFFFFFFFFFFFFFFFFFFFFFFFFFFFFFFFFFFF AND PUSH20 0xFFFFFFFFFFFFFFFFFFFFFFFFFFFFFFFFFFFFFFFF AND DUP2 MSTORE PUSH1 0x20 ADD SWAP1 DUP2 MSTORE PUSH1 0x20 ADD PUSH0 KECCAK256 PUSH1 0x1 ADD SLOAD EQ ISZERO JUMPDEST ISZERO PUSH2 0x150D JUMPI PUSH2 0x1416 PUSH1 0x5 PUSH0 PUSH1 0x4 PUSH0 DUP6 DUP2 MSTORE PUSH1 0x20 ADD SWAP1 DUP2 MSTORE PUSH1 0x20 ADD PUSH0 KECCAK256 PUSH0 SWAP1 SLOAD SWAP1 PUSH2 0x100 EXP SWAP1 DIV PUSH20 0xFFFFFFFFFFFFFFFFFFFFFFFFFFFFFFFFFFFFFFFF AND PUSH20 0xFFFFFFFFFFFFFFFFFFFFFFFFFFFFFFFFFFFFFFFF AND PUSH20 0xFFFFFFFFFFFFFFFFFFFFFFFFFFFFFFFFFFFFFFFF AND DUP2 MSTORE PUSH1 0x20 ADD SWAP1 DUP2 MSTORE PUSH1 0x20 ADD PUSH0 KECCAK256 PUSH1 0x1 ADD SLOAD DUP5 PUSH2 0x25FF JUMP JUMPDEST PUSH1 0x5 PUSH0 PUSH1 0x4 PUSH0 DUP6 DUP2 MSTORE PUSH1 0x20 ADD SWAP1 DUP2 MSTORE PUSH1 0x20 ADD PUSH0 KECCAK256 PUSH0 SWAP1 SLOAD SWAP1 PUSH2 0x100 EXP SWAP1 DIV PUSH20 0xFFFFFFFFFFFFFFFFFFFFFFFFFFFFFFFFFFFFFFFF AND PUSH20 0xFFFFFFFFFFFFFFFFFFFFFFFFFFFFFFFFFFFFFFFF AND PUSH20 0xFFFFFFFFFFFFFFFFFFFFFFFFFFFFFFFFFFFFFFFF AND DUP2 MSTORE PUSH1 0x20 ADD SWAP1 DUP2 MSTORE PUSH1 0x20 ADD PUSH0 KECCAK256 PUSH1 0x4 ADD DUP2 SWAP1 SSTORE POP PUSH1 0x5 PUSH0 PUSH1 0x4 PUSH0 DUP5 DUP2 MSTORE PUSH1 0x20 ADD SWAP1 DUP2 MSTORE PUSH1 0x20 ADD PUSH0 KECCAK256 PUSH0 SWAP1 SLOAD SWAP1 PUSH2 0x100 EXP SWAP1 DIV PUSH20 0xFFFFFFFFFFFFFFFFFFFFFFFFFFFFFFFFFFFFFFFF AND PUSH20 0xFFFFFFFFFFFFFFFFFFFFFFFFFFFFFFFFFFFFFFFF AND PUSH20 0xFFFFFFFFFFFFFFFFFFFFFFFFFFFFFFFFFFFFFFFF AND DUP2 MSTORE PUSH1 0x20 ADD SWAP1 DUP2 MSTORE PUSH1 0x20 ADD PUSH0 KECCAK256 PUSH1 0x4 ADD SLOAD DUP3 PUSH2 0x1506 SWAP2 SWAP1 PUSH2 0x382D JUMP JUMPDEST SWAP2 POP PUSH2 0x167A JUMP JUMPDEST PUSH2 0x1587 PUSH1 0x5 PUSH0 PUSH1 0x4 PUSH0 DUP6 DUP2 MSTORE PUSH1 0x20 ADD SWAP1 DUP2 MSTORE PUSH1 0x20 ADD PUSH0 KECCAK256 PUSH0 SWAP1 SLOAD SWAP1 PUSH2 0x100 EXP SWAP1 DIV PUSH20 0xFFFFFFFFFFFFFFFFFFFFFFFFFFFFFFFFFFFFFFFF AND PUSH20 0xFFFFFFFFFFFFFFFFFFFFFFFFFFFFFFFFFFFFFFFF AND PUSH20 0xFFFFFFFFFFFFFFFFFFFFFFFFFFFFFFFFFFFFFFFF AND DUP2 MSTORE PUSH1 0x20 ADD SWAP1 DUP2 MSTORE PUSH1 0x20 ADD PUSH0 KECCAK256 PUSH1 0x3 ADD SLOAD DUP5 PUSH2 0x25FF JUMP JUMPDEST PUSH1 0x5 PUSH0 PUSH1 0x4 PUSH0 DUP6 DUP2 MSTORE PUSH1 0x20 ADD SWAP1 DUP2 MSTORE PUSH1 0x20 ADD PUSH0 KECCAK256 PUSH0 SWAP1 SLOAD SWAP1 PUSH2 0x100 EXP SWAP1 DIV PUSH20 0xFFFFFFFFFFFFFFFFFFFFFFFFFFFFFFFFFFFFFFFF AND PUSH20 0xFFFFFFFFFFFFFFFFFFFFFFFFFFFFFFFFFFFFFFFF AND PUSH20 0xFFFFFFFFFFFFFFFFFFFFFFFFFFFFFFFFFFFFFFFF AND DUP2 MSTORE PUSH1 0x20 ADD SWAP1 DUP2 MSTORE PUSH1 0x20 ADD PUSH0 KECCAK256 PUSH1 0x4 ADD DUP2 SWAP1 SSTORE POP PUSH1 0x5 PUSH0 PUSH1 0x4 PUSH0 DUP5 DUP2 MSTORE PUSH1 0x20 ADD SWAP1 DUP2 MSTORE PUSH1 0x20 ADD PUSH0 KECCAK256 PUSH0 SWAP1 SLOAD SWAP1 PUSH2 0x100 EXP SWAP1 DIV PUSH20 0xFFFFFFFFFFFFFFFFFFFFFFFFFFFFFFFFFFFFFFFF AND PUSH20 0xFFFFFFFFFFFFFFFFFFFFFFFFFFFFFFFFFFFFFFFF AND PUSH20 0xFFFFFFFFFFFFFFFFFFFFFFFFFFFFFFFFFFFFFFFF AND DUP2 MSTORE PUSH1 0x20 ADD SWAP1 DUP2 MSTORE PUSH1 0x20 ADD PUSH0 KECCAK256 PUSH1 0x4 ADD SLOAD DUP3 PUSH2 0x1677 SWAP2 SWAP1 PUSH2 0x382D JUMP JUMPDEST SWAP2 POP JUMPDEST JUMPDEST DUP1 DUP1 PUSH1 0x1 ADD SWAP2 POP POP PUSH2 0x127D JUMP JUMPDEST POP PUSH0 DUP2 PUSH1 0x6 PUSH0 ADDRESS PUSH20 0xFFFFFFFFFFFFFFFFFFFFFFFFFFFFFFFFFFFFFFFF AND PUSH20 0xFFFFFFFFFFFFFFFFFFFFFFFFFFFFFFFFFFFFFFFF AND DUP2 MSTORE PUSH1 0x20 ADD SWAP1 DUP2 MSTORE PUSH1 0x20 ADD PUSH0 KECCAK256 PUSH1 0x3 ADD SLOAD PUSH2 0x16D6 SWAP2 SWAP1 PUSH2 0x38CE JUMP JUMPDEST SWAP1 POP PUSH0 DUP1 PUSH0 SWAP1 POP JUMPDEST PUSH1 0x2 SLOAD DUP2 LT ISZERO PUSH2 0x1B40 JUMPI PUSH1 0x5 PUSH0 PUSH1 0x4 PUSH0 DUP5 DUP2 MSTORE PUSH1 0x20 ADD SWAP1 DUP2 MSTORE PUSH1 0x20 ADD PUSH0 KECCAK256 PUSH0 SWAP1 SLOAD SWAP1 PUSH2 0x100 EXP SWAP1 DIV PUSH20 0xFFFFFFFFFFFFFFFFFFFFFFFFFFFFFFFFFFFFFFFF AND PUSH20 0xFFFFFFFFFFFFFFFFFFFFFFFFFFFFFFFFFFFFFFFF AND PUSH20 0xFFFFFFFFFFFFFFFFFFFFFFFFFFFFFFFFFFFFFFFF AND DUP2 MSTORE PUSH1 0x20 ADD SWAP1 DUP2 MSTORE PUSH1 0x20 ADD PUSH0 KECCAK256 PUSH1 0x5 ADD PUSH0 DUP7 DUP2 MSTORE PUSH1 0x20 ADD SWAP1 DUP2 MSTORE PUSH1 0x20 ADD PUSH0 KECCAK256 PUSH0 SWAP1 SLOAD SWAP1 PUSH2 0x100 EXP SWAP1 DIV PUSH1 0xFF AND ISZERO PUSH2 0x1B33 JUMPI PUSH0 DUP4 PUSH1 0x5 PUSH0 PUSH1 0x4 PUSH0 DUP7 DUP2 MSTORE PUSH1 0x20 ADD SWAP1 DUP2 MSTORE PUSH1 0x20 ADD PUSH0 KECCAK256 PUSH0 SWAP1 SLOAD SWAP1 PUSH2 0x100 EXP SWAP1 DIV PUSH20 0xFFFFFFFFFFFFFFFFFFFFFFFFFFFFFFFFFFFFFFFF AND PUSH20 0xFFFFFFFFFFFFFFFFFFFFFFFFFFFFFFFFFFFFFFFF AND PUSH20 0xFFFFFFFFFFFFFFFFFFFFFFFFFFFFFFFFFFFFFFFF AND DUP2 MSTORE PUSH1 0x20 ADD SWAP1 DUP2 MSTORE PUSH1 0x20 ADD PUSH0 KECCAK256 PUSH1 0x4 ADD SLOAD PUSH2 0x17F6 SWAP2 SWAP1 PUSH2 0x3860 JUMP JUMPDEST SWAP1 POP PUSH0 PUSH1 0x5 PUSH0 PUSH1 0x4 PUSH0 DUP7 DUP2 MSTORE PUSH1 0x20 ADD SWAP1 DUP2 MSTORE PUSH1 0x20 ADD PUSH0 KECCAK256 PUSH0 SWAP1 SLOAD SWAP1 PUSH2 0x100 EXP SWAP1 DIV PUSH20 0xFFFFFFFFFFFFFFFFFFFFFFFFFFFFFFFFFFFFFFFF AND PUSH20 0xFFFFFFFFFFFFFFFFFFFFFFFFFFFFFFFFFFFFFFFF AND PUSH20 0xFFFFFFFFFFFFFFFFFFFFFFFFFFFFFFFFFFFFFFFF AND DUP2 MSTORE PUSH1 0x20 ADD SWAP1 DUP2 MSTORE PUSH1 0x20 ADD PUSH0 KECCAK256 PUSH1 0x4 ADD SLOAD DUP3 PUSH2 0x1875 SWAP2 SWAP1 PUSH2 0x39BD JUMP JUMPDEST SWAP1 POP PUSH0 PUSH2 0x1884 DUP3 PUSH1 0x3 SLOAD PUSH2 0x31BB JUMP JUMPDEST SWAP1 POP DUP1 DUP6 PUSH2 0x1892 SWAP2 SWAP1 PUSH2 0x382D JUMP JUMPDEST SWAP5 POP DUP1 DUP4 PUSH2 0x18A0 SWAP2 SWAP1 PUSH2 0x39BD JUMP JUMPDEST PUSH1 0x1 PUSH0 SWAP1 SLOAD SWAP1 PUSH2 0x100 EXP SWAP1 DIV PUSH20 0xFFFFFFFFFFFFFFFFFFFFFFFFFFFFFFFFFFFFFFFF AND PUSH20 0xFFFFFFFFFFFFFFFFFFFFFFFFFFFFFFFFFFFFFFFF AND PUSH4 0x70A08231 ADDRESS PUSH1 0x40 MLOAD DUP3 PUSH4 0xFFFFFFFF AND PUSH1 0xE0 SHL DUP2 MSTORE PUSH1 0x4 ADD PUSH2 0x18FA SWAP2 SWAP1 PUSH2 0x3456 JUMP JUMPDEST PUSH1 0x20 PUSH1 0x40 MLOAD DUP1 DUP4 SUB DUP2 DUP7 GAS STATICCALL ISZERO DUP1 ISZERO PUSH2 0x1915 JUMPI RETURNDATASIZE PUSH0 DUP1 RETURNDATACOPY RETURNDATASIZE PUSH0 REVERT JUMPDEST POP POP POP POP PUSH1 0x40 MLOAD RETURNDATASIZE PUSH1 0x1F NOT PUSH1 0x1F DUP3 ADD AND DUP3 ADD DUP1 PUSH1 0x40 MSTORE POP DUP2 ADD SWAP1 PUSH2 0x1939 SWAP2 SWAP1 PUSH2 0x3A04 JUMP JUMPDEST LT ISZERO PUSH2 0x1A14 JUMPI PUSH1 0x1 PUSH0 SWAP1 SLOAD SWAP1 PUSH2 0x100 EXP SWAP1 DIV PUSH20 0xFFFFFFFFFFFFFFFFFFFFFFFFFFFFFFFFFFFFFFFF AND PUSH20 0xFFFFFFFFFFFFFFFFFFFFFFFFFFFFFFFFFFFFFFFF AND PUSH4 0x70A08231 ADDRESS PUSH1 0x40 MLOAD DUP3 PUSH4 0xFFFFFFFF AND PUSH1 0xE0 SHL DUP2 MSTORE PUSH1 0x4 ADD PUSH2 0x1999 SWAP2 SWAP1 PUSH2 0x3456 JUMP JUMPDEST PUSH1 0x20 PUSH1 0x40 MLOAD DUP1 DUP4 SUB DUP2 DUP7 GAS STATICCALL ISZERO DUP1 ISZERO PUSH2 0x19B4 JUMPI RETURNDATASIZE PUSH0 DUP1 RETURNDATACOPY RETURNDATASIZE PUSH0 REVERT JUMPDEST POP POP POP POP PUSH1 0x40 MLOAD RETURNDATASIZE PUSH1 0x1F NOT PUSH1 0x1F DUP3 ADD AND DUP3 ADD DUP1 PUSH1 0x40 MSTORE POP DUP2 ADD SWAP1 PUSH2 0x19D8 SWAP2 SWAP1 PUSH2 0x3A04 JUMP JUMPDEST PUSH1 0x40 MLOAD PUSH32 0xF9AE0CB400000000000000000000000000000000000000000000000000000000 DUP2 MSTORE PUSH1 0x4 ADD PUSH2 0x1A0B SWAP2 SWAP1 PUSH2 0x371D JUMP JUMPDEST PUSH1 0x40 MLOAD DUP1 SWAP2 SUB SWAP1 REVERT JUMPDEST PUSH0 PUSH1 0x1 PUSH0 SWAP1 SLOAD SWAP1 PUSH2 0x100 EXP SWAP1 DIV PUSH20 0xFFFFFFFFFFFFFFFFFFFFFFFFFFFFFFFFFFFFFFFF AND PUSH20 0xFFFFFFFFFFFFFFFFFFFFFFFFFFFFFFFFFFFFFFFF AND PUSH4 0xA9059CBB PUSH1 0x4 PUSH0 DUP9 DUP2 MSTORE PUSH1 0x20 ADD SWAP1 DUP2 MSTORE PUSH1 0x20 ADD PUSH0 KECCAK256 PUSH0 SWAP1 SLOAD SWAP1 PUSH2 0x100 EXP SWAP1 DIV PUSH20 0xFFFFFFFFFFFFFFFFFFFFFFFFFFFFFFFFFFFFFFFF AND DUP5 DUP8 PUSH2 0x1A8F SWAP2 SWAP1 PUSH2 0x39BD JUMP JUMPDEST PUSH1 0x40 MLOAD DUP4 PUSH4 0xFFFFFFFF AND PUSH1 0xE0 SHL DUP2 MSTORE PUSH1 0x4 ADD PUSH2 0x1AAC SWAP3 SWAP2 SWAP1 PUSH2 0x3A2F JUMP JUMPDEST PUSH1 0x20 PUSH1 0x40 MLOAD DUP1 DUP4 SUB DUP2 PUSH0 DUP8 GAS CALL ISZERO DUP1 ISZERO PUSH2 0x1AC8 JUMPI RETURNDATASIZE PUSH0 DUP1 RETURNDATACOPY RETURNDATASIZE PUSH0 REVERT JUMPDEST POP POP POP POP PUSH1 0x40 MLOAD RETURNDATASIZE PUSH1 0x1F NOT PUSH1 0x1F DUP3 ADD AND DUP3 ADD DUP1 PUSH1 0x40 MSTORE POP DUP2 ADD SWAP1 PUSH2 0x1AEC SWAP2 SWAP1 PUSH2 0x3A80 JUMP JUMPDEST SWAP1 POP DUP1 PUSH2 0x1B2E JUMPI PUSH1 0x40 MLOAD PUSH32 0x8C379A000000000000000000000000000000000000000000000000000000000 DUP2 MSTORE PUSH1 0x4 ADD PUSH2 0x1B25 SWAP1 PUSH2 0x3AF5 JUMP JUMPDEST PUSH1 0x40 MLOAD DUP1 SWAP2 SUB SWAP1 REVERT JUMPDEST POP POP POP POP JUMPDEST DUP1 DUP1 PUSH1 0x1 ADD SWAP2 POP POP PUSH2 0x16DE JUMP JUMPDEST POP DUP1 PUSH1 0x1 PUSH0 SWAP1 SLOAD SWAP1 PUSH2 0x100 EXP SWAP1 DIV PUSH20 0xFFFFFFFFFFFFFFFFFFFFFFFFFFFFFFFFFFFFFFFF AND PUSH20 0xFFFFFFFFFFFFFFFFFFFFFFFFFFFFFFFFFFFFFFFF AND PUSH4 0x70A08231 ADDRESS PUSH1 0x40 MLOAD DUP3 PUSH4 0xFFFFFFFF AND PUSH1 0xE0 SHL DUP2 MSTORE PUSH1 0x4 ADD PUSH2 0x1B9C SWAP2 SWAP1 PUSH2 0x3456 JUMP JUMPDEST PUSH1 0x20 PUSH1 0x40 MLOAD DUP1 DUP4 SUB DUP2 DUP7 GAS STATICCALL ISZERO DUP1 ISZERO PUSH2 0x1BB7 JUMPI RETURNDATASIZE PUSH0 DUP1 RETURNDATACOPY RETURNDATASIZE PUSH0 REVERT JUMPDEST POP POP POP POP PUSH1 0x40 MLOAD RETURNDATASIZE PUSH1 0x1F NOT PUSH1 0x1F DUP3 ADD AND DUP3 ADD DUP1 PUSH1 0x40 MSTORE POP DUP2 ADD SWAP1 PUSH2 0x1BDB SWAP2 SWAP1 PUSH2 0x3A04 JUMP JUMPDEST LT ISZERO PUSH2 0x1CB6 JUMPI PUSH1 0x1 PUSH0 SWAP1 SLOAD SWAP1 PUSH2 0x100 EXP SWAP1 DIV PUSH20 0xFFFFFFFFFFFFFFFFFFFFFFFFFFFFFFFFFFFFFFFF AND PUSH20 0xFFFFFFFFFFFFFFFFFFFFFFFFFFFFFFFFFFFFFFFF AND PUSH4 0x70A08231 ADDRESS PUSH1 0x40 MLOAD DUP3 PUSH4 0xFFFFFFFF AND PUSH1 0xE0 SHL DUP2 MSTORE PUSH1 0x4 ADD PUSH2 0x1C3B SWAP2 SWAP1 PUSH2 0x3456 JUMP JUMPDEST PUSH1 0x20 PUSH1 0x40 MLOAD DUP1 DUP4 SUB DUP2 DUP7 GAS STATICCALL ISZERO DUP1 ISZERO PUSH2 0x1C56 JUMPI RETURNDATASIZE PUSH0 DUP1 RETURNDATACOPY RETURNDATASIZE PUSH0 REVERT JUMPDEST POP POP POP POP PUSH1 0x40 MLOAD RETURNDATASIZE PUSH1 0x1F NOT PUSH1 0x1F DUP3 ADD AND DUP3 ADD DUP1 PUSH1 0x40 MSTORE POP DUP2 ADD SWAP1 PUSH2 0x1C7A SWAP2 SWAP1 PUSH2 0x3A04 JUMP JUMPDEST PUSH1 0x40 MLOAD PUSH32 0xBA9C3E4F00000000000000000000000000000000000000000000000000000000 DUP2 MSTORE PUSH1 0x4 ADD PUSH2 0x1CAD SWAP2 SWAP1 PUSH2 0x371D JUMP JUMPDEST PUSH1 0x40 MLOAD DUP1 SWAP2 SUB SWAP1 REVERT JUMPDEST PUSH1 0x1 PUSH1 0x6 PUSH0 ADDRESS PUSH20 0xFFFFFFFFFFFFFFFFFFFFFFFFFFFFFFFFFFFFFFFF AND PUSH20 0xFFFFFFFFFFFFFFFFFFFFFFFFFFFFFFFFFFFFFFFF AND DUP2 MSTORE PUSH1 0x20 ADD SWAP1 DUP2 MSTORE PUSH1 0x20 ADD PUSH0 KECCAK256 PUSH0 ADD PUSH0 PUSH2 0x100 EXP DUP2 SLOAD DUP2 PUSH1 0xFF MUL NOT AND SWAP1 DUP4 ISZERO ISZERO MUL OR SWAP1 SSTORE POP PUSH0 PUSH1 0x1 PUSH0 SWAP1 SLOAD SWAP1 PUSH2 0x100 EXP SWAP1 DIV PUSH20 0xFFFFFFFFFFFFFFFFFFFFFFFFFFFFFFFFFFFFFFFF AND PUSH20 0xFFFFFFFFFFFFFFFFFFFFFFFFFFFFFFFFFFFFFFFF AND PUSH4 0xA9059CBB PUSH2 0x1D53 PUSH2 0x25D8 JUMP JUMPDEST DUP5 PUSH1 0x40 MLOAD DUP4 PUSH4 0xFFFFFFFF AND PUSH1 0xE0 SHL DUP2 MSTORE PUSH1 0x4 ADD PUSH2 0x1D71 SWAP3 SWAP2 SWAP1 PUSH2 0x3A2F JUMP JUMPDEST PUSH1 0x20 PUSH1 0x40 MLOAD DUP1 DUP4 SUB DUP2 PUSH0 DUP8 GAS CALL ISZERO DUP1 ISZERO PUSH2 0x1D8D JUMPI RETURNDATASIZE PUSH0 DUP1 RETURNDATACOPY RETURNDATASIZE PUSH0 REVERT JUMPDEST POP POP POP POP PUSH1 0x40 MLOAD RETURNDATASIZE PUSH1 0x1F NOT PUSH1 0x1F DUP3 ADD AND DUP3 ADD DUP1 PUSH1 0x40 MSTORE POP DUP2 ADD SWAP1 PUSH2 0x1DB1 SWAP2 SWAP1 PUSH2 0x3A80 JUMP JUMPDEST SWAP1 POP DUP1 PUSH2 0x1DF3 JUMPI PUSH1 0x40 MLOAD PUSH32 0x8C379A000000000000000000000000000000000000000000000000000000000 DUP2 MSTORE PUSH1 0x4 ADD PUSH2 0x1DEA SWAP1 PUSH2 0x3AF5 JUMP JUMPDEST PUSH1 0x40 MLOAD DUP1 SWAP2 SUB SWAP1 REVERT JUMPDEST PUSH32 0x4D21AF759C8D2F25C6246594B4CFC2EDEB2B901BC0C6E87F5E21C212A12CA1FD PUSH2 0x1E1C PUSH2 0x25D8 JUMP JUMPDEST DUP4 DUP6 DUP9 PUSH1 0x40 MLOAD PUSH2 0x1E2F SWAP5 SWAP4 SWAP3 SWAP2 SWAP1 PUSH2 0x3B13 JUMP JUMPDEST PUSH1 0x40 MLOAD DUP1 SWAP2 SUB SWAP1 LOG1 POP POP POP POP POP JUMP JUMPDEST PUSH0 DUP2 EQ ISZERO DUP1 ISZERO PUSH2 0x1E4F JUMPI POP PUSH1 0x1 DUP2 EQ ISZERO JUMPDEST ISZERO PUSH2 0x1E91 JUMPI DUP1 PUSH1 0x40 MLOAD PUSH32 0xD7ACBE8900000000000000000000000000000000000000000000000000000000 DUP2 MSTORE PUSH1 0x4 ADD PUSH2 0x1E88 SWAP2 SWAP1 PUSH2 0x371D JUMP JUMPDEST PUSH1 0x40 MLOAD DUP1 SWAP2 SUB SWAP1 REVERT JUMPDEST PUSH0 DUP3 GT PUSH2 0x1ED5 JUMPI DUP2 PUSH1 0x40 MLOAD PUSH32 0x2FF4783000000000000000000000000000000000000000000000000000000000 DUP2 MSTORE PUSH1 0x4 ADD PUSH2 0x1ECC SWAP2 SWAP1 PUSH2 0x371D JUMP JUMPDEST PUSH1 0x40 MLOAD DUP1 SWAP2 SUB SWAP1 REVERT JUMPDEST PUSH1 0x6 PUSH0 ADDRESS PUSH20 0xFFFFFFFFFFFFFFFFFFFFFFFFFFFFFFFFFFFFFFFF AND PUSH20 0xFFFFFFFFFFFFFFFFFFFFFFFFFFFFFFFFFFFFFFFF AND DUP2 MSTORE PUSH1 0x20 ADD SWAP1 DUP2 MSTORE PUSH1 0x20 ADD PUSH0 KECCAK256 PUSH0 ADD PUSH0 SWAP1 SLOAD SWAP1 PUSH2 0x100 EXP SWAP1 DIV PUSH1 0xFF AND ISZERO PUSH2 0x1F58 JUMPI PUSH1 0x40 MLOAD PUSH32 0x853FD42100000000000000000000000000000000000000000000000000000000 DUP2 MSTORE PUSH1 0x4 ADD PUSH1 0x40 MLOAD DUP1 SWAP2 SUB SWAP1 REVERT JUMPDEST PUSH1 0x5 PUSH0 CALLER PUSH20 0xFFFFFFFFFFFFFFFFFFFFFFFFFFFFFFFFFFFFFFFF AND PUSH20 0xFFFFFFFFFFFFFFFFFFFFFFFFFFFFFFFFFFFFFFFF AND DUP2 MSTORE PUSH1 0x20 ADD SWAP1 DUP2 MSTORE PUSH1 0x20 ADD PUSH0 KECCAK256 PUSH1 0x5 ADD PUSH0 DUP3 DUP2 MSTORE PUSH1 0x20 ADD SWAP1 DUP2 MSTORE PUSH1 0x20 ADD PUSH0 KECCAK256 PUSH0 SWAP1 SLOAD SWAP1 PUSH2 0x100 EXP SWAP1 DIV PUSH1 0xFF AND PUSH2 0x2021 JUMPI CALLER PUSH1 0x4 PUSH0 PUSH1 0x2 SLOAD DUP2 MSTORE PUSH1 0x20 ADD SWAP1 DUP2 MSTORE PUSH1 0x20 ADD PUSH0 KECCAK256 PUSH0 PUSH2 0x100 EXP DUP2 SLOAD DUP2 PUSH20 0xFFFFFFFFFFFFFFFFFFFFFFFFFFFFFFFFFFFFFFFF MUL NOT AND SWAP1 DUP4 PUSH20 0xFFFFFFFFFFFFFFFFFFFFFFFFFFFFFFFFFFFFFFFF AND MUL OR SWAP1 SSTORE POP PUSH1 0x2 PUSH0 DUP2 SLOAD DUP1 SWAP3 SWAP2 SWAP1 PUSH2 0x201B SWAP1 PUSH2 0x3976 JUMP JUMPDEST SWAP2 SWAP1 POP SSTORE POP JUMPDEST PUSH0 DUP2 SUB PUSH2 0x20D8 JUMPI PUSH1 0x6 PUSH0 ADDRESS PUSH20 0xFFFFFFFFFFFFFFFFFFFFFFFFFFFFFFFFFFFFFFFF AND PUSH20 0xFFFFFFFFFFFFFFFFFFFFFFFFFFFFFFFFFFFFFFFF AND DUP2 MSTORE PUSH1 0x20 ADD SWAP1 DUP2 MSTORE PUSH1 0x20 ADD PUSH0 KECCAK256 PUSH1 0x7 ADD PUSH0 DUP2 SLOAD DUP1 SWAP3 SWAP2 SWAP1 PUSH2 0x2078 SWAP1 PUSH2 0x3976 JUMP JUMPDEST SWAP2 SWAP1 POP SSTORE POP DUP2 PUSH1 0x5 PUSH0 CALLER PUSH20 0xFFFFFFFFFFFFFFFFFFFFFFFFFFFFFFFFFFFFFFFF AND PUSH20 0xFFFFFFFFFFFFFFFFFFFFFFFFFFFFFFFFFFFFFFFF AND DUP2 MSTORE PUSH1 0x20 ADD SWAP1 DUP2 MSTORE PUSH1 0x20 ADD PUSH0 KECCAK256 PUSH1 0x1 ADD PUSH0 DUP3 DUP3 SLOAD PUSH2 0x20CC SWAP2 SWAP1 PUSH2 0x382D JUMP JUMPDEST SWAP3 POP POP DUP2 SWAP1 SSTORE POP PUSH2 0x2184 JUMP JUMPDEST PUSH1 0x6 PUSH0 ADDRESS PUSH20 0xFFFFFFFFFFFFFFFFFFFFFFFFFFFFFFFFFFFFFFFF AND PUSH20 0xFFFFFFFFFFFFFFFFFFFFFFFFFFFFFFFFFFFFFFFF AND DUP2 MSTORE PUSH1 0x20 ADD SWAP1 DUP2 MSTORE PUSH1 0x20 ADD PUSH0 KECCAK256 PUSH1 0x6 ADD PUSH0 DUP2 SLOAD DUP1 SWAP3 SWAP2 SWAP1 PUSH2 0x2128 SWAP1 PUSH2 0x3976 JUMP JUMPDEST SWAP2 SWAP1 POP SSTORE POP DUP2 PUSH1 0x5 PUSH0 CALLER PUSH20 0xFFFFFFFFFFFFFFFFFFFFFFFFFFFFFFFFFFFFFFFF AND PUSH20 0xFFFFFFFFFFFFFFFFFFFFFFFFFFFFFFFFFFFFFFFF AND DUP2 MSTORE PUSH1 0x20 ADD SWAP1 DUP2 MSTORE PUSH1 0x20 ADD PUSH0 KECCAK256 PUSH1 0x3 ADD PUSH0 DUP3 DUP3 SLOAD PUSH2 0x217C SWAP2 SWAP1 PUSH2 0x382D JUMP JUMPDEST SWAP3 POP POP DUP2 SWAP1 SSTORE POP JUMPDEST DUP2 PUSH1 0x6 PUSH0 ADDRESS PUSH20 0xFFFFFFFFFFFFFFFFFFFFFFFFFFFFFFFFFFFFFFFF AND PUSH20 0xFFFFFFFFFFFFFFFFFFFFFFFFFFFFFFFFFFFFFFFF AND DUP2 MSTORE PUSH1 0x20 ADD SWAP1 DUP2 MSTORE PUSH1 0x20 ADD PUSH0 KECCAK256 PUSH1 0x3 ADD PUSH0 DUP3 DUP3 SLOAD PUSH2 0x21D3 SWAP2 SWAP1 PUSH2 0x382D JUMP JUMPDEST SWAP3 POP POP DUP2 SWAP1 SSTORE POP PUSH1 0x6 PUSH0 ADDRESS PUSH20 0xFFFFFFFFFFFFFFFFFFFFFFFFFFFFFFFFFFFFFFFF AND PUSH20 0xFFFFFFFFFFFFFFFFFFFFFFFFFFFFFFFFFFFFFFFF AND DUP2 MSTORE PUSH1 0x20 ADD SWAP1 DUP2 MSTORE PUSH1 0x20 ADD PUSH0 KECCAK256 PUSH1 0x2 ADD PUSH0 DUP2 SLOAD DUP1 SWAP3 SWAP2 SWAP1 PUSH2 0x222A SWAP1 PUSH2 0x3976 JUMP JUMPDEST SWAP2 SWAP1 POP SSTORE POP PUSH1 0x1 PUSH1 0x5 PUSH0 CALLER PUSH20 0xFFFFFFFFFFFFFFFFFFFFFFFFFFFFFFFFFFFFFFFF AND PUSH20 0xFFFFFFFFFFFFFFFFFFFFFFFFFFFFFFFFFFFFFFFF AND DUP2 MSTORE PUSH1 0x20 ADD SWAP1 DUP2 MSTORE PUSH1 0x20 ADD PUSH0 KECCAK256 PUSH1 0x5 ADD PUSH0 DUP4 DUP2 MSTORE PUSH1 0x20 ADD SWAP1 DUP2 MSTORE PUSH1 0x20 ADD PUSH0 KECCAK256 PUSH0 PUSH2 0x100 EXP DUP2 SLOAD DUP2 PUSH1 0xFF MUL NOT AND SWAP1 DUP4 ISZERO ISZERO MUL OR SWAP1 SSTORE POP PUSH2 0x2320 PUSH1 0x6 PUSH0 ADDRESS PUSH20 0xFFFFFFFFFFFFFFFFFFFFFFFFFFFFFFFFFFFFFFFF AND PUSH20 0xFFFFFFFFFFFFFFFFFFFFFFFFFFFFFFFFFFFFFFFF AND DUP2 MSTORE PUSH1 0x20 ADD SWAP1 DUP2 MSTORE PUSH1 0x20 ADD PUSH0 KECCAK256 PUSH1 0x7 ADD SLOAD PUSH1 0x6 PUSH0 ADDRESS PUSH20 0xFFFFFFFFFFFFFFFFFFFFFFFFFFFFFFFFFFFFFFFF AND PUSH20 0xFFFFFFFFFFFFFFFFFFFFFFFFFFFFFFFFFFFFFFFF AND DUP2 MSTORE PUSH1 0x20 ADD SWAP1 DUP2 MSTORE PUSH1 0x20 ADD PUSH0 KECCAK256 PUSH1 0x6 ADD SLOAD PUSH2 0x5BE JUMP JUMPDEST PUSH1 0x6 PUSH0 ADDRESS PUSH20 0xFFFFFFFFFFFFFFFFFFFFFFFFFFFFFFFFFFFFFFFF AND PUSH20 0xFFFFFFFFFFFFFFFFFFFFFFFFFFFFFFFFFFFFFFFF AND DUP2 MSTORE PUSH1 0x20 ADD SWAP1 DUP2 MSTORE PUSH1 0x20 ADD PUSH0 KECCAK256 PUSH1 0x4 ADD PUSH0 PUSH1 0x2 DUP2 LT PUSH2 0x2372 JUMPI PUSH2 0x2371 PUSH2 0x37D3 JUMP JUMPDEST JUMPDEST ADD PUSH0 PUSH1 0x6 PUSH0 ADDRESS PUSH20 0xFFFFFFFFFFFFFFFFFFFFFFFFFFFFFFFFFFFFFFFF AND PUSH20 0xFFFFFFFFFFFFFFFFFFFFFFFFFFFFFFFFFFFFFFFF AND DUP2 MSTORE PUSH1 0x20 ADD SWAP1 DUP2 MSTORE PUSH1 0x20 ADD PUSH0 KECCAK256 PUSH1 0x4 ADD PUSH1 0x1 PUSH1 0x2 DUP2 LT PUSH2 0x23C7 JUMPI PUSH2 0x23C6 PUSH2 0x37D3 JUMP JUMPDEST JUMPDEST ADD PUSH0 DUP5 SWAP2 SWAP1 POP SSTORE DUP4 SWAP2 SWAP1 POP SSTORE POP POP PUSH0 PUSH1 0x1 PUSH0 SWAP1 SLOAD SWAP1 PUSH2 0x100 EXP SWAP1 DIV PUSH20 0xFFFFFFFFFFFFFFFFFFFFFFFFFFFFFFFFFFFFFFFF AND PUSH20 0xFFFFFFFFFFFFFFFFFFFFFFFFFFFFFFFFFFFFFFFF AND PUSH4 0x23B872DD CALLER ADDRESS DUP7 PUSH1 0x40 MLOAD DUP5 PUSH4 0xFFFFFFFF AND PUSH1 0xE0 SHL DUP2 MSTORE PUSH1 0x4 ADD PUSH2 0x2434 SWAP4 SWAP3 SWAP2 SWAP1 PUSH2 0x3B56 JUMP JUMPDEST PUSH1 0x20 PUSH1 0x40 MLOAD DUP1 DUP4 SUB DUP2 PUSH0 DUP8 GAS CALL ISZERO DUP1 ISZERO PUSH2 0x2450 JUMPI RETURNDATASIZE PUSH0 DUP1 RETURNDATACOPY RETURNDATASIZE PUSH0 REVERT JUMPDEST POP POP POP POP PUSH1 0x40 MLOAD RETURNDATASIZE PUSH1 0x1F NOT PUSH1 0x1F DUP3 ADD AND DUP3 ADD DUP1 PUSH1 0x40 MSTORE POP DUP2 ADD SWAP1 PUSH2 0x2474 SWAP2 SWAP1 PUSH2 0x3A80 JUMP JUMPDEST SWAP1 POP DUP1 PUSH2 0x24B6 JUMPI PUSH1 0x40 MLOAD PUSH32 0x8C379A000000000000000000000000000000000000000000000000000000000 DUP2 MSTORE PUSH1 0x4 ADD PUSH2 0x24AD SWAP1 PUSH2 0x3AF5 JUMP JUMPDEST PUSH1 0x40 MLOAD DUP1 SWAP2 SUB SWAP1 REVERT JUMPDEST DUP3 CALLER PUSH20 0xFFFFFFFFFFFFFFFFFFFFFFFFFFFFFFFFFFFFFFFF AND PUSH32 0xF41B7910E085D0992D604FD470931728FD77CC8EB504D99E50E51A0A30FCFD1A DUP5 PUSH1 0x40 MLOAD PUSH2 0x24FD SWAP2 SWAP1 PUSH2 0x371D JUMP JUMPDEST PUSH1 0x40 MLOAD DUP1 SWAP2 SUB SWAP1 LOG3 POP POP POP JUMP JUMPDEST PUSH2 0x2512 PUSH2 0x3266 JUMP JUMPDEST PUSH2 0x251B PUSH0 PUSH2 0x32ED JUMP JUMPDEST JUMP JUMPDEST PUSH0 DUP1 DUP4 GT PUSH2 0x2560 JUMPI PUSH1 0x40 MLOAD PUSH32 0x8C379A000000000000000000000000000000000000000000000000000000000 DUP2 MSTORE PUSH1 0x4 ADD PUSH2 0x2557 SWAP1 PUSH2 0x3BD5 JUMP JUMPDEST PUSH1 0x40 MLOAD DUP1 SWAP2 SUB SWAP1 REVERT JUMPDEST PUSH0 PUSH1 0x64 PUSH1 0x6 PUSH0 ADDRESS PUSH20 0xFFFFFFFFFFFFFFFFFFFFFFFFFFFFFFFFFFFFFFFF AND PUSH20 0xFFFFFFFFFFFFFFFFFFFFFFFFFFFFFFFFFFFFFFFF AND DUP2 MSTORE PUSH1 0x20 ADD SWAP1 DUP2 MSTORE PUSH1 0x20 ADD PUSH0 KECCAK256 PUSH1 0x4 ADD DUP5 PUSH1 0x2 DUP2 LT PUSH2 0x25B5 JUMPI PUSH2 0x25B4 PUSH2 0x37D3 JUMP JUMPDEST JUMPDEST ADD SLOAD DUP6 PUSH2 0x25C2 SWAP2 SWAP1 PUSH2 0x3860 JUMP JUMPDEST PUSH2 0x25CC SWAP2 SWAP1 PUSH2 0x38CE JUMP JUMPDEST SWAP1 POP DUP1 SWAP2 POP POP SWAP3 SWAP2 POP POP JUMP JUMPDEST PUSH0 DUP1 PUSH0 SWAP1 SLOAD SWAP1 PUSH2 0x100 EXP SWAP1 DIV PUSH20 0xFFFFFFFFFFFFFFFFFFFFFFFFFFFFFFFFFFFFFFFF AND SWAP1 POP SWAP1 JUMP JUMPDEST PUSH0 DUP1 PUSH1 0x6 PUSH0 ADDRESS PUSH20 0xFFFFFFFFFFFFFFFFFFFFFFFFFFFFFFFFFFFFFFFF AND PUSH20 0xFFFFFFFFFFFFFFFFFFFFFFFFFFFFFFFFFFFFFFFF AND DUP2 MSTORE PUSH1 0x20 ADD SWAP1 DUP2 MSTORE PUSH1 0x20 ADD PUSH0 KECCAK256 PUSH1 0x4 ADD DUP4 PUSH1 0x2 DUP2 LT PUSH2 0x2653 JUMPI PUSH2 0x2652 PUSH2 0x37D3 JUMP JUMPDEST JUMPDEST ADD SLOAD SWAP1 POP PUSH0 DUP2 SUB PUSH2 0x2699 JUMPI PUSH1 0x40 MLOAD PUSH32 0x8C379A000000000000000000000000000000000000000000000000000000000 DUP2 MSTORE PUSH1 0x4 ADD PUSH2 0x2690 SWAP1 PUSH2 0x3C3D JUMP JUMPDEST PUSH1 0x40 MLOAD DUP1 SWAP2 SUB SWAP1 REVERT JUMPDEST PUSH0 DUP2 DUP6 PUSH2 0x26A6 SWAP2 SWAP1 PUSH2 0x38CE JUMP JUMPDEST SWAP1 POP DUP1 SWAP3 POP POP POP SWAP3 SWAP2 POP POP JUMP JUMPDEST PUSH1 0x3 SLOAD DUP2 JUMP JUMPDEST PUSH1 0x2 SLOAD DUP2 JUMP JUMPDEST PUSH1 0x6 PUSH1 0x20 MSTORE DUP1 PUSH0 MSTORE PUSH1 0x40 PUSH0 KECCAK256 PUSH0 SWAP2 POP SWAP1 POP DUP1 PUSH0 ADD PUSH0 SWAP1 SLOAD SWAP1 PUSH2 0x100 EXP SWAP1 DIV PUSH1 0xFF AND SWAP1 DUP1 PUSH1 0x1 ADD SLOAD SWAP1 DUP1 PUSH1 0x2 ADD SLOAD SWAP1 DUP1 PUSH1 0x3 ADD SLOAD SWAP1 DUP1 PUSH1 0x6 ADD SLOAD SWAP1 DUP1 PUSH1 0x7 ADD SLOAD SWAP1 POP DUP7 JUMP JUMPDEST PUSH2 0x270B PUSH2 0x3266 JUMP JUMPDEST PUSH0 PUSH20 0xFFFFFFFFFFFFFFFFFFFFFFFFFFFFFFFFFFFFFFFF AND DUP2 PUSH20 0xFFFFFFFFFFFFFFFFFFFFFFFFFFFFFFFFFFFFFFFF AND SUB PUSH2 0x277B JUMPI PUSH0 PUSH1 0x40 MLOAD PUSH32 0x1E4FBDF700000000000000000000000000000000000000000000000000000000 DUP2 MSTORE PUSH1 0x4 ADD PUSH2 0x2772 SWAP2 SWAP1 PUSH2 0x3456 JUMP JUMPDEST PUSH1 0x40 MLOAD DUP1 SWAP2 SUB SWAP1 REVERT JUMPDEST PUSH2 0x2784 DUP2 PUSH2 0x32ED JUMP JUMPDEST POP JUMP JUMPDEST PUSH1 0x7 PUSH0 DUP3 PUSH20 0xFFFFFFFFFFFFFFFFFFFFFFFFFFFFFFFFFFFFFFFF AND PUSH20 0xFFFFFFFFFFFFFFFFFFFFFFFFFFFFFFFFFFFFFFFF AND DUP2 MSTORE PUSH1 0x20 ADD SWAP1 DUP2 MSTORE PUSH1 0x20 ADD PUSH0 KECCAK256 PUSH0 DUP4 DUP2 MSTORE PUSH1 0x20 ADD SWAP1 DUP2 MSTORE PUSH1 0x20 ADD PUSH0 KECCAK256 PUSH0 ADD PUSH0 SWAP1 SLOAD SWAP1 PUSH2 0x100 EXP SWAP1 DIV PUSH1 0xFF AND PUSH2 0x2823 JUMPI DUP2 PUSH1 0x40 MLOAD PUSH32 0x1599706800000000000000000000000000000000000000000000000000000000 DUP2 MSTORE PUSH1 0x4 ADD PUSH2 0x281A SWAP2 SWAP1 PUSH2 0x371D JUMP JUMPDEST PUSH1 0x40 MLOAD DUP1 SWAP2 SUB SWAP1 REVERT JUMPDEST PUSH1 0x7 PUSH0 DUP3 PUSH20 0xFFFFFFFFFFFFFFFFFFFFFFFFFFFFFFFFFFFFFFFF AND PUSH20 0xFFFFFFFFFFFFFFFFFFFFFFFFFFFFFFFFFFFFFFFF AND DUP2 MSTORE PUSH1 0x20 ADD SWAP1 DUP2 MSTORE PUSH1 0x20 ADD PUSH0 KECCAK256 PUSH0 DUP4 DUP2 MSTORE PUSH1 0x20 ADD SWAP1 DUP2 MSTORE PUSH1 0x20 ADD PUSH0 KECCAK256 PUSH0 ADD PUSH1 0x1 SWAP1 SLOAD SWAP1 PUSH2 0x100 EXP SWAP1 DIV PUSH1 0xFF AND ISZERO PUSH2 0x291C JUMPI PUSH1 0x7 PUSH0 DUP3 PUSH20 0xFFFFFFFFFFFFFFFFFFFFFFFFFFFFFFFFFFFFFFFF AND PUSH20 0xFFFFFFFFFFFFFFFFFFFFFFFFFFFFFFFFFFFFFFFF AND DUP2 MSTORE PUSH1 0x20 ADD SWAP1 DUP2 MSTORE PUSH1 0x20 ADD PUSH0 KECCAK256 PUSH0 DUP4 DUP2 MSTORE PUSH1 0x20 ADD SWAP1 DUP2 MSTORE PUSH1 0x20 ADD PUSH0 KECCAK256 PUSH0 ADD PUSH1 0x1 SWAP1 SLOAD SWAP1 PUSH2 0x100 EXP SWAP1 DIV PUSH1 0xFF AND PUSH1 0x40 MLOAD PUSH32 0xCA1C6EB300000000000000000000000000000000000000000000000000000000 DUP2 MSTORE PUSH1 0x4 ADD PUSH2 0x2913 SWAP2 SWAP1 PUSH2 0x34F1 JUMP JUMPDEST PUSH1 0x40 MLOAD DUP1 SWAP2 SUB SWAP1 REVERT JUMPDEST PUSH1 0x6 PUSH0 ADDRESS PUSH20 0xFFFFFFFFFFFFFFFFFFFFFFFFFFFFFFFFFFFFFFFF AND PUSH20 0xFFFFFFFFFFFFFFFFFFFFFFFFFFFFFFFFFFFFFFFF AND DUP2 MSTORE PUSH1 0x20 ADD SWAP1 DUP2 MSTORE PUSH1 0x20 ADD PUSH0 KECCAK256 PUSH0 ADD PUSH0 SWAP1 SLOAD SWAP1 PUSH2 0x100 EXP SWAP1 DIV PUSH1 0xFF AND ISZERO PUSH2 0x299F JUMPI PUSH1 0x40 MLOAD PUSH32 0x853FD42100000000000000000000000000000000000000000000000000000000 DUP2 MSTORE PUSH1 0x4 ADD PUSH1 0x40 MLOAD DUP1 SWAP2 SUB SWAP1 REVERT JUMPDEST DUP1 PUSH20 0xFFFFFFFFFFFFFFFFFFFFFFFFFFFFFFFFFFFFFFFF AND PUSH1 0x7 PUSH0 DUP4 PUSH20 0xFFFFFFFFFFFFFFFFFFFFFFFFFFFFFFFFFFFFFFFF AND PUSH20 0xFFFFFFFFFFFFFFFFFFFFFFFFFFFFFFFFFFFFFFFF AND DUP2 MSTORE PUSH1 0x20 ADD SWAP1 DUP2 MSTORE PUSH1 0x20 ADD PUSH0 KECCAK256 PUSH0 DUP5 DUP2 MSTORE PUSH1 0x20 ADD SWAP1 DUP2 MSTORE PUSH1 0x20 ADD PUSH0 KECCAK256 PUSH0 ADD PUSH1 0x2 SWAP1 SLOAD SWAP1 PUSH2 0x100 EXP SWAP1 DIV PUSH20 0xFFFFFFFFFFFFFFFFFFFFFFFFFFFFFFFFFFFFFFFF AND PUSH20 0xFFFFFFFFFFFFFFFFFFFFFFFFFFFFFFFFFFFFFFFF AND EQ PUSH2 0x2A7D JUMPI DUP1 PUSH1 0x40 MLOAD PUSH32 0xF6B79C5800000000000000000000000000000000000000000000000000000000 DUP2 MSTORE PUSH1 0x4 ADD PUSH2 0x2A74 SWAP2 SWAP1 PUSH2 0x3456 JUMP JUMPDEST PUSH1 0x40 MLOAD DUP1 SWAP2 SUB SWAP1 REVERT JUMPDEST PUSH1 0x1 PUSH1 0x7 PUSH0 DUP4 PUSH20 0xFFFFFFFFFFFFFFFFFFFFFFFFFFFFFFFFFFFFFFFF AND PUSH20 0xFFFFFFFFFFFFFFFFFFFFFFFFFFFFFFFFFFFFFFFF AND DUP2 MSTORE PUSH1 0x20 ADD SWAP1 DUP2 MSTORE PUSH1 0x20 ADD PUSH0 KECCAK256 PUSH0 DUP5 DUP2 MSTORE PUSH1 0x20 ADD SWAP1 DUP2 MSTORE PUSH1 0x20 ADD PUSH0 KECCAK256 PUSH0 ADD PUSH1 0x1 PUSH2 0x100 EXP DUP2 SLOAD DUP2 PUSH1 0xFF MUL NOT AND SWAP1 DUP4 ISZERO ISZERO MUL OR SWAP1 SSTORE POP CALLER PUSH1 0x7 PUSH0 DUP4 PUSH20 0xFFFFFFFFFFFFFFFFFFFFFFFFFFFFFFFFFFFFFFFF AND PUSH20 0xFFFFFFFFFFFFFFFFFFFFFFFFFFFFFFFFFFFFFFFF AND DUP2 MSTORE PUSH1 0x20 ADD SWAP1 DUP2 MSTORE PUSH1 0x20 ADD PUSH0 KECCAK256 PUSH0 DUP5 DUP2 MSTORE PUSH1 0x20 ADD SWAP1 DUP2 MSTORE PUSH1 0x20 ADD PUSH0 KECCAK256 PUSH0 ADD PUSH1 0x2 PUSH2 0x100 EXP DUP2 SLOAD DUP2 PUSH20 0xFFFFFFFFFFFFFFFFFFFFFFFFFFFFFFFFFFFFFFFF MUL NOT AND SWAP1 DUP4 PUSH20 0xFFFFFFFFFFFFFFFFFFFFFFFFFFFFFFFFFFFFFFFF AND MUL OR SWAP1 SSTORE POP PUSH0 PUSH1 0x7 PUSH0 DUP4 PUSH20 0xFFFFFFFFFFFFFFFFFFFFFFFFFFFFFFFFFFFFFFFF AND PUSH20 0xFFFFFFFFFFFFFFFFFFFFFFFFFFFFFFFFFFFFFFFF AND DUP2 MSTORE PUSH1 0x20 ADD SWAP1 DUP2 MSTORE PUSH1 0x20 ADD PUSH0 KECCAK256 PUSH0 DUP5 DUP2 MSTORE PUSH1 0x20 ADD SWAP1 DUP2 MSTORE PUSH1 0x20 ADD PUSH0 KECCAK256 PUSH1 0x3 ADD SLOAD SUB PUSH2 0x2D16 JUMPI PUSH1 0x7 PUSH0 DUP3 PUSH20 0xFFFFFFFFFFFFFFFFFFFFFFFFFFFFFFFFFFFFFFFF AND PUSH20 0xFFFFFFFFFFFFFFFFFFFFFFFFFFFFFFFFFFFFFFFF AND DUP2 MSTORE PUSH1 0x20 ADD SWAP1 DUP2 MSTORE PUSH1 0x20 ADD PUSH0 KECCAK256 PUSH0 DUP4 DUP2 MSTORE PUSH1 0x20 ADD SWAP1 DUP2 MSTORE PUSH1 0x20 ADD PUSH0 KECCAK256 PUSH1 0x2 ADD SLOAD PUSH1 0x5 PUSH0 CALLER PUSH20 0xFFFFFFFFFFFFFFFFFFFFFFFFFFFFFFFFFFFFFFFF AND PUSH20 0xFFFFFFFFFFFFFFFFFFFFFFFFFFFFFFFFFFFFFFFF AND DUP2 MSTORE PUSH1 0x20 ADD SWAP1 DUP2 MSTORE PUSH1 0x20 ADD PUSH0 KECCAK256 PUSH1 0x1 ADD PUSH0 DUP3 DUP3 SLOAD PUSH2 0x2C65 SWAP2 SWAP1 PUSH2 0x382D JUMP JUMPDEST SWAP3 POP POP DUP2 SWAP1 SSTORE POP PUSH1 0x7 PUSH0 DUP3 PUSH20 0xFFFFFFFFFFFFFFFFFFFFFFFFFFFFFFFFFFFFFFFF AND PUSH20 0xFFFFFFFFFFFFFFFFFFFFFFFFFFFFFFFFFFFFFFFF AND DUP2 MSTORE PUSH1 0x20 ADD SWAP1 DUP2 MSTORE PUSH1 0x20 ADD PUSH0 KECCAK256 PUSH0 DUP4 DUP2 MSTORE PUSH1 0x20 ADD SWAP1 DUP2 MSTORE PUSH1 0x20 ADD PUSH0 KECCAK256 PUSH1 0x2 ADD SLOAD PUSH1 0x5 PUSH0 DUP4 PUSH20 0xFFFFFFFFFFFFFFFFFFFFFFFFFFFFFFFFFFFFFFFF AND PUSH20 0xFFFFFFFFFFFFFFFFFFFFFFFFFFFFFFFFFFFFFFFF AND DUP2 MSTORE PUSH1 0x20 ADD SWAP1 DUP2 MSTORE PUSH1 0x20 ADD PUSH0 KECCAK256 PUSH1 0x1 ADD PUSH0 DUP3 DUP3 SLOAD PUSH2 0x2D0A SWAP2 SWAP1 PUSH2 0x39BD JUMP JUMPDEST SWAP3 POP POP DUP2 SWAP1 SSTORE POP PUSH2 0x2E61 JUMP JUMPDEST PUSH1 0x7 PUSH0 DUP3 PUSH20 0xFFFFFFFFFFFFFFFFFFFFFFFFFFFFFFFFFFFFFFFF AND PUSH20 0xFFFFFFFFFFFFFFFFFFFFFFFFFFFFFFFFFFFFFFFF AND DUP2 MSTORE PUSH1 0x20 ADD SWAP1 DUP2 MSTORE PUSH1 0x20 ADD PUSH0 KECCAK256 PUSH0 DUP4 DUP2 MSTORE PUSH1 0x20 ADD SWAP1 DUP2 MSTORE PUSH1 0x20 ADD PUSH0 KECCAK256 PUSH1 0x2 ADD SLOAD PUSH1 0x5 PUSH0 DUP4 PUSH20 0xFFFFFFFFFFFFFFFFFFFFFFFFFFFFFFFFFFFFFFFF AND PUSH20 0xFFFFFFFFFFFFFFFFFFFFFFFFFFFFFFFFFFFFFFFF AND DUP2 MSTORE PUSH1 0x20 ADD SWAP1 DUP2 MSTORE PUSH1 0x20 ADD PUSH0 KECCAK256 PUSH1 0x3 ADD PUSH0 DUP3 DUP3 SLOAD PUSH2 0x2DB4 SWAP2 SWAP1 PUSH2 0x39BD JUMP JUMPDEST SWAP3 POP POP DUP2 SWAP1 SSTORE POP PUSH1 0x7 PUSH0 DUP3 PUSH20 0xFFFFFFFFFFFFFFFFFFFFFFFFFFFFFFFFFFFFFFFF AND PUSH20 0xFFFFFFFFFFFFFFFFFFFFFFFFFFFFFFFFFFFFFFFF AND DUP2 MSTORE PUSH1 0x20 ADD SWAP1 DUP2 MSTORE PUSH1 0x20 ADD PUSH0 KECCAK256 PUSH0 DUP4 DUP2 MSTORE PUSH1 0x20 ADD SWAP1 DUP2 MSTORE PUSH1 0x20 ADD PUSH0 KECCAK256 PUSH1 0x2 ADD SLOAD PUSH1 0x5 PUSH0 CALLER PUSH20 0xFFFFFFFFFFFFFFFFFFFFFFFFFFFFFFFFFFFFFFFF AND PUSH20 0xFFFFFFFFFFFFFFFFFFFFFFFFFFFFFFFFFFFFFFFF AND DUP2 MSTORE PUSH1 0x20 ADD SWAP1 DUP2 MSTORE PUSH1 0x20 ADD PUSH0 KECCAK256 PUSH1 0x3 ADD PUSH0 DUP3 DUP3 SLOAD PUSH2 0x2E59 SWAP2 SWAP1 PUSH2 0x382D JUMP JUMPDEST SWAP3 POP POP DUP2 SWAP1 SSTORE POP JUMPDEST PUSH1 0x1 PUSH1 0x5 PUSH0 CALLER PUSH20 0xFFFFFFFFFFFFFFFFFFFFFFFFFFFFFFFFFFFFFFFF AND PUSH20 0xFFFFFFFFFFFFFFFFFFFFFFFFFFFFFFFFFFFFFFFF AND DUP2 MSTORE PUSH1 0x20 ADD SWAP1 DUP2 MSTORE PUSH1 0x20 ADD PUSH0 KECCAK256 PUSH1 0x5 ADD PUSH0 PUSH1 0x7 PUSH0 DUP6 PUSH20 0xFFFFFFFFFFFFFFFFFFFFFFFFFFFFFFFFFFFFFFFF AND PUSH20 0xFFFFFFFFFFFFFFFFFFFFFFFFFFFFFFFFFFFFFFFF AND DUP2 MSTORE PUSH1 0x20 ADD SWAP1 DUP2 MSTORE PUSH1 0x20 ADD PUSH0 KECCAK256 PUSH0 DUP7 DUP2 MSTORE PUSH1 0x20 ADD SWAP1 DUP2 MSTORE PUSH1 0x20 ADD PUSH0 KECCAK256 PUSH1 0x3 ADD SLOAD DUP2 MSTORE PUSH1 0x20 ADD SWAP1 DUP2 MSTORE PUSH1 0x20 ADD PUSH0 KECCAK256 PUSH0 PUSH2 0x100 EXP DUP2 SLOAD DUP2 PUSH1 0xFF MUL NOT AND SWAP1 DUP4 ISZERO ISZERO MUL OR SWAP1 SSTORE POP CALLER PUSH1 0x4 PUSH0 PUSH1 0x2 SLOAD DUP2 MSTORE PUSH1 0x20 ADD SWAP1 DUP2 MSTORE PUSH1 0x20 ADD PUSH0 KECCAK256 PUSH0 PUSH2 0x100 EXP DUP2 SLOAD DUP2 PUSH20 0xFFFFFFFFFFFFFFFFFFFFFFFFFFFFFFFFFFFFFFFF MUL NOT AND SWAP1 DUP4 PUSH20 0xFFFFFFFFFFFFFFFFFFFFFFFFFFFFFFFFFFFFFFFF AND MUL OR SWAP1 SSTORE POP PUSH1 0x2 PUSH0 DUP2 SLOAD DUP1 SWAP3 SWAP2 SWAP1 PUSH2 0x2F7A SWAP1 PUSH2 0x3976 JUMP JUMPDEST SWAP2 SWAP1 POP SSTORE POP PUSH0 PUSH1 0x1 PUSH0 SWAP1 SLOAD SWAP1 PUSH2 0x100 EXP SWAP1 DIV PUSH20 0xFFFFFFFFFFFFFFFFFFFFFFFFFFFFFFFFFFFFFFFF AND PUSH20 0xFFFFFFFFFFFFFFFFFFFFFFFFFFFFFFFFFFFFFFFF AND PUSH4 0x23B872DD CALLER DUP5 PUSH1 0x7 PUSH0 DUP8 PUSH20 0xFFFFFFFFFFFFFFFFFFFFFFFFFFFFFFFFFFFFFFFF AND PUSH20 0xFFFFFFFFFFFFFFFFFFFFFFFFFFFFFFFFFFFFFFFF AND DUP2 MSTORE PUSH1 0x20 ADD SWAP1 DUP2 MSTORE PUSH1 0x20 ADD PUSH0 KECCAK256 PUSH0 DUP9 DUP2 MSTORE PUSH1 0x20 ADD SWAP1 DUP2 MSTORE PUSH1 0x20 ADD PUSH0 KECCAK256 PUSH1 0x1 ADD SLOAD PUSH1 0x40 MLOAD DUP5 PUSH4 0xFFFFFFFF AND PUSH1 0xE0 SHL DUP2 MSTORE PUSH1 0x4 ADD PUSH2 0x302D SWAP4 SWAP3 SWAP2 SWAP1 PUSH2 0x3B56 JUMP JUMPDEST PUSH1 0x20 PUSH1 0x40 MLOAD DUP1 DUP4 SUB DUP2 PUSH0 DUP8 GAS CALL ISZERO DUP1 ISZERO PUSH2 0x3049 JUMPI RETURNDATASIZE PUSH0 DUP1 RETURNDATACOPY RETURNDATASIZE PUSH0 REVERT JUMPDEST POP POP POP POP PUSH1 0x40 MLOAD RETURNDATASIZE PUSH1 0x1F NOT PUSH1 0x1F DUP3 ADD AND DUP3 ADD DUP1 PUSH1 0x40 MSTORE POP DUP2 ADD SWAP1 PUSH2 0x306D SWAP2 SWAP1 PUSH2 0x3A80 JUMP JUMPDEST SWAP1 POP DUP1 PUSH2 0x30AF JUMPI PUSH1 0x40 MLOAD PUSH32 0x8C379A000000000000000000000000000000000000000000000000000000000 DUP2 MSTORE PUSH1 0x4 ADD PUSH2 0x30A6 SWAP1 PUSH2 0x3AF5 JUMP JUMPDEST PUSH1 0x40 MLOAD DUP1 SWAP2 SUB SWAP1 REVERT JUMPDEST PUSH32 0xC891ADF8DFBF643A02668E73C35BBBB3C8AA9D86E0DC779D260026CFC0AB8B99 CALLER DUP4 PUSH1 0x7 PUSH0 DUP7 PUSH20 0xFFFFFFFFFFFFFFFFFFFFFFFFFFFFFFFFFFFFFFFF AND PUSH20 0xFFFFFFFFFFFFFFFFFFFFFFFFFFFFFFFFFFFFFFFF AND DUP2 MSTORE PUSH1 0x20 ADD SWAP1 DUP2 MSTORE PUSH1 0x20 ADD PUSH0 KECCAK256 PUSH0 DUP8 DUP2 MSTORE PUSH1 0x20 ADD SWAP1 DUP2 MSTORE PUSH1 0x20 ADD PUSH0 KECCAK256 PUSH1 0x2 ADD SLOAD PUSH1 0x7 PUSH0 DUP8 PUSH20 0xFFFFFFFFFFFFFFFFFFFFFFFFFFFFFFFFFFFFFFFF AND PUSH20 0xFFFFFFFFFFFFFFFFFFFFFFFFFFFFFFFFFFFFFFFF AND DUP2 MSTORE PUSH1 0x20 ADD SWAP1 DUP2 MSTORE PUSH1 0x20 ADD PUSH0 KECCAK256 PUSH0 DUP9 DUP2 MSTORE PUSH1 0x20 ADD SWAP1 DUP2 MSTORE PUSH1 0x20 ADD PUSH0 KECCAK256 PUSH1 0x1 ADD SLOAD PUSH1 0x40 MLOAD PUSH2 0x3182 SWAP5 SWAP4 SWAP3 SWAP2 SWAP1 PUSH2 0x3C5B JUMP JUMPDEST PUSH1 0x40 MLOAD DUP1 SWAP2 SUB SWAP1 LOG1 POP POP POP JUMP JUMPDEST PUSH0 DUP3 DUP5 LT ISZERO PUSH2 0x31A0 JUMPI DUP3 SWAP1 POP PUSH2 0x31B4 JUMP JUMPDEST DUP2 DUP5 GT ISZERO PUSH2 0x31B0 JUMPI DUP2 SWAP1 POP PUSH2 0x31B4 JUMP JUMPDEST DUP4 SWAP1 POP JUMPDEST SWAP4 SWAP3 POP POP POP JUMP JUMPDEST PUSH0 DUP1 DUP4 SUB PUSH2 0x31FE JUMPI PUSH1 0x40 MLOAD PUSH32 0x8C379A000000000000000000000000000000000000000000000000000000000 DUP2 MSTORE PUSH1 0x4 ADD PUSH2 0x31F5 SWAP1 PUSH2 0x3D0E JUMP JUMPDEST PUSH1 0x40 MLOAD DUP1 SWAP2 SUB SWAP1 REVERT JUMPDEST PUSH0 DUP3 SUB PUSH2 0x3240 JUMPI PUSH1 0x40 MLOAD PUSH32 0x8C379A000000000000000000000000000000000000000000000000000000000 DUP2 MSTORE PUSH1 0x4 ADD PUSH2 0x3237 SWAP1 PUSH2 0x3D0E JUMP JUMPDEST PUSH1 0x40 MLOAD DUP1 SWAP2 SUB SWAP1 REVERT JUMPDEST PUSH0 PUSH2 0x2710 DUP4 DUP6 PUSH2 0x3250 SWAP2 SWAP1 PUSH2 0x3860 JUMP JUMPDEST PUSH2 0x325A SWAP2 SWAP1 PUSH2 0x38CE JUMP JUMPDEST SWAP1 POP DUP1 SWAP2 POP POP SWAP3 SWAP2 POP POP JUMP JUMPDEST PUSH2 0x326E PUSH2 0x33AE JUMP JUMPDEST PUSH20 0xFFFFFFFFFFFFFFFFFFFFFFFFFFFFFFFFFFFFFFFF AND PUSH2 0x328C PUSH2 0x25D8 JUMP JUMPDEST PUSH20 0xFFFFFFFFFFFFFFFFFFFFFFFFFFFFFFFFFFFFFFFF AND EQ PUSH2 0x32EB JUMPI PUSH2 0x32AF PUSH2 0x33AE JUMP JUMPDEST PUSH1 0x40 MLOAD PUSH32 0x118CDAA700000000000000000000000000000000000000000000000000000000 DUP2 MSTORE PUSH1 0x4 ADD PUSH2 0x32E2 SWAP2 SWAP1 PUSH2 0x3456 JUMP JUMPDEST PUSH1 0x40 MLOAD DUP1 SWAP2 SUB SWAP1 REVERT JUMPDEST JUMP JUMPDEST PUSH0 DUP1 PUSH0 SWAP1 SLOAD SWAP1 PUSH2 0x100 EXP SWAP1 DIV PUSH20 0xFFFFFFFFFFFFFFFFFFFFFFFFFFFFFFFFFFFFFFFF AND SWAP1 POP DUP2 PUSH0 DUP1 PUSH2 0x100 EXP DUP2 SLOAD DUP2 PUSH20 0xFFFFFFFFFFFFFFFFFFFFFFFFFFFFFFFFFFFFFFFF MUL NOT AND SWAP1 DUP4 PUSH20 0xFFFFFFFFFFFFFFFFFFFFFFFFFFFFFFFFFFFFFFFF AND MUL OR SWAP1 SSTORE POP DUP2 PUSH20 0xFFFFFFFFFFFFFFFFFFFFFFFFFFFFFFFFFFFFFFFF AND DUP2 PUSH20 0xFFFFFFFFFFFFFFFFFFFFFFFFFFFFFFFFFFFFFFFF AND PUSH32 0x8BE0079C531659141344CD1FD0A4F28419497F9722A3DAAFE3B4186F6B6457E0 PUSH1 0x40 MLOAD PUSH1 0x40 MLOAD DUP1 SWAP2 SUB SWAP1 LOG3 POP POP JUMP JUMPDEST PUSH0 CALLER SWAP1 POP SWAP1 JUMP JUMPDEST PUSH0 DUP1 REVERT JUMPDEST PUSH0 DUP2 SWAP1 POP SWAP2 SWAP1 POP JUMP JUMPDEST PUSH2 0x33CB DUP2 PUSH2 0x33B9 JUMP JUMPDEST DUP2 EQ PUSH2 0x33D5 JUMPI PUSH0 DUP1 REVERT JUMPDEST POP JUMP JUMPDEST PUSH0 DUP2 CALLDATALOAD SWAP1 POP PUSH2 0x33E6 DUP2 PUSH2 0x33C2 JUMP JUMPDEST SWAP3 SWAP2 POP POP JUMP JUMPDEST PUSH0 PUSH1 0x20 DUP3 DUP5 SUB SLT ISZERO PUSH2 0x3401 JUMPI PUSH2 0x3400 PUSH2 0x33B5 JUMP JUMPDEST JUMPDEST PUSH0 PUSH2 0x340E DUP5 DUP3 DUP6 ADD PUSH2 0x33D8 JUMP JUMPDEST SWAP2 POP POP SWAP3 SWAP2 POP POP JUMP JUMPDEST PUSH0 PUSH20 0xFFFFFFFFFFFFFFFFFFFFFFFFFFFFFFFFFFFFFFFF DUP3 AND SWAP1 POP SWAP2 SWAP1 POP JUMP JUMPDEST PUSH0 PUSH2 0x3440 DUP3 PUSH2 0x3417 JUMP JUMPDEST SWAP1 POP SWAP2 SWAP1 POP JUMP JUMPDEST PUSH2 0x3450 DUP2 PUSH2 0x3436 JUMP JUMPDEST DUP3 MSTORE POP POP JUMP JUMPDEST PUSH0 PUSH1 0x20 DUP3 ADD SWAP1 POP PUSH2 0x3469 PUSH0 DUP4 ADD DUP5 PUSH2 0x3447 JUMP JUMPDEST SWAP3 SWAP2 POP POP JUMP JUMPDEST PUSH2 0x3478 DUP2 PUSH2 0x3436 JUMP JUMPDEST DUP2 EQ PUSH2 0x3482 JUMPI PUSH0 DUP1 REVERT JUMPDEST POP JUMP JUMPDEST PUSH0 DUP2 CALLDATALOAD SWAP1 POP PUSH2 0x3493 DUP2 PUSH2 0x346F JUMP JUMPDEST SWAP3 SWAP2 POP POP JUMP JUMPDEST PUSH0 DUP1 PUSH1 0x40 DUP4 DUP6 SUB SLT ISZERO PUSH2 0x34AF JUMPI PUSH2 0x34AE PUSH2 0x33B5 JUMP JUMPDEST JUMPDEST PUSH0 PUSH2 0x34BC DUP6 DUP3 DUP7 ADD PUSH2 0x3485 JUMP JUMPDEST SWAP3 POP POP PUSH1 0x20 PUSH2 0x34CD DUP6 DUP3 DUP7 ADD PUSH2 0x33D8 JUMP JUMPDEST SWAP2 POP POP SWAP3 POP SWAP3 SWAP1 POP JUMP JUMPDEST PUSH0 DUP2 ISZERO ISZERO SWAP1 POP SWAP2 SWAP1 POP JUMP JUMPDEST PUSH2 0x34EB DUP2 PUSH2 0x34D7 JUMP JUMPDEST DUP3 MSTORE POP POP JUMP JUMPDEST PUSH0 PUSH1 0x20 DUP3 ADD SWAP1 POP PUSH2 0x3504 PUSH0 DUP4 ADD DUP5 PUSH2 0x34E2 JUMP JUMPDEST SWAP3 SWAP2 POP POP JUMP JUMPDEST PUSH0 DUP2 SWAP1 POP SWAP2 SWAP1 POP JUMP JUMPDEST PUSH0 PUSH2 0x352D PUSH2 0x3528 PUSH2 0x3523 DUP5 PUSH2 0x3417 JUMP JUMPDEST PUSH2 0x350A JUMP JUMPDEST PUSH2 0x3417 JUMP JUMPDEST SWAP1 POP SWAP2 SWAP1 POP JUMP JUMPDEST PUSH0 PUSH2 0x353E DUP3 PUSH2 0x3513 JUMP JUMPDEST SWAP1 POP SWAP2 SWAP1 POP JUMP JUMPDEST PUSH0 PUSH2 0x354F DUP3 PUSH2 0x3534 JUMP JUMPDEST SWAP1 POP SWAP2 SWAP1 POP JUMP JUMPDEST PUSH2 0x355F DUP2 PUSH2 0x3545 JUMP JUMPDEST DUP3 MSTORE POP POP JUMP JUMPDEST PUSH0 PUSH1 0x20 DUP3 ADD SWAP1 POP PUSH2 0x3578 PUSH0 DUP4 ADD DUP5 PUSH2 0x3556 JUMP JUMPDEST SWAP3 SWAP2 POP POP JUMP JUMPDEST PUSH0 PUSH1 0x20 DUP3 DUP5 SUB SLT ISZERO PUSH2 0x3593 JUMPI PUSH2 0x3592 PUSH2 0x33B5 JUMP JUMPDEST JUMPDEST PUSH0 PUSH2 0x35A0 DUP5 DUP3 DUP6 ADD PUSH2 0x3485 JUMP JUMPDEST SWAP2 POP POP SWAP3 SWAP2 POP POP JUMP JUMPDEST PUSH2 0x35B2 DUP2 PUSH2 0x33B9 JUMP JUMPDEST DUP3 MSTORE POP POP JUMP JUMPDEST PUSH0 PUSH1 0xA0 DUP3 ADD SWAP1 POP PUSH2 0x35CB PUSH0 DUP4 ADD DUP9 PUSH2 0x35A9 JUMP JUMPDEST PUSH2 0x35D8 PUSH1 0x20 DUP4 ADD DUP8 PUSH2 0x35A9 JUMP JUMPDEST PUSH2 0x35E5 PUSH1 0x40 DUP4 ADD DUP7 PUSH2 0x35A9 JUMP JUMPDEST PUSH2 0x35F2 PUSH1 0x60 DUP4 ADD DUP6 PUSH2 0x35A9 JUMP JUMPDEST PUSH2 0x35FF PUSH1 0x80 DUP4 ADD DUP5 PUSH2 0x35A9 JUMP JUMPDEST SWAP7 SWAP6 POP POP POP POP POP POP JUMP JUMPDEST PUSH0 PUSH1 0x40 DUP3 ADD SWAP1 POP PUSH2 0x361C PUSH0 DUP4 ADD DUP6 PUSH2 0x35A9 JUMP JUMPDEST PUSH2 0x3629 PUSH1 0x20 DUP4 ADD DUP5 PUSH2 0x35A9 JUMP JUMPDEST SWAP4 SWAP3 POP POP POP JUMP JUMPDEST PUSH0 DUP1 PUSH1 0x40 DUP4 DUP6 SUB SLT ISZERO PUSH2 0x3646 JUMPI PUSH2 0x3645 PUSH2 0x33B5 JUMP JUMPDEST JUMPDEST PUSH0 PUSH2 0x3653 DUP6 DUP3 DUP7 ADD PUSH2 0x33D8 JUMP JUMPDEST SWAP3 POP POP PUSH1 0x20 PUSH2 0x3664 DUP6 DUP3 DUP7 ADD PUSH2 0x33D8 JUMP JUMPDEST SWAP2 POP POP SWAP3 POP SWAP3 SWAP1 POP JUMP JUMPDEST PUSH0 PUSH1 0xC0 DUP3 ADD SWAP1 POP PUSH2 0x3681 PUSH0 DUP4 ADD DUP10 PUSH2 0x34E2 JUMP JUMPDEST PUSH2 0x368E PUSH1 0x20 DUP4 ADD DUP9 PUSH2 0x34E2 JUMP JUMPDEST PUSH2 0x369B PUSH1 0x40 DUP4 ADD DUP8 PUSH2 0x3447 JUMP JUMPDEST PUSH2 0x36A8 PUSH1 0x60 DUP4 ADD DUP7 PUSH2 0x35A9 JUMP JUMPDEST PUSH2 0x36B5 PUSH1 0x80 DUP4 ADD DUP6 PUSH2 0x35A9 JUMP JUMPDEST PUSH2 0x36C2 PUSH1 0xA0 DUP4 ADD DUP5 PUSH2 0x35A9 JUMP JUMPDEST SWAP8 SWAP7 POP POP POP POP POP POP POP JUMP JUMPDEST PUSH0 DUP1 PUSH0 PUSH1 0x60 DUP5 DUP7 SUB SLT ISZERO PUSH2 0x36E4 JUMPI PUSH2 0x36E3 PUSH2 0x33B5 JUMP JUMPDEST JUMPDEST PUSH0 PUSH2 0x36F1 DUP7 DUP3 DUP8 ADD PUSH2 0x33D8 JUMP JUMPDEST SWAP4 POP POP PUSH1 0x20 PUSH2 0x3702 DUP7 DUP3 DUP8 ADD PUSH2 0x33D8 JUMP JUMPDEST SWAP3 POP POP PUSH1 0x40 PUSH2 0x3713 DUP7 DUP3 DUP8 ADD PUSH2 0x33D8 JUMP JUMPDEST SWAP2 POP POP SWAP3 POP SWAP3 POP SWAP3 JUMP JUMPDEST PUSH0 PUSH1 0x20 DUP3 ADD SWAP1 POP PUSH2 0x3730 PUSH0 DUP4 ADD DUP5 PUSH2 0x35A9 JUMP JUMPDEST SWAP3 SWAP2 POP POP JUMP JUMPDEST PUSH0 PUSH1 0xC0 DUP3 ADD SWAP1 POP PUSH2 0x3749 PUSH0 DUP4 ADD DUP10 PUSH2 0x34E2 JUMP JUMPDEST PUSH2 0x3756 PUSH1 0x20 DUP4 ADD DUP9 PUSH2 0x35A9 JUMP JUMPDEST PUSH2 0x3763 PUSH1 0x40 DUP4 ADD DUP8 PUSH2 0x35A9 JUMP JUMPDEST PUSH2 0x3770 PUSH1 0x60 DUP4 ADD DUP7 PUSH2 0x35A9 JUMP JUMPDEST PUSH2 0x377D PUSH1 0x80 DUP4 ADD DUP6 PUSH2 0x35A9 JUMP JUMPDEST PUSH2 0x378A PUSH1 0xA0 DUP4 ADD DUP5 PUSH2 0x35A9 JUMP JUMPDEST SWAP8 SWAP7 POP POP POP POP POP POP POP JUMP JUMPDEST PUSH0 DUP1 PUSH1 0x40 DUP4 DUP6 SUB SLT ISZERO PUSH2 0x37AB JUMPI PUSH2 0x37AA PUSH2 0x33B5 JUMP JUMPDEST JUMPDEST PUSH0 PUSH2 0x37B8 DUP6 DUP3 DUP7 ADD PUSH2 0x33D8 JUMP JUMPDEST SWAP3 POP POP PUSH1 0x20 PUSH2 0x37C9 DUP6 DUP3 DUP7 ADD PUSH2 0x3485 JUMP JUMPDEST SWAP2 POP POP SWAP3 POP SWAP3 SWAP1 POP JUMP JUMPDEST PUSH32 0x4E487B7100000000000000000000000000000000000000000000000000000000 PUSH0 MSTORE PUSH1 0x32 PUSH1 0x4 MSTORE PUSH1 0x24 PUSH0 REVERT JUMPDEST PUSH32 0x4E487B7100000000000000000000000000000000000000000000000000000000 PUSH0 MSTORE PUSH1 0x11 PUSH1 0x4 MSTORE PUSH1 0x24 PUSH0 REVERT JUMPDEST PUSH0 PUSH2 0x3837 DUP3 PUSH2 0x33B9 JUMP JUMPDEST SWAP2 POP PUSH2 0x3842 DUP4 PUSH2 0x33B9 JUMP JUMPDEST SWAP3 POP DUP3 DUP3 ADD SWAP1 POP DUP1 DUP3 GT ISZERO PUSH2 0x385A JUMPI PUSH2 0x3859 PUSH2 0x3800 JUMP JUMPDEST JUMPDEST SWAP3 SWAP2 POP POP JUMP JUMPDEST PUSH0 PUSH2 0x386A DUP3 PUSH2 0x33B9 JUMP JUMPDEST SWAP2 POP PUSH2 0x3875 DUP4 PUSH2 0x33B9 JUMP JUMPDEST SWAP3 POP DUP3 DUP3 MUL PUSH2 0x3883 DUP2 PUSH2 0x33B9 JUMP JUMPDEST SWAP2 POP DUP3 DUP3 DIV DUP5 EQ DUP4 ISZERO OR PUSH2 0x389A JUMPI PUSH2 0x3899 PUSH2 0x3800 JUMP JUMPDEST JUMPDEST POP SWAP3 SWAP2 POP POP JUMP JUMPDEST PUSH32 0x4E487B7100000000000000000000000000000000000000000000000000000000 PUSH0 MSTORE PUSH1 0x12 PUSH1 0x4 MSTORE PUSH1 0x24 PUSH0 REVERT JUMPDEST PUSH0 PUSH2 0x38D8 DUP3 PUSH2 0x33B9 JUMP JUMPDEST SWAP2 POP PUSH2 0x38E3 DUP4 PUSH2 0x33B9 JUMP JUMPDEST SWAP3 POP DUP3 PUSH2 0x38F3 JUMPI PUSH2 0x38F2 PUSH2 0x38A1 JUMP JUMPDEST JUMPDEST DUP3 DUP3 DIV SWAP1 POP SWAP3 SWAP2 POP POP JUMP JUMPDEST PUSH0 DUP3 DUP3 MSTORE PUSH1 0x20 DUP3 ADD SWAP1 POP SWAP3 SWAP2 POP POP JUMP JUMPDEST PUSH32 0x6E6F7420656E6F75676820416D6F756E74000000000000000000000000000000 PUSH0 DUP3 ADD MSTORE POP JUMP JUMPDEST PUSH0 PUSH2 0x3942 PUSH1 0x11 DUP4 PUSH2 0x38FE JUMP JUMPDEST SWAP2 POP PUSH2 0x394D DUP3 PUSH2 0x390E JUMP JUMPDEST PUSH1 0x20 DUP3 ADD SWAP1 POP SWAP2 SWAP1 POP JUMP JUMPDEST PUSH0 PUSH1 0x20 DUP3 ADD SWAP1 POP DUP2 DUP2 SUB PUSH0 DUP4 ADD MSTORE PUSH2 0x396F DUP2 PUSH2 0x3936 JUMP JUMPDEST SWAP1 POP SWAP2 SWAP1 POP JUMP JUMPDEST PUSH0 PUSH2 0x3980 DUP3 PUSH2 0x33B9 JUMP JUMPDEST SWAP2 POP PUSH32 0xFFFFFFFFFFFFFFFFFFFFFFFFFFFFFFFFFFFFFFFFFFFFFFFFFFFFFFFFFFFFFFFF DUP3 SUB PUSH2 0x39B2 JUMPI PUSH2 0x39B1 PUSH2 0x3800 JUMP JUMPDEST JUMPDEST PUSH1 0x1 DUP3 ADD SWAP1 POP SWAP2 SWAP1 POP JUMP JUMPDEST PUSH0 PUSH2 0x39C7 DUP3 PUSH2 0x33B9 JUMP JUMPDEST SWAP2 POP PUSH2 0x39D2 DUP4 PUSH2 0x33B9 JUMP JUMPDEST SWAP3 POP DUP3 DUP3 SUB SWAP1 POP DUP2 DUP2 GT ISZERO PUSH2 0x39EA JUMPI PUSH2 0x39E9 PUSH2 0x3800 JUMP JUMPDEST JUMPDEST SWAP3 SWAP2 POP POP JUMP JUMPDEST PUSH0 DUP2 MLOAD SWAP1 POP PUSH2 0x39FE DUP2 PUSH2 0x33C2 JUMP JUMPDEST SWAP3 SWAP2 POP POP JUMP JUMPDEST PUSH0 PUSH1 0x20 DUP3 DUP5 SUB SLT ISZERO PUSH2 0x3A19 JUMPI PUSH2 0x3A18 PUSH2 0x33B5 JUMP JUMPDEST JUMPDEST PUSH0 PUSH2 0x3A26 DUP5 DUP3 DUP6 ADD PUSH2 0x39F0 JUMP JUMPDEST SWAP2 POP POP SWAP3 SWAP2 POP POP JUMP JUMPDEST PUSH0 PUSH1 0x40 DUP3 ADD SWAP1 POP PUSH2 0x3A42 PUSH0 DUP4 ADD DUP6 PUSH2 0x3447 JUMP JUMPDEST PUSH2 0x3A4F PUSH1 0x20 DUP4 ADD DUP5 PUSH2 0x35A9 JUMP JUMPDEST SWAP4 SWAP3 POP POP POP JUMP JUMPDEST PUSH2 0x3A5F DUP2 PUSH2 0x34D7 JUMP JUMPDEST DUP2 EQ PUSH2 0x3A69 JUMPI PUSH0 DUP1 REVERT JUMPDEST POP JUMP JUMPDEST PUSH0 DUP2 MLOAD SWAP1 POP PUSH2 0x3A7A DUP2 PUSH2 0x3A56 JUMP JUMPDEST SWAP3 SWAP2 POP POP JUMP JUMPDEST PUSH0 PUSH1 0x20 DUP3 DUP5 SUB SLT ISZERO PUSH2 0x3A95 JUMPI PUSH2 0x3A94 PUSH2 0x33B5 JUMP JUMPDEST JUMPDEST PUSH0 PUSH2 0x3AA2 DUP5 DUP3 DUP6 ADD PUSH2 0x3A6C JUMP JUMPDEST SWAP2 POP POP SWAP3 SWAP2 POP POP JUMP JUMPDEST PUSH32 0x5472616E73666572206661696C65640000000000000000000000000000000000 PUSH0 DUP3 ADD MSTORE POP JUMP JUMPDEST PUSH0 PUSH2 0x3ADF PUSH1 0xF DUP4 PUSH2 0x38FE JUMP JUMPDEST SWAP2 POP PUSH2 0x3AEA DUP3 PUSH2 0x3AAB JUMP JUMPDEST PUSH1 0x20 DUP3 ADD SWAP1 POP SWAP2 SWAP1 POP JUMP JUMPDEST PUSH0 PUSH1 0x20 DUP3 ADD SWAP1 POP DUP2 DUP2 SUB PUSH0 DUP4 ADD MSTORE PUSH2 0x3B0C DUP2 PUSH2 0x3AD3 JUMP JUMPDEST SWAP1 POP SWAP2 SWAP1 POP JUMP JUMPDEST PUSH0 PUSH1 0x80 DUP3 ADD SWAP1 POP PUSH2 0x3B26 PUSH0 DUP4 ADD DUP8 PUSH2 0x3447 JUMP JUMPDEST PUSH2 0x3B33 PUSH1 0x20 DUP4 ADD DUP7 PUSH2 0x35A9 JUMP JUMPDEST PUSH2 0x3B40 PUSH1 0x40 DUP4 ADD DUP6 PUSH2 0x35A9 JUMP JUMPDEST PUSH2 0x3B4D PUSH1 0x60 DUP4 ADD DUP5 PUSH2 0x35A9 JUMP JUMPDEST SWAP6 SWAP5 POP POP POP POP POP JUMP JUMPDEST PUSH0 PUSH1 0x60 DUP3 ADD SWAP1 POP PUSH2 0x3B69 PUSH0 DUP4 ADD DUP7 PUSH2 0x3447 JUMP JUMPDEST PUSH2 0x3B76 PUSH1 0x20 DUP4 ADD DUP6 PUSH2 0x3447 JUMP JUMPDEST PUSH2 0x3B83 PUSH1 0x40 DUP4 ADD DUP5 PUSH2 0x35A9 JUMP JUMPDEST SWAP5 SWAP4 POP POP POP POP JUMP JUMPDEST PUSH32 0x536861726573206D7573742062652067726561746572207468616E207A65726F PUSH0 DUP3 ADD MSTORE POP JUMP JUMPDEST PUSH0 PUSH2 0x3BBF PUSH1 0x20 DUP4 PUSH2 0x38FE JUMP JUMPDEST SWAP2 POP PUSH2 0x3BCA DUP3 PUSH2 0x3B8B JUMP JUMPDEST PUSH1 0x20 DUP3 ADD SWAP1 POP SWAP2 SWAP1 POP JUMP JUMPDEST PUSH0 PUSH1 0x20 DUP3 ADD SWAP1 POP DUP2 DUP2 SUB PUSH0 DUP4 ADD MSTORE PUSH2 0x3BEC DUP2 PUSH2 0x3BB3 JUMP JUMPDEST SWAP1 POP SWAP2 SWAP1 POP JUMP JUMPDEST PUSH32 0x5F70726963652063616E6E6F74206265207A65726F0000000000000000000000 PUSH0 DUP3 ADD MSTORE POP JUMP JUMPDEST PUSH0 PUSH2 0x3C27 PUSH1 0x15 DUP4 PUSH2 0x38FE JUMP JUMPDEST SWAP2 POP PUSH2 0x3C32 DUP3 PUSH2 0x3BF3 JUMP JUMPDEST PUSH1 0x20 DUP3 ADD SWAP1 POP SWAP2 SWAP1 POP JUMP JUMPDEST PUSH0 PUSH1 0x20 DUP3 ADD SWAP1 POP DUP2 DUP2 SUB PUSH0 DUP4 ADD MSTORE PUSH2 0x3C54 DUP2 PUSH2 0x3C1B JUMP JUMPDEST SWAP1 POP SWAP2 SWAP1 POP JUMP JUMPDEST PUSH0 PUSH1 0x80 DUP3 ADD SWAP1 POP PUSH2 0x3C6E PUSH0 DUP4 ADD DUP8 PUSH2 0x3447 JUMP JUMPDEST PUSH2 0x3C7B PUSH1 0x20 DUP4 ADD DUP7 PUSH2 0x3447 JUMP JUMPDEST PUSH2 0x3C88 PUSH1 0x40 DUP4 ADD DUP6 PUSH2 0x35A9 JUMP JUMPDEST PUSH2 0x3C95 PUSH1 0x60 DUP4 ADD DUP5 PUSH2 0x35A9 JUMP JUMPDEST SWAP6 SWAP5 POP POP POP POP POP JUMP JUMPDEST PUSH32 0x5F746F74616C5374616B65416D6F756E742063616E206E6F74206265207A6572 PUSH0 DUP3 ADD MSTORE PUSH32 0x6F00000000000000000000000000000000000000000000000000000000000000 PUSH1 0x20 DUP3 ADD MSTORE POP JUMP JUMPDEST PUSH0 PUSH2 0x3CF8 PUSH1 0x21 DUP4 PUSH2 0x38FE JUMP JUMPDEST SWAP2 POP PUSH2 0x3D03 DUP3 PUSH2 0x3C9E JUMP JUMPDEST PUSH1 0x40 DUP3 ADD SWAP1 POP SWAP2 SWAP1 POP JUMP JUMPDEST PUSH0 PUSH1 0x20 DUP3 ADD SWAP1 POP DUP2 DUP2 SUB PUSH0 DUP4 ADD MSTORE PUSH2 0x3D25 DUP2 PUSH2 0x3CEC JUMP JUMPDEST SWAP1 POP SWAP2 SWAP1 POP JUMP INVALID LOG2 PUSH5 0x6970667358 0x22 SLT KECCAK256 DUP5 EXTCODESIZE 0xE8 PUSH13 0x186DBB2D0B9EDE340935E1DD93 MLOAD SELFBALANCE 0xA9 0xD PUSH23 0xF0C9773D9F58B93F3B9064736F6C634300081A00330000 "
				},
				"gasEstimates": {
					"creation": {
						"codeDepositCost": "3142800",
						"executionCost": "infinite",
						"totalCost": "infinite"
					},
					"external": {
						"PriceCalculation(uint256,uint256)": "infinite",
						"bet(uint256,uint256)": "infinite",
						"buyShare(uint256,address)": "infinite",
						"calculateInvestment(uint256,uint256)": "infinite",
						"calculateShares(uint256,uint256)": "infinite",
						"eachUser(uint256)": "2851",
						"getInitialPrices()": "infinite",
						"marketInfo(address)": "infinite",
						"owner()": "2604",
						"profitPercentage()": "2447",
						"readSellInfo(address,uint256)": "infinite",
						"renounceOwnership()": "infinite",
						"resolveMarket(uint256)": "infinite",
						"sellInfo(address,uint256)": "infinite",
						"sellShare(uint256,uint256,uint256)": "infinite",
						"totalUsers()": "2469",
						"transferOwnership(address)": "infinite",
						"usdcToken()": "infinite",
						"userBetOn(address,uint256)": "3169",
						"userInfo(address)": "infinite"
					},
					"internal": {
						"calculatePercentage(uint256,uint256)": "infinite",
						"calculatePotentialReturn(uint256)": "infinite",
						"clamp(uint256,uint256,uint256)": "94"
					}
				},
				"methodIdentifiers": {
					"PriceCalculation(uint256,uint256)": "21d0d9af",
					"bet(uint256,uint256)": "6ffcc719",
					"buyShare(uint256,address)": "fbea0b06",
					"calculateInvestment(uint256,uint256)": "84b5aca6",
					"calculateShares(uint256,uint256)": "b3c740e8",
					"eachUser(uint256)": "08ef962e",
					"getInitialPrices()": "208c86a4",
					"marketInfo(address)": "c4351386",
					"owner()": "8da5cb5b",
					"profitPercentage()": "b677d9d2",
					"readSellInfo(address,uint256)": "3774ca25",
					"renounceOwnership()": "715018a6",
					"resolveMarket(uint256)": "6399d03d",
					"sellInfo(address,uint256)": "61d464ef",
					"sellShare(uint256,uint256,uint256)": "456e62ba",
					"totalUsers()": "bff1f9e1",
					"transferOwnership(address)": "f2fde38b",
					"usdcToken()": "11eac855",
					"userBetOn(address,uint256)": "0efa82f6",
					"userInfo(address)": "1959a002"
				}
			},
			"storageLayout": {
				"storage": [
					{
						"astId": 8,
						"contract": "FacctoryContract/WagerContract.sol:Market",
						"label": "_owner",
						"offset": 0,
						"slot": "0",
						"type": "t_address"
					},
					{
						"astId": 942,
						"contract": "FacctoryContract/WagerContract.sol:Market",
						"label": "usdcToken",
						"offset": 0,
						"slot": "1",
						"type": "t_contract(ERC20)799"
					},
					{
						"astId": 989,
						"contract": "FacctoryContract/WagerContract.sol:Market",
						"label": "totalUsers",
						"offset": 0,
						"slot": "2",
						"type": "t_uint256"
					},
					{
						"astId": 991,
						"contract": "FacctoryContract/WagerContract.sol:Market",
						"label": "profitPercentage",
						"offset": 0,
						"slot": "3",
						"type": "t_uint256"
					},
					{
						"astId": 995,
						"contract": "FacctoryContract/WagerContract.sol:Market",
						"label": "eachUser",
						"offset": 0,
						"slot": "4",
						"type": "t_mapping(t_uint256,t_address)"
					},
					{
						"astId": 1000,
						"contract": "FacctoryContract/WagerContract.sol:Market",
						"label": "userInfo",
						"offset": 0,
						"slot": "5",
						"type": "t_mapping(t_address,t_struct(UserInfo)974_storage)"
					},
					{
						"astId": 1005,
						"contract": "FacctoryContract/WagerContract.sol:Market",
						"label": "marketInfo",
						"offset": 0,
						"slot": "6",
						"type": "t_mapping(t_address,t_struct(MarketInfo)959_storage)"
					},
					{
						"astId": 1012,
						"contract": "FacctoryContract/WagerContract.sol:Market",
						"label": "sellInfo",
						"offset": 0,
						"slot": "7",
						"type": "t_mapping(t_address,t_mapping(t_uint256,t_struct(SellInfo)987_storage))"
					}
				],
				"types": {
					"t_address": {
						"encoding": "inplace",
						"label": "address",
						"numberOfBytes": "20"
					},
					"t_array(t_uint256)2_storage": {
						"base": "t_uint256",
						"encoding": "inplace",
						"label": "uint256[2]",
						"numberOfBytes": "64"
					},
					"t_bool": {
						"encoding": "inplace",
						"label": "bool",
						"numberOfBytes": "1"
					},
					"t_contract(ERC20)799": {
						"encoding": "inplace",
						"label": "contract ERC20",
						"numberOfBytes": "20"
					},
					"t_mapping(t_address,t_mapping(t_uint256,t_struct(SellInfo)987_storage))": {
						"encoding": "mapping",
						"key": "t_address",
						"label": "mapping(address => mapping(uint256 => struct Market.SellInfo))",
						"numberOfBytes": "32",
						"value": "t_mapping(t_uint256,t_struct(SellInfo)987_storage)"
					},
					"t_mapping(t_address,t_struct(MarketInfo)959_storage)": {
						"encoding": "mapping",
						"key": "t_address",
						"label": "mapping(address => struct Market.MarketInfo)",
						"numberOfBytes": "32",
						"value": "t_struct(MarketInfo)959_storage"
					},
					"t_mapping(t_address,t_struct(UserInfo)974_storage)": {
						"encoding": "mapping",
						"key": "t_address",
						"label": "mapping(address => struct Market.UserInfo)",
						"numberOfBytes": "32",
						"value": "t_struct(UserInfo)974_storage"
					},
					"t_mapping(t_uint256,t_address)": {
						"encoding": "mapping",
						"key": "t_uint256",
						"label": "mapping(uint256 => address)",
						"numberOfBytes": "32",
						"value": "t_address"
					},
					"t_mapping(t_uint256,t_bool)": {
						"encoding": "mapping",
						"key": "t_uint256",
						"label": "mapping(uint256 => bool)",
						"numberOfBytes": "32",
						"value": "t_bool"
					},
					"t_mapping(t_uint256,t_struct(SellInfo)987_storage)": {
						"encoding": "mapping",
						"key": "t_uint256",
						"label": "mapping(uint256 => struct Market.SellInfo)",
						"numberOfBytes": "32",
						"value": "t_struct(SellInfo)987_storage"
					},
					"t_struct(MarketInfo)959_storage": {
						"encoding": "inplace",
						"label": "struct Market.MarketInfo",
						"members": [
							{
								"astId": 944,
								"contract": "FacctoryContract/WagerContract.sol:Market",
								"label": "resolved",
								"offset": 0,
								"slot": "0",
								"type": "t_bool"
							},
							{
								"astId": 946,
								"contract": "FacctoryContract/WagerContract.sol:Market",
								"label": "endTime",
								"offset": 0,
								"slot": "1",
								"type": "t_uint256"
							},
							{
								"astId": 948,
								"contract": "FacctoryContract/WagerContract.sol:Market",
								"label": "totalBets",
								"offset": 0,
								"slot": "2",
								"type": "t_uint256"
							},
							{
								"astId": 950,
								"contract": "FacctoryContract/WagerContract.sol:Market",
								"label": "totalAmount",
								"offset": 0,
								"slot": "3",
								"type": "t_uint256"
							},
							{
								"astId": 954,
								"contract": "FacctoryContract/WagerContract.sol:Market",
								"label": "initialPrice",
								"offset": 0,
								"slot": "4",
								"type": "t_array(t_uint256)2_storage"
							},
							{
								"astId": 956,
								"contract": "FacctoryContract/WagerContract.sol:Market",
								"label": "totalBetsOnYes",
								"offset": 0,
								"slot": "6",
								"type": "t_uint256"
							},
							{
								"astId": 958,
								"contract": "FacctoryContract/WagerContract.sol:Market",
								"label": "totalBetsOnNo",
								"offset": 0,
								"slot": "7",
								"type": "t_uint256"
							}
						],
						"numberOfBytes": "256"
					},
					"t_struct(SellInfo)987_storage": {
						"encoding": "inplace",
						"label": "struct Market.SellInfo",
						"members": [
							{
								"astId": 976,
								"contract": "FacctoryContract/WagerContract.sol:Market",
								"label": "list",
								"offset": 0,
								"slot": "0",
								"type": "t_bool"
							},
							{
								"astId": 978,
								"contract": "FacctoryContract/WagerContract.sol:Market",
								"label": "sold",
								"offset": 1,
								"slot": "0",
								"type": "t_bool"
							},
							{
								"astId": 980,
								"contract": "FacctoryContract/WagerContract.sol:Market",
								"label": "owner",
								"offset": 2,
								"slot": "0",
								"type": "t_address"
							},
							{
								"astId": 982,
								"contract": "FacctoryContract/WagerContract.sol:Market",
								"label": "price",
								"offset": 0,
								"slot": "1",
								"type": "t_uint256"
							},
							{
								"astId": 984,
								"contract": "FacctoryContract/WagerContract.sol:Market",
								"label": "amount",
								"offset": 0,
								"slot": "2",
								"type": "t_uint256"
							},
							{
								"astId": 986,
								"contract": "FacctoryContract/WagerContract.sol:Market",
								"label": "listOn",
								"offset": 0,
								"slot": "3",
								"type": "t_uint256"
							}
						],
						"numberOfBytes": "128"
					},
					"t_struct(UserInfo)974_storage": {
						"encoding": "inplace",
						"label": "struct Market.UserInfo",
						"members": [
							{
								"astId": 961,
								"contract": "FacctoryContract/WagerContract.sol:Market",
								"label": "listNo",
								"offset": 0,
								"slot": "0",
								"type": "t_uint256"
							},
							{
								"astId": 963,
								"contract": "FacctoryContract/WagerContract.sol:Market",
								"label": "noBetAmount",
								"offset": 0,
								"slot": "1",
								"type": "t_uint256"
							},
							{
								"astId": 965,
								"contract": "FacctoryContract/WagerContract.sol:Market",
								"label": "rewardAmount",
								"offset": 0,
								"slot": "2",
								"type": "t_uint256"
							},
							{
								"astId": 967,
								"contract": "FacctoryContract/WagerContract.sol:Market",
								"label": "yesBetAmount",
								"offset": 0,
								"slot": "3",
								"type": "t_uint256"
							},
							{
								"astId": 969,
								"contract": "FacctoryContract/WagerContract.sol:Market",
								"label": "shareAmount",
								"offset": 0,
								"slot": "4",
								"type": "t_uint256"
							},
							{
								"astId": 973,
								"contract": "FacctoryContract/WagerContract.sol:Market",
								"label": "betOn",
								"offset": 0,
								"slot": "5",
								"type": "t_mapping(t_uint256,t_bool)"
							}
						],
						"numberOfBytes": "192"
					},
					"t_uint256": {
						"encoding": "inplace",
						"label": "uint256",
						"numberOfBytes": "32"
					}
				}
			},
			"userdoc": {
				"kind": "user",
				"methods": {},
				"version": 1
			}
		}
	}
}