{
	"WagersWorld/checkPricce.sol": {
		"MyToken": {
			"abi": [
				{
					"inputs": [],
					"stateMutability": "nonpayable",
					"type": "constructor"
				},
				{
					"inputs": [
						{
							"internalType": "uint256",
							"name": "totalBetAmountOnNo",
							"type": "uint256"
						},
						{
							"internalType": "uint256",
							"name": "totalBetAmountOnYes",
							"type": "uint256"
						}
					],
					"name": "PriceCalculation1",
					"outputs": [
						{
							"internalType": "uint256",
							"name": "",
							"type": "uint256"
						},
						{
							"internalType": "uint256",
							"name": "",
							"type": "uint256"
						}
					],
					"stateMutability": "nonpayable",
					"type": "function"
				},
				{
					"inputs": [
						{
							"internalType": "uint256",
							"name": "_amount",
							"type": "uint256"
						},
						{
							"internalType": "uint256",
							"name": "_betOn",
							"type": "uint256"
						}
					],
					"name": "calculateShares",
					"outputs": [
						{
							"internalType": "uint256",
							"name": "",
							"type": "uint256"
						}
					],
					"stateMutability": "view",
					"type": "function"
				},
				{
					"inputs": [],
					"name": "getInitialPrices",
					"outputs": [
						{
							"internalType": "uint256",
							"name": "",
							"type": "uint256"
						},
						{
							"internalType": "uint256",
							"name": "",
							"type": "uint256"
						}
					],
					"stateMutability": "view",
					"type": "function"
				},
				{
					"inputs": [
						{
							"internalType": "uint256",
							"name": "totalWinnerShare",
							"type": "uint256"
						}
					],
					"name": "perPeerson",
					"outputs": [
						{
							"internalType": "uint256",
							"name": "_perShare",
							"type": "uint256"
						}
					],
					"stateMutability": "view",
					"type": "function"
				},
				{
					"inputs": [],
					"name": "totalBetAmount",
					"outputs": [
						{
							"internalType": "uint256",
							"name": "",
							"type": "uint256"
						}
					],
					"stateMutability": "view",
					"type": "function"
				}
			],
			"devdoc": {
				"kind": "dev",
				"methods": {},
				"version": 1
			},
			"evm": {
				"assembly": "    /* \"WagersWorld/checkPricce.sol\":218:2769  contract MyToken  {... */\n  mstore(0x40, 0x80)\n    /* \"WagersWorld/checkPricce.sol\":561:726  constructor(){... */\n  callvalue\n  dup1\n  iszero\n  tag_1\n  jumpi\n  0x00\n  dup1\n  revert\ntag_1:\n  pop\n    /* \"WagersWorld/checkPricce.sol\":604:608  this */\n  address\n    /* \"WagersWorld/checkPricce.sol\":585:610  marketInfo[address(this)] */\n  0x00\n  swap1\n  dup2\n  mstore\n    /* \"WagersWorld/checkPricce.sol\":585:595  marketInfo */\n  0x01\n    /* \"WagersWorld/checkPricce.sol\":585:610  marketInfo[address(this)] */\n  0x20\n  mstore\n  0x40\n  swap1\n  keccak256\n    /* \"WagersWorld/checkPricce.sol\":629:647  500000000000000000 */\n  0x06f05b59d3b20000\n    /* \"WagersWorld/checkPricce.sol\":585:623  marketInfo[address(this)].initialPrice */\n  0x04\n  dup3\n  add\n    /* \"WagersWorld/checkPricce.sol\":585:647  marketInfo[address(this)].initialPrice[0] = 500000000000000000 */\n  dup2\n  swap1\n  sstore\n    /* \"WagersWorld/checkPricce.sol\":657:698  marketInfo[address(this)].initialPrice[1] */\n  0x05\n  swap1\n  swap2\n  add\n    /* \"WagersWorld/checkPricce.sol\":657:719  marketInfo[address(this)].initialPrice[1] = 500000000000000000 */\n  sstore\n    /* \"WagersWorld/checkPricce.sol\":218:2769  contract MyToken  {... */\n  dataSize(sub_0)\n  dup1\n  dataOffset(sub_0)\n  0x00\n  codecopy\n  0x00\n  return\nstop\n\nsub_0: assembly {\n        /* \"WagersWorld/checkPricce.sol\":218:2769  contract MyToken  {... */\n      mstore(0x40, 0x80)\n      callvalue\n      dup1\n      iszero\n      tag_1\n      jumpi\n      0x00\n      dup1\n      revert\n    tag_1:\n      pop\n      jumpi(tag_2, lt(calldatasize, 0x04))\n      shr(0xe0, calldataload(0x00))\n      dup1\n      0x208c86a4\n      eq\n      tag_3\n      jumpi\n      dup1\n      0x613f4594\n      eq\n      tag_4\n      jumpi\n      dup1\n      0x6a7f4d58\n      eq\n      tag_5\n      jumpi\n      dup1\n      0xb3c740e8\n      eq\n      tag_6\n      jumpi\n      dup1\n      0xdbd3a401\n      eq\n      tag_7\n      jumpi\n    tag_2:\n      0x00\n      dup1\n      revert\n        /* \"WagersWorld/checkPricce.sol\":2114:2291  function getInitialPrices() public view returns (uint256, uint256) {... */\n    tag_3:\n        /* \"WagersWorld/checkPricce.sol\":2218:2222  this */\n      address\n        /* \"WagersWorld/checkPricce.sol\":2163:2170  uint256 */\n      0x00\n        /* \"WagersWorld/checkPricce.sol\":2199:2224  marketInfo[address(this)] */\n      swap1\n      dup2\n      mstore\n        /* \"WagersWorld/checkPricce.sol\":2199:2209  marketInfo */\n      0x01\n        /* \"WagersWorld/checkPricce.sol\":2199:2224  marketInfo[address(this)] */\n      0x20\n      mstore\n      0x40\n      swap1\n      keccak256\n        /* \"WagersWorld/checkPricce.sol\":2199:2237  marketInfo[address(this)].initialPrice */\n      0x04\n      dup2\n      add\n        /* \"WagersWorld/checkPricce.sol\":2199:2240  marketInfo[address(this)].initialPrice[0] */\n      sload\n        /* \"WagersWorld/checkPricce.sol\":2242:2283  marketInfo[address(this)].initialPrice[1] */\n      0x05\n      swap1\n      swap2\n      add\n      sload\n        /* \"WagersWorld/checkPricce.sol\":2114:2291  function getInitialPrices() public view returns (uint256, uint256) {... */\n    tag_8:\n      0x40\n      dup1\n      mload\n        /* \"#utility.yul\":188:213   */\n      swap3\n      dup4\n      mstore\n        /* \"#utility.yul\":244:246   */\n      0x20\n        /* \"#utility.yul\":229:247   */\n      dup4\n      add\n        /* \"#utility.yul\":222:256   */\n      swap2\n      swap1\n      swap2\n      mstore\n        /* \"#utility.yul\":161:179   */\n      add\n        /* \"WagersWorld/checkPricce.sol\":2114:2291  function getInitialPrices() public view returns (uint256, uint256) {... */\n    tag_10:\n      mload(0x40)\n      dup1\n      swap2\n      sub\n      swap1\n      return\n        /* \"WagersWorld/checkPricce.sol\":475:504  uint256 public totalBetAmount */\n    tag_4:\n      tag_12\n      sload(0x00)\n      dup2\n      jump\n    tag_12:\n      mload(0x40)\n        /* \"#utility.yul\":413:438   */\n      swap1\n      dup2\n      mstore\n        /* \"#utility.yul\":401:403   */\n      0x20\n        /* \"#utility.yul\":386:404   */\n      add\n        /* \"WagersWorld/checkPricce.sol\":475:504  uint256 public totalBetAmount */\n      tag_10\n        /* \"#utility.yul\":267:444   */\n      jump\n        /* \"WagersWorld/checkPricce.sol\":733:1220  function PriceCalculation1(uint256 totalBetAmountOnNo, uint256 totalBetAmountOnYes) public returns(uint256, uint256){... */\n    tag_5:\n      tag_8\n      tag_17\n      calldatasize\n      0x04\n      tag_18\n      jump\t// in\n    tag_17:\n      tag_19\n      jump\t// in\n        /* \"WagersWorld/checkPricce.sol\":2460:2767  function calculateShares(uint256 _amount, uint256 _betOn ) public view returns (uint256) {... */\n    tag_6:\n      tag_12\n      tag_22\n      calldatasize\n      0x04\n      tag_18\n      jump\t// in\n    tag_22:\n      tag_23\n      jump\t// in\n        /* \"WagersWorld/checkPricce.sol\":2297:2451  function perPeerson( uint256 totalWinnerShare ) view external returns (uint256 _perShare ){... */\n    tag_7:\n      tag_12\n      tag_26\n      calldatasize\n      0x04\n      tag_27\n      jump\t// in\n    tag_26:\n      tag_28\n      jump\t// in\n        /* \"WagersWorld/checkPricce.sol\":733:1220  function PriceCalculation1(uint256 totalBetAmountOnNo, uint256 totalBetAmountOnYes) public returns(uint256, uint256){... */\n    tag_19:\n        /* \"WagersWorld/checkPricce.sol\":832:839  uint256 */\n      0x00\n      dup1\n        /* \"WagersWorld/checkPricce.sol\":887:927  totalBetAmountOnNo + totalBetAmountOnYes */\n      tag_39\n        /* \"WagersWorld/checkPricce.sol\":908:927  totalBetAmountOnYes */\n      dup4\n        /* \"WagersWorld/checkPricce.sol\":887:905  totalBetAmountOnNo */\n      dup6\n        /* \"WagersWorld/checkPricce.sol\":887:927  totalBetAmountOnNo + totalBetAmountOnYes */\n      tag_40\n      jump\t// in\n    tag_39:\n        /* \"WagersWorld/checkPricce.sol\":869:883  totalBetAmount */\n      0x00\n      dup1\n        /* \"WagersWorld/checkPricce.sol\":869:927  totalBetAmount += totalBetAmountOnNo + totalBetAmountOnYes */\n      dup3\n      dup3\n      sload\n      tag_41\n      swap2\n      swap1\n      tag_40\n      jump\t// in\n    tag_41:\n      swap1\n      swap2\n      sstore\n      pop\n        /* \"WagersWorld/checkPricce.sol\":1049:1106  PriceCalculation(totalBetAmountOnNo, totalBetAmountOnYes) */\n      tag_42\n      swap1\n      pop\n        /* \"WagersWorld/checkPricce.sol\":1066:1084  totalBetAmountOnNo */\n      dup5\n        /* \"WagersWorld/checkPricce.sol\":1086:1105  totalBetAmountOnYes */\n      dup5\n        /* \"WagersWorld/checkPricce.sol\":1049:1065  PriceCalculation */\n      tag_43\n        /* \"WagersWorld/checkPricce.sol\":1049:1106  PriceCalculation(totalBetAmountOnNo, totalBetAmountOnYes) */\n      jump\t// in\n    tag_42:\n        /* \"WagersWorld/checkPricce.sol\":968:972  this */\n      address\n        /* \"WagersWorld/checkPricce.sol\":949:974  marketInfo[address(this)] */\n      0x00\n      swap1\n      dup2\n      mstore\n        /* \"WagersWorld/checkPricce.sol\":949:959  marketInfo */\n      0x01\n        /* \"WagersWorld/checkPricce.sol\":949:974  marketInfo[address(this)] */\n      0x20\n      mstore\n      0x40\n      swap1\n      keccak256\n        /* \"WagersWorld/checkPricce.sol\":991:1032  marketInfo[address(this)].initialPrice[1] */\n      0x05\n      dup2\n      add\n        /* \"WagersWorld/checkPricce.sol\":948:1106  (marketInfo[address(this)].initialPrice[0],marketInfo[address(this)].initialPrice[1]) = ... */\n      dup3\n      swap1\n      sstore\n        /* \"WagersWorld/checkPricce.sol\":949:987  marketInfo[address(this)].initialPrice */\n      0x04\n      add\n        /* \"WagersWorld/checkPricce.sol\":948:1106  (marketInfo[address(this)].initialPrice[0],marketInfo[address(this)].initialPrice[1]) = ... */\n      dup3\n      swap1\n      sstore\n      swap1\n      swap3\n      pop\n      swap1\n      pop\n        /* \"WagersWorld/checkPricce.sol\":733:1220  function PriceCalculation1(uint256 totalBetAmountOnNo, uint256 totalBetAmountOnYes) public returns(uint256, uint256){... */\n    tag_38:\n      swap3\n      pop\n      swap3\n      swap1\n      pop\n      jump\t// out\n        /* \"WagersWorld/checkPricce.sol\":2460:2767  function calculateShares(uint256 _amount, uint256 _betOn ) public view returns (uint256) {... */\n    tag_23:\n        /* \"WagersWorld/checkPricce.sol\":2596:2600  this */\n      address\n        /* \"WagersWorld/checkPricce.sol\":2540:2547  uint256 */\n      0x00\n        /* \"WagersWorld/checkPricce.sol\":2577:2602  marketInfo[address(this)] */\n      swap1\n      dup2\n      mstore\n        /* \"WagersWorld/checkPricce.sol\":2577:2587  marketInfo */\n      0x01\n        /* \"WagersWorld/checkPricce.sol\":2577:2602  marketInfo[address(this)] */\n      0x20\n      mstore\n      0x40\n      dup2\n      keccak256\n        /* \"WagersWorld/checkPricce.sol\":2540:2547  uint256 */\n      dup2\n      swap1\n        /* \"WagersWorld/checkPricce.sol\":2577:2615  marketInfo[address(this)].initialPrice */\n      0x04\n      add\n        /* \"WagersWorld/checkPricce.sol\":2616:2622  _betOn */\n      dup4\n        /* \"WagersWorld/checkPricce.sol\":2577:2623  marketInfo[address(this)].initialPrice[_betOn] */\n      0x02\n      dup2\n      lt\n      tag_58\n      jumpi\n      tag_58\n      tag_33\n      jump\t// in\n    tag_58:\n      add\n      sload\n        /* \"WagersWorld/checkPricce.sol\":2560:2623  uint256 price =  marketInfo[address(this)].initialPrice[_betOn] */\n      swap1\n      pop\n        /* \"WagersWorld/checkPricce.sol\":2650:2655  price */\n      dup1\n        /* \"WagersWorld/checkPricce.sol\":2659:2660  0 */\n      0x00\n        /* \"WagersWorld/checkPricce.sol\":2650:2660  price != 0 */\n      sub\n        /* \"WagersWorld/checkPricce.sol\":2642:2686  require(price != 0, \"_price cannot be zero\") */\n      tag_60\n      jumpi\n      mload(0x40)\n      shl(0xe5, 0x461bcd)\n      dup2\n      mstore\n        /* \"#utility.yul\":1627:1629   */\n      0x20\n        /* \"WagersWorld/checkPricce.sol\":2642:2686  require(price != 0, \"_price cannot be zero\") */\n      0x04\n      dup3\n      add\n        /* \"#utility.yul\":1609:1630   */\n      mstore\n        /* \"#utility.yul\":1666:1668   */\n      0x15\n        /* \"#utility.yul\":1646:1664   */\n      0x24\n      dup3\n      add\n        /* \"#utility.yul\":1639:1669   */\n      mstore\n      shl(0x58, 0x5f70726963652063616e6e6f74206265207a65726f)\n        /* \"#utility.yul\":1685:1703   */\n      0x44\n      dup3\n      add\n        /* \"#utility.yul\":1678:1729   */\n      mstore\n        /* \"#utility.yul\":1746:1764   */\n      0x64\n      add\n        /* \"WagersWorld/checkPricce.sol\":2642:2686  require(price != 0, \"_price cannot be zero\") */\n      mload(0x40)\n      dup1\n      swap2\n      sub\n      swap1\n      revert\n    tag_60:\n        /* \"WagersWorld/checkPricce.sol\":2696:2710  uint256 result */\n      0x00\n        /* \"WagersWorld/checkPricce.sol\":2713:2728  _amount / price */\n      tag_63\n        /* \"WagersWorld/checkPricce.sol\":2723:2728  price */\n      dup3\n        /* \"WagersWorld/checkPricce.sol\":2713:2720  _amount */\n      dup7\n        /* \"WagersWorld/checkPricce.sol\":2713:2728  _amount / price */\n      tag_64\n      jump\t// in\n    tag_63:\n        /* \"WagersWorld/checkPricce.sol\":2696:2728  uint256 result = _amount / price */\n      swap3\n      pop\n      pop\n      pop\n        /* \"WagersWorld/checkPricce.sol\":2460:2767  function calculateShares(uint256 _amount, uint256 _betOn ) public view returns (uint256) {... */\n    tag_56:\n      swap3\n      swap2\n      pop\n      pop\n      jump\t// out\n        /* \"WagersWorld/checkPricce.sol\":2297:2451  function perPeerson( uint256 totalWinnerShare ) view external returns (uint256 _perShare ){... */\n    tag_28:\n        /* \"WagersWorld/checkPricce.sol\":2368:2385  uint256 _perShare */\n      0x00\n        /* \"WagersWorld/checkPricce.sol\":2428:2444  totalWinnerShare */\n      dup2\n        /* \"WagersWorld/checkPricce.sol\":2411:2425  totalBetAmount */\n      sload(0x00)\n        /* \"WagersWorld/checkPricce.sol\":2411:2444  totalBetAmount / totalWinnerShare */\n      tag_56\n      swap2\n      swap1\n      tag_64\n      jump\t// in\n        /* \"WagersWorld/checkPricce.sol\":1227:1872  function PriceCalculation(uint256 _totalBetAmountOnNo, uint256 _totalBetAmountOnYes) private pure returns (uint256 noSharePrice, uint256 yesSharePrice) {... */\n    tag_43:\n        /* \"WagersWorld/checkPricce.sol\":1334:1354  uint256 noSharePrice */\n      0x00\n      dup1\n      dup1\n        /* \"WagersWorld/checkPricce.sol\":1409:1451  _totalBetAmountOnNo + _totalBetAmountOnYes */\n      tag_68\n        /* \"WagersWorld/checkPricce.sol\":1431:1451  _totalBetAmountOnYes */\n      dup5\n        /* \"WagersWorld/checkPricce.sol\":1409:1428  _totalBetAmountOnNo */\n      dup7\n        /* \"WagersWorld/checkPricce.sol\":1409:1451  _totalBetAmountOnNo + _totalBetAmountOnYes */\n      tag_40\n      jump\t// in\n    tag_68:\n        /* \"WagersWorld/checkPricce.sol\":1389:1451  uint256 _totalBet = _totalBetAmountOnNo + _totalBetAmountOnYes */\n      swap1\n      pop\n        /* \"WagersWorld/checkPricce.sol\":1465:1474  _totalBet */\n      dup1\n        /* \"WagersWorld/checkPricce.sol\":1478:1479  0 */\n      0x00\n        /* \"WagersWorld/checkPricce.sol\":1465:1479  _totalBet == 0 */\n      sub\n        /* \"WagersWorld/checkPricce.sol\":1461:1580  if (_totalBet == 0) {... */\n      tag_69\n      jumpi\n        /* \"WagersWorld/checkPricce.sol\":1503:1512  0.5 ether */\n      0x06f05b59d3b20000\n        /* \"WagersWorld/checkPricce.sol\":1514:1523  0.5 ether */\n      dup1\n        /* \"WagersWorld/checkPricce.sol\":1495:1524  return (0.5 ether, 0.5 ether) */\n      swap3\n      pop\n      swap3\n      pop\n      pop\n      jump(tag_38)\n        /* \"WagersWorld/checkPricce.sol\":1461:1580  if (_totalBet == 0) {... */\n    tag_69:\n        /* \"WagersWorld/checkPricce.sol\":1590:1605  uint256 noRatio */\n      0x00\n        /* \"WagersWorld/checkPricce.sol\":1638:1647  _totalBet */\n      dup2\n        /* \"WagersWorld/checkPricce.sol\":1609:1634  _totalBetAmountOnNo * 100 */\n      tag_70\n        /* \"WagersWorld/checkPricce.sol\":1609:1628  _totalBetAmountOnNo */\n      dup8\n        /* \"WagersWorld/checkPricce.sol\":1631:1634  100 */\n      0x64\n        /* \"WagersWorld/checkPricce.sol\":1609:1634  _totalBetAmountOnNo * 100 */\n      tag_71\n      jump\t// in\n    tag_70:\n        /* \"WagersWorld/checkPricce.sol\":1608:1647  (_totalBetAmountOnNo * 100) / _totalBet */\n      tag_72\n      swap2\n      swap1\n      tag_64\n      jump\t// in\n    tag_72:\n        /* \"WagersWorld/checkPricce.sol\":1590:1647  uint256 noRatio = (_totalBetAmountOnNo * 100) / _totalBet */\n      swap1\n      pop\n        /* \"WagersWorld/checkPricce.sol\":1657:1673  uint256 yesRatio */\n      0x00\n        /* \"WagersWorld/checkPricce.sol\":1707:1716  _totalBet */\n      dup3\n        /* \"WagersWorld/checkPricce.sol\":1677:1703  _totalBetAmountOnYes * 100 */\n      tag_73\n        /* \"WagersWorld/checkPricce.sol\":1677:1697  _totalBetAmountOnYes */\n      dup8\n        /* \"WagersWorld/checkPricce.sol\":1700:1703  100 */\n      0x64\n        /* \"WagersWorld/checkPricce.sol\":1677:1703  _totalBetAmountOnYes * 100 */\n      tag_71\n      jump\t// in\n    tag_73:\n        /* \"WagersWorld/checkPricce.sol\":1676:1716  (_totalBetAmountOnYes * 100) / _totalBet */\n      tag_74\n      swap2\n      swap1\n      tag_64\n      jump\t// in\n    tag_74:\n        /* \"WagersWorld/checkPricce.sol\":1657:1716  uint256 yesRatio = (_totalBetAmountOnYes * 100) / _totalBet */\n      swap1\n      pop\n        /* \"WagersWorld/checkPricce.sol\":1742:1783  clamp(((noRatio * 99) / 100) + 1, 1, 100) */\n      tag_75\n        /* \"WagersWorld/checkPricce.sol\":1766:1769  100 */\n      0x64\n        /* \"WagersWorld/checkPricce.sol\":1750:1762  noRatio * 99 */\n      tag_76\n        /* \"WagersWorld/checkPricce.sol\":1750:1757  noRatio */\n      dup5\n        /* \"WagersWorld/checkPricce.sol\":1760:1762  99 */\n      0x63\n        /* \"WagersWorld/checkPricce.sol\":1750:1762  noRatio * 99 */\n      tag_71\n      jump\t// in\n    tag_76:\n        /* \"WagersWorld/checkPricce.sol\":1749:1769  (noRatio * 99) / 100 */\n      tag_77\n      swap2\n      swap1\n      tag_64\n      jump\t// in\n    tag_77:\n        /* \"WagersWorld/checkPricce.sol\":1748:1774  ((noRatio * 99) / 100) + 1 */\n      tag_78\n      swap1\n        /* \"WagersWorld/checkPricce.sol\":1773:1774  1 */\n      0x01\n        /* \"WagersWorld/checkPricce.sol\":1748:1774  ((noRatio * 99) / 100) + 1 */\n      tag_40\n      jump\t// in\n    tag_78:\n        /* \"WagersWorld/checkPricce.sol\":1776:1777  1 */\n      0x01\n        /* \"WagersWorld/checkPricce.sol\":1779:1782  100 */\n      0x64\n        /* \"WagersWorld/checkPricce.sol\":1742:1747  clamp */\n      tag_79\n        /* \"WagersWorld/checkPricce.sol\":1742:1783  clamp(((noRatio * 99) / 100) + 1, 1, 100) */\n      jump\t// in\n    tag_75:\n        /* \"WagersWorld/checkPricce.sol\":1742:1790  clamp(((noRatio * 99) / 100) + 1, 1, 100) * 1e16 */\n      tag_80\n      swap1\n        /* \"WagersWorld/checkPricce.sol\":1786:1790  1e16 */\n      0x2386f26fc10000\n        /* \"WagersWorld/checkPricce.sol\":1742:1790  clamp(((noRatio * 99) / 100) + 1, 1, 100) * 1e16 */\n      tag_71\n      jump\t// in\n    tag_80:\n        /* \"WagersWorld/checkPricce.sol\":1727:1790  noSharePrice = clamp(((noRatio * 99) / 100) + 1, 1, 100) * 1e16 */\n      swap5\n      pop\n        /* \"WagersWorld/checkPricce.sol\":1816:1858  clamp(((yesRatio * 99) / 100) + 1, 1, 100) */\n      tag_81\n        /* \"WagersWorld/checkPricce.sol\":1841:1844  100 */\n      0x64\n        /* \"WagersWorld/checkPricce.sol\":1824:1837  yesRatio * 99 */\n      tag_76\n        /* \"WagersWorld/checkPricce.sol\":1824:1832  yesRatio */\n      dup4\n        /* \"WagersWorld/checkPricce.sol\":1835:1837  99 */\n      0x63\n        /* \"WagersWorld/checkPricce.sol\":1824:1837  yesRatio * 99 */\n      tag_71\n      jump\t// in\n        /* \"WagersWorld/checkPricce.sol\":1816:1858  clamp(((yesRatio * 99) / 100) + 1, 1, 100) */\n    tag_81:\n        /* \"WagersWorld/checkPricce.sol\":1816:1865  clamp(((yesRatio * 99) / 100) + 1, 1, 100) * 1e16 */\n      tag_85\n      swap1\n        /* \"WagersWorld/checkPricce.sol\":1861:1865  1e16 */\n      0x2386f26fc10000\n        /* \"WagersWorld/checkPricce.sol\":1816:1865  clamp(((yesRatio * 99) / 100) + 1, 1, 100) * 1e16 */\n      tag_71\n      jump\t// in\n    tag_85:\n        /* \"WagersWorld/checkPricce.sol\":1800:1865  yesSharePrice = clamp(((yesRatio * 99) / 100) + 1, 1, 100) * 1e16 */\n      swap4\n      pop\n        /* \"WagersWorld/checkPricce.sol\":1379:1872  {... */\n      pop\n      pop\n      pop\n        /* \"WagersWorld/checkPricce.sol\":1227:1872  function PriceCalculation(uint256 _totalBetAmountOnNo, uint256 _totalBetAmountOnYes) private pure returns (uint256 noSharePrice, uint256 yesSharePrice) {... */\n      swap3\n      pop\n      swap3\n      swap1\n      pop\n      jump\t// out\n        /* \"WagersWorld/checkPricce.sol\":1917:2108  function clamp(uint256 value, uint256 min, uint256 max) internal pure returns (uint256) {... */\n    tag_79:\n        /* \"WagersWorld/checkPricce.sol\":1996:2003  uint256 */\n      0x00\n        /* \"WagersWorld/checkPricce.sol\":2027:2030  min */\n      dup3\n        /* \"WagersWorld/checkPricce.sol\":2019:2024  value */\n      dup5\n        /* \"WagersWorld/checkPricce.sol\":2019:2030  value < min */\n      lt\n        /* \"WagersWorld/checkPricce.sol\":2015:2042  if (value < min) return min */\n      iszero\n      tag_87\n      jumpi\n      pop\n        /* \"WagersWorld/checkPricce.sol\":2039:2042  min */\n      dup2\n        /* \"WagersWorld/checkPricce.sol\":2032:2042  return min */\n      jump(tag_86)\n        /* \"WagersWorld/checkPricce.sol\":2015:2042  if (value < min) return min */\n    tag_87:\n        /* \"WagersWorld/checkPricce.sol\":2064:2067  max */\n      dup2\n        /* \"WagersWorld/checkPricce.sol\":2056:2061  value */\n      dup5\n        /* \"WagersWorld/checkPricce.sol\":2056:2067  value > max */\n      gt\n        /* \"WagersWorld/checkPricce.sol\":2052:2079  if (value > max) return max */\n      iszero\n      tag_88\n      jumpi\n      pop\n        /* \"WagersWorld/checkPricce.sol\":2076:2079  max */\n      dup1\n        /* \"WagersWorld/checkPricce.sol\":2069:2079  return max */\n      jump(tag_86)\n        /* \"WagersWorld/checkPricce.sol\":2052:2079  if (value > max) return max */\n    tag_88:\n      pop\n        /* \"WagersWorld/checkPricce.sol\":2096:2101  value */\n      dup3\n        /* \"WagersWorld/checkPricce.sol\":1917:2108  function clamp(uint256 value, uint256 min, uint256 max) internal pure returns (uint256) {... */\n    tag_86:\n      swap4\n      swap3\n      pop\n      pop\n      pop\n      jump\t// out\n        /* \"#utility.yul\":449:795   */\n    tag_18:\n        /* \"#utility.yul\":517:523   */\n      0x00\n        /* \"#utility.yul\":525:531   */\n      dup1\n        /* \"#utility.yul\":578:580   */\n      0x40\n        /* \"#utility.yul\":566:575   */\n      dup4\n        /* \"#utility.yul\":557:564   */\n      dup6\n        /* \"#utility.yul\":553:576   */\n      sub\n        /* \"#utility.yul\":549:581   */\n      slt\n        /* \"#utility.yul\":546:598   */\n      iszero\n      tag_94\n      jumpi\n        /* \"#utility.yul\":594:595   */\n      0x00\n        /* \"#utility.yul\":591:592   */\n      dup1\n        /* \"#utility.yul\":584:596   */\n      revert\n        /* \"#utility.yul\":546:598   */\n    tag_94:\n      pop\n      pop\n        /* \"#utility.yul\":639:662   */\n      dup1\n      calldataload\n      swap3\n        /* \"#utility.yul\":759:761   */\n      0x20\n        /* \"#utility.yul\":744:762   */\n      swap1\n      swap2\n      add\n        /* \"#utility.yul\":731:763   */\n      calldataload\n      swap2\n      pop\n        /* \"#utility.yul\":449:795   */\n      jump\t// out\n        /* \"#utility.yul\":800:1026   */\n    tag_27:\n        /* \"#utility.yul\":859:865   */\n      0x00\n        /* \"#utility.yul\":912:914   */\n      0x20\n        /* \"#utility.yul\":900:909   */\n      dup3\n        /* \"#utility.yul\":891:898   */\n      dup5\n        /* \"#utility.yul\":887:910   */\n      sub\n        /* \"#utility.yul\":883:915   */\n      slt\n        /* \"#utility.yul\":880:932   */\n      iszero\n      tag_96\n      jumpi\n        /* \"#utility.yul\":928:929   */\n      0x00\n        /* \"#utility.yul\":925:926   */\n      dup1\n        /* \"#utility.yul\":918:930   */\n      revert\n        /* \"#utility.yul\":880:932   */\n    tag_96:\n      pop\n        /* \"#utility.yul\":973:996   */\n      calldataload\n      swap2\n        /* \"#utility.yul\":800:1026   */\n      swap1\n      pop\n      jump\t// out\n        /* \"#utility.yul\":1031:1158   */\n    tag_33:\n        /* \"#utility.yul\":1092:1102   */\n      0x4e487b71\n        /* \"#utility.yul\":1087:1090   */\n      0xe0\n        /* \"#utility.yul\":1083:1103   */\n      shl\n        /* \"#utility.yul\":1080:1081   */\n      0x00\n        /* \"#utility.yul\":1073:1104   */\n      mstore\n        /* \"#utility.yul\":1123:1127   */\n      0x32\n        /* \"#utility.yul\":1120:1121   */\n      0x04\n        /* \"#utility.yul\":1113:1128   */\n      mstore\n        /* \"#utility.yul\":1147:1151   */\n      0x24\n        /* \"#utility.yul\":1144:1145   */\n      0x00\n        /* \"#utility.yul\":1137:1152   */\n      revert\n        /* \"#utility.yul\":1163:1290   */\n    tag_89:\n        /* \"#utility.yul\":1224:1234   */\n      0x4e487b71\n        /* \"#utility.yul\":1219:1222   */\n      0xe0\n        /* \"#utility.yul\":1215:1235   */\n      shl\n        /* \"#utility.yul\":1212:1213   */\n      0x00\n        /* \"#utility.yul\":1205:1236   */\n      mstore\n        /* \"#utility.yul\":1255:1259   */\n      0x11\n        /* \"#utility.yul\":1252:1253   */\n      0x04\n        /* \"#utility.yul\":1245:1260   */\n      mstore\n        /* \"#utility.yul\":1279:1283   */\n      0x24\n        /* \"#utility.yul\":1276:1277   */\n      0x00\n        /* \"#utility.yul\":1269:1284   */\n      revert\n        /* \"#utility.yul\":1295:1420   */\n    tag_40:\n        /* \"#utility.yul\":1360:1369   */\n      dup1\n      dup3\n      add\n        /* \"#utility.yul\":1381:1391   */\n      dup1\n      dup3\n      gt\n        /* \"#utility.yul\":1378:1414   */\n      iszero\n      tag_56\n      jumpi\n        /* \"#utility.yul\":1394:1412   */\n      tag_56\n      tag_89\n      jump\t// in\n        /* \"#utility.yul\":1775:1992   */\n    tag_64:\n        /* \"#utility.yul\":1815:1816   */\n      0x00\n        /* \"#utility.yul\":1841:1842   */\n      dup3\n        /* \"#utility.yul\":1831:1963   */\n      tag_104\n      jumpi\n        /* \"#utility.yul\":1885:1895   */\n      0x4e487b71\n        /* \"#utility.yul\":1880:1883   */\n      0xe0\n        /* \"#utility.yul\":1876:1896   */\n      shl\n        /* \"#utility.yul\":1873:1874   */\n      0x00\n        /* \"#utility.yul\":1866:1897   */\n      mstore\n        /* \"#utility.yul\":1920:1924   */\n      0x12\n        /* \"#utility.yul\":1917:1918   */\n      0x04\n        /* \"#utility.yul\":1910:1925   */\n      mstore\n        /* \"#utility.yul\":1948:1952   */\n      0x24\n        /* \"#utility.yul\":1945:1946   */\n      0x00\n        /* \"#utility.yul\":1938:1953   */\n      revert\n        /* \"#utility.yul\":1831:1963   */\n    tag_104:\n      pop\n        /* \"#utility.yul\":1977:1986   */\n      div\n      swap1\n        /* \"#utility.yul\":1775:1992   */\n      jump\t// out\n        /* \"#utility.yul\":1997:2165   */\n    tag_71:\n        /* \"#utility.yul\":2070:2079   */\n      dup1\n      dup3\n      mul\n        /* \"#utility.yul\":2101:2110   */\n      dup2\n      iszero\n        /* \"#utility.yul\":2118:2133   */\n      dup3\n      dup3\n      div\n        /* \"#utility.yul\":2112:2134   */\n      dup5\n      eq\n        /* \"#utility.yul\":2098:2135   */\n      or\n        /* \"#utility.yul\":2088:2159   */\n      tag_56\n      jumpi\n        /* \"#utility.yul\":2139:2157   */\n      tag_56\n      tag_89\n      jump\t// in\n\n    auxdata: 0xa2646970667358221220d25a0b652778405878b9d62254f9ff91c74148ad33605a574ea57ce00cfa55d964736f6c634300081a0033\n}\n",
				"bytecode": {
					"linkReferences": {},
					"object": "6080604052348015600e575f80fd5b50305f9081526001602052604090206706f05b59d3b2000060048201819055600590910155610397806100405f395ff3fe608060405234801561000f575f80fd5b5060043610610055575f3560e01c8063208c86a414610059578063613f45941461008d5780636a7f4d58146100a3578063b3c740e8146100b6578063dbd3a401146100c9575b5f80fd5b305f90815260016020526040902060048101546005909101545b604080519283526020830191909152015b60405180910390f35b6100955f5481565b604051908152602001610084565b6100736100b13660046102b9565b6100dc565b6100956100c43660046102b9565b61012f565b6100956100d73660046102d9565b6101b8565b5f806100e88385610318565b5f808282546100f79190610318565b90915550610107905084846101c6565b305f9081526001602052604090206005810182905560040182905590925090505b9250929050565b305f90815260016020526040812081906004018360028110610153576101536102f0565b01549050805f036101a25760405162461bcd60e51b81526020600482015260156024820152745f70726963652063616e6e6f74206265207a65726f60581b604482015260640160405180910390fd5b5f6101ad828661032b565b925050505b92915050565b5f815f546101b2919061032b565b5f80806101d38486610318565b9050805f036101f0576706f05b59d3b20000809250925050610128565b5f816101fd87606461034a565b610207919061032b565b90505f8261021687606461034a565b610220919061032b565b9050610250606461023284606361034a565b61023c919061032b565b610247906001610318565b60016064610290565b61026190662386f26fc1000061034a565b9450610273606461023283606361034a565b61028490662386f26fc1000061034a565b93505050509250929050565b5f828410156102a05750816102b2565b818411156102af5750806102b2565b50825b9392505050565b5f80604083850312156102ca575f80fd5b50508035926020909101359150565b5f602082840312156102e9575f80fd5b5035919050565b634e487b7160e01b5f52603260045260245ffd5b634e487b7160e01b5f52601160045260245ffd5b808201808211156101b2576101b2610304565b5f8261034557634e487b7160e01b5f52601260045260245ffd5b500490565b80820281158282048414176101b2576101b261030456fea2646970667358221220d25a0b652778405878b9d62254f9ff91c74148ad33605a574ea57ce00cfa55d964736f6c634300081a0033",
					"opcodes": "PUSH1 0x80 PUSH1 0x40 MSTORE CALLVALUE DUP1 ISZERO PUSH1 0xE JUMPI PUSH0 DUP1 REVERT JUMPDEST POP ADDRESS PUSH0 SWAP1 DUP2 MSTORE PUSH1 0x1 PUSH1 0x20 MSTORE PUSH1 0x40 SWAP1 KECCAK256 PUSH8 0x6F05B59D3B20000 PUSH1 0x4 DUP3 ADD DUP2 SWAP1 SSTORE PUSH1 0x5 SWAP1 SWAP2 ADD SSTORE PUSH2 0x397 DUP1 PUSH2 0x40 PUSH0 CODECOPY PUSH0 RETURN INVALID PUSH1 0x80 PUSH1 0x40 MSTORE CALLVALUE DUP1 ISZERO PUSH2 0xF JUMPI PUSH0 DUP1 REVERT JUMPDEST POP PUSH1 0x4 CALLDATASIZE LT PUSH2 0x55 JUMPI PUSH0 CALLDATALOAD PUSH1 0xE0 SHR DUP1 PUSH4 0x208C86A4 EQ PUSH2 0x59 JUMPI DUP1 PUSH4 0x613F4594 EQ PUSH2 0x8D JUMPI DUP1 PUSH4 0x6A7F4D58 EQ PUSH2 0xA3 JUMPI DUP1 PUSH4 0xB3C740E8 EQ PUSH2 0xB6 JUMPI DUP1 PUSH4 0xDBD3A401 EQ PUSH2 0xC9 JUMPI JUMPDEST PUSH0 DUP1 REVERT JUMPDEST ADDRESS PUSH0 SWAP1 DUP2 MSTORE PUSH1 0x1 PUSH1 0x20 MSTORE PUSH1 0x40 SWAP1 KECCAK256 PUSH1 0x4 DUP2 ADD SLOAD PUSH1 0x5 SWAP1 SWAP2 ADD SLOAD JUMPDEST PUSH1 0x40 DUP1 MLOAD SWAP3 DUP4 MSTORE PUSH1 0x20 DUP4 ADD SWAP2 SWAP1 SWAP2 MSTORE ADD JUMPDEST PUSH1 0x40 MLOAD DUP1 SWAP2 SUB SWAP1 RETURN JUMPDEST PUSH2 0x95 PUSH0 SLOAD DUP2 JUMP JUMPDEST PUSH1 0x40 MLOAD SWAP1 DUP2 MSTORE PUSH1 0x20 ADD PUSH2 0x84 JUMP JUMPDEST PUSH2 0x73 PUSH2 0xB1 CALLDATASIZE PUSH1 0x4 PUSH2 0x2B9 JUMP JUMPDEST PUSH2 0xDC JUMP JUMPDEST PUSH2 0x95 PUSH2 0xC4 CALLDATASIZE PUSH1 0x4 PUSH2 0x2B9 JUMP JUMPDEST PUSH2 0x12F JUMP JUMPDEST PUSH2 0x95 PUSH2 0xD7 CALLDATASIZE PUSH1 0x4 PUSH2 0x2D9 JUMP JUMPDEST PUSH2 0x1B8 JUMP JUMPDEST PUSH0 DUP1 PUSH2 0xE8 DUP4 DUP6 PUSH2 0x318 JUMP JUMPDEST PUSH0 DUP1 DUP3 DUP3 SLOAD PUSH2 0xF7 SWAP2 SWAP1 PUSH2 0x318 JUMP JUMPDEST SWAP1 SWAP2 SSTORE POP PUSH2 0x107 SWAP1 POP DUP5 DUP5 PUSH2 0x1C6 JUMP JUMPDEST ADDRESS PUSH0 SWAP1 DUP2 MSTORE PUSH1 0x1 PUSH1 0x20 MSTORE PUSH1 0x40 SWAP1 KECCAK256 PUSH1 0x5 DUP2 ADD DUP3 SWAP1 SSTORE PUSH1 0x4 ADD DUP3 SWAP1 SSTORE SWAP1 SWAP3 POP SWAP1 POP JUMPDEST SWAP3 POP SWAP3 SWAP1 POP JUMP JUMPDEST ADDRESS PUSH0 SWAP1 DUP2 MSTORE PUSH1 0x1 PUSH1 0x20 MSTORE PUSH1 0x40 DUP2 KECCAK256 DUP2 SWAP1 PUSH1 0x4 ADD DUP4 PUSH1 0x2 DUP2 LT PUSH2 0x153 JUMPI PUSH2 0x153 PUSH2 0x2F0 JUMP JUMPDEST ADD SLOAD SWAP1 POP DUP1 PUSH0 SUB PUSH2 0x1A2 JUMPI PUSH1 0x40 MLOAD PUSH3 0x461BCD PUSH1 0xE5 SHL DUP2 MSTORE PUSH1 0x20 PUSH1 0x4 DUP3 ADD MSTORE PUSH1 0x15 PUSH1 0x24 DUP3 ADD MSTORE PUSH21 0x5F70726963652063616E6E6F74206265207A65726F PUSH1 0x58 SHL PUSH1 0x44 DUP3 ADD MSTORE PUSH1 0x64 ADD PUSH1 0x40 MLOAD DUP1 SWAP2 SUB SWAP1 REVERT JUMPDEST PUSH0 PUSH2 0x1AD DUP3 DUP7 PUSH2 0x32B JUMP JUMPDEST SWAP3 POP POP POP JUMPDEST SWAP3 SWAP2 POP POP JUMP JUMPDEST PUSH0 DUP2 PUSH0 SLOAD PUSH2 0x1B2 SWAP2 SWAP1 PUSH2 0x32B JUMP JUMPDEST PUSH0 DUP1 DUP1 PUSH2 0x1D3 DUP5 DUP7 PUSH2 0x318 JUMP JUMPDEST SWAP1 POP DUP1 PUSH0 SUB PUSH2 0x1F0 JUMPI PUSH8 0x6F05B59D3B20000 DUP1 SWAP3 POP SWAP3 POP POP PUSH2 0x128 JUMP JUMPDEST PUSH0 DUP2 PUSH2 0x1FD DUP8 PUSH1 0x64 PUSH2 0x34A JUMP JUMPDEST PUSH2 0x207 SWAP2 SWAP1 PUSH2 0x32B JUMP JUMPDEST SWAP1 POP PUSH0 DUP3 PUSH2 0x216 DUP8 PUSH1 0x64 PUSH2 0x34A JUMP JUMPDEST PUSH2 0x220 SWAP2 SWAP1 PUSH2 0x32B JUMP JUMPDEST SWAP1 POP PUSH2 0x250 PUSH1 0x64 PUSH2 0x232 DUP5 PUSH1 0x63 PUSH2 0x34A JUMP JUMPDEST PUSH2 0x23C SWAP2 SWAP1 PUSH2 0x32B JUMP JUMPDEST PUSH2 0x247 SWAP1 PUSH1 0x1 PUSH2 0x318 JUMP JUMPDEST PUSH1 0x1 PUSH1 0x64 PUSH2 0x290 JUMP JUMPDEST PUSH2 0x261 SWAP1 PUSH7 0x2386F26FC10000 PUSH2 0x34A JUMP JUMPDEST SWAP5 POP PUSH2 0x273 PUSH1 0x64 PUSH2 0x232 DUP4 PUSH1 0x63 PUSH2 0x34A JUMP JUMPDEST PUSH2 0x284 SWAP1 PUSH7 0x2386F26FC10000 PUSH2 0x34A JUMP JUMPDEST SWAP4 POP POP POP POP SWAP3 POP SWAP3 SWAP1 POP JUMP JUMPDEST PUSH0 DUP3 DUP5 LT ISZERO PUSH2 0x2A0 JUMPI POP DUP2 PUSH2 0x2B2 JUMP JUMPDEST DUP2 DUP5 GT ISZERO PUSH2 0x2AF JUMPI POP DUP1 PUSH2 0x2B2 JUMP JUMPDEST POP DUP3 JUMPDEST SWAP4 SWAP3 POP POP POP JUMP JUMPDEST PUSH0 DUP1 PUSH1 0x40 DUP4 DUP6 SUB SLT ISZERO PUSH2 0x2CA JUMPI PUSH0 DUP1 REVERT JUMPDEST POP POP DUP1 CALLDATALOAD SWAP3 PUSH1 0x20 SWAP1 SWAP2 ADD CALLDATALOAD SWAP2 POP JUMP JUMPDEST PUSH0 PUSH1 0x20 DUP3 DUP5 SUB SLT ISZERO PUSH2 0x2E9 JUMPI PUSH0 DUP1 REVERT JUMPDEST POP CALLDATALOAD SWAP2 SWAP1 POP JUMP JUMPDEST PUSH4 0x4E487B71 PUSH1 0xE0 SHL PUSH0 MSTORE PUSH1 0x32 PUSH1 0x4 MSTORE PUSH1 0x24 PUSH0 REVERT JUMPDEST PUSH4 0x4E487B71 PUSH1 0xE0 SHL PUSH0 MSTORE PUSH1 0x11 PUSH1 0x4 MSTORE PUSH1 0x24 PUSH0 REVERT JUMPDEST DUP1 DUP3 ADD DUP1 DUP3 GT ISZERO PUSH2 0x1B2 JUMPI PUSH2 0x1B2 PUSH2 0x304 JUMP JUMPDEST PUSH0 DUP3 PUSH2 0x345 JUMPI PUSH4 0x4E487B71 PUSH1 0xE0 SHL PUSH0 MSTORE PUSH1 0x12 PUSH1 0x4 MSTORE PUSH1 0x24 PUSH0 REVERT JUMPDEST POP DIV SWAP1 JUMP JUMPDEST DUP1 DUP3 MUL DUP2 ISZERO DUP3 DUP3 DIV DUP5 EQ OR PUSH2 0x1B2 JUMPI PUSH2 0x1B2 PUSH2 0x304 JUMP INVALID LOG2 PUSH5 0x6970667358 0x22 SLT KECCAK256 0xD2 GAS SIGNEXTEND PUSH6 0x2778405878B9 0xD6 0x22 SLOAD 0xF9 SELFDESTRUCT SWAP2 0xC7 COINBASE BASEFEE 0xAD CALLER PUSH1 0x5A JUMPI 0x4E 0xA5 PUSH29 0xE00CFA55D964736F6C634300081A003300000000000000000000000000 "
				},
				"gasEstimates": {
					"creation": {
						"codeDepositCost": "183800",
						"executionCost": "44524",
						"totalCost": "228324"
					},
					"external": {
						"PriceCalculation1(uint256,uint256)": "infinite",
						"calculateShares(uint256,uint256)": "2662",
						"getInitialPrices()": "4459",
						"perPeerson(uint256)": "2518",
						"totalBetAmount()": "2293"
					},
					"internal": {
						"PriceCalculation(uint256,uint256)": "infinite",
						"clamp(uint256,uint256,uint256)": "91"
					}
				},
				"methodIdentifiers": {
					"PriceCalculation1(uint256,uint256)": "6a7f4d58",
					"calculateShares(uint256,uint256)": "b3c740e8",
					"getInitialPrices()": "208c86a4",
					"perPeerson(uint256)": "dbd3a401",
					"totalBetAmount()": "613f4594"
				}
			},
			"storageLayout": {
				"storage": [
					{
						"astId": 956,
						"contract": "WagersWorld/checkPricce.sol:MyToken",
						"label": "totalBetAmount",
						"offset": 0,
						"slot": "0",
						"type": "t_uint256"
					},
					{
						"astId": 961,
						"contract": "WagersWorld/checkPricce.sol:MyToken",
						"label": "marketInfo",
						"offset": 0,
						"slot": "1",
						"type": "t_mapping(t_address,t_struct(MarketInfo)954_storage)"
					}
				],
				"types": {
					"t_address": {
						"encoding": "inplace",
						"label": "address",
						"numberOfBytes": "20"
					},
					"t_array(t_uint256)2_storage": {
						"base": "t_uint256",
						"encoding": "inplace",
						"label": "uint256[2]",
						"numberOfBytes": "64"
					},
					"t_bool": {
						"encoding": "inplace",
						"label": "bool",
						"numberOfBytes": "1"
					},
					"t_mapping(t_address,t_struct(MarketInfo)954_storage)": {
						"encoding": "mapping",
						"key": "t_address",
						"label": "mapping(address => struct MyToken.MarketInfo)",
						"numberOfBytes": "32",
						"value": "t_struct(MarketInfo)954_storage"
					},
					"t_struct(MarketInfo)954_storage": {
						"encoding": "inplace",
						"label": "struct MyToken.MarketInfo",
						"members": [
							{
								"astId": 939,
								"contract": "WagersWorld/checkPricce.sol:MyToken",
								"label": "resolved",
								"offset": 0,
								"slot": "0",
								"type": "t_bool"
							},
							{
								"astId": 941,
								"contract": "WagersWorld/checkPricce.sol:MyToken",
								"label": "endTime",
								"offset": 0,
								"slot": "1",
								"type": "t_uint256"
							},
							{
								"astId": 943,
								"contract": "WagersWorld/checkPricce.sol:MyToken",
								"label": "totalBets",
								"offset": 0,
								"slot": "2",
								"type": "t_uint256"
							},
							{
								"astId": 945,
								"contract": "WagersWorld/checkPricce.sol:MyToken",
								"label": "totalAmount",
								"offset": 0,
								"slot": "3",
								"type": "t_uint256"
							},
							{
								"astId": 949,
								"contract": "WagersWorld/checkPricce.sol:MyToken",
								"label": "initialPrice",
								"offset": 0,
								"slot": "4",
								"type": "t_array(t_uint256)2_storage"
							},
							{
								"astId": 951,
								"contract": "WagersWorld/checkPricce.sol:MyToken",
								"label": "totalBetsOnYes",
								"offset": 0,
								"slot": "6",
								"type": "t_uint256"
							},
							{
								"astId": 953,
								"contract": "WagersWorld/checkPricce.sol:MyToken",
								"label": "totalBetsOnNo",
								"offset": 0,
								"slot": "7",
								"type": "t_uint256"
							}
						],
						"numberOfBytes": "256"
					},
					"t_uint256": {
						"encoding": "inplace",
						"label": "uint256",
						"numberOfBytes": "32"
					}
				}
			},
			"userdoc": {
				"kind": "user",
				"methods": {},
				"version": 1
			}
		}
	}
}