{
	"WagersWorld/checkPricce.sol": {
		"MyToken": {
			"abi": [
				{
					"inputs": [],
					"stateMutability": "nonpayable",
					"type": "constructor"
				},
				{
					"inputs": [
						{
							"internalType": "uint256",
							"name": "totalBetAmountOnNo",
							"type": "uint256"
						},
						{
							"internalType": "uint256",
							"name": "totalBetAmountOnYes",
							"type": "uint256"
						}
					],
					"name": "PriceCalculation1",
					"outputs": [
						{
							"internalType": "uint256",
							"name": "",
							"type": "uint256"
						},
						{
							"internalType": "uint256",
							"name": "",
							"type": "uint256"
						}
					],
					"stateMutability": "nonpayable",
					"type": "function"
				},
				{
					"inputs": [
						{
							"internalType": "uint256",
							"name": "_amount",
							"type": "uint256"
						},
						{
							"internalType": "uint256",
							"name": "_betOn",
							"type": "uint256"
						}
					],
					"name": "calculateShares",
					"outputs": [
						{
							"internalType": "uint256",
							"name": "",
							"type": "uint256"
						}
					],
					"stateMutability": "view",
					"type": "function"
				},
				{
					"inputs": [],
					"name": "getInitialPrices",
					"outputs": [
						{
							"internalType": "uint256",
							"name": "",
							"type": "uint256"
						},
						{
							"internalType": "uint256",
							"name": "",
							"type": "uint256"
						}
					],
					"stateMutability": "view",
					"type": "function"
				},
				{
					"inputs": [
						{
							"internalType": "uint256",
							"name": "totalWinnerShare",
							"type": "uint256"
						},
						{
							"internalType": "uint256",
							"name": "userShareAmount",
							"type": "uint256"
						}
					],
					"name": "perPeerson",
					"outputs": [
						{
							"internalType": "uint256",
							"name": "_perShare",
							"type": "uint256"
						},
						{
							"internalType": "uint256",
							"name": "userTotalAmount",
							"type": "uint256"
						}
					],
					"stateMutability": "view",
					"type": "function"
				},
				{
					"inputs": [],
					"name": "totalBetAmount",
					"outputs": [
						{
							"internalType": "uint256",
							"name": "",
							"type": "uint256"
						}
					],
					"stateMutability": "view",
					"type": "function"
				}
			],
			"devdoc": {
				"kind": "dev",
				"methods": {},
				"version": 1
			},
			"evm": {
				"assembly": "    /* \"WagersWorld/checkPricce.sol\":218:2857  contract MyToken  {... */\n  mstore(0x40, 0x80)\n    /* \"WagersWorld/checkPricce.sol\":561:708  constructor(){... */\n  callvalue\n  dup1\n  iszero\n  tag_1\n  jumpi\n  0x00\n  dup1\n  revert\ntag_1:\n  pop\n    /* \"WagersWorld/checkPricce.sol\":604:608  this */\n  address\n    /* \"WagersWorld/checkPricce.sol\":585:610  marketInfo[address(this)] */\n  0x00\n  swap1\n  dup2\n  mstore\n    /* \"WagersWorld/checkPricce.sol\":585:595  marketInfo */\n  0x01\n    /* \"WagersWorld/checkPricce.sol\":585:610  marketInfo[address(this)] */\n  0x20\n  mstore\n  0x40\n  swap1\n  keccak256\n    /* \"WagersWorld/checkPricce.sol\":629:638  0.5 ether */\n  0x06f05b59d3b20000\n    /* \"WagersWorld/checkPricce.sol\":585:623  marketInfo[address(this)].initialPrice */\n  0x04\n  dup3\n  add\n    /* \"WagersWorld/checkPricce.sol\":585:638  marketInfo[address(this)].initialPrice[0] = 0.5 ether */\n  dup2\n  swap1\n  sstore\n    /* \"WagersWorld/checkPricce.sol\":648:689  marketInfo[address(this)].initialPrice[1] */\n  0x05\n  swap1\n  swap2\n  add\n    /* \"WagersWorld/checkPricce.sol\":648:701  marketInfo[address(this)].initialPrice[1] = 0.5 ether */\n  sstore\n    /* \"WagersWorld/checkPricce.sol\":218:2857  contract MyToken  {... */\n  dataSize(sub_0)\n  dup1\n  dataOffset(sub_0)\n  0x00\n  codecopy\n  0x00\n  return\nstop\n\nsub_0: assembly {\n        /* \"WagersWorld/checkPricce.sol\":218:2857  contract MyToken  {... */\n      mstore(0x40, 0x80)\n      callvalue\n      dup1\n      iszero\n      tag_1\n      jumpi\n      0x00\n      dup1\n      revert\n    tag_1:\n      pop\n      jumpi(tag_2, lt(calldatasize, 0x04))\n      shr(0xe0, calldataload(0x00))\n      dup1\n      0x208c86a4\n      eq\n      tag_3\n      jumpi\n      dup1\n      0x22be77f0\n      eq\n      tag_4\n      jumpi\n      dup1\n      0x613f4594\n      eq\n      tag_5\n      jumpi\n      dup1\n      0x6a7f4d58\n      eq\n      tag_6\n      jumpi\n      dup1\n      0xb3c740e8\n      eq\n      tag_7\n      jumpi\n    tag_2:\n      0x00\n      dup1\n      revert\n        /* \"WagersWorld/checkPricce.sol\":2096:2273  function getInitialPrices() public view returns (uint256, uint256) {... */\n    tag_3:\n        /* \"WagersWorld/checkPricce.sol\":2200:2204  this */\n      address\n        /* \"WagersWorld/checkPricce.sol\":2145:2152  uint256 */\n      0x00\n        /* \"WagersWorld/checkPricce.sol\":2181:2206  marketInfo[address(this)] */\n      swap1\n      dup2\n      mstore\n        /* \"WagersWorld/checkPricce.sol\":2181:2191  marketInfo */\n      0x01\n        /* \"WagersWorld/checkPricce.sol\":2181:2206  marketInfo[address(this)] */\n      0x20\n      mstore\n      0x40\n      swap1\n      keccak256\n        /* \"WagersWorld/checkPricce.sol\":2181:2219  marketInfo[address(this)].initialPrice */\n      0x04\n      dup2\n      add\n        /* \"WagersWorld/checkPricce.sol\":2181:2222  marketInfo[address(this)].initialPrice[0] */\n      sload\n        /* \"WagersWorld/checkPricce.sol\":2224:2265  marketInfo[address(this)].initialPrice[1] */\n      0x05\n      swap1\n      swap2\n      add\n      sload\n        /* \"WagersWorld/checkPricce.sol\":2096:2273  function getInitialPrices() public view returns (uint256, uint256) {... */\n    tag_8:\n      0x40\n      dup1\n      mload\n        /* \"#utility.yul\":188:213   */\n      swap3\n      dup4\n      mstore\n        /* \"#utility.yul\":244:246   */\n      0x20\n        /* \"#utility.yul\":229:247   */\n      dup4\n      add\n        /* \"#utility.yul\":222:256   */\n      swap2\n      swap1\n      swap2\n      mstore\n        /* \"#utility.yul\":161:179   */\n      add\n        /* \"WagersWorld/checkPricce.sol\":2096:2273  function getInitialPrices() public view returns (uint256, uint256) {... */\n    tag_10:\n      mload(0x40)\n      dup1\n      swap2\n      sub\n      swap1\n      return\n        /* \"WagersWorld/checkPricce.sol\":2279:2541  function perPeerson( uint256 totalWinnerShare, uint256 userShareAmount ) view external returns (uint256 _perShare, uint256 userTotalAmount ){... */\n    tag_4:\n      tag_8\n      tag_13\n      calldatasize\n      0x04\n      tag_14\n      jump\t// in\n    tag_13:\n      tag_15\n      jump\t// in\n        /* \"WagersWorld/checkPricce.sol\":475:504  uint256 public totalBetAmount */\n    tag_5:\n      tag_17\n      sload(0x00)\n      dup2\n      jump\n    tag_17:\n      mload(0x40)\n        /* \"#utility.yul\":764:789   */\n      swap1\n      dup2\n      mstore\n        /* \"#utility.yul\":752:754   */\n      0x20\n        /* \"#utility.yul\":737:755   */\n      add\n        /* \"WagersWorld/checkPricce.sol\":475:504  uint256 public totalBetAmount */\n      tag_10\n        /* \"#utility.yul\":618:795   */\n      jump\n        /* \"WagersWorld/checkPricce.sol\":715:1202  function PriceCalculation1(uint256 totalBetAmountOnNo, uint256 totalBetAmountOnYes) public returns(uint256, uint256){... */\n    tag_6:\n      tag_8\n      tag_22\n      calldatasize\n      0x04\n      tag_14\n      jump\t// in\n    tag_22:\n      tag_23\n      jump\t// in\n        /* \"WagersWorld/checkPricce.sol\":2548:2855  function calculateShares(uint256 _amount, uint256 _betOn ) public view returns (uint256) {... */\n    tag_7:\n      tag_17\n      tag_26\n      calldatasize\n      0x04\n      tag_14\n      jump\t// in\n    tag_26:\n      tag_27\n      jump\t// in\n        /* \"WagersWorld/checkPricce.sol\":2279:2541  function perPeerson( uint256 totalWinnerShare, uint256 userShareAmount ) view external returns (uint256 _perShare, uint256 userTotalAmount ){... */\n    tag_15:\n        /* \"WagersWorld/checkPricce.sol\":2375:2392  uint256 _perShare */\n      0x00\n        /* \"WagersWorld/checkPricce.sol\":2394:2417  uint256 userTotalAmount */\n      dup1\n        /* \"WagersWorld/checkPricce.sol\":2460:2476  totalWinnerShare */\n      dup4\n        /* \"WagersWorld/checkPricce.sol\":2443:2457  totalBetAmount */\n      sload(0x00)\n        /* \"WagersWorld/checkPricce.sol\":2443:2476  totalBetAmount / totalWinnerShare */\n      tag_38\n      swap2\n      swap1\n      tag_39\n      jump\t// in\n    tag_38:\n        /* \"WagersWorld/checkPricce.sol\":2431:2476  _perShare = totalBetAmount / totalWinnerShare */\n      swap2\n      pop\n        /* \"WagersWorld/checkPricce.sol\":2507:2534  userShareAmount * _perShare */\n      tag_40\n        /* \"WagersWorld/checkPricce.sol\":2431:2476  _perShare = totalBetAmount / totalWinnerShare */\n      dup3\n        /* \"WagersWorld/checkPricce.sol\":2507:2522  userShareAmount */\n      dup5\n        /* \"WagersWorld/checkPricce.sol\":2507:2534  userShareAmount * _perShare */\n      tag_41\n      jump\t// in\n    tag_40:\n        /* \"WagersWorld/checkPricce.sol\":2489:2534  userTotalAmount = userShareAmount * _perShare */\n      swap1\n      pop\n        /* \"WagersWorld/checkPricce.sol\":2279:2541  function perPeerson( uint256 totalWinnerShare, uint256 userShareAmount ) view external returns (uint256 _perShare, uint256 userTotalAmount ){... */\n      swap3\n      pop\n      swap3\n      swap1\n      pop\n      jump\t// out\n        /* \"WagersWorld/checkPricce.sol\":715:1202  function PriceCalculation1(uint256 totalBetAmountOnNo, uint256 totalBetAmountOnYes) public returns(uint256, uint256){... */\n    tag_23:\n        /* \"WagersWorld/checkPricce.sol\":814:821  uint256 */\n      0x00\n      dup1\n        /* \"WagersWorld/checkPricce.sol\":869:909  totalBetAmountOnNo + totalBetAmountOnYes */\n      tag_43\n        /* \"WagersWorld/checkPricce.sol\":890:909  totalBetAmountOnYes */\n      dup4\n        /* \"WagersWorld/checkPricce.sol\":869:887  totalBetAmountOnNo */\n      dup6\n        /* \"WagersWorld/checkPricce.sol\":869:909  totalBetAmountOnNo + totalBetAmountOnYes */\n      tag_44\n      jump\t// in\n    tag_43:\n        /* \"WagersWorld/checkPricce.sol\":851:865  totalBetAmount */\n      0x00\n      dup1\n        /* \"WagersWorld/checkPricce.sol\":851:909  totalBetAmount += totalBetAmountOnNo + totalBetAmountOnYes */\n      dup3\n      dup3\n      sload\n      tag_45\n      swap2\n      swap1\n      tag_44\n      jump\t// in\n    tag_45:\n      swap1\n      swap2\n      sstore\n      pop\n        /* \"WagersWorld/checkPricce.sol\":1031:1088  PriceCalculation(totalBetAmountOnNo, totalBetAmountOnYes) */\n      tag_46\n      swap1\n      pop\n        /* \"WagersWorld/checkPricce.sol\":1048:1066  totalBetAmountOnNo */\n      dup5\n        /* \"WagersWorld/checkPricce.sol\":1068:1087  totalBetAmountOnYes */\n      dup5\n        /* \"WagersWorld/checkPricce.sol\":1031:1047  PriceCalculation */\n      tag_47\n        /* \"WagersWorld/checkPricce.sol\":1031:1088  PriceCalculation(totalBetAmountOnNo, totalBetAmountOnYes) */\n      jump\t// in\n    tag_46:\n        /* \"WagersWorld/checkPricce.sol\":950:954  this */\n      address\n        /* \"WagersWorld/checkPricce.sol\":931:956  marketInfo[address(this)] */\n      0x00\n      swap1\n      dup2\n      mstore\n        /* \"WagersWorld/checkPricce.sol\":931:941  marketInfo */\n      0x01\n        /* \"WagersWorld/checkPricce.sol\":931:956  marketInfo[address(this)] */\n      0x20\n      mstore\n      0x40\n      swap1\n      keccak256\n        /* \"WagersWorld/checkPricce.sol\":973:1014  marketInfo[address(this)].initialPrice[1] */\n      0x05\n      dup2\n      add\n        /* \"WagersWorld/checkPricce.sol\":930:1088  (marketInfo[address(this)].initialPrice[0],marketInfo[address(this)].initialPrice[1]) = ... */\n      dup3\n      swap1\n      sstore\n        /* \"WagersWorld/checkPricce.sol\":931:969  marketInfo[address(this)].initialPrice */\n      0x04\n      add\n        /* \"WagersWorld/checkPricce.sol\":930:1088  (marketInfo[address(this)].initialPrice[0],marketInfo[address(this)].initialPrice[1]) = ... */\n      dup3\n      swap1\n      sstore\n      swap1\n      swap3\n      pop\n      swap1\n      pop\n        /* \"WagersWorld/checkPricce.sol\":715:1202  function PriceCalculation1(uint256 totalBetAmountOnNo, uint256 totalBetAmountOnYes) public returns(uint256, uint256){... */\n    tag_42:\n      swap3\n      pop\n      swap3\n      swap1\n      pop\n      jump\t// out\n        /* \"WagersWorld/checkPricce.sol\":2548:2855  function calculateShares(uint256 _amount, uint256 _betOn ) public view returns (uint256) {... */\n    tag_27:\n        /* \"WagersWorld/checkPricce.sol\":2684:2688  this */\n      address\n        /* \"WagersWorld/checkPricce.sol\":2628:2635  uint256 */\n      0x00\n        /* \"WagersWorld/checkPricce.sol\":2665:2690  marketInfo[address(this)] */\n      swap1\n      dup2\n      mstore\n        /* \"WagersWorld/checkPricce.sol\":2665:2675  marketInfo */\n      0x01\n        /* \"WagersWorld/checkPricce.sol\":2665:2690  marketInfo[address(this)] */\n      0x20\n      mstore\n      0x40\n      dup2\n      keccak256\n        /* \"WagersWorld/checkPricce.sol\":2628:2635  uint256 */\n      dup2\n      swap1\n        /* \"WagersWorld/checkPricce.sol\":2665:2703  marketInfo[address(this)].initialPrice */\n      0x04\n      add\n        /* \"WagersWorld/checkPricce.sol\":2704:2710  _betOn */\n      dup4\n        /* \"WagersWorld/checkPricce.sol\":2665:2711  marketInfo[address(this)].initialPrice[_betOn] */\n      0x02\n      dup2\n      lt\n      tag_62\n      jumpi\n      tag_62\n      tag_32\n      jump\t// in\n    tag_62:\n      add\n      sload\n        /* \"WagersWorld/checkPricce.sol\":2648:2711  uint256 price =  marketInfo[address(this)].initialPrice[_betOn] */\n      swap1\n      pop\n        /* \"WagersWorld/checkPricce.sol\":2738:2743  price */\n      dup1\n        /* \"WagersWorld/checkPricce.sol\":2747:2748  0 */\n      0x00\n        /* \"WagersWorld/checkPricce.sol\":2738:2748  price != 0 */\n      sub\n        /* \"WagersWorld/checkPricce.sol\":2730:2774  require(price != 0, \"_price cannot be zero\") */\n      tag_64\n      jumpi\n      mload(0x40)\n      shl(0xe5, 0x461bcd)\n      dup2\n      mstore\n        /* \"#utility.yul\":1791:1793   */\n      0x20\n        /* \"WagersWorld/checkPricce.sol\":2730:2774  require(price != 0, \"_price cannot be zero\") */\n      0x04\n      dup3\n      add\n        /* \"#utility.yul\":1773:1794   */\n      mstore\n        /* \"#utility.yul\":1830:1832   */\n      0x15\n        /* \"#utility.yul\":1810:1828   */\n      0x24\n      dup3\n      add\n        /* \"#utility.yul\":1803:1833   */\n      mstore\n      shl(0x58, 0x5f70726963652063616e6e6f74206265207a65726f)\n        /* \"#utility.yul\":1849:1867   */\n      0x44\n      dup3\n      add\n        /* \"#utility.yul\":1842:1893   */\n      mstore\n        /* \"#utility.yul\":1910:1928   */\n      0x64\n      add\n        /* \"WagersWorld/checkPricce.sol\":2730:2774  require(price != 0, \"_price cannot be zero\") */\n      mload(0x40)\n      dup1\n      swap2\n      sub\n      swap1\n      revert\n    tag_64:\n        /* \"WagersWorld/checkPricce.sol\":2784:2798  uint256 result */\n      0x00\n        /* \"WagersWorld/checkPricce.sol\":2801:2816  _amount / price */\n      tag_67\n        /* \"WagersWorld/checkPricce.sol\":2811:2816  price */\n      dup3\n        /* \"WagersWorld/checkPricce.sol\":2801:2808  _amount */\n      dup7\n        /* \"WagersWorld/checkPricce.sol\":2801:2816  _amount / price */\n      tag_39\n      jump\t// in\n    tag_67:\n        /* \"WagersWorld/checkPricce.sol\":2784:2816  uint256 result = _amount / price */\n      swap3\n      pop\n      pop\n      pop\n        /* \"WagersWorld/checkPricce.sol\":2548:2855  function calculateShares(uint256 _amount, uint256 _betOn ) public view returns (uint256) {... */\n    tag_60:\n      swap3\n      swap2\n      pop\n      pop\n      jump\t// out\n        /* \"WagersWorld/checkPricce.sol\":1209:1854  function PriceCalculation(uint256 _totalBetAmountOnNo, uint256 _totalBetAmountOnYes) private pure returns (uint256 noSharePrice, uint256 yesSharePrice) {... */\n    tag_47:\n        /* \"WagersWorld/checkPricce.sol\":1316:1336  uint256 noSharePrice */\n      0x00\n      dup1\n      dup1\n        /* \"WagersWorld/checkPricce.sol\":1391:1433  _totalBetAmountOnNo + _totalBetAmountOnYes */\n      tag_69\n        /* \"WagersWorld/checkPricce.sol\":1413:1433  _totalBetAmountOnYes */\n      dup5\n        /* \"WagersWorld/checkPricce.sol\":1391:1410  _totalBetAmountOnNo */\n      dup7\n        /* \"WagersWorld/checkPricce.sol\":1391:1433  _totalBetAmountOnNo + _totalBetAmountOnYes */\n      tag_44\n      jump\t// in\n    tag_69:\n        /* \"WagersWorld/checkPricce.sol\":1371:1433  uint256 _totalBet = _totalBetAmountOnNo + _totalBetAmountOnYes */\n      swap1\n      pop\n        /* \"WagersWorld/checkPricce.sol\":1447:1456  _totalBet */\n      dup1\n        /* \"WagersWorld/checkPricce.sol\":1460:1461  0 */\n      0x00\n        /* \"WagersWorld/checkPricce.sol\":1447:1461  _totalBet == 0 */\n      sub\n        /* \"WagersWorld/checkPricce.sol\":1443:1562  if (_totalBet == 0) {... */\n      tag_70\n      jumpi\n        /* \"WagersWorld/checkPricce.sol\":1485:1494  0.5 ether */\n      0x06f05b59d3b20000\n        /* \"WagersWorld/checkPricce.sol\":1496:1505  0.5 ether */\n      dup1\n        /* \"WagersWorld/checkPricce.sol\":1477:1506  return (0.5 ether, 0.5 ether) */\n      swap3\n      pop\n      swap3\n      pop\n      pop\n      jump(tag_42)\n        /* \"WagersWorld/checkPricce.sol\":1443:1562  if (_totalBet == 0) {... */\n    tag_70:\n        /* \"WagersWorld/checkPricce.sol\":1572:1587  uint256 noRatio */\n      0x00\n        /* \"WagersWorld/checkPricce.sol\":1620:1629  _totalBet */\n      dup2\n        /* \"WagersWorld/checkPricce.sol\":1591:1616  _totalBetAmountOnNo * 100 */\n      tag_71\n        /* \"WagersWorld/checkPricce.sol\":1591:1610  _totalBetAmountOnNo */\n      dup8\n        /* \"WagersWorld/checkPricce.sol\":1613:1616  100 */\n      0x64\n        /* \"WagersWorld/checkPricce.sol\":1591:1616  _totalBetAmountOnNo * 100 */\n      tag_41\n      jump\t// in\n    tag_71:\n        /* \"WagersWorld/checkPricce.sol\":1590:1629  (_totalBetAmountOnNo * 100) / _totalBet */\n      tag_72\n      swap2\n      swap1\n      tag_39\n      jump\t// in\n    tag_72:\n        /* \"WagersWorld/checkPricce.sol\":1572:1629  uint256 noRatio = (_totalBetAmountOnNo * 100) / _totalBet */\n      swap1\n      pop\n        /* \"WagersWorld/checkPricce.sol\":1639:1655  uint256 yesRatio */\n      0x00\n        /* \"WagersWorld/checkPricce.sol\":1689:1698  _totalBet */\n      dup3\n        /* \"WagersWorld/checkPricce.sol\":1659:1685  _totalBetAmountOnYes * 100 */\n      tag_73\n        /* \"WagersWorld/checkPricce.sol\":1659:1679  _totalBetAmountOnYes */\n      dup8\n        /* \"WagersWorld/checkPricce.sol\":1682:1685  100 */\n      0x64\n        /* \"WagersWorld/checkPricce.sol\":1659:1685  _totalBetAmountOnYes * 100 */\n      tag_41\n      jump\t// in\n    tag_73:\n        /* \"WagersWorld/checkPricce.sol\":1658:1698  (_totalBetAmountOnYes * 100) / _totalBet */\n      tag_74\n      swap2\n      swap1\n      tag_39\n      jump\t// in\n    tag_74:\n        /* \"WagersWorld/checkPricce.sol\":1639:1698  uint256 yesRatio = (_totalBetAmountOnYes * 100) / _totalBet */\n      swap1\n      pop\n        /* \"WagersWorld/checkPricce.sol\":1724:1765  clamp(((noRatio * 99) / 100) + 1, 1, 100) */\n      tag_75\n        /* \"WagersWorld/checkPricce.sol\":1748:1751  100 */\n      0x64\n        /* \"WagersWorld/checkPricce.sol\":1732:1744  noRatio * 99 */\n      tag_76\n        /* \"WagersWorld/checkPricce.sol\":1732:1739  noRatio */\n      dup5\n        /* \"WagersWorld/checkPricce.sol\":1742:1744  99 */\n      0x63\n        /* \"WagersWorld/checkPricce.sol\":1732:1744  noRatio * 99 */\n      tag_41\n      jump\t// in\n    tag_76:\n        /* \"WagersWorld/checkPricce.sol\":1731:1751  (noRatio * 99) / 100 */\n      tag_77\n      swap2\n      swap1\n      tag_39\n      jump\t// in\n    tag_77:\n        /* \"WagersWorld/checkPricce.sol\":1730:1756  ((noRatio * 99) / 100) + 1 */\n      tag_78\n      swap1\n        /* \"WagersWorld/checkPricce.sol\":1755:1756  1 */\n      0x01\n        /* \"WagersWorld/checkPricce.sol\":1730:1756  ((noRatio * 99) / 100) + 1 */\n      tag_44\n      jump\t// in\n    tag_78:\n        /* \"WagersWorld/checkPricce.sol\":1758:1759  1 */\n      0x01\n        /* \"WagersWorld/checkPricce.sol\":1761:1764  100 */\n      0x64\n        /* \"WagersWorld/checkPricce.sol\":1724:1729  clamp */\n      tag_79\n        /* \"WagersWorld/checkPricce.sol\":1724:1765  clamp(((noRatio * 99) / 100) + 1, 1, 100) */\n      jump\t// in\n    tag_75:\n        /* \"WagersWorld/checkPricce.sol\":1724:1772  clamp(((noRatio * 99) / 100) + 1, 1, 100) * 1e16 */\n      tag_80\n      swap1\n        /* \"WagersWorld/checkPricce.sol\":1768:1772  1e16 */\n      0x2386f26fc10000\n        /* \"WagersWorld/checkPricce.sol\":1724:1772  clamp(((noRatio * 99) / 100) + 1, 1, 100) * 1e16 */\n      tag_41\n      jump\t// in\n    tag_80:\n        /* \"WagersWorld/checkPricce.sol\":1709:1772  noSharePrice = clamp(((noRatio * 99) / 100) + 1, 1, 100) * 1e16 */\n      swap5\n      pop\n        /* \"WagersWorld/checkPricce.sol\":1798:1840  clamp(((yesRatio * 99) / 100) + 1, 1, 100) */\n      tag_81\n        /* \"WagersWorld/checkPricce.sol\":1823:1826  100 */\n      0x64\n        /* \"WagersWorld/checkPricce.sol\":1806:1819  yesRatio * 99 */\n      tag_76\n        /* \"WagersWorld/checkPricce.sol\":1806:1814  yesRatio */\n      dup4\n        /* \"WagersWorld/checkPricce.sol\":1817:1819  99 */\n      0x63\n        /* \"WagersWorld/checkPricce.sol\":1806:1819  yesRatio * 99 */\n      tag_41\n      jump\t// in\n        /* \"WagersWorld/checkPricce.sol\":1798:1840  clamp(((yesRatio * 99) / 100) + 1, 1, 100) */\n    tag_81:\n        /* \"WagersWorld/checkPricce.sol\":1798:1847  clamp(((yesRatio * 99) / 100) + 1, 1, 100) * 1e16 */\n      tag_85\n      swap1\n        /* \"WagersWorld/checkPricce.sol\":1843:1847  1e16 */\n      0x2386f26fc10000\n        /* \"WagersWorld/checkPricce.sol\":1798:1847  clamp(((yesRatio * 99) / 100) + 1, 1, 100) * 1e16 */\n      tag_41\n      jump\t// in\n    tag_85:\n        /* \"WagersWorld/checkPricce.sol\":1782:1847  yesSharePrice = clamp(((yesRatio * 99) / 100) + 1, 1, 100) * 1e16 */\n      swap4\n      pop\n        /* \"WagersWorld/checkPricce.sol\":1361:1854  {... */\n      pop\n      pop\n      pop\n        /* \"WagersWorld/checkPricce.sol\":1209:1854  function PriceCalculation(uint256 _totalBetAmountOnNo, uint256 _totalBetAmountOnYes) private pure returns (uint256 noSharePrice, uint256 yesSharePrice) {... */\n      swap3\n      pop\n      swap3\n      swap1\n      pop\n      jump\t// out\n        /* \"WagersWorld/checkPricce.sol\":1899:2090  function clamp(uint256 value, uint256 min, uint256 max) internal pure returns (uint256) {... */\n    tag_79:\n        /* \"WagersWorld/checkPricce.sol\":1978:1985  uint256 */\n      0x00\n        /* \"WagersWorld/checkPricce.sol\":2009:2012  min */\n      dup3\n        /* \"WagersWorld/checkPricce.sol\":2001:2006  value */\n      dup5\n        /* \"WagersWorld/checkPricce.sol\":2001:2012  value < min */\n      lt\n        /* \"WagersWorld/checkPricce.sol\":1997:2024  if (value < min) return min */\n      iszero\n      tag_87\n      jumpi\n      pop\n        /* \"WagersWorld/checkPricce.sol\":2021:2024  min */\n      dup2\n        /* \"WagersWorld/checkPricce.sol\":2014:2024  return min */\n      jump(tag_86)\n        /* \"WagersWorld/checkPricce.sol\":1997:2024  if (value < min) return min */\n    tag_87:\n        /* \"WagersWorld/checkPricce.sol\":2046:2049  max */\n      dup2\n        /* \"WagersWorld/checkPricce.sol\":2038:2043  value */\n      dup5\n        /* \"WagersWorld/checkPricce.sol\":2038:2049  value > max */\n      gt\n        /* \"WagersWorld/checkPricce.sol\":2034:2061  if (value > max) return max */\n      iszero\n      tag_88\n      jumpi\n      pop\n        /* \"WagersWorld/checkPricce.sol\":2058:2061  max */\n      dup1\n        /* \"WagersWorld/checkPricce.sol\":2051:2061  return max */\n      jump(tag_86)\n        /* \"WagersWorld/checkPricce.sol\":2034:2061  if (value > max) return max */\n    tag_88:\n      pop\n        /* \"WagersWorld/checkPricce.sol\":2078:2083  value */\n      dup3\n        /* \"WagersWorld/checkPricce.sol\":1899:2090  function clamp(uint256 value, uint256 min, uint256 max) internal pure returns (uint256) {... */\n    tag_86:\n      swap4\n      swap3\n      pop\n      pop\n      pop\n      jump\t// out\n        /* \"#utility.yul\":267:613   */\n    tag_14:\n        /* \"#utility.yul\":335:341   */\n      0x00\n        /* \"#utility.yul\":343:349   */\n      dup1\n        /* \"#utility.yul\":396:398   */\n      0x40\n        /* \"#utility.yul\":384:393   */\n      dup4\n        /* \"#utility.yul\":375:382   */\n      dup6\n        /* \"#utility.yul\":371:394   */\n      sub\n        /* \"#utility.yul\":367:399   */\n      slt\n        /* \"#utility.yul\":364:416   */\n      iszero\n      tag_93\n      jumpi\n        /* \"#utility.yul\":412:413   */\n      0x00\n        /* \"#utility.yul\":409:410   */\n      dup1\n        /* \"#utility.yul\":402:414   */\n      revert\n        /* \"#utility.yul\":364:416   */\n    tag_93:\n      pop\n      pop\n        /* \"#utility.yul\":457:480   */\n      dup1\n      calldataload\n      swap3\n        /* \"#utility.yul\":577:579   */\n      0x20\n        /* \"#utility.yul\":562:580   */\n      swap1\n      swap2\n      add\n        /* \"#utility.yul\":549:581   */\n      calldataload\n      swap2\n      pop\n        /* \"#utility.yul\":267:613   */\n      jump\t// out\n        /* \"#utility.yul\":800:927   */\n    tag_32:\n        /* \"#utility.yul\":861:871   */\n      0x4e487b71\n        /* \"#utility.yul\":856:859   */\n      0xe0\n        /* \"#utility.yul\":852:872   */\n      shl\n        /* \"#utility.yul\":849:850   */\n      0x00\n        /* \"#utility.yul\":842:873   */\n      mstore\n        /* \"#utility.yul\":892:896   */\n      0x32\n        /* \"#utility.yul\":889:890   */\n      0x04\n        /* \"#utility.yul\":882:897   */\n      mstore\n        /* \"#utility.yul\":916:920   */\n      0x24\n        /* \"#utility.yul\":913:914   */\n      0x00\n        /* \"#utility.yul\":906:921   */\n      revert\n        /* \"#utility.yul\":932:1059   */\n    tag_89:\n        /* \"#utility.yul\":993:1003   */\n      0x4e487b71\n        /* \"#utility.yul\":988:991   */\n      0xe0\n        /* \"#utility.yul\":984:1004   */\n      shl\n        /* \"#utility.yul\":981:982   */\n      0x00\n        /* \"#utility.yul\":974:1005   */\n      mstore\n        /* \"#utility.yul\":1024:1028   */\n      0x11\n        /* \"#utility.yul\":1021:1022   */\n      0x04\n        /* \"#utility.yul\":1014:1029   */\n      mstore\n        /* \"#utility.yul\":1048:1052   */\n      0x24\n        /* \"#utility.yul\":1045:1046   */\n      0x00\n        /* \"#utility.yul\":1038:1053   */\n      revert\n        /* \"#utility.yul\":1064:1281   */\n    tag_39:\n        /* \"#utility.yul\":1104:1105   */\n      0x00\n        /* \"#utility.yul\":1130:1131   */\n      dup3\n        /* \"#utility.yul\":1120:1252   */\n      tag_98\n      jumpi\n        /* \"#utility.yul\":1174:1184   */\n      0x4e487b71\n        /* \"#utility.yul\":1169:1172   */\n      0xe0\n        /* \"#utility.yul\":1165:1185   */\n      shl\n        /* \"#utility.yul\":1162:1163   */\n      0x00\n        /* \"#utility.yul\":1155:1186   */\n      mstore\n        /* \"#utility.yul\":1209:1213   */\n      0x12\n        /* \"#utility.yul\":1206:1207   */\n      0x04\n        /* \"#utility.yul\":1199:1214   */\n      mstore\n        /* \"#utility.yul\":1237:1241   */\n      0x24\n        /* \"#utility.yul\":1234:1235   */\n      0x00\n        /* \"#utility.yul\":1227:1242   */\n      revert\n        /* \"#utility.yul\":1120:1252   */\n    tag_98:\n      pop\n        /* \"#utility.yul\":1266:1275   */\n      div\n      swap1\n        /* \"#utility.yul\":1064:1281   */\n      jump\t// out\n        /* \"#utility.yul\":1286:1454   */\n    tag_41:\n        /* \"#utility.yul\":1359:1368   */\n      dup1\n      dup3\n      mul\n        /* \"#utility.yul\":1390:1399   */\n      dup2\n      iszero\n        /* \"#utility.yul\":1407:1422   */\n      dup3\n      dup3\n      div\n        /* \"#utility.yul\":1401:1423   */\n      dup5\n      eq\n        /* \"#utility.yul\":1387:1424   */\n      or\n        /* \"#utility.yul\":1377:1448   */\n      tag_60\n      jumpi\n        /* \"#utility.yul\":1428:1446   */\n      tag_60\n      tag_89\n      jump\t// in\n        /* \"#utility.yul\":1459:1584   */\n    tag_44:\n        /* \"#utility.yul\":1524:1533   */\n      dup1\n      dup3\n      add\n        /* \"#utility.yul\":1545:1555   */\n      dup1\n      dup3\n      gt\n        /* \"#utility.yul\":1542:1578   */\n      iszero\n      tag_60\n      jumpi\n        /* \"#utility.yul\":1558:1576   */\n      tag_60\n      tag_89\n      jump\t// in\n\n    auxdata: 0xa264697066735822122078d52d38fb9ac26ac847102ed30d75d8c501614e164461f13369c225ab87348064736f6c634300081a0033\n}\n",
				"bytecode": {
					"linkReferences": {},
					"object": "6080604052348015600e575f80fd5b50305f9081526001602052604090206706f05b59d3b2000060048201819055600590910155610396806100405f395ff3fe608060405234801561000f575f80fd5b5060043610610055575f3560e01c8063208c86a41461005957806322be77f01461008d578063613f4594146100a05780636a7f4d58146100b6578063b3c740e8146100c9575b5f80fd5b305f90815260016020526040902060048101546005909101545b604080519283526020830191909152015b60405180910390f35b61007361009b3660046102cf565b6100dc565b6100a85f5481565b604051908152602001610084565b6100736100c43660046102cf565b610100565b6100a86100d73660046102cf565b610153565b5f80835f546100eb9190610317565b91506100f78284610336565b90509250929050565b5f8061010c838561034d565b5f8082825461011b919061034d565b9091555061012b905084846101dc565b305f9081526001602052604090206005810182905560040182905590925090505b9250929050565b305f90815260016020526040812081906004018360028110610177576101776102ef565b01549050805f036101c65760405162461bcd60e51b81526020600482015260156024820152745f70726963652063616e6e6f74206265207a65726f60581b604482015260640160405180910390fd5b5f6101d18286610317565b925050505b92915050565b5f80806101e9848661034d565b9050805f03610206576706f05b59d3b2000080925092505061014c565b5f81610213876064610336565b61021d9190610317565b90505f8261022c876064610336565b6102369190610317565b90506102666064610248846063610336565b6102529190610317565b61025d90600161034d565b600160646102a6565b61027790662386f26fc10000610336565b94506102896064610248836063610336565b61029a90662386f26fc10000610336565b93505050509250929050565b5f828410156102b65750816102c8565b818411156102c55750806102c8565b50825b9392505050565b5f80604083850312156102e0575f80fd5b50508035926020909101359150565b634e487b7160e01b5f52603260045260245ffd5b634e487b7160e01b5f52601160045260245ffd5b5f8261033157634e487b7160e01b5f52601260045260245ffd5b500490565b80820281158282048414176101d6576101d6610303565b808201808211156101d6576101d661030356fea264697066735822122078d52d38fb9ac26ac847102ed30d75d8c501614e164461f13369c225ab87348064736f6c634300081a0033",
					"opcodes": "PUSH1 0x80 PUSH1 0x40 MSTORE CALLVALUE DUP1 ISZERO PUSH1 0xE JUMPI PUSH0 DUP1 REVERT JUMPDEST POP ADDRESS PUSH0 SWAP1 DUP2 MSTORE PUSH1 0x1 PUSH1 0x20 MSTORE PUSH1 0x40 SWAP1 KECCAK256 PUSH8 0x6F05B59D3B20000 PUSH1 0x4 DUP3 ADD DUP2 SWAP1 SSTORE PUSH1 0x5 SWAP1 SWAP2 ADD SSTORE PUSH2 0x396 DUP1 PUSH2 0x40 PUSH0 CODECOPY PUSH0 RETURN INVALID PUSH1 0x80 PUSH1 0x40 MSTORE CALLVALUE DUP1 ISZERO PUSH2 0xF JUMPI PUSH0 DUP1 REVERT JUMPDEST POP PUSH1 0x4 CALLDATASIZE LT PUSH2 0x55 JUMPI PUSH0 CALLDATALOAD PUSH1 0xE0 SHR DUP1 PUSH4 0x208C86A4 EQ PUSH2 0x59 JUMPI DUP1 PUSH4 0x22BE77F0 EQ PUSH2 0x8D JUMPI DUP1 PUSH4 0x613F4594 EQ PUSH2 0xA0 JUMPI DUP1 PUSH4 0x6A7F4D58 EQ PUSH2 0xB6 JUMPI DUP1 PUSH4 0xB3C740E8 EQ PUSH2 0xC9 JUMPI JUMPDEST PUSH0 DUP1 REVERT JUMPDEST ADDRESS PUSH0 SWAP1 DUP2 MSTORE PUSH1 0x1 PUSH1 0x20 MSTORE PUSH1 0x40 SWAP1 KECCAK256 PUSH1 0x4 DUP2 ADD SLOAD PUSH1 0x5 SWAP1 SWAP2 ADD SLOAD JUMPDEST PUSH1 0x40 DUP1 MLOAD SWAP3 DUP4 MSTORE PUSH1 0x20 DUP4 ADD SWAP2 SWAP1 SWAP2 MSTORE ADD JUMPDEST PUSH1 0x40 MLOAD DUP1 SWAP2 SUB SWAP1 RETURN JUMPDEST PUSH2 0x73 PUSH2 0x9B CALLDATASIZE PUSH1 0x4 PUSH2 0x2CF JUMP JUMPDEST PUSH2 0xDC JUMP JUMPDEST PUSH2 0xA8 PUSH0 SLOAD DUP2 JUMP JUMPDEST PUSH1 0x40 MLOAD SWAP1 DUP2 MSTORE PUSH1 0x20 ADD PUSH2 0x84 JUMP JUMPDEST PUSH2 0x73 PUSH2 0xC4 CALLDATASIZE PUSH1 0x4 PUSH2 0x2CF JUMP JUMPDEST PUSH2 0x100 JUMP JUMPDEST PUSH2 0xA8 PUSH2 0xD7 CALLDATASIZE PUSH1 0x4 PUSH2 0x2CF JUMP JUMPDEST PUSH2 0x153 JUMP JUMPDEST PUSH0 DUP1 DUP4 PUSH0 SLOAD PUSH2 0xEB SWAP2 SWAP1 PUSH2 0x317 JUMP JUMPDEST SWAP2 POP PUSH2 0xF7 DUP3 DUP5 PUSH2 0x336 JUMP JUMPDEST SWAP1 POP SWAP3 POP SWAP3 SWAP1 POP JUMP JUMPDEST PUSH0 DUP1 PUSH2 0x10C DUP4 DUP6 PUSH2 0x34D JUMP JUMPDEST PUSH0 DUP1 DUP3 DUP3 SLOAD PUSH2 0x11B SWAP2 SWAP1 PUSH2 0x34D JUMP JUMPDEST SWAP1 SWAP2 SSTORE POP PUSH2 0x12B SWAP1 POP DUP5 DUP5 PUSH2 0x1DC JUMP JUMPDEST ADDRESS PUSH0 SWAP1 DUP2 MSTORE PUSH1 0x1 PUSH1 0x20 MSTORE PUSH1 0x40 SWAP1 KECCAK256 PUSH1 0x5 DUP2 ADD DUP3 SWAP1 SSTORE PUSH1 0x4 ADD DUP3 SWAP1 SSTORE SWAP1 SWAP3 POP SWAP1 POP JUMPDEST SWAP3 POP SWAP3 SWAP1 POP JUMP JUMPDEST ADDRESS PUSH0 SWAP1 DUP2 MSTORE PUSH1 0x1 PUSH1 0x20 MSTORE PUSH1 0x40 DUP2 KECCAK256 DUP2 SWAP1 PUSH1 0x4 ADD DUP4 PUSH1 0x2 DUP2 LT PUSH2 0x177 JUMPI PUSH2 0x177 PUSH2 0x2EF JUMP JUMPDEST ADD SLOAD SWAP1 POP DUP1 PUSH0 SUB PUSH2 0x1C6 JUMPI PUSH1 0x40 MLOAD PUSH3 0x461BCD PUSH1 0xE5 SHL DUP2 MSTORE PUSH1 0x20 PUSH1 0x4 DUP3 ADD MSTORE PUSH1 0x15 PUSH1 0x24 DUP3 ADD MSTORE PUSH21 0x5F70726963652063616E6E6F74206265207A65726F PUSH1 0x58 SHL PUSH1 0x44 DUP3 ADD MSTORE PUSH1 0x64 ADD PUSH1 0x40 MLOAD DUP1 SWAP2 SUB SWAP1 REVERT JUMPDEST PUSH0 PUSH2 0x1D1 DUP3 DUP7 PUSH2 0x317 JUMP JUMPDEST SWAP3 POP POP POP JUMPDEST SWAP3 SWAP2 POP POP JUMP JUMPDEST PUSH0 DUP1 DUP1 PUSH2 0x1E9 DUP5 DUP7 PUSH2 0x34D JUMP JUMPDEST SWAP1 POP DUP1 PUSH0 SUB PUSH2 0x206 JUMPI PUSH8 0x6F05B59D3B20000 DUP1 SWAP3 POP SWAP3 POP POP PUSH2 0x14C JUMP JUMPDEST PUSH0 DUP2 PUSH2 0x213 DUP8 PUSH1 0x64 PUSH2 0x336 JUMP JUMPDEST PUSH2 0x21D SWAP2 SWAP1 PUSH2 0x317 JUMP JUMPDEST SWAP1 POP PUSH0 DUP3 PUSH2 0x22C DUP8 PUSH1 0x64 PUSH2 0x336 JUMP JUMPDEST PUSH2 0x236 SWAP2 SWAP1 PUSH2 0x317 JUMP JUMPDEST SWAP1 POP PUSH2 0x266 PUSH1 0x64 PUSH2 0x248 DUP5 PUSH1 0x63 PUSH2 0x336 JUMP JUMPDEST PUSH2 0x252 SWAP2 SWAP1 PUSH2 0x317 JUMP JUMPDEST PUSH2 0x25D SWAP1 PUSH1 0x1 PUSH2 0x34D JUMP JUMPDEST PUSH1 0x1 PUSH1 0x64 PUSH2 0x2A6 JUMP JUMPDEST PUSH2 0x277 SWAP1 PUSH7 0x2386F26FC10000 PUSH2 0x336 JUMP JUMPDEST SWAP5 POP PUSH2 0x289 PUSH1 0x64 PUSH2 0x248 DUP4 PUSH1 0x63 PUSH2 0x336 JUMP JUMPDEST PUSH2 0x29A SWAP1 PUSH7 0x2386F26FC10000 PUSH2 0x336 JUMP JUMPDEST SWAP4 POP POP POP POP SWAP3 POP SWAP3 SWAP1 POP JUMP JUMPDEST PUSH0 DUP3 DUP5 LT ISZERO PUSH2 0x2B6 JUMPI POP DUP2 PUSH2 0x2C8 JUMP JUMPDEST DUP2 DUP5 GT ISZERO PUSH2 0x2C5 JUMPI POP DUP1 PUSH2 0x2C8 JUMP JUMPDEST POP DUP3 JUMPDEST SWAP4 SWAP3 POP POP POP JUMP JUMPDEST PUSH0 DUP1 PUSH1 0x40 DUP4 DUP6 SUB SLT ISZERO PUSH2 0x2E0 JUMPI PUSH0 DUP1 REVERT JUMPDEST POP POP DUP1 CALLDATALOAD SWAP3 PUSH1 0x20 SWAP1 SWAP2 ADD CALLDATALOAD SWAP2 POP JUMP JUMPDEST PUSH4 0x4E487B71 PUSH1 0xE0 SHL PUSH0 MSTORE PUSH1 0x32 PUSH1 0x4 MSTORE PUSH1 0x24 PUSH0 REVERT JUMPDEST PUSH4 0x4E487B71 PUSH1 0xE0 SHL PUSH0 MSTORE PUSH1 0x11 PUSH1 0x4 MSTORE PUSH1 0x24 PUSH0 REVERT JUMPDEST PUSH0 DUP3 PUSH2 0x331 JUMPI PUSH4 0x4E487B71 PUSH1 0xE0 SHL PUSH0 MSTORE PUSH1 0x12 PUSH1 0x4 MSTORE PUSH1 0x24 PUSH0 REVERT JUMPDEST POP DIV SWAP1 JUMP JUMPDEST DUP1 DUP3 MUL DUP2 ISZERO DUP3 DUP3 DIV DUP5 EQ OR PUSH2 0x1D6 JUMPI PUSH2 0x1D6 PUSH2 0x303 JUMP JUMPDEST DUP1 DUP3 ADD DUP1 DUP3 GT ISZERO PUSH2 0x1D6 JUMPI PUSH2 0x1D6 PUSH2 0x303 JUMP INVALID LOG2 PUSH5 0x6970667358 0x22 SLT KECCAK256 PUSH25 0xD52D38FB9AC26AC847102ED30D75D8C501614E164461F13369 0xC2 0x25 0xAB DUP8 CALLVALUE DUP1 PUSH5 0x736F6C6343 STOP ADDMOD BYTE STOP CALLER "
				},
				"gasEstimates": {
					"creation": {
						"codeDepositCost": "183600",
						"executionCost": "44524",
						"totalCost": "228124"
					},
					"external": {
						"PriceCalculation1(uint256,uint256)": "infinite",
						"calculateShares(uint256,uint256)": "2684",
						"getInitialPrices()": "4459",
						"perPeerson(uint256,uint256)": "2595",
						"totalBetAmount()": "2315"
					},
					"internal": {
						"PriceCalculation(uint256,uint256)": "infinite",
						"clamp(uint256,uint256,uint256)": "91"
					}
				},
				"methodIdentifiers": {
					"PriceCalculation1(uint256,uint256)": "6a7f4d58",
					"calculateShares(uint256,uint256)": "b3c740e8",
					"getInitialPrices()": "208c86a4",
					"perPeerson(uint256,uint256)": "22be77f0",
					"totalBetAmount()": "613f4594"
				}
			},
			"storageLayout": {
				"storage": [
					{
						"astId": 956,
						"contract": "WagersWorld/checkPricce.sol:MyToken",
						"label": "totalBetAmount",
						"offset": 0,
						"slot": "0",
						"type": "t_uint256"
					},
					{
						"astId": 961,
						"contract": "WagersWorld/checkPricce.sol:MyToken",
						"label": "marketInfo",
						"offset": 0,
						"slot": "1",
						"type": "t_mapping(t_address,t_struct(MarketInfo)954_storage)"
					}
				],
				"types": {
					"t_address": {
						"encoding": "inplace",
						"label": "address",
						"numberOfBytes": "20"
					},
					"t_array(t_uint256)2_storage": {
						"base": "t_uint256",
						"encoding": "inplace",
						"label": "uint256[2]",
						"numberOfBytes": "64"
					},
					"t_bool": {
						"encoding": "inplace",
						"label": "bool",
						"numberOfBytes": "1"
					},
					"t_mapping(t_address,t_struct(MarketInfo)954_storage)": {
						"encoding": "mapping",
						"key": "t_address",
						"label": "mapping(address => struct MyToken.MarketInfo)",
						"numberOfBytes": "32",
						"value": "t_struct(MarketInfo)954_storage"
					},
					"t_struct(MarketInfo)954_storage": {
						"encoding": "inplace",
						"label": "struct MyToken.MarketInfo",
						"members": [
							{
								"astId": 939,
								"contract": "WagersWorld/checkPricce.sol:MyToken",
								"label": "resolved",
								"offset": 0,
								"slot": "0",
								"type": "t_bool"
							},
							{
								"astId": 941,
								"contract": "WagersWorld/checkPricce.sol:MyToken",
								"label": "endTime",
								"offset": 0,
								"slot": "1",
								"type": "t_uint256"
							},
							{
								"astId": 943,
								"contract": "WagersWorld/checkPricce.sol:MyToken",
								"label": "totalBets",
								"offset": 0,
								"slot": "2",
								"type": "t_uint256"
							},
							{
								"astId": 945,
								"contract": "WagersWorld/checkPricce.sol:MyToken",
								"label": "totalAmount",
								"offset": 0,
								"slot": "3",
								"type": "t_uint256"
							},
							{
								"astId": 949,
								"contract": "WagersWorld/checkPricce.sol:MyToken",
								"label": "initialPrice",
								"offset": 0,
								"slot": "4",
								"type": "t_array(t_uint256)2_storage"
							},
							{
								"astId": 951,
								"contract": "WagersWorld/checkPricce.sol:MyToken",
								"label": "totalBetsOnYes",
								"offset": 0,
								"slot": "6",
								"type": "t_uint256"
							},
							{
								"astId": 953,
								"contract": "WagersWorld/checkPricce.sol:MyToken",
								"label": "totalBetsOnNo",
								"offset": 0,
								"slot": "7",
								"type": "t_uint256"
							}
						],
						"numberOfBytes": "256"
					},
					"t_uint256": {
						"encoding": "inplace",
						"label": "uint256",
						"numberOfBytes": "32"
					}
				}
			},
			"userdoc": {
				"kind": "user",
				"methods": {},
				"version": 1
			}
		}
	}
}