{
	"WagersWorld/RealWager.sol": {
		"Market": {
			"abi": [
				{
					"inputs": [
						{
							"internalType": "address",
							"name": "initialOwner",
							"type": "address"
						},
						{
							"internalType": "address",
							"name": "_usdcToken",
							"type": "address"
						},
						{
							"internalType": "uint256",
							"name": "_endTime",
							"type": "uint256"
						}
					],
					"stateMutability": "nonpayable",
					"type": "constructor"
				},
				{
					"inputs": [
						{
							"internalType": "address",
							"name": "owner",
							"type": "address"
						}
					],
					"name": "OwnableInvalidOwner",
					"type": "error"
				},
				{
					"inputs": [
						{
							"internalType": "address",
							"name": "account",
							"type": "address"
						}
					],
					"name": "OwnableUnauthorizedAccount",
					"type": "error"
				},
				{
					"inputs": [
						{
							"internalType": "bool",
							"name": "sold",
							"type": "bool"
						}
					],
					"name": "alreadySold",
					"type": "error"
				},
				{
					"inputs": [
						{
							"internalType": "uint256",
							"name": "contractBalance",
							"type": "uint256"
						}
					],
					"name": "contractLowbalance",
					"type": "error"
				},
				{
					"inputs": [
						{
							"internalType": "uint256",
							"name": "contractBalance",
							"type": "uint256"
						}
					],
					"name": "contractLowbalanceForOwner",
					"type": "error"
				},
				{
					"inputs": [],
					"name": "marketResolved",
					"type": "error"
				},
				{
					"inputs": [
						{
							"internalType": "bool",
							"name": "beted",
							"type": "bool"
						}
					],
					"name": "notBet",
					"type": "error"
				},
				{
					"inputs": [
						{
							"internalType": "uint256",
							"name": "_useerAmount",
							"type": "uint256"
						}
					],
					"name": "notEnoughAmount",
					"type": "error"
				},
				{
					"inputs": [
						{
							"internalType": "uint256",
							"name": "listNo",
							"type": "uint256"
						}
					],
					"name": "notListed",
					"type": "error"
				},
				{
					"inputs": [
						{
							"internalType": "uint256",
							"name": "endTime",
							"type": "uint256"
						}
					],
					"name": "notResolvedBeforeTime",
					"type": "error"
				},
				{
					"inputs": [
						{
							"internalType": "bool",
							"name": "transferd",
							"type": "bool"
						}
					],
					"name": "transferFaild",
					"type": "error"
				},
				{
					"inputs": [
						{
							"internalType": "bool",
							"name": "transfered",
							"type": "bool"
						}
					],
					"name": "transferFailed",
					"type": "error"
				},
				{
					"inputs": [
						{
							"internalType": "uint256",
							"name": "amount",
							"type": "uint256"
						}
					],
					"name": "wrongAmount",
					"type": "error"
				},
				{
					"inputs": [
						{
							"internalType": "uint256",
							"name": "betIndex",
							"type": "uint256"
						}
					],
					"name": "wrongBetIndex",
					"type": "error"
				},
				{
					"inputs": [
						{
							"internalType": "address",
							"name": "owner",
							"type": "address"
						}
					],
					"name": "wrongOwner",
					"type": "error"
				},
				{
					"inputs": [
						{
							"internalType": "uint256",
							"name": "price",
							"type": "uint256"
						}
					],
					"name": "wrongPrice",
					"type": "error"
				},
				{
					"inputs": [
						{
							"internalType": "uint256",
							"name": "_amount",
							"type": "uint256"
						}
					],
					"name": "zeroPercentageAmount",
					"type": "error"
				},
				{
					"inputs": [
						{
							"internalType": "uint256",
							"name": "percentageNumber",
							"type": "uint256"
						}
					],
					"name": "zeropercentageNumber",
					"type": "error"
				},
				{
					"anonymous": false,
					"inputs": [
						{
							"indexed": true,
							"internalType": "address",
							"name": "user",
							"type": "address"
						},
						{
							"indexed": true,
							"internalType": "uint256",
							"name": "_amount",
							"type": "uint256"
						},
						{
							"indexed": false,
							"internalType": "uint256",
							"name": "_betOn",
							"type": "uint256"
						}
					],
					"name": "Bet",
					"type": "event"
				},
				{
					"anonymous": false,
					"inputs": [
						{
							"indexed": false,
							"internalType": "address",
							"name": "buyer",
							"type": "address"
						},
						{
							"indexed": false,
							"internalType": "address",
							"name": "seller",
							"type": "address"
						},
						{
							"indexed": false,
							"internalType": "uint256",
							"name": "_amountBBuyed",
							"type": "uint256"
						},
						{
							"indexed": false,
							"internalType": "uint256",
							"name": "onPrice",
							"type": "uint256"
						}
					],
					"name": "BuyShares",
					"type": "event"
				},
				{
					"anonymous": false,
					"inputs": [
						{
							"indexed": true,
							"internalType": "address",
							"name": "previousOwner",
							"type": "address"
						},
						{
							"indexed": true,
							"internalType": "address",
							"name": "newOwner",
							"type": "address"
						}
					],
					"name": "OwnershipTransferred",
					"type": "event"
				},
				{
					"anonymous": false,
					"inputs": [
						{
							"indexed": false,
							"internalType": "address",
							"name": "ownerAddress",
							"type": "address"
						},
						{
							"indexed": false,
							"internalType": "uint256",
							"name": "ownerAmount",
							"type": "uint256"
						},
						{
							"indexed": false,
							"internalType": "uint256",
							"name": "perShareAmount",
							"type": "uint256"
						},
						{
							"indexed": false,
							"internalType": "uint256",
							"name": "winningIndex",
							"type": "uint256"
						}
					],
					"name": "ResolveMarket",
					"type": "event"
				},
				{
					"anonymous": false,
					"inputs": [
						{
							"indexed": true,
							"internalType": "address",
							"name": "user",
							"type": "address"
						},
						{
							"indexed": false,
							"internalType": "uint256",
							"name": "listNo",
							"type": "uint256"
						},
						{
							"indexed": false,
							"internalType": "uint256",
							"name": "onPrice",
							"type": "uint256"
						}
					],
					"name": "SellShare",
					"type": "event"
				},
				{
					"inputs": [
						{
							"internalType": "uint256",
							"name": "_totalBetAmountOnNo",
							"type": "uint256"
						},
						{
							"internalType": "uint256",
							"name": "_totalBetAmountOnYes",
							"type": "uint256"
						}
					],
					"name": "PriceCalculation",
					"outputs": [
						{
							"internalType": "uint256",
							"name": "yesSharePrice",
							"type": "uint256"
						},
						{
							"internalType": "uint256",
							"name": "noSharePrice",
							"type": "uint256"
						}
					],
					"stateMutability": "pure",
					"type": "function"
				},
				{
					"inputs": [
						{
							"internalType": "uint256",
							"name": "_amount",
							"type": "uint256"
						},
						{
							"internalType": "uint256",
							"name": "_betOn",
							"type": "uint256"
						}
					],
					"name": "bet",
					"outputs": [],
					"stateMutability": "nonpayable",
					"type": "function"
				},
				{
					"inputs": [
						{
							"internalType": "uint256",
							"name": "_listNo",
							"type": "uint256"
						},
						{
							"internalType": "address",
							"name": "_owner",
							"type": "address"
						}
					],
					"name": "buyShare",
					"outputs": [],
					"stateMutability": "nonpayable",
					"type": "function"
				},
				{
					"inputs": [
						{
							"internalType": "uint256",
							"name": "_amount",
							"type": "uint256"
						},
						{
							"internalType": "uint256",
							"name": "_betOn",
							"type": "uint256"
						}
					],
					"name": "calculateShares",
					"outputs": [
						{
							"internalType": "uint256",
							"name": "",
							"type": "uint256"
						}
					],
					"stateMutability": "view",
					"type": "function"
				},
				{
					"inputs": [
						{
							"internalType": "uint256",
							"name": "",
							"type": "uint256"
						}
					],
					"name": "eachUser",
					"outputs": [
						{
							"internalType": "address",
							"name": "",
							"type": "address"
						}
					],
					"stateMutability": "view",
					"type": "function"
				},
				{
					"inputs": [],
					"name": "getInitialPrices",
					"outputs": [
						{
							"internalType": "uint256",
							"name": "",
							"type": "uint256"
						},
						{
							"internalType": "uint256",
							"name": "",
							"type": "uint256"
						}
					],
					"stateMutability": "view",
					"type": "function"
				},
				{
					"inputs": [
						{
							"internalType": "address",
							"name": "",
							"type": "address"
						}
					],
					"name": "marketInfo",
					"outputs": [
						{
							"internalType": "bool",
							"name": "resolved",
							"type": "bool"
						},
						{
							"internalType": "uint256",
							"name": "endTime",
							"type": "uint256"
						},
						{
							"internalType": "uint256",
							"name": "totalBets",
							"type": "uint256"
						},
						{
							"internalType": "uint256",
							"name": "totalAmount",
							"type": "uint256"
						},
						{
							"internalType": "uint256",
							"name": "totalBetAmountOnYes",
							"type": "uint256"
						},
						{
							"internalType": "uint256",
							"name": "totalBetAmountOnNo",
							"type": "uint256"
						}
					],
					"stateMutability": "view",
					"type": "function"
				},
				{
					"inputs": [],
					"name": "owner",
					"outputs": [
						{
							"internalType": "address",
							"name": "",
							"type": "address"
						}
					],
					"stateMutability": "view",
					"type": "function"
				},
				{
					"inputs": [],
					"name": "profitPercentage",
					"outputs": [
						{
							"internalType": "uint256",
							"name": "",
							"type": "uint256"
						}
					],
					"stateMutability": "view",
					"type": "function"
				},
				{
					"inputs": [
						{
							"internalType": "address",
							"name": "_owner",
							"type": "address"
						},
						{
							"internalType": "uint256",
							"name": "_id",
							"type": "uint256"
						}
					],
					"name": "readSellInfo",
					"outputs": [
						{
							"internalType": "bool",
							"name": "list",
							"type": "bool"
						},
						{
							"internalType": "bool",
							"name": "sold",
							"type": "bool"
						},
						{
							"internalType": "address",
							"name": "owner",
							"type": "address"
						},
						{
							"internalType": "uint256",
							"name": "price",
							"type": "uint256"
						},
						{
							"internalType": "uint256",
							"name": "amount",
							"type": "uint256"
						},
						{
							"internalType": "uint256",
							"name": "listOn",
							"type": "uint256"
						}
					],
					"stateMutability": "view",
					"type": "function"
				},
				{
					"inputs": [],
					"name": "renounceOwnership",
					"outputs": [],
					"stateMutability": "nonpayable",
					"type": "function"
				},
				{
					"inputs": [
						{
							"internalType": "uint256",
							"name": "winningIndex",
							"type": "uint256"
						}
					],
					"name": "resolveMarket",
					"outputs": [],
					"stateMutability": "nonpayable",
					"type": "function"
				},
				{
					"inputs": [
						{
							"internalType": "address",
							"name": "",
							"type": "address"
						},
						{
							"internalType": "uint256",
							"name": "",
							"type": "uint256"
						}
					],
					"name": "sellInfo",
					"outputs": [
						{
							"internalType": "bool",
							"name": "list",
							"type": "bool"
						},
						{
							"internalType": "bool",
							"name": "sold",
							"type": "bool"
						},
						{
							"internalType": "address",
							"name": "owner",
							"type": "address"
						},
						{
							"internalType": "uint256",
							"name": "price",
							"type": "uint256"
						},
						{
							"internalType": "uint256",
							"name": "amount",
							"type": "uint256"
						},
						{
							"internalType": "uint256",
							"name": "listOn",
							"type": "uint256"
						}
					],
					"stateMutability": "view",
					"type": "function"
				},
				{
					"inputs": [
						{
							"internalType": "uint256",
							"name": "_amount",
							"type": "uint256"
						},
						{
							"internalType": "uint256",
							"name": "_price",
							"type": "uint256"
						},
						{
							"internalType": "uint256",
							"name": "_sellOf",
							"type": "uint256"
						}
					],
					"name": "sellShare",
					"outputs": [],
					"stateMutability": "nonpayable",
					"type": "function"
				},
				{
					"inputs": [],
					"name": "totalUsers",
					"outputs": [
						{
							"internalType": "uint256",
							"name": "",
							"type": "uint256"
						}
					],
					"stateMutability": "view",
					"type": "function"
				},
				{
					"inputs": [
						{
							"internalType": "address",
							"name": "newOwner",
							"type": "address"
						}
					],
					"name": "transferOwnership",
					"outputs": [],
					"stateMutability": "nonpayable",
					"type": "function"
				},
				{
					"inputs": [],
					"name": "usdcToken",
					"outputs": [
						{
							"internalType": "contract ERC20",
							"name": "",
							"type": "address"
						}
					],
					"stateMutability": "view",
					"type": "function"
				},
				{
					"inputs": [
						{
							"internalType": "address",
							"name": "_user",
							"type": "address"
						},
						{
							"internalType": "uint256",
							"name": "_betIndex",
							"type": "uint256"
						}
					],
					"name": "userBetOn",
					"outputs": [
						{
							"internalType": "bool",
							"name": "",
							"type": "bool"
						}
					],
					"stateMutability": "view",
					"type": "function"
				},
				{
					"inputs": [
						{
							"internalType": "address",
							"name": "",
							"type": "address"
						}
					],
					"name": "userInfo",
					"outputs": [
						{
							"internalType": "uint256",
							"name": "listNo",
							"type": "uint256"
						},
						{
							"internalType": "uint256",
							"name": "noBetAmount",
							"type": "uint256"
						},
						{
							"internalType": "uint256",
							"name": "rewardAmount",
							"type": "uint256"
						},
						{
							"internalType": "uint256",
							"name": "yesBetAmount",
							"type": "uint256"
						},
						{
							"internalType": "uint256",
							"name": "shareAmount",
							"type": "uint256"
						}
					],
					"stateMutability": "view",
					"type": "function"
				}
			],
			"devdoc": {
				"errors": {
					"OwnableInvalidOwner(address)": [
						{
							"details": "The owner is not a valid owner account. (eg. `address(0)`)"
						}
					],
					"OwnableUnauthorizedAccount(address)": [
						{
							"details": "The caller account is not authorized to perform an operation."
						}
					]
				},
				"kind": "dev",
				"methods": {
					"owner()": {
						"details": "Returns the address of the current owner."
					},
					"renounceOwnership()": {
						"details": "Leaves the contract without owner. It will not be possible to call `onlyOwner` functions. Can only be called by the current owner. NOTE: Renouncing ownership will leave the contract without an owner, thereby disabling any functionality that is only available to the owner."
					},
					"transferOwnership(address)": {
						"details": "Transfers ownership of the contract to a new account (`newOwner`). Can only be called by the current owner."
					}
				},
				"version": 1
			},
			"evm": {
				"assembly": "    /* \"WagersWorld/RealWager.sol\":218:12333  contract Market is Ownable {... */\n  mstore(0x40, 0x80)\n    /* \"WagersWorld/RealWager.sol\":2247:2665  constructor(... */\n  callvalue\n  dup1\n  iszero\n  tag_1\n  jumpi\n  0x00\n  dup1\n  revert\ntag_1:\n  pop\n  mload(0x40)\n  sub(codesize, bytecodeSize)\n  dup1\n  bytecodeSize\n  dup4\n  codecopy\n  dup2\n  dup2\n  add\n  0x40\n  mstore\n  dup2\n  add\n  swap1\n  tag_2\n  swap2\n  swap1\n  tag_3\n  jump\t// in\ntag_2:\n    /* \"WagersWorld/RealWager.sol\":2363:2375  initialOwner */\n  dup3\n    /* \"@openzeppelin/contracts/access/Ownable.sol\":1297:1298  0 */\n  0x00\n    /* \"@openzeppelin/contracts/access/Ownable.sol\":1273:1299  initialOwner == address(0) */\n  0xffffffffffffffffffffffffffffffffffffffff\n  and\n    /* \"@openzeppelin/contracts/access/Ownable.sol\":1273:1285  initialOwner */\n  dup2\n    /* \"@openzeppelin/contracts/access/Ownable.sol\":1273:1299  initialOwner == address(0) */\n  0xffffffffffffffffffffffffffffffffffffffff\n  and\n  sub\n    /* \"@openzeppelin/contracts/access/Ownable.sol\":1269:1364  if (initialOwner == address(0)) {... */\n  tag_7\n  jumpi\n    /* \"@openzeppelin/contracts/access/Ownable.sol\":1350:1351  0 */\n  0x00\n    /* \"@openzeppelin/contracts/access/Ownable.sol\":1322:1353  OwnableInvalidOwner(address(0)) */\n  mload(0x40)\n  0x1e4fbdf700000000000000000000000000000000000000000000000000000000\n  dup2\n  mstore\n  0x04\n  add\n  tag_8\n  swap2\n  swap1\n  tag_9\n  jump\t// in\ntag_8:\n  mload(0x40)\n  dup1\n  swap2\n  sub\n  swap1\n  revert\n    /* \"@openzeppelin/contracts/access/Ownable.sol\":1269:1364  if (initialOwner == address(0)) {... */\ntag_7:\n    /* \"@openzeppelin/contracts/access/Ownable.sol\":1373:1405  _transferOwnership(initialOwner) */\n  tag_10\n    /* \"@openzeppelin/contracts/access/Ownable.sol\":1392:1404  initialOwner */\n  dup2\n    /* \"@openzeppelin/contracts/access/Ownable.sol\":1373:1391  _transferOwnership */\n  shl(0x20, tag_11)\n    /* \"@openzeppelin/contracts/access/Ownable.sol\":1373:1405  _transferOwnership(initialOwner) */\n  0x20\n  shr\n  jump\t// in\ntag_10:\n    /* \"@openzeppelin/contracts/access/Ownable.sol\":1225:1412  constructor(address initialOwner) {... */\n  pop\n    /* \"WagersWorld/RealWager.sol\":2428:2436  _endTime */\n  dup1\n    /* \"WagersWorld/RealWager.sol\":2392:2402  marketInfo */\n  0x06\n    /* \"WagersWorld/RealWager.sol\":2392:2417  marketInfo[address(this)] */\n  0x00\n    /* \"WagersWorld/RealWager.sol\":2411:2415  this */\n  address\n    /* \"WagersWorld/RealWager.sol\":2392:2417  marketInfo[address(this)] */\n  0xffffffffffffffffffffffffffffffffffffffff\n  and\n  0xffffffffffffffffffffffffffffffffffffffff\n  and\n  dup2\n  mstore\n  0x20\n  add\n  swap1\n  dup2\n  mstore\n  0x20\n  add\n  0x00\n  keccak256\n    /* \"WagersWorld/RealWager.sol\":2392:2425  marketInfo[address(this)].endTime */\n  0x01\n  add\n    /* \"WagersWorld/RealWager.sol\":2392:2436  marketInfo[address(this)].endTime = _endTime */\n  dup2\n  swap1\n  sstore\n  pop\n    /* \"WagersWorld/RealWager.sol\":2494:2503  0.5 ether */\n  0x06f05b59d3b20000\n    /* \"WagersWorld/RealWager.sol\":2450:2460  marketInfo */\n  0x06\n    /* \"WagersWorld/RealWager.sol\":2450:2475  marketInfo[address(this)] */\n  0x00\n    /* \"WagersWorld/RealWager.sol\":2469:2473  this */\n  address\n    /* \"WagersWorld/RealWager.sol\":2450:2475  marketInfo[address(this)] */\n  0xffffffffffffffffffffffffffffffffffffffff\n  and\n  0xffffffffffffffffffffffffffffffffffffffff\n  and\n  dup2\n  mstore\n  0x20\n  add\n  swap1\n  dup2\n  mstore\n  0x20\n  add\n  0x00\n  keccak256\n    /* \"WagersWorld/RealWager.sol\":2450:2488  marketInfo[address(this)].initialPrice */\n  0x04\n  add\n    /* \"WagersWorld/RealWager.sol\":2489:2490  0 */\n  0x00\n    /* \"WagersWorld/RealWager.sol\":2450:2491  marketInfo[address(this)].initialPrice[0] */\n  0x02\n  dup2\n  lt\n  tag_13\n  jumpi\n  tag_14\n  tag_15\n  jump\t// in\ntag_14:\ntag_13:\n  add\n    /* \"WagersWorld/RealWager.sol\":2450:2503  marketInfo[address(this)].initialPrice[0] = 0.5 ether */\n  dup2\n  swap1\n  sstore\n  pop\n    /* \"WagersWorld/RealWager.sol\":2561:2570  0.5 ether */\n  0x06f05b59d3b20000\n    /* \"WagersWorld/RealWager.sol\":2517:2527  marketInfo */\n  0x06\n    /* \"WagersWorld/RealWager.sol\":2517:2542  marketInfo[address(this)] */\n  0x00\n    /* \"WagersWorld/RealWager.sol\":2536:2540  this */\n  address\n    /* \"WagersWorld/RealWager.sol\":2517:2542  marketInfo[address(this)] */\n  0xffffffffffffffffffffffffffffffffffffffff\n  and\n  0xffffffffffffffffffffffffffffffffffffffff\n  and\n  dup2\n  mstore\n  0x20\n  add\n  swap1\n  dup2\n  mstore\n  0x20\n  add\n  0x00\n  keccak256\n    /* \"WagersWorld/RealWager.sol\":2517:2555  marketInfo[address(this)].initialPrice */\n  0x04\n  add\n    /* \"WagersWorld/RealWager.sol\":2556:2557  1 */\n  0x01\n    /* \"WagersWorld/RealWager.sol\":2517:2558  marketInfo[address(this)].initialPrice[1] */\n  0x02\n  dup2\n  lt\n  tag_17\n  jumpi\n  tag_18\n  tag_15\n  jump\t// in\ntag_18:\ntag_17:\n  add\n    /* \"WagersWorld/RealWager.sol\":2517:2570  marketInfo[address(this)].initialPrice[1] = 0.5 ether */\n  dup2\n  swap1\n  sstore\n  pop\n    /* \"WagersWorld/RealWager.sol\":2602:2612  _usdcToken */\n  dup2\n    /* \"WagersWorld/RealWager.sol\":2584:2593  usdcToken */\n  0x01\n  0x00\n    /* \"WagersWorld/RealWager.sol\":2584:2613  usdcToken = ERC20(_usdcToken) */\n  0x0100\n  exp\n  dup2\n  sload\n  dup2\n  0xffffffffffffffffffffffffffffffffffffffff\n  mul\n  not\n  and\n  swap1\n  dup4\n  0xffffffffffffffffffffffffffffffffffffffff\n  and\n  mul\n  or\n  swap1\n  sstore\n  pop\n    /* \"WagersWorld/RealWager.sol\":2646:2650  1000 */\n  0x03e8\n    /* \"WagersWorld/RealWager.sol\":2627:2643  profitPercentage */\n  0x03\n    /* \"WagersWorld/RealWager.sol\":2627:2650  profitPercentage = 1000 */\n  dup2\n  swap1\n  sstore\n  pop\n    /* \"WagersWorld/RealWager.sol\":2247:2665  constructor(... */\n  pop\n  pop\n  pop\n    /* \"WagersWorld/RealWager.sol\":218:12333  contract Market is Ownable {... */\n  jump(tag_20)\n    /* \"@openzeppelin/contracts/access/Ownable.sol\":2912:3099  function _transferOwnership(address newOwner) internal virtual {... */\ntag_11:\n    /* \"@openzeppelin/contracts/access/Ownable.sol\":2985:3001  address oldOwner */\n  0x00\n    /* \"@openzeppelin/contracts/access/Ownable.sol\":3004:3010  _owner */\n  dup1\n  0x00\n  swap1\n  sload\n  swap1\n  0x0100\n  exp\n  swap1\n  div\n  0xffffffffffffffffffffffffffffffffffffffff\n  and\n    /* \"@openzeppelin/contracts/access/Ownable.sol\":2985:3010  address oldOwner = _owner */\n  swap1\n  pop\n    /* \"@openzeppelin/contracts/access/Ownable.sol\":3029:3037  newOwner */\n  dup2\n    /* \"@openzeppelin/contracts/access/Ownable.sol\":3020:3026  _owner */\n  0x00\n  dup1\n    /* \"@openzeppelin/contracts/access/Ownable.sol\":3020:3037  _owner = newOwner */\n  0x0100\n  exp\n  dup2\n  sload\n  dup2\n  0xffffffffffffffffffffffffffffffffffffffff\n  mul\n  not\n  and\n  swap1\n  dup4\n  0xffffffffffffffffffffffffffffffffffffffff\n  and\n  mul\n  or\n  swap1\n  sstore\n  pop\n    /* \"@openzeppelin/contracts/access/Ownable.sol\":3083:3091  newOwner */\n  dup2\n    /* \"@openzeppelin/contracts/access/Ownable.sol\":3052:3092  OwnershipTransferred(oldOwner, newOwner) */\n  0xffffffffffffffffffffffffffffffffffffffff\n  and\n    /* \"@openzeppelin/contracts/access/Ownable.sol\":3073:3081  oldOwner */\n  dup2\n    /* \"@openzeppelin/contracts/access/Ownable.sol\":3052:3092  OwnershipTransferred(oldOwner, newOwner) */\n  0xffffffffffffffffffffffffffffffffffffffff\n  and\n  0x8be0079c531659141344cd1fd0a4f28419497f9722a3daafe3b4186f6b6457e0\n  mload(0x40)\n  mload(0x40)\n  dup1\n  swap2\n  sub\n  swap1\n  log3\n    /* \"@openzeppelin/contracts/access/Ownable.sol\":2975:3099  {... */\n  pop\n    /* \"@openzeppelin/contracts/access/Ownable.sol\":2912:3099  function _transferOwnership(address newOwner) internal virtual {... */\n  pop\n  jump\t// out\n    /* \"#utility.yul\":88:205   */\ntag_23:\n    /* \"#utility.yul\":197:198   */\n  0x00\n    /* \"#utility.yul\":194:195   */\n  dup1\n    /* \"#utility.yul\":187:199   */\n  revert\n    /* \"#utility.yul\":334:460   */\ntag_25:\n    /* \"#utility.yul\":371:378   */\n  0x00\n    /* \"#utility.yul\":411:453   */\n  0xffffffffffffffffffffffffffffffffffffffff\n    /* \"#utility.yul\":404:409   */\n  dup3\n    /* \"#utility.yul\":400:454   */\n  and\n    /* \"#utility.yul\":389:454   */\n  swap1\n  pop\n    /* \"#utility.yul\":334:460   */\n  swap2\n  swap1\n  pop\n  jump\t// out\n    /* \"#utility.yul\":466:562   */\ntag_26:\n    /* \"#utility.yul\":503:510   */\n  0x00\n    /* \"#utility.yul\":532:556   */\n  tag_39\n    /* \"#utility.yul\":550:555   */\n  dup3\n    /* \"#utility.yul\":532:556   */\n  tag_25\n  jump\t// in\ntag_39:\n    /* \"#utility.yul\":521:556   */\n  swap1\n  pop\n    /* \"#utility.yul\":466:562   */\n  swap2\n  swap1\n  pop\n  jump\t// out\n    /* \"#utility.yul\":568:690   */\ntag_27:\n    /* \"#utility.yul\":641:665   */\n  tag_41\n    /* \"#utility.yul\":659:664   */\n  dup2\n    /* \"#utility.yul\":641:665   */\n  tag_26\n  jump\t// in\ntag_41:\n    /* \"#utility.yul\":634:639   */\n  dup2\n    /* \"#utility.yul\":631:666   */\n  eq\n    /* \"#utility.yul\":621:684   */\n  tag_42\n  jumpi\n    /* \"#utility.yul\":680:681   */\n  0x00\n    /* \"#utility.yul\":677:678   */\n  dup1\n    /* \"#utility.yul\":670:682   */\n  revert\n    /* \"#utility.yul\":621:684   */\ntag_42:\n    /* \"#utility.yul\":568:690   */\n  pop\n  jump\t// out\n    /* \"#utility.yul\":696:839   */\ntag_28:\n    /* \"#utility.yul\":753:758   */\n  0x00\n    /* \"#utility.yul\":784:790   */\n  dup2\n    /* \"#utility.yul\":778:791   */\n  mload\n    /* \"#utility.yul\":769:791   */\n  swap1\n  pop\n    /* \"#utility.yul\":800:833   */\n  tag_44\n    /* \"#utility.yul\":827:832   */\n  dup2\n    /* \"#utility.yul\":800:833   */\n  tag_27\n  jump\t// in\ntag_44:\n    /* \"#utility.yul\":696:839   */\n  swap3\n  swap2\n  pop\n  pop\n  jump\t// out\n    /* \"#utility.yul\":845:922   */\ntag_29:\n    /* \"#utility.yul\":882:889   */\n  0x00\n    /* \"#utility.yul\":911:916   */\n  dup2\n    /* \"#utility.yul\":900:916   */\n  swap1\n  pop\n    /* \"#utility.yul\":845:922   */\n  swap2\n  swap1\n  pop\n  jump\t// out\n    /* \"#utility.yul\":928:1050   */\ntag_30:\n    /* \"#utility.yul\":1001:1025   */\n  tag_47\n    /* \"#utility.yul\":1019:1024   */\n  dup2\n    /* \"#utility.yul\":1001:1025   */\n  tag_29\n  jump\t// in\ntag_47:\n    /* \"#utility.yul\":994:999   */\n  dup2\n    /* \"#utility.yul\":991:1026   */\n  eq\n    /* \"#utility.yul\":981:1044   */\n  tag_48\n  jumpi\n    /* \"#utility.yul\":1040:1041   */\n  0x00\n    /* \"#utility.yul\":1037:1038   */\n  dup1\n    /* \"#utility.yul\":1030:1042   */\n  revert\n    /* \"#utility.yul\":981:1044   */\ntag_48:\n    /* \"#utility.yul\":928:1050   */\n  pop\n  jump\t// out\n    /* \"#utility.yul\":1056:1199   */\ntag_31:\n    /* \"#utility.yul\":1113:1118   */\n  0x00\n    /* \"#utility.yul\":1144:1150   */\n  dup2\n    /* \"#utility.yul\":1138:1151   */\n  mload\n    /* \"#utility.yul\":1129:1151   */\n  swap1\n  pop\n    /* \"#utility.yul\":1160:1193   */\n  tag_50\n    /* \"#utility.yul\":1187:1192   */\n  dup2\n    /* \"#utility.yul\":1160:1193   */\n  tag_30\n  jump\t// in\ntag_50:\n    /* \"#utility.yul\":1056:1199   */\n  swap3\n  swap2\n  pop\n  pop\n  jump\t// out\n    /* \"#utility.yul\":1205:1868   */\ntag_3:\n    /* \"#utility.yul\":1293:1299   */\n  0x00\n    /* \"#utility.yul\":1301:1307   */\n  dup1\n    /* \"#utility.yul\":1309:1315   */\n  0x00\n    /* \"#utility.yul\":1358:1360   */\n  0x60\n    /* \"#utility.yul\":1346:1355   */\n  dup5\n    /* \"#utility.yul\":1337:1344   */\n  dup7\n    /* \"#utility.yul\":1333:1356   */\n  sub\n    /* \"#utility.yul\":1329:1361   */\n  slt\n    /* \"#utility.yul\":1326:1445   */\n  iszero\n  tag_52\n  jumpi\n    /* \"#utility.yul\":1364:1443   */\n  tag_53\n  tag_23\n  jump\t// in\ntag_53:\n    /* \"#utility.yul\":1326:1445   */\ntag_52:\n    /* \"#utility.yul\":1484:1485   */\n  0x00\n    /* \"#utility.yul\":1509:1573   */\n  tag_54\n    /* \"#utility.yul\":1565:1572   */\n  dup7\n    /* \"#utility.yul\":1556:1562   */\n  dup3\n    /* \"#utility.yul\":1545:1554   */\n  dup8\n    /* \"#utility.yul\":1541:1563   */\n  add\n    /* \"#utility.yul\":1509:1573   */\n  tag_28\n  jump\t// in\ntag_54:\n    /* \"#utility.yul\":1499:1573   */\n  swap4\n  pop\n    /* \"#utility.yul\":1455:1583   */\n  pop\n    /* \"#utility.yul\":1622:1624   */\n  0x20\n    /* \"#utility.yul\":1648:1712   */\n  tag_55\n    /* \"#utility.yul\":1704:1711   */\n  dup7\n    /* \"#utility.yul\":1695:1701   */\n  dup3\n    /* \"#utility.yul\":1684:1693   */\n  dup8\n    /* \"#utility.yul\":1680:1702   */\n  add\n    /* \"#utility.yul\":1648:1712   */\n  tag_28\n  jump\t// in\ntag_55:\n    /* \"#utility.yul\":1638:1712   */\n  swap3\n  pop\n    /* \"#utility.yul\":1593:1722   */\n  pop\n    /* \"#utility.yul\":1761:1763   */\n  0x40\n    /* \"#utility.yul\":1787:1851   */\n  tag_56\n    /* \"#utility.yul\":1843:1850   */\n  dup7\n    /* \"#utility.yul\":1834:1840   */\n  dup3\n    /* \"#utility.yul\":1823:1832   */\n  dup8\n    /* \"#utility.yul\":1819:1841   */\n  add\n    /* \"#utility.yul\":1787:1851   */\n  tag_31\n  jump\t// in\ntag_56:\n    /* \"#utility.yul\":1777:1851   */\n  swap2\n  pop\n    /* \"#utility.yul\":1732:1861   */\n  pop\n    /* \"#utility.yul\":1205:1868   */\n  swap3\n  pop\n  swap3\n  pop\n  swap3\n  jump\t// out\n    /* \"#utility.yul\":1874:1992   */\ntag_32:\n    /* \"#utility.yul\":1961:1985   */\n  tag_58\n    /* \"#utility.yul\":1979:1984   */\n  dup2\n    /* \"#utility.yul\":1961:1985   */\n  tag_26\n  jump\t// in\ntag_58:\n    /* \"#utility.yul\":1956:1959   */\n  dup3\n    /* \"#utility.yul\":1949:1986   */\n  mstore\n    /* \"#utility.yul\":1874:1992   */\n  pop\n  pop\n  jump\t// out\n    /* \"#utility.yul\":1998:2220   */\ntag_9:\n    /* \"#utility.yul\":2091:2095   */\n  0x00\n    /* \"#utility.yul\":2129:2131   */\n  0x20\n    /* \"#utility.yul\":2118:2127   */\n  dup3\n    /* \"#utility.yul\":2114:2132   */\n  add\n    /* \"#utility.yul\":2106:2132   */\n  swap1\n  pop\n    /* \"#utility.yul\":2142:2213   */\n  tag_60\n    /* \"#utility.yul\":2210:2211   */\n  0x00\n    /* \"#utility.yul\":2199:2208   */\n  dup4\n    /* \"#utility.yul\":2195:2212   */\n  add\n    /* \"#utility.yul\":2186:2192   */\n  dup5\n    /* \"#utility.yul\":2142:2213   */\n  tag_32\n  jump\t// in\ntag_60:\n    /* \"#utility.yul\":1998:2220   */\n  swap3\n  swap2\n  pop\n  pop\n  jump\t// out\n    /* \"#utility.yul\":2226:2406   */\ntag_15:\n    /* \"#utility.yul\":2274:2351   */\n  0x4e487b7100000000000000000000000000000000000000000000000000000000\n    /* \"#utility.yul\":2271:2272   */\n  0x00\n    /* \"#utility.yul\":2264:2352   */\n  mstore\n    /* \"#utility.yul\":2371:2375   */\n  0x32\n    /* \"#utility.yul\":2368:2369   */\n  0x04\n    /* \"#utility.yul\":2361:2376   */\n  mstore\n    /* \"#utility.yul\":2395:2399   */\n  0x24\n    /* \"#utility.yul\":2392:2393   */\n  0x00\n    /* \"#utility.yul\":2385:2400   */\n  revert\n    /* \"WagersWorld/RealWager.sol\":218:12333  contract Market is Ownable {... */\ntag_20:\n  dataSize(sub_0)\n  dup1\n  dataOffset(sub_0)\n  0x00\n  codecopy\n  0x00\n  return\nstop\n\nsub_0: assembly {\n        /* \"WagersWorld/RealWager.sol\":218:12333  contract Market is Ownable {... */\n      mstore(0x40, 0x80)\n      callvalue\n      dup1\n      iszero\n      tag_1\n      jumpi\n      0x00\n      dup1\n      revert\n    tag_1:\n      pop\n      jumpi(tag_2, lt(calldatasize, 0x04))\n      shr(0xe0, calldataload(0x00))\n      dup1\n      0x6399d03d\n      gt\n      tag_22\n      jumpi\n      dup1\n      0xb677d9d2\n      gt\n      tag_23\n      jumpi\n      dup1\n      0xb677d9d2\n      eq\n      tag_17\n      jumpi\n      dup1\n      0xbff1f9e1\n      eq\n      tag_18\n      jumpi\n      dup1\n      0xc4351386\n      eq\n      tag_19\n      jumpi\n      dup1\n      0xf2fde38b\n      eq\n      tag_20\n      jumpi\n      dup1\n      0xfbea0b06\n      eq\n      tag_21\n      jumpi\n      jump(tag_2)\n    tag_23:\n      dup1\n      0x6399d03d\n      eq\n      tag_12\n      jumpi\n      dup1\n      0x6ffcc719\n      eq\n      tag_13\n      jumpi\n      dup1\n      0x715018a6\n      eq\n      tag_14\n      jumpi\n      dup1\n      0x8da5cb5b\n      eq\n      tag_15\n      jumpi\n      dup1\n      0xb3c740e8\n      eq\n      tag_16\n      jumpi\n      jump(tag_2)\n    tag_22:\n      dup1\n      0x208c86a4\n      gt\n      tag_24\n      jumpi\n      dup1\n      0x208c86a4\n      eq\n      tag_7\n      jumpi\n      dup1\n      0x21d0d9af\n      eq\n      tag_8\n      jumpi\n      dup1\n      0x3774ca25\n      eq\n      tag_9\n      jumpi\n      dup1\n      0x456e62ba\n      eq\n      tag_10\n      jumpi\n      dup1\n      0x61d464ef\n      eq\n      tag_11\n      jumpi\n      jump(tag_2)\n    tag_24:\n      dup1\n      0x08ef962e\n      eq\n      tag_3\n      jumpi\n      dup1\n      0x0efa82f6\n      eq\n      tag_4\n      jumpi\n      dup1\n      0x11eac855\n      eq\n      tag_5\n      jumpi\n      dup1\n      0x1959a002\n      eq\n      tag_6\n      jumpi\n    tag_2:\n      0x00\n      dup1\n      revert\n        /* \"WagersWorld/RealWager.sol\":963:1006  mapping(uint256 => address) public eachUser */\n    tag_3:\n      tag_25\n      0x04\n      dup1\n      calldatasize\n      sub\n      dup2\n      add\n      swap1\n      tag_26\n      swap2\n      swap1\n      tag_27\n      jump\t// in\n    tag_26:\n      tag_28\n      jump\t// in\n    tag_25:\n      mload(0x40)\n      tag_29\n      swap2\n      swap1\n      tag_30\n      jump\t// in\n    tag_29:\n      mload(0x40)\n      dup1\n      swap2\n      sub\n      swap1\n      return\n        /* \"WagersWorld/RealWager.sol\":12192:12328  function userBetOn(address _user, uint256 _betIndex) public view returns (bool) {... */\n    tag_4:\n      tag_31\n      0x04\n      dup1\n      calldatasize\n      sub\n      dup2\n      add\n      swap1\n      tag_32\n      swap2\n      swap1\n      tag_33\n      jump\t// in\n    tag_32:\n      tag_34\n      jump\t// in\n    tag_31:\n      mload(0x40)\n      tag_35\n      swap2\n      swap1\n      tag_36\n      jump\t// in\n    tag_35:\n      mload(0x40)\n      dup1\n      swap2\n      sub\n      swap1\n      return\n        /* \"WagersWorld/RealWager.sol\":252:274  ERC20 public usdcToken */\n    tag_5:\n      tag_37\n      tag_38\n      jump\t// in\n    tag_37:\n      mload(0x40)\n      tag_39\n      swap2\n      swap1\n      tag_40\n      jump\t// in\n    tag_39:\n      mload(0x40)\n      dup1\n      swap2\n      sub\n      swap1\n      return\n        /* \"WagersWorld/RealWager.sol\":1012:1056  mapping(address => UserInfo) public userInfo */\n    tag_6:\n      tag_41\n      0x04\n      dup1\n      calldatasize\n      sub\n      dup2\n      add\n      swap1\n      tag_42\n      swap2\n      swap1\n      tag_43\n      jump\t// in\n    tag_42:\n      tag_44\n      jump\t// in\n    tag_41:\n      mload(0x40)\n      tag_45\n      swap6\n      swap5\n      swap4\n      swap3\n      swap2\n      swap1\n      tag_46\n      jump\t// in\n    tag_45:\n      mload(0x40)\n      dup1\n      swap2\n      sub\n      swap1\n      return\n        /* \"WagersWorld/RealWager.sol\":11512:11689  function getInitialPrices() public view returns (uint256, uint256) {... */\n    tag_7:\n      tag_47\n      tag_48\n      jump\t// in\n    tag_47:\n      mload(0x40)\n      tag_49\n      swap3\n      swap2\n      swap1\n      tag_50\n      jump\t// in\n    tag_49:\n      mload(0x40)\n      dup1\n      swap2\n      sub\n      swap1\n      return\n        /* \"WagersWorld/RealWager.sol\":4067:4727  function PriceCalculation(uint256 _totalBetAmountOnNo, uint256 _totalBetAmountOnYes) public pure returns (uint256 yesSharePrice, uint256 noSharePrice) {... */\n    tag_8:\n      tag_51\n      0x04\n      dup1\n      calldatasize\n      sub\n      dup2\n      add\n      swap1\n      tag_52\n      swap2\n      swap1\n      tag_53\n      jump\t// in\n    tag_52:\n      tag_54\n      jump\t// in\n    tag_51:\n      mload(0x40)\n      tag_55\n      swap3\n      swap2\n      swap1\n      tag_50\n      jump\t// in\n    tag_55:\n      mload(0x40)\n      dup1\n      swap2\n      sub\n      swap1\n      return\n        /* \"WagersWorld/RealWager.sol\":11696:12186  function readSellInfo(address _owner, uint256 _id) public view returns (... */\n    tag_9:\n      tag_56\n      0x04\n      dup1\n      calldatasize\n      sub\n      dup2\n      add\n      swap1\n      tag_57\n      swap2\n      swap1\n      tag_33\n      jump\t// in\n    tag_57:\n      tag_58\n      jump\t// in\n    tag_56:\n      mload(0x40)\n      tag_59\n      swap7\n      swap6\n      swap5\n      swap4\n      swap3\n      swap2\n      swap1\n      tag_60\n      jump\t// in\n    tag_59:\n      mload(0x40)\n      dup1\n      swap2\n      sub\n      swap1\n      return\n        /* \"WagersWorld/RealWager.sol\":4971:6411  function sellShare(uint256 _amount, uint256 _price, uint256 _sellOf) external {... */\n    tag_10:\n      tag_61\n      0x04\n      dup1\n      calldatasize\n      sub\n      dup2\n      add\n      swap1\n      tag_62\n      swap2\n      swap1\n      tag_63\n      jump\t// in\n    tag_62:\n      tag_64\n      jump\t// in\n    tag_61:\n      stop\n        /* \"WagersWorld/RealWager.sol\":1116:1180  mapping(address => mapping(uint256 => SellInfo)) public sellInfo */\n    tag_11:\n      tag_65\n      0x04\n      dup1\n      calldatasize\n      sub\n      dup2\n      add\n      swap1\n      tag_66\n      swap2\n      swap1\n      tag_33\n      jump\t// in\n    tag_66:\n      tag_67\n      jump\t// in\n    tag_65:\n      mload(0x40)\n      tag_68\n      swap7\n      swap6\n      swap5\n      swap4\n      swap3\n      swap2\n      swap1\n      tag_60\n      jump\t// in\n    tag_68:\n      mload(0x40)\n      dup1\n      swap2\n      sub\n      swap1\n      return\n        /* \"WagersWorld/RealWager.sol\":7933:10763  function resolveMarket(uint256 winningIndex) external   {... */\n    tag_12:\n      tag_69\n      0x04\n      dup1\n      calldatasize\n      sub\n      dup2\n      add\n      swap1\n      tag_70\n      swap2\n      swap1\n      tag_27\n      jump\t// in\n    tag_70:\n      tag_71\n      jump\t// in\n    tag_69:\n      stop\n        /* \"WagersWorld/RealWager.sol\":2671:4060  function bet(uint256 _amount, uint256 _betOn) external {... */\n    tag_13:\n      tag_72\n      0x04\n      dup1\n      calldatasize\n      sub\n      dup2\n      add\n      swap1\n      tag_73\n      swap2\n      swap1\n      tag_53\n      jump\t// in\n    tag_73:\n      tag_74\n      jump\t// in\n    tag_72:\n      stop\n        /* \"@openzeppelin/contracts/access/Ownable.sol\":2293:2394  function renounceOwnership() public virtual onlyOwner {... */\n    tag_14:\n      tag_75\n      tag_76\n      jump\t// in\n    tag_75:\n      stop\n        /* \"@openzeppelin/contracts/access/Ownable.sol\":1638:1723  function owner() public view virtual returns (address) {... */\n    tag_15:\n      tag_77\n      tag_78\n      jump\t// in\n    tag_77:\n      mload(0x40)\n      tag_79\n      swap2\n      swap1\n      tag_30\n      jump\t// in\n    tag_79:\n      mload(0x40)\n      dup1\n      swap2\n      sub\n      swap1\n      return\n        /* \"WagersWorld/RealWager.sol\":10774:11089  function calculateShares(uint256 _amount, uint256 _betOn ) public view returns (uint256) {... */\n    tag_16:\n      tag_80\n      0x04\n      dup1\n      calldatasize\n      sub\n      dup2\n      add\n      swap1\n      tag_81\n      swap2\n      swap1\n      tag_53\n      jump\t// in\n    tag_81:\n      tag_82\n      jump\t// in\n    tag_80:\n      mload(0x40)\n      tag_83\n      swap2\n      swap1\n      tag_84\n      jump\t// in\n    tag_83:\n      mload(0x40)\n      dup1\n      swap2\n      sub\n      swap1\n      return\n        /* \"WagersWorld/RealWager.sol\":925:956  uint256 public profitPercentage */\n    tag_17:\n      tag_85\n      tag_86\n      jump\t// in\n    tag_85:\n      mload(0x40)\n      tag_87\n      swap2\n      swap1\n      tag_84\n      jump\t// in\n    tag_87:\n      mload(0x40)\n      dup1\n      swap2\n      sub\n      swap1\n      return\n        /* \"WagersWorld/RealWager.sol\":894:919  uint256 public totalUsers */\n    tag_18:\n      tag_88\n      tag_89\n      jump\t// in\n    tag_88:\n      mload(0x40)\n      tag_90\n      swap2\n      swap1\n      tag_84\n      jump\t// in\n    tag_90:\n      mload(0x40)\n      dup1\n      swap2\n      sub\n      swap1\n      return\n        /* \"WagersWorld/RealWager.sol\":1062:1110  mapping(address => MarketInfo) public marketInfo */\n    tag_19:\n      tag_91\n      0x04\n      dup1\n      calldatasize\n      sub\n      dup2\n      add\n      swap1\n      tag_92\n      swap2\n      swap1\n      tag_43\n      jump\t// in\n    tag_92:\n      tag_93\n      jump\t// in\n    tag_91:\n      mload(0x40)\n      tag_94\n      swap7\n      swap6\n      swap5\n      swap4\n      swap3\n      swap2\n      swap1\n      tag_95\n      jump\t// in\n    tag_94:\n      mload(0x40)\n      dup1\n      swap2\n      sub\n      swap1\n      return\n        /* \"@openzeppelin/contracts/access/Ownable.sol\":2543:2758  function transferOwnership(address newOwner) public virtual onlyOwner {... */\n    tag_20:\n      tag_96\n      0x04\n      dup1\n      calldatasize\n      sub\n      dup2\n      add\n      swap1\n      tag_97\n      swap2\n      swap1\n      tag_43\n      jump\t// in\n    tag_97:\n      tag_98\n      jump\t// in\n    tag_96:\n      stop\n        /* \"WagersWorld/RealWager.sol\":6417:7922  function buyShare(uint256 _listNo, address _owner) external {... */\n    tag_21:\n      tag_99\n      0x04\n      dup1\n      calldatasize\n      sub\n      dup2\n      add\n      swap1\n      tag_100\n      swap2\n      swap1\n      tag_101\n      jump\t// in\n    tag_100:\n      tag_102\n      jump\t// in\n    tag_99:\n      stop\n        /* \"WagersWorld/RealWager.sol\":963:1006  mapping(uint256 => address) public eachUser */\n    tag_28:\n      mstore(0x20, 0x04)\n      dup1\n      0x00\n      mstore\n      keccak256(0x00, 0x40)\n      0x00\n      swap2\n      pop\n      sload\n      swap1\n      0x0100\n      exp\n      swap1\n      div\n      0xffffffffffffffffffffffffffffffffffffffff\n      and\n      dup2\n      jump\t// out\n        /* \"WagersWorld/RealWager.sol\":12192:12328  function userBetOn(address _user, uint256 _betIndex) public view returns (bool) {... */\n    tag_34:\n        /* \"WagersWorld/RealWager.sol\":12266:12270  bool */\n      0x00\n        /* \"WagersWorld/RealWager.sol\":12289:12297  userInfo */\n      0x05\n        /* \"WagersWorld/RealWager.sol\":12289:12304  userInfo[_user] */\n      0x00\n        /* \"WagersWorld/RealWager.sol\":12298:12303  _user */\n      dup5\n        /* \"WagersWorld/RealWager.sol\":12289:12304  userInfo[_user] */\n      0xffffffffffffffffffffffffffffffffffffffff\n      and\n      0xffffffffffffffffffffffffffffffffffffffff\n      and\n      dup2\n      mstore\n      0x20\n      add\n      swap1\n      dup2\n      mstore\n      0x20\n      add\n      0x00\n      keccak256\n        /* \"WagersWorld/RealWager.sol\":12289:12310  userInfo[_user].betOn */\n      0x05\n      add\n        /* \"WagersWorld/RealWager.sol\":12289:12321  userInfo[_user].betOn[_betIndex] */\n      0x00\n        /* \"WagersWorld/RealWager.sol\":12311:12320  _betIndex */\n      dup4\n        /* \"WagersWorld/RealWager.sol\":12289:12321  userInfo[_user].betOn[_betIndex] */\n      dup2\n      mstore\n      0x20\n      add\n      swap1\n      dup2\n      mstore\n      0x20\n      add\n      0x00\n      keccak256\n      0x00\n      swap1\n      sload\n      swap1\n      0x0100\n      exp\n      swap1\n      div\n      0xff\n      and\n        /* \"WagersWorld/RealWager.sol\":12282:12321  return userInfo[_user].betOn[_betIndex] */\n      swap1\n      pop\n        /* \"WagersWorld/RealWager.sol\":12192:12328  function userBetOn(address _user, uint256 _betIndex) public view returns (bool) {... */\n      swap3\n      swap2\n      pop\n      pop\n      jump\t// out\n        /* \"WagersWorld/RealWager.sol\":252:274  ERC20 public usdcToken */\n    tag_38:\n      0x01\n      0x00\n      swap1\n      sload\n      swap1\n      0x0100\n      exp\n      swap1\n      div\n      0xffffffffffffffffffffffffffffffffffffffff\n      and\n      dup2\n      jump\t// out\n        /* \"WagersWorld/RealWager.sol\":1012:1056  mapping(address => UserInfo) public userInfo */\n    tag_44:\n      mstore(0x20, 0x05)\n      dup1\n      0x00\n      mstore\n      keccak256(0x00, 0x40)\n      0x00\n      swap2\n      pop\n      swap1\n      pop\n      dup1\n      0x00\n      add\n      sload\n      swap1\n      dup1\n      0x01\n      add\n      sload\n      swap1\n      dup1\n      0x02\n      add\n      sload\n      swap1\n      dup1\n      0x03\n      add\n      sload\n      swap1\n      dup1\n      0x04\n      add\n      sload\n      swap1\n      pop\n      dup6\n      jump\t// out\n        /* \"WagersWorld/RealWager.sol\":11512:11689  function getInitialPrices() public view returns (uint256, uint256) {... */\n    tag_48:\n        /* \"WagersWorld/RealWager.sol\":11561:11568  uint256 */\n      0x00\n        /* \"WagersWorld/RealWager.sol\":11570:11577  uint256 */\n      dup1\n        /* \"WagersWorld/RealWager.sol\":11597:11607  marketInfo */\n      0x06\n        /* \"WagersWorld/RealWager.sol\":11597:11622  marketInfo[address(this)] */\n      0x00\n        /* \"WagersWorld/RealWager.sol\":11616:11620  this */\n      address\n        /* \"WagersWorld/RealWager.sol\":11597:11622  marketInfo[address(this)] */\n      0xffffffffffffffffffffffffffffffffffffffff\n      and\n      0xffffffffffffffffffffffffffffffffffffffff\n      and\n      dup2\n      mstore\n      0x20\n      add\n      swap1\n      dup2\n      mstore\n      0x20\n      add\n      0x00\n      keccak256\n        /* \"WagersWorld/RealWager.sol\":11597:11635  marketInfo[address(this)].initialPrice */\n      0x04\n      add\n        /* \"WagersWorld/RealWager.sol\":11636:11637  0 */\n      0x00\n        /* \"WagersWorld/RealWager.sol\":11597:11638  marketInfo[address(this)].initialPrice[0] */\n      0x02\n      dup2\n      lt\n      tag_105\n      jumpi\n      tag_106\n      tag_107\n      jump\t// in\n    tag_106:\n    tag_105:\n      add\n      sload\n        /* \"WagersWorld/RealWager.sol\":11640:11650  marketInfo */\n      0x06\n        /* \"WagersWorld/RealWager.sol\":11640:11665  marketInfo[address(this)] */\n      0x00\n        /* \"WagersWorld/RealWager.sol\":11659:11663  this */\n      address\n        /* \"WagersWorld/RealWager.sol\":11640:11665  marketInfo[address(this)] */\n      0xffffffffffffffffffffffffffffffffffffffff\n      and\n      0xffffffffffffffffffffffffffffffffffffffff\n      and\n      dup2\n      mstore\n      0x20\n      add\n      swap1\n      dup2\n      mstore\n      0x20\n      add\n      0x00\n      keccak256\n        /* \"WagersWorld/RealWager.sol\":11640:11678  marketInfo[address(this)].initialPrice */\n      0x04\n      add\n        /* \"WagersWorld/RealWager.sol\":11679:11680  1 */\n      0x01\n        /* \"WagersWorld/RealWager.sol\":11640:11681  marketInfo[address(this)].initialPrice[1] */\n      0x02\n      dup2\n      lt\n      tag_109\n      jumpi\n      tag_110\n      tag_107\n      jump\t// in\n    tag_110:\n    tag_109:\n      add\n      sload\n        /* \"WagersWorld/RealWager.sol\":11589:11682  return (marketInfo[address(this)].initialPrice[0], marketInfo[address(this)].initialPrice[1]) */\n      swap2\n      pop\n      swap2\n      pop\n        /* \"WagersWorld/RealWager.sol\":11512:11689  function getInitialPrices() public view returns (uint256, uint256) {... */\n      swap1\n      swap2\n      jump\t// out\n        /* \"WagersWorld/RealWager.sol\":4067:4727  function PriceCalculation(uint256 _totalBetAmountOnNo, uint256 _totalBetAmountOnYes) public pure returns (uint256 yesSharePrice, uint256 noSharePrice) {... */\n    tag_54:\n        /* \"WagersWorld/RealWager.sol\":4173:4194  uint256 yesSharePrice */\n      0x00\n        /* \"WagersWorld/RealWager.sol\":4196:4216  uint256 noSharePrice */\n      dup1\n        /* \"WagersWorld/RealWager.sol\":4228:4245  uint256 _totalBet */\n      0x00\n        /* \"WagersWorld/RealWager.sol\":4270:4290  _totalBetAmountOnYes */\n      dup4\n        /* \"WagersWorld/RealWager.sol\":4248:4267  _totalBetAmountOnNo */\n      dup6\n        /* \"WagersWorld/RealWager.sol\":4248:4290  _totalBetAmountOnNo + _totalBetAmountOnYes */\n      tag_113\n      swap2\n      swap1\n      tag_114\n      jump\t// in\n    tag_113:\n        /* \"WagersWorld/RealWager.sol\":4228:4290  uint256 _totalBet = _totalBetAmountOnNo + _totalBetAmountOnYes */\n      swap1\n      pop\n        /* \"WagersWorld/RealWager.sol\":4317:4318  0 */\n      0x00\n        /* \"WagersWorld/RealWager.sol\":4304:4313  _totalBet */\n      dup2\n        /* \"WagersWorld/RealWager.sol\":4304:4318  _totalBet == 0 */\n      sub\n        /* \"WagersWorld/RealWager.sol\":4300:4419  if (_totalBet == 0) {... */\n      tag_115\n      jumpi\n        /* \"WagersWorld/RealWager.sol\":4342:4351  0.5 ether */\n      0x06f05b59d3b20000\n        /* \"WagersWorld/RealWager.sol\":4353:4362  0.5 ether */\n      dup1\n        /* \"WagersWorld/RealWager.sol\":4334:4363  return (0.5 ether, 0.5 ether) */\n      swap3\n      pop\n      swap3\n      pop\n      pop\n      jump(tag_112)\n        /* \"WagersWorld/RealWager.sol\":4300:4419  if (_totalBet == 0) {... */\n    tag_115:\n        /* \"WagersWorld/RealWager.sol\":4429:4448  uint256 lahoreRatio */\n      0x00\n        /* \"WagersWorld/RealWager.sol\":4482:4491  _totalBet */\n      dup2\n        /* \"WagersWorld/RealWager.sol\":4475:4478  100 */\n      0x64\n        /* \"WagersWorld/RealWager.sol\":4452:4472  _totalBetAmountOnYes */\n      dup7\n        /* \"WagersWorld/RealWager.sol\":4452:4478  _totalBetAmountOnYes * 100 */\n      tag_116\n      swap2\n      swap1\n      tag_117\n      jump\t// in\n    tag_116:\n        /* \"WagersWorld/RealWager.sol\":4451:4491  (_totalBetAmountOnYes * 100) / _totalBet */\n      tag_118\n      swap2\n      swap1\n      tag_119\n      jump\t// in\n    tag_118:\n        /* \"WagersWorld/RealWager.sol\":4429:4491  uint256 lahoreRatio = (_totalBetAmountOnYes * 100) / _totalBet */\n      swap1\n      pop\n        /* \"WagersWorld/RealWager.sol\":4501:4521  uint256 karachiRatio */\n      0x00\n        /* \"WagersWorld/RealWager.sol\":4554:4563  _totalBet */\n      dup3\n        /* \"WagersWorld/RealWager.sol\":4547:4550  100 */\n      0x64\n        /* \"WagersWorld/RealWager.sol\":4525:4544  _totalBetAmountOnNo */\n      dup9\n        /* \"WagersWorld/RealWager.sol\":4525:4550  _totalBetAmountOnNo * 100 */\n      tag_120\n      swap2\n      swap1\n      tag_117\n      jump\t// in\n    tag_120:\n        /* \"WagersWorld/RealWager.sol\":4524:4563  (_totalBetAmountOnNo * 100) / _totalBet */\n      tag_121\n      swap2\n      swap1\n      tag_119\n      jump\t// in\n    tag_121:\n        /* \"WagersWorld/RealWager.sol\":4501:4563  uint256 karachiRatio = (_totalBetAmountOnNo * 100) / _totalBet */\n      swap1\n      pop\n        /* \"WagersWorld/RealWager.sol\":4638:4642  1e16 */\n      0x2386f26fc10000\n        /* \"WagersWorld/RealWager.sol\":4590:4635  clamp(((lahoreRatio * 99) / 100) + 1, 1, 100) */\n      tag_122\n        /* \"WagersWorld/RealWager.sol\":4625:4626  1 */\n      0x01\n        /* \"WagersWorld/RealWager.sol\":4618:4621  100 */\n      0x64\n        /* \"WagersWorld/RealWager.sol\":4612:4614  99 */\n      0x63\n        /* \"WagersWorld/RealWager.sol\":4598:4609  lahoreRatio */\n      dup7\n        /* \"WagersWorld/RealWager.sol\":4598:4614  lahoreRatio * 99 */\n      tag_123\n      swap2\n      swap1\n      tag_117\n      jump\t// in\n    tag_123:\n        /* \"WagersWorld/RealWager.sol\":4597:4621  (lahoreRatio * 99) / 100 */\n      tag_124\n      swap2\n      swap1\n      tag_119\n      jump\t// in\n    tag_124:\n        /* \"WagersWorld/RealWager.sol\":4596:4626  ((lahoreRatio * 99) / 100) + 1 */\n      tag_125\n      swap2\n      swap1\n      tag_114\n      jump\t// in\n    tag_125:\n        /* \"WagersWorld/RealWager.sol\":4628:4629  1 */\n      0x01\n        /* \"WagersWorld/RealWager.sol\":4631:4634  100 */\n      0x64\n        /* \"WagersWorld/RealWager.sol\":4590:4595  clamp */\n      tag_126\n        /* \"WagersWorld/RealWager.sol\":4590:4635  clamp(((lahoreRatio * 99) / 100) + 1, 1, 100) */\n      jump\t// in\n    tag_122:\n        /* \"WagersWorld/RealWager.sol\":4590:4642  clamp(((lahoreRatio * 99) / 100) + 1, 1, 100) * 1e16 */\n      tag_127\n      swap2\n      swap1\n      tag_117\n      jump\t// in\n    tag_127:\n        /* \"WagersWorld/RealWager.sol\":4574:4642  yesSharePrice = clamp(((lahoreRatio * 99) / 100) + 1, 1, 100) * 1e16 */\n      swap5\n      pop\n        /* \"WagersWorld/RealWager.sol\":4716:4720  1e16 */\n      0x2386f26fc10000\n        /* \"WagersWorld/RealWager.sol\":4667:4713  clamp(((karachiRatio * 99) / 100) + 1, 1, 100) */\n      tag_128\n        /* \"WagersWorld/RealWager.sol\":4703:4704  1 */\n      0x01\n        /* \"WagersWorld/RealWager.sol\":4696:4699  100 */\n      0x64\n        /* \"WagersWorld/RealWager.sol\":4690:4692  99 */\n      0x63\n        /* \"WagersWorld/RealWager.sol\":4675:4687  karachiRatio */\n      dup6\n        /* \"WagersWorld/RealWager.sol\":4675:4692  karachiRatio * 99 */\n      tag_129\n      swap2\n      swap1\n      tag_117\n      jump\t// in\n    tag_129:\n        /* \"WagersWorld/RealWager.sol\":4674:4699  (karachiRatio * 99) / 100 */\n      tag_130\n      swap2\n      swap1\n      tag_119\n      jump\t// in\n    tag_130:\n        /* \"WagersWorld/RealWager.sol\":4673:4704  ((karachiRatio * 99) / 100) + 1 */\n      tag_131\n      swap2\n      swap1\n      tag_114\n      jump\t// in\n    tag_131:\n        /* \"WagersWorld/RealWager.sol\":4706:4707  1 */\n      0x01\n        /* \"WagersWorld/RealWager.sol\":4709:4712  100 */\n      0x64\n        /* \"WagersWorld/RealWager.sol\":4667:4672  clamp */\n      tag_126\n        /* \"WagersWorld/RealWager.sol\":4667:4713  clamp(((karachiRatio * 99) / 100) + 1, 1, 100) */\n      jump\t// in\n    tag_128:\n        /* \"WagersWorld/RealWager.sol\":4667:4720  clamp(((karachiRatio * 99) / 100) + 1, 1, 100) * 1e16 */\n      tag_132\n      swap2\n      swap1\n      tag_117\n      jump\t// in\n    tag_132:\n        /* \"WagersWorld/RealWager.sol\":4652:4720  noSharePrice = clamp(((karachiRatio * 99) / 100) + 1, 1, 100) * 1e16 */\n      swap4\n      pop\n        /* \"WagersWorld/RealWager.sol\":4218:4727  {... */\n      pop\n      pop\n      pop\n        /* \"WagersWorld/RealWager.sol\":4067:4727  function PriceCalculation(uint256 _totalBetAmountOnNo, uint256 _totalBetAmountOnYes) public pure returns (uint256 yesSharePrice, uint256 noSharePrice) {... */\n    tag_112:\n      swap3\n      pop\n      swap3\n      swap1\n      pop\n      jump\t// out\n        /* \"WagersWorld/RealWager.sol\":11696:12186  function readSellInfo(address _owner, uint256 _id) public view returns (... */\n    tag_58:\n        /* \"WagersWorld/RealWager.sol\":11777:11786  bool list */\n      0x00\n        /* \"WagersWorld/RealWager.sol\":11796:11805  bool sold */\n      dup1\n        /* \"WagersWorld/RealWager.sol\":11815:11828  address owner */\n      0x00\n        /* \"WagersWorld/RealWager.sol\":11838:11851  uint256 price */\n      dup1\n        /* \"WagersWorld/RealWager.sol\":11861:11875  uint256 amount */\n      0x00\n        /* \"WagersWorld/RealWager.sol\":11885:11899  uint256 listOn */\n      dup1\n        /* \"WagersWorld/RealWager.sol\":11937:11945  sellInfo */\n      0x07\n        /* \"WagersWorld/RealWager.sol\":11937:11953  sellInfo[_owner] */\n      0x00\n        /* \"WagersWorld/RealWager.sol\":11946:11952  _owner */\n      dup10\n        /* \"WagersWorld/RealWager.sol\":11937:11953  sellInfo[_owner] */\n      0xffffffffffffffffffffffffffffffffffffffff\n      and\n      0xffffffffffffffffffffffffffffffffffffffff\n      and\n      dup2\n      mstore\n      0x20\n      add\n      swap1\n      dup2\n      mstore\n      0x20\n      add\n      0x00\n      keccak256\n        /* \"WagersWorld/RealWager.sol\":11937:11958  sellInfo[_owner][_id] */\n      0x00\n        /* \"WagersWorld/RealWager.sol\":11954:11957  _id */\n      dup9\n        /* \"WagersWorld/RealWager.sol\":11937:11958  sellInfo[_owner][_id] */\n      dup2\n      mstore\n      0x20\n      add\n      swap1\n      dup2\n      mstore\n      0x20\n      add\n      0x00\n      keccak256\n        /* \"WagersWorld/RealWager.sol\":11937:11963  sellInfo[_owner][_id].list */\n      0x00\n      add\n      0x00\n      swap1\n      sload\n      swap1\n      0x0100\n      exp\n      swap1\n      div\n      0xff\n      and\n        /* \"WagersWorld/RealWager.sol\":11977:11985  sellInfo */\n      0x07\n        /* \"WagersWorld/RealWager.sol\":11977:11993  sellInfo[_owner] */\n      0x00\n        /* \"WagersWorld/RealWager.sol\":11986:11992  _owner */\n      dup11\n        /* \"WagersWorld/RealWager.sol\":11977:11993  sellInfo[_owner] */\n      0xffffffffffffffffffffffffffffffffffffffff\n      and\n      0xffffffffffffffffffffffffffffffffffffffff\n      and\n      dup2\n      mstore\n      0x20\n      add\n      swap1\n      dup2\n      mstore\n      0x20\n      add\n      0x00\n      keccak256\n        /* \"WagersWorld/RealWager.sol\":11977:11998  sellInfo[_owner][_id] */\n      0x00\n        /* \"WagersWorld/RealWager.sol\":11994:11997  _id */\n      dup10\n        /* \"WagersWorld/RealWager.sol\":11977:11998  sellInfo[_owner][_id] */\n      dup2\n      mstore\n      0x20\n      add\n      swap1\n      dup2\n      mstore\n      0x20\n      add\n      0x00\n      keccak256\n        /* \"WagersWorld/RealWager.sol\":11977:12003  sellInfo[_owner][_id].sold */\n      0x00\n      add\n      0x01\n      swap1\n      sload\n      swap1\n      0x0100\n      exp\n      swap1\n      div\n      0xff\n      and\n        /* \"WagersWorld/RealWager.sol\":12017:12025  sellInfo */\n      0x07\n        /* \"WagersWorld/RealWager.sol\":12017:12033  sellInfo[_owner] */\n      0x00\n        /* \"WagersWorld/RealWager.sol\":12026:12032  _owner */\n      dup12\n        /* \"WagersWorld/RealWager.sol\":12017:12033  sellInfo[_owner] */\n      0xffffffffffffffffffffffffffffffffffffffff\n      and\n      0xffffffffffffffffffffffffffffffffffffffff\n      and\n      dup2\n      mstore\n      0x20\n      add\n      swap1\n      dup2\n      mstore\n      0x20\n      add\n      0x00\n      keccak256\n        /* \"WagersWorld/RealWager.sol\":12017:12038  sellInfo[_owner][_id] */\n      0x00\n        /* \"WagersWorld/RealWager.sol\":12034:12037  _id */\n      dup11\n        /* \"WagersWorld/RealWager.sol\":12017:12038  sellInfo[_owner][_id] */\n      dup2\n      mstore\n      0x20\n      add\n      swap1\n      dup2\n      mstore\n      0x20\n      add\n      0x00\n      keccak256\n        /* \"WagersWorld/RealWager.sol\":12017:12044  sellInfo[_owner][_id].owner */\n      0x00\n      add\n      0x02\n      swap1\n      sload\n      swap1\n      0x0100\n      exp\n      swap1\n      div\n      0xffffffffffffffffffffffffffffffffffffffff\n      and\n        /* \"WagersWorld/RealWager.sol\":12058:12066  sellInfo */\n      0x07\n        /* \"WagersWorld/RealWager.sol\":12058:12074  sellInfo[_owner] */\n      0x00\n        /* \"WagersWorld/RealWager.sol\":12067:12073  _owner */\n      dup13\n        /* \"WagersWorld/RealWager.sol\":12058:12074  sellInfo[_owner] */\n      0xffffffffffffffffffffffffffffffffffffffff\n      and\n      0xffffffffffffffffffffffffffffffffffffffff\n      and\n      dup2\n      mstore\n      0x20\n      add\n      swap1\n      dup2\n      mstore\n      0x20\n      add\n      0x00\n      keccak256\n        /* \"WagersWorld/RealWager.sol\":12058:12079  sellInfo[_owner][_id] */\n      0x00\n        /* \"WagersWorld/RealWager.sol\":12075:12078  _id */\n      dup12\n        /* \"WagersWorld/RealWager.sol\":12058:12079  sellInfo[_owner][_id] */\n      dup2\n      mstore\n      0x20\n      add\n      swap1\n      dup2\n      mstore\n      0x20\n      add\n      0x00\n      keccak256\n        /* \"WagersWorld/RealWager.sol\":12058:12085  sellInfo[_owner][_id].price */\n      0x01\n      add\n      sload\n        /* \"WagersWorld/RealWager.sol\":12099:12107  sellInfo */\n      0x07\n        /* \"WagersWorld/RealWager.sol\":12099:12115  sellInfo[_owner] */\n      0x00\n        /* \"WagersWorld/RealWager.sol\":12108:12114  _owner */\n      dup14\n        /* \"WagersWorld/RealWager.sol\":12099:12115  sellInfo[_owner] */\n      0xffffffffffffffffffffffffffffffffffffffff\n      and\n      0xffffffffffffffffffffffffffffffffffffffff\n      and\n      dup2\n      mstore\n      0x20\n      add\n      swap1\n      dup2\n      mstore\n      0x20\n      add\n      0x00\n      keccak256\n        /* \"WagersWorld/RealWager.sol\":12099:12120  sellInfo[_owner][_id] */\n      0x00\n        /* \"WagersWorld/RealWager.sol\":12116:12119  _id */\n      dup13\n        /* \"WagersWorld/RealWager.sol\":12099:12120  sellInfo[_owner][_id] */\n      dup2\n      mstore\n      0x20\n      add\n      swap1\n      dup2\n      mstore\n      0x20\n      add\n      0x00\n      keccak256\n        /* \"WagersWorld/RealWager.sol\":12099:12127  sellInfo[_owner][_id].amount */\n      0x02\n      add\n      sload\n        /* \"WagersWorld/RealWager.sol\":12141:12149  sellInfo */\n      0x07\n        /* \"WagersWorld/RealWager.sol\":12141:12157  sellInfo[_owner] */\n      0x00\n        /* \"WagersWorld/RealWager.sol\":12150:12156  _owner */\n      dup15\n        /* \"WagersWorld/RealWager.sol\":12141:12157  sellInfo[_owner] */\n      0xffffffffffffffffffffffffffffffffffffffff\n      and\n      0xffffffffffffffffffffffffffffffffffffffff\n      and\n      dup2\n      mstore\n      0x20\n      add\n      swap1\n      dup2\n      mstore\n      0x20\n      add\n      0x00\n      keccak256\n        /* \"WagersWorld/RealWager.sol\":12141:12162  sellInfo[_owner][_id] */\n      0x00\n        /* \"WagersWorld/RealWager.sol\":12158:12161  _id */\n      dup14\n        /* \"WagersWorld/RealWager.sol\":12141:12162  sellInfo[_owner][_id] */\n      dup2\n      mstore\n      0x20\n      add\n      swap1\n      dup2\n      mstore\n      0x20\n      add\n      0x00\n      keccak256\n        /* \"WagersWorld/RealWager.sol\":12141:12169  sellInfo[_owner][_id].listOn */\n      0x03\n      add\n      sload\n        /* \"WagersWorld/RealWager.sol\":11916:12179  return (... */\n      swap6\n      pop\n      swap6\n      pop\n      swap6\n      pop\n      swap6\n      pop\n      swap6\n      pop\n      swap6\n      pop\n        /* \"WagersWorld/RealWager.sol\":11696:12186  function readSellInfo(address _owner, uint256 _id) public view returns (... */\n      swap3\n      swap6\n      pop\n      swap3\n      swap6\n      pop\n      swap3\n      swap6\n      jump\t// out\n        /* \"WagersWorld/RealWager.sol\":4971:6411  function sellShare(uint256 _amount, uint256 _price, uint256 _sellOf) external {... */\n    tag_64:\n        /* \"WagersWorld/RealWager.sol\":5082:5083  0 */\n      0x00\n        /* \"WagersWorld/RealWager.sol\":5071:5078  _sellOf */\n      dup2\n        /* \"WagersWorld/RealWager.sol\":5071:5083  _sellOf != 0 */\n      eq\n      iszero\n        /* \"WagersWorld/RealWager.sol\":5071:5099  _sellOf != 0 && _sellOf != 1 */\n      dup1\n      iszero\n      tag_135\n      jumpi\n      pop\n        /* \"WagersWorld/RealWager.sol\":5098:5099  1 */\n      0x01\n        /* \"WagersWorld/RealWager.sol\":5087:5094  _sellOf */\n      dup2\n        /* \"WagersWorld/RealWager.sol\":5087:5099  _sellOf != 1 */\n      eq\n      iszero\n        /* \"WagersWorld/RealWager.sol\":5071:5099  _sellOf != 0 && _sellOf != 1 */\n    tag_135:\n        /* \"WagersWorld/RealWager.sol\":5068:5154  if(_sellOf != 0 && _sellOf != 1){... */\n      iszero\n      tag_136\n      jumpi\n        /* \"WagersWorld/RealWager.sol\":5135:5142  _sellOf */\n      dup1\n        /* \"WagersWorld/RealWager.sol\":5121:5143  wrongBetIndex(_sellOf) */\n      mload(0x40)\n      0xd7acbe8900000000000000000000000000000000000000000000000000000000\n      dup2\n      mstore\n      0x04\n      add\n      tag_137\n      swap2\n      swap1\n      tag_84\n      jump\t// in\n    tag_137:\n      mload(0x40)\n      dup1\n      swap2\n      sub\n      swap1\n      revert\n        /* \"WagersWorld/RealWager.sol\":5068:5154  if(_sellOf != 0 && _sellOf != 1){... */\n    tag_136:\n        /* \"WagersWorld/RealWager.sol\":5177:5178  0 */\n      0x00\n        /* \"WagersWorld/RealWager.sol\":5166:5173  _amount */\n      dup4\n        /* \"WagersWorld/RealWager.sol\":5166:5178  _amount <= 0 */\n      gt\n        /* \"WagersWorld/RealWager.sol\":5163:5231  if(_amount <= 0){... */\n      tag_138\n      jumpi\n        /* \"WagersWorld/RealWager.sol\":5212:5219  _amount */\n      dup3\n        /* \"WagersWorld/RealWager.sol\":5200:5220  wrongAmount(_amount) */\n      mload(0x40)\n      0x2ff4783000000000000000000000000000000000000000000000000000000000\n      dup2\n      mstore\n      0x04\n      add\n      tag_139\n      swap2\n      swap1\n      tag_84\n      jump\t// in\n    tag_139:\n      mload(0x40)\n      dup1\n      swap2\n      sub\n      swap1\n      revert\n        /* \"WagersWorld/RealWager.sol\":5163:5231  if(_amount <= 0){... */\n    tag_138:\n        /* \"WagersWorld/RealWager.sol\":5252:5262  marketInfo */\n      0x06\n        /* \"WagersWorld/RealWager.sol\":5252:5277  marketInfo[address(this)] */\n      0x00\n        /* \"WagersWorld/RealWager.sol\":5271:5275  this */\n      address\n        /* \"WagersWorld/RealWager.sol\":5252:5277  marketInfo[address(this)] */\n      0xffffffffffffffffffffffffffffffffffffffff\n      and\n      0xffffffffffffffffffffffffffffffffffffffff\n      and\n      dup2\n      mstore\n      0x20\n      add\n      swap1\n      dup2\n      mstore\n      0x20\n      add\n      0x00\n      keccak256\n        /* \"WagersWorld/RealWager.sol\":5252:5286  marketInfo[address(this)].resolved */\n      0x00\n      add\n      0x00\n      swap1\n      sload\n      swap1\n      0x0100\n      exp\n      swap1\n      div\n      0xff\n      and\n        /* \"WagersWorld/RealWager.sol\":5249:5335  if(marketInfo[address(this)].resolved){... */\n      iszero\n      tag_140\n      jumpi\n        /* \"WagersWorld/RealWager.sol\":5308:5324  marketResolved() */\n      mload(0x40)\n      0x853fd42100000000000000000000000000000000000000000000000000000000\n      dup2\n      mstore\n      0x04\n      add\n      mload(0x40)\n      dup1\n      swap2\n      sub\n      swap1\n      revert\n        /* \"WagersWorld/RealWager.sol\":5249:5335  if(marketInfo[address(this)].resolved){... */\n    tag_140:\n        /* \"WagersWorld/RealWager.sol\":5349:5357  userInfo */\n      0x05\n        /* \"WagersWorld/RealWager.sol\":5349:5369  userInfo[msg.sender] */\n      0x00\n        /* \"WagersWorld/RealWager.sol\":5358:5368  msg.sender */\n      caller\n        /* \"WagersWorld/RealWager.sol\":5349:5369  userInfo[msg.sender] */\n      0xffffffffffffffffffffffffffffffffffffffff\n      and\n      0xffffffffffffffffffffffffffffffffffffffff\n      and\n      dup2\n      mstore\n      0x20\n      add\n      swap1\n      dup2\n      mstore\n      0x20\n      add\n      0x00\n      keccak256\n        /* \"WagersWorld/RealWager.sol\":5349:5375  userInfo[msg.sender].betOn */\n      0x05\n      add\n        /* \"WagersWorld/RealWager.sol\":5349:5384  userInfo[msg.sender].betOn[_sellOf] */\n      0x00\n        /* \"WagersWorld/RealWager.sol\":5376:5383  _sellOf */\n      dup3\n        /* \"WagersWorld/RealWager.sol\":5349:5384  userInfo[msg.sender].betOn[_sellOf] */\n      dup2\n      mstore\n      0x20\n      add\n      swap1\n      dup2\n      mstore\n      0x20\n      add\n      0x00\n      keccak256\n      0x00\n      swap1\n      sload\n      swap1\n      0x0100\n      exp\n      swap1\n      div\n      0xff\n      and\n        /* \"WagersWorld/RealWager.sol\":5345:5460  if(!userInfo[msg.sender].betOn[_sellOf]){... */\n      tag_141\n      jumpi\n        /* \"WagersWorld/RealWager.sol\":5413:5421  userInfo */\n      0x05\n        /* \"WagersWorld/RealWager.sol\":5413:5433  userInfo[msg.sender] */\n      0x00\n        /* \"WagersWorld/RealWager.sol\":5422:5432  msg.sender */\n      caller\n        /* \"WagersWorld/RealWager.sol\":5413:5433  userInfo[msg.sender] */\n      0xffffffffffffffffffffffffffffffffffffffff\n      and\n      0xffffffffffffffffffffffffffffffffffffffff\n      and\n      dup2\n      mstore\n      0x20\n      add\n      swap1\n      dup2\n      mstore\n      0x20\n      add\n      0x00\n      keccak256\n        /* \"WagersWorld/RealWager.sol\":5413:5439  userInfo[msg.sender].betOn */\n      0x05\n      add\n        /* \"WagersWorld/RealWager.sol\":5413:5448  userInfo[msg.sender].betOn[_sellOf] */\n      0x00\n        /* \"WagersWorld/RealWager.sol\":5440:5447  _sellOf */\n      dup3\n        /* \"WagersWorld/RealWager.sol\":5413:5448  userInfo[msg.sender].betOn[_sellOf] */\n      dup2\n      mstore\n      0x20\n      add\n      swap1\n      dup2\n      mstore\n      0x20\n      add\n      0x00\n      keccak256\n      0x00\n      swap1\n      sload\n      swap1\n      0x0100\n      exp\n      swap1\n      div\n      0xff\n      and\n        /* \"WagersWorld/RealWager.sol\":5406:5449  notBet(userInfo[msg.sender].betOn[_sellOf]) */\n      mload(0x40)\n      0x3c3a312800000000000000000000000000000000000000000000000000000000\n      dup2\n      mstore\n      0x04\n      add\n      tag_142\n      swap2\n      swap1\n      tag_36\n      jump\t// in\n    tag_142:\n      mload(0x40)\n      dup1\n      swap2\n      sub\n      swap1\n      revert\n        /* \"WagersWorld/RealWager.sol\":5345:5460  if(!userInfo[msg.sender].betOn[_sellOf]){... */\n    tag_141:\n        /* \"WagersWorld/RealWager.sol\":5482:5483  0 */\n      0x00\n        /* \"WagersWorld/RealWager.sol\":5472:5478  _price */\n      dup3\n        /* \"WagersWorld/RealWager.sol\":5472:5483  _price <= 0 */\n      gt\n        /* \"WagersWorld/RealWager.sol\":5469:5534  if(_price <= 0){... */\n      tag_143\n      jumpi\n        /* \"WagersWorld/RealWager.sol\":5516:5522  _price */\n      dup2\n        /* \"WagersWorld/RealWager.sol\":5505:5523  wrongPrice(_price) */\n      mload(0x40)\n      0xbfc1948200000000000000000000000000000000000000000000000000000000\n      dup2\n      mstore\n      0x04\n      add\n      tag_144\n      swap2\n      swap1\n      tag_84\n      jump\t// in\n    tag_144:\n      mload(0x40)\n      dup1\n      swap2\n      sub\n      swap1\n      revert\n        /* \"WagersWorld/RealWager.sol\":5469:5534  if(_price <= 0){... */\n    tag_143:\n        /* \"WagersWorld/RealWager.sol\":5566:5567  0 */\n      0x00\n        /* \"WagersWorld/RealWager.sol\":5555:5562  _sellOf */\n      dup2\n        /* \"WagersWorld/RealWager.sol\":5555:5567  _sellOf == 0 */\n      sub\n        /* \"WagersWorld/RealWager.sol\":5552:5891  if(_sellOf == 0){... */\n      tag_145\n      jumpi\n        /* \"WagersWorld/RealWager.sol\":5596:5604  userInfo */\n      0x05\n        /* \"WagersWorld/RealWager.sol\":5596:5616  userInfo[msg.sender] */\n      0x00\n        /* \"WagersWorld/RealWager.sol\":5605:5615  msg.sender */\n      caller\n        /* \"WagersWorld/RealWager.sol\":5596:5616  userInfo[msg.sender] */\n      0xffffffffffffffffffffffffffffffffffffffff\n      and\n      0xffffffffffffffffffffffffffffffffffffffff\n      and\n      dup2\n      mstore\n      0x20\n      add\n      swap1\n      dup2\n      mstore\n      0x20\n      add\n      0x00\n      keccak256\n        /* \"WagersWorld/RealWager.sol\":5596:5628  userInfo[msg.sender].noBetAmount */\n      0x01\n      add\n      sload\n        /* \"WagersWorld/RealWager.sol\":5586:5593  _amount */\n      dup4\n        /* \"WagersWorld/RealWager.sol\":5586:5628  _amount > userInfo[msg.sender].noBetAmount */\n      gt\n        /* \"WagersWorld/RealWager.sol\":5583:5718  if(_amount > userInfo[msg.sender].noBetAmount){... */\n      iszero\n      tag_146\n      jumpi\n        /* \"WagersWorld/RealWager.sol\":5670:5678  userInfo */\n      0x05\n        /* \"WagersWorld/RealWager.sol\":5670:5690  userInfo[msg.sender] */\n      0x00\n        /* \"WagersWorld/RealWager.sol\":5679:5689  msg.sender */\n      caller\n        /* \"WagersWorld/RealWager.sol\":5670:5690  userInfo[msg.sender] */\n      0xffffffffffffffffffffffffffffffffffffffff\n      and\n      0xffffffffffffffffffffffffffffffffffffffff\n      and\n      dup2\n      mstore\n      0x20\n      add\n      swap1\n      dup2\n      mstore\n      0x20\n      add\n      0x00\n      keccak256\n        /* \"WagersWorld/RealWager.sol\":5670:5702  userInfo[msg.sender].noBetAmount */\n      0x01\n      add\n      sload\n        /* \"WagersWorld/RealWager.sol\":5654:5703  notEnoughAmount(userInfo[msg.sender].noBetAmount) */\n      mload(0x40)\n      0x98e712c300000000000000000000000000000000000000000000000000000000\n      dup2\n      mstore\n      0x04\n      add\n      tag_147\n      swap2\n      swap1\n      tag_84\n      jump\t// in\n    tag_147:\n      mload(0x40)\n      dup1\n      swap2\n      sub\n      swap1\n      revert\n        /* \"WagersWorld/RealWager.sol\":5583:5718  if(_amount > userInfo[msg.sender].noBetAmount){... */\n    tag_146:\n        /* \"WagersWorld/RealWager.sol\":5552:5891  if(_sellOf == 0){... */\n      jump(tag_148)\n    tag_145:\n        /* \"WagersWorld/RealWager.sol\":5759:5767  userInfo */\n      0x05\n        /* \"WagersWorld/RealWager.sol\":5759:5779  userInfo[msg.sender] */\n      0x00\n        /* \"WagersWorld/RealWager.sol\":5768:5778  msg.sender */\n      caller\n        /* \"WagersWorld/RealWager.sol\":5759:5779  userInfo[msg.sender] */\n      0xffffffffffffffffffffffffffffffffffffffff\n      and\n      0xffffffffffffffffffffffffffffffffffffffff\n      and\n      dup2\n      mstore\n      0x20\n      add\n      swap1\n      dup2\n      mstore\n      0x20\n      add\n      0x00\n      keccak256\n        /* \"WagersWorld/RealWager.sol\":5759:5791  userInfo[msg.sender].noBetAmount */\n      0x01\n      add\n      sload\n        /* \"WagersWorld/RealWager.sol\":5749:5756  _amount */\n      dup4\n        /* \"WagersWorld/RealWager.sol\":5749:5791  _amount > userInfo[msg.sender].noBetAmount */\n      gt\n        /* \"WagersWorld/RealWager.sol\":5746:5881  if(_amount > userInfo[msg.sender].noBetAmount){... */\n      iszero\n      tag_149\n      jumpi\n        /* \"WagersWorld/RealWager.sol\":5833:5841  userInfo */\n      0x05\n        /* \"WagersWorld/RealWager.sol\":5833:5853  userInfo[msg.sender] */\n      0x00\n        /* \"WagersWorld/RealWager.sol\":5842:5852  msg.sender */\n      caller\n        /* \"WagersWorld/RealWager.sol\":5833:5853  userInfo[msg.sender] */\n      0xffffffffffffffffffffffffffffffffffffffff\n      and\n      0xffffffffffffffffffffffffffffffffffffffff\n      and\n      dup2\n      mstore\n      0x20\n      add\n      swap1\n      dup2\n      mstore\n      0x20\n      add\n      0x00\n      keccak256\n        /* \"WagersWorld/RealWager.sol\":5833:5865  userInfo[msg.sender].noBetAmount */\n      0x01\n      add\n      sload\n        /* \"WagersWorld/RealWager.sol\":5817:5866  notEnoughAmount(userInfo[msg.sender].noBetAmount) */\n      mload(0x40)\n      0x98e712c300000000000000000000000000000000000000000000000000000000\n      dup2\n      mstore\n      0x04\n      add\n      tag_150\n      swap2\n      swap1\n      tag_84\n      jump\t// in\n    tag_150:\n      mload(0x40)\n      dup1\n      swap2\n      sub\n      swap1\n      revert\n        /* \"WagersWorld/RealWager.sol\":5746:5881  if(_amount > userInfo[msg.sender].noBetAmount){... */\n    tag_149:\n        /* \"WagersWorld/RealWager.sol\":5552:5891  if(_sellOf == 0){... */\n    tag_148:\n        /* \"WagersWorld/RealWager.sol\":5909:5917  userInfo */\n      0x05\n        /* \"WagersWorld/RealWager.sol\":5909:5929  userInfo[msg.sender] */\n      0x00\n        /* \"WagersWorld/RealWager.sol\":5918:5928  msg.sender */\n      caller\n        /* \"WagersWorld/RealWager.sol\":5909:5929  userInfo[msg.sender] */\n      0xffffffffffffffffffffffffffffffffffffffff\n      and\n      0xffffffffffffffffffffffffffffffffffffffff\n      and\n      dup2\n      mstore\n      0x20\n      add\n      swap1\n      dup2\n      mstore\n      0x20\n      add\n      0x00\n      keccak256\n        /* \"WagersWorld/RealWager.sol\":5909:5936  userInfo[msg.sender].listNo */\n      0x00\n      add\n      0x00\n        /* \"WagersWorld/RealWager.sol\":5909:5938  userInfo[msg.sender].listNo++ */\n      dup2\n      sload\n      dup1\n      swap3\n      swap2\n      swap1\n      tag_151\n      swap1\n      tag_152\n      jump\t// in\n    tag_151:\n      swap2\n      swap1\n      pop\n      sstore\n      pop\n        /* \"WagersWorld/RealWager.sol\":6006:6010  true */\n      0x01\n        /* \"WagersWorld/RealWager.sol\":5949:5957  sellInfo */\n      0x07\n        /* \"WagersWorld/RealWager.sol\":5949:5969  sellInfo[msg.sender] */\n      0x00\n        /* \"WagersWorld/RealWager.sol\":5958:5968  msg.sender */\n      caller\n        /* \"WagersWorld/RealWager.sol\":5949:5969  sellInfo[msg.sender] */\n      0xffffffffffffffffffffffffffffffffffffffff\n      and\n      0xffffffffffffffffffffffffffffffffffffffff\n      and\n      dup2\n      mstore\n      0x20\n      add\n      swap1\n      dup2\n      mstore\n      0x20\n      add\n      0x00\n      keccak256\n        /* \"WagersWorld/RealWager.sol\":5949:5998  sellInfo[msg.sender][userInfo[msg.sender].listNo] */\n      0x00\n        /* \"WagersWorld/RealWager.sol\":5970:5978  userInfo */\n      0x05\n        /* \"WagersWorld/RealWager.sol\":5970:5990  userInfo[msg.sender] */\n      0x00\n        /* \"WagersWorld/RealWager.sol\":5979:5989  msg.sender */\n      caller\n        /* \"WagersWorld/RealWager.sol\":5970:5990  userInfo[msg.sender] */\n      0xffffffffffffffffffffffffffffffffffffffff\n      and\n      0xffffffffffffffffffffffffffffffffffffffff\n      and\n      dup2\n      mstore\n      0x20\n      add\n      swap1\n      dup2\n      mstore\n      0x20\n      add\n      0x00\n      keccak256\n        /* \"WagersWorld/RealWager.sol\":5970:5997  userInfo[msg.sender].listNo */\n      0x00\n      add\n      sload\n        /* \"WagersWorld/RealWager.sol\":5949:5998  sellInfo[msg.sender][userInfo[msg.sender].listNo] */\n      dup2\n      mstore\n      0x20\n      add\n      swap1\n      dup2\n      mstore\n      0x20\n      add\n      0x00\n      keccak256\n        /* \"WagersWorld/RealWager.sol\":5949:6003  sellInfo[msg.sender][userInfo[msg.sender].listNo].list */\n      0x00\n      add\n      0x00\n        /* \"WagersWorld/RealWager.sol\":5949:6010  sellInfo[msg.sender][userInfo[msg.sender].listNo].list = true */\n      0x0100\n      exp\n      dup2\n      sload\n      dup2\n      0xff\n      mul\n      not\n      and\n      swap1\n      dup4\n      iszero\n      iszero\n      mul\n      or\n      swap1\n      sstore\n      pop\n        /* \"WagersWorld/RealWager.sol\":6078:6084  _price */\n      dup2\n        /* \"WagersWorld/RealWager.sol\":6020:6028  sellInfo */\n      0x07\n        /* \"WagersWorld/RealWager.sol\":6020:6040  sellInfo[msg.sender] */\n      0x00\n        /* \"WagersWorld/RealWager.sol\":6029:6039  msg.sender */\n      caller\n        /* \"WagersWorld/RealWager.sol\":6020:6040  sellInfo[msg.sender] */\n      0xffffffffffffffffffffffffffffffffffffffff\n      and\n      0xffffffffffffffffffffffffffffffffffffffff\n      and\n      dup2\n      mstore\n      0x20\n      add\n      swap1\n      dup2\n      mstore\n      0x20\n      add\n      0x00\n      keccak256\n        /* \"WagersWorld/RealWager.sol\":6020:6069  sellInfo[msg.sender][userInfo[msg.sender].listNo] */\n      0x00\n        /* \"WagersWorld/RealWager.sol\":6041:6049  userInfo */\n      0x05\n        /* \"WagersWorld/RealWager.sol\":6041:6061  userInfo[msg.sender] */\n      0x00\n        /* \"WagersWorld/RealWager.sol\":6050:6060  msg.sender */\n      caller\n        /* \"WagersWorld/RealWager.sol\":6041:6061  userInfo[msg.sender] */\n      0xffffffffffffffffffffffffffffffffffffffff\n      and\n      0xffffffffffffffffffffffffffffffffffffffff\n      and\n      dup2\n      mstore\n      0x20\n      add\n      swap1\n      dup2\n      mstore\n      0x20\n      add\n      0x00\n      keccak256\n        /* \"WagersWorld/RealWager.sol\":6041:6068  userInfo[msg.sender].listNo */\n      0x00\n      add\n      sload\n        /* \"WagersWorld/RealWager.sol\":6020:6069  sellInfo[msg.sender][userInfo[msg.sender].listNo] */\n      dup2\n      mstore\n      0x20\n      add\n      swap1\n      dup2\n      mstore\n      0x20\n      add\n      0x00\n      keccak256\n        /* \"WagersWorld/RealWager.sol\":6020:6075  sellInfo[msg.sender][userInfo[msg.sender].listNo].price */\n      0x01\n      add\n        /* \"WagersWorld/RealWager.sol\":6020:6084  sellInfo[msg.sender][userInfo[msg.sender].listNo].price = _price */\n      dup2\n      swap1\n      sstore\n      pop\n        /* \"WagersWorld/RealWager.sol\":6154:6161  _amount */\n      dup3\n        /* \"WagersWorld/RealWager.sol\":6095:6103  sellInfo */\n      0x07\n        /* \"WagersWorld/RealWager.sol\":6095:6115  sellInfo[msg.sender] */\n      0x00\n        /* \"WagersWorld/RealWager.sol\":6104:6114  msg.sender */\n      caller\n        /* \"WagersWorld/RealWager.sol\":6095:6115  sellInfo[msg.sender] */\n      0xffffffffffffffffffffffffffffffffffffffff\n      and\n      0xffffffffffffffffffffffffffffffffffffffff\n      and\n      dup2\n      mstore\n      0x20\n      add\n      swap1\n      dup2\n      mstore\n      0x20\n      add\n      0x00\n      keccak256\n        /* \"WagersWorld/RealWager.sol\":6095:6144  sellInfo[msg.sender][userInfo[msg.sender].listNo] */\n      0x00\n        /* \"WagersWorld/RealWager.sol\":6116:6124  userInfo */\n      0x05\n        /* \"WagersWorld/RealWager.sol\":6116:6136  userInfo[msg.sender] */\n      0x00\n        /* \"WagersWorld/RealWager.sol\":6125:6135  msg.sender */\n      caller\n        /* \"WagersWorld/RealWager.sol\":6116:6136  userInfo[msg.sender] */\n      0xffffffffffffffffffffffffffffffffffffffff\n      and\n      0xffffffffffffffffffffffffffffffffffffffff\n      and\n      dup2\n      mstore\n      0x20\n      add\n      swap1\n      dup2\n      mstore\n      0x20\n      add\n      0x00\n      keccak256\n        /* \"WagersWorld/RealWager.sol\":6116:6143  userInfo[msg.sender].listNo */\n      0x00\n      add\n      sload\n        /* \"WagersWorld/RealWager.sol\":6095:6144  sellInfo[msg.sender][userInfo[msg.sender].listNo] */\n      dup2\n      mstore\n      0x20\n      add\n      swap1\n      dup2\n      mstore\n      0x20\n      add\n      0x00\n      keccak256\n        /* \"WagersWorld/RealWager.sol\":6095:6151  sellInfo[msg.sender][userInfo[msg.sender].listNo].amount */\n      0x02\n      add\n        /* \"WagersWorld/RealWager.sol\":6095:6161  sellInfo[msg.sender][userInfo[msg.sender].listNo].amount = _amount */\n      dup2\n      swap1\n      sstore\n      pop\n        /* \"WagersWorld/RealWager.sol\":6231:6238  _sellOf */\n      dup1\n        /* \"WagersWorld/RealWager.sol\":6172:6180  sellInfo */\n      0x07\n        /* \"WagersWorld/RealWager.sol\":6172:6192  sellInfo[msg.sender] */\n      0x00\n        /* \"WagersWorld/RealWager.sol\":6181:6191  msg.sender */\n      caller\n        /* \"WagersWorld/RealWager.sol\":6172:6192  sellInfo[msg.sender] */\n      0xffffffffffffffffffffffffffffffffffffffff\n      and\n      0xffffffffffffffffffffffffffffffffffffffff\n      and\n      dup2\n      mstore\n      0x20\n      add\n      swap1\n      dup2\n      mstore\n      0x20\n      add\n      0x00\n      keccak256\n        /* \"WagersWorld/RealWager.sol\":6172:6221  sellInfo[msg.sender][userInfo[msg.sender].listNo] */\n      0x00\n        /* \"WagersWorld/RealWager.sol\":6193:6201  userInfo */\n      0x05\n        /* \"WagersWorld/RealWager.sol\":6193:6213  userInfo[msg.sender] */\n      0x00\n        /* \"WagersWorld/RealWager.sol\":6202:6212  msg.sender */\n      caller\n        /* \"WagersWorld/RealWager.sol\":6193:6213  userInfo[msg.sender] */\n      0xffffffffffffffffffffffffffffffffffffffff\n      and\n      0xffffffffffffffffffffffffffffffffffffffff\n      and\n      dup2\n      mstore\n      0x20\n      add\n      swap1\n      dup2\n      mstore\n      0x20\n      add\n      0x00\n      keccak256\n        /* \"WagersWorld/RealWager.sol\":6193:6220  userInfo[msg.sender].listNo */\n      0x00\n      add\n      sload\n        /* \"WagersWorld/RealWager.sol\":6172:6221  sellInfo[msg.sender][userInfo[msg.sender].listNo] */\n      dup2\n      mstore\n      0x20\n      add\n      swap1\n      dup2\n      mstore\n      0x20\n      add\n      0x00\n      keccak256\n        /* \"WagersWorld/RealWager.sol\":6172:6228  sellInfo[msg.sender][userInfo[msg.sender].listNo].listOn */\n      0x03\n      add\n        /* \"WagersWorld/RealWager.sol\":6172:6238  sellInfo[msg.sender][userInfo[msg.sender].listNo].listOn = _sellOf */\n      dup2\n      swap1\n      sstore\n      pop\n        /* \"WagersWorld/RealWager.sol\":6306:6316  msg.sender */\n      caller\n        /* \"WagersWorld/RealWager.sol\":6248:6256  sellInfo */\n      0x07\n        /* \"WagersWorld/RealWager.sol\":6248:6268  sellInfo[msg.sender] */\n      0x00\n        /* \"WagersWorld/RealWager.sol\":6257:6267  msg.sender */\n      caller\n        /* \"WagersWorld/RealWager.sol\":6248:6268  sellInfo[msg.sender] */\n      0xffffffffffffffffffffffffffffffffffffffff\n      and\n      0xffffffffffffffffffffffffffffffffffffffff\n      and\n      dup2\n      mstore\n      0x20\n      add\n      swap1\n      dup2\n      mstore\n      0x20\n      add\n      0x00\n      keccak256\n        /* \"WagersWorld/RealWager.sol\":6248:6297  sellInfo[msg.sender][userInfo[msg.sender].listNo] */\n      0x00\n        /* \"WagersWorld/RealWager.sol\":6269:6277  userInfo */\n      0x05\n        /* \"WagersWorld/RealWager.sol\":6269:6289  userInfo[msg.sender] */\n      0x00\n        /* \"WagersWorld/RealWager.sol\":6278:6288  msg.sender */\n      caller\n        /* \"WagersWorld/RealWager.sol\":6269:6289  userInfo[msg.sender] */\n      0xffffffffffffffffffffffffffffffffffffffff\n      and\n      0xffffffffffffffffffffffffffffffffffffffff\n      and\n      dup2\n      mstore\n      0x20\n      add\n      swap1\n      dup2\n      mstore\n      0x20\n      add\n      0x00\n      keccak256\n        /* \"WagersWorld/RealWager.sol\":6269:6296  userInfo[msg.sender].listNo */\n      0x00\n      add\n      sload\n        /* \"WagersWorld/RealWager.sol\":6248:6297  sellInfo[msg.sender][userInfo[msg.sender].listNo] */\n      dup2\n      mstore\n      0x20\n      add\n      swap1\n      dup2\n      mstore\n      0x20\n      add\n      0x00\n      keccak256\n        /* \"WagersWorld/RealWager.sol\":6248:6303  sellInfo[msg.sender][userInfo[msg.sender].listNo].owner */\n      0x00\n      add\n      0x02\n        /* \"WagersWorld/RealWager.sol\":6248:6316  sellInfo[msg.sender][userInfo[msg.sender].listNo].owner = msg.sender */\n      0x0100\n      exp\n      dup2\n      sload\n      dup2\n      0xffffffffffffffffffffffffffffffffffffffff\n      mul\n      not\n      and\n      swap1\n      dup4\n      0xffffffffffffffffffffffffffffffffffffffff\n      and\n      mul\n      or\n      swap1\n      sstore\n      pop\n        /* \"WagersWorld/RealWager.sol\":6356:6366  msg.sender */\n      caller\n        /* \"WagersWorld/RealWager.sol\":6346:6404  SellShare(msg.sender, userInfo[msg.sender].listNo, _price) */\n      0xffffffffffffffffffffffffffffffffffffffff\n      and\n      0x578d9bb67ff50e6081576125ad4c2410d6e82de6dbc1a5dcac37f8e5aa9ca4f4\n        /* \"WagersWorld/RealWager.sol\":6368:6376  userInfo */\n      0x05\n        /* \"WagersWorld/RealWager.sol\":6368:6388  userInfo[msg.sender] */\n      0x00\n        /* \"WagersWorld/RealWager.sol\":6377:6387  msg.sender */\n      caller\n        /* \"WagersWorld/RealWager.sol\":6368:6388  userInfo[msg.sender] */\n      0xffffffffffffffffffffffffffffffffffffffff\n      and\n      0xffffffffffffffffffffffffffffffffffffffff\n      and\n      dup2\n      mstore\n      0x20\n      add\n      swap1\n      dup2\n      mstore\n      0x20\n      add\n      0x00\n      keccak256\n        /* \"WagersWorld/RealWager.sol\":6368:6395  userInfo[msg.sender].listNo */\n      0x00\n      add\n      sload\n        /* \"WagersWorld/RealWager.sol\":6397:6403  _price */\n      dup5\n        /* \"WagersWorld/RealWager.sol\":6346:6404  SellShare(msg.sender, userInfo[msg.sender].listNo, _price) */\n      mload(0x40)\n      tag_153\n      swap3\n      swap2\n      swap1\n      tag_50\n      jump\t// in\n    tag_153:\n      mload(0x40)\n      dup1\n      swap2\n      sub\n      swap1\n      log2\n        /* \"WagersWorld/RealWager.sol\":4971:6411  function sellShare(uint256 _amount, uint256 _price, uint256 _sellOf) external {... */\n      pop\n      pop\n      pop\n      jump\t// out\n        /* \"WagersWorld/RealWager.sol\":1116:1180  mapping(address => mapping(uint256 => SellInfo)) public sellInfo */\n    tag_67:\n      mstore(0x20, 0x07)\n      dup2\n      0x00\n      mstore\n      mstore(0x20, keccak256(0x00, 0x40))\n      dup1\n      0x00\n      mstore\n      keccak256(0x00, 0x40)\n      0x00\n      swap2\n      pop\n      swap2\n      pop\n      pop\n      dup1\n      0x00\n      add\n      0x00\n      swap1\n      sload\n      swap1\n      0x0100\n      exp\n      swap1\n      div\n      0xff\n      and\n      swap1\n      dup1\n      0x00\n      add\n      0x01\n      swap1\n      sload\n      swap1\n      0x0100\n      exp\n      swap1\n      div\n      0xff\n      and\n      swap1\n      dup1\n      0x00\n      add\n      0x02\n      swap1\n      sload\n      swap1\n      0x0100\n      exp\n      swap1\n      div\n      0xffffffffffffffffffffffffffffffffffffffff\n      and\n      swap1\n      dup1\n      0x01\n      add\n      sload\n      swap1\n      dup1\n      0x02\n      add\n      sload\n      swap1\n      dup1\n      0x03\n      add\n      sload\n      swap1\n      pop\n      dup7\n      jump\t// out\n        /* \"WagersWorld/RealWager.sol\":7933:10763  function resolveMarket(uint256 winningIndex) external   {... */\n    tag_71:\n        /* \"WagersWorld/RealWager.sol\":8027:8028  0 */\n      0x00\n        /* \"WagersWorld/RealWager.sol\":8011:8023  winningIndex */\n      dup2\n        /* \"WagersWorld/RealWager.sol\":8011:8028  winningIndex != 0 */\n      eq\n      iszero\n        /* \"WagersWorld/RealWager.sol\":8011:8049  winningIndex != 0 && winningIndex != 1 */\n      dup1\n      iszero\n      tag_155\n      jumpi\n      pop\n        /* \"WagersWorld/RealWager.sol\":8048:8049  1 */\n      0x01\n        /* \"WagersWorld/RealWager.sol\":8032:8044  winningIndex */\n      dup2\n        /* \"WagersWorld/RealWager.sol\":8032:8049  winningIndex != 1 */\n      eq\n      iszero\n        /* \"WagersWorld/RealWager.sol\":8011:8049  winningIndex != 0 && winningIndex != 1 */\n    tag_155:\n        /* \"WagersWorld/RealWager.sol\":8008:8109  if(winningIndex != 0 && winningIndex != 1){... */\n      iszero\n      tag_156\n      jumpi\n        /* \"WagersWorld/RealWager.sol\":8085:8097  winningIndex */\n      dup1\n        /* \"WagersWorld/RealWager.sol\":8071:8098  wrongBetIndex(winningIndex) */\n      mload(0x40)\n      0xd7acbe8900000000000000000000000000000000000000000000000000000000\n      dup2\n      mstore\n      0x04\n      add\n      tag_157\n      swap2\n      swap1\n      tag_84\n      jump\t// in\n    tag_157:\n      mload(0x40)\n      dup1\n      swap2\n      sub\n      swap1\n      revert\n        /* \"WagersWorld/RealWager.sol\":8008:8109  if(winningIndex != 0 && winningIndex != 1){... */\n    tag_156:\n        /* \"WagersWorld/RealWager.sol\":8130:8140  marketInfo */\n      0x06\n        /* \"WagersWorld/RealWager.sol\":8130:8155  marketInfo[address(this)] */\n      0x00\n        /* \"WagersWorld/RealWager.sol\":8149:8153  this */\n      address\n        /* \"WagersWorld/RealWager.sol\":8130:8155  marketInfo[address(this)] */\n      0xffffffffffffffffffffffffffffffffffffffff\n      and\n      0xffffffffffffffffffffffffffffffffffffffff\n      and\n      dup2\n      mstore\n      0x20\n      add\n      swap1\n      dup2\n      mstore\n      0x20\n      add\n      0x00\n      keccak256\n        /* \"WagersWorld/RealWager.sol\":8130:8164  marketInfo[address(this)].resolved */\n      0x00\n      add\n      0x00\n      swap1\n      sload\n      swap1\n      0x0100\n      exp\n      swap1\n      div\n      0xff\n      and\n        /* \"WagersWorld/RealWager.sol\":8127:8213  if(marketInfo[address(this)].resolved){... */\n      iszero\n      tag_158\n      jumpi\n        /* \"WagersWorld/RealWager.sol\":8186:8202  marketResolved() */\n      mload(0x40)\n      0x853fd42100000000000000000000000000000000000000000000000000000000\n      dup2\n      mstore\n      0x04\n      add\n      mload(0x40)\n      dup1\n      swap2\n      sub\n      swap1\n      revert\n        /* \"WagersWorld/RealWager.sol\":8127:8213  if(marketInfo[address(this)].resolved){... */\n    tag_158:\n        /* \"WagersWorld/RealWager.sol\":8262:8277  block.timestamp */\n      timestamp\n        /* \"WagersWorld/RealWager.sol\":8226:8236  marketInfo */\n      0x06\n        /* \"WagersWorld/RealWager.sol\":8226:8251  marketInfo[address(this)] */\n      0x00\n        /* \"WagersWorld/RealWager.sol\":8245:8249  this */\n      address\n        /* \"WagersWorld/RealWager.sol\":8226:8251  marketInfo[address(this)] */\n      0xffffffffffffffffffffffffffffffffffffffff\n      and\n      0xffffffffffffffffffffffffffffffffffffffff\n      and\n      dup2\n      mstore\n      0x20\n      add\n      swap1\n      dup2\n      mstore\n      0x20\n      add\n      0x00\n      keccak256\n        /* \"WagersWorld/RealWager.sol\":8226:8259  marketInfo[address(this)].endTime */\n      0x01\n      add\n      sload\n        /* \"WagersWorld/RealWager.sol\":8226:8277  marketInfo[address(this)].endTime > block.timestamp */\n      gt\n        /* \"WagersWorld/RealWager.sol\":8223:8366  if(marketInfo[address(this)].endTime > block.timestamp){... */\n      iszero\n      tag_159\n      jumpi\n        /* \"WagersWorld/RealWager.sol\":8321:8331  marketInfo */\n      0x06\n        /* \"WagersWorld/RealWager.sol\":8321:8346  marketInfo[address(this)] */\n      0x00\n        /* \"WagersWorld/RealWager.sol\":8340:8344  this */\n      address\n        /* \"WagersWorld/RealWager.sol\":8321:8346  marketInfo[address(this)] */\n      0xffffffffffffffffffffffffffffffffffffffff\n      and\n      0xffffffffffffffffffffffffffffffffffffffff\n      and\n      dup2\n      mstore\n      0x20\n      add\n      swap1\n      dup2\n      mstore\n      0x20\n      add\n      0x00\n      keccak256\n        /* \"WagersWorld/RealWager.sol\":8321:8354  marketInfo[address(this)].endTime */\n      0x01\n      add\n      sload\n        /* \"WagersWorld/RealWager.sol\":8299:8355  notResolvedBeforeTime(marketInfo[address(this)].endTime) */\n      mload(0x40)\n      0x79073e7b00000000000000000000000000000000000000000000000000000000\n      dup2\n      mstore\n      0x04\n      add\n      tag_160\n      swap2\n      swap1\n      tag_84\n      jump\t// in\n    tag_160:\n      mload(0x40)\n      dup1\n      swap2\n      sub\n      swap1\n      revert\n        /* \"WagersWorld/RealWager.sol\":8223:8366  if(marketInfo[address(this)].endTime > block.timestamp){... */\n    tag_159:\n        /* \"WagersWorld/RealWager.sol\":8376:8400  uint256 totalWinnerShare */\n      0x00\n        /* \"WagersWorld/RealWager.sol\":8415:8424  uint256 i */\n      dup1\n        /* \"WagersWorld/RealWager.sol\":8427:8428  0 */\n      0x00\n        /* \"WagersWorld/RealWager.sol\":8415:8428  uint256 i = 0 */\n      swap1\n      pop\n        /* \"WagersWorld/RealWager.sol\":8411:9239  for(uint256 i = 0; i < totalUsers; i++){... */\n    tag_161:\n        /* \"WagersWorld/RealWager.sol\":8434:8444  totalUsers */\n      sload(0x02)\n        /* \"WagersWorld/RealWager.sol\":8430:8431  i */\n      dup2\n        /* \"WagersWorld/RealWager.sol\":8430:8444  i < totalUsers */\n      lt\n        /* \"WagersWorld/RealWager.sol\":8411:9239  for(uint256 i = 0; i < totalUsers; i++){... */\n      iszero\n      tag_162\n      jumpi\n        /* \"WagersWorld/RealWager.sol\":8469:8477  userInfo */\n      0x05\n        /* \"WagersWorld/RealWager.sol\":8469:8490  userInfo[eachUser[i]] */\n      0x00\n        /* \"WagersWorld/RealWager.sol\":8478:8486  eachUser */\n      0x04\n        /* \"WagersWorld/RealWager.sol\":8478:8489  eachUser[i] */\n      0x00\n        /* \"WagersWorld/RealWager.sol\":8487:8488  i */\n      dup5\n        /* \"WagersWorld/RealWager.sol\":8478:8489  eachUser[i] */\n      dup2\n      mstore\n      0x20\n      add\n      swap1\n      dup2\n      mstore\n      0x20\n      add\n      0x00\n      keccak256\n      0x00\n      swap1\n      sload\n      swap1\n      0x0100\n      exp\n      swap1\n      div\n      0xffffffffffffffffffffffffffffffffffffffff\n      and\n        /* \"WagersWorld/RealWager.sol\":8469:8490  userInfo[eachUser[i]] */\n      0xffffffffffffffffffffffffffffffffffffffff\n      and\n      0xffffffffffffffffffffffffffffffffffffffff\n      and\n      dup2\n      mstore\n      0x20\n      add\n      swap1\n      dup2\n      mstore\n      0x20\n      add\n      0x00\n      keccak256\n        /* \"WagersWorld/RealWager.sol\":8469:8496  userInfo[eachUser[i]].betOn */\n      0x05\n      add\n        /* \"WagersWorld/RealWager.sol\":8469:8510  userInfo[eachUser[i]].betOn[winningIndex] */\n      0x00\n        /* \"WagersWorld/RealWager.sol\":8497:8509  winningIndex */\n      dup5\n        /* \"WagersWorld/RealWager.sol\":8469:8510  userInfo[eachUser[i]].betOn[winningIndex] */\n      dup2\n      mstore\n      0x20\n      add\n      swap1\n      dup2\n      mstore\n      0x20\n      add\n      0x00\n      keccak256\n      0x00\n      swap1\n      sload\n      swap1\n      0x0100\n      exp\n      swap1\n      div\n      0xff\n      and\n        /* \"WagersWorld/RealWager.sol\":8466:9226  if(userInfo[eachUser[i]].betOn[winningIndex]) {... */\n      iszero\n      tag_164\n      jumpi\n        /* \"WagersWorld/RealWager.sol\":8550:8551  0 */\n      0x00\n        /* \"WagersWorld/RealWager.sol\":8534:8546  winningIndex */\n      dup4\n        /* \"WagersWorld/RealWager.sol\":8534:8551  winningIndex == 0 */\n      eq\n        /* \"WagersWorld/RealWager.sol\":8534:8593  winningIndex == 0 && userInfo[eachUser[i]].noBetAmount != 0 */\n      dup1\n      iszero\n      tag_165\n      jumpi\n      pop\n        /* \"WagersWorld/RealWager.sol\":8592:8593  0 */\n      0x00\n        /* \"WagersWorld/RealWager.sol\":8555:8563  userInfo */\n      0x05\n        /* \"WagersWorld/RealWager.sol\":8555:8576  userInfo[eachUser[i]] */\n      0x00\n        /* \"WagersWorld/RealWager.sol\":8564:8572  eachUser */\n      0x04\n        /* \"WagersWorld/RealWager.sol\":8564:8575  eachUser[i] */\n      0x00\n        /* \"WagersWorld/RealWager.sol\":8573:8574  i */\n      dup6\n        /* \"WagersWorld/RealWager.sol\":8564:8575  eachUser[i] */\n      dup2\n      mstore\n      0x20\n      add\n      swap1\n      dup2\n      mstore\n      0x20\n      add\n      0x00\n      keccak256\n      0x00\n      swap1\n      sload\n      swap1\n      0x0100\n      exp\n      swap1\n      div\n      0xffffffffffffffffffffffffffffffffffffffff\n      and\n        /* \"WagersWorld/RealWager.sol\":8555:8576  userInfo[eachUser[i]] */\n      0xffffffffffffffffffffffffffffffffffffffff\n      and\n      0xffffffffffffffffffffffffffffffffffffffff\n      and\n      dup2\n      mstore\n      0x20\n      add\n      swap1\n      dup2\n      mstore\n      0x20\n      add\n      0x00\n      keccak256\n        /* \"WagersWorld/RealWager.sol\":8555:8588  userInfo[eachUser[i]].noBetAmount */\n      0x01\n      add\n      sload\n        /* \"WagersWorld/RealWager.sol\":8555:8593  userInfo[eachUser[i]].noBetAmount != 0 */\n      eq\n      iszero\n        /* \"WagersWorld/RealWager.sol\":8534:8593  winningIndex == 0 && userInfo[eachUser[i]].noBetAmount != 0 */\n    tag_165:\n        /* \"WagersWorld/RealWager.sol\":8531:9211  if(winningIndex == 0 && userInfo[eachUser[i]].noBetAmount != 0){... */\n      iszero\n      tag_166\n      jumpi\n        /* \"WagersWorld/RealWager.sol\":8673:8807  calculateShares(... */\n      tag_167\n        /* \"WagersWorld/RealWager.sol\":8714:8722  userInfo */\n      0x05\n        /* \"WagersWorld/RealWager.sol\":8714:8735  userInfo[eachUser[i]] */\n      0x00\n        /* \"WagersWorld/RealWager.sol\":8723:8731  eachUser */\n      0x04\n        /* \"WagersWorld/RealWager.sol\":8723:8734  eachUser[i] */\n      0x00\n        /* \"WagersWorld/RealWager.sol\":8732:8733  i */\n      dup6\n        /* \"WagersWorld/RealWager.sol\":8723:8734  eachUser[i] */\n      dup2\n      mstore\n      0x20\n      add\n      swap1\n      dup2\n      mstore\n      0x20\n      add\n      0x00\n      keccak256\n      0x00\n      swap1\n      sload\n      swap1\n      0x0100\n      exp\n      swap1\n      div\n      0xffffffffffffffffffffffffffffffffffffffff\n      and\n        /* \"WagersWorld/RealWager.sol\":8714:8735  userInfo[eachUser[i]] */\n      0xffffffffffffffffffffffffffffffffffffffff\n      and\n      0xffffffffffffffffffffffffffffffffffffffff\n      and\n      dup2\n      mstore\n      0x20\n      add\n      swap1\n      dup2\n      mstore\n      0x20\n      add\n      0x00\n      keccak256\n        /* \"WagersWorld/RealWager.sol\":8714:8747  userInfo[eachUser[i]].noBetAmount */\n      0x01\n      add\n      sload\n        /* \"WagersWorld/RealWager.sol\":8773:8785  winningIndex */\n      dup5\n        /* \"WagersWorld/RealWager.sol\":8673:8688  calculateShares */\n      tag_82\n        /* \"WagersWorld/RealWager.sol\":8673:8807  calculateShares(... */\n      jump\t// in\n    tag_167:\n        /* \"WagersWorld/RealWager.sol\":8637:8645  userInfo */\n      0x05\n        /* \"WagersWorld/RealWager.sol\":8637:8658  userInfo[eachUser[i]] */\n      0x00\n        /* \"WagersWorld/RealWager.sol\":8646:8654  eachUser */\n      0x04\n        /* \"WagersWorld/RealWager.sol\":8646:8657  eachUser[i] */\n      0x00\n        /* \"WagersWorld/RealWager.sol\":8655:8656  i */\n      dup6\n        /* \"WagersWorld/RealWager.sol\":8646:8657  eachUser[i] */\n      dup2\n      mstore\n      0x20\n      add\n      swap1\n      dup2\n      mstore\n      0x20\n      add\n      0x00\n      keccak256\n      0x00\n      swap1\n      sload\n      swap1\n      0x0100\n      exp\n      swap1\n      div\n      0xffffffffffffffffffffffffffffffffffffffff\n      and\n        /* \"WagersWorld/RealWager.sol\":8637:8658  userInfo[eachUser[i]] */\n      0xffffffffffffffffffffffffffffffffffffffff\n      and\n      0xffffffffffffffffffffffffffffffffffffffff\n      and\n      dup2\n      mstore\n      0x20\n      add\n      swap1\n      dup2\n      mstore\n      0x20\n      add\n      0x00\n      keccak256\n        /* \"WagersWorld/RealWager.sol\":8637:8670  userInfo[eachUser[i]].shareAmount */\n      0x04\n      add\n        /* \"WagersWorld/RealWager.sol\":8637:8807  userInfo[eachUser[i]].shareAmount = calculateShares(... */\n      dup2\n      swap1\n      sstore\n      pop\n        /* \"WagersWorld/RealWager.sol\":8849:8857  userInfo */\n      0x05\n        /* \"WagersWorld/RealWager.sol\":8849:8870  userInfo[eachUser[i]] */\n      0x00\n        /* \"WagersWorld/RealWager.sol\":8858:8866  eachUser */\n      0x04\n        /* \"WagersWorld/RealWager.sol\":8858:8869  eachUser[i] */\n      0x00\n        /* \"WagersWorld/RealWager.sol\":8867:8868  i */\n      dup5\n        /* \"WagersWorld/RealWager.sol\":8858:8869  eachUser[i] */\n      dup2\n      mstore\n      0x20\n      add\n      swap1\n      dup2\n      mstore\n      0x20\n      add\n      0x00\n      keccak256\n      0x00\n      swap1\n      sload\n      swap1\n      0x0100\n      exp\n      swap1\n      div\n      0xffffffffffffffffffffffffffffffffffffffff\n      and\n        /* \"WagersWorld/RealWager.sol\":8849:8870  userInfo[eachUser[i]] */\n      0xffffffffffffffffffffffffffffffffffffffff\n      and\n      0xffffffffffffffffffffffffffffffffffffffff\n      and\n      dup2\n      mstore\n      0x20\n      add\n      swap1\n      dup2\n      mstore\n      0x20\n      add\n      0x00\n      keccak256\n        /* \"WagersWorld/RealWager.sol\":8849:8882  userInfo[eachUser[i]].shareAmount */\n      0x04\n      add\n      sload\n        /* \"WagersWorld/RealWager.sol\":8829:8882  totalWinnerShare += userInfo[eachUser[i]].shareAmount */\n      dup3\n      tag_168\n      swap2\n      swap1\n      tag_114\n      jump\t// in\n    tag_168:\n      swap2\n      pop\n        /* \"WagersWorld/RealWager.sol\":8531:9211  if(winningIndex == 0 && userInfo[eachUser[i]].noBetAmount != 0){... */\n      jump(tag_169)\n    tag_166:\n        /* \"WagersWorld/RealWager.sol\":8981:9116  calculateShares(... */\n      tag_170\n        /* \"WagersWorld/RealWager.sol\":9022:9030  userInfo */\n      0x05\n        /* \"WagersWorld/RealWager.sol\":9022:9043  userInfo[eachUser[i]] */\n      0x00\n        /* \"WagersWorld/RealWager.sol\":9031:9039  eachUser */\n      0x04\n        /* \"WagersWorld/RealWager.sol\":9031:9042  eachUser[i] */\n      0x00\n        /* \"WagersWorld/RealWager.sol\":9040:9041  i */\n      dup6\n        /* \"WagersWorld/RealWager.sol\":9031:9042  eachUser[i] */\n      dup2\n      mstore\n      0x20\n      add\n      swap1\n      dup2\n      mstore\n      0x20\n      add\n      0x00\n      keccak256\n      0x00\n      swap1\n      sload\n      swap1\n      0x0100\n      exp\n      swap1\n      div\n      0xffffffffffffffffffffffffffffffffffffffff\n      and\n        /* \"WagersWorld/RealWager.sol\":9022:9043  userInfo[eachUser[i]] */\n      0xffffffffffffffffffffffffffffffffffffffff\n      and\n      0xffffffffffffffffffffffffffffffffffffffff\n      and\n      dup2\n      mstore\n      0x20\n      add\n      swap1\n      dup2\n      mstore\n      0x20\n      add\n      0x00\n      keccak256\n        /* \"WagersWorld/RealWager.sol\":9022:9056  userInfo[eachUser[i]].yesBetAmount */\n      0x03\n      add\n      sload\n        /* \"WagersWorld/RealWager.sol\":9082:9094  winningIndex */\n      dup5\n        /* \"WagersWorld/RealWager.sol\":8981:8996  calculateShares */\n      tag_82\n        /* \"WagersWorld/RealWager.sol\":8981:9116  calculateShares(... */\n      jump\t// in\n    tag_170:\n        /* \"WagersWorld/RealWager.sol\":8945:8953  userInfo */\n      0x05\n        /* \"WagersWorld/RealWager.sol\":8945:8966  userInfo[eachUser[i]] */\n      0x00\n        /* \"WagersWorld/RealWager.sol\":8954:8962  eachUser */\n      0x04\n        /* \"WagersWorld/RealWager.sol\":8954:8965  eachUser[i] */\n      0x00\n        /* \"WagersWorld/RealWager.sol\":8963:8964  i */\n      dup6\n        /* \"WagersWorld/RealWager.sol\":8954:8965  eachUser[i] */\n      dup2\n      mstore\n      0x20\n      add\n      swap1\n      dup2\n      mstore\n      0x20\n      add\n      0x00\n      keccak256\n      0x00\n      swap1\n      sload\n      swap1\n      0x0100\n      exp\n      swap1\n      div\n      0xffffffffffffffffffffffffffffffffffffffff\n      and\n        /* \"WagersWorld/RealWager.sol\":8945:8966  userInfo[eachUser[i]] */\n      0xffffffffffffffffffffffffffffffffffffffff\n      and\n      0xffffffffffffffffffffffffffffffffffffffff\n      and\n      dup2\n      mstore\n      0x20\n      add\n      swap1\n      dup2\n      mstore\n      0x20\n      add\n      0x00\n      keccak256\n        /* \"WagersWorld/RealWager.sol\":8945:8978  userInfo[eachUser[i]].shareAmount */\n      0x04\n      add\n        /* \"WagersWorld/RealWager.sol\":8945:9116  userInfo[eachUser[i]].shareAmount = calculateShares(... */\n      dup2\n      swap1\n      sstore\n      pop\n        /* \"WagersWorld/RealWager.sol\":9159:9167  userInfo */\n      0x05\n        /* \"WagersWorld/RealWager.sol\":9159:9180  userInfo[eachUser[i]] */\n      0x00\n        /* \"WagersWorld/RealWager.sol\":9168:9176  eachUser */\n      0x04\n        /* \"WagersWorld/RealWager.sol\":9168:9179  eachUser[i] */\n      0x00\n        /* \"WagersWorld/RealWager.sol\":9177:9178  i */\n      dup5\n        /* \"WagersWorld/RealWager.sol\":9168:9179  eachUser[i] */\n      dup2\n      mstore\n      0x20\n      add\n      swap1\n      dup2\n      mstore\n      0x20\n      add\n      0x00\n      keccak256\n      0x00\n      swap1\n      sload\n      swap1\n      0x0100\n      exp\n      swap1\n      div\n      0xffffffffffffffffffffffffffffffffffffffff\n      and\n        /* \"WagersWorld/RealWager.sol\":9159:9180  userInfo[eachUser[i]] */\n      0xffffffffffffffffffffffffffffffffffffffff\n      and\n      0xffffffffffffffffffffffffffffffffffffffff\n      and\n      dup2\n      mstore\n      0x20\n      add\n      swap1\n      dup2\n      mstore\n      0x20\n      add\n      0x00\n      keccak256\n        /* \"WagersWorld/RealWager.sol\":9159:9192  userInfo[eachUser[i]].shareAmount */\n      0x04\n      add\n      sload\n        /* \"WagersWorld/RealWager.sol\":9139:9192  totalWinnerShare += userInfo[eachUser[i]].shareAmount */\n      dup3\n      tag_171\n      swap2\n      swap1\n      tag_114\n      jump\t// in\n    tag_171:\n      swap2\n      pop\n        /* \"WagersWorld/RealWager.sol\":8531:9211  if(winningIndex == 0 && userInfo[eachUser[i]].noBetAmount != 0){... */\n    tag_169:\n        /* \"WagersWorld/RealWager.sol\":8466:9226  if(userInfo[eachUser[i]].betOn[winningIndex]) {... */\n    tag_164:\n        /* \"WagersWorld/RealWager.sol\":8446:8449  i++ */\n      dup1\n      dup1\n      0x01\n      add\n      swap2\n      pop\n      pop\n        /* \"WagersWorld/RealWager.sol\":8411:9239  for(uint256 i = 0; i < totalUsers; i++){... */\n      jump(tag_161)\n    tag_162:\n      pop\n        /* \"WagersWorld/RealWager.sol\":9249:9266  uint256 _perShare */\n      0x00\n        /* \"WagersWorld/RealWager.sol\":9309:9325  totalWinnerShare */\n      dup2\n        /* \"WagersWorld/RealWager.sol\":9269:9279  marketInfo */\n      0x06\n        /* \"WagersWorld/RealWager.sol\":9269:9294  marketInfo[address(this)] */\n      0x00\n        /* \"WagersWorld/RealWager.sol\":9288:9292  this */\n      address\n        /* \"WagersWorld/RealWager.sol\":9269:9294  marketInfo[address(this)] */\n      0xffffffffffffffffffffffffffffffffffffffff\n      and\n      0xffffffffffffffffffffffffffffffffffffffff\n      and\n      dup2\n      mstore\n      0x20\n      add\n      swap1\n      dup2\n      mstore\n      0x20\n      add\n      0x00\n      keccak256\n        /* \"WagersWorld/RealWager.sol\":9269:9306  marketInfo[address(this)].totalAmount */\n      0x03\n      add\n      sload\n        /* \"WagersWorld/RealWager.sol\":9269:9325  marketInfo[address(this)].totalAmount / totalWinnerShare */\n      tag_172\n      swap2\n      swap1\n      tag_119\n      jump\t// in\n    tag_172:\n        /* \"WagersWorld/RealWager.sol\":9249:9325  uint256 _perShare = marketInfo[address(this)].totalAmount / totalWinnerShare */\n      swap1\n      pop\n        /* \"WagersWorld/RealWager.sol\":9335:9355  uint256 _ownerAmount */\n      0x00\n        /* \"WagersWorld/RealWager.sol\":9379:9388  uint256 i */\n      dup1\n        /* \"WagersWorld/RealWager.sol\":9391:9392  0 */\n      0x00\n        /* \"WagersWorld/RealWager.sol\":9379:9392  uint256 i = 0 */\n      swap1\n      pop\n        /* \"WagersWorld/RealWager.sol\":9374:10318  for (uint256 i = 0; i < totalUsers; i++) {... */\n    tag_173:\n        /* \"WagersWorld/RealWager.sol\":9398:9408  totalUsers */\n      sload(0x02)\n        /* \"WagersWorld/RealWager.sol\":9394:9395  i */\n      dup2\n        /* \"WagersWorld/RealWager.sol\":9394:9408  i < totalUsers */\n      lt\n        /* \"WagersWorld/RealWager.sol\":9374:10318  for (uint256 i = 0; i < totalUsers; i++) {... */\n      iszero\n      tag_174\n      jumpi\n        /* \"WagersWorld/RealWager.sol\":9445:9453  userInfo */\n      0x05\n        /* \"WagersWorld/RealWager.sol\":9445:9466  userInfo[eachUser[i]] */\n      0x00\n        /* \"WagersWorld/RealWager.sol\":9454:9462  eachUser */\n      0x04\n        /* \"WagersWorld/RealWager.sol\":9454:9465  eachUser[i] */\n      0x00\n        /* \"WagersWorld/RealWager.sol\":9463:9464  i */\n      dup5\n        /* \"WagersWorld/RealWager.sol\":9454:9465  eachUser[i] */\n      dup2\n      mstore\n      0x20\n      add\n      swap1\n      dup2\n      mstore\n      0x20\n      add\n      0x00\n      keccak256\n      0x00\n      swap1\n      sload\n      swap1\n      0x0100\n      exp\n      swap1\n      div\n      0xffffffffffffffffffffffffffffffffffffffff\n      and\n        /* \"WagersWorld/RealWager.sol\":9445:9466  userInfo[eachUser[i]] */\n      0xffffffffffffffffffffffffffffffffffffffff\n      and\n      0xffffffffffffffffffffffffffffffffffffffff\n      and\n      dup2\n      mstore\n      0x20\n      add\n      swap1\n      dup2\n      mstore\n      0x20\n      add\n      0x00\n      keccak256\n        /* \"WagersWorld/RealWager.sol\":9445:9472  userInfo[eachUser[i]].betOn */\n      0x05\n      add\n        /* \"WagersWorld/RealWager.sol\":9445:9486  userInfo[eachUser[i]].betOn[winningIndex] */\n      0x00\n        /* \"WagersWorld/RealWager.sol\":9473:9485  winningIndex */\n      dup7\n        /* \"WagersWorld/RealWager.sol\":9445:9486  userInfo[eachUser[i]].betOn[winningIndex] */\n      dup2\n      mstore\n      0x20\n      add\n      swap1\n      dup2\n      mstore\n      0x20\n      add\n      0x00\n      keccak256\n      0x00\n      swap1\n      sload\n      swap1\n      0x0100\n      exp\n      swap1\n      div\n      0xff\n      and\n        /* \"WagersWorld/RealWager.sol\":9442:10308  if(userInfo[eachUser[i]].betOn[winningIndex]) {... */\n      iszero\n      tag_176\n      jumpi\n        /* \"WagersWorld/RealWager.sol\":9507:9530  uint256 userTotalAmount */\n      0x00\n        /* \"WagersWorld/RealWager.sol\":9569:9578  _perShare */\n      dup4\n        /* \"WagersWorld/RealWager.sol\":9533:9541  userInfo */\n      0x05\n        /* \"WagersWorld/RealWager.sol\":9533:9554  userInfo[eachUser[i]] */\n      0x00\n        /* \"WagersWorld/RealWager.sol\":9542:9550  eachUser */\n      0x04\n        /* \"WagersWorld/RealWager.sol\":9542:9553  eachUser[i] */\n      0x00\n        /* \"WagersWorld/RealWager.sol\":9551:9552  i */\n      dup7\n        /* \"WagersWorld/RealWager.sol\":9542:9553  eachUser[i] */\n      dup2\n      mstore\n      0x20\n      add\n      swap1\n      dup2\n      mstore\n      0x20\n      add\n      0x00\n      keccak256\n      0x00\n      swap1\n      sload\n      swap1\n      0x0100\n      exp\n      swap1\n      div\n      0xffffffffffffffffffffffffffffffffffffffff\n      and\n        /* \"WagersWorld/RealWager.sol\":9533:9554  userInfo[eachUser[i]] */\n      0xffffffffffffffffffffffffffffffffffffffff\n      and\n      0xffffffffffffffffffffffffffffffffffffffff\n      and\n      dup2\n      mstore\n      0x20\n      add\n      swap1\n      dup2\n      mstore\n      0x20\n      add\n      0x00\n      keccak256\n        /* \"WagersWorld/RealWager.sol\":9533:9566  userInfo[eachUser[i]].shareAmount */\n      0x04\n      add\n      sload\n        /* \"WagersWorld/RealWager.sol\":9533:9578  userInfo[eachUser[i]].shareAmount * _perShare */\n      tag_177\n      swap2\n      swap1\n      tag_117\n      jump\t// in\n    tag_177:\n        /* \"WagersWorld/RealWager.sol\":9507:9578  uint256 userTotalAmount = userInfo[eachUser[i]].shareAmount * _perShare */\n      swap1\n      pop\n        /* \"WagersWorld/RealWager.sol\":9596:9626  uint256 userProfitAmountAmount */\n      0x00\n        /* \"WagersWorld/RealWager.sol\":9647:9655  userInfo */\n      0x05\n        /* \"WagersWorld/RealWager.sol\":9647:9668  userInfo[eachUser[i]] */\n      0x00\n        /* \"WagersWorld/RealWager.sol\":9656:9664  eachUser */\n      0x04\n        /* \"WagersWorld/RealWager.sol\":9656:9667  eachUser[i] */\n      0x00\n        /* \"WagersWorld/RealWager.sol\":9665:9666  i */\n      dup7\n        /* \"WagersWorld/RealWager.sol\":9656:9667  eachUser[i] */\n      dup2\n      mstore\n      0x20\n      add\n      swap1\n      dup2\n      mstore\n      0x20\n      add\n      0x00\n      keccak256\n      0x00\n      swap1\n      sload\n      swap1\n      0x0100\n      exp\n      swap1\n      div\n      0xffffffffffffffffffffffffffffffffffffffff\n      and\n        /* \"WagersWorld/RealWager.sol\":9647:9668  userInfo[eachUser[i]] */\n      0xffffffffffffffffffffffffffffffffffffffff\n      and\n      0xffffffffffffffffffffffffffffffffffffffff\n      and\n      dup2\n      mstore\n      0x20\n      add\n      swap1\n      dup2\n      mstore\n      0x20\n      add\n      0x00\n      keccak256\n        /* \"WagersWorld/RealWager.sol\":9647:9680  userInfo[eachUser[i]].shareAmount */\n      0x04\n      add\n      sload\n        /* \"WagersWorld/RealWager.sol\":9629:9644  userTotalAmount */\n      dup3\n        /* \"WagersWorld/RealWager.sol\":9629:9680  userTotalAmount - userInfo[eachUser[i]].shareAmount */\n      tag_178\n      swap2\n      swap1\n      tag_179\n      jump\t// in\n    tag_178:\n        /* \"WagersWorld/RealWager.sol\":9596:9680  uint256 userProfitAmountAmount = userTotalAmount - userInfo[eachUser[i]].shareAmount */\n      swap1\n      pop\n        /* \"WagersWorld/RealWager.sol\":9699:9723  uint256 tenPercentAmount */\n      0x00\n        /* \"WagersWorld/RealWager.sol\":9726:9786  calculatePercentage(userProfitAmountAmount,profitPercentage) */\n      tag_180\n        /* \"WagersWorld/RealWager.sol\":9746:9768  userProfitAmountAmount */\n      dup3\n        /* \"WagersWorld/RealWager.sol\":9769:9785  profitPercentage */\n      sload(0x03)\n        /* \"WagersWorld/RealWager.sol\":9726:9745  calculatePercentage */\n      tag_181\n        /* \"WagersWorld/RealWager.sol\":9726:9786  calculatePercentage(userProfitAmountAmount,profitPercentage) */\n      jump\t// in\n    tag_180:\n        /* \"WagersWorld/RealWager.sol\":9699:9786  uint256 tenPercentAmount = calculatePercentage(userProfitAmountAmount,profitPercentage) */\n      swap1\n      pop\n        /* \"WagersWorld/RealWager.sol\":9820:9836  tenPercentAmount */\n      dup1\n        /* \"WagersWorld/RealWager.sol\":9804:9836  _ownerAmount += tenPercentAmount */\n      dup6\n      tag_182\n      swap2\n      swap1\n      tag_114\n      jump\t// in\n    tag_182:\n      swap5\n      pop\n        /* \"WagersWorld/RealWager.sol\":9914:9930  tenPercentAmount */\n      dup1\n        /* \"WagersWorld/RealWager.sol\":9896:9911  userTotalAmount */\n      dup4\n        /* \"WagersWorld/RealWager.sol\":9896:9930  userTotalAmount - tenPercentAmount */\n      tag_183\n      swap2\n      swap1\n      tag_179\n      jump\t// in\n    tag_183:\n        /* \"WagersWorld/RealWager.sol\":9858:9867  usdcToken */\n      0x01\n      0x00\n      swap1\n      sload\n      swap1\n      0x0100\n      exp\n      swap1\n      div\n      0xffffffffffffffffffffffffffffffffffffffff\n      and\n        /* \"WagersWorld/RealWager.sol\":9858:9877  usdcToken.balanceOf */\n      0xffffffffffffffffffffffffffffffffffffffff\n      and\n      0x70a08231\n        /* \"WagersWorld/RealWager.sol\":9886:9890  this */\n      address\n        /* \"WagersWorld/RealWager.sol\":9858:9892  usdcToken.balanceOf(address(this)) */\n      mload(0x40)\n      dup3\n      0xffffffff\n      and\n      0xe0\n      shl\n      dup2\n      mstore\n      0x04\n      add\n      tag_184\n      swap2\n      swap1\n      tag_30\n      jump\t// in\n    tag_184:\n      0x20\n      mload(0x40)\n      dup1\n      dup4\n      sub\n      dup2\n      dup7\n      gas\n      staticcall\n      iszero\n      dup1\n      iszero\n      tag_186\n      jumpi\n      returndatasize\n      0x00\n      dup1\n      returndatacopy\n      revert(0x00, returndatasize)\n    tag_186:\n      pop\n      pop\n      pop\n      pop\n      mload(0x40)\n      returndatasize\n      not(0x1f)\n      0x1f\n      dup3\n      add\n      and\n      dup3\n      add\n      dup1\n      0x40\n      mstore\n      pop\n      dup2\n      add\n      swap1\n      tag_187\n      swap2\n      swap1\n      tag_188\n      jump\t// in\n    tag_187:\n        /* \"WagersWorld/RealWager.sol\":9858:9931  usdcToken.balanceOf(address(this)) < (userTotalAmount - tenPercentAmount) */\n      lt\n        /* \"WagersWorld/RealWager.sol\":9855:10034  if(usdcToken.balanceOf(address(this)) < (userTotalAmount - tenPercentAmount)){... */\n      iszero\n      tag_189\n      jumpi\n        /* \"WagersWorld/RealWager.sol\":9980:9989  usdcToken */\n      0x01\n      0x00\n      swap1\n      sload\n      swap1\n      0x0100\n      exp\n      swap1\n      div\n      0xffffffffffffffffffffffffffffffffffffffff\n      and\n        /* \"WagersWorld/RealWager.sol\":9980:9999  usdcToken.balanceOf */\n      0xffffffffffffffffffffffffffffffffffffffff\n      and\n      0x70a08231\n        /* \"WagersWorld/RealWager.sol\":10008:10012  this */\n      address\n        /* \"WagersWorld/RealWager.sol\":9980:10014  usdcToken.balanceOf(address(this)) */\n      mload(0x40)\n      dup3\n      0xffffffff\n      and\n      0xe0\n      shl\n      dup2\n      mstore\n      0x04\n      add\n      tag_190\n      swap2\n      swap1\n      tag_30\n      jump\t// in\n    tag_190:\n      0x20\n      mload(0x40)\n      dup1\n      dup4\n      sub\n      dup2\n      dup7\n      gas\n      staticcall\n      iszero\n      dup1\n      iszero\n      tag_192\n      jumpi\n      returndatasize\n      0x00\n      dup1\n      returndatacopy\n      revert(0x00, returndatasize)\n    tag_192:\n      pop\n      pop\n      pop\n      pop\n      mload(0x40)\n      returndatasize\n      not(0x1f)\n      0x1f\n      dup3\n      add\n      and\n      dup3\n      add\n      dup1\n      0x40\n      mstore\n      pop\n      dup2\n      add\n      swap1\n      tag_193\n      swap2\n      swap1\n      tag_188\n      jump\t// in\n    tag_193:\n        /* \"WagersWorld/RealWager.sol\":9961:10015  contractLowbalance(usdcToken.balanceOf(address(this))) */\n      mload(0x40)\n      0xf9ae0cb400000000000000000000000000000000000000000000000000000000\n      dup2\n      mstore\n      0x04\n      add\n      tag_194\n      swap2\n      swap1\n      tag_84\n      jump\t// in\n    tag_194:\n      mload(0x40)\n      dup1\n      swap2\n      sub\n      swap1\n      revert\n        /* \"WagersWorld/RealWager.sol\":9855:10034  if(usdcToken.balanceOf(address(this)) < (userTotalAmount - tenPercentAmount)){... */\n    tag_189:\n        /* \"WagersWorld/RealWager.sol\":10053:10065  bool success */\n      0x00\n        /* \"WagersWorld/RealWager.sol\":10068:10077  usdcToken */\n      0x01\n      0x00\n      swap1\n      sload\n      swap1\n      0x0100\n      exp\n      swap1\n      div\n      0xffffffffffffffffffffffffffffffffffffffff\n      and\n        /* \"WagersWorld/RealWager.sol\":10068:10086  usdcToken.transfer */\n      0xffffffffffffffffffffffffffffffffffffffff\n      and\n      0xa9059cbb\n        /* \"WagersWorld/RealWager.sol\":10108:10116  eachUser */\n      0x04\n        /* \"WagersWorld/RealWager.sol\":10108:10119  eachUser[i] */\n      0x00\n        /* \"WagersWorld/RealWager.sol\":10117:10118  i */\n      dup9\n        /* \"WagersWorld/RealWager.sol\":10108:10119  eachUser[i] */\n      dup2\n      mstore\n      0x20\n      add\n      swap1\n      dup2\n      mstore\n      0x20\n      add\n      0x00\n      keccak256\n      0x00\n      swap1\n      sload\n      swap1\n      0x0100\n      exp\n      swap1\n      div\n      0xffffffffffffffffffffffffffffffffffffffff\n      and\n        /* \"WagersWorld/RealWager.sol\":10159:10175  tenPercentAmount */\n      dup5\n        /* \"WagersWorld/RealWager.sol\":10141:10156  userTotalAmount */\n      dup8\n        /* \"WagersWorld/RealWager.sol\":10141:10175  userTotalAmount - tenPercentAmount */\n      tag_195\n      swap2\n      swap1\n      tag_179\n      jump\t// in\n    tag_195:\n        /* \"WagersWorld/RealWager.sol\":10068:10193  usdcToken.transfer(... */\n      mload(0x40)\n      dup4\n      0xffffffff\n      and\n      0xe0\n      shl\n      dup2\n      mstore\n      0x04\n      add\n      tag_196\n      swap3\n      swap2\n      swap1\n      tag_197\n      jump\t// in\n    tag_196:\n      0x20\n      mload(0x40)\n      dup1\n      dup4\n      sub\n      dup2\n      0x00\n      dup8\n      gas\n      call\n      iszero\n      dup1\n      iszero\n      tag_199\n      jumpi\n      returndatasize\n      0x00\n      dup1\n      returndatacopy\n      revert(0x00, returndatasize)\n    tag_199:\n      pop\n      pop\n      pop\n      pop\n      mload(0x40)\n      returndatasize\n      not(0x1f)\n      0x1f\n      dup3\n      add\n      and\n      dup3\n      add\n      dup1\n      0x40\n      mstore\n      pop\n      dup2\n      add\n      swap1\n      tag_200\n      swap2\n      swap1\n      tag_201\n      jump\t// in\n    tag_200:\n        /* \"WagersWorld/RealWager.sol\":10053:10193  bool success = usdcToken.transfer(... */\n      swap1\n      pop\n        /* \"WagersWorld/RealWager.sol\":10215:10222  success */\n      dup1\n        /* \"WagersWorld/RealWager.sol\":10211:10293  if(!success){... */\n      tag_202\n      jumpi\n        /* \"WagersWorld/RealWager.sol\":10266:10273  success */\n      dup1\n        /* \"WagersWorld/RealWager.sol\":10252:10274  transferFaild(success) */\n      mload(0x40)\n      0x73fd8f0600000000000000000000000000000000000000000000000000000000\n      dup2\n      mstore\n      0x04\n      add\n      tag_203\n      swap2\n      swap1\n      tag_36\n      jump\t// in\n    tag_203:\n      mload(0x40)\n      dup1\n      swap2\n      sub\n      swap1\n      revert\n        /* \"WagersWorld/RealWager.sol\":10211:10293  if(!success){... */\n    tag_202:\n        /* \"WagersWorld/RealWager.sol\":9488:10308  {... */\n      pop\n      pop\n      pop\n      pop\n        /* \"WagersWorld/RealWager.sol\":9442:10308  if(userInfo[eachUser[i]].betOn[winningIndex]) {... */\n    tag_176:\n        /* \"WagersWorld/RealWager.sol\":9410:9413  i++ */\n      dup1\n      dup1\n      0x01\n      add\n      swap2\n      pop\n      pop\n        /* \"WagersWorld/RealWager.sol\":9374:10318  for (uint256 i = 0; i < totalUsers; i++) {... */\n      jump(tag_173)\n    tag_174:\n      pop\n        /* \"WagersWorld/RealWager.sol\":10368:10380  _ownerAmount */\n      dup1\n        /* \"WagersWorld/RealWager.sol\":10331:10340  usdcToken */\n      0x01\n      0x00\n      swap1\n      sload\n      swap1\n      0x0100\n      exp\n      swap1\n      div\n      0xffffffffffffffffffffffffffffffffffffffff\n      and\n        /* \"WagersWorld/RealWager.sol\":10331:10350  usdcToken.balanceOf */\n      0xffffffffffffffffffffffffffffffffffffffff\n      and\n      0x70a08231\n        /* \"WagersWorld/RealWager.sol\":10359:10363  this */\n      address\n        /* \"WagersWorld/RealWager.sol\":10331:10365  usdcToken.balanceOf(address(this)) */\n      mload(0x40)\n      dup3\n      0xffffffff\n      and\n      0xe0\n      shl\n      dup2\n      mstore\n      0x04\n      add\n      tag_204\n      swap2\n      swap1\n      tag_30\n      jump\t// in\n    tag_204:\n      0x20\n      mload(0x40)\n      dup1\n      dup4\n      sub\n      dup2\n      dup7\n      gas\n      staticcall\n      iszero\n      dup1\n      iszero\n      tag_206\n      jumpi\n      returndatasize\n      0x00\n      dup1\n      returndatacopy\n      revert(0x00, returndatasize)\n    tag_206:\n      pop\n      pop\n      pop\n      pop\n      mload(0x40)\n      returndatasize\n      not(0x1f)\n      0x1f\n      dup3\n      add\n      and\n      dup3\n      add\n      dup1\n      0x40\n      mstore\n      pop\n      dup2\n      add\n      swap1\n      tag_207\n      swap2\n      swap1\n      tag_188\n      jump\t// in\n    tag_207:\n        /* \"WagersWorld/RealWager.sol\":10331:10380  usdcToken.balanceOf(address(this)) < _ownerAmount */\n      lt\n        /* \"WagersWorld/RealWager.sol\":10328:10475  if(usdcToken.balanceOf(address(this)) < _ownerAmount){... */\n      iszero\n      tag_208\n      jumpi\n        /* \"WagersWorld/RealWager.sol\":10429:10438  usdcToken */\n      0x01\n      0x00\n      swap1\n      sload\n      swap1\n      0x0100\n      exp\n      swap1\n      div\n      0xffffffffffffffffffffffffffffffffffffffff\n      and\n        /* \"WagersWorld/RealWager.sol\":10429:10448  usdcToken.balanceOf */\n      0xffffffffffffffffffffffffffffffffffffffff\n      and\n      0x70a08231\n        /* \"WagersWorld/RealWager.sol\":10457:10461  this */\n      address\n        /* \"WagersWorld/RealWager.sol\":10429:10463  usdcToken.balanceOf(address(this)) */\n      mload(0x40)\n      dup3\n      0xffffffff\n      and\n      0xe0\n      shl\n      dup2\n      mstore\n      0x04\n      add\n      tag_209\n      swap2\n      swap1\n      tag_30\n      jump\t// in\n    tag_209:\n      0x20\n      mload(0x40)\n      dup1\n      dup4\n      sub\n      dup2\n      dup7\n      gas\n      staticcall\n      iszero\n      dup1\n      iszero\n      tag_211\n      jumpi\n      returndatasize\n      0x00\n      dup1\n      returndatacopy\n      revert(0x00, returndatasize)\n    tag_211:\n      pop\n      pop\n      pop\n      pop\n      mload(0x40)\n      returndatasize\n      not(0x1f)\n      0x1f\n      dup3\n      add\n      and\n      dup3\n      add\n      dup1\n      0x40\n      mstore\n      pop\n      dup2\n      add\n      swap1\n      tag_212\n      swap2\n      swap1\n      tag_188\n      jump\t// in\n    tag_212:\n        /* \"WagersWorld/RealWager.sol\":10402:10464  contractLowbalanceForOwner(usdcToken.balanceOf(address(this))) */\n      mload(0x40)\n      0xba9c3e4f00000000000000000000000000000000000000000000000000000000\n      dup2\n      mstore\n      0x04\n      add\n      tag_213\n      swap2\n      swap1\n      tag_84\n      jump\t// in\n    tag_213:\n      mload(0x40)\n      dup1\n      swap2\n      sub\n      swap1\n      revert\n        /* \"WagersWorld/RealWager.sol\":10328:10475  if(usdcToken.balanceOf(address(this)) < _ownerAmount){... */\n    tag_208:\n        /* \"WagersWorld/RealWager.sol\":10522:10526  true */\n      0x01\n        /* \"WagersWorld/RealWager.sol\":10485:10495  marketInfo */\n      0x06\n        /* \"WagersWorld/RealWager.sol\":10485:10510  marketInfo[address(this)] */\n      0x00\n        /* \"WagersWorld/RealWager.sol\":10504:10508  this */\n      address\n        /* \"WagersWorld/RealWager.sol\":10485:10510  marketInfo[address(this)] */\n      0xffffffffffffffffffffffffffffffffffffffff\n      and\n      0xffffffffffffffffffffffffffffffffffffffff\n      and\n      dup2\n      mstore\n      0x20\n      add\n      swap1\n      dup2\n      mstore\n      0x20\n      add\n      0x00\n      keccak256\n        /* \"WagersWorld/RealWager.sol\":10485:10519  marketInfo[address(this)].resolved */\n      0x00\n      add\n      0x00\n        /* \"WagersWorld/RealWager.sol\":10485:10526  marketInfo[address(this)].resolved = true */\n      0x0100\n      exp\n      dup2\n      sload\n      dup2\n      0xff\n      mul\n      not\n      and\n      swap1\n      dup4\n      iszero\n      iszero\n      mul\n      or\n      swap1\n      sstore\n      pop\n        /* \"WagersWorld/RealWager.sol\":10545:10558  bool success1 */\n      0x00\n        /* \"WagersWorld/RealWager.sol\":10561:10570  usdcToken */\n      0x01\n      0x00\n      swap1\n      sload\n      swap1\n      0x0100\n      exp\n      swap1\n      div\n      0xffffffffffffffffffffffffffffffffffffffff\n      and\n        /* \"WagersWorld/RealWager.sol\":10561:10579  usdcToken.transfer */\n      0xffffffffffffffffffffffffffffffffffffffff\n      and\n      0xa9059cbb\n        /* \"WagersWorld/RealWager.sol\":10580:10587  owner() */\n      tag_214\n        /* \"WagersWorld/RealWager.sol\":10580:10585  owner */\n      tag_78\n        /* \"WagersWorld/RealWager.sol\":10580:10587  owner() */\n      jump\t// in\n    tag_214:\n        /* \"WagersWorld/RealWager.sol\":10588:10600  _ownerAmount */\n      dup5\n        /* \"WagersWorld/RealWager.sol\":10561:10601  usdcToken.transfer(owner(),_ownerAmount) */\n      mload(0x40)\n      dup4\n      0xffffffff\n      and\n      0xe0\n      shl\n      dup2\n      mstore\n      0x04\n      add\n      tag_215\n      swap3\n      swap2\n      swap1\n      tag_197\n      jump\t// in\n    tag_215:\n      0x20\n      mload(0x40)\n      dup1\n      dup4\n      sub\n      dup2\n      0x00\n      dup8\n      gas\n      call\n      iszero\n      dup1\n      iszero\n      tag_217\n      jumpi\n      returndatasize\n      0x00\n      dup1\n      returndatacopy\n      revert(0x00, returndatasize)\n    tag_217:\n      pop\n      pop\n      pop\n      pop\n      mload(0x40)\n      returndatasize\n      not(0x1f)\n      0x1f\n      dup3\n      add\n      and\n      dup3\n      add\n      dup1\n      0x40\n      mstore\n      pop\n      dup2\n      add\n      swap1\n      tag_218\n      swap2\n      swap1\n      tag_201\n      jump\t// in\n    tag_218:\n        /* \"WagersWorld/RealWager.sol\":10545:10601  bool success1 = usdcToken.transfer(owner(),_ownerAmount) */\n      swap1\n      pop\n        /* \"WagersWorld/RealWager.sol\":10615:10623  success1 */\n      dup1\n        /* \"WagersWorld/RealWager.sol\":10611:10679  if(!success1){... */\n      tag_219\n      jumpi\n        /* \"WagersWorld/RealWager.sol\":10659:10667  success1 */\n      dup1\n        /* \"WagersWorld/RealWager.sol\":10645:10668  transferFaild(success1) */\n      mload(0x40)\n      0x73fd8f0600000000000000000000000000000000000000000000000000000000\n      dup2\n      mstore\n      0x04\n      add\n      tag_220\n      swap2\n      swap1\n      tag_36\n      jump\t// in\n    tag_220:\n      mload(0x40)\n      dup1\n      swap2\n      sub\n      swap1\n      revert\n        /* \"WagersWorld/RealWager.sol\":10611:10679  if(!success1){... */\n    tag_219:\n        /* \"WagersWorld/RealWager.sol\":10694:10756  ResolveMarket( owner(), _ownerAmount, _perShare, winningIndex) */\n      0x4d21af759c8d2f25c6246594b4cfc2edeb2b901bc0c6e87f5e21c212a12ca1fd\n        /* \"WagersWorld/RealWager.sol\":10709:10716  owner() */\n      tag_221\n        /* \"WagersWorld/RealWager.sol\":10709:10714  owner */\n      tag_78\n        /* \"WagersWorld/RealWager.sol\":10709:10716  owner() */\n      jump\t// in\n    tag_221:\n        /* \"WagersWorld/RealWager.sol\":10718:10730  _ownerAmount */\n      dup4\n        /* \"WagersWorld/RealWager.sol\":10732:10741  _perShare */\n      dup6\n        /* \"WagersWorld/RealWager.sol\":10743:10755  winningIndex */\n      dup9\n        /* \"WagersWorld/RealWager.sol\":10694:10756  ResolveMarket( owner(), _ownerAmount, _perShare, winningIndex) */\n      mload(0x40)\n      tag_222\n      swap5\n      swap4\n      swap3\n      swap2\n      swap1\n      tag_223\n      jump\t// in\n    tag_222:\n      mload(0x40)\n      dup1\n      swap2\n      sub\n      swap1\n      log1\n        /* \"WagersWorld/RealWager.sol\":7989:10763  {... */\n      pop\n      pop\n      pop\n      pop\n        /* \"WagersWorld/RealWager.sol\":7933:10763  function resolveMarket(uint256 winningIndex) external   {... */\n      pop\n      jump\t// out\n        /* \"WagersWorld/RealWager.sol\":2671:4060  function bet(uint256 _amount, uint256 _betOn) external {... */\n    tag_74:\n        /* \"WagersWorld/RealWager.sol\":2750:2751  0 */\n      0x00\n        /* \"WagersWorld/RealWager.sol\":2740:2746  _betOn */\n      dup2\n        /* \"WagersWorld/RealWager.sol\":2740:2751  _betOn != 0 */\n      eq\n      iszero\n        /* \"WagersWorld/RealWager.sol\":2740:2766  _betOn != 0 && _betOn != 1 */\n      dup1\n      iszero\n      tag_225\n      jumpi\n      pop\n        /* \"WagersWorld/RealWager.sol\":2765:2766  1 */\n      0x01\n        /* \"WagersWorld/RealWager.sol\":2755:2761  _betOn */\n      dup2\n        /* \"WagersWorld/RealWager.sol\":2755:2766  _betOn != 1 */\n      eq\n      iszero\n        /* \"WagersWorld/RealWager.sol\":2740:2766  _betOn != 0 && _betOn != 1 */\n    tag_225:\n        /* \"WagersWorld/RealWager.sol\":2737:2820  if(_betOn != 0 && _betOn != 1){... */\n      iszero\n      tag_226\n      jumpi\n        /* \"WagersWorld/RealWager.sol\":2802:2808  _betOn */\n      dup1\n        /* \"WagersWorld/RealWager.sol\":2788:2809  wrongBetIndex(_betOn) */\n      mload(0x40)\n      0xd7acbe8900000000000000000000000000000000000000000000000000000000\n      dup2\n      mstore\n      0x04\n      add\n      tag_227\n      swap2\n      swap1\n      tag_84\n      jump\t// in\n    tag_227:\n      mload(0x40)\n      dup1\n      swap2\n      sub\n      swap1\n      revert\n        /* \"WagersWorld/RealWager.sol\":2737:2820  if(_betOn != 0 && _betOn != 1){... */\n    tag_226:\n        /* \"WagersWorld/RealWager.sol\":2843:2844  0 */\n      0x00\n        /* \"WagersWorld/RealWager.sol\":2832:2839  _amount */\n      dup3\n        /* \"WagersWorld/RealWager.sol\":2832:2844  _amount <= 0 */\n      gt\n        /* \"WagersWorld/RealWager.sol\":2829:2897  if(_amount <= 0){... */\n      tag_228\n      jumpi\n        /* \"WagersWorld/RealWager.sol\":2878:2885  _amount */\n      dup2\n        /* \"WagersWorld/RealWager.sol\":2866:2886  wrongAmount(_amount) */\n      mload(0x40)\n      0x2ff4783000000000000000000000000000000000000000000000000000000000\n      dup2\n      mstore\n      0x04\n      add\n      tag_229\n      swap2\n      swap1\n      tag_84\n      jump\t// in\n    tag_229:\n      mload(0x40)\n      dup1\n      swap2\n      sub\n      swap1\n      revert\n        /* \"WagersWorld/RealWager.sol\":2829:2897  if(_amount <= 0){... */\n    tag_228:\n        /* \"WagersWorld/RealWager.sol\":2918:2928  marketInfo */\n      0x06\n        /* \"WagersWorld/RealWager.sol\":2918:2943  marketInfo[address(this)] */\n      0x00\n        /* \"WagersWorld/RealWager.sol\":2937:2941  this */\n      address\n        /* \"WagersWorld/RealWager.sol\":2918:2943  marketInfo[address(this)] */\n      0xffffffffffffffffffffffffffffffffffffffff\n      and\n      0xffffffffffffffffffffffffffffffffffffffff\n      and\n      dup2\n      mstore\n      0x20\n      add\n      swap1\n      dup2\n      mstore\n      0x20\n      add\n      0x00\n      keccak256\n        /* \"WagersWorld/RealWager.sol\":2918:2952  marketInfo[address(this)].resolved */\n      0x00\n      add\n      0x00\n      swap1\n      sload\n      swap1\n      0x0100\n      exp\n      swap1\n      div\n      0xff\n      and\n        /* \"WagersWorld/RealWager.sol\":2915:3001  if(marketInfo[address(this)].resolved){... */\n      iszero\n      tag_230\n      jumpi\n        /* \"WagersWorld/RealWager.sol\":2974:2990  marketResolved() */\n      mload(0x40)\n      0x853fd42100000000000000000000000000000000000000000000000000000000\n      dup2\n      mstore\n      0x04\n      add\n      mload(0x40)\n      dup1\n      swap2\n      sub\n      swap1\n      revert\n        /* \"WagersWorld/RealWager.sol\":2915:3001  if(marketInfo[address(this)].resolved){... */\n    tag_230:\n        /* \"WagersWorld/RealWager.sol\":3024:3032  userInfo */\n      0x05\n        /* \"WagersWorld/RealWager.sol\":3024:3044  userInfo[msg.sender] */\n      0x00\n        /* \"WagersWorld/RealWager.sol\":3033:3043  msg.sender */\n      caller\n        /* \"WagersWorld/RealWager.sol\":3024:3044  userInfo[msg.sender] */\n      0xffffffffffffffffffffffffffffffffffffffff\n      and\n      0xffffffffffffffffffffffffffffffffffffffff\n      and\n      dup2\n      mstore\n      0x20\n      add\n      swap1\n      dup2\n      mstore\n      0x20\n      add\n      0x00\n      keccak256\n        /* \"WagersWorld/RealWager.sol\":3024:3050  userInfo[msg.sender].betOn */\n      0x05\n      add\n        /* \"WagersWorld/RealWager.sol\":3024:3058  userInfo[msg.sender].betOn[_betOn] */\n      0x00\n        /* \"WagersWorld/RealWager.sol\":3051:3057  _betOn */\n      dup3\n        /* \"WagersWorld/RealWager.sol\":3024:3058  userInfo[msg.sender].betOn[_betOn] */\n      dup2\n      mstore\n      0x20\n      add\n      swap1\n      dup2\n      mstore\n      0x20\n      add\n      0x00\n      keccak256\n      0x00\n      swap1\n      sload\n      swap1\n      0x0100\n      exp\n      swap1\n      div\n      0xff\n      and\n        /* \"WagersWorld/RealWager.sol\":3020:3148  if(!userInfo[msg.sender].betOn[_betOn]){     ... */\n      tag_231\n      jumpi\n        /* \"WagersWorld/RealWager.sol\":3101:3111  msg.sender */\n      caller\n        /* \"WagersWorld/RealWager.sol\":3078:3086  eachUser */\n      0x04\n        /* \"WagersWorld/RealWager.sol\":3078:3098  eachUser[totalUsers] */\n      0x00\n        /* \"WagersWorld/RealWager.sol\":3087:3097  totalUsers */\n      sload(0x02)\n        /* \"WagersWorld/RealWager.sol\":3078:3098  eachUser[totalUsers] */\n      dup2\n      mstore\n      0x20\n      add\n      swap1\n      dup2\n      mstore\n      0x20\n      add\n      0x00\n      keccak256\n      0x00\n        /* \"WagersWorld/RealWager.sol\":3078:3111  eachUser[totalUsers] = msg.sender */\n      0x0100\n      exp\n      dup2\n      sload\n      dup2\n      0xffffffffffffffffffffffffffffffffffffffff\n      mul\n      not\n      and\n      swap1\n      dup4\n      0xffffffffffffffffffffffffffffffffffffffff\n      and\n      mul\n      or\n      swap1\n      sstore\n      pop\n        /* \"WagersWorld/RealWager.sol\":3125:3135  totalUsers */\n      0x02\n      0x00\n        /* \"WagersWorld/RealWager.sol\":3125:3137  totalUsers++ */\n      dup2\n      sload\n      dup1\n      swap3\n      swap2\n      swap1\n      tag_232\n      swap1\n      tag_152\n      jump\t// in\n    tag_232:\n      swap2\n      swap1\n      pop\n      sstore\n      pop\n        /* \"WagersWorld/RealWager.sol\":3020:3148  if(!userInfo[msg.sender].betOn[_betOn]){     ... */\n    tag_231:\n        /* \"WagersWorld/RealWager.sol\":3171:3172  0 */\n      0x00\n        /* \"WagersWorld/RealWager.sol\":3161:3167  _betOn */\n      dup2\n        /* \"WagersWorld/RealWager.sol\":3161:3172  _betOn == 0 */\n      sub\n        /* \"WagersWorld/RealWager.sol\":3158:3460  if(_betOn == 0 ){... */\n      tag_233\n      jumpi\n        /* \"WagersWorld/RealWager.sol\":3237:3244  _amount */\n      dup2\n        /* \"WagersWorld/RealWager.sol\":3189:3199  marketInfo */\n      0x06\n        /* \"WagersWorld/RealWager.sol\":3189:3214  marketInfo[address(this)] */\n      0x00\n        /* \"WagersWorld/RealWager.sol\":3208:3212  this */\n      address\n        /* \"WagersWorld/RealWager.sol\":3189:3214  marketInfo[address(this)] */\n      0xffffffffffffffffffffffffffffffffffffffff\n      and\n      0xffffffffffffffffffffffffffffffffffffffff\n      and\n      dup2\n      mstore\n      0x20\n      add\n      swap1\n      dup2\n      mstore\n      0x20\n      add\n      0x00\n      keccak256\n        /* \"WagersWorld/RealWager.sol\":3189:3233  marketInfo[address(this)].totalBetAmountOnNo */\n      0x07\n      add\n      0x00\n        /* \"WagersWorld/RealWager.sol\":3189:3244  marketInfo[address(this)].totalBetAmountOnNo += _amount */\n      dup3\n      dup3\n      sload\n      tag_234\n      swap2\n      swap1\n      tag_114\n      jump\t// in\n    tag_234:\n      swap3\n      pop\n      pop\n      dup2\n      swap1\n      sstore\n      pop\n        /* \"WagersWorld/RealWager.sol\":3294:3301  _amount */\n      dup2\n        /* \"WagersWorld/RealWager.sol\":3258:3266  userInfo */\n      0x05\n        /* \"WagersWorld/RealWager.sol\":3258:3278  userInfo[msg.sender] */\n      0x00\n        /* \"WagersWorld/RealWager.sol\":3267:3277  msg.sender */\n      caller\n        /* \"WagersWorld/RealWager.sol\":3258:3278  userInfo[msg.sender] */\n      0xffffffffffffffffffffffffffffffffffffffff\n      and\n      0xffffffffffffffffffffffffffffffffffffffff\n      and\n      dup2\n      mstore\n      0x20\n      add\n      swap1\n      dup2\n      mstore\n      0x20\n      add\n      0x00\n      keccak256\n        /* \"WagersWorld/RealWager.sol\":3258:3290  userInfo[msg.sender].noBetAmount */\n      0x01\n      add\n      0x00\n        /* \"WagersWorld/RealWager.sol\":3258:3301  userInfo[msg.sender].noBetAmount += _amount */\n      dup3\n      dup3\n      sload\n      tag_235\n      swap2\n      swap1\n      tag_114\n      jump\t// in\n    tag_235:\n      swap3\n      pop\n      pop\n      dup2\n      swap1\n      sstore\n      pop\n        /* \"WagersWorld/RealWager.sol\":3158:3460  if(_betOn == 0 ){... */\n      jump(tag_236)\n    tag_233:\n        /* \"WagersWorld/RealWager.sol\":3382:3389  _amount */\n      dup2\n        /* \"WagersWorld/RealWager.sol\":3333:3343  marketInfo */\n      0x06\n        /* \"WagersWorld/RealWager.sol\":3333:3358  marketInfo[address(this)] */\n      0x00\n        /* \"WagersWorld/RealWager.sol\":3352:3356  this */\n      address\n        /* \"WagersWorld/RealWager.sol\":3333:3358  marketInfo[address(this)] */\n      0xffffffffffffffffffffffffffffffffffffffff\n      and\n      0xffffffffffffffffffffffffffffffffffffffff\n      and\n      dup2\n      mstore\n      0x20\n      add\n      swap1\n      dup2\n      mstore\n      0x20\n      add\n      0x00\n      keccak256\n        /* \"WagersWorld/RealWager.sol\":3333:3378  marketInfo[address(this)].totalBetAmountOnYes */\n      0x06\n      add\n      0x00\n        /* \"WagersWorld/RealWager.sol\":3333:3389  marketInfo[address(this)].totalBetAmountOnYes += _amount */\n      dup3\n      dup3\n      sload\n      tag_237\n      swap2\n      swap1\n      tag_114\n      jump\t// in\n    tag_237:\n      swap3\n      pop\n      pop\n      dup2\n      swap1\n      sstore\n      pop\n        /* \"WagersWorld/RealWager.sol\":3442:3449  _amount */\n      dup2\n        /* \"WagersWorld/RealWager.sol\":3405:3413  userInfo */\n      0x05\n        /* \"WagersWorld/RealWager.sol\":3405:3425  userInfo[msg.sender] */\n      0x00\n        /* \"WagersWorld/RealWager.sol\":3414:3424  msg.sender */\n      caller\n        /* \"WagersWorld/RealWager.sol\":3405:3425  userInfo[msg.sender] */\n      0xffffffffffffffffffffffffffffffffffffffff\n      and\n      0xffffffffffffffffffffffffffffffffffffffff\n      and\n      dup2\n      mstore\n      0x20\n      add\n      swap1\n      dup2\n      mstore\n      0x20\n      add\n      0x00\n      keccak256\n        /* \"WagersWorld/RealWager.sol\":3405:3438  userInfo[msg.sender].yesBetAmount */\n      0x03\n      add\n      0x00\n        /* \"WagersWorld/RealWager.sol\":3405:3449  userInfo[msg.sender].yesBetAmount += _amount */\n      dup3\n      dup3\n      sload\n      tag_238\n      swap2\n      swap1\n      tag_114\n      jump\t// in\n    tag_238:\n      swap3\n      pop\n      pop\n      dup2\n      swap1\n      sstore\n      pop\n        /* \"WagersWorld/RealWager.sol\":3158:3460  if(_betOn == 0 ){... */\n    tag_236:\n        /* \"WagersWorld/RealWager.sol\":3511:3518  _amount */\n      dup2\n        /* \"WagersWorld/RealWager.sol\":3470:3480  marketInfo */\n      0x06\n        /* \"WagersWorld/RealWager.sol\":3470:3495  marketInfo[address(this)] */\n      0x00\n        /* \"WagersWorld/RealWager.sol\":3489:3493  this */\n      address\n        /* \"WagersWorld/RealWager.sol\":3470:3495  marketInfo[address(this)] */\n      0xffffffffffffffffffffffffffffffffffffffff\n      and\n      0xffffffffffffffffffffffffffffffffffffffff\n      and\n      dup2\n      mstore\n      0x20\n      add\n      swap1\n      dup2\n      mstore\n      0x20\n      add\n      0x00\n      keccak256\n        /* \"WagersWorld/RealWager.sol\":3470:3507  marketInfo[address(this)].totalAmount */\n      0x03\n      add\n      0x00\n        /* \"WagersWorld/RealWager.sol\":3470:3518  marketInfo[address(this)].totalAmount += _amount */\n      dup3\n      dup3\n      sload\n      tag_239\n      swap2\n      swap1\n      tag_114\n      jump\t// in\n    tag_239:\n      swap3\n      pop\n      pop\n      dup2\n      swap1\n      sstore\n      pop\n        /* \"WagersWorld/RealWager.sol\":3528:3538  marketInfo */\n      0x06\n        /* \"WagersWorld/RealWager.sol\":3528:3553  marketInfo[address(this)] */\n      0x00\n        /* \"WagersWorld/RealWager.sol\":3547:3551  this */\n      address\n        /* \"WagersWorld/RealWager.sol\":3528:3553  marketInfo[address(this)] */\n      0xffffffffffffffffffffffffffffffffffffffff\n      and\n      0xffffffffffffffffffffffffffffffffffffffff\n      and\n      dup2\n      mstore\n      0x20\n      add\n      swap1\n      dup2\n      mstore\n      0x20\n      add\n      0x00\n      keccak256\n        /* \"WagersWorld/RealWager.sol\":3528:3563  marketInfo[address(this)].totalBets */\n      0x02\n      add\n      0x00\n        /* \"WagersWorld/RealWager.sol\":3528:3565  marketInfo[address(this)].totalBets++ */\n      dup2\n      sload\n      dup1\n      swap3\n      swap2\n      swap1\n      tag_240\n      swap1\n      tag_152\n      jump\t// in\n    tag_240:\n      swap2\n      swap1\n      pop\n      sstore\n      pop\n        /* \"WagersWorld/RealWager.sol\":3612:3616  true */\n      0x01\n        /* \"WagersWorld/RealWager.sol\":3575:3583  userInfo */\n      0x05\n        /* \"WagersWorld/RealWager.sol\":3575:3595  userInfo[msg.sender] */\n      0x00\n        /* \"WagersWorld/RealWager.sol\":3584:3594  msg.sender */\n      caller\n        /* \"WagersWorld/RealWager.sol\":3575:3595  userInfo[msg.sender] */\n      0xffffffffffffffffffffffffffffffffffffffff\n      and\n      0xffffffffffffffffffffffffffffffffffffffff\n      and\n      dup2\n      mstore\n      0x20\n      add\n      swap1\n      dup2\n      mstore\n      0x20\n      add\n      0x00\n      keccak256\n        /* \"WagersWorld/RealWager.sol\":3575:3601  userInfo[msg.sender].betOn */\n      0x05\n      add\n        /* \"WagersWorld/RealWager.sol\":3575:3609  userInfo[msg.sender].betOn[_betOn] */\n      0x00\n        /* \"WagersWorld/RealWager.sol\":3602:3608  _betOn */\n      dup4\n        /* \"WagersWorld/RealWager.sol\":3575:3609  userInfo[msg.sender].betOn[_betOn] */\n      dup2\n      mstore\n      0x20\n      add\n      swap1\n      dup2\n      mstore\n      0x20\n      add\n      0x00\n      keccak256\n      0x00\n        /* \"WagersWorld/RealWager.sol\":3575:3616  userInfo[msg.sender].betOn[_betOn] = true */\n      0x0100\n      exp\n      dup2\n      sload\n      dup2\n      0xff\n      mul\n      not\n      and\n      swap1\n      dup4\n      iszero\n      iszero\n      mul\n      or\n      swap1\n      sstore\n      pop\n        /* \"WagersWorld/RealWager.sol\":3729:3838  PriceCalculation(marketInfo[address(this)].totalBetAmountOnNo, marketInfo[address(this)].totalBetAmountOnYes) */\n      tag_241\n        /* \"WagersWorld/RealWager.sol\":3746:3756  marketInfo */\n      0x06\n        /* \"WagersWorld/RealWager.sol\":3746:3771  marketInfo[address(this)] */\n      0x00\n        /* \"WagersWorld/RealWager.sol\":3765:3769  this */\n      address\n        /* \"WagersWorld/RealWager.sol\":3746:3771  marketInfo[address(this)] */\n      0xffffffffffffffffffffffffffffffffffffffff\n      and\n      0xffffffffffffffffffffffffffffffffffffffff\n      and\n      dup2\n      mstore\n      0x20\n      add\n      swap1\n      dup2\n      mstore\n      0x20\n      add\n      0x00\n      keccak256\n        /* \"WagersWorld/RealWager.sol\":3746:3790  marketInfo[address(this)].totalBetAmountOnNo */\n      0x07\n      add\n      sload\n        /* \"WagersWorld/RealWager.sol\":3792:3802  marketInfo */\n      0x06\n        /* \"WagersWorld/RealWager.sol\":3792:3817  marketInfo[address(this)] */\n      0x00\n        /* \"WagersWorld/RealWager.sol\":3811:3815  this */\n      address\n        /* \"WagersWorld/RealWager.sol\":3792:3817  marketInfo[address(this)] */\n      0xffffffffffffffffffffffffffffffffffffffff\n      and\n      0xffffffffffffffffffffffffffffffffffffffff\n      and\n      dup2\n      mstore\n      0x20\n      add\n      swap1\n      dup2\n      mstore\n      0x20\n      add\n      0x00\n      keccak256\n        /* \"WagersWorld/RealWager.sol\":3792:3837  marketInfo[address(this)].totalBetAmountOnYes */\n      0x06\n      add\n      sload\n        /* \"WagersWorld/RealWager.sol\":3729:3745  PriceCalculation */\n      tag_54\n        /* \"WagersWorld/RealWager.sol\":3729:3838  PriceCalculation(marketInfo[address(this)].totalBetAmountOnNo, marketInfo[address(this)].totalBetAmountOnYes) */\n      jump\t// in\n    tag_241:\n        /* \"WagersWorld/RealWager.sol\":3629:3639  marketInfo */\n      0x06\n        /* \"WagersWorld/RealWager.sol\":3629:3654  marketInfo[address(this)] */\n      0x00\n        /* \"WagersWorld/RealWager.sol\":3648:3652  this */\n      address\n        /* \"WagersWorld/RealWager.sol\":3629:3654  marketInfo[address(this)] */\n      0xffffffffffffffffffffffffffffffffffffffff\n      and\n      0xffffffffffffffffffffffffffffffffffffffff\n      and\n      dup2\n      mstore\n      0x20\n      add\n      swap1\n      dup2\n      mstore\n      0x20\n      add\n      0x00\n      keccak256\n        /* \"WagersWorld/RealWager.sol\":3629:3667  marketInfo[address(this)].initialPrice */\n      0x04\n      add\n        /* \"WagersWorld/RealWager.sol\":3668:3669  0 */\n      0x00\n        /* \"WagersWorld/RealWager.sol\":3629:3670  marketInfo[address(this)].initialPrice[0] */\n      0x02\n      dup2\n      lt\n      tag_242\n      jumpi\n      tag_243\n      tag_107\n      jump\t// in\n    tag_243:\n    tag_242:\n      add\n      0x00\n        /* \"WagersWorld/RealWager.sol\":3671:3681  marketInfo */\n      0x06\n        /* \"WagersWorld/RealWager.sol\":3671:3696  marketInfo[address(this)] */\n      0x00\n        /* \"WagersWorld/RealWager.sol\":3690:3694  this */\n      address\n        /* \"WagersWorld/RealWager.sol\":3671:3696  marketInfo[address(this)] */\n      0xffffffffffffffffffffffffffffffffffffffff\n      and\n      0xffffffffffffffffffffffffffffffffffffffff\n      and\n      dup2\n      mstore\n      0x20\n      add\n      swap1\n      dup2\n      mstore\n      0x20\n      add\n      0x00\n      keccak256\n        /* \"WagersWorld/RealWager.sol\":3671:3709  marketInfo[address(this)].initialPrice */\n      0x04\n      add\n        /* \"WagersWorld/RealWager.sol\":3710:3711  1 */\n      0x01\n        /* \"WagersWorld/RealWager.sol\":3671:3712  marketInfo[address(this)].initialPrice[1] */\n      0x02\n      dup2\n      lt\n      tag_245\n      jumpi\n      tag_246\n      tag_107\n      jump\t// in\n    tag_246:\n    tag_245:\n      add\n      0x00\n        /* \"WagersWorld/RealWager.sol\":3628:3838  (marketInfo[address(this)].initialPrice[0],marketInfo[address(this)].initialPrice[1]) = ... */\n      dup5\n      swap2\n      swap1\n      pop\n      sstore\n      dup4\n      swap2\n      swap1\n      pop\n      sstore\n      pop\n      pop\n        /* \"WagersWorld/RealWager.sol\":3856:3868  bool success */\n      0x00\n        /* \"WagersWorld/RealWager.sol\":3871:3880  usdcToken */\n      0x01\n      0x00\n      swap1\n      sload\n      swap1\n      0x0100\n      exp\n      swap1\n      div\n      0xffffffffffffffffffffffffffffffffffffffff\n      and\n        /* \"WagersWorld/RealWager.sol\":3871:3893  usdcToken.transferFrom */\n      0xffffffffffffffffffffffffffffffffffffffff\n      and\n      0x23b872dd\n        /* \"WagersWorld/RealWager.sol\":3894:3904  msg.sender */\n      caller\n        /* \"WagersWorld/RealWager.sol\":3914:3918  this */\n      address\n        /* \"WagersWorld/RealWager.sol\":3921:3928  _amount */\n      dup7\n        /* \"WagersWorld/RealWager.sol\":3871:3929  usdcToken.transferFrom(msg.sender, address(this), _amount) */\n      mload(0x40)\n      dup5\n      0xffffffff\n      and\n      0xe0\n      shl\n      dup2\n      mstore\n      0x04\n      add\n      tag_248\n      swap4\n      swap3\n      swap2\n      swap1\n      tag_249\n      jump\t// in\n    tag_248:\n      0x20\n      mload(0x40)\n      dup1\n      dup4\n      sub\n      dup2\n      0x00\n      dup8\n      gas\n      call\n      iszero\n      dup1\n      iszero\n      tag_251\n      jumpi\n      returndatasize\n      0x00\n      dup1\n      returndatacopy\n      revert(0x00, returndatasize)\n    tag_251:\n      pop\n      pop\n      pop\n      pop\n      mload(0x40)\n      returndatasize\n      not(0x1f)\n      0x1f\n      dup3\n      add\n      and\n      dup3\n      add\n      dup1\n      0x40\n      mstore\n      pop\n      dup2\n      add\n      swap1\n      tag_252\n      swap2\n      swap1\n      tag_201\n      jump\t// in\n    tag_252:\n        /* \"WagersWorld/RealWager.sol\":3856:3929  bool success = usdcToken.transferFrom(msg.sender, address(this), _amount) */\n      swap1\n      pop\n        /* \"WagersWorld/RealWager.sol\":3943:3950  success */\n      dup1\n        /* \"WagersWorld/RealWager.sol\":3939:4006  if(!success){... */\n      tag_253\n      jumpi\n        /* \"WagersWorld/RealWager.sol\":3987:3994  success */\n      dup1\n        /* \"WagersWorld/RealWager.sol\":3972:3995  transferFailed(success) */\n      mload(0x40)\n      0xd85d3cef00000000000000000000000000000000000000000000000000000000\n      dup2\n      mstore\n      0x04\n      add\n      tag_254\n      swap2\n      swap1\n      tag_36\n      jump\t// in\n    tag_254:\n      mload(0x40)\n      dup1\n      swap2\n      sub\n      swap1\n      revert\n        /* \"WagersWorld/RealWager.sol\":3939:4006  if(!success){... */\n    tag_253:\n        /* \"WagersWorld/RealWager.sol\":4037:4044  _amount */\n      dup3\n        /* \"WagersWorld/RealWager.sol\":4025:4035  msg.sender */\n      caller\n        /* \"WagersWorld/RealWager.sol\":4021:4053  Bet(msg.sender, _amount, _betOn) */\n      0xffffffffffffffffffffffffffffffffffffffff\n      and\n      0xf41b7910e085d0992d604fd470931728fd77cc8eb504d99e50e51a0a30fcfd1a\n        /* \"WagersWorld/RealWager.sol\":4046:4052  _betOn */\n      dup5\n        /* \"WagersWorld/RealWager.sol\":4021:4053  Bet(msg.sender, _amount, _betOn) */\n      mload(0x40)\n      tag_255\n      swap2\n      swap1\n      tag_84\n      jump\t// in\n    tag_255:\n      mload(0x40)\n      dup1\n      swap2\n      sub\n      swap1\n      log3\n        /* \"WagersWorld/RealWager.sol\":2726:4060  {... */\n      pop\n        /* \"WagersWorld/RealWager.sol\":2671:4060  function bet(uint256 _amount, uint256 _betOn) external {... */\n      pop\n      pop\n      jump\t// out\n        /* \"@openzeppelin/contracts/access/Ownable.sol\":2293:2394  function renounceOwnership() public virtual onlyOwner {... */\n    tag_76:\n        /* \"@openzeppelin/contracts/access/Ownable.sol\":1531:1544  _checkOwner() */\n      tag_257\n        /* \"@openzeppelin/contracts/access/Ownable.sol\":1531:1542  _checkOwner */\n      tag_258\n        /* \"@openzeppelin/contracts/access/Ownable.sol\":1531:1544  _checkOwner() */\n      jump\t// in\n    tag_257:\n        /* \"@openzeppelin/contracts/access/Ownable.sol\":2357:2387  _transferOwnership(address(0)) */\n      tag_260\n        /* \"@openzeppelin/contracts/access/Ownable.sol\":2384:2385  0 */\n      0x00\n        /* \"@openzeppelin/contracts/access/Ownable.sol\":2357:2375  _transferOwnership */\n      tag_261\n        /* \"@openzeppelin/contracts/access/Ownable.sol\":2357:2387  _transferOwnership(address(0)) */\n      jump\t// in\n    tag_260:\n        /* \"@openzeppelin/contracts/access/Ownable.sol\":2293:2394  function renounceOwnership() public virtual onlyOwner {... */\n      jump\t// out\n        /* \"@openzeppelin/contracts/access/Ownable.sol\":1638:1723  function owner() public view virtual returns (address) {... */\n    tag_78:\n        /* \"@openzeppelin/contracts/access/Ownable.sol\":1684:1691  address */\n      0x00\n        /* \"@openzeppelin/contracts/access/Ownable.sol\":1710:1716  _owner */\n      dup1\n      0x00\n      swap1\n      sload\n      swap1\n      0x0100\n      exp\n      swap1\n      div\n      0xffffffffffffffffffffffffffffffffffffffff\n      and\n        /* \"@openzeppelin/contracts/access/Ownable.sol\":1703:1716  return _owner */\n      swap1\n      pop\n        /* \"@openzeppelin/contracts/access/Ownable.sol\":1638:1723  function owner() public view virtual returns (address) {... */\n      swap1\n      jump\t// out\n        /* \"WagersWorld/RealWager.sol\":10774:11089  function calculateShares(uint256 _amount, uint256 _betOn ) public view returns (uint256) {... */\n    tag_82:\n        /* \"WagersWorld/RealWager.sol\":10854:10861  uint256 */\n      0x00\n        /* \"WagersWorld/RealWager.sol\":10874:10887  uint256 price */\n      dup1\n        /* \"WagersWorld/RealWager.sol\":10891:10901  marketInfo */\n      0x06\n        /* \"WagersWorld/RealWager.sol\":10891:10916  marketInfo[address(this)] */\n      0x00\n        /* \"WagersWorld/RealWager.sol\":10910:10914  this */\n      address\n        /* \"WagersWorld/RealWager.sol\":10891:10916  marketInfo[address(this)] */\n      0xffffffffffffffffffffffffffffffffffffffff\n      and\n      0xffffffffffffffffffffffffffffffffffffffff\n      and\n      dup2\n      mstore\n      0x20\n      add\n      swap1\n      dup2\n      mstore\n      0x20\n      add\n      0x00\n      keccak256\n        /* \"WagersWorld/RealWager.sol\":10891:10929  marketInfo[address(this)].initialPrice */\n      0x04\n      add\n        /* \"WagersWorld/RealWager.sol\":10930:10936  _betOn */\n      dup4\n        /* \"WagersWorld/RealWager.sol\":10891:10937  marketInfo[address(this)].initialPrice[_betOn] */\n      0x02\n      dup2\n      lt\n      tag_264\n      jumpi\n      tag_265\n      tag_107\n      jump\t// in\n    tag_265:\n    tag_264:\n      add\n      sload\n        /* \"WagersWorld/RealWager.sol\":10874:10937  uint256 price =  marketInfo[address(this)].initialPrice[_betOn] */\n      swap1\n      pop\n        /* \"WagersWorld/RealWager.sol\":10973:10974  0 */\n      0x00\n        /* \"WagersWorld/RealWager.sol\":10964:10969  price */\n      dup2\n        /* \"WagersWorld/RealWager.sol\":10964:10974  price != 0 */\n      sub\n        /* \"WagersWorld/RealWager.sol\":10956:11000  require(price != 0, \"_price cannot be zero\") */\n      tag_267\n      jumpi\n      mload(0x40)\n      0x08c379a000000000000000000000000000000000000000000000000000000000\n      dup2\n      mstore\n      0x04\n      add\n      tag_268\n      swap1\n      tag_269\n      jump\t// in\n    tag_268:\n      mload(0x40)\n      dup1\n      swap2\n      sub\n      swap1\n      revert\n    tag_267:\n        /* \"WagersWorld/RealWager.sol\":11010:11024  uint256 result */\n      0x00\n        /* \"WagersWorld/RealWager.sol\":11045:11050  price */\n      dup2\n        /* \"WagersWorld/RealWager.sol\":11038:11041  100 */\n      0x64\n        /* \"WagersWorld/RealWager.sol\":11028:11035  _amount */\n      dup7\n        /* \"WagersWorld/RealWager.sol\":11028:11041  _amount * 100 */\n      tag_270\n      swap2\n      swap1\n      tag_117\n      jump\t// in\n    tag_270:\n        /* \"WagersWorld/RealWager.sol\":11027:11050  (_amount * 100) / price */\n      tag_271\n      swap2\n      swap1\n      tag_119\n      jump\t// in\n    tag_271:\n        /* \"WagersWorld/RealWager.sol\":11010:11050  uint256 result = (_amount * 100) / price */\n      swap1\n      pop\n        /* \"WagersWorld/RealWager.sol\":11076:11082  result */\n      dup1\n        /* \"WagersWorld/RealWager.sol\":11069:11082  return result */\n      swap3\n      pop\n      pop\n      pop\n        /* \"WagersWorld/RealWager.sol\":10774:11089  function calculateShares(uint256 _amount, uint256 _betOn ) public view returns (uint256) {... */\n      swap3\n      swap2\n      pop\n      pop\n      jump\t// out\n        /* \"WagersWorld/RealWager.sol\":925:956  uint256 public profitPercentage */\n    tag_86:\n      sload(0x03)\n      dup2\n      jump\t// out\n        /* \"WagersWorld/RealWager.sol\":894:919  uint256 public totalUsers */\n    tag_89:\n      sload(0x02)\n      dup2\n      jump\t// out\n        /* \"WagersWorld/RealWager.sol\":1062:1110  mapping(address => MarketInfo) public marketInfo */\n    tag_93:\n      mstore(0x20, 0x06)\n      dup1\n      0x00\n      mstore\n      keccak256(0x00, 0x40)\n      0x00\n      swap2\n      pop\n      swap1\n      pop\n      dup1\n      0x00\n      add\n      0x00\n      swap1\n      sload\n      swap1\n      0x0100\n      exp\n      swap1\n      div\n      0xff\n      and\n      swap1\n      dup1\n      0x01\n      add\n      sload\n      swap1\n      dup1\n      0x02\n      add\n      sload\n      swap1\n      dup1\n      0x03\n      add\n      sload\n      swap1\n      dup1\n      0x06\n      add\n      sload\n      swap1\n      dup1\n      0x07\n      add\n      sload\n      swap1\n      pop\n      dup7\n      jump\t// out\n        /* \"@openzeppelin/contracts/access/Ownable.sol\":2543:2758  function transferOwnership(address newOwner) public virtual onlyOwner {... */\n    tag_98:\n        /* \"@openzeppelin/contracts/access/Ownable.sol\":1531:1544  _checkOwner() */\n      tag_273\n        /* \"@openzeppelin/contracts/access/Ownable.sol\":1531:1542  _checkOwner */\n      tag_258\n        /* \"@openzeppelin/contracts/access/Ownable.sol\":1531:1544  _checkOwner() */\n      jump\t// in\n    tag_273:\n        /* \"@openzeppelin/contracts/access/Ownable.sol\":2647:2648  0 */\n      0x00\n        /* \"@openzeppelin/contracts/access/Ownable.sol\":2627:2649  newOwner == address(0) */\n      0xffffffffffffffffffffffffffffffffffffffff\n      and\n        /* \"@openzeppelin/contracts/access/Ownable.sol\":2627:2635  newOwner */\n      dup2\n        /* \"@openzeppelin/contracts/access/Ownable.sol\":2627:2649  newOwner == address(0) */\n      0xffffffffffffffffffffffffffffffffffffffff\n      and\n      sub\n        /* \"@openzeppelin/contracts/access/Ownable.sol\":2623:2714  if (newOwner == address(0)) {... */\n      tag_275\n      jumpi\n        /* \"@openzeppelin/contracts/access/Ownable.sol\":2700:2701  0 */\n      0x00\n        /* \"@openzeppelin/contracts/access/Ownable.sol\":2672:2703  OwnableInvalidOwner(address(0)) */\n      mload(0x40)\n      0x1e4fbdf700000000000000000000000000000000000000000000000000000000\n      dup2\n      mstore\n      0x04\n      add\n      tag_276\n      swap2\n      swap1\n      tag_30\n      jump\t// in\n    tag_276:\n      mload(0x40)\n      dup1\n      swap2\n      sub\n      swap1\n      revert\n        /* \"@openzeppelin/contracts/access/Ownable.sol\":2623:2714  if (newOwner == address(0)) {... */\n    tag_275:\n        /* \"@openzeppelin/contracts/access/Ownable.sol\":2723:2751  _transferOwnership(newOwner) */\n      tag_277\n        /* \"@openzeppelin/contracts/access/Ownable.sol\":2742:2750  newOwner */\n      dup2\n        /* \"@openzeppelin/contracts/access/Ownable.sol\":2723:2741  _transferOwnership */\n      tag_261\n        /* \"@openzeppelin/contracts/access/Ownable.sol\":2723:2751  _transferOwnership(newOwner) */\n      jump\t// in\n    tag_277:\n        /* \"@openzeppelin/contracts/access/Ownable.sol\":2543:2758  function transferOwnership(address newOwner) public virtual onlyOwner {... */\n      pop\n      jump\t// out\n        /* \"WagersWorld/RealWager.sol\":6417:7922  function buyShare(uint256 _listNo, address _owner) external {... */\n    tag_102:\n        /* \"WagersWorld/RealWager.sol\":6500:6508  sellInfo */\n      0x07\n        /* \"WagersWorld/RealWager.sol\":6500:6516  sellInfo[_owner] */\n      0x00\n        /* \"WagersWorld/RealWager.sol\":6509:6515  _owner */\n      dup3\n        /* \"WagersWorld/RealWager.sol\":6500:6516  sellInfo[_owner] */\n      0xffffffffffffffffffffffffffffffffffffffff\n      and\n      0xffffffffffffffffffffffffffffffffffffffff\n      and\n      dup2\n      mstore\n      0x20\n      add\n      swap1\n      dup2\n      mstore\n      0x20\n      add\n      0x00\n      keccak256\n        /* \"WagersWorld/RealWager.sol\":6500:6525  sellInfo[_owner][_listNo] */\n      0x00\n        /* \"WagersWorld/RealWager.sol\":6517:6524  _listNo */\n      dup4\n        /* \"WagersWorld/RealWager.sol\":6500:6525  sellInfo[_owner][_listNo] */\n      dup2\n      mstore\n      0x20\n      add\n      swap1\n      dup2\n      mstore\n      0x20\n      add\n      0x00\n      keccak256\n        /* \"WagersWorld/RealWager.sol\":6500:6530  sellInfo[_owner][_listNo].list */\n      0x00\n      add\n      0x00\n      swap1\n      sload\n      swap1\n      0x0100\n      exp\n      swap1\n      div\n      0xff\n      and\n        /* \"WagersWorld/RealWager.sol\":6496:6581  if(!sellInfo[_owner][_listNo].list){... */\n      tag_279\n      jumpi\n        /* \"WagersWorld/RealWager.sol\":6562:6569  _listNo */\n      dup2\n        /* \"WagersWorld/RealWager.sol\":6552:6570  notListed(_listNo) */\n      mload(0x40)\n      0x1599706800000000000000000000000000000000000000000000000000000000\n      dup2\n      mstore\n      0x04\n      add\n      tag_280\n      swap2\n      swap1\n      tag_84\n      jump\t// in\n    tag_280:\n      mload(0x40)\n      dup1\n      swap2\n      sub\n      swap1\n      revert\n        /* \"WagersWorld/RealWager.sol\":6496:6581  if(!sellInfo[_owner][_listNo].list){... */\n    tag_279:\n        /* \"WagersWorld/RealWager.sol\":6593:6601  sellInfo */\n      0x07\n        /* \"WagersWorld/RealWager.sol\":6593:6609  sellInfo[_owner] */\n      0x00\n        /* \"WagersWorld/RealWager.sol\":6602:6608  _owner */\n      dup3\n        /* \"WagersWorld/RealWager.sol\":6593:6609  sellInfo[_owner] */\n      0xffffffffffffffffffffffffffffffffffffffff\n      and\n      0xffffffffffffffffffffffffffffffffffffffff\n      and\n      dup2\n      mstore\n      0x20\n      add\n      swap1\n      dup2\n      mstore\n      0x20\n      add\n      0x00\n      keccak256\n        /* \"WagersWorld/RealWager.sol\":6593:6618  sellInfo[_owner][_listNo] */\n      0x00\n        /* \"WagersWorld/RealWager.sol\":6610:6617  _listNo */\n      dup4\n        /* \"WagersWorld/RealWager.sol\":6593:6618  sellInfo[_owner][_listNo] */\n      dup2\n      mstore\n      0x20\n      add\n      swap1\n      dup2\n      mstore\n      0x20\n      add\n      0x00\n      keccak256\n        /* \"WagersWorld/RealWager.sol\":6593:6623  sellInfo[_owner][_listNo].sold */\n      0x00\n      add\n      0x01\n      swap1\n      sload\n      swap1\n      0x0100\n      exp\n      swap1\n      div\n      0xff\n      and\n        /* \"WagersWorld/RealWager.sol\":6590:6699  if(sellInfo[_owner][_listNo].sold){... */\n      iszero\n      tag_281\n      jumpi\n        /* \"WagersWorld/RealWager.sol\":6657:6665  sellInfo */\n      0x07\n        /* \"WagersWorld/RealWager.sol\":6657:6673  sellInfo[_owner] */\n      0x00\n        /* \"WagersWorld/RealWager.sol\":6666:6672  _owner */\n      dup3\n        /* \"WagersWorld/RealWager.sol\":6657:6673  sellInfo[_owner] */\n      0xffffffffffffffffffffffffffffffffffffffff\n      and\n      0xffffffffffffffffffffffffffffffffffffffff\n      and\n      dup2\n      mstore\n      0x20\n      add\n      swap1\n      dup2\n      mstore\n      0x20\n      add\n      0x00\n      keccak256\n        /* \"WagersWorld/RealWager.sol\":6657:6682  sellInfo[_owner][_listNo] */\n      0x00\n        /* \"WagersWorld/RealWager.sol\":6674:6681  _listNo */\n      dup4\n        /* \"WagersWorld/RealWager.sol\":6657:6682  sellInfo[_owner][_listNo] */\n      dup2\n      mstore\n      0x20\n      add\n      swap1\n      dup2\n      mstore\n      0x20\n      add\n      0x00\n      keccak256\n        /* \"WagersWorld/RealWager.sol\":6657:6687  sellInfo[_owner][_listNo].sold */\n      0x00\n      add\n      0x01\n      swap1\n      sload\n      swap1\n      0x0100\n      exp\n      swap1\n      div\n      0xff\n      and\n        /* \"WagersWorld/RealWager.sol\":6645:6688  alreadySold(sellInfo[_owner][_listNo].sold) */\n      mload(0x40)\n      0xca1c6eb300000000000000000000000000000000000000000000000000000000\n      dup2\n      mstore\n      0x04\n      add\n      tag_282\n      swap2\n      swap1\n      tag_36\n      jump\t// in\n    tag_282:\n      mload(0x40)\n      dup1\n      swap2\n      sub\n      swap1\n      revert\n        /* \"WagersWorld/RealWager.sol\":6590:6699  if(sellInfo[_owner][_listNo].sold){... */\n    tag_281:\n        /* \"WagersWorld/RealWager.sol\":6720:6730  marketInfo */\n      0x06\n        /* \"WagersWorld/RealWager.sol\":6720:6745  marketInfo[address(this)] */\n      0x00\n        /* \"WagersWorld/RealWager.sol\":6739:6743  this */\n      address\n        /* \"WagersWorld/RealWager.sol\":6720:6745  marketInfo[address(this)] */\n      0xffffffffffffffffffffffffffffffffffffffff\n      and\n      0xffffffffffffffffffffffffffffffffffffffff\n      and\n      dup2\n      mstore\n      0x20\n      add\n      swap1\n      dup2\n      mstore\n      0x20\n      add\n      0x00\n      keccak256\n        /* \"WagersWorld/RealWager.sol\":6720:6754  marketInfo[address(this)].resolved */\n      0x00\n      add\n      0x00\n      swap1\n      sload\n      swap1\n      0x0100\n      exp\n      swap1\n      div\n      0xff\n      and\n        /* \"WagersWorld/RealWager.sol\":6717:6803  if(marketInfo[address(this)].resolved){... */\n      iszero\n      tag_283\n      jumpi\n        /* \"WagersWorld/RealWager.sol\":6776:6792  marketResolved() */\n      mload(0x40)\n      0x853fd42100000000000000000000000000000000000000000000000000000000\n      dup2\n      mstore\n      0x04\n      add\n      mload(0x40)\n      dup1\n      swap2\n      sub\n      swap1\n      revert\n        /* \"WagersWorld/RealWager.sol\":6717:6803  if(marketInfo[address(this)].resolved){... */\n    tag_283:\n        /* \"WagersWorld/RealWager.sol\":6851:6857  _owner */\n      dup1\n        /* \"WagersWorld/RealWager.sol\":6816:6857  sellInfo[_owner][_listNo].owner != _owner */\n      0xffffffffffffffffffffffffffffffffffffffff\n      and\n        /* \"WagersWorld/RealWager.sol\":6816:6824  sellInfo */\n      0x07\n        /* \"WagersWorld/RealWager.sol\":6816:6832  sellInfo[_owner] */\n      0x00\n        /* \"WagersWorld/RealWager.sol\":6825:6831  _owner */\n      dup4\n        /* \"WagersWorld/RealWager.sol\":6816:6832  sellInfo[_owner] */\n      0xffffffffffffffffffffffffffffffffffffffff\n      and\n      0xffffffffffffffffffffffffffffffffffffffff\n      and\n      dup2\n      mstore\n      0x20\n      add\n      swap1\n      dup2\n      mstore\n      0x20\n      add\n      0x00\n      keccak256\n        /* \"WagersWorld/RealWager.sol\":6816:6841  sellInfo[_owner][_listNo] */\n      0x00\n        /* \"WagersWorld/RealWager.sol\":6833:6840  _listNo */\n      dup5\n        /* \"WagersWorld/RealWager.sol\":6816:6841  sellInfo[_owner][_listNo] */\n      dup2\n      mstore\n      0x20\n      add\n      swap1\n      dup2\n      mstore\n      0x20\n      add\n      0x00\n      keccak256\n        /* \"WagersWorld/RealWager.sol\":6816:6847  sellInfo[_owner][_listNo].owner */\n      0x00\n      add\n      0x02\n      swap1\n      sload\n      swap1\n      0x0100\n      exp\n      swap1\n      div\n      0xffffffffffffffffffffffffffffffffffffffff\n      and\n        /* \"WagersWorld/RealWager.sol\":6816:6857  sellInfo[_owner][_listNo].owner != _owner */\n      0xffffffffffffffffffffffffffffffffffffffff\n      and\n      eq\n        /* \"WagersWorld/RealWager.sol\":6813:6908  if(sellInfo[_owner][_listNo].owner != _owner){... */\n      tag_284\n      jumpi\n        /* \"WagersWorld/RealWager.sol\":6890:6896  _owner */\n      dup1\n        /* \"WagersWorld/RealWager.sol\":6879:6897  wrongOwner(_owner) */\n      mload(0x40)\n      0xf6b79c5800000000000000000000000000000000000000000000000000000000\n      dup2\n      mstore\n      0x04\n      add\n      tag_285\n      swap2\n      swap1\n      tag_30\n      jump\t// in\n    tag_285:\n      mload(0x40)\n      dup1\n      swap2\n      sub\n      swap1\n      revert\n        /* \"WagersWorld/RealWager.sol\":6813:6908  if(sellInfo[_owner][_listNo].owner != _owner){... */\n    tag_284:\n        /* \"WagersWorld/RealWager.sol\":6951:6955  true */\n      0x01\n        /* \"WagersWorld/RealWager.sol\":6918:6926  sellInfo */\n      0x07\n        /* \"WagersWorld/RealWager.sol\":6918:6934  sellInfo[_owner] */\n      0x00\n        /* \"WagersWorld/RealWager.sol\":6927:6933  _owner */\n      dup4\n        /* \"WagersWorld/RealWager.sol\":6918:6934  sellInfo[_owner] */\n      0xffffffffffffffffffffffffffffffffffffffff\n      and\n      0xffffffffffffffffffffffffffffffffffffffff\n      and\n      dup2\n      mstore\n      0x20\n      add\n      swap1\n      dup2\n      mstore\n      0x20\n      add\n      0x00\n      keccak256\n        /* \"WagersWorld/RealWager.sol\":6918:6943  sellInfo[_owner][_listNo] */\n      0x00\n        /* \"WagersWorld/RealWager.sol\":6935:6942  _listNo */\n      dup5\n        /* \"WagersWorld/RealWager.sol\":6918:6943  sellInfo[_owner][_listNo] */\n      dup2\n      mstore\n      0x20\n      add\n      swap1\n      dup2\n      mstore\n      0x20\n      add\n      0x00\n      keccak256\n        /* \"WagersWorld/RealWager.sol\":6918:6948  sellInfo[_owner][_listNo].sold */\n      0x00\n      add\n      0x01\n        /* \"WagersWorld/RealWager.sol\":6918:6955  sellInfo[_owner][_listNo].sold = true */\n      0x0100\n      exp\n      dup2\n      sload\n      dup2\n      0xff\n      mul\n      not\n      and\n      swap1\n      dup4\n      iszero\n      iszero\n      mul\n      or\n      swap1\n      sstore\n      pop\n        /* \"WagersWorld/RealWager.sol\":6999:7009  msg.sender */\n      caller\n        /* \"WagersWorld/RealWager.sol\":6965:6973  sellInfo */\n      0x07\n        /* \"WagersWorld/RealWager.sol\":6965:6981  sellInfo[_owner] */\n      0x00\n        /* \"WagersWorld/RealWager.sol\":6974:6980  _owner */\n      dup4\n        /* \"WagersWorld/RealWager.sol\":6965:6981  sellInfo[_owner] */\n      0xffffffffffffffffffffffffffffffffffffffff\n      and\n      0xffffffffffffffffffffffffffffffffffffffff\n      and\n      dup2\n      mstore\n      0x20\n      add\n      swap1\n      dup2\n      mstore\n      0x20\n      add\n      0x00\n      keccak256\n        /* \"WagersWorld/RealWager.sol\":6965:6990  sellInfo[_owner][_listNo] */\n      0x00\n        /* \"WagersWorld/RealWager.sol\":6982:6989  _listNo */\n      dup5\n        /* \"WagersWorld/RealWager.sol\":6965:6990  sellInfo[_owner][_listNo] */\n      dup2\n      mstore\n      0x20\n      add\n      swap1\n      dup2\n      mstore\n      0x20\n      add\n      0x00\n      keccak256\n        /* \"WagersWorld/RealWager.sol\":6965:6996  sellInfo[_owner][_listNo].owner */\n      0x00\n      add\n      0x02\n        /* \"WagersWorld/RealWager.sol\":6965:7009  sellInfo[_owner][_listNo].owner = msg.sender */\n      0x0100\n      exp\n      dup2\n      sload\n      dup2\n      0xffffffffffffffffffffffffffffffffffffffff\n      mul\n      not\n      and\n      swap1\n      dup4\n      0xffffffffffffffffffffffffffffffffffffffff\n      and\n      mul\n      or\n      swap1\n      sstore\n      pop\n        /* \"WagersWorld/RealWager.sol\":7067:7068  0 */\n      0x00\n        /* \"WagersWorld/RealWager.sol\":7031:7039  sellInfo */\n      0x07\n        /* \"WagersWorld/RealWager.sol\":7031:7047  sellInfo[_owner] */\n      0x00\n        /* \"WagersWorld/RealWager.sol\":7040:7046  _owner */\n      dup4\n        /* \"WagersWorld/RealWager.sol\":7031:7047  sellInfo[_owner] */\n      0xffffffffffffffffffffffffffffffffffffffff\n      and\n      0xffffffffffffffffffffffffffffffffffffffff\n      and\n      dup2\n      mstore\n      0x20\n      add\n      swap1\n      dup2\n      mstore\n      0x20\n      add\n      0x00\n      keccak256\n        /* \"WagersWorld/RealWager.sol\":7031:7056  sellInfo[_owner][_listNo] */\n      0x00\n        /* \"WagersWorld/RealWager.sol\":7048:7055  _listNo */\n      dup5\n        /* \"WagersWorld/RealWager.sol\":7031:7056  sellInfo[_owner][_listNo] */\n      dup2\n      mstore\n      0x20\n      add\n      swap1\n      dup2\n      mstore\n      0x20\n      add\n      0x00\n      keccak256\n        /* \"WagersWorld/RealWager.sol\":7031:7063  sellInfo[_owner][_listNo].listOn */\n      0x03\n      add\n      sload\n        /* \"WagersWorld/RealWager.sol\":7031:7068  sellInfo[_owner][_listNo].listOn == 0 */\n      sub\n        /* \"WagersWorld/RealWager.sol\":7028:7431  if(sellInfo[_owner][_listNo].listOn == 0){... */\n      tag_286\n      jumpi\n        /* \"WagersWorld/RealWager.sol\":7132:7140  sellInfo */\n      0x07\n        /* \"WagersWorld/RealWager.sol\":7132:7148  sellInfo[_owner] */\n      0x00\n        /* \"WagersWorld/RealWager.sol\":7141:7147  _owner */\n      dup3\n        /* \"WagersWorld/RealWager.sol\":7132:7148  sellInfo[_owner] */\n      0xffffffffffffffffffffffffffffffffffffffff\n      and\n      0xffffffffffffffffffffffffffffffffffffffff\n      and\n      dup2\n      mstore\n      0x20\n      add\n      swap1\n      dup2\n      mstore\n      0x20\n      add\n      0x00\n      keccak256\n        /* \"WagersWorld/RealWager.sol\":7132:7157  sellInfo[_owner][_listNo] */\n      0x00\n        /* \"WagersWorld/RealWager.sol\":7149:7156  _listNo */\n      dup4\n        /* \"WagersWorld/RealWager.sol\":7132:7157  sellInfo[_owner][_listNo] */\n      dup2\n      mstore\n      0x20\n      add\n      swap1\n      dup2\n      mstore\n      0x20\n      add\n      0x00\n      keccak256\n        /* \"WagersWorld/RealWager.sol\":7132:7164  sellInfo[_owner][_listNo].amount */\n      0x02\n      add\n      sload\n        /* \"WagersWorld/RealWager.sol\":7096:7104  userInfo */\n      0x05\n        /* \"WagersWorld/RealWager.sol\":7096:7116  userInfo[msg.sender] */\n      0x00\n        /* \"WagersWorld/RealWager.sol\":7105:7115  msg.sender */\n      caller\n        /* \"WagersWorld/RealWager.sol\":7096:7116  userInfo[msg.sender] */\n      0xffffffffffffffffffffffffffffffffffffffff\n      and\n      0xffffffffffffffffffffffffffffffffffffffff\n      and\n      dup2\n      mstore\n      0x20\n      add\n      swap1\n      dup2\n      mstore\n      0x20\n      add\n      0x00\n      keccak256\n        /* \"WagersWorld/RealWager.sol\":7096:7128  userInfo[msg.sender].noBetAmount */\n      0x01\n      add\n      0x00\n        /* \"WagersWorld/RealWager.sol\":7096:7164  userInfo[msg.sender].noBetAmount += sellInfo[_owner][_listNo].amount */\n      dup3\n      dup3\n      sload\n      tag_287\n      swap2\n      swap1\n      tag_114\n      jump\t// in\n    tag_287:\n      swap3\n      pop\n      pop\n      dup2\n      swap1\n      sstore\n      pop\n        /* \"WagersWorld/RealWager.sol\":7210:7218  sellInfo */\n      0x07\n        /* \"WagersWorld/RealWager.sol\":7210:7226  sellInfo[_owner] */\n      0x00\n        /* \"WagersWorld/RealWager.sol\":7219:7225  _owner */\n      dup3\n        /* \"WagersWorld/RealWager.sol\":7210:7226  sellInfo[_owner] */\n      0xffffffffffffffffffffffffffffffffffffffff\n      and\n      0xffffffffffffffffffffffffffffffffffffffff\n      and\n      dup2\n      mstore\n      0x20\n      add\n      swap1\n      dup2\n      mstore\n      0x20\n      add\n      0x00\n      keccak256\n        /* \"WagersWorld/RealWager.sol\":7210:7235  sellInfo[_owner][_listNo] */\n      0x00\n        /* \"WagersWorld/RealWager.sol\":7227:7234  _listNo */\n      dup4\n        /* \"WagersWorld/RealWager.sol\":7210:7235  sellInfo[_owner][_listNo] */\n      dup2\n      mstore\n      0x20\n      add\n      swap1\n      dup2\n      mstore\n      0x20\n      add\n      0x00\n      keccak256\n        /* \"WagersWorld/RealWager.sol\":7210:7242  sellInfo[_owner][_listNo].amount */\n      0x02\n      add\n      sload\n        /* \"WagersWorld/RealWager.sol\":7178:7186  userInfo */\n      0x05\n        /* \"WagersWorld/RealWager.sol\":7178:7194  userInfo[_owner] */\n      0x00\n        /* \"WagersWorld/RealWager.sol\":7187:7193  _owner */\n      dup4\n        /* \"WagersWorld/RealWager.sol\":7178:7194  userInfo[_owner] */\n      0xffffffffffffffffffffffffffffffffffffffff\n      and\n      0xffffffffffffffffffffffffffffffffffffffff\n      and\n      dup2\n      mstore\n      0x20\n      add\n      swap1\n      dup2\n      mstore\n      0x20\n      add\n      0x00\n      keccak256\n        /* \"WagersWorld/RealWager.sol\":7178:7206  userInfo[_owner].noBetAmount */\n      0x01\n      add\n      0x00\n        /* \"WagersWorld/RealWager.sol\":7178:7242  userInfo[_owner].noBetAmount -= sellInfo[_owner][_listNo].amount */\n      dup3\n      dup3\n      sload\n      tag_288\n      swap2\n      swap1\n      tag_179\n      jump\t// in\n    tag_288:\n      swap3\n      pop\n      pop\n      dup2\n      swap1\n      sstore\n      pop\n        /* \"WagersWorld/RealWager.sol\":7028:7431  if(sellInfo[_owner][_listNo].listOn == 0){... */\n      jump(tag_289)\n    tag_286:\n        /* \"WagersWorld/RealWager.sol\":7305:7313  sellInfo */\n      0x07\n        /* \"WagersWorld/RealWager.sol\":7305:7321  sellInfo[_owner] */\n      0x00\n        /* \"WagersWorld/RealWager.sol\":7314:7320  _owner */\n      dup3\n        /* \"WagersWorld/RealWager.sol\":7305:7321  sellInfo[_owner] */\n      0xffffffffffffffffffffffffffffffffffffffff\n      and\n      0xffffffffffffffffffffffffffffffffffffffff\n      and\n      dup2\n      mstore\n      0x20\n      add\n      swap1\n      dup2\n      mstore\n      0x20\n      add\n      0x00\n      keccak256\n        /* \"WagersWorld/RealWager.sol\":7305:7330  sellInfo[_owner][_listNo] */\n      0x00\n        /* \"WagersWorld/RealWager.sol\":7322:7329  _listNo */\n      dup4\n        /* \"WagersWorld/RealWager.sol\":7305:7330  sellInfo[_owner][_listNo] */\n      dup2\n      mstore\n      0x20\n      add\n      swap1\n      dup2\n      mstore\n      0x20\n      add\n      0x00\n      keccak256\n        /* \"WagersWorld/RealWager.sol\":7305:7337  sellInfo[_owner][_listNo].amount */\n      0x02\n      add\n      sload\n        /* \"WagersWorld/RealWager.sol\":7272:7280  userInfo */\n      0x05\n        /* \"WagersWorld/RealWager.sol\":7272:7288  userInfo[_owner] */\n      0x00\n        /* \"WagersWorld/RealWager.sol\":7281:7287  _owner */\n      dup4\n        /* \"WagersWorld/RealWager.sol\":7272:7288  userInfo[_owner] */\n      0xffffffffffffffffffffffffffffffffffffffff\n      and\n      0xffffffffffffffffffffffffffffffffffffffff\n      and\n      dup2\n      mstore\n      0x20\n      add\n      swap1\n      dup2\n      mstore\n      0x20\n      add\n      0x00\n      keccak256\n        /* \"WagersWorld/RealWager.sol\":7272:7301  userInfo[_owner].yesBetAmount */\n      0x03\n      add\n      0x00\n        /* \"WagersWorld/RealWager.sol\":7272:7337  userInfo[_owner].yesBetAmount -= sellInfo[_owner][_listNo].amount */\n      dup3\n      dup3\n      sload\n      tag_290\n      swap2\n      swap1\n      tag_179\n      jump\t// in\n    tag_290:\n      swap3\n      pop\n      pop\n      dup2\n      swap1\n      sstore\n      pop\n        /* \"WagersWorld/RealWager.sol\":7388:7396  sellInfo */\n      0x07\n        /* \"WagersWorld/RealWager.sol\":7388:7404  sellInfo[_owner] */\n      0x00\n        /* \"WagersWorld/RealWager.sol\":7397:7403  _owner */\n      dup3\n        /* \"WagersWorld/RealWager.sol\":7388:7404  sellInfo[_owner] */\n      0xffffffffffffffffffffffffffffffffffffffff\n      and\n      0xffffffffffffffffffffffffffffffffffffffff\n      and\n      dup2\n      mstore\n      0x20\n      add\n      swap1\n      dup2\n      mstore\n      0x20\n      add\n      0x00\n      keccak256\n        /* \"WagersWorld/RealWager.sol\":7388:7413  sellInfo[_owner][_listNo] */\n      0x00\n        /* \"WagersWorld/RealWager.sol\":7405:7412  _listNo */\n      dup4\n        /* \"WagersWorld/RealWager.sol\":7388:7413  sellInfo[_owner][_listNo] */\n      dup2\n      mstore\n      0x20\n      add\n      swap1\n      dup2\n      mstore\n      0x20\n      add\n      0x00\n      keccak256\n        /* \"WagersWorld/RealWager.sol\":7388:7420  sellInfo[_owner][_listNo].amount */\n      0x02\n      add\n      sload\n        /* \"WagersWorld/RealWager.sol\":7351:7359  userInfo */\n      0x05\n        /* \"WagersWorld/RealWager.sol\":7351:7371  userInfo[msg.sender] */\n      0x00\n        /* \"WagersWorld/RealWager.sol\":7360:7370  msg.sender */\n      caller\n        /* \"WagersWorld/RealWager.sol\":7351:7371  userInfo[msg.sender] */\n      0xffffffffffffffffffffffffffffffffffffffff\n      and\n      0xffffffffffffffffffffffffffffffffffffffff\n      and\n      dup2\n      mstore\n      0x20\n      add\n      swap1\n      dup2\n      mstore\n      0x20\n      add\n      0x00\n      keccak256\n        /* \"WagersWorld/RealWager.sol\":7351:7384  userInfo[msg.sender].yesBetAmount */\n      0x03\n      add\n      0x00\n        /* \"WagersWorld/RealWager.sol\":7351:7420  userInfo[msg.sender].yesBetAmount += sellInfo[_owner][_listNo].amount */\n      dup3\n      dup3\n      sload\n      tag_291\n      swap2\n      swap1\n      tag_114\n      jump\t// in\n    tag_291:\n      swap3\n      pop\n      pop\n      dup2\n      swap1\n      sstore\n      pop\n        /* \"WagersWorld/RealWager.sol\":7028:7431  if(sellInfo[_owner][_listNo].listOn == 0){... */\n    tag_289:\n        /* \"WagersWorld/RealWager.sol\":7512:7516  true */\n      0x01\n        /* \"WagersWorld/RealWager.sol\":7449:7457  userInfo */\n      0x05\n        /* \"WagersWorld/RealWager.sol\":7449:7469  userInfo[msg.sender] */\n      0x00\n        /* \"WagersWorld/RealWager.sol\":7458:7468  msg.sender */\n      caller\n        /* \"WagersWorld/RealWager.sol\":7449:7469  userInfo[msg.sender] */\n      0xffffffffffffffffffffffffffffffffffffffff\n      and\n      0xffffffffffffffffffffffffffffffffffffffff\n      and\n      dup2\n      mstore\n      0x20\n      add\n      swap1\n      dup2\n      mstore\n      0x20\n      add\n      0x00\n      keccak256\n        /* \"WagersWorld/RealWager.sol\":7449:7475  userInfo[msg.sender].betOn */\n      0x05\n      add\n        /* \"WagersWorld/RealWager.sol\":7449:7509  userInfo[msg.sender].betOn[sellInfo[_owner][_listNo].listOn] */\n      0x00\n        /* \"WagersWorld/RealWager.sol\":7476:7484  sellInfo */\n      0x07\n        /* \"WagersWorld/RealWager.sol\":7476:7492  sellInfo[_owner] */\n      0x00\n        /* \"WagersWorld/RealWager.sol\":7485:7491  _owner */\n      dup6\n        /* \"WagersWorld/RealWager.sol\":7476:7492  sellInfo[_owner] */\n      0xffffffffffffffffffffffffffffffffffffffff\n      and\n      0xffffffffffffffffffffffffffffffffffffffff\n      and\n      dup2\n      mstore\n      0x20\n      add\n      swap1\n      dup2\n      mstore\n      0x20\n      add\n      0x00\n      keccak256\n        /* \"WagersWorld/RealWager.sol\":7476:7501  sellInfo[_owner][_listNo] */\n      0x00\n        /* \"WagersWorld/RealWager.sol\":7493:7500  _listNo */\n      dup7\n        /* \"WagersWorld/RealWager.sol\":7476:7501  sellInfo[_owner][_listNo] */\n      dup2\n      mstore\n      0x20\n      add\n      swap1\n      dup2\n      mstore\n      0x20\n      add\n      0x00\n      keccak256\n        /* \"WagersWorld/RealWager.sol\":7476:7508  sellInfo[_owner][_listNo].listOn */\n      0x03\n      add\n      sload\n        /* \"WagersWorld/RealWager.sol\":7449:7509  userInfo[msg.sender].betOn[sellInfo[_owner][_listNo].listOn] */\n      dup2\n      mstore\n      0x20\n      add\n      swap1\n      dup2\n      mstore\n      0x20\n      add\n      0x00\n      keccak256\n      0x00\n        /* \"WagersWorld/RealWager.sol\":7449:7516  userInfo[msg.sender].betOn[sellInfo[_owner][_listNo].listOn] = true */\n      0x0100\n      exp\n      dup2\n      sload\n      dup2\n      0xff\n      mul\n      not\n      and\n      swap1\n      dup4\n      iszero\n      iszero\n      mul\n      or\n      swap1\n      sstore\n      pop\n        /* \"WagersWorld/RealWager.sol\":7549:7559  msg.sender */\n      caller\n        /* \"WagersWorld/RealWager.sol\":7526:7534  eachUser */\n      0x04\n        /* \"WagersWorld/RealWager.sol\":7526:7546  eachUser[totalUsers] */\n      0x00\n        /* \"WagersWorld/RealWager.sol\":7535:7545  totalUsers */\n      sload(0x02)\n        /* \"WagersWorld/RealWager.sol\":7526:7546  eachUser[totalUsers] */\n      dup2\n      mstore\n      0x20\n      add\n      swap1\n      dup2\n      mstore\n      0x20\n      add\n      0x00\n      keccak256\n      0x00\n        /* \"WagersWorld/RealWager.sol\":7526:7559  eachUser[totalUsers] = msg.sender */\n      0x0100\n      exp\n      dup2\n      sload\n      dup2\n      0xffffffffffffffffffffffffffffffffffffffff\n      mul\n      not\n      and\n      swap1\n      dup4\n      0xffffffffffffffffffffffffffffffffffffffff\n      and\n      mul\n      or\n      swap1\n      sstore\n      pop\n        /* \"WagersWorld/RealWager.sol\":7569:7579  totalUsers */\n      0x02\n      0x00\n        /* \"WagersWorld/RealWager.sol\":7569:7581  totalUsers++ */\n      dup2\n      sload\n      dup1\n      swap3\n      swap2\n      swap1\n      tag_292\n      swap1\n      tag_152\n      jump\t// in\n    tag_292:\n      swap2\n      swap1\n      pop\n      sstore\n      pop\n        /* \"WagersWorld/RealWager.sol\":7592:7604  bool success */\n      0x00\n        /* \"WagersWorld/RealWager.sol\":7607:7616  usdcToken */\n      0x01\n      0x00\n      swap1\n      sload\n      swap1\n      0x0100\n      exp\n      swap1\n      div\n      0xffffffffffffffffffffffffffffffffffffffff\n      and\n        /* \"WagersWorld/RealWager.sol\":7607:7629  usdcToken.transferFrom */\n      0xffffffffffffffffffffffffffffffffffffffff\n      and\n      0x23b872dd\n        /* \"WagersWorld/RealWager.sol\":7643:7653  msg.sender */\n      caller\n        /* \"WagersWorld/RealWager.sol\":7667:7673  _owner */\n      dup5\n        /* \"WagersWorld/RealWager.sol\":7687:7695  sellInfo */\n      0x07\n        /* \"WagersWorld/RealWager.sol\":7687:7703  sellInfo[_owner] */\n      0x00\n        /* \"WagersWorld/RealWager.sol\":7696:7702  _owner */\n      dup8\n        /* \"WagersWorld/RealWager.sol\":7687:7703  sellInfo[_owner] */\n      0xffffffffffffffffffffffffffffffffffffffff\n      and\n      0xffffffffffffffffffffffffffffffffffffffff\n      and\n      dup2\n      mstore\n      0x20\n      add\n      swap1\n      dup2\n      mstore\n      0x20\n      add\n      0x00\n      keccak256\n        /* \"WagersWorld/RealWager.sol\":7687:7712  sellInfo[_owner][_listNo] */\n      0x00\n        /* \"WagersWorld/RealWager.sol\":7704:7711  _listNo */\n      dup9\n        /* \"WagersWorld/RealWager.sol\":7687:7712  sellInfo[_owner][_listNo] */\n      dup2\n      mstore\n      0x20\n      add\n      swap1\n      dup2\n      mstore\n      0x20\n      add\n      0x00\n      keccak256\n        /* \"WagersWorld/RealWager.sol\":7687:7718  sellInfo[_owner][_listNo].price */\n      0x01\n      add\n      sload\n        /* \"WagersWorld/RealWager.sol\":7607:7728  usdcToken.transferFrom(... */\n      mload(0x40)\n      dup5\n      0xffffffff\n      and\n      0xe0\n      shl\n      dup2\n      mstore\n      0x04\n      add\n      tag_293\n      swap4\n      swap3\n      swap2\n      swap1\n      tag_249\n      jump\t// in\n    tag_293:\n      0x20\n      mload(0x40)\n      dup1\n      dup4\n      sub\n      dup2\n      0x00\n      dup8\n      gas\n      call\n      iszero\n      dup1\n      iszero\n      tag_295\n      jumpi\n      returndatasize\n      0x00\n      dup1\n      returndatacopy\n      revert(0x00, returndatasize)\n    tag_295:\n      pop\n      pop\n      pop\n      pop\n      mload(0x40)\n      returndatasize\n      not(0x1f)\n      0x1f\n      dup3\n      add\n      and\n      dup3\n      add\n      dup1\n      0x40\n      mstore\n      pop\n      dup2\n      add\n      swap1\n      tag_296\n      swap2\n      swap1\n      tag_201\n      jump\t// in\n    tag_296:\n        /* \"WagersWorld/RealWager.sol\":7592:7728  bool success = usdcToken.transferFrom(... */\n      swap1\n      pop\n        /* \"WagersWorld/RealWager.sol\":7743:7750  success */\n      dup1\n        /* \"WagersWorld/RealWager.sol\":7739:7805  if(!success){... */\n      tag_297\n      jumpi\n        /* \"WagersWorld/RealWager.sol\":7786:7793  success */\n      dup1\n        /* \"WagersWorld/RealWager.sol\":7772:7794  transferFaild(success) */\n      mload(0x40)\n      0x73fd8f0600000000000000000000000000000000000000000000000000000000\n      dup2\n      mstore\n      0x04\n      add\n      tag_298\n      swap2\n      swap1\n      tag_36\n      jump\t// in\n    tag_298:\n      mload(0x40)\n      dup1\n      swap2\n      sub\n      swap1\n      revert\n        /* \"WagersWorld/RealWager.sol\":7739:7805  if(!success){... */\n    tag_297:\n        /* \"WagersWorld/RealWager.sol\":7820:7915  BuyShares(msg.sender,_owner, sellInfo[_owner][_listNo].amount, sellInfo[_owner][_listNo].price) */\n      0x4ef696cf4aae43c49f3cc815f4721ba5e44e2468e6512ecca3d4730be569a90a\n        /* \"WagersWorld/RealWager.sol\":7830:7840  msg.sender */\n      caller\n        /* \"WagersWorld/RealWager.sol\":7841:7847  _owner */\n      dup4\n        /* \"WagersWorld/RealWager.sol\":7849:7857  sellInfo */\n      0x07\n        /* \"WagersWorld/RealWager.sol\":7849:7865  sellInfo[_owner] */\n      0x00\n        /* \"WagersWorld/RealWager.sol\":7858:7864  _owner */\n      dup7\n        /* \"WagersWorld/RealWager.sol\":7849:7865  sellInfo[_owner] */\n      0xffffffffffffffffffffffffffffffffffffffff\n      and\n      0xffffffffffffffffffffffffffffffffffffffff\n      and\n      dup2\n      mstore\n      0x20\n      add\n      swap1\n      dup2\n      mstore\n      0x20\n      add\n      0x00\n      keccak256\n        /* \"WagersWorld/RealWager.sol\":7849:7874  sellInfo[_owner][_listNo] */\n      0x00\n        /* \"WagersWorld/RealWager.sol\":7866:7873  _listNo */\n      dup8\n        /* \"WagersWorld/RealWager.sol\":7849:7874  sellInfo[_owner][_listNo] */\n      dup2\n      mstore\n      0x20\n      add\n      swap1\n      dup2\n      mstore\n      0x20\n      add\n      0x00\n      keccak256\n        /* \"WagersWorld/RealWager.sol\":7849:7881  sellInfo[_owner][_listNo].amount */\n      0x02\n      add\n      sload\n        /* \"WagersWorld/RealWager.sol\":7883:7891  sellInfo */\n      0x07\n        /* \"WagersWorld/RealWager.sol\":7883:7899  sellInfo[_owner] */\n      0x00\n        /* \"WagersWorld/RealWager.sol\":7892:7898  _owner */\n      dup8\n        /* \"WagersWorld/RealWager.sol\":7883:7899  sellInfo[_owner] */\n      0xffffffffffffffffffffffffffffffffffffffff\n      and\n      0xffffffffffffffffffffffffffffffffffffffff\n      and\n      dup2\n      mstore\n      0x20\n      add\n      swap1\n      dup2\n      mstore\n      0x20\n      add\n      0x00\n      keccak256\n        /* \"WagersWorld/RealWager.sol\":7883:7908  sellInfo[_owner][_listNo] */\n      0x00\n        /* \"WagersWorld/RealWager.sol\":7900:7907  _listNo */\n      dup9\n        /* \"WagersWorld/RealWager.sol\":7883:7908  sellInfo[_owner][_listNo] */\n      dup2\n      mstore\n      0x20\n      add\n      swap1\n      dup2\n      mstore\n      0x20\n      add\n      0x00\n      keccak256\n        /* \"WagersWorld/RealWager.sol\":7883:7914  sellInfo[_owner][_listNo].price */\n      0x01\n      add\n      sload\n        /* \"WagersWorld/RealWager.sol\":7820:7915  BuyShares(msg.sender,_owner, sellInfo[_owner][_listNo].amount, sellInfo[_owner][_listNo].price) */\n      mload(0x40)\n      tag_299\n      swap5\n      swap4\n      swap3\n      swap2\n      swap1\n      tag_300\n      jump\t// in\n    tag_299:\n      mload(0x40)\n      dup1\n      swap2\n      sub\n      swap1\n      log1\n        /* \"WagersWorld/RealWager.sol\":6477:7922  {... */\n      pop\n        /* \"WagersWorld/RealWager.sol\":6417:7922  function buyShare(uint256 _listNo, address _owner) external {... */\n      pop\n      pop\n      jump\t// out\n        /* \"WagersWorld/RealWager.sol\":4772:4963  function clamp(uint256 value, uint256 min, uint256 max) internal pure returns (uint256) {... */\n    tag_126:\n        /* \"WagersWorld/RealWager.sol\":4851:4858  uint256 */\n      0x00\n        /* \"WagersWorld/RealWager.sol\":4882:4885  min */\n      dup3\n        /* \"WagersWorld/RealWager.sol\":4874:4879  value */\n      dup5\n        /* \"WagersWorld/RealWager.sol\":4874:4885  value < min */\n      lt\n        /* \"WagersWorld/RealWager.sol\":4870:4897  if (value < min) return min */\n      iszero\n      tag_302\n      jumpi\n        /* \"WagersWorld/RealWager.sol\":4894:4897  min */\n      dup3\n        /* \"WagersWorld/RealWager.sol\":4887:4897  return min */\n      swap1\n      pop\n      jump(tag_301)\n        /* \"WagersWorld/RealWager.sol\":4870:4897  if (value < min) return min */\n    tag_302:\n        /* \"WagersWorld/RealWager.sol\":4919:4922  max */\n      dup2\n        /* \"WagersWorld/RealWager.sol\":4911:4916  value */\n      dup5\n        /* \"WagersWorld/RealWager.sol\":4911:4922  value > max */\n      gt\n        /* \"WagersWorld/RealWager.sol\":4907:4934  if (value > max) return max */\n      iszero\n      tag_303\n      jumpi\n        /* \"WagersWorld/RealWager.sol\":4931:4934  max */\n      dup2\n        /* \"WagersWorld/RealWager.sol\":4924:4934  return max */\n      swap1\n      pop\n      jump(tag_301)\n        /* \"WagersWorld/RealWager.sol\":4907:4934  if (value > max) return max */\n    tag_303:\n        /* \"WagersWorld/RealWager.sol\":4951:4956  value */\n      dup4\n        /* \"WagersWorld/RealWager.sol\":4944:4956  return value */\n      swap1\n      pop\n        /* \"WagersWorld/RealWager.sol\":4772:4963  function clamp(uint256 value, uint256 min, uint256 max) internal pure returns (uint256) {... */\n    tag_301:\n      swap4\n      swap3\n      pop\n      pop\n      pop\n      jump\t// out\n        /* \"WagersWorld/RealWager.sol\":11097:11505  function calculatePercentage(uint256 _amount,uint256 percentageNumber) private pure returns(uint256) {... */\n    tag_181:\n        /* \"WagersWorld/RealWager.sol\":11189:11196  uint256 */\n      0x00\n        /* \"WagersWorld/RealWager.sol\":11231:11232  0 */\n      dup1\n        /* \"WagersWorld/RealWager.sol\":11220:11227  _amount */\n      dup4\n        /* \"WagersWorld/RealWager.sol\":11220:11232  _amount <= 0 */\n      gt\n        /* \"WagersWorld/RealWager.sol\":11217:11295  if(_amount <= 0 ){... */\n      tag_305\n      jumpi\n        /* \"WagersWorld/RealWager.sol\":11276:11283  _amount */\n      dup3\n        /* \"WagersWorld/RealWager.sol\":11255:11284  zeroPercentageAmount(_amount) */\n      mload(0x40)\n      0xa55196d300000000000000000000000000000000000000000000000000000000\n      dup2\n      mstore\n      0x04\n      add\n      tag_306\n      swap2\n      swap1\n      tag_84\n      jump\t// in\n    tag_306:\n      mload(0x40)\n      dup1\n      swap2\n      sub\n      swap1\n      revert\n        /* \"WagersWorld/RealWager.sol\":11217:11295  if(_amount <= 0 ){... */\n    tag_305:\n        /* \"WagersWorld/RealWager.sol\":11318:11319  0 */\n      0x00\n        /* \"WagersWorld/RealWager.sol\":11307:11314  _amount */\n      dup4\n        /* \"WagersWorld/RealWager.sol\":11307:11319  _amount <= 0 */\n      gt\n        /* \"WagersWorld/RealWager.sol\":11304:11391  if(_amount <= 0 ){... */\n      tag_307\n      jumpi\n        /* \"WagersWorld/RealWager.sol\":11363:11379  percentageNumber */\n      dup2\n        /* \"WagersWorld/RealWager.sol\":11342:11380  zeropercentageNumber(percentageNumber) */\n      mload(0x40)\n      0x84857ef000000000000000000000000000000000000000000000000000000000\n      dup2\n      mstore\n      0x04\n      add\n      tag_308\n      swap2\n      swap1\n      tag_84\n      jump\t// in\n    tag_308:\n      mload(0x40)\n      dup1\n      swap2\n      sub\n      swap1\n      revert\n        /* \"WagersWorld/RealWager.sol\":11304:11391  if(_amount <= 0 ){... */\n    tag_307:\n        /* \"WagersWorld/RealWager.sol\":11405:11423  uint256 serviceFee */\n      0x00\n        /* \"WagersWorld/RealWager.sol\":11456:11461  10000 */\n      0x2710\n        /* \"WagersWorld/RealWager.sol\":11437:11453  percentageNumber */\n      dup4\n        /* \"WagersWorld/RealWager.sol\":11427:11434  _amount */\n      dup6\n        /* \"WagersWorld/RealWager.sol\":11427:11453  _amount * percentageNumber */\n      tag_309\n      swap2\n      swap1\n      tag_117\n      jump\t// in\n    tag_309:\n        /* \"WagersWorld/RealWager.sol\":11426:11462  (_amount * percentageNumber)/(10000) */\n      tag_310\n      swap2\n      swap1\n      tag_119\n      jump\t// in\n    tag_310:\n        /* \"WagersWorld/RealWager.sol\":11405:11462  uint256 serviceFee = (_amount * percentageNumber)/(10000) */\n      swap1\n      pop\n        /* \"WagersWorld/RealWager.sol\":11488:11498  serviceFee */\n      dup1\n        /* \"WagersWorld/RealWager.sol\":11481:11498  return serviceFee */\n      swap2\n      pop\n      pop\n        /* \"WagersWorld/RealWager.sol\":11097:11505  function calculatePercentage(uint256 _amount,uint256 percentageNumber) private pure returns(uint256) {... */\n      swap3\n      swap2\n      pop\n      pop\n      jump\t// out\n        /* \"@openzeppelin/contracts/access/Ownable.sol\":1796:1958  function _checkOwner() internal view virtual {... */\n    tag_258:\n        /* \"@openzeppelin/contracts/access/Ownable.sol\":1866:1878  _msgSender() */\n      tag_312\n        /* \"@openzeppelin/contracts/access/Ownable.sol\":1866:1876  _msgSender */\n      tag_313\n        /* \"@openzeppelin/contracts/access/Ownable.sol\":1866:1878  _msgSender() */\n      jump\t// in\n    tag_312:\n        /* \"@openzeppelin/contracts/access/Ownable.sol\":1855:1878  owner() != _msgSender() */\n      0xffffffffffffffffffffffffffffffffffffffff\n      and\n        /* \"@openzeppelin/contracts/access/Ownable.sol\":1855:1862  owner() */\n      tag_314\n        /* \"@openzeppelin/contracts/access/Ownable.sol\":1855:1860  owner */\n      tag_78\n        /* \"@openzeppelin/contracts/access/Ownable.sol\":1855:1862  owner() */\n      jump\t// in\n    tag_314:\n        /* \"@openzeppelin/contracts/access/Ownable.sol\":1855:1878  owner() != _msgSender() */\n      0xffffffffffffffffffffffffffffffffffffffff\n      and\n      eq\n        /* \"@openzeppelin/contracts/access/Ownable.sol\":1851:1952  if (owner() != _msgSender()) {... */\n      tag_315\n      jumpi\n        /* \"@openzeppelin/contracts/access/Ownable.sol\":1928:1940  _msgSender() */\n      tag_316\n        /* \"@openzeppelin/contracts/access/Ownable.sol\":1928:1938  _msgSender */\n      tag_313\n        /* \"@openzeppelin/contracts/access/Ownable.sol\":1928:1940  _msgSender() */\n      jump\t// in\n    tag_316:\n        /* \"@openzeppelin/contracts/access/Ownable.sol\":1901:1941  OwnableUnauthorizedAccount(_msgSender()) */\n      mload(0x40)\n      0x118cdaa700000000000000000000000000000000000000000000000000000000\n      dup2\n      mstore\n      0x04\n      add\n      tag_317\n      swap2\n      swap1\n      tag_30\n      jump\t// in\n    tag_317:\n      mload(0x40)\n      dup1\n      swap2\n      sub\n      swap1\n      revert\n        /* \"@openzeppelin/contracts/access/Ownable.sol\":1851:1952  if (owner() != _msgSender()) {... */\n    tag_315:\n        /* \"@openzeppelin/contracts/access/Ownable.sol\":1796:1958  function _checkOwner() internal view virtual {... */\n      jump\t// out\n        /* \"@openzeppelin/contracts/access/Ownable.sol\":2912:3099  function _transferOwnership(address newOwner) internal virtual {... */\n    tag_261:\n        /* \"@openzeppelin/contracts/access/Ownable.sol\":2985:3001  address oldOwner */\n      0x00\n        /* \"@openzeppelin/contracts/access/Ownable.sol\":3004:3010  _owner */\n      dup1\n      0x00\n      swap1\n      sload\n      swap1\n      0x0100\n      exp\n      swap1\n      div\n      0xffffffffffffffffffffffffffffffffffffffff\n      and\n        /* \"@openzeppelin/contracts/access/Ownable.sol\":2985:3010  address oldOwner = _owner */\n      swap1\n      pop\n        /* \"@openzeppelin/contracts/access/Ownable.sol\":3029:3037  newOwner */\n      dup2\n        /* \"@openzeppelin/contracts/access/Ownable.sol\":3020:3026  _owner */\n      0x00\n      dup1\n        /* \"@openzeppelin/contracts/access/Ownable.sol\":3020:3037  _owner = newOwner */\n      0x0100\n      exp\n      dup2\n      sload\n      dup2\n      0xffffffffffffffffffffffffffffffffffffffff\n      mul\n      not\n      and\n      swap1\n      dup4\n      0xffffffffffffffffffffffffffffffffffffffff\n      and\n      mul\n      or\n      swap1\n      sstore\n      pop\n        /* \"@openzeppelin/contracts/access/Ownable.sol\":3083:3091  newOwner */\n      dup2\n        /* \"@openzeppelin/contracts/access/Ownable.sol\":3052:3092  OwnershipTransferred(oldOwner, newOwner) */\n      0xffffffffffffffffffffffffffffffffffffffff\n      and\n        /* \"@openzeppelin/contracts/access/Ownable.sol\":3073:3081  oldOwner */\n      dup2\n        /* \"@openzeppelin/contracts/access/Ownable.sol\":3052:3092  OwnershipTransferred(oldOwner, newOwner) */\n      0xffffffffffffffffffffffffffffffffffffffff\n      and\n      0x8be0079c531659141344cd1fd0a4f28419497f9722a3daafe3b4186f6b6457e0\n      mload(0x40)\n      mload(0x40)\n      dup1\n      swap2\n      sub\n      swap1\n      log3\n        /* \"@openzeppelin/contracts/access/Ownable.sol\":2975:3099  {... */\n      pop\n        /* \"@openzeppelin/contracts/access/Ownable.sol\":2912:3099  function _transferOwnership(address newOwner) internal virtual {... */\n      pop\n      jump\t// out\n        /* \"@openzeppelin/contracts/utils/Context.sol\":656:752  function _msgSender() internal view virtual returns (address) {... */\n    tag_313:\n        /* \"@openzeppelin/contracts/utils/Context.sol\":709:716  address */\n      0x00\n        /* \"@openzeppelin/contracts/utils/Context.sol\":735:745  msg.sender */\n      caller\n        /* \"@openzeppelin/contracts/utils/Context.sol\":728:745  return msg.sender */\n      swap1\n      pop\n        /* \"@openzeppelin/contracts/utils/Context.sol\":656:752  function _msgSender() internal view virtual returns (address) {... */\n      swap1\n      jump\t// out\n        /* \"#utility.yul\":88:205   */\n    tag_321:\n        /* \"#utility.yul\":197:198   */\n      0x00\n        /* \"#utility.yul\":194:195   */\n      dup1\n        /* \"#utility.yul\":187:199   */\n      revert\n        /* \"#utility.yul\":334:411   */\n    tag_323:\n        /* \"#utility.yul\":371:378   */\n      0x00\n        /* \"#utility.yul\":400:405   */\n      dup2\n        /* \"#utility.yul\":389:405   */\n      swap1\n      pop\n        /* \"#utility.yul\":334:411   */\n      swap2\n      swap1\n      pop\n      jump\t// out\n        /* \"#utility.yul\":417:539   */\n    tag_324:\n        /* \"#utility.yul\":490:514   */\n      tag_353\n        /* \"#utility.yul\":508:513   */\n      dup2\n        /* \"#utility.yul\":490:514   */\n      tag_323\n      jump\t// in\n    tag_353:\n        /* \"#utility.yul\":483:488   */\n      dup2\n        /* \"#utility.yul\":480:515   */\n      eq\n        /* \"#utility.yul\":470:533   */\n      tag_354\n      jumpi\n        /* \"#utility.yul\":529:530   */\n      0x00\n        /* \"#utility.yul\":526:527   */\n      dup1\n        /* \"#utility.yul\":519:531   */\n      revert\n        /* \"#utility.yul\":470:533   */\n    tag_354:\n        /* \"#utility.yul\":417:539   */\n      pop\n      jump\t// out\n        /* \"#utility.yul\":545:684   */\n    tag_325:\n        /* \"#utility.yul\":591:596   */\n      0x00\n        /* \"#utility.yul\":629:635   */\n      dup2\n        /* \"#utility.yul\":616:636   */\n      calldataload\n        /* \"#utility.yul\":607:636   */\n      swap1\n      pop\n        /* \"#utility.yul\":645:678   */\n      tag_356\n        /* \"#utility.yul\":672:677   */\n      dup2\n        /* \"#utility.yul\":645:678   */\n      tag_324\n      jump\t// in\n    tag_356:\n        /* \"#utility.yul\":545:684   */\n      swap3\n      swap2\n      pop\n      pop\n      jump\t// out\n        /* \"#utility.yul\":690:1019   */\n    tag_27:\n        /* \"#utility.yul\":749:755   */\n      0x00\n        /* \"#utility.yul\":798:800   */\n      0x20\n        /* \"#utility.yul\":786:795   */\n      dup3\n        /* \"#utility.yul\":777:784   */\n      dup5\n        /* \"#utility.yul\":773:796   */\n      sub\n        /* \"#utility.yul\":769:801   */\n      slt\n        /* \"#utility.yul\":766:885   */\n      iszero\n      tag_358\n      jumpi\n        /* \"#utility.yul\":804:883   */\n      tag_359\n      tag_321\n      jump\t// in\n    tag_359:\n        /* \"#utility.yul\":766:885   */\n    tag_358:\n        /* \"#utility.yul\":924:925   */\n      0x00\n        /* \"#utility.yul\":949:1002   */\n      tag_360\n        /* \"#utility.yul\":994:1001   */\n      dup5\n        /* \"#utility.yul\":985:991   */\n      dup3\n        /* \"#utility.yul\":974:983   */\n      dup6\n        /* \"#utility.yul\":970:992   */\n      add\n        /* \"#utility.yul\":949:1002   */\n      tag_325\n      jump\t// in\n    tag_360:\n        /* \"#utility.yul\":939:1002   */\n      swap2\n      pop\n        /* \"#utility.yul\":895:1012   */\n      pop\n        /* \"#utility.yul\":690:1019   */\n      swap3\n      swap2\n      pop\n      pop\n      jump\t// out\n        /* \"#utility.yul\":1025:1151   */\n    tag_326:\n        /* \"#utility.yul\":1062:1069   */\n      0x00\n        /* \"#utility.yul\":1102:1144   */\n      0xffffffffffffffffffffffffffffffffffffffff\n        /* \"#utility.yul\":1095:1100   */\n      dup3\n        /* \"#utility.yul\":1091:1145   */\n      and\n        /* \"#utility.yul\":1080:1145   */\n      swap1\n      pop\n        /* \"#utility.yul\":1025:1151   */\n      swap2\n      swap1\n      pop\n      jump\t// out\n        /* \"#utility.yul\":1157:1253   */\n    tag_327:\n        /* \"#utility.yul\":1194:1201   */\n      0x00\n        /* \"#utility.yul\":1223:1247   */\n      tag_363\n        /* \"#utility.yul\":1241:1246   */\n      dup3\n        /* \"#utility.yul\":1223:1247   */\n      tag_326\n      jump\t// in\n    tag_363:\n        /* \"#utility.yul\":1212:1247   */\n      swap1\n      pop\n        /* \"#utility.yul\":1157:1253   */\n      swap2\n      swap1\n      pop\n      jump\t// out\n        /* \"#utility.yul\":1259:1377   */\n    tag_328:\n        /* \"#utility.yul\":1346:1370   */\n      tag_365\n        /* \"#utility.yul\":1364:1369   */\n      dup2\n        /* \"#utility.yul\":1346:1370   */\n      tag_327\n      jump\t// in\n    tag_365:\n        /* \"#utility.yul\":1341:1344   */\n      dup3\n        /* \"#utility.yul\":1334:1371   */\n      mstore\n        /* \"#utility.yul\":1259:1377   */\n      pop\n      pop\n      jump\t// out\n        /* \"#utility.yul\":1383:1605   */\n    tag_30:\n        /* \"#utility.yul\":1476:1480   */\n      0x00\n        /* \"#utility.yul\":1514:1516   */\n      0x20\n        /* \"#utility.yul\":1503:1512   */\n      dup3\n        /* \"#utility.yul\":1499:1517   */\n      add\n        /* \"#utility.yul\":1491:1517   */\n      swap1\n      pop\n        /* \"#utility.yul\":1527:1598   */\n      tag_367\n        /* \"#utility.yul\":1595:1596   */\n      0x00\n        /* \"#utility.yul\":1584:1593   */\n      dup4\n        /* \"#utility.yul\":1580:1597   */\n      add\n        /* \"#utility.yul\":1571:1577   */\n      dup5\n        /* \"#utility.yul\":1527:1598   */\n      tag_328\n      jump\t// in\n    tag_367:\n        /* \"#utility.yul\":1383:1605   */\n      swap3\n      swap2\n      pop\n      pop\n      jump\t// out\n        /* \"#utility.yul\":1611:1733   */\n    tag_329:\n        /* \"#utility.yul\":1684:1708   */\n      tag_369\n        /* \"#utility.yul\":1702:1707   */\n      dup2\n        /* \"#utility.yul\":1684:1708   */\n      tag_327\n      jump\t// in\n    tag_369:\n        /* \"#utility.yul\":1677:1682   */\n      dup2\n        /* \"#utility.yul\":1674:1709   */\n      eq\n        /* \"#utility.yul\":1664:1727   */\n      tag_370\n      jumpi\n        /* \"#utility.yul\":1723:1724   */\n      0x00\n        /* \"#utility.yul\":1720:1721   */\n      dup1\n        /* \"#utility.yul\":1713:1725   */\n      revert\n        /* \"#utility.yul\":1664:1727   */\n    tag_370:\n        /* \"#utility.yul\":1611:1733   */\n      pop\n      jump\t// out\n        /* \"#utility.yul\":1739:1878   */\n    tag_330:\n        /* \"#utility.yul\":1785:1790   */\n      0x00\n        /* \"#utility.yul\":1823:1829   */\n      dup2\n        /* \"#utility.yul\":1810:1830   */\n      calldataload\n        /* \"#utility.yul\":1801:1830   */\n      swap1\n      pop\n        /* \"#utility.yul\":1839:1872   */\n      tag_372\n        /* \"#utility.yul\":1866:1871   */\n      dup2\n        /* \"#utility.yul\":1839:1872   */\n      tag_329\n      jump\t// in\n    tag_372:\n        /* \"#utility.yul\":1739:1878   */\n      swap3\n      swap2\n      pop\n      pop\n      jump\t// out\n        /* \"#utility.yul\":1884:2358   */\n    tag_33:\n        /* \"#utility.yul\":1952:1958   */\n      0x00\n        /* \"#utility.yul\":1960:1966   */\n      dup1\n        /* \"#utility.yul\":2009:2011   */\n      0x40\n        /* \"#utility.yul\":1997:2006   */\n      dup4\n        /* \"#utility.yul\":1988:1995   */\n      dup6\n        /* \"#utility.yul\":1984:2007   */\n      sub\n        /* \"#utility.yul\":1980:2012   */\n      slt\n        /* \"#utility.yul\":1977:2096   */\n      iszero\n      tag_374\n      jumpi\n        /* \"#utility.yul\":2015:2094   */\n      tag_375\n      tag_321\n      jump\t// in\n    tag_375:\n        /* \"#utility.yul\":1977:2096   */\n    tag_374:\n        /* \"#utility.yul\":2135:2136   */\n      0x00\n        /* \"#utility.yul\":2160:2213   */\n      tag_376\n        /* \"#utility.yul\":2205:2212   */\n      dup6\n        /* \"#utility.yul\":2196:2202   */\n      dup3\n        /* \"#utility.yul\":2185:2194   */\n      dup7\n        /* \"#utility.yul\":2181:2203   */\n      add\n        /* \"#utility.yul\":2160:2213   */\n      tag_330\n      jump\t// in\n    tag_376:\n        /* \"#utility.yul\":2150:2213   */\n      swap3\n      pop\n        /* \"#utility.yul\":2106:2223   */\n      pop\n        /* \"#utility.yul\":2262:2264   */\n      0x20\n        /* \"#utility.yul\":2288:2341   */\n      tag_377\n        /* \"#utility.yul\":2333:2340   */\n      dup6\n        /* \"#utility.yul\":2324:2330   */\n      dup3\n        /* \"#utility.yul\":2313:2322   */\n      dup7\n        /* \"#utility.yul\":2309:2331   */\n      add\n        /* \"#utility.yul\":2288:2341   */\n      tag_325\n      jump\t// in\n    tag_377:\n        /* \"#utility.yul\":2278:2341   */\n      swap2\n      pop\n        /* \"#utility.yul\":2233:2351   */\n      pop\n        /* \"#utility.yul\":1884:2358   */\n      swap3\n      pop\n      swap3\n      swap1\n      pop\n      jump\t// out\n        /* \"#utility.yul\":2364:2454   */\n    tag_331:\n        /* \"#utility.yul\":2398:2405   */\n      0x00\n        /* \"#utility.yul\":2441:2446   */\n      dup2\n        /* \"#utility.yul\":2434:2447   */\n      iszero\n        /* \"#utility.yul\":2427:2448   */\n      iszero\n        /* \"#utility.yul\":2416:2448   */\n      swap1\n      pop\n        /* \"#utility.yul\":2364:2454   */\n      swap2\n      swap1\n      pop\n      jump\t// out\n        /* \"#utility.yul\":2460:2569   */\n    tag_332:\n        /* \"#utility.yul\":2541:2562   */\n      tag_380\n        /* \"#utility.yul\":2556:2561   */\n      dup2\n        /* \"#utility.yul\":2541:2562   */\n      tag_331\n      jump\t// in\n    tag_380:\n        /* \"#utility.yul\":2536:2539   */\n      dup3\n        /* \"#utility.yul\":2529:2563   */\n      mstore\n        /* \"#utility.yul\":2460:2569   */\n      pop\n      pop\n      jump\t// out\n        /* \"#utility.yul\":2575:2785   */\n    tag_36:\n        /* \"#utility.yul\":2662:2666   */\n      0x00\n        /* \"#utility.yul\":2700:2702   */\n      0x20\n        /* \"#utility.yul\":2689:2698   */\n      dup3\n        /* \"#utility.yul\":2685:2703   */\n      add\n        /* \"#utility.yul\":2677:2703   */\n      swap1\n      pop\n        /* \"#utility.yul\":2713:2778   */\n      tag_382\n        /* \"#utility.yul\":2775:2776   */\n      0x00\n        /* \"#utility.yul\":2764:2773   */\n      dup4\n        /* \"#utility.yul\":2760:2777   */\n      add\n        /* \"#utility.yul\":2751:2757   */\n      dup5\n        /* \"#utility.yul\":2713:2778   */\n      tag_332\n      jump\t// in\n    tag_382:\n        /* \"#utility.yul\":2575:2785   */\n      swap3\n      swap2\n      pop\n      pop\n      jump\t// out\n        /* \"#utility.yul\":2791:2851   */\n    tag_333:\n        /* \"#utility.yul\":2819:2822   */\n      0x00\n        /* \"#utility.yul\":2840:2845   */\n      dup2\n        /* \"#utility.yul\":2833:2845   */\n      swap1\n      pop\n        /* \"#utility.yul\":2791:2851   */\n      swap2\n      swap1\n      pop\n      jump\t// out\n        /* \"#utility.yul\":2857:2999   */\n    tag_334:\n        /* \"#utility.yul\":2907:2916   */\n      0x00\n        /* \"#utility.yul\":2940:2993   */\n      tag_385\n        /* \"#utility.yul\":2958:2992   */\n      tag_386\n        /* \"#utility.yul\":2967:2991   */\n      tag_387\n        /* \"#utility.yul\":2985:2990   */\n      dup5\n        /* \"#utility.yul\":2967:2991   */\n      tag_326\n      jump\t// in\n    tag_387:\n        /* \"#utility.yul\":2958:2992   */\n      tag_333\n      jump\t// in\n    tag_386:\n        /* \"#utility.yul\":2940:2993   */\n      tag_326\n      jump\t// in\n    tag_385:\n        /* \"#utility.yul\":2927:2993   */\n      swap1\n      pop\n        /* \"#utility.yul\":2857:2999   */\n      swap2\n      swap1\n      pop\n      jump\t// out\n        /* \"#utility.yul\":3005:3131   */\n    tag_335:\n        /* \"#utility.yul\":3055:3064   */\n      0x00\n        /* \"#utility.yul\":3088:3125   */\n      tag_389\n        /* \"#utility.yul\":3119:3124   */\n      dup3\n        /* \"#utility.yul\":3088:3125   */\n      tag_334\n      jump\t// in\n    tag_389:\n        /* \"#utility.yul\":3075:3125   */\n      swap1\n      pop\n        /* \"#utility.yul\":3005:3131   */\n      swap2\n      swap1\n      pop\n      jump\t// out\n        /* \"#utility.yul\":3137:3276   */\n    tag_336:\n        /* \"#utility.yul\":3200:3209   */\n      0x00\n        /* \"#utility.yul\":3233:3270   */\n      tag_391\n        /* \"#utility.yul\":3264:3269   */\n      dup3\n        /* \"#utility.yul\":3233:3270   */\n      tag_335\n      jump\t// in\n    tag_391:\n        /* \"#utility.yul\":3220:3270   */\n      swap1\n      pop\n        /* \"#utility.yul\":3137:3276   */\n      swap2\n      swap1\n      pop\n      jump\t// out\n        /* \"#utility.yul\":3282:3439   */\n    tag_337:\n        /* \"#utility.yul\":3382:3432   */\n      tag_393\n        /* \"#utility.yul\":3426:3431   */\n      dup2\n        /* \"#utility.yul\":3382:3432   */\n      tag_336\n      jump\t// in\n    tag_393:\n        /* \"#utility.yul\":3377:3380   */\n      dup3\n        /* \"#utility.yul\":3370:3433   */\n      mstore\n        /* \"#utility.yul\":3282:3439   */\n      pop\n      pop\n      jump\t// out\n        /* \"#utility.yul\":3445:3693   */\n    tag_40:\n        /* \"#utility.yul\":3551:3555   */\n      0x00\n        /* \"#utility.yul\":3589:3591   */\n      0x20\n        /* \"#utility.yul\":3578:3587   */\n      dup3\n        /* \"#utility.yul\":3574:3592   */\n      add\n        /* \"#utility.yul\":3566:3592   */\n      swap1\n      pop\n        /* \"#utility.yul\":3602:3686   */\n      tag_395\n        /* \"#utility.yul\":3683:3684   */\n      0x00\n        /* \"#utility.yul\":3672:3681   */\n      dup4\n        /* \"#utility.yul\":3668:3685   */\n      add\n        /* \"#utility.yul\":3659:3665   */\n      dup5\n        /* \"#utility.yul\":3602:3686   */\n      tag_337\n      jump\t// in\n    tag_395:\n        /* \"#utility.yul\":3445:3693   */\n      swap3\n      swap2\n      pop\n      pop\n      jump\t// out\n        /* \"#utility.yul\":3699:4028   */\n    tag_43:\n        /* \"#utility.yul\":3758:3764   */\n      0x00\n        /* \"#utility.yul\":3807:3809   */\n      0x20\n        /* \"#utility.yul\":3795:3804   */\n      dup3\n        /* \"#utility.yul\":3786:3793   */\n      dup5\n        /* \"#utility.yul\":3782:3805   */\n      sub\n        /* \"#utility.yul\":3778:3810   */\n      slt\n        /* \"#utility.yul\":3775:3894   */\n      iszero\n      tag_397\n      jumpi\n        /* \"#utility.yul\":3813:3892   */\n      tag_398\n      tag_321\n      jump\t// in\n    tag_398:\n        /* \"#utility.yul\":3775:3894   */\n    tag_397:\n        /* \"#utility.yul\":3933:3934   */\n      0x00\n        /* \"#utility.yul\":3958:4011   */\n      tag_399\n        /* \"#utility.yul\":4003:4010   */\n      dup5\n        /* \"#utility.yul\":3994:4000   */\n      dup3\n        /* \"#utility.yul\":3983:3992   */\n      dup6\n        /* \"#utility.yul\":3979:4001   */\n      add\n        /* \"#utility.yul\":3958:4011   */\n      tag_330\n      jump\t// in\n    tag_399:\n        /* \"#utility.yul\":3948:4011   */\n      swap2\n      pop\n        /* \"#utility.yul\":3904:4021   */\n      pop\n        /* \"#utility.yul\":3699:4028   */\n      swap3\n      swap2\n      pop\n      pop\n      jump\t// out\n        /* \"#utility.yul\":4034:4152   */\n    tag_338:\n        /* \"#utility.yul\":4121:4145   */\n      tag_401\n        /* \"#utility.yul\":4139:4144   */\n      dup2\n        /* \"#utility.yul\":4121:4145   */\n      tag_323\n      jump\t// in\n    tag_401:\n        /* \"#utility.yul\":4116:4119   */\n      dup3\n        /* \"#utility.yul\":4109:4146   */\n      mstore\n        /* \"#utility.yul\":4034:4152   */\n      pop\n      pop\n      jump\t// out\n        /* \"#utility.yul\":4158:4822   */\n    tag_46:\n        /* \"#utility.yul\":4363:4367   */\n      0x00\n        /* \"#utility.yul\":4401:4404   */\n      0xa0\n        /* \"#utility.yul\":4390:4399   */\n      dup3\n        /* \"#utility.yul\":4386:4405   */\n      add\n        /* \"#utility.yul\":4378:4405   */\n      swap1\n      pop\n        /* \"#utility.yul\":4415:4486   */\n      tag_403\n        /* \"#utility.yul\":4483:4484   */\n      0x00\n        /* \"#utility.yul\":4472:4481   */\n      dup4\n        /* \"#utility.yul\":4468:4485   */\n      add\n        /* \"#utility.yul\":4459:4465   */\n      dup9\n        /* \"#utility.yul\":4415:4486   */\n      tag_338\n      jump\t// in\n    tag_403:\n        /* \"#utility.yul\":4496:4568   */\n      tag_404\n        /* \"#utility.yul\":4564:4566   */\n      0x20\n        /* \"#utility.yul\":4553:4562   */\n      dup4\n        /* \"#utility.yul\":4549:4567   */\n      add\n        /* \"#utility.yul\":4540:4546   */\n      dup8\n        /* \"#utility.yul\":4496:4568   */\n      tag_338\n      jump\t// in\n    tag_404:\n        /* \"#utility.yul\":4578:4650   */\n      tag_405\n        /* \"#utility.yul\":4646:4648   */\n      0x40\n        /* \"#utility.yul\":4635:4644   */\n      dup4\n        /* \"#utility.yul\":4631:4649   */\n      add\n        /* \"#utility.yul\":4622:4628   */\n      dup7\n        /* \"#utility.yul\":4578:4650   */\n      tag_338\n      jump\t// in\n    tag_405:\n        /* \"#utility.yul\":4660:4732   */\n      tag_406\n        /* \"#utility.yul\":4728:4730   */\n      0x60\n        /* \"#utility.yul\":4717:4726   */\n      dup4\n        /* \"#utility.yul\":4713:4731   */\n      add\n        /* \"#utility.yul\":4704:4710   */\n      dup6\n        /* \"#utility.yul\":4660:4732   */\n      tag_338\n      jump\t// in\n    tag_406:\n        /* \"#utility.yul\":4742:4815   */\n      tag_407\n        /* \"#utility.yul\":4810:4813   */\n      0x80\n        /* \"#utility.yul\":4799:4808   */\n      dup4\n        /* \"#utility.yul\":4795:4814   */\n      add\n        /* \"#utility.yul\":4786:4792   */\n      dup5\n        /* \"#utility.yul\":4742:4815   */\n      tag_338\n      jump\t// in\n    tag_407:\n        /* \"#utility.yul\":4158:4822   */\n      swap7\n      swap6\n      pop\n      pop\n      pop\n      pop\n      pop\n      pop\n      jump\t// out\n        /* \"#utility.yul\":4828:5160   */\n    tag_50:\n        /* \"#utility.yul\":4949:4953   */\n      0x00\n        /* \"#utility.yul\":4987:4989   */\n      0x40\n        /* \"#utility.yul\":4976:4985   */\n      dup3\n        /* \"#utility.yul\":4972:4990   */\n      add\n        /* \"#utility.yul\":4964:4990   */\n      swap1\n      pop\n        /* \"#utility.yul\":5000:5071   */\n      tag_409\n        /* \"#utility.yul\":5068:5069   */\n      0x00\n        /* \"#utility.yul\":5057:5066   */\n      dup4\n        /* \"#utility.yul\":5053:5070   */\n      add\n        /* \"#utility.yul\":5044:5050   */\n      dup6\n        /* \"#utility.yul\":5000:5071   */\n      tag_338\n      jump\t// in\n    tag_409:\n        /* \"#utility.yul\":5081:5153   */\n      tag_410\n        /* \"#utility.yul\":5149:5151   */\n      0x20\n        /* \"#utility.yul\":5138:5147   */\n      dup4\n        /* \"#utility.yul\":5134:5152   */\n      add\n        /* \"#utility.yul\":5125:5131   */\n      dup5\n        /* \"#utility.yul\":5081:5153   */\n      tag_338\n      jump\t// in\n    tag_410:\n        /* \"#utility.yul\":4828:5160   */\n      swap4\n      swap3\n      pop\n      pop\n      pop\n      jump\t// out\n        /* \"#utility.yul\":5166:5640   */\n    tag_53:\n        /* \"#utility.yul\":5234:5240   */\n      0x00\n        /* \"#utility.yul\":5242:5248   */\n      dup1\n        /* \"#utility.yul\":5291:5293   */\n      0x40\n        /* \"#utility.yul\":5279:5288   */\n      dup4\n        /* \"#utility.yul\":5270:5277   */\n      dup6\n        /* \"#utility.yul\":5266:5289   */\n      sub\n        /* \"#utility.yul\":5262:5294   */\n      slt\n        /* \"#utility.yul\":5259:5378   */\n      iszero\n      tag_412\n      jumpi\n        /* \"#utility.yul\":5297:5376   */\n      tag_413\n      tag_321\n      jump\t// in\n    tag_413:\n        /* \"#utility.yul\":5259:5378   */\n    tag_412:\n        /* \"#utility.yul\":5417:5418   */\n      0x00\n        /* \"#utility.yul\":5442:5495   */\n      tag_414\n        /* \"#utility.yul\":5487:5494   */\n      dup6\n        /* \"#utility.yul\":5478:5484   */\n      dup3\n        /* \"#utility.yul\":5467:5476   */\n      dup7\n        /* \"#utility.yul\":5463:5485   */\n      add\n        /* \"#utility.yul\":5442:5495   */\n      tag_325\n      jump\t// in\n    tag_414:\n        /* \"#utility.yul\":5432:5495   */\n      swap3\n      pop\n        /* \"#utility.yul\":5388:5505   */\n      pop\n        /* \"#utility.yul\":5544:5546   */\n      0x20\n        /* \"#utility.yul\":5570:5623   */\n      tag_415\n        /* \"#utility.yul\":5615:5622   */\n      dup6\n        /* \"#utility.yul\":5606:5612   */\n      dup3\n        /* \"#utility.yul\":5595:5604   */\n      dup7\n        /* \"#utility.yul\":5591:5613   */\n      add\n        /* \"#utility.yul\":5570:5623   */\n      tag_325\n      jump\t// in\n    tag_415:\n        /* \"#utility.yul\":5560:5623   */\n      swap2\n      pop\n        /* \"#utility.yul\":5515:5633   */\n      pop\n        /* \"#utility.yul\":5166:5640   */\n      swap3\n      pop\n      swap3\n      swap1\n      pop\n      jump\t// out\n        /* \"#utility.yul\":5646:6397   */\n    tag_60:\n        /* \"#utility.yul\":5867:5871   */\n      0x00\n        /* \"#utility.yul\":5905:5908   */\n      0xc0\n        /* \"#utility.yul\":5894:5903   */\n      dup3\n        /* \"#utility.yul\":5890:5909   */\n      add\n        /* \"#utility.yul\":5882:5909   */\n      swap1\n      pop\n        /* \"#utility.yul\":5919:5984   */\n      tag_417\n        /* \"#utility.yul\":5981:5982   */\n      0x00\n        /* \"#utility.yul\":5970:5979   */\n      dup4\n        /* \"#utility.yul\":5966:5983   */\n      add\n        /* \"#utility.yul\":5957:5963   */\n      dup10\n        /* \"#utility.yul\":5919:5984   */\n      tag_332\n      jump\t// in\n    tag_417:\n        /* \"#utility.yul\":5994:6060   */\n      tag_418\n        /* \"#utility.yul\":6056:6058   */\n      0x20\n        /* \"#utility.yul\":6045:6054   */\n      dup4\n        /* \"#utility.yul\":6041:6059   */\n      add\n        /* \"#utility.yul\":6032:6038   */\n      dup9\n        /* \"#utility.yul\":5994:6060   */\n      tag_332\n      jump\t// in\n    tag_418:\n        /* \"#utility.yul\":6070:6142   */\n      tag_419\n        /* \"#utility.yul\":6138:6140   */\n      0x40\n        /* \"#utility.yul\":6127:6136   */\n      dup4\n        /* \"#utility.yul\":6123:6141   */\n      add\n        /* \"#utility.yul\":6114:6120   */\n      dup8\n        /* \"#utility.yul\":6070:6142   */\n      tag_328\n      jump\t// in\n    tag_419:\n        /* \"#utility.yul\":6152:6224   */\n      tag_420\n        /* \"#utility.yul\":6220:6222   */\n      0x60\n        /* \"#utility.yul\":6209:6218   */\n      dup4\n        /* \"#utility.yul\":6205:6223   */\n      add\n        /* \"#utility.yul\":6196:6202   */\n      dup7\n        /* \"#utility.yul\":6152:6224   */\n      tag_338\n      jump\t// in\n    tag_420:\n        /* \"#utility.yul\":6234:6307   */\n      tag_421\n        /* \"#utility.yul\":6302:6305   */\n      0x80\n        /* \"#utility.yul\":6291:6300   */\n      dup4\n        /* \"#utility.yul\":6287:6306   */\n      add\n        /* \"#utility.yul\":6278:6284   */\n      dup6\n        /* \"#utility.yul\":6234:6307   */\n      tag_338\n      jump\t// in\n    tag_421:\n        /* \"#utility.yul\":6317:6390   */\n      tag_422\n        /* \"#utility.yul\":6385:6388   */\n      0xa0\n        /* \"#utility.yul\":6374:6383   */\n      dup4\n        /* \"#utility.yul\":6370:6389   */\n      add\n        /* \"#utility.yul\":6361:6367   */\n      dup5\n        /* \"#utility.yul\":6317:6390   */\n      tag_338\n      jump\t// in\n    tag_422:\n        /* \"#utility.yul\":5646:6397   */\n      swap8\n      swap7\n      pop\n      pop\n      pop\n      pop\n      pop\n      pop\n      pop\n      jump\t// out\n        /* \"#utility.yul\":6403:7022   */\n    tag_63:\n        /* \"#utility.yul\":6480:6486   */\n      0x00\n        /* \"#utility.yul\":6488:6494   */\n      dup1\n        /* \"#utility.yul\":6496:6502   */\n      0x00\n        /* \"#utility.yul\":6545:6547   */\n      0x60\n        /* \"#utility.yul\":6533:6542   */\n      dup5\n        /* \"#utility.yul\":6524:6531   */\n      dup7\n        /* \"#utility.yul\":6520:6543   */\n      sub\n        /* \"#utility.yul\":6516:6548   */\n      slt\n        /* \"#utility.yul\":6513:6632   */\n      iszero\n      tag_424\n      jumpi\n        /* \"#utility.yul\":6551:6630   */\n      tag_425\n      tag_321\n      jump\t// in\n    tag_425:\n        /* \"#utility.yul\":6513:6632   */\n    tag_424:\n        /* \"#utility.yul\":6671:6672   */\n      0x00\n        /* \"#utility.yul\":6696:6749   */\n      tag_426\n        /* \"#utility.yul\":6741:6748   */\n      dup7\n        /* \"#utility.yul\":6732:6738   */\n      dup3\n        /* \"#utility.yul\":6721:6730   */\n      dup8\n        /* \"#utility.yul\":6717:6739   */\n      add\n        /* \"#utility.yul\":6696:6749   */\n      tag_325\n      jump\t// in\n    tag_426:\n        /* \"#utility.yul\":6686:6749   */\n      swap4\n      pop\n        /* \"#utility.yul\":6642:6759   */\n      pop\n        /* \"#utility.yul\":6798:6800   */\n      0x20\n        /* \"#utility.yul\":6824:6877   */\n      tag_427\n        /* \"#utility.yul\":6869:6876   */\n      dup7\n        /* \"#utility.yul\":6860:6866   */\n      dup3\n        /* \"#utility.yul\":6849:6858   */\n      dup8\n        /* \"#utility.yul\":6845:6867   */\n      add\n        /* \"#utility.yul\":6824:6877   */\n      tag_325\n      jump\t// in\n    tag_427:\n        /* \"#utility.yul\":6814:6877   */\n      swap3\n      pop\n        /* \"#utility.yul\":6769:6887   */\n      pop\n        /* \"#utility.yul\":6926:6928   */\n      0x40\n        /* \"#utility.yul\":6952:7005   */\n      tag_428\n        /* \"#utility.yul\":6997:7004   */\n      dup7\n        /* \"#utility.yul\":6988:6994   */\n      dup3\n        /* \"#utility.yul\":6977:6986   */\n      dup8\n        /* \"#utility.yul\":6973:6995   */\n      add\n        /* \"#utility.yul\":6952:7005   */\n      tag_325\n      jump\t// in\n    tag_428:\n        /* \"#utility.yul\":6942:7005   */\n      swap2\n      pop\n        /* \"#utility.yul\":6897:7015   */\n      pop\n        /* \"#utility.yul\":6403:7022   */\n      swap3\n      pop\n      swap3\n      pop\n      swap3\n      jump\t// out\n        /* \"#utility.yul\":7028:7250   */\n    tag_84:\n        /* \"#utility.yul\":7121:7125   */\n      0x00\n        /* \"#utility.yul\":7159:7161   */\n      0x20\n        /* \"#utility.yul\":7148:7157   */\n      dup3\n        /* \"#utility.yul\":7144:7162   */\n      add\n        /* \"#utility.yul\":7136:7162   */\n      swap1\n      pop\n        /* \"#utility.yul\":7172:7243   */\n      tag_430\n        /* \"#utility.yul\":7240:7241   */\n      0x00\n        /* \"#utility.yul\":7229:7238   */\n      dup4\n        /* \"#utility.yul\":7225:7242   */\n      add\n        /* \"#utility.yul\":7216:7222   */\n      dup5\n        /* \"#utility.yul\":7172:7243   */\n      tag_338\n      jump\t// in\n    tag_430:\n        /* \"#utility.yul\":7028:7250   */\n      swap3\n      swap2\n      pop\n      pop\n      jump\t// out\n        /* \"#utility.yul\":7256:8019   */\n    tag_95:\n        /* \"#utility.yul\":7483:7487   */\n      0x00\n        /* \"#utility.yul\":7521:7524   */\n      0xc0\n        /* \"#utility.yul\":7510:7519   */\n      dup3\n        /* \"#utility.yul\":7506:7525   */\n      add\n        /* \"#utility.yul\":7498:7525   */\n      swap1\n      pop\n        /* \"#utility.yul\":7535:7600   */\n      tag_432\n        /* \"#utility.yul\":7597:7598   */\n      0x00\n        /* \"#utility.yul\":7586:7595   */\n      dup4\n        /* \"#utility.yul\":7582:7599   */\n      add\n        /* \"#utility.yul\":7573:7579   */\n      dup10\n        /* \"#utility.yul\":7535:7600   */\n      tag_332\n      jump\t// in\n    tag_432:\n        /* \"#utility.yul\":7610:7682   */\n      tag_433\n        /* \"#utility.yul\":7678:7680   */\n      0x20\n        /* \"#utility.yul\":7667:7676   */\n      dup4\n        /* \"#utility.yul\":7663:7681   */\n      add\n        /* \"#utility.yul\":7654:7660   */\n      dup9\n        /* \"#utility.yul\":7610:7682   */\n      tag_338\n      jump\t// in\n    tag_433:\n        /* \"#utility.yul\":7692:7764   */\n      tag_434\n        /* \"#utility.yul\":7760:7762   */\n      0x40\n        /* \"#utility.yul\":7749:7758   */\n      dup4\n        /* \"#utility.yul\":7745:7763   */\n      add\n        /* \"#utility.yul\":7736:7742   */\n      dup8\n        /* \"#utility.yul\":7692:7764   */\n      tag_338\n      jump\t// in\n    tag_434:\n        /* \"#utility.yul\":7774:7846   */\n      tag_435\n        /* \"#utility.yul\":7842:7844   */\n      0x60\n        /* \"#utility.yul\":7831:7840   */\n      dup4\n        /* \"#utility.yul\":7827:7845   */\n      add\n        /* \"#utility.yul\":7818:7824   */\n      dup7\n        /* \"#utility.yul\":7774:7846   */\n      tag_338\n      jump\t// in\n    tag_435:\n        /* \"#utility.yul\":7856:7929   */\n      tag_436\n        /* \"#utility.yul\":7924:7927   */\n      0x80\n        /* \"#utility.yul\":7913:7922   */\n      dup4\n        /* \"#utility.yul\":7909:7928   */\n      add\n        /* \"#utility.yul\":7900:7906   */\n      dup6\n        /* \"#utility.yul\":7856:7929   */\n      tag_338\n      jump\t// in\n    tag_436:\n        /* \"#utility.yul\":7939:8012   */\n      tag_437\n        /* \"#utility.yul\":8007:8010   */\n      0xa0\n        /* \"#utility.yul\":7996:8005   */\n      dup4\n        /* \"#utility.yul\":7992:8011   */\n      add\n        /* \"#utility.yul\":7983:7989   */\n      dup5\n        /* \"#utility.yul\":7939:8012   */\n      tag_338\n      jump\t// in\n    tag_437:\n        /* \"#utility.yul\":7256:8019   */\n      swap8\n      swap7\n      pop\n      pop\n      pop\n      pop\n      pop\n      pop\n      pop\n      jump\t// out\n        /* \"#utility.yul\":8025:8499   */\n    tag_101:\n        /* \"#utility.yul\":8093:8099   */\n      0x00\n        /* \"#utility.yul\":8101:8107   */\n      dup1\n        /* \"#utility.yul\":8150:8152   */\n      0x40\n        /* \"#utility.yul\":8138:8147   */\n      dup4\n        /* \"#utility.yul\":8129:8136   */\n      dup6\n        /* \"#utility.yul\":8125:8148   */\n      sub\n        /* \"#utility.yul\":8121:8153   */\n      slt\n        /* \"#utility.yul\":8118:8237   */\n      iszero\n      tag_439\n      jumpi\n        /* \"#utility.yul\":8156:8235   */\n      tag_440\n      tag_321\n      jump\t// in\n    tag_440:\n        /* \"#utility.yul\":8118:8237   */\n    tag_439:\n        /* \"#utility.yul\":8276:8277   */\n      0x00\n        /* \"#utility.yul\":8301:8354   */\n      tag_441\n        /* \"#utility.yul\":8346:8353   */\n      dup6\n        /* \"#utility.yul\":8337:8343   */\n      dup3\n        /* \"#utility.yul\":8326:8335   */\n      dup7\n        /* \"#utility.yul\":8322:8344   */\n      add\n        /* \"#utility.yul\":8301:8354   */\n      tag_325\n      jump\t// in\n    tag_441:\n        /* \"#utility.yul\":8291:8354   */\n      swap3\n      pop\n        /* \"#utility.yul\":8247:8364   */\n      pop\n        /* \"#utility.yul\":8403:8405   */\n      0x20\n        /* \"#utility.yul\":8429:8482   */\n      tag_442\n        /* \"#utility.yul\":8474:8481   */\n      dup6\n        /* \"#utility.yul\":8465:8471   */\n      dup3\n        /* \"#utility.yul\":8454:8463   */\n      dup7\n        /* \"#utility.yul\":8450:8472   */\n      add\n        /* \"#utility.yul\":8429:8482   */\n      tag_330\n      jump\t// in\n    tag_442:\n        /* \"#utility.yul\":8419:8482   */\n      swap2\n      pop\n        /* \"#utility.yul\":8374:8492   */\n      pop\n        /* \"#utility.yul\":8025:8499   */\n      swap3\n      pop\n      swap3\n      swap1\n      pop\n      jump\t// out\n        /* \"#utility.yul\":8505:8685   */\n    tag_107:\n        /* \"#utility.yul\":8553:8630   */\n      0x4e487b7100000000000000000000000000000000000000000000000000000000\n        /* \"#utility.yul\":8550:8551   */\n      0x00\n        /* \"#utility.yul\":8543:8631   */\n      mstore\n        /* \"#utility.yul\":8650:8654   */\n      0x32\n        /* \"#utility.yul\":8647:8648   */\n      0x04\n        /* \"#utility.yul\":8640:8655   */\n      mstore\n        /* \"#utility.yul\":8674:8678   */\n      0x24\n        /* \"#utility.yul\":8671:8672   */\n      0x00\n        /* \"#utility.yul\":8664:8679   */\n      revert\n        /* \"#utility.yul\":8691:8871   */\n    tag_339:\n        /* \"#utility.yul\":8739:8816   */\n      0x4e487b7100000000000000000000000000000000000000000000000000000000\n        /* \"#utility.yul\":8736:8737   */\n      0x00\n        /* \"#utility.yul\":8729:8817   */\n      mstore\n        /* \"#utility.yul\":8836:8840   */\n      0x11\n        /* \"#utility.yul\":8833:8834   */\n      0x04\n        /* \"#utility.yul\":8826:8841   */\n      mstore\n        /* \"#utility.yul\":8860:8864   */\n      0x24\n        /* \"#utility.yul\":8857:8858   */\n      0x00\n        /* \"#utility.yul\":8850:8865   */\n      revert\n        /* \"#utility.yul\":8877:9068   */\n    tag_114:\n        /* \"#utility.yul\":8917:8920   */\n      0x00\n        /* \"#utility.yul\":8936:8956   */\n      tag_446\n        /* \"#utility.yul\":8954:8955   */\n      dup3\n        /* \"#utility.yul\":8936:8956   */\n      tag_323\n      jump\t// in\n    tag_446:\n        /* \"#utility.yul\":8931:8956   */\n      swap2\n      pop\n        /* \"#utility.yul\":8970:8990   */\n      tag_447\n        /* \"#utility.yul\":8988:8989   */\n      dup4\n        /* \"#utility.yul\":8970:8990   */\n      tag_323\n      jump\t// in\n    tag_447:\n        /* \"#utility.yul\":8965:8990   */\n      swap3\n      pop\n        /* \"#utility.yul\":9013:9014   */\n      dup3\n        /* \"#utility.yul\":9010:9011   */\n      dup3\n        /* \"#utility.yul\":9006:9015   */\n      add\n        /* \"#utility.yul\":8999:9015   */\n      swap1\n      pop\n        /* \"#utility.yul\":9034:9037   */\n      dup1\n        /* \"#utility.yul\":9031:9032   */\n      dup3\n        /* \"#utility.yul\":9028:9038   */\n      gt\n        /* \"#utility.yul\":9025:9061   */\n      iszero\n      tag_448\n      jumpi\n        /* \"#utility.yul\":9041:9059   */\n      tag_449\n      tag_339\n      jump\t// in\n    tag_449:\n        /* \"#utility.yul\":9025:9061   */\n    tag_448:\n        /* \"#utility.yul\":8877:9068   */\n      swap3\n      swap2\n      pop\n      pop\n      jump\t// out\n        /* \"#utility.yul\":9074:9484   */\n    tag_117:\n        /* \"#utility.yul\":9114:9121   */\n      0x00\n        /* \"#utility.yul\":9137:9157   */\n      tag_451\n        /* \"#utility.yul\":9155:9156   */\n      dup3\n        /* \"#utility.yul\":9137:9157   */\n      tag_323\n      jump\t// in\n    tag_451:\n        /* \"#utility.yul\":9132:9157   */\n      swap2\n      pop\n        /* \"#utility.yul\":9171:9191   */\n      tag_452\n        /* \"#utility.yul\":9189:9190   */\n      dup4\n        /* \"#utility.yul\":9171:9191   */\n      tag_323\n      jump\t// in\n    tag_452:\n        /* \"#utility.yul\":9166:9191   */\n      swap3\n      pop\n        /* \"#utility.yul\":9226:9227   */\n      dup3\n        /* \"#utility.yul\":9223:9224   */\n      dup3\n        /* \"#utility.yul\":9219:9228   */\n      mul\n        /* \"#utility.yul\":9248:9278   */\n      tag_453\n        /* \"#utility.yul\":9266:9277   */\n      dup2\n        /* \"#utility.yul\":9248:9278   */\n      tag_323\n      jump\t// in\n    tag_453:\n        /* \"#utility.yul\":9237:9278   */\n      swap2\n      pop\n        /* \"#utility.yul\":9427:9428   */\n      dup3\n        /* \"#utility.yul\":9418:9425   */\n      dup3\n        /* \"#utility.yul\":9414:9429   */\n      div\n        /* \"#utility.yul\":9411:9412   */\n      dup5\n        /* \"#utility.yul\":9408:9430   */\n      eq\n        /* \"#utility.yul\":9388:9389   */\n      dup4\n        /* \"#utility.yul\":9381:9390   */\n      iszero\n        /* \"#utility.yul\":9361:9444   */\n      or\n        /* \"#utility.yul\":9338:9477   */\n      tag_454\n      jumpi\n        /* \"#utility.yul\":9457:9475   */\n      tag_455\n      tag_339\n      jump\t// in\n    tag_455:\n        /* \"#utility.yul\":9338:9477   */\n    tag_454:\n        /* \"#utility.yul\":9122:9484   */\n      pop\n        /* \"#utility.yul\":9074:9484   */\n      swap3\n      swap2\n      pop\n      pop\n      jump\t// out\n        /* \"#utility.yul\":9490:9670   */\n    tag_340:\n        /* \"#utility.yul\":9538:9615   */\n      0x4e487b7100000000000000000000000000000000000000000000000000000000\n        /* \"#utility.yul\":9535:9536   */\n      0x00\n        /* \"#utility.yul\":9528:9616   */\n      mstore\n        /* \"#utility.yul\":9635:9639   */\n      0x12\n        /* \"#utility.yul\":9632:9633   */\n      0x04\n        /* \"#utility.yul\":9625:9640   */\n      mstore\n        /* \"#utility.yul\":9659:9663   */\n      0x24\n        /* \"#utility.yul\":9656:9657   */\n      0x00\n        /* \"#utility.yul\":9649:9664   */\n      revert\n        /* \"#utility.yul\":9676:9861   */\n    tag_119:\n        /* \"#utility.yul\":9716:9717   */\n      0x00\n        /* \"#utility.yul\":9733:9753   */\n      tag_458\n        /* \"#utility.yul\":9751:9752   */\n      dup3\n        /* \"#utility.yul\":9733:9753   */\n      tag_323\n      jump\t// in\n    tag_458:\n        /* \"#utility.yul\":9728:9753   */\n      swap2\n      pop\n        /* \"#utility.yul\":9767:9787   */\n      tag_459\n        /* \"#utility.yul\":9785:9786   */\n      dup4\n        /* \"#utility.yul\":9767:9787   */\n      tag_323\n      jump\t// in\n    tag_459:\n        /* \"#utility.yul\":9762:9787   */\n      swap3\n      pop\n        /* \"#utility.yul\":9806:9807   */\n      dup3\n        /* \"#utility.yul\":9796:9831   */\n      tag_460\n      jumpi\n        /* \"#utility.yul\":9811:9829   */\n      tag_461\n      tag_340\n      jump\t// in\n    tag_461:\n        /* \"#utility.yul\":9796:9831   */\n    tag_460:\n        /* \"#utility.yul\":9853:9854   */\n      dup3\n        /* \"#utility.yul\":9850:9851   */\n      dup3\n        /* \"#utility.yul\":9846:9855   */\n      div\n        /* \"#utility.yul\":9841:9855   */\n      swap1\n      pop\n        /* \"#utility.yul\":9676:9861   */\n      swap3\n      swap2\n      pop\n      pop\n      jump\t// out\n        /* \"#utility.yul\":9867:10100   */\n    tag_152:\n        /* \"#utility.yul\":9906:9909   */\n      0x00\n        /* \"#utility.yul\":9929:9953   */\n      tag_463\n        /* \"#utility.yul\":9947:9952   */\n      dup3\n        /* \"#utility.yul\":9929:9953   */\n      tag_323\n      jump\t// in\n    tag_463:\n        /* \"#utility.yul\":9920:9953   */\n      swap2\n      pop\n        /* \"#utility.yul\":9975:10041   */\n      0xffffffffffffffffffffffffffffffffffffffffffffffffffffffffffffffff\n        /* \"#utility.yul\":9968:9973   */\n      dup3\n        /* \"#utility.yul\":9965:10042   */\n      sub\n        /* \"#utility.yul\":9962:10065   */\n      tag_464\n      jumpi\n        /* \"#utility.yul\":10045:10063   */\n      tag_465\n      tag_339\n      jump\t// in\n    tag_465:\n        /* \"#utility.yul\":9962:10065   */\n    tag_464:\n        /* \"#utility.yul\":10092:10093   */\n      0x01\n        /* \"#utility.yul\":10085:10090   */\n      dup3\n        /* \"#utility.yul\":10081:10094   */\n      add\n        /* \"#utility.yul\":10074:10094   */\n      swap1\n      pop\n        /* \"#utility.yul\":9867:10100   */\n      swap2\n      swap1\n      pop\n      jump\t// out\n        /* \"#utility.yul\":10106:10300   */\n    tag_179:\n        /* \"#utility.yul\":10146:10150   */\n      0x00\n        /* \"#utility.yul\":10166:10186   */\n      tag_467\n        /* \"#utility.yul\":10184:10185   */\n      dup3\n        /* \"#utility.yul\":10166:10186   */\n      tag_323\n      jump\t// in\n    tag_467:\n        /* \"#utility.yul\":10161:10186   */\n      swap2\n      pop\n        /* \"#utility.yul\":10200:10220   */\n      tag_468\n        /* \"#utility.yul\":10218:10219   */\n      dup4\n        /* \"#utility.yul\":10200:10220   */\n      tag_323\n      jump\t// in\n    tag_468:\n        /* \"#utility.yul\":10195:10220   */\n      swap3\n      pop\n        /* \"#utility.yul\":10244:10245   */\n      dup3\n        /* \"#utility.yul\":10241:10242   */\n      dup3\n        /* \"#utility.yul\":10237:10246   */\n      sub\n        /* \"#utility.yul\":10229:10246   */\n      swap1\n      pop\n        /* \"#utility.yul\":10268:10269   */\n      dup2\n        /* \"#utility.yul\":10262:10266   */\n      dup2\n        /* \"#utility.yul\":10259:10270   */\n      gt\n        /* \"#utility.yul\":10256:10293   */\n      iszero\n      tag_469\n      jumpi\n        /* \"#utility.yul\":10273:10291   */\n      tag_470\n      tag_339\n      jump\t// in\n    tag_470:\n        /* \"#utility.yul\":10256:10293   */\n    tag_469:\n        /* \"#utility.yul\":10106:10300   */\n      swap3\n      swap2\n      pop\n      pop\n      jump\t// out\n        /* \"#utility.yul\":10306:10449   */\n    tag_341:\n        /* \"#utility.yul\":10363:10368   */\n      0x00\n        /* \"#utility.yul\":10394:10400   */\n      dup2\n        /* \"#utility.yul\":10388:10401   */\n      mload\n        /* \"#utility.yul\":10379:10401   */\n      swap1\n      pop\n        /* \"#utility.yul\":10410:10443   */\n      tag_472\n        /* \"#utility.yul\":10437:10442   */\n      dup2\n        /* \"#utility.yul\":10410:10443   */\n      tag_324\n      jump\t// in\n    tag_472:\n        /* \"#utility.yul\":10306:10449   */\n      swap3\n      swap2\n      pop\n      pop\n      jump\t// out\n        /* \"#utility.yul\":10455:10806   */\n    tag_188:\n        /* \"#utility.yul\":10525:10531   */\n      0x00\n        /* \"#utility.yul\":10574:10576   */\n      0x20\n        /* \"#utility.yul\":10562:10571   */\n      dup3\n        /* \"#utility.yul\":10553:10560   */\n      dup5\n        /* \"#utility.yul\":10549:10572   */\n      sub\n        /* \"#utility.yul\":10545:10577   */\n      slt\n        /* \"#utility.yul\":10542:10661   */\n      iszero\n      tag_474\n      jumpi\n        /* \"#utility.yul\":10580:10659   */\n      tag_475\n      tag_321\n      jump\t// in\n    tag_475:\n        /* \"#utility.yul\":10542:10661   */\n    tag_474:\n        /* \"#utility.yul\":10700:10701   */\n      0x00\n        /* \"#utility.yul\":10725:10789   */\n      tag_476\n        /* \"#utility.yul\":10781:10788   */\n      dup5\n        /* \"#utility.yul\":10772:10778   */\n      dup3\n        /* \"#utility.yul\":10761:10770   */\n      dup6\n        /* \"#utility.yul\":10757:10779   */\n      add\n        /* \"#utility.yul\":10725:10789   */\n      tag_341\n      jump\t// in\n    tag_476:\n        /* \"#utility.yul\":10715:10789   */\n      swap2\n      pop\n        /* \"#utility.yul\":10671:10799   */\n      pop\n        /* \"#utility.yul\":10455:10806   */\n      swap3\n      swap2\n      pop\n      pop\n      jump\t// out\n        /* \"#utility.yul\":10812:11144   */\n    tag_197:\n        /* \"#utility.yul\":10933:10937   */\n      0x00\n        /* \"#utility.yul\":10971:10973   */\n      0x40\n        /* \"#utility.yul\":10960:10969   */\n      dup3\n        /* \"#utility.yul\":10956:10974   */\n      add\n        /* \"#utility.yul\":10948:10974   */\n      swap1\n      pop\n        /* \"#utility.yul\":10984:11055   */\n      tag_478\n        /* \"#utility.yul\":11052:11053   */\n      0x00\n        /* \"#utility.yul\":11041:11050   */\n      dup4\n        /* \"#utility.yul\":11037:11054   */\n      add\n        /* \"#utility.yul\":11028:11034   */\n      dup6\n        /* \"#utility.yul\":10984:11055   */\n      tag_328\n      jump\t// in\n    tag_478:\n        /* \"#utility.yul\":11065:11137   */\n      tag_479\n        /* \"#utility.yul\":11133:11135   */\n      0x20\n        /* \"#utility.yul\":11122:11131   */\n      dup4\n        /* \"#utility.yul\":11118:11136   */\n      add\n        /* \"#utility.yul\":11109:11115   */\n      dup5\n        /* \"#utility.yul\":11065:11137   */\n      tag_338\n      jump\t// in\n    tag_479:\n        /* \"#utility.yul\":10812:11144   */\n      swap4\n      swap3\n      pop\n      pop\n      pop\n      jump\t// out\n        /* \"#utility.yul\":11150:11266   */\n    tag_342:\n        /* \"#utility.yul\":11220:11241   */\n      tag_481\n        /* \"#utility.yul\":11235:11240   */\n      dup2\n        /* \"#utility.yul\":11220:11241   */\n      tag_331\n      jump\t// in\n    tag_481:\n        /* \"#utility.yul\":11213:11218   */\n      dup2\n        /* \"#utility.yul\":11210:11242   */\n      eq\n        /* \"#utility.yul\":11200:11260   */\n      tag_482\n      jumpi\n        /* \"#utility.yul\":11256:11257   */\n      0x00\n        /* \"#utility.yul\":11253:11254   */\n      dup1\n        /* \"#utility.yul\":11246:11258   */\n      revert\n        /* \"#utility.yul\":11200:11260   */\n    tag_482:\n        /* \"#utility.yul\":11150:11266   */\n      pop\n      jump\t// out\n        /* \"#utility.yul\":11272:11409   */\n    tag_343:\n        /* \"#utility.yul\":11326:11331   */\n      0x00\n        /* \"#utility.yul\":11357:11363   */\n      dup2\n        /* \"#utility.yul\":11351:11364   */\n      mload\n        /* \"#utility.yul\":11342:11364   */\n      swap1\n      pop\n        /* \"#utility.yul\":11373:11403   */\n      tag_484\n        /* \"#utility.yul\":11397:11402   */\n      dup2\n        /* \"#utility.yul\":11373:11403   */\n      tag_342\n      jump\t// in\n    tag_484:\n        /* \"#utility.yul\":11272:11409   */\n      swap3\n      swap2\n      pop\n      pop\n      jump\t// out\n        /* \"#utility.yul\":11415:11760   */\n    tag_201:\n        /* \"#utility.yul\":11482:11488   */\n      0x00\n        /* \"#utility.yul\":11531:11533   */\n      0x20\n        /* \"#utility.yul\":11519:11528   */\n      dup3\n        /* \"#utility.yul\":11510:11517   */\n      dup5\n        /* \"#utility.yul\":11506:11529   */\n      sub\n        /* \"#utility.yul\":11502:11534   */\n      slt\n        /* \"#utility.yul\":11499:11618   */\n      iszero\n      tag_486\n      jumpi\n        /* \"#utility.yul\":11537:11616   */\n      tag_487\n      tag_321\n      jump\t// in\n    tag_487:\n        /* \"#utility.yul\":11499:11618   */\n    tag_486:\n        /* \"#utility.yul\":11657:11658   */\n      0x00\n        /* \"#utility.yul\":11682:11743   */\n      tag_488\n        /* \"#utility.yul\":11735:11742   */\n      dup5\n        /* \"#utility.yul\":11726:11732   */\n      dup3\n        /* \"#utility.yul\":11715:11724   */\n      dup6\n        /* \"#utility.yul\":11711:11733   */\n      add\n        /* \"#utility.yul\":11682:11743   */\n      tag_343\n      jump\t// in\n    tag_488:\n        /* \"#utility.yul\":11672:11743   */\n      swap2\n      pop\n        /* \"#utility.yul\":11628:11753   */\n      pop\n        /* \"#utility.yul\":11415:11760   */\n      swap3\n      swap2\n      pop\n      pop\n      jump\t// out\n        /* \"#utility.yul\":11766:12319   */\n    tag_223:\n        /* \"#utility.yul\":11943:11947   */\n      0x00\n        /* \"#utility.yul\":11981:11984   */\n      0x80\n        /* \"#utility.yul\":11970:11979   */\n      dup3\n        /* \"#utility.yul\":11966:11985   */\n      add\n        /* \"#utility.yul\":11958:11985   */\n      swap1\n      pop\n        /* \"#utility.yul\":11995:12066   */\n      tag_490\n        /* \"#utility.yul\":12063:12064   */\n      0x00\n        /* \"#utility.yul\":12052:12061   */\n      dup4\n        /* \"#utility.yul\":12048:12065   */\n      add\n        /* \"#utility.yul\":12039:12045   */\n      dup8\n        /* \"#utility.yul\":11995:12066   */\n      tag_328\n      jump\t// in\n    tag_490:\n        /* \"#utility.yul\":12076:12148   */\n      tag_491\n        /* \"#utility.yul\":12144:12146   */\n      0x20\n        /* \"#utility.yul\":12133:12142   */\n      dup4\n        /* \"#utility.yul\":12129:12147   */\n      add\n        /* \"#utility.yul\":12120:12126   */\n      dup7\n        /* \"#utility.yul\":12076:12148   */\n      tag_338\n      jump\t// in\n    tag_491:\n        /* \"#utility.yul\":12158:12230   */\n      tag_492\n        /* \"#utility.yul\":12226:12228   */\n      0x40\n        /* \"#utility.yul\":12215:12224   */\n      dup4\n        /* \"#utility.yul\":12211:12229   */\n      add\n        /* \"#utility.yul\":12202:12208   */\n      dup6\n        /* \"#utility.yul\":12158:12230   */\n      tag_338\n      jump\t// in\n    tag_492:\n        /* \"#utility.yul\":12240:12312   */\n      tag_493\n        /* \"#utility.yul\":12308:12310   */\n      0x60\n        /* \"#utility.yul\":12297:12306   */\n      dup4\n        /* \"#utility.yul\":12293:12311   */\n      add\n        /* \"#utility.yul\":12284:12290   */\n      dup5\n        /* \"#utility.yul\":12240:12312   */\n      tag_338\n      jump\t// in\n    tag_493:\n        /* \"#utility.yul\":11766:12319   */\n      swap6\n      swap5\n      pop\n      pop\n      pop\n      pop\n      pop\n      jump\t// out\n        /* \"#utility.yul\":12325:12767   */\n    tag_249:\n        /* \"#utility.yul\":12474:12478   */\n      0x00\n        /* \"#utility.yul\":12512:12514   */\n      0x60\n        /* \"#utility.yul\":12501:12510   */\n      dup3\n        /* \"#utility.yul\":12497:12515   */\n      add\n        /* \"#utility.yul\":12489:12515   */\n      swap1\n      pop\n        /* \"#utility.yul\":12525:12596   */\n      tag_495\n        /* \"#utility.yul\":12593:12594   */\n      0x00\n        /* \"#utility.yul\":12582:12591   */\n      dup4\n        /* \"#utility.yul\":12578:12595   */\n      add\n        /* \"#utility.yul\":12569:12575   */\n      dup7\n        /* \"#utility.yul\":12525:12596   */\n      tag_328\n      jump\t// in\n    tag_495:\n        /* \"#utility.yul\":12606:12678   */\n      tag_496\n        /* \"#utility.yul\":12674:12676   */\n      0x20\n        /* \"#utility.yul\":12663:12672   */\n      dup4\n        /* \"#utility.yul\":12659:12677   */\n      add\n        /* \"#utility.yul\":12650:12656   */\n      dup6\n        /* \"#utility.yul\":12606:12678   */\n      tag_328\n      jump\t// in\n    tag_496:\n        /* \"#utility.yul\":12688:12760   */\n      tag_497\n        /* \"#utility.yul\":12756:12758   */\n      0x40\n        /* \"#utility.yul\":12745:12754   */\n      dup4\n        /* \"#utility.yul\":12741:12759   */\n      add\n        /* \"#utility.yul\":12732:12738   */\n      dup5\n        /* \"#utility.yul\":12688:12760   */\n      tag_338\n      jump\t// in\n    tag_497:\n        /* \"#utility.yul\":12325:12767   */\n      swap5\n      swap4\n      pop\n      pop\n      pop\n      pop\n      jump\t// out\n        /* \"#utility.yul\":12773:12942   */\n    tag_344:\n        /* \"#utility.yul\":12857:12868   */\n      0x00\n        /* \"#utility.yul\":12891:12897   */\n      dup3\n        /* \"#utility.yul\":12886:12889   */\n      dup3\n        /* \"#utility.yul\":12879:12898   */\n      mstore\n        /* \"#utility.yul\":12931:12935   */\n      0x20\n        /* \"#utility.yul\":12926:12929   */\n      dup3\n        /* \"#utility.yul\":12922:12936   */\n      add\n        /* \"#utility.yul\":12907:12936   */\n      swap1\n      pop\n        /* \"#utility.yul\":12773:12942   */\n      swap3\n      swap2\n      pop\n      pop\n      jump\t// out\n        /* \"#utility.yul\":12948:13119   */\n    tag_345:\n        /* \"#utility.yul\":13088:13111   */\n      0x5f70726963652063616e6e6f74206265207a65726f0000000000000000000000\n        /* \"#utility.yul\":13084:13085   */\n      0x00\n        /* \"#utility.yul\":13076:13082   */\n      dup3\n        /* \"#utility.yul\":13072:13086   */\n      add\n        /* \"#utility.yul\":13065:13112   */\n      mstore\n        /* \"#utility.yul\":12948:13119   */\n      pop\n      jump\t// out\n        /* \"#utility.yul\":13125:13491   */\n    tag_346:\n        /* \"#utility.yul\":13267:13270   */\n      0x00\n        /* \"#utility.yul\":13288:13355   */\n      tag_501\n        /* \"#utility.yul\":13352:13354   */\n      0x15\n        /* \"#utility.yul\":13347:13350   */\n      dup4\n        /* \"#utility.yul\":13288:13355   */\n      tag_344\n      jump\t// in\n    tag_501:\n        /* \"#utility.yul\":13281:13355   */\n      swap2\n      pop\n        /* \"#utility.yul\":13364:13457   */\n      tag_502\n        /* \"#utility.yul\":13453:13456   */\n      dup3\n        /* \"#utility.yul\":13364:13457   */\n      tag_345\n      jump\t// in\n    tag_502:\n        /* \"#utility.yul\":13482:13484   */\n      0x20\n        /* \"#utility.yul\":13477:13480   */\n      dup3\n        /* \"#utility.yul\":13473:13485   */\n      add\n        /* \"#utility.yul\":13466:13485   */\n      swap1\n      pop\n        /* \"#utility.yul\":13125:13491   */\n      swap2\n      swap1\n      pop\n      jump\t// out\n        /* \"#utility.yul\":13497:13916   */\n    tag_269:\n        /* \"#utility.yul\":13663:13667   */\n      0x00\n        /* \"#utility.yul\":13701:13703   */\n      0x20\n        /* \"#utility.yul\":13690:13699   */\n      dup3\n        /* \"#utility.yul\":13686:13704   */\n      add\n        /* \"#utility.yul\":13678:13704   */\n      swap1\n      pop\n        /* \"#utility.yul\":13750:13759   */\n      dup2\n        /* \"#utility.yul\":13744:13748   */\n      dup2\n        /* \"#utility.yul\":13740:13760   */\n      sub\n        /* \"#utility.yul\":13736:13737   */\n      0x00\n        /* \"#utility.yul\":13725:13734   */\n      dup4\n        /* \"#utility.yul\":13721:13738   */\n      add\n        /* \"#utility.yul\":13714:13761   */\n      mstore\n        /* \"#utility.yul\":13778:13909   */\n      tag_504\n        /* \"#utility.yul\":13904:13908   */\n      dup2\n        /* \"#utility.yul\":13778:13909   */\n      tag_346\n      jump\t// in\n    tag_504:\n        /* \"#utility.yul\":13770:13909   */\n      swap1\n      pop\n        /* \"#utility.yul\":13497:13916   */\n      swap2\n      swap1\n      pop\n      jump\t// out\n        /* \"#utility.yul\":13922:14475   */\n    tag_300:\n        /* \"#utility.yul\":14099:14103   */\n      0x00\n        /* \"#utility.yul\":14137:14140   */\n      0x80\n        /* \"#utility.yul\":14126:14135   */\n      dup3\n        /* \"#utility.yul\":14122:14141   */\n      add\n        /* \"#utility.yul\":14114:14141   */\n      swap1\n      pop\n        /* \"#utility.yul\":14151:14222   */\n      tag_506\n        /* \"#utility.yul\":14219:14220   */\n      0x00\n        /* \"#utility.yul\":14208:14217   */\n      dup4\n        /* \"#utility.yul\":14204:14221   */\n      add\n        /* \"#utility.yul\":14195:14201   */\n      dup8\n        /* \"#utility.yul\":14151:14222   */\n      tag_328\n      jump\t// in\n    tag_506:\n        /* \"#utility.yul\":14232:14304   */\n      tag_507\n        /* \"#utility.yul\":14300:14302   */\n      0x20\n        /* \"#utility.yul\":14289:14298   */\n      dup4\n        /* \"#utility.yul\":14285:14303   */\n      add\n        /* \"#utility.yul\":14276:14282   */\n      dup7\n        /* \"#utility.yul\":14232:14304   */\n      tag_328\n      jump\t// in\n    tag_507:\n        /* \"#utility.yul\":14314:14386   */\n      tag_508\n        /* \"#utility.yul\":14382:14384   */\n      0x40\n        /* \"#utility.yul\":14371:14380   */\n      dup4\n        /* \"#utility.yul\":14367:14385   */\n      add\n        /* \"#utility.yul\":14358:14364   */\n      dup6\n        /* \"#utility.yul\":14314:14386   */\n      tag_338\n      jump\t// in\n    tag_508:\n        /* \"#utility.yul\":14396:14468   */\n      tag_509\n        /* \"#utility.yul\":14464:14466   */\n      0x60\n        /* \"#utility.yul\":14453:14462   */\n      dup4\n        /* \"#utility.yul\":14449:14467   */\n      add\n        /* \"#utility.yul\":14440:14446   */\n      dup5\n        /* \"#utility.yul\":14396:14468   */\n      tag_338\n      jump\t// in\n    tag_509:\n        /* \"#utility.yul\":13922:14475   */\n      swap6\n      swap5\n      pop\n      pop\n      pop\n      pop\n      pop\n      jump\t// out\n\n    auxdata: 0xa2646970667358221220d838b5b550cc62f002e41f8bdfacd03bf3d45fe7e34e404266e4193d8d832b1064736f6c634300081a0033\n}\n",
				"bytecode": {
					"linkReferences": {},
					"object": "608060405234801561000f575f80fd5b50604051613f51380380613f518339818101604052810190610031919061035b565b825f73ffffffffffffffffffffffffffffffffffffffff168173ffffffffffffffffffffffffffffffffffffffff16036100a2575f6040517f1e4fbdf700000000000000000000000000000000000000000000000000000000815260040161009991906103ba565b60405180910390fd5b6100b18161020960201b60201c565b508060065f3073ffffffffffffffffffffffffffffffffffffffff1673ffffffffffffffffffffffffffffffffffffffff1681526020019081526020015f20600101819055506706f05b59d3b2000060065f3073ffffffffffffffffffffffffffffffffffffffff1673ffffffffffffffffffffffffffffffffffffffff1681526020019081526020015f206004015f60028110610152576101516103d3565b5b01819055506706f05b59d3b2000060065f3073ffffffffffffffffffffffffffffffffffffffff1673ffffffffffffffffffffffffffffffffffffffff1681526020019081526020015f206004016001600281106101b3576101b26103d3565b5b01819055508160015f6101000a81548173ffffffffffffffffffffffffffffffffffffffff021916908373ffffffffffffffffffffffffffffffffffffffff1602179055506103e8600381905550505050610400565b5f805f9054906101000a900473ffffffffffffffffffffffffffffffffffffffff169050815f806101000a81548173ffffffffffffffffffffffffffffffffffffffff021916908373ffffffffffffffffffffffffffffffffffffffff1602179055508173ffffffffffffffffffffffffffffffffffffffff168173ffffffffffffffffffffffffffffffffffffffff167f8be0079c531659141344cd1fd0a4f28419497f9722a3daafe3b4186f6b6457e060405160405180910390a35050565b5f80fd5b5f73ffffffffffffffffffffffffffffffffffffffff82169050919050565b5f6102f7826102ce565b9050919050565b610307816102ed565b8114610311575f80fd5b50565b5f81519050610322816102fe565b92915050565b5f819050919050565b61033a81610328565b8114610344575f80fd5b50565b5f8151905061035581610331565b92915050565b5f805f60608486031215610372576103716102ca565b5b5f61037f86828701610314565b935050602061039086828701610314565b92505060406103a186828701610347565b9150509250925092565b6103b4816102ed565b82525050565b5f6020820190506103cd5f8301846103ab565b92915050565b7f4e487b71000000000000000000000000000000000000000000000000000000005f52603260045260245ffd5b613b448061040d5f395ff3fe608060405234801561000f575f80fd5b506004361061011f575f3560e01c80636399d03d116100ab578063b677d9d21161006f578063b677d9d21461033b578063bff1f9e114610359578063c435138614610377578063f2fde38b146103ac578063fbea0b06146103c85761011f565b80636399d03d146102ab5780636ffcc719146102c7578063715018a6146102e35780638da5cb5b146102ed578063b3c740e81461030b5761011f565b8063208c86a4116100f2578063208c86a4146101d557806321d0d9af146101f45780633774ca2514610225578063456e62ba1461025a57806361d464ef146102765761011f565b806308ef962e146101235780630efa82f61461015357806311eac855146101835780631959a002146101a1575b5f80fd5b61013d60048036038101906101389190613394565b6103e4565b60405161014a91906133fe565b60405180910390f35b61016d60048036038101906101689190613441565b610414565b60405161017a9190613499565b60405180910390f35b61018b610479565b604051610198919061350d565b60405180910390f35b6101bb60048036038101906101b69190613526565b61049e565b6040516101cc959493929190613560565b60405180910390f35b6101dd6104d0565b6040516101eb9291906135b1565b60405180910390f35b61020e600480360381019061020991906135d8565b610583565b60405161021c9291906135b1565b60405180910390f35b61023f600480360381019061023a9190613441565b61067a565b60405161025196959493929190613616565b60405180910390f35b610274600480360381019061026f9190613675565b6108ac565b005b610290600480360381019061028b9190613441565b6110ab565b6040516102a296959493929190613616565b60405180910390f35b6102c560048036038101906102c09190613394565b611125565b005b6102e160048036038101906102dc91906135d8565b611e8b565b005b6102eb61255b565b005b6102f561256e565b60405161030291906133fe565b60405180910390f35b610325600480360381019061032091906135d8565b612595565b60405161033291906136c5565b60405180910390f35b610343612655565b60405161035091906136c5565b60405180910390f35b61036161265b565b60405161036e91906136c5565b60405180910390f35b610391600480360381019061038c9190613526565b612661565b6040516103a3969594939291906136de565b60405180910390f35b6103c660048036038101906103c19190613526565b6126a5565b005b6103e260048036038101906103dd919061373d565b612729565b005b6004602052805f5260405f205f915054906101000a900473ffffffffffffffffffffffffffffffffffffffff1681565b5f60055f8473ffffffffffffffffffffffffffffffffffffffff1673ffffffffffffffffffffffffffffffffffffffff1681526020019081526020015f206005015f8381526020019081526020015f205f9054906101000a900460ff16905092915050565b60015f9054906101000a900473ffffffffffffffffffffffffffffffffffffffff1681565b6005602052805f5260405f205f91509050805f0154908060010154908060020154908060030154908060040154905085565b5f8060065f3073ffffffffffffffffffffffffffffffffffffffff1673ffffffffffffffffffffffffffffffffffffffff1681526020019081526020015f206004015f600281106105245761052361377b565b5b015460065f3073ffffffffffffffffffffffffffffffffffffffff1673ffffffffffffffffffffffffffffffffffffffff1681526020019081526020015f206004016001600281106105795761057861377b565b5b0154915091509091565b5f805f838561059291906137d5565b90505f81036105af576706f05b59d3b20000809250925050610673565b5f816064866105be9190613808565b6105c89190613876565b90505f826064886105d99190613808565b6105e39190613876565b9050662386f26fc1000061061e600160646063866106019190613808565b61060b9190613876565b61061591906137d5565b60016064613133565b6106289190613808565b9450662386f26fc10000610663600160646063856106469190613808565b6106509190613876565b61065a91906137d5565b60016064613133565b61066d9190613808565b93505050505b9250929050565b5f805f805f8060075f8973ffffffffffffffffffffffffffffffffffffffff1673ffffffffffffffffffffffffffffffffffffffff1681526020019081526020015f205f8881526020019081526020015f205f015f9054906101000a900460ff1660075f8a73ffffffffffffffffffffffffffffffffffffffff1673ffffffffffffffffffffffffffffffffffffffff1681526020019081526020015f205f8981526020019081526020015f205f0160019054906101000a900460ff1660075f8b73ffffffffffffffffffffffffffffffffffffffff1673ffffffffffffffffffffffffffffffffffffffff1681526020019081526020015f205f8a81526020019081526020015f205f0160029054906101000a900473ffffffffffffffffffffffffffffffffffffffff1660075f8c73ffffffffffffffffffffffffffffffffffffffff1673ffffffffffffffffffffffffffffffffffffffff1681526020019081526020015f205f8b81526020019081526020015f206001015460075f8d73ffffffffffffffffffffffffffffffffffffffff1673ffffffffffffffffffffffffffffffffffffffff1681526020019081526020015f205f8c81526020019081526020015f206002015460075f8e73ffffffffffffffffffffffffffffffffffffffff1673ffffffffffffffffffffffffffffffffffffffff1681526020019081526020015f205f8d81526020019081526020015f20600301549550955095509550955095509295509295509295565b5f81141580156108bd575060018114155b156108ff57806040517fd7acbe890000000000000000000000000000000000000000000000000000000081526004016108f691906136c5565b60405180910390fd5b5f831161094357826040517f2ff4783000000000000000000000000000000000000000000000000000000000815260040161093a91906136c5565b60405180910390fd5b60065f3073ffffffffffffffffffffffffffffffffffffffff1673ffffffffffffffffffffffffffffffffffffffff1681526020019081526020015f205f015f9054906101000a900460ff16156109c6576040517f853fd42100000000000000000000000000000000000000000000000000000000815260040160405180910390fd5b60055f3373ffffffffffffffffffffffffffffffffffffffff1673ffffffffffffffffffffffffffffffffffffffff1681526020019081526020015f206005015f8281526020019081526020015f205f9054906101000a900460ff16610abe5760055f3373ffffffffffffffffffffffffffffffffffffffff1673ffffffffffffffffffffffffffffffffffffffff1681526020019081526020015f206005015f8281526020019081526020015f205f9054906101000a900460ff166040517f3c3a3128000000000000000000000000000000000000000000000000000000008152600401610ab59190613499565b60405180910390fd5b5f8211610b0257816040517fbfc19482000000000000000000000000000000000000000000000000000000008152600401610af991906136c5565b60405180910390fd5b5f8103610bd35760055f3373ffffffffffffffffffffffffffffffffffffffff1673ffffffffffffffffffffffffffffffffffffffff1681526020019081526020015f2060010154831115610bce5760055f3373ffffffffffffffffffffffffffffffffffffffff1673ffffffffffffffffffffffffffffffffffffffff1681526020019081526020015f20600101546040517f98e712c3000000000000000000000000000000000000000000000000000000008152600401610bc591906136c5565b60405180910390fd5b610c99565b60055f3373ffffffffffffffffffffffffffffffffffffffff1673ffffffffffffffffffffffffffffffffffffffff1681526020019081526020015f2060010154831115610c985760055f3373ffffffffffffffffffffffffffffffffffffffff1673ffffffffffffffffffffffffffffffffffffffff1681526020019081526020015f20600101546040517f98e712c3000000000000000000000000000000000000000000000000000000008152600401610c8f91906136c5565b60405180910390fd5b5b60055f3373ffffffffffffffffffffffffffffffffffffffff1673ffffffffffffffffffffffffffffffffffffffff1681526020019081526020015f205f015f815480929190610ce8906138a6565b9190505550600160075f3373ffffffffffffffffffffffffffffffffffffffff1673ffffffffffffffffffffffffffffffffffffffff1681526020019081526020015f205f60055f3373ffffffffffffffffffffffffffffffffffffffff1673ffffffffffffffffffffffffffffffffffffffff1681526020019081526020015f205f015481526020019081526020015f205f015f6101000a81548160ff0219169083151502179055508160075f3373ffffffffffffffffffffffffffffffffffffffff1673ffffffffffffffffffffffffffffffffffffffff1681526020019081526020015f205f60055f3373ffffffffffffffffffffffffffffffffffffffff1673ffffffffffffffffffffffffffffffffffffffff1681526020019081526020015f205f015481526020019081526020015f20600101819055508260075f3373ffffffffffffffffffffffffffffffffffffffff1673ffffffffffffffffffffffffffffffffffffffff1681526020019081526020015f205f60055f3373ffffffffffffffffffffffffffffffffffffffff1673ffffffffffffffffffffffffffffffffffffffff1681526020019081526020015f205f015481526020019081526020015f20600201819055508060075f3373ffffffffffffffffffffffffffffffffffffffff1673ffffffffffffffffffffffffffffffffffffffff1681526020019081526020015f205f60055f3373ffffffffffffffffffffffffffffffffffffffff1673ffffffffffffffffffffffffffffffffffffffff1681526020019081526020015f205f015481526020019081526020015f20600301819055503360075f3373ffffffffffffffffffffffffffffffffffffffff1673ffffffffffffffffffffffffffffffffffffffff1681526020019081526020015f205f60055f3373ffffffffffffffffffffffffffffffffffffffff1673ffffffffffffffffffffffffffffffffffffffff1681526020019081526020015f205f015481526020019081526020015f205f0160026101000a81548173ffffffffffffffffffffffffffffffffffffffff021916908373ffffffffffffffffffffffffffffffffffffffff1602179055503373ffffffffffffffffffffffffffffffffffffffff167f578d9bb67ff50e6081576125ad4c2410d6e82de6dbc1a5dcac37f8e5aa9ca4f460055f3373ffffffffffffffffffffffffffffffffffffffff1673ffffffffffffffffffffffffffffffffffffffff1681526020019081526020015f205f01548460405161109e9291906135b1565b60405180910390a2505050565b6007602052815f5260405f20602052805f5260405f205f9150915050805f015f9054906101000a900460ff1690805f0160019054906101000a900460ff1690805f0160029054906101000a900473ffffffffffffffffffffffffffffffffffffffff16908060010154908060020154908060030154905086565b5f8114158015611136575060018114155b1561117857806040517fd7acbe8900000000000000000000000000000000000000000000000000000000815260040161116f91906136c5565b60405180910390fd5b60065f3073ffffffffffffffffffffffffffffffffffffffff1673ffffffffffffffffffffffffffffffffffffffff1681526020019081526020015f205f015f9054906101000a900460ff16156111fb576040517f853fd42100000000000000000000000000000000000000000000000000000000815260040160405180910390fd5b4260065f3073ffffffffffffffffffffffffffffffffffffffff1673ffffffffffffffffffffffffffffffffffffffff1681526020019081526020015f206001015411156112c05760065f3073ffffffffffffffffffffffffffffffffffffffff1673ffffffffffffffffffffffffffffffffffffffff1681526020019081526020015f20600101546040517f79073e7b0000000000000000000000000000000000000000000000000000000081526004016112b791906136c5565b60405180910390fd5b5f805f90505b6002548110156116d15760055f60045f8481526020019081526020015f205f9054906101000a900473ffffffffffffffffffffffffffffffffffffffff1673ffffffffffffffffffffffffffffffffffffffff1673ffffffffffffffffffffffffffffffffffffffff1681526020019081526020015f206005015f8481526020019081526020015f205f9054906101000a900460ff16156116c4575f831480156113e057505f60055f60045f8581526020019081526020015f205f9054906101000a900473ffffffffffffffffffffffffffffffffffffffff1673ffffffffffffffffffffffffffffffffffffffff1673ffffffffffffffffffffffffffffffffffffffff1681526020019081526020015f206001015414155b156115565761145f60055f60045f8581526020019081526020015f205f9054906101000a900473ffffffffffffffffffffffffffffffffffffffff1673ffffffffffffffffffffffffffffffffffffffff1673ffffffffffffffffffffffffffffffffffffffff1681526020019081526020015f206001015484612595565b60055f60045f8581526020019081526020015f205f9054906101000a900473ffffffffffffffffffffffffffffffffffffffff1673ffffffffffffffffffffffffffffffffffffffff1673ffffffffffffffffffffffffffffffffffffffff1681526020019081526020015f206004018190555060055f60045f8481526020019081526020015f205f9054906101000a900473ffffffffffffffffffffffffffffffffffffffff1673ffffffffffffffffffffffffffffffffffffffff1673ffffffffffffffffffffffffffffffffffffffff1681526020019081526020015f20600401548261154f91906137d5565b91506116c3565b6115d060055f60045f8581526020019081526020015f205f9054906101000a900473ffffffffffffffffffffffffffffffffffffffff1673ffffffffffffffffffffffffffffffffffffffff1673ffffffffffffffffffffffffffffffffffffffff1681526020019081526020015f206003015484612595565b60055f60045f8581526020019081526020015f205f9054906101000a900473ffffffffffffffffffffffffffffffffffffffff1673ffffffffffffffffffffffffffffffffffffffff1673ffffffffffffffffffffffffffffffffffffffff1681526020019081526020015f206004018190555060055f60045f8481526020019081526020015f205f9054906101000a900473ffffffffffffffffffffffffffffffffffffffff1673ffffffffffffffffffffffffffffffffffffffff1673ffffffffffffffffffffffffffffffffffffffff1681526020019081526020015f2060040154826116c091906137d5565b91505b5b80806001019150506112c6565b505f8160065f3073ffffffffffffffffffffffffffffffffffffffff1673ffffffffffffffffffffffffffffffffffffffff1681526020019081526020015f206003015461171f9190613876565b90505f805f90505b600254811015611b8b5760055f60045f8481526020019081526020015f205f9054906101000a900473ffffffffffffffffffffffffffffffffffffffff1673ffffffffffffffffffffffffffffffffffffffff1673ffffffffffffffffffffffffffffffffffffffff1681526020019081526020015f206005015f8681526020019081526020015f205f9054906101000a900460ff1615611b7e575f8360055f60045f8681526020019081526020015f205f9054906101000a900473ffffffffffffffffffffffffffffffffffffffff1673ffffffffffffffffffffffffffffffffffffffff1673ffffffffffffffffffffffffffffffffffffffff1681526020019081526020015f206004015461183f9190613808565b90505f60055f60045f8681526020019081526020015f205f9054906101000a900473ffffffffffffffffffffffffffffffffffffffff1673ffffffffffffffffffffffffffffffffffffffff1673ffffffffffffffffffffffffffffffffffffffff1681526020019081526020015f2060040154826118be91906138ed565b90505f6118cd8260035461315f565b905080856118db91906137d5565b945080836118e991906138ed565b60015f9054906101000a900473ffffffffffffffffffffffffffffffffffffffff1673ffffffffffffffffffffffffffffffffffffffff166370a08231306040518263ffffffff1660e01b815260040161194391906133fe565b602060405180830381865afa15801561195e573d5f803e3d5ffd5b505050506040513d601f19601f820116820180604052508101906119829190613934565b1015611a5d5760015f9054906101000a900473ffffffffffffffffffffffffffffffffffffffff1673ffffffffffffffffffffffffffffffffffffffff166370a08231306040518263ffffffff1660e01b81526004016119e291906133fe565b602060405180830381865afa1580156119fd573d5f803e3d5ffd5b505050506040513d601f19601f82011682018060405250810190611a219190613934565b6040517ff9ae0cb4000000000000000000000000000000000000000000000000000000008152600401611a5491906136c5565b60405180910390fd5b5f60015f9054906101000a900473ffffffffffffffffffffffffffffffffffffffff1673ffffffffffffffffffffffffffffffffffffffff1663a9059cbb60045f8881526020019081526020015f205f9054906101000a900473ffffffffffffffffffffffffffffffffffffffff168487611ad891906138ed565b6040518363ffffffff1660e01b8152600401611af592919061395f565b6020604051808303815f875af1158015611b11573d5f803e3d5ffd5b505050506040513d601f19601f82011682018060405250810190611b3591906139b0565b905080611b7957806040517f73fd8f06000000000000000000000000000000000000000000000000000000008152600401611b709190613499565b60405180910390fd5b505050505b8080600101915050611727565b508060015f9054906101000a900473ffffffffffffffffffffffffffffffffffffffff1673ffffffffffffffffffffffffffffffffffffffff166370a08231306040518263ffffffff1660e01b8152600401611be791906133fe565b602060405180830381865afa158015611c02573d5f803e3d5ffd5b505050506040513d601f19601f82011682018060405250810190611c269190613934565b1015611d015760015f9054906101000a900473ffffffffffffffffffffffffffffffffffffffff1673ffffffffffffffffffffffffffffffffffffffff166370a08231306040518263ffffffff1660e01b8152600401611c8691906133fe565b602060405180830381865afa158015611ca1573d5f803e3d5ffd5b505050506040513d601f19601f82011682018060405250810190611cc59190613934565b6040517fba9c3e4f000000000000000000000000000000000000000000000000000000008152600401611cf891906136c5565b60405180910390fd5b600160065f3073ffffffffffffffffffffffffffffffffffffffff1673ffffffffffffffffffffffffffffffffffffffff1681526020019081526020015f205f015f6101000a81548160ff0219169083151502179055505f60015f9054906101000a900473ffffffffffffffffffffffffffffffffffffffff1673ffffffffffffffffffffffffffffffffffffffff1663a9059cbb611d9e61256e565b846040518363ffffffff1660e01b8152600401611dbc92919061395f565b6020604051808303815f875af1158015611dd8573d5f803e3d5ffd5b505050506040513d601f19601f82011682018060405250810190611dfc91906139b0565b905080611e4057806040517f73fd8f06000000000000000000000000000000000000000000000000000000008152600401611e379190613499565b60405180910390fd5b7f4d21af759c8d2f25c6246594b4cfc2edeb2b901bc0c6e87f5e21c212a12ca1fd611e6961256e565b838588604051611e7c94939291906139db565b60405180910390a15050505050565b5f8114158015611e9c575060018114155b15611ede57806040517fd7acbe89000000000000000000000000000000000000000000000000000000008152600401611ed591906136c5565b60405180910390fd5b5f8211611f2257816040517f2ff47830000000000000000000000000000000000000000000000000000000008152600401611f1991906136c5565b60405180910390fd5b60065f3073ffffffffffffffffffffffffffffffffffffffff1673ffffffffffffffffffffffffffffffffffffffff1681526020019081526020015f205f015f9054906101000a900460ff1615611fa5576040517f853fd42100000000000000000000000000000000000000000000000000000000815260040160405180910390fd5b60055f3373ffffffffffffffffffffffffffffffffffffffff1673ffffffffffffffffffffffffffffffffffffffff1681526020019081526020015f206005015f8281526020019081526020015f205f9054906101000a900460ff1661206e573360045f60025481526020019081526020015f205f6101000a81548173ffffffffffffffffffffffffffffffffffffffff021916908373ffffffffffffffffffffffffffffffffffffffff16021790555060025f815480929190612068906138a6565b91905055505b5f8103612126578160065f3073ffffffffffffffffffffffffffffffffffffffff1673ffffffffffffffffffffffffffffffffffffffff1681526020019081526020015f206007015f8282546120c491906137d5565b925050819055508160055f3373ffffffffffffffffffffffffffffffffffffffff1673ffffffffffffffffffffffffffffffffffffffff1681526020019081526020015f206001015f82825461211a91906137d5565b925050819055506121d3565b8160065f3073ffffffffffffffffffffffffffffffffffffffff1673ffffffffffffffffffffffffffffffffffffffff1681526020019081526020015f206006015f82825461217591906137d5565b925050819055508160055f3373ffffffffffffffffffffffffffffffffffffffff1673ffffffffffffffffffffffffffffffffffffffff1681526020019081526020015f206003015f8282546121cb91906137d5565b925050819055505b8160065f3073ffffffffffffffffffffffffffffffffffffffff1673ffffffffffffffffffffffffffffffffffffffff1681526020019081526020015f206003015f82825461222291906137d5565b9250508190555060065f3073ffffffffffffffffffffffffffffffffffffffff1673ffffffffffffffffffffffffffffffffffffffff1681526020019081526020015f206002015f815480929190612279906138a6565b9190505550600160055f3373ffffffffffffffffffffffffffffffffffffffff1673ffffffffffffffffffffffffffffffffffffffff1681526020019081526020015f206005015f8381526020019081526020015f205f6101000a81548160ff02191690831515021790555061236f60065f3073ffffffffffffffffffffffffffffffffffffffff1673ffffffffffffffffffffffffffffffffffffffff1681526020019081526020015f206007015460065f3073ffffffffffffffffffffffffffffffffffffffff1673ffffffffffffffffffffffffffffffffffffffff1681526020019081526020015f2060060154610583565b60065f3073ffffffffffffffffffffffffffffffffffffffff1673ffffffffffffffffffffffffffffffffffffffff1681526020019081526020015f206004015f600281106123c1576123c061377b565b5b015f60065f3073ffffffffffffffffffffffffffffffffffffffff1673ffffffffffffffffffffffffffffffffffffffff1681526020019081526020015f206004016001600281106124165761241561377b565b5b015f8491905055839190505550505f60015f9054906101000a900473ffffffffffffffffffffffffffffffffffffffff1673ffffffffffffffffffffffffffffffffffffffff166323b872dd3330866040518463ffffffff1660e01b815260040161248393929190613a1e565b6020604051808303815f875af115801561249f573d5f803e3d5ffd5b505050506040513d601f19601f820116820180604052508101906124c391906139b0565b90508061250757806040517fd85d3cef0000000000000000000000000000000000000000000000000000000081526004016124fe9190613499565b60405180910390fd5b823373ffffffffffffffffffffffffffffffffffffffff167ff41b7910e085d0992d604fd470931728fd77cc8eb504d99e50e51a0a30fcfd1a8460405161254e91906136c5565b60405180910390a3505050565b61256361320e565b61256c5f613295565b565b5f805f9054906101000a900473ffffffffffffffffffffffffffffffffffffffff16905090565b5f8060065f3073ffffffffffffffffffffffffffffffffffffffff1673ffffffffffffffffffffffffffffffffffffffff1681526020019081526020015f2060040183600281106125e9576125e861377b565b5b015490505f810361262f576040517f08c379a000000000000000000000000000000000000000000000000000000000815260040161262690613aad565b60405180910390fd5b5f8160648661263e9190613808565b6126489190613876565b9050809250505092915050565b60035481565b60025481565b6006602052805f5260405f205f91509050805f015f9054906101000a900460ff16908060010154908060020154908060030154908060060154908060070154905086565b6126ad61320e565b5f73ffffffffffffffffffffffffffffffffffffffff168173ffffffffffffffffffffffffffffffffffffffff160361271d575f6040517f1e4fbdf700000000000000000000000000000000000000000000000000000000815260040161271491906133fe565b60405180910390fd5b61272681613295565b50565b60075f8273ffffffffffffffffffffffffffffffffffffffff1673ffffffffffffffffffffffffffffffffffffffff1681526020019081526020015f205f8381526020019081526020015f205f015f9054906101000a900460ff166127c557816040517f159970680000000000000000000000000000000000000000000000000000000081526004016127bc91906136c5565b60405180910390fd5b60075f8273ffffffffffffffffffffffffffffffffffffffff1673ffffffffffffffffffffffffffffffffffffffff1681526020019081526020015f205f8381526020019081526020015f205f0160019054906101000a900460ff16156128be5760075f8273ffffffffffffffffffffffffffffffffffffffff1673ffffffffffffffffffffffffffffffffffffffff1681526020019081526020015f205f8381526020019081526020015f205f0160019054906101000a900460ff166040517fca1c6eb30000000000000000000000000000000000000000000000000000000081526004016128b59190613499565b60405180910390fd5b60065f3073ffffffffffffffffffffffffffffffffffffffff1673ffffffffffffffffffffffffffffffffffffffff1681526020019081526020015f205f015f9054906101000a900460ff1615612941576040517f853fd42100000000000000000000000000000000000000000000000000000000815260040160405180910390fd5b8073ffffffffffffffffffffffffffffffffffffffff1660075f8373ffffffffffffffffffffffffffffffffffffffff1673ffffffffffffffffffffffffffffffffffffffff1681526020019081526020015f205f8481526020019081526020015f205f0160029054906101000a900473ffffffffffffffffffffffffffffffffffffffff1673ffffffffffffffffffffffffffffffffffffffff1614612a1f57806040517ff6b79c58000000000000000000000000000000000000000000000000000000008152600401612a1691906133fe565b60405180910390fd5b600160075f8373ffffffffffffffffffffffffffffffffffffffff1673ffffffffffffffffffffffffffffffffffffffff1681526020019081526020015f205f8481526020019081526020015f205f0160016101000a81548160ff0219169083151502179055503360075f8373ffffffffffffffffffffffffffffffffffffffff1673ffffffffffffffffffffffffffffffffffffffff1681526020019081526020015f205f8481526020019081526020015f205f0160026101000a81548173ffffffffffffffffffffffffffffffffffffffff021916908373ffffffffffffffffffffffffffffffffffffffff1602179055505f60075f8373ffffffffffffffffffffffffffffffffffffffff1673ffffffffffffffffffffffffffffffffffffffff1681526020019081526020015f205f8481526020019081526020015f206003015403612cb85760075f8273ffffffffffffffffffffffffffffffffffffffff1673ffffffffffffffffffffffffffffffffffffffff1681526020019081526020015f205f8381526020019081526020015f206002015460055f3373ffffffffffffffffffffffffffffffffffffffff1673ffffffffffffffffffffffffffffffffffffffff1681526020019081526020015f206001015f828254612c0791906137d5565b9250508190555060075f8273ffffffffffffffffffffffffffffffffffffffff1673ffffffffffffffffffffffffffffffffffffffff1681526020019081526020015f205f8381526020019081526020015f206002015460055f8373ffffffffffffffffffffffffffffffffffffffff1673ffffffffffffffffffffffffffffffffffffffff1681526020019081526020015f206001015f828254612cac91906138ed565b92505081905550612e03565b60075f8273ffffffffffffffffffffffffffffffffffffffff1673ffffffffffffffffffffffffffffffffffffffff1681526020019081526020015f205f8381526020019081526020015f206002015460055f8373ffffffffffffffffffffffffffffffffffffffff1673ffffffffffffffffffffffffffffffffffffffff1681526020019081526020015f206003015f828254612d5691906138ed565b9250508190555060075f8273ffffffffffffffffffffffffffffffffffffffff1673ffffffffffffffffffffffffffffffffffffffff1681526020019081526020015f205f8381526020019081526020015f206002015460055f3373ffffffffffffffffffffffffffffffffffffffff1673ffffffffffffffffffffffffffffffffffffffff1681526020019081526020015f206003015f828254612dfb91906137d5565b925050819055505b600160055f3373ffffffffffffffffffffffffffffffffffffffff1673ffffffffffffffffffffffffffffffffffffffff1681526020019081526020015f206005015f60075f8573ffffffffffffffffffffffffffffffffffffffff1673ffffffffffffffffffffffffffffffffffffffff1681526020019081526020015f205f8681526020019081526020015f206003015481526020019081526020015f205f6101000a81548160ff0219169083151502179055503360045f60025481526020019081526020015f205f6101000a81548173ffffffffffffffffffffffffffffffffffffffff021916908373ffffffffffffffffffffffffffffffffffffffff16021790555060025f815480929190612f1c906138a6565b91905055505f60015f9054906101000a900473ffffffffffffffffffffffffffffffffffffffff1673ffffffffffffffffffffffffffffffffffffffff166323b872dd338460075f8773ffffffffffffffffffffffffffffffffffffffff1673ffffffffffffffffffffffffffffffffffffffff1681526020019081526020015f205f8881526020019081526020015f20600101546040518463ffffffff1660e01b8152600401612fcf93929190613a1e565b6020604051808303815f875af1158015612feb573d5f803e3d5ffd5b505050506040513d601f19601f8201168201806040525081019061300f91906139b0565b90508061305357806040517f73fd8f0600000000000000000000000000000000000000000000000000000000815260040161304a9190613499565b60405180910390fd5b7f4ef696cf4aae43c49f3cc815f4721ba5e44e2468e6512ecca3d4730be569a90a338360075f8673ffffffffffffffffffffffffffffffffffffffff1673ffffffffffffffffffffffffffffffffffffffff1681526020019081526020015f205f8781526020019081526020015f206002015460075f8773ffffffffffffffffffffffffffffffffffffffff1673ffffffffffffffffffffffffffffffffffffffff1681526020019081526020015f205f8881526020019081526020015f20600101546040516131269493929190613acb565b60405180910390a1505050565b5f8284101561314457829050613158565b8184111561315457819050613158565b8390505b9392505050565b5f8083116131a457826040517fa55196d300000000000000000000000000000000000000000000000000000000815260040161319b91906136c5565b60405180910390fd5b5f83116131e857816040517f84857ef00000000000000000000000000000000000000000000000000000000081526004016131df91906136c5565b60405180910390fd5b5f61271083856131f89190613808565b6132029190613876565b90508091505092915050565b613216613356565b73ffffffffffffffffffffffffffffffffffffffff1661323461256e565b73ffffffffffffffffffffffffffffffffffffffff161461329357613257613356565b6040517f118cdaa700000000000000000000000000000000000000000000000000000000815260040161328a91906133fe565b60405180910390fd5b565b5f805f9054906101000a900473ffffffffffffffffffffffffffffffffffffffff169050815f806101000a81548173ffffffffffffffffffffffffffffffffffffffff021916908373ffffffffffffffffffffffffffffffffffffffff1602179055508173ffffffffffffffffffffffffffffffffffffffff168173ffffffffffffffffffffffffffffffffffffffff167f8be0079c531659141344cd1fd0a4f28419497f9722a3daafe3b4186f6b6457e060405160405180910390a35050565b5f33905090565b5f80fd5b5f819050919050565b61337381613361565b811461337d575f80fd5b50565b5f8135905061338e8161336a565b92915050565b5f602082840312156133a9576133a861335d565b5b5f6133b684828501613380565b91505092915050565b5f73ffffffffffffffffffffffffffffffffffffffff82169050919050565b5f6133e8826133bf565b9050919050565b6133f8816133de565b82525050565b5f6020820190506134115f8301846133ef565b92915050565b613420816133de565b811461342a575f80fd5b50565b5f8135905061343b81613417565b92915050565b5f80604083850312156134575761345661335d565b5b5f6134648582860161342d565b925050602061347585828601613380565b9150509250929050565b5f8115159050919050565b6134938161347f565b82525050565b5f6020820190506134ac5f83018461348a565b92915050565b5f819050919050565b5f6134d56134d06134cb846133bf565b6134b2565b6133bf565b9050919050565b5f6134e6826134bb565b9050919050565b5f6134f7826134dc565b9050919050565b613507816134ed565b82525050565b5f6020820190506135205f8301846134fe565b92915050565b5f6020828403121561353b5761353a61335d565b5b5f6135488482850161342d565b91505092915050565b61355a81613361565b82525050565b5f60a0820190506135735f830188613551565b6135806020830187613551565b61358d6040830186613551565b61359a6060830185613551565b6135a76080830184613551565b9695505050505050565b5f6040820190506135c45f830185613551565b6135d16020830184613551565b9392505050565b5f80604083850312156135ee576135ed61335d565b5b5f6135fb85828601613380565b925050602061360c85828601613380565b9150509250929050565b5f60c0820190506136295f83018961348a565b613636602083018861348a565b61364360408301876133ef565b6136506060830186613551565b61365d6080830185613551565b61366a60a0830184613551565b979650505050505050565b5f805f6060848603121561368c5761368b61335d565b5b5f61369986828701613380565b93505060206136aa86828701613380565b92505060406136bb86828701613380565b9150509250925092565b5f6020820190506136d85f830184613551565b92915050565b5f60c0820190506136f15f83018961348a565b6136fe6020830188613551565b61370b6040830187613551565b6137186060830186613551565b6137256080830185613551565b61373260a0830184613551565b979650505050505050565b5f80604083850312156137535761375261335d565b5b5f61376085828601613380565b92505060206137718582860161342d565b9150509250929050565b7f4e487b71000000000000000000000000000000000000000000000000000000005f52603260045260245ffd5b7f4e487b71000000000000000000000000000000000000000000000000000000005f52601160045260245ffd5b5f6137df82613361565b91506137ea83613361565b9250828201905080821115613802576138016137a8565b5b92915050565b5f61381282613361565b915061381d83613361565b925082820261382b81613361565b91508282048414831517613842576138416137a8565b5b5092915050565b7f4e487b71000000000000000000000000000000000000000000000000000000005f52601260045260245ffd5b5f61388082613361565b915061388b83613361565b92508261389b5761389a613849565b5b828204905092915050565b5f6138b082613361565b91507fffffffffffffffffffffffffffffffffffffffffffffffffffffffffffffffff82036138e2576138e16137a8565b5b600182019050919050565b5f6138f782613361565b915061390283613361565b925082820390508181111561391a576139196137a8565b5b92915050565b5f8151905061392e8161336a565b92915050565b5f602082840312156139495761394861335d565b5b5f61395684828501613920565b91505092915050565b5f6040820190506139725f8301856133ef565b61397f6020830184613551565b9392505050565b61398f8161347f565b8114613999575f80fd5b50565b5f815190506139aa81613986565b92915050565b5f602082840312156139c5576139c461335d565b5b5f6139d28482850161399c565b91505092915050565b5f6080820190506139ee5f8301876133ef565b6139fb6020830186613551565b613a086040830185613551565b613a156060830184613551565b95945050505050565b5f606082019050613a315f8301866133ef565b613a3e60208301856133ef565b613a4b6040830184613551565b949350505050565b5f82825260208201905092915050565b7f5f70726963652063616e6e6f74206265207a65726f00000000000000000000005f82015250565b5f613a97601583613a53565b9150613aa282613a63565b602082019050919050565b5f6020820190508181035f830152613ac481613a8b565b9050919050565b5f608082019050613ade5f8301876133ef565b613aeb60208301866133ef565b613af86040830185613551565b613b056060830184613551565b9594505050505056fea2646970667358221220d838b5b550cc62f002e41f8bdfacd03bf3d45fe7e34e404266e4193d8d832b1064736f6c634300081a0033",
					"opcodes": "PUSH1 0x80 PUSH1 0x40 MSTORE CALLVALUE DUP1 ISZERO PUSH2 0xF JUMPI PUSH0 DUP1 REVERT JUMPDEST POP PUSH1 0x40 MLOAD PUSH2 0x3F51 CODESIZE SUB DUP1 PUSH2 0x3F51 DUP4 CODECOPY DUP2 DUP2 ADD PUSH1 0x40 MSTORE DUP2 ADD SWAP1 PUSH2 0x31 SWAP2 SWAP1 PUSH2 0x35B JUMP JUMPDEST DUP3 PUSH0 PUSH20 0xFFFFFFFFFFFFFFFFFFFFFFFFFFFFFFFFFFFFFFFF AND DUP2 PUSH20 0xFFFFFFFFFFFFFFFFFFFFFFFFFFFFFFFFFFFFFFFF AND SUB PUSH2 0xA2 JUMPI PUSH0 PUSH1 0x40 MLOAD PUSH32 0x1E4FBDF700000000000000000000000000000000000000000000000000000000 DUP2 MSTORE PUSH1 0x4 ADD PUSH2 0x99 SWAP2 SWAP1 PUSH2 0x3BA JUMP JUMPDEST PUSH1 0x40 MLOAD DUP1 SWAP2 SUB SWAP1 REVERT JUMPDEST PUSH2 0xB1 DUP2 PUSH2 0x209 PUSH1 0x20 SHL PUSH1 0x20 SHR JUMP JUMPDEST POP DUP1 PUSH1 0x6 PUSH0 ADDRESS PUSH20 0xFFFFFFFFFFFFFFFFFFFFFFFFFFFFFFFFFFFFFFFF AND PUSH20 0xFFFFFFFFFFFFFFFFFFFFFFFFFFFFFFFFFFFFFFFF AND DUP2 MSTORE PUSH1 0x20 ADD SWAP1 DUP2 MSTORE PUSH1 0x20 ADD PUSH0 KECCAK256 PUSH1 0x1 ADD DUP2 SWAP1 SSTORE POP PUSH8 0x6F05B59D3B20000 PUSH1 0x6 PUSH0 ADDRESS PUSH20 0xFFFFFFFFFFFFFFFFFFFFFFFFFFFFFFFFFFFFFFFF AND PUSH20 0xFFFFFFFFFFFFFFFFFFFFFFFFFFFFFFFFFFFFFFFF AND DUP2 MSTORE PUSH1 0x20 ADD SWAP1 DUP2 MSTORE PUSH1 0x20 ADD PUSH0 KECCAK256 PUSH1 0x4 ADD PUSH0 PUSH1 0x2 DUP2 LT PUSH2 0x152 JUMPI PUSH2 0x151 PUSH2 0x3D3 JUMP JUMPDEST JUMPDEST ADD DUP2 SWAP1 SSTORE POP PUSH8 0x6F05B59D3B20000 PUSH1 0x6 PUSH0 ADDRESS PUSH20 0xFFFFFFFFFFFFFFFFFFFFFFFFFFFFFFFFFFFFFFFF AND PUSH20 0xFFFFFFFFFFFFFFFFFFFFFFFFFFFFFFFFFFFFFFFF AND DUP2 MSTORE PUSH1 0x20 ADD SWAP1 DUP2 MSTORE PUSH1 0x20 ADD PUSH0 KECCAK256 PUSH1 0x4 ADD PUSH1 0x1 PUSH1 0x2 DUP2 LT PUSH2 0x1B3 JUMPI PUSH2 0x1B2 PUSH2 0x3D3 JUMP JUMPDEST JUMPDEST ADD DUP2 SWAP1 SSTORE POP DUP2 PUSH1 0x1 PUSH0 PUSH2 0x100 EXP DUP2 SLOAD DUP2 PUSH20 0xFFFFFFFFFFFFFFFFFFFFFFFFFFFFFFFFFFFFFFFF MUL NOT AND SWAP1 DUP4 PUSH20 0xFFFFFFFFFFFFFFFFFFFFFFFFFFFFFFFFFFFFFFFF AND MUL OR SWAP1 SSTORE POP PUSH2 0x3E8 PUSH1 0x3 DUP2 SWAP1 SSTORE POP POP POP POP PUSH2 0x400 JUMP JUMPDEST PUSH0 DUP1 PUSH0 SWAP1 SLOAD SWAP1 PUSH2 0x100 EXP SWAP1 DIV PUSH20 0xFFFFFFFFFFFFFFFFFFFFFFFFFFFFFFFFFFFFFFFF AND SWAP1 POP DUP2 PUSH0 DUP1 PUSH2 0x100 EXP DUP2 SLOAD DUP2 PUSH20 0xFFFFFFFFFFFFFFFFFFFFFFFFFFFFFFFFFFFFFFFF MUL NOT AND SWAP1 DUP4 PUSH20 0xFFFFFFFFFFFFFFFFFFFFFFFFFFFFFFFFFFFFFFFF AND MUL OR SWAP1 SSTORE POP DUP2 PUSH20 0xFFFFFFFFFFFFFFFFFFFFFFFFFFFFFFFFFFFFFFFF AND DUP2 PUSH20 0xFFFFFFFFFFFFFFFFFFFFFFFFFFFFFFFFFFFFFFFF AND PUSH32 0x8BE0079C531659141344CD1FD0A4F28419497F9722A3DAAFE3B4186F6B6457E0 PUSH1 0x40 MLOAD PUSH1 0x40 MLOAD DUP1 SWAP2 SUB SWAP1 LOG3 POP POP JUMP JUMPDEST PUSH0 DUP1 REVERT JUMPDEST PUSH0 PUSH20 0xFFFFFFFFFFFFFFFFFFFFFFFFFFFFFFFFFFFFFFFF DUP3 AND SWAP1 POP SWAP2 SWAP1 POP JUMP JUMPDEST PUSH0 PUSH2 0x2F7 DUP3 PUSH2 0x2CE JUMP JUMPDEST SWAP1 POP SWAP2 SWAP1 POP JUMP JUMPDEST PUSH2 0x307 DUP2 PUSH2 0x2ED JUMP JUMPDEST DUP2 EQ PUSH2 0x311 JUMPI PUSH0 DUP1 REVERT JUMPDEST POP JUMP JUMPDEST PUSH0 DUP2 MLOAD SWAP1 POP PUSH2 0x322 DUP2 PUSH2 0x2FE JUMP JUMPDEST SWAP3 SWAP2 POP POP JUMP JUMPDEST PUSH0 DUP2 SWAP1 POP SWAP2 SWAP1 POP JUMP JUMPDEST PUSH2 0x33A DUP2 PUSH2 0x328 JUMP JUMPDEST DUP2 EQ PUSH2 0x344 JUMPI PUSH0 DUP1 REVERT JUMPDEST POP JUMP JUMPDEST PUSH0 DUP2 MLOAD SWAP1 POP PUSH2 0x355 DUP2 PUSH2 0x331 JUMP JUMPDEST SWAP3 SWAP2 POP POP JUMP JUMPDEST PUSH0 DUP1 PUSH0 PUSH1 0x60 DUP5 DUP7 SUB SLT ISZERO PUSH2 0x372 JUMPI PUSH2 0x371 PUSH2 0x2CA JUMP JUMPDEST JUMPDEST PUSH0 PUSH2 0x37F DUP7 DUP3 DUP8 ADD PUSH2 0x314 JUMP JUMPDEST SWAP4 POP POP PUSH1 0x20 PUSH2 0x390 DUP7 DUP3 DUP8 ADD PUSH2 0x314 JUMP JUMPDEST SWAP3 POP POP PUSH1 0x40 PUSH2 0x3A1 DUP7 DUP3 DUP8 ADD PUSH2 0x347 JUMP JUMPDEST SWAP2 POP POP SWAP3 POP SWAP3 POP SWAP3 JUMP JUMPDEST PUSH2 0x3B4 DUP2 PUSH2 0x2ED JUMP JUMPDEST DUP3 MSTORE POP POP JUMP JUMPDEST PUSH0 PUSH1 0x20 DUP3 ADD SWAP1 POP PUSH2 0x3CD PUSH0 DUP4 ADD DUP5 PUSH2 0x3AB JUMP JUMPDEST SWAP3 SWAP2 POP POP JUMP JUMPDEST PUSH32 0x4E487B7100000000000000000000000000000000000000000000000000000000 PUSH0 MSTORE PUSH1 0x32 PUSH1 0x4 MSTORE PUSH1 0x24 PUSH0 REVERT JUMPDEST PUSH2 0x3B44 DUP1 PUSH2 0x40D PUSH0 CODECOPY PUSH0 RETURN INVALID PUSH1 0x80 PUSH1 0x40 MSTORE CALLVALUE DUP1 ISZERO PUSH2 0xF JUMPI PUSH0 DUP1 REVERT JUMPDEST POP PUSH1 0x4 CALLDATASIZE LT PUSH2 0x11F JUMPI PUSH0 CALLDATALOAD PUSH1 0xE0 SHR DUP1 PUSH4 0x6399D03D GT PUSH2 0xAB JUMPI DUP1 PUSH4 0xB677D9D2 GT PUSH2 0x6F JUMPI DUP1 PUSH4 0xB677D9D2 EQ PUSH2 0x33B JUMPI DUP1 PUSH4 0xBFF1F9E1 EQ PUSH2 0x359 JUMPI DUP1 PUSH4 0xC4351386 EQ PUSH2 0x377 JUMPI DUP1 PUSH4 0xF2FDE38B EQ PUSH2 0x3AC JUMPI DUP1 PUSH4 0xFBEA0B06 EQ PUSH2 0x3C8 JUMPI PUSH2 0x11F JUMP JUMPDEST DUP1 PUSH4 0x6399D03D EQ PUSH2 0x2AB JUMPI DUP1 PUSH4 0x6FFCC719 EQ PUSH2 0x2C7 JUMPI DUP1 PUSH4 0x715018A6 EQ PUSH2 0x2E3 JUMPI DUP1 PUSH4 0x8DA5CB5B EQ PUSH2 0x2ED JUMPI DUP1 PUSH4 0xB3C740E8 EQ PUSH2 0x30B JUMPI PUSH2 0x11F JUMP JUMPDEST DUP1 PUSH4 0x208C86A4 GT PUSH2 0xF2 JUMPI DUP1 PUSH4 0x208C86A4 EQ PUSH2 0x1D5 JUMPI DUP1 PUSH4 0x21D0D9AF EQ PUSH2 0x1F4 JUMPI DUP1 PUSH4 0x3774CA25 EQ PUSH2 0x225 JUMPI DUP1 PUSH4 0x456E62BA EQ PUSH2 0x25A JUMPI DUP1 PUSH4 0x61D464EF EQ PUSH2 0x276 JUMPI PUSH2 0x11F JUMP JUMPDEST DUP1 PUSH4 0x8EF962E EQ PUSH2 0x123 JUMPI DUP1 PUSH4 0xEFA82F6 EQ PUSH2 0x153 JUMPI DUP1 PUSH4 0x11EAC855 EQ PUSH2 0x183 JUMPI DUP1 PUSH4 0x1959A002 EQ PUSH2 0x1A1 JUMPI JUMPDEST PUSH0 DUP1 REVERT JUMPDEST PUSH2 0x13D PUSH1 0x4 DUP1 CALLDATASIZE SUB DUP2 ADD SWAP1 PUSH2 0x138 SWAP2 SWAP1 PUSH2 0x3394 JUMP JUMPDEST PUSH2 0x3E4 JUMP JUMPDEST PUSH1 0x40 MLOAD PUSH2 0x14A SWAP2 SWAP1 PUSH2 0x33FE JUMP JUMPDEST PUSH1 0x40 MLOAD DUP1 SWAP2 SUB SWAP1 RETURN JUMPDEST PUSH2 0x16D PUSH1 0x4 DUP1 CALLDATASIZE SUB DUP2 ADD SWAP1 PUSH2 0x168 SWAP2 SWAP1 PUSH2 0x3441 JUMP JUMPDEST PUSH2 0x414 JUMP JUMPDEST PUSH1 0x40 MLOAD PUSH2 0x17A SWAP2 SWAP1 PUSH2 0x3499 JUMP JUMPDEST PUSH1 0x40 MLOAD DUP1 SWAP2 SUB SWAP1 RETURN JUMPDEST PUSH2 0x18B PUSH2 0x479 JUMP JUMPDEST PUSH1 0x40 MLOAD PUSH2 0x198 SWAP2 SWAP1 PUSH2 0x350D JUMP JUMPDEST PUSH1 0x40 MLOAD DUP1 SWAP2 SUB SWAP1 RETURN JUMPDEST PUSH2 0x1BB PUSH1 0x4 DUP1 CALLDATASIZE SUB DUP2 ADD SWAP1 PUSH2 0x1B6 SWAP2 SWAP1 PUSH2 0x3526 JUMP JUMPDEST PUSH2 0x49E JUMP JUMPDEST PUSH1 0x40 MLOAD PUSH2 0x1CC SWAP6 SWAP5 SWAP4 SWAP3 SWAP2 SWAP1 PUSH2 0x3560 JUMP JUMPDEST PUSH1 0x40 MLOAD DUP1 SWAP2 SUB SWAP1 RETURN JUMPDEST PUSH2 0x1DD PUSH2 0x4D0 JUMP JUMPDEST PUSH1 0x40 MLOAD PUSH2 0x1EB SWAP3 SWAP2 SWAP1 PUSH2 0x35B1 JUMP JUMPDEST PUSH1 0x40 MLOAD DUP1 SWAP2 SUB SWAP1 RETURN JUMPDEST PUSH2 0x20E PUSH1 0x4 DUP1 CALLDATASIZE SUB DUP2 ADD SWAP1 PUSH2 0x209 SWAP2 SWAP1 PUSH2 0x35D8 JUMP JUMPDEST PUSH2 0x583 JUMP JUMPDEST PUSH1 0x40 MLOAD PUSH2 0x21C SWAP3 SWAP2 SWAP1 PUSH2 0x35B1 JUMP JUMPDEST PUSH1 0x40 MLOAD DUP1 SWAP2 SUB SWAP1 RETURN JUMPDEST PUSH2 0x23F PUSH1 0x4 DUP1 CALLDATASIZE SUB DUP2 ADD SWAP1 PUSH2 0x23A SWAP2 SWAP1 PUSH2 0x3441 JUMP JUMPDEST PUSH2 0x67A JUMP JUMPDEST PUSH1 0x40 MLOAD PUSH2 0x251 SWAP7 SWAP6 SWAP5 SWAP4 SWAP3 SWAP2 SWAP1 PUSH2 0x3616 JUMP JUMPDEST PUSH1 0x40 MLOAD DUP1 SWAP2 SUB SWAP1 RETURN JUMPDEST PUSH2 0x274 PUSH1 0x4 DUP1 CALLDATASIZE SUB DUP2 ADD SWAP1 PUSH2 0x26F SWAP2 SWAP1 PUSH2 0x3675 JUMP JUMPDEST PUSH2 0x8AC JUMP JUMPDEST STOP JUMPDEST PUSH2 0x290 PUSH1 0x4 DUP1 CALLDATASIZE SUB DUP2 ADD SWAP1 PUSH2 0x28B SWAP2 SWAP1 PUSH2 0x3441 JUMP JUMPDEST PUSH2 0x10AB JUMP JUMPDEST PUSH1 0x40 MLOAD PUSH2 0x2A2 SWAP7 SWAP6 SWAP5 SWAP4 SWAP3 SWAP2 SWAP1 PUSH2 0x3616 JUMP JUMPDEST PUSH1 0x40 MLOAD DUP1 SWAP2 SUB SWAP1 RETURN JUMPDEST PUSH2 0x2C5 PUSH1 0x4 DUP1 CALLDATASIZE SUB DUP2 ADD SWAP1 PUSH2 0x2C0 SWAP2 SWAP1 PUSH2 0x3394 JUMP JUMPDEST PUSH2 0x1125 JUMP JUMPDEST STOP JUMPDEST PUSH2 0x2E1 PUSH1 0x4 DUP1 CALLDATASIZE SUB DUP2 ADD SWAP1 PUSH2 0x2DC SWAP2 SWAP1 PUSH2 0x35D8 JUMP JUMPDEST PUSH2 0x1E8B JUMP JUMPDEST STOP JUMPDEST PUSH2 0x2EB PUSH2 0x255B JUMP JUMPDEST STOP JUMPDEST PUSH2 0x2F5 PUSH2 0x256E JUMP JUMPDEST PUSH1 0x40 MLOAD PUSH2 0x302 SWAP2 SWAP1 PUSH2 0x33FE JUMP JUMPDEST PUSH1 0x40 MLOAD DUP1 SWAP2 SUB SWAP1 RETURN JUMPDEST PUSH2 0x325 PUSH1 0x4 DUP1 CALLDATASIZE SUB DUP2 ADD SWAP1 PUSH2 0x320 SWAP2 SWAP1 PUSH2 0x35D8 JUMP JUMPDEST PUSH2 0x2595 JUMP JUMPDEST PUSH1 0x40 MLOAD PUSH2 0x332 SWAP2 SWAP1 PUSH2 0x36C5 JUMP JUMPDEST PUSH1 0x40 MLOAD DUP1 SWAP2 SUB SWAP1 RETURN JUMPDEST PUSH2 0x343 PUSH2 0x2655 JUMP JUMPDEST PUSH1 0x40 MLOAD PUSH2 0x350 SWAP2 SWAP1 PUSH2 0x36C5 JUMP JUMPDEST PUSH1 0x40 MLOAD DUP1 SWAP2 SUB SWAP1 RETURN JUMPDEST PUSH2 0x361 PUSH2 0x265B JUMP JUMPDEST PUSH1 0x40 MLOAD PUSH2 0x36E SWAP2 SWAP1 PUSH2 0x36C5 JUMP JUMPDEST PUSH1 0x40 MLOAD DUP1 SWAP2 SUB SWAP1 RETURN JUMPDEST PUSH2 0x391 PUSH1 0x4 DUP1 CALLDATASIZE SUB DUP2 ADD SWAP1 PUSH2 0x38C SWAP2 SWAP1 PUSH2 0x3526 JUMP JUMPDEST PUSH2 0x2661 JUMP JUMPDEST PUSH1 0x40 MLOAD PUSH2 0x3A3 SWAP7 SWAP6 SWAP5 SWAP4 SWAP3 SWAP2 SWAP1 PUSH2 0x36DE JUMP JUMPDEST PUSH1 0x40 MLOAD DUP1 SWAP2 SUB SWAP1 RETURN JUMPDEST PUSH2 0x3C6 PUSH1 0x4 DUP1 CALLDATASIZE SUB DUP2 ADD SWAP1 PUSH2 0x3C1 SWAP2 SWAP1 PUSH2 0x3526 JUMP JUMPDEST PUSH2 0x26A5 JUMP JUMPDEST STOP JUMPDEST PUSH2 0x3E2 PUSH1 0x4 DUP1 CALLDATASIZE SUB DUP2 ADD SWAP1 PUSH2 0x3DD SWAP2 SWAP1 PUSH2 0x373D JUMP JUMPDEST PUSH2 0x2729 JUMP JUMPDEST STOP JUMPDEST PUSH1 0x4 PUSH1 0x20 MSTORE DUP1 PUSH0 MSTORE PUSH1 0x40 PUSH0 KECCAK256 PUSH0 SWAP2 POP SLOAD SWAP1 PUSH2 0x100 EXP SWAP1 DIV PUSH20 0xFFFFFFFFFFFFFFFFFFFFFFFFFFFFFFFFFFFFFFFF AND DUP2 JUMP JUMPDEST PUSH0 PUSH1 0x5 PUSH0 DUP5 PUSH20 0xFFFFFFFFFFFFFFFFFFFFFFFFFFFFFFFFFFFFFFFF AND PUSH20 0xFFFFFFFFFFFFFFFFFFFFFFFFFFFFFFFFFFFFFFFF AND DUP2 MSTORE PUSH1 0x20 ADD SWAP1 DUP2 MSTORE PUSH1 0x20 ADD PUSH0 KECCAK256 PUSH1 0x5 ADD PUSH0 DUP4 DUP2 MSTORE PUSH1 0x20 ADD SWAP1 DUP2 MSTORE PUSH1 0x20 ADD PUSH0 KECCAK256 PUSH0 SWAP1 SLOAD SWAP1 PUSH2 0x100 EXP SWAP1 DIV PUSH1 0xFF AND SWAP1 POP SWAP3 SWAP2 POP POP JUMP JUMPDEST PUSH1 0x1 PUSH0 SWAP1 SLOAD SWAP1 PUSH2 0x100 EXP SWAP1 DIV PUSH20 0xFFFFFFFFFFFFFFFFFFFFFFFFFFFFFFFFFFFFFFFF AND DUP2 JUMP JUMPDEST PUSH1 0x5 PUSH1 0x20 MSTORE DUP1 PUSH0 MSTORE PUSH1 0x40 PUSH0 KECCAK256 PUSH0 SWAP2 POP SWAP1 POP DUP1 PUSH0 ADD SLOAD SWAP1 DUP1 PUSH1 0x1 ADD SLOAD SWAP1 DUP1 PUSH1 0x2 ADD SLOAD SWAP1 DUP1 PUSH1 0x3 ADD SLOAD SWAP1 DUP1 PUSH1 0x4 ADD SLOAD SWAP1 POP DUP6 JUMP JUMPDEST PUSH0 DUP1 PUSH1 0x6 PUSH0 ADDRESS PUSH20 0xFFFFFFFFFFFFFFFFFFFFFFFFFFFFFFFFFFFFFFFF AND PUSH20 0xFFFFFFFFFFFFFFFFFFFFFFFFFFFFFFFFFFFFFFFF AND DUP2 MSTORE PUSH1 0x20 ADD SWAP1 DUP2 MSTORE PUSH1 0x20 ADD PUSH0 KECCAK256 PUSH1 0x4 ADD PUSH0 PUSH1 0x2 DUP2 LT PUSH2 0x524 JUMPI PUSH2 0x523 PUSH2 0x377B JUMP JUMPDEST JUMPDEST ADD SLOAD PUSH1 0x6 PUSH0 ADDRESS PUSH20 0xFFFFFFFFFFFFFFFFFFFFFFFFFFFFFFFFFFFFFFFF AND PUSH20 0xFFFFFFFFFFFFFFFFFFFFFFFFFFFFFFFFFFFFFFFF AND DUP2 MSTORE PUSH1 0x20 ADD SWAP1 DUP2 MSTORE PUSH1 0x20 ADD PUSH0 KECCAK256 PUSH1 0x4 ADD PUSH1 0x1 PUSH1 0x2 DUP2 LT PUSH2 0x579 JUMPI PUSH2 0x578 PUSH2 0x377B JUMP JUMPDEST JUMPDEST ADD SLOAD SWAP2 POP SWAP2 POP SWAP1 SWAP2 JUMP JUMPDEST PUSH0 DUP1 PUSH0 DUP4 DUP6 PUSH2 0x592 SWAP2 SWAP1 PUSH2 0x37D5 JUMP JUMPDEST SWAP1 POP PUSH0 DUP2 SUB PUSH2 0x5AF JUMPI PUSH8 0x6F05B59D3B20000 DUP1 SWAP3 POP SWAP3 POP POP PUSH2 0x673 JUMP JUMPDEST PUSH0 DUP2 PUSH1 0x64 DUP7 PUSH2 0x5BE SWAP2 SWAP1 PUSH2 0x3808 JUMP JUMPDEST PUSH2 0x5C8 SWAP2 SWAP1 PUSH2 0x3876 JUMP JUMPDEST SWAP1 POP PUSH0 DUP3 PUSH1 0x64 DUP9 PUSH2 0x5D9 SWAP2 SWAP1 PUSH2 0x3808 JUMP JUMPDEST PUSH2 0x5E3 SWAP2 SWAP1 PUSH2 0x3876 JUMP JUMPDEST SWAP1 POP PUSH7 0x2386F26FC10000 PUSH2 0x61E PUSH1 0x1 PUSH1 0x64 PUSH1 0x63 DUP7 PUSH2 0x601 SWAP2 SWAP1 PUSH2 0x3808 JUMP JUMPDEST PUSH2 0x60B SWAP2 SWAP1 PUSH2 0x3876 JUMP JUMPDEST PUSH2 0x615 SWAP2 SWAP1 PUSH2 0x37D5 JUMP JUMPDEST PUSH1 0x1 PUSH1 0x64 PUSH2 0x3133 JUMP JUMPDEST PUSH2 0x628 SWAP2 SWAP1 PUSH2 0x3808 JUMP JUMPDEST SWAP5 POP PUSH7 0x2386F26FC10000 PUSH2 0x663 PUSH1 0x1 PUSH1 0x64 PUSH1 0x63 DUP6 PUSH2 0x646 SWAP2 SWAP1 PUSH2 0x3808 JUMP JUMPDEST PUSH2 0x650 SWAP2 SWAP1 PUSH2 0x3876 JUMP JUMPDEST PUSH2 0x65A SWAP2 SWAP1 PUSH2 0x37D5 JUMP JUMPDEST PUSH1 0x1 PUSH1 0x64 PUSH2 0x3133 JUMP JUMPDEST PUSH2 0x66D SWAP2 SWAP1 PUSH2 0x3808 JUMP JUMPDEST SWAP4 POP POP POP POP JUMPDEST SWAP3 POP SWAP3 SWAP1 POP JUMP JUMPDEST PUSH0 DUP1 PUSH0 DUP1 PUSH0 DUP1 PUSH1 0x7 PUSH0 DUP10 PUSH20 0xFFFFFFFFFFFFFFFFFFFFFFFFFFFFFFFFFFFFFFFF AND PUSH20 0xFFFFFFFFFFFFFFFFFFFFFFFFFFFFFFFFFFFFFFFF AND DUP2 MSTORE PUSH1 0x20 ADD SWAP1 DUP2 MSTORE PUSH1 0x20 ADD PUSH0 KECCAK256 PUSH0 DUP9 DUP2 MSTORE PUSH1 0x20 ADD SWAP1 DUP2 MSTORE PUSH1 0x20 ADD PUSH0 KECCAK256 PUSH0 ADD PUSH0 SWAP1 SLOAD SWAP1 PUSH2 0x100 EXP SWAP1 DIV PUSH1 0xFF AND PUSH1 0x7 PUSH0 DUP11 PUSH20 0xFFFFFFFFFFFFFFFFFFFFFFFFFFFFFFFFFFFFFFFF AND PUSH20 0xFFFFFFFFFFFFFFFFFFFFFFFFFFFFFFFFFFFFFFFF AND DUP2 MSTORE PUSH1 0x20 ADD SWAP1 DUP2 MSTORE PUSH1 0x20 ADD PUSH0 KECCAK256 PUSH0 DUP10 DUP2 MSTORE PUSH1 0x20 ADD SWAP1 DUP2 MSTORE PUSH1 0x20 ADD PUSH0 KECCAK256 PUSH0 ADD PUSH1 0x1 SWAP1 SLOAD SWAP1 PUSH2 0x100 EXP SWAP1 DIV PUSH1 0xFF AND PUSH1 0x7 PUSH0 DUP12 PUSH20 0xFFFFFFFFFFFFFFFFFFFFFFFFFFFFFFFFFFFFFFFF AND PUSH20 0xFFFFFFFFFFFFFFFFFFFFFFFFFFFFFFFFFFFFFFFF AND DUP2 MSTORE PUSH1 0x20 ADD SWAP1 DUP2 MSTORE PUSH1 0x20 ADD PUSH0 KECCAK256 PUSH0 DUP11 DUP2 MSTORE PUSH1 0x20 ADD SWAP1 DUP2 MSTORE PUSH1 0x20 ADD PUSH0 KECCAK256 PUSH0 ADD PUSH1 0x2 SWAP1 SLOAD SWAP1 PUSH2 0x100 EXP SWAP1 DIV PUSH20 0xFFFFFFFFFFFFFFFFFFFFFFFFFFFFFFFFFFFFFFFF AND PUSH1 0x7 PUSH0 DUP13 PUSH20 0xFFFFFFFFFFFFFFFFFFFFFFFFFFFFFFFFFFFFFFFF AND PUSH20 0xFFFFFFFFFFFFFFFFFFFFFFFFFFFFFFFFFFFFFFFF AND DUP2 MSTORE PUSH1 0x20 ADD SWAP1 DUP2 MSTORE PUSH1 0x20 ADD PUSH0 KECCAK256 PUSH0 DUP12 DUP2 MSTORE PUSH1 0x20 ADD SWAP1 DUP2 MSTORE PUSH1 0x20 ADD PUSH0 KECCAK256 PUSH1 0x1 ADD SLOAD PUSH1 0x7 PUSH0 DUP14 PUSH20 0xFFFFFFFFFFFFFFFFFFFFFFFFFFFFFFFFFFFFFFFF AND PUSH20 0xFFFFFFFFFFFFFFFFFFFFFFFFFFFFFFFFFFFFFFFF AND DUP2 MSTORE PUSH1 0x20 ADD SWAP1 DUP2 MSTORE PUSH1 0x20 ADD PUSH0 KECCAK256 PUSH0 DUP13 DUP2 MSTORE PUSH1 0x20 ADD SWAP1 DUP2 MSTORE PUSH1 0x20 ADD PUSH0 KECCAK256 PUSH1 0x2 ADD SLOAD PUSH1 0x7 PUSH0 DUP15 PUSH20 0xFFFFFFFFFFFFFFFFFFFFFFFFFFFFFFFFFFFFFFFF AND PUSH20 0xFFFFFFFFFFFFFFFFFFFFFFFFFFFFFFFFFFFFFFFF AND DUP2 MSTORE PUSH1 0x20 ADD SWAP1 DUP2 MSTORE PUSH1 0x20 ADD PUSH0 KECCAK256 PUSH0 DUP14 DUP2 MSTORE PUSH1 0x20 ADD SWAP1 DUP2 MSTORE PUSH1 0x20 ADD PUSH0 KECCAK256 PUSH1 0x3 ADD SLOAD SWAP6 POP SWAP6 POP SWAP6 POP SWAP6 POP SWAP6 POP SWAP6 POP SWAP3 SWAP6 POP SWAP3 SWAP6 POP SWAP3 SWAP6 JUMP JUMPDEST PUSH0 DUP2 EQ ISZERO DUP1 ISZERO PUSH2 0x8BD JUMPI POP PUSH1 0x1 DUP2 EQ ISZERO JUMPDEST ISZERO PUSH2 0x8FF JUMPI DUP1 PUSH1 0x40 MLOAD PUSH32 0xD7ACBE8900000000000000000000000000000000000000000000000000000000 DUP2 MSTORE PUSH1 0x4 ADD PUSH2 0x8F6 SWAP2 SWAP1 PUSH2 0x36C5 JUMP JUMPDEST PUSH1 0x40 MLOAD DUP1 SWAP2 SUB SWAP1 REVERT JUMPDEST PUSH0 DUP4 GT PUSH2 0x943 JUMPI DUP3 PUSH1 0x40 MLOAD PUSH32 0x2FF4783000000000000000000000000000000000000000000000000000000000 DUP2 MSTORE PUSH1 0x4 ADD PUSH2 0x93A SWAP2 SWAP1 PUSH2 0x36C5 JUMP JUMPDEST PUSH1 0x40 MLOAD DUP1 SWAP2 SUB SWAP1 REVERT JUMPDEST PUSH1 0x6 PUSH0 ADDRESS PUSH20 0xFFFFFFFFFFFFFFFFFFFFFFFFFFFFFFFFFFFFFFFF AND PUSH20 0xFFFFFFFFFFFFFFFFFFFFFFFFFFFFFFFFFFFFFFFF AND DUP2 MSTORE PUSH1 0x20 ADD SWAP1 DUP2 MSTORE PUSH1 0x20 ADD PUSH0 KECCAK256 PUSH0 ADD PUSH0 SWAP1 SLOAD SWAP1 PUSH2 0x100 EXP SWAP1 DIV PUSH1 0xFF AND ISZERO PUSH2 0x9C6 JUMPI PUSH1 0x40 MLOAD PUSH32 0x853FD42100000000000000000000000000000000000000000000000000000000 DUP2 MSTORE PUSH1 0x4 ADD PUSH1 0x40 MLOAD DUP1 SWAP2 SUB SWAP1 REVERT JUMPDEST PUSH1 0x5 PUSH0 CALLER PUSH20 0xFFFFFFFFFFFFFFFFFFFFFFFFFFFFFFFFFFFFFFFF AND PUSH20 0xFFFFFFFFFFFFFFFFFFFFFFFFFFFFFFFFFFFFFFFF AND DUP2 MSTORE PUSH1 0x20 ADD SWAP1 DUP2 MSTORE PUSH1 0x20 ADD PUSH0 KECCAK256 PUSH1 0x5 ADD PUSH0 DUP3 DUP2 MSTORE PUSH1 0x20 ADD SWAP1 DUP2 MSTORE PUSH1 0x20 ADD PUSH0 KECCAK256 PUSH0 SWAP1 SLOAD SWAP1 PUSH2 0x100 EXP SWAP1 DIV PUSH1 0xFF AND PUSH2 0xABE JUMPI PUSH1 0x5 PUSH0 CALLER PUSH20 0xFFFFFFFFFFFFFFFFFFFFFFFFFFFFFFFFFFFFFFFF AND PUSH20 0xFFFFFFFFFFFFFFFFFFFFFFFFFFFFFFFFFFFFFFFF AND DUP2 MSTORE PUSH1 0x20 ADD SWAP1 DUP2 MSTORE PUSH1 0x20 ADD PUSH0 KECCAK256 PUSH1 0x5 ADD PUSH0 DUP3 DUP2 MSTORE PUSH1 0x20 ADD SWAP1 DUP2 MSTORE PUSH1 0x20 ADD PUSH0 KECCAK256 PUSH0 SWAP1 SLOAD SWAP1 PUSH2 0x100 EXP SWAP1 DIV PUSH1 0xFF AND PUSH1 0x40 MLOAD PUSH32 0x3C3A312800000000000000000000000000000000000000000000000000000000 DUP2 MSTORE PUSH1 0x4 ADD PUSH2 0xAB5 SWAP2 SWAP1 PUSH2 0x3499 JUMP JUMPDEST PUSH1 0x40 MLOAD DUP1 SWAP2 SUB SWAP1 REVERT JUMPDEST PUSH0 DUP3 GT PUSH2 0xB02 JUMPI DUP2 PUSH1 0x40 MLOAD PUSH32 0xBFC1948200000000000000000000000000000000000000000000000000000000 DUP2 MSTORE PUSH1 0x4 ADD PUSH2 0xAF9 SWAP2 SWAP1 PUSH2 0x36C5 JUMP JUMPDEST PUSH1 0x40 MLOAD DUP1 SWAP2 SUB SWAP1 REVERT JUMPDEST PUSH0 DUP2 SUB PUSH2 0xBD3 JUMPI PUSH1 0x5 PUSH0 CALLER PUSH20 0xFFFFFFFFFFFFFFFFFFFFFFFFFFFFFFFFFFFFFFFF AND PUSH20 0xFFFFFFFFFFFFFFFFFFFFFFFFFFFFFFFFFFFFFFFF AND DUP2 MSTORE PUSH1 0x20 ADD SWAP1 DUP2 MSTORE PUSH1 0x20 ADD PUSH0 KECCAK256 PUSH1 0x1 ADD SLOAD DUP4 GT ISZERO PUSH2 0xBCE JUMPI PUSH1 0x5 PUSH0 CALLER PUSH20 0xFFFFFFFFFFFFFFFFFFFFFFFFFFFFFFFFFFFFFFFF AND PUSH20 0xFFFFFFFFFFFFFFFFFFFFFFFFFFFFFFFFFFFFFFFF AND DUP2 MSTORE PUSH1 0x20 ADD SWAP1 DUP2 MSTORE PUSH1 0x20 ADD PUSH0 KECCAK256 PUSH1 0x1 ADD SLOAD PUSH1 0x40 MLOAD PUSH32 0x98E712C300000000000000000000000000000000000000000000000000000000 DUP2 MSTORE PUSH1 0x4 ADD PUSH2 0xBC5 SWAP2 SWAP1 PUSH2 0x36C5 JUMP JUMPDEST PUSH1 0x40 MLOAD DUP1 SWAP2 SUB SWAP1 REVERT JUMPDEST PUSH2 0xC99 JUMP JUMPDEST PUSH1 0x5 PUSH0 CALLER PUSH20 0xFFFFFFFFFFFFFFFFFFFFFFFFFFFFFFFFFFFFFFFF AND PUSH20 0xFFFFFFFFFFFFFFFFFFFFFFFFFFFFFFFFFFFFFFFF AND DUP2 MSTORE PUSH1 0x20 ADD SWAP1 DUP2 MSTORE PUSH1 0x20 ADD PUSH0 KECCAK256 PUSH1 0x1 ADD SLOAD DUP4 GT ISZERO PUSH2 0xC98 JUMPI PUSH1 0x5 PUSH0 CALLER PUSH20 0xFFFFFFFFFFFFFFFFFFFFFFFFFFFFFFFFFFFFFFFF AND PUSH20 0xFFFFFFFFFFFFFFFFFFFFFFFFFFFFFFFFFFFFFFFF AND DUP2 MSTORE PUSH1 0x20 ADD SWAP1 DUP2 MSTORE PUSH1 0x20 ADD PUSH0 KECCAK256 PUSH1 0x1 ADD SLOAD PUSH1 0x40 MLOAD PUSH32 0x98E712C300000000000000000000000000000000000000000000000000000000 DUP2 MSTORE PUSH1 0x4 ADD PUSH2 0xC8F SWAP2 SWAP1 PUSH2 0x36C5 JUMP JUMPDEST PUSH1 0x40 MLOAD DUP1 SWAP2 SUB SWAP1 REVERT JUMPDEST JUMPDEST PUSH1 0x5 PUSH0 CALLER PUSH20 0xFFFFFFFFFFFFFFFFFFFFFFFFFFFFFFFFFFFFFFFF AND PUSH20 0xFFFFFFFFFFFFFFFFFFFFFFFFFFFFFFFFFFFFFFFF AND DUP2 MSTORE PUSH1 0x20 ADD SWAP1 DUP2 MSTORE PUSH1 0x20 ADD PUSH0 KECCAK256 PUSH0 ADD PUSH0 DUP2 SLOAD DUP1 SWAP3 SWAP2 SWAP1 PUSH2 0xCE8 SWAP1 PUSH2 0x38A6 JUMP JUMPDEST SWAP2 SWAP1 POP SSTORE POP PUSH1 0x1 PUSH1 0x7 PUSH0 CALLER PUSH20 0xFFFFFFFFFFFFFFFFFFFFFFFFFFFFFFFFFFFFFFFF AND PUSH20 0xFFFFFFFFFFFFFFFFFFFFFFFFFFFFFFFFFFFFFFFF AND DUP2 MSTORE PUSH1 0x20 ADD SWAP1 DUP2 MSTORE PUSH1 0x20 ADD PUSH0 KECCAK256 PUSH0 PUSH1 0x5 PUSH0 CALLER PUSH20 0xFFFFFFFFFFFFFFFFFFFFFFFFFFFFFFFFFFFFFFFF AND PUSH20 0xFFFFFFFFFFFFFFFFFFFFFFFFFFFFFFFFFFFFFFFF AND DUP2 MSTORE PUSH1 0x20 ADD SWAP1 DUP2 MSTORE PUSH1 0x20 ADD PUSH0 KECCAK256 PUSH0 ADD SLOAD DUP2 MSTORE PUSH1 0x20 ADD SWAP1 DUP2 MSTORE PUSH1 0x20 ADD PUSH0 KECCAK256 PUSH0 ADD PUSH0 PUSH2 0x100 EXP DUP2 SLOAD DUP2 PUSH1 0xFF MUL NOT AND SWAP1 DUP4 ISZERO ISZERO MUL OR SWAP1 SSTORE POP DUP2 PUSH1 0x7 PUSH0 CALLER PUSH20 0xFFFFFFFFFFFFFFFFFFFFFFFFFFFFFFFFFFFFFFFF AND PUSH20 0xFFFFFFFFFFFFFFFFFFFFFFFFFFFFFFFFFFFFFFFF AND DUP2 MSTORE PUSH1 0x20 ADD SWAP1 DUP2 MSTORE PUSH1 0x20 ADD PUSH0 KECCAK256 PUSH0 PUSH1 0x5 PUSH0 CALLER PUSH20 0xFFFFFFFFFFFFFFFFFFFFFFFFFFFFFFFFFFFFFFFF AND PUSH20 0xFFFFFFFFFFFFFFFFFFFFFFFFFFFFFFFFFFFFFFFF AND DUP2 MSTORE PUSH1 0x20 ADD SWAP1 DUP2 MSTORE PUSH1 0x20 ADD PUSH0 KECCAK256 PUSH0 ADD SLOAD DUP2 MSTORE PUSH1 0x20 ADD SWAP1 DUP2 MSTORE PUSH1 0x20 ADD PUSH0 KECCAK256 PUSH1 0x1 ADD DUP2 SWAP1 SSTORE POP DUP3 PUSH1 0x7 PUSH0 CALLER PUSH20 0xFFFFFFFFFFFFFFFFFFFFFFFFFFFFFFFFFFFFFFFF AND PUSH20 0xFFFFFFFFFFFFFFFFFFFFFFFFFFFFFFFFFFFFFFFF AND DUP2 MSTORE PUSH1 0x20 ADD SWAP1 DUP2 MSTORE PUSH1 0x20 ADD PUSH0 KECCAK256 PUSH0 PUSH1 0x5 PUSH0 CALLER PUSH20 0xFFFFFFFFFFFFFFFFFFFFFFFFFFFFFFFFFFFFFFFF AND PUSH20 0xFFFFFFFFFFFFFFFFFFFFFFFFFFFFFFFFFFFFFFFF AND DUP2 MSTORE PUSH1 0x20 ADD SWAP1 DUP2 MSTORE PUSH1 0x20 ADD PUSH0 KECCAK256 PUSH0 ADD SLOAD DUP2 MSTORE PUSH1 0x20 ADD SWAP1 DUP2 MSTORE PUSH1 0x20 ADD PUSH0 KECCAK256 PUSH1 0x2 ADD DUP2 SWAP1 SSTORE POP DUP1 PUSH1 0x7 PUSH0 CALLER PUSH20 0xFFFFFFFFFFFFFFFFFFFFFFFFFFFFFFFFFFFFFFFF AND PUSH20 0xFFFFFFFFFFFFFFFFFFFFFFFFFFFFFFFFFFFFFFFF AND DUP2 MSTORE PUSH1 0x20 ADD SWAP1 DUP2 MSTORE PUSH1 0x20 ADD PUSH0 KECCAK256 PUSH0 PUSH1 0x5 PUSH0 CALLER PUSH20 0xFFFFFFFFFFFFFFFFFFFFFFFFFFFFFFFFFFFFFFFF AND PUSH20 0xFFFFFFFFFFFFFFFFFFFFFFFFFFFFFFFFFFFFFFFF AND DUP2 MSTORE PUSH1 0x20 ADD SWAP1 DUP2 MSTORE PUSH1 0x20 ADD PUSH0 KECCAK256 PUSH0 ADD SLOAD DUP2 MSTORE PUSH1 0x20 ADD SWAP1 DUP2 MSTORE PUSH1 0x20 ADD PUSH0 KECCAK256 PUSH1 0x3 ADD DUP2 SWAP1 SSTORE POP CALLER PUSH1 0x7 PUSH0 CALLER PUSH20 0xFFFFFFFFFFFFFFFFFFFFFFFFFFFFFFFFFFFFFFFF AND PUSH20 0xFFFFFFFFFFFFFFFFFFFFFFFFFFFFFFFFFFFFFFFF AND DUP2 MSTORE PUSH1 0x20 ADD SWAP1 DUP2 MSTORE PUSH1 0x20 ADD PUSH0 KECCAK256 PUSH0 PUSH1 0x5 PUSH0 CALLER PUSH20 0xFFFFFFFFFFFFFFFFFFFFFFFFFFFFFFFFFFFFFFFF AND PUSH20 0xFFFFFFFFFFFFFFFFFFFFFFFFFFFFFFFFFFFFFFFF AND DUP2 MSTORE PUSH1 0x20 ADD SWAP1 DUP2 MSTORE PUSH1 0x20 ADD PUSH0 KECCAK256 PUSH0 ADD SLOAD DUP2 MSTORE PUSH1 0x20 ADD SWAP1 DUP2 MSTORE PUSH1 0x20 ADD PUSH0 KECCAK256 PUSH0 ADD PUSH1 0x2 PUSH2 0x100 EXP DUP2 SLOAD DUP2 PUSH20 0xFFFFFFFFFFFFFFFFFFFFFFFFFFFFFFFFFFFFFFFF MUL NOT AND SWAP1 DUP4 PUSH20 0xFFFFFFFFFFFFFFFFFFFFFFFFFFFFFFFFFFFFFFFF AND MUL OR SWAP1 SSTORE POP CALLER PUSH20 0xFFFFFFFFFFFFFFFFFFFFFFFFFFFFFFFFFFFFFFFF AND PUSH32 0x578D9BB67FF50E6081576125AD4C2410D6E82DE6DBC1A5DCAC37F8E5AA9CA4F4 PUSH1 0x5 PUSH0 CALLER PUSH20 0xFFFFFFFFFFFFFFFFFFFFFFFFFFFFFFFFFFFFFFFF AND PUSH20 0xFFFFFFFFFFFFFFFFFFFFFFFFFFFFFFFFFFFFFFFF AND DUP2 MSTORE PUSH1 0x20 ADD SWAP1 DUP2 MSTORE PUSH1 0x20 ADD PUSH0 KECCAK256 PUSH0 ADD SLOAD DUP5 PUSH1 0x40 MLOAD PUSH2 0x109E SWAP3 SWAP2 SWAP1 PUSH2 0x35B1 JUMP JUMPDEST PUSH1 0x40 MLOAD DUP1 SWAP2 SUB SWAP1 LOG2 POP POP POP JUMP JUMPDEST PUSH1 0x7 PUSH1 0x20 MSTORE DUP2 PUSH0 MSTORE PUSH1 0x40 PUSH0 KECCAK256 PUSH1 0x20 MSTORE DUP1 PUSH0 MSTORE PUSH1 0x40 PUSH0 KECCAK256 PUSH0 SWAP2 POP SWAP2 POP POP DUP1 PUSH0 ADD PUSH0 SWAP1 SLOAD SWAP1 PUSH2 0x100 EXP SWAP1 DIV PUSH1 0xFF AND SWAP1 DUP1 PUSH0 ADD PUSH1 0x1 SWAP1 SLOAD SWAP1 PUSH2 0x100 EXP SWAP1 DIV PUSH1 0xFF AND SWAP1 DUP1 PUSH0 ADD PUSH1 0x2 SWAP1 SLOAD SWAP1 PUSH2 0x100 EXP SWAP1 DIV PUSH20 0xFFFFFFFFFFFFFFFFFFFFFFFFFFFFFFFFFFFFFFFF AND SWAP1 DUP1 PUSH1 0x1 ADD SLOAD SWAP1 DUP1 PUSH1 0x2 ADD SLOAD SWAP1 DUP1 PUSH1 0x3 ADD SLOAD SWAP1 POP DUP7 JUMP JUMPDEST PUSH0 DUP2 EQ ISZERO DUP1 ISZERO PUSH2 0x1136 JUMPI POP PUSH1 0x1 DUP2 EQ ISZERO JUMPDEST ISZERO PUSH2 0x1178 JUMPI DUP1 PUSH1 0x40 MLOAD PUSH32 0xD7ACBE8900000000000000000000000000000000000000000000000000000000 DUP2 MSTORE PUSH1 0x4 ADD PUSH2 0x116F SWAP2 SWAP1 PUSH2 0x36C5 JUMP JUMPDEST PUSH1 0x40 MLOAD DUP1 SWAP2 SUB SWAP1 REVERT JUMPDEST PUSH1 0x6 PUSH0 ADDRESS PUSH20 0xFFFFFFFFFFFFFFFFFFFFFFFFFFFFFFFFFFFFFFFF AND PUSH20 0xFFFFFFFFFFFFFFFFFFFFFFFFFFFFFFFFFFFFFFFF AND DUP2 MSTORE PUSH1 0x20 ADD SWAP1 DUP2 MSTORE PUSH1 0x20 ADD PUSH0 KECCAK256 PUSH0 ADD PUSH0 SWAP1 SLOAD SWAP1 PUSH2 0x100 EXP SWAP1 DIV PUSH1 0xFF AND ISZERO PUSH2 0x11FB JUMPI PUSH1 0x40 MLOAD PUSH32 0x853FD42100000000000000000000000000000000000000000000000000000000 DUP2 MSTORE PUSH1 0x4 ADD PUSH1 0x40 MLOAD DUP1 SWAP2 SUB SWAP1 REVERT JUMPDEST TIMESTAMP PUSH1 0x6 PUSH0 ADDRESS PUSH20 0xFFFFFFFFFFFFFFFFFFFFFFFFFFFFFFFFFFFFFFFF AND PUSH20 0xFFFFFFFFFFFFFFFFFFFFFFFFFFFFFFFFFFFFFFFF AND DUP2 MSTORE PUSH1 0x20 ADD SWAP1 DUP2 MSTORE PUSH1 0x20 ADD PUSH0 KECCAK256 PUSH1 0x1 ADD SLOAD GT ISZERO PUSH2 0x12C0 JUMPI PUSH1 0x6 PUSH0 ADDRESS PUSH20 0xFFFFFFFFFFFFFFFFFFFFFFFFFFFFFFFFFFFFFFFF AND PUSH20 0xFFFFFFFFFFFFFFFFFFFFFFFFFFFFFFFFFFFFFFFF AND DUP2 MSTORE PUSH1 0x20 ADD SWAP1 DUP2 MSTORE PUSH1 0x20 ADD PUSH0 KECCAK256 PUSH1 0x1 ADD SLOAD PUSH1 0x40 MLOAD PUSH32 0x79073E7B00000000000000000000000000000000000000000000000000000000 DUP2 MSTORE PUSH1 0x4 ADD PUSH2 0x12B7 SWAP2 SWAP1 PUSH2 0x36C5 JUMP JUMPDEST PUSH1 0x40 MLOAD DUP1 SWAP2 SUB SWAP1 REVERT JUMPDEST PUSH0 DUP1 PUSH0 SWAP1 POP JUMPDEST PUSH1 0x2 SLOAD DUP2 LT ISZERO PUSH2 0x16D1 JUMPI PUSH1 0x5 PUSH0 PUSH1 0x4 PUSH0 DUP5 DUP2 MSTORE PUSH1 0x20 ADD SWAP1 DUP2 MSTORE PUSH1 0x20 ADD PUSH0 KECCAK256 PUSH0 SWAP1 SLOAD SWAP1 PUSH2 0x100 EXP SWAP1 DIV PUSH20 0xFFFFFFFFFFFFFFFFFFFFFFFFFFFFFFFFFFFFFFFF AND PUSH20 0xFFFFFFFFFFFFFFFFFFFFFFFFFFFFFFFFFFFFFFFF AND PUSH20 0xFFFFFFFFFFFFFFFFFFFFFFFFFFFFFFFFFFFFFFFF AND DUP2 MSTORE PUSH1 0x20 ADD SWAP1 DUP2 MSTORE PUSH1 0x20 ADD PUSH0 KECCAK256 PUSH1 0x5 ADD PUSH0 DUP5 DUP2 MSTORE PUSH1 0x20 ADD SWAP1 DUP2 MSTORE PUSH1 0x20 ADD PUSH0 KECCAK256 PUSH0 SWAP1 SLOAD SWAP1 PUSH2 0x100 EXP SWAP1 DIV PUSH1 0xFF AND ISZERO PUSH2 0x16C4 JUMPI PUSH0 DUP4 EQ DUP1 ISZERO PUSH2 0x13E0 JUMPI POP PUSH0 PUSH1 0x5 PUSH0 PUSH1 0x4 PUSH0 DUP6 DUP2 MSTORE PUSH1 0x20 ADD SWAP1 DUP2 MSTORE PUSH1 0x20 ADD PUSH0 KECCAK256 PUSH0 SWAP1 SLOAD SWAP1 PUSH2 0x100 EXP SWAP1 DIV PUSH20 0xFFFFFFFFFFFFFFFFFFFFFFFFFFFFFFFFFFFFFFFF AND PUSH20 0xFFFFFFFFFFFFFFFFFFFFFFFFFFFFFFFFFFFFFFFF AND PUSH20 0xFFFFFFFFFFFFFFFFFFFFFFFFFFFFFFFFFFFFFFFF AND DUP2 MSTORE PUSH1 0x20 ADD SWAP1 DUP2 MSTORE PUSH1 0x20 ADD PUSH0 KECCAK256 PUSH1 0x1 ADD SLOAD EQ ISZERO JUMPDEST ISZERO PUSH2 0x1556 JUMPI PUSH2 0x145F PUSH1 0x5 PUSH0 PUSH1 0x4 PUSH0 DUP6 DUP2 MSTORE PUSH1 0x20 ADD SWAP1 DUP2 MSTORE PUSH1 0x20 ADD PUSH0 KECCAK256 PUSH0 SWAP1 SLOAD SWAP1 PUSH2 0x100 EXP SWAP1 DIV PUSH20 0xFFFFFFFFFFFFFFFFFFFFFFFFFFFFFFFFFFFFFFFF AND PUSH20 0xFFFFFFFFFFFFFFFFFFFFFFFFFFFFFFFFFFFFFFFF AND PUSH20 0xFFFFFFFFFFFFFFFFFFFFFFFFFFFFFFFFFFFFFFFF AND DUP2 MSTORE PUSH1 0x20 ADD SWAP1 DUP2 MSTORE PUSH1 0x20 ADD PUSH0 KECCAK256 PUSH1 0x1 ADD SLOAD DUP5 PUSH2 0x2595 JUMP JUMPDEST PUSH1 0x5 PUSH0 PUSH1 0x4 PUSH0 DUP6 DUP2 MSTORE PUSH1 0x20 ADD SWAP1 DUP2 MSTORE PUSH1 0x20 ADD PUSH0 KECCAK256 PUSH0 SWAP1 SLOAD SWAP1 PUSH2 0x100 EXP SWAP1 DIV PUSH20 0xFFFFFFFFFFFFFFFFFFFFFFFFFFFFFFFFFFFFFFFF AND PUSH20 0xFFFFFFFFFFFFFFFFFFFFFFFFFFFFFFFFFFFFFFFF AND PUSH20 0xFFFFFFFFFFFFFFFFFFFFFFFFFFFFFFFFFFFFFFFF AND DUP2 MSTORE PUSH1 0x20 ADD SWAP1 DUP2 MSTORE PUSH1 0x20 ADD PUSH0 KECCAK256 PUSH1 0x4 ADD DUP2 SWAP1 SSTORE POP PUSH1 0x5 PUSH0 PUSH1 0x4 PUSH0 DUP5 DUP2 MSTORE PUSH1 0x20 ADD SWAP1 DUP2 MSTORE PUSH1 0x20 ADD PUSH0 KECCAK256 PUSH0 SWAP1 SLOAD SWAP1 PUSH2 0x100 EXP SWAP1 DIV PUSH20 0xFFFFFFFFFFFFFFFFFFFFFFFFFFFFFFFFFFFFFFFF AND PUSH20 0xFFFFFFFFFFFFFFFFFFFFFFFFFFFFFFFFFFFFFFFF AND PUSH20 0xFFFFFFFFFFFFFFFFFFFFFFFFFFFFFFFFFFFFFFFF AND DUP2 MSTORE PUSH1 0x20 ADD SWAP1 DUP2 MSTORE PUSH1 0x20 ADD PUSH0 KECCAK256 PUSH1 0x4 ADD SLOAD DUP3 PUSH2 0x154F SWAP2 SWAP1 PUSH2 0x37D5 JUMP JUMPDEST SWAP2 POP PUSH2 0x16C3 JUMP JUMPDEST PUSH2 0x15D0 PUSH1 0x5 PUSH0 PUSH1 0x4 PUSH0 DUP6 DUP2 MSTORE PUSH1 0x20 ADD SWAP1 DUP2 MSTORE PUSH1 0x20 ADD PUSH0 KECCAK256 PUSH0 SWAP1 SLOAD SWAP1 PUSH2 0x100 EXP SWAP1 DIV PUSH20 0xFFFFFFFFFFFFFFFFFFFFFFFFFFFFFFFFFFFFFFFF AND PUSH20 0xFFFFFFFFFFFFFFFFFFFFFFFFFFFFFFFFFFFFFFFF AND PUSH20 0xFFFFFFFFFFFFFFFFFFFFFFFFFFFFFFFFFFFFFFFF AND DUP2 MSTORE PUSH1 0x20 ADD SWAP1 DUP2 MSTORE PUSH1 0x20 ADD PUSH0 KECCAK256 PUSH1 0x3 ADD SLOAD DUP5 PUSH2 0x2595 JUMP JUMPDEST PUSH1 0x5 PUSH0 PUSH1 0x4 PUSH0 DUP6 DUP2 MSTORE PUSH1 0x20 ADD SWAP1 DUP2 MSTORE PUSH1 0x20 ADD PUSH0 KECCAK256 PUSH0 SWAP1 SLOAD SWAP1 PUSH2 0x100 EXP SWAP1 DIV PUSH20 0xFFFFFFFFFFFFFFFFFFFFFFFFFFFFFFFFFFFFFFFF AND PUSH20 0xFFFFFFFFFFFFFFFFFFFFFFFFFFFFFFFFFFFFFFFF AND PUSH20 0xFFFFFFFFFFFFFFFFFFFFFFFFFFFFFFFFFFFFFFFF AND DUP2 MSTORE PUSH1 0x20 ADD SWAP1 DUP2 MSTORE PUSH1 0x20 ADD PUSH0 KECCAK256 PUSH1 0x4 ADD DUP2 SWAP1 SSTORE POP PUSH1 0x5 PUSH0 PUSH1 0x4 PUSH0 DUP5 DUP2 MSTORE PUSH1 0x20 ADD SWAP1 DUP2 MSTORE PUSH1 0x20 ADD PUSH0 KECCAK256 PUSH0 SWAP1 SLOAD SWAP1 PUSH2 0x100 EXP SWAP1 DIV PUSH20 0xFFFFFFFFFFFFFFFFFFFFFFFFFFFFFFFFFFFFFFFF AND PUSH20 0xFFFFFFFFFFFFFFFFFFFFFFFFFFFFFFFFFFFFFFFF AND PUSH20 0xFFFFFFFFFFFFFFFFFFFFFFFFFFFFFFFFFFFFFFFF AND DUP2 MSTORE PUSH1 0x20 ADD SWAP1 DUP2 MSTORE PUSH1 0x20 ADD PUSH0 KECCAK256 PUSH1 0x4 ADD SLOAD DUP3 PUSH2 0x16C0 SWAP2 SWAP1 PUSH2 0x37D5 JUMP JUMPDEST SWAP2 POP JUMPDEST JUMPDEST DUP1 DUP1 PUSH1 0x1 ADD SWAP2 POP POP PUSH2 0x12C6 JUMP JUMPDEST POP PUSH0 DUP2 PUSH1 0x6 PUSH0 ADDRESS PUSH20 0xFFFFFFFFFFFFFFFFFFFFFFFFFFFFFFFFFFFFFFFF AND PUSH20 0xFFFFFFFFFFFFFFFFFFFFFFFFFFFFFFFFFFFFFFFF AND DUP2 MSTORE PUSH1 0x20 ADD SWAP1 DUP2 MSTORE PUSH1 0x20 ADD PUSH0 KECCAK256 PUSH1 0x3 ADD SLOAD PUSH2 0x171F SWAP2 SWAP1 PUSH2 0x3876 JUMP JUMPDEST SWAP1 POP PUSH0 DUP1 PUSH0 SWAP1 POP JUMPDEST PUSH1 0x2 SLOAD DUP2 LT ISZERO PUSH2 0x1B8B JUMPI PUSH1 0x5 PUSH0 PUSH1 0x4 PUSH0 DUP5 DUP2 MSTORE PUSH1 0x20 ADD SWAP1 DUP2 MSTORE PUSH1 0x20 ADD PUSH0 KECCAK256 PUSH0 SWAP1 SLOAD SWAP1 PUSH2 0x100 EXP SWAP1 DIV PUSH20 0xFFFFFFFFFFFFFFFFFFFFFFFFFFFFFFFFFFFFFFFF AND PUSH20 0xFFFFFFFFFFFFFFFFFFFFFFFFFFFFFFFFFFFFFFFF AND PUSH20 0xFFFFFFFFFFFFFFFFFFFFFFFFFFFFFFFFFFFFFFFF AND DUP2 MSTORE PUSH1 0x20 ADD SWAP1 DUP2 MSTORE PUSH1 0x20 ADD PUSH0 KECCAK256 PUSH1 0x5 ADD PUSH0 DUP7 DUP2 MSTORE PUSH1 0x20 ADD SWAP1 DUP2 MSTORE PUSH1 0x20 ADD PUSH0 KECCAK256 PUSH0 SWAP1 SLOAD SWAP1 PUSH2 0x100 EXP SWAP1 DIV PUSH1 0xFF AND ISZERO PUSH2 0x1B7E JUMPI PUSH0 DUP4 PUSH1 0x5 PUSH0 PUSH1 0x4 PUSH0 DUP7 DUP2 MSTORE PUSH1 0x20 ADD SWAP1 DUP2 MSTORE PUSH1 0x20 ADD PUSH0 KECCAK256 PUSH0 SWAP1 SLOAD SWAP1 PUSH2 0x100 EXP SWAP1 DIV PUSH20 0xFFFFFFFFFFFFFFFFFFFFFFFFFFFFFFFFFFFFFFFF AND PUSH20 0xFFFFFFFFFFFFFFFFFFFFFFFFFFFFFFFFFFFFFFFF AND PUSH20 0xFFFFFFFFFFFFFFFFFFFFFFFFFFFFFFFFFFFFFFFF AND DUP2 MSTORE PUSH1 0x20 ADD SWAP1 DUP2 MSTORE PUSH1 0x20 ADD PUSH0 KECCAK256 PUSH1 0x4 ADD SLOAD PUSH2 0x183F SWAP2 SWAP1 PUSH2 0x3808 JUMP JUMPDEST SWAP1 POP PUSH0 PUSH1 0x5 PUSH0 PUSH1 0x4 PUSH0 DUP7 DUP2 MSTORE PUSH1 0x20 ADD SWAP1 DUP2 MSTORE PUSH1 0x20 ADD PUSH0 KECCAK256 PUSH0 SWAP1 SLOAD SWAP1 PUSH2 0x100 EXP SWAP1 DIV PUSH20 0xFFFFFFFFFFFFFFFFFFFFFFFFFFFFFFFFFFFFFFFF AND PUSH20 0xFFFFFFFFFFFFFFFFFFFFFFFFFFFFFFFFFFFFFFFF AND PUSH20 0xFFFFFFFFFFFFFFFFFFFFFFFFFFFFFFFFFFFFFFFF AND DUP2 MSTORE PUSH1 0x20 ADD SWAP1 DUP2 MSTORE PUSH1 0x20 ADD PUSH0 KECCAK256 PUSH1 0x4 ADD SLOAD DUP3 PUSH2 0x18BE SWAP2 SWAP1 PUSH2 0x38ED JUMP JUMPDEST SWAP1 POP PUSH0 PUSH2 0x18CD DUP3 PUSH1 0x3 SLOAD PUSH2 0x315F JUMP JUMPDEST SWAP1 POP DUP1 DUP6 PUSH2 0x18DB SWAP2 SWAP1 PUSH2 0x37D5 JUMP JUMPDEST SWAP5 POP DUP1 DUP4 PUSH2 0x18E9 SWAP2 SWAP1 PUSH2 0x38ED JUMP JUMPDEST PUSH1 0x1 PUSH0 SWAP1 SLOAD SWAP1 PUSH2 0x100 EXP SWAP1 DIV PUSH20 0xFFFFFFFFFFFFFFFFFFFFFFFFFFFFFFFFFFFFFFFF AND PUSH20 0xFFFFFFFFFFFFFFFFFFFFFFFFFFFFFFFFFFFFFFFF AND PUSH4 0x70A08231 ADDRESS PUSH1 0x40 MLOAD DUP3 PUSH4 0xFFFFFFFF AND PUSH1 0xE0 SHL DUP2 MSTORE PUSH1 0x4 ADD PUSH2 0x1943 SWAP2 SWAP1 PUSH2 0x33FE JUMP JUMPDEST PUSH1 0x20 PUSH1 0x40 MLOAD DUP1 DUP4 SUB DUP2 DUP7 GAS STATICCALL ISZERO DUP1 ISZERO PUSH2 0x195E JUMPI RETURNDATASIZE PUSH0 DUP1 RETURNDATACOPY RETURNDATASIZE PUSH0 REVERT JUMPDEST POP POP POP POP PUSH1 0x40 MLOAD RETURNDATASIZE PUSH1 0x1F NOT PUSH1 0x1F DUP3 ADD AND DUP3 ADD DUP1 PUSH1 0x40 MSTORE POP DUP2 ADD SWAP1 PUSH2 0x1982 SWAP2 SWAP1 PUSH2 0x3934 JUMP JUMPDEST LT ISZERO PUSH2 0x1A5D JUMPI PUSH1 0x1 PUSH0 SWAP1 SLOAD SWAP1 PUSH2 0x100 EXP SWAP1 DIV PUSH20 0xFFFFFFFFFFFFFFFFFFFFFFFFFFFFFFFFFFFFFFFF AND PUSH20 0xFFFFFFFFFFFFFFFFFFFFFFFFFFFFFFFFFFFFFFFF AND PUSH4 0x70A08231 ADDRESS PUSH1 0x40 MLOAD DUP3 PUSH4 0xFFFFFFFF AND PUSH1 0xE0 SHL DUP2 MSTORE PUSH1 0x4 ADD PUSH2 0x19E2 SWAP2 SWAP1 PUSH2 0x33FE JUMP JUMPDEST PUSH1 0x20 PUSH1 0x40 MLOAD DUP1 DUP4 SUB DUP2 DUP7 GAS STATICCALL ISZERO DUP1 ISZERO PUSH2 0x19FD JUMPI RETURNDATASIZE PUSH0 DUP1 RETURNDATACOPY RETURNDATASIZE PUSH0 REVERT JUMPDEST POP POP POP POP PUSH1 0x40 MLOAD RETURNDATASIZE PUSH1 0x1F NOT PUSH1 0x1F DUP3 ADD AND DUP3 ADD DUP1 PUSH1 0x40 MSTORE POP DUP2 ADD SWAP1 PUSH2 0x1A21 SWAP2 SWAP1 PUSH2 0x3934 JUMP JUMPDEST PUSH1 0x40 MLOAD PUSH32 0xF9AE0CB400000000000000000000000000000000000000000000000000000000 DUP2 MSTORE PUSH1 0x4 ADD PUSH2 0x1A54 SWAP2 SWAP1 PUSH2 0x36C5 JUMP JUMPDEST PUSH1 0x40 MLOAD DUP1 SWAP2 SUB SWAP1 REVERT JUMPDEST PUSH0 PUSH1 0x1 PUSH0 SWAP1 SLOAD SWAP1 PUSH2 0x100 EXP SWAP1 DIV PUSH20 0xFFFFFFFFFFFFFFFFFFFFFFFFFFFFFFFFFFFFFFFF AND PUSH20 0xFFFFFFFFFFFFFFFFFFFFFFFFFFFFFFFFFFFFFFFF AND PUSH4 0xA9059CBB PUSH1 0x4 PUSH0 DUP9 DUP2 MSTORE PUSH1 0x20 ADD SWAP1 DUP2 MSTORE PUSH1 0x20 ADD PUSH0 KECCAK256 PUSH0 SWAP1 SLOAD SWAP1 PUSH2 0x100 EXP SWAP1 DIV PUSH20 0xFFFFFFFFFFFFFFFFFFFFFFFFFFFFFFFFFFFFFFFF AND DUP5 DUP8 PUSH2 0x1AD8 SWAP2 SWAP1 PUSH2 0x38ED JUMP JUMPDEST PUSH1 0x40 MLOAD DUP4 PUSH4 0xFFFFFFFF AND PUSH1 0xE0 SHL DUP2 MSTORE PUSH1 0x4 ADD PUSH2 0x1AF5 SWAP3 SWAP2 SWAP1 PUSH2 0x395F JUMP JUMPDEST PUSH1 0x20 PUSH1 0x40 MLOAD DUP1 DUP4 SUB DUP2 PUSH0 DUP8 GAS CALL ISZERO DUP1 ISZERO PUSH2 0x1B11 JUMPI RETURNDATASIZE PUSH0 DUP1 RETURNDATACOPY RETURNDATASIZE PUSH0 REVERT JUMPDEST POP POP POP POP PUSH1 0x40 MLOAD RETURNDATASIZE PUSH1 0x1F NOT PUSH1 0x1F DUP3 ADD AND DUP3 ADD DUP1 PUSH1 0x40 MSTORE POP DUP2 ADD SWAP1 PUSH2 0x1B35 SWAP2 SWAP1 PUSH2 0x39B0 JUMP JUMPDEST SWAP1 POP DUP1 PUSH2 0x1B79 JUMPI DUP1 PUSH1 0x40 MLOAD PUSH32 0x73FD8F0600000000000000000000000000000000000000000000000000000000 DUP2 MSTORE PUSH1 0x4 ADD PUSH2 0x1B70 SWAP2 SWAP1 PUSH2 0x3499 JUMP JUMPDEST PUSH1 0x40 MLOAD DUP1 SWAP2 SUB SWAP1 REVERT JUMPDEST POP POP POP POP JUMPDEST DUP1 DUP1 PUSH1 0x1 ADD SWAP2 POP POP PUSH2 0x1727 JUMP JUMPDEST POP DUP1 PUSH1 0x1 PUSH0 SWAP1 SLOAD SWAP1 PUSH2 0x100 EXP SWAP1 DIV PUSH20 0xFFFFFFFFFFFFFFFFFFFFFFFFFFFFFFFFFFFFFFFF AND PUSH20 0xFFFFFFFFFFFFFFFFFFFFFFFFFFFFFFFFFFFFFFFF AND PUSH4 0x70A08231 ADDRESS PUSH1 0x40 MLOAD DUP3 PUSH4 0xFFFFFFFF AND PUSH1 0xE0 SHL DUP2 MSTORE PUSH1 0x4 ADD PUSH2 0x1BE7 SWAP2 SWAP1 PUSH2 0x33FE JUMP JUMPDEST PUSH1 0x20 PUSH1 0x40 MLOAD DUP1 DUP4 SUB DUP2 DUP7 GAS STATICCALL ISZERO DUP1 ISZERO PUSH2 0x1C02 JUMPI RETURNDATASIZE PUSH0 DUP1 RETURNDATACOPY RETURNDATASIZE PUSH0 REVERT JUMPDEST POP POP POP POP PUSH1 0x40 MLOAD RETURNDATASIZE PUSH1 0x1F NOT PUSH1 0x1F DUP3 ADD AND DUP3 ADD DUP1 PUSH1 0x40 MSTORE POP DUP2 ADD SWAP1 PUSH2 0x1C26 SWAP2 SWAP1 PUSH2 0x3934 JUMP JUMPDEST LT ISZERO PUSH2 0x1D01 JUMPI PUSH1 0x1 PUSH0 SWAP1 SLOAD SWAP1 PUSH2 0x100 EXP SWAP1 DIV PUSH20 0xFFFFFFFFFFFFFFFFFFFFFFFFFFFFFFFFFFFFFFFF AND PUSH20 0xFFFFFFFFFFFFFFFFFFFFFFFFFFFFFFFFFFFFFFFF AND PUSH4 0x70A08231 ADDRESS PUSH1 0x40 MLOAD DUP3 PUSH4 0xFFFFFFFF AND PUSH1 0xE0 SHL DUP2 MSTORE PUSH1 0x4 ADD PUSH2 0x1C86 SWAP2 SWAP1 PUSH2 0x33FE JUMP JUMPDEST PUSH1 0x20 PUSH1 0x40 MLOAD DUP1 DUP4 SUB DUP2 DUP7 GAS STATICCALL ISZERO DUP1 ISZERO PUSH2 0x1CA1 JUMPI RETURNDATASIZE PUSH0 DUP1 RETURNDATACOPY RETURNDATASIZE PUSH0 REVERT JUMPDEST POP POP POP POP PUSH1 0x40 MLOAD RETURNDATASIZE PUSH1 0x1F NOT PUSH1 0x1F DUP3 ADD AND DUP3 ADD DUP1 PUSH1 0x40 MSTORE POP DUP2 ADD SWAP1 PUSH2 0x1CC5 SWAP2 SWAP1 PUSH2 0x3934 JUMP JUMPDEST PUSH1 0x40 MLOAD PUSH32 0xBA9C3E4F00000000000000000000000000000000000000000000000000000000 DUP2 MSTORE PUSH1 0x4 ADD PUSH2 0x1CF8 SWAP2 SWAP1 PUSH2 0x36C5 JUMP JUMPDEST PUSH1 0x40 MLOAD DUP1 SWAP2 SUB SWAP1 REVERT JUMPDEST PUSH1 0x1 PUSH1 0x6 PUSH0 ADDRESS PUSH20 0xFFFFFFFFFFFFFFFFFFFFFFFFFFFFFFFFFFFFFFFF AND PUSH20 0xFFFFFFFFFFFFFFFFFFFFFFFFFFFFFFFFFFFFFFFF AND DUP2 MSTORE PUSH1 0x20 ADD SWAP1 DUP2 MSTORE PUSH1 0x20 ADD PUSH0 KECCAK256 PUSH0 ADD PUSH0 PUSH2 0x100 EXP DUP2 SLOAD DUP2 PUSH1 0xFF MUL NOT AND SWAP1 DUP4 ISZERO ISZERO MUL OR SWAP1 SSTORE POP PUSH0 PUSH1 0x1 PUSH0 SWAP1 SLOAD SWAP1 PUSH2 0x100 EXP SWAP1 DIV PUSH20 0xFFFFFFFFFFFFFFFFFFFFFFFFFFFFFFFFFFFFFFFF AND PUSH20 0xFFFFFFFFFFFFFFFFFFFFFFFFFFFFFFFFFFFFFFFF AND PUSH4 0xA9059CBB PUSH2 0x1D9E PUSH2 0x256E JUMP JUMPDEST DUP5 PUSH1 0x40 MLOAD DUP4 PUSH4 0xFFFFFFFF AND PUSH1 0xE0 SHL DUP2 MSTORE PUSH1 0x4 ADD PUSH2 0x1DBC SWAP3 SWAP2 SWAP1 PUSH2 0x395F JUMP JUMPDEST PUSH1 0x20 PUSH1 0x40 MLOAD DUP1 DUP4 SUB DUP2 PUSH0 DUP8 GAS CALL ISZERO DUP1 ISZERO PUSH2 0x1DD8 JUMPI RETURNDATASIZE PUSH0 DUP1 RETURNDATACOPY RETURNDATASIZE PUSH0 REVERT JUMPDEST POP POP POP POP PUSH1 0x40 MLOAD RETURNDATASIZE PUSH1 0x1F NOT PUSH1 0x1F DUP3 ADD AND DUP3 ADD DUP1 PUSH1 0x40 MSTORE POP DUP2 ADD SWAP1 PUSH2 0x1DFC SWAP2 SWAP1 PUSH2 0x39B0 JUMP JUMPDEST SWAP1 POP DUP1 PUSH2 0x1E40 JUMPI DUP1 PUSH1 0x40 MLOAD PUSH32 0x73FD8F0600000000000000000000000000000000000000000000000000000000 DUP2 MSTORE PUSH1 0x4 ADD PUSH2 0x1E37 SWAP2 SWAP1 PUSH2 0x3499 JUMP JUMPDEST PUSH1 0x40 MLOAD DUP1 SWAP2 SUB SWAP1 REVERT JUMPDEST PUSH32 0x4D21AF759C8D2F25C6246594B4CFC2EDEB2B901BC0C6E87F5E21C212A12CA1FD PUSH2 0x1E69 PUSH2 0x256E JUMP JUMPDEST DUP4 DUP6 DUP9 PUSH1 0x40 MLOAD PUSH2 0x1E7C SWAP5 SWAP4 SWAP3 SWAP2 SWAP1 PUSH2 0x39DB JUMP JUMPDEST PUSH1 0x40 MLOAD DUP1 SWAP2 SUB SWAP1 LOG1 POP POP POP POP POP JUMP JUMPDEST PUSH0 DUP2 EQ ISZERO DUP1 ISZERO PUSH2 0x1E9C JUMPI POP PUSH1 0x1 DUP2 EQ ISZERO JUMPDEST ISZERO PUSH2 0x1EDE JUMPI DUP1 PUSH1 0x40 MLOAD PUSH32 0xD7ACBE8900000000000000000000000000000000000000000000000000000000 DUP2 MSTORE PUSH1 0x4 ADD PUSH2 0x1ED5 SWAP2 SWAP1 PUSH2 0x36C5 JUMP JUMPDEST PUSH1 0x40 MLOAD DUP1 SWAP2 SUB SWAP1 REVERT JUMPDEST PUSH0 DUP3 GT PUSH2 0x1F22 JUMPI DUP2 PUSH1 0x40 MLOAD PUSH32 0x2FF4783000000000000000000000000000000000000000000000000000000000 DUP2 MSTORE PUSH1 0x4 ADD PUSH2 0x1F19 SWAP2 SWAP1 PUSH2 0x36C5 JUMP JUMPDEST PUSH1 0x40 MLOAD DUP1 SWAP2 SUB SWAP1 REVERT JUMPDEST PUSH1 0x6 PUSH0 ADDRESS PUSH20 0xFFFFFFFFFFFFFFFFFFFFFFFFFFFFFFFFFFFFFFFF AND PUSH20 0xFFFFFFFFFFFFFFFFFFFFFFFFFFFFFFFFFFFFFFFF AND DUP2 MSTORE PUSH1 0x20 ADD SWAP1 DUP2 MSTORE PUSH1 0x20 ADD PUSH0 KECCAK256 PUSH0 ADD PUSH0 SWAP1 SLOAD SWAP1 PUSH2 0x100 EXP SWAP1 DIV PUSH1 0xFF AND ISZERO PUSH2 0x1FA5 JUMPI PUSH1 0x40 MLOAD PUSH32 0x853FD42100000000000000000000000000000000000000000000000000000000 DUP2 MSTORE PUSH1 0x4 ADD PUSH1 0x40 MLOAD DUP1 SWAP2 SUB SWAP1 REVERT JUMPDEST PUSH1 0x5 PUSH0 CALLER PUSH20 0xFFFFFFFFFFFFFFFFFFFFFFFFFFFFFFFFFFFFFFFF AND PUSH20 0xFFFFFFFFFFFFFFFFFFFFFFFFFFFFFFFFFFFFFFFF AND DUP2 MSTORE PUSH1 0x20 ADD SWAP1 DUP2 MSTORE PUSH1 0x20 ADD PUSH0 KECCAK256 PUSH1 0x5 ADD PUSH0 DUP3 DUP2 MSTORE PUSH1 0x20 ADD SWAP1 DUP2 MSTORE PUSH1 0x20 ADD PUSH0 KECCAK256 PUSH0 SWAP1 SLOAD SWAP1 PUSH2 0x100 EXP SWAP1 DIV PUSH1 0xFF AND PUSH2 0x206E JUMPI CALLER PUSH1 0x4 PUSH0 PUSH1 0x2 SLOAD DUP2 MSTORE PUSH1 0x20 ADD SWAP1 DUP2 MSTORE PUSH1 0x20 ADD PUSH0 KECCAK256 PUSH0 PUSH2 0x100 EXP DUP2 SLOAD DUP2 PUSH20 0xFFFFFFFFFFFFFFFFFFFFFFFFFFFFFFFFFFFFFFFF MUL NOT AND SWAP1 DUP4 PUSH20 0xFFFFFFFFFFFFFFFFFFFFFFFFFFFFFFFFFFFFFFFF AND MUL OR SWAP1 SSTORE POP PUSH1 0x2 PUSH0 DUP2 SLOAD DUP1 SWAP3 SWAP2 SWAP1 PUSH2 0x2068 SWAP1 PUSH2 0x38A6 JUMP JUMPDEST SWAP2 SWAP1 POP SSTORE POP JUMPDEST PUSH0 DUP2 SUB PUSH2 0x2126 JUMPI DUP2 PUSH1 0x6 PUSH0 ADDRESS PUSH20 0xFFFFFFFFFFFFFFFFFFFFFFFFFFFFFFFFFFFFFFFF AND PUSH20 0xFFFFFFFFFFFFFFFFFFFFFFFFFFFFFFFFFFFFFFFF AND DUP2 MSTORE PUSH1 0x20 ADD SWAP1 DUP2 MSTORE PUSH1 0x20 ADD PUSH0 KECCAK256 PUSH1 0x7 ADD PUSH0 DUP3 DUP3 SLOAD PUSH2 0x20C4 SWAP2 SWAP1 PUSH2 0x37D5 JUMP JUMPDEST SWAP3 POP POP DUP2 SWAP1 SSTORE POP DUP2 PUSH1 0x5 PUSH0 CALLER PUSH20 0xFFFFFFFFFFFFFFFFFFFFFFFFFFFFFFFFFFFFFFFF AND PUSH20 0xFFFFFFFFFFFFFFFFFFFFFFFFFFFFFFFFFFFFFFFF AND DUP2 MSTORE PUSH1 0x20 ADD SWAP1 DUP2 MSTORE PUSH1 0x20 ADD PUSH0 KECCAK256 PUSH1 0x1 ADD PUSH0 DUP3 DUP3 SLOAD PUSH2 0x211A SWAP2 SWAP1 PUSH2 0x37D5 JUMP JUMPDEST SWAP3 POP POP DUP2 SWAP1 SSTORE POP PUSH2 0x21D3 JUMP JUMPDEST DUP2 PUSH1 0x6 PUSH0 ADDRESS PUSH20 0xFFFFFFFFFFFFFFFFFFFFFFFFFFFFFFFFFFFFFFFF AND PUSH20 0xFFFFFFFFFFFFFFFFFFFFFFFFFFFFFFFFFFFFFFFF AND DUP2 MSTORE PUSH1 0x20 ADD SWAP1 DUP2 MSTORE PUSH1 0x20 ADD PUSH0 KECCAK256 PUSH1 0x6 ADD PUSH0 DUP3 DUP3 SLOAD PUSH2 0x2175 SWAP2 SWAP1 PUSH2 0x37D5 JUMP JUMPDEST SWAP3 POP POP DUP2 SWAP1 SSTORE POP DUP2 PUSH1 0x5 PUSH0 CALLER PUSH20 0xFFFFFFFFFFFFFFFFFFFFFFFFFFFFFFFFFFFFFFFF AND PUSH20 0xFFFFFFFFFFFFFFFFFFFFFFFFFFFFFFFFFFFFFFFF AND DUP2 MSTORE PUSH1 0x20 ADD SWAP1 DUP2 MSTORE PUSH1 0x20 ADD PUSH0 KECCAK256 PUSH1 0x3 ADD PUSH0 DUP3 DUP3 SLOAD PUSH2 0x21CB SWAP2 SWAP1 PUSH2 0x37D5 JUMP JUMPDEST SWAP3 POP POP DUP2 SWAP1 SSTORE POP JUMPDEST DUP2 PUSH1 0x6 PUSH0 ADDRESS PUSH20 0xFFFFFFFFFFFFFFFFFFFFFFFFFFFFFFFFFFFFFFFF AND PUSH20 0xFFFFFFFFFFFFFFFFFFFFFFFFFFFFFFFFFFFFFFFF AND DUP2 MSTORE PUSH1 0x20 ADD SWAP1 DUP2 MSTORE PUSH1 0x20 ADD PUSH0 KECCAK256 PUSH1 0x3 ADD PUSH0 DUP3 DUP3 SLOAD PUSH2 0x2222 SWAP2 SWAP1 PUSH2 0x37D5 JUMP JUMPDEST SWAP3 POP POP DUP2 SWAP1 SSTORE POP PUSH1 0x6 PUSH0 ADDRESS PUSH20 0xFFFFFFFFFFFFFFFFFFFFFFFFFFFFFFFFFFFFFFFF AND PUSH20 0xFFFFFFFFFFFFFFFFFFFFFFFFFFFFFFFFFFFFFFFF AND DUP2 MSTORE PUSH1 0x20 ADD SWAP1 DUP2 MSTORE PUSH1 0x20 ADD PUSH0 KECCAK256 PUSH1 0x2 ADD PUSH0 DUP2 SLOAD DUP1 SWAP3 SWAP2 SWAP1 PUSH2 0x2279 SWAP1 PUSH2 0x38A6 JUMP JUMPDEST SWAP2 SWAP1 POP SSTORE POP PUSH1 0x1 PUSH1 0x5 PUSH0 CALLER PUSH20 0xFFFFFFFFFFFFFFFFFFFFFFFFFFFFFFFFFFFFFFFF AND PUSH20 0xFFFFFFFFFFFFFFFFFFFFFFFFFFFFFFFFFFFFFFFF AND DUP2 MSTORE PUSH1 0x20 ADD SWAP1 DUP2 MSTORE PUSH1 0x20 ADD PUSH0 KECCAK256 PUSH1 0x5 ADD PUSH0 DUP4 DUP2 MSTORE PUSH1 0x20 ADD SWAP1 DUP2 MSTORE PUSH1 0x20 ADD PUSH0 KECCAK256 PUSH0 PUSH2 0x100 EXP DUP2 SLOAD DUP2 PUSH1 0xFF MUL NOT AND SWAP1 DUP4 ISZERO ISZERO MUL OR SWAP1 SSTORE POP PUSH2 0x236F PUSH1 0x6 PUSH0 ADDRESS PUSH20 0xFFFFFFFFFFFFFFFFFFFFFFFFFFFFFFFFFFFFFFFF AND PUSH20 0xFFFFFFFFFFFFFFFFFFFFFFFFFFFFFFFFFFFFFFFF AND DUP2 MSTORE PUSH1 0x20 ADD SWAP1 DUP2 MSTORE PUSH1 0x20 ADD PUSH0 KECCAK256 PUSH1 0x7 ADD SLOAD PUSH1 0x6 PUSH0 ADDRESS PUSH20 0xFFFFFFFFFFFFFFFFFFFFFFFFFFFFFFFFFFFFFFFF AND PUSH20 0xFFFFFFFFFFFFFFFFFFFFFFFFFFFFFFFFFFFFFFFF AND DUP2 MSTORE PUSH1 0x20 ADD SWAP1 DUP2 MSTORE PUSH1 0x20 ADD PUSH0 KECCAK256 PUSH1 0x6 ADD SLOAD PUSH2 0x583 JUMP JUMPDEST PUSH1 0x6 PUSH0 ADDRESS PUSH20 0xFFFFFFFFFFFFFFFFFFFFFFFFFFFFFFFFFFFFFFFF AND PUSH20 0xFFFFFFFFFFFFFFFFFFFFFFFFFFFFFFFFFFFFFFFF AND DUP2 MSTORE PUSH1 0x20 ADD SWAP1 DUP2 MSTORE PUSH1 0x20 ADD PUSH0 KECCAK256 PUSH1 0x4 ADD PUSH0 PUSH1 0x2 DUP2 LT PUSH2 0x23C1 JUMPI PUSH2 0x23C0 PUSH2 0x377B JUMP JUMPDEST JUMPDEST ADD PUSH0 PUSH1 0x6 PUSH0 ADDRESS PUSH20 0xFFFFFFFFFFFFFFFFFFFFFFFFFFFFFFFFFFFFFFFF AND PUSH20 0xFFFFFFFFFFFFFFFFFFFFFFFFFFFFFFFFFFFFFFFF AND DUP2 MSTORE PUSH1 0x20 ADD SWAP1 DUP2 MSTORE PUSH1 0x20 ADD PUSH0 KECCAK256 PUSH1 0x4 ADD PUSH1 0x1 PUSH1 0x2 DUP2 LT PUSH2 0x2416 JUMPI PUSH2 0x2415 PUSH2 0x377B JUMP JUMPDEST JUMPDEST ADD PUSH0 DUP5 SWAP2 SWAP1 POP SSTORE DUP4 SWAP2 SWAP1 POP SSTORE POP POP PUSH0 PUSH1 0x1 PUSH0 SWAP1 SLOAD SWAP1 PUSH2 0x100 EXP SWAP1 DIV PUSH20 0xFFFFFFFFFFFFFFFFFFFFFFFFFFFFFFFFFFFFFFFF AND PUSH20 0xFFFFFFFFFFFFFFFFFFFFFFFFFFFFFFFFFFFFFFFF AND PUSH4 0x23B872DD CALLER ADDRESS DUP7 PUSH1 0x40 MLOAD DUP5 PUSH4 0xFFFFFFFF AND PUSH1 0xE0 SHL DUP2 MSTORE PUSH1 0x4 ADD PUSH2 0x2483 SWAP4 SWAP3 SWAP2 SWAP1 PUSH2 0x3A1E JUMP JUMPDEST PUSH1 0x20 PUSH1 0x40 MLOAD DUP1 DUP4 SUB DUP2 PUSH0 DUP8 GAS CALL ISZERO DUP1 ISZERO PUSH2 0x249F JUMPI RETURNDATASIZE PUSH0 DUP1 RETURNDATACOPY RETURNDATASIZE PUSH0 REVERT JUMPDEST POP POP POP POP PUSH1 0x40 MLOAD RETURNDATASIZE PUSH1 0x1F NOT PUSH1 0x1F DUP3 ADD AND DUP3 ADD DUP1 PUSH1 0x40 MSTORE POP DUP2 ADD SWAP1 PUSH2 0x24C3 SWAP2 SWAP1 PUSH2 0x39B0 JUMP JUMPDEST SWAP1 POP DUP1 PUSH2 0x2507 JUMPI DUP1 PUSH1 0x40 MLOAD PUSH32 0xD85D3CEF00000000000000000000000000000000000000000000000000000000 DUP2 MSTORE PUSH1 0x4 ADD PUSH2 0x24FE SWAP2 SWAP1 PUSH2 0x3499 JUMP JUMPDEST PUSH1 0x40 MLOAD DUP1 SWAP2 SUB SWAP1 REVERT JUMPDEST DUP3 CALLER PUSH20 0xFFFFFFFFFFFFFFFFFFFFFFFFFFFFFFFFFFFFFFFF AND PUSH32 0xF41B7910E085D0992D604FD470931728FD77CC8EB504D99E50E51A0A30FCFD1A DUP5 PUSH1 0x40 MLOAD PUSH2 0x254E SWAP2 SWAP1 PUSH2 0x36C5 JUMP JUMPDEST PUSH1 0x40 MLOAD DUP1 SWAP2 SUB SWAP1 LOG3 POP POP POP JUMP JUMPDEST PUSH2 0x2563 PUSH2 0x320E JUMP JUMPDEST PUSH2 0x256C PUSH0 PUSH2 0x3295 JUMP JUMPDEST JUMP JUMPDEST PUSH0 DUP1 PUSH0 SWAP1 SLOAD SWAP1 PUSH2 0x100 EXP SWAP1 DIV PUSH20 0xFFFFFFFFFFFFFFFFFFFFFFFFFFFFFFFFFFFFFFFF AND SWAP1 POP SWAP1 JUMP JUMPDEST PUSH0 DUP1 PUSH1 0x6 PUSH0 ADDRESS PUSH20 0xFFFFFFFFFFFFFFFFFFFFFFFFFFFFFFFFFFFFFFFF AND PUSH20 0xFFFFFFFFFFFFFFFFFFFFFFFFFFFFFFFFFFFFFFFF AND DUP2 MSTORE PUSH1 0x20 ADD SWAP1 DUP2 MSTORE PUSH1 0x20 ADD PUSH0 KECCAK256 PUSH1 0x4 ADD DUP4 PUSH1 0x2 DUP2 LT PUSH2 0x25E9 JUMPI PUSH2 0x25E8 PUSH2 0x377B JUMP JUMPDEST JUMPDEST ADD SLOAD SWAP1 POP PUSH0 DUP2 SUB PUSH2 0x262F JUMPI PUSH1 0x40 MLOAD PUSH32 0x8C379A000000000000000000000000000000000000000000000000000000000 DUP2 MSTORE PUSH1 0x4 ADD PUSH2 0x2626 SWAP1 PUSH2 0x3AAD JUMP JUMPDEST PUSH1 0x40 MLOAD DUP1 SWAP2 SUB SWAP1 REVERT JUMPDEST PUSH0 DUP2 PUSH1 0x64 DUP7 PUSH2 0x263E SWAP2 SWAP1 PUSH2 0x3808 JUMP JUMPDEST PUSH2 0x2648 SWAP2 SWAP1 PUSH2 0x3876 JUMP JUMPDEST SWAP1 POP DUP1 SWAP3 POP POP POP SWAP3 SWAP2 POP POP JUMP JUMPDEST PUSH1 0x3 SLOAD DUP2 JUMP JUMPDEST PUSH1 0x2 SLOAD DUP2 JUMP JUMPDEST PUSH1 0x6 PUSH1 0x20 MSTORE DUP1 PUSH0 MSTORE PUSH1 0x40 PUSH0 KECCAK256 PUSH0 SWAP2 POP SWAP1 POP DUP1 PUSH0 ADD PUSH0 SWAP1 SLOAD SWAP1 PUSH2 0x100 EXP SWAP1 DIV PUSH1 0xFF AND SWAP1 DUP1 PUSH1 0x1 ADD SLOAD SWAP1 DUP1 PUSH1 0x2 ADD SLOAD SWAP1 DUP1 PUSH1 0x3 ADD SLOAD SWAP1 DUP1 PUSH1 0x6 ADD SLOAD SWAP1 DUP1 PUSH1 0x7 ADD SLOAD SWAP1 POP DUP7 JUMP JUMPDEST PUSH2 0x26AD PUSH2 0x320E JUMP JUMPDEST PUSH0 PUSH20 0xFFFFFFFFFFFFFFFFFFFFFFFFFFFFFFFFFFFFFFFF AND DUP2 PUSH20 0xFFFFFFFFFFFFFFFFFFFFFFFFFFFFFFFFFFFFFFFF AND SUB PUSH2 0x271D JUMPI PUSH0 PUSH1 0x40 MLOAD PUSH32 0x1E4FBDF700000000000000000000000000000000000000000000000000000000 DUP2 MSTORE PUSH1 0x4 ADD PUSH2 0x2714 SWAP2 SWAP1 PUSH2 0x33FE JUMP JUMPDEST PUSH1 0x40 MLOAD DUP1 SWAP2 SUB SWAP1 REVERT JUMPDEST PUSH2 0x2726 DUP2 PUSH2 0x3295 JUMP JUMPDEST POP JUMP JUMPDEST PUSH1 0x7 PUSH0 DUP3 PUSH20 0xFFFFFFFFFFFFFFFFFFFFFFFFFFFFFFFFFFFFFFFF AND PUSH20 0xFFFFFFFFFFFFFFFFFFFFFFFFFFFFFFFFFFFFFFFF AND DUP2 MSTORE PUSH1 0x20 ADD SWAP1 DUP2 MSTORE PUSH1 0x20 ADD PUSH0 KECCAK256 PUSH0 DUP4 DUP2 MSTORE PUSH1 0x20 ADD SWAP1 DUP2 MSTORE PUSH1 0x20 ADD PUSH0 KECCAK256 PUSH0 ADD PUSH0 SWAP1 SLOAD SWAP1 PUSH2 0x100 EXP SWAP1 DIV PUSH1 0xFF AND PUSH2 0x27C5 JUMPI DUP2 PUSH1 0x40 MLOAD PUSH32 0x1599706800000000000000000000000000000000000000000000000000000000 DUP2 MSTORE PUSH1 0x4 ADD PUSH2 0x27BC SWAP2 SWAP1 PUSH2 0x36C5 JUMP JUMPDEST PUSH1 0x40 MLOAD DUP1 SWAP2 SUB SWAP1 REVERT JUMPDEST PUSH1 0x7 PUSH0 DUP3 PUSH20 0xFFFFFFFFFFFFFFFFFFFFFFFFFFFFFFFFFFFFFFFF AND PUSH20 0xFFFFFFFFFFFFFFFFFFFFFFFFFFFFFFFFFFFFFFFF AND DUP2 MSTORE PUSH1 0x20 ADD SWAP1 DUP2 MSTORE PUSH1 0x20 ADD PUSH0 KECCAK256 PUSH0 DUP4 DUP2 MSTORE PUSH1 0x20 ADD SWAP1 DUP2 MSTORE PUSH1 0x20 ADD PUSH0 KECCAK256 PUSH0 ADD PUSH1 0x1 SWAP1 SLOAD SWAP1 PUSH2 0x100 EXP SWAP1 DIV PUSH1 0xFF AND ISZERO PUSH2 0x28BE JUMPI PUSH1 0x7 PUSH0 DUP3 PUSH20 0xFFFFFFFFFFFFFFFFFFFFFFFFFFFFFFFFFFFFFFFF AND PUSH20 0xFFFFFFFFFFFFFFFFFFFFFFFFFFFFFFFFFFFFFFFF AND DUP2 MSTORE PUSH1 0x20 ADD SWAP1 DUP2 MSTORE PUSH1 0x20 ADD PUSH0 KECCAK256 PUSH0 DUP4 DUP2 MSTORE PUSH1 0x20 ADD SWAP1 DUP2 MSTORE PUSH1 0x20 ADD PUSH0 KECCAK256 PUSH0 ADD PUSH1 0x1 SWAP1 SLOAD SWAP1 PUSH2 0x100 EXP SWAP1 DIV PUSH1 0xFF AND PUSH1 0x40 MLOAD PUSH32 0xCA1C6EB300000000000000000000000000000000000000000000000000000000 DUP2 MSTORE PUSH1 0x4 ADD PUSH2 0x28B5 SWAP2 SWAP1 PUSH2 0x3499 JUMP JUMPDEST PUSH1 0x40 MLOAD DUP1 SWAP2 SUB SWAP1 REVERT JUMPDEST PUSH1 0x6 PUSH0 ADDRESS PUSH20 0xFFFFFFFFFFFFFFFFFFFFFFFFFFFFFFFFFFFFFFFF AND PUSH20 0xFFFFFFFFFFFFFFFFFFFFFFFFFFFFFFFFFFFFFFFF AND DUP2 MSTORE PUSH1 0x20 ADD SWAP1 DUP2 MSTORE PUSH1 0x20 ADD PUSH0 KECCAK256 PUSH0 ADD PUSH0 SWAP1 SLOAD SWAP1 PUSH2 0x100 EXP SWAP1 DIV PUSH1 0xFF AND ISZERO PUSH2 0x2941 JUMPI PUSH1 0x40 MLOAD PUSH32 0x853FD42100000000000000000000000000000000000000000000000000000000 DUP2 MSTORE PUSH1 0x4 ADD PUSH1 0x40 MLOAD DUP1 SWAP2 SUB SWAP1 REVERT JUMPDEST DUP1 PUSH20 0xFFFFFFFFFFFFFFFFFFFFFFFFFFFFFFFFFFFFFFFF AND PUSH1 0x7 PUSH0 DUP4 PUSH20 0xFFFFFFFFFFFFFFFFFFFFFFFFFFFFFFFFFFFFFFFF AND PUSH20 0xFFFFFFFFFFFFFFFFFFFFFFFFFFFFFFFFFFFFFFFF AND DUP2 MSTORE PUSH1 0x20 ADD SWAP1 DUP2 MSTORE PUSH1 0x20 ADD PUSH0 KECCAK256 PUSH0 DUP5 DUP2 MSTORE PUSH1 0x20 ADD SWAP1 DUP2 MSTORE PUSH1 0x20 ADD PUSH0 KECCAK256 PUSH0 ADD PUSH1 0x2 SWAP1 SLOAD SWAP1 PUSH2 0x100 EXP SWAP1 DIV PUSH20 0xFFFFFFFFFFFFFFFFFFFFFFFFFFFFFFFFFFFFFFFF AND PUSH20 0xFFFFFFFFFFFFFFFFFFFFFFFFFFFFFFFFFFFFFFFF AND EQ PUSH2 0x2A1F JUMPI DUP1 PUSH1 0x40 MLOAD PUSH32 0xF6B79C5800000000000000000000000000000000000000000000000000000000 DUP2 MSTORE PUSH1 0x4 ADD PUSH2 0x2A16 SWAP2 SWAP1 PUSH2 0x33FE JUMP JUMPDEST PUSH1 0x40 MLOAD DUP1 SWAP2 SUB SWAP1 REVERT JUMPDEST PUSH1 0x1 PUSH1 0x7 PUSH0 DUP4 PUSH20 0xFFFFFFFFFFFFFFFFFFFFFFFFFFFFFFFFFFFFFFFF AND PUSH20 0xFFFFFFFFFFFFFFFFFFFFFFFFFFFFFFFFFFFFFFFF AND DUP2 MSTORE PUSH1 0x20 ADD SWAP1 DUP2 MSTORE PUSH1 0x20 ADD PUSH0 KECCAK256 PUSH0 DUP5 DUP2 MSTORE PUSH1 0x20 ADD SWAP1 DUP2 MSTORE PUSH1 0x20 ADD PUSH0 KECCAK256 PUSH0 ADD PUSH1 0x1 PUSH2 0x100 EXP DUP2 SLOAD DUP2 PUSH1 0xFF MUL NOT AND SWAP1 DUP4 ISZERO ISZERO MUL OR SWAP1 SSTORE POP CALLER PUSH1 0x7 PUSH0 DUP4 PUSH20 0xFFFFFFFFFFFFFFFFFFFFFFFFFFFFFFFFFFFFFFFF AND PUSH20 0xFFFFFFFFFFFFFFFFFFFFFFFFFFFFFFFFFFFFFFFF AND DUP2 MSTORE PUSH1 0x20 ADD SWAP1 DUP2 MSTORE PUSH1 0x20 ADD PUSH0 KECCAK256 PUSH0 DUP5 DUP2 MSTORE PUSH1 0x20 ADD SWAP1 DUP2 MSTORE PUSH1 0x20 ADD PUSH0 KECCAK256 PUSH0 ADD PUSH1 0x2 PUSH2 0x100 EXP DUP2 SLOAD DUP2 PUSH20 0xFFFFFFFFFFFFFFFFFFFFFFFFFFFFFFFFFFFFFFFF MUL NOT AND SWAP1 DUP4 PUSH20 0xFFFFFFFFFFFFFFFFFFFFFFFFFFFFFFFFFFFFFFFF AND MUL OR SWAP1 SSTORE POP PUSH0 PUSH1 0x7 PUSH0 DUP4 PUSH20 0xFFFFFFFFFFFFFFFFFFFFFFFFFFFFFFFFFFFFFFFF AND PUSH20 0xFFFFFFFFFFFFFFFFFFFFFFFFFFFFFFFFFFFFFFFF AND DUP2 MSTORE PUSH1 0x20 ADD SWAP1 DUP2 MSTORE PUSH1 0x20 ADD PUSH0 KECCAK256 PUSH0 DUP5 DUP2 MSTORE PUSH1 0x20 ADD SWAP1 DUP2 MSTORE PUSH1 0x20 ADD PUSH0 KECCAK256 PUSH1 0x3 ADD SLOAD SUB PUSH2 0x2CB8 JUMPI PUSH1 0x7 PUSH0 DUP3 PUSH20 0xFFFFFFFFFFFFFFFFFFFFFFFFFFFFFFFFFFFFFFFF AND PUSH20 0xFFFFFFFFFFFFFFFFFFFFFFFFFFFFFFFFFFFFFFFF AND DUP2 MSTORE PUSH1 0x20 ADD SWAP1 DUP2 MSTORE PUSH1 0x20 ADD PUSH0 KECCAK256 PUSH0 DUP4 DUP2 MSTORE PUSH1 0x20 ADD SWAP1 DUP2 MSTORE PUSH1 0x20 ADD PUSH0 KECCAK256 PUSH1 0x2 ADD SLOAD PUSH1 0x5 PUSH0 CALLER PUSH20 0xFFFFFFFFFFFFFFFFFFFFFFFFFFFFFFFFFFFFFFFF AND PUSH20 0xFFFFFFFFFFFFFFFFFFFFFFFFFFFFFFFFFFFFFFFF AND DUP2 MSTORE PUSH1 0x20 ADD SWAP1 DUP2 MSTORE PUSH1 0x20 ADD PUSH0 KECCAK256 PUSH1 0x1 ADD PUSH0 DUP3 DUP3 SLOAD PUSH2 0x2C07 SWAP2 SWAP1 PUSH2 0x37D5 JUMP JUMPDEST SWAP3 POP POP DUP2 SWAP1 SSTORE POP PUSH1 0x7 PUSH0 DUP3 PUSH20 0xFFFFFFFFFFFFFFFFFFFFFFFFFFFFFFFFFFFFFFFF AND PUSH20 0xFFFFFFFFFFFFFFFFFFFFFFFFFFFFFFFFFFFFFFFF AND DUP2 MSTORE PUSH1 0x20 ADD SWAP1 DUP2 MSTORE PUSH1 0x20 ADD PUSH0 KECCAK256 PUSH0 DUP4 DUP2 MSTORE PUSH1 0x20 ADD SWAP1 DUP2 MSTORE PUSH1 0x20 ADD PUSH0 KECCAK256 PUSH1 0x2 ADD SLOAD PUSH1 0x5 PUSH0 DUP4 PUSH20 0xFFFFFFFFFFFFFFFFFFFFFFFFFFFFFFFFFFFFFFFF AND PUSH20 0xFFFFFFFFFFFFFFFFFFFFFFFFFFFFFFFFFFFFFFFF AND DUP2 MSTORE PUSH1 0x20 ADD SWAP1 DUP2 MSTORE PUSH1 0x20 ADD PUSH0 KECCAK256 PUSH1 0x1 ADD PUSH0 DUP3 DUP3 SLOAD PUSH2 0x2CAC SWAP2 SWAP1 PUSH2 0x38ED JUMP JUMPDEST SWAP3 POP POP DUP2 SWAP1 SSTORE POP PUSH2 0x2E03 JUMP JUMPDEST PUSH1 0x7 PUSH0 DUP3 PUSH20 0xFFFFFFFFFFFFFFFFFFFFFFFFFFFFFFFFFFFFFFFF AND PUSH20 0xFFFFFFFFFFFFFFFFFFFFFFFFFFFFFFFFFFFFFFFF AND DUP2 MSTORE PUSH1 0x20 ADD SWAP1 DUP2 MSTORE PUSH1 0x20 ADD PUSH0 KECCAK256 PUSH0 DUP4 DUP2 MSTORE PUSH1 0x20 ADD SWAP1 DUP2 MSTORE PUSH1 0x20 ADD PUSH0 KECCAK256 PUSH1 0x2 ADD SLOAD PUSH1 0x5 PUSH0 DUP4 PUSH20 0xFFFFFFFFFFFFFFFFFFFFFFFFFFFFFFFFFFFFFFFF AND PUSH20 0xFFFFFFFFFFFFFFFFFFFFFFFFFFFFFFFFFFFFFFFF AND DUP2 MSTORE PUSH1 0x20 ADD SWAP1 DUP2 MSTORE PUSH1 0x20 ADD PUSH0 KECCAK256 PUSH1 0x3 ADD PUSH0 DUP3 DUP3 SLOAD PUSH2 0x2D56 SWAP2 SWAP1 PUSH2 0x38ED JUMP JUMPDEST SWAP3 POP POP DUP2 SWAP1 SSTORE POP PUSH1 0x7 PUSH0 DUP3 PUSH20 0xFFFFFFFFFFFFFFFFFFFFFFFFFFFFFFFFFFFFFFFF AND PUSH20 0xFFFFFFFFFFFFFFFFFFFFFFFFFFFFFFFFFFFFFFFF AND DUP2 MSTORE PUSH1 0x20 ADD SWAP1 DUP2 MSTORE PUSH1 0x20 ADD PUSH0 KECCAK256 PUSH0 DUP4 DUP2 MSTORE PUSH1 0x20 ADD SWAP1 DUP2 MSTORE PUSH1 0x20 ADD PUSH0 KECCAK256 PUSH1 0x2 ADD SLOAD PUSH1 0x5 PUSH0 CALLER PUSH20 0xFFFFFFFFFFFFFFFFFFFFFFFFFFFFFFFFFFFFFFFF AND PUSH20 0xFFFFFFFFFFFFFFFFFFFFFFFFFFFFFFFFFFFFFFFF AND DUP2 MSTORE PUSH1 0x20 ADD SWAP1 DUP2 MSTORE PUSH1 0x20 ADD PUSH0 KECCAK256 PUSH1 0x3 ADD PUSH0 DUP3 DUP3 SLOAD PUSH2 0x2DFB SWAP2 SWAP1 PUSH2 0x37D5 JUMP JUMPDEST SWAP3 POP POP DUP2 SWAP1 SSTORE POP JUMPDEST PUSH1 0x1 PUSH1 0x5 PUSH0 CALLER PUSH20 0xFFFFFFFFFFFFFFFFFFFFFFFFFFFFFFFFFFFFFFFF AND PUSH20 0xFFFFFFFFFFFFFFFFFFFFFFFFFFFFFFFFFFFFFFFF AND DUP2 MSTORE PUSH1 0x20 ADD SWAP1 DUP2 MSTORE PUSH1 0x20 ADD PUSH0 KECCAK256 PUSH1 0x5 ADD PUSH0 PUSH1 0x7 PUSH0 DUP6 PUSH20 0xFFFFFFFFFFFFFFFFFFFFFFFFFFFFFFFFFFFFFFFF AND PUSH20 0xFFFFFFFFFFFFFFFFFFFFFFFFFFFFFFFFFFFFFFFF AND DUP2 MSTORE PUSH1 0x20 ADD SWAP1 DUP2 MSTORE PUSH1 0x20 ADD PUSH0 KECCAK256 PUSH0 DUP7 DUP2 MSTORE PUSH1 0x20 ADD SWAP1 DUP2 MSTORE PUSH1 0x20 ADD PUSH0 KECCAK256 PUSH1 0x3 ADD SLOAD DUP2 MSTORE PUSH1 0x20 ADD SWAP1 DUP2 MSTORE PUSH1 0x20 ADD PUSH0 KECCAK256 PUSH0 PUSH2 0x100 EXP DUP2 SLOAD DUP2 PUSH1 0xFF MUL NOT AND SWAP1 DUP4 ISZERO ISZERO MUL OR SWAP1 SSTORE POP CALLER PUSH1 0x4 PUSH0 PUSH1 0x2 SLOAD DUP2 MSTORE PUSH1 0x20 ADD SWAP1 DUP2 MSTORE PUSH1 0x20 ADD PUSH0 KECCAK256 PUSH0 PUSH2 0x100 EXP DUP2 SLOAD DUP2 PUSH20 0xFFFFFFFFFFFFFFFFFFFFFFFFFFFFFFFFFFFFFFFF MUL NOT AND SWAP1 DUP4 PUSH20 0xFFFFFFFFFFFFFFFFFFFFFFFFFFFFFFFFFFFFFFFF AND MUL OR SWAP1 SSTORE POP PUSH1 0x2 PUSH0 DUP2 SLOAD DUP1 SWAP3 SWAP2 SWAP1 PUSH2 0x2F1C SWAP1 PUSH2 0x38A6 JUMP JUMPDEST SWAP2 SWAP1 POP SSTORE POP PUSH0 PUSH1 0x1 PUSH0 SWAP1 SLOAD SWAP1 PUSH2 0x100 EXP SWAP1 DIV PUSH20 0xFFFFFFFFFFFFFFFFFFFFFFFFFFFFFFFFFFFFFFFF AND PUSH20 0xFFFFFFFFFFFFFFFFFFFFFFFFFFFFFFFFFFFFFFFF AND PUSH4 0x23B872DD CALLER DUP5 PUSH1 0x7 PUSH0 DUP8 PUSH20 0xFFFFFFFFFFFFFFFFFFFFFFFFFFFFFFFFFFFFFFFF AND PUSH20 0xFFFFFFFFFFFFFFFFFFFFFFFFFFFFFFFFFFFFFFFF AND DUP2 MSTORE PUSH1 0x20 ADD SWAP1 DUP2 MSTORE PUSH1 0x20 ADD PUSH0 KECCAK256 PUSH0 DUP9 DUP2 MSTORE PUSH1 0x20 ADD SWAP1 DUP2 MSTORE PUSH1 0x20 ADD PUSH0 KECCAK256 PUSH1 0x1 ADD SLOAD PUSH1 0x40 MLOAD DUP5 PUSH4 0xFFFFFFFF AND PUSH1 0xE0 SHL DUP2 MSTORE PUSH1 0x4 ADD PUSH2 0x2FCF SWAP4 SWAP3 SWAP2 SWAP1 PUSH2 0x3A1E JUMP JUMPDEST PUSH1 0x20 PUSH1 0x40 MLOAD DUP1 DUP4 SUB DUP2 PUSH0 DUP8 GAS CALL ISZERO DUP1 ISZERO PUSH2 0x2FEB JUMPI RETURNDATASIZE PUSH0 DUP1 RETURNDATACOPY RETURNDATASIZE PUSH0 REVERT JUMPDEST POP POP POP POP PUSH1 0x40 MLOAD RETURNDATASIZE PUSH1 0x1F NOT PUSH1 0x1F DUP3 ADD AND DUP3 ADD DUP1 PUSH1 0x40 MSTORE POP DUP2 ADD SWAP1 PUSH2 0x300F SWAP2 SWAP1 PUSH2 0x39B0 JUMP JUMPDEST SWAP1 POP DUP1 PUSH2 0x3053 JUMPI DUP1 PUSH1 0x40 MLOAD PUSH32 0x73FD8F0600000000000000000000000000000000000000000000000000000000 DUP2 MSTORE PUSH1 0x4 ADD PUSH2 0x304A SWAP2 SWAP1 PUSH2 0x3499 JUMP JUMPDEST PUSH1 0x40 MLOAD DUP1 SWAP2 SUB SWAP1 REVERT JUMPDEST PUSH32 0x4EF696CF4AAE43C49F3CC815F4721BA5E44E2468E6512ECCA3D4730BE569A90A CALLER DUP4 PUSH1 0x7 PUSH0 DUP7 PUSH20 0xFFFFFFFFFFFFFFFFFFFFFFFFFFFFFFFFFFFFFFFF AND PUSH20 0xFFFFFFFFFFFFFFFFFFFFFFFFFFFFFFFFFFFFFFFF AND DUP2 MSTORE PUSH1 0x20 ADD SWAP1 DUP2 MSTORE PUSH1 0x20 ADD PUSH0 KECCAK256 PUSH0 DUP8 DUP2 MSTORE PUSH1 0x20 ADD SWAP1 DUP2 MSTORE PUSH1 0x20 ADD PUSH0 KECCAK256 PUSH1 0x2 ADD SLOAD PUSH1 0x7 PUSH0 DUP8 PUSH20 0xFFFFFFFFFFFFFFFFFFFFFFFFFFFFFFFFFFFFFFFF AND PUSH20 0xFFFFFFFFFFFFFFFFFFFFFFFFFFFFFFFFFFFFFFFF AND DUP2 MSTORE PUSH1 0x20 ADD SWAP1 DUP2 MSTORE PUSH1 0x20 ADD PUSH0 KECCAK256 PUSH0 DUP9 DUP2 MSTORE PUSH1 0x20 ADD SWAP1 DUP2 MSTORE PUSH1 0x20 ADD PUSH0 KECCAK256 PUSH1 0x1 ADD SLOAD PUSH1 0x40 MLOAD PUSH2 0x3126 SWAP5 SWAP4 SWAP3 SWAP2 SWAP1 PUSH2 0x3ACB JUMP JUMPDEST PUSH1 0x40 MLOAD DUP1 SWAP2 SUB SWAP1 LOG1 POP POP POP JUMP JUMPDEST PUSH0 DUP3 DUP5 LT ISZERO PUSH2 0x3144 JUMPI DUP3 SWAP1 POP PUSH2 0x3158 JUMP JUMPDEST DUP2 DUP5 GT ISZERO PUSH2 0x3154 JUMPI DUP2 SWAP1 POP PUSH2 0x3158 JUMP JUMPDEST DUP4 SWAP1 POP JUMPDEST SWAP4 SWAP3 POP POP POP JUMP JUMPDEST PUSH0 DUP1 DUP4 GT PUSH2 0x31A4 JUMPI DUP3 PUSH1 0x40 MLOAD PUSH32 0xA55196D300000000000000000000000000000000000000000000000000000000 DUP2 MSTORE PUSH1 0x4 ADD PUSH2 0x319B SWAP2 SWAP1 PUSH2 0x36C5 JUMP JUMPDEST PUSH1 0x40 MLOAD DUP1 SWAP2 SUB SWAP1 REVERT JUMPDEST PUSH0 DUP4 GT PUSH2 0x31E8 JUMPI DUP2 PUSH1 0x40 MLOAD PUSH32 0x84857EF000000000000000000000000000000000000000000000000000000000 DUP2 MSTORE PUSH1 0x4 ADD PUSH2 0x31DF SWAP2 SWAP1 PUSH2 0x36C5 JUMP JUMPDEST PUSH1 0x40 MLOAD DUP1 SWAP2 SUB SWAP1 REVERT JUMPDEST PUSH0 PUSH2 0x2710 DUP4 DUP6 PUSH2 0x31F8 SWAP2 SWAP1 PUSH2 0x3808 JUMP JUMPDEST PUSH2 0x3202 SWAP2 SWAP1 PUSH2 0x3876 JUMP JUMPDEST SWAP1 POP DUP1 SWAP2 POP POP SWAP3 SWAP2 POP POP JUMP JUMPDEST PUSH2 0x3216 PUSH2 0x3356 JUMP JUMPDEST PUSH20 0xFFFFFFFFFFFFFFFFFFFFFFFFFFFFFFFFFFFFFFFF AND PUSH2 0x3234 PUSH2 0x256E JUMP JUMPDEST PUSH20 0xFFFFFFFFFFFFFFFFFFFFFFFFFFFFFFFFFFFFFFFF AND EQ PUSH2 0x3293 JUMPI PUSH2 0x3257 PUSH2 0x3356 JUMP JUMPDEST PUSH1 0x40 MLOAD PUSH32 0x118CDAA700000000000000000000000000000000000000000000000000000000 DUP2 MSTORE PUSH1 0x4 ADD PUSH2 0x328A SWAP2 SWAP1 PUSH2 0x33FE JUMP JUMPDEST PUSH1 0x40 MLOAD DUP1 SWAP2 SUB SWAP1 REVERT JUMPDEST JUMP JUMPDEST PUSH0 DUP1 PUSH0 SWAP1 SLOAD SWAP1 PUSH2 0x100 EXP SWAP1 DIV PUSH20 0xFFFFFFFFFFFFFFFFFFFFFFFFFFFFFFFFFFFFFFFF AND SWAP1 POP DUP2 PUSH0 DUP1 PUSH2 0x100 EXP DUP2 SLOAD DUP2 PUSH20 0xFFFFFFFFFFFFFFFFFFFFFFFFFFFFFFFFFFFFFFFF MUL NOT AND SWAP1 DUP4 PUSH20 0xFFFFFFFFFFFFFFFFFFFFFFFFFFFFFFFFFFFFFFFF AND MUL OR SWAP1 SSTORE POP DUP2 PUSH20 0xFFFFFFFFFFFFFFFFFFFFFFFFFFFFFFFFFFFFFFFF AND DUP2 PUSH20 0xFFFFFFFFFFFFFFFFFFFFFFFFFFFFFFFFFFFFFFFF AND PUSH32 0x8BE0079C531659141344CD1FD0A4F28419497F9722A3DAAFE3B4186F6B6457E0 PUSH1 0x40 MLOAD PUSH1 0x40 MLOAD DUP1 SWAP2 SUB SWAP1 LOG3 POP POP JUMP JUMPDEST PUSH0 CALLER SWAP1 POP SWAP1 JUMP JUMPDEST PUSH0 DUP1 REVERT JUMPDEST PUSH0 DUP2 SWAP1 POP SWAP2 SWAP1 POP JUMP JUMPDEST PUSH2 0x3373 DUP2 PUSH2 0x3361 JUMP JUMPDEST DUP2 EQ PUSH2 0x337D JUMPI PUSH0 DUP1 REVERT JUMPDEST POP JUMP JUMPDEST PUSH0 DUP2 CALLDATALOAD SWAP1 POP PUSH2 0x338E DUP2 PUSH2 0x336A JUMP JUMPDEST SWAP3 SWAP2 POP POP JUMP JUMPDEST PUSH0 PUSH1 0x20 DUP3 DUP5 SUB SLT ISZERO PUSH2 0x33A9 JUMPI PUSH2 0x33A8 PUSH2 0x335D JUMP JUMPDEST JUMPDEST PUSH0 PUSH2 0x33B6 DUP5 DUP3 DUP6 ADD PUSH2 0x3380 JUMP JUMPDEST SWAP2 POP POP SWAP3 SWAP2 POP POP JUMP JUMPDEST PUSH0 PUSH20 0xFFFFFFFFFFFFFFFFFFFFFFFFFFFFFFFFFFFFFFFF DUP3 AND SWAP1 POP SWAP2 SWAP1 POP JUMP JUMPDEST PUSH0 PUSH2 0x33E8 DUP3 PUSH2 0x33BF JUMP JUMPDEST SWAP1 POP SWAP2 SWAP1 POP JUMP JUMPDEST PUSH2 0x33F8 DUP2 PUSH2 0x33DE JUMP JUMPDEST DUP3 MSTORE POP POP JUMP JUMPDEST PUSH0 PUSH1 0x20 DUP3 ADD SWAP1 POP PUSH2 0x3411 PUSH0 DUP4 ADD DUP5 PUSH2 0x33EF JUMP JUMPDEST SWAP3 SWAP2 POP POP JUMP JUMPDEST PUSH2 0x3420 DUP2 PUSH2 0x33DE JUMP JUMPDEST DUP2 EQ PUSH2 0x342A JUMPI PUSH0 DUP1 REVERT JUMPDEST POP JUMP JUMPDEST PUSH0 DUP2 CALLDATALOAD SWAP1 POP PUSH2 0x343B DUP2 PUSH2 0x3417 JUMP JUMPDEST SWAP3 SWAP2 POP POP JUMP JUMPDEST PUSH0 DUP1 PUSH1 0x40 DUP4 DUP6 SUB SLT ISZERO PUSH2 0x3457 JUMPI PUSH2 0x3456 PUSH2 0x335D JUMP JUMPDEST JUMPDEST PUSH0 PUSH2 0x3464 DUP6 DUP3 DUP7 ADD PUSH2 0x342D JUMP JUMPDEST SWAP3 POP POP PUSH1 0x20 PUSH2 0x3475 DUP6 DUP3 DUP7 ADD PUSH2 0x3380 JUMP JUMPDEST SWAP2 POP POP SWAP3 POP SWAP3 SWAP1 POP JUMP JUMPDEST PUSH0 DUP2 ISZERO ISZERO SWAP1 POP SWAP2 SWAP1 POP JUMP JUMPDEST PUSH2 0x3493 DUP2 PUSH2 0x347F JUMP JUMPDEST DUP3 MSTORE POP POP JUMP JUMPDEST PUSH0 PUSH1 0x20 DUP3 ADD SWAP1 POP PUSH2 0x34AC PUSH0 DUP4 ADD DUP5 PUSH2 0x348A JUMP JUMPDEST SWAP3 SWAP2 POP POP JUMP JUMPDEST PUSH0 DUP2 SWAP1 POP SWAP2 SWAP1 POP JUMP JUMPDEST PUSH0 PUSH2 0x34D5 PUSH2 0x34D0 PUSH2 0x34CB DUP5 PUSH2 0x33BF JUMP JUMPDEST PUSH2 0x34B2 JUMP JUMPDEST PUSH2 0x33BF JUMP JUMPDEST SWAP1 POP SWAP2 SWAP1 POP JUMP JUMPDEST PUSH0 PUSH2 0x34E6 DUP3 PUSH2 0x34BB JUMP JUMPDEST SWAP1 POP SWAP2 SWAP1 POP JUMP JUMPDEST PUSH0 PUSH2 0x34F7 DUP3 PUSH2 0x34DC JUMP JUMPDEST SWAP1 POP SWAP2 SWAP1 POP JUMP JUMPDEST PUSH2 0x3507 DUP2 PUSH2 0x34ED JUMP JUMPDEST DUP3 MSTORE POP POP JUMP JUMPDEST PUSH0 PUSH1 0x20 DUP3 ADD SWAP1 POP PUSH2 0x3520 PUSH0 DUP4 ADD DUP5 PUSH2 0x34FE JUMP JUMPDEST SWAP3 SWAP2 POP POP JUMP JUMPDEST PUSH0 PUSH1 0x20 DUP3 DUP5 SUB SLT ISZERO PUSH2 0x353B JUMPI PUSH2 0x353A PUSH2 0x335D JUMP JUMPDEST JUMPDEST PUSH0 PUSH2 0x3548 DUP5 DUP3 DUP6 ADD PUSH2 0x342D JUMP JUMPDEST SWAP2 POP POP SWAP3 SWAP2 POP POP JUMP JUMPDEST PUSH2 0x355A DUP2 PUSH2 0x3361 JUMP JUMPDEST DUP3 MSTORE POP POP JUMP JUMPDEST PUSH0 PUSH1 0xA0 DUP3 ADD SWAP1 POP PUSH2 0x3573 PUSH0 DUP4 ADD DUP9 PUSH2 0x3551 JUMP JUMPDEST PUSH2 0x3580 PUSH1 0x20 DUP4 ADD DUP8 PUSH2 0x3551 JUMP JUMPDEST PUSH2 0x358D PUSH1 0x40 DUP4 ADD DUP7 PUSH2 0x3551 JUMP JUMPDEST PUSH2 0x359A PUSH1 0x60 DUP4 ADD DUP6 PUSH2 0x3551 JUMP JUMPDEST PUSH2 0x35A7 PUSH1 0x80 DUP4 ADD DUP5 PUSH2 0x3551 JUMP JUMPDEST SWAP7 SWAP6 POP POP POP POP POP POP JUMP JUMPDEST PUSH0 PUSH1 0x40 DUP3 ADD SWAP1 POP PUSH2 0x35C4 PUSH0 DUP4 ADD DUP6 PUSH2 0x3551 JUMP JUMPDEST PUSH2 0x35D1 PUSH1 0x20 DUP4 ADD DUP5 PUSH2 0x3551 JUMP JUMPDEST SWAP4 SWAP3 POP POP POP JUMP JUMPDEST PUSH0 DUP1 PUSH1 0x40 DUP4 DUP6 SUB SLT ISZERO PUSH2 0x35EE JUMPI PUSH2 0x35ED PUSH2 0x335D JUMP JUMPDEST JUMPDEST PUSH0 PUSH2 0x35FB DUP6 DUP3 DUP7 ADD PUSH2 0x3380 JUMP JUMPDEST SWAP3 POP POP PUSH1 0x20 PUSH2 0x360C DUP6 DUP3 DUP7 ADD PUSH2 0x3380 JUMP JUMPDEST SWAP2 POP POP SWAP3 POP SWAP3 SWAP1 POP JUMP JUMPDEST PUSH0 PUSH1 0xC0 DUP3 ADD SWAP1 POP PUSH2 0x3629 PUSH0 DUP4 ADD DUP10 PUSH2 0x348A JUMP JUMPDEST PUSH2 0x3636 PUSH1 0x20 DUP4 ADD DUP9 PUSH2 0x348A JUMP JUMPDEST PUSH2 0x3643 PUSH1 0x40 DUP4 ADD DUP8 PUSH2 0x33EF JUMP JUMPDEST PUSH2 0x3650 PUSH1 0x60 DUP4 ADD DUP7 PUSH2 0x3551 JUMP JUMPDEST PUSH2 0x365D PUSH1 0x80 DUP4 ADD DUP6 PUSH2 0x3551 JUMP JUMPDEST PUSH2 0x366A PUSH1 0xA0 DUP4 ADD DUP5 PUSH2 0x3551 JUMP JUMPDEST SWAP8 SWAP7 POP POP POP POP POP POP POP JUMP JUMPDEST PUSH0 DUP1 PUSH0 PUSH1 0x60 DUP5 DUP7 SUB SLT ISZERO PUSH2 0x368C JUMPI PUSH2 0x368B PUSH2 0x335D JUMP JUMPDEST JUMPDEST PUSH0 PUSH2 0x3699 DUP7 DUP3 DUP8 ADD PUSH2 0x3380 JUMP JUMPDEST SWAP4 POP POP PUSH1 0x20 PUSH2 0x36AA DUP7 DUP3 DUP8 ADD PUSH2 0x3380 JUMP JUMPDEST SWAP3 POP POP PUSH1 0x40 PUSH2 0x36BB DUP7 DUP3 DUP8 ADD PUSH2 0x3380 JUMP JUMPDEST SWAP2 POP POP SWAP3 POP SWAP3 POP SWAP3 JUMP JUMPDEST PUSH0 PUSH1 0x20 DUP3 ADD SWAP1 POP PUSH2 0x36D8 PUSH0 DUP4 ADD DUP5 PUSH2 0x3551 JUMP JUMPDEST SWAP3 SWAP2 POP POP JUMP JUMPDEST PUSH0 PUSH1 0xC0 DUP3 ADD SWAP1 POP PUSH2 0x36F1 PUSH0 DUP4 ADD DUP10 PUSH2 0x348A JUMP JUMPDEST PUSH2 0x36FE PUSH1 0x20 DUP4 ADD DUP9 PUSH2 0x3551 JUMP JUMPDEST PUSH2 0x370B PUSH1 0x40 DUP4 ADD DUP8 PUSH2 0x3551 JUMP JUMPDEST PUSH2 0x3718 PUSH1 0x60 DUP4 ADD DUP7 PUSH2 0x3551 JUMP JUMPDEST PUSH2 0x3725 PUSH1 0x80 DUP4 ADD DUP6 PUSH2 0x3551 JUMP JUMPDEST PUSH2 0x3732 PUSH1 0xA0 DUP4 ADD DUP5 PUSH2 0x3551 JUMP JUMPDEST SWAP8 SWAP7 POP POP POP POP POP POP POP JUMP JUMPDEST PUSH0 DUP1 PUSH1 0x40 DUP4 DUP6 SUB SLT ISZERO PUSH2 0x3753 JUMPI PUSH2 0x3752 PUSH2 0x335D JUMP JUMPDEST JUMPDEST PUSH0 PUSH2 0x3760 DUP6 DUP3 DUP7 ADD PUSH2 0x3380 JUMP JUMPDEST SWAP3 POP POP PUSH1 0x20 PUSH2 0x3771 DUP6 DUP3 DUP7 ADD PUSH2 0x342D JUMP JUMPDEST SWAP2 POP POP SWAP3 POP SWAP3 SWAP1 POP JUMP JUMPDEST PUSH32 0x4E487B7100000000000000000000000000000000000000000000000000000000 PUSH0 MSTORE PUSH1 0x32 PUSH1 0x4 MSTORE PUSH1 0x24 PUSH0 REVERT JUMPDEST PUSH32 0x4E487B7100000000000000000000000000000000000000000000000000000000 PUSH0 MSTORE PUSH1 0x11 PUSH1 0x4 MSTORE PUSH1 0x24 PUSH0 REVERT JUMPDEST PUSH0 PUSH2 0x37DF DUP3 PUSH2 0x3361 JUMP JUMPDEST SWAP2 POP PUSH2 0x37EA DUP4 PUSH2 0x3361 JUMP JUMPDEST SWAP3 POP DUP3 DUP3 ADD SWAP1 POP DUP1 DUP3 GT ISZERO PUSH2 0x3802 JUMPI PUSH2 0x3801 PUSH2 0x37A8 JUMP JUMPDEST JUMPDEST SWAP3 SWAP2 POP POP JUMP JUMPDEST PUSH0 PUSH2 0x3812 DUP3 PUSH2 0x3361 JUMP JUMPDEST SWAP2 POP PUSH2 0x381D DUP4 PUSH2 0x3361 JUMP JUMPDEST SWAP3 POP DUP3 DUP3 MUL PUSH2 0x382B DUP2 PUSH2 0x3361 JUMP JUMPDEST SWAP2 POP DUP3 DUP3 DIV DUP5 EQ DUP4 ISZERO OR PUSH2 0x3842 JUMPI PUSH2 0x3841 PUSH2 0x37A8 JUMP JUMPDEST JUMPDEST POP SWAP3 SWAP2 POP POP JUMP JUMPDEST PUSH32 0x4E487B7100000000000000000000000000000000000000000000000000000000 PUSH0 MSTORE PUSH1 0x12 PUSH1 0x4 MSTORE PUSH1 0x24 PUSH0 REVERT JUMPDEST PUSH0 PUSH2 0x3880 DUP3 PUSH2 0x3361 JUMP JUMPDEST SWAP2 POP PUSH2 0x388B DUP4 PUSH2 0x3361 JUMP JUMPDEST SWAP3 POP DUP3 PUSH2 0x389B JUMPI PUSH2 0x389A PUSH2 0x3849 JUMP JUMPDEST JUMPDEST DUP3 DUP3 DIV SWAP1 POP SWAP3 SWAP2 POP POP JUMP JUMPDEST PUSH0 PUSH2 0x38B0 DUP3 PUSH2 0x3361 JUMP JUMPDEST SWAP2 POP PUSH32 0xFFFFFFFFFFFFFFFFFFFFFFFFFFFFFFFFFFFFFFFFFFFFFFFFFFFFFFFFFFFFFFFF DUP3 SUB PUSH2 0x38E2 JUMPI PUSH2 0x38E1 PUSH2 0x37A8 JUMP JUMPDEST JUMPDEST PUSH1 0x1 DUP3 ADD SWAP1 POP SWAP2 SWAP1 POP JUMP JUMPDEST PUSH0 PUSH2 0x38F7 DUP3 PUSH2 0x3361 JUMP JUMPDEST SWAP2 POP PUSH2 0x3902 DUP4 PUSH2 0x3361 JUMP JUMPDEST SWAP3 POP DUP3 DUP3 SUB SWAP1 POP DUP2 DUP2 GT ISZERO PUSH2 0x391A JUMPI PUSH2 0x3919 PUSH2 0x37A8 JUMP JUMPDEST JUMPDEST SWAP3 SWAP2 POP POP JUMP JUMPDEST PUSH0 DUP2 MLOAD SWAP1 POP PUSH2 0x392E DUP2 PUSH2 0x336A JUMP JUMPDEST SWAP3 SWAP2 POP POP JUMP JUMPDEST PUSH0 PUSH1 0x20 DUP3 DUP5 SUB SLT ISZERO PUSH2 0x3949 JUMPI PUSH2 0x3948 PUSH2 0x335D JUMP JUMPDEST JUMPDEST PUSH0 PUSH2 0x3956 DUP5 DUP3 DUP6 ADD PUSH2 0x3920 JUMP JUMPDEST SWAP2 POP POP SWAP3 SWAP2 POP POP JUMP JUMPDEST PUSH0 PUSH1 0x40 DUP3 ADD SWAP1 POP PUSH2 0x3972 PUSH0 DUP4 ADD DUP6 PUSH2 0x33EF JUMP JUMPDEST PUSH2 0x397F PUSH1 0x20 DUP4 ADD DUP5 PUSH2 0x3551 JUMP JUMPDEST SWAP4 SWAP3 POP POP POP JUMP JUMPDEST PUSH2 0x398F DUP2 PUSH2 0x347F JUMP JUMPDEST DUP2 EQ PUSH2 0x3999 JUMPI PUSH0 DUP1 REVERT JUMPDEST POP JUMP JUMPDEST PUSH0 DUP2 MLOAD SWAP1 POP PUSH2 0x39AA DUP2 PUSH2 0x3986 JUMP JUMPDEST SWAP3 SWAP2 POP POP JUMP JUMPDEST PUSH0 PUSH1 0x20 DUP3 DUP5 SUB SLT ISZERO PUSH2 0x39C5 JUMPI PUSH2 0x39C4 PUSH2 0x335D JUMP JUMPDEST JUMPDEST PUSH0 PUSH2 0x39D2 DUP5 DUP3 DUP6 ADD PUSH2 0x399C JUMP JUMPDEST SWAP2 POP POP SWAP3 SWAP2 POP POP JUMP JUMPDEST PUSH0 PUSH1 0x80 DUP3 ADD SWAP1 POP PUSH2 0x39EE PUSH0 DUP4 ADD DUP8 PUSH2 0x33EF JUMP JUMPDEST PUSH2 0x39FB PUSH1 0x20 DUP4 ADD DUP7 PUSH2 0x3551 JUMP JUMPDEST PUSH2 0x3A08 PUSH1 0x40 DUP4 ADD DUP6 PUSH2 0x3551 JUMP JUMPDEST PUSH2 0x3A15 PUSH1 0x60 DUP4 ADD DUP5 PUSH2 0x3551 JUMP JUMPDEST SWAP6 SWAP5 POP POP POP POP POP JUMP JUMPDEST PUSH0 PUSH1 0x60 DUP3 ADD SWAP1 POP PUSH2 0x3A31 PUSH0 DUP4 ADD DUP7 PUSH2 0x33EF JUMP JUMPDEST PUSH2 0x3A3E PUSH1 0x20 DUP4 ADD DUP6 PUSH2 0x33EF JUMP JUMPDEST PUSH2 0x3A4B PUSH1 0x40 DUP4 ADD DUP5 PUSH2 0x3551 JUMP JUMPDEST SWAP5 SWAP4 POP POP POP POP JUMP JUMPDEST PUSH0 DUP3 DUP3 MSTORE PUSH1 0x20 DUP3 ADD SWAP1 POP SWAP3 SWAP2 POP POP JUMP JUMPDEST PUSH32 0x5F70726963652063616E6E6F74206265207A65726F0000000000000000000000 PUSH0 DUP3 ADD MSTORE POP JUMP JUMPDEST PUSH0 PUSH2 0x3A97 PUSH1 0x15 DUP4 PUSH2 0x3A53 JUMP JUMPDEST SWAP2 POP PUSH2 0x3AA2 DUP3 PUSH2 0x3A63 JUMP JUMPDEST PUSH1 0x20 DUP3 ADD SWAP1 POP SWAP2 SWAP1 POP JUMP JUMPDEST PUSH0 PUSH1 0x20 DUP3 ADD SWAP1 POP DUP2 DUP2 SUB PUSH0 DUP4 ADD MSTORE PUSH2 0x3AC4 DUP2 PUSH2 0x3A8B JUMP JUMPDEST SWAP1 POP SWAP2 SWAP1 POP JUMP JUMPDEST PUSH0 PUSH1 0x80 DUP3 ADD SWAP1 POP PUSH2 0x3ADE PUSH0 DUP4 ADD DUP8 PUSH2 0x33EF JUMP JUMPDEST PUSH2 0x3AEB PUSH1 0x20 DUP4 ADD DUP7 PUSH2 0x33EF JUMP JUMPDEST PUSH2 0x3AF8 PUSH1 0x40 DUP4 ADD DUP6 PUSH2 0x3551 JUMP JUMPDEST PUSH2 0x3B05 PUSH1 0x60 DUP4 ADD DUP5 PUSH2 0x3551 JUMP JUMPDEST SWAP6 SWAP5 POP POP POP POP POP JUMP INVALID LOG2 PUSH5 0x6970667358 0x22 SLT KECCAK256 0xD8 CODESIZE 0xB5 0xB5 POP 0xCC PUSH3 0xF002E4 0x1F DUP12 0xDF 0xAC 0xD0 EXTCODESIZE RETURN 0xD4 PUSH0 0xE7 0xE3 0x4E BLOCKHASH TIMESTAMP PUSH7 0xE4193D8D832B10 PUSH5 0x736F6C6343 STOP ADDMOD BYTE STOP CALLER "
				},
				"gasEstimates": {
					"creation": {
						"codeDepositCost": "3034400",
						"executionCost": "infinite",
						"totalCost": "infinite"
					},
					"external": {
						"PriceCalculation(uint256,uint256)": "infinite",
						"bet(uint256,uint256)": "infinite",
						"buyShare(uint256,address)": "infinite",
						"calculateShares(uint256,uint256)": "infinite",
						"eachUser(uint256)": "2851",
						"getInitialPrices()": "infinite",
						"marketInfo(address)": "infinite",
						"owner()": "2604",
						"profitPercentage()": "2447",
						"readSellInfo(address,uint256)": "infinite",
						"renounceOwnership()": "infinite",
						"resolveMarket(uint256)": "infinite",
						"sellInfo(address,uint256)": "infinite",
						"sellShare(uint256,uint256,uint256)": "infinite",
						"totalUsers()": "2469",
						"transferOwnership(address)": "infinite",
						"usdcToken()": "infinite",
						"userBetOn(address,uint256)": "3169",
						"userInfo(address)": "infinite"
					},
					"internal": {
						"calculatePercentage(uint256,uint256)": "infinite",
						"clamp(uint256,uint256,uint256)": "94"
					}
				},
				"methodIdentifiers": {
					"PriceCalculation(uint256,uint256)": "21d0d9af",
					"bet(uint256,uint256)": "6ffcc719",
					"buyShare(uint256,address)": "fbea0b06",
					"calculateShares(uint256,uint256)": "b3c740e8",
					"eachUser(uint256)": "08ef962e",
					"getInitialPrices()": "208c86a4",
					"marketInfo(address)": "c4351386",
					"owner()": "8da5cb5b",
					"profitPercentage()": "b677d9d2",
					"readSellInfo(address,uint256)": "3774ca25",
					"renounceOwnership()": "715018a6",
					"resolveMarket(uint256)": "6399d03d",
					"sellInfo(address,uint256)": "61d464ef",
					"sellShare(uint256,uint256,uint256)": "456e62ba",
					"totalUsers()": "bff1f9e1",
					"transferOwnership(address)": "f2fde38b",
					"usdcToken()": "11eac855",
					"userBetOn(address,uint256)": "0efa82f6",
					"userInfo(address)": "1959a002"
				}
			},
			"storageLayout": {
				"storage": [
					{
						"astId": 8,
						"contract": "WagersWorld/RealWager.sol:Market",
						"label": "_owner",
						"offset": 0,
						"slot": "0",
						"type": "t_address"
					},
					{
						"astId": 942,
						"contract": "WagersWorld/RealWager.sol:Market",
						"label": "usdcToken",
						"offset": 0,
						"slot": "1",
						"type": "t_contract(ERC20)799"
					},
					{
						"astId": 989,
						"contract": "WagersWorld/RealWager.sol:Market",
						"label": "totalUsers",
						"offset": 0,
						"slot": "2",
						"type": "t_uint256"
					},
					{
						"astId": 991,
						"contract": "WagersWorld/RealWager.sol:Market",
						"label": "profitPercentage",
						"offset": 0,
						"slot": "3",
						"type": "t_uint256"
					},
					{
						"astId": 995,
						"contract": "WagersWorld/RealWager.sol:Market",
						"label": "eachUser",
						"offset": 0,
						"slot": "4",
						"type": "t_mapping(t_uint256,t_address)"
					},
					{
						"astId": 1000,
						"contract": "WagersWorld/RealWager.sol:Market",
						"label": "userInfo",
						"offset": 0,
						"slot": "5",
						"type": "t_mapping(t_address,t_struct(UserInfo)974_storage)"
					},
					{
						"astId": 1005,
						"contract": "WagersWorld/RealWager.sol:Market",
						"label": "marketInfo",
						"offset": 0,
						"slot": "6",
						"type": "t_mapping(t_address,t_struct(MarketInfo)959_storage)"
					},
					{
						"astId": 1012,
						"contract": "WagersWorld/RealWager.sol:Market",
						"label": "sellInfo",
						"offset": 0,
						"slot": "7",
						"type": "t_mapping(t_address,t_mapping(t_uint256,t_struct(SellInfo)987_storage))"
					}
				],
				"types": {
					"t_address": {
						"encoding": "inplace",
						"label": "address",
						"numberOfBytes": "20"
					},
					"t_array(t_uint256)2_storage": {
						"base": "t_uint256",
						"encoding": "inplace",
						"label": "uint256[2]",
						"numberOfBytes": "64"
					},
					"t_bool": {
						"encoding": "inplace",
						"label": "bool",
						"numberOfBytes": "1"
					},
					"t_contract(ERC20)799": {
						"encoding": "inplace",
						"label": "contract ERC20",
						"numberOfBytes": "20"
					},
					"t_mapping(t_address,t_mapping(t_uint256,t_struct(SellInfo)987_storage))": {
						"encoding": "mapping",
						"key": "t_address",
						"label": "mapping(address => mapping(uint256 => struct Market.SellInfo))",
						"numberOfBytes": "32",
						"value": "t_mapping(t_uint256,t_struct(SellInfo)987_storage)"
					},
					"t_mapping(t_address,t_struct(MarketInfo)959_storage)": {
						"encoding": "mapping",
						"key": "t_address",
						"label": "mapping(address => struct Market.MarketInfo)",
						"numberOfBytes": "32",
						"value": "t_struct(MarketInfo)959_storage"
					},
					"t_mapping(t_address,t_struct(UserInfo)974_storage)": {
						"encoding": "mapping",
						"key": "t_address",
						"label": "mapping(address => struct Market.UserInfo)",
						"numberOfBytes": "32",
						"value": "t_struct(UserInfo)974_storage"
					},
					"t_mapping(t_uint256,t_address)": {
						"encoding": "mapping",
						"key": "t_uint256",
						"label": "mapping(uint256 => address)",
						"numberOfBytes": "32",
						"value": "t_address"
					},
					"t_mapping(t_uint256,t_bool)": {
						"encoding": "mapping",
						"key": "t_uint256",
						"label": "mapping(uint256 => bool)",
						"numberOfBytes": "32",
						"value": "t_bool"
					},
					"t_mapping(t_uint256,t_struct(SellInfo)987_storage)": {
						"encoding": "mapping",
						"key": "t_uint256",
						"label": "mapping(uint256 => struct Market.SellInfo)",
						"numberOfBytes": "32",
						"value": "t_struct(SellInfo)987_storage"
					},
					"t_struct(MarketInfo)959_storage": {
						"encoding": "inplace",
						"label": "struct Market.MarketInfo",
						"members": [
							{
								"astId": 944,
								"contract": "WagersWorld/RealWager.sol:Market",
								"label": "resolved",
								"offset": 0,
								"slot": "0",
								"type": "t_bool"
							},
							{
								"astId": 946,
								"contract": "WagersWorld/RealWager.sol:Market",
								"label": "endTime",
								"offset": 0,
								"slot": "1",
								"type": "t_uint256"
							},
							{
								"astId": 948,
								"contract": "WagersWorld/RealWager.sol:Market",
								"label": "totalBets",
								"offset": 0,
								"slot": "2",
								"type": "t_uint256"
							},
							{
								"astId": 950,
								"contract": "WagersWorld/RealWager.sol:Market",
								"label": "totalAmount",
								"offset": 0,
								"slot": "3",
								"type": "t_uint256"
							},
							{
								"astId": 954,
								"contract": "WagersWorld/RealWager.sol:Market",
								"label": "initialPrice",
								"offset": 0,
								"slot": "4",
								"type": "t_array(t_uint256)2_storage"
							},
							{
								"astId": 956,
								"contract": "WagersWorld/RealWager.sol:Market",
								"label": "totalBetAmountOnYes",
								"offset": 0,
								"slot": "6",
								"type": "t_uint256"
							},
							{
								"astId": 958,
								"contract": "WagersWorld/RealWager.sol:Market",
								"label": "totalBetAmountOnNo",
								"offset": 0,
								"slot": "7",
								"type": "t_uint256"
							}
						],
						"numberOfBytes": "256"
					},
					"t_struct(SellInfo)987_storage": {
						"encoding": "inplace",
						"label": "struct Market.SellInfo",
						"members": [
							{
								"astId": 976,
								"contract": "WagersWorld/RealWager.sol:Market",
								"label": "list",
								"offset": 0,
								"slot": "0",
								"type": "t_bool"
							},
							{
								"astId": 978,
								"contract": "WagersWorld/RealWager.sol:Market",
								"label": "sold",
								"offset": 1,
								"slot": "0",
								"type": "t_bool"
							},
							{
								"astId": 980,
								"contract": "WagersWorld/RealWager.sol:Market",
								"label": "owner",
								"offset": 2,
								"slot": "0",
								"type": "t_address"
							},
							{
								"astId": 982,
								"contract": "WagersWorld/RealWager.sol:Market",
								"label": "price",
								"offset": 0,
								"slot": "1",
								"type": "t_uint256"
							},
							{
								"astId": 984,
								"contract": "WagersWorld/RealWager.sol:Market",
								"label": "amount",
								"offset": 0,
								"slot": "2",
								"type": "t_uint256"
							},
							{
								"astId": 986,
								"contract": "WagersWorld/RealWager.sol:Market",
								"label": "listOn",
								"offset": 0,
								"slot": "3",
								"type": "t_uint256"
							}
						],
						"numberOfBytes": "128"
					},
					"t_struct(UserInfo)974_storage": {
						"encoding": "inplace",
						"label": "struct Market.UserInfo",
						"members": [
							{
								"astId": 961,
								"contract": "WagersWorld/RealWager.sol:Market",
								"label": "listNo",
								"offset": 0,
								"slot": "0",
								"type": "t_uint256"
							},
							{
								"astId": 963,
								"contract": "WagersWorld/RealWager.sol:Market",
								"label": "noBetAmount",
								"offset": 0,
								"slot": "1",
								"type": "t_uint256"
							},
							{
								"astId": 965,
								"contract": "WagersWorld/RealWager.sol:Market",
								"label": "rewardAmount",
								"offset": 0,
								"slot": "2",
								"type": "t_uint256"
							},
							{
								"astId": 967,
								"contract": "WagersWorld/RealWager.sol:Market",
								"label": "yesBetAmount",
								"offset": 0,
								"slot": "3",
								"type": "t_uint256"
							},
							{
								"astId": 969,
								"contract": "WagersWorld/RealWager.sol:Market",
								"label": "shareAmount",
								"offset": 0,
								"slot": "4",
								"type": "t_uint256"
							},
							{
								"astId": 973,
								"contract": "WagersWorld/RealWager.sol:Market",
								"label": "betOn",
								"offset": 0,
								"slot": "5",
								"type": "t_mapping(t_uint256,t_bool)"
							}
						],
						"numberOfBytes": "192"
					},
					"t_uint256": {
						"encoding": "inplace",
						"label": "uint256",
						"numberOfBytes": "32"
					}
				}
			},
			"userdoc": {
				"kind": "user",
				"methods": {},
				"version": 1
			}
		}
	}
}