{
	"ProfitOrg/marketPlace.sol": {
		"Marketplace": {
			"abi": [
				{
					"inputs": [],
					"stateMutability": "nonpayable",
					"type": "constructor"
				},
				{
					"inputs": [
						{
							"internalType": "address",
							"name": "target",
							"type": "address"
						}
					],
					"name": "AddressEmptyCode",
					"type": "error"
				},
				{
					"inputs": [
						{
							"internalType": "address",
							"name": "implementation",
							"type": "address"
						}
					],
					"name": "ERC1967InvalidImplementation",
					"type": "error"
				},
				{
					"inputs": [],
					"name": "ERC1967NonPayable",
					"type": "error"
				},
				{
					"inputs": [],
					"name": "FailedInnerCall",
					"type": "error"
				},
				{
					"inputs": [],
					"name": "InvalidInitialization",
					"type": "error"
				},
				{
					"inputs": [],
					"name": "NotInitializing",
					"type": "error"
				},
				{
					"inputs": [
						{
							"internalType": "address",
							"name": "owner",
							"type": "address"
						}
					],
					"name": "OwnableInvalidOwner",
					"type": "error"
				},
				{
					"inputs": [
						{
							"internalType": "address",
							"name": "account",
							"type": "address"
						}
					],
					"name": "OwnableUnauthorizedAccount",
					"type": "error"
				},
				{
					"inputs": [],
					"name": "UUPSUnauthorizedCallContext",
					"type": "error"
				},
				{
					"inputs": [
						{
							"internalType": "bytes32",
							"name": "slot",
							"type": "bytes32"
						}
					],
					"name": "UUPSUnsupportedProxiableUUID",
					"type": "error"
				},
				{
					"inputs": [
						{
							"internalType": "bool",
							"name": "claimed",
							"type": "bool"
						}
					],
					"name": "alreadyClaimed",
					"type": "error"
				},
				{
					"inputs": [
						{
							"internalType": "uint256",
							"name": "initialPrice",
							"type": "uint256"
						}
					],
					"name": "initialPriceZero",
					"type": "error"
				},
				{
					"inputs": [
						{
							"internalType": "uint256",
							"name": "fee",
							"type": "uint256"
						}
					],
					"name": "invalidFee",
					"type": "error"
				},
				{
					"inputs": [
						{
							"internalType": "uint256",
							"name": "startTime",
							"type": "uint256"
						},
						{
							"internalType": "uint256",
							"name": "endTime",
							"type": "uint256"
						}
					],
					"name": "invalidTimeStamp",
					"type": "error"
				},
				{
					"inputs": [
						{
							"internalType": "uint256",
							"name": "organizationLength",
							"type": "uint256"
						},
						{
							"internalType": "uint256",
							"name": "percentagesLength",
							"type": "uint256"
						}
					],
					"name": "lengthDontMatch",
					"type": "error"
				},
				{
					"inputs": [
						{
							"internalType": "bool",
							"name": "listed",
							"type": "bool"
						}
					],
					"name": "notListed",
					"type": "error"
				},
				{
					"inputs": [
						{
							"internalType": "bool",
							"name": "onAuction",
							"type": "bool"
						}
					],
					"name": "onAuction",
					"type": "error"
				},
				{
					"inputs": [
						{
							"internalType": "bool",
							"name": "onfixedPrice",
							"type": "bool"
						}
					],
					"name": "onFixedPrice",
					"type": "error"
				},
				{
					"inputs": [
						{
							"internalType": "address",
							"name": "owner",
							"type": "address"
						}
					],
					"name": "ownerCantBuy",
					"type": "error"
				},
				{
					"inputs": [
						{
							"internalType": "uint256",
							"name": "organizationLength",
							"type": "uint256"
						}
					],
					"name": "worngOrganizationlength",
					"type": "error"
				},
				{
					"inputs": [
						{
							"internalType": "address",
							"name": "contractAddres",
							"type": "address"
						}
					],
					"name": "wrongAddress",
					"type": "error"
				},
				{
					"inputs": [
						{
							"internalType": "uint256",
							"name": "listingid",
							"type": "uint256"
						}
					],
					"name": "wrongListingId",
					"type": "error"
				},
				{
					"inputs": [
						{
							"internalType": "uint256",
							"name": "noOfcopies",
							"type": "uint256"
						}
					],
					"name": "wrongNoOfCopies",
					"type": "error"
				},
				{
					"inputs": [
						{
							"internalType": "uint256",
							"name": "wrongId",
							"type": "uint256"
						}
					],
					"name": "wrongTokenId",
					"type": "error"
				},
				{
					"anonymous": false,
					"inputs": [
						{
							"indexed": false,
							"internalType": "address",
							"name": "_currentBidder",
							"type": "address"
						},
						{
							"indexed": false,
							"internalType": "uint256",
							"name": "_bidAmount",
							"type": "uint256"
						},
						{
							"indexed": false,
							"internalType": "uint256",
							"name": "_previousBidAmount",
							"type": "uint256"
						}
					],
					"name": "Bided",
					"type": "event"
				},
				{
					"anonymous": false,
					"inputs": [
						{
							"indexed": false,
							"internalType": "address",
							"name": "_listerAddress",
							"type": "address"
						},
						{
							"indexed": false,
							"internalType": "uint256",
							"name": "_listingID",
							"type": "uint256"
						},
						{
							"indexed": false,
							"internalType": "bool",
							"name": "_isListed",
							"type": "bool"
						}
					],
					"name": "CancelList",
					"type": "event"
				},
				{
					"anonymous": false,
					"inputs": [
						{
							"indexed": false,
							"internalType": "uint256",
							"name": "_initialPrice",
							"type": "uint256"
						},
						{
							"indexed": false,
							"internalType": "uint256",
							"name": "_listStartTime",
							"type": "uint256"
						},
						{
							"indexed": false,
							"internalType": "uint256",
							"name": "_listEndTime",
							"type": "uint256"
						}
					],
					"name": "Edited",
					"type": "event"
				},
				{
					"anonymous": false,
					"inputs": [
						{
							"indexed": false,
							"internalType": "uint256",
							"name": "fiscalFee",
							"type": "uint256"
						},
						{
							"indexed": false,
							"internalType": "uint256",
							"name": "royaltyFee",
							"type": "uint256"
						},
						{
							"indexed": true,
							"internalType": "uint256",
							"name": "serviceFee",
							"type": "uint256"
						},
						{
							"indexed": true,
							"internalType": "uint256",
							"name": "donationFee",
							"type": "uint256"
						},
						{
							"indexed": true,
							"internalType": "uint256",
							"name": "amountSendToSeller",
							"type": "uint256"
						}
					],
					"name": "FeeInfo",
					"type": "event"
				},
				{
					"anonymous": false,
					"inputs": [
						{
							"indexed": false,
							"internalType": "uint64",
							"name": "version",
							"type": "uint64"
						}
					],
					"name": "Initialized",
					"type": "event"
				},
				{
					"anonymous": false,
					"inputs": [
						{
							"indexed": false,
							"internalType": "uint256",
							"name": "_listId",
							"type": "uint256"
						},
						{
							"indexed": false,
							"internalType": "uint256",
							"name": "_tokenId",
							"type": "uint256"
						},
						{
							"indexed": false,
							"internalType": "uint256",
							"name": "_noOfCopies",
							"type": "uint256"
						},
						{
							"indexed": false,
							"internalType": "uint256",
							"name": "_initialPrices",
							"type": "uint256"
						}
					],
					"name": "Listed",
					"type": "event"
				},
				{
					"anonymous": false,
					"inputs": [
						{
							"indexed": true,
							"internalType": "address",
							"name": "previousOwner",
							"type": "address"
						},
						{
							"indexed": true,
							"internalType": "address",
							"name": "newOwner",
							"type": "address"
						}
					],
					"name": "OwnershipTransferred",
					"type": "event"
				},
				{
					"anonymous": false,
					"inputs": [
						{
							"indexed": false,
							"internalType": "address",
							"name": "fiscalAddress",
							"type": "address"
						},
						{
							"indexed": false,
							"internalType": "uint256",
							"name": "feePercentage",
							"type": "uint256"
						}
					],
					"name": "SetFiscalFee",
					"type": "event"
				},
				{
					"anonymous": false,
					"inputs": [
						{
							"indexed": false,
							"internalType": "address",
							"name": "_from",
							"type": "address"
						},
						{
							"indexed": true,
							"internalType": "uint256",
							"name": "_tokenId",
							"type": "uint256"
						},
						{
							"indexed": true,
							"internalType": "address",
							"name": "_nftAddress",
							"type": "address"
						},
						{
							"indexed": false,
							"internalType": "address",
							"name": "_to",
							"type": "address"
						},
						{
							"indexed": false,
							"internalType": "uint256",
							"name": "_noOfCopirs",
							"type": "uint256"
						}
					],
					"name": "SoldNft",
					"type": "event"
				},
				{
					"anonymous": false,
					"inputs": [
						{
							"indexed": true,
							"internalType": "address",
							"name": "implementation",
							"type": "address"
						}
					],
					"name": "Upgraded",
					"type": "event"
				},
				{
					"anonymous": false,
					"inputs": [
						{
							"indexed": false,
							"internalType": "uint256",
							"name": "_serviceFeePercentage",
							"type": "uint256"
						},
						{
							"indexed": false,
							"internalType": "address",
							"name": "_owner",
							"type": "address"
						}
					],
					"name": "plateFarmFeePercentage",
					"type": "event"
				},
				{
					"inputs": [
						{
							"internalType": "uint256",
							"name": "_listId",
							"type": "uint256"
						}
					],
					"name": "BuyFixedPriceItem",
					"outputs": [],
					"stateMutability": "payable",
					"type": "function"
				},
				{
					"inputs": [],
					"name": "UPGRADE_INTERFACE_VERSION",
					"outputs": [
						{
							"internalType": "string",
							"name": "",
							"type": "string"
						}
					],
					"stateMutability": "view",
					"type": "function"
				},
				{
					"inputs": [],
					"name": "adminFeePercentage",
					"outputs": [
						{
							"internalType": "uint256",
							"name": "",
							"type": "uint256"
						}
					],
					"stateMutability": "view",
					"type": "function"
				},
				{
					"inputs": [
						{
							"internalType": "address",
							"name": "",
							"type": "address"
						}
					],
					"name": "defaultFiscalFee",
					"outputs": [
						{
							"internalType": "uint256",
							"name": "",
							"type": "uint256"
						}
					],
					"stateMutability": "view",
					"type": "function"
				},
				{
					"inputs": [
						{
							"internalType": "uint256",
							"name": "",
							"type": "uint256"
						}
					],
					"name": "donationInfo",
					"outputs": [
						{
							"internalType": "uint256",
							"name": "noOfOrgazisations",
							"type": "uint256"
						}
					],
					"stateMutability": "view",
					"type": "function"
				},
				{
					"inputs": [
						{
							"internalType": "uint256",
							"name": "_listId",
							"type": "uint256"
						},
						{
							"internalType": "uint256",
							"name": "_initialPrice",
							"type": "uint256"
						},
						{
							"internalType": "uint256",
							"name": "_listStartTime",
							"type": "uint256"
						},
						{
							"internalType": "uint256",
							"name": "_listEndTime",
							"type": "uint256"
						},
						{
							"internalType": "uint256",
							"name": "_serviceFee",
							"type": "uint256"
						}
					],
					"name": "editList",
					"outputs": [],
					"stateMutability": "nonpayable",
					"type": "function"
				},
				{
					"inputs": [
						{
							"internalType": "uint256",
							"name": "_listId",
							"type": "uint256"
						}
					],
					"name": "endAuction",
					"outputs": [],
					"stateMutability": "nonpayable",
					"type": "function"
				},
				{
					"inputs": [
						{
							"internalType": "address",
							"name": "_mintingContract",
							"type": "address"
						},
						{
							"internalType": "address",
							"name": "_ownerAddress",
							"type": "address"
						}
					],
					"name": "initialize",
					"outputs": [],
					"stateMutability": "nonpayable",
					"type": "function"
				},
				{
					"inputs": [
						{
							"internalType": "uint256",
							"name": "_initialPrice",
							"type": "uint256"
						},
						{
							"internalType": "uint256",
							"name": "_listStartTime",
							"type": "uint256"
						},
						{
							"internalType": "uint256",
							"name": "_listEndTime",
							"type": "uint256"
						},
						{
							"internalType": "uint256",
							"name": "_tokenId",
							"type": "uint256"
						},
						{
							"internalType": "uint256",
							"name": "_noOfCopies",
							"type": "uint256"
						},
						{
							"internalType": "address",
							"name": "_nftAddress",
							"type": "address"
						},
						{
							"internalType": "uint256",
							"name": "_serviceFee",
							"type": "uint256"
						},
						{
							"internalType": "address",
							"name": "_fiscalSponsor",
							"type": "address"
						}
					],
					"name": "listForOrganizations",
					"outputs": [],
					"stateMutability": "nonpayable",
					"type": "function"
				},
				{
					"inputs": [
						{
							"internalType": "uint256",
							"name": "_initialPrice",
							"type": "uint256"
						},
						{
							"internalType": "uint256",
							"name": "_listStartTime",
							"type": "uint256"
						},
						{
							"internalType": "uint256",
							"name": "_listEndTime",
							"type": "uint256"
						},
						{
							"internalType": "uint256",
							"name": "_tokenId",
							"type": "uint256"
						},
						{
							"internalType": "uint256",
							"name": "_noOfCopies",
							"type": "uint256"
						},
						{
							"internalType": "uint256",
							"name": "_serviceFee",
							"type": "uint256"
						},
						{
							"internalType": "address",
							"name": "_nftAddress",
							"type": "address"
						},
						{
							"internalType": "address[]",
							"name": "_organizations",
							"type": "address[]"
						},
						{
							"internalType": "uint256[]",
							"name": "_donatePercentages",
							"type": "uint256[]"
						}
					],
					"name": "listForUsers",
					"outputs": [],
					"stateMutability": "nonpayable",
					"type": "function"
				},
				{
					"inputs": [],
					"name": "listId",
					"outputs": [
						{
							"internalType": "uint256",
							"name": "",
							"type": "uint256"
						}
					],
					"stateMutability": "view",
					"type": "function"
				},
				{
					"inputs": [
						{
							"internalType": "uint256",
							"name": "",
							"type": "uint256"
						}
					],
					"name": "listing",
					"outputs": [
						{
							"internalType": "bool",
							"name": "listed",
							"type": "bool"
						},
						{
							"internalType": "bool",
							"name": "nftClaimed",
							"type": "bool"
						},
						{
							"internalType": "bool",
							"name": "fixedPrice",
							"type": "bool"
						},
						{
							"internalType": "uint256",
							"name": "serviceFeePercentage",
							"type": "uint256"
						},
						{
							"internalType": "uint256",
							"name": "price",
							"type": "uint256"
						},
						{
							"internalType": "uint256",
							"name": "tokenId",
							"type": "uint256"
						},
						{
							"internalType": "uint256",
							"name": "noOfCopies",
							"type": "uint256"
						},
						{
							"internalType": "address",
							"name": "nftOwner",
							"type": "address"
						},
						{
							"internalType": "address",
							"name": "newOwner",
							"type": "address"
						},
						{
							"internalType": "address",
							"name": "nftAddress",
							"type": "address"
						},
						{
							"internalType": "uint256",
							"name": "listingEndTime",
							"type": "uint256"
						},
						{
							"internalType": "uint256",
							"name": "listingStartTime",
							"type": "uint256"
						}
					],
					"stateMutability": "view",
					"type": "function"
				},
				{
					"inputs": [],
					"name": "mintingContract",
					"outputs": [
						{
							"internalType": "contract MintingContract",
							"name": "",
							"type": "address"
						}
					],
					"stateMutability": "view",
					"type": "function"
				},
				{
					"inputs": [],
					"name": "mintingContractAddress",
					"outputs": [
						{
							"internalType": "address",
							"name": "",
							"type": "address"
						}
					],
					"stateMutability": "view",
					"type": "function"
				},
				{
					"inputs": [
						{
							"internalType": "address",
							"name": "",
							"type": "address"
						},
						{
							"internalType": "address",
							"name": "",
							"type": "address"
						},
						{
							"internalType": "uint256[]",
							"name": "",
							"type": "uint256[]"
						},
						{
							"internalType": "uint256[]",
							"name": "",
							"type": "uint256[]"
						},
						{
							"internalType": "bytes",
							"name": "",
							"type": "bytes"
						}
					],
					"name": "onERC1155BatchReceived",
					"outputs": [
						{
							"internalType": "bytes4",
							"name": "",
							"type": "bytes4"
						}
					],
					"stateMutability": "nonpayable",
					"type": "function"
				},
				{
					"inputs": [
						{
							"internalType": "address",
							"name": "",
							"type": "address"
						},
						{
							"internalType": "address",
							"name": "",
							"type": "address"
						},
						{
							"internalType": "uint256",
							"name": "",
							"type": "uint256"
						},
						{
							"internalType": "uint256",
							"name": "",
							"type": "uint256"
						},
						{
							"internalType": "bytes",
							"name": "",
							"type": "bytes"
						}
					],
					"name": "onERC1155Received",
					"outputs": [
						{
							"internalType": "bytes4",
							"name": "",
							"type": "bytes4"
						}
					],
					"stateMutability": "nonpayable",
					"type": "function"
				},
				{
					"inputs": [],
					"name": "owner",
					"outputs": [
						{
							"internalType": "address",
							"name": "",
							"type": "address"
						}
					],
					"stateMutability": "view",
					"type": "function"
				},
				{
					"inputs": [],
					"name": "proxiableUUID",
					"outputs": [
						{
							"internalType": "bytes32",
							"name": "",
							"type": "bytes32"
						}
					],
					"stateMutability": "view",
					"type": "function"
				},
				{
					"inputs": [],
					"name": "renounceOwnership",
					"outputs": [],
					"stateMutability": "nonpayable",
					"type": "function"
				},
				{
					"inputs": [
						{
							"internalType": "uint256",
							"name": "_fiscalSponsorPercentage",
							"type": "uint256"
						}
					],
					"name": "setFiscalSponsorPercentage",
					"outputs": [],
					"stateMutability": "nonpayable",
					"type": "function"
				},
				{
					"inputs": [
						{
							"internalType": "uint256",
							"name": "_serviceFeePercentage",
							"type": "uint256"
						}
					],
					"name": "setPlatFormServiceFeePercentage",
					"outputs": [],
					"stateMutability": "nonpayable",
					"type": "function"
				},
				{
					"inputs": [
						{
							"internalType": "uint256",
							"name": "_listId",
							"type": "uint256"
						}
					],
					"name": "startBid",
					"outputs": [],
					"stateMutability": "payable",
					"type": "function"
				},
				{
					"inputs": [
						{
							"internalType": "bytes4",
							"name": "interfaceId",
							"type": "bytes4"
						}
					],
					"name": "supportsInterface",
					"outputs": [
						{
							"internalType": "bool",
							"name": "",
							"type": "bool"
						}
					],
					"stateMutability": "view",
					"type": "function"
				},
				{
					"inputs": [
						{
							"internalType": "address",
							"name": "newOwner",
							"type": "address"
						}
					],
					"name": "transferOwnership",
					"outputs": [],
					"stateMutability": "nonpayable",
					"type": "function"
				},
				{
					"inputs": [
						{
							"internalType": "address",
							"name": "newImplementation",
							"type": "address"
						},
						{
							"internalType": "bytes",
							"name": "data",
							"type": "bytes"
						}
					],
					"name": "upgradeToAndCall",
					"outputs": [],
					"stateMutability": "payable",
					"type": "function"
				}
			],
			"devdoc": {
				"errors": {
					"AddressEmptyCode(address)": [
						{
							"details": "There's no code at `target` (it is not a contract)."
						}
					],
					"ERC1967InvalidImplementation(address)": [
						{
							"details": "The `implementation` of the proxy is invalid."
						}
					],
					"ERC1967NonPayable()": [
						{
							"details": "An upgrade function sees `msg.value > 0` that may be lost."
						}
					],
					"FailedInnerCall()": [
						{
							"details": "A call to an address target failed. The target may have reverted."
						}
					],
					"InvalidInitialization()": [
						{
							"details": "The contract is already initialized."
						}
					],
					"NotInitializing()": [
						{
							"details": "The contract is not initializing."
						}
					],
					"OwnableInvalidOwner(address)": [
						{
							"details": "The owner is not a valid owner account. (eg. `address(0)`)"
						}
					],
					"OwnableUnauthorizedAccount(address)": [
						{
							"details": "The caller account is not authorized to perform an operation."
						}
					],
					"UUPSUnauthorizedCallContext()": [
						{
							"details": "The call is from an unauthorized context."
						}
					],
					"UUPSUnsupportedProxiableUUID(bytes32)": [
						{
							"details": "The storage `slot` is unsupported as a UUID."
						}
					]
				},
				"events": {
					"Initialized(uint64)": {
						"details": "Triggered when the contract has been initialized or reinitialized."
					},
					"Upgraded(address)": {
						"details": "Emitted when the implementation is upgraded."
					}
				},
				"kind": "dev",
				"methods": {
					"constructor": {
						"custom:oz-upgrades-unsafe-allow": "constructor"
					},
					"owner()": {
						"details": "Returns the address of the current owner."
					},
					"proxiableUUID()": {
						"details": "Implementation of the ERC1822 {proxiableUUID} function. This returns the storage slot used by the implementation. It is used to validate the implementation's compatibility when performing an upgrade. IMPORTANT: A proxy pointing at a proxiable contract should not be considered proxiable itself, because this risks bricking a proxy that upgrades to it, by delegating to itself until out of gas. Thus it is critical that this function revert if invoked through a proxy. This is guaranteed by the `notDelegated` modifier."
					},
					"renounceOwnership()": {
						"details": "Leaves the contract without owner. It will not be possible to call `onlyOwner` functions. Can only be called by the current owner. NOTE: Renouncing ownership will leave the contract without an owner, thereby disabling any functionality that is only available to the owner."
					},
					"supportsInterface(bytes4)": {
						"details": "See {IERC165-supportsInterface}."
					},
					"transferOwnership(address)": {
						"details": "Transfers ownership of the contract to a new account (`newOwner`). Can only be called by the current owner."
					},
					"upgradeToAndCall(address,bytes)": {
						"custom:oz-upgrades-unsafe-allow-reachable": "delegatecall",
						"details": "Upgrade the implementation of the proxy to `newImplementation`, and subsequently execute the function call encoded in `data`. Calls {_authorizeUpgrade}. Emits an {Upgraded} event."
					}
				},
				"version": 1
			},
			"evm": {
				"assembly": "    /* \"ProfitOrg/marketPlace.sol\":705:22509  contract Marketplace is ... */\n  mstore(0x40, 0xa0)\n    /* \"@openzeppelin/contracts-upgradeable/proxy/utils/UUPSUpgradeable.sol\":1171:1175  this */\n  address\n    /* \"@openzeppelin/contracts-upgradeable/proxy/utils/UUPSUpgradeable.sol\":1128:1176  address private immutable __self = address(this) */\n  0x80\n  mstore\n    /* \"ProfitOrg/marketPlace.sol\":1048:1101  constructor() {... */\n  callvalue\n  dup1\n  iszero\n  tag_1\n  jumpi\n  0x00\n  dup1\n  revert\ntag_1:\n  pop\n    /* \"ProfitOrg/marketPlace.sol\":1072:1094  _disableInitializers() */\n  tag_4\n    /* \"ProfitOrg/marketPlace.sol\":1072:1092  _disableInitializers */\n  tag_5\n    /* \"ProfitOrg/marketPlace.sol\":1072:1094  _disableInitializers() */\n  jump\t// in\ntag_4:\n    /* \"ProfitOrg/marketPlace.sol\":705:22509  contract Marketplace is ... */\n  jump(tag_15)\n    /* \"@openzeppelin/contracts-upgradeable/proxy/utils/Initializable.sol\":7711:8133  function _disableInitializers() internal virtual {... */\ntag_5:\n    /* \"@openzeppelin/contracts-upgradeable/proxy/utils/Initializable.sol\":8870:8891  INITIALIZABLE_STORAGE */\n  0xf0c57e16840df040f15088dc2f81fe391c3923bec73e23a9662efc9c229c6a00\n    /* \"@openzeppelin/contracts-upgradeable/proxy/utils/Initializable.sol\":7900:7915  $._initializing */\n  dup1\n  sload\n  0x010000000000000000\n  swap1\n  div\n  0xff\n  and\n    /* \"@openzeppelin/contracts-upgradeable/proxy/utils/Initializable.sol\":7896:7972  if ($._initializing) {... */\n  iszero\n  tag_10\n  jumpi\n    /* \"@openzeppelin/contracts-upgradeable/proxy/utils/Initializable.sol\":7938:7961  InvalidInitialization() */\n  mload(0x40)\n  shl(0xe0, 0xf92ee8a9)\n  dup2\n  mstore\n  0x04\n  add\n  mload(0x40)\n  dup1\n  swap2\n  sub\n  swap1\n  revert\n    /* \"@openzeppelin/contracts-upgradeable/proxy/utils/Initializable.sol\":7896:7972  if ($._initializing) {... */\ntag_10:\n    /* \"@openzeppelin/contracts-upgradeable/proxy/utils/Initializable.sol\":7985:7999  $._initialized */\n  dup1\n  sload\n  sub(shl(0x40, 0x01), 0x01)\n  swap1\n  dup2\n  and\n    /* \"@openzeppelin/contracts-upgradeable/proxy/utils/Initializable.sol\":7985:8019  $._initialized != type(uint64).max */\n  eq\n    /* \"@openzeppelin/contracts-upgradeable/proxy/utils/Initializable.sol\":7981:8127  if ($._initialized != type(uint64).max) {... */\n  tag_11\n  jumpi\n    /* \"@openzeppelin/contracts-upgradeable/proxy/utils/Initializable.sol\":8035:8068  $._initialized = type(uint64).max */\n  dup1\n  sload\n  not(sub(shl(0x40, 0x01), 0x01))\n  and\n  sub(shl(0x40, 0x01), 0x01)\n  swap1\n  dup2\n  or\n  dup3\n  sstore\n    /* \"@openzeppelin/contracts-upgradeable/proxy/utils/Initializable.sol\":8087:8116  Initialized(type(uint64).max) */\n  mload(0x40)\n    /* \"#utility.yul\":158:208   */\n  swap1\n  dup2\n  mstore\n    /* \"@openzeppelin/contracts-upgradeable/proxy/utils/Initializable.sol\":8087:8116  Initialized(type(uint64).max) */\n  0xc7f505b2f371ae2175ee4913f4499e1f2633a7b5936321eed1cdaeb6115181d2\n  swap1\n    /* \"#utility.yul\":146:148   */\n  0x20\n    /* \"#utility.yul\":131:149   */\n  add\n    /* \"@openzeppelin/contracts-upgradeable/proxy/utils/Initializable.sol\":8087:8116  Initialized(type(uint64).max) */\n  mload(0x40)\n  dup1\n  swap2\n  sub\n  swap1\n  log1\n    /* \"@openzeppelin/contracts-upgradeable/proxy/utils/Initializable.sol\":7981:8127  if ($._initialized != type(uint64).max) {... */\ntag_11:\n    /* \"@openzeppelin/contracts-upgradeable/proxy/utils/Initializable.sol\":7760:8133  {... */\n  pop\n    /* \"@openzeppelin/contracts-upgradeable/proxy/utils/Initializable.sol\":7711:8133  function _disableInitializers() internal virtual {... */\n  jump\t// out\n    /* \"#utility.yul\":14:214   */\ntag_15:\n    /* \"ProfitOrg/marketPlace.sol\":705:22509  contract Marketplace is ... */\n  mload(0x80)\n  codecopy(0x00, dataOffset(sub_0), dataSize(sub_0))\n  0x00\n  assignImmutable(\"0x0b83f23a4eeb8c3f5f7d5934a2289bcf0186d09a12e1b7f20adf54e4b179db15\")\n  return(0x00, dataSize(sub_0))\nstop\n\nsub_0: assembly {\n        /* \"ProfitOrg/marketPlace.sol\":705:22509  contract Marketplace is ... */\n      mstore(0x40, 0x80)\n      jumpi(tag_1, lt(calldatasize, 0x04))\n      shr(0xe0, calldataload(0x00))\n      dup1\n      0x831490f9\n      gt\n      tag_27\n      jumpi\n      dup1\n      0xbc197c81\n      gt\n      tag_28\n      jumpi\n      dup1\n      0xe30ec386\n      gt\n      tag_29\n      jumpi\n      dup1\n      0xe30ec386\n      eq\n      tag_23\n      jumpi\n      dup1\n      0xeafa4039\n      eq\n      tag_24\n      jumpi\n      dup1\n      0xf23a6e61\n      eq\n      tag_25\n      jumpi\n      dup1\n      0xf2fde38b\n      eq\n      tag_26\n      jumpi\n      0x00\n      dup1\n      revert\n    tag_29:\n      dup1\n      0xbc197c81\n      eq\n      tag_20\n      jumpi\n      dup1\n      0xbea7d6e9\n      eq\n      tag_21\n      jumpi\n      dup1\n      0xd2f6f67d\n      eq\n      tag_22\n      jumpi\n      0x00\n      dup1\n      revert\n    tag_28:\n      dup1\n      0x831490f9\n      eq\n      tag_14\n      jumpi\n      dup1\n      0x84a184de\n      eq\n      tag_15\n      jumpi\n      dup1\n      0x8da5cb5b\n      eq\n      tag_16\n      jumpi\n      dup1\n      0x9e898e58\n      eq\n      tag_17\n      jumpi\n      dup1\n      0xad3cb1cc\n      eq\n      tag_18\n      jumpi\n      dup1\n      0xb9a2de3a\n      eq\n      tag_19\n      jumpi\n      0x00\n      dup1\n      revert\n    tag_27:\n      dup1\n      0x4c205bc9\n      gt\n      tag_30\n      jumpi\n      dup1\n      0x4c205bc9\n      eq\n      tag_8\n      jumpi\n      dup1\n      0x4f1ef286\n      eq\n      tag_9\n      jumpi\n      dup1\n      0x52d1902d\n      eq\n      tag_10\n      jumpi\n      dup1\n      0x715018a6\n      eq\n      tag_11\n      jumpi\n      dup1\n      0x7cfd3e18\n      eq\n      tag_12\n      jumpi\n      dup1\n      0x824563f6\n      eq\n      tag_13\n      jumpi\n      0x00\n      dup1\n      revert\n    tag_30:\n      dup1\n      0x01ffc9a7\n      eq\n      tag_2\n      jumpi\n      dup1\n      0x03c32aa9\n      eq\n      tag_3\n      jumpi\n      dup1\n      0x20edda38\n      eq\n      tag_4\n      jumpi\n      dup1\n      0x2c0bc695\n      eq\n      tag_5\n      jumpi\n      dup1\n      0x3d6c0507\n      eq\n      tag_6\n      jumpi\n      dup1\n      0x485cc955\n      eq\n      tag_7\n      jumpi\n    tag_1:\n      0x00\n      dup1\n      revert\n        /* \"@openzeppelin/contracts-upgradeable/token/ERC1155/utils/ERC1155HolderUpgradeable.sol\":1036:1268  function supportsInterface(bytes4 interfaceId) public view virtual override(ERC165Upgradeable, IERC165) returns (bool) {... */\n    tag_2:\n      callvalue\n      dup1\n      iszero\n      tag_31\n      jumpi\n      0x00\n      dup1\n      revert\n    tag_31:\n      pop\n      tag_32\n      tag_33\n      calldatasize\n      0x04\n      tag_34\n      jump\t// in\n    tag_33:\n      tag_35\n      jump\t// in\n    tag_32:\n      mload(0x40)\n        /* \"#utility.yul\":470:484   */\n      swap1\n      iszero\n        /* \"#utility.yul\":463:485   */\n      iszero\n        /* \"#utility.yul\":445:486   */\n      dup2\n      mstore\n        /* \"#utility.yul\":433:435   */\n      0x20\n        /* \"#utility.yul\":418:436   */\n      add\n        /* \"@openzeppelin/contracts-upgradeable/token/ERC1155/utils/ERC1155HolderUpgradeable.sol\":1036:1268  function supportsInterface(bytes4 interfaceId) public view virtual override(ERC165Upgradeable, IERC165) returns (bool) {... */\n    tag_36:\n      mload(0x40)\n      dup1\n      swap2\n      sub\n      swap1\n      return\n        /* \"ProfitOrg/marketPlace.sol\":19473:19852  function setFiscalSponsorPercentage(uint256 _fiscalSponsorPercentage) external {... */\n    tag_3:\n      callvalue\n      dup1\n      iszero\n      tag_38\n      jumpi\n      0x00\n      dup1\n      revert\n    tag_38:\n      pop\n      tag_39\n      tag_40\n      calldatasize\n      0x04\n      tag_41\n      jump\t// in\n    tag_40:\n      tag_42\n      jump\t// in\n    tag_39:\n      stop\n        /* \"ProfitOrg/marketPlace.sol\":13184:13539  function setPlatFormServiceFeePercentage(uint256 _serviceFeePercentage) external onlyOwner{... */\n    tag_4:\n      callvalue\n      dup1\n      iszero\n      tag_43\n      jumpi\n      0x00\n      dup1\n      revert\n    tag_43:\n      pop\n      tag_39\n      tag_45\n      calldatasize\n      0x04\n      tag_41\n      jump\t// in\n    tag_45:\n      tag_46\n      jump\t// in\n        /* \"ProfitOrg/marketPlace.sol\":6147:6796  function editList(... */\n    tag_5:\n      callvalue\n      dup1\n      iszero\n      tag_47\n      jumpi\n      0x00\n      dup1\n      revert\n    tag_47:\n      pop\n      tag_39\n      tag_49\n      calldatasize\n      0x04\n      tag_50\n      jump\t// in\n    tag_49:\n      tag_51\n      jump\t// in\n        /* \"ProfitOrg/marketPlace.sol\":2030:2083  mapping (uint256 => DonationInfo) public donationInfo */\n    tag_6:\n      callvalue\n      dup1\n      iszero\n      tag_52\n      jumpi\n      0x00\n      dup1\n      revert\n    tag_52:\n      pop\n      tag_53\n      tag_54\n      calldatasize\n      0x04\n      tag_41\n      jump\t// in\n    tag_54:\n      mstore(0x20, 0x05)\n      0x00\n      swap1\n      dup2\n      mstore\n      0x40\n      swap1\n      keccak256\n      sload\n      dup2\n      jump\n    tag_53:\n      mload(0x40)\n        /* \"#utility.yul\":1587:1612   */\n      swap1\n      dup2\n      mstore\n        /* \"#utility.yul\":1575:1577   */\n      0x20\n        /* \"#utility.yul\":1560:1578   */\n      add\n        /* \"ProfitOrg/marketPlace.sol\":2030:2083  mapping (uint256 => DonationInfo) public donationInfo */\n      tag_36\n        /* \"#utility.yul\":1441:1618   */\n      jump\n        /* \"ProfitOrg/marketPlace.sol\":1108:1471  function initialize(address _mintingContract, address _ownerAddress) initializer public {... */\n    tag_7:\n      callvalue\n      dup1\n      iszero\n      tag_58\n      jumpi\n      0x00\n      dup1\n      revert\n    tag_58:\n      pop\n      tag_39\n      tag_60\n      calldatasize\n      0x04\n      tag_61\n      jump\t// in\n    tag_60:\n      tag_62\n      jump\t// in\n        /* \"ProfitOrg/marketPlace.sol\":6927:9104  function BuyFixedPriceItem(uint256 _listId) payable external checkSell(_listId)  { ... */\n    tag_8:\n      tag_39\n      tag_64\n      calldatasize\n      0x04\n      tag_41\n      jump\t// in\n    tag_64:\n      tag_65\n      jump\t// in\n        /* \"@openzeppelin/contracts-upgradeable/proxy/utils/UUPSUpgradeable.sol\":4158:4372  function upgradeToAndCall(address newImplementation, bytes memory data) public payable virtual onlyProxy {... */\n    tag_9:\n      tag_39\n      tag_67\n      calldatasize\n      0x04\n      tag_68\n      jump\t// in\n    tag_67:\n      tag_69\n      jump\t// in\n        /* \"@openzeppelin/contracts-upgradeable/proxy/utils/UUPSUpgradeable.sol\":3705:3839  function proxiableUUID() external view virtual notDelegated returns (bytes32) {... */\n    tag_10:\n      callvalue\n      dup1\n      iszero\n      tag_70\n      jumpi\n      0x00\n      dup1\n      revert\n    tag_70:\n      pop\n      tag_53\n      tag_72\n      jump\t// in\n        /* \"@openzeppelin/contracts-upgradeable/access/OwnableUpgradeable.sol\":3155:3256  function renounceOwnership() public virtual onlyOwner {... */\n    tag_11:\n      callvalue\n      dup1\n      iszero\n      tag_75\n      jumpi\n      0x00\n      dup1\n      revert\n    tag_75:\n      pop\n      tag_39\n      tag_77\n      jump\t// in\n        /* \"ProfitOrg/marketPlace.sol\":2089:2140  mapping(address => uint256) public defaultFiscalFee */\n    tag_12:\n      callvalue\n      dup1\n      iszero\n      tag_78\n      jumpi\n      0x00\n      dup1\n      revert\n    tag_78:\n      pop\n      tag_53\n      tag_80\n      calldatasize\n      0x04\n      tag_81\n      jump\t// in\n    tag_80:\n      mstore(0x20, 0x06)\n      0x00\n      swap1\n      dup2\n      mstore\n      0x40\n      swap1\n      keccak256\n      sload\n      dup2\n      jump\n        /* \"ProfitOrg/marketPlace.sol\":950:987  address public mintingContractAddress */\n    tag_13:\n      callvalue\n      dup1\n      iszero\n      tag_84\n      jumpi\n      0x00\n      dup1\n      revert\n    tag_84:\n      pop\n      sload(0x03)\n      tag_85\n      swap1\n      sub(shl(0xa0, 0x01), 0x01)\n      and\n      dup2\n      jump\n    tag_85:\n      mload(0x40)\n      sub(shl(0xa0, 0x01), 0x01)\n        /* \"#utility.yul\":4294:4326   */\n      swap1\n      swap2\n      and\n        /* \"#utility.yul\":4276:4327   */\n      dup2\n      mstore\n        /* \"#utility.yul\":4264:4266   */\n      0x20\n        /* \"#utility.yul\":4249:4267   */\n      add\n        /* \"ProfitOrg/marketPlace.sol\":950:987  address public mintingContractAddress */\n      tag_36\n        /* \"#utility.yul\":4130:4333   */\n      jump\n        /* \"ProfitOrg/marketPlace.sol\":911:944  uint256 public adminFeePercentage */\n    tag_14:\n      callvalue\n      dup1\n      iszero\n      tag_89\n      jumpi\n      0x00\n      dup1\n      revert\n    tag_89:\n      pop\n      tag_53\n      sload(0x02)\n      dup2\n      jump\n        /* \"ProfitOrg/marketPlace.sol\":1984:2024  mapping (uint256 => List) public listing */\n    tag_15:\n      callvalue\n      dup1\n      iszero\n      tag_93\n      jumpi\n      0x00\n      dup1\n      revert\n    tag_93:\n      pop\n      tag_94\n      tag_95\n      calldatasize\n      0x04\n      tag_41\n      jump\t// in\n    tag_95:\n      0x04\n      0x20\n      dup2\n      swap1\n      mstore\n      0x00\n      swap2\n      dup3\n      mstore\n      0x40\n      swap1\n      swap2\n      keccak256\n      dup1\n      sload\n      0x01\n      dup3\n      add\n      sload\n      0x02\n      dup4\n      add\n      sload\n      0x03\n      dup5\n      add\n      sload\n      swap5\n      dup5\n      add\n      sload\n      0x05\n      dup6\n      add\n      sload\n      0x06\n      dup7\n      add\n      sload\n      0x07\n      dup8\n      add\n      sload\n      0x08\n      dup9\n      add\n      sload\n      0x09\n      swap1\n      swap9\n      add\n      sload\n      0xff\n      dup1\n      dup10\n      and\n      swap11\n      0x0100\n      dup11\n      div\n      dup3\n      and\n      swap11\n      0x010000\n      swap1\n      swap11\n      div\n      swap1\n      swap2\n      and\n      swap9\n      swap1\n      swap6\n      swap5\n      sub(shl(0xa0, 0x01), 0x01)\n      swap1\n      dup2\n      and\n      swap5\n      dup2\n      and\n      swap4\n      and\n      swap2\n      dup13\n      jump\n    tag_94:\n      0x40\n      dup1\n      mload\n        /* \"#utility.yul\":4802:4816   */\n      swap13\n      iszero\n        /* \"#utility.yul\":4795:4817   */\n      iszero\n        /* \"#utility.yul\":4777:4818   */\n      dup14\n      mstore\n        /* \"#utility.yul\":4861:4875   */\n      swap11\n      iszero\n        /* \"#utility.yul\":4854:4876   */\n      iszero\n        /* \"#utility.yul\":4849:4851   */\n      0x20\n        /* \"#utility.yul\":4834:4852   */\n      dup14\n      add\n        /* \"#utility.yul\":4827:4877   */\n      mstore\n        /* \"#utility.yul\":4920:4934   */\n      swap9\n      iszero\n        /* \"#utility.yul\":4913:4935   */\n      iszero\n        /* \"#utility.yul\":4893:4911   */\n      swap10\n      dup12\n      add\n        /* \"#utility.yul\":4886:4936   */\n      swap10\n      swap1\n      swap10\n      mstore\n        /* \"#utility.yul\":4967:4969   */\n      0x60\n        /* \"#utility.yul\":4952:4970   */\n      dup11\n      add\n        /* \"#utility.yul\":4945:4979   */\n      swap7\n      swap1\n      swap7\n      mstore\n        /* \"#utility.yul\":5010:5013   */\n      0x80\n        /* \"#utility.yul\":4995:5014   */\n      dup10\n      add\n        /* \"#utility.yul\":4988:5023   */\n      swap5\n      swap1\n      swap5\n      mstore\n        /* \"#utility.yul\":5054:5057   */\n      0xa0\n        /* \"#utility.yul\":5039:5058   */\n      dup9\n      add\n        /* \"#utility.yul\":5032:5067   */\n      swap3\n      swap1\n      swap3\n      mstore\n        /* \"#utility.yul\":5098:5101   */\n      0xc0\n        /* \"#utility.yul\":5083:5102   */\n      dup8\n      add\n        /* \"#utility.yul\":5076:5111   */\n      mstore\n      sub(shl(0xa0, 0x01), 0x01)\n        /* \"#utility.yul\":5148:5180   */\n      swap1\n      dup2\n      and\n        /* \"#utility.yul\":5142:5145   */\n      0xe0\n        /* \"#utility.yul\":5127:5146   */\n      dup8\n      add\n        /* \"#utility.yul\":5120:5181   */\n      mstore\n        /* \"#utility.yul\":5218:5250   */\n      swap1\n      dup2\n      and\n        /* \"#utility.yul\":5212:5215   */\n      0x0100\n        /* \"#utility.yul\":5197:5216   */\n      dup7\n      add\n        /* \"#utility.yul\":5190:5251   */\n      mstore\n        /* \"#utility.yul\":4087:4118   */\n      and\n        /* \"#utility.yul\":5302:5305   */\n      0x0120\n        /* \"#utility.yul\":5287:5306   */\n      dup5\n      add\n        /* \"#utility.yul\":4075:4119   */\n      mstore\n        /* \"#utility.yul\":5338:5341   */\n      0x0140\n        /* \"#utility.yul\":5323:5342   */\n      dup4\n      add\n        /* \"#utility.yul\":5316:5352   */\n      swap2\n      swap1\n      swap2\n      mstore\n        /* \"#utility.yul\":5383:5386   */\n      0x0160\n        /* \"#utility.yul\":5368:5387   */\n      dup3\n      add\n        /* \"#utility.yul\":5361:5397   */\n      mstore\n        /* \"#utility.yul\":4764:4767   */\n      0x0180\n        /* \"#utility.yul\":4749:4768   */\n      add\n        /* \"ProfitOrg/marketPlace.sol\":1984:2024  mapping (uint256 => List) public listing */\n      tag_36\n        /* \"#utility.yul\":4338:5403   */\n      jump\n        /* \"@openzeppelin/contracts-upgradeable/access/OwnableUpgradeable.sol\":2441:2585  function owner() public view virtual returns (address) {... */\n    tag_16:\n      callvalue\n      dup1\n      iszero\n      tag_99\n      jumpi\n      0x00\n      dup1\n      revert\n    tag_99:\n      pop\n      tag_85\n      tag_101\n      jump\t// in\n        /* \"ProfitOrg/marketPlace.sol\":884:905  uint256 public listId */\n    tag_17:\n      callvalue\n      dup1\n      iszero\n      tag_103\n      jumpi\n      0x00\n      dup1\n      revert\n    tag_103:\n      pop\n      tag_53\n      sload(0x01)\n      dup2\n      jump\n        /* \"@openzeppelin/contracts-upgradeable/proxy/utils/UUPSUpgradeable.sol\":1819:1877  string public constant UPGRADE_INTERFACE_VERSION = \"5.0.0\" */\n    tag_18:\n      callvalue\n      dup1\n      iszero\n      tag_107\n      jumpi\n      0x00\n      dup1\n      revert\n    tag_107:\n      pop\n      tag_108\n      mload(0x40)\n      dup1\n      0x40\n      add\n      0x40\n      mstore\n      dup1\n      0x05\n      dup2\n      mstore\n      0x20\n      add\n      shl(0xdc, 0x0352e302e3)\n      dup2\n      mstore\n      pop\n      dup2\n      jump\n    tag_108:\n      mload(0x40)\n      tag_36\n      swap2\n      swap1\n      tag_111\n      jump\t// in\n        /* \"ProfitOrg/marketPlace.sol\":10335:12548  function endAuction(uint256 _listId) external checkSell(_listId)  {... */\n    tag_19:\n      callvalue\n      dup1\n      iszero\n      tag_112\n      jumpi\n      0x00\n      dup1\n      revert\n    tag_112:\n      pop\n      tag_39\n      tag_114\n      calldatasize\n      0x04\n      tag_41\n      jump\t// in\n    tag_114:\n      tag_115\n      jump\t// in\n        /* \"@openzeppelin/contracts-upgradeable/token/ERC1155/utils/ERC1155HolderUpgradeable.sol\":1499:1746  function onERC1155BatchReceived(... */\n    tag_20:\n      callvalue\n      dup1\n      iszero\n      tag_116\n      jumpi\n      0x00\n      dup1\n      revert\n    tag_116:\n      pop\n      tag_117\n      tag_118\n      calldatasize\n      0x04\n      tag_119\n      jump\t// in\n    tag_118:\n      shl(0xe0, 0xbc197c81)\n      swap6\n      swap5\n      pop\n      pop\n      pop\n      pop\n      pop\n      jump\n    tag_117:\n      mload(0x40)\n      not(sub(shl(0xe0, 0x01), 0x01))\n        /* \"#utility.yul\":7996:8029   */\n      swap1\n      swap2\n      and\n        /* \"#utility.yul\":7978:8030   */\n      dup2\n      mstore\n        /* \"#utility.yul\":7966:7968   */\n      0x20\n        /* \"#utility.yul\":7951:7969   */\n      add\n        /* \"@openzeppelin/contracts-upgradeable/token/ERC1155/utils/ERC1155HolderUpgradeable.sol\":1499:1746  function onERC1155BatchReceived(... */\n      tag_36\n        /* \"#utility.yul\":7834:8036   */\n      jump\n        /* \"ProfitOrg/marketPlace.sol\":9111:10325  function startBid( uint256 _listId)  external payable checkSell(_listId)  {... */\n    tag_21:\n      tag_39\n      tag_124\n      calldatasize\n      0x04\n      tag_41\n      jump\t// in\n    tag_124:\n      tag_125\n      jump\t// in\n        /* \"ProfitOrg/marketPlace.sol\":834:872  MintingContract public mintingContract */\n    tag_22:\n      callvalue\n      dup1\n      iszero\n      tag_126\n      jumpi\n      0x00\n      dup1\n      revert\n    tag_126:\n      pop\n      sload(0x00)\n      tag_85\n      swap1\n      sub(shl(0xa0, 0x01), 0x01)\n      and\n      dup2\n      jump\n        /* \"ProfitOrg/marketPlace.sol\":5017:6141  function listForOrganizations(... */\n    tag_23:\n      callvalue\n      dup1\n      iszero\n      tag_131\n      jumpi\n      0x00\n      dup1\n      revert\n    tag_131:\n      pop\n      tag_39\n      tag_133\n      calldatasize\n      0x04\n      tag_134\n      jump\t// in\n    tag_133:\n      tag_135\n      jump\t// in\n        /* \"ProfitOrg/marketPlace.sol\":3756:5007  function listForUsers(... */\n    tag_24:\n      callvalue\n      dup1\n      iszero\n      tag_136\n      jumpi\n      0x00\n      dup1\n      revert\n    tag_136:\n      pop\n      tag_39\n      tag_138\n      calldatasize\n      0x04\n      tag_139\n      jump\t// in\n    tag_138:\n      tag_140\n      jump\t// in\n        /* \"@openzeppelin/contracts-upgradeable/token/ERC1155/utils/ERC1155HolderUpgradeable.sol\":1274:1493  function onERC1155Received(... */\n    tag_25:\n      callvalue\n      dup1\n      iszero\n      tag_141\n      jumpi\n      0x00\n      dup1\n      revert\n    tag_141:\n      pop\n      tag_117\n      tag_143\n      calldatasize\n      0x04\n      tag_144\n      jump\t// in\n    tag_143:\n      shl(0xe0, 0xf23a6e61)\n      swap6\n      swap5\n      pop\n      pop\n      pop\n      pop\n      pop\n      jump\n        /* \"@openzeppelin/contracts-upgradeable/access/OwnableUpgradeable.sol\":3405:3620  function transferOwnership(address newOwner) public virtual onlyOwner {... */\n    tag_26:\n      callvalue\n      dup1\n      iszero\n      tag_147\n      jumpi\n      0x00\n      dup1\n      revert\n    tag_147:\n      pop\n      tag_39\n      tag_149\n      calldatasize\n      0x04\n      tag_81\n      jump\t// in\n    tag_149:\n      tag_150\n      jump\t// in\n        /* \"@openzeppelin/contracts-upgradeable/token/ERC1155/utils/ERC1155HolderUpgradeable.sol\":1036:1268  function supportsInterface(bytes4 interfaceId) public view virtual override(ERC165Upgradeable, IERC165) returns (bool) {... */\n    tag_35:\n        /* \"@openzeppelin/contracts-upgradeable/token/ERC1155/utils/ERC1155HolderUpgradeable.sol\":1149:1153  bool */\n      0x00\n      not(sub(shl(0xe0, 0x01), 0x01))\n        /* \"@openzeppelin/contracts-upgradeable/token/ERC1155/utils/ERC1155HolderUpgradeable.sol\":1172:1221  interfaceId == type(IERC1155Receiver).interfaceId */\n      dup3\n      and\n      shl(0xe5, 0x02711897)\n      eq\n      dup1\n        /* \"@openzeppelin/contracts-upgradeable/token/ERC1155/utils/ERC1155HolderUpgradeable.sol\":1172:1261  interfaceId == type(IERC1155Receiver).interfaceId || super.supportsInterface(interfaceId) */\n      tag_153\n      jumpi\n      pop\n      shl(0xe0, 0x01ffc9a7)\n      not(sub(shl(0xe0, 0x01), 0x01))\n        /* \"@openzeppelin/contracts-upgradeable/utils/introspection/ERC165Upgradeable.sol\":1133:1173  interfaceId == type(IERC165).interfaceId */\n      dup4\n      and\n      eq\n        /* \"@openzeppelin/contracts-upgradeable/token/ERC1155/utils/ERC1155HolderUpgradeable.sol\":1225:1261  super.supportsInterface(interfaceId) */\n    tag_153:\n        /* \"@openzeppelin/contracts-upgradeable/token/ERC1155/utils/ERC1155HolderUpgradeable.sol\":1165:1261  return interfaceId == type(IERC1155Receiver).interfaceId || super.supportsInterface(interfaceId) */\n      swap3\n        /* \"@openzeppelin/contracts-upgradeable/token/ERC1155/utils/ERC1155HolderUpgradeable.sol\":1036:1268  function supportsInterface(bytes4 interfaceId) public view virtual override(ERC165Upgradeable, IERC165) returns (bool) {... */\n      swap2\n      pop\n      pop\n      jump\t// out\n        /* \"ProfitOrg/marketPlace.sol\":19473:19852  function setFiscalSponsorPercentage(uint256 _fiscalSponsorPercentage) external {... */\n    tag_42:\n        /* \"ProfitOrg/marketPlace.sol\":19607:19610  100 */\n      0x64\n        /* \"ProfitOrg/marketPlace.sol\":19579:19603  _fiscalSponsorPercentage */\n      dup2\n        /* \"ProfitOrg/marketPlace.sol\":19579:19610  _fiscalSponsorPercentage >= 100 */\n      lt\n      iszero\n        /* \"ProfitOrg/marketPlace.sol\":19579:19647  _fiscalSponsorPercentage >= 100  && _fiscalSponsorPercentage <= 1000 */\n      dup1\n      iszero\n      tag_156\n      jumpi\n      pop\n        /* \"ProfitOrg/marketPlace.sol\":19643:19647  1000 */\n      0x03e8\n        /* \"ProfitOrg/marketPlace.sol\":19615:19639  _fiscalSponsorPercentage */\n      dup2\n        /* \"ProfitOrg/marketPlace.sol\":19615:19647  _fiscalSponsorPercentage <= 1000 */\n      gt\n      iszero\n        /* \"ProfitOrg/marketPlace.sol\":19579:19647  _fiscalSponsorPercentage >= 100  && _fiscalSponsorPercentage <= 1000 */\n    tag_156:\n        /* \"ProfitOrg/marketPlace.sol\":19571:19713  require(_fiscalSponsorPercentage >= 100  && _fiscalSponsorPercentage <= 1000, ... */\n      tag_157\n      jumpi\n      mload(0x40)\n      shl(0xe5, 0x461bcd)\n      dup2\n      mstore\n        /* \"#utility.yul\":12641:12643   */\n      0x20\n        /* \"ProfitOrg/marketPlace.sol\":19571:19713  require(_fiscalSponsorPercentage >= 100  && _fiscalSponsorPercentage <= 1000, ... */\n      0x04\n      dup3\n      add\n        /* \"#utility.yul\":12623:12644   */\n      mstore\n        /* \"#utility.yul\":12680:12682   */\n      0x30\n        /* \"#utility.yul\":12660:12678   */\n      0x24\n      dup3\n      add\n        /* \"#utility.yul\":12653:12683   */\n      mstore\n        /* \"#utility.yul\":12719:12753   */\n      0x5f66697363616c53706f6e736f7250657263656e74616765206d757374206265\n        /* \"#utility.yul\":12699:12717   */\n      0x44\n      dup3\n      add\n        /* \"#utility.yul\":12692:12754   */\n      mstore\n      shl(0x84, 0x0206265747765656e203120746f20313)\n        /* \"#utility.yul\":12770:12788   */\n      0x64\n      dup3\n      add\n        /* \"#utility.yul\":12763:12809   */\n      mstore\n        /* \"#utility.yul\":12826:12845   */\n      0x84\n      add\n        /* \"ProfitOrg/marketPlace.sol\":19571:19713  require(_fiscalSponsorPercentage >= 100  && _fiscalSponsorPercentage <= 1000, ... */\n    tag_158:\n      mload(0x40)\n      dup1\n      swap2\n      sub\n      swap1\n      revert\n    tag_157:\n        /* \"ProfitOrg/marketPlace.sol\":19741:19751  msg.sender */\n      caller\n        /* \"ProfitOrg/marketPlace.sol\":19724:19752  defaultFiscalFee[msg.sender] */\n      0x00\n      dup2\n      dup2\n      mstore\n        /* \"ProfitOrg/marketPlace.sol\":19724:19740  defaultFiscalFee */\n      0x06\n        /* \"ProfitOrg/marketPlace.sol\":19724:19752  defaultFiscalFee[msg.sender] */\n      0x20\n      swap1\n      dup2\n      mstore\n      0x40\n      swap2\n      dup3\n      swap1\n      keccak256\n        /* \"ProfitOrg/marketPlace.sol\":19724:19779  defaultFiscalFee[msg.sender] = _fiscalSponsorPercentage */\n      dup5\n      swap1\n      sstore\n        /* \"ProfitOrg/marketPlace.sol\":19795:19845  SetFiscalFee(msg.sender, _fiscalSponsorPercentage) */\n      dup2\n      mload\n        /* \"#utility.yul\":13030:13081   */\n      swap3\n      dup4\n      mstore\n        /* \"#utility.yul\":13097:13115   */\n      dup3\n      add\n        /* \"#utility.yul\":13090:13124   */\n      dup4\n      swap1\n      mstore\n        /* \"ProfitOrg/marketPlace.sol\":19795:19845  SetFiscalFee(msg.sender, _fiscalSponsorPercentage) */\n      0xbee82e0cd48a0dfd192b0980a9a2c7d9b007aad1b38c23a235b4121b554d9c8a\n      swap2\n        /* \"#utility.yul\":13003:13021   */\n      add\n        /* \"ProfitOrg/marketPlace.sol\":19795:19845  SetFiscalFee(msg.sender, _fiscalSponsorPercentage) */\n    tag_160:\n      mload(0x40)\n      dup1\n      swap2\n      sub\n      swap1\n      log1\n        /* \"ProfitOrg/marketPlace.sol\":19473:19852  function setFiscalSponsorPercentage(uint256 _fiscalSponsorPercentage) external {... */\n      pop\n      jump\t// out\n        /* \"ProfitOrg/marketPlace.sol\":13184:13539  function setPlatFormServiceFeePercentage(uint256 _serviceFeePercentage) external onlyOwner{... */\n    tag_46:\n        /* \"@openzeppelin/contracts-upgradeable/access/OwnableUpgradeable.sol\":2334:2347  _checkOwner() */\n      tag_163\n        /* \"@openzeppelin/contracts-upgradeable/access/OwnableUpgradeable.sol\":2334:2345  _checkOwner */\n      tag_164\n        /* \"@openzeppelin/contracts-upgradeable/access/OwnableUpgradeable.sol\":2334:2347  _checkOwner() */\n      jump\t// in\n    tag_163:\n        /* \"ProfitOrg/marketPlace.sol\":13317:13318  0 */\n      0x00\n        /* \"ProfitOrg/marketPlace.sol\":13293:13314  _serviceFeePercentage */\n      dup2\n        /* \"ProfitOrg/marketPlace.sol\":13293:13318  _serviceFeePercentage > 0 */\n      gt\n        /* \"ProfitOrg/marketPlace.sol\":13293:13352  _serviceFeePercentage > 0  && _serviceFeePercentage <= 3000 */\n      dup1\n      iszero\n      tag_166\n      jumpi\n      pop\n        /* \"ProfitOrg/marketPlace.sol\":13348:13352  3000 */\n      0x0bb8\n        /* \"ProfitOrg/marketPlace.sol\":13323:13344  _serviceFeePercentage */\n      dup2\n        /* \"ProfitOrg/marketPlace.sol\":13323:13352  _serviceFeePercentage <= 3000 */\n      gt\n      iszero\n        /* \"ProfitOrg/marketPlace.sol\":13293:13352  _serviceFeePercentage > 0  && _serviceFeePercentage <= 3000 */\n    tag_166:\n        /* \"ProfitOrg/marketPlace.sol\":13284:13402  require( _serviceFeePercentage > 0  && _serviceFeePercentage <= 3000, ... */\n      tag_167\n      jumpi\n      mload(0x40)\n      shl(0xe5, 0x461bcd)\n      dup2\n      mstore\n        /* \"#utility.yul\":13337:13339   */\n      0x20\n        /* \"ProfitOrg/marketPlace.sol\":13284:13402  require( _serviceFeePercentage > 0  && _serviceFeePercentage <= 3000, ... */\n      0x04\n      dup3\n      add\n        /* \"#utility.yul\":13319:13340   */\n      dup2\n      swap1\n      mstore\n        /* \"#utility.yul\":13356:13374   */\n      0x24\n      dup3\n      add\n        /* \"#utility.yul\":13349:13379   */\n      mstore\n        /* \"#utility.yul\":13415:13449   */\n      0x6665652025206d757374206265747765656e20696e20312520746f2033302520\n        /* \"#utility.yul\":13395:13413   */\n      0x44\n      dup3\n      add\n        /* \"#utility.yul\":13388:13450   */\n      mstore\n        /* \"#utility.yul\":13467:13485   */\n      0x64\n      add\n        /* \"ProfitOrg/marketPlace.sol\":13284:13402  require( _serviceFeePercentage > 0  && _serviceFeePercentage <= 3000, ... */\n      tag_158\n        /* \"#utility.yul\":13135:13491   */\n      jump\n        /* \"ProfitOrg/marketPlace.sol\":13284:13402  require( _serviceFeePercentage > 0  && _serviceFeePercentage <= 3000, ... */\n    tag_167:\n        /* \"ProfitOrg/marketPlace.sol\":13413:13431  adminFeePercentage */\n      0x02\n        /* \"ProfitOrg/marketPlace.sol\":13413:13455  adminFeePercentage = _serviceFeePercentage */\n      dup2\n      swap1\n      sstore\n        /* \"ProfitOrg/marketPlace.sol\":13479:13532  plateFarmFeePercentage(adminFeePercentage,msg.sender) */\n      0x40\n      dup1\n      mload\n        /* \"#utility.yul\":13670:13695   */\n      dup3\n      dup2\n      mstore\n        /* \"ProfitOrg/marketPlace.sol\":13521:13531  msg.sender */\n      caller\n        /* \"#utility.yul\":13726:13728   */\n      0x20\n        /* \"#utility.yul\":13711:13729   */\n      dup3\n      add\n        /* \"#utility.yul\":13704:13764   */\n      mstore\n        /* \"ProfitOrg/marketPlace.sol\":13479:13532  plateFarmFeePercentage(adminFeePercentage,msg.sender) */\n      0x8b52e67d733e4bffdb3a2df53e3b88e2f31125fc8a8442b742602f8f7d0ed3e9\n      swap2\n        /* \"#utility.yul\":13643:13661   */\n      add\n        /* \"ProfitOrg/marketPlace.sol\":13479:13532  plateFarmFeePercentage(adminFeePercentage,msg.sender) */\n      tag_160\n        /* \"#utility.yul\":13496:13770   */\n      jump\n        /* \"ProfitOrg/marketPlace.sol\":6147:6796  function editList(... */\n    tag_51:\n        /* \"ProfitOrg/marketPlace.sol\":6335:6342  _listId */\n      dup5\n        /* \"ProfitOrg/marketPlace.sol\":21586:21587  0 */\n      0x00\n        /* \"ProfitOrg/marketPlace.sol\":21575:21582  _listId */\n      dup2\n        /* \"ProfitOrg/marketPlace.sol\":21575:21587  _listId <= 0 */\n      gt\n        /* \"ProfitOrg/marketPlace.sol\":21572:21643  if(_listId <= 0){... */\n      tag_173\n      jumpi\n        /* \"ProfitOrg/marketPlace.sol\":21609:21632  wrongListingId(_listId) */\n      mload(0x40)\n      shl(0xe0, 0xc860174b)\n      dup2\n      mstore\n      0x04\n      dup2\n      add\n        /* \"#utility.yul\":1587:1612   */\n      dup3\n      swap1\n      mstore\n        /* \"#utility.yul\":1560:1578   */\n      0x24\n      add\n        /* \"ProfitOrg/marketPlace.sol\":21609:21632  wrongListingId(_listId) */\n      tag_158\n        /* \"#utility.yul\":1441:1618   */\n      jump\n        /* \"ProfitOrg/marketPlace.sol\":21572:21643  if(_listId <= 0){... */\n    tag_173:\n        /* \"ProfitOrg/marketPlace.sol\":21657:21673  listing[_listId] */\n      0x00\n      dup2\n      dup2\n      mstore\n        /* \"ProfitOrg/marketPlace.sol\":21657:21664  listing */\n      0x04\n        /* \"ProfitOrg/marketPlace.sol\":21657:21673  listing[_listId] */\n      0x20\n      mstore\n      0x40\n      swap1\n      keccak256\n        /* \"ProfitOrg/marketPlace.sol\":21657:21680  listing[_listId].listed */\n      sload\n      0xff\n      and\n        /* \"ProfitOrg/marketPlace.sol\":21653:21747  if(!listing[_listId].listed){... */\n      tag_175\n      jumpi\n        /* \"ProfitOrg/marketPlace.sol\":21712:21728  listing[_listId] */\n      0x00\n      dup2\n      dup2\n      mstore\n        /* \"ProfitOrg/marketPlace.sol\":21712:21719  listing */\n      0x04\n        /* \"ProfitOrg/marketPlace.sol\":21712:21728  listing[_listId] */\n      0x20\n      dup2\n      swap1\n      mstore\n      0x40\n      swap2\n      dup3\n      swap1\n      keccak256\n        /* \"ProfitOrg/marketPlace.sol\":21712:21735  listing[_listId].listed */\n      sload\n        /* \"ProfitOrg/marketPlace.sol\":21702:21736  notListed(listing[_listId].listed) */\n      swap2\n      mload\n      shl(0xe0, 0xe6c1c637)\n      dup2\n      mstore\n        /* \"ProfitOrg/marketPlace.sol\":21712:21735  listing[_listId].listed */\n      0xff\n      swap1\n      swap3\n      and\n        /* \"#utility.yul\":470:484   */\n      iszero\n        /* \"#utility.yul\":463:485   */\n      iszero\n        /* \"ProfitOrg/marketPlace.sol\":21702:21736  notListed(listing[_listId].listed) */\n      swap1\n      dup3\n      add\n        /* \"#utility.yul\":445:486   */\n      mstore\n        /* \"#utility.yul\":418:436   */\n      0x24\n      add\n        /* \"ProfitOrg/marketPlace.sol\":21702:21736  notListed(listing[_listId].listed) */\n      tag_158\n        /* \"#utility.yul\":305:492   */\n      jump\n        /* \"ProfitOrg/marketPlace.sol\":21653:21747  if(!listing[_listId].listed){... */\n    tag_175:\n        /* \"ProfitOrg/marketPlace.sol\":21760:21776  listing[_listId] */\n      0x00\n      dup2\n      dup2\n      mstore\n        /* \"ProfitOrg/marketPlace.sol\":21760:21767  listing */\n      0x04\n        /* \"ProfitOrg/marketPlace.sol\":21760:21776  listing[_listId] */\n      0x20\n      mstore\n      0x40\n      swap1\n      keccak256\n        /* \"ProfitOrg/marketPlace.sol\":21760:21787  listing[_listId].nftClaimed */\n      sload\n      0x0100\n      swap1\n      div\n      0xff\n      and\n        /* \"ProfitOrg/marketPlace.sol\":21757:21863  if(listing[_listId].nftClaimed){... */\n      iszero\n      tag_177\n      jumpi\n        /* \"ProfitOrg/marketPlace.sol\":21824:21840  listing[_listId] */\n      0x00\n      dup2\n      dup2\n      mstore\n        /* \"ProfitOrg/marketPlace.sol\":21824:21831  listing */\n      0x04\n        /* \"ProfitOrg/marketPlace.sol\":21824:21840  listing[_listId] */\n      0x20\n      dup2\n      swap1\n      mstore\n      0x40\n      swap2\n      dup3\n      swap1\n      keccak256\n        /* \"ProfitOrg/marketPlace.sol\":21824:21851  listing[_listId].nftClaimed */\n      sload\n        /* \"ProfitOrg/marketPlace.sol\":21809:21852  alreadyClaimed(listing[_listId].nftClaimed) */\n      swap2\n      mload\n      shl(0xe9, 0x246805)\n      dup2\n      mstore\n        /* \"ProfitOrg/marketPlace.sol\":21824:21851  listing[_listId].nftClaimed */\n      0x0100\n      swap1\n      swap3\n      div\n      0xff\n      and\n        /* \"#utility.yul\":470:484   */\n      iszero\n        /* \"#utility.yul\":463:485   */\n      iszero\n        /* \"ProfitOrg/marketPlace.sol\":21809:21852  alreadyClaimed(listing[_listId].nftClaimed) */\n      swap1\n      dup3\n      add\n        /* \"#utility.yul\":445:486   */\n      mstore\n        /* \"#utility.yul\":418:436   */\n      0x24\n      add\n        /* \"ProfitOrg/marketPlace.sol\":21809:21852  alreadyClaimed(listing[_listId].nftClaimed) */\n      tag_158\n        /* \"#utility.yul\":305:492   */\n      jump\n        /* \"ProfitOrg/marketPlace.sol\":21757:21863  if(listing[_listId].nftClaimed){... */\n    tag_177:\n        /* \"ProfitOrg/marketPlace.sol\":6397:6413  listing[_listId] */\n      0x00\n      dup7\n      dup2\n      mstore\n        /* \"ProfitOrg/marketPlace.sol\":6397:6404  listing */\n      0x04\n        /* \"ProfitOrg/marketPlace.sol\":6397:6413  listing[_listId] */\n      0x20\n      dup2\n      swap1\n      mstore\n      0x40\n      swap1\n      swap2\n      keccak256\n        /* \"ProfitOrg/marketPlace.sol\":6397:6421  listing[_listId].tokenId */\n      0x03\n      dup2\n      add\n      sload\n        /* \"ProfitOrg/marketPlace.sol\":6435:6462  listing[_listId].noOfCopies */\n      swap2\n      dup2\n      add\n      sload\n        /* \"ProfitOrg/marketPlace.sol\":6557:6584  listing[_listId].nftAddress */\n      0x07\n      swap1\n      swap2\n      add\n      sload\n        /* \"ProfitOrg/marketPlace.sol\":6356:6619  setListingInfo(... */\n      tag_180\n      swap3\n        /* \"ProfitOrg/marketPlace.sol\":6397:6421  listing[_listId].tokenId */\n      swap2\n        /* \"ProfitOrg/marketPlace.sol\":6435:6462  listing[_listId].noOfCopies */\n      swap1\n        /* \"ProfitOrg/marketPlace.sol\":6476:6489  _initialPrice */\n      dup9\n      swap1\n        /* \"ProfitOrg/marketPlace.sol\":6503:6517  _listStartTime */\n      dup9\n      swap1\n        /* \"ProfitOrg/marketPlace.sol\":6531:6543  _listEndTime */\n      dup9\n      swap1\n      sub(shl(0xa0, 0x01), 0x01)\n        /* \"ProfitOrg/marketPlace.sol\":6557:6584  listing[_listId].nftAddress */\n      and\n        /* \"ProfitOrg/marketPlace.sol\":6598:6609  _serviceFee */\n      dup9\n        /* \"ProfitOrg/marketPlace.sol\":6356:6370  setListingInfo */\n      tag_181\n        /* \"ProfitOrg/marketPlace.sol\":6356:6619  setListingInfo(... */\n      jump\t// in\n    tag_180:\n        /* \"ProfitOrg/marketPlace.sol\":6664:6680  listing[_listId] */\n      0x00\n      dup7\n      dup2\n      mstore\n        /* \"ProfitOrg/marketPlace.sol\":6664:6671  listing */\n      0x04\n        /* \"ProfitOrg/marketPlace.sol\":6664:6680  listing[_listId] */\n      0x20\n      swap1\n      dup2\n      mstore\n      0x40\n      swap2\n      dup3\n      swap1\n      keccak256\n        /* \"ProfitOrg/marketPlace.sol\":6664:6686  listing[_listId].price */\n      0x02\n      dup2\n      add\n      sload\n        /* \"ProfitOrg/marketPlace.sol\":6700:6733  listing[_listId].listingStartTime */\n      0x09\n      dup3\n      add\n      sload\n        /* \"ProfitOrg/marketPlace.sol\":6747:6778  listing[_listId].listingEndTime */\n      0x08\n      swap1\n      swap3\n      add\n      sload\n        /* \"ProfitOrg/marketPlace.sol\":6643:6788  Edited (... */\n      dup5\n      mload\n        /* \"#utility.yul\":13977:14002   */\n      swap2\n      dup3\n      mstore\n        /* \"#utility.yul\":14018:14036   */\n      swap3\n      dup2\n      add\n        /* \"#utility.yul\":14011:14045   */\n      swap2\n      swap1\n      swap2\n      mstore\n        /* \"#utility.yul\":14061:14079   */\n      swap2\n      dup3\n      add\n        /* \"#utility.yul\":14054:14088   */\n      mstore\n        /* \"ProfitOrg/marketPlace.sol\":6643:6788  Edited (... */\n      0xd3f4e53a5792e81767b11408a290f82cf83fde26090d65773f2c0a9aeb63adfb\n      swap1\n        /* \"#utility.yul\":13965:13967   */\n      0x60\n        /* \"#utility.yul\":13950:13968   */\n      add\n        /* \"ProfitOrg/marketPlace.sol\":6643:6788  Edited (... */\n      mload(0x40)\n      dup1\n      swap2\n      sub\n      swap1\n      log1\n        /* \"ProfitOrg/marketPlace.sol\":6147:6796  function editList(... */\n      pop\n      pop\n      pop\n      pop\n      pop\n      pop\n      jump\t// out\n        /* \"ProfitOrg/marketPlace.sol\":1108:1471  function initialize(address _mintingContract, address _ownerAddress) initializer public {... */\n    tag_62:\n        /* \"@openzeppelin/contracts-upgradeable/proxy/utils/Initializable.sol\":8870:8891  INITIALIZABLE_STORAGE */\n      0xf0c57e16840df040f15088dc2f81fe391c3923bec73e23a9662efc9c229c6a00\n        /* \"@openzeppelin/contracts-upgradeable/proxy/utils/Initializable.sol\":4302:4317  $._initializing */\n      dup1\n      sload\n      shl(0x40, 0x01)\n      dup2\n      div\n      0xff\n      and\n        /* \"@openzeppelin/contracts-upgradeable/proxy/utils/Initializable.sol\":4301:4317  !$._initializing */\n      iszero\n      swap1\n        /* \"@openzeppelin/contracts-upgradeable/proxy/utils/Initializable.sol\":4348:4362  $._initialized */\n      0xffffffffffffffff\n      and\n        /* \"@openzeppelin/contracts-upgradeable/proxy/utils/Initializable.sol\":4158:4188  InitializableStorage storage $ */\n      0x00\n        /* \"@openzeppelin/contracts-upgradeable/proxy/utils/Initializable.sol\":4726:4742  initialized == 0 */\n      dup2\n      iszero\n        /* \"@openzeppelin/contracts-upgradeable/proxy/utils/Initializable.sol\":4726:4760  initialized == 0 && isTopLevelCall */\n      dup1\n      iszero\n      tag_187\n      jumpi\n      pop\n        /* \"@openzeppelin/contracts-upgradeable/proxy/utils/Initializable.sol\":4746:4760  isTopLevelCall */\n      dup3\n        /* \"@openzeppelin/contracts-upgradeable/proxy/utils/Initializable.sol\":4726:4760  initialized == 0 && isTopLevelCall */\n    tag_187:\n        /* \"@openzeppelin/contracts-upgradeable/proxy/utils/Initializable.sol\":4706:4760  bool initialSetup = initialized == 0 && isTopLevelCall */\n      swap1\n      pop\n        /* \"@openzeppelin/contracts-upgradeable/proxy/utils/Initializable.sol\":4770:4787  bool construction */\n      0x00\n        /* \"@openzeppelin/contracts-upgradeable/proxy/utils/Initializable.sol\":4790:4801  initialized */\n      dup3\n        /* \"@openzeppelin/contracts-upgradeable/proxy/utils/Initializable.sol\":4790:4806  initialized == 1 */\n      0xffffffffffffffff\n      and\n        /* \"@openzeppelin/contracts-upgradeable/proxy/utils/Initializable.sol\":4805:4806  1 */\n      0x01\n        /* \"@openzeppelin/contracts-upgradeable/proxy/utils/Initializable.sol\":4790:4806  initialized == 1 */\n      eq\n        /* \"@openzeppelin/contracts-upgradeable/proxy/utils/Initializable.sol\":4790:4840  initialized == 1 && address(this).code.length == 0 */\n      dup1\n      iszero\n      tag_188\n      jumpi\n      pop\n        /* \"@openzeppelin/contracts-upgradeable/proxy/utils/Initializable.sol\":4818:4822  this */\n      address\n        /* \"@openzeppelin/contracts-upgradeable/proxy/utils/Initializable.sol\":4810:4835  address(this).code.length */\n      extcodesize\n        /* \"@openzeppelin/contracts-upgradeable/proxy/utils/Initializable.sol\":4810:4840  address(this).code.length == 0 */\n      iszero\n        /* \"@openzeppelin/contracts-upgradeable/proxy/utils/Initializable.sol\":4790:4840  initialized == 1 && address(this).code.length == 0 */\n    tag_188:\n        /* \"@openzeppelin/contracts-upgradeable/proxy/utils/Initializable.sol\":4770:4840  bool construction = initialized == 1 && address(this).code.length == 0 */\n      swap1\n      pop\n        /* \"@openzeppelin/contracts-upgradeable/proxy/utils/Initializable.sol\":4856:4868  initialSetup */\n      dup2\n        /* \"@openzeppelin/contracts-upgradeable/proxy/utils/Initializable.sol\":4855:4868  !initialSetup */\n      iszero\n        /* \"@openzeppelin/contracts-upgradeable/proxy/utils/Initializable.sol\":4855:4885  !initialSetup && !construction */\n      dup1\n      iszero\n      tag_189\n      jumpi\n      pop\n        /* \"@openzeppelin/contracts-upgradeable/proxy/utils/Initializable.sol\":4873:4885  construction */\n      dup1\n        /* \"@openzeppelin/contracts-upgradeable/proxy/utils/Initializable.sol\":4872:4885  !construction */\n      iszero\n        /* \"@openzeppelin/contracts-upgradeable/proxy/utils/Initializable.sol\":4855:4885  !initialSetup && !construction */\n    tag_189:\n        /* \"@openzeppelin/contracts-upgradeable/proxy/utils/Initializable.sol\":4851:4942  if (!initialSetup && !construction) {... */\n      iszero\n      tag_190\n      jumpi\n        /* \"@openzeppelin/contracts-upgradeable/proxy/utils/Initializable.sol\":4908:4931  InvalidInitialization() */\n      mload(0x40)\n      shl(0xe0, 0xf92ee8a9)\n      dup2\n      mstore\n      0x04\n      add\n      mload(0x40)\n      dup1\n      swap2\n      sub\n      swap1\n      revert\n        /* \"@openzeppelin/contracts-upgradeable/proxy/utils/Initializable.sol\":4851:4942  if (!initialSetup && !construction) {... */\n    tag_190:\n        /* \"@openzeppelin/contracts-upgradeable/proxy/utils/Initializable.sol\":4951:4969  $._initialized = 1 */\n      dup5\n      sload\n      not(0xffffffffffffffff)\n      and\n        /* \"@openzeppelin/contracts-upgradeable/proxy/utils/Initializable.sol\":4968:4969  1 */\n      0x01\n        /* \"@openzeppelin/contracts-upgradeable/proxy/utils/Initializable.sol\":4951:4969  $._initialized = 1 */\n      or\n      dup6\n      sstore\n        /* \"@openzeppelin/contracts-upgradeable/proxy/utils/Initializable.sol\":4979:5046  if (isTopLevelCall) {... */\n      dup4\n      iszero\n      tag_191\n      jumpi\n        /* \"@openzeppelin/contracts-upgradeable/proxy/utils/Initializable.sol\":5013:5035  $._initializing = true */\n      dup5\n      sload\n      not(shl(0x40, 0xff))\n      and\n      shl(0x40, 0x01)\n      or\n      dup6\n      sstore\n        /* \"@openzeppelin/contracts-upgradeable/proxy/utils/Initializable.sol\":4979:5046  if (isTopLevelCall) {... */\n    tag_191:\n        /* \"ProfitOrg/marketPlace.sol\":1228:1231  250 */\n      0xfa\n        /* \"ProfitOrg/marketPlace.sol\":1207:1225  adminFeePercentage */\n      0x02\n        /* \"ProfitOrg/marketPlace.sol\":1207:1231  adminFeePercentage = 250 */\n      sstore\n        /* \"ProfitOrg/marketPlace.sol\":1242:1264  mintingContractAddress */\n      0x03\n        /* \"ProfitOrg/marketPlace.sol\":1242:1283  mintingContractAddress = _mintingContract */\n      dup1\n      sload\n      sub(shl(0xa0, 0x01), 0x01)\n      dup10\n      and\n      not(sub(shl(0xa0, 0x01), 0x01))\n      swap2\n      dup3\n      and\n      dup2\n      or\n      swap1\n      swap3\n      sstore\n        /* \"ProfitOrg/marketPlace.sol\":1242:1264  mintingContractAddress */\n      0x00\n        /* \"ProfitOrg/marketPlace.sol\":1293:1344  mintingContract = MintingContract(_mintingContract) */\n      dup1\n      sload\n      swap1\n      swap2\n      and\n      swap1\n      swap2\n      or\n      swap1\n      sstore\n        /* \"ProfitOrg/marketPlace.sol\":1361:1383  __ERC1155Holder_init() */\n      tag_193\n        /* \"ProfitOrg/marketPlace.sol\":1361:1381  __ERC1155Holder_init */\n      tag_194\n        /* \"ProfitOrg/marketPlace.sol\":1361:1383  __ERC1155Holder_init() */\n      jump\t// in\n    tag_193:\n        /* \"ProfitOrg/marketPlace.sol\":1393:1422  __Ownable_init(_ownerAddress) */\n      tag_195\n        /* \"ProfitOrg/marketPlace.sol\":1408:1421  _ownerAddress */\n      dup7\n        /* \"ProfitOrg/marketPlace.sol\":1393:1407  __Ownable_init */\n      tag_196\n        /* \"ProfitOrg/marketPlace.sol\":1393:1422  __Ownable_init(_ownerAddress) */\n      jump\t// in\n    tag_195:\n        /* \"ProfitOrg/marketPlace.sol\":1432:1456  __UUPSUpgradeable_init() */\n      tag_197\n        /* \"ProfitOrg/marketPlace.sol\":1432:1454  __UUPSUpgradeable_init */\n      tag_194\n        /* \"ProfitOrg/marketPlace.sol\":1432:1456  __UUPSUpgradeable_init() */\n      jump\t// in\n    tag_197:\n        /* \"@openzeppelin/contracts-upgradeable/proxy/utils/Initializable.sol\":5070:5084  isTopLevelCall */\n      dup4\n        /* \"@openzeppelin/contracts-upgradeable/proxy/utils/Initializable.sol\":5066:5167  if (isTopLevelCall) {... */\n      iszero\n      tag_199\n      jumpi\n        /* \"@openzeppelin/contracts-upgradeable/proxy/utils/Initializable.sol\":5100:5123  $._initializing = false */\n      dup5\n      sload\n      not(shl(0x40, 0xff))\n      and\n      dup6\n      sstore\n        /* \"@openzeppelin/contracts-upgradeable/proxy/utils/Initializable.sol\":5142:5156  Initialized(1) */\n      mload(0x40)\n      0x01\n        /* \"#utility.yul\":14252:14302   */\n      dup2\n      mstore\n        /* \"@openzeppelin/contracts-upgradeable/proxy/utils/Initializable.sol\":5142:5156  Initialized(1) */\n      0xc7f505b2f371ae2175ee4913f4499e1f2633a7b5936321eed1cdaeb6115181d2\n      swap1\n        /* \"#utility.yul\":14240:14242   */\n      0x20\n        /* \"#utility.yul\":14225:14243   */\n      add\n        /* \"@openzeppelin/contracts-upgradeable/proxy/utils/Initializable.sol\":5142:5156  Initialized(1) */\n      mload(0x40)\n      dup1\n      swap2\n      sub\n      swap1\n      log1\n        /* \"@openzeppelin/contracts-upgradeable/proxy/utils/Initializable.sol\":5066:5167  if (isTopLevelCall) {... */\n    tag_199:\n        /* \"@openzeppelin/contracts-upgradeable/proxy/utils/Initializable.sol\":4092:5173  {... */\n      pop\n      pop\n      pop\n      pop\n      pop\n        /* \"ProfitOrg/marketPlace.sol\":1108:1471  function initialize(address _mintingContract, address _ownerAddress) initializer public {... */\n      pop\n      pop\n      jump\t// out\n        /* \"ProfitOrg/marketPlace.sol\":6927:9104  function BuyFixedPriceItem(uint256 _listId) payable external checkSell(_listId)  { ... */\n    tag_65:\n        /* \"ProfitOrg/marketPlace.sol\":6998:7005  _listId */\n      dup1\n        /* \"ProfitOrg/marketPlace.sol\":21586:21587  0 */\n      0x00\n        /* \"ProfitOrg/marketPlace.sol\":21575:21582  _listId */\n      dup2\n        /* \"ProfitOrg/marketPlace.sol\":21575:21587  _listId <= 0 */\n      gt\n        /* \"ProfitOrg/marketPlace.sol\":21572:21643  if(_listId <= 0){... */\n      tag_203\n      jumpi\n        /* \"ProfitOrg/marketPlace.sol\":21609:21632  wrongListingId(_listId) */\n      mload(0x40)\n      shl(0xe0, 0xc860174b)\n      dup2\n      mstore\n      0x04\n      dup2\n      add\n        /* \"#utility.yul\":1587:1612   */\n      dup3\n      swap1\n      mstore\n        /* \"#utility.yul\":1560:1578   */\n      0x24\n      add\n        /* \"ProfitOrg/marketPlace.sol\":21609:21632  wrongListingId(_listId) */\n      tag_158\n        /* \"#utility.yul\":1441:1618   */\n      jump\n        /* \"ProfitOrg/marketPlace.sol\":21572:21643  if(_listId <= 0){... */\n    tag_203:\n        /* \"ProfitOrg/marketPlace.sol\":21657:21673  listing[_listId] */\n      0x00\n      dup2\n      dup2\n      mstore\n        /* \"ProfitOrg/marketPlace.sol\":21657:21664  listing */\n      0x04\n        /* \"ProfitOrg/marketPlace.sol\":21657:21673  listing[_listId] */\n      0x20\n      mstore\n      0x40\n      swap1\n      keccak256\n        /* \"ProfitOrg/marketPlace.sol\":21657:21680  listing[_listId].listed */\n      sload\n      0xff\n      and\n        /* \"ProfitOrg/marketPlace.sol\":21653:21747  if(!listing[_listId].listed){... */\n      tag_205\n      jumpi\n        /* \"ProfitOrg/marketPlace.sol\":21712:21728  listing[_listId] */\n      0x00\n      dup2\n      dup2\n      mstore\n        /* \"ProfitOrg/marketPlace.sol\":21712:21719  listing */\n      0x04\n        /* \"ProfitOrg/marketPlace.sol\":21712:21728  listing[_listId] */\n      0x20\n      dup2\n      swap1\n      mstore\n      0x40\n      swap2\n      dup3\n      swap1\n      keccak256\n        /* \"ProfitOrg/marketPlace.sol\":21712:21735  listing[_listId].listed */\n      sload\n        /* \"ProfitOrg/marketPlace.sol\":21702:21736  notListed(listing[_listId].listed) */\n      swap2\n      mload\n      shl(0xe0, 0xe6c1c637)\n      dup2\n      mstore\n        /* \"ProfitOrg/marketPlace.sol\":21712:21735  listing[_listId].listed */\n      0xff\n      swap1\n      swap3\n      and\n        /* \"#utility.yul\":470:484   */\n      iszero\n        /* \"#utility.yul\":463:485   */\n      iszero\n        /* \"ProfitOrg/marketPlace.sol\":21702:21736  notListed(listing[_listId].listed) */\n      swap1\n      dup3\n      add\n        /* \"#utility.yul\":445:486   */\n      mstore\n        /* \"#utility.yul\":418:436   */\n      0x24\n      add\n        /* \"ProfitOrg/marketPlace.sol\":21702:21736  notListed(listing[_listId].listed) */\n      tag_158\n        /* \"#utility.yul\":305:492   */\n      jump\n        /* \"ProfitOrg/marketPlace.sol\":21653:21747  if(!listing[_listId].listed){... */\n    tag_205:\n        /* \"ProfitOrg/marketPlace.sol\":21760:21776  listing[_listId] */\n      0x00\n      dup2\n      dup2\n      mstore\n        /* \"ProfitOrg/marketPlace.sol\":21760:21767  listing */\n      0x04\n        /* \"ProfitOrg/marketPlace.sol\":21760:21776  listing[_listId] */\n      0x20\n      mstore\n      0x40\n      swap1\n      keccak256\n        /* \"ProfitOrg/marketPlace.sol\":21760:21787  listing[_listId].nftClaimed */\n      sload\n      0x0100\n      swap1\n      div\n      0xff\n      and\n        /* \"ProfitOrg/marketPlace.sol\":21757:21863  if(listing[_listId].nftClaimed){... */\n      iszero\n      tag_207\n      jumpi\n        /* \"ProfitOrg/marketPlace.sol\":21824:21840  listing[_listId] */\n      0x00\n      dup2\n      dup2\n      mstore\n        /* \"ProfitOrg/marketPlace.sol\":21824:21831  listing */\n      0x04\n        /* \"ProfitOrg/marketPlace.sol\":21824:21840  listing[_listId] */\n      0x20\n      dup2\n      swap1\n      mstore\n      0x40\n      swap2\n      dup3\n      swap1\n      keccak256\n        /* \"ProfitOrg/marketPlace.sol\":21824:21851  listing[_listId].nftClaimed */\n      sload\n        /* \"ProfitOrg/marketPlace.sol\":21809:21852  alreadyClaimed(listing[_listId].nftClaimed) */\n      swap2\n      mload\n      shl(0xe9, 0x246805)\n      dup2\n      mstore\n        /* \"ProfitOrg/marketPlace.sol\":21824:21851  listing[_listId].nftClaimed */\n      0x0100\n      swap1\n      swap3\n      div\n      0xff\n      and\n        /* \"#utility.yul\":470:484   */\n      iszero\n        /* \"#utility.yul\":463:485   */\n      iszero\n        /* \"ProfitOrg/marketPlace.sol\":21809:21852  alreadyClaimed(listing[_listId].nftClaimed) */\n      swap1\n      dup3\n      add\n        /* \"#utility.yul\":445:486   */\n      mstore\n        /* \"#utility.yul\":418:436   */\n      0x24\n      add\n        /* \"ProfitOrg/marketPlace.sol\":21809:21852  alreadyClaimed(listing[_listId].nftClaimed) */\n      tag_158\n        /* \"#utility.yul\":305:492   */\n      jump\n        /* \"ProfitOrg/marketPlace.sol\":21757:21863  if(listing[_listId].nftClaimed){... */\n    tag_207:\n        /* \"ProfitOrg/marketPlace.sol\":7045:7061  listing[_listId] */\n      0x00\n      dup3\n      dup2\n      mstore\n        /* \"ProfitOrg/marketPlace.sol\":7045:7052  listing */\n      0x04\n        /* \"ProfitOrg/marketPlace.sol\":7045:7061  listing[_listId] */\n      0x20\n      mstore\n      0x40\n      swap1\n      keccak256\n        /* \"ProfitOrg/marketPlace.sol\":7045:7067  listing[_listId].price */\n      0x02\n      add\n      sload\n        /* \"ProfitOrg/marketPlace.sol\":7031:7040  msg.value */\n      callvalue\n        /* \"ProfitOrg/marketPlace.sol\":7031:7067  msg.value !=  listing[_listId].price */\n      eq\n        /* \"ProfitOrg/marketPlace.sol\":7028:7121  if(msg.value !=  listing[_listId].price){... */\n      tag_210\n      jumpi\n        /* \"ProfitOrg/marketPlace.sol\":7089:7110  invalidFee(msg.value) */\n      mload(0x40)\n      shl(0xe0, 0x85d649f7)\n      dup2\n      mstore\n        /* \"ProfitOrg/marketPlace.sol\":7100:7109  msg.value */\n      callvalue\n        /* \"ProfitOrg/marketPlace.sol\":7089:7110  invalidFee(msg.value) */\n      0x04\n      dup3\n      add\n        /* \"#utility.yul\":1587:1612   */\n      mstore\n        /* \"#utility.yul\":1560:1578   */\n      0x24\n      add\n        /* \"ProfitOrg/marketPlace.sol\":7089:7110  invalidFee(msg.value) */\n      tag_158\n        /* \"#utility.yul\":1441:1618   */\n      jump\n        /* \"ProfitOrg/marketPlace.sol\":7028:7121  if(msg.value !=  listing[_listId].price){... */\n    tag_210:\n        /* \"ProfitOrg/marketPlace.sol\":7134:7150  listing[_listId] */\n      0x00\n      dup3\n      dup2\n      mstore\n        /* \"ProfitOrg/marketPlace.sol\":7134:7141  listing */\n      0x04\n        /* \"ProfitOrg/marketPlace.sol\":7134:7150  listing[_listId] */\n      0x20\n      mstore\n      0x40\n      swap1\n      keccak256\n        /* \"ProfitOrg/marketPlace.sol\":7134:7161  listing[_listId].fixedPrice */\n      sload\n      0x010000\n      swap1\n      div\n      0xff\n      and\n        /* \"ProfitOrg/marketPlace.sol\":7130:7232  if(!listing[_listId].fixedPrice){... */\n      tag_212\n      jumpi\n        /* \"ProfitOrg/marketPlace.sol\":7193:7209  listing[_listId] */\n      0x00\n      dup3\n      dup2\n      mstore\n        /* \"ProfitOrg/marketPlace.sol\":7193:7200  listing */\n      0x04\n        /* \"ProfitOrg/marketPlace.sol\":7193:7209  listing[_listId] */\n      0x20\n      dup2\n      swap1\n      mstore\n      0x40\n      swap2\n      dup3\n      swap1\n      keccak256\n        /* \"ProfitOrg/marketPlace.sol\":7193:7220  listing[_listId].fixedPrice */\n      sload\n        /* \"ProfitOrg/marketPlace.sol\":7183:7221  onAuction(listing[_listId].fixedPrice) */\n      swap2\n      mload\n      shl(0xe0, 0x9cf9f1f7)\n      dup2\n      mstore\n        /* \"ProfitOrg/marketPlace.sol\":7193:7220  listing[_listId].fixedPrice */\n      0x010000\n      swap1\n      swap3\n      div\n      0xff\n      and\n        /* \"#utility.yul\":470:484   */\n      iszero\n        /* \"#utility.yul\":463:485   */\n      iszero\n        /* \"ProfitOrg/marketPlace.sol\":7183:7221  onAuction(listing[_listId].fixedPrice) */\n      swap1\n      dup3\n      add\n        /* \"#utility.yul\":445:486   */\n      mstore\n        /* \"#utility.yul\":418:436   */\n      0x24\n      add\n        /* \"ProfitOrg/marketPlace.sol\":7183:7221  onAuction(listing[_listId].fixedPrice) */\n      tag_158\n        /* \"#utility.yul\":305:492   */\n      jump\n        /* \"ProfitOrg/marketPlace.sol\":7130:7232  if(!listing[_listId].fixedPrice){... */\n    tag_212:\n        /* \"ProfitOrg/marketPlace.sol\":7267:7283  listing[_listId] */\n      0x00\n      dup3\n      dup2\n      mstore\n        /* \"ProfitOrg/marketPlace.sol\":7267:7274  listing */\n      0x04\n        /* \"ProfitOrg/marketPlace.sol\":7267:7283  listing[_listId] */\n      0x20\n      mstore\n      0x40\n      swap1\n      keccak256\n        /* \"ProfitOrg/marketPlace.sol\":7267:7292  listing[_listId].nftOwner */\n      0x05\n      add\n      sload\n      sub(shl(0xa0, 0x01), 0x01)\n      and\n        /* \"ProfitOrg/marketPlace.sol\":7253:7263  msg.sender */\n      caller\n        /* \"ProfitOrg/marketPlace.sol\":7253:7292  msg.sender == listing[_listId].nftOwner */\n      sub\n        /* \"ProfitOrg/marketPlace.sol\":7250:7364  if(msg.sender == listing[_listId].nftOwner){... */\n      tag_214\n      jumpi\n        /* \"ProfitOrg/marketPlace.sol\":7327:7343  listing[_listId] */\n      0x00\n      dup3\n      dup2\n      mstore\n        /* \"ProfitOrg/marketPlace.sol\":7327:7334  listing */\n      0x04\n        /* \"ProfitOrg/marketPlace.sol\":7327:7343  listing[_listId] */\n      0x20\n      dup2\n      swap1\n      mstore\n      0x40\n      swap2\n      dup3\n      swap1\n      keccak256\n        /* \"ProfitOrg/marketPlace.sol\":7327:7352  listing[_listId].nftOwner */\n      0x05\n      add\n      sload\n        /* \"ProfitOrg/marketPlace.sol\":7314:7353  ownerCantBuy(listing[_listId].nftOwner) */\n      swap2\n      mload\n      shl(0xe5, 0x04a83c1b)\n      dup2\n      mstore\n      sub(shl(0xa0, 0x01), 0x01)\n        /* \"ProfitOrg/marketPlace.sol\":7327:7352  listing[_listId].nftOwner */\n      swap1\n      swap3\n      and\n        /* \"ProfitOrg/marketPlace.sol\":7314:7353  ownerCantBuy(listing[_listId].nftOwner) */\n      swap1\n      dup3\n      add\n        /* \"#utility.yul\":4276:4327   */\n      mstore\n        /* \"#utility.yul\":4249:4267   */\n      0x24\n      add\n        /* \"ProfitOrg/marketPlace.sol\":7314:7353  ownerCantBuy(listing[_listId].nftOwner) */\n      tag_158\n        /* \"#utility.yul\":4130:4333   */\n      jump\n        /* \"ProfitOrg/marketPlace.sol\":7250:7364  if(msg.sender == listing[_listId].nftOwner){... */\n    tag_214:\n        /* \"ProfitOrg/marketPlace.sol\":7374:7390  listing[_listId] */\n      0x00\n      dup3\n      dup2\n      mstore\n        /* \"ProfitOrg/marketPlace.sol\":7374:7381  listing */\n      0x04\n        /* \"ProfitOrg/marketPlace.sol\":7374:7390  listing[_listId] */\n      0x20\n      mstore\n      0x40\n      dup2\n      keccak256\n        /* \"ProfitOrg/marketPlace.sol\":7374:7399  listing[_listId].newOwner */\n      0x06\n      dup2\n      add\n        /* \"ProfitOrg/marketPlace.sol\":7374:7412  listing[_listId].newOwner = msg.sender */\n      dup1\n      sload\n      not(sub(shl(0xa0, 0x01), 0x01))\n      and\n        /* \"ProfitOrg/marketPlace.sol\":7402:7412  msg.sender */\n      caller\n        /* \"ProfitOrg/marketPlace.sol\":7374:7412  listing[_listId].newOwner = msg.sender */\n      or\n      swap1\n      sstore\n      0x01\n        /* \"ProfitOrg/marketPlace.sol\":7464:7501  listing[_listId].serviceFeePercentage */\n      add\n      sload\n        /* \"ProfitOrg/marketPlace.sol\":7464:7506  listing[_listId].serviceFeePercentage != 0 */\n      iszero\n        /* \"ProfitOrg/marketPlace.sol\":7460:7732  if (listing[_listId].serviceFeePercentage != 0){... */\n      tag_216\n      jumpi\n        /* \"ProfitOrg/marketPlace.sol\":7560:7576  listing[_listId] */\n      0x00\n      dup4\n      dup2\n      mstore\n        /* \"ProfitOrg/marketPlace.sol\":7560:7567  listing */\n      0x04\n        /* \"ProfitOrg/marketPlace.sol\":7560:7576  listing[_listId] */\n      0x20\n      mstore\n      0x40\n      swap1\n      keccak256\n        /* \"ProfitOrg/marketPlace.sol\":7560:7582  listing[_listId].price */\n      0x02\n      dup2\n      add\n      sload\n        /* \"ProfitOrg/marketPlace.sol\":7584:7621  listing[_listId].serviceFeePercentage */\n      0x01\n      swap1\n      swap2\n      add\n      sload\n        /* \"ProfitOrg/marketPlace.sol\":7548:7622  calulateFee(listing[_listId].price, listing[_listId].serviceFeePercentage) */\n      tag_217\n      swap2\n        /* \"ProfitOrg/marketPlace.sol\":7560:7582  listing[_listId].price */\n      swap1\n        /* \"ProfitOrg/marketPlace.sol\":7548:7559  calulateFee */\n      tag_218\n        /* \"ProfitOrg/marketPlace.sol\":7548:7622  calulateFee(listing[_listId].price, listing[_listId].serviceFeePercentage) */\n      jump\t// in\n    tag_217:\n        /* \"ProfitOrg/marketPlace.sol\":7535:7622  serviceFee = calulateFee(listing[_listId].price, listing[_listId].serviceFeePercentage) */\n      swap1\n      pop\n        /* \"ProfitOrg/marketPlace.sol\":7460:7732  if (listing[_listId].serviceFeePercentage != 0){... */\n      jump(tag_219)\n    tag_216:\n        /* \"ProfitOrg/marketPlace.sol\":7666:7721  calulateFee(listing[_listId].price, adminFeePercentage) */\n      tag_220\n        /* \"ProfitOrg/marketPlace.sol\":7678:7685  listing */\n      0x04\n        /* \"ProfitOrg/marketPlace.sol\":7678:7694  listing[_listId] */\n      0x00\n        /* \"ProfitOrg/marketPlace.sol\":7686:7693  _listId */\n      dup6\n        /* \"ProfitOrg/marketPlace.sol\":7678:7694  listing[_listId] */\n      dup2\n      mstore\n      0x20\n      add\n      swap1\n      dup2\n      mstore\n      0x20\n      add\n      0x00\n      keccak256\n        /* \"ProfitOrg/marketPlace.sol\":7678:7700  listing[_listId].price */\n      0x02\n      add\n      sload\n        /* \"ProfitOrg/marketPlace.sol\":7702:7720  adminFeePercentage */\n      sload(0x02)\n        /* \"ProfitOrg/marketPlace.sol\":7666:7677  calulateFee */\n      tag_218\n        /* \"ProfitOrg/marketPlace.sol\":7666:7721  calulateFee(listing[_listId].price, adminFeePercentage) */\n      jump\t// in\n    tag_220:\n        /* \"ProfitOrg/marketPlace.sol\":7653:7721  serviceFee = calulateFee(listing[_listId].price, adminFeePercentage) */\n      swap1\n      pop\n        /* \"ProfitOrg/marketPlace.sol\":7460:7732  if (listing[_listId].serviceFeePercentage != 0){... */\n    tag_219:\n        /* \"ProfitOrg/marketPlace.sol\":7742:7761  uint256 donationFee */\n      0x00\n        /* \"ProfitOrg/marketPlace.sol\":7775:7796  donationInfo[_listId] */\n      dup4\n      dup2\n      mstore\n        /* \"ProfitOrg/marketPlace.sol\":7775:7787  donationInfo */\n      0x05\n        /* \"ProfitOrg/marketPlace.sol\":7775:7796  donationInfo[_listId] */\n      0x20\n      mstore\n      0x40\n      dup2\n      keccak256\n        /* \"ProfitOrg/marketPlace.sol\":7775:7814  donationInfo[_listId].noOfOrgazisations */\n      sload\n        /* \"ProfitOrg/marketPlace.sol\":7775:7818  donationInfo[_listId].noOfOrgazisations > 0 */\n      iszero\n        /* \"ProfitOrg/marketPlace.sol\":7772:7888  if(donationInfo[_listId].noOfOrgazisations > 0){... */\n      tag_221\n      jumpi\n        /* \"ProfitOrg/marketPlace.sol\":7848:7876  donationFeeTransfer(_listId) */\n      tag_222\n        /* \"ProfitOrg/marketPlace.sol\":7868:7875  _listId */\n      dup5\n        /* \"ProfitOrg/marketPlace.sol\":7848:7867  donationFeeTransfer */\n      tag_223\n        /* \"ProfitOrg/marketPlace.sol\":7848:7876  donationFeeTransfer(_listId) */\n      jump\t// in\n    tag_222:\n        /* \"ProfitOrg/marketPlace.sol\":7833:7876  donationFee =  donationFeeTransfer(_listId) */\n      swap1\n      pop\n        /* \"ProfitOrg/marketPlace.sol\":7772:7888  if(donationInfo[_listId].noOfOrgazisations > 0){... */\n    tag_221:\n        /* \"ProfitOrg/marketPlace.sol\":7900:7917  bool _haveSponsor */\n      0x00\n        /* \"ProfitOrg/marketPlace.sol\":7925:7940  mintingContract */\n      dup1\n      sload\n        /* \"ProfitOrg/marketPlace.sol\":7958:7974  listing[_listId] */\n      dup6\n      dup3\n      mstore\n        /* \"ProfitOrg/marketPlace.sol\":7958:7965  listing */\n      0x04\n        /* \"ProfitOrg/marketPlace.sol\":7958:7974  listing[_listId] */\n      0x20\n      dup2\n      swap1\n      mstore\n      0x40\n      dup1\n      dup5\n      keccak256\n        /* \"ProfitOrg/marketPlace.sol\":7958:7983  listing[_listId].nftOwner */\n      0x05\n      add\n      sload\n        /* \"ProfitOrg/marketPlace.sol\":7925:7984  mintingContract.getFiscalSponsor(listing[_listId].nftOwner) */\n      swap1\n      mload\n      shl(0xe0, 0x53f50119)\n      dup2\n      mstore\n      sub(shl(0xa0, 0x01), 0x01)\n        /* \"ProfitOrg/marketPlace.sol\":7958:7983  listing[_listId].nftOwner */\n      swap2\n      dup3\n      and\n        /* \"ProfitOrg/marketPlace.sol\":7925:7984  mintingContract.getFiscalSponsor(listing[_listId].nftOwner) */\n      swap3\n      dup2\n      add\n        /* \"#utility.yul\":4276:4327   */\n      swap3\n      swap1\n      swap3\n      mstore\n        /* \"ProfitOrg/marketPlace.sol\":7925:7940  mintingContract */\n      swap1\n      swap2\n      and\n      swap1\n        /* \"ProfitOrg/marketPlace.sol\":7925:7957  mintingContract.getFiscalSponsor */\n      0x53f50119\n      swap1\n        /* \"#utility.yul\":4249:4267   */\n      0x24\n      add\n        /* \"ProfitOrg/marketPlace.sol\":7925:7984  mintingContract.getFiscalSponsor(listing[_listId].nftOwner) */\n      0x80\n      mload(0x40)\n      dup1\n      dup4\n      sub\n      dup2\n      dup7\n      gas\n      staticcall\n      iszero\n      dup1\n      iszero\n      tag_226\n      jumpi\n      returndatasize\n      0x00\n      dup1\n      returndatacopy\n      revert(0x00, returndatasize)\n    tag_226:\n      pop\n      pop\n      pop\n      pop\n      mload(0x40)\n      returndatasize\n      not(0x1f)\n      0x1f\n      dup3\n      add\n      and\n      dup3\n      add\n      dup1\n      0x40\n      mstore\n      pop\n      dup2\n      add\n      swap1\n      tag_227\n      swap2\n      swap1\n      tag_228\n      jump\t// in\n    tag_227:\n        /* \"ProfitOrg/marketPlace.sol\":7899:7984  (bool _haveSponsor,,,)  = mintingContract.getFiscalSponsor(listing[_listId].nftOwner) */\n      pop\n      pop\n      pop\n      swap1\n      pop\n        /* \"ProfitOrg/marketPlace.sol\":8003:8020  uint256 fiscalFee */\n      0x00\n        /* \"ProfitOrg/marketPlace.sol\":8042:8054  _haveSponsor */\n      dup2\n        /* \"ProfitOrg/marketPlace.sol\":8039:8129  if(_haveSponsor){... */\n      iszero\n      tag_229\n      jumpi\n        /* \"ProfitOrg/marketPlace.sol\":8083:8118  sendFiscalFee(_listId,address(0),0) */\n      tag_230\n        /* \"ProfitOrg/marketPlace.sol\":8097:8104  _listId */\n      dup7\n        /* \"ProfitOrg/marketPlace.sol\":8113:8114  0 */\n      0x00\n        /* \"ProfitOrg/marketPlace.sol\":8116:8117  0 */\n      dup1\n        /* \"ProfitOrg/marketPlace.sol\":8083:8096  sendFiscalFee */\n      tag_231\n        /* \"ProfitOrg/marketPlace.sol\":8083:8118  sendFiscalFee(_listId,address(0),0) */\n      jump\t// in\n    tag_230:\n        /* \"ProfitOrg/marketPlace.sol\":8070:8118  fiscalFee =  sendFiscalFee(_listId,address(0),0) */\n      swap1\n      pop\n        /* \"ProfitOrg/marketPlace.sol\":8039:8129  if(_haveSponsor){... */\n    tag_229:\n        /* \"ProfitOrg/marketPlace.sol\":8147:8165  uint256 royaltyFee */\n      0x00\n        /* \"ProfitOrg/marketPlace.sol\":8169:8193  sendRoyalityFee(_listId) */\n      tag_232\n        /* \"ProfitOrg/marketPlace.sol\":8185:8192  _listId */\n      dup8\n        /* \"ProfitOrg/marketPlace.sol\":8169:8184  sendRoyalityFee */\n      tag_233\n        /* \"ProfitOrg/marketPlace.sol\":8169:8193  sendRoyalityFee(_listId) */\n      jump\t// in\n    tag_232:\n        /* \"ProfitOrg/marketPlace.sol\":8147:8193  uint256 royaltyFee =  sendRoyalityFee(_listId) */\n      swap1\n      pop\n        /* \"ProfitOrg/marketPlace.sol\":8203:8229  uint256 amountSendToSeller */\n      0x00\n        /* \"ProfitOrg/marketPlace.sol\":8147:8193  uint256 royaltyFee =  sendRoyalityFee(_listId) */\n      dup2\n        /* \"ProfitOrg/marketPlace.sol\":8285:8294  fiscalFee */\n      dup4\n        /* \"ProfitOrg/marketPlace.sol\":8258:8282  serviceFee + donationFee */\n      tag_234\n        /* \"ProfitOrg/marketPlace.sol\":8271:8282  donationFee */\n      dup8\n        /* \"ProfitOrg/marketPlace.sol\":8258:8268  serviceFee */\n      dup10\n        /* \"ProfitOrg/marketPlace.sol\":8258:8282  serviceFee + donationFee */\n      tag_235\n      jump\t// in\n    tag_234:\n        /* \"ProfitOrg/marketPlace.sol\":8258:8294  serviceFee + donationFee + fiscalFee */\n      tag_236\n      swap2\n      swap1\n      tag_235\n      jump\t// in\n    tag_236:\n        /* \"ProfitOrg/marketPlace.sol\":8258:8307  serviceFee + donationFee + fiscalFee + royaltyFee */\n      tag_237\n      swap2\n      swap1\n      tag_235\n      jump\t// in\n    tag_237:\n        /* \"ProfitOrg/marketPlace.sol\":8232:8248  listing[_listId] */\n      0x00\n      dup10\n      dup2\n      mstore\n        /* \"ProfitOrg/marketPlace.sol\":8232:8239  listing */\n      0x04\n        /* \"ProfitOrg/marketPlace.sol\":8232:8248  listing[_listId] */\n      0x20\n      mstore\n      0x40\n      swap1\n      keccak256\n        /* \"ProfitOrg/marketPlace.sol\":8232:8254  listing[_listId].price */\n      0x02\n      add\n      sload\n        /* \"ProfitOrg/marketPlace.sol\":8232:8308  listing[_listId].price - (serviceFee + donationFee + fiscalFee + royaltyFee) */\n      tag_238\n      swap2\n      swap1\n      tag_239\n      jump\t// in\n    tag_238:\n        /* \"ProfitOrg/marketPlace.sol\":8203:8308  uint256 amountSendToSeller = listing[_listId].price - (serviceFee + donationFee + fiscalFee + royaltyFee) */\n      swap1\n      pop\n        /* \"ProfitOrg/marketPlace.sol\":8327:8376  transferFundsInEth(payable (owner()) ,serviceFee) */\n      tag_240\n        /* \"ProfitOrg/marketPlace.sol\":8355:8362  owner() */\n      tag_241\n        /* \"ProfitOrg/marketPlace.sol\":8355:8360  owner */\n      tag_101\n        /* \"ProfitOrg/marketPlace.sol\":8355:8362  owner() */\n      jump\t// in\n    tag_241:\n        /* \"ProfitOrg/marketPlace.sol\":8365:8375  serviceFee */\n      dup8\n        /* \"ProfitOrg/marketPlace.sol\":8327:8345  transferFundsInEth */\n      tag_242\n        /* \"ProfitOrg/marketPlace.sol\":8327:8376  transferFundsInEth(payable (owner()) ,serviceFee) */\n      jump\t// in\n    tag_240:\n        /* \"ProfitOrg/marketPlace.sol\":8414:8430  listing[_listId] */\n      0x00\n      dup9\n      dup2\n      mstore\n        /* \"ProfitOrg/marketPlace.sol\":8414:8421  listing */\n      0x04\n        /* \"ProfitOrg/marketPlace.sol\":8414:8430  listing[_listId] */\n      0x20\n      mstore\n      0x40\n      swap1\n      keccak256\n        /* \"ProfitOrg/marketPlace.sol\":8414:8439  listing[_listId].nftOwner */\n      0x05\n      add\n      sload\n        /* \"ProfitOrg/marketPlace.sol\":8387:8462  transferFundsInEth(payable(listing[_listId].nftOwner) , amountSendToSeller) */\n      tag_243\n      swap1\n      sub(shl(0xa0, 0x01), 0x01)\n        /* \"ProfitOrg/marketPlace.sol\":8414:8439  listing[_listId].nftOwner */\n      and\n        /* \"ProfitOrg/marketPlace.sol\":8443:8461  amountSendToSeller */\n      dup3\n        /* \"ProfitOrg/marketPlace.sol\":8387:8405  transferFundsInEth */\n      tag_242\n        /* \"ProfitOrg/marketPlace.sol\":8387:8462  transferFundsInEth(payable(listing[_listId].nftOwner) , amountSendToSeller) */\n      jump\t// in\n    tag_243:\n        /* \"ProfitOrg/marketPlace.sol\":8481:8497  listing[_listId] */\n      0x00\n      dup9\n      dup2\n      mstore\n        /* \"ProfitOrg/marketPlace.sol\":8481:8488  listing */\n      0x04\n        /* \"ProfitOrg/marketPlace.sol\":8481:8497  listing[_listId] */\n      0x20\n      dup2\n      swap1\n      mstore\n      0x40\n      swap1\n      swap2\n      keccak256\n        /* \"ProfitOrg/marketPlace.sol\":8481:8515  listing[_listId].nftClaimed = true */\n      dup1\n      sload\n      not(0xff00)\n      and\n      0x0100\n      or\n      dup2\n      sstore\n        /* \"ProfitOrg/marketPlace.sol\":8551:8578  listing[_listId].nftAddress */\n      0x07\n      dup2\n      add\n      sload\n        /* \"ProfitOrg/marketPlace.sol\":8619:8644  listing[_listId].newOwner */\n      0x06\n      dup3\n      add\n      sload\n        /* \"ProfitOrg/marketPlace.sol\":8659:8683  listing[_listId].tokenId */\n      0x03\n      dup4\n      add\n      sload\n        /* \"ProfitOrg/marketPlace.sol\":8698:8725  listing[_listId].noOfCopies */\n      swap3\n      swap1\n      swap4\n      add\n      sload\n        /* \"ProfitOrg/marketPlace.sol\":8526:8735  transferNft(... */\n      tag_244\n      swap4\n      sub(shl(0xa0, 0x01), 0x01)\n        /* \"ProfitOrg/marketPlace.sol\":8551:8578  listing[_listId].nftAddress */\n      swap3\n      dup4\n      and\n      swap4\n        /* \"ProfitOrg/marketPlace.sol\":8600:8604  this */\n      address\n      swap4\n        /* \"ProfitOrg/marketPlace.sol\":8619:8644  listing[_listId].newOwner */\n      swap2\n      swap1\n      swap2\n      and\n      swap2\n        /* \"ProfitOrg/marketPlace.sol\":8526:8537  transferNft */\n      tag_245\n        /* \"ProfitOrg/marketPlace.sol\":8526:8735  transferNft(... */\n      jump\t// in\n    tag_244:\n        /* \"ProfitOrg/marketPlace.sol\":8837:8853  listing[_listId] */\n      0x00\n      dup9\n      dup2\n      mstore\n        /* \"ProfitOrg/marketPlace.sol\":8837:8844  listing */\n      0x04\n        /* \"ProfitOrg/marketPlace.sol\":8837:8853  listing[_listId] */\n      0x20\n      dup2\n      dup2\n      mstore\n      0x40\n      swap3\n      dup4\n      swap1\n      keccak256\n        /* \"ProfitOrg/marketPlace.sol\":8837:8864  listing[_listId].nftAddress */\n      0x07\n      dup2\n      add\n      sload\n        /* \"ProfitOrg/marketPlace.sol\":8799:8823  listing[_listId].tokenId */\n      0x03\n      dup3\n      add\n      sload\n        /* \"ProfitOrg/marketPlace.sol\":8878:8903  listing[_listId].newOwner */\n      0x06\n      dup4\n      add\n      sload\n        /* \"ProfitOrg/marketPlace.sol\":8917:8944  listing[_listId].noOfCopies */\n      swap3\n      swap1\n      swap5\n      add\n      sload\n        /* \"ProfitOrg/marketPlace.sol\":8751:8945  SoldNft(... */\n      dup6\n      mload\n        /* \"ProfitOrg/marketPlace.sol\":8780:8784  this */\n      address\n        /* \"#utility.yul\":15574:15625   */\n      dup2\n      mstore\n      sub(shl(0xa0, 0x01), 0x01)\n        /* \"ProfitOrg/marketPlace.sol\":8878:8903  listing[_listId].newOwner */\n      swap4\n      dup5\n      and\n        /* \"#utility.yul\":15641:15659   */\n      swap5\n      dup2\n      add\n        /* \"#utility.yul\":15634:15694   */\n      swap5\n      swap1\n      swap5\n      mstore\n        /* \"#utility.yul\":15710:15728   */\n      dup4\n      dup7\n      add\n        /* \"#utility.yul\":15703:15737   */\n      mstore\n        /* \"ProfitOrg/marketPlace.sol\":8751:8945  SoldNft(... */\n      swap4\n      mload\n        /* \"ProfitOrg/marketPlace.sol\":8837:8864  listing[_listId].nftAddress */\n      swap4\n      and\n      swap3\n        /* \"ProfitOrg/marketPlace.sol\":8751:8945  SoldNft(... */\n      0x01a7baf821561ae36aa58d172bd77037c6f9c19177e5b840e3d413c110a80e45\n      swap2\n      dup2\n      swap1\n      sub\n        /* \"#utility.yul\":15562:15564   */\n      0x60\n        /* \"ProfitOrg/marketPlace.sol\":8751:8945  SoldNft(... */\n      add\n      swap1\n      log3\n        /* \"ProfitOrg/marketPlace.sol\":9078:9096  amountSendToSeller */\n      dup1\n        /* \"ProfitOrg/marketPlace.sol\":9053:9064  donationFee */\n      dup6\n        /* \"ProfitOrg/marketPlace.sol\":9029:9039  serviceFee */\n      dup8\n        /* \"ProfitOrg/marketPlace.sol\":8961:9097  FeeInfo(... */\n      0x36203e70aeb15b48fc7b10549158c6acc3ba3235ba2644757016fb33d4fa3944\n        /* \"ProfitOrg/marketPlace.sol\":8982:8991  fiscalFee */\n      dup7\n        /* \"ProfitOrg/marketPlace.sol\":9005:9015  royaltyFee */\n      dup7\n        /* \"ProfitOrg/marketPlace.sol\":8961:9097  FeeInfo(... */\n      mload(0x40)\n      tag_248\n      swap3\n      swap2\n      swap1\n        /* \"#utility.yul\":15922:15947   */\n      swap2\n      dup3\n      mstore\n        /* \"#utility.yul\":15978:15980   */\n      0x20\n        /* \"#utility.yul\":15963:15981   */\n      dup3\n      add\n        /* \"#utility.yul\":15956:15990   */\n      mstore\n        /* \"#utility.yul\":15910:15912   */\n      0x40\n        /* \"#utility.yul\":15895:15913   */\n      add\n      swap1\n        /* \"#utility.yul\":15748:15996   */\n      jump\n        /* \"ProfitOrg/marketPlace.sol\":8961:9097  FeeInfo(... */\n    tag_248:\n      mload(0x40)\n      dup1\n      swap2\n      sub\n      swap1\n      log4\n        /* \"ProfitOrg/marketPlace.sol\":7008:9104  { ... */\n      pop\n      pop\n      pop\n      pop\n      pop\n      pop\n        /* \"ProfitOrg/marketPlace.sol\":6927:9104  function BuyFixedPriceItem(uint256 _listId) payable external checkSell(_listId)  { ... */\n      pop\n      pop\n      jump\t// out\n        /* \"@openzeppelin/contracts-upgradeable/proxy/utils/UUPSUpgradeable.sol\":4158:4372  function upgradeToAndCall(address newImplementation, bytes memory data) public payable virtual onlyProxy {... */\n    tag_69:\n        /* \"@openzeppelin/contracts-upgradeable/proxy/utils/UUPSUpgradeable.sol\":2653:2666  _checkProxy() */\n      tag_251\n        /* \"@openzeppelin/contracts-upgradeable/proxy/utils/UUPSUpgradeable.sol\":2653:2664  _checkProxy */\n      tag_252\n        /* \"@openzeppelin/contracts-upgradeable/proxy/utils/UUPSUpgradeable.sol\":2653:2666  _checkProxy() */\n      jump\t// in\n    tag_251:\n        /* \"@openzeppelin/contracts-upgradeable/proxy/utils/UUPSUpgradeable.sol\":4273:4309  _authorizeUpgrade(newImplementation) */\n      tag_254\n        /* \"@openzeppelin/contracts-upgradeable/proxy/utils/UUPSUpgradeable.sol\":4291:4308  newImplementation */\n      dup3\n        /* \"@openzeppelin/contracts-upgradeable/proxy/utils/UUPSUpgradeable.sol\":4273:4290  _authorizeUpgrade */\n      tag_255\n        /* \"@openzeppelin/contracts-upgradeable/proxy/utils/UUPSUpgradeable.sol\":4273:4309  _authorizeUpgrade(newImplementation) */\n      jump\t// in\n    tag_254:\n        /* \"@openzeppelin/contracts-upgradeable/proxy/utils/UUPSUpgradeable.sol\":4319:4365  _upgradeToAndCallUUPS(newImplementation, data) */\n      tag_256\n        /* \"@openzeppelin/contracts-upgradeable/proxy/utils/UUPSUpgradeable.sol\":4341:4358  newImplementation */\n      dup3\n        /* \"@openzeppelin/contracts-upgradeable/proxy/utils/UUPSUpgradeable.sol\":4360:4364  data */\n      dup3\n        /* \"@openzeppelin/contracts-upgradeable/proxy/utils/UUPSUpgradeable.sol\":4319:4340  _upgradeToAndCallUUPS */\n      tag_257\n        /* \"@openzeppelin/contracts-upgradeable/proxy/utils/UUPSUpgradeable.sol\":4319:4365  _upgradeToAndCallUUPS(newImplementation, data) */\n      jump\t// in\n    tag_256:\n        /* \"@openzeppelin/contracts-upgradeable/proxy/utils/UUPSUpgradeable.sol\":4158:4372  function upgradeToAndCall(address newImplementation, bytes memory data) public payable virtual onlyProxy {... */\n      pop\n      pop\n      jump\t// out\n        /* \"@openzeppelin/contracts-upgradeable/proxy/utils/UUPSUpgradeable.sol\":3705:3839  function proxiableUUID() external view virtual notDelegated returns (bytes32) {... */\n    tag_72:\n        /* \"@openzeppelin/contracts-upgradeable/proxy/utils/UUPSUpgradeable.sol\":3774:3781  bytes32 */\n      0x00\n        /* \"@openzeppelin/contracts-upgradeable/proxy/utils/UUPSUpgradeable.sol\":2924:2944  _checkNotDelegated() */\n      tag_259\n        /* \"@openzeppelin/contracts-upgradeable/proxy/utils/UUPSUpgradeable.sol\":2924:2942  _checkNotDelegated */\n      tag_260\n        /* \"@openzeppelin/contracts-upgradeable/proxy/utils/UUPSUpgradeable.sol\":2924:2944  _checkNotDelegated() */\n      jump\t// in\n    tag_259:\n      pop\n      0x00\n      dup1\n      mload\n      0x20\n      data_75b20eef8615de99c108b05f0dbda081c91897128caa336d75dffb97c4132b4d\n      dup4\n      codecopy\n      dup2\n      mload\n      swap2\n      mstore\n        /* \"@openzeppelin/contracts-upgradeable/proxy/utils/UUPSUpgradeable.sol\":3705:3839  function proxiableUUID() external view virtual notDelegated returns (bytes32) {... */\n      swap1\n      jump\t// out\n        /* \"@openzeppelin/contracts-upgradeable/access/OwnableUpgradeable.sol\":3155:3256  function renounceOwnership() public virtual onlyOwner {... */\n    tag_77:\n        /* \"@openzeppelin/contracts-upgradeable/access/OwnableUpgradeable.sol\":2334:2347  _checkOwner() */\n      tag_263\n        /* \"@openzeppelin/contracts-upgradeable/access/OwnableUpgradeable.sol\":2334:2345  _checkOwner */\n      tag_164\n        /* \"@openzeppelin/contracts-upgradeable/access/OwnableUpgradeable.sol\":2334:2347  _checkOwner() */\n      jump\t// in\n    tag_263:\n        /* \"@openzeppelin/contracts-upgradeable/access/OwnableUpgradeable.sol\":3219:3249  _transferOwnership(address(0)) */\n      tag_265\n        /* \"@openzeppelin/contracts-upgradeable/access/OwnableUpgradeable.sol\":3246:3247  0 */\n      0x00\n        /* \"@openzeppelin/contracts-upgradeable/access/OwnableUpgradeable.sol\":3219:3237  _transferOwnership */\n      tag_266\n        /* \"@openzeppelin/contracts-upgradeable/access/OwnableUpgradeable.sol\":3219:3249  _transferOwnership(address(0)) */\n      jump\t// in\n    tag_265:\n        /* \"@openzeppelin/contracts-upgradeable/access/OwnableUpgradeable.sol\":3155:3256  function renounceOwnership() public virtual onlyOwner {... */\n      jump\t// out\n        /* \"@openzeppelin/contracts-upgradeable/access/OwnableUpgradeable.sol\":2441:2585  function owner() public view virtual returns (address) {... */\n    tag_101:\n        /* \"@openzeppelin/contracts-upgradeable/access/OwnableUpgradeable.sol\":1313:1335  OwnableStorageLocation */\n      0x9016d09d72d40fdae2fd8ceac6b6234c7706214fd39c1cd1e609a0528c199300\n        /* \"@openzeppelin/contracts-upgradeable/access/OwnableUpgradeable.sol\":2570:2578  $._owner */\n      sload\n      sub(shl(0xa0, 0x01), 0x01)\n      and\n      swap1\n        /* \"@openzeppelin/contracts-upgradeable/access/OwnableUpgradeable.sol\":2441:2585  function owner() public view virtual returns (address) {... */\n      jump\t// out\n        /* \"ProfitOrg/marketPlace.sol\":10335:12548  function endAuction(uint256 _listId) external checkSell(_listId)  {... */\n    tag_115:\n        /* \"ProfitOrg/marketPlace.sol\":10391:10398  _listId */\n      dup1\n        /* \"ProfitOrg/marketPlace.sol\":21586:21587  0 */\n      0x00\n        /* \"ProfitOrg/marketPlace.sol\":21575:21582  _listId */\n      dup2\n        /* \"ProfitOrg/marketPlace.sol\":21575:21587  _listId <= 0 */\n      gt\n        /* \"ProfitOrg/marketPlace.sol\":21572:21643  if(_listId <= 0){... */\n      tag_271\n      jumpi\n        /* \"ProfitOrg/marketPlace.sol\":21609:21632  wrongListingId(_listId) */\n      mload(0x40)\n      shl(0xe0, 0xc860174b)\n      dup2\n      mstore\n      0x04\n      dup2\n      add\n        /* \"#utility.yul\":1587:1612   */\n      dup3\n      swap1\n      mstore\n        /* \"#utility.yul\":1560:1578   */\n      0x24\n      add\n        /* \"ProfitOrg/marketPlace.sol\":21609:21632  wrongListingId(_listId) */\n      tag_158\n        /* \"#utility.yul\":1441:1618   */\n      jump\n        /* \"ProfitOrg/marketPlace.sol\":21572:21643  if(_listId <= 0){... */\n    tag_271:\n        /* \"ProfitOrg/marketPlace.sol\":21657:21673  listing[_listId] */\n      0x00\n      dup2\n      dup2\n      mstore\n        /* \"ProfitOrg/marketPlace.sol\":21657:21664  listing */\n      0x04\n        /* \"ProfitOrg/marketPlace.sol\":21657:21673  listing[_listId] */\n      0x20\n      mstore\n      0x40\n      swap1\n      keccak256\n        /* \"ProfitOrg/marketPlace.sol\":21657:21680  listing[_listId].listed */\n      sload\n      0xff\n      and\n        /* \"ProfitOrg/marketPlace.sol\":21653:21747  if(!listing[_listId].listed){... */\n      tag_273\n      jumpi\n        /* \"ProfitOrg/marketPlace.sol\":21712:21728  listing[_listId] */\n      0x00\n      dup2\n      dup2\n      mstore\n        /* \"ProfitOrg/marketPlace.sol\":21712:21719  listing */\n      0x04\n        /* \"ProfitOrg/marketPlace.sol\":21712:21728  listing[_listId] */\n      0x20\n      dup2\n      swap1\n      mstore\n      0x40\n      swap2\n      dup3\n      swap1\n      keccak256\n        /* \"ProfitOrg/marketPlace.sol\":21712:21735  listing[_listId].listed */\n      sload\n        /* \"ProfitOrg/marketPlace.sol\":21702:21736  notListed(listing[_listId].listed) */\n      swap2\n      mload\n      shl(0xe0, 0xe6c1c637)\n      dup2\n      mstore\n        /* \"ProfitOrg/marketPlace.sol\":21712:21735  listing[_listId].listed */\n      0xff\n      swap1\n      swap3\n      and\n        /* \"#utility.yul\":470:484   */\n      iszero\n        /* \"#utility.yul\":463:485   */\n      iszero\n        /* \"ProfitOrg/marketPlace.sol\":21702:21736  notListed(listing[_listId].listed) */\n      swap1\n      dup3\n      add\n        /* \"#utility.yul\":445:486   */\n      mstore\n        /* \"#utility.yul\":418:436   */\n      0x24\n      add\n        /* \"ProfitOrg/marketPlace.sol\":21702:21736  notListed(listing[_listId].listed) */\n      tag_158\n        /* \"#utility.yul\":305:492   */\n      jump\n        /* \"ProfitOrg/marketPlace.sol\":21653:21747  if(!listing[_listId].listed){... */\n    tag_273:\n        /* \"ProfitOrg/marketPlace.sol\":21760:21776  listing[_listId] */\n      0x00\n      dup2\n      dup2\n      mstore\n        /* \"ProfitOrg/marketPlace.sol\":21760:21767  listing */\n      0x04\n        /* \"ProfitOrg/marketPlace.sol\":21760:21776  listing[_listId] */\n      0x20\n      mstore\n      0x40\n      swap1\n      keccak256\n        /* \"ProfitOrg/marketPlace.sol\":21760:21787  listing[_listId].nftClaimed */\n      sload\n      0x0100\n      swap1\n      div\n      0xff\n      and\n        /* \"ProfitOrg/marketPlace.sol\":21757:21863  if(listing[_listId].nftClaimed){... */\n      iszero\n      tag_275\n      jumpi\n        /* \"ProfitOrg/marketPlace.sol\":21824:21840  listing[_listId] */\n      0x00\n      dup2\n      dup2\n      mstore\n        /* \"ProfitOrg/marketPlace.sol\":21824:21831  listing */\n      0x04\n        /* \"ProfitOrg/marketPlace.sol\":21824:21840  listing[_listId] */\n      0x20\n      dup2\n      swap1\n      mstore\n      0x40\n      swap2\n      dup3\n      swap1\n      keccak256\n        /* \"ProfitOrg/marketPlace.sol\":21824:21851  listing[_listId].nftClaimed */\n      sload\n        /* \"ProfitOrg/marketPlace.sol\":21809:21852  alreadyClaimed(listing[_listId].nftClaimed) */\n      swap2\n      mload\n      shl(0xe9, 0x246805)\n      dup2\n      mstore\n        /* \"ProfitOrg/marketPlace.sol\":21824:21851  listing[_listId].nftClaimed */\n      0x0100\n      swap1\n      swap3\n      div\n      0xff\n      and\n        /* \"#utility.yul\":470:484   */\n      iszero\n        /* \"#utility.yul\":463:485   */\n      iszero\n        /* \"ProfitOrg/marketPlace.sol\":21809:21852  alreadyClaimed(listing[_listId].nftClaimed) */\n      swap1\n      dup3\n      add\n        /* \"#utility.yul\":445:486   */\n      mstore\n        /* \"#utility.yul\":418:436   */\n      0x24\n      add\n        /* \"ProfitOrg/marketPlace.sol\":21809:21852  alreadyClaimed(listing[_listId].nftClaimed) */\n      tag_158\n        /* \"#utility.yul\":305:492   */\n      jump\n        /* \"ProfitOrg/marketPlace.sol\":21757:21863  if(listing[_listId].nftClaimed){... */\n    tag_275:\n        /* \"ProfitOrg/marketPlace.sol\":10415:10431  listing[_listId] */\n      0x00\n      dup3\n      dup2\n      mstore\n        /* \"ProfitOrg/marketPlace.sol\":10415:10422  listing */\n      0x04\n        /* \"ProfitOrg/marketPlace.sol\":10415:10431  listing[_listId] */\n      0x20\n      mstore\n      0x40\n      swap1\n      keccak256\n        /* \"ProfitOrg/marketPlace.sol\":10415:10442  listing[_listId].fixedPrice */\n      sload\n      0x010000\n      swap1\n      div\n      0xff\n      and\n        /* \"ProfitOrg/marketPlace.sol\":10412:10516  if(listing[_listId].fixedPrice){... */\n      iszero\n      tag_278\n      jumpi\n        /* \"ProfitOrg/marketPlace.sol\":10477:10493  listing[_listId] */\n      0x00\n      dup3\n      dup2\n      mstore\n        /* \"ProfitOrg/marketPlace.sol\":10477:10484  listing */\n      0x04\n        /* \"ProfitOrg/marketPlace.sol\":10477:10493  listing[_listId] */\n      0x20\n      dup2\n      swap1\n      mstore\n      0x40\n      swap2\n      dup3\n      swap1\n      keccak256\n        /* \"ProfitOrg/marketPlace.sol\":10477:10504  listing[_listId].fixedPrice */\n      sload\n        /* \"ProfitOrg/marketPlace.sol\":10464:10505  onFixedPrice(listing[_listId].fixedPrice) */\n      swap2\n      mload\n      shl(0xe1, 0x2a515af5)\n      dup2\n      mstore\n        /* \"ProfitOrg/marketPlace.sol\":10477:10504  listing[_listId].fixedPrice */\n      0x010000\n      swap1\n      swap3\n      div\n      0xff\n      and\n        /* \"#utility.yul\":470:484   */\n      iszero\n        /* \"#utility.yul\":463:485   */\n      iszero\n        /* \"ProfitOrg/marketPlace.sol\":10464:10505  onFixedPrice(listing[_listId].fixedPrice) */\n      swap1\n      dup3\n      add\n        /* \"#utility.yul\":445:486   */\n      mstore\n        /* \"#utility.yul\":418:436   */\n      0x24\n      add\n        /* \"ProfitOrg/marketPlace.sol\":10464:10505  onFixedPrice(listing[_listId].fixedPrice) */\n      tag_158\n        /* \"#utility.yul\":305:492   */\n      jump\n        /* \"ProfitOrg/marketPlace.sol\":10412:10516  if(listing[_listId].fixedPrice){... */\n    tag_278:\n        /* \"ProfitOrg/marketPlace.sol\":10548:10564  listing[_listId] */\n      0x00\n      dup3\n      dup2\n      mstore\n        /* \"ProfitOrg/marketPlace.sol\":10548:10555  listing */\n      0x04\n        /* \"ProfitOrg/marketPlace.sol\":10548:10564  listing[_listId] */\n      0x20\n      mstore\n      0x40\n      swap1\n      keccak256\n        /* \"ProfitOrg/marketPlace.sol\":10548:10573  listing[_listId].nftOwner */\n      0x05\n      add\n      sload\n      sub(shl(0xa0, 0x01), 0x01)\n      and\n        /* \"ProfitOrg/marketPlace.sol\":10534:10544  msg.sender */\n      caller\n        /* \"ProfitOrg/marketPlace.sol\":10534:10573  msg.sender == listing[_listId].nftOwner */\n      eq\n      dup1\n        /* \"ProfitOrg/marketPlace.sol\":10534:10616  msg.sender == listing[_listId].nftOwner || msg.sender == listing[_listId].newOwner */\n      tag_280\n      jumpi\n      pop\n        /* \"ProfitOrg/marketPlace.sol\":10591:10607  listing[_listId] */\n      0x00\n      dup3\n      dup2\n      mstore\n        /* \"ProfitOrg/marketPlace.sol\":10591:10598  listing */\n      0x04\n        /* \"ProfitOrg/marketPlace.sol\":10591:10607  listing[_listId] */\n      0x20\n      mstore\n      0x40\n      swap1\n      keccak256\n        /* \"ProfitOrg/marketPlace.sol\":10591:10616  listing[_listId].newOwner */\n      0x06\n      add\n      sload\n      sub(shl(0xa0, 0x01), 0x01)\n      and\n        /* \"ProfitOrg/marketPlace.sol\":10577:10587  msg.sender */\n      caller\n        /* \"ProfitOrg/marketPlace.sol\":10577:10616  msg.sender == listing[_listId].newOwner */\n      eq\n        /* \"ProfitOrg/marketPlace.sol\":10534:10616  msg.sender == listing[_listId].nftOwner || msg.sender == listing[_listId].newOwner */\n    tag_280:\n        /* \"ProfitOrg/marketPlace.sol\":10526:10687  require(msg.sender == listing[_listId].nftOwner || msg.sender == listing[_listId].newOwner,... */\n      tag_281\n      jumpi\n      mload(0x40)\n      shl(0xe5, 0x461bcd)\n      dup2\n      mstore\n        /* \"#utility.yul\":16203:16205   */\n      0x20\n        /* \"ProfitOrg/marketPlace.sol\":10526:10687  require(msg.sender == listing[_listId].nftOwner || msg.sender == listing[_listId].newOwner,... */\n      0x04\n      dup3\n      add\n        /* \"#utility.yul\":16185:16206   */\n      mstore\n        /* \"#utility.yul\":16242:16244   */\n      0x35\n        /* \"#utility.yul\":16222:16240   */\n      0x24\n      dup3\n      add\n        /* \"#utility.yul\":16215:16245   */\n      mstore\n        /* \"#utility.yul\":16281:16315   */\n      0x596f7520617265206e6f7420746865206e66744f776e6572206e656974686572\n        /* \"#utility.yul\":16261:16279   */\n      0x44\n      dup3\n      add\n        /* \"#utility.yul\":16254:16316   */\n      mstore\n      shl(0x59, 0x103a3432903432b4b3b432b9ba103134b23232b917)\n        /* \"#utility.yul\":16332:16350   */\n      0x64\n      dup3\n      add\n        /* \"#utility.yul\":16325:16376   */\n      mstore\n        /* \"#utility.yul\":16393:16412   */\n      0x84\n      add\n        /* \"ProfitOrg/marketPlace.sol\":10526:10687  require(msg.sender == listing[_listId].nftOwner || msg.sender == listing[_listId].newOwner,... */\n      tag_158\n        /* \"#utility.yul\":16001:16418   */\n      jump\n        /* \"ProfitOrg/marketPlace.sol\":10526:10687  require(msg.sender == listing[_listId].nftOwner || msg.sender == listing[_listId].newOwner,... */\n    tag_281:\n        /* \"ProfitOrg/marketPlace.sol\":10719:10735  listing[_listId] */\n      0x00\n      dup3\n      dup2\n      mstore\n        /* \"ProfitOrg/marketPlace.sol\":10719:10726  listing */\n      0x04\n        /* \"ProfitOrg/marketPlace.sol\":10719:10735  listing[_listId] */\n      0x20\n      mstore\n      0x40\n      swap1\n      keccak256\n        /* \"ProfitOrg/marketPlace.sol\":10719:10750  listing[_listId].listingEndTime */\n      0x08\n      add\n      sload\n        /* \"ProfitOrg/marketPlace.sol\":10701:10716  block.timestamp */\n      timestamp\n        /* \"ProfitOrg/marketPlace.sol\":10701:10750  block.timestamp < listing[_listId].listingEndTime */\n      lt\n        /* \"ProfitOrg/marketPlace.sol\":10698:10866  if(block.timestamp < listing[_listId].listingEndTime){... */\n      iszero\n      tag_284\n      jumpi\n        /* \"ProfitOrg/marketPlace.sol\":10789:10805  listing[_listId] */\n      0x00\n      dup3\n      dup2\n      mstore\n        /* \"ProfitOrg/marketPlace.sol\":10789:10796  listing */\n      0x04\n        /* \"ProfitOrg/marketPlace.sol\":10789:10805  listing[_listId] */\n      0x20\n      dup2\n      swap1\n      mstore\n      0x40\n      swap2\n      dup3\n      swap1\n      keccak256\n        /* \"ProfitOrg/marketPlace.sol\":10789:10822  listing[_listId].listingStartTime */\n      0x09\n      dup2\n      add\n      sload\n        /* \"ProfitOrg/marketPlace.sol\":10823:10854  listing[_listId].listingEndTime */\n      0x08\n      swap1\n      swap2\n      add\n      sload\n        /* \"ProfitOrg/marketPlace.sol\":10772:10855  invalidTimeStamp(listing[_listId].listingStartTime,listing[_listId].listingEndTime) */\n      swap3\n      mload\n      shl(0xe0, 0xdd96246f)\n      dup2\n      mstore\n      swap2\n      dup3\n      add\n        /* \"#utility.yul\":15922:15947   */\n      mstore\n        /* \"#utility.yul\":15963:15981   */\n      0x24\n      dup2\n      add\n        /* \"#utility.yul\":15956:15990   */\n      swap2\n      swap1\n      swap2\n      mstore\n        /* \"#utility.yul\":15895:15913   */\n      0x44\n      add\n        /* \"ProfitOrg/marketPlace.sol\":10772:10855  invalidTimeStamp(listing[_listId].listingStartTime,listing[_listId].listingEndTime) */\n      tag_158\n        /* \"#utility.yul\":15748:15996   */\n      jump\n        /* \"ProfitOrg/marketPlace.sol\":10698:10866  if(block.timestamp < listing[_listId].listingEndTime){... */\n    tag_284:\n        /* \"ProfitOrg/marketPlace.sol\":10885:10903  uint256 serviceFee */\n      0x00\n        /* \"ProfitOrg/marketPlace.sol\":10918:10934  listing[_listId] */\n      dup3\n      dup2\n      mstore\n        /* \"ProfitOrg/marketPlace.sol\":10918:10925  listing */\n      0x04\n        /* \"ProfitOrg/marketPlace.sol\":10918:10934  listing[_listId] */\n      0x20\n      mstore\n      0x40\n      dup2\n      keccak256\n        /* \"ProfitOrg/marketPlace.sol\":10918:10955  listing[_listId].serviceFeePercentage */\n      0x01\n      add\n      sload\n        /* \"ProfitOrg/marketPlace.sol\":10918:10960  listing[_listId].serviceFeePercentage != 0 */\n      iszero\n        /* \"ProfitOrg/marketPlace.sol\":10914:11186  if (listing[_listId].serviceFeePercentage != 0){... */\n      tag_216\n      jumpi\n        /* \"ProfitOrg/marketPlace.sol\":11014:11030  listing[_listId] */\n      0x00\n      dup4\n      dup2\n      mstore\n        /* \"ProfitOrg/marketPlace.sol\":11014:11021  listing */\n      0x04\n        /* \"ProfitOrg/marketPlace.sol\":11014:11030  listing[_listId] */\n      0x20\n      mstore\n      0x40\n      swap1\n      keccak256\n        /* \"ProfitOrg/marketPlace.sol\":11014:11036  listing[_listId].price */\n      0x02\n      dup2\n      add\n      sload\n        /* \"ProfitOrg/marketPlace.sol\":11038:11075  listing[_listId].serviceFeePercentage */\n      0x01\n      swap1\n      swap2\n      add\n      sload\n        /* \"ProfitOrg/marketPlace.sol\":11002:11076  calulateFee(listing[_listId].price, listing[_listId].serviceFeePercentage) */\n      tag_217\n      swap2\n        /* \"ProfitOrg/marketPlace.sol\":11014:11036  listing[_listId].price */\n      swap1\n        /* \"ProfitOrg/marketPlace.sol\":11002:11013  calulateFee */\n      tag_218\n        /* \"ProfitOrg/marketPlace.sol\":11002:11076  calulateFee(listing[_listId].price, listing[_listId].serviceFeePercentage) */\n      jump\t// in\n        /* \"ProfitOrg/marketPlace.sol\":9111:10325  function startBid( uint256 _listId)  external payable checkSell(_listId)  {... */\n    tag_125:\n        /* \"ProfitOrg/marketPlace.sol\":9175:9182  _listId */\n      dup1\n        /* \"ProfitOrg/marketPlace.sol\":21586:21587  0 */\n      0x00\n        /* \"ProfitOrg/marketPlace.sol\":21575:21582  _listId */\n      dup2\n        /* \"ProfitOrg/marketPlace.sol\":21575:21587  _listId <= 0 */\n      gt\n        /* \"ProfitOrg/marketPlace.sol\":21572:21643  if(_listId <= 0){... */\n      tag_311\n      jumpi\n        /* \"ProfitOrg/marketPlace.sol\":21609:21632  wrongListingId(_listId) */\n      mload(0x40)\n      shl(0xe0, 0xc860174b)\n      dup2\n      mstore\n      0x04\n      dup2\n      add\n        /* \"#utility.yul\":1587:1612   */\n      dup3\n      swap1\n      mstore\n        /* \"#utility.yul\":1560:1578   */\n      0x24\n      add\n        /* \"ProfitOrg/marketPlace.sol\":21609:21632  wrongListingId(_listId) */\n      tag_158\n        /* \"#utility.yul\":1441:1618   */\n      jump\n        /* \"ProfitOrg/marketPlace.sol\":21572:21643  if(_listId <= 0){... */\n    tag_311:\n        /* \"ProfitOrg/marketPlace.sol\":21657:21673  listing[_listId] */\n      0x00\n      dup2\n      dup2\n      mstore\n        /* \"ProfitOrg/marketPlace.sol\":21657:21664  listing */\n      0x04\n        /* \"ProfitOrg/marketPlace.sol\":21657:21673  listing[_listId] */\n      0x20\n      mstore\n      0x40\n      swap1\n      keccak256\n        /* \"ProfitOrg/marketPlace.sol\":21657:21680  listing[_listId].listed */\n      sload\n      0xff\n      and\n        /* \"ProfitOrg/marketPlace.sol\":21653:21747  if(!listing[_listId].listed){... */\n      tag_313\n      jumpi\n        /* \"ProfitOrg/marketPlace.sol\":21712:21728  listing[_listId] */\n      0x00\n      dup2\n      dup2\n      mstore\n        /* \"ProfitOrg/marketPlace.sol\":21712:21719  listing */\n      0x04\n        /* \"ProfitOrg/marketPlace.sol\":21712:21728  listing[_listId] */\n      0x20\n      dup2\n      swap1\n      mstore\n      0x40\n      swap2\n      dup3\n      swap1\n      keccak256\n        /* \"ProfitOrg/marketPlace.sol\":21712:21735  listing[_listId].listed */\n      sload\n        /* \"ProfitOrg/marketPlace.sol\":21702:21736  notListed(listing[_listId].listed) */\n      swap2\n      mload\n      shl(0xe0, 0xe6c1c637)\n      dup2\n      mstore\n        /* \"ProfitOrg/marketPlace.sol\":21712:21735  listing[_listId].listed */\n      0xff\n      swap1\n      swap3\n      and\n        /* \"#utility.yul\":470:484   */\n      iszero\n        /* \"#utility.yul\":463:485   */\n      iszero\n        /* \"ProfitOrg/marketPlace.sol\":21702:21736  notListed(listing[_listId].listed) */\n      swap1\n      dup3\n      add\n        /* \"#utility.yul\":445:486   */\n      mstore\n        /* \"#utility.yul\":418:436   */\n      0x24\n      add\n        /* \"ProfitOrg/marketPlace.sol\":21702:21736  notListed(listing[_listId].listed) */\n      tag_158\n        /* \"#utility.yul\":305:492   */\n      jump\n        /* \"ProfitOrg/marketPlace.sol\":21653:21747  if(!listing[_listId].listed){... */\n    tag_313:\n        /* \"ProfitOrg/marketPlace.sol\":21760:21776  listing[_listId] */\n      0x00\n      dup2\n      dup2\n      mstore\n        /* \"ProfitOrg/marketPlace.sol\":21760:21767  listing */\n      0x04\n        /* \"ProfitOrg/marketPlace.sol\":21760:21776  listing[_listId] */\n      0x20\n      mstore\n      0x40\n      swap1\n      keccak256\n        /* \"ProfitOrg/marketPlace.sol\":21760:21787  listing[_listId].nftClaimed */\n      sload\n      0x0100\n      swap1\n      div\n      0xff\n      and\n        /* \"ProfitOrg/marketPlace.sol\":21757:21863  if(listing[_listId].nftClaimed){... */\n      iszero\n      tag_315\n      jumpi\n        /* \"ProfitOrg/marketPlace.sol\":21824:21840  listing[_listId] */\n      0x00\n      dup2\n      dup2\n      mstore\n        /* \"ProfitOrg/marketPlace.sol\":21824:21831  listing */\n      0x04\n        /* \"ProfitOrg/marketPlace.sol\":21824:21840  listing[_listId] */\n      0x20\n      dup2\n      swap1\n      mstore\n      0x40\n      swap2\n      dup3\n      swap1\n      keccak256\n        /* \"ProfitOrg/marketPlace.sol\":21824:21851  listing[_listId].nftClaimed */\n      sload\n        /* \"ProfitOrg/marketPlace.sol\":21809:21852  alreadyClaimed(listing[_listId].nftClaimed) */\n      swap2\n      mload\n      shl(0xe9, 0x246805)\n      dup2\n      mstore\n        /* \"ProfitOrg/marketPlace.sol\":21824:21851  listing[_listId].nftClaimed */\n      0x0100\n      swap1\n      swap3\n      div\n      0xff\n      and\n        /* \"#utility.yul\":470:484   */\n      iszero\n        /* \"#utility.yul\":463:485   */\n      iszero\n        /* \"ProfitOrg/marketPlace.sol\":21809:21852  alreadyClaimed(listing[_listId].nftClaimed) */\n      swap1\n      dup3\n      add\n        /* \"#utility.yul\":445:486   */\n      mstore\n        /* \"#utility.yul\":418:436   */\n      0x24\n      add\n        /* \"ProfitOrg/marketPlace.sol\":21809:21852  alreadyClaimed(listing[_listId].nftClaimed) */\n      tag_158\n        /* \"#utility.yul\":305:492   */\n      jump\n        /* \"ProfitOrg/marketPlace.sol\":21757:21863  if(listing[_listId].nftClaimed){... */\n    tag_315:\n        /* \"ProfitOrg/marketPlace.sol\":9199:9215  listing[_listId] */\n      0x00\n      dup3\n      dup2\n      mstore\n        /* \"ProfitOrg/marketPlace.sol\":9199:9206  listing */\n      0x04\n        /* \"ProfitOrg/marketPlace.sol\":9199:9215  listing[_listId] */\n      0x20\n      mstore\n      0x40\n      swap1\n      keccak256\n        /* \"ProfitOrg/marketPlace.sol\":9199:9226  listing[_listId].fixedPrice */\n      sload\n      0x010000\n      swap1\n      div\n      0xff\n      and\n        /* \"ProfitOrg/marketPlace.sol\":9196:9300  if(listing[_listId].fixedPrice){... */\n      iszero\n      tag_318\n      jumpi\n        /* \"ProfitOrg/marketPlace.sol\":9261:9277  listing[_listId] */\n      0x00\n      dup3\n      dup2\n      mstore\n        /* \"ProfitOrg/marketPlace.sol\":9261:9268  listing */\n      0x04\n        /* \"ProfitOrg/marketPlace.sol\":9261:9277  listing[_listId] */\n      0x20\n      dup2\n      swap1\n      mstore\n      0x40\n      swap2\n      dup3\n      swap1\n      keccak256\n        /* \"ProfitOrg/marketPlace.sol\":9261:9288  listing[_listId].fixedPrice */\n      sload\n        /* \"ProfitOrg/marketPlace.sol\":9248:9289  onFixedPrice(listing[_listId].fixedPrice) */\n      swap2\n      mload\n      shl(0xe1, 0x2a515af5)\n      dup2\n      mstore\n        /* \"ProfitOrg/marketPlace.sol\":9261:9288  listing[_listId].fixedPrice */\n      0x010000\n      swap1\n      swap3\n      div\n      0xff\n      and\n        /* \"#utility.yul\":470:484   */\n      iszero\n        /* \"#utility.yul\":463:485   */\n      iszero\n        /* \"ProfitOrg/marketPlace.sol\":9248:9289  onFixedPrice(listing[_listId].fixedPrice) */\n      swap1\n      dup3\n      add\n        /* \"#utility.yul\":445:486   */\n      mstore\n        /* \"#utility.yul\":418:436   */\n      0x24\n      add\n        /* \"ProfitOrg/marketPlace.sol\":9248:9289  onFixedPrice(listing[_listId].fixedPrice) */\n      tag_158\n        /* \"#utility.yul\":305:492   */\n      jump\n        /* \"ProfitOrg/marketPlace.sol\":9196:9300  if(listing[_listId].fixedPrice){... */\n    tag_318:\n        /* \"ProfitOrg/marketPlace.sol\":9321:9330  msg.value */\n      callvalue\n        /* \"ProfitOrg/marketPlace.sol\":9321:9336  msg.value <=  0 */\n      iszero\n      dup1\n        /* \"ProfitOrg/marketPlace.sol\":9321:9374  msg.value <=  0 || msg.value < listing[_listId].price */\n      tag_320\n      jumpi\n      pop\n        /* \"ProfitOrg/marketPlace.sol\":9352:9368  listing[_listId] */\n      0x00\n      dup3\n      dup2\n      mstore\n        /* \"ProfitOrg/marketPlace.sol\":9352:9359  listing */\n      0x04\n        /* \"ProfitOrg/marketPlace.sol\":9352:9368  listing[_listId] */\n      0x20\n      mstore\n      0x40\n      swap1\n      keccak256\n        /* \"ProfitOrg/marketPlace.sol\":9352:9374  listing[_listId].price */\n      0x02\n      add\n      sload\n        /* \"ProfitOrg/marketPlace.sol\":9340:9349  msg.value */\n      callvalue\n        /* \"ProfitOrg/marketPlace.sol\":9340:9374  msg.value < listing[_listId].price */\n      lt\n        /* \"ProfitOrg/marketPlace.sol\":9321:9374  msg.value <=  0 || msg.value < listing[_listId].price */\n    tag_320:\n        /* \"ProfitOrg/marketPlace.sol\":9318:9428  if(msg.value <=  0 || msg.value < listing[_listId].price){... */\n      iszero\n      tag_321\n      jumpi\n        /* \"ProfitOrg/marketPlace.sol\":9396:9417  invalidFee(msg.value) */\n      mload(0x40)\n      shl(0xe0, 0x85d649f7)\n      dup2\n      mstore\n        /* \"ProfitOrg/marketPlace.sol\":9407:9416  msg.value */\n      callvalue\n        /* \"ProfitOrg/marketPlace.sol\":9396:9417  invalidFee(msg.value) */\n      0x04\n      dup3\n      add\n        /* \"#utility.yul\":1587:1612   */\n      mstore\n        /* \"#utility.yul\":1560:1578   */\n      0x24\n      add\n        /* \"ProfitOrg/marketPlace.sol\":9396:9417  invalidFee(msg.value) */\n      tag_158\n        /* \"#utility.yul\":1441:1618   */\n      jump\n        /* \"ProfitOrg/marketPlace.sol\":9318:9428  if(msg.value <=  0 || msg.value < listing[_listId].price){... */\n    tag_321:\n        /* \"ProfitOrg/marketPlace.sol\":9468:9484  listing[_listId] */\n      0x00\n      dup3\n      dup2\n      mstore\n        /* \"ProfitOrg/marketPlace.sol\":9468:9475  listing */\n      0x04\n        /* \"ProfitOrg/marketPlace.sol\":9468:9484  listing[_listId] */\n      0x20\n      mstore\n      0x40\n      swap1\n      keccak256\n        /* \"ProfitOrg/marketPlace.sol\":9468:9501  listing[_listId].listingStartTime */\n      0x09\n      add\n      sload\n        /* \"ProfitOrg/marketPlace.sol\":9450:9465  block.timestamp */\n      timestamp\n        /* \"ProfitOrg/marketPlace.sol\":9450:9501  block.timestamp < listing[_listId].listingStartTime */\n      lt\n      dup1\n        /* \"ProfitOrg/marketPlace.sol\":9450:9554  block.timestamp < listing[_listId].listingStartTime || block.timestamp > listing[_listId].listingEndTime */\n      tag_323\n      jumpi\n      pop\n        /* \"ProfitOrg/marketPlace.sol\":9523:9539  listing[_listId] */\n      0x00\n      dup3\n      dup2\n      mstore\n        /* \"ProfitOrg/marketPlace.sol\":9523:9530  listing */\n      0x04\n        /* \"ProfitOrg/marketPlace.sol\":9523:9539  listing[_listId] */\n      0x20\n      mstore\n      0x40\n      swap1\n      keccak256\n        /* \"ProfitOrg/marketPlace.sol\":9523:9554  listing[_listId].listingEndTime */\n      0x08\n      add\n      sload\n        /* \"ProfitOrg/marketPlace.sol\":9505:9520  block.timestamp */\n      timestamp\n        /* \"ProfitOrg/marketPlace.sol\":9505:9554  block.timestamp > listing[_listId].listingEndTime */\n      gt\n        /* \"ProfitOrg/marketPlace.sol\":9450:9554  block.timestamp < listing[_listId].listingStartTime || block.timestamp > listing[_listId].listingEndTime */\n    tag_323:\n        /* \"ProfitOrg/marketPlace.sol\":9447:9671  if(block.timestamp < listing[_listId].listingStartTime || block.timestamp > listing[_listId].listingEndTime){... */\n      iszero\n      tag_324\n      jumpi\n        /* \"ProfitOrg/marketPlace.sol\":9593:9609  listing[_listId] */\n      0x00\n      dup3\n      dup2\n      mstore\n        /* \"ProfitOrg/marketPlace.sol\":9593:9600  listing */\n      0x04\n        /* \"ProfitOrg/marketPlace.sol\":9593:9609  listing[_listId] */\n      0x20\n      dup2\n      swap1\n      mstore\n      0x40\n      swap2\n      dup3\n      swap1\n      keccak256\n        /* \"ProfitOrg/marketPlace.sol\":9593:9626  listing[_listId].listingStartTime */\n      0x09\n      dup2\n      add\n      sload\n        /* \"ProfitOrg/marketPlace.sol\":9627:9658  listing[_listId].listingEndTime */\n      0x08\n      swap1\n      swap2\n      add\n      sload\n        /* \"ProfitOrg/marketPlace.sol\":9576:9660  invalidTimeStamp(listing[_listId].listingStartTime,listing[_listId].listingEndTime ) */\n      swap3\n      mload\n      shl(0xe0, 0xdd96246f)\n      dup2\n      mstore\n      swap2\n      dup3\n      add\n        /* \"#utility.yul\":15922:15947   */\n      mstore\n        /* \"#utility.yul\":15963:15981   */\n      0x24\n      dup2\n      add\n        /* \"#utility.yul\":15956:15990   */\n      swap2\n      swap1\n      swap2\n      mstore\n        /* \"#utility.yul\":15895:15913   */\n      0x44\n      add\n        /* \"ProfitOrg/marketPlace.sol\":9576:9660  invalidTimeStamp(listing[_listId].listingStartTime,listing[_listId].listingEndTime ) */\n      tag_158\n        /* \"#utility.yul\":15748:15996   */\n      jump\n        /* \"ProfitOrg/marketPlace.sol\":9447:9671  if(block.timestamp < listing[_listId].listingStartTime || block.timestamp > listing[_listId].listingEndTime){... */\n    tag_324:\n        /* \"ProfitOrg/marketPlace.sol\":9699:9715  listing[_listId] */\n      0x00\n      dup3\n      dup2\n      mstore\n        /* \"ProfitOrg/marketPlace.sol\":9699:9706  listing */\n      0x04\n        /* \"ProfitOrg/marketPlace.sol\":9699:9715  listing[_listId] */\n      0x20\n      mstore\n      0x40\n      swap1\n      keccak256\n        /* \"ProfitOrg/marketPlace.sol\":9699:9724  listing[_listId].nftOwner */\n      0x05\n      add\n      sload\n      sub(shl(0xa0, 0x01), 0x01)\n      and\n        /* \"ProfitOrg/marketPlace.sol\":9685:9695  msg.sender */\n      caller\n        /* \"ProfitOrg/marketPlace.sol\":9685:9724  msg.sender == listing[_listId].nftOwner */\n      sub\n        /* \"ProfitOrg/marketPlace.sol\":9682:9796  if(msg.sender == listing[_listId].nftOwner){... */\n      tag_326\n      jumpi\n        /* \"ProfitOrg/marketPlace.sol\":9759:9775  listing[_listId] */\n      0x00\n      dup3\n      dup2\n      mstore\n        /* \"ProfitOrg/marketPlace.sol\":9759:9766  listing */\n      0x04\n        /* \"ProfitOrg/marketPlace.sol\":9759:9775  listing[_listId] */\n      0x20\n      dup2\n      swap1\n      mstore\n      0x40\n      swap2\n      dup3\n      swap1\n      keccak256\n        /* \"ProfitOrg/marketPlace.sol\":9759:9784  listing[_listId].nftOwner */\n      0x05\n      add\n      sload\n        /* \"ProfitOrg/marketPlace.sol\":9746:9785  ownerCantBuy(listing[_listId].nftOwner) */\n      swap2\n      mload\n      shl(0xe5, 0x04a83c1b)\n      dup2\n      mstore\n      sub(shl(0xa0, 0x01), 0x01)\n        /* \"ProfitOrg/marketPlace.sol\":9759:9784  listing[_listId].nftOwner */\n      swap1\n      swap3\n      and\n        /* \"ProfitOrg/marketPlace.sol\":9746:9785  ownerCantBuy(listing[_listId].nftOwner) */\n      swap1\n      dup3\n      add\n        /* \"#utility.yul\":4276:4327   */\n      mstore\n        /* \"#utility.yul\":4249:4267   */\n      0x24\n      add\n        /* \"ProfitOrg/marketPlace.sol\":9746:9785  ownerCantBuy(listing[_listId].nftOwner) */\n      tag_158\n        /* \"#utility.yul\":4130:4333   */\n      jump\n        /* \"ProfitOrg/marketPlace.sol\":9682:9796  if(msg.sender == listing[_listId].nftOwner){... */\n    tag_326:\n        /* \"ProfitOrg/marketPlace.sol\":9815:9840  uint256 _currentBidAmount */\n      0x00\n        /* \"ProfitOrg/marketPlace.sol\":9843:9859  listing[_listId] */\n      dup3\n      dup2\n      mstore\n        /* \"ProfitOrg/marketPlace.sol\":9843:9850  listing */\n      0x04\n        /* \"ProfitOrg/marketPlace.sol\":9843:9859  listing[_listId] */\n      0x20\n      mstore\n      0x40\n      swap1\n      keccak256\n        /* \"ProfitOrg/marketPlace.sol\":9843:9865  listing[_listId].price */\n      0x02\n      dup2\n      add\n      sload\n        /* \"ProfitOrg/marketPlace.sol\":9901:9926  listing[_listId].newOwner */\n      0x06\n      swap1\n      swap2\n      add\n      sload\n      sub(shl(0xa0, 0x01), 0x01)\n      and\n        /* \"ProfitOrg/marketPlace.sol\":9940:9961  _currentBidAmount > 0 */\n      dup2\n      iszero\n      dup1\n      iszero\n      swap1\n        /* \"ProfitOrg/marketPlace.sol\":9940:9993  _currentBidAmount > 0 && _currentBidder != address(0) */\n      tag_328\n      jumpi\n      pop\n      sub(shl(0xa0, 0x01), 0x01)\n        /* \"ProfitOrg/marketPlace.sol\":9965:9993  _currentBidder != address(0) */\n      dup2\n      and\n      iszero\n      iszero\n        /* \"ProfitOrg/marketPlace.sol\":9940:9993  _currentBidAmount > 0 && _currentBidder != address(0) */\n    tag_328:\n        /* \"ProfitOrg/marketPlace.sol\":9937:10081  if(_currentBidAmount > 0 && _currentBidder != address(0)){... */\n      iszero\n      tag_330\n      jumpi\n        /* \"ProfitOrg/marketPlace.sol\":10008:10070  transferFundsInEth(payable(_currentBidder), _currentBidAmount) */\n      tag_330\n        /* \"ProfitOrg/marketPlace.sol\":10035:10049  _currentBidder */\n      dup2\n        /* \"ProfitOrg/marketPlace.sol\":10052:10069  _currentBidAmount */\n      dup4\n        /* \"ProfitOrg/marketPlace.sol\":10008:10026  transferFundsInEth */\n      tag_242\n        /* \"ProfitOrg/marketPlace.sol\":10008:10070  transferFundsInEth(payable(_currentBidder), _currentBidAmount) */\n      jump\t// in\n    tag_330:\n        /* \"ProfitOrg/marketPlace.sol\":10092:10108  listing[_listId] */\n      0x00\n      dup5\n      dup2\n      mstore\n        /* \"ProfitOrg/marketPlace.sol\":10092:10099  listing */\n      0x04\n        /* \"ProfitOrg/marketPlace.sol\":10092:10108  listing[_listId] */\n      0x20\n      swap1\n      dup2\n      mstore\n      0x40\n      swap2\n      dup3\n      swap1\n      keccak256\n        /* \"ProfitOrg/marketPlace.sol\":10117:10126  msg.value */\n      callvalue\n        /* \"ProfitOrg/marketPlace.sol\":10092:10114  listing[_listId].price */\n      0x02\n      dup3\n      add\n        /* \"ProfitOrg/marketPlace.sol\":10092:10126  listing[_listId].price = msg.value */\n      dup2\n      swap1\n      sstore\n        /* \"ProfitOrg/marketPlace.sol\":10136:10161  listing[_listId].newOwner */\n      0x06\n      swap1\n      swap2\n      add\n        /* \"ProfitOrg/marketPlace.sol\":10136:10174  listing[_listId].newOwner = msg.sender */\n      dup1\n      sload\n      not(sub(shl(0xa0, 0x01), 0x01))\n      and\n        /* \"ProfitOrg/marketPlace.sol\":10164:10174  msg.sender */\n      caller\n        /* \"ProfitOrg/marketPlace.sol\":10136:10174  listing[_listId].newOwner = msg.sender */\n      swap1\n      dup2\n      or\n      swap1\n      swap2\n      sstore\n        /* \"ProfitOrg/marketPlace.sol\":10191:10317  Bided(... */\n      dup4\n      mload\n        /* \"#utility.yul\":16625:16676   */\n      swap1\n      dup2\n      mstore\n        /* \"#utility.yul\":16692:16710   */\n      swap2\n      dup3\n      add\n        /* \"#utility.yul\":16685:16719   */\n      mstore\n        /* \"#utility.yul\":16735:16753   */\n      swap1\n      dup2\n      add\n        /* \"#utility.yul\":16728:16762   */\n      dup4\n      swap1\n      mstore\n        /* \"ProfitOrg/marketPlace.sol\":10191:10317  Bided(... */\n      0xa6e846933627bedfe46f69605777a6483fb976f59199ec63196aa8442c8eb123\n      swap1\n        /* \"#utility.yul\":16613:16615   */\n      0x60\n        /* \"#utility.yul\":16598:16616   */\n      add\n        /* \"ProfitOrg/marketPlace.sol\":10191:10317  Bided(... */\n      mload(0x40)\n      dup1\n      swap2\n      sub\n      swap1\n      log1\n        /* \"ProfitOrg/marketPlace.sol\":9185:10325  {... */\n      pop\n      pop\n        /* \"ProfitOrg/marketPlace.sol\":9111:10325  function startBid( uint256 _listId)  external payable checkSell(_listId)  {... */\n      pop\n      pop\n      jump\t// out\n        /* \"ProfitOrg/marketPlace.sol\":5017:6141  function listForOrganizations(... */\n    tag_135:\n        /* \"ProfitOrg/marketPlace.sol\":21962:21979  bool _haveSponsor */\n      0x00\n        /* \"ProfitOrg/marketPlace.sol\":22093:22108  mintingContract */\n      dup1\n      sload\n        /* \"ProfitOrg/marketPlace.sol\":22093:22137  mintingContract.getFiscalSponsor(msg.sender) */\n      mload(0x40)\n      shl(0xe0, 0x53f50119)\n      dup2\n      mstore\n        /* \"ProfitOrg/marketPlace.sol\":22126:22136  msg.sender */\n      caller\n        /* \"ProfitOrg/marketPlace.sol\":22093:22137  mintingContract.getFiscalSponsor(msg.sender) */\n      0x04\n      dup3\n      add\n        /* \"#utility.yul\":4276:4327   */\n      mstore\n        /* \"ProfitOrg/marketPlace.sol\":5320:5334  _fiscalSponsor */\n      dup4\n      swap3\n        /* \"ProfitOrg/marketPlace.sol\":21962:21979  bool _haveSponsor */\n      swap2\n      dup3\n      swap2\n      dup3\n      swap2\n      sub(shl(0xa0, 0x01), 0x01)\n        /* \"ProfitOrg/marketPlace.sol\":22093:22108  mintingContract */\n      and\n      swap1\n        /* \"ProfitOrg/marketPlace.sol\":22093:22125  mintingContract.getFiscalSponsor */\n      0x53f50119\n      swap1\n        /* \"#utility.yul\":4249:4267   */\n      0x24\n      add\n        /* \"ProfitOrg/marketPlace.sol\":22093:22137  mintingContract.getFiscalSponsor(msg.sender) */\n      0x80\n      mload(0x40)\n      dup1\n      dup4\n      sub\n      dup2\n      dup7\n      gas\n      staticcall\n      iszero\n      dup1\n      iszero\n      tag_336\n      jumpi\n      returndatasize\n      0x00\n      dup1\n      returndatacopy\n      revert(0x00, returndatasize)\n    tag_336:\n      pop\n      pop\n      pop\n      pop\n      mload(0x40)\n      returndatasize\n      not(0x1f)\n      0x1f\n      dup3\n      add\n      and\n      dup3\n      add\n      dup1\n      0x40\n      mstore\n      pop\n      dup2\n      add\n      swap1\n      tag_337\n      swap2\n      swap1\n      tag_228\n      jump\t// in\n    tag_337:\n        /* \"ProfitOrg/marketPlace.sol\":21948:22137  (... */\n      pop\n      swap3\n      pop\n      swap3\n      pop\n      swap3\n      pop\n        /* \"ProfitOrg/marketPlace.sol\":22159:22171  _haveSponsor */\n      dup3\n        /* \"ProfitOrg/marketPlace.sol\":22156:22369  if(_haveSponsor){... */\n      iszero\n      tag_339\n      jumpi\n        /* \"ProfitOrg/marketPlace.sol\":22212:22234  _previousFiscalSponser */\n      dup1\n      sub(shl(0xa0, 0x01), 0x01)\n        /* \"ProfitOrg/marketPlace.sol\":22194:22234  _fiscalSponsor == _previousFiscalSponser */\n      and\n        /* \"ProfitOrg/marketPlace.sol\":22194:22208  _fiscalSponsor */\n      dup5\n      sub(shl(0xa0, 0x01), 0x01)\n        /* \"ProfitOrg/marketPlace.sol\":22194:22234  _fiscalSponsor == _previousFiscalSponser */\n      and\n      eq\n        /* \"ProfitOrg/marketPlace.sol\":22186:22261  require(_fiscalSponsor == _previousFiscalSponser, \"wrong fiscal sponsor!.\") */\n      tag_339\n      jumpi\n      mload(0x40)\n      shl(0xe5, 0x461bcd)\n      dup2\n      mstore\n        /* \"#utility.yul\":16975:16977   */\n      0x20\n        /* \"ProfitOrg/marketPlace.sol\":22186:22261  require(_fiscalSponsor == _previousFiscalSponser, \"wrong fiscal sponsor!.\") */\n      0x04\n      dup3\n      add\n        /* \"#utility.yul\":16957:16978   */\n      mstore\n        /* \"#utility.yul\":17014:17016   */\n      0x16\n        /* \"#utility.yul\":16994:17012   */\n      0x24\n      dup3\n      add\n        /* \"#utility.yul\":16987:17017   */\n      mstore\n      shl(0x51, 0x3bb937b733903334b9b1b0b61039b837b739b7b91097)\n        /* \"#utility.yul\":17033:17051   */\n      0x44\n      dup3\n      add\n        /* \"#utility.yul\":17026:17078   */\n      mstore\n        /* \"#utility.yul\":17095:17113   */\n      0x64\n      add\n        /* \"ProfitOrg/marketPlace.sol\":22186:22261  require(_fiscalSponsor == _previousFiscalSponser, \"wrong fiscal sponsor!.\") */\n      tag_158\n        /* \"#utility.yul\":16773:17119   */\n      jump\n        /* \"ProfitOrg/marketPlace.sol\":22186:22261  require(_fiscalSponsor == _previousFiscalSponser, \"wrong fiscal sponsor!.\") */\n    tag_339:\n        /* \"ProfitOrg/marketPlace.sol\":5374:5375  0 */\n      0x00\n        /* \"ProfitOrg/marketPlace.sol\":5357:5370  _initialPrice */\n      dup13\n        /* \"ProfitOrg/marketPlace.sol\":5357:5375  _initialPrice <= 0 */\n      gt\n        /* \"ProfitOrg/marketPlace.sol\":5354:5439  if(_initialPrice <= 0){... */\n      tag_343\n      jumpi\n        /* \"ProfitOrg/marketPlace.sol\":5397:5428  initialPriceZero(_initialPrice) */\n      mload(0x40)\n      shl(0xe0, 0xbaf301f7)\n      dup2\n      mstore\n      0x04\n      dup2\n      add\n        /* \"#utility.yul\":1587:1612   */\n      dup14\n      swap1\n      mstore\n        /* \"#utility.yul\":1560:1578   */\n      0x24\n      add\n        /* \"ProfitOrg/marketPlace.sol\":5397:5428  initialPriceZero(_initialPrice) */\n      tag_158\n        /* \"#utility.yul\":1441:1618   */\n      jump\n        /* \"ProfitOrg/marketPlace.sol\":5354:5439  if(_initialPrice <= 0){... */\n    tag_343:\n        /* \"ProfitOrg/marketPlace.sol\":5472:5473  0 */\n      0x00\n        /* \"ProfitOrg/marketPlace.sol\":5460:5468  _tokenId */\n      dup10\n        /* \"ProfitOrg/marketPlace.sol\":5460:5473  _tokenId <= 0 */\n      gt\n        /* \"ProfitOrg/marketPlace.sol\":5457:5528  if(_tokenId <= 0){... */\n      tag_345\n      jumpi\n        /* \"ProfitOrg/marketPlace.sol\":5495:5517  wrongTokenId(_tokenId) */\n      mload(0x40)\n      shl(0xe1, 0x43599f69)\n      dup2\n      mstore\n      0x04\n      dup2\n      add\n        /* \"#utility.yul\":1587:1612   */\n      dup11\n      swap1\n      mstore\n        /* \"#utility.yul\":1560:1578   */\n      0x24\n      add\n        /* \"ProfitOrg/marketPlace.sol\":5495:5517  wrongTokenId(_tokenId) */\n      tag_158\n        /* \"#utility.yul\":1441:1618   */\n      jump\n        /* \"ProfitOrg/marketPlace.sol\":5457:5528  if(_tokenId <= 0){... */\n    tag_345:\n        /* \"ProfitOrg/marketPlace.sol\":5556:5557  0 */\n      0x00\n        /* \"ProfitOrg/marketPlace.sol\":5541:5552  _noOfCopies */\n      dup9\n        /* \"ProfitOrg/marketPlace.sol\":5541:5557  _noOfCopies <= 0 */\n      gt\n        /* \"ProfitOrg/marketPlace.sol\":5538:5618  if(_noOfCopies <= 0){... */\n      tag_347\n      jumpi\n        /* \"ProfitOrg/marketPlace.sol\":5579:5607  wrongNoOfCopies(_noOfCopies) */\n      mload(0x40)\n      shl(0xe0, 0x8e57a1b3)\n      dup2\n      mstore\n      0x04\n      dup2\n      add\n        /* \"#utility.yul\":1587:1612   */\n      dup10\n      swap1\n      mstore\n        /* \"#utility.yul\":1560:1578   */\n      0x24\n      add\n        /* \"ProfitOrg/marketPlace.sol\":5579:5607  wrongNoOfCopies(_noOfCopies) */\n      tag_158\n        /* \"#utility.yul\":1441:1618   */\n      jump\n        /* \"ProfitOrg/marketPlace.sol\":5538:5618  if(_noOfCopies <= 0){... */\n    tag_347:\n        /* \"ProfitOrg/marketPlace.sol\":5629:5635  listId */\n      0x01\n        /* \"ProfitOrg/marketPlace.sol\":5629:5637  listId++ */\n      dup1\n      sload\n      swap1\n        /* \"ProfitOrg/marketPlace.sol\":5629:5635  listId */\n      0x00\n        /* \"ProfitOrg/marketPlace.sol\":5629:5637  listId++ */\n      tag_349\n      dup4\n      tag_350\n      jump\t// in\n    tag_349:\n      swap2\n      swap1\n      pop\n      sstore\n      pop\n        /* \"ProfitOrg/marketPlace.sol\":5648:5751  setListingInfo(_tokenId,_noOfCopies,_initialPrice,_listStartTime,_listEndTime,_nftAddress, _serviceFee) */\n      tag_351\n        /* \"ProfitOrg/marketPlace.sol\":5663:5671  _tokenId */\n      dup10\n        /* \"ProfitOrg/marketPlace.sol\":5672:5683  _noOfCopies */\n      dup10\n        /* \"ProfitOrg/marketPlace.sol\":5684:5697  _initialPrice */\n      dup15\n        /* \"ProfitOrg/marketPlace.sol\":5698:5712  _listStartTime */\n      dup15\n        /* \"ProfitOrg/marketPlace.sol\":5713:5725  _listEndTime */\n      dup15\n        /* \"ProfitOrg/marketPlace.sol\":5726:5737  _nftAddress */\n      dup13\n        /* \"ProfitOrg/marketPlace.sol\":5739:5750  _serviceFee */\n      dup13\n        /* \"ProfitOrg/marketPlace.sol\":5648:5662  setListingInfo */\n      tag_181\n        /* \"ProfitOrg/marketPlace.sol\":5648:5751  setListingInfo(_tokenId,_noOfCopies,_initialPrice,_listStartTime,_listEndTime,_nftAddress, _serviceFee) */\n      jump\t// in\n    tag_351:\n        /* \"ProfitOrg/marketPlace.sol\":5789:5811  mintingContractAddress */\n      sload(0x03)\n      sub(shl(0xa0, 0x01), 0x01)\n        /* \"ProfitOrg/marketPlace.sol\":5774:5811  _nftAddress != mintingContractAddress */\n      dup9\n      dup2\n      and\n        /* \"ProfitOrg/marketPlace.sol\":5789:5811  mintingContractAddress */\n      swap2\n      and\n        /* \"ProfitOrg/marketPlace.sol\":5774:5811  _nftAddress != mintingContractAddress */\n      eq\n        /* \"ProfitOrg/marketPlace.sol\":5771:6008  if(_nftAddress != mintingContractAddress){... */\n      tag_352\n      jumpi\n        /* \"ProfitOrg/marketPlace.sol\":5827:5891  setMintingAddress( _tokenId, _noOfCopies,  listId,  _nftAddress) */\n      tag_353\n        /* \"ProfitOrg/marketPlace.sol\":5846:5854  _tokenId */\n      dup10\n        /* \"ProfitOrg/marketPlace.sol\":5856:5867  _noOfCopies */\n      dup10\n        /* \"ProfitOrg/marketPlace.sol\":5870:5876  listId */\n      sload(0x01)\n        /* \"ProfitOrg/marketPlace.sol\":5879:5890  _nftAddress */\n      dup11\n        /* \"ProfitOrg/marketPlace.sol\":5827:5844  setMintingAddress */\n      tag_354\n        /* \"ProfitOrg/marketPlace.sol\":5827:5891  setMintingAddress( _tokenId, _noOfCopies,  listId,  _nftAddress) */\n      jump\t// in\n    tag_353:\n        /* \"ProfitOrg/marketPlace.sol\":5771:6008  if(_nftAddress != mintingContractAddress){... */\n      jump(tag_356)\n    tag_352:\n        /* \"ProfitOrg/marketPlace.sol\":5964:5970  listId */\n      sload(0x01)\n        /* \"ProfitOrg/marketPlace.sol\":5973:5995  mintingContractAddress */\n      sload(0x03)\n        /* \"ProfitOrg/marketPlace.sol\":5921:5996  setMintingAddress( _tokenId, _noOfCopies,  listId,  mintingContractAddress) */\n      tag_356\n      swap2\n        /* \"ProfitOrg/marketPlace.sol\":5940:5948  _tokenId */\n      dup12\n      swap2\n        /* \"ProfitOrg/marketPlace.sol\":5950:5961  _noOfCopies */\n      dup12\n      swap2\n        /* \"ProfitOrg/marketPlace.sol\":5964:5970  listId */\n      swap1\n      sub(shl(0xa0, 0x01), 0x01)\n        /* \"ProfitOrg/marketPlace.sol\":5973:5995  mintingContractAddress */\n      and\n        /* \"ProfitOrg/marketPlace.sol\":5921:5938  setMintingAddress */\n      tag_354\n        /* \"ProfitOrg/marketPlace.sol\":5921:5996  setMintingAddress( _tokenId, _noOfCopies,  listId,  mintingContractAddress) */\n      jump\t// in\n    tag_356:\n        /* \"ProfitOrg/marketPlace.sol\":6043:6049  listId */\n      sload(0x01)\n        /* \"ProfitOrg/marketPlace.sol\":6023:6134  Listed(... */\n      0x40\n      dup1\n      mload\n        /* \"#utility.yul\":17495:17520   */\n      swap2\n      dup3\n      mstore\n        /* \"#utility.yul\":17551:17553   */\n      0x20\n        /* \"#utility.yul\":17536:17554   */\n      dup3\n      add\n        /* \"#utility.yul\":17529:17563   */\n      dup12\n      swap1\n      mstore\n        /* \"#utility.yul\":17579:17597   */\n      dup2\n      add\n        /* \"#utility.yul\":17572:17606   */\n      dup10\n      swap1\n      mstore\n        /* \"#utility.yul\":17637:17639   */\n      0x60\n        /* \"#utility.yul\":17622:17640   */\n      dup2\n      add\n        /* \"#utility.yul\":17615:17649   */\n      dup14\n      swap1\n      mstore\n        /* \"ProfitOrg/marketPlace.sol\":6023:6134  Listed(... */\n      0x52ad65ec41e71d556367fc4fef59f68118b969bb890def6f1ccd0b952f557ca4\n      swap1\n        /* \"#utility.yul\":17482:17485   */\n      0x80\n        /* \"#utility.yul\":17467:17486   */\n      add\n        /* \"ProfitOrg/marketPlace.sol\":6023:6134  Listed(... */\n      mload(0x40)\n      dup1\n      swap2\n      sub\n      swap1\n      log1\n        /* \"ProfitOrg/marketPlace.sol\":21938:22386  {... */\n      pop\n      pop\n      pop\n        /* \"ProfitOrg/marketPlace.sol\":5017:6141  function listForOrganizations(... */\n      pop\n      pop\n      pop\n      pop\n      pop\n      pop\n      pop\n      pop\n      pop\n      jump\t// out\n        /* \"ProfitOrg/marketPlace.sol\":3756:5007  function listForUsers(... */\n    tag_140:\n        /* \"ProfitOrg/marketPlace.sol\":4105:4119  _organizations */\n      dup2\n        /* \"ProfitOrg/marketPlace.sol\":4120:4138  _donatePercentages */\n      dup2\n        /* \"ProfitOrg/marketPlace.sol\":19994:19995  0 */\n      0x00\n        /* \"ProfitOrg/marketPlace.sol\":19969:19983  _organizations */\n      dup3\n        /* \"ProfitOrg/marketPlace.sol\":19969:19990  _organizations.length */\n      mload\n        /* \"ProfitOrg/marketPlace.sol\":19969:19995  _organizations.length <= 0 */\n      gt\n      iszero\n        /* \"ProfitOrg/marketPlace.sol\":19969:20025  _organizations.length <= 0 && _organizations.length > 10 */\n      dup1\n      iszero\n      tag_360\n      jumpi\n      pop\n        /* \"ProfitOrg/marketPlace.sol\":20023:20025  10 */\n      0x0a\n        /* \"ProfitOrg/marketPlace.sol\":19999:20013  _organizations */\n      dup3\n        /* \"ProfitOrg/marketPlace.sol\":19999:20020  _organizations.length */\n      mload\n        /* \"ProfitOrg/marketPlace.sol\":19999:20025  _organizations.length > 10 */\n      gt\n        /* \"ProfitOrg/marketPlace.sol\":19969:20025  _organizations.length <= 0 && _organizations.length > 10 */\n    tag_360:\n        /* \"ProfitOrg/marketPlace.sol\":19966:20104  if(_organizations.length <= 0 && _organizations.length > 10){... */\n      iszero\n      tag_361\n      jumpi\n        /* \"ProfitOrg/marketPlace.sol\":20071:20085  _organizations */\n      dup2\n        /* \"ProfitOrg/marketPlace.sol\":20071:20092  _organizations.length */\n      mload\n        /* \"ProfitOrg/marketPlace.sol\":20047:20093  worngOrganizationlength(_organizations.length) */\n      mload(0x40)\n      shl(0xe0, 0x1d9aea7d)\n      dup2\n      mstore\n      0x04\n      add\n      tag_158\n      swap2\n        /* \"#utility.yul\":1587:1612   */\n      dup2\n      mstore\n        /* \"#utility.yul\":1575:1577   */\n      0x20\n        /* \"#utility.yul\":1560:1578   */\n      add\n      swap1\n        /* \"#utility.yul\":1441:1618   */\n      jump\n        /* \"ProfitOrg/marketPlace.sol\":19966:20104  if(_organizations.length <= 0 && _organizations.length > 10){... */\n    tag_361:\n        /* \"ProfitOrg/marketPlace.sol\":20142:20160  _donatePercentages */\n      dup1\n        /* \"ProfitOrg/marketPlace.sol\":20142:20167  _donatePercentages.length */\n      mload\n        /* \"ProfitOrg/marketPlace.sol\":20117:20131  _organizations */\n      dup3\n        /* \"ProfitOrg/marketPlace.sol\":20117:20138  _organizations.length */\n      mload\n        /* \"ProfitOrg/marketPlace.sol\":20117:20167  _organizations.length != _donatePercentages.length */\n      eq\n        /* \"ProfitOrg/marketPlace.sol\":20114:20264  if(_organizations.length != _donatePercentages.length){... */\n      tag_363\n      jumpi\n        /* \"ProfitOrg/marketPlace.sol\":20205:20226  _organizations.length */\n      dup2\n      mload\n        /* \"ProfitOrg/marketPlace.sol\":20227:20252  _donatePercentages.length */\n      dup2\n      mload\n        /* \"ProfitOrg/marketPlace.sol\":20189:20253  lengthDontMatch(_organizations.length,_donatePercentages.length) */\n      mload(0x40)\n      shl(0xe0, 0x12c9b6e1)\n      dup2\n      mstore\n      0x04\n      dup2\n      add\n        /* \"#utility.yul\":15922:15947   */\n      swap3\n      swap1\n      swap3\n      mstore\n        /* \"#utility.yul\":15963:15981   */\n      0x24\n      dup3\n      add\n        /* \"#utility.yul\":15956:15990   */\n      mstore\n        /* \"#utility.yul\":15895:15913   */\n      0x44\n      add\n        /* \"ProfitOrg/marketPlace.sol\":20189:20253  lengthDontMatch(_organizations.length,_donatePercentages.length) */\n      tag_158\n        /* \"#utility.yul\":15748:15996   */\n      jump\n        /* \"ProfitOrg/marketPlace.sol\":20114:20264  if(_organizations.length != _donatePercentages.length){... */\n    tag_363:\n        /* \"ProfitOrg/marketPlace.sol\":20282:20297  bool atleastOne */\n      0x00\n      dup1\n        /* \"ProfitOrg/marketPlace.sol\":20307:20584  for(uint i=0; i < _organizations.length; i++){... */\n    tag_365:\n        /* \"ProfitOrg/marketPlace.sol\":20325:20339  _organizations */\n      dup4\n        /* \"ProfitOrg/marketPlace.sol\":20325:20346  _organizations.length */\n      mload\n        /* \"ProfitOrg/marketPlace.sol\":20321:20322  i */\n      dup2\n        /* \"ProfitOrg/marketPlace.sol\":20321:20346  i < _organizations.length */\n      lt\n        /* \"ProfitOrg/marketPlace.sol\":20307:20584  for(uint i=0; i < _organizations.length; i++){... */\n      iszero\n      tag_366\n      jumpi\n        /* \"ProfitOrg/marketPlace.sol\":20398:20399  0 */\n      0x00\n      sub(shl(0xa0, 0x01), 0x01)\n        /* \"ProfitOrg/marketPlace.sol\":20369:20400  _organizations[i] != address(0) */\n      and\n        /* \"ProfitOrg/marketPlace.sol\":20369:20383  _organizations */\n      dup5\n        /* \"ProfitOrg/marketPlace.sol\":20384:20385  i */\n      dup3\n        /* \"ProfitOrg/marketPlace.sol\":20369:20386  _organizations[i] */\n      dup2\n      mload\n      dup2\n      lt\n      tag_369\n      jumpi\n      tag_369\n      tag_370\n      jump\t// in\n    tag_369:\n      0x20\n      mul\n      0x20\n      add\n      add\n      mload\n      sub(shl(0xa0, 0x01), 0x01)\n        /* \"ProfitOrg/marketPlace.sol\":20369:20400  _organizations[i] != address(0) */\n      and\n      eq\n        /* \"ProfitOrg/marketPlace.sol\":20366:20574  if(_organizations[i] != address(0)){... */\n      tag_371\n      jumpi\n        /* \"ProfitOrg/marketPlace.sol\":20453:20456  500 */\n      0x01f4\n        /* \"ProfitOrg/marketPlace.sol\":20428:20446  _donatePercentages */\n      dup4\n        /* \"ProfitOrg/marketPlace.sol\":20447:20448  i */\n      dup3\n        /* \"ProfitOrg/marketPlace.sol\":20428:20449  _donatePercentages[i] */\n      dup2\n      mload\n      dup2\n      lt\n      tag_373\n      jumpi\n      tag_373\n      tag_370\n      jump\t// in\n    tag_373:\n      0x20\n      mul\n      0x20\n      add\n      add\n      mload\n        /* \"ProfitOrg/marketPlace.sol\":20428:20456  _donatePercentages[i] >= 500 */\n      lt\n      iszero\n        /* \"ProfitOrg/marketPlace.sol\":20420:20524  require(_donatePercentages[i] >= 500,... */\n      tag_374\n      jumpi\n      mload(0x40)\n      shl(0xe5, 0x461bcd)\n      dup2\n      mstore\n        /* \"#utility.yul\":17994:17996   */\n      0x20\n        /* \"ProfitOrg/marketPlace.sol\":20420:20524  require(_donatePercentages[i] >= 500,... */\n      0x04\n      dup3\n      add\n        /* \"#utility.yul\":17976:17997   */\n      mstore\n        /* \"#utility.yul\":18033:18035   */\n      0x2b\n        /* \"#utility.yul\":18013:18031   */\n      0x24\n      dup3\n      add\n        /* \"#utility.yul\":18006:18036   */\n      mstore\n        /* \"#utility.yul\":18072:18106   */\n      0x646f6e6174696f6e2070657263656e74616765206d7573742062652067726561\n        /* \"#utility.yul\":18052:18070   */\n      0x44\n      dup3\n      add\n        /* \"#utility.yul\":18045:18107   */\n      mstore\n      shl(0xa8, 0x746572207468656e203525)\n        /* \"#utility.yul\":18123:18141   */\n      0x64\n      dup3\n      add\n        /* \"#utility.yul\":18116:18157   */\n      mstore\n        /* \"#utility.yul\":18174:18193   */\n      0x84\n      add\n        /* \"ProfitOrg/marketPlace.sol\":20420:20524  require(_donatePercentages[i] >= 500,... */\n      tag_158\n        /* \"#utility.yul\":17792:18199   */\n      jump\n        /* \"ProfitOrg/marketPlace.sol\":20420:20524  require(_donatePercentages[i] >= 500,... */\n    tag_374:\n        /* \"ProfitOrg/marketPlace.sol\":20555:20559  true */\n      0x01\n        /* \"ProfitOrg/marketPlace.sol\":20542:20559  atleastOne = true */\n      swap2\n      pop\n        /* \"ProfitOrg/marketPlace.sol\":20366:20574  if(_organizations[i] != address(0)){... */\n    tag_371:\n        /* \"ProfitOrg/marketPlace.sol\":20348:20351  i++ */\n      0x01\n      add\n        /* \"ProfitOrg/marketPlace.sol\":20307:20584  for(uint i=0; i < _organizations.length; i++){... */\n      jump(tag_365)\n    tag_366:\n      pop\n        /* \"ProfitOrg/marketPlace.sol\":20602:20612  atleastOne */\n      dup1\n        /* \"ProfitOrg/marketPlace.sol\":20594:20638  require(atleastOne,\"select an organzation.\") */\n      tag_377\n      jumpi\n      mload(0x40)\n      shl(0xe5, 0x461bcd)\n      dup2\n      mstore\n        /* \"#utility.yul\":18406:18408   */\n      0x20\n        /* \"ProfitOrg/marketPlace.sol\":20594:20638  require(atleastOne,\"select an organzation.\") */\n      0x04\n      dup3\n      add\n        /* \"#utility.yul\":18388:18409   */\n      mstore\n        /* \"#utility.yul\":18445:18447   */\n      0x16\n        /* \"#utility.yul\":18425:18443   */\n      0x24\n      dup3\n      add\n        /* \"#utility.yul\":18418:18448   */\n      mstore\n      shl(0x51, 0x39b2b632b1ba1030b71037b933b0b73d30ba34b7b717)\n        /* \"#utility.yul\":18464:18482   */\n      0x44\n      dup3\n      add\n        /* \"#utility.yul\":18457:18509   */\n      mstore\n        /* \"#utility.yul\":18526:18544   */\n      0x64\n      add\n        /* \"ProfitOrg/marketPlace.sol\":20594:20638  require(atleastOne,\"select an organzation.\") */\n      tag_158\n        /* \"#utility.yul\":18204:18550   */\n      jump\n        /* \"ProfitOrg/marketPlace.sol\":20594:20638  require(atleastOne,\"select an organzation.\") */\n    tag_377:\n        /* \"ProfitOrg/marketPlace.sol\":4171:4172  0 */\n      0x00\n        /* \"ProfitOrg/marketPlace.sol\":4154:4167  _initialPrice */\n      dup13\n        /* \"ProfitOrg/marketPlace.sol\":4154:4172  _initialPrice <= 0 */\n      gt\n        /* \"ProfitOrg/marketPlace.sol\":4151:4236  if(_initialPrice <= 0){... */\n      tag_381\n      jumpi\n        /* \"ProfitOrg/marketPlace.sol\":4194:4225  initialPriceZero(_initialPrice) */\n      mload(0x40)\n      shl(0xe0, 0xbaf301f7)\n      dup2\n      mstore\n      0x04\n      dup2\n      add\n        /* \"#utility.yul\":1587:1612   */\n      dup14\n      swap1\n      mstore\n        /* \"#utility.yul\":1560:1578   */\n      0x24\n      add\n        /* \"ProfitOrg/marketPlace.sol\":4194:4225  initialPriceZero(_initialPrice) */\n      tag_158\n        /* \"#utility.yul\":1441:1618   */\n      jump\n        /* \"ProfitOrg/marketPlace.sol\":4151:4236  if(_initialPrice <= 0){... */\n    tag_381:\n        /* \"ProfitOrg/marketPlace.sol\":4269:4270  0 */\n      0x00\n        /* \"ProfitOrg/marketPlace.sol\":4257:4265  _tokenId */\n      dup10\n        /* \"ProfitOrg/marketPlace.sol\":4257:4270  _tokenId <= 0 */\n      gt\n        /* \"ProfitOrg/marketPlace.sol\":4254:4325  if(_tokenId <= 0){... */\n      tag_383\n      jumpi\n        /* \"ProfitOrg/marketPlace.sol\":4292:4314  wrongTokenId(_tokenId) */\n      mload(0x40)\n      shl(0xe1, 0x43599f69)\n      dup2\n      mstore\n      0x04\n      dup2\n      add\n        /* \"#utility.yul\":1587:1612   */\n      dup11\n      swap1\n      mstore\n        /* \"#utility.yul\":1560:1578   */\n      0x24\n      add\n        /* \"ProfitOrg/marketPlace.sol\":4292:4314  wrongTokenId(_tokenId) */\n      tag_158\n        /* \"#utility.yul\":1441:1618   */\n      jump\n        /* \"ProfitOrg/marketPlace.sol\":4254:4325  if(_tokenId <= 0){... */\n    tag_383:\n        /* \"ProfitOrg/marketPlace.sol\":4353:4354  0 */\n      0x00\n        /* \"ProfitOrg/marketPlace.sol\":4338:4349  _noOfCopies */\n      dup9\n        /* \"ProfitOrg/marketPlace.sol\":4338:4354  _noOfCopies <= 0 */\n      gt\n        /* \"ProfitOrg/marketPlace.sol\":4335:4415  if(_noOfCopies <= 0){... */\n      tag_385\n      jumpi\n        /* \"ProfitOrg/marketPlace.sol\":4376:4404  wrongNoOfCopies(_noOfCopies) */\n      mload(0x40)\n      shl(0xe0, 0x8e57a1b3)\n      dup2\n      mstore\n      0x04\n      dup2\n      add\n        /* \"#utility.yul\":1587:1612   */\n      dup10\n      swap1\n      mstore\n        /* \"#utility.yul\":1560:1578   */\n      0x24\n      add\n        /* \"ProfitOrg/marketPlace.sol\":4376:4404  wrongNoOfCopies(_noOfCopies) */\n      tag_158\n        /* \"#utility.yul\":1441:1618   */\n      jump\n        /* \"ProfitOrg/marketPlace.sol\":4335:4415  if(_noOfCopies <= 0){... */\n    tag_385:\n        /* \"ProfitOrg/marketPlace.sol\":4425:4431  listId */\n      0x01\n        /* \"ProfitOrg/marketPlace.sol\":4425:4433  listId++ */\n      dup1\n      sload\n      swap1\n        /* \"ProfitOrg/marketPlace.sol\":4425:4431  listId */\n      0x00\n        /* \"ProfitOrg/marketPlace.sol\":4425:4433  listId++ */\n      tag_387\n      dup4\n      tag_350\n      jump\t// in\n    tag_387:\n      swap2\n      swap1\n      pop\n      sstore\n      pop\n        /* \"ProfitOrg/marketPlace.sol\":4452:4554  setListingInfo(_tokenId,_noOfCopies,_initialPrice,_listStartTime,_listEndTime,_nftAddress,_serviceFee) */\n      tag_388\n        /* \"ProfitOrg/marketPlace.sol\":4467:4475  _tokenId */\n      dup10\n        /* \"ProfitOrg/marketPlace.sol\":4476:4487  _noOfCopies */\n      dup10\n        /* \"ProfitOrg/marketPlace.sol\":4488:4501  _initialPrice */\n      dup15\n        /* \"ProfitOrg/marketPlace.sol\":4502:4516  _listStartTime */\n      dup15\n        /* \"ProfitOrg/marketPlace.sol\":4517:4529  _listEndTime */\n      dup15\n        /* \"ProfitOrg/marketPlace.sol\":4530:4541  _nftAddress */\n      dup12\n        /* \"ProfitOrg/marketPlace.sol\":4542:4553  _serviceFee */\n      dup14\n        /* \"ProfitOrg/marketPlace.sol\":4452:4466  setListingInfo */\n      tag_181\n        /* \"ProfitOrg/marketPlace.sol\":4452:4554  setListingInfo(_tokenId,_noOfCopies,_initialPrice,_listStartTime,_listEndTime,_nftAddress,_serviceFee) */\n      jump\t// in\n    tag_388:\n        /* \"ProfitOrg/marketPlace.sol\":4568:4627  setDonationInfo(listId, _organizations, _donatePercentages) */\n      tag_389\n        /* \"ProfitOrg/marketPlace.sol\":4584:4590  listId */\n      sload(0x01)\n        /* \"ProfitOrg/marketPlace.sol\":4592:4606  _organizations */\n      dup7\n        /* \"ProfitOrg/marketPlace.sol\":4608:4626  _donatePercentages */\n      dup7\n        /* \"ProfitOrg/marketPlace.sol\":4568:4583  setDonationInfo */\n      tag_390\n        /* \"ProfitOrg/marketPlace.sol\":4568:4627  setDonationInfo(listId, _organizations, _donatePercentages) */\n      jump\t// in\n    tag_389:\n        /* \"ProfitOrg/marketPlace.sol\":4656:4678  mintingContractAddress */\n      sload(0x03)\n      sub(shl(0xa0, 0x01), 0x01)\n        /* \"ProfitOrg/marketPlace.sol\":4641:4678  _nftAddress != mintingContractAddress */\n      dup8\n      dup2\n      and\n        /* \"ProfitOrg/marketPlace.sol\":4656:4678  mintingContractAddress */\n      swap2\n      and\n        /* \"ProfitOrg/marketPlace.sol\":4641:4678  _nftAddress != mintingContractAddress */\n      eq\n        /* \"ProfitOrg/marketPlace.sol\":4638:4874  if(_nftAddress != mintingContractAddress){... */\n      tag_352\n      jumpi\n        /* \"ProfitOrg/marketPlace.sol\":4694:4758  setMintingAddress( _tokenId, _noOfCopies,  listId,  _nftAddress) */\n      tag_353\n        /* \"ProfitOrg/marketPlace.sol\":4713:4721  _tokenId */\n      dup10\n        /* \"ProfitOrg/marketPlace.sol\":4723:4734  _noOfCopies */\n      dup10\n        /* \"ProfitOrg/marketPlace.sol\":4737:4743  listId */\n      sload(0x01)\n        /* \"ProfitOrg/marketPlace.sol\":4746:4757  _nftAddress */\n      dup10\n        /* \"ProfitOrg/marketPlace.sol\":4694:4711  setMintingAddress */\n      tag_354\n        /* \"ProfitOrg/marketPlace.sol\":4694:4758  setMintingAddress( _tokenId, _noOfCopies,  listId,  _nftAddress) */\n      jump\t// in\n        /* \"@openzeppelin/contracts-upgradeable/access/OwnableUpgradeable.sol\":3405:3620  function transferOwnership(address newOwner) public virtual onlyOwner {... */\n    tag_150:\n        /* \"@openzeppelin/contracts-upgradeable/access/OwnableUpgradeable.sol\":2334:2347  _checkOwner() */\n      tag_398\n        /* \"@openzeppelin/contracts-upgradeable/access/OwnableUpgradeable.sol\":2334:2345  _checkOwner */\n      tag_164\n        /* \"@openzeppelin/contracts-upgradeable/access/OwnableUpgradeable.sol\":2334:2347  _checkOwner() */\n      jump\t// in\n    tag_398:\n      sub(shl(0xa0, 0x01), 0x01)\n        /* \"@openzeppelin/contracts-upgradeable/access/OwnableUpgradeable.sol\":3489:3511  newOwner == address(0) */\n      dup2\n      and\n        /* \"@openzeppelin/contracts-upgradeable/access/OwnableUpgradeable.sol\":3485:3576  if (newOwner == address(0)) {... */\n      tag_400\n      jumpi\n        /* \"@openzeppelin/contracts-upgradeable/access/OwnableUpgradeable.sol\":3534:3565  OwnableInvalidOwner(address(0)) */\n      mload(0x40)\n      shl(0xe0, 0x1e4fbdf7)\n      dup2\n      mstore\n        /* \"@openzeppelin/contracts-upgradeable/access/OwnableUpgradeable.sol\":3562:3563  0 */\n      0x00\n        /* \"@openzeppelin/contracts-upgradeable/access/OwnableUpgradeable.sol\":3534:3565  OwnableInvalidOwner(address(0)) */\n      0x04\n      dup3\n      add\n        /* \"#utility.yul\":4276:4327   */\n      mstore\n        /* \"#utility.yul\":4249:4267   */\n      0x24\n      add\n        /* \"@openzeppelin/contracts-upgradeable/access/OwnableUpgradeable.sol\":3534:3565  OwnableInvalidOwner(address(0)) */\n      tag_158\n        /* \"#utility.yul\":4130:4333   */\n      jump\n        /* \"@openzeppelin/contracts-upgradeable/access/OwnableUpgradeable.sol\":3485:3576  if (newOwner == address(0)) {... */\n    tag_400:\n        /* \"@openzeppelin/contracts-upgradeable/access/OwnableUpgradeable.sol\":3585:3613  _transferOwnership(newOwner) */\n      tag_402\n        /* \"@openzeppelin/contracts-upgradeable/access/OwnableUpgradeable.sol\":3604:3612  newOwner */\n      dup2\n        /* \"@openzeppelin/contracts-upgradeable/access/OwnableUpgradeable.sol\":3585:3603  _transferOwnership */\n      tag_266\n        /* \"@openzeppelin/contracts-upgradeable/access/OwnableUpgradeable.sol\":3585:3613  _transferOwnership(newOwner) */\n      jump\t// in\n    tag_402:\n        /* \"@openzeppelin/contracts-upgradeable/access/OwnableUpgradeable.sol\":3405:3620  function transferOwnership(address newOwner) public virtual onlyOwner {... */\n      pop\n      jump\t// out\n        /* \"@openzeppelin/contracts-upgradeable/access/OwnableUpgradeable.sol\":2658:2820  function _checkOwner() internal view virtual {... */\n    tag_164:\n        /* \"@openzeppelin/contracts-upgradeable/utils/ContextUpgradeable.sol\":966:976  msg.sender */\n      caller\n        /* \"@openzeppelin/contracts-upgradeable/access/OwnableUpgradeable.sol\":2717:2724  owner() */\n      tag_407\n        /* \"@openzeppelin/contracts-upgradeable/access/OwnableUpgradeable.sol\":2717:2722  owner */\n      tag_101\n        /* \"@openzeppelin/contracts-upgradeable/access/OwnableUpgradeable.sol\":2717:2724  owner() */\n      jump\t// in\n    tag_407:\n      sub(shl(0xa0, 0x01), 0x01)\n        /* \"@openzeppelin/contracts-upgradeable/access/OwnableUpgradeable.sol\":2717:2740  owner() != _msgSender() */\n      and\n      eq\n        /* \"@openzeppelin/contracts-upgradeable/access/OwnableUpgradeable.sol\":2713:2814  if (owner() != _msgSender()) {... */\n      tag_265\n      jumpi\n        /* \"@openzeppelin/contracts-upgradeable/access/OwnableUpgradeable.sol\":2763:2803  OwnableUnauthorizedAccount(_msgSender()) */\n      mload(0x40)\n      shl(0xe0, 0x118cdaa7)\n      dup2\n      mstore\n        /* \"@openzeppelin/contracts-upgradeable/utils/ContextUpgradeable.sol\":966:976  msg.sender */\n      caller\n        /* \"@openzeppelin/contracts-upgradeable/access/OwnableUpgradeable.sol\":2763:2803  OwnableUnauthorizedAccount(_msgSender()) */\n      0x04\n      dup3\n      add\n        /* \"#utility.yul\":4276:4327   */\n      mstore\n        /* \"#utility.yul\":4249:4267   */\n      0x24\n      add\n        /* \"@openzeppelin/contracts-upgradeable/access/OwnableUpgradeable.sol\":2763:2803  OwnableUnauthorizedAccount(_msgSender()) */\n      tag_158\n        /* \"#utility.yul\":4130:4333   */\n      jump\n        /* \"ProfitOrg/marketPlace.sol\":14050:15016  function setListingInfo(... */\n    tag_181:\n        /* \"ProfitOrg/marketPlace.sol\":14343:14356  _initialPrice */\n      dup5\n        /* \"ProfitOrg/marketPlace.sol\":14370:14384  _listStartTime */\n      dup5\n        /* \"ProfitOrg/marketPlace.sol\":14398:14410  _listEndTime */\n      dup5\n        /* \"ProfitOrg/marketPlace.sol\":14424:14432  _tokenId */\n      dup10\n        /* \"ProfitOrg/marketPlace.sol\":14446:14457  _noOfCopies */\n      dup10\n        /* \"ProfitOrg/marketPlace.sol\":14471:14482  _nftAddress */\n      dup7\n        /* \"ProfitOrg/marketPlace.sol\":20897:20898  0 */\n      0x00\n        /* \"ProfitOrg/marketPlace.sol\":20880:20893  _initialPrice */\n      dup7\n        /* \"ProfitOrg/marketPlace.sol\":20880:20898  _initialPrice <= 0 */\n      gt\n        /* \"ProfitOrg/marketPlace.sol\":20877:20962  if(_initialPrice <= 0){... */\n      tag_412\n      jumpi\n        /* \"ProfitOrg/marketPlace.sol\":20920:20951  initialPriceZero(_initialPrice) */\n      mload(0x40)\n      shl(0xe0, 0xbaf301f7)\n      dup2\n      mstore\n      0x04\n      dup2\n      add\n        /* \"#utility.yul\":1587:1612   */\n      dup8\n      swap1\n      mstore\n        /* \"#utility.yul\":1560:1578   */\n      0x24\n      add\n        /* \"ProfitOrg/marketPlace.sol\":20920:20951  initialPriceZero(_initialPrice) */\n      tag_158\n        /* \"#utility.yul\":1441:1618   */\n      jump\n        /* \"ProfitOrg/marketPlace.sol\":20877:20962  if(_initialPrice <= 0){... */\n    tag_412:\n        /* \"ProfitOrg/marketPlace.sol\":20995:20996  0 */\n      0x00\n        /* \"ProfitOrg/marketPlace.sol\":20983:20991  _tokenId */\n      dup4\n        /* \"ProfitOrg/marketPlace.sol\":20983:20996  _tokenId <= 0 */\n      gt\n        /* \"ProfitOrg/marketPlace.sol\":20980:21051  if(_tokenId <= 0){... */\n      tag_414\n      jumpi\n        /* \"ProfitOrg/marketPlace.sol\":21018:21040  wrongTokenId(_tokenId) */\n      mload(0x40)\n      shl(0xe1, 0x43599f69)\n      dup2\n      mstore\n      0x04\n      dup2\n      add\n        /* \"#utility.yul\":1587:1612   */\n      dup5\n      swap1\n      mstore\n        /* \"#utility.yul\":1560:1578   */\n      0x24\n      add\n        /* \"ProfitOrg/marketPlace.sol\":21018:21040  wrongTokenId(_tokenId) */\n      tag_158\n        /* \"#utility.yul\":1441:1618   */\n      jump\n        /* \"ProfitOrg/marketPlace.sol\":20980:21051  if(_tokenId <= 0){... */\n    tag_414:\n        /* \"ProfitOrg/marketPlace.sol\":21079:21080  0 */\n      0x00\n        /* \"ProfitOrg/marketPlace.sol\":21064:21075  _noOfCopies */\n      dup3\n        /* \"ProfitOrg/marketPlace.sol\":21064:21080  _noOfCopies <= 0 */\n      gt\n        /* \"ProfitOrg/marketPlace.sol\":21061:21141  if(_noOfCopies <= 0){... */\n      tag_416\n      jumpi\n        /* \"ProfitOrg/marketPlace.sol\":21102:21130  wrongNoOfCopies(_noOfCopies) */\n      mload(0x40)\n      shl(0xe0, 0x8e57a1b3)\n      dup2\n      mstore\n      0x04\n      dup2\n      add\n        /* \"#utility.yul\":1587:1612   */\n      dup4\n      swap1\n      mstore\n        /* \"#utility.yul\":1560:1578   */\n      0x24\n      add\n        /* \"ProfitOrg/marketPlace.sol\":21102:21130  wrongNoOfCopies(_noOfCopies) */\n      tag_158\n        /* \"#utility.yul\":1441:1618   */\n      jump\n        /* \"ProfitOrg/marketPlace.sol\":21061:21141  if(_noOfCopies <= 0){... */\n    tag_416:\n      sub(shl(0xa0, 0x01), 0x01)\n        /* \"ProfitOrg/marketPlace.sol\":21162:21187  _nftAddress == address(0) */\n      dup2\n      and\n        /* \"ProfitOrg/marketPlace.sol\":21159:21245  if(_nftAddress == address(0)){... */\n      tag_418\n      jumpi\n        /* \"ProfitOrg/marketPlace.sol\":21209:21234  wrongAddress(_nftAddress) */\n      mload(0x40)\n      shl(0xe0, 0xe4cfa94d)\n      dup2\n      mstore\n      sub(shl(0xa0, 0x01), 0x01)\n        /* \"#utility.yul\":4294:4326   */\n      dup3\n      and\n        /* \"ProfitOrg/marketPlace.sol\":21209:21234  wrongAddress(_nftAddress) */\n      0x04\n      dup3\n      add\n        /* \"#utility.yul\":4276:4327   */\n      mstore\n        /* \"#utility.yul\":4249:4267   */\n      0x24\n      add\n        /* \"ProfitOrg/marketPlace.sol\":21209:21234  wrongAddress(_nftAddress) */\n      tag_158\n        /* \"#utility.yul\":4130:4333   */\n      jump\n        /* \"ProfitOrg/marketPlace.sol\":21159:21245  if(_nftAddress == address(0)){... */\n    tag_418:\n        /* \"ProfitOrg/marketPlace.sol\":21268:21287  _listStartTime != 0 */\n      dup5\n      iszero\n      dup1\n      iszero\n      swap1\n        /* \"ProfitOrg/marketPlace.sol\":21268:21308  _listStartTime != 0 && _listEndTime != 0 */\n      tag_420\n      jumpi\n      pop\n        /* \"ProfitOrg/marketPlace.sol\":21291:21308  _listEndTime != 0 */\n      dup4\n      iszero\n      iszero\n        /* \"ProfitOrg/marketPlace.sol\":21268:21308  _listStartTime != 0 && _listEndTime != 0 */\n    tag_420:\n        /* \"ProfitOrg/marketPlace.sol\":21264:21490  if (_listStartTime != 0 && _listEndTime != 0 ){... */\n      iszero\n      tag_423\n      jumpi\n        /* \"ProfitOrg/marketPlace.sol\":21346:21361  block.timestamp */\n      timestamp\n        /* \"ProfitOrg/marketPlace.sol\":21328:21342  _listStartTime */\n      dup6\n        /* \"ProfitOrg/marketPlace.sol\":21328:21361  _listStartTime <= block.timestamp */\n      gt\n      iszero\n        /* \"ProfitOrg/marketPlace.sol\":21328:21394  _listStartTime <= block.timestamp && _listEndTime < _listStartTime */\n      dup1\n      iszero\n      tag_422\n      jumpi\n      pop\n        /* \"ProfitOrg/marketPlace.sol\":21380:21394  _listStartTime */\n      dup5\n        /* \"ProfitOrg/marketPlace.sol\":21365:21377  _listEndTime */\n      dup5\n        /* \"ProfitOrg/marketPlace.sol\":21365:21394  _listEndTime < _listStartTime */\n      lt\n        /* \"ProfitOrg/marketPlace.sol\":21328:21394  _listStartTime <= block.timestamp && _listEndTime < _listStartTime */\n    tag_422:\n        /* \"ProfitOrg/marketPlace.sol\":21325:21480  if(_listStartTime <= block.timestamp && _listEndTime < _listStartTime){... */\n      iszero\n      tag_423\n      jumpi\n        /* \"ProfitOrg/marketPlace.sol\":21420:21465  invalidTimeStamp(_listStartTime,_listEndTime) */\n      mload(0x40)\n      shl(0xe0, 0xdd96246f)\n      dup2\n      mstore\n      0x04\n      dup2\n      add\n        /* \"#utility.yul\":15922:15947   */\n      dup7\n      swap1\n      mstore\n        /* \"#utility.yul\":15963:15981   */\n      0x24\n      dup2\n      add\n        /* \"#utility.yul\":15956:15990   */\n      dup6\n      swap1\n      mstore\n        /* \"#utility.yul\":15895:15913   */\n      0x44\n      add\n        /* \"ProfitOrg/marketPlace.sol\":21420:21465  invalidTimeStamp(_listStartTime,_listEndTime) */\n      tag_158\n        /* \"#utility.yul\":15748:15996   */\n      jump\n        /* \"ProfitOrg/marketPlace.sol\":21325:21480  if(_listStartTime <= block.timestamp && _listEndTime < _listStartTime){... */\n    tag_423:\n        /* \"ProfitOrg/marketPlace.sol\":14507:14526  _listStartTime == 0 */\n      dup10\n      iszero\n        /* \"ProfitOrg/marketPlace.sol\":14507:14547  _listStartTime == 0 && _listEndTime == 0 */\n      dup1\n      iszero\n      tag_426\n      jumpi\n      pop\n        /* \"ProfitOrg/marketPlace.sol\":14530:14547  _listEndTime == 0 */\n      dup9\n      iszero\n        /* \"ProfitOrg/marketPlace.sol\":14507:14547  _listStartTime == 0 && _listEndTime == 0 */\n    tag_426:\n        /* \"ProfitOrg/marketPlace.sol\":14504:14608  if(_listStartTime == 0 && _listEndTime == 0){... */\n      iszero\n      tag_427\n      jumpi\n        /* \"ProfitOrg/marketPlace.sol\":14593:14597  true */\n      0x01\n        /* \"ProfitOrg/marketPlace.sol\":14570:14576  listId */\n      sload\n        /* \"ProfitOrg/marketPlace.sol\":14562:14577  listing[listId] */\n      0x00\n      swap1\n      dup2\n      mstore\n        /* \"ProfitOrg/marketPlace.sol\":14562:14569  listing */\n      0x04\n        /* \"ProfitOrg/marketPlace.sol\":14562:14577  listing[listId] */\n      0x20\n      mstore\n      0x40\n      swap1\n      keccak256\n        /* \"ProfitOrg/marketPlace.sol\":14562:14597  listing[listId].fixedPrice  =  true */\n      dup1\n      sload\n      not(0xff0000)\n      and\n      0x010000\n      or\n      swap1\n      sstore\n        /* \"ProfitOrg/marketPlace.sol\":14504:14608  if(_listStartTime == 0 && _listEndTime == 0){... */\n    tag_427:\n      pop\n      pop\n        /* \"ProfitOrg/marketPlace.sol\":14643:14647  true */\n      0x01\n        /* \"ProfitOrg/marketPlace.sol\":14626:14632  listId */\n      dup1\n      sload\n        /* \"ProfitOrg/marketPlace.sol\":14618:14633  listing[listId] */\n      0x00\n      swap1\n      dup2\n      mstore\n        /* \"ProfitOrg/marketPlace.sol\":14618:14625  listing */\n      0x04\n        /* \"ProfitOrg/marketPlace.sol\":14618:14633  listing[listId] */\n      0x20\n      dup2\n      swap1\n      mstore\n      0x40\n      dup1\n      dup4\n      keccak256\n        /* \"ProfitOrg/marketPlace.sol\":14618:14647  listing[listId].listed = true */\n      dup1\n      sload\n      not(0xff)\n      and\n      dup6\n      or\n      swap1\n      sstore\n        /* \"ProfitOrg/marketPlace.sol\":14665:14671  listId */\n      dup4\n      sload\n        /* \"ProfitOrg/marketPlace.sol\":14657:14672  listing[listId] */\n      dup4\n      mstore\n      dup1\n      dup4\n      keccak256\n        /* \"ProfitOrg/marketPlace.sol\":14657:14680  listing[listId].tokenId */\n      0x03\n      add\n        /* \"ProfitOrg/marketPlace.sol\":14657:14691  listing[listId].tokenId = _tokenId */\n      swap15\n      swap1\n      swap15\n      sstore\n        /* \"ProfitOrg/marketPlace.sol\":14709:14715  listId */\n      dup3\n      sload\n        /* \"ProfitOrg/marketPlace.sol\":14701:14716  listing[listId] */\n      dup3\n      mstore\n      dup14\n      dup3\n      keccak256\n        /* \"ProfitOrg/marketPlace.sol\":14701:14727  listing[listId].noOfCopies */\n      add\n        /* \"ProfitOrg/marketPlace.sol\":14701:14741  listing[listId].noOfCopies = _noOfCopies */\n      swap12\n      swap1\n      swap12\n      sstore\n        /* \"ProfitOrg/marketPlace.sol\":14759:14765  listId */\n      dup1\n      sload\n        /* \"ProfitOrg/marketPlace.sol\":14751:14766  listing[listId] */\n      dup12\n      mstore\n      dup12\n      dup12\n      keccak256\n        /* \"ProfitOrg/marketPlace.sol\":14751:14772  listing[listId].price */\n      0x02\n      add\n        /* \"ProfitOrg/marketPlace.sol\":14751:14788  listing[listId].price = _initialPrice */\n      swap10\n      swap1\n      swap10\n      sstore\n      pop\n      pop\n        /* \"ProfitOrg/marketPlace.sol\":14806:14812  listId */\n      dup7\n      sload\n        /* \"ProfitOrg/marketPlace.sol\":14798:14813  listing[listId] */\n      dup9\n      mstore\n      pop\n      pop\n      dup7\n      dup7\n      keccak256\n        /* \"ProfitOrg/marketPlace.sol\":14798:14830  listing[listId].listingStartTime */\n      0x09\n      add\n        /* \"ProfitOrg/marketPlace.sol\":14798:14847  listing[listId].listingStartTime = _listStartTime */\n      swap4\n      swap1\n      swap4\n      sstore\n      pop\n        /* \"ProfitOrg/marketPlace.sol\":14865:14871  listId */\n      dup3\n      sload\n        /* \"ProfitOrg/marketPlace.sol\":14857:14872  listing[listId] */\n      dup5\n      mstore\n      dup5\n      dup5\n      keccak256\n        /* \"ProfitOrg/marketPlace.sol\":14857:14887  listing[listId].listingEndTime */\n      0x08\n      add\n        /* \"ProfitOrg/marketPlace.sol\":14857:14902  listing[listId].listingEndTime = _listEndTime */\n      sstore\n        /* \"ProfitOrg/marketPlace.sol\":14920:14926  listId */\n      dup2\n      sload\n        /* \"ProfitOrg/marketPlace.sol\":14912:14927  listing[listId] */\n      dup4\n      mstore\n      dup4\n      dup4\n      keccak256\n        /* \"ProfitOrg/marketPlace.sol\":14912:14936  listing[listId].nftOwner */\n      0x05\n      add\n        /* \"ProfitOrg/marketPlace.sol\":14912:14949  listing[listId].nftOwner = msg.sender */\n      dup1\n      sload\n      not(sub(shl(0xa0, 0x01), 0x01))\n      and\n        /* \"ProfitOrg/marketPlace.sol\":14939:14949  msg.sender */\n      caller\n        /* \"ProfitOrg/marketPlace.sol\":14912:14949  listing[listId].nftOwner = msg.sender */\n      or\n      swap1\n      sstore\n        /* \"ProfitOrg/marketPlace.sol\":14967:14973  listId */\n      dup2\n      sload\n        /* \"ProfitOrg/marketPlace.sol\":14959:14974  listing[listId] */\n      dup4\n      mstore\n      swap3\n      swap1\n      swap2\n      keccak256\n        /* \"ProfitOrg/marketPlace.sol\":14959:14995  listing[listId].serviceFeePercentage */\n      add\n        /* \"ProfitOrg/marketPlace.sol\":14959:15009  listing[listId].serviceFeePercentage = _serviceFee */\n      sstore\n        /* \"ProfitOrg/marketPlace.sol\":14050:15016  function setListingInfo(... */\n      jump\t// out\n        /* \"@openzeppelin/contracts-upgradeable/token/ERC1155/utils/ERC1155HolderUpgradeable.sol\":824:889  function __ERC1155Holder_init() internal onlyInitializing {... */\n    tag_194:\n        /* \"@openzeppelin/contracts-upgradeable/proxy/utils/Initializable.sol\":6931:6951  _checkInitializing() */\n      tag_265\n        /* \"@openzeppelin/contracts-upgradeable/proxy/utils/Initializable.sol\":6931:6949  _checkInitializing */\n      tag_431\n        /* \"@openzeppelin/contracts-upgradeable/proxy/utils/Initializable.sol\":6931:6951  _checkInitializing() */\n      jump\t// in\n        /* \"@openzeppelin/contracts-upgradeable/access/OwnableUpgradeable.sol\":1847:1974  function __Ownable_init(address initialOwner) internal onlyInitializing {... */\n    tag_196:\n        /* \"@openzeppelin/contracts-upgradeable/proxy/utils/Initializable.sol\":6931:6951  _checkInitializing() */\n      tag_434\n        /* \"@openzeppelin/contracts-upgradeable/proxy/utils/Initializable.sol\":6931:6949  _checkInitializing */\n      tag_431\n        /* \"@openzeppelin/contracts-upgradeable/proxy/utils/Initializable.sol\":6931:6951  _checkInitializing() */\n      jump\t// in\n    tag_434:\n        /* \"@openzeppelin/contracts-upgradeable/access/OwnableUpgradeable.sol\":1929:1967  __Ownable_init_unchained(initialOwner) */\n      tag_402\n        /* \"@openzeppelin/contracts-upgradeable/access/OwnableUpgradeable.sol\":1954:1966  initialOwner */\n      dup2\n        /* \"@openzeppelin/contracts-upgradeable/access/OwnableUpgradeable.sol\":1929:1953  __Ownable_init_unchained */\n      tag_437\n        /* \"@openzeppelin/contracts-upgradeable/access/OwnableUpgradeable.sol\":1929:1967  __Ownable_init_unchained(initialOwner) */\n      jump\t// in\n        /* \"ProfitOrg/marketPlace.sol\":18885:19260  function calulateFee(uint256 _salePrice , uint256 _serviceFeePercentage) private pure returns(uint256){... */\n    tag_218:\n        /* \"ProfitOrg/marketPlace.sol\":18979:18986  uint256 */\n      0x00\n        /* \"ProfitOrg/marketPlace.sol\":19014:19024  _salePrice */\n      dup3\n        /* \"ProfitOrg/marketPlace.sol\":19027:19028  0 */\n      0x00\n        /* \"ProfitOrg/marketPlace.sol\":19014:19028  _salePrice !=0 */\n      sub\n        /* \"ProfitOrg/marketPlace.sol\":19006:19062  require(_salePrice !=0 , \"Price of NFT can not be zero\") */\n      tag_442\n      jumpi\n      mload(0x40)\n      shl(0xe5, 0x461bcd)\n      dup2\n      mstore\n        /* \"#utility.yul\":18757:18759   */\n      0x20\n        /* \"ProfitOrg/marketPlace.sol\":19006:19062  require(_salePrice !=0 , \"Price of NFT can not be zero\") */\n      0x04\n      dup3\n      add\n        /* \"#utility.yul\":18739:18760   */\n      mstore\n        /* \"#utility.yul\":18796:18798   */\n      0x1c\n        /* \"#utility.yul\":18776:18794   */\n      0x24\n      dup3\n      add\n        /* \"#utility.yul\":18769:18799   */\n      mstore\n        /* \"#utility.yul\":18835:18865   */\n      0x5072696365206f66204e46542063616e206e6f74206265207a65726f00000000\n        /* \"#utility.yul\":18815:18833   */\n      0x44\n      dup3\n      add\n        /* \"#utility.yul\":18808:18866   */\n      mstore\n        /* \"#utility.yul\":18883:18901   */\n      0x64\n      add\n        /* \"ProfitOrg/marketPlace.sol\":19006:19062  require(_salePrice !=0 , \"Price of NFT can not be zero\") */\n      tag_158\n        /* \"#utility.yul\":18555:18907   */\n      jump\n        /* \"ProfitOrg/marketPlace.sol\":19006:19062  require(_salePrice !=0 , \"Price of NFT can not be zero\") */\n    tag_442:\n        /* \"ProfitOrg/marketPlace.sol\":19080:19101  _serviceFeePercentage */\n      dup2\n        /* \"ProfitOrg/marketPlace.sol\":19104:19105  0 */\n      0x00\n        /* \"ProfitOrg/marketPlace.sol\":19080:19105  _serviceFeePercentage !=0 */\n      sub\n        /* \"ProfitOrg/marketPlace.sol\":19072:19131  require(_serviceFeePercentage !=0 , \"_PBP can not be zero\") */\n      tag_445\n      jumpi\n      mload(0x40)\n      shl(0xe5, 0x461bcd)\n      dup2\n      mstore\n        /* \"#utility.yul\":19114:19116   */\n      0x20\n        /* \"ProfitOrg/marketPlace.sol\":19072:19131  require(_serviceFeePercentage !=0 , \"_PBP can not be zero\") */\n      0x04\n      dup3\n      add\n        /* \"#utility.yul\":19096:19117   */\n      mstore\n        /* \"#utility.yul\":19153:19155   */\n      0x14\n        /* \"#utility.yul\":19133:19151   */\n      0x24\n      dup3\n      add\n        /* \"#utility.yul\":19126:19156   */\n      mstore\n      shl(0x60, 0x5f5042502063616e206e6f74206265207a65726f)\n        /* \"#utility.yul\":19172:19190   */\n      0x44\n      dup3\n      add\n        /* \"#utility.yul\":19165:19215   */\n      mstore\n        /* \"#utility.yul\":19232:19250   */\n      0x64\n      add\n        /* \"ProfitOrg/marketPlace.sol\":19072:19131  require(_serviceFeePercentage !=0 , \"_PBP can not be zero\") */\n      tag_158\n        /* \"#utility.yul\":18912:19256   */\n      jump\n        /* \"ProfitOrg/marketPlace.sol\":19072:19131  require(_serviceFeePercentage !=0 , \"_PBP can not be zero\") */\n    tag_445:\n        /* \"ProfitOrg/marketPlace.sol\":19150:19168  uint256 serviceFee */\n      0x00\n        /* \"ProfitOrg/marketPlace.sol\":19211:19216  10000 */\n      0x2710\n        /* \"ProfitOrg/marketPlace.sol\":19172:19206  _salePrice * _serviceFeePercentage */\n      tag_448\n        /* \"ProfitOrg/marketPlace.sol\":19185:19206  _serviceFeePercentage */\n      dup5\n        /* \"ProfitOrg/marketPlace.sol\":19172:19182  _salePrice */\n      dup7\n        /* \"ProfitOrg/marketPlace.sol\":19172:19206  _salePrice * _serviceFeePercentage */\n      tag_449\n      jump\t// in\n    tag_448:\n        /* \"ProfitOrg/marketPlace.sol\":19171:19217  (_salePrice * _serviceFeePercentage) / (10000) */\n      tag_450\n      swap2\n      swap1\n      tag_451\n      jump\t// in\n    tag_450:\n        /* \"ProfitOrg/marketPlace.sol\":19150:19217  uint256 serviceFee = (_salePrice * _serviceFeePercentage) / (10000) */\n      swap5\n        /* \"ProfitOrg/marketPlace.sol\":18885:19260  function calulateFee(uint256 _salePrice , uint256 _serviceFeePercentage) private pure returns(uint256){... */\n      swap4\n      pop\n      pop\n      pop\n      pop\n      jump\t// out\n        /* \"ProfitOrg/marketPlace.sol\":15022:16125  function donationFeeTransfer(uint256 _listId) private returns (uint256) {... */\n    tag_223:\n        /* \"ProfitOrg/marketPlace.sol\":15085:15092  uint256 */\n      0x00\n      dup1\n      dup1\n        /* \"ProfitOrg/marketPlace.sol\":15147:16082  for (uint256 i = 0; i < donationInfo[_listId].noOfOrgazisations; i++) {... */\n    tag_453:\n        /* \"ProfitOrg/marketPlace.sol\":15171:15192  donationInfo[_listId] */\n      0x00\n      dup5\n      dup2\n      mstore\n        /* \"ProfitOrg/marketPlace.sol\":15171:15183  donationInfo */\n      0x05\n        /* \"ProfitOrg/marketPlace.sol\":15171:15192  donationInfo[_listId] */\n      0x20\n      mstore\n      0x40\n      swap1\n      keccak256\n        /* \"ProfitOrg/marketPlace.sol\":15171:15210  donationInfo[_listId].noOfOrgazisations */\n      sload\n        /* \"ProfitOrg/marketPlace.sol\":15167:15210  i < donationInfo[_listId].noOfOrgazisations */\n      dup2\n      lt\n        /* \"ProfitOrg/marketPlace.sol\":15147:16082  for (uint256 i = 0; i < donationInfo[_listId].noOfOrgazisations; i++) {... */\n      iszero\n      tag_454\n      jumpi\n        /* \"ProfitOrg/marketPlace.sol\":15298:15299  0 */\n      0x00\n        /* \"ProfitOrg/marketPlace.sol\":15248:15269  donationInfo[_listId] */\n      dup5\n      dup2\n      mstore\n        /* \"ProfitOrg/marketPlace.sol\":15248:15260  donationInfo */\n      0x05\n        /* \"ProfitOrg/marketPlace.sol\":15248:15269  donationInfo[_listId] */\n      0x20\n      mstore\n      0x40\n      dup2\n      keccak256\n        /* \"ProfitOrg/marketPlace.sol\":15248:15283  donationInfo[_listId].organizations */\n      0x01\n      add\n        /* \"ProfitOrg/marketPlace.sol\":15284:15285  i */\n      dup3\n        /* \"ProfitOrg/marketPlace.sol\":15248:15286  donationInfo[_listId].organizations[i] */\n      0x0a\n      dup2\n      lt\n      tag_457\n      jumpi\n      tag_457\n      tag_370\n      jump\t// in\n    tag_457:\n      add\n      sload\n      sub(shl(0xa0, 0x01), 0x01)\n      and\n        /* \"ProfitOrg/marketPlace.sol\":15248:15300  donationInfo[_listId].organizations[i] != address(0) */\n      eq\n        /* \"ProfitOrg/marketPlace.sol\":15243:16072  if ( donationInfo[_listId].organizations[i] != address(0)) {... */\n      tag_459\n      jumpi\n        /* \"ProfitOrg/marketPlace.sol\":15336:15358  uint256 donationAmount */\n      0x00\n        /* \"ProfitOrg/marketPlace.sol\":15373:15389  listing[_listId] */\n      dup5\n      dup2\n      mstore\n        /* \"ProfitOrg/marketPlace.sol\":15373:15380  listing */\n      0x04\n        /* \"ProfitOrg/marketPlace.sol\":15373:15389  listing[_listId] */\n      0x20\n      swap1\n      dup2\n      mstore\n      0x40\n      dup1\n      dup4\n      keccak256\n        /* \"ProfitOrg/marketPlace.sol\":15373:15395  listing[_listId].price */\n      0x02\n      add\n      sload\n        /* \"ProfitOrg/marketPlace.sol\":15398:15410  donationInfo */\n      0x05\n        /* \"ProfitOrg/marketPlace.sol\":15398:15419  donationInfo[_listId] */\n      swap1\n      swap3\n      mstore\n      dup3\n      keccak256\n        /* \"ProfitOrg/marketPlace.sol\":15361:15441  calulateFee(listing[_listId].price,  donationInfo[_listId].donatePercentages[i]) */\n      tag_460\n      swap2\n        /* \"ProfitOrg/marketPlace.sol\":15373:15395  listing[_listId].price */\n      swap1\n        /* \"ProfitOrg/marketPlace.sol\":15398:15437  donationInfo[_listId].donatePercentages */\n      0x0b\n      add\n        /* \"ProfitOrg/marketPlace.sol\":15438:15439  i */\n      dup5\n        /* \"ProfitOrg/marketPlace.sol\":15398:15440  donationInfo[_listId].donatePercentages[i] */\n      0x0a\n      dup2\n      lt\n      tag_462\n      jumpi\n      tag_462\n      tag_370\n      jump\t// in\n    tag_462:\n      add\n      sload\n        /* \"ProfitOrg/marketPlace.sol\":15361:15372  calulateFee */\n      tag_218\n        /* \"ProfitOrg/marketPlace.sol\":15361:15441  calulateFee(listing[_listId].price,  donationInfo[_listId].donatePercentages[i]) */\n      jump\t// in\n    tag_460:\n        /* \"ProfitOrg/marketPlace.sol\":15477:15494  bool _haveSponsor */\n      0x00\n        /* \"ProfitOrg/marketPlace.sol\":15502:15517  mintingContract */\n      dup1\n      sload\n        /* \"ProfitOrg/marketPlace.sol\":15535:15556  donationInfo[_listId] */\n      dup8\n      dup3\n      mstore\n        /* \"ProfitOrg/marketPlace.sol\":15535:15547  donationInfo */\n      0x05\n        /* \"ProfitOrg/marketPlace.sol\":15535:15556  donationInfo[_listId] */\n      0x20\n      mstore\n      0x40\n      dup3\n      keccak256\n        /* \"ProfitOrg/marketPlace.sol\":15336:15441  uint256 donationAmount = calulateFee(listing[_listId].price,  donationInfo[_listId].donatePercentages[i]) */\n      swap3\n      swap4\n      pop\n        /* \"ProfitOrg/marketPlace.sol\":15477:15494  bool _haveSponsor */\n      swap1\n      swap2\n      sub(shl(0xa0, 0x01), 0x01)\n        /* \"ProfitOrg/marketPlace.sol\":15502:15517  mintingContract */\n      swap1\n      swap2\n      and\n      swap1\n        /* \"ProfitOrg/marketPlace.sol\":15502:15534  mintingContract.getFiscalSponsor */\n      0x53f50119\n      swap1\n        /* \"ProfitOrg/marketPlace.sol\":15502:15517  mintingContract */\n      0x01\n        /* \"ProfitOrg/marketPlace.sol\":15535:15570  donationInfo[_listId].organizations */\n      add\n        /* \"ProfitOrg/marketPlace.sol\":15571:15572  i */\n      dup6\n        /* \"ProfitOrg/marketPlace.sol\":15535:15573  donationInfo[_listId].organizations[i] */\n      0x0a\n      dup2\n      lt\n      tag_465\n      jumpi\n      tag_465\n      tag_370\n      jump\t// in\n    tag_465:\n      add\n      sload\n        /* \"ProfitOrg/marketPlace.sol\":15502:15574  mintingContract.getFiscalSponsor(donationInfo[_listId].organizations[i]) */\n      mload(0x40)\n      0xe0\n      dup4\n      swap1\n      shl\n      not(sub(shl(0xe0, 0x01), 0x01))\n      and\n      dup2\n      mstore\n      sub(shl(0xa0, 0x01), 0x01)\n        /* \"ProfitOrg/marketPlace.sol\":15535:15573  donationInfo[_listId].organizations[i] */\n      swap1\n      swap2\n      and\n        /* \"ProfitOrg/marketPlace.sol\":15502:15574  mintingContract.getFiscalSponsor(donationInfo[_listId].organizations[i]) */\n      0x04\n      dup3\n      add\n        /* \"#utility.yul\":4276:4327   */\n      mstore\n        /* \"#utility.yul\":4249:4267   */\n      0x24\n      add\n        /* \"ProfitOrg/marketPlace.sol\":15502:15574  mintingContract.getFiscalSponsor(donationInfo[_listId].organizations[i]) */\n      0x80\n      mload(0x40)\n      dup1\n      dup4\n      sub\n      dup2\n      dup7\n      gas\n      staticcall\n      iszero\n      dup1\n      iszero\n      tag_469\n      jumpi\n      returndatasize\n      0x00\n      dup1\n      returndatacopy\n      revert(0x00, returndatasize)\n    tag_469:\n      pop\n      pop\n      pop\n      pop\n      mload(0x40)\n      returndatasize\n      not(0x1f)\n      0x1f\n      dup3\n      add\n      and\n      dup3\n      add\n      dup1\n      0x40\n      mstore\n      pop\n      dup2\n      add\n      swap1\n      tag_470\n      swap2\n      swap1\n      tag_228\n      jump\t// in\n    tag_470:\n        /* \"ProfitOrg/marketPlace.sol\":15476:15574  (bool _haveSponsor,,,)  = mintingContract.getFiscalSponsor(donationInfo[_listId].organizations[i]) */\n      pop\n      pop\n      pop\n      swap1\n      pop\n        /* \"ProfitOrg/marketPlace.sol\":15602:15620  uint256 _fiscalFee */\n      0x00\n        /* \"ProfitOrg/marketPlace.sol\":15654:15666  _haveSponsor */\n      dup2\n        /* \"ProfitOrg/marketPlace.sol\":15651:15800  if(_haveSponsor){... */\n      iszero\n      tag_471\n      jumpi\n        /* \"ProfitOrg/marketPlace.sol\":15721:15722  0 */\n      0x00\n        /* \"ProfitOrg/marketPlace.sol\":15723:15744  donationInfo[_listId] */\n      dup8\n      dup2\n      mstore\n        /* \"ProfitOrg/marketPlace.sol\":15723:15735  donationInfo */\n      0x05\n        /* \"ProfitOrg/marketPlace.sol\":15723:15744  donationInfo[_listId] */\n      0x20\n      mstore\n      0x40\n      dup2\n      keccak256\n        /* \"ProfitOrg/marketPlace.sol\":15707:15777  sendFiscalFee(0,donationInfo[_listId].organizations[i],donationAmount) */\n      tag_472\n      swap2\n        /* \"ProfitOrg/marketPlace.sol\":15721:15722  0 */\n      swap1\n        /* \"ProfitOrg/marketPlace.sol\":15723:15758  donationInfo[_listId].organizations */\n      0x01\n      add\n        /* \"ProfitOrg/marketPlace.sol\":15759:15760  i */\n      dup7\n        /* \"ProfitOrg/marketPlace.sol\":15723:15761  donationInfo[_listId].organizations[i] */\n      0x0a\n      dup2\n      lt\n      tag_474\n      jumpi\n      tag_474\n      tag_370\n      jump\t// in\n    tag_474:\n      add\n      sload\n      sub(shl(0xa0, 0x01), 0x01)\n      and\n        /* \"ProfitOrg/marketPlace.sol\":15762:15776  donationAmount */\n      dup6\n        /* \"ProfitOrg/marketPlace.sol\":15707:15720  sendFiscalFee */\n      tag_231\n        /* \"ProfitOrg/marketPlace.sol\":15707:15777  sendFiscalFee(0,donationInfo[_listId].organizations[i],donationAmount) */\n      jump\t// in\n    tag_472:\n        /* \"ProfitOrg/marketPlace.sol\":15694:15777  _fiscalFee = sendFiscalFee(0,donationInfo[_listId].organizations[i],donationAmount) */\n      swap1\n      pop\n        /* \"ProfitOrg/marketPlace.sol\":15651:15800  if(_haveSponsor){... */\n    tag_471:\n        /* \"ProfitOrg/marketPlace.sol\":15817:15847  uint256 transferDonationAmount */\n      0x00\n        /* \"ProfitOrg/marketPlace.sol\":15850:15877  donationAmount - _fiscalFee */\n      tag_476\n        /* \"ProfitOrg/marketPlace.sol\":15867:15877  _fiscalFee */\n      dup3\n        /* \"ProfitOrg/marketPlace.sol\":15850:15864  donationAmount */\n      dup6\n        /* \"ProfitOrg/marketPlace.sol\":15850:15877  donationAmount - _fiscalFee */\n      tag_239\n      jump\t// in\n    tag_476:\n        /* \"ProfitOrg/marketPlace.sol\":15938:15959  donationInfo[_listId] */\n      0x00\n      dup10\n      dup2\n      mstore\n        /* \"ProfitOrg/marketPlace.sol\":15938:15950  donationInfo */\n      0x05\n        /* \"ProfitOrg/marketPlace.sol\":15938:15959  donationInfo[_listId] */\n      0x20\n      mstore\n      0x40\n      swap1\n      keccak256\n        /* \"ProfitOrg/marketPlace.sol\":15817:15877  uint256 transferDonationAmount = donationAmount - _fiscalFee */\n      swap1\n      swap2\n      pop\n        /* \"ProfitOrg/marketPlace.sol\":15911:16002  transferFundsInEth(payable(donationInfo[_listId].organizations[i]), transferDonationAmount) */\n      tag_477\n      swap1\n        /* \"ProfitOrg/marketPlace.sol\":15938:15973  donationInfo[_listId].organizations */\n      0x01\n      add\n        /* \"ProfitOrg/marketPlace.sol\":15974:15975  i */\n      dup7\n        /* \"ProfitOrg/marketPlace.sol\":15938:15976  donationInfo[_listId].organizations[i] */\n      0x0a\n      dup2\n      lt\n      tag_479\n      jumpi\n      tag_479\n      tag_370\n      jump\t// in\n    tag_479:\n      add\n      sload\n      sub(shl(0xa0, 0x01), 0x01)\n      and\n        /* \"ProfitOrg/marketPlace.sol\":15979:16001  transferDonationAmount */\n      dup3\n        /* \"ProfitOrg/marketPlace.sol\":15911:15929  transferFundsInEth */\n      tag_242\n        /* \"ProfitOrg/marketPlace.sol\":15911:16002  transferFundsInEth(payable(donationInfo[_listId].organizations[i]), transferDonationAmount) */\n      jump\t// in\n    tag_477:\n        /* \"ProfitOrg/marketPlace.sol\":16020:16057  totalDonationAmount += donationAmount */\n      tag_481\n        /* \"ProfitOrg/marketPlace.sol\":16043:16057  donationAmount */\n      dup5\n        /* \"ProfitOrg/marketPlace.sol\":16020:16057  totalDonationAmount += donationAmount */\n      dup8\n      tag_235\n      jump\t// in\n    tag_481:\n      swap6\n      pop\n        /* \"ProfitOrg/marketPlace.sol\":15302:16072  {... */\n      pop\n      pop\n      pop\n      pop\n        /* \"ProfitOrg/marketPlace.sol\":15243:16072  if ( donationInfo[_listId].organizations[i] != address(0)) {... */\n    tag_459:\n        /* \"ProfitOrg/marketPlace.sol\":15212:15215  i++ */\n      0x01\n      add\n        /* \"ProfitOrg/marketPlace.sol\":15147:16082  for (uint256 i = 0; i < donationInfo[_listId].noOfOrgazisations; i++) {... */\n      jump(tag_453)\n    tag_454:\n      pop\n        /* \"ProfitOrg/marketPlace.sol\":16099:16118  totalDonationAmount */\n      swap3\n        /* \"ProfitOrg/marketPlace.sol\":15022:16125  function donationFeeTransfer(uint256 _listId) private returns (uint256) {... */\n      swap2\n      pop\n      pop\n      jump\t// out\n        /* \"ProfitOrg/marketPlace.sol\":16132:17165  function  sendFiscalFee(uint256 _listId,address organizationAddress, uint256 _feeAmount) private returns (uint256){... */\n    tag_231:\n        /* \"ProfitOrg/marketPlace.sol\":16238:16245  uint256 */\n      0x00\n      dup1\n      dup1\n        /* \"ProfitOrg/marketPlace.sol\":16306:16318  _listId != 0 */\n      dup6\n      iszero\n      dup1\n      iszero\n      swap1\n        /* \"ProfitOrg/marketPlace.sol\":16306:16355  _listId != 0 && organizationAddress == address(0) */\n      tag_483\n      jumpi\n      pop\n      sub(shl(0xa0, 0x01), 0x01)\n        /* \"ProfitOrg/marketPlace.sol\":16322:16355  organizationAddress == address(0) */\n      dup6\n      and\n      iszero\n        /* \"ProfitOrg/marketPlace.sol\":16306:16355  _listId != 0 && organizationAddress == address(0) */\n    tag_483:\n        /* \"ProfitOrg/marketPlace.sol\":16306:16374  _listId != 0 && organizationAddress == address(0) && _feeAmount == 0 */\n      dup1\n      iszero\n      tag_484\n      jumpi\n      pop\n        /* \"ProfitOrg/marketPlace.sol\":16359:16374  _feeAmount == 0 */\n      dup4\n      iszero\n        /* \"ProfitOrg/marketPlace.sol\":16306:16374  _listId != 0 && organizationAddress == address(0) && _feeAmount == 0 */\n    tag_484:\n        /* \"ProfitOrg/marketPlace.sol\":16305:16467  (_listId != 0 && organizationAddress == address(0) && _feeAmount == 0) ... */\n      tag_485\n      jumpi\n        /* \"ProfitOrg/marketPlace.sol\":16448:16467  organizationAddress */\n      dup5\n        /* \"ProfitOrg/marketPlace.sol\":16305:16467  (_listId != 0 && organizationAddress == address(0) && _feeAmount == 0) ... */\n      jump(tag_486)\n    tag_485:\n        /* \"ProfitOrg/marketPlace.sol\":16399:16415  listing[_listId] */\n      0x00\n      dup7\n      dup2\n      mstore\n        /* \"ProfitOrg/marketPlace.sol\":16399:16406  listing */\n      0x04\n        /* \"ProfitOrg/marketPlace.sol\":16399:16415  listing[_listId] */\n      0x20\n      mstore\n      0x40\n      swap1\n      keccak256\n        /* \"ProfitOrg/marketPlace.sol\":16399:16424  listing[_listId].nftOwner */\n      0x05\n      add\n      sload\n      sub(shl(0xa0, 0x01), 0x01)\n      and\n        /* \"ProfitOrg/marketPlace.sol\":16305:16467  (_listId != 0 && organizationAddress == address(0) && _feeAmount == 0) ... */\n    tag_486:\n        /* \"ProfitOrg/marketPlace.sol\":16493:16525  uint256 _fiscalSponsorPercentage */\n      0x00\n        /* \"ProfitOrg/marketPlace.sol\":16585:16600  mintingContract */\n      dup1\n      sload\n        /* \"ProfitOrg/marketPlace.sol\":16585:16628  mintingContract.getFiscalSponsor(_nftOwner) */\n      mload(0x40)\n      shl(0xe0, 0x53f50119)\n      dup2\n      mstore\n      sub(shl(0xa0, 0x01), 0x01)\n        /* \"#utility.yul\":4294:4326   */\n      dup1\n      dup6\n      and\n        /* \"ProfitOrg/marketPlace.sol\":16585:16628  mintingContract.getFiscalSponsor(_nftOwner) */\n      0x04\n      dup4\n      add\n        /* \"#utility.yul\":4276:4327   */\n      mstore\n        /* \"ProfitOrg/marketPlace.sol\":16285:16467  address _nftOwner = (_listId != 0 && organizationAddress == address(0) && _feeAmount == 0) ... */\n      swap4\n      swap5\n      pop\n        /* \"ProfitOrg/marketPlace.sol\":16493:16525  uint256 _fiscalSponsorPercentage */\n      swap2\n      swap3\n      dup4\n      swap3\n        /* \"ProfitOrg/marketPlace.sol\":16585:16600  mintingContract */\n      swap2\n      and\n      swap1\n        /* \"ProfitOrg/marketPlace.sol\":16585:16617  mintingContract.getFiscalSponsor */\n      0x53f50119\n      swap1\n        /* \"#utility.yul\":4249:4267   */\n      0x24\n      add\n        /* \"ProfitOrg/marketPlace.sol\":16585:16628  mintingContract.getFiscalSponsor(_nftOwner) */\n      0x80\n      mload(0x40)\n      dup1\n      dup4\n      sub\n      dup2\n      dup7\n      gas\n      staticcall\n      iszero\n      dup1\n      iszero\n      tag_489\n      jumpi\n      returndatasize\n      0x00\n      dup1\n      returndatacopy\n      revert(0x00, returndatasize)\n    tag_489:\n      pop\n      pop\n      pop\n      pop\n      mload(0x40)\n      returndatasize\n      not(0x1f)\n      0x1f\n      dup3\n      add\n      and\n      dup3\n      add\n      dup1\n      0x40\n      mstore\n      pop\n      dup2\n      add\n      swap1\n      tag_490\n      swap2\n      swap1\n      tag_228\n      jump\t// in\n    tag_490:\n        /* \"ProfitOrg/marketPlace.sol\":16478:16628  (,... */\n      pop\n      swap3\n      pop\n      swap3\n      pop\n      pop\n        /* \"ProfitOrg/marketPlace.sol\":16646:16670  _fiscalSponsorPercentage */\n      dup2\n        /* \"ProfitOrg/marketPlace.sol\":16674:16675  0 */\n      0x00\n        /* \"ProfitOrg/marketPlace.sol\":16646:16675  _fiscalSponsorPercentage == 0 */\n      sub\n        /* \"ProfitOrg/marketPlace.sol\":16643:16900  if(_fiscalSponsorPercentage == 0){... */\n      tag_492\n      jumpi\n      sub(shl(0xa0, 0x01), 0x01)\n        /* \"ProfitOrg/marketPlace.sol\":16722:16754  defaultFiscalFee[_fiscalSponser] */\n      dup2\n      and\n      0x00\n      swap1\n      dup2\n      mstore\n        /* \"ProfitOrg/marketPlace.sol\":16722:16738  defaultFiscalFee */\n      0x06\n        /* \"ProfitOrg/marketPlace.sol\":16722:16754  defaultFiscalFee[_fiscalSponser] */\n      0x20\n      mstore\n      0x40\n      dup2\n      keccak256\n      sload\n      swap3\n      pop\n        /* \"ProfitOrg/marketPlace.sol\":16776:16805  _fiscalSponsorPercentage == 0 */\n      dup3\n      swap1\n      sub\n        /* \"ProfitOrg/marketPlace.sol\":16773:16886  if(_fiscalSponsorPercentage == 0){... */\n      tag_492\n      jumpi\n        /* \"ProfitOrg/marketPlace.sol\":16856:16860  1000 */\n      0x03e8\n        /* \"ProfitOrg/marketPlace.sol\":16829:16860  _fiscalSponsorPercentage = 1000 */\n      swap2\n      pop\n        /* \"ProfitOrg/marketPlace.sol\":16773:16886  if(_fiscalSponsorPercentage == 0){... */\n    tag_492:\n        /* \"ProfitOrg/marketPlace.sol\":16910:16925  uint256 _amount */\n      0x00\n        /* \"ProfitOrg/marketPlace.sol\":16929:16941  _listId != 0 */\n      dup9\n      iszero\n      dup1\n      iszero\n      swap1\n        /* \"ProfitOrg/marketPlace.sol\":16929:16960  _listId != 0 && _feeAmount == 0 */\n      tag_493\n      jumpi\n      pop\n        /* \"ProfitOrg/marketPlace.sol\":16945:16960  _feeAmount == 0 */\n      dup7\n      iszero\n        /* \"ProfitOrg/marketPlace.sol\":16929:16960  _listId != 0 && _feeAmount == 0 */\n    tag_493:\n        /* \"ProfitOrg/marketPlace.sol\":16928:16999  (_listId != 0 && _feeAmount == 0) ? listing[_listId].price : _feeAmount */\n      tag_494\n      jumpi\n        /* \"ProfitOrg/marketPlace.sol\":16989:16999  _feeAmount */\n      dup7\n        /* \"ProfitOrg/marketPlace.sol\":16928:16999  (_listId != 0 && _feeAmount == 0) ? listing[_listId].price : _feeAmount */\n      jump(tag_495)\n    tag_494:\n        /* \"ProfitOrg/marketPlace.sol\":16964:16980  listing[_listId] */\n      0x00\n      dup10\n      dup2\n      mstore\n        /* \"ProfitOrg/marketPlace.sol\":16964:16971  listing */\n      0x04\n        /* \"ProfitOrg/marketPlace.sol\":16964:16980  listing[_listId] */\n      0x20\n      mstore\n      0x40\n      swap1\n      keccak256\n        /* \"ProfitOrg/marketPlace.sol\":16964:16986  listing[_listId].price */\n      0x02\n      add\n      sload\n        /* \"ProfitOrg/marketPlace.sol\":16928:16999  (_listId != 0 && _feeAmount == 0) ? listing[_listId].price : _feeAmount */\n    tag_495:\n        /* \"ProfitOrg/marketPlace.sol\":16910:16999  uint256 _amount = (_listId != 0 && _feeAmount == 0) ? listing[_listId].price : _feeAmount */\n      swap1\n      pop\n        /* \"ProfitOrg/marketPlace.sol\":17022:17068  calulateFee(_amount, _fiscalSponsorPercentage) */\n      tag_496\n        /* \"ProfitOrg/marketPlace.sol\":17034:17041  _amount */\n      dup2\n        /* \"ProfitOrg/marketPlace.sol\":17043:17067  _fiscalSponsorPercentage */\n      dup5\n        /* \"ProfitOrg/marketPlace.sol\":17022:17033  calulateFee */\n      tag_218\n        /* \"ProfitOrg/marketPlace.sol\":17022:17068  calulateFee(_amount, _fiscalSponsorPercentage) */\n      jump\t// in\n    tag_496:\n        /* \"ProfitOrg/marketPlace.sol\":17010:17068  fiscalFee = calulateFee(_amount, _fiscalSponsorPercentage) */\n      swap5\n      pop\n        /* \"ProfitOrg/marketPlace.sol\":17078:17131  transferFundsInEth(payable(_fiscalSponser),fiscalFee) */\n      tag_497\n        /* \"ProfitOrg/marketPlace.sol\":17105:17119  _fiscalSponser */\n      dup3\n        /* \"ProfitOrg/marketPlace.sol\":17121:17130  fiscalFee */\n      dup7\n        /* \"ProfitOrg/marketPlace.sol\":17078:17096  transferFundsInEth */\n      tag_242\n        /* \"ProfitOrg/marketPlace.sol\":17078:17131  transferFundsInEth(payable(_fiscalSponser),fiscalFee) */\n      jump\t// in\n    tag_497:\n      pop\n        /* \"ProfitOrg/marketPlace.sol\":17149:17158  fiscalFee */\n      swap3\n      swap4\n      pop\n      pop\n      pop\n      pop\n        /* \"ProfitOrg/marketPlace.sol\":16132:17165  function  sendFiscalFee(uint256 _listId,address organizationAddress, uint256 _feeAmount) private returns (uint256){... */\n    tag_482:\n      swap4\n      swap3\n      pop\n      pop\n      pop\n      jump\t// out\n        /* \"ProfitOrg/marketPlace.sol\":17171:17685  function  sendRoyalityFee(uint256 _listId) private returns (uint256){... */\n    tag_233:\n        /* \"ProfitOrg/marketPlace.sol\":17231:17238  uint256 */\n      0x00\n        /* \"ProfitOrg/marketPlace.sol\":17310:17326  listing[_listId] */\n      dup2\n      dup2\n      mstore\n        /* \"ProfitOrg/marketPlace.sol\":17310:17317  listing */\n      0x04\n        /* \"ProfitOrg/marketPlace.sol\":17310:17326  listing[_listId] */\n      0x20\n      mstore\n      0x40\n      dup2\n      keccak256\n        /* \"ProfitOrg/marketPlace.sol\":17310:17337  listing[_listId].nftAddress */\n      0x07\n      add\n      sload\n        /* \"ProfitOrg/marketPlace.sol\":17284:17306  mintingContractAddress */\n      sload(0x03)\n        /* \"ProfitOrg/marketPlace.sol\":17231:17238  uint256 */\n      dup3\n      swap2\n      sub(shl(0xa0, 0x01), 0x01)\n        /* \"ProfitOrg/marketPlace.sol\":17310:17337  listing[_listId].nftAddress */\n      swap1\n      dup2\n      and\n        /* \"ProfitOrg/marketPlace.sol\":17284:17306  mintingContractAddress */\n      swap2\n      and\n        /* \"ProfitOrg/marketPlace.sol\":17284:17337  mintingContractAddress == listing[_listId].nftAddress */\n      sub\n        /* \"ProfitOrg/marketPlace.sol\":17281:17651  if(mintingContractAddress == listing[_listId].nftAddress){... */\n      tag_153\n      jumpi\n        /* \"ProfitOrg/marketPlace.sol\":17366:17392  uint256 _royaltyPercentage */\n      0x00\n        /* \"ProfitOrg/marketPlace.sol\":17420:17435  mintingContract */\n      dup1\n      sload\n        /* \"ProfitOrg/marketPlace.sol\":17450:17466  listing[_listId] */\n      dup5\n      dup3\n      mstore\n        /* \"ProfitOrg/marketPlace.sol\":17450:17457  listing */\n      0x04\n        /* \"ProfitOrg/marketPlace.sol\":17450:17466  listing[_listId] */\n      0x20\n      dup2\n      swap1\n      mstore\n      0x40\n      dup1\n      dup5\n      keccak256\n        /* \"ProfitOrg/marketPlace.sol\":17450:17474  listing[_listId].tokenId */\n      0x03\n      add\n      sload\n        /* \"ProfitOrg/marketPlace.sol\":17420:17475  mintingContract.getMinterInfo(listing[_listId].tokenId) */\n      swap1\n      mload\n      shl(0xe0, 0x8c33e47f)\n      dup2\n      mstore\n      swap2\n      dup3\n      add\n        /* \"#utility.yul\":1587:1612   */\n      mstore\n        /* \"ProfitOrg/marketPlace.sol\":17366:17392  uint256 _royaltyPercentage */\n      dup3\n      swap2\n      sub(shl(0xa0, 0x01), 0x01)\n        /* \"ProfitOrg/marketPlace.sol\":17420:17435  mintingContract */\n      and\n      swap1\n        /* \"ProfitOrg/marketPlace.sol\":17420:17449  mintingContract.getMinterInfo */\n      0x8c33e47f\n      swap1\n        /* \"#utility.yul\":1560:1578   */\n      0x24\n      add\n        /* \"ProfitOrg/marketPlace.sol\":17420:17475  mintingContract.getMinterInfo(listing[_listId].tokenId) */\n      0x40\n      dup1\n      mload\n      dup1\n      dup4\n      sub\n      dup2\n      dup7\n      gas\n      staticcall\n      iszero\n      dup1\n      iszero\n      tag_502\n      jumpi\n      returndatasize\n      0x00\n      dup1\n      returndatacopy\n      revert(0x00, returndatasize)\n    tag_502:\n      pop\n      pop\n      pop\n      pop\n      mload(0x40)\n      returndatasize\n      not(0x1f)\n      0x1f\n      dup3\n      add\n      and\n      dup3\n      add\n      dup1\n      0x40\n      mstore\n      pop\n      dup2\n      add\n      swap1\n      tag_503\n      swap2\n      swap1\n      tag_504\n      jump\t// in\n    tag_503:\n        /* \"ProfitOrg/marketPlace.sol\":17527:17543  listing[_listId] */\n      0x00\n      dup8\n      dup2\n      mstore\n        /* \"ProfitOrg/marketPlace.sol\":17527:17534  listing */\n      0x04\n        /* \"ProfitOrg/marketPlace.sol\":17527:17543  listing[_listId] */\n      0x20\n      mstore\n      0x40\n      swap1\n      keccak256\n        /* \"ProfitOrg/marketPlace.sol\":17527:17549  listing[_listId].price */\n      0x02\n      add\n      sload\n        /* \"ProfitOrg/marketPlace.sol\":17365:17475  (uint256 _royaltyPercentage,address _royaltyReciver) = mintingContract.getMinterInfo(listing[_listId].tokenId) */\n      swap2\n      swap4\n      pop\n      swap2\n      pop\n        /* \"ProfitOrg/marketPlace.sol\":17515:17570  calulateFee(listing[_listId].price, _royaltyPercentage) */\n      tag_505\n      swap1\n        /* \"ProfitOrg/marketPlace.sol\":17365:17475  (uint256 _royaltyPercentage,address _royaltyReciver) = mintingContract.getMinterInfo(listing[_listId].tokenId) */\n      dup4\n        /* \"ProfitOrg/marketPlace.sol\":17515:17526  calulateFee */\n      tag_218\n        /* \"ProfitOrg/marketPlace.sol\":17515:17570  calulateFee(listing[_listId].price, _royaltyPercentage) */\n      jump\t// in\n    tag_505:\n        /* \"ProfitOrg/marketPlace.sol\":17502:17570  royaltyFee = calulateFee(listing[_listId].price, _royaltyPercentage) */\n      swap3\n      pop\n        /* \"ProfitOrg/marketPlace.sol\":17584:17639  transferFundsInEth(payable(_royaltyReciver),royaltyFee) */\n      tag_506\n        /* \"ProfitOrg/marketPlace.sol\":17611:17626  _royaltyReciver */\n      dup2\n        /* \"ProfitOrg/marketPlace.sol\":17628:17638  royaltyFee */\n      dup5\n        /* \"ProfitOrg/marketPlace.sol\":17584:17602  transferFundsInEth */\n      tag_242\n        /* \"ProfitOrg/marketPlace.sol\":17584:17639  transferFundsInEth(payable(_royaltyReciver),royaltyFee) */\n      jump\t// in\n    tag_506:\n        /* \"ProfitOrg/marketPlace.sol\":17338:17651  {... */\n      pop\n      pop\n        /* \"ProfitOrg/marketPlace.sol\":17668:17678  royaltyFee */\n      swap3\n        /* \"ProfitOrg/marketPlace.sol\":17171:17685  function  sendRoyalityFee(uint256 _listId) private returns (uint256){... */\n      swap2\n      pop\n      pop\n      jump\t// out\n        /* \"ProfitOrg/marketPlace.sol\":19267:19466  function transferFundsInEth(address payable _recipient, uint256 _amount) private {... */\n    tag_242:\n        /* \"ProfitOrg/marketPlace.sol\":19360:19372  bool success */\n      0x00\n        /* \"ProfitOrg/marketPlace.sol\":19378:19388  _recipient */\n      dup3\n      sub(shl(0xa0, 0x01), 0x01)\n        /* \"ProfitOrg/marketPlace.sol\":19378:19393  _recipient.call */\n      and\n        /* \"ProfitOrg/marketPlace.sol\":19401:19408  _amount */\n      dup3\n        /* \"ProfitOrg/marketPlace.sol\":19378:19413  _recipient.call{value: _amount}(\"\") */\n      mload(0x40)\n      0x00\n      mload(0x40)\n      dup1\n      dup4\n      sub\n      dup2\n      dup6\n      dup8\n      gas\n      call\n      swap3\n      pop\n      pop\n      pop\n      returndatasize\n      dup1\n      0x00\n      dup2\n      eq\n      tag_512\n      jumpi\n      mload(0x40)\n      swap2\n      pop\n      and(add(returndatasize, 0x3f), not(0x1f))\n      dup3\n      add\n      0x40\n      mstore\n      returndatasize\n      dup3\n      mstore\n      returndatasize\n      0x00\n      0x20\n      dup5\n      add\n      returndatacopy\n      jump(tag_511)\n    tag_512:\n      0x60\n      swap2\n      pop\n    tag_511:\n      pop\n        /* \"ProfitOrg/marketPlace.sol\":19359:19413  (bool success, ) = _recipient.call{value: _amount}(\"\") */\n      pop\n      swap1\n      pop\n        /* \"ProfitOrg/marketPlace.sol\":19431:19438  success */\n      dup1\n        /* \"ProfitOrg/marketPlace.sol\":19423:19458  require(success, \"Transfer failed\") */\n      tag_513\n      jumpi\n      mload(0x40)\n      shl(0xe5, 0x461bcd)\n      dup2\n      mstore\n        /* \"#utility.yul\":20437:20439   */\n      0x20\n        /* \"ProfitOrg/marketPlace.sol\":19423:19458  require(success, \"Transfer failed\") */\n      0x04\n      dup3\n      add\n        /* \"#utility.yul\":20419:20440   */\n      mstore\n        /* \"#utility.yul\":20476:20478   */\n      0x0f\n        /* \"#utility.yul\":20456:20474   */\n      0x24\n      dup3\n      add\n        /* \"#utility.yul\":20449:20479   */\n      mstore\n      shl(0x8a, 0x151c985b9cd9995c8819985a5b1959)\n        /* \"#utility.yul\":20495:20513   */\n      0x44\n      dup3\n      add\n        /* \"#utility.yul\":20488:20533   */\n      mstore\n        /* \"#utility.yul\":20550:20568   */\n      0x64\n      add\n        /* \"ProfitOrg/marketPlace.sol\":19423:19458  require(success, \"Transfer failed\") */\n      tag_158\n        /* \"#utility.yul\":20235:20574   */\n      jump\n        /* \"ProfitOrg/marketPlace.sol\":19423:19458  require(success, \"Transfer failed\") */\n    tag_513:\n        /* \"ProfitOrg/marketPlace.sol\":19348:19466  {... */\n      pop\n        /* \"ProfitOrg/marketPlace.sol\":19267:19466  function transferFundsInEth(address payable _recipient, uint256 _amount) private {... */\n      pop\n      pop\n      jump\t// out\n        /* \"ProfitOrg/marketPlace.sol\":18022:18395  function transferNft(... */\n    tag_245:\n        /* \"ProfitOrg/marketPlace.sol\":18201:18387  IERC1155Upgradeable(_nftAddress).safeTransferFrom(... */\n      mload(0x40)\n      shl(0xe1, 0x79212195)\n      dup2\n      mstore\n      sub(shl(0xa0, 0x01), 0x01)\n        /* \"#utility.yul\":20892:20924   */\n      dup6\n      dup2\n      and\n        /* \"ProfitOrg/marketPlace.sol\":18201:18387  IERC1155Upgradeable(_nftAddress).safeTransferFrom(... */\n      0x04\n      dup1\n      dup5\n      add\n        /* \"#utility.yul\":20874:20925   */\n      swap2\n      swap1\n      swap2\n      mstore\n        /* \"#utility.yul\":20961:20993   */\n      dup6\n      dup3\n      and\n        /* \"#utility.yul\":20941:20959   */\n      0x24\n      dup5\n      add\n        /* \"#utility.yul\":20934:20994   */\n      mstore\n        /* \"#utility.yul\":21010:21028   */\n      0x44\n      dup4\n      add\n        /* \"#utility.yul\":21003:21037   */\n      dup6\n      swap1\n      mstore\n        /* \"#utility.yul\":21053:21071   */\n      0x64\n      dup4\n      add\n        /* \"#utility.yul\":21046:21080   */\n      dup5\n      swap1\n      mstore\n        /* \"#utility.yul\":20912:20915   */\n      0xa0\n        /* \"#utility.yul\":21096:21115   */\n      0x84\n      dup5\n      add\n        /* \"#utility.yul\":21089:21121   */\n      mstore\n        /* \"#utility.yul\":21137:21156   */\n      0xa4\n      dup4\n      add\n        /* \"#utility.yul\":21130:21160   */\n      mstore\n      shl(0xe4, 0x03078303)\n        /* \"#utility.yul\":21176:21195   */\n      0xc4\n      dup4\n      add\n        /* \"#utility.yul\":21169:21204   */\n      mstore\n        /* \"ProfitOrg/marketPlace.sol\":18201:18250  IERC1155Upgradeable(_nftAddress).safeTransferFrom */\n      dup7\n      and\n      swap1\n      0xf242432a\n      swap1\n        /* \"#utility.yul\":21221:21240   */\n      0xe4\n      add\n        /* \"ProfitOrg/marketPlace.sol\":18201:18387  IERC1155Upgradeable(_nftAddress).safeTransferFrom(... */\n      0x00\n      mload(0x40)\n      dup1\n      dup4\n      sub\n      dup2\n      0x00\n      dup8\n      dup1\n      extcodesize\n      iszero\n      dup1\n      iszero\n      tag_519\n      jumpi\n      0x00\n      dup1\n      revert\n    tag_519:\n      pop\n      gas\n      call\n      iszero\n      dup1\n      iszero\n      tag_521\n      jumpi\n      returndatasize\n      0x00\n      dup1\n      returndatacopy\n      revert(0x00, returndatasize)\n    tag_521:\n      pop\n      pop\n      pop\n      pop\n        /* \"ProfitOrg/marketPlace.sol\":18022:18395  function transferNft(... */\n      pop\n      pop\n      pop\n      pop\n      pop\n      jump\t// out\n        /* \"@openzeppelin/contracts-upgradeable/proxy/utils/UUPSUpgradeable.sol\":4599:4911  function _checkProxy() internal view virtual {... */\n    tag_252:\n        /* \"@openzeppelin/contracts-upgradeable/proxy/utils/UUPSUpgradeable.sol\":4679:4683  this */\n      address\n      sub(shl(0xa0, 0x01), 0x01)\n        /* \"@openzeppelin/contracts-upgradeable/proxy/utils/UUPSUpgradeable.sol\":4688:4694  __self */\n      immutable(\"0x0b83f23a4eeb8c3f5f7d5934a2289bcf0186d09a12e1b7f20adf54e4b179db15\")\n        /* \"@openzeppelin/contracts-upgradeable/proxy/utils/UUPSUpgradeable.sol\":4671:4694  address(this) == __self */\n      and\n      eq\n      dup1\n        /* \"@openzeppelin/contracts-upgradeable/proxy/utils/UUPSUpgradeable.sol\":4671:4791  address(this) == __self || // Must be called through delegatecall... */\n      tag_523\n      jumpi\n      pop\n        /* \"@openzeppelin/contracts-upgradeable/proxy/utils/UUPSUpgradeable.sol\":4785:4791  __self */\n      immutable(\"0x0b83f23a4eeb8c3f5f7d5934a2289bcf0186d09a12e1b7f20adf54e4b179db15\")\n      sub(shl(0xa0, 0x01), 0x01)\n        /* \"@openzeppelin/contracts-upgradeable/proxy/utils/UUPSUpgradeable.sol\":4749:4791  ERC1967Utils.getImplementation() != __self */\n      and\n        /* \"@openzeppelin/contracts-upgradeable/proxy/utils/UUPSUpgradeable.sol\":4749:4781  ERC1967Utils.getImplementation() */\n      tag_524\n      0x00\n      dup1\n      mload\n      0x20\n      data_75b20eef8615de99c108b05f0dbda081c91897128caa336d75dffb97c4132b4d\n      dup4\n      codecopy\n      dup2\n      mload\n      swap2\n      mstore\n        /* \"@openzeppelin/contracts/proxy/ERC1967/ERC1967Utils.sol\":2035:2088  StorageSlot.getAddressSlot(IMPLEMENTATION_SLOT).value */\n      sload\n      sub(shl(0xa0, 0x01), 0x01)\n      and\n      swap1\n        /* \"@openzeppelin/contracts/proxy/ERC1967/ERC1967Utils.sol\":1957:2095  function getImplementation() internal view returns (address) {... */\n      jump\n        /* \"@openzeppelin/contracts-upgradeable/proxy/utils/UUPSUpgradeable.sol\":4749:4781  ERC1967Utils.getImplementation() */\n    tag_524:\n      sub(shl(0xa0, 0x01), 0x01)\n        /* \"@openzeppelin/contracts-upgradeable/proxy/utils/UUPSUpgradeable.sol\":4749:4791  ERC1967Utils.getImplementation() != __self */\n      and\n      eq\n      iszero\n        /* \"@openzeppelin/contracts-upgradeable/proxy/utils/UUPSUpgradeable.sol\":4671:4791  address(this) == __self || // Must be called through delegatecall... */\n    tag_523:\n        /* \"@openzeppelin/contracts-upgradeable/proxy/utils/UUPSUpgradeable.sol\":4654:4905  if (... */\n      iszero\n      tag_265\n      jumpi\n        /* \"@openzeppelin/contracts-upgradeable/proxy/utils/UUPSUpgradeable.sol\":4865:4894  UUPSUnauthorizedCallContext() */\n      mload(0x40)\n      shl(0xe1, 0x703e46dd)\n      dup2\n      mstore\n      0x04\n      add\n      mload(0x40)\n      dup1\n      swap2\n      sub\n      swap1\n      revert\n        /* \"ProfitOrg/marketPlace.sol\":22392:22504  function _authorizeUpgrade(address newImplementation)... */\n    tag_255:\n        /* \"@openzeppelin/contracts-upgradeable/access/OwnableUpgradeable.sol\":2334:2347  _checkOwner() */\n      tag_402\n        /* \"@openzeppelin/contracts-upgradeable/access/OwnableUpgradeable.sol\":2334:2345  _checkOwner */\n      tag_164\n        /* \"@openzeppelin/contracts-upgradeable/access/OwnableUpgradeable.sol\":2334:2347  _checkOwner() */\n      jump\t// in\n        /* \"@openzeppelin/contracts-upgradeable/proxy/utils/UUPSUpgradeable.sol\":6052:6590  function _upgradeToAndCallUUPS(address newImplementation, bytes memory data) private {... */\n    tag_257:\n        /* \"@openzeppelin/contracts-upgradeable/proxy/utils/UUPSUpgradeable.sol\":6169:6186  newImplementation */\n      dup2\n      sub(shl(0xa0, 0x01), 0x01)\n        /* \"@openzeppelin/contracts-upgradeable/proxy/utils/UUPSUpgradeable.sol\":6151:6201  IERC1822Proxiable(newImplementation).proxiableUUID */\n      and\n      0x52d1902d\n        /* \"@openzeppelin/contracts-upgradeable/proxy/utils/UUPSUpgradeable.sol\":6151:6203  IERC1822Proxiable(newImplementation).proxiableUUID() */\n      mload(0x40)\n      dup2\n      0xffffffff\n      and\n      0xe0\n      shl\n      dup2\n      mstore\n      0x04\n      add\n      0x20\n      mload(0x40)\n      dup1\n      dup4\n      sub\n      dup2\n      dup7\n      gas\n      staticcall\n      swap3\n      pop\n      pop\n      pop\n      dup1\n      iszero\n      tag_531\n      jumpi\n      pop\n      0x40\n      dup1\n      mload\n      0x1f\n      returndatasize\n      swap1\n      dup2\n      add\n      not(0x1f)\n      and\n      dup3\n      add\n      swap1\n      swap3\n      mstore\n      tag_532\n      swap2\n      dup2\n      add\n      swap1\n      tag_533\n      jump\t// in\n    tag_532:\n      0x01\n    tag_531:\n        /* \"@openzeppelin/contracts-upgradeable/proxy/utils/UUPSUpgradeable.sol\":6147:6584  try IERC1822Proxiable(newImplementation).proxiableUUID() returns (bytes32 slot) {... */\n      tag_534\n      jumpi\n        /* \"@openzeppelin/contracts-upgradeable/proxy/utils/UUPSUpgradeable.sol\":6513:6573  ERC1967Utils.ERC1967InvalidImplementation(newImplementation) */\n      mload(0x40)\n      shl(0xe0, 0x4c9c8ce3)\n      dup2\n      mstore\n      sub(shl(0xa0, 0x01), 0x01)\n        /* \"#utility.yul\":4294:4326   */\n      dup4\n      and\n        /* \"@openzeppelin/contracts-upgradeable/proxy/utils/UUPSUpgradeable.sol\":6513:6573  ERC1967Utils.ERC1967InvalidImplementation(newImplementation) */\n      0x04\n      dup3\n      add\n        /* \"#utility.yul\":4276:4327   */\n      mstore\n        /* \"#utility.yul\":4249:4267   */\n      0x24\n      add\n        /* \"@openzeppelin/contracts-upgradeable/proxy/utils/UUPSUpgradeable.sol\":6513:6573  ERC1967Utils.ERC1967InvalidImplementation(newImplementation) */\n      tag_158\n        /* \"#utility.yul\":4130:4333   */\n      jump\n        /* \"@openzeppelin/contracts-upgradeable/proxy/utils/UUPSUpgradeable.sol\":6147:6584  try IERC1822Proxiable(newImplementation).proxiableUUID() returns (bytes32 slot) {... */\n    tag_534:\n      0x00\n      dup1\n      mload\n      0x20\n      data_75b20eef8615de99c108b05f0dbda081c91897128caa336d75dffb97c4132b4d\n      dup4\n      codecopy\n      dup2\n      mload\n      swap2\n      mstore\n        /* \"@openzeppelin/contracts-upgradeable/proxy/utils/UUPSUpgradeable.sol\":6245:6285  slot != ERC1967Utils.IMPLEMENTATION_SLOT */\n      dup2\n      eq\n        /* \"@openzeppelin/contracts-upgradeable/proxy/utils/UUPSUpgradeable.sol\":6241:6361  if (slot != ERC1967Utils.IMPLEMENTATION_SLOT) {... */\n      tag_540\n      jumpi\n        /* \"@openzeppelin/contracts-upgradeable/proxy/utils/UUPSUpgradeable.sol\":6312:6346  UUPSUnsupportedProxiableUUID(slot) */\n      mload(0x40)\n      shl(0xe2, 0x2a875269)\n      dup2\n      mstore\n      0x04\n      dup2\n      add\n        /* \"#utility.yul\":1587:1612   */\n      dup3\n      swap1\n      mstore\n        /* \"#utility.yul\":1560:1578   */\n      0x24\n      add\n        /* \"@openzeppelin/contracts-upgradeable/proxy/utils/UUPSUpgradeable.sol\":6312:6346  UUPSUnsupportedProxiableUUID(slot) */\n      tag_158\n        /* \"#utility.yul\":1441:1618   */\n      jump\n        /* \"@openzeppelin/contracts-upgradeable/proxy/utils/UUPSUpgradeable.sol\":6241:6361  if (slot != ERC1967Utils.IMPLEMENTATION_SLOT) {... */\n    tag_540:\n        /* \"@openzeppelin/contracts-upgradeable/proxy/utils/UUPSUpgradeable.sol\":6374:6428  ERC1967Utils.upgradeToAndCall(newImplementation, data) */\n      tag_513\n        /* \"@openzeppelin/contracts-upgradeable/proxy/utils/UUPSUpgradeable.sol\":6404:6421  newImplementation */\n      dup4\n        /* \"@openzeppelin/contracts-upgradeable/proxy/utils/UUPSUpgradeable.sol\":6423:6427  data */\n      dup4\n        /* \"@openzeppelin/contracts-upgradeable/proxy/utils/UUPSUpgradeable.sol\":6374:6403  ERC1967Utils.upgradeToAndCall */\n      tag_543\n        /* \"@openzeppelin/contracts-upgradeable/proxy/utils/UUPSUpgradeable.sol\":6374:6428  ERC1967Utils.upgradeToAndCall(newImplementation, data) */\n      jump\t// in\n        /* \"@openzeppelin/contracts-upgradeable/proxy/utils/UUPSUpgradeable.sol\":5028:5241  function _checkNotDelegated() internal view virtual {... */\n    tag_260:\n        /* \"@openzeppelin/contracts-upgradeable/proxy/utils/UUPSUpgradeable.sol\":5102:5106  this */\n      address\n      sub(shl(0xa0, 0x01), 0x01)\n        /* \"@openzeppelin/contracts-upgradeable/proxy/utils/UUPSUpgradeable.sol\":5111:5117  __self */\n      immutable(\"0x0b83f23a4eeb8c3f5f7d5934a2289bcf0186d09a12e1b7f20adf54e4b179db15\")\n        /* \"@openzeppelin/contracts-upgradeable/proxy/utils/UUPSUpgradeable.sol\":5094:5117  address(this) != __self */\n      and\n      eq\n        /* \"@openzeppelin/contracts-upgradeable/proxy/utils/UUPSUpgradeable.sol\":5090:5235  if (address(this) != __self) {... */\n      tag_265\n      jumpi\n        /* \"@openzeppelin/contracts-upgradeable/proxy/utils/UUPSUpgradeable.sol\":5195:5224  UUPSUnauthorizedCallContext() */\n      mload(0x40)\n      shl(0xe1, 0x703e46dd)\n      dup2\n      mstore\n      0x04\n      add\n      mload(0x40)\n      dup1\n      swap2\n      sub\n      swap1\n      revert\n        /* \"@openzeppelin/contracts-upgradeable/access/OwnableUpgradeable.sol\":3774:4022  function _transferOwnership(address newOwner) internal virtual {... */\n    tag_266:\n        /* \"@openzeppelin/contracts-upgradeable/access/OwnableUpgradeable.sol\":1313:1335  OwnableStorageLocation */\n      0x9016d09d72d40fdae2fd8ceac6b6234c7706214fd39c1cd1e609a0528c199300\n        /* \"@openzeppelin/contracts-upgradeable/access/OwnableUpgradeable.sol\":3923:3931  $._owner */\n      dup1\n      sload\n      not(sub(shl(0xa0, 0x01), 0x01))\n        /* \"@openzeppelin/contracts-upgradeable/access/OwnableUpgradeable.sol\":3941:3960  $._owner = newOwner */\n      dup2\n      and\n      sub(shl(0xa0, 0x01), 0x01)\n      dup5\n      dup2\n      and\n      swap2\n      dup3\n      or\n      dup5\n      sstore\n        /* \"@openzeppelin/contracts-upgradeable/access/OwnableUpgradeable.sol\":3975:4015  OwnershipTransferred(oldOwner, newOwner) */\n      mload(0x40)\n        /* \"@openzeppelin/contracts-upgradeable/access/OwnableUpgradeable.sol\":3923:3931  $._owner */\n      swap3\n      and\n      swap2\n      dup3\n      swap1\n        /* \"@openzeppelin/contracts-upgradeable/access/OwnableUpgradeable.sol\":3975:4015  OwnershipTransferred(oldOwner, newOwner) */\n      0x8be0079c531659141344cd1fd0a4f28419497f9722a3daafe3b4186f6b6457e0\n      swap1\n        /* \"@openzeppelin/contracts-upgradeable/access/OwnableUpgradeable.sol\":3847:3871  OwnableStorage storage $ */\n      0x00\n      swap1\n        /* \"@openzeppelin/contracts-upgradeable/access/OwnableUpgradeable.sol\":3975:4015  OwnershipTransferred(oldOwner, newOwner) */\n      log3\n        /* \"@openzeppelin/contracts-upgradeable/access/OwnableUpgradeable.sol\":3837:4022  {... */\n      pop\n      pop\n        /* \"@openzeppelin/contracts-upgradeable/access/OwnableUpgradeable.sol\":3774:4022  function _transferOwnership(address newOwner) internal virtual {... */\n      pop\n      jump\t// out\n        /* \"ProfitOrg/marketPlace.sol\":17691:18016  function setMintingAddress(uint256 _tokenId,uint256 _noOfCopies, uint256 priceId, address setAddress) private {... */\n    tag_354:\n        /* \"ProfitOrg/marketPlace.sol\":17812:17828  listing[priceId] */\n      0x00\n      dup3\n      dup2\n      mstore\n        /* \"ProfitOrg/marketPlace.sol\":17812:17819  listing */\n      0x04\n        /* \"ProfitOrg/marketPlace.sol\":17812:17828  listing[priceId] */\n      0x20\n      mstore\n      0x40\n      swap1\n      keccak256\n        /* \"ProfitOrg/marketPlace.sol\":17812:17839  listing[priceId].nftAddress */\n      0x07\n      add\n        /* \"ProfitOrg/marketPlace.sol\":17812:17852  listing[priceId].nftAddress = setAddress */\n      dup1\n      sload\n      not(sub(shl(0xa0, 0x01), 0x01))\n      and\n      sub(shl(0xa0, 0x01), 0x01)\n      dup4\n      and\n      or\n      swap1\n      sstore\n        /* \"ProfitOrg/marketPlace.sol\":17863:18008  transferNft(... */\n      tag_550\n        /* \"ProfitOrg/marketPlace.sol\":17812:17852  listing[priceId].nftAddress = setAddress */\n      dup2\n        /* \"ProfitOrg/marketPlace.sol\":17912:17922  msg.sender */\n      caller\n        /* \"ProfitOrg/marketPlace.sol\":17944:17948  this */\n      address\n        /* \"ProfitOrg/marketPlace.sol\":17964:17972  _tokenId */\n      dup8\n        /* \"ProfitOrg/marketPlace.sol\":17987:17998  _noOfCopies */\n      dup8\n        /* \"ProfitOrg/marketPlace.sol\":17863:17874  transferNft */\n      tag_245\n        /* \"ProfitOrg/marketPlace.sol\":17863:18008  transferNft(... */\n      jump\t// in\n    tag_550:\n        /* \"ProfitOrg/marketPlace.sol\":17691:18016  function setMintingAddress(uint256 _tokenId,uint256 _noOfCopies, uint256 priceId, address setAddress) private {... */\n      pop\n      pop\n      pop\n      pop\n      jump\t// out\n        /* \"ProfitOrg/marketPlace.sol\":13546:14043  function setDonationInfo(uint256 _priceId,address[] memory _organizations,uint256 [] memory _donatePercentages) private {... */\n    tag_390:\n        /* \"ProfitOrg/marketPlace.sol\":13681:13690  uint256 i */\n      0x00\n        /* \"ProfitOrg/marketPlace.sol\":13677:14037  for(uint256 i=0; i < _organizations.length; i++){... */\n    tag_552:\n        /* \"ProfitOrg/marketPlace.sol\":13698:13712  _organizations */\n      dup3\n        /* \"ProfitOrg/marketPlace.sol\":13698:13719  _organizations.length */\n      mload\n        /* \"ProfitOrg/marketPlace.sol\":13694:13695  i */\n      dup2\n        /* \"ProfitOrg/marketPlace.sol\":13694:13719  i < _organizations.length */\n      lt\n        /* \"ProfitOrg/marketPlace.sol\":13677:14037  for(uint256 i=0; i < _organizations.length; i++){... */\n      iszero\n      tag_550\n      jumpi\n        /* \"ProfitOrg/marketPlace.sol\":13784:13785  0 */\n      0x00\n      sub(shl(0xa0, 0x01), 0x01)\n        /* \"ProfitOrg/marketPlace.sol\":13755:13786  _organizations[i] != address(0) */\n      and\n        /* \"ProfitOrg/marketPlace.sol\":13755:13769  _organizations */\n      dup4\n        /* \"ProfitOrg/marketPlace.sol\":13770:13771  i */\n      dup3\n        /* \"ProfitOrg/marketPlace.sol\":13755:13772  _organizations[i] */\n      dup2\n      mload\n      dup2\n      lt\n      tag_556\n      jumpi\n      tag_556\n      tag_370\n      jump\t// in\n    tag_556:\n      0x20\n      mul\n      0x20\n      add\n      add\n      mload\n      sub(shl(0xa0, 0x01), 0x01)\n        /* \"ProfitOrg/marketPlace.sol\":13755:13786  _organizations[i] != address(0) */\n      and\n      eq\n        /* \"ProfitOrg/marketPlace.sol\":13752:14027  if(_organizations[i] != address(0)){... */\n      tag_557\n      jumpi\n        /* \"ProfitOrg/marketPlace.sol\":13847:13861  _organizations */\n      dup3\n        /* \"ProfitOrg/marketPlace.sol\":13862:13863  i */\n      dup2\n        /* \"ProfitOrg/marketPlace.sol\":13847:13864  _organizations[i] */\n      dup2\n      mload\n      dup2\n      lt\n      tag_559\n      jumpi\n      tag_559\n      tag_370\n      jump\t// in\n    tag_559:\n      0x20\n      mul\n      0x20\n      add\n      add\n      mload\n        /* \"ProfitOrg/marketPlace.sol\":13805:13817  donationInfo */\n      0x05\n        /* \"ProfitOrg/marketPlace.sol\":13805:13827  donationInfo[_priceId] */\n      0x00\n        /* \"ProfitOrg/marketPlace.sol\":13818:13826  _priceId */\n      dup7\n        /* \"ProfitOrg/marketPlace.sol\":13805:13827  donationInfo[_priceId] */\n      dup2\n      mstore\n      0x20\n      add\n      swap1\n      dup2\n      mstore\n      0x20\n      add\n      0x00\n      keccak256\n        /* \"ProfitOrg/marketPlace.sol\":13805:13841  donationInfo[_priceId].organizations */\n      0x01\n      add\n        /* \"ProfitOrg/marketPlace.sol\":13842:13843  i */\n      dup3\n        /* \"ProfitOrg/marketPlace.sol\":13805:13844  donationInfo[_priceId].organizations[i] */\n      0x0a\n      dup2\n      lt\n      tag_561\n      jumpi\n      tag_561\n      tag_370\n      jump\t// in\n    tag_561:\n      add\n      0x00\n        /* \"ProfitOrg/marketPlace.sol\":13805:13864  donationInfo[_priceId].organizations[i] = _organizations[i] */\n      0x0100\n      exp\n      dup2\n      sload\n      dup2\n      sub(shl(0xa0, 0x01), 0x01)\n      mul\n      not\n      and\n      swap1\n      dup4\n      sub(shl(0xa0, 0x01), 0x01)\n      and\n      mul\n      or\n      swap1\n      sstore\n      pop\n        /* \"ProfitOrg/marketPlace.sol\":13928:13946  _donatePercentages */\n      dup2\n        /* \"ProfitOrg/marketPlace.sol\":13947:13948  i */\n      dup2\n        /* \"ProfitOrg/marketPlace.sol\":13928:13949  _donatePercentages[i] */\n      dup2\n      mload\n      dup2\n      lt\n      tag_564\n      jumpi\n      tag_564\n      tag_370\n      jump\t// in\n    tag_564:\n      0x20\n      mul\n      0x20\n      add\n      add\n      mload\n        /* \"ProfitOrg/marketPlace.sol\":13882:13894  donationInfo */\n      0x05\n        /* \"ProfitOrg/marketPlace.sol\":13882:13904  donationInfo[_priceId] */\n      0x00\n        /* \"ProfitOrg/marketPlace.sol\":13895:13903  _priceId */\n      dup7\n        /* \"ProfitOrg/marketPlace.sol\":13882:13904  donationInfo[_priceId] */\n      dup2\n      mstore\n      0x20\n      add\n      swap1\n      dup2\n      mstore\n      0x20\n      add\n      0x00\n      keccak256\n        /* \"ProfitOrg/marketPlace.sol\":13882:13922  donationInfo[_priceId].donatePercentages */\n      0x0b\n      add\n        /* \"ProfitOrg/marketPlace.sol\":13923:13924  i */\n      dup3\n        /* \"ProfitOrg/marketPlace.sol\":13882:13925  donationInfo[_priceId].donatePercentages[i] */\n      0x0a\n      dup2\n      lt\n      tag_566\n      jumpi\n      tag_566\n      tag_370\n      jump\t// in\n    tag_566:\n      add\n        /* \"ProfitOrg/marketPlace.sol\":13882:13949  donationInfo[_priceId].donatePercentages[i] = _donatePercentages[i] */\n      sstore\n        /* \"ProfitOrg/marketPlace.sol\":13967:13989  donationInfo[_priceId] */\n      0x00\n      dup5\n      dup2\n      mstore\n        /* \"ProfitOrg/marketPlace.sol\":13967:13979  donationInfo */\n      0x05\n        /* \"ProfitOrg/marketPlace.sol\":13967:13989  donationInfo[_priceId] */\n      0x20\n      mstore\n      0x40\n      dup2\n      keccak256\n        /* \"ProfitOrg/marketPlace.sol\":13967:14012  donationInfo[_priceId].noOfOrgazisations += 1 */\n      dup1\n      sload\n        /* \"ProfitOrg/marketPlace.sol\":14011:14012  1 */\n      0x01\n      swap3\n        /* \"ProfitOrg/marketPlace.sol\":13967:13989  donationInfo[_priceId] */\n      swap1\n        /* \"ProfitOrg/marketPlace.sol\":13967:14012  donationInfo[_priceId].noOfOrgazisations += 1 */\n      tag_568\n      swap1\n        /* \"ProfitOrg/marketPlace.sol\":14011:14012  1 */\n      dup5\n      swap1\n        /* \"ProfitOrg/marketPlace.sol\":13967:14012  donationInfo[_priceId].noOfOrgazisations += 1 */\n      tag_235\n      jump\t// in\n    tag_568:\n      swap1\n      swap2\n      sstore\n      pop\n      pop\n        /* \"ProfitOrg/marketPlace.sol\":13752:14027  if(_organizations[i] != address(0)){... */\n    tag_557:\n        /* \"ProfitOrg/marketPlace.sol\":13721:13724  i++ */\n      0x01\n      add\n        /* \"ProfitOrg/marketPlace.sol\":13677:14037  for(uint256 i=0; i < _organizations.length; i++){... */\n      jump(tag_552)\n        /* \"@openzeppelin/contracts-upgradeable/proxy/utils/Initializable.sol\":7084:7225  function _checkInitializing() internal view virtual {... */\n    tag_431:\n        /* \"@openzeppelin/contracts-upgradeable/proxy/utils/Initializable.sol\":8870:8891  INITIALIZABLE_STORAGE */\n      0xf0c57e16840df040f15088dc2f81fe391c3923bec73e23a9662efc9c229c6a00\n        /* \"@openzeppelin/contracts-upgradeable/proxy/utils/Initializable.sol\":8560:8600  _getInitializableStorage()._initializing */\n      sload\n      shl(0x40, 0x01)\n      swap1\n      div\n      0xff\n      and\n        /* \"@openzeppelin/contracts-upgradeable/proxy/utils/Initializable.sol\":7146:7219  if (!_isInitializing()) {... */\n      tag_265\n      jumpi\n        /* \"@openzeppelin/contracts-upgradeable/proxy/utils/Initializable.sol\":7191:7208  NotInitializing() */\n      mload(0x40)\n      shl(0xe3, 0x1afcd79f)\n      dup2\n      mstore\n      0x04\n      add\n      mload(0x40)\n      dup1\n      swap2\n      sub\n      swap1\n      revert\n        /* \"@openzeppelin/contracts-upgradeable/access/OwnableUpgradeable.sol\":1980:2215  function __Ownable_init_unchained(address initialOwner) internal onlyInitializing {... */\n    tag_437:\n        /* \"@openzeppelin/contracts-upgradeable/proxy/utils/Initializable.sol\":6931:6951  _checkInitializing() */\n      tag_398\n        /* \"@openzeppelin/contracts-upgradeable/proxy/utils/Initializable.sol\":6931:6949  _checkInitializing */\n      tag_431\n        /* \"@openzeppelin/contracts-upgradeable/proxy/utils/Initializable.sol\":6931:6951  _checkInitializing() */\n      jump\t// in\n        /* \"@openzeppelin/contracts/proxy/ERC1967/ERC1967Utils.sol\":2779:3114  function upgradeToAndCall(address newImplementation, bytes memory data) internal {... */\n    tag_543:\n        /* \"@openzeppelin/contracts/proxy/ERC1967/ERC1967Utils.sol\":2870:2907  _setImplementation(newImplementation) */\n      tag_584\n        /* \"@openzeppelin/contracts/proxy/ERC1967/ERC1967Utils.sol\":2889:2906  newImplementation */\n      dup3\n        /* \"@openzeppelin/contracts/proxy/ERC1967/ERC1967Utils.sol\":2870:2888  _setImplementation */\n      tag_585\n        /* \"@openzeppelin/contracts/proxy/ERC1967/ERC1967Utils.sol\":2870:2907  _setImplementation(newImplementation) */\n      jump\t// in\n    tag_584:\n        /* \"@openzeppelin/contracts/proxy/ERC1967/ERC1967Utils.sol\":2922:2949  Upgraded(newImplementation) */\n      mload(0x40)\n      sub(shl(0xa0, 0x01), 0x01)\n      dup4\n      and\n      swap1\n      0xbc7cd75a20ee27fd9adebab32041f755214dbc6bffa90cc0225b39da2e5c2d3b\n      swap1\n      0x00\n      swap1\n      log2\n        /* \"@openzeppelin/contracts/proxy/ERC1967/ERC1967Utils.sol\":2964:2975  data.length */\n      dup1\n      mload\n        /* \"@openzeppelin/contracts/proxy/ERC1967/ERC1967Utils.sol\":2964:2979  data.length > 0 */\n      iszero\n        /* \"@openzeppelin/contracts/proxy/ERC1967/ERC1967Utils.sol\":2960:3108  if (data.length > 0) {... */\n      tag_586\n      jumpi\n        /* \"@openzeppelin/contracts/proxy/ERC1967/ERC1967Utils.sol\":2995:3048  Address.functionDelegateCall(newImplementation, data) */\n      tag_513\n        /* \"@openzeppelin/contracts/proxy/ERC1967/ERC1967Utils.sol\":3024:3041  newImplementation */\n      dup3\n        /* \"@openzeppelin/contracts/proxy/ERC1967/ERC1967Utils.sol\":3043:3047  data */\n      dup3\n        /* \"@openzeppelin/contracts/proxy/ERC1967/ERC1967Utils.sol\":2995:3023  Address.functionDelegateCall */\n      tag_588\n        /* \"@openzeppelin/contracts/proxy/ERC1967/ERC1967Utils.sol\":2995:3048  Address.functionDelegateCall(newImplementation, data) */\n      jump\t// in\n        /* \"@openzeppelin/contracts/proxy/ERC1967/ERC1967Utils.sol\":2960:3108  if (data.length > 0) {... */\n    tag_586:\n        /* \"@openzeppelin/contracts/proxy/ERC1967/ERC1967Utils.sol\":3079:3097  _checkNonPayable() */\n      tag_256\n        /* \"@openzeppelin/contracts/proxy/ERC1967/ERC1967Utils.sol\":3079:3095  _checkNonPayable */\n      tag_591\n        /* \"@openzeppelin/contracts/proxy/ERC1967/ERC1967Utils.sol\":3079:3097  _checkNonPayable() */\n      jump\t// in\n        /* \"@openzeppelin/contracts/proxy/ERC1967/ERC1967Utils.sol\":2186:2467  function _setImplementation(address newImplementation) private {... */\n    tag_585:\n        /* \"@openzeppelin/contracts/proxy/ERC1967/ERC1967Utils.sol\":2263:2280  newImplementation */\n      dup1\n      sub(shl(0xa0, 0x01), 0x01)\n        /* \"@openzeppelin/contracts/proxy/ERC1967/ERC1967Utils.sol\":2263:2292  newImplementation.code.length */\n      and\n      extcodesize\n        /* \"@openzeppelin/contracts/proxy/ERC1967/ERC1967Utils.sol\":2296:2297  0 */\n      0x00\n        /* \"@openzeppelin/contracts/proxy/ERC1967/ERC1967Utils.sol\":2263:2297  newImplementation.code.length == 0 */\n      sub\n        /* \"@openzeppelin/contracts/proxy/ERC1967/ERC1967Utils.sol\":2259:2378  if (newImplementation.code.length == 0) {... */\n      tag_596\n      jumpi\n        /* \"@openzeppelin/contracts/proxy/ERC1967/ERC1967Utils.sol\":2320:2367  ERC1967InvalidImplementation(newImplementation) */\n      mload(0x40)\n      shl(0xe0, 0x4c9c8ce3)\n      dup2\n      mstore\n      sub(shl(0xa0, 0x01), 0x01)\n        /* \"#utility.yul\":4294:4326   */\n      dup3\n      and\n        /* \"@openzeppelin/contracts/proxy/ERC1967/ERC1967Utils.sol\":2320:2367  ERC1967InvalidImplementation(newImplementation) */\n      0x04\n      dup3\n      add\n        /* \"#utility.yul\":4276:4327   */\n      mstore\n        /* \"#utility.yul\":4249:4267   */\n      0x24\n      add\n        /* \"@openzeppelin/contracts/proxy/ERC1967/ERC1967Utils.sol\":2320:2367  ERC1967InvalidImplementation(newImplementation) */\n      tag_158\n        /* \"#utility.yul\":4130:4333   */\n      jump\n        /* \"@openzeppelin/contracts/proxy/ERC1967/ERC1967Utils.sol\":2259:2378  if (newImplementation.code.length == 0) {... */\n    tag_596:\n      0x00\n      dup1\n      mload\n      0x20\n      data_75b20eef8615de99c108b05f0dbda081c91897128caa336d75dffb97c4132b4d\n      dup4\n      codecopy\n      dup2\n      mload\n      swap2\n      mstore\n        /* \"@openzeppelin/contracts/proxy/ERC1967/ERC1967Utils.sol\":2387:2460  StorageSlot.getAddressSlot(IMPLEMENTATION_SLOT).value = newImplementation */\n      dup1\n      sload\n      not(sub(shl(0xa0, 0x01), 0x01))\n      and\n      sub(shl(0xa0, 0x01), 0x01)\n      swap3\n      swap1\n      swap3\n      and\n      swap2\n      swap1\n      swap2\n      or\n      swap1\n      sstore\n        /* \"@openzeppelin/contracts/proxy/ERC1967/ERC1967Utils.sol\":2186:2467  function _setImplementation(address newImplementation) private {... */\n      jump\t// out\n        /* \"@openzeppelin/contracts/utils/Address.sol\":4106:4359  function functionDelegateCall(address target, bytes memory data) internal returns (bytes memory) {... */\n    tag_588:\n        /* \"@openzeppelin/contracts/utils/Address.sol\":4189:4201  bytes memory */\n      0x60\n        /* \"@openzeppelin/contracts/utils/Address.sol\":4214:4226  bool success */\n      0x00\n        /* \"@openzeppelin/contracts/utils/Address.sol\":4228:4251  bytes memory returndata */\n      dup1\n        /* \"@openzeppelin/contracts/utils/Address.sol\":4255:4261  target */\n      dup5\n      sub(shl(0xa0, 0x01), 0x01)\n        /* \"@openzeppelin/contracts/utils/Address.sol\":4255:4274  target.delegatecall */\n      and\n        /* \"@openzeppelin/contracts/utils/Address.sol\":4275:4279  data */\n      dup5\n        /* \"@openzeppelin/contracts/utils/Address.sol\":4255:4280  target.delegatecall(data) */\n      mload(0x40)\n      tag_600\n      swap2\n      swap1\n      tag_601\n      jump\t// in\n    tag_600:\n      0x00\n      mload(0x40)\n      dup1\n      dup4\n      sub\n      dup2\n      dup6\n      gas\n      delegatecall\n      swap2\n      pop\n      pop\n      returndatasize\n      dup1\n      0x00\n      dup2\n      eq\n      tag_604\n      jumpi\n      mload(0x40)\n      swap2\n      pop\n      and(add(returndatasize, 0x3f), not(0x1f))\n      dup3\n      add\n      0x40\n      mstore\n      returndatasize\n      dup3\n      mstore\n      returndatasize\n      0x00\n      0x20\n      dup5\n      add\n      returndatacopy\n      jump(tag_603)\n    tag_604:\n      0x60\n      swap2\n      pop\n    tag_603:\n      pop\n        /* \"@openzeppelin/contracts/utils/Address.sol\":4213:4280  (bool success, bytes memory returndata) = target.delegatecall(data) */\n      swap2\n      pop\n      swap2\n      pop\n        /* \"@openzeppelin/contracts/utils/Address.sol\":4297:4352  verifyCallResultFromTarget(target, success, returndata) */\n      tag_605\n        /* \"@openzeppelin/contracts/utils/Address.sol\":4324:4330  target */\n      dup6\n        /* \"@openzeppelin/contracts/utils/Address.sol\":4332:4339  success */\n      dup4\n        /* \"@openzeppelin/contracts/utils/Address.sol\":4341:4351  returndata */\n      dup4\n        /* \"@openzeppelin/contracts/utils/Address.sol\":4297:4323  verifyCallResultFromTarget */\n      tag_606\n        /* \"@openzeppelin/contracts/utils/Address.sol\":4297:4352  verifyCallResultFromTarget(target, success, returndata) */\n      jump\t// in\n    tag_605:\n        /* \"@openzeppelin/contracts/utils/Address.sol\":4290:4352  return verifyCallResultFromTarget(target, success, returndata) */\n      swap6\n        /* \"@openzeppelin/contracts/utils/Address.sol\":4106:4359  function functionDelegateCall(address target, bytes memory data) internal returns (bytes memory) {... */\n      swap5\n      pop\n      pop\n      pop\n      pop\n      pop\n      jump\t// out\n        /* \"@openzeppelin/contracts/proxy/ERC1967/ERC1967Utils.sol\":6598:6720  function _checkNonPayable() private {... */\n    tag_591:\n        /* \"@openzeppelin/contracts/proxy/ERC1967/ERC1967Utils.sol\":6648:6657  msg.value */\n      callvalue\n        /* \"@openzeppelin/contracts/proxy/ERC1967/ERC1967Utils.sol\":6648:6661  msg.value > 0 */\n      iszero\n        /* \"@openzeppelin/contracts/proxy/ERC1967/ERC1967Utils.sol\":6644:6714  if (msg.value > 0) {... */\n      tag_265\n      jumpi\n        /* \"@openzeppelin/contracts/proxy/ERC1967/ERC1967Utils.sol\":6684:6703  ERC1967NonPayable() */\n      mload(0x40)\n      shl(0xe0, 0xb398979f)\n      dup2\n      mstore\n      0x04\n      add\n      mload(0x40)\n      dup1\n      swap2\n      sub\n      swap1\n      revert\n        /* \"@openzeppelin/contracts/utils/Address.sol\":4625:5207  function verifyCallResultFromTarget(... */\n    tag_606:\n        /* \"@openzeppelin/contracts/utils/Address.sol\":4769:4781  bytes memory */\n      0x60\n        /* \"@openzeppelin/contracts/utils/Address.sol\":4798:4805  success */\n      dup3\n        /* \"@openzeppelin/contracts/utils/Address.sol\":4793:5201  if (!success) {... */\n      tag_610\n      jumpi\n        /* \"@openzeppelin/contracts/utils/Address.sol\":4821:4840  _revert(returndata) */\n      tag_611\n        /* \"@openzeppelin/contracts/utils/Address.sol\":4829:4839  returndata */\n      dup3\n        /* \"@openzeppelin/contracts/utils/Address.sol\":4821:4828  _revert */\n      tag_612\n        /* \"@openzeppelin/contracts/utils/Address.sol\":4821:4840  _revert(returndata) */\n      jump\t// in\n    tag_611:\n        /* \"@openzeppelin/contracts/utils/Address.sol\":4793:5201  if (!success) {... */\n      jump(tag_482)\n    tag_610:\n        /* \"@openzeppelin/contracts/utils/Address.sol\":5045:5062  returndata.length */\n      dup2\n      mload\n        /* \"@openzeppelin/contracts/utils/Address.sol\":5045:5067  returndata.length == 0 */\n      iszero\n        /* \"@openzeppelin/contracts/utils/Address.sol\":5045:5094  returndata.length == 0 && target.code.length == 0 */\n      dup1\n      iszero\n      tag_614\n      jumpi\n      pop\n      sub(shl(0xa0, 0x01), 0x01)\n        /* \"@openzeppelin/contracts/utils/Address.sol\":5071:5089  target.code.length */\n      dup5\n      and\n      extcodesize\n        /* \"@openzeppelin/contracts/utils/Address.sol\":5071:5094  target.code.length == 0 */\n      iszero\n        /* \"@openzeppelin/contracts/utils/Address.sol\":5045:5094  returndata.length == 0 && target.code.length == 0 */\n    tag_614:\n        /* \"@openzeppelin/contracts/utils/Address.sol\":5041:5160  if (returndata.length == 0 && target.code.length == 0) {... */\n      iszero\n      tag_615\n      jumpi\n        /* \"@openzeppelin/contracts/utils/Address.sol\":5121:5145  AddressEmptyCode(target) */\n      mload(0x40)\n      shl(0xe0, 0x9996b315)\n      dup2\n      mstore\n      sub(shl(0xa0, 0x01), 0x01)\n        /* \"#utility.yul\":4294:4326   */\n      dup6\n      and\n        /* \"@openzeppelin/contracts/utils/Address.sol\":5121:5145  AddressEmptyCode(target) */\n      0x04\n      dup3\n      add\n        /* \"#utility.yul\":4276:4327   */\n      mstore\n        /* \"#utility.yul\":4249:4267   */\n      0x24\n      add\n        /* \"@openzeppelin/contracts/utils/Address.sol\":5121:5145  AddressEmptyCode(target) */\n      tag_158\n        /* \"#utility.yul\":4130:4333   */\n      jump\n        /* \"@openzeppelin/contracts/utils/Address.sol\":5041:5160  if (returndata.length == 0 && target.code.length == 0) {... */\n    tag_615:\n      pop\n        /* \"@openzeppelin/contracts/utils/Address.sol\":5180:5190  returndata */\n      dup1\n        /* \"@openzeppelin/contracts/utils/Address.sol\":5173:5190  return returndata */\n      jump(tag_482)\n        /* \"@openzeppelin/contracts/utils/Address.sol\":5743:6259  function _revert(bytes memory returndata) private pure {... */\n    tag_612:\n        /* \"@openzeppelin/contracts/utils/Address.sol\":5874:5891  returndata.length */\n      dup1\n      mload\n        /* \"@openzeppelin/contracts/utils/Address.sol\":5874:5895  returndata.length > 0 */\n      iszero\n        /* \"@openzeppelin/contracts/utils/Address.sol\":5870:6253  if (returndata.length > 0) {... */\n      tag_618\n      jumpi\n        /* \"@openzeppelin/contracts/utils/Address.sol\":6102:6112  returndata */\n      dup1\n        /* \"@openzeppelin/contracts/utils/Address.sol\":6096:6113  mload(returndata) */\n      mload\n        /* \"@openzeppelin/contracts/utils/Address.sol\":6158:6173  returndata_size */\n      dup1\n        /* \"@openzeppelin/contracts/utils/Address.sol\":6145:6155  returndata */\n      dup3\n        /* \"@openzeppelin/contracts/utils/Address.sol\":6141:6143  32 */\n      0x20\n        /* \"@openzeppelin/contracts/utils/Address.sol\":6137:6156  add(32, returndata) */\n      add\n        /* \"@openzeppelin/contracts/utils/Address.sol\":6130:6174  revert(add(32, returndata), returndata_size) */\n      revert\n        /* \"@openzeppelin/contracts/utils/Address.sol\":5870:6253  if (returndata.length > 0) {... */\n    tag_618:\n        /* \"@openzeppelin/contracts/utils/Address.sol\":6225:6242  FailedInnerCall() */\n      mload(0x40)\n      shl(0xe1, 0x0a12f521)\n      dup2\n      mstore\n      0x04\n      add\n      mload(0x40)\n      dup1\n      swap2\n      sub\n      swap1\n      revert\n        /* \"#utility.yul\":14:300   */\n    tag_34:\n        /* \"#utility.yul\":72:78   */\n      0x00\n        /* \"#utility.yul\":125:127   */\n      0x20\n        /* \"#utility.yul\":113:122   */\n      dup3\n        /* \"#utility.yul\":104:111   */\n      dup5\n        /* \"#utility.yul\":100:123   */\n      sub\n        /* \"#utility.yul\":96:128   */\n      slt\n        /* \"#utility.yul\":93:145   */\n      iszero\n      tag_631\n      jumpi\n        /* \"#utility.yul\":141:142   */\n      0x00\n        /* \"#utility.yul\":138:139   */\n      dup1\n        /* \"#utility.yul\":131:143   */\n      revert\n        /* \"#utility.yul\":93:145   */\n    tag_631:\n        /* \"#utility.yul\":167:190   */\n      dup2\n      calldataload\n      not(sub(shl(0xe0, 0x01), 0x01))\n        /* \"#utility.yul\":219:251   */\n      dup2\n      and\n        /* \"#utility.yul\":209:252   */\n      dup2\n      eq\n        /* \"#utility.yul\":199:270   */\n      tag_482\n      jumpi\n        /* \"#utility.yul\":266:267   */\n      0x00\n        /* \"#utility.yul\":263:264   */\n      dup1\n        /* \"#utility.yul\":256:268   */\n      revert\n        /* \"#utility.yul\":497:723   */\n    tag_41:\n        /* \"#utility.yul\":556:562   */\n      0x00\n        /* \"#utility.yul\":609:611   */\n      0x20\n        /* \"#utility.yul\":597:606   */\n      dup3\n        /* \"#utility.yul\":588:595   */\n      dup5\n        /* \"#utility.yul\":584:607   */\n      sub\n        /* \"#utility.yul\":580:612   */\n      slt\n        /* \"#utility.yul\":577:629   */\n      iszero\n      tag_635\n      jumpi\n        /* \"#utility.yul\":625:626   */\n      0x00\n        /* \"#utility.yul\":622:623   */\n      dup1\n        /* \"#utility.yul\":615:627   */\n      revert\n        /* \"#utility.yul\":577:629   */\n    tag_635:\n      pop\n        /* \"#utility.yul\":670:693   */\n      calldataload\n      swap2\n        /* \"#utility.yul\":497:723   */\n      swap1\n      pop\n      jump\t// out\n        /* \"#utility.yul\":728:1436   */\n    tag_50:\n        /* \"#utility.yul\":823:829   */\n      0x00\n        /* \"#utility.yul\":831:837   */\n      dup1\n        /* \"#utility.yul\":839:845   */\n      0x00\n        /* \"#utility.yul\":847:853   */\n      dup1\n        /* \"#utility.yul\":855:861   */\n      0x00\n        /* \"#utility.yul\":908:911   */\n      0xa0\n        /* \"#utility.yul\":896:905   */\n      dup7\n        /* \"#utility.yul\":887:894   */\n      dup9\n        /* \"#utility.yul\":883:906   */\n      sub\n        /* \"#utility.yul\":879:912   */\n      slt\n        /* \"#utility.yul\":876:929   */\n      iszero\n      tag_637\n      jumpi\n        /* \"#utility.yul\":925:926   */\n      0x00\n        /* \"#utility.yul\":922:923   */\n      dup1\n        /* \"#utility.yul\":915:927   */\n      revert\n        /* \"#utility.yul\":876:929   */\n    tag_637:\n      pop\n      pop\n        /* \"#utility.yul\":970:993   */\n      dup4\n      calldataload\n      swap6\n        /* \"#utility.yul\":1090:1092   */\n      0x20\n        /* \"#utility.yul\":1075:1093   */\n      dup6\n      add\n        /* \"#utility.yul\":1062:1094   */\n      calldataload\n      swap6\n      pop\n        /* \"#utility.yul\":1193:1195   */\n      0x40\n        /* \"#utility.yul\":1178:1196   */\n      dup6\n      add\n        /* \"#utility.yul\":1165:1197   */\n      calldataload\n      swap5\n        /* \"#utility.yul\":1296:1298   */\n      0x60\n        /* \"#utility.yul\":1281:1299   */\n      dup2\n      add\n        /* \"#utility.yul\":1268:1300   */\n      calldataload\n      swap5\n      pop\n        /* \"#utility.yul\":1399:1402   */\n      0x80\n        /* \"#utility.yul\":1384:1403   */\n      add\n        /* \"#utility.yul\":1371:1404   */\n      calldataload\n      swap3\n      pop\n        /* \"#utility.yul\":728:1436   */\n      swap1\n      pop\n      jump\t// out\n        /* \"#utility.yul\":1623:1754   */\n    tag_620:\n      sub(shl(0xa0, 0x01), 0x01)\n        /* \"#utility.yul\":1698:1729   */\n      dup2\n      and\n        /* \"#utility.yul\":1688:1730   */\n      dup2\n      eq\n        /* \"#utility.yul\":1678:1748   */\n      tag_402\n      jumpi\n        /* \"#utility.yul\":1744:1745   */\n      0x00\n        /* \"#utility.yul\":1741:1742   */\n      dup1\n        /* \"#utility.yul\":1734:1746   */\n      revert\n        /* \"#utility.yul\":1759:2147   */\n    tag_61:\n        /* \"#utility.yul\":1827:1833   */\n      0x00\n        /* \"#utility.yul\":1835:1841   */\n      dup1\n        /* \"#utility.yul\":1888:1890   */\n      0x40\n        /* \"#utility.yul\":1876:1885   */\n      dup4\n        /* \"#utility.yul\":1867:1874   */\n      dup6\n        /* \"#utility.yul\":1863:1886   */\n      sub\n        /* \"#utility.yul\":1859:1891   */\n      slt\n        /* \"#utility.yul\":1856:1908   */\n      iszero\n      tag_642\n      jumpi\n        /* \"#utility.yul\":1904:1905   */\n      0x00\n        /* \"#utility.yul\":1901:1902   */\n      dup1\n        /* \"#utility.yul\":1894:1906   */\n      revert\n        /* \"#utility.yul\":1856:1908   */\n    tag_642:\n        /* \"#utility.yul\":1943:1952   */\n      dup3\n        /* \"#utility.yul\":1930:1953   */\n      calldataload\n        /* \"#utility.yul\":1962:1993   */\n      tag_643\n        /* \"#utility.yul\":1987:1992   */\n      dup2\n        /* \"#utility.yul\":1962:1993   */\n      tag_620\n      jump\t// in\n    tag_643:\n        /* \"#utility.yul\":2012:2017   */\n      swap2\n      pop\n        /* \"#utility.yul\":2069:2071   */\n      0x20\n        /* \"#utility.yul\":2054:2072   */\n      dup4\n      add\n        /* \"#utility.yul\":2041:2073   */\n      calldataload\n        /* \"#utility.yul\":2082:2115   */\n      tag_644\n        /* \"#utility.yul\":2041:2073   */\n      dup2\n        /* \"#utility.yul\":2082:2115   */\n      tag_620\n      jump\t// in\n    tag_644:\n        /* \"#utility.yul\":2134:2141   */\n      dup1\n        /* \"#utility.yul\":2124:2141   */\n      swap2\n      pop\n      pop\n        /* \"#utility.yul\":1759:2147   */\n      swap3\n      pop\n      swap3\n      swap1\n      pop\n      jump\t// out\n        /* \"#utility.yul\":2152:2279   */\n    tag_621:\n        /* \"#utility.yul\":2213:2223   */\n      0x4e487b71\n        /* \"#utility.yul\":2208:2211   */\n      0xe0\n        /* \"#utility.yul\":2204:2224   */\n      shl\n        /* \"#utility.yul\":2201:2202   */\n      0x00\n        /* \"#utility.yul\":2194:2225   */\n      mstore\n        /* \"#utility.yul\":2244:2248   */\n      0x41\n        /* \"#utility.yul\":2241:2242   */\n      0x04\n        /* \"#utility.yul\":2234:2249   */\n      mstore\n        /* \"#utility.yul\":2268:2272   */\n      0x24\n        /* \"#utility.yul\":2265:2266   */\n      0x00\n        /* \"#utility.yul\":2258:2273   */\n      revert\n        /* \"#utility.yul\":2284:2559   */\n    tag_622:\n        /* \"#utility.yul\":2355:2357   */\n      0x40\n        /* \"#utility.yul\":2349:2358   */\n      mload\n        /* \"#utility.yul\":2420:2422   */\n      0x1f\n        /* \"#utility.yul\":2401:2414   */\n      dup3\n      add\n      not(0x1f)\n        /* \"#utility.yul\":2397:2424   */\n      and\n        /* \"#utility.yul\":2385:2425   */\n      dup2\n      add\n        /* \"#utility.yul\":2455:2473   */\n      0xffffffffffffffff\n        /* \"#utility.yul\":2440:2474   */\n      dup2\n      gt\n        /* \"#utility.yul\":2476:2498   */\n      dup3\n      dup3\n      lt\n        /* \"#utility.yul\":2437:2499   */\n      or\n        /* \"#utility.yul\":2434:2522   */\n      iszero\n      tag_648\n      jumpi\n        /* \"#utility.yul\":2502:2520   */\n      tag_648\n      tag_621\n      jump\t// in\n    tag_648:\n        /* \"#utility.yul\":2538:2540   */\n      0x40\n        /* \"#utility.yul\":2531:2553   */\n      mstore\n        /* \"#utility.yul\":2284:2559   */\n      swap2\n      swap1\n      pop\n      jump\t// out\n        /* \"#utility.yul\":2564:3122   */\n    tag_623:\n        /* \"#utility.yul\":2606:2611   */\n      0x00\n        /* \"#utility.yul\":2659:2662   */\n      dup3\n        /* \"#utility.yul\":2652:2656   */\n      0x1f\n        /* \"#utility.yul\":2644:2650   */\n      dup4\n        /* \"#utility.yul\":2640:2657   */\n      add\n        /* \"#utility.yul\":2636:2663   */\n      slt\n        /* \"#utility.yul\":2626:2681   */\n      tag_650\n      jumpi\n        /* \"#utility.yul\":2677:2678   */\n      0x00\n        /* \"#utility.yul\":2674:2675   */\n      dup1\n        /* \"#utility.yul\":2667:2679   */\n      revert\n        /* \"#utility.yul\":2626:2681   */\n    tag_650:\n        /* \"#utility.yul\":2717:2723   */\n      dup2\n        /* \"#utility.yul\":2704:2724   */\n      calldataload\n        /* \"#utility.yul\":2747:2765   */\n      0xffffffffffffffff\n        /* \"#utility.yul\":2739:2745   */\n      dup2\n        /* \"#utility.yul\":2736:2766   */\n      gt\n        /* \"#utility.yul\":2733:2789   */\n      iszero\n      tag_652\n      jumpi\n        /* \"#utility.yul\":2769:2787   */\n      tag_652\n      tag_621\n      jump\t// in\n    tag_652:\n        /* \"#utility.yul\":2813:2872   */\n      tag_653\n        /* \"#utility.yul\":2860:2862   */\n      0x1f\n        /* \"#utility.yul\":2837:2854   */\n      dup3\n      add\n      not(0x1f)\n        /* \"#utility.yul\":2833:2864   */\n      and\n        /* \"#utility.yul\":2866:2870   */\n      0x20\n        /* \"#utility.yul\":2829:2871   */\n      add\n        /* \"#utility.yul\":2813:2872   */\n      tag_622\n      jump\t// in\n    tag_653:\n        /* \"#utility.yul\":2897:2903   */\n      dup2\n        /* \"#utility.yul\":2888:2895   */\n      dup2\n        /* \"#utility.yul\":2881:2904   */\n      mstore\n        /* \"#utility.yul\":2951:2954   */\n      dup5\n        /* \"#utility.yul\":2944:2948   */\n      0x20\n        /* \"#utility.yul\":2935:2941   */\n      dup4\n        /* \"#utility.yul\":2927:2933   */\n      dup7\n        /* \"#utility.yul\":2923:2942   */\n      add\n        /* \"#utility.yul\":2919:2949   */\n      add\n        /* \"#utility.yul\":2916:2955   */\n      gt\n        /* \"#utility.yul\":2913:2972   */\n      iszero\n      tag_654\n      jumpi\n        /* \"#utility.yul\":2968:2969   */\n      0x00\n        /* \"#utility.yul\":2965:2966   */\n      dup1\n        /* \"#utility.yul\":2958:2970   */\n      revert\n        /* \"#utility.yul\":2913:2972   */\n    tag_654:\n        /* \"#utility.yul\":3033:3039   */\n      dup2\n        /* \"#utility.yul\":3026:3030   */\n      0x20\n        /* \"#utility.yul\":3018:3024   */\n      dup6\n        /* \"#utility.yul\":3014:3031   */\n      add\n        /* \"#utility.yul\":3007:3011   */\n      0x20\n        /* \"#utility.yul\":2998:3005   */\n      dup4\n        /* \"#utility.yul\":2994:3012   */\n      add\n        /* \"#utility.yul\":2981:3040   */\n      calldatacopy\n        /* \"#utility.yul\":3089:3090   */\n      0x00\n        /* \"#utility.yul\":3060:3080   */\n      swap2\n      dup2\n      add\n        /* \"#utility.yul\":3082:3086   */\n      0x20\n        /* \"#utility.yul\":3056:3087   */\n      add\n        /* \"#utility.yul\":3049:3091   */\n      swap2\n      swap1\n      swap2\n      mstore\n        /* \"#utility.yul\":3064:3071   */\n      swap4\n        /* \"#utility.yul\":2564:3122   */\n      swap3\n      pop\n      pop\n      pop\n      jump\t// out\n        /* \"#utility.yul\":3127:3582   */\n    tag_68:\n        /* \"#utility.yul\":3204:3210   */\n      0x00\n        /* \"#utility.yul\":3212:3218   */\n      dup1\n        /* \"#utility.yul\":3265:3267   */\n      0x40\n        /* \"#utility.yul\":3253:3262   */\n      dup4\n        /* \"#utility.yul\":3244:3251   */\n      dup6\n        /* \"#utility.yul\":3240:3263   */\n      sub\n        /* \"#utility.yul\":3236:3268   */\n      slt\n        /* \"#utility.yul\":3233:3285   */\n      iszero\n      tag_656\n      jumpi\n        /* \"#utility.yul\":3281:3282   */\n      0x00\n        /* \"#utility.yul\":3278:3279   */\n      dup1\n        /* \"#utility.yul\":3271:3283   */\n      revert\n        /* \"#utility.yul\":3233:3285   */\n    tag_656:\n        /* \"#utility.yul\":3320:3329   */\n      dup3\n        /* \"#utility.yul\":3307:3330   */\n      calldataload\n        /* \"#utility.yul\":3339:3370   */\n      tag_657\n        /* \"#utility.yul\":3364:3369   */\n      dup2\n        /* \"#utility.yul\":3339:3370   */\n      tag_620\n      jump\t// in\n    tag_657:\n        /* \"#utility.yul\":3389:3394   */\n      swap2\n      pop\n        /* \"#utility.yul\":3445:3447   */\n      0x20\n        /* \"#utility.yul\":3430:3448   */\n      dup4\n      add\n        /* \"#utility.yul\":3417:3449   */\n      calldataload\n        /* \"#utility.yul\":3472:3490   */\n      0xffffffffffffffff\n        /* \"#utility.yul\":3461:3491   */\n      dup2\n      gt\n        /* \"#utility.yul\":3458:3508   */\n      iszero\n      tag_658\n      jumpi\n        /* \"#utility.yul\":3504:3505   */\n      0x00\n        /* \"#utility.yul\":3501:3502   */\n      dup1\n        /* \"#utility.yul\":3494:3506   */\n      revert\n        /* \"#utility.yul\":3458:3508   */\n    tag_658:\n        /* \"#utility.yul\":3527:3576   */\n      tag_659\n        /* \"#utility.yul\":3568:3575   */\n      dup6\n        /* \"#utility.yul\":3559:3565   */\n      dup3\n        /* \"#utility.yul\":3548:3557   */\n      dup7\n        /* \"#utility.yul\":3544:3566   */\n      add\n        /* \"#utility.yul\":3527:3576   */\n      tag_623\n      jump\t// in\n    tag_659:\n        /* \"#utility.yul\":3517:3576   */\n      swap2\n      pop\n      pop\n        /* \"#utility.yul\":3127:3582   */\n      swap3\n      pop\n      swap3\n      swap1\n      pop\n      jump\t// out\n        /* \"#utility.yul\":3769:4016   */\n    tag_81:\n        /* \"#utility.yul\":3828:3834   */\n      0x00\n        /* \"#utility.yul\":3881:3883   */\n      0x20\n        /* \"#utility.yul\":3869:3878   */\n      dup3\n        /* \"#utility.yul\":3860:3867   */\n      dup5\n        /* \"#utility.yul\":3856:3879   */\n      sub\n        /* \"#utility.yul\":3852:3884   */\n      slt\n        /* \"#utility.yul\":3849:3901   */\n      iszero\n      tag_662\n      jumpi\n        /* \"#utility.yul\":3897:3898   */\n      0x00\n        /* \"#utility.yul\":3894:3895   */\n      dup1\n        /* \"#utility.yul\":3887:3899   */\n      revert\n        /* \"#utility.yul\":3849:3901   */\n    tag_662:\n        /* \"#utility.yul\":3936:3945   */\n      dup2\n        /* \"#utility.yul\":3923:3946   */\n      calldataload\n        /* \"#utility.yul\":3955:3986   */\n      tag_482\n        /* \"#utility.yul\":3980:3985   */\n      dup2\n        /* \"#utility.yul\":3955:3986   */\n      tag_620\n      jump\t// in\n        /* \"#utility.yul\":5408:5826   */\n    tag_111:\n        /* \"#utility.yul\":5557:5559   */\n      0x20\n        /* \"#utility.yul\":5546:5555   */\n      dup2\n        /* \"#utility.yul\":5539:5560   */\n      mstore\n        /* \"#utility.yul\":5520:5524   */\n      0x00\n        /* \"#utility.yul\":5589:5595   */\n      dup3\n        /* \"#utility.yul\":5583:5596   */\n      mload\n        /* \"#utility.yul\":5632:5638   */\n      dup1\n        /* \"#utility.yul\":5627:5629   */\n      0x20\n        /* \"#utility.yul\":5616:5625   */\n      dup5\n        /* \"#utility.yul\":5612:5630   */\n      add\n        /* \"#utility.yul\":5605:5639   */\n      mstore\n        /* \"#utility.yul\":5691:5697   */\n      dup1\n        /* \"#utility.yul\":5686:5688   */\n      0x20\n        /* \"#utility.yul\":5678:5684   */\n      dup6\n        /* \"#utility.yul\":5674:5689   */\n      add\n        /* \"#utility.yul\":5669:5671   */\n      0x40\n        /* \"#utility.yul\":5658:5667   */\n      dup6\n        /* \"#utility.yul\":5654:5672   */\n      add\n        /* \"#utility.yul\":5648:5698   */\n      mcopy\n        /* \"#utility.yul\":5747:5748   */\n      0x00\n        /* \"#utility.yul\":5742:5744   */\n      0x40\n        /* \"#utility.yul\":5733:5739   */\n      dup3\n        /* \"#utility.yul\":5722:5731   */\n      dup6\n        /* \"#utility.yul\":5718:5740   */\n      add\n        /* \"#utility.yul\":5714:5745   */\n      add\n        /* \"#utility.yul\":5707:5749   */\n      mstore\n        /* \"#utility.yul\":5817:5819   */\n      0x40\n        /* \"#utility.yul\":5810:5812   */\n      0x1f\n        /* \"#utility.yul\":5806:5813   */\n      not\n        /* \"#utility.yul\":5801:5803   */\n      0x1f\n        /* \"#utility.yul\":5793:5799   */\n      dup4\n        /* \"#utility.yul\":5789:5804   */\n      add\n        /* \"#utility.yul\":5785:5814   */\n      and\n        /* \"#utility.yul\":5774:5783   */\n      dup5\n        /* \"#utility.yul\":5770:5815   */\n      add\n        /* \"#utility.yul\":5766:5820   */\n      add\n        /* \"#utility.yul\":5758:5820   */\n      swap2\n      pop\n      pop\n        /* \"#utility.yul\":5408:5826   */\n      swap3\n      swap2\n      pop\n      pop\n      jump\t// out\n        /* \"#utility.yul\":5831:6014   */\n    tag_625:\n        /* \"#utility.yul\":5891:5895   */\n      0x00\n        /* \"#utility.yul\":5924:5942   */\n      0xffffffffffffffff\n        /* \"#utility.yul\":5916:5922   */\n      dup3\n        /* \"#utility.yul\":5913:5943   */\n      gt\n        /* \"#utility.yul\":5910:5966   */\n      iszero\n      tag_671\n      jumpi\n        /* \"#utility.yul\":5946:5964   */\n      tag_671\n      tag_621\n      jump\t// in\n    tag_671:\n      pop\n        /* \"#utility.yul\":5991:5992   */\n      0x05\n        /* \"#utility.yul\":5987:6001   */\n      shl\n        /* \"#utility.yul\":6003:6007   */\n      0x20\n        /* \"#utility.yul\":5983:6008   */\n      add\n      swap1\n        /* \"#utility.yul\":5831:6014   */\n      jump\t// out\n        /* \"#utility.yul\":6019:6742   */\n    tag_626:\n        /* \"#utility.yul\":6073:6078   */\n      0x00\n        /* \"#utility.yul\":6126:6129   */\n      dup3\n        /* \"#utility.yul\":6119:6123   */\n      0x1f\n        /* \"#utility.yul\":6111:6117   */\n      dup4\n        /* \"#utility.yul\":6107:6124   */\n      add\n        /* \"#utility.yul\":6103:6130   */\n      slt\n        /* \"#utility.yul\":6093:6148   */\n      tag_673\n      jumpi\n        /* \"#utility.yul\":6144:6145   */\n      0x00\n        /* \"#utility.yul\":6141:6142   */\n      dup1\n        /* \"#utility.yul\":6134:6146   */\n      revert\n        /* \"#utility.yul\":6093:6148   */\n    tag_673:\n        /* \"#utility.yul\":6184:6190   */\n      dup2\n        /* \"#utility.yul\":6171:6191   */\n      calldataload\n        /* \"#utility.yul\":6211:6275   */\n      tag_674\n        /* \"#utility.yul\":6227:6274   */\n      tag_675\n        /* \"#utility.yul\":6267:6273   */\n      dup3\n        /* \"#utility.yul\":6227:6274   */\n      tag_625\n      jump\t// in\n    tag_675:\n        /* \"#utility.yul\":6211:6275   */\n      tag_622\n      jump\t// in\n    tag_674:\n        /* \"#utility.yul\":6299:6302   */\n      dup1\n        /* \"#utility.yul\":6323:6329   */\n      dup3\n        /* \"#utility.yul\":6318:6321   */\n      dup3\n        /* \"#utility.yul\":6311:6330   */\n      mstore\n        /* \"#utility.yul\":6355:6359   */\n      0x20\n        /* \"#utility.yul\":6350:6353   */\n      dup3\n        /* \"#utility.yul\":6346:6360   */\n      add\n        /* \"#utility.yul\":6339:6360   */\n      swap2\n      pop\n        /* \"#utility.yul\":6416:6420   */\n      0x20\n        /* \"#utility.yul\":6406:6412   */\n      dup4\n        /* \"#utility.yul\":6403:6404   */\n      0x05\n        /* \"#utility.yul\":6399:6413   */\n      shl\n        /* \"#utility.yul\":6391:6397   */\n      dup7\n        /* \"#utility.yul\":6387:6414   */\n      add\n        /* \"#utility.yul\":6383:6421   */\n      add\n        /* \"#utility.yul\":6369:6421   */\n      swap3\n      pop\n        /* \"#utility.yul\":6444:6447   */\n      dup6\n        /* \"#utility.yul\":6436:6442   */\n      dup4\n        /* \"#utility.yul\":6433:6448   */\n      gt\n        /* \"#utility.yul\":6430:6465   */\n      iszero\n      tag_676\n      jumpi\n        /* \"#utility.yul\":6461:6462   */\n      0x00\n        /* \"#utility.yul\":6458:6459   */\n      dup1\n        /* \"#utility.yul\":6451:6463   */\n      revert\n        /* \"#utility.yul\":6430:6465   */\n    tag_676:\n        /* \"#utility.yul\":6497:6501   */\n      0x20\n        /* \"#utility.yul\":6489:6495   */\n      dup6\n        /* \"#utility.yul\":6485:6502   */\n      add\n        /* \"#utility.yul\":6511:6711   */\n    tag_677:\n        /* \"#utility.yul\":6527:6533   */\n      dup4\n        /* \"#utility.yul\":6522:6525   */\n      dup2\n        /* \"#utility.yul\":6519:6534   */\n      lt\n        /* \"#utility.yul\":6511:6711   */\n      iszero\n      tag_679\n      jumpi\n        /* \"#utility.yul\":6619:6636   */\n      dup1\n      calldataload\n        /* \"#utility.yul\":6649:6667   */\n      dup4\n      mstore\n        /* \"#utility.yul\":6696:6700   */\n      0x20\n        /* \"#utility.yul\":6687:6701   */\n      swap3\n      dup4\n      add\n      swap3\n        /* \"#utility.yul\":6544:6558   */\n      add\n        /* \"#utility.yul\":6511:6711   */\n      jump(tag_677)\n    tag_679:\n      pop\n        /* \"#utility.yul\":6729:6736   */\n      swap6\n        /* \"#utility.yul\":6019:6742   */\n      swap5\n      pop\n      pop\n      pop\n      pop\n      pop\n      jump\t// out\n        /* \"#utility.yul\":6747:7829   */\n    tag_119:\n        /* \"#utility.yul\":6901:6907   */\n      0x00\n        /* \"#utility.yul\":6909:6915   */\n      dup1\n        /* \"#utility.yul\":6917:6923   */\n      0x00\n        /* \"#utility.yul\":6925:6931   */\n      dup1\n        /* \"#utility.yul\":6933:6939   */\n      0x00\n        /* \"#utility.yul\":6986:6989   */\n      0xa0\n        /* \"#utility.yul\":6974:6983   */\n      dup7\n        /* \"#utility.yul\":6965:6972   */\n      dup9\n        /* \"#utility.yul\":6961:6984   */\n      sub\n        /* \"#utility.yul\":6957:6990   */\n      slt\n        /* \"#utility.yul\":6954:7007   */\n      iszero\n      tag_681\n      jumpi\n        /* \"#utility.yul\":7003:7004   */\n      0x00\n        /* \"#utility.yul\":7000:7001   */\n      dup1\n        /* \"#utility.yul\":6993:7005   */\n      revert\n        /* \"#utility.yul\":6954:7007   */\n    tag_681:\n        /* \"#utility.yul\":7042:7051   */\n      dup6\n        /* \"#utility.yul\":7029:7052   */\n      calldataload\n        /* \"#utility.yul\":7061:7092   */\n      tag_682\n        /* \"#utility.yul\":7086:7091   */\n      dup2\n        /* \"#utility.yul\":7061:7092   */\n      tag_620\n      jump\t// in\n    tag_682:\n        /* \"#utility.yul\":7111:7116   */\n      swap5\n      pop\n        /* \"#utility.yul\":7168:7170   */\n      0x20\n        /* \"#utility.yul\":7153:7171   */\n      dup7\n      add\n        /* \"#utility.yul\":7140:7172   */\n      calldataload\n        /* \"#utility.yul\":7181:7214   */\n      tag_683\n        /* \"#utility.yul\":7140:7172   */\n      dup2\n        /* \"#utility.yul\":7181:7214   */\n      tag_620\n      jump\t// in\n    tag_683:\n        /* \"#utility.yul\":7233:7240   */\n      swap4\n      pop\n        /* \"#utility.yul\":7291:7293   */\n      0x40\n        /* \"#utility.yul\":7276:7294   */\n      dup7\n      add\n        /* \"#utility.yul\":7263:7295   */\n      calldataload\n        /* \"#utility.yul\":7318:7336   */\n      0xffffffffffffffff\n        /* \"#utility.yul\":7307:7337   */\n      dup2\n      gt\n        /* \"#utility.yul\":7304:7354   */\n      iszero\n      tag_684\n      jumpi\n        /* \"#utility.yul\":7350:7351   */\n      0x00\n        /* \"#utility.yul\":7347:7348   */\n      dup1\n        /* \"#utility.yul\":7340:7352   */\n      revert\n        /* \"#utility.yul\":7304:7354   */\n    tag_684:\n        /* \"#utility.yul\":7373:7434   */\n      tag_685\n        /* \"#utility.yul\":7426:7433   */\n      dup9\n        /* \"#utility.yul\":7417:7423   */\n      dup3\n        /* \"#utility.yul\":7406:7415   */\n      dup10\n        /* \"#utility.yul\":7402:7424   */\n      add\n        /* \"#utility.yul\":7373:7434   */\n      tag_626\n      jump\t// in\n    tag_685:\n        /* \"#utility.yul\":7363:7434   */\n      swap4\n      pop\n      pop\n        /* \"#utility.yul\":7487:7489   */\n      0x60\n        /* \"#utility.yul\":7476:7485   */\n      dup7\n        /* \"#utility.yul\":7472:7490   */\n      add\n        /* \"#utility.yul\":7459:7491   */\n      calldataload\n        /* \"#utility.yul\":7516:7534   */\n      0xffffffffffffffff\n        /* \"#utility.yul\":7506:7514   */\n      dup2\n        /* \"#utility.yul\":7503:7535   */\n      gt\n        /* \"#utility.yul\":7500:7552   */\n      iszero\n      tag_686\n      jumpi\n        /* \"#utility.yul\":7548:7549   */\n      0x00\n        /* \"#utility.yul\":7545:7546   */\n      dup1\n        /* \"#utility.yul\":7538:7550   */\n      revert\n        /* \"#utility.yul\":7500:7552   */\n    tag_686:\n        /* \"#utility.yul\":7571:7634   */\n      tag_687\n        /* \"#utility.yul\":7626:7633   */\n      dup9\n        /* \"#utility.yul\":7615:7623   */\n      dup3\n        /* \"#utility.yul\":7604:7613   */\n      dup10\n        /* \"#utility.yul\":7600:7624   */\n      add\n        /* \"#utility.yul\":7571:7634   */\n      tag_626\n      jump\t// in\n    tag_687:\n        /* \"#utility.yul\":7561:7634   */\n      swap3\n      pop\n      pop\n        /* \"#utility.yul\":7687:7690   */\n      0x80\n        /* \"#utility.yul\":7676:7685   */\n      dup7\n        /* \"#utility.yul\":7672:7691   */\n      add\n        /* \"#utility.yul\":7659:7692   */\n      calldataload\n        /* \"#utility.yul\":7717:7735   */\n      0xffffffffffffffff\n        /* \"#utility.yul\":7707:7715   */\n      dup2\n        /* \"#utility.yul\":7704:7736   */\n      gt\n        /* \"#utility.yul\":7701:7753   */\n      iszero\n      tag_688\n      jumpi\n        /* \"#utility.yul\":7749:7750   */\n      0x00\n        /* \"#utility.yul\":7746:7747   */\n      dup1\n        /* \"#utility.yul\":7739:7751   */\n      revert\n        /* \"#utility.yul\":7701:7753   */\n    tag_688:\n        /* \"#utility.yul\":7772:7823   */\n      tag_689\n        /* \"#utility.yul\":7815:7822   */\n      dup9\n        /* \"#utility.yul\":7804:7812   */\n      dup3\n        /* \"#utility.yul\":7793:7802   */\n      dup10\n        /* \"#utility.yul\":7789:7813   */\n      add\n        /* \"#utility.yul\":7772:7823   */\n      tag_623\n      jump\t// in\n    tag_689:\n        /* \"#utility.yul\":7762:7823   */\n      swap2\n      pop\n      pop\n        /* \"#utility.yul\":6747:7829   */\n      swap3\n      swap6\n      pop\n      swap3\n      swap6\n      swap1\n      swap4\n      pop\n      jump\t// out\n        /* \"#utility.yul\":8273:9386   */\n    tag_134:\n        /* \"#utility.yul\":8395:8401   */\n      0x00\n        /* \"#utility.yul\":8403:8409   */\n      dup1\n        /* \"#utility.yul\":8411:8417   */\n      0x00\n        /* \"#utility.yul\":8419:8425   */\n      dup1\n        /* \"#utility.yul\":8427:8433   */\n      0x00\n        /* \"#utility.yul\":8435:8441   */\n      dup1\n        /* \"#utility.yul\":8443:8449   */\n      0x00\n        /* \"#utility.yul\":8451:8457   */\n      dup1\n        /* \"#utility.yul\":8504:8507   */\n      0x0100\n        /* \"#utility.yul\":8492:8501   */\n      dup10\n        /* \"#utility.yul\":8483:8490   */\n      dup12\n        /* \"#utility.yul\":8479:8502   */\n      sub\n        /* \"#utility.yul\":8475:8508   */\n      slt\n        /* \"#utility.yul\":8472:8525   */\n      iszero\n      tag_693\n      jumpi\n        /* \"#utility.yul\":8521:8522   */\n      0x00\n        /* \"#utility.yul\":8518:8519   */\n      dup1\n        /* \"#utility.yul\":8511:8523   */\n      revert\n        /* \"#utility.yul\":8472:8525   */\n    tag_693:\n        /* \"#utility.yul\":8566:8589   */\n      dup9\n      calldataload\n      swap8\n      pop\n        /* \"#utility.yul\":8686:8688   */\n      0x20\n        /* \"#utility.yul\":8671:8689   */\n      dup10\n      add\n        /* \"#utility.yul\":8658:8690   */\n      calldataload\n      swap7\n      pop\n        /* \"#utility.yul\":8789:8791   */\n      0x40\n        /* \"#utility.yul\":8774:8792   */\n      dup10\n      add\n        /* \"#utility.yul\":8761:8793   */\n      calldataload\n      swap6\n      pop\n        /* \"#utility.yul\":8892:8894   */\n      0x60\n        /* \"#utility.yul\":8877:8895   */\n      dup10\n      add\n        /* \"#utility.yul\":8864:8896   */\n      calldataload\n      swap5\n      pop\n        /* \"#utility.yul\":8995:8998   */\n      0x80\n        /* \"#utility.yul\":8980:8999   */\n      dup10\n      add\n        /* \"#utility.yul\":8967:9000   */\n      calldataload\n      swap4\n      pop\n        /* \"#utility.yul\":9078:9081   */\n      0xa0\n        /* \"#utility.yul\":9063:9082   */\n      dup10\n      add\n        /* \"#utility.yul\":9050:9083   */\n      calldataload\n        /* \"#utility.yul\":9092:9125   */\n      tag_694\n        /* \"#utility.yul\":9050:9083   */\n      dup2\n        /* \"#utility.yul\":9092:9125   */\n      tag_620\n      jump\t// in\n    tag_694:\n        /* \"#utility.yul\":9144:9151   */\n      swap3\n      pop\n        /* \"#utility.yul\":9224:9227   */\n      0xc0\n        /* \"#utility.yul\":9209:9228   */\n      dup10\n      add\n        /* \"#utility.yul\":9196:9229   */\n      calldataload\n      swap2\n      pop\n        /* \"#utility.yul\":9307:9310   */\n      0xe0\n        /* \"#utility.yul\":9292:9311   */\n      dup10\n      add\n        /* \"#utility.yul\":9279:9312   */\n      calldataload\n        /* \"#utility.yul\":9321:9354   */\n      tag_695\n        /* \"#utility.yul\":9279:9312   */\n      dup2\n        /* \"#utility.yul\":9321:9354   */\n      tag_620\n      jump\t// in\n    tag_695:\n        /* \"#utility.yul\":9373:9380   */\n      dup1\n        /* \"#utility.yul\":9363:9380   */\n      swap2\n      pop\n      pop\n        /* \"#utility.yul\":8273:9386   */\n      swap3\n      swap6\n      swap9\n      pop\n      swap3\n      swap6\n      swap9\n      swap1\n      swap4\n      swap7\n      pop\n      jump\t// out\n        /* \"#utility.yul\":9391:10135   */\n    tag_627:\n        /* \"#utility.yul\":9445:9450   */\n      0x00\n        /* \"#utility.yul\":9498:9501   */\n      dup3\n        /* \"#utility.yul\":9491:9495   */\n      0x1f\n        /* \"#utility.yul\":9483:9489   */\n      dup4\n        /* \"#utility.yul\":9479:9496   */\n      add\n        /* \"#utility.yul\":9475:9502   */\n      slt\n        /* \"#utility.yul\":9465:9520   */\n      tag_697\n      jumpi\n        /* \"#utility.yul\":9516:9517   */\n      0x00\n        /* \"#utility.yul\":9513:9514   */\n      dup1\n        /* \"#utility.yul\":9506:9518   */\n      revert\n        /* \"#utility.yul\":9465:9520   */\n    tag_697:\n        /* \"#utility.yul\":9556:9562   */\n      dup2\n        /* \"#utility.yul\":9543:9563   */\n      calldataload\n        /* \"#utility.yul\":9583:9647   */\n      tag_698\n        /* \"#utility.yul\":9599:9646   */\n      tag_675\n        /* \"#utility.yul\":9639:9645   */\n      dup3\n        /* \"#utility.yul\":9599:9646   */\n      tag_625\n      jump\t// in\n        /* \"#utility.yul\":9583:9647   */\n    tag_698:\n        /* \"#utility.yul\":9671:9674   */\n      dup1\n        /* \"#utility.yul\":9695:9701   */\n      dup3\n        /* \"#utility.yul\":9690:9693   */\n      dup3\n        /* \"#utility.yul\":9683:9702   */\n      mstore\n        /* \"#utility.yul\":9727:9731   */\n      0x20\n        /* \"#utility.yul\":9722:9725   */\n      dup3\n        /* \"#utility.yul\":9718:9732   */\n      add\n        /* \"#utility.yul\":9711:9732   */\n      swap2\n      pop\n        /* \"#utility.yul\":9788:9792   */\n      0x20\n        /* \"#utility.yul\":9778:9784   */\n      dup4\n        /* \"#utility.yul\":9775:9776   */\n      0x05\n        /* \"#utility.yul\":9771:9785   */\n      shl\n        /* \"#utility.yul\":9763:9769   */\n      dup7\n        /* \"#utility.yul\":9759:9786   */\n      add\n        /* \"#utility.yul\":9755:9793   */\n      add\n        /* \"#utility.yul\":9741:9793   */\n      swap3\n      pop\n        /* \"#utility.yul\":9816:9819   */\n      dup6\n        /* \"#utility.yul\":9808:9814   */\n      dup4\n        /* \"#utility.yul\":9805:9820   */\n      gt\n        /* \"#utility.yul\":9802:9837   */\n      iszero\n      tag_700\n      jumpi\n        /* \"#utility.yul\":9833:9834   */\n      0x00\n        /* \"#utility.yul\":9830:9831   */\n      dup1\n        /* \"#utility.yul\":9823:9835   */\n      revert\n        /* \"#utility.yul\":9802:9837   */\n    tag_700:\n        /* \"#utility.yul\":9869:9873   */\n      0x20\n        /* \"#utility.yul\":9861:9867   */\n      dup6\n        /* \"#utility.yul\":9857:9874   */\n      add\n        /* \"#utility.yul\":9883:10104   */\n    tag_701:\n        /* \"#utility.yul\":9899:9905   */\n      dup4\n        /* \"#utility.yul\":9894:9897   */\n      dup2\n        /* \"#utility.yul\":9891:9906   */\n      lt\n        /* \"#utility.yul\":9883:10104   */\n      iszero\n      tag_679\n      jumpi\n        /* \"#utility.yul\":9981:9984   */\n      dup1\n        /* \"#utility.yul\":9968:9985   */\n      calldataload\n        /* \"#utility.yul\":9998:10029   */\n      tag_704\n        /* \"#utility.yul\":10023:10028   */\n      dup2\n        /* \"#utility.yul\":9998:10029   */\n      tag_620\n      jump\t// in\n    tag_704:\n        /* \"#utility.yul\":10042:10060   */\n      dup4\n      mstore\n        /* \"#utility.yul\":10089:10093   */\n      0x20\n        /* \"#utility.yul\":10080:10094   */\n      swap3\n      dup4\n      add\n      swap3\n        /* \"#utility.yul\":9916:9930   */\n      add\n        /* \"#utility.yul\":9883:10104   */\n      jump(tag_701)\n        /* \"#utility.yul\":10140:11591   */\n    tag_139:\n        /* \"#utility.yul\":10321:10327   */\n      0x00\n        /* \"#utility.yul\":10329:10335   */\n      dup1\n        /* \"#utility.yul\":10337:10343   */\n      0x00\n        /* \"#utility.yul\":10345:10351   */\n      dup1\n        /* \"#utility.yul\":10353:10359   */\n      0x00\n        /* \"#utility.yul\":10361:10367   */\n      dup1\n        /* \"#utility.yul\":10369:10375   */\n      0x00\n        /* \"#utility.yul\":10377:10383   */\n      dup1\n        /* \"#utility.yul\":10385:10391   */\n      0x00\n        /* \"#utility.yul\":10438:10441   */\n      0x0120\n        /* \"#utility.yul\":10426:10435   */\n      dup11\n        /* \"#utility.yul\":10417:10424   */\n      dup13\n        /* \"#utility.yul\":10413:10436   */\n      sub\n        /* \"#utility.yul\":10409:10442   */\n      slt\n        /* \"#utility.yul\":10406:10459   */\n      iszero\n      tag_706\n      jumpi\n        /* \"#utility.yul\":10455:10456   */\n      0x00\n        /* \"#utility.yul\":10452:10453   */\n      dup1\n        /* \"#utility.yul\":10445:10457   */\n      revert\n        /* \"#utility.yul\":10406:10459   */\n    tag_706:\n        /* \"#utility.yul\":10500:10523   */\n      dup10\n      calldataload\n      swap9\n      pop\n        /* \"#utility.yul\":10620:10622   */\n      0x20\n        /* \"#utility.yul\":10605:10623   */\n      dup11\n      add\n        /* \"#utility.yul\":10592:10624   */\n      calldataload\n      swap8\n      pop\n        /* \"#utility.yul\":10723:10725   */\n      0x40\n        /* \"#utility.yul\":10708:10726   */\n      dup11\n      add\n        /* \"#utility.yul\":10695:10727   */\n      calldataload\n      swap7\n      pop\n        /* \"#utility.yul\":10826:10828   */\n      0x60\n        /* \"#utility.yul\":10811:10829   */\n      dup11\n      add\n        /* \"#utility.yul\":10798:10830   */\n      calldataload\n      swap6\n      pop\n        /* \"#utility.yul\":10929:10932   */\n      0x80\n        /* \"#utility.yul\":10914:10933   */\n      dup11\n      add\n        /* \"#utility.yul\":10901:10934   */\n      calldataload\n      swap5\n      pop\n        /* \"#utility.yul\":11033:11036   */\n      0xa0\n        /* \"#utility.yul\":11018:11037   */\n      dup11\n      add\n        /* \"#utility.yul\":11005:11038   */\n      calldataload\n      swap4\n      pop\n        /* \"#utility.yul\":11116:11119   */\n      0xc0\n        /* \"#utility.yul\":11101:11120   */\n      dup11\n      add\n        /* \"#utility.yul\":11088:11121   */\n      calldataload\n        /* \"#utility.yul\":11130:11163   */\n      tag_707\n        /* \"#utility.yul\":11088:11121   */\n      dup2\n        /* \"#utility.yul\":11130:11163   */\n      tag_620\n      jump\t// in\n    tag_707:\n        /* \"#utility.yul\":11182:11189   */\n      swap3\n      pop\n        /* \"#utility.yul\":11240:11243   */\n      0xe0\n        /* \"#utility.yul\":11225:11244   */\n      dup11\n      add\n        /* \"#utility.yul\":11212:11245   */\n      calldataload\n        /* \"#utility.yul\":11268:11286   */\n      0xffffffffffffffff\n        /* \"#utility.yul\":11257:11287   */\n      dup2\n      gt\n        /* \"#utility.yul\":11254:11304   */\n      iszero\n      tag_708\n      jumpi\n        /* \"#utility.yul\":11300:11301   */\n      0x00\n        /* \"#utility.yul\":11297:11298   */\n      dup1\n        /* \"#utility.yul\":11290:11302   */\n      revert\n        /* \"#utility.yul\":11254:11304   */\n    tag_708:\n        /* \"#utility.yul\":11323:11384   */\n      tag_709\n        /* \"#utility.yul\":11376:11383   */\n      dup13\n        /* \"#utility.yul\":11367:11373   */\n      dup3\n        /* \"#utility.yul\":11356:11365   */\n      dup14\n        /* \"#utility.yul\":11352:11374   */\n      add\n        /* \"#utility.yul\":11323:11384   */\n      tag_627\n      jump\t// in\n    tag_709:\n        /* \"#utility.yul\":11313:11384   */\n      swap3\n      pop\n      pop\n        /* \"#utility.yul\":11437:11440   */\n      0x0100\n        /* \"#utility.yul\":11426:11435   */\n      dup11\n        /* \"#utility.yul\":11422:11441   */\n      add\n        /* \"#utility.yul\":11409:11442   */\n      calldataload\n        /* \"#utility.yul\":11467:11485   */\n      0xffffffffffffffff\n        /* \"#utility.yul\":11457:11465   */\n      dup2\n        /* \"#utility.yul\":11454:11486   */\n      gt\n        /* \"#utility.yul\":11451:11503   */\n      iszero\n      tag_710\n      jumpi\n        /* \"#utility.yul\":11499:11500   */\n      0x00\n        /* \"#utility.yul\":11496:11497   */\n      dup1\n        /* \"#utility.yul\":11489:11501   */\n      revert\n        /* \"#utility.yul\":11451:11503   */\n    tag_710:\n        /* \"#utility.yul\":11522:11585   */\n      tag_711\n        /* \"#utility.yul\":11577:11584   */\n      dup13\n        /* \"#utility.yul\":11566:11574   */\n      dup3\n        /* \"#utility.yul\":11555:11564   */\n      dup14\n        /* \"#utility.yul\":11551:11575   */\n      add\n        /* \"#utility.yul\":11522:11585   */\n      tag_626\n      jump\t// in\n    tag_711:\n        /* \"#utility.yul\":11512:11585   */\n      swap2\n      pop\n      pop\n        /* \"#utility.yul\":10140:11591   */\n      swap3\n      swap6\n      swap9\n      pop\n      swap3\n      swap6\n      swap9\n      pop\n      swap3\n      swap6\n      swap9\n      jump\t// out\n        /* \"#utility.yul\":11596:12434   */\n    tag_144:\n        /* \"#utility.yul\":11700:11706   */\n      0x00\n        /* \"#utility.yul\":11708:11714   */\n      dup1\n        /* \"#utility.yul\":11716:11722   */\n      0x00\n        /* \"#utility.yul\":11724:11730   */\n      dup1\n        /* \"#utility.yul\":11732:11738   */\n      0x00\n        /* \"#utility.yul\":11785:11788   */\n      0xa0\n        /* \"#utility.yul\":11773:11782   */\n      dup7\n        /* \"#utility.yul\":11764:11771   */\n      dup9\n        /* \"#utility.yul\":11760:11783   */\n      sub\n        /* \"#utility.yul\":11756:11789   */\n      slt\n        /* \"#utility.yul\":11753:11806   */\n      iszero\n      tag_713\n      jumpi\n        /* \"#utility.yul\":11802:11803   */\n      0x00\n        /* \"#utility.yul\":11799:11800   */\n      dup1\n        /* \"#utility.yul\":11792:11804   */\n      revert\n        /* \"#utility.yul\":11753:11806   */\n    tag_713:\n        /* \"#utility.yul\":11841:11850   */\n      dup6\n        /* \"#utility.yul\":11828:11851   */\n      calldataload\n        /* \"#utility.yul\":11860:11891   */\n      tag_714\n        /* \"#utility.yul\":11885:11890   */\n      dup2\n        /* \"#utility.yul\":11860:11891   */\n      tag_620\n      jump\t// in\n    tag_714:\n        /* \"#utility.yul\":11910:11915   */\n      swap5\n      pop\n        /* \"#utility.yul\":11967:11969   */\n      0x20\n        /* \"#utility.yul\":11952:11970   */\n      dup7\n      add\n        /* \"#utility.yul\":11939:11971   */\n      calldataload\n        /* \"#utility.yul\":11980:12013   */\n      tag_715\n        /* \"#utility.yul\":11939:11971   */\n      dup2\n        /* \"#utility.yul\":11980:12013   */\n      tag_620\n      jump\t// in\n    tag_715:\n        /* \"#utility.yul\":12032:12039   */\n      swap4\n      pop\n        /* \"#utility.yul\":12112:12114   */\n      0x40\n        /* \"#utility.yul\":12097:12115   */\n      dup7\n      add\n        /* \"#utility.yul\":12084:12116   */\n      calldataload\n      swap3\n      pop\n        /* \"#utility.yul\":12215:12217   */\n      0x60\n        /* \"#utility.yul\":12200:12218   */\n      dup7\n      add\n        /* \"#utility.yul\":12187:12219   */\n      calldataload\n      swap2\n      pop\n        /* \"#utility.yul\":12296:12299   */\n      0x80\n        /* \"#utility.yul\":12281:12300   */\n      dup7\n      add\n        /* \"#utility.yul\":12268:12301   */\n      calldataload\n        /* \"#utility.yul\":12324:12342   */\n      0xffffffffffffffff\n        /* \"#utility.yul\":12313:12343   */\n      dup2\n      gt\n        /* \"#utility.yul\":12310:12360   */\n      iszero\n      tag_688\n      jumpi\n        /* \"#utility.yul\":12356:12357   */\n      0x00\n        /* \"#utility.yul\":12353:12354   */\n      dup1\n        /* \"#utility.yul\":12346:12358   */\n      revert\n        /* \"#utility.yul\":14313:14972   */\n    tag_228:\n        /* \"#utility.yul\":14407:14413   */\n      0x00\n        /* \"#utility.yul\":14415:14421   */\n      dup1\n        /* \"#utility.yul\":14423:14429   */\n      0x00\n        /* \"#utility.yul\":14431:14437   */\n      dup1\n        /* \"#utility.yul\":14484:14487   */\n      0x80\n        /* \"#utility.yul\":14472:14481   */\n      dup6\n        /* \"#utility.yul\":14463:14470   */\n      dup8\n        /* \"#utility.yul\":14459:14482   */\n      sub\n        /* \"#utility.yul\":14455:14488   */\n      slt\n        /* \"#utility.yul\":14452:14505   */\n      iszero\n      tag_725\n      jumpi\n        /* \"#utility.yul\":14501:14502   */\n      0x00\n        /* \"#utility.yul\":14498:14499   */\n      dup1\n        /* \"#utility.yul\":14491:14503   */\n      revert\n        /* \"#utility.yul\":14452:14505   */\n    tag_725:\n        /* \"#utility.yul\":14533:14542   */\n      dup5\n        /* \"#utility.yul\":14527:14543   */\n      mload\n        /* \"#utility.yul\":14586:14591   */\n      dup1\n        /* \"#utility.yul\":14579:14592   */\n      iszero\n        /* \"#utility.yul\":14572:14593   */\n      iszero\n        /* \"#utility.yul\":14565:14570   */\n      dup2\n        /* \"#utility.yul\":14562:14594   */\n      eq\n        /* \"#utility.yul\":14552:14612   */\n      tag_726\n      jumpi\n        /* \"#utility.yul\":14608:14609   */\n      0x00\n        /* \"#utility.yul\":14605:14606   */\n      dup1\n        /* \"#utility.yul\":14598:14610   */\n      revert\n        /* \"#utility.yul\":14552:14612   */\n    tag_726:\n        /* \"#utility.yul\":14702:14704   */\n      0x20\n        /* \"#utility.yul\":14687:14705   */\n      dup7\n      add\n        /* \"#utility.yul\":14681:14706   */\n      mload\n        /* \"#utility.yul\":14777:14779   */\n      0x40\n        /* \"#utility.yul\":14762:14780   */\n      dup8\n      add\n        /* \"#utility.yul\":14756:14781   */\n      mload\n        /* \"#utility.yul\":14631:14636   */\n      swap2\n      swap6\n      pop\n        /* \"#utility.yul\":14681:14706   */\n      swap4\n      pop\n        /* \"#utility.yul\":14790:14823   */\n      tag_727\n        /* \"#utility.yul\":14756:14781   */\n      dup2\n        /* \"#utility.yul\":14790:14823   */\n      tag_620\n      jump\t// in\n    tag_727:\n        /* \"#utility.yul\":14894:14896   */\n      0x60\n        /* \"#utility.yul\":14879:14897   */\n      dup7\n      add\n        /* \"#utility.yul\":14873:14898   */\n      mload\n        /* \"#utility.yul\":14842:14849   */\n      swap1\n      swap3\n      pop\n        /* \"#utility.yul\":14907:14940   */\n      tag_728\n        /* \"#utility.yul\":14873:14898   */\n      dup2\n        /* \"#utility.yul\":14907:14940   */\n      tag_620\n      jump\t// in\n    tag_728:\n        /* \"#utility.yul\":14313:14972   */\n      swap4\n      swap7\n      swap3\n      swap6\n      pop\n      swap1\n      swap4\n      pop\n      pop\n      jump\t// out\n        /* \"#utility.yul\":14977:15104   */\n    tag_628:\n        /* \"#utility.yul\":15038:15048   */\n      0x4e487b71\n        /* \"#utility.yul\":15033:15036   */\n      0xe0\n        /* \"#utility.yul\":15029:15049   */\n      shl\n        /* \"#utility.yul\":15026:15027   */\n      0x00\n        /* \"#utility.yul\":15019:15050   */\n      mstore\n        /* \"#utility.yul\":15069:15073   */\n      0x11\n        /* \"#utility.yul\":15066:15067   */\n      0x04\n        /* \"#utility.yul\":15059:15074   */\n      mstore\n        /* \"#utility.yul\":15093:15097   */\n      0x24\n        /* \"#utility.yul\":15090:15091   */\n      0x00\n        /* \"#utility.yul\":15083:15098   */\n      revert\n        /* \"#utility.yul\":15109:15234   */\n    tag_235:\n        /* \"#utility.yul\":15174:15183   */\n      dup1\n      dup3\n      add\n        /* \"#utility.yul\":15195:15205   */\n      dup1\n      dup3\n      gt\n        /* \"#utility.yul\":15192:15228   */\n      iszero\n      tag_153\n      jumpi\n        /* \"#utility.yul\":15208:15226   */\n      tag_153\n      tag_628\n      jump\t// in\n        /* \"#utility.yul\":15239:15367   */\n    tag_239:\n        /* \"#utility.yul\":15306:15315   */\n      dup2\n      dup2\n      sub\n        /* \"#utility.yul\":15327:15338   */\n      dup2\n      dup2\n      gt\n        /* \"#utility.yul\":15324:15361   */\n      iszero\n      tag_153\n      jumpi\n        /* \"#utility.yul\":15341:15359   */\n      tag_153\n      tag_628\n      jump\t// in\n        /* \"#utility.yul\":17124:17259   */\n    tag_350:\n        /* \"#utility.yul\":17163:17166   */\n      0x00\n        /* \"#utility.yul\":17184:17201   */\n      0x01\n      dup3\n      add\n        /* \"#utility.yul\":17181:17224   */\n      tag_743\n      jumpi\n        /* \"#utility.yul\":17204:17222   */\n      tag_743\n      tag_628\n      jump\t// in\n    tag_743:\n      pop\n        /* \"#utility.yul\":17251:17252   */\n      0x01\n        /* \"#utility.yul\":17240:17253   */\n      add\n      swap1\n        /* \"#utility.yul\":17124:17259   */\n      jump\t// out\n        /* \"#utility.yul\":17660:17787   */\n    tag_370:\n        /* \"#utility.yul\":17721:17731   */\n      0x4e487b71\n        /* \"#utility.yul\":17716:17719   */\n      0xe0\n        /* \"#utility.yul\":17712:17732   */\n      shl\n        /* \"#utility.yul\":17709:17710   */\n      0x00\n        /* \"#utility.yul\":17702:17733   */\n      mstore\n        /* \"#utility.yul\":17752:17756   */\n      0x32\n        /* \"#utility.yul\":17749:17750   */\n      0x04\n        /* \"#utility.yul\":17742:17757   */\n      mstore\n        /* \"#utility.yul\":17776:17780   */\n      0x24\n        /* \"#utility.yul\":17773:17774   */\n      0x00\n        /* \"#utility.yul\":17766:17781   */\n      revert\n        /* \"#utility.yul\":19261:19429   */\n    tag_449:\n        /* \"#utility.yul\":19334:19343   */\n      dup1\n      dup3\n      mul\n        /* \"#utility.yul\":19365:19374   */\n      dup2\n      iszero\n        /* \"#utility.yul\":19382:19397   */\n      dup3\n      dup3\n      div\n        /* \"#utility.yul\":19376:19398   */\n      dup5\n      eq\n        /* \"#utility.yul\":19362:19399   */\n      or\n        /* \"#utility.yul\":19352:19423   */\n      tag_153\n      jumpi\n        /* \"#utility.yul\":19403:19421   */\n      tag_153\n      tag_628\n      jump\t// in\n        /* \"#utility.yul\":19434:19651   */\n    tag_451:\n        /* \"#utility.yul\":19474:19475   */\n      0x00\n        /* \"#utility.yul\":19500:19501   */\n      dup3\n        /* \"#utility.yul\":19490:19622   */\n      tag_754\n      jumpi\n        /* \"#utility.yul\":19544:19554   */\n      0x4e487b71\n        /* \"#utility.yul\":19539:19542   */\n      0xe0\n        /* \"#utility.yul\":19535:19555   */\n      shl\n        /* \"#utility.yul\":19532:19533   */\n      0x00\n        /* \"#utility.yul\":19525:19556   */\n      mstore\n        /* \"#utility.yul\":19579:19583   */\n      0x12\n        /* \"#utility.yul\":19576:19577   */\n      0x04\n        /* \"#utility.yul\":19569:19584   */\n      mstore\n        /* \"#utility.yul\":19607:19611   */\n      0x24\n        /* \"#utility.yul\":19604:19605   */\n      0x00\n        /* \"#utility.yul\":19597:19612   */\n      revert\n        /* \"#utility.yul\":19490:19622   */\n    tag_754:\n      pop\n        /* \"#utility.yul\":19636:19645   */\n      div\n      swap1\n        /* \"#utility.yul\":19434:19651   */\n      jump\t// out\n        /* \"#utility.yul\":19656:20020   */\n    tag_504:\n        /* \"#utility.yul\":19735:19741   */\n      0x00\n        /* \"#utility.yul\":19743:19749   */\n      dup1\n        /* \"#utility.yul\":19796:19798   */\n      0x40\n        /* \"#utility.yul\":19784:19793   */\n      dup4\n        /* \"#utility.yul\":19775:19782   */\n      dup6\n        /* \"#utility.yul\":19771:19794   */\n      sub\n        /* \"#utility.yul\":19767:19799   */\n      slt\n        /* \"#utility.yul\":19764:19816   */\n      iszero\n      tag_756\n      jumpi\n        /* \"#utility.yul\":19812:19813   */\n      0x00\n        /* \"#utility.yul\":19809:19810   */\n      dup1\n        /* \"#utility.yul\":19802:19814   */\n      revert\n        /* \"#utility.yul\":19764:19816   */\n    tag_756:\n        /* \"#utility.yul\":19857:19873   */\n      dup3\n      mload\n        /* \"#utility.yul\":19942:19944   */\n      0x20\n        /* \"#utility.yul\":19927:19945   */\n      dup5\n      add\n        /* \"#utility.yul\":19921:19946   */\n      mload\n        /* \"#utility.yul\":19857:19873   */\n      swap1\n      swap3\n      pop\n        /* \"#utility.yul\":19955:19988   */\n      tag_644\n        /* \"#utility.yul\":19921:19946   */\n      dup2\n        /* \"#utility.yul\":19955:19988   */\n      tag_620\n      jump\t// in\n        /* \"#utility.yul\":21251:21435   */\n    tag_533:\n        /* \"#utility.yul\":21321:21327   */\n      0x00\n        /* \"#utility.yul\":21374:21376   */\n      0x20\n        /* \"#utility.yul\":21362:21371   */\n      dup3\n        /* \"#utility.yul\":21353:21360   */\n      dup5\n        /* \"#utility.yul\":21349:21372   */\n      sub\n        /* \"#utility.yul\":21345:21377   */\n      slt\n        /* \"#utility.yul\":21342:21394   */\n      iszero\n      tag_762\n      jumpi\n        /* \"#utility.yul\":21390:21391   */\n      0x00\n        /* \"#utility.yul\":21387:21388   */\n      dup1\n        /* \"#utility.yul\":21380:21392   */\n      revert\n        /* \"#utility.yul\":21342:21394   */\n    tag_762:\n      pop\n        /* \"#utility.yul\":21413:21429   */\n      mload\n      swap2\n        /* \"#utility.yul\":21251:21435   */\n      swap1\n      pop\n      jump\t// out\n        /* \"#utility.yul\":21440:21741   */\n    tag_601:\n        /* \"#utility.yul\":21569:21572   */\n      0x00\n        /* \"#utility.yul\":21607:21613   */\n      dup3\n        /* \"#utility.yul\":21601:21614   */\n      mload\n        /* \"#utility.yul\":21653:21659   */\n      dup1\n        /* \"#utility.yul\":21646:21650   */\n      0x20\n        /* \"#utility.yul\":21638:21644   */\n      dup6\n        /* \"#utility.yul\":21634:21651   */\n      add\n        /* \"#utility.yul\":21629:21632   */\n      dup5\n        /* \"#utility.yul\":21623:21660   */\n      mcopy\n        /* \"#utility.yul\":21715:21716   */\n      0x00\n        /* \"#utility.yul\":21679:21695   */\n      swap3\n      add\n        /* \"#utility.yul\":21704:21717   */\n      swap2\n      dup3\n      mstore\n      pop\n        /* \"#utility.yul\":21679:21695   */\n      swap2\n        /* \"#utility.yul\":21440:21741   */\n      swap1\n      pop\n      jump\t// out\n    stop\n    data_75b20eef8615de99c108b05f0dbda081c91897128caa336d75dffb97c4132b4d 360894a13ba1a3210667c828492db98dca3e2076cc3735a920a3ca505d382bbc\n\n    auxdata: 0xa2646970667358221220ea6af4143d66964348ac72c657033d9a8794d04baea16149de75acf8b5f5c6b464736f6c634300081a0033\n}\n",
				"bytecode": {
					"linkReferences": {},
					"object": "60a060405230608052348015610013575f80fd5b5061001c610021565b6100d3565b7ff0c57e16840df040f15088dc2f81fe391c3923bec73e23a9662efc9c229c6a00805468010000000000000000900460ff16156100715760405163f92ee8a960e01b815260040160405180910390fd5b80546001600160401b03908116146100d05780546001600160401b0319166001600160401b0390811782556040519081527fc7f505b2f371ae2175ee4913f4499e1f2633a7b5936321eed1cdaeb6115181d29060200160405180910390a15b50565b608051612c116100f95f395f8181611fd401528181611ffd015261213c0152612c115ff3fe608060405260043610610161575f3560e01c8063831490f9116100cd578063bc197c8111610087578063e30ec38611610062578063e30ec38614610508578063eafa403914610527578063f23a6e6114610546578063f2fde38b14610571575f80fd5b8063bc197c8114610493578063bea7d6e9146104d7578063d2f6f67d146104ea575f80fd5b8063831490f91461030057806384a184de146103155780638da5cb5b1461040e5780639e898e5814610422578063ad3cb1cc14610437578063b9a2de3a14610474575f80fd5b80634c205bc91161011e5780634c205bc9146102505780634f1ef2861461026357806352d1902d14610276578063715018a61461028a5780637cfd3e181461029e578063824563f6146102c9575f80fd5b806301ffc9a71461016557806303c32aa91461019957806320edda38146101ba5780632c0bc695146101d95780633d6c0507146101f8578063485cc95514610231575b5f80fd5b348015610170575f80fd5b5061018461017f366004612552565b610590565b60405190151581526020015b60405180910390f35b3480156101a4575f80fd5b506101b86101b3366004612579565b6105c6565b005b3480156101c5575f80fd5b506101b86101d4366004612579565b610691565b3480156101e4575f80fd5b506101b86101f3366004612590565b610730565b348015610203575f80fd5b50610223610212366004612579565b60056020525f908152604090205481565b604051908152602001610190565b34801561023c575f80fd5b506101b861024b3660046125db565b610889565b6101b861025e366004612579565b6109d7565b6101b86102713660046126c3565b610e24565b348015610281575f80fd5b50610223610e43565b348015610295575f80fd5b506101b8610e5e565b3480156102a9575f80fd5b506102236102b8366004612710565b60066020525f908152604090205481565b3480156102d4575f80fd5b506003546102e8906001600160a01b031681565b6040516001600160a01b039091168152602001610190565b34801561030b575f80fd5b5061022360025481565b348015610320575f80fd5b5061039e61032f366004612579565b600460208190525f9182526040909120805460018201546002830154600384015494840154600585015460068601546007870154600888015460099098015460ff8089169a6101008a0482169a62010000909a04909116989095946001600160a01b039081169481169316918c565b604080519c15158d529a151560208d0152981515998b019990995260608a0196909652608089019490945260a088019290925260c08701526001600160a01b0390811660e08701529081166101008601521661012084015261014083019190915261016082015261018001610190565b348015610419575f80fd5b506102e8610e71565b34801561042d575f80fd5b5061022360015481565b348015610442575f80fd5b50610467604051806040016040528060058152602001640352e302e360dc1b81525081565b604051610190919061272b565b34801561047f575f80fd5b506101b861048e366004612579565b610e9f565b34801561049e575f80fd5b506104be6104ad3660046127ed565b63bc197c8160e01b95945050505050565b6040516001600160e01b03199091168152602001610190565b6101b86104e5366004612579565b6110df565b3480156104f5575f80fd5b505f546102e8906001600160a01b031681565b348015610513575f80fd5b506101b86105223660046128a0565b6113a6565b348015610532575f80fd5b506101b8610541366004612972565b6115a5565b348015610551575f80fd5b506104be610560366004612a20565b63f23a6e6160e01b95945050505050565b34801561057c575f80fd5b506101b861058b366004612710565b6117d8565b5f6001600160e01b03198216630271189760e51b14806105c057506301ffc9a760e01b6001600160e01b03198316145b92915050565b606481101580156105d957506103e88111155b6106435760405162461bcd60e51b815260206004820152603060248201527f5f66697363616c53706f6e736f7250657263656e74616765206d75737420626560448201526f0206265747765656e203120746f2031360841b60648201526084015b60405180910390fd5b335f81815260066020908152604091829020849055815192835282018390527fbee82e0cd48a0dfd192b0980a9a2c7d9b007aad1b38c23a235b4121b554d9c8a91015b60405180910390a150565b610699611815565b5f811180156106aa5750610bb88111155b6106f65760405162461bcd60e51b815260206004820181905260248201527f6665652025206d757374206265747765656e20696e20312520746f2033302520604482015260640161063a565b6002819055604080518281523360208201527f8b52e67d733e4bffdb3a2df53e3b88e2f31125fc8a8442b742602f8f7d0ed3e99101610686565b845f81116107545760405163c860174b60e01b81526004810182905260240161063a565b5f8181526004602052604090205460ff1661079a575f8181526004602081905260409182902054915163e6c1c63760e01b815260ff90921615159082015260240161063a565b5f81815260046020526040902054610100900460ff16156107e9575f818152600460208190526040918290205491516224680560e91b815261010090920460ff1615159082015260240161063a565b5f8681526004602081905260409091206003810154918101546007909101546108239291908890889088906001600160a01b031688611847565b5f8681526004602090815260409182902060028101546009820154600890920154845191825292810191909152918201527fd3f4e53a5792e81767b11408a290f82cf83fde26090d65773f2c0a9aeb63adfb9060600160405180910390a1505050505050565b7ff0c57e16840df040f15088dc2f81fe391c3923bec73e23a9662efc9c229c6a008054600160401b810460ff16159067ffffffffffffffff165f811580156108ce5750825b90505f8267ffffffffffffffff1660011480156108ea5750303b155b9050811580156108f8575080155b156109165760405163f92ee8a960e01b815260040160405180910390fd5b845467ffffffffffffffff19166001178555831561094057845460ff60401b1916600160401b1785555b60fa600255600380546001600160a01b0389166001600160a01b031991821681179092555f805490911690911790556109776119ef565b610980866119f7565b6109886119ef565b83156109ce57845460ff60401b19168555604051600181527fc7f505b2f371ae2175ee4913f4499e1f2633a7b5936321eed1cdaeb6115181d29060200160405180910390a15b50505050505050565b805f81116109fb5760405163c860174b60e01b81526004810182905260240161063a565b5f8181526004602052604090205460ff16610a41575f8181526004602081905260409182902054915163e6c1c63760e01b815260ff90921615159082015260240161063a565b5f81815260046020526040902054610100900460ff1615610a90575f818152600460208190526040918290205491516224680560e91b815261010090920460ff1615159082015260240161063a565b5f828152600460205260409020600201543414610ac2576040516385d649f760e01b815234600482015260240161063a565b5f8281526004602052604090205462010000900460ff16610b13575f82815260046020819052604091829020549151639cf9f1f760e01b81526201000090920460ff1615159082015260240161063a565b5f828152600460205260409020600501546001600160a01b03163303610b6b575f828152600460208190526040918290206005015491516304a83c1b60e51b81526001600160a01b039092169082015260240161063a565b5f8281526004602052604081206006810180546001600160a01b031916331790556001015415610bbe575f8381526004602052604090206002810154600190910154610bb79190611a08565b9050610be1565b610bde60045f8581526020019081526020015f2060020154600254611a08565b90505b5f8381526005602052604081205415610c0057610bfd84611abe565b90505b5f80548582526004602081905260408084206005015490516353f5011960e01b81526001600160a01b0391821692810192909252909116906353f5011990602401608060405180830381865afa158015610c5c573d5f803e3d5ffd5b505050506040513d601f19601f82011682018060405250810190610c809190612a78565b50505090505f8115610c9a57610c97865f80611c8f565b90505b5f610ca487611dce565b90505f8183610cb38789612ae2565b610cbd9190612ae2565b610cc79190612ae2565b5f89815260046020526040902060020154610ce29190612af5565b9050610cf5610cef610e71565b87611ea3565b5f88815260046020526040902060050154610d19906001600160a01b031682611ea3565b5f888152600460208190526040909120805461ff0019166101001781556007810154600682015460038301549290930154610d66936001600160a01b039283169330939190911691611f39565b5f88815260046020818152604092839020600781015460038201546006830154929094015485513081526001600160a01b03938416948101949094528386015293519316927f01a7baf821561ae36aa58d172bd77037c6f9c19177e5b840e3d413c110a80e459181900360600190a38085877f36203e70aeb15b48fc7b10549158c6acc3ba3235ba2644757016fb33d4fa39448686604051610e12929190918252602082015260400190565b60405180910390a45050505050505050565b610e2c611fc9565b610e358261206d565b610e3f8282612075565b5050565b5f610e4c612131565b505f80516020612bbc83398151915290565b610e66611815565b610e6f5f61217a565b565b7f9016d09d72d40fdae2fd8ceac6b6234c7706214fd39c1cd1e609a0528c199300546001600160a01b031690565b805f8111610ec35760405163c860174b60e01b81526004810182905260240161063a565b5f8181526004602052604090205460ff16610f09575f8181526004602081905260409182902054915163e6c1c63760e01b815260ff90921615159082015260240161063a565b5f81815260046020526040902054610100900460ff1615610f58575f818152600460208190526040918290205491516224680560e91b815261010090920460ff1615159082015260240161063a565b5f8281526004602052604090205462010000900460ff1615610faa575f82815260046020819052604091829020549151632a515af560e11b81526201000090920460ff1615159082015260240161063a565b5f828152600460205260409020600501546001600160a01b0316331480610fe957505f828152600460205260409020600601546001600160a01b031633145b6110535760405162461bcd60e51b815260206004820152603560248201527f596f7520617265206e6f7420746865206e66744f776e6572206e656974686572604482015274103a3432903432b4b3b432b9ba103134b23232b91760591b606482015260840161063a565b5f828152600460205260409020600801544210156110a7575f828152600460208190526040918290206009810154600890910154925163dd96246f60e01b815291820152602481019190915260440161063a565b5f8281526004602052604081206001015415610bbe575f8381526004602052604090206002810154600190910154610bb79190611a08565b805f81116111035760405163c860174b60e01b81526004810182905260240161063a565b5f8181526004602052604090205460ff16611149575f8181526004602081905260409182902054915163e6c1c63760e01b815260ff90921615159082015260240161063a565b5f81815260046020526040902054610100900460ff1615611198575f818152600460208190526040918290205491516224680560e91b815261010090920460ff1615159082015260240161063a565b5f8281526004602052604090205462010000900460ff16156111ea575f82815260046020819052604091829020549151632a515af560e11b81526201000090920460ff1615159082015260240161063a565b34158061120657505f8281526004602052604090206002015434105b15611226576040516385d649f760e01b815234600482015260240161063a565b5f8281526004602052604090206009015442108061125357505f8281526004602052604090206008015442115b15611294575f828152600460208190526040918290206009810154600890910154925163dd96246f60e01b815291820152602481019190915260440161063a565b5f828152600460205260409020600501546001600160a01b031633036112ec575f828152600460208190526040918290206005015491516304a83c1b60e51b81526001600160a01b039092169082015260240161063a565b5f82815260046020526040902060028101546006909101546001600160a01b0316811580159061132457506001600160a01b03811615155b15611333576113338183611ea3565b5f848152600460209081526040918290203460028201819055600690910180546001600160a01b031916339081179091558351908152918201529081018390527fa6e846933627bedfe46f69605777a6483fb976f59199ec63196aa8442c8eb1239060600160405180910390a150505050565b5f80546040516353f5011960e01b8152336004820152839291829182916001600160a01b0316906353f5011990602401608060405180830381865afa1580156113f1573d5f803e3d5ffd5b505050506040513d601f19601f820116820180604052508101906114159190612a78565b50925092509250821561147c57806001600160a01b0316846001600160a01b03161461147c5760405162461bcd60e51b81526020600482015260166024820152753bb937b733903334b9b1b0b61039b837b739b7b9109760511b604482015260640161063a565b5f8c1161149f5760405163baf301f760e01b8152600481018d905260240161063a565b5f89116114c2576040516343599f6960e11b8152600481018a905260240161063a565b5f88116114e557604051638e57a1b360e01b81526004810189905260240161063a565b60018054905f6114f483612b08565b919050555061150889898e8e8e8c8c611847565b6003546001600160a01b038881169116146115305761152b89896001548a6121ea565b61154d565b60015460035461154d918b918b91906001600160a01b03166121ea565b60015460408051918252602082018b90528101899052606081018d90527f52ad65ec41e71d556367fc4fef59f68118b969bb890def6f1ccd0b952f557ca49060800160405180910390a1505050505050505050505050565b81815f8251111580156115b95750600a8251115b156115dc578151604051631d9aea7d60e01b815260040161063a91815260200190565b805182511461160b57815181516040516312c9b6e160e01b81526004810192909252602482015260440161063a565b5f805b83518110156116d5575f6001600160a01b031684828151811061163357611633612b20565b60200260200101516001600160a01b0316146116cd576101f483828151811061165e5761165e612b20565b602002602001015110156116c85760405162461bcd60e51b815260206004820152602b60248201527f646f6e6174696f6e2070657263656e74616765206d757374206265206772656160448201526a746572207468656e20352560a81b606482015260840161063a565b600191505b60010161160e565b508061171c5760405162461bcd60e51b815260206004820152601660248201527539b2b632b1ba1030b71037b933b0b73d30ba34b7b71760511b604482015260640161063a565b5f8c1161173f5760405163baf301f760e01b8152600481018d905260240161063a565b5f8911611762576040516343599f6960e11b8152600481018a905260240161063a565b5f881161178557604051638e57a1b360e01b81526004810189905260240161063a565b60018054905f61179483612b08565b91905055506117a889898e8e8e8b8d611847565b6117b56001548686612226565b6003546001600160a01b038781169116146115305761152b8989600154896121ea565b6117e0611815565b6001600160a01b03811661180957604051631e4fbdf760e01b81525f600482015260240161063a565b6118128161217a565b50565b3361181e610e71565b6001600160a01b031614610e6f5760405163118cdaa760e01b815233600482015260240161063a565b8484848989865f86116118705760405163baf301f760e01b81526004810187905260240161063a565b5f8311611893576040516343599f6960e11b81526004810184905260240161063a565b5f82116118b657604051638e57a1b360e01b81526004810183905260240161063a565b6001600160a01b0381166118e85760405163e4cfa94d60e01b81526001600160a01b038216600482015260240161063a565b84158015906118f657508315155b156119325742851115801561190a57508484105b156119325760405163dd96246f60e01b8152600481018690526024810185905260440161063a565b8915801561193e575088155b15611963576001545f908152600460205260409020805462ff00001916620100001790555b5050600180545f908152600460208190526040808320805460ff191685179055835483528083206003019e909e55825482528d8220019b909b5580548b528b8b20600201999099555050865488525050868620600901939093555082548452848420600801558154835283832060050180546001600160a01b0319163317905581548352929091200155565b610e6f612333565b6119ff612333565b6118128161237c565b5f825f03611a585760405162461bcd60e51b815260206004820152601c60248201527f5072696365206f66204e46542063616e206e6f74206265207a65726f00000000604482015260640161063a565b815f03611a9e5760405162461bcd60e51b81526020600482015260146024820152735f5042502063616e206e6f74206265207a65726f60601b604482015260640161063a565b5f612710611aac8486612b34565b611ab69190612b4b565b949350505050565b5f80805b5f84815260056020526040902054811015611c88575f84815260056020526040812060010182600a8110611af857611af8612b20565b01546001600160a01b031614611c80575f8481526004602090815260408083206002015460059092528220611b439190600b0184600a8110611b3c57611b3c612b20565b0154611a08565b5f805487825260056020526040822092935090916001600160a01b03909116906353f501199060010185600a8110611b7d57611b7d612b20565b015460405160e083901b6001600160e01b03191681526001600160a01b039091166004820152602401608060405180830381865afa158015611bc1573d5f803e3d5ffd5b505050506040513d601f19601f82011682018060405250810190611be59190612a78565b50505090505f8115611c2b575f878152600560205260408120611c28919060010186600a8110611c1757611c17612b20565b01546001600160a01b031685611c8f565b90505b5f611c368285612af5565b5f898152600560205260409020909150611c6f9060010186600a8110611c5e57611c5e612b20565b01546001600160a01b031682611ea3565b611c798487612ae2565b9550505050505b600101611ac2565b5092915050565b5f80808515801590611ca857506001600160a01b038516155b8015611cb2575083155b611cbc5784611cd7565b5f868152600460205260409020600501546001600160a01b03165b5f80546040516353f5011960e01b81526001600160a01b038085166004830152939450919283929116906353f5011990602401608060405180830381865afa158015611d25573d5f803e3d5ffd5b505050506040513d601f19601f82011682018060405250810190611d499190612a78565b509250925050815f03611d7d576001600160a01b0381165f908152600660205260408120549250829003611d7d576103e891505b5f8815801590611d8b575086155b611d955786611da7565b5f898152600460205260409020600201545b9050611db38184611a08565b9450611dbf8286611ea3565b509293505050505b9392505050565b5f8181526004602052604081206007015460035482916001600160a01b039081169116036105c0575f8054848252600460208190526040808420600301549051638c33e47f60e01b81529182015282916001600160a01b031690638c33e47f906024016040805180830381865afa158015611e4b573d5f803e3d5ffd5b505050506040513d601f19601f82011682018060405250810190611e6f9190612b6a565b5f878152600460205260409020600201549193509150611e8f9083611a08565b9250611e9b8184611ea3565b505092915050565b5f826001600160a01b0316826040515f6040518083038185875af1925050503d805f8114611eec576040519150601f19603f3d011682016040523d82523d5f602084013e611ef1565b606091505b5050905080611f345760405162461bcd60e51b815260206004820152600f60248201526e151c985b9cd9995c8819985a5b1959608a1b604482015260640161063a565b505050565b604051637921219560e11b81526001600160a01b038581166004808401919091528582166024840152604483018590526064830184905260a0608484015260a4830152630307830360e41b60c483015286169063f242432a9060e4015f604051808303815f87803b158015611fac575f80fd5b505af1158015611fbe573d5f803e3d5ffd5b505050505050505050565b306001600160a01b037f000000000000000000000000000000000000000000000000000000000000000016148061204f57507f00000000000000000000000000000000000000000000000000000000000000006001600160a01b03166120435f80516020612bbc833981519152546001600160a01b031690565b6001600160a01b031614155b15610e6f5760405163703e46dd60e11b815260040160405180910390fd5b611812611815565b816001600160a01b03166352d1902d6040518163ffffffff1660e01b8152600401602060405180830381865afa9250505080156120cf575060408051601f3d908101601f191682019092526120cc91810190612b8e565b60015b6120f757604051634c9c8ce360e01b81526001600160a01b038316600482015260240161063a565b5f80516020612bbc833981519152811461212757604051632a87526960e21b81526004810182905260240161063a565b611f348383612384565b306001600160a01b037f00000000000000000000000000000000000000000000000000000000000000001614610e6f5760405163703e46dd60e11b815260040160405180910390fd5b7f9016d09d72d40fdae2fd8ceac6b6234c7706214fd39c1cd1e609a0528c19930080546001600160a01b031981166001600160a01b03848116918217845560405192169182907f8be0079c531659141344cd1fd0a4f28419497f9722a3daafe3b4186f6b6457e0905f90a3505050565b5f82815260046020526040902060070180546001600160a01b0319166001600160a01b0383161790556122208133308787611f39565b50505050565b5f5b8251811015612220575f6001600160a01b031683828151811061224d5761224d612b20565b60200260200101516001600160a01b03161461232b5782818151811061227557612275612b20565b602002602001015160055f8681526020019081526020015f2060010182600a81106122a2576122a2612b20565b015f6101000a8154816001600160a01b0302191690836001600160a01b031602179055508181815181106122d8576122d8612b20565b602002602001015160055f8681526020019081526020015f20600b0182600a811061230557612305612b20565b01555f848152600560205260408120805460019290612325908490612ae2565b90915550505b600101612228565b7ff0c57e16840df040f15088dc2f81fe391c3923bec73e23a9662efc9c229c6a0054600160401b900460ff16610e6f57604051631afcd79f60e31b815260040160405180910390fd5b6117e0612333565b61238d826123d9565b6040516001600160a01b038316907fbc7cd75a20ee27fd9adebab32041f755214dbc6bffa90cc0225b39da2e5c2d3b905f90a28051156123d157611f34828261243c565b610e3f6124ae565b806001600160a01b03163b5f0361240e57604051634c9c8ce360e01b81526001600160a01b038216600482015260240161063a565b5f80516020612bbc83398151915280546001600160a01b0319166001600160a01b0392909216919091179055565b60605f80846001600160a01b0316846040516124589190612ba5565b5f60405180830381855af49150503d805f8114612490576040519150601f19603f3d011682016040523d82523d5f602084013e612495565b606091505b50915091506124a58583836124cd565b95945050505050565b3415610e6f5760405163b398979f60e01b815260040160405180910390fd5b6060826124e2576124dd82612529565b611dc7565b81511580156124f957506001600160a01b0384163b155b1561252257604051639996b31560e01b81526001600160a01b038516600482015260240161063a565b5080611dc7565b8051156125395780518082602001fd5b604051630a12f52160e11b815260040160405180910390fd5b5f60208284031215612562575f80fd5b81356001600160e01b031981168114611dc7575f80fd5b5f60208284031215612589575f80fd5b5035919050565b5f805f805f60a086880312156125a4575f80fd5b505083359560208501359550604085013594606081013594506080013592509050565b6001600160a01b0381168114611812575f80fd5b5f80604083850312156125ec575f80fd5b82356125f7816125c7565b91506020830135612607816125c7565b809150509250929050565b634e487b7160e01b5f52604160045260245ffd5b604051601f8201601f1916810167ffffffffffffffff8111828210171561264f5761264f612612565b604052919050565b5f82601f830112612666575f80fd5b813567ffffffffffffffff81111561268057612680612612565b612693601f8201601f1916602001612626565b8181528460208386010111156126a7575f80fd5b816020850160208301375f918101602001919091529392505050565b5f80604083850312156126d4575f80fd5b82356126df816125c7565b9150602083013567ffffffffffffffff8111156126fa575f80fd5b61270685828601612657565b9150509250929050565b5f60208284031215612720575f80fd5b8135611dc7816125c7565b602081525f82518060208401528060208501604085015e5f604082850101526040601f19601f83011684010191505092915050565b5f67ffffffffffffffff82111561277957612779612612565b5060051b60200190565b5f82601f830112612792575f80fd5b81356127a56127a082612760565b612626565b8082825260208201915060208360051b8601019250858311156127c6575f80fd5b602085015b838110156127e35780358352602092830192016127cb565b5095945050505050565b5f805f805f60a08688031215612801575f80fd5b853561280c816125c7565b9450602086013561281c816125c7565b9350604086013567ffffffffffffffff811115612837575f80fd5b61284388828901612783565b935050606086013567ffffffffffffffff81111561285f575f80fd5b61286b88828901612783565b925050608086013567ffffffffffffffff811115612887575f80fd5b61289388828901612657565b9150509295509295909350565b5f805f805f805f80610100898b0312156128b8575f80fd5b883597506020890135965060408901359550606089013594506080890135935060a08901356128e6816125c7565b925060c0890135915060e08901356128fd816125c7565b809150509295985092959890939650565b5f82601f83011261291d575f80fd5b813561292b6127a082612760565b8082825260208201915060208360051b86010192508583111561294c575f80fd5b602085015b838110156127e3578035612964816125c7565b835260209283019201612951565b5f805f805f805f805f6101208a8c03121561298b575f80fd5b8935985060208a0135975060408a0135965060608a0135955060808a0135945060a08a0135935060c08a01356129c0816125c7565b925060e08a013567ffffffffffffffff8111156129db575f80fd5b6129e78c828d0161290e565b9250506101008a013567ffffffffffffffff811115612a04575f80fd5b612a108c828d01612783565b9150509295985092959850929598565b5f805f805f60a08688031215612a34575f80fd5b8535612a3f816125c7565b94506020860135612a4f816125c7565b93506040860135925060608601359150608086013567ffffffffffffffff811115612887575f80fd5b5f805f8060808587031215612a8b575f80fd5b84518015158114612a9a575f80fd5b602086015160408701519195509350612ab2816125c7565b6060860151909250612ac3816125c7565b939692955090935050565b634e487b7160e01b5f52601160045260245ffd5b808201808211156105c0576105c0612ace565b818103818111156105c0576105c0612ace565b5f60018201612b1957612b19612ace565b5060010190565b634e487b7160e01b5f52603260045260245ffd5b80820281158282048414176105c0576105c0612ace565b5f82612b6557634e487b7160e01b5f52601260045260245ffd5b500490565b5f8060408385031215612b7b575f80fd5b82516020840151909250612607816125c7565b5f60208284031215612b9e575f80fd5b5051919050565b5f82518060208501845e5f92019182525091905056fe360894a13ba1a3210667c828492db98dca3e2076cc3735a920a3ca505d382bbca2646970667358221220ea6af4143d66964348ac72c657033d9a8794d04baea16149de75acf8b5f5c6b464736f6c634300081a0033",
					"opcodes": "PUSH1 0xA0 PUSH1 0x40 MSTORE ADDRESS PUSH1 0x80 MSTORE CALLVALUE DUP1 ISZERO PUSH2 0x13 JUMPI PUSH0 DUP1 REVERT JUMPDEST POP PUSH2 0x1C PUSH2 0x21 JUMP JUMPDEST PUSH2 0xD3 JUMP JUMPDEST PUSH32 0xF0C57E16840DF040F15088DC2F81FE391C3923BEC73E23A9662EFC9C229C6A00 DUP1 SLOAD PUSH9 0x10000000000000000 SWAP1 DIV PUSH1 0xFF AND ISZERO PUSH2 0x71 JUMPI PUSH1 0x40 MLOAD PUSH4 0xF92EE8A9 PUSH1 0xE0 SHL DUP2 MSTORE PUSH1 0x4 ADD PUSH1 0x40 MLOAD DUP1 SWAP2 SUB SWAP1 REVERT JUMPDEST DUP1 SLOAD PUSH1 0x1 PUSH1 0x1 PUSH1 0x40 SHL SUB SWAP1 DUP2 AND EQ PUSH2 0xD0 JUMPI DUP1 SLOAD PUSH1 0x1 PUSH1 0x1 PUSH1 0x40 SHL SUB NOT AND PUSH1 0x1 PUSH1 0x1 PUSH1 0x40 SHL SUB SWAP1 DUP2 OR DUP3 SSTORE PUSH1 0x40 MLOAD SWAP1 DUP2 MSTORE PUSH32 0xC7F505B2F371AE2175EE4913F4499E1F2633A7B5936321EED1CDAEB6115181D2 SWAP1 PUSH1 0x20 ADD PUSH1 0x40 MLOAD DUP1 SWAP2 SUB SWAP1 LOG1 JUMPDEST POP JUMP JUMPDEST PUSH1 0x80 MLOAD PUSH2 0x2C11 PUSH2 0xF9 PUSH0 CODECOPY PUSH0 DUP2 DUP2 PUSH2 0x1FD4 ADD MSTORE DUP2 DUP2 PUSH2 0x1FFD ADD MSTORE PUSH2 0x213C ADD MSTORE PUSH2 0x2C11 PUSH0 RETURN INVALID PUSH1 0x80 PUSH1 0x40 MSTORE PUSH1 0x4 CALLDATASIZE LT PUSH2 0x161 JUMPI PUSH0 CALLDATALOAD PUSH1 0xE0 SHR DUP1 PUSH4 0x831490F9 GT PUSH2 0xCD JUMPI DUP1 PUSH4 0xBC197C81 GT PUSH2 0x87 JUMPI DUP1 PUSH4 0xE30EC386 GT PUSH2 0x62 JUMPI DUP1 PUSH4 0xE30EC386 EQ PUSH2 0x508 JUMPI DUP1 PUSH4 0xEAFA4039 EQ PUSH2 0x527 JUMPI DUP1 PUSH4 0xF23A6E61 EQ PUSH2 0x546 JUMPI DUP1 PUSH4 0xF2FDE38B EQ PUSH2 0x571 JUMPI PUSH0 DUP1 REVERT JUMPDEST DUP1 PUSH4 0xBC197C81 EQ PUSH2 0x493 JUMPI DUP1 PUSH4 0xBEA7D6E9 EQ PUSH2 0x4D7 JUMPI DUP1 PUSH4 0xD2F6F67D EQ PUSH2 0x4EA JUMPI PUSH0 DUP1 REVERT JUMPDEST DUP1 PUSH4 0x831490F9 EQ PUSH2 0x300 JUMPI DUP1 PUSH4 0x84A184DE EQ PUSH2 0x315 JUMPI DUP1 PUSH4 0x8DA5CB5B EQ PUSH2 0x40E JUMPI DUP1 PUSH4 0x9E898E58 EQ PUSH2 0x422 JUMPI DUP1 PUSH4 0xAD3CB1CC EQ PUSH2 0x437 JUMPI DUP1 PUSH4 0xB9A2DE3A EQ PUSH2 0x474 JUMPI PUSH0 DUP1 REVERT JUMPDEST DUP1 PUSH4 0x4C205BC9 GT PUSH2 0x11E JUMPI DUP1 PUSH4 0x4C205BC9 EQ PUSH2 0x250 JUMPI DUP1 PUSH4 0x4F1EF286 EQ PUSH2 0x263 JUMPI DUP1 PUSH4 0x52D1902D EQ PUSH2 0x276 JUMPI DUP1 PUSH4 0x715018A6 EQ PUSH2 0x28A JUMPI DUP1 PUSH4 0x7CFD3E18 EQ PUSH2 0x29E JUMPI DUP1 PUSH4 0x824563F6 EQ PUSH2 0x2C9 JUMPI PUSH0 DUP1 REVERT JUMPDEST DUP1 PUSH4 0x1FFC9A7 EQ PUSH2 0x165 JUMPI DUP1 PUSH4 0x3C32AA9 EQ PUSH2 0x199 JUMPI DUP1 PUSH4 0x20EDDA38 EQ PUSH2 0x1BA JUMPI DUP1 PUSH4 0x2C0BC695 EQ PUSH2 0x1D9 JUMPI DUP1 PUSH4 0x3D6C0507 EQ PUSH2 0x1F8 JUMPI DUP1 PUSH4 0x485CC955 EQ PUSH2 0x231 JUMPI JUMPDEST PUSH0 DUP1 REVERT JUMPDEST CALLVALUE DUP1 ISZERO PUSH2 0x170 JUMPI PUSH0 DUP1 REVERT JUMPDEST POP PUSH2 0x184 PUSH2 0x17F CALLDATASIZE PUSH1 0x4 PUSH2 0x2552 JUMP JUMPDEST PUSH2 0x590 JUMP JUMPDEST PUSH1 0x40 MLOAD SWAP1 ISZERO ISZERO DUP2 MSTORE PUSH1 0x20 ADD JUMPDEST PUSH1 0x40 MLOAD DUP1 SWAP2 SUB SWAP1 RETURN JUMPDEST CALLVALUE DUP1 ISZERO PUSH2 0x1A4 JUMPI PUSH0 DUP1 REVERT JUMPDEST POP PUSH2 0x1B8 PUSH2 0x1B3 CALLDATASIZE PUSH1 0x4 PUSH2 0x2579 JUMP JUMPDEST PUSH2 0x5C6 JUMP JUMPDEST STOP JUMPDEST CALLVALUE DUP1 ISZERO PUSH2 0x1C5 JUMPI PUSH0 DUP1 REVERT JUMPDEST POP PUSH2 0x1B8 PUSH2 0x1D4 CALLDATASIZE PUSH1 0x4 PUSH2 0x2579 JUMP JUMPDEST PUSH2 0x691 JUMP JUMPDEST CALLVALUE DUP1 ISZERO PUSH2 0x1E4 JUMPI PUSH0 DUP1 REVERT JUMPDEST POP PUSH2 0x1B8 PUSH2 0x1F3 CALLDATASIZE PUSH1 0x4 PUSH2 0x2590 JUMP JUMPDEST PUSH2 0x730 JUMP JUMPDEST CALLVALUE DUP1 ISZERO PUSH2 0x203 JUMPI PUSH0 DUP1 REVERT JUMPDEST POP PUSH2 0x223 PUSH2 0x212 CALLDATASIZE PUSH1 0x4 PUSH2 0x2579 JUMP JUMPDEST PUSH1 0x5 PUSH1 0x20 MSTORE PUSH0 SWAP1 DUP2 MSTORE PUSH1 0x40 SWAP1 KECCAK256 SLOAD DUP2 JUMP JUMPDEST PUSH1 0x40 MLOAD SWAP1 DUP2 MSTORE PUSH1 0x20 ADD PUSH2 0x190 JUMP JUMPDEST CALLVALUE DUP1 ISZERO PUSH2 0x23C JUMPI PUSH0 DUP1 REVERT JUMPDEST POP PUSH2 0x1B8 PUSH2 0x24B CALLDATASIZE PUSH1 0x4 PUSH2 0x25DB JUMP JUMPDEST PUSH2 0x889 JUMP JUMPDEST PUSH2 0x1B8 PUSH2 0x25E CALLDATASIZE PUSH1 0x4 PUSH2 0x2579 JUMP JUMPDEST PUSH2 0x9D7 JUMP JUMPDEST PUSH2 0x1B8 PUSH2 0x271 CALLDATASIZE PUSH1 0x4 PUSH2 0x26C3 JUMP JUMPDEST PUSH2 0xE24 JUMP JUMPDEST CALLVALUE DUP1 ISZERO PUSH2 0x281 JUMPI PUSH0 DUP1 REVERT JUMPDEST POP PUSH2 0x223 PUSH2 0xE43 JUMP JUMPDEST CALLVALUE DUP1 ISZERO PUSH2 0x295 JUMPI PUSH0 DUP1 REVERT JUMPDEST POP PUSH2 0x1B8 PUSH2 0xE5E JUMP JUMPDEST CALLVALUE DUP1 ISZERO PUSH2 0x2A9 JUMPI PUSH0 DUP1 REVERT JUMPDEST POP PUSH2 0x223 PUSH2 0x2B8 CALLDATASIZE PUSH1 0x4 PUSH2 0x2710 JUMP JUMPDEST PUSH1 0x6 PUSH1 0x20 MSTORE PUSH0 SWAP1 DUP2 MSTORE PUSH1 0x40 SWAP1 KECCAK256 SLOAD DUP2 JUMP JUMPDEST CALLVALUE DUP1 ISZERO PUSH2 0x2D4 JUMPI PUSH0 DUP1 REVERT JUMPDEST POP PUSH1 0x3 SLOAD PUSH2 0x2E8 SWAP1 PUSH1 0x1 PUSH1 0x1 PUSH1 0xA0 SHL SUB AND DUP2 JUMP JUMPDEST PUSH1 0x40 MLOAD PUSH1 0x1 PUSH1 0x1 PUSH1 0xA0 SHL SUB SWAP1 SWAP2 AND DUP2 MSTORE PUSH1 0x20 ADD PUSH2 0x190 JUMP JUMPDEST CALLVALUE DUP1 ISZERO PUSH2 0x30B JUMPI PUSH0 DUP1 REVERT JUMPDEST POP PUSH2 0x223 PUSH1 0x2 SLOAD DUP2 JUMP JUMPDEST CALLVALUE DUP1 ISZERO PUSH2 0x320 JUMPI PUSH0 DUP1 REVERT JUMPDEST POP PUSH2 0x39E PUSH2 0x32F CALLDATASIZE PUSH1 0x4 PUSH2 0x2579 JUMP JUMPDEST PUSH1 0x4 PUSH1 0x20 DUP2 SWAP1 MSTORE PUSH0 SWAP2 DUP3 MSTORE PUSH1 0x40 SWAP1 SWAP2 KECCAK256 DUP1 SLOAD PUSH1 0x1 DUP3 ADD SLOAD PUSH1 0x2 DUP4 ADD SLOAD PUSH1 0x3 DUP5 ADD SLOAD SWAP5 DUP5 ADD SLOAD PUSH1 0x5 DUP6 ADD SLOAD PUSH1 0x6 DUP7 ADD SLOAD PUSH1 0x7 DUP8 ADD SLOAD PUSH1 0x8 DUP9 ADD SLOAD PUSH1 0x9 SWAP1 SWAP9 ADD SLOAD PUSH1 0xFF DUP1 DUP10 AND SWAP11 PUSH2 0x100 DUP11 DIV DUP3 AND SWAP11 PUSH3 0x10000 SWAP1 SWAP11 DIV SWAP1 SWAP2 AND SWAP9 SWAP1 SWAP6 SWAP5 PUSH1 0x1 PUSH1 0x1 PUSH1 0xA0 SHL SUB SWAP1 DUP2 AND SWAP5 DUP2 AND SWAP4 AND SWAP2 DUP13 JUMP JUMPDEST PUSH1 0x40 DUP1 MLOAD SWAP13 ISZERO ISZERO DUP14 MSTORE SWAP11 ISZERO ISZERO PUSH1 0x20 DUP14 ADD MSTORE SWAP9 ISZERO ISZERO SWAP10 DUP12 ADD SWAP10 SWAP1 SWAP10 MSTORE PUSH1 0x60 DUP11 ADD SWAP7 SWAP1 SWAP7 MSTORE PUSH1 0x80 DUP10 ADD SWAP5 SWAP1 SWAP5 MSTORE PUSH1 0xA0 DUP9 ADD SWAP3 SWAP1 SWAP3 MSTORE PUSH1 0xC0 DUP8 ADD MSTORE PUSH1 0x1 PUSH1 0x1 PUSH1 0xA0 SHL SUB SWAP1 DUP2 AND PUSH1 0xE0 DUP8 ADD MSTORE SWAP1 DUP2 AND PUSH2 0x100 DUP7 ADD MSTORE AND PUSH2 0x120 DUP5 ADD MSTORE PUSH2 0x140 DUP4 ADD SWAP2 SWAP1 SWAP2 MSTORE PUSH2 0x160 DUP3 ADD MSTORE PUSH2 0x180 ADD PUSH2 0x190 JUMP JUMPDEST CALLVALUE DUP1 ISZERO PUSH2 0x419 JUMPI PUSH0 DUP1 REVERT JUMPDEST POP PUSH2 0x2E8 PUSH2 0xE71 JUMP JUMPDEST CALLVALUE DUP1 ISZERO PUSH2 0x42D JUMPI PUSH0 DUP1 REVERT JUMPDEST POP PUSH2 0x223 PUSH1 0x1 SLOAD DUP2 JUMP JUMPDEST CALLVALUE DUP1 ISZERO PUSH2 0x442 JUMPI PUSH0 DUP1 REVERT JUMPDEST POP PUSH2 0x467 PUSH1 0x40 MLOAD DUP1 PUSH1 0x40 ADD PUSH1 0x40 MSTORE DUP1 PUSH1 0x5 DUP2 MSTORE PUSH1 0x20 ADD PUSH5 0x352E302E3 PUSH1 0xDC SHL DUP2 MSTORE POP DUP2 JUMP JUMPDEST PUSH1 0x40 MLOAD PUSH2 0x190 SWAP2 SWAP1 PUSH2 0x272B JUMP JUMPDEST CALLVALUE DUP1 ISZERO PUSH2 0x47F JUMPI PUSH0 DUP1 REVERT JUMPDEST POP PUSH2 0x1B8 PUSH2 0x48E CALLDATASIZE PUSH1 0x4 PUSH2 0x2579 JUMP JUMPDEST PUSH2 0xE9F JUMP JUMPDEST CALLVALUE DUP1 ISZERO PUSH2 0x49E JUMPI PUSH0 DUP1 REVERT JUMPDEST POP PUSH2 0x4BE PUSH2 0x4AD CALLDATASIZE PUSH1 0x4 PUSH2 0x27ED JUMP JUMPDEST PUSH4 0xBC197C81 PUSH1 0xE0 SHL SWAP6 SWAP5 POP POP POP POP POP JUMP JUMPDEST PUSH1 0x40 MLOAD PUSH1 0x1 PUSH1 0x1 PUSH1 0xE0 SHL SUB NOT SWAP1 SWAP2 AND DUP2 MSTORE PUSH1 0x20 ADD PUSH2 0x190 JUMP JUMPDEST PUSH2 0x1B8 PUSH2 0x4E5 CALLDATASIZE PUSH1 0x4 PUSH2 0x2579 JUMP JUMPDEST PUSH2 0x10DF JUMP JUMPDEST CALLVALUE DUP1 ISZERO PUSH2 0x4F5 JUMPI PUSH0 DUP1 REVERT JUMPDEST POP PUSH0 SLOAD PUSH2 0x2E8 SWAP1 PUSH1 0x1 PUSH1 0x1 PUSH1 0xA0 SHL SUB AND DUP2 JUMP JUMPDEST CALLVALUE DUP1 ISZERO PUSH2 0x513 JUMPI PUSH0 DUP1 REVERT JUMPDEST POP PUSH2 0x1B8 PUSH2 0x522 CALLDATASIZE PUSH1 0x4 PUSH2 0x28A0 JUMP JUMPDEST PUSH2 0x13A6 JUMP JUMPDEST CALLVALUE DUP1 ISZERO PUSH2 0x532 JUMPI PUSH0 DUP1 REVERT JUMPDEST POP PUSH2 0x1B8 PUSH2 0x541 CALLDATASIZE PUSH1 0x4 PUSH2 0x2972 JUMP JUMPDEST PUSH2 0x15A5 JUMP JUMPDEST CALLVALUE DUP1 ISZERO PUSH2 0x551 JUMPI PUSH0 DUP1 REVERT JUMPDEST POP PUSH2 0x4BE PUSH2 0x560 CALLDATASIZE PUSH1 0x4 PUSH2 0x2A20 JUMP JUMPDEST PUSH4 0xF23A6E61 PUSH1 0xE0 SHL SWAP6 SWAP5 POP POP POP POP POP JUMP JUMPDEST CALLVALUE DUP1 ISZERO PUSH2 0x57C JUMPI PUSH0 DUP1 REVERT JUMPDEST POP PUSH2 0x1B8 PUSH2 0x58B CALLDATASIZE PUSH1 0x4 PUSH2 0x2710 JUMP JUMPDEST PUSH2 0x17D8 JUMP JUMPDEST PUSH0 PUSH1 0x1 PUSH1 0x1 PUSH1 0xE0 SHL SUB NOT DUP3 AND PUSH4 0x2711897 PUSH1 0xE5 SHL EQ DUP1 PUSH2 0x5C0 JUMPI POP PUSH4 0x1FFC9A7 PUSH1 0xE0 SHL PUSH1 0x1 PUSH1 0x1 PUSH1 0xE0 SHL SUB NOT DUP4 AND EQ JUMPDEST SWAP3 SWAP2 POP POP JUMP JUMPDEST PUSH1 0x64 DUP2 LT ISZERO DUP1 ISZERO PUSH2 0x5D9 JUMPI POP PUSH2 0x3E8 DUP2 GT ISZERO JUMPDEST PUSH2 0x643 JUMPI PUSH1 0x40 MLOAD PUSH3 0x461BCD PUSH1 0xE5 SHL DUP2 MSTORE PUSH1 0x20 PUSH1 0x4 DUP3 ADD MSTORE PUSH1 0x30 PUSH1 0x24 DUP3 ADD MSTORE PUSH32 0x5F66697363616C53706F6E736F7250657263656E74616765206D757374206265 PUSH1 0x44 DUP3 ADD MSTORE PUSH16 0x206265747765656E203120746F20313 PUSH1 0x84 SHL PUSH1 0x64 DUP3 ADD MSTORE PUSH1 0x84 ADD JUMPDEST PUSH1 0x40 MLOAD DUP1 SWAP2 SUB SWAP1 REVERT JUMPDEST CALLER PUSH0 DUP2 DUP2 MSTORE PUSH1 0x6 PUSH1 0x20 SWAP1 DUP2 MSTORE PUSH1 0x40 SWAP2 DUP3 SWAP1 KECCAK256 DUP5 SWAP1 SSTORE DUP2 MLOAD SWAP3 DUP4 MSTORE DUP3 ADD DUP4 SWAP1 MSTORE PUSH32 0xBEE82E0CD48A0DFD192B0980A9A2C7D9B007AAD1B38C23A235B4121B554D9C8A SWAP2 ADD JUMPDEST PUSH1 0x40 MLOAD DUP1 SWAP2 SUB SWAP1 LOG1 POP JUMP JUMPDEST PUSH2 0x699 PUSH2 0x1815 JUMP JUMPDEST PUSH0 DUP2 GT DUP1 ISZERO PUSH2 0x6AA JUMPI POP PUSH2 0xBB8 DUP2 GT ISZERO JUMPDEST PUSH2 0x6F6 JUMPI PUSH1 0x40 MLOAD PUSH3 0x461BCD PUSH1 0xE5 SHL DUP2 MSTORE PUSH1 0x20 PUSH1 0x4 DUP3 ADD DUP2 SWAP1 MSTORE PUSH1 0x24 DUP3 ADD MSTORE PUSH32 0x6665652025206D757374206265747765656E20696E20312520746F2033302520 PUSH1 0x44 DUP3 ADD MSTORE PUSH1 0x64 ADD PUSH2 0x63A JUMP JUMPDEST PUSH1 0x2 DUP2 SWAP1 SSTORE PUSH1 0x40 DUP1 MLOAD DUP3 DUP2 MSTORE CALLER PUSH1 0x20 DUP3 ADD MSTORE PUSH32 0x8B52E67D733E4BFFDB3A2DF53E3B88E2F31125FC8A8442B742602F8F7D0ED3E9 SWAP2 ADD PUSH2 0x686 JUMP JUMPDEST DUP5 PUSH0 DUP2 GT PUSH2 0x754 JUMPI PUSH1 0x40 MLOAD PUSH4 0xC860174B PUSH1 0xE0 SHL DUP2 MSTORE PUSH1 0x4 DUP2 ADD DUP3 SWAP1 MSTORE PUSH1 0x24 ADD PUSH2 0x63A JUMP JUMPDEST PUSH0 DUP2 DUP2 MSTORE PUSH1 0x4 PUSH1 0x20 MSTORE PUSH1 0x40 SWAP1 KECCAK256 SLOAD PUSH1 0xFF AND PUSH2 0x79A JUMPI PUSH0 DUP2 DUP2 MSTORE PUSH1 0x4 PUSH1 0x20 DUP2 SWAP1 MSTORE PUSH1 0x40 SWAP2 DUP3 SWAP1 KECCAK256 SLOAD SWAP2 MLOAD PUSH4 0xE6C1C637 PUSH1 0xE0 SHL DUP2 MSTORE PUSH1 0xFF SWAP1 SWAP3 AND ISZERO ISZERO SWAP1 DUP3 ADD MSTORE PUSH1 0x24 ADD PUSH2 0x63A JUMP JUMPDEST PUSH0 DUP2 DUP2 MSTORE PUSH1 0x4 PUSH1 0x20 MSTORE PUSH1 0x40 SWAP1 KECCAK256 SLOAD PUSH2 0x100 SWAP1 DIV PUSH1 0xFF AND ISZERO PUSH2 0x7E9 JUMPI PUSH0 DUP2 DUP2 MSTORE PUSH1 0x4 PUSH1 0x20 DUP2 SWAP1 MSTORE PUSH1 0x40 SWAP2 DUP3 SWAP1 KECCAK256 SLOAD SWAP2 MLOAD PUSH3 0x246805 PUSH1 0xE9 SHL DUP2 MSTORE PUSH2 0x100 SWAP1 SWAP3 DIV PUSH1 0xFF AND ISZERO ISZERO SWAP1 DUP3 ADD MSTORE PUSH1 0x24 ADD PUSH2 0x63A JUMP JUMPDEST PUSH0 DUP7 DUP2 MSTORE PUSH1 0x4 PUSH1 0x20 DUP2 SWAP1 MSTORE PUSH1 0x40 SWAP1 SWAP2 KECCAK256 PUSH1 0x3 DUP2 ADD SLOAD SWAP2 DUP2 ADD SLOAD PUSH1 0x7 SWAP1 SWAP2 ADD SLOAD PUSH2 0x823 SWAP3 SWAP2 SWAP1 DUP9 SWAP1 DUP9 SWAP1 DUP9 SWAP1 PUSH1 0x1 PUSH1 0x1 PUSH1 0xA0 SHL SUB AND DUP9 PUSH2 0x1847 JUMP JUMPDEST PUSH0 DUP7 DUP2 MSTORE PUSH1 0x4 PUSH1 0x20 SWAP1 DUP2 MSTORE PUSH1 0x40 SWAP2 DUP3 SWAP1 KECCAK256 PUSH1 0x2 DUP2 ADD SLOAD PUSH1 0x9 DUP3 ADD SLOAD PUSH1 0x8 SWAP1 SWAP3 ADD SLOAD DUP5 MLOAD SWAP2 DUP3 MSTORE SWAP3 DUP2 ADD SWAP2 SWAP1 SWAP2 MSTORE SWAP2 DUP3 ADD MSTORE PUSH32 0xD3F4E53A5792E81767B11408A290F82CF83FDE26090D65773F2C0A9AEB63ADFB SWAP1 PUSH1 0x60 ADD PUSH1 0x40 MLOAD DUP1 SWAP2 SUB SWAP1 LOG1 POP POP POP POP POP POP JUMP JUMPDEST PUSH32 0xF0C57E16840DF040F15088DC2F81FE391C3923BEC73E23A9662EFC9C229C6A00 DUP1 SLOAD PUSH1 0x1 PUSH1 0x40 SHL DUP2 DIV PUSH1 0xFF AND ISZERO SWAP1 PUSH8 0xFFFFFFFFFFFFFFFF AND PUSH0 DUP2 ISZERO DUP1 ISZERO PUSH2 0x8CE JUMPI POP DUP3 JUMPDEST SWAP1 POP PUSH0 DUP3 PUSH8 0xFFFFFFFFFFFFFFFF AND PUSH1 0x1 EQ DUP1 ISZERO PUSH2 0x8EA JUMPI POP ADDRESS EXTCODESIZE ISZERO JUMPDEST SWAP1 POP DUP2 ISZERO DUP1 ISZERO PUSH2 0x8F8 JUMPI POP DUP1 ISZERO JUMPDEST ISZERO PUSH2 0x916 JUMPI PUSH1 0x40 MLOAD PUSH4 0xF92EE8A9 PUSH1 0xE0 SHL DUP2 MSTORE PUSH1 0x4 ADD PUSH1 0x40 MLOAD DUP1 SWAP2 SUB SWAP1 REVERT JUMPDEST DUP5 SLOAD PUSH8 0xFFFFFFFFFFFFFFFF NOT AND PUSH1 0x1 OR DUP6 SSTORE DUP4 ISZERO PUSH2 0x940 JUMPI DUP5 SLOAD PUSH1 0xFF PUSH1 0x40 SHL NOT AND PUSH1 0x1 PUSH1 0x40 SHL OR DUP6 SSTORE JUMPDEST PUSH1 0xFA PUSH1 0x2 SSTORE PUSH1 0x3 DUP1 SLOAD PUSH1 0x1 PUSH1 0x1 PUSH1 0xA0 SHL SUB DUP10 AND PUSH1 0x1 PUSH1 0x1 PUSH1 0xA0 SHL SUB NOT SWAP2 DUP3 AND DUP2 OR SWAP1 SWAP3 SSTORE PUSH0 DUP1 SLOAD SWAP1 SWAP2 AND SWAP1 SWAP2 OR SWAP1 SSTORE PUSH2 0x977 PUSH2 0x19EF JUMP JUMPDEST PUSH2 0x980 DUP7 PUSH2 0x19F7 JUMP JUMPDEST PUSH2 0x988 PUSH2 0x19EF JUMP JUMPDEST DUP4 ISZERO PUSH2 0x9CE JUMPI DUP5 SLOAD PUSH1 0xFF PUSH1 0x40 SHL NOT AND DUP6 SSTORE PUSH1 0x40 MLOAD PUSH1 0x1 DUP2 MSTORE PUSH32 0xC7F505B2F371AE2175EE4913F4499E1F2633A7B5936321EED1CDAEB6115181D2 SWAP1 PUSH1 0x20 ADD PUSH1 0x40 MLOAD DUP1 SWAP2 SUB SWAP1 LOG1 JUMPDEST POP POP POP POP POP POP POP JUMP JUMPDEST DUP1 PUSH0 DUP2 GT PUSH2 0x9FB JUMPI PUSH1 0x40 MLOAD PUSH4 0xC860174B PUSH1 0xE0 SHL DUP2 MSTORE PUSH1 0x4 DUP2 ADD DUP3 SWAP1 MSTORE PUSH1 0x24 ADD PUSH2 0x63A JUMP JUMPDEST PUSH0 DUP2 DUP2 MSTORE PUSH1 0x4 PUSH1 0x20 MSTORE PUSH1 0x40 SWAP1 KECCAK256 SLOAD PUSH1 0xFF AND PUSH2 0xA41 JUMPI PUSH0 DUP2 DUP2 MSTORE PUSH1 0x4 PUSH1 0x20 DUP2 SWAP1 MSTORE PUSH1 0x40 SWAP2 DUP3 SWAP1 KECCAK256 SLOAD SWAP2 MLOAD PUSH4 0xE6C1C637 PUSH1 0xE0 SHL DUP2 MSTORE PUSH1 0xFF SWAP1 SWAP3 AND ISZERO ISZERO SWAP1 DUP3 ADD MSTORE PUSH1 0x24 ADD PUSH2 0x63A JUMP JUMPDEST PUSH0 DUP2 DUP2 MSTORE PUSH1 0x4 PUSH1 0x20 MSTORE PUSH1 0x40 SWAP1 KECCAK256 SLOAD PUSH2 0x100 SWAP1 DIV PUSH1 0xFF AND ISZERO PUSH2 0xA90 JUMPI PUSH0 DUP2 DUP2 MSTORE PUSH1 0x4 PUSH1 0x20 DUP2 SWAP1 MSTORE PUSH1 0x40 SWAP2 DUP3 SWAP1 KECCAK256 SLOAD SWAP2 MLOAD PUSH3 0x246805 PUSH1 0xE9 SHL DUP2 MSTORE PUSH2 0x100 SWAP1 SWAP3 DIV PUSH1 0xFF AND ISZERO ISZERO SWAP1 DUP3 ADD MSTORE PUSH1 0x24 ADD PUSH2 0x63A JUMP JUMPDEST PUSH0 DUP3 DUP2 MSTORE PUSH1 0x4 PUSH1 0x20 MSTORE PUSH1 0x40 SWAP1 KECCAK256 PUSH1 0x2 ADD SLOAD CALLVALUE EQ PUSH2 0xAC2 JUMPI PUSH1 0x40 MLOAD PUSH4 0x85D649F7 PUSH1 0xE0 SHL DUP2 MSTORE CALLVALUE PUSH1 0x4 DUP3 ADD MSTORE PUSH1 0x24 ADD PUSH2 0x63A JUMP JUMPDEST PUSH0 DUP3 DUP2 MSTORE PUSH1 0x4 PUSH1 0x20 MSTORE PUSH1 0x40 SWAP1 KECCAK256 SLOAD PUSH3 0x10000 SWAP1 DIV PUSH1 0xFF AND PUSH2 0xB13 JUMPI PUSH0 DUP3 DUP2 MSTORE PUSH1 0x4 PUSH1 0x20 DUP2 SWAP1 MSTORE PUSH1 0x40 SWAP2 DUP3 SWAP1 KECCAK256 SLOAD SWAP2 MLOAD PUSH4 0x9CF9F1F7 PUSH1 0xE0 SHL DUP2 MSTORE PUSH3 0x10000 SWAP1 SWAP3 DIV PUSH1 0xFF AND ISZERO ISZERO SWAP1 DUP3 ADD MSTORE PUSH1 0x24 ADD PUSH2 0x63A JUMP JUMPDEST PUSH0 DUP3 DUP2 MSTORE PUSH1 0x4 PUSH1 0x20 MSTORE PUSH1 0x40 SWAP1 KECCAK256 PUSH1 0x5 ADD SLOAD PUSH1 0x1 PUSH1 0x1 PUSH1 0xA0 SHL SUB AND CALLER SUB PUSH2 0xB6B JUMPI PUSH0 DUP3 DUP2 MSTORE PUSH1 0x4 PUSH1 0x20 DUP2 SWAP1 MSTORE PUSH1 0x40 SWAP2 DUP3 SWAP1 KECCAK256 PUSH1 0x5 ADD SLOAD SWAP2 MLOAD PUSH4 0x4A83C1B PUSH1 0xE5 SHL DUP2 MSTORE PUSH1 0x1 PUSH1 0x1 PUSH1 0xA0 SHL SUB SWAP1 SWAP3 AND SWAP1 DUP3 ADD MSTORE PUSH1 0x24 ADD PUSH2 0x63A JUMP JUMPDEST PUSH0 DUP3 DUP2 MSTORE PUSH1 0x4 PUSH1 0x20 MSTORE PUSH1 0x40 DUP2 KECCAK256 PUSH1 0x6 DUP2 ADD DUP1 SLOAD PUSH1 0x1 PUSH1 0x1 PUSH1 0xA0 SHL SUB NOT AND CALLER OR SWAP1 SSTORE PUSH1 0x1 ADD SLOAD ISZERO PUSH2 0xBBE JUMPI PUSH0 DUP4 DUP2 MSTORE PUSH1 0x4 PUSH1 0x20 MSTORE PUSH1 0x40 SWAP1 KECCAK256 PUSH1 0x2 DUP2 ADD SLOAD PUSH1 0x1 SWAP1 SWAP2 ADD SLOAD PUSH2 0xBB7 SWAP2 SWAP1 PUSH2 0x1A08 JUMP JUMPDEST SWAP1 POP PUSH2 0xBE1 JUMP JUMPDEST PUSH2 0xBDE PUSH1 0x4 PUSH0 DUP6 DUP2 MSTORE PUSH1 0x20 ADD SWAP1 DUP2 MSTORE PUSH1 0x20 ADD PUSH0 KECCAK256 PUSH1 0x2 ADD SLOAD PUSH1 0x2 SLOAD PUSH2 0x1A08 JUMP JUMPDEST SWAP1 POP JUMPDEST PUSH0 DUP4 DUP2 MSTORE PUSH1 0x5 PUSH1 0x20 MSTORE PUSH1 0x40 DUP2 KECCAK256 SLOAD ISZERO PUSH2 0xC00 JUMPI PUSH2 0xBFD DUP5 PUSH2 0x1ABE JUMP JUMPDEST SWAP1 POP JUMPDEST PUSH0 DUP1 SLOAD DUP6 DUP3 MSTORE PUSH1 0x4 PUSH1 0x20 DUP2 SWAP1 MSTORE PUSH1 0x40 DUP1 DUP5 KECCAK256 PUSH1 0x5 ADD SLOAD SWAP1 MLOAD PUSH4 0x53F50119 PUSH1 0xE0 SHL DUP2 MSTORE PUSH1 0x1 PUSH1 0x1 PUSH1 0xA0 SHL SUB SWAP2 DUP3 AND SWAP3 DUP2 ADD SWAP3 SWAP1 SWAP3 MSTORE SWAP1 SWAP2 AND SWAP1 PUSH4 0x53F50119 SWAP1 PUSH1 0x24 ADD PUSH1 0x80 PUSH1 0x40 MLOAD DUP1 DUP4 SUB DUP2 DUP7 GAS STATICCALL ISZERO DUP1 ISZERO PUSH2 0xC5C JUMPI RETURNDATASIZE PUSH0 DUP1 RETURNDATACOPY RETURNDATASIZE PUSH0 REVERT JUMPDEST POP POP POP POP PUSH1 0x40 MLOAD RETURNDATASIZE PUSH1 0x1F NOT PUSH1 0x1F DUP3 ADD AND DUP3 ADD DUP1 PUSH1 0x40 MSTORE POP DUP2 ADD SWAP1 PUSH2 0xC80 SWAP2 SWAP1 PUSH2 0x2A78 JUMP JUMPDEST POP POP POP SWAP1 POP PUSH0 DUP2 ISZERO PUSH2 0xC9A JUMPI PUSH2 0xC97 DUP7 PUSH0 DUP1 PUSH2 0x1C8F JUMP JUMPDEST SWAP1 POP JUMPDEST PUSH0 PUSH2 0xCA4 DUP8 PUSH2 0x1DCE JUMP JUMPDEST SWAP1 POP PUSH0 DUP2 DUP4 PUSH2 0xCB3 DUP8 DUP10 PUSH2 0x2AE2 JUMP JUMPDEST PUSH2 0xCBD SWAP2 SWAP1 PUSH2 0x2AE2 JUMP JUMPDEST PUSH2 0xCC7 SWAP2 SWAP1 PUSH2 0x2AE2 JUMP JUMPDEST PUSH0 DUP10 DUP2 MSTORE PUSH1 0x4 PUSH1 0x20 MSTORE PUSH1 0x40 SWAP1 KECCAK256 PUSH1 0x2 ADD SLOAD PUSH2 0xCE2 SWAP2 SWAP1 PUSH2 0x2AF5 JUMP JUMPDEST SWAP1 POP PUSH2 0xCF5 PUSH2 0xCEF PUSH2 0xE71 JUMP JUMPDEST DUP8 PUSH2 0x1EA3 JUMP JUMPDEST PUSH0 DUP9 DUP2 MSTORE PUSH1 0x4 PUSH1 0x20 MSTORE PUSH1 0x40 SWAP1 KECCAK256 PUSH1 0x5 ADD SLOAD PUSH2 0xD19 SWAP1 PUSH1 0x1 PUSH1 0x1 PUSH1 0xA0 SHL SUB AND DUP3 PUSH2 0x1EA3 JUMP JUMPDEST PUSH0 DUP9 DUP2 MSTORE PUSH1 0x4 PUSH1 0x20 DUP2 SWAP1 MSTORE PUSH1 0x40 SWAP1 SWAP2 KECCAK256 DUP1 SLOAD PUSH2 0xFF00 NOT AND PUSH2 0x100 OR DUP2 SSTORE PUSH1 0x7 DUP2 ADD SLOAD PUSH1 0x6 DUP3 ADD SLOAD PUSH1 0x3 DUP4 ADD SLOAD SWAP3 SWAP1 SWAP4 ADD SLOAD PUSH2 0xD66 SWAP4 PUSH1 0x1 PUSH1 0x1 PUSH1 0xA0 SHL SUB SWAP3 DUP4 AND SWAP4 ADDRESS SWAP4 SWAP2 SWAP1 SWAP2 AND SWAP2 PUSH2 0x1F39 JUMP JUMPDEST PUSH0 DUP9 DUP2 MSTORE PUSH1 0x4 PUSH1 0x20 DUP2 DUP2 MSTORE PUSH1 0x40 SWAP3 DUP4 SWAP1 KECCAK256 PUSH1 0x7 DUP2 ADD SLOAD PUSH1 0x3 DUP3 ADD SLOAD PUSH1 0x6 DUP4 ADD SLOAD SWAP3 SWAP1 SWAP5 ADD SLOAD DUP6 MLOAD ADDRESS DUP2 MSTORE PUSH1 0x1 PUSH1 0x1 PUSH1 0xA0 SHL SUB SWAP4 DUP5 AND SWAP5 DUP2 ADD SWAP5 SWAP1 SWAP5 MSTORE DUP4 DUP7 ADD MSTORE SWAP4 MLOAD SWAP4 AND SWAP3 PUSH32 0x1A7BAF821561AE36AA58D172BD77037C6F9C19177E5B840E3D413C110A80E45 SWAP2 DUP2 SWAP1 SUB PUSH1 0x60 ADD SWAP1 LOG3 DUP1 DUP6 DUP8 PUSH32 0x36203E70AEB15B48FC7B10549158C6ACC3BA3235BA2644757016FB33D4FA3944 DUP7 DUP7 PUSH1 0x40 MLOAD PUSH2 0xE12 SWAP3 SWAP2 SWAP1 SWAP2 DUP3 MSTORE PUSH1 0x20 DUP3 ADD MSTORE PUSH1 0x40 ADD SWAP1 JUMP JUMPDEST PUSH1 0x40 MLOAD DUP1 SWAP2 SUB SWAP1 LOG4 POP POP POP POP POP POP POP POP JUMP JUMPDEST PUSH2 0xE2C PUSH2 0x1FC9 JUMP JUMPDEST PUSH2 0xE35 DUP3 PUSH2 0x206D JUMP JUMPDEST PUSH2 0xE3F DUP3 DUP3 PUSH2 0x2075 JUMP JUMPDEST POP POP JUMP JUMPDEST PUSH0 PUSH2 0xE4C PUSH2 0x2131 JUMP JUMPDEST POP PUSH0 DUP1 MLOAD PUSH1 0x20 PUSH2 0x2BBC DUP4 CODECOPY DUP2 MLOAD SWAP2 MSTORE SWAP1 JUMP JUMPDEST PUSH2 0xE66 PUSH2 0x1815 JUMP JUMPDEST PUSH2 0xE6F PUSH0 PUSH2 0x217A JUMP JUMPDEST JUMP JUMPDEST PUSH32 0x9016D09D72D40FDAE2FD8CEAC6B6234C7706214FD39C1CD1E609A0528C199300 SLOAD PUSH1 0x1 PUSH1 0x1 PUSH1 0xA0 SHL SUB AND SWAP1 JUMP JUMPDEST DUP1 PUSH0 DUP2 GT PUSH2 0xEC3 JUMPI PUSH1 0x40 MLOAD PUSH4 0xC860174B PUSH1 0xE0 SHL DUP2 MSTORE PUSH1 0x4 DUP2 ADD DUP3 SWAP1 MSTORE PUSH1 0x24 ADD PUSH2 0x63A JUMP JUMPDEST PUSH0 DUP2 DUP2 MSTORE PUSH1 0x4 PUSH1 0x20 MSTORE PUSH1 0x40 SWAP1 KECCAK256 SLOAD PUSH1 0xFF AND PUSH2 0xF09 JUMPI PUSH0 DUP2 DUP2 MSTORE PUSH1 0x4 PUSH1 0x20 DUP2 SWAP1 MSTORE PUSH1 0x40 SWAP2 DUP3 SWAP1 KECCAK256 SLOAD SWAP2 MLOAD PUSH4 0xE6C1C637 PUSH1 0xE0 SHL DUP2 MSTORE PUSH1 0xFF SWAP1 SWAP3 AND ISZERO ISZERO SWAP1 DUP3 ADD MSTORE PUSH1 0x24 ADD PUSH2 0x63A JUMP JUMPDEST PUSH0 DUP2 DUP2 MSTORE PUSH1 0x4 PUSH1 0x20 MSTORE PUSH1 0x40 SWAP1 KECCAK256 SLOAD PUSH2 0x100 SWAP1 DIV PUSH1 0xFF AND ISZERO PUSH2 0xF58 JUMPI PUSH0 DUP2 DUP2 MSTORE PUSH1 0x4 PUSH1 0x20 DUP2 SWAP1 MSTORE PUSH1 0x40 SWAP2 DUP3 SWAP1 KECCAK256 SLOAD SWAP2 MLOAD PUSH3 0x246805 PUSH1 0xE9 SHL DUP2 MSTORE PUSH2 0x100 SWAP1 SWAP3 DIV PUSH1 0xFF AND ISZERO ISZERO SWAP1 DUP3 ADD MSTORE PUSH1 0x24 ADD PUSH2 0x63A JUMP JUMPDEST PUSH0 DUP3 DUP2 MSTORE PUSH1 0x4 PUSH1 0x20 MSTORE PUSH1 0x40 SWAP1 KECCAK256 SLOAD PUSH3 0x10000 SWAP1 DIV PUSH1 0xFF AND ISZERO PUSH2 0xFAA JUMPI PUSH0 DUP3 DUP2 MSTORE PUSH1 0x4 PUSH1 0x20 DUP2 SWAP1 MSTORE PUSH1 0x40 SWAP2 DUP3 SWAP1 KECCAK256 SLOAD SWAP2 MLOAD PUSH4 0x2A515AF5 PUSH1 0xE1 SHL DUP2 MSTORE PUSH3 0x10000 SWAP1 SWAP3 DIV PUSH1 0xFF AND ISZERO ISZERO SWAP1 DUP3 ADD MSTORE PUSH1 0x24 ADD PUSH2 0x63A JUMP JUMPDEST PUSH0 DUP3 DUP2 MSTORE PUSH1 0x4 PUSH1 0x20 MSTORE PUSH1 0x40 SWAP1 KECCAK256 PUSH1 0x5 ADD SLOAD PUSH1 0x1 PUSH1 0x1 PUSH1 0xA0 SHL SUB AND CALLER EQ DUP1 PUSH2 0xFE9 JUMPI POP PUSH0 DUP3 DUP2 MSTORE PUSH1 0x4 PUSH1 0x20 MSTORE PUSH1 0x40 SWAP1 KECCAK256 PUSH1 0x6 ADD SLOAD PUSH1 0x1 PUSH1 0x1 PUSH1 0xA0 SHL SUB AND CALLER EQ JUMPDEST PUSH2 0x1053 JUMPI PUSH1 0x40 MLOAD PUSH3 0x461BCD PUSH1 0xE5 SHL DUP2 MSTORE PUSH1 0x20 PUSH1 0x4 DUP3 ADD MSTORE PUSH1 0x35 PUSH1 0x24 DUP3 ADD MSTORE PUSH32 0x596F7520617265206E6F7420746865206E66744F776E6572206E656974686572 PUSH1 0x44 DUP3 ADD MSTORE PUSH21 0x103A3432903432B4B3B432B9BA103134B23232B917 PUSH1 0x59 SHL PUSH1 0x64 DUP3 ADD MSTORE PUSH1 0x84 ADD PUSH2 0x63A JUMP JUMPDEST PUSH0 DUP3 DUP2 MSTORE PUSH1 0x4 PUSH1 0x20 MSTORE PUSH1 0x40 SWAP1 KECCAK256 PUSH1 0x8 ADD SLOAD TIMESTAMP LT ISZERO PUSH2 0x10A7 JUMPI PUSH0 DUP3 DUP2 MSTORE PUSH1 0x4 PUSH1 0x20 DUP2 SWAP1 MSTORE PUSH1 0x40 SWAP2 DUP3 SWAP1 KECCAK256 PUSH1 0x9 DUP2 ADD SLOAD PUSH1 0x8 SWAP1 SWAP2 ADD SLOAD SWAP3 MLOAD PUSH4 0xDD96246F PUSH1 0xE0 SHL DUP2 MSTORE SWAP2 DUP3 ADD MSTORE PUSH1 0x24 DUP2 ADD SWAP2 SWAP1 SWAP2 MSTORE PUSH1 0x44 ADD PUSH2 0x63A JUMP JUMPDEST PUSH0 DUP3 DUP2 MSTORE PUSH1 0x4 PUSH1 0x20 MSTORE PUSH1 0x40 DUP2 KECCAK256 PUSH1 0x1 ADD SLOAD ISZERO PUSH2 0xBBE JUMPI PUSH0 DUP4 DUP2 MSTORE PUSH1 0x4 PUSH1 0x20 MSTORE PUSH1 0x40 SWAP1 KECCAK256 PUSH1 0x2 DUP2 ADD SLOAD PUSH1 0x1 SWAP1 SWAP2 ADD SLOAD PUSH2 0xBB7 SWAP2 SWAP1 PUSH2 0x1A08 JUMP JUMPDEST DUP1 PUSH0 DUP2 GT PUSH2 0x1103 JUMPI PUSH1 0x40 MLOAD PUSH4 0xC860174B PUSH1 0xE0 SHL DUP2 MSTORE PUSH1 0x4 DUP2 ADD DUP3 SWAP1 MSTORE PUSH1 0x24 ADD PUSH2 0x63A JUMP JUMPDEST PUSH0 DUP2 DUP2 MSTORE PUSH1 0x4 PUSH1 0x20 MSTORE PUSH1 0x40 SWAP1 KECCAK256 SLOAD PUSH1 0xFF AND PUSH2 0x1149 JUMPI PUSH0 DUP2 DUP2 MSTORE PUSH1 0x4 PUSH1 0x20 DUP2 SWAP1 MSTORE PUSH1 0x40 SWAP2 DUP3 SWAP1 KECCAK256 SLOAD SWAP2 MLOAD PUSH4 0xE6C1C637 PUSH1 0xE0 SHL DUP2 MSTORE PUSH1 0xFF SWAP1 SWAP3 AND ISZERO ISZERO SWAP1 DUP3 ADD MSTORE PUSH1 0x24 ADD PUSH2 0x63A JUMP JUMPDEST PUSH0 DUP2 DUP2 MSTORE PUSH1 0x4 PUSH1 0x20 MSTORE PUSH1 0x40 SWAP1 KECCAK256 SLOAD PUSH2 0x100 SWAP1 DIV PUSH1 0xFF AND ISZERO PUSH2 0x1198 JUMPI PUSH0 DUP2 DUP2 MSTORE PUSH1 0x4 PUSH1 0x20 DUP2 SWAP1 MSTORE PUSH1 0x40 SWAP2 DUP3 SWAP1 KECCAK256 SLOAD SWAP2 MLOAD PUSH3 0x246805 PUSH1 0xE9 SHL DUP2 MSTORE PUSH2 0x100 SWAP1 SWAP3 DIV PUSH1 0xFF AND ISZERO ISZERO SWAP1 DUP3 ADD MSTORE PUSH1 0x24 ADD PUSH2 0x63A JUMP JUMPDEST PUSH0 DUP3 DUP2 MSTORE PUSH1 0x4 PUSH1 0x20 MSTORE PUSH1 0x40 SWAP1 KECCAK256 SLOAD PUSH3 0x10000 SWAP1 DIV PUSH1 0xFF AND ISZERO PUSH2 0x11EA JUMPI PUSH0 DUP3 DUP2 MSTORE PUSH1 0x4 PUSH1 0x20 DUP2 SWAP1 MSTORE PUSH1 0x40 SWAP2 DUP3 SWAP1 KECCAK256 SLOAD SWAP2 MLOAD PUSH4 0x2A515AF5 PUSH1 0xE1 SHL DUP2 MSTORE PUSH3 0x10000 SWAP1 SWAP3 DIV PUSH1 0xFF AND ISZERO ISZERO SWAP1 DUP3 ADD MSTORE PUSH1 0x24 ADD PUSH2 0x63A JUMP JUMPDEST CALLVALUE ISZERO DUP1 PUSH2 0x1206 JUMPI POP PUSH0 DUP3 DUP2 MSTORE PUSH1 0x4 PUSH1 0x20 MSTORE PUSH1 0x40 SWAP1 KECCAK256 PUSH1 0x2 ADD SLOAD CALLVALUE LT JUMPDEST ISZERO PUSH2 0x1226 JUMPI PUSH1 0x40 MLOAD PUSH4 0x85D649F7 PUSH1 0xE0 SHL DUP2 MSTORE CALLVALUE PUSH1 0x4 DUP3 ADD MSTORE PUSH1 0x24 ADD PUSH2 0x63A JUMP JUMPDEST PUSH0 DUP3 DUP2 MSTORE PUSH1 0x4 PUSH1 0x20 MSTORE PUSH1 0x40 SWAP1 KECCAK256 PUSH1 0x9 ADD SLOAD TIMESTAMP LT DUP1 PUSH2 0x1253 JUMPI POP PUSH0 DUP3 DUP2 MSTORE PUSH1 0x4 PUSH1 0x20 MSTORE PUSH1 0x40 SWAP1 KECCAK256 PUSH1 0x8 ADD SLOAD TIMESTAMP GT JUMPDEST ISZERO PUSH2 0x1294 JUMPI PUSH0 DUP3 DUP2 MSTORE PUSH1 0x4 PUSH1 0x20 DUP2 SWAP1 MSTORE PUSH1 0x40 SWAP2 DUP3 SWAP1 KECCAK256 PUSH1 0x9 DUP2 ADD SLOAD PUSH1 0x8 SWAP1 SWAP2 ADD SLOAD SWAP3 MLOAD PUSH4 0xDD96246F PUSH1 0xE0 SHL DUP2 MSTORE SWAP2 DUP3 ADD MSTORE PUSH1 0x24 DUP2 ADD SWAP2 SWAP1 SWAP2 MSTORE PUSH1 0x44 ADD PUSH2 0x63A JUMP JUMPDEST PUSH0 DUP3 DUP2 MSTORE PUSH1 0x4 PUSH1 0x20 MSTORE PUSH1 0x40 SWAP1 KECCAK256 PUSH1 0x5 ADD SLOAD PUSH1 0x1 PUSH1 0x1 PUSH1 0xA0 SHL SUB AND CALLER SUB PUSH2 0x12EC JUMPI PUSH0 DUP3 DUP2 MSTORE PUSH1 0x4 PUSH1 0x20 DUP2 SWAP1 MSTORE PUSH1 0x40 SWAP2 DUP3 SWAP1 KECCAK256 PUSH1 0x5 ADD SLOAD SWAP2 MLOAD PUSH4 0x4A83C1B PUSH1 0xE5 SHL DUP2 MSTORE PUSH1 0x1 PUSH1 0x1 PUSH1 0xA0 SHL SUB SWAP1 SWAP3 AND SWAP1 DUP3 ADD MSTORE PUSH1 0x24 ADD PUSH2 0x63A JUMP JUMPDEST PUSH0 DUP3 DUP2 MSTORE PUSH1 0x4 PUSH1 0x20 MSTORE PUSH1 0x40 SWAP1 KECCAK256 PUSH1 0x2 DUP2 ADD SLOAD PUSH1 0x6 SWAP1 SWAP2 ADD SLOAD PUSH1 0x1 PUSH1 0x1 PUSH1 0xA0 SHL SUB AND DUP2 ISZERO DUP1 ISZERO SWAP1 PUSH2 0x1324 JUMPI POP PUSH1 0x1 PUSH1 0x1 PUSH1 0xA0 SHL SUB DUP2 AND ISZERO ISZERO JUMPDEST ISZERO PUSH2 0x1333 JUMPI PUSH2 0x1333 DUP2 DUP4 PUSH2 0x1EA3 JUMP JUMPDEST PUSH0 DUP5 DUP2 MSTORE PUSH1 0x4 PUSH1 0x20 SWAP1 DUP2 MSTORE PUSH1 0x40 SWAP2 DUP3 SWAP1 KECCAK256 CALLVALUE PUSH1 0x2 DUP3 ADD DUP2 SWAP1 SSTORE PUSH1 0x6 SWAP1 SWAP2 ADD DUP1 SLOAD PUSH1 0x1 PUSH1 0x1 PUSH1 0xA0 SHL SUB NOT AND CALLER SWAP1 DUP2 OR SWAP1 SWAP2 SSTORE DUP4 MLOAD SWAP1 DUP2 MSTORE SWAP2 DUP3 ADD MSTORE SWAP1 DUP2 ADD DUP4 SWAP1 MSTORE PUSH32 0xA6E846933627BEDFE46F69605777A6483FB976F59199EC63196AA8442C8EB123 SWAP1 PUSH1 0x60 ADD PUSH1 0x40 MLOAD DUP1 SWAP2 SUB SWAP1 LOG1 POP POP POP POP JUMP JUMPDEST PUSH0 DUP1 SLOAD PUSH1 0x40 MLOAD PUSH4 0x53F50119 PUSH1 0xE0 SHL DUP2 MSTORE CALLER PUSH1 0x4 DUP3 ADD MSTORE DUP4 SWAP3 SWAP2 DUP3 SWAP2 DUP3 SWAP2 PUSH1 0x1 PUSH1 0x1 PUSH1 0xA0 SHL SUB AND SWAP1 PUSH4 0x53F50119 SWAP1 PUSH1 0x24 ADD PUSH1 0x80 PUSH1 0x40 MLOAD DUP1 DUP4 SUB DUP2 DUP7 GAS STATICCALL ISZERO DUP1 ISZERO PUSH2 0x13F1 JUMPI RETURNDATASIZE PUSH0 DUP1 RETURNDATACOPY RETURNDATASIZE PUSH0 REVERT JUMPDEST POP POP POP POP PUSH1 0x40 MLOAD RETURNDATASIZE PUSH1 0x1F NOT PUSH1 0x1F DUP3 ADD AND DUP3 ADD DUP1 PUSH1 0x40 MSTORE POP DUP2 ADD SWAP1 PUSH2 0x1415 SWAP2 SWAP1 PUSH2 0x2A78 JUMP JUMPDEST POP SWAP3 POP SWAP3 POP SWAP3 POP DUP3 ISZERO PUSH2 0x147C JUMPI DUP1 PUSH1 0x1 PUSH1 0x1 PUSH1 0xA0 SHL SUB AND DUP5 PUSH1 0x1 PUSH1 0x1 PUSH1 0xA0 SHL SUB AND EQ PUSH2 0x147C JUMPI PUSH1 0x40 MLOAD PUSH3 0x461BCD PUSH1 0xE5 SHL DUP2 MSTORE PUSH1 0x20 PUSH1 0x4 DUP3 ADD MSTORE PUSH1 0x16 PUSH1 0x24 DUP3 ADD MSTORE PUSH22 0x3BB937B733903334B9B1B0B61039B837B739B7B91097 PUSH1 0x51 SHL PUSH1 0x44 DUP3 ADD MSTORE PUSH1 0x64 ADD PUSH2 0x63A JUMP JUMPDEST PUSH0 DUP13 GT PUSH2 0x149F JUMPI PUSH1 0x40 MLOAD PUSH4 0xBAF301F7 PUSH1 0xE0 SHL DUP2 MSTORE PUSH1 0x4 DUP2 ADD DUP14 SWAP1 MSTORE PUSH1 0x24 ADD PUSH2 0x63A JUMP JUMPDEST PUSH0 DUP10 GT PUSH2 0x14C2 JUMPI PUSH1 0x40 MLOAD PUSH4 0x43599F69 PUSH1 0xE1 SHL DUP2 MSTORE PUSH1 0x4 DUP2 ADD DUP11 SWAP1 MSTORE PUSH1 0x24 ADD PUSH2 0x63A JUMP JUMPDEST PUSH0 DUP9 GT PUSH2 0x14E5 JUMPI PUSH1 0x40 MLOAD PUSH4 0x8E57A1B3 PUSH1 0xE0 SHL DUP2 MSTORE PUSH1 0x4 DUP2 ADD DUP10 SWAP1 MSTORE PUSH1 0x24 ADD PUSH2 0x63A JUMP JUMPDEST PUSH1 0x1 DUP1 SLOAD SWAP1 PUSH0 PUSH2 0x14F4 DUP4 PUSH2 0x2B08 JUMP JUMPDEST SWAP2 SWAP1 POP SSTORE POP PUSH2 0x1508 DUP10 DUP10 DUP15 DUP15 DUP15 DUP13 DUP13 PUSH2 0x1847 JUMP JUMPDEST PUSH1 0x3 SLOAD PUSH1 0x1 PUSH1 0x1 PUSH1 0xA0 SHL SUB DUP9 DUP2 AND SWAP2 AND EQ PUSH2 0x1530 JUMPI PUSH2 0x152B DUP10 DUP10 PUSH1 0x1 SLOAD DUP11 PUSH2 0x21EA JUMP JUMPDEST PUSH2 0x154D JUMP JUMPDEST PUSH1 0x1 SLOAD PUSH1 0x3 SLOAD PUSH2 0x154D SWAP2 DUP12 SWAP2 DUP12 SWAP2 SWAP1 PUSH1 0x1 PUSH1 0x1 PUSH1 0xA0 SHL SUB AND PUSH2 0x21EA JUMP JUMPDEST PUSH1 0x1 SLOAD PUSH1 0x40 DUP1 MLOAD SWAP2 DUP3 MSTORE PUSH1 0x20 DUP3 ADD DUP12 SWAP1 MSTORE DUP2 ADD DUP10 SWAP1 MSTORE PUSH1 0x60 DUP2 ADD DUP14 SWAP1 MSTORE PUSH32 0x52AD65EC41E71D556367FC4FEF59F68118B969BB890DEF6F1CCD0B952F557CA4 SWAP1 PUSH1 0x80 ADD PUSH1 0x40 MLOAD DUP1 SWAP2 SUB SWAP1 LOG1 POP POP POP POP POP POP POP POP POP POP POP POP JUMP JUMPDEST DUP2 DUP2 PUSH0 DUP3 MLOAD GT ISZERO DUP1 ISZERO PUSH2 0x15B9 JUMPI POP PUSH1 0xA DUP3 MLOAD GT JUMPDEST ISZERO PUSH2 0x15DC JUMPI DUP2 MLOAD PUSH1 0x40 MLOAD PUSH4 0x1D9AEA7D PUSH1 0xE0 SHL DUP2 MSTORE PUSH1 0x4 ADD PUSH2 0x63A SWAP2 DUP2 MSTORE PUSH1 0x20 ADD SWAP1 JUMP JUMPDEST DUP1 MLOAD DUP3 MLOAD EQ PUSH2 0x160B JUMPI DUP2 MLOAD DUP2 MLOAD PUSH1 0x40 MLOAD PUSH4 0x12C9B6E1 PUSH1 0xE0 SHL DUP2 MSTORE PUSH1 0x4 DUP2 ADD SWAP3 SWAP1 SWAP3 MSTORE PUSH1 0x24 DUP3 ADD MSTORE PUSH1 0x44 ADD PUSH2 0x63A JUMP JUMPDEST PUSH0 DUP1 JUMPDEST DUP4 MLOAD DUP2 LT ISZERO PUSH2 0x16D5 JUMPI PUSH0 PUSH1 0x1 PUSH1 0x1 PUSH1 0xA0 SHL SUB AND DUP5 DUP3 DUP2 MLOAD DUP2 LT PUSH2 0x1633 JUMPI PUSH2 0x1633 PUSH2 0x2B20 JUMP JUMPDEST PUSH1 0x20 MUL PUSH1 0x20 ADD ADD MLOAD PUSH1 0x1 PUSH1 0x1 PUSH1 0xA0 SHL SUB AND EQ PUSH2 0x16CD JUMPI PUSH2 0x1F4 DUP4 DUP3 DUP2 MLOAD DUP2 LT PUSH2 0x165E JUMPI PUSH2 0x165E PUSH2 0x2B20 JUMP JUMPDEST PUSH1 0x20 MUL PUSH1 0x20 ADD ADD MLOAD LT ISZERO PUSH2 0x16C8 JUMPI PUSH1 0x40 MLOAD PUSH3 0x461BCD PUSH1 0xE5 SHL DUP2 MSTORE PUSH1 0x20 PUSH1 0x4 DUP3 ADD MSTORE PUSH1 0x2B PUSH1 0x24 DUP3 ADD MSTORE PUSH32 0x646F6E6174696F6E2070657263656E74616765206D7573742062652067726561 PUSH1 0x44 DUP3 ADD MSTORE PUSH11 0x746572207468656E203525 PUSH1 0xA8 SHL PUSH1 0x64 DUP3 ADD MSTORE PUSH1 0x84 ADD PUSH2 0x63A JUMP JUMPDEST PUSH1 0x1 SWAP2 POP JUMPDEST PUSH1 0x1 ADD PUSH2 0x160E JUMP JUMPDEST POP DUP1 PUSH2 0x171C JUMPI PUSH1 0x40 MLOAD PUSH3 0x461BCD PUSH1 0xE5 SHL DUP2 MSTORE PUSH1 0x20 PUSH1 0x4 DUP3 ADD MSTORE PUSH1 0x16 PUSH1 0x24 DUP3 ADD MSTORE PUSH22 0x39B2B632B1BA1030B71037B933B0B73D30BA34B7B717 PUSH1 0x51 SHL PUSH1 0x44 DUP3 ADD MSTORE PUSH1 0x64 ADD PUSH2 0x63A JUMP JUMPDEST PUSH0 DUP13 GT PUSH2 0x173F JUMPI PUSH1 0x40 MLOAD PUSH4 0xBAF301F7 PUSH1 0xE0 SHL DUP2 MSTORE PUSH1 0x4 DUP2 ADD DUP14 SWAP1 MSTORE PUSH1 0x24 ADD PUSH2 0x63A JUMP JUMPDEST PUSH0 DUP10 GT PUSH2 0x1762 JUMPI PUSH1 0x40 MLOAD PUSH4 0x43599F69 PUSH1 0xE1 SHL DUP2 MSTORE PUSH1 0x4 DUP2 ADD DUP11 SWAP1 MSTORE PUSH1 0x24 ADD PUSH2 0x63A JUMP JUMPDEST PUSH0 DUP9 GT PUSH2 0x1785 JUMPI PUSH1 0x40 MLOAD PUSH4 0x8E57A1B3 PUSH1 0xE0 SHL DUP2 MSTORE PUSH1 0x4 DUP2 ADD DUP10 SWAP1 MSTORE PUSH1 0x24 ADD PUSH2 0x63A JUMP JUMPDEST PUSH1 0x1 DUP1 SLOAD SWAP1 PUSH0 PUSH2 0x1794 DUP4 PUSH2 0x2B08 JUMP JUMPDEST SWAP2 SWAP1 POP SSTORE POP PUSH2 0x17A8 DUP10 DUP10 DUP15 DUP15 DUP15 DUP12 DUP14 PUSH2 0x1847 JUMP JUMPDEST PUSH2 0x17B5 PUSH1 0x1 SLOAD DUP7 DUP7 PUSH2 0x2226 JUMP JUMPDEST PUSH1 0x3 SLOAD PUSH1 0x1 PUSH1 0x1 PUSH1 0xA0 SHL SUB DUP8 DUP2 AND SWAP2 AND EQ PUSH2 0x1530 JUMPI PUSH2 0x152B DUP10 DUP10 PUSH1 0x1 SLOAD DUP10 PUSH2 0x21EA JUMP JUMPDEST PUSH2 0x17E0 PUSH2 0x1815 JUMP JUMPDEST PUSH1 0x1 PUSH1 0x1 PUSH1 0xA0 SHL SUB DUP2 AND PUSH2 0x1809 JUMPI PUSH1 0x40 MLOAD PUSH4 0x1E4FBDF7 PUSH1 0xE0 SHL DUP2 MSTORE PUSH0 PUSH1 0x4 DUP3 ADD MSTORE PUSH1 0x24 ADD PUSH2 0x63A JUMP JUMPDEST PUSH2 0x1812 DUP2 PUSH2 0x217A JUMP JUMPDEST POP JUMP JUMPDEST CALLER PUSH2 0x181E PUSH2 0xE71 JUMP JUMPDEST PUSH1 0x1 PUSH1 0x1 PUSH1 0xA0 SHL SUB AND EQ PUSH2 0xE6F JUMPI PUSH1 0x40 MLOAD PUSH4 0x118CDAA7 PUSH1 0xE0 SHL DUP2 MSTORE CALLER PUSH1 0x4 DUP3 ADD MSTORE PUSH1 0x24 ADD PUSH2 0x63A JUMP JUMPDEST DUP5 DUP5 DUP5 DUP10 DUP10 DUP7 PUSH0 DUP7 GT PUSH2 0x1870 JUMPI PUSH1 0x40 MLOAD PUSH4 0xBAF301F7 PUSH1 0xE0 SHL DUP2 MSTORE PUSH1 0x4 DUP2 ADD DUP8 SWAP1 MSTORE PUSH1 0x24 ADD PUSH2 0x63A JUMP JUMPDEST PUSH0 DUP4 GT PUSH2 0x1893 JUMPI PUSH1 0x40 MLOAD PUSH4 0x43599F69 PUSH1 0xE1 SHL DUP2 MSTORE PUSH1 0x4 DUP2 ADD DUP5 SWAP1 MSTORE PUSH1 0x24 ADD PUSH2 0x63A JUMP JUMPDEST PUSH0 DUP3 GT PUSH2 0x18B6 JUMPI PUSH1 0x40 MLOAD PUSH4 0x8E57A1B3 PUSH1 0xE0 SHL DUP2 MSTORE PUSH1 0x4 DUP2 ADD DUP4 SWAP1 MSTORE PUSH1 0x24 ADD PUSH2 0x63A JUMP JUMPDEST PUSH1 0x1 PUSH1 0x1 PUSH1 0xA0 SHL SUB DUP2 AND PUSH2 0x18E8 JUMPI PUSH1 0x40 MLOAD PUSH4 0xE4CFA94D PUSH1 0xE0 SHL DUP2 MSTORE PUSH1 0x1 PUSH1 0x1 PUSH1 0xA0 SHL SUB DUP3 AND PUSH1 0x4 DUP3 ADD MSTORE PUSH1 0x24 ADD PUSH2 0x63A JUMP JUMPDEST DUP5 ISZERO DUP1 ISZERO SWAP1 PUSH2 0x18F6 JUMPI POP DUP4 ISZERO ISZERO JUMPDEST ISZERO PUSH2 0x1932 JUMPI TIMESTAMP DUP6 GT ISZERO DUP1 ISZERO PUSH2 0x190A JUMPI POP DUP5 DUP5 LT JUMPDEST ISZERO PUSH2 0x1932 JUMPI PUSH1 0x40 MLOAD PUSH4 0xDD96246F PUSH1 0xE0 SHL DUP2 MSTORE PUSH1 0x4 DUP2 ADD DUP7 SWAP1 MSTORE PUSH1 0x24 DUP2 ADD DUP6 SWAP1 MSTORE PUSH1 0x44 ADD PUSH2 0x63A JUMP JUMPDEST DUP10 ISZERO DUP1 ISZERO PUSH2 0x193E JUMPI POP DUP9 ISZERO JUMPDEST ISZERO PUSH2 0x1963 JUMPI PUSH1 0x1 SLOAD PUSH0 SWAP1 DUP2 MSTORE PUSH1 0x4 PUSH1 0x20 MSTORE PUSH1 0x40 SWAP1 KECCAK256 DUP1 SLOAD PUSH3 0xFF0000 NOT AND PUSH3 0x10000 OR SWAP1 SSTORE JUMPDEST POP POP PUSH1 0x1 DUP1 SLOAD PUSH0 SWAP1 DUP2 MSTORE PUSH1 0x4 PUSH1 0x20 DUP2 SWAP1 MSTORE PUSH1 0x40 DUP1 DUP4 KECCAK256 DUP1 SLOAD PUSH1 0xFF NOT AND DUP6 OR SWAP1 SSTORE DUP4 SLOAD DUP4 MSTORE DUP1 DUP4 KECCAK256 PUSH1 0x3 ADD SWAP15 SWAP1 SWAP15 SSTORE DUP3 SLOAD DUP3 MSTORE DUP14 DUP3 KECCAK256 ADD SWAP12 SWAP1 SWAP12 SSTORE DUP1 SLOAD DUP12 MSTORE DUP12 DUP12 KECCAK256 PUSH1 0x2 ADD SWAP10 SWAP1 SWAP10 SSTORE POP POP DUP7 SLOAD DUP9 MSTORE POP POP DUP7 DUP7 KECCAK256 PUSH1 0x9 ADD SWAP4 SWAP1 SWAP4 SSTORE POP DUP3 SLOAD DUP5 MSTORE DUP5 DUP5 KECCAK256 PUSH1 0x8 ADD SSTORE DUP2 SLOAD DUP4 MSTORE DUP4 DUP4 KECCAK256 PUSH1 0x5 ADD DUP1 SLOAD PUSH1 0x1 PUSH1 0x1 PUSH1 0xA0 SHL SUB NOT AND CALLER OR SWAP1 SSTORE DUP2 SLOAD DUP4 MSTORE SWAP3 SWAP1 SWAP2 KECCAK256 ADD SSTORE JUMP JUMPDEST PUSH2 0xE6F PUSH2 0x2333 JUMP JUMPDEST PUSH2 0x19FF PUSH2 0x2333 JUMP JUMPDEST PUSH2 0x1812 DUP2 PUSH2 0x237C JUMP JUMPDEST PUSH0 DUP3 PUSH0 SUB PUSH2 0x1A58 JUMPI PUSH1 0x40 MLOAD PUSH3 0x461BCD PUSH1 0xE5 SHL DUP2 MSTORE PUSH1 0x20 PUSH1 0x4 DUP3 ADD MSTORE PUSH1 0x1C PUSH1 0x24 DUP3 ADD MSTORE PUSH32 0x5072696365206F66204E46542063616E206E6F74206265207A65726F00000000 PUSH1 0x44 DUP3 ADD MSTORE PUSH1 0x64 ADD PUSH2 0x63A JUMP JUMPDEST DUP2 PUSH0 SUB PUSH2 0x1A9E JUMPI PUSH1 0x40 MLOAD PUSH3 0x461BCD PUSH1 0xE5 SHL DUP2 MSTORE PUSH1 0x20 PUSH1 0x4 DUP3 ADD MSTORE PUSH1 0x14 PUSH1 0x24 DUP3 ADD MSTORE PUSH20 0x5F5042502063616E206E6F74206265207A65726F PUSH1 0x60 SHL PUSH1 0x44 DUP3 ADD MSTORE PUSH1 0x64 ADD PUSH2 0x63A JUMP JUMPDEST PUSH0 PUSH2 0x2710 PUSH2 0x1AAC DUP5 DUP7 PUSH2 0x2B34 JUMP JUMPDEST PUSH2 0x1AB6 SWAP2 SWAP1 PUSH2 0x2B4B JUMP JUMPDEST SWAP5 SWAP4 POP POP POP POP JUMP JUMPDEST PUSH0 DUP1 DUP1 JUMPDEST PUSH0 DUP5 DUP2 MSTORE PUSH1 0x5 PUSH1 0x20 MSTORE PUSH1 0x40 SWAP1 KECCAK256 SLOAD DUP2 LT ISZERO PUSH2 0x1C88 JUMPI PUSH0 DUP5 DUP2 MSTORE PUSH1 0x5 PUSH1 0x20 MSTORE PUSH1 0x40 DUP2 KECCAK256 PUSH1 0x1 ADD DUP3 PUSH1 0xA DUP2 LT PUSH2 0x1AF8 JUMPI PUSH2 0x1AF8 PUSH2 0x2B20 JUMP JUMPDEST ADD SLOAD PUSH1 0x1 PUSH1 0x1 PUSH1 0xA0 SHL SUB AND EQ PUSH2 0x1C80 JUMPI PUSH0 DUP5 DUP2 MSTORE PUSH1 0x4 PUSH1 0x20 SWAP1 DUP2 MSTORE PUSH1 0x40 DUP1 DUP4 KECCAK256 PUSH1 0x2 ADD SLOAD PUSH1 0x5 SWAP1 SWAP3 MSTORE DUP3 KECCAK256 PUSH2 0x1B43 SWAP2 SWAP1 PUSH1 0xB ADD DUP5 PUSH1 0xA DUP2 LT PUSH2 0x1B3C JUMPI PUSH2 0x1B3C PUSH2 0x2B20 JUMP JUMPDEST ADD SLOAD PUSH2 0x1A08 JUMP JUMPDEST PUSH0 DUP1 SLOAD DUP8 DUP3 MSTORE PUSH1 0x5 PUSH1 0x20 MSTORE PUSH1 0x40 DUP3 KECCAK256 SWAP3 SWAP4 POP SWAP1 SWAP2 PUSH1 0x1 PUSH1 0x1 PUSH1 0xA0 SHL SUB SWAP1 SWAP2 AND SWAP1 PUSH4 0x53F50119 SWAP1 PUSH1 0x1 ADD DUP6 PUSH1 0xA DUP2 LT PUSH2 0x1B7D JUMPI PUSH2 0x1B7D PUSH2 0x2B20 JUMP JUMPDEST ADD SLOAD PUSH1 0x40 MLOAD PUSH1 0xE0 DUP4 SWAP1 SHL PUSH1 0x1 PUSH1 0x1 PUSH1 0xE0 SHL SUB NOT AND DUP2 MSTORE PUSH1 0x1 PUSH1 0x1 PUSH1 0xA0 SHL SUB SWAP1 SWAP2 AND PUSH1 0x4 DUP3 ADD MSTORE PUSH1 0x24 ADD PUSH1 0x80 PUSH1 0x40 MLOAD DUP1 DUP4 SUB DUP2 DUP7 GAS STATICCALL ISZERO DUP1 ISZERO PUSH2 0x1BC1 JUMPI RETURNDATASIZE PUSH0 DUP1 RETURNDATACOPY RETURNDATASIZE PUSH0 REVERT JUMPDEST POP POP POP POP PUSH1 0x40 MLOAD RETURNDATASIZE PUSH1 0x1F NOT PUSH1 0x1F DUP3 ADD AND DUP3 ADD DUP1 PUSH1 0x40 MSTORE POP DUP2 ADD SWAP1 PUSH2 0x1BE5 SWAP2 SWAP1 PUSH2 0x2A78 JUMP JUMPDEST POP POP POP SWAP1 POP PUSH0 DUP2 ISZERO PUSH2 0x1C2B JUMPI PUSH0 DUP8 DUP2 MSTORE PUSH1 0x5 PUSH1 0x20 MSTORE PUSH1 0x40 DUP2 KECCAK256 PUSH2 0x1C28 SWAP2 SWAP1 PUSH1 0x1 ADD DUP7 PUSH1 0xA DUP2 LT PUSH2 0x1C17 JUMPI PUSH2 0x1C17 PUSH2 0x2B20 JUMP JUMPDEST ADD SLOAD PUSH1 0x1 PUSH1 0x1 PUSH1 0xA0 SHL SUB AND DUP6 PUSH2 0x1C8F JUMP JUMPDEST SWAP1 POP JUMPDEST PUSH0 PUSH2 0x1C36 DUP3 DUP6 PUSH2 0x2AF5 JUMP JUMPDEST PUSH0 DUP10 DUP2 MSTORE PUSH1 0x5 PUSH1 0x20 MSTORE PUSH1 0x40 SWAP1 KECCAK256 SWAP1 SWAP2 POP PUSH2 0x1C6F SWAP1 PUSH1 0x1 ADD DUP7 PUSH1 0xA DUP2 LT PUSH2 0x1C5E JUMPI PUSH2 0x1C5E PUSH2 0x2B20 JUMP JUMPDEST ADD SLOAD PUSH1 0x1 PUSH1 0x1 PUSH1 0xA0 SHL SUB AND DUP3 PUSH2 0x1EA3 JUMP JUMPDEST PUSH2 0x1C79 DUP5 DUP8 PUSH2 0x2AE2 JUMP JUMPDEST SWAP6 POP POP POP POP POP JUMPDEST PUSH1 0x1 ADD PUSH2 0x1AC2 JUMP JUMPDEST POP SWAP3 SWAP2 POP POP JUMP JUMPDEST PUSH0 DUP1 DUP1 DUP6 ISZERO DUP1 ISZERO SWAP1 PUSH2 0x1CA8 JUMPI POP PUSH1 0x1 PUSH1 0x1 PUSH1 0xA0 SHL SUB DUP6 AND ISZERO JUMPDEST DUP1 ISZERO PUSH2 0x1CB2 JUMPI POP DUP4 ISZERO JUMPDEST PUSH2 0x1CBC JUMPI DUP5 PUSH2 0x1CD7 JUMP JUMPDEST PUSH0 DUP7 DUP2 MSTORE PUSH1 0x4 PUSH1 0x20 MSTORE PUSH1 0x40 SWAP1 KECCAK256 PUSH1 0x5 ADD SLOAD PUSH1 0x1 PUSH1 0x1 PUSH1 0xA0 SHL SUB AND JUMPDEST PUSH0 DUP1 SLOAD PUSH1 0x40 MLOAD PUSH4 0x53F50119 PUSH1 0xE0 SHL DUP2 MSTORE PUSH1 0x1 PUSH1 0x1 PUSH1 0xA0 SHL SUB DUP1 DUP6 AND PUSH1 0x4 DUP4 ADD MSTORE SWAP4 SWAP5 POP SWAP2 SWAP3 DUP4 SWAP3 SWAP2 AND SWAP1 PUSH4 0x53F50119 SWAP1 PUSH1 0x24 ADD PUSH1 0x80 PUSH1 0x40 MLOAD DUP1 DUP4 SUB DUP2 DUP7 GAS STATICCALL ISZERO DUP1 ISZERO PUSH2 0x1D25 JUMPI RETURNDATASIZE PUSH0 DUP1 RETURNDATACOPY RETURNDATASIZE PUSH0 REVERT JUMPDEST POP POP POP POP PUSH1 0x40 MLOAD RETURNDATASIZE PUSH1 0x1F NOT PUSH1 0x1F DUP3 ADD AND DUP3 ADD DUP1 PUSH1 0x40 MSTORE POP DUP2 ADD SWAP1 PUSH2 0x1D49 SWAP2 SWAP1 PUSH2 0x2A78 JUMP JUMPDEST POP SWAP3 POP SWAP3 POP POP DUP2 PUSH0 SUB PUSH2 0x1D7D JUMPI PUSH1 0x1 PUSH1 0x1 PUSH1 0xA0 SHL SUB DUP2 AND PUSH0 SWAP1 DUP2 MSTORE PUSH1 0x6 PUSH1 0x20 MSTORE PUSH1 0x40 DUP2 KECCAK256 SLOAD SWAP3 POP DUP3 SWAP1 SUB PUSH2 0x1D7D JUMPI PUSH2 0x3E8 SWAP2 POP JUMPDEST PUSH0 DUP9 ISZERO DUP1 ISZERO SWAP1 PUSH2 0x1D8B JUMPI POP DUP7 ISZERO JUMPDEST PUSH2 0x1D95 JUMPI DUP7 PUSH2 0x1DA7 JUMP JUMPDEST PUSH0 DUP10 DUP2 MSTORE PUSH1 0x4 PUSH1 0x20 MSTORE PUSH1 0x40 SWAP1 KECCAK256 PUSH1 0x2 ADD SLOAD JUMPDEST SWAP1 POP PUSH2 0x1DB3 DUP2 DUP5 PUSH2 0x1A08 JUMP JUMPDEST SWAP5 POP PUSH2 0x1DBF DUP3 DUP7 PUSH2 0x1EA3 JUMP JUMPDEST POP SWAP3 SWAP4 POP POP POP POP JUMPDEST SWAP4 SWAP3 POP POP POP JUMP JUMPDEST PUSH0 DUP2 DUP2 MSTORE PUSH1 0x4 PUSH1 0x20 MSTORE PUSH1 0x40 DUP2 KECCAK256 PUSH1 0x7 ADD SLOAD PUSH1 0x3 SLOAD DUP3 SWAP2 PUSH1 0x1 PUSH1 0x1 PUSH1 0xA0 SHL SUB SWAP1 DUP2 AND SWAP2 AND SUB PUSH2 0x5C0 JUMPI PUSH0 DUP1 SLOAD DUP5 DUP3 MSTORE PUSH1 0x4 PUSH1 0x20 DUP2 SWAP1 MSTORE PUSH1 0x40 DUP1 DUP5 KECCAK256 PUSH1 0x3 ADD SLOAD SWAP1 MLOAD PUSH4 0x8C33E47F PUSH1 0xE0 SHL DUP2 MSTORE SWAP2 DUP3 ADD MSTORE DUP3 SWAP2 PUSH1 0x1 PUSH1 0x1 PUSH1 0xA0 SHL SUB AND SWAP1 PUSH4 0x8C33E47F SWAP1 PUSH1 0x24 ADD PUSH1 0x40 DUP1 MLOAD DUP1 DUP4 SUB DUP2 DUP7 GAS STATICCALL ISZERO DUP1 ISZERO PUSH2 0x1E4B JUMPI RETURNDATASIZE PUSH0 DUP1 RETURNDATACOPY RETURNDATASIZE PUSH0 REVERT JUMPDEST POP POP POP POP PUSH1 0x40 MLOAD RETURNDATASIZE PUSH1 0x1F NOT PUSH1 0x1F DUP3 ADD AND DUP3 ADD DUP1 PUSH1 0x40 MSTORE POP DUP2 ADD SWAP1 PUSH2 0x1E6F SWAP2 SWAP1 PUSH2 0x2B6A JUMP JUMPDEST PUSH0 DUP8 DUP2 MSTORE PUSH1 0x4 PUSH1 0x20 MSTORE PUSH1 0x40 SWAP1 KECCAK256 PUSH1 0x2 ADD SLOAD SWAP2 SWAP4 POP SWAP2 POP PUSH2 0x1E8F SWAP1 DUP4 PUSH2 0x1A08 JUMP JUMPDEST SWAP3 POP PUSH2 0x1E9B DUP2 DUP5 PUSH2 0x1EA3 JUMP JUMPDEST POP POP SWAP3 SWAP2 POP POP JUMP JUMPDEST PUSH0 DUP3 PUSH1 0x1 PUSH1 0x1 PUSH1 0xA0 SHL SUB AND DUP3 PUSH1 0x40 MLOAD PUSH0 PUSH1 0x40 MLOAD DUP1 DUP4 SUB DUP2 DUP6 DUP8 GAS CALL SWAP3 POP POP POP RETURNDATASIZE DUP1 PUSH0 DUP2 EQ PUSH2 0x1EEC JUMPI PUSH1 0x40 MLOAD SWAP2 POP PUSH1 0x1F NOT PUSH1 0x3F RETURNDATASIZE ADD AND DUP3 ADD PUSH1 0x40 MSTORE RETURNDATASIZE DUP3 MSTORE RETURNDATASIZE PUSH0 PUSH1 0x20 DUP5 ADD RETURNDATACOPY PUSH2 0x1EF1 JUMP JUMPDEST PUSH1 0x60 SWAP2 POP JUMPDEST POP POP SWAP1 POP DUP1 PUSH2 0x1F34 JUMPI PUSH1 0x40 MLOAD PUSH3 0x461BCD PUSH1 0xE5 SHL DUP2 MSTORE PUSH1 0x20 PUSH1 0x4 DUP3 ADD MSTORE PUSH1 0xF PUSH1 0x24 DUP3 ADD MSTORE PUSH15 0x151C985B9CD9995C8819985A5B1959 PUSH1 0x8A SHL PUSH1 0x44 DUP3 ADD MSTORE PUSH1 0x64 ADD PUSH2 0x63A JUMP JUMPDEST POP POP POP JUMP JUMPDEST PUSH1 0x40 MLOAD PUSH4 0x79212195 PUSH1 0xE1 SHL DUP2 MSTORE PUSH1 0x1 PUSH1 0x1 PUSH1 0xA0 SHL SUB DUP6 DUP2 AND PUSH1 0x4 DUP1 DUP5 ADD SWAP2 SWAP1 SWAP2 MSTORE DUP6 DUP3 AND PUSH1 0x24 DUP5 ADD MSTORE PUSH1 0x44 DUP4 ADD DUP6 SWAP1 MSTORE PUSH1 0x64 DUP4 ADD DUP5 SWAP1 MSTORE PUSH1 0xA0 PUSH1 0x84 DUP5 ADD MSTORE PUSH1 0xA4 DUP4 ADD MSTORE PUSH4 0x3078303 PUSH1 0xE4 SHL PUSH1 0xC4 DUP4 ADD MSTORE DUP7 AND SWAP1 PUSH4 0xF242432A SWAP1 PUSH1 0xE4 ADD PUSH0 PUSH1 0x40 MLOAD DUP1 DUP4 SUB DUP2 PUSH0 DUP8 DUP1 EXTCODESIZE ISZERO DUP1 ISZERO PUSH2 0x1FAC JUMPI PUSH0 DUP1 REVERT JUMPDEST POP GAS CALL ISZERO DUP1 ISZERO PUSH2 0x1FBE JUMPI RETURNDATASIZE PUSH0 DUP1 RETURNDATACOPY RETURNDATASIZE PUSH0 REVERT JUMPDEST POP POP POP POP POP POP POP POP POP JUMP JUMPDEST ADDRESS PUSH1 0x1 PUSH1 0x1 PUSH1 0xA0 SHL SUB PUSH32 0x0 AND EQ DUP1 PUSH2 0x204F JUMPI POP PUSH32 0x0 PUSH1 0x1 PUSH1 0x1 PUSH1 0xA0 SHL SUB AND PUSH2 0x2043 PUSH0 DUP1 MLOAD PUSH1 0x20 PUSH2 0x2BBC DUP4 CODECOPY DUP2 MLOAD SWAP2 MSTORE SLOAD PUSH1 0x1 PUSH1 0x1 PUSH1 0xA0 SHL SUB AND SWAP1 JUMP JUMPDEST PUSH1 0x1 PUSH1 0x1 PUSH1 0xA0 SHL SUB AND EQ ISZERO JUMPDEST ISZERO PUSH2 0xE6F JUMPI PUSH1 0x40 MLOAD PUSH4 0x703E46DD PUSH1 0xE1 SHL DUP2 MSTORE PUSH1 0x4 ADD PUSH1 0x40 MLOAD DUP1 SWAP2 SUB SWAP1 REVERT JUMPDEST PUSH2 0x1812 PUSH2 0x1815 JUMP JUMPDEST DUP2 PUSH1 0x1 PUSH1 0x1 PUSH1 0xA0 SHL SUB AND PUSH4 0x52D1902D PUSH1 0x40 MLOAD DUP2 PUSH4 0xFFFFFFFF AND PUSH1 0xE0 SHL DUP2 MSTORE PUSH1 0x4 ADD PUSH1 0x20 PUSH1 0x40 MLOAD DUP1 DUP4 SUB DUP2 DUP7 GAS STATICCALL SWAP3 POP POP POP DUP1 ISZERO PUSH2 0x20CF JUMPI POP PUSH1 0x40 DUP1 MLOAD PUSH1 0x1F RETURNDATASIZE SWAP1 DUP2 ADD PUSH1 0x1F NOT AND DUP3 ADD SWAP1 SWAP3 MSTORE PUSH2 0x20CC SWAP2 DUP2 ADD SWAP1 PUSH2 0x2B8E JUMP JUMPDEST PUSH1 0x1 JUMPDEST PUSH2 0x20F7 JUMPI PUSH1 0x40 MLOAD PUSH4 0x4C9C8CE3 PUSH1 0xE0 SHL DUP2 MSTORE PUSH1 0x1 PUSH1 0x1 PUSH1 0xA0 SHL SUB DUP4 AND PUSH1 0x4 DUP3 ADD MSTORE PUSH1 0x24 ADD PUSH2 0x63A JUMP JUMPDEST PUSH0 DUP1 MLOAD PUSH1 0x20 PUSH2 0x2BBC DUP4 CODECOPY DUP2 MLOAD SWAP2 MSTORE DUP2 EQ PUSH2 0x2127 JUMPI PUSH1 0x40 MLOAD PUSH4 0x2A875269 PUSH1 0xE2 SHL DUP2 MSTORE PUSH1 0x4 DUP2 ADD DUP3 SWAP1 MSTORE PUSH1 0x24 ADD PUSH2 0x63A JUMP JUMPDEST PUSH2 0x1F34 DUP4 DUP4 PUSH2 0x2384 JUMP JUMPDEST ADDRESS PUSH1 0x1 PUSH1 0x1 PUSH1 0xA0 SHL SUB PUSH32 0x0 AND EQ PUSH2 0xE6F JUMPI PUSH1 0x40 MLOAD PUSH4 0x703E46DD PUSH1 0xE1 SHL DUP2 MSTORE PUSH1 0x4 ADD PUSH1 0x40 MLOAD DUP1 SWAP2 SUB SWAP1 REVERT JUMPDEST PUSH32 0x9016D09D72D40FDAE2FD8CEAC6B6234C7706214FD39C1CD1E609A0528C199300 DUP1 SLOAD PUSH1 0x1 PUSH1 0x1 PUSH1 0xA0 SHL SUB NOT DUP2 AND PUSH1 0x1 PUSH1 0x1 PUSH1 0xA0 SHL SUB DUP5 DUP2 AND SWAP2 DUP3 OR DUP5 SSTORE PUSH1 0x40 MLOAD SWAP3 AND SWAP2 DUP3 SWAP1 PUSH32 0x8BE0079C531659141344CD1FD0A4F28419497F9722A3DAAFE3B4186F6B6457E0 SWAP1 PUSH0 SWAP1 LOG3 POP POP POP JUMP JUMPDEST PUSH0 DUP3 DUP2 MSTORE PUSH1 0x4 PUSH1 0x20 MSTORE PUSH1 0x40 SWAP1 KECCAK256 PUSH1 0x7 ADD DUP1 SLOAD PUSH1 0x1 PUSH1 0x1 PUSH1 0xA0 SHL SUB NOT AND PUSH1 0x1 PUSH1 0x1 PUSH1 0xA0 SHL SUB DUP4 AND OR SWAP1 SSTORE PUSH2 0x2220 DUP2 CALLER ADDRESS DUP8 DUP8 PUSH2 0x1F39 JUMP JUMPDEST POP POP POP POP JUMP JUMPDEST PUSH0 JUMPDEST DUP3 MLOAD DUP2 LT ISZERO PUSH2 0x2220 JUMPI PUSH0 PUSH1 0x1 PUSH1 0x1 PUSH1 0xA0 SHL SUB AND DUP4 DUP3 DUP2 MLOAD DUP2 LT PUSH2 0x224D JUMPI PUSH2 0x224D PUSH2 0x2B20 JUMP JUMPDEST PUSH1 0x20 MUL PUSH1 0x20 ADD ADD MLOAD PUSH1 0x1 PUSH1 0x1 PUSH1 0xA0 SHL SUB AND EQ PUSH2 0x232B JUMPI DUP3 DUP2 DUP2 MLOAD DUP2 LT PUSH2 0x2275 JUMPI PUSH2 0x2275 PUSH2 0x2B20 JUMP JUMPDEST PUSH1 0x20 MUL PUSH1 0x20 ADD ADD MLOAD PUSH1 0x5 PUSH0 DUP7 DUP2 MSTORE PUSH1 0x20 ADD SWAP1 DUP2 MSTORE PUSH1 0x20 ADD PUSH0 KECCAK256 PUSH1 0x1 ADD DUP3 PUSH1 0xA DUP2 LT PUSH2 0x22A2 JUMPI PUSH2 0x22A2 PUSH2 0x2B20 JUMP JUMPDEST ADD PUSH0 PUSH2 0x100 EXP DUP2 SLOAD DUP2 PUSH1 0x1 PUSH1 0x1 PUSH1 0xA0 SHL SUB MUL NOT AND SWAP1 DUP4 PUSH1 0x1 PUSH1 0x1 PUSH1 0xA0 SHL SUB AND MUL OR SWAP1 SSTORE POP DUP2 DUP2 DUP2 MLOAD DUP2 LT PUSH2 0x22D8 JUMPI PUSH2 0x22D8 PUSH2 0x2B20 JUMP JUMPDEST PUSH1 0x20 MUL PUSH1 0x20 ADD ADD MLOAD PUSH1 0x5 PUSH0 DUP7 DUP2 MSTORE PUSH1 0x20 ADD SWAP1 DUP2 MSTORE PUSH1 0x20 ADD PUSH0 KECCAK256 PUSH1 0xB ADD DUP3 PUSH1 0xA DUP2 LT PUSH2 0x2305 JUMPI PUSH2 0x2305 PUSH2 0x2B20 JUMP JUMPDEST ADD SSTORE PUSH0 DUP5 DUP2 MSTORE PUSH1 0x5 PUSH1 0x20 MSTORE PUSH1 0x40 DUP2 KECCAK256 DUP1 SLOAD PUSH1 0x1 SWAP3 SWAP1 PUSH2 0x2325 SWAP1 DUP5 SWAP1 PUSH2 0x2AE2 JUMP JUMPDEST SWAP1 SWAP2 SSTORE POP POP JUMPDEST PUSH1 0x1 ADD PUSH2 0x2228 JUMP JUMPDEST PUSH32 0xF0C57E16840DF040F15088DC2F81FE391C3923BEC73E23A9662EFC9C229C6A00 SLOAD PUSH1 0x1 PUSH1 0x40 SHL SWAP1 DIV PUSH1 0xFF AND PUSH2 0xE6F JUMPI PUSH1 0x40 MLOAD PUSH4 0x1AFCD79F PUSH1 0xE3 SHL DUP2 MSTORE PUSH1 0x4 ADD PUSH1 0x40 MLOAD DUP1 SWAP2 SUB SWAP1 REVERT JUMPDEST PUSH2 0x17E0 PUSH2 0x2333 JUMP JUMPDEST PUSH2 0x238D DUP3 PUSH2 0x23D9 JUMP JUMPDEST PUSH1 0x40 MLOAD PUSH1 0x1 PUSH1 0x1 PUSH1 0xA0 SHL SUB DUP4 AND SWAP1 PUSH32 0xBC7CD75A20EE27FD9ADEBAB32041F755214DBC6BFFA90CC0225B39DA2E5C2D3B SWAP1 PUSH0 SWAP1 LOG2 DUP1 MLOAD ISZERO PUSH2 0x23D1 JUMPI PUSH2 0x1F34 DUP3 DUP3 PUSH2 0x243C JUMP JUMPDEST PUSH2 0xE3F PUSH2 0x24AE JUMP JUMPDEST DUP1 PUSH1 0x1 PUSH1 0x1 PUSH1 0xA0 SHL SUB AND EXTCODESIZE PUSH0 SUB PUSH2 0x240E JUMPI PUSH1 0x40 MLOAD PUSH4 0x4C9C8CE3 PUSH1 0xE0 SHL DUP2 MSTORE PUSH1 0x1 PUSH1 0x1 PUSH1 0xA0 SHL SUB DUP3 AND PUSH1 0x4 DUP3 ADD MSTORE PUSH1 0x24 ADD PUSH2 0x63A JUMP JUMPDEST PUSH0 DUP1 MLOAD PUSH1 0x20 PUSH2 0x2BBC DUP4 CODECOPY DUP2 MLOAD SWAP2 MSTORE DUP1 SLOAD PUSH1 0x1 PUSH1 0x1 PUSH1 0xA0 SHL SUB NOT AND PUSH1 0x1 PUSH1 0x1 PUSH1 0xA0 SHL SUB SWAP3 SWAP1 SWAP3 AND SWAP2 SWAP1 SWAP2 OR SWAP1 SSTORE JUMP JUMPDEST PUSH1 0x60 PUSH0 DUP1 DUP5 PUSH1 0x1 PUSH1 0x1 PUSH1 0xA0 SHL SUB AND DUP5 PUSH1 0x40 MLOAD PUSH2 0x2458 SWAP2 SWAP1 PUSH2 0x2BA5 JUMP JUMPDEST PUSH0 PUSH1 0x40 MLOAD DUP1 DUP4 SUB DUP2 DUP6 GAS DELEGATECALL SWAP2 POP POP RETURNDATASIZE DUP1 PUSH0 DUP2 EQ PUSH2 0x2490 JUMPI PUSH1 0x40 MLOAD SWAP2 POP PUSH1 0x1F NOT PUSH1 0x3F RETURNDATASIZE ADD AND DUP3 ADD PUSH1 0x40 MSTORE RETURNDATASIZE DUP3 MSTORE RETURNDATASIZE PUSH0 PUSH1 0x20 DUP5 ADD RETURNDATACOPY PUSH2 0x2495 JUMP JUMPDEST PUSH1 0x60 SWAP2 POP JUMPDEST POP SWAP2 POP SWAP2 POP PUSH2 0x24A5 DUP6 DUP4 DUP4 PUSH2 0x24CD JUMP JUMPDEST SWAP6 SWAP5 POP POP POP POP POP JUMP JUMPDEST CALLVALUE ISZERO PUSH2 0xE6F JUMPI PUSH1 0x40 MLOAD PUSH4 0xB398979F PUSH1 0xE0 SHL DUP2 MSTORE PUSH1 0x4 ADD PUSH1 0x40 MLOAD DUP1 SWAP2 SUB SWAP1 REVERT JUMPDEST PUSH1 0x60 DUP3 PUSH2 0x24E2 JUMPI PUSH2 0x24DD DUP3 PUSH2 0x2529 JUMP JUMPDEST PUSH2 0x1DC7 JUMP JUMPDEST DUP2 MLOAD ISZERO DUP1 ISZERO PUSH2 0x24F9 JUMPI POP PUSH1 0x1 PUSH1 0x1 PUSH1 0xA0 SHL SUB DUP5 AND EXTCODESIZE ISZERO JUMPDEST ISZERO PUSH2 0x2522 JUMPI PUSH1 0x40 MLOAD PUSH4 0x9996B315 PUSH1 0xE0 SHL DUP2 MSTORE PUSH1 0x1 PUSH1 0x1 PUSH1 0xA0 SHL SUB DUP6 AND PUSH1 0x4 DUP3 ADD MSTORE PUSH1 0x24 ADD PUSH2 0x63A JUMP JUMPDEST POP DUP1 PUSH2 0x1DC7 JUMP JUMPDEST DUP1 MLOAD ISZERO PUSH2 0x2539 JUMPI DUP1 MLOAD DUP1 DUP3 PUSH1 0x20 ADD REVERT JUMPDEST PUSH1 0x40 MLOAD PUSH4 0xA12F521 PUSH1 0xE1 SHL DUP2 MSTORE PUSH1 0x4 ADD PUSH1 0x40 MLOAD DUP1 SWAP2 SUB SWAP1 REVERT JUMPDEST PUSH0 PUSH1 0x20 DUP3 DUP5 SUB SLT ISZERO PUSH2 0x2562 JUMPI PUSH0 DUP1 REVERT JUMPDEST DUP2 CALLDATALOAD PUSH1 0x1 PUSH1 0x1 PUSH1 0xE0 SHL SUB NOT DUP2 AND DUP2 EQ PUSH2 0x1DC7 JUMPI PUSH0 DUP1 REVERT JUMPDEST PUSH0 PUSH1 0x20 DUP3 DUP5 SUB SLT ISZERO PUSH2 0x2589 JUMPI PUSH0 DUP1 REVERT JUMPDEST POP CALLDATALOAD SWAP2 SWAP1 POP JUMP JUMPDEST PUSH0 DUP1 PUSH0 DUP1 PUSH0 PUSH1 0xA0 DUP7 DUP9 SUB SLT ISZERO PUSH2 0x25A4 JUMPI PUSH0 DUP1 REVERT JUMPDEST POP POP DUP4 CALLDATALOAD SWAP6 PUSH1 0x20 DUP6 ADD CALLDATALOAD SWAP6 POP PUSH1 0x40 DUP6 ADD CALLDATALOAD SWAP5 PUSH1 0x60 DUP2 ADD CALLDATALOAD SWAP5 POP PUSH1 0x80 ADD CALLDATALOAD SWAP3 POP SWAP1 POP JUMP JUMPDEST PUSH1 0x1 PUSH1 0x1 PUSH1 0xA0 SHL SUB DUP2 AND DUP2 EQ PUSH2 0x1812 JUMPI PUSH0 DUP1 REVERT JUMPDEST PUSH0 DUP1 PUSH1 0x40 DUP4 DUP6 SUB SLT ISZERO PUSH2 0x25EC JUMPI PUSH0 DUP1 REVERT JUMPDEST DUP3 CALLDATALOAD PUSH2 0x25F7 DUP2 PUSH2 0x25C7 JUMP JUMPDEST SWAP2 POP PUSH1 0x20 DUP4 ADD CALLDATALOAD PUSH2 0x2607 DUP2 PUSH2 0x25C7 JUMP JUMPDEST DUP1 SWAP2 POP POP SWAP3 POP SWAP3 SWAP1 POP JUMP JUMPDEST PUSH4 0x4E487B71 PUSH1 0xE0 SHL PUSH0 MSTORE PUSH1 0x41 PUSH1 0x4 MSTORE PUSH1 0x24 PUSH0 REVERT JUMPDEST PUSH1 0x40 MLOAD PUSH1 0x1F DUP3 ADD PUSH1 0x1F NOT AND DUP2 ADD PUSH8 0xFFFFFFFFFFFFFFFF DUP2 GT DUP3 DUP3 LT OR ISZERO PUSH2 0x264F JUMPI PUSH2 0x264F PUSH2 0x2612 JUMP JUMPDEST PUSH1 0x40 MSTORE SWAP2 SWAP1 POP JUMP JUMPDEST PUSH0 DUP3 PUSH1 0x1F DUP4 ADD SLT PUSH2 0x2666 JUMPI PUSH0 DUP1 REVERT JUMPDEST DUP2 CALLDATALOAD PUSH8 0xFFFFFFFFFFFFFFFF DUP2 GT ISZERO PUSH2 0x2680 JUMPI PUSH2 0x2680 PUSH2 0x2612 JUMP JUMPDEST PUSH2 0x2693 PUSH1 0x1F DUP3 ADD PUSH1 0x1F NOT AND PUSH1 0x20 ADD PUSH2 0x2626 JUMP JUMPDEST DUP2 DUP2 MSTORE DUP5 PUSH1 0x20 DUP4 DUP7 ADD ADD GT ISZERO PUSH2 0x26A7 JUMPI PUSH0 DUP1 REVERT JUMPDEST DUP2 PUSH1 0x20 DUP6 ADD PUSH1 0x20 DUP4 ADD CALLDATACOPY PUSH0 SWAP2 DUP2 ADD PUSH1 0x20 ADD SWAP2 SWAP1 SWAP2 MSTORE SWAP4 SWAP3 POP POP POP JUMP JUMPDEST PUSH0 DUP1 PUSH1 0x40 DUP4 DUP6 SUB SLT ISZERO PUSH2 0x26D4 JUMPI PUSH0 DUP1 REVERT JUMPDEST DUP3 CALLDATALOAD PUSH2 0x26DF DUP2 PUSH2 0x25C7 JUMP JUMPDEST SWAP2 POP PUSH1 0x20 DUP4 ADD CALLDATALOAD PUSH8 0xFFFFFFFFFFFFFFFF DUP2 GT ISZERO PUSH2 0x26FA JUMPI PUSH0 DUP1 REVERT JUMPDEST PUSH2 0x2706 DUP6 DUP3 DUP7 ADD PUSH2 0x2657 JUMP JUMPDEST SWAP2 POP POP SWAP3 POP SWAP3 SWAP1 POP JUMP JUMPDEST PUSH0 PUSH1 0x20 DUP3 DUP5 SUB SLT ISZERO PUSH2 0x2720 JUMPI PUSH0 DUP1 REVERT JUMPDEST DUP2 CALLDATALOAD PUSH2 0x1DC7 DUP2 PUSH2 0x25C7 JUMP JUMPDEST PUSH1 0x20 DUP2 MSTORE PUSH0 DUP3 MLOAD DUP1 PUSH1 0x20 DUP5 ADD MSTORE DUP1 PUSH1 0x20 DUP6 ADD PUSH1 0x40 DUP6 ADD MCOPY PUSH0 PUSH1 0x40 DUP3 DUP6 ADD ADD MSTORE PUSH1 0x40 PUSH1 0x1F NOT PUSH1 0x1F DUP4 ADD AND DUP5 ADD ADD SWAP2 POP POP SWAP3 SWAP2 POP POP JUMP JUMPDEST PUSH0 PUSH8 0xFFFFFFFFFFFFFFFF DUP3 GT ISZERO PUSH2 0x2779 JUMPI PUSH2 0x2779 PUSH2 0x2612 JUMP JUMPDEST POP PUSH1 0x5 SHL PUSH1 0x20 ADD SWAP1 JUMP JUMPDEST PUSH0 DUP3 PUSH1 0x1F DUP4 ADD SLT PUSH2 0x2792 JUMPI PUSH0 DUP1 REVERT JUMPDEST DUP2 CALLDATALOAD PUSH2 0x27A5 PUSH2 0x27A0 DUP3 PUSH2 0x2760 JUMP JUMPDEST PUSH2 0x2626 JUMP JUMPDEST DUP1 DUP3 DUP3 MSTORE PUSH1 0x20 DUP3 ADD SWAP2 POP PUSH1 0x20 DUP4 PUSH1 0x5 SHL DUP7 ADD ADD SWAP3 POP DUP6 DUP4 GT ISZERO PUSH2 0x27C6 JUMPI PUSH0 DUP1 REVERT JUMPDEST PUSH1 0x20 DUP6 ADD JUMPDEST DUP4 DUP2 LT ISZERO PUSH2 0x27E3 JUMPI DUP1 CALLDATALOAD DUP4 MSTORE PUSH1 0x20 SWAP3 DUP4 ADD SWAP3 ADD PUSH2 0x27CB JUMP JUMPDEST POP SWAP6 SWAP5 POP POP POP POP POP JUMP JUMPDEST PUSH0 DUP1 PUSH0 DUP1 PUSH0 PUSH1 0xA0 DUP7 DUP9 SUB SLT ISZERO PUSH2 0x2801 JUMPI PUSH0 DUP1 REVERT JUMPDEST DUP6 CALLDATALOAD PUSH2 0x280C DUP2 PUSH2 0x25C7 JUMP JUMPDEST SWAP5 POP PUSH1 0x20 DUP7 ADD CALLDATALOAD PUSH2 0x281C DUP2 PUSH2 0x25C7 JUMP JUMPDEST SWAP4 POP PUSH1 0x40 DUP7 ADD CALLDATALOAD PUSH8 0xFFFFFFFFFFFFFFFF DUP2 GT ISZERO PUSH2 0x2837 JUMPI PUSH0 DUP1 REVERT JUMPDEST PUSH2 0x2843 DUP9 DUP3 DUP10 ADD PUSH2 0x2783 JUMP JUMPDEST SWAP4 POP POP PUSH1 0x60 DUP7 ADD CALLDATALOAD PUSH8 0xFFFFFFFFFFFFFFFF DUP2 GT ISZERO PUSH2 0x285F JUMPI PUSH0 DUP1 REVERT JUMPDEST PUSH2 0x286B DUP9 DUP3 DUP10 ADD PUSH2 0x2783 JUMP JUMPDEST SWAP3 POP POP PUSH1 0x80 DUP7 ADD CALLDATALOAD PUSH8 0xFFFFFFFFFFFFFFFF DUP2 GT ISZERO PUSH2 0x2887 JUMPI PUSH0 DUP1 REVERT JUMPDEST PUSH2 0x2893 DUP9 DUP3 DUP10 ADD PUSH2 0x2657 JUMP JUMPDEST SWAP2 POP POP SWAP3 SWAP6 POP SWAP3 SWAP6 SWAP1 SWAP4 POP JUMP JUMPDEST PUSH0 DUP1 PUSH0 DUP1 PUSH0 DUP1 PUSH0 DUP1 PUSH2 0x100 DUP10 DUP12 SUB SLT ISZERO PUSH2 0x28B8 JUMPI PUSH0 DUP1 REVERT JUMPDEST DUP9 CALLDATALOAD SWAP8 POP PUSH1 0x20 DUP10 ADD CALLDATALOAD SWAP7 POP PUSH1 0x40 DUP10 ADD CALLDATALOAD SWAP6 POP PUSH1 0x60 DUP10 ADD CALLDATALOAD SWAP5 POP PUSH1 0x80 DUP10 ADD CALLDATALOAD SWAP4 POP PUSH1 0xA0 DUP10 ADD CALLDATALOAD PUSH2 0x28E6 DUP2 PUSH2 0x25C7 JUMP JUMPDEST SWAP3 POP PUSH1 0xC0 DUP10 ADD CALLDATALOAD SWAP2 POP PUSH1 0xE0 DUP10 ADD CALLDATALOAD PUSH2 0x28FD DUP2 PUSH2 0x25C7 JUMP JUMPDEST DUP1 SWAP2 POP POP SWAP3 SWAP6 SWAP9 POP SWAP3 SWAP6 SWAP9 SWAP1 SWAP4 SWAP7 POP JUMP JUMPDEST PUSH0 DUP3 PUSH1 0x1F DUP4 ADD SLT PUSH2 0x291D JUMPI PUSH0 DUP1 REVERT JUMPDEST DUP2 CALLDATALOAD PUSH2 0x292B PUSH2 0x27A0 DUP3 PUSH2 0x2760 JUMP JUMPDEST DUP1 DUP3 DUP3 MSTORE PUSH1 0x20 DUP3 ADD SWAP2 POP PUSH1 0x20 DUP4 PUSH1 0x5 SHL DUP7 ADD ADD SWAP3 POP DUP6 DUP4 GT ISZERO PUSH2 0x294C JUMPI PUSH0 DUP1 REVERT JUMPDEST PUSH1 0x20 DUP6 ADD JUMPDEST DUP4 DUP2 LT ISZERO PUSH2 0x27E3 JUMPI DUP1 CALLDATALOAD PUSH2 0x2964 DUP2 PUSH2 0x25C7 JUMP JUMPDEST DUP4 MSTORE PUSH1 0x20 SWAP3 DUP4 ADD SWAP3 ADD PUSH2 0x2951 JUMP JUMPDEST PUSH0 DUP1 PUSH0 DUP1 PUSH0 DUP1 PUSH0 DUP1 PUSH0 PUSH2 0x120 DUP11 DUP13 SUB SLT ISZERO PUSH2 0x298B JUMPI PUSH0 DUP1 REVERT JUMPDEST DUP10 CALLDATALOAD SWAP9 POP PUSH1 0x20 DUP11 ADD CALLDATALOAD SWAP8 POP PUSH1 0x40 DUP11 ADD CALLDATALOAD SWAP7 POP PUSH1 0x60 DUP11 ADD CALLDATALOAD SWAP6 POP PUSH1 0x80 DUP11 ADD CALLDATALOAD SWAP5 POP PUSH1 0xA0 DUP11 ADD CALLDATALOAD SWAP4 POP PUSH1 0xC0 DUP11 ADD CALLDATALOAD PUSH2 0x29C0 DUP2 PUSH2 0x25C7 JUMP JUMPDEST SWAP3 POP PUSH1 0xE0 DUP11 ADD CALLDATALOAD PUSH8 0xFFFFFFFFFFFFFFFF DUP2 GT ISZERO PUSH2 0x29DB JUMPI PUSH0 DUP1 REVERT JUMPDEST PUSH2 0x29E7 DUP13 DUP3 DUP14 ADD PUSH2 0x290E JUMP JUMPDEST SWAP3 POP POP PUSH2 0x100 DUP11 ADD CALLDATALOAD PUSH8 0xFFFFFFFFFFFFFFFF DUP2 GT ISZERO PUSH2 0x2A04 JUMPI PUSH0 DUP1 REVERT JUMPDEST PUSH2 0x2A10 DUP13 DUP3 DUP14 ADD PUSH2 0x2783 JUMP JUMPDEST SWAP2 POP POP SWAP3 SWAP6 SWAP9 POP SWAP3 SWAP6 SWAP9 POP SWAP3 SWAP6 SWAP9 JUMP JUMPDEST PUSH0 DUP1 PUSH0 DUP1 PUSH0 PUSH1 0xA0 DUP7 DUP9 SUB SLT ISZERO PUSH2 0x2A34 JUMPI PUSH0 DUP1 REVERT JUMPDEST DUP6 CALLDATALOAD PUSH2 0x2A3F DUP2 PUSH2 0x25C7 JUMP JUMPDEST SWAP5 POP PUSH1 0x20 DUP7 ADD CALLDATALOAD PUSH2 0x2A4F DUP2 PUSH2 0x25C7 JUMP JUMPDEST SWAP4 POP PUSH1 0x40 DUP7 ADD CALLDATALOAD SWAP3 POP PUSH1 0x60 DUP7 ADD CALLDATALOAD SWAP2 POP PUSH1 0x80 DUP7 ADD CALLDATALOAD PUSH8 0xFFFFFFFFFFFFFFFF DUP2 GT ISZERO PUSH2 0x2887 JUMPI PUSH0 DUP1 REVERT JUMPDEST PUSH0 DUP1 PUSH0 DUP1 PUSH1 0x80 DUP6 DUP8 SUB SLT ISZERO PUSH2 0x2A8B JUMPI PUSH0 DUP1 REVERT JUMPDEST DUP5 MLOAD DUP1 ISZERO ISZERO DUP2 EQ PUSH2 0x2A9A JUMPI PUSH0 DUP1 REVERT JUMPDEST PUSH1 0x20 DUP7 ADD MLOAD PUSH1 0x40 DUP8 ADD MLOAD SWAP2 SWAP6 POP SWAP4 POP PUSH2 0x2AB2 DUP2 PUSH2 0x25C7 JUMP JUMPDEST PUSH1 0x60 DUP7 ADD MLOAD SWAP1 SWAP3 POP PUSH2 0x2AC3 DUP2 PUSH2 0x25C7 JUMP JUMPDEST SWAP4 SWAP7 SWAP3 SWAP6 POP SWAP1 SWAP4 POP POP JUMP JUMPDEST PUSH4 0x4E487B71 PUSH1 0xE0 SHL PUSH0 MSTORE PUSH1 0x11 PUSH1 0x4 MSTORE PUSH1 0x24 PUSH0 REVERT JUMPDEST DUP1 DUP3 ADD DUP1 DUP3 GT ISZERO PUSH2 0x5C0 JUMPI PUSH2 0x5C0 PUSH2 0x2ACE JUMP JUMPDEST DUP2 DUP2 SUB DUP2 DUP2 GT ISZERO PUSH2 0x5C0 JUMPI PUSH2 0x5C0 PUSH2 0x2ACE JUMP JUMPDEST PUSH0 PUSH1 0x1 DUP3 ADD PUSH2 0x2B19 JUMPI PUSH2 0x2B19 PUSH2 0x2ACE JUMP JUMPDEST POP PUSH1 0x1 ADD SWAP1 JUMP JUMPDEST PUSH4 0x4E487B71 PUSH1 0xE0 SHL PUSH0 MSTORE PUSH1 0x32 PUSH1 0x4 MSTORE PUSH1 0x24 PUSH0 REVERT JUMPDEST DUP1 DUP3 MUL DUP2 ISZERO DUP3 DUP3 DIV DUP5 EQ OR PUSH2 0x5C0 JUMPI PUSH2 0x5C0 PUSH2 0x2ACE JUMP JUMPDEST PUSH0 DUP3 PUSH2 0x2B65 JUMPI PUSH4 0x4E487B71 PUSH1 0xE0 SHL PUSH0 MSTORE PUSH1 0x12 PUSH1 0x4 MSTORE PUSH1 0x24 PUSH0 REVERT JUMPDEST POP DIV SWAP1 JUMP JUMPDEST PUSH0 DUP1 PUSH1 0x40 DUP4 DUP6 SUB SLT ISZERO PUSH2 0x2B7B JUMPI PUSH0 DUP1 REVERT JUMPDEST DUP3 MLOAD PUSH1 0x20 DUP5 ADD MLOAD SWAP1 SWAP3 POP PUSH2 0x2607 DUP2 PUSH2 0x25C7 JUMP JUMPDEST PUSH0 PUSH1 0x20 DUP3 DUP5 SUB SLT ISZERO PUSH2 0x2B9E JUMPI PUSH0 DUP1 REVERT JUMPDEST POP MLOAD SWAP2 SWAP1 POP JUMP JUMPDEST PUSH0 DUP3 MLOAD DUP1 PUSH1 0x20 DUP6 ADD DUP5 MCOPY PUSH0 SWAP3 ADD SWAP2 DUP3 MSTORE POP SWAP2 SWAP1 POP JUMP INVALID CALLDATASIZE ADDMOD SWAP5 LOG1 EXTCODESIZE LOG1 LOG3 0x21 MOD PUSH8 0xC828492DB98DCA3E KECCAK256 PUSH23 0xCC3735A920A3CA505D382BBCA2646970667358221220EA PUSH11 0xF4143D66964348AC72C657 SUB RETURNDATASIZE SWAP11 DUP8 SWAP5 0xD0 0x4B 0xAE LOG1 PUSH2 0x49DE PUSH22 0xACF8B5F5C6B464736F6C634300081A00330000000000 "
				},
				"gasEstimates": {
					"creation": {
						"codeDepositCost": "2256200",
						"executionCost": "infinite",
						"totalCost": "infinite"
					},
					"external": {
						"BuyFixedPriceItem(uint256)": "infinite",
						"UPGRADE_INTERFACE_VERSION()": "infinite",
						"adminFeePercentage()": "2317",
						"defaultFiscalFee(address)": "2621",
						"donationInfo(uint256)": "2547",
						"editList(uint256,uint256,uint256,uint256,uint256)": "244412",
						"endAuction(uint256)": "infinite",
						"initialize(address,address)": "infinite",
						"listForOrganizations(uint256,uint256,uint256,uint256,uint256,address,uint256,address)": "infinite",
						"listForUsers(uint256,uint256,uint256,uint256,uint256,uint256,address,address[],uint256[])": "infinite",
						"listId()": "2383",
						"listing(uint256)": "21861",
						"mintingContract()": "2424",
						"mintingContractAddress()": "2469",
						"onERC1155BatchReceived(address,address,uint256[],uint256[],bytes)": "infinite",
						"onERC1155Received(address,address,uint256,uint256,bytes)": "infinite",
						"owner()": "2412",
						"proxiableUUID()": "infinite",
						"renounceOwnership()": "infinite",
						"setFiscalSponsorPercentage(uint256)": "23844",
						"setPlatFormServiceFeePercentage(uint256)": "26005",
						"startBid(uint256)": "infinite",
						"supportsInterface(bytes4)": "447",
						"transferOwnership(address)": "infinite",
						"upgradeToAndCall(address,bytes)": "infinite"
					},
					"internal": {
						"_authorizeUpgrade(address)": "infinite",
						"calulateFee(uint256,uint256)": "infinite",
						"donationFeeTransfer(uint256)": "infinite",
						"sendFiscalFee(uint256,address,uint256)": "infinite",
						"sendRoyalityFee(uint256)": "infinite",
						"setCancelList(uint256)": "infinite",
						"setDonationInfo(uint256,address[] memory,uint256[] memory)": "infinite",
						"setListingInfo(uint256,uint256,uint256,uint256,uint256,address,uint256)": "infinite",
						"setMintingAddress(uint256,uint256,uint256,address)": "infinite",
						"transferFundsInEth(address payable,uint256)": "infinite",
						"transferNft(address,address,address,uint256,uint256)": "infinite"
					}
				},
				"methodIdentifiers": {
					"BuyFixedPriceItem(uint256)": "4c205bc9",
					"UPGRADE_INTERFACE_VERSION()": "ad3cb1cc",
					"adminFeePercentage()": "831490f9",
					"defaultFiscalFee(address)": "7cfd3e18",
					"donationInfo(uint256)": "3d6c0507",
					"editList(uint256,uint256,uint256,uint256,uint256)": "2c0bc695",
					"endAuction(uint256)": "b9a2de3a",
					"initialize(address,address)": "485cc955",
					"listForOrganizations(uint256,uint256,uint256,uint256,uint256,address,uint256,address)": "e30ec386",
					"listForUsers(uint256,uint256,uint256,uint256,uint256,uint256,address,address[],uint256[])": "eafa4039",
					"listId()": "9e898e58",
					"listing(uint256)": "84a184de",
					"mintingContract()": "d2f6f67d",
					"mintingContractAddress()": "824563f6",
					"onERC1155BatchReceived(address,address,uint256[],uint256[],bytes)": "bc197c81",
					"onERC1155Received(address,address,uint256,uint256,bytes)": "f23a6e61",
					"owner()": "8da5cb5b",
					"proxiableUUID()": "52d1902d",
					"renounceOwnership()": "715018a6",
					"setFiscalSponsorPercentage(uint256)": "03c32aa9",
					"setPlatFormServiceFeePercentage(uint256)": "20edda38",
					"startBid(uint256)": "bea7d6e9",
					"supportsInterface(bytes4)": "01ffc9a7",
					"transferOwnership(address)": "f2fde38b",
					"upgradeToAndCall(address,bytes)": "4f1ef286"
				}
			},
			"storageLayout": {
				"storage": [
					{
						"astId": 1729,
						"contract": "ProfitOrg/marketPlace.sol:Marketplace",
						"label": "mintingContract",
						"offset": 0,
						"slot": "0",
						"type": "t_contract(MintingContract)1718"
					},
					{
						"astId": 1731,
						"contract": "ProfitOrg/marketPlace.sol:Marketplace",
						"label": "listId",
						"offset": 0,
						"slot": "1",
						"type": "t_uint256"
					},
					{
						"astId": 1733,
						"contract": "ProfitOrg/marketPlace.sol:Marketplace",
						"label": "adminFeePercentage",
						"offset": 0,
						"slot": "2",
						"type": "t_uint256"
					},
					{
						"astId": 1735,
						"contract": "ProfitOrg/marketPlace.sol:Marketplace",
						"label": "mintingContractAddress",
						"offset": 0,
						"slot": "3",
						"type": "t_address"
					},
					{
						"astId": 1818,
						"contract": "ProfitOrg/marketPlace.sol:Marketplace",
						"label": "listing",
						"offset": 0,
						"slot": "4",
						"type": "t_mapping(t_uint256,t_struct(List)1802_storage)"
					},
					{
						"astId": 1823,
						"contract": "ProfitOrg/marketPlace.sol:Marketplace",
						"label": "donationInfo",
						"offset": 0,
						"slot": "5",
						"type": "t_mapping(t_uint256,t_struct(DonationInfo)1813_storage)"
					},
					{
						"astId": 1827,
						"contract": "ProfitOrg/marketPlace.sol:Marketplace",
						"label": "defaultFiscalFee",
						"offset": 0,
						"slot": "6",
						"type": "t_mapping(t_address,t_uint256)"
					}
				],
				"types": {
					"t_address": {
						"encoding": "inplace",
						"label": "address",
						"numberOfBytes": "20"
					},
					"t_array(t_address)10_storage": {
						"base": "t_address",
						"encoding": "inplace",
						"label": "address[10]",
						"numberOfBytes": "320"
					},
					"t_array(t_uint256)10_storage": {
						"base": "t_uint256",
						"encoding": "inplace",
						"label": "uint256[10]",
						"numberOfBytes": "320"
					},
					"t_bool": {
						"encoding": "inplace",
						"label": "bool",
						"numberOfBytes": "1"
					},
					"t_contract(MintingContract)1718": {
						"encoding": "inplace",
						"label": "contract MintingContract",
						"numberOfBytes": "20"
					},
					"t_mapping(t_address,t_uint256)": {
						"encoding": "mapping",
						"key": "t_address",
						"label": "mapping(address => uint256)",
						"numberOfBytes": "32",
						"value": "t_uint256"
					},
					"t_mapping(t_uint256,t_struct(DonationInfo)1813_storage)": {
						"encoding": "mapping",
						"key": "t_uint256",
						"label": "mapping(uint256 => struct Marketplace.DonationInfo)",
						"numberOfBytes": "32",
						"value": "t_struct(DonationInfo)1813_storage"
					},
					"t_mapping(t_uint256,t_struct(List)1802_storage)": {
						"encoding": "mapping",
						"key": "t_uint256",
						"label": "mapping(uint256 => struct Marketplace.List)",
						"numberOfBytes": "32",
						"value": "t_struct(List)1802_storage"
					},
					"t_struct(DonationInfo)1813_storage": {
						"encoding": "inplace",
						"label": "struct Marketplace.DonationInfo",
						"members": [
							{
								"astId": 1804,
								"contract": "ProfitOrg/marketPlace.sol:Marketplace",
								"label": "noOfOrgazisations",
								"offset": 0,
								"slot": "0",
								"type": "t_uint256"
							},
							{
								"astId": 1808,
								"contract": "ProfitOrg/marketPlace.sol:Marketplace",
								"label": "organizations",
								"offset": 0,
								"slot": "1",
								"type": "t_array(t_address)10_storage"
							},
							{
								"astId": 1812,
								"contract": "ProfitOrg/marketPlace.sol:Marketplace",
								"label": "donatePercentages",
								"offset": 0,
								"slot": "11",
								"type": "t_array(t_uint256)10_storage"
							}
						],
						"numberOfBytes": "672"
					},
					"t_struct(List)1802_storage": {
						"encoding": "inplace",
						"label": "struct Marketplace.List",
						"members": [
							{
								"astId": 1779,
								"contract": "ProfitOrg/marketPlace.sol:Marketplace",
								"label": "listed",
								"offset": 0,
								"slot": "0",
								"type": "t_bool"
							},
							{
								"astId": 1781,
								"contract": "ProfitOrg/marketPlace.sol:Marketplace",
								"label": "nftClaimed",
								"offset": 1,
								"slot": "0",
								"type": "t_bool"
							},
							{
								"astId": 1783,
								"contract": "ProfitOrg/marketPlace.sol:Marketplace",
								"label": "fixedPrice",
								"offset": 2,
								"slot": "0",
								"type": "t_bool"
							},
							{
								"astId": 1785,
								"contract": "ProfitOrg/marketPlace.sol:Marketplace",
								"label": "serviceFeePercentage",
								"offset": 0,
								"slot": "1",
								"type": "t_uint256"
							},
							{
								"astId": 1787,
								"contract": "ProfitOrg/marketPlace.sol:Marketplace",
								"label": "price",
								"offset": 0,
								"slot": "2",
								"type": "t_uint256"
							},
							{
								"astId": 1789,
								"contract": "ProfitOrg/marketPlace.sol:Marketplace",
								"label": "tokenId",
								"offset": 0,
								"slot": "3",
								"type": "t_uint256"
							},
							{
								"astId": 1791,
								"contract": "ProfitOrg/marketPlace.sol:Marketplace",
								"label": "noOfCopies",
								"offset": 0,
								"slot": "4",
								"type": "t_uint256"
							},
							{
								"astId": 1793,
								"contract": "ProfitOrg/marketPlace.sol:Marketplace",
								"label": "nftOwner",
								"offset": 0,
								"slot": "5",
								"type": "t_address"
							},
							{
								"astId": 1795,
								"contract": "ProfitOrg/marketPlace.sol:Marketplace",
								"label": "newOwner",
								"offset": 0,
								"slot": "6",
								"type": "t_address"
							},
							{
								"astId": 1797,
								"contract": "ProfitOrg/marketPlace.sol:Marketplace",
								"label": "nftAddress",
								"offset": 0,
								"slot": "7",
								"type": "t_address"
							},
							{
								"astId": 1799,
								"contract": "ProfitOrg/marketPlace.sol:Marketplace",
								"label": "listingEndTime",
								"offset": 0,
								"slot": "8",
								"type": "t_uint256"
							},
							{
								"astId": 1801,
								"contract": "ProfitOrg/marketPlace.sol:Marketplace",
								"label": "listingStartTime",
								"offset": 0,
								"slot": "9",
								"type": "t_uint256"
							}
						],
						"numberOfBytes": "320"
					},
					"t_uint256": {
						"encoding": "inplace",
						"label": "uint256",
						"numberOfBytes": "32"
					}
				}
			},
			"userdoc": {
				"kind": "user",
				"methods": {},
				"version": 1
			}
		}
	}
}