{
	"ChailLinkAutomation/Farwarder_flattened.sol": {
		"ConfirmedOwner": {
			"abi": [
				{
					"inputs": [
						{
							"internalType": "address",
							"name": "newOwner",
							"type": "address"
						}
					],
					"stateMutability": "nonpayable",
					"type": "constructor"
				},
				{
					"anonymous": false,
					"inputs": [
						{
							"indexed": true,
							"internalType": "address",
							"name": "from",
							"type": "address"
						},
						{
							"indexed": true,
							"internalType": "address",
							"name": "to",
							"type": "address"
						}
					],
					"name": "OwnershipTransferRequested",
					"type": "event"
				},
				{
					"anonymous": false,
					"inputs": [
						{
							"indexed": true,
							"internalType": "address",
							"name": "from",
							"type": "address"
						},
						{
							"indexed": true,
							"internalType": "address",
							"name": "to",
							"type": "address"
						}
					],
					"name": "OwnershipTransferred",
					"type": "event"
				},
				{
					"inputs": [],
					"name": "acceptOwnership",
					"outputs": [],
					"stateMutability": "nonpayable",
					"type": "function"
				},
				{
					"inputs": [],
					"name": "owner",
					"outputs": [
						{
							"internalType": "address",
							"name": "",
							"type": "address"
						}
					],
					"stateMutability": "view",
					"type": "function"
				},
				{
					"inputs": [
						{
							"internalType": "address",
							"name": "to",
							"type": "address"
						}
					],
					"name": "transferOwnership",
					"outputs": [],
					"stateMutability": "nonpayable",
					"type": "function"
				}
			],
			"devdoc": {
				"kind": "dev",
				"methods": {},
				"title": "The ConfirmedOwner contract",
				"version": 1
			},
			"evm": {
				"assembly": "    /* \"ChailLinkAutomation/Farwarder_flattened.sol\":4976:5117  contract ConfirmedOwner is ConfirmedOwnerWithProposal {... */\n  mstore(0x40, 0x80)\n    /* \"ChailLinkAutomation/Farwarder_flattened.sol\":5034:5115  constructor(address newOwner) ConfirmedOwnerWithProposal(newOwner, address(0)) {} */\n  callvalue\n  dup1\n  iszero\n  tag_1\n  jumpi\n  0x00\n  dup1\n  revert\ntag_1:\n  pop\n  mload(0x40)\n  sub(codesize, bytecodeSize)\n  dup1\n  bytecodeSize\n  dup4\n  codecopy\n  dup2\n  dup2\n  add\n  0x40\n  mstore\n  dup2\n  add\n  swap1\n  tag_2\n  swap2\n  swap1\n  tag_3\n  jump\t// in\ntag_2:\n    /* \"ChailLinkAutomation/Farwarder_flattened.sol\":5091:5099  newOwner */\n  dup1\n    /* \"ChailLinkAutomation/Farwarder_flattened.sol\":5109:5110  0 */\n  0x00\n    /* \"ChailLinkAutomation/Farwarder_flattened.sol\":3278:3279  0 */\n  dup1\n    /* \"ChailLinkAutomation/Farwarder_flattened.sol\":3258:3280  newOwner != address(0) */\n  0xffffffffffffffffffffffffffffffffffffffff\n  and\n    /* \"ChailLinkAutomation/Farwarder_flattened.sol\":3258:3266  newOwner */\n  dup3\n    /* \"ChailLinkAutomation/Farwarder_flattened.sol\":3258:3280  newOwner != address(0) */\n  0xffffffffffffffffffffffffffffffffffffffff\n  and\n  sub\n    /* \"ChailLinkAutomation/Farwarder_flattened.sol\":3250:3309  require(newOwner != address(0), \"Cannot set owner to zero\") */\n  tag_7\n  jumpi\n  mload(0x40)\n  0x08c379a000000000000000000000000000000000000000000000000000000000\n  dup2\n  mstore\n  0x04\n  add\n  tag_8\n  swap1\n  tag_9\n  jump\t// in\ntag_8:\n  mload(0x40)\n  dup1\n  swap2\n  sub\n  swap1\n  revert\ntag_7:\n    /* \"ChailLinkAutomation/Farwarder_flattened.sol\":3326:3334  newOwner */\n  dup2\n    /* \"ChailLinkAutomation/Farwarder_flattened.sol\":3316:3323  s_owner */\n  0x00\n  dup1\n    /* \"ChailLinkAutomation/Farwarder_flattened.sol\":3316:3334  s_owner = newOwner */\n  0x0100\n  exp\n  dup2\n  sload\n  dup2\n  0xffffffffffffffffffffffffffffffffffffffff\n  mul\n  not\n  and\n  swap1\n  dup4\n  0xffffffffffffffffffffffffffffffffffffffff\n  and\n  mul\n  or\n  swap1\n  sstore\n  pop\n    /* \"ChailLinkAutomation/Farwarder_flattened.sol\":3368:3369  0 */\n  0x00\n    /* \"ChailLinkAutomation/Farwarder_flattened.sol\":3344:3370  pendingOwner != address(0) */\n  0xffffffffffffffffffffffffffffffffffffffff\n  and\n    /* \"ChailLinkAutomation/Farwarder_flattened.sol\":3344:3356  pendingOwner */\n  dup2\n    /* \"ChailLinkAutomation/Farwarder_flattened.sol\":3344:3370  pendingOwner != address(0) */\n  0xffffffffffffffffffffffffffffffffffffffff\n  and\n  eq\n    /* \"ChailLinkAutomation/Farwarder_flattened.sol\":3340:3419  if (pendingOwner != address(0)) {... */\n  tag_10\n  jumpi\n    /* \"ChailLinkAutomation/Farwarder_flattened.sol\":3380:3412  _transferOwnership(pendingOwner) */\n  tag_11\n    /* \"ChailLinkAutomation/Farwarder_flattened.sol\":3399:3411  pendingOwner */\n  dup2\n    /* \"ChailLinkAutomation/Farwarder_flattened.sol\":3380:3398  _transferOwnership */\n  shl(0x20, tag_12)\n    /* \"ChailLinkAutomation/Farwarder_flattened.sol\":3380:3412  _transferOwnership(pendingOwner) */\n  0x20\n  shr\n  jump\t// in\ntag_11:\n    /* \"ChailLinkAutomation/Farwarder_flattened.sol\":3340:3419  if (pendingOwner != address(0)) {... */\ntag_10:\n    /* \"ChailLinkAutomation/Farwarder_flattened.sol\":3141:3423  constructor(address newOwner, address pendingOwner) {... */\n  pop\n  pop\n    /* \"ChailLinkAutomation/Farwarder_flattened.sol\":5034:5115  constructor(address newOwner) ConfirmedOwnerWithProposal(newOwner, address(0)) {} */\n  pop\n    /* \"ChailLinkAutomation/Farwarder_flattened.sol\":4976:5117  contract ConfirmedOwner is ConfirmedOwnerWithProposal {... */\n  jump(tag_14)\n    /* \"ChailLinkAutomation/Farwarder_flattened.sol\":4196:4435  function _transferOwnership(address to) private {... */\ntag_12:\n    /* \"ChailLinkAutomation/Farwarder_flattened.sol\":4315:4325  msg.sender */\n  caller\n    /* \"ChailLinkAutomation/Farwarder_flattened.sol\":4309:4325  to != msg.sender */\n  0xffffffffffffffffffffffffffffffffffffffff\n  and\n    /* \"ChailLinkAutomation/Farwarder_flattened.sol\":4309:4311  to */\n  dup2\n    /* \"ChailLinkAutomation/Farwarder_flattened.sol\":4309:4325  to != msg.sender */\n  0xffffffffffffffffffffffffffffffffffffffff\n  and\n  sub\n    /* \"ChailLinkAutomation/Farwarder_flattened.sol\":4301:4353  require(to != msg.sender, \"Cannot transfer to self\") */\n  tag_16\n  jumpi\n  mload(0x40)\n  0x08c379a000000000000000000000000000000000000000000000000000000000\n  dup2\n  mstore\n  0x04\n  add\n  tag_17\n  swap1\n  tag_18\n  jump\t// in\ntag_17:\n  mload(0x40)\n  dup1\n  swap2\n  sub\n  swap1\n  revert\ntag_16:\n    /* \"ChailLinkAutomation/Farwarder_flattened.sol\":4377:4379  to */\n  dup1\n    /* \"ChailLinkAutomation/Farwarder_flattened.sol\":4360:4374  s_pendingOwner */\n  0x01\n  0x00\n    /* \"ChailLinkAutomation/Farwarder_flattened.sol\":4360:4379  s_pendingOwner = to */\n  0x0100\n  exp\n  dup2\n  sload\n  dup2\n  0xffffffffffffffffffffffffffffffffffffffff\n  mul\n  not\n  and\n  swap1\n  dup4\n  0xffffffffffffffffffffffffffffffffffffffff\n  and\n  mul\n  or\n  swap1\n  sstore\n  pop\n    /* \"ChailLinkAutomation/Farwarder_flattened.sol\":4427:4429  to */\n  dup1\n    /* \"ChailLinkAutomation/Farwarder_flattened.sol\":4391:4430  OwnershipTransferRequested(s_owner, to) */\n  0xffffffffffffffffffffffffffffffffffffffff\n  and\n    /* \"ChailLinkAutomation/Farwarder_flattened.sol\":4418:4425  s_owner */\n  0x00\n  dup1\n  sload\n  swap1\n  0x0100\n  exp\n  swap1\n  div\n  0xffffffffffffffffffffffffffffffffffffffff\n  and\n    /* \"ChailLinkAutomation/Farwarder_flattened.sol\":4391:4430  OwnershipTransferRequested(s_owner, to) */\n  0xffffffffffffffffffffffffffffffffffffffff\n  and\n  0xed8889f560326eb138920d842192f0eb3dd22b4f139c87a2c57538e05bae1278\n  mload(0x40)\n  mload(0x40)\n  dup1\n  swap2\n  sub\n  swap1\n  log3\n    /* \"ChailLinkAutomation/Farwarder_flattened.sol\":4196:4435  function _transferOwnership(address to) private {... */\n  pop\n  jump\t// out\n    /* \"#utility.yul\":88:205   */\ntag_20:\n    /* \"#utility.yul\":197:198   */\n  0x00\n    /* \"#utility.yul\":194:195   */\n  dup1\n    /* \"#utility.yul\":187:199   */\n  revert\n    /* \"#utility.yul\":334:460   */\ntag_22:\n    /* \"#utility.yul\":371:378   */\n  0x00\n    /* \"#utility.yul\":411:453   */\n  0xffffffffffffffffffffffffffffffffffffffff\n    /* \"#utility.yul\":404:409   */\n  dup3\n    /* \"#utility.yul\":400:454   */\n  and\n    /* \"#utility.yul\":389:454   */\n  swap1\n  pop\n    /* \"#utility.yul\":334:460   */\n  swap2\n  swap1\n  pop\n  jump\t// out\n    /* \"#utility.yul\":466:562   */\ntag_23:\n    /* \"#utility.yul\":503:510   */\n  0x00\n    /* \"#utility.yul\":532:556   */\n  tag_37\n    /* \"#utility.yul\":550:555   */\n  dup3\n    /* \"#utility.yul\":532:556   */\n  tag_22\n  jump\t// in\ntag_37:\n    /* \"#utility.yul\":521:556   */\n  swap1\n  pop\n    /* \"#utility.yul\":466:562   */\n  swap2\n  swap1\n  pop\n  jump\t// out\n    /* \"#utility.yul\":568:690   */\ntag_24:\n    /* \"#utility.yul\":641:665   */\n  tag_39\n    /* \"#utility.yul\":659:664   */\n  dup2\n    /* \"#utility.yul\":641:665   */\n  tag_23\n  jump\t// in\ntag_39:\n    /* \"#utility.yul\":634:639   */\n  dup2\n    /* \"#utility.yul\":631:666   */\n  eq\n    /* \"#utility.yul\":621:684   */\n  tag_40\n  jumpi\n    /* \"#utility.yul\":680:681   */\n  0x00\n    /* \"#utility.yul\":677:678   */\n  dup1\n    /* \"#utility.yul\":670:682   */\n  revert\n    /* \"#utility.yul\":621:684   */\ntag_40:\n    /* \"#utility.yul\":568:690   */\n  pop\n  jump\t// out\n    /* \"#utility.yul\":696:839   */\ntag_25:\n    /* \"#utility.yul\":753:758   */\n  0x00\n    /* \"#utility.yul\":784:790   */\n  dup2\n    /* \"#utility.yul\":778:791   */\n  mload\n    /* \"#utility.yul\":769:791   */\n  swap1\n  pop\n    /* \"#utility.yul\":800:833   */\n  tag_42\n    /* \"#utility.yul\":827:832   */\n  dup2\n    /* \"#utility.yul\":800:833   */\n  tag_24\n  jump\t// in\ntag_42:\n    /* \"#utility.yul\":696:839   */\n  swap3\n  swap2\n  pop\n  pop\n  jump\t// out\n    /* \"#utility.yul\":845:1196   */\ntag_3:\n    /* \"#utility.yul\":915:921   */\n  0x00\n    /* \"#utility.yul\":964:966   */\n  0x20\n    /* \"#utility.yul\":952:961   */\n  dup3\n    /* \"#utility.yul\":943:950   */\n  dup5\n    /* \"#utility.yul\":939:962   */\n  sub\n    /* \"#utility.yul\":935:967   */\n  slt\n    /* \"#utility.yul\":932:1051   */\n  iszero\n  tag_44\n  jumpi\n    /* \"#utility.yul\":970:1049   */\n  tag_45\n  tag_20\n  jump\t// in\ntag_45:\n    /* \"#utility.yul\":932:1051   */\ntag_44:\n    /* \"#utility.yul\":1090:1091   */\n  0x00\n    /* \"#utility.yul\":1115:1179   */\n  tag_46\n    /* \"#utility.yul\":1171:1178   */\n  dup5\n    /* \"#utility.yul\":1162:1168   */\n  dup3\n    /* \"#utility.yul\":1151:1160   */\n  dup6\n    /* \"#utility.yul\":1147:1169   */\n  add\n    /* \"#utility.yul\":1115:1179   */\n  tag_25\n  jump\t// in\ntag_46:\n    /* \"#utility.yul\":1105:1179   */\n  swap2\n  pop\n    /* \"#utility.yul\":1061:1189   */\n  pop\n    /* \"#utility.yul\":845:1196   */\n  swap3\n  swap2\n  pop\n  pop\n  jump\t// out\n    /* \"#utility.yul\":1202:1371   */\ntag_26:\n    /* \"#utility.yul\":1286:1297   */\n  0x00\n    /* \"#utility.yul\":1320:1326   */\n  dup3\n    /* \"#utility.yul\":1315:1318   */\n  dup3\n    /* \"#utility.yul\":1308:1327   */\n  mstore\n    /* \"#utility.yul\":1360:1364   */\n  0x20\n    /* \"#utility.yul\":1355:1358   */\n  dup3\n    /* \"#utility.yul\":1351:1365   */\n  add\n    /* \"#utility.yul\":1336:1365   */\n  swap1\n  pop\n    /* \"#utility.yul\":1202:1371   */\n  swap3\n  swap2\n  pop\n  pop\n  jump\t// out\n    /* \"#utility.yul\":1377:1551   */\ntag_27:\n    /* \"#utility.yul\":1517:1543   */\n  0x43616e6e6f7420736574206f776e657220746f207a65726f0000000000000000\n    /* \"#utility.yul\":1513:1514   */\n  0x00\n    /* \"#utility.yul\":1505:1511   */\n  dup3\n    /* \"#utility.yul\":1501:1515   */\n  add\n    /* \"#utility.yul\":1494:1544   */\n  mstore\n    /* \"#utility.yul\":1377:1551   */\n  pop\n  jump\t// out\n    /* \"#utility.yul\":1557:1923   */\ntag_28:\n    /* \"#utility.yul\":1699:1702   */\n  0x00\n    /* \"#utility.yul\":1720:1787   */\n  tag_50\n    /* \"#utility.yul\":1784:1786   */\n  0x18\n    /* \"#utility.yul\":1779:1782   */\n  dup4\n    /* \"#utility.yul\":1720:1787   */\n  tag_26\n  jump\t// in\ntag_50:\n    /* \"#utility.yul\":1713:1787   */\n  swap2\n  pop\n    /* \"#utility.yul\":1796:1889   */\n  tag_51\n    /* \"#utility.yul\":1885:1888   */\n  dup3\n    /* \"#utility.yul\":1796:1889   */\n  tag_27\n  jump\t// in\ntag_51:\n    /* \"#utility.yul\":1914:1916   */\n  0x20\n    /* \"#utility.yul\":1909:1912   */\n  dup3\n    /* \"#utility.yul\":1905:1917   */\n  add\n    /* \"#utility.yul\":1898:1917   */\n  swap1\n  pop\n    /* \"#utility.yul\":1557:1923   */\n  swap2\n  swap1\n  pop\n  jump\t// out\n    /* \"#utility.yul\":1929:2348   */\ntag_9:\n    /* \"#utility.yul\":2095:2099   */\n  0x00\n    /* \"#utility.yul\":2133:2135   */\n  0x20\n    /* \"#utility.yul\":2122:2131   */\n  dup3\n    /* \"#utility.yul\":2118:2136   */\n  add\n    /* \"#utility.yul\":2110:2136   */\n  swap1\n  pop\n    /* \"#utility.yul\":2182:2191   */\n  dup2\n    /* \"#utility.yul\":2176:2180   */\n  dup2\n    /* \"#utility.yul\":2172:2192   */\n  sub\n    /* \"#utility.yul\":2168:2169   */\n  0x00\n    /* \"#utility.yul\":2157:2166   */\n  dup4\n    /* \"#utility.yul\":2153:2170   */\n  add\n    /* \"#utility.yul\":2146:2193   */\n  mstore\n    /* \"#utility.yul\":2210:2341   */\n  tag_53\n    /* \"#utility.yul\":2336:2340   */\n  dup2\n    /* \"#utility.yul\":2210:2341   */\n  tag_28\n  jump\t// in\ntag_53:\n    /* \"#utility.yul\":2202:2341   */\n  swap1\n  pop\n    /* \"#utility.yul\":1929:2348   */\n  swap2\n  swap1\n  pop\n  jump\t// out\n    /* \"#utility.yul\":2354:2527   */\ntag_29:\n    /* \"#utility.yul\":2494:2519   */\n  0x43616e6e6f74207472616e7366657220746f2073656c66000000000000000000\n    /* \"#utility.yul\":2490:2491   */\n  0x00\n    /* \"#utility.yul\":2482:2488   */\n  dup3\n    /* \"#utility.yul\":2478:2492   */\n  add\n    /* \"#utility.yul\":2471:2520   */\n  mstore\n    /* \"#utility.yul\":2354:2527   */\n  pop\n  jump\t// out\n    /* \"#utility.yul\":2533:2899   */\ntag_30:\n    /* \"#utility.yul\":2675:2678   */\n  0x00\n    /* \"#utility.yul\":2696:2763   */\n  tag_56\n    /* \"#utility.yul\":2760:2762   */\n  0x17\n    /* \"#utility.yul\":2755:2758   */\n  dup4\n    /* \"#utility.yul\":2696:2763   */\n  tag_26\n  jump\t// in\ntag_56:\n    /* \"#utility.yul\":2689:2763   */\n  swap2\n  pop\n    /* \"#utility.yul\":2772:2865   */\n  tag_57\n    /* \"#utility.yul\":2861:2864   */\n  dup3\n    /* \"#utility.yul\":2772:2865   */\n  tag_29\n  jump\t// in\ntag_57:\n    /* \"#utility.yul\":2890:2892   */\n  0x20\n    /* \"#utility.yul\":2885:2888   */\n  dup3\n    /* \"#utility.yul\":2881:2893   */\n  add\n    /* \"#utility.yul\":2874:2893   */\n  swap1\n  pop\n    /* \"#utility.yul\":2533:2899   */\n  swap2\n  swap1\n  pop\n  jump\t// out\n    /* \"#utility.yul\":2905:3324   */\ntag_18:\n    /* \"#utility.yul\":3071:3075   */\n  0x00\n    /* \"#utility.yul\":3109:3111   */\n  0x20\n    /* \"#utility.yul\":3098:3107   */\n  dup3\n    /* \"#utility.yul\":3094:3112   */\n  add\n    /* \"#utility.yul\":3086:3112   */\n  swap1\n  pop\n    /* \"#utility.yul\":3158:3167   */\n  dup2\n    /* \"#utility.yul\":3152:3156   */\n  dup2\n    /* \"#utility.yul\":3148:3168   */\n  sub\n    /* \"#utility.yul\":3144:3145   */\n  0x00\n    /* \"#utility.yul\":3133:3142   */\n  dup4\n    /* \"#utility.yul\":3129:3146   */\n  add\n    /* \"#utility.yul\":3122:3169   */\n  mstore\n    /* \"#utility.yul\":3186:3317   */\n  tag_59\n    /* \"#utility.yul\":3312:3316   */\n  dup2\n    /* \"#utility.yul\":3186:3317   */\n  tag_30\n  jump\t// in\ntag_59:\n    /* \"#utility.yul\":3178:3317   */\n  swap1\n  pop\n    /* \"#utility.yul\":2905:3324   */\n  swap2\n  swap1\n  pop\n  jump\t// out\n    /* \"ChailLinkAutomation/Farwarder_flattened.sol\":4976:5117  contract ConfirmedOwner is ConfirmedOwnerWithProposal {... */\ntag_14:\n  dataSize(sub_0)\n  dup1\n  dataOffset(sub_0)\n  0x00\n  codecopy\n  0x00\n  return\nstop\n\nsub_0: assembly {\n        /* \"ChailLinkAutomation/Farwarder_flattened.sol\":4976:5117  contract ConfirmedOwner is ConfirmedOwnerWithProposal {... */\n      mstore(0x40, 0x80)\n      callvalue\n      dup1\n      iszero\n      tag_1\n      jumpi\n      0x00\n      dup1\n      revert\n    tag_1:\n      pop\n      jumpi(tag_2, lt(calldatasize, 0x04))\n      shr(0xe0, calldataload(0x00))\n      dup1\n      0x79ba5097\n      eq\n      tag_3\n      jumpi\n      dup1\n      0x8da5cb5b\n      eq\n      tag_4\n      jumpi\n      dup1\n      0xf2fde38b\n      eq\n      tag_5\n      jumpi\n    tag_2:\n      0x00\n      dup1\n      revert\n        /* \"ChailLinkAutomation/Farwarder_flattened.sol\":3686:4002  function acceptOwnership() external override {... */\n    tag_3:\n      tag_6\n      tag_7\n      jump\t// in\n    tag_6:\n      stop\n        /* \"ChailLinkAutomation/Farwarder_flattened.sol\":4042:4123  function owner() public view override returns (address) {... */\n    tag_4:\n      tag_8\n      tag_9\n      jump\t// in\n    tag_8:\n      mload(0x40)\n      tag_10\n      swap2\n      swap1\n      tag_11\n      jump\t// in\n    tag_10:\n      mload(0x40)\n      dup1\n      swap2\n      sub\n      swap1\n      return\n        /* \"ChailLinkAutomation/Farwarder_flattened.sol\":3507:3605  function transferOwnership(address to) public override onlyOwner {... */\n    tag_5:\n      tag_12\n      0x04\n      dup1\n      calldatasize\n      sub\n      dup2\n      add\n      swap1\n      tag_13\n      swap2\n      swap1\n      tag_14\n      jump\t// in\n    tag_13:\n      tag_15\n      jump\t// in\n    tag_12:\n      stop\n        /* \"ChailLinkAutomation/Farwarder_flattened.sol\":3686:4002  function acceptOwnership() external override {... */\n    tag_7:\n        /* \"ChailLinkAutomation/Farwarder_flattened.sol\":3810:3824  s_pendingOwner */\n      0x01\n      0x00\n      swap1\n      sload\n      swap1\n      0x0100\n      exp\n      swap1\n      div\n      0xffffffffffffffffffffffffffffffffffffffff\n      and\n        /* \"ChailLinkAutomation/Farwarder_flattened.sol\":3796:3824  msg.sender == s_pendingOwner */\n      0xffffffffffffffffffffffffffffffffffffffff\n      and\n        /* \"ChailLinkAutomation/Farwarder_flattened.sol\":3796:3806  msg.sender */\n      caller\n        /* \"ChailLinkAutomation/Farwarder_flattened.sol\":3796:3824  msg.sender == s_pendingOwner */\n      0xffffffffffffffffffffffffffffffffffffffff\n      and\n      eq\n        /* \"ChailLinkAutomation/Farwarder_flattened.sol\":3788:3851  require(msg.sender == s_pendingOwner, \"Must be proposed owner\") */\n      tag_17\n      jumpi\n      mload(0x40)\n      0x08c379a000000000000000000000000000000000000000000000000000000000\n      dup2\n      mstore\n      0x04\n      add\n      tag_18\n      swap1\n      tag_19\n      jump\t// in\n    tag_18:\n      mload(0x40)\n      dup1\n      swap2\n      sub\n      swap1\n      revert\n    tag_17:\n        /* \"ChailLinkAutomation/Farwarder_flattened.sol\":3858:3874  address oldOwner */\n      0x00\n        /* \"ChailLinkAutomation/Farwarder_flattened.sol\":3877:3884  s_owner */\n      dup1\n      0x00\n      swap1\n      sload\n      swap1\n      0x0100\n      exp\n      swap1\n      div\n      0xffffffffffffffffffffffffffffffffffffffff\n      and\n        /* \"ChailLinkAutomation/Farwarder_flattened.sol\":3858:3884  address oldOwner = s_owner */\n      swap1\n      pop\n        /* \"ChailLinkAutomation/Farwarder_flattened.sol\":3900:3910  msg.sender */\n      caller\n        /* \"ChailLinkAutomation/Farwarder_flattened.sol\":3890:3897  s_owner */\n      0x00\n      dup1\n        /* \"ChailLinkAutomation/Farwarder_flattened.sol\":3890:3910  s_owner = msg.sender */\n      0x0100\n      exp\n      dup2\n      sload\n      dup2\n      0xffffffffffffffffffffffffffffffffffffffff\n      mul\n      not\n      and\n      swap1\n      dup4\n      0xffffffffffffffffffffffffffffffffffffffff\n      and\n      mul\n      or\n      swap1\n      sstore\n      pop\n        /* \"ChailLinkAutomation/Farwarder_flattened.sol\":3941:3942  0 */\n      0x00\n        /* \"ChailLinkAutomation/Farwarder_flattened.sol\":3916:3930  s_pendingOwner */\n      0x01\n      0x00\n        /* \"ChailLinkAutomation/Farwarder_flattened.sol\":3916:3943  s_pendingOwner = address(0) */\n      0x0100\n      exp\n      dup2\n      sload\n      dup2\n      0xffffffffffffffffffffffffffffffffffffffff\n      mul\n      not\n      and\n      swap1\n      dup4\n      0xffffffffffffffffffffffffffffffffffffffff\n      and\n      mul\n      or\n      swap1\n      sstore\n      pop\n        /* \"ChailLinkAutomation/Farwarder_flattened.sol\":3986:3996  msg.sender */\n      caller\n        /* \"ChailLinkAutomation/Farwarder_flattened.sol\":3955:3997  OwnershipTransferred(oldOwner, msg.sender) */\n      0xffffffffffffffffffffffffffffffffffffffff\n      and\n        /* \"ChailLinkAutomation/Farwarder_flattened.sol\":3976:3984  oldOwner */\n      dup2\n        /* \"ChailLinkAutomation/Farwarder_flattened.sol\":3955:3997  OwnershipTransferred(oldOwner, msg.sender) */\n      0xffffffffffffffffffffffffffffffffffffffff\n      and\n      0x8be0079c531659141344cd1fd0a4f28419497f9722a3daafe3b4186f6b6457e0\n      mload(0x40)\n      mload(0x40)\n      dup1\n      swap2\n      sub\n      swap1\n      log3\n        /* \"ChailLinkAutomation/Farwarder_flattened.sol\":3731:4002  {... */\n      pop\n        /* \"ChailLinkAutomation/Farwarder_flattened.sol\":3686:4002  function acceptOwnership() external override {... */\n      jump\t// out\n        /* \"ChailLinkAutomation/Farwarder_flattened.sol\":4042:4123  function owner() public view override returns (address) {... */\n    tag_9:\n        /* \"ChailLinkAutomation/Farwarder_flattened.sol\":4089:4096  address */\n      0x00\n        /* \"ChailLinkAutomation/Farwarder_flattened.sol\":4111:4118  s_owner */\n      dup1\n      0x00\n      swap1\n      sload\n      swap1\n      0x0100\n      exp\n      swap1\n      div\n      0xffffffffffffffffffffffffffffffffffffffff\n      and\n        /* \"ChailLinkAutomation/Farwarder_flattened.sol\":4104:4118  return s_owner */\n      swap1\n      pop\n        /* \"ChailLinkAutomation/Farwarder_flattened.sol\":4042:4123  function owner() public view override returns (address) {... */\n      swap1\n      jump\t// out\n        /* \"ChailLinkAutomation/Farwarder_flattened.sol\":3507:3605  function transferOwnership(address to) public override onlyOwner {... */\n    tag_15:\n        /* \"ChailLinkAutomation/Farwarder_flattened.sol\":4735:4755  _validateOwnership() */\n      tag_22\n        /* \"ChailLinkAutomation/Farwarder_flattened.sol\":4735:4753  _validateOwnership */\n      tag_23\n        /* \"ChailLinkAutomation/Farwarder_flattened.sol\":4735:4755  _validateOwnership() */\n      jump\t// in\n    tag_22:\n        /* \"ChailLinkAutomation/Farwarder_flattened.sol\":3578:3600  _transferOwnership(to) */\n      tag_25\n        /* \"ChailLinkAutomation/Farwarder_flattened.sol\":3597:3599  to */\n      dup2\n        /* \"ChailLinkAutomation/Farwarder_flattened.sol\":3578:3596  _transferOwnership */\n      tag_26\n        /* \"ChailLinkAutomation/Farwarder_flattened.sol\":3578:3600  _transferOwnership(to) */\n      jump\t// in\n    tag_25:\n        /* \"ChailLinkAutomation/Farwarder_flattened.sol\":3507:3605  function transferOwnership(address to) public override onlyOwner {... */\n      pop\n      jump\t// out\n        /* \"ChailLinkAutomation/Farwarder_flattened.sol\":4469:4631  function _validateOwnership() internal view {... */\n    tag_23:\n        /* \"ChailLinkAutomation/Farwarder_flattened.sol\":4592:4599  s_owner */\n      0x00\n      dup1\n      sload\n      swap1\n      0x0100\n      exp\n      swap1\n      div\n      0xffffffffffffffffffffffffffffffffffffffff\n      and\n        /* \"ChailLinkAutomation/Farwarder_flattened.sol\":4578:4599  msg.sender == s_owner */\n      0xffffffffffffffffffffffffffffffffffffffff\n      and\n        /* \"ChailLinkAutomation/Farwarder_flattened.sol\":4578:4588  msg.sender */\n      caller\n        /* \"ChailLinkAutomation/Farwarder_flattened.sol\":4578:4599  msg.sender == s_owner */\n      0xffffffffffffffffffffffffffffffffffffffff\n      and\n      eq\n        /* \"ChailLinkAutomation/Farwarder_flattened.sol\":4570:4626  require(msg.sender == s_owner, \"Only callable by owner\") */\n      tag_28\n      jumpi\n      mload(0x40)\n      0x08c379a000000000000000000000000000000000000000000000000000000000\n      dup2\n      mstore\n      0x04\n      add\n      tag_29\n      swap1\n      tag_30\n      jump\t// in\n    tag_29:\n      mload(0x40)\n      dup1\n      swap2\n      sub\n      swap1\n      revert\n    tag_28:\n        /* \"ChailLinkAutomation/Farwarder_flattened.sol\":4469:4631  function _validateOwnership() internal view {... */\n      jump\t// out\n        /* \"ChailLinkAutomation/Farwarder_flattened.sol\":4196:4435  function _transferOwnership(address to) private {... */\n    tag_26:\n        /* \"ChailLinkAutomation/Farwarder_flattened.sol\":4315:4325  msg.sender */\n      caller\n        /* \"ChailLinkAutomation/Farwarder_flattened.sol\":4309:4325  to != msg.sender */\n      0xffffffffffffffffffffffffffffffffffffffff\n      and\n        /* \"ChailLinkAutomation/Farwarder_flattened.sol\":4309:4311  to */\n      dup2\n        /* \"ChailLinkAutomation/Farwarder_flattened.sol\":4309:4325  to != msg.sender */\n      0xffffffffffffffffffffffffffffffffffffffff\n      and\n      sub\n        /* \"ChailLinkAutomation/Farwarder_flattened.sol\":4301:4353  require(to != msg.sender, \"Cannot transfer to self\") */\n      tag_32\n      jumpi\n      mload(0x40)\n      0x08c379a000000000000000000000000000000000000000000000000000000000\n      dup2\n      mstore\n      0x04\n      add\n      tag_33\n      swap1\n      tag_34\n      jump\t// in\n    tag_33:\n      mload(0x40)\n      dup1\n      swap2\n      sub\n      swap1\n      revert\n    tag_32:\n        /* \"ChailLinkAutomation/Farwarder_flattened.sol\":4377:4379  to */\n      dup1\n        /* \"ChailLinkAutomation/Farwarder_flattened.sol\":4360:4374  s_pendingOwner */\n      0x01\n      0x00\n        /* \"ChailLinkAutomation/Farwarder_flattened.sol\":4360:4379  s_pendingOwner = to */\n      0x0100\n      exp\n      dup2\n      sload\n      dup2\n      0xffffffffffffffffffffffffffffffffffffffff\n      mul\n      not\n      and\n      swap1\n      dup4\n      0xffffffffffffffffffffffffffffffffffffffff\n      and\n      mul\n      or\n      swap1\n      sstore\n      pop\n        /* \"ChailLinkAutomation/Farwarder_flattened.sol\":4427:4429  to */\n      dup1\n        /* \"ChailLinkAutomation/Farwarder_flattened.sol\":4391:4430  OwnershipTransferRequested(s_owner, to) */\n      0xffffffffffffffffffffffffffffffffffffffff\n      and\n        /* \"ChailLinkAutomation/Farwarder_flattened.sol\":4418:4425  s_owner */\n      0x00\n      dup1\n      sload\n      swap1\n      0x0100\n      exp\n      swap1\n      div\n      0xffffffffffffffffffffffffffffffffffffffff\n      and\n        /* \"ChailLinkAutomation/Farwarder_flattened.sol\":4391:4430  OwnershipTransferRequested(s_owner, to) */\n      0xffffffffffffffffffffffffffffffffffffffff\n      and\n      0xed8889f560326eb138920d842192f0eb3dd22b4f139c87a2c57538e05bae1278\n      mload(0x40)\n      mload(0x40)\n      dup1\n      swap2\n      sub\n      swap1\n      log3\n        /* \"ChailLinkAutomation/Farwarder_flattened.sol\":4196:4435  function _transferOwnership(address to) private {... */\n      pop\n      jump\t// out\n        /* \"#utility.yul\":7:133   */\n    tag_35:\n        /* \"#utility.yul\":44:51   */\n      0x00\n        /* \"#utility.yul\":84:126   */\n      0xffffffffffffffffffffffffffffffffffffffff\n        /* \"#utility.yul\":77:82   */\n      dup3\n        /* \"#utility.yul\":73:127   */\n      and\n        /* \"#utility.yul\":62:127   */\n      swap1\n      pop\n        /* \"#utility.yul\":7:133   */\n      swap2\n      swap1\n      pop\n      jump\t// out\n        /* \"#utility.yul\":139:235   */\n    tag_36:\n        /* \"#utility.yul\":176:183   */\n      0x00\n        /* \"#utility.yul\":205:229   */\n      tag_53\n        /* \"#utility.yul\":223:228   */\n      dup3\n        /* \"#utility.yul\":205:229   */\n      tag_35\n      jump\t// in\n    tag_53:\n        /* \"#utility.yul\":194:229   */\n      swap1\n      pop\n        /* \"#utility.yul\":139:235   */\n      swap2\n      swap1\n      pop\n      jump\t// out\n        /* \"#utility.yul\":241:359   */\n    tag_37:\n        /* \"#utility.yul\":328:352   */\n      tag_55\n        /* \"#utility.yul\":346:351   */\n      dup2\n        /* \"#utility.yul\":328:352   */\n      tag_36\n      jump\t// in\n    tag_55:\n        /* \"#utility.yul\":323:326   */\n      dup3\n        /* \"#utility.yul\":316:353   */\n      mstore\n        /* \"#utility.yul\":241:359   */\n      pop\n      pop\n      jump\t// out\n        /* \"#utility.yul\":365:587   */\n    tag_11:\n        /* \"#utility.yul\":458:462   */\n      0x00\n        /* \"#utility.yul\":496:498   */\n      0x20\n        /* \"#utility.yul\":485:494   */\n      dup3\n        /* \"#utility.yul\":481:499   */\n      add\n        /* \"#utility.yul\":473:499   */\n      swap1\n      pop\n        /* \"#utility.yul\":509:580   */\n      tag_57\n        /* \"#utility.yul\":577:578   */\n      0x00\n        /* \"#utility.yul\":566:575   */\n      dup4\n        /* \"#utility.yul\":562:579   */\n      add\n        /* \"#utility.yul\":553:559   */\n      dup5\n        /* \"#utility.yul\":509:580   */\n      tag_37\n      jump\t// in\n    tag_57:\n        /* \"#utility.yul\":365:587   */\n      swap3\n      swap2\n      pop\n      pop\n      jump\t// out\n        /* \"#utility.yul\":674:791   */\n    tag_39:\n        /* \"#utility.yul\":783:784   */\n      0x00\n        /* \"#utility.yul\":780:781   */\n      dup1\n        /* \"#utility.yul\":773:785   */\n      revert\n        /* \"#utility.yul\":920:1042   */\n    tag_41:\n        /* \"#utility.yul\":993:1017   */\n      tag_62\n        /* \"#utility.yul\":1011:1016   */\n      dup2\n        /* \"#utility.yul\":993:1017   */\n      tag_36\n      jump\t// in\n    tag_62:\n        /* \"#utility.yul\":986:991   */\n      dup2\n        /* \"#utility.yul\":983:1018   */\n      eq\n        /* \"#utility.yul\":973:1036   */\n      tag_63\n      jumpi\n        /* \"#utility.yul\":1032:1033   */\n      0x00\n        /* \"#utility.yul\":1029:1030   */\n      dup1\n        /* \"#utility.yul\":1022:1034   */\n      revert\n        /* \"#utility.yul\":973:1036   */\n    tag_63:\n        /* \"#utility.yul\":920:1042   */\n      pop\n      jump\t// out\n        /* \"#utility.yul\":1048:1187   */\n    tag_42:\n        /* \"#utility.yul\":1094:1099   */\n      0x00\n        /* \"#utility.yul\":1132:1138   */\n      dup2\n        /* \"#utility.yul\":1119:1139   */\n      calldataload\n        /* \"#utility.yul\":1110:1139   */\n      swap1\n      pop\n        /* \"#utility.yul\":1148:1181   */\n      tag_65\n        /* \"#utility.yul\":1175:1180   */\n      dup2\n        /* \"#utility.yul\":1148:1181   */\n      tag_41\n      jump\t// in\n    tag_65:\n        /* \"#utility.yul\":1048:1187   */\n      swap3\n      swap2\n      pop\n      pop\n      jump\t// out\n        /* \"#utility.yul\":1193:1522   */\n    tag_14:\n        /* \"#utility.yul\":1252:1258   */\n      0x00\n        /* \"#utility.yul\":1301:1303   */\n      0x20\n        /* \"#utility.yul\":1289:1298   */\n      dup3\n        /* \"#utility.yul\":1280:1287   */\n      dup5\n        /* \"#utility.yul\":1276:1299   */\n      sub\n        /* \"#utility.yul\":1272:1304   */\n      slt\n        /* \"#utility.yul\":1269:1388   */\n      iszero\n      tag_67\n      jumpi\n        /* \"#utility.yul\":1307:1386   */\n      tag_68\n      tag_39\n      jump\t// in\n    tag_68:\n        /* \"#utility.yul\":1269:1388   */\n    tag_67:\n        /* \"#utility.yul\":1427:1428   */\n      0x00\n        /* \"#utility.yul\":1452:1505   */\n      tag_69\n        /* \"#utility.yul\":1497:1504   */\n      dup5\n        /* \"#utility.yul\":1488:1494   */\n      dup3\n        /* \"#utility.yul\":1477:1486   */\n      dup6\n        /* \"#utility.yul\":1473:1495   */\n      add\n        /* \"#utility.yul\":1452:1505   */\n      tag_42\n      jump\t// in\n    tag_69:\n        /* \"#utility.yul\":1442:1505   */\n      swap2\n      pop\n        /* \"#utility.yul\":1398:1515   */\n      pop\n        /* \"#utility.yul\":1193:1522   */\n      swap3\n      swap2\n      pop\n      pop\n      jump\t// out\n        /* \"#utility.yul\":1528:1697   */\n    tag_43:\n        /* \"#utility.yul\":1612:1623   */\n      0x00\n        /* \"#utility.yul\":1646:1652   */\n      dup3\n        /* \"#utility.yul\":1641:1644   */\n      dup3\n        /* \"#utility.yul\":1634:1653   */\n      mstore\n        /* \"#utility.yul\":1686:1690   */\n      0x20\n        /* \"#utility.yul\":1681:1684   */\n      dup3\n        /* \"#utility.yul\":1677:1691   */\n      add\n        /* \"#utility.yul\":1662:1691   */\n      swap1\n      pop\n        /* \"#utility.yul\":1528:1697   */\n      swap3\n      swap2\n      pop\n      pop\n      jump\t// out\n        /* \"#utility.yul\":1703:1875   */\n    tag_44:\n        /* \"#utility.yul\":1843:1867   */\n      0x4d7573742062652070726f706f736564206f776e657200000000000000000000\n        /* \"#utility.yul\":1839:1840   */\n      0x00\n        /* \"#utility.yul\":1831:1837   */\n      dup3\n        /* \"#utility.yul\":1827:1841   */\n      add\n        /* \"#utility.yul\":1820:1868   */\n      mstore\n        /* \"#utility.yul\":1703:1875   */\n      pop\n      jump\t// out\n        /* \"#utility.yul\":1881:2247   */\n    tag_45:\n        /* \"#utility.yul\":2023:2026   */\n      0x00\n        /* \"#utility.yul\":2044:2111   */\n      tag_73\n        /* \"#utility.yul\":2108:2110   */\n      0x16\n        /* \"#utility.yul\":2103:2106   */\n      dup4\n        /* \"#utility.yul\":2044:2111   */\n      tag_43\n      jump\t// in\n    tag_73:\n        /* \"#utility.yul\":2037:2111   */\n      swap2\n      pop\n        /* \"#utility.yul\":2120:2213   */\n      tag_74\n        /* \"#utility.yul\":2209:2212   */\n      dup3\n        /* \"#utility.yul\":2120:2213   */\n      tag_44\n      jump\t// in\n    tag_74:\n        /* \"#utility.yul\":2238:2240   */\n      0x20\n        /* \"#utility.yul\":2233:2236   */\n      dup3\n        /* \"#utility.yul\":2229:2241   */\n      add\n        /* \"#utility.yul\":2222:2241   */\n      swap1\n      pop\n        /* \"#utility.yul\":1881:2247   */\n      swap2\n      swap1\n      pop\n      jump\t// out\n        /* \"#utility.yul\":2253:2672   */\n    tag_19:\n        /* \"#utility.yul\":2419:2423   */\n      0x00\n        /* \"#utility.yul\":2457:2459   */\n      0x20\n        /* \"#utility.yul\":2446:2455   */\n      dup3\n        /* \"#utility.yul\":2442:2460   */\n      add\n        /* \"#utility.yul\":2434:2460   */\n      swap1\n      pop\n        /* \"#utility.yul\":2506:2515   */\n      dup2\n        /* \"#utility.yul\":2500:2504   */\n      dup2\n        /* \"#utility.yul\":2496:2516   */\n      sub\n        /* \"#utility.yul\":2492:2493   */\n      0x00\n        /* \"#utility.yul\":2481:2490   */\n      dup4\n        /* \"#utility.yul\":2477:2494   */\n      add\n        /* \"#utility.yul\":2470:2517   */\n      mstore\n        /* \"#utility.yul\":2534:2665   */\n      tag_76\n        /* \"#utility.yul\":2660:2664   */\n      dup2\n        /* \"#utility.yul\":2534:2665   */\n      tag_45\n      jump\t// in\n    tag_76:\n        /* \"#utility.yul\":2526:2665   */\n      swap1\n      pop\n        /* \"#utility.yul\":2253:2672   */\n      swap2\n      swap1\n      pop\n      jump\t// out\n        /* \"#utility.yul\":2678:2850   */\n    tag_46:\n        /* \"#utility.yul\":2818:2842   */\n      0x4f6e6c792063616c6c61626c65206279206f776e657200000000000000000000\n        /* \"#utility.yul\":2814:2815   */\n      0x00\n        /* \"#utility.yul\":2806:2812   */\n      dup3\n        /* \"#utility.yul\":2802:2816   */\n      add\n        /* \"#utility.yul\":2795:2843   */\n      mstore\n        /* \"#utility.yul\":2678:2850   */\n      pop\n      jump\t// out\n        /* \"#utility.yul\":2856:3222   */\n    tag_47:\n        /* \"#utility.yul\":2998:3001   */\n      0x00\n        /* \"#utility.yul\":3019:3086   */\n      tag_79\n        /* \"#utility.yul\":3083:3085   */\n      0x16\n        /* \"#utility.yul\":3078:3081   */\n      dup4\n        /* \"#utility.yul\":3019:3086   */\n      tag_43\n      jump\t// in\n    tag_79:\n        /* \"#utility.yul\":3012:3086   */\n      swap2\n      pop\n        /* \"#utility.yul\":3095:3188   */\n      tag_80\n        /* \"#utility.yul\":3184:3187   */\n      dup3\n        /* \"#utility.yul\":3095:3188   */\n      tag_46\n      jump\t// in\n    tag_80:\n        /* \"#utility.yul\":3213:3215   */\n      0x20\n        /* \"#utility.yul\":3208:3211   */\n      dup3\n        /* \"#utility.yul\":3204:3216   */\n      add\n        /* \"#utility.yul\":3197:3216   */\n      swap1\n      pop\n        /* \"#utility.yul\":2856:3222   */\n      swap2\n      swap1\n      pop\n      jump\t// out\n        /* \"#utility.yul\":3228:3647   */\n    tag_30:\n        /* \"#utility.yul\":3394:3398   */\n      0x00\n        /* \"#utility.yul\":3432:3434   */\n      0x20\n        /* \"#utility.yul\":3421:3430   */\n      dup3\n        /* \"#utility.yul\":3417:3435   */\n      add\n        /* \"#utility.yul\":3409:3435   */\n      swap1\n      pop\n        /* \"#utility.yul\":3481:3490   */\n      dup2\n        /* \"#utility.yul\":3475:3479   */\n      dup2\n        /* \"#utility.yul\":3471:3491   */\n      sub\n        /* \"#utility.yul\":3467:3468   */\n      0x00\n        /* \"#utility.yul\":3456:3465   */\n      dup4\n        /* \"#utility.yul\":3452:3469   */\n      add\n        /* \"#utility.yul\":3445:3492   */\n      mstore\n        /* \"#utility.yul\":3509:3640   */\n      tag_82\n        /* \"#utility.yul\":3635:3639   */\n      dup2\n        /* \"#utility.yul\":3509:3640   */\n      tag_47\n      jump\t// in\n    tag_82:\n        /* \"#utility.yul\":3501:3640   */\n      swap1\n      pop\n        /* \"#utility.yul\":3228:3647   */\n      swap2\n      swap1\n      pop\n      jump\t// out\n        /* \"#utility.yul\":3653:3826   */\n    tag_48:\n        /* \"#utility.yul\":3793:3818   */\n      0x43616e6e6f74207472616e7366657220746f2073656c66000000000000000000\n        /* \"#utility.yul\":3789:3790   */\n      0x00\n        /* \"#utility.yul\":3781:3787   */\n      dup3\n        /* \"#utility.yul\":3777:3791   */\n      add\n        /* \"#utility.yul\":3770:3819   */\n      mstore\n        /* \"#utility.yul\":3653:3826   */\n      pop\n      jump\t// out\n        /* \"#utility.yul\":3832:4198   */\n    tag_49:\n        /* \"#utility.yul\":3974:3977   */\n      0x00\n        /* \"#utility.yul\":3995:4062   */\n      tag_85\n        /* \"#utility.yul\":4059:4061   */\n      0x17\n        /* \"#utility.yul\":4054:4057   */\n      dup4\n        /* \"#utility.yul\":3995:4062   */\n      tag_43\n      jump\t// in\n    tag_85:\n        /* \"#utility.yul\":3988:4062   */\n      swap2\n      pop\n        /* \"#utility.yul\":4071:4164   */\n      tag_86\n        /* \"#utility.yul\":4160:4163   */\n      dup3\n        /* \"#utility.yul\":4071:4164   */\n      tag_48\n      jump\t// in\n    tag_86:\n        /* \"#utility.yul\":4189:4191   */\n      0x20\n        /* \"#utility.yul\":4184:4187   */\n      dup3\n        /* \"#utility.yul\":4180:4192   */\n      add\n        /* \"#utility.yul\":4173:4192   */\n      swap1\n      pop\n        /* \"#utility.yul\":3832:4198   */\n      swap2\n      swap1\n      pop\n      jump\t// out\n        /* \"#utility.yul\":4204:4623   */\n    tag_34:\n        /* \"#utility.yul\":4370:4374   */\n      0x00\n        /* \"#utility.yul\":4408:4410   */\n      0x20\n        /* \"#utility.yul\":4397:4406   */\n      dup3\n        /* \"#utility.yul\":4393:4411   */\n      add\n        /* \"#utility.yul\":4385:4411   */\n      swap1\n      pop\n        /* \"#utility.yul\":4457:4466   */\n      dup2\n        /* \"#utility.yul\":4451:4455   */\n      dup2\n        /* \"#utility.yul\":4447:4467   */\n      sub\n        /* \"#utility.yul\":4443:4444   */\n      0x00\n        /* \"#utility.yul\":4432:4441   */\n      dup4\n        /* \"#utility.yul\":4428:4445   */\n      add\n        /* \"#utility.yul\":4421:4468   */\n      mstore\n        /* \"#utility.yul\":4485:4616   */\n      tag_88\n        /* \"#utility.yul\":4611:4615   */\n      dup2\n        /* \"#utility.yul\":4485:4616   */\n      tag_49\n      jump\t// in\n    tag_88:\n        /* \"#utility.yul\":4477:4616   */\n      swap1\n      pop\n        /* \"#utility.yul\":4204:4623   */\n      swap2\n      swap1\n      pop\n      jump\t// out\n\n    auxdata: 0xa264697066735822122060de8d729113c8ddbcf44491cb89412ea6de6942b02ae5028005c92b2aab9a2c64736f6c63430008130033\n}\n",
				"bytecode": {
					"linkReferences": {},
					"object": "608060405234801561001057600080fd5b50604051610a40380380610a40833981810160405281019061003291906102be565b8060008073ffffffffffffffffffffffffffffffffffffffff168273ffffffffffffffffffffffffffffffffffffffff16036100a3576040517f08c379a000000000000000000000000000000000000000000000000000000000815260040161009a90610348565b60405180910390fd5b816000806101000a81548173ffffffffffffffffffffffffffffffffffffffff021916908373ffffffffffffffffffffffffffffffffffffffff160217905550600073ffffffffffffffffffffffffffffffffffffffff168173ffffffffffffffffffffffffffffffffffffffff1614610127576101268161012f60201b60201c565b5b5050506103d4565b3373ffffffffffffffffffffffffffffffffffffffff168173ffffffffffffffffffffffffffffffffffffffff160361019d576040517f08c379a0000000000000000000000000000000000000000000000000000000008152600401610194906103b4565b60405180910390fd5b80600160006101000a81548173ffffffffffffffffffffffffffffffffffffffff021916908373ffffffffffffffffffffffffffffffffffffffff1602179055508073ffffffffffffffffffffffffffffffffffffffff1660008054906101000a900473ffffffffffffffffffffffffffffffffffffffff1673ffffffffffffffffffffffffffffffffffffffff167fed8889f560326eb138920d842192f0eb3dd22b4f139c87a2c57538e05bae127860405160405180910390a350565b600080fd5b600073ffffffffffffffffffffffffffffffffffffffff82169050919050565b600061028b82610260565b9050919050565b61029b81610280565b81146102a657600080fd5b50565b6000815190506102b881610292565b92915050565b6000602082840312156102d4576102d361025b565b5b60006102e2848285016102a9565b91505092915050565b600082825260208201905092915050565b7f43616e6e6f7420736574206f776e657220746f207a65726f0000000000000000600082015250565b60006103326018836102eb565b915061033d826102fc565b602082019050919050565b6000602082019050818103600083015261036181610325565b9050919050565b7f43616e6e6f74207472616e7366657220746f2073656c66000000000000000000600082015250565b600061039e6017836102eb565b91506103a982610368565b602082019050919050565b600060208201905081810360008301526103cd81610391565b9050919050565b61065d806103e36000396000f3fe608060405234801561001057600080fd5b50600436106100415760003560e01c806379ba5097146100465780638da5cb5b14610050578063f2fde38b1461006e575b600080fd5b61004e61008a565b005b61005861021f565b6040516100659190610459565b60405180910390f35b610088600480360381019061008391906104a5565b610248565b005b600160009054906101000a900473ffffffffffffffffffffffffffffffffffffffff1673ffffffffffffffffffffffffffffffffffffffff163373ffffffffffffffffffffffffffffffffffffffff161461011a576040517f08c379a00000000000000000000000000000000000000000000000000000000081526004016101119061052f565b60405180910390fd5b60008060009054906101000a900473ffffffffffffffffffffffffffffffffffffffff169050336000806101000a81548173ffffffffffffffffffffffffffffffffffffffff021916908373ffffffffffffffffffffffffffffffffffffffff1602179055506000600160006101000a81548173ffffffffffffffffffffffffffffffffffffffff021916908373ffffffffffffffffffffffffffffffffffffffff1602179055503373ffffffffffffffffffffffffffffffffffffffff168173ffffffffffffffffffffffffffffffffffffffff167f8be0079c531659141344cd1fd0a4f28419497f9722a3daafe3b4186f6b6457e060405160405180910390a350565b60008060009054906101000a900473ffffffffffffffffffffffffffffffffffffffff16905090565b61025061025c565b610259816102ec565b50565b60008054906101000a900473ffffffffffffffffffffffffffffffffffffffff1673ffffffffffffffffffffffffffffffffffffffff163373ffffffffffffffffffffffffffffffffffffffff16146102ea576040517f08c379a00000000000000000000000000000000000000000000000000000000081526004016102e19061059b565b60405180910390fd5b565b3373ffffffffffffffffffffffffffffffffffffffff168173ffffffffffffffffffffffffffffffffffffffff160361035a576040517f08c379a000000000000000000000000000000000000000000000000000000000815260040161035190610607565b60405180910390fd5b80600160006101000a81548173ffffffffffffffffffffffffffffffffffffffff021916908373ffffffffffffffffffffffffffffffffffffffff1602179055508073ffffffffffffffffffffffffffffffffffffffff1660008054906101000a900473ffffffffffffffffffffffffffffffffffffffff1673ffffffffffffffffffffffffffffffffffffffff167fed8889f560326eb138920d842192f0eb3dd22b4f139c87a2c57538e05bae127860405160405180910390a350565b600073ffffffffffffffffffffffffffffffffffffffff82169050919050565b600061044382610418565b9050919050565b61045381610438565b82525050565b600060208201905061046e600083018461044a565b92915050565b600080fd5b61048281610438565b811461048d57600080fd5b50565b60008135905061049f81610479565b92915050565b6000602082840312156104bb576104ba610474565b5b60006104c984828501610490565b91505092915050565b600082825260208201905092915050565b7f4d7573742062652070726f706f736564206f776e657200000000000000000000600082015250565b60006105196016836104d2565b9150610524826104e3565b602082019050919050565b600060208201905081810360008301526105488161050c565b9050919050565b7f4f6e6c792063616c6c61626c65206279206f776e657200000000000000000000600082015250565b60006105856016836104d2565b91506105908261054f565b602082019050919050565b600060208201905081810360008301526105b481610578565b9050919050565b7f43616e6e6f74207472616e7366657220746f2073656c66000000000000000000600082015250565b60006105f16017836104d2565b91506105fc826105bb565b602082019050919050565b60006020820190508181036000830152610620816105e4565b905091905056fea264697066735822122060de8d729113c8ddbcf44491cb89412ea6de6942b02ae5028005c92b2aab9a2c64736f6c63430008130033",
					"opcodes": "PUSH1 0x80 PUSH1 0x40 MSTORE CALLVALUE DUP1 ISZERO PUSH2 0x10 JUMPI PUSH1 0x0 DUP1 REVERT JUMPDEST POP PUSH1 0x40 MLOAD PUSH2 0xA40 CODESIZE SUB DUP1 PUSH2 0xA40 DUP4 CODECOPY DUP2 DUP2 ADD PUSH1 0x40 MSTORE DUP2 ADD SWAP1 PUSH2 0x32 SWAP2 SWAP1 PUSH2 0x2BE JUMP JUMPDEST DUP1 PUSH1 0x0 DUP1 PUSH20 0xFFFFFFFFFFFFFFFFFFFFFFFFFFFFFFFFFFFFFFFF AND DUP3 PUSH20 0xFFFFFFFFFFFFFFFFFFFFFFFFFFFFFFFFFFFFFFFF AND SUB PUSH2 0xA3 JUMPI PUSH1 0x40 MLOAD PUSH32 0x8C379A000000000000000000000000000000000000000000000000000000000 DUP2 MSTORE PUSH1 0x4 ADD PUSH2 0x9A SWAP1 PUSH2 0x348 JUMP JUMPDEST PUSH1 0x40 MLOAD DUP1 SWAP2 SUB SWAP1 REVERT JUMPDEST DUP2 PUSH1 0x0 DUP1 PUSH2 0x100 EXP DUP2 SLOAD DUP2 PUSH20 0xFFFFFFFFFFFFFFFFFFFFFFFFFFFFFFFFFFFFFFFF MUL NOT AND SWAP1 DUP4 PUSH20 0xFFFFFFFFFFFFFFFFFFFFFFFFFFFFFFFFFFFFFFFF AND MUL OR SWAP1 SSTORE POP PUSH1 0x0 PUSH20 0xFFFFFFFFFFFFFFFFFFFFFFFFFFFFFFFFFFFFFFFF AND DUP2 PUSH20 0xFFFFFFFFFFFFFFFFFFFFFFFFFFFFFFFFFFFFFFFF AND EQ PUSH2 0x127 JUMPI PUSH2 0x126 DUP2 PUSH2 0x12F PUSH1 0x20 SHL PUSH1 0x20 SHR JUMP JUMPDEST JUMPDEST POP POP POP PUSH2 0x3D4 JUMP JUMPDEST CALLER PUSH20 0xFFFFFFFFFFFFFFFFFFFFFFFFFFFFFFFFFFFFFFFF AND DUP2 PUSH20 0xFFFFFFFFFFFFFFFFFFFFFFFFFFFFFFFFFFFFFFFF AND SUB PUSH2 0x19D JUMPI PUSH1 0x40 MLOAD PUSH32 0x8C379A000000000000000000000000000000000000000000000000000000000 DUP2 MSTORE PUSH1 0x4 ADD PUSH2 0x194 SWAP1 PUSH2 0x3B4 JUMP JUMPDEST PUSH1 0x40 MLOAD DUP1 SWAP2 SUB SWAP1 REVERT JUMPDEST DUP1 PUSH1 0x1 PUSH1 0x0 PUSH2 0x100 EXP DUP2 SLOAD DUP2 PUSH20 0xFFFFFFFFFFFFFFFFFFFFFFFFFFFFFFFFFFFFFFFF MUL NOT AND SWAP1 DUP4 PUSH20 0xFFFFFFFFFFFFFFFFFFFFFFFFFFFFFFFFFFFFFFFF AND MUL OR SWAP1 SSTORE POP DUP1 PUSH20 0xFFFFFFFFFFFFFFFFFFFFFFFFFFFFFFFFFFFFFFFF AND PUSH1 0x0 DUP1 SLOAD SWAP1 PUSH2 0x100 EXP SWAP1 DIV PUSH20 0xFFFFFFFFFFFFFFFFFFFFFFFFFFFFFFFFFFFFFFFF AND PUSH20 0xFFFFFFFFFFFFFFFFFFFFFFFFFFFFFFFFFFFFFFFF AND PUSH32 0xED8889F560326EB138920D842192F0EB3DD22B4F139C87A2C57538E05BAE1278 PUSH1 0x40 MLOAD PUSH1 0x40 MLOAD DUP1 SWAP2 SUB SWAP1 LOG3 POP JUMP JUMPDEST PUSH1 0x0 DUP1 REVERT JUMPDEST PUSH1 0x0 PUSH20 0xFFFFFFFFFFFFFFFFFFFFFFFFFFFFFFFFFFFFFFFF DUP3 AND SWAP1 POP SWAP2 SWAP1 POP JUMP JUMPDEST PUSH1 0x0 PUSH2 0x28B DUP3 PUSH2 0x260 JUMP JUMPDEST SWAP1 POP SWAP2 SWAP1 POP JUMP JUMPDEST PUSH2 0x29B DUP2 PUSH2 0x280 JUMP JUMPDEST DUP2 EQ PUSH2 0x2A6 JUMPI PUSH1 0x0 DUP1 REVERT JUMPDEST POP JUMP JUMPDEST PUSH1 0x0 DUP2 MLOAD SWAP1 POP PUSH2 0x2B8 DUP2 PUSH2 0x292 JUMP JUMPDEST SWAP3 SWAP2 POP POP JUMP JUMPDEST PUSH1 0x0 PUSH1 0x20 DUP3 DUP5 SUB SLT ISZERO PUSH2 0x2D4 JUMPI PUSH2 0x2D3 PUSH2 0x25B JUMP JUMPDEST JUMPDEST PUSH1 0x0 PUSH2 0x2E2 DUP5 DUP3 DUP6 ADD PUSH2 0x2A9 JUMP JUMPDEST SWAP2 POP POP SWAP3 SWAP2 POP POP JUMP JUMPDEST PUSH1 0x0 DUP3 DUP3 MSTORE PUSH1 0x20 DUP3 ADD SWAP1 POP SWAP3 SWAP2 POP POP JUMP JUMPDEST PUSH32 0x43616E6E6F7420736574206F776E657220746F207A65726F0000000000000000 PUSH1 0x0 DUP3 ADD MSTORE POP JUMP JUMPDEST PUSH1 0x0 PUSH2 0x332 PUSH1 0x18 DUP4 PUSH2 0x2EB JUMP JUMPDEST SWAP2 POP PUSH2 0x33D DUP3 PUSH2 0x2FC JUMP JUMPDEST PUSH1 0x20 DUP3 ADD SWAP1 POP SWAP2 SWAP1 POP JUMP JUMPDEST PUSH1 0x0 PUSH1 0x20 DUP3 ADD SWAP1 POP DUP2 DUP2 SUB PUSH1 0x0 DUP4 ADD MSTORE PUSH2 0x361 DUP2 PUSH2 0x325 JUMP JUMPDEST SWAP1 POP SWAP2 SWAP1 POP JUMP JUMPDEST PUSH32 0x43616E6E6F74207472616E7366657220746F2073656C66000000000000000000 PUSH1 0x0 DUP3 ADD MSTORE POP JUMP JUMPDEST PUSH1 0x0 PUSH2 0x39E PUSH1 0x17 DUP4 PUSH2 0x2EB JUMP JUMPDEST SWAP2 POP PUSH2 0x3A9 DUP3 PUSH2 0x368 JUMP JUMPDEST PUSH1 0x20 DUP3 ADD SWAP1 POP SWAP2 SWAP1 POP JUMP JUMPDEST PUSH1 0x0 PUSH1 0x20 DUP3 ADD SWAP1 POP DUP2 DUP2 SUB PUSH1 0x0 DUP4 ADD MSTORE PUSH2 0x3CD DUP2 PUSH2 0x391 JUMP JUMPDEST SWAP1 POP SWAP2 SWAP1 POP JUMP JUMPDEST PUSH2 0x65D DUP1 PUSH2 0x3E3 PUSH1 0x0 CODECOPY PUSH1 0x0 RETURN INVALID PUSH1 0x80 PUSH1 0x40 MSTORE CALLVALUE DUP1 ISZERO PUSH2 0x10 JUMPI PUSH1 0x0 DUP1 REVERT JUMPDEST POP PUSH1 0x4 CALLDATASIZE LT PUSH2 0x41 JUMPI PUSH1 0x0 CALLDATALOAD PUSH1 0xE0 SHR DUP1 PUSH4 0x79BA5097 EQ PUSH2 0x46 JUMPI DUP1 PUSH4 0x8DA5CB5B EQ PUSH2 0x50 JUMPI DUP1 PUSH4 0xF2FDE38B EQ PUSH2 0x6E JUMPI JUMPDEST PUSH1 0x0 DUP1 REVERT JUMPDEST PUSH2 0x4E PUSH2 0x8A JUMP JUMPDEST STOP JUMPDEST PUSH2 0x58 PUSH2 0x21F JUMP JUMPDEST PUSH1 0x40 MLOAD PUSH2 0x65 SWAP2 SWAP1 PUSH2 0x459 JUMP JUMPDEST PUSH1 0x40 MLOAD DUP1 SWAP2 SUB SWAP1 RETURN JUMPDEST PUSH2 0x88 PUSH1 0x4 DUP1 CALLDATASIZE SUB DUP2 ADD SWAP1 PUSH2 0x83 SWAP2 SWAP1 PUSH2 0x4A5 JUMP JUMPDEST PUSH2 0x248 JUMP JUMPDEST STOP JUMPDEST PUSH1 0x1 PUSH1 0x0 SWAP1 SLOAD SWAP1 PUSH2 0x100 EXP SWAP1 DIV PUSH20 0xFFFFFFFFFFFFFFFFFFFFFFFFFFFFFFFFFFFFFFFF AND PUSH20 0xFFFFFFFFFFFFFFFFFFFFFFFFFFFFFFFFFFFFFFFF AND CALLER PUSH20 0xFFFFFFFFFFFFFFFFFFFFFFFFFFFFFFFFFFFFFFFF AND EQ PUSH2 0x11A JUMPI PUSH1 0x40 MLOAD PUSH32 0x8C379A000000000000000000000000000000000000000000000000000000000 DUP2 MSTORE PUSH1 0x4 ADD PUSH2 0x111 SWAP1 PUSH2 0x52F JUMP JUMPDEST PUSH1 0x40 MLOAD DUP1 SWAP2 SUB SWAP1 REVERT JUMPDEST PUSH1 0x0 DUP1 PUSH1 0x0 SWAP1 SLOAD SWAP1 PUSH2 0x100 EXP SWAP1 DIV PUSH20 0xFFFFFFFFFFFFFFFFFFFFFFFFFFFFFFFFFFFFFFFF AND SWAP1 POP CALLER PUSH1 0x0 DUP1 PUSH2 0x100 EXP DUP2 SLOAD DUP2 PUSH20 0xFFFFFFFFFFFFFFFFFFFFFFFFFFFFFFFFFFFFFFFF MUL NOT AND SWAP1 DUP4 PUSH20 0xFFFFFFFFFFFFFFFFFFFFFFFFFFFFFFFFFFFFFFFF AND MUL OR SWAP1 SSTORE POP PUSH1 0x0 PUSH1 0x1 PUSH1 0x0 PUSH2 0x100 EXP DUP2 SLOAD DUP2 PUSH20 0xFFFFFFFFFFFFFFFFFFFFFFFFFFFFFFFFFFFFFFFF MUL NOT AND SWAP1 DUP4 PUSH20 0xFFFFFFFFFFFFFFFFFFFFFFFFFFFFFFFFFFFFFFFF AND MUL OR SWAP1 SSTORE POP CALLER PUSH20 0xFFFFFFFFFFFFFFFFFFFFFFFFFFFFFFFFFFFFFFFF AND DUP2 PUSH20 0xFFFFFFFFFFFFFFFFFFFFFFFFFFFFFFFFFFFFFFFF AND PUSH32 0x8BE0079C531659141344CD1FD0A4F28419497F9722A3DAAFE3B4186F6B6457E0 PUSH1 0x40 MLOAD PUSH1 0x40 MLOAD DUP1 SWAP2 SUB SWAP1 LOG3 POP JUMP JUMPDEST PUSH1 0x0 DUP1 PUSH1 0x0 SWAP1 SLOAD SWAP1 PUSH2 0x100 EXP SWAP1 DIV PUSH20 0xFFFFFFFFFFFFFFFFFFFFFFFFFFFFFFFFFFFFFFFF AND SWAP1 POP SWAP1 JUMP JUMPDEST PUSH2 0x250 PUSH2 0x25C JUMP JUMPDEST PUSH2 0x259 DUP2 PUSH2 0x2EC JUMP JUMPDEST POP JUMP JUMPDEST PUSH1 0x0 DUP1 SLOAD SWAP1 PUSH2 0x100 EXP SWAP1 DIV PUSH20 0xFFFFFFFFFFFFFFFFFFFFFFFFFFFFFFFFFFFFFFFF AND PUSH20 0xFFFFFFFFFFFFFFFFFFFFFFFFFFFFFFFFFFFFFFFF AND CALLER PUSH20 0xFFFFFFFFFFFFFFFFFFFFFFFFFFFFFFFFFFFFFFFF AND EQ PUSH2 0x2EA JUMPI PUSH1 0x40 MLOAD PUSH32 0x8C379A000000000000000000000000000000000000000000000000000000000 DUP2 MSTORE PUSH1 0x4 ADD PUSH2 0x2E1 SWAP1 PUSH2 0x59B JUMP JUMPDEST PUSH1 0x40 MLOAD DUP1 SWAP2 SUB SWAP1 REVERT JUMPDEST JUMP JUMPDEST CALLER PUSH20 0xFFFFFFFFFFFFFFFFFFFFFFFFFFFFFFFFFFFFFFFF AND DUP2 PUSH20 0xFFFFFFFFFFFFFFFFFFFFFFFFFFFFFFFFFFFFFFFF AND SUB PUSH2 0x35A JUMPI PUSH1 0x40 MLOAD PUSH32 0x8C379A000000000000000000000000000000000000000000000000000000000 DUP2 MSTORE PUSH1 0x4 ADD PUSH2 0x351 SWAP1 PUSH2 0x607 JUMP JUMPDEST PUSH1 0x40 MLOAD DUP1 SWAP2 SUB SWAP1 REVERT JUMPDEST DUP1 PUSH1 0x1 PUSH1 0x0 PUSH2 0x100 EXP DUP2 SLOAD DUP2 PUSH20 0xFFFFFFFFFFFFFFFFFFFFFFFFFFFFFFFFFFFFFFFF MUL NOT AND SWAP1 DUP4 PUSH20 0xFFFFFFFFFFFFFFFFFFFFFFFFFFFFFFFFFFFFFFFF AND MUL OR SWAP1 SSTORE POP DUP1 PUSH20 0xFFFFFFFFFFFFFFFFFFFFFFFFFFFFFFFFFFFFFFFF AND PUSH1 0x0 DUP1 SLOAD SWAP1 PUSH2 0x100 EXP SWAP1 DIV PUSH20 0xFFFFFFFFFFFFFFFFFFFFFFFFFFFFFFFFFFFFFFFF AND PUSH20 0xFFFFFFFFFFFFFFFFFFFFFFFFFFFFFFFFFFFFFFFF AND PUSH32 0xED8889F560326EB138920D842192F0EB3DD22B4F139C87A2C57538E05BAE1278 PUSH1 0x40 MLOAD PUSH1 0x40 MLOAD DUP1 SWAP2 SUB SWAP1 LOG3 POP JUMP JUMPDEST PUSH1 0x0 PUSH20 0xFFFFFFFFFFFFFFFFFFFFFFFFFFFFFFFFFFFFFFFF DUP3 AND SWAP1 POP SWAP2 SWAP1 POP JUMP JUMPDEST PUSH1 0x0 PUSH2 0x443 DUP3 PUSH2 0x418 JUMP JUMPDEST SWAP1 POP SWAP2 SWAP1 POP JUMP JUMPDEST PUSH2 0x453 DUP2 PUSH2 0x438 JUMP JUMPDEST DUP3 MSTORE POP POP JUMP JUMPDEST PUSH1 0x0 PUSH1 0x20 DUP3 ADD SWAP1 POP PUSH2 0x46E PUSH1 0x0 DUP4 ADD DUP5 PUSH2 0x44A JUMP JUMPDEST SWAP3 SWAP2 POP POP JUMP JUMPDEST PUSH1 0x0 DUP1 REVERT JUMPDEST PUSH2 0x482 DUP2 PUSH2 0x438 JUMP JUMPDEST DUP2 EQ PUSH2 0x48D JUMPI PUSH1 0x0 DUP1 REVERT JUMPDEST POP JUMP JUMPDEST PUSH1 0x0 DUP2 CALLDATALOAD SWAP1 POP PUSH2 0x49F DUP2 PUSH2 0x479 JUMP JUMPDEST SWAP3 SWAP2 POP POP JUMP JUMPDEST PUSH1 0x0 PUSH1 0x20 DUP3 DUP5 SUB SLT ISZERO PUSH2 0x4BB JUMPI PUSH2 0x4BA PUSH2 0x474 JUMP JUMPDEST JUMPDEST PUSH1 0x0 PUSH2 0x4C9 DUP5 DUP3 DUP6 ADD PUSH2 0x490 JUMP JUMPDEST SWAP2 POP POP SWAP3 SWAP2 POP POP JUMP JUMPDEST PUSH1 0x0 DUP3 DUP3 MSTORE PUSH1 0x20 DUP3 ADD SWAP1 POP SWAP3 SWAP2 POP POP JUMP JUMPDEST PUSH32 0x4D7573742062652070726F706F736564206F776E657200000000000000000000 PUSH1 0x0 DUP3 ADD MSTORE POP JUMP JUMPDEST PUSH1 0x0 PUSH2 0x519 PUSH1 0x16 DUP4 PUSH2 0x4D2 JUMP JUMPDEST SWAP2 POP PUSH2 0x524 DUP3 PUSH2 0x4E3 JUMP JUMPDEST PUSH1 0x20 DUP3 ADD SWAP1 POP SWAP2 SWAP1 POP JUMP JUMPDEST PUSH1 0x0 PUSH1 0x20 DUP3 ADD SWAP1 POP DUP2 DUP2 SUB PUSH1 0x0 DUP4 ADD MSTORE PUSH2 0x548 DUP2 PUSH2 0x50C JUMP JUMPDEST SWAP1 POP SWAP2 SWAP1 POP JUMP JUMPDEST PUSH32 0x4F6E6C792063616C6C61626C65206279206F776E657200000000000000000000 PUSH1 0x0 DUP3 ADD MSTORE POP JUMP JUMPDEST PUSH1 0x0 PUSH2 0x585 PUSH1 0x16 DUP4 PUSH2 0x4D2 JUMP JUMPDEST SWAP2 POP PUSH2 0x590 DUP3 PUSH2 0x54F JUMP JUMPDEST PUSH1 0x20 DUP3 ADD SWAP1 POP SWAP2 SWAP1 POP JUMP JUMPDEST PUSH1 0x0 PUSH1 0x20 DUP3 ADD SWAP1 POP DUP2 DUP2 SUB PUSH1 0x0 DUP4 ADD MSTORE PUSH2 0x5B4 DUP2 PUSH2 0x578 JUMP JUMPDEST SWAP1 POP SWAP2 SWAP1 POP JUMP JUMPDEST PUSH32 0x43616E6E6F74207472616E7366657220746F2073656C66000000000000000000 PUSH1 0x0 DUP3 ADD MSTORE POP JUMP JUMPDEST PUSH1 0x0 PUSH2 0x5F1 PUSH1 0x17 DUP4 PUSH2 0x4D2 JUMP JUMPDEST SWAP2 POP PUSH2 0x5FC DUP3 PUSH2 0x5BB JUMP JUMPDEST PUSH1 0x20 DUP3 ADD SWAP1 POP SWAP2 SWAP1 POP JUMP JUMPDEST PUSH1 0x0 PUSH1 0x20 DUP3 ADD SWAP1 POP DUP2 DUP2 SUB PUSH1 0x0 DUP4 ADD MSTORE PUSH2 0x620 DUP2 PUSH2 0x5E4 JUMP JUMPDEST SWAP1 POP SWAP2 SWAP1 POP JUMP INVALID LOG2 PUSH5 0x6970667358 0x22 SLT KECCAK256 PUSH1 0xDE DUP14 PUSH19 0x9113C8DDBCF44491CB89412EA6DE6942B02AE5 MUL DUP1 SDIV 0xC9 0x2B 0x2A 0xAB SWAP11 0x2C PUSH5 0x736F6C6343 STOP ADDMOD SGT STOP CALLER "
				},
				"gasEstimates": {
					"creation": {
						"codeDepositCost": "325800",
						"executionCost": "infinite",
						"totalCost": "infinite"
					},
					"external": {
						"acceptOwnership()": "54518",
						"owner()": "2522",
						"transferOwnership(address)": "30676"
					}
				},
				"methodIdentifiers": {
					"acceptOwnership()": "79ba5097",
					"owner()": "8da5cb5b",
					"transferOwnership(address)": "f2fde38b"
				}
			},
			"storageLayout": {
				"storage": [
					{
						"astId": 39,
						"contract": "ChailLinkAutomation/Farwarder_flattened.sol:ConfirmedOwner",
						"label": "s_owner",
						"offset": 0,
						"slot": "0",
						"type": "t_address"
					},
					{
						"astId": 41,
						"contract": "ChailLinkAutomation/Farwarder_flattened.sol:ConfirmedOwner",
						"label": "s_pendingOwner",
						"offset": 0,
						"slot": "1",
						"type": "t_address"
					}
				],
				"types": {
					"t_address": {
						"encoding": "inplace",
						"label": "address",
						"numberOfBytes": "20"
					}
				}
			},
			"userdoc": {
				"kind": "user",
				"methods": {
					"acceptOwnership()": {
						"notice": "Allows an ownership transfer to be completed by the recipient."
					},
					"owner()": {
						"notice": "Get the current owner"
					},
					"transferOwnership(address)": {
						"notice": "Allows an owner to begin transferring ownership to a new address."
					}
				},
				"notice": "A contract with helpers for basic contract ownership.",
				"version": 1
			}
		}
	}
}