{
	"ChailLinkAutomation/customizedUpkeepNewLogic.sol": {
		"CounterwForwarder": {
			"abi": [
				{
					"inputs": [],
					"stateMutability": "nonpayable",
					"type": "constructor"
				},
				{
					"anonymous": false,
					"inputs": [
						{
							"indexed": true,
							"internalType": "address",
							"name": "from",
							"type": "address"
						},
						{
							"indexed": true,
							"internalType": "address",
							"name": "to",
							"type": "address"
						}
					],
					"name": "OwnershipTransferRequested",
					"type": "event"
				},
				{
					"anonymous": false,
					"inputs": [
						{
							"indexed": true,
							"internalType": "address",
							"name": "from",
							"type": "address"
						},
						{
							"indexed": true,
							"internalType": "address",
							"name": "to",
							"type": "address"
						}
					],
					"name": "OwnershipTransferred",
					"type": "event"
				},
				{
					"inputs": [],
					"name": "acceptOwnership",
					"outputs": [],
					"stateMutability": "nonpayable",
					"type": "function"
				},
				{
					"inputs": [
						{
							"internalType": "bytes",
							"name": "",
							"type": "bytes"
						}
					],
					"name": "checkUpkeep",
					"outputs": [
						{
							"internalType": "bool",
							"name": "",
							"type": "bool"
						},
						{
							"internalType": "bytes",
							"name": "",
							"type": "bytes"
						}
					],
					"stateMutability": "view",
					"type": "function"
				},
				{
					"inputs": [],
					"name": "counter",
					"outputs": [
						{
							"internalType": "uint256",
							"name": "",
							"type": "uint256"
						}
					],
					"stateMutability": "view",
					"type": "function"
				},
				{
					"inputs": [],
					"name": "interval",
					"outputs": [
						{
							"internalType": "uint256",
							"name": "",
							"type": "uint256"
						}
					],
					"stateMutability": "view",
					"type": "function"
				},
				{
					"inputs": [],
					"name": "lastTimeStamp",
					"outputs": [
						{
							"internalType": "uint256",
							"name": "",
							"type": "uint256"
						}
					],
					"stateMutability": "view",
					"type": "function"
				},
				{
					"inputs": [],
					"name": "off",
					"outputs": [],
					"stateMutability": "nonpayable",
					"type": "function"
				},
				{
					"inputs": [],
					"name": "owner",
					"outputs": [
						{
							"internalType": "address",
							"name": "",
							"type": "address"
						}
					],
					"stateMutability": "view",
					"type": "function"
				},
				{
					"inputs": [
						{
							"internalType": "bytes",
							"name": "",
							"type": "bytes"
						}
					],
					"name": "performUpkeep",
					"outputs": [],
					"stateMutability": "nonpayable",
					"type": "function"
				},
				{
					"inputs": [],
					"name": "s_forwarderAddress",
					"outputs": [
						{
							"internalType": "address",
							"name": "",
							"type": "address"
						}
					],
					"stateMutability": "view",
					"type": "function"
				},
				{
					"inputs": [
						{
							"internalType": "address",
							"name": "forwarderAddress",
							"type": "address"
						}
					],
					"name": "setForwarderAddress",
					"outputs": [],
					"stateMutability": "nonpayable",
					"type": "function"
				},
				{
					"inputs": [
						{
							"internalType": "uint256",
							"name": "updateInterval",
							"type": "uint256"
						}
					],
					"name": "setInterval",
					"outputs": [],
					"stateMutability": "nonpayable",
					"type": "function"
				},
				{
					"inputs": [],
					"name": "timeeupwork",
					"outputs": [
						{
							"internalType": "uint256",
							"name": "",
							"type": "uint256"
						}
					],
					"stateMutability": "view",
					"type": "function"
				},
				{
					"inputs": [
						{
							"internalType": "address",
							"name": "to",
							"type": "address"
						}
					],
					"name": "transferOwnership",
					"outputs": [],
					"stateMutability": "nonpayable",
					"type": "function"
				}
			],
			"devdoc": {
				"kind": "dev",
				"methods": {
					"setForwarderAddress(address)": {
						"details": "Only callable by the owner",
						"params": {
							"forwarderAddress": "the address to set"
						}
					}
				},
				"version": 1
			},
			"evm": {
				"assembly": "    /* \"ChailLinkAutomation/customizedUpkeepNewLogic.sol\":603:2261  contract CounterwForwarder is AutomationCompatibleInterface, OwnerIsCreator {... */\n  mstore(0x40, 0x80)\n    /* \"ChailLinkAutomation/customizedUpkeepNewLogic.sol\":968:997  constructor() {... */\n  callvalue\n  dup1\n  iszero\n  tag_1\n  jumpi\n  0x00\n  dup1\n  revert\ntag_1:\n  pop\n    /* \"@chainlink/contracts@1.2.0/src/v0.8/shared/access/OwnerIsCreator.sol\":291:301  msg.sender */\n  caller\n    /* \"@chainlink/contracts@1.2.0/src/v0.8/shared/access/ConfirmedOwner.sol\":355:363  newOwner */\n  dup1\n    /* \"@chainlink/contracts@1.2.0/src/v0.8/shared/access/ConfirmedOwner.sol\":373:374  0 */\n  0x00\n    /* \"@chainlink/contracts@1.2.0/src/v0.8/shared/access/ConfirmedOwnerWithProposal.sol\":618:619  0 */\n  dup1\n    /* \"@chainlink/contracts@1.2.0/src/v0.8/shared/access/ConfirmedOwnerWithProposal.sol\":598:620  newOwner != address(0) */\n  0xffffffffffffffffffffffffffffffffffffffff\n  and\n    /* \"@chainlink/contracts@1.2.0/src/v0.8/shared/access/ConfirmedOwnerWithProposal.sol\":598:606  newOwner */\n  dup3\n    /* \"@chainlink/contracts@1.2.0/src/v0.8/shared/access/ConfirmedOwnerWithProposal.sol\":598:620  newOwner != address(0) */\n  0xffffffffffffffffffffffffffffffffffffffff\n  and\n  sub\n    /* \"@chainlink/contracts@1.2.0/src/v0.8/shared/access/ConfirmedOwnerWithProposal.sol\":590:649  require(newOwner != address(0), \"Cannot set owner to zero\") */\n  tag_7\n  jumpi\n  mload(0x40)\n  0x08c379a000000000000000000000000000000000000000000000000000000000\n  dup2\n  mstore\n  0x04\n  add\n  tag_8\n  swap1\n  tag_9\n  jump\t// in\ntag_8:\n  mload(0x40)\n  dup1\n  swap2\n  sub\n  swap1\n  revert\ntag_7:\n    /* \"@chainlink/contracts@1.2.0/src/v0.8/shared/access/ConfirmedOwnerWithProposal.sol\":666:674  newOwner */\n  dup2\n    /* \"@chainlink/contracts@1.2.0/src/v0.8/shared/access/ConfirmedOwnerWithProposal.sol\":656:663  s_owner */\n  0x00\n  dup1\n    /* \"@chainlink/contracts@1.2.0/src/v0.8/shared/access/ConfirmedOwnerWithProposal.sol\":656:674  s_owner = newOwner */\n  0x0100\n  exp\n  dup2\n  sload\n  dup2\n  0xffffffffffffffffffffffffffffffffffffffff\n  mul\n  not\n  and\n  swap1\n  dup4\n  0xffffffffffffffffffffffffffffffffffffffff\n  and\n  mul\n  or\n  swap1\n  sstore\n  pop\n    /* \"@chainlink/contracts@1.2.0/src/v0.8/shared/access/ConfirmedOwnerWithProposal.sol\":708:709  0 */\n  0x00\n    /* \"@chainlink/contracts@1.2.0/src/v0.8/shared/access/ConfirmedOwnerWithProposal.sol\":684:710  pendingOwner != address(0) */\n  0xffffffffffffffffffffffffffffffffffffffff\n  and\n    /* \"@chainlink/contracts@1.2.0/src/v0.8/shared/access/ConfirmedOwnerWithProposal.sol\":684:696  pendingOwner */\n  dup2\n    /* \"@chainlink/contracts@1.2.0/src/v0.8/shared/access/ConfirmedOwnerWithProposal.sol\":684:710  pendingOwner != address(0) */\n  0xffffffffffffffffffffffffffffffffffffffff\n  and\n  eq\n    /* \"@chainlink/contracts@1.2.0/src/v0.8/shared/access/ConfirmedOwnerWithProposal.sol\":680:759  if (pendingOwner != address(0)) {... */\n  tag_10\n  jumpi\n    /* \"@chainlink/contracts@1.2.0/src/v0.8/shared/access/ConfirmedOwnerWithProposal.sol\":720:752  _transferOwnership(pendingOwner) */\n  tag_11\n    /* \"@chainlink/contracts@1.2.0/src/v0.8/shared/access/ConfirmedOwnerWithProposal.sol\":739:751  pendingOwner */\n  dup2\n    /* \"@chainlink/contracts@1.2.0/src/v0.8/shared/access/ConfirmedOwnerWithProposal.sol\":720:738  _transferOwnership */\n  shl(0x20, tag_12)\n    /* \"@chainlink/contracts@1.2.0/src/v0.8/shared/access/ConfirmedOwnerWithProposal.sol\":720:752  _transferOwnership(pendingOwner) */\n  0x20\n  shr\n  jump\t// in\ntag_11:\n    /* \"@chainlink/contracts@1.2.0/src/v0.8/shared/access/ConfirmedOwnerWithProposal.sol\":680:759  if (pendingOwner != address(0)) {... */\ntag_10:\n    /* \"@chainlink/contracts@1.2.0/src/v0.8/shared/access/ConfirmedOwnerWithProposal.sol\":481:763  constructor(address newOwner, address pendingOwner) {... */\n  pop\n  pop\n    /* \"@chainlink/contracts@1.2.0/src/v0.8/shared/access/ConfirmedOwner.sol\":298:379  constructor(address newOwner) ConfirmedOwnerWithProposal(newOwner, address(0)) {} */\n  pop\n    /* \"ChailLinkAutomation/customizedUpkeepNewLogic.sol\":603:2261  contract CounterwForwarder is AutomationCompatibleInterface, OwnerIsCreator {... */\n  jump(tag_16)\n    /* \"@chainlink/contracts@1.2.0/src/v0.8/shared/access/ConfirmedOwnerWithProposal.sol\":1536:1775  function _transferOwnership(address to) private {... */\ntag_12:\n    /* \"@chainlink/contracts@1.2.0/src/v0.8/shared/access/ConfirmedOwnerWithProposal.sol\":1655:1665  msg.sender */\n  caller\n    /* \"@chainlink/contracts@1.2.0/src/v0.8/shared/access/ConfirmedOwnerWithProposal.sol\":1649:1665  to != msg.sender */\n  0xffffffffffffffffffffffffffffffffffffffff\n  and\n    /* \"@chainlink/contracts@1.2.0/src/v0.8/shared/access/ConfirmedOwnerWithProposal.sol\":1649:1651  to */\n  dup2\n    /* \"@chainlink/contracts@1.2.0/src/v0.8/shared/access/ConfirmedOwnerWithProposal.sol\":1649:1665  to != msg.sender */\n  0xffffffffffffffffffffffffffffffffffffffff\n  and\n  sub\n    /* \"@chainlink/contracts@1.2.0/src/v0.8/shared/access/ConfirmedOwnerWithProposal.sol\":1641:1693  require(to != msg.sender, \"Cannot transfer to self\") */\n  tag_18\n  jumpi\n  mload(0x40)\n  0x08c379a000000000000000000000000000000000000000000000000000000000\n  dup2\n  mstore\n  0x04\n  add\n  tag_19\n  swap1\n  tag_20\n  jump\t// in\ntag_19:\n  mload(0x40)\n  dup1\n  swap2\n  sub\n  swap1\n  revert\ntag_18:\n    /* \"@chainlink/contracts@1.2.0/src/v0.8/shared/access/ConfirmedOwnerWithProposal.sol\":1717:1719  to */\n  dup1\n    /* \"@chainlink/contracts@1.2.0/src/v0.8/shared/access/ConfirmedOwnerWithProposal.sol\":1700:1714  s_pendingOwner */\n  0x01\n  0x00\n    /* \"@chainlink/contracts@1.2.0/src/v0.8/shared/access/ConfirmedOwnerWithProposal.sol\":1700:1719  s_pendingOwner = to */\n  0x0100\n  exp\n  dup2\n  sload\n  dup2\n  0xffffffffffffffffffffffffffffffffffffffff\n  mul\n  not\n  and\n  swap1\n  dup4\n  0xffffffffffffffffffffffffffffffffffffffff\n  and\n  mul\n  or\n  swap1\n  sstore\n  pop\n    /* \"@chainlink/contracts@1.2.0/src/v0.8/shared/access/ConfirmedOwnerWithProposal.sol\":1767:1769  to */\n  dup1\n    /* \"@chainlink/contracts@1.2.0/src/v0.8/shared/access/ConfirmedOwnerWithProposal.sol\":1731:1770  OwnershipTransferRequested(s_owner, to) */\n  0xffffffffffffffffffffffffffffffffffffffff\n  and\n    /* \"@chainlink/contracts@1.2.0/src/v0.8/shared/access/ConfirmedOwnerWithProposal.sol\":1758:1765  s_owner */\n  0x00\n  dup1\n  sload\n  swap1\n  0x0100\n  exp\n  swap1\n  div\n  0xffffffffffffffffffffffffffffffffffffffff\n  and\n    /* \"@chainlink/contracts@1.2.0/src/v0.8/shared/access/ConfirmedOwnerWithProposal.sol\":1731:1770  OwnershipTransferRequested(s_owner, to) */\n  0xffffffffffffffffffffffffffffffffffffffff\n  and\n  0xed8889f560326eb138920d842192f0eb3dd22b4f139c87a2c57538e05bae1278\n  mload(0x40)\n  mload(0x40)\n  dup1\n  swap2\n  sub\n  swap1\n  log3\n    /* \"@chainlink/contracts@1.2.0/src/v0.8/shared/access/ConfirmedOwnerWithProposal.sol\":1536:1775  function _transferOwnership(address to) private {... */\n  pop\n  jump\t// out\n    /* \"#utility.yul\":7:176   */\ntag_21:\n    /* \"#utility.yul\":91:102   */\n  0x00\n    /* \"#utility.yul\":125:131   */\n  dup3\n    /* \"#utility.yul\":120:123   */\n  dup3\n    /* \"#utility.yul\":113:132   */\n  mstore\n    /* \"#utility.yul\":165:169   */\n  0x20\n    /* \"#utility.yul\":160:163   */\n  dup3\n    /* \"#utility.yul\":156:170   */\n  add\n    /* \"#utility.yul\":141:170   */\n  swap1\n  pop\n    /* \"#utility.yul\":7:176   */\n  swap3\n  swap2\n  pop\n  pop\n  jump\t// out\n    /* \"#utility.yul\":182:356   */\ntag_22:\n    /* \"#utility.yul\":322:348   */\n  0x43616e6e6f7420736574206f776e657220746f207a65726f0000000000000000\n    /* \"#utility.yul\":318:319   */\n  0x00\n    /* \"#utility.yul\":310:316   */\n  dup3\n    /* \"#utility.yul\":306:320   */\n  add\n    /* \"#utility.yul\":299:349   */\n  mstore\n    /* \"#utility.yul\":182:356   */\n  pop\n  jump\t// out\n    /* \"#utility.yul\":362:728   */\ntag_23:\n    /* \"#utility.yul\":504:507   */\n  0x00\n    /* \"#utility.yul\":525:592   */\n  tag_30\n    /* \"#utility.yul\":589:591   */\n  0x18\n    /* \"#utility.yul\":584:587   */\n  dup4\n    /* \"#utility.yul\":525:592   */\n  tag_21\n  jump\t// in\ntag_30:\n    /* \"#utility.yul\":518:592   */\n  swap2\n  pop\n    /* \"#utility.yul\":601:694   */\n  tag_31\n    /* \"#utility.yul\":690:693   */\n  dup3\n    /* \"#utility.yul\":601:694   */\n  tag_22\n  jump\t// in\ntag_31:\n    /* \"#utility.yul\":719:721   */\n  0x20\n    /* \"#utility.yul\":714:717   */\n  dup3\n    /* \"#utility.yul\":710:722   */\n  add\n    /* \"#utility.yul\":703:722   */\n  swap1\n  pop\n    /* \"#utility.yul\":362:728   */\n  swap2\n  swap1\n  pop\n  jump\t// out\n    /* \"#utility.yul\":734:1153   */\ntag_9:\n    /* \"#utility.yul\":900:904   */\n  0x00\n    /* \"#utility.yul\":938:940   */\n  0x20\n    /* \"#utility.yul\":927:936   */\n  dup3\n    /* \"#utility.yul\":923:941   */\n  add\n    /* \"#utility.yul\":915:941   */\n  swap1\n  pop\n    /* \"#utility.yul\":987:996   */\n  dup2\n    /* \"#utility.yul\":981:985   */\n  dup2\n    /* \"#utility.yul\":977:997   */\n  sub\n    /* \"#utility.yul\":973:974   */\n  0x00\n    /* \"#utility.yul\":962:971   */\n  dup4\n    /* \"#utility.yul\":958:975   */\n  add\n    /* \"#utility.yul\":951:998   */\n  mstore\n    /* \"#utility.yul\":1015:1146   */\n  tag_33\n    /* \"#utility.yul\":1141:1145   */\n  dup2\n    /* \"#utility.yul\":1015:1146   */\n  tag_23\n  jump\t// in\ntag_33:\n    /* \"#utility.yul\":1007:1146   */\n  swap1\n  pop\n    /* \"#utility.yul\":734:1153   */\n  swap2\n  swap1\n  pop\n  jump\t// out\n    /* \"#utility.yul\":1159:1332   */\ntag_24:\n    /* \"#utility.yul\":1299:1324   */\n  0x43616e6e6f74207472616e7366657220746f2073656c66000000000000000000\n    /* \"#utility.yul\":1295:1296   */\n  0x00\n    /* \"#utility.yul\":1287:1293   */\n  dup3\n    /* \"#utility.yul\":1283:1297   */\n  add\n    /* \"#utility.yul\":1276:1325   */\n  mstore\n    /* \"#utility.yul\":1159:1332   */\n  pop\n  jump\t// out\n    /* \"#utility.yul\":1338:1704   */\ntag_25:\n    /* \"#utility.yul\":1480:1483   */\n  0x00\n    /* \"#utility.yul\":1501:1568   */\n  tag_36\n    /* \"#utility.yul\":1565:1567   */\n  0x17\n    /* \"#utility.yul\":1560:1563   */\n  dup4\n    /* \"#utility.yul\":1501:1568   */\n  tag_21\n  jump\t// in\ntag_36:\n    /* \"#utility.yul\":1494:1568   */\n  swap2\n  pop\n    /* \"#utility.yul\":1577:1670   */\n  tag_37\n    /* \"#utility.yul\":1666:1669   */\n  dup3\n    /* \"#utility.yul\":1577:1670   */\n  tag_24\n  jump\t// in\ntag_37:\n    /* \"#utility.yul\":1695:1697   */\n  0x20\n    /* \"#utility.yul\":1690:1693   */\n  dup3\n    /* \"#utility.yul\":1686:1698   */\n  add\n    /* \"#utility.yul\":1679:1698   */\n  swap1\n  pop\n    /* \"#utility.yul\":1338:1704   */\n  swap2\n  swap1\n  pop\n  jump\t// out\n    /* \"#utility.yul\":1710:2129   */\ntag_20:\n    /* \"#utility.yul\":1876:1880   */\n  0x00\n    /* \"#utility.yul\":1914:1916   */\n  0x20\n    /* \"#utility.yul\":1903:1912   */\n  dup3\n    /* \"#utility.yul\":1899:1917   */\n  add\n    /* \"#utility.yul\":1891:1917   */\n  swap1\n  pop\n    /* \"#utility.yul\":1963:1972   */\n  dup2\n    /* \"#utility.yul\":1957:1961   */\n  dup2\n    /* \"#utility.yul\":1953:1973   */\n  sub\n    /* \"#utility.yul\":1949:1950   */\n  0x00\n    /* \"#utility.yul\":1938:1947   */\n  dup4\n    /* \"#utility.yul\":1934:1951   */\n  add\n    /* \"#utility.yul\":1927:1974   */\n  mstore\n    /* \"#utility.yul\":1991:2122   */\n  tag_39\n    /* \"#utility.yul\":2117:2121   */\n  dup2\n    /* \"#utility.yul\":1991:2122   */\n  tag_25\n  jump\t// in\ntag_39:\n    /* \"#utility.yul\":1983:2122   */\n  swap1\n  pop\n    /* \"#utility.yul\":1710:2129   */\n  swap2\n  swap1\n  pop\n  jump\t// out\n    /* \"ChailLinkAutomation/customizedUpkeepNewLogic.sol\":603:2261  contract CounterwForwarder is AutomationCompatibleInterface, OwnerIsCreator {... */\ntag_16:\n  dataSize(sub_0)\n  dup1\n  dataOffset(sub_0)\n  0x00\n  codecopy\n  0x00\n  return\nstop\n\nsub_0: assembly {\n        /* \"ChailLinkAutomation/customizedUpkeepNewLogic.sol\":603:2261  contract CounterwForwarder is AutomationCompatibleInterface, OwnerIsCreator {... */\n      mstore(0x40, 0x80)\n      callvalue\n      dup1\n      iszero\n      tag_1\n      jumpi\n      0x00\n      dup1\n      revert\n    tag_1:\n      pop\n      jumpi(tag_2, lt(calldatasize, 0x04))\n      shr(0xe0, calldataload(0x00))\n      dup1\n      0x6626b26d\n      gt\n      tag_16\n      jumpi\n      dup1\n      0x8da5cb5b\n      gt\n      tag_17\n      jumpi\n      dup1\n      0x8da5cb5b\n      eq\n      tag_12\n      jumpi\n      dup1\n      0x947a36fb\n      eq\n      tag_13\n      jumpi\n      dup1\n      0xd777cc6d\n      eq\n      tag_14\n      jumpi\n      dup1\n      0xf2fde38b\n      eq\n      tag_15\n      jumpi\n      jump(tag_2)\n    tag_17:\n      dup1\n      0x6626b26d\n      eq\n      tag_9\n      jumpi\n      dup1\n      0x6e04ff0d\n      eq\n      tag_10\n      jumpi\n      dup1\n      0x79ba5097\n      eq\n      tag_11\n      jumpi\n      jump(tag_2)\n    tag_16:\n      dup1\n      0x0e47f553\n      eq\n      tag_3\n      jumpi\n      dup1\n      0x22a90082\n      eq\n      tag_4\n      jumpi\n      dup1\n      0x3070fbf8\n      eq\n      tag_5\n      jumpi\n      dup1\n      0x3f3b3b27\n      eq\n      tag_6\n      jumpi\n      dup1\n      0x4585e33b\n      eq\n      tag_7\n      jumpi\n      dup1\n      0x61bc221a\n      eq\n      tag_8\n      jumpi\n    tag_2:\n      0x00\n      dup1\n      revert\n        /* \"ChailLinkAutomation/customizedUpkeepNewLogic.sol\":2163:2189  uint256 public timeeupwork */\n    tag_3:\n      tag_18\n      tag_19\n      jump\t// in\n    tag_18:\n      mload(0x40)\n      tag_20\n      swap2\n      swap1\n      tag_21\n      jump\t// in\n    tag_20:\n      mload(0x40)\n      dup1\n      swap2\n      sub\n      swap1\n      return\n        /* \"ChailLinkAutomation/customizedUpkeepNewLogic.sol\":1935:2087  function setInterval (uint256 updateInterval) external  onlyOwner{... */\n    tag_4:\n      tag_22\n      0x04\n      dup1\n      calldatasize\n      sub\n      dup2\n      add\n      swap1\n      tag_23\n      swap2\n      swap1\n      tag_24\n      jump\t// in\n    tag_23:\n      tag_25\n      jump\t// in\n    tag_22:\n      stop\n        /* \"ChailLinkAutomation/customizedUpkeepNewLogic.sol\":928:961  address public s_forwarderAddress */\n    tag_5:\n      tag_26\n      tag_27\n      jump\t// in\n    tag_26:\n      mload(0x40)\n      tag_28\n      swap2\n      swap1\n      tag_29\n      jump\t// in\n    tag_28:\n      mload(0x40)\n      dup1\n      swap2\n      sub\n      swap1\n      return\n        /* \"ChailLinkAutomation/customizedUpkeepNewLogic.sol\":844:872  uint256 public lastTimeStamp */\n    tag_6:\n      tag_30\n      tag_31\n      jump\t// in\n    tag_30:\n      mload(0x40)\n      tag_32\n      swap2\n      swap1\n      tag_21\n      jump\t// in\n    tag_32:\n      mload(0x40)\n      dup1\n      swap2\n      sub\n      swap1\n      return\n        /* \"ChailLinkAutomation/customizedUpkeepNewLogic.sol\":1248:1636  function performUpkeep(bytes calldata /*performData*/) external override {... */\n    tag_7:\n      tag_33\n      0x04\n      dup1\n      calldatasize\n      sub\n      dup2\n      add\n      swap1\n      tag_34\n      swap2\n      swap1\n      tag_35\n      jump\t// in\n    tag_34:\n      tag_36\n      jump\t// in\n    tag_33:\n      stop\n        /* \"ChailLinkAutomation/customizedUpkeepNewLogic.sol\":690:712  uint256 public counter */\n    tag_8:\n      tag_37\n      tag_38\n      jump\t// in\n    tag_37:\n      mload(0x40)\n      tag_39\n      swap2\n      swap1\n      tag_21\n      jump\t// in\n    tag_39:\n      mload(0x40)\n      dup1\n      swap2\n      sub\n      swap1\n      return\n        /* \"ChailLinkAutomation/customizedUpkeepNewLogic.sol\":2092:2157  function off () external  onlyOwner{... */\n    tag_9:\n      tag_40\n      tag_41\n      jump\t// in\n    tag_40:\n      stop\n        /* \"ChailLinkAutomation/customizedUpkeepNewLogic.sol\":1003:1242  function checkUpkeep(... */\n    tag_10:\n      tag_42\n      0x04\n      dup1\n      calldatasize\n      sub\n      dup2\n      add\n      swap1\n      tag_43\n      swap2\n      swap1\n      tag_35\n      jump\t// in\n    tag_43:\n      tag_44\n      jump\t// in\n    tag_42:\n      mload(0x40)\n      tag_45\n      swap3\n      swap2\n      swap1\n      tag_46\n      jump\t// in\n    tag_45:\n      mload(0x40)\n      dup1\n      swap2\n      sub\n      swap1\n      return\n        /* \"@chainlink/contracts@1.2.0/src/v0.8/shared/access/ConfirmedOwnerWithProposal.sol\":1026:1342  function acceptOwnership() external override {... */\n    tag_11:\n      tag_47\n      tag_48\n      jump\t// in\n    tag_47:\n      stop\n        /* \"@chainlink/contracts@1.2.0/src/v0.8/shared/access/ConfirmedOwnerWithProposal.sol\":1382:1463  function owner() public view override returns (address) {... */\n    tag_12:\n      tag_49\n      tag_50\n      jump\t// in\n    tag_49:\n      mload(0x40)\n      tag_51\n      swap2\n      swap1\n      tag_29\n      jump\t// in\n    tag_51:\n      mload(0x40)\n      dup1\n      swap2\n      sub\n      swap1\n      return\n        /* \"ChailLinkAutomation/customizedUpkeepNewLogic.sol\":768:791  uint256 public interval */\n    tag_13:\n      tag_52\n      tag_53\n      jump\t// in\n    tag_52:\n      mload(0x40)\n      tag_54\n      swap2\n      swap1\n      tag_21\n      jump\t// in\n    tag_54:\n      mload(0x40)\n      dup1\n      swap2\n      sub\n      swap1\n      return\n        /* \"ChailLinkAutomation/customizedUpkeepNewLogic.sol\":1801:1929  function setForwarderAddress(address forwarderAddress) external onlyOwner {... */\n    tag_14:\n      tag_55\n      0x04\n      dup1\n      calldatasize\n      sub\n      dup2\n      add\n      swap1\n      tag_56\n      swap2\n      swap1\n      tag_57\n      jump\t// in\n    tag_56:\n      tag_58\n      jump\t// in\n    tag_55:\n      stop\n        /* \"@chainlink/contracts@1.2.0/src/v0.8/shared/access/ConfirmedOwnerWithProposal.sol\":847:945  function transferOwnership(address to) public override onlyOwner {... */\n    tag_15:\n      tag_59\n      0x04\n      dup1\n      calldatasize\n      sub\n      dup2\n      add\n      swap1\n      tag_60\n      swap2\n      swap1\n      tag_57\n      jump\t// in\n    tag_60:\n      tag_61\n      jump\t// in\n    tag_59:\n      stop\n        /* \"ChailLinkAutomation/customizedUpkeepNewLogic.sol\":2163:2189  uint256 public timeeupwork */\n    tag_19:\n      sload(0x06)\n      dup2\n      jump\t// out\n        /* \"ChailLinkAutomation/customizedUpkeepNewLogic.sol\":1935:2087  function setInterval (uint256 updateInterval) external  onlyOwner{... */\n    tag_25:\n        /* \"@chainlink/contracts@1.2.0/src/v0.8/shared/access/ConfirmedOwnerWithProposal.sol\":2075:2095  _validateOwnership() */\n      tag_63\n        /* \"@chainlink/contracts@1.2.0/src/v0.8/shared/access/ConfirmedOwnerWithProposal.sol\":2075:2093  _validateOwnership */\n      tag_64\n        /* \"@chainlink/contracts@1.2.0/src/v0.8/shared/access/ConfirmedOwnerWithProposal.sol\":2075:2095  _validateOwnership() */\n      jump\t// in\n    tag_63:\n        /* \"ChailLinkAutomation/customizedUpkeepNewLogic.sol\":2022:2036  updateInterval */\n      dup1\n        /* \"ChailLinkAutomation/customizedUpkeepNewLogic.sol\":2011:2019  interval */\n      0x03\n        /* \"ChailLinkAutomation/customizedUpkeepNewLogic.sol\":2011:2036  interval = updateInterval */\n      dup2\n      swap1\n      sstore\n      pop\n        /* \"ChailLinkAutomation/customizedUpkeepNewLogic.sol\":2064:2079  block.timestamp */\n      timestamp\n        /* \"ChailLinkAutomation/customizedUpkeepNewLogic.sol\":2048:2061  lastTimeStamp */\n      0x04\n        /* \"ChailLinkAutomation/customizedUpkeepNewLogic.sol\":2048:2079  lastTimeStamp = block.timestamp */\n      dup2\n      swap1\n      sstore\n      pop\n        /* \"ChailLinkAutomation/customizedUpkeepNewLogic.sol\":1935:2087  function setInterval (uint256 updateInterval) external  onlyOwner{... */\n      pop\n      jump\t// out\n        /* \"ChailLinkAutomation/customizedUpkeepNewLogic.sol\":928:961  address public s_forwarderAddress */\n    tag_27:\n      0x05\n      0x00\n      swap1\n      sload\n      swap1\n      0x0100\n      exp\n      swap1\n      div\n      0xffffffffffffffffffffffffffffffffffffffff\n      and\n      dup2\n      jump\t// out\n        /* \"ChailLinkAutomation/customizedUpkeepNewLogic.sol\":844:872  uint256 public lastTimeStamp */\n    tag_31:\n      sload(0x04)\n      dup2\n      jump\t// out\n        /* \"ChailLinkAutomation/customizedUpkeepNewLogic.sol\":1248:1636  function performUpkeep(bytes calldata /*performData*/) external override {... */\n    tag_36:\n        /* \"ChailLinkAutomation/customizedUpkeepNewLogic.sol\":1366:1384  s_forwarderAddress */\n      0x05\n      0x00\n      swap1\n      sload\n      swap1\n      0x0100\n      exp\n      swap1\n      div\n      0xffffffffffffffffffffffffffffffffffffffff\n      and\n        /* \"ChailLinkAutomation/customizedUpkeepNewLogic.sol\":1352:1384  msg.sender == s_forwarderAddress */\n      0xffffffffffffffffffffffffffffffffffffffff\n      and\n        /* \"ChailLinkAutomation/customizedUpkeepNewLogic.sol\":1352:1362  msg.sender */\n      caller\n        /* \"ChailLinkAutomation/customizedUpkeepNewLogic.sol\":1352:1384  msg.sender == s_forwarderAddress */\n      0xffffffffffffffffffffffffffffffffffffffff\n      and\n      eq\n        /* \"ChailLinkAutomation/customizedUpkeepNewLogic.sol\":1331:1469  require(... */\n      tag_67\n      jumpi\n      mload(0x40)\n      0x08c379a000000000000000000000000000000000000000000000000000000000\n      dup2\n      mstore\n      0x04\n      add\n      tag_68\n      swap1\n      tag_69\n      jump\t// in\n    tag_68:\n      mload(0x40)\n      dup1\n      swap2\n      sub\n      swap1\n      revert\n    tag_67:\n        /* \"ChailLinkAutomation/customizedUpkeepNewLogic.sol\":1500:1501  0 */\n      0x00\n        /* \"ChailLinkAutomation/customizedUpkeepNewLogic.sol\":1488:1496  interval */\n      sload(0x03)\n        /* \"ChailLinkAutomation/customizedUpkeepNewLogic.sol\":1488:1501  interval != 0 */\n      sub\n        /* \"ChailLinkAutomation/customizedUpkeepNewLogic.sol\":1479:1515  require (interval != 0, \"it is off\") */\n      tag_70\n      jumpi\n      mload(0x40)\n      0x08c379a000000000000000000000000000000000000000000000000000000000\n      dup2\n      mstore\n      0x04\n      add\n      tag_71\n      swap1\n      tag_72\n      jump\t// in\n    tag_71:\n      mload(0x40)\n      dup1\n      swap2\n      sub\n      swap1\n      revert\n    tag_70:\n        /* \"ChailLinkAutomation/customizedUpkeepNewLogic.sol\":1550:1565  block.timestamp */\n      timestamp\n        /* \"ChailLinkAutomation/customizedUpkeepNewLogic.sol\":1534:1547  lastTimeStamp */\n      0x04\n        /* \"ChailLinkAutomation/customizedUpkeepNewLogic.sol\":1534:1565  lastTimeStamp = block.timestamp */\n      dup2\n      swap1\n      sstore\n      pop\n        /* \"ChailLinkAutomation/customizedUpkeepNewLogic.sol\":1595:1596  1 */\n      0x01\n        /* \"ChailLinkAutomation/customizedUpkeepNewLogic.sol\":1585:1592  counter */\n      sload(0x02)\n        /* \"ChailLinkAutomation/customizedUpkeepNewLogic.sol\":1585:1596  counter + 1 */\n      tag_73\n      swap2\n      swap1\n      tag_74\n      jump\t// in\n    tag_73:\n        /* \"ChailLinkAutomation/customizedUpkeepNewLogic.sol\":1575:1582  counter */\n      0x02\n        /* \"ChailLinkAutomation/customizedUpkeepNewLogic.sol\":1575:1596  counter = counter + 1 */\n      dup2\n      swap1\n      sstore\n      pop\n        /* \"ChailLinkAutomation/customizedUpkeepNewLogic.sol\":1615:1629  Callfunction() */\n      tag_75\n        /* \"ChailLinkAutomation/customizedUpkeepNewLogic.sol\":1615:1627  Callfunction */\n      tag_76\n        /* \"ChailLinkAutomation/customizedUpkeepNewLogic.sol\":1615:1629  Callfunction() */\n      jump\t// in\n    tag_75:\n        /* \"ChailLinkAutomation/customizedUpkeepNewLogic.sol\":1248:1636  function performUpkeep(bytes calldata /*performData*/) external override {... */\n      pop\n      pop\n      jump\t// out\n        /* \"ChailLinkAutomation/customizedUpkeepNewLogic.sol\":690:712  uint256 public counter */\n    tag_38:\n      sload(0x02)\n      dup2\n      jump\t// out\n        /* \"ChailLinkAutomation/customizedUpkeepNewLogic.sol\":2092:2157  function off () external  onlyOwner{... */\n    tag_41:\n        /* \"@chainlink/contracts@1.2.0/src/v0.8/shared/access/ConfirmedOwnerWithProposal.sol\":2075:2095  _validateOwnership() */\n      tag_78\n        /* \"@chainlink/contracts@1.2.0/src/v0.8/shared/access/ConfirmedOwnerWithProposal.sol\":2075:2093  _validateOwnership */\n      tag_64\n        /* \"@chainlink/contracts@1.2.0/src/v0.8/shared/access/ConfirmedOwnerWithProposal.sol\":2075:2095  _validateOwnership() */\n      jump\t// in\n    tag_78:\n        /* \"ChailLinkAutomation/customizedUpkeepNewLogic.sol\":2149:2150  0 */\n      0x00\n        /* \"ChailLinkAutomation/customizedUpkeepNewLogic.sol\":2138:2146  interval */\n      0x03\n        /* \"ChailLinkAutomation/customizedUpkeepNewLogic.sol\":2138:2150  interval = 0 */\n      dup2\n      swap1\n      sstore\n      pop\n        /* \"ChailLinkAutomation/customizedUpkeepNewLogic.sol\":2092:2157  function off () external  onlyOwner{... */\n      jump\t// out\n        /* \"ChailLinkAutomation/customizedUpkeepNewLogic.sol\":1003:1242  function checkUpkeep(... */\n    tag_44:\n        /* \"ChailLinkAutomation/customizedUpkeepNewLogic.sol\":1101:1105  bool */\n      0x00\n        /* \"ChailLinkAutomation/customizedUpkeepNewLogic.sol\":1107:1119  bytes memory */\n      0x60\n        /* \"ChailLinkAutomation/customizedUpkeepNewLogic.sol\":1131:1147  bool needsUpkeep */\n      0x00\n        /* \"ChailLinkAutomation/customizedUpkeepNewLogic.sol\":1186:1194  interval */\n      sload(0x03)\n        /* \"ChailLinkAutomation/customizedUpkeepNewLogic.sol\":1169:1182  lastTimeStamp */\n      sload(0x04)\n        /* \"ChailLinkAutomation/customizedUpkeepNewLogic.sol\":1151:1166  block.timestamp */\n      timestamp\n        /* \"ChailLinkAutomation/customizedUpkeepNewLogic.sol\":1151:1182  block.timestamp - lastTimeStamp */\n      tag_81\n      swap2\n      swap1\n      tag_82\n      jump\t// in\n    tag_81:\n        /* \"ChailLinkAutomation/customizedUpkeepNewLogic.sol\":1150:1194  (block.timestamp - lastTimeStamp) > interval */\n      gt\n        /* \"ChailLinkAutomation/customizedUpkeepNewLogic.sol\":1131:1194  bool needsUpkeep = (block.timestamp - lastTimeStamp) > interval */\n      swap1\n      pop\n        /* \"ChailLinkAutomation/customizedUpkeepNewLogic.sol\":1212:1223  needsUpkeep */\n      dup1\n        /* \"ChailLinkAutomation/customizedUpkeepNewLogic.sol\":1225:1234  bytes(\"\") */\n      mload(0x40)\n      dup1\n      0x20\n      add\n      0x40\n      mstore\n      dup1\n      0x00\n      dup2\n      mstore\n      pop\n        /* \"ChailLinkAutomation/customizedUpkeepNewLogic.sol\":1204:1235  return (needsUpkeep, bytes(\"\")) */\n      swap3\n      pop\n      swap3\n      pop\n      pop\n        /* \"ChailLinkAutomation/customizedUpkeepNewLogic.sol\":1003:1242  function checkUpkeep(... */\n      swap3\n      pop\n      swap3\n      swap1\n      pop\n      jump\t// out\n        /* \"@chainlink/contracts@1.2.0/src/v0.8/shared/access/ConfirmedOwnerWithProposal.sol\":1026:1342  function acceptOwnership() external override {... */\n    tag_48:\n        /* \"@chainlink/contracts@1.2.0/src/v0.8/shared/access/ConfirmedOwnerWithProposal.sol\":1150:1164  s_pendingOwner */\n      0x01\n      0x00\n      swap1\n      sload\n      swap1\n      0x0100\n      exp\n      swap1\n      div\n      0xffffffffffffffffffffffffffffffffffffffff\n      and\n        /* \"@chainlink/contracts@1.2.0/src/v0.8/shared/access/ConfirmedOwnerWithProposal.sol\":1136:1164  msg.sender == s_pendingOwner */\n      0xffffffffffffffffffffffffffffffffffffffff\n      and\n        /* \"@chainlink/contracts@1.2.0/src/v0.8/shared/access/ConfirmedOwnerWithProposal.sol\":1136:1146  msg.sender */\n      caller\n        /* \"@chainlink/contracts@1.2.0/src/v0.8/shared/access/ConfirmedOwnerWithProposal.sol\":1136:1164  msg.sender == s_pendingOwner */\n      0xffffffffffffffffffffffffffffffffffffffff\n      and\n      eq\n        /* \"@chainlink/contracts@1.2.0/src/v0.8/shared/access/ConfirmedOwnerWithProposal.sol\":1128:1191  require(msg.sender == s_pendingOwner, \"Must be proposed owner\") */\n      tag_84\n      jumpi\n      mload(0x40)\n      0x08c379a000000000000000000000000000000000000000000000000000000000\n      dup2\n      mstore\n      0x04\n      add\n      tag_85\n      swap1\n      tag_86\n      jump\t// in\n    tag_85:\n      mload(0x40)\n      dup1\n      swap2\n      sub\n      swap1\n      revert\n    tag_84:\n        /* \"@chainlink/contracts@1.2.0/src/v0.8/shared/access/ConfirmedOwnerWithProposal.sol\":1198:1214  address oldOwner */\n      0x00\n        /* \"@chainlink/contracts@1.2.0/src/v0.8/shared/access/ConfirmedOwnerWithProposal.sol\":1217:1224  s_owner */\n      dup1\n      0x00\n      swap1\n      sload\n      swap1\n      0x0100\n      exp\n      swap1\n      div\n      0xffffffffffffffffffffffffffffffffffffffff\n      and\n        /* \"@chainlink/contracts@1.2.0/src/v0.8/shared/access/ConfirmedOwnerWithProposal.sol\":1198:1224  address oldOwner = s_owner */\n      swap1\n      pop\n        /* \"@chainlink/contracts@1.2.0/src/v0.8/shared/access/ConfirmedOwnerWithProposal.sol\":1240:1250  msg.sender */\n      caller\n        /* \"@chainlink/contracts@1.2.0/src/v0.8/shared/access/ConfirmedOwnerWithProposal.sol\":1230:1237  s_owner */\n      0x00\n      dup1\n        /* \"@chainlink/contracts@1.2.0/src/v0.8/shared/access/ConfirmedOwnerWithProposal.sol\":1230:1250  s_owner = msg.sender */\n      0x0100\n      exp\n      dup2\n      sload\n      dup2\n      0xffffffffffffffffffffffffffffffffffffffff\n      mul\n      not\n      and\n      swap1\n      dup4\n      0xffffffffffffffffffffffffffffffffffffffff\n      and\n      mul\n      or\n      swap1\n      sstore\n      pop\n        /* \"@chainlink/contracts@1.2.0/src/v0.8/shared/access/ConfirmedOwnerWithProposal.sol\":1281:1282  0 */\n      0x00\n        /* \"@chainlink/contracts@1.2.0/src/v0.8/shared/access/ConfirmedOwnerWithProposal.sol\":1256:1270  s_pendingOwner */\n      0x01\n      0x00\n        /* \"@chainlink/contracts@1.2.0/src/v0.8/shared/access/ConfirmedOwnerWithProposal.sol\":1256:1283  s_pendingOwner = address(0) */\n      0x0100\n      exp\n      dup2\n      sload\n      dup2\n      0xffffffffffffffffffffffffffffffffffffffff\n      mul\n      not\n      and\n      swap1\n      dup4\n      0xffffffffffffffffffffffffffffffffffffffff\n      and\n      mul\n      or\n      swap1\n      sstore\n      pop\n        /* \"@chainlink/contracts@1.2.0/src/v0.8/shared/access/ConfirmedOwnerWithProposal.sol\":1326:1336  msg.sender */\n      caller\n        /* \"@chainlink/contracts@1.2.0/src/v0.8/shared/access/ConfirmedOwnerWithProposal.sol\":1295:1337  OwnershipTransferred(oldOwner, msg.sender) */\n      0xffffffffffffffffffffffffffffffffffffffff\n      and\n        /* \"@chainlink/contracts@1.2.0/src/v0.8/shared/access/ConfirmedOwnerWithProposal.sol\":1316:1324  oldOwner */\n      dup2\n        /* \"@chainlink/contracts@1.2.0/src/v0.8/shared/access/ConfirmedOwnerWithProposal.sol\":1295:1337  OwnershipTransferred(oldOwner, msg.sender) */\n      0xffffffffffffffffffffffffffffffffffffffff\n      and\n      0x8be0079c531659141344cd1fd0a4f28419497f9722a3daafe3b4186f6b6457e0\n      mload(0x40)\n      mload(0x40)\n      dup1\n      swap2\n      sub\n      swap1\n      log3\n        /* \"@chainlink/contracts@1.2.0/src/v0.8/shared/access/ConfirmedOwnerWithProposal.sol\":1071:1342  {... */\n      pop\n        /* \"@chainlink/contracts@1.2.0/src/v0.8/shared/access/ConfirmedOwnerWithProposal.sol\":1026:1342  function acceptOwnership() external override {... */\n      jump\t// out\n        /* \"@chainlink/contracts@1.2.0/src/v0.8/shared/access/ConfirmedOwnerWithProposal.sol\":1382:1463  function owner() public view override returns (address) {... */\n    tag_50:\n        /* \"@chainlink/contracts@1.2.0/src/v0.8/shared/access/ConfirmedOwnerWithProposal.sol\":1429:1436  address */\n      0x00\n        /* \"@chainlink/contracts@1.2.0/src/v0.8/shared/access/ConfirmedOwnerWithProposal.sol\":1451:1458  s_owner */\n      dup1\n      0x00\n      swap1\n      sload\n      swap1\n      0x0100\n      exp\n      swap1\n      div\n      0xffffffffffffffffffffffffffffffffffffffff\n      and\n        /* \"@chainlink/contracts@1.2.0/src/v0.8/shared/access/ConfirmedOwnerWithProposal.sol\":1444:1458  return s_owner */\n      swap1\n      pop\n        /* \"@chainlink/contracts@1.2.0/src/v0.8/shared/access/ConfirmedOwnerWithProposal.sol\":1382:1463  function owner() public view override returns (address) {... */\n      swap1\n      jump\t// out\n        /* \"ChailLinkAutomation/customizedUpkeepNewLogic.sol\":768:791  uint256 public interval */\n    tag_53:\n      sload(0x03)\n      dup2\n      jump\t// out\n        /* \"ChailLinkAutomation/customizedUpkeepNewLogic.sol\":1801:1929  function setForwarderAddress(address forwarderAddress) external onlyOwner {... */\n    tag_58:\n        /* \"@chainlink/contracts@1.2.0/src/v0.8/shared/access/ConfirmedOwnerWithProposal.sol\":2075:2095  _validateOwnership() */\n      tag_89\n        /* \"@chainlink/contracts@1.2.0/src/v0.8/shared/access/ConfirmedOwnerWithProposal.sol\":2075:2093  _validateOwnership */\n      tag_64\n        /* \"@chainlink/contracts@1.2.0/src/v0.8/shared/access/ConfirmedOwnerWithProposal.sol\":2075:2095  _validateOwnership() */\n      jump\t// in\n    tag_89:\n        /* \"ChailLinkAutomation/customizedUpkeepNewLogic.sol\":1906:1922  forwarderAddress */\n      dup1\n        /* \"ChailLinkAutomation/customizedUpkeepNewLogic.sol\":1885:1903  s_forwarderAddress */\n      0x05\n      0x00\n        /* \"ChailLinkAutomation/customizedUpkeepNewLogic.sol\":1885:1922  s_forwarderAddress = forwarderAddress */\n      0x0100\n      exp\n      dup2\n      sload\n      dup2\n      0xffffffffffffffffffffffffffffffffffffffff\n      mul\n      not\n      and\n      swap1\n      dup4\n      0xffffffffffffffffffffffffffffffffffffffff\n      and\n      mul\n      or\n      swap1\n      sstore\n      pop\n        /* \"ChailLinkAutomation/customizedUpkeepNewLogic.sol\":1801:1929  function setForwarderAddress(address forwarderAddress) external onlyOwner {... */\n      pop\n      jump\t// out\n        /* \"@chainlink/contracts@1.2.0/src/v0.8/shared/access/ConfirmedOwnerWithProposal.sol\":847:945  function transferOwnership(address to) public override onlyOwner {... */\n    tag_61:\n        /* \"@chainlink/contracts@1.2.0/src/v0.8/shared/access/ConfirmedOwnerWithProposal.sol\":2075:2095  _validateOwnership() */\n      tag_92\n        /* \"@chainlink/contracts@1.2.0/src/v0.8/shared/access/ConfirmedOwnerWithProposal.sol\":2075:2093  _validateOwnership */\n      tag_64\n        /* \"@chainlink/contracts@1.2.0/src/v0.8/shared/access/ConfirmedOwnerWithProposal.sol\":2075:2095  _validateOwnership() */\n      jump\t// in\n    tag_92:\n        /* \"@chainlink/contracts@1.2.0/src/v0.8/shared/access/ConfirmedOwnerWithProposal.sol\":918:940  _transferOwnership(to) */\n      tag_94\n        /* \"@chainlink/contracts@1.2.0/src/v0.8/shared/access/ConfirmedOwnerWithProposal.sol\":937:939  to */\n      dup2\n        /* \"@chainlink/contracts@1.2.0/src/v0.8/shared/access/ConfirmedOwnerWithProposal.sol\":918:936  _transferOwnership */\n      tag_95\n        /* \"@chainlink/contracts@1.2.0/src/v0.8/shared/access/ConfirmedOwnerWithProposal.sol\":918:940  _transferOwnership(to) */\n      jump\t// in\n    tag_94:\n        /* \"@chainlink/contracts@1.2.0/src/v0.8/shared/access/ConfirmedOwnerWithProposal.sol\":847:945  function transferOwnership(address to) public override onlyOwner {... */\n      pop\n      jump\t// out\n        /* \"@chainlink/contracts@1.2.0/src/v0.8/shared/access/ConfirmedOwnerWithProposal.sol\":1809:1971  function _validateOwnership() internal view {... */\n    tag_64:\n        /* \"@chainlink/contracts@1.2.0/src/v0.8/shared/access/ConfirmedOwnerWithProposal.sol\":1932:1939  s_owner */\n      0x00\n      dup1\n      sload\n      swap1\n      0x0100\n      exp\n      swap1\n      div\n      0xffffffffffffffffffffffffffffffffffffffff\n      and\n        /* \"@chainlink/contracts@1.2.0/src/v0.8/shared/access/ConfirmedOwnerWithProposal.sol\":1918:1939  msg.sender == s_owner */\n      0xffffffffffffffffffffffffffffffffffffffff\n      and\n        /* \"@chainlink/contracts@1.2.0/src/v0.8/shared/access/ConfirmedOwnerWithProposal.sol\":1918:1928  msg.sender */\n      caller\n        /* \"@chainlink/contracts@1.2.0/src/v0.8/shared/access/ConfirmedOwnerWithProposal.sol\":1918:1939  msg.sender == s_owner */\n      0xffffffffffffffffffffffffffffffffffffffff\n      and\n      eq\n        /* \"@chainlink/contracts@1.2.0/src/v0.8/shared/access/ConfirmedOwnerWithProposal.sol\":1910:1966  require(msg.sender == s_owner, \"Only callable by owner\") */\n      tag_97\n      jumpi\n      mload(0x40)\n      0x08c379a000000000000000000000000000000000000000000000000000000000\n      dup2\n      mstore\n      0x04\n      add\n      tag_98\n      swap1\n      tag_99\n      jump\t// in\n    tag_98:\n      mload(0x40)\n      dup1\n      swap2\n      sub\n      swap1\n      revert\n    tag_97:\n        /* \"@chainlink/contracts@1.2.0/src/v0.8/shared/access/ConfirmedOwnerWithProposal.sol\":1809:1971  function _validateOwnership() internal view {... */\n      jump\t// out\n        /* \"ChailLinkAutomation/customizedUpkeepNewLogic.sol\":2196:2259  function Callfunction() private { ... */\n    tag_76:\n        /* \"ChailLinkAutomation/customizedUpkeepNewLogic.sol\":2239:2250  timeeupwork */\n      0x06\n      0x00\n        /* \"ChailLinkAutomation/customizedUpkeepNewLogic.sol\":2239:2252  timeeupwork++ */\n      dup2\n      sload\n      dup1\n      swap3\n      swap2\n      swap1\n      tag_101\n      swap1\n      tag_102\n      jump\t// in\n    tag_101:\n      swap2\n      swap1\n      pop\n      sstore\n      pop\n        /* \"ChailLinkAutomation/customizedUpkeepNewLogic.sol\":2196:2259  function Callfunction() private { ... */\n      jump\t// out\n        /* \"@chainlink/contracts@1.2.0/src/v0.8/shared/access/ConfirmedOwnerWithProposal.sol\":1536:1775  function _transferOwnership(address to) private {... */\n    tag_95:\n        /* \"@chainlink/contracts@1.2.0/src/v0.8/shared/access/ConfirmedOwnerWithProposal.sol\":1655:1665  msg.sender */\n      caller\n        /* \"@chainlink/contracts@1.2.0/src/v0.8/shared/access/ConfirmedOwnerWithProposal.sol\":1649:1665  to != msg.sender */\n      0xffffffffffffffffffffffffffffffffffffffff\n      and\n        /* \"@chainlink/contracts@1.2.0/src/v0.8/shared/access/ConfirmedOwnerWithProposal.sol\":1649:1651  to */\n      dup2\n        /* \"@chainlink/contracts@1.2.0/src/v0.8/shared/access/ConfirmedOwnerWithProposal.sol\":1649:1665  to != msg.sender */\n      0xffffffffffffffffffffffffffffffffffffffff\n      and\n      sub\n        /* \"@chainlink/contracts@1.2.0/src/v0.8/shared/access/ConfirmedOwnerWithProposal.sol\":1641:1693  require(to != msg.sender, \"Cannot transfer to self\") */\n      tag_104\n      jumpi\n      mload(0x40)\n      0x08c379a000000000000000000000000000000000000000000000000000000000\n      dup2\n      mstore\n      0x04\n      add\n      tag_105\n      swap1\n      tag_106\n      jump\t// in\n    tag_105:\n      mload(0x40)\n      dup1\n      swap2\n      sub\n      swap1\n      revert\n    tag_104:\n        /* \"@chainlink/contracts@1.2.0/src/v0.8/shared/access/ConfirmedOwnerWithProposal.sol\":1717:1719  to */\n      dup1\n        /* \"@chainlink/contracts@1.2.0/src/v0.8/shared/access/ConfirmedOwnerWithProposal.sol\":1700:1714  s_pendingOwner */\n      0x01\n      0x00\n        /* \"@chainlink/contracts@1.2.0/src/v0.8/shared/access/ConfirmedOwnerWithProposal.sol\":1700:1719  s_pendingOwner = to */\n      0x0100\n      exp\n      dup2\n      sload\n      dup2\n      0xffffffffffffffffffffffffffffffffffffffff\n      mul\n      not\n      and\n      swap1\n      dup4\n      0xffffffffffffffffffffffffffffffffffffffff\n      and\n      mul\n      or\n      swap1\n      sstore\n      pop\n        /* \"@chainlink/contracts@1.2.0/src/v0.8/shared/access/ConfirmedOwnerWithProposal.sol\":1767:1769  to */\n      dup1\n        /* \"@chainlink/contracts@1.2.0/src/v0.8/shared/access/ConfirmedOwnerWithProposal.sol\":1731:1770  OwnershipTransferRequested(s_owner, to) */\n      0xffffffffffffffffffffffffffffffffffffffff\n      and\n        /* \"@chainlink/contracts@1.2.0/src/v0.8/shared/access/ConfirmedOwnerWithProposal.sol\":1758:1765  s_owner */\n      0x00\n      dup1\n      sload\n      swap1\n      0x0100\n      exp\n      swap1\n      div\n      0xffffffffffffffffffffffffffffffffffffffff\n      and\n        /* \"@chainlink/contracts@1.2.0/src/v0.8/shared/access/ConfirmedOwnerWithProposal.sol\":1731:1770  OwnershipTransferRequested(s_owner, to) */\n      0xffffffffffffffffffffffffffffffffffffffff\n      and\n      0xed8889f560326eb138920d842192f0eb3dd22b4f139c87a2c57538e05bae1278\n      mload(0x40)\n      mload(0x40)\n      dup1\n      swap2\n      sub\n      swap1\n      log3\n        /* \"@chainlink/contracts@1.2.0/src/v0.8/shared/access/ConfirmedOwnerWithProposal.sol\":1536:1775  function _transferOwnership(address to) private {... */\n      pop\n      jump\t// out\n        /* \"#utility.yul\":7:84   */\n    tag_107:\n        /* \"#utility.yul\":44:51   */\n      0x00\n        /* \"#utility.yul\":73:78   */\n      dup2\n        /* \"#utility.yul\":62:78   */\n      swap1\n      pop\n        /* \"#utility.yul\":7:84   */\n      swap2\n      swap1\n      pop\n      jump\t// out\n        /* \"#utility.yul\":90:208   */\n    tag_108:\n        /* \"#utility.yul\":177:201   */\n      tag_145\n        /* \"#utility.yul\":195:200   */\n      dup2\n        /* \"#utility.yul\":177:201   */\n      tag_107\n      jump\t// in\n    tag_145:\n        /* \"#utility.yul\":172:175   */\n      dup3\n        /* \"#utility.yul\":165:202   */\n      mstore\n        /* \"#utility.yul\":90:208   */\n      pop\n      pop\n      jump\t// out\n        /* \"#utility.yul\":214:436   */\n    tag_21:\n        /* \"#utility.yul\":307:311   */\n      0x00\n        /* \"#utility.yul\":345:347   */\n      0x20\n        /* \"#utility.yul\":334:343   */\n      dup3\n        /* \"#utility.yul\":330:348   */\n      add\n        /* \"#utility.yul\":322:348   */\n      swap1\n      pop\n        /* \"#utility.yul\":358:429   */\n      tag_147\n        /* \"#utility.yul\":426:427   */\n      0x00\n        /* \"#utility.yul\":415:424   */\n      dup4\n        /* \"#utility.yul\":411:428   */\n      add\n        /* \"#utility.yul\":402:408   */\n      dup5\n        /* \"#utility.yul\":358:429   */\n      tag_108\n      jump\t// in\n    tag_147:\n        /* \"#utility.yul\":214:436   */\n      swap3\n      swap2\n      pop\n      pop\n      jump\t// out\n        /* \"#utility.yul\":523:640   */\n    tag_110:\n        /* \"#utility.yul\":632:633   */\n      0x00\n        /* \"#utility.yul\":629:630   */\n      dup1\n        /* \"#utility.yul\":622:634   */\n      revert\n        /* \"#utility.yul\":646:763   */\n    tag_111:\n        /* \"#utility.yul\":755:756   */\n      0x00\n        /* \"#utility.yul\":752:753   */\n      dup1\n        /* \"#utility.yul\":745:757   */\n      revert\n        /* \"#utility.yul\":769:891   */\n    tag_112:\n        /* \"#utility.yul\":842:866   */\n      tag_152\n        /* \"#utility.yul\":860:865   */\n      dup2\n        /* \"#utility.yul\":842:866   */\n      tag_107\n      jump\t// in\n    tag_152:\n        /* \"#utility.yul\":835:840   */\n      dup2\n        /* \"#utility.yul\":832:867   */\n      eq\n        /* \"#utility.yul\":822:885   */\n      tag_153\n      jumpi\n        /* \"#utility.yul\":881:882   */\n      0x00\n        /* \"#utility.yul\":878:879   */\n      dup1\n        /* \"#utility.yul\":871:883   */\n      revert\n        /* \"#utility.yul\":822:885   */\n    tag_153:\n        /* \"#utility.yul\":769:891   */\n      pop\n      jump\t// out\n        /* \"#utility.yul\":897:1036   */\n    tag_113:\n        /* \"#utility.yul\":943:948   */\n      0x00\n        /* \"#utility.yul\":981:987   */\n      dup2\n        /* \"#utility.yul\":968:988   */\n      calldataload\n        /* \"#utility.yul\":959:988   */\n      swap1\n      pop\n        /* \"#utility.yul\":997:1030   */\n      tag_155\n        /* \"#utility.yul\":1024:1029   */\n      dup2\n        /* \"#utility.yul\":997:1030   */\n      tag_112\n      jump\t// in\n    tag_155:\n        /* \"#utility.yul\":897:1036   */\n      swap3\n      swap2\n      pop\n      pop\n      jump\t// out\n        /* \"#utility.yul\":1042:1371   */\n    tag_24:\n        /* \"#utility.yul\":1101:1107   */\n      0x00\n        /* \"#utility.yul\":1150:1152   */\n      0x20\n        /* \"#utility.yul\":1138:1147   */\n      dup3\n        /* \"#utility.yul\":1129:1136   */\n      dup5\n        /* \"#utility.yul\":1125:1148   */\n      sub\n        /* \"#utility.yul\":1121:1153   */\n      slt\n        /* \"#utility.yul\":1118:1237   */\n      iszero\n      tag_157\n      jumpi\n        /* \"#utility.yul\":1156:1235   */\n      tag_158\n      tag_110\n      jump\t// in\n    tag_158:\n        /* \"#utility.yul\":1118:1237   */\n    tag_157:\n        /* \"#utility.yul\":1276:1277   */\n      0x00\n        /* \"#utility.yul\":1301:1354   */\n      tag_159\n        /* \"#utility.yul\":1346:1353   */\n      dup5\n        /* \"#utility.yul\":1337:1343   */\n      dup3\n        /* \"#utility.yul\":1326:1335   */\n      dup6\n        /* \"#utility.yul\":1322:1344   */\n      add\n        /* \"#utility.yul\":1301:1354   */\n      tag_113\n      jump\t// in\n    tag_159:\n        /* \"#utility.yul\":1291:1354   */\n      swap2\n      pop\n        /* \"#utility.yul\":1247:1364   */\n      pop\n        /* \"#utility.yul\":1042:1371   */\n      swap3\n      swap2\n      pop\n      pop\n      jump\t// out\n        /* \"#utility.yul\":1377:1503   */\n    tag_114:\n        /* \"#utility.yul\":1414:1421   */\n      0x00\n        /* \"#utility.yul\":1454:1496   */\n      0xffffffffffffffffffffffffffffffffffffffff\n        /* \"#utility.yul\":1447:1452   */\n      dup3\n        /* \"#utility.yul\":1443:1497   */\n      and\n        /* \"#utility.yul\":1432:1497   */\n      swap1\n      pop\n        /* \"#utility.yul\":1377:1503   */\n      swap2\n      swap1\n      pop\n      jump\t// out\n        /* \"#utility.yul\":1509:1605   */\n    tag_115:\n        /* \"#utility.yul\":1546:1553   */\n      0x00\n        /* \"#utility.yul\":1575:1599   */\n      tag_162\n        /* \"#utility.yul\":1593:1598   */\n      dup3\n        /* \"#utility.yul\":1575:1599   */\n      tag_114\n      jump\t// in\n    tag_162:\n        /* \"#utility.yul\":1564:1599   */\n      swap1\n      pop\n        /* \"#utility.yul\":1509:1605   */\n      swap2\n      swap1\n      pop\n      jump\t// out\n        /* \"#utility.yul\":1611:1729   */\n    tag_116:\n        /* \"#utility.yul\":1698:1722   */\n      tag_164\n        /* \"#utility.yul\":1716:1721   */\n      dup2\n        /* \"#utility.yul\":1698:1722   */\n      tag_115\n      jump\t// in\n    tag_164:\n        /* \"#utility.yul\":1693:1696   */\n      dup3\n        /* \"#utility.yul\":1686:1723   */\n      mstore\n        /* \"#utility.yul\":1611:1729   */\n      pop\n      pop\n      jump\t// out\n        /* \"#utility.yul\":1735:1957   */\n    tag_29:\n        /* \"#utility.yul\":1828:1832   */\n      0x00\n        /* \"#utility.yul\":1866:1868   */\n      0x20\n        /* \"#utility.yul\":1855:1864   */\n      dup3\n        /* \"#utility.yul\":1851:1869   */\n      add\n        /* \"#utility.yul\":1843:1869   */\n      swap1\n      pop\n        /* \"#utility.yul\":1879:1950   */\n      tag_166\n        /* \"#utility.yul\":1947:1948   */\n      0x00\n        /* \"#utility.yul\":1936:1945   */\n      dup4\n        /* \"#utility.yul\":1932:1949   */\n      add\n        /* \"#utility.yul\":1923:1929   */\n      dup5\n        /* \"#utility.yul\":1879:1950   */\n      tag_116\n      jump\t// in\n    tag_166:\n        /* \"#utility.yul\":1735:1957   */\n      swap3\n      swap2\n      pop\n      pop\n      jump\t// out\n        /* \"#utility.yul\":1963:2080   */\n    tag_117:\n        /* \"#utility.yul\":2072:2073   */\n      0x00\n        /* \"#utility.yul\":2069:2070   */\n      dup1\n        /* \"#utility.yul\":2062:2074   */\n      revert\n        /* \"#utility.yul\":2086:2203   */\n    tag_118:\n        /* \"#utility.yul\":2195:2196   */\n      0x00\n        /* \"#utility.yul\":2192:2193   */\n      dup1\n        /* \"#utility.yul\":2185:2197   */\n      revert\n        /* \"#utility.yul\":2209:2326   */\n    tag_119:\n        /* \"#utility.yul\":2318:2319   */\n      0x00\n        /* \"#utility.yul\":2315:2316   */\n      dup1\n        /* \"#utility.yul\":2308:2320   */\n      revert\n        /* \"#utility.yul\":2345:2897   */\n    tag_120:\n        /* \"#utility.yul\":2402:2410   */\n      0x00\n        /* \"#utility.yul\":2412:2418   */\n      dup1\n        /* \"#utility.yul\":2462:2465   */\n      dup4\n        /* \"#utility.yul\":2455:2459   */\n      0x1f\n        /* \"#utility.yul\":2447:2453   */\n      dup5\n        /* \"#utility.yul\":2443:2460   */\n      add\n        /* \"#utility.yul\":2439:2466   */\n      slt\n        /* \"#utility.yul\":2429:2551   */\n      tag_171\n      jumpi\n        /* \"#utility.yul\":2470:2549   */\n      tag_172\n      tag_117\n      jump\t// in\n    tag_172:\n        /* \"#utility.yul\":2429:2551   */\n    tag_171:\n        /* \"#utility.yul\":2583:2589   */\n      dup3\n        /* \"#utility.yul\":2570:2590   */\n      calldataload\n        /* \"#utility.yul\":2560:2590   */\n      swap1\n      pop\n        /* \"#utility.yul\":2613:2631   */\n      0xffffffffffffffff\n        /* \"#utility.yul\":2605:2611   */\n      dup2\n        /* \"#utility.yul\":2602:2632   */\n      gt\n        /* \"#utility.yul\":2599:2716   */\n      iszero\n      tag_173\n      jumpi\n        /* \"#utility.yul\":2635:2714   */\n      tag_174\n      tag_118\n      jump\t// in\n    tag_174:\n        /* \"#utility.yul\":2599:2716   */\n    tag_173:\n        /* \"#utility.yul\":2749:2753   */\n      0x20\n        /* \"#utility.yul\":2741:2747   */\n      dup4\n        /* \"#utility.yul\":2737:2754   */\n      add\n        /* \"#utility.yul\":2725:2754   */\n      swap2\n      pop\n        /* \"#utility.yul\":2803:2806   */\n      dup4\n        /* \"#utility.yul\":2795:2799   */\n      0x01\n        /* \"#utility.yul\":2787:2793   */\n      dup3\n        /* \"#utility.yul\":2783:2800   */\n      mul\n        /* \"#utility.yul\":2773:2781   */\n      dup4\n        /* \"#utility.yul\":2769:2801   */\n      add\n        /* \"#utility.yul\":2766:2807   */\n      gt\n        /* \"#utility.yul\":2763:2891   */\n      iszero\n      tag_175\n      jumpi\n        /* \"#utility.yul\":2810:2889   */\n      tag_176\n      tag_119\n      jump\t// in\n    tag_176:\n        /* \"#utility.yul\":2763:2891   */\n    tag_175:\n        /* \"#utility.yul\":2345:2897   */\n      swap3\n      pop\n      swap3\n      swap1\n      pop\n      jump\t// out\n        /* \"#utility.yul\":2903:3430   */\n    tag_35:\n        /* \"#utility.yul\":2973:2979   */\n      0x00\n        /* \"#utility.yul\":2981:2987   */\n      dup1\n        /* \"#utility.yul\":3030:3032   */\n      0x20\n        /* \"#utility.yul\":3018:3027   */\n      dup4\n        /* \"#utility.yul\":3009:3016   */\n      dup6\n        /* \"#utility.yul\":3005:3028   */\n      sub\n        /* \"#utility.yul\":3001:3033   */\n      slt\n        /* \"#utility.yul\":2998:3117   */\n      iszero\n      tag_178\n      jumpi\n        /* \"#utility.yul\":3036:3115   */\n      tag_179\n      tag_110\n      jump\t// in\n    tag_179:\n        /* \"#utility.yul\":2998:3117   */\n    tag_178:\n        /* \"#utility.yul\":3184:3185   */\n      0x00\n        /* \"#utility.yul\":3173:3182   */\n      dup4\n        /* \"#utility.yul\":3169:3186   */\n      add\n        /* \"#utility.yul\":3156:3187   */\n      calldataload\n        /* \"#utility.yul\":3214:3232   */\n      0xffffffffffffffff\n        /* \"#utility.yul\":3206:3212   */\n      dup2\n        /* \"#utility.yul\":3203:3233   */\n      gt\n        /* \"#utility.yul\":3200:3317   */\n      iszero\n      tag_180\n      jumpi\n        /* \"#utility.yul\":3236:3315   */\n      tag_181\n      tag_111\n      jump\t// in\n    tag_181:\n        /* \"#utility.yul\":3200:3317   */\n    tag_180:\n        /* \"#utility.yul\":3349:3413   */\n      tag_182\n        /* \"#utility.yul\":3405:3412   */\n      dup6\n        /* \"#utility.yul\":3396:3402   */\n      dup3\n        /* \"#utility.yul\":3385:3394   */\n      dup7\n        /* \"#utility.yul\":3381:3403   */\n      add\n        /* \"#utility.yul\":3349:3413   */\n      tag_120\n      jump\t// in\n    tag_182:\n        /* \"#utility.yul\":3331:3413   */\n      swap3\n      pop\n      swap3\n      pop\n        /* \"#utility.yul\":3127:3423   */\n      pop\n        /* \"#utility.yul\":2903:3430   */\n      swap3\n      pop\n      swap3\n      swap1\n      pop\n      jump\t// out\n        /* \"#utility.yul\":3436:3526   */\n    tag_121:\n        /* \"#utility.yul\":3470:3477   */\n      0x00\n        /* \"#utility.yul\":3513:3518   */\n      dup2\n        /* \"#utility.yul\":3506:3519   */\n      iszero\n        /* \"#utility.yul\":3499:3520   */\n      iszero\n        /* \"#utility.yul\":3488:3520   */\n      swap1\n      pop\n        /* \"#utility.yul\":3436:3526   */\n      swap2\n      swap1\n      pop\n      jump\t// out\n        /* \"#utility.yul\":3532:3641   */\n    tag_122:\n        /* \"#utility.yul\":3613:3634   */\n      tag_185\n        /* \"#utility.yul\":3628:3633   */\n      dup2\n        /* \"#utility.yul\":3613:3634   */\n      tag_121\n      jump\t// in\n    tag_185:\n        /* \"#utility.yul\":3608:3611   */\n      dup3\n        /* \"#utility.yul\":3601:3635   */\n      mstore\n        /* \"#utility.yul\":3532:3641   */\n      pop\n      pop\n      jump\t// out\n        /* \"#utility.yul\":3647:3745   */\n    tag_123:\n        /* \"#utility.yul\":3698:3704   */\n      0x00\n        /* \"#utility.yul\":3732:3737   */\n      dup2\n        /* \"#utility.yul\":3726:3738   */\n      mload\n        /* \"#utility.yul\":3716:3738   */\n      swap1\n      pop\n        /* \"#utility.yul\":3647:3745   */\n      swap2\n      swap1\n      pop\n      jump\t// out\n        /* \"#utility.yul\":3751:3919   */\n    tag_124:\n        /* \"#utility.yul\":3834:3845   */\n      0x00\n        /* \"#utility.yul\":3868:3874   */\n      dup3\n        /* \"#utility.yul\":3863:3866   */\n      dup3\n        /* \"#utility.yul\":3856:3875   */\n      mstore\n        /* \"#utility.yul\":3908:3912   */\n      0x20\n        /* \"#utility.yul\":3903:3906   */\n      dup3\n        /* \"#utility.yul\":3899:3913   */\n      add\n        /* \"#utility.yul\":3884:3913   */\n      swap1\n      pop\n        /* \"#utility.yul\":3751:3919   */\n      swap3\n      swap2\n      pop\n      pop\n      jump\t// out\n        /* \"#utility.yul\":3925:4171   */\n    tag_125:\n        /* \"#utility.yul\":4006:4007   */\n      0x00\n        /* \"#utility.yul\":4016:4129   */\n    tag_189:\n        /* \"#utility.yul\":4030:4036   */\n      dup4\n        /* \"#utility.yul\":4027:4028   */\n      dup2\n        /* \"#utility.yul\":4024:4037   */\n      lt\n        /* \"#utility.yul\":4016:4129   */\n      iszero\n      tag_191\n      jumpi\n        /* \"#utility.yul\":4115:4116   */\n      dup1\n        /* \"#utility.yul\":4110:4113   */\n      dup3\n        /* \"#utility.yul\":4106:4117   */\n      add\n        /* \"#utility.yul\":4100:4118   */\n      mload\n        /* \"#utility.yul\":4096:4097   */\n      dup2\n        /* \"#utility.yul\":4091:4094   */\n      dup5\n        /* \"#utility.yul\":4087:4098   */\n      add\n        /* \"#utility.yul\":4080:4119   */\n      mstore\n        /* \"#utility.yul\":4052:4054   */\n      0x20\n        /* \"#utility.yul\":4049:4050   */\n      dup2\n        /* \"#utility.yul\":4045:4055   */\n      add\n        /* \"#utility.yul\":4040:4055   */\n      swap1\n      pop\n        /* \"#utility.yul\":4016:4129   */\n      jump(tag_189)\n    tag_191:\n        /* \"#utility.yul\":4163:4164   */\n      0x00\n        /* \"#utility.yul\":4154:4160   */\n      dup5\n        /* \"#utility.yul\":4149:4152   */\n      dup5\n        /* \"#utility.yul\":4145:4161   */\n      add\n        /* \"#utility.yul\":4138:4165   */\n      mstore\n        /* \"#utility.yul\":3987:4171   */\n      pop\n        /* \"#utility.yul\":3925:4171   */\n      pop\n      pop\n      pop\n      jump\t// out\n        /* \"#utility.yul\":4177:4279   */\n    tag_126:\n        /* \"#utility.yul\":4218:4224   */\n      0x00\n        /* \"#utility.yul\":4269:4271   */\n      0x1f\n        /* \"#utility.yul\":4265:4272   */\n      not\n        /* \"#utility.yul\":4260:4262   */\n      0x1f\n        /* \"#utility.yul\":4253:4258   */\n      dup4\n        /* \"#utility.yul\":4249:4263   */\n      add\n        /* \"#utility.yul\":4245:4273   */\n      and\n        /* \"#utility.yul\":4235:4273   */\n      swap1\n      pop\n        /* \"#utility.yul\":4177:4279   */\n      swap2\n      swap1\n      pop\n      jump\t// out\n        /* \"#utility.yul\":4285:4658   */\n    tag_127:\n        /* \"#utility.yul\":4371:4374   */\n      0x00\n        /* \"#utility.yul\":4399:4437   */\n      tag_194\n        /* \"#utility.yul\":4431:4436   */\n      dup3\n        /* \"#utility.yul\":4399:4437   */\n      tag_123\n      jump\t// in\n    tag_194:\n        /* \"#utility.yul\":4453:4523   */\n      tag_195\n        /* \"#utility.yul\":4516:4522   */\n      dup2\n        /* \"#utility.yul\":4511:4514   */\n      dup6\n        /* \"#utility.yul\":4453:4523   */\n      tag_124\n      jump\t// in\n    tag_195:\n        /* \"#utility.yul\":4446:4523   */\n      swap4\n      pop\n        /* \"#utility.yul\":4532:4597   */\n      tag_196\n        /* \"#utility.yul\":4590:4596   */\n      dup2\n        /* \"#utility.yul\":4585:4588   */\n      dup6\n        /* \"#utility.yul\":4578:4582   */\n      0x20\n        /* \"#utility.yul\":4571:4576   */\n      dup7\n        /* \"#utility.yul\":4567:4583   */\n      add\n        /* \"#utility.yul\":4532:4597   */\n      tag_125\n      jump\t// in\n    tag_196:\n        /* \"#utility.yul\":4622:4651   */\n      tag_197\n        /* \"#utility.yul\":4644:4650   */\n      dup2\n        /* \"#utility.yul\":4622:4651   */\n      tag_126\n      jump\t// in\n    tag_197:\n        /* \"#utility.yul\":4617:4620   */\n      dup5\n        /* \"#utility.yul\":4613:4652   */\n      add\n        /* \"#utility.yul\":4606:4652   */\n      swap2\n      pop\n        /* \"#utility.yul\":4375:4658   */\n      pop\n        /* \"#utility.yul\":4285:4658   */\n      swap3\n      swap2\n      pop\n      pop\n      jump\t// out\n        /* \"#utility.yul\":4664:5071   */\n    tag_46:\n        /* \"#utility.yul\":4797:4801   */\n      0x00\n        /* \"#utility.yul\":4835:4837   */\n      0x40\n        /* \"#utility.yul\":4824:4833   */\n      dup3\n        /* \"#utility.yul\":4820:4838   */\n      add\n        /* \"#utility.yul\":4812:4838   */\n      swap1\n      pop\n        /* \"#utility.yul\":4848:4913   */\n      tag_199\n        /* \"#utility.yul\":4910:4911   */\n      0x00\n        /* \"#utility.yul\":4899:4908   */\n      dup4\n        /* \"#utility.yul\":4895:4912   */\n      add\n        /* \"#utility.yul\":4886:4892   */\n      dup6\n        /* \"#utility.yul\":4848:4913   */\n      tag_122\n      jump\t// in\n    tag_199:\n        /* \"#utility.yul\":4960:4969   */\n      dup2\n        /* \"#utility.yul\":4954:4958   */\n      dup2\n        /* \"#utility.yul\":4950:4970   */\n      sub\n        /* \"#utility.yul\":4945:4947   */\n      0x20\n        /* \"#utility.yul\":4934:4943   */\n      dup4\n        /* \"#utility.yul\":4930:4948   */\n      add\n        /* \"#utility.yul\":4923:4971   */\n      mstore\n        /* \"#utility.yul\":4988:5064   */\n      tag_200\n        /* \"#utility.yul\":5059:5063   */\n      dup2\n        /* \"#utility.yul\":5050:5056   */\n      dup5\n        /* \"#utility.yul\":4988:5064   */\n      tag_127\n      jump\t// in\n    tag_200:\n        /* \"#utility.yul\":4980:5064   */\n      swap1\n      pop\n        /* \"#utility.yul\":4664:5071   */\n      swap4\n      swap3\n      pop\n      pop\n      pop\n      jump\t// out\n        /* \"#utility.yul\":5077:5199   */\n    tag_128:\n        /* \"#utility.yul\":5150:5174   */\n      tag_202\n        /* \"#utility.yul\":5168:5173   */\n      dup2\n        /* \"#utility.yul\":5150:5174   */\n      tag_115\n      jump\t// in\n    tag_202:\n        /* \"#utility.yul\":5143:5148   */\n      dup2\n        /* \"#utility.yul\":5140:5175   */\n      eq\n        /* \"#utility.yul\":5130:5193   */\n      tag_203\n      jumpi\n        /* \"#utility.yul\":5189:5190   */\n      0x00\n        /* \"#utility.yul\":5186:5187   */\n      dup1\n        /* \"#utility.yul\":5179:5191   */\n      revert\n        /* \"#utility.yul\":5130:5193   */\n    tag_203:\n        /* \"#utility.yul\":5077:5199   */\n      pop\n      jump\t// out\n        /* \"#utility.yul\":5205:5344   */\n    tag_129:\n        /* \"#utility.yul\":5251:5256   */\n      0x00\n        /* \"#utility.yul\":5289:5295   */\n      dup2\n        /* \"#utility.yul\":5276:5296   */\n      calldataload\n        /* \"#utility.yul\":5267:5296   */\n      swap1\n      pop\n        /* \"#utility.yul\":5305:5338   */\n      tag_205\n        /* \"#utility.yul\":5332:5337   */\n      dup2\n        /* \"#utility.yul\":5305:5338   */\n      tag_128\n      jump\t// in\n    tag_205:\n        /* \"#utility.yul\":5205:5344   */\n      swap3\n      swap2\n      pop\n      pop\n      jump\t// out\n        /* \"#utility.yul\":5350:5679   */\n    tag_57:\n        /* \"#utility.yul\":5409:5415   */\n      0x00\n        /* \"#utility.yul\":5458:5460   */\n      0x20\n        /* \"#utility.yul\":5446:5455   */\n      dup3\n        /* \"#utility.yul\":5437:5444   */\n      dup5\n        /* \"#utility.yul\":5433:5456   */\n      sub\n        /* \"#utility.yul\":5429:5461   */\n      slt\n        /* \"#utility.yul\":5426:5545   */\n      iszero\n      tag_207\n      jumpi\n        /* \"#utility.yul\":5464:5543   */\n      tag_208\n      tag_110\n      jump\t// in\n    tag_208:\n        /* \"#utility.yul\":5426:5545   */\n    tag_207:\n        /* \"#utility.yul\":5584:5585   */\n      0x00\n        /* \"#utility.yul\":5609:5662   */\n      tag_209\n        /* \"#utility.yul\":5654:5661   */\n      dup5\n        /* \"#utility.yul\":5645:5651   */\n      dup3\n        /* \"#utility.yul\":5634:5643   */\n      dup6\n        /* \"#utility.yul\":5630:5652   */\n      add\n        /* \"#utility.yul\":5609:5662   */\n      tag_129\n      jump\t// in\n    tag_209:\n        /* \"#utility.yul\":5599:5662   */\n      swap2\n      pop\n        /* \"#utility.yul\":5555:5672   */\n      pop\n        /* \"#utility.yul\":5350:5679   */\n      swap3\n      swap2\n      pop\n      pop\n      jump\t// out\n        /* \"#utility.yul\":5685:5854   */\n    tag_130:\n        /* \"#utility.yul\":5769:5780   */\n      0x00\n        /* \"#utility.yul\":5803:5809   */\n      dup3\n        /* \"#utility.yul\":5798:5801   */\n      dup3\n        /* \"#utility.yul\":5791:5810   */\n      mstore\n        /* \"#utility.yul\":5843:5847   */\n      0x20\n        /* \"#utility.yul\":5838:5841   */\n      dup3\n        /* \"#utility.yul\":5834:5848   */\n      add\n        /* \"#utility.yul\":5819:5848   */\n      swap1\n      pop\n        /* \"#utility.yul\":5685:5854   */\n      swap3\n      swap2\n      pop\n      pop\n      jump\t// out\n        /* \"#utility.yul\":5860:6106   */\n    tag_131:\n        /* \"#utility.yul\":6000:6034   */\n      0x54686973206164647265737320646f6573206e6f742068617665207065726d69\n        /* \"#utility.yul\":5996:5997   */\n      0x00\n        /* \"#utility.yul\":5988:5994   */\n      dup3\n        /* \"#utility.yul\":5984:5998   */\n      add\n        /* \"#utility.yul\":5977:6035   */\n      mstore\n        /* \"#utility.yul\":6069:6098   */\n      0x7373696f6e20746f2063616c6c20706572666f726d55706b6565700000000000\n        /* \"#utility.yul\":6064:6066   */\n      0x20\n        /* \"#utility.yul\":6056:6062   */\n      dup3\n        /* \"#utility.yul\":6052:6067   */\n      add\n        /* \"#utility.yul\":6045:6099   */\n      mstore\n        /* \"#utility.yul\":5860:6106   */\n      pop\n      jump\t// out\n        /* \"#utility.yul\":6112:6478   */\n    tag_132:\n        /* \"#utility.yul\":6254:6257   */\n      0x00\n        /* \"#utility.yul\":6275:6342   */\n      tag_213\n        /* \"#utility.yul\":6339:6341   */\n      0x3b\n        /* \"#utility.yul\":6334:6337   */\n      dup4\n        /* \"#utility.yul\":6275:6342   */\n      tag_130\n      jump\t// in\n    tag_213:\n        /* \"#utility.yul\":6268:6342   */\n      swap2\n      pop\n        /* \"#utility.yul\":6351:6444   */\n      tag_214\n        /* \"#utility.yul\":6440:6443   */\n      dup3\n        /* \"#utility.yul\":6351:6444   */\n      tag_131\n      jump\t// in\n    tag_214:\n        /* \"#utility.yul\":6469:6471   */\n      0x40\n        /* \"#utility.yul\":6464:6467   */\n      dup3\n        /* \"#utility.yul\":6460:6472   */\n      add\n        /* \"#utility.yul\":6453:6472   */\n      swap1\n      pop\n        /* \"#utility.yul\":6112:6478   */\n      swap2\n      swap1\n      pop\n      jump\t// out\n        /* \"#utility.yul\":6484:6903   */\n    tag_69:\n        /* \"#utility.yul\":6650:6654   */\n      0x00\n        /* \"#utility.yul\":6688:6690   */\n      0x20\n        /* \"#utility.yul\":6677:6686   */\n      dup3\n        /* \"#utility.yul\":6673:6691   */\n      add\n        /* \"#utility.yul\":6665:6691   */\n      swap1\n      pop\n        /* \"#utility.yul\":6737:6746   */\n      dup2\n        /* \"#utility.yul\":6731:6735   */\n      dup2\n        /* \"#utility.yul\":6727:6747   */\n      sub\n        /* \"#utility.yul\":6723:6724   */\n      0x00\n        /* \"#utility.yul\":6712:6721   */\n      dup4\n        /* \"#utility.yul\":6708:6725   */\n      add\n        /* \"#utility.yul\":6701:6748   */\n      mstore\n        /* \"#utility.yul\":6765:6896   */\n      tag_216\n        /* \"#utility.yul\":6891:6895   */\n      dup2\n        /* \"#utility.yul\":6765:6896   */\n      tag_132\n      jump\t// in\n    tag_216:\n        /* \"#utility.yul\":6757:6896   */\n      swap1\n      pop\n        /* \"#utility.yul\":6484:6903   */\n      swap2\n      swap1\n      pop\n      jump\t// out\n        /* \"#utility.yul\":6909:7068   */\n    tag_133:\n        /* \"#utility.yul\":7049:7060   */\n      0x6974206973206f66660000000000000000000000000000000000000000000000\n        /* \"#utility.yul\":7045:7046   */\n      0x00\n        /* \"#utility.yul\":7037:7043   */\n      dup3\n        /* \"#utility.yul\":7033:7047   */\n      add\n        /* \"#utility.yul\":7026:7061   */\n      mstore\n        /* \"#utility.yul\":6909:7068   */\n      pop\n      jump\t// out\n        /* \"#utility.yul\":7074:7439   */\n    tag_134:\n        /* \"#utility.yul\":7216:7219   */\n      0x00\n        /* \"#utility.yul\":7237:7303   */\n      tag_219\n        /* \"#utility.yul\":7301:7302   */\n      0x09\n        /* \"#utility.yul\":7296:7299   */\n      dup4\n        /* \"#utility.yul\":7237:7303   */\n      tag_130\n      jump\t// in\n    tag_219:\n        /* \"#utility.yul\":7230:7303   */\n      swap2\n      pop\n        /* \"#utility.yul\":7312:7405   */\n      tag_220\n        /* \"#utility.yul\":7401:7404   */\n      dup3\n        /* \"#utility.yul\":7312:7405   */\n      tag_133\n      jump\t// in\n    tag_220:\n        /* \"#utility.yul\":7430:7432   */\n      0x20\n        /* \"#utility.yul\":7425:7428   */\n      dup3\n        /* \"#utility.yul\":7421:7433   */\n      add\n        /* \"#utility.yul\":7414:7433   */\n      swap1\n      pop\n        /* \"#utility.yul\":7074:7439   */\n      swap2\n      swap1\n      pop\n      jump\t// out\n        /* \"#utility.yul\":7445:7864   */\n    tag_72:\n        /* \"#utility.yul\":7611:7615   */\n      0x00\n        /* \"#utility.yul\":7649:7651   */\n      0x20\n        /* \"#utility.yul\":7638:7647   */\n      dup3\n        /* \"#utility.yul\":7634:7652   */\n      add\n        /* \"#utility.yul\":7626:7652   */\n      swap1\n      pop\n        /* \"#utility.yul\":7698:7707   */\n      dup2\n        /* \"#utility.yul\":7692:7696   */\n      dup2\n        /* \"#utility.yul\":7688:7708   */\n      sub\n        /* \"#utility.yul\":7684:7685   */\n      0x00\n        /* \"#utility.yul\":7673:7682   */\n      dup4\n        /* \"#utility.yul\":7669:7686   */\n      add\n        /* \"#utility.yul\":7662:7709   */\n      mstore\n        /* \"#utility.yul\":7726:7857   */\n      tag_222\n        /* \"#utility.yul\":7852:7856   */\n      dup2\n        /* \"#utility.yul\":7726:7857   */\n      tag_134\n      jump\t// in\n    tag_222:\n        /* \"#utility.yul\":7718:7857   */\n      swap1\n      pop\n        /* \"#utility.yul\":7445:7864   */\n      swap2\n      swap1\n      pop\n      jump\t// out\n        /* \"#utility.yul\":7870:8050   */\n    tag_135:\n        /* \"#utility.yul\":7918:7995   */\n      0x4e487b7100000000000000000000000000000000000000000000000000000000\n        /* \"#utility.yul\":7915:7916   */\n      0x00\n        /* \"#utility.yul\":7908:7996   */\n      mstore\n        /* \"#utility.yul\":8015:8019   */\n      0x11\n        /* \"#utility.yul\":8012:8013   */\n      0x04\n        /* \"#utility.yul\":8005:8020   */\n      mstore\n        /* \"#utility.yul\":8039:8043   */\n      0x24\n        /* \"#utility.yul\":8036:8037   */\n      0x00\n        /* \"#utility.yul\":8029:8044   */\n      revert\n        /* \"#utility.yul\":8056:8247   */\n    tag_74:\n        /* \"#utility.yul\":8096:8099   */\n      0x00\n        /* \"#utility.yul\":8115:8135   */\n      tag_225\n        /* \"#utility.yul\":8133:8134   */\n      dup3\n        /* \"#utility.yul\":8115:8135   */\n      tag_107\n      jump\t// in\n    tag_225:\n        /* \"#utility.yul\":8110:8135   */\n      swap2\n      pop\n        /* \"#utility.yul\":8149:8169   */\n      tag_226\n        /* \"#utility.yul\":8167:8168   */\n      dup4\n        /* \"#utility.yul\":8149:8169   */\n      tag_107\n      jump\t// in\n    tag_226:\n        /* \"#utility.yul\":8144:8169   */\n      swap3\n      pop\n        /* \"#utility.yul\":8192:8193   */\n      dup3\n        /* \"#utility.yul\":8189:8190   */\n      dup3\n        /* \"#utility.yul\":8185:8194   */\n      add\n        /* \"#utility.yul\":8178:8194   */\n      swap1\n      pop\n        /* \"#utility.yul\":8213:8216   */\n      dup1\n        /* \"#utility.yul\":8210:8211   */\n      dup3\n        /* \"#utility.yul\":8207:8217   */\n      gt\n        /* \"#utility.yul\":8204:8240   */\n      iszero\n      tag_227\n      jumpi\n        /* \"#utility.yul\":8220:8238   */\n      tag_228\n      tag_135\n      jump\t// in\n    tag_228:\n        /* \"#utility.yul\":8204:8240   */\n    tag_227:\n        /* \"#utility.yul\":8056:8247   */\n      swap3\n      swap2\n      pop\n      pop\n      jump\t// out\n        /* \"#utility.yul\":8253:8447   */\n    tag_82:\n        /* \"#utility.yul\":8293:8297   */\n      0x00\n        /* \"#utility.yul\":8313:8333   */\n      tag_230\n        /* \"#utility.yul\":8331:8332   */\n      dup3\n        /* \"#utility.yul\":8313:8333   */\n      tag_107\n      jump\t// in\n    tag_230:\n        /* \"#utility.yul\":8308:8333   */\n      swap2\n      pop\n        /* \"#utility.yul\":8347:8367   */\n      tag_231\n        /* \"#utility.yul\":8365:8366   */\n      dup4\n        /* \"#utility.yul\":8347:8367   */\n      tag_107\n      jump\t// in\n    tag_231:\n        /* \"#utility.yul\":8342:8367   */\n      swap3\n      pop\n        /* \"#utility.yul\":8391:8392   */\n      dup3\n        /* \"#utility.yul\":8388:8389   */\n      dup3\n        /* \"#utility.yul\":8384:8393   */\n      sub\n        /* \"#utility.yul\":8376:8393   */\n      swap1\n      pop\n        /* \"#utility.yul\":8415:8416   */\n      dup2\n        /* \"#utility.yul\":8409:8413   */\n      dup2\n        /* \"#utility.yul\":8406:8417   */\n      gt\n        /* \"#utility.yul\":8403:8440   */\n      iszero\n      tag_232\n      jumpi\n        /* \"#utility.yul\":8420:8438   */\n      tag_233\n      tag_135\n      jump\t// in\n    tag_233:\n        /* \"#utility.yul\":8403:8440   */\n    tag_232:\n        /* \"#utility.yul\":8253:8447   */\n      swap3\n      swap2\n      pop\n      pop\n      jump\t// out\n        /* \"#utility.yul\":8453:8625   */\n    tag_136:\n        /* \"#utility.yul\":8593:8617   */\n      0x4d7573742062652070726f706f736564206f776e657200000000000000000000\n        /* \"#utility.yul\":8589:8590   */\n      0x00\n        /* \"#utility.yul\":8581:8587   */\n      dup3\n        /* \"#utility.yul\":8577:8591   */\n      add\n        /* \"#utility.yul\":8570:8618   */\n      mstore\n        /* \"#utility.yul\":8453:8625   */\n      pop\n      jump\t// out\n        /* \"#utility.yul\":8631:8997   */\n    tag_137:\n        /* \"#utility.yul\":8773:8776   */\n      0x00\n        /* \"#utility.yul\":8794:8861   */\n      tag_236\n        /* \"#utility.yul\":8858:8860   */\n      0x16\n        /* \"#utility.yul\":8853:8856   */\n      dup4\n        /* \"#utility.yul\":8794:8861   */\n      tag_130\n      jump\t// in\n    tag_236:\n        /* \"#utility.yul\":8787:8861   */\n      swap2\n      pop\n        /* \"#utility.yul\":8870:8963   */\n      tag_237\n        /* \"#utility.yul\":8959:8962   */\n      dup3\n        /* \"#utility.yul\":8870:8963   */\n      tag_136\n      jump\t// in\n    tag_237:\n        /* \"#utility.yul\":8988:8990   */\n      0x20\n        /* \"#utility.yul\":8983:8986   */\n      dup3\n        /* \"#utility.yul\":8979:8991   */\n      add\n        /* \"#utility.yul\":8972:8991   */\n      swap1\n      pop\n        /* \"#utility.yul\":8631:8997   */\n      swap2\n      swap1\n      pop\n      jump\t// out\n        /* \"#utility.yul\":9003:9422   */\n    tag_86:\n        /* \"#utility.yul\":9169:9173   */\n      0x00\n        /* \"#utility.yul\":9207:9209   */\n      0x20\n        /* \"#utility.yul\":9196:9205   */\n      dup3\n        /* \"#utility.yul\":9192:9210   */\n      add\n        /* \"#utility.yul\":9184:9210   */\n      swap1\n      pop\n        /* \"#utility.yul\":9256:9265   */\n      dup2\n        /* \"#utility.yul\":9250:9254   */\n      dup2\n        /* \"#utility.yul\":9246:9266   */\n      sub\n        /* \"#utility.yul\":9242:9243   */\n      0x00\n        /* \"#utility.yul\":9231:9240   */\n      dup4\n        /* \"#utility.yul\":9227:9244   */\n      add\n        /* \"#utility.yul\":9220:9267   */\n      mstore\n        /* \"#utility.yul\":9284:9415   */\n      tag_239\n        /* \"#utility.yul\":9410:9414   */\n      dup2\n        /* \"#utility.yul\":9284:9415   */\n      tag_137\n      jump\t// in\n    tag_239:\n        /* \"#utility.yul\":9276:9415   */\n      swap1\n      pop\n        /* \"#utility.yul\":9003:9422   */\n      swap2\n      swap1\n      pop\n      jump\t// out\n        /* \"#utility.yul\":9428:9600   */\n    tag_138:\n        /* \"#utility.yul\":9568:9592   */\n      0x4f6e6c792063616c6c61626c65206279206f776e657200000000000000000000\n        /* \"#utility.yul\":9564:9565   */\n      0x00\n        /* \"#utility.yul\":9556:9562   */\n      dup3\n        /* \"#utility.yul\":9552:9566   */\n      add\n        /* \"#utility.yul\":9545:9593   */\n      mstore\n        /* \"#utility.yul\":9428:9600   */\n      pop\n      jump\t// out\n        /* \"#utility.yul\":9606:9972   */\n    tag_139:\n        /* \"#utility.yul\":9748:9751   */\n      0x00\n        /* \"#utility.yul\":9769:9836   */\n      tag_242\n        /* \"#utility.yul\":9833:9835   */\n      0x16\n        /* \"#utility.yul\":9828:9831   */\n      dup4\n        /* \"#utility.yul\":9769:9836   */\n      tag_130\n      jump\t// in\n    tag_242:\n        /* \"#utility.yul\":9762:9836   */\n      swap2\n      pop\n        /* \"#utility.yul\":9845:9938   */\n      tag_243\n        /* \"#utility.yul\":9934:9937   */\n      dup3\n        /* \"#utility.yul\":9845:9938   */\n      tag_138\n      jump\t// in\n    tag_243:\n        /* \"#utility.yul\":9963:9965   */\n      0x20\n        /* \"#utility.yul\":9958:9961   */\n      dup3\n        /* \"#utility.yul\":9954:9966   */\n      add\n        /* \"#utility.yul\":9947:9966   */\n      swap1\n      pop\n        /* \"#utility.yul\":9606:9972   */\n      swap2\n      swap1\n      pop\n      jump\t// out\n        /* \"#utility.yul\":9978:10397   */\n    tag_99:\n        /* \"#utility.yul\":10144:10148   */\n      0x00\n        /* \"#utility.yul\":10182:10184   */\n      0x20\n        /* \"#utility.yul\":10171:10180   */\n      dup3\n        /* \"#utility.yul\":10167:10185   */\n      add\n        /* \"#utility.yul\":10159:10185   */\n      swap1\n      pop\n        /* \"#utility.yul\":10231:10240   */\n      dup2\n        /* \"#utility.yul\":10225:10229   */\n      dup2\n        /* \"#utility.yul\":10221:10241   */\n      sub\n        /* \"#utility.yul\":10217:10218   */\n      0x00\n        /* \"#utility.yul\":10206:10215   */\n      dup4\n        /* \"#utility.yul\":10202:10219   */\n      add\n        /* \"#utility.yul\":10195:10242   */\n      mstore\n        /* \"#utility.yul\":10259:10390   */\n      tag_245\n        /* \"#utility.yul\":10385:10389   */\n      dup2\n        /* \"#utility.yul\":10259:10390   */\n      tag_139\n      jump\t// in\n    tag_245:\n        /* \"#utility.yul\":10251:10390   */\n      swap1\n      pop\n        /* \"#utility.yul\":9978:10397   */\n      swap2\n      swap1\n      pop\n      jump\t// out\n        /* \"#utility.yul\":10403:10636   */\n    tag_102:\n        /* \"#utility.yul\":10442:10445   */\n      0x00\n        /* \"#utility.yul\":10465:10489   */\n      tag_247\n        /* \"#utility.yul\":10483:10488   */\n      dup3\n        /* \"#utility.yul\":10465:10489   */\n      tag_107\n      jump\t// in\n    tag_247:\n        /* \"#utility.yul\":10456:10489   */\n      swap2\n      pop\n        /* \"#utility.yul\":10511:10577   */\n      0xffffffffffffffffffffffffffffffffffffffffffffffffffffffffffffffff\n        /* \"#utility.yul\":10504:10509   */\n      dup3\n        /* \"#utility.yul\":10501:10578   */\n      sub\n        /* \"#utility.yul\":10498:10601   */\n      tag_248\n      jumpi\n        /* \"#utility.yul\":10581:10599   */\n      tag_249\n      tag_135\n      jump\t// in\n    tag_249:\n        /* \"#utility.yul\":10498:10601   */\n    tag_248:\n        /* \"#utility.yul\":10628:10629   */\n      0x01\n        /* \"#utility.yul\":10621:10626   */\n      dup3\n        /* \"#utility.yul\":10617:10630   */\n      add\n        /* \"#utility.yul\":10610:10630   */\n      swap1\n      pop\n        /* \"#utility.yul\":10403:10636   */\n      swap2\n      swap1\n      pop\n      jump\t// out\n        /* \"#utility.yul\":10642:10815   */\n    tag_140:\n        /* \"#utility.yul\":10782:10807   */\n      0x43616e6e6f74207472616e7366657220746f2073656c66000000000000000000\n        /* \"#utility.yul\":10778:10779   */\n      0x00\n        /* \"#utility.yul\":10770:10776   */\n      dup3\n        /* \"#utility.yul\":10766:10780   */\n      add\n        /* \"#utility.yul\":10759:10808   */\n      mstore\n        /* \"#utility.yul\":10642:10815   */\n      pop\n      jump\t// out\n        /* \"#utility.yul\":10821:11187   */\n    tag_141:\n        /* \"#utility.yul\":10963:10966   */\n      0x00\n        /* \"#utility.yul\":10984:11051   */\n      tag_252\n        /* \"#utility.yul\":11048:11050   */\n      0x17\n        /* \"#utility.yul\":11043:11046   */\n      dup4\n        /* \"#utility.yul\":10984:11051   */\n      tag_130\n      jump\t// in\n    tag_252:\n        /* \"#utility.yul\":10977:11051   */\n      swap2\n      pop\n        /* \"#utility.yul\":11060:11153   */\n      tag_253\n        /* \"#utility.yul\":11149:11152   */\n      dup3\n        /* \"#utility.yul\":11060:11153   */\n      tag_140\n      jump\t// in\n    tag_253:\n        /* \"#utility.yul\":11178:11180   */\n      0x20\n        /* \"#utility.yul\":11173:11176   */\n      dup3\n        /* \"#utility.yul\":11169:11181   */\n      add\n        /* \"#utility.yul\":11162:11181   */\n      swap1\n      pop\n        /* \"#utility.yul\":10821:11187   */\n      swap2\n      swap1\n      pop\n      jump\t// out\n        /* \"#utility.yul\":11193:11612   */\n    tag_106:\n        /* \"#utility.yul\":11359:11363   */\n      0x00\n        /* \"#utility.yul\":11397:11399   */\n      0x20\n        /* \"#utility.yul\":11386:11395   */\n      dup3\n        /* \"#utility.yul\":11382:11400   */\n      add\n        /* \"#utility.yul\":11374:11400   */\n      swap1\n      pop\n        /* \"#utility.yul\":11446:11455   */\n      dup2\n        /* \"#utility.yul\":11440:11444   */\n      dup2\n        /* \"#utility.yul\":11436:11456   */\n      sub\n        /* \"#utility.yul\":11432:11433   */\n      0x00\n        /* \"#utility.yul\":11421:11430   */\n      dup4\n        /* \"#utility.yul\":11417:11434   */\n      add\n        /* \"#utility.yul\":11410:11457   */\n      mstore\n        /* \"#utility.yul\":11474:11605   */\n      tag_255\n        /* \"#utility.yul\":11600:11604   */\n      dup2\n        /* \"#utility.yul\":11474:11605   */\n      tag_141\n      jump\t// in\n    tag_255:\n        /* \"#utility.yul\":11466:11605   */\n      swap1\n      pop\n        /* \"#utility.yul\":11193:11612   */\n      swap2\n      swap1\n      pop\n      jump\t// out\n\n    auxdata: 0xa2646970667358221220bd79dd0358db888f72e8b83c69cf2266d7bcce6f1b7ebdf758157cf3a10a247f64736f6c63430008130033\n}\n",
				"bytecode": {
					"linkReferences": {},
					"object": "60806040523480156200001157600080fd5b50338060008073ffffffffffffffffffffffffffffffffffffffff168273ffffffffffffffffffffffffffffffffffffffff160362000087576040517f08c379a00000000000000000000000000000000000000000000000000000000081526004016200007e90620002a7565b60405180910390fd5b816000806101000a81548173ffffffffffffffffffffffffffffffffffffffff021916908373ffffffffffffffffffffffffffffffffffffffff160217905550600073ffffffffffffffffffffffffffffffffffffffff168173ffffffffffffffffffffffffffffffffffffffff16146200010e576200010d816200011760201b60201c565b5b5050506200033b565b3373ffffffffffffffffffffffffffffffffffffffff168173ffffffffffffffffffffffffffffffffffffffff160362000188576040517f08c379a00000000000000000000000000000000000000000000000000000000081526004016200017f9062000319565b60405180910390fd5b80600160006101000a81548173ffffffffffffffffffffffffffffffffffffffff021916908373ffffffffffffffffffffffffffffffffffffffff1602179055508073ffffffffffffffffffffffffffffffffffffffff1660008054906101000a900473ffffffffffffffffffffffffffffffffffffffff1673ffffffffffffffffffffffffffffffffffffffff167fed8889f560326eb138920d842192f0eb3dd22b4f139c87a2c57538e05bae127860405160405180910390a350565b600082825260208201905092915050565b7f43616e6e6f7420736574206f776e657220746f207a65726f0000000000000000600082015250565b60006200028f60188362000246565b91506200029c8262000257565b602082019050919050565b60006020820190508181036000830152620002c28162000280565b9050919050565b7f43616e6e6f74207472616e7366657220746f2073656c66000000000000000000600082015250565b60006200030160178362000246565b91506200030e82620002c9565b602082019050919050565b600060208201905081810360008301526200033481620002f2565b9050919050565b610e0f806200034b6000396000f3fe608060405234801561001057600080fd5b50600436106100cf5760003560e01c80636626b26d1161008c5780638da5cb5b116100665780638da5cb5b146101c9578063947a36fb146101e7578063d777cc6d14610205578063f2fde38b14610221576100cf565b80636626b26d146101845780636e04ff0d1461018e57806379ba5097146101bf576100cf565b80630e47f553146100d457806322a90082146100f25780633070fbf81461010e5780633f3b3b271461012c5780634585e33b1461014a57806361bc221a14610166575b600080fd5b6100dc61023d565b6040516100e991906107e7565b60405180910390f35b61010c60048036038101906101079190610838565b610243565b005b61011661025c565b60405161012391906108a6565b60405180910390f35b610134610282565b60405161014191906107e7565b60405180910390f35b610164600480360381019061015f9190610926565b610288565b005b61016e610385565b60405161017b91906107e7565b60405180910390f35b61018c61038b565b005b6101a860048036038101906101a39190610926565b61039d565b6040516101b6929190610a1e565b60405180910390f35b6101c76103d4565b005b6101d1610569565b6040516101de91906108a6565b60405180910390f35b6101ef610592565b6040516101fc91906107e7565b60405180910390f35b61021f600480360381019061021a9190610a7a565b610598565b005b61023b60048036038101906102369190610a7a565b6105e4565b005b60065481565b61024b6105f8565b806003819055504260048190555050565b600560009054906101000a900473ffffffffffffffffffffffffffffffffffffffff1681565b60045481565b600560009054906101000a900473ffffffffffffffffffffffffffffffffffffffff1673ffffffffffffffffffffffffffffffffffffffff163373ffffffffffffffffffffffffffffffffffffffff1614610318576040517f08c379a000000000000000000000000000000000000000000000000000000000815260040161030f90610b2a565b60405180910390fd5b60006003540361035d576040517f08c379a000000000000000000000000000000000000000000000000000000000815260040161035490610b96565b60405180910390fd5b4260048190555060016002546103739190610be5565b600281905550610381610688565b5050565b60025481565b6103936105f8565b6000600381905550565b600060606000600354600454426103b49190610c19565b119050806040518060200160405280600081525092509250509250929050565b600160009054906101000a900473ffffffffffffffffffffffffffffffffffffffff1673ffffffffffffffffffffffffffffffffffffffff163373ffffffffffffffffffffffffffffffffffffffff1614610464576040517f08c379a000000000000000000000000000000000000000000000000000000000815260040161045b90610c99565b60405180910390fd5b60008060009054906101000a900473ffffffffffffffffffffffffffffffffffffffff169050336000806101000a81548173ffffffffffffffffffffffffffffffffffffffff021916908373ffffffffffffffffffffffffffffffffffffffff1602179055506000600160006101000a81548173ffffffffffffffffffffffffffffffffffffffff021916908373ffffffffffffffffffffffffffffffffffffffff1602179055503373ffffffffffffffffffffffffffffffffffffffff168173ffffffffffffffffffffffffffffffffffffffff167f8be0079c531659141344cd1fd0a4f28419497f9722a3daafe3b4186f6b6457e060405160405180910390a350565b60008060009054906101000a900473ffffffffffffffffffffffffffffffffffffffff16905090565b60035481565b6105a06105f8565b80600560006101000a81548173ffffffffffffffffffffffffffffffffffffffff021916908373ffffffffffffffffffffffffffffffffffffffff16021790555050565b6105ec6105f8565b6105f5816106a2565b50565b60008054906101000a900473ffffffffffffffffffffffffffffffffffffffff1673ffffffffffffffffffffffffffffffffffffffff163373ffffffffffffffffffffffffffffffffffffffff1614610686576040517f08c379a000000000000000000000000000000000000000000000000000000000815260040161067d90610d05565b60405180910390fd5b565b6006600081548092919061069b90610d25565b9190505550565b3373ffffffffffffffffffffffffffffffffffffffff168173ffffffffffffffffffffffffffffffffffffffff1603610710576040517f08c379a000000000000000000000000000000000000000000000000000000000815260040161070790610db9565b60405180910390fd5b80600160006101000a81548173ffffffffffffffffffffffffffffffffffffffff021916908373ffffffffffffffffffffffffffffffffffffffff1602179055508073ffffffffffffffffffffffffffffffffffffffff1660008054906101000a900473ffffffffffffffffffffffffffffffffffffffff1673ffffffffffffffffffffffffffffffffffffffff167fed8889f560326eb138920d842192f0eb3dd22b4f139c87a2c57538e05bae127860405160405180910390a350565b6000819050919050565b6107e1816107ce565b82525050565b60006020820190506107fc60008301846107d8565b92915050565b600080fd5b600080fd5b610815816107ce565b811461082057600080fd5b50565b6000813590506108328161080c565b92915050565b60006020828403121561084e5761084d610802565b5b600061085c84828501610823565b91505092915050565b600073ffffffffffffffffffffffffffffffffffffffff82169050919050565b600061089082610865565b9050919050565b6108a081610885565b82525050565b60006020820190506108bb6000830184610897565b92915050565b600080fd5b600080fd5b600080fd5b60008083601f8401126108e6576108e56108c1565b5b8235905067ffffffffffffffff811115610903576109026108c6565b5b60208301915083600182028301111561091f5761091e6108cb565b5b9250929050565b6000806020838503121561093d5761093c610802565b5b600083013567ffffffffffffffff81111561095b5761095a610807565b5b610967858286016108d0565b92509250509250929050565b60008115159050919050565b61098881610973565b82525050565b600081519050919050565b600082825260208201905092915050565b60005b838110156109c85780820151818401526020810190506109ad565b60008484015250505050565b6000601f19601f8301169050919050565b60006109f08261098e565b6109fa8185610999565b9350610a0a8185602086016109aa565b610a13816109d4565b840191505092915050565b6000604082019050610a33600083018561097f565b8181036020830152610a4581846109e5565b90509392505050565b610a5781610885565b8114610a6257600080fd5b50565b600081359050610a7481610a4e565b92915050565b600060208284031215610a9057610a8f610802565b5b6000610a9e84828501610a65565b91505092915050565b600082825260208201905092915050565b7f54686973206164647265737320646f6573206e6f742068617665207065726d6960008201527f7373696f6e20746f2063616c6c20706572666f726d55706b6565700000000000602082015250565b6000610b14603b83610aa7565b9150610b1f82610ab8565b604082019050919050565b60006020820190508181036000830152610b4381610b07565b9050919050565b7f6974206973206f66660000000000000000000000000000000000000000000000600082015250565b6000610b80600983610aa7565b9150610b8b82610b4a565b602082019050919050565b60006020820190508181036000830152610baf81610b73565b9050919050565b7f4e487b7100000000000000000000000000000000000000000000000000000000600052601160045260246000fd5b6000610bf0826107ce565b9150610bfb836107ce565b9250828201905080821115610c1357610c12610bb6565b5b92915050565b6000610c24826107ce565b9150610c2f836107ce565b9250828203905081811115610c4757610c46610bb6565b5b92915050565b7f4d7573742062652070726f706f736564206f776e657200000000000000000000600082015250565b6000610c83601683610aa7565b9150610c8e82610c4d565b602082019050919050565b60006020820190508181036000830152610cb281610c76565b9050919050565b7f4f6e6c792063616c6c61626c65206279206f776e657200000000000000000000600082015250565b6000610cef601683610aa7565b9150610cfa82610cb9565b602082019050919050565b60006020820190508181036000830152610d1e81610ce2565b9050919050565b6000610d30826107ce565b91507fffffffffffffffffffffffffffffffffffffffffffffffffffffffffffffffff8203610d6257610d61610bb6565b5b600182019050919050565b7f43616e6e6f74207472616e7366657220746f2073656c66000000000000000000600082015250565b6000610da3601783610aa7565b9150610dae82610d6d565b602082019050919050565b60006020820190508181036000830152610dd281610d96565b905091905056fea2646970667358221220bd79dd0358db888f72e8b83c69cf2266d7bcce6f1b7ebdf758157cf3a10a247f64736f6c63430008130033",
					"opcodes": "PUSH1 0x80 PUSH1 0x40 MSTORE CALLVALUE DUP1 ISZERO PUSH3 0x11 JUMPI PUSH1 0x0 DUP1 REVERT JUMPDEST POP CALLER DUP1 PUSH1 0x0 DUP1 PUSH20 0xFFFFFFFFFFFFFFFFFFFFFFFFFFFFFFFFFFFFFFFF AND DUP3 PUSH20 0xFFFFFFFFFFFFFFFFFFFFFFFFFFFFFFFFFFFFFFFF AND SUB PUSH3 0x87 JUMPI PUSH1 0x40 MLOAD PUSH32 0x8C379A000000000000000000000000000000000000000000000000000000000 DUP2 MSTORE PUSH1 0x4 ADD PUSH3 0x7E SWAP1 PUSH3 0x2A7 JUMP JUMPDEST PUSH1 0x40 MLOAD DUP1 SWAP2 SUB SWAP1 REVERT JUMPDEST DUP2 PUSH1 0x0 DUP1 PUSH2 0x100 EXP DUP2 SLOAD DUP2 PUSH20 0xFFFFFFFFFFFFFFFFFFFFFFFFFFFFFFFFFFFFFFFF MUL NOT AND SWAP1 DUP4 PUSH20 0xFFFFFFFFFFFFFFFFFFFFFFFFFFFFFFFFFFFFFFFF AND MUL OR SWAP1 SSTORE POP PUSH1 0x0 PUSH20 0xFFFFFFFFFFFFFFFFFFFFFFFFFFFFFFFFFFFFFFFF AND DUP2 PUSH20 0xFFFFFFFFFFFFFFFFFFFFFFFFFFFFFFFFFFFFFFFF AND EQ PUSH3 0x10E JUMPI PUSH3 0x10D DUP2 PUSH3 0x117 PUSH1 0x20 SHL PUSH1 0x20 SHR JUMP JUMPDEST JUMPDEST POP POP POP PUSH3 0x33B JUMP JUMPDEST CALLER PUSH20 0xFFFFFFFFFFFFFFFFFFFFFFFFFFFFFFFFFFFFFFFF AND DUP2 PUSH20 0xFFFFFFFFFFFFFFFFFFFFFFFFFFFFFFFFFFFFFFFF AND SUB PUSH3 0x188 JUMPI PUSH1 0x40 MLOAD PUSH32 0x8C379A000000000000000000000000000000000000000000000000000000000 DUP2 MSTORE PUSH1 0x4 ADD PUSH3 0x17F SWAP1 PUSH3 0x319 JUMP JUMPDEST PUSH1 0x40 MLOAD DUP1 SWAP2 SUB SWAP1 REVERT JUMPDEST DUP1 PUSH1 0x1 PUSH1 0x0 PUSH2 0x100 EXP DUP2 SLOAD DUP2 PUSH20 0xFFFFFFFFFFFFFFFFFFFFFFFFFFFFFFFFFFFFFFFF MUL NOT AND SWAP1 DUP4 PUSH20 0xFFFFFFFFFFFFFFFFFFFFFFFFFFFFFFFFFFFFFFFF AND MUL OR SWAP1 SSTORE POP DUP1 PUSH20 0xFFFFFFFFFFFFFFFFFFFFFFFFFFFFFFFFFFFFFFFF AND PUSH1 0x0 DUP1 SLOAD SWAP1 PUSH2 0x100 EXP SWAP1 DIV PUSH20 0xFFFFFFFFFFFFFFFFFFFFFFFFFFFFFFFFFFFFFFFF AND PUSH20 0xFFFFFFFFFFFFFFFFFFFFFFFFFFFFFFFFFFFFFFFF AND PUSH32 0xED8889F560326EB138920D842192F0EB3DD22B4F139C87A2C57538E05BAE1278 PUSH1 0x40 MLOAD PUSH1 0x40 MLOAD DUP1 SWAP2 SUB SWAP1 LOG3 POP JUMP JUMPDEST PUSH1 0x0 DUP3 DUP3 MSTORE PUSH1 0x20 DUP3 ADD SWAP1 POP SWAP3 SWAP2 POP POP JUMP JUMPDEST PUSH32 0x43616E6E6F7420736574206F776E657220746F207A65726F0000000000000000 PUSH1 0x0 DUP3 ADD MSTORE POP JUMP JUMPDEST PUSH1 0x0 PUSH3 0x28F PUSH1 0x18 DUP4 PUSH3 0x246 JUMP JUMPDEST SWAP2 POP PUSH3 0x29C DUP3 PUSH3 0x257 JUMP JUMPDEST PUSH1 0x20 DUP3 ADD SWAP1 POP SWAP2 SWAP1 POP JUMP JUMPDEST PUSH1 0x0 PUSH1 0x20 DUP3 ADD SWAP1 POP DUP2 DUP2 SUB PUSH1 0x0 DUP4 ADD MSTORE PUSH3 0x2C2 DUP2 PUSH3 0x280 JUMP JUMPDEST SWAP1 POP SWAP2 SWAP1 POP JUMP JUMPDEST PUSH32 0x43616E6E6F74207472616E7366657220746F2073656C66000000000000000000 PUSH1 0x0 DUP3 ADD MSTORE POP JUMP JUMPDEST PUSH1 0x0 PUSH3 0x301 PUSH1 0x17 DUP4 PUSH3 0x246 JUMP JUMPDEST SWAP2 POP PUSH3 0x30E DUP3 PUSH3 0x2C9 JUMP JUMPDEST PUSH1 0x20 DUP3 ADD SWAP1 POP SWAP2 SWAP1 POP JUMP JUMPDEST PUSH1 0x0 PUSH1 0x20 DUP3 ADD SWAP1 POP DUP2 DUP2 SUB PUSH1 0x0 DUP4 ADD MSTORE PUSH3 0x334 DUP2 PUSH3 0x2F2 JUMP JUMPDEST SWAP1 POP SWAP2 SWAP1 POP JUMP JUMPDEST PUSH2 0xE0F DUP1 PUSH3 0x34B PUSH1 0x0 CODECOPY PUSH1 0x0 RETURN INVALID PUSH1 0x80 PUSH1 0x40 MSTORE CALLVALUE DUP1 ISZERO PUSH2 0x10 JUMPI PUSH1 0x0 DUP1 REVERT JUMPDEST POP PUSH1 0x4 CALLDATASIZE LT PUSH2 0xCF JUMPI PUSH1 0x0 CALLDATALOAD PUSH1 0xE0 SHR DUP1 PUSH4 0x6626B26D GT PUSH2 0x8C JUMPI DUP1 PUSH4 0x8DA5CB5B GT PUSH2 0x66 JUMPI DUP1 PUSH4 0x8DA5CB5B EQ PUSH2 0x1C9 JUMPI DUP1 PUSH4 0x947A36FB EQ PUSH2 0x1E7 JUMPI DUP1 PUSH4 0xD777CC6D EQ PUSH2 0x205 JUMPI DUP1 PUSH4 0xF2FDE38B EQ PUSH2 0x221 JUMPI PUSH2 0xCF JUMP JUMPDEST DUP1 PUSH4 0x6626B26D EQ PUSH2 0x184 JUMPI DUP1 PUSH4 0x6E04FF0D EQ PUSH2 0x18E JUMPI DUP1 PUSH4 0x79BA5097 EQ PUSH2 0x1BF JUMPI PUSH2 0xCF JUMP JUMPDEST DUP1 PUSH4 0xE47F553 EQ PUSH2 0xD4 JUMPI DUP1 PUSH4 0x22A90082 EQ PUSH2 0xF2 JUMPI DUP1 PUSH4 0x3070FBF8 EQ PUSH2 0x10E JUMPI DUP1 PUSH4 0x3F3B3B27 EQ PUSH2 0x12C JUMPI DUP1 PUSH4 0x4585E33B EQ PUSH2 0x14A JUMPI DUP1 PUSH4 0x61BC221A EQ PUSH2 0x166 JUMPI JUMPDEST PUSH1 0x0 DUP1 REVERT JUMPDEST PUSH2 0xDC PUSH2 0x23D JUMP JUMPDEST PUSH1 0x40 MLOAD PUSH2 0xE9 SWAP2 SWAP1 PUSH2 0x7E7 JUMP JUMPDEST PUSH1 0x40 MLOAD DUP1 SWAP2 SUB SWAP1 RETURN JUMPDEST PUSH2 0x10C PUSH1 0x4 DUP1 CALLDATASIZE SUB DUP2 ADD SWAP1 PUSH2 0x107 SWAP2 SWAP1 PUSH2 0x838 JUMP JUMPDEST PUSH2 0x243 JUMP JUMPDEST STOP JUMPDEST PUSH2 0x116 PUSH2 0x25C JUMP JUMPDEST PUSH1 0x40 MLOAD PUSH2 0x123 SWAP2 SWAP1 PUSH2 0x8A6 JUMP JUMPDEST PUSH1 0x40 MLOAD DUP1 SWAP2 SUB SWAP1 RETURN JUMPDEST PUSH2 0x134 PUSH2 0x282 JUMP JUMPDEST PUSH1 0x40 MLOAD PUSH2 0x141 SWAP2 SWAP1 PUSH2 0x7E7 JUMP JUMPDEST PUSH1 0x40 MLOAD DUP1 SWAP2 SUB SWAP1 RETURN JUMPDEST PUSH2 0x164 PUSH1 0x4 DUP1 CALLDATASIZE SUB DUP2 ADD SWAP1 PUSH2 0x15F SWAP2 SWAP1 PUSH2 0x926 JUMP JUMPDEST PUSH2 0x288 JUMP JUMPDEST STOP JUMPDEST PUSH2 0x16E PUSH2 0x385 JUMP JUMPDEST PUSH1 0x40 MLOAD PUSH2 0x17B SWAP2 SWAP1 PUSH2 0x7E7 JUMP JUMPDEST PUSH1 0x40 MLOAD DUP1 SWAP2 SUB SWAP1 RETURN JUMPDEST PUSH2 0x18C PUSH2 0x38B JUMP JUMPDEST STOP JUMPDEST PUSH2 0x1A8 PUSH1 0x4 DUP1 CALLDATASIZE SUB DUP2 ADD SWAP1 PUSH2 0x1A3 SWAP2 SWAP1 PUSH2 0x926 JUMP JUMPDEST PUSH2 0x39D JUMP JUMPDEST PUSH1 0x40 MLOAD PUSH2 0x1B6 SWAP3 SWAP2 SWAP1 PUSH2 0xA1E JUMP JUMPDEST PUSH1 0x40 MLOAD DUP1 SWAP2 SUB SWAP1 RETURN JUMPDEST PUSH2 0x1C7 PUSH2 0x3D4 JUMP JUMPDEST STOP JUMPDEST PUSH2 0x1D1 PUSH2 0x569 JUMP JUMPDEST PUSH1 0x40 MLOAD PUSH2 0x1DE SWAP2 SWAP1 PUSH2 0x8A6 JUMP JUMPDEST PUSH1 0x40 MLOAD DUP1 SWAP2 SUB SWAP1 RETURN JUMPDEST PUSH2 0x1EF PUSH2 0x592 JUMP JUMPDEST PUSH1 0x40 MLOAD PUSH2 0x1FC SWAP2 SWAP1 PUSH2 0x7E7 JUMP JUMPDEST PUSH1 0x40 MLOAD DUP1 SWAP2 SUB SWAP1 RETURN JUMPDEST PUSH2 0x21F PUSH1 0x4 DUP1 CALLDATASIZE SUB DUP2 ADD SWAP1 PUSH2 0x21A SWAP2 SWAP1 PUSH2 0xA7A JUMP JUMPDEST PUSH2 0x598 JUMP JUMPDEST STOP JUMPDEST PUSH2 0x23B PUSH1 0x4 DUP1 CALLDATASIZE SUB DUP2 ADD SWAP1 PUSH2 0x236 SWAP2 SWAP1 PUSH2 0xA7A JUMP JUMPDEST PUSH2 0x5E4 JUMP JUMPDEST STOP JUMPDEST PUSH1 0x6 SLOAD DUP2 JUMP JUMPDEST PUSH2 0x24B PUSH2 0x5F8 JUMP JUMPDEST DUP1 PUSH1 0x3 DUP2 SWAP1 SSTORE POP TIMESTAMP PUSH1 0x4 DUP2 SWAP1 SSTORE POP POP JUMP JUMPDEST PUSH1 0x5 PUSH1 0x0 SWAP1 SLOAD SWAP1 PUSH2 0x100 EXP SWAP1 DIV PUSH20 0xFFFFFFFFFFFFFFFFFFFFFFFFFFFFFFFFFFFFFFFF AND DUP2 JUMP JUMPDEST PUSH1 0x4 SLOAD DUP2 JUMP JUMPDEST PUSH1 0x5 PUSH1 0x0 SWAP1 SLOAD SWAP1 PUSH2 0x100 EXP SWAP1 DIV PUSH20 0xFFFFFFFFFFFFFFFFFFFFFFFFFFFFFFFFFFFFFFFF AND PUSH20 0xFFFFFFFFFFFFFFFFFFFFFFFFFFFFFFFFFFFFFFFF AND CALLER PUSH20 0xFFFFFFFFFFFFFFFFFFFFFFFFFFFFFFFFFFFFFFFF AND EQ PUSH2 0x318 JUMPI PUSH1 0x40 MLOAD PUSH32 0x8C379A000000000000000000000000000000000000000000000000000000000 DUP2 MSTORE PUSH1 0x4 ADD PUSH2 0x30F SWAP1 PUSH2 0xB2A JUMP JUMPDEST PUSH1 0x40 MLOAD DUP1 SWAP2 SUB SWAP1 REVERT JUMPDEST PUSH1 0x0 PUSH1 0x3 SLOAD SUB PUSH2 0x35D JUMPI PUSH1 0x40 MLOAD PUSH32 0x8C379A000000000000000000000000000000000000000000000000000000000 DUP2 MSTORE PUSH1 0x4 ADD PUSH2 0x354 SWAP1 PUSH2 0xB96 JUMP JUMPDEST PUSH1 0x40 MLOAD DUP1 SWAP2 SUB SWAP1 REVERT JUMPDEST TIMESTAMP PUSH1 0x4 DUP2 SWAP1 SSTORE POP PUSH1 0x1 PUSH1 0x2 SLOAD PUSH2 0x373 SWAP2 SWAP1 PUSH2 0xBE5 JUMP JUMPDEST PUSH1 0x2 DUP2 SWAP1 SSTORE POP PUSH2 0x381 PUSH2 0x688 JUMP JUMPDEST POP POP JUMP JUMPDEST PUSH1 0x2 SLOAD DUP2 JUMP JUMPDEST PUSH2 0x393 PUSH2 0x5F8 JUMP JUMPDEST PUSH1 0x0 PUSH1 0x3 DUP2 SWAP1 SSTORE POP JUMP JUMPDEST PUSH1 0x0 PUSH1 0x60 PUSH1 0x0 PUSH1 0x3 SLOAD PUSH1 0x4 SLOAD TIMESTAMP PUSH2 0x3B4 SWAP2 SWAP1 PUSH2 0xC19 JUMP JUMPDEST GT SWAP1 POP DUP1 PUSH1 0x40 MLOAD DUP1 PUSH1 0x20 ADD PUSH1 0x40 MSTORE DUP1 PUSH1 0x0 DUP2 MSTORE POP SWAP3 POP SWAP3 POP POP SWAP3 POP SWAP3 SWAP1 POP JUMP JUMPDEST PUSH1 0x1 PUSH1 0x0 SWAP1 SLOAD SWAP1 PUSH2 0x100 EXP SWAP1 DIV PUSH20 0xFFFFFFFFFFFFFFFFFFFFFFFFFFFFFFFFFFFFFFFF AND PUSH20 0xFFFFFFFFFFFFFFFFFFFFFFFFFFFFFFFFFFFFFFFF AND CALLER PUSH20 0xFFFFFFFFFFFFFFFFFFFFFFFFFFFFFFFFFFFFFFFF AND EQ PUSH2 0x464 JUMPI PUSH1 0x40 MLOAD PUSH32 0x8C379A000000000000000000000000000000000000000000000000000000000 DUP2 MSTORE PUSH1 0x4 ADD PUSH2 0x45B SWAP1 PUSH2 0xC99 JUMP JUMPDEST PUSH1 0x40 MLOAD DUP1 SWAP2 SUB SWAP1 REVERT JUMPDEST PUSH1 0x0 DUP1 PUSH1 0x0 SWAP1 SLOAD SWAP1 PUSH2 0x100 EXP SWAP1 DIV PUSH20 0xFFFFFFFFFFFFFFFFFFFFFFFFFFFFFFFFFFFFFFFF AND SWAP1 POP CALLER PUSH1 0x0 DUP1 PUSH2 0x100 EXP DUP2 SLOAD DUP2 PUSH20 0xFFFFFFFFFFFFFFFFFFFFFFFFFFFFFFFFFFFFFFFF MUL NOT AND SWAP1 DUP4 PUSH20 0xFFFFFFFFFFFFFFFFFFFFFFFFFFFFFFFFFFFFFFFF AND MUL OR SWAP1 SSTORE POP PUSH1 0x0 PUSH1 0x1 PUSH1 0x0 PUSH2 0x100 EXP DUP2 SLOAD DUP2 PUSH20 0xFFFFFFFFFFFFFFFFFFFFFFFFFFFFFFFFFFFFFFFF MUL NOT AND SWAP1 DUP4 PUSH20 0xFFFFFFFFFFFFFFFFFFFFFFFFFFFFFFFFFFFFFFFF AND MUL OR SWAP1 SSTORE POP CALLER PUSH20 0xFFFFFFFFFFFFFFFFFFFFFFFFFFFFFFFFFFFFFFFF AND DUP2 PUSH20 0xFFFFFFFFFFFFFFFFFFFFFFFFFFFFFFFFFFFFFFFF AND PUSH32 0x8BE0079C531659141344CD1FD0A4F28419497F9722A3DAAFE3B4186F6B6457E0 PUSH1 0x40 MLOAD PUSH1 0x40 MLOAD DUP1 SWAP2 SUB SWAP1 LOG3 POP JUMP JUMPDEST PUSH1 0x0 DUP1 PUSH1 0x0 SWAP1 SLOAD SWAP1 PUSH2 0x100 EXP SWAP1 DIV PUSH20 0xFFFFFFFFFFFFFFFFFFFFFFFFFFFFFFFFFFFFFFFF AND SWAP1 POP SWAP1 JUMP JUMPDEST PUSH1 0x3 SLOAD DUP2 JUMP JUMPDEST PUSH2 0x5A0 PUSH2 0x5F8 JUMP JUMPDEST DUP1 PUSH1 0x5 PUSH1 0x0 PUSH2 0x100 EXP DUP2 SLOAD DUP2 PUSH20 0xFFFFFFFFFFFFFFFFFFFFFFFFFFFFFFFFFFFFFFFF MUL NOT AND SWAP1 DUP4 PUSH20 0xFFFFFFFFFFFFFFFFFFFFFFFFFFFFFFFFFFFFFFFF AND MUL OR SWAP1 SSTORE POP POP JUMP JUMPDEST PUSH2 0x5EC PUSH2 0x5F8 JUMP JUMPDEST PUSH2 0x5F5 DUP2 PUSH2 0x6A2 JUMP JUMPDEST POP JUMP JUMPDEST PUSH1 0x0 DUP1 SLOAD SWAP1 PUSH2 0x100 EXP SWAP1 DIV PUSH20 0xFFFFFFFFFFFFFFFFFFFFFFFFFFFFFFFFFFFFFFFF AND PUSH20 0xFFFFFFFFFFFFFFFFFFFFFFFFFFFFFFFFFFFFFFFF AND CALLER PUSH20 0xFFFFFFFFFFFFFFFFFFFFFFFFFFFFFFFFFFFFFFFF AND EQ PUSH2 0x686 JUMPI PUSH1 0x40 MLOAD PUSH32 0x8C379A000000000000000000000000000000000000000000000000000000000 DUP2 MSTORE PUSH1 0x4 ADD PUSH2 0x67D SWAP1 PUSH2 0xD05 JUMP JUMPDEST PUSH1 0x40 MLOAD DUP1 SWAP2 SUB SWAP1 REVERT JUMPDEST JUMP JUMPDEST PUSH1 0x6 PUSH1 0x0 DUP2 SLOAD DUP1 SWAP3 SWAP2 SWAP1 PUSH2 0x69B SWAP1 PUSH2 0xD25 JUMP JUMPDEST SWAP2 SWAP1 POP SSTORE POP JUMP JUMPDEST CALLER PUSH20 0xFFFFFFFFFFFFFFFFFFFFFFFFFFFFFFFFFFFFFFFF AND DUP2 PUSH20 0xFFFFFFFFFFFFFFFFFFFFFFFFFFFFFFFFFFFFFFFF AND SUB PUSH2 0x710 JUMPI PUSH1 0x40 MLOAD PUSH32 0x8C379A000000000000000000000000000000000000000000000000000000000 DUP2 MSTORE PUSH1 0x4 ADD PUSH2 0x707 SWAP1 PUSH2 0xDB9 JUMP JUMPDEST PUSH1 0x40 MLOAD DUP1 SWAP2 SUB SWAP1 REVERT JUMPDEST DUP1 PUSH1 0x1 PUSH1 0x0 PUSH2 0x100 EXP DUP2 SLOAD DUP2 PUSH20 0xFFFFFFFFFFFFFFFFFFFFFFFFFFFFFFFFFFFFFFFF MUL NOT AND SWAP1 DUP4 PUSH20 0xFFFFFFFFFFFFFFFFFFFFFFFFFFFFFFFFFFFFFFFF AND MUL OR SWAP1 SSTORE POP DUP1 PUSH20 0xFFFFFFFFFFFFFFFFFFFFFFFFFFFFFFFFFFFFFFFF AND PUSH1 0x0 DUP1 SLOAD SWAP1 PUSH2 0x100 EXP SWAP1 DIV PUSH20 0xFFFFFFFFFFFFFFFFFFFFFFFFFFFFFFFFFFFFFFFF AND PUSH20 0xFFFFFFFFFFFFFFFFFFFFFFFFFFFFFFFFFFFFFFFF AND PUSH32 0xED8889F560326EB138920D842192F0EB3DD22B4F139C87A2C57538E05BAE1278 PUSH1 0x40 MLOAD PUSH1 0x40 MLOAD DUP1 SWAP2 SUB SWAP1 LOG3 POP JUMP JUMPDEST PUSH1 0x0 DUP2 SWAP1 POP SWAP2 SWAP1 POP JUMP JUMPDEST PUSH2 0x7E1 DUP2 PUSH2 0x7CE JUMP JUMPDEST DUP3 MSTORE POP POP JUMP JUMPDEST PUSH1 0x0 PUSH1 0x20 DUP3 ADD SWAP1 POP PUSH2 0x7FC PUSH1 0x0 DUP4 ADD DUP5 PUSH2 0x7D8 JUMP JUMPDEST SWAP3 SWAP2 POP POP JUMP JUMPDEST PUSH1 0x0 DUP1 REVERT JUMPDEST PUSH1 0x0 DUP1 REVERT JUMPDEST PUSH2 0x815 DUP2 PUSH2 0x7CE JUMP JUMPDEST DUP2 EQ PUSH2 0x820 JUMPI PUSH1 0x0 DUP1 REVERT JUMPDEST POP JUMP JUMPDEST PUSH1 0x0 DUP2 CALLDATALOAD SWAP1 POP PUSH2 0x832 DUP2 PUSH2 0x80C JUMP JUMPDEST SWAP3 SWAP2 POP POP JUMP JUMPDEST PUSH1 0x0 PUSH1 0x20 DUP3 DUP5 SUB SLT ISZERO PUSH2 0x84E JUMPI PUSH2 0x84D PUSH2 0x802 JUMP JUMPDEST JUMPDEST PUSH1 0x0 PUSH2 0x85C DUP5 DUP3 DUP6 ADD PUSH2 0x823 JUMP JUMPDEST SWAP2 POP POP SWAP3 SWAP2 POP POP JUMP JUMPDEST PUSH1 0x0 PUSH20 0xFFFFFFFFFFFFFFFFFFFFFFFFFFFFFFFFFFFFFFFF DUP3 AND SWAP1 POP SWAP2 SWAP1 POP JUMP JUMPDEST PUSH1 0x0 PUSH2 0x890 DUP3 PUSH2 0x865 JUMP JUMPDEST SWAP1 POP SWAP2 SWAP1 POP JUMP JUMPDEST PUSH2 0x8A0 DUP2 PUSH2 0x885 JUMP JUMPDEST DUP3 MSTORE POP POP JUMP JUMPDEST PUSH1 0x0 PUSH1 0x20 DUP3 ADD SWAP1 POP PUSH2 0x8BB PUSH1 0x0 DUP4 ADD DUP5 PUSH2 0x897 JUMP JUMPDEST SWAP3 SWAP2 POP POP JUMP JUMPDEST PUSH1 0x0 DUP1 REVERT JUMPDEST PUSH1 0x0 DUP1 REVERT JUMPDEST PUSH1 0x0 DUP1 REVERT JUMPDEST PUSH1 0x0 DUP1 DUP4 PUSH1 0x1F DUP5 ADD SLT PUSH2 0x8E6 JUMPI PUSH2 0x8E5 PUSH2 0x8C1 JUMP JUMPDEST JUMPDEST DUP3 CALLDATALOAD SWAP1 POP PUSH8 0xFFFFFFFFFFFFFFFF DUP2 GT ISZERO PUSH2 0x903 JUMPI PUSH2 0x902 PUSH2 0x8C6 JUMP JUMPDEST JUMPDEST PUSH1 0x20 DUP4 ADD SWAP2 POP DUP4 PUSH1 0x1 DUP3 MUL DUP4 ADD GT ISZERO PUSH2 0x91F JUMPI PUSH2 0x91E PUSH2 0x8CB JUMP JUMPDEST JUMPDEST SWAP3 POP SWAP3 SWAP1 POP JUMP JUMPDEST PUSH1 0x0 DUP1 PUSH1 0x20 DUP4 DUP6 SUB SLT ISZERO PUSH2 0x93D JUMPI PUSH2 0x93C PUSH2 0x802 JUMP JUMPDEST JUMPDEST PUSH1 0x0 DUP4 ADD CALLDATALOAD PUSH8 0xFFFFFFFFFFFFFFFF DUP2 GT ISZERO PUSH2 0x95B JUMPI PUSH2 0x95A PUSH2 0x807 JUMP JUMPDEST JUMPDEST PUSH2 0x967 DUP6 DUP3 DUP7 ADD PUSH2 0x8D0 JUMP JUMPDEST SWAP3 POP SWAP3 POP POP SWAP3 POP SWAP3 SWAP1 POP JUMP JUMPDEST PUSH1 0x0 DUP2 ISZERO ISZERO SWAP1 POP SWAP2 SWAP1 POP JUMP JUMPDEST PUSH2 0x988 DUP2 PUSH2 0x973 JUMP JUMPDEST DUP3 MSTORE POP POP JUMP JUMPDEST PUSH1 0x0 DUP2 MLOAD SWAP1 POP SWAP2 SWAP1 POP JUMP JUMPDEST PUSH1 0x0 DUP3 DUP3 MSTORE PUSH1 0x20 DUP3 ADD SWAP1 POP SWAP3 SWAP2 POP POP JUMP JUMPDEST PUSH1 0x0 JUMPDEST DUP4 DUP2 LT ISZERO PUSH2 0x9C8 JUMPI DUP1 DUP3 ADD MLOAD DUP2 DUP5 ADD MSTORE PUSH1 0x20 DUP2 ADD SWAP1 POP PUSH2 0x9AD JUMP JUMPDEST PUSH1 0x0 DUP5 DUP5 ADD MSTORE POP POP POP POP JUMP JUMPDEST PUSH1 0x0 PUSH1 0x1F NOT PUSH1 0x1F DUP4 ADD AND SWAP1 POP SWAP2 SWAP1 POP JUMP JUMPDEST PUSH1 0x0 PUSH2 0x9F0 DUP3 PUSH2 0x98E JUMP JUMPDEST PUSH2 0x9FA DUP2 DUP6 PUSH2 0x999 JUMP JUMPDEST SWAP4 POP PUSH2 0xA0A DUP2 DUP6 PUSH1 0x20 DUP7 ADD PUSH2 0x9AA JUMP JUMPDEST PUSH2 0xA13 DUP2 PUSH2 0x9D4 JUMP JUMPDEST DUP5 ADD SWAP2 POP POP SWAP3 SWAP2 POP POP JUMP JUMPDEST PUSH1 0x0 PUSH1 0x40 DUP3 ADD SWAP1 POP PUSH2 0xA33 PUSH1 0x0 DUP4 ADD DUP6 PUSH2 0x97F JUMP JUMPDEST DUP2 DUP2 SUB PUSH1 0x20 DUP4 ADD MSTORE PUSH2 0xA45 DUP2 DUP5 PUSH2 0x9E5 JUMP JUMPDEST SWAP1 POP SWAP4 SWAP3 POP POP POP JUMP JUMPDEST PUSH2 0xA57 DUP2 PUSH2 0x885 JUMP JUMPDEST DUP2 EQ PUSH2 0xA62 JUMPI PUSH1 0x0 DUP1 REVERT JUMPDEST POP JUMP JUMPDEST PUSH1 0x0 DUP2 CALLDATALOAD SWAP1 POP PUSH2 0xA74 DUP2 PUSH2 0xA4E JUMP JUMPDEST SWAP3 SWAP2 POP POP JUMP JUMPDEST PUSH1 0x0 PUSH1 0x20 DUP3 DUP5 SUB SLT ISZERO PUSH2 0xA90 JUMPI PUSH2 0xA8F PUSH2 0x802 JUMP JUMPDEST JUMPDEST PUSH1 0x0 PUSH2 0xA9E DUP5 DUP3 DUP6 ADD PUSH2 0xA65 JUMP JUMPDEST SWAP2 POP POP SWAP3 SWAP2 POP POP JUMP JUMPDEST PUSH1 0x0 DUP3 DUP3 MSTORE PUSH1 0x20 DUP3 ADD SWAP1 POP SWAP3 SWAP2 POP POP JUMP JUMPDEST PUSH32 0x54686973206164647265737320646F6573206E6F742068617665207065726D69 PUSH1 0x0 DUP3 ADD MSTORE PUSH32 0x7373696F6E20746F2063616C6C20706572666F726D55706B6565700000000000 PUSH1 0x20 DUP3 ADD MSTORE POP JUMP JUMPDEST PUSH1 0x0 PUSH2 0xB14 PUSH1 0x3B DUP4 PUSH2 0xAA7 JUMP JUMPDEST SWAP2 POP PUSH2 0xB1F DUP3 PUSH2 0xAB8 JUMP JUMPDEST PUSH1 0x40 DUP3 ADD SWAP1 POP SWAP2 SWAP1 POP JUMP JUMPDEST PUSH1 0x0 PUSH1 0x20 DUP3 ADD SWAP1 POP DUP2 DUP2 SUB PUSH1 0x0 DUP4 ADD MSTORE PUSH2 0xB43 DUP2 PUSH2 0xB07 JUMP JUMPDEST SWAP1 POP SWAP2 SWAP1 POP JUMP JUMPDEST PUSH32 0x6974206973206F66660000000000000000000000000000000000000000000000 PUSH1 0x0 DUP3 ADD MSTORE POP JUMP JUMPDEST PUSH1 0x0 PUSH2 0xB80 PUSH1 0x9 DUP4 PUSH2 0xAA7 JUMP JUMPDEST SWAP2 POP PUSH2 0xB8B DUP3 PUSH2 0xB4A JUMP JUMPDEST PUSH1 0x20 DUP3 ADD SWAP1 POP SWAP2 SWAP1 POP JUMP JUMPDEST PUSH1 0x0 PUSH1 0x20 DUP3 ADD SWAP1 POP DUP2 DUP2 SUB PUSH1 0x0 DUP4 ADD MSTORE PUSH2 0xBAF DUP2 PUSH2 0xB73 JUMP JUMPDEST SWAP1 POP SWAP2 SWAP1 POP JUMP JUMPDEST PUSH32 0x4E487B7100000000000000000000000000000000000000000000000000000000 PUSH1 0x0 MSTORE PUSH1 0x11 PUSH1 0x4 MSTORE PUSH1 0x24 PUSH1 0x0 REVERT JUMPDEST PUSH1 0x0 PUSH2 0xBF0 DUP3 PUSH2 0x7CE JUMP JUMPDEST SWAP2 POP PUSH2 0xBFB DUP4 PUSH2 0x7CE JUMP JUMPDEST SWAP3 POP DUP3 DUP3 ADD SWAP1 POP DUP1 DUP3 GT ISZERO PUSH2 0xC13 JUMPI PUSH2 0xC12 PUSH2 0xBB6 JUMP JUMPDEST JUMPDEST SWAP3 SWAP2 POP POP JUMP JUMPDEST PUSH1 0x0 PUSH2 0xC24 DUP3 PUSH2 0x7CE JUMP JUMPDEST SWAP2 POP PUSH2 0xC2F DUP4 PUSH2 0x7CE JUMP JUMPDEST SWAP3 POP DUP3 DUP3 SUB SWAP1 POP DUP2 DUP2 GT ISZERO PUSH2 0xC47 JUMPI PUSH2 0xC46 PUSH2 0xBB6 JUMP JUMPDEST JUMPDEST SWAP3 SWAP2 POP POP JUMP JUMPDEST PUSH32 0x4D7573742062652070726F706F736564206F776E657200000000000000000000 PUSH1 0x0 DUP3 ADD MSTORE POP JUMP JUMPDEST PUSH1 0x0 PUSH2 0xC83 PUSH1 0x16 DUP4 PUSH2 0xAA7 JUMP JUMPDEST SWAP2 POP PUSH2 0xC8E DUP3 PUSH2 0xC4D JUMP JUMPDEST PUSH1 0x20 DUP3 ADD SWAP1 POP SWAP2 SWAP1 POP JUMP JUMPDEST PUSH1 0x0 PUSH1 0x20 DUP3 ADD SWAP1 POP DUP2 DUP2 SUB PUSH1 0x0 DUP4 ADD MSTORE PUSH2 0xCB2 DUP2 PUSH2 0xC76 JUMP JUMPDEST SWAP1 POP SWAP2 SWAP1 POP JUMP JUMPDEST PUSH32 0x4F6E6C792063616C6C61626C65206279206F776E657200000000000000000000 PUSH1 0x0 DUP3 ADD MSTORE POP JUMP JUMPDEST PUSH1 0x0 PUSH2 0xCEF PUSH1 0x16 DUP4 PUSH2 0xAA7 JUMP JUMPDEST SWAP2 POP PUSH2 0xCFA DUP3 PUSH2 0xCB9 JUMP JUMPDEST PUSH1 0x20 DUP3 ADD SWAP1 POP SWAP2 SWAP1 POP JUMP JUMPDEST PUSH1 0x0 PUSH1 0x20 DUP3 ADD SWAP1 POP DUP2 DUP2 SUB PUSH1 0x0 DUP4 ADD MSTORE PUSH2 0xD1E DUP2 PUSH2 0xCE2 JUMP JUMPDEST SWAP1 POP SWAP2 SWAP1 POP JUMP JUMPDEST PUSH1 0x0 PUSH2 0xD30 DUP3 PUSH2 0x7CE JUMP JUMPDEST SWAP2 POP PUSH32 0xFFFFFFFFFFFFFFFFFFFFFFFFFFFFFFFFFFFFFFFFFFFFFFFFFFFFFFFFFFFFFFFF DUP3 SUB PUSH2 0xD62 JUMPI PUSH2 0xD61 PUSH2 0xBB6 JUMP JUMPDEST JUMPDEST PUSH1 0x1 DUP3 ADD SWAP1 POP SWAP2 SWAP1 POP JUMP JUMPDEST PUSH32 0x43616E6E6F74207472616E7366657220746F2073656C66000000000000000000 PUSH1 0x0 DUP3 ADD MSTORE POP JUMP JUMPDEST PUSH1 0x0 PUSH2 0xDA3 PUSH1 0x17 DUP4 PUSH2 0xAA7 JUMP JUMPDEST SWAP2 POP PUSH2 0xDAE DUP3 PUSH2 0xD6D JUMP JUMPDEST PUSH1 0x20 DUP3 ADD SWAP1 POP SWAP2 SWAP1 POP JUMP JUMPDEST PUSH1 0x0 PUSH1 0x20 DUP3 ADD SWAP1 POP DUP2 DUP2 SUB PUSH1 0x0 DUP4 ADD MSTORE PUSH2 0xDD2 DUP2 PUSH2 0xD96 JUMP JUMPDEST SWAP1 POP SWAP2 SWAP1 POP JUMP INVALID LOG2 PUSH5 0x6970667358 0x22 SLT KECCAK256 0xBD PUSH26 0xDD0358DB888F72E8B83C69CF2266D7BCCE6F1B7EBDF758157CF3 LOG1 EXP 0x24 PUSH32 0x64736F6C63430008130033000000000000000000000000000000000000000000 "
				},
				"gasEstimates": {
					"creation": {
						"codeDepositCost": "719800",
						"executionCost": "25116",
						"totalCost": "744916"
					},
					"external": {
						"acceptOwnership()": "54607",
						"checkUpkeep(bytes)": "infinite",
						"counter()": "2540",
						"interval()": "2473",
						"lastTimeStamp()": "2496",
						"off()": "7372",
						"owner()": "2544",
						"performUpkeep(bytes)": "infinite",
						"s_forwarderAddress()": "2559",
						"setForwarderAddress(address)": "26979",
						"setInterval(uint256)": "46847",
						"timeeupwork()": "2430",
						"transferOwnership(address)": "30742"
					},
					"internal": {
						"Callfunction()": "24366"
					}
				},
				"methodIdentifiers": {
					"acceptOwnership()": "79ba5097",
					"checkUpkeep(bytes)": "6e04ff0d",
					"counter()": "61bc221a",
					"interval()": "947a36fb",
					"lastTimeStamp()": "3f3b3b27",
					"off()": "6626b26d",
					"owner()": "8da5cb5b",
					"performUpkeep(bytes)": "4585e33b",
					"s_forwarderAddress()": "3070fbf8",
					"setForwarderAddress(address)": "d777cc6d",
					"setInterval(uint256)": "22a90082",
					"timeeupwork()": "0e47f553",
					"transferOwnership(address)": "f2fde38b"
				}
			},
			"storageLayout": {
				"storage": [
					{
						"astId": 48,
						"contract": "ChailLinkAutomation/customizedUpkeepNewLogic.sol:CounterwForwarder",
						"label": "s_owner",
						"offset": 0,
						"slot": "0",
						"type": "t_address"
					},
					{
						"astId": 50,
						"contract": "ChailLinkAutomation/customizedUpkeepNewLogic.sol:CounterwForwarder",
						"label": "s_pendingOwner",
						"offset": 0,
						"slot": "1",
						"type": "t_address"
					},
					{
						"astId": 246,
						"contract": "ChailLinkAutomation/customizedUpkeepNewLogic.sol:CounterwForwarder",
						"label": "counter",
						"offset": 0,
						"slot": "2",
						"type": "t_uint256"
					},
					{
						"astId": 248,
						"contract": "ChailLinkAutomation/customizedUpkeepNewLogic.sol:CounterwForwarder",
						"label": "interval",
						"offset": 0,
						"slot": "3",
						"type": "t_uint256"
					},
					{
						"astId": 250,
						"contract": "ChailLinkAutomation/customizedUpkeepNewLogic.sol:CounterwForwarder",
						"label": "lastTimeStamp",
						"offset": 0,
						"slot": "4",
						"type": "t_uint256"
					},
					{
						"astId": 252,
						"contract": "ChailLinkAutomation/customizedUpkeepNewLogic.sol:CounterwForwarder",
						"label": "s_forwarderAddress",
						"offset": 0,
						"slot": "5",
						"type": "t_address"
					},
					{
						"astId": 362,
						"contract": "ChailLinkAutomation/customizedUpkeepNewLogic.sol:CounterwForwarder",
						"label": "timeeupwork",
						"offset": 0,
						"slot": "6",
						"type": "t_uint256"
					}
				],
				"types": {
					"t_address": {
						"encoding": "inplace",
						"label": "address",
						"numberOfBytes": "20"
					},
					"t_uint256": {
						"encoding": "inplace",
						"label": "uint256",
						"numberOfBytes": "32"
					}
				}
			},
			"userdoc": {
				"kind": "user",
				"methods": {
					"acceptOwnership()": {
						"notice": "Allows an ownership transfer to be completed by the recipient."
					},
					"owner()": {
						"notice": "Get the current owner"
					},
					"setForwarderAddress(address)": {
						"notice": "Set the address that `performUpkeep` is called from"
					},
					"transferOwnership(address)": {
						"notice": "Allows an owner to begin transferring ownership to a new address."
					}
				},
				"version": 1
			}
		}
	}
}