{
	"ChailLinkAutomation/Farwarder_flattened.sol": {
		"CounterwForwarder": {
			"abi": [
				{
					"inputs": [
						{
							"internalType": "address",
							"name": "initialOwner",
							"type": "address"
						},
						{
							"internalType": "uint256",
							"name": "updateInterval",
							"type": "uint256"
						}
					],
					"stateMutability": "nonpayable",
					"type": "constructor"
				},
				{
					"inputs": [
						{
							"internalType": "address",
							"name": "owner",
							"type": "address"
						}
					],
					"name": "OwnableInvalidOwner",
					"type": "error"
				},
				{
					"inputs": [
						{
							"internalType": "address",
							"name": "account",
							"type": "address"
						}
					],
					"name": "OwnableUnauthorizedAccount",
					"type": "error"
				},
				{
					"anonymous": false,
					"inputs": [
						{
							"indexed": true,
							"internalType": "address",
							"name": "previousOwner",
							"type": "address"
						},
						{
							"indexed": true,
							"internalType": "address",
							"name": "newOwner",
							"type": "address"
						}
					],
					"name": "OwnershipTransferred",
					"type": "event"
				},
				{
					"inputs": [
						{
							"internalType": "bytes",
							"name": "",
							"type": "bytes"
						}
					],
					"name": "checkUpkeep",
					"outputs": [
						{
							"internalType": "bool",
							"name": "",
							"type": "bool"
						},
						{
							"internalType": "bytes",
							"name": "",
							"type": "bytes"
						}
					],
					"stateMutability": "view",
					"type": "function"
				},
				{
					"inputs": [],
					"name": "counter",
					"outputs": [
						{
							"internalType": "uint256",
							"name": "",
							"type": "uint256"
						}
					],
					"stateMutability": "view",
					"type": "function"
				},
				{
					"inputs": [],
					"name": "interval",
					"outputs": [
						{
							"internalType": "uint256",
							"name": "",
							"type": "uint256"
						}
					],
					"stateMutability": "view",
					"type": "function"
				},
				{
					"inputs": [],
					"name": "lastTimeStamp",
					"outputs": [
						{
							"internalType": "uint256",
							"name": "",
							"type": "uint256"
						}
					],
					"stateMutability": "view",
					"type": "function"
				},
				{
					"inputs": [],
					"name": "owner",
					"outputs": [
						{
							"internalType": "address",
							"name": "",
							"type": "address"
						}
					],
					"stateMutability": "view",
					"type": "function"
				},
				{
					"inputs": [
						{
							"internalType": "bytes",
							"name": "",
							"type": "bytes"
						}
					],
					"name": "performUpkeep",
					"outputs": [],
					"stateMutability": "nonpayable",
					"type": "function"
				},
				{
					"inputs": [],
					"name": "renounceOwnership",
					"outputs": [],
					"stateMutability": "nonpayable",
					"type": "function"
				},
				{
					"inputs": [],
					"name": "s_forwarderAddress",
					"outputs": [
						{
							"internalType": "address",
							"name": "",
							"type": "address"
						}
					],
					"stateMutability": "view",
					"type": "function"
				},
				{
					"inputs": [
						{
							"internalType": "address",
							"name": "forwarderAddress",
							"type": "address"
						}
					],
					"name": "setForwarderAddress",
					"outputs": [],
					"stateMutability": "nonpayable",
					"type": "function"
				},
				{
					"inputs": [
						{
							"internalType": "address",
							"name": "newOwner",
							"type": "address"
						}
					],
					"name": "transferOwnership",
					"outputs": [],
					"stateMutability": "nonpayable",
					"type": "function"
				}
			],
			"devdoc": {
				"errors": {
					"OwnableInvalidOwner(address)": [
						{
							"details": "The owner is not a valid owner account. (eg. `address(0)`)"
						}
					],
					"OwnableUnauthorizedAccount(address)": [
						{
							"details": "The caller account is not authorized to perform an operation."
						}
					]
				},
				"kind": "dev",
				"methods": {
					"owner()": {
						"details": "Returns the address of the current owner."
					},
					"renounceOwnership()": {
						"details": "Leaves the contract without owner. It will not be possible to call `onlyOwner` functions. Can only be called by the current owner. NOTE: Renouncing ownership will leave the contract without an owner, thereby disabling any functionality that is only available to the owner."
					},
					"transferOwnership(address)": {
						"details": "Transfers ownership of the contract to a new account (`newOwner`). Can only be called by the current owner."
					}
				},
				"version": 1
			},
			"evm": {
				"assembly": "    /* \"ChailLinkAutomation/Farwarder_flattened.sol\":6964:8125  contract CounterwForwarder is AutomationCompatibleInterface, Ownable {... */\n  mstore(0x40, 0x80)\n    /* \"ChailLinkAutomation/Farwarder_flattened.sol\":7317:7438  constructor(address initialOwner,uint256 updateInterval)Ownable(initialOwner)  {... */\n  callvalue\n  dup1\n  iszero\n  tag_1\n  jumpi\n  0x00\n  dup1\n  revert\ntag_1:\n  pop\n  mload(0x40)\n  sub(codesize, bytecodeSize)\n  dup1\n  bytecodeSize\n  dup4\n  codecopy\n  dup2\n  dup2\n  add\n  0x40\n  mstore\n  dup2\n  add\n  swap1\n  tag_2\n  swap2\n  swap1\n  tag_3\n  jump\t// in\ntag_2:\n    /* \"ChailLinkAutomation/Farwarder_flattened.sol\":7381:7393  initialOwner */\n  dup2\n    /* \"ChailLinkAutomation/Farwarder_flattened.sol\":4681:4682  0 */\n  0x00\n    /* \"ChailLinkAutomation/Farwarder_flattened.sol\":4657:4683  initialOwner == address(0) */\n  0xffffffffffffffffffffffffffffffffffffffff\n  and\n    /* \"ChailLinkAutomation/Farwarder_flattened.sol\":4657:4669  initialOwner */\n  dup2\n    /* \"ChailLinkAutomation/Farwarder_flattened.sol\":4657:4683  initialOwner == address(0) */\n  0xffffffffffffffffffffffffffffffffffffffff\n  and\n  sub\n    /* \"ChailLinkAutomation/Farwarder_flattened.sol\":4653:4748  if (initialOwner == address(0)) {... */\n  tag_7\n  jumpi\n    /* \"ChailLinkAutomation/Farwarder_flattened.sol\":4734:4735  0 */\n  0x00\n    /* \"ChailLinkAutomation/Farwarder_flattened.sol\":4706:4737  OwnableInvalidOwner(address(0)) */\n  mload(0x40)\n  0x1e4fbdf700000000000000000000000000000000000000000000000000000000\n  dup2\n  mstore\n  0x04\n  add\n  tag_8\n  swap2\n  swap1\n  tag_9\n  jump\t// in\ntag_8:\n  mload(0x40)\n  dup1\n  swap2\n  sub\n  swap1\n  revert\n    /* \"ChailLinkAutomation/Farwarder_flattened.sol\":4653:4748  if (initialOwner == address(0)) {... */\ntag_7:\n    /* \"ChailLinkAutomation/Farwarder_flattened.sol\":4757:4789  _transferOwnership(initialOwner) */\n  tag_10\n    /* \"ChailLinkAutomation/Farwarder_flattened.sol\":4776:4788  initialOwner */\n  dup2\n    /* \"ChailLinkAutomation/Farwarder_flattened.sol\":4757:4775  _transferOwnership */\n  shl(0x20, tag_11)\n    /* \"ChailLinkAutomation/Farwarder_flattened.sol\":4757:4789  _transferOwnership(initialOwner) */\n  0x20\n  shr\n  jump\t// in\ntag_10:\n    /* \"ChailLinkAutomation/Farwarder_flattened.sol\":4609:4796  constructor(address initialOwner) {... */\n  pop\n    /* \"ChailLinkAutomation/Farwarder_flattened.sol\":7417:7431  updateInterval */\n  dup1\n    /* \"ChailLinkAutomation/Farwarder_flattened.sol\":7406:7414  interval */\n  0x02\n    /* \"ChailLinkAutomation/Farwarder_flattened.sol\":7406:7431  interval = updateInterval */\n  dup2\n  swap1\n  sstore\n  pop\n    /* \"ChailLinkAutomation/Farwarder_flattened.sol\":7317:7438  constructor(address initialOwner,uint256 updateInterval)Ownable(initialOwner)  {... */\n  pop\n  pop\n    /* \"ChailLinkAutomation/Farwarder_flattened.sol\":6964:8125  contract CounterwForwarder is AutomationCompatibleInterface, Ownable {... */\n  jump(tag_13)\n    /* \"ChailLinkAutomation/Farwarder_flattened.sol\":6296:6483  function _transferOwnership(address newOwner) internal virtual {... */\ntag_11:\n    /* \"ChailLinkAutomation/Farwarder_flattened.sol\":6369:6385  address oldOwner */\n  0x00\n    /* \"ChailLinkAutomation/Farwarder_flattened.sol\":6388:6394  _owner */\n  dup1\n  0x00\n  swap1\n  sload\n  swap1\n  0x0100\n  exp\n  swap1\n  div\n  0xffffffffffffffffffffffffffffffffffffffff\n  and\n    /* \"ChailLinkAutomation/Farwarder_flattened.sol\":6369:6394  address oldOwner = _owner */\n  swap1\n  pop\n    /* \"ChailLinkAutomation/Farwarder_flattened.sol\":6413:6421  newOwner */\n  dup2\n    /* \"ChailLinkAutomation/Farwarder_flattened.sol\":6404:6410  _owner */\n  0x00\n  dup1\n    /* \"ChailLinkAutomation/Farwarder_flattened.sol\":6404:6421  _owner = newOwner */\n  0x0100\n  exp\n  dup2\n  sload\n  dup2\n  0xffffffffffffffffffffffffffffffffffffffff\n  mul\n  not\n  and\n  swap1\n  dup4\n  0xffffffffffffffffffffffffffffffffffffffff\n  and\n  mul\n  or\n  swap1\n  sstore\n  pop\n    /* \"ChailLinkAutomation/Farwarder_flattened.sol\":6467:6475  newOwner */\n  dup2\n    /* \"ChailLinkAutomation/Farwarder_flattened.sol\":6436:6476  OwnershipTransferred(oldOwner, newOwner) */\n  0xffffffffffffffffffffffffffffffffffffffff\n  and\n    /* \"ChailLinkAutomation/Farwarder_flattened.sol\":6457:6465  oldOwner */\n  dup2\n    /* \"ChailLinkAutomation/Farwarder_flattened.sol\":6436:6476  OwnershipTransferred(oldOwner, newOwner) */\n  0xffffffffffffffffffffffffffffffffffffffff\n  and\n  0x8be0079c531659141344cd1fd0a4f28419497f9722a3daafe3b4186f6b6457e0\n  mload(0x40)\n  mload(0x40)\n  dup1\n  swap2\n  sub\n  swap1\n  log3\n    /* \"ChailLinkAutomation/Farwarder_flattened.sol\":6359:6483  {... */\n  pop\n    /* \"ChailLinkAutomation/Farwarder_flattened.sol\":6296:6483  function _transferOwnership(address newOwner) internal virtual {... */\n  pop\n  jump\t// out\n    /* \"#utility.yul\":88:205   */\ntag_16:\n    /* \"#utility.yul\":197:198   */\n  0x00\n    /* \"#utility.yul\":194:195   */\n  dup1\n    /* \"#utility.yul\":187:199   */\n  revert\n    /* \"#utility.yul\":334:460   */\ntag_18:\n    /* \"#utility.yul\":371:378   */\n  0x00\n    /* \"#utility.yul\":411:453   */\n  0xffffffffffffffffffffffffffffffffffffffff\n    /* \"#utility.yul\":404:409   */\n  dup3\n    /* \"#utility.yul\":400:454   */\n  and\n    /* \"#utility.yul\":389:454   */\n  swap1\n  pop\n    /* \"#utility.yul\":334:460   */\n  swap2\n  swap1\n  pop\n  jump\t// out\n    /* \"#utility.yul\":466:562   */\ntag_19:\n    /* \"#utility.yul\":503:510   */\n  0x00\n    /* \"#utility.yul\":532:556   */\n  tag_32\n    /* \"#utility.yul\":550:555   */\n  dup3\n    /* \"#utility.yul\":532:556   */\n  tag_18\n  jump\t// in\ntag_32:\n    /* \"#utility.yul\":521:556   */\n  swap1\n  pop\n    /* \"#utility.yul\":466:562   */\n  swap2\n  swap1\n  pop\n  jump\t// out\n    /* \"#utility.yul\":568:690   */\ntag_20:\n    /* \"#utility.yul\":641:665   */\n  tag_34\n    /* \"#utility.yul\":659:664   */\n  dup2\n    /* \"#utility.yul\":641:665   */\n  tag_19\n  jump\t// in\ntag_34:\n    /* \"#utility.yul\":634:639   */\n  dup2\n    /* \"#utility.yul\":631:666   */\n  eq\n    /* \"#utility.yul\":621:684   */\n  tag_35\n  jumpi\n    /* \"#utility.yul\":680:681   */\n  0x00\n    /* \"#utility.yul\":677:678   */\n  dup1\n    /* \"#utility.yul\":670:682   */\n  revert\n    /* \"#utility.yul\":621:684   */\ntag_35:\n    /* \"#utility.yul\":568:690   */\n  pop\n  jump\t// out\n    /* \"#utility.yul\":696:839   */\ntag_21:\n    /* \"#utility.yul\":753:758   */\n  0x00\n    /* \"#utility.yul\":784:790   */\n  dup2\n    /* \"#utility.yul\":778:791   */\n  mload\n    /* \"#utility.yul\":769:791   */\n  swap1\n  pop\n    /* \"#utility.yul\":800:833   */\n  tag_37\n    /* \"#utility.yul\":827:832   */\n  dup2\n    /* \"#utility.yul\":800:833   */\n  tag_20\n  jump\t// in\ntag_37:\n    /* \"#utility.yul\":696:839   */\n  swap3\n  swap2\n  pop\n  pop\n  jump\t// out\n    /* \"#utility.yul\":845:922   */\ntag_22:\n    /* \"#utility.yul\":882:889   */\n  0x00\n    /* \"#utility.yul\":911:916   */\n  dup2\n    /* \"#utility.yul\":900:916   */\n  swap1\n  pop\n    /* \"#utility.yul\":845:922   */\n  swap2\n  swap1\n  pop\n  jump\t// out\n    /* \"#utility.yul\":928:1050   */\ntag_23:\n    /* \"#utility.yul\":1001:1025   */\n  tag_40\n    /* \"#utility.yul\":1019:1024   */\n  dup2\n    /* \"#utility.yul\":1001:1025   */\n  tag_22\n  jump\t// in\ntag_40:\n    /* \"#utility.yul\":994:999   */\n  dup2\n    /* \"#utility.yul\":991:1026   */\n  eq\n    /* \"#utility.yul\":981:1044   */\n  tag_41\n  jumpi\n    /* \"#utility.yul\":1040:1041   */\n  0x00\n    /* \"#utility.yul\":1037:1038   */\n  dup1\n    /* \"#utility.yul\":1030:1042   */\n  revert\n    /* \"#utility.yul\":981:1044   */\ntag_41:\n    /* \"#utility.yul\":928:1050   */\n  pop\n  jump\t// out\n    /* \"#utility.yul\":1056:1199   */\ntag_24:\n    /* \"#utility.yul\":1113:1118   */\n  0x00\n    /* \"#utility.yul\":1144:1150   */\n  dup2\n    /* \"#utility.yul\":1138:1151   */\n  mload\n    /* \"#utility.yul\":1129:1151   */\n  swap1\n  pop\n    /* \"#utility.yul\":1160:1193   */\n  tag_43\n    /* \"#utility.yul\":1187:1192   */\n  dup2\n    /* \"#utility.yul\":1160:1193   */\n  tag_23\n  jump\t// in\ntag_43:\n    /* \"#utility.yul\":1056:1199   */\n  swap3\n  swap2\n  pop\n  pop\n  jump\t// out\n    /* \"#utility.yul\":1205:1712   */\ntag_3:\n    /* \"#utility.yul\":1284:1290   */\n  0x00\n    /* \"#utility.yul\":1292:1298   */\n  dup1\n    /* \"#utility.yul\":1341:1343   */\n  0x40\n    /* \"#utility.yul\":1329:1338   */\n  dup4\n    /* \"#utility.yul\":1320:1327   */\n  dup6\n    /* \"#utility.yul\":1316:1339   */\n  sub\n    /* \"#utility.yul\":1312:1344   */\n  slt\n    /* \"#utility.yul\":1309:1428   */\n  iszero\n  tag_45\n  jumpi\n    /* \"#utility.yul\":1347:1426   */\n  tag_46\n  tag_16\n  jump\t// in\ntag_46:\n    /* \"#utility.yul\":1309:1428   */\ntag_45:\n    /* \"#utility.yul\":1467:1468   */\n  0x00\n    /* \"#utility.yul\":1492:1556   */\n  tag_47\n    /* \"#utility.yul\":1548:1555   */\n  dup6\n    /* \"#utility.yul\":1539:1545   */\n  dup3\n    /* \"#utility.yul\":1528:1537   */\n  dup7\n    /* \"#utility.yul\":1524:1546   */\n  add\n    /* \"#utility.yul\":1492:1556   */\n  tag_21\n  jump\t// in\ntag_47:\n    /* \"#utility.yul\":1482:1556   */\n  swap3\n  pop\n    /* \"#utility.yul\":1438:1566   */\n  pop\n    /* \"#utility.yul\":1605:1607   */\n  0x20\n    /* \"#utility.yul\":1631:1695   */\n  tag_48\n    /* \"#utility.yul\":1687:1694   */\n  dup6\n    /* \"#utility.yul\":1678:1684   */\n  dup3\n    /* \"#utility.yul\":1667:1676   */\n  dup7\n    /* \"#utility.yul\":1663:1685   */\n  add\n    /* \"#utility.yul\":1631:1695   */\n  tag_24\n  jump\t// in\ntag_48:\n    /* \"#utility.yul\":1621:1695   */\n  swap2\n  pop\n    /* \"#utility.yul\":1576:1705   */\n  pop\n    /* \"#utility.yul\":1205:1712   */\n  swap3\n  pop\n  swap3\n  swap1\n  pop\n  jump\t// out\n    /* \"#utility.yul\":1718:1836   */\ntag_25:\n    /* \"#utility.yul\":1805:1829   */\n  tag_50\n    /* \"#utility.yul\":1823:1828   */\n  dup2\n    /* \"#utility.yul\":1805:1829   */\n  tag_19\n  jump\t// in\ntag_50:\n    /* \"#utility.yul\":1800:1803   */\n  dup3\n    /* \"#utility.yul\":1793:1830   */\n  mstore\n    /* \"#utility.yul\":1718:1836   */\n  pop\n  pop\n  jump\t// out\n    /* \"#utility.yul\":1842:2064   */\ntag_9:\n    /* \"#utility.yul\":1935:1939   */\n  0x00\n    /* \"#utility.yul\":1973:1975   */\n  0x20\n    /* \"#utility.yul\":1962:1971   */\n  dup3\n    /* \"#utility.yul\":1958:1976   */\n  add\n    /* \"#utility.yul\":1950:1976   */\n  swap1\n  pop\n    /* \"#utility.yul\":1986:2057   */\n  tag_52\n    /* \"#utility.yul\":2054:2055   */\n  0x00\n    /* \"#utility.yul\":2043:2052   */\n  dup4\n    /* \"#utility.yul\":2039:2056   */\n  add\n    /* \"#utility.yul\":2030:2036   */\n  dup5\n    /* \"#utility.yul\":1986:2057   */\n  tag_25\n  jump\t// in\ntag_52:\n    /* \"#utility.yul\":1842:2064   */\n  swap3\n  swap2\n  pop\n  pop\n  jump\t// out\n    /* \"ChailLinkAutomation/Farwarder_flattened.sol\":6964:8125  contract CounterwForwarder is AutomationCompatibleInterface, Ownable {... */\ntag_13:\n  dataSize(sub_0)\n  dup1\n  dataOffset(sub_0)\n  0x00\n  codecopy\n  0x00\n  return\nstop\n\nsub_0: assembly {\n        /* \"ChailLinkAutomation/Farwarder_flattened.sol\":6964:8125  contract CounterwForwarder is AutomationCompatibleInterface, Ownable {... */\n      mstore(0x40, 0x80)\n      callvalue\n      dup1\n      iszero\n      tag_1\n      jumpi\n      0x00\n      dup1\n      revert\n    tag_1:\n      pop\n      jumpi(tag_2, lt(calldatasize, 0x04))\n      shr(0xe0, calldataload(0x00))\n      dup1\n      0x715018a6\n      gt\n      tag_13\n      jumpi\n      dup1\n      0x715018a6\n      eq\n      tag_8\n      jumpi\n      dup1\n      0x8da5cb5b\n      eq\n      tag_9\n      jumpi\n      dup1\n      0x947a36fb\n      eq\n      tag_10\n      jumpi\n      dup1\n      0xd777cc6d\n      eq\n      tag_11\n      jumpi\n      dup1\n      0xf2fde38b\n      eq\n      tag_12\n      jumpi\n      jump(tag_2)\n    tag_13:\n      dup1\n      0x3070fbf8\n      eq\n      tag_3\n      jumpi\n      dup1\n      0x3f3b3b27\n      eq\n      tag_4\n      jumpi\n      dup1\n      0x4585e33b\n      eq\n      tag_5\n      jumpi\n      dup1\n      0x61bc221a\n      eq\n      tag_6\n      jumpi\n      dup1\n      0x6e04ff0d\n      eq\n      tag_7\n      jumpi\n    tag_2:\n      0x00\n      dup1\n      revert\n        /* \"ChailLinkAutomation/Farwarder_flattened.sol\":7277:7310  address public s_forwarderAddress */\n    tag_3:\n      tag_14\n      tag_15\n      jump\t// in\n    tag_14:\n      mload(0x40)\n      tag_16\n      swap2\n      swap1\n      tag_17\n      jump\t// in\n    tag_16:\n      mload(0x40)\n      dup1\n      swap2\n      sub\n      swap1\n      return\n        /* \"ChailLinkAutomation/Farwarder_flattened.sol\":7193:7221  uint256 public lastTimeStamp */\n    tag_4:\n      tag_18\n      tag_19\n      jump\t// in\n    tag_18:\n      mload(0x40)\n      tag_20\n      swap2\n      swap1\n      tag_21\n      jump\t// in\n    tag_20:\n      mload(0x40)\n      dup1\n      swap2\n      sub\n      swap1\n      return\n        /* \"ChailLinkAutomation/Farwarder_flattened.sol\":7689:7989  function performUpkeep(bytes calldata /*performData*/) external override {... */\n    tag_5:\n      tag_22\n      0x04\n      dup1\n      calldatasize\n      sub\n      dup2\n      add\n      swap1\n      tag_23\n      swap2\n      swap1\n      tag_24\n      jump\t// in\n    tag_23:\n      tag_25\n      jump\t// in\n    tag_22:\n      stop\n        /* \"ChailLinkAutomation/Farwarder_flattened.sol\":7039:7061  uint256 public counter */\n    tag_6:\n      tag_26\n      tag_27\n      jump\t// in\n    tag_26:\n      mload(0x40)\n      tag_28\n      swap2\n      swap1\n      tag_21\n      jump\t// in\n    tag_28:\n      mload(0x40)\n      dup1\n      swap2\n      sub\n      swap1\n      return\n        /* \"ChailLinkAutomation/Farwarder_flattened.sol\":7444:7683  function checkUpkeep(... */\n    tag_7:\n      tag_29\n      0x04\n      dup1\n      calldatasize\n      sub\n      dup2\n      add\n      swap1\n      tag_30\n      swap2\n      swap1\n      tag_24\n      jump\t// in\n    tag_30:\n      tag_31\n      jump\t// in\n    tag_29:\n      mload(0x40)\n      tag_32\n      swap3\n      swap2\n      swap1\n      tag_33\n      jump\t// in\n    tag_32:\n      mload(0x40)\n      dup1\n      swap2\n      sub\n      swap1\n      return\n        /* \"ChailLinkAutomation/Farwarder_flattened.sol\":5677:5778  function renounceOwnership() public virtual onlyOwner {... */\n    tag_8:\n      tag_34\n      tag_35\n      jump\t// in\n    tag_34:\n      stop\n        /* \"ChailLinkAutomation/Farwarder_flattened.sol\":5022:5107  function owner() public view virtual returns (address) {... */\n    tag_9:\n      tag_36\n      tag_37\n      jump\t// in\n    tag_36:\n      mload(0x40)\n      tag_38\n      swap2\n      swap1\n      tag_17\n      jump\t// in\n    tag_38:\n      mload(0x40)\n      dup1\n      swap2\n      sub\n      swap1\n      return\n        /* \"ChailLinkAutomation/Farwarder_flattened.sol\":7117:7140  uint256 public interval */\n    tag_10:\n      tag_39\n      tag_40\n      jump\t// in\n    tag_39:\n      mload(0x40)\n      tag_41\n      swap2\n      swap1\n      tag_21\n      jump\t// in\n    tag_41:\n      mload(0x40)\n      dup1\n      swap2\n      sub\n      swap1\n      return\n        /* \"ChailLinkAutomation/Farwarder_flattened.sol\":7995:8123  function setForwarderAddress(address forwarderAddress) external onlyOwner {... */\n    tag_11:\n      tag_42\n      0x04\n      dup1\n      calldatasize\n      sub\n      dup2\n      add\n      swap1\n      tag_43\n      swap2\n      swap1\n      tag_44\n      jump\t// in\n    tag_43:\n      tag_45\n      jump\t// in\n    tag_42:\n      stop\n        /* \"ChailLinkAutomation/Farwarder_flattened.sol\":5927:6142  function transferOwnership(address newOwner) public virtual onlyOwner {... */\n    tag_12:\n      tag_46\n      0x04\n      dup1\n      calldatasize\n      sub\n      dup2\n      add\n      swap1\n      tag_47\n      swap2\n      swap1\n      tag_44\n      jump\t// in\n    tag_47:\n      tag_48\n      jump\t// in\n    tag_46:\n      stop\n        /* \"ChailLinkAutomation/Farwarder_flattened.sol\":7277:7310  address public s_forwarderAddress */\n    tag_15:\n      0x04\n      0x00\n      swap1\n      sload\n      swap1\n      0x0100\n      exp\n      swap1\n      div\n      0xffffffffffffffffffffffffffffffffffffffff\n      and\n      dup2\n      jump\t// out\n        /* \"ChailLinkAutomation/Farwarder_flattened.sol\":7193:7221  uint256 public lastTimeStamp */\n    tag_19:\n      sload(0x03)\n      dup2\n      jump\t// out\n        /* \"ChailLinkAutomation/Farwarder_flattened.sol\":7689:7989  function performUpkeep(bytes calldata /*performData*/) external override {... */\n    tag_25:\n        /* \"ChailLinkAutomation/Farwarder_flattened.sol\":7807:7825  s_forwarderAddress */\n      0x04\n      0x00\n      swap1\n      sload\n      swap1\n      0x0100\n      exp\n      swap1\n      div\n      0xffffffffffffffffffffffffffffffffffffffff\n      and\n        /* \"ChailLinkAutomation/Farwarder_flattened.sol\":7793:7825  msg.sender == s_forwarderAddress */\n      0xffffffffffffffffffffffffffffffffffffffff\n      and\n        /* \"ChailLinkAutomation/Farwarder_flattened.sol\":7793:7803  msg.sender */\n      caller\n        /* \"ChailLinkAutomation/Farwarder_flattened.sol\":7793:7825  msg.sender == s_forwarderAddress */\n      0xffffffffffffffffffffffffffffffffffffffff\n      and\n      eq\n        /* \"ChailLinkAutomation/Farwarder_flattened.sol\":7772:7910  require(... */\n      tag_50\n      jumpi\n      mload(0x40)\n      0x08c379a000000000000000000000000000000000000000000000000000000000\n      dup2\n      mstore\n      0x04\n      add\n      tag_51\n      swap1\n      tag_52\n      jump\t// in\n    tag_51:\n      mload(0x40)\n      dup1\n      swap2\n      sub\n      swap1\n      revert\n    tag_50:\n        /* \"ChailLinkAutomation/Farwarder_flattened.sol\":7936:7951  block.timestamp */\n      timestamp\n        /* \"ChailLinkAutomation/Farwarder_flattened.sol\":7920:7933  lastTimeStamp */\n      0x03\n        /* \"ChailLinkAutomation/Farwarder_flattened.sol\":7920:7951  lastTimeStamp = block.timestamp */\n      dup2\n      swap1\n      sstore\n      pop\n        /* \"ChailLinkAutomation/Farwarder_flattened.sol\":7981:7982  1 */\n      0x01\n        /* \"ChailLinkAutomation/Farwarder_flattened.sol\":7971:7978  counter */\n      dup1\n      sload\n        /* \"ChailLinkAutomation/Farwarder_flattened.sol\":7971:7982  counter + 1 */\n      tag_53\n      swap2\n      swap1\n      tag_54\n      jump\t// in\n    tag_53:\n        /* \"ChailLinkAutomation/Farwarder_flattened.sol\":7961:7968  counter */\n      0x01\n        /* \"ChailLinkAutomation/Farwarder_flattened.sol\":7961:7982  counter = counter + 1 */\n      dup2\n      swap1\n      sstore\n      pop\n        /* \"ChailLinkAutomation/Farwarder_flattened.sol\":7689:7989  function performUpkeep(bytes calldata /*performData*/) external override {... */\n      pop\n      pop\n      jump\t// out\n        /* \"ChailLinkAutomation/Farwarder_flattened.sol\":7039:7061  uint256 public counter */\n    tag_27:\n      sload(0x01)\n      dup2\n      jump\t// out\n        /* \"ChailLinkAutomation/Farwarder_flattened.sol\":7444:7683  function checkUpkeep(... */\n    tag_31:\n        /* \"ChailLinkAutomation/Farwarder_flattened.sol\":7542:7546  bool */\n      0x00\n        /* \"ChailLinkAutomation/Farwarder_flattened.sol\":7548:7560  bytes memory */\n      0x60\n        /* \"ChailLinkAutomation/Farwarder_flattened.sol\":7572:7588  bool needsUpkeep */\n      0x00\n        /* \"ChailLinkAutomation/Farwarder_flattened.sol\":7627:7635  interval */\n      sload(0x02)\n        /* \"ChailLinkAutomation/Farwarder_flattened.sol\":7610:7623  lastTimeStamp */\n      sload(0x03)\n        /* \"ChailLinkAutomation/Farwarder_flattened.sol\":7592:7607  block.timestamp */\n      timestamp\n        /* \"ChailLinkAutomation/Farwarder_flattened.sol\":7592:7623  block.timestamp - lastTimeStamp */\n      tag_56\n      swap2\n      swap1\n      tag_57\n      jump\t// in\n    tag_56:\n        /* \"ChailLinkAutomation/Farwarder_flattened.sol\":7591:7635  (block.timestamp - lastTimeStamp) > interval */\n      gt\n        /* \"ChailLinkAutomation/Farwarder_flattened.sol\":7572:7635  bool needsUpkeep = (block.timestamp - lastTimeStamp) > interval */\n      swap1\n      pop\n        /* \"ChailLinkAutomation/Farwarder_flattened.sol\":7653:7664  needsUpkeep */\n      dup1\n        /* \"ChailLinkAutomation/Farwarder_flattened.sol\":7666:7675  bytes(\"\") */\n      mload(0x40)\n      dup1\n      0x20\n      add\n      0x40\n      mstore\n      dup1\n      0x00\n      dup2\n      mstore\n      pop\n        /* \"ChailLinkAutomation/Farwarder_flattened.sol\":7645:7676  return (needsUpkeep, bytes(\"\")) */\n      swap3\n      pop\n      swap3\n      pop\n      pop\n        /* \"ChailLinkAutomation/Farwarder_flattened.sol\":7444:7683  function checkUpkeep(... */\n      swap3\n      pop\n      swap3\n      swap1\n      pop\n      jump\t// out\n        /* \"ChailLinkAutomation/Farwarder_flattened.sol\":5677:5778  function renounceOwnership() public virtual onlyOwner {... */\n    tag_35:\n        /* \"ChailLinkAutomation/Farwarder_flattened.sol\":4915:4928  _checkOwner() */\n      tag_59\n        /* \"ChailLinkAutomation/Farwarder_flattened.sol\":4915:4926  _checkOwner */\n      tag_60\n        /* \"ChailLinkAutomation/Farwarder_flattened.sol\":4915:4928  _checkOwner() */\n      jump\t// in\n    tag_59:\n        /* \"ChailLinkAutomation/Farwarder_flattened.sol\":5741:5771  _transferOwnership(address(0)) */\n      tag_62\n        /* \"ChailLinkAutomation/Farwarder_flattened.sol\":5768:5769  0 */\n      0x00\n        /* \"ChailLinkAutomation/Farwarder_flattened.sol\":5741:5759  _transferOwnership */\n      tag_63\n        /* \"ChailLinkAutomation/Farwarder_flattened.sol\":5741:5771  _transferOwnership(address(0)) */\n      jump\t// in\n    tag_62:\n        /* \"ChailLinkAutomation/Farwarder_flattened.sol\":5677:5778  function renounceOwnership() public virtual onlyOwner {... */\n      jump\t// out\n        /* \"ChailLinkAutomation/Farwarder_flattened.sol\":5022:5107  function owner() public view virtual returns (address) {... */\n    tag_37:\n        /* \"ChailLinkAutomation/Farwarder_flattened.sol\":5068:5075  address */\n      0x00\n        /* \"ChailLinkAutomation/Farwarder_flattened.sol\":5094:5100  _owner */\n      dup1\n      0x00\n      swap1\n      sload\n      swap1\n      0x0100\n      exp\n      swap1\n      div\n      0xffffffffffffffffffffffffffffffffffffffff\n      and\n        /* \"ChailLinkAutomation/Farwarder_flattened.sol\":5087:5100  return _owner */\n      swap1\n      pop\n        /* \"ChailLinkAutomation/Farwarder_flattened.sol\":5022:5107  function owner() public view virtual returns (address) {... */\n      swap1\n      jump\t// out\n        /* \"ChailLinkAutomation/Farwarder_flattened.sol\":7117:7140  uint256 public interval */\n    tag_40:\n      sload(0x02)\n      dup2\n      jump\t// out\n        /* \"ChailLinkAutomation/Farwarder_flattened.sol\":7995:8123  function setForwarderAddress(address forwarderAddress) external onlyOwner {... */\n    tag_45:\n        /* \"ChailLinkAutomation/Farwarder_flattened.sol\":4915:4928  _checkOwner() */\n      tag_66\n        /* \"ChailLinkAutomation/Farwarder_flattened.sol\":4915:4926  _checkOwner */\n      tag_60\n        /* \"ChailLinkAutomation/Farwarder_flattened.sol\":4915:4928  _checkOwner() */\n      jump\t// in\n    tag_66:\n        /* \"ChailLinkAutomation/Farwarder_flattened.sol\":8100:8116  forwarderAddress */\n      dup1\n        /* \"ChailLinkAutomation/Farwarder_flattened.sol\":8079:8097  s_forwarderAddress */\n      0x04\n      0x00\n        /* \"ChailLinkAutomation/Farwarder_flattened.sol\":8079:8116  s_forwarderAddress = forwarderAddress */\n      0x0100\n      exp\n      dup2\n      sload\n      dup2\n      0xffffffffffffffffffffffffffffffffffffffff\n      mul\n      not\n      and\n      swap1\n      dup4\n      0xffffffffffffffffffffffffffffffffffffffff\n      and\n      mul\n      or\n      swap1\n      sstore\n      pop\n        /* \"ChailLinkAutomation/Farwarder_flattened.sol\":7995:8123  function setForwarderAddress(address forwarderAddress) external onlyOwner {... */\n      pop\n      jump\t// out\n        /* \"ChailLinkAutomation/Farwarder_flattened.sol\":5927:6142  function transferOwnership(address newOwner) public virtual onlyOwner {... */\n    tag_48:\n        /* \"ChailLinkAutomation/Farwarder_flattened.sol\":4915:4928  _checkOwner() */\n      tag_69\n        /* \"ChailLinkAutomation/Farwarder_flattened.sol\":4915:4926  _checkOwner */\n      tag_60\n        /* \"ChailLinkAutomation/Farwarder_flattened.sol\":4915:4928  _checkOwner() */\n      jump\t// in\n    tag_69:\n        /* \"ChailLinkAutomation/Farwarder_flattened.sol\":6031:6032  0 */\n      0x00\n        /* \"ChailLinkAutomation/Farwarder_flattened.sol\":6011:6033  newOwner == address(0) */\n      0xffffffffffffffffffffffffffffffffffffffff\n      and\n        /* \"ChailLinkAutomation/Farwarder_flattened.sol\":6011:6019  newOwner */\n      dup2\n        /* \"ChailLinkAutomation/Farwarder_flattened.sol\":6011:6033  newOwner == address(0) */\n      0xffffffffffffffffffffffffffffffffffffffff\n      and\n      sub\n        /* \"ChailLinkAutomation/Farwarder_flattened.sol\":6007:6098  if (newOwner == address(0)) {... */\n      tag_71\n      jumpi\n        /* \"ChailLinkAutomation/Farwarder_flattened.sol\":6084:6085  0 */\n      0x00\n        /* \"ChailLinkAutomation/Farwarder_flattened.sol\":6056:6087  OwnableInvalidOwner(address(0)) */\n      mload(0x40)\n      0x1e4fbdf700000000000000000000000000000000000000000000000000000000\n      dup2\n      mstore\n      0x04\n      add\n      tag_72\n      swap2\n      swap1\n      tag_17\n      jump\t// in\n    tag_72:\n      mload(0x40)\n      dup1\n      swap2\n      sub\n      swap1\n      revert\n        /* \"ChailLinkAutomation/Farwarder_flattened.sol\":6007:6098  if (newOwner == address(0)) {... */\n    tag_71:\n        /* \"ChailLinkAutomation/Farwarder_flattened.sol\":6107:6135  _transferOwnership(newOwner) */\n      tag_73\n        /* \"ChailLinkAutomation/Farwarder_flattened.sol\":6126:6134  newOwner */\n      dup2\n        /* \"ChailLinkAutomation/Farwarder_flattened.sol\":6107:6125  _transferOwnership */\n      tag_63\n        /* \"ChailLinkAutomation/Farwarder_flattened.sol\":6107:6135  _transferOwnership(newOwner) */\n      jump\t// in\n    tag_73:\n        /* \"ChailLinkAutomation/Farwarder_flattened.sol\":5927:6142  function transferOwnership(address newOwner) public virtual onlyOwner {... */\n      pop\n      jump\t// out\n        /* \"ChailLinkAutomation/Farwarder_flattened.sol\":5180:5342  function _checkOwner() internal view virtual {... */\n    tag_60:\n        /* \"ChailLinkAutomation/Farwarder_flattened.sol\":5250:5262  _msgSender() */\n      tag_75\n        /* \"ChailLinkAutomation/Farwarder_flattened.sol\":5250:5260  _msgSender */\n      tag_76\n        /* \"ChailLinkAutomation/Farwarder_flattened.sol\":5250:5262  _msgSender() */\n      jump\t// in\n    tag_75:\n        /* \"ChailLinkAutomation/Farwarder_flattened.sol\":5239:5262  owner() != _msgSender() */\n      0xffffffffffffffffffffffffffffffffffffffff\n      and\n        /* \"ChailLinkAutomation/Farwarder_flattened.sol\":5239:5246  owner() */\n      tag_77\n        /* \"ChailLinkAutomation/Farwarder_flattened.sol\":5239:5244  owner */\n      tag_37\n        /* \"ChailLinkAutomation/Farwarder_flattened.sol\":5239:5246  owner() */\n      jump\t// in\n    tag_77:\n        /* \"ChailLinkAutomation/Farwarder_flattened.sol\":5239:5262  owner() != _msgSender() */\n      0xffffffffffffffffffffffffffffffffffffffff\n      and\n      eq\n        /* \"ChailLinkAutomation/Farwarder_flattened.sol\":5235:5336  if (owner() != _msgSender()) {... */\n      tag_78\n      jumpi\n        /* \"ChailLinkAutomation/Farwarder_flattened.sol\":5312:5324  _msgSender() */\n      tag_79\n        /* \"ChailLinkAutomation/Farwarder_flattened.sol\":5312:5322  _msgSender */\n      tag_76\n        /* \"ChailLinkAutomation/Farwarder_flattened.sol\":5312:5324  _msgSender() */\n      jump\t// in\n    tag_79:\n        /* \"ChailLinkAutomation/Farwarder_flattened.sol\":5285:5325  OwnableUnauthorizedAccount(_msgSender()) */\n      mload(0x40)\n      0x118cdaa700000000000000000000000000000000000000000000000000000000\n      dup2\n      mstore\n      0x04\n      add\n      tag_80\n      swap2\n      swap1\n      tag_17\n      jump\t// in\n    tag_80:\n      mload(0x40)\n      dup1\n      swap2\n      sub\n      swap1\n      revert\n        /* \"ChailLinkAutomation/Farwarder_flattened.sol\":5235:5336  if (owner() != _msgSender()) {... */\n    tag_78:\n        /* \"ChailLinkAutomation/Farwarder_flattened.sol\":5180:5342  function _checkOwner() internal view virtual {... */\n      jump\t// out\n        /* \"ChailLinkAutomation/Farwarder_flattened.sol\":6296:6483  function _transferOwnership(address newOwner) internal virtual {... */\n    tag_63:\n        /* \"ChailLinkAutomation/Farwarder_flattened.sol\":6369:6385  address oldOwner */\n      0x00\n        /* \"ChailLinkAutomation/Farwarder_flattened.sol\":6388:6394  _owner */\n      dup1\n      0x00\n      swap1\n      sload\n      swap1\n      0x0100\n      exp\n      swap1\n      div\n      0xffffffffffffffffffffffffffffffffffffffff\n      and\n        /* \"ChailLinkAutomation/Farwarder_flattened.sol\":6369:6394  address oldOwner = _owner */\n      swap1\n      pop\n        /* \"ChailLinkAutomation/Farwarder_flattened.sol\":6413:6421  newOwner */\n      dup2\n        /* \"ChailLinkAutomation/Farwarder_flattened.sol\":6404:6410  _owner */\n      0x00\n      dup1\n        /* \"ChailLinkAutomation/Farwarder_flattened.sol\":6404:6421  _owner = newOwner */\n      0x0100\n      exp\n      dup2\n      sload\n      dup2\n      0xffffffffffffffffffffffffffffffffffffffff\n      mul\n      not\n      and\n      swap1\n      dup4\n      0xffffffffffffffffffffffffffffffffffffffff\n      and\n      mul\n      or\n      swap1\n      sstore\n      pop\n        /* \"ChailLinkAutomation/Farwarder_flattened.sol\":6467:6475  newOwner */\n      dup2\n        /* \"ChailLinkAutomation/Farwarder_flattened.sol\":6436:6476  OwnershipTransferred(oldOwner, newOwner) */\n      0xffffffffffffffffffffffffffffffffffffffff\n      and\n        /* \"ChailLinkAutomation/Farwarder_flattened.sol\":6457:6465  oldOwner */\n      dup2\n        /* \"ChailLinkAutomation/Farwarder_flattened.sol\":6436:6476  OwnershipTransferred(oldOwner, newOwner) */\n      0xffffffffffffffffffffffffffffffffffffffff\n      and\n      0x8be0079c531659141344cd1fd0a4f28419497f9722a3daafe3b4186f6b6457e0\n      mload(0x40)\n      mload(0x40)\n      dup1\n      swap2\n      sub\n      swap1\n      log3\n        /* \"ChailLinkAutomation/Farwarder_flattened.sol\":6359:6483  {... */\n      pop\n        /* \"ChailLinkAutomation/Farwarder_flattened.sol\":6296:6483  function _transferOwnership(address newOwner) internal virtual {... */\n      pop\n      jump\t// out\n        /* \"ChailLinkAutomation/Farwarder_flattened.sol\":3100:3196  function _msgSender() internal view virtual returns (address) {... */\n    tag_76:\n        /* \"ChailLinkAutomation/Farwarder_flattened.sol\":3153:3160  address */\n      0x00\n        /* \"ChailLinkAutomation/Farwarder_flattened.sol\":3179:3189  msg.sender */\n      caller\n        /* \"ChailLinkAutomation/Farwarder_flattened.sol\":3172:3189  return msg.sender */\n      swap1\n      pop\n        /* \"ChailLinkAutomation/Farwarder_flattened.sol\":3100:3196  function _msgSender() internal view virtual returns (address) {... */\n      swap1\n      jump\t// out\n        /* \"#utility.yul\":7:133   */\n    tag_83:\n        /* \"#utility.yul\":44:51   */\n      0x00\n        /* \"#utility.yul\":84:126   */\n      0xffffffffffffffffffffffffffffffffffffffff\n        /* \"#utility.yul\":77:82   */\n      dup3\n        /* \"#utility.yul\":73:127   */\n      and\n        /* \"#utility.yul\":62:127   */\n      swap1\n      pop\n        /* \"#utility.yul\":7:133   */\n      swap2\n      swap1\n      pop\n      jump\t// out\n        /* \"#utility.yul\":139:235   */\n    tag_84:\n        /* \"#utility.yul\":176:183   */\n      0x00\n        /* \"#utility.yul\":205:229   */\n      tag_111\n        /* \"#utility.yul\":223:228   */\n      dup3\n        /* \"#utility.yul\":205:229   */\n      tag_83\n      jump\t// in\n    tag_111:\n        /* \"#utility.yul\":194:229   */\n      swap1\n      pop\n        /* \"#utility.yul\":139:235   */\n      swap2\n      swap1\n      pop\n      jump\t// out\n        /* \"#utility.yul\":241:359   */\n    tag_85:\n        /* \"#utility.yul\":328:352   */\n      tag_113\n        /* \"#utility.yul\":346:351   */\n      dup2\n        /* \"#utility.yul\":328:352   */\n      tag_84\n      jump\t// in\n    tag_113:\n        /* \"#utility.yul\":323:326   */\n      dup3\n        /* \"#utility.yul\":316:353   */\n      mstore\n        /* \"#utility.yul\":241:359   */\n      pop\n      pop\n      jump\t// out\n        /* \"#utility.yul\":365:587   */\n    tag_17:\n        /* \"#utility.yul\":458:462   */\n      0x00\n        /* \"#utility.yul\":496:498   */\n      0x20\n        /* \"#utility.yul\":485:494   */\n      dup3\n        /* \"#utility.yul\":481:499   */\n      add\n        /* \"#utility.yul\":473:499   */\n      swap1\n      pop\n        /* \"#utility.yul\":509:580   */\n      tag_115\n        /* \"#utility.yul\":577:578   */\n      0x00\n        /* \"#utility.yul\":566:575   */\n      dup4\n        /* \"#utility.yul\":562:579   */\n      add\n        /* \"#utility.yul\":553:559   */\n      dup5\n        /* \"#utility.yul\":509:580   */\n      tag_85\n      jump\t// in\n    tag_115:\n        /* \"#utility.yul\":365:587   */\n      swap3\n      swap2\n      pop\n      pop\n      jump\t// out\n        /* \"#utility.yul\":593:670   */\n    tag_86:\n        /* \"#utility.yul\":630:637   */\n      0x00\n        /* \"#utility.yul\":659:664   */\n      dup2\n        /* \"#utility.yul\":648:664   */\n      swap1\n      pop\n        /* \"#utility.yul\":593:670   */\n      swap2\n      swap1\n      pop\n      jump\t// out\n        /* \"#utility.yul\":676:794   */\n    tag_87:\n        /* \"#utility.yul\":763:787   */\n      tag_118\n        /* \"#utility.yul\":781:786   */\n      dup2\n        /* \"#utility.yul\":763:787   */\n      tag_86\n      jump\t// in\n    tag_118:\n        /* \"#utility.yul\":758:761   */\n      dup3\n        /* \"#utility.yul\":751:788   */\n      mstore\n        /* \"#utility.yul\":676:794   */\n      pop\n      pop\n      jump\t// out\n        /* \"#utility.yul\":800:1022   */\n    tag_21:\n        /* \"#utility.yul\":893:897   */\n      0x00\n        /* \"#utility.yul\":931:933   */\n      0x20\n        /* \"#utility.yul\":920:929   */\n      dup3\n        /* \"#utility.yul\":916:934   */\n      add\n        /* \"#utility.yul\":908:934   */\n      swap1\n      pop\n        /* \"#utility.yul\":944:1015   */\n      tag_120\n        /* \"#utility.yul\":1012:1013   */\n      0x00\n        /* \"#utility.yul\":1001:1010   */\n      dup4\n        /* \"#utility.yul\":997:1014   */\n      add\n        /* \"#utility.yul\":988:994   */\n      dup5\n        /* \"#utility.yul\":944:1015   */\n      tag_87\n      jump\t// in\n    tag_120:\n        /* \"#utility.yul\":800:1022   */\n      swap3\n      swap2\n      pop\n      pop\n      jump\t// out\n        /* \"#utility.yul\":1109:1226   */\n    tag_89:\n        /* \"#utility.yul\":1218:1219   */\n      0x00\n        /* \"#utility.yul\":1215:1216   */\n      dup1\n        /* \"#utility.yul\":1208:1220   */\n      revert\n        /* \"#utility.yul\":1232:1349   */\n    tag_90:\n        /* \"#utility.yul\":1341:1342   */\n      0x00\n        /* \"#utility.yul\":1338:1339   */\n      dup1\n        /* \"#utility.yul\":1331:1343   */\n      revert\n        /* \"#utility.yul\":1355:1472   */\n    tag_91:\n        /* \"#utility.yul\":1464:1465   */\n      0x00\n        /* \"#utility.yul\":1461:1462   */\n      dup1\n        /* \"#utility.yul\":1454:1466   */\n      revert\n        /* \"#utility.yul\":1478:1595   */\n    tag_92:\n        /* \"#utility.yul\":1587:1588   */\n      0x00\n        /* \"#utility.yul\":1584:1585   */\n      dup1\n        /* \"#utility.yul\":1577:1589   */\n      revert\n        /* \"#utility.yul\":1601:1718   */\n    tag_93:\n        /* \"#utility.yul\":1710:1711   */\n      0x00\n        /* \"#utility.yul\":1707:1708   */\n      dup1\n        /* \"#utility.yul\":1700:1712   */\n      revert\n        /* \"#utility.yul\":1737:2289   */\n    tag_94:\n        /* \"#utility.yul\":1794:1802   */\n      0x00\n        /* \"#utility.yul\":1804:1810   */\n      dup1\n        /* \"#utility.yul\":1854:1857   */\n      dup4\n        /* \"#utility.yul\":1847:1851   */\n      0x1f\n        /* \"#utility.yul\":1839:1845   */\n      dup5\n        /* \"#utility.yul\":1835:1852   */\n      add\n        /* \"#utility.yul\":1831:1858   */\n      slt\n        /* \"#utility.yul\":1821:1943   */\n      tag_128\n      jumpi\n        /* \"#utility.yul\":1862:1941   */\n      tag_129\n      tag_91\n      jump\t// in\n    tag_129:\n        /* \"#utility.yul\":1821:1943   */\n    tag_128:\n        /* \"#utility.yul\":1975:1981   */\n      dup3\n        /* \"#utility.yul\":1962:1982   */\n      calldataload\n        /* \"#utility.yul\":1952:1982   */\n      swap1\n      pop\n        /* \"#utility.yul\":2005:2023   */\n      0xffffffffffffffff\n        /* \"#utility.yul\":1997:2003   */\n      dup2\n        /* \"#utility.yul\":1994:2024   */\n      gt\n        /* \"#utility.yul\":1991:2108   */\n      iszero\n      tag_130\n      jumpi\n        /* \"#utility.yul\":2027:2106   */\n      tag_131\n      tag_92\n      jump\t// in\n    tag_131:\n        /* \"#utility.yul\":1991:2108   */\n    tag_130:\n        /* \"#utility.yul\":2141:2145   */\n      0x20\n        /* \"#utility.yul\":2133:2139   */\n      dup4\n        /* \"#utility.yul\":2129:2146   */\n      add\n        /* \"#utility.yul\":2117:2146   */\n      swap2\n      pop\n        /* \"#utility.yul\":2195:2198   */\n      dup4\n        /* \"#utility.yul\":2187:2191   */\n      0x01\n        /* \"#utility.yul\":2179:2185   */\n      dup3\n        /* \"#utility.yul\":2175:2192   */\n      mul\n        /* \"#utility.yul\":2165:2173   */\n      dup4\n        /* \"#utility.yul\":2161:2193   */\n      add\n        /* \"#utility.yul\":2158:2199   */\n      gt\n        /* \"#utility.yul\":2155:2283   */\n      iszero\n      tag_132\n      jumpi\n        /* \"#utility.yul\":2202:2281   */\n      tag_133\n      tag_93\n      jump\t// in\n    tag_133:\n        /* \"#utility.yul\":2155:2283   */\n    tag_132:\n        /* \"#utility.yul\":1737:2289   */\n      swap3\n      pop\n      swap3\n      swap1\n      pop\n      jump\t// out\n        /* \"#utility.yul\":2295:2822   */\n    tag_24:\n        /* \"#utility.yul\":2365:2371   */\n      0x00\n        /* \"#utility.yul\":2373:2379   */\n      dup1\n        /* \"#utility.yul\":2422:2424   */\n      0x20\n        /* \"#utility.yul\":2410:2419   */\n      dup4\n        /* \"#utility.yul\":2401:2408   */\n      dup6\n        /* \"#utility.yul\":2397:2420   */\n      sub\n        /* \"#utility.yul\":2393:2425   */\n      slt\n        /* \"#utility.yul\":2390:2509   */\n      iszero\n      tag_135\n      jumpi\n        /* \"#utility.yul\":2428:2507   */\n      tag_136\n      tag_89\n      jump\t// in\n    tag_136:\n        /* \"#utility.yul\":2390:2509   */\n    tag_135:\n        /* \"#utility.yul\":2576:2577   */\n      0x00\n        /* \"#utility.yul\":2565:2574   */\n      dup4\n        /* \"#utility.yul\":2561:2578   */\n      add\n        /* \"#utility.yul\":2548:2579   */\n      calldataload\n        /* \"#utility.yul\":2606:2624   */\n      0xffffffffffffffff\n        /* \"#utility.yul\":2598:2604   */\n      dup2\n        /* \"#utility.yul\":2595:2625   */\n      gt\n        /* \"#utility.yul\":2592:2709   */\n      iszero\n      tag_137\n      jumpi\n        /* \"#utility.yul\":2628:2707   */\n      tag_138\n      tag_90\n      jump\t// in\n    tag_138:\n        /* \"#utility.yul\":2592:2709   */\n    tag_137:\n        /* \"#utility.yul\":2741:2805   */\n      tag_139\n        /* \"#utility.yul\":2797:2804   */\n      dup6\n        /* \"#utility.yul\":2788:2794   */\n      dup3\n        /* \"#utility.yul\":2777:2786   */\n      dup7\n        /* \"#utility.yul\":2773:2795   */\n      add\n        /* \"#utility.yul\":2741:2805   */\n      tag_94\n      jump\t// in\n    tag_139:\n        /* \"#utility.yul\":2723:2805   */\n      swap3\n      pop\n      swap3\n      pop\n        /* \"#utility.yul\":2519:2815   */\n      pop\n        /* \"#utility.yul\":2295:2822   */\n      swap3\n      pop\n      swap3\n      swap1\n      pop\n      jump\t// out\n        /* \"#utility.yul\":2828:2918   */\n    tag_95:\n        /* \"#utility.yul\":2862:2869   */\n      0x00\n        /* \"#utility.yul\":2905:2910   */\n      dup2\n        /* \"#utility.yul\":2898:2911   */\n      iszero\n        /* \"#utility.yul\":2891:2912   */\n      iszero\n        /* \"#utility.yul\":2880:2912   */\n      swap1\n      pop\n        /* \"#utility.yul\":2828:2918   */\n      swap2\n      swap1\n      pop\n      jump\t// out\n        /* \"#utility.yul\":2924:3033   */\n    tag_96:\n        /* \"#utility.yul\":3005:3026   */\n      tag_142\n        /* \"#utility.yul\":3020:3025   */\n      dup2\n        /* \"#utility.yul\":3005:3026   */\n      tag_95\n      jump\t// in\n    tag_142:\n        /* \"#utility.yul\":3000:3003   */\n      dup3\n        /* \"#utility.yul\":2993:3027   */\n      mstore\n        /* \"#utility.yul\":2924:3033   */\n      pop\n      pop\n      jump\t// out\n        /* \"#utility.yul\":3039:3137   */\n    tag_97:\n        /* \"#utility.yul\":3090:3096   */\n      0x00\n        /* \"#utility.yul\":3124:3129   */\n      dup2\n        /* \"#utility.yul\":3118:3130   */\n      mload\n        /* \"#utility.yul\":3108:3130   */\n      swap1\n      pop\n        /* \"#utility.yul\":3039:3137   */\n      swap2\n      swap1\n      pop\n      jump\t// out\n        /* \"#utility.yul\":3143:3311   */\n    tag_98:\n        /* \"#utility.yul\":3226:3237   */\n      0x00\n        /* \"#utility.yul\":3260:3266   */\n      dup3\n        /* \"#utility.yul\":3255:3258   */\n      dup3\n        /* \"#utility.yul\":3248:3267   */\n      mstore\n        /* \"#utility.yul\":3300:3304   */\n      0x20\n        /* \"#utility.yul\":3295:3298   */\n      dup3\n        /* \"#utility.yul\":3291:3305   */\n      add\n        /* \"#utility.yul\":3276:3305   */\n      swap1\n      pop\n        /* \"#utility.yul\":3143:3311   */\n      swap3\n      swap2\n      pop\n      pop\n      jump\t// out\n        /* \"#utility.yul\":3317:3456   */\n    tag_99:\n        /* \"#utility.yul\":3406:3412   */\n      dup3\n        /* \"#utility.yul\":3401:3404   */\n      dup2\n        /* \"#utility.yul\":3396:3399   */\n      dup4\n        /* \"#utility.yul\":3390:3413   */\n      mcopy\n        /* \"#utility.yul\":3447:3448   */\n      0x00\n        /* \"#utility.yul\":3438:3444   */\n      dup4\n        /* \"#utility.yul\":3433:3436   */\n      dup4\n        /* \"#utility.yul\":3429:3445   */\n      add\n        /* \"#utility.yul\":3422:3449   */\n      mstore\n        /* \"#utility.yul\":3317:3456   */\n      pop\n      pop\n      pop\n      jump\t// out\n        /* \"#utility.yul\":3462:3564   */\n    tag_100:\n        /* \"#utility.yul\":3503:3509   */\n      0x00\n        /* \"#utility.yul\":3554:3556   */\n      0x1f\n        /* \"#utility.yul\":3550:3557   */\n      not\n        /* \"#utility.yul\":3545:3547   */\n      0x1f\n        /* \"#utility.yul\":3538:3543   */\n      dup4\n        /* \"#utility.yul\":3534:3548   */\n      add\n        /* \"#utility.yul\":3530:3558   */\n      and\n        /* \"#utility.yul\":3520:3558   */\n      swap1\n      pop\n        /* \"#utility.yul\":3462:3564   */\n      swap2\n      swap1\n      pop\n      jump\t// out\n        /* \"#utility.yul\":3570:3943   */\n    tag_101:\n        /* \"#utility.yul\":3656:3659   */\n      0x00\n        /* \"#utility.yul\":3684:3722   */\n      tag_148\n        /* \"#utility.yul\":3716:3721   */\n      dup3\n        /* \"#utility.yul\":3684:3722   */\n      tag_97\n      jump\t// in\n    tag_148:\n        /* \"#utility.yul\":3738:3808   */\n      tag_149\n        /* \"#utility.yul\":3801:3807   */\n      dup2\n        /* \"#utility.yul\":3796:3799   */\n      dup6\n        /* \"#utility.yul\":3738:3808   */\n      tag_98\n      jump\t// in\n    tag_149:\n        /* \"#utility.yul\":3731:3808   */\n      swap4\n      pop\n        /* \"#utility.yul\":3817:3882   */\n      tag_150\n        /* \"#utility.yul\":3875:3881   */\n      dup2\n        /* \"#utility.yul\":3870:3873   */\n      dup6\n        /* \"#utility.yul\":3863:3867   */\n      0x20\n        /* \"#utility.yul\":3856:3861   */\n      dup7\n        /* \"#utility.yul\":3852:3868   */\n      add\n        /* \"#utility.yul\":3817:3882   */\n      tag_99\n      jump\t// in\n    tag_150:\n        /* \"#utility.yul\":3907:3936   */\n      tag_151\n        /* \"#utility.yul\":3929:3935   */\n      dup2\n        /* \"#utility.yul\":3907:3936   */\n      tag_100\n      jump\t// in\n    tag_151:\n        /* \"#utility.yul\":3902:3905   */\n      dup5\n        /* \"#utility.yul\":3898:3937   */\n      add\n        /* \"#utility.yul\":3891:3937   */\n      swap2\n      pop\n        /* \"#utility.yul\":3660:3943   */\n      pop\n        /* \"#utility.yul\":3570:3943   */\n      swap3\n      swap2\n      pop\n      pop\n      jump\t// out\n        /* \"#utility.yul\":3949:4356   */\n    tag_33:\n        /* \"#utility.yul\":4082:4086   */\n      0x00\n        /* \"#utility.yul\":4120:4122   */\n      0x40\n        /* \"#utility.yul\":4109:4118   */\n      dup3\n        /* \"#utility.yul\":4105:4123   */\n      add\n        /* \"#utility.yul\":4097:4123   */\n      swap1\n      pop\n        /* \"#utility.yul\":4133:4198   */\n      tag_153\n        /* \"#utility.yul\":4195:4196   */\n      0x00\n        /* \"#utility.yul\":4184:4193   */\n      dup4\n        /* \"#utility.yul\":4180:4197   */\n      add\n        /* \"#utility.yul\":4171:4177   */\n      dup6\n        /* \"#utility.yul\":4133:4198   */\n      tag_96\n      jump\t// in\n    tag_153:\n        /* \"#utility.yul\":4245:4254   */\n      dup2\n        /* \"#utility.yul\":4239:4243   */\n      dup2\n        /* \"#utility.yul\":4235:4255   */\n      sub\n        /* \"#utility.yul\":4230:4232   */\n      0x20\n        /* \"#utility.yul\":4219:4228   */\n      dup4\n        /* \"#utility.yul\":4215:4233   */\n      add\n        /* \"#utility.yul\":4208:4256   */\n      mstore\n        /* \"#utility.yul\":4273:4349   */\n      tag_154\n        /* \"#utility.yul\":4344:4348   */\n      dup2\n        /* \"#utility.yul\":4335:4341   */\n      dup5\n        /* \"#utility.yul\":4273:4349   */\n      tag_101\n      jump\t// in\n    tag_154:\n        /* \"#utility.yul\":4265:4349   */\n      swap1\n      pop\n        /* \"#utility.yul\":3949:4356   */\n      swap4\n      swap3\n      pop\n      pop\n      pop\n      jump\t// out\n        /* \"#utility.yul\":4362:4484   */\n    tag_102:\n        /* \"#utility.yul\":4435:4459   */\n      tag_156\n        /* \"#utility.yul\":4453:4458   */\n      dup2\n        /* \"#utility.yul\":4435:4459   */\n      tag_84\n      jump\t// in\n    tag_156:\n        /* \"#utility.yul\":4428:4433   */\n      dup2\n        /* \"#utility.yul\":4425:4460   */\n      eq\n        /* \"#utility.yul\":4415:4478   */\n      tag_157\n      jumpi\n        /* \"#utility.yul\":4474:4475   */\n      0x00\n        /* \"#utility.yul\":4471:4472   */\n      dup1\n        /* \"#utility.yul\":4464:4476   */\n      revert\n        /* \"#utility.yul\":4415:4478   */\n    tag_157:\n        /* \"#utility.yul\":4362:4484   */\n      pop\n      jump\t// out\n        /* \"#utility.yul\":4490:4629   */\n    tag_103:\n        /* \"#utility.yul\":4536:4541   */\n      0x00\n        /* \"#utility.yul\":4574:4580   */\n      dup2\n        /* \"#utility.yul\":4561:4581   */\n      calldataload\n        /* \"#utility.yul\":4552:4581   */\n      swap1\n      pop\n        /* \"#utility.yul\":4590:4623   */\n      tag_159\n        /* \"#utility.yul\":4617:4622   */\n      dup2\n        /* \"#utility.yul\":4590:4623   */\n      tag_102\n      jump\t// in\n    tag_159:\n        /* \"#utility.yul\":4490:4629   */\n      swap3\n      swap2\n      pop\n      pop\n      jump\t// out\n        /* \"#utility.yul\":4635:4964   */\n    tag_44:\n        /* \"#utility.yul\":4694:4700   */\n      0x00\n        /* \"#utility.yul\":4743:4745   */\n      0x20\n        /* \"#utility.yul\":4731:4740   */\n      dup3\n        /* \"#utility.yul\":4722:4729   */\n      dup5\n        /* \"#utility.yul\":4718:4741   */\n      sub\n        /* \"#utility.yul\":4714:4746   */\n      slt\n        /* \"#utility.yul\":4711:4830   */\n      iszero\n      tag_161\n      jumpi\n        /* \"#utility.yul\":4749:4828   */\n      tag_162\n      tag_89\n      jump\t// in\n    tag_162:\n        /* \"#utility.yul\":4711:4830   */\n    tag_161:\n        /* \"#utility.yul\":4869:4870   */\n      0x00\n        /* \"#utility.yul\":4894:4947   */\n      tag_163\n        /* \"#utility.yul\":4939:4946   */\n      dup5\n        /* \"#utility.yul\":4930:4936   */\n      dup3\n        /* \"#utility.yul\":4919:4928   */\n      dup6\n        /* \"#utility.yul\":4915:4937   */\n      add\n        /* \"#utility.yul\":4894:4947   */\n      tag_103\n      jump\t// in\n    tag_163:\n        /* \"#utility.yul\":4884:4947   */\n      swap2\n      pop\n        /* \"#utility.yul\":4840:4957   */\n      pop\n        /* \"#utility.yul\":4635:4964   */\n      swap3\n      swap2\n      pop\n      pop\n      jump\t// out\n        /* \"#utility.yul\":4970:5139   */\n    tag_104:\n        /* \"#utility.yul\":5054:5065   */\n      0x00\n        /* \"#utility.yul\":5088:5094   */\n      dup3\n        /* \"#utility.yul\":5083:5086   */\n      dup3\n        /* \"#utility.yul\":5076:5095   */\n      mstore\n        /* \"#utility.yul\":5128:5132   */\n      0x20\n        /* \"#utility.yul\":5123:5126   */\n      dup3\n        /* \"#utility.yul\":5119:5133   */\n      add\n        /* \"#utility.yul\":5104:5133   */\n      swap1\n      pop\n        /* \"#utility.yul\":4970:5139   */\n      swap3\n      swap2\n      pop\n      pop\n      jump\t// out\n        /* \"#utility.yul\":5145:5391   */\n    tag_105:\n        /* \"#utility.yul\":5285:5319   */\n      0x54686973206164647265737320646f6573206e6f742068617665207065726d69\n        /* \"#utility.yul\":5281:5282   */\n      0x00\n        /* \"#utility.yul\":5273:5279   */\n      dup3\n        /* \"#utility.yul\":5269:5283   */\n      add\n        /* \"#utility.yul\":5262:5320   */\n      mstore\n        /* \"#utility.yul\":5354:5383   */\n      0x7373696f6e20746f2063616c6c20706572666f726d55706b6565700000000000\n        /* \"#utility.yul\":5349:5351   */\n      0x20\n        /* \"#utility.yul\":5341:5347   */\n      dup3\n        /* \"#utility.yul\":5337:5352   */\n      add\n        /* \"#utility.yul\":5330:5384   */\n      mstore\n        /* \"#utility.yul\":5145:5391   */\n      pop\n      jump\t// out\n        /* \"#utility.yul\":5397:5763   */\n    tag_106:\n        /* \"#utility.yul\":5539:5542   */\n      0x00\n        /* \"#utility.yul\":5560:5627   */\n      tag_167\n        /* \"#utility.yul\":5624:5626   */\n      0x3b\n        /* \"#utility.yul\":5619:5622   */\n      dup4\n        /* \"#utility.yul\":5560:5627   */\n      tag_104\n      jump\t// in\n    tag_167:\n        /* \"#utility.yul\":5553:5627   */\n      swap2\n      pop\n        /* \"#utility.yul\":5636:5729   */\n      tag_168\n        /* \"#utility.yul\":5725:5728   */\n      dup3\n        /* \"#utility.yul\":5636:5729   */\n      tag_105\n      jump\t// in\n    tag_168:\n        /* \"#utility.yul\":5754:5756   */\n      0x40\n        /* \"#utility.yul\":5749:5752   */\n      dup3\n        /* \"#utility.yul\":5745:5757   */\n      add\n        /* \"#utility.yul\":5738:5757   */\n      swap1\n      pop\n        /* \"#utility.yul\":5397:5763   */\n      swap2\n      swap1\n      pop\n      jump\t// out\n        /* \"#utility.yul\":5769:6188   */\n    tag_52:\n        /* \"#utility.yul\":5935:5939   */\n      0x00\n        /* \"#utility.yul\":5973:5975   */\n      0x20\n        /* \"#utility.yul\":5962:5971   */\n      dup3\n        /* \"#utility.yul\":5958:5976   */\n      add\n        /* \"#utility.yul\":5950:5976   */\n      swap1\n      pop\n        /* \"#utility.yul\":6022:6031   */\n      dup2\n        /* \"#utility.yul\":6016:6020   */\n      dup2\n        /* \"#utility.yul\":6012:6032   */\n      sub\n        /* \"#utility.yul\":6008:6009   */\n      0x00\n        /* \"#utility.yul\":5997:6006   */\n      dup4\n        /* \"#utility.yul\":5993:6010   */\n      add\n        /* \"#utility.yul\":5986:6033   */\n      mstore\n        /* \"#utility.yul\":6050:6181   */\n      tag_170\n        /* \"#utility.yul\":6176:6180   */\n      dup2\n        /* \"#utility.yul\":6050:6181   */\n      tag_106\n      jump\t// in\n    tag_170:\n        /* \"#utility.yul\":6042:6181   */\n      swap1\n      pop\n        /* \"#utility.yul\":5769:6188   */\n      swap2\n      swap1\n      pop\n      jump\t// out\n        /* \"#utility.yul\":6194:6374   */\n    tag_107:\n        /* \"#utility.yul\":6242:6319   */\n      0x4e487b7100000000000000000000000000000000000000000000000000000000\n        /* \"#utility.yul\":6239:6240   */\n      0x00\n        /* \"#utility.yul\":6232:6320   */\n      mstore\n        /* \"#utility.yul\":6339:6343   */\n      0x11\n        /* \"#utility.yul\":6336:6337   */\n      0x04\n        /* \"#utility.yul\":6329:6344   */\n      mstore\n        /* \"#utility.yul\":6363:6367   */\n      0x24\n        /* \"#utility.yul\":6360:6361   */\n      0x00\n        /* \"#utility.yul\":6353:6368   */\n      revert\n        /* \"#utility.yul\":6380:6571   */\n    tag_54:\n        /* \"#utility.yul\":6420:6423   */\n      0x00\n        /* \"#utility.yul\":6439:6459   */\n      tag_173\n        /* \"#utility.yul\":6457:6458   */\n      dup3\n        /* \"#utility.yul\":6439:6459   */\n      tag_86\n      jump\t// in\n    tag_173:\n        /* \"#utility.yul\":6434:6459   */\n      swap2\n      pop\n        /* \"#utility.yul\":6473:6493   */\n      tag_174\n        /* \"#utility.yul\":6491:6492   */\n      dup4\n        /* \"#utility.yul\":6473:6493   */\n      tag_86\n      jump\t// in\n    tag_174:\n        /* \"#utility.yul\":6468:6493   */\n      swap3\n      pop\n        /* \"#utility.yul\":6516:6517   */\n      dup3\n        /* \"#utility.yul\":6513:6514   */\n      dup3\n        /* \"#utility.yul\":6509:6518   */\n      add\n        /* \"#utility.yul\":6502:6518   */\n      swap1\n      pop\n        /* \"#utility.yul\":6537:6540   */\n      dup1\n        /* \"#utility.yul\":6534:6535   */\n      dup3\n        /* \"#utility.yul\":6531:6541   */\n      gt\n        /* \"#utility.yul\":6528:6564   */\n      iszero\n      tag_175\n      jumpi\n        /* \"#utility.yul\":6544:6562   */\n      tag_176\n      tag_107\n      jump\t// in\n    tag_176:\n        /* \"#utility.yul\":6528:6564   */\n    tag_175:\n        /* \"#utility.yul\":6380:6571   */\n      swap3\n      swap2\n      pop\n      pop\n      jump\t// out\n        /* \"#utility.yul\":6577:6771   */\n    tag_57:\n        /* \"#utility.yul\":6617:6621   */\n      0x00\n        /* \"#utility.yul\":6637:6657   */\n      tag_178\n        /* \"#utility.yul\":6655:6656   */\n      dup3\n        /* \"#utility.yul\":6637:6657   */\n      tag_86\n      jump\t// in\n    tag_178:\n        /* \"#utility.yul\":6632:6657   */\n      swap2\n      pop\n        /* \"#utility.yul\":6671:6691   */\n      tag_179\n        /* \"#utility.yul\":6689:6690   */\n      dup4\n        /* \"#utility.yul\":6671:6691   */\n      tag_86\n      jump\t// in\n    tag_179:\n        /* \"#utility.yul\":6666:6691   */\n      swap3\n      pop\n        /* \"#utility.yul\":6715:6716   */\n      dup3\n        /* \"#utility.yul\":6712:6713   */\n      dup3\n        /* \"#utility.yul\":6708:6717   */\n      sub\n        /* \"#utility.yul\":6700:6717   */\n      swap1\n      pop\n        /* \"#utility.yul\":6739:6740   */\n      dup2\n        /* \"#utility.yul\":6733:6737   */\n      dup2\n        /* \"#utility.yul\":6730:6741   */\n      gt\n        /* \"#utility.yul\":6727:6764   */\n      iszero\n      tag_180\n      jumpi\n        /* \"#utility.yul\":6744:6762   */\n      tag_181\n      tag_107\n      jump\t// in\n    tag_181:\n        /* \"#utility.yul\":6727:6764   */\n    tag_180:\n        /* \"#utility.yul\":6577:6771   */\n      swap3\n      swap2\n      pop\n      pop\n      jump\t// out\n\n    auxdata: 0xa264697066735822122073f29564a44599b7b411e5da29e3614411a5eec6a0f665cddc165dfb4e08d04564736f6c634300081a0033\n}\n",
				"bytecode": {
					"linkReferences": {},
					"object": "608060405234801561000f575f80fd5b50604051610b6c380380610b6c83398181016040528101906100319190610212565b815f73ffffffffffffffffffffffffffffffffffffffff168173ffffffffffffffffffffffffffffffffffffffff16036100a2575f6040517f1e4fbdf7000000000000000000000000000000000000000000000000000000008152600401610099919061025f565b60405180910390fd5b6100b1816100c060201b60201c565b50806002819055505050610278565b5f805f9054906101000a900473ffffffffffffffffffffffffffffffffffffffff169050815f806101000a81548173ffffffffffffffffffffffffffffffffffffffff021916908373ffffffffffffffffffffffffffffffffffffffff1602179055508173ffffffffffffffffffffffffffffffffffffffff168173ffffffffffffffffffffffffffffffffffffffff167f8be0079c531659141344cd1fd0a4f28419497f9722a3daafe3b4186f6b6457e060405160405180910390a35050565b5f80fd5b5f73ffffffffffffffffffffffffffffffffffffffff82169050919050565b5f6101ae82610185565b9050919050565b6101be816101a4565b81146101c8575f80fd5b50565b5f815190506101d9816101b5565b92915050565b5f819050919050565b6101f1816101df565b81146101fb575f80fd5b50565b5f8151905061020c816101e8565b92915050565b5f806040838503121561022857610227610181565b5b5f610235858286016101cb565b9250506020610246858286016101fe565b9150509250929050565b610259816101a4565b82525050565b5f6020820190506102725f830184610250565b92915050565b6108e7806102855f395ff3fe608060405234801561000f575f80fd5b506004361061009c575f3560e01c8063715018a611610064578063715018a6146101475780638da5cb5b14610151578063947a36fb1461016f578063d777cc6d1461018d578063f2fde38b146101a95761009c565b80633070fbf8146100a05780633f3b3b27146100be5780634585e33b146100dc57806361bc221a146100f85780636e04ff0d14610116575b5f80fd5b6100a86101c5565b6040516100b59190610575565b60405180910390f35b6100c66101ea565b6040516100d391906105a6565b60405180910390f35b6100f660048036038101906100f19190610628565b6101f0565b005b61010061029e565b60405161010d91906105a6565b60405180910390f35b610130600480360381019061012b9190610628565b6102a4565b60405161013e9291906106fd565b60405180910390f35b61014f6102d8565b005b6101596102eb565b6040516101669190610575565b60405180910390f35b610177610312565b60405161018491906105a6565b60405180910390f35b6101a760048036038101906101a29190610755565b610318565b005b6101c360048036038101906101be9190610755565b610363565b005b60045f9054906101000a900473ffffffffffffffffffffffffffffffffffffffff1681565b60035481565b60045f9054906101000a900473ffffffffffffffffffffffffffffffffffffffff1673ffffffffffffffffffffffffffffffffffffffff163373ffffffffffffffffffffffffffffffffffffffff161461027f576040517f08c379a000000000000000000000000000000000000000000000000000000000815260040161027690610800565b60405180910390fd5b4260038190555060018054610294919061084b565b6001819055505050565b60015481565b5f60605f600254600354426102b9919061087e565b1190508060405180602001604052805f81525092509250509250929050565b6102e06103e7565b6102e95f61046e565b565b5f805f9054906101000a900473ffffffffffffffffffffffffffffffffffffffff16905090565b60025481565b6103206103e7565b8060045f6101000a81548173ffffffffffffffffffffffffffffffffffffffff021916908373ffffffffffffffffffffffffffffffffffffffff16021790555050565b61036b6103e7565b5f73ffffffffffffffffffffffffffffffffffffffff168173ffffffffffffffffffffffffffffffffffffffff16036103db575f6040517f1e4fbdf70000000000000000000000000000000000000000000000000000000081526004016103d29190610575565b60405180910390fd5b6103e48161046e565b50565b6103ef61052f565b73ffffffffffffffffffffffffffffffffffffffff1661040d6102eb565b73ffffffffffffffffffffffffffffffffffffffff161461046c5761043061052f565b6040517f118cdaa70000000000000000000000000000000000000000000000000000000081526004016104639190610575565b60405180910390fd5b565b5f805f9054906101000a900473ffffffffffffffffffffffffffffffffffffffff169050815f806101000a81548173ffffffffffffffffffffffffffffffffffffffff021916908373ffffffffffffffffffffffffffffffffffffffff1602179055508173ffffffffffffffffffffffffffffffffffffffff168173ffffffffffffffffffffffffffffffffffffffff167f8be0079c531659141344cd1fd0a4f28419497f9722a3daafe3b4186f6b6457e060405160405180910390a35050565b5f33905090565b5f73ffffffffffffffffffffffffffffffffffffffff82169050919050565b5f61055f82610536565b9050919050565b61056f81610555565b82525050565b5f6020820190506105885f830184610566565b92915050565b5f819050919050565b6105a08161058e565b82525050565b5f6020820190506105b95f830184610597565b92915050565b5f80fd5b5f80fd5b5f80fd5b5f80fd5b5f80fd5b5f8083601f8401126105e8576105e76105c7565b5b8235905067ffffffffffffffff811115610605576106046105cb565b5b602083019150836001820283011115610621576106206105cf565b5b9250929050565b5f806020838503121561063e5761063d6105bf565b5b5f83013567ffffffffffffffff81111561065b5761065a6105c3565b5b610667858286016105d3565b92509250509250929050565b5f8115159050919050565b61068781610673565b82525050565b5f81519050919050565b5f82825260208201905092915050565b8281835e5f83830152505050565b5f601f19601f8301169050919050565b5f6106cf8261068d565b6106d98185610697565b93506106e98185602086016106a7565b6106f2816106b5565b840191505092915050565b5f6040820190506107105f83018561067e565b818103602083015261072281846106c5565b90509392505050565b61073481610555565b811461073e575f80fd5b50565b5f8135905061074f8161072b565b92915050565b5f6020828403121561076a576107696105bf565b5b5f61077784828501610741565b91505092915050565b5f82825260208201905092915050565b7f54686973206164647265737320646f6573206e6f742068617665207065726d695f8201527f7373696f6e20746f2063616c6c20706572666f726d55706b6565700000000000602082015250565b5f6107ea603b83610780565b91506107f582610790565b604082019050919050565b5f6020820190508181035f830152610817816107de565b9050919050565b7f4e487b71000000000000000000000000000000000000000000000000000000005f52601160045260245ffd5b5f6108558261058e565b91506108608361058e565b92508282019050808211156108785761087761081e565b5b92915050565b5f6108888261058e565b91506108938361058e565b92508282039050818111156108ab576108aa61081e565b5b9291505056fea264697066735822122073f29564a44599b7b411e5da29e3614411a5eec6a0f665cddc165dfb4e08d04564736f6c634300081a0033",
					"opcodes": "PUSH1 0x80 PUSH1 0x40 MSTORE CALLVALUE DUP1 ISZERO PUSH2 0xF JUMPI PUSH0 DUP1 REVERT JUMPDEST POP PUSH1 0x40 MLOAD PUSH2 0xB6C CODESIZE SUB DUP1 PUSH2 0xB6C DUP4 CODECOPY DUP2 DUP2 ADD PUSH1 0x40 MSTORE DUP2 ADD SWAP1 PUSH2 0x31 SWAP2 SWAP1 PUSH2 0x212 JUMP JUMPDEST DUP2 PUSH0 PUSH20 0xFFFFFFFFFFFFFFFFFFFFFFFFFFFFFFFFFFFFFFFF AND DUP2 PUSH20 0xFFFFFFFFFFFFFFFFFFFFFFFFFFFFFFFFFFFFFFFF AND SUB PUSH2 0xA2 JUMPI PUSH0 PUSH1 0x40 MLOAD PUSH32 0x1E4FBDF700000000000000000000000000000000000000000000000000000000 DUP2 MSTORE PUSH1 0x4 ADD PUSH2 0x99 SWAP2 SWAP1 PUSH2 0x25F JUMP JUMPDEST PUSH1 0x40 MLOAD DUP1 SWAP2 SUB SWAP1 REVERT JUMPDEST PUSH2 0xB1 DUP2 PUSH2 0xC0 PUSH1 0x20 SHL PUSH1 0x20 SHR JUMP JUMPDEST POP DUP1 PUSH1 0x2 DUP2 SWAP1 SSTORE POP POP POP PUSH2 0x278 JUMP JUMPDEST PUSH0 DUP1 PUSH0 SWAP1 SLOAD SWAP1 PUSH2 0x100 EXP SWAP1 DIV PUSH20 0xFFFFFFFFFFFFFFFFFFFFFFFFFFFFFFFFFFFFFFFF AND SWAP1 POP DUP2 PUSH0 DUP1 PUSH2 0x100 EXP DUP2 SLOAD DUP2 PUSH20 0xFFFFFFFFFFFFFFFFFFFFFFFFFFFFFFFFFFFFFFFF MUL NOT AND SWAP1 DUP4 PUSH20 0xFFFFFFFFFFFFFFFFFFFFFFFFFFFFFFFFFFFFFFFF AND MUL OR SWAP1 SSTORE POP DUP2 PUSH20 0xFFFFFFFFFFFFFFFFFFFFFFFFFFFFFFFFFFFFFFFF AND DUP2 PUSH20 0xFFFFFFFFFFFFFFFFFFFFFFFFFFFFFFFFFFFFFFFF AND PUSH32 0x8BE0079C531659141344CD1FD0A4F28419497F9722A3DAAFE3B4186F6B6457E0 PUSH1 0x40 MLOAD PUSH1 0x40 MLOAD DUP1 SWAP2 SUB SWAP1 LOG3 POP POP JUMP JUMPDEST PUSH0 DUP1 REVERT JUMPDEST PUSH0 PUSH20 0xFFFFFFFFFFFFFFFFFFFFFFFFFFFFFFFFFFFFFFFF DUP3 AND SWAP1 POP SWAP2 SWAP1 POP JUMP JUMPDEST PUSH0 PUSH2 0x1AE DUP3 PUSH2 0x185 JUMP JUMPDEST SWAP1 POP SWAP2 SWAP1 POP JUMP JUMPDEST PUSH2 0x1BE DUP2 PUSH2 0x1A4 JUMP JUMPDEST DUP2 EQ PUSH2 0x1C8 JUMPI PUSH0 DUP1 REVERT JUMPDEST POP JUMP JUMPDEST PUSH0 DUP2 MLOAD SWAP1 POP PUSH2 0x1D9 DUP2 PUSH2 0x1B5 JUMP JUMPDEST SWAP3 SWAP2 POP POP JUMP JUMPDEST PUSH0 DUP2 SWAP1 POP SWAP2 SWAP1 POP JUMP JUMPDEST PUSH2 0x1F1 DUP2 PUSH2 0x1DF JUMP JUMPDEST DUP2 EQ PUSH2 0x1FB JUMPI PUSH0 DUP1 REVERT JUMPDEST POP JUMP JUMPDEST PUSH0 DUP2 MLOAD SWAP1 POP PUSH2 0x20C DUP2 PUSH2 0x1E8 JUMP JUMPDEST SWAP3 SWAP2 POP POP JUMP JUMPDEST PUSH0 DUP1 PUSH1 0x40 DUP4 DUP6 SUB SLT ISZERO PUSH2 0x228 JUMPI PUSH2 0x227 PUSH2 0x181 JUMP JUMPDEST JUMPDEST PUSH0 PUSH2 0x235 DUP6 DUP3 DUP7 ADD PUSH2 0x1CB JUMP JUMPDEST SWAP3 POP POP PUSH1 0x20 PUSH2 0x246 DUP6 DUP3 DUP7 ADD PUSH2 0x1FE JUMP JUMPDEST SWAP2 POP POP SWAP3 POP SWAP3 SWAP1 POP JUMP JUMPDEST PUSH2 0x259 DUP2 PUSH2 0x1A4 JUMP JUMPDEST DUP3 MSTORE POP POP JUMP JUMPDEST PUSH0 PUSH1 0x20 DUP3 ADD SWAP1 POP PUSH2 0x272 PUSH0 DUP4 ADD DUP5 PUSH2 0x250 JUMP JUMPDEST SWAP3 SWAP2 POP POP JUMP JUMPDEST PUSH2 0x8E7 DUP1 PUSH2 0x285 PUSH0 CODECOPY PUSH0 RETURN INVALID PUSH1 0x80 PUSH1 0x40 MSTORE CALLVALUE DUP1 ISZERO PUSH2 0xF JUMPI PUSH0 DUP1 REVERT JUMPDEST POP PUSH1 0x4 CALLDATASIZE LT PUSH2 0x9C JUMPI PUSH0 CALLDATALOAD PUSH1 0xE0 SHR DUP1 PUSH4 0x715018A6 GT PUSH2 0x64 JUMPI DUP1 PUSH4 0x715018A6 EQ PUSH2 0x147 JUMPI DUP1 PUSH4 0x8DA5CB5B EQ PUSH2 0x151 JUMPI DUP1 PUSH4 0x947A36FB EQ PUSH2 0x16F JUMPI DUP1 PUSH4 0xD777CC6D EQ PUSH2 0x18D JUMPI DUP1 PUSH4 0xF2FDE38B EQ PUSH2 0x1A9 JUMPI PUSH2 0x9C JUMP JUMPDEST DUP1 PUSH4 0x3070FBF8 EQ PUSH2 0xA0 JUMPI DUP1 PUSH4 0x3F3B3B27 EQ PUSH2 0xBE JUMPI DUP1 PUSH4 0x4585E33B EQ PUSH2 0xDC JUMPI DUP1 PUSH4 0x61BC221A EQ PUSH2 0xF8 JUMPI DUP1 PUSH4 0x6E04FF0D EQ PUSH2 0x116 JUMPI JUMPDEST PUSH0 DUP1 REVERT JUMPDEST PUSH2 0xA8 PUSH2 0x1C5 JUMP JUMPDEST PUSH1 0x40 MLOAD PUSH2 0xB5 SWAP2 SWAP1 PUSH2 0x575 JUMP JUMPDEST PUSH1 0x40 MLOAD DUP1 SWAP2 SUB SWAP1 RETURN JUMPDEST PUSH2 0xC6 PUSH2 0x1EA JUMP JUMPDEST PUSH1 0x40 MLOAD PUSH2 0xD3 SWAP2 SWAP1 PUSH2 0x5A6 JUMP JUMPDEST PUSH1 0x40 MLOAD DUP1 SWAP2 SUB SWAP1 RETURN JUMPDEST PUSH2 0xF6 PUSH1 0x4 DUP1 CALLDATASIZE SUB DUP2 ADD SWAP1 PUSH2 0xF1 SWAP2 SWAP1 PUSH2 0x628 JUMP JUMPDEST PUSH2 0x1F0 JUMP JUMPDEST STOP JUMPDEST PUSH2 0x100 PUSH2 0x29E JUMP JUMPDEST PUSH1 0x40 MLOAD PUSH2 0x10D SWAP2 SWAP1 PUSH2 0x5A6 JUMP JUMPDEST PUSH1 0x40 MLOAD DUP1 SWAP2 SUB SWAP1 RETURN JUMPDEST PUSH2 0x130 PUSH1 0x4 DUP1 CALLDATASIZE SUB DUP2 ADD SWAP1 PUSH2 0x12B SWAP2 SWAP1 PUSH2 0x628 JUMP JUMPDEST PUSH2 0x2A4 JUMP JUMPDEST PUSH1 0x40 MLOAD PUSH2 0x13E SWAP3 SWAP2 SWAP1 PUSH2 0x6FD JUMP JUMPDEST PUSH1 0x40 MLOAD DUP1 SWAP2 SUB SWAP1 RETURN JUMPDEST PUSH2 0x14F PUSH2 0x2D8 JUMP JUMPDEST STOP JUMPDEST PUSH2 0x159 PUSH2 0x2EB JUMP JUMPDEST PUSH1 0x40 MLOAD PUSH2 0x166 SWAP2 SWAP1 PUSH2 0x575 JUMP JUMPDEST PUSH1 0x40 MLOAD DUP1 SWAP2 SUB SWAP1 RETURN JUMPDEST PUSH2 0x177 PUSH2 0x312 JUMP JUMPDEST PUSH1 0x40 MLOAD PUSH2 0x184 SWAP2 SWAP1 PUSH2 0x5A6 JUMP JUMPDEST PUSH1 0x40 MLOAD DUP1 SWAP2 SUB SWAP1 RETURN JUMPDEST PUSH2 0x1A7 PUSH1 0x4 DUP1 CALLDATASIZE SUB DUP2 ADD SWAP1 PUSH2 0x1A2 SWAP2 SWAP1 PUSH2 0x755 JUMP JUMPDEST PUSH2 0x318 JUMP JUMPDEST STOP JUMPDEST PUSH2 0x1C3 PUSH1 0x4 DUP1 CALLDATASIZE SUB DUP2 ADD SWAP1 PUSH2 0x1BE SWAP2 SWAP1 PUSH2 0x755 JUMP JUMPDEST PUSH2 0x363 JUMP JUMPDEST STOP JUMPDEST PUSH1 0x4 PUSH0 SWAP1 SLOAD SWAP1 PUSH2 0x100 EXP SWAP1 DIV PUSH20 0xFFFFFFFFFFFFFFFFFFFFFFFFFFFFFFFFFFFFFFFF AND DUP2 JUMP JUMPDEST PUSH1 0x3 SLOAD DUP2 JUMP JUMPDEST PUSH1 0x4 PUSH0 SWAP1 SLOAD SWAP1 PUSH2 0x100 EXP SWAP1 DIV PUSH20 0xFFFFFFFFFFFFFFFFFFFFFFFFFFFFFFFFFFFFFFFF AND PUSH20 0xFFFFFFFFFFFFFFFFFFFFFFFFFFFFFFFFFFFFFFFF AND CALLER PUSH20 0xFFFFFFFFFFFFFFFFFFFFFFFFFFFFFFFFFFFFFFFF AND EQ PUSH2 0x27F JUMPI PUSH1 0x40 MLOAD PUSH32 0x8C379A000000000000000000000000000000000000000000000000000000000 DUP2 MSTORE PUSH1 0x4 ADD PUSH2 0x276 SWAP1 PUSH2 0x800 JUMP JUMPDEST PUSH1 0x40 MLOAD DUP1 SWAP2 SUB SWAP1 REVERT JUMPDEST TIMESTAMP PUSH1 0x3 DUP2 SWAP1 SSTORE POP PUSH1 0x1 DUP1 SLOAD PUSH2 0x294 SWAP2 SWAP1 PUSH2 0x84B JUMP JUMPDEST PUSH1 0x1 DUP2 SWAP1 SSTORE POP POP POP JUMP JUMPDEST PUSH1 0x1 SLOAD DUP2 JUMP JUMPDEST PUSH0 PUSH1 0x60 PUSH0 PUSH1 0x2 SLOAD PUSH1 0x3 SLOAD TIMESTAMP PUSH2 0x2B9 SWAP2 SWAP1 PUSH2 0x87E JUMP JUMPDEST GT SWAP1 POP DUP1 PUSH1 0x40 MLOAD DUP1 PUSH1 0x20 ADD PUSH1 0x40 MSTORE DUP1 PUSH0 DUP2 MSTORE POP SWAP3 POP SWAP3 POP POP SWAP3 POP SWAP3 SWAP1 POP JUMP JUMPDEST PUSH2 0x2E0 PUSH2 0x3E7 JUMP JUMPDEST PUSH2 0x2E9 PUSH0 PUSH2 0x46E JUMP JUMPDEST JUMP JUMPDEST PUSH0 DUP1 PUSH0 SWAP1 SLOAD SWAP1 PUSH2 0x100 EXP SWAP1 DIV PUSH20 0xFFFFFFFFFFFFFFFFFFFFFFFFFFFFFFFFFFFFFFFF AND SWAP1 POP SWAP1 JUMP JUMPDEST PUSH1 0x2 SLOAD DUP2 JUMP JUMPDEST PUSH2 0x320 PUSH2 0x3E7 JUMP JUMPDEST DUP1 PUSH1 0x4 PUSH0 PUSH2 0x100 EXP DUP2 SLOAD DUP2 PUSH20 0xFFFFFFFFFFFFFFFFFFFFFFFFFFFFFFFFFFFFFFFF MUL NOT AND SWAP1 DUP4 PUSH20 0xFFFFFFFFFFFFFFFFFFFFFFFFFFFFFFFFFFFFFFFF AND MUL OR SWAP1 SSTORE POP POP JUMP JUMPDEST PUSH2 0x36B PUSH2 0x3E7 JUMP JUMPDEST PUSH0 PUSH20 0xFFFFFFFFFFFFFFFFFFFFFFFFFFFFFFFFFFFFFFFF AND DUP2 PUSH20 0xFFFFFFFFFFFFFFFFFFFFFFFFFFFFFFFFFFFFFFFF AND SUB PUSH2 0x3DB JUMPI PUSH0 PUSH1 0x40 MLOAD PUSH32 0x1E4FBDF700000000000000000000000000000000000000000000000000000000 DUP2 MSTORE PUSH1 0x4 ADD PUSH2 0x3D2 SWAP2 SWAP1 PUSH2 0x575 JUMP JUMPDEST PUSH1 0x40 MLOAD DUP1 SWAP2 SUB SWAP1 REVERT JUMPDEST PUSH2 0x3E4 DUP2 PUSH2 0x46E JUMP JUMPDEST POP JUMP JUMPDEST PUSH2 0x3EF PUSH2 0x52F JUMP JUMPDEST PUSH20 0xFFFFFFFFFFFFFFFFFFFFFFFFFFFFFFFFFFFFFFFF AND PUSH2 0x40D PUSH2 0x2EB JUMP JUMPDEST PUSH20 0xFFFFFFFFFFFFFFFFFFFFFFFFFFFFFFFFFFFFFFFF AND EQ PUSH2 0x46C JUMPI PUSH2 0x430 PUSH2 0x52F JUMP JUMPDEST PUSH1 0x40 MLOAD PUSH32 0x118CDAA700000000000000000000000000000000000000000000000000000000 DUP2 MSTORE PUSH1 0x4 ADD PUSH2 0x463 SWAP2 SWAP1 PUSH2 0x575 JUMP JUMPDEST PUSH1 0x40 MLOAD DUP1 SWAP2 SUB SWAP1 REVERT JUMPDEST JUMP JUMPDEST PUSH0 DUP1 PUSH0 SWAP1 SLOAD SWAP1 PUSH2 0x100 EXP SWAP1 DIV PUSH20 0xFFFFFFFFFFFFFFFFFFFFFFFFFFFFFFFFFFFFFFFF AND SWAP1 POP DUP2 PUSH0 DUP1 PUSH2 0x100 EXP DUP2 SLOAD DUP2 PUSH20 0xFFFFFFFFFFFFFFFFFFFFFFFFFFFFFFFFFFFFFFFF MUL NOT AND SWAP1 DUP4 PUSH20 0xFFFFFFFFFFFFFFFFFFFFFFFFFFFFFFFFFFFFFFFF AND MUL OR SWAP1 SSTORE POP DUP2 PUSH20 0xFFFFFFFFFFFFFFFFFFFFFFFFFFFFFFFFFFFFFFFF AND DUP2 PUSH20 0xFFFFFFFFFFFFFFFFFFFFFFFFFFFFFFFFFFFFFFFF AND PUSH32 0x8BE0079C531659141344CD1FD0A4F28419497F9722A3DAAFE3B4186F6B6457E0 PUSH1 0x40 MLOAD PUSH1 0x40 MLOAD DUP1 SWAP2 SUB SWAP1 LOG3 POP POP JUMP JUMPDEST PUSH0 CALLER SWAP1 POP SWAP1 JUMP JUMPDEST PUSH0 PUSH20 0xFFFFFFFFFFFFFFFFFFFFFFFFFFFFFFFFFFFFFFFF DUP3 AND SWAP1 POP SWAP2 SWAP1 POP JUMP JUMPDEST PUSH0 PUSH2 0x55F DUP3 PUSH2 0x536 JUMP JUMPDEST SWAP1 POP SWAP2 SWAP1 POP JUMP JUMPDEST PUSH2 0x56F DUP2 PUSH2 0x555 JUMP JUMPDEST DUP3 MSTORE POP POP JUMP JUMPDEST PUSH0 PUSH1 0x20 DUP3 ADD SWAP1 POP PUSH2 0x588 PUSH0 DUP4 ADD DUP5 PUSH2 0x566 JUMP JUMPDEST SWAP3 SWAP2 POP POP JUMP JUMPDEST PUSH0 DUP2 SWAP1 POP SWAP2 SWAP1 POP JUMP JUMPDEST PUSH2 0x5A0 DUP2 PUSH2 0x58E JUMP JUMPDEST DUP3 MSTORE POP POP JUMP JUMPDEST PUSH0 PUSH1 0x20 DUP3 ADD SWAP1 POP PUSH2 0x5B9 PUSH0 DUP4 ADD DUP5 PUSH2 0x597 JUMP JUMPDEST SWAP3 SWAP2 POP POP JUMP JUMPDEST PUSH0 DUP1 REVERT JUMPDEST PUSH0 DUP1 REVERT JUMPDEST PUSH0 DUP1 REVERT JUMPDEST PUSH0 DUP1 REVERT JUMPDEST PUSH0 DUP1 REVERT JUMPDEST PUSH0 DUP1 DUP4 PUSH1 0x1F DUP5 ADD SLT PUSH2 0x5E8 JUMPI PUSH2 0x5E7 PUSH2 0x5C7 JUMP JUMPDEST JUMPDEST DUP3 CALLDATALOAD SWAP1 POP PUSH8 0xFFFFFFFFFFFFFFFF DUP2 GT ISZERO PUSH2 0x605 JUMPI PUSH2 0x604 PUSH2 0x5CB JUMP JUMPDEST JUMPDEST PUSH1 0x20 DUP4 ADD SWAP2 POP DUP4 PUSH1 0x1 DUP3 MUL DUP4 ADD GT ISZERO PUSH2 0x621 JUMPI PUSH2 0x620 PUSH2 0x5CF JUMP JUMPDEST JUMPDEST SWAP3 POP SWAP3 SWAP1 POP JUMP JUMPDEST PUSH0 DUP1 PUSH1 0x20 DUP4 DUP6 SUB SLT ISZERO PUSH2 0x63E JUMPI PUSH2 0x63D PUSH2 0x5BF JUMP JUMPDEST JUMPDEST PUSH0 DUP4 ADD CALLDATALOAD PUSH8 0xFFFFFFFFFFFFFFFF DUP2 GT ISZERO PUSH2 0x65B JUMPI PUSH2 0x65A PUSH2 0x5C3 JUMP JUMPDEST JUMPDEST PUSH2 0x667 DUP6 DUP3 DUP7 ADD PUSH2 0x5D3 JUMP JUMPDEST SWAP3 POP SWAP3 POP POP SWAP3 POP SWAP3 SWAP1 POP JUMP JUMPDEST PUSH0 DUP2 ISZERO ISZERO SWAP1 POP SWAP2 SWAP1 POP JUMP JUMPDEST PUSH2 0x687 DUP2 PUSH2 0x673 JUMP JUMPDEST DUP3 MSTORE POP POP JUMP JUMPDEST PUSH0 DUP2 MLOAD SWAP1 POP SWAP2 SWAP1 POP JUMP JUMPDEST PUSH0 DUP3 DUP3 MSTORE PUSH1 0x20 DUP3 ADD SWAP1 POP SWAP3 SWAP2 POP POP JUMP JUMPDEST DUP3 DUP2 DUP4 MCOPY PUSH0 DUP4 DUP4 ADD MSTORE POP POP POP JUMP JUMPDEST PUSH0 PUSH1 0x1F NOT PUSH1 0x1F DUP4 ADD AND SWAP1 POP SWAP2 SWAP1 POP JUMP JUMPDEST PUSH0 PUSH2 0x6CF DUP3 PUSH2 0x68D JUMP JUMPDEST PUSH2 0x6D9 DUP2 DUP6 PUSH2 0x697 JUMP JUMPDEST SWAP4 POP PUSH2 0x6E9 DUP2 DUP6 PUSH1 0x20 DUP7 ADD PUSH2 0x6A7 JUMP JUMPDEST PUSH2 0x6F2 DUP2 PUSH2 0x6B5 JUMP JUMPDEST DUP5 ADD SWAP2 POP POP SWAP3 SWAP2 POP POP JUMP JUMPDEST PUSH0 PUSH1 0x40 DUP3 ADD SWAP1 POP PUSH2 0x710 PUSH0 DUP4 ADD DUP6 PUSH2 0x67E JUMP JUMPDEST DUP2 DUP2 SUB PUSH1 0x20 DUP4 ADD MSTORE PUSH2 0x722 DUP2 DUP5 PUSH2 0x6C5 JUMP JUMPDEST SWAP1 POP SWAP4 SWAP3 POP POP POP JUMP JUMPDEST PUSH2 0x734 DUP2 PUSH2 0x555 JUMP JUMPDEST DUP2 EQ PUSH2 0x73E JUMPI PUSH0 DUP1 REVERT JUMPDEST POP JUMP JUMPDEST PUSH0 DUP2 CALLDATALOAD SWAP1 POP PUSH2 0x74F DUP2 PUSH2 0x72B JUMP JUMPDEST SWAP3 SWAP2 POP POP JUMP JUMPDEST PUSH0 PUSH1 0x20 DUP3 DUP5 SUB SLT ISZERO PUSH2 0x76A JUMPI PUSH2 0x769 PUSH2 0x5BF JUMP JUMPDEST JUMPDEST PUSH0 PUSH2 0x777 DUP5 DUP3 DUP6 ADD PUSH2 0x741 JUMP JUMPDEST SWAP2 POP POP SWAP3 SWAP2 POP POP JUMP JUMPDEST PUSH0 DUP3 DUP3 MSTORE PUSH1 0x20 DUP3 ADD SWAP1 POP SWAP3 SWAP2 POP POP JUMP JUMPDEST PUSH32 0x54686973206164647265737320646F6573206E6F742068617665207065726D69 PUSH0 DUP3 ADD MSTORE PUSH32 0x7373696F6E20746F2063616C6C20706572666F726D55706B6565700000000000 PUSH1 0x20 DUP3 ADD MSTORE POP JUMP JUMPDEST PUSH0 PUSH2 0x7EA PUSH1 0x3B DUP4 PUSH2 0x780 JUMP JUMPDEST SWAP2 POP PUSH2 0x7F5 DUP3 PUSH2 0x790 JUMP JUMPDEST PUSH1 0x40 DUP3 ADD SWAP1 POP SWAP2 SWAP1 POP JUMP JUMPDEST PUSH0 PUSH1 0x20 DUP3 ADD SWAP1 POP DUP2 DUP2 SUB PUSH0 DUP4 ADD MSTORE PUSH2 0x817 DUP2 PUSH2 0x7DE JUMP JUMPDEST SWAP1 POP SWAP2 SWAP1 POP JUMP JUMPDEST PUSH32 0x4E487B7100000000000000000000000000000000000000000000000000000000 PUSH0 MSTORE PUSH1 0x11 PUSH1 0x4 MSTORE PUSH1 0x24 PUSH0 REVERT JUMPDEST PUSH0 PUSH2 0x855 DUP3 PUSH2 0x58E JUMP JUMPDEST SWAP2 POP PUSH2 0x860 DUP4 PUSH2 0x58E JUMP JUMPDEST SWAP3 POP DUP3 DUP3 ADD SWAP1 POP DUP1 DUP3 GT ISZERO PUSH2 0x878 JUMPI PUSH2 0x877 PUSH2 0x81E JUMP JUMPDEST JUMPDEST SWAP3 SWAP2 POP POP JUMP JUMPDEST PUSH0 PUSH2 0x888 DUP3 PUSH2 0x58E JUMP JUMPDEST SWAP2 POP PUSH2 0x893 DUP4 PUSH2 0x58E JUMP JUMPDEST SWAP3 POP DUP3 DUP3 SUB SWAP1 POP DUP2 DUP2 GT ISZERO PUSH2 0x8AB JUMPI PUSH2 0x8AA PUSH2 0x81E JUMP JUMPDEST JUMPDEST SWAP3 SWAP2 POP POP JUMP INVALID LOG2 PUSH5 0x6970667358 0x22 SLT KECCAK256 PUSH20 0xF29564A44599B7B411E5DA29E3614411A5EEC6A0 0xF6 PUSH6 0xCDDC165DFB4E ADDMOD 0xD0 GASLIMIT PUSH5 0x736F6C6343 STOP ADDMOD BYTE STOP CALLER "
				},
				"gasEstimates": {
					"creation": {
						"codeDepositCost": "455800",
						"executionCost": "infinite",
						"totalCost": "infinite"
					},
					"external": {
						"checkUpkeep(bytes)": "infinite",
						"counter()": "2492",
						"interval()": "2469",
						"lastTimeStamp()": "2448",
						"owner()": "2537",
						"performUpkeep(bytes)": "infinite",
						"renounceOwnership()": "infinite",
						"s_forwarderAddress()": "2509",
						"setForwarderAddress(address)": "infinite",
						"transferOwnership(address)": "infinite"
					}
				},
				"methodIdentifiers": {
					"checkUpkeep(bytes)": "6e04ff0d",
					"counter()": "61bc221a",
					"interval()": "947a36fb",
					"lastTimeStamp()": "3f3b3b27",
					"owner()": "8da5cb5b",
					"performUpkeep(bytes)": "4585e33b",
					"renounceOwnership()": "715018a6",
					"s_forwarderAddress()": "3070fbf8",
					"setForwarderAddress(address)": "d777cc6d",
					"transferOwnership(address)": "f2fde38b"
				}
			},
			"storageLayout": {
				"storage": [
					{
						"astId": 53,
						"contract": "ChailLinkAutomation/Farwarder_flattened.sol:CounterwForwarder",
						"label": "_owner",
						"offset": 0,
						"slot": "0",
						"type": "t_address"
					},
					{
						"astId": 200,
						"contract": "ChailLinkAutomation/Farwarder_flattened.sol:CounterwForwarder",
						"label": "counter",
						"offset": 0,
						"slot": "1",
						"type": "t_uint256"
					},
					{
						"astId": 202,
						"contract": "ChailLinkAutomation/Farwarder_flattened.sol:CounterwForwarder",
						"label": "interval",
						"offset": 0,
						"slot": "2",
						"type": "t_uint256"
					},
					{
						"astId": 204,
						"contract": "ChailLinkAutomation/Farwarder_flattened.sol:CounterwForwarder",
						"label": "lastTimeStamp",
						"offset": 0,
						"slot": "3",
						"type": "t_uint256"
					},
					{
						"astId": 206,
						"contract": "ChailLinkAutomation/Farwarder_flattened.sol:CounterwForwarder",
						"label": "s_forwarderAddress",
						"offset": 0,
						"slot": "4",
						"type": "t_address"
					}
				],
				"types": {
					"t_address": {
						"encoding": "inplace",
						"label": "address",
						"numberOfBytes": "20"
					},
					"t_uint256": {
						"encoding": "inplace",
						"label": "uint256",
						"numberOfBytes": "32"
					}
				}
			},
			"userdoc": {
				"kind": "user",
				"methods": {},
				"notice": "THIS IS AN EXAMPLE CONTRACT THAT USES HARDCODED VALUES FOR CLARITY. THIS IS AN EXAMPLE CONTRACT THAT USES UN-AUDITED CODE. DO NOT USE THIS CODE IN PRODUCTION.",
				"version": 1
			}
		}
	}
}