{
	"FacctoryContract/WagerContract.sol": {
		"Market": {
			"abi": [
				{
					"inputs": [
						{
							"internalType": "address",
							"name": "initialOwner",
							"type": "address"
						},
						{
							"internalType": "address",
							"name": "_usdcToken",
							"type": "address"
						},
						{
							"internalType": "uint256",
							"name": "_endTime",
							"type": "uint256"
						}
					],
					"stateMutability": "nonpayable",
					"type": "constructor"
				},
				{
					"inputs": [
						{
							"internalType": "address",
							"name": "owner",
							"type": "address"
						}
					],
					"name": "OwnableInvalidOwner",
					"type": "error"
				},
				{
					"inputs": [
						{
							"internalType": "address",
							"name": "account",
							"type": "address"
						}
					],
					"name": "OwnableUnauthorizedAccount",
					"type": "error"
				},
				{
					"inputs": [
						{
							"internalType": "bool",
							"name": "sold",
							"type": "bool"
						}
					],
					"name": "alreadySold",
					"type": "error"
				},
				{
					"inputs": [
						{
							"internalType": "uint256",
							"name": "contractBalance",
							"type": "uint256"
						}
					],
					"name": "contractLowbalance",
					"type": "error"
				},
				{
					"inputs": [
						{
							"internalType": "uint256",
							"name": "contractBalance",
							"type": "uint256"
						}
					],
					"name": "contractLowbalanceForOwner",
					"type": "error"
				},
				{
					"inputs": [],
					"name": "marketResolved",
					"type": "error"
				},
				{
					"inputs": [
						{
							"internalType": "bool",
							"name": "beted",
							"type": "bool"
						}
					],
					"name": "notBet",
					"type": "error"
				},
				{
					"inputs": [
						{
							"internalType": "uint256",
							"name": "listNo",
							"type": "uint256"
						}
					],
					"name": "notListed",
					"type": "error"
				},
				{
					"inputs": [
						{
							"internalType": "uint256",
							"name": "endTime",
							"type": "uint256"
						}
					],
					"name": "notResolvedBeforeTime",
					"type": "error"
				},
				{
					"inputs": [
						{
							"internalType": "uint256",
							"name": "amount",
							"type": "uint256"
						}
					],
					"name": "wrongAmount",
					"type": "error"
				},
				{
					"inputs": [
						{
							"internalType": "uint256",
							"name": "betIndex",
							"type": "uint256"
						}
					],
					"name": "wrongBetIndex",
					"type": "error"
				},
				{
					"inputs": [
						{
							"internalType": "address",
							"name": "owner",
							"type": "address"
						}
					],
					"name": "wrongOwner",
					"type": "error"
				},
				{
					"inputs": [
						{
							"internalType": "uint256",
							"name": "price",
							"type": "uint256"
						}
					],
					"name": "wrongPrice",
					"type": "error"
				},
				{
					"anonymous": false,
					"inputs": [
						{
							"indexed": true,
							"internalType": "address",
							"name": "user",
							"type": "address"
						},
						{
							"indexed": true,
							"internalType": "uint256",
							"name": "_amount",
							"type": "uint256"
						},
						{
							"indexed": false,
							"internalType": "uint256",
							"name": "_betOn",
							"type": "uint256"
						}
					],
					"name": "Bet",
					"type": "event"
				},
				{
					"anonymous": false,
					"inputs": [
						{
							"indexed": false,
							"internalType": "address",
							"name": "buyer",
							"type": "address"
						},
						{
							"indexed": false,
							"internalType": "address",
							"name": "seller",
							"type": "address"
						},
						{
							"indexed": false,
							"internalType": "uint256",
							"name": "_amountBBuyed",
							"type": "uint256"
						},
						{
							"indexed": false,
							"internalType": "uint256",
							"name": "onPrice",
							"type": "uint256"
						}
					],
					"name": "BuyShare",
					"type": "event"
				},
				{
					"anonymous": false,
					"inputs": [
						{
							"indexed": true,
							"internalType": "address",
							"name": "previousOwner",
							"type": "address"
						},
						{
							"indexed": true,
							"internalType": "address",
							"name": "newOwner",
							"type": "address"
						}
					],
					"name": "OwnershipTransferred",
					"type": "event"
				},
				{
					"anonymous": false,
					"inputs": [
						{
							"indexed": false,
							"internalType": "address",
							"name": "ownerAddress",
							"type": "address"
						},
						{
							"indexed": false,
							"internalType": "uint256",
							"name": "ownerAmount",
							"type": "uint256"
						},
						{
							"indexed": false,
							"internalType": "uint256",
							"name": "perShareAmount",
							"type": "uint256"
						},
						{
							"indexed": false,
							"internalType": "uint256",
							"name": "winningIndex",
							"type": "uint256"
						}
					],
					"name": "ResolveMarket",
					"type": "event"
				},
				{
					"anonymous": false,
					"inputs": [
						{
							"indexed": true,
							"internalType": "address",
							"name": "user",
							"type": "address"
						},
						{
							"indexed": false,
							"internalType": "uint256",
							"name": "listNo",
							"type": "uint256"
						},
						{
							"indexed": false,
							"internalType": "uint256",
							"name": "onPrice",
							"type": "uint256"
						}
					],
					"name": "SellShare",
					"type": "event"
				},
				{
					"inputs": [
						{
							"internalType": "uint256",
							"name": "totalBetsOnNo",
							"type": "uint256"
						},
						{
							"internalType": "uint256",
							"name": "totalBetsOnYes",
							"type": "uint256"
						}
					],
					"name": "PriceCalculation",
					"outputs": [
						{
							"internalType": "uint256",
							"name": "",
							"type": "uint256"
						},
						{
							"internalType": "uint256",
							"name": "",
							"type": "uint256"
						}
					],
					"stateMutability": "view",
					"type": "function"
				},
				{
					"inputs": [
						{
							"internalType": "uint256",
							"name": "_amount",
							"type": "uint256"
						},
						{
							"internalType": "uint256",
							"name": "_betOn",
							"type": "uint256"
						}
					],
					"name": "bet",
					"outputs": [],
					"stateMutability": "nonpayable",
					"type": "function"
				},
				{
					"inputs": [
						{
							"internalType": "uint256",
							"name": "_listNo",
							"type": "uint256"
						},
						{
							"internalType": "address",
							"name": "_owner",
							"type": "address"
						}
					],
					"name": "buyShare",
					"outputs": [],
					"stateMutability": "nonpayable",
					"type": "function"
				},
				{
					"inputs": [
						{
							"internalType": "uint256",
							"name": "shares",
							"type": "uint256"
						},
						{
							"internalType": "uint256",
							"name": "_betOn",
							"type": "uint256"
						}
					],
					"name": "calculateInvestment",
					"outputs": [
						{
							"internalType": "uint256",
							"name": "",
							"type": "uint256"
						}
					],
					"stateMutability": "view",
					"type": "function"
				},
				{
					"inputs": [
						{
							"internalType": "uint256",
							"name": "_amount",
							"type": "uint256"
						},
						{
							"internalType": "uint256",
							"name": "_betOn",
							"type": "uint256"
						}
					],
					"name": "calculateShares",
					"outputs": [
						{
							"internalType": "uint256",
							"name": "",
							"type": "uint256"
						}
					],
					"stateMutability": "view",
					"type": "function"
				},
				{
					"inputs": [
						{
							"internalType": "uint256",
							"name": "",
							"type": "uint256"
						}
					],
					"name": "eachUser",
					"outputs": [
						{
							"internalType": "address",
							"name": "",
							"type": "address"
						}
					],
					"stateMutability": "view",
					"type": "function"
				},
				{
					"inputs": [],
					"name": "getInitialPrices",
					"outputs": [
						{
							"internalType": "uint256",
							"name": "",
							"type": "uint256"
						},
						{
							"internalType": "uint256",
							"name": "",
							"type": "uint256"
						}
					],
					"stateMutability": "view",
					"type": "function"
				},
				{
					"inputs": [
						{
							"internalType": "address",
							"name": "",
							"type": "address"
						}
					],
					"name": "marketInfo",
					"outputs": [
						{
							"internalType": "bool",
							"name": "resolved",
							"type": "bool"
						},
						{
							"internalType": "uint256",
							"name": "endTime",
							"type": "uint256"
						},
						{
							"internalType": "uint256",
							"name": "totalBets",
							"type": "uint256"
						},
						{
							"internalType": "uint256",
							"name": "totalAmount",
							"type": "uint256"
						},
						{
							"internalType": "uint256",
							"name": "totalBetsOnYes",
							"type": "uint256"
						},
						{
							"internalType": "uint256",
							"name": "totalBetsOnNo",
							"type": "uint256"
						}
					],
					"stateMutability": "view",
					"type": "function"
				},
				{
					"inputs": [],
					"name": "owner",
					"outputs": [
						{
							"internalType": "address",
							"name": "",
							"type": "address"
						}
					],
					"stateMutability": "view",
					"type": "function"
				},
				{
					"inputs": [
						{
							"internalType": "address",
							"name": "_owner",
							"type": "address"
						},
						{
							"internalType": "uint256",
							"name": "_id",
							"type": "uint256"
						}
					],
					"name": "readSellInfo",
					"outputs": [
						{
							"internalType": "bool",
							"name": "list",
							"type": "bool"
						},
						{
							"internalType": "bool",
							"name": "sold",
							"type": "bool"
						},
						{
							"internalType": "address",
							"name": "owner",
							"type": "address"
						},
						{
							"internalType": "uint256",
							"name": "price",
							"type": "uint256"
						},
						{
							"internalType": "uint256",
							"name": "amount",
							"type": "uint256"
						},
						{
							"internalType": "uint256",
							"name": "listOn",
							"type": "uint256"
						}
					],
					"stateMutability": "view",
					"type": "function"
				},
				{
					"inputs": [],
					"name": "renounceOwnership",
					"outputs": [],
					"stateMutability": "nonpayable",
					"type": "function"
				},
				{
					"inputs": [
						{
							"internalType": "uint256",
							"name": "winningIndex",
							"type": "uint256"
						}
					],
					"name": "resolveMarket",
					"outputs": [],
					"stateMutability": "nonpayable",
					"type": "function"
				},
				{
					"inputs": [
						{
							"internalType": "address",
							"name": "",
							"type": "address"
						},
						{
							"internalType": "uint256",
							"name": "",
							"type": "uint256"
						}
					],
					"name": "sellInfo",
					"outputs": [
						{
							"internalType": "bool",
							"name": "list",
							"type": "bool"
						},
						{
							"internalType": "bool",
							"name": "sold",
							"type": "bool"
						},
						{
							"internalType": "address",
							"name": "owner",
							"type": "address"
						},
						{
							"internalType": "uint256",
							"name": "price",
							"type": "uint256"
						},
						{
							"internalType": "uint256",
							"name": "amount",
							"type": "uint256"
						},
						{
							"internalType": "uint256",
							"name": "listOn",
							"type": "uint256"
						}
					],
					"stateMutability": "view",
					"type": "function"
				},
				{
					"inputs": [
						{
							"internalType": "uint256",
							"name": "_amount",
							"type": "uint256"
						},
						{
							"internalType": "uint256",
							"name": "_price",
							"type": "uint256"
						},
						{
							"internalType": "uint256",
							"name": "_sellOf",
							"type": "uint256"
						}
					],
					"name": "sellShare",
					"outputs": [],
					"stateMutability": "nonpayable",
					"type": "function"
				},
				{
					"inputs": [],
					"name": "totalUsers",
					"outputs": [
						{
							"internalType": "uint256",
							"name": "",
							"type": "uint256"
						}
					],
					"stateMutability": "view",
					"type": "function"
				},
				{
					"inputs": [
						{
							"internalType": "address",
							"name": "newOwner",
							"type": "address"
						}
					],
					"name": "transferOwnership",
					"outputs": [],
					"stateMutability": "nonpayable",
					"type": "function"
				},
				{
					"inputs": [],
					"name": "usdcToken",
					"outputs": [
						{
							"internalType": "contract ERC20",
							"name": "",
							"type": "address"
						}
					],
					"stateMutability": "view",
					"type": "function"
				},
				{
					"inputs": [
						{
							"internalType": "address",
							"name": "_user",
							"type": "address"
						},
						{
							"internalType": "uint256",
							"name": "_betIndex",
							"type": "uint256"
						}
					],
					"name": "userBetOn",
					"outputs": [
						{
							"internalType": "bool",
							"name": "",
							"type": "bool"
						}
					],
					"stateMutability": "view",
					"type": "function"
				},
				{
					"inputs": [
						{
							"internalType": "address",
							"name": "",
							"type": "address"
						}
					],
					"name": "userInfo",
					"outputs": [
						{
							"internalType": "uint256",
							"name": "listNo",
							"type": "uint256"
						},
						{
							"internalType": "uint256",
							"name": "noBetAmount",
							"type": "uint256"
						},
						{
							"internalType": "uint256",
							"name": "rewardAmount",
							"type": "uint256"
						},
						{
							"internalType": "uint256",
							"name": "yesBetAmount",
							"type": "uint256"
						},
						{
							"internalType": "uint256",
							"name": "shareAmount",
							"type": "uint256"
						}
					],
					"stateMutability": "view",
					"type": "function"
				}
			],
			"devdoc": {
				"errors": {
					"OwnableInvalidOwner(address)": [
						{
							"details": "The owner is not a valid owner account. (eg. `address(0)`)"
						}
					],
					"OwnableUnauthorizedAccount(address)": [
						{
							"details": "The caller account is not authorized to perform an operation."
						}
					]
				},
				"kind": "dev",
				"methods": {
					"owner()": {
						"details": "Returns the address of the current owner."
					},
					"renounceOwnership()": {
						"details": "Leaves the contract without owner. It will not be possible to call `onlyOwner` functions. Can only be called by the current owner. NOTE: Renouncing ownership will leave the contract without an owner, thereby disabling any functionality that is only available to the owner."
					},
					"transferOwnership(address)": {
						"details": "Transfers ownership of the contract to a new account (`newOwner`). Can only be called by the current owner."
					}
				},
				"version": 1
			},
			"evm": {
				"assembly": "    /* \"FacctoryContract/WagerContract.sol\":218:11761  contract Market is Ownable {... */\n  mstore(0x40, 0x80)\n    /* \"FacctoryContract/WagerContract.sol\":1959:2350  constructor(... */\n  callvalue\n  dup1\n  iszero\n  tag_1\n  jumpi\n  0x00\n  dup1\n  revert\ntag_1:\n  pop\n  mload(0x40)\n  sub(codesize, bytecodeSize)\n  dup1\n  bytecodeSize\n  dup4\n  codecopy\n  dup2\n  dup2\n  add\n  0x40\n  mstore\n  dup2\n  add\n  swap1\n  tag_2\n  swap2\n  swap1\n  tag_3\n  jump\t// in\ntag_2:\n    /* \"FacctoryContract/WagerContract.sol\":2075:2087  initialOwner */\n  dup3\n    /* \"@openzeppelin/contracts/access/Ownable.sol\":1297:1298  0 */\n  0x00\n    /* \"@openzeppelin/contracts/access/Ownable.sol\":1273:1299  initialOwner == address(0) */\n  0xffffffffffffffffffffffffffffffffffffffff\n  and\n    /* \"@openzeppelin/contracts/access/Ownable.sol\":1273:1285  initialOwner */\n  dup2\n    /* \"@openzeppelin/contracts/access/Ownable.sol\":1273:1299  initialOwner == address(0) */\n  0xffffffffffffffffffffffffffffffffffffffff\n  and\n  sub\n    /* \"@openzeppelin/contracts/access/Ownable.sol\":1269:1364  if (initialOwner == address(0)) {... */\n  tag_7\n  jumpi\n    /* \"@openzeppelin/contracts/access/Ownable.sol\":1350:1351  0 */\n  0x00\n    /* \"@openzeppelin/contracts/access/Ownable.sol\":1322:1353  OwnableInvalidOwner(address(0)) */\n  mload(0x40)\n  0x1e4fbdf700000000000000000000000000000000000000000000000000000000\n  dup2\n  mstore\n  0x04\n  add\n  tag_8\n  swap2\n  swap1\n  tag_9\n  jump\t// in\ntag_8:\n  mload(0x40)\n  dup1\n  swap2\n  sub\n  swap1\n  revert\n    /* \"@openzeppelin/contracts/access/Ownable.sol\":1269:1364  if (initialOwner == address(0)) {... */\ntag_7:\n    /* \"@openzeppelin/contracts/access/Ownable.sol\":1373:1405  _transferOwnership(initialOwner) */\n  tag_10\n    /* \"@openzeppelin/contracts/access/Ownable.sol\":1392:1404  initialOwner */\n  dup2\n    /* \"@openzeppelin/contracts/access/Ownable.sol\":1373:1391  _transferOwnership */\n  shl(0x20, tag_11)\n    /* \"@openzeppelin/contracts/access/Ownable.sol\":1373:1405  _transferOwnership(initialOwner) */\n  0x20\n  shr\n  jump\t// in\ntag_10:\n    /* \"@openzeppelin/contracts/access/Ownable.sol\":1225:1412  constructor(address initialOwner) {... */\n  pop\n    /* \"FacctoryContract/WagerContract.sol\":2140:2148  _endTime */\n  dup1\n    /* \"FacctoryContract/WagerContract.sol\":2104:2114  marketInfo */\n  0x05\n    /* \"FacctoryContract/WagerContract.sol\":2104:2129  marketInfo[address(this)] */\n  0x00\n    /* \"FacctoryContract/WagerContract.sol\":2123:2127  this */\n  address\n    /* \"FacctoryContract/WagerContract.sol\":2104:2129  marketInfo[address(this)] */\n  0xffffffffffffffffffffffffffffffffffffffff\n  and\n  0xffffffffffffffffffffffffffffffffffffffff\n  and\n  dup2\n  mstore\n  0x20\n  add\n  swap1\n  dup2\n  mstore\n  0x20\n  add\n  0x00\n  keccak256\n    /* \"FacctoryContract/WagerContract.sol\":2104:2137  marketInfo[address(this)].endTime */\n  0x01\n  add\n    /* \"FacctoryContract/WagerContract.sol\":2104:2148  marketInfo[address(this)].endTime = _endTime */\n  dup2\n  swap1\n  sstore\n  pop\n    /* \"FacctoryContract/WagerContract.sol\":2206:2224  500000000000000000 */\n  0x06f05b59d3b20000\n    /* \"FacctoryContract/WagerContract.sol\":2162:2172  marketInfo */\n  0x05\n    /* \"FacctoryContract/WagerContract.sol\":2162:2187  marketInfo[address(this)] */\n  0x00\n    /* \"FacctoryContract/WagerContract.sol\":2181:2185  this */\n  address\n    /* \"FacctoryContract/WagerContract.sol\":2162:2187  marketInfo[address(this)] */\n  0xffffffffffffffffffffffffffffffffffffffff\n  and\n  0xffffffffffffffffffffffffffffffffffffffff\n  and\n  dup2\n  mstore\n  0x20\n  add\n  swap1\n  dup2\n  mstore\n  0x20\n  add\n  0x00\n  keccak256\n    /* \"FacctoryContract/WagerContract.sol\":2162:2200  marketInfo[address(this)].initialPrice */\n  0x04\n  add\n    /* \"FacctoryContract/WagerContract.sol\":2201:2202  0 */\n  0x00\n    /* \"FacctoryContract/WagerContract.sol\":2162:2203  marketInfo[address(this)].initialPrice[0] */\n  0x02\n  dup2\n  lt\n  tag_13\n  jumpi\n  tag_14\n  tag_15\n  jump\t// in\ntag_14:\ntag_13:\n  add\n    /* \"FacctoryContract/WagerContract.sol\":2162:2224  marketInfo[address(this)].initialPrice[0] = 500000000000000000 */\n  dup2\n  swap1\n  sstore\n  pop\n    /* \"FacctoryContract/WagerContract.sol\":2282:2300  500000000000000000 */\n  0x06f05b59d3b20000\n    /* \"FacctoryContract/WagerContract.sol\":2238:2248  marketInfo */\n  0x05\n    /* \"FacctoryContract/WagerContract.sol\":2238:2263  marketInfo[address(this)] */\n  0x00\n    /* \"FacctoryContract/WagerContract.sol\":2257:2261  this */\n  address\n    /* \"FacctoryContract/WagerContract.sol\":2238:2263  marketInfo[address(this)] */\n  0xffffffffffffffffffffffffffffffffffffffff\n  and\n  0xffffffffffffffffffffffffffffffffffffffff\n  and\n  dup2\n  mstore\n  0x20\n  add\n  swap1\n  dup2\n  mstore\n  0x20\n  add\n  0x00\n  keccak256\n    /* \"FacctoryContract/WagerContract.sol\":2238:2276  marketInfo[address(this)].initialPrice */\n  0x04\n  add\n    /* \"FacctoryContract/WagerContract.sol\":2277:2278  1 */\n  0x01\n    /* \"FacctoryContract/WagerContract.sol\":2238:2279  marketInfo[address(this)].initialPrice[1] */\n  0x02\n  dup2\n  lt\n  tag_17\n  jumpi\n  tag_18\n  tag_15\n  jump\t// in\ntag_18:\ntag_17:\n  add\n    /* \"FacctoryContract/WagerContract.sol\":2238:2300  marketInfo[address(this)].initialPrice[1] = 500000000000000000 */\n  dup2\n  swap1\n  sstore\n  pop\n    /* \"FacctoryContract/WagerContract.sol\":2332:2342  _usdcToken */\n  dup2\n    /* \"FacctoryContract/WagerContract.sol\":2314:2323  usdcToken */\n  0x01\n  0x00\n    /* \"FacctoryContract/WagerContract.sol\":2314:2343  usdcToken = ERC20(_usdcToken) */\n  0x0100\n  exp\n  dup2\n  sload\n  dup2\n  0xffffffffffffffffffffffffffffffffffffffff\n  mul\n  not\n  and\n  swap1\n  dup4\n  0xffffffffffffffffffffffffffffffffffffffff\n  and\n  mul\n  or\n  swap1\n  sstore\n  pop\n    /* \"FacctoryContract/WagerContract.sol\":1959:2350  constructor(... */\n  pop\n  pop\n  pop\n    /* \"FacctoryContract/WagerContract.sol\":218:11761  contract Market is Ownable {... */\n  jump(tag_20)\n    /* \"@openzeppelin/contracts/access/Ownable.sol\":2912:3099  function _transferOwnership(address newOwner) internal virtual {... */\ntag_11:\n    /* \"@openzeppelin/contracts/access/Ownable.sol\":2985:3001  address oldOwner */\n  0x00\n    /* \"@openzeppelin/contracts/access/Ownable.sol\":3004:3010  _owner */\n  dup1\n  0x00\n  swap1\n  sload\n  swap1\n  0x0100\n  exp\n  swap1\n  div\n  0xffffffffffffffffffffffffffffffffffffffff\n  and\n    /* \"@openzeppelin/contracts/access/Ownable.sol\":2985:3010  address oldOwner = _owner */\n  swap1\n  pop\n    /* \"@openzeppelin/contracts/access/Ownable.sol\":3029:3037  newOwner */\n  dup2\n    /* \"@openzeppelin/contracts/access/Ownable.sol\":3020:3026  _owner */\n  0x00\n  dup1\n    /* \"@openzeppelin/contracts/access/Ownable.sol\":3020:3037  _owner = newOwner */\n  0x0100\n  exp\n  dup2\n  sload\n  dup2\n  0xffffffffffffffffffffffffffffffffffffffff\n  mul\n  not\n  and\n  swap1\n  dup4\n  0xffffffffffffffffffffffffffffffffffffffff\n  and\n  mul\n  or\n  swap1\n  sstore\n  pop\n    /* \"@openzeppelin/contracts/access/Ownable.sol\":3083:3091  newOwner */\n  dup2\n    /* \"@openzeppelin/contracts/access/Ownable.sol\":3052:3092  OwnershipTransferred(oldOwner, newOwner) */\n  0xffffffffffffffffffffffffffffffffffffffff\n  and\n    /* \"@openzeppelin/contracts/access/Ownable.sol\":3073:3081  oldOwner */\n  dup2\n    /* \"@openzeppelin/contracts/access/Ownable.sol\":3052:3092  OwnershipTransferred(oldOwner, newOwner) */\n  0xffffffffffffffffffffffffffffffffffffffff\n  and\n  0x8be0079c531659141344cd1fd0a4f28419497f9722a3daafe3b4186f6b6457e0\n  mload(0x40)\n  mload(0x40)\n  dup1\n  swap2\n  sub\n  swap1\n  log3\n    /* \"@openzeppelin/contracts/access/Ownable.sol\":2975:3099  {... */\n  pop\n    /* \"@openzeppelin/contracts/access/Ownable.sol\":2912:3099  function _transferOwnership(address newOwner) internal virtual {... */\n  pop\n  jump\t// out\n    /* \"#utility.yul\":88:205   */\ntag_23:\n    /* \"#utility.yul\":197:198   */\n  0x00\n    /* \"#utility.yul\":194:195   */\n  dup1\n    /* \"#utility.yul\":187:199   */\n  revert\n    /* \"#utility.yul\":334:460   */\ntag_25:\n    /* \"#utility.yul\":371:378   */\n  0x00\n    /* \"#utility.yul\":411:453   */\n  0xffffffffffffffffffffffffffffffffffffffff\n    /* \"#utility.yul\":404:409   */\n  dup3\n    /* \"#utility.yul\":400:454   */\n  and\n    /* \"#utility.yul\":389:454   */\n  swap1\n  pop\n    /* \"#utility.yul\":334:460   */\n  swap2\n  swap1\n  pop\n  jump\t// out\n    /* \"#utility.yul\":466:562   */\ntag_26:\n    /* \"#utility.yul\":503:510   */\n  0x00\n    /* \"#utility.yul\":532:556   */\n  tag_39\n    /* \"#utility.yul\":550:555   */\n  dup3\n    /* \"#utility.yul\":532:556   */\n  tag_25\n  jump\t// in\ntag_39:\n    /* \"#utility.yul\":521:556   */\n  swap1\n  pop\n    /* \"#utility.yul\":466:562   */\n  swap2\n  swap1\n  pop\n  jump\t// out\n    /* \"#utility.yul\":568:690   */\ntag_27:\n    /* \"#utility.yul\":641:665   */\n  tag_41\n    /* \"#utility.yul\":659:664   */\n  dup2\n    /* \"#utility.yul\":641:665   */\n  tag_26\n  jump\t// in\ntag_41:\n    /* \"#utility.yul\":634:639   */\n  dup2\n    /* \"#utility.yul\":631:666   */\n  eq\n    /* \"#utility.yul\":621:684   */\n  tag_42\n  jumpi\n    /* \"#utility.yul\":680:681   */\n  0x00\n    /* \"#utility.yul\":677:678   */\n  dup1\n    /* \"#utility.yul\":670:682   */\n  revert\n    /* \"#utility.yul\":621:684   */\ntag_42:\n    /* \"#utility.yul\":568:690   */\n  pop\n  jump\t// out\n    /* \"#utility.yul\":696:839   */\ntag_28:\n    /* \"#utility.yul\":753:758   */\n  0x00\n    /* \"#utility.yul\":784:790   */\n  dup2\n    /* \"#utility.yul\":778:791   */\n  mload\n    /* \"#utility.yul\":769:791   */\n  swap1\n  pop\n    /* \"#utility.yul\":800:833   */\n  tag_44\n    /* \"#utility.yul\":827:832   */\n  dup2\n    /* \"#utility.yul\":800:833   */\n  tag_27\n  jump\t// in\ntag_44:\n    /* \"#utility.yul\":696:839   */\n  swap3\n  swap2\n  pop\n  pop\n  jump\t// out\n    /* \"#utility.yul\":845:922   */\ntag_29:\n    /* \"#utility.yul\":882:889   */\n  0x00\n    /* \"#utility.yul\":911:916   */\n  dup2\n    /* \"#utility.yul\":900:916   */\n  swap1\n  pop\n    /* \"#utility.yul\":845:922   */\n  swap2\n  swap1\n  pop\n  jump\t// out\n    /* \"#utility.yul\":928:1050   */\ntag_30:\n    /* \"#utility.yul\":1001:1025   */\n  tag_47\n    /* \"#utility.yul\":1019:1024   */\n  dup2\n    /* \"#utility.yul\":1001:1025   */\n  tag_29\n  jump\t// in\ntag_47:\n    /* \"#utility.yul\":994:999   */\n  dup2\n    /* \"#utility.yul\":991:1026   */\n  eq\n    /* \"#utility.yul\":981:1044   */\n  tag_48\n  jumpi\n    /* \"#utility.yul\":1040:1041   */\n  0x00\n    /* \"#utility.yul\":1037:1038   */\n  dup1\n    /* \"#utility.yul\":1030:1042   */\n  revert\n    /* \"#utility.yul\":981:1044   */\ntag_48:\n    /* \"#utility.yul\":928:1050   */\n  pop\n  jump\t// out\n    /* \"#utility.yul\":1056:1199   */\ntag_31:\n    /* \"#utility.yul\":1113:1118   */\n  0x00\n    /* \"#utility.yul\":1144:1150   */\n  dup2\n    /* \"#utility.yul\":1138:1151   */\n  mload\n    /* \"#utility.yul\":1129:1151   */\n  swap1\n  pop\n    /* \"#utility.yul\":1160:1193   */\n  tag_50\n    /* \"#utility.yul\":1187:1192   */\n  dup2\n    /* \"#utility.yul\":1160:1193   */\n  tag_30\n  jump\t// in\ntag_50:\n    /* \"#utility.yul\":1056:1199   */\n  swap3\n  swap2\n  pop\n  pop\n  jump\t// out\n    /* \"#utility.yul\":1205:1868   */\ntag_3:\n    /* \"#utility.yul\":1293:1299   */\n  0x00\n    /* \"#utility.yul\":1301:1307   */\n  dup1\n    /* \"#utility.yul\":1309:1315   */\n  0x00\n    /* \"#utility.yul\":1358:1360   */\n  0x60\n    /* \"#utility.yul\":1346:1355   */\n  dup5\n    /* \"#utility.yul\":1337:1344   */\n  dup7\n    /* \"#utility.yul\":1333:1356   */\n  sub\n    /* \"#utility.yul\":1329:1361   */\n  slt\n    /* \"#utility.yul\":1326:1445   */\n  iszero\n  tag_52\n  jumpi\n    /* \"#utility.yul\":1364:1443   */\n  tag_53\n  tag_23\n  jump\t// in\ntag_53:\n    /* \"#utility.yul\":1326:1445   */\ntag_52:\n    /* \"#utility.yul\":1484:1485   */\n  0x00\n    /* \"#utility.yul\":1509:1573   */\n  tag_54\n    /* \"#utility.yul\":1565:1572   */\n  dup7\n    /* \"#utility.yul\":1556:1562   */\n  dup3\n    /* \"#utility.yul\":1545:1554   */\n  dup8\n    /* \"#utility.yul\":1541:1563   */\n  add\n    /* \"#utility.yul\":1509:1573   */\n  tag_28\n  jump\t// in\ntag_54:\n    /* \"#utility.yul\":1499:1573   */\n  swap4\n  pop\n    /* \"#utility.yul\":1455:1583   */\n  pop\n    /* \"#utility.yul\":1622:1624   */\n  0x20\n    /* \"#utility.yul\":1648:1712   */\n  tag_55\n    /* \"#utility.yul\":1704:1711   */\n  dup7\n    /* \"#utility.yul\":1695:1701   */\n  dup3\n    /* \"#utility.yul\":1684:1693   */\n  dup8\n    /* \"#utility.yul\":1680:1702   */\n  add\n    /* \"#utility.yul\":1648:1712   */\n  tag_28\n  jump\t// in\ntag_55:\n    /* \"#utility.yul\":1638:1712   */\n  swap3\n  pop\n    /* \"#utility.yul\":1593:1722   */\n  pop\n    /* \"#utility.yul\":1761:1763   */\n  0x40\n    /* \"#utility.yul\":1787:1851   */\n  tag_56\n    /* \"#utility.yul\":1843:1850   */\n  dup7\n    /* \"#utility.yul\":1834:1840   */\n  dup3\n    /* \"#utility.yul\":1823:1832   */\n  dup8\n    /* \"#utility.yul\":1819:1841   */\n  add\n    /* \"#utility.yul\":1787:1851   */\n  tag_31\n  jump\t// in\ntag_56:\n    /* \"#utility.yul\":1777:1851   */\n  swap2\n  pop\n    /* \"#utility.yul\":1732:1861   */\n  pop\n    /* \"#utility.yul\":1205:1868   */\n  swap3\n  pop\n  swap3\n  pop\n  swap3\n  jump\t// out\n    /* \"#utility.yul\":1874:1992   */\ntag_32:\n    /* \"#utility.yul\":1961:1985   */\n  tag_58\n    /* \"#utility.yul\":1979:1984   */\n  dup2\n    /* \"#utility.yul\":1961:1985   */\n  tag_26\n  jump\t// in\ntag_58:\n    /* \"#utility.yul\":1956:1959   */\n  dup3\n    /* \"#utility.yul\":1949:1986   */\n  mstore\n    /* \"#utility.yul\":1874:1992   */\n  pop\n  pop\n  jump\t// out\n    /* \"#utility.yul\":1998:2220   */\ntag_9:\n    /* \"#utility.yul\":2091:2095   */\n  0x00\n    /* \"#utility.yul\":2129:2131   */\n  0x20\n    /* \"#utility.yul\":2118:2127   */\n  dup3\n    /* \"#utility.yul\":2114:2132   */\n  add\n    /* \"#utility.yul\":2106:2132   */\n  swap1\n  pop\n    /* \"#utility.yul\":2142:2213   */\n  tag_60\n    /* \"#utility.yul\":2210:2211   */\n  0x00\n    /* \"#utility.yul\":2199:2208   */\n  dup4\n    /* \"#utility.yul\":2195:2212   */\n  add\n    /* \"#utility.yul\":2186:2192   */\n  dup5\n    /* \"#utility.yul\":2142:2213   */\n  tag_32\n  jump\t// in\ntag_60:\n    /* \"#utility.yul\":1998:2220   */\n  swap3\n  swap2\n  pop\n  pop\n  jump\t// out\n    /* \"#utility.yul\":2226:2406   */\ntag_15:\n    /* \"#utility.yul\":2274:2351   */\n  0x4e487b7100000000000000000000000000000000000000000000000000000000\n    /* \"#utility.yul\":2271:2272   */\n  0x00\n    /* \"#utility.yul\":2264:2352   */\n  mstore\n    /* \"#utility.yul\":2371:2375   */\n  0x32\n    /* \"#utility.yul\":2368:2369   */\n  0x04\n    /* \"#utility.yul\":2361:2376   */\n  mstore\n    /* \"#utility.yul\":2395:2399   */\n  0x24\n    /* \"#utility.yul\":2392:2393   */\n  0x00\n    /* \"#utility.yul\":2385:2400   */\n  revert\n    /* \"FacctoryContract/WagerContract.sol\":218:11761  contract Market is Ownable {... */\ntag_20:\n  dataSize(sub_0)\n  dup1\n  dataOffset(sub_0)\n  0x00\n  codecopy\n  0x00\n  return\nstop\n\nsub_0: assembly {\n        /* \"FacctoryContract/WagerContract.sol\":218:11761  contract Market is Ownable {... */\n      mstore(0x40, 0x80)\n      callvalue\n      dup1\n      iszero\n      tag_1\n      jumpi\n      0x00\n      dup1\n      revert\n    tag_1:\n      pop\n      jumpi(tag_2, lt(calldatasize, 0x04))\n      shr(0xe0, calldataload(0x00))\n      dup1\n      0x6399d03d\n      gt\n      tag_22\n      jumpi\n      dup1\n      0xb3c740e8\n      gt\n      tag_23\n      jumpi\n      dup1\n      0xb3c740e8\n      eq\n      tag_17\n      jumpi\n      dup1\n      0xbff1f9e1\n      eq\n      tag_18\n      jumpi\n      dup1\n      0xc4351386\n      eq\n      tag_19\n      jumpi\n      dup1\n      0xf2fde38b\n      eq\n      tag_20\n      jumpi\n      dup1\n      0xfbea0b06\n      eq\n      tag_21\n      jumpi\n      jump(tag_2)\n    tag_23:\n      dup1\n      0x6399d03d\n      eq\n      tag_12\n      jumpi\n      dup1\n      0x6ffcc719\n      eq\n      tag_13\n      jumpi\n      dup1\n      0x715018a6\n      eq\n      tag_14\n      jumpi\n      dup1\n      0x84b5aca6\n      eq\n      tag_15\n      jumpi\n      dup1\n      0x8da5cb5b\n      eq\n      tag_16\n      jumpi\n      jump(tag_2)\n    tag_22:\n      dup1\n      0x208c86a4\n      gt\n      tag_24\n      jumpi\n      dup1\n      0x208c86a4\n      eq\n      tag_7\n      jumpi\n      dup1\n      0x21d0d9af\n      eq\n      tag_8\n      jumpi\n      dup1\n      0x3774ca25\n      eq\n      tag_9\n      jumpi\n      dup1\n      0x456e62ba\n      eq\n      tag_10\n      jumpi\n      dup1\n      0x61d464ef\n      eq\n      tag_11\n      jumpi\n      jump(tag_2)\n    tag_24:\n      dup1\n      0x08ef962e\n      eq\n      tag_3\n      jumpi\n      dup1\n      0x0efa82f6\n      eq\n      tag_4\n      jumpi\n      dup1\n      0x11eac855\n      eq\n      tag_5\n      jumpi\n      dup1\n      0x1959a002\n      eq\n      tag_6\n      jumpi\n    tag_2:\n      0x00\n      dup1\n      revert\n        /* \"FacctoryContract/WagerContract.sol\":916:959  mapping(uint256 => address) public eachUser */\n    tag_3:\n      tag_25\n      0x04\n      dup1\n      calldatasize\n      sub\n      dup2\n      add\n      swap1\n      tag_26\n      swap2\n      swap1\n      tag_27\n      jump\t// in\n    tag_26:\n      tag_28\n      jump\t// in\n    tag_25:\n      mload(0x40)\n      tag_29\n      swap2\n      swap1\n      tag_30\n      jump\t// in\n    tag_29:\n      mload(0x40)\n      dup1\n      swap2\n      sub\n      swap1\n      return\n        /* \"FacctoryContract/WagerContract.sol\":11621:11757  function userBetOn(address _user, uint256 _betIndex) public view returns (bool) {... */\n    tag_4:\n      tag_31\n      0x04\n      dup1\n      calldatasize\n      sub\n      dup2\n      add\n      swap1\n      tag_32\n      swap2\n      swap1\n      tag_33\n      jump\t// in\n    tag_32:\n      tag_34\n      jump\t// in\n    tag_31:\n      mload(0x40)\n      tag_35\n      swap2\n      swap1\n      tag_36\n      jump\t// in\n    tag_35:\n      mload(0x40)\n      dup1\n      swap2\n      sub\n      swap1\n      return\n        /* \"FacctoryContract/WagerContract.sol\":252:274  ERC20 public usdcToken */\n    tag_5:\n      tag_37\n      tag_38\n      jump\t// in\n    tag_37:\n      mload(0x40)\n      tag_39\n      swap2\n      swap1\n      tag_40\n      jump\t// in\n    tag_39:\n      mload(0x40)\n      dup1\n      swap2\n      sub\n      swap1\n      return\n        /* \"FacctoryContract/WagerContract.sol\":965:1009  mapping(address => UserInfo) public userInfo */\n    tag_6:\n      tag_41\n      0x04\n      dup1\n      calldatasize\n      sub\n      dup2\n      add\n      swap1\n      tag_42\n      swap2\n      swap1\n      tag_43\n      jump\t// in\n    tag_42:\n      tag_44\n      jump\t// in\n    tag_41:\n      mload(0x40)\n      tag_45\n      swap6\n      swap5\n      swap4\n      swap3\n      swap2\n      swap1\n      tag_46\n      jump\t// in\n    tag_45:\n      mload(0x40)\n      dup1\n      swap2\n      sub\n      swap1\n      return\n        /* \"FacctoryContract/WagerContract.sol\":10941:11118  function getInitialPrices() public view returns (uint256, uint256) {... */\n    tag_7:\n      tag_47\n      tag_48\n      jump\t// in\n    tag_47:\n      mload(0x40)\n      tag_49\n      swap3\n      swap2\n      swap1\n      tag_50\n      jump\t// in\n    tag_49:\n      mload(0x40)\n      dup1\n      swap2\n      sub\n      swap1\n      return\n        /* \"FacctoryContract/WagerContract.sol\":3683:4437  function PriceCalculation(uint256 totalBetsOnNo, uint256 totalBetsOnYes) public view returns(uint256, uint256){... */\n    tag_8:\n      tag_51\n      0x04\n      dup1\n      calldatasize\n      sub\n      dup2\n      add\n      swap1\n      tag_52\n      swap2\n      swap1\n      tag_53\n      jump\t// in\n    tag_52:\n      tag_54\n      jump\t// in\n    tag_51:\n      mload(0x40)\n      tag_55\n      swap3\n      swap2\n      swap1\n      tag_50\n      jump\t// in\n    tag_55:\n      mload(0x40)\n      dup1\n      swap2\n      sub\n      swap1\n      return\n        /* \"FacctoryContract/WagerContract.sol\":11125:11615  function readSellInfo(address _owner, uint256 _id) public view returns (... */\n    tag_9:\n      tag_56\n      0x04\n      dup1\n      calldatasize\n      sub\n      dup2\n      add\n      swap1\n      tag_57\n      swap2\n      swap1\n      tag_33\n      jump\t// in\n    tag_57:\n      tag_58\n      jump\t// in\n    tag_56:\n      mload(0x40)\n      tag_59\n      swap7\n      swap6\n      swap5\n      swap4\n      swap3\n      swap2\n      swap1\n      tag_60\n      jump\t// in\n    tag_59:\n      mload(0x40)\n      dup1\n      swap2\n      sub\n      swap1\n      return\n        /* \"FacctoryContract/WagerContract.sol\":4446:5778  function sellShare(uint256 _amount, uint256 _price, uint256 _sellOf) external {... */\n    tag_10:\n      tag_61\n      0x04\n      dup1\n      calldatasize\n      sub\n      dup2\n      add\n      swap1\n      tag_62\n      swap2\n      swap1\n      tag_63\n      jump\t// in\n    tag_62:\n      tag_64\n      jump\t// in\n    tag_61:\n      stop\n        /* \"FacctoryContract/WagerContract.sol\":1069:1133  mapping(address => mapping(uint256 => SellInfo)) public sellInfo */\n    tag_11:\n      tag_65\n      0x04\n      dup1\n      calldatasize\n      sub\n      dup2\n      add\n      swap1\n      tag_66\n      swap2\n      swap1\n      tag_33\n      jump\t// in\n    tag_66:\n      tag_67\n      jump\t// in\n    tag_65:\n      mload(0x40)\n      tag_68\n      swap7\n      swap6\n      swap5\n      swap4\n      swap3\n      swap2\n      swap1\n      tag_60\n      jump\t// in\n    tag_68:\n      mload(0x40)\n      dup1\n      swap2\n      sub\n      swap1\n      return\n        /* \"FacctoryContract/WagerContract.sol\":7269:10066  function resolveMarket(uint256 winningIndex) external   {... */\n    tag_12:\n      tag_69\n      0x04\n      dup1\n      calldatasize\n      sub\n      dup2\n      add\n      swap1\n      tag_70\n      swap2\n      swap1\n      tag_27\n      jump\t// in\n    tag_70:\n      tag_71\n      jump\t// in\n    tag_69:\n      stop\n        /* \"FacctoryContract/WagerContract.sol\":2356:3676  function bet(uint256 _amount, uint256 _betOn) external {... */\n    tag_13:\n      tag_72\n      0x04\n      dup1\n      calldatasize\n      sub\n      dup2\n      add\n      swap1\n      tag_73\n      swap2\n      swap1\n      tag_53\n      jump\t// in\n    tag_73:\n      tag_74\n      jump\t// in\n    tag_72:\n      stop\n        /* \"@openzeppelin/contracts/access/Ownable.sol\":2293:2394  function renounceOwnership() public virtual onlyOwner {... */\n    tag_14:\n      tag_75\n      tag_76\n      jump\t// in\n    tag_75:\n      stop\n        /* \"FacctoryContract/WagerContract.sol\":10627:10935  function calculateInvestment(uint256 shares, uint256 _betOn) public view returns (uint256) {... */\n    tag_15:\n      tag_77\n      0x04\n      dup1\n      calldatasize\n      sub\n      dup2\n      add\n      swap1\n      tag_78\n      swap2\n      swap1\n      tag_53\n      jump\t// in\n    tag_78:\n      tag_79\n      jump\t// in\n    tag_77:\n      mload(0x40)\n      tag_80\n      swap2\n      swap1\n      tag_81\n      jump\t// in\n    tag_80:\n      mload(0x40)\n      dup1\n      swap2\n      sub\n      swap1\n      return\n        /* \"@openzeppelin/contracts/access/Ownable.sol\":1638:1723  function owner() public view virtual returns (address) {... */\n    tag_16:\n      tag_82\n      tag_83\n      jump\t// in\n    tag_82:\n      mload(0x40)\n      tag_84\n      swap2\n      swap1\n      tag_30\n      jump\t// in\n    tag_84:\n      mload(0x40)\n      dup1\n      swap2\n      sub\n      swap1\n      return\n        /* \"FacctoryContract/WagerContract.sol\":10077:10392  function calculateShares(uint256 _amount, uint256 _betOn ) public view returns (uint256) {... */\n    tag_17:\n      tag_85\n      0x04\n      dup1\n      calldatasize\n      sub\n      dup2\n      add\n      swap1\n      tag_86\n      swap2\n      swap1\n      tag_53\n      jump\t// in\n    tag_86:\n      tag_87\n      jump\t// in\n    tag_85:\n      mload(0x40)\n      tag_88\n      swap2\n      swap1\n      tag_81\n      jump\t// in\n    tag_88:\n      mload(0x40)\n      dup1\n      swap2\n      sub\n      swap1\n      return\n        /* \"FacctoryContract/WagerContract.sol\":884:909  uint256 public totalUsers */\n    tag_18:\n      tag_89\n      tag_90\n      jump\t// in\n    tag_89:\n      mload(0x40)\n      tag_91\n      swap2\n      swap1\n      tag_81\n      jump\t// in\n    tag_91:\n      mload(0x40)\n      dup1\n      swap2\n      sub\n      swap1\n      return\n        /* \"FacctoryContract/WagerContract.sol\":1015:1063  mapping(address => MarketInfo) public marketInfo */\n    tag_19:\n      tag_92\n      0x04\n      dup1\n      calldatasize\n      sub\n      dup2\n      add\n      swap1\n      tag_93\n      swap2\n      swap1\n      tag_43\n      jump\t// in\n    tag_93:\n      tag_94\n      jump\t// in\n    tag_92:\n      mload(0x40)\n      tag_95\n      swap7\n      swap6\n      swap5\n      swap4\n      swap3\n      swap2\n      swap1\n      tag_96\n      jump\t// in\n    tag_95:\n      mload(0x40)\n      dup1\n      swap2\n      sub\n      swap1\n      return\n        /* \"@openzeppelin/contracts/access/Ownable.sol\":2543:2758  function transferOwnership(address newOwner) public virtual onlyOwner {... */\n    tag_20:\n      tag_97\n      0x04\n      dup1\n      calldatasize\n      sub\n      dup2\n      add\n      swap1\n      tag_98\n      swap2\n      swap1\n      tag_43\n      jump\t// in\n    tag_98:\n      tag_99\n      jump\t// in\n    tag_97:\n      stop\n        /* \"FacctoryContract/WagerContract.sol\":5784:7257  function buyShare(uint256 _listNo, address _owner) external {... */\n    tag_21:\n      tag_100\n      0x04\n      dup1\n      calldatasize\n      sub\n      dup2\n      add\n      swap1\n      tag_101\n      swap2\n      swap1\n      tag_102\n      jump\t// in\n    tag_101:\n      tag_103\n      jump\t// in\n    tag_100:\n      stop\n        /* \"FacctoryContract/WagerContract.sol\":916:959  mapping(uint256 => address) public eachUser */\n    tag_28:\n      mstore(0x20, 0x03)\n      dup1\n      0x00\n      mstore\n      keccak256(0x00, 0x40)\n      0x00\n      swap2\n      pop\n      sload\n      swap1\n      0x0100\n      exp\n      swap1\n      div\n      0xffffffffffffffffffffffffffffffffffffffff\n      and\n      dup2\n      jump\t// out\n        /* \"FacctoryContract/WagerContract.sol\":11621:11757  function userBetOn(address _user, uint256 _betIndex) public view returns (bool) {... */\n    tag_34:\n        /* \"FacctoryContract/WagerContract.sol\":11695:11699  bool */\n      0x00\n        /* \"FacctoryContract/WagerContract.sol\":11718:11726  userInfo */\n      0x04\n        /* \"FacctoryContract/WagerContract.sol\":11718:11733  userInfo[_user] */\n      0x00\n        /* \"FacctoryContract/WagerContract.sol\":11727:11732  _user */\n      dup5\n        /* \"FacctoryContract/WagerContract.sol\":11718:11733  userInfo[_user] */\n      0xffffffffffffffffffffffffffffffffffffffff\n      and\n      0xffffffffffffffffffffffffffffffffffffffff\n      and\n      dup2\n      mstore\n      0x20\n      add\n      swap1\n      dup2\n      mstore\n      0x20\n      add\n      0x00\n      keccak256\n        /* \"FacctoryContract/WagerContract.sol\":11718:11739  userInfo[_user].betOn */\n      0x05\n      add\n        /* \"FacctoryContract/WagerContract.sol\":11718:11750  userInfo[_user].betOn[_betIndex] */\n      0x00\n        /* \"FacctoryContract/WagerContract.sol\":11740:11749  _betIndex */\n      dup4\n        /* \"FacctoryContract/WagerContract.sol\":11718:11750  userInfo[_user].betOn[_betIndex] */\n      dup2\n      mstore\n      0x20\n      add\n      swap1\n      dup2\n      mstore\n      0x20\n      add\n      0x00\n      keccak256\n      0x00\n      swap1\n      sload\n      swap1\n      0x0100\n      exp\n      swap1\n      div\n      0xff\n      and\n        /* \"FacctoryContract/WagerContract.sol\":11711:11750  return userInfo[_user].betOn[_betIndex] */\n      swap1\n      pop\n        /* \"FacctoryContract/WagerContract.sol\":11621:11757  function userBetOn(address _user, uint256 _betIndex) public view returns (bool) {... */\n      swap3\n      swap2\n      pop\n      pop\n      jump\t// out\n        /* \"FacctoryContract/WagerContract.sol\":252:274  ERC20 public usdcToken */\n    tag_38:\n      0x01\n      0x00\n      swap1\n      sload\n      swap1\n      0x0100\n      exp\n      swap1\n      div\n      0xffffffffffffffffffffffffffffffffffffffff\n      and\n      dup2\n      jump\t// out\n        /* \"FacctoryContract/WagerContract.sol\":965:1009  mapping(address => UserInfo) public userInfo */\n    tag_44:\n      mstore(0x20, 0x04)\n      dup1\n      0x00\n      mstore\n      keccak256(0x00, 0x40)\n      0x00\n      swap2\n      pop\n      swap1\n      pop\n      dup1\n      0x00\n      add\n      sload\n      swap1\n      dup1\n      0x01\n      add\n      sload\n      swap1\n      dup1\n      0x02\n      add\n      sload\n      swap1\n      dup1\n      0x03\n      add\n      sload\n      swap1\n      dup1\n      0x04\n      add\n      sload\n      swap1\n      pop\n      dup6\n      jump\t// out\n        /* \"FacctoryContract/WagerContract.sol\":10941:11118  function getInitialPrices() public view returns (uint256, uint256) {... */\n    tag_48:\n        /* \"FacctoryContract/WagerContract.sol\":10990:10997  uint256 */\n      0x00\n        /* \"FacctoryContract/WagerContract.sol\":10999:11006  uint256 */\n      dup1\n        /* \"FacctoryContract/WagerContract.sol\":11026:11036  marketInfo */\n      0x05\n        /* \"FacctoryContract/WagerContract.sol\":11026:11051  marketInfo[address(this)] */\n      0x00\n        /* \"FacctoryContract/WagerContract.sol\":11045:11049  this */\n      address\n        /* \"FacctoryContract/WagerContract.sol\":11026:11051  marketInfo[address(this)] */\n      0xffffffffffffffffffffffffffffffffffffffff\n      and\n      0xffffffffffffffffffffffffffffffffffffffff\n      and\n      dup2\n      mstore\n      0x20\n      add\n      swap1\n      dup2\n      mstore\n      0x20\n      add\n      0x00\n      keccak256\n        /* \"FacctoryContract/WagerContract.sol\":11026:11064  marketInfo[address(this)].initialPrice */\n      0x04\n      add\n        /* \"FacctoryContract/WagerContract.sol\":11065:11066  0 */\n      0x00\n        /* \"FacctoryContract/WagerContract.sol\":11026:11067  marketInfo[address(this)].initialPrice[0] */\n      0x02\n      dup2\n      lt\n      tag_106\n      jumpi\n      tag_107\n      tag_108\n      jump\t// in\n    tag_107:\n    tag_106:\n      add\n      sload\n        /* \"FacctoryContract/WagerContract.sol\":11069:11079  marketInfo */\n      0x05\n        /* \"FacctoryContract/WagerContract.sol\":11069:11094  marketInfo[address(this)] */\n      0x00\n        /* \"FacctoryContract/WagerContract.sol\":11088:11092  this */\n      address\n        /* \"FacctoryContract/WagerContract.sol\":11069:11094  marketInfo[address(this)] */\n      0xffffffffffffffffffffffffffffffffffffffff\n      and\n      0xffffffffffffffffffffffffffffffffffffffff\n      and\n      dup2\n      mstore\n      0x20\n      add\n      swap1\n      dup2\n      mstore\n      0x20\n      add\n      0x00\n      keccak256\n        /* \"FacctoryContract/WagerContract.sol\":11069:11107  marketInfo[address(this)].initialPrice */\n      0x04\n      add\n        /* \"FacctoryContract/WagerContract.sol\":11108:11109  1 */\n      0x01\n        /* \"FacctoryContract/WagerContract.sol\":11069:11110  marketInfo[address(this)].initialPrice[1] */\n      0x02\n      dup2\n      lt\n      tag_110\n      jumpi\n      tag_111\n      tag_108\n      jump\t// in\n    tag_111:\n    tag_110:\n      add\n      sload\n        /* \"FacctoryContract/WagerContract.sol\":11018:11111  return (marketInfo[address(this)].initialPrice[0], marketInfo[address(this)].initialPrice[1]) */\n      swap2\n      pop\n      swap2\n      pop\n        /* \"FacctoryContract/WagerContract.sol\":10941:11118  function getInitialPrices() public view returns (uint256, uint256) {... */\n      swap1\n      swap2\n      jump\t// out\n        /* \"FacctoryContract/WagerContract.sol\":3683:4437  function PriceCalculation(uint256 totalBetsOnNo, uint256 totalBetsOnYes) public view returns(uint256, uint256){... */\n    tag_54:\n        /* \"FacctoryContract/WagerContract.sol\":3776:3783  uint256 */\n      0x00\n        /* \"FacctoryContract/WagerContract.sol\":3785:3792  uint256 */\n      dup1\n        /* \"FacctoryContract/WagerContract.sol\":3813:3836  uint256 originalNoPrice */\n      0x00\n        /* \"FacctoryContract/WagerContract.sol\":3839:3849  marketInfo */\n      0x05\n        /* \"FacctoryContract/WagerContract.sol\":3839:3864  marketInfo[address(this)] */\n      0x00\n        /* \"FacctoryContract/WagerContract.sol\":3858:3862  this */\n      address\n        /* \"FacctoryContract/WagerContract.sol\":3839:3864  marketInfo[address(this)] */\n      0xffffffffffffffffffffffffffffffffffffffff\n      and\n      0xffffffffffffffffffffffffffffffffffffffff\n      and\n      dup2\n      mstore\n      0x20\n      add\n      swap1\n      dup2\n      mstore\n      0x20\n      add\n      0x00\n      keccak256\n        /* \"FacctoryContract/WagerContract.sol\":3839:3877  marketInfo[address(this)].initialPrice */\n      0x04\n      add\n        /* \"FacctoryContract/WagerContract.sol\":3878:3879  0 */\n      0x00\n        /* \"FacctoryContract/WagerContract.sol\":3839:3880  marketInfo[address(this)].initialPrice[0] */\n      0x02\n      dup2\n      lt\n      tag_114\n      jumpi\n      tag_115\n      tag_108\n      jump\t// in\n    tag_115:\n    tag_114:\n      add\n      sload\n        /* \"FacctoryContract/WagerContract.sol\":3813:3880  uint256 originalNoPrice = marketInfo[address(this)].initialPrice[0] */\n      swap1\n      pop\n        /* \"FacctoryContract/WagerContract.sol\":3891:3915  uint256 originalYesPrice */\n      0x00\n        /* \"FacctoryContract/WagerContract.sol\":3918:3928  marketInfo */\n      0x05\n        /* \"FacctoryContract/WagerContract.sol\":3918:3943  marketInfo[address(this)] */\n      0x00\n        /* \"FacctoryContract/WagerContract.sol\":3937:3941  this */\n      address\n        /* \"FacctoryContract/WagerContract.sol\":3918:3943  marketInfo[address(this)] */\n      0xffffffffffffffffffffffffffffffffffffffff\n      and\n      0xffffffffffffffffffffffffffffffffffffffff\n      and\n      dup2\n      mstore\n      0x20\n      add\n      swap1\n      dup2\n      mstore\n      0x20\n      add\n      0x00\n      keccak256\n        /* \"FacctoryContract/WagerContract.sol\":3918:3956  marketInfo[address(this)].initialPrice */\n      0x04\n      add\n        /* \"FacctoryContract/WagerContract.sol\":3957:3958  1 */\n      0x01\n        /* \"FacctoryContract/WagerContract.sol\":3918:3959  marketInfo[address(this)].initialPrice[1] */\n      0x02\n      dup2\n      lt\n      tag_117\n      jumpi\n      tag_118\n      tag_108\n      jump\t// in\n    tag_118:\n    tag_117:\n      add\n      sload\n        /* \"FacctoryContract/WagerContract.sol\":3891:3959  uint256 originalYesPrice = marketInfo[address(this)].initialPrice[1] */\n      swap1\n      pop\n        /* \"FacctoryContract/WagerContract.sol\":3980:3997  uint256 totalBets */\n      0x00\n        /* \"FacctoryContract/WagerContract.sol\":4016:4030  totalBetsOnYes */\n      dup6\n        /* \"FacctoryContract/WagerContract.sol\":4000:4013  totalBetsOnNo */\n      dup8\n        /* \"FacctoryContract/WagerContract.sol\":4000:4030  totalBetsOnNo + totalBetsOnYes */\n      tag_120\n      swap2\n      swap1\n      tag_121\n      jump\t// in\n    tag_120:\n        /* \"FacctoryContract/WagerContract.sol\":3980:4030  uint256 totalBets = totalBetsOnNo + totalBetsOnYes */\n      swap1\n      pop\n        /* \"FacctoryContract/WagerContract.sol\":4061:4062  0 */\n      0x00\n        /* \"FacctoryContract/WagerContract.sol\":4044:4057  totalBetsOnNo */\n      dup8\n        /* \"FacctoryContract/WagerContract.sol\":4044:4062  totalBetsOnNo != 0 */\n      eq\n        /* \"FacctoryContract/WagerContract.sol\":4041:4204  if(totalBetsOnNo != 0){... */\n      tag_122\n      jumpi\n        /* \"FacctoryContract/WagerContract.sol\":4132:4141  totalBets */\n      dup1\n        /* \"FacctoryContract/WagerContract.sol\":4126:4129  100 */\n      0x64\n        /* \"FacctoryContract/WagerContract.sol\":4110:4123  totalBetsOnNo */\n      dup9\n        /* \"FacctoryContract/WagerContract.sol\":4110:4129  totalBetsOnNo * 100 */\n      tag_123\n      swap2\n      swap1\n      tag_124\n      jump\t// in\n    tag_123:\n        /* \"FacctoryContract/WagerContract.sol\":4109:4142  (totalBetsOnNo * 100)/(totalBets) */\n      tag_125\n      swap2\n      swap1\n      tag_126\n      jump\t// in\n    tag_125:\n        /* \"FacctoryContract/WagerContract.sol\":4090:4143  originalNoPrice = ((totalBetsOnNo * 100)/(totalBets)) */\n      swap3\n      pop\n        /* \"FacctoryContract/WagerContract.sol\":4176:4193  10000000000000000 */\n      0x2386f26fc10000\n        /* \"FacctoryContract/WagerContract.sol\":4157:4193  originalNoPrice *= 10000000000000000 */\n      dup4\n      tag_127\n      swap2\n      swap1\n      tag_124\n      jump\t// in\n    tag_127:\n      swap3\n      pop\n        /* \"FacctoryContract/WagerContract.sol\":4041:4204  if(totalBetsOnNo != 0){... */\n    tag_122:\n        /* \"FacctoryContract/WagerContract.sol\":4234:4235  0 */\n      0x00\n        /* \"FacctoryContract/WagerContract.sol\":4216:4230  totalBetsOnYes */\n      dup7\n        /* \"FacctoryContract/WagerContract.sol\":4216:4235  totalBetsOnYes != 0 */\n      eq\n        /* \"FacctoryContract/WagerContract.sol\":4213:4379  if(totalBetsOnYes != 0){... */\n      tag_128\n      jumpi\n        /* \"FacctoryContract/WagerContract.sol\":4306:4315  totalBets */\n      dup1\n        /* \"FacctoryContract/WagerContract.sol\":4300:4303  100 */\n      0x64\n        /* \"FacctoryContract/WagerContract.sol\":4283:4297  totalBetsOnYes */\n      dup8\n        /* \"FacctoryContract/WagerContract.sol\":4283:4303  totalBetsOnYes * 100 */\n      tag_129\n      swap2\n      swap1\n      tag_124\n      jump\t// in\n    tag_129:\n        /* \"FacctoryContract/WagerContract.sol\":4282:4316  (totalBetsOnYes * 100)/(totalBets) */\n      tag_130\n      swap2\n      swap1\n      tag_126\n      jump\t// in\n    tag_130:\n        /* \"FacctoryContract/WagerContract.sol\":4262:4317  originalYesPrice = ((totalBetsOnYes * 100)/(totalBets)) */\n      swap2\n      pop\n        /* \"FacctoryContract/WagerContract.sol\":4351:4368  10000000000000000 */\n      0x2386f26fc10000\n        /* \"FacctoryContract/WagerContract.sol\":4331:4368  originalYesPrice *= 10000000000000000 */\n      dup3\n      tag_131\n      swap2\n      swap1\n      tag_124\n      jump\t// in\n    tag_131:\n      swap2\n      pop\n        /* \"FacctoryContract/WagerContract.sol\":4213:4379  if(totalBetsOnYes != 0){... */\n    tag_128:\n        /* \"FacctoryContract/WagerContract.sol\":4396:4411  originalNoPrice */\n      dup3\n        /* \"FacctoryContract/WagerContract.sol\":4413:4429  originalYesPrice */\n      dup3\n        /* \"FacctoryContract/WagerContract.sol\":4389:4430  return(originalNoPrice, originalYesPrice) */\n      swap5\n      pop\n      swap5\n      pop\n      pop\n      pop\n      pop\n        /* \"FacctoryContract/WagerContract.sol\":3683:4437  function PriceCalculation(uint256 totalBetsOnNo, uint256 totalBetsOnYes) public view returns(uint256, uint256){... */\n      swap3\n      pop\n      swap3\n      swap1\n      pop\n      jump\t// out\n        /* \"FacctoryContract/WagerContract.sol\":11125:11615  function readSellInfo(address _owner, uint256 _id) public view returns (... */\n    tag_58:\n        /* \"FacctoryContract/WagerContract.sol\":11206:11215  bool list */\n      0x00\n        /* \"FacctoryContract/WagerContract.sol\":11225:11234  bool sold */\n      dup1\n        /* \"FacctoryContract/WagerContract.sol\":11244:11257  address owner */\n      0x00\n        /* \"FacctoryContract/WagerContract.sol\":11267:11280  uint256 price */\n      dup1\n        /* \"FacctoryContract/WagerContract.sol\":11290:11304  uint256 amount */\n      0x00\n        /* \"FacctoryContract/WagerContract.sol\":11314:11328  uint256 listOn */\n      dup1\n        /* \"FacctoryContract/WagerContract.sol\":11366:11374  sellInfo */\n      0x06\n        /* \"FacctoryContract/WagerContract.sol\":11366:11382  sellInfo[_owner] */\n      0x00\n        /* \"FacctoryContract/WagerContract.sol\":11375:11381  _owner */\n      dup10\n        /* \"FacctoryContract/WagerContract.sol\":11366:11382  sellInfo[_owner] */\n      0xffffffffffffffffffffffffffffffffffffffff\n      and\n      0xffffffffffffffffffffffffffffffffffffffff\n      and\n      dup2\n      mstore\n      0x20\n      add\n      swap1\n      dup2\n      mstore\n      0x20\n      add\n      0x00\n      keccak256\n        /* \"FacctoryContract/WagerContract.sol\":11366:11387  sellInfo[_owner][_id] */\n      0x00\n        /* \"FacctoryContract/WagerContract.sol\":11383:11386  _id */\n      dup9\n        /* \"FacctoryContract/WagerContract.sol\":11366:11387  sellInfo[_owner][_id] */\n      dup2\n      mstore\n      0x20\n      add\n      swap1\n      dup2\n      mstore\n      0x20\n      add\n      0x00\n      keccak256\n        /* \"FacctoryContract/WagerContract.sol\":11366:11392  sellInfo[_owner][_id].list */\n      0x00\n      add\n      0x00\n      swap1\n      sload\n      swap1\n      0x0100\n      exp\n      swap1\n      div\n      0xff\n      and\n        /* \"FacctoryContract/WagerContract.sol\":11406:11414  sellInfo */\n      0x06\n        /* \"FacctoryContract/WagerContract.sol\":11406:11422  sellInfo[_owner] */\n      0x00\n        /* \"FacctoryContract/WagerContract.sol\":11415:11421  _owner */\n      dup11\n        /* \"FacctoryContract/WagerContract.sol\":11406:11422  sellInfo[_owner] */\n      0xffffffffffffffffffffffffffffffffffffffff\n      and\n      0xffffffffffffffffffffffffffffffffffffffff\n      and\n      dup2\n      mstore\n      0x20\n      add\n      swap1\n      dup2\n      mstore\n      0x20\n      add\n      0x00\n      keccak256\n        /* \"FacctoryContract/WagerContract.sol\":11406:11427  sellInfo[_owner][_id] */\n      0x00\n        /* \"FacctoryContract/WagerContract.sol\":11423:11426  _id */\n      dup10\n        /* \"FacctoryContract/WagerContract.sol\":11406:11427  sellInfo[_owner][_id] */\n      dup2\n      mstore\n      0x20\n      add\n      swap1\n      dup2\n      mstore\n      0x20\n      add\n      0x00\n      keccak256\n        /* \"FacctoryContract/WagerContract.sol\":11406:11432  sellInfo[_owner][_id].sold */\n      0x00\n      add\n      0x01\n      swap1\n      sload\n      swap1\n      0x0100\n      exp\n      swap1\n      div\n      0xff\n      and\n        /* \"FacctoryContract/WagerContract.sol\":11446:11454  sellInfo */\n      0x06\n        /* \"FacctoryContract/WagerContract.sol\":11446:11462  sellInfo[_owner] */\n      0x00\n        /* \"FacctoryContract/WagerContract.sol\":11455:11461  _owner */\n      dup12\n        /* \"FacctoryContract/WagerContract.sol\":11446:11462  sellInfo[_owner] */\n      0xffffffffffffffffffffffffffffffffffffffff\n      and\n      0xffffffffffffffffffffffffffffffffffffffff\n      and\n      dup2\n      mstore\n      0x20\n      add\n      swap1\n      dup2\n      mstore\n      0x20\n      add\n      0x00\n      keccak256\n        /* \"FacctoryContract/WagerContract.sol\":11446:11467  sellInfo[_owner][_id] */\n      0x00\n        /* \"FacctoryContract/WagerContract.sol\":11463:11466  _id */\n      dup11\n        /* \"FacctoryContract/WagerContract.sol\":11446:11467  sellInfo[_owner][_id] */\n      dup2\n      mstore\n      0x20\n      add\n      swap1\n      dup2\n      mstore\n      0x20\n      add\n      0x00\n      keccak256\n        /* \"FacctoryContract/WagerContract.sol\":11446:11473  sellInfo[_owner][_id].owner */\n      0x00\n      add\n      0x02\n      swap1\n      sload\n      swap1\n      0x0100\n      exp\n      swap1\n      div\n      0xffffffffffffffffffffffffffffffffffffffff\n      and\n        /* \"FacctoryContract/WagerContract.sol\":11487:11495  sellInfo */\n      0x06\n        /* \"FacctoryContract/WagerContract.sol\":11487:11503  sellInfo[_owner] */\n      0x00\n        /* \"FacctoryContract/WagerContract.sol\":11496:11502  _owner */\n      dup13\n        /* \"FacctoryContract/WagerContract.sol\":11487:11503  sellInfo[_owner] */\n      0xffffffffffffffffffffffffffffffffffffffff\n      and\n      0xffffffffffffffffffffffffffffffffffffffff\n      and\n      dup2\n      mstore\n      0x20\n      add\n      swap1\n      dup2\n      mstore\n      0x20\n      add\n      0x00\n      keccak256\n        /* \"FacctoryContract/WagerContract.sol\":11487:11508  sellInfo[_owner][_id] */\n      0x00\n        /* \"FacctoryContract/WagerContract.sol\":11504:11507  _id */\n      dup12\n        /* \"FacctoryContract/WagerContract.sol\":11487:11508  sellInfo[_owner][_id] */\n      dup2\n      mstore\n      0x20\n      add\n      swap1\n      dup2\n      mstore\n      0x20\n      add\n      0x00\n      keccak256\n        /* \"FacctoryContract/WagerContract.sol\":11487:11514  sellInfo[_owner][_id].price */\n      0x01\n      add\n      sload\n        /* \"FacctoryContract/WagerContract.sol\":11528:11536  sellInfo */\n      0x06\n        /* \"FacctoryContract/WagerContract.sol\":11528:11544  sellInfo[_owner] */\n      0x00\n        /* \"FacctoryContract/WagerContract.sol\":11537:11543  _owner */\n      dup14\n        /* \"FacctoryContract/WagerContract.sol\":11528:11544  sellInfo[_owner] */\n      0xffffffffffffffffffffffffffffffffffffffff\n      and\n      0xffffffffffffffffffffffffffffffffffffffff\n      and\n      dup2\n      mstore\n      0x20\n      add\n      swap1\n      dup2\n      mstore\n      0x20\n      add\n      0x00\n      keccak256\n        /* \"FacctoryContract/WagerContract.sol\":11528:11549  sellInfo[_owner][_id] */\n      0x00\n        /* \"FacctoryContract/WagerContract.sol\":11545:11548  _id */\n      dup13\n        /* \"FacctoryContract/WagerContract.sol\":11528:11549  sellInfo[_owner][_id] */\n      dup2\n      mstore\n      0x20\n      add\n      swap1\n      dup2\n      mstore\n      0x20\n      add\n      0x00\n      keccak256\n        /* \"FacctoryContract/WagerContract.sol\":11528:11556  sellInfo[_owner][_id].amount */\n      0x02\n      add\n      sload\n        /* \"FacctoryContract/WagerContract.sol\":11570:11578  sellInfo */\n      0x06\n        /* \"FacctoryContract/WagerContract.sol\":11570:11586  sellInfo[_owner] */\n      0x00\n        /* \"FacctoryContract/WagerContract.sol\":11579:11585  _owner */\n      dup15\n        /* \"FacctoryContract/WagerContract.sol\":11570:11586  sellInfo[_owner] */\n      0xffffffffffffffffffffffffffffffffffffffff\n      and\n      0xffffffffffffffffffffffffffffffffffffffff\n      and\n      dup2\n      mstore\n      0x20\n      add\n      swap1\n      dup2\n      mstore\n      0x20\n      add\n      0x00\n      keccak256\n        /* \"FacctoryContract/WagerContract.sol\":11570:11591  sellInfo[_owner][_id] */\n      0x00\n        /* \"FacctoryContract/WagerContract.sol\":11587:11590  _id */\n      dup14\n        /* \"FacctoryContract/WagerContract.sol\":11570:11591  sellInfo[_owner][_id] */\n      dup2\n      mstore\n      0x20\n      add\n      swap1\n      dup2\n      mstore\n      0x20\n      add\n      0x00\n      keccak256\n        /* \"FacctoryContract/WagerContract.sol\":11570:11598  sellInfo[_owner][_id].listOn */\n      0x03\n      add\n      sload\n        /* \"FacctoryContract/WagerContract.sol\":11345:11608  return (... */\n      swap6\n      pop\n      swap6\n      pop\n      swap6\n      pop\n      swap6\n      pop\n      swap6\n      pop\n      swap6\n      pop\n        /* \"FacctoryContract/WagerContract.sol\":11125:11615  function readSellInfo(address _owner, uint256 _id) public view returns (... */\n      swap3\n      swap6\n      pop\n      swap3\n      swap6\n      pop\n      swap3\n      swap6\n      jump\t// out\n        /* \"FacctoryContract/WagerContract.sol\":4446:5778  function sellShare(uint256 _amount, uint256 _price, uint256 _sellOf) external {... */\n    tag_64:\n        /* \"FacctoryContract/WagerContract.sol\":4557:4558  0 */\n      0x00\n        /* \"FacctoryContract/WagerContract.sol\":4546:4553  _sellOf */\n      dup2\n        /* \"FacctoryContract/WagerContract.sol\":4546:4558  _sellOf != 0 */\n      eq\n      iszero\n        /* \"FacctoryContract/WagerContract.sol\":4546:4574  _sellOf != 0 && _sellOf != 1 */\n      dup1\n      iszero\n      tag_134\n      jumpi\n      pop\n        /* \"FacctoryContract/WagerContract.sol\":4573:4574  1 */\n      0x01\n        /* \"FacctoryContract/WagerContract.sol\":4562:4569  _sellOf */\n      dup2\n        /* \"FacctoryContract/WagerContract.sol\":4562:4574  _sellOf != 1 */\n      eq\n      iszero\n        /* \"FacctoryContract/WagerContract.sol\":4546:4574  _sellOf != 0 && _sellOf != 1 */\n    tag_134:\n        /* \"FacctoryContract/WagerContract.sol\":4543:4629  if(_sellOf != 0 && _sellOf != 1){... */\n      iszero\n      tag_135\n      jumpi\n        /* \"FacctoryContract/WagerContract.sol\":4610:4617  _sellOf */\n      dup1\n        /* \"FacctoryContract/WagerContract.sol\":4596:4618  wrongBetIndex(_sellOf) */\n      mload(0x40)\n      0xd7acbe8900000000000000000000000000000000000000000000000000000000\n      dup2\n      mstore\n      0x04\n      add\n      tag_136\n      swap2\n      swap1\n      tag_81\n      jump\t// in\n    tag_136:\n      mload(0x40)\n      dup1\n      swap2\n      sub\n      swap1\n      revert\n        /* \"FacctoryContract/WagerContract.sol\":4543:4629  if(_sellOf != 0 && _sellOf != 1){... */\n    tag_135:\n        /* \"FacctoryContract/WagerContract.sol\":4652:4653  0 */\n      0x00\n        /* \"FacctoryContract/WagerContract.sol\":4641:4648  _amount */\n      dup4\n        /* \"FacctoryContract/WagerContract.sol\":4641:4653  _amount <= 0 */\n      gt\n        /* \"FacctoryContract/WagerContract.sol\":4638:4706  if(_amount <= 0){... */\n      tag_137\n      jumpi\n        /* \"FacctoryContract/WagerContract.sol\":4687:4694  _amount */\n      dup3\n        /* \"FacctoryContract/WagerContract.sol\":4675:4695  wrongAmount(_amount) */\n      mload(0x40)\n      0x2ff4783000000000000000000000000000000000000000000000000000000000\n      dup2\n      mstore\n      0x04\n      add\n      tag_138\n      swap2\n      swap1\n      tag_81\n      jump\t// in\n    tag_138:\n      mload(0x40)\n      dup1\n      swap2\n      sub\n      swap1\n      revert\n        /* \"FacctoryContract/WagerContract.sol\":4638:4706  if(_amount <= 0){... */\n    tag_137:\n        /* \"FacctoryContract/WagerContract.sol\":4727:4737  marketInfo */\n      0x05\n        /* \"FacctoryContract/WagerContract.sol\":4727:4752  marketInfo[address(this)] */\n      0x00\n        /* \"FacctoryContract/WagerContract.sol\":4746:4750  this */\n      address\n        /* \"FacctoryContract/WagerContract.sol\":4727:4752  marketInfo[address(this)] */\n      0xffffffffffffffffffffffffffffffffffffffff\n      and\n      0xffffffffffffffffffffffffffffffffffffffff\n      and\n      dup2\n      mstore\n      0x20\n      add\n      swap1\n      dup2\n      mstore\n      0x20\n      add\n      0x00\n      keccak256\n        /* \"FacctoryContract/WagerContract.sol\":4727:4761  marketInfo[address(this)].resolved */\n      0x00\n      add\n      0x00\n      swap1\n      sload\n      swap1\n      0x0100\n      exp\n      swap1\n      div\n      0xff\n      and\n        /* \"FacctoryContract/WagerContract.sol\":4724:4810  if(marketInfo[address(this)].resolved){... */\n      iszero\n      tag_139\n      jumpi\n        /* \"FacctoryContract/WagerContract.sol\":4783:4799  marketResolved() */\n      mload(0x40)\n      0x853fd42100000000000000000000000000000000000000000000000000000000\n      dup2\n      mstore\n      0x04\n      add\n      mload(0x40)\n      dup1\n      swap2\n      sub\n      swap1\n      revert\n        /* \"FacctoryContract/WagerContract.sol\":4724:4810  if(marketInfo[address(this)].resolved){... */\n    tag_139:\n        /* \"FacctoryContract/WagerContract.sol\":4824:4832  userInfo */\n      0x04\n        /* \"FacctoryContract/WagerContract.sol\":4824:4844  userInfo[msg.sender] */\n      0x00\n        /* \"FacctoryContract/WagerContract.sol\":4833:4843  msg.sender */\n      caller\n        /* \"FacctoryContract/WagerContract.sol\":4824:4844  userInfo[msg.sender] */\n      0xffffffffffffffffffffffffffffffffffffffff\n      and\n      0xffffffffffffffffffffffffffffffffffffffff\n      and\n      dup2\n      mstore\n      0x20\n      add\n      swap1\n      dup2\n      mstore\n      0x20\n      add\n      0x00\n      keccak256\n        /* \"FacctoryContract/WagerContract.sol\":4824:4850  userInfo[msg.sender].betOn */\n      0x05\n      add\n        /* \"FacctoryContract/WagerContract.sol\":4824:4859  userInfo[msg.sender].betOn[_sellOf] */\n      0x00\n        /* \"FacctoryContract/WagerContract.sol\":4851:4858  _sellOf */\n      dup3\n        /* \"FacctoryContract/WagerContract.sol\":4824:4859  userInfo[msg.sender].betOn[_sellOf] */\n      dup2\n      mstore\n      0x20\n      add\n      swap1\n      dup2\n      mstore\n      0x20\n      add\n      0x00\n      keccak256\n      0x00\n      swap1\n      sload\n      swap1\n      0x0100\n      exp\n      swap1\n      div\n      0xff\n      and\n        /* \"FacctoryContract/WagerContract.sol\":4820:4935  if(!userInfo[msg.sender].betOn[_sellOf]){... */\n      tag_140\n      jumpi\n        /* \"FacctoryContract/WagerContract.sol\":4888:4896  userInfo */\n      0x04\n        /* \"FacctoryContract/WagerContract.sol\":4888:4908  userInfo[msg.sender] */\n      0x00\n        /* \"FacctoryContract/WagerContract.sol\":4897:4907  msg.sender */\n      caller\n        /* \"FacctoryContract/WagerContract.sol\":4888:4908  userInfo[msg.sender] */\n      0xffffffffffffffffffffffffffffffffffffffff\n      and\n      0xffffffffffffffffffffffffffffffffffffffff\n      and\n      dup2\n      mstore\n      0x20\n      add\n      swap1\n      dup2\n      mstore\n      0x20\n      add\n      0x00\n      keccak256\n        /* \"FacctoryContract/WagerContract.sol\":4888:4914  userInfo[msg.sender].betOn */\n      0x05\n      add\n        /* \"FacctoryContract/WagerContract.sol\":4888:4923  userInfo[msg.sender].betOn[_sellOf] */\n      0x00\n        /* \"FacctoryContract/WagerContract.sol\":4915:4922  _sellOf */\n      dup3\n        /* \"FacctoryContract/WagerContract.sol\":4888:4923  userInfo[msg.sender].betOn[_sellOf] */\n      dup2\n      mstore\n      0x20\n      add\n      swap1\n      dup2\n      mstore\n      0x20\n      add\n      0x00\n      keccak256\n      0x00\n      swap1\n      sload\n      swap1\n      0x0100\n      exp\n      swap1\n      div\n      0xff\n      and\n        /* \"FacctoryContract/WagerContract.sol\":4881:4924  notBet(userInfo[msg.sender].betOn[_sellOf]) */\n      mload(0x40)\n      0x3c3a312800000000000000000000000000000000000000000000000000000000\n      dup2\n      mstore\n      0x04\n      add\n      tag_141\n      swap2\n      swap1\n      tag_36\n      jump\t// in\n    tag_141:\n      mload(0x40)\n      dup1\n      swap2\n      sub\n      swap1\n      revert\n        /* \"FacctoryContract/WagerContract.sol\":4820:4935  if(!userInfo[msg.sender].betOn[_sellOf]){... */\n    tag_140:\n        /* \"FacctoryContract/WagerContract.sol\":4957:4958  0 */\n      0x00\n        /* \"FacctoryContract/WagerContract.sol\":4947:4953  _price */\n      dup3\n        /* \"FacctoryContract/WagerContract.sol\":4947:4958  _price <= 0 */\n      gt\n        /* \"FacctoryContract/WagerContract.sol\":4944:5009  if(_price <= 0){... */\n      tag_142\n      jumpi\n        /* \"FacctoryContract/WagerContract.sol\":4991:4997  _price */\n      dup2\n        /* \"FacctoryContract/WagerContract.sol\":4980:4998  wrongPrice(_price) */\n      mload(0x40)\n      0xbfc1948200000000000000000000000000000000000000000000000000000000\n      dup2\n      mstore\n      0x04\n      add\n      tag_143\n      swap2\n      swap1\n      tag_81\n      jump\t// in\n    tag_143:\n      mload(0x40)\n      dup1\n      swap2\n      sub\n      swap1\n      revert\n        /* \"FacctoryContract/WagerContract.sol\":4944:5009  if(_price <= 0){... */\n    tag_142:\n        /* \"FacctoryContract/WagerContract.sol\":5041:5042  0 */\n      0x00\n        /* \"FacctoryContract/WagerContract.sol\":5030:5037  _sellOf */\n      dup2\n        /* \"FacctoryContract/WagerContract.sol\":5030:5042  _sellOf == 0 */\n      sub\n        /* \"FacctoryContract/WagerContract.sol\":5027:5258  if(_sellOf == 0){... */\n      tag_144\n      jumpi\n        /* \"FacctoryContract/WagerContract.sol\":5077:5085  userInfo */\n      0x04\n        /* \"FacctoryContract/WagerContract.sol\":5077:5097  userInfo[msg.sender] */\n      0x00\n        /* \"FacctoryContract/WagerContract.sol\":5086:5096  msg.sender */\n      caller\n        /* \"FacctoryContract/WagerContract.sol\":5077:5097  userInfo[msg.sender] */\n      0xffffffffffffffffffffffffffffffffffffffff\n      and\n      0xffffffffffffffffffffffffffffffffffffffff\n      and\n      dup2\n      mstore\n      0x20\n      add\n      swap1\n      dup2\n      mstore\n      0x20\n      add\n      0x00\n      keccak256\n        /* \"FacctoryContract/WagerContract.sol\":5077:5109  userInfo[msg.sender].noBetAmount */\n      0x01\n      add\n      sload\n        /* \"FacctoryContract/WagerContract.sol\":5066:5073  _amount */\n      dup4\n        /* \"FacctoryContract/WagerContract.sol\":5066:5109  _amount <= userInfo[msg.sender].noBetAmount */\n      gt\n      iszero\n        /* \"FacctoryContract/WagerContract.sol\":5058:5131  require(_amount <= userInfo[msg.sender].noBetAmount, \"not enough Amount\") */\n      tag_145\n      jumpi\n      mload(0x40)\n      0x08c379a000000000000000000000000000000000000000000000000000000000\n      dup2\n      mstore\n      0x04\n      add\n      tag_146\n      swap1\n      tag_147\n      jump\t// in\n    tag_146:\n      mload(0x40)\n      dup1\n      swap2\n      sub\n      swap1\n      revert\n    tag_145:\n        /* \"FacctoryContract/WagerContract.sol\":5027:5258  if(_sellOf == 0){... */\n      jump(tag_148)\n    tag_144:\n        /* \"FacctoryContract/WagerContract.sol\":5192:5200  userInfo */\n      0x04\n        /* \"FacctoryContract/WagerContract.sol\":5192:5212  userInfo[msg.sender] */\n      0x00\n        /* \"FacctoryContract/WagerContract.sol\":5201:5211  msg.sender */\n      caller\n        /* \"FacctoryContract/WagerContract.sol\":5192:5212  userInfo[msg.sender] */\n      0xffffffffffffffffffffffffffffffffffffffff\n      and\n      0xffffffffffffffffffffffffffffffffffffffff\n      and\n      dup2\n      mstore\n      0x20\n      add\n      swap1\n      dup2\n      mstore\n      0x20\n      add\n      0x00\n      keccak256\n        /* \"FacctoryContract/WagerContract.sol\":5192:5225  userInfo[msg.sender].yesBetAmount */\n      0x03\n      add\n      sload\n        /* \"FacctoryContract/WagerContract.sol\":5181:5188  _amount */\n      dup4\n        /* \"FacctoryContract/WagerContract.sol\":5181:5225  _amount <= userInfo[msg.sender].yesBetAmount */\n      gt\n      iszero\n        /* \"FacctoryContract/WagerContract.sol\":5173:5247  require(_amount <= userInfo[msg.sender].yesBetAmount, \"not enough Amount\") */\n      tag_149\n      jumpi\n      mload(0x40)\n      0x08c379a000000000000000000000000000000000000000000000000000000000\n      dup2\n      mstore\n      0x04\n      add\n      tag_150\n      swap1\n      tag_147\n      jump\t// in\n    tag_150:\n      mload(0x40)\n      dup1\n      swap2\n      sub\n      swap1\n      revert\n    tag_149:\n        /* \"FacctoryContract/WagerContract.sol\":5027:5258  if(_sellOf == 0){... */\n    tag_148:\n        /* \"FacctoryContract/WagerContract.sol\":5276:5284  userInfo */\n      0x04\n        /* \"FacctoryContract/WagerContract.sol\":5276:5296  userInfo[msg.sender] */\n      0x00\n        /* \"FacctoryContract/WagerContract.sol\":5285:5295  msg.sender */\n      caller\n        /* \"FacctoryContract/WagerContract.sol\":5276:5296  userInfo[msg.sender] */\n      0xffffffffffffffffffffffffffffffffffffffff\n      and\n      0xffffffffffffffffffffffffffffffffffffffff\n      and\n      dup2\n      mstore\n      0x20\n      add\n      swap1\n      dup2\n      mstore\n      0x20\n      add\n      0x00\n      keccak256\n        /* \"FacctoryContract/WagerContract.sol\":5276:5303  userInfo[msg.sender].listNo */\n      0x00\n      add\n      0x00\n        /* \"FacctoryContract/WagerContract.sol\":5276:5305  userInfo[msg.sender].listNo++ */\n      dup2\n      sload\n      dup1\n      swap3\n      swap2\n      swap1\n      tag_151\n      swap1\n      tag_152\n      jump\t// in\n    tag_151:\n      swap2\n      swap1\n      pop\n      sstore\n      pop\n        /* \"FacctoryContract/WagerContract.sol\":5373:5377  true */\n      0x01\n        /* \"FacctoryContract/WagerContract.sol\":5316:5324  sellInfo */\n      0x06\n        /* \"FacctoryContract/WagerContract.sol\":5316:5336  sellInfo[msg.sender] */\n      0x00\n        /* \"FacctoryContract/WagerContract.sol\":5325:5335  msg.sender */\n      caller\n        /* \"FacctoryContract/WagerContract.sol\":5316:5336  sellInfo[msg.sender] */\n      0xffffffffffffffffffffffffffffffffffffffff\n      and\n      0xffffffffffffffffffffffffffffffffffffffff\n      and\n      dup2\n      mstore\n      0x20\n      add\n      swap1\n      dup2\n      mstore\n      0x20\n      add\n      0x00\n      keccak256\n        /* \"FacctoryContract/WagerContract.sol\":5316:5365  sellInfo[msg.sender][userInfo[msg.sender].listNo] */\n      0x00\n        /* \"FacctoryContract/WagerContract.sol\":5337:5345  userInfo */\n      0x04\n        /* \"FacctoryContract/WagerContract.sol\":5337:5357  userInfo[msg.sender] */\n      0x00\n        /* \"FacctoryContract/WagerContract.sol\":5346:5356  msg.sender */\n      caller\n        /* \"FacctoryContract/WagerContract.sol\":5337:5357  userInfo[msg.sender] */\n      0xffffffffffffffffffffffffffffffffffffffff\n      and\n      0xffffffffffffffffffffffffffffffffffffffff\n      and\n      dup2\n      mstore\n      0x20\n      add\n      swap1\n      dup2\n      mstore\n      0x20\n      add\n      0x00\n      keccak256\n        /* \"FacctoryContract/WagerContract.sol\":5337:5364  userInfo[msg.sender].listNo */\n      0x00\n      add\n      sload\n        /* \"FacctoryContract/WagerContract.sol\":5316:5365  sellInfo[msg.sender][userInfo[msg.sender].listNo] */\n      dup2\n      mstore\n      0x20\n      add\n      swap1\n      dup2\n      mstore\n      0x20\n      add\n      0x00\n      keccak256\n        /* \"FacctoryContract/WagerContract.sol\":5316:5370  sellInfo[msg.sender][userInfo[msg.sender].listNo].list */\n      0x00\n      add\n      0x00\n        /* \"FacctoryContract/WagerContract.sol\":5316:5377  sellInfo[msg.sender][userInfo[msg.sender].listNo].list = true */\n      0x0100\n      exp\n      dup2\n      sload\n      dup2\n      0xff\n      mul\n      not\n      and\n      swap1\n      dup4\n      iszero\n      iszero\n      mul\n      or\n      swap1\n      sstore\n      pop\n        /* \"FacctoryContract/WagerContract.sol\":5445:5451  _price */\n      dup2\n        /* \"FacctoryContract/WagerContract.sol\":5387:5395  sellInfo */\n      0x06\n        /* \"FacctoryContract/WagerContract.sol\":5387:5407  sellInfo[msg.sender] */\n      0x00\n        /* \"FacctoryContract/WagerContract.sol\":5396:5406  msg.sender */\n      caller\n        /* \"FacctoryContract/WagerContract.sol\":5387:5407  sellInfo[msg.sender] */\n      0xffffffffffffffffffffffffffffffffffffffff\n      and\n      0xffffffffffffffffffffffffffffffffffffffff\n      and\n      dup2\n      mstore\n      0x20\n      add\n      swap1\n      dup2\n      mstore\n      0x20\n      add\n      0x00\n      keccak256\n        /* \"FacctoryContract/WagerContract.sol\":5387:5436  sellInfo[msg.sender][userInfo[msg.sender].listNo] */\n      0x00\n        /* \"FacctoryContract/WagerContract.sol\":5408:5416  userInfo */\n      0x04\n        /* \"FacctoryContract/WagerContract.sol\":5408:5428  userInfo[msg.sender] */\n      0x00\n        /* \"FacctoryContract/WagerContract.sol\":5417:5427  msg.sender */\n      caller\n        /* \"FacctoryContract/WagerContract.sol\":5408:5428  userInfo[msg.sender] */\n      0xffffffffffffffffffffffffffffffffffffffff\n      and\n      0xffffffffffffffffffffffffffffffffffffffff\n      and\n      dup2\n      mstore\n      0x20\n      add\n      swap1\n      dup2\n      mstore\n      0x20\n      add\n      0x00\n      keccak256\n        /* \"FacctoryContract/WagerContract.sol\":5408:5435  userInfo[msg.sender].listNo */\n      0x00\n      add\n      sload\n        /* \"FacctoryContract/WagerContract.sol\":5387:5436  sellInfo[msg.sender][userInfo[msg.sender].listNo] */\n      dup2\n      mstore\n      0x20\n      add\n      swap1\n      dup2\n      mstore\n      0x20\n      add\n      0x00\n      keccak256\n        /* \"FacctoryContract/WagerContract.sol\":5387:5442  sellInfo[msg.sender][userInfo[msg.sender].listNo].price */\n      0x01\n      add\n        /* \"FacctoryContract/WagerContract.sol\":5387:5451  sellInfo[msg.sender][userInfo[msg.sender].listNo].price = _price */\n      dup2\n      swap1\n      sstore\n      pop\n        /* \"FacctoryContract/WagerContract.sol\":5521:5528  _amount */\n      dup3\n        /* \"FacctoryContract/WagerContract.sol\":5462:5470  sellInfo */\n      0x06\n        /* \"FacctoryContract/WagerContract.sol\":5462:5482  sellInfo[msg.sender] */\n      0x00\n        /* \"FacctoryContract/WagerContract.sol\":5471:5481  msg.sender */\n      caller\n        /* \"FacctoryContract/WagerContract.sol\":5462:5482  sellInfo[msg.sender] */\n      0xffffffffffffffffffffffffffffffffffffffff\n      and\n      0xffffffffffffffffffffffffffffffffffffffff\n      and\n      dup2\n      mstore\n      0x20\n      add\n      swap1\n      dup2\n      mstore\n      0x20\n      add\n      0x00\n      keccak256\n        /* \"FacctoryContract/WagerContract.sol\":5462:5511  sellInfo[msg.sender][userInfo[msg.sender].listNo] */\n      0x00\n        /* \"FacctoryContract/WagerContract.sol\":5483:5491  userInfo */\n      0x04\n        /* \"FacctoryContract/WagerContract.sol\":5483:5503  userInfo[msg.sender] */\n      0x00\n        /* \"FacctoryContract/WagerContract.sol\":5492:5502  msg.sender */\n      caller\n        /* \"FacctoryContract/WagerContract.sol\":5483:5503  userInfo[msg.sender] */\n      0xffffffffffffffffffffffffffffffffffffffff\n      and\n      0xffffffffffffffffffffffffffffffffffffffff\n      and\n      dup2\n      mstore\n      0x20\n      add\n      swap1\n      dup2\n      mstore\n      0x20\n      add\n      0x00\n      keccak256\n        /* \"FacctoryContract/WagerContract.sol\":5483:5510  userInfo[msg.sender].listNo */\n      0x00\n      add\n      sload\n        /* \"FacctoryContract/WagerContract.sol\":5462:5511  sellInfo[msg.sender][userInfo[msg.sender].listNo] */\n      dup2\n      mstore\n      0x20\n      add\n      swap1\n      dup2\n      mstore\n      0x20\n      add\n      0x00\n      keccak256\n        /* \"FacctoryContract/WagerContract.sol\":5462:5518  sellInfo[msg.sender][userInfo[msg.sender].listNo].amount */\n      0x02\n      add\n        /* \"FacctoryContract/WagerContract.sol\":5462:5528  sellInfo[msg.sender][userInfo[msg.sender].listNo].amount = _amount */\n      dup2\n      swap1\n      sstore\n      pop\n        /* \"FacctoryContract/WagerContract.sol\":5597:5607  msg.sender */\n      caller\n        /* \"FacctoryContract/WagerContract.sol\":5539:5547  sellInfo */\n      0x06\n        /* \"FacctoryContract/WagerContract.sol\":5539:5559  sellInfo[msg.sender] */\n      0x00\n        /* \"FacctoryContract/WagerContract.sol\":5548:5558  msg.sender */\n      caller\n        /* \"FacctoryContract/WagerContract.sol\":5539:5559  sellInfo[msg.sender] */\n      0xffffffffffffffffffffffffffffffffffffffff\n      and\n      0xffffffffffffffffffffffffffffffffffffffff\n      and\n      dup2\n      mstore\n      0x20\n      add\n      swap1\n      dup2\n      mstore\n      0x20\n      add\n      0x00\n      keccak256\n        /* \"FacctoryContract/WagerContract.sol\":5539:5588  sellInfo[msg.sender][userInfo[msg.sender].listNo] */\n      0x00\n        /* \"FacctoryContract/WagerContract.sol\":5560:5568  userInfo */\n      0x04\n        /* \"FacctoryContract/WagerContract.sol\":5560:5580  userInfo[msg.sender] */\n      0x00\n        /* \"FacctoryContract/WagerContract.sol\":5569:5579  msg.sender */\n      caller\n        /* \"FacctoryContract/WagerContract.sol\":5560:5580  userInfo[msg.sender] */\n      0xffffffffffffffffffffffffffffffffffffffff\n      and\n      0xffffffffffffffffffffffffffffffffffffffff\n      and\n      dup2\n      mstore\n      0x20\n      add\n      swap1\n      dup2\n      mstore\n      0x20\n      add\n      0x00\n      keccak256\n        /* \"FacctoryContract/WagerContract.sol\":5560:5587  userInfo[msg.sender].listNo */\n      0x00\n      add\n      sload\n        /* \"FacctoryContract/WagerContract.sol\":5539:5588  sellInfo[msg.sender][userInfo[msg.sender].listNo] */\n      dup2\n      mstore\n      0x20\n      add\n      swap1\n      dup2\n      mstore\n      0x20\n      add\n      0x00\n      keccak256\n        /* \"FacctoryContract/WagerContract.sol\":5539:5594  sellInfo[msg.sender][userInfo[msg.sender].listNo].owner */\n      0x00\n      add\n      0x02\n        /* \"FacctoryContract/WagerContract.sol\":5539:5607  sellInfo[msg.sender][userInfo[msg.sender].listNo].owner = msg.sender */\n      0x0100\n      exp\n      dup2\n      sload\n      dup2\n      0xffffffffffffffffffffffffffffffffffffffff\n      mul\n      not\n      and\n      swap1\n      dup4\n      0xffffffffffffffffffffffffffffffffffffffff\n      and\n      mul\n      or\n      swap1\n      sstore\n      pop\n        /* \"FacctoryContract/WagerContract.sol\":5677:5684  _sellOf */\n      dup1\n        /* \"FacctoryContract/WagerContract.sol\":5618:5626  sellInfo */\n      0x06\n        /* \"FacctoryContract/WagerContract.sol\":5618:5638  sellInfo[msg.sender] */\n      0x00\n        /* \"FacctoryContract/WagerContract.sol\":5627:5637  msg.sender */\n      caller\n        /* \"FacctoryContract/WagerContract.sol\":5618:5638  sellInfo[msg.sender] */\n      0xffffffffffffffffffffffffffffffffffffffff\n      and\n      0xffffffffffffffffffffffffffffffffffffffff\n      and\n      dup2\n      mstore\n      0x20\n      add\n      swap1\n      dup2\n      mstore\n      0x20\n      add\n      0x00\n      keccak256\n        /* \"FacctoryContract/WagerContract.sol\":5618:5667  sellInfo[msg.sender][userInfo[msg.sender].listNo] */\n      0x00\n        /* \"FacctoryContract/WagerContract.sol\":5639:5647  userInfo */\n      0x04\n        /* \"FacctoryContract/WagerContract.sol\":5639:5659  userInfo[msg.sender] */\n      0x00\n        /* \"FacctoryContract/WagerContract.sol\":5648:5658  msg.sender */\n      caller\n        /* \"FacctoryContract/WagerContract.sol\":5639:5659  userInfo[msg.sender] */\n      0xffffffffffffffffffffffffffffffffffffffff\n      and\n      0xffffffffffffffffffffffffffffffffffffffff\n      and\n      dup2\n      mstore\n      0x20\n      add\n      swap1\n      dup2\n      mstore\n      0x20\n      add\n      0x00\n      keccak256\n        /* \"FacctoryContract/WagerContract.sol\":5639:5666  userInfo[msg.sender].listNo */\n      0x00\n      add\n      sload\n        /* \"FacctoryContract/WagerContract.sol\":5618:5667  sellInfo[msg.sender][userInfo[msg.sender].listNo] */\n      dup2\n      mstore\n      0x20\n      add\n      swap1\n      dup2\n      mstore\n      0x20\n      add\n      0x00\n      keccak256\n        /* \"FacctoryContract/WagerContract.sol\":5618:5674  sellInfo[msg.sender][userInfo[msg.sender].listNo].listOn */\n      0x03\n      add\n        /* \"FacctoryContract/WagerContract.sol\":5618:5684  sellInfo[msg.sender][userInfo[msg.sender].listNo].listOn = _sellOf */\n      dup2\n      swap1\n      sstore\n      pop\n        /* \"FacctoryContract/WagerContract.sol\":5723:5733  msg.sender */\n      caller\n        /* \"FacctoryContract/WagerContract.sol\":5713:5771  SellShare(msg.sender, userInfo[msg.sender].listNo, _price) */\n      0xffffffffffffffffffffffffffffffffffffffff\n      and\n      0x578d9bb67ff50e6081576125ad4c2410d6e82de6dbc1a5dcac37f8e5aa9ca4f4\n        /* \"FacctoryContract/WagerContract.sol\":5735:5743  userInfo */\n      0x04\n        /* \"FacctoryContract/WagerContract.sol\":5735:5755  userInfo[msg.sender] */\n      0x00\n        /* \"FacctoryContract/WagerContract.sol\":5744:5754  msg.sender */\n      caller\n        /* \"FacctoryContract/WagerContract.sol\":5735:5755  userInfo[msg.sender] */\n      0xffffffffffffffffffffffffffffffffffffffff\n      and\n      0xffffffffffffffffffffffffffffffffffffffff\n      and\n      dup2\n      mstore\n      0x20\n      add\n      swap1\n      dup2\n      mstore\n      0x20\n      add\n      0x00\n      keccak256\n        /* \"FacctoryContract/WagerContract.sol\":5735:5762  userInfo[msg.sender].listNo */\n      0x00\n      add\n      sload\n        /* \"FacctoryContract/WagerContract.sol\":5764:5770  _price */\n      dup5\n        /* \"FacctoryContract/WagerContract.sol\":5713:5771  SellShare(msg.sender, userInfo[msg.sender].listNo, _price) */\n      mload(0x40)\n      tag_153\n      swap3\n      swap2\n      swap1\n      tag_50\n      jump\t// in\n    tag_153:\n      mload(0x40)\n      dup1\n      swap2\n      sub\n      swap1\n      log2\n        /* \"FacctoryContract/WagerContract.sol\":4446:5778  function sellShare(uint256 _amount, uint256 _price, uint256 _sellOf) external {... */\n      pop\n      pop\n      pop\n      jump\t// out\n        /* \"FacctoryContract/WagerContract.sol\":1069:1133  mapping(address => mapping(uint256 => SellInfo)) public sellInfo */\n    tag_67:\n      mstore(0x20, 0x06)\n      dup2\n      0x00\n      mstore\n      mstore(0x20, keccak256(0x00, 0x40))\n      dup1\n      0x00\n      mstore\n      keccak256(0x00, 0x40)\n      0x00\n      swap2\n      pop\n      swap2\n      pop\n      pop\n      dup1\n      0x00\n      add\n      0x00\n      swap1\n      sload\n      swap1\n      0x0100\n      exp\n      swap1\n      div\n      0xff\n      and\n      swap1\n      dup1\n      0x00\n      add\n      0x01\n      swap1\n      sload\n      swap1\n      0x0100\n      exp\n      swap1\n      div\n      0xff\n      and\n      swap1\n      dup1\n      0x00\n      add\n      0x02\n      swap1\n      sload\n      swap1\n      0x0100\n      exp\n      swap1\n      div\n      0xffffffffffffffffffffffffffffffffffffffff\n      and\n      swap1\n      dup1\n      0x01\n      add\n      sload\n      swap1\n      dup1\n      0x02\n      add\n      sload\n      swap1\n      dup1\n      0x03\n      add\n      sload\n      swap1\n      pop\n      dup7\n      jump\t// out\n        /* \"FacctoryContract/WagerContract.sol\":7269:10066  function resolveMarket(uint256 winningIndex) external   {... */\n    tag_71:\n        /* \"FacctoryContract/WagerContract.sol\":7363:7364  0 */\n      0x00\n        /* \"FacctoryContract/WagerContract.sol\":7347:7359  winningIndex */\n      dup2\n        /* \"FacctoryContract/WagerContract.sol\":7347:7364  winningIndex != 0 */\n      eq\n      iszero\n        /* \"FacctoryContract/WagerContract.sol\":7347:7385  winningIndex != 0 && winningIndex != 1 */\n      dup1\n      iszero\n      tag_155\n      jumpi\n      pop\n        /* \"FacctoryContract/WagerContract.sol\":7384:7385  1 */\n      0x01\n        /* \"FacctoryContract/WagerContract.sol\":7368:7380  winningIndex */\n      dup2\n        /* \"FacctoryContract/WagerContract.sol\":7368:7385  winningIndex != 1 */\n      eq\n      iszero\n        /* \"FacctoryContract/WagerContract.sol\":7347:7385  winningIndex != 0 && winningIndex != 1 */\n    tag_155:\n        /* \"FacctoryContract/WagerContract.sol\":7344:7445  if(winningIndex != 0 && winningIndex != 1){... */\n      iszero\n      tag_156\n      jumpi\n        /* \"FacctoryContract/WagerContract.sol\":7421:7433  winningIndex */\n      dup1\n        /* \"FacctoryContract/WagerContract.sol\":7407:7434  wrongBetIndex(winningIndex) */\n      mload(0x40)\n      0xd7acbe8900000000000000000000000000000000000000000000000000000000\n      dup2\n      mstore\n      0x04\n      add\n      tag_157\n      swap2\n      swap1\n      tag_81\n      jump\t// in\n    tag_157:\n      mload(0x40)\n      dup1\n      swap2\n      sub\n      swap1\n      revert\n        /* \"FacctoryContract/WagerContract.sol\":7344:7445  if(winningIndex != 0 && winningIndex != 1){... */\n    tag_156:\n        /* \"FacctoryContract/WagerContract.sol\":7466:7476  marketInfo */\n      0x05\n        /* \"FacctoryContract/WagerContract.sol\":7466:7491  marketInfo[address(this)] */\n      0x00\n        /* \"FacctoryContract/WagerContract.sol\":7485:7489  this */\n      address\n        /* \"FacctoryContract/WagerContract.sol\":7466:7491  marketInfo[address(this)] */\n      0xffffffffffffffffffffffffffffffffffffffff\n      and\n      0xffffffffffffffffffffffffffffffffffffffff\n      and\n      dup2\n      mstore\n      0x20\n      add\n      swap1\n      dup2\n      mstore\n      0x20\n      add\n      0x00\n      keccak256\n        /* \"FacctoryContract/WagerContract.sol\":7466:7500  marketInfo[address(this)].resolved */\n      0x00\n      add\n      0x00\n      swap1\n      sload\n      swap1\n      0x0100\n      exp\n      swap1\n      div\n      0xff\n      and\n        /* \"FacctoryContract/WagerContract.sol\":7463:7549  if(marketInfo[address(this)].resolved){... */\n      iszero\n      tag_158\n      jumpi\n        /* \"FacctoryContract/WagerContract.sol\":7522:7538  marketResolved() */\n      mload(0x40)\n      0x853fd42100000000000000000000000000000000000000000000000000000000\n      dup2\n      mstore\n      0x04\n      add\n      mload(0x40)\n      dup1\n      swap2\n      sub\n      swap1\n      revert\n        /* \"FacctoryContract/WagerContract.sol\":7463:7549  if(marketInfo[address(this)].resolved){... */\n    tag_158:\n        /* \"FacctoryContract/WagerContract.sol\":7606:7621  block.timestamp */\n      timestamp\n        /* \"FacctoryContract/WagerContract.sol\":7570:7580  marketInfo */\n      0x05\n        /* \"FacctoryContract/WagerContract.sol\":7570:7595  marketInfo[address(this)] */\n      0x00\n        /* \"FacctoryContract/WagerContract.sol\":7589:7593  this */\n      address\n        /* \"FacctoryContract/WagerContract.sol\":7570:7595  marketInfo[address(this)] */\n      0xffffffffffffffffffffffffffffffffffffffff\n      and\n      0xffffffffffffffffffffffffffffffffffffffff\n      and\n      dup2\n      mstore\n      0x20\n      add\n      swap1\n      dup2\n      mstore\n      0x20\n      add\n      0x00\n      keccak256\n        /* \"FacctoryContract/WagerContract.sol\":7570:7603  marketInfo[address(this)].endTime */\n      0x01\n      add\n      sload\n        /* \"FacctoryContract/WagerContract.sol\":7570:7621  marketInfo[address(this)].endTime > block.timestamp */\n      gt\n        /* \"FacctoryContract/WagerContract.sol\":7567:7710  if(marketInfo[address(this)].endTime > block.timestamp){... */\n      iszero\n      tag_159\n      jumpi\n        /* \"FacctoryContract/WagerContract.sol\":7665:7675  marketInfo */\n      0x05\n        /* \"FacctoryContract/WagerContract.sol\":7665:7690  marketInfo[address(this)] */\n      0x00\n        /* \"FacctoryContract/WagerContract.sol\":7684:7688  this */\n      address\n        /* \"FacctoryContract/WagerContract.sol\":7665:7690  marketInfo[address(this)] */\n      0xffffffffffffffffffffffffffffffffffffffff\n      and\n      0xffffffffffffffffffffffffffffffffffffffff\n      and\n      dup2\n      mstore\n      0x20\n      add\n      swap1\n      dup2\n      mstore\n      0x20\n      add\n      0x00\n      keccak256\n        /* \"FacctoryContract/WagerContract.sol\":7665:7698  marketInfo[address(this)].endTime */\n      0x01\n      add\n      sload\n        /* \"FacctoryContract/WagerContract.sol\":7643:7699  notResolvedBeforeTime(marketInfo[address(this)].endTime) */\n      mload(0x40)\n      0x79073e7b00000000000000000000000000000000000000000000000000000000\n      dup2\n      mstore\n      0x04\n      add\n      tag_160\n      swap2\n      swap1\n      tag_81\n      jump\t// in\n    tag_160:\n      mload(0x40)\n      dup1\n      swap2\n      sub\n      swap1\n      revert\n        /* \"FacctoryContract/WagerContract.sol\":7567:7710  if(marketInfo[address(this)].endTime > block.timestamp){... */\n    tag_159:\n        /* \"FacctoryContract/WagerContract.sol\":7720:7744  uint256 totalWinnerShare */\n      0x00\n        /* \"FacctoryContract/WagerContract.sol\":7759:7768  uint256 i */\n      dup1\n        /* \"FacctoryContract/WagerContract.sol\":7771:7772  0 */\n      0x00\n        /* \"FacctoryContract/WagerContract.sol\":7759:7772  uint256 i = 0 */\n      swap1\n      pop\n        /* \"FacctoryContract/WagerContract.sol\":7755:8583  for(uint256 i = 0; i < totalUsers; i++){... */\n    tag_161:\n        /* \"FacctoryContract/WagerContract.sol\":7778:7788  totalUsers */\n      sload(0x02)\n        /* \"FacctoryContract/WagerContract.sol\":7774:7775  i */\n      dup2\n        /* \"FacctoryContract/WagerContract.sol\":7774:7788  i < totalUsers */\n      lt\n        /* \"FacctoryContract/WagerContract.sol\":7755:8583  for(uint256 i = 0; i < totalUsers; i++){... */\n      iszero\n      tag_162\n      jumpi\n        /* \"FacctoryContract/WagerContract.sol\":7813:7821  userInfo */\n      0x04\n        /* \"FacctoryContract/WagerContract.sol\":7813:7834  userInfo[eachUser[i]] */\n      0x00\n        /* \"FacctoryContract/WagerContract.sol\":7822:7830  eachUser */\n      0x03\n        /* \"FacctoryContract/WagerContract.sol\":7822:7833  eachUser[i] */\n      0x00\n        /* \"FacctoryContract/WagerContract.sol\":7831:7832  i */\n      dup5\n        /* \"FacctoryContract/WagerContract.sol\":7822:7833  eachUser[i] */\n      dup2\n      mstore\n      0x20\n      add\n      swap1\n      dup2\n      mstore\n      0x20\n      add\n      0x00\n      keccak256\n      0x00\n      swap1\n      sload\n      swap1\n      0x0100\n      exp\n      swap1\n      div\n      0xffffffffffffffffffffffffffffffffffffffff\n      and\n        /* \"FacctoryContract/WagerContract.sol\":7813:7834  userInfo[eachUser[i]] */\n      0xffffffffffffffffffffffffffffffffffffffff\n      and\n      0xffffffffffffffffffffffffffffffffffffffff\n      and\n      dup2\n      mstore\n      0x20\n      add\n      swap1\n      dup2\n      mstore\n      0x20\n      add\n      0x00\n      keccak256\n        /* \"FacctoryContract/WagerContract.sol\":7813:7840  userInfo[eachUser[i]].betOn */\n      0x05\n      add\n        /* \"FacctoryContract/WagerContract.sol\":7813:7854  userInfo[eachUser[i]].betOn[winningIndex] */\n      0x00\n        /* \"FacctoryContract/WagerContract.sol\":7841:7853  winningIndex */\n      dup5\n        /* \"FacctoryContract/WagerContract.sol\":7813:7854  userInfo[eachUser[i]].betOn[winningIndex] */\n      dup2\n      mstore\n      0x20\n      add\n      swap1\n      dup2\n      mstore\n      0x20\n      add\n      0x00\n      keccak256\n      0x00\n      swap1\n      sload\n      swap1\n      0x0100\n      exp\n      swap1\n      div\n      0xff\n      and\n        /* \"FacctoryContract/WagerContract.sol\":7810:8570  if(userInfo[eachUser[i]].betOn[winningIndex]) {... */\n      iszero\n      tag_164\n      jumpi\n        /* \"FacctoryContract/WagerContract.sol\":7894:7895  0 */\n      0x00\n        /* \"FacctoryContract/WagerContract.sol\":7878:7890  winningIndex */\n      dup4\n        /* \"FacctoryContract/WagerContract.sol\":7878:7895  winningIndex == 0 */\n      eq\n        /* \"FacctoryContract/WagerContract.sol\":7878:7937  winningIndex == 0 && userInfo[eachUser[i]].noBetAmount != 0 */\n      dup1\n      iszero\n      tag_165\n      jumpi\n      pop\n        /* \"FacctoryContract/WagerContract.sol\":7936:7937  0 */\n      0x00\n        /* \"FacctoryContract/WagerContract.sol\":7899:7907  userInfo */\n      0x04\n        /* \"FacctoryContract/WagerContract.sol\":7899:7920  userInfo[eachUser[i]] */\n      0x00\n        /* \"FacctoryContract/WagerContract.sol\":7908:7916  eachUser */\n      0x03\n        /* \"FacctoryContract/WagerContract.sol\":7908:7919  eachUser[i] */\n      0x00\n        /* \"FacctoryContract/WagerContract.sol\":7917:7918  i */\n      dup6\n        /* \"FacctoryContract/WagerContract.sol\":7908:7919  eachUser[i] */\n      dup2\n      mstore\n      0x20\n      add\n      swap1\n      dup2\n      mstore\n      0x20\n      add\n      0x00\n      keccak256\n      0x00\n      swap1\n      sload\n      swap1\n      0x0100\n      exp\n      swap1\n      div\n      0xffffffffffffffffffffffffffffffffffffffff\n      and\n        /* \"FacctoryContract/WagerContract.sol\":7899:7920  userInfo[eachUser[i]] */\n      0xffffffffffffffffffffffffffffffffffffffff\n      and\n      0xffffffffffffffffffffffffffffffffffffffff\n      and\n      dup2\n      mstore\n      0x20\n      add\n      swap1\n      dup2\n      mstore\n      0x20\n      add\n      0x00\n      keccak256\n        /* \"FacctoryContract/WagerContract.sol\":7899:7932  userInfo[eachUser[i]].noBetAmount */\n      0x01\n      add\n      sload\n        /* \"FacctoryContract/WagerContract.sol\":7899:7937  userInfo[eachUser[i]].noBetAmount != 0 */\n      eq\n      iszero\n        /* \"FacctoryContract/WagerContract.sol\":7878:7937  winningIndex == 0 && userInfo[eachUser[i]].noBetAmount != 0 */\n    tag_165:\n        /* \"FacctoryContract/WagerContract.sol\":7875:8555  if(winningIndex == 0 && userInfo[eachUser[i]].noBetAmount != 0){... */\n      iszero\n      tag_166\n      jumpi\n        /* \"FacctoryContract/WagerContract.sol\":8017:8151  calculateShares(... */\n      tag_167\n        /* \"FacctoryContract/WagerContract.sol\":8058:8066  userInfo */\n      0x04\n        /* \"FacctoryContract/WagerContract.sol\":8058:8079  userInfo[eachUser[i]] */\n      0x00\n        /* \"FacctoryContract/WagerContract.sol\":8067:8075  eachUser */\n      0x03\n        /* \"FacctoryContract/WagerContract.sol\":8067:8078  eachUser[i] */\n      0x00\n        /* \"FacctoryContract/WagerContract.sol\":8076:8077  i */\n      dup6\n        /* \"FacctoryContract/WagerContract.sol\":8067:8078  eachUser[i] */\n      dup2\n      mstore\n      0x20\n      add\n      swap1\n      dup2\n      mstore\n      0x20\n      add\n      0x00\n      keccak256\n      0x00\n      swap1\n      sload\n      swap1\n      0x0100\n      exp\n      swap1\n      div\n      0xffffffffffffffffffffffffffffffffffffffff\n      and\n        /* \"FacctoryContract/WagerContract.sol\":8058:8079  userInfo[eachUser[i]] */\n      0xffffffffffffffffffffffffffffffffffffffff\n      and\n      0xffffffffffffffffffffffffffffffffffffffff\n      and\n      dup2\n      mstore\n      0x20\n      add\n      swap1\n      dup2\n      mstore\n      0x20\n      add\n      0x00\n      keccak256\n        /* \"FacctoryContract/WagerContract.sol\":8058:8091  userInfo[eachUser[i]].noBetAmount */\n      0x01\n      add\n      sload\n        /* \"FacctoryContract/WagerContract.sol\":8117:8129  winningIndex */\n      dup5\n        /* \"FacctoryContract/WagerContract.sol\":8017:8032  calculateShares */\n      tag_87\n        /* \"FacctoryContract/WagerContract.sol\":8017:8151  calculateShares(... */\n      jump\t// in\n    tag_167:\n        /* \"FacctoryContract/WagerContract.sol\":7981:7989  userInfo */\n      0x04\n        /* \"FacctoryContract/WagerContract.sol\":7981:8002  userInfo[eachUser[i]] */\n      0x00\n        /* \"FacctoryContract/WagerContract.sol\":7990:7998  eachUser */\n      0x03\n        /* \"FacctoryContract/WagerContract.sol\":7990:8001  eachUser[i] */\n      0x00\n        /* \"FacctoryContract/WagerContract.sol\":7999:8000  i */\n      dup6\n        /* \"FacctoryContract/WagerContract.sol\":7990:8001  eachUser[i] */\n      dup2\n      mstore\n      0x20\n      add\n      swap1\n      dup2\n      mstore\n      0x20\n      add\n      0x00\n      keccak256\n      0x00\n      swap1\n      sload\n      swap1\n      0x0100\n      exp\n      swap1\n      div\n      0xffffffffffffffffffffffffffffffffffffffff\n      and\n        /* \"FacctoryContract/WagerContract.sol\":7981:8002  userInfo[eachUser[i]] */\n      0xffffffffffffffffffffffffffffffffffffffff\n      and\n      0xffffffffffffffffffffffffffffffffffffffff\n      and\n      dup2\n      mstore\n      0x20\n      add\n      swap1\n      dup2\n      mstore\n      0x20\n      add\n      0x00\n      keccak256\n        /* \"FacctoryContract/WagerContract.sol\":7981:8014  userInfo[eachUser[i]].shareAmount */\n      0x04\n      add\n        /* \"FacctoryContract/WagerContract.sol\":7981:8151  userInfo[eachUser[i]].shareAmount = calculateShares(... */\n      dup2\n      swap1\n      sstore\n      pop\n        /* \"FacctoryContract/WagerContract.sol\":8193:8201  userInfo */\n      0x04\n        /* \"FacctoryContract/WagerContract.sol\":8193:8214  userInfo[eachUser[i]] */\n      0x00\n        /* \"FacctoryContract/WagerContract.sol\":8202:8210  eachUser */\n      0x03\n        /* \"FacctoryContract/WagerContract.sol\":8202:8213  eachUser[i] */\n      0x00\n        /* \"FacctoryContract/WagerContract.sol\":8211:8212  i */\n      dup5\n        /* \"FacctoryContract/WagerContract.sol\":8202:8213  eachUser[i] */\n      dup2\n      mstore\n      0x20\n      add\n      swap1\n      dup2\n      mstore\n      0x20\n      add\n      0x00\n      keccak256\n      0x00\n      swap1\n      sload\n      swap1\n      0x0100\n      exp\n      swap1\n      div\n      0xffffffffffffffffffffffffffffffffffffffff\n      and\n        /* \"FacctoryContract/WagerContract.sol\":8193:8214  userInfo[eachUser[i]] */\n      0xffffffffffffffffffffffffffffffffffffffff\n      and\n      0xffffffffffffffffffffffffffffffffffffffff\n      and\n      dup2\n      mstore\n      0x20\n      add\n      swap1\n      dup2\n      mstore\n      0x20\n      add\n      0x00\n      keccak256\n        /* \"FacctoryContract/WagerContract.sol\":8193:8226  userInfo[eachUser[i]].shareAmount */\n      0x04\n      add\n      sload\n        /* \"FacctoryContract/WagerContract.sol\":8173:8226  totalWinnerShare += userInfo[eachUser[i]].shareAmount */\n      dup3\n      tag_168\n      swap2\n      swap1\n      tag_121\n      jump\t// in\n    tag_168:\n      swap2\n      pop\n        /* \"FacctoryContract/WagerContract.sol\":7875:8555  if(winningIndex == 0 && userInfo[eachUser[i]].noBetAmount != 0){... */\n      jump(tag_169)\n    tag_166:\n        /* \"FacctoryContract/WagerContract.sol\":8325:8460  calculateShares(... */\n      tag_170\n        /* \"FacctoryContract/WagerContract.sol\":8366:8374  userInfo */\n      0x04\n        /* \"FacctoryContract/WagerContract.sol\":8366:8387  userInfo[eachUser[i]] */\n      0x00\n        /* \"FacctoryContract/WagerContract.sol\":8375:8383  eachUser */\n      0x03\n        /* \"FacctoryContract/WagerContract.sol\":8375:8386  eachUser[i] */\n      0x00\n        /* \"FacctoryContract/WagerContract.sol\":8384:8385  i */\n      dup6\n        /* \"FacctoryContract/WagerContract.sol\":8375:8386  eachUser[i] */\n      dup2\n      mstore\n      0x20\n      add\n      swap1\n      dup2\n      mstore\n      0x20\n      add\n      0x00\n      keccak256\n      0x00\n      swap1\n      sload\n      swap1\n      0x0100\n      exp\n      swap1\n      div\n      0xffffffffffffffffffffffffffffffffffffffff\n      and\n        /* \"FacctoryContract/WagerContract.sol\":8366:8387  userInfo[eachUser[i]] */\n      0xffffffffffffffffffffffffffffffffffffffff\n      and\n      0xffffffffffffffffffffffffffffffffffffffff\n      and\n      dup2\n      mstore\n      0x20\n      add\n      swap1\n      dup2\n      mstore\n      0x20\n      add\n      0x00\n      keccak256\n        /* \"FacctoryContract/WagerContract.sol\":8366:8400  userInfo[eachUser[i]].yesBetAmount */\n      0x03\n      add\n      sload\n        /* \"FacctoryContract/WagerContract.sol\":8426:8438  winningIndex */\n      dup5\n        /* \"FacctoryContract/WagerContract.sol\":8325:8340  calculateShares */\n      tag_87\n        /* \"FacctoryContract/WagerContract.sol\":8325:8460  calculateShares(... */\n      jump\t// in\n    tag_170:\n        /* \"FacctoryContract/WagerContract.sol\":8289:8297  userInfo */\n      0x04\n        /* \"FacctoryContract/WagerContract.sol\":8289:8310  userInfo[eachUser[i]] */\n      0x00\n        /* \"FacctoryContract/WagerContract.sol\":8298:8306  eachUser */\n      0x03\n        /* \"FacctoryContract/WagerContract.sol\":8298:8309  eachUser[i] */\n      0x00\n        /* \"FacctoryContract/WagerContract.sol\":8307:8308  i */\n      dup6\n        /* \"FacctoryContract/WagerContract.sol\":8298:8309  eachUser[i] */\n      dup2\n      mstore\n      0x20\n      add\n      swap1\n      dup2\n      mstore\n      0x20\n      add\n      0x00\n      keccak256\n      0x00\n      swap1\n      sload\n      swap1\n      0x0100\n      exp\n      swap1\n      div\n      0xffffffffffffffffffffffffffffffffffffffff\n      and\n        /* \"FacctoryContract/WagerContract.sol\":8289:8310  userInfo[eachUser[i]] */\n      0xffffffffffffffffffffffffffffffffffffffff\n      and\n      0xffffffffffffffffffffffffffffffffffffffff\n      and\n      dup2\n      mstore\n      0x20\n      add\n      swap1\n      dup2\n      mstore\n      0x20\n      add\n      0x00\n      keccak256\n        /* \"FacctoryContract/WagerContract.sol\":8289:8322  userInfo[eachUser[i]].shareAmount */\n      0x04\n      add\n        /* \"FacctoryContract/WagerContract.sol\":8289:8460  userInfo[eachUser[i]].shareAmount = calculateShares(... */\n      dup2\n      swap1\n      sstore\n      pop\n        /* \"FacctoryContract/WagerContract.sol\":8503:8511  userInfo */\n      0x04\n        /* \"FacctoryContract/WagerContract.sol\":8503:8524  userInfo[eachUser[i]] */\n      0x00\n        /* \"FacctoryContract/WagerContract.sol\":8512:8520  eachUser */\n      0x03\n        /* \"FacctoryContract/WagerContract.sol\":8512:8523  eachUser[i] */\n      0x00\n        /* \"FacctoryContract/WagerContract.sol\":8521:8522  i */\n      dup5\n        /* \"FacctoryContract/WagerContract.sol\":8512:8523  eachUser[i] */\n      dup2\n      mstore\n      0x20\n      add\n      swap1\n      dup2\n      mstore\n      0x20\n      add\n      0x00\n      keccak256\n      0x00\n      swap1\n      sload\n      swap1\n      0x0100\n      exp\n      swap1\n      div\n      0xffffffffffffffffffffffffffffffffffffffff\n      and\n        /* \"FacctoryContract/WagerContract.sol\":8503:8524  userInfo[eachUser[i]] */\n      0xffffffffffffffffffffffffffffffffffffffff\n      and\n      0xffffffffffffffffffffffffffffffffffffffff\n      and\n      dup2\n      mstore\n      0x20\n      add\n      swap1\n      dup2\n      mstore\n      0x20\n      add\n      0x00\n      keccak256\n        /* \"FacctoryContract/WagerContract.sol\":8503:8536  userInfo[eachUser[i]].shareAmount */\n      0x04\n      add\n      sload\n        /* \"FacctoryContract/WagerContract.sol\":8483:8536  totalWinnerShare += userInfo[eachUser[i]].shareAmount */\n      dup3\n      tag_171\n      swap2\n      swap1\n      tag_121\n      jump\t// in\n    tag_171:\n      swap2\n      pop\n        /* \"FacctoryContract/WagerContract.sol\":7875:8555  if(winningIndex == 0 && userInfo[eachUser[i]].noBetAmount != 0){... */\n    tag_169:\n        /* \"FacctoryContract/WagerContract.sol\":7810:8570  if(userInfo[eachUser[i]].betOn[winningIndex]) {... */\n    tag_164:\n        /* \"FacctoryContract/WagerContract.sol\":7790:7793  i++ */\n      dup1\n      dup1\n      0x01\n      add\n      swap2\n      pop\n      pop\n        /* \"FacctoryContract/WagerContract.sol\":7755:8583  for(uint256 i = 0; i < totalUsers; i++){... */\n      jump(tag_161)\n    tag_162:\n      pop\n        /* \"FacctoryContract/WagerContract.sol\":8593:8610  uint256 _perShare */\n      0x00\n        /* \"FacctoryContract/WagerContract.sol\":8653:8669  totalWinnerShare */\n      dup2\n        /* \"FacctoryContract/WagerContract.sol\":8613:8623  marketInfo */\n      0x05\n        /* \"FacctoryContract/WagerContract.sol\":8613:8638  marketInfo[address(this)] */\n      0x00\n        /* \"FacctoryContract/WagerContract.sol\":8632:8636  this */\n      address\n        /* \"FacctoryContract/WagerContract.sol\":8613:8638  marketInfo[address(this)] */\n      0xffffffffffffffffffffffffffffffffffffffff\n      and\n      0xffffffffffffffffffffffffffffffffffffffff\n      and\n      dup2\n      mstore\n      0x20\n      add\n      swap1\n      dup2\n      mstore\n      0x20\n      add\n      0x00\n      keccak256\n        /* \"FacctoryContract/WagerContract.sol\":8613:8650  marketInfo[address(this)].totalAmount */\n      0x03\n      add\n      sload\n        /* \"FacctoryContract/WagerContract.sol\":8613:8669  marketInfo[address(this)].totalAmount / totalWinnerShare */\n      tag_172\n      swap2\n      swap1\n      tag_126\n      jump\t// in\n    tag_172:\n        /* \"FacctoryContract/WagerContract.sol\":8593:8669  uint256 _perShare = marketInfo[address(this)].totalAmount / totalWinnerShare */\n      swap1\n      pop\n        /* \"FacctoryContract/WagerContract.sol\":8679:8699  uint256 _ownerAmount */\n      0x00\n        /* \"FacctoryContract/WagerContract.sol\":8723:8732  uint256 i */\n      dup1\n        /* \"FacctoryContract/WagerContract.sol\":8735:8736  0 */\n      0x00\n        /* \"FacctoryContract/WagerContract.sol\":8723:8736  uint256 i = 0 */\n      swap1\n      pop\n        /* \"FacctoryContract/WagerContract.sol\":8718:9652  for (uint256 i = 0; i < totalUsers; i++) {... */\n    tag_173:\n        /* \"FacctoryContract/WagerContract.sol\":8742:8752  totalUsers */\n      sload(0x02)\n        /* \"FacctoryContract/WagerContract.sol\":8738:8739  i */\n      dup2\n        /* \"FacctoryContract/WagerContract.sol\":8738:8752  i < totalUsers */\n      lt\n        /* \"FacctoryContract/WagerContract.sol\":8718:9652  for (uint256 i = 0; i < totalUsers; i++) {... */\n      iszero\n      tag_174\n      jumpi\n        /* \"FacctoryContract/WagerContract.sol\":8789:8797  userInfo */\n      0x04\n        /* \"FacctoryContract/WagerContract.sol\":8789:8810  userInfo[eachUser[i]] */\n      0x00\n        /* \"FacctoryContract/WagerContract.sol\":8798:8806  eachUser */\n      0x03\n        /* \"FacctoryContract/WagerContract.sol\":8798:8809  eachUser[i] */\n      0x00\n        /* \"FacctoryContract/WagerContract.sol\":8807:8808  i */\n      dup5\n        /* \"FacctoryContract/WagerContract.sol\":8798:8809  eachUser[i] */\n      dup2\n      mstore\n      0x20\n      add\n      swap1\n      dup2\n      mstore\n      0x20\n      add\n      0x00\n      keccak256\n      0x00\n      swap1\n      sload\n      swap1\n      0x0100\n      exp\n      swap1\n      div\n      0xffffffffffffffffffffffffffffffffffffffff\n      and\n        /* \"FacctoryContract/WagerContract.sol\":8789:8810  userInfo[eachUser[i]] */\n      0xffffffffffffffffffffffffffffffffffffffff\n      and\n      0xffffffffffffffffffffffffffffffffffffffff\n      and\n      dup2\n      mstore\n      0x20\n      add\n      swap1\n      dup2\n      mstore\n      0x20\n      add\n      0x00\n      keccak256\n        /* \"FacctoryContract/WagerContract.sol\":8789:8816  userInfo[eachUser[i]].betOn */\n      0x05\n      add\n        /* \"FacctoryContract/WagerContract.sol\":8789:8830  userInfo[eachUser[i]].betOn[winningIndex] */\n      0x00\n        /* \"FacctoryContract/WagerContract.sol\":8817:8829  winningIndex */\n      dup7\n        /* \"FacctoryContract/WagerContract.sol\":8789:8830  userInfo[eachUser[i]].betOn[winningIndex] */\n      dup2\n      mstore\n      0x20\n      add\n      swap1\n      dup2\n      mstore\n      0x20\n      add\n      0x00\n      keccak256\n      0x00\n      swap1\n      sload\n      swap1\n      0x0100\n      exp\n      swap1\n      div\n      0xff\n      and\n        /* \"FacctoryContract/WagerContract.sol\":8786:9642  if(userInfo[eachUser[i]].betOn[winningIndex]) {... */\n      iszero\n      tag_176\n      jumpi\n        /* \"FacctoryContract/WagerContract.sol\":8886:8887  0 */\n      0x00\n        /* \"FacctoryContract/WagerContract.sol\":8870:8882  winningIndex */\n      dup6\n        /* \"FacctoryContract/WagerContract.sol\":8870:8887  winningIndex == 0 */\n      sub\n        /* \"FacctoryContract/WagerContract.sol\":8867:9197  if(winningIndex == 0){... */\n      tag_177\n      jumpi\n        /* \"FacctoryContract/WagerContract.sol\":8978:8986  userInfo */\n      0x04\n        /* \"FacctoryContract/WagerContract.sol\":8978:8999  userInfo[eachUser[i]] */\n      0x00\n        /* \"FacctoryContract/WagerContract.sol\":8987:8995  eachUser */\n      0x03\n        /* \"FacctoryContract/WagerContract.sol\":8987:8998  eachUser[i] */\n      0x00\n        /* \"FacctoryContract/WagerContract.sol\":8996:8997  i */\n      dup5\n        /* \"FacctoryContract/WagerContract.sol\":8987:8998  eachUser[i] */\n      dup2\n      mstore\n      0x20\n      add\n      swap1\n      dup2\n      mstore\n      0x20\n      add\n      0x00\n      keccak256\n      0x00\n      swap1\n      sload\n      swap1\n      0x0100\n      exp\n      swap1\n      div\n      0xffffffffffffffffffffffffffffffffffffffff\n      and\n        /* \"FacctoryContract/WagerContract.sol\":8978:8999  userInfo[eachUser[i]] */\n      0xffffffffffffffffffffffffffffffffffffffff\n      and\n      0xffffffffffffffffffffffffffffffffffffffff\n      and\n      dup2\n      mstore\n      0x20\n      add\n      swap1\n      dup2\n      mstore\n      0x20\n      add\n      0x00\n      keccak256\n        /* \"FacctoryContract/WagerContract.sol\":8978:9011  userInfo[eachUser[i]].noBetAmount */\n      0x01\n      add\n      sload\n        /* \"FacctoryContract/WagerContract.sol\":8965:8974  _perShare */\n      dup4\n        /* \"FacctoryContract/WagerContract.sol\":8929:8937  userInfo */\n      0x04\n        /* \"FacctoryContract/WagerContract.sol\":8929:8950  userInfo[eachUser[i]] */\n      0x00\n        /* \"FacctoryContract/WagerContract.sol\":8938:8946  eachUser */\n      0x03\n        /* \"FacctoryContract/WagerContract.sol\":8938:8949  eachUser[i] */\n      0x00\n        /* \"FacctoryContract/WagerContract.sol\":8947:8948  i */\n      dup7\n        /* \"FacctoryContract/WagerContract.sol\":8938:8949  eachUser[i] */\n      dup2\n      mstore\n      0x20\n      add\n      swap1\n      dup2\n      mstore\n      0x20\n      add\n      0x00\n      keccak256\n      0x00\n      swap1\n      sload\n      swap1\n      0x0100\n      exp\n      swap1\n      div\n      0xffffffffffffffffffffffffffffffffffffffff\n      and\n        /* \"FacctoryContract/WagerContract.sol\":8929:8950  userInfo[eachUser[i]] */\n      0xffffffffffffffffffffffffffffffffffffffff\n      and\n      0xffffffffffffffffffffffffffffffffffffffff\n      and\n      dup2\n      mstore\n      0x20\n      add\n      swap1\n      dup2\n      mstore\n      0x20\n      add\n      0x00\n      keccak256\n        /* \"FacctoryContract/WagerContract.sol\":8929:8962  userInfo[eachUser[i]].shareAmount */\n      0x04\n      add\n      sload\n        /* \"FacctoryContract/WagerContract.sol\":8929:8974  userInfo[eachUser[i]].shareAmount * _perShare */\n      tag_178\n      swap2\n      swap1\n      tag_124\n      jump\t// in\n    tag_178:\n        /* \"FacctoryContract/WagerContract.sol\":8928:9011  (userInfo[eachUser[i]].shareAmount * _perShare) - userInfo[eachUser[i]].noBetAmount */\n      tag_179\n      swap2\n      swap1\n      tag_180\n      jump\t// in\n    tag_179:\n        /* \"FacctoryContract/WagerContract.sol\":8911:9012  _ownerAmount += ((userInfo[eachUser[i]].shareAmount * _perShare) - userInfo[eachUser[i]].noBetAmount) */\n      dup3\n      tag_181\n      swap2\n      swap1\n      tag_121\n      jump\t// in\n    tag_181:\n      swap2\n      pop\n        /* \"FacctoryContract/WagerContract.sol\":8867:9197  if(winningIndex == 0){... */\n      jump(tag_182)\n    tag_177:\n        /* \"FacctoryContract/WagerContract.sol\":9143:9151  userInfo */\n      0x04\n        /* \"FacctoryContract/WagerContract.sol\":9143:9164  userInfo[eachUser[i]] */\n      0x00\n        /* \"FacctoryContract/WagerContract.sol\":9152:9160  eachUser */\n      0x03\n        /* \"FacctoryContract/WagerContract.sol\":9152:9163  eachUser[i] */\n      0x00\n        /* \"FacctoryContract/WagerContract.sol\":9161:9162  i */\n      dup5\n        /* \"FacctoryContract/WagerContract.sol\":9152:9163  eachUser[i] */\n      dup2\n      mstore\n      0x20\n      add\n      swap1\n      dup2\n      mstore\n      0x20\n      add\n      0x00\n      keccak256\n      0x00\n      swap1\n      sload\n      swap1\n      0x0100\n      exp\n      swap1\n      div\n      0xffffffffffffffffffffffffffffffffffffffff\n      and\n        /* \"FacctoryContract/WagerContract.sol\":9143:9164  userInfo[eachUser[i]] */\n      0xffffffffffffffffffffffffffffffffffffffff\n      and\n      0xffffffffffffffffffffffffffffffffffffffff\n      and\n      dup2\n      mstore\n      0x20\n      add\n      swap1\n      dup2\n      mstore\n      0x20\n      add\n      0x00\n      keccak256\n        /* \"FacctoryContract/WagerContract.sol\":9143:9177  userInfo[eachUser[i]].yesBetAmount */\n      0x03\n      add\n      sload\n        /* \"FacctoryContract/WagerContract.sol\":9130:9139  _perShare */\n      dup4\n        /* \"FacctoryContract/WagerContract.sol\":9094:9102  userInfo */\n      0x04\n        /* \"FacctoryContract/WagerContract.sol\":9094:9115  userInfo[eachUser[i]] */\n      0x00\n        /* \"FacctoryContract/WagerContract.sol\":9103:9111  eachUser */\n      0x03\n        /* \"FacctoryContract/WagerContract.sol\":9103:9114  eachUser[i] */\n      0x00\n        /* \"FacctoryContract/WagerContract.sol\":9112:9113  i */\n      dup7\n        /* \"FacctoryContract/WagerContract.sol\":9103:9114  eachUser[i] */\n      dup2\n      mstore\n      0x20\n      add\n      swap1\n      dup2\n      mstore\n      0x20\n      add\n      0x00\n      keccak256\n      0x00\n      swap1\n      sload\n      swap1\n      0x0100\n      exp\n      swap1\n      div\n      0xffffffffffffffffffffffffffffffffffffffff\n      and\n        /* \"FacctoryContract/WagerContract.sol\":9094:9115  userInfo[eachUser[i]] */\n      0xffffffffffffffffffffffffffffffffffffffff\n      and\n      0xffffffffffffffffffffffffffffffffffffffff\n      and\n      dup2\n      mstore\n      0x20\n      add\n      swap1\n      dup2\n      mstore\n      0x20\n      add\n      0x00\n      keccak256\n        /* \"FacctoryContract/WagerContract.sol\":9094:9127  userInfo[eachUser[i]].shareAmount */\n      0x04\n      add\n      sload\n        /* \"FacctoryContract/WagerContract.sol\":9094:9139  userInfo[eachUser[i]].shareAmount * _perShare */\n      tag_183\n      swap2\n      swap1\n      tag_124\n      jump\t// in\n    tag_183:\n        /* \"FacctoryContract/WagerContract.sol\":9093:9177  (userInfo[eachUser[i]].shareAmount * _perShare) - userInfo[eachUser[i]].yesBetAmount */\n      tag_184\n      swap2\n      swap1\n      tag_180\n      jump\t// in\n    tag_184:\n        /* \"FacctoryContract/WagerContract.sol\":9076:9178  _ownerAmount += ((userInfo[eachUser[i]].shareAmount * _perShare) - userInfo[eachUser[i]].yesBetAmount) */\n      dup3\n      tag_185\n      swap2\n      swap1\n      tag_121\n      jump\t// in\n    tag_185:\n      swap2\n      pop\n        /* \"FacctoryContract/WagerContract.sol\":8867:9197  if(winningIndex == 0){... */\n    tag_182:\n        /* \"FacctoryContract/WagerContract.sol\":9291:9300  _perShare */\n      dup3\n        /* \"FacctoryContract/WagerContract.sol\":9255:9263  userInfo */\n      0x04\n        /* \"FacctoryContract/WagerContract.sol\":9255:9276  userInfo[eachUser[i]] */\n      0x00\n        /* \"FacctoryContract/WagerContract.sol\":9264:9272  eachUser */\n      0x03\n        /* \"FacctoryContract/WagerContract.sol\":9264:9275  eachUser[i] */\n      0x00\n        /* \"FacctoryContract/WagerContract.sol\":9273:9274  i */\n      dup6\n        /* \"FacctoryContract/WagerContract.sol\":9264:9275  eachUser[i] */\n      dup2\n      mstore\n      0x20\n      add\n      swap1\n      dup2\n      mstore\n      0x20\n      add\n      0x00\n      keccak256\n      0x00\n      swap1\n      sload\n      swap1\n      0x0100\n      exp\n      swap1\n      div\n      0xffffffffffffffffffffffffffffffffffffffff\n      and\n        /* \"FacctoryContract/WagerContract.sol\":9255:9276  userInfo[eachUser[i]] */\n      0xffffffffffffffffffffffffffffffffffffffff\n      and\n      0xffffffffffffffffffffffffffffffffffffffff\n      and\n      dup2\n      mstore\n      0x20\n      add\n      swap1\n      dup2\n      mstore\n      0x20\n      add\n      0x00\n      keccak256\n        /* \"FacctoryContract/WagerContract.sol\":9255:9288  userInfo[eachUser[i]].shareAmount */\n      0x04\n      add\n      sload\n        /* \"FacctoryContract/WagerContract.sol\":9255:9300  userInfo[eachUser[i]].shareAmount * _perShare */\n      tag_186\n      swap2\n      swap1\n      tag_124\n      jump\t// in\n    tag_186:\n        /* \"FacctoryContract/WagerContract.sol\":9218:9227  usdcToken */\n      0x01\n      0x00\n      swap1\n      sload\n      swap1\n      0x0100\n      exp\n      swap1\n      div\n      0xffffffffffffffffffffffffffffffffffffffff\n      and\n        /* \"FacctoryContract/WagerContract.sol\":9218:9237  usdcToken.balanceOf */\n      0xffffffffffffffffffffffffffffffffffffffff\n      and\n      0x70a08231\n        /* \"FacctoryContract/WagerContract.sol\":9246:9250  this */\n      address\n        /* \"FacctoryContract/WagerContract.sol\":9218:9252  usdcToken.balanceOf(address(this)) */\n      mload(0x40)\n      dup3\n      0xffffffff\n      and\n      0xe0\n      shl\n      dup2\n      mstore\n      0x04\n      add\n      tag_187\n      swap2\n      swap1\n      tag_30\n      jump\t// in\n    tag_187:\n      0x20\n      mload(0x40)\n      dup1\n      dup4\n      sub\n      dup2\n      dup7\n      gas\n      staticcall\n      iszero\n      dup1\n      iszero\n      tag_189\n      jumpi\n      returndatasize\n      0x00\n      dup1\n      returndatacopy\n      revert(0x00, returndatasize)\n    tag_189:\n      pop\n      pop\n      pop\n      pop\n      mload(0x40)\n      returndatasize\n      not(0x1f)\n      0x1f\n      dup3\n      add\n      and\n      dup3\n      add\n      dup1\n      0x40\n      mstore\n      pop\n      dup2\n      add\n      swap1\n      tag_190\n      swap2\n      swap1\n      tag_191\n      jump\t// in\n    tag_190:\n        /* \"FacctoryContract/WagerContract.sol\":9218:9300  usdcToken.balanceOf(address(this)) < userInfo[eachUser[i]].shareAmount * _perShare */\n      lt\n        /* \"FacctoryContract/WagerContract.sol\":9215:9403  if(usdcToken.balanceOf(address(this)) < userInfo[eachUser[i]].shareAmount * _perShare){... */\n      iszero\n      tag_192\n      jumpi\n        /* \"FacctoryContract/WagerContract.sol\":9349:9358  usdcToken */\n      0x01\n      0x00\n      swap1\n      sload\n      swap1\n      0x0100\n      exp\n      swap1\n      div\n      0xffffffffffffffffffffffffffffffffffffffff\n      and\n        /* \"FacctoryContract/WagerContract.sol\":9349:9368  usdcToken.balanceOf */\n      0xffffffffffffffffffffffffffffffffffffffff\n      and\n      0x70a08231\n        /* \"FacctoryContract/WagerContract.sol\":9377:9381  this */\n      address\n        /* \"FacctoryContract/WagerContract.sol\":9349:9383  usdcToken.balanceOf(address(this)) */\n      mload(0x40)\n      dup3\n      0xffffffff\n      and\n      0xe0\n      shl\n      dup2\n      mstore\n      0x04\n      add\n      tag_193\n      swap2\n      swap1\n      tag_30\n      jump\t// in\n    tag_193:\n      0x20\n      mload(0x40)\n      dup1\n      dup4\n      sub\n      dup2\n      dup7\n      gas\n      staticcall\n      iszero\n      dup1\n      iszero\n      tag_195\n      jumpi\n      returndatasize\n      0x00\n      dup1\n      returndatacopy\n      revert(0x00, returndatasize)\n    tag_195:\n      pop\n      pop\n      pop\n      pop\n      mload(0x40)\n      returndatasize\n      not(0x1f)\n      0x1f\n      dup3\n      add\n      and\n      dup3\n      add\n      dup1\n      0x40\n      mstore\n      pop\n      dup2\n      add\n      swap1\n      tag_196\n      swap2\n      swap1\n      tag_191\n      jump\t// in\n    tag_196:\n        /* \"FacctoryContract/WagerContract.sol\":9330:9384  contractLowbalance(usdcToken.balanceOf(address(this))) */\n      mload(0x40)\n      0xf9ae0cb400000000000000000000000000000000000000000000000000000000\n      dup2\n      mstore\n      0x04\n      add\n      tag_197\n      swap2\n      swap1\n      tag_81\n      jump\t// in\n    tag_197:\n      mload(0x40)\n      dup1\n      swap2\n      sub\n      swap1\n      revert\n        /* \"FacctoryContract/WagerContract.sol\":9215:9403  if(usdcToken.balanceOf(address(this)) < userInfo[eachUser[i]].shareAmount * _perShare){... */\n    tag_192:\n        /* \"FacctoryContract/WagerContract.sol\":9422:9434  bool success */\n      0x00\n        /* \"FacctoryContract/WagerContract.sol\":9437:9446  usdcToken */\n      0x01\n      0x00\n      swap1\n      sload\n      swap1\n      0x0100\n      exp\n      swap1\n      div\n      0xffffffffffffffffffffffffffffffffffffffff\n      and\n        /* \"FacctoryContract/WagerContract.sol\":9437:9455  usdcToken.transfer */\n      0xffffffffffffffffffffffffffffffffffffffff\n      and\n      0xa9059cbb\n        /* \"FacctoryContract/WagerContract.sol\":9477:9485  eachUser */\n      0x03\n        /* \"FacctoryContract/WagerContract.sol\":9477:9488  eachUser[i] */\n      0x00\n        /* \"FacctoryContract/WagerContract.sol\":9486:9487  i */\n      dup6\n        /* \"FacctoryContract/WagerContract.sol\":9477:9488  eachUser[i] */\n      dup2\n      mstore\n      0x20\n      add\n      swap1\n      dup2\n      mstore\n      0x20\n      add\n      0x00\n      keccak256\n      0x00\n      swap1\n      sload\n      swap1\n      0x0100\n      exp\n      swap1\n      div\n      0xffffffffffffffffffffffffffffffffffffffff\n      and\n        /* \"FacctoryContract/WagerContract.sol\":9546:9555  _perShare */\n      dup7\n        /* \"FacctoryContract/WagerContract.sol\":9510:9518  userInfo */\n      0x04\n        /* \"FacctoryContract/WagerContract.sol\":9510:9531  userInfo[eachUser[i]] */\n      0x00\n        /* \"FacctoryContract/WagerContract.sol\":9519:9527  eachUser */\n      0x03\n        /* \"FacctoryContract/WagerContract.sol\":9519:9530  eachUser[i] */\n      0x00\n        /* \"FacctoryContract/WagerContract.sol\":9528:9529  i */\n      dup10\n        /* \"FacctoryContract/WagerContract.sol\":9519:9530  eachUser[i] */\n      dup2\n      mstore\n      0x20\n      add\n      swap1\n      dup2\n      mstore\n      0x20\n      add\n      0x00\n      keccak256\n      0x00\n      swap1\n      sload\n      swap1\n      0x0100\n      exp\n      swap1\n      div\n      0xffffffffffffffffffffffffffffffffffffffff\n      and\n        /* \"FacctoryContract/WagerContract.sol\":9510:9531  userInfo[eachUser[i]] */\n      0xffffffffffffffffffffffffffffffffffffffff\n      and\n      0xffffffffffffffffffffffffffffffffffffffff\n      and\n      dup2\n      mstore\n      0x20\n      add\n      swap1\n      dup2\n      mstore\n      0x20\n      add\n      0x00\n      keccak256\n        /* \"FacctoryContract/WagerContract.sol\":9510:9543  userInfo[eachUser[i]].shareAmount */\n      0x04\n      add\n      sload\n        /* \"FacctoryContract/WagerContract.sol\":9510:9555  userInfo[eachUser[i]].shareAmount * _perShare */\n      tag_198\n      swap2\n      swap1\n      tag_124\n      jump\t// in\n    tag_198:\n        /* \"FacctoryContract/WagerContract.sol\":9437:9573  usdcToken.transfer(... */\n      mload(0x40)\n      dup4\n      0xffffffff\n      and\n      0xe0\n      shl\n      dup2\n      mstore\n      0x04\n      add\n      tag_199\n      swap3\n      swap2\n      swap1\n      tag_200\n      jump\t// in\n    tag_199:\n      0x20\n      mload(0x40)\n      dup1\n      dup4\n      sub\n      dup2\n      0x00\n      dup8\n      gas\n      call\n      iszero\n      dup1\n      iszero\n      tag_202\n      jumpi\n      returndatasize\n      0x00\n      dup1\n      returndatacopy\n      revert(0x00, returndatasize)\n    tag_202:\n      pop\n      pop\n      pop\n      pop\n      mload(0x40)\n      returndatasize\n      not(0x1f)\n      0x1f\n      dup3\n      add\n      and\n      dup3\n      add\n      dup1\n      0x40\n      mstore\n      pop\n      dup2\n      add\n      swap1\n      tag_203\n      swap2\n      swap1\n      tag_204\n      jump\t// in\n    tag_203:\n        /* \"FacctoryContract/WagerContract.sol\":9422:9573  bool success = usdcToken.transfer(... */\n      swap1\n      pop\n        /* \"FacctoryContract/WagerContract.sol\":9599:9606  success */\n      dup1\n        /* \"FacctoryContract/WagerContract.sol\":9591:9626  require(success, \"Transfer failed\") */\n      tag_205\n      jumpi\n      mload(0x40)\n      0x08c379a000000000000000000000000000000000000000000000000000000000\n      dup2\n      mstore\n      0x04\n      add\n      tag_206\n      swap1\n      tag_207\n      jump\t// in\n    tag_206:\n      mload(0x40)\n      dup1\n      swap2\n      sub\n      swap1\n      revert\n    tag_205:\n        /* \"FacctoryContract/WagerContract.sol\":8832:9642  {... */\n      pop\n        /* \"FacctoryContract/WagerContract.sol\":8786:9642  if(userInfo[eachUser[i]].betOn[winningIndex]) {... */\n    tag_176:\n        /* \"FacctoryContract/WagerContract.sol\":8754:8757  i++ */\n      dup1\n      dup1\n      0x01\n      add\n      swap2\n      pop\n      pop\n        /* \"FacctoryContract/WagerContract.sol\":8718:9652  for (uint256 i = 0; i < totalUsers; i++) {... */\n      jump(tag_173)\n    tag_174:\n      pop\n        /* \"FacctoryContract/WagerContract.sol\":9702:9714  _ownerAmount */\n      dup1\n        /* \"FacctoryContract/WagerContract.sol\":9665:9674  usdcToken */\n      0x01\n      0x00\n      swap1\n      sload\n      swap1\n      0x0100\n      exp\n      swap1\n      div\n      0xffffffffffffffffffffffffffffffffffffffff\n      and\n        /* \"FacctoryContract/WagerContract.sol\":9665:9684  usdcToken.balanceOf */\n      0xffffffffffffffffffffffffffffffffffffffff\n      and\n      0x70a08231\n        /* \"FacctoryContract/WagerContract.sol\":9693:9697  this */\n      address\n        /* \"FacctoryContract/WagerContract.sol\":9665:9699  usdcToken.balanceOf(address(this)) */\n      mload(0x40)\n      dup3\n      0xffffffff\n      and\n      0xe0\n      shl\n      dup2\n      mstore\n      0x04\n      add\n      tag_208\n      swap2\n      swap1\n      tag_30\n      jump\t// in\n    tag_208:\n      0x20\n      mload(0x40)\n      dup1\n      dup4\n      sub\n      dup2\n      dup7\n      gas\n      staticcall\n      iszero\n      dup1\n      iszero\n      tag_210\n      jumpi\n      returndatasize\n      0x00\n      dup1\n      returndatacopy\n      revert(0x00, returndatasize)\n    tag_210:\n      pop\n      pop\n      pop\n      pop\n      mload(0x40)\n      returndatasize\n      not(0x1f)\n      0x1f\n      dup3\n      add\n      and\n      dup3\n      add\n      dup1\n      0x40\n      mstore\n      pop\n      dup2\n      add\n      swap1\n      tag_211\n      swap2\n      swap1\n      tag_191\n      jump\t// in\n    tag_211:\n        /* \"FacctoryContract/WagerContract.sol\":9665:9714  usdcToken.balanceOf(address(this)) < _ownerAmount */\n      lt\n        /* \"FacctoryContract/WagerContract.sol\":9662:9809  if(usdcToken.balanceOf(address(this)) < _ownerAmount){... */\n      iszero\n      tag_212\n      jumpi\n        /* \"FacctoryContract/WagerContract.sol\":9763:9772  usdcToken */\n      0x01\n      0x00\n      swap1\n      sload\n      swap1\n      0x0100\n      exp\n      swap1\n      div\n      0xffffffffffffffffffffffffffffffffffffffff\n      and\n        /* \"FacctoryContract/WagerContract.sol\":9763:9782  usdcToken.balanceOf */\n      0xffffffffffffffffffffffffffffffffffffffff\n      and\n      0x70a08231\n        /* \"FacctoryContract/WagerContract.sol\":9791:9795  this */\n      address\n        /* \"FacctoryContract/WagerContract.sol\":9763:9797  usdcToken.balanceOf(address(this)) */\n      mload(0x40)\n      dup3\n      0xffffffff\n      and\n      0xe0\n      shl\n      dup2\n      mstore\n      0x04\n      add\n      tag_213\n      swap2\n      swap1\n      tag_30\n      jump\t// in\n    tag_213:\n      0x20\n      mload(0x40)\n      dup1\n      dup4\n      sub\n      dup2\n      dup7\n      gas\n      staticcall\n      iszero\n      dup1\n      iszero\n      tag_215\n      jumpi\n      returndatasize\n      0x00\n      dup1\n      returndatacopy\n      revert(0x00, returndatasize)\n    tag_215:\n      pop\n      pop\n      pop\n      pop\n      mload(0x40)\n      returndatasize\n      not(0x1f)\n      0x1f\n      dup3\n      add\n      and\n      dup3\n      add\n      dup1\n      0x40\n      mstore\n      pop\n      dup2\n      add\n      swap1\n      tag_216\n      swap2\n      swap1\n      tag_191\n      jump\t// in\n    tag_216:\n        /* \"FacctoryContract/WagerContract.sol\":9736:9798  contractLowbalanceForOwner(usdcToken.balanceOf(address(this))) */\n      mload(0x40)\n      0xba9c3e4f00000000000000000000000000000000000000000000000000000000\n      dup2\n      mstore\n      0x04\n      add\n      tag_217\n      swap2\n      swap1\n      tag_81\n      jump\t// in\n    tag_217:\n      mload(0x40)\n      dup1\n      swap2\n      sub\n      swap1\n      revert\n        /* \"FacctoryContract/WagerContract.sol\":9662:9809  if(usdcToken.balanceOf(address(this)) < _ownerAmount){... */\n    tag_212:\n        /* \"FacctoryContract/WagerContract.sol\":9856:9860  true */\n      0x01\n        /* \"FacctoryContract/WagerContract.sol\":9819:9829  marketInfo */\n      0x05\n        /* \"FacctoryContract/WagerContract.sol\":9819:9844  marketInfo[address(this)] */\n      0x00\n        /* \"FacctoryContract/WagerContract.sol\":9838:9842  this */\n      address\n        /* \"FacctoryContract/WagerContract.sol\":9819:9844  marketInfo[address(this)] */\n      0xffffffffffffffffffffffffffffffffffffffff\n      and\n      0xffffffffffffffffffffffffffffffffffffffff\n      and\n      dup2\n      mstore\n      0x20\n      add\n      swap1\n      dup2\n      mstore\n      0x20\n      add\n      0x00\n      keccak256\n        /* \"FacctoryContract/WagerContract.sol\":9819:9853  marketInfo[address(this)].resolved */\n      0x00\n      add\n      0x00\n        /* \"FacctoryContract/WagerContract.sol\":9819:9860  marketInfo[address(this)].resolved = true */\n      0x0100\n      exp\n      dup2\n      sload\n      dup2\n      0xff\n      mul\n      not\n      and\n      swap1\n      dup4\n      iszero\n      iszero\n      mul\n      or\n      swap1\n      sstore\n      pop\n        /* \"FacctoryContract/WagerContract.sol\":9879:9892  bool success1 */\n      0x00\n        /* \"FacctoryContract/WagerContract.sol\":9895:9904  usdcToken */\n      0x01\n      0x00\n      swap1\n      sload\n      swap1\n      0x0100\n      exp\n      swap1\n      div\n      0xffffffffffffffffffffffffffffffffffffffff\n      and\n        /* \"FacctoryContract/WagerContract.sol\":9895:9913  usdcToken.transfer */\n      0xffffffffffffffffffffffffffffffffffffffff\n      and\n      0xa9059cbb\n        /* \"FacctoryContract/WagerContract.sol\":9914:9921  owner() */\n      tag_218\n        /* \"FacctoryContract/WagerContract.sol\":9914:9919  owner */\n      tag_83\n        /* \"FacctoryContract/WagerContract.sol\":9914:9921  owner() */\n      jump\t// in\n    tag_218:\n        /* \"FacctoryContract/WagerContract.sol\":9922:9934  _ownerAmount */\n      dup5\n        /* \"FacctoryContract/WagerContract.sol\":9895:9935  usdcToken.transfer(owner(),_ownerAmount) */\n      mload(0x40)\n      dup4\n      0xffffffff\n      and\n      0xe0\n      shl\n      dup2\n      mstore\n      0x04\n      add\n      tag_219\n      swap3\n      swap2\n      swap1\n      tag_200\n      jump\t// in\n    tag_219:\n      0x20\n      mload(0x40)\n      dup1\n      dup4\n      sub\n      dup2\n      0x00\n      dup8\n      gas\n      call\n      iszero\n      dup1\n      iszero\n      tag_221\n      jumpi\n      returndatasize\n      0x00\n      dup1\n      returndatacopy\n      revert(0x00, returndatasize)\n    tag_221:\n      pop\n      pop\n      pop\n      pop\n      mload(0x40)\n      returndatasize\n      not(0x1f)\n      0x1f\n      dup3\n      add\n      and\n      dup3\n      add\n      dup1\n      0x40\n      mstore\n      pop\n      dup2\n      add\n      swap1\n      tag_222\n      swap2\n      swap1\n      tag_204\n      jump\t// in\n    tag_222:\n        /* \"FacctoryContract/WagerContract.sol\":9879:9935  bool success1 = usdcToken.transfer(owner(),_ownerAmount) */\n      swap1\n      pop\n        /* \"FacctoryContract/WagerContract.sol\":9953:9961  success1 */\n      dup1\n        /* \"FacctoryContract/WagerContract.sol\":9945:9981  require(success1, \"Transfer failed\") */\n      tag_223\n      jumpi\n      mload(0x40)\n      0x08c379a000000000000000000000000000000000000000000000000000000000\n      dup2\n      mstore\n      0x04\n      add\n      tag_224\n      swap1\n      tag_207\n      jump\t// in\n    tag_224:\n      mload(0x40)\n      dup1\n      swap2\n      sub\n      swap1\n      revert\n    tag_223:\n        /* \"FacctoryContract/WagerContract.sol\":9997:10059  ResolveMarket( owner(), _ownerAmount, _perShare, winningIndex) */\n      0x4d21af759c8d2f25c6246594b4cfc2edeb2b901bc0c6e87f5e21c212a12ca1fd\n        /* \"FacctoryContract/WagerContract.sol\":10012:10019  owner() */\n      tag_225\n        /* \"FacctoryContract/WagerContract.sol\":10012:10017  owner */\n      tag_83\n        /* \"FacctoryContract/WagerContract.sol\":10012:10019  owner() */\n      jump\t// in\n    tag_225:\n        /* \"FacctoryContract/WagerContract.sol\":10021:10033  _ownerAmount */\n      dup4\n        /* \"FacctoryContract/WagerContract.sol\":10035:10044  _perShare */\n      dup6\n        /* \"FacctoryContract/WagerContract.sol\":10046:10058  winningIndex */\n      dup9\n        /* \"FacctoryContract/WagerContract.sol\":9997:10059  ResolveMarket( owner(), _ownerAmount, _perShare, winningIndex) */\n      mload(0x40)\n      tag_226\n      swap5\n      swap4\n      swap3\n      swap2\n      swap1\n      tag_227\n      jump\t// in\n    tag_226:\n      mload(0x40)\n      dup1\n      swap2\n      sub\n      swap1\n      log1\n        /* \"FacctoryContract/WagerContract.sol\":7325:10066  {... */\n      pop\n      pop\n      pop\n      pop\n        /* \"FacctoryContract/WagerContract.sol\":7269:10066  function resolveMarket(uint256 winningIndex) external   {... */\n      pop\n      jump\t// out\n        /* \"FacctoryContract/WagerContract.sol\":2356:3676  function bet(uint256 _amount, uint256 _betOn) external {... */\n    tag_74:\n        /* \"FacctoryContract/WagerContract.sol\":2435:2436  0 */\n      0x00\n        /* \"FacctoryContract/WagerContract.sol\":2425:2431  _betOn */\n      dup2\n        /* \"FacctoryContract/WagerContract.sol\":2425:2436  _betOn != 0 */\n      eq\n      iszero\n        /* \"FacctoryContract/WagerContract.sol\":2425:2451  _betOn != 0 && _betOn != 1 */\n      dup1\n      iszero\n      tag_229\n      jumpi\n      pop\n        /* \"FacctoryContract/WagerContract.sol\":2450:2451  1 */\n      0x01\n        /* \"FacctoryContract/WagerContract.sol\":2440:2446  _betOn */\n      dup2\n        /* \"FacctoryContract/WagerContract.sol\":2440:2451  _betOn != 1 */\n      eq\n      iszero\n        /* \"FacctoryContract/WagerContract.sol\":2425:2451  _betOn != 0 && _betOn != 1 */\n    tag_229:\n        /* \"FacctoryContract/WagerContract.sol\":2422:2505  if(_betOn != 0 && _betOn != 1){... */\n      iszero\n      tag_230\n      jumpi\n        /* \"FacctoryContract/WagerContract.sol\":2487:2493  _betOn */\n      dup1\n        /* \"FacctoryContract/WagerContract.sol\":2473:2494  wrongBetIndex(_betOn) */\n      mload(0x40)\n      0xd7acbe8900000000000000000000000000000000000000000000000000000000\n      dup2\n      mstore\n      0x04\n      add\n      tag_231\n      swap2\n      swap1\n      tag_81\n      jump\t// in\n    tag_231:\n      mload(0x40)\n      dup1\n      swap2\n      sub\n      swap1\n      revert\n        /* \"FacctoryContract/WagerContract.sol\":2422:2505  if(_betOn != 0 && _betOn != 1){... */\n    tag_230:\n        /* \"FacctoryContract/WagerContract.sol\":2528:2529  0 */\n      0x00\n        /* \"FacctoryContract/WagerContract.sol\":2517:2524  _amount */\n      dup3\n        /* \"FacctoryContract/WagerContract.sol\":2517:2529  _amount <= 0 */\n      gt\n        /* \"FacctoryContract/WagerContract.sol\":2514:2582  if(_amount <= 0){... */\n      tag_232\n      jumpi\n        /* \"FacctoryContract/WagerContract.sol\":2563:2570  _amount */\n      dup2\n        /* \"FacctoryContract/WagerContract.sol\":2551:2571  wrongAmount(_amount) */\n      mload(0x40)\n      0x2ff4783000000000000000000000000000000000000000000000000000000000\n      dup2\n      mstore\n      0x04\n      add\n      tag_233\n      swap2\n      swap1\n      tag_81\n      jump\t// in\n    tag_233:\n      mload(0x40)\n      dup1\n      swap2\n      sub\n      swap1\n      revert\n        /* \"FacctoryContract/WagerContract.sol\":2514:2582  if(_amount <= 0){... */\n    tag_232:\n        /* \"FacctoryContract/WagerContract.sol\":2603:2613  marketInfo */\n      0x05\n        /* \"FacctoryContract/WagerContract.sol\":2603:2628  marketInfo[address(this)] */\n      0x00\n        /* \"FacctoryContract/WagerContract.sol\":2622:2626  this */\n      address\n        /* \"FacctoryContract/WagerContract.sol\":2603:2628  marketInfo[address(this)] */\n      0xffffffffffffffffffffffffffffffffffffffff\n      and\n      0xffffffffffffffffffffffffffffffffffffffff\n      and\n      dup2\n      mstore\n      0x20\n      add\n      swap1\n      dup2\n      mstore\n      0x20\n      add\n      0x00\n      keccak256\n        /* \"FacctoryContract/WagerContract.sol\":2603:2637  marketInfo[address(this)].resolved */\n      0x00\n      add\n      0x00\n      swap1\n      sload\n      swap1\n      0x0100\n      exp\n      swap1\n      div\n      0xff\n      and\n        /* \"FacctoryContract/WagerContract.sol\":2600:2686  if(marketInfo[address(this)].resolved){... */\n      iszero\n      tag_234\n      jumpi\n        /* \"FacctoryContract/WagerContract.sol\":2659:2675  marketResolved() */\n      mload(0x40)\n      0x853fd42100000000000000000000000000000000000000000000000000000000\n      dup2\n      mstore\n      0x04\n      add\n      mload(0x40)\n      dup1\n      swap2\n      sub\n      swap1\n      revert\n        /* \"FacctoryContract/WagerContract.sol\":2600:2686  if(marketInfo[address(this)].resolved){... */\n    tag_234:\n        /* \"FacctoryContract/WagerContract.sol\":2709:2717  userInfo */\n      0x04\n        /* \"FacctoryContract/WagerContract.sol\":2709:2729  userInfo[msg.sender] */\n      0x00\n        /* \"FacctoryContract/WagerContract.sol\":2718:2728  msg.sender */\n      caller\n        /* \"FacctoryContract/WagerContract.sol\":2709:2729  userInfo[msg.sender] */\n      0xffffffffffffffffffffffffffffffffffffffff\n      and\n      0xffffffffffffffffffffffffffffffffffffffff\n      and\n      dup2\n      mstore\n      0x20\n      add\n      swap1\n      dup2\n      mstore\n      0x20\n      add\n      0x00\n      keccak256\n        /* \"FacctoryContract/WagerContract.sol\":2709:2735  userInfo[msg.sender].betOn */\n      0x05\n      add\n        /* \"FacctoryContract/WagerContract.sol\":2709:2743  userInfo[msg.sender].betOn[_betOn] */\n      0x00\n        /* \"FacctoryContract/WagerContract.sol\":2736:2742  _betOn */\n      dup3\n        /* \"FacctoryContract/WagerContract.sol\":2709:2743  userInfo[msg.sender].betOn[_betOn] */\n      dup2\n      mstore\n      0x20\n      add\n      swap1\n      dup2\n      mstore\n      0x20\n      add\n      0x00\n      keccak256\n      0x00\n      swap1\n      sload\n      swap1\n      0x0100\n      exp\n      swap1\n      div\n      0xff\n      and\n        /* \"FacctoryContract/WagerContract.sol\":2705:2833  if(!userInfo[msg.sender].betOn[_betOn]){     ... */\n      tag_235\n      jumpi\n        /* \"FacctoryContract/WagerContract.sol\":2786:2796  msg.sender */\n      caller\n        /* \"FacctoryContract/WagerContract.sol\":2763:2771  eachUser */\n      0x03\n        /* \"FacctoryContract/WagerContract.sol\":2763:2783  eachUser[totalUsers] */\n      0x00\n        /* \"FacctoryContract/WagerContract.sol\":2772:2782  totalUsers */\n      sload(0x02)\n        /* \"FacctoryContract/WagerContract.sol\":2763:2783  eachUser[totalUsers] */\n      dup2\n      mstore\n      0x20\n      add\n      swap1\n      dup2\n      mstore\n      0x20\n      add\n      0x00\n      keccak256\n      0x00\n        /* \"FacctoryContract/WagerContract.sol\":2763:2796  eachUser[totalUsers] = msg.sender */\n      0x0100\n      exp\n      dup2\n      sload\n      dup2\n      0xffffffffffffffffffffffffffffffffffffffff\n      mul\n      not\n      and\n      swap1\n      dup4\n      0xffffffffffffffffffffffffffffffffffffffff\n      and\n      mul\n      or\n      swap1\n      sstore\n      pop\n        /* \"FacctoryContract/WagerContract.sol\":2810:2820  totalUsers */\n      0x02\n      0x00\n        /* \"FacctoryContract/WagerContract.sol\":2810:2822  totalUsers++ */\n      dup2\n      sload\n      dup1\n      swap3\n      swap2\n      swap1\n      tag_236\n      swap1\n      tag_152\n      jump\t// in\n    tag_236:\n      swap2\n      swap1\n      pop\n      sstore\n      pop\n        /* \"FacctoryContract/WagerContract.sol\":2705:2833  if(!userInfo[msg.sender].betOn[_betOn]){     ... */\n    tag_235:\n        /* \"FacctoryContract/WagerContract.sol\":2856:2857  0 */\n      0x00\n        /* \"FacctoryContract/WagerContract.sol\":2846:2852  _betOn */\n      dup2\n        /* \"FacctoryContract/WagerContract.sol\":2846:2857  _betOn == 0 */\n      sub\n        /* \"FacctoryContract/WagerContract.sol\":2843:3117  if(_betOn == 0 ){... */\n      tag_237\n      jumpi\n        /* \"FacctoryContract/WagerContract.sol\":2874:2884  marketInfo */\n      0x05\n        /* \"FacctoryContract/WagerContract.sol\":2874:2899  marketInfo[address(this)] */\n      0x00\n        /* \"FacctoryContract/WagerContract.sol\":2893:2897  this */\n      address\n        /* \"FacctoryContract/WagerContract.sol\":2874:2899  marketInfo[address(this)] */\n      0xffffffffffffffffffffffffffffffffffffffff\n      and\n      0xffffffffffffffffffffffffffffffffffffffff\n      and\n      dup2\n      mstore\n      0x20\n      add\n      swap1\n      dup2\n      mstore\n      0x20\n      add\n      0x00\n      keccak256\n        /* \"FacctoryContract/WagerContract.sol\":2874:2913  marketInfo[address(this)].totalBetsOnNo */\n      0x07\n      add\n      0x00\n        /* \"FacctoryContract/WagerContract.sol\":2874:2915  marketInfo[address(this)].totalBetsOnNo++ */\n      dup2\n      sload\n      dup1\n      swap3\n      swap2\n      swap1\n      tag_238\n      swap1\n      tag_152\n      jump\t// in\n    tag_238:\n      swap2\n      swap1\n      pop\n      sstore\n      pop\n        /* \"FacctoryContract/WagerContract.sol\":2965:2972  _amount */\n      dup2\n        /* \"FacctoryContract/WagerContract.sol\":2929:2937  userInfo */\n      0x04\n        /* \"FacctoryContract/WagerContract.sol\":2929:2949  userInfo[msg.sender] */\n      0x00\n        /* \"FacctoryContract/WagerContract.sol\":2938:2948  msg.sender */\n      caller\n        /* \"FacctoryContract/WagerContract.sol\":2929:2949  userInfo[msg.sender] */\n      0xffffffffffffffffffffffffffffffffffffffff\n      and\n      0xffffffffffffffffffffffffffffffffffffffff\n      and\n      dup2\n      mstore\n      0x20\n      add\n      swap1\n      dup2\n      mstore\n      0x20\n      add\n      0x00\n      keccak256\n        /* \"FacctoryContract/WagerContract.sol\":2929:2961  userInfo[msg.sender].noBetAmount */\n      0x01\n      add\n      0x00\n        /* \"FacctoryContract/WagerContract.sol\":2929:2972  userInfo[msg.sender].noBetAmount += _amount */\n      dup3\n      dup3\n      sload\n      tag_239\n      swap2\n      swap1\n      tag_121\n      jump\t// in\n    tag_239:\n      swap3\n      pop\n      pop\n      dup2\n      swap1\n      sstore\n      pop\n        /* \"FacctoryContract/WagerContract.sol\":2843:3117  if(_betOn == 0 ){... */\n      jump(tag_240)\n    tag_237:\n        /* \"FacctoryContract/WagerContract.sol\":3004:3014  marketInfo */\n      0x05\n        /* \"FacctoryContract/WagerContract.sol\":3004:3029  marketInfo[address(this)] */\n      0x00\n        /* \"FacctoryContract/WagerContract.sol\":3023:3027  this */\n      address\n        /* \"FacctoryContract/WagerContract.sol\":3004:3029  marketInfo[address(this)] */\n      0xffffffffffffffffffffffffffffffffffffffff\n      and\n      0xffffffffffffffffffffffffffffffffffffffff\n      and\n      dup2\n      mstore\n      0x20\n      add\n      swap1\n      dup2\n      mstore\n      0x20\n      add\n      0x00\n      keccak256\n        /* \"FacctoryContract/WagerContract.sol\":3004:3044  marketInfo[address(this)].totalBetsOnYes */\n      0x06\n      add\n      0x00\n        /* \"FacctoryContract/WagerContract.sol\":3004:3046  marketInfo[address(this)].totalBetsOnYes++ */\n      dup2\n      sload\n      dup1\n      swap3\n      swap2\n      swap1\n      tag_241\n      swap1\n      tag_152\n      jump\t// in\n    tag_241:\n      swap2\n      swap1\n      pop\n      sstore\n      pop\n        /* \"FacctoryContract/WagerContract.sol\":3099:3106  _amount */\n      dup2\n        /* \"FacctoryContract/WagerContract.sol\":3062:3070  userInfo */\n      0x04\n        /* \"FacctoryContract/WagerContract.sol\":3062:3082  userInfo[msg.sender] */\n      0x00\n        /* \"FacctoryContract/WagerContract.sol\":3071:3081  msg.sender */\n      caller\n        /* \"FacctoryContract/WagerContract.sol\":3062:3082  userInfo[msg.sender] */\n      0xffffffffffffffffffffffffffffffffffffffff\n      and\n      0xffffffffffffffffffffffffffffffffffffffff\n      and\n      dup2\n      mstore\n      0x20\n      add\n      swap1\n      dup2\n      mstore\n      0x20\n      add\n      0x00\n      keccak256\n        /* \"FacctoryContract/WagerContract.sol\":3062:3095  userInfo[msg.sender].yesBetAmount */\n      0x03\n      add\n      0x00\n        /* \"FacctoryContract/WagerContract.sol\":3062:3106  userInfo[msg.sender].yesBetAmount += _amount */\n      dup3\n      dup3\n      sload\n      tag_242\n      swap2\n      swap1\n      tag_121\n      jump\t// in\n    tag_242:\n      swap3\n      pop\n      pop\n      dup2\n      swap1\n      sstore\n      pop\n        /* \"FacctoryContract/WagerContract.sol\":2843:3117  if(_betOn == 0 ){... */\n    tag_240:\n        /* \"FacctoryContract/WagerContract.sol\":3168:3175  _amount */\n      dup2\n        /* \"FacctoryContract/WagerContract.sol\":3127:3137  marketInfo */\n      0x05\n        /* \"FacctoryContract/WagerContract.sol\":3127:3152  marketInfo[address(this)] */\n      0x00\n        /* \"FacctoryContract/WagerContract.sol\":3146:3150  this */\n      address\n        /* \"FacctoryContract/WagerContract.sol\":3127:3152  marketInfo[address(this)] */\n      0xffffffffffffffffffffffffffffffffffffffff\n      and\n      0xffffffffffffffffffffffffffffffffffffffff\n      and\n      dup2\n      mstore\n      0x20\n      add\n      swap1\n      dup2\n      mstore\n      0x20\n      add\n      0x00\n      keccak256\n        /* \"FacctoryContract/WagerContract.sol\":3127:3164  marketInfo[address(this)].totalAmount */\n      0x03\n      add\n      0x00\n        /* \"FacctoryContract/WagerContract.sol\":3127:3175  marketInfo[address(this)].totalAmount += _amount */\n      dup3\n      dup3\n      sload\n      tag_243\n      swap2\n      swap1\n      tag_121\n      jump\t// in\n    tag_243:\n      swap3\n      pop\n      pop\n      dup2\n      swap1\n      sstore\n      pop\n        /* \"FacctoryContract/WagerContract.sol\":3185:3195  marketInfo */\n      0x05\n        /* \"FacctoryContract/WagerContract.sol\":3185:3210  marketInfo[address(this)] */\n      0x00\n        /* \"FacctoryContract/WagerContract.sol\":3204:3208  this */\n      address\n        /* \"FacctoryContract/WagerContract.sol\":3185:3210  marketInfo[address(this)] */\n      0xffffffffffffffffffffffffffffffffffffffff\n      and\n      0xffffffffffffffffffffffffffffffffffffffff\n      and\n      dup2\n      mstore\n      0x20\n      add\n      swap1\n      dup2\n      mstore\n      0x20\n      add\n      0x00\n      keccak256\n        /* \"FacctoryContract/WagerContract.sol\":3185:3220  marketInfo[address(this)].totalBets */\n      0x02\n      add\n      0x00\n        /* \"FacctoryContract/WagerContract.sol\":3185:3222  marketInfo[address(this)].totalBets++ */\n      dup2\n      sload\n      dup1\n      swap3\n      swap2\n      swap1\n      tag_244\n      swap1\n      tag_152\n      jump\t// in\n    tag_244:\n      swap2\n      swap1\n      pop\n      sstore\n      pop\n        /* \"FacctoryContract/WagerContract.sol\":3269:3273  true */\n      0x01\n        /* \"FacctoryContract/WagerContract.sol\":3232:3240  userInfo */\n      0x04\n        /* \"FacctoryContract/WagerContract.sol\":3232:3252  userInfo[msg.sender] */\n      0x00\n        /* \"FacctoryContract/WagerContract.sol\":3241:3251  msg.sender */\n      caller\n        /* \"FacctoryContract/WagerContract.sol\":3232:3252  userInfo[msg.sender] */\n      0xffffffffffffffffffffffffffffffffffffffff\n      and\n      0xffffffffffffffffffffffffffffffffffffffff\n      and\n      dup2\n      mstore\n      0x20\n      add\n      swap1\n      dup2\n      mstore\n      0x20\n      add\n      0x00\n      keccak256\n        /* \"FacctoryContract/WagerContract.sol\":3232:3258  userInfo[msg.sender].betOn */\n      0x05\n      add\n        /* \"FacctoryContract/WagerContract.sol\":3232:3266  userInfo[msg.sender].betOn[_betOn] */\n      0x00\n        /* \"FacctoryContract/WagerContract.sol\":3259:3265  _betOn */\n      dup4\n        /* \"FacctoryContract/WagerContract.sol\":3232:3266  userInfo[msg.sender].betOn[_betOn] */\n      dup2\n      mstore\n      0x20\n      add\n      swap1\n      dup2\n      mstore\n      0x20\n      add\n      0x00\n      keccak256\n      0x00\n        /* \"FacctoryContract/WagerContract.sol\":3232:3273  userInfo[msg.sender].betOn[_betOn] = true */\n      0x0100\n      exp\n      dup2\n      sload\n      dup2\n      0xff\n      mul\n      not\n      and\n      swap1\n      dup4\n      iszero\n      iszero\n      mul\n      or\n      swap1\n      sstore\n      pop\n        /* \"FacctoryContract/WagerContract.sol\":3386:3485  PriceCalculation(marketInfo[address(this)].totalBetsOnNo, marketInfo[address(this)].totalBetsOnYes) */\n      tag_245\n        /* \"FacctoryContract/WagerContract.sol\":3403:3413  marketInfo */\n      0x05\n        /* \"FacctoryContract/WagerContract.sol\":3403:3428  marketInfo[address(this)] */\n      0x00\n        /* \"FacctoryContract/WagerContract.sol\":3422:3426  this */\n      address\n        /* \"FacctoryContract/WagerContract.sol\":3403:3428  marketInfo[address(this)] */\n      0xffffffffffffffffffffffffffffffffffffffff\n      and\n      0xffffffffffffffffffffffffffffffffffffffff\n      and\n      dup2\n      mstore\n      0x20\n      add\n      swap1\n      dup2\n      mstore\n      0x20\n      add\n      0x00\n      keccak256\n        /* \"FacctoryContract/WagerContract.sol\":3403:3442  marketInfo[address(this)].totalBetsOnNo */\n      0x07\n      add\n      sload\n        /* \"FacctoryContract/WagerContract.sol\":3444:3454  marketInfo */\n      0x05\n        /* \"FacctoryContract/WagerContract.sol\":3444:3469  marketInfo[address(this)] */\n      0x00\n        /* \"FacctoryContract/WagerContract.sol\":3463:3467  this */\n      address\n        /* \"FacctoryContract/WagerContract.sol\":3444:3469  marketInfo[address(this)] */\n      0xffffffffffffffffffffffffffffffffffffffff\n      and\n      0xffffffffffffffffffffffffffffffffffffffff\n      and\n      dup2\n      mstore\n      0x20\n      add\n      swap1\n      dup2\n      mstore\n      0x20\n      add\n      0x00\n      keccak256\n        /* \"FacctoryContract/WagerContract.sol\":3444:3484  marketInfo[address(this)].totalBetsOnYes */\n      0x06\n      add\n      sload\n        /* \"FacctoryContract/WagerContract.sol\":3386:3402  PriceCalculation */\n      tag_54\n        /* \"FacctoryContract/WagerContract.sol\":3386:3485  PriceCalculation(marketInfo[address(this)].totalBetsOnNo, marketInfo[address(this)].totalBetsOnYes) */\n      jump\t// in\n    tag_245:\n        /* \"FacctoryContract/WagerContract.sol\":3286:3296  marketInfo */\n      0x05\n        /* \"FacctoryContract/WagerContract.sol\":3286:3311  marketInfo[address(this)] */\n      0x00\n        /* \"FacctoryContract/WagerContract.sol\":3305:3309  this */\n      address\n        /* \"FacctoryContract/WagerContract.sol\":3286:3311  marketInfo[address(this)] */\n      0xffffffffffffffffffffffffffffffffffffffff\n      and\n      0xffffffffffffffffffffffffffffffffffffffff\n      and\n      dup2\n      mstore\n      0x20\n      add\n      swap1\n      dup2\n      mstore\n      0x20\n      add\n      0x00\n      keccak256\n        /* \"FacctoryContract/WagerContract.sol\":3286:3324  marketInfo[address(this)].initialPrice */\n      0x04\n      add\n        /* \"FacctoryContract/WagerContract.sol\":3325:3326  0 */\n      0x00\n        /* \"FacctoryContract/WagerContract.sol\":3286:3327  marketInfo[address(this)].initialPrice[0] */\n      0x02\n      dup2\n      lt\n      tag_246\n      jumpi\n      tag_247\n      tag_108\n      jump\t// in\n    tag_247:\n    tag_246:\n      add\n      0x00\n        /* \"FacctoryContract/WagerContract.sol\":3328:3338  marketInfo */\n      0x05\n        /* \"FacctoryContract/WagerContract.sol\":3328:3353  marketInfo[address(this)] */\n      0x00\n        /* \"FacctoryContract/WagerContract.sol\":3347:3351  this */\n      address\n        /* \"FacctoryContract/WagerContract.sol\":3328:3353  marketInfo[address(this)] */\n      0xffffffffffffffffffffffffffffffffffffffff\n      and\n      0xffffffffffffffffffffffffffffffffffffffff\n      and\n      dup2\n      mstore\n      0x20\n      add\n      swap1\n      dup2\n      mstore\n      0x20\n      add\n      0x00\n      keccak256\n        /* \"FacctoryContract/WagerContract.sol\":3328:3366  marketInfo[address(this)].initialPrice */\n      0x04\n      add\n        /* \"FacctoryContract/WagerContract.sol\":3367:3368  1 */\n      0x01\n        /* \"FacctoryContract/WagerContract.sol\":3328:3369  marketInfo[address(this)].initialPrice[1] */\n      0x02\n      dup2\n      lt\n      tag_249\n      jumpi\n      tag_250\n      tag_108\n      jump\t// in\n    tag_250:\n    tag_249:\n      add\n      0x00\n        /* \"FacctoryContract/WagerContract.sol\":3285:3485  (marketInfo[address(this)].initialPrice[0],marketInfo[address(this)].initialPrice[1]) = ... */\n      dup5\n      swap2\n      swap1\n      pop\n      sstore\n      dup4\n      swap2\n      swap1\n      pop\n      sstore\n      pop\n      pop\n        /* \"FacctoryContract/WagerContract.sol\":3503:3515  bool success */\n      0x00\n        /* \"FacctoryContract/WagerContract.sol\":3518:3527  usdcToken */\n      0x01\n      0x00\n      swap1\n      sload\n      swap1\n      0x0100\n      exp\n      swap1\n      div\n      0xffffffffffffffffffffffffffffffffffffffff\n      and\n        /* \"FacctoryContract/WagerContract.sol\":3518:3540  usdcToken.transferFrom */\n      0xffffffffffffffffffffffffffffffffffffffff\n      and\n      0x23b872dd\n        /* \"FacctoryContract/WagerContract.sol\":3541:3551  msg.sender */\n      caller\n        /* \"FacctoryContract/WagerContract.sol\":3561:3565  this */\n      address\n        /* \"FacctoryContract/WagerContract.sol\":3568:3575  _amount */\n      dup7\n        /* \"FacctoryContract/WagerContract.sol\":3518:3576  usdcToken.transferFrom(msg.sender, address(this), _amount) */\n      mload(0x40)\n      dup5\n      0xffffffff\n      and\n      0xe0\n      shl\n      dup2\n      mstore\n      0x04\n      add\n      tag_252\n      swap4\n      swap3\n      swap2\n      swap1\n      tag_253\n      jump\t// in\n    tag_252:\n      0x20\n      mload(0x40)\n      dup1\n      dup4\n      sub\n      dup2\n      0x00\n      dup8\n      gas\n      call\n      iszero\n      dup1\n      iszero\n      tag_255\n      jumpi\n      returndatasize\n      0x00\n      dup1\n      returndatacopy\n      revert(0x00, returndatasize)\n    tag_255:\n      pop\n      pop\n      pop\n      pop\n      mload(0x40)\n      returndatasize\n      not(0x1f)\n      0x1f\n      dup3\n      add\n      and\n      dup3\n      add\n      dup1\n      0x40\n      mstore\n      pop\n      dup2\n      add\n      swap1\n      tag_256\n      swap2\n      swap1\n      tag_204\n      jump\t// in\n    tag_256:\n        /* \"FacctoryContract/WagerContract.sol\":3503:3576  bool success = usdcToken.transferFrom(msg.sender, address(this), _amount) */\n      swap1\n      pop\n        /* \"FacctoryContract/WagerContract.sol\":3594:3601  success */\n      dup1\n        /* \"FacctoryContract/WagerContract.sol\":3586:3621  require(success, \"Transfer failed\") */\n      tag_257\n      jumpi\n      mload(0x40)\n      0x08c379a000000000000000000000000000000000000000000000000000000000\n      dup2\n      mstore\n      0x04\n      add\n      tag_258\n      swap1\n      tag_207\n      jump\t// in\n    tag_258:\n      mload(0x40)\n      dup1\n      swap2\n      sub\n      swap1\n      revert\n    tag_257:\n        /* \"FacctoryContract/WagerContract.sol\":3653:3660  _amount */\n      dup3\n        /* \"FacctoryContract/WagerContract.sol\":3641:3651  msg.sender */\n      caller\n        /* \"FacctoryContract/WagerContract.sol\":3637:3669  Bet(msg.sender, _amount, _betOn) */\n      0xffffffffffffffffffffffffffffffffffffffff\n      and\n      0xf41b7910e085d0992d604fd470931728fd77cc8eb504d99e50e51a0a30fcfd1a\n        /* \"FacctoryContract/WagerContract.sol\":3662:3668  _betOn */\n      dup5\n        /* \"FacctoryContract/WagerContract.sol\":3637:3669  Bet(msg.sender, _amount, _betOn) */\n      mload(0x40)\n      tag_259\n      swap2\n      swap1\n      tag_81\n      jump\t// in\n    tag_259:\n      mload(0x40)\n      dup1\n      swap2\n      sub\n      swap1\n      log3\n        /* \"FacctoryContract/WagerContract.sol\":2411:3676  {... */\n      pop\n        /* \"FacctoryContract/WagerContract.sol\":2356:3676  function bet(uint256 _amount, uint256 _betOn) external {... */\n      pop\n      pop\n      jump\t// out\n        /* \"@openzeppelin/contracts/access/Ownable.sol\":2293:2394  function renounceOwnership() public virtual onlyOwner {... */\n    tag_76:\n        /* \"@openzeppelin/contracts/access/Ownable.sol\":1531:1544  _checkOwner() */\n      tag_261\n        /* \"@openzeppelin/contracts/access/Ownable.sol\":1531:1542  _checkOwner */\n      tag_262\n        /* \"@openzeppelin/contracts/access/Ownable.sol\":1531:1544  _checkOwner() */\n      jump\t// in\n    tag_261:\n        /* \"@openzeppelin/contracts/access/Ownable.sol\":2357:2387  _transferOwnership(address(0)) */\n      tag_264\n        /* \"@openzeppelin/contracts/access/Ownable.sol\":2384:2385  0 */\n      0x00\n        /* \"@openzeppelin/contracts/access/Ownable.sol\":2357:2375  _transferOwnership */\n      tag_265\n        /* \"@openzeppelin/contracts/access/Ownable.sol\":2357:2387  _transferOwnership(address(0)) */\n      jump\t// in\n    tag_264:\n        /* \"@openzeppelin/contracts/access/Ownable.sol\":2293:2394  function renounceOwnership() public virtual onlyOwner {... */\n      jump\t// out\n        /* \"FacctoryContract/WagerContract.sol\":10627:10935  function calculateInvestment(uint256 shares, uint256 _betOn) public view returns (uint256) {... */\n    tag_79:\n        /* \"FacctoryContract/WagerContract.sol\":10709:10716  uint256 */\n      0x00\n        /* \"FacctoryContract/WagerContract.sol\":10754:10755  0 */\n      dup1\n        /* \"FacctoryContract/WagerContract.sol\":10745:10751  shares */\n      dup4\n        /* \"FacctoryContract/WagerContract.sol\":10745:10755  shares > 0 */\n      gt\n        /* \"FacctoryContract/WagerContract.sol\":10737:10792  require(shares > 0, \"Shares must be greater than zero\") */\n      tag_267\n      jumpi\n      mload(0x40)\n      0x08c379a000000000000000000000000000000000000000000000000000000000\n      dup2\n      mstore\n      0x04\n      add\n      tag_268\n      swap1\n      tag_269\n      jump\t// in\n    tag_268:\n      mload(0x40)\n      dup1\n      swap2\n      sub\n      swap1\n      revert\n    tag_267:\n        /* \"FacctoryContract/WagerContract.sol\":10802:10823  uint256 amountInCents */\n      0x00\n        /* \"FacctoryContract/WagerContract.sol\":10886:10889  100 */\n      0x64\n        /* \"FacctoryContract/WagerContract.sol\":10836:10846  marketInfo */\n      0x05\n        /* \"FacctoryContract/WagerContract.sol\":10836:10861  marketInfo[address(this)] */\n      0x00\n        /* \"FacctoryContract/WagerContract.sol\":10855:10859  this */\n      address\n        /* \"FacctoryContract/WagerContract.sol\":10836:10861  marketInfo[address(this)] */\n      0xffffffffffffffffffffffffffffffffffffffff\n      and\n      0xffffffffffffffffffffffffffffffffffffffff\n      and\n      dup2\n      mstore\n      0x20\n      add\n      swap1\n      dup2\n      mstore\n      0x20\n      add\n      0x00\n      keccak256\n        /* \"FacctoryContract/WagerContract.sol\":10836:10874  marketInfo[address(this)].initialPrice */\n      0x04\n      add\n        /* \"FacctoryContract/WagerContract.sol\":10875:10881  _betOn */\n      dup5\n        /* \"FacctoryContract/WagerContract.sol\":10836:10882  marketInfo[address(this)].initialPrice[_betOn] */\n      0x02\n      dup2\n      lt\n      tag_270\n      jumpi\n      tag_271\n      tag_108\n      jump\t// in\n    tag_271:\n    tag_270:\n      add\n      sload\n        /* \"FacctoryContract/WagerContract.sol\":10827:10833  shares */\n      dup6\n        /* \"FacctoryContract/WagerContract.sol\":10827:10882  shares * marketInfo[address(this)].initialPrice[_betOn] */\n      tag_273\n      swap2\n      swap1\n      tag_124\n      jump\t// in\n    tag_273:\n        /* \"FacctoryContract/WagerContract.sol\":10826:10889  (shares * marketInfo[address(this)].initialPrice[_betOn]) / 100 */\n      tag_274\n      swap2\n      swap1\n      tag_126\n      jump\t// in\n    tag_274:\n        /* \"FacctoryContract/WagerContract.sol\":10802:10889  uint256 amountInCents = (shares * marketInfo[address(this)].initialPrice[_betOn]) / 100 */\n      swap1\n      pop\n        /* \"FacctoryContract/WagerContract.sol\":10915:10928  amountInCents */\n      dup1\n        /* \"FacctoryContract/WagerContract.sol\":10908:10928  return amountInCents */\n      swap2\n      pop\n      pop\n        /* \"FacctoryContract/WagerContract.sol\":10627:10935  function calculateInvestment(uint256 shares, uint256 _betOn) public view returns (uint256) {... */\n      swap3\n      swap2\n      pop\n      pop\n      jump\t// out\n        /* \"@openzeppelin/contracts/access/Ownable.sol\":1638:1723  function owner() public view virtual returns (address) {... */\n    tag_83:\n        /* \"@openzeppelin/contracts/access/Ownable.sol\":1684:1691  address */\n      0x00\n        /* \"@openzeppelin/contracts/access/Ownable.sol\":1710:1716  _owner */\n      dup1\n      0x00\n      swap1\n      sload\n      swap1\n      0x0100\n      exp\n      swap1\n      div\n      0xffffffffffffffffffffffffffffffffffffffff\n      and\n        /* \"@openzeppelin/contracts/access/Ownable.sol\":1703:1716  return _owner */\n      swap1\n      pop\n        /* \"@openzeppelin/contracts/access/Ownable.sol\":1638:1723  function owner() public view virtual returns (address) {... */\n      swap1\n      jump\t// out\n        /* \"FacctoryContract/WagerContract.sol\":10077:10392  function calculateShares(uint256 _amount, uint256 _betOn ) public view returns (uint256) {... */\n    tag_87:\n        /* \"FacctoryContract/WagerContract.sol\":10157:10164  uint256 */\n      0x00\n        /* \"FacctoryContract/WagerContract.sol\":10177:10190  uint256 price */\n      dup1\n        /* \"FacctoryContract/WagerContract.sol\":10194:10204  marketInfo */\n      0x05\n        /* \"FacctoryContract/WagerContract.sol\":10194:10219  marketInfo[address(this)] */\n      0x00\n        /* \"FacctoryContract/WagerContract.sol\":10213:10217  this */\n      address\n        /* \"FacctoryContract/WagerContract.sol\":10194:10219  marketInfo[address(this)] */\n      0xffffffffffffffffffffffffffffffffffffffff\n      and\n      0xffffffffffffffffffffffffffffffffffffffff\n      and\n      dup2\n      mstore\n      0x20\n      add\n      swap1\n      dup2\n      mstore\n      0x20\n      add\n      0x00\n      keccak256\n        /* \"FacctoryContract/WagerContract.sol\":10194:10232  marketInfo[address(this)].initialPrice */\n      0x04\n      add\n        /* \"FacctoryContract/WagerContract.sol\":10233:10239  _betOn */\n      dup4\n        /* \"FacctoryContract/WagerContract.sol\":10194:10240  marketInfo[address(this)].initialPrice[_betOn] */\n      0x02\n      dup2\n      lt\n      tag_277\n      jumpi\n      tag_278\n      tag_108\n      jump\t// in\n    tag_278:\n    tag_277:\n      add\n      sload\n        /* \"FacctoryContract/WagerContract.sol\":10177:10240  uint256 price =  marketInfo[address(this)].initialPrice[_betOn] */\n      swap1\n      pop\n        /* \"FacctoryContract/WagerContract.sol\":10276:10277  0 */\n      0x00\n        /* \"FacctoryContract/WagerContract.sol\":10267:10272  price */\n      dup2\n        /* \"FacctoryContract/WagerContract.sol\":10267:10277  price != 0 */\n      sub\n        /* \"FacctoryContract/WagerContract.sol\":10259:10303  require(price != 0, \"_price cannot be zero\") */\n      tag_280\n      jumpi\n      mload(0x40)\n      0x08c379a000000000000000000000000000000000000000000000000000000000\n      dup2\n      mstore\n      0x04\n      add\n      tag_281\n      swap1\n      tag_282\n      jump\t// in\n    tag_281:\n      mload(0x40)\n      dup1\n      swap2\n      sub\n      swap1\n      revert\n    tag_280:\n        /* \"FacctoryContract/WagerContract.sol\":10313:10327  uint256 result */\n      0x00\n        /* \"FacctoryContract/WagerContract.sol\":10348:10353  price */\n      dup2\n        /* \"FacctoryContract/WagerContract.sol\":10341:10344  100 */\n      0x64\n        /* \"FacctoryContract/WagerContract.sol\":10331:10338  _amount */\n      dup7\n        /* \"FacctoryContract/WagerContract.sol\":10331:10344  _amount * 100 */\n      tag_283\n      swap2\n      swap1\n      tag_124\n      jump\t// in\n    tag_283:\n        /* \"FacctoryContract/WagerContract.sol\":10330:10353  (_amount * 100) / price */\n      tag_284\n      swap2\n      swap1\n      tag_126\n      jump\t// in\n    tag_284:\n        /* \"FacctoryContract/WagerContract.sol\":10313:10353  uint256 result = (_amount * 100) / price */\n      swap1\n      pop\n        /* \"FacctoryContract/WagerContract.sol\":10379:10385  result */\n      dup1\n        /* \"FacctoryContract/WagerContract.sol\":10372:10385  return result */\n      swap3\n      pop\n      pop\n      pop\n        /* \"FacctoryContract/WagerContract.sol\":10077:10392  function calculateShares(uint256 _amount, uint256 _betOn ) public view returns (uint256) {... */\n      swap3\n      swap2\n      pop\n      pop\n      jump\t// out\n        /* \"FacctoryContract/WagerContract.sol\":884:909  uint256 public totalUsers */\n    tag_90:\n      sload(0x02)\n      dup2\n      jump\t// out\n        /* \"FacctoryContract/WagerContract.sol\":1015:1063  mapping(address => MarketInfo) public marketInfo */\n    tag_94:\n      mstore(0x20, 0x05)\n      dup1\n      0x00\n      mstore\n      keccak256(0x00, 0x40)\n      0x00\n      swap2\n      pop\n      swap1\n      pop\n      dup1\n      0x00\n      add\n      0x00\n      swap1\n      sload\n      swap1\n      0x0100\n      exp\n      swap1\n      div\n      0xff\n      and\n      swap1\n      dup1\n      0x01\n      add\n      sload\n      swap1\n      dup1\n      0x02\n      add\n      sload\n      swap1\n      dup1\n      0x03\n      add\n      sload\n      swap1\n      dup1\n      0x06\n      add\n      sload\n      swap1\n      dup1\n      0x07\n      add\n      sload\n      swap1\n      pop\n      dup7\n      jump\t// out\n        /* \"@openzeppelin/contracts/access/Ownable.sol\":2543:2758  function transferOwnership(address newOwner) public virtual onlyOwner {... */\n    tag_99:\n        /* \"@openzeppelin/contracts/access/Ownable.sol\":1531:1544  _checkOwner() */\n      tag_286\n        /* \"@openzeppelin/contracts/access/Ownable.sol\":1531:1542  _checkOwner */\n      tag_262\n        /* \"@openzeppelin/contracts/access/Ownable.sol\":1531:1544  _checkOwner() */\n      jump\t// in\n    tag_286:\n        /* \"@openzeppelin/contracts/access/Ownable.sol\":2647:2648  0 */\n      0x00\n        /* \"@openzeppelin/contracts/access/Ownable.sol\":2627:2649  newOwner == address(0) */\n      0xffffffffffffffffffffffffffffffffffffffff\n      and\n        /* \"@openzeppelin/contracts/access/Ownable.sol\":2627:2635  newOwner */\n      dup2\n        /* \"@openzeppelin/contracts/access/Ownable.sol\":2627:2649  newOwner == address(0) */\n      0xffffffffffffffffffffffffffffffffffffffff\n      and\n      sub\n        /* \"@openzeppelin/contracts/access/Ownable.sol\":2623:2714  if (newOwner == address(0)) {... */\n      tag_288\n      jumpi\n        /* \"@openzeppelin/contracts/access/Ownable.sol\":2700:2701  0 */\n      0x00\n        /* \"@openzeppelin/contracts/access/Ownable.sol\":2672:2703  OwnableInvalidOwner(address(0)) */\n      mload(0x40)\n      0x1e4fbdf700000000000000000000000000000000000000000000000000000000\n      dup2\n      mstore\n      0x04\n      add\n      tag_289\n      swap2\n      swap1\n      tag_30\n      jump\t// in\n    tag_289:\n      mload(0x40)\n      dup1\n      swap2\n      sub\n      swap1\n      revert\n        /* \"@openzeppelin/contracts/access/Ownable.sol\":2623:2714  if (newOwner == address(0)) {... */\n    tag_288:\n        /* \"@openzeppelin/contracts/access/Ownable.sol\":2723:2751  _transferOwnership(newOwner) */\n      tag_290\n        /* \"@openzeppelin/contracts/access/Ownable.sol\":2742:2750  newOwner */\n      dup2\n        /* \"@openzeppelin/contracts/access/Ownable.sol\":2723:2741  _transferOwnership */\n      tag_265\n        /* \"@openzeppelin/contracts/access/Ownable.sol\":2723:2751  _transferOwnership(newOwner) */\n      jump\t// in\n    tag_290:\n        /* \"@openzeppelin/contracts/access/Ownable.sol\":2543:2758  function transferOwnership(address newOwner) public virtual onlyOwner {... */\n      pop\n      jump\t// out\n        /* \"FacctoryContract/WagerContract.sol\":5784:7257  function buyShare(uint256 _listNo, address _owner) external {... */\n    tag_103:\n        /* \"FacctoryContract/WagerContract.sol\":5867:5875  sellInfo */\n      0x06\n        /* \"FacctoryContract/WagerContract.sol\":5867:5883  sellInfo[_owner] */\n      0x00\n        /* \"FacctoryContract/WagerContract.sol\":5876:5882  _owner */\n      dup3\n        /* \"FacctoryContract/WagerContract.sol\":5867:5883  sellInfo[_owner] */\n      0xffffffffffffffffffffffffffffffffffffffff\n      and\n      0xffffffffffffffffffffffffffffffffffffffff\n      and\n      dup2\n      mstore\n      0x20\n      add\n      swap1\n      dup2\n      mstore\n      0x20\n      add\n      0x00\n      keccak256\n        /* \"FacctoryContract/WagerContract.sol\":5867:5892  sellInfo[_owner][_listNo] */\n      0x00\n        /* \"FacctoryContract/WagerContract.sol\":5884:5891  _listNo */\n      dup4\n        /* \"FacctoryContract/WagerContract.sol\":5867:5892  sellInfo[_owner][_listNo] */\n      dup2\n      mstore\n      0x20\n      add\n      swap1\n      dup2\n      mstore\n      0x20\n      add\n      0x00\n      keccak256\n        /* \"FacctoryContract/WagerContract.sol\":5867:5897  sellInfo[_owner][_listNo].list */\n      0x00\n      add\n      0x00\n      swap1\n      sload\n      swap1\n      0x0100\n      exp\n      swap1\n      div\n      0xff\n      and\n        /* \"FacctoryContract/WagerContract.sol\":5863:5948  if(!sellInfo[_owner][_listNo].list){... */\n      tag_292\n      jumpi\n        /* \"FacctoryContract/WagerContract.sol\":5929:5936  _listNo */\n      dup2\n        /* \"FacctoryContract/WagerContract.sol\":5919:5937  notListed(_listNo) */\n      mload(0x40)\n      0x1599706800000000000000000000000000000000000000000000000000000000\n      dup2\n      mstore\n      0x04\n      add\n      tag_293\n      swap2\n      swap1\n      tag_81\n      jump\t// in\n    tag_293:\n      mload(0x40)\n      dup1\n      swap2\n      sub\n      swap1\n      revert\n        /* \"FacctoryContract/WagerContract.sol\":5863:5948  if(!sellInfo[_owner][_listNo].list){... */\n    tag_292:\n        /* \"FacctoryContract/WagerContract.sol\":5960:5968  sellInfo */\n      0x06\n        /* \"FacctoryContract/WagerContract.sol\":5960:5976  sellInfo[_owner] */\n      0x00\n        /* \"FacctoryContract/WagerContract.sol\":5969:5975  _owner */\n      dup3\n        /* \"FacctoryContract/WagerContract.sol\":5960:5976  sellInfo[_owner] */\n      0xffffffffffffffffffffffffffffffffffffffff\n      and\n      0xffffffffffffffffffffffffffffffffffffffff\n      and\n      dup2\n      mstore\n      0x20\n      add\n      swap1\n      dup2\n      mstore\n      0x20\n      add\n      0x00\n      keccak256\n        /* \"FacctoryContract/WagerContract.sol\":5960:5985  sellInfo[_owner][_listNo] */\n      0x00\n        /* \"FacctoryContract/WagerContract.sol\":5977:5984  _listNo */\n      dup4\n        /* \"FacctoryContract/WagerContract.sol\":5960:5985  sellInfo[_owner][_listNo] */\n      dup2\n      mstore\n      0x20\n      add\n      swap1\n      dup2\n      mstore\n      0x20\n      add\n      0x00\n      keccak256\n        /* \"FacctoryContract/WagerContract.sol\":5960:5990  sellInfo[_owner][_listNo].sold */\n      0x00\n      add\n      0x01\n      swap1\n      sload\n      swap1\n      0x0100\n      exp\n      swap1\n      div\n      0xff\n      and\n        /* \"FacctoryContract/WagerContract.sol\":5957:6066  if(sellInfo[_owner][_listNo].sold){... */\n      iszero\n      tag_294\n      jumpi\n        /* \"FacctoryContract/WagerContract.sol\":6024:6032  sellInfo */\n      0x06\n        /* \"FacctoryContract/WagerContract.sol\":6024:6040  sellInfo[_owner] */\n      0x00\n        /* \"FacctoryContract/WagerContract.sol\":6033:6039  _owner */\n      dup3\n        /* \"FacctoryContract/WagerContract.sol\":6024:6040  sellInfo[_owner] */\n      0xffffffffffffffffffffffffffffffffffffffff\n      and\n      0xffffffffffffffffffffffffffffffffffffffff\n      and\n      dup2\n      mstore\n      0x20\n      add\n      swap1\n      dup2\n      mstore\n      0x20\n      add\n      0x00\n      keccak256\n        /* \"FacctoryContract/WagerContract.sol\":6024:6049  sellInfo[_owner][_listNo] */\n      0x00\n        /* \"FacctoryContract/WagerContract.sol\":6041:6048  _listNo */\n      dup4\n        /* \"FacctoryContract/WagerContract.sol\":6024:6049  sellInfo[_owner][_listNo] */\n      dup2\n      mstore\n      0x20\n      add\n      swap1\n      dup2\n      mstore\n      0x20\n      add\n      0x00\n      keccak256\n        /* \"FacctoryContract/WagerContract.sol\":6024:6054  sellInfo[_owner][_listNo].sold */\n      0x00\n      add\n      0x01\n      swap1\n      sload\n      swap1\n      0x0100\n      exp\n      swap1\n      div\n      0xff\n      and\n        /* \"FacctoryContract/WagerContract.sol\":6012:6055  alreadySold(sellInfo[_owner][_listNo].sold) */\n      mload(0x40)\n      0xca1c6eb300000000000000000000000000000000000000000000000000000000\n      dup2\n      mstore\n      0x04\n      add\n      tag_295\n      swap2\n      swap1\n      tag_36\n      jump\t// in\n    tag_295:\n      mload(0x40)\n      dup1\n      swap2\n      sub\n      swap1\n      revert\n        /* \"FacctoryContract/WagerContract.sol\":5957:6066  if(sellInfo[_owner][_listNo].sold){... */\n    tag_294:\n        /* \"FacctoryContract/WagerContract.sol\":6087:6097  marketInfo */\n      0x05\n        /* \"FacctoryContract/WagerContract.sol\":6087:6112  marketInfo[address(this)] */\n      0x00\n        /* \"FacctoryContract/WagerContract.sol\":6106:6110  this */\n      address\n        /* \"FacctoryContract/WagerContract.sol\":6087:6112  marketInfo[address(this)] */\n      0xffffffffffffffffffffffffffffffffffffffff\n      and\n      0xffffffffffffffffffffffffffffffffffffffff\n      and\n      dup2\n      mstore\n      0x20\n      add\n      swap1\n      dup2\n      mstore\n      0x20\n      add\n      0x00\n      keccak256\n        /* \"FacctoryContract/WagerContract.sol\":6087:6121  marketInfo[address(this)].resolved */\n      0x00\n      add\n      0x00\n      swap1\n      sload\n      swap1\n      0x0100\n      exp\n      swap1\n      div\n      0xff\n      and\n        /* \"FacctoryContract/WagerContract.sol\":6084:6170  if(marketInfo[address(this)].resolved){... */\n      iszero\n      tag_296\n      jumpi\n        /* \"FacctoryContract/WagerContract.sol\":6143:6159  marketResolved() */\n      mload(0x40)\n      0x853fd42100000000000000000000000000000000000000000000000000000000\n      dup2\n      mstore\n      0x04\n      add\n      mload(0x40)\n      dup1\n      swap2\n      sub\n      swap1\n      revert\n        /* \"FacctoryContract/WagerContract.sol\":6084:6170  if(marketInfo[address(this)].resolved){... */\n    tag_296:\n        /* \"FacctoryContract/WagerContract.sol\":6218:6224  _owner */\n      dup1\n        /* \"FacctoryContract/WagerContract.sol\":6183:6224  sellInfo[_owner][_listNo].owner != _owner */\n      0xffffffffffffffffffffffffffffffffffffffff\n      and\n        /* \"FacctoryContract/WagerContract.sol\":6183:6191  sellInfo */\n      0x06\n        /* \"FacctoryContract/WagerContract.sol\":6183:6199  sellInfo[_owner] */\n      0x00\n        /* \"FacctoryContract/WagerContract.sol\":6192:6198  _owner */\n      dup4\n        /* \"FacctoryContract/WagerContract.sol\":6183:6199  sellInfo[_owner] */\n      0xffffffffffffffffffffffffffffffffffffffff\n      and\n      0xffffffffffffffffffffffffffffffffffffffff\n      and\n      dup2\n      mstore\n      0x20\n      add\n      swap1\n      dup2\n      mstore\n      0x20\n      add\n      0x00\n      keccak256\n        /* \"FacctoryContract/WagerContract.sol\":6183:6208  sellInfo[_owner][_listNo] */\n      0x00\n        /* \"FacctoryContract/WagerContract.sol\":6200:6207  _listNo */\n      dup5\n        /* \"FacctoryContract/WagerContract.sol\":6183:6208  sellInfo[_owner][_listNo] */\n      dup2\n      mstore\n      0x20\n      add\n      swap1\n      dup2\n      mstore\n      0x20\n      add\n      0x00\n      keccak256\n        /* \"FacctoryContract/WagerContract.sol\":6183:6214  sellInfo[_owner][_listNo].owner */\n      0x00\n      add\n      0x02\n      swap1\n      sload\n      swap1\n      0x0100\n      exp\n      swap1\n      div\n      0xffffffffffffffffffffffffffffffffffffffff\n      and\n        /* \"FacctoryContract/WagerContract.sol\":6183:6224  sellInfo[_owner][_listNo].owner != _owner */\n      0xffffffffffffffffffffffffffffffffffffffff\n      and\n      eq\n        /* \"FacctoryContract/WagerContract.sol\":6180:6275  if(sellInfo[_owner][_listNo].owner != _owner){... */\n      tag_297\n      jumpi\n        /* \"FacctoryContract/WagerContract.sol\":6257:6263  _owner */\n      dup1\n        /* \"FacctoryContract/WagerContract.sol\":6246:6264  wrongOwner(_owner) */\n      mload(0x40)\n      0xf6b79c5800000000000000000000000000000000000000000000000000000000\n      dup2\n      mstore\n      0x04\n      add\n      tag_298\n      swap2\n      swap1\n      tag_30\n      jump\t// in\n    tag_298:\n      mload(0x40)\n      dup1\n      swap2\n      sub\n      swap1\n      revert\n        /* \"FacctoryContract/WagerContract.sol\":6180:6275  if(sellInfo[_owner][_listNo].owner != _owner){... */\n    tag_297:\n        /* \"FacctoryContract/WagerContract.sol\":6318:6322  true */\n      0x01\n        /* \"FacctoryContract/WagerContract.sol\":6285:6293  sellInfo */\n      0x06\n        /* \"FacctoryContract/WagerContract.sol\":6285:6301  sellInfo[_owner] */\n      0x00\n        /* \"FacctoryContract/WagerContract.sol\":6294:6300  _owner */\n      dup4\n        /* \"FacctoryContract/WagerContract.sol\":6285:6301  sellInfo[_owner] */\n      0xffffffffffffffffffffffffffffffffffffffff\n      and\n      0xffffffffffffffffffffffffffffffffffffffff\n      and\n      dup2\n      mstore\n      0x20\n      add\n      swap1\n      dup2\n      mstore\n      0x20\n      add\n      0x00\n      keccak256\n        /* \"FacctoryContract/WagerContract.sol\":6285:6310  sellInfo[_owner][_listNo] */\n      0x00\n        /* \"FacctoryContract/WagerContract.sol\":6302:6309  _listNo */\n      dup5\n        /* \"FacctoryContract/WagerContract.sol\":6285:6310  sellInfo[_owner][_listNo] */\n      dup2\n      mstore\n      0x20\n      add\n      swap1\n      dup2\n      mstore\n      0x20\n      add\n      0x00\n      keccak256\n        /* \"FacctoryContract/WagerContract.sol\":6285:6315  sellInfo[_owner][_listNo].sold */\n      0x00\n      add\n      0x01\n        /* \"FacctoryContract/WagerContract.sol\":6285:6322  sellInfo[_owner][_listNo].sold = true */\n      0x0100\n      exp\n      dup2\n      sload\n      dup2\n      0xff\n      mul\n      not\n      and\n      swap1\n      dup4\n      iszero\n      iszero\n      mul\n      or\n      swap1\n      sstore\n      pop\n        /* \"FacctoryContract/WagerContract.sol\":6366:6376  msg.sender */\n      caller\n        /* \"FacctoryContract/WagerContract.sol\":6332:6340  sellInfo */\n      0x06\n        /* \"FacctoryContract/WagerContract.sol\":6332:6348  sellInfo[_owner] */\n      0x00\n        /* \"FacctoryContract/WagerContract.sol\":6341:6347  _owner */\n      dup4\n        /* \"FacctoryContract/WagerContract.sol\":6332:6348  sellInfo[_owner] */\n      0xffffffffffffffffffffffffffffffffffffffff\n      and\n      0xffffffffffffffffffffffffffffffffffffffff\n      and\n      dup2\n      mstore\n      0x20\n      add\n      swap1\n      dup2\n      mstore\n      0x20\n      add\n      0x00\n      keccak256\n        /* \"FacctoryContract/WagerContract.sol\":6332:6357  sellInfo[_owner][_listNo] */\n      0x00\n        /* \"FacctoryContract/WagerContract.sol\":6349:6356  _listNo */\n      dup5\n        /* \"FacctoryContract/WagerContract.sol\":6332:6357  sellInfo[_owner][_listNo] */\n      dup2\n      mstore\n      0x20\n      add\n      swap1\n      dup2\n      mstore\n      0x20\n      add\n      0x00\n      keccak256\n        /* \"FacctoryContract/WagerContract.sol\":6332:6363  sellInfo[_owner][_listNo].owner */\n      0x00\n      add\n      0x02\n        /* \"FacctoryContract/WagerContract.sol\":6332:6376  sellInfo[_owner][_listNo].owner = msg.sender */\n      0x0100\n      exp\n      dup2\n      sload\n      dup2\n      0xffffffffffffffffffffffffffffffffffffffff\n      mul\n      not\n      and\n      swap1\n      dup4\n      0xffffffffffffffffffffffffffffffffffffffff\n      and\n      mul\n      or\n      swap1\n      sstore\n      pop\n        /* \"FacctoryContract/WagerContract.sol\":6434:6435  0 */\n      0x00\n        /* \"FacctoryContract/WagerContract.sol\":6398:6406  sellInfo */\n      0x06\n        /* \"FacctoryContract/WagerContract.sol\":6398:6414  sellInfo[_owner] */\n      0x00\n        /* \"FacctoryContract/WagerContract.sol\":6407:6413  _owner */\n      dup4\n        /* \"FacctoryContract/WagerContract.sol\":6398:6414  sellInfo[_owner] */\n      0xffffffffffffffffffffffffffffffffffffffff\n      and\n      0xffffffffffffffffffffffffffffffffffffffff\n      and\n      dup2\n      mstore\n      0x20\n      add\n      swap1\n      dup2\n      mstore\n      0x20\n      add\n      0x00\n      keccak256\n        /* \"FacctoryContract/WagerContract.sol\":6398:6423  sellInfo[_owner][_listNo] */\n      0x00\n        /* \"FacctoryContract/WagerContract.sol\":6415:6422  _listNo */\n      dup5\n        /* \"FacctoryContract/WagerContract.sol\":6398:6423  sellInfo[_owner][_listNo] */\n      dup2\n      mstore\n      0x20\n      add\n      swap1\n      dup2\n      mstore\n      0x20\n      add\n      0x00\n      keccak256\n        /* \"FacctoryContract/WagerContract.sol\":6398:6430  sellInfo[_owner][_listNo].listOn */\n      0x03\n      add\n      sload\n        /* \"FacctoryContract/WagerContract.sol\":6398:6435  sellInfo[_owner][_listNo].listOn == 0 */\n      sub\n        /* \"FacctoryContract/WagerContract.sol\":6395:6798  if(sellInfo[_owner][_listNo].listOn == 0){... */\n      tag_299\n      jumpi\n        /* \"FacctoryContract/WagerContract.sol\":6499:6507  sellInfo */\n      0x06\n        /* \"FacctoryContract/WagerContract.sol\":6499:6515  sellInfo[_owner] */\n      0x00\n        /* \"FacctoryContract/WagerContract.sol\":6508:6514  _owner */\n      dup3\n        /* \"FacctoryContract/WagerContract.sol\":6499:6515  sellInfo[_owner] */\n      0xffffffffffffffffffffffffffffffffffffffff\n      and\n      0xffffffffffffffffffffffffffffffffffffffff\n      and\n      dup2\n      mstore\n      0x20\n      add\n      swap1\n      dup2\n      mstore\n      0x20\n      add\n      0x00\n      keccak256\n        /* \"FacctoryContract/WagerContract.sol\":6499:6524  sellInfo[_owner][_listNo] */\n      0x00\n        /* \"FacctoryContract/WagerContract.sol\":6516:6523  _listNo */\n      dup4\n        /* \"FacctoryContract/WagerContract.sol\":6499:6524  sellInfo[_owner][_listNo] */\n      dup2\n      mstore\n      0x20\n      add\n      swap1\n      dup2\n      mstore\n      0x20\n      add\n      0x00\n      keccak256\n        /* \"FacctoryContract/WagerContract.sol\":6499:6531  sellInfo[_owner][_listNo].amount */\n      0x02\n      add\n      sload\n        /* \"FacctoryContract/WagerContract.sol\":6463:6471  userInfo */\n      0x04\n        /* \"FacctoryContract/WagerContract.sol\":6463:6483  userInfo[msg.sender] */\n      0x00\n        /* \"FacctoryContract/WagerContract.sol\":6472:6482  msg.sender */\n      caller\n        /* \"FacctoryContract/WagerContract.sol\":6463:6483  userInfo[msg.sender] */\n      0xffffffffffffffffffffffffffffffffffffffff\n      and\n      0xffffffffffffffffffffffffffffffffffffffff\n      and\n      dup2\n      mstore\n      0x20\n      add\n      swap1\n      dup2\n      mstore\n      0x20\n      add\n      0x00\n      keccak256\n        /* \"FacctoryContract/WagerContract.sol\":6463:6495  userInfo[msg.sender].noBetAmount */\n      0x01\n      add\n      0x00\n        /* \"FacctoryContract/WagerContract.sol\":6463:6531  userInfo[msg.sender].noBetAmount += sellInfo[_owner][_listNo].amount */\n      dup3\n      dup3\n      sload\n      tag_300\n      swap2\n      swap1\n      tag_121\n      jump\t// in\n    tag_300:\n      swap3\n      pop\n      pop\n      dup2\n      swap1\n      sstore\n      pop\n        /* \"FacctoryContract/WagerContract.sol\":6577:6585  sellInfo */\n      0x06\n        /* \"FacctoryContract/WagerContract.sol\":6577:6593  sellInfo[_owner] */\n      0x00\n        /* \"FacctoryContract/WagerContract.sol\":6586:6592  _owner */\n      dup3\n        /* \"FacctoryContract/WagerContract.sol\":6577:6593  sellInfo[_owner] */\n      0xffffffffffffffffffffffffffffffffffffffff\n      and\n      0xffffffffffffffffffffffffffffffffffffffff\n      and\n      dup2\n      mstore\n      0x20\n      add\n      swap1\n      dup2\n      mstore\n      0x20\n      add\n      0x00\n      keccak256\n        /* \"FacctoryContract/WagerContract.sol\":6577:6602  sellInfo[_owner][_listNo] */\n      0x00\n        /* \"FacctoryContract/WagerContract.sol\":6594:6601  _listNo */\n      dup4\n        /* \"FacctoryContract/WagerContract.sol\":6577:6602  sellInfo[_owner][_listNo] */\n      dup2\n      mstore\n      0x20\n      add\n      swap1\n      dup2\n      mstore\n      0x20\n      add\n      0x00\n      keccak256\n        /* \"FacctoryContract/WagerContract.sol\":6577:6609  sellInfo[_owner][_listNo].amount */\n      0x02\n      add\n      sload\n        /* \"FacctoryContract/WagerContract.sol\":6545:6553  userInfo */\n      0x04\n        /* \"FacctoryContract/WagerContract.sol\":6545:6561  userInfo[_owner] */\n      0x00\n        /* \"FacctoryContract/WagerContract.sol\":6554:6560  _owner */\n      dup4\n        /* \"FacctoryContract/WagerContract.sol\":6545:6561  userInfo[_owner] */\n      0xffffffffffffffffffffffffffffffffffffffff\n      and\n      0xffffffffffffffffffffffffffffffffffffffff\n      and\n      dup2\n      mstore\n      0x20\n      add\n      swap1\n      dup2\n      mstore\n      0x20\n      add\n      0x00\n      keccak256\n        /* \"FacctoryContract/WagerContract.sol\":6545:6573  userInfo[_owner].noBetAmount */\n      0x01\n      add\n      0x00\n        /* \"FacctoryContract/WagerContract.sol\":6545:6609  userInfo[_owner].noBetAmount -= sellInfo[_owner][_listNo].amount */\n      dup3\n      dup3\n      sload\n      tag_301\n      swap2\n      swap1\n      tag_180\n      jump\t// in\n    tag_301:\n      swap3\n      pop\n      pop\n      dup2\n      swap1\n      sstore\n      pop\n        /* \"FacctoryContract/WagerContract.sol\":6395:6798  if(sellInfo[_owner][_listNo].listOn == 0){... */\n      jump(tag_302)\n    tag_299:\n        /* \"FacctoryContract/WagerContract.sol\":6672:6680  sellInfo */\n      0x06\n        /* \"FacctoryContract/WagerContract.sol\":6672:6688  sellInfo[_owner] */\n      0x00\n        /* \"FacctoryContract/WagerContract.sol\":6681:6687  _owner */\n      dup3\n        /* \"FacctoryContract/WagerContract.sol\":6672:6688  sellInfo[_owner] */\n      0xffffffffffffffffffffffffffffffffffffffff\n      and\n      0xffffffffffffffffffffffffffffffffffffffff\n      and\n      dup2\n      mstore\n      0x20\n      add\n      swap1\n      dup2\n      mstore\n      0x20\n      add\n      0x00\n      keccak256\n        /* \"FacctoryContract/WagerContract.sol\":6672:6697  sellInfo[_owner][_listNo] */\n      0x00\n        /* \"FacctoryContract/WagerContract.sol\":6689:6696  _listNo */\n      dup4\n        /* \"FacctoryContract/WagerContract.sol\":6672:6697  sellInfo[_owner][_listNo] */\n      dup2\n      mstore\n      0x20\n      add\n      swap1\n      dup2\n      mstore\n      0x20\n      add\n      0x00\n      keccak256\n        /* \"FacctoryContract/WagerContract.sol\":6672:6704  sellInfo[_owner][_listNo].amount */\n      0x02\n      add\n      sload\n        /* \"FacctoryContract/WagerContract.sol\":6639:6647  userInfo */\n      0x04\n        /* \"FacctoryContract/WagerContract.sol\":6639:6655  userInfo[_owner] */\n      0x00\n        /* \"FacctoryContract/WagerContract.sol\":6648:6654  _owner */\n      dup4\n        /* \"FacctoryContract/WagerContract.sol\":6639:6655  userInfo[_owner] */\n      0xffffffffffffffffffffffffffffffffffffffff\n      and\n      0xffffffffffffffffffffffffffffffffffffffff\n      and\n      dup2\n      mstore\n      0x20\n      add\n      swap1\n      dup2\n      mstore\n      0x20\n      add\n      0x00\n      keccak256\n        /* \"FacctoryContract/WagerContract.sol\":6639:6668  userInfo[_owner].yesBetAmount */\n      0x03\n      add\n      0x00\n        /* \"FacctoryContract/WagerContract.sol\":6639:6704  userInfo[_owner].yesBetAmount -= sellInfo[_owner][_listNo].amount */\n      dup3\n      dup3\n      sload\n      tag_303\n      swap2\n      swap1\n      tag_180\n      jump\t// in\n    tag_303:\n      swap3\n      pop\n      pop\n      dup2\n      swap1\n      sstore\n      pop\n        /* \"FacctoryContract/WagerContract.sol\":6755:6763  sellInfo */\n      0x06\n        /* \"FacctoryContract/WagerContract.sol\":6755:6771  sellInfo[_owner] */\n      0x00\n        /* \"FacctoryContract/WagerContract.sol\":6764:6770  _owner */\n      dup3\n        /* \"FacctoryContract/WagerContract.sol\":6755:6771  sellInfo[_owner] */\n      0xffffffffffffffffffffffffffffffffffffffff\n      and\n      0xffffffffffffffffffffffffffffffffffffffff\n      and\n      dup2\n      mstore\n      0x20\n      add\n      swap1\n      dup2\n      mstore\n      0x20\n      add\n      0x00\n      keccak256\n        /* \"FacctoryContract/WagerContract.sol\":6755:6780  sellInfo[_owner][_listNo] */\n      0x00\n        /* \"FacctoryContract/WagerContract.sol\":6772:6779  _listNo */\n      dup4\n        /* \"FacctoryContract/WagerContract.sol\":6755:6780  sellInfo[_owner][_listNo] */\n      dup2\n      mstore\n      0x20\n      add\n      swap1\n      dup2\n      mstore\n      0x20\n      add\n      0x00\n      keccak256\n        /* \"FacctoryContract/WagerContract.sol\":6755:6787  sellInfo[_owner][_listNo].amount */\n      0x02\n      add\n      sload\n        /* \"FacctoryContract/WagerContract.sol\":6718:6726  userInfo */\n      0x04\n        /* \"FacctoryContract/WagerContract.sol\":6718:6738  userInfo[msg.sender] */\n      0x00\n        /* \"FacctoryContract/WagerContract.sol\":6727:6737  msg.sender */\n      caller\n        /* \"FacctoryContract/WagerContract.sol\":6718:6738  userInfo[msg.sender] */\n      0xffffffffffffffffffffffffffffffffffffffff\n      and\n      0xffffffffffffffffffffffffffffffffffffffff\n      and\n      dup2\n      mstore\n      0x20\n      add\n      swap1\n      dup2\n      mstore\n      0x20\n      add\n      0x00\n      keccak256\n        /* \"FacctoryContract/WagerContract.sol\":6718:6751  userInfo[msg.sender].yesBetAmount */\n      0x03\n      add\n      0x00\n        /* \"FacctoryContract/WagerContract.sol\":6718:6787  userInfo[msg.sender].yesBetAmount += sellInfo[_owner][_listNo].amount */\n      dup3\n      dup3\n      sload\n      tag_304\n      swap2\n      swap1\n      tag_121\n      jump\t// in\n    tag_304:\n      swap3\n      pop\n      pop\n      dup2\n      swap1\n      sstore\n      pop\n        /* \"FacctoryContract/WagerContract.sol\":6395:6798  if(sellInfo[_owner][_listNo].listOn == 0){... */\n    tag_302:\n        /* \"FacctoryContract/WagerContract.sol\":6879:6883  true */\n      0x01\n        /* \"FacctoryContract/WagerContract.sol\":6816:6824  userInfo */\n      0x04\n        /* \"FacctoryContract/WagerContract.sol\":6816:6836  userInfo[msg.sender] */\n      0x00\n        /* \"FacctoryContract/WagerContract.sol\":6825:6835  msg.sender */\n      caller\n        /* \"FacctoryContract/WagerContract.sol\":6816:6836  userInfo[msg.sender] */\n      0xffffffffffffffffffffffffffffffffffffffff\n      and\n      0xffffffffffffffffffffffffffffffffffffffff\n      and\n      dup2\n      mstore\n      0x20\n      add\n      swap1\n      dup2\n      mstore\n      0x20\n      add\n      0x00\n      keccak256\n        /* \"FacctoryContract/WagerContract.sol\":6816:6842  userInfo[msg.sender].betOn */\n      0x05\n      add\n        /* \"FacctoryContract/WagerContract.sol\":6816:6876  userInfo[msg.sender].betOn[sellInfo[_owner][_listNo].listOn] */\n      0x00\n        /* \"FacctoryContract/WagerContract.sol\":6843:6851  sellInfo */\n      0x06\n        /* \"FacctoryContract/WagerContract.sol\":6843:6859  sellInfo[_owner] */\n      0x00\n        /* \"FacctoryContract/WagerContract.sol\":6852:6858  _owner */\n      dup6\n        /* \"FacctoryContract/WagerContract.sol\":6843:6859  sellInfo[_owner] */\n      0xffffffffffffffffffffffffffffffffffffffff\n      and\n      0xffffffffffffffffffffffffffffffffffffffff\n      and\n      dup2\n      mstore\n      0x20\n      add\n      swap1\n      dup2\n      mstore\n      0x20\n      add\n      0x00\n      keccak256\n        /* \"FacctoryContract/WagerContract.sol\":6843:6868  sellInfo[_owner][_listNo] */\n      0x00\n        /* \"FacctoryContract/WagerContract.sol\":6860:6867  _listNo */\n      dup7\n        /* \"FacctoryContract/WagerContract.sol\":6843:6868  sellInfo[_owner][_listNo] */\n      dup2\n      mstore\n      0x20\n      add\n      swap1\n      dup2\n      mstore\n      0x20\n      add\n      0x00\n      keccak256\n        /* \"FacctoryContract/WagerContract.sol\":6843:6875  sellInfo[_owner][_listNo].listOn */\n      0x03\n      add\n      sload\n        /* \"FacctoryContract/WagerContract.sol\":6816:6876  userInfo[msg.sender].betOn[sellInfo[_owner][_listNo].listOn] */\n      dup2\n      mstore\n      0x20\n      add\n      swap1\n      dup2\n      mstore\n      0x20\n      add\n      0x00\n      keccak256\n      0x00\n        /* \"FacctoryContract/WagerContract.sol\":6816:6883  userInfo[msg.sender].betOn[sellInfo[_owner][_listNo].listOn] = true */\n      0x0100\n      exp\n      dup2\n      sload\n      dup2\n      0xff\n      mul\n      not\n      and\n      swap1\n      dup4\n      iszero\n      iszero\n      mul\n      or\n      swap1\n      sstore\n      pop\n        /* \"FacctoryContract/WagerContract.sol\":6916:6926  msg.sender */\n      caller\n        /* \"FacctoryContract/WagerContract.sol\":6893:6901  eachUser */\n      0x03\n        /* \"FacctoryContract/WagerContract.sol\":6893:6913  eachUser[totalUsers] */\n      0x00\n        /* \"FacctoryContract/WagerContract.sol\":6902:6912  totalUsers */\n      sload(0x02)\n        /* \"FacctoryContract/WagerContract.sol\":6893:6913  eachUser[totalUsers] */\n      dup2\n      mstore\n      0x20\n      add\n      swap1\n      dup2\n      mstore\n      0x20\n      add\n      0x00\n      keccak256\n      0x00\n        /* \"FacctoryContract/WagerContract.sol\":6893:6926  eachUser[totalUsers] = msg.sender */\n      0x0100\n      exp\n      dup2\n      sload\n      dup2\n      0xffffffffffffffffffffffffffffffffffffffff\n      mul\n      not\n      and\n      swap1\n      dup4\n      0xffffffffffffffffffffffffffffffffffffffff\n      and\n      mul\n      or\n      swap1\n      sstore\n      pop\n        /* \"FacctoryContract/WagerContract.sol\":6936:6946  totalUsers */\n      0x02\n      0x00\n        /* \"FacctoryContract/WagerContract.sol\":6936:6948  totalUsers++ */\n      dup2\n      sload\n      dup1\n      swap3\n      swap2\n      swap1\n      tag_305\n      swap1\n      tag_152\n      jump\t// in\n    tag_305:\n      swap2\n      swap1\n      pop\n      sstore\n      pop\n        /* \"FacctoryContract/WagerContract.sol\":6959:6971  bool success */\n      0x00\n        /* \"FacctoryContract/WagerContract.sol\":6974:6983  usdcToken */\n      0x01\n      0x00\n      swap1\n      sload\n      swap1\n      0x0100\n      exp\n      swap1\n      div\n      0xffffffffffffffffffffffffffffffffffffffff\n      and\n        /* \"FacctoryContract/WagerContract.sol\":6974:6996  usdcToken.transferFrom */\n      0xffffffffffffffffffffffffffffffffffffffff\n      and\n      0x23b872dd\n        /* \"FacctoryContract/WagerContract.sol\":7010:7020  msg.sender */\n      caller\n        /* \"FacctoryContract/WagerContract.sol\":7034:7040  _owner */\n      dup5\n        /* \"FacctoryContract/WagerContract.sol\":7054:7062  sellInfo */\n      0x06\n        /* \"FacctoryContract/WagerContract.sol\":7054:7070  sellInfo[_owner] */\n      0x00\n        /* \"FacctoryContract/WagerContract.sol\":7063:7069  _owner */\n      dup8\n        /* \"FacctoryContract/WagerContract.sol\":7054:7070  sellInfo[_owner] */\n      0xffffffffffffffffffffffffffffffffffffffff\n      and\n      0xffffffffffffffffffffffffffffffffffffffff\n      and\n      dup2\n      mstore\n      0x20\n      add\n      swap1\n      dup2\n      mstore\n      0x20\n      add\n      0x00\n      keccak256\n        /* \"FacctoryContract/WagerContract.sol\":7054:7079  sellInfo[_owner][_listNo] */\n      0x00\n        /* \"FacctoryContract/WagerContract.sol\":7071:7078  _listNo */\n      dup9\n        /* \"FacctoryContract/WagerContract.sol\":7054:7079  sellInfo[_owner][_listNo] */\n      dup2\n      mstore\n      0x20\n      add\n      swap1\n      dup2\n      mstore\n      0x20\n      add\n      0x00\n      keccak256\n        /* \"FacctoryContract/WagerContract.sol\":7054:7085  sellInfo[_owner][_listNo].price */\n      0x01\n      add\n      sload\n        /* \"FacctoryContract/WagerContract.sol\":6974:7095  usdcToken.transferFrom(... */\n      mload(0x40)\n      dup5\n      0xffffffff\n      and\n      0xe0\n      shl\n      dup2\n      mstore\n      0x04\n      add\n      tag_306\n      swap4\n      swap3\n      swap2\n      swap1\n      tag_253\n      jump\t// in\n    tag_306:\n      0x20\n      mload(0x40)\n      dup1\n      dup4\n      sub\n      dup2\n      0x00\n      dup8\n      gas\n      call\n      iszero\n      dup1\n      iszero\n      tag_308\n      jumpi\n      returndatasize\n      0x00\n      dup1\n      returndatacopy\n      revert(0x00, returndatasize)\n    tag_308:\n      pop\n      pop\n      pop\n      pop\n      mload(0x40)\n      returndatasize\n      not(0x1f)\n      0x1f\n      dup3\n      add\n      and\n      dup3\n      add\n      dup1\n      0x40\n      mstore\n      pop\n      dup2\n      add\n      swap1\n      tag_309\n      swap2\n      swap1\n      tag_204\n      jump\t// in\n    tag_309:\n        /* \"FacctoryContract/WagerContract.sol\":6959:7095  bool success = usdcToken.transferFrom(... */\n      swap1\n      pop\n        /* \"FacctoryContract/WagerContract.sol\":7113:7120  success */\n      dup1\n        /* \"FacctoryContract/WagerContract.sol\":7105:7140  require(success, \"Transfer failed\") */\n      tag_310\n      jumpi\n      mload(0x40)\n      0x08c379a000000000000000000000000000000000000000000000000000000000\n      dup2\n      mstore\n      0x04\n      add\n      tag_311\n      swap1\n      tag_207\n      jump\t// in\n    tag_311:\n      mload(0x40)\n      dup1\n      swap2\n      sub\n      swap1\n      revert\n    tag_310:\n        /* \"FacctoryContract/WagerContract.sol\":7156:7250  BuyShare(msg.sender,_owner, sellInfo[_owner][_listNo].amount, sellInfo[_owner][_listNo].price) */\n      0xc891adf8dfbf643a02668e73c35bbbb3c8aa9d86e0dc779d260026cfc0ab8b99\n        /* \"FacctoryContract/WagerContract.sol\":7165:7175  msg.sender */\n      caller\n        /* \"FacctoryContract/WagerContract.sol\":7176:7182  _owner */\n      dup4\n        /* \"FacctoryContract/WagerContract.sol\":7184:7192  sellInfo */\n      0x06\n        /* \"FacctoryContract/WagerContract.sol\":7184:7200  sellInfo[_owner] */\n      0x00\n        /* \"FacctoryContract/WagerContract.sol\":7193:7199  _owner */\n      dup7\n        /* \"FacctoryContract/WagerContract.sol\":7184:7200  sellInfo[_owner] */\n      0xffffffffffffffffffffffffffffffffffffffff\n      and\n      0xffffffffffffffffffffffffffffffffffffffff\n      and\n      dup2\n      mstore\n      0x20\n      add\n      swap1\n      dup2\n      mstore\n      0x20\n      add\n      0x00\n      keccak256\n        /* \"FacctoryContract/WagerContract.sol\":7184:7209  sellInfo[_owner][_listNo] */\n      0x00\n        /* \"FacctoryContract/WagerContract.sol\":7201:7208  _listNo */\n      dup8\n        /* \"FacctoryContract/WagerContract.sol\":7184:7209  sellInfo[_owner][_listNo] */\n      dup2\n      mstore\n      0x20\n      add\n      swap1\n      dup2\n      mstore\n      0x20\n      add\n      0x00\n      keccak256\n        /* \"FacctoryContract/WagerContract.sol\":7184:7216  sellInfo[_owner][_listNo].amount */\n      0x02\n      add\n      sload\n        /* \"FacctoryContract/WagerContract.sol\":7218:7226  sellInfo */\n      0x06\n        /* \"FacctoryContract/WagerContract.sol\":7218:7234  sellInfo[_owner] */\n      0x00\n        /* \"FacctoryContract/WagerContract.sol\":7227:7233  _owner */\n      dup8\n        /* \"FacctoryContract/WagerContract.sol\":7218:7234  sellInfo[_owner] */\n      0xffffffffffffffffffffffffffffffffffffffff\n      and\n      0xffffffffffffffffffffffffffffffffffffffff\n      and\n      dup2\n      mstore\n      0x20\n      add\n      swap1\n      dup2\n      mstore\n      0x20\n      add\n      0x00\n      keccak256\n        /* \"FacctoryContract/WagerContract.sol\":7218:7243  sellInfo[_owner][_listNo] */\n      0x00\n        /* \"FacctoryContract/WagerContract.sol\":7235:7242  _listNo */\n      dup9\n        /* \"FacctoryContract/WagerContract.sol\":7218:7243  sellInfo[_owner][_listNo] */\n      dup2\n      mstore\n      0x20\n      add\n      swap1\n      dup2\n      mstore\n      0x20\n      add\n      0x00\n      keccak256\n        /* \"FacctoryContract/WagerContract.sol\":7218:7249  sellInfo[_owner][_listNo].price */\n      0x01\n      add\n      sload\n        /* \"FacctoryContract/WagerContract.sol\":7156:7250  BuyShare(msg.sender,_owner, sellInfo[_owner][_listNo].amount, sellInfo[_owner][_listNo].price) */\n      mload(0x40)\n      tag_312\n      swap5\n      swap4\n      swap3\n      swap2\n      swap1\n      tag_313\n      jump\t// in\n    tag_312:\n      mload(0x40)\n      dup1\n      swap2\n      sub\n      swap1\n      log1\n        /* \"FacctoryContract/WagerContract.sol\":5844:7257  {... */\n      pop\n        /* \"FacctoryContract/WagerContract.sol\":5784:7257  function buyShare(uint256 _listNo, address _owner) external {... */\n      pop\n      pop\n      jump\t// out\n        /* \"@openzeppelin/contracts/access/Ownable.sol\":1796:1958  function _checkOwner() internal view virtual {... */\n    tag_262:\n        /* \"@openzeppelin/contracts/access/Ownable.sol\":1866:1878  _msgSender() */\n      tag_315\n        /* \"@openzeppelin/contracts/access/Ownable.sol\":1866:1876  _msgSender */\n      tag_316\n        /* \"@openzeppelin/contracts/access/Ownable.sol\":1866:1878  _msgSender() */\n      jump\t// in\n    tag_315:\n        /* \"@openzeppelin/contracts/access/Ownable.sol\":1855:1878  owner() != _msgSender() */\n      0xffffffffffffffffffffffffffffffffffffffff\n      and\n        /* \"@openzeppelin/contracts/access/Ownable.sol\":1855:1862  owner() */\n      tag_317\n        /* \"@openzeppelin/contracts/access/Ownable.sol\":1855:1860  owner */\n      tag_83\n        /* \"@openzeppelin/contracts/access/Ownable.sol\":1855:1862  owner() */\n      jump\t// in\n    tag_317:\n        /* \"@openzeppelin/contracts/access/Ownable.sol\":1855:1878  owner() != _msgSender() */\n      0xffffffffffffffffffffffffffffffffffffffff\n      and\n      eq\n        /* \"@openzeppelin/contracts/access/Ownable.sol\":1851:1952  if (owner() != _msgSender()) {... */\n      tag_318\n      jumpi\n        /* \"@openzeppelin/contracts/access/Ownable.sol\":1928:1940  _msgSender() */\n      tag_319\n        /* \"@openzeppelin/contracts/access/Ownable.sol\":1928:1938  _msgSender */\n      tag_316\n        /* \"@openzeppelin/contracts/access/Ownable.sol\":1928:1940  _msgSender() */\n      jump\t// in\n    tag_319:\n        /* \"@openzeppelin/contracts/access/Ownable.sol\":1901:1941  OwnableUnauthorizedAccount(_msgSender()) */\n      mload(0x40)\n      0x118cdaa700000000000000000000000000000000000000000000000000000000\n      dup2\n      mstore\n      0x04\n      add\n      tag_320\n      swap2\n      swap1\n      tag_30\n      jump\t// in\n    tag_320:\n      mload(0x40)\n      dup1\n      swap2\n      sub\n      swap1\n      revert\n        /* \"@openzeppelin/contracts/access/Ownable.sol\":1851:1952  if (owner() != _msgSender()) {... */\n    tag_318:\n        /* \"@openzeppelin/contracts/access/Ownable.sol\":1796:1958  function _checkOwner() internal view virtual {... */\n      jump\t// out\n        /* \"@openzeppelin/contracts/access/Ownable.sol\":2912:3099  function _transferOwnership(address newOwner) internal virtual {... */\n    tag_265:\n        /* \"@openzeppelin/contracts/access/Ownable.sol\":2985:3001  address oldOwner */\n      0x00\n        /* \"@openzeppelin/contracts/access/Ownable.sol\":3004:3010  _owner */\n      dup1\n      0x00\n      swap1\n      sload\n      swap1\n      0x0100\n      exp\n      swap1\n      div\n      0xffffffffffffffffffffffffffffffffffffffff\n      and\n        /* \"@openzeppelin/contracts/access/Ownable.sol\":2985:3010  address oldOwner = _owner */\n      swap1\n      pop\n        /* \"@openzeppelin/contracts/access/Ownable.sol\":3029:3037  newOwner */\n      dup2\n        /* \"@openzeppelin/contracts/access/Ownable.sol\":3020:3026  _owner */\n      0x00\n      dup1\n        /* \"@openzeppelin/contracts/access/Ownable.sol\":3020:3037  _owner = newOwner */\n      0x0100\n      exp\n      dup2\n      sload\n      dup2\n      0xffffffffffffffffffffffffffffffffffffffff\n      mul\n      not\n      and\n      swap1\n      dup4\n      0xffffffffffffffffffffffffffffffffffffffff\n      and\n      mul\n      or\n      swap1\n      sstore\n      pop\n        /* \"@openzeppelin/contracts/access/Ownable.sol\":3083:3091  newOwner */\n      dup2\n        /* \"@openzeppelin/contracts/access/Ownable.sol\":3052:3092  OwnershipTransferred(oldOwner, newOwner) */\n      0xffffffffffffffffffffffffffffffffffffffff\n      and\n        /* \"@openzeppelin/contracts/access/Ownable.sol\":3073:3081  oldOwner */\n      dup2\n        /* \"@openzeppelin/contracts/access/Ownable.sol\":3052:3092  OwnershipTransferred(oldOwner, newOwner) */\n      0xffffffffffffffffffffffffffffffffffffffff\n      and\n      0x8be0079c531659141344cd1fd0a4f28419497f9722a3daafe3b4186f6b6457e0\n      mload(0x40)\n      mload(0x40)\n      dup1\n      swap2\n      sub\n      swap1\n      log3\n        /* \"@openzeppelin/contracts/access/Ownable.sol\":2975:3099  {... */\n      pop\n        /* \"@openzeppelin/contracts/access/Ownable.sol\":2912:3099  function _transferOwnership(address newOwner) internal virtual {... */\n      pop\n      jump\t// out\n        /* \"@openzeppelin/contracts/utils/Context.sol\":656:752  function _msgSender() internal view virtual returns (address) {... */\n    tag_316:\n        /* \"@openzeppelin/contracts/utils/Context.sol\":709:716  address */\n      0x00\n        /* \"@openzeppelin/contracts/utils/Context.sol\":735:745  msg.sender */\n      caller\n        /* \"@openzeppelin/contracts/utils/Context.sol\":728:745  return msg.sender */\n      swap1\n      pop\n        /* \"@openzeppelin/contracts/utils/Context.sol\":656:752  function _msgSender() internal view virtual returns (address) {... */\n      swap1\n      jump\t// out\n        /* \"#utility.yul\":88:205   */\n    tag_324:\n        /* \"#utility.yul\":197:198   */\n      0x00\n        /* \"#utility.yul\":194:195   */\n      dup1\n        /* \"#utility.yul\":187:199   */\n      revert\n        /* \"#utility.yul\":334:411   */\n    tag_326:\n        /* \"#utility.yul\":371:378   */\n      0x00\n        /* \"#utility.yul\":400:405   */\n      dup2\n        /* \"#utility.yul\":389:405   */\n      swap1\n      pop\n        /* \"#utility.yul\":334:411   */\n      swap2\n      swap1\n      pop\n      jump\t// out\n        /* \"#utility.yul\":417:539   */\n    tag_327:\n        /* \"#utility.yul\":490:514   */\n      tag_362\n        /* \"#utility.yul\":508:513   */\n      dup2\n        /* \"#utility.yul\":490:514   */\n      tag_326\n      jump\t// in\n    tag_362:\n        /* \"#utility.yul\":483:488   */\n      dup2\n        /* \"#utility.yul\":480:515   */\n      eq\n        /* \"#utility.yul\":470:533   */\n      tag_363\n      jumpi\n        /* \"#utility.yul\":529:530   */\n      0x00\n        /* \"#utility.yul\":526:527   */\n      dup1\n        /* \"#utility.yul\":519:531   */\n      revert\n        /* \"#utility.yul\":470:533   */\n    tag_363:\n        /* \"#utility.yul\":417:539   */\n      pop\n      jump\t// out\n        /* \"#utility.yul\":545:684   */\n    tag_328:\n        /* \"#utility.yul\":591:596   */\n      0x00\n        /* \"#utility.yul\":629:635   */\n      dup2\n        /* \"#utility.yul\":616:636   */\n      calldataload\n        /* \"#utility.yul\":607:636   */\n      swap1\n      pop\n        /* \"#utility.yul\":645:678   */\n      tag_365\n        /* \"#utility.yul\":672:677   */\n      dup2\n        /* \"#utility.yul\":645:678   */\n      tag_327\n      jump\t// in\n    tag_365:\n        /* \"#utility.yul\":545:684   */\n      swap3\n      swap2\n      pop\n      pop\n      jump\t// out\n        /* \"#utility.yul\":690:1019   */\n    tag_27:\n        /* \"#utility.yul\":749:755   */\n      0x00\n        /* \"#utility.yul\":798:800   */\n      0x20\n        /* \"#utility.yul\":786:795   */\n      dup3\n        /* \"#utility.yul\":777:784   */\n      dup5\n        /* \"#utility.yul\":773:796   */\n      sub\n        /* \"#utility.yul\":769:801   */\n      slt\n        /* \"#utility.yul\":766:885   */\n      iszero\n      tag_367\n      jumpi\n        /* \"#utility.yul\":804:883   */\n      tag_368\n      tag_324\n      jump\t// in\n    tag_368:\n        /* \"#utility.yul\":766:885   */\n    tag_367:\n        /* \"#utility.yul\":924:925   */\n      0x00\n        /* \"#utility.yul\":949:1002   */\n      tag_369\n        /* \"#utility.yul\":994:1001   */\n      dup5\n        /* \"#utility.yul\":985:991   */\n      dup3\n        /* \"#utility.yul\":974:983   */\n      dup6\n        /* \"#utility.yul\":970:992   */\n      add\n        /* \"#utility.yul\":949:1002   */\n      tag_328\n      jump\t// in\n    tag_369:\n        /* \"#utility.yul\":939:1002   */\n      swap2\n      pop\n        /* \"#utility.yul\":895:1012   */\n      pop\n        /* \"#utility.yul\":690:1019   */\n      swap3\n      swap2\n      pop\n      pop\n      jump\t// out\n        /* \"#utility.yul\":1025:1151   */\n    tag_329:\n        /* \"#utility.yul\":1062:1069   */\n      0x00\n        /* \"#utility.yul\":1102:1144   */\n      0xffffffffffffffffffffffffffffffffffffffff\n        /* \"#utility.yul\":1095:1100   */\n      dup3\n        /* \"#utility.yul\":1091:1145   */\n      and\n        /* \"#utility.yul\":1080:1145   */\n      swap1\n      pop\n        /* \"#utility.yul\":1025:1151   */\n      swap2\n      swap1\n      pop\n      jump\t// out\n        /* \"#utility.yul\":1157:1253   */\n    tag_330:\n        /* \"#utility.yul\":1194:1201   */\n      0x00\n        /* \"#utility.yul\":1223:1247   */\n      tag_372\n        /* \"#utility.yul\":1241:1246   */\n      dup3\n        /* \"#utility.yul\":1223:1247   */\n      tag_329\n      jump\t// in\n    tag_372:\n        /* \"#utility.yul\":1212:1247   */\n      swap1\n      pop\n        /* \"#utility.yul\":1157:1253   */\n      swap2\n      swap1\n      pop\n      jump\t// out\n        /* \"#utility.yul\":1259:1377   */\n    tag_331:\n        /* \"#utility.yul\":1346:1370   */\n      tag_374\n        /* \"#utility.yul\":1364:1369   */\n      dup2\n        /* \"#utility.yul\":1346:1370   */\n      tag_330\n      jump\t// in\n    tag_374:\n        /* \"#utility.yul\":1341:1344   */\n      dup3\n        /* \"#utility.yul\":1334:1371   */\n      mstore\n        /* \"#utility.yul\":1259:1377   */\n      pop\n      pop\n      jump\t// out\n        /* \"#utility.yul\":1383:1605   */\n    tag_30:\n        /* \"#utility.yul\":1476:1480   */\n      0x00\n        /* \"#utility.yul\":1514:1516   */\n      0x20\n        /* \"#utility.yul\":1503:1512   */\n      dup3\n        /* \"#utility.yul\":1499:1517   */\n      add\n        /* \"#utility.yul\":1491:1517   */\n      swap1\n      pop\n        /* \"#utility.yul\":1527:1598   */\n      tag_376\n        /* \"#utility.yul\":1595:1596   */\n      0x00\n        /* \"#utility.yul\":1584:1593   */\n      dup4\n        /* \"#utility.yul\":1580:1597   */\n      add\n        /* \"#utility.yul\":1571:1577   */\n      dup5\n        /* \"#utility.yul\":1527:1598   */\n      tag_331\n      jump\t// in\n    tag_376:\n        /* \"#utility.yul\":1383:1605   */\n      swap3\n      swap2\n      pop\n      pop\n      jump\t// out\n        /* \"#utility.yul\":1611:1733   */\n    tag_332:\n        /* \"#utility.yul\":1684:1708   */\n      tag_378\n        /* \"#utility.yul\":1702:1707   */\n      dup2\n        /* \"#utility.yul\":1684:1708   */\n      tag_330\n      jump\t// in\n    tag_378:\n        /* \"#utility.yul\":1677:1682   */\n      dup2\n        /* \"#utility.yul\":1674:1709   */\n      eq\n        /* \"#utility.yul\":1664:1727   */\n      tag_379\n      jumpi\n        /* \"#utility.yul\":1723:1724   */\n      0x00\n        /* \"#utility.yul\":1720:1721   */\n      dup1\n        /* \"#utility.yul\":1713:1725   */\n      revert\n        /* \"#utility.yul\":1664:1727   */\n    tag_379:\n        /* \"#utility.yul\":1611:1733   */\n      pop\n      jump\t// out\n        /* \"#utility.yul\":1739:1878   */\n    tag_333:\n        /* \"#utility.yul\":1785:1790   */\n      0x00\n        /* \"#utility.yul\":1823:1829   */\n      dup2\n        /* \"#utility.yul\":1810:1830   */\n      calldataload\n        /* \"#utility.yul\":1801:1830   */\n      swap1\n      pop\n        /* \"#utility.yul\":1839:1872   */\n      tag_381\n        /* \"#utility.yul\":1866:1871   */\n      dup2\n        /* \"#utility.yul\":1839:1872   */\n      tag_332\n      jump\t// in\n    tag_381:\n        /* \"#utility.yul\":1739:1878   */\n      swap3\n      swap2\n      pop\n      pop\n      jump\t// out\n        /* \"#utility.yul\":1884:2358   */\n    tag_33:\n        /* \"#utility.yul\":1952:1958   */\n      0x00\n        /* \"#utility.yul\":1960:1966   */\n      dup1\n        /* \"#utility.yul\":2009:2011   */\n      0x40\n        /* \"#utility.yul\":1997:2006   */\n      dup4\n        /* \"#utility.yul\":1988:1995   */\n      dup6\n        /* \"#utility.yul\":1984:2007   */\n      sub\n        /* \"#utility.yul\":1980:2012   */\n      slt\n        /* \"#utility.yul\":1977:2096   */\n      iszero\n      tag_383\n      jumpi\n        /* \"#utility.yul\":2015:2094   */\n      tag_384\n      tag_324\n      jump\t// in\n    tag_384:\n        /* \"#utility.yul\":1977:2096   */\n    tag_383:\n        /* \"#utility.yul\":2135:2136   */\n      0x00\n        /* \"#utility.yul\":2160:2213   */\n      tag_385\n        /* \"#utility.yul\":2205:2212   */\n      dup6\n        /* \"#utility.yul\":2196:2202   */\n      dup3\n        /* \"#utility.yul\":2185:2194   */\n      dup7\n        /* \"#utility.yul\":2181:2203   */\n      add\n        /* \"#utility.yul\":2160:2213   */\n      tag_333\n      jump\t// in\n    tag_385:\n        /* \"#utility.yul\":2150:2213   */\n      swap3\n      pop\n        /* \"#utility.yul\":2106:2223   */\n      pop\n        /* \"#utility.yul\":2262:2264   */\n      0x20\n        /* \"#utility.yul\":2288:2341   */\n      tag_386\n        /* \"#utility.yul\":2333:2340   */\n      dup6\n        /* \"#utility.yul\":2324:2330   */\n      dup3\n        /* \"#utility.yul\":2313:2322   */\n      dup7\n        /* \"#utility.yul\":2309:2331   */\n      add\n        /* \"#utility.yul\":2288:2341   */\n      tag_328\n      jump\t// in\n    tag_386:\n        /* \"#utility.yul\":2278:2341   */\n      swap2\n      pop\n        /* \"#utility.yul\":2233:2351   */\n      pop\n        /* \"#utility.yul\":1884:2358   */\n      swap3\n      pop\n      swap3\n      swap1\n      pop\n      jump\t// out\n        /* \"#utility.yul\":2364:2454   */\n    tag_334:\n        /* \"#utility.yul\":2398:2405   */\n      0x00\n        /* \"#utility.yul\":2441:2446   */\n      dup2\n        /* \"#utility.yul\":2434:2447   */\n      iszero\n        /* \"#utility.yul\":2427:2448   */\n      iszero\n        /* \"#utility.yul\":2416:2448   */\n      swap1\n      pop\n        /* \"#utility.yul\":2364:2454   */\n      swap2\n      swap1\n      pop\n      jump\t// out\n        /* \"#utility.yul\":2460:2569   */\n    tag_335:\n        /* \"#utility.yul\":2541:2562   */\n      tag_389\n        /* \"#utility.yul\":2556:2561   */\n      dup2\n        /* \"#utility.yul\":2541:2562   */\n      tag_334\n      jump\t// in\n    tag_389:\n        /* \"#utility.yul\":2536:2539   */\n      dup3\n        /* \"#utility.yul\":2529:2563   */\n      mstore\n        /* \"#utility.yul\":2460:2569   */\n      pop\n      pop\n      jump\t// out\n        /* \"#utility.yul\":2575:2785   */\n    tag_36:\n        /* \"#utility.yul\":2662:2666   */\n      0x00\n        /* \"#utility.yul\":2700:2702   */\n      0x20\n        /* \"#utility.yul\":2689:2698   */\n      dup3\n        /* \"#utility.yul\":2685:2703   */\n      add\n        /* \"#utility.yul\":2677:2703   */\n      swap1\n      pop\n        /* \"#utility.yul\":2713:2778   */\n      tag_391\n        /* \"#utility.yul\":2775:2776   */\n      0x00\n        /* \"#utility.yul\":2764:2773   */\n      dup4\n        /* \"#utility.yul\":2760:2777   */\n      add\n        /* \"#utility.yul\":2751:2757   */\n      dup5\n        /* \"#utility.yul\":2713:2778   */\n      tag_335\n      jump\t// in\n    tag_391:\n        /* \"#utility.yul\":2575:2785   */\n      swap3\n      swap2\n      pop\n      pop\n      jump\t// out\n        /* \"#utility.yul\":2791:2851   */\n    tag_336:\n        /* \"#utility.yul\":2819:2822   */\n      0x00\n        /* \"#utility.yul\":2840:2845   */\n      dup2\n        /* \"#utility.yul\":2833:2845   */\n      swap1\n      pop\n        /* \"#utility.yul\":2791:2851   */\n      swap2\n      swap1\n      pop\n      jump\t// out\n        /* \"#utility.yul\":2857:2999   */\n    tag_337:\n        /* \"#utility.yul\":2907:2916   */\n      0x00\n        /* \"#utility.yul\":2940:2993   */\n      tag_394\n        /* \"#utility.yul\":2958:2992   */\n      tag_395\n        /* \"#utility.yul\":2967:2991   */\n      tag_396\n        /* \"#utility.yul\":2985:2990   */\n      dup5\n        /* \"#utility.yul\":2967:2991   */\n      tag_329\n      jump\t// in\n    tag_396:\n        /* \"#utility.yul\":2958:2992   */\n      tag_336\n      jump\t// in\n    tag_395:\n        /* \"#utility.yul\":2940:2993   */\n      tag_329\n      jump\t// in\n    tag_394:\n        /* \"#utility.yul\":2927:2993   */\n      swap1\n      pop\n        /* \"#utility.yul\":2857:2999   */\n      swap2\n      swap1\n      pop\n      jump\t// out\n        /* \"#utility.yul\":3005:3131   */\n    tag_338:\n        /* \"#utility.yul\":3055:3064   */\n      0x00\n        /* \"#utility.yul\":3088:3125   */\n      tag_398\n        /* \"#utility.yul\":3119:3124   */\n      dup3\n        /* \"#utility.yul\":3088:3125   */\n      tag_337\n      jump\t// in\n    tag_398:\n        /* \"#utility.yul\":3075:3125   */\n      swap1\n      pop\n        /* \"#utility.yul\":3005:3131   */\n      swap2\n      swap1\n      pop\n      jump\t// out\n        /* \"#utility.yul\":3137:3276   */\n    tag_339:\n        /* \"#utility.yul\":3200:3209   */\n      0x00\n        /* \"#utility.yul\":3233:3270   */\n      tag_400\n        /* \"#utility.yul\":3264:3269   */\n      dup3\n        /* \"#utility.yul\":3233:3270   */\n      tag_338\n      jump\t// in\n    tag_400:\n        /* \"#utility.yul\":3220:3270   */\n      swap1\n      pop\n        /* \"#utility.yul\":3137:3276   */\n      swap2\n      swap1\n      pop\n      jump\t// out\n        /* \"#utility.yul\":3282:3439   */\n    tag_340:\n        /* \"#utility.yul\":3382:3432   */\n      tag_402\n        /* \"#utility.yul\":3426:3431   */\n      dup2\n        /* \"#utility.yul\":3382:3432   */\n      tag_339\n      jump\t// in\n    tag_402:\n        /* \"#utility.yul\":3377:3380   */\n      dup3\n        /* \"#utility.yul\":3370:3433   */\n      mstore\n        /* \"#utility.yul\":3282:3439   */\n      pop\n      pop\n      jump\t// out\n        /* \"#utility.yul\":3445:3693   */\n    tag_40:\n        /* \"#utility.yul\":3551:3555   */\n      0x00\n        /* \"#utility.yul\":3589:3591   */\n      0x20\n        /* \"#utility.yul\":3578:3587   */\n      dup3\n        /* \"#utility.yul\":3574:3592   */\n      add\n        /* \"#utility.yul\":3566:3592   */\n      swap1\n      pop\n        /* \"#utility.yul\":3602:3686   */\n      tag_404\n        /* \"#utility.yul\":3683:3684   */\n      0x00\n        /* \"#utility.yul\":3672:3681   */\n      dup4\n        /* \"#utility.yul\":3668:3685   */\n      add\n        /* \"#utility.yul\":3659:3665   */\n      dup5\n        /* \"#utility.yul\":3602:3686   */\n      tag_340\n      jump\t// in\n    tag_404:\n        /* \"#utility.yul\":3445:3693   */\n      swap3\n      swap2\n      pop\n      pop\n      jump\t// out\n        /* \"#utility.yul\":3699:4028   */\n    tag_43:\n        /* \"#utility.yul\":3758:3764   */\n      0x00\n        /* \"#utility.yul\":3807:3809   */\n      0x20\n        /* \"#utility.yul\":3795:3804   */\n      dup3\n        /* \"#utility.yul\":3786:3793   */\n      dup5\n        /* \"#utility.yul\":3782:3805   */\n      sub\n        /* \"#utility.yul\":3778:3810   */\n      slt\n        /* \"#utility.yul\":3775:3894   */\n      iszero\n      tag_406\n      jumpi\n        /* \"#utility.yul\":3813:3892   */\n      tag_407\n      tag_324\n      jump\t// in\n    tag_407:\n        /* \"#utility.yul\":3775:3894   */\n    tag_406:\n        /* \"#utility.yul\":3933:3934   */\n      0x00\n        /* \"#utility.yul\":3958:4011   */\n      tag_408\n        /* \"#utility.yul\":4003:4010   */\n      dup5\n        /* \"#utility.yul\":3994:4000   */\n      dup3\n        /* \"#utility.yul\":3983:3992   */\n      dup6\n        /* \"#utility.yul\":3979:4001   */\n      add\n        /* \"#utility.yul\":3958:4011   */\n      tag_333\n      jump\t// in\n    tag_408:\n        /* \"#utility.yul\":3948:4011   */\n      swap2\n      pop\n        /* \"#utility.yul\":3904:4021   */\n      pop\n        /* \"#utility.yul\":3699:4028   */\n      swap3\n      swap2\n      pop\n      pop\n      jump\t// out\n        /* \"#utility.yul\":4034:4152   */\n    tag_341:\n        /* \"#utility.yul\":4121:4145   */\n      tag_410\n        /* \"#utility.yul\":4139:4144   */\n      dup2\n        /* \"#utility.yul\":4121:4145   */\n      tag_326\n      jump\t// in\n    tag_410:\n        /* \"#utility.yul\":4116:4119   */\n      dup3\n        /* \"#utility.yul\":4109:4146   */\n      mstore\n        /* \"#utility.yul\":4034:4152   */\n      pop\n      pop\n      jump\t// out\n        /* \"#utility.yul\":4158:4822   */\n    tag_46:\n        /* \"#utility.yul\":4363:4367   */\n      0x00\n        /* \"#utility.yul\":4401:4404   */\n      0xa0\n        /* \"#utility.yul\":4390:4399   */\n      dup3\n        /* \"#utility.yul\":4386:4405   */\n      add\n        /* \"#utility.yul\":4378:4405   */\n      swap1\n      pop\n        /* \"#utility.yul\":4415:4486   */\n      tag_412\n        /* \"#utility.yul\":4483:4484   */\n      0x00\n        /* \"#utility.yul\":4472:4481   */\n      dup4\n        /* \"#utility.yul\":4468:4485   */\n      add\n        /* \"#utility.yul\":4459:4465   */\n      dup9\n        /* \"#utility.yul\":4415:4486   */\n      tag_341\n      jump\t// in\n    tag_412:\n        /* \"#utility.yul\":4496:4568   */\n      tag_413\n        /* \"#utility.yul\":4564:4566   */\n      0x20\n        /* \"#utility.yul\":4553:4562   */\n      dup4\n        /* \"#utility.yul\":4549:4567   */\n      add\n        /* \"#utility.yul\":4540:4546   */\n      dup8\n        /* \"#utility.yul\":4496:4568   */\n      tag_341\n      jump\t// in\n    tag_413:\n        /* \"#utility.yul\":4578:4650   */\n      tag_414\n        /* \"#utility.yul\":4646:4648   */\n      0x40\n        /* \"#utility.yul\":4635:4644   */\n      dup4\n        /* \"#utility.yul\":4631:4649   */\n      add\n        /* \"#utility.yul\":4622:4628   */\n      dup7\n        /* \"#utility.yul\":4578:4650   */\n      tag_341\n      jump\t// in\n    tag_414:\n        /* \"#utility.yul\":4660:4732   */\n      tag_415\n        /* \"#utility.yul\":4728:4730   */\n      0x60\n        /* \"#utility.yul\":4717:4726   */\n      dup4\n        /* \"#utility.yul\":4713:4731   */\n      add\n        /* \"#utility.yul\":4704:4710   */\n      dup6\n        /* \"#utility.yul\":4660:4732   */\n      tag_341\n      jump\t// in\n    tag_415:\n        /* \"#utility.yul\":4742:4815   */\n      tag_416\n        /* \"#utility.yul\":4810:4813   */\n      0x80\n        /* \"#utility.yul\":4799:4808   */\n      dup4\n        /* \"#utility.yul\":4795:4814   */\n      add\n        /* \"#utility.yul\":4786:4792   */\n      dup5\n        /* \"#utility.yul\":4742:4815   */\n      tag_341\n      jump\t// in\n    tag_416:\n        /* \"#utility.yul\":4158:4822   */\n      swap7\n      swap6\n      pop\n      pop\n      pop\n      pop\n      pop\n      pop\n      jump\t// out\n        /* \"#utility.yul\":4828:5160   */\n    tag_50:\n        /* \"#utility.yul\":4949:4953   */\n      0x00\n        /* \"#utility.yul\":4987:4989   */\n      0x40\n        /* \"#utility.yul\":4976:4985   */\n      dup3\n        /* \"#utility.yul\":4972:4990   */\n      add\n        /* \"#utility.yul\":4964:4990   */\n      swap1\n      pop\n        /* \"#utility.yul\":5000:5071   */\n      tag_418\n        /* \"#utility.yul\":5068:5069   */\n      0x00\n        /* \"#utility.yul\":5057:5066   */\n      dup4\n        /* \"#utility.yul\":5053:5070   */\n      add\n        /* \"#utility.yul\":5044:5050   */\n      dup6\n        /* \"#utility.yul\":5000:5071   */\n      tag_341\n      jump\t// in\n    tag_418:\n        /* \"#utility.yul\":5081:5153   */\n      tag_419\n        /* \"#utility.yul\":5149:5151   */\n      0x20\n        /* \"#utility.yul\":5138:5147   */\n      dup4\n        /* \"#utility.yul\":5134:5152   */\n      add\n        /* \"#utility.yul\":5125:5131   */\n      dup5\n        /* \"#utility.yul\":5081:5153   */\n      tag_341\n      jump\t// in\n    tag_419:\n        /* \"#utility.yul\":4828:5160   */\n      swap4\n      swap3\n      pop\n      pop\n      pop\n      jump\t// out\n        /* \"#utility.yul\":5166:5640   */\n    tag_53:\n        /* \"#utility.yul\":5234:5240   */\n      0x00\n        /* \"#utility.yul\":5242:5248   */\n      dup1\n        /* \"#utility.yul\":5291:5293   */\n      0x40\n        /* \"#utility.yul\":5279:5288   */\n      dup4\n        /* \"#utility.yul\":5270:5277   */\n      dup6\n        /* \"#utility.yul\":5266:5289   */\n      sub\n        /* \"#utility.yul\":5262:5294   */\n      slt\n        /* \"#utility.yul\":5259:5378   */\n      iszero\n      tag_421\n      jumpi\n        /* \"#utility.yul\":5297:5376   */\n      tag_422\n      tag_324\n      jump\t// in\n    tag_422:\n        /* \"#utility.yul\":5259:5378   */\n    tag_421:\n        /* \"#utility.yul\":5417:5418   */\n      0x00\n        /* \"#utility.yul\":5442:5495   */\n      tag_423\n        /* \"#utility.yul\":5487:5494   */\n      dup6\n        /* \"#utility.yul\":5478:5484   */\n      dup3\n        /* \"#utility.yul\":5467:5476   */\n      dup7\n        /* \"#utility.yul\":5463:5485   */\n      add\n        /* \"#utility.yul\":5442:5495   */\n      tag_328\n      jump\t// in\n    tag_423:\n        /* \"#utility.yul\":5432:5495   */\n      swap3\n      pop\n        /* \"#utility.yul\":5388:5505   */\n      pop\n        /* \"#utility.yul\":5544:5546   */\n      0x20\n        /* \"#utility.yul\":5570:5623   */\n      tag_424\n        /* \"#utility.yul\":5615:5622   */\n      dup6\n        /* \"#utility.yul\":5606:5612   */\n      dup3\n        /* \"#utility.yul\":5595:5604   */\n      dup7\n        /* \"#utility.yul\":5591:5613   */\n      add\n        /* \"#utility.yul\":5570:5623   */\n      tag_328\n      jump\t// in\n    tag_424:\n        /* \"#utility.yul\":5560:5623   */\n      swap2\n      pop\n        /* \"#utility.yul\":5515:5633   */\n      pop\n        /* \"#utility.yul\":5166:5640   */\n      swap3\n      pop\n      swap3\n      swap1\n      pop\n      jump\t// out\n        /* \"#utility.yul\":5646:6397   */\n    tag_60:\n        /* \"#utility.yul\":5867:5871   */\n      0x00\n        /* \"#utility.yul\":5905:5908   */\n      0xc0\n        /* \"#utility.yul\":5894:5903   */\n      dup3\n        /* \"#utility.yul\":5890:5909   */\n      add\n        /* \"#utility.yul\":5882:5909   */\n      swap1\n      pop\n        /* \"#utility.yul\":5919:5984   */\n      tag_426\n        /* \"#utility.yul\":5981:5982   */\n      0x00\n        /* \"#utility.yul\":5970:5979   */\n      dup4\n        /* \"#utility.yul\":5966:5983   */\n      add\n        /* \"#utility.yul\":5957:5963   */\n      dup10\n        /* \"#utility.yul\":5919:5984   */\n      tag_335\n      jump\t// in\n    tag_426:\n        /* \"#utility.yul\":5994:6060   */\n      tag_427\n        /* \"#utility.yul\":6056:6058   */\n      0x20\n        /* \"#utility.yul\":6045:6054   */\n      dup4\n        /* \"#utility.yul\":6041:6059   */\n      add\n        /* \"#utility.yul\":6032:6038   */\n      dup9\n        /* \"#utility.yul\":5994:6060   */\n      tag_335\n      jump\t// in\n    tag_427:\n        /* \"#utility.yul\":6070:6142   */\n      tag_428\n        /* \"#utility.yul\":6138:6140   */\n      0x40\n        /* \"#utility.yul\":6127:6136   */\n      dup4\n        /* \"#utility.yul\":6123:6141   */\n      add\n        /* \"#utility.yul\":6114:6120   */\n      dup8\n        /* \"#utility.yul\":6070:6142   */\n      tag_331\n      jump\t// in\n    tag_428:\n        /* \"#utility.yul\":6152:6224   */\n      tag_429\n        /* \"#utility.yul\":6220:6222   */\n      0x60\n        /* \"#utility.yul\":6209:6218   */\n      dup4\n        /* \"#utility.yul\":6205:6223   */\n      add\n        /* \"#utility.yul\":6196:6202   */\n      dup7\n        /* \"#utility.yul\":6152:6224   */\n      tag_341\n      jump\t// in\n    tag_429:\n        /* \"#utility.yul\":6234:6307   */\n      tag_430\n        /* \"#utility.yul\":6302:6305   */\n      0x80\n        /* \"#utility.yul\":6291:6300   */\n      dup4\n        /* \"#utility.yul\":6287:6306   */\n      add\n        /* \"#utility.yul\":6278:6284   */\n      dup6\n        /* \"#utility.yul\":6234:6307   */\n      tag_341\n      jump\t// in\n    tag_430:\n        /* \"#utility.yul\":6317:6390   */\n      tag_431\n        /* \"#utility.yul\":6385:6388   */\n      0xa0\n        /* \"#utility.yul\":6374:6383   */\n      dup4\n        /* \"#utility.yul\":6370:6389   */\n      add\n        /* \"#utility.yul\":6361:6367   */\n      dup5\n        /* \"#utility.yul\":6317:6390   */\n      tag_341\n      jump\t// in\n    tag_431:\n        /* \"#utility.yul\":5646:6397   */\n      swap8\n      swap7\n      pop\n      pop\n      pop\n      pop\n      pop\n      pop\n      pop\n      jump\t// out\n        /* \"#utility.yul\":6403:7022   */\n    tag_63:\n        /* \"#utility.yul\":6480:6486   */\n      0x00\n        /* \"#utility.yul\":6488:6494   */\n      dup1\n        /* \"#utility.yul\":6496:6502   */\n      0x00\n        /* \"#utility.yul\":6545:6547   */\n      0x60\n        /* \"#utility.yul\":6533:6542   */\n      dup5\n        /* \"#utility.yul\":6524:6531   */\n      dup7\n        /* \"#utility.yul\":6520:6543   */\n      sub\n        /* \"#utility.yul\":6516:6548   */\n      slt\n        /* \"#utility.yul\":6513:6632   */\n      iszero\n      tag_433\n      jumpi\n        /* \"#utility.yul\":6551:6630   */\n      tag_434\n      tag_324\n      jump\t// in\n    tag_434:\n        /* \"#utility.yul\":6513:6632   */\n    tag_433:\n        /* \"#utility.yul\":6671:6672   */\n      0x00\n        /* \"#utility.yul\":6696:6749   */\n      tag_435\n        /* \"#utility.yul\":6741:6748   */\n      dup7\n        /* \"#utility.yul\":6732:6738   */\n      dup3\n        /* \"#utility.yul\":6721:6730   */\n      dup8\n        /* \"#utility.yul\":6717:6739   */\n      add\n        /* \"#utility.yul\":6696:6749   */\n      tag_328\n      jump\t// in\n    tag_435:\n        /* \"#utility.yul\":6686:6749   */\n      swap4\n      pop\n        /* \"#utility.yul\":6642:6759   */\n      pop\n        /* \"#utility.yul\":6798:6800   */\n      0x20\n        /* \"#utility.yul\":6824:6877   */\n      tag_436\n        /* \"#utility.yul\":6869:6876   */\n      dup7\n        /* \"#utility.yul\":6860:6866   */\n      dup3\n        /* \"#utility.yul\":6849:6858   */\n      dup8\n        /* \"#utility.yul\":6845:6867   */\n      add\n        /* \"#utility.yul\":6824:6877   */\n      tag_328\n      jump\t// in\n    tag_436:\n        /* \"#utility.yul\":6814:6877   */\n      swap3\n      pop\n        /* \"#utility.yul\":6769:6887   */\n      pop\n        /* \"#utility.yul\":6926:6928   */\n      0x40\n        /* \"#utility.yul\":6952:7005   */\n      tag_437\n        /* \"#utility.yul\":6997:7004   */\n      dup7\n        /* \"#utility.yul\":6988:6994   */\n      dup3\n        /* \"#utility.yul\":6977:6986   */\n      dup8\n        /* \"#utility.yul\":6973:6995   */\n      add\n        /* \"#utility.yul\":6952:7005   */\n      tag_328\n      jump\t// in\n    tag_437:\n        /* \"#utility.yul\":6942:7005   */\n      swap2\n      pop\n        /* \"#utility.yul\":6897:7015   */\n      pop\n        /* \"#utility.yul\":6403:7022   */\n      swap3\n      pop\n      swap3\n      pop\n      swap3\n      jump\t// out\n        /* \"#utility.yul\":7028:7250   */\n    tag_81:\n        /* \"#utility.yul\":7121:7125   */\n      0x00\n        /* \"#utility.yul\":7159:7161   */\n      0x20\n        /* \"#utility.yul\":7148:7157   */\n      dup3\n        /* \"#utility.yul\":7144:7162   */\n      add\n        /* \"#utility.yul\":7136:7162   */\n      swap1\n      pop\n        /* \"#utility.yul\":7172:7243   */\n      tag_439\n        /* \"#utility.yul\":7240:7241   */\n      0x00\n        /* \"#utility.yul\":7229:7238   */\n      dup4\n        /* \"#utility.yul\":7225:7242   */\n      add\n        /* \"#utility.yul\":7216:7222   */\n      dup5\n        /* \"#utility.yul\":7172:7243   */\n      tag_341\n      jump\t// in\n    tag_439:\n        /* \"#utility.yul\":7028:7250   */\n      swap3\n      swap2\n      pop\n      pop\n      jump\t// out\n        /* \"#utility.yul\":7256:8019   */\n    tag_96:\n        /* \"#utility.yul\":7483:7487   */\n      0x00\n        /* \"#utility.yul\":7521:7524   */\n      0xc0\n        /* \"#utility.yul\":7510:7519   */\n      dup3\n        /* \"#utility.yul\":7506:7525   */\n      add\n        /* \"#utility.yul\":7498:7525   */\n      swap1\n      pop\n        /* \"#utility.yul\":7535:7600   */\n      tag_441\n        /* \"#utility.yul\":7597:7598   */\n      0x00\n        /* \"#utility.yul\":7586:7595   */\n      dup4\n        /* \"#utility.yul\":7582:7599   */\n      add\n        /* \"#utility.yul\":7573:7579   */\n      dup10\n        /* \"#utility.yul\":7535:7600   */\n      tag_335\n      jump\t// in\n    tag_441:\n        /* \"#utility.yul\":7610:7682   */\n      tag_442\n        /* \"#utility.yul\":7678:7680   */\n      0x20\n        /* \"#utility.yul\":7667:7676   */\n      dup4\n        /* \"#utility.yul\":7663:7681   */\n      add\n        /* \"#utility.yul\":7654:7660   */\n      dup9\n        /* \"#utility.yul\":7610:7682   */\n      tag_341\n      jump\t// in\n    tag_442:\n        /* \"#utility.yul\":7692:7764   */\n      tag_443\n        /* \"#utility.yul\":7760:7762   */\n      0x40\n        /* \"#utility.yul\":7749:7758   */\n      dup4\n        /* \"#utility.yul\":7745:7763   */\n      add\n        /* \"#utility.yul\":7736:7742   */\n      dup8\n        /* \"#utility.yul\":7692:7764   */\n      tag_341\n      jump\t// in\n    tag_443:\n        /* \"#utility.yul\":7774:7846   */\n      tag_444\n        /* \"#utility.yul\":7842:7844   */\n      0x60\n        /* \"#utility.yul\":7831:7840   */\n      dup4\n        /* \"#utility.yul\":7827:7845   */\n      add\n        /* \"#utility.yul\":7818:7824   */\n      dup7\n        /* \"#utility.yul\":7774:7846   */\n      tag_341\n      jump\t// in\n    tag_444:\n        /* \"#utility.yul\":7856:7929   */\n      tag_445\n        /* \"#utility.yul\":7924:7927   */\n      0x80\n        /* \"#utility.yul\":7913:7922   */\n      dup4\n        /* \"#utility.yul\":7909:7928   */\n      add\n        /* \"#utility.yul\":7900:7906   */\n      dup6\n        /* \"#utility.yul\":7856:7929   */\n      tag_341\n      jump\t// in\n    tag_445:\n        /* \"#utility.yul\":7939:8012   */\n      tag_446\n        /* \"#utility.yul\":8007:8010   */\n      0xa0\n        /* \"#utility.yul\":7996:8005   */\n      dup4\n        /* \"#utility.yul\":7992:8011   */\n      add\n        /* \"#utility.yul\":7983:7989   */\n      dup5\n        /* \"#utility.yul\":7939:8012   */\n      tag_341\n      jump\t// in\n    tag_446:\n        /* \"#utility.yul\":7256:8019   */\n      swap8\n      swap7\n      pop\n      pop\n      pop\n      pop\n      pop\n      pop\n      pop\n      jump\t// out\n        /* \"#utility.yul\":8025:8499   */\n    tag_102:\n        /* \"#utility.yul\":8093:8099   */\n      0x00\n        /* \"#utility.yul\":8101:8107   */\n      dup1\n        /* \"#utility.yul\":8150:8152   */\n      0x40\n        /* \"#utility.yul\":8138:8147   */\n      dup4\n        /* \"#utility.yul\":8129:8136   */\n      dup6\n        /* \"#utility.yul\":8125:8148   */\n      sub\n        /* \"#utility.yul\":8121:8153   */\n      slt\n        /* \"#utility.yul\":8118:8237   */\n      iszero\n      tag_448\n      jumpi\n        /* \"#utility.yul\":8156:8235   */\n      tag_449\n      tag_324\n      jump\t// in\n    tag_449:\n        /* \"#utility.yul\":8118:8237   */\n    tag_448:\n        /* \"#utility.yul\":8276:8277   */\n      0x00\n        /* \"#utility.yul\":8301:8354   */\n      tag_450\n        /* \"#utility.yul\":8346:8353   */\n      dup6\n        /* \"#utility.yul\":8337:8343   */\n      dup3\n        /* \"#utility.yul\":8326:8335   */\n      dup7\n        /* \"#utility.yul\":8322:8344   */\n      add\n        /* \"#utility.yul\":8301:8354   */\n      tag_328\n      jump\t// in\n    tag_450:\n        /* \"#utility.yul\":8291:8354   */\n      swap3\n      pop\n        /* \"#utility.yul\":8247:8364   */\n      pop\n        /* \"#utility.yul\":8403:8405   */\n      0x20\n        /* \"#utility.yul\":8429:8482   */\n      tag_451\n        /* \"#utility.yul\":8474:8481   */\n      dup6\n        /* \"#utility.yul\":8465:8471   */\n      dup3\n        /* \"#utility.yul\":8454:8463   */\n      dup7\n        /* \"#utility.yul\":8450:8472   */\n      add\n        /* \"#utility.yul\":8429:8482   */\n      tag_333\n      jump\t// in\n    tag_451:\n        /* \"#utility.yul\":8419:8482   */\n      swap2\n      pop\n        /* \"#utility.yul\":8374:8492   */\n      pop\n        /* \"#utility.yul\":8025:8499   */\n      swap3\n      pop\n      swap3\n      swap1\n      pop\n      jump\t// out\n        /* \"#utility.yul\":8505:8685   */\n    tag_108:\n        /* \"#utility.yul\":8553:8630   */\n      0x4e487b7100000000000000000000000000000000000000000000000000000000\n        /* \"#utility.yul\":8550:8551   */\n      0x00\n        /* \"#utility.yul\":8543:8631   */\n      mstore\n        /* \"#utility.yul\":8650:8654   */\n      0x32\n        /* \"#utility.yul\":8647:8648   */\n      0x04\n        /* \"#utility.yul\":8640:8655   */\n      mstore\n        /* \"#utility.yul\":8674:8678   */\n      0x24\n        /* \"#utility.yul\":8671:8672   */\n      0x00\n        /* \"#utility.yul\":8664:8679   */\n      revert\n        /* \"#utility.yul\":8691:8871   */\n    tag_342:\n        /* \"#utility.yul\":8739:8816   */\n      0x4e487b7100000000000000000000000000000000000000000000000000000000\n        /* \"#utility.yul\":8736:8737   */\n      0x00\n        /* \"#utility.yul\":8729:8817   */\n      mstore\n        /* \"#utility.yul\":8836:8840   */\n      0x11\n        /* \"#utility.yul\":8833:8834   */\n      0x04\n        /* \"#utility.yul\":8826:8841   */\n      mstore\n        /* \"#utility.yul\":8860:8864   */\n      0x24\n        /* \"#utility.yul\":8857:8858   */\n      0x00\n        /* \"#utility.yul\":8850:8865   */\n      revert\n        /* \"#utility.yul\":8877:9068   */\n    tag_121:\n        /* \"#utility.yul\":8917:8920   */\n      0x00\n        /* \"#utility.yul\":8936:8956   */\n      tag_455\n        /* \"#utility.yul\":8954:8955   */\n      dup3\n        /* \"#utility.yul\":8936:8956   */\n      tag_326\n      jump\t// in\n    tag_455:\n        /* \"#utility.yul\":8931:8956   */\n      swap2\n      pop\n        /* \"#utility.yul\":8970:8990   */\n      tag_456\n        /* \"#utility.yul\":8988:8989   */\n      dup4\n        /* \"#utility.yul\":8970:8990   */\n      tag_326\n      jump\t// in\n    tag_456:\n        /* \"#utility.yul\":8965:8990   */\n      swap3\n      pop\n        /* \"#utility.yul\":9013:9014   */\n      dup3\n        /* \"#utility.yul\":9010:9011   */\n      dup3\n        /* \"#utility.yul\":9006:9015   */\n      add\n        /* \"#utility.yul\":8999:9015   */\n      swap1\n      pop\n        /* \"#utility.yul\":9034:9037   */\n      dup1\n        /* \"#utility.yul\":9031:9032   */\n      dup3\n        /* \"#utility.yul\":9028:9038   */\n      gt\n        /* \"#utility.yul\":9025:9061   */\n      iszero\n      tag_457\n      jumpi\n        /* \"#utility.yul\":9041:9059   */\n      tag_458\n      tag_342\n      jump\t// in\n    tag_458:\n        /* \"#utility.yul\":9025:9061   */\n    tag_457:\n        /* \"#utility.yul\":8877:9068   */\n      swap3\n      swap2\n      pop\n      pop\n      jump\t// out\n        /* \"#utility.yul\":9074:9484   */\n    tag_124:\n        /* \"#utility.yul\":9114:9121   */\n      0x00\n        /* \"#utility.yul\":9137:9157   */\n      tag_460\n        /* \"#utility.yul\":9155:9156   */\n      dup3\n        /* \"#utility.yul\":9137:9157   */\n      tag_326\n      jump\t// in\n    tag_460:\n        /* \"#utility.yul\":9132:9157   */\n      swap2\n      pop\n        /* \"#utility.yul\":9171:9191   */\n      tag_461\n        /* \"#utility.yul\":9189:9190   */\n      dup4\n        /* \"#utility.yul\":9171:9191   */\n      tag_326\n      jump\t// in\n    tag_461:\n        /* \"#utility.yul\":9166:9191   */\n      swap3\n      pop\n        /* \"#utility.yul\":9226:9227   */\n      dup3\n        /* \"#utility.yul\":9223:9224   */\n      dup3\n        /* \"#utility.yul\":9219:9228   */\n      mul\n        /* \"#utility.yul\":9248:9278   */\n      tag_462\n        /* \"#utility.yul\":9266:9277   */\n      dup2\n        /* \"#utility.yul\":9248:9278   */\n      tag_326\n      jump\t// in\n    tag_462:\n        /* \"#utility.yul\":9237:9278   */\n      swap2\n      pop\n        /* \"#utility.yul\":9427:9428   */\n      dup3\n        /* \"#utility.yul\":9418:9425   */\n      dup3\n        /* \"#utility.yul\":9414:9429   */\n      div\n        /* \"#utility.yul\":9411:9412   */\n      dup5\n        /* \"#utility.yul\":9408:9430   */\n      eq\n        /* \"#utility.yul\":9388:9389   */\n      dup4\n        /* \"#utility.yul\":9381:9390   */\n      iszero\n        /* \"#utility.yul\":9361:9444   */\n      or\n        /* \"#utility.yul\":9338:9477   */\n      tag_463\n      jumpi\n        /* \"#utility.yul\":9457:9475   */\n      tag_464\n      tag_342\n      jump\t// in\n    tag_464:\n        /* \"#utility.yul\":9338:9477   */\n    tag_463:\n        /* \"#utility.yul\":9122:9484   */\n      pop\n        /* \"#utility.yul\":9074:9484   */\n      swap3\n      swap2\n      pop\n      pop\n      jump\t// out\n        /* \"#utility.yul\":9490:9670   */\n    tag_343:\n        /* \"#utility.yul\":9538:9615   */\n      0x4e487b7100000000000000000000000000000000000000000000000000000000\n        /* \"#utility.yul\":9535:9536   */\n      0x00\n        /* \"#utility.yul\":9528:9616   */\n      mstore\n        /* \"#utility.yul\":9635:9639   */\n      0x12\n        /* \"#utility.yul\":9632:9633   */\n      0x04\n        /* \"#utility.yul\":9625:9640   */\n      mstore\n        /* \"#utility.yul\":9659:9663   */\n      0x24\n        /* \"#utility.yul\":9656:9657   */\n      0x00\n        /* \"#utility.yul\":9649:9664   */\n      revert\n        /* \"#utility.yul\":9676:9861   */\n    tag_126:\n        /* \"#utility.yul\":9716:9717   */\n      0x00\n        /* \"#utility.yul\":9733:9753   */\n      tag_467\n        /* \"#utility.yul\":9751:9752   */\n      dup3\n        /* \"#utility.yul\":9733:9753   */\n      tag_326\n      jump\t// in\n    tag_467:\n        /* \"#utility.yul\":9728:9753   */\n      swap2\n      pop\n        /* \"#utility.yul\":9767:9787   */\n      tag_468\n        /* \"#utility.yul\":9785:9786   */\n      dup4\n        /* \"#utility.yul\":9767:9787   */\n      tag_326\n      jump\t// in\n    tag_468:\n        /* \"#utility.yul\":9762:9787   */\n      swap3\n      pop\n        /* \"#utility.yul\":9806:9807   */\n      dup3\n        /* \"#utility.yul\":9796:9831   */\n      tag_469\n      jumpi\n        /* \"#utility.yul\":9811:9829   */\n      tag_470\n      tag_343\n      jump\t// in\n    tag_470:\n        /* \"#utility.yul\":9796:9831   */\n    tag_469:\n        /* \"#utility.yul\":9853:9854   */\n      dup3\n        /* \"#utility.yul\":9850:9851   */\n      dup3\n        /* \"#utility.yul\":9846:9855   */\n      div\n        /* \"#utility.yul\":9841:9855   */\n      swap1\n      pop\n        /* \"#utility.yul\":9676:9861   */\n      swap3\n      swap2\n      pop\n      pop\n      jump\t// out\n        /* \"#utility.yul\":9867:10036   */\n    tag_344:\n        /* \"#utility.yul\":9951:9962   */\n      0x00\n        /* \"#utility.yul\":9985:9991   */\n      dup3\n        /* \"#utility.yul\":9980:9983   */\n      dup3\n        /* \"#utility.yul\":9973:9992   */\n      mstore\n        /* \"#utility.yul\":10025:10029   */\n      0x20\n        /* \"#utility.yul\":10020:10023   */\n      dup3\n        /* \"#utility.yul\":10016:10030   */\n      add\n        /* \"#utility.yul\":10001:10030   */\n      swap1\n      pop\n        /* \"#utility.yul\":9867:10036   */\n      swap3\n      swap2\n      pop\n      pop\n      jump\t// out\n        /* \"#utility.yul\":10042:10209   */\n    tag_345:\n        /* \"#utility.yul\":10182:10201   */\n      0x6e6f7420656e6f75676820416d6f756e74000000000000000000000000000000\n        /* \"#utility.yul\":10178:10179   */\n      0x00\n        /* \"#utility.yul\":10170:10176   */\n      dup3\n        /* \"#utility.yul\":10166:10180   */\n      add\n        /* \"#utility.yul\":10159:10202   */\n      mstore\n        /* \"#utility.yul\":10042:10209   */\n      pop\n      jump\t// out\n        /* \"#utility.yul\":10215:10581   */\n    tag_346:\n        /* \"#utility.yul\":10357:10360   */\n      0x00\n        /* \"#utility.yul\":10378:10445   */\n      tag_474\n        /* \"#utility.yul\":10442:10444   */\n      0x11\n        /* \"#utility.yul\":10437:10440   */\n      dup4\n        /* \"#utility.yul\":10378:10445   */\n      tag_344\n      jump\t// in\n    tag_474:\n        /* \"#utility.yul\":10371:10445   */\n      swap2\n      pop\n        /* \"#utility.yul\":10454:10547   */\n      tag_475\n        /* \"#utility.yul\":10543:10546   */\n      dup3\n        /* \"#utility.yul\":10454:10547   */\n      tag_345\n      jump\t// in\n    tag_475:\n        /* \"#utility.yul\":10572:10574   */\n      0x20\n        /* \"#utility.yul\":10567:10570   */\n      dup3\n        /* \"#utility.yul\":10563:10575   */\n      add\n        /* \"#utility.yul\":10556:10575   */\n      swap1\n      pop\n        /* \"#utility.yul\":10215:10581   */\n      swap2\n      swap1\n      pop\n      jump\t// out\n        /* \"#utility.yul\":10587:11006   */\n    tag_147:\n        /* \"#utility.yul\":10753:10757   */\n      0x00\n        /* \"#utility.yul\":10791:10793   */\n      0x20\n        /* \"#utility.yul\":10780:10789   */\n      dup3\n        /* \"#utility.yul\":10776:10794   */\n      add\n        /* \"#utility.yul\":10768:10794   */\n      swap1\n      pop\n        /* \"#utility.yul\":10840:10849   */\n      dup2\n        /* \"#utility.yul\":10834:10838   */\n      dup2\n        /* \"#utility.yul\":10830:10850   */\n      sub\n        /* \"#utility.yul\":10826:10827   */\n      0x00\n        /* \"#utility.yul\":10815:10824   */\n      dup4\n        /* \"#utility.yul\":10811:10828   */\n      add\n        /* \"#utility.yul\":10804:10851   */\n      mstore\n        /* \"#utility.yul\":10868:10999   */\n      tag_477\n        /* \"#utility.yul\":10994:10998   */\n      dup2\n        /* \"#utility.yul\":10868:10999   */\n      tag_346\n      jump\t// in\n    tag_477:\n        /* \"#utility.yul\":10860:10999   */\n      swap1\n      pop\n        /* \"#utility.yul\":10587:11006   */\n      swap2\n      swap1\n      pop\n      jump\t// out\n        /* \"#utility.yul\":11012:11245   */\n    tag_152:\n        /* \"#utility.yul\":11051:11054   */\n      0x00\n        /* \"#utility.yul\":11074:11098   */\n      tag_479\n        /* \"#utility.yul\":11092:11097   */\n      dup3\n        /* \"#utility.yul\":11074:11098   */\n      tag_326\n      jump\t// in\n    tag_479:\n        /* \"#utility.yul\":11065:11098   */\n      swap2\n      pop\n        /* \"#utility.yul\":11120:11186   */\n      0xffffffffffffffffffffffffffffffffffffffffffffffffffffffffffffffff\n        /* \"#utility.yul\":11113:11118   */\n      dup3\n        /* \"#utility.yul\":11110:11187   */\n      sub\n        /* \"#utility.yul\":11107:11210   */\n      tag_480\n      jumpi\n        /* \"#utility.yul\":11190:11208   */\n      tag_481\n      tag_342\n      jump\t// in\n    tag_481:\n        /* \"#utility.yul\":11107:11210   */\n    tag_480:\n        /* \"#utility.yul\":11237:11238   */\n      0x01\n        /* \"#utility.yul\":11230:11235   */\n      dup3\n        /* \"#utility.yul\":11226:11239   */\n      add\n        /* \"#utility.yul\":11219:11239   */\n      swap1\n      pop\n        /* \"#utility.yul\":11012:11245   */\n      swap2\n      swap1\n      pop\n      jump\t// out\n        /* \"#utility.yul\":11251:11445   */\n    tag_180:\n        /* \"#utility.yul\":11291:11295   */\n      0x00\n        /* \"#utility.yul\":11311:11331   */\n      tag_483\n        /* \"#utility.yul\":11329:11330   */\n      dup3\n        /* \"#utility.yul\":11311:11331   */\n      tag_326\n      jump\t// in\n    tag_483:\n        /* \"#utility.yul\":11306:11331   */\n      swap2\n      pop\n        /* \"#utility.yul\":11345:11365   */\n      tag_484\n        /* \"#utility.yul\":11363:11364   */\n      dup4\n        /* \"#utility.yul\":11345:11365   */\n      tag_326\n      jump\t// in\n    tag_484:\n        /* \"#utility.yul\":11340:11365   */\n      swap3\n      pop\n        /* \"#utility.yul\":11389:11390   */\n      dup3\n        /* \"#utility.yul\":11386:11387   */\n      dup3\n        /* \"#utility.yul\":11382:11391   */\n      sub\n        /* \"#utility.yul\":11374:11391   */\n      swap1\n      pop\n        /* \"#utility.yul\":11413:11414   */\n      dup2\n        /* \"#utility.yul\":11407:11411   */\n      dup2\n        /* \"#utility.yul\":11404:11415   */\n      gt\n        /* \"#utility.yul\":11401:11438   */\n      iszero\n      tag_485\n      jumpi\n        /* \"#utility.yul\":11418:11436   */\n      tag_486\n      tag_342\n      jump\t// in\n    tag_486:\n        /* \"#utility.yul\":11401:11438   */\n    tag_485:\n        /* \"#utility.yul\":11251:11445   */\n      swap3\n      swap2\n      pop\n      pop\n      jump\t// out\n        /* \"#utility.yul\":11451:11594   */\n    tag_347:\n        /* \"#utility.yul\":11508:11513   */\n      0x00\n        /* \"#utility.yul\":11539:11545   */\n      dup2\n        /* \"#utility.yul\":11533:11546   */\n      mload\n        /* \"#utility.yul\":11524:11546   */\n      swap1\n      pop\n        /* \"#utility.yul\":11555:11588   */\n      tag_488\n        /* \"#utility.yul\":11582:11587   */\n      dup2\n        /* \"#utility.yul\":11555:11588   */\n      tag_327\n      jump\t// in\n    tag_488:\n        /* \"#utility.yul\":11451:11594   */\n      swap3\n      swap2\n      pop\n      pop\n      jump\t// out\n        /* \"#utility.yul\":11600:11951   */\n    tag_191:\n        /* \"#utility.yul\":11670:11676   */\n      0x00\n        /* \"#utility.yul\":11719:11721   */\n      0x20\n        /* \"#utility.yul\":11707:11716   */\n      dup3\n        /* \"#utility.yul\":11698:11705   */\n      dup5\n        /* \"#utility.yul\":11694:11717   */\n      sub\n        /* \"#utility.yul\":11690:11722   */\n      slt\n        /* \"#utility.yul\":11687:11806   */\n      iszero\n      tag_490\n      jumpi\n        /* \"#utility.yul\":11725:11804   */\n      tag_491\n      tag_324\n      jump\t// in\n    tag_491:\n        /* \"#utility.yul\":11687:11806   */\n    tag_490:\n        /* \"#utility.yul\":11845:11846   */\n      0x00\n        /* \"#utility.yul\":11870:11934   */\n      tag_492\n        /* \"#utility.yul\":11926:11933   */\n      dup5\n        /* \"#utility.yul\":11917:11923   */\n      dup3\n        /* \"#utility.yul\":11906:11915   */\n      dup6\n        /* \"#utility.yul\":11902:11924   */\n      add\n        /* \"#utility.yul\":11870:11934   */\n      tag_347\n      jump\t// in\n    tag_492:\n        /* \"#utility.yul\":11860:11934   */\n      swap2\n      pop\n        /* \"#utility.yul\":11816:11944   */\n      pop\n        /* \"#utility.yul\":11600:11951   */\n      swap3\n      swap2\n      pop\n      pop\n      jump\t// out\n        /* \"#utility.yul\":11957:12289   */\n    tag_200:\n        /* \"#utility.yul\":12078:12082   */\n      0x00\n        /* \"#utility.yul\":12116:12118   */\n      0x40\n        /* \"#utility.yul\":12105:12114   */\n      dup3\n        /* \"#utility.yul\":12101:12119   */\n      add\n        /* \"#utility.yul\":12093:12119   */\n      swap1\n      pop\n        /* \"#utility.yul\":12129:12200   */\n      tag_494\n        /* \"#utility.yul\":12197:12198   */\n      0x00\n        /* \"#utility.yul\":12186:12195   */\n      dup4\n        /* \"#utility.yul\":12182:12199   */\n      add\n        /* \"#utility.yul\":12173:12179   */\n      dup6\n        /* \"#utility.yul\":12129:12200   */\n      tag_331\n      jump\t// in\n    tag_494:\n        /* \"#utility.yul\":12210:12282   */\n      tag_495\n        /* \"#utility.yul\":12278:12280   */\n      0x20\n        /* \"#utility.yul\":12267:12276   */\n      dup4\n        /* \"#utility.yul\":12263:12281   */\n      add\n        /* \"#utility.yul\":12254:12260   */\n      dup5\n        /* \"#utility.yul\":12210:12282   */\n      tag_341\n      jump\t// in\n    tag_495:\n        /* \"#utility.yul\":11957:12289   */\n      swap4\n      swap3\n      pop\n      pop\n      pop\n      jump\t// out\n        /* \"#utility.yul\":12295:12411   */\n    tag_348:\n        /* \"#utility.yul\":12365:12386   */\n      tag_497\n        /* \"#utility.yul\":12380:12385   */\n      dup2\n        /* \"#utility.yul\":12365:12386   */\n      tag_334\n      jump\t// in\n    tag_497:\n        /* \"#utility.yul\":12358:12363   */\n      dup2\n        /* \"#utility.yul\":12355:12387   */\n      eq\n        /* \"#utility.yul\":12345:12405   */\n      tag_498\n      jumpi\n        /* \"#utility.yul\":12401:12402   */\n      0x00\n        /* \"#utility.yul\":12398:12399   */\n      dup1\n        /* \"#utility.yul\":12391:12403   */\n      revert\n        /* \"#utility.yul\":12345:12405   */\n    tag_498:\n        /* \"#utility.yul\":12295:12411   */\n      pop\n      jump\t// out\n        /* \"#utility.yul\":12417:12554   */\n    tag_349:\n        /* \"#utility.yul\":12471:12476   */\n      0x00\n        /* \"#utility.yul\":12502:12508   */\n      dup2\n        /* \"#utility.yul\":12496:12509   */\n      mload\n        /* \"#utility.yul\":12487:12509   */\n      swap1\n      pop\n        /* \"#utility.yul\":12518:12548   */\n      tag_500\n        /* \"#utility.yul\":12542:12547   */\n      dup2\n        /* \"#utility.yul\":12518:12548   */\n      tag_348\n      jump\t// in\n    tag_500:\n        /* \"#utility.yul\":12417:12554   */\n      swap3\n      swap2\n      pop\n      pop\n      jump\t// out\n        /* \"#utility.yul\":12560:12905   */\n    tag_204:\n        /* \"#utility.yul\":12627:12633   */\n      0x00\n        /* \"#utility.yul\":12676:12678   */\n      0x20\n        /* \"#utility.yul\":12664:12673   */\n      dup3\n        /* \"#utility.yul\":12655:12662   */\n      dup5\n        /* \"#utility.yul\":12651:12674   */\n      sub\n        /* \"#utility.yul\":12647:12679   */\n      slt\n        /* \"#utility.yul\":12644:12763   */\n      iszero\n      tag_502\n      jumpi\n        /* \"#utility.yul\":12682:12761   */\n      tag_503\n      tag_324\n      jump\t// in\n    tag_503:\n        /* \"#utility.yul\":12644:12763   */\n    tag_502:\n        /* \"#utility.yul\":12802:12803   */\n      0x00\n        /* \"#utility.yul\":12827:12888   */\n      tag_504\n        /* \"#utility.yul\":12880:12887   */\n      dup5\n        /* \"#utility.yul\":12871:12877   */\n      dup3\n        /* \"#utility.yul\":12860:12869   */\n      dup6\n        /* \"#utility.yul\":12856:12878   */\n      add\n        /* \"#utility.yul\":12827:12888   */\n      tag_349\n      jump\t// in\n    tag_504:\n        /* \"#utility.yul\":12817:12888   */\n      swap2\n      pop\n        /* \"#utility.yul\":12773:12898   */\n      pop\n        /* \"#utility.yul\":12560:12905   */\n      swap3\n      swap2\n      pop\n      pop\n      jump\t// out\n        /* \"#utility.yul\":12911:13076   */\n    tag_350:\n        /* \"#utility.yul\":13051:13068   */\n      0x5472616e73666572206661696c65640000000000000000000000000000000000\n        /* \"#utility.yul\":13047:13048   */\n      0x00\n        /* \"#utility.yul\":13039:13045   */\n      dup3\n        /* \"#utility.yul\":13035:13049   */\n      add\n        /* \"#utility.yul\":13028:13069   */\n      mstore\n        /* \"#utility.yul\":12911:13076   */\n      pop\n      jump\t// out\n        /* \"#utility.yul\":13082:13448   */\n    tag_351:\n        /* \"#utility.yul\":13224:13227   */\n      0x00\n        /* \"#utility.yul\":13245:13312   */\n      tag_507\n        /* \"#utility.yul\":13309:13311   */\n      0x0f\n        /* \"#utility.yul\":13304:13307   */\n      dup4\n        /* \"#utility.yul\":13245:13312   */\n      tag_344\n      jump\t// in\n    tag_507:\n        /* \"#utility.yul\":13238:13312   */\n      swap2\n      pop\n        /* \"#utility.yul\":13321:13414   */\n      tag_508\n        /* \"#utility.yul\":13410:13413   */\n      dup3\n        /* \"#utility.yul\":13321:13414   */\n      tag_350\n      jump\t// in\n    tag_508:\n        /* \"#utility.yul\":13439:13441   */\n      0x20\n        /* \"#utility.yul\":13434:13437   */\n      dup3\n        /* \"#utility.yul\":13430:13442   */\n      add\n        /* \"#utility.yul\":13423:13442   */\n      swap1\n      pop\n        /* \"#utility.yul\":13082:13448   */\n      swap2\n      swap1\n      pop\n      jump\t// out\n        /* \"#utility.yul\":13454:13873   */\n    tag_207:\n        /* \"#utility.yul\":13620:13624   */\n      0x00\n        /* \"#utility.yul\":13658:13660   */\n      0x20\n        /* \"#utility.yul\":13647:13656   */\n      dup3\n        /* \"#utility.yul\":13643:13661   */\n      add\n        /* \"#utility.yul\":13635:13661   */\n      swap1\n      pop\n        /* \"#utility.yul\":13707:13716   */\n      dup2\n        /* \"#utility.yul\":13701:13705   */\n      dup2\n        /* \"#utility.yul\":13697:13717   */\n      sub\n        /* \"#utility.yul\":13693:13694   */\n      0x00\n        /* \"#utility.yul\":13682:13691   */\n      dup4\n        /* \"#utility.yul\":13678:13695   */\n      add\n        /* \"#utility.yul\":13671:13718   */\n      mstore\n        /* \"#utility.yul\":13735:13866   */\n      tag_510\n        /* \"#utility.yul\":13861:13865   */\n      dup2\n        /* \"#utility.yul\":13735:13866   */\n      tag_351\n      jump\t// in\n    tag_510:\n        /* \"#utility.yul\":13727:13866   */\n      swap1\n      pop\n        /* \"#utility.yul\":13454:13873   */\n      swap2\n      swap1\n      pop\n      jump\t// out\n        /* \"#utility.yul\":13879:14432   */\n    tag_227:\n        /* \"#utility.yul\":14056:14060   */\n      0x00\n        /* \"#utility.yul\":14094:14097   */\n      0x80\n        /* \"#utility.yul\":14083:14092   */\n      dup3\n        /* \"#utility.yul\":14079:14098   */\n      add\n        /* \"#utility.yul\":14071:14098   */\n      swap1\n      pop\n        /* \"#utility.yul\":14108:14179   */\n      tag_512\n        /* \"#utility.yul\":14176:14177   */\n      0x00\n        /* \"#utility.yul\":14165:14174   */\n      dup4\n        /* \"#utility.yul\":14161:14178   */\n      add\n        /* \"#utility.yul\":14152:14158   */\n      dup8\n        /* \"#utility.yul\":14108:14179   */\n      tag_331\n      jump\t// in\n    tag_512:\n        /* \"#utility.yul\":14189:14261   */\n      tag_513\n        /* \"#utility.yul\":14257:14259   */\n      0x20\n        /* \"#utility.yul\":14246:14255   */\n      dup4\n        /* \"#utility.yul\":14242:14260   */\n      add\n        /* \"#utility.yul\":14233:14239   */\n      dup7\n        /* \"#utility.yul\":14189:14261   */\n      tag_341\n      jump\t// in\n    tag_513:\n        /* \"#utility.yul\":14271:14343   */\n      tag_514\n        /* \"#utility.yul\":14339:14341   */\n      0x40\n        /* \"#utility.yul\":14328:14337   */\n      dup4\n        /* \"#utility.yul\":14324:14342   */\n      add\n        /* \"#utility.yul\":14315:14321   */\n      dup6\n        /* \"#utility.yul\":14271:14343   */\n      tag_341\n      jump\t// in\n    tag_514:\n        /* \"#utility.yul\":14353:14425   */\n      tag_515\n        /* \"#utility.yul\":14421:14423   */\n      0x60\n        /* \"#utility.yul\":14410:14419   */\n      dup4\n        /* \"#utility.yul\":14406:14424   */\n      add\n        /* \"#utility.yul\":14397:14403   */\n      dup5\n        /* \"#utility.yul\":14353:14425   */\n      tag_341\n      jump\t// in\n    tag_515:\n        /* \"#utility.yul\":13879:14432   */\n      swap6\n      swap5\n      pop\n      pop\n      pop\n      pop\n      pop\n      jump\t// out\n        /* \"#utility.yul\":14438:14880   */\n    tag_253:\n        /* \"#utility.yul\":14587:14591   */\n      0x00\n        /* \"#utility.yul\":14625:14627   */\n      0x60\n        /* \"#utility.yul\":14614:14623   */\n      dup3\n        /* \"#utility.yul\":14610:14628   */\n      add\n        /* \"#utility.yul\":14602:14628   */\n      swap1\n      pop\n        /* \"#utility.yul\":14638:14709   */\n      tag_517\n        /* \"#utility.yul\":14706:14707   */\n      0x00\n        /* \"#utility.yul\":14695:14704   */\n      dup4\n        /* \"#utility.yul\":14691:14708   */\n      add\n        /* \"#utility.yul\":14682:14688   */\n      dup7\n        /* \"#utility.yul\":14638:14709   */\n      tag_331\n      jump\t// in\n    tag_517:\n        /* \"#utility.yul\":14719:14791   */\n      tag_518\n        /* \"#utility.yul\":14787:14789   */\n      0x20\n        /* \"#utility.yul\":14776:14785   */\n      dup4\n        /* \"#utility.yul\":14772:14790   */\n      add\n        /* \"#utility.yul\":14763:14769   */\n      dup6\n        /* \"#utility.yul\":14719:14791   */\n      tag_331\n      jump\t// in\n    tag_518:\n        /* \"#utility.yul\":14801:14873   */\n      tag_519\n        /* \"#utility.yul\":14869:14871   */\n      0x40\n        /* \"#utility.yul\":14858:14867   */\n      dup4\n        /* \"#utility.yul\":14854:14872   */\n      add\n        /* \"#utility.yul\":14845:14851   */\n      dup5\n        /* \"#utility.yul\":14801:14873   */\n      tag_341\n      jump\t// in\n    tag_519:\n        /* \"#utility.yul\":14438:14880   */\n      swap5\n      swap4\n      pop\n      pop\n      pop\n      pop\n      jump\t// out\n        /* \"#utility.yul\":14886:15068   */\n    tag_352:\n        /* \"#utility.yul\":15026:15060   */\n      0x536861726573206d7573742062652067726561746572207468616e207a65726f\n        /* \"#utility.yul\":15022:15023   */\n      0x00\n        /* \"#utility.yul\":15014:15020   */\n      dup3\n        /* \"#utility.yul\":15010:15024   */\n      add\n        /* \"#utility.yul\":15003:15061   */\n      mstore\n        /* \"#utility.yul\":14886:15068   */\n      pop\n      jump\t// out\n        /* \"#utility.yul\":15074:15440   */\n    tag_353:\n        /* \"#utility.yul\":15216:15219   */\n      0x00\n        /* \"#utility.yul\":15237:15304   */\n      tag_522\n        /* \"#utility.yul\":15301:15303   */\n      0x20\n        /* \"#utility.yul\":15296:15299   */\n      dup4\n        /* \"#utility.yul\":15237:15304   */\n      tag_344\n      jump\t// in\n    tag_522:\n        /* \"#utility.yul\":15230:15304   */\n      swap2\n      pop\n        /* \"#utility.yul\":15313:15406   */\n      tag_523\n        /* \"#utility.yul\":15402:15405   */\n      dup3\n        /* \"#utility.yul\":15313:15406   */\n      tag_352\n      jump\t// in\n    tag_523:\n        /* \"#utility.yul\":15431:15433   */\n      0x20\n        /* \"#utility.yul\":15426:15429   */\n      dup3\n        /* \"#utility.yul\":15422:15434   */\n      add\n        /* \"#utility.yul\":15415:15434   */\n      swap1\n      pop\n        /* \"#utility.yul\":15074:15440   */\n      swap2\n      swap1\n      pop\n      jump\t// out\n        /* \"#utility.yul\":15446:15865   */\n    tag_269:\n        /* \"#utility.yul\":15612:15616   */\n      0x00\n        /* \"#utility.yul\":15650:15652   */\n      0x20\n        /* \"#utility.yul\":15639:15648   */\n      dup3\n        /* \"#utility.yul\":15635:15653   */\n      add\n        /* \"#utility.yul\":15627:15653   */\n      swap1\n      pop\n        /* \"#utility.yul\":15699:15708   */\n      dup2\n        /* \"#utility.yul\":15693:15697   */\n      dup2\n        /* \"#utility.yul\":15689:15709   */\n      sub\n        /* \"#utility.yul\":15685:15686   */\n      0x00\n        /* \"#utility.yul\":15674:15683   */\n      dup4\n        /* \"#utility.yul\":15670:15687   */\n      add\n        /* \"#utility.yul\":15663:15710   */\n      mstore\n        /* \"#utility.yul\":15727:15858   */\n      tag_525\n        /* \"#utility.yul\":15853:15857   */\n      dup2\n        /* \"#utility.yul\":15727:15858   */\n      tag_353\n      jump\t// in\n    tag_525:\n        /* \"#utility.yul\":15719:15858   */\n      swap1\n      pop\n        /* \"#utility.yul\":15446:15865   */\n      swap2\n      swap1\n      pop\n      jump\t// out\n        /* \"#utility.yul\":15871:16042   */\n    tag_354:\n        /* \"#utility.yul\":16011:16034   */\n      0x5f70726963652063616e6e6f74206265207a65726f0000000000000000000000\n        /* \"#utility.yul\":16007:16008   */\n      0x00\n        /* \"#utility.yul\":15999:16005   */\n      dup3\n        /* \"#utility.yul\":15995:16009   */\n      add\n        /* \"#utility.yul\":15988:16035   */\n      mstore\n        /* \"#utility.yul\":15871:16042   */\n      pop\n      jump\t// out\n        /* \"#utility.yul\":16048:16414   */\n    tag_355:\n        /* \"#utility.yul\":16190:16193   */\n      0x00\n        /* \"#utility.yul\":16211:16278   */\n      tag_528\n        /* \"#utility.yul\":16275:16277   */\n      0x15\n        /* \"#utility.yul\":16270:16273   */\n      dup4\n        /* \"#utility.yul\":16211:16278   */\n      tag_344\n      jump\t// in\n    tag_528:\n        /* \"#utility.yul\":16204:16278   */\n      swap2\n      pop\n        /* \"#utility.yul\":16287:16380   */\n      tag_529\n        /* \"#utility.yul\":16376:16379   */\n      dup3\n        /* \"#utility.yul\":16287:16380   */\n      tag_354\n      jump\t// in\n    tag_529:\n        /* \"#utility.yul\":16405:16407   */\n      0x20\n        /* \"#utility.yul\":16400:16403   */\n      dup3\n        /* \"#utility.yul\":16396:16408   */\n      add\n        /* \"#utility.yul\":16389:16408   */\n      swap1\n      pop\n        /* \"#utility.yul\":16048:16414   */\n      swap2\n      swap1\n      pop\n      jump\t// out\n        /* \"#utility.yul\":16420:16839   */\n    tag_282:\n        /* \"#utility.yul\":16586:16590   */\n      0x00\n        /* \"#utility.yul\":16624:16626   */\n      0x20\n        /* \"#utility.yul\":16613:16622   */\n      dup3\n        /* \"#utility.yul\":16609:16627   */\n      add\n        /* \"#utility.yul\":16601:16627   */\n      swap1\n      pop\n        /* \"#utility.yul\":16673:16682   */\n      dup2\n        /* \"#utility.yul\":16667:16671   */\n      dup2\n        /* \"#utility.yul\":16663:16683   */\n      sub\n        /* \"#utility.yul\":16659:16660   */\n      0x00\n        /* \"#utility.yul\":16648:16657   */\n      dup4\n        /* \"#utility.yul\":16644:16661   */\n      add\n        /* \"#utility.yul\":16637:16684   */\n      mstore\n        /* \"#utility.yul\":16701:16832   */\n      tag_531\n        /* \"#utility.yul\":16827:16831   */\n      dup2\n        /* \"#utility.yul\":16701:16832   */\n      tag_355\n      jump\t// in\n    tag_531:\n        /* \"#utility.yul\":16693:16832   */\n      swap1\n      pop\n        /* \"#utility.yul\":16420:16839   */\n      swap2\n      swap1\n      pop\n      jump\t// out\n        /* \"#utility.yul\":16845:17398   */\n    tag_313:\n        /* \"#utility.yul\":17022:17026   */\n      0x00\n        /* \"#utility.yul\":17060:17063   */\n      0x80\n        /* \"#utility.yul\":17049:17058   */\n      dup3\n        /* \"#utility.yul\":17045:17064   */\n      add\n        /* \"#utility.yul\":17037:17064   */\n      swap1\n      pop\n        /* \"#utility.yul\":17074:17145   */\n      tag_533\n        /* \"#utility.yul\":17142:17143   */\n      0x00\n        /* \"#utility.yul\":17131:17140   */\n      dup4\n        /* \"#utility.yul\":17127:17144   */\n      add\n        /* \"#utility.yul\":17118:17124   */\n      dup8\n        /* \"#utility.yul\":17074:17145   */\n      tag_331\n      jump\t// in\n    tag_533:\n        /* \"#utility.yul\":17155:17227   */\n      tag_534\n        /* \"#utility.yul\":17223:17225   */\n      0x20\n        /* \"#utility.yul\":17212:17221   */\n      dup4\n        /* \"#utility.yul\":17208:17226   */\n      add\n        /* \"#utility.yul\":17199:17205   */\n      dup7\n        /* \"#utility.yul\":17155:17227   */\n      tag_331\n      jump\t// in\n    tag_534:\n        /* \"#utility.yul\":17237:17309   */\n      tag_535\n        /* \"#utility.yul\":17305:17307   */\n      0x40\n        /* \"#utility.yul\":17294:17303   */\n      dup4\n        /* \"#utility.yul\":17290:17308   */\n      add\n        /* \"#utility.yul\":17281:17287   */\n      dup6\n        /* \"#utility.yul\":17237:17309   */\n      tag_341\n      jump\t// in\n    tag_535:\n        /* \"#utility.yul\":17319:17391   */\n      tag_536\n        /* \"#utility.yul\":17387:17389   */\n      0x60\n        /* \"#utility.yul\":17376:17385   */\n      dup4\n        /* \"#utility.yul\":17372:17390   */\n      add\n        /* \"#utility.yul\":17363:17369   */\n      dup5\n        /* \"#utility.yul\":17319:17391   */\n      tag_341\n      jump\t// in\n    tag_536:\n        /* \"#utility.yul\":16845:17398   */\n      swap6\n      swap5\n      pop\n      pop\n      pop\n      pop\n      pop\n      jump\t// out\n\n    auxdata: 0xa2646970667358221220f6afb86ed3bdaf2d2bfcfac610da289113dd9475c8c15268d2add3fc0ab9761f64736f6c634300081a0033\n}\n",
				"bytecode": {
					"linkReferences": {},
					"object": "608060405234801561001057600080fd5b5060405161442e38038061442e83398181016040528101906100329190610368565b82600073ffffffffffffffffffffffffffffffffffffffff168173ffffffffffffffffffffffffffffffffffffffff16036100a55760006040517f1e4fbdf700000000000000000000000000000000000000000000000000000000815260040161009c91906103ca565b60405180910390fd5b6100b48161020b60201b60201c565b5080600560003073ffffffffffffffffffffffffffffffffffffffff1673ffffffffffffffffffffffffffffffffffffffff168152602001908152602001600020600101819055506706f05b59d3b20000600560003073ffffffffffffffffffffffffffffffffffffffff1673ffffffffffffffffffffffffffffffffffffffff16815260200190815260200160002060040160006002811061015a576101596103e5565b5b01819055506706f05b59d3b20000600560003073ffffffffffffffffffffffffffffffffffffffff1673ffffffffffffffffffffffffffffffffffffffff1681526020019081526020016000206004016001600281106101bd576101bc6103e5565b5b018190555081600160006101000a81548173ffffffffffffffffffffffffffffffffffffffff021916908373ffffffffffffffffffffffffffffffffffffffff160217905550505050610414565b60008060009054906101000a900473ffffffffffffffffffffffffffffffffffffffff169050816000806101000a81548173ffffffffffffffffffffffffffffffffffffffff021916908373ffffffffffffffffffffffffffffffffffffffff1602179055508173ffffffffffffffffffffffffffffffffffffffff168173ffffffffffffffffffffffffffffffffffffffff167f8be0079c531659141344cd1fd0a4f28419497f9722a3daafe3b4186f6b6457e060405160405180910390a35050565b600080fd5b600073ffffffffffffffffffffffffffffffffffffffff82169050919050565b60006102ff826102d4565b9050919050565b61030f816102f4565b811461031a57600080fd5b50565b60008151905061032c81610306565b92915050565b6000819050919050565b61034581610332565b811461035057600080fd5b50565b6000815190506103628161033c565b92915050565b600080600060608486031215610381576103806102cf565b5b600061038f8682870161031d565b93505060206103a08682870161031d565b92505060406103b186828701610353565b9150509250925092565b6103c4816102f4565b82525050565b60006020820190506103df60008301846103bb565b92915050565b7f4e487b7100000000000000000000000000000000000000000000000000000000600052603260045260246000fd5b61400b806104236000396000f3fe608060405234801561001057600080fd5b50600436106101215760003560e01c80636399d03d116100ad578063b3c740e811610071578063b3c740e81461033e578063bff1f9e11461036e578063c43513861461038c578063f2fde38b146103c1578063fbea0b06146103dd57610121565b80636399d03d146102ae5780636ffcc719146102ca578063715018a6146102e657806384b5aca6146102f05780638da5cb5b1461032057610121565b8063208c86a4116100f4578063208c86a4146101d857806321d0d9af146101f75780633774ca2514610228578063456e62ba1461025d57806361d464ef1461027957610121565b806308ef962e146101265780630efa82f61461015657806311eac855146101865780631959a002146101a4575b600080fd5b610140600480360381019061013b91906136d2565b6103f9565b60405161014d9190613740565b60405180910390f35b610170600480360381019061016b9190613787565b61042c565b60405161017d91906137e2565b60405180910390f35b61018e610497565b60405161019b919061385c565b60405180910390f35b6101be60048036038101906101b99190613877565b6104bd565b6040516101cf9594939291906138b3565b60405180910390f35b6101e06104f3565b6040516101ee929190613906565b60405180910390f35b610211600480360381019061020c919061392f565b6105ac565b60405161021f929190613906565b60405180910390f35b610242600480360381019061023d9190613787565b6106f5565b6040516102549695949392919061396f565b60405180910390f35b610277600480360381019061027291906139d0565b610946565b005b610293600480360381019061028e9190613787565b611104565b6040516102a59695949392919061396f565b60405180910390f35b6102c860048036038101906102c391906136d2565b611187565b005b6102e460048036038101906102df919061392f565b612141565b005b6102ee612844565b005b61030a6004803603810190610305919061392f565b612858565b6040516103179190613a23565b60405180910390f35b610328612917565b6040516103359190613740565b60405180910390f35b6103586004803603810190610353919061392f565b612940565b6040516103659190613a23565b60405180910390f35b610376612a05565b6040516103839190613a23565b60405180910390f35b6103a660048036038101906103a19190613877565b612a0b565b6040516103b896959493929190613a3e565b60405180910390f35b6103db60048036038101906103d69190613877565b612a54565b005b6103f760048036038101906103f29190613a9f565b612ada565b005b60036020528060005260406000206000915054906101000a900473ffffffffffffffffffffffffffffffffffffffff1681565b6000600460008473ffffffffffffffffffffffffffffffffffffffff1673ffffffffffffffffffffffffffffffffffffffff168152602001908152602001600020600501600083815260200190815260200160002060009054906101000a900460ff16905092915050565b600160009054906101000a900473ffffffffffffffffffffffffffffffffffffffff1681565b60046020528060005260406000206000915090508060000154908060010154908060020154908060030154908060040154905085565b600080600560003073ffffffffffffffffffffffffffffffffffffffff1673ffffffffffffffffffffffffffffffffffffffff16815260200190815260200160002060040160006002811061054b5761054a613adf565b5b0154600560003073ffffffffffffffffffffffffffffffffffffffff1673ffffffffffffffffffffffffffffffffffffffff1681526020019081526020016000206004016001600281106105a2576105a1613adf565b5b0154915091509091565b6000806000600560003073ffffffffffffffffffffffffffffffffffffffff1673ffffffffffffffffffffffffffffffffffffffff16815260200190815260200160002060040160006002811061060657610605613adf565b5b015490506000600560003073ffffffffffffffffffffffffffffffffffffffff1673ffffffffffffffffffffffffffffffffffffffff16815260200190815260200160002060040160016002811061066157610660613adf565b5b01549050600085876106739190613b3d565b9050600087146106ad578060648861068b9190613b71565b6106959190613be2565b9250662386f26fc10000836106aa9190613b71565b92505b600086146106e557806064876106c39190613b71565b6106cd9190613be2565b9150662386f26fc10000826106e29190613b71565b91505b8282945094505050509250929050565b600080600080600080600660008973ffffffffffffffffffffffffffffffffffffffff1673ffffffffffffffffffffffffffffffffffffffff168152602001908152602001600020600088815260200190815260200160002060000160009054906101000a900460ff16600660008a73ffffffffffffffffffffffffffffffffffffffff1673ffffffffffffffffffffffffffffffffffffffff168152602001908152602001600020600089815260200190815260200160002060000160019054906101000a900460ff16600660008b73ffffffffffffffffffffffffffffffffffffffff1673ffffffffffffffffffffffffffffffffffffffff16815260200190815260200160002060008a815260200190815260200160002060000160029054906101000a900473ffffffffffffffffffffffffffffffffffffffff16600660008c73ffffffffffffffffffffffffffffffffffffffff1673ffffffffffffffffffffffffffffffffffffffff16815260200190815260200160002060008b815260200190815260200160002060010154600660008d73ffffffffffffffffffffffffffffffffffffffff1673ffffffffffffffffffffffffffffffffffffffff16815260200190815260200160002060008c815260200190815260200160002060020154600660008e73ffffffffffffffffffffffffffffffffffffffff1673ffffffffffffffffffffffffffffffffffffffff16815260200190815260200160002060008d8152602001908152602001600020600301549550955095509550955095509295509295509295565b60008114158015610958575060018114155b1561099a57806040517fd7acbe890000000000000000000000000000000000000000000000000000000081526004016109919190613a23565b60405180910390fd5b600083116109df57826040517f2ff478300000000000000000000000000000000000000000000000000000000081526004016109d69190613a23565b60405180910390fd5b600560003073ffffffffffffffffffffffffffffffffffffffff1673ffffffffffffffffffffffffffffffffffffffff16815260200190815260200160002060000160009054906101000a900460ff1615610a66576040517f853fd42100000000000000000000000000000000000000000000000000000000815260040160405180910390fd5b600460003373ffffffffffffffffffffffffffffffffffffffff1673ffffffffffffffffffffffffffffffffffffffff168152602001908152602001600020600501600082815260200190815260200160002060009054906101000a900460ff16610b6857600460003373ffffffffffffffffffffffffffffffffffffffff1673ffffffffffffffffffffffffffffffffffffffff168152602001908152602001600020600501600082815260200190815260200160002060009054906101000a900460ff166040517f3c3a3128000000000000000000000000000000000000000000000000000000008152600401610b5f91906137e2565b60405180910390fd5b60008211610bad57816040517fbfc19482000000000000000000000000000000000000000000000000000000008152600401610ba49190613a23565b60405180910390fd5b60008103610c3f57600460003373ffffffffffffffffffffffffffffffffffffffff1673ffffffffffffffffffffffffffffffffffffffff16815260200190815260200160002060010154831115610c3a576040517f08c379a0000000000000000000000000000000000000000000000000000000008152600401610c3190613c70565b60405180910390fd5b610cc5565b600460003373ffffffffffffffffffffffffffffffffffffffff1673ffffffffffffffffffffffffffffffffffffffff16815260200190815260200160002060030154831115610cc4576040517f08c379a0000000000000000000000000000000000000000000000000000000008152600401610cbb90613c70565b60405180910390fd5b5b600460003373ffffffffffffffffffffffffffffffffffffffff1673ffffffffffffffffffffffffffffffffffffffff1681526020019081526020016000206000016000815480929190610d1890613c90565b91905055506001600660003373ffffffffffffffffffffffffffffffffffffffff1673ffffffffffffffffffffffffffffffffffffffff1681526020019081526020016000206000600460003373ffffffffffffffffffffffffffffffffffffffff1673ffffffffffffffffffffffffffffffffffffffff16815260200190815260200160002060000154815260200190815260200160002060000160006101000a81548160ff02191690831515021790555081600660003373ffffffffffffffffffffffffffffffffffffffff1673ffffffffffffffffffffffffffffffffffffffff1681526020019081526020016000206000600460003373ffffffffffffffffffffffffffffffffffffffff1673ffffffffffffffffffffffffffffffffffffffff1681526020019081526020016000206000015481526020019081526020016000206001018190555082600660003373ffffffffffffffffffffffffffffffffffffffff1673ffffffffffffffffffffffffffffffffffffffff1681526020019081526020016000206000600460003373ffffffffffffffffffffffffffffffffffffffff1673ffffffffffffffffffffffffffffffffffffffff1681526020019081526020016000206000015481526020019081526020016000206002018190555033600660003373ffffffffffffffffffffffffffffffffffffffff1673ffffffffffffffffffffffffffffffffffffffff1681526020019081526020016000206000600460003373ffffffffffffffffffffffffffffffffffffffff1673ffffffffffffffffffffffffffffffffffffffff16815260200190815260200160002060000154815260200190815260200160002060000160026101000a81548173ffffffffffffffffffffffffffffffffffffffff021916908373ffffffffffffffffffffffffffffffffffffffff16021790555080600660003373ffffffffffffffffffffffffffffffffffffffff1673ffffffffffffffffffffffffffffffffffffffff1681526020019081526020016000206000600460003373ffffffffffffffffffffffffffffffffffffffff1673ffffffffffffffffffffffffffffffffffffffff168152602001908152602001600020600001548152602001908152602001600020600301819055503373ffffffffffffffffffffffffffffffffffffffff167f578d9bb67ff50e6081576125ad4c2410d6e82de6dbc1a5dcac37f8e5aa9ca4f4600460003373ffffffffffffffffffffffffffffffffffffffff1673ffffffffffffffffffffffffffffffffffffffff16815260200190815260200160002060000154846040516110f7929190613906565b60405180910390a2505050565b6006602052816000526040600020602052806000526040600020600091509150508060000160009054906101000a900460ff16908060000160019054906101000a900460ff16908060000160029054906101000a900473ffffffffffffffffffffffffffffffffffffffff16908060010154908060020154908060030154905086565b60008114158015611199575060018114155b156111db57806040517fd7acbe890000000000000000000000000000000000000000000000000000000081526004016111d29190613a23565b60405180910390fd5b600560003073ffffffffffffffffffffffffffffffffffffffff1673ffffffffffffffffffffffffffffffffffffffff16815260200190815260200160002060000160009054906101000a900460ff1615611262576040517f853fd42100000000000000000000000000000000000000000000000000000000815260040160405180910390fd5b42600560003073ffffffffffffffffffffffffffffffffffffffff1673ffffffffffffffffffffffffffffffffffffffff16815260200190815260200160002060010154111561132b57600560003073ffffffffffffffffffffffffffffffffffffffff1673ffffffffffffffffffffffffffffffffffffffff168152602001908152602001600020600101546040517f79073e7b0000000000000000000000000000000000000000000000000000000081526004016113229190613a23565b60405180910390fd5b600080600090505b60025481101561176b57600460006003600084815260200190815260200160002060009054906101000a900473ffffffffffffffffffffffffffffffffffffffff1673ffffffffffffffffffffffffffffffffffffffff1673ffffffffffffffffffffffffffffffffffffffff168152602001908152602001600020600501600084815260200190815260200160002060009054906101000a900460ff161561175e5760008314801561145c57506000600460006003600085815260200190815260200160002060009054906101000a900473ffffffffffffffffffffffffffffffffffffffff1673ffffffffffffffffffffffffffffffffffffffff1673ffffffffffffffffffffffffffffffffffffffff1681526020019081526020016000206001015414155b156115e1576114e0600460006003600085815260200190815260200160002060009054906101000a900473ffffffffffffffffffffffffffffffffffffffff1673ffffffffffffffffffffffffffffffffffffffff1673ffffffffffffffffffffffffffffffffffffffff1681526020019081526020016000206001015484612940565b600460006003600085815260200190815260200160002060009054906101000a900473ffffffffffffffffffffffffffffffffffffffff1673ffffffffffffffffffffffffffffffffffffffff1673ffffffffffffffffffffffffffffffffffffffff16815260200190815260200160002060040181905550600460006003600084815260200190815260200160002060009054906101000a900473ffffffffffffffffffffffffffffffffffffffff1673ffffffffffffffffffffffffffffffffffffffff1673ffffffffffffffffffffffffffffffffffffffff16815260200190815260200160002060040154826115da9190613b3d565b915061175d565b611660600460006003600085815260200190815260200160002060009054906101000a900473ffffffffffffffffffffffffffffffffffffffff1673ffffffffffffffffffffffffffffffffffffffff1673ffffffffffffffffffffffffffffffffffffffff1681526020019081526020016000206003015484612940565b600460006003600085815260200190815260200160002060009054906101000a900473ffffffffffffffffffffffffffffffffffffffff1673ffffffffffffffffffffffffffffffffffffffff1673ffffffffffffffffffffffffffffffffffffffff16815260200190815260200160002060040181905550600460006003600084815260200190815260200160002060009054906101000a900473ffffffffffffffffffffffffffffffffffffffff1673ffffffffffffffffffffffffffffffffffffffff1673ffffffffffffffffffffffffffffffffffffffff168152602001908152602001600020600401548261175a9190613b3d565b91505b5b8080600101915050611333565b50600081600560003073ffffffffffffffffffffffffffffffffffffffff1673ffffffffffffffffffffffffffffffffffffffff168152602001908152602001600020600301546117bc9190613be2565b9050600080600090505b600254811015611e3457600460006003600084815260200190815260200160002060009054906101000a900473ffffffffffffffffffffffffffffffffffffffff1673ffffffffffffffffffffffffffffffffffffffff1673ffffffffffffffffffffffffffffffffffffffff168152602001908152602001600020600501600086815260200190815260200160002060009054906101000a900460ff1615611e27576000850361198457600460006003600084815260200190815260200160002060009054906101000a900473ffffffffffffffffffffffffffffffffffffffff1673ffffffffffffffffffffffffffffffffffffffff1673ffffffffffffffffffffffffffffffffffffffff1681526020019081526020016000206001015483600460006003600086815260200190815260200160002060009054906101000a900473ffffffffffffffffffffffffffffffffffffffff1673ffffffffffffffffffffffffffffffffffffffff1673ffffffffffffffffffffffffffffffffffffffff168152602001908152602001600020600401546119689190613b71565b6119729190613cd8565b8261197d9190613b3d565b9150611a93565b600460006003600084815260200190815260200160002060009054906101000a900473ffffffffffffffffffffffffffffffffffffffff1673ffffffffffffffffffffffffffffffffffffffff1673ffffffffffffffffffffffffffffffffffffffff1681526020019081526020016000206003015483600460006003600086815260200190815260200160002060009054906101000a900473ffffffffffffffffffffffffffffffffffffffff1673ffffffffffffffffffffffffffffffffffffffff1673ffffffffffffffffffffffffffffffffffffffff16815260200190815260200160002060040154611a7b9190613b71565b611a859190613cd8565b82611a909190613b3d565b91505b82600460006003600085815260200190815260200160002060009054906101000a900473ffffffffffffffffffffffffffffffffffffffff1673ffffffffffffffffffffffffffffffffffffffff1673ffffffffffffffffffffffffffffffffffffffff16815260200190815260200160002060040154611b149190613b71565b600160009054906101000a900473ffffffffffffffffffffffffffffffffffffffff1673ffffffffffffffffffffffffffffffffffffffff166370a08231306040518263ffffffff1660e01b8152600401611b6f9190613740565b602060405180830381865afa158015611b8c573d6000803e3d6000fd5b505050506040513d601f19601f82011682018060405250810190611bb09190613d21565b1015611c8e57600160009054906101000a900473ffffffffffffffffffffffffffffffffffffffff1673ffffffffffffffffffffffffffffffffffffffff166370a08231306040518263ffffffff1660e01b8152600401611c119190613740565b602060405180830381865afa158015611c2e573d6000803e3d6000fd5b505050506040513d601f19601f82011682018060405250810190611c529190613d21565b6040517ff9ae0cb4000000000000000000000000000000000000000000000000000000008152600401611c859190613a23565b60405180910390fd5b6000600160009054906101000a900473ffffffffffffffffffffffffffffffffffffffff1673ffffffffffffffffffffffffffffffffffffffff1663a9059cbb6003600085815260200190815260200160002060009054906101000a900473ffffffffffffffffffffffffffffffffffffffff1686600460006003600089815260200190815260200160002060009054906101000a900473ffffffffffffffffffffffffffffffffffffffff1673ffffffffffffffffffffffffffffffffffffffff1673ffffffffffffffffffffffffffffffffffffffff16815260200190815260200160002060040154611d839190613b71565b6040518363ffffffff1660e01b8152600401611da0929190613d4e565b6020604051808303816000875af1158015611dbf573d6000803e3d6000fd5b505050506040513d601f19601f82011682018060405250810190611de39190613da3565b905080611e25576040517f08c379a0000000000000000000000000000000000000000000000000000000008152600401611e1c90613e1c565b60405180910390fd5b505b80806001019150506117c6565b5080600160009054906101000a900473ffffffffffffffffffffffffffffffffffffffff1673ffffffffffffffffffffffffffffffffffffffff166370a08231306040518263ffffffff1660e01b8152600401611e919190613740565b602060405180830381865afa158015611eae573d6000803e3d6000fd5b505050506040513d601f19601f82011682018060405250810190611ed29190613d21565b1015611fb057600160009054906101000a900473ffffffffffffffffffffffffffffffffffffffff1673ffffffffffffffffffffffffffffffffffffffff166370a08231306040518263ffffffff1660e01b8152600401611f339190613740565b602060405180830381865afa158015611f50573d6000803e3d6000fd5b505050506040513d601f19601f82011682018060405250810190611f749190613d21565b6040517fba9c3e4f000000000000000000000000000000000000000000000000000000008152600401611fa79190613a23565b60405180910390fd5b6001600560003073ffffffffffffffffffffffffffffffffffffffff1673ffffffffffffffffffffffffffffffffffffffff16815260200190815260200160002060000160006101000a81548160ff0219169083151502179055506000600160009054906101000a900473ffffffffffffffffffffffffffffffffffffffff1673ffffffffffffffffffffffffffffffffffffffff1663a9059cbb612053612917565b846040518363ffffffff1660e01b8152600401612071929190613d4e565b6020604051808303816000875af1158015612090573d6000803e3d6000fd5b505050506040513d601f19601f820116820180604052508101906120b49190613da3565b9050806120f6576040517f08c379a00000000000000000000000000000000000000000000000000000000081526004016120ed90613e1c565b60405180910390fd5b7f4d21af759c8d2f25c6246594b4cfc2edeb2b901bc0c6e87f5e21c212a12ca1fd61211f612917565b8385886040516121329493929190613e3c565b60405180910390a15050505050565b60008114158015612153575060018114155b1561219557806040517fd7acbe8900000000000000000000000000000000000000000000000000000000815260040161218c9190613a23565b60405180910390fd5b600082116121da57816040517f2ff478300000000000000000000000000000000000000000000000000000000081526004016121d19190613a23565b60405180910390fd5b600560003073ffffffffffffffffffffffffffffffffffffffff1673ffffffffffffffffffffffffffffffffffffffff16815260200190815260200160002060000160009054906101000a900460ff1615612261576040517f853fd42100000000000000000000000000000000000000000000000000000000815260040160405180910390fd5b600460003373ffffffffffffffffffffffffffffffffffffffff1673ffffffffffffffffffffffffffffffffffffffff168152602001908152602001600020600501600082815260200190815260200160002060009054906101000a900460ff16612333573360036000600254815260200190815260200160002060006101000a81548173ffffffffffffffffffffffffffffffffffffffff021916908373ffffffffffffffffffffffffffffffffffffffff1602179055506002600081548092919061232d90613c90565b91905055505b600081036123f157600560003073ffffffffffffffffffffffffffffffffffffffff1673ffffffffffffffffffffffffffffffffffffffff168152602001908152602001600020600701600081548092919061238e90613c90565b919050555081600460003373ffffffffffffffffffffffffffffffffffffffff1673ffffffffffffffffffffffffffffffffffffffff16815260200190815260200160002060010160008282546123e59190613b3d565b925050819055506124a3565b600560003073ffffffffffffffffffffffffffffffffffffffff1673ffffffffffffffffffffffffffffffffffffffff168152602001908152602001600020600601600081548092919061244490613c90565b919050555081600460003373ffffffffffffffffffffffffffffffffffffffff1673ffffffffffffffffffffffffffffffffffffffff168152602001908152602001600020600301600082825461249b9190613b3d565b925050819055505b81600560003073ffffffffffffffffffffffffffffffffffffffff1673ffffffffffffffffffffffffffffffffffffffff16815260200190815260200160002060030160008282546124f59190613b3d565b92505081905550600560003073ffffffffffffffffffffffffffffffffffffffff1673ffffffffffffffffffffffffffffffffffffffff168152602001908152602001600020600201600081548092919061254f90613c90565b91905055506001600460003373ffffffffffffffffffffffffffffffffffffffff1673ffffffffffffffffffffffffffffffffffffffff168152602001908152602001600020600501600083815260200190815260200160002060006101000a81548160ff02191690831515021790555061264e600560003073ffffffffffffffffffffffffffffffffffffffff1673ffffffffffffffffffffffffffffffffffffffff16815260200190815260200160002060070154600560003073ffffffffffffffffffffffffffffffffffffffff1673ffffffffffffffffffffffffffffffffffffffff168152602001908152602001600020600601546105ac565b600560003073ffffffffffffffffffffffffffffffffffffffff1673ffffffffffffffffffffffffffffffffffffffff1681526020019081526020016000206004016000600281106126a3576126a2613adf565b5b016000600560003073ffffffffffffffffffffffffffffffffffffffff1673ffffffffffffffffffffffffffffffffffffffff1681526020019081526020016000206004016001600281106126fb576126fa613adf565b5b0160008491905055839190505550506000600160009054906101000a900473ffffffffffffffffffffffffffffffffffffffff1673ffffffffffffffffffffffffffffffffffffffff166323b872dd3330866040518463ffffffff1660e01b815260040161276b93929190613e81565b6020604051808303816000875af115801561278a573d6000803e3d6000fd5b505050506040513d601f19601f820116820180604052508101906127ae9190613da3565b9050806127f0576040517f08c379a00000000000000000000000000000000000000000000000000000000081526004016127e790613e1c565b60405180910390fd5b823373ffffffffffffffffffffffffffffffffffffffff167ff41b7910e085d0992d604fd470931728fd77cc8eb504d99e50e51a0a30fcfd1a846040516128379190613a23565b60405180910390a3505050565b61284c613544565b61285660006135cb565b565b600080831161289c576040517f08c379a000000000000000000000000000000000000000000000000000000000815260040161289390613f04565b60405180910390fd5b60006064600560003073ffffffffffffffffffffffffffffffffffffffff1673ffffffffffffffffffffffffffffffffffffffff16815260200190815260200160002060040184600281106128f4576128f3613adf565b5b0154856129019190613b71565b61290b9190613be2565b90508091505092915050565b60008060009054906101000a900473ffffffffffffffffffffffffffffffffffffffff16905090565b600080600560003073ffffffffffffffffffffffffffffffffffffffff1673ffffffffffffffffffffffffffffffffffffffff168152602001908152602001600020600401836002811061299757612996613adf565b5b01549050600081036129de576040517f08c379a00000000000000000000000000000000000000000000000000000000081526004016129d590613f70565b60405180910390fd5b6000816064866129ee9190613b71565b6129f89190613be2565b9050809250505092915050565b60025481565b60056020528060005260406000206000915090508060000160009054906101000a900460ff16908060010154908060020154908060030154908060060154908060070154905086565b612a5c613544565b600073ffffffffffffffffffffffffffffffffffffffff168173ffffffffffffffffffffffffffffffffffffffff1603612ace5760006040517f1e4fbdf7000000000000000000000000000000000000000000000000000000008152600401612ac59190613740565b60405180910390fd5b612ad7816135cb565b50565b600660008273ffffffffffffffffffffffffffffffffffffffff1673ffffffffffffffffffffffffffffffffffffffff168152602001908152602001600020600083815260200190815260200160002060000160009054906101000a900460ff16612b7c57816040517f15997068000000000000000000000000000000000000000000000000000000008152600401612b739190613a23565b60405180910390fd5b600660008273ffffffffffffffffffffffffffffffffffffffff1673ffffffffffffffffffffffffffffffffffffffff168152602001908152602001600020600083815260200190815260200160002060000160019054906101000a900460ff1615612c7f57600660008273ffffffffffffffffffffffffffffffffffffffff1673ffffffffffffffffffffffffffffffffffffffff168152602001908152602001600020600083815260200190815260200160002060000160019054906101000a900460ff166040517fca1c6eb3000000000000000000000000000000000000000000000000000000008152600401612c7691906137e2565b60405180910390fd5b600560003073ffffffffffffffffffffffffffffffffffffffff1673ffffffffffffffffffffffffffffffffffffffff16815260200190815260200160002060000160009054906101000a900460ff1615612d06576040517f853fd42100000000000000000000000000000000000000000000000000000000815260040160405180910390fd5b8073ffffffffffffffffffffffffffffffffffffffff16600660008373ffffffffffffffffffffffffffffffffffffffff1673ffffffffffffffffffffffffffffffffffffffff168152602001908152602001600020600084815260200190815260200160002060000160029054906101000a900473ffffffffffffffffffffffffffffffffffffffff1673ffffffffffffffffffffffffffffffffffffffff1614612de957806040517ff6b79c58000000000000000000000000000000000000000000000000000000008152600401612de09190613740565b60405180910390fd5b6001600660008373ffffffffffffffffffffffffffffffffffffffff1673ffffffffffffffffffffffffffffffffffffffff168152602001908152602001600020600084815260200190815260200160002060000160016101000a81548160ff02191690831515021790555033600660008373ffffffffffffffffffffffffffffffffffffffff1673ffffffffffffffffffffffffffffffffffffffff168152602001908152602001600020600084815260200190815260200160002060000160026101000a81548173ffffffffffffffffffffffffffffffffffffffff021916908373ffffffffffffffffffffffffffffffffffffffff1602179055506000600660008373ffffffffffffffffffffffffffffffffffffffff1673ffffffffffffffffffffffffffffffffffffffff1681526020019081526020016000206000848152602001908152602001600020600301540361309f57600660008273ffffffffffffffffffffffffffffffffffffffff1673ffffffffffffffffffffffffffffffffffffffff168152602001908152602001600020600083815260200190815260200160002060020154600460003373ffffffffffffffffffffffffffffffffffffffff1673ffffffffffffffffffffffffffffffffffffffff1681526020019081526020016000206001016000828254612fe79190613b3d565b92505081905550600660008273ffffffffffffffffffffffffffffffffffffffff1673ffffffffffffffffffffffffffffffffffffffff168152602001908152602001600020600083815260200190815260200160002060020154600460008373ffffffffffffffffffffffffffffffffffffffff1673ffffffffffffffffffffffffffffffffffffffff16815260200190815260200160002060010160008282546130939190613cd8565b925050819055506131f8565b600660008273ffffffffffffffffffffffffffffffffffffffff1673ffffffffffffffffffffffffffffffffffffffff168152602001908152602001600020600083815260200190815260200160002060020154600460008373ffffffffffffffffffffffffffffffffffffffff1673ffffffffffffffffffffffffffffffffffffffff16815260200190815260200160002060030160008282546131449190613cd8565b92505081905550600660008273ffffffffffffffffffffffffffffffffffffffff1673ffffffffffffffffffffffffffffffffffffffff168152602001908152602001600020600083815260200190815260200160002060020154600460003373ffffffffffffffffffffffffffffffffffffffff1673ffffffffffffffffffffffffffffffffffffffff16815260200190815260200160002060030160008282546131f09190613b3d565b925050819055505b6001600460003373ffffffffffffffffffffffffffffffffffffffff1673ffffffffffffffffffffffffffffffffffffffff1681526020019081526020016000206005016000600660008573ffffffffffffffffffffffffffffffffffffffff1673ffffffffffffffffffffffffffffffffffffffff168152602001908152602001600020600086815260200190815260200160002060030154815260200190815260200160002060006101000a81548160ff0219169083151502179055503360036000600254815260200190815260200160002060006101000a81548173ffffffffffffffffffffffffffffffffffffffff021916908373ffffffffffffffffffffffffffffffffffffffff1602179055506002600081548092919061331e90613c90565b91905055506000600160009054906101000a900473ffffffffffffffffffffffffffffffffffffffff1673ffffffffffffffffffffffffffffffffffffffff166323b872dd3384600660008773ffffffffffffffffffffffffffffffffffffffff1673ffffffffffffffffffffffffffffffffffffffff1681526020019081526020016000206000888152602001908152602001600020600101546040518463ffffffff1660e01b81526004016133d793929190613e81565b6020604051808303816000875af11580156133f6573d6000803e3d6000fd5b505050506040513d601f19601f8201168201806040525081019061341a9190613da3565b90508061345c576040517f08c379a000000000000000000000000000000000000000000000000000000000815260040161345390613e1c565b60405180910390fd5b7fc891adf8dfbf643a02668e73c35bbbb3c8aa9d86e0dc779d260026cfc0ab8b993383600660008673ffffffffffffffffffffffffffffffffffffffff1673ffffffffffffffffffffffffffffffffffffffff168152602001908152602001600020600087815260200190815260200160002060020154600660008773ffffffffffffffffffffffffffffffffffffffff1673ffffffffffffffffffffffffffffffffffffffff1681526020019081526020016000206000888152602001908152602001600020600101546040516135379493929190613f90565b60405180910390a1505050565b61354c61368f565b73ffffffffffffffffffffffffffffffffffffffff1661356a612917565b73ffffffffffffffffffffffffffffffffffffffff16146135c95761358d61368f565b6040517f118cdaa70000000000000000000000000000000000000000000000000000000081526004016135c09190613740565b60405180910390fd5b565b60008060009054906101000a900473ffffffffffffffffffffffffffffffffffffffff169050816000806101000a81548173ffffffffffffffffffffffffffffffffffffffff021916908373ffffffffffffffffffffffffffffffffffffffff1602179055508173ffffffffffffffffffffffffffffffffffffffff168173ffffffffffffffffffffffffffffffffffffffff167f8be0079c531659141344cd1fd0a4f28419497f9722a3daafe3b4186f6b6457e060405160405180910390a35050565b600033905090565b600080fd5b6000819050919050565b6136af8161369c565b81146136ba57600080fd5b50565b6000813590506136cc816136a6565b92915050565b6000602082840312156136e8576136e7613697565b5b60006136f6848285016136bd565b91505092915050565b600073ffffffffffffffffffffffffffffffffffffffff82169050919050565b600061372a826136ff565b9050919050565b61373a8161371f565b82525050565b60006020820190506137556000830184613731565b92915050565b6137648161371f565b811461376f57600080fd5b50565b6000813590506137818161375b565b92915050565b6000806040838503121561379e5761379d613697565b5b60006137ac85828601613772565b92505060206137bd858286016136bd565b9150509250929050565b60008115159050919050565b6137dc816137c7565b82525050565b60006020820190506137f760008301846137d3565b92915050565b6000819050919050565b600061382261381d613818846136ff565b6137fd565b6136ff565b9050919050565b600061383482613807565b9050919050565b600061384682613829565b9050919050565b6138568161383b565b82525050565b6000602082019050613871600083018461384d565b92915050565b60006020828403121561388d5761388c613697565b5b600061389b84828501613772565b91505092915050565b6138ad8161369c565b82525050565b600060a0820190506138c860008301886138a4565b6138d560208301876138a4565b6138e260408301866138a4565b6138ef60608301856138a4565b6138fc60808301846138a4565b9695505050505050565b600060408201905061391b60008301856138a4565b61392860208301846138a4565b9392505050565b6000806040838503121561394657613945613697565b5b6000613954858286016136bd565b9250506020613965858286016136bd565b9150509250929050565b600060c08201905061398460008301896137d3565b61399160208301886137d3565b61399e6040830187613731565b6139ab60608301866138a4565b6139b860808301856138a4565b6139c560a08301846138a4565b979650505050505050565b6000806000606084860312156139e9576139e8613697565b5b60006139f7868287016136bd565b9350506020613a08868287016136bd565b9250506040613a19868287016136bd565b9150509250925092565b6000602082019050613a3860008301846138a4565b92915050565b600060c082019050613a5360008301896137d3565b613a6060208301886138a4565b613a6d60408301876138a4565b613a7a60608301866138a4565b613a8760808301856138a4565b613a9460a08301846138a4565b979650505050505050565b60008060408385031215613ab657613ab5613697565b5b6000613ac4858286016136bd565b9250506020613ad585828601613772565b9150509250929050565b7f4e487b7100000000000000000000000000000000000000000000000000000000600052603260045260246000fd5b7f4e487b7100000000000000000000000000000000000000000000000000000000600052601160045260246000fd5b6000613b488261369c565b9150613b538361369c565b9250828201905080821115613b6b57613b6a613b0e565b5b92915050565b6000613b7c8261369c565b9150613b878361369c565b9250828202613b958161369c565b91508282048414831517613bac57613bab613b0e565b5b5092915050565b7f4e487b7100000000000000000000000000000000000000000000000000000000600052601260045260246000fd5b6000613bed8261369c565b9150613bf88361369c565b925082613c0857613c07613bb3565b5b828204905092915050565b600082825260208201905092915050565b7f6e6f7420656e6f75676820416d6f756e74000000000000000000000000000000600082015250565b6000613c5a601183613c13565b9150613c6582613c24565b602082019050919050565b60006020820190508181036000830152613c8981613c4d565b9050919050565b6000613c9b8261369c565b91507fffffffffffffffffffffffffffffffffffffffffffffffffffffffffffffffff8203613ccd57613ccc613b0e565b5b600182019050919050565b6000613ce38261369c565b9150613cee8361369c565b9250828203905081811115613d0657613d05613b0e565b5b92915050565b600081519050613d1b816136a6565b92915050565b600060208284031215613d3757613d36613697565b5b6000613d4584828501613d0c565b91505092915050565b6000604082019050613d636000830185613731565b613d7060208301846138a4565b9392505050565b613d80816137c7565b8114613d8b57600080fd5b50565b600081519050613d9d81613d77565b92915050565b600060208284031215613db957613db8613697565b5b6000613dc784828501613d8e565b91505092915050565b7f5472616e73666572206661696c65640000000000000000000000000000000000600082015250565b6000613e06600f83613c13565b9150613e1182613dd0565b602082019050919050565b60006020820190508181036000830152613e3581613df9565b9050919050565b6000608082019050613e516000830187613731565b613e5e60208301866138a4565b613e6b60408301856138a4565b613e7860608301846138a4565b95945050505050565b6000606082019050613e966000830186613731565b613ea36020830185613731565b613eb060408301846138a4565b949350505050565b7f536861726573206d7573742062652067726561746572207468616e207a65726f600082015250565b6000613eee602083613c13565b9150613ef982613eb8565b602082019050919050565b60006020820190508181036000830152613f1d81613ee1565b9050919050565b7f5f70726963652063616e6e6f74206265207a65726f0000000000000000000000600082015250565b6000613f5a601583613c13565b9150613f6582613f24565b602082019050919050565b60006020820190508181036000830152613f8981613f4d565b9050919050565b6000608082019050613fa56000830187613731565b613fb26020830186613731565b613fbf60408301856138a4565b613fcc60608301846138a4565b9594505050505056fea2646970667358221220f6afb86ed3bdaf2d2bfcfac610da289113dd9475c8c15268d2add3fc0ab9761f64736f6c634300081a0033",
					"opcodes": "PUSH1 0x80 PUSH1 0x40 MSTORE CALLVALUE DUP1 ISZERO PUSH2 0x10 JUMPI PUSH1 0x0 DUP1 REVERT JUMPDEST POP PUSH1 0x40 MLOAD PUSH2 0x442E CODESIZE SUB DUP1 PUSH2 0x442E DUP4 CODECOPY DUP2 DUP2 ADD PUSH1 0x40 MSTORE DUP2 ADD SWAP1 PUSH2 0x32 SWAP2 SWAP1 PUSH2 0x368 JUMP JUMPDEST DUP3 PUSH1 0x0 PUSH20 0xFFFFFFFFFFFFFFFFFFFFFFFFFFFFFFFFFFFFFFFF AND DUP2 PUSH20 0xFFFFFFFFFFFFFFFFFFFFFFFFFFFFFFFFFFFFFFFF AND SUB PUSH2 0xA5 JUMPI PUSH1 0x0 PUSH1 0x40 MLOAD PUSH32 0x1E4FBDF700000000000000000000000000000000000000000000000000000000 DUP2 MSTORE PUSH1 0x4 ADD PUSH2 0x9C SWAP2 SWAP1 PUSH2 0x3CA JUMP JUMPDEST PUSH1 0x40 MLOAD DUP1 SWAP2 SUB SWAP1 REVERT JUMPDEST PUSH2 0xB4 DUP2 PUSH2 0x20B PUSH1 0x20 SHL PUSH1 0x20 SHR JUMP JUMPDEST POP DUP1 PUSH1 0x5 PUSH1 0x0 ADDRESS PUSH20 0xFFFFFFFFFFFFFFFFFFFFFFFFFFFFFFFFFFFFFFFF AND PUSH20 0xFFFFFFFFFFFFFFFFFFFFFFFFFFFFFFFFFFFFFFFF AND DUP2 MSTORE PUSH1 0x20 ADD SWAP1 DUP2 MSTORE PUSH1 0x20 ADD PUSH1 0x0 KECCAK256 PUSH1 0x1 ADD DUP2 SWAP1 SSTORE POP PUSH8 0x6F05B59D3B20000 PUSH1 0x5 PUSH1 0x0 ADDRESS PUSH20 0xFFFFFFFFFFFFFFFFFFFFFFFFFFFFFFFFFFFFFFFF AND PUSH20 0xFFFFFFFFFFFFFFFFFFFFFFFFFFFFFFFFFFFFFFFF AND DUP2 MSTORE PUSH1 0x20 ADD SWAP1 DUP2 MSTORE PUSH1 0x20 ADD PUSH1 0x0 KECCAK256 PUSH1 0x4 ADD PUSH1 0x0 PUSH1 0x2 DUP2 LT PUSH2 0x15A JUMPI PUSH2 0x159 PUSH2 0x3E5 JUMP JUMPDEST JUMPDEST ADD DUP2 SWAP1 SSTORE POP PUSH8 0x6F05B59D3B20000 PUSH1 0x5 PUSH1 0x0 ADDRESS PUSH20 0xFFFFFFFFFFFFFFFFFFFFFFFFFFFFFFFFFFFFFFFF AND PUSH20 0xFFFFFFFFFFFFFFFFFFFFFFFFFFFFFFFFFFFFFFFF AND DUP2 MSTORE PUSH1 0x20 ADD SWAP1 DUP2 MSTORE PUSH1 0x20 ADD PUSH1 0x0 KECCAK256 PUSH1 0x4 ADD PUSH1 0x1 PUSH1 0x2 DUP2 LT PUSH2 0x1BD JUMPI PUSH2 0x1BC PUSH2 0x3E5 JUMP JUMPDEST JUMPDEST ADD DUP2 SWAP1 SSTORE POP DUP2 PUSH1 0x1 PUSH1 0x0 PUSH2 0x100 EXP DUP2 SLOAD DUP2 PUSH20 0xFFFFFFFFFFFFFFFFFFFFFFFFFFFFFFFFFFFFFFFF MUL NOT AND SWAP1 DUP4 PUSH20 0xFFFFFFFFFFFFFFFFFFFFFFFFFFFFFFFFFFFFFFFF AND MUL OR SWAP1 SSTORE POP POP POP POP PUSH2 0x414 JUMP JUMPDEST PUSH1 0x0 DUP1 PUSH1 0x0 SWAP1 SLOAD SWAP1 PUSH2 0x100 EXP SWAP1 DIV PUSH20 0xFFFFFFFFFFFFFFFFFFFFFFFFFFFFFFFFFFFFFFFF AND SWAP1 POP DUP2 PUSH1 0x0 DUP1 PUSH2 0x100 EXP DUP2 SLOAD DUP2 PUSH20 0xFFFFFFFFFFFFFFFFFFFFFFFFFFFFFFFFFFFFFFFF MUL NOT AND SWAP1 DUP4 PUSH20 0xFFFFFFFFFFFFFFFFFFFFFFFFFFFFFFFFFFFFFFFF AND MUL OR SWAP1 SSTORE POP DUP2 PUSH20 0xFFFFFFFFFFFFFFFFFFFFFFFFFFFFFFFFFFFFFFFF AND DUP2 PUSH20 0xFFFFFFFFFFFFFFFFFFFFFFFFFFFFFFFFFFFFFFFF AND PUSH32 0x8BE0079C531659141344CD1FD0A4F28419497F9722A3DAAFE3B4186F6B6457E0 PUSH1 0x40 MLOAD PUSH1 0x40 MLOAD DUP1 SWAP2 SUB SWAP1 LOG3 POP POP JUMP JUMPDEST PUSH1 0x0 DUP1 REVERT JUMPDEST PUSH1 0x0 PUSH20 0xFFFFFFFFFFFFFFFFFFFFFFFFFFFFFFFFFFFFFFFF DUP3 AND SWAP1 POP SWAP2 SWAP1 POP JUMP JUMPDEST PUSH1 0x0 PUSH2 0x2FF DUP3 PUSH2 0x2D4 JUMP JUMPDEST SWAP1 POP SWAP2 SWAP1 POP JUMP JUMPDEST PUSH2 0x30F DUP2 PUSH2 0x2F4 JUMP JUMPDEST DUP2 EQ PUSH2 0x31A JUMPI PUSH1 0x0 DUP1 REVERT JUMPDEST POP JUMP JUMPDEST PUSH1 0x0 DUP2 MLOAD SWAP1 POP PUSH2 0x32C DUP2 PUSH2 0x306 JUMP JUMPDEST SWAP3 SWAP2 POP POP JUMP JUMPDEST PUSH1 0x0 DUP2 SWAP1 POP SWAP2 SWAP1 POP JUMP JUMPDEST PUSH2 0x345 DUP2 PUSH2 0x332 JUMP JUMPDEST DUP2 EQ PUSH2 0x350 JUMPI PUSH1 0x0 DUP1 REVERT JUMPDEST POP JUMP JUMPDEST PUSH1 0x0 DUP2 MLOAD SWAP1 POP PUSH2 0x362 DUP2 PUSH2 0x33C JUMP JUMPDEST SWAP3 SWAP2 POP POP JUMP JUMPDEST PUSH1 0x0 DUP1 PUSH1 0x0 PUSH1 0x60 DUP5 DUP7 SUB SLT ISZERO PUSH2 0x381 JUMPI PUSH2 0x380 PUSH2 0x2CF JUMP JUMPDEST JUMPDEST PUSH1 0x0 PUSH2 0x38F DUP7 DUP3 DUP8 ADD PUSH2 0x31D JUMP JUMPDEST SWAP4 POP POP PUSH1 0x20 PUSH2 0x3A0 DUP7 DUP3 DUP8 ADD PUSH2 0x31D JUMP JUMPDEST SWAP3 POP POP PUSH1 0x40 PUSH2 0x3B1 DUP7 DUP3 DUP8 ADD PUSH2 0x353 JUMP JUMPDEST SWAP2 POP POP SWAP3 POP SWAP3 POP SWAP3 JUMP JUMPDEST PUSH2 0x3C4 DUP2 PUSH2 0x2F4 JUMP JUMPDEST DUP3 MSTORE POP POP JUMP JUMPDEST PUSH1 0x0 PUSH1 0x20 DUP3 ADD SWAP1 POP PUSH2 0x3DF PUSH1 0x0 DUP4 ADD DUP5 PUSH2 0x3BB JUMP JUMPDEST SWAP3 SWAP2 POP POP JUMP JUMPDEST PUSH32 0x4E487B7100000000000000000000000000000000000000000000000000000000 PUSH1 0x0 MSTORE PUSH1 0x32 PUSH1 0x4 MSTORE PUSH1 0x24 PUSH1 0x0 REVERT JUMPDEST PUSH2 0x400B DUP1 PUSH2 0x423 PUSH1 0x0 CODECOPY PUSH1 0x0 RETURN INVALID PUSH1 0x80 PUSH1 0x40 MSTORE CALLVALUE DUP1 ISZERO PUSH2 0x10 JUMPI PUSH1 0x0 DUP1 REVERT JUMPDEST POP PUSH1 0x4 CALLDATASIZE LT PUSH2 0x121 JUMPI PUSH1 0x0 CALLDATALOAD PUSH1 0xE0 SHR DUP1 PUSH4 0x6399D03D GT PUSH2 0xAD JUMPI DUP1 PUSH4 0xB3C740E8 GT PUSH2 0x71 JUMPI DUP1 PUSH4 0xB3C740E8 EQ PUSH2 0x33E JUMPI DUP1 PUSH4 0xBFF1F9E1 EQ PUSH2 0x36E JUMPI DUP1 PUSH4 0xC4351386 EQ PUSH2 0x38C JUMPI DUP1 PUSH4 0xF2FDE38B EQ PUSH2 0x3C1 JUMPI DUP1 PUSH4 0xFBEA0B06 EQ PUSH2 0x3DD JUMPI PUSH2 0x121 JUMP JUMPDEST DUP1 PUSH4 0x6399D03D EQ PUSH2 0x2AE JUMPI DUP1 PUSH4 0x6FFCC719 EQ PUSH2 0x2CA JUMPI DUP1 PUSH4 0x715018A6 EQ PUSH2 0x2E6 JUMPI DUP1 PUSH4 0x84B5ACA6 EQ PUSH2 0x2F0 JUMPI DUP1 PUSH4 0x8DA5CB5B EQ PUSH2 0x320 JUMPI PUSH2 0x121 JUMP JUMPDEST DUP1 PUSH4 0x208C86A4 GT PUSH2 0xF4 JUMPI DUP1 PUSH4 0x208C86A4 EQ PUSH2 0x1D8 JUMPI DUP1 PUSH4 0x21D0D9AF EQ PUSH2 0x1F7 JUMPI DUP1 PUSH4 0x3774CA25 EQ PUSH2 0x228 JUMPI DUP1 PUSH4 0x456E62BA EQ PUSH2 0x25D JUMPI DUP1 PUSH4 0x61D464EF EQ PUSH2 0x279 JUMPI PUSH2 0x121 JUMP JUMPDEST DUP1 PUSH4 0x8EF962E EQ PUSH2 0x126 JUMPI DUP1 PUSH4 0xEFA82F6 EQ PUSH2 0x156 JUMPI DUP1 PUSH4 0x11EAC855 EQ PUSH2 0x186 JUMPI DUP1 PUSH4 0x1959A002 EQ PUSH2 0x1A4 JUMPI JUMPDEST PUSH1 0x0 DUP1 REVERT JUMPDEST PUSH2 0x140 PUSH1 0x4 DUP1 CALLDATASIZE SUB DUP2 ADD SWAP1 PUSH2 0x13B SWAP2 SWAP1 PUSH2 0x36D2 JUMP JUMPDEST PUSH2 0x3F9 JUMP JUMPDEST PUSH1 0x40 MLOAD PUSH2 0x14D SWAP2 SWAP1 PUSH2 0x3740 JUMP JUMPDEST PUSH1 0x40 MLOAD DUP1 SWAP2 SUB SWAP1 RETURN JUMPDEST PUSH2 0x170 PUSH1 0x4 DUP1 CALLDATASIZE SUB DUP2 ADD SWAP1 PUSH2 0x16B SWAP2 SWAP1 PUSH2 0x3787 JUMP JUMPDEST PUSH2 0x42C JUMP JUMPDEST PUSH1 0x40 MLOAD PUSH2 0x17D SWAP2 SWAP1 PUSH2 0x37E2 JUMP JUMPDEST PUSH1 0x40 MLOAD DUP1 SWAP2 SUB SWAP1 RETURN JUMPDEST PUSH2 0x18E PUSH2 0x497 JUMP JUMPDEST PUSH1 0x40 MLOAD PUSH2 0x19B SWAP2 SWAP1 PUSH2 0x385C JUMP JUMPDEST PUSH1 0x40 MLOAD DUP1 SWAP2 SUB SWAP1 RETURN JUMPDEST PUSH2 0x1BE PUSH1 0x4 DUP1 CALLDATASIZE SUB DUP2 ADD SWAP1 PUSH2 0x1B9 SWAP2 SWAP1 PUSH2 0x3877 JUMP JUMPDEST PUSH2 0x4BD JUMP JUMPDEST PUSH1 0x40 MLOAD PUSH2 0x1CF SWAP6 SWAP5 SWAP4 SWAP3 SWAP2 SWAP1 PUSH2 0x38B3 JUMP JUMPDEST PUSH1 0x40 MLOAD DUP1 SWAP2 SUB SWAP1 RETURN JUMPDEST PUSH2 0x1E0 PUSH2 0x4F3 JUMP JUMPDEST PUSH1 0x40 MLOAD PUSH2 0x1EE SWAP3 SWAP2 SWAP1 PUSH2 0x3906 JUMP JUMPDEST PUSH1 0x40 MLOAD DUP1 SWAP2 SUB SWAP1 RETURN JUMPDEST PUSH2 0x211 PUSH1 0x4 DUP1 CALLDATASIZE SUB DUP2 ADD SWAP1 PUSH2 0x20C SWAP2 SWAP1 PUSH2 0x392F JUMP JUMPDEST PUSH2 0x5AC JUMP JUMPDEST PUSH1 0x40 MLOAD PUSH2 0x21F SWAP3 SWAP2 SWAP1 PUSH2 0x3906 JUMP JUMPDEST PUSH1 0x40 MLOAD DUP1 SWAP2 SUB SWAP1 RETURN JUMPDEST PUSH2 0x242 PUSH1 0x4 DUP1 CALLDATASIZE SUB DUP2 ADD SWAP1 PUSH2 0x23D SWAP2 SWAP1 PUSH2 0x3787 JUMP JUMPDEST PUSH2 0x6F5 JUMP JUMPDEST PUSH1 0x40 MLOAD PUSH2 0x254 SWAP7 SWAP6 SWAP5 SWAP4 SWAP3 SWAP2 SWAP1 PUSH2 0x396F JUMP JUMPDEST PUSH1 0x40 MLOAD DUP1 SWAP2 SUB SWAP1 RETURN JUMPDEST PUSH2 0x277 PUSH1 0x4 DUP1 CALLDATASIZE SUB DUP2 ADD SWAP1 PUSH2 0x272 SWAP2 SWAP1 PUSH2 0x39D0 JUMP JUMPDEST PUSH2 0x946 JUMP JUMPDEST STOP JUMPDEST PUSH2 0x293 PUSH1 0x4 DUP1 CALLDATASIZE SUB DUP2 ADD SWAP1 PUSH2 0x28E SWAP2 SWAP1 PUSH2 0x3787 JUMP JUMPDEST PUSH2 0x1104 JUMP JUMPDEST PUSH1 0x40 MLOAD PUSH2 0x2A5 SWAP7 SWAP6 SWAP5 SWAP4 SWAP3 SWAP2 SWAP1 PUSH2 0x396F JUMP JUMPDEST PUSH1 0x40 MLOAD DUP1 SWAP2 SUB SWAP1 RETURN JUMPDEST PUSH2 0x2C8 PUSH1 0x4 DUP1 CALLDATASIZE SUB DUP2 ADD SWAP1 PUSH2 0x2C3 SWAP2 SWAP1 PUSH2 0x36D2 JUMP JUMPDEST PUSH2 0x1187 JUMP JUMPDEST STOP JUMPDEST PUSH2 0x2E4 PUSH1 0x4 DUP1 CALLDATASIZE SUB DUP2 ADD SWAP1 PUSH2 0x2DF SWAP2 SWAP1 PUSH2 0x392F JUMP JUMPDEST PUSH2 0x2141 JUMP JUMPDEST STOP JUMPDEST PUSH2 0x2EE PUSH2 0x2844 JUMP JUMPDEST STOP JUMPDEST PUSH2 0x30A PUSH1 0x4 DUP1 CALLDATASIZE SUB DUP2 ADD SWAP1 PUSH2 0x305 SWAP2 SWAP1 PUSH2 0x392F JUMP JUMPDEST PUSH2 0x2858 JUMP JUMPDEST PUSH1 0x40 MLOAD PUSH2 0x317 SWAP2 SWAP1 PUSH2 0x3A23 JUMP JUMPDEST PUSH1 0x40 MLOAD DUP1 SWAP2 SUB SWAP1 RETURN JUMPDEST PUSH2 0x328 PUSH2 0x2917 JUMP JUMPDEST PUSH1 0x40 MLOAD PUSH2 0x335 SWAP2 SWAP1 PUSH2 0x3740 JUMP JUMPDEST PUSH1 0x40 MLOAD DUP1 SWAP2 SUB SWAP1 RETURN JUMPDEST PUSH2 0x358 PUSH1 0x4 DUP1 CALLDATASIZE SUB DUP2 ADD SWAP1 PUSH2 0x353 SWAP2 SWAP1 PUSH2 0x392F JUMP JUMPDEST PUSH2 0x2940 JUMP JUMPDEST PUSH1 0x40 MLOAD PUSH2 0x365 SWAP2 SWAP1 PUSH2 0x3A23 JUMP JUMPDEST PUSH1 0x40 MLOAD DUP1 SWAP2 SUB SWAP1 RETURN JUMPDEST PUSH2 0x376 PUSH2 0x2A05 JUMP JUMPDEST PUSH1 0x40 MLOAD PUSH2 0x383 SWAP2 SWAP1 PUSH2 0x3A23 JUMP JUMPDEST PUSH1 0x40 MLOAD DUP1 SWAP2 SUB SWAP1 RETURN JUMPDEST PUSH2 0x3A6 PUSH1 0x4 DUP1 CALLDATASIZE SUB DUP2 ADD SWAP1 PUSH2 0x3A1 SWAP2 SWAP1 PUSH2 0x3877 JUMP JUMPDEST PUSH2 0x2A0B JUMP JUMPDEST PUSH1 0x40 MLOAD PUSH2 0x3B8 SWAP7 SWAP6 SWAP5 SWAP4 SWAP3 SWAP2 SWAP1 PUSH2 0x3A3E JUMP JUMPDEST PUSH1 0x40 MLOAD DUP1 SWAP2 SUB SWAP1 RETURN JUMPDEST PUSH2 0x3DB PUSH1 0x4 DUP1 CALLDATASIZE SUB DUP2 ADD SWAP1 PUSH2 0x3D6 SWAP2 SWAP1 PUSH2 0x3877 JUMP JUMPDEST PUSH2 0x2A54 JUMP JUMPDEST STOP JUMPDEST PUSH2 0x3F7 PUSH1 0x4 DUP1 CALLDATASIZE SUB DUP2 ADD SWAP1 PUSH2 0x3F2 SWAP2 SWAP1 PUSH2 0x3A9F JUMP JUMPDEST PUSH2 0x2ADA JUMP JUMPDEST STOP JUMPDEST PUSH1 0x3 PUSH1 0x20 MSTORE DUP1 PUSH1 0x0 MSTORE PUSH1 0x40 PUSH1 0x0 KECCAK256 PUSH1 0x0 SWAP2 POP SLOAD SWAP1 PUSH2 0x100 EXP SWAP1 DIV PUSH20 0xFFFFFFFFFFFFFFFFFFFFFFFFFFFFFFFFFFFFFFFF AND DUP2 JUMP JUMPDEST PUSH1 0x0 PUSH1 0x4 PUSH1 0x0 DUP5 PUSH20 0xFFFFFFFFFFFFFFFFFFFFFFFFFFFFFFFFFFFFFFFF AND PUSH20 0xFFFFFFFFFFFFFFFFFFFFFFFFFFFFFFFFFFFFFFFF AND DUP2 MSTORE PUSH1 0x20 ADD SWAP1 DUP2 MSTORE PUSH1 0x20 ADD PUSH1 0x0 KECCAK256 PUSH1 0x5 ADD PUSH1 0x0 DUP4 DUP2 MSTORE PUSH1 0x20 ADD SWAP1 DUP2 MSTORE PUSH1 0x20 ADD PUSH1 0x0 KECCAK256 PUSH1 0x0 SWAP1 SLOAD SWAP1 PUSH2 0x100 EXP SWAP1 DIV PUSH1 0xFF AND SWAP1 POP SWAP3 SWAP2 POP POP JUMP JUMPDEST PUSH1 0x1 PUSH1 0x0 SWAP1 SLOAD SWAP1 PUSH2 0x100 EXP SWAP1 DIV PUSH20 0xFFFFFFFFFFFFFFFFFFFFFFFFFFFFFFFFFFFFFFFF AND DUP2 JUMP JUMPDEST PUSH1 0x4 PUSH1 0x20 MSTORE DUP1 PUSH1 0x0 MSTORE PUSH1 0x40 PUSH1 0x0 KECCAK256 PUSH1 0x0 SWAP2 POP SWAP1 POP DUP1 PUSH1 0x0 ADD SLOAD SWAP1 DUP1 PUSH1 0x1 ADD SLOAD SWAP1 DUP1 PUSH1 0x2 ADD SLOAD SWAP1 DUP1 PUSH1 0x3 ADD SLOAD SWAP1 DUP1 PUSH1 0x4 ADD SLOAD SWAP1 POP DUP6 JUMP JUMPDEST PUSH1 0x0 DUP1 PUSH1 0x5 PUSH1 0x0 ADDRESS PUSH20 0xFFFFFFFFFFFFFFFFFFFFFFFFFFFFFFFFFFFFFFFF AND PUSH20 0xFFFFFFFFFFFFFFFFFFFFFFFFFFFFFFFFFFFFFFFF AND DUP2 MSTORE PUSH1 0x20 ADD SWAP1 DUP2 MSTORE PUSH1 0x20 ADD PUSH1 0x0 KECCAK256 PUSH1 0x4 ADD PUSH1 0x0 PUSH1 0x2 DUP2 LT PUSH2 0x54B JUMPI PUSH2 0x54A PUSH2 0x3ADF JUMP JUMPDEST JUMPDEST ADD SLOAD PUSH1 0x5 PUSH1 0x0 ADDRESS PUSH20 0xFFFFFFFFFFFFFFFFFFFFFFFFFFFFFFFFFFFFFFFF AND PUSH20 0xFFFFFFFFFFFFFFFFFFFFFFFFFFFFFFFFFFFFFFFF AND DUP2 MSTORE PUSH1 0x20 ADD SWAP1 DUP2 MSTORE PUSH1 0x20 ADD PUSH1 0x0 KECCAK256 PUSH1 0x4 ADD PUSH1 0x1 PUSH1 0x2 DUP2 LT PUSH2 0x5A2 JUMPI PUSH2 0x5A1 PUSH2 0x3ADF JUMP JUMPDEST JUMPDEST ADD SLOAD SWAP2 POP SWAP2 POP SWAP1 SWAP2 JUMP JUMPDEST PUSH1 0x0 DUP1 PUSH1 0x0 PUSH1 0x5 PUSH1 0x0 ADDRESS PUSH20 0xFFFFFFFFFFFFFFFFFFFFFFFFFFFFFFFFFFFFFFFF AND PUSH20 0xFFFFFFFFFFFFFFFFFFFFFFFFFFFFFFFFFFFFFFFF AND DUP2 MSTORE PUSH1 0x20 ADD SWAP1 DUP2 MSTORE PUSH1 0x20 ADD PUSH1 0x0 KECCAK256 PUSH1 0x4 ADD PUSH1 0x0 PUSH1 0x2 DUP2 LT PUSH2 0x606 JUMPI PUSH2 0x605 PUSH2 0x3ADF JUMP JUMPDEST JUMPDEST ADD SLOAD SWAP1 POP PUSH1 0x0 PUSH1 0x5 PUSH1 0x0 ADDRESS PUSH20 0xFFFFFFFFFFFFFFFFFFFFFFFFFFFFFFFFFFFFFFFF AND PUSH20 0xFFFFFFFFFFFFFFFFFFFFFFFFFFFFFFFFFFFFFFFF AND DUP2 MSTORE PUSH1 0x20 ADD SWAP1 DUP2 MSTORE PUSH1 0x20 ADD PUSH1 0x0 KECCAK256 PUSH1 0x4 ADD PUSH1 0x1 PUSH1 0x2 DUP2 LT PUSH2 0x661 JUMPI PUSH2 0x660 PUSH2 0x3ADF JUMP JUMPDEST JUMPDEST ADD SLOAD SWAP1 POP PUSH1 0x0 DUP6 DUP8 PUSH2 0x673 SWAP2 SWAP1 PUSH2 0x3B3D JUMP JUMPDEST SWAP1 POP PUSH1 0x0 DUP8 EQ PUSH2 0x6AD JUMPI DUP1 PUSH1 0x64 DUP9 PUSH2 0x68B SWAP2 SWAP1 PUSH2 0x3B71 JUMP JUMPDEST PUSH2 0x695 SWAP2 SWAP1 PUSH2 0x3BE2 JUMP JUMPDEST SWAP3 POP PUSH7 0x2386F26FC10000 DUP4 PUSH2 0x6AA SWAP2 SWAP1 PUSH2 0x3B71 JUMP JUMPDEST SWAP3 POP JUMPDEST PUSH1 0x0 DUP7 EQ PUSH2 0x6E5 JUMPI DUP1 PUSH1 0x64 DUP8 PUSH2 0x6C3 SWAP2 SWAP1 PUSH2 0x3B71 JUMP JUMPDEST PUSH2 0x6CD SWAP2 SWAP1 PUSH2 0x3BE2 JUMP JUMPDEST SWAP2 POP PUSH7 0x2386F26FC10000 DUP3 PUSH2 0x6E2 SWAP2 SWAP1 PUSH2 0x3B71 JUMP JUMPDEST SWAP2 POP JUMPDEST DUP3 DUP3 SWAP5 POP SWAP5 POP POP POP POP SWAP3 POP SWAP3 SWAP1 POP JUMP JUMPDEST PUSH1 0x0 DUP1 PUSH1 0x0 DUP1 PUSH1 0x0 DUP1 PUSH1 0x6 PUSH1 0x0 DUP10 PUSH20 0xFFFFFFFFFFFFFFFFFFFFFFFFFFFFFFFFFFFFFFFF AND PUSH20 0xFFFFFFFFFFFFFFFFFFFFFFFFFFFFFFFFFFFFFFFF AND DUP2 MSTORE PUSH1 0x20 ADD SWAP1 DUP2 MSTORE PUSH1 0x20 ADD PUSH1 0x0 KECCAK256 PUSH1 0x0 DUP9 DUP2 MSTORE PUSH1 0x20 ADD SWAP1 DUP2 MSTORE PUSH1 0x20 ADD PUSH1 0x0 KECCAK256 PUSH1 0x0 ADD PUSH1 0x0 SWAP1 SLOAD SWAP1 PUSH2 0x100 EXP SWAP1 DIV PUSH1 0xFF AND PUSH1 0x6 PUSH1 0x0 DUP11 PUSH20 0xFFFFFFFFFFFFFFFFFFFFFFFFFFFFFFFFFFFFFFFF AND PUSH20 0xFFFFFFFFFFFFFFFFFFFFFFFFFFFFFFFFFFFFFFFF AND DUP2 MSTORE PUSH1 0x20 ADD SWAP1 DUP2 MSTORE PUSH1 0x20 ADD PUSH1 0x0 KECCAK256 PUSH1 0x0 DUP10 DUP2 MSTORE PUSH1 0x20 ADD SWAP1 DUP2 MSTORE PUSH1 0x20 ADD PUSH1 0x0 KECCAK256 PUSH1 0x0 ADD PUSH1 0x1 SWAP1 SLOAD SWAP1 PUSH2 0x100 EXP SWAP1 DIV PUSH1 0xFF AND PUSH1 0x6 PUSH1 0x0 DUP12 PUSH20 0xFFFFFFFFFFFFFFFFFFFFFFFFFFFFFFFFFFFFFFFF AND PUSH20 0xFFFFFFFFFFFFFFFFFFFFFFFFFFFFFFFFFFFFFFFF AND DUP2 MSTORE PUSH1 0x20 ADD SWAP1 DUP2 MSTORE PUSH1 0x20 ADD PUSH1 0x0 KECCAK256 PUSH1 0x0 DUP11 DUP2 MSTORE PUSH1 0x20 ADD SWAP1 DUP2 MSTORE PUSH1 0x20 ADD PUSH1 0x0 KECCAK256 PUSH1 0x0 ADD PUSH1 0x2 SWAP1 SLOAD SWAP1 PUSH2 0x100 EXP SWAP1 DIV PUSH20 0xFFFFFFFFFFFFFFFFFFFFFFFFFFFFFFFFFFFFFFFF AND PUSH1 0x6 PUSH1 0x0 DUP13 PUSH20 0xFFFFFFFFFFFFFFFFFFFFFFFFFFFFFFFFFFFFFFFF AND PUSH20 0xFFFFFFFFFFFFFFFFFFFFFFFFFFFFFFFFFFFFFFFF AND DUP2 MSTORE PUSH1 0x20 ADD SWAP1 DUP2 MSTORE PUSH1 0x20 ADD PUSH1 0x0 KECCAK256 PUSH1 0x0 DUP12 DUP2 MSTORE PUSH1 0x20 ADD SWAP1 DUP2 MSTORE PUSH1 0x20 ADD PUSH1 0x0 KECCAK256 PUSH1 0x1 ADD SLOAD PUSH1 0x6 PUSH1 0x0 DUP14 PUSH20 0xFFFFFFFFFFFFFFFFFFFFFFFFFFFFFFFFFFFFFFFF AND PUSH20 0xFFFFFFFFFFFFFFFFFFFFFFFFFFFFFFFFFFFFFFFF AND DUP2 MSTORE PUSH1 0x20 ADD SWAP1 DUP2 MSTORE PUSH1 0x20 ADD PUSH1 0x0 KECCAK256 PUSH1 0x0 DUP13 DUP2 MSTORE PUSH1 0x20 ADD SWAP1 DUP2 MSTORE PUSH1 0x20 ADD PUSH1 0x0 KECCAK256 PUSH1 0x2 ADD SLOAD PUSH1 0x6 PUSH1 0x0 DUP15 PUSH20 0xFFFFFFFFFFFFFFFFFFFFFFFFFFFFFFFFFFFFFFFF AND PUSH20 0xFFFFFFFFFFFFFFFFFFFFFFFFFFFFFFFFFFFFFFFF AND DUP2 MSTORE PUSH1 0x20 ADD SWAP1 DUP2 MSTORE PUSH1 0x20 ADD PUSH1 0x0 KECCAK256 PUSH1 0x0 DUP14 DUP2 MSTORE PUSH1 0x20 ADD SWAP1 DUP2 MSTORE PUSH1 0x20 ADD PUSH1 0x0 KECCAK256 PUSH1 0x3 ADD SLOAD SWAP6 POP SWAP6 POP SWAP6 POP SWAP6 POP SWAP6 POP SWAP6 POP SWAP3 SWAP6 POP SWAP3 SWAP6 POP SWAP3 SWAP6 JUMP JUMPDEST PUSH1 0x0 DUP2 EQ ISZERO DUP1 ISZERO PUSH2 0x958 JUMPI POP PUSH1 0x1 DUP2 EQ ISZERO JUMPDEST ISZERO PUSH2 0x99A JUMPI DUP1 PUSH1 0x40 MLOAD PUSH32 0xD7ACBE8900000000000000000000000000000000000000000000000000000000 DUP2 MSTORE PUSH1 0x4 ADD PUSH2 0x991 SWAP2 SWAP1 PUSH2 0x3A23 JUMP JUMPDEST PUSH1 0x40 MLOAD DUP1 SWAP2 SUB SWAP1 REVERT JUMPDEST PUSH1 0x0 DUP4 GT PUSH2 0x9DF JUMPI DUP3 PUSH1 0x40 MLOAD PUSH32 0x2FF4783000000000000000000000000000000000000000000000000000000000 DUP2 MSTORE PUSH1 0x4 ADD PUSH2 0x9D6 SWAP2 SWAP1 PUSH2 0x3A23 JUMP JUMPDEST PUSH1 0x40 MLOAD DUP1 SWAP2 SUB SWAP1 REVERT JUMPDEST PUSH1 0x5 PUSH1 0x0 ADDRESS PUSH20 0xFFFFFFFFFFFFFFFFFFFFFFFFFFFFFFFFFFFFFFFF AND PUSH20 0xFFFFFFFFFFFFFFFFFFFFFFFFFFFFFFFFFFFFFFFF AND DUP2 MSTORE PUSH1 0x20 ADD SWAP1 DUP2 MSTORE PUSH1 0x20 ADD PUSH1 0x0 KECCAK256 PUSH1 0x0 ADD PUSH1 0x0 SWAP1 SLOAD SWAP1 PUSH2 0x100 EXP SWAP1 DIV PUSH1 0xFF AND ISZERO PUSH2 0xA66 JUMPI PUSH1 0x40 MLOAD PUSH32 0x853FD42100000000000000000000000000000000000000000000000000000000 DUP2 MSTORE PUSH1 0x4 ADD PUSH1 0x40 MLOAD DUP1 SWAP2 SUB SWAP1 REVERT JUMPDEST PUSH1 0x4 PUSH1 0x0 CALLER PUSH20 0xFFFFFFFFFFFFFFFFFFFFFFFFFFFFFFFFFFFFFFFF AND PUSH20 0xFFFFFFFFFFFFFFFFFFFFFFFFFFFFFFFFFFFFFFFF AND DUP2 MSTORE PUSH1 0x20 ADD SWAP1 DUP2 MSTORE PUSH1 0x20 ADD PUSH1 0x0 KECCAK256 PUSH1 0x5 ADD PUSH1 0x0 DUP3 DUP2 MSTORE PUSH1 0x20 ADD SWAP1 DUP2 MSTORE PUSH1 0x20 ADD PUSH1 0x0 KECCAK256 PUSH1 0x0 SWAP1 SLOAD SWAP1 PUSH2 0x100 EXP SWAP1 DIV PUSH1 0xFF AND PUSH2 0xB68 JUMPI PUSH1 0x4 PUSH1 0x0 CALLER PUSH20 0xFFFFFFFFFFFFFFFFFFFFFFFFFFFFFFFFFFFFFFFF AND PUSH20 0xFFFFFFFFFFFFFFFFFFFFFFFFFFFFFFFFFFFFFFFF AND DUP2 MSTORE PUSH1 0x20 ADD SWAP1 DUP2 MSTORE PUSH1 0x20 ADD PUSH1 0x0 KECCAK256 PUSH1 0x5 ADD PUSH1 0x0 DUP3 DUP2 MSTORE PUSH1 0x20 ADD SWAP1 DUP2 MSTORE PUSH1 0x20 ADD PUSH1 0x0 KECCAK256 PUSH1 0x0 SWAP1 SLOAD SWAP1 PUSH2 0x100 EXP SWAP1 DIV PUSH1 0xFF AND PUSH1 0x40 MLOAD PUSH32 0x3C3A312800000000000000000000000000000000000000000000000000000000 DUP2 MSTORE PUSH1 0x4 ADD PUSH2 0xB5F SWAP2 SWAP1 PUSH2 0x37E2 JUMP JUMPDEST PUSH1 0x40 MLOAD DUP1 SWAP2 SUB SWAP1 REVERT JUMPDEST PUSH1 0x0 DUP3 GT PUSH2 0xBAD JUMPI DUP2 PUSH1 0x40 MLOAD PUSH32 0xBFC1948200000000000000000000000000000000000000000000000000000000 DUP2 MSTORE PUSH1 0x4 ADD PUSH2 0xBA4 SWAP2 SWAP1 PUSH2 0x3A23 JUMP JUMPDEST PUSH1 0x40 MLOAD DUP1 SWAP2 SUB SWAP1 REVERT JUMPDEST PUSH1 0x0 DUP2 SUB PUSH2 0xC3F JUMPI PUSH1 0x4 PUSH1 0x0 CALLER PUSH20 0xFFFFFFFFFFFFFFFFFFFFFFFFFFFFFFFFFFFFFFFF AND PUSH20 0xFFFFFFFFFFFFFFFFFFFFFFFFFFFFFFFFFFFFFFFF AND DUP2 MSTORE PUSH1 0x20 ADD SWAP1 DUP2 MSTORE PUSH1 0x20 ADD PUSH1 0x0 KECCAK256 PUSH1 0x1 ADD SLOAD DUP4 GT ISZERO PUSH2 0xC3A JUMPI PUSH1 0x40 MLOAD PUSH32 0x8C379A000000000000000000000000000000000000000000000000000000000 DUP2 MSTORE PUSH1 0x4 ADD PUSH2 0xC31 SWAP1 PUSH2 0x3C70 JUMP JUMPDEST PUSH1 0x40 MLOAD DUP1 SWAP2 SUB SWAP1 REVERT JUMPDEST PUSH2 0xCC5 JUMP JUMPDEST PUSH1 0x4 PUSH1 0x0 CALLER PUSH20 0xFFFFFFFFFFFFFFFFFFFFFFFFFFFFFFFFFFFFFFFF AND PUSH20 0xFFFFFFFFFFFFFFFFFFFFFFFFFFFFFFFFFFFFFFFF AND DUP2 MSTORE PUSH1 0x20 ADD SWAP1 DUP2 MSTORE PUSH1 0x20 ADD PUSH1 0x0 KECCAK256 PUSH1 0x3 ADD SLOAD DUP4 GT ISZERO PUSH2 0xCC4 JUMPI PUSH1 0x40 MLOAD PUSH32 0x8C379A000000000000000000000000000000000000000000000000000000000 DUP2 MSTORE PUSH1 0x4 ADD PUSH2 0xCBB SWAP1 PUSH2 0x3C70 JUMP JUMPDEST PUSH1 0x40 MLOAD DUP1 SWAP2 SUB SWAP1 REVERT JUMPDEST JUMPDEST PUSH1 0x4 PUSH1 0x0 CALLER PUSH20 0xFFFFFFFFFFFFFFFFFFFFFFFFFFFFFFFFFFFFFFFF AND PUSH20 0xFFFFFFFFFFFFFFFFFFFFFFFFFFFFFFFFFFFFFFFF AND DUP2 MSTORE PUSH1 0x20 ADD SWAP1 DUP2 MSTORE PUSH1 0x20 ADD PUSH1 0x0 KECCAK256 PUSH1 0x0 ADD PUSH1 0x0 DUP2 SLOAD DUP1 SWAP3 SWAP2 SWAP1 PUSH2 0xD18 SWAP1 PUSH2 0x3C90 JUMP JUMPDEST SWAP2 SWAP1 POP SSTORE POP PUSH1 0x1 PUSH1 0x6 PUSH1 0x0 CALLER PUSH20 0xFFFFFFFFFFFFFFFFFFFFFFFFFFFFFFFFFFFFFFFF AND PUSH20 0xFFFFFFFFFFFFFFFFFFFFFFFFFFFFFFFFFFFFFFFF AND DUP2 MSTORE PUSH1 0x20 ADD SWAP1 DUP2 MSTORE PUSH1 0x20 ADD PUSH1 0x0 KECCAK256 PUSH1 0x0 PUSH1 0x4 PUSH1 0x0 CALLER PUSH20 0xFFFFFFFFFFFFFFFFFFFFFFFFFFFFFFFFFFFFFFFF AND PUSH20 0xFFFFFFFFFFFFFFFFFFFFFFFFFFFFFFFFFFFFFFFF AND DUP2 MSTORE PUSH1 0x20 ADD SWAP1 DUP2 MSTORE PUSH1 0x20 ADD PUSH1 0x0 KECCAK256 PUSH1 0x0 ADD SLOAD DUP2 MSTORE PUSH1 0x20 ADD SWAP1 DUP2 MSTORE PUSH1 0x20 ADD PUSH1 0x0 KECCAK256 PUSH1 0x0 ADD PUSH1 0x0 PUSH2 0x100 EXP DUP2 SLOAD DUP2 PUSH1 0xFF MUL NOT AND SWAP1 DUP4 ISZERO ISZERO MUL OR SWAP1 SSTORE POP DUP2 PUSH1 0x6 PUSH1 0x0 CALLER PUSH20 0xFFFFFFFFFFFFFFFFFFFFFFFFFFFFFFFFFFFFFFFF AND PUSH20 0xFFFFFFFFFFFFFFFFFFFFFFFFFFFFFFFFFFFFFFFF AND DUP2 MSTORE PUSH1 0x20 ADD SWAP1 DUP2 MSTORE PUSH1 0x20 ADD PUSH1 0x0 KECCAK256 PUSH1 0x0 PUSH1 0x4 PUSH1 0x0 CALLER PUSH20 0xFFFFFFFFFFFFFFFFFFFFFFFFFFFFFFFFFFFFFFFF AND PUSH20 0xFFFFFFFFFFFFFFFFFFFFFFFFFFFFFFFFFFFFFFFF AND DUP2 MSTORE PUSH1 0x20 ADD SWAP1 DUP2 MSTORE PUSH1 0x20 ADD PUSH1 0x0 KECCAK256 PUSH1 0x0 ADD SLOAD DUP2 MSTORE PUSH1 0x20 ADD SWAP1 DUP2 MSTORE PUSH1 0x20 ADD PUSH1 0x0 KECCAK256 PUSH1 0x1 ADD DUP2 SWAP1 SSTORE POP DUP3 PUSH1 0x6 PUSH1 0x0 CALLER PUSH20 0xFFFFFFFFFFFFFFFFFFFFFFFFFFFFFFFFFFFFFFFF AND PUSH20 0xFFFFFFFFFFFFFFFFFFFFFFFFFFFFFFFFFFFFFFFF AND DUP2 MSTORE PUSH1 0x20 ADD SWAP1 DUP2 MSTORE PUSH1 0x20 ADD PUSH1 0x0 KECCAK256 PUSH1 0x0 PUSH1 0x4 PUSH1 0x0 CALLER PUSH20 0xFFFFFFFFFFFFFFFFFFFFFFFFFFFFFFFFFFFFFFFF AND PUSH20 0xFFFFFFFFFFFFFFFFFFFFFFFFFFFFFFFFFFFFFFFF AND DUP2 MSTORE PUSH1 0x20 ADD SWAP1 DUP2 MSTORE PUSH1 0x20 ADD PUSH1 0x0 KECCAK256 PUSH1 0x0 ADD SLOAD DUP2 MSTORE PUSH1 0x20 ADD SWAP1 DUP2 MSTORE PUSH1 0x20 ADD PUSH1 0x0 KECCAK256 PUSH1 0x2 ADD DUP2 SWAP1 SSTORE POP CALLER PUSH1 0x6 PUSH1 0x0 CALLER PUSH20 0xFFFFFFFFFFFFFFFFFFFFFFFFFFFFFFFFFFFFFFFF AND PUSH20 0xFFFFFFFFFFFFFFFFFFFFFFFFFFFFFFFFFFFFFFFF AND DUP2 MSTORE PUSH1 0x20 ADD SWAP1 DUP2 MSTORE PUSH1 0x20 ADD PUSH1 0x0 KECCAK256 PUSH1 0x0 PUSH1 0x4 PUSH1 0x0 CALLER PUSH20 0xFFFFFFFFFFFFFFFFFFFFFFFFFFFFFFFFFFFFFFFF AND PUSH20 0xFFFFFFFFFFFFFFFFFFFFFFFFFFFFFFFFFFFFFFFF AND DUP2 MSTORE PUSH1 0x20 ADD SWAP1 DUP2 MSTORE PUSH1 0x20 ADD PUSH1 0x0 KECCAK256 PUSH1 0x0 ADD SLOAD DUP2 MSTORE PUSH1 0x20 ADD SWAP1 DUP2 MSTORE PUSH1 0x20 ADD PUSH1 0x0 KECCAK256 PUSH1 0x0 ADD PUSH1 0x2 PUSH2 0x100 EXP DUP2 SLOAD DUP2 PUSH20 0xFFFFFFFFFFFFFFFFFFFFFFFFFFFFFFFFFFFFFFFF MUL NOT AND SWAP1 DUP4 PUSH20 0xFFFFFFFFFFFFFFFFFFFFFFFFFFFFFFFFFFFFFFFF AND MUL OR SWAP1 SSTORE POP DUP1 PUSH1 0x6 PUSH1 0x0 CALLER PUSH20 0xFFFFFFFFFFFFFFFFFFFFFFFFFFFFFFFFFFFFFFFF AND PUSH20 0xFFFFFFFFFFFFFFFFFFFFFFFFFFFFFFFFFFFFFFFF AND DUP2 MSTORE PUSH1 0x20 ADD SWAP1 DUP2 MSTORE PUSH1 0x20 ADD PUSH1 0x0 KECCAK256 PUSH1 0x0 PUSH1 0x4 PUSH1 0x0 CALLER PUSH20 0xFFFFFFFFFFFFFFFFFFFFFFFFFFFFFFFFFFFFFFFF AND PUSH20 0xFFFFFFFFFFFFFFFFFFFFFFFFFFFFFFFFFFFFFFFF AND DUP2 MSTORE PUSH1 0x20 ADD SWAP1 DUP2 MSTORE PUSH1 0x20 ADD PUSH1 0x0 KECCAK256 PUSH1 0x0 ADD SLOAD DUP2 MSTORE PUSH1 0x20 ADD SWAP1 DUP2 MSTORE PUSH1 0x20 ADD PUSH1 0x0 KECCAK256 PUSH1 0x3 ADD DUP2 SWAP1 SSTORE POP CALLER PUSH20 0xFFFFFFFFFFFFFFFFFFFFFFFFFFFFFFFFFFFFFFFF AND PUSH32 0x578D9BB67FF50E6081576125AD4C2410D6E82DE6DBC1A5DCAC37F8E5AA9CA4F4 PUSH1 0x4 PUSH1 0x0 CALLER PUSH20 0xFFFFFFFFFFFFFFFFFFFFFFFFFFFFFFFFFFFFFFFF AND PUSH20 0xFFFFFFFFFFFFFFFFFFFFFFFFFFFFFFFFFFFFFFFF AND DUP2 MSTORE PUSH1 0x20 ADD SWAP1 DUP2 MSTORE PUSH1 0x20 ADD PUSH1 0x0 KECCAK256 PUSH1 0x0 ADD SLOAD DUP5 PUSH1 0x40 MLOAD PUSH2 0x10F7 SWAP3 SWAP2 SWAP1 PUSH2 0x3906 JUMP JUMPDEST PUSH1 0x40 MLOAD DUP1 SWAP2 SUB SWAP1 LOG2 POP POP POP JUMP JUMPDEST PUSH1 0x6 PUSH1 0x20 MSTORE DUP2 PUSH1 0x0 MSTORE PUSH1 0x40 PUSH1 0x0 KECCAK256 PUSH1 0x20 MSTORE DUP1 PUSH1 0x0 MSTORE PUSH1 0x40 PUSH1 0x0 KECCAK256 PUSH1 0x0 SWAP2 POP SWAP2 POP POP DUP1 PUSH1 0x0 ADD PUSH1 0x0 SWAP1 SLOAD SWAP1 PUSH2 0x100 EXP SWAP1 DIV PUSH1 0xFF AND SWAP1 DUP1 PUSH1 0x0 ADD PUSH1 0x1 SWAP1 SLOAD SWAP1 PUSH2 0x100 EXP SWAP1 DIV PUSH1 0xFF AND SWAP1 DUP1 PUSH1 0x0 ADD PUSH1 0x2 SWAP1 SLOAD SWAP1 PUSH2 0x100 EXP SWAP1 DIV PUSH20 0xFFFFFFFFFFFFFFFFFFFFFFFFFFFFFFFFFFFFFFFF AND SWAP1 DUP1 PUSH1 0x1 ADD SLOAD SWAP1 DUP1 PUSH1 0x2 ADD SLOAD SWAP1 DUP1 PUSH1 0x3 ADD SLOAD SWAP1 POP DUP7 JUMP JUMPDEST PUSH1 0x0 DUP2 EQ ISZERO DUP1 ISZERO PUSH2 0x1199 JUMPI POP PUSH1 0x1 DUP2 EQ ISZERO JUMPDEST ISZERO PUSH2 0x11DB JUMPI DUP1 PUSH1 0x40 MLOAD PUSH32 0xD7ACBE8900000000000000000000000000000000000000000000000000000000 DUP2 MSTORE PUSH1 0x4 ADD PUSH2 0x11D2 SWAP2 SWAP1 PUSH2 0x3A23 JUMP JUMPDEST PUSH1 0x40 MLOAD DUP1 SWAP2 SUB SWAP1 REVERT JUMPDEST PUSH1 0x5 PUSH1 0x0 ADDRESS PUSH20 0xFFFFFFFFFFFFFFFFFFFFFFFFFFFFFFFFFFFFFFFF AND PUSH20 0xFFFFFFFFFFFFFFFFFFFFFFFFFFFFFFFFFFFFFFFF AND DUP2 MSTORE PUSH1 0x20 ADD SWAP1 DUP2 MSTORE PUSH1 0x20 ADD PUSH1 0x0 KECCAK256 PUSH1 0x0 ADD PUSH1 0x0 SWAP1 SLOAD SWAP1 PUSH2 0x100 EXP SWAP1 DIV PUSH1 0xFF AND ISZERO PUSH2 0x1262 JUMPI PUSH1 0x40 MLOAD PUSH32 0x853FD42100000000000000000000000000000000000000000000000000000000 DUP2 MSTORE PUSH1 0x4 ADD PUSH1 0x40 MLOAD DUP1 SWAP2 SUB SWAP1 REVERT JUMPDEST TIMESTAMP PUSH1 0x5 PUSH1 0x0 ADDRESS PUSH20 0xFFFFFFFFFFFFFFFFFFFFFFFFFFFFFFFFFFFFFFFF AND PUSH20 0xFFFFFFFFFFFFFFFFFFFFFFFFFFFFFFFFFFFFFFFF AND DUP2 MSTORE PUSH1 0x20 ADD SWAP1 DUP2 MSTORE PUSH1 0x20 ADD PUSH1 0x0 KECCAK256 PUSH1 0x1 ADD SLOAD GT ISZERO PUSH2 0x132B JUMPI PUSH1 0x5 PUSH1 0x0 ADDRESS PUSH20 0xFFFFFFFFFFFFFFFFFFFFFFFFFFFFFFFFFFFFFFFF AND PUSH20 0xFFFFFFFFFFFFFFFFFFFFFFFFFFFFFFFFFFFFFFFF AND DUP2 MSTORE PUSH1 0x20 ADD SWAP1 DUP2 MSTORE PUSH1 0x20 ADD PUSH1 0x0 KECCAK256 PUSH1 0x1 ADD SLOAD PUSH1 0x40 MLOAD PUSH32 0x79073E7B00000000000000000000000000000000000000000000000000000000 DUP2 MSTORE PUSH1 0x4 ADD PUSH2 0x1322 SWAP2 SWAP1 PUSH2 0x3A23 JUMP JUMPDEST PUSH1 0x40 MLOAD DUP1 SWAP2 SUB SWAP1 REVERT JUMPDEST PUSH1 0x0 DUP1 PUSH1 0x0 SWAP1 POP JUMPDEST PUSH1 0x2 SLOAD DUP2 LT ISZERO PUSH2 0x176B JUMPI PUSH1 0x4 PUSH1 0x0 PUSH1 0x3 PUSH1 0x0 DUP5 DUP2 MSTORE PUSH1 0x20 ADD SWAP1 DUP2 MSTORE PUSH1 0x20 ADD PUSH1 0x0 KECCAK256 PUSH1 0x0 SWAP1 SLOAD SWAP1 PUSH2 0x100 EXP SWAP1 DIV PUSH20 0xFFFFFFFFFFFFFFFFFFFFFFFFFFFFFFFFFFFFFFFF AND PUSH20 0xFFFFFFFFFFFFFFFFFFFFFFFFFFFFFFFFFFFFFFFF AND PUSH20 0xFFFFFFFFFFFFFFFFFFFFFFFFFFFFFFFFFFFFFFFF AND DUP2 MSTORE PUSH1 0x20 ADD SWAP1 DUP2 MSTORE PUSH1 0x20 ADD PUSH1 0x0 KECCAK256 PUSH1 0x5 ADD PUSH1 0x0 DUP5 DUP2 MSTORE PUSH1 0x20 ADD SWAP1 DUP2 MSTORE PUSH1 0x20 ADD PUSH1 0x0 KECCAK256 PUSH1 0x0 SWAP1 SLOAD SWAP1 PUSH2 0x100 EXP SWAP1 DIV PUSH1 0xFF AND ISZERO PUSH2 0x175E JUMPI PUSH1 0x0 DUP4 EQ DUP1 ISZERO PUSH2 0x145C JUMPI POP PUSH1 0x0 PUSH1 0x4 PUSH1 0x0 PUSH1 0x3 PUSH1 0x0 DUP6 DUP2 MSTORE PUSH1 0x20 ADD SWAP1 DUP2 MSTORE PUSH1 0x20 ADD PUSH1 0x0 KECCAK256 PUSH1 0x0 SWAP1 SLOAD SWAP1 PUSH2 0x100 EXP SWAP1 DIV PUSH20 0xFFFFFFFFFFFFFFFFFFFFFFFFFFFFFFFFFFFFFFFF AND PUSH20 0xFFFFFFFFFFFFFFFFFFFFFFFFFFFFFFFFFFFFFFFF AND PUSH20 0xFFFFFFFFFFFFFFFFFFFFFFFFFFFFFFFFFFFFFFFF AND DUP2 MSTORE PUSH1 0x20 ADD SWAP1 DUP2 MSTORE PUSH1 0x20 ADD PUSH1 0x0 KECCAK256 PUSH1 0x1 ADD SLOAD EQ ISZERO JUMPDEST ISZERO PUSH2 0x15E1 JUMPI PUSH2 0x14E0 PUSH1 0x4 PUSH1 0x0 PUSH1 0x3 PUSH1 0x0 DUP6 DUP2 MSTORE PUSH1 0x20 ADD SWAP1 DUP2 MSTORE PUSH1 0x20 ADD PUSH1 0x0 KECCAK256 PUSH1 0x0 SWAP1 SLOAD SWAP1 PUSH2 0x100 EXP SWAP1 DIV PUSH20 0xFFFFFFFFFFFFFFFFFFFFFFFFFFFFFFFFFFFFFFFF AND PUSH20 0xFFFFFFFFFFFFFFFFFFFFFFFFFFFFFFFFFFFFFFFF AND PUSH20 0xFFFFFFFFFFFFFFFFFFFFFFFFFFFFFFFFFFFFFFFF AND DUP2 MSTORE PUSH1 0x20 ADD SWAP1 DUP2 MSTORE PUSH1 0x20 ADD PUSH1 0x0 KECCAK256 PUSH1 0x1 ADD SLOAD DUP5 PUSH2 0x2940 JUMP JUMPDEST PUSH1 0x4 PUSH1 0x0 PUSH1 0x3 PUSH1 0x0 DUP6 DUP2 MSTORE PUSH1 0x20 ADD SWAP1 DUP2 MSTORE PUSH1 0x20 ADD PUSH1 0x0 KECCAK256 PUSH1 0x0 SWAP1 SLOAD SWAP1 PUSH2 0x100 EXP SWAP1 DIV PUSH20 0xFFFFFFFFFFFFFFFFFFFFFFFFFFFFFFFFFFFFFFFF AND PUSH20 0xFFFFFFFFFFFFFFFFFFFFFFFFFFFFFFFFFFFFFFFF AND PUSH20 0xFFFFFFFFFFFFFFFFFFFFFFFFFFFFFFFFFFFFFFFF AND DUP2 MSTORE PUSH1 0x20 ADD SWAP1 DUP2 MSTORE PUSH1 0x20 ADD PUSH1 0x0 KECCAK256 PUSH1 0x4 ADD DUP2 SWAP1 SSTORE POP PUSH1 0x4 PUSH1 0x0 PUSH1 0x3 PUSH1 0x0 DUP5 DUP2 MSTORE PUSH1 0x20 ADD SWAP1 DUP2 MSTORE PUSH1 0x20 ADD PUSH1 0x0 KECCAK256 PUSH1 0x0 SWAP1 SLOAD SWAP1 PUSH2 0x100 EXP SWAP1 DIV PUSH20 0xFFFFFFFFFFFFFFFFFFFFFFFFFFFFFFFFFFFFFFFF AND PUSH20 0xFFFFFFFFFFFFFFFFFFFFFFFFFFFFFFFFFFFFFFFF AND PUSH20 0xFFFFFFFFFFFFFFFFFFFFFFFFFFFFFFFFFFFFFFFF AND DUP2 MSTORE PUSH1 0x20 ADD SWAP1 DUP2 MSTORE PUSH1 0x20 ADD PUSH1 0x0 KECCAK256 PUSH1 0x4 ADD SLOAD DUP3 PUSH2 0x15DA SWAP2 SWAP1 PUSH2 0x3B3D JUMP JUMPDEST SWAP2 POP PUSH2 0x175D JUMP JUMPDEST PUSH2 0x1660 PUSH1 0x4 PUSH1 0x0 PUSH1 0x3 PUSH1 0x0 DUP6 DUP2 MSTORE PUSH1 0x20 ADD SWAP1 DUP2 MSTORE PUSH1 0x20 ADD PUSH1 0x0 KECCAK256 PUSH1 0x0 SWAP1 SLOAD SWAP1 PUSH2 0x100 EXP SWAP1 DIV PUSH20 0xFFFFFFFFFFFFFFFFFFFFFFFFFFFFFFFFFFFFFFFF AND PUSH20 0xFFFFFFFFFFFFFFFFFFFFFFFFFFFFFFFFFFFFFFFF AND PUSH20 0xFFFFFFFFFFFFFFFFFFFFFFFFFFFFFFFFFFFFFFFF AND DUP2 MSTORE PUSH1 0x20 ADD SWAP1 DUP2 MSTORE PUSH1 0x20 ADD PUSH1 0x0 KECCAK256 PUSH1 0x3 ADD SLOAD DUP5 PUSH2 0x2940 JUMP JUMPDEST PUSH1 0x4 PUSH1 0x0 PUSH1 0x3 PUSH1 0x0 DUP6 DUP2 MSTORE PUSH1 0x20 ADD SWAP1 DUP2 MSTORE PUSH1 0x20 ADD PUSH1 0x0 KECCAK256 PUSH1 0x0 SWAP1 SLOAD SWAP1 PUSH2 0x100 EXP SWAP1 DIV PUSH20 0xFFFFFFFFFFFFFFFFFFFFFFFFFFFFFFFFFFFFFFFF AND PUSH20 0xFFFFFFFFFFFFFFFFFFFFFFFFFFFFFFFFFFFFFFFF AND PUSH20 0xFFFFFFFFFFFFFFFFFFFFFFFFFFFFFFFFFFFFFFFF AND DUP2 MSTORE PUSH1 0x20 ADD SWAP1 DUP2 MSTORE PUSH1 0x20 ADD PUSH1 0x0 KECCAK256 PUSH1 0x4 ADD DUP2 SWAP1 SSTORE POP PUSH1 0x4 PUSH1 0x0 PUSH1 0x3 PUSH1 0x0 DUP5 DUP2 MSTORE PUSH1 0x20 ADD SWAP1 DUP2 MSTORE PUSH1 0x20 ADD PUSH1 0x0 KECCAK256 PUSH1 0x0 SWAP1 SLOAD SWAP1 PUSH2 0x100 EXP SWAP1 DIV PUSH20 0xFFFFFFFFFFFFFFFFFFFFFFFFFFFFFFFFFFFFFFFF AND PUSH20 0xFFFFFFFFFFFFFFFFFFFFFFFFFFFFFFFFFFFFFFFF AND PUSH20 0xFFFFFFFFFFFFFFFFFFFFFFFFFFFFFFFFFFFFFFFF AND DUP2 MSTORE PUSH1 0x20 ADD SWAP1 DUP2 MSTORE PUSH1 0x20 ADD PUSH1 0x0 KECCAK256 PUSH1 0x4 ADD SLOAD DUP3 PUSH2 0x175A SWAP2 SWAP1 PUSH2 0x3B3D JUMP JUMPDEST SWAP2 POP JUMPDEST JUMPDEST DUP1 DUP1 PUSH1 0x1 ADD SWAP2 POP POP PUSH2 0x1333 JUMP JUMPDEST POP PUSH1 0x0 DUP2 PUSH1 0x5 PUSH1 0x0 ADDRESS PUSH20 0xFFFFFFFFFFFFFFFFFFFFFFFFFFFFFFFFFFFFFFFF AND PUSH20 0xFFFFFFFFFFFFFFFFFFFFFFFFFFFFFFFFFFFFFFFF AND DUP2 MSTORE PUSH1 0x20 ADD SWAP1 DUP2 MSTORE PUSH1 0x20 ADD PUSH1 0x0 KECCAK256 PUSH1 0x3 ADD SLOAD PUSH2 0x17BC SWAP2 SWAP1 PUSH2 0x3BE2 JUMP JUMPDEST SWAP1 POP PUSH1 0x0 DUP1 PUSH1 0x0 SWAP1 POP JUMPDEST PUSH1 0x2 SLOAD DUP2 LT ISZERO PUSH2 0x1E34 JUMPI PUSH1 0x4 PUSH1 0x0 PUSH1 0x3 PUSH1 0x0 DUP5 DUP2 MSTORE PUSH1 0x20 ADD SWAP1 DUP2 MSTORE PUSH1 0x20 ADD PUSH1 0x0 KECCAK256 PUSH1 0x0 SWAP1 SLOAD SWAP1 PUSH2 0x100 EXP SWAP1 DIV PUSH20 0xFFFFFFFFFFFFFFFFFFFFFFFFFFFFFFFFFFFFFFFF AND PUSH20 0xFFFFFFFFFFFFFFFFFFFFFFFFFFFFFFFFFFFFFFFF AND PUSH20 0xFFFFFFFFFFFFFFFFFFFFFFFFFFFFFFFFFFFFFFFF AND DUP2 MSTORE PUSH1 0x20 ADD SWAP1 DUP2 MSTORE PUSH1 0x20 ADD PUSH1 0x0 KECCAK256 PUSH1 0x5 ADD PUSH1 0x0 DUP7 DUP2 MSTORE PUSH1 0x20 ADD SWAP1 DUP2 MSTORE PUSH1 0x20 ADD PUSH1 0x0 KECCAK256 PUSH1 0x0 SWAP1 SLOAD SWAP1 PUSH2 0x100 EXP SWAP1 DIV PUSH1 0xFF AND ISZERO PUSH2 0x1E27 JUMPI PUSH1 0x0 DUP6 SUB PUSH2 0x1984 JUMPI PUSH1 0x4 PUSH1 0x0 PUSH1 0x3 PUSH1 0x0 DUP5 DUP2 MSTORE PUSH1 0x20 ADD SWAP1 DUP2 MSTORE PUSH1 0x20 ADD PUSH1 0x0 KECCAK256 PUSH1 0x0 SWAP1 SLOAD SWAP1 PUSH2 0x100 EXP SWAP1 DIV PUSH20 0xFFFFFFFFFFFFFFFFFFFFFFFFFFFFFFFFFFFFFFFF AND PUSH20 0xFFFFFFFFFFFFFFFFFFFFFFFFFFFFFFFFFFFFFFFF AND PUSH20 0xFFFFFFFFFFFFFFFFFFFFFFFFFFFFFFFFFFFFFFFF AND DUP2 MSTORE PUSH1 0x20 ADD SWAP1 DUP2 MSTORE PUSH1 0x20 ADD PUSH1 0x0 KECCAK256 PUSH1 0x1 ADD SLOAD DUP4 PUSH1 0x4 PUSH1 0x0 PUSH1 0x3 PUSH1 0x0 DUP7 DUP2 MSTORE PUSH1 0x20 ADD SWAP1 DUP2 MSTORE PUSH1 0x20 ADD PUSH1 0x0 KECCAK256 PUSH1 0x0 SWAP1 SLOAD SWAP1 PUSH2 0x100 EXP SWAP1 DIV PUSH20 0xFFFFFFFFFFFFFFFFFFFFFFFFFFFFFFFFFFFFFFFF AND PUSH20 0xFFFFFFFFFFFFFFFFFFFFFFFFFFFFFFFFFFFFFFFF AND PUSH20 0xFFFFFFFFFFFFFFFFFFFFFFFFFFFFFFFFFFFFFFFF AND DUP2 MSTORE PUSH1 0x20 ADD SWAP1 DUP2 MSTORE PUSH1 0x20 ADD PUSH1 0x0 KECCAK256 PUSH1 0x4 ADD SLOAD PUSH2 0x1968 SWAP2 SWAP1 PUSH2 0x3B71 JUMP JUMPDEST PUSH2 0x1972 SWAP2 SWAP1 PUSH2 0x3CD8 JUMP JUMPDEST DUP3 PUSH2 0x197D SWAP2 SWAP1 PUSH2 0x3B3D JUMP JUMPDEST SWAP2 POP PUSH2 0x1A93 JUMP JUMPDEST PUSH1 0x4 PUSH1 0x0 PUSH1 0x3 PUSH1 0x0 DUP5 DUP2 MSTORE PUSH1 0x20 ADD SWAP1 DUP2 MSTORE PUSH1 0x20 ADD PUSH1 0x0 KECCAK256 PUSH1 0x0 SWAP1 SLOAD SWAP1 PUSH2 0x100 EXP SWAP1 DIV PUSH20 0xFFFFFFFFFFFFFFFFFFFFFFFFFFFFFFFFFFFFFFFF AND PUSH20 0xFFFFFFFFFFFFFFFFFFFFFFFFFFFFFFFFFFFFFFFF AND PUSH20 0xFFFFFFFFFFFFFFFFFFFFFFFFFFFFFFFFFFFFFFFF AND DUP2 MSTORE PUSH1 0x20 ADD SWAP1 DUP2 MSTORE PUSH1 0x20 ADD PUSH1 0x0 KECCAK256 PUSH1 0x3 ADD SLOAD DUP4 PUSH1 0x4 PUSH1 0x0 PUSH1 0x3 PUSH1 0x0 DUP7 DUP2 MSTORE PUSH1 0x20 ADD SWAP1 DUP2 MSTORE PUSH1 0x20 ADD PUSH1 0x0 KECCAK256 PUSH1 0x0 SWAP1 SLOAD SWAP1 PUSH2 0x100 EXP SWAP1 DIV PUSH20 0xFFFFFFFFFFFFFFFFFFFFFFFFFFFFFFFFFFFFFFFF AND PUSH20 0xFFFFFFFFFFFFFFFFFFFFFFFFFFFFFFFFFFFFFFFF AND PUSH20 0xFFFFFFFFFFFFFFFFFFFFFFFFFFFFFFFFFFFFFFFF AND DUP2 MSTORE PUSH1 0x20 ADD SWAP1 DUP2 MSTORE PUSH1 0x20 ADD PUSH1 0x0 KECCAK256 PUSH1 0x4 ADD SLOAD PUSH2 0x1A7B SWAP2 SWAP1 PUSH2 0x3B71 JUMP JUMPDEST PUSH2 0x1A85 SWAP2 SWAP1 PUSH2 0x3CD8 JUMP JUMPDEST DUP3 PUSH2 0x1A90 SWAP2 SWAP1 PUSH2 0x3B3D JUMP JUMPDEST SWAP2 POP JUMPDEST DUP3 PUSH1 0x4 PUSH1 0x0 PUSH1 0x3 PUSH1 0x0 DUP6 DUP2 MSTORE PUSH1 0x20 ADD SWAP1 DUP2 MSTORE PUSH1 0x20 ADD PUSH1 0x0 KECCAK256 PUSH1 0x0 SWAP1 SLOAD SWAP1 PUSH2 0x100 EXP SWAP1 DIV PUSH20 0xFFFFFFFFFFFFFFFFFFFFFFFFFFFFFFFFFFFFFFFF AND PUSH20 0xFFFFFFFFFFFFFFFFFFFFFFFFFFFFFFFFFFFFFFFF AND PUSH20 0xFFFFFFFFFFFFFFFFFFFFFFFFFFFFFFFFFFFFFFFF AND DUP2 MSTORE PUSH1 0x20 ADD SWAP1 DUP2 MSTORE PUSH1 0x20 ADD PUSH1 0x0 KECCAK256 PUSH1 0x4 ADD SLOAD PUSH2 0x1B14 SWAP2 SWAP1 PUSH2 0x3B71 JUMP JUMPDEST PUSH1 0x1 PUSH1 0x0 SWAP1 SLOAD SWAP1 PUSH2 0x100 EXP SWAP1 DIV PUSH20 0xFFFFFFFFFFFFFFFFFFFFFFFFFFFFFFFFFFFFFFFF AND PUSH20 0xFFFFFFFFFFFFFFFFFFFFFFFFFFFFFFFFFFFFFFFF AND PUSH4 0x70A08231 ADDRESS PUSH1 0x40 MLOAD DUP3 PUSH4 0xFFFFFFFF AND PUSH1 0xE0 SHL DUP2 MSTORE PUSH1 0x4 ADD PUSH2 0x1B6F SWAP2 SWAP1 PUSH2 0x3740 JUMP JUMPDEST PUSH1 0x20 PUSH1 0x40 MLOAD DUP1 DUP4 SUB DUP2 DUP7 GAS STATICCALL ISZERO DUP1 ISZERO PUSH2 0x1B8C JUMPI RETURNDATASIZE PUSH1 0x0 DUP1 RETURNDATACOPY RETURNDATASIZE PUSH1 0x0 REVERT JUMPDEST POP POP POP POP PUSH1 0x40 MLOAD RETURNDATASIZE PUSH1 0x1F NOT PUSH1 0x1F DUP3 ADD AND DUP3 ADD DUP1 PUSH1 0x40 MSTORE POP DUP2 ADD SWAP1 PUSH2 0x1BB0 SWAP2 SWAP1 PUSH2 0x3D21 JUMP JUMPDEST LT ISZERO PUSH2 0x1C8E JUMPI PUSH1 0x1 PUSH1 0x0 SWAP1 SLOAD SWAP1 PUSH2 0x100 EXP SWAP1 DIV PUSH20 0xFFFFFFFFFFFFFFFFFFFFFFFFFFFFFFFFFFFFFFFF AND PUSH20 0xFFFFFFFFFFFFFFFFFFFFFFFFFFFFFFFFFFFFFFFF AND PUSH4 0x70A08231 ADDRESS PUSH1 0x40 MLOAD DUP3 PUSH4 0xFFFFFFFF AND PUSH1 0xE0 SHL DUP2 MSTORE PUSH1 0x4 ADD PUSH2 0x1C11 SWAP2 SWAP1 PUSH2 0x3740 JUMP JUMPDEST PUSH1 0x20 PUSH1 0x40 MLOAD DUP1 DUP4 SUB DUP2 DUP7 GAS STATICCALL ISZERO DUP1 ISZERO PUSH2 0x1C2E JUMPI RETURNDATASIZE PUSH1 0x0 DUP1 RETURNDATACOPY RETURNDATASIZE PUSH1 0x0 REVERT JUMPDEST POP POP POP POP PUSH1 0x40 MLOAD RETURNDATASIZE PUSH1 0x1F NOT PUSH1 0x1F DUP3 ADD AND DUP3 ADD DUP1 PUSH1 0x40 MSTORE POP DUP2 ADD SWAP1 PUSH2 0x1C52 SWAP2 SWAP1 PUSH2 0x3D21 JUMP JUMPDEST PUSH1 0x40 MLOAD PUSH32 0xF9AE0CB400000000000000000000000000000000000000000000000000000000 DUP2 MSTORE PUSH1 0x4 ADD PUSH2 0x1C85 SWAP2 SWAP1 PUSH2 0x3A23 JUMP JUMPDEST PUSH1 0x40 MLOAD DUP1 SWAP2 SUB SWAP1 REVERT JUMPDEST PUSH1 0x0 PUSH1 0x1 PUSH1 0x0 SWAP1 SLOAD SWAP1 PUSH2 0x100 EXP SWAP1 DIV PUSH20 0xFFFFFFFFFFFFFFFFFFFFFFFFFFFFFFFFFFFFFFFF AND PUSH20 0xFFFFFFFFFFFFFFFFFFFFFFFFFFFFFFFFFFFFFFFF AND PUSH4 0xA9059CBB PUSH1 0x3 PUSH1 0x0 DUP6 DUP2 MSTORE PUSH1 0x20 ADD SWAP1 DUP2 MSTORE PUSH1 0x20 ADD PUSH1 0x0 KECCAK256 PUSH1 0x0 SWAP1 SLOAD SWAP1 PUSH2 0x100 EXP SWAP1 DIV PUSH20 0xFFFFFFFFFFFFFFFFFFFFFFFFFFFFFFFFFFFFFFFF AND DUP7 PUSH1 0x4 PUSH1 0x0 PUSH1 0x3 PUSH1 0x0 DUP10 DUP2 MSTORE PUSH1 0x20 ADD SWAP1 DUP2 MSTORE PUSH1 0x20 ADD PUSH1 0x0 KECCAK256 PUSH1 0x0 SWAP1 SLOAD SWAP1 PUSH2 0x100 EXP SWAP1 DIV PUSH20 0xFFFFFFFFFFFFFFFFFFFFFFFFFFFFFFFFFFFFFFFF AND PUSH20 0xFFFFFFFFFFFFFFFFFFFFFFFFFFFFFFFFFFFFFFFF AND PUSH20 0xFFFFFFFFFFFFFFFFFFFFFFFFFFFFFFFFFFFFFFFF AND DUP2 MSTORE PUSH1 0x20 ADD SWAP1 DUP2 MSTORE PUSH1 0x20 ADD PUSH1 0x0 KECCAK256 PUSH1 0x4 ADD SLOAD PUSH2 0x1D83 SWAP2 SWAP1 PUSH2 0x3B71 JUMP JUMPDEST PUSH1 0x40 MLOAD DUP4 PUSH4 0xFFFFFFFF AND PUSH1 0xE0 SHL DUP2 MSTORE PUSH1 0x4 ADD PUSH2 0x1DA0 SWAP3 SWAP2 SWAP1 PUSH2 0x3D4E JUMP JUMPDEST PUSH1 0x20 PUSH1 0x40 MLOAD DUP1 DUP4 SUB DUP2 PUSH1 0x0 DUP8 GAS CALL ISZERO DUP1 ISZERO PUSH2 0x1DBF JUMPI RETURNDATASIZE PUSH1 0x0 DUP1 RETURNDATACOPY RETURNDATASIZE PUSH1 0x0 REVERT JUMPDEST POP POP POP POP PUSH1 0x40 MLOAD RETURNDATASIZE PUSH1 0x1F NOT PUSH1 0x1F DUP3 ADD AND DUP3 ADD DUP1 PUSH1 0x40 MSTORE POP DUP2 ADD SWAP1 PUSH2 0x1DE3 SWAP2 SWAP1 PUSH2 0x3DA3 JUMP JUMPDEST SWAP1 POP DUP1 PUSH2 0x1E25 JUMPI PUSH1 0x40 MLOAD PUSH32 0x8C379A000000000000000000000000000000000000000000000000000000000 DUP2 MSTORE PUSH1 0x4 ADD PUSH2 0x1E1C SWAP1 PUSH2 0x3E1C JUMP JUMPDEST PUSH1 0x40 MLOAD DUP1 SWAP2 SUB SWAP1 REVERT JUMPDEST POP JUMPDEST DUP1 DUP1 PUSH1 0x1 ADD SWAP2 POP POP PUSH2 0x17C6 JUMP JUMPDEST POP DUP1 PUSH1 0x1 PUSH1 0x0 SWAP1 SLOAD SWAP1 PUSH2 0x100 EXP SWAP1 DIV PUSH20 0xFFFFFFFFFFFFFFFFFFFFFFFFFFFFFFFFFFFFFFFF AND PUSH20 0xFFFFFFFFFFFFFFFFFFFFFFFFFFFFFFFFFFFFFFFF AND PUSH4 0x70A08231 ADDRESS PUSH1 0x40 MLOAD DUP3 PUSH4 0xFFFFFFFF AND PUSH1 0xE0 SHL DUP2 MSTORE PUSH1 0x4 ADD PUSH2 0x1E91 SWAP2 SWAP1 PUSH2 0x3740 JUMP JUMPDEST PUSH1 0x20 PUSH1 0x40 MLOAD DUP1 DUP4 SUB DUP2 DUP7 GAS STATICCALL ISZERO DUP1 ISZERO PUSH2 0x1EAE JUMPI RETURNDATASIZE PUSH1 0x0 DUP1 RETURNDATACOPY RETURNDATASIZE PUSH1 0x0 REVERT JUMPDEST POP POP POP POP PUSH1 0x40 MLOAD RETURNDATASIZE PUSH1 0x1F NOT PUSH1 0x1F DUP3 ADD AND DUP3 ADD DUP1 PUSH1 0x40 MSTORE POP DUP2 ADD SWAP1 PUSH2 0x1ED2 SWAP2 SWAP1 PUSH2 0x3D21 JUMP JUMPDEST LT ISZERO PUSH2 0x1FB0 JUMPI PUSH1 0x1 PUSH1 0x0 SWAP1 SLOAD SWAP1 PUSH2 0x100 EXP SWAP1 DIV PUSH20 0xFFFFFFFFFFFFFFFFFFFFFFFFFFFFFFFFFFFFFFFF AND PUSH20 0xFFFFFFFFFFFFFFFFFFFFFFFFFFFFFFFFFFFFFFFF AND PUSH4 0x70A08231 ADDRESS PUSH1 0x40 MLOAD DUP3 PUSH4 0xFFFFFFFF AND PUSH1 0xE0 SHL DUP2 MSTORE PUSH1 0x4 ADD PUSH2 0x1F33 SWAP2 SWAP1 PUSH2 0x3740 JUMP JUMPDEST PUSH1 0x20 PUSH1 0x40 MLOAD DUP1 DUP4 SUB DUP2 DUP7 GAS STATICCALL ISZERO DUP1 ISZERO PUSH2 0x1F50 JUMPI RETURNDATASIZE PUSH1 0x0 DUP1 RETURNDATACOPY RETURNDATASIZE PUSH1 0x0 REVERT JUMPDEST POP POP POP POP PUSH1 0x40 MLOAD RETURNDATASIZE PUSH1 0x1F NOT PUSH1 0x1F DUP3 ADD AND DUP3 ADD DUP1 PUSH1 0x40 MSTORE POP DUP2 ADD SWAP1 PUSH2 0x1F74 SWAP2 SWAP1 PUSH2 0x3D21 JUMP JUMPDEST PUSH1 0x40 MLOAD PUSH32 0xBA9C3E4F00000000000000000000000000000000000000000000000000000000 DUP2 MSTORE PUSH1 0x4 ADD PUSH2 0x1FA7 SWAP2 SWAP1 PUSH2 0x3A23 JUMP JUMPDEST PUSH1 0x40 MLOAD DUP1 SWAP2 SUB SWAP1 REVERT JUMPDEST PUSH1 0x1 PUSH1 0x5 PUSH1 0x0 ADDRESS PUSH20 0xFFFFFFFFFFFFFFFFFFFFFFFFFFFFFFFFFFFFFFFF AND PUSH20 0xFFFFFFFFFFFFFFFFFFFFFFFFFFFFFFFFFFFFFFFF AND DUP2 MSTORE PUSH1 0x20 ADD SWAP1 DUP2 MSTORE PUSH1 0x20 ADD PUSH1 0x0 KECCAK256 PUSH1 0x0 ADD PUSH1 0x0 PUSH2 0x100 EXP DUP2 SLOAD DUP2 PUSH1 0xFF MUL NOT AND SWAP1 DUP4 ISZERO ISZERO MUL OR SWAP1 SSTORE POP PUSH1 0x0 PUSH1 0x1 PUSH1 0x0 SWAP1 SLOAD SWAP1 PUSH2 0x100 EXP SWAP1 DIV PUSH20 0xFFFFFFFFFFFFFFFFFFFFFFFFFFFFFFFFFFFFFFFF AND PUSH20 0xFFFFFFFFFFFFFFFFFFFFFFFFFFFFFFFFFFFFFFFF AND PUSH4 0xA9059CBB PUSH2 0x2053 PUSH2 0x2917 JUMP JUMPDEST DUP5 PUSH1 0x40 MLOAD DUP4 PUSH4 0xFFFFFFFF AND PUSH1 0xE0 SHL DUP2 MSTORE PUSH1 0x4 ADD PUSH2 0x2071 SWAP3 SWAP2 SWAP1 PUSH2 0x3D4E JUMP JUMPDEST PUSH1 0x20 PUSH1 0x40 MLOAD DUP1 DUP4 SUB DUP2 PUSH1 0x0 DUP8 GAS CALL ISZERO DUP1 ISZERO PUSH2 0x2090 JUMPI RETURNDATASIZE PUSH1 0x0 DUP1 RETURNDATACOPY RETURNDATASIZE PUSH1 0x0 REVERT JUMPDEST POP POP POP POP PUSH1 0x40 MLOAD RETURNDATASIZE PUSH1 0x1F NOT PUSH1 0x1F DUP3 ADD AND DUP3 ADD DUP1 PUSH1 0x40 MSTORE POP DUP2 ADD SWAP1 PUSH2 0x20B4 SWAP2 SWAP1 PUSH2 0x3DA3 JUMP JUMPDEST SWAP1 POP DUP1 PUSH2 0x20F6 JUMPI PUSH1 0x40 MLOAD PUSH32 0x8C379A000000000000000000000000000000000000000000000000000000000 DUP2 MSTORE PUSH1 0x4 ADD PUSH2 0x20ED SWAP1 PUSH2 0x3E1C JUMP JUMPDEST PUSH1 0x40 MLOAD DUP1 SWAP2 SUB SWAP1 REVERT JUMPDEST PUSH32 0x4D21AF759C8D2F25C6246594B4CFC2EDEB2B901BC0C6E87F5E21C212A12CA1FD PUSH2 0x211F PUSH2 0x2917 JUMP JUMPDEST DUP4 DUP6 DUP9 PUSH1 0x40 MLOAD PUSH2 0x2132 SWAP5 SWAP4 SWAP3 SWAP2 SWAP1 PUSH2 0x3E3C JUMP JUMPDEST PUSH1 0x40 MLOAD DUP1 SWAP2 SUB SWAP1 LOG1 POP POP POP POP POP JUMP JUMPDEST PUSH1 0x0 DUP2 EQ ISZERO DUP1 ISZERO PUSH2 0x2153 JUMPI POP PUSH1 0x1 DUP2 EQ ISZERO JUMPDEST ISZERO PUSH2 0x2195 JUMPI DUP1 PUSH1 0x40 MLOAD PUSH32 0xD7ACBE8900000000000000000000000000000000000000000000000000000000 DUP2 MSTORE PUSH1 0x4 ADD PUSH2 0x218C SWAP2 SWAP1 PUSH2 0x3A23 JUMP JUMPDEST PUSH1 0x40 MLOAD DUP1 SWAP2 SUB SWAP1 REVERT JUMPDEST PUSH1 0x0 DUP3 GT PUSH2 0x21DA JUMPI DUP2 PUSH1 0x40 MLOAD PUSH32 0x2FF4783000000000000000000000000000000000000000000000000000000000 DUP2 MSTORE PUSH1 0x4 ADD PUSH2 0x21D1 SWAP2 SWAP1 PUSH2 0x3A23 JUMP JUMPDEST PUSH1 0x40 MLOAD DUP1 SWAP2 SUB SWAP1 REVERT JUMPDEST PUSH1 0x5 PUSH1 0x0 ADDRESS PUSH20 0xFFFFFFFFFFFFFFFFFFFFFFFFFFFFFFFFFFFFFFFF AND PUSH20 0xFFFFFFFFFFFFFFFFFFFFFFFFFFFFFFFFFFFFFFFF AND DUP2 MSTORE PUSH1 0x20 ADD SWAP1 DUP2 MSTORE PUSH1 0x20 ADD PUSH1 0x0 KECCAK256 PUSH1 0x0 ADD PUSH1 0x0 SWAP1 SLOAD SWAP1 PUSH2 0x100 EXP SWAP1 DIV PUSH1 0xFF AND ISZERO PUSH2 0x2261 JUMPI PUSH1 0x40 MLOAD PUSH32 0x853FD42100000000000000000000000000000000000000000000000000000000 DUP2 MSTORE PUSH1 0x4 ADD PUSH1 0x40 MLOAD DUP1 SWAP2 SUB SWAP1 REVERT JUMPDEST PUSH1 0x4 PUSH1 0x0 CALLER PUSH20 0xFFFFFFFFFFFFFFFFFFFFFFFFFFFFFFFFFFFFFFFF AND PUSH20 0xFFFFFFFFFFFFFFFFFFFFFFFFFFFFFFFFFFFFFFFF AND DUP2 MSTORE PUSH1 0x20 ADD SWAP1 DUP2 MSTORE PUSH1 0x20 ADD PUSH1 0x0 KECCAK256 PUSH1 0x5 ADD PUSH1 0x0 DUP3 DUP2 MSTORE PUSH1 0x20 ADD SWAP1 DUP2 MSTORE PUSH1 0x20 ADD PUSH1 0x0 KECCAK256 PUSH1 0x0 SWAP1 SLOAD SWAP1 PUSH2 0x100 EXP SWAP1 DIV PUSH1 0xFF AND PUSH2 0x2333 JUMPI CALLER PUSH1 0x3 PUSH1 0x0 PUSH1 0x2 SLOAD DUP2 MSTORE PUSH1 0x20 ADD SWAP1 DUP2 MSTORE PUSH1 0x20 ADD PUSH1 0x0 KECCAK256 PUSH1 0x0 PUSH2 0x100 EXP DUP2 SLOAD DUP2 PUSH20 0xFFFFFFFFFFFFFFFFFFFFFFFFFFFFFFFFFFFFFFFF MUL NOT AND SWAP1 DUP4 PUSH20 0xFFFFFFFFFFFFFFFFFFFFFFFFFFFFFFFFFFFFFFFF AND MUL OR SWAP1 SSTORE POP PUSH1 0x2 PUSH1 0x0 DUP2 SLOAD DUP1 SWAP3 SWAP2 SWAP1 PUSH2 0x232D SWAP1 PUSH2 0x3C90 JUMP JUMPDEST SWAP2 SWAP1 POP SSTORE POP JUMPDEST PUSH1 0x0 DUP2 SUB PUSH2 0x23F1 JUMPI PUSH1 0x5 PUSH1 0x0 ADDRESS PUSH20 0xFFFFFFFFFFFFFFFFFFFFFFFFFFFFFFFFFFFFFFFF AND PUSH20 0xFFFFFFFFFFFFFFFFFFFFFFFFFFFFFFFFFFFFFFFF AND DUP2 MSTORE PUSH1 0x20 ADD SWAP1 DUP2 MSTORE PUSH1 0x20 ADD PUSH1 0x0 KECCAK256 PUSH1 0x7 ADD PUSH1 0x0 DUP2 SLOAD DUP1 SWAP3 SWAP2 SWAP1 PUSH2 0x238E SWAP1 PUSH2 0x3C90 JUMP JUMPDEST SWAP2 SWAP1 POP SSTORE POP DUP2 PUSH1 0x4 PUSH1 0x0 CALLER PUSH20 0xFFFFFFFFFFFFFFFFFFFFFFFFFFFFFFFFFFFFFFFF AND PUSH20 0xFFFFFFFFFFFFFFFFFFFFFFFFFFFFFFFFFFFFFFFF AND DUP2 MSTORE PUSH1 0x20 ADD SWAP1 DUP2 MSTORE PUSH1 0x20 ADD PUSH1 0x0 KECCAK256 PUSH1 0x1 ADD PUSH1 0x0 DUP3 DUP3 SLOAD PUSH2 0x23E5 SWAP2 SWAP1 PUSH2 0x3B3D JUMP JUMPDEST SWAP3 POP POP DUP2 SWAP1 SSTORE POP PUSH2 0x24A3 JUMP JUMPDEST PUSH1 0x5 PUSH1 0x0 ADDRESS PUSH20 0xFFFFFFFFFFFFFFFFFFFFFFFFFFFFFFFFFFFFFFFF AND PUSH20 0xFFFFFFFFFFFFFFFFFFFFFFFFFFFFFFFFFFFFFFFF AND DUP2 MSTORE PUSH1 0x20 ADD SWAP1 DUP2 MSTORE PUSH1 0x20 ADD PUSH1 0x0 KECCAK256 PUSH1 0x6 ADD PUSH1 0x0 DUP2 SLOAD DUP1 SWAP3 SWAP2 SWAP1 PUSH2 0x2444 SWAP1 PUSH2 0x3C90 JUMP JUMPDEST SWAP2 SWAP1 POP SSTORE POP DUP2 PUSH1 0x4 PUSH1 0x0 CALLER PUSH20 0xFFFFFFFFFFFFFFFFFFFFFFFFFFFFFFFFFFFFFFFF AND PUSH20 0xFFFFFFFFFFFFFFFFFFFFFFFFFFFFFFFFFFFFFFFF AND DUP2 MSTORE PUSH1 0x20 ADD SWAP1 DUP2 MSTORE PUSH1 0x20 ADD PUSH1 0x0 KECCAK256 PUSH1 0x3 ADD PUSH1 0x0 DUP3 DUP3 SLOAD PUSH2 0x249B SWAP2 SWAP1 PUSH2 0x3B3D JUMP JUMPDEST SWAP3 POP POP DUP2 SWAP1 SSTORE POP JUMPDEST DUP2 PUSH1 0x5 PUSH1 0x0 ADDRESS PUSH20 0xFFFFFFFFFFFFFFFFFFFFFFFFFFFFFFFFFFFFFFFF AND PUSH20 0xFFFFFFFFFFFFFFFFFFFFFFFFFFFFFFFFFFFFFFFF AND DUP2 MSTORE PUSH1 0x20 ADD SWAP1 DUP2 MSTORE PUSH1 0x20 ADD PUSH1 0x0 KECCAK256 PUSH1 0x3 ADD PUSH1 0x0 DUP3 DUP3 SLOAD PUSH2 0x24F5 SWAP2 SWAP1 PUSH2 0x3B3D JUMP JUMPDEST SWAP3 POP POP DUP2 SWAP1 SSTORE POP PUSH1 0x5 PUSH1 0x0 ADDRESS PUSH20 0xFFFFFFFFFFFFFFFFFFFFFFFFFFFFFFFFFFFFFFFF AND PUSH20 0xFFFFFFFFFFFFFFFFFFFFFFFFFFFFFFFFFFFFFFFF AND DUP2 MSTORE PUSH1 0x20 ADD SWAP1 DUP2 MSTORE PUSH1 0x20 ADD PUSH1 0x0 KECCAK256 PUSH1 0x2 ADD PUSH1 0x0 DUP2 SLOAD DUP1 SWAP3 SWAP2 SWAP1 PUSH2 0x254F SWAP1 PUSH2 0x3C90 JUMP JUMPDEST SWAP2 SWAP1 POP SSTORE POP PUSH1 0x1 PUSH1 0x4 PUSH1 0x0 CALLER PUSH20 0xFFFFFFFFFFFFFFFFFFFFFFFFFFFFFFFFFFFFFFFF AND PUSH20 0xFFFFFFFFFFFFFFFFFFFFFFFFFFFFFFFFFFFFFFFF AND DUP2 MSTORE PUSH1 0x20 ADD SWAP1 DUP2 MSTORE PUSH1 0x20 ADD PUSH1 0x0 KECCAK256 PUSH1 0x5 ADD PUSH1 0x0 DUP4 DUP2 MSTORE PUSH1 0x20 ADD SWAP1 DUP2 MSTORE PUSH1 0x20 ADD PUSH1 0x0 KECCAK256 PUSH1 0x0 PUSH2 0x100 EXP DUP2 SLOAD DUP2 PUSH1 0xFF MUL NOT AND SWAP1 DUP4 ISZERO ISZERO MUL OR SWAP1 SSTORE POP PUSH2 0x264E PUSH1 0x5 PUSH1 0x0 ADDRESS PUSH20 0xFFFFFFFFFFFFFFFFFFFFFFFFFFFFFFFFFFFFFFFF AND PUSH20 0xFFFFFFFFFFFFFFFFFFFFFFFFFFFFFFFFFFFFFFFF AND DUP2 MSTORE PUSH1 0x20 ADD SWAP1 DUP2 MSTORE PUSH1 0x20 ADD PUSH1 0x0 KECCAK256 PUSH1 0x7 ADD SLOAD PUSH1 0x5 PUSH1 0x0 ADDRESS PUSH20 0xFFFFFFFFFFFFFFFFFFFFFFFFFFFFFFFFFFFFFFFF AND PUSH20 0xFFFFFFFFFFFFFFFFFFFFFFFFFFFFFFFFFFFFFFFF AND DUP2 MSTORE PUSH1 0x20 ADD SWAP1 DUP2 MSTORE PUSH1 0x20 ADD PUSH1 0x0 KECCAK256 PUSH1 0x6 ADD SLOAD PUSH2 0x5AC JUMP JUMPDEST PUSH1 0x5 PUSH1 0x0 ADDRESS PUSH20 0xFFFFFFFFFFFFFFFFFFFFFFFFFFFFFFFFFFFFFFFF AND PUSH20 0xFFFFFFFFFFFFFFFFFFFFFFFFFFFFFFFFFFFFFFFF AND DUP2 MSTORE PUSH1 0x20 ADD SWAP1 DUP2 MSTORE PUSH1 0x20 ADD PUSH1 0x0 KECCAK256 PUSH1 0x4 ADD PUSH1 0x0 PUSH1 0x2 DUP2 LT PUSH2 0x26A3 JUMPI PUSH2 0x26A2 PUSH2 0x3ADF JUMP JUMPDEST JUMPDEST ADD PUSH1 0x0 PUSH1 0x5 PUSH1 0x0 ADDRESS PUSH20 0xFFFFFFFFFFFFFFFFFFFFFFFFFFFFFFFFFFFFFFFF AND PUSH20 0xFFFFFFFFFFFFFFFFFFFFFFFFFFFFFFFFFFFFFFFF AND DUP2 MSTORE PUSH1 0x20 ADD SWAP1 DUP2 MSTORE PUSH1 0x20 ADD PUSH1 0x0 KECCAK256 PUSH1 0x4 ADD PUSH1 0x1 PUSH1 0x2 DUP2 LT PUSH2 0x26FB JUMPI PUSH2 0x26FA PUSH2 0x3ADF JUMP JUMPDEST JUMPDEST ADD PUSH1 0x0 DUP5 SWAP2 SWAP1 POP SSTORE DUP4 SWAP2 SWAP1 POP SSTORE POP POP PUSH1 0x0 PUSH1 0x1 PUSH1 0x0 SWAP1 SLOAD SWAP1 PUSH2 0x100 EXP SWAP1 DIV PUSH20 0xFFFFFFFFFFFFFFFFFFFFFFFFFFFFFFFFFFFFFFFF AND PUSH20 0xFFFFFFFFFFFFFFFFFFFFFFFFFFFFFFFFFFFFFFFF AND PUSH4 0x23B872DD CALLER ADDRESS DUP7 PUSH1 0x40 MLOAD DUP5 PUSH4 0xFFFFFFFF AND PUSH1 0xE0 SHL DUP2 MSTORE PUSH1 0x4 ADD PUSH2 0x276B SWAP4 SWAP3 SWAP2 SWAP1 PUSH2 0x3E81 JUMP JUMPDEST PUSH1 0x20 PUSH1 0x40 MLOAD DUP1 DUP4 SUB DUP2 PUSH1 0x0 DUP8 GAS CALL ISZERO DUP1 ISZERO PUSH2 0x278A JUMPI RETURNDATASIZE PUSH1 0x0 DUP1 RETURNDATACOPY RETURNDATASIZE PUSH1 0x0 REVERT JUMPDEST POP POP POP POP PUSH1 0x40 MLOAD RETURNDATASIZE PUSH1 0x1F NOT PUSH1 0x1F DUP3 ADD AND DUP3 ADD DUP1 PUSH1 0x40 MSTORE POP DUP2 ADD SWAP1 PUSH2 0x27AE SWAP2 SWAP1 PUSH2 0x3DA3 JUMP JUMPDEST SWAP1 POP DUP1 PUSH2 0x27F0 JUMPI PUSH1 0x40 MLOAD PUSH32 0x8C379A000000000000000000000000000000000000000000000000000000000 DUP2 MSTORE PUSH1 0x4 ADD PUSH2 0x27E7 SWAP1 PUSH2 0x3E1C JUMP JUMPDEST PUSH1 0x40 MLOAD DUP1 SWAP2 SUB SWAP1 REVERT JUMPDEST DUP3 CALLER PUSH20 0xFFFFFFFFFFFFFFFFFFFFFFFFFFFFFFFFFFFFFFFF AND PUSH32 0xF41B7910E085D0992D604FD470931728FD77CC8EB504D99E50E51A0A30FCFD1A DUP5 PUSH1 0x40 MLOAD PUSH2 0x2837 SWAP2 SWAP1 PUSH2 0x3A23 JUMP JUMPDEST PUSH1 0x40 MLOAD DUP1 SWAP2 SUB SWAP1 LOG3 POP POP POP JUMP JUMPDEST PUSH2 0x284C PUSH2 0x3544 JUMP JUMPDEST PUSH2 0x2856 PUSH1 0x0 PUSH2 0x35CB JUMP JUMPDEST JUMP JUMPDEST PUSH1 0x0 DUP1 DUP4 GT PUSH2 0x289C JUMPI PUSH1 0x40 MLOAD PUSH32 0x8C379A000000000000000000000000000000000000000000000000000000000 DUP2 MSTORE PUSH1 0x4 ADD PUSH2 0x2893 SWAP1 PUSH2 0x3F04 JUMP JUMPDEST PUSH1 0x40 MLOAD DUP1 SWAP2 SUB SWAP1 REVERT JUMPDEST PUSH1 0x0 PUSH1 0x64 PUSH1 0x5 PUSH1 0x0 ADDRESS PUSH20 0xFFFFFFFFFFFFFFFFFFFFFFFFFFFFFFFFFFFFFFFF AND PUSH20 0xFFFFFFFFFFFFFFFFFFFFFFFFFFFFFFFFFFFFFFFF AND DUP2 MSTORE PUSH1 0x20 ADD SWAP1 DUP2 MSTORE PUSH1 0x20 ADD PUSH1 0x0 KECCAK256 PUSH1 0x4 ADD DUP5 PUSH1 0x2 DUP2 LT PUSH2 0x28F4 JUMPI PUSH2 0x28F3 PUSH2 0x3ADF JUMP JUMPDEST JUMPDEST ADD SLOAD DUP6 PUSH2 0x2901 SWAP2 SWAP1 PUSH2 0x3B71 JUMP JUMPDEST PUSH2 0x290B SWAP2 SWAP1 PUSH2 0x3BE2 JUMP JUMPDEST SWAP1 POP DUP1 SWAP2 POP POP SWAP3 SWAP2 POP POP JUMP JUMPDEST PUSH1 0x0 DUP1 PUSH1 0x0 SWAP1 SLOAD SWAP1 PUSH2 0x100 EXP SWAP1 DIV PUSH20 0xFFFFFFFFFFFFFFFFFFFFFFFFFFFFFFFFFFFFFFFF AND SWAP1 POP SWAP1 JUMP JUMPDEST PUSH1 0x0 DUP1 PUSH1 0x5 PUSH1 0x0 ADDRESS PUSH20 0xFFFFFFFFFFFFFFFFFFFFFFFFFFFFFFFFFFFFFFFF AND PUSH20 0xFFFFFFFFFFFFFFFFFFFFFFFFFFFFFFFFFFFFFFFF AND DUP2 MSTORE PUSH1 0x20 ADD SWAP1 DUP2 MSTORE PUSH1 0x20 ADD PUSH1 0x0 KECCAK256 PUSH1 0x4 ADD DUP4 PUSH1 0x2 DUP2 LT PUSH2 0x2997 JUMPI PUSH2 0x2996 PUSH2 0x3ADF JUMP JUMPDEST JUMPDEST ADD SLOAD SWAP1 POP PUSH1 0x0 DUP2 SUB PUSH2 0x29DE JUMPI PUSH1 0x40 MLOAD PUSH32 0x8C379A000000000000000000000000000000000000000000000000000000000 DUP2 MSTORE PUSH1 0x4 ADD PUSH2 0x29D5 SWAP1 PUSH2 0x3F70 JUMP JUMPDEST PUSH1 0x40 MLOAD DUP1 SWAP2 SUB SWAP1 REVERT JUMPDEST PUSH1 0x0 DUP2 PUSH1 0x64 DUP7 PUSH2 0x29EE SWAP2 SWAP1 PUSH2 0x3B71 JUMP JUMPDEST PUSH2 0x29F8 SWAP2 SWAP1 PUSH2 0x3BE2 JUMP JUMPDEST SWAP1 POP DUP1 SWAP3 POP POP POP SWAP3 SWAP2 POP POP JUMP JUMPDEST PUSH1 0x2 SLOAD DUP2 JUMP JUMPDEST PUSH1 0x5 PUSH1 0x20 MSTORE DUP1 PUSH1 0x0 MSTORE PUSH1 0x40 PUSH1 0x0 KECCAK256 PUSH1 0x0 SWAP2 POP SWAP1 POP DUP1 PUSH1 0x0 ADD PUSH1 0x0 SWAP1 SLOAD SWAP1 PUSH2 0x100 EXP SWAP1 DIV PUSH1 0xFF AND SWAP1 DUP1 PUSH1 0x1 ADD SLOAD SWAP1 DUP1 PUSH1 0x2 ADD SLOAD SWAP1 DUP1 PUSH1 0x3 ADD SLOAD SWAP1 DUP1 PUSH1 0x6 ADD SLOAD SWAP1 DUP1 PUSH1 0x7 ADD SLOAD SWAP1 POP DUP7 JUMP JUMPDEST PUSH2 0x2A5C PUSH2 0x3544 JUMP JUMPDEST PUSH1 0x0 PUSH20 0xFFFFFFFFFFFFFFFFFFFFFFFFFFFFFFFFFFFFFFFF AND DUP2 PUSH20 0xFFFFFFFFFFFFFFFFFFFFFFFFFFFFFFFFFFFFFFFF AND SUB PUSH2 0x2ACE JUMPI PUSH1 0x0 PUSH1 0x40 MLOAD PUSH32 0x1E4FBDF700000000000000000000000000000000000000000000000000000000 DUP2 MSTORE PUSH1 0x4 ADD PUSH2 0x2AC5 SWAP2 SWAP1 PUSH2 0x3740 JUMP JUMPDEST PUSH1 0x40 MLOAD DUP1 SWAP2 SUB SWAP1 REVERT JUMPDEST PUSH2 0x2AD7 DUP2 PUSH2 0x35CB JUMP JUMPDEST POP JUMP JUMPDEST PUSH1 0x6 PUSH1 0x0 DUP3 PUSH20 0xFFFFFFFFFFFFFFFFFFFFFFFFFFFFFFFFFFFFFFFF AND PUSH20 0xFFFFFFFFFFFFFFFFFFFFFFFFFFFFFFFFFFFFFFFF AND DUP2 MSTORE PUSH1 0x20 ADD SWAP1 DUP2 MSTORE PUSH1 0x20 ADD PUSH1 0x0 KECCAK256 PUSH1 0x0 DUP4 DUP2 MSTORE PUSH1 0x20 ADD SWAP1 DUP2 MSTORE PUSH1 0x20 ADD PUSH1 0x0 KECCAK256 PUSH1 0x0 ADD PUSH1 0x0 SWAP1 SLOAD SWAP1 PUSH2 0x100 EXP SWAP1 DIV PUSH1 0xFF AND PUSH2 0x2B7C JUMPI DUP2 PUSH1 0x40 MLOAD PUSH32 0x1599706800000000000000000000000000000000000000000000000000000000 DUP2 MSTORE PUSH1 0x4 ADD PUSH2 0x2B73 SWAP2 SWAP1 PUSH2 0x3A23 JUMP JUMPDEST PUSH1 0x40 MLOAD DUP1 SWAP2 SUB SWAP1 REVERT JUMPDEST PUSH1 0x6 PUSH1 0x0 DUP3 PUSH20 0xFFFFFFFFFFFFFFFFFFFFFFFFFFFFFFFFFFFFFFFF AND PUSH20 0xFFFFFFFFFFFFFFFFFFFFFFFFFFFFFFFFFFFFFFFF AND DUP2 MSTORE PUSH1 0x20 ADD SWAP1 DUP2 MSTORE PUSH1 0x20 ADD PUSH1 0x0 KECCAK256 PUSH1 0x0 DUP4 DUP2 MSTORE PUSH1 0x20 ADD SWAP1 DUP2 MSTORE PUSH1 0x20 ADD PUSH1 0x0 KECCAK256 PUSH1 0x0 ADD PUSH1 0x1 SWAP1 SLOAD SWAP1 PUSH2 0x100 EXP SWAP1 DIV PUSH1 0xFF AND ISZERO PUSH2 0x2C7F JUMPI PUSH1 0x6 PUSH1 0x0 DUP3 PUSH20 0xFFFFFFFFFFFFFFFFFFFFFFFFFFFFFFFFFFFFFFFF AND PUSH20 0xFFFFFFFFFFFFFFFFFFFFFFFFFFFFFFFFFFFFFFFF AND DUP2 MSTORE PUSH1 0x20 ADD SWAP1 DUP2 MSTORE PUSH1 0x20 ADD PUSH1 0x0 KECCAK256 PUSH1 0x0 DUP4 DUP2 MSTORE PUSH1 0x20 ADD SWAP1 DUP2 MSTORE PUSH1 0x20 ADD PUSH1 0x0 KECCAK256 PUSH1 0x0 ADD PUSH1 0x1 SWAP1 SLOAD SWAP1 PUSH2 0x100 EXP SWAP1 DIV PUSH1 0xFF AND PUSH1 0x40 MLOAD PUSH32 0xCA1C6EB300000000000000000000000000000000000000000000000000000000 DUP2 MSTORE PUSH1 0x4 ADD PUSH2 0x2C76 SWAP2 SWAP1 PUSH2 0x37E2 JUMP JUMPDEST PUSH1 0x40 MLOAD DUP1 SWAP2 SUB SWAP1 REVERT JUMPDEST PUSH1 0x5 PUSH1 0x0 ADDRESS PUSH20 0xFFFFFFFFFFFFFFFFFFFFFFFFFFFFFFFFFFFFFFFF AND PUSH20 0xFFFFFFFFFFFFFFFFFFFFFFFFFFFFFFFFFFFFFFFF AND DUP2 MSTORE PUSH1 0x20 ADD SWAP1 DUP2 MSTORE PUSH1 0x20 ADD PUSH1 0x0 KECCAK256 PUSH1 0x0 ADD PUSH1 0x0 SWAP1 SLOAD SWAP1 PUSH2 0x100 EXP SWAP1 DIV PUSH1 0xFF AND ISZERO PUSH2 0x2D06 JUMPI PUSH1 0x40 MLOAD PUSH32 0x853FD42100000000000000000000000000000000000000000000000000000000 DUP2 MSTORE PUSH1 0x4 ADD PUSH1 0x40 MLOAD DUP1 SWAP2 SUB SWAP1 REVERT JUMPDEST DUP1 PUSH20 0xFFFFFFFFFFFFFFFFFFFFFFFFFFFFFFFFFFFFFFFF AND PUSH1 0x6 PUSH1 0x0 DUP4 PUSH20 0xFFFFFFFFFFFFFFFFFFFFFFFFFFFFFFFFFFFFFFFF AND PUSH20 0xFFFFFFFFFFFFFFFFFFFFFFFFFFFFFFFFFFFFFFFF AND DUP2 MSTORE PUSH1 0x20 ADD SWAP1 DUP2 MSTORE PUSH1 0x20 ADD PUSH1 0x0 KECCAK256 PUSH1 0x0 DUP5 DUP2 MSTORE PUSH1 0x20 ADD SWAP1 DUP2 MSTORE PUSH1 0x20 ADD PUSH1 0x0 KECCAK256 PUSH1 0x0 ADD PUSH1 0x2 SWAP1 SLOAD SWAP1 PUSH2 0x100 EXP SWAP1 DIV PUSH20 0xFFFFFFFFFFFFFFFFFFFFFFFFFFFFFFFFFFFFFFFF AND PUSH20 0xFFFFFFFFFFFFFFFFFFFFFFFFFFFFFFFFFFFFFFFF AND EQ PUSH2 0x2DE9 JUMPI DUP1 PUSH1 0x40 MLOAD PUSH32 0xF6B79C5800000000000000000000000000000000000000000000000000000000 DUP2 MSTORE PUSH1 0x4 ADD PUSH2 0x2DE0 SWAP2 SWAP1 PUSH2 0x3740 JUMP JUMPDEST PUSH1 0x40 MLOAD DUP1 SWAP2 SUB SWAP1 REVERT JUMPDEST PUSH1 0x1 PUSH1 0x6 PUSH1 0x0 DUP4 PUSH20 0xFFFFFFFFFFFFFFFFFFFFFFFFFFFFFFFFFFFFFFFF AND PUSH20 0xFFFFFFFFFFFFFFFFFFFFFFFFFFFFFFFFFFFFFFFF AND DUP2 MSTORE PUSH1 0x20 ADD SWAP1 DUP2 MSTORE PUSH1 0x20 ADD PUSH1 0x0 KECCAK256 PUSH1 0x0 DUP5 DUP2 MSTORE PUSH1 0x20 ADD SWAP1 DUP2 MSTORE PUSH1 0x20 ADD PUSH1 0x0 KECCAK256 PUSH1 0x0 ADD PUSH1 0x1 PUSH2 0x100 EXP DUP2 SLOAD DUP2 PUSH1 0xFF MUL NOT AND SWAP1 DUP4 ISZERO ISZERO MUL OR SWAP1 SSTORE POP CALLER PUSH1 0x6 PUSH1 0x0 DUP4 PUSH20 0xFFFFFFFFFFFFFFFFFFFFFFFFFFFFFFFFFFFFFFFF AND PUSH20 0xFFFFFFFFFFFFFFFFFFFFFFFFFFFFFFFFFFFFFFFF AND DUP2 MSTORE PUSH1 0x20 ADD SWAP1 DUP2 MSTORE PUSH1 0x20 ADD PUSH1 0x0 KECCAK256 PUSH1 0x0 DUP5 DUP2 MSTORE PUSH1 0x20 ADD SWAP1 DUP2 MSTORE PUSH1 0x20 ADD PUSH1 0x0 KECCAK256 PUSH1 0x0 ADD PUSH1 0x2 PUSH2 0x100 EXP DUP2 SLOAD DUP2 PUSH20 0xFFFFFFFFFFFFFFFFFFFFFFFFFFFFFFFFFFFFFFFF MUL NOT AND SWAP1 DUP4 PUSH20 0xFFFFFFFFFFFFFFFFFFFFFFFFFFFFFFFFFFFFFFFF AND MUL OR SWAP1 SSTORE POP PUSH1 0x0 PUSH1 0x6 PUSH1 0x0 DUP4 PUSH20 0xFFFFFFFFFFFFFFFFFFFFFFFFFFFFFFFFFFFFFFFF AND PUSH20 0xFFFFFFFFFFFFFFFFFFFFFFFFFFFFFFFFFFFFFFFF AND DUP2 MSTORE PUSH1 0x20 ADD SWAP1 DUP2 MSTORE PUSH1 0x20 ADD PUSH1 0x0 KECCAK256 PUSH1 0x0 DUP5 DUP2 MSTORE PUSH1 0x20 ADD SWAP1 DUP2 MSTORE PUSH1 0x20 ADD PUSH1 0x0 KECCAK256 PUSH1 0x3 ADD SLOAD SUB PUSH2 0x309F JUMPI PUSH1 0x6 PUSH1 0x0 DUP3 PUSH20 0xFFFFFFFFFFFFFFFFFFFFFFFFFFFFFFFFFFFFFFFF AND PUSH20 0xFFFFFFFFFFFFFFFFFFFFFFFFFFFFFFFFFFFFFFFF AND DUP2 MSTORE PUSH1 0x20 ADD SWAP1 DUP2 MSTORE PUSH1 0x20 ADD PUSH1 0x0 KECCAK256 PUSH1 0x0 DUP4 DUP2 MSTORE PUSH1 0x20 ADD SWAP1 DUP2 MSTORE PUSH1 0x20 ADD PUSH1 0x0 KECCAK256 PUSH1 0x2 ADD SLOAD PUSH1 0x4 PUSH1 0x0 CALLER PUSH20 0xFFFFFFFFFFFFFFFFFFFFFFFFFFFFFFFFFFFFFFFF AND PUSH20 0xFFFFFFFFFFFFFFFFFFFFFFFFFFFFFFFFFFFFFFFF AND DUP2 MSTORE PUSH1 0x20 ADD SWAP1 DUP2 MSTORE PUSH1 0x20 ADD PUSH1 0x0 KECCAK256 PUSH1 0x1 ADD PUSH1 0x0 DUP3 DUP3 SLOAD PUSH2 0x2FE7 SWAP2 SWAP1 PUSH2 0x3B3D JUMP JUMPDEST SWAP3 POP POP DUP2 SWAP1 SSTORE POP PUSH1 0x6 PUSH1 0x0 DUP3 PUSH20 0xFFFFFFFFFFFFFFFFFFFFFFFFFFFFFFFFFFFFFFFF AND PUSH20 0xFFFFFFFFFFFFFFFFFFFFFFFFFFFFFFFFFFFFFFFF AND DUP2 MSTORE PUSH1 0x20 ADD SWAP1 DUP2 MSTORE PUSH1 0x20 ADD PUSH1 0x0 KECCAK256 PUSH1 0x0 DUP4 DUP2 MSTORE PUSH1 0x20 ADD SWAP1 DUP2 MSTORE PUSH1 0x20 ADD PUSH1 0x0 KECCAK256 PUSH1 0x2 ADD SLOAD PUSH1 0x4 PUSH1 0x0 DUP4 PUSH20 0xFFFFFFFFFFFFFFFFFFFFFFFFFFFFFFFFFFFFFFFF AND PUSH20 0xFFFFFFFFFFFFFFFFFFFFFFFFFFFFFFFFFFFFFFFF AND DUP2 MSTORE PUSH1 0x20 ADD SWAP1 DUP2 MSTORE PUSH1 0x20 ADD PUSH1 0x0 KECCAK256 PUSH1 0x1 ADD PUSH1 0x0 DUP3 DUP3 SLOAD PUSH2 0x3093 SWAP2 SWAP1 PUSH2 0x3CD8 JUMP JUMPDEST SWAP3 POP POP DUP2 SWAP1 SSTORE POP PUSH2 0x31F8 JUMP JUMPDEST PUSH1 0x6 PUSH1 0x0 DUP3 PUSH20 0xFFFFFFFFFFFFFFFFFFFFFFFFFFFFFFFFFFFFFFFF AND PUSH20 0xFFFFFFFFFFFFFFFFFFFFFFFFFFFFFFFFFFFFFFFF AND DUP2 MSTORE PUSH1 0x20 ADD SWAP1 DUP2 MSTORE PUSH1 0x20 ADD PUSH1 0x0 KECCAK256 PUSH1 0x0 DUP4 DUP2 MSTORE PUSH1 0x20 ADD SWAP1 DUP2 MSTORE PUSH1 0x20 ADD PUSH1 0x0 KECCAK256 PUSH1 0x2 ADD SLOAD PUSH1 0x4 PUSH1 0x0 DUP4 PUSH20 0xFFFFFFFFFFFFFFFFFFFFFFFFFFFFFFFFFFFFFFFF AND PUSH20 0xFFFFFFFFFFFFFFFFFFFFFFFFFFFFFFFFFFFFFFFF AND DUP2 MSTORE PUSH1 0x20 ADD SWAP1 DUP2 MSTORE PUSH1 0x20 ADD PUSH1 0x0 KECCAK256 PUSH1 0x3 ADD PUSH1 0x0 DUP3 DUP3 SLOAD PUSH2 0x3144 SWAP2 SWAP1 PUSH2 0x3CD8 JUMP JUMPDEST SWAP3 POP POP DUP2 SWAP1 SSTORE POP PUSH1 0x6 PUSH1 0x0 DUP3 PUSH20 0xFFFFFFFFFFFFFFFFFFFFFFFFFFFFFFFFFFFFFFFF AND PUSH20 0xFFFFFFFFFFFFFFFFFFFFFFFFFFFFFFFFFFFFFFFF AND DUP2 MSTORE PUSH1 0x20 ADD SWAP1 DUP2 MSTORE PUSH1 0x20 ADD PUSH1 0x0 KECCAK256 PUSH1 0x0 DUP4 DUP2 MSTORE PUSH1 0x20 ADD SWAP1 DUP2 MSTORE PUSH1 0x20 ADD PUSH1 0x0 KECCAK256 PUSH1 0x2 ADD SLOAD PUSH1 0x4 PUSH1 0x0 CALLER PUSH20 0xFFFFFFFFFFFFFFFFFFFFFFFFFFFFFFFFFFFFFFFF AND PUSH20 0xFFFFFFFFFFFFFFFFFFFFFFFFFFFFFFFFFFFFFFFF AND DUP2 MSTORE PUSH1 0x20 ADD SWAP1 DUP2 MSTORE PUSH1 0x20 ADD PUSH1 0x0 KECCAK256 PUSH1 0x3 ADD PUSH1 0x0 DUP3 DUP3 SLOAD PUSH2 0x31F0 SWAP2 SWAP1 PUSH2 0x3B3D JUMP JUMPDEST SWAP3 POP POP DUP2 SWAP1 SSTORE POP JUMPDEST PUSH1 0x1 PUSH1 0x4 PUSH1 0x0 CALLER PUSH20 0xFFFFFFFFFFFFFFFFFFFFFFFFFFFFFFFFFFFFFFFF AND PUSH20 0xFFFFFFFFFFFFFFFFFFFFFFFFFFFFFFFFFFFFFFFF AND DUP2 MSTORE PUSH1 0x20 ADD SWAP1 DUP2 MSTORE PUSH1 0x20 ADD PUSH1 0x0 KECCAK256 PUSH1 0x5 ADD PUSH1 0x0 PUSH1 0x6 PUSH1 0x0 DUP6 PUSH20 0xFFFFFFFFFFFFFFFFFFFFFFFFFFFFFFFFFFFFFFFF AND PUSH20 0xFFFFFFFFFFFFFFFFFFFFFFFFFFFFFFFFFFFFFFFF AND DUP2 MSTORE PUSH1 0x20 ADD SWAP1 DUP2 MSTORE PUSH1 0x20 ADD PUSH1 0x0 KECCAK256 PUSH1 0x0 DUP7 DUP2 MSTORE PUSH1 0x20 ADD SWAP1 DUP2 MSTORE PUSH1 0x20 ADD PUSH1 0x0 KECCAK256 PUSH1 0x3 ADD SLOAD DUP2 MSTORE PUSH1 0x20 ADD SWAP1 DUP2 MSTORE PUSH1 0x20 ADD PUSH1 0x0 KECCAK256 PUSH1 0x0 PUSH2 0x100 EXP DUP2 SLOAD DUP2 PUSH1 0xFF MUL NOT AND SWAP1 DUP4 ISZERO ISZERO MUL OR SWAP1 SSTORE POP CALLER PUSH1 0x3 PUSH1 0x0 PUSH1 0x2 SLOAD DUP2 MSTORE PUSH1 0x20 ADD SWAP1 DUP2 MSTORE PUSH1 0x20 ADD PUSH1 0x0 KECCAK256 PUSH1 0x0 PUSH2 0x100 EXP DUP2 SLOAD DUP2 PUSH20 0xFFFFFFFFFFFFFFFFFFFFFFFFFFFFFFFFFFFFFFFF MUL NOT AND SWAP1 DUP4 PUSH20 0xFFFFFFFFFFFFFFFFFFFFFFFFFFFFFFFFFFFFFFFF AND MUL OR SWAP1 SSTORE POP PUSH1 0x2 PUSH1 0x0 DUP2 SLOAD DUP1 SWAP3 SWAP2 SWAP1 PUSH2 0x331E SWAP1 PUSH2 0x3C90 JUMP JUMPDEST SWAP2 SWAP1 POP SSTORE POP PUSH1 0x0 PUSH1 0x1 PUSH1 0x0 SWAP1 SLOAD SWAP1 PUSH2 0x100 EXP SWAP1 DIV PUSH20 0xFFFFFFFFFFFFFFFFFFFFFFFFFFFFFFFFFFFFFFFF AND PUSH20 0xFFFFFFFFFFFFFFFFFFFFFFFFFFFFFFFFFFFFFFFF AND PUSH4 0x23B872DD CALLER DUP5 PUSH1 0x6 PUSH1 0x0 DUP8 PUSH20 0xFFFFFFFFFFFFFFFFFFFFFFFFFFFFFFFFFFFFFFFF AND PUSH20 0xFFFFFFFFFFFFFFFFFFFFFFFFFFFFFFFFFFFFFFFF AND DUP2 MSTORE PUSH1 0x20 ADD SWAP1 DUP2 MSTORE PUSH1 0x20 ADD PUSH1 0x0 KECCAK256 PUSH1 0x0 DUP9 DUP2 MSTORE PUSH1 0x20 ADD SWAP1 DUP2 MSTORE PUSH1 0x20 ADD PUSH1 0x0 KECCAK256 PUSH1 0x1 ADD SLOAD PUSH1 0x40 MLOAD DUP5 PUSH4 0xFFFFFFFF AND PUSH1 0xE0 SHL DUP2 MSTORE PUSH1 0x4 ADD PUSH2 0x33D7 SWAP4 SWAP3 SWAP2 SWAP1 PUSH2 0x3E81 JUMP JUMPDEST PUSH1 0x20 PUSH1 0x40 MLOAD DUP1 DUP4 SUB DUP2 PUSH1 0x0 DUP8 GAS CALL ISZERO DUP1 ISZERO PUSH2 0x33F6 JUMPI RETURNDATASIZE PUSH1 0x0 DUP1 RETURNDATACOPY RETURNDATASIZE PUSH1 0x0 REVERT JUMPDEST POP POP POP POP PUSH1 0x40 MLOAD RETURNDATASIZE PUSH1 0x1F NOT PUSH1 0x1F DUP3 ADD AND DUP3 ADD DUP1 PUSH1 0x40 MSTORE POP DUP2 ADD SWAP1 PUSH2 0x341A SWAP2 SWAP1 PUSH2 0x3DA3 JUMP JUMPDEST SWAP1 POP DUP1 PUSH2 0x345C JUMPI PUSH1 0x40 MLOAD PUSH32 0x8C379A000000000000000000000000000000000000000000000000000000000 DUP2 MSTORE PUSH1 0x4 ADD PUSH2 0x3453 SWAP1 PUSH2 0x3E1C JUMP JUMPDEST PUSH1 0x40 MLOAD DUP1 SWAP2 SUB SWAP1 REVERT JUMPDEST PUSH32 0xC891ADF8DFBF643A02668E73C35BBBB3C8AA9D86E0DC779D260026CFC0AB8B99 CALLER DUP4 PUSH1 0x6 PUSH1 0x0 DUP7 PUSH20 0xFFFFFFFFFFFFFFFFFFFFFFFFFFFFFFFFFFFFFFFF AND PUSH20 0xFFFFFFFFFFFFFFFFFFFFFFFFFFFFFFFFFFFFFFFF AND DUP2 MSTORE PUSH1 0x20 ADD SWAP1 DUP2 MSTORE PUSH1 0x20 ADD PUSH1 0x0 KECCAK256 PUSH1 0x0 DUP8 DUP2 MSTORE PUSH1 0x20 ADD SWAP1 DUP2 MSTORE PUSH1 0x20 ADD PUSH1 0x0 KECCAK256 PUSH1 0x2 ADD SLOAD PUSH1 0x6 PUSH1 0x0 DUP8 PUSH20 0xFFFFFFFFFFFFFFFFFFFFFFFFFFFFFFFFFFFFFFFF AND PUSH20 0xFFFFFFFFFFFFFFFFFFFFFFFFFFFFFFFFFFFFFFFF AND DUP2 MSTORE PUSH1 0x20 ADD SWAP1 DUP2 MSTORE PUSH1 0x20 ADD PUSH1 0x0 KECCAK256 PUSH1 0x0 DUP9 DUP2 MSTORE PUSH1 0x20 ADD SWAP1 DUP2 MSTORE PUSH1 0x20 ADD PUSH1 0x0 KECCAK256 PUSH1 0x1 ADD SLOAD PUSH1 0x40 MLOAD PUSH2 0x3537 SWAP5 SWAP4 SWAP3 SWAP2 SWAP1 PUSH2 0x3F90 JUMP JUMPDEST PUSH1 0x40 MLOAD DUP1 SWAP2 SUB SWAP1 LOG1 POP POP POP JUMP JUMPDEST PUSH2 0x354C PUSH2 0x368F JUMP JUMPDEST PUSH20 0xFFFFFFFFFFFFFFFFFFFFFFFFFFFFFFFFFFFFFFFF AND PUSH2 0x356A PUSH2 0x2917 JUMP JUMPDEST PUSH20 0xFFFFFFFFFFFFFFFFFFFFFFFFFFFFFFFFFFFFFFFF AND EQ PUSH2 0x35C9 JUMPI PUSH2 0x358D PUSH2 0x368F JUMP JUMPDEST PUSH1 0x40 MLOAD PUSH32 0x118CDAA700000000000000000000000000000000000000000000000000000000 DUP2 MSTORE PUSH1 0x4 ADD PUSH2 0x35C0 SWAP2 SWAP1 PUSH2 0x3740 JUMP JUMPDEST PUSH1 0x40 MLOAD DUP1 SWAP2 SUB SWAP1 REVERT JUMPDEST JUMP JUMPDEST PUSH1 0x0 DUP1 PUSH1 0x0 SWAP1 SLOAD SWAP1 PUSH2 0x100 EXP SWAP1 DIV PUSH20 0xFFFFFFFFFFFFFFFFFFFFFFFFFFFFFFFFFFFFFFFF AND SWAP1 POP DUP2 PUSH1 0x0 DUP1 PUSH2 0x100 EXP DUP2 SLOAD DUP2 PUSH20 0xFFFFFFFFFFFFFFFFFFFFFFFFFFFFFFFFFFFFFFFF MUL NOT AND SWAP1 DUP4 PUSH20 0xFFFFFFFFFFFFFFFFFFFFFFFFFFFFFFFFFFFFFFFF AND MUL OR SWAP1 SSTORE POP DUP2 PUSH20 0xFFFFFFFFFFFFFFFFFFFFFFFFFFFFFFFFFFFFFFFF AND DUP2 PUSH20 0xFFFFFFFFFFFFFFFFFFFFFFFFFFFFFFFFFFFFFFFF AND PUSH32 0x8BE0079C531659141344CD1FD0A4F28419497F9722A3DAAFE3B4186F6B6457E0 PUSH1 0x40 MLOAD PUSH1 0x40 MLOAD DUP1 SWAP2 SUB SWAP1 LOG3 POP POP JUMP JUMPDEST PUSH1 0x0 CALLER SWAP1 POP SWAP1 JUMP JUMPDEST PUSH1 0x0 DUP1 REVERT JUMPDEST PUSH1 0x0 DUP2 SWAP1 POP SWAP2 SWAP1 POP JUMP JUMPDEST PUSH2 0x36AF DUP2 PUSH2 0x369C JUMP JUMPDEST DUP2 EQ PUSH2 0x36BA JUMPI PUSH1 0x0 DUP1 REVERT JUMPDEST POP JUMP JUMPDEST PUSH1 0x0 DUP2 CALLDATALOAD SWAP1 POP PUSH2 0x36CC DUP2 PUSH2 0x36A6 JUMP JUMPDEST SWAP3 SWAP2 POP POP JUMP JUMPDEST PUSH1 0x0 PUSH1 0x20 DUP3 DUP5 SUB SLT ISZERO PUSH2 0x36E8 JUMPI PUSH2 0x36E7 PUSH2 0x3697 JUMP JUMPDEST JUMPDEST PUSH1 0x0 PUSH2 0x36F6 DUP5 DUP3 DUP6 ADD PUSH2 0x36BD JUMP JUMPDEST SWAP2 POP POP SWAP3 SWAP2 POP POP JUMP JUMPDEST PUSH1 0x0 PUSH20 0xFFFFFFFFFFFFFFFFFFFFFFFFFFFFFFFFFFFFFFFF DUP3 AND SWAP1 POP SWAP2 SWAP1 POP JUMP JUMPDEST PUSH1 0x0 PUSH2 0x372A DUP3 PUSH2 0x36FF JUMP JUMPDEST SWAP1 POP SWAP2 SWAP1 POP JUMP JUMPDEST PUSH2 0x373A DUP2 PUSH2 0x371F JUMP JUMPDEST DUP3 MSTORE POP POP JUMP JUMPDEST PUSH1 0x0 PUSH1 0x20 DUP3 ADD SWAP1 POP PUSH2 0x3755 PUSH1 0x0 DUP4 ADD DUP5 PUSH2 0x3731 JUMP JUMPDEST SWAP3 SWAP2 POP POP JUMP JUMPDEST PUSH2 0x3764 DUP2 PUSH2 0x371F JUMP JUMPDEST DUP2 EQ PUSH2 0x376F JUMPI PUSH1 0x0 DUP1 REVERT JUMPDEST POP JUMP JUMPDEST PUSH1 0x0 DUP2 CALLDATALOAD SWAP1 POP PUSH2 0x3781 DUP2 PUSH2 0x375B JUMP JUMPDEST SWAP3 SWAP2 POP POP JUMP JUMPDEST PUSH1 0x0 DUP1 PUSH1 0x40 DUP4 DUP6 SUB SLT ISZERO PUSH2 0x379E JUMPI PUSH2 0x379D PUSH2 0x3697 JUMP JUMPDEST JUMPDEST PUSH1 0x0 PUSH2 0x37AC DUP6 DUP3 DUP7 ADD PUSH2 0x3772 JUMP JUMPDEST SWAP3 POP POP PUSH1 0x20 PUSH2 0x37BD DUP6 DUP3 DUP7 ADD PUSH2 0x36BD JUMP JUMPDEST SWAP2 POP POP SWAP3 POP SWAP3 SWAP1 POP JUMP JUMPDEST PUSH1 0x0 DUP2 ISZERO ISZERO SWAP1 POP SWAP2 SWAP1 POP JUMP JUMPDEST PUSH2 0x37DC DUP2 PUSH2 0x37C7 JUMP JUMPDEST DUP3 MSTORE POP POP JUMP JUMPDEST PUSH1 0x0 PUSH1 0x20 DUP3 ADD SWAP1 POP PUSH2 0x37F7 PUSH1 0x0 DUP4 ADD DUP5 PUSH2 0x37D3 JUMP JUMPDEST SWAP3 SWAP2 POP POP JUMP JUMPDEST PUSH1 0x0 DUP2 SWAP1 POP SWAP2 SWAP1 POP JUMP JUMPDEST PUSH1 0x0 PUSH2 0x3822 PUSH2 0x381D PUSH2 0x3818 DUP5 PUSH2 0x36FF JUMP JUMPDEST PUSH2 0x37FD JUMP JUMPDEST PUSH2 0x36FF JUMP JUMPDEST SWAP1 POP SWAP2 SWAP1 POP JUMP JUMPDEST PUSH1 0x0 PUSH2 0x3834 DUP3 PUSH2 0x3807 JUMP JUMPDEST SWAP1 POP SWAP2 SWAP1 POP JUMP JUMPDEST PUSH1 0x0 PUSH2 0x3846 DUP3 PUSH2 0x3829 JUMP JUMPDEST SWAP1 POP SWAP2 SWAP1 POP JUMP JUMPDEST PUSH2 0x3856 DUP2 PUSH2 0x383B JUMP JUMPDEST DUP3 MSTORE POP POP JUMP JUMPDEST PUSH1 0x0 PUSH1 0x20 DUP3 ADD SWAP1 POP PUSH2 0x3871 PUSH1 0x0 DUP4 ADD DUP5 PUSH2 0x384D JUMP JUMPDEST SWAP3 SWAP2 POP POP JUMP JUMPDEST PUSH1 0x0 PUSH1 0x20 DUP3 DUP5 SUB SLT ISZERO PUSH2 0x388D JUMPI PUSH2 0x388C PUSH2 0x3697 JUMP JUMPDEST JUMPDEST PUSH1 0x0 PUSH2 0x389B DUP5 DUP3 DUP6 ADD PUSH2 0x3772 JUMP JUMPDEST SWAP2 POP POP SWAP3 SWAP2 POP POP JUMP JUMPDEST PUSH2 0x38AD DUP2 PUSH2 0x369C JUMP JUMPDEST DUP3 MSTORE POP POP JUMP JUMPDEST PUSH1 0x0 PUSH1 0xA0 DUP3 ADD SWAP1 POP PUSH2 0x38C8 PUSH1 0x0 DUP4 ADD DUP9 PUSH2 0x38A4 JUMP JUMPDEST PUSH2 0x38D5 PUSH1 0x20 DUP4 ADD DUP8 PUSH2 0x38A4 JUMP JUMPDEST PUSH2 0x38E2 PUSH1 0x40 DUP4 ADD DUP7 PUSH2 0x38A4 JUMP JUMPDEST PUSH2 0x38EF PUSH1 0x60 DUP4 ADD DUP6 PUSH2 0x38A4 JUMP JUMPDEST PUSH2 0x38FC PUSH1 0x80 DUP4 ADD DUP5 PUSH2 0x38A4 JUMP JUMPDEST SWAP7 SWAP6 POP POP POP POP POP POP JUMP JUMPDEST PUSH1 0x0 PUSH1 0x40 DUP3 ADD SWAP1 POP PUSH2 0x391B PUSH1 0x0 DUP4 ADD DUP6 PUSH2 0x38A4 JUMP JUMPDEST PUSH2 0x3928 PUSH1 0x20 DUP4 ADD DUP5 PUSH2 0x38A4 JUMP JUMPDEST SWAP4 SWAP3 POP POP POP JUMP JUMPDEST PUSH1 0x0 DUP1 PUSH1 0x40 DUP4 DUP6 SUB SLT ISZERO PUSH2 0x3946 JUMPI PUSH2 0x3945 PUSH2 0x3697 JUMP JUMPDEST JUMPDEST PUSH1 0x0 PUSH2 0x3954 DUP6 DUP3 DUP7 ADD PUSH2 0x36BD JUMP JUMPDEST SWAP3 POP POP PUSH1 0x20 PUSH2 0x3965 DUP6 DUP3 DUP7 ADD PUSH2 0x36BD JUMP JUMPDEST SWAP2 POP POP SWAP3 POP SWAP3 SWAP1 POP JUMP JUMPDEST PUSH1 0x0 PUSH1 0xC0 DUP3 ADD SWAP1 POP PUSH2 0x3984 PUSH1 0x0 DUP4 ADD DUP10 PUSH2 0x37D3 JUMP JUMPDEST PUSH2 0x3991 PUSH1 0x20 DUP4 ADD DUP9 PUSH2 0x37D3 JUMP JUMPDEST PUSH2 0x399E PUSH1 0x40 DUP4 ADD DUP8 PUSH2 0x3731 JUMP JUMPDEST PUSH2 0x39AB PUSH1 0x60 DUP4 ADD DUP7 PUSH2 0x38A4 JUMP JUMPDEST PUSH2 0x39B8 PUSH1 0x80 DUP4 ADD DUP6 PUSH2 0x38A4 JUMP JUMPDEST PUSH2 0x39C5 PUSH1 0xA0 DUP4 ADD DUP5 PUSH2 0x38A4 JUMP JUMPDEST SWAP8 SWAP7 POP POP POP POP POP POP POP JUMP JUMPDEST PUSH1 0x0 DUP1 PUSH1 0x0 PUSH1 0x60 DUP5 DUP7 SUB SLT ISZERO PUSH2 0x39E9 JUMPI PUSH2 0x39E8 PUSH2 0x3697 JUMP JUMPDEST JUMPDEST PUSH1 0x0 PUSH2 0x39F7 DUP7 DUP3 DUP8 ADD PUSH2 0x36BD JUMP JUMPDEST SWAP4 POP POP PUSH1 0x20 PUSH2 0x3A08 DUP7 DUP3 DUP8 ADD PUSH2 0x36BD JUMP JUMPDEST SWAP3 POP POP PUSH1 0x40 PUSH2 0x3A19 DUP7 DUP3 DUP8 ADD PUSH2 0x36BD JUMP JUMPDEST SWAP2 POP POP SWAP3 POP SWAP3 POP SWAP3 JUMP JUMPDEST PUSH1 0x0 PUSH1 0x20 DUP3 ADD SWAP1 POP PUSH2 0x3A38 PUSH1 0x0 DUP4 ADD DUP5 PUSH2 0x38A4 JUMP JUMPDEST SWAP3 SWAP2 POP POP JUMP JUMPDEST PUSH1 0x0 PUSH1 0xC0 DUP3 ADD SWAP1 POP PUSH2 0x3A53 PUSH1 0x0 DUP4 ADD DUP10 PUSH2 0x37D3 JUMP JUMPDEST PUSH2 0x3A60 PUSH1 0x20 DUP4 ADD DUP9 PUSH2 0x38A4 JUMP JUMPDEST PUSH2 0x3A6D PUSH1 0x40 DUP4 ADD DUP8 PUSH2 0x38A4 JUMP JUMPDEST PUSH2 0x3A7A PUSH1 0x60 DUP4 ADD DUP7 PUSH2 0x38A4 JUMP JUMPDEST PUSH2 0x3A87 PUSH1 0x80 DUP4 ADD DUP6 PUSH2 0x38A4 JUMP JUMPDEST PUSH2 0x3A94 PUSH1 0xA0 DUP4 ADD DUP5 PUSH2 0x38A4 JUMP JUMPDEST SWAP8 SWAP7 POP POP POP POP POP POP POP JUMP JUMPDEST PUSH1 0x0 DUP1 PUSH1 0x40 DUP4 DUP6 SUB SLT ISZERO PUSH2 0x3AB6 JUMPI PUSH2 0x3AB5 PUSH2 0x3697 JUMP JUMPDEST JUMPDEST PUSH1 0x0 PUSH2 0x3AC4 DUP6 DUP3 DUP7 ADD PUSH2 0x36BD JUMP JUMPDEST SWAP3 POP POP PUSH1 0x20 PUSH2 0x3AD5 DUP6 DUP3 DUP7 ADD PUSH2 0x3772 JUMP JUMPDEST SWAP2 POP POP SWAP3 POP SWAP3 SWAP1 POP JUMP JUMPDEST PUSH32 0x4E487B7100000000000000000000000000000000000000000000000000000000 PUSH1 0x0 MSTORE PUSH1 0x32 PUSH1 0x4 MSTORE PUSH1 0x24 PUSH1 0x0 REVERT JUMPDEST PUSH32 0x4E487B7100000000000000000000000000000000000000000000000000000000 PUSH1 0x0 MSTORE PUSH1 0x11 PUSH1 0x4 MSTORE PUSH1 0x24 PUSH1 0x0 REVERT JUMPDEST PUSH1 0x0 PUSH2 0x3B48 DUP3 PUSH2 0x369C JUMP JUMPDEST SWAP2 POP PUSH2 0x3B53 DUP4 PUSH2 0x369C JUMP JUMPDEST SWAP3 POP DUP3 DUP3 ADD SWAP1 POP DUP1 DUP3 GT ISZERO PUSH2 0x3B6B JUMPI PUSH2 0x3B6A PUSH2 0x3B0E JUMP JUMPDEST JUMPDEST SWAP3 SWAP2 POP POP JUMP JUMPDEST PUSH1 0x0 PUSH2 0x3B7C DUP3 PUSH2 0x369C JUMP JUMPDEST SWAP2 POP PUSH2 0x3B87 DUP4 PUSH2 0x369C JUMP JUMPDEST SWAP3 POP DUP3 DUP3 MUL PUSH2 0x3B95 DUP2 PUSH2 0x369C JUMP JUMPDEST SWAP2 POP DUP3 DUP3 DIV DUP5 EQ DUP4 ISZERO OR PUSH2 0x3BAC JUMPI PUSH2 0x3BAB PUSH2 0x3B0E JUMP JUMPDEST JUMPDEST POP SWAP3 SWAP2 POP POP JUMP JUMPDEST PUSH32 0x4E487B7100000000000000000000000000000000000000000000000000000000 PUSH1 0x0 MSTORE PUSH1 0x12 PUSH1 0x4 MSTORE PUSH1 0x24 PUSH1 0x0 REVERT JUMPDEST PUSH1 0x0 PUSH2 0x3BED DUP3 PUSH2 0x369C JUMP JUMPDEST SWAP2 POP PUSH2 0x3BF8 DUP4 PUSH2 0x369C JUMP JUMPDEST SWAP3 POP DUP3 PUSH2 0x3C08 JUMPI PUSH2 0x3C07 PUSH2 0x3BB3 JUMP JUMPDEST JUMPDEST DUP3 DUP3 DIV SWAP1 POP SWAP3 SWAP2 POP POP JUMP JUMPDEST PUSH1 0x0 DUP3 DUP3 MSTORE PUSH1 0x20 DUP3 ADD SWAP1 POP SWAP3 SWAP2 POP POP JUMP JUMPDEST PUSH32 0x6E6F7420656E6F75676820416D6F756E74000000000000000000000000000000 PUSH1 0x0 DUP3 ADD MSTORE POP JUMP JUMPDEST PUSH1 0x0 PUSH2 0x3C5A PUSH1 0x11 DUP4 PUSH2 0x3C13 JUMP JUMPDEST SWAP2 POP PUSH2 0x3C65 DUP3 PUSH2 0x3C24 JUMP JUMPDEST PUSH1 0x20 DUP3 ADD SWAP1 POP SWAP2 SWAP1 POP JUMP JUMPDEST PUSH1 0x0 PUSH1 0x20 DUP3 ADD SWAP1 POP DUP2 DUP2 SUB PUSH1 0x0 DUP4 ADD MSTORE PUSH2 0x3C89 DUP2 PUSH2 0x3C4D JUMP JUMPDEST SWAP1 POP SWAP2 SWAP1 POP JUMP JUMPDEST PUSH1 0x0 PUSH2 0x3C9B DUP3 PUSH2 0x369C JUMP JUMPDEST SWAP2 POP PUSH32 0xFFFFFFFFFFFFFFFFFFFFFFFFFFFFFFFFFFFFFFFFFFFFFFFFFFFFFFFFFFFFFFFF DUP3 SUB PUSH2 0x3CCD JUMPI PUSH2 0x3CCC PUSH2 0x3B0E JUMP JUMPDEST JUMPDEST PUSH1 0x1 DUP3 ADD SWAP1 POP SWAP2 SWAP1 POP JUMP JUMPDEST PUSH1 0x0 PUSH2 0x3CE3 DUP3 PUSH2 0x369C JUMP JUMPDEST SWAP2 POP PUSH2 0x3CEE DUP4 PUSH2 0x369C JUMP JUMPDEST SWAP3 POP DUP3 DUP3 SUB SWAP1 POP DUP2 DUP2 GT ISZERO PUSH2 0x3D06 JUMPI PUSH2 0x3D05 PUSH2 0x3B0E JUMP JUMPDEST JUMPDEST SWAP3 SWAP2 POP POP JUMP JUMPDEST PUSH1 0x0 DUP2 MLOAD SWAP1 POP PUSH2 0x3D1B DUP2 PUSH2 0x36A6 JUMP JUMPDEST SWAP3 SWAP2 POP POP JUMP JUMPDEST PUSH1 0x0 PUSH1 0x20 DUP3 DUP5 SUB SLT ISZERO PUSH2 0x3D37 JUMPI PUSH2 0x3D36 PUSH2 0x3697 JUMP JUMPDEST JUMPDEST PUSH1 0x0 PUSH2 0x3D45 DUP5 DUP3 DUP6 ADD PUSH2 0x3D0C JUMP JUMPDEST SWAP2 POP POP SWAP3 SWAP2 POP POP JUMP JUMPDEST PUSH1 0x0 PUSH1 0x40 DUP3 ADD SWAP1 POP PUSH2 0x3D63 PUSH1 0x0 DUP4 ADD DUP6 PUSH2 0x3731 JUMP JUMPDEST PUSH2 0x3D70 PUSH1 0x20 DUP4 ADD DUP5 PUSH2 0x38A4 JUMP JUMPDEST SWAP4 SWAP3 POP POP POP JUMP JUMPDEST PUSH2 0x3D80 DUP2 PUSH2 0x37C7 JUMP JUMPDEST DUP2 EQ PUSH2 0x3D8B JUMPI PUSH1 0x0 DUP1 REVERT JUMPDEST POP JUMP JUMPDEST PUSH1 0x0 DUP2 MLOAD SWAP1 POP PUSH2 0x3D9D DUP2 PUSH2 0x3D77 JUMP JUMPDEST SWAP3 SWAP2 POP POP JUMP JUMPDEST PUSH1 0x0 PUSH1 0x20 DUP3 DUP5 SUB SLT ISZERO PUSH2 0x3DB9 JUMPI PUSH2 0x3DB8 PUSH2 0x3697 JUMP JUMPDEST JUMPDEST PUSH1 0x0 PUSH2 0x3DC7 DUP5 DUP3 DUP6 ADD PUSH2 0x3D8E JUMP JUMPDEST SWAP2 POP POP SWAP3 SWAP2 POP POP JUMP JUMPDEST PUSH32 0x5472616E73666572206661696C65640000000000000000000000000000000000 PUSH1 0x0 DUP3 ADD MSTORE POP JUMP JUMPDEST PUSH1 0x0 PUSH2 0x3E06 PUSH1 0xF DUP4 PUSH2 0x3C13 JUMP JUMPDEST SWAP2 POP PUSH2 0x3E11 DUP3 PUSH2 0x3DD0 JUMP JUMPDEST PUSH1 0x20 DUP3 ADD SWAP1 POP SWAP2 SWAP1 POP JUMP JUMPDEST PUSH1 0x0 PUSH1 0x20 DUP3 ADD SWAP1 POP DUP2 DUP2 SUB PUSH1 0x0 DUP4 ADD MSTORE PUSH2 0x3E35 DUP2 PUSH2 0x3DF9 JUMP JUMPDEST SWAP1 POP SWAP2 SWAP1 POP JUMP JUMPDEST PUSH1 0x0 PUSH1 0x80 DUP3 ADD SWAP1 POP PUSH2 0x3E51 PUSH1 0x0 DUP4 ADD DUP8 PUSH2 0x3731 JUMP JUMPDEST PUSH2 0x3E5E PUSH1 0x20 DUP4 ADD DUP7 PUSH2 0x38A4 JUMP JUMPDEST PUSH2 0x3E6B PUSH1 0x40 DUP4 ADD DUP6 PUSH2 0x38A4 JUMP JUMPDEST PUSH2 0x3E78 PUSH1 0x60 DUP4 ADD DUP5 PUSH2 0x38A4 JUMP JUMPDEST SWAP6 SWAP5 POP POP POP POP POP JUMP JUMPDEST PUSH1 0x0 PUSH1 0x60 DUP3 ADD SWAP1 POP PUSH2 0x3E96 PUSH1 0x0 DUP4 ADD DUP7 PUSH2 0x3731 JUMP JUMPDEST PUSH2 0x3EA3 PUSH1 0x20 DUP4 ADD DUP6 PUSH2 0x3731 JUMP JUMPDEST PUSH2 0x3EB0 PUSH1 0x40 DUP4 ADD DUP5 PUSH2 0x38A4 JUMP JUMPDEST SWAP5 SWAP4 POP POP POP POP JUMP JUMPDEST PUSH32 0x536861726573206D7573742062652067726561746572207468616E207A65726F PUSH1 0x0 DUP3 ADD MSTORE POP JUMP JUMPDEST PUSH1 0x0 PUSH2 0x3EEE PUSH1 0x20 DUP4 PUSH2 0x3C13 JUMP JUMPDEST SWAP2 POP PUSH2 0x3EF9 DUP3 PUSH2 0x3EB8 JUMP JUMPDEST PUSH1 0x20 DUP3 ADD SWAP1 POP SWAP2 SWAP1 POP JUMP JUMPDEST PUSH1 0x0 PUSH1 0x20 DUP3 ADD SWAP1 POP DUP2 DUP2 SUB PUSH1 0x0 DUP4 ADD MSTORE PUSH2 0x3F1D DUP2 PUSH2 0x3EE1 JUMP JUMPDEST SWAP1 POP SWAP2 SWAP1 POP JUMP JUMPDEST PUSH32 0x5F70726963652063616E6E6F74206265207A65726F0000000000000000000000 PUSH1 0x0 DUP3 ADD MSTORE POP JUMP JUMPDEST PUSH1 0x0 PUSH2 0x3F5A PUSH1 0x15 DUP4 PUSH2 0x3C13 JUMP JUMPDEST SWAP2 POP PUSH2 0x3F65 DUP3 PUSH2 0x3F24 JUMP JUMPDEST PUSH1 0x20 DUP3 ADD SWAP1 POP SWAP2 SWAP1 POP JUMP JUMPDEST PUSH1 0x0 PUSH1 0x20 DUP3 ADD SWAP1 POP DUP2 DUP2 SUB PUSH1 0x0 DUP4 ADD MSTORE PUSH2 0x3F89 DUP2 PUSH2 0x3F4D JUMP JUMPDEST SWAP1 POP SWAP2 SWAP1 POP JUMP JUMPDEST PUSH1 0x0 PUSH1 0x80 DUP3 ADD SWAP1 POP PUSH2 0x3FA5 PUSH1 0x0 DUP4 ADD DUP8 PUSH2 0x3731 JUMP JUMPDEST PUSH2 0x3FB2 PUSH1 0x20 DUP4 ADD DUP7 PUSH2 0x3731 JUMP JUMPDEST PUSH2 0x3FBF PUSH1 0x40 DUP4 ADD DUP6 PUSH2 0x38A4 JUMP JUMPDEST PUSH2 0x3FCC PUSH1 0x60 DUP4 ADD DUP5 PUSH2 0x38A4 JUMP JUMPDEST SWAP6 SWAP5 POP POP POP POP POP JUMP INVALID LOG2 PUSH5 0x6970667358 0x22 SLT KECCAK256 0xF6 0xAF 0xB8 PUSH15 0xD3BDAF2D2BFCFAC610DA289113DD94 PUSH22 0xC8C15268D2ADD3FC0AB9761F64736F6C634300081A00 CALLER "
				},
				"gasEstimates": {
					"creation": {
						"codeDepositCost": "3279000",
						"executionCost": "infinite",
						"totalCost": "infinite"
					},
					"external": {
						"PriceCalculation(uint256,uint256)": "infinite",
						"bet(uint256,uint256)": "infinite",
						"buyShare(uint256,address)": "infinite",
						"calculateInvestment(uint256,uint256)": "infinite",
						"calculateShares(uint256,uint256)": "infinite",
						"eachUser(uint256)": "2863",
						"getInitialPrices()": "infinite",
						"marketInfo(address)": "infinite",
						"owner()": "2633",
						"readSellInfo(address,uint256)": "infinite",
						"renounceOwnership()": "infinite",
						"resolveMarket(uint256)": "infinite",
						"sellInfo(address,uint256)": "infinite",
						"sellShare(uint256,uint256,uint256)": "infinite",
						"totalUsers()": "2473",
						"transferOwnership(address)": "infinite",
						"usdcToken()": "infinite",
						"userBetOn(address,uint256)": "3186",
						"userInfo(address)": "infinite"
					},
					"internal": {
						"calculatePotentialReturn(uint256)": "infinite"
					}
				},
				"methodIdentifiers": {
					"PriceCalculation(uint256,uint256)": "21d0d9af",
					"bet(uint256,uint256)": "6ffcc719",
					"buyShare(uint256,address)": "fbea0b06",
					"calculateInvestment(uint256,uint256)": "84b5aca6",
					"calculateShares(uint256,uint256)": "b3c740e8",
					"eachUser(uint256)": "08ef962e",
					"getInitialPrices()": "208c86a4",
					"marketInfo(address)": "c4351386",
					"owner()": "8da5cb5b",
					"readSellInfo(address,uint256)": "3774ca25",
					"renounceOwnership()": "715018a6",
					"resolveMarket(uint256)": "6399d03d",
					"sellInfo(address,uint256)": "61d464ef",
					"sellShare(uint256,uint256,uint256)": "456e62ba",
					"totalUsers()": "bff1f9e1",
					"transferOwnership(address)": "f2fde38b",
					"usdcToken()": "11eac855",
					"userBetOn(address,uint256)": "0efa82f6",
					"userInfo(address)": "1959a002"
				}
			},
			"storageLayout": {
				"storage": [
					{
						"astId": 8,
						"contract": "FacctoryContract/WagerContract.sol:Market",
						"label": "_owner",
						"offset": 0,
						"slot": "0",
						"type": "t_address"
					},
					{
						"astId": 942,
						"contract": "FacctoryContract/WagerContract.sol:Market",
						"label": "usdcToken",
						"offset": 0,
						"slot": "1",
						"type": "t_contract(ERC20)799"
					},
					{
						"astId": 989,
						"contract": "FacctoryContract/WagerContract.sol:Market",
						"label": "totalUsers",
						"offset": 0,
						"slot": "2",
						"type": "t_uint256"
					},
					{
						"astId": 993,
						"contract": "FacctoryContract/WagerContract.sol:Market",
						"label": "eachUser",
						"offset": 0,
						"slot": "3",
						"type": "t_mapping(t_uint256,t_address)"
					},
					{
						"astId": 998,
						"contract": "FacctoryContract/WagerContract.sol:Market",
						"label": "userInfo",
						"offset": 0,
						"slot": "4",
						"type": "t_mapping(t_address,t_struct(UserInfo)974_storage)"
					},
					{
						"astId": 1003,
						"contract": "FacctoryContract/WagerContract.sol:Market",
						"label": "marketInfo",
						"offset": 0,
						"slot": "5",
						"type": "t_mapping(t_address,t_struct(MarketInfo)959_storage)"
					},
					{
						"astId": 1010,
						"contract": "FacctoryContract/WagerContract.sol:Market",
						"label": "sellInfo",
						"offset": 0,
						"slot": "6",
						"type": "t_mapping(t_address,t_mapping(t_uint256,t_struct(SellInfo)987_storage))"
					}
				],
				"types": {
					"t_address": {
						"encoding": "inplace",
						"label": "address",
						"numberOfBytes": "20"
					},
					"t_array(t_uint256)2_storage": {
						"base": "t_uint256",
						"encoding": "inplace",
						"label": "uint256[2]",
						"numberOfBytes": "64"
					},
					"t_bool": {
						"encoding": "inplace",
						"label": "bool",
						"numberOfBytes": "1"
					},
					"t_contract(ERC20)799": {
						"encoding": "inplace",
						"label": "contract ERC20",
						"numberOfBytes": "20"
					},
					"t_mapping(t_address,t_mapping(t_uint256,t_struct(SellInfo)987_storage))": {
						"encoding": "mapping",
						"key": "t_address",
						"label": "mapping(address => mapping(uint256 => struct Market.SellInfo))",
						"numberOfBytes": "32",
						"value": "t_mapping(t_uint256,t_struct(SellInfo)987_storage)"
					},
					"t_mapping(t_address,t_struct(MarketInfo)959_storage)": {
						"encoding": "mapping",
						"key": "t_address",
						"label": "mapping(address => struct Market.MarketInfo)",
						"numberOfBytes": "32",
						"value": "t_struct(MarketInfo)959_storage"
					},
					"t_mapping(t_address,t_struct(UserInfo)974_storage)": {
						"encoding": "mapping",
						"key": "t_address",
						"label": "mapping(address => struct Market.UserInfo)",
						"numberOfBytes": "32",
						"value": "t_struct(UserInfo)974_storage"
					},
					"t_mapping(t_uint256,t_address)": {
						"encoding": "mapping",
						"key": "t_uint256",
						"label": "mapping(uint256 => address)",
						"numberOfBytes": "32",
						"value": "t_address"
					},
					"t_mapping(t_uint256,t_bool)": {
						"encoding": "mapping",
						"key": "t_uint256",
						"label": "mapping(uint256 => bool)",
						"numberOfBytes": "32",
						"value": "t_bool"
					},
					"t_mapping(t_uint256,t_struct(SellInfo)987_storage)": {
						"encoding": "mapping",
						"key": "t_uint256",
						"label": "mapping(uint256 => struct Market.SellInfo)",
						"numberOfBytes": "32",
						"value": "t_struct(SellInfo)987_storage"
					},
					"t_struct(MarketInfo)959_storage": {
						"encoding": "inplace",
						"label": "struct Market.MarketInfo",
						"members": [
							{
								"astId": 944,
								"contract": "FacctoryContract/WagerContract.sol:Market",
								"label": "resolved",
								"offset": 0,
								"slot": "0",
								"type": "t_bool"
							},
							{
								"astId": 946,
								"contract": "FacctoryContract/WagerContract.sol:Market",
								"label": "endTime",
								"offset": 0,
								"slot": "1",
								"type": "t_uint256"
							},
							{
								"astId": 948,
								"contract": "FacctoryContract/WagerContract.sol:Market",
								"label": "totalBets",
								"offset": 0,
								"slot": "2",
								"type": "t_uint256"
							},
							{
								"astId": 950,
								"contract": "FacctoryContract/WagerContract.sol:Market",
								"label": "totalAmount",
								"offset": 0,
								"slot": "3",
								"type": "t_uint256"
							},
							{
								"astId": 954,
								"contract": "FacctoryContract/WagerContract.sol:Market",
								"label": "initialPrice",
								"offset": 0,
								"slot": "4",
								"type": "t_array(t_uint256)2_storage"
							},
							{
								"astId": 956,
								"contract": "FacctoryContract/WagerContract.sol:Market",
								"label": "totalBetsOnYes",
								"offset": 0,
								"slot": "6",
								"type": "t_uint256"
							},
							{
								"astId": 958,
								"contract": "FacctoryContract/WagerContract.sol:Market",
								"label": "totalBetsOnNo",
								"offset": 0,
								"slot": "7",
								"type": "t_uint256"
							}
						],
						"numberOfBytes": "256"
					},
					"t_struct(SellInfo)987_storage": {
						"encoding": "inplace",
						"label": "struct Market.SellInfo",
						"members": [
							{
								"astId": 976,
								"contract": "FacctoryContract/WagerContract.sol:Market",
								"label": "list",
								"offset": 0,
								"slot": "0",
								"type": "t_bool"
							},
							{
								"astId": 978,
								"contract": "FacctoryContract/WagerContract.sol:Market",
								"label": "sold",
								"offset": 1,
								"slot": "0",
								"type": "t_bool"
							},
							{
								"astId": 980,
								"contract": "FacctoryContract/WagerContract.sol:Market",
								"label": "owner",
								"offset": 2,
								"slot": "0",
								"type": "t_address"
							},
							{
								"astId": 982,
								"contract": "FacctoryContract/WagerContract.sol:Market",
								"label": "price",
								"offset": 0,
								"slot": "1",
								"type": "t_uint256"
							},
							{
								"astId": 984,
								"contract": "FacctoryContract/WagerContract.sol:Market",
								"label": "amount",
								"offset": 0,
								"slot": "2",
								"type": "t_uint256"
							},
							{
								"astId": 986,
								"contract": "FacctoryContract/WagerContract.sol:Market",
								"label": "listOn",
								"offset": 0,
								"slot": "3",
								"type": "t_uint256"
							}
						],
						"numberOfBytes": "128"
					},
					"t_struct(UserInfo)974_storage": {
						"encoding": "inplace",
						"label": "struct Market.UserInfo",
						"members": [
							{
								"astId": 961,
								"contract": "FacctoryContract/WagerContract.sol:Market",
								"label": "listNo",
								"offset": 0,
								"slot": "0",
								"type": "t_uint256"
							},
							{
								"astId": 963,
								"contract": "FacctoryContract/WagerContract.sol:Market",
								"label": "noBetAmount",
								"offset": 0,
								"slot": "1",
								"type": "t_uint256"
							},
							{
								"astId": 965,
								"contract": "FacctoryContract/WagerContract.sol:Market",
								"label": "rewardAmount",
								"offset": 0,
								"slot": "2",
								"type": "t_uint256"
							},
							{
								"astId": 967,
								"contract": "FacctoryContract/WagerContract.sol:Market",
								"label": "yesBetAmount",
								"offset": 0,
								"slot": "3",
								"type": "t_uint256"
							},
							{
								"astId": 969,
								"contract": "FacctoryContract/WagerContract.sol:Market",
								"label": "shareAmount",
								"offset": 0,
								"slot": "4",
								"type": "t_uint256"
							},
							{
								"astId": 973,
								"contract": "FacctoryContract/WagerContract.sol:Market",
								"label": "betOn",
								"offset": 0,
								"slot": "5",
								"type": "t_mapping(t_uint256,t_bool)"
							}
						],
						"numberOfBytes": "192"
					},
					"t_uint256": {
						"encoding": "inplace",
						"label": "uint256",
						"numberOfBytes": "32"
					}
				}
			},
			"userdoc": {
				"kind": "user",
				"methods": {},
				"version": 1
			}
		}
	}
}