{
	"FacctoryContract/WagerContract.sol": {
		"Market": {
			"abi": [
				{
					"inputs": [
						{
							"internalType": "address",
							"name": "initialOwner",
							"type": "address"
						},
						{
							"internalType": "address",
							"name": "_usdcToken",
							"type": "address"
						},
						{
							"internalType": "uint256",
							"name": "_endTime",
							"type": "uint256"
						}
					],
					"stateMutability": "nonpayable",
					"type": "constructor"
				},
				{
					"inputs": [
						{
							"internalType": "address",
							"name": "owner",
							"type": "address"
						}
					],
					"name": "OwnableInvalidOwner",
					"type": "error"
				},
				{
					"inputs": [
						{
							"internalType": "address",
							"name": "account",
							"type": "address"
						}
					],
					"name": "OwnableUnauthorizedAccount",
					"type": "error"
				},
				{
					"inputs": [
						{
							"internalType": "bool",
							"name": "sold",
							"type": "bool"
						}
					],
					"name": "alreadySold",
					"type": "error"
				},
				{
					"inputs": [],
					"name": "marketResolved",
					"type": "error"
				},
				{
					"inputs": [
						{
							"internalType": "bool",
							"name": "beted",
							"type": "bool"
						}
					],
					"name": "notBet",
					"type": "error"
				},
				{
					"inputs": [
						{
							"internalType": "uint256",
							"name": "listNo",
							"type": "uint256"
						}
					],
					"name": "notListed",
					"type": "error"
				},
				{
					"inputs": [
						{
							"internalType": "uint256",
							"name": "amount",
							"type": "uint256"
						}
					],
					"name": "wrongAmount",
					"type": "error"
				},
				{
					"inputs": [
						{
							"internalType": "uint256",
							"name": "betIndex",
							"type": "uint256"
						}
					],
					"name": "wrongBetIndex",
					"type": "error"
				},
				{
					"inputs": [
						{
							"internalType": "address",
							"name": "owner",
							"type": "address"
						}
					],
					"name": "wrongOwner",
					"type": "error"
				},
				{
					"inputs": [
						{
							"internalType": "uint256",
							"name": "price",
							"type": "uint256"
						}
					],
					"name": "wrongPrice",
					"type": "error"
				},
				{
					"anonymous": false,
					"inputs": [
						{
							"indexed": true,
							"internalType": "address",
							"name": "user",
							"type": "address"
						},
						{
							"indexed": true,
							"internalType": "uint256",
							"name": "_amount",
							"type": "uint256"
						},
						{
							"indexed": false,
							"internalType": "uint256",
							"name": "_betOn",
							"type": "uint256"
						}
					],
					"name": "Bet",
					"type": "event"
				},
				{
					"anonymous": false,
					"inputs": [
						{
							"indexed": false,
							"internalType": "address",
							"name": "buyer",
							"type": "address"
						},
						{
							"indexed": false,
							"internalType": "address",
							"name": "seller",
							"type": "address"
						},
						{
							"indexed": false,
							"internalType": "uint256",
							"name": "_amountBBuyed",
							"type": "uint256"
						},
						{
							"indexed": false,
							"internalType": "uint256",
							"name": "onPrice",
							"type": "uint256"
						}
					],
					"name": "BuyShare",
					"type": "event"
				},
				{
					"anonymous": false,
					"inputs": [
						{
							"indexed": true,
							"internalType": "address",
							"name": "previousOwner",
							"type": "address"
						},
						{
							"indexed": true,
							"internalType": "address",
							"name": "newOwner",
							"type": "address"
						}
					],
					"name": "OwnershipTransferred",
					"type": "event"
				},
				{
					"anonymous": false,
					"inputs": [
						{
							"indexed": false,
							"internalType": "address",
							"name": "ownerAddress",
							"type": "address"
						},
						{
							"indexed": false,
							"internalType": "uint256",
							"name": "ownerAmount",
							"type": "uint256"
						},
						{
							"indexed": false,
							"internalType": "uint256",
							"name": "perShareAmount",
							"type": "uint256"
						},
						{
							"indexed": false,
							"internalType": "uint256",
							"name": "winningIndex",
							"type": "uint256"
						}
					],
					"name": "ResolveMarket",
					"type": "event"
				},
				{
					"anonymous": false,
					"inputs": [
						{
							"indexed": true,
							"internalType": "address",
							"name": "user",
							"type": "address"
						},
						{
							"indexed": false,
							"internalType": "uint256",
							"name": "listNo",
							"type": "uint256"
						},
						{
							"indexed": false,
							"internalType": "uint256",
							"name": "onPrice",
							"type": "uint256"
						}
					],
					"name": "SellShare",
					"type": "event"
				},
				{
					"inputs": [
						{
							"internalType": "uint256",
							"name": "totalBetsOnNo",
							"type": "uint256"
						},
						{
							"internalType": "uint256",
							"name": "totalBetsOnYes",
							"type": "uint256"
						}
					],
					"name": "PriceCalculation",
					"outputs": [
						{
							"internalType": "uint256",
							"name": "",
							"type": "uint256"
						},
						{
							"internalType": "uint256",
							"name": "",
							"type": "uint256"
						}
					],
					"stateMutability": "view",
					"type": "function"
				},
				{
					"inputs": [
						{
							"internalType": "uint256",
							"name": "_amount",
							"type": "uint256"
						},
						{
							"internalType": "uint256",
							"name": "_betOn",
							"type": "uint256"
						}
					],
					"name": "bet",
					"outputs": [],
					"stateMutability": "nonpayable",
					"type": "function"
				},
				{
					"inputs": [
						{
							"internalType": "uint256",
							"name": "_listNo",
							"type": "uint256"
						},
						{
							"internalType": "address",
							"name": "_owner",
							"type": "address"
						}
					],
					"name": "buyShare",
					"outputs": [],
					"stateMutability": "nonpayable",
					"type": "function"
				},
				{
					"inputs": [
						{
							"internalType": "uint256",
							"name": "shares",
							"type": "uint256"
						},
						{
							"internalType": "uint256",
							"name": "_betOn",
							"type": "uint256"
						}
					],
					"name": "calculateInvestment",
					"outputs": [
						{
							"internalType": "uint256",
							"name": "",
							"type": "uint256"
						}
					],
					"stateMutability": "view",
					"type": "function"
				},
				{
					"inputs": [
						{
							"internalType": "uint256",
							"name": "_amount",
							"type": "uint256"
						},
						{
							"internalType": "uint256",
							"name": "_betOn",
							"type": "uint256"
						}
					],
					"name": "calculateShares",
					"outputs": [
						{
							"internalType": "uint256",
							"name": "",
							"type": "uint256"
						}
					],
					"stateMutability": "view",
					"type": "function"
				},
				{
					"inputs": [
						{
							"internalType": "uint256",
							"name": "",
							"type": "uint256"
						}
					],
					"name": "eachUser",
					"outputs": [
						{
							"internalType": "address",
							"name": "",
							"type": "address"
						}
					],
					"stateMutability": "view",
					"type": "function"
				},
				{
					"inputs": [],
					"name": "getInitialPrices",
					"outputs": [
						{
							"internalType": "uint256",
							"name": "",
							"type": "uint256"
						},
						{
							"internalType": "uint256",
							"name": "",
							"type": "uint256"
						}
					],
					"stateMutability": "view",
					"type": "function"
				},
				{
					"inputs": [
						{
							"internalType": "address",
							"name": "",
							"type": "address"
						}
					],
					"name": "marketInfo",
					"outputs": [
						{
							"internalType": "bool",
							"name": "resolved",
							"type": "bool"
						},
						{
							"internalType": "uint256",
							"name": "endTime",
							"type": "uint256"
						},
						{
							"internalType": "uint256",
							"name": "totalBets",
							"type": "uint256"
						},
						{
							"internalType": "uint256",
							"name": "totalAmount",
							"type": "uint256"
						},
						{
							"internalType": "uint256",
							"name": "totalBetsOnYes",
							"type": "uint256"
						},
						{
							"internalType": "uint256",
							"name": "totalBetsOnNo",
							"type": "uint256"
						}
					],
					"stateMutability": "view",
					"type": "function"
				},
				{
					"inputs": [],
					"name": "owner",
					"outputs": [
						{
							"internalType": "address",
							"name": "",
							"type": "address"
						}
					],
					"stateMutability": "view",
					"type": "function"
				},
				{
					"inputs": [
						{
							"internalType": "address",
							"name": "_market",
							"type": "address"
						}
					],
					"name": "readMarketInfo",
					"outputs": [
						{
							"internalType": "uint256",
							"name": "endTime",
							"type": "uint256"
						},
						{
							"internalType": "uint256",
							"name": "totalBets",
							"type": "uint256"
						},
						{
							"internalType": "uint256",
							"name": "totalAmount",
							"type": "uint256"
						},
						{
							"internalType": "uint256",
							"name": "initialPriceYes",
							"type": "uint256"
						},
						{
							"internalType": "uint256",
							"name": "initialPriceNo",
							"type": "uint256"
						},
						{
							"internalType": "uint256",
							"name": "totalBetsOnYes",
							"type": "uint256"
						},
						{
							"internalType": "uint256",
							"name": "totalBetsOnNo",
							"type": "uint256"
						}
					],
					"stateMutability": "view",
					"type": "function"
				},
				{
					"inputs": [
						{
							"internalType": "address",
							"name": "_owner",
							"type": "address"
						},
						{
							"internalType": "uint256",
							"name": "_id",
							"type": "uint256"
						}
					],
					"name": "readSellInfo",
					"outputs": [
						{
							"internalType": "bool",
							"name": "list",
							"type": "bool"
						},
						{
							"internalType": "bool",
							"name": "sold",
							"type": "bool"
						},
						{
							"internalType": "address",
							"name": "owner",
							"type": "address"
						},
						{
							"internalType": "uint256",
							"name": "price",
							"type": "uint256"
						},
						{
							"internalType": "uint256",
							"name": "amount",
							"type": "uint256"
						},
						{
							"internalType": "uint256",
							"name": "listOn",
							"type": "uint256"
						}
					],
					"stateMutability": "view",
					"type": "function"
				},
				{
					"inputs": [
						{
							"internalType": "address",
							"name": "_user",
							"type": "address"
						}
					],
					"name": "readUserInfo",
					"outputs": [
						{
							"internalType": "uint256",
							"name": "listNo",
							"type": "uint256"
						},
						{
							"internalType": "uint256",
							"name": "noBetAmount",
							"type": "uint256"
						},
						{
							"internalType": "uint256",
							"name": "rewardAmount",
							"type": "uint256"
						},
						{
							"internalType": "uint256",
							"name": "yesBetAmount",
							"type": "uint256"
						},
						{
							"internalType": "uint256",
							"name": "shareAmount",
							"type": "uint256"
						}
					],
					"stateMutability": "view",
					"type": "function"
				},
				{
					"inputs": [],
					"name": "renounceOwnership",
					"outputs": [],
					"stateMutability": "nonpayable",
					"type": "function"
				},
				{
					"inputs": [
						{
							"internalType": "uint256",
							"name": "winningIndex",
							"type": "uint256"
						}
					],
					"name": "resolveMarket",
					"outputs": [],
					"stateMutability": "nonpayable",
					"type": "function"
				},
				{
					"inputs": [
						{
							"internalType": "address",
							"name": "",
							"type": "address"
						},
						{
							"internalType": "uint256",
							"name": "",
							"type": "uint256"
						}
					],
					"name": "sellInfo",
					"outputs": [
						{
							"internalType": "bool",
							"name": "list",
							"type": "bool"
						},
						{
							"internalType": "bool",
							"name": "sold",
							"type": "bool"
						},
						{
							"internalType": "address",
							"name": "owner",
							"type": "address"
						},
						{
							"internalType": "uint256",
							"name": "price",
							"type": "uint256"
						},
						{
							"internalType": "uint256",
							"name": "amount",
							"type": "uint256"
						},
						{
							"internalType": "uint256",
							"name": "listOn",
							"type": "uint256"
						}
					],
					"stateMutability": "view",
					"type": "function"
				},
				{
					"inputs": [
						{
							"internalType": "uint256",
							"name": "_amount",
							"type": "uint256"
						},
						{
							"internalType": "uint256",
							"name": "_price",
							"type": "uint256"
						},
						{
							"internalType": "uint256",
							"name": "_sellOf",
							"type": "uint256"
						}
					],
					"name": "sellShare",
					"outputs": [],
					"stateMutability": "nonpayable",
					"type": "function"
				},
				{
					"inputs": [],
					"name": "totalUsers",
					"outputs": [
						{
							"internalType": "uint256",
							"name": "",
							"type": "uint256"
						}
					],
					"stateMutability": "view",
					"type": "function"
				},
				{
					"inputs": [
						{
							"internalType": "address",
							"name": "newOwner",
							"type": "address"
						}
					],
					"name": "transferOwnership",
					"outputs": [],
					"stateMutability": "nonpayable",
					"type": "function"
				},
				{
					"inputs": [],
					"name": "usdcToken",
					"outputs": [
						{
							"internalType": "contract ERC20",
							"name": "",
							"type": "address"
						}
					],
					"stateMutability": "view",
					"type": "function"
				},
				{
					"inputs": [
						{
							"internalType": "address",
							"name": "_user",
							"type": "address"
						},
						{
							"internalType": "uint256",
							"name": "_betIndex",
							"type": "uint256"
						}
					],
					"name": "userBetOn",
					"outputs": [
						{
							"internalType": "bool",
							"name": "",
							"type": "bool"
						}
					],
					"stateMutability": "view",
					"type": "function"
				},
				{
					"inputs": [
						{
							"internalType": "address",
							"name": "",
							"type": "address"
						}
					],
					"name": "userInfo",
					"outputs": [
						{
							"internalType": "uint256",
							"name": "listNo",
							"type": "uint256"
						},
						{
							"internalType": "uint256",
							"name": "noBetAmount",
							"type": "uint256"
						},
						{
							"internalType": "uint256",
							"name": "rewardAmount",
							"type": "uint256"
						},
						{
							"internalType": "uint256",
							"name": "yesBetAmount",
							"type": "uint256"
						},
						{
							"internalType": "uint256",
							"name": "shareAmount",
							"type": "uint256"
						}
					],
					"stateMutability": "view",
					"type": "function"
				}
			],
			"devdoc": {
				"errors": {
					"OwnableInvalidOwner(address)": [
						{
							"details": "The owner is not a valid owner account. (eg. `address(0)`)"
						}
					],
					"OwnableUnauthorizedAccount(address)": [
						{
							"details": "The caller account is not authorized to perform an operation."
						}
					]
				},
				"kind": "dev",
				"methods": {
					"owner()": {
						"details": "Returns the address of the current owner."
					},
					"renounceOwnership()": {
						"details": "Leaves the contract without owner. It will not be possible to call `onlyOwner` functions. Can only be called by the current owner. NOTE: Renouncing ownership will leave the contract without an owner, thereby disabling any functionality that is only available to the owner."
					},
					"transferOwnership(address)": {
						"details": "Transfers ownership of the contract to a new account (`newOwner`). Can only be called by the current owner."
					}
				},
				"version": 1
			},
			"evm": {
				"assembly": "    /* \"FacctoryContract/WagerContract.sol\":218:12177  contract Market is Ownable {... */\n  mstore(0x40, 0x80)\n    /* \"FacctoryContract/WagerContract.sol\":1791:2182  constructor(... */\n  callvalue\n  dup1\n  iszero\n  tag_1\n  jumpi\n  0x00\n  dup1\n  revert\ntag_1:\n  pop\n  mload(0x40)\n  sub(codesize, bytecodeSize)\n  dup1\n  bytecodeSize\n  dup4\n  codecopy\n  dup2\n  dup2\n  add\n  0x40\n  mstore\n  dup2\n  add\n  swap1\n  tag_2\n  swap2\n  swap1\n  tag_3\n  jump\t// in\ntag_2:\n    /* \"FacctoryContract/WagerContract.sol\":1907:1919  initialOwner */\n  dup3\n    /* \"@openzeppelin/contracts/access/Ownable.sol\":1297:1298  0 */\n  0x00\n    /* \"@openzeppelin/contracts/access/Ownable.sol\":1273:1299  initialOwner == address(0) */\n  0xffffffffffffffffffffffffffffffffffffffff\n  and\n    /* \"@openzeppelin/contracts/access/Ownable.sol\":1273:1285  initialOwner */\n  dup2\n    /* \"@openzeppelin/contracts/access/Ownable.sol\":1273:1299  initialOwner == address(0) */\n  0xffffffffffffffffffffffffffffffffffffffff\n  and\n  sub\n    /* \"@openzeppelin/contracts/access/Ownable.sol\":1269:1364  if (initialOwner == address(0)) {... */\n  tag_7\n  jumpi\n    /* \"@openzeppelin/contracts/access/Ownable.sol\":1350:1351  0 */\n  0x00\n    /* \"@openzeppelin/contracts/access/Ownable.sol\":1322:1353  OwnableInvalidOwner(address(0)) */\n  mload(0x40)\n  0x1e4fbdf700000000000000000000000000000000000000000000000000000000\n  dup2\n  mstore\n  0x04\n  add\n  tag_8\n  swap2\n  swap1\n  tag_9\n  jump\t// in\ntag_8:\n  mload(0x40)\n  dup1\n  swap2\n  sub\n  swap1\n  revert\n    /* \"@openzeppelin/contracts/access/Ownable.sol\":1269:1364  if (initialOwner == address(0)) {... */\ntag_7:\n    /* \"@openzeppelin/contracts/access/Ownable.sol\":1373:1405  _transferOwnership(initialOwner) */\n  tag_10\n    /* \"@openzeppelin/contracts/access/Ownable.sol\":1392:1404  initialOwner */\n  dup2\n    /* \"@openzeppelin/contracts/access/Ownable.sol\":1373:1391  _transferOwnership */\n  shl(0x20, tag_11)\n    /* \"@openzeppelin/contracts/access/Ownable.sol\":1373:1405  _transferOwnership(initialOwner) */\n  0x20\n  shr\n  jump\t// in\ntag_10:\n    /* \"@openzeppelin/contracts/access/Ownable.sol\":1225:1412  constructor(address initialOwner) {... */\n  pop\n    /* \"FacctoryContract/WagerContract.sol\":1972:1980  _endTime */\n  dup1\n    /* \"FacctoryContract/WagerContract.sol\":1936:1946  marketInfo */\n  0x05\n    /* \"FacctoryContract/WagerContract.sol\":1936:1961  marketInfo[address(this)] */\n  0x00\n    /* \"FacctoryContract/WagerContract.sol\":1955:1959  this */\n  address\n    /* \"FacctoryContract/WagerContract.sol\":1936:1961  marketInfo[address(this)] */\n  0xffffffffffffffffffffffffffffffffffffffff\n  and\n  0xffffffffffffffffffffffffffffffffffffffff\n  and\n  dup2\n  mstore\n  0x20\n  add\n  swap1\n  dup2\n  mstore\n  0x20\n  add\n  0x00\n  keccak256\n    /* \"FacctoryContract/WagerContract.sol\":1936:1969  marketInfo[address(this)].endTime */\n  0x01\n  add\n    /* \"FacctoryContract/WagerContract.sol\":1936:1980  marketInfo[address(this)].endTime = _endTime */\n  dup2\n  swap1\n  sstore\n  pop\n    /* \"FacctoryContract/WagerContract.sol\":2038:2056  500000000000000000 */\n  0x06f05b59d3b20000\n    /* \"FacctoryContract/WagerContract.sol\":1994:2004  marketInfo */\n  0x05\n    /* \"FacctoryContract/WagerContract.sol\":1994:2019  marketInfo[address(this)] */\n  0x00\n    /* \"FacctoryContract/WagerContract.sol\":2013:2017  this */\n  address\n    /* \"FacctoryContract/WagerContract.sol\":1994:2019  marketInfo[address(this)] */\n  0xffffffffffffffffffffffffffffffffffffffff\n  and\n  0xffffffffffffffffffffffffffffffffffffffff\n  and\n  dup2\n  mstore\n  0x20\n  add\n  swap1\n  dup2\n  mstore\n  0x20\n  add\n  0x00\n  keccak256\n    /* \"FacctoryContract/WagerContract.sol\":1994:2032  marketInfo[address(this)].initialPrice */\n  0x04\n  add\n    /* \"FacctoryContract/WagerContract.sol\":2033:2034  0 */\n  0x00\n    /* \"FacctoryContract/WagerContract.sol\":1994:2035  marketInfo[address(this)].initialPrice[0] */\n  0x02\n  dup2\n  lt\n  tag_13\n  jumpi\n  tag_14\n  tag_15\n  jump\t// in\ntag_14:\ntag_13:\n  add\n    /* \"FacctoryContract/WagerContract.sol\":1994:2056  marketInfo[address(this)].initialPrice[0] = 500000000000000000 */\n  dup2\n  swap1\n  sstore\n  pop\n    /* \"FacctoryContract/WagerContract.sol\":2114:2132  500000000000000000 */\n  0x06f05b59d3b20000\n    /* \"FacctoryContract/WagerContract.sol\":2070:2080  marketInfo */\n  0x05\n    /* \"FacctoryContract/WagerContract.sol\":2070:2095  marketInfo[address(this)] */\n  0x00\n    /* \"FacctoryContract/WagerContract.sol\":2089:2093  this */\n  address\n    /* \"FacctoryContract/WagerContract.sol\":2070:2095  marketInfo[address(this)] */\n  0xffffffffffffffffffffffffffffffffffffffff\n  and\n  0xffffffffffffffffffffffffffffffffffffffff\n  and\n  dup2\n  mstore\n  0x20\n  add\n  swap1\n  dup2\n  mstore\n  0x20\n  add\n  0x00\n  keccak256\n    /* \"FacctoryContract/WagerContract.sol\":2070:2108  marketInfo[address(this)].initialPrice */\n  0x04\n  add\n    /* \"FacctoryContract/WagerContract.sol\":2109:2110  1 */\n  0x01\n    /* \"FacctoryContract/WagerContract.sol\":2070:2111  marketInfo[address(this)].initialPrice[1] */\n  0x02\n  dup2\n  lt\n  tag_17\n  jumpi\n  tag_18\n  tag_15\n  jump\t// in\ntag_18:\ntag_17:\n  add\n    /* \"FacctoryContract/WagerContract.sol\":2070:2132  marketInfo[address(this)].initialPrice[1] = 500000000000000000 */\n  dup2\n  swap1\n  sstore\n  pop\n    /* \"FacctoryContract/WagerContract.sol\":2164:2174  _usdcToken */\n  dup2\n    /* \"FacctoryContract/WagerContract.sol\":2146:2155  usdcToken */\n  0x01\n  0x00\n    /* \"FacctoryContract/WagerContract.sol\":2146:2175  usdcToken = ERC20(_usdcToken) */\n  0x0100\n  exp\n  dup2\n  sload\n  dup2\n  0xffffffffffffffffffffffffffffffffffffffff\n  mul\n  not\n  and\n  swap1\n  dup4\n  0xffffffffffffffffffffffffffffffffffffffff\n  and\n  mul\n  or\n  swap1\n  sstore\n  pop\n    /* \"FacctoryContract/WagerContract.sol\":1791:2182  constructor(... */\n  pop\n  pop\n  pop\n    /* \"FacctoryContract/WagerContract.sol\":218:12177  contract Market is Ownable {... */\n  jump(tag_20)\n    /* \"@openzeppelin/contracts/access/Ownable.sol\":2912:3099  function _transferOwnership(address newOwner) internal virtual {... */\ntag_11:\n    /* \"@openzeppelin/contracts/access/Ownable.sol\":2985:3001  address oldOwner */\n  0x00\n    /* \"@openzeppelin/contracts/access/Ownable.sol\":3004:3010  _owner */\n  dup1\n  0x00\n  swap1\n  sload\n  swap1\n  0x0100\n  exp\n  swap1\n  div\n  0xffffffffffffffffffffffffffffffffffffffff\n  and\n    /* \"@openzeppelin/contracts/access/Ownable.sol\":2985:3010  address oldOwner = _owner */\n  swap1\n  pop\n    /* \"@openzeppelin/contracts/access/Ownable.sol\":3029:3037  newOwner */\n  dup2\n    /* \"@openzeppelin/contracts/access/Ownable.sol\":3020:3026  _owner */\n  0x00\n  dup1\n    /* \"@openzeppelin/contracts/access/Ownable.sol\":3020:3037  _owner = newOwner */\n  0x0100\n  exp\n  dup2\n  sload\n  dup2\n  0xffffffffffffffffffffffffffffffffffffffff\n  mul\n  not\n  and\n  swap1\n  dup4\n  0xffffffffffffffffffffffffffffffffffffffff\n  and\n  mul\n  or\n  swap1\n  sstore\n  pop\n    /* \"@openzeppelin/contracts/access/Ownable.sol\":3083:3091  newOwner */\n  dup2\n    /* \"@openzeppelin/contracts/access/Ownable.sol\":3052:3092  OwnershipTransferred(oldOwner, newOwner) */\n  0xffffffffffffffffffffffffffffffffffffffff\n  and\n    /* \"@openzeppelin/contracts/access/Ownable.sol\":3073:3081  oldOwner */\n  dup2\n    /* \"@openzeppelin/contracts/access/Ownable.sol\":3052:3092  OwnershipTransferred(oldOwner, newOwner) */\n  0xffffffffffffffffffffffffffffffffffffffff\n  and\n  0x8be0079c531659141344cd1fd0a4f28419497f9722a3daafe3b4186f6b6457e0\n  mload(0x40)\n  mload(0x40)\n  dup1\n  swap2\n  sub\n  swap1\n  log3\n    /* \"@openzeppelin/contracts/access/Ownable.sol\":2975:3099  {... */\n  pop\n    /* \"@openzeppelin/contracts/access/Ownable.sol\":2912:3099  function _transferOwnership(address newOwner) internal virtual {... */\n  pop\n  jump\t// out\n    /* \"#utility.yul\":88:205   */\ntag_23:\n    /* \"#utility.yul\":197:198   */\n  0x00\n    /* \"#utility.yul\":194:195   */\n  dup1\n    /* \"#utility.yul\":187:199   */\n  revert\n    /* \"#utility.yul\":334:460   */\ntag_25:\n    /* \"#utility.yul\":371:378   */\n  0x00\n    /* \"#utility.yul\":411:453   */\n  0xffffffffffffffffffffffffffffffffffffffff\n    /* \"#utility.yul\":404:409   */\n  dup3\n    /* \"#utility.yul\":400:454   */\n  and\n    /* \"#utility.yul\":389:454   */\n  swap1\n  pop\n    /* \"#utility.yul\":334:460   */\n  swap2\n  swap1\n  pop\n  jump\t// out\n    /* \"#utility.yul\":466:562   */\ntag_26:\n    /* \"#utility.yul\":503:510   */\n  0x00\n    /* \"#utility.yul\":532:556   */\n  tag_39\n    /* \"#utility.yul\":550:555   */\n  dup3\n    /* \"#utility.yul\":532:556   */\n  tag_25\n  jump\t// in\ntag_39:\n    /* \"#utility.yul\":521:556   */\n  swap1\n  pop\n    /* \"#utility.yul\":466:562   */\n  swap2\n  swap1\n  pop\n  jump\t// out\n    /* \"#utility.yul\":568:690   */\ntag_27:\n    /* \"#utility.yul\":641:665   */\n  tag_41\n    /* \"#utility.yul\":659:664   */\n  dup2\n    /* \"#utility.yul\":641:665   */\n  tag_26\n  jump\t// in\ntag_41:\n    /* \"#utility.yul\":634:639   */\n  dup2\n    /* \"#utility.yul\":631:666   */\n  eq\n    /* \"#utility.yul\":621:684   */\n  tag_42\n  jumpi\n    /* \"#utility.yul\":680:681   */\n  0x00\n    /* \"#utility.yul\":677:678   */\n  dup1\n    /* \"#utility.yul\":670:682   */\n  revert\n    /* \"#utility.yul\":621:684   */\ntag_42:\n    /* \"#utility.yul\":568:690   */\n  pop\n  jump\t// out\n    /* \"#utility.yul\":696:839   */\ntag_28:\n    /* \"#utility.yul\":753:758   */\n  0x00\n    /* \"#utility.yul\":784:790   */\n  dup2\n    /* \"#utility.yul\":778:791   */\n  mload\n    /* \"#utility.yul\":769:791   */\n  swap1\n  pop\n    /* \"#utility.yul\":800:833   */\n  tag_44\n    /* \"#utility.yul\":827:832   */\n  dup2\n    /* \"#utility.yul\":800:833   */\n  tag_27\n  jump\t// in\ntag_44:\n    /* \"#utility.yul\":696:839   */\n  swap3\n  swap2\n  pop\n  pop\n  jump\t// out\n    /* \"#utility.yul\":845:922   */\ntag_29:\n    /* \"#utility.yul\":882:889   */\n  0x00\n    /* \"#utility.yul\":911:916   */\n  dup2\n    /* \"#utility.yul\":900:916   */\n  swap1\n  pop\n    /* \"#utility.yul\":845:922   */\n  swap2\n  swap1\n  pop\n  jump\t// out\n    /* \"#utility.yul\":928:1050   */\ntag_30:\n    /* \"#utility.yul\":1001:1025   */\n  tag_47\n    /* \"#utility.yul\":1019:1024   */\n  dup2\n    /* \"#utility.yul\":1001:1025   */\n  tag_29\n  jump\t// in\ntag_47:\n    /* \"#utility.yul\":994:999   */\n  dup2\n    /* \"#utility.yul\":991:1026   */\n  eq\n    /* \"#utility.yul\":981:1044   */\n  tag_48\n  jumpi\n    /* \"#utility.yul\":1040:1041   */\n  0x00\n    /* \"#utility.yul\":1037:1038   */\n  dup1\n    /* \"#utility.yul\":1030:1042   */\n  revert\n    /* \"#utility.yul\":981:1044   */\ntag_48:\n    /* \"#utility.yul\":928:1050   */\n  pop\n  jump\t// out\n    /* \"#utility.yul\":1056:1199   */\ntag_31:\n    /* \"#utility.yul\":1113:1118   */\n  0x00\n    /* \"#utility.yul\":1144:1150   */\n  dup2\n    /* \"#utility.yul\":1138:1151   */\n  mload\n    /* \"#utility.yul\":1129:1151   */\n  swap1\n  pop\n    /* \"#utility.yul\":1160:1193   */\n  tag_50\n    /* \"#utility.yul\":1187:1192   */\n  dup2\n    /* \"#utility.yul\":1160:1193   */\n  tag_30\n  jump\t// in\ntag_50:\n    /* \"#utility.yul\":1056:1199   */\n  swap3\n  swap2\n  pop\n  pop\n  jump\t// out\n    /* \"#utility.yul\":1205:1868   */\ntag_3:\n    /* \"#utility.yul\":1293:1299   */\n  0x00\n    /* \"#utility.yul\":1301:1307   */\n  dup1\n    /* \"#utility.yul\":1309:1315   */\n  0x00\n    /* \"#utility.yul\":1358:1360   */\n  0x60\n    /* \"#utility.yul\":1346:1355   */\n  dup5\n    /* \"#utility.yul\":1337:1344   */\n  dup7\n    /* \"#utility.yul\":1333:1356   */\n  sub\n    /* \"#utility.yul\":1329:1361   */\n  slt\n    /* \"#utility.yul\":1326:1445   */\n  iszero\n  tag_52\n  jumpi\n    /* \"#utility.yul\":1364:1443   */\n  tag_53\n  tag_23\n  jump\t// in\ntag_53:\n    /* \"#utility.yul\":1326:1445   */\ntag_52:\n    /* \"#utility.yul\":1484:1485   */\n  0x00\n    /* \"#utility.yul\":1509:1573   */\n  tag_54\n    /* \"#utility.yul\":1565:1572   */\n  dup7\n    /* \"#utility.yul\":1556:1562   */\n  dup3\n    /* \"#utility.yul\":1545:1554   */\n  dup8\n    /* \"#utility.yul\":1541:1563   */\n  add\n    /* \"#utility.yul\":1509:1573   */\n  tag_28\n  jump\t// in\ntag_54:\n    /* \"#utility.yul\":1499:1573   */\n  swap4\n  pop\n    /* \"#utility.yul\":1455:1583   */\n  pop\n    /* \"#utility.yul\":1622:1624   */\n  0x20\n    /* \"#utility.yul\":1648:1712   */\n  tag_55\n    /* \"#utility.yul\":1704:1711   */\n  dup7\n    /* \"#utility.yul\":1695:1701   */\n  dup3\n    /* \"#utility.yul\":1684:1693   */\n  dup8\n    /* \"#utility.yul\":1680:1702   */\n  add\n    /* \"#utility.yul\":1648:1712   */\n  tag_28\n  jump\t// in\ntag_55:\n    /* \"#utility.yul\":1638:1712   */\n  swap3\n  pop\n    /* \"#utility.yul\":1593:1722   */\n  pop\n    /* \"#utility.yul\":1761:1763   */\n  0x40\n    /* \"#utility.yul\":1787:1851   */\n  tag_56\n    /* \"#utility.yul\":1843:1850   */\n  dup7\n    /* \"#utility.yul\":1834:1840   */\n  dup3\n    /* \"#utility.yul\":1823:1832   */\n  dup8\n    /* \"#utility.yul\":1819:1841   */\n  add\n    /* \"#utility.yul\":1787:1851   */\n  tag_31\n  jump\t// in\ntag_56:\n    /* \"#utility.yul\":1777:1851   */\n  swap2\n  pop\n    /* \"#utility.yul\":1732:1861   */\n  pop\n    /* \"#utility.yul\":1205:1868   */\n  swap3\n  pop\n  swap3\n  pop\n  swap3\n  jump\t// out\n    /* \"#utility.yul\":1874:1992   */\ntag_32:\n    /* \"#utility.yul\":1961:1985   */\n  tag_58\n    /* \"#utility.yul\":1979:1984   */\n  dup2\n    /* \"#utility.yul\":1961:1985   */\n  tag_26\n  jump\t// in\ntag_58:\n    /* \"#utility.yul\":1956:1959   */\n  dup3\n    /* \"#utility.yul\":1949:1986   */\n  mstore\n    /* \"#utility.yul\":1874:1992   */\n  pop\n  pop\n  jump\t// out\n    /* \"#utility.yul\":1998:2220   */\ntag_9:\n    /* \"#utility.yul\":2091:2095   */\n  0x00\n    /* \"#utility.yul\":2129:2131   */\n  0x20\n    /* \"#utility.yul\":2118:2127   */\n  dup3\n    /* \"#utility.yul\":2114:2132   */\n  add\n    /* \"#utility.yul\":2106:2132   */\n  swap1\n  pop\n    /* \"#utility.yul\":2142:2213   */\n  tag_60\n    /* \"#utility.yul\":2210:2211   */\n  0x00\n    /* \"#utility.yul\":2199:2208   */\n  dup4\n    /* \"#utility.yul\":2195:2212   */\n  add\n    /* \"#utility.yul\":2186:2192   */\n  dup5\n    /* \"#utility.yul\":2142:2213   */\n  tag_32\n  jump\t// in\ntag_60:\n    /* \"#utility.yul\":1998:2220   */\n  swap3\n  swap2\n  pop\n  pop\n  jump\t// out\n    /* \"#utility.yul\":2226:2406   */\ntag_15:\n    /* \"#utility.yul\":2274:2351   */\n  0x4e487b7100000000000000000000000000000000000000000000000000000000\n    /* \"#utility.yul\":2271:2272   */\n  0x00\n    /* \"#utility.yul\":2264:2352   */\n  mstore\n    /* \"#utility.yul\":2371:2375   */\n  0x32\n    /* \"#utility.yul\":2368:2369   */\n  0x04\n    /* \"#utility.yul\":2361:2376   */\n  mstore\n    /* \"#utility.yul\":2395:2399   */\n  0x24\n    /* \"#utility.yul\":2392:2393   */\n  0x00\n    /* \"#utility.yul\":2385:2400   */\n  revert\n    /* \"FacctoryContract/WagerContract.sol\":218:12177  contract Market is Ownable {... */\ntag_20:\n  dataSize(sub_0)\n  dup1\n  dataOffset(sub_0)\n  0x00\n  codecopy\n  0x00\n  return\nstop\n\nsub_0: assembly {\n        /* \"FacctoryContract/WagerContract.sol\":218:12177  contract Market is Ownable {... */\n      mstore(0x40, 0x80)\n      callvalue\n      dup1\n      iszero\n      tag_1\n      jumpi\n      0x00\n      dup1\n      revert\n    tag_1:\n      pop\n      jumpi(tag_2, lt(calldatasize, 0x04))\n      shr(0xe0, calldataload(0x00))\n      dup1\n      0x6399d03d\n      gt\n      tag_24\n      jumpi\n      dup1\n      0xa8dbd0cd\n      gt\n      tag_25\n      jumpi\n      dup1\n      0xa8dbd0cd\n      eq\n      tag_18\n      jumpi\n      dup1\n      0xb3c740e8\n      eq\n      tag_19\n      jumpi\n      dup1\n      0xbff1f9e1\n      eq\n      tag_20\n      jumpi\n      dup1\n      0xc4351386\n      eq\n      tag_21\n      jumpi\n      dup1\n      0xf2fde38b\n      eq\n      tag_22\n      jumpi\n      dup1\n      0xfbea0b06\n      eq\n      tag_23\n      jumpi\n      jump(tag_2)\n    tag_25:\n      dup1\n      0x6399d03d\n      eq\n      tag_13\n      jumpi\n      dup1\n      0x6ffcc719\n      eq\n      tag_14\n      jumpi\n      dup1\n      0x715018a6\n      eq\n      tag_15\n      jumpi\n      dup1\n      0x84b5aca6\n      eq\n      tag_16\n      jumpi\n      dup1\n      0x8da5cb5b\n      eq\n      tag_17\n      jumpi\n      jump(tag_2)\n    tag_24:\n      dup1\n      0x21d0d9af\n      gt\n      tag_26\n      jumpi\n      dup1\n      0x21d0d9af\n      eq\n      tag_8\n      jumpi\n      dup1\n      0x3774ca25\n      eq\n      tag_9\n      jumpi\n      dup1\n      0x456e62ba\n      eq\n      tag_10\n      jumpi\n      dup1\n      0x4b684453\n      eq\n      tag_11\n      jumpi\n      dup1\n      0x61d464ef\n      eq\n      tag_12\n      jumpi\n      jump(tag_2)\n    tag_26:\n      dup1\n      0x08ef962e\n      eq\n      tag_3\n      jumpi\n      dup1\n      0x0efa82f6\n      eq\n      tag_4\n      jumpi\n      dup1\n      0x11eac855\n      eq\n      tag_5\n      jumpi\n      dup1\n      0x1959a002\n      eq\n      tag_6\n      jumpi\n      dup1\n      0x208c86a4\n      eq\n      tag_7\n      jumpi\n    tag_2:\n      0x00\n      dup1\n      revert\n        /* \"FacctoryContract/WagerContract.sol\":916:959  mapping(uint256 => address) public eachUser */\n    tag_3:\n      tag_27\n      0x04\n      dup1\n      calldatasize\n      sub\n      dup2\n      add\n      swap1\n      tag_28\n      swap2\n      swap1\n      tag_29\n      jump\t// in\n    tag_28:\n      tag_30\n      jump\t// in\n    tag_27:\n      mload(0x40)\n      tag_31\n      swap2\n      swap1\n      tag_32\n      jump\t// in\n    tag_31:\n      mload(0x40)\n      dup1\n      swap2\n      sub\n      swap1\n      return\n        /* \"FacctoryContract/WagerContract.sol\":12037:12173  function userBetOn(address _user, uint256 _betIndex) public view returns (bool) {... */\n    tag_4:\n      tag_33\n      0x04\n      dup1\n      calldatasize\n      sub\n      dup2\n      add\n      swap1\n      tag_34\n      swap2\n      swap1\n      tag_35\n      jump\t// in\n    tag_34:\n      tag_36\n      jump\t// in\n    tag_33:\n      mload(0x40)\n      tag_37\n      swap2\n      swap1\n      tag_38\n      jump\t// in\n    tag_37:\n      mload(0x40)\n      dup1\n      swap2\n      sub\n      swap1\n      return\n        /* \"FacctoryContract/WagerContract.sol\":252:274  ERC20 public usdcToken */\n    tag_5:\n      tag_39\n      tag_40\n      jump\t// in\n    tag_39:\n      mload(0x40)\n      tag_41\n      swap2\n      swap1\n      tag_42\n      jump\t// in\n    tag_41:\n      mload(0x40)\n      dup1\n      swap2\n      sub\n      swap1\n      return\n        /* \"FacctoryContract/WagerContract.sol\":965:1009  mapping(address => UserInfo) public userInfo */\n    tag_6:\n      tag_43\n      0x04\n      dup1\n      calldatasize\n      sub\n      dup2\n      add\n      swap1\n      tag_44\n      swap2\n      swap1\n      tag_45\n      jump\t// in\n    tag_44:\n      tag_46\n      jump\t// in\n    tag_43:\n      mload(0x40)\n      tag_47\n      swap6\n      swap5\n      swap4\n      swap3\n      swap2\n      swap1\n      tag_48\n      jump\t// in\n    tag_47:\n      mload(0x40)\n      dup1\n      swap2\n      sub\n      swap1\n      return\n        /* \"FacctoryContract/WagerContract.sol\":10247:10424  function getInitialPrices() public view returns (uint256, uint256) {... */\n    tag_7:\n      tag_49\n      tag_50\n      jump\t// in\n    tag_49:\n      mload(0x40)\n      tag_51\n      swap3\n      swap2\n      swap1\n      tag_52\n      jump\t// in\n    tag_51:\n      mload(0x40)\n      dup1\n      swap2\n      sub\n      swap1\n      return\n        /* \"FacctoryContract/WagerContract.sol\":3515:4269  function PriceCalculation(uint256 totalBetsOnNo, uint256 totalBetsOnYes) public view returns(uint256, uint256){... */\n    tag_8:\n      tag_53\n      0x04\n      dup1\n      calldatasize\n      sub\n      dup2\n      add\n      swap1\n      tag_54\n      swap2\n      swap1\n      tag_55\n      jump\t// in\n    tag_54:\n      tag_56\n      jump\t// in\n    tag_53:\n      mload(0x40)\n      tag_57\n      swap3\n      swap2\n      swap1\n      tag_52\n      jump\t// in\n    tag_57:\n      mload(0x40)\n      dup1\n      swap2\n      sub\n      swap1\n      return\n        /* \"FacctoryContract/WagerContract.sol\":11541:12031  function readSellInfo(address _owner, uint256 _id) public view returns (... */\n    tag_9:\n      tag_58\n      0x04\n      dup1\n      calldatasize\n      sub\n      dup2\n      add\n      swap1\n      tag_59\n      swap2\n      swap1\n      tag_35\n      jump\t// in\n    tag_59:\n      tag_60\n      jump\t// in\n    tag_58:\n      mload(0x40)\n      tag_61\n      swap7\n      swap6\n      swap5\n      swap4\n      swap3\n      swap2\n      swap1\n      tag_62\n      jump\t// in\n    tag_61:\n      mload(0x40)\n      dup1\n      swap2\n      sub\n      swap1\n      return\n        /* \"FacctoryContract/WagerContract.sol\":4278:5610  function sellShare(uint256 _amount, uint256 _price, uint256 _sellOf) external {... */\n    tag_10:\n      tag_63\n      0x04\n      dup1\n      calldatasize\n      sub\n      dup2\n      add\n      swap1\n      tag_64\n      swap2\n      swap1\n      tag_65\n      jump\t// in\n    tag_64:\n      tag_66\n      jump\t// in\n    tag_63:\n      stop\n        /* \"FacctoryContract/WagerContract.sol\":10430:11088  function readMarketInfo(address _market) public view returns (... */\n    tag_11:\n      tag_67\n      0x04\n      dup1\n      calldatasize\n      sub\n      dup2\n      add\n      swap1\n      tag_68\n      swap2\n      swap1\n      tag_45\n      jump\t// in\n    tag_68:\n      tag_69\n      jump\t// in\n    tag_67:\n      mload(0x40)\n      tag_70\n      swap8\n      swap7\n      swap6\n      swap5\n      swap4\n      swap3\n      swap2\n      swap1\n      tag_71\n      jump\t// in\n    tag_70:\n      mload(0x40)\n      dup1\n      swap2\n      sub\n      swap1\n      return\n        /* \"FacctoryContract/WagerContract.sol\":1069:1133  mapping(address => mapping(uint256 => SellInfo)) public sellInfo */\n    tag_12:\n      tag_72\n      0x04\n      dup1\n      calldatasize\n      sub\n      dup2\n      add\n      swap1\n      tag_73\n      swap2\n      swap1\n      tag_35\n      jump\t// in\n    tag_73:\n      tag_74\n      jump\t// in\n    tag_72:\n      mload(0x40)\n      tag_75\n      swap7\n      swap6\n      swap5\n      swap4\n      swap3\n      swap2\n      swap1\n      tag_62\n      jump\t// in\n    tag_75:\n      mload(0x40)\n      dup1\n      swap2\n      sub\n      swap1\n      return\n        /* \"FacctoryContract/WagerContract.sol\":7101:9372  function resolveMarket(uint256 winningIndex) external   {... */\n    tag_13:\n      tag_76\n      0x04\n      dup1\n      calldatasize\n      sub\n      dup2\n      add\n      swap1\n      tag_77\n      swap2\n      swap1\n      tag_29\n      jump\t// in\n    tag_77:\n      tag_78\n      jump\t// in\n    tag_76:\n      stop\n        /* \"FacctoryContract/WagerContract.sol\":2188:3508  function bet(uint256 _amount, uint256 _betOn) external {... */\n    tag_14:\n      tag_79\n      0x04\n      dup1\n      calldatasize\n      sub\n      dup2\n      add\n      swap1\n      tag_80\n      swap2\n      swap1\n      tag_55\n      jump\t// in\n    tag_80:\n      tag_81\n      jump\t// in\n    tag_79:\n      stop\n        /* \"@openzeppelin/contracts/access/Ownable.sol\":2293:2394  function renounceOwnership() public virtual onlyOwner {... */\n    tag_15:\n      tag_82\n      tag_83\n      jump\t// in\n    tag_82:\n      stop\n        /* \"FacctoryContract/WagerContract.sol\":9933:10241  function calculateInvestment(uint256 shares, uint256 _betOn) public view returns (uint256) {... */\n    tag_16:\n      tag_84\n      0x04\n      dup1\n      calldatasize\n      sub\n      dup2\n      add\n      swap1\n      tag_85\n      swap2\n      swap1\n      tag_55\n      jump\t// in\n    tag_85:\n      tag_86\n      jump\t// in\n    tag_84:\n      mload(0x40)\n      tag_87\n      swap2\n      swap1\n      tag_88\n      jump\t// in\n    tag_87:\n      mload(0x40)\n      dup1\n      swap2\n      sub\n      swap1\n      return\n        /* \"@openzeppelin/contracts/access/Ownable.sol\":1638:1723  function owner() public view virtual returns (address) {... */\n    tag_17:\n      tag_89\n      tag_90\n      jump\t// in\n    tag_89:\n      mload(0x40)\n      tag_91\n      swap2\n      swap1\n      tag_32\n      jump\t// in\n    tag_91:\n      mload(0x40)\n      dup1\n      swap2\n      sub\n      swap1\n      return\n        /* \"FacctoryContract/WagerContract.sol\":11094:11536  function readUserInfo(address _user) public view returns (... */\n    tag_18:\n      tag_92\n      0x04\n      dup1\n      calldatasize\n      sub\n      dup2\n      add\n      swap1\n      tag_93\n      swap2\n      swap1\n      tag_45\n      jump\t// in\n    tag_93:\n      tag_94\n      jump\t// in\n    tag_92:\n      mload(0x40)\n      tag_95\n      swap6\n      swap5\n      swap4\n      swap3\n      swap2\n      swap1\n      tag_48\n      jump\t// in\n    tag_95:\n      mload(0x40)\n      dup1\n      swap2\n      sub\n      swap1\n      return\n        /* \"FacctoryContract/WagerContract.sol\":9383:9698  function calculateShares(uint256 _amount, uint256 _betOn ) public view returns (uint256) {... */\n    tag_19:\n      tag_96\n      0x04\n      dup1\n      calldatasize\n      sub\n      dup2\n      add\n      swap1\n      tag_97\n      swap2\n      swap1\n      tag_55\n      jump\t// in\n    tag_97:\n      tag_98\n      jump\t// in\n    tag_96:\n      mload(0x40)\n      tag_99\n      swap2\n      swap1\n      tag_88\n      jump\t// in\n    tag_99:\n      mload(0x40)\n      dup1\n      swap2\n      sub\n      swap1\n      return\n        /* \"FacctoryContract/WagerContract.sol\":884:909  uint256 public totalUsers */\n    tag_20:\n      tag_100\n      tag_101\n      jump\t// in\n    tag_100:\n      mload(0x40)\n      tag_102\n      swap2\n      swap1\n      tag_88\n      jump\t// in\n    tag_102:\n      mload(0x40)\n      dup1\n      swap2\n      sub\n      swap1\n      return\n        /* \"FacctoryContract/WagerContract.sol\":1015:1063  mapping(address => MarketInfo) public marketInfo */\n    tag_21:\n      tag_103\n      0x04\n      dup1\n      calldatasize\n      sub\n      dup2\n      add\n      swap1\n      tag_104\n      swap2\n      swap1\n      tag_45\n      jump\t// in\n    tag_104:\n      tag_105\n      jump\t// in\n    tag_103:\n      mload(0x40)\n      tag_106\n      swap7\n      swap6\n      swap5\n      swap4\n      swap3\n      swap2\n      swap1\n      tag_107\n      jump\t// in\n    tag_106:\n      mload(0x40)\n      dup1\n      swap2\n      sub\n      swap1\n      return\n        /* \"@openzeppelin/contracts/access/Ownable.sol\":2543:2758  function transferOwnership(address newOwner) public virtual onlyOwner {... */\n    tag_22:\n      tag_108\n      0x04\n      dup1\n      calldatasize\n      sub\n      dup2\n      add\n      swap1\n      tag_109\n      swap2\n      swap1\n      tag_45\n      jump\t// in\n    tag_109:\n      tag_110\n      jump\t// in\n    tag_108:\n      stop\n        /* \"FacctoryContract/WagerContract.sol\":5616:7089  function buyShare(uint256 _listNo, address _owner) external {... */\n    tag_23:\n      tag_111\n      0x04\n      dup1\n      calldatasize\n      sub\n      dup2\n      add\n      swap1\n      tag_112\n      swap2\n      swap1\n      tag_113\n      jump\t// in\n    tag_112:\n      tag_114\n      jump\t// in\n    tag_111:\n      stop\n        /* \"FacctoryContract/WagerContract.sol\":916:959  mapping(uint256 => address) public eachUser */\n    tag_30:\n      mstore(0x20, 0x03)\n      dup1\n      0x00\n      mstore\n      keccak256(0x00, 0x40)\n      0x00\n      swap2\n      pop\n      sload\n      swap1\n      0x0100\n      exp\n      swap1\n      div\n      0xffffffffffffffffffffffffffffffffffffffff\n      and\n      dup2\n      jump\t// out\n        /* \"FacctoryContract/WagerContract.sol\":12037:12173  function userBetOn(address _user, uint256 _betIndex) public view returns (bool) {... */\n    tag_36:\n        /* \"FacctoryContract/WagerContract.sol\":12111:12115  bool */\n      0x00\n        /* \"FacctoryContract/WagerContract.sol\":12134:12142  userInfo */\n      0x04\n        /* \"FacctoryContract/WagerContract.sol\":12134:12149  userInfo[_user] */\n      0x00\n        /* \"FacctoryContract/WagerContract.sol\":12143:12148  _user */\n      dup5\n        /* \"FacctoryContract/WagerContract.sol\":12134:12149  userInfo[_user] */\n      0xffffffffffffffffffffffffffffffffffffffff\n      and\n      0xffffffffffffffffffffffffffffffffffffffff\n      and\n      dup2\n      mstore\n      0x20\n      add\n      swap1\n      dup2\n      mstore\n      0x20\n      add\n      0x00\n      keccak256\n        /* \"FacctoryContract/WagerContract.sol\":12134:12155  userInfo[_user].betOn */\n      0x05\n      add\n        /* \"FacctoryContract/WagerContract.sol\":12134:12166  userInfo[_user].betOn[_betIndex] */\n      0x00\n        /* \"FacctoryContract/WagerContract.sol\":12156:12165  _betIndex */\n      dup4\n        /* \"FacctoryContract/WagerContract.sol\":12134:12166  userInfo[_user].betOn[_betIndex] */\n      dup2\n      mstore\n      0x20\n      add\n      swap1\n      dup2\n      mstore\n      0x20\n      add\n      0x00\n      keccak256\n      0x00\n      swap1\n      sload\n      swap1\n      0x0100\n      exp\n      swap1\n      div\n      0xff\n      and\n        /* \"FacctoryContract/WagerContract.sol\":12127:12166  return userInfo[_user].betOn[_betIndex] */\n      swap1\n      pop\n        /* \"FacctoryContract/WagerContract.sol\":12037:12173  function userBetOn(address _user, uint256 _betIndex) public view returns (bool) {... */\n      swap3\n      swap2\n      pop\n      pop\n      jump\t// out\n        /* \"FacctoryContract/WagerContract.sol\":252:274  ERC20 public usdcToken */\n    tag_40:\n      0x01\n      0x00\n      swap1\n      sload\n      swap1\n      0x0100\n      exp\n      swap1\n      div\n      0xffffffffffffffffffffffffffffffffffffffff\n      and\n      dup2\n      jump\t// out\n        /* \"FacctoryContract/WagerContract.sol\":965:1009  mapping(address => UserInfo) public userInfo */\n    tag_46:\n      mstore(0x20, 0x04)\n      dup1\n      0x00\n      mstore\n      keccak256(0x00, 0x40)\n      0x00\n      swap2\n      pop\n      swap1\n      pop\n      dup1\n      0x00\n      add\n      sload\n      swap1\n      dup1\n      0x01\n      add\n      sload\n      swap1\n      dup1\n      0x02\n      add\n      sload\n      swap1\n      dup1\n      0x03\n      add\n      sload\n      swap1\n      dup1\n      0x04\n      add\n      sload\n      swap1\n      pop\n      dup6\n      jump\t// out\n        /* \"FacctoryContract/WagerContract.sol\":10247:10424  function getInitialPrices() public view returns (uint256, uint256) {... */\n    tag_50:\n        /* \"FacctoryContract/WagerContract.sol\":10296:10303  uint256 */\n      0x00\n        /* \"FacctoryContract/WagerContract.sol\":10305:10312  uint256 */\n      dup1\n        /* \"FacctoryContract/WagerContract.sol\":10332:10342  marketInfo */\n      0x05\n        /* \"FacctoryContract/WagerContract.sol\":10332:10357  marketInfo[address(this)] */\n      0x00\n        /* \"FacctoryContract/WagerContract.sol\":10351:10355  this */\n      address\n        /* \"FacctoryContract/WagerContract.sol\":10332:10357  marketInfo[address(this)] */\n      0xffffffffffffffffffffffffffffffffffffffff\n      and\n      0xffffffffffffffffffffffffffffffffffffffff\n      and\n      dup2\n      mstore\n      0x20\n      add\n      swap1\n      dup2\n      mstore\n      0x20\n      add\n      0x00\n      keccak256\n        /* \"FacctoryContract/WagerContract.sol\":10332:10370  marketInfo[address(this)].initialPrice */\n      0x04\n      add\n        /* \"FacctoryContract/WagerContract.sol\":10371:10372  0 */\n      0x00\n        /* \"FacctoryContract/WagerContract.sol\":10332:10373  marketInfo[address(this)].initialPrice[0] */\n      0x02\n      dup2\n      lt\n      tag_117\n      jumpi\n      tag_118\n      tag_119\n      jump\t// in\n    tag_118:\n    tag_117:\n      add\n      sload\n        /* \"FacctoryContract/WagerContract.sol\":10375:10385  marketInfo */\n      0x05\n        /* \"FacctoryContract/WagerContract.sol\":10375:10400  marketInfo[address(this)] */\n      0x00\n        /* \"FacctoryContract/WagerContract.sol\":10394:10398  this */\n      address\n        /* \"FacctoryContract/WagerContract.sol\":10375:10400  marketInfo[address(this)] */\n      0xffffffffffffffffffffffffffffffffffffffff\n      and\n      0xffffffffffffffffffffffffffffffffffffffff\n      and\n      dup2\n      mstore\n      0x20\n      add\n      swap1\n      dup2\n      mstore\n      0x20\n      add\n      0x00\n      keccak256\n        /* \"FacctoryContract/WagerContract.sol\":10375:10413  marketInfo[address(this)].initialPrice */\n      0x04\n      add\n        /* \"FacctoryContract/WagerContract.sol\":10414:10415  1 */\n      0x01\n        /* \"FacctoryContract/WagerContract.sol\":10375:10416  marketInfo[address(this)].initialPrice[1] */\n      0x02\n      dup2\n      lt\n      tag_121\n      jumpi\n      tag_122\n      tag_119\n      jump\t// in\n    tag_122:\n    tag_121:\n      add\n      sload\n        /* \"FacctoryContract/WagerContract.sol\":10324:10417  return (marketInfo[address(this)].initialPrice[0], marketInfo[address(this)].initialPrice[1]) */\n      swap2\n      pop\n      swap2\n      pop\n        /* \"FacctoryContract/WagerContract.sol\":10247:10424  function getInitialPrices() public view returns (uint256, uint256) {... */\n      swap1\n      swap2\n      jump\t// out\n        /* \"FacctoryContract/WagerContract.sol\":3515:4269  function PriceCalculation(uint256 totalBetsOnNo, uint256 totalBetsOnYes) public view returns(uint256, uint256){... */\n    tag_56:\n        /* \"FacctoryContract/WagerContract.sol\":3608:3615  uint256 */\n      0x00\n        /* \"FacctoryContract/WagerContract.sol\":3617:3624  uint256 */\n      dup1\n        /* \"FacctoryContract/WagerContract.sol\":3645:3668  uint256 originalNoPrice */\n      0x00\n        /* \"FacctoryContract/WagerContract.sol\":3671:3681  marketInfo */\n      0x05\n        /* \"FacctoryContract/WagerContract.sol\":3671:3696  marketInfo[address(this)] */\n      0x00\n        /* \"FacctoryContract/WagerContract.sol\":3690:3694  this */\n      address\n        /* \"FacctoryContract/WagerContract.sol\":3671:3696  marketInfo[address(this)] */\n      0xffffffffffffffffffffffffffffffffffffffff\n      and\n      0xffffffffffffffffffffffffffffffffffffffff\n      and\n      dup2\n      mstore\n      0x20\n      add\n      swap1\n      dup2\n      mstore\n      0x20\n      add\n      0x00\n      keccak256\n        /* \"FacctoryContract/WagerContract.sol\":3671:3709  marketInfo[address(this)].initialPrice */\n      0x04\n      add\n        /* \"FacctoryContract/WagerContract.sol\":3710:3711  0 */\n      0x00\n        /* \"FacctoryContract/WagerContract.sol\":3671:3712  marketInfo[address(this)].initialPrice[0] */\n      0x02\n      dup2\n      lt\n      tag_125\n      jumpi\n      tag_126\n      tag_119\n      jump\t// in\n    tag_126:\n    tag_125:\n      add\n      sload\n        /* \"FacctoryContract/WagerContract.sol\":3645:3712  uint256 originalNoPrice = marketInfo[address(this)].initialPrice[0] */\n      swap1\n      pop\n        /* \"FacctoryContract/WagerContract.sol\":3723:3747  uint256 originalYesPrice */\n      0x00\n        /* \"FacctoryContract/WagerContract.sol\":3750:3760  marketInfo */\n      0x05\n        /* \"FacctoryContract/WagerContract.sol\":3750:3775  marketInfo[address(this)] */\n      0x00\n        /* \"FacctoryContract/WagerContract.sol\":3769:3773  this */\n      address\n        /* \"FacctoryContract/WagerContract.sol\":3750:3775  marketInfo[address(this)] */\n      0xffffffffffffffffffffffffffffffffffffffff\n      and\n      0xffffffffffffffffffffffffffffffffffffffff\n      and\n      dup2\n      mstore\n      0x20\n      add\n      swap1\n      dup2\n      mstore\n      0x20\n      add\n      0x00\n      keccak256\n        /* \"FacctoryContract/WagerContract.sol\":3750:3788  marketInfo[address(this)].initialPrice */\n      0x04\n      add\n        /* \"FacctoryContract/WagerContract.sol\":3789:3790  1 */\n      0x01\n        /* \"FacctoryContract/WagerContract.sol\":3750:3791  marketInfo[address(this)].initialPrice[1] */\n      0x02\n      dup2\n      lt\n      tag_128\n      jumpi\n      tag_129\n      tag_119\n      jump\t// in\n    tag_129:\n    tag_128:\n      add\n      sload\n        /* \"FacctoryContract/WagerContract.sol\":3723:3791  uint256 originalYesPrice = marketInfo[address(this)].initialPrice[1] */\n      swap1\n      pop\n        /* \"FacctoryContract/WagerContract.sol\":3812:3829  uint256 totalBets */\n      0x00\n        /* \"FacctoryContract/WagerContract.sol\":3848:3862  totalBetsOnYes */\n      dup6\n        /* \"FacctoryContract/WagerContract.sol\":3832:3845  totalBetsOnNo */\n      dup8\n        /* \"FacctoryContract/WagerContract.sol\":3832:3862  totalBetsOnNo + totalBetsOnYes */\n      tag_131\n      swap2\n      swap1\n      tag_132\n      jump\t// in\n    tag_131:\n        /* \"FacctoryContract/WagerContract.sol\":3812:3862  uint256 totalBets = totalBetsOnNo + totalBetsOnYes */\n      swap1\n      pop\n        /* \"FacctoryContract/WagerContract.sol\":3893:3894  0 */\n      0x00\n        /* \"FacctoryContract/WagerContract.sol\":3876:3889  totalBetsOnNo */\n      dup8\n        /* \"FacctoryContract/WagerContract.sol\":3876:3894  totalBetsOnNo != 0 */\n      eq\n        /* \"FacctoryContract/WagerContract.sol\":3873:4036  if(totalBetsOnNo != 0){... */\n      tag_133\n      jumpi\n        /* \"FacctoryContract/WagerContract.sol\":3964:3973  totalBets */\n      dup1\n        /* \"FacctoryContract/WagerContract.sol\":3958:3961  100 */\n      0x64\n        /* \"FacctoryContract/WagerContract.sol\":3942:3955  totalBetsOnNo */\n      dup9\n        /* \"FacctoryContract/WagerContract.sol\":3942:3961  totalBetsOnNo * 100 */\n      tag_134\n      swap2\n      swap1\n      tag_135\n      jump\t// in\n    tag_134:\n        /* \"FacctoryContract/WagerContract.sol\":3941:3974  (totalBetsOnNo * 100)/(totalBets) */\n      tag_136\n      swap2\n      swap1\n      tag_137\n      jump\t// in\n    tag_136:\n        /* \"FacctoryContract/WagerContract.sol\":3922:3975  originalNoPrice = ((totalBetsOnNo * 100)/(totalBets)) */\n      swap3\n      pop\n        /* \"FacctoryContract/WagerContract.sol\":4008:4025  10000000000000000 */\n      0x2386f26fc10000\n        /* \"FacctoryContract/WagerContract.sol\":3989:4025  originalNoPrice *= 10000000000000000 */\n      dup4\n      tag_138\n      swap2\n      swap1\n      tag_135\n      jump\t// in\n    tag_138:\n      swap3\n      pop\n        /* \"FacctoryContract/WagerContract.sol\":3873:4036  if(totalBetsOnNo != 0){... */\n    tag_133:\n        /* \"FacctoryContract/WagerContract.sol\":4066:4067  0 */\n      0x00\n        /* \"FacctoryContract/WagerContract.sol\":4048:4062  totalBetsOnYes */\n      dup7\n        /* \"FacctoryContract/WagerContract.sol\":4048:4067  totalBetsOnYes != 0 */\n      eq\n        /* \"FacctoryContract/WagerContract.sol\":4045:4211  if(totalBetsOnYes != 0){... */\n      tag_139\n      jumpi\n        /* \"FacctoryContract/WagerContract.sol\":4138:4147  totalBets */\n      dup1\n        /* \"FacctoryContract/WagerContract.sol\":4132:4135  100 */\n      0x64\n        /* \"FacctoryContract/WagerContract.sol\":4115:4129  totalBetsOnYes */\n      dup8\n        /* \"FacctoryContract/WagerContract.sol\":4115:4135  totalBetsOnYes * 100 */\n      tag_140\n      swap2\n      swap1\n      tag_135\n      jump\t// in\n    tag_140:\n        /* \"FacctoryContract/WagerContract.sol\":4114:4148  (totalBetsOnYes * 100)/(totalBets) */\n      tag_141\n      swap2\n      swap1\n      tag_137\n      jump\t// in\n    tag_141:\n        /* \"FacctoryContract/WagerContract.sol\":4094:4149  originalYesPrice = ((totalBetsOnYes * 100)/(totalBets)) */\n      swap2\n      pop\n        /* \"FacctoryContract/WagerContract.sol\":4183:4200  10000000000000000 */\n      0x2386f26fc10000\n        /* \"FacctoryContract/WagerContract.sol\":4163:4200  originalYesPrice *= 10000000000000000 */\n      dup3\n      tag_142\n      swap2\n      swap1\n      tag_135\n      jump\t// in\n    tag_142:\n      swap2\n      pop\n        /* \"FacctoryContract/WagerContract.sol\":4045:4211  if(totalBetsOnYes != 0){... */\n    tag_139:\n        /* \"FacctoryContract/WagerContract.sol\":4228:4243  originalNoPrice */\n      dup3\n        /* \"FacctoryContract/WagerContract.sol\":4245:4261  originalYesPrice */\n      dup3\n        /* \"FacctoryContract/WagerContract.sol\":4221:4262  return(originalNoPrice, originalYesPrice) */\n      swap5\n      pop\n      swap5\n      pop\n      pop\n      pop\n      pop\n        /* \"FacctoryContract/WagerContract.sol\":3515:4269  function PriceCalculation(uint256 totalBetsOnNo, uint256 totalBetsOnYes) public view returns(uint256, uint256){... */\n      swap3\n      pop\n      swap3\n      swap1\n      pop\n      jump\t// out\n        /* \"FacctoryContract/WagerContract.sol\":11541:12031  function readSellInfo(address _owner, uint256 _id) public view returns (... */\n    tag_60:\n        /* \"FacctoryContract/WagerContract.sol\":11622:11631  bool list */\n      0x00\n        /* \"FacctoryContract/WagerContract.sol\":11641:11650  bool sold */\n      dup1\n        /* \"FacctoryContract/WagerContract.sol\":11660:11673  address owner */\n      0x00\n        /* \"FacctoryContract/WagerContract.sol\":11683:11696  uint256 price */\n      dup1\n        /* \"FacctoryContract/WagerContract.sol\":11706:11720  uint256 amount */\n      0x00\n        /* \"FacctoryContract/WagerContract.sol\":11730:11744  uint256 listOn */\n      dup1\n        /* \"FacctoryContract/WagerContract.sol\":11782:11790  sellInfo */\n      0x06\n        /* \"FacctoryContract/WagerContract.sol\":11782:11798  sellInfo[_owner] */\n      0x00\n        /* \"FacctoryContract/WagerContract.sol\":11791:11797  _owner */\n      dup10\n        /* \"FacctoryContract/WagerContract.sol\":11782:11798  sellInfo[_owner] */\n      0xffffffffffffffffffffffffffffffffffffffff\n      and\n      0xffffffffffffffffffffffffffffffffffffffff\n      and\n      dup2\n      mstore\n      0x20\n      add\n      swap1\n      dup2\n      mstore\n      0x20\n      add\n      0x00\n      keccak256\n        /* \"FacctoryContract/WagerContract.sol\":11782:11803  sellInfo[_owner][_id] */\n      0x00\n        /* \"FacctoryContract/WagerContract.sol\":11799:11802  _id */\n      dup9\n        /* \"FacctoryContract/WagerContract.sol\":11782:11803  sellInfo[_owner][_id] */\n      dup2\n      mstore\n      0x20\n      add\n      swap1\n      dup2\n      mstore\n      0x20\n      add\n      0x00\n      keccak256\n        /* \"FacctoryContract/WagerContract.sol\":11782:11808  sellInfo[_owner][_id].list */\n      0x00\n      add\n      0x00\n      swap1\n      sload\n      swap1\n      0x0100\n      exp\n      swap1\n      div\n      0xff\n      and\n        /* \"FacctoryContract/WagerContract.sol\":11822:11830  sellInfo */\n      0x06\n        /* \"FacctoryContract/WagerContract.sol\":11822:11838  sellInfo[_owner] */\n      0x00\n        /* \"FacctoryContract/WagerContract.sol\":11831:11837  _owner */\n      dup11\n        /* \"FacctoryContract/WagerContract.sol\":11822:11838  sellInfo[_owner] */\n      0xffffffffffffffffffffffffffffffffffffffff\n      and\n      0xffffffffffffffffffffffffffffffffffffffff\n      and\n      dup2\n      mstore\n      0x20\n      add\n      swap1\n      dup2\n      mstore\n      0x20\n      add\n      0x00\n      keccak256\n        /* \"FacctoryContract/WagerContract.sol\":11822:11843  sellInfo[_owner][_id] */\n      0x00\n        /* \"FacctoryContract/WagerContract.sol\":11839:11842  _id */\n      dup10\n        /* \"FacctoryContract/WagerContract.sol\":11822:11843  sellInfo[_owner][_id] */\n      dup2\n      mstore\n      0x20\n      add\n      swap1\n      dup2\n      mstore\n      0x20\n      add\n      0x00\n      keccak256\n        /* \"FacctoryContract/WagerContract.sol\":11822:11848  sellInfo[_owner][_id].sold */\n      0x00\n      add\n      0x01\n      swap1\n      sload\n      swap1\n      0x0100\n      exp\n      swap1\n      div\n      0xff\n      and\n        /* \"FacctoryContract/WagerContract.sol\":11862:11870  sellInfo */\n      0x06\n        /* \"FacctoryContract/WagerContract.sol\":11862:11878  sellInfo[_owner] */\n      0x00\n        /* \"FacctoryContract/WagerContract.sol\":11871:11877  _owner */\n      dup12\n        /* \"FacctoryContract/WagerContract.sol\":11862:11878  sellInfo[_owner] */\n      0xffffffffffffffffffffffffffffffffffffffff\n      and\n      0xffffffffffffffffffffffffffffffffffffffff\n      and\n      dup2\n      mstore\n      0x20\n      add\n      swap1\n      dup2\n      mstore\n      0x20\n      add\n      0x00\n      keccak256\n        /* \"FacctoryContract/WagerContract.sol\":11862:11883  sellInfo[_owner][_id] */\n      0x00\n        /* \"FacctoryContract/WagerContract.sol\":11879:11882  _id */\n      dup11\n        /* \"FacctoryContract/WagerContract.sol\":11862:11883  sellInfo[_owner][_id] */\n      dup2\n      mstore\n      0x20\n      add\n      swap1\n      dup2\n      mstore\n      0x20\n      add\n      0x00\n      keccak256\n        /* \"FacctoryContract/WagerContract.sol\":11862:11889  sellInfo[_owner][_id].owner */\n      0x00\n      add\n      0x02\n      swap1\n      sload\n      swap1\n      0x0100\n      exp\n      swap1\n      div\n      0xffffffffffffffffffffffffffffffffffffffff\n      and\n        /* \"FacctoryContract/WagerContract.sol\":11903:11911  sellInfo */\n      0x06\n        /* \"FacctoryContract/WagerContract.sol\":11903:11919  sellInfo[_owner] */\n      0x00\n        /* \"FacctoryContract/WagerContract.sol\":11912:11918  _owner */\n      dup13\n        /* \"FacctoryContract/WagerContract.sol\":11903:11919  sellInfo[_owner] */\n      0xffffffffffffffffffffffffffffffffffffffff\n      and\n      0xffffffffffffffffffffffffffffffffffffffff\n      and\n      dup2\n      mstore\n      0x20\n      add\n      swap1\n      dup2\n      mstore\n      0x20\n      add\n      0x00\n      keccak256\n        /* \"FacctoryContract/WagerContract.sol\":11903:11924  sellInfo[_owner][_id] */\n      0x00\n        /* \"FacctoryContract/WagerContract.sol\":11920:11923  _id */\n      dup12\n        /* \"FacctoryContract/WagerContract.sol\":11903:11924  sellInfo[_owner][_id] */\n      dup2\n      mstore\n      0x20\n      add\n      swap1\n      dup2\n      mstore\n      0x20\n      add\n      0x00\n      keccak256\n        /* \"FacctoryContract/WagerContract.sol\":11903:11930  sellInfo[_owner][_id].price */\n      0x01\n      add\n      sload\n        /* \"FacctoryContract/WagerContract.sol\":11944:11952  sellInfo */\n      0x06\n        /* \"FacctoryContract/WagerContract.sol\":11944:11960  sellInfo[_owner] */\n      0x00\n        /* \"FacctoryContract/WagerContract.sol\":11953:11959  _owner */\n      dup14\n        /* \"FacctoryContract/WagerContract.sol\":11944:11960  sellInfo[_owner] */\n      0xffffffffffffffffffffffffffffffffffffffff\n      and\n      0xffffffffffffffffffffffffffffffffffffffff\n      and\n      dup2\n      mstore\n      0x20\n      add\n      swap1\n      dup2\n      mstore\n      0x20\n      add\n      0x00\n      keccak256\n        /* \"FacctoryContract/WagerContract.sol\":11944:11965  sellInfo[_owner][_id] */\n      0x00\n        /* \"FacctoryContract/WagerContract.sol\":11961:11964  _id */\n      dup13\n        /* \"FacctoryContract/WagerContract.sol\":11944:11965  sellInfo[_owner][_id] */\n      dup2\n      mstore\n      0x20\n      add\n      swap1\n      dup2\n      mstore\n      0x20\n      add\n      0x00\n      keccak256\n        /* \"FacctoryContract/WagerContract.sol\":11944:11972  sellInfo[_owner][_id].amount */\n      0x02\n      add\n      sload\n        /* \"FacctoryContract/WagerContract.sol\":11986:11994  sellInfo */\n      0x06\n        /* \"FacctoryContract/WagerContract.sol\":11986:12002  sellInfo[_owner] */\n      0x00\n        /* \"FacctoryContract/WagerContract.sol\":11995:12001  _owner */\n      dup15\n        /* \"FacctoryContract/WagerContract.sol\":11986:12002  sellInfo[_owner] */\n      0xffffffffffffffffffffffffffffffffffffffff\n      and\n      0xffffffffffffffffffffffffffffffffffffffff\n      and\n      dup2\n      mstore\n      0x20\n      add\n      swap1\n      dup2\n      mstore\n      0x20\n      add\n      0x00\n      keccak256\n        /* \"FacctoryContract/WagerContract.sol\":11986:12007  sellInfo[_owner][_id] */\n      0x00\n        /* \"FacctoryContract/WagerContract.sol\":12003:12006  _id */\n      dup14\n        /* \"FacctoryContract/WagerContract.sol\":11986:12007  sellInfo[_owner][_id] */\n      dup2\n      mstore\n      0x20\n      add\n      swap1\n      dup2\n      mstore\n      0x20\n      add\n      0x00\n      keccak256\n        /* \"FacctoryContract/WagerContract.sol\":11986:12014  sellInfo[_owner][_id].listOn */\n      0x03\n      add\n      sload\n        /* \"FacctoryContract/WagerContract.sol\":11761:12024  return (... */\n      swap6\n      pop\n      swap6\n      pop\n      swap6\n      pop\n      swap6\n      pop\n      swap6\n      pop\n      swap6\n      pop\n        /* \"FacctoryContract/WagerContract.sol\":11541:12031  function readSellInfo(address _owner, uint256 _id) public view returns (... */\n      swap3\n      swap6\n      pop\n      swap3\n      swap6\n      pop\n      swap3\n      swap6\n      jump\t// out\n        /* \"FacctoryContract/WagerContract.sol\":4278:5610  function sellShare(uint256 _amount, uint256 _price, uint256 _sellOf) external {... */\n    tag_66:\n        /* \"FacctoryContract/WagerContract.sol\":4389:4390  0 */\n      0x00\n        /* \"FacctoryContract/WagerContract.sol\":4378:4385  _sellOf */\n      dup2\n        /* \"FacctoryContract/WagerContract.sol\":4378:4390  _sellOf != 0 */\n      eq\n      iszero\n        /* \"FacctoryContract/WagerContract.sol\":4378:4406  _sellOf != 0 || _sellOf != 1 */\n      dup1\n      tag_145\n      jumpi\n      pop\n        /* \"FacctoryContract/WagerContract.sol\":4405:4406  1 */\n      0x01\n        /* \"FacctoryContract/WagerContract.sol\":4394:4401  _sellOf */\n      dup2\n        /* \"FacctoryContract/WagerContract.sol\":4394:4406  _sellOf != 1 */\n      eq\n      iszero\n        /* \"FacctoryContract/WagerContract.sol\":4378:4406  _sellOf != 0 || _sellOf != 1 */\n    tag_145:\n        /* \"FacctoryContract/WagerContract.sol\":4375:4461  if(_sellOf != 0 || _sellOf != 1){... */\n      iszero\n      tag_146\n      jumpi\n        /* \"FacctoryContract/WagerContract.sol\":4442:4449  _sellOf */\n      dup1\n        /* \"FacctoryContract/WagerContract.sol\":4428:4450  wrongBetIndex(_sellOf) */\n      mload(0x40)\n      0xd7acbe8900000000000000000000000000000000000000000000000000000000\n      dup2\n      mstore\n      0x04\n      add\n      tag_147\n      swap2\n      swap1\n      tag_88\n      jump\t// in\n    tag_147:\n      mload(0x40)\n      dup1\n      swap2\n      sub\n      swap1\n      revert\n        /* \"FacctoryContract/WagerContract.sol\":4375:4461  if(_sellOf != 0 || _sellOf != 1){... */\n    tag_146:\n        /* \"FacctoryContract/WagerContract.sol\":4484:4485  0 */\n      0x00\n        /* \"FacctoryContract/WagerContract.sol\":4473:4480  _amount */\n      dup4\n        /* \"FacctoryContract/WagerContract.sol\":4473:4485  _amount <= 0 */\n      gt\n        /* \"FacctoryContract/WagerContract.sol\":4470:4538  if(_amount <= 0){... */\n      tag_148\n      jumpi\n        /* \"FacctoryContract/WagerContract.sol\":4519:4526  _amount */\n      dup3\n        /* \"FacctoryContract/WagerContract.sol\":4507:4527  wrongAmount(_amount) */\n      mload(0x40)\n      0x2ff4783000000000000000000000000000000000000000000000000000000000\n      dup2\n      mstore\n      0x04\n      add\n      tag_149\n      swap2\n      swap1\n      tag_88\n      jump\t// in\n    tag_149:\n      mload(0x40)\n      dup1\n      swap2\n      sub\n      swap1\n      revert\n        /* \"FacctoryContract/WagerContract.sol\":4470:4538  if(_amount <= 0){... */\n    tag_148:\n        /* \"FacctoryContract/WagerContract.sol\":4559:4569  marketInfo */\n      0x05\n        /* \"FacctoryContract/WagerContract.sol\":4559:4584  marketInfo[address(this)] */\n      0x00\n        /* \"FacctoryContract/WagerContract.sol\":4578:4582  this */\n      address\n        /* \"FacctoryContract/WagerContract.sol\":4559:4584  marketInfo[address(this)] */\n      0xffffffffffffffffffffffffffffffffffffffff\n      and\n      0xffffffffffffffffffffffffffffffffffffffff\n      and\n      dup2\n      mstore\n      0x20\n      add\n      swap1\n      dup2\n      mstore\n      0x20\n      add\n      0x00\n      keccak256\n        /* \"FacctoryContract/WagerContract.sol\":4559:4593  marketInfo[address(this)].resolved */\n      0x00\n      add\n      0x00\n      swap1\n      sload\n      swap1\n      0x0100\n      exp\n      swap1\n      div\n      0xff\n      and\n        /* \"FacctoryContract/WagerContract.sol\":4556:4642  if(marketInfo[address(this)].resolved){... */\n      iszero\n      tag_150\n      jumpi\n        /* \"FacctoryContract/WagerContract.sol\":4615:4631  marketResolved() */\n      mload(0x40)\n      0x853fd42100000000000000000000000000000000000000000000000000000000\n      dup2\n      mstore\n      0x04\n      add\n      mload(0x40)\n      dup1\n      swap2\n      sub\n      swap1\n      revert\n        /* \"FacctoryContract/WagerContract.sol\":4556:4642  if(marketInfo[address(this)].resolved){... */\n    tag_150:\n        /* \"FacctoryContract/WagerContract.sol\":4656:4664  userInfo */\n      0x04\n        /* \"FacctoryContract/WagerContract.sol\":4656:4676  userInfo[msg.sender] */\n      0x00\n        /* \"FacctoryContract/WagerContract.sol\":4665:4675  msg.sender */\n      caller\n        /* \"FacctoryContract/WagerContract.sol\":4656:4676  userInfo[msg.sender] */\n      0xffffffffffffffffffffffffffffffffffffffff\n      and\n      0xffffffffffffffffffffffffffffffffffffffff\n      and\n      dup2\n      mstore\n      0x20\n      add\n      swap1\n      dup2\n      mstore\n      0x20\n      add\n      0x00\n      keccak256\n        /* \"FacctoryContract/WagerContract.sol\":4656:4682  userInfo[msg.sender].betOn */\n      0x05\n      add\n        /* \"FacctoryContract/WagerContract.sol\":4656:4691  userInfo[msg.sender].betOn[_sellOf] */\n      0x00\n        /* \"FacctoryContract/WagerContract.sol\":4683:4690  _sellOf */\n      dup3\n        /* \"FacctoryContract/WagerContract.sol\":4656:4691  userInfo[msg.sender].betOn[_sellOf] */\n      dup2\n      mstore\n      0x20\n      add\n      swap1\n      dup2\n      mstore\n      0x20\n      add\n      0x00\n      keccak256\n      0x00\n      swap1\n      sload\n      swap1\n      0x0100\n      exp\n      swap1\n      div\n      0xff\n      and\n        /* \"FacctoryContract/WagerContract.sol\":4652:4767  if(!userInfo[msg.sender].betOn[_sellOf]){... */\n      tag_151\n      jumpi\n        /* \"FacctoryContract/WagerContract.sol\":4720:4728  userInfo */\n      0x04\n        /* \"FacctoryContract/WagerContract.sol\":4720:4740  userInfo[msg.sender] */\n      0x00\n        /* \"FacctoryContract/WagerContract.sol\":4729:4739  msg.sender */\n      caller\n        /* \"FacctoryContract/WagerContract.sol\":4720:4740  userInfo[msg.sender] */\n      0xffffffffffffffffffffffffffffffffffffffff\n      and\n      0xffffffffffffffffffffffffffffffffffffffff\n      and\n      dup2\n      mstore\n      0x20\n      add\n      swap1\n      dup2\n      mstore\n      0x20\n      add\n      0x00\n      keccak256\n        /* \"FacctoryContract/WagerContract.sol\":4720:4746  userInfo[msg.sender].betOn */\n      0x05\n      add\n        /* \"FacctoryContract/WagerContract.sol\":4720:4755  userInfo[msg.sender].betOn[_sellOf] */\n      0x00\n        /* \"FacctoryContract/WagerContract.sol\":4747:4754  _sellOf */\n      dup3\n        /* \"FacctoryContract/WagerContract.sol\":4720:4755  userInfo[msg.sender].betOn[_sellOf] */\n      dup2\n      mstore\n      0x20\n      add\n      swap1\n      dup2\n      mstore\n      0x20\n      add\n      0x00\n      keccak256\n      0x00\n      swap1\n      sload\n      swap1\n      0x0100\n      exp\n      swap1\n      div\n      0xff\n      and\n        /* \"FacctoryContract/WagerContract.sol\":4713:4756  notBet(userInfo[msg.sender].betOn[_sellOf]) */\n      mload(0x40)\n      0x3c3a312800000000000000000000000000000000000000000000000000000000\n      dup2\n      mstore\n      0x04\n      add\n      tag_152\n      swap2\n      swap1\n      tag_38\n      jump\t// in\n    tag_152:\n      mload(0x40)\n      dup1\n      swap2\n      sub\n      swap1\n      revert\n        /* \"FacctoryContract/WagerContract.sol\":4652:4767  if(!userInfo[msg.sender].betOn[_sellOf]){... */\n    tag_151:\n        /* \"FacctoryContract/WagerContract.sol\":4789:4790  0 */\n      0x00\n        /* \"FacctoryContract/WagerContract.sol\":4779:4785  _price */\n      dup3\n        /* \"FacctoryContract/WagerContract.sol\":4779:4790  _price <= 0 */\n      gt\n        /* \"FacctoryContract/WagerContract.sol\":4776:4841  if(_price <= 0){... */\n      tag_153\n      jumpi\n        /* \"FacctoryContract/WagerContract.sol\":4823:4829  _price */\n      dup2\n        /* \"FacctoryContract/WagerContract.sol\":4812:4830  wrongPrice(_price) */\n      mload(0x40)\n      0xbfc1948200000000000000000000000000000000000000000000000000000000\n      dup2\n      mstore\n      0x04\n      add\n      tag_154\n      swap2\n      swap1\n      tag_88\n      jump\t// in\n    tag_154:\n      mload(0x40)\n      dup1\n      swap2\n      sub\n      swap1\n      revert\n        /* \"FacctoryContract/WagerContract.sol\":4776:4841  if(_price <= 0){... */\n    tag_153:\n        /* \"FacctoryContract/WagerContract.sol\":4873:4874  0 */\n      0x00\n        /* \"FacctoryContract/WagerContract.sol\":4862:4869  _sellOf */\n      dup2\n        /* \"FacctoryContract/WagerContract.sol\":4862:4874  _sellOf == 0 */\n      sub\n        /* \"FacctoryContract/WagerContract.sol\":4859:5090  if(_sellOf == 0){... */\n      tag_155\n      jumpi\n        /* \"FacctoryContract/WagerContract.sol\":4909:4917  userInfo */\n      0x04\n        /* \"FacctoryContract/WagerContract.sol\":4909:4929  userInfo[msg.sender] */\n      0x00\n        /* \"FacctoryContract/WagerContract.sol\":4918:4928  msg.sender */\n      caller\n        /* \"FacctoryContract/WagerContract.sol\":4909:4929  userInfo[msg.sender] */\n      0xffffffffffffffffffffffffffffffffffffffff\n      and\n      0xffffffffffffffffffffffffffffffffffffffff\n      and\n      dup2\n      mstore\n      0x20\n      add\n      swap1\n      dup2\n      mstore\n      0x20\n      add\n      0x00\n      keccak256\n        /* \"FacctoryContract/WagerContract.sol\":4909:4941  userInfo[msg.sender].noBetAmount */\n      0x01\n      add\n      sload\n        /* \"FacctoryContract/WagerContract.sol\":4898:4905  _amount */\n      dup4\n        /* \"FacctoryContract/WagerContract.sol\":4898:4941  _amount <= userInfo[msg.sender].noBetAmount */\n      gt\n      iszero\n        /* \"FacctoryContract/WagerContract.sol\":4890:4963  require(_amount <= userInfo[msg.sender].noBetAmount, \"not enough Amount\") */\n      tag_156\n      jumpi\n      mload(0x40)\n      0x08c379a000000000000000000000000000000000000000000000000000000000\n      dup2\n      mstore\n      0x04\n      add\n      tag_157\n      swap1\n      tag_158\n      jump\t// in\n    tag_157:\n      mload(0x40)\n      dup1\n      swap2\n      sub\n      swap1\n      revert\n    tag_156:\n        /* \"FacctoryContract/WagerContract.sol\":4859:5090  if(_sellOf == 0){... */\n      jump(tag_159)\n    tag_155:\n        /* \"FacctoryContract/WagerContract.sol\":5024:5032  userInfo */\n      0x04\n        /* \"FacctoryContract/WagerContract.sol\":5024:5044  userInfo[msg.sender] */\n      0x00\n        /* \"FacctoryContract/WagerContract.sol\":5033:5043  msg.sender */\n      caller\n        /* \"FacctoryContract/WagerContract.sol\":5024:5044  userInfo[msg.sender] */\n      0xffffffffffffffffffffffffffffffffffffffff\n      and\n      0xffffffffffffffffffffffffffffffffffffffff\n      and\n      dup2\n      mstore\n      0x20\n      add\n      swap1\n      dup2\n      mstore\n      0x20\n      add\n      0x00\n      keccak256\n        /* \"FacctoryContract/WagerContract.sol\":5024:5057  userInfo[msg.sender].yesBetAmount */\n      0x03\n      add\n      sload\n        /* \"FacctoryContract/WagerContract.sol\":5013:5020  _amount */\n      dup4\n        /* \"FacctoryContract/WagerContract.sol\":5013:5057  _amount <= userInfo[msg.sender].yesBetAmount */\n      gt\n      iszero\n        /* \"FacctoryContract/WagerContract.sol\":5005:5079  require(_amount <= userInfo[msg.sender].yesBetAmount, \"not enough Amount\") */\n      tag_160\n      jumpi\n      mload(0x40)\n      0x08c379a000000000000000000000000000000000000000000000000000000000\n      dup2\n      mstore\n      0x04\n      add\n      tag_161\n      swap1\n      tag_158\n      jump\t// in\n    tag_161:\n      mload(0x40)\n      dup1\n      swap2\n      sub\n      swap1\n      revert\n    tag_160:\n        /* \"FacctoryContract/WagerContract.sol\":4859:5090  if(_sellOf == 0){... */\n    tag_159:\n        /* \"FacctoryContract/WagerContract.sol\":5108:5116  userInfo */\n      0x04\n        /* \"FacctoryContract/WagerContract.sol\":5108:5128  userInfo[msg.sender] */\n      0x00\n        /* \"FacctoryContract/WagerContract.sol\":5117:5127  msg.sender */\n      caller\n        /* \"FacctoryContract/WagerContract.sol\":5108:5128  userInfo[msg.sender] */\n      0xffffffffffffffffffffffffffffffffffffffff\n      and\n      0xffffffffffffffffffffffffffffffffffffffff\n      and\n      dup2\n      mstore\n      0x20\n      add\n      swap1\n      dup2\n      mstore\n      0x20\n      add\n      0x00\n      keccak256\n        /* \"FacctoryContract/WagerContract.sol\":5108:5135  userInfo[msg.sender].listNo */\n      0x00\n      add\n      0x00\n        /* \"FacctoryContract/WagerContract.sol\":5108:5137  userInfo[msg.sender].listNo++ */\n      dup2\n      sload\n      dup1\n      swap3\n      swap2\n      swap1\n      tag_162\n      swap1\n      tag_163\n      jump\t// in\n    tag_162:\n      swap2\n      swap1\n      pop\n      sstore\n      pop\n        /* \"FacctoryContract/WagerContract.sol\":5205:5209  true */\n      0x01\n        /* \"FacctoryContract/WagerContract.sol\":5148:5156  sellInfo */\n      0x06\n        /* \"FacctoryContract/WagerContract.sol\":5148:5168  sellInfo[msg.sender] */\n      0x00\n        /* \"FacctoryContract/WagerContract.sol\":5157:5167  msg.sender */\n      caller\n        /* \"FacctoryContract/WagerContract.sol\":5148:5168  sellInfo[msg.sender] */\n      0xffffffffffffffffffffffffffffffffffffffff\n      and\n      0xffffffffffffffffffffffffffffffffffffffff\n      and\n      dup2\n      mstore\n      0x20\n      add\n      swap1\n      dup2\n      mstore\n      0x20\n      add\n      0x00\n      keccak256\n        /* \"FacctoryContract/WagerContract.sol\":5148:5197  sellInfo[msg.sender][userInfo[msg.sender].listNo] */\n      0x00\n        /* \"FacctoryContract/WagerContract.sol\":5169:5177  userInfo */\n      0x04\n        /* \"FacctoryContract/WagerContract.sol\":5169:5189  userInfo[msg.sender] */\n      0x00\n        /* \"FacctoryContract/WagerContract.sol\":5178:5188  msg.sender */\n      caller\n        /* \"FacctoryContract/WagerContract.sol\":5169:5189  userInfo[msg.sender] */\n      0xffffffffffffffffffffffffffffffffffffffff\n      and\n      0xffffffffffffffffffffffffffffffffffffffff\n      and\n      dup2\n      mstore\n      0x20\n      add\n      swap1\n      dup2\n      mstore\n      0x20\n      add\n      0x00\n      keccak256\n        /* \"FacctoryContract/WagerContract.sol\":5169:5196  userInfo[msg.sender].listNo */\n      0x00\n      add\n      sload\n        /* \"FacctoryContract/WagerContract.sol\":5148:5197  sellInfo[msg.sender][userInfo[msg.sender].listNo] */\n      dup2\n      mstore\n      0x20\n      add\n      swap1\n      dup2\n      mstore\n      0x20\n      add\n      0x00\n      keccak256\n        /* \"FacctoryContract/WagerContract.sol\":5148:5202  sellInfo[msg.sender][userInfo[msg.sender].listNo].list */\n      0x00\n      add\n      0x00\n        /* \"FacctoryContract/WagerContract.sol\":5148:5209  sellInfo[msg.sender][userInfo[msg.sender].listNo].list = true */\n      0x0100\n      exp\n      dup2\n      sload\n      dup2\n      0xff\n      mul\n      not\n      and\n      swap1\n      dup4\n      iszero\n      iszero\n      mul\n      or\n      swap1\n      sstore\n      pop\n        /* \"FacctoryContract/WagerContract.sol\":5277:5283  _price */\n      dup2\n        /* \"FacctoryContract/WagerContract.sol\":5219:5227  sellInfo */\n      0x06\n        /* \"FacctoryContract/WagerContract.sol\":5219:5239  sellInfo[msg.sender] */\n      0x00\n        /* \"FacctoryContract/WagerContract.sol\":5228:5238  msg.sender */\n      caller\n        /* \"FacctoryContract/WagerContract.sol\":5219:5239  sellInfo[msg.sender] */\n      0xffffffffffffffffffffffffffffffffffffffff\n      and\n      0xffffffffffffffffffffffffffffffffffffffff\n      and\n      dup2\n      mstore\n      0x20\n      add\n      swap1\n      dup2\n      mstore\n      0x20\n      add\n      0x00\n      keccak256\n        /* \"FacctoryContract/WagerContract.sol\":5219:5268  sellInfo[msg.sender][userInfo[msg.sender].listNo] */\n      0x00\n        /* \"FacctoryContract/WagerContract.sol\":5240:5248  userInfo */\n      0x04\n        /* \"FacctoryContract/WagerContract.sol\":5240:5260  userInfo[msg.sender] */\n      0x00\n        /* \"FacctoryContract/WagerContract.sol\":5249:5259  msg.sender */\n      caller\n        /* \"FacctoryContract/WagerContract.sol\":5240:5260  userInfo[msg.sender] */\n      0xffffffffffffffffffffffffffffffffffffffff\n      and\n      0xffffffffffffffffffffffffffffffffffffffff\n      and\n      dup2\n      mstore\n      0x20\n      add\n      swap1\n      dup2\n      mstore\n      0x20\n      add\n      0x00\n      keccak256\n        /* \"FacctoryContract/WagerContract.sol\":5240:5267  userInfo[msg.sender].listNo */\n      0x00\n      add\n      sload\n        /* \"FacctoryContract/WagerContract.sol\":5219:5268  sellInfo[msg.sender][userInfo[msg.sender].listNo] */\n      dup2\n      mstore\n      0x20\n      add\n      swap1\n      dup2\n      mstore\n      0x20\n      add\n      0x00\n      keccak256\n        /* \"FacctoryContract/WagerContract.sol\":5219:5274  sellInfo[msg.sender][userInfo[msg.sender].listNo].price */\n      0x01\n      add\n        /* \"FacctoryContract/WagerContract.sol\":5219:5283  sellInfo[msg.sender][userInfo[msg.sender].listNo].price = _price */\n      dup2\n      swap1\n      sstore\n      pop\n        /* \"FacctoryContract/WagerContract.sol\":5353:5360  _amount */\n      dup3\n        /* \"FacctoryContract/WagerContract.sol\":5294:5302  sellInfo */\n      0x06\n        /* \"FacctoryContract/WagerContract.sol\":5294:5314  sellInfo[msg.sender] */\n      0x00\n        /* \"FacctoryContract/WagerContract.sol\":5303:5313  msg.sender */\n      caller\n        /* \"FacctoryContract/WagerContract.sol\":5294:5314  sellInfo[msg.sender] */\n      0xffffffffffffffffffffffffffffffffffffffff\n      and\n      0xffffffffffffffffffffffffffffffffffffffff\n      and\n      dup2\n      mstore\n      0x20\n      add\n      swap1\n      dup2\n      mstore\n      0x20\n      add\n      0x00\n      keccak256\n        /* \"FacctoryContract/WagerContract.sol\":5294:5343  sellInfo[msg.sender][userInfo[msg.sender].listNo] */\n      0x00\n        /* \"FacctoryContract/WagerContract.sol\":5315:5323  userInfo */\n      0x04\n        /* \"FacctoryContract/WagerContract.sol\":5315:5335  userInfo[msg.sender] */\n      0x00\n        /* \"FacctoryContract/WagerContract.sol\":5324:5334  msg.sender */\n      caller\n        /* \"FacctoryContract/WagerContract.sol\":5315:5335  userInfo[msg.sender] */\n      0xffffffffffffffffffffffffffffffffffffffff\n      and\n      0xffffffffffffffffffffffffffffffffffffffff\n      and\n      dup2\n      mstore\n      0x20\n      add\n      swap1\n      dup2\n      mstore\n      0x20\n      add\n      0x00\n      keccak256\n        /* \"FacctoryContract/WagerContract.sol\":5315:5342  userInfo[msg.sender].listNo */\n      0x00\n      add\n      sload\n        /* \"FacctoryContract/WagerContract.sol\":5294:5343  sellInfo[msg.sender][userInfo[msg.sender].listNo] */\n      dup2\n      mstore\n      0x20\n      add\n      swap1\n      dup2\n      mstore\n      0x20\n      add\n      0x00\n      keccak256\n        /* \"FacctoryContract/WagerContract.sol\":5294:5350  sellInfo[msg.sender][userInfo[msg.sender].listNo].amount */\n      0x02\n      add\n        /* \"FacctoryContract/WagerContract.sol\":5294:5360  sellInfo[msg.sender][userInfo[msg.sender].listNo].amount = _amount */\n      dup2\n      swap1\n      sstore\n      pop\n        /* \"FacctoryContract/WagerContract.sol\":5429:5439  msg.sender */\n      caller\n        /* \"FacctoryContract/WagerContract.sol\":5371:5379  sellInfo */\n      0x06\n        /* \"FacctoryContract/WagerContract.sol\":5371:5391  sellInfo[msg.sender] */\n      0x00\n        /* \"FacctoryContract/WagerContract.sol\":5380:5390  msg.sender */\n      caller\n        /* \"FacctoryContract/WagerContract.sol\":5371:5391  sellInfo[msg.sender] */\n      0xffffffffffffffffffffffffffffffffffffffff\n      and\n      0xffffffffffffffffffffffffffffffffffffffff\n      and\n      dup2\n      mstore\n      0x20\n      add\n      swap1\n      dup2\n      mstore\n      0x20\n      add\n      0x00\n      keccak256\n        /* \"FacctoryContract/WagerContract.sol\":5371:5420  sellInfo[msg.sender][userInfo[msg.sender].listNo] */\n      0x00\n        /* \"FacctoryContract/WagerContract.sol\":5392:5400  userInfo */\n      0x04\n        /* \"FacctoryContract/WagerContract.sol\":5392:5412  userInfo[msg.sender] */\n      0x00\n        /* \"FacctoryContract/WagerContract.sol\":5401:5411  msg.sender */\n      caller\n        /* \"FacctoryContract/WagerContract.sol\":5392:5412  userInfo[msg.sender] */\n      0xffffffffffffffffffffffffffffffffffffffff\n      and\n      0xffffffffffffffffffffffffffffffffffffffff\n      and\n      dup2\n      mstore\n      0x20\n      add\n      swap1\n      dup2\n      mstore\n      0x20\n      add\n      0x00\n      keccak256\n        /* \"FacctoryContract/WagerContract.sol\":5392:5419  userInfo[msg.sender].listNo */\n      0x00\n      add\n      sload\n        /* \"FacctoryContract/WagerContract.sol\":5371:5420  sellInfo[msg.sender][userInfo[msg.sender].listNo] */\n      dup2\n      mstore\n      0x20\n      add\n      swap1\n      dup2\n      mstore\n      0x20\n      add\n      0x00\n      keccak256\n        /* \"FacctoryContract/WagerContract.sol\":5371:5426  sellInfo[msg.sender][userInfo[msg.sender].listNo].owner */\n      0x00\n      add\n      0x02\n        /* \"FacctoryContract/WagerContract.sol\":5371:5439  sellInfo[msg.sender][userInfo[msg.sender].listNo].owner = msg.sender */\n      0x0100\n      exp\n      dup2\n      sload\n      dup2\n      0xffffffffffffffffffffffffffffffffffffffff\n      mul\n      not\n      and\n      swap1\n      dup4\n      0xffffffffffffffffffffffffffffffffffffffff\n      and\n      mul\n      or\n      swap1\n      sstore\n      pop\n        /* \"FacctoryContract/WagerContract.sol\":5509:5516  _sellOf */\n      dup1\n        /* \"FacctoryContract/WagerContract.sol\":5450:5458  sellInfo */\n      0x06\n        /* \"FacctoryContract/WagerContract.sol\":5450:5470  sellInfo[msg.sender] */\n      0x00\n        /* \"FacctoryContract/WagerContract.sol\":5459:5469  msg.sender */\n      caller\n        /* \"FacctoryContract/WagerContract.sol\":5450:5470  sellInfo[msg.sender] */\n      0xffffffffffffffffffffffffffffffffffffffff\n      and\n      0xffffffffffffffffffffffffffffffffffffffff\n      and\n      dup2\n      mstore\n      0x20\n      add\n      swap1\n      dup2\n      mstore\n      0x20\n      add\n      0x00\n      keccak256\n        /* \"FacctoryContract/WagerContract.sol\":5450:5499  sellInfo[msg.sender][userInfo[msg.sender].listNo] */\n      0x00\n        /* \"FacctoryContract/WagerContract.sol\":5471:5479  userInfo */\n      0x04\n        /* \"FacctoryContract/WagerContract.sol\":5471:5491  userInfo[msg.sender] */\n      0x00\n        /* \"FacctoryContract/WagerContract.sol\":5480:5490  msg.sender */\n      caller\n        /* \"FacctoryContract/WagerContract.sol\":5471:5491  userInfo[msg.sender] */\n      0xffffffffffffffffffffffffffffffffffffffff\n      and\n      0xffffffffffffffffffffffffffffffffffffffff\n      and\n      dup2\n      mstore\n      0x20\n      add\n      swap1\n      dup2\n      mstore\n      0x20\n      add\n      0x00\n      keccak256\n        /* \"FacctoryContract/WagerContract.sol\":5471:5498  userInfo[msg.sender].listNo */\n      0x00\n      add\n      sload\n        /* \"FacctoryContract/WagerContract.sol\":5450:5499  sellInfo[msg.sender][userInfo[msg.sender].listNo] */\n      dup2\n      mstore\n      0x20\n      add\n      swap1\n      dup2\n      mstore\n      0x20\n      add\n      0x00\n      keccak256\n        /* \"FacctoryContract/WagerContract.sol\":5450:5506  sellInfo[msg.sender][userInfo[msg.sender].listNo].listOn */\n      0x03\n      add\n        /* \"FacctoryContract/WagerContract.sol\":5450:5516  sellInfo[msg.sender][userInfo[msg.sender].listNo].listOn = _sellOf */\n      dup2\n      swap1\n      sstore\n      pop\n        /* \"FacctoryContract/WagerContract.sol\":5555:5565  msg.sender */\n      caller\n        /* \"FacctoryContract/WagerContract.sol\":5545:5603  SellShare(msg.sender, userInfo[msg.sender].listNo, _price) */\n      0xffffffffffffffffffffffffffffffffffffffff\n      and\n      0x578d9bb67ff50e6081576125ad4c2410d6e82de6dbc1a5dcac37f8e5aa9ca4f4\n        /* \"FacctoryContract/WagerContract.sol\":5567:5575  userInfo */\n      0x04\n        /* \"FacctoryContract/WagerContract.sol\":5567:5587  userInfo[msg.sender] */\n      0x00\n        /* \"FacctoryContract/WagerContract.sol\":5576:5586  msg.sender */\n      caller\n        /* \"FacctoryContract/WagerContract.sol\":5567:5587  userInfo[msg.sender] */\n      0xffffffffffffffffffffffffffffffffffffffff\n      and\n      0xffffffffffffffffffffffffffffffffffffffff\n      and\n      dup2\n      mstore\n      0x20\n      add\n      swap1\n      dup2\n      mstore\n      0x20\n      add\n      0x00\n      keccak256\n        /* \"FacctoryContract/WagerContract.sol\":5567:5594  userInfo[msg.sender].listNo */\n      0x00\n      add\n      sload\n        /* \"FacctoryContract/WagerContract.sol\":5596:5602  _price */\n      dup5\n        /* \"FacctoryContract/WagerContract.sol\":5545:5603  SellShare(msg.sender, userInfo[msg.sender].listNo, _price) */\n      mload(0x40)\n      tag_164\n      swap3\n      swap2\n      swap1\n      tag_52\n      jump\t// in\n    tag_164:\n      mload(0x40)\n      dup1\n      swap2\n      sub\n      swap1\n      log2\n        /* \"FacctoryContract/WagerContract.sol\":4278:5610  function sellShare(uint256 _amount, uint256 _price, uint256 _sellOf) external {... */\n      pop\n      pop\n      pop\n      jump\t// out\n        /* \"FacctoryContract/WagerContract.sol\":10430:11088  function readMarketInfo(address _market) public view returns (... */\n    tag_69:\n        /* \"FacctoryContract/WagerContract.sol\":10501:10516  uint256 endTime */\n      0x00\n        /* \"FacctoryContract/WagerContract.sol\":10526:10543  uint256 totalBets */\n      dup1\n        /* \"FacctoryContract/WagerContract.sol\":10553:10572  uint256 totalAmount */\n      0x00\n        /* \"FacctoryContract/WagerContract.sol\":10582:10605  uint256 initialPriceYes */\n      dup1\n        /* \"FacctoryContract/WagerContract.sol\":10615:10637  uint256 initialPriceNo */\n      0x00\n        /* \"FacctoryContract/WagerContract.sol\":10647:10669  uint256 totalBetsOnYes */\n      dup1\n        /* \"FacctoryContract/WagerContract.sol\":10679:10700  uint256 totalBetsOnNo */\n      0x00\n        /* \"FacctoryContract/WagerContract.sol\":10738:10748  marketInfo */\n      0x05\n        /* \"FacctoryContract/WagerContract.sol\":10738:10757  marketInfo[_market] */\n      0x00\n        /* \"FacctoryContract/WagerContract.sol\":10749:10756  _market */\n      dup10\n        /* \"FacctoryContract/WagerContract.sol\":10738:10757  marketInfo[_market] */\n      0xffffffffffffffffffffffffffffffffffffffff\n      and\n      0xffffffffffffffffffffffffffffffffffffffff\n      and\n      dup2\n      mstore\n      0x20\n      add\n      swap1\n      dup2\n      mstore\n      0x20\n      add\n      0x00\n      keccak256\n        /* \"FacctoryContract/WagerContract.sol\":10738:10765  marketInfo[_market].endTime */\n      0x01\n      add\n      sload\n        /* \"FacctoryContract/WagerContract.sol\":10779:10789  marketInfo */\n      0x05\n        /* \"FacctoryContract/WagerContract.sol\":10779:10798  marketInfo[_market] */\n      0x00\n        /* \"FacctoryContract/WagerContract.sol\":10790:10797  _market */\n      dup11\n        /* \"FacctoryContract/WagerContract.sol\":10779:10798  marketInfo[_market] */\n      0xffffffffffffffffffffffffffffffffffffffff\n      and\n      0xffffffffffffffffffffffffffffffffffffffff\n      and\n      dup2\n      mstore\n      0x20\n      add\n      swap1\n      dup2\n      mstore\n      0x20\n      add\n      0x00\n      keccak256\n        /* \"FacctoryContract/WagerContract.sol\":10779:10808  marketInfo[_market].totalBets */\n      0x02\n      add\n      sload\n        /* \"FacctoryContract/WagerContract.sol\":10822:10832  marketInfo */\n      0x05\n        /* \"FacctoryContract/WagerContract.sol\":10822:10841  marketInfo[_market] */\n      0x00\n        /* \"FacctoryContract/WagerContract.sol\":10833:10840  _market */\n      dup12\n        /* \"FacctoryContract/WagerContract.sol\":10822:10841  marketInfo[_market] */\n      0xffffffffffffffffffffffffffffffffffffffff\n      and\n      0xffffffffffffffffffffffffffffffffffffffff\n      and\n      dup2\n      mstore\n      0x20\n      add\n      swap1\n      dup2\n      mstore\n      0x20\n      add\n      0x00\n      keccak256\n        /* \"FacctoryContract/WagerContract.sol\":10822:10853  marketInfo[_market].totalAmount */\n      0x03\n      add\n      sload\n        /* \"FacctoryContract/WagerContract.sol\":10867:10877  marketInfo */\n      0x05\n        /* \"FacctoryContract/WagerContract.sol\":10867:10886  marketInfo[_market] */\n      0x00\n        /* \"FacctoryContract/WagerContract.sol\":10878:10885  _market */\n      dup13\n        /* \"FacctoryContract/WagerContract.sol\":10867:10886  marketInfo[_market] */\n      0xffffffffffffffffffffffffffffffffffffffff\n      and\n      0xffffffffffffffffffffffffffffffffffffffff\n      and\n      dup2\n      mstore\n      0x20\n      add\n      swap1\n      dup2\n      mstore\n      0x20\n      add\n      0x00\n      keccak256\n        /* \"FacctoryContract/WagerContract.sol\":10867:10899  marketInfo[_market].initialPrice */\n      0x04\n      add\n        /* \"FacctoryContract/WagerContract.sol\":10900:10901  1 */\n      0x01\n        /* \"FacctoryContract/WagerContract.sol\":10867:10902  marketInfo[_market].initialPrice[1] */\n      0x02\n      dup2\n      lt\n      tag_166\n      jumpi\n      tag_167\n      tag_119\n      jump\t// in\n    tag_167:\n    tag_166:\n      add\n      sload\n        /* \"FacctoryContract/WagerContract.sol\":10929:10939  marketInfo */\n      0x05\n        /* \"FacctoryContract/WagerContract.sol\":10929:10948  marketInfo[_market] */\n      0x00\n        /* \"FacctoryContract/WagerContract.sol\":10940:10947  _market */\n      dup14\n        /* \"FacctoryContract/WagerContract.sol\":10929:10948  marketInfo[_market] */\n      0xffffffffffffffffffffffffffffffffffffffff\n      and\n      0xffffffffffffffffffffffffffffffffffffffff\n      and\n      dup2\n      mstore\n      0x20\n      add\n      swap1\n      dup2\n      mstore\n      0x20\n      add\n      0x00\n      keccak256\n        /* \"FacctoryContract/WagerContract.sol\":10929:10961  marketInfo[_market].initialPrice */\n      0x04\n      add\n        /* \"FacctoryContract/WagerContract.sol\":10962:10963  0 */\n      0x00\n        /* \"FacctoryContract/WagerContract.sol\":10929:10964  marketInfo[_market].initialPrice[0] */\n      0x02\n      dup2\n      lt\n      tag_169\n      jumpi\n      tag_170\n      tag_119\n      jump\t// in\n    tag_170:\n    tag_169:\n      add\n      sload\n        /* \"FacctoryContract/WagerContract.sol\":10990:11000  marketInfo */\n      0x05\n        /* \"FacctoryContract/WagerContract.sol\":10990:11009  marketInfo[_market] */\n      0x00\n        /* \"FacctoryContract/WagerContract.sol\":11001:11008  _market */\n      dup15\n        /* \"FacctoryContract/WagerContract.sol\":10990:11009  marketInfo[_market] */\n      0xffffffffffffffffffffffffffffffffffffffff\n      and\n      0xffffffffffffffffffffffffffffffffffffffff\n      and\n      dup2\n      mstore\n      0x20\n      add\n      swap1\n      dup2\n      mstore\n      0x20\n      add\n      0x00\n      keccak256\n        /* \"FacctoryContract/WagerContract.sol\":10990:11024  marketInfo[_market].totalBetsOnYes */\n      0x06\n      add\n      sload\n        /* \"FacctoryContract/WagerContract.sol\":11038:11048  marketInfo */\n      0x05\n        /* \"FacctoryContract/WagerContract.sol\":11038:11057  marketInfo[_market] */\n      0x00\n        /* \"FacctoryContract/WagerContract.sol\":11049:11056  _market */\n      dup16\n        /* \"FacctoryContract/WagerContract.sol\":11038:11057  marketInfo[_market] */\n      0xffffffffffffffffffffffffffffffffffffffff\n      and\n      0xffffffffffffffffffffffffffffffffffffffff\n      and\n      dup2\n      mstore\n      0x20\n      add\n      swap1\n      dup2\n      mstore\n      0x20\n      add\n      0x00\n      keccak256\n        /* \"FacctoryContract/WagerContract.sol\":11038:11071  marketInfo[_market].totalBetsOnNo */\n      0x07\n      add\n      sload\n        /* \"FacctoryContract/WagerContract.sol\":10717:11081  return (... */\n      swap7\n      pop\n      swap7\n      pop\n      swap7\n      pop\n      swap7\n      pop\n      swap7\n      pop\n      swap7\n      pop\n      swap7\n      pop\n        /* \"FacctoryContract/WagerContract.sol\":10430:11088  function readMarketInfo(address _market) public view returns (... */\n      swap2\n      swap4\n      swap6\n      swap8\n      swap1\n      swap3\n      swap5\n      swap7\n      pop\n      jump\t// out\n        /* \"FacctoryContract/WagerContract.sol\":1069:1133  mapping(address => mapping(uint256 => SellInfo)) public sellInfo */\n    tag_74:\n      mstore(0x20, 0x06)\n      dup2\n      0x00\n      mstore\n      mstore(0x20, keccak256(0x00, 0x40))\n      dup1\n      0x00\n      mstore\n      keccak256(0x00, 0x40)\n      0x00\n      swap2\n      pop\n      swap2\n      pop\n      pop\n      dup1\n      0x00\n      add\n      0x00\n      swap1\n      sload\n      swap1\n      0x0100\n      exp\n      swap1\n      div\n      0xff\n      and\n      swap1\n      dup1\n      0x00\n      add\n      0x01\n      swap1\n      sload\n      swap1\n      0x0100\n      exp\n      swap1\n      div\n      0xff\n      and\n      swap1\n      dup1\n      0x00\n      add\n      0x02\n      swap1\n      sload\n      swap1\n      0x0100\n      exp\n      swap1\n      div\n      0xffffffffffffffffffffffffffffffffffffffff\n      and\n      swap1\n      dup1\n      0x01\n      add\n      sload\n      swap1\n      dup1\n      0x02\n      add\n      sload\n      swap1\n      dup1\n      0x03\n      add\n      sload\n      swap1\n      pop\n      dup7\n      jump\t// out\n        /* \"FacctoryContract/WagerContract.sol\":7101:9372  function resolveMarket(uint256 winningIndex) external   {... */\n    tag_78:\n        /* \"FacctoryContract/WagerContract.sol\":7194:7195  0 */\n      0x00\n        /* \"FacctoryContract/WagerContract.sol\":7178:7190  winningIndex */\n      dup2\n        /* \"FacctoryContract/WagerContract.sol\":7178:7195  winningIndex != 0 */\n      eq\n      iszero\n        /* \"FacctoryContract/WagerContract.sol\":7178:7216  winningIndex != 0 || winningIndex != 1 */\n      dup1\n      tag_173\n      jumpi\n      pop\n        /* \"FacctoryContract/WagerContract.sol\":7215:7216  1 */\n      0x01\n        /* \"FacctoryContract/WagerContract.sol\":7199:7211  winningIndex */\n      dup2\n        /* \"FacctoryContract/WagerContract.sol\":7199:7216  winningIndex != 1 */\n      eq\n      iszero\n        /* \"FacctoryContract/WagerContract.sol\":7178:7216  winningIndex != 0 || winningIndex != 1 */\n    tag_173:\n        /* \"FacctoryContract/WagerContract.sol\":7175:7276  if(winningIndex != 0 || winningIndex != 1){... */\n      iszero\n      tag_174\n      jumpi\n        /* \"FacctoryContract/WagerContract.sol\":7252:7264  winningIndex */\n      dup1\n        /* \"FacctoryContract/WagerContract.sol\":7238:7265  wrongBetIndex(winningIndex) */\n      mload(0x40)\n      0xd7acbe8900000000000000000000000000000000000000000000000000000000\n      dup2\n      mstore\n      0x04\n      add\n      tag_175\n      swap2\n      swap1\n      tag_88\n      jump\t// in\n    tag_175:\n      mload(0x40)\n      dup1\n      swap2\n      sub\n      swap1\n      revert\n        /* \"FacctoryContract/WagerContract.sol\":7175:7276  if(winningIndex != 0 || winningIndex != 1){... */\n    tag_174:\n        /* \"FacctoryContract/WagerContract.sol\":7297:7307  marketInfo */\n      0x05\n        /* \"FacctoryContract/WagerContract.sol\":7297:7322  marketInfo[address(this)] */\n      0x00\n        /* \"FacctoryContract/WagerContract.sol\":7316:7320  this */\n      address\n        /* \"FacctoryContract/WagerContract.sol\":7297:7322  marketInfo[address(this)] */\n      0xffffffffffffffffffffffffffffffffffffffff\n      and\n      0xffffffffffffffffffffffffffffffffffffffff\n      and\n      dup2\n      mstore\n      0x20\n      add\n      swap1\n      dup2\n      mstore\n      0x20\n      add\n      0x00\n      keccak256\n        /* \"FacctoryContract/WagerContract.sol\":7297:7331  marketInfo[address(this)].resolved */\n      0x00\n      add\n      0x00\n      swap1\n      sload\n      swap1\n      0x0100\n      exp\n      swap1\n      div\n      0xff\n      and\n        /* \"FacctoryContract/WagerContract.sol\":7294:7380  if(marketInfo[address(this)].resolved){... */\n      iszero\n      tag_176\n      jumpi\n        /* \"FacctoryContract/WagerContract.sol\":7353:7369  marketResolved() */\n      mload(0x40)\n      0x853fd42100000000000000000000000000000000000000000000000000000000\n      dup2\n      mstore\n      0x04\n      add\n      mload(0x40)\n      dup1\n      swap2\n      sub\n      swap1\n      revert\n        /* \"FacctoryContract/WagerContract.sol\":7294:7380  if(marketInfo[address(this)].resolved){... */\n    tag_176:\n        /* \"FacctoryContract/WagerContract.sol\":7390:7414  uint256 totalWinnerShare */\n      0x00\n        /* \"FacctoryContract/WagerContract.sol\":7429:7438  uint256 i */\n      dup1\n        /* \"FacctoryContract/WagerContract.sol\":7441:7442  0 */\n      0x00\n        /* \"FacctoryContract/WagerContract.sol\":7429:7442  uint256 i = 0 */\n      swap1\n      pop\n        /* \"FacctoryContract/WagerContract.sol\":7425:8253  for(uint256 i = 0; i < totalUsers; i++){... */\n    tag_177:\n        /* \"FacctoryContract/WagerContract.sol\":7448:7458  totalUsers */\n      sload(0x02)\n        /* \"FacctoryContract/WagerContract.sol\":7444:7445  i */\n      dup2\n        /* \"FacctoryContract/WagerContract.sol\":7444:7458  i < totalUsers */\n      lt\n        /* \"FacctoryContract/WagerContract.sol\":7425:8253  for(uint256 i = 0; i < totalUsers; i++){... */\n      iszero\n      tag_178\n      jumpi\n        /* \"FacctoryContract/WagerContract.sol\":7483:7491  userInfo */\n      0x04\n        /* \"FacctoryContract/WagerContract.sol\":7483:7504  userInfo[eachUser[i]] */\n      0x00\n        /* \"FacctoryContract/WagerContract.sol\":7492:7500  eachUser */\n      0x03\n        /* \"FacctoryContract/WagerContract.sol\":7492:7503  eachUser[i] */\n      0x00\n        /* \"FacctoryContract/WagerContract.sol\":7501:7502  i */\n      dup5\n        /* \"FacctoryContract/WagerContract.sol\":7492:7503  eachUser[i] */\n      dup2\n      mstore\n      0x20\n      add\n      swap1\n      dup2\n      mstore\n      0x20\n      add\n      0x00\n      keccak256\n      0x00\n      swap1\n      sload\n      swap1\n      0x0100\n      exp\n      swap1\n      div\n      0xffffffffffffffffffffffffffffffffffffffff\n      and\n        /* \"FacctoryContract/WagerContract.sol\":7483:7504  userInfo[eachUser[i]] */\n      0xffffffffffffffffffffffffffffffffffffffff\n      and\n      0xffffffffffffffffffffffffffffffffffffffff\n      and\n      dup2\n      mstore\n      0x20\n      add\n      swap1\n      dup2\n      mstore\n      0x20\n      add\n      0x00\n      keccak256\n        /* \"FacctoryContract/WagerContract.sol\":7483:7510  userInfo[eachUser[i]].betOn */\n      0x05\n      add\n        /* \"FacctoryContract/WagerContract.sol\":7483:7524  userInfo[eachUser[i]].betOn[winningIndex] */\n      0x00\n        /* \"FacctoryContract/WagerContract.sol\":7511:7523  winningIndex */\n      dup5\n        /* \"FacctoryContract/WagerContract.sol\":7483:7524  userInfo[eachUser[i]].betOn[winningIndex] */\n      dup2\n      mstore\n      0x20\n      add\n      swap1\n      dup2\n      mstore\n      0x20\n      add\n      0x00\n      keccak256\n      0x00\n      swap1\n      sload\n      swap1\n      0x0100\n      exp\n      swap1\n      div\n      0xff\n      and\n        /* \"FacctoryContract/WagerContract.sol\":7480:8240  if(userInfo[eachUser[i]].betOn[winningIndex]) {... */\n      iszero\n      tag_180\n      jumpi\n        /* \"FacctoryContract/WagerContract.sol\":7564:7565  0 */\n      0x00\n        /* \"FacctoryContract/WagerContract.sol\":7548:7560  winningIndex */\n      dup4\n        /* \"FacctoryContract/WagerContract.sol\":7548:7565  winningIndex == 0 */\n      eq\n        /* \"FacctoryContract/WagerContract.sol\":7548:7607  winningIndex == 0 && userInfo[eachUser[i]].noBetAmount != 0 */\n      dup1\n      iszero\n      tag_181\n      jumpi\n      pop\n        /* \"FacctoryContract/WagerContract.sol\":7606:7607  0 */\n      0x00\n        /* \"FacctoryContract/WagerContract.sol\":7569:7577  userInfo */\n      0x04\n        /* \"FacctoryContract/WagerContract.sol\":7569:7590  userInfo[eachUser[i]] */\n      0x00\n        /* \"FacctoryContract/WagerContract.sol\":7578:7586  eachUser */\n      0x03\n        /* \"FacctoryContract/WagerContract.sol\":7578:7589  eachUser[i] */\n      0x00\n        /* \"FacctoryContract/WagerContract.sol\":7587:7588  i */\n      dup6\n        /* \"FacctoryContract/WagerContract.sol\":7578:7589  eachUser[i] */\n      dup2\n      mstore\n      0x20\n      add\n      swap1\n      dup2\n      mstore\n      0x20\n      add\n      0x00\n      keccak256\n      0x00\n      swap1\n      sload\n      swap1\n      0x0100\n      exp\n      swap1\n      div\n      0xffffffffffffffffffffffffffffffffffffffff\n      and\n        /* \"FacctoryContract/WagerContract.sol\":7569:7590  userInfo[eachUser[i]] */\n      0xffffffffffffffffffffffffffffffffffffffff\n      and\n      0xffffffffffffffffffffffffffffffffffffffff\n      and\n      dup2\n      mstore\n      0x20\n      add\n      swap1\n      dup2\n      mstore\n      0x20\n      add\n      0x00\n      keccak256\n        /* \"FacctoryContract/WagerContract.sol\":7569:7602  userInfo[eachUser[i]].noBetAmount */\n      0x01\n      add\n      sload\n        /* \"FacctoryContract/WagerContract.sol\":7569:7607  userInfo[eachUser[i]].noBetAmount != 0 */\n      eq\n      iszero\n        /* \"FacctoryContract/WagerContract.sol\":7548:7607  winningIndex == 0 && userInfo[eachUser[i]].noBetAmount != 0 */\n    tag_181:\n        /* \"FacctoryContract/WagerContract.sol\":7545:8225  if(winningIndex == 0 && userInfo[eachUser[i]].noBetAmount != 0){... */\n      iszero\n      tag_182\n      jumpi\n        /* \"FacctoryContract/WagerContract.sol\":7687:7821  calculateShares(... */\n      tag_183\n        /* \"FacctoryContract/WagerContract.sol\":7728:7736  userInfo */\n      0x04\n        /* \"FacctoryContract/WagerContract.sol\":7728:7749  userInfo[eachUser[i]] */\n      0x00\n        /* \"FacctoryContract/WagerContract.sol\":7737:7745  eachUser */\n      0x03\n        /* \"FacctoryContract/WagerContract.sol\":7737:7748  eachUser[i] */\n      0x00\n        /* \"FacctoryContract/WagerContract.sol\":7746:7747  i */\n      dup6\n        /* \"FacctoryContract/WagerContract.sol\":7737:7748  eachUser[i] */\n      dup2\n      mstore\n      0x20\n      add\n      swap1\n      dup2\n      mstore\n      0x20\n      add\n      0x00\n      keccak256\n      0x00\n      swap1\n      sload\n      swap1\n      0x0100\n      exp\n      swap1\n      div\n      0xffffffffffffffffffffffffffffffffffffffff\n      and\n        /* \"FacctoryContract/WagerContract.sol\":7728:7749  userInfo[eachUser[i]] */\n      0xffffffffffffffffffffffffffffffffffffffff\n      and\n      0xffffffffffffffffffffffffffffffffffffffff\n      and\n      dup2\n      mstore\n      0x20\n      add\n      swap1\n      dup2\n      mstore\n      0x20\n      add\n      0x00\n      keccak256\n        /* \"FacctoryContract/WagerContract.sol\":7728:7761  userInfo[eachUser[i]].noBetAmount */\n      0x01\n      add\n      sload\n        /* \"FacctoryContract/WagerContract.sol\":7787:7799  winningIndex */\n      dup5\n        /* \"FacctoryContract/WagerContract.sol\":7687:7702  calculateShares */\n      tag_98\n        /* \"FacctoryContract/WagerContract.sol\":7687:7821  calculateShares(... */\n      jump\t// in\n    tag_183:\n        /* \"FacctoryContract/WagerContract.sol\":7651:7659  userInfo */\n      0x04\n        /* \"FacctoryContract/WagerContract.sol\":7651:7672  userInfo[eachUser[i]] */\n      0x00\n        /* \"FacctoryContract/WagerContract.sol\":7660:7668  eachUser */\n      0x03\n        /* \"FacctoryContract/WagerContract.sol\":7660:7671  eachUser[i] */\n      0x00\n        /* \"FacctoryContract/WagerContract.sol\":7669:7670  i */\n      dup6\n        /* \"FacctoryContract/WagerContract.sol\":7660:7671  eachUser[i] */\n      dup2\n      mstore\n      0x20\n      add\n      swap1\n      dup2\n      mstore\n      0x20\n      add\n      0x00\n      keccak256\n      0x00\n      swap1\n      sload\n      swap1\n      0x0100\n      exp\n      swap1\n      div\n      0xffffffffffffffffffffffffffffffffffffffff\n      and\n        /* \"FacctoryContract/WagerContract.sol\":7651:7672  userInfo[eachUser[i]] */\n      0xffffffffffffffffffffffffffffffffffffffff\n      and\n      0xffffffffffffffffffffffffffffffffffffffff\n      and\n      dup2\n      mstore\n      0x20\n      add\n      swap1\n      dup2\n      mstore\n      0x20\n      add\n      0x00\n      keccak256\n        /* \"FacctoryContract/WagerContract.sol\":7651:7684  userInfo[eachUser[i]].shareAmount */\n      0x04\n      add\n        /* \"FacctoryContract/WagerContract.sol\":7651:7821  userInfo[eachUser[i]].shareAmount = calculateShares(... */\n      dup2\n      swap1\n      sstore\n      pop\n        /* \"FacctoryContract/WagerContract.sol\":7863:7871  userInfo */\n      0x04\n        /* \"FacctoryContract/WagerContract.sol\":7863:7884  userInfo[eachUser[i]] */\n      0x00\n        /* \"FacctoryContract/WagerContract.sol\":7872:7880  eachUser */\n      0x03\n        /* \"FacctoryContract/WagerContract.sol\":7872:7883  eachUser[i] */\n      0x00\n        /* \"FacctoryContract/WagerContract.sol\":7881:7882  i */\n      dup5\n        /* \"FacctoryContract/WagerContract.sol\":7872:7883  eachUser[i] */\n      dup2\n      mstore\n      0x20\n      add\n      swap1\n      dup2\n      mstore\n      0x20\n      add\n      0x00\n      keccak256\n      0x00\n      swap1\n      sload\n      swap1\n      0x0100\n      exp\n      swap1\n      div\n      0xffffffffffffffffffffffffffffffffffffffff\n      and\n        /* \"FacctoryContract/WagerContract.sol\":7863:7884  userInfo[eachUser[i]] */\n      0xffffffffffffffffffffffffffffffffffffffff\n      and\n      0xffffffffffffffffffffffffffffffffffffffff\n      and\n      dup2\n      mstore\n      0x20\n      add\n      swap1\n      dup2\n      mstore\n      0x20\n      add\n      0x00\n      keccak256\n        /* \"FacctoryContract/WagerContract.sol\":7863:7896  userInfo[eachUser[i]].shareAmount */\n      0x04\n      add\n      sload\n        /* \"FacctoryContract/WagerContract.sol\":7843:7896  totalWinnerShare += userInfo[eachUser[i]].shareAmount */\n      dup3\n      tag_184\n      swap2\n      swap1\n      tag_132\n      jump\t// in\n    tag_184:\n      swap2\n      pop\n        /* \"FacctoryContract/WagerContract.sol\":7545:8225  if(winningIndex == 0 && userInfo[eachUser[i]].noBetAmount != 0){... */\n      jump(tag_185)\n    tag_182:\n        /* \"FacctoryContract/WagerContract.sol\":7995:8130  calculateShares(... */\n      tag_186\n        /* \"FacctoryContract/WagerContract.sol\":8036:8044  userInfo */\n      0x04\n        /* \"FacctoryContract/WagerContract.sol\":8036:8057  userInfo[eachUser[i]] */\n      0x00\n        /* \"FacctoryContract/WagerContract.sol\":8045:8053  eachUser */\n      0x03\n        /* \"FacctoryContract/WagerContract.sol\":8045:8056  eachUser[i] */\n      0x00\n        /* \"FacctoryContract/WagerContract.sol\":8054:8055  i */\n      dup6\n        /* \"FacctoryContract/WagerContract.sol\":8045:8056  eachUser[i] */\n      dup2\n      mstore\n      0x20\n      add\n      swap1\n      dup2\n      mstore\n      0x20\n      add\n      0x00\n      keccak256\n      0x00\n      swap1\n      sload\n      swap1\n      0x0100\n      exp\n      swap1\n      div\n      0xffffffffffffffffffffffffffffffffffffffff\n      and\n        /* \"FacctoryContract/WagerContract.sol\":8036:8057  userInfo[eachUser[i]] */\n      0xffffffffffffffffffffffffffffffffffffffff\n      and\n      0xffffffffffffffffffffffffffffffffffffffff\n      and\n      dup2\n      mstore\n      0x20\n      add\n      swap1\n      dup2\n      mstore\n      0x20\n      add\n      0x00\n      keccak256\n        /* \"FacctoryContract/WagerContract.sol\":8036:8070  userInfo[eachUser[i]].yesBetAmount */\n      0x03\n      add\n      sload\n        /* \"FacctoryContract/WagerContract.sol\":8096:8108  winningIndex */\n      dup5\n        /* \"FacctoryContract/WagerContract.sol\":7995:8010  calculateShares */\n      tag_98\n        /* \"FacctoryContract/WagerContract.sol\":7995:8130  calculateShares(... */\n      jump\t// in\n    tag_186:\n        /* \"FacctoryContract/WagerContract.sol\":7959:7967  userInfo */\n      0x04\n        /* \"FacctoryContract/WagerContract.sol\":7959:7980  userInfo[eachUser[i]] */\n      0x00\n        /* \"FacctoryContract/WagerContract.sol\":7968:7976  eachUser */\n      0x03\n        /* \"FacctoryContract/WagerContract.sol\":7968:7979  eachUser[i] */\n      0x00\n        /* \"FacctoryContract/WagerContract.sol\":7977:7978  i */\n      dup6\n        /* \"FacctoryContract/WagerContract.sol\":7968:7979  eachUser[i] */\n      dup2\n      mstore\n      0x20\n      add\n      swap1\n      dup2\n      mstore\n      0x20\n      add\n      0x00\n      keccak256\n      0x00\n      swap1\n      sload\n      swap1\n      0x0100\n      exp\n      swap1\n      div\n      0xffffffffffffffffffffffffffffffffffffffff\n      and\n        /* \"FacctoryContract/WagerContract.sol\":7959:7980  userInfo[eachUser[i]] */\n      0xffffffffffffffffffffffffffffffffffffffff\n      and\n      0xffffffffffffffffffffffffffffffffffffffff\n      and\n      dup2\n      mstore\n      0x20\n      add\n      swap1\n      dup2\n      mstore\n      0x20\n      add\n      0x00\n      keccak256\n        /* \"FacctoryContract/WagerContract.sol\":7959:7992  userInfo[eachUser[i]].shareAmount */\n      0x04\n      add\n        /* \"FacctoryContract/WagerContract.sol\":7959:8130  userInfo[eachUser[i]].shareAmount = calculateShares(... */\n      dup2\n      swap1\n      sstore\n      pop\n        /* \"FacctoryContract/WagerContract.sol\":8173:8181  userInfo */\n      0x04\n        /* \"FacctoryContract/WagerContract.sol\":8173:8194  userInfo[eachUser[i]] */\n      0x00\n        /* \"FacctoryContract/WagerContract.sol\":8182:8190  eachUser */\n      0x03\n        /* \"FacctoryContract/WagerContract.sol\":8182:8193  eachUser[i] */\n      0x00\n        /* \"FacctoryContract/WagerContract.sol\":8191:8192  i */\n      dup5\n        /* \"FacctoryContract/WagerContract.sol\":8182:8193  eachUser[i] */\n      dup2\n      mstore\n      0x20\n      add\n      swap1\n      dup2\n      mstore\n      0x20\n      add\n      0x00\n      keccak256\n      0x00\n      swap1\n      sload\n      swap1\n      0x0100\n      exp\n      swap1\n      div\n      0xffffffffffffffffffffffffffffffffffffffff\n      and\n        /* \"FacctoryContract/WagerContract.sol\":8173:8194  userInfo[eachUser[i]] */\n      0xffffffffffffffffffffffffffffffffffffffff\n      and\n      0xffffffffffffffffffffffffffffffffffffffff\n      and\n      dup2\n      mstore\n      0x20\n      add\n      swap1\n      dup2\n      mstore\n      0x20\n      add\n      0x00\n      keccak256\n        /* \"FacctoryContract/WagerContract.sol\":8173:8206  userInfo[eachUser[i]].shareAmount */\n      0x04\n      add\n      sload\n        /* \"FacctoryContract/WagerContract.sol\":8153:8206  totalWinnerShare += userInfo[eachUser[i]].shareAmount */\n      dup3\n      tag_187\n      swap2\n      swap1\n      tag_132\n      jump\t// in\n    tag_187:\n      swap2\n      pop\n        /* \"FacctoryContract/WagerContract.sol\":7545:8225  if(winningIndex == 0 && userInfo[eachUser[i]].noBetAmount != 0){... */\n    tag_185:\n        /* \"FacctoryContract/WagerContract.sol\":7480:8240  if(userInfo[eachUser[i]].betOn[winningIndex]) {... */\n    tag_180:\n        /* \"FacctoryContract/WagerContract.sol\":7460:7463  i++ */\n      dup1\n      dup1\n      0x01\n      add\n      swap2\n      pop\n      pop\n        /* \"FacctoryContract/WagerContract.sol\":7425:8253  for(uint256 i = 0; i < totalUsers; i++){... */\n      jump(tag_177)\n    tag_178:\n      pop\n        /* \"FacctoryContract/WagerContract.sol\":8263:8280  uint256 _perShare */\n      0x00\n        /* \"FacctoryContract/WagerContract.sol\":8323:8339  totalWinnerShare */\n      dup2\n        /* \"FacctoryContract/WagerContract.sol\":8283:8293  marketInfo */\n      0x05\n        /* \"FacctoryContract/WagerContract.sol\":8283:8308  marketInfo[address(this)] */\n      0x00\n        /* \"FacctoryContract/WagerContract.sol\":8302:8306  this */\n      address\n        /* \"FacctoryContract/WagerContract.sol\":8283:8308  marketInfo[address(this)] */\n      0xffffffffffffffffffffffffffffffffffffffff\n      and\n      0xffffffffffffffffffffffffffffffffffffffff\n      and\n      dup2\n      mstore\n      0x20\n      add\n      swap1\n      dup2\n      mstore\n      0x20\n      add\n      0x00\n      keccak256\n        /* \"FacctoryContract/WagerContract.sol\":8283:8320  marketInfo[address(this)].totalAmount */\n      0x03\n      add\n      sload\n        /* \"FacctoryContract/WagerContract.sol\":8283:8339  marketInfo[address(this)].totalAmount / totalWinnerShare */\n      tag_188\n      swap2\n      swap1\n      tag_137\n      jump\t// in\n    tag_188:\n        /* \"FacctoryContract/WagerContract.sol\":8263:8339  uint256 _perShare = marketInfo[address(this)].totalAmount / totalWinnerShare */\n      swap1\n      pop\n        /* \"FacctoryContract/WagerContract.sol\":8349:8369  uint256 _ownerAmount */\n      0x00\n        /* \"FacctoryContract/WagerContract.sol\":8393:8402  uint256 i */\n      dup1\n        /* \"FacctoryContract/WagerContract.sol\":8405:8406  0 */\n      0x00\n        /* \"FacctoryContract/WagerContract.sol\":8393:8406  uint256 i = 0 */\n      swap1\n      pop\n        /* \"FacctoryContract/WagerContract.sol\":8388:9115  for (uint256 i = 0; i < totalUsers; i++) {... */\n    tag_189:\n        /* \"FacctoryContract/WagerContract.sol\":8412:8422  totalUsers */\n      sload(0x02)\n        /* \"FacctoryContract/WagerContract.sol\":8408:8409  i */\n      dup2\n        /* \"FacctoryContract/WagerContract.sol\":8408:8422  i < totalUsers */\n      lt\n        /* \"FacctoryContract/WagerContract.sol\":8388:9115  for (uint256 i = 0; i < totalUsers; i++) {... */\n      iszero\n      tag_190\n      jumpi\n        /* \"FacctoryContract/WagerContract.sol\":8459:8467  userInfo */\n      0x04\n        /* \"FacctoryContract/WagerContract.sol\":8459:8480  userInfo[eachUser[i]] */\n      0x00\n        /* \"FacctoryContract/WagerContract.sol\":8468:8476  eachUser */\n      0x03\n        /* \"FacctoryContract/WagerContract.sol\":8468:8479  eachUser[i] */\n      0x00\n        /* \"FacctoryContract/WagerContract.sol\":8477:8478  i */\n      dup5\n        /* \"FacctoryContract/WagerContract.sol\":8468:8479  eachUser[i] */\n      dup2\n      mstore\n      0x20\n      add\n      swap1\n      dup2\n      mstore\n      0x20\n      add\n      0x00\n      keccak256\n      0x00\n      swap1\n      sload\n      swap1\n      0x0100\n      exp\n      swap1\n      div\n      0xffffffffffffffffffffffffffffffffffffffff\n      and\n        /* \"FacctoryContract/WagerContract.sol\":8459:8480  userInfo[eachUser[i]] */\n      0xffffffffffffffffffffffffffffffffffffffff\n      and\n      0xffffffffffffffffffffffffffffffffffffffff\n      and\n      dup2\n      mstore\n      0x20\n      add\n      swap1\n      dup2\n      mstore\n      0x20\n      add\n      0x00\n      keccak256\n        /* \"FacctoryContract/WagerContract.sol\":8459:8486  userInfo[eachUser[i]].betOn */\n      0x05\n      add\n        /* \"FacctoryContract/WagerContract.sol\":8459:8500  userInfo[eachUser[i]].betOn[winningIndex] */\n      0x00\n        /* \"FacctoryContract/WagerContract.sol\":8487:8499  winningIndex */\n      dup7\n        /* \"FacctoryContract/WagerContract.sol\":8459:8500  userInfo[eachUser[i]].betOn[winningIndex] */\n      dup2\n      mstore\n      0x20\n      add\n      swap1\n      dup2\n      mstore\n      0x20\n      add\n      0x00\n      keccak256\n      0x00\n      swap1\n      sload\n      swap1\n      0x0100\n      exp\n      swap1\n      div\n      0xff\n      and\n        /* \"FacctoryContract/WagerContract.sol\":8456:9105  if(userInfo[eachUser[i]].betOn[winningIndex]) {... */\n      iszero\n      tag_192\n      jumpi\n        /* \"FacctoryContract/WagerContract.sol\":8556:8557  0 */\n      0x00\n        /* \"FacctoryContract/WagerContract.sol\":8540:8552  winningIndex */\n      dup6\n        /* \"FacctoryContract/WagerContract.sol\":8540:8557  winningIndex == 0 */\n      sub\n        /* \"FacctoryContract/WagerContract.sol\":8537:8867  if(winningIndex == 0){... */\n      tag_193\n      jumpi\n        /* \"FacctoryContract/WagerContract.sol\":8648:8656  userInfo */\n      0x04\n        /* \"FacctoryContract/WagerContract.sol\":8648:8669  userInfo[eachUser[i]] */\n      0x00\n        /* \"FacctoryContract/WagerContract.sol\":8657:8665  eachUser */\n      0x03\n        /* \"FacctoryContract/WagerContract.sol\":8657:8668  eachUser[i] */\n      0x00\n        /* \"FacctoryContract/WagerContract.sol\":8666:8667  i */\n      dup5\n        /* \"FacctoryContract/WagerContract.sol\":8657:8668  eachUser[i] */\n      dup2\n      mstore\n      0x20\n      add\n      swap1\n      dup2\n      mstore\n      0x20\n      add\n      0x00\n      keccak256\n      0x00\n      swap1\n      sload\n      swap1\n      0x0100\n      exp\n      swap1\n      div\n      0xffffffffffffffffffffffffffffffffffffffff\n      and\n        /* \"FacctoryContract/WagerContract.sol\":8648:8669  userInfo[eachUser[i]] */\n      0xffffffffffffffffffffffffffffffffffffffff\n      and\n      0xffffffffffffffffffffffffffffffffffffffff\n      and\n      dup2\n      mstore\n      0x20\n      add\n      swap1\n      dup2\n      mstore\n      0x20\n      add\n      0x00\n      keccak256\n        /* \"FacctoryContract/WagerContract.sol\":8648:8681  userInfo[eachUser[i]].noBetAmount */\n      0x01\n      add\n      sload\n        /* \"FacctoryContract/WagerContract.sol\":8635:8644  _perShare */\n      dup4\n        /* \"FacctoryContract/WagerContract.sol\":8599:8607  userInfo */\n      0x04\n        /* \"FacctoryContract/WagerContract.sol\":8599:8620  userInfo[eachUser[i]] */\n      0x00\n        /* \"FacctoryContract/WagerContract.sol\":8608:8616  eachUser */\n      0x03\n        /* \"FacctoryContract/WagerContract.sol\":8608:8619  eachUser[i] */\n      0x00\n        /* \"FacctoryContract/WagerContract.sol\":8617:8618  i */\n      dup7\n        /* \"FacctoryContract/WagerContract.sol\":8608:8619  eachUser[i] */\n      dup2\n      mstore\n      0x20\n      add\n      swap1\n      dup2\n      mstore\n      0x20\n      add\n      0x00\n      keccak256\n      0x00\n      swap1\n      sload\n      swap1\n      0x0100\n      exp\n      swap1\n      div\n      0xffffffffffffffffffffffffffffffffffffffff\n      and\n        /* \"FacctoryContract/WagerContract.sol\":8599:8620  userInfo[eachUser[i]] */\n      0xffffffffffffffffffffffffffffffffffffffff\n      and\n      0xffffffffffffffffffffffffffffffffffffffff\n      and\n      dup2\n      mstore\n      0x20\n      add\n      swap1\n      dup2\n      mstore\n      0x20\n      add\n      0x00\n      keccak256\n        /* \"FacctoryContract/WagerContract.sol\":8599:8632  userInfo[eachUser[i]].shareAmount */\n      0x04\n      add\n      sload\n        /* \"FacctoryContract/WagerContract.sol\":8599:8644  userInfo[eachUser[i]].shareAmount * _perShare */\n      tag_194\n      swap2\n      swap1\n      tag_135\n      jump\t// in\n    tag_194:\n        /* \"FacctoryContract/WagerContract.sol\":8598:8681  (userInfo[eachUser[i]].shareAmount * _perShare) - userInfo[eachUser[i]].noBetAmount */\n      tag_195\n      swap2\n      swap1\n      tag_196\n      jump\t// in\n    tag_195:\n        /* \"FacctoryContract/WagerContract.sol\":8581:8682  _ownerAmount += ((userInfo[eachUser[i]].shareAmount * _perShare) - userInfo[eachUser[i]].noBetAmount) */\n      dup3\n      tag_197\n      swap2\n      swap1\n      tag_132\n      jump\t// in\n    tag_197:\n      swap2\n      pop\n        /* \"FacctoryContract/WagerContract.sol\":8537:8867  if(winningIndex == 0){... */\n      jump(tag_198)\n    tag_193:\n        /* \"FacctoryContract/WagerContract.sol\":8813:8821  userInfo */\n      0x04\n        /* \"FacctoryContract/WagerContract.sol\":8813:8834  userInfo[eachUser[i]] */\n      0x00\n        /* \"FacctoryContract/WagerContract.sol\":8822:8830  eachUser */\n      0x03\n        /* \"FacctoryContract/WagerContract.sol\":8822:8833  eachUser[i] */\n      0x00\n        /* \"FacctoryContract/WagerContract.sol\":8831:8832  i */\n      dup5\n        /* \"FacctoryContract/WagerContract.sol\":8822:8833  eachUser[i] */\n      dup2\n      mstore\n      0x20\n      add\n      swap1\n      dup2\n      mstore\n      0x20\n      add\n      0x00\n      keccak256\n      0x00\n      swap1\n      sload\n      swap1\n      0x0100\n      exp\n      swap1\n      div\n      0xffffffffffffffffffffffffffffffffffffffff\n      and\n        /* \"FacctoryContract/WagerContract.sol\":8813:8834  userInfo[eachUser[i]] */\n      0xffffffffffffffffffffffffffffffffffffffff\n      and\n      0xffffffffffffffffffffffffffffffffffffffff\n      and\n      dup2\n      mstore\n      0x20\n      add\n      swap1\n      dup2\n      mstore\n      0x20\n      add\n      0x00\n      keccak256\n        /* \"FacctoryContract/WagerContract.sol\":8813:8847  userInfo[eachUser[i]].yesBetAmount */\n      0x03\n      add\n      sload\n        /* \"FacctoryContract/WagerContract.sol\":8800:8809  _perShare */\n      dup4\n        /* \"FacctoryContract/WagerContract.sol\":8764:8772  userInfo */\n      0x04\n        /* \"FacctoryContract/WagerContract.sol\":8764:8785  userInfo[eachUser[i]] */\n      0x00\n        /* \"FacctoryContract/WagerContract.sol\":8773:8781  eachUser */\n      0x03\n        /* \"FacctoryContract/WagerContract.sol\":8773:8784  eachUser[i] */\n      0x00\n        /* \"FacctoryContract/WagerContract.sol\":8782:8783  i */\n      dup7\n        /* \"FacctoryContract/WagerContract.sol\":8773:8784  eachUser[i] */\n      dup2\n      mstore\n      0x20\n      add\n      swap1\n      dup2\n      mstore\n      0x20\n      add\n      0x00\n      keccak256\n      0x00\n      swap1\n      sload\n      swap1\n      0x0100\n      exp\n      swap1\n      div\n      0xffffffffffffffffffffffffffffffffffffffff\n      and\n        /* \"FacctoryContract/WagerContract.sol\":8764:8785  userInfo[eachUser[i]] */\n      0xffffffffffffffffffffffffffffffffffffffff\n      and\n      0xffffffffffffffffffffffffffffffffffffffff\n      and\n      dup2\n      mstore\n      0x20\n      add\n      swap1\n      dup2\n      mstore\n      0x20\n      add\n      0x00\n      keccak256\n        /* \"FacctoryContract/WagerContract.sol\":8764:8797  userInfo[eachUser[i]].shareAmount */\n      0x04\n      add\n      sload\n        /* \"FacctoryContract/WagerContract.sol\":8764:8809  userInfo[eachUser[i]].shareAmount * _perShare */\n      tag_199\n      swap2\n      swap1\n      tag_135\n      jump\t// in\n    tag_199:\n        /* \"FacctoryContract/WagerContract.sol\":8763:8847  (userInfo[eachUser[i]].shareAmount * _perShare) - userInfo[eachUser[i]].yesBetAmount */\n      tag_200\n      swap2\n      swap1\n      tag_196\n      jump\t// in\n    tag_200:\n        /* \"FacctoryContract/WagerContract.sol\":8746:8848  _ownerAmount += ((userInfo[eachUser[i]].shareAmount * _perShare) - userInfo[eachUser[i]].yesBetAmount) */\n      dup3\n      tag_201\n      swap2\n      swap1\n      tag_132\n      jump\t// in\n    tag_201:\n      swap2\n      pop\n        /* \"FacctoryContract/WagerContract.sol\":8537:8867  if(winningIndex == 0){... */\n    tag_198:\n        /* \"FacctoryContract/WagerContract.sol\":8885:8897  bool success */\n      0x00\n        /* \"FacctoryContract/WagerContract.sol\":8900:8909  usdcToken */\n      0x01\n      0x00\n      swap1\n      sload\n      swap1\n      0x0100\n      exp\n      swap1\n      div\n      0xffffffffffffffffffffffffffffffffffffffff\n      and\n        /* \"FacctoryContract/WagerContract.sol\":8900:8918  usdcToken.transfer */\n      0xffffffffffffffffffffffffffffffffffffffff\n      and\n      0xa9059cbb\n        /* \"FacctoryContract/WagerContract.sol\":8940:8948  eachUser */\n      0x03\n        /* \"FacctoryContract/WagerContract.sol\":8940:8951  eachUser[i] */\n      0x00\n        /* \"FacctoryContract/WagerContract.sol\":8949:8950  i */\n      dup6\n        /* \"FacctoryContract/WagerContract.sol\":8940:8951  eachUser[i] */\n      dup2\n      mstore\n      0x20\n      add\n      swap1\n      dup2\n      mstore\n      0x20\n      add\n      0x00\n      keccak256\n      0x00\n      swap1\n      sload\n      swap1\n      0x0100\n      exp\n      swap1\n      div\n      0xffffffffffffffffffffffffffffffffffffffff\n      and\n        /* \"FacctoryContract/WagerContract.sol\":9009:9018  _perShare */\n      dup7\n        /* \"FacctoryContract/WagerContract.sol\":8973:8981  userInfo */\n      0x04\n        /* \"FacctoryContract/WagerContract.sol\":8973:8994  userInfo[eachUser[i]] */\n      0x00\n        /* \"FacctoryContract/WagerContract.sol\":8982:8990  eachUser */\n      0x03\n        /* \"FacctoryContract/WagerContract.sol\":8982:8993  eachUser[i] */\n      0x00\n        /* \"FacctoryContract/WagerContract.sol\":8991:8992  i */\n      dup10\n        /* \"FacctoryContract/WagerContract.sol\":8982:8993  eachUser[i] */\n      dup2\n      mstore\n      0x20\n      add\n      swap1\n      dup2\n      mstore\n      0x20\n      add\n      0x00\n      keccak256\n      0x00\n      swap1\n      sload\n      swap1\n      0x0100\n      exp\n      swap1\n      div\n      0xffffffffffffffffffffffffffffffffffffffff\n      and\n        /* \"FacctoryContract/WagerContract.sol\":8973:8994  userInfo[eachUser[i]] */\n      0xffffffffffffffffffffffffffffffffffffffff\n      and\n      0xffffffffffffffffffffffffffffffffffffffff\n      and\n      dup2\n      mstore\n      0x20\n      add\n      swap1\n      dup2\n      mstore\n      0x20\n      add\n      0x00\n      keccak256\n        /* \"FacctoryContract/WagerContract.sol\":8973:9006  userInfo[eachUser[i]].shareAmount */\n      0x04\n      add\n      sload\n        /* \"FacctoryContract/WagerContract.sol\":8973:9018  userInfo[eachUser[i]].shareAmount * _perShare */\n      tag_202\n      swap2\n      swap1\n      tag_135\n      jump\t// in\n    tag_202:\n        /* \"FacctoryContract/WagerContract.sol\":8900:9036  usdcToken.transfer(... */\n      mload(0x40)\n      dup4\n      0xffffffff\n      and\n      0xe0\n      shl\n      dup2\n      mstore\n      0x04\n      add\n      tag_203\n      swap3\n      swap2\n      swap1\n      tag_204\n      jump\t// in\n    tag_203:\n      0x20\n      mload(0x40)\n      dup1\n      dup4\n      sub\n      dup2\n      0x00\n      dup8\n      gas\n      call\n      iszero\n      dup1\n      iszero\n      tag_206\n      jumpi\n      returndatasize\n      0x00\n      dup1\n      returndatacopy\n      revert(0x00, returndatasize)\n    tag_206:\n      pop\n      pop\n      pop\n      pop\n      mload(0x40)\n      returndatasize\n      not(0x1f)\n      0x1f\n      dup3\n      add\n      and\n      dup3\n      add\n      dup1\n      0x40\n      mstore\n      pop\n      dup2\n      add\n      swap1\n      tag_207\n      swap2\n      swap1\n      tag_208\n      jump\t// in\n    tag_207:\n        /* \"FacctoryContract/WagerContract.sol\":8885:9036  bool success = usdcToken.transfer(... */\n      swap1\n      pop\n        /* \"FacctoryContract/WagerContract.sol\":9062:9069  success */\n      dup1\n        /* \"FacctoryContract/WagerContract.sol\":9054:9089  require(success, \"Transfer failed\") */\n      tag_209\n      jumpi\n      mload(0x40)\n      0x08c379a000000000000000000000000000000000000000000000000000000000\n      dup2\n      mstore\n      0x04\n      add\n      tag_210\n      swap1\n      tag_211\n      jump\t// in\n    tag_210:\n      mload(0x40)\n      dup1\n      swap2\n      sub\n      swap1\n      revert\n    tag_209:\n        /* \"FacctoryContract/WagerContract.sol\":8502:9105  {... */\n      pop\n        /* \"FacctoryContract/WagerContract.sol\":8456:9105  if(userInfo[eachUser[i]].betOn[winningIndex]) {... */\n    tag_192:\n        /* \"FacctoryContract/WagerContract.sol\":8424:8427  i++ */\n      dup1\n      dup1\n      0x01\n      add\n      swap2\n      pop\n      pop\n        /* \"FacctoryContract/WagerContract.sol\":8388:9115  for (uint256 i = 0; i < totalUsers; i++) {... */\n      jump(tag_189)\n    tag_190:\n      pop\n        /* \"FacctoryContract/WagerContract.sol\":9162:9166  true */\n      0x01\n        /* \"FacctoryContract/WagerContract.sol\":9125:9135  marketInfo */\n      0x05\n        /* \"FacctoryContract/WagerContract.sol\":9125:9150  marketInfo[address(this)] */\n      0x00\n        /* \"FacctoryContract/WagerContract.sol\":9144:9148  this */\n      address\n        /* \"FacctoryContract/WagerContract.sol\":9125:9150  marketInfo[address(this)] */\n      0xffffffffffffffffffffffffffffffffffffffff\n      and\n      0xffffffffffffffffffffffffffffffffffffffff\n      and\n      dup2\n      mstore\n      0x20\n      add\n      swap1\n      dup2\n      mstore\n      0x20\n      add\n      0x00\n      keccak256\n        /* \"FacctoryContract/WagerContract.sol\":9125:9159  marketInfo[address(this)].resolved */\n      0x00\n      add\n      0x00\n        /* \"FacctoryContract/WagerContract.sol\":9125:9166  marketInfo[address(this)].resolved = true */\n      0x0100\n      exp\n      dup2\n      sload\n      dup2\n      0xff\n      mul\n      not\n      and\n      swap1\n      dup4\n      iszero\n      iszero\n      mul\n      or\n      swap1\n      sstore\n      pop\n        /* \"FacctoryContract/WagerContract.sol\":9185:9198  bool success1 */\n      0x00\n        /* \"FacctoryContract/WagerContract.sol\":9201:9210  usdcToken */\n      0x01\n      0x00\n      swap1\n      sload\n      swap1\n      0x0100\n      exp\n      swap1\n      div\n      0xffffffffffffffffffffffffffffffffffffffff\n      and\n        /* \"FacctoryContract/WagerContract.sol\":9201:9219  usdcToken.transfer */\n      0xffffffffffffffffffffffffffffffffffffffff\n      and\n      0xa9059cbb\n        /* \"FacctoryContract/WagerContract.sol\":9220:9227  owner() */\n      tag_212\n        /* \"FacctoryContract/WagerContract.sol\":9220:9225  owner */\n      tag_90\n        /* \"FacctoryContract/WagerContract.sol\":9220:9227  owner() */\n      jump\t// in\n    tag_212:\n        /* \"FacctoryContract/WagerContract.sol\":9228:9240  _ownerAmount */\n      dup5\n        /* \"FacctoryContract/WagerContract.sol\":9201:9241  usdcToken.transfer(owner(),_ownerAmount) */\n      mload(0x40)\n      dup4\n      0xffffffff\n      and\n      0xe0\n      shl\n      dup2\n      mstore\n      0x04\n      add\n      tag_213\n      swap3\n      swap2\n      swap1\n      tag_204\n      jump\t// in\n    tag_213:\n      0x20\n      mload(0x40)\n      dup1\n      dup4\n      sub\n      dup2\n      0x00\n      dup8\n      gas\n      call\n      iszero\n      dup1\n      iszero\n      tag_215\n      jumpi\n      returndatasize\n      0x00\n      dup1\n      returndatacopy\n      revert(0x00, returndatasize)\n    tag_215:\n      pop\n      pop\n      pop\n      pop\n      mload(0x40)\n      returndatasize\n      not(0x1f)\n      0x1f\n      dup3\n      add\n      and\n      dup3\n      add\n      dup1\n      0x40\n      mstore\n      pop\n      dup2\n      add\n      swap1\n      tag_216\n      swap2\n      swap1\n      tag_208\n      jump\t// in\n    tag_216:\n        /* \"FacctoryContract/WagerContract.sol\":9185:9241  bool success1 = usdcToken.transfer(owner(),_ownerAmount) */\n      swap1\n      pop\n        /* \"FacctoryContract/WagerContract.sol\":9259:9267  success1 */\n      dup1\n        /* \"FacctoryContract/WagerContract.sol\":9251:9287  require(success1, \"Transfer failed\") */\n      tag_217\n      jumpi\n      mload(0x40)\n      0x08c379a000000000000000000000000000000000000000000000000000000000\n      dup2\n      mstore\n      0x04\n      add\n      tag_218\n      swap1\n      tag_211\n      jump\t// in\n    tag_218:\n      mload(0x40)\n      dup1\n      swap2\n      sub\n      swap1\n      revert\n    tag_217:\n        /* \"FacctoryContract/WagerContract.sol\":9303:9365  ResolveMarket( owner(), _ownerAmount, _perShare, winningIndex) */\n      0x4d21af759c8d2f25c6246594b4cfc2edeb2b901bc0c6e87f5e21c212a12ca1fd\n        /* \"FacctoryContract/WagerContract.sol\":9318:9325  owner() */\n      tag_219\n        /* \"FacctoryContract/WagerContract.sol\":9318:9323  owner */\n      tag_90\n        /* \"FacctoryContract/WagerContract.sol\":9318:9325  owner() */\n      jump\t// in\n    tag_219:\n        /* \"FacctoryContract/WagerContract.sol\":9327:9339  _ownerAmount */\n      dup4\n        /* \"FacctoryContract/WagerContract.sol\":9341:9350  _perShare */\n      dup6\n        /* \"FacctoryContract/WagerContract.sol\":9352:9364  winningIndex */\n      dup9\n        /* \"FacctoryContract/WagerContract.sol\":9303:9365  ResolveMarket( owner(), _ownerAmount, _perShare, winningIndex) */\n      mload(0x40)\n      tag_220\n      swap5\n      swap4\n      swap3\n      swap2\n      swap1\n      tag_221\n      jump\t// in\n    tag_220:\n      mload(0x40)\n      dup1\n      swap2\n      sub\n      swap1\n      log1\n        /* \"FacctoryContract/WagerContract.sol\":7157:9372  {... */\n      pop\n      pop\n      pop\n      pop\n        /* \"FacctoryContract/WagerContract.sol\":7101:9372  function resolveMarket(uint256 winningIndex) external   {... */\n      pop\n      jump\t// out\n        /* \"FacctoryContract/WagerContract.sol\":2188:3508  function bet(uint256 _amount, uint256 _betOn) external {... */\n    tag_81:\n        /* \"FacctoryContract/WagerContract.sol\":2267:2268  0 */\n      0x00\n        /* \"FacctoryContract/WagerContract.sol\":2257:2263  _betOn */\n      dup2\n        /* \"FacctoryContract/WagerContract.sol\":2257:2268  _betOn != 0 */\n      eq\n      iszero\n        /* \"FacctoryContract/WagerContract.sol\":2257:2283  _betOn != 0 || _betOn != 1 */\n      dup1\n      tag_223\n      jumpi\n      pop\n        /* \"FacctoryContract/WagerContract.sol\":2282:2283  1 */\n      0x01\n        /* \"FacctoryContract/WagerContract.sol\":2272:2278  _betOn */\n      dup2\n        /* \"FacctoryContract/WagerContract.sol\":2272:2283  _betOn != 1 */\n      eq\n      iszero\n        /* \"FacctoryContract/WagerContract.sol\":2257:2283  _betOn != 0 || _betOn != 1 */\n    tag_223:\n        /* \"FacctoryContract/WagerContract.sol\":2254:2337  if(_betOn != 0 || _betOn != 1){... */\n      iszero\n      tag_224\n      jumpi\n        /* \"FacctoryContract/WagerContract.sol\":2319:2325  _betOn */\n      dup1\n        /* \"FacctoryContract/WagerContract.sol\":2305:2326  wrongBetIndex(_betOn) */\n      mload(0x40)\n      0xd7acbe8900000000000000000000000000000000000000000000000000000000\n      dup2\n      mstore\n      0x04\n      add\n      tag_225\n      swap2\n      swap1\n      tag_88\n      jump\t// in\n    tag_225:\n      mload(0x40)\n      dup1\n      swap2\n      sub\n      swap1\n      revert\n        /* \"FacctoryContract/WagerContract.sol\":2254:2337  if(_betOn != 0 || _betOn != 1){... */\n    tag_224:\n        /* \"FacctoryContract/WagerContract.sol\":2360:2361  0 */\n      0x00\n        /* \"FacctoryContract/WagerContract.sol\":2349:2356  _amount */\n      dup3\n        /* \"FacctoryContract/WagerContract.sol\":2349:2361  _amount <= 0 */\n      gt\n        /* \"FacctoryContract/WagerContract.sol\":2346:2414  if(_amount <= 0){... */\n      tag_226\n      jumpi\n        /* \"FacctoryContract/WagerContract.sol\":2395:2402  _amount */\n      dup2\n        /* \"FacctoryContract/WagerContract.sol\":2383:2403  wrongAmount(_amount) */\n      mload(0x40)\n      0x2ff4783000000000000000000000000000000000000000000000000000000000\n      dup2\n      mstore\n      0x04\n      add\n      tag_227\n      swap2\n      swap1\n      tag_88\n      jump\t// in\n    tag_227:\n      mload(0x40)\n      dup1\n      swap2\n      sub\n      swap1\n      revert\n        /* \"FacctoryContract/WagerContract.sol\":2346:2414  if(_amount <= 0){... */\n    tag_226:\n        /* \"FacctoryContract/WagerContract.sol\":2435:2445  marketInfo */\n      0x05\n        /* \"FacctoryContract/WagerContract.sol\":2435:2460  marketInfo[address(this)] */\n      0x00\n        /* \"FacctoryContract/WagerContract.sol\":2454:2458  this */\n      address\n        /* \"FacctoryContract/WagerContract.sol\":2435:2460  marketInfo[address(this)] */\n      0xffffffffffffffffffffffffffffffffffffffff\n      and\n      0xffffffffffffffffffffffffffffffffffffffff\n      and\n      dup2\n      mstore\n      0x20\n      add\n      swap1\n      dup2\n      mstore\n      0x20\n      add\n      0x00\n      keccak256\n        /* \"FacctoryContract/WagerContract.sol\":2435:2469  marketInfo[address(this)].resolved */\n      0x00\n      add\n      0x00\n      swap1\n      sload\n      swap1\n      0x0100\n      exp\n      swap1\n      div\n      0xff\n      and\n        /* \"FacctoryContract/WagerContract.sol\":2432:2518  if(marketInfo[address(this)].resolved){... */\n      iszero\n      tag_228\n      jumpi\n        /* \"FacctoryContract/WagerContract.sol\":2491:2507  marketResolved() */\n      mload(0x40)\n      0x853fd42100000000000000000000000000000000000000000000000000000000\n      dup2\n      mstore\n      0x04\n      add\n      mload(0x40)\n      dup1\n      swap2\n      sub\n      swap1\n      revert\n        /* \"FacctoryContract/WagerContract.sol\":2432:2518  if(marketInfo[address(this)].resolved){... */\n    tag_228:\n        /* \"FacctoryContract/WagerContract.sol\":2541:2549  userInfo */\n      0x04\n        /* \"FacctoryContract/WagerContract.sol\":2541:2561  userInfo[msg.sender] */\n      0x00\n        /* \"FacctoryContract/WagerContract.sol\":2550:2560  msg.sender */\n      caller\n        /* \"FacctoryContract/WagerContract.sol\":2541:2561  userInfo[msg.sender] */\n      0xffffffffffffffffffffffffffffffffffffffff\n      and\n      0xffffffffffffffffffffffffffffffffffffffff\n      and\n      dup2\n      mstore\n      0x20\n      add\n      swap1\n      dup2\n      mstore\n      0x20\n      add\n      0x00\n      keccak256\n        /* \"FacctoryContract/WagerContract.sol\":2541:2567  userInfo[msg.sender].betOn */\n      0x05\n      add\n        /* \"FacctoryContract/WagerContract.sol\":2541:2575  userInfo[msg.sender].betOn[_betOn] */\n      0x00\n        /* \"FacctoryContract/WagerContract.sol\":2568:2574  _betOn */\n      dup3\n        /* \"FacctoryContract/WagerContract.sol\":2541:2575  userInfo[msg.sender].betOn[_betOn] */\n      dup2\n      mstore\n      0x20\n      add\n      swap1\n      dup2\n      mstore\n      0x20\n      add\n      0x00\n      keccak256\n      0x00\n      swap1\n      sload\n      swap1\n      0x0100\n      exp\n      swap1\n      div\n      0xff\n      and\n        /* \"FacctoryContract/WagerContract.sol\":2537:2665  if(!userInfo[msg.sender].betOn[_betOn]){     ... */\n      tag_229\n      jumpi\n        /* \"FacctoryContract/WagerContract.sol\":2618:2628  msg.sender */\n      caller\n        /* \"FacctoryContract/WagerContract.sol\":2595:2603  eachUser */\n      0x03\n        /* \"FacctoryContract/WagerContract.sol\":2595:2615  eachUser[totalUsers] */\n      0x00\n        /* \"FacctoryContract/WagerContract.sol\":2604:2614  totalUsers */\n      sload(0x02)\n        /* \"FacctoryContract/WagerContract.sol\":2595:2615  eachUser[totalUsers] */\n      dup2\n      mstore\n      0x20\n      add\n      swap1\n      dup2\n      mstore\n      0x20\n      add\n      0x00\n      keccak256\n      0x00\n        /* \"FacctoryContract/WagerContract.sol\":2595:2628  eachUser[totalUsers] = msg.sender */\n      0x0100\n      exp\n      dup2\n      sload\n      dup2\n      0xffffffffffffffffffffffffffffffffffffffff\n      mul\n      not\n      and\n      swap1\n      dup4\n      0xffffffffffffffffffffffffffffffffffffffff\n      and\n      mul\n      or\n      swap1\n      sstore\n      pop\n        /* \"FacctoryContract/WagerContract.sol\":2642:2652  totalUsers */\n      0x02\n      0x00\n        /* \"FacctoryContract/WagerContract.sol\":2642:2654  totalUsers++ */\n      dup2\n      sload\n      dup1\n      swap3\n      swap2\n      swap1\n      tag_230\n      swap1\n      tag_163\n      jump\t// in\n    tag_230:\n      swap2\n      swap1\n      pop\n      sstore\n      pop\n        /* \"FacctoryContract/WagerContract.sol\":2537:2665  if(!userInfo[msg.sender].betOn[_betOn]){     ... */\n    tag_229:\n        /* \"FacctoryContract/WagerContract.sol\":2688:2689  0 */\n      0x00\n        /* \"FacctoryContract/WagerContract.sol\":2678:2684  _betOn */\n      dup2\n        /* \"FacctoryContract/WagerContract.sol\":2678:2689  _betOn == 0 */\n      sub\n        /* \"FacctoryContract/WagerContract.sol\":2675:2949  if(_betOn == 0 ){... */\n      tag_231\n      jumpi\n        /* \"FacctoryContract/WagerContract.sol\":2706:2716  marketInfo */\n      0x05\n        /* \"FacctoryContract/WagerContract.sol\":2706:2731  marketInfo[address(this)] */\n      0x00\n        /* \"FacctoryContract/WagerContract.sol\":2725:2729  this */\n      address\n        /* \"FacctoryContract/WagerContract.sol\":2706:2731  marketInfo[address(this)] */\n      0xffffffffffffffffffffffffffffffffffffffff\n      and\n      0xffffffffffffffffffffffffffffffffffffffff\n      and\n      dup2\n      mstore\n      0x20\n      add\n      swap1\n      dup2\n      mstore\n      0x20\n      add\n      0x00\n      keccak256\n        /* \"FacctoryContract/WagerContract.sol\":2706:2745  marketInfo[address(this)].totalBetsOnNo */\n      0x07\n      add\n      0x00\n        /* \"FacctoryContract/WagerContract.sol\":2706:2747  marketInfo[address(this)].totalBetsOnNo++ */\n      dup2\n      sload\n      dup1\n      swap3\n      swap2\n      swap1\n      tag_232\n      swap1\n      tag_163\n      jump\t// in\n    tag_232:\n      swap2\n      swap1\n      pop\n      sstore\n      pop\n        /* \"FacctoryContract/WagerContract.sol\":2797:2804  _amount */\n      dup2\n        /* \"FacctoryContract/WagerContract.sol\":2761:2769  userInfo */\n      0x04\n        /* \"FacctoryContract/WagerContract.sol\":2761:2781  userInfo[msg.sender] */\n      0x00\n        /* \"FacctoryContract/WagerContract.sol\":2770:2780  msg.sender */\n      caller\n        /* \"FacctoryContract/WagerContract.sol\":2761:2781  userInfo[msg.sender] */\n      0xffffffffffffffffffffffffffffffffffffffff\n      and\n      0xffffffffffffffffffffffffffffffffffffffff\n      and\n      dup2\n      mstore\n      0x20\n      add\n      swap1\n      dup2\n      mstore\n      0x20\n      add\n      0x00\n      keccak256\n        /* \"FacctoryContract/WagerContract.sol\":2761:2793  userInfo[msg.sender].noBetAmount */\n      0x01\n      add\n      0x00\n        /* \"FacctoryContract/WagerContract.sol\":2761:2804  userInfo[msg.sender].noBetAmount += _amount */\n      dup3\n      dup3\n      sload\n      tag_233\n      swap2\n      swap1\n      tag_132\n      jump\t// in\n    tag_233:\n      swap3\n      pop\n      pop\n      dup2\n      swap1\n      sstore\n      pop\n        /* \"FacctoryContract/WagerContract.sol\":2675:2949  if(_betOn == 0 ){... */\n      jump(tag_234)\n    tag_231:\n        /* \"FacctoryContract/WagerContract.sol\":2836:2846  marketInfo */\n      0x05\n        /* \"FacctoryContract/WagerContract.sol\":2836:2861  marketInfo[address(this)] */\n      0x00\n        /* \"FacctoryContract/WagerContract.sol\":2855:2859  this */\n      address\n        /* \"FacctoryContract/WagerContract.sol\":2836:2861  marketInfo[address(this)] */\n      0xffffffffffffffffffffffffffffffffffffffff\n      and\n      0xffffffffffffffffffffffffffffffffffffffff\n      and\n      dup2\n      mstore\n      0x20\n      add\n      swap1\n      dup2\n      mstore\n      0x20\n      add\n      0x00\n      keccak256\n        /* \"FacctoryContract/WagerContract.sol\":2836:2876  marketInfo[address(this)].totalBetsOnYes */\n      0x06\n      add\n      0x00\n        /* \"FacctoryContract/WagerContract.sol\":2836:2878  marketInfo[address(this)].totalBetsOnYes++ */\n      dup2\n      sload\n      dup1\n      swap3\n      swap2\n      swap1\n      tag_235\n      swap1\n      tag_163\n      jump\t// in\n    tag_235:\n      swap2\n      swap1\n      pop\n      sstore\n      pop\n        /* \"FacctoryContract/WagerContract.sol\":2931:2938  _amount */\n      dup2\n        /* \"FacctoryContract/WagerContract.sol\":2894:2902  userInfo */\n      0x04\n        /* \"FacctoryContract/WagerContract.sol\":2894:2914  userInfo[msg.sender] */\n      0x00\n        /* \"FacctoryContract/WagerContract.sol\":2903:2913  msg.sender */\n      caller\n        /* \"FacctoryContract/WagerContract.sol\":2894:2914  userInfo[msg.sender] */\n      0xffffffffffffffffffffffffffffffffffffffff\n      and\n      0xffffffffffffffffffffffffffffffffffffffff\n      and\n      dup2\n      mstore\n      0x20\n      add\n      swap1\n      dup2\n      mstore\n      0x20\n      add\n      0x00\n      keccak256\n        /* \"FacctoryContract/WagerContract.sol\":2894:2927  userInfo[msg.sender].yesBetAmount */\n      0x03\n      add\n      0x00\n        /* \"FacctoryContract/WagerContract.sol\":2894:2938  userInfo[msg.sender].yesBetAmount += _amount */\n      dup3\n      dup3\n      sload\n      tag_236\n      swap2\n      swap1\n      tag_132\n      jump\t// in\n    tag_236:\n      swap3\n      pop\n      pop\n      dup2\n      swap1\n      sstore\n      pop\n        /* \"FacctoryContract/WagerContract.sol\":2675:2949  if(_betOn == 0 ){... */\n    tag_234:\n        /* \"FacctoryContract/WagerContract.sol\":3000:3007  _amount */\n      dup2\n        /* \"FacctoryContract/WagerContract.sol\":2959:2969  marketInfo */\n      0x05\n        /* \"FacctoryContract/WagerContract.sol\":2959:2984  marketInfo[address(this)] */\n      0x00\n        /* \"FacctoryContract/WagerContract.sol\":2978:2982  this */\n      address\n        /* \"FacctoryContract/WagerContract.sol\":2959:2984  marketInfo[address(this)] */\n      0xffffffffffffffffffffffffffffffffffffffff\n      and\n      0xffffffffffffffffffffffffffffffffffffffff\n      and\n      dup2\n      mstore\n      0x20\n      add\n      swap1\n      dup2\n      mstore\n      0x20\n      add\n      0x00\n      keccak256\n        /* \"FacctoryContract/WagerContract.sol\":2959:2996  marketInfo[address(this)].totalAmount */\n      0x03\n      add\n      0x00\n        /* \"FacctoryContract/WagerContract.sol\":2959:3007  marketInfo[address(this)].totalAmount += _amount */\n      dup3\n      dup3\n      sload\n      tag_237\n      swap2\n      swap1\n      tag_132\n      jump\t// in\n    tag_237:\n      swap3\n      pop\n      pop\n      dup2\n      swap1\n      sstore\n      pop\n        /* \"FacctoryContract/WagerContract.sol\":3017:3027  marketInfo */\n      0x05\n        /* \"FacctoryContract/WagerContract.sol\":3017:3042  marketInfo[address(this)] */\n      0x00\n        /* \"FacctoryContract/WagerContract.sol\":3036:3040  this */\n      address\n        /* \"FacctoryContract/WagerContract.sol\":3017:3042  marketInfo[address(this)] */\n      0xffffffffffffffffffffffffffffffffffffffff\n      and\n      0xffffffffffffffffffffffffffffffffffffffff\n      and\n      dup2\n      mstore\n      0x20\n      add\n      swap1\n      dup2\n      mstore\n      0x20\n      add\n      0x00\n      keccak256\n        /* \"FacctoryContract/WagerContract.sol\":3017:3052  marketInfo[address(this)].totalBets */\n      0x02\n      add\n      0x00\n        /* \"FacctoryContract/WagerContract.sol\":3017:3054  marketInfo[address(this)].totalBets++ */\n      dup2\n      sload\n      dup1\n      swap3\n      swap2\n      swap1\n      tag_238\n      swap1\n      tag_163\n      jump\t// in\n    tag_238:\n      swap2\n      swap1\n      pop\n      sstore\n      pop\n        /* \"FacctoryContract/WagerContract.sol\":3101:3105  true */\n      0x01\n        /* \"FacctoryContract/WagerContract.sol\":3064:3072  userInfo */\n      0x04\n        /* \"FacctoryContract/WagerContract.sol\":3064:3084  userInfo[msg.sender] */\n      0x00\n        /* \"FacctoryContract/WagerContract.sol\":3073:3083  msg.sender */\n      caller\n        /* \"FacctoryContract/WagerContract.sol\":3064:3084  userInfo[msg.sender] */\n      0xffffffffffffffffffffffffffffffffffffffff\n      and\n      0xffffffffffffffffffffffffffffffffffffffff\n      and\n      dup2\n      mstore\n      0x20\n      add\n      swap1\n      dup2\n      mstore\n      0x20\n      add\n      0x00\n      keccak256\n        /* \"FacctoryContract/WagerContract.sol\":3064:3090  userInfo[msg.sender].betOn */\n      0x05\n      add\n        /* \"FacctoryContract/WagerContract.sol\":3064:3098  userInfo[msg.sender].betOn[_betOn] */\n      0x00\n        /* \"FacctoryContract/WagerContract.sol\":3091:3097  _betOn */\n      dup4\n        /* \"FacctoryContract/WagerContract.sol\":3064:3098  userInfo[msg.sender].betOn[_betOn] */\n      dup2\n      mstore\n      0x20\n      add\n      swap1\n      dup2\n      mstore\n      0x20\n      add\n      0x00\n      keccak256\n      0x00\n        /* \"FacctoryContract/WagerContract.sol\":3064:3105  userInfo[msg.sender].betOn[_betOn] = true */\n      0x0100\n      exp\n      dup2\n      sload\n      dup2\n      0xff\n      mul\n      not\n      and\n      swap1\n      dup4\n      iszero\n      iszero\n      mul\n      or\n      swap1\n      sstore\n      pop\n        /* \"FacctoryContract/WagerContract.sol\":3218:3317  PriceCalculation(marketInfo[address(this)].totalBetsOnNo, marketInfo[address(this)].totalBetsOnYes) */\n      tag_239\n        /* \"FacctoryContract/WagerContract.sol\":3235:3245  marketInfo */\n      0x05\n        /* \"FacctoryContract/WagerContract.sol\":3235:3260  marketInfo[address(this)] */\n      0x00\n        /* \"FacctoryContract/WagerContract.sol\":3254:3258  this */\n      address\n        /* \"FacctoryContract/WagerContract.sol\":3235:3260  marketInfo[address(this)] */\n      0xffffffffffffffffffffffffffffffffffffffff\n      and\n      0xffffffffffffffffffffffffffffffffffffffff\n      and\n      dup2\n      mstore\n      0x20\n      add\n      swap1\n      dup2\n      mstore\n      0x20\n      add\n      0x00\n      keccak256\n        /* \"FacctoryContract/WagerContract.sol\":3235:3274  marketInfo[address(this)].totalBetsOnNo */\n      0x07\n      add\n      sload\n        /* \"FacctoryContract/WagerContract.sol\":3276:3286  marketInfo */\n      0x05\n        /* \"FacctoryContract/WagerContract.sol\":3276:3301  marketInfo[address(this)] */\n      0x00\n        /* \"FacctoryContract/WagerContract.sol\":3295:3299  this */\n      address\n        /* \"FacctoryContract/WagerContract.sol\":3276:3301  marketInfo[address(this)] */\n      0xffffffffffffffffffffffffffffffffffffffff\n      and\n      0xffffffffffffffffffffffffffffffffffffffff\n      and\n      dup2\n      mstore\n      0x20\n      add\n      swap1\n      dup2\n      mstore\n      0x20\n      add\n      0x00\n      keccak256\n        /* \"FacctoryContract/WagerContract.sol\":3276:3316  marketInfo[address(this)].totalBetsOnYes */\n      0x06\n      add\n      sload\n        /* \"FacctoryContract/WagerContract.sol\":3218:3234  PriceCalculation */\n      tag_56\n        /* \"FacctoryContract/WagerContract.sol\":3218:3317  PriceCalculation(marketInfo[address(this)].totalBetsOnNo, marketInfo[address(this)].totalBetsOnYes) */\n      jump\t// in\n    tag_239:\n        /* \"FacctoryContract/WagerContract.sol\":3118:3128  marketInfo */\n      0x05\n        /* \"FacctoryContract/WagerContract.sol\":3118:3143  marketInfo[address(this)] */\n      0x00\n        /* \"FacctoryContract/WagerContract.sol\":3137:3141  this */\n      address\n        /* \"FacctoryContract/WagerContract.sol\":3118:3143  marketInfo[address(this)] */\n      0xffffffffffffffffffffffffffffffffffffffff\n      and\n      0xffffffffffffffffffffffffffffffffffffffff\n      and\n      dup2\n      mstore\n      0x20\n      add\n      swap1\n      dup2\n      mstore\n      0x20\n      add\n      0x00\n      keccak256\n        /* \"FacctoryContract/WagerContract.sol\":3118:3156  marketInfo[address(this)].initialPrice */\n      0x04\n      add\n        /* \"FacctoryContract/WagerContract.sol\":3157:3158  0 */\n      0x00\n        /* \"FacctoryContract/WagerContract.sol\":3118:3159  marketInfo[address(this)].initialPrice[0] */\n      0x02\n      dup2\n      lt\n      tag_240\n      jumpi\n      tag_241\n      tag_119\n      jump\t// in\n    tag_241:\n    tag_240:\n      add\n      0x00\n        /* \"FacctoryContract/WagerContract.sol\":3160:3170  marketInfo */\n      0x05\n        /* \"FacctoryContract/WagerContract.sol\":3160:3185  marketInfo[address(this)] */\n      0x00\n        /* \"FacctoryContract/WagerContract.sol\":3179:3183  this */\n      address\n        /* \"FacctoryContract/WagerContract.sol\":3160:3185  marketInfo[address(this)] */\n      0xffffffffffffffffffffffffffffffffffffffff\n      and\n      0xffffffffffffffffffffffffffffffffffffffff\n      and\n      dup2\n      mstore\n      0x20\n      add\n      swap1\n      dup2\n      mstore\n      0x20\n      add\n      0x00\n      keccak256\n        /* \"FacctoryContract/WagerContract.sol\":3160:3198  marketInfo[address(this)].initialPrice */\n      0x04\n      add\n        /* \"FacctoryContract/WagerContract.sol\":3199:3200  1 */\n      0x01\n        /* \"FacctoryContract/WagerContract.sol\":3160:3201  marketInfo[address(this)].initialPrice[1] */\n      0x02\n      dup2\n      lt\n      tag_243\n      jumpi\n      tag_244\n      tag_119\n      jump\t// in\n    tag_244:\n    tag_243:\n      add\n      0x00\n        /* \"FacctoryContract/WagerContract.sol\":3117:3317  (marketInfo[address(this)].initialPrice[0],marketInfo[address(this)].initialPrice[1]) = ... */\n      dup5\n      swap2\n      swap1\n      pop\n      sstore\n      dup4\n      swap2\n      swap1\n      pop\n      sstore\n      pop\n      pop\n        /* \"FacctoryContract/WagerContract.sol\":3335:3347  bool success */\n      0x00\n        /* \"FacctoryContract/WagerContract.sol\":3350:3359  usdcToken */\n      0x01\n      0x00\n      swap1\n      sload\n      swap1\n      0x0100\n      exp\n      swap1\n      div\n      0xffffffffffffffffffffffffffffffffffffffff\n      and\n        /* \"FacctoryContract/WagerContract.sol\":3350:3372  usdcToken.transferFrom */\n      0xffffffffffffffffffffffffffffffffffffffff\n      and\n      0x23b872dd\n        /* \"FacctoryContract/WagerContract.sol\":3373:3383  msg.sender */\n      caller\n        /* \"FacctoryContract/WagerContract.sol\":3393:3397  this */\n      address\n        /* \"FacctoryContract/WagerContract.sol\":3400:3407  _amount */\n      dup7\n        /* \"FacctoryContract/WagerContract.sol\":3350:3408  usdcToken.transferFrom(msg.sender, address(this), _amount) */\n      mload(0x40)\n      dup5\n      0xffffffff\n      and\n      0xe0\n      shl\n      dup2\n      mstore\n      0x04\n      add\n      tag_246\n      swap4\n      swap3\n      swap2\n      swap1\n      tag_247\n      jump\t// in\n    tag_246:\n      0x20\n      mload(0x40)\n      dup1\n      dup4\n      sub\n      dup2\n      0x00\n      dup8\n      gas\n      call\n      iszero\n      dup1\n      iszero\n      tag_249\n      jumpi\n      returndatasize\n      0x00\n      dup1\n      returndatacopy\n      revert(0x00, returndatasize)\n    tag_249:\n      pop\n      pop\n      pop\n      pop\n      mload(0x40)\n      returndatasize\n      not(0x1f)\n      0x1f\n      dup3\n      add\n      and\n      dup3\n      add\n      dup1\n      0x40\n      mstore\n      pop\n      dup2\n      add\n      swap1\n      tag_250\n      swap2\n      swap1\n      tag_208\n      jump\t// in\n    tag_250:\n        /* \"FacctoryContract/WagerContract.sol\":3335:3408  bool success = usdcToken.transferFrom(msg.sender, address(this), _amount) */\n      swap1\n      pop\n        /* \"FacctoryContract/WagerContract.sol\":3426:3433  success */\n      dup1\n        /* \"FacctoryContract/WagerContract.sol\":3418:3453  require(success, \"Transfer failed\") */\n      tag_251\n      jumpi\n      mload(0x40)\n      0x08c379a000000000000000000000000000000000000000000000000000000000\n      dup2\n      mstore\n      0x04\n      add\n      tag_252\n      swap1\n      tag_211\n      jump\t// in\n    tag_252:\n      mload(0x40)\n      dup1\n      swap2\n      sub\n      swap1\n      revert\n    tag_251:\n        /* \"FacctoryContract/WagerContract.sol\":3485:3492  _amount */\n      dup3\n        /* \"FacctoryContract/WagerContract.sol\":3473:3483  msg.sender */\n      caller\n        /* \"FacctoryContract/WagerContract.sol\":3469:3501  Bet(msg.sender, _amount, _betOn) */\n      0xffffffffffffffffffffffffffffffffffffffff\n      and\n      0xf41b7910e085d0992d604fd470931728fd77cc8eb504d99e50e51a0a30fcfd1a\n        /* \"FacctoryContract/WagerContract.sol\":3494:3500  _betOn */\n      dup5\n        /* \"FacctoryContract/WagerContract.sol\":3469:3501  Bet(msg.sender, _amount, _betOn) */\n      mload(0x40)\n      tag_253\n      swap2\n      swap1\n      tag_88\n      jump\t// in\n    tag_253:\n      mload(0x40)\n      dup1\n      swap2\n      sub\n      swap1\n      log3\n        /* \"FacctoryContract/WagerContract.sol\":2243:3508  {... */\n      pop\n        /* \"FacctoryContract/WagerContract.sol\":2188:3508  function bet(uint256 _amount, uint256 _betOn) external {... */\n      pop\n      pop\n      jump\t// out\n        /* \"@openzeppelin/contracts/access/Ownable.sol\":2293:2394  function renounceOwnership() public virtual onlyOwner {... */\n    tag_83:\n        /* \"@openzeppelin/contracts/access/Ownable.sol\":1531:1544  _checkOwner() */\n      tag_255\n        /* \"@openzeppelin/contracts/access/Ownable.sol\":1531:1542  _checkOwner */\n      tag_256\n        /* \"@openzeppelin/contracts/access/Ownable.sol\":1531:1544  _checkOwner() */\n      jump\t// in\n    tag_255:\n        /* \"@openzeppelin/contracts/access/Ownable.sol\":2357:2387  _transferOwnership(address(0)) */\n      tag_258\n        /* \"@openzeppelin/contracts/access/Ownable.sol\":2384:2385  0 */\n      0x00\n        /* \"@openzeppelin/contracts/access/Ownable.sol\":2357:2375  _transferOwnership */\n      tag_259\n        /* \"@openzeppelin/contracts/access/Ownable.sol\":2357:2387  _transferOwnership(address(0)) */\n      jump\t// in\n    tag_258:\n        /* \"@openzeppelin/contracts/access/Ownable.sol\":2293:2394  function renounceOwnership() public virtual onlyOwner {... */\n      jump\t// out\n        /* \"FacctoryContract/WagerContract.sol\":9933:10241  function calculateInvestment(uint256 shares, uint256 _betOn) public view returns (uint256) {... */\n    tag_86:\n        /* \"FacctoryContract/WagerContract.sol\":10015:10022  uint256 */\n      0x00\n        /* \"FacctoryContract/WagerContract.sol\":10060:10061  0 */\n      dup1\n        /* \"FacctoryContract/WagerContract.sol\":10051:10057  shares */\n      dup4\n        /* \"FacctoryContract/WagerContract.sol\":10051:10061  shares > 0 */\n      gt\n        /* \"FacctoryContract/WagerContract.sol\":10043:10098  require(shares > 0, \"Shares must be greater than zero\") */\n      tag_261\n      jumpi\n      mload(0x40)\n      0x08c379a000000000000000000000000000000000000000000000000000000000\n      dup2\n      mstore\n      0x04\n      add\n      tag_262\n      swap1\n      tag_263\n      jump\t// in\n    tag_262:\n      mload(0x40)\n      dup1\n      swap2\n      sub\n      swap1\n      revert\n    tag_261:\n        /* \"FacctoryContract/WagerContract.sol\":10108:10129  uint256 amountInCents */\n      0x00\n        /* \"FacctoryContract/WagerContract.sol\":10192:10195  100 */\n      0x64\n        /* \"FacctoryContract/WagerContract.sol\":10142:10152  marketInfo */\n      0x05\n        /* \"FacctoryContract/WagerContract.sol\":10142:10167  marketInfo[address(this)] */\n      0x00\n        /* \"FacctoryContract/WagerContract.sol\":10161:10165  this */\n      address\n        /* \"FacctoryContract/WagerContract.sol\":10142:10167  marketInfo[address(this)] */\n      0xffffffffffffffffffffffffffffffffffffffff\n      and\n      0xffffffffffffffffffffffffffffffffffffffff\n      and\n      dup2\n      mstore\n      0x20\n      add\n      swap1\n      dup2\n      mstore\n      0x20\n      add\n      0x00\n      keccak256\n        /* \"FacctoryContract/WagerContract.sol\":10142:10180  marketInfo[address(this)].initialPrice */\n      0x04\n      add\n        /* \"FacctoryContract/WagerContract.sol\":10181:10187  _betOn */\n      dup5\n        /* \"FacctoryContract/WagerContract.sol\":10142:10188  marketInfo[address(this)].initialPrice[_betOn] */\n      0x02\n      dup2\n      lt\n      tag_264\n      jumpi\n      tag_265\n      tag_119\n      jump\t// in\n    tag_265:\n    tag_264:\n      add\n      sload\n        /* \"FacctoryContract/WagerContract.sol\":10133:10139  shares */\n      dup6\n        /* \"FacctoryContract/WagerContract.sol\":10133:10188  shares * marketInfo[address(this)].initialPrice[_betOn] */\n      tag_267\n      swap2\n      swap1\n      tag_135\n      jump\t// in\n    tag_267:\n        /* \"FacctoryContract/WagerContract.sol\":10132:10195  (shares * marketInfo[address(this)].initialPrice[_betOn]) / 100 */\n      tag_268\n      swap2\n      swap1\n      tag_137\n      jump\t// in\n    tag_268:\n        /* \"FacctoryContract/WagerContract.sol\":10108:10195  uint256 amountInCents = (shares * marketInfo[address(this)].initialPrice[_betOn]) / 100 */\n      swap1\n      pop\n        /* \"FacctoryContract/WagerContract.sol\":10221:10234  amountInCents */\n      dup1\n        /* \"FacctoryContract/WagerContract.sol\":10214:10234  return amountInCents */\n      swap2\n      pop\n      pop\n        /* \"FacctoryContract/WagerContract.sol\":9933:10241  function calculateInvestment(uint256 shares, uint256 _betOn) public view returns (uint256) {... */\n      swap3\n      swap2\n      pop\n      pop\n      jump\t// out\n        /* \"@openzeppelin/contracts/access/Ownable.sol\":1638:1723  function owner() public view virtual returns (address) {... */\n    tag_90:\n        /* \"@openzeppelin/contracts/access/Ownable.sol\":1684:1691  address */\n      0x00\n        /* \"@openzeppelin/contracts/access/Ownable.sol\":1710:1716  _owner */\n      dup1\n      0x00\n      swap1\n      sload\n      swap1\n      0x0100\n      exp\n      swap1\n      div\n      0xffffffffffffffffffffffffffffffffffffffff\n      and\n        /* \"@openzeppelin/contracts/access/Ownable.sol\":1703:1716  return _owner */\n      swap1\n      pop\n        /* \"@openzeppelin/contracts/access/Ownable.sol\":1638:1723  function owner() public view virtual returns (address) {... */\n      swap1\n      jump\t// out\n        /* \"FacctoryContract/WagerContract.sol\":11094:11536  function readUserInfo(address _user) public view returns (... */\n    tag_94:\n        /* \"FacctoryContract/WagerContract.sol\":11161:11175  uint256 listNo */\n      0x00\n        /* \"FacctoryContract/WagerContract.sol\":11185:11204  uint256 noBetAmount */\n      dup1\n        /* \"FacctoryContract/WagerContract.sol\":11214:11234  uint256 rewardAmount */\n      0x00\n        /* \"FacctoryContract/WagerContract.sol\":11244:11264  uint256 yesBetAmount */\n      dup1\n        /* \"FacctoryContract/WagerContract.sol\":11274:11293  uint256 shareAmount */\n      0x00\n        /* \"FacctoryContract/WagerContract.sol\":11331:11339  userInfo */\n      0x04\n        /* \"FacctoryContract/WagerContract.sol\":11331:11346  userInfo[_user] */\n      0x00\n        /* \"FacctoryContract/WagerContract.sol\":11340:11345  _user */\n      dup8\n        /* \"FacctoryContract/WagerContract.sol\":11331:11346  userInfo[_user] */\n      0xffffffffffffffffffffffffffffffffffffffff\n      and\n      0xffffffffffffffffffffffffffffffffffffffff\n      and\n      dup2\n      mstore\n      0x20\n      add\n      swap1\n      dup2\n      mstore\n      0x20\n      add\n      0x00\n      keccak256\n        /* \"FacctoryContract/WagerContract.sol\":11331:11353  userInfo[_user].listNo */\n      0x00\n      add\n      sload\n        /* \"FacctoryContract/WagerContract.sol\":11367:11375  userInfo */\n      0x04\n        /* \"FacctoryContract/WagerContract.sol\":11367:11382  userInfo[_user] */\n      0x00\n        /* \"FacctoryContract/WagerContract.sol\":11376:11381  _user */\n      dup9\n        /* \"FacctoryContract/WagerContract.sol\":11367:11382  userInfo[_user] */\n      0xffffffffffffffffffffffffffffffffffffffff\n      and\n      0xffffffffffffffffffffffffffffffffffffffff\n      and\n      dup2\n      mstore\n      0x20\n      add\n      swap1\n      dup2\n      mstore\n      0x20\n      add\n      0x00\n      keccak256\n        /* \"FacctoryContract/WagerContract.sol\":11367:11394  userInfo[_user].noBetAmount */\n      0x01\n      add\n      sload\n        /* \"FacctoryContract/WagerContract.sol\":11408:11416  userInfo */\n      0x04\n        /* \"FacctoryContract/WagerContract.sol\":11408:11423  userInfo[_user] */\n      0x00\n        /* \"FacctoryContract/WagerContract.sol\":11417:11422  _user */\n      dup10\n        /* \"FacctoryContract/WagerContract.sol\":11408:11423  userInfo[_user] */\n      0xffffffffffffffffffffffffffffffffffffffff\n      and\n      0xffffffffffffffffffffffffffffffffffffffff\n      and\n      dup2\n      mstore\n      0x20\n      add\n      swap1\n      dup2\n      mstore\n      0x20\n      add\n      0x00\n      keccak256\n        /* \"FacctoryContract/WagerContract.sol\":11408:11436  userInfo[_user].rewardAmount */\n      0x02\n      add\n      sload\n        /* \"FacctoryContract/WagerContract.sol\":11450:11458  userInfo */\n      0x04\n        /* \"FacctoryContract/WagerContract.sol\":11450:11465  userInfo[_user] */\n      0x00\n        /* \"FacctoryContract/WagerContract.sol\":11459:11464  _user */\n      dup11\n        /* \"FacctoryContract/WagerContract.sol\":11450:11465  userInfo[_user] */\n      0xffffffffffffffffffffffffffffffffffffffff\n      and\n      0xffffffffffffffffffffffffffffffffffffffff\n      and\n      dup2\n      mstore\n      0x20\n      add\n      swap1\n      dup2\n      mstore\n      0x20\n      add\n      0x00\n      keccak256\n        /* \"FacctoryContract/WagerContract.sol\":11450:11478  userInfo[_user].yesBetAmount */\n      0x03\n      add\n      sload\n        /* \"FacctoryContract/WagerContract.sol\":11492:11500  userInfo */\n      0x04\n        /* \"FacctoryContract/WagerContract.sol\":11492:11507  userInfo[_user] */\n      0x00\n        /* \"FacctoryContract/WagerContract.sol\":11501:11506  _user */\n      dup12\n        /* \"FacctoryContract/WagerContract.sol\":11492:11507  userInfo[_user] */\n      0xffffffffffffffffffffffffffffffffffffffff\n      and\n      0xffffffffffffffffffffffffffffffffffffffff\n      and\n      dup2\n      mstore\n      0x20\n      add\n      swap1\n      dup2\n      mstore\n      0x20\n      add\n      0x00\n      keccak256\n        /* \"FacctoryContract/WagerContract.sol\":11492:11519  userInfo[_user].shareAmount */\n      0x04\n      add\n      sload\n        /* \"FacctoryContract/WagerContract.sol\":11310:11529  return (... */\n      swap5\n      pop\n      swap5\n      pop\n      swap5\n      pop\n      swap5\n      pop\n      swap5\n      pop\n        /* \"FacctoryContract/WagerContract.sol\":11094:11536  function readUserInfo(address _user) public view returns (... */\n      swap2\n      swap4\n      swap6\n      swap1\n      swap3\n      swap5\n      pop\n      jump\t// out\n        /* \"FacctoryContract/WagerContract.sol\":9383:9698  function calculateShares(uint256 _amount, uint256 _betOn ) public view returns (uint256) {... */\n    tag_98:\n        /* \"FacctoryContract/WagerContract.sol\":9463:9470  uint256 */\n      0x00\n        /* \"FacctoryContract/WagerContract.sol\":9483:9496  uint256 price */\n      dup1\n        /* \"FacctoryContract/WagerContract.sol\":9500:9510  marketInfo */\n      0x05\n        /* \"FacctoryContract/WagerContract.sol\":9500:9525  marketInfo[address(this)] */\n      0x00\n        /* \"FacctoryContract/WagerContract.sol\":9519:9523  this */\n      address\n        /* \"FacctoryContract/WagerContract.sol\":9500:9525  marketInfo[address(this)] */\n      0xffffffffffffffffffffffffffffffffffffffff\n      and\n      0xffffffffffffffffffffffffffffffffffffffff\n      and\n      dup2\n      mstore\n      0x20\n      add\n      swap1\n      dup2\n      mstore\n      0x20\n      add\n      0x00\n      keccak256\n        /* \"FacctoryContract/WagerContract.sol\":9500:9538  marketInfo[address(this)].initialPrice */\n      0x04\n      add\n        /* \"FacctoryContract/WagerContract.sol\":9539:9545  _betOn */\n      dup4\n        /* \"FacctoryContract/WagerContract.sol\":9500:9546  marketInfo[address(this)].initialPrice[_betOn] */\n      0x02\n      dup2\n      lt\n      tag_272\n      jumpi\n      tag_273\n      tag_119\n      jump\t// in\n    tag_273:\n    tag_272:\n      add\n      sload\n        /* \"FacctoryContract/WagerContract.sol\":9483:9546  uint256 price =  marketInfo[address(this)].initialPrice[_betOn] */\n      swap1\n      pop\n        /* \"FacctoryContract/WagerContract.sol\":9582:9583  0 */\n      0x00\n        /* \"FacctoryContract/WagerContract.sol\":9573:9578  price */\n      dup2\n        /* \"FacctoryContract/WagerContract.sol\":9573:9583  price != 0 */\n      sub\n        /* \"FacctoryContract/WagerContract.sol\":9565:9609  require(price != 0, \"_price cannot be zero\") */\n      tag_275\n      jumpi\n      mload(0x40)\n      0x08c379a000000000000000000000000000000000000000000000000000000000\n      dup2\n      mstore\n      0x04\n      add\n      tag_276\n      swap1\n      tag_277\n      jump\t// in\n    tag_276:\n      mload(0x40)\n      dup1\n      swap2\n      sub\n      swap1\n      revert\n    tag_275:\n        /* \"FacctoryContract/WagerContract.sol\":9619:9633  uint256 result */\n      0x00\n        /* \"FacctoryContract/WagerContract.sol\":9654:9659  price */\n      dup2\n        /* \"FacctoryContract/WagerContract.sol\":9647:9650  100 */\n      0x64\n        /* \"FacctoryContract/WagerContract.sol\":9637:9644  _amount */\n      dup7\n        /* \"FacctoryContract/WagerContract.sol\":9637:9650  _amount * 100 */\n      tag_278\n      swap2\n      swap1\n      tag_135\n      jump\t// in\n    tag_278:\n        /* \"FacctoryContract/WagerContract.sol\":9636:9659  (_amount * 100) / price */\n      tag_279\n      swap2\n      swap1\n      tag_137\n      jump\t// in\n    tag_279:\n        /* \"FacctoryContract/WagerContract.sol\":9619:9659  uint256 result = (_amount * 100) / price */\n      swap1\n      pop\n        /* \"FacctoryContract/WagerContract.sol\":9685:9691  result */\n      dup1\n        /* \"FacctoryContract/WagerContract.sol\":9678:9691  return result */\n      swap3\n      pop\n      pop\n      pop\n        /* \"FacctoryContract/WagerContract.sol\":9383:9698  function calculateShares(uint256 _amount, uint256 _betOn ) public view returns (uint256) {... */\n      swap3\n      swap2\n      pop\n      pop\n      jump\t// out\n        /* \"FacctoryContract/WagerContract.sol\":884:909  uint256 public totalUsers */\n    tag_101:\n      sload(0x02)\n      dup2\n      jump\t// out\n        /* \"FacctoryContract/WagerContract.sol\":1015:1063  mapping(address => MarketInfo) public marketInfo */\n    tag_105:\n      mstore(0x20, 0x05)\n      dup1\n      0x00\n      mstore\n      keccak256(0x00, 0x40)\n      0x00\n      swap2\n      pop\n      swap1\n      pop\n      dup1\n      0x00\n      add\n      0x00\n      swap1\n      sload\n      swap1\n      0x0100\n      exp\n      swap1\n      div\n      0xff\n      and\n      swap1\n      dup1\n      0x01\n      add\n      sload\n      swap1\n      dup1\n      0x02\n      add\n      sload\n      swap1\n      dup1\n      0x03\n      add\n      sload\n      swap1\n      dup1\n      0x06\n      add\n      sload\n      swap1\n      dup1\n      0x07\n      add\n      sload\n      swap1\n      pop\n      dup7\n      jump\t// out\n        /* \"@openzeppelin/contracts/access/Ownable.sol\":2543:2758  function transferOwnership(address newOwner) public virtual onlyOwner {... */\n    tag_110:\n        /* \"@openzeppelin/contracts/access/Ownable.sol\":1531:1544  _checkOwner() */\n      tag_281\n        /* \"@openzeppelin/contracts/access/Ownable.sol\":1531:1542  _checkOwner */\n      tag_256\n        /* \"@openzeppelin/contracts/access/Ownable.sol\":1531:1544  _checkOwner() */\n      jump\t// in\n    tag_281:\n        /* \"@openzeppelin/contracts/access/Ownable.sol\":2647:2648  0 */\n      0x00\n        /* \"@openzeppelin/contracts/access/Ownable.sol\":2627:2649  newOwner == address(0) */\n      0xffffffffffffffffffffffffffffffffffffffff\n      and\n        /* \"@openzeppelin/contracts/access/Ownable.sol\":2627:2635  newOwner */\n      dup2\n        /* \"@openzeppelin/contracts/access/Ownable.sol\":2627:2649  newOwner == address(0) */\n      0xffffffffffffffffffffffffffffffffffffffff\n      and\n      sub\n        /* \"@openzeppelin/contracts/access/Ownable.sol\":2623:2714  if (newOwner == address(0)) {... */\n      tag_283\n      jumpi\n        /* \"@openzeppelin/contracts/access/Ownable.sol\":2700:2701  0 */\n      0x00\n        /* \"@openzeppelin/contracts/access/Ownable.sol\":2672:2703  OwnableInvalidOwner(address(0)) */\n      mload(0x40)\n      0x1e4fbdf700000000000000000000000000000000000000000000000000000000\n      dup2\n      mstore\n      0x04\n      add\n      tag_284\n      swap2\n      swap1\n      tag_32\n      jump\t// in\n    tag_284:\n      mload(0x40)\n      dup1\n      swap2\n      sub\n      swap1\n      revert\n        /* \"@openzeppelin/contracts/access/Ownable.sol\":2623:2714  if (newOwner == address(0)) {... */\n    tag_283:\n        /* \"@openzeppelin/contracts/access/Ownable.sol\":2723:2751  _transferOwnership(newOwner) */\n      tag_285\n        /* \"@openzeppelin/contracts/access/Ownable.sol\":2742:2750  newOwner */\n      dup2\n        /* \"@openzeppelin/contracts/access/Ownable.sol\":2723:2741  _transferOwnership */\n      tag_259\n        /* \"@openzeppelin/contracts/access/Ownable.sol\":2723:2751  _transferOwnership(newOwner) */\n      jump\t// in\n    tag_285:\n        /* \"@openzeppelin/contracts/access/Ownable.sol\":2543:2758  function transferOwnership(address newOwner) public virtual onlyOwner {... */\n      pop\n      jump\t// out\n        /* \"FacctoryContract/WagerContract.sol\":5616:7089  function buyShare(uint256 _listNo, address _owner) external {... */\n    tag_114:\n        /* \"FacctoryContract/WagerContract.sol\":5699:5707  sellInfo */\n      0x06\n        /* \"FacctoryContract/WagerContract.sol\":5699:5715  sellInfo[_owner] */\n      0x00\n        /* \"FacctoryContract/WagerContract.sol\":5708:5714  _owner */\n      dup3\n        /* \"FacctoryContract/WagerContract.sol\":5699:5715  sellInfo[_owner] */\n      0xffffffffffffffffffffffffffffffffffffffff\n      and\n      0xffffffffffffffffffffffffffffffffffffffff\n      and\n      dup2\n      mstore\n      0x20\n      add\n      swap1\n      dup2\n      mstore\n      0x20\n      add\n      0x00\n      keccak256\n        /* \"FacctoryContract/WagerContract.sol\":5699:5724  sellInfo[_owner][_listNo] */\n      0x00\n        /* \"FacctoryContract/WagerContract.sol\":5716:5723  _listNo */\n      dup4\n        /* \"FacctoryContract/WagerContract.sol\":5699:5724  sellInfo[_owner][_listNo] */\n      dup2\n      mstore\n      0x20\n      add\n      swap1\n      dup2\n      mstore\n      0x20\n      add\n      0x00\n      keccak256\n        /* \"FacctoryContract/WagerContract.sol\":5699:5729  sellInfo[_owner][_listNo].list */\n      0x00\n      add\n      0x00\n      swap1\n      sload\n      swap1\n      0x0100\n      exp\n      swap1\n      div\n      0xff\n      and\n        /* \"FacctoryContract/WagerContract.sol\":5695:5780  if(!sellInfo[_owner][_listNo].list){... */\n      tag_287\n      jumpi\n        /* \"FacctoryContract/WagerContract.sol\":5761:5768  _listNo */\n      dup2\n        /* \"FacctoryContract/WagerContract.sol\":5751:5769  notListed(_listNo) */\n      mload(0x40)\n      0x1599706800000000000000000000000000000000000000000000000000000000\n      dup2\n      mstore\n      0x04\n      add\n      tag_288\n      swap2\n      swap1\n      tag_88\n      jump\t// in\n    tag_288:\n      mload(0x40)\n      dup1\n      swap2\n      sub\n      swap1\n      revert\n        /* \"FacctoryContract/WagerContract.sol\":5695:5780  if(!sellInfo[_owner][_listNo].list){... */\n    tag_287:\n        /* \"FacctoryContract/WagerContract.sol\":5792:5800  sellInfo */\n      0x06\n        /* \"FacctoryContract/WagerContract.sol\":5792:5808  sellInfo[_owner] */\n      0x00\n        /* \"FacctoryContract/WagerContract.sol\":5801:5807  _owner */\n      dup3\n        /* \"FacctoryContract/WagerContract.sol\":5792:5808  sellInfo[_owner] */\n      0xffffffffffffffffffffffffffffffffffffffff\n      and\n      0xffffffffffffffffffffffffffffffffffffffff\n      and\n      dup2\n      mstore\n      0x20\n      add\n      swap1\n      dup2\n      mstore\n      0x20\n      add\n      0x00\n      keccak256\n        /* \"FacctoryContract/WagerContract.sol\":5792:5817  sellInfo[_owner][_listNo] */\n      0x00\n        /* \"FacctoryContract/WagerContract.sol\":5809:5816  _listNo */\n      dup4\n        /* \"FacctoryContract/WagerContract.sol\":5792:5817  sellInfo[_owner][_listNo] */\n      dup2\n      mstore\n      0x20\n      add\n      swap1\n      dup2\n      mstore\n      0x20\n      add\n      0x00\n      keccak256\n        /* \"FacctoryContract/WagerContract.sol\":5792:5822  sellInfo[_owner][_listNo].sold */\n      0x00\n      add\n      0x01\n      swap1\n      sload\n      swap1\n      0x0100\n      exp\n      swap1\n      div\n      0xff\n      and\n        /* \"FacctoryContract/WagerContract.sol\":5789:5898  if(sellInfo[_owner][_listNo].sold){... */\n      iszero\n      tag_289\n      jumpi\n        /* \"FacctoryContract/WagerContract.sol\":5856:5864  sellInfo */\n      0x06\n        /* \"FacctoryContract/WagerContract.sol\":5856:5872  sellInfo[_owner] */\n      0x00\n        /* \"FacctoryContract/WagerContract.sol\":5865:5871  _owner */\n      dup3\n        /* \"FacctoryContract/WagerContract.sol\":5856:5872  sellInfo[_owner] */\n      0xffffffffffffffffffffffffffffffffffffffff\n      and\n      0xffffffffffffffffffffffffffffffffffffffff\n      and\n      dup2\n      mstore\n      0x20\n      add\n      swap1\n      dup2\n      mstore\n      0x20\n      add\n      0x00\n      keccak256\n        /* \"FacctoryContract/WagerContract.sol\":5856:5881  sellInfo[_owner][_listNo] */\n      0x00\n        /* \"FacctoryContract/WagerContract.sol\":5873:5880  _listNo */\n      dup4\n        /* \"FacctoryContract/WagerContract.sol\":5856:5881  sellInfo[_owner][_listNo] */\n      dup2\n      mstore\n      0x20\n      add\n      swap1\n      dup2\n      mstore\n      0x20\n      add\n      0x00\n      keccak256\n        /* \"FacctoryContract/WagerContract.sol\":5856:5886  sellInfo[_owner][_listNo].sold */\n      0x00\n      add\n      0x01\n      swap1\n      sload\n      swap1\n      0x0100\n      exp\n      swap1\n      div\n      0xff\n      and\n        /* \"FacctoryContract/WagerContract.sol\":5844:5887  alreadySold(sellInfo[_owner][_listNo].sold) */\n      mload(0x40)\n      0xca1c6eb300000000000000000000000000000000000000000000000000000000\n      dup2\n      mstore\n      0x04\n      add\n      tag_290\n      swap2\n      swap1\n      tag_38\n      jump\t// in\n    tag_290:\n      mload(0x40)\n      dup1\n      swap2\n      sub\n      swap1\n      revert\n        /* \"FacctoryContract/WagerContract.sol\":5789:5898  if(sellInfo[_owner][_listNo].sold){... */\n    tag_289:\n        /* \"FacctoryContract/WagerContract.sol\":5919:5929  marketInfo */\n      0x05\n        /* \"FacctoryContract/WagerContract.sol\":5919:5944  marketInfo[address(this)] */\n      0x00\n        /* \"FacctoryContract/WagerContract.sol\":5938:5942  this */\n      address\n        /* \"FacctoryContract/WagerContract.sol\":5919:5944  marketInfo[address(this)] */\n      0xffffffffffffffffffffffffffffffffffffffff\n      and\n      0xffffffffffffffffffffffffffffffffffffffff\n      and\n      dup2\n      mstore\n      0x20\n      add\n      swap1\n      dup2\n      mstore\n      0x20\n      add\n      0x00\n      keccak256\n        /* \"FacctoryContract/WagerContract.sol\":5919:5953  marketInfo[address(this)].resolved */\n      0x00\n      add\n      0x00\n      swap1\n      sload\n      swap1\n      0x0100\n      exp\n      swap1\n      div\n      0xff\n      and\n        /* \"FacctoryContract/WagerContract.sol\":5916:6002  if(marketInfo[address(this)].resolved){... */\n      iszero\n      tag_291\n      jumpi\n        /* \"FacctoryContract/WagerContract.sol\":5975:5991  marketResolved() */\n      mload(0x40)\n      0x853fd42100000000000000000000000000000000000000000000000000000000\n      dup2\n      mstore\n      0x04\n      add\n      mload(0x40)\n      dup1\n      swap2\n      sub\n      swap1\n      revert\n        /* \"FacctoryContract/WagerContract.sol\":5916:6002  if(marketInfo[address(this)].resolved){... */\n    tag_291:\n        /* \"FacctoryContract/WagerContract.sol\":6050:6056  _owner */\n      dup1\n        /* \"FacctoryContract/WagerContract.sol\":6015:6056  sellInfo[_owner][_listNo].owner != _owner */\n      0xffffffffffffffffffffffffffffffffffffffff\n      and\n        /* \"FacctoryContract/WagerContract.sol\":6015:6023  sellInfo */\n      0x06\n        /* \"FacctoryContract/WagerContract.sol\":6015:6031  sellInfo[_owner] */\n      0x00\n        /* \"FacctoryContract/WagerContract.sol\":6024:6030  _owner */\n      dup4\n        /* \"FacctoryContract/WagerContract.sol\":6015:6031  sellInfo[_owner] */\n      0xffffffffffffffffffffffffffffffffffffffff\n      and\n      0xffffffffffffffffffffffffffffffffffffffff\n      and\n      dup2\n      mstore\n      0x20\n      add\n      swap1\n      dup2\n      mstore\n      0x20\n      add\n      0x00\n      keccak256\n        /* \"FacctoryContract/WagerContract.sol\":6015:6040  sellInfo[_owner][_listNo] */\n      0x00\n        /* \"FacctoryContract/WagerContract.sol\":6032:6039  _listNo */\n      dup5\n        /* \"FacctoryContract/WagerContract.sol\":6015:6040  sellInfo[_owner][_listNo] */\n      dup2\n      mstore\n      0x20\n      add\n      swap1\n      dup2\n      mstore\n      0x20\n      add\n      0x00\n      keccak256\n        /* \"FacctoryContract/WagerContract.sol\":6015:6046  sellInfo[_owner][_listNo].owner */\n      0x00\n      add\n      0x02\n      swap1\n      sload\n      swap1\n      0x0100\n      exp\n      swap1\n      div\n      0xffffffffffffffffffffffffffffffffffffffff\n      and\n        /* \"FacctoryContract/WagerContract.sol\":6015:6056  sellInfo[_owner][_listNo].owner != _owner */\n      0xffffffffffffffffffffffffffffffffffffffff\n      and\n      eq\n        /* \"FacctoryContract/WagerContract.sol\":6012:6107  if(sellInfo[_owner][_listNo].owner != _owner){... */\n      tag_292\n      jumpi\n        /* \"FacctoryContract/WagerContract.sol\":6089:6095  _owner */\n      dup1\n        /* \"FacctoryContract/WagerContract.sol\":6078:6096  wrongOwner(_owner) */\n      mload(0x40)\n      0xf6b79c5800000000000000000000000000000000000000000000000000000000\n      dup2\n      mstore\n      0x04\n      add\n      tag_293\n      swap2\n      swap1\n      tag_32\n      jump\t// in\n    tag_293:\n      mload(0x40)\n      dup1\n      swap2\n      sub\n      swap1\n      revert\n        /* \"FacctoryContract/WagerContract.sol\":6012:6107  if(sellInfo[_owner][_listNo].owner != _owner){... */\n    tag_292:\n        /* \"FacctoryContract/WagerContract.sol\":6150:6154  true */\n      0x01\n        /* \"FacctoryContract/WagerContract.sol\":6117:6125  sellInfo */\n      0x06\n        /* \"FacctoryContract/WagerContract.sol\":6117:6133  sellInfo[_owner] */\n      0x00\n        /* \"FacctoryContract/WagerContract.sol\":6126:6132  _owner */\n      dup4\n        /* \"FacctoryContract/WagerContract.sol\":6117:6133  sellInfo[_owner] */\n      0xffffffffffffffffffffffffffffffffffffffff\n      and\n      0xffffffffffffffffffffffffffffffffffffffff\n      and\n      dup2\n      mstore\n      0x20\n      add\n      swap1\n      dup2\n      mstore\n      0x20\n      add\n      0x00\n      keccak256\n        /* \"FacctoryContract/WagerContract.sol\":6117:6142  sellInfo[_owner][_listNo] */\n      0x00\n        /* \"FacctoryContract/WagerContract.sol\":6134:6141  _listNo */\n      dup5\n        /* \"FacctoryContract/WagerContract.sol\":6117:6142  sellInfo[_owner][_listNo] */\n      dup2\n      mstore\n      0x20\n      add\n      swap1\n      dup2\n      mstore\n      0x20\n      add\n      0x00\n      keccak256\n        /* \"FacctoryContract/WagerContract.sol\":6117:6147  sellInfo[_owner][_listNo].sold */\n      0x00\n      add\n      0x01\n        /* \"FacctoryContract/WagerContract.sol\":6117:6154  sellInfo[_owner][_listNo].sold = true */\n      0x0100\n      exp\n      dup2\n      sload\n      dup2\n      0xff\n      mul\n      not\n      and\n      swap1\n      dup4\n      iszero\n      iszero\n      mul\n      or\n      swap1\n      sstore\n      pop\n        /* \"FacctoryContract/WagerContract.sol\":6198:6208  msg.sender */\n      caller\n        /* \"FacctoryContract/WagerContract.sol\":6164:6172  sellInfo */\n      0x06\n        /* \"FacctoryContract/WagerContract.sol\":6164:6180  sellInfo[_owner] */\n      0x00\n        /* \"FacctoryContract/WagerContract.sol\":6173:6179  _owner */\n      dup4\n        /* \"FacctoryContract/WagerContract.sol\":6164:6180  sellInfo[_owner] */\n      0xffffffffffffffffffffffffffffffffffffffff\n      and\n      0xffffffffffffffffffffffffffffffffffffffff\n      and\n      dup2\n      mstore\n      0x20\n      add\n      swap1\n      dup2\n      mstore\n      0x20\n      add\n      0x00\n      keccak256\n        /* \"FacctoryContract/WagerContract.sol\":6164:6189  sellInfo[_owner][_listNo] */\n      0x00\n        /* \"FacctoryContract/WagerContract.sol\":6181:6188  _listNo */\n      dup5\n        /* \"FacctoryContract/WagerContract.sol\":6164:6189  sellInfo[_owner][_listNo] */\n      dup2\n      mstore\n      0x20\n      add\n      swap1\n      dup2\n      mstore\n      0x20\n      add\n      0x00\n      keccak256\n        /* \"FacctoryContract/WagerContract.sol\":6164:6195  sellInfo[_owner][_listNo].owner */\n      0x00\n      add\n      0x02\n        /* \"FacctoryContract/WagerContract.sol\":6164:6208  sellInfo[_owner][_listNo].owner = msg.sender */\n      0x0100\n      exp\n      dup2\n      sload\n      dup2\n      0xffffffffffffffffffffffffffffffffffffffff\n      mul\n      not\n      and\n      swap1\n      dup4\n      0xffffffffffffffffffffffffffffffffffffffff\n      and\n      mul\n      or\n      swap1\n      sstore\n      pop\n        /* \"FacctoryContract/WagerContract.sol\":6266:6267  0 */\n      0x00\n        /* \"FacctoryContract/WagerContract.sol\":6230:6238  sellInfo */\n      0x06\n        /* \"FacctoryContract/WagerContract.sol\":6230:6246  sellInfo[_owner] */\n      0x00\n        /* \"FacctoryContract/WagerContract.sol\":6239:6245  _owner */\n      dup4\n        /* \"FacctoryContract/WagerContract.sol\":6230:6246  sellInfo[_owner] */\n      0xffffffffffffffffffffffffffffffffffffffff\n      and\n      0xffffffffffffffffffffffffffffffffffffffff\n      and\n      dup2\n      mstore\n      0x20\n      add\n      swap1\n      dup2\n      mstore\n      0x20\n      add\n      0x00\n      keccak256\n        /* \"FacctoryContract/WagerContract.sol\":6230:6255  sellInfo[_owner][_listNo] */\n      0x00\n        /* \"FacctoryContract/WagerContract.sol\":6247:6254  _listNo */\n      dup5\n        /* \"FacctoryContract/WagerContract.sol\":6230:6255  sellInfo[_owner][_listNo] */\n      dup2\n      mstore\n      0x20\n      add\n      swap1\n      dup2\n      mstore\n      0x20\n      add\n      0x00\n      keccak256\n        /* \"FacctoryContract/WagerContract.sol\":6230:6262  sellInfo[_owner][_listNo].listOn */\n      0x03\n      add\n      sload\n        /* \"FacctoryContract/WagerContract.sol\":6230:6267  sellInfo[_owner][_listNo].listOn == 0 */\n      sub\n        /* \"FacctoryContract/WagerContract.sol\":6227:6630  if(sellInfo[_owner][_listNo].listOn == 0){... */\n      tag_294\n      jumpi\n        /* \"FacctoryContract/WagerContract.sol\":6331:6339  sellInfo */\n      0x06\n        /* \"FacctoryContract/WagerContract.sol\":6331:6347  sellInfo[_owner] */\n      0x00\n        /* \"FacctoryContract/WagerContract.sol\":6340:6346  _owner */\n      dup3\n        /* \"FacctoryContract/WagerContract.sol\":6331:6347  sellInfo[_owner] */\n      0xffffffffffffffffffffffffffffffffffffffff\n      and\n      0xffffffffffffffffffffffffffffffffffffffff\n      and\n      dup2\n      mstore\n      0x20\n      add\n      swap1\n      dup2\n      mstore\n      0x20\n      add\n      0x00\n      keccak256\n        /* \"FacctoryContract/WagerContract.sol\":6331:6356  sellInfo[_owner][_listNo] */\n      0x00\n        /* \"FacctoryContract/WagerContract.sol\":6348:6355  _listNo */\n      dup4\n        /* \"FacctoryContract/WagerContract.sol\":6331:6356  sellInfo[_owner][_listNo] */\n      dup2\n      mstore\n      0x20\n      add\n      swap1\n      dup2\n      mstore\n      0x20\n      add\n      0x00\n      keccak256\n        /* \"FacctoryContract/WagerContract.sol\":6331:6363  sellInfo[_owner][_listNo].amount */\n      0x02\n      add\n      sload\n        /* \"FacctoryContract/WagerContract.sol\":6295:6303  userInfo */\n      0x04\n        /* \"FacctoryContract/WagerContract.sol\":6295:6315  userInfo[msg.sender] */\n      0x00\n        /* \"FacctoryContract/WagerContract.sol\":6304:6314  msg.sender */\n      caller\n        /* \"FacctoryContract/WagerContract.sol\":6295:6315  userInfo[msg.sender] */\n      0xffffffffffffffffffffffffffffffffffffffff\n      and\n      0xffffffffffffffffffffffffffffffffffffffff\n      and\n      dup2\n      mstore\n      0x20\n      add\n      swap1\n      dup2\n      mstore\n      0x20\n      add\n      0x00\n      keccak256\n        /* \"FacctoryContract/WagerContract.sol\":6295:6327  userInfo[msg.sender].noBetAmount */\n      0x01\n      add\n      0x00\n        /* \"FacctoryContract/WagerContract.sol\":6295:6363  userInfo[msg.sender].noBetAmount += sellInfo[_owner][_listNo].amount */\n      dup3\n      dup3\n      sload\n      tag_295\n      swap2\n      swap1\n      tag_132\n      jump\t// in\n    tag_295:\n      swap3\n      pop\n      pop\n      dup2\n      swap1\n      sstore\n      pop\n        /* \"FacctoryContract/WagerContract.sol\":6409:6417  sellInfo */\n      0x06\n        /* \"FacctoryContract/WagerContract.sol\":6409:6425  sellInfo[_owner] */\n      0x00\n        /* \"FacctoryContract/WagerContract.sol\":6418:6424  _owner */\n      dup3\n        /* \"FacctoryContract/WagerContract.sol\":6409:6425  sellInfo[_owner] */\n      0xffffffffffffffffffffffffffffffffffffffff\n      and\n      0xffffffffffffffffffffffffffffffffffffffff\n      and\n      dup2\n      mstore\n      0x20\n      add\n      swap1\n      dup2\n      mstore\n      0x20\n      add\n      0x00\n      keccak256\n        /* \"FacctoryContract/WagerContract.sol\":6409:6434  sellInfo[_owner][_listNo] */\n      0x00\n        /* \"FacctoryContract/WagerContract.sol\":6426:6433  _listNo */\n      dup4\n        /* \"FacctoryContract/WagerContract.sol\":6409:6434  sellInfo[_owner][_listNo] */\n      dup2\n      mstore\n      0x20\n      add\n      swap1\n      dup2\n      mstore\n      0x20\n      add\n      0x00\n      keccak256\n        /* \"FacctoryContract/WagerContract.sol\":6409:6441  sellInfo[_owner][_listNo].amount */\n      0x02\n      add\n      sload\n        /* \"FacctoryContract/WagerContract.sol\":6377:6385  userInfo */\n      0x04\n        /* \"FacctoryContract/WagerContract.sol\":6377:6393  userInfo[_owner] */\n      0x00\n        /* \"FacctoryContract/WagerContract.sol\":6386:6392  _owner */\n      dup4\n        /* \"FacctoryContract/WagerContract.sol\":6377:6393  userInfo[_owner] */\n      0xffffffffffffffffffffffffffffffffffffffff\n      and\n      0xffffffffffffffffffffffffffffffffffffffff\n      and\n      dup2\n      mstore\n      0x20\n      add\n      swap1\n      dup2\n      mstore\n      0x20\n      add\n      0x00\n      keccak256\n        /* \"FacctoryContract/WagerContract.sol\":6377:6405  userInfo[_owner].noBetAmount */\n      0x01\n      add\n      0x00\n        /* \"FacctoryContract/WagerContract.sol\":6377:6441  userInfo[_owner].noBetAmount -= sellInfo[_owner][_listNo].amount */\n      dup3\n      dup3\n      sload\n      tag_296\n      swap2\n      swap1\n      tag_196\n      jump\t// in\n    tag_296:\n      swap3\n      pop\n      pop\n      dup2\n      swap1\n      sstore\n      pop\n        /* \"FacctoryContract/WagerContract.sol\":6227:6630  if(sellInfo[_owner][_listNo].listOn == 0){... */\n      jump(tag_297)\n    tag_294:\n        /* \"FacctoryContract/WagerContract.sol\":6504:6512  sellInfo */\n      0x06\n        /* \"FacctoryContract/WagerContract.sol\":6504:6520  sellInfo[_owner] */\n      0x00\n        /* \"FacctoryContract/WagerContract.sol\":6513:6519  _owner */\n      dup3\n        /* \"FacctoryContract/WagerContract.sol\":6504:6520  sellInfo[_owner] */\n      0xffffffffffffffffffffffffffffffffffffffff\n      and\n      0xffffffffffffffffffffffffffffffffffffffff\n      and\n      dup2\n      mstore\n      0x20\n      add\n      swap1\n      dup2\n      mstore\n      0x20\n      add\n      0x00\n      keccak256\n        /* \"FacctoryContract/WagerContract.sol\":6504:6529  sellInfo[_owner][_listNo] */\n      0x00\n        /* \"FacctoryContract/WagerContract.sol\":6521:6528  _listNo */\n      dup4\n        /* \"FacctoryContract/WagerContract.sol\":6504:6529  sellInfo[_owner][_listNo] */\n      dup2\n      mstore\n      0x20\n      add\n      swap1\n      dup2\n      mstore\n      0x20\n      add\n      0x00\n      keccak256\n        /* \"FacctoryContract/WagerContract.sol\":6504:6536  sellInfo[_owner][_listNo].amount */\n      0x02\n      add\n      sload\n        /* \"FacctoryContract/WagerContract.sol\":6471:6479  userInfo */\n      0x04\n        /* \"FacctoryContract/WagerContract.sol\":6471:6487  userInfo[_owner] */\n      0x00\n        /* \"FacctoryContract/WagerContract.sol\":6480:6486  _owner */\n      dup4\n        /* \"FacctoryContract/WagerContract.sol\":6471:6487  userInfo[_owner] */\n      0xffffffffffffffffffffffffffffffffffffffff\n      and\n      0xffffffffffffffffffffffffffffffffffffffff\n      and\n      dup2\n      mstore\n      0x20\n      add\n      swap1\n      dup2\n      mstore\n      0x20\n      add\n      0x00\n      keccak256\n        /* \"FacctoryContract/WagerContract.sol\":6471:6500  userInfo[_owner].yesBetAmount */\n      0x03\n      add\n      0x00\n        /* \"FacctoryContract/WagerContract.sol\":6471:6536  userInfo[_owner].yesBetAmount -= sellInfo[_owner][_listNo].amount */\n      dup3\n      dup3\n      sload\n      tag_298\n      swap2\n      swap1\n      tag_196\n      jump\t// in\n    tag_298:\n      swap3\n      pop\n      pop\n      dup2\n      swap1\n      sstore\n      pop\n        /* \"FacctoryContract/WagerContract.sol\":6587:6595  sellInfo */\n      0x06\n        /* \"FacctoryContract/WagerContract.sol\":6587:6603  sellInfo[_owner] */\n      0x00\n        /* \"FacctoryContract/WagerContract.sol\":6596:6602  _owner */\n      dup3\n        /* \"FacctoryContract/WagerContract.sol\":6587:6603  sellInfo[_owner] */\n      0xffffffffffffffffffffffffffffffffffffffff\n      and\n      0xffffffffffffffffffffffffffffffffffffffff\n      and\n      dup2\n      mstore\n      0x20\n      add\n      swap1\n      dup2\n      mstore\n      0x20\n      add\n      0x00\n      keccak256\n        /* \"FacctoryContract/WagerContract.sol\":6587:6612  sellInfo[_owner][_listNo] */\n      0x00\n        /* \"FacctoryContract/WagerContract.sol\":6604:6611  _listNo */\n      dup4\n        /* \"FacctoryContract/WagerContract.sol\":6587:6612  sellInfo[_owner][_listNo] */\n      dup2\n      mstore\n      0x20\n      add\n      swap1\n      dup2\n      mstore\n      0x20\n      add\n      0x00\n      keccak256\n        /* \"FacctoryContract/WagerContract.sol\":6587:6619  sellInfo[_owner][_listNo].amount */\n      0x02\n      add\n      sload\n        /* \"FacctoryContract/WagerContract.sol\":6550:6558  userInfo */\n      0x04\n        /* \"FacctoryContract/WagerContract.sol\":6550:6570  userInfo[msg.sender] */\n      0x00\n        /* \"FacctoryContract/WagerContract.sol\":6559:6569  msg.sender */\n      caller\n        /* \"FacctoryContract/WagerContract.sol\":6550:6570  userInfo[msg.sender] */\n      0xffffffffffffffffffffffffffffffffffffffff\n      and\n      0xffffffffffffffffffffffffffffffffffffffff\n      and\n      dup2\n      mstore\n      0x20\n      add\n      swap1\n      dup2\n      mstore\n      0x20\n      add\n      0x00\n      keccak256\n        /* \"FacctoryContract/WagerContract.sol\":6550:6583  userInfo[msg.sender].yesBetAmount */\n      0x03\n      add\n      0x00\n        /* \"FacctoryContract/WagerContract.sol\":6550:6619  userInfo[msg.sender].yesBetAmount += sellInfo[_owner][_listNo].amount */\n      dup3\n      dup3\n      sload\n      tag_299\n      swap2\n      swap1\n      tag_132\n      jump\t// in\n    tag_299:\n      swap3\n      pop\n      pop\n      dup2\n      swap1\n      sstore\n      pop\n        /* \"FacctoryContract/WagerContract.sol\":6227:6630  if(sellInfo[_owner][_listNo].listOn == 0){... */\n    tag_297:\n        /* \"FacctoryContract/WagerContract.sol\":6711:6715  true */\n      0x01\n        /* \"FacctoryContract/WagerContract.sol\":6648:6656  userInfo */\n      0x04\n        /* \"FacctoryContract/WagerContract.sol\":6648:6668  userInfo[msg.sender] */\n      0x00\n        /* \"FacctoryContract/WagerContract.sol\":6657:6667  msg.sender */\n      caller\n        /* \"FacctoryContract/WagerContract.sol\":6648:6668  userInfo[msg.sender] */\n      0xffffffffffffffffffffffffffffffffffffffff\n      and\n      0xffffffffffffffffffffffffffffffffffffffff\n      and\n      dup2\n      mstore\n      0x20\n      add\n      swap1\n      dup2\n      mstore\n      0x20\n      add\n      0x00\n      keccak256\n        /* \"FacctoryContract/WagerContract.sol\":6648:6674  userInfo[msg.sender].betOn */\n      0x05\n      add\n        /* \"FacctoryContract/WagerContract.sol\":6648:6708  userInfo[msg.sender].betOn[sellInfo[_owner][_listNo].listOn] */\n      0x00\n        /* \"FacctoryContract/WagerContract.sol\":6675:6683  sellInfo */\n      0x06\n        /* \"FacctoryContract/WagerContract.sol\":6675:6691  sellInfo[_owner] */\n      0x00\n        /* \"FacctoryContract/WagerContract.sol\":6684:6690  _owner */\n      dup6\n        /* \"FacctoryContract/WagerContract.sol\":6675:6691  sellInfo[_owner] */\n      0xffffffffffffffffffffffffffffffffffffffff\n      and\n      0xffffffffffffffffffffffffffffffffffffffff\n      and\n      dup2\n      mstore\n      0x20\n      add\n      swap1\n      dup2\n      mstore\n      0x20\n      add\n      0x00\n      keccak256\n        /* \"FacctoryContract/WagerContract.sol\":6675:6700  sellInfo[_owner][_listNo] */\n      0x00\n        /* \"FacctoryContract/WagerContract.sol\":6692:6699  _listNo */\n      dup7\n        /* \"FacctoryContract/WagerContract.sol\":6675:6700  sellInfo[_owner][_listNo] */\n      dup2\n      mstore\n      0x20\n      add\n      swap1\n      dup2\n      mstore\n      0x20\n      add\n      0x00\n      keccak256\n        /* \"FacctoryContract/WagerContract.sol\":6675:6707  sellInfo[_owner][_listNo].listOn */\n      0x03\n      add\n      sload\n        /* \"FacctoryContract/WagerContract.sol\":6648:6708  userInfo[msg.sender].betOn[sellInfo[_owner][_listNo].listOn] */\n      dup2\n      mstore\n      0x20\n      add\n      swap1\n      dup2\n      mstore\n      0x20\n      add\n      0x00\n      keccak256\n      0x00\n        /* \"FacctoryContract/WagerContract.sol\":6648:6715  userInfo[msg.sender].betOn[sellInfo[_owner][_listNo].listOn] = true */\n      0x0100\n      exp\n      dup2\n      sload\n      dup2\n      0xff\n      mul\n      not\n      and\n      swap1\n      dup4\n      iszero\n      iszero\n      mul\n      or\n      swap1\n      sstore\n      pop\n        /* \"FacctoryContract/WagerContract.sol\":6748:6758  msg.sender */\n      caller\n        /* \"FacctoryContract/WagerContract.sol\":6725:6733  eachUser */\n      0x03\n        /* \"FacctoryContract/WagerContract.sol\":6725:6745  eachUser[totalUsers] */\n      0x00\n        /* \"FacctoryContract/WagerContract.sol\":6734:6744  totalUsers */\n      sload(0x02)\n        /* \"FacctoryContract/WagerContract.sol\":6725:6745  eachUser[totalUsers] */\n      dup2\n      mstore\n      0x20\n      add\n      swap1\n      dup2\n      mstore\n      0x20\n      add\n      0x00\n      keccak256\n      0x00\n        /* \"FacctoryContract/WagerContract.sol\":6725:6758  eachUser[totalUsers] = msg.sender */\n      0x0100\n      exp\n      dup2\n      sload\n      dup2\n      0xffffffffffffffffffffffffffffffffffffffff\n      mul\n      not\n      and\n      swap1\n      dup4\n      0xffffffffffffffffffffffffffffffffffffffff\n      and\n      mul\n      or\n      swap1\n      sstore\n      pop\n        /* \"FacctoryContract/WagerContract.sol\":6768:6778  totalUsers */\n      0x02\n      0x00\n        /* \"FacctoryContract/WagerContract.sol\":6768:6780  totalUsers++ */\n      dup2\n      sload\n      dup1\n      swap3\n      swap2\n      swap1\n      tag_300\n      swap1\n      tag_163\n      jump\t// in\n    tag_300:\n      swap2\n      swap1\n      pop\n      sstore\n      pop\n        /* \"FacctoryContract/WagerContract.sol\":6791:6803  bool success */\n      0x00\n        /* \"FacctoryContract/WagerContract.sol\":6806:6815  usdcToken */\n      0x01\n      0x00\n      swap1\n      sload\n      swap1\n      0x0100\n      exp\n      swap1\n      div\n      0xffffffffffffffffffffffffffffffffffffffff\n      and\n        /* \"FacctoryContract/WagerContract.sol\":6806:6828  usdcToken.transferFrom */\n      0xffffffffffffffffffffffffffffffffffffffff\n      and\n      0x23b872dd\n        /* \"FacctoryContract/WagerContract.sol\":6842:6852  msg.sender */\n      caller\n        /* \"FacctoryContract/WagerContract.sol\":6866:6872  _owner */\n      dup5\n        /* \"FacctoryContract/WagerContract.sol\":6886:6894  sellInfo */\n      0x06\n        /* \"FacctoryContract/WagerContract.sol\":6886:6902  sellInfo[_owner] */\n      0x00\n        /* \"FacctoryContract/WagerContract.sol\":6895:6901  _owner */\n      dup8\n        /* \"FacctoryContract/WagerContract.sol\":6886:6902  sellInfo[_owner] */\n      0xffffffffffffffffffffffffffffffffffffffff\n      and\n      0xffffffffffffffffffffffffffffffffffffffff\n      and\n      dup2\n      mstore\n      0x20\n      add\n      swap1\n      dup2\n      mstore\n      0x20\n      add\n      0x00\n      keccak256\n        /* \"FacctoryContract/WagerContract.sol\":6886:6911  sellInfo[_owner][_listNo] */\n      0x00\n        /* \"FacctoryContract/WagerContract.sol\":6903:6910  _listNo */\n      dup9\n        /* \"FacctoryContract/WagerContract.sol\":6886:6911  sellInfo[_owner][_listNo] */\n      dup2\n      mstore\n      0x20\n      add\n      swap1\n      dup2\n      mstore\n      0x20\n      add\n      0x00\n      keccak256\n        /* \"FacctoryContract/WagerContract.sol\":6886:6917  sellInfo[_owner][_listNo].price */\n      0x01\n      add\n      sload\n        /* \"FacctoryContract/WagerContract.sol\":6806:6927  usdcToken.transferFrom(... */\n      mload(0x40)\n      dup5\n      0xffffffff\n      and\n      0xe0\n      shl\n      dup2\n      mstore\n      0x04\n      add\n      tag_301\n      swap4\n      swap3\n      swap2\n      swap1\n      tag_247\n      jump\t// in\n    tag_301:\n      0x20\n      mload(0x40)\n      dup1\n      dup4\n      sub\n      dup2\n      0x00\n      dup8\n      gas\n      call\n      iszero\n      dup1\n      iszero\n      tag_303\n      jumpi\n      returndatasize\n      0x00\n      dup1\n      returndatacopy\n      revert(0x00, returndatasize)\n    tag_303:\n      pop\n      pop\n      pop\n      pop\n      mload(0x40)\n      returndatasize\n      not(0x1f)\n      0x1f\n      dup3\n      add\n      and\n      dup3\n      add\n      dup1\n      0x40\n      mstore\n      pop\n      dup2\n      add\n      swap1\n      tag_304\n      swap2\n      swap1\n      tag_208\n      jump\t// in\n    tag_304:\n        /* \"FacctoryContract/WagerContract.sol\":6791:6927  bool success = usdcToken.transferFrom(... */\n      swap1\n      pop\n        /* \"FacctoryContract/WagerContract.sol\":6945:6952  success */\n      dup1\n        /* \"FacctoryContract/WagerContract.sol\":6937:6972  require(success, \"Transfer failed\") */\n      tag_305\n      jumpi\n      mload(0x40)\n      0x08c379a000000000000000000000000000000000000000000000000000000000\n      dup2\n      mstore\n      0x04\n      add\n      tag_306\n      swap1\n      tag_211\n      jump\t// in\n    tag_306:\n      mload(0x40)\n      dup1\n      swap2\n      sub\n      swap1\n      revert\n    tag_305:\n        /* \"FacctoryContract/WagerContract.sol\":6988:7082  BuyShare(msg.sender,_owner, sellInfo[_owner][_listNo].amount, sellInfo[_owner][_listNo].price) */\n      0xc891adf8dfbf643a02668e73c35bbbb3c8aa9d86e0dc779d260026cfc0ab8b99\n        /* \"FacctoryContract/WagerContract.sol\":6997:7007  msg.sender */\n      caller\n        /* \"FacctoryContract/WagerContract.sol\":7008:7014  _owner */\n      dup4\n        /* \"FacctoryContract/WagerContract.sol\":7016:7024  sellInfo */\n      0x06\n        /* \"FacctoryContract/WagerContract.sol\":7016:7032  sellInfo[_owner] */\n      0x00\n        /* \"FacctoryContract/WagerContract.sol\":7025:7031  _owner */\n      dup7\n        /* \"FacctoryContract/WagerContract.sol\":7016:7032  sellInfo[_owner] */\n      0xffffffffffffffffffffffffffffffffffffffff\n      and\n      0xffffffffffffffffffffffffffffffffffffffff\n      and\n      dup2\n      mstore\n      0x20\n      add\n      swap1\n      dup2\n      mstore\n      0x20\n      add\n      0x00\n      keccak256\n        /* \"FacctoryContract/WagerContract.sol\":7016:7041  sellInfo[_owner][_listNo] */\n      0x00\n        /* \"FacctoryContract/WagerContract.sol\":7033:7040  _listNo */\n      dup8\n        /* \"FacctoryContract/WagerContract.sol\":7016:7041  sellInfo[_owner][_listNo] */\n      dup2\n      mstore\n      0x20\n      add\n      swap1\n      dup2\n      mstore\n      0x20\n      add\n      0x00\n      keccak256\n        /* \"FacctoryContract/WagerContract.sol\":7016:7048  sellInfo[_owner][_listNo].amount */\n      0x02\n      add\n      sload\n        /* \"FacctoryContract/WagerContract.sol\":7050:7058  sellInfo */\n      0x06\n        /* \"FacctoryContract/WagerContract.sol\":7050:7066  sellInfo[_owner] */\n      0x00\n        /* \"FacctoryContract/WagerContract.sol\":7059:7065  _owner */\n      dup8\n        /* \"FacctoryContract/WagerContract.sol\":7050:7066  sellInfo[_owner] */\n      0xffffffffffffffffffffffffffffffffffffffff\n      and\n      0xffffffffffffffffffffffffffffffffffffffff\n      and\n      dup2\n      mstore\n      0x20\n      add\n      swap1\n      dup2\n      mstore\n      0x20\n      add\n      0x00\n      keccak256\n        /* \"FacctoryContract/WagerContract.sol\":7050:7075  sellInfo[_owner][_listNo] */\n      0x00\n        /* \"FacctoryContract/WagerContract.sol\":7067:7074  _listNo */\n      dup9\n        /* \"FacctoryContract/WagerContract.sol\":7050:7075  sellInfo[_owner][_listNo] */\n      dup2\n      mstore\n      0x20\n      add\n      swap1\n      dup2\n      mstore\n      0x20\n      add\n      0x00\n      keccak256\n        /* \"FacctoryContract/WagerContract.sol\":7050:7081  sellInfo[_owner][_listNo].price */\n      0x01\n      add\n      sload\n        /* \"FacctoryContract/WagerContract.sol\":6988:7082  BuyShare(msg.sender,_owner, sellInfo[_owner][_listNo].amount, sellInfo[_owner][_listNo].price) */\n      mload(0x40)\n      tag_307\n      swap5\n      swap4\n      swap3\n      swap2\n      swap1\n      tag_308\n      jump\t// in\n    tag_307:\n      mload(0x40)\n      dup1\n      swap2\n      sub\n      swap1\n      log1\n        /* \"FacctoryContract/WagerContract.sol\":5676:7089  {... */\n      pop\n        /* \"FacctoryContract/WagerContract.sol\":5616:7089  function buyShare(uint256 _listNo, address _owner) external {... */\n      pop\n      pop\n      jump\t// out\n        /* \"@openzeppelin/contracts/access/Ownable.sol\":1796:1958  function _checkOwner() internal view virtual {... */\n    tag_256:\n        /* \"@openzeppelin/contracts/access/Ownable.sol\":1866:1878  _msgSender() */\n      tag_310\n        /* \"@openzeppelin/contracts/access/Ownable.sol\":1866:1876  _msgSender */\n      tag_311\n        /* \"@openzeppelin/contracts/access/Ownable.sol\":1866:1878  _msgSender() */\n      jump\t// in\n    tag_310:\n        /* \"@openzeppelin/contracts/access/Ownable.sol\":1855:1878  owner() != _msgSender() */\n      0xffffffffffffffffffffffffffffffffffffffff\n      and\n        /* \"@openzeppelin/contracts/access/Ownable.sol\":1855:1862  owner() */\n      tag_312\n        /* \"@openzeppelin/contracts/access/Ownable.sol\":1855:1860  owner */\n      tag_90\n        /* \"@openzeppelin/contracts/access/Ownable.sol\":1855:1862  owner() */\n      jump\t// in\n    tag_312:\n        /* \"@openzeppelin/contracts/access/Ownable.sol\":1855:1878  owner() != _msgSender() */\n      0xffffffffffffffffffffffffffffffffffffffff\n      and\n      eq\n        /* \"@openzeppelin/contracts/access/Ownable.sol\":1851:1952  if (owner() != _msgSender()) {... */\n      tag_313\n      jumpi\n        /* \"@openzeppelin/contracts/access/Ownable.sol\":1928:1940  _msgSender() */\n      tag_314\n        /* \"@openzeppelin/contracts/access/Ownable.sol\":1928:1938  _msgSender */\n      tag_311\n        /* \"@openzeppelin/contracts/access/Ownable.sol\":1928:1940  _msgSender() */\n      jump\t// in\n    tag_314:\n        /* \"@openzeppelin/contracts/access/Ownable.sol\":1901:1941  OwnableUnauthorizedAccount(_msgSender()) */\n      mload(0x40)\n      0x118cdaa700000000000000000000000000000000000000000000000000000000\n      dup2\n      mstore\n      0x04\n      add\n      tag_315\n      swap2\n      swap1\n      tag_32\n      jump\t// in\n    tag_315:\n      mload(0x40)\n      dup1\n      swap2\n      sub\n      swap1\n      revert\n        /* \"@openzeppelin/contracts/access/Ownable.sol\":1851:1952  if (owner() != _msgSender()) {... */\n    tag_313:\n        /* \"@openzeppelin/contracts/access/Ownable.sol\":1796:1958  function _checkOwner() internal view virtual {... */\n      jump\t// out\n        /* \"@openzeppelin/contracts/access/Ownable.sol\":2912:3099  function _transferOwnership(address newOwner) internal virtual {... */\n    tag_259:\n        /* \"@openzeppelin/contracts/access/Ownable.sol\":2985:3001  address oldOwner */\n      0x00\n        /* \"@openzeppelin/contracts/access/Ownable.sol\":3004:3010  _owner */\n      dup1\n      0x00\n      swap1\n      sload\n      swap1\n      0x0100\n      exp\n      swap1\n      div\n      0xffffffffffffffffffffffffffffffffffffffff\n      and\n        /* \"@openzeppelin/contracts/access/Ownable.sol\":2985:3010  address oldOwner = _owner */\n      swap1\n      pop\n        /* \"@openzeppelin/contracts/access/Ownable.sol\":3029:3037  newOwner */\n      dup2\n        /* \"@openzeppelin/contracts/access/Ownable.sol\":3020:3026  _owner */\n      0x00\n      dup1\n        /* \"@openzeppelin/contracts/access/Ownable.sol\":3020:3037  _owner = newOwner */\n      0x0100\n      exp\n      dup2\n      sload\n      dup2\n      0xffffffffffffffffffffffffffffffffffffffff\n      mul\n      not\n      and\n      swap1\n      dup4\n      0xffffffffffffffffffffffffffffffffffffffff\n      and\n      mul\n      or\n      swap1\n      sstore\n      pop\n        /* \"@openzeppelin/contracts/access/Ownable.sol\":3083:3091  newOwner */\n      dup2\n        /* \"@openzeppelin/contracts/access/Ownable.sol\":3052:3092  OwnershipTransferred(oldOwner, newOwner) */\n      0xffffffffffffffffffffffffffffffffffffffff\n      and\n        /* \"@openzeppelin/contracts/access/Ownable.sol\":3073:3081  oldOwner */\n      dup2\n        /* \"@openzeppelin/contracts/access/Ownable.sol\":3052:3092  OwnershipTransferred(oldOwner, newOwner) */\n      0xffffffffffffffffffffffffffffffffffffffff\n      and\n      0x8be0079c531659141344cd1fd0a4f28419497f9722a3daafe3b4186f6b6457e0\n      mload(0x40)\n      mload(0x40)\n      dup1\n      swap2\n      sub\n      swap1\n      log3\n        /* \"@openzeppelin/contracts/access/Ownable.sol\":2975:3099  {... */\n      pop\n        /* \"@openzeppelin/contracts/access/Ownable.sol\":2912:3099  function _transferOwnership(address newOwner) internal virtual {... */\n      pop\n      jump\t// out\n        /* \"@openzeppelin/contracts/utils/Context.sol\":656:752  function _msgSender() internal view virtual returns (address) {... */\n    tag_311:\n        /* \"@openzeppelin/contracts/utils/Context.sol\":709:716  address */\n      0x00\n        /* \"@openzeppelin/contracts/utils/Context.sol\":735:745  msg.sender */\n      caller\n        /* \"@openzeppelin/contracts/utils/Context.sol\":728:745  return msg.sender */\n      swap1\n      pop\n        /* \"@openzeppelin/contracts/utils/Context.sol\":656:752  function _msgSender() internal view virtual returns (address) {... */\n      swap1\n      jump\t// out\n        /* \"#utility.yul\":88:205   */\n    tag_319:\n        /* \"#utility.yul\":197:198   */\n      0x00\n        /* \"#utility.yul\":194:195   */\n      dup1\n        /* \"#utility.yul\":187:199   */\n      revert\n        /* \"#utility.yul\":334:411   */\n    tag_321:\n        /* \"#utility.yul\":371:378   */\n      0x00\n        /* \"#utility.yul\":400:405   */\n      dup2\n        /* \"#utility.yul\":389:405   */\n      swap1\n      pop\n        /* \"#utility.yul\":334:411   */\n      swap2\n      swap1\n      pop\n      jump\t// out\n        /* \"#utility.yul\":417:539   */\n    tag_322:\n        /* \"#utility.yul\":490:514   */\n      tag_356\n        /* \"#utility.yul\":508:513   */\n      dup2\n        /* \"#utility.yul\":490:514   */\n      tag_321\n      jump\t// in\n    tag_356:\n        /* \"#utility.yul\":483:488   */\n      dup2\n        /* \"#utility.yul\":480:515   */\n      eq\n        /* \"#utility.yul\":470:533   */\n      tag_357\n      jumpi\n        /* \"#utility.yul\":529:530   */\n      0x00\n        /* \"#utility.yul\":526:527   */\n      dup1\n        /* \"#utility.yul\":519:531   */\n      revert\n        /* \"#utility.yul\":470:533   */\n    tag_357:\n        /* \"#utility.yul\":417:539   */\n      pop\n      jump\t// out\n        /* \"#utility.yul\":545:684   */\n    tag_323:\n        /* \"#utility.yul\":591:596   */\n      0x00\n        /* \"#utility.yul\":629:635   */\n      dup2\n        /* \"#utility.yul\":616:636   */\n      calldataload\n        /* \"#utility.yul\":607:636   */\n      swap1\n      pop\n        /* \"#utility.yul\":645:678   */\n      tag_359\n        /* \"#utility.yul\":672:677   */\n      dup2\n        /* \"#utility.yul\":645:678   */\n      tag_322\n      jump\t// in\n    tag_359:\n        /* \"#utility.yul\":545:684   */\n      swap3\n      swap2\n      pop\n      pop\n      jump\t// out\n        /* \"#utility.yul\":690:1019   */\n    tag_29:\n        /* \"#utility.yul\":749:755   */\n      0x00\n        /* \"#utility.yul\":798:800   */\n      0x20\n        /* \"#utility.yul\":786:795   */\n      dup3\n        /* \"#utility.yul\":777:784   */\n      dup5\n        /* \"#utility.yul\":773:796   */\n      sub\n        /* \"#utility.yul\":769:801   */\n      slt\n        /* \"#utility.yul\":766:885   */\n      iszero\n      tag_361\n      jumpi\n        /* \"#utility.yul\":804:883   */\n      tag_362\n      tag_319\n      jump\t// in\n    tag_362:\n        /* \"#utility.yul\":766:885   */\n    tag_361:\n        /* \"#utility.yul\":924:925   */\n      0x00\n        /* \"#utility.yul\":949:1002   */\n      tag_363\n        /* \"#utility.yul\":994:1001   */\n      dup5\n        /* \"#utility.yul\":985:991   */\n      dup3\n        /* \"#utility.yul\":974:983   */\n      dup6\n        /* \"#utility.yul\":970:992   */\n      add\n        /* \"#utility.yul\":949:1002   */\n      tag_323\n      jump\t// in\n    tag_363:\n        /* \"#utility.yul\":939:1002   */\n      swap2\n      pop\n        /* \"#utility.yul\":895:1012   */\n      pop\n        /* \"#utility.yul\":690:1019   */\n      swap3\n      swap2\n      pop\n      pop\n      jump\t// out\n        /* \"#utility.yul\":1025:1151   */\n    tag_324:\n        /* \"#utility.yul\":1062:1069   */\n      0x00\n        /* \"#utility.yul\":1102:1144   */\n      0xffffffffffffffffffffffffffffffffffffffff\n        /* \"#utility.yul\":1095:1100   */\n      dup3\n        /* \"#utility.yul\":1091:1145   */\n      and\n        /* \"#utility.yul\":1080:1145   */\n      swap1\n      pop\n        /* \"#utility.yul\":1025:1151   */\n      swap2\n      swap1\n      pop\n      jump\t// out\n        /* \"#utility.yul\":1157:1253   */\n    tag_325:\n        /* \"#utility.yul\":1194:1201   */\n      0x00\n        /* \"#utility.yul\":1223:1247   */\n      tag_366\n        /* \"#utility.yul\":1241:1246   */\n      dup3\n        /* \"#utility.yul\":1223:1247   */\n      tag_324\n      jump\t// in\n    tag_366:\n        /* \"#utility.yul\":1212:1247   */\n      swap1\n      pop\n        /* \"#utility.yul\":1157:1253   */\n      swap2\n      swap1\n      pop\n      jump\t// out\n        /* \"#utility.yul\":1259:1377   */\n    tag_326:\n        /* \"#utility.yul\":1346:1370   */\n      tag_368\n        /* \"#utility.yul\":1364:1369   */\n      dup2\n        /* \"#utility.yul\":1346:1370   */\n      tag_325\n      jump\t// in\n    tag_368:\n        /* \"#utility.yul\":1341:1344   */\n      dup3\n        /* \"#utility.yul\":1334:1371   */\n      mstore\n        /* \"#utility.yul\":1259:1377   */\n      pop\n      pop\n      jump\t// out\n        /* \"#utility.yul\":1383:1605   */\n    tag_32:\n        /* \"#utility.yul\":1476:1480   */\n      0x00\n        /* \"#utility.yul\":1514:1516   */\n      0x20\n        /* \"#utility.yul\":1503:1512   */\n      dup3\n        /* \"#utility.yul\":1499:1517   */\n      add\n        /* \"#utility.yul\":1491:1517   */\n      swap1\n      pop\n        /* \"#utility.yul\":1527:1598   */\n      tag_370\n        /* \"#utility.yul\":1595:1596   */\n      0x00\n        /* \"#utility.yul\":1584:1593   */\n      dup4\n        /* \"#utility.yul\":1580:1597   */\n      add\n        /* \"#utility.yul\":1571:1577   */\n      dup5\n        /* \"#utility.yul\":1527:1598   */\n      tag_326\n      jump\t// in\n    tag_370:\n        /* \"#utility.yul\":1383:1605   */\n      swap3\n      swap2\n      pop\n      pop\n      jump\t// out\n        /* \"#utility.yul\":1611:1733   */\n    tag_327:\n        /* \"#utility.yul\":1684:1708   */\n      tag_372\n        /* \"#utility.yul\":1702:1707   */\n      dup2\n        /* \"#utility.yul\":1684:1708   */\n      tag_325\n      jump\t// in\n    tag_372:\n        /* \"#utility.yul\":1677:1682   */\n      dup2\n        /* \"#utility.yul\":1674:1709   */\n      eq\n        /* \"#utility.yul\":1664:1727   */\n      tag_373\n      jumpi\n        /* \"#utility.yul\":1723:1724   */\n      0x00\n        /* \"#utility.yul\":1720:1721   */\n      dup1\n        /* \"#utility.yul\":1713:1725   */\n      revert\n        /* \"#utility.yul\":1664:1727   */\n    tag_373:\n        /* \"#utility.yul\":1611:1733   */\n      pop\n      jump\t// out\n        /* \"#utility.yul\":1739:1878   */\n    tag_328:\n        /* \"#utility.yul\":1785:1790   */\n      0x00\n        /* \"#utility.yul\":1823:1829   */\n      dup2\n        /* \"#utility.yul\":1810:1830   */\n      calldataload\n        /* \"#utility.yul\":1801:1830   */\n      swap1\n      pop\n        /* \"#utility.yul\":1839:1872   */\n      tag_375\n        /* \"#utility.yul\":1866:1871   */\n      dup2\n        /* \"#utility.yul\":1839:1872   */\n      tag_327\n      jump\t// in\n    tag_375:\n        /* \"#utility.yul\":1739:1878   */\n      swap3\n      swap2\n      pop\n      pop\n      jump\t// out\n        /* \"#utility.yul\":1884:2358   */\n    tag_35:\n        /* \"#utility.yul\":1952:1958   */\n      0x00\n        /* \"#utility.yul\":1960:1966   */\n      dup1\n        /* \"#utility.yul\":2009:2011   */\n      0x40\n        /* \"#utility.yul\":1997:2006   */\n      dup4\n        /* \"#utility.yul\":1988:1995   */\n      dup6\n        /* \"#utility.yul\":1984:2007   */\n      sub\n        /* \"#utility.yul\":1980:2012   */\n      slt\n        /* \"#utility.yul\":1977:2096   */\n      iszero\n      tag_377\n      jumpi\n        /* \"#utility.yul\":2015:2094   */\n      tag_378\n      tag_319\n      jump\t// in\n    tag_378:\n        /* \"#utility.yul\":1977:2096   */\n    tag_377:\n        /* \"#utility.yul\":2135:2136   */\n      0x00\n        /* \"#utility.yul\":2160:2213   */\n      tag_379\n        /* \"#utility.yul\":2205:2212   */\n      dup6\n        /* \"#utility.yul\":2196:2202   */\n      dup3\n        /* \"#utility.yul\":2185:2194   */\n      dup7\n        /* \"#utility.yul\":2181:2203   */\n      add\n        /* \"#utility.yul\":2160:2213   */\n      tag_328\n      jump\t// in\n    tag_379:\n        /* \"#utility.yul\":2150:2213   */\n      swap3\n      pop\n        /* \"#utility.yul\":2106:2223   */\n      pop\n        /* \"#utility.yul\":2262:2264   */\n      0x20\n        /* \"#utility.yul\":2288:2341   */\n      tag_380\n        /* \"#utility.yul\":2333:2340   */\n      dup6\n        /* \"#utility.yul\":2324:2330   */\n      dup3\n        /* \"#utility.yul\":2313:2322   */\n      dup7\n        /* \"#utility.yul\":2309:2331   */\n      add\n        /* \"#utility.yul\":2288:2341   */\n      tag_323\n      jump\t// in\n    tag_380:\n        /* \"#utility.yul\":2278:2341   */\n      swap2\n      pop\n        /* \"#utility.yul\":2233:2351   */\n      pop\n        /* \"#utility.yul\":1884:2358   */\n      swap3\n      pop\n      swap3\n      swap1\n      pop\n      jump\t// out\n        /* \"#utility.yul\":2364:2454   */\n    tag_329:\n        /* \"#utility.yul\":2398:2405   */\n      0x00\n        /* \"#utility.yul\":2441:2446   */\n      dup2\n        /* \"#utility.yul\":2434:2447   */\n      iszero\n        /* \"#utility.yul\":2427:2448   */\n      iszero\n        /* \"#utility.yul\":2416:2448   */\n      swap1\n      pop\n        /* \"#utility.yul\":2364:2454   */\n      swap2\n      swap1\n      pop\n      jump\t// out\n        /* \"#utility.yul\":2460:2569   */\n    tag_330:\n        /* \"#utility.yul\":2541:2562   */\n      tag_383\n        /* \"#utility.yul\":2556:2561   */\n      dup2\n        /* \"#utility.yul\":2541:2562   */\n      tag_329\n      jump\t// in\n    tag_383:\n        /* \"#utility.yul\":2536:2539   */\n      dup3\n        /* \"#utility.yul\":2529:2563   */\n      mstore\n        /* \"#utility.yul\":2460:2569   */\n      pop\n      pop\n      jump\t// out\n        /* \"#utility.yul\":2575:2785   */\n    tag_38:\n        /* \"#utility.yul\":2662:2666   */\n      0x00\n        /* \"#utility.yul\":2700:2702   */\n      0x20\n        /* \"#utility.yul\":2689:2698   */\n      dup3\n        /* \"#utility.yul\":2685:2703   */\n      add\n        /* \"#utility.yul\":2677:2703   */\n      swap1\n      pop\n        /* \"#utility.yul\":2713:2778   */\n      tag_385\n        /* \"#utility.yul\":2775:2776   */\n      0x00\n        /* \"#utility.yul\":2764:2773   */\n      dup4\n        /* \"#utility.yul\":2760:2777   */\n      add\n        /* \"#utility.yul\":2751:2757   */\n      dup5\n        /* \"#utility.yul\":2713:2778   */\n      tag_330\n      jump\t// in\n    tag_385:\n        /* \"#utility.yul\":2575:2785   */\n      swap3\n      swap2\n      pop\n      pop\n      jump\t// out\n        /* \"#utility.yul\":2791:2851   */\n    tag_331:\n        /* \"#utility.yul\":2819:2822   */\n      0x00\n        /* \"#utility.yul\":2840:2845   */\n      dup2\n        /* \"#utility.yul\":2833:2845   */\n      swap1\n      pop\n        /* \"#utility.yul\":2791:2851   */\n      swap2\n      swap1\n      pop\n      jump\t// out\n        /* \"#utility.yul\":2857:2999   */\n    tag_332:\n        /* \"#utility.yul\":2907:2916   */\n      0x00\n        /* \"#utility.yul\":2940:2993   */\n      tag_388\n        /* \"#utility.yul\":2958:2992   */\n      tag_389\n        /* \"#utility.yul\":2967:2991   */\n      tag_390\n        /* \"#utility.yul\":2985:2990   */\n      dup5\n        /* \"#utility.yul\":2967:2991   */\n      tag_324\n      jump\t// in\n    tag_390:\n        /* \"#utility.yul\":2958:2992   */\n      tag_331\n      jump\t// in\n    tag_389:\n        /* \"#utility.yul\":2940:2993   */\n      tag_324\n      jump\t// in\n    tag_388:\n        /* \"#utility.yul\":2927:2993   */\n      swap1\n      pop\n        /* \"#utility.yul\":2857:2999   */\n      swap2\n      swap1\n      pop\n      jump\t// out\n        /* \"#utility.yul\":3005:3131   */\n    tag_333:\n        /* \"#utility.yul\":3055:3064   */\n      0x00\n        /* \"#utility.yul\":3088:3125   */\n      tag_392\n        /* \"#utility.yul\":3119:3124   */\n      dup3\n        /* \"#utility.yul\":3088:3125   */\n      tag_332\n      jump\t// in\n    tag_392:\n        /* \"#utility.yul\":3075:3125   */\n      swap1\n      pop\n        /* \"#utility.yul\":3005:3131   */\n      swap2\n      swap1\n      pop\n      jump\t// out\n        /* \"#utility.yul\":3137:3276   */\n    tag_334:\n        /* \"#utility.yul\":3200:3209   */\n      0x00\n        /* \"#utility.yul\":3233:3270   */\n      tag_394\n        /* \"#utility.yul\":3264:3269   */\n      dup3\n        /* \"#utility.yul\":3233:3270   */\n      tag_333\n      jump\t// in\n    tag_394:\n        /* \"#utility.yul\":3220:3270   */\n      swap1\n      pop\n        /* \"#utility.yul\":3137:3276   */\n      swap2\n      swap1\n      pop\n      jump\t// out\n        /* \"#utility.yul\":3282:3439   */\n    tag_335:\n        /* \"#utility.yul\":3382:3432   */\n      tag_396\n        /* \"#utility.yul\":3426:3431   */\n      dup2\n        /* \"#utility.yul\":3382:3432   */\n      tag_334\n      jump\t// in\n    tag_396:\n        /* \"#utility.yul\":3377:3380   */\n      dup3\n        /* \"#utility.yul\":3370:3433   */\n      mstore\n        /* \"#utility.yul\":3282:3439   */\n      pop\n      pop\n      jump\t// out\n        /* \"#utility.yul\":3445:3693   */\n    tag_42:\n        /* \"#utility.yul\":3551:3555   */\n      0x00\n        /* \"#utility.yul\":3589:3591   */\n      0x20\n        /* \"#utility.yul\":3578:3587   */\n      dup3\n        /* \"#utility.yul\":3574:3592   */\n      add\n        /* \"#utility.yul\":3566:3592   */\n      swap1\n      pop\n        /* \"#utility.yul\":3602:3686   */\n      tag_398\n        /* \"#utility.yul\":3683:3684   */\n      0x00\n        /* \"#utility.yul\":3672:3681   */\n      dup4\n        /* \"#utility.yul\":3668:3685   */\n      add\n        /* \"#utility.yul\":3659:3665   */\n      dup5\n        /* \"#utility.yul\":3602:3686   */\n      tag_335\n      jump\t// in\n    tag_398:\n        /* \"#utility.yul\":3445:3693   */\n      swap3\n      swap2\n      pop\n      pop\n      jump\t// out\n        /* \"#utility.yul\":3699:4028   */\n    tag_45:\n        /* \"#utility.yul\":3758:3764   */\n      0x00\n        /* \"#utility.yul\":3807:3809   */\n      0x20\n        /* \"#utility.yul\":3795:3804   */\n      dup3\n        /* \"#utility.yul\":3786:3793   */\n      dup5\n        /* \"#utility.yul\":3782:3805   */\n      sub\n        /* \"#utility.yul\":3778:3810   */\n      slt\n        /* \"#utility.yul\":3775:3894   */\n      iszero\n      tag_400\n      jumpi\n        /* \"#utility.yul\":3813:3892   */\n      tag_401\n      tag_319\n      jump\t// in\n    tag_401:\n        /* \"#utility.yul\":3775:3894   */\n    tag_400:\n        /* \"#utility.yul\":3933:3934   */\n      0x00\n        /* \"#utility.yul\":3958:4011   */\n      tag_402\n        /* \"#utility.yul\":4003:4010   */\n      dup5\n        /* \"#utility.yul\":3994:4000   */\n      dup3\n        /* \"#utility.yul\":3983:3992   */\n      dup6\n        /* \"#utility.yul\":3979:4001   */\n      add\n        /* \"#utility.yul\":3958:4011   */\n      tag_328\n      jump\t// in\n    tag_402:\n        /* \"#utility.yul\":3948:4011   */\n      swap2\n      pop\n        /* \"#utility.yul\":3904:4021   */\n      pop\n        /* \"#utility.yul\":3699:4028   */\n      swap3\n      swap2\n      pop\n      pop\n      jump\t// out\n        /* \"#utility.yul\":4034:4152   */\n    tag_336:\n        /* \"#utility.yul\":4121:4145   */\n      tag_404\n        /* \"#utility.yul\":4139:4144   */\n      dup2\n        /* \"#utility.yul\":4121:4145   */\n      tag_321\n      jump\t// in\n    tag_404:\n        /* \"#utility.yul\":4116:4119   */\n      dup3\n        /* \"#utility.yul\":4109:4146   */\n      mstore\n        /* \"#utility.yul\":4034:4152   */\n      pop\n      pop\n      jump\t// out\n        /* \"#utility.yul\":4158:4822   */\n    tag_48:\n        /* \"#utility.yul\":4363:4367   */\n      0x00\n        /* \"#utility.yul\":4401:4404   */\n      0xa0\n        /* \"#utility.yul\":4390:4399   */\n      dup3\n        /* \"#utility.yul\":4386:4405   */\n      add\n        /* \"#utility.yul\":4378:4405   */\n      swap1\n      pop\n        /* \"#utility.yul\":4415:4486   */\n      tag_406\n        /* \"#utility.yul\":4483:4484   */\n      0x00\n        /* \"#utility.yul\":4472:4481   */\n      dup4\n        /* \"#utility.yul\":4468:4485   */\n      add\n        /* \"#utility.yul\":4459:4465   */\n      dup9\n        /* \"#utility.yul\":4415:4486   */\n      tag_336\n      jump\t// in\n    tag_406:\n        /* \"#utility.yul\":4496:4568   */\n      tag_407\n        /* \"#utility.yul\":4564:4566   */\n      0x20\n        /* \"#utility.yul\":4553:4562   */\n      dup4\n        /* \"#utility.yul\":4549:4567   */\n      add\n        /* \"#utility.yul\":4540:4546   */\n      dup8\n        /* \"#utility.yul\":4496:4568   */\n      tag_336\n      jump\t// in\n    tag_407:\n        /* \"#utility.yul\":4578:4650   */\n      tag_408\n        /* \"#utility.yul\":4646:4648   */\n      0x40\n        /* \"#utility.yul\":4635:4644   */\n      dup4\n        /* \"#utility.yul\":4631:4649   */\n      add\n        /* \"#utility.yul\":4622:4628   */\n      dup7\n        /* \"#utility.yul\":4578:4650   */\n      tag_336\n      jump\t// in\n    tag_408:\n        /* \"#utility.yul\":4660:4732   */\n      tag_409\n        /* \"#utility.yul\":4728:4730   */\n      0x60\n        /* \"#utility.yul\":4717:4726   */\n      dup4\n        /* \"#utility.yul\":4713:4731   */\n      add\n        /* \"#utility.yul\":4704:4710   */\n      dup6\n        /* \"#utility.yul\":4660:4732   */\n      tag_336\n      jump\t// in\n    tag_409:\n        /* \"#utility.yul\":4742:4815   */\n      tag_410\n        /* \"#utility.yul\":4810:4813   */\n      0x80\n        /* \"#utility.yul\":4799:4808   */\n      dup4\n        /* \"#utility.yul\":4795:4814   */\n      add\n        /* \"#utility.yul\":4786:4792   */\n      dup5\n        /* \"#utility.yul\":4742:4815   */\n      tag_336\n      jump\t// in\n    tag_410:\n        /* \"#utility.yul\":4158:4822   */\n      swap7\n      swap6\n      pop\n      pop\n      pop\n      pop\n      pop\n      pop\n      jump\t// out\n        /* \"#utility.yul\":4828:5160   */\n    tag_52:\n        /* \"#utility.yul\":4949:4953   */\n      0x00\n        /* \"#utility.yul\":4987:4989   */\n      0x40\n        /* \"#utility.yul\":4976:4985   */\n      dup3\n        /* \"#utility.yul\":4972:4990   */\n      add\n        /* \"#utility.yul\":4964:4990   */\n      swap1\n      pop\n        /* \"#utility.yul\":5000:5071   */\n      tag_412\n        /* \"#utility.yul\":5068:5069   */\n      0x00\n        /* \"#utility.yul\":5057:5066   */\n      dup4\n        /* \"#utility.yul\":5053:5070   */\n      add\n        /* \"#utility.yul\":5044:5050   */\n      dup6\n        /* \"#utility.yul\":5000:5071   */\n      tag_336\n      jump\t// in\n    tag_412:\n        /* \"#utility.yul\":5081:5153   */\n      tag_413\n        /* \"#utility.yul\":5149:5151   */\n      0x20\n        /* \"#utility.yul\":5138:5147   */\n      dup4\n        /* \"#utility.yul\":5134:5152   */\n      add\n        /* \"#utility.yul\":5125:5131   */\n      dup5\n        /* \"#utility.yul\":5081:5153   */\n      tag_336\n      jump\t// in\n    tag_413:\n        /* \"#utility.yul\":4828:5160   */\n      swap4\n      swap3\n      pop\n      pop\n      pop\n      jump\t// out\n        /* \"#utility.yul\":5166:5640   */\n    tag_55:\n        /* \"#utility.yul\":5234:5240   */\n      0x00\n        /* \"#utility.yul\":5242:5248   */\n      dup1\n        /* \"#utility.yul\":5291:5293   */\n      0x40\n        /* \"#utility.yul\":5279:5288   */\n      dup4\n        /* \"#utility.yul\":5270:5277   */\n      dup6\n        /* \"#utility.yul\":5266:5289   */\n      sub\n        /* \"#utility.yul\":5262:5294   */\n      slt\n        /* \"#utility.yul\":5259:5378   */\n      iszero\n      tag_415\n      jumpi\n        /* \"#utility.yul\":5297:5376   */\n      tag_416\n      tag_319\n      jump\t// in\n    tag_416:\n        /* \"#utility.yul\":5259:5378   */\n    tag_415:\n        /* \"#utility.yul\":5417:5418   */\n      0x00\n        /* \"#utility.yul\":5442:5495   */\n      tag_417\n        /* \"#utility.yul\":5487:5494   */\n      dup6\n        /* \"#utility.yul\":5478:5484   */\n      dup3\n        /* \"#utility.yul\":5467:5476   */\n      dup7\n        /* \"#utility.yul\":5463:5485   */\n      add\n        /* \"#utility.yul\":5442:5495   */\n      tag_323\n      jump\t// in\n    tag_417:\n        /* \"#utility.yul\":5432:5495   */\n      swap3\n      pop\n        /* \"#utility.yul\":5388:5505   */\n      pop\n        /* \"#utility.yul\":5544:5546   */\n      0x20\n        /* \"#utility.yul\":5570:5623   */\n      tag_418\n        /* \"#utility.yul\":5615:5622   */\n      dup6\n        /* \"#utility.yul\":5606:5612   */\n      dup3\n        /* \"#utility.yul\":5595:5604   */\n      dup7\n        /* \"#utility.yul\":5591:5613   */\n      add\n        /* \"#utility.yul\":5570:5623   */\n      tag_323\n      jump\t// in\n    tag_418:\n        /* \"#utility.yul\":5560:5623   */\n      swap2\n      pop\n        /* \"#utility.yul\":5515:5633   */\n      pop\n        /* \"#utility.yul\":5166:5640   */\n      swap3\n      pop\n      swap3\n      swap1\n      pop\n      jump\t// out\n        /* \"#utility.yul\":5646:6397   */\n    tag_62:\n        /* \"#utility.yul\":5867:5871   */\n      0x00\n        /* \"#utility.yul\":5905:5908   */\n      0xc0\n        /* \"#utility.yul\":5894:5903   */\n      dup3\n        /* \"#utility.yul\":5890:5909   */\n      add\n        /* \"#utility.yul\":5882:5909   */\n      swap1\n      pop\n        /* \"#utility.yul\":5919:5984   */\n      tag_420\n        /* \"#utility.yul\":5981:5982   */\n      0x00\n        /* \"#utility.yul\":5970:5979   */\n      dup4\n        /* \"#utility.yul\":5966:5983   */\n      add\n        /* \"#utility.yul\":5957:5963   */\n      dup10\n        /* \"#utility.yul\":5919:5984   */\n      tag_330\n      jump\t// in\n    tag_420:\n        /* \"#utility.yul\":5994:6060   */\n      tag_421\n        /* \"#utility.yul\":6056:6058   */\n      0x20\n        /* \"#utility.yul\":6045:6054   */\n      dup4\n        /* \"#utility.yul\":6041:6059   */\n      add\n        /* \"#utility.yul\":6032:6038   */\n      dup9\n        /* \"#utility.yul\":5994:6060   */\n      tag_330\n      jump\t// in\n    tag_421:\n        /* \"#utility.yul\":6070:6142   */\n      tag_422\n        /* \"#utility.yul\":6138:6140   */\n      0x40\n        /* \"#utility.yul\":6127:6136   */\n      dup4\n        /* \"#utility.yul\":6123:6141   */\n      add\n        /* \"#utility.yul\":6114:6120   */\n      dup8\n        /* \"#utility.yul\":6070:6142   */\n      tag_326\n      jump\t// in\n    tag_422:\n        /* \"#utility.yul\":6152:6224   */\n      tag_423\n        /* \"#utility.yul\":6220:6222   */\n      0x60\n        /* \"#utility.yul\":6209:6218   */\n      dup4\n        /* \"#utility.yul\":6205:6223   */\n      add\n        /* \"#utility.yul\":6196:6202   */\n      dup7\n        /* \"#utility.yul\":6152:6224   */\n      tag_336\n      jump\t// in\n    tag_423:\n        /* \"#utility.yul\":6234:6307   */\n      tag_424\n        /* \"#utility.yul\":6302:6305   */\n      0x80\n        /* \"#utility.yul\":6291:6300   */\n      dup4\n        /* \"#utility.yul\":6287:6306   */\n      add\n        /* \"#utility.yul\":6278:6284   */\n      dup6\n        /* \"#utility.yul\":6234:6307   */\n      tag_336\n      jump\t// in\n    tag_424:\n        /* \"#utility.yul\":6317:6390   */\n      tag_425\n        /* \"#utility.yul\":6385:6388   */\n      0xa0\n        /* \"#utility.yul\":6374:6383   */\n      dup4\n        /* \"#utility.yul\":6370:6389   */\n      add\n        /* \"#utility.yul\":6361:6367   */\n      dup5\n        /* \"#utility.yul\":6317:6390   */\n      tag_336\n      jump\t// in\n    tag_425:\n        /* \"#utility.yul\":5646:6397   */\n      swap8\n      swap7\n      pop\n      pop\n      pop\n      pop\n      pop\n      pop\n      pop\n      jump\t// out\n        /* \"#utility.yul\":6403:7022   */\n    tag_65:\n        /* \"#utility.yul\":6480:6486   */\n      0x00\n        /* \"#utility.yul\":6488:6494   */\n      dup1\n        /* \"#utility.yul\":6496:6502   */\n      0x00\n        /* \"#utility.yul\":6545:6547   */\n      0x60\n        /* \"#utility.yul\":6533:6542   */\n      dup5\n        /* \"#utility.yul\":6524:6531   */\n      dup7\n        /* \"#utility.yul\":6520:6543   */\n      sub\n        /* \"#utility.yul\":6516:6548   */\n      slt\n        /* \"#utility.yul\":6513:6632   */\n      iszero\n      tag_427\n      jumpi\n        /* \"#utility.yul\":6551:6630   */\n      tag_428\n      tag_319\n      jump\t// in\n    tag_428:\n        /* \"#utility.yul\":6513:6632   */\n    tag_427:\n        /* \"#utility.yul\":6671:6672   */\n      0x00\n        /* \"#utility.yul\":6696:6749   */\n      tag_429\n        /* \"#utility.yul\":6741:6748   */\n      dup7\n        /* \"#utility.yul\":6732:6738   */\n      dup3\n        /* \"#utility.yul\":6721:6730   */\n      dup8\n        /* \"#utility.yul\":6717:6739   */\n      add\n        /* \"#utility.yul\":6696:6749   */\n      tag_323\n      jump\t// in\n    tag_429:\n        /* \"#utility.yul\":6686:6749   */\n      swap4\n      pop\n        /* \"#utility.yul\":6642:6759   */\n      pop\n        /* \"#utility.yul\":6798:6800   */\n      0x20\n        /* \"#utility.yul\":6824:6877   */\n      tag_430\n        /* \"#utility.yul\":6869:6876   */\n      dup7\n        /* \"#utility.yul\":6860:6866   */\n      dup3\n        /* \"#utility.yul\":6849:6858   */\n      dup8\n        /* \"#utility.yul\":6845:6867   */\n      add\n        /* \"#utility.yul\":6824:6877   */\n      tag_323\n      jump\t// in\n    tag_430:\n        /* \"#utility.yul\":6814:6877   */\n      swap3\n      pop\n        /* \"#utility.yul\":6769:6887   */\n      pop\n        /* \"#utility.yul\":6926:6928   */\n      0x40\n        /* \"#utility.yul\":6952:7005   */\n      tag_431\n        /* \"#utility.yul\":6997:7004   */\n      dup7\n        /* \"#utility.yul\":6988:6994   */\n      dup3\n        /* \"#utility.yul\":6977:6986   */\n      dup8\n        /* \"#utility.yul\":6973:6995   */\n      add\n        /* \"#utility.yul\":6952:7005   */\n      tag_323\n      jump\t// in\n    tag_431:\n        /* \"#utility.yul\":6942:7005   */\n      swap2\n      pop\n        /* \"#utility.yul\":6897:7015   */\n      pop\n        /* \"#utility.yul\":6403:7022   */\n      swap3\n      pop\n      swap3\n      pop\n      swap3\n      jump\t// out\n        /* \"#utility.yul\":7028:7914   */\n    tag_71:\n        /* \"#utility.yul\":7289:7293   */\n      0x00\n        /* \"#utility.yul\":7327:7330   */\n      0xe0\n        /* \"#utility.yul\":7316:7325   */\n      dup3\n        /* \"#utility.yul\":7312:7331   */\n      add\n        /* \"#utility.yul\":7304:7331   */\n      swap1\n      pop\n        /* \"#utility.yul\":7341:7412   */\n      tag_433\n        /* \"#utility.yul\":7409:7410   */\n      0x00\n        /* \"#utility.yul\":7398:7407   */\n      dup4\n        /* \"#utility.yul\":7394:7411   */\n      add\n        /* \"#utility.yul\":7385:7391   */\n      dup11\n        /* \"#utility.yul\":7341:7412   */\n      tag_336\n      jump\t// in\n    tag_433:\n        /* \"#utility.yul\":7422:7494   */\n      tag_434\n        /* \"#utility.yul\":7490:7492   */\n      0x20\n        /* \"#utility.yul\":7479:7488   */\n      dup4\n        /* \"#utility.yul\":7475:7493   */\n      add\n        /* \"#utility.yul\":7466:7472   */\n      dup10\n        /* \"#utility.yul\":7422:7494   */\n      tag_336\n      jump\t// in\n    tag_434:\n        /* \"#utility.yul\":7504:7576   */\n      tag_435\n        /* \"#utility.yul\":7572:7574   */\n      0x40\n        /* \"#utility.yul\":7561:7570   */\n      dup4\n        /* \"#utility.yul\":7557:7575   */\n      add\n        /* \"#utility.yul\":7548:7554   */\n      dup9\n        /* \"#utility.yul\":7504:7576   */\n      tag_336\n      jump\t// in\n    tag_435:\n        /* \"#utility.yul\":7586:7658   */\n      tag_436\n        /* \"#utility.yul\":7654:7656   */\n      0x60\n        /* \"#utility.yul\":7643:7652   */\n      dup4\n        /* \"#utility.yul\":7639:7657   */\n      add\n        /* \"#utility.yul\":7630:7636   */\n      dup8\n        /* \"#utility.yul\":7586:7658   */\n      tag_336\n      jump\t// in\n    tag_436:\n        /* \"#utility.yul\":7668:7741   */\n      tag_437\n        /* \"#utility.yul\":7736:7739   */\n      0x80\n        /* \"#utility.yul\":7725:7734   */\n      dup4\n        /* \"#utility.yul\":7721:7740   */\n      add\n        /* \"#utility.yul\":7712:7718   */\n      dup7\n        /* \"#utility.yul\":7668:7741   */\n      tag_336\n      jump\t// in\n    tag_437:\n        /* \"#utility.yul\":7751:7824   */\n      tag_438\n        /* \"#utility.yul\":7819:7822   */\n      0xa0\n        /* \"#utility.yul\":7808:7817   */\n      dup4\n        /* \"#utility.yul\":7804:7823   */\n      add\n        /* \"#utility.yul\":7795:7801   */\n      dup6\n        /* \"#utility.yul\":7751:7824   */\n      tag_336\n      jump\t// in\n    tag_438:\n        /* \"#utility.yul\":7834:7907   */\n      tag_439\n        /* \"#utility.yul\":7902:7905   */\n      0xc0\n        /* \"#utility.yul\":7891:7900   */\n      dup4\n        /* \"#utility.yul\":7887:7906   */\n      add\n        /* \"#utility.yul\":7878:7884   */\n      dup5\n        /* \"#utility.yul\":7834:7907   */\n      tag_336\n      jump\t// in\n    tag_439:\n        /* \"#utility.yul\":7028:7914   */\n      swap9\n      swap8\n      pop\n      pop\n      pop\n      pop\n      pop\n      pop\n      pop\n      pop\n      jump\t// out\n        /* \"#utility.yul\":7920:8142   */\n    tag_88:\n        /* \"#utility.yul\":8013:8017   */\n      0x00\n        /* \"#utility.yul\":8051:8053   */\n      0x20\n        /* \"#utility.yul\":8040:8049   */\n      dup3\n        /* \"#utility.yul\":8036:8054   */\n      add\n        /* \"#utility.yul\":8028:8054   */\n      swap1\n      pop\n        /* \"#utility.yul\":8064:8135   */\n      tag_441\n        /* \"#utility.yul\":8132:8133   */\n      0x00\n        /* \"#utility.yul\":8121:8130   */\n      dup4\n        /* \"#utility.yul\":8117:8134   */\n      add\n        /* \"#utility.yul\":8108:8114   */\n      dup5\n        /* \"#utility.yul\":8064:8135   */\n      tag_336\n      jump\t// in\n    tag_441:\n        /* \"#utility.yul\":7920:8142   */\n      swap3\n      swap2\n      pop\n      pop\n      jump\t// out\n        /* \"#utility.yul\":8148:8911   */\n    tag_107:\n        /* \"#utility.yul\":8375:8379   */\n      0x00\n        /* \"#utility.yul\":8413:8416   */\n      0xc0\n        /* \"#utility.yul\":8402:8411   */\n      dup3\n        /* \"#utility.yul\":8398:8417   */\n      add\n        /* \"#utility.yul\":8390:8417   */\n      swap1\n      pop\n        /* \"#utility.yul\":8427:8492   */\n      tag_443\n        /* \"#utility.yul\":8489:8490   */\n      0x00\n        /* \"#utility.yul\":8478:8487   */\n      dup4\n        /* \"#utility.yul\":8474:8491   */\n      add\n        /* \"#utility.yul\":8465:8471   */\n      dup10\n        /* \"#utility.yul\":8427:8492   */\n      tag_330\n      jump\t// in\n    tag_443:\n        /* \"#utility.yul\":8502:8574   */\n      tag_444\n        /* \"#utility.yul\":8570:8572   */\n      0x20\n        /* \"#utility.yul\":8559:8568   */\n      dup4\n        /* \"#utility.yul\":8555:8573   */\n      add\n        /* \"#utility.yul\":8546:8552   */\n      dup9\n        /* \"#utility.yul\":8502:8574   */\n      tag_336\n      jump\t// in\n    tag_444:\n        /* \"#utility.yul\":8584:8656   */\n      tag_445\n        /* \"#utility.yul\":8652:8654   */\n      0x40\n        /* \"#utility.yul\":8641:8650   */\n      dup4\n        /* \"#utility.yul\":8637:8655   */\n      add\n        /* \"#utility.yul\":8628:8634   */\n      dup8\n        /* \"#utility.yul\":8584:8656   */\n      tag_336\n      jump\t// in\n    tag_445:\n        /* \"#utility.yul\":8666:8738   */\n      tag_446\n        /* \"#utility.yul\":8734:8736   */\n      0x60\n        /* \"#utility.yul\":8723:8732   */\n      dup4\n        /* \"#utility.yul\":8719:8737   */\n      add\n        /* \"#utility.yul\":8710:8716   */\n      dup7\n        /* \"#utility.yul\":8666:8738   */\n      tag_336\n      jump\t// in\n    tag_446:\n        /* \"#utility.yul\":8748:8821   */\n      tag_447\n        /* \"#utility.yul\":8816:8819   */\n      0x80\n        /* \"#utility.yul\":8805:8814   */\n      dup4\n        /* \"#utility.yul\":8801:8820   */\n      add\n        /* \"#utility.yul\":8792:8798   */\n      dup6\n        /* \"#utility.yul\":8748:8821   */\n      tag_336\n      jump\t// in\n    tag_447:\n        /* \"#utility.yul\":8831:8904   */\n      tag_448\n        /* \"#utility.yul\":8899:8902   */\n      0xa0\n        /* \"#utility.yul\":8888:8897   */\n      dup4\n        /* \"#utility.yul\":8884:8903   */\n      add\n        /* \"#utility.yul\":8875:8881   */\n      dup5\n        /* \"#utility.yul\":8831:8904   */\n      tag_336\n      jump\t// in\n    tag_448:\n        /* \"#utility.yul\":8148:8911   */\n      swap8\n      swap7\n      pop\n      pop\n      pop\n      pop\n      pop\n      pop\n      pop\n      jump\t// out\n        /* \"#utility.yul\":8917:9391   */\n    tag_113:\n        /* \"#utility.yul\":8985:8991   */\n      0x00\n        /* \"#utility.yul\":8993:8999   */\n      dup1\n        /* \"#utility.yul\":9042:9044   */\n      0x40\n        /* \"#utility.yul\":9030:9039   */\n      dup4\n        /* \"#utility.yul\":9021:9028   */\n      dup6\n        /* \"#utility.yul\":9017:9040   */\n      sub\n        /* \"#utility.yul\":9013:9045   */\n      slt\n        /* \"#utility.yul\":9010:9129   */\n      iszero\n      tag_450\n      jumpi\n        /* \"#utility.yul\":9048:9127   */\n      tag_451\n      tag_319\n      jump\t// in\n    tag_451:\n        /* \"#utility.yul\":9010:9129   */\n    tag_450:\n        /* \"#utility.yul\":9168:9169   */\n      0x00\n        /* \"#utility.yul\":9193:9246   */\n      tag_452\n        /* \"#utility.yul\":9238:9245   */\n      dup6\n        /* \"#utility.yul\":9229:9235   */\n      dup3\n        /* \"#utility.yul\":9218:9227   */\n      dup7\n        /* \"#utility.yul\":9214:9236   */\n      add\n        /* \"#utility.yul\":9193:9246   */\n      tag_323\n      jump\t// in\n    tag_452:\n        /* \"#utility.yul\":9183:9246   */\n      swap3\n      pop\n        /* \"#utility.yul\":9139:9256   */\n      pop\n        /* \"#utility.yul\":9295:9297   */\n      0x20\n        /* \"#utility.yul\":9321:9374   */\n      tag_453\n        /* \"#utility.yul\":9366:9373   */\n      dup6\n        /* \"#utility.yul\":9357:9363   */\n      dup3\n        /* \"#utility.yul\":9346:9355   */\n      dup7\n        /* \"#utility.yul\":9342:9364   */\n      add\n        /* \"#utility.yul\":9321:9374   */\n      tag_328\n      jump\t// in\n    tag_453:\n        /* \"#utility.yul\":9311:9374   */\n      swap2\n      pop\n        /* \"#utility.yul\":9266:9384   */\n      pop\n        /* \"#utility.yul\":8917:9391   */\n      swap3\n      pop\n      swap3\n      swap1\n      pop\n      jump\t// out\n        /* \"#utility.yul\":9397:9577   */\n    tag_119:\n        /* \"#utility.yul\":9445:9522   */\n      0x4e487b7100000000000000000000000000000000000000000000000000000000\n        /* \"#utility.yul\":9442:9443   */\n      0x00\n        /* \"#utility.yul\":9435:9523   */\n      mstore\n        /* \"#utility.yul\":9542:9546   */\n      0x32\n        /* \"#utility.yul\":9539:9540   */\n      0x04\n        /* \"#utility.yul\":9532:9547   */\n      mstore\n        /* \"#utility.yul\":9566:9570   */\n      0x24\n        /* \"#utility.yul\":9563:9564   */\n      0x00\n        /* \"#utility.yul\":9556:9571   */\n      revert\n        /* \"#utility.yul\":9583:9763   */\n    tag_337:\n        /* \"#utility.yul\":9631:9708   */\n      0x4e487b7100000000000000000000000000000000000000000000000000000000\n        /* \"#utility.yul\":9628:9629   */\n      0x00\n        /* \"#utility.yul\":9621:9709   */\n      mstore\n        /* \"#utility.yul\":9728:9732   */\n      0x11\n        /* \"#utility.yul\":9725:9726   */\n      0x04\n        /* \"#utility.yul\":9718:9733   */\n      mstore\n        /* \"#utility.yul\":9752:9756   */\n      0x24\n        /* \"#utility.yul\":9749:9750   */\n      0x00\n        /* \"#utility.yul\":9742:9757   */\n      revert\n        /* \"#utility.yul\":9769:9960   */\n    tag_132:\n        /* \"#utility.yul\":9809:9812   */\n      0x00\n        /* \"#utility.yul\":9828:9848   */\n      tag_457\n        /* \"#utility.yul\":9846:9847   */\n      dup3\n        /* \"#utility.yul\":9828:9848   */\n      tag_321\n      jump\t// in\n    tag_457:\n        /* \"#utility.yul\":9823:9848   */\n      swap2\n      pop\n        /* \"#utility.yul\":9862:9882   */\n      tag_458\n        /* \"#utility.yul\":9880:9881   */\n      dup4\n        /* \"#utility.yul\":9862:9882   */\n      tag_321\n      jump\t// in\n    tag_458:\n        /* \"#utility.yul\":9857:9882   */\n      swap3\n      pop\n        /* \"#utility.yul\":9905:9906   */\n      dup3\n        /* \"#utility.yul\":9902:9903   */\n      dup3\n        /* \"#utility.yul\":9898:9907   */\n      add\n        /* \"#utility.yul\":9891:9907   */\n      swap1\n      pop\n        /* \"#utility.yul\":9926:9929   */\n      dup1\n        /* \"#utility.yul\":9923:9924   */\n      dup3\n        /* \"#utility.yul\":9920:9930   */\n      gt\n        /* \"#utility.yul\":9917:9953   */\n      iszero\n      tag_459\n      jumpi\n        /* \"#utility.yul\":9933:9951   */\n      tag_460\n      tag_337\n      jump\t// in\n    tag_460:\n        /* \"#utility.yul\":9917:9953   */\n    tag_459:\n        /* \"#utility.yul\":9769:9960   */\n      swap3\n      swap2\n      pop\n      pop\n      jump\t// out\n        /* \"#utility.yul\":9966:10376   */\n    tag_135:\n        /* \"#utility.yul\":10006:10013   */\n      0x00\n        /* \"#utility.yul\":10029:10049   */\n      tag_462\n        /* \"#utility.yul\":10047:10048   */\n      dup3\n        /* \"#utility.yul\":10029:10049   */\n      tag_321\n      jump\t// in\n    tag_462:\n        /* \"#utility.yul\":10024:10049   */\n      swap2\n      pop\n        /* \"#utility.yul\":10063:10083   */\n      tag_463\n        /* \"#utility.yul\":10081:10082   */\n      dup4\n        /* \"#utility.yul\":10063:10083   */\n      tag_321\n      jump\t// in\n    tag_463:\n        /* \"#utility.yul\":10058:10083   */\n      swap3\n      pop\n        /* \"#utility.yul\":10118:10119   */\n      dup3\n        /* \"#utility.yul\":10115:10116   */\n      dup3\n        /* \"#utility.yul\":10111:10120   */\n      mul\n        /* \"#utility.yul\":10140:10170   */\n      tag_464\n        /* \"#utility.yul\":10158:10169   */\n      dup2\n        /* \"#utility.yul\":10140:10170   */\n      tag_321\n      jump\t// in\n    tag_464:\n        /* \"#utility.yul\":10129:10170   */\n      swap2\n      pop\n        /* \"#utility.yul\":10319:10320   */\n      dup3\n        /* \"#utility.yul\":10310:10317   */\n      dup3\n        /* \"#utility.yul\":10306:10321   */\n      div\n        /* \"#utility.yul\":10303:10304   */\n      dup5\n        /* \"#utility.yul\":10300:10322   */\n      eq\n        /* \"#utility.yul\":10280:10281   */\n      dup4\n        /* \"#utility.yul\":10273:10282   */\n      iszero\n        /* \"#utility.yul\":10253:10336   */\n      or\n        /* \"#utility.yul\":10230:10369   */\n      tag_465\n      jumpi\n        /* \"#utility.yul\":10349:10367   */\n      tag_466\n      tag_337\n      jump\t// in\n    tag_466:\n        /* \"#utility.yul\":10230:10369   */\n    tag_465:\n        /* \"#utility.yul\":10014:10376   */\n      pop\n        /* \"#utility.yul\":9966:10376   */\n      swap3\n      swap2\n      pop\n      pop\n      jump\t// out\n        /* \"#utility.yul\":10382:10562   */\n    tag_338:\n        /* \"#utility.yul\":10430:10507   */\n      0x4e487b7100000000000000000000000000000000000000000000000000000000\n        /* \"#utility.yul\":10427:10428   */\n      0x00\n        /* \"#utility.yul\":10420:10508   */\n      mstore\n        /* \"#utility.yul\":10527:10531   */\n      0x12\n        /* \"#utility.yul\":10524:10525   */\n      0x04\n        /* \"#utility.yul\":10517:10532   */\n      mstore\n        /* \"#utility.yul\":10551:10555   */\n      0x24\n        /* \"#utility.yul\":10548:10549   */\n      0x00\n        /* \"#utility.yul\":10541:10556   */\n      revert\n        /* \"#utility.yul\":10568:10753   */\n    tag_137:\n        /* \"#utility.yul\":10608:10609   */\n      0x00\n        /* \"#utility.yul\":10625:10645   */\n      tag_469\n        /* \"#utility.yul\":10643:10644   */\n      dup3\n        /* \"#utility.yul\":10625:10645   */\n      tag_321\n      jump\t// in\n    tag_469:\n        /* \"#utility.yul\":10620:10645   */\n      swap2\n      pop\n        /* \"#utility.yul\":10659:10679   */\n      tag_470\n        /* \"#utility.yul\":10677:10678   */\n      dup4\n        /* \"#utility.yul\":10659:10679   */\n      tag_321\n      jump\t// in\n    tag_470:\n        /* \"#utility.yul\":10654:10679   */\n      swap3\n      pop\n        /* \"#utility.yul\":10698:10699   */\n      dup3\n        /* \"#utility.yul\":10688:10723   */\n      tag_471\n      jumpi\n        /* \"#utility.yul\":10703:10721   */\n      tag_472\n      tag_338\n      jump\t// in\n    tag_472:\n        /* \"#utility.yul\":10688:10723   */\n    tag_471:\n        /* \"#utility.yul\":10745:10746   */\n      dup3\n        /* \"#utility.yul\":10742:10743   */\n      dup3\n        /* \"#utility.yul\":10738:10747   */\n      div\n        /* \"#utility.yul\":10733:10747   */\n      swap1\n      pop\n        /* \"#utility.yul\":10568:10753   */\n      swap3\n      swap2\n      pop\n      pop\n      jump\t// out\n        /* \"#utility.yul\":10759:10928   */\n    tag_339:\n        /* \"#utility.yul\":10843:10854   */\n      0x00\n        /* \"#utility.yul\":10877:10883   */\n      dup3\n        /* \"#utility.yul\":10872:10875   */\n      dup3\n        /* \"#utility.yul\":10865:10884   */\n      mstore\n        /* \"#utility.yul\":10917:10921   */\n      0x20\n        /* \"#utility.yul\":10912:10915   */\n      dup3\n        /* \"#utility.yul\":10908:10922   */\n      add\n        /* \"#utility.yul\":10893:10922   */\n      swap1\n      pop\n        /* \"#utility.yul\":10759:10928   */\n      swap3\n      swap2\n      pop\n      pop\n      jump\t// out\n        /* \"#utility.yul\":10934:11101   */\n    tag_340:\n        /* \"#utility.yul\":11074:11093   */\n      0x6e6f7420656e6f75676820416d6f756e74000000000000000000000000000000\n        /* \"#utility.yul\":11070:11071   */\n      0x00\n        /* \"#utility.yul\":11062:11068   */\n      dup3\n        /* \"#utility.yul\":11058:11072   */\n      add\n        /* \"#utility.yul\":11051:11094   */\n      mstore\n        /* \"#utility.yul\":10934:11101   */\n      pop\n      jump\t// out\n        /* \"#utility.yul\":11107:11473   */\n    tag_341:\n        /* \"#utility.yul\":11249:11252   */\n      0x00\n        /* \"#utility.yul\":11270:11337   */\n      tag_476\n        /* \"#utility.yul\":11334:11336   */\n      0x11\n        /* \"#utility.yul\":11329:11332   */\n      dup4\n        /* \"#utility.yul\":11270:11337   */\n      tag_339\n      jump\t// in\n    tag_476:\n        /* \"#utility.yul\":11263:11337   */\n      swap2\n      pop\n        /* \"#utility.yul\":11346:11439   */\n      tag_477\n        /* \"#utility.yul\":11435:11438   */\n      dup3\n        /* \"#utility.yul\":11346:11439   */\n      tag_340\n      jump\t// in\n    tag_477:\n        /* \"#utility.yul\":11464:11466   */\n      0x20\n        /* \"#utility.yul\":11459:11462   */\n      dup3\n        /* \"#utility.yul\":11455:11467   */\n      add\n        /* \"#utility.yul\":11448:11467   */\n      swap1\n      pop\n        /* \"#utility.yul\":11107:11473   */\n      swap2\n      swap1\n      pop\n      jump\t// out\n        /* \"#utility.yul\":11479:11898   */\n    tag_158:\n        /* \"#utility.yul\":11645:11649   */\n      0x00\n        /* \"#utility.yul\":11683:11685   */\n      0x20\n        /* \"#utility.yul\":11672:11681   */\n      dup3\n        /* \"#utility.yul\":11668:11686   */\n      add\n        /* \"#utility.yul\":11660:11686   */\n      swap1\n      pop\n        /* \"#utility.yul\":11732:11741   */\n      dup2\n        /* \"#utility.yul\":11726:11730   */\n      dup2\n        /* \"#utility.yul\":11722:11742   */\n      sub\n        /* \"#utility.yul\":11718:11719   */\n      0x00\n        /* \"#utility.yul\":11707:11716   */\n      dup4\n        /* \"#utility.yul\":11703:11720   */\n      add\n        /* \"#utility.yul\":11696:11743   */\n      mstore\n        /* \"#utility.yul\":11760:11891   */\n      tag_479\n        /* \"#utility.yul\":11886:11890   */\n      dup2\n        /* \"#utility.yul\":11760:11891   */\n      tag_341\n      jump\t// in\n    tag_479:\n        /* \"#utility.yul\":11752:11891   */\n      swap1\n      pop\n        /* \"#utility.yul\":11479:11898   */\n      swap2\n      swap1\n      pop\n      jump\t// out\n        /* \"#utility.yul\":11904:12137   */\n    tag_163:\n        /* \"#utility.yul\":11943:11946   */\n      0x00\n        /* \"#utility.yul\":11966:11990   */\n      tag_481\n        /* \"#utility.yul\":11984:11989   */\n      dup3\n        /* \"#utility.yul\":11966:11990   */\n      tag_321\n      jump\t// in\n    tag_481:\n        /* \"#utility.yul\":11957:11990   */\n      swap2\n      pop\n        /* \"#utility.yul\":12012:12078   */\n      0xffffffffffffffffffffffffffffffffffffffffffffffffffffffffffffffff\n        /* \"#utility.yul\":12005:12010   */\n      dup3\n        /* \"#utility.yul\":12002:12079   */\n      sub\n        /* \"#utility.yul\":11999:12102   */\n      tag_482\n      jumpi\n        /* \"#utility.yul\":12082:12100   */\n      tag_483\n      tag_337\n      jump\t// in\n    tag_483:\n        /* \"#utility.yul\":11999:12102   */\n    tag_482:\n        /* \"#utility.yul\":12129:12130   */\n      0x01\n        /* \"#utility.yul\":12122:12127   */\n      dup3\n        /* \"#utility.yul\":12118:12131   */\n      add\n        /* \"#utility.yul\":12111:12131   */\n      swap1\n      pop\n        /* \"#utility.yul\":11904:12137   */\n      swap2\n      swap1\n      pop\n      jump\t// out\n        /* \"#utility.yul\":12143:12337   */\n    tag_196:\n        /* \"#utility.yul\":12183:12187   */\n      0x00\n        /* \"#utility.yul\":12203:12223   */\n      tag_485\n        /* \"#utility.yul\":12221:12222   */\n      dup3\n        /* \"#utility.yul\":12203:12223   */\n      tag_321\n      jump\t// in\n    tag_485:\n        /* \"#utility.yul\":12198:12223   */\n      swap2\n      pop\n        /* \"#utility.yul\":12237:12257   */\n      tag_486\n        /* \"#utility.yul\":12255:12256   */\n      dup4\n        /* \"#utility.yul\":12237:12257   */\n      tag_321\n      jump\t// in\n    tag_486:\n        /* \"#utility.yul\":12232:12257   */\n      swap3\n      pop\n        /* \"#utility.yul\":12281:12282   */\n      dup3\n        /* \"#utility.yul\":12278:12279   */\n      dup3\n        /* \"#utility.yul\":12274:12283   */\n      sub\n        /* \"#utility.yul\":12266:12283   */\n      swap1\n      pop\n        /* \"#utility.yul\":12305:12306   */\n      dup2\n        /* \"#utility.yul\":12299:12303   */\n      dup2\n        /* \"#utility.yul\":12296:12307   */\n      gt\n        /* \"#utility.yul\":12293:12330   */\n      iszero\n      tag_487\n      jumpi\n        /* \"#utility.yul\":12310:12328   */\n      tag_488\n      tag_337\n      jump\t// in\n    tag_488:\n        /* \"#utility.yul\":12293:12330   */\n    tag_487:\n        /* \"#utility.yul\":12143:12337   */\n      swap3\n      swap2\n      pop\n      pop\n      jump\t// out\n        /* \"#utility.yul\":12343:12675   */\n    tag_204:\n        /* \"#utility.yul\":12464:12468   */\n      0x00\n        /* \"#utility.yul\":12502:12504   */\n      0x40\n        /* \"#utility.yul\":12491:12500   */\n      dup3\n        /* \"#utility.yul\":12487:12505   */\n      add\n        /* \"#utility.yul\":12479:12505   */\n      swap1\n      pop\n        /* \"#utility.yul\":12515:12586   */\n      tag_490\n        /* \"#utility.yul\":12583:12584   */\n      0x00\n        /* \"#utility.yul\":12572:12581   */\n      dup4\n        /* \"#utility.yul\":12568:12585   */\n      add\n        /* \"#utility.yul\":12559:12565   */\n      dup6\n        /* \"#utility.yul\":12515:12586   */\n      tag_326\n      jump\t// in\n    tag_490:\n        /* \"#utility.yul\":12596:12668   */\n      tag_491\n        /* \"#utility.yul\":12664:12666   */\n      0x20\n        /* \"#utility.yul\":12653:12662   */\n      dup4\n        /* \"#utility.yul\":12649:12667   */\n      add\n        /* \"#utility.yul\":12640:12646   */\n      dup5\n        /* \"#utility.yul\":12596:12668   */\n      tag_336\n      jump\t// in\n    tag_491:\n        /* \"#utility.yul\":12343:12675   */\n      swap4\n      swap3\n      pop\n      pop\n      pop\n      jump\t// out\n        /* \"#utility.yul\":12681:12797   */\n    tag_342:\n        /* \"#utility.yul\":12751:12772   */\n      tag_493\n        /* \"#utility.yul\":12766:12771   */\n      dup2\n        /* \"#utility.yul\":12751:12772   */\n      tag_329\n      jump\t// in\n    tag_493:\n        /* \"#utility.yul\":12744:12749   */\n      dup2\n        /* \"#utility.yul\":12741:12773   */\n      eq\n        /* \"#utility.yul\":12731:12791   */\n      tag_494\n      jumpi\n        /* \"#utility.yul\":12787:12788   */\n      0x00\n        /* \"#utility.yul\":12784:12785   */\n      dup1\n        /* \"#utility.yul\":12777:12789   */\n      revert\n        /* \"#utility.yul\":12731:12791   */\n    tag_494:\n        /* \"#utility.yul\":12681:12797   */\n      pop\n      jump\t// out\n        /* \"#utility.yul\":12803:12940   */\n    tag_343:\n        /* \"#utility.yul\":12857:12862   */\n      0x00\n        /* \"#utility.yul\":12888:12894   */\n      dup2\n        /* \"#utility.yul\":12882:12895   */\n      mload\n        /* \"#utility.yul\":12873:12895   */\n      swap1\n      pop\n        /* \"#utility.yul\":12904:12934   */\n      tag_496\n        /* \"#utility.yul\":12928:12933   */\n      dup2\n        /* \"#utility.yul\":12904:12934   */\n      tag_342\n      jump\t// in\n    tag_496:\n        /* \"#utility.yul\":12803:12940   */\n      swap3\n      swap2\n      pop\n      pop\n      jump\t// out\n        /* \"#utility.yul\":12946:13291   */\n    tag_208:\n        /* \"#utility.yul\":13013:13019   */\n      0x00\n        /* \"#utility.yul\":13062:13064   */\n      0x20\n        /* \"#utility.yul\":13050:13059   */\n      dup3\n        /* \"#utility.yul\":13041:13048   */\n      dup5\n        /* \"#utility.yul\":13037:13060   */\n      sub\n        /* \"#utility.yul\":13033:13065   */\n      slt\n        /* \"#utility.yul\":13030:13149   */\n      iszero\n      tag_498\n      jumpi\n        /* \"#utility.yul\":13068:13147   */\n      tag_499\n      tag_319\n      jump\t// in\n    tag_499:\n        /* \"#utility.yul\":13030:13149   */\n    tag_498:\n        /* \"#utility.yul\":13188:13189   */\n      0x00\n        /* \"#utility.yul\":13213:13274   */\n      tag_500\n        /* \"#utility.yul\":13266:13273   */\n      dup5\n        /* \"#utility.yul\":13257:13263   */\n      dup3\n        /* \"#utility.yul\":13246:13255   */\n      dup6\n        /* \"#utility.yul\":13242:13264   */\n      add\n        /* \"#utility.yul\":13213:13274   */\n      tag_343\n      jump\t// in\n    tag_500:\n        /* \"#utility.yul\":13203:13274   */\n      swap2\n      pop\n        /* \"#utility.yul\":13159:13284   */\n      pop\n        /* \"#utility.yul\":12946:13291   */\n      swap3\n      swap2\n      pop\n      pop\n      jump\t// out\n        /* \"#utility.yul\":13297:13462   */\n    tag_344:\n        /* \"#utility.yul\":13437:13454   */\n      0x5472616e73666572206661696c65640000000000000000000000000000000000\n        /* \"#utility.yul\":13433:13434   */\n      0x00\n        /* \"#utility.yul\":13425:13431   */\n      dup3\n        /* \"#utility.yul\":13421:13435   */\n      add\n        /* \"#utility.yul\":13414:13455   */\n      mstore\n        /* \"#utility.yul\":13297:13462   */\n      pop\n      jump\t// out\n        /* \"#utility.yul\":13468:13834   */\n    tag_345:\n        /* \"#utility.yul\":13610:13613   */\n      0x00\n        /* \"#utility.yul\":13631:13698   */\n      tag_503\n        /* \"#utility.yul\":13695:13697   */\n      0x0f\n        /* \"#utility.yul\":13690:13693   */\n      dup4\n        /* \"#utility.yul\":13631:13698   */\n      tag_339\n      jump\t// in\n    tag_503:\n        /* \"#utility.yul\":13624:13698   */\n      swap2\n      pop\n        /* \"#utility.yul\":13707:13800   */\n      tag_504\n        /* \"#utility.yul\":13796:13799   */\n      dup3\n        /* \"#utility.yul\":13707:13800   */\n      tag_344\n      jump\t// in\n    tag_504:\n        /* \"#utility.yul\":13825:13827   */\n      0x20\n        /* \"#utility.yul\":13820:13823   */\n      dup3\n        /* \"#utility.yul\":13816:13828   */\n      add\n        /* \"#utility.yul\":13809:13828   */\n      swap1\n      pop\n        /* \"#utility.yul\":13468:13834   */\n      swap2\n      swap1\n      pop\n      jump\t// out\n        /* \"#utility.yul\":13840:14259   */\n    tag_211:\n        /* \"#utility.yul\":14006:14010   */\n      0x00\n        /* \"#utility.yul\":14044:14046   */\n      0x20\n        /* \"#utility.yul\":14033:14042   */\n      dup3\n        /* \"#utility.yul\":14029:14047   */\n      add\n        /* \"#utility.yul\":14021:14047   */\n      swap1\n      pop\n        /* \"#utility.yul\":14093:14102   */\n      dup2\n        /* \"#utility.yul\":14087:14091   */\n      dup2\n        /* \"#utility.yul\":14083:14103   */\n      sub\n        /* \"#utility.yul\":14079:14080   */\n      0x00\n        /* \"#utility.yul\":14068:14077   */\n      dup4\n        /* \"#utility.yul\":14064:14081   */\n      add\n        /* \"#utility.yul\":14057:14104   */\n      mstore\n        /* \"#utility.yul\":14121:14252   */\n      tag_506\n        /* \"#utility.yul\":14247:14251   */\n      dup2\n        /* \"#utility.yul\":14121:14252   */\n      tag_345\n      jump\t// in\n    tag_506:\n        /* \"#utility.yul\":14113:14252   */\n      swap1\n      pop\n        /* \"#utility.yul\":13840:14259   */\n      swap2\n      swap1\n      pop\n      jump\t// out\n        /* \"#utility.yul\":14265:14818   */\n    tag_221:\n        /* \"#utility.yul\":14442:14446   */\n      0x00\n        /* \"#utility.yul\":14480:14483   */\n      0x80\n        /* \"#utility.yul\":14469:14478   */\n      dup3\n        /* \"#utility.yul\":14465:14484   */\n      add\n        /* \"#utility.yul\":14457:14484   */\n      swap1\n      pop\n        /* \"#utility.yul\":14494:14565   */\n      tag_508\n        /* \"#utility.yul\":14562:14563   */\n      0x00\n        /* \"#utility.yul\":14551:14560   */\n      dup4\n        /* \"#utility.yul\":14547:14564   */\n      add\n        /* \"#utility.yul\":14538:14544   */\n      dup8\n        /* \"#utility.yul\":14494:14565   */\n      tag_326\n      jump\t// in\n    tag_508:\n        /* \"#utility.yul\":14575:14647   */\n      tag_509\n        /* \"#utility.yul\":14643:14645   */\n      0x20\n        /* \"#utility.yul\":14632:14641   */\n      dup4\n        /* \"#utility.yul\":14628:14646   */\n      add\n        /* \"#utility.yul\":14619:14625   */\n      dup7\n        /* \"#utility.yul\":14575:14647   */\n      tag_336\n      jump\t// in\n    tag_509:\n        /* \"#utility.yul\":14657:14729   */\n      tag_510\n        /* \"#utility.yul\":14725:14727   */\n      0x40\n        /* \"#utility.yul\":14714:14723   */\n      dup4\n        /* \"#utility.yul\":14710:14728   */\n      add\n        /* \"#utility.yul\":14701:14707   */\n      dup6\n        /* \"#utility.yul\":14657:14729   */\n      tag_336\n      jump\t// in\n    tag_510:\n        /* \"#utility.yul\":14739:14811   */\n      tag_511\n        /* \"#utility.yul\":14807:14809   */\n      0x60\n        /* \"#utility.yul\":14796:14805   */\n      dup4\n        /* \"#utility.yul\":14792:14810   */\n      add\n        /* \"#utility.yul\":14783:14789   */\n      dup5\n        /* \"#utility.yul\":14739:14811   */\n      tag_336\n      jump\t// in\n    tag_511:\n        /* \"#utility.yul\":14265:14818   */\n      swap6\n      swap5\n      pop\n      pop\n      pop\n      pop\n      pop\n      jump\t// out\n        /* \"#utility.yul\":14824:15266   */\n    tag_247:\n        /* \"#utility.yul\":14973:14977   */\n      0x00\n        /* \"#utility.yul\":15011:15013   */\n      0x60\n        /* \"#utility.yul\":15000:15009   */\n      dup3\n        /* \"#utility.yul\":14996:15014   */\n      add\n        /* \"#utility.yul\":14988:15014   */\n      swap1\n      pop\n        /* \"#utility.yul\":15024:15095   */\n      tag_513\n        /* \"#utility.yul\":15092:15093   */\n      0x00\n        /* \"#utility.yul\":15081:15090   */\n      dup4\n        /* \"#utility.yul\":15077:15094   */\n      add\n        /* \"#utility.yul\":15068:15074   */\n      dup7\n        /* \"#utility.yul\":15024:15095   */\n      tag_326\n      jump\t// in\n    tag_513:\n        /* \"#utility.yul\":15105:15177   */\n      tag_514\n        /* \"#utility.yul\":15173:15175   */\n      0x20\n        /* \"#utility.yul\":15162:15171   */\n      dup4\n        /* \"#utility.yul\":15158:15176   */\n      add\n        /* \"#utility.yul\":15149:15155   */\n      dup6\n        /* \"#utility.yul\":15105:15177   */\n      tag_326\n      jump\t// in\n    tag_514:\n        /* \"#utility.yul\":15187:15259   */\n      tag_515\n        /* \"#utility.yul\":15255:15257   */\n      0x40\n        /* \"#utility.yul\":15244:15253   */\n      dup4\n        /* \"#utility.yul\":15240:15258   */\n      add\n        /* \"#utility.yul\":15231:15237   */\n      dup5\n        /* \"#utility.yul\":15187:15259   */\n      tag_336\n      jump\t// in\n    tag_515:\n        /* \"#utility.yul\":14824:15266   */\n      swap5\n      swap4\n      pop\n      pop\n      pop\n      pop\n      jump\t// out\n        /* \"#utility.yul\":15272:15454   */\n    tag_346:\n        /* \"#utility.yul\":15412:15446   */\n      0x536861726573206d7573742062652067726561746572207468616e207a65726f\n        /* \"#utility.yul\":15408:15409   */\n      0x00\n        /* \"#utility.yul\":15400:15406   */\n      dup3\n        /* \"#utility.yul\":15396:15410   */\n      add\n        /* \"#utility.yul\":15389:15447   */\n      mstore\n        /* \"#utility.yul\":15272:15454   */\n      pop\n      jump\t// out\n        /* \"#utility.yul\":15460:15826   */\n    tag_347:\n        /* \"#utility.yul\":15602:15605   */\n      0x00\n        /* \"#utility.yul\":15623:15690   */\n      tag_518\n        /* \"#utility.yul\":15687:15689   */\n      0x20\n        /* \"#utility.yul\":15682:15685   */\n      dup4\n        /* \"#utility.yul\":15623:15690   */\n      tag_339\n      jump\t// in\n    tag_518:\n        /* \"#utility.yul\":15616:15690   */\n      swap2\n      pop\n        /* \"#utility.yul\":15699:15792   */\n      tag_519\n        /* \"#utility.yul\":15788:15791   */\n      dup3\n        /* \"#utility.yul\":15699:15792   */\n      tag_346\n      jump\t// in\n    tag_519:\n        /* \"#utility.yul\":15817:15819   */\n      0x20\n        /* \"#utility.yul\":15812:15815   */\n      dup3\n        /* \"#utility.yul\":15808:15820   */\n      add\n        /* \"#utility.yul\":15801:15820   */\n      swap1\n      pop\n        /* \"#utility.yul\":15460:15826   */\n      swap2\n      swap1\n      pop\n      jump\t// out\n        /* \"#utility.yul\":15832:16251   */\n    tag_263:\n        /* \"#utility.yul\":15998:16002   */\n      0x00\n        /* \"#utility.yul\":16036:16038   */\n      0x20\n        /* \"#utility.yul\":16025:16034   */\n      dup3\n        /* \"#utility.yul\":16021:16039   */\n      add\n        /* \"#utility.yul\":16013:16039   */\n      swap1\n      pop\n        /* \"#utility.yul\":16085:16094   */\n      dup2\n        /* \"#utility.yul\":16079:16083   */\n      dup2\n        /* \"#utility.yul\":16075:16095   */\n      sub\n        /* \"#utility.yul\":16071:16072   */\n      0x00\n        /* \"#utility.yul\":16060:16069   */\n      dup4\n        /* \"#utility.yul\":16056:16073   */\n      add\n        /* \"#utility.yul\":16049:16096   */\n      mstore\n        /* \"#utility.yul\":16113:16244   */\n      tag_521\n        /* \"#utility.yul\":16239:16243   */\n      dup2\n        /* \"#utility.yul\":16113:16244   */\n      tag_347\n      jump\t// in\n    tag_521:\n        /* \"#utility.yul\":16105:16244   */\n      swap1\n      pop\n        /* \"#utility.yul\":15832:16251   */\n      swap2\n      swap1\n      pop\n      jump\t// out\n        /* \"#utility.yul\":16257:16428   */\n    tag_348:\n        /* \"#utility.yul\":16397:16420   */\n      0x5f70726963652063616e6e6f74206265207a65726f0000000000000000000000\n        /* \"#utility.yul\":16393:16394   */\n      0x00\n        /* \"#utility.yul\":16385:16391   */\n      dup3\n        /* \"#utility.yul\":16381:16395   */\n      add\n        /* \"#utility.yul\":16374:16421   */\n      mstore\n        /* \"#utility.yul\":16257:16428   */\n      pop\n      jump\t// out\n        /* \"#utility.yul\":16434:16800   */\n    tag_349:\n        /* \"#utility.yul\":16576:16579   */\n      0x00\n        /* \"#utility.yul\":16597:16664   */\n      tag_524\n        /* \"#utility.yul\":16661:16663   */\n      0x15\n        /* \"#utility.yul\":16656:16659   */\n      dup4\n        /* \"#utility.yul\":16597:16664   */\n      tag_339\n      jump\t// in\n    tag_524:\n        /* \"#utility.yul\":16590:16664   */\n      swap2\n      pop\n        /* \"#utility.yul\":16673:16766   */\n      tag_525\n        /* \"#utility.yul\":16762:16765   */\n      dup3\n        /* \"#utility.yul\":16673:16766   */\n      tag_348\n      jump\t// in\n    tag_525:\n        /* \"#utility.yul\":16791:16793   */\n      0x20\n        /* \"#utility.yul\":16786:16789   */\n      dup3\n        /* \"#utility.yul\":16782:16794   */\n      add\n        /* \"#utility.yul\":16775:16794   */\n      swap1\n      pop\n        /* \"#utility.yul\":16434:16800   */\n      swap2\n      swap1\n      pop\n      jump\t// out\n        /* \"#utility.yul\":16806:17225   */\n    tag_277:\n        /* \"#utility.yul\":16972:16976   */\n      0x00\n        /* \"#utility.yul\":17010:17012   */\n      0x20\n        /* \"#utility.yul\":16999:17008   */\n      dup3\n        /* \"#utility.yul\":16995:17013   */\n      add\n        /* \"#utility.yul\":16987:17013   */\n      swap1\n      pop\n        /* \"#utility.yul\":17059:17068   */\n      dup2\n        /* \"#utility.yul\":17053:17057   */\n      dup2\n        /* \"#utility.yul\":17049:17069   */\n      sub\n        /* \"#utility.yul\":17045:17046   */\n      0x00\n        /* \"#utility.yul\":17034:17043   */\n      dup4\n        /* \"#utility.yul\":17030:17047   */\n      add\n        /* \"#utility.yul\":17023:17070   */\n      mstore\n        /* \"#utility.yul\":17087:17218   */\n      tag_527\n        /* \"#utility.yul\":17213:17217   */\n      dup2\n        /* \"#utility.yul\":17087:17218   */\n      tag_349\n      jump\t// in\n    tag_527:\n        /* \"#utility.yul\":17079:17218   */\n      swap1\n      pop\n        /* \"#utility.yul\":16806:17225   */\n      swap2\n      swap1\n      pop\n      jump\t// out\n        /* \"#utility.yul\":17231:17784   */\n    tag_308:\n        /* \"#utility.yul\":17408:17412   */\n      0x00\n        /* \"#utility.yul\":17446:17449   */\n      0x80\n        /* \"#utility.yul\":17435:17444   */\n      dup3\n        /* \"#utility.yul\":17431:17450   */\n      add\n        /* \"#utility.yul\":17423:17450   */\n      swap1\n      pop\n        /* \"#utility.yul\":17460:17531   */\n      tag_529\n        /* \"#utility.yul\":17528:17529   */\n      0x00\n        /* \"#utility.yul\":17517:17526   */\n      dup4\n        /* \"#utility.yul\":17513:17530   */\n      add\n        /* \"#utility.yul\":17504:17510   */\n      dup8\n        /* \"#utility.yul\":17460:17531   */\n      tag_326\n      jump\t// in\n    tag_529:\n        /* \"#utility.yul\":17541:17613   */\n      tag_530\n        /* \"#utility.yul\":17609:17611   */\n      0x20\n        /* \"#utility.yul\":17598:17607   */\n      dup4\n        /* \"#utility.yul\":17594:17612   */\n      add\n        /* \"#utility.yul\":17585:17591   */\n      dup7\n        /* \"#utility.yul\":17541:17613   */\n      tag_326\n      jump\t// in\n    tag_530:\n        /* \"#utility.yul\":17623:17695   */\n      tag_531\n        /* \"#utility.yul\":17691:17693   */\n      0x40\n        /* \"#utility.yul\":17680:17689   */\n      dup4\n        /* \"#utility.yul\":17676:17694   */\n      add\n        /* \"#utility.yul\":17667:17673   */\n      dup6\n        /* \"#utility.yul\":17623:17695   */\n      tag_336\n      jump\t// in\n    tag_531:\n        /* \"#utility.yul\":17705:17777   */\n      tag_532\n        /* \"#utility.yul\":17773:17775   */\n      0x60\n        /* \"#utility.yul\":17762:17771   */\n      dup4\n        /* \"#utility.yul\":17758:17776   */\n      add\n        /* \"#utility.yul\":17749:17755   */\n      dup5\n        /* \"#utility.yul\":17705:17777   */\n      tag_336\n      jump\t// in\n    tag_532:\n        /* \"#utility.yul\":17231:17784   */\n      swap6\n      swap5\n      pop\n      pop\n      pop\n      pop\n      pop\n      jump\t// out\n\n    auxdata: 0xa26469706673582212205a5e639d160d688c9dfdda6ca3b25c12a4ed538b7eb2ace224a3e58f649cce8664736f6c634300081a0033\n}\n",
				"bytecode": {
					"linkReferences": {},
					"object": "608060405234801561000f575f80fd5b506040516141e73803806141e783398181016040528101906100319190610352565b825f73ffffffffffffffffffffffffffffffffffffffff168173ffffffffffffffffffffffffffffffffffffffff16036100a2575f6040517f1e4fbdf700000000000000000000000000000000000000000000000000000000815260040161009991906103b1565b60405180910390fd5b6100b18161020060201b60201c565b508060055f3073ffffffffffffffffffffffffffffffffffffffff1673ffffffffffffffffffffffffffffffffffffffff1681526020019081526020015f20600101819055506706f05b59d3b2000060055f3073ffffffffffffffffffffffffffffffffffffffff1673ffffffffffffffffffffffffffffffffffffffff1681526020019081526020015f206004015f60028110610152576101516103ca565b5b01819055506706f05b59d3b2000060055f3073ffffffffffffffffffffffffffffffffffffffff1673ffffffffffffffffffffffffffffffffffffffff1681526020019081526020015f206004016001600281106101b3576101b26103ca565b5b01819055508160015f6101000a81548173ffffffffffffffffffffffffffffffffffffffff021916908373ffffffffffffffffffffffffffffffffffffffff1602179055505050506103f7565b5f805f9054906101000a900473ffffffffffffffffffffffffffffffffffffffff169050815f806101000a81548173ffffffffffffffffffffffffffffffffffffffff021916908373ffffffffffffffffffffffffffffffffffffffff1602179055508173ffffffffffffffffffffffffffffffffffffffff168173ffffffffffffffffffffffffffffffffffffffff167f8be0079c531659141344cd1fd0a4f28419497f9722a3daafe3b4186f6b6457e060405160405180910390a35050565b5f80fd5b5f73ffffffffffffffffffffffffffffffffffffffff82169050919050565b5f6102ee826102c5565b9050919050565b6102fe816102e4565b8114610308575f80fd5b50565b5f81519050610319816102f5565b92915050565b5f819050919050565b6103318161031f565b811461033b575f80fd5b50565b5f8151905061034c81610328565b92915050565b5f805f60608486031215610369576103686102c1565b5b5f6103768682870161030b565b93505060206103878682870161030b565b92505060406103988682870161033e565b9150509250925092565b6103ab816102e4565b82525050565b5f6020820190506103c45f8301846103a2565b92915050565b7f4e487b71000000000000000000000000000000000000000000000000000000005f52603260045260245ffd5b613de3806104045f395ff3fe608060405234801561000f575f80fd5b5060043610610135575f3560e01c80636399d03d116100b6578063a8dbd0cd1161007a578063a8dbd0cd14610387578063b3c740e8146103bb578063bff1f9e1146103eb578063c435138614610409578063f2fde38b1461043e578063fbea0b061461045a57610135565b80636399d03d146102f75780636ffcc71914610313578063715018a61461032f57806384b5aca6146103395780638da5cb5b1461036957610135565b806321d0d9af116100fd57806321d0d9af1461020a5780633774ca251461023b578063456e62ba146102705780634b6844531461028c57806361d464ef146102c257610135565b806308ef962e146101395780630efa82f61461016957806311eac855146101995780631959a002146101b7578063208c86a4146101eb575b5f80fd5b610153600480360381019061014e91906134cd565b610476565b6040516101609190613537565b60405180910390f35b610183600480360381019061017e919061357a565b6104a6565b60405161019091906135d2565b60405180910390f35b6101a161050b565b6040516101ae9190613646565b60405180910390f35b6101d160048036038101906101cc919061365f565b610530565b6040516101e2959493929190613699565b60405180910390f35b6101f3610562565b6040516102019291906136ea565b60405180910390f35b610224600480360381019061021f9190613711565b610615565b6040516102329291906136ea565b60405180910390f35b6102556004803603810190610250919061357a565b610753565b6040516102679695949392919061374f565b60405180910390f35b61028a600480360381019061028591906137ae565b610985565b005b6102a660048036038101906102a1919061365f565b6110ff565b6040516102b997969594939291906137fe565b60405180910390f35b6102dc60048036038101906102d7919061357a565b61130d565b6040516102ee9695949392919061374f565b60405180910390f35b610311600480360381019061030c91906134cd565b611387565b005b61032d60048036038101906103289190613711565b611e95565b005b610337612560565b005b610353600480360381019061034e9190613711565b612573565b604051610360919061386b565b60405180910390f35b61037161262e565b60405161037e9190613537565b60405180910390f35b6103a1600480360381019061039c919061365f565b612655565b6040516103b2959493929190613699565b60405180910390f35b6103d560048036038101906103d09190613711565b6127b1565b6040516103e2919061386b565b60405180910390f35b6103f3612871565b604051610400919061386b565b60405180910390f35b610423600480360381019061041e919061365f565b612877565b60405161043596959493929190613884565b60405180910390f35b6104586004803603810190610453919061365f565b6128bb565b005b610474600480360381019061046f91906138e3565b61293f565b005b6003602052805f5260405f205f915054906101000a900473ffffffffffffffffffffffffffffffffffffffff1681565b5f60045f8473ffffffffffffffffffffffffffffffffffffffff1673ffffffffffffffffffffffffffffffffffffffff1681526020019081526020015f206005015f8381526020019081526020015f205f9054906101000a900460ff16905092915050565b60015f9054906101000a900473ffffffffffffffffffffffffffffffffffffffff1681565b6004602052805f5260405f205f91509050805f0154908060010154908060020154908060030154908060040154905085565b5f8060055f3073ffffffffffffffffffffffffffffffffffffffff1673ffffffffffffffffffffffffffffffffffffffff1681526020019081526020015f206004015f600281106105b6576105b5613921565b5b015460055f3073ffffffffffffffffffffffffffffffffffffffff1673ffffffffffffffffffffffffffffffffffffffff1681526020019081526020015f2060040160016002811061060b5761060a613921565b5b0154915091509091565b5f805f60055f3073ffffffffffffffffffffffffffffffffffffffff1673ffffffffffffffffffffffffffffffffffffffff1681526020019081526020015f206004015f6002811061066a57610669613921565b5b015490505f60055f3073ffffffffffffffffffffffffffffffffffffffff1673ffffffffffffffffffffffffffffffffffffffff1681526020019081526020015f206004016001600281106106c2576106c1613921565b5b015490505f85876106d3919061397b565b90505f871461070c57806064886106ea91906139ae565b6106f49190613a1c565b9250662386f26fc100008361070991906139ae565b92505b5f8614610743578060648761072191906139ae565b61072b9190613a1c565b9150662386f26fc100008261074091906139ae565b91505b8282945094505050509250929050565b5f805f805f8060065f8973ffffffffffffffffffffffffffffffffffffffff1673ffffffffffffffffffffffffffffffffffffffff1681526020019081526020015f205f8881526020019081526020015f205f015f9054906101000a900460ff1660065f8a73ffffffffffffffffffffffffffffffffffffffff1673ffffffffffffffffffffffffffffffffffffffff1681526020019081526020015f205f8981526020019081526020015f205f0160019054906101000a900460ff1660065f8b73ffffffffffffffffffffffffffffffffffffffff1673ffffffffffffffffffffffffffffffffffffffff1681526020019081526020015f205f8a81526020019081526020015f205f0160029054906101000a900473ffffffffffffffffffffffffffffffffffffffff1660065f8c73ffffffffffffffffffffffffffffffffffffffff1673ffffffffffffffffffffffffffffffffffffffff1681526020019081526020015f205f8b81526020019081526020015f206001015460065f8d73ffffffffffffffffffffffffffffffffffffffff1673ffffffffffffffffffffffffffffffffffffffff1681526020019081526020015f205f8c81526020019081526020015f206002015460065f8e73ffffffffffffffffffffffffffffffffffffffff1673ffffffffffffffffffffffffffffffffffffffff1681526020019081526020015f205f8d81526020019081526020015f20600301549550955095509550955095509295509295509295565b5f81141580610995575060018114155b156109d757806040517fd7acbe890000000000000000000000000000000000000000000000000000000081526004016109ce919061386b565b60405180910390fd5b5f8311610a1b57826040517f2ff47830000000000000000000000000000000000000000000000000000000008152600401610a12919061386b565b60405180910390fd5b60055f3073ffffffffffffffffffffffffffffffffffffffff1673ffffffffffffffffffffffffffffffffffffffff1681526020019081526020015f205f015f9054906101000a900460ff1615610a9e576040517f853fd42100000000000000000000000000000000000000000000000000000000815260040160405180910390fd5b60045f3373ffffffffffffffffffffffffffffffffffffffff1673ffffffffffffffffffffffffffffffffffffffff1681526020019081526020015f206005015f8281526020019081526020015f205f9054906101000a900460ff16610b965760045f3373ffffffffffffffffffffffffffffffffffffffff1673ffffffffffffffffffffffffffffffffffffffff1681526020019081526020015f206005015f8281526020019081526020015f205f9054906101000a900460ff166040517f3c3a3128000000000000000000000000000000000000000000000000000000008152600401610b8d91906135d2565b60405180910390fd5b5f8211610bda57816040517fbfc19482000000000000000000000000000000000000000000000000000000008152600401610bd1919061386b565b60405180910390fd5b5f8103610c695760045f3373ffffffffffffffffffffffffffffffffffffffff1673ffffffffffffffffffffffffffffffffffffffff1681526020019081526020015f2060010154831115610c64576040517f08c379a0000000000000000000000000000000000000000000000000000000008152600401610c5b90613aa6565b60405180910390fd5b610ced565b60045f3373ffffffffffffffffffffffffffffffffffffffff1673ffffffffffffffffffffffffffffffffffffffff1681526020019081526020015f2060030154831115610cec576040517f08c379a0000000000000000000000000000000000000000000000000000000008152600401610ce390613aa6565b60405180910390fd5b5b60045f3373ffffffffffffffffffffffffffffffffffffffff1673ffffffffffffffffffffffffffffffffffffffff1681526020019081526020015f205f015f815480929190610d3c90613ac4565b9190505550600160065f3373ffffffffffffffffffffffffffffffffffffffff1673ffffffffffffffffffffffffffffffffffffffff1681526020019081526020015f205f60045f3373ffffffffffffffffffffffffffffffffffffffff1673ffffffffffffffffffffffffffffffffffffffff1681526020019081526020015f205f015481526020019081526020015f205f015f6101000a81548160ff0219169083151502179055508160065f3373ffffffffffffffffffffffffffffffffffffffff1673ffffffffffffffffffffffffffffffffffffffff1681526020019081526020015f205f60045f3373ffffffffffffffffffffffffffffffffffffffff1673ffffffffffffffffffffffffffffffffffffffff1681526020019081526020015f205f015481526020019081526020015f20600101819055508260065f3373ffffffffffffffffffffffffffffffffffffffff1673ffffffffffffffffffffffffffffffffffffffff1681526020019081526020015f205f60045f3373ffffffffffffffffffffffffffffffffffffffff1673ffffffffffffffffffffffffffffffffffffffff1681526020019081526020015f205f015481526020019081526020015f20600201819055503360065f3373ffffffffffffffffffffffffffffffffffffffff1673ffffffffffffffffffffffffffffffffffffffff1681526020019081526020015f205f60045f3373ffffffffffffffffffffffffffffffffffffffff1673ffffffffffffffffffffffffffffffffffffffff1681526020019081526020015f205f015481526020019081526020015f205f0160026101000a81548173ffffffffffffffffffffffffffffffffffffffff021916908373ffffffffffffffffffffffffffffffffffffffff1602179055508060065f3373ffffffffffffffffffffffffffffffffffffffff1673ffffffffffffffffffffffffffffffffffffffff1681526020019081526020015f205f60045f3373ffffffffffffffffffffffffffffffffffffffff1673ffffffffffffffffffffffffffffffffffffffff1681526020019081526020015f205f015481526020019081526020015f20600301819055503373ffffffffffffffffffffffffffffffffffffffff167f578d9bb67ff50e6081576125ad4c2410d6e82de6dbc1a5dcac37f8e5aa9ca4f460045f3373ffffffffffffffffffffffffffffffffffffffff1673ffffffffffffffffffffffffffffffffffffffff1681526020019081526020015f205f0154846040516110f29291906136ea565b60405180910390a2505050565b5f805f805f805f60055f8973ffffffffffffffffffffffffffffffffffffffff1673ffffffffffffffffffffffffffffffffffffffff1681526020019081526020015f206001015460055f8a73ffffffffffffffffffffffffffffffffffffffff1673ffffffffffffffffffffffffffffffffffffffff1681526020019081526020015f206002015460055f8b73ffffffffffffffffffffffffffffffffffffffff1673ffffffffffffffffffffffffffffffffffffffff1681526020019081526020015f206003015460055f8c73ffffffffffffffffffffffffffffffffffffffff1673ffffffffffffffffffffffffffffffffffffffff1681526020019081526020015f2060040160016002811061121c5761121b613921565b5b015460055f8d73ffffffffffffffffffffffffffffffffffffffff1673ffffffffffffffffffffffffffffffffffffffff1681526020019081526020015f206004015f600281106112705761126f613921565b5b015460055f8e73ffffffffffffffffffffffffffffffffffffffff1673ffffffffffffffffffffffffffffffffffffffff1681526020019081526020015f206006015460055f8f73ffffffffffffffffffffffffffffffffffffffff1673ffffffffffffffffffffffffffffffffffffffff1681526020019081526020015f20600701549650965096509650965096509650919395979092949650565b6006602052815f5260405f20602052805f5260405f205f9150915050805f015f9054906101000a900460ff1690805f0160019054906101000a900460ff1690805f0160029054906101000a900473ffffffffffffffffffffffffffffffffffffffff16908060010154908060020154908060030154905086565b5f81141580611397575060018114155b156113d957806040517fd7acbe890000000000000000000000000000000000000000000000000000000081526004016113d0919061386b565b60405180910390fd5b60055f3073ffffffffffffffffffffffffffffffffffffffff1673ffffffffffffffffffffffffffffffffffffffff1681526020019081526020015f205f015f9054906101000a900460ff161561145c576040517f853fd42100000000000000000000000000000000000000000000000000000000815260040160405180910390fd5b5f805f90505b60025481101561186d5760045f60035f8481526020019081526020015f205f9054906101000a900473ffffffffffffffffffffffffffffffffffffffff1673ffffffffffffffffffffffffffffffffffffffff1673ffffffffffffffffffffffffffffffffffffffff1681526020019081526020015f206005015f8481526020019081526020015f205f9054906101000a900460ff1615611860575f8314801561157c57505f60045f60035f8581526020019081526020015f205f9054906101000a900473ffffffffffffffffffffffffffffffffffffffff1673ffffffffffffffffffffffffffffffffffffffff1673ffffffffffffffffffffffffffffffffffffffff1681526020019081526020015f206001015414155b156116f2576115fb60045f60035f8581526020019081526020015f205f9054906101000a900473ffffffffffffffffffffffffffffffffffffffff1673ffffffffffffffffffffffffffffffffffffffff1673ffffffffffffffffffffffffffffffffffffffff1681526020019081526020015f2060010154846127b1565b60045f60035f8581526020019081526020015f205f9054906101000a900473ffffffffffffffffffffffffffffffffffffffff1673ffffffffffffffffffffffffffffffffffffffff1673ffffffffffffffffffffffffffffffffffffffff1681526020019081526020015f206004018190555060045f60035f8481526020019081526020015f205f9054906101000a900473ffffffffffffffffffffffffffffffffffffffff1673ffffffffffffffffffffffffffffffffffffffff1673ffffffffffffffffffffffffffffffffffffffff1681526020019081526020015f2060040154826116eb919061397b565b915061185f565b61176c60045f60035f8581526020019081526020015f205f9054906101000a900473ffffffffffffffffffffffffffffffffffffffff1673ffffffffffffffffffffffffffffffffffffffff1673ffffffffffffffffffffffffffffffffffffffff1681526020019081526020015f2060030154846127b1565b60045f60035f8581526020019081526020015f205f9054906101000a900473ffffffffffffffffffffffffffffffffffffffff1673ffffffffffffffffffffffffffffffffffffffff1673ffffffffffffffffffffffffffffffffffffffff1681526020019081526020015f206004018190555060045f60035f8481526020019081526020015f205f9054906101000a900473ffffffffffffffffffffffffffffffffffffffff1673ffffffffffffffffffffffffffffffffffffffff1673ffffffffffffffffffffffffffffffffffffffff1681526020019081526020015f20600401548261185c919061397b565b91505b5b8080600101915050611462565b505f8160055f3073ffffffffffffffffffffffffffffffffffffffff1673ffffffffffffffffffffffffffffffffffffffff1681526020019081526020015f20600301546118bb9190613a1c565b90505f805f90505b600254811015611d0c5760045f60035f8481526020019081526020015f205f9054906101000a900473ffffffffffffffffffffffffffffffffffffffff1673ffffffffffffffffffffffffffffffffffffffff1673ffffffffffffffffffffffffffffffffffffffff1681526020019081526020015f206005015f8681526020019081526020015f205f9054906101000a900460ff1615611cff575f8503611a6e5760045f60035f8481526020019081526020015f205f9054906101000a900473ffffffffffffffffffffffffffffffffffffffff1673ffffffffffffffffffffffffffffffffffffffff1673ffffffffffffffffffffffffffffffffffffffff1681526020019081526020015f20600101548360045f60035f8681526020019081526020015f205f9054906101000a900473ffffffffffffffffffffffffffffffffffffffff1673ffffffffffffffffffffffffffffffffffffffff1673ffffffffffffffffffffffffffffffffffffffff1681526020019081526020015f2060040154611a5291906139ae565b611a5c9190613b0b565b82611a67919061397b565b9150611b73565b60045f60035f8481526020019081526020015f205f9054906101000a900473ffffffffffffffffffffffffffffffffffffffff1673ffffffffffffffffffffffffffffffffffffffff1673ffffffffffffffffffffffffffffffffffffffff1681526020019081526020015f20600301548360045f60035f8681526020019081526020015f205f9054906101000a900473ffffffffffffffffffffffffffffffffffffffff1673ffffffffffffffffffffffffffffffffffffffff1673ffffffffffffffffffffffffffffffffffffffff1681526020019081526020015f2060040154611b5b91906139ae565b611b659190613b0b565b82611b70919061397b565b91505b5f60015f9054906101000a900473ffffffffffffffffffffffffffffffffffffffff1673ffffffffffffffffffffffffffffffffffffffff1663a9059cbb60035f8581526020019081526020015f205f9054906101000a900473ffffffffffffffffffffffffffffffffffffffff168660045f60035f8981526020019081526020015f205f9054906101000a900473ffffffffffffffffffffffffffffffffffffffff1673ffffffffffffffffffffffffffffffffffffffff1673ffffffffffffffffffffffffffffffffffffffff1681526020019081526020015f2060040154611c5e91906139ae565b6040518363ffffffff1660e01b8152600401611c7b929190613b3e565b6020604051808303815f875af1158015611c97573d5f803e3d5ffd5b505050506040513d601f19601f82011682018060405250810190611cbb9190613b8f565b905080611cfd576040517f08c379a0000000000000000000000000000000000000000000000000000000008152600401611cf490613c04565b60405180910390fd5b505b80806001019150506118c3565b50600160055f3073ffffffffffffffffffffffffffffffffffffffff1673ffffffffffffffffffffffffffffffffffffffff1681526020019081526020015f205f015f6101000a81548160ff0219169083151502179055505f60015f9054906101000a900473ffffffffffffffffffffffffffffffffffffffff1673ffffffffffffffffffffffffffffffffffffffff1663a9059cbb611daa61262e565b846040518363ffffffff1660e01b8152600401611dc8929190613b3e565b6020604051808303815f875af1158015611de4573d5f803e3d5ffd5b505050506040513d601f19601f82011682018060405250810190611e089190613b8f565b905080611e4a576040517f08c379a0000000000000000000000000000000000000000000000000000000008152600401611e4190613c04565b60405180910390fd5b7f4d21af759c8d2f25c6246594b4cfc2edeb2b901bc0c6e87f5e21c212a12ca1fd611e7361262e565b838588604051611e869493929190613c22565b60405180910390a15050505050565b5f81141580611ea5575060018114155b15611ee757806040517fd7acbe89000000000000000000000000000000000000000000000000000000008152600401611ede919061386b565b60405180910390fd5b5f8211611f2b57816040517f2ff47830000000000000000000000000000000000000000000000000000000008152600401611f22919061386b565b60405180910390fd5b60055f3073ffffffffffffffffffffffffffffffffffffffff1673ffffffffffffffffffffffffffffffffffffffff1681526020019081526020015f205f015f9054906101000a900460ff1615611fae576040517f853fd42100000000000000000000000000000000000000000000000000000000815260040160405180910390fd5b60045f3373ffffffffffffffffffffffffffffffffffffffff1673ffffffffffffffffffffffffffffffffffffffff1681526020019081526020015f206005015f8281526020019081526020015f205f9054906101000a900460ff16612077573360035f60025481526020019081526020015f205f6101000a81548173ffffffffffffffffffffffffffffffffffffffff021916908373ffffffffffffffffffffffffffffffffffffffff16021790555060025f81548092919061207190613ac4565b91905055505b5f810361212e5760055f3073ffffffffffffffffffffffffffffffffffffffff1673ffffffffffffffffffffffffffffffffffffffff1681526020019081526020015f206007015f8154809291906120ce90613ac4565b91905055508160045f3373ffffffffffffffffffffffffffffffffffffffff1673ffffffffffffffffffffffffffffffffffffffff1681526020019081526020015f206001015f828254612122919061397b565b925050819055506121da565b60055f3073ffffffffffffffffffffffffffffffffffffffff1673ffffffffffffffffffffffffffffffffffffffff1681526020019081526020015f206006015f81548092919061217e90613ac4565b91905055508160045f3373ffffffffffffffffffffffffffffffffffffffff1673ffffffffffffffffffffffffffffffffffffffff1681526020019081526020015f206003015f8282546121d2919061397b565b925050819055505b8160055f3073ffffffffffffffffffffffffffffffffffffffff1673ffffffffffffffffffffffffffffffffffffffff1681526020019081526020015f206003015f828254612229919061397b565b9250508190555060055f3073ffffffffffffffffffffffffffffffffffffffff1673ffffffffffffffffffffffffffffffffffffffff1681526020019081526020015f206002015f81548092919061228090613ac4565b9190505550600160045f3373ffffffffffffffffffffffffffffffffffffffff1673ffffffffffffffffffffffffffffffffffffffff1681526020019081526020015f206005015f8381526020019081526020015f205f6101000a81548160ff02191690831515021790555061237660055f3073ffffffffffffffffffffffffffffffffffffffff1673ffffffffffffffffffffffffffffffffffffffff1681526020019081526020015f206007015460055f3073ffffffffffffffffffffffffffffffffffffffff1673ffffffffffffffffffffffffffffffffffffffff1681526020019081526020015f2060060154610615565b60055f3073ffffffffffffffffffffffffffffffffffffffff1673ffffffffffffffffffffffffffffffffffffffff1681526020019081526020015f206004015f600281106123c8576123c7613921565b5b015f60055f3073ffffffffffffffffffffffffffffffffffffffff1673ffffffffffffffffffffffffffffffffffffffff1681526020019081526020015f2060040160016002811061241d5761241c613921565b5b015f8491905055839190505550505f60015f9054906101000a900473ffffffffffffffffffffffffffffffffffffffff1673ffffffffffffffffffffffffffffffffffffffff166323b872dd3330866040518463ffffffff1660e01b815260040161248a93929190613c65565b6020604051808303815f875af11580156124a6573d5f803e3d5ffd5b505050506040513d601f19601f820116820180604052508101906124ca9190613b8f565b90508061250c576040517f08c379a000000000000000000000000000000000000000000000000000000000815260040161250390613c04565b60405180910390fd5b823373ffffffffffffffffffffffffffffffffffffffff167ff41b7910e085d0992d604fd470931728fd77cc8eb504d99e50e51a0a30fcfd1a84604051612553919061386b565b60405180910390a3505050565b612568613347565b6125715f6133ce565b565b5f8083116125b6576040517f08c379a00000000000000000000000000000000000000000000000000000000081526004016125ad90613ce4565b60405180910390fd5b5f606460055f3073ffffffffffffffffffffffffffffffffffffffff1673ffffffffffffffffffffffffffffffffffffffff1681526020019081526020015f20600401846002811061260b5761260a613921565b5b01548561261891906139ae565b6126229190613a1c565b90508091505092915050565b5f805f9054906101000a900473ffffffffffffffffffffffffffffffffffffffff16905090565b5f805f805f60045f8773ffffffffffffffffffffffffffffffffffffffff1673ffffffffffffffffffffffffffffffffffffffff1681526020019081526020015f205f015460045f8873ffffffffffffffffffffffffffffffffffffffff1673ffffffffffffffffffffffffffffffffffffffff1681526020019081526020015f206001015460045f8973ffffffffffffffffffffffffffffffffffffffff1673ffffffffffffffffffffffffffffffffffffffff1681526020019081526020015f206002015460045f8a73ffffffffffffffffffffffffffffffffffffffff1673ffffffffffffffffffffffffffffffffffffffff1681526020019081526020015f206003015460045f8b73ffffffffffffffffffffffffffffffffffffffff1673ffffffffffffffffffffffffffffffffffffffff1681526020019081526020015f20600401549450945094509450945091939590929450565b5f8060055f3073ffffffffffffffffffffffffffffffffffffffff1673ffffffffffffffffffffffffffffffffffffffff1681526020019081526020015f20600401836002811061280557612804613921565b5b015490505f810361284b576040517f08c379a000000000000000000000000000000000000000000000000000000000815260040161284290613d4c565b60405180910390fd5b5f8160648661285a91906139ae565b6128649190613a1c565b9050809250505092915050565b60025481565b6005602052805f5260405f205f91509050805f015f9054906101000a900460ff16908060010154908060020154908060030154908060060154908060070154905086565b6128c3613347565b5f73ffffffffffffffffffffffffffffffffffffffff168173ffffffffffffffffffffffffffffffffffffffff1603612933575f6040517f1e4fbdf700000000000000000000000000000000000000000000000000000000815260040161292a9190613537565b60405180910390fd5b61293c816133ce565b50565b60065f8273ffffffffffffffffffffffffffffffffffffffff1673ffffffffffffffffffffffffffffffffffffffff1681526020019081526020015f205f8381526020019081526020015f205f015f9054906101000a900460ff166129db57816040517f159970680000000000000000000000000000000000000000000000000000000081526004016129d2919061386b565b60405180910390fd5b60065f8273ffffffffffffffffffffffffffffffffffffffff1673ffffffffffffffffffffffffffffffffffffffff1681526020019081526020015f205f8381526020019081526020015f205f0160019054906101000a900460ff1615612ad45760065f8273ffffffffffffffffffffffffffffffffffffffff1673ffffffffffffffffffffffffffffffffffffffff1681526020019081526020015f205f8381526020019081526020015f205f0160019054906101000a900460ff166040517fca1c6eb3000000000000000000000000000000000000000000000000000000008152600401612acb91906135d2565b60405180910390fd5b60055f3073ffffffffffffffffffffffffffffffffffffffff1673ffffffffffffffffffffffffffffffffffffffff1681526020019081526020015f205f015f9054906101000a900460ff1615612b57576040517f853fd42100000000000000000000000000000000000000000000000000000000815260040160405180910390fd5b8073ffffffffffffffffffffffffffffffffffffffff1660065f8373ffffffffffffffffffffffffffffffffffffffff1673ffffffffffffffffffffffffffffffffffffffff1681526020019081526020015f205f8481526020019081526020015f205f0160029054906101000a900473ffffffffffffffffffffffffffffffffffffffff1673ffffffffffffffffffffffffffffffffffffffff1614612c3557806040517ff6b79c58000000000000000000000000000000000000000000000000000000008152600401612c2c9190613537565b60405180910390fd5b600160065f8373ffffffffffffffffffffffffffffffffffffffff1673ffffffffffffffffffffffffffffffffffffffff1681526020019081526020015f205f8481526020019081526020015f205f0160016101000a81548160ff0219169083151502179055503360065f8373ffffffffffffffffffffffffffffffffffffffff1673ffffffffffffffffffffffffffffffffffffffff1681526020019081526020015f205f8481526020019081526020015f205f0160026101000a81548173ffffffffffffffffffffffffffffffffffffffff021916908373ffffffffffffffffffffffffffffffffffffffff1602179055505f60065f8373ffffffffffffffffffffffffffffffffffffffff1673ffffffffffffffffffffffffffffffffffffffff1681526020019081526020015f205f8481526020019081526020015f206003015403612ece5760065f8273ffffffffffffffffffffffffffffffffffffffff1673ffffffffffffffffffffffffffffffffffffffff1681526020019081526020015f205f8381526020019081526020015f206002015460045f3373ffffffffffffffffffffffffffffffffffffffff1673ffffffffffffffffffffffffffffffffffffffff1681526020019081526020015f206001015f828254612e1d919061397b565b9250508190555060065f8273ffffffffffffffffffffffffffffffffffffffff1673ffffffffffffffffffffffffffffffffffffffff1681526020019081526020015f205f8381526020019081526020015f206002015460045f8373ffffffffffffffffffffffffffffffffffffffff1673ffffffffffffffffffffffffffffffffffffffff1681526020019081526020015f206001015f828254612ec29190613b0b565b92505081905550613019565b60065f8273ffffffffffffffffffffffffffffffffffffffff1673ffffffffffffffffffffffffffffffffffffffff1681526020019081526020015f205f8381526020019081526020015f206002015460045f8373ffffffffffffffffffffffffffffffffffffffff1673ffffffffffffffffffffffffffffffffffffffff1681526020019081526020015f206003015f828254612f6c9190613b0b565b9250508190555060065f8273ffffffffffffffffffffffffffffffffffffffff1673ffffffffffffffffffffffffffffffffffffffff1681526020019081526020015f205f8381526020019081526020015f206002015460045f3373ffffffffffffffffffffffffffffffffffffffff1673ffffffffffffffffffffffffffffffffffffffff1681526020019081526020015f206003015f828254613011919061397b565b925050819055505b600160045f3373ffffffffffffffffffffffffffffffffffffffff1673ffffffffffffffffffffffffffffffffffffffff1681526020019081526020015f206005015f60065f8573ffffffffffffffffffffffffffffffffffffffff1673ffffffffffffffffffffffffffffffffffffffff1681526020019081526020015f205f8681526020019081526020015f206003015481526020019081526020015f205f6101000a81548160ff0219169083151502179055503360035f60025481526020019081526020015f205f6101000a81548173ffffffffffffffffffffffffffffffffffffffff021916908373ffffffffffffffffffffffffffffffffffffffff16021790555060025f81548092919061313290613ac4565b91905055505f60015f9054906101000a900473ffffffffffffffffffffffffffffffffffffffff1673ffffffffffffffffffffffffffffffffffffffff166323b872dd338460065f8773ffffffffffffffffffffffffffffffffffffffff1673ffffffffffffffffffffffffffffffffffffffff1681526020019081526020015f205f8881526020019081526020015f20600101546040518463ffffffff1660e01b81526004016131e593929190613c65565b6020604051808303815f875af1158015613201573d5f803e3d5ffd5b505050506040513d601f19601f820116820180604052508101906132259190613b8f565b905080613267576040517f08c379a000000000000000000000000000000000000000000000000000000000815260040161325e90613c04565b60405180910390fd5b7fc891adf8dfbf643a02668e73c35bbbb3c8aa9d86e0dc779d260026cfc0ab8b99338360065f8673ffffffffffffffffffffffffffffffffffffffff1673ffffffffffffffffffffffffffffffffffffffff1681526020019081526020015f205f8781526020019081526020015f206002015460065f8773ffffffffffffffffffffffffffffffffffffffff1673ffffffffffffffffffffffffffffffffffffffff1681526020019081526020015f205f8881526020019081526020015f206001015460405161333a9493929190613d6a565b60405180910390a1505050565b61334f61348f565b73ffffffffffffffffffffffffffffffffffffffff1661336d61262e565b73ffffffffffffffffffffffffffffffffffffffff16146133cc5761339061348f565b6040517f118cdaa70000000000000000000000000000000000000000000000000000000081526004016133c39190613537565b60405180910390fd5b565b5f805f9054906101000a900473ffffffffffffffffffffffffffffffffffffffff169050815f806101000a81548173ffffffffffffffffffffffffffffffffffffffff021916908373ffffffffffffffffffffffffffffffffffffffff1602179055508173ffffffffffffffffffffffffffffffffffffffff168173ffffffffffffffffffffffffffffffffffffffff167f8be0079c531659141344cd1fd0a4f28419497f9722a3daafe3b4186f6b6457e060405160405180910390a35050565b5f33905090565b5f80fd5b5f819050919050565b6134ac8161349a565b81146134b6575f80fd5b50565b5f813590506134c7816134a3565b92915050565b5f602082840312156134e2576134e1613496565b5b5f6134ef848285016134b9565b91505092915050565b5f73ffffffffffffffffffffffffffffffffffffffff82169050919050565b5f613521826134f8565b9050919050565b61353181613517565b82525050565b5f60208201905061354a5f830184613528565b92915050565b61355981613517565b8114613563575f80fd5b50565b5f8135905061357481613550565b92915050565b5f80604083850312156135905761358f613496565b5b5f61359d85828601613566565b92505060206135ae858286016134b9565b9150509250929050565b5f8115159050919050565b6135cc816135b8565b82525050565b5f6020820190506135e55f8301846135c3565b92915050565b5f819050919050565b5f61360e613609613604846134f8565b6135eb565b6134f8565b9050919050565b5f61361f826135f4565b9050919050565b5f61363082613615565b9050919050565b61364081613626565b82525050565b5f6020820190506136595f830184613637565b92915050565b5f6020828403121561367457613673613496565b5b5f61368184828501613566565b91505092915050565b6136938161349a565b82525050565b5f60a0820190506136ac5f83018861368a565b6136b9602083018761368a565b6136c6604083018661368a565b6136d3606083018561368a565b6136e0608083018461368a565b9695505050505050565b5f6040820190506136fd5f83018561368a565b61370a602083018461368a565b9392505050565b5f806040838503121561372757613726613496565b5b5f613734858286016134b9565b9250506020613745858286016134b9565b9150509250929050565b5f60c0820190506137625f8301896135c3565b61376f60208301886135c3565b61377c6040830187613528565b613789606083018661368a565b613796608083018561368a565b6137a360a083018461368a565b979650505050505050565b5f805f606084860312156137c5576137c4613496565b5b5f6137d2868287016134b9565b93505060206137e3868287016134b9565b92505060406137f4868287016134b9565b9150509250925092565b5f60e0820190506138115f83018a61368a565b61381e602083018961368a565b61382b604083018861368a565b613838606083018761368a565b613845608083018661368a565b61385260a083018561368a565b61385f60c083018461368a565b98975050505050505050565b5f60208201905061387e5f83018461368a565b92915050565b5f60c0820190506138975f8301896135c3565b6138a4602083018861368a565b6138b1604083018761368a565b6138be606083018661368a565b6138cb608083018561368a565b6138d860a083018461368a565b979650505050505050565b5f80604083850312156138f9576138f8613496565b5b5f613906858286016134b9565b925050602061391785828601613566565b9150509250929050565b7f4e487b71000000000000000000000000000000000000000000000000000000005f52603260045260245ffd5b7f4e487b71000000000000000000000000000000000000000000000000000000005f52601160045260245ffd5b5f6139858261349a565b91506139908361349a565b92508282019050808211156139a8576139a761394e565b5b92915050565b5f6139b88261349a565b91506139c38361349a565b92508282026139d18161349a565b915082820484148315176139e8576139e761394e565b5b5092915050565b7f4e487b71000000000000000000000000000000000000000000000000000000005f52601260045260245ffd5b5f613a268261349a565b9150613a318361349a565b925082613a4157613a406139ef565b5b828204905092915050565b5f82825260208201905092915050565b7f6e6f7420656e6f75676820416d6f756e740000000000000000000000000000005f82015250565b5f613a90601183613a4c565b9150613a9b82613a5c565b602082019050919050565b5f6020820190508181035f830152613abd81613a84565b9050919050565b5f613ace8261349a565b91507fffffffffffffffffffffffffffffffffffffffffffffffffffffffffffffffff8203613b0057613aff61394e565b5b600182019050919050565b5f613b158261349a565b9150613b208361349a565b9250828203905081811115613b3857613b3761394e565b5b92915050565b5f604082019050613b515f830185613528565b613b5e602083018461368a565b9392505050565b613b6e816135b8565b8114613b78575f80fd5b50565b5f81519050613b8981613b65565b92915050565b5f60208284031215613ba457613ba3613496565b5b5f613bb184828501613b7b565b91505092915050565b7f5472616e73666572206661696c656400000000000000000000000000000000005f82015250565b5f613bee600f83613a4c565b9150613bf982613bba565b602082019050919050565b5f6020820190508181035f830152613c1b81613be2565b9050919050565b5f608082019050613c355f830187613528565b613c42602083018661368a565b613c4f604083018561368a565b613c5c606083018461368a565b95945050505050565b5f606082019050613c785f830186613528565b613c856020830185613528565b613c92604083018461368a565b949350505050565b7f536861726573206d7573742062652067726561746572207468616e207a65726f5f82015250565b5f613cce602083613a4c565b9150613cd982613c9a565b602082019050919050565b5f6020820190508181035f830152613cfb81613cc2565b9050919050565b7f5f70726963652063616e6e6f74206265207a65726f00000000000000000000005f82015250565b5f613d36601583613a4c565b9150613d4182613d02565b602082019050919050565b5f6020820190508181035f830152613d6381613d2a565b9050919050565b5f608082019050613d7d5f830187613528565b613d8a6020830186613528565b613d97604083018561368a565b613da4606083018461368a565b9594505050505056fea26469706673582212205a5e639d160d688c9dfdda6ca3b25c12a4ed538b7eb2ace224a3e58f649cce8664736f6c634300081a0033",
					"opcodes": "PUSH1 0x80 PUSH1 0x40 MSTORE CALLVALUE DUP1 ISZERO PUSH2 0xF JUMPI PUSH0 DUP1 REVERT JUMPDEST POP PUSH1 0x40 MLOAD PUSH2 0x41E7 CODESIZE SUB DUP1 PUSH2 0x41E7 DUP4 CODECOPY DUP2 DUP2 ADD PUSH1 0x40 MSTORE DUP2 ADD SWAP1 PUSH2 0x31 SWAP2 SWAP1 PUSH2 0x352 JUMP JUMPDEST DUP3 PUSH0 PUSH20 0xFFFFFFFFFFFFFFFFFFFFFFFFFFFFFFFFFFFFFFFF AND DUP2 PUSH20 0xFFFFFFFFFFFFFFFFFFFFFFFFFFFFFFFFFFFFFFFF AND SUB PUSH2 0xA2 JUMPI PUSH0 PUSH1 0x40 MLOAD PUSH32 0x1E4FBDF700000000000000000000000000000000000000000000000000000000 DUP2 MSTORE PUSH1 0x4 ADD PUSH2 0x99 SWAP2 SWAP1 PUSH2 0x3B1 JUMP JUMPDEST PUSH1 0x40 MLOAD DUP1 SWAP2 SUB SWAP1 REVERT JUMPDEST PUSH2 0xB1 DUP2 PUSH2 0x200 PUSH1 0x20 SHL PUSH1 0x20 SHR JUMP JUMPDEST POP DUP1 PUSH1 0x5 PUSH0 ADDRESS PUSH20 0xFFFFFFFFFFFFFFFFFFFFFFFFFFFFFFFFFFFFFFFF AND PUSH20 0xFFFFFFFFFFFFFFFFFFFFFFFFFFFFFFFFFFFFFFFF AND DUP2 MSTORE PUSH1 0x20 ADD SWAP1 DUP2 MSTORE PUSH1 0x20 ADD PUSH0 KECCAK256 PUSH1 0x1 ADD DUP2 SWAP1 SSTORE POP PUSH8 0x6F05B59D3B20000 PUSH1 0x5 PUSH0 ADDRESS PUSH20 0xFFFFFFFFFFFFFFFFFFFFFFFFFFFFFFFFFFFFFFFF AND PUSH20 0xFFFFFFFFFFFFFFFFFFFFFFFFFFFFFFFFFFFFFFFF AND DUP2 MSTORE PUSH1 0x20 ADD SWAP1 DUP2 MSTORE PUSH1 0x20 ADD PUSH0 KECCAK256 PUSH1 0x4 ADD PUSH0 PUSH1 0x2 DUP2 LT PUSH2 0x152 JUMPI PUSH2 0x151 PUSH2 0x3CA JUMP JUMPDEST JUMPDEST ADD DUP2 SWAP1 SSTORE POP PUSH8 0x6F05B59D3B20000 PUSH1 0x5 PUSH0 ADDRESS PUSH20 0xFFFFFFFFFFFFFFFFFFFFFFFFFFFFFFFFFFFFFFFF AND PUSH20 0xFFFFFFFFFFFFFFFFFFFFFFFFFFFFFFFFFFFFFFFF AND DUP2 MSTORE PUSH1 0x20 ADD SWAP1 DUP2 MSTORE PUSH1 0x20 ADD PUSH0 KECCAK256 PUSH1 0x4 ADD PUSH1 0x1 PUSH1 0x2 DUP2 LT PUSH2 0x1B3 JUMPI PUSH2 0x1B2 PUSH2 0x3CA JUMP JUMPDEST JUMPDEST ADD DUP2 SWAP1 SSTORE POP DUP2 PUSH1 0x1 PUSH0 PUSH2 0x100 EXP DUP2 SLOAD DUP2 PUSH20 0xFFFFFFFFFFFFFFFFFFFFFFFFFFFFFFFFFFFFFFFF MUL NOT AND SWAP1 DUP4 PUSH20 0xFFFFFFFFFFFFFFFFFFFFFFFFFFFFFFFFFFFFFFFF AND MUL OR SWAP1 SSTORE POP POP POP POP PUSH2 0x3F7 JUMP JUMPDEST PUSH0 DUP1 PUSH0 SWAP1 SLOAD SWAP1 PUSH2 0x100 EXP SWAP1 DIV PUSH20 0xFFFFFFFFFFFFFFFFFFFFFFFFFFFFFFFFFFFFFFFF AND SWAP1 POP DUP2 PUSH0 DUP1 PUSH2 0x100 EXP DUP2 SLOAD DUP2 PUSH20 0xFFFFFFFFFFFFFFFFFFFFFFFFFFFFFFFFFFFFFFFF MUL NOT AND SWAP1 DUP4 PUSH20 0xFFFFFFFFFFFFFFFFFFFFFFFFFFFFFFFFFFFFFFFF AND MUL OR SWAP1 SSTORE POP DUP2 PUSH20 0xFFFFFFFFFFFFFFFFFFFFFFFFFFFFFFFFFFFFFFFF AND DUP2 PUSH20 0xFFFFFFFFFFFFFFFFFFFFFFFFFFFFFFFFFFFFFFFF AND PUSH32 0x8BE0079C531659141344CD1FD0A4F28419497F9722A3DAAFE3B4186F6B6457E0 PUSH1 0x40 MLOAD PUSH1 0x40 MLOAD DUP1 SWAP2 SUB SWAP1 LOG3 POP POP JUMP JUMPDEST PUSH0 DUP1 REVERT JUMPDEST PUSH0 PUSH20 0xFFFFFFFFFFFFFFFFFFFFFFFFFFFFFFFFFFFFFFFF DUP3 AND SWAP1 POP SWAP2 SWAP1 POP JUMP JUMPDEST PUSH0 PUSH2 0x2EE DUP3 PUSH2 0x2C5 JUMP JUMPDEST SWAP1 POP SWAP2 SWAP1 POP JUMP JUMPDEST PUSH2 0x2FE DUP2 PUSH2 0x2E4 JUMP JUMPDEST DUP2 EQ PUSH2 0x308 JUMPI PUSH0 DUP1 REVERT JUMPDEST POP JUMP JUMPDEST PUSH0 DUP2 MLOAD SWAP1 POP PUSH2 0x319 DUP2 PUSH2 0x2F5 JUMP JUMPDEST SWAP3 SWAP2 POP POP JUMP JUMPDEST PUSH0 DUP2 SWAP1 POP SWAP2 SWAP1 POP JUMP JUMPDEST PUSH2 0x331 DUP2 PUSH2 0x31F JUMP JUMPDEST DUP2 EQ PUSH2 0x33B JUMPI PUSH0 DUP1 REVERT JUMPDEST POP JUMP JUMPDEST PUSH0 DUP2 MLOAD SWAP1 POP PUSH2 0x34C DUP2 PUSH2 0x328 JUMP JUMPDEST SWAP3 SWAP2 POP POP JUMP JUMPDEST PUSH0 DUP1 PUSH0 PUSH1 0x60 DUP5 DUP7 SUB SLT ISZERO PUSH2 0x369 JUMPI PUSH2 0x368 PUSH2 0x2C1 JUMP JUMPDEST JUMPDEST PUSH0 PUSH2 0x376 DUP7 DUP3 DUP8 ADD PUSH2 0x30B JUMP JUMPDEST SWAP4 POP POP PUSH1 0x20 PUSH2 0x387 DUP7 DUP3 DUP8 ADD PUSH2 0x30B JUMP JUMPDEST SWAP3 POP POP PUSH1 0x40 PUSH2 0x398 DUP7 DUP3 DUP8 ADD PUSH2 0x33E JUMP JUMPDEST SWAP2 POP POP SWAP3 POP SWAP3 POP SWAP3 JUMP JUMPDEST PUSH2 0x3AB DUP2 PUSH2 0x2E4 JUMP JUMPDEST DUP3 MSTORE POP POP JUMP JUMPDEST PUSH0 PUSH1 0x20 DUP3 ADD SWAP1 POP PUSH2 0x3C4 PUSH0 DUP4 ADD DUP5 PUSH2 0x3A2 JUMP JUMPDEST SWAP3 SWAP2 POP POP JUMP JUMPDEST PUSH32 0x4E487B7100000000000000000000000000000000000000000000000000000000 PUSH0 MSTORE PUSH1 0x32 PUSH1 0x4 MSTORE PUSH1 0x24 PUSH0 REVERT JUMPDEST PUSH2 0x3DE3 DUP1 PUSH2 0x404 PUSH0 CODECOPY PUSH0 RETURN INVALID PUSH1 0x80 PUSH1 0x40 MSTORE CALLVALUE DUP1 ISZERO PUSH2 0xF JUMPI PUSH0 DUP1 REVERT JUMPDEST POP PUSH1 0x4 CALLDATASIZE LT PUSH2 0x135 JUMPI PUSH0 CALLDATALOAD PUSH1 0xE0 SHR DUP1 PUSH4 0x6399D03D GT PUSH2 0xB6 JUMPI DUP1 PUSH4 0xA8DBD0CD GT PUSH2 0x7A JUMPI DUP1 PUSH4 0xA8DBD0CD EQ PUSH2 0x387 JUMPI DUP1 PUSH4 0xB3C740E8 EQ PUSH2 0x3BB JUMPI DUP1 PUSH4 0xBFF1F9E1 EQ PUSH2 0x3EB JUMPI DUP1 PUSH4 0xC4351386 EQ PUSH2 0x409 JUMPI DUP1 PUSH4 0xF2FDE38B EQ PUSH2 0x43E JUMPI DUP1 PUSH4 0xFBEA0B06 EQ PUSH2 0x45A JUMPI PUSH2 0x135 JUMP JUMPDEST DUP1 PUSH4 0x6399D03D EQ PUSH2 0x2F7 JUMPI DUP1 PUSH4 0x6FFCC719 EQ PUSH2 0x313 JUMPI DUP1 PUSH4 0x715018A6 EQ PUSH2 0x32F JUMPI DUP1 PUSH4 0x84B5ACA6 EQ PUSH2 0x339 JUMPI DUP1 PUSH4 0x8DA5CB5B EQ PUSH2 0x369 JUMPI PUSH2 0x135 JUMP JUMPDEST DUP1 PUSH4 0x21D0D9AF GT PUSH2 0xFD JUMPI DUP1 PUSH4 0x21D0D9AF EQ PUSH2 0x20A JUMPI DUP1 PUSH4 0x3774CA25 EQ PUSH2 0x23B JUMPI DUP1 PUSH4 0x456E62BA EQ PUSH2 0x270 JUMPI DUP1 PUSH4 0x4B684453 EQ PUSH2 0x28C JUMPI DUP1 PUSH4 0x61D464EF EQ PUSH2 0x2C2 JUMPI PUSH2 0x135 JUMP JUMPDEST DUP1 PUSH4 0x8EF962E EQ PUSH2 0x139 JUMPI DUP1 PUSH4 0xEFA82F6 EQ PUSH2 0x169 JUMPI DUP1 PUSH4 0x11EAC855 EQ PUSH2 0x199 JUMPI DUP1 PUSH4 0x1959A002 EQ PUSH2 0x1B7 JUMPI DUP1 PUSH4 0x208C86A4 EQ PUSH2 0x1EB JUMPI JUMPDEST PUSH0 DUP1 REVERT JUMPDEST PUSH2 0x153 PUSH1 0x4 DUP1 CALLDATASIZE SUB DUP2 ADD SWAP1 PUSH2 0x14E SWAP2 SWAP1 PUSH2 0x34CD JUMP JUMPDEST PUSH2 0x476 JUMP JUMPDEST PUSH1 0x40 MLOAD PUSH2 0x160 SWAP2 SWAP1 PUSH2 0x3537 JUMP JUMPDEST PUSH1 0x40 MLOAD DUP1 SWAP2 SUB SWAP1 RETURN JUMPDEST PUSH2 0x183 PUSH1 0x4 DUP1 CALLDATASIZE SUB DUP2 ADD SWAP1 PUSH2 0x17E SWAP2 SWAP1 PUSH2 0x357A JUMP JUMPDEST PUSH2 0x4A6 JUMP JUMPDEST PUSH1 0x40 MLOAD PUSH2 0x190 SWAP2 SWAP1 PUSH2 0x35D2 JUMP JUMPDEST PUSH1 0x40 MLOAD DUP1 SWAP2 SUB SWAP1 RETURN JUMPDEST PUSH2 0x1A1 PUSH2 0x50B JUMP JUMPDEST PUSH1 0x40 MLOAD PUSH2 0x1AE SWAP2 SWAP1 PUSH2 0x3646 JUMP JUMPDEST PUSH1 0x40 MLOAD DUP1 SWAP2 SUB SWAP1 RETURN JUMPDEST PUSH2 0x1D1 PUSH1 0x4 DUP1 CALLDATASIZE SUB DUP2 ADD SWAP1 PUSH2 0x1CC SWAP2 SWAP1 PUSH2 0x365F JUMP JUMPDEST PUSH2 0x530 JUMP JUMPDEST PUSH1 0x40 MLOAD PUSH2 0x1E2 SWAP6 SWAP5 SWAP4 SWAP3 SWAP2 SWAP1 PUSH2 0x3699 JUMP JUMPDEST PUSH1 0x40 MLOAD DUP1 SWAP2 SUB SWAP1 RETURN JUMPDEST PUSH2 0x1F3 PUSH2 0x562 JUMP JUMPDEST PUSH1 0x40 MLOAD PUSH2 0x201 SWAP3 SWAP2 SWAP1 PUSH2 0x36EA JUMP JUMPDEST PUSH1 0x40 MLOAD DUP1 SWAP2 SUB SWAP1 RETURN JUMPDEST PUSH2 0x224 PUSH1 0x4 DUP1 CALLDATASIZE SUB DUP2 ADD SWAP1 PUSH2 0x21F SWAP2 SWAP1 PUSH2 0x3711 JUMP JUMPDEST PUSH2 0x615 JUMP JUMPDEST PUSH1 0x40 MLOAD PUSH2 0x232 SWAP3 SWAP2 SWAP1 PUSH2 0x36EA JUMP JUMPDEST PUSH1 0x40 MLOAD DUP1 SWAP2 SUB SWAP1 RETURN JUMPDEST PUSH2 0x255 PUSH1 0x4 DUP1 CALLDATASIZE SUB DUP2 ADD SWAP1 PUSH2 0x250 SWAP2 SWAP1 PUSH2 0x357A JUMP JUMPDEST PUSH2 0x753 JUMP JUMPDEST PUSH1 0x40 MLOAD PUSH2 0x267 SWAP7 SWAP6 SWAP5 SWAP4 SWAP3 SWAP2 SWAP1 PUSH2 0x374F JUMP JUMPDEST PUSH1 0x40 MLOAD DUP1 SWAP2 SUB SWAP1 RETURN JUMPDEST PUSH2 0x28A PUSH1 0x4 DUP1 CALLDATASIZE SUB DUP2 ADD SWAP1 PUSH2 0x285 SWAP2 SWAP1 PUSH2 0x37AE JUMP JUMPDEST PUSH2 0x985 JUMP JUMPDEST STOP JUMPDEST PUSH2 0x2A6 PUSH1 0x4 DUP1 CALLDATASIZE SUB DUP2 ADD SWAP1 PUSH2 0x2A1 SWAP2 SWAP1 PUSH2 0x365F JUMP JUMPDEST PUSH2 0x10FF JUMP JUMPDEST PUSH1 0x40 MLOAD PUSH2 0x2B9 SWAP8 SWAP7 SWAP6 SWAP5 SWAP4 SWAP3 SWAP2 SWAP1 PUSH2 0x37FE JUMP JUMPDEST PUSH1 0x40 MLOAD DUP1 SWAP2 SUB SWAP1 RETURN JUMPDEST PUSH2 0x2DC PUSH1 0x4 DUP1 CALLDATASIZE SUB DUP2 ADD SWAP1 PUSH2 0x2D7 SWAP2 SWAP1 PUSH2 0x357A JUMP JUMPDEST PUSH2 0x130D JUMP JUMPDEST PUSH1 0x40 MLOAD PUSH2 0x2EE SWAP7 SWAP6 SWAP5 SWAP4 SWAP3 SWAP2 SWAP1 PUSH2 0x374F JUMP JUMPDEST PUSH1 0x40 MLOAD DUP1 SWAP2 SUB SWAP1 RETURN JUMPDEST PUSH2 0x311 PUSH1 0x4 DUP1 CALLDATASIZE SUB DUP2 ADD SWAP1 PUSH2 0x30C SWAP2 SWAP1 PUSH2 0x34CD JUMP JUMPDEST PUSH2 0x1387 JUMP JUMPDEST STOP JUMPDEST PUSH2 0x32D PUSH1 0x4 DUP1 CALLDATASIZE SUB DUP2 ADD SWAP1 PUSH2 0x328 SWAP2 SWAP1 PUSH2 0x3711 JUMP JUMPDEST PUSH2 0x1E95 JUMP JUMPDEST STOP JUMPDEST PUSH2 0x337 PUSH2 0x2560 JUMP JUMPDEST STOP JUMPDEST PUSH2 0x353 PUSH1 0x4 DUP1 CALLDATASIZE SUB DUP2 ADD SWAP1 PUSH2 0x34E SWAP2 SWAP1 PUSH2 0x3711 JUMP JUMPDEST PUSH2 0x2573 JUMP JUMPDEST PUSH1 0x40 MLOAD PUSH2 0x360 SWAP2 SWAP1 PUSH2 0x386B JUMP JUMPDEST PUSH1 0x40 MLOAD DUP1 SWAP2 SUB SWAP1 RETURN JUMPDEST PUSH2 0x371 PUSH2 0x262E JUMP JUMPDEST PUSH1 0x40 MLOAD PUSH2 0x37E SWAP2 SWAP1 PUSH2 0x3537 JUMP JUMPDEST PUSH1 0x40 MLOAD DUP1 SWAP2 SUB SWAP1 RETURN JUMPDEST PUSH2 0x3A1 PUSH1 0x4 DUP1 CALLDATASIZE SUB DUP2 ADD SWAP1 PUSH2 0x39C SWAP2 SWAP1 PUSH2 0x365F JUMP JUMPDEST PUSH2 0x2655 JUMP JUMPDEST PUSH1 0x40 MLOAD PUSH2 0x3B2 SWAP6 SWAP5 SWAP4 SWAP3 SWAP2 SWAP1 PUSH2 0x3699 JUMP JUMPDEST PUSH1 0x40 MLOAD DUP1 SWAP2 SUB SWAP1 RETURN JUMPDEST PUSH2 0x3D5 PUSH1 0x4 DUP1 CALLDATASIZE SUB DUP2 ADD SWAP1 PUSH2 0x3D0 SWAP2 SWAP1 PUSH2 0x3711 JUMP JUMPDEST PUSH2 0x27B1 JUMP JUMPDEST PUSH1 0x40 MLOAD PUSH2 0x3E2 SWAP2 SWAP1 PUSH2 0x386B JUMP JUMPDEST PUSH1 0x40 MLOAD DUP1 SWAP2 SUB SWAP1 RETURN JUMPDEST PUSH2 0x3F3 PUSH2 0x2871 JUMP JUMPDEST PUSH1 0x40 MLOAD PUSH2 0x400 SWAP2 SWAP1 PUSH2 0x386B JUMP JUMPDEST PUSH1 0x40 MLOAD DUP1 SWAP2 SUB SWAP1 RETURN JUMPDEST PUSH2 0x423 PUSH1 0x4 DUP1 CALLDATASIZE SUB DUP2 ADD SWAP1 PUSH2 0x41E SWAP2 SWAP1 PUSH2 0x365F JUMP JUMPDEST PUSH2 0x2877 JUMP JUMPDEST PUSH1 0x40 MLOAD PUSH2 0x435 SWAP7 SWAP6 SWAP5 SWAP4 SWAP3 SWAP2 SWAP1 PUSH2 0x3884 JUMP JUMPDEST PUSH1 0x40 MLOAD DUP1 SWAP2 SUB SWAP1 RETURN JUMPDEST PUSH2 0x458 PUSH1 0x4 DUP1 CALLDATASIZE SUB DUP2 ADD SWAP1 PUSH2 0x453 SWAP2 SWAP1 PUSH2 0x365F JUMP JUMPDEST PUSH2 0x28BB JUMP JUMPDEST STOP JUMPDEST PUSH2 0x474 PUSH1 0x4 DUP1 CALLDATASIZE SUB DUP2 ADD SWAP1 PUSH2 0x46F SWAP2 SWAP1 PUSH2 0x38E3 JUMP JUMPDEST PUSH2 0x293F JUMP JUMPDEST STOP JUMPDEST PUSH1 0x3 PUSH1 0x20 MSTORE DUP1 PUSH0 MSTORE PUSH1 0x40 PUSH0 KECCAK256 PUSH0 SWAP2 POP SLOAD SWAP1 PUSH2 0x100 EXP SWAP1 DIV PUSH20 0xFFFFFFFFFFFFFFFFFFFFFFFFFFFFFFFFFFFFFFFF AND DUP2 JUMP JUMPDEST PUSH0 PUSH1 0x4 PUSH0 DUP5 PUSH20 0xFFFFFFFFFFFFFFFFFFFFFFFFFFFFFFFFFFFFFFFF AND PUSH20 0xFFFFFFFFFFFFFFFFFFFFFFFFFFFFFFFFFFFFFFFF AND DUP2 MSTORE PUSH1 0x20 ADD SWAP1 DUP2 MSTORE PUSH1 0x20 ADD PUSH0 KECCAK256 PUSH1 0x5 ADD PUSH0 DUP4 DUP2 MSTORE PUSH1 0x20 ADD SWAP1 DUP2 MSTORE PUSH1 0x20 ADD PUSH0 KECCAK256 PUSH0 SWAP1 SLOAD SWAP1 PUSH2 0x100 EXP SWAP1 DIV PUSH1 0xFF AND SWAP1 POP SWAP3 SWAP2 POP POP JUMP JUMPDEST PUSH1 0x1 PUSH0 SWAP1 SLOAD SWAP1 PUSH2 0x100 EXP SWAP1 DIV PUSH20 0xFFFFFFFFFFFFFFFFFFFFFFFFFFFFFFFFFFFFFFFF AND DUP2 JUMP JUMPDEST PUSH1 0x4 PUSH1 0x20 MSTORE DUP1 PUSH0 MSTORE PUSH1 0x40 PUSH0 KECCAK256 PUSH0 SWAP2 POP SWAP1 POP DUP1 PUSH0 ADD SLOAD SWAP1 DUP1 PUSH1 0x1 ADD SLOAD SWAP1 DUP1 PUSH1 0x2 ADD SLOAD SWAP1 DUP1 PUSH1 0x3 ADD SLOAD SWAP1 DUP1 PUSH1 0x4 ADD SLOAD SWAP1 POP DUP6 JUMP JUMPDEST PUSH0 DUP1 PUSH1 0x5 PUSH0 ADDRESS PUSH20 0xFFFFFFFFFFFFFFFFFFFFFFFFFFFFFFFFFFFFFFFF AND PUSH20 0xFFFFFFFFFFFFFFFFFFFFFFFFFFFFFFFFFFFFFFFF AND DUP2 MSTORE PUSH1 0x20 ADD SWAP1 DUP2 MSTORE PUSH1 0x20 ADD PUSH0 KECCAK256 PUSH1 0x4 ADD PUSH0 PUSH1 0x2 DUP2 LT PUSH2 0x5B6 JUMPI PUSH2 0x5B5 PUSH2 0x3921 JUMP JUMPDEST JUMPDEST ADD SLOAD PUSH1 0x5 PUSH0 ADDRESS PUSH20 0xFFFFFFFFFFFFFFFFFFFFFFFFFFFFFFFFFFFFFFFF AND PUSH20 0xFFFFFFFFFFFFFFFFFFFFFFFFFFFFFFFFFFFFFFFF AND DUP2 MSTORE PUSH1 0x20 ADD SWAP1 DUP2 MSTORE PUSH1 0x20 ADD PUSH0 KECCAK256 PUSH1 0x4 ADD PUSH1 0x1 PUSH1 0x2 DUP2 LT PUSH2 0x60B JUMPI PUSH2 0x60A PUSH2 0x3921 JUMP JUMPDEST JUMPDEST ADD SLOAD SWAP2 POP SWAP2 POP SWAP1 SWAP2 JUMP JUMPDEST PUSH0 DUP1 PUSH0 PUSH1 0x5 PUSH0 ADDRESS PUSH20 0xFFFFFFFFFFFFFFFFFFFFFFFFFFFFFFFFFFFFFFFF AND PUSH20 0xFFFFFFFFFFFFFFFFFFFFFFFFFFFFFFFFFFFFFFFF AND DUP2 MSTORE PUSH1 0x20 ADD SWAP1 DUP2 MSTORE PUSH1 0x20 ADD PUSH0 KECCAK256 PUSH1 0x4 ADD PUSH0 PUSH1 0x2 DUP2 LT PUSH2 0x66A JUMPI PUSH2 0x669 PUSH2 0x3921 JUMP JUMPDEST JUMPDEST ADD SLOAD SWAP1 POP PUSH0 PUSH1 0x5 PUSH0 ADDRESS PUSH20 0xFFFFFFFFFFFFFFFFFFFFFFFFFFFFFFFFFFFFFFFF AND PUSH20 0xFFFFFFFFFFFFFFFFFFFFFFFFFFFFFFFFFFFFFFFF AND DUP2 MSTORE PUSH1 0x20 ADD SWAP1 DUP2 MSTORE PUSH1 0x20 ADD PUSH0 KECCAK256 PUSH1 0x4 ADD PUSH1 0x1 PUSH1 0x2 DUP2 LT PUSH2 0x6C2 JUMPI PUSH2 0x6C1 PUSH2 0x3921 JUMP JUMPDEST JUMPDEST ADD SLOAD SWAP1 POP PUSH0 DUP6 DUP8 PUSH2 0x6D3 SWAP2 SWAP1 PUSH2 0x397B JUMP JUMPDEST SWAP1 POP PUSH0 DUP8 EQ PUSH2 0x70C JUMPI DUP1 PUSH1 0x64 DUP9 PUSH2 0x6EA SWAP2 SWAP1 PUSH2 0x39AE JUMP JUMPDEST PUSH2 0x6F4 SWAP2 SWAP1 PUSH2 0x3A1C JUMP JUMPDEST SWAP3 POP PUSH7 0x2386F26FC10000 DUP4 PUSH2 0x709 SWAP2 SWAP1 PUSH2 0x39AE JUMP JUMPDEST SWAP3 POP JUMPDEST PUSH0 DUP7 EQ PUSH2 0x743 JUMPI DUP1 PUSH1 0x64 DUP8 PUSH2 0x721 SWAP2 SWAP1 PUSH2 0x39AE JUMP JUMPDEST PUSH2 0x72B SWAP2 SWAP1 PUSH2 0x3A1C JUMP JUMPDEST SWAP2 POP PUSH7 0x2386F26FC10000 DUP3 PUSH2 0x740 SWAP2 SWAP1 PUSH2 0x39AE JUMP JUMPDEST SWAP2 POP JUMPDEST DUP3 DUP3 SWAP5 POP SWAP5 POP POP POP POP SWAP3 POP SWAP3 SWAP1 POP JUMP JUMPDEST PUSH0 DUP1 PUSH0 DUP1 PUSH0 DUP1 PUSH1 0x6 PUSH0 DUP10 PUSH20 0xFFFFFFFFFFFFFFFFFFFFFFFFFFFFFFFFFFFFFFFF AND PUSH20 0xFFFFFFFFFFFFFFFFFFFFFFFFFFFFFFFFFFFFFFFF AND DUP2 MSTORE PUSH1 0x20 ADD SWAP1 DUP2 MSTORE PUSH1 0x20 ADD PUSH0 KECCAK256 PUSH0 DUP9 DUP2 MSTORE PUSH1 0x20 ADD SWAP1 DUP2 MSTORE PUSH1 0x20 ADD PUSH0 KECCAK256 PUSH0 ADD PUSH0 SWAP1 SLOAD SWAP1 PUSH2 0x100 EXP SWAP1 DIV PUSH1 0xFF AND PUSH1 0x6 PUSH0 DUP11 PUSH20 0xFFFFFFFFFFFFFFFFFFFFFFFFFFFFFFFFFFFFFFFF AND PUSH20 0xFFFFFFFFFFFFFFFFFFFFFFFFFFFFFFFFFFFFFFFF AND DUP2 MSTORE PUSH1 0x20 ADD SWAP1 DUP2 MSTORE PUSH1 0x20 ADD PUSH0 KECCAK256 PUSH0 DUP10 DUP2 MSTORE PUSH1 0x20 ADD SWAP1 DUP2 MSTORE PUSH1 0x20 ADD PUSH0 KECCAK256 PUSH0 ADD PUSH1 0x1 SWAP1 SLOAD SWAP1 PUSH2 0x100 EXP SWAP1 DIV PUSH1 0xFF AND PUSH1 0x6 PUSH0 DUP12 PUSH20 0xFFFFFFFFFFFFFFFFFFFFFFFFFFFFFFFFFFFFFFFF AND PUSH20 0xFFFFFFFFFFFFFFFFFFFFFFFFFFFFFFFFFFFFFFFF AND DUP2 MSTORE PUSH1 0x20 ADD SWAP1 DUP2 MSTORE PUSH1 0x20 ADD PUSH0 KECCAK256 PUSH0 DUP11 DUP2 MSTORE PUSH1 0x20 ADD SWAP1 DUP2 MSTORE PUSH1 0x20 ADD PUSH0 KECCAK256 PUSH0 ADD PUSH1 0x2 SWAP1 SLOAD SWAP1 PUSH2 0x100 EXP SWAP1 DIV PUSH20 0xFFFFFFFFFFFFFFFFFFFFFFFFFFFFFFFFFFFFFFFF AND PUSH1 0x6 PUSH0 DUP13 PUSH20 0xFFFFFFFFFFFFFFFFFFFFFFFFFFFFFFFFFFFFFFFF AND PUSH20 0xFFFFFFFFFFFFFFFFFFFFFFFFFFFFFFFFFFFFFFFF AND DUP2 MSTORE PUSH1 0x20 ADD SWAP1 DUP2 MSTORE PUSH1 0x20 ADD PUSH0 KECCAK256 PUSH0 DUP12 DUP2 MSTORE PUSH1 0x20 ADD SWAP1 DUP2 MSTORE PUSH1 0x20 ADD PUSH0 KECCAK256 PUSH1 0x1 ADD SLOAD PUSH1 0x6 PUSH0 DUP14 PUSH20 0xFFFFFFFFFFFFFFFFFFFFFFFFFFFFFFFFFFFFFFFF AND PUSH20 0xFFFFFFFFFFFFFFFFFFFFFFFFFFFFFFFFFFFFFFFF AND DUP2 MSTORE PUSH1 0x20 ADD SWAP1 DUP2 MSTORE PUSH1 0x20 ADD PUSH0 KECCAK256 PUSH0 DUP13 DUP2 MSTORE PUSH1 0x20 ADD SWAP1 DUP2 MSTORE PUSH1 0x20 ADD PUSH0 KECCAK256 PUSH1 0x2 ADD SLOAD PUSH1 0x6 PUSH0 DUP15 PUSH20 0xFFFFFFFFFFFFFFFFFFFFFFFFFFFFFFFFFFFFFFFF AND PUSH20 0xFFFFFFFFFFFFFFFFFFFFFFFFFFFFFFFFFFFFFFFF AND DUP2 MSTORE PUSH1 0x20 ADD SWAP1 DUP2 MSTORE PUSH1 0x20 ADD PUSH0 KECCAK256 PUSH0 DUP14 DUP2 MSTORE PUSH1 0x20 ADD SWAP1 DUP2 MSTORE PUSH1 0x20 ADD PUSH0 KECCAK256 PUSH1 0x3 ADD SLOAD SWAP6 POP SWAP6 POP SWAP6 POP SWAP6 POP SWAP6 POP SWAP6 POP SWAP3 SWAP6 POP SWAP3 SWAP6 POP SWAP3 SWAP6 JUMP JUMPDEST PUSH0 DUP2 EQ ISZERO DUP1 PUSH2 0x995 JUMPI POP PUSH1 0x1 DUP2 EQ ISZERO JUMPDEST ISZERO PUSH2 0x9D7 JUMPI DUP1 PUSH1 0x40 MLOAD PUSH32 0xD7ACBE8900000000000000000000000000000000000000000000000000000000 DUP2 MSTORE PUSH1 0x4 ADD PUSH2 0x9CE SWAP2 SWAP1 PUSH2 0x386B JUMP JUMPDEST PUSH1 0x40 MLOAD DUP1 SWAP2 SUB SWAP1 REVERT JUMPDEST PUSH0 DUP4 GT PUSH2 0xA1B JUMPI DUP3 PUSH1 0x40 MLOAD PUSH32 0x2FF4783000000000000000000000000000000000000000000000000000000000 DUP2 MSTORE PUSH1 0x4 ADD PUSH2 0xA12 SWAP2 SWAP1 PUSH2 0x386B JUMP JUMPDEST PUSH1 0x40 MLOAD DUP1 SWAP2 SUB SWAP1 REVERT JUMPDEST PUSH1 0x5 PUSH0 ADDRESS PUSH20 0xFFFFFFFFFFFFFFFFFFFFFFFFFFFFFFFFFFFFFFFF AND PUSH20 0xFFFFFFFFFFFFFFFFFFFFFFFFFFFFFFFFFFFFFFFF AND DUP2 MSTORE PUSH1 0x20 ADD SWAP1 DUP2 MSTORE PUSH1 0x20 ADD PUSH0 KECCAK256 PUSH0 ADD PUSH0 SWAP1 SLOAD SWAP1 PUSH2 0x100 EXP SWAP1 DIV PUSH1 0xFF AND ISZERO PUSH2 0xA9E JUMPI PUSH1 0x40 MLOAD PUSH32 0x853FD42100000000000000000000000000000000000000000000000000000000 DUP2 MSTORE PUSH1 0x4 ADD PUSH1 0x40 MLOAD DUP1 SWAP2 SUB SWAP1 REVERT JUMPDEST PUSH1 0x4 PUSH0 CALLER PUSH20 0xFFFFFFFFFFFFFFFFFFFFFFFFFFFFFFFFFFFFFFFF AND PUSH20 0xFFFFFFFFFFFFFFFFFFFFFFFFFFFFFFFFFFFFFFFF AND DUP2 MSTORE PUSH1 0x20 ADD SWAP1 DUP2 MSTORE PUSH1 0x20 ADD PUSH0 KECCAK256 PUSH1 0x5 ADD PUSH0 DUP3 DUP2 MSTORE PUSH1 0x20 ADD SWAP1 DUP2 MSTORE PUSH1 0x20 ADD PUSH0 KECCAK256 PUSH0 SWAP1 SLOAD SWAP1 PUSH2 0x100 EXP SWAP1 DIV PUSH1 0xFF AND PUSH2 0xB96 JUMPI PUSH1 0x4 PUSH0 CALLER PUSH20 0xFFFFFFFFFFFFFFFFFFFFFFFFFFFFFFFFFFFFFFFF AND PUSH20 0xFFFFFFFFFFFFFFFFFFFFFFFFFFFFFFFFFFFFFFFF AND DUP2 MSTORE PUSH1 0x20 ADD SWAP1 DUP2 MSTORE PUSH1 0x20 ADD PUSH0 KECCAK256 PUSH1 0x5 ADD PUSH0 DUP3 DUP2 MSTORE PUSH1 0x20 ADD SWAP1 DUP2 MSTORE PUSH1 0x20 ADD PUSH0 KECCAK256 PUSH0 SWAP1 SLOAD SWAP1 PUSH2 0x100 EXP SWAP1 DIV PUSH1 0xFF AND PUSH1 0x40 MLOAD PUSH32 0x3C3A312800000000000000000000000000000000000000000000000000000000 DUP2 MSTORE PUSH1 0x4 ADD PUSH2 0xB8D SWAP2 SWAP1 PUSH2 0x35D2 JUMP JUMPDEST PUSH1 0x40 MLOAD DUP1 SWAP2 SUB SWAP1 REVERT JUMPDEST PUSH0 DUP3 GT PUSH2 0xBDA JUMPI DUP2 PUSH1 0x40 MLOAD PUSH32 0xBFC1948200000000000000000000000000000000000000000000000000000000 DUP2 MSTORE PUSH1 0x4 ADD PUSH2 0xBD1 SWAP2 SWAP1 PUSH2 0x386B JUMP JUMPDEST PUSH1 0x40 MLOAD DUP1 SWAP2 SUB SWAP1 REVERT JUMPDEST PUSH0 DUP2 SUB PUSH2 0xC69 JUMPI PUSH1 0x4 PUSH0 CALLER PUSH20 0xFFFFFFFFFFFFFFFFFFFFFFFFFFFFFFFFFFFFFFFF AND PUSH20 0xFFFFFFFFFFFFFFFFFFFFFFFFFFFFFFFFFFFFFFFF AND DUP2 MSTORE PUSH1 0x20 ADD SWAP1 DUP2 MSTORE PUSH1 0x20 ADD PUSH0 KECCAK256 PUSH1 0x1 ADD SLOAD DUP4 GT ISZERO PUSH2 0xC64 JUMPI PUSH1 0x40 MLOAD PUSH32 0x8C379A000000000000000000000000000000000000000000000000000000000 DUP2 MSTORE PUSH1 0x4 ADD PUSH2 0xC5B SWAP1 PUSH2 0x3AA6 JUMP JUMPDEST PUSH1 0x40 MLOAD DUP1 SWAP2 SUB SWAP1 REVERT JUMPDEST PUSH2 0xCED JUMP JUMPDEST PUSH1 0x4 PUSH0 CALLER PUSH20 0xFFFFFFFFFFFFFFFFFFFFFFFFFFFFFFFFFFFFFFFF AND PUSH20 0xFFFFFFFFFFFFFFFFFFFFFFFFFFFFFFFFFFFFFFFF AND DUP2 MSTORE PUSH1 0x20 ADD SWAP1 DUP2 MSTORE PUSH1 0x20 ADD PUSH0 KECCAK256 PUSH1 0x3 ADD SLOAD DUP4 GT ISZERO PUSH2 0xCEC JUMPI PUSH1 0x40 MLOAD PUSH32 0x8C379A000000000000000000000000000000000000000000000000000000000 DUP2 MSTORE PUSH1 0x4 ADD PUSH2 0xCE3 SWAP1 PUSH2 0x3AA6 JUMP JUMPDEST PUSH1 0x40 MLOAD DUP1 SWAP2 SUB SWAP1 REVERT JUMPDEST JUMPDEST PUSH1 0x4 PUSH0 CALLER PUSH20 0xFFFFFFFFFFFFFFFFFFFFFFFFFFFFFFFFFFFFFFFF AND PUSH20 0xFFFFFFFFFFFFFFFFFFFFFFFFFFFFFFFFFFFFFFFF AND DUP2 MSTORE PUSH1 0x20 ADD SWAP1 DUP2 MSTORE PUSH1 0x20 ADD PUSH0 KECCAK256 PUSH0 ADD PUSH0 DUP2 SLOAD DUP1 SWAP3 SWAP2 SWAP1 PUSH2 0xD3C SWAP1 PUSH2 0x3AC4 JUMP JUMPDEST SWAP2 SWAP1 POP SSTORE POP PUSH1 0x1 PUSH1 0x6 PUSH0 CALLER PUSH20 0xFFFFFFFFFFFFFFFFFFFFFFFFFFFFFFFFFFFFFFFF AND PUSH20 0xFFFFFFFFFFFFFFFFFFFFFFFFFFFFFFFFFFFFFFFF AND DUP2 MSTORE PUSH1 0x20 ADD SWAP1 DUP2 MSTORE PUSH1 0x20 ADD PUSH0 KECCAK256 PUSH0 PUSH1 0x4 PUSH0 CALLER PUSH20 0xFFFFFFFFFFFFFFFFFFFFFFFFFFFFFFFFFFFFFFFF AND PUSH20 0xFFFFFFFFFFFFFFFFFFFFFFFFFFFFFFFFFFFFFFFF AND DUP2 MSTORE PUSH1 0x20 ADD SWAP1 DUP2 MSTORE PUSH1 0x20 ADD PUSH0 KECCAK256 PUSH0 ADD SLOAD DUP2 MSTORE PUSH1 0x20 ADD SWAP1 DUP2 MSTORE PUSH1 0x20 ADD PUSH0 KECCAK256 PUSH0 ADD PUSH0 PUSH2 0x100 EXP DUP2 SLOAD DUP2 PUSH1 0xFF MUL NOT AND SWAP1 DUP4 ISZERO ISZERO MUL OR SWAP1 SSTORE POP DUP2 PUSH1 0x6 PUSH0 CALLER PUSH20 0xFFFFFFFFFFFFFFFFFFFFFFFFFFFFFFFFFFFFFFFF AND PUSH20 0xFFFFFFFFFFFFFFFFFFFFFFFFFFFFFFFFFFFFFFFF AND DUP2 MSTORE PUSH1 0x20 ADD SWAP1 DUP2 MSTORE PUSH1 0x20 ADD PUSH0 KECCAK256 PUSH0 PUSH1 0x4 PUSH0 CALLER PUSH20 0xFFFFFFFFFFFFFFFFFFFFFFFFFFFFFFFFFFFFFFFF AND PUSH20 0xFFFFFFFFFFFFFFFFFFFFFFFFFFFFFFFFFFFFFFFF AND DUP2 MSTORE PUSH1 0x20 ADD SWAP1 DUP2 MSTORE PUSH1 0x20 ADD PUSH0 KECCAK256 PUSH0 ADD SLOAD DUP2 MSTORE PUSH1 0x20 ADD SWAP1 DUP2 MSTORE PUSH1 0x20 ADD PUSH0 KECCAK256 PUSH1 0x1 ADD DUP2 SWAP1 SSTORE POP DUP3 PUSH1 0x6 PUSH0 CALLER PUSH20 0xFFFFFFFFFFFFFFFFFFFFFFFFFFFFFFFFFFFFFFFF AND PUSH20 0xFFFFFFFFFFFFFFFFFFFFFFFFFFFFFFFFFFFFFFFF AND DUP2 MSTORE PUSH1 0x20 ADD SWAP1 DUP2 MSTORE PUSH1 0x20 ADD PUSH0 KECCAK256 PUSH0 PUSH1 0x4 PUSH0 CALLER PUSH20 0xFFFFFFFFFFFFFFFFFFFFFFFFFFFFFFFFFFFFFFFF AND PUSH20 0xFFFFFFFFFFFFFFFFFFFFFFFFFFFFFFFFFFFFFFFF AND DUP2 MSTORE PUSH1 0x20 ADD SWAP1 DUP2 MSTORE PUSH1 0x20 ADD PUSH0 KECCAK256 PUSH0 ADD SLOAD DUP2 MSTORE PUSH1 0x20 ADD SWAP1 DUP2 MSTORE PUSH1 0x20 ADD PUSH0 KECCAK256 PUSH1 0x2 ADD DUP2 SWAP1 SSTORE POP CALLER PUSH1 0x6 PUSH0 CALLER PUSH20 0xFFFFFFFFFFFFFFFFFFFFFFFFFFFFFFFFFFFFFFFF AND PUSH20 0xFFFFFFFFFFFFFFFFFFFFFFFFFFFFFFFFFFFFFFFF AND DUP2 MSTORE PUSH1 0x20 ADD SWAP1 DUP2 MSTORE PUSH1 0x20 ADD PUSH0 KECCAK256 PUSH0 PUSH1 0x4 PUSH0 CALLER PUSH20 0xFFFFFFFFFFFFFFFFFFFFFFFFFFFFFFFFFFFFFFFF AND PUSH20 0xFFFFFFFFFFFFFFFFFFFFFFFFFFFFFFFFFFFFFFFF AND DUP2 MSTORE PUSH1 0x20 ADD SWAP1 DUP2 MSTORE PUSH1 0x20 ADD PUSH0 KECCAK256 PUSH0 ADD SLOAD DUP2 MSTORE PUSH1 0x20 ADD SWAP1 DUP2 MSTORE PUSH1 0x20 ADD PUSH0 KECCAK256 PUSH0 ADD PUSH1 0x2 PUSH2 0x100 EXP DUP2 SLOAD DUP2 PUSH20 0xFFFFFFFFFFFFFFFFFFFFFFFFFFFFFFFFFFFFFFFF MUL NOT AND SWAP1 DUP4 PUSH20 0xFFFFFFFFFFFFFFFFFFFFFFFFFFFFFFFFFFFFFFFF AND MUL OR SWAP1 SSTORE POP DUP1 PUSH1 0x6 PUSH0 CALLER PUSH20 0xFFFFFFFFFFFFFFFFFFFFFFFFFFFFFFFFFFFFFFFF AND PUSH20 0xFFFFFFFFFFFFFFFFFFFFFFFFFFFFFFFFFFFFFFFF AND DUP2 MSTORE PUSH1 0x20 ADD SWAP1 DUP2 MSTORE PUSH1 0x20 ADD PUSH0 KECCAK256 PUSH0 PUSH1 0x4 PUSH0 CALLER PUSH20 0xFFFFFFFFFFFFFFFFFFFFFFFFFFFFFFFFFFFFFFFF AND PUSH20 0xFFFFFFFFFFFFFFFFFFFFFFFFFFFFFFFFFFFFFFFF AND DUP2 MSTORE PUSH1 0x20 ADD SWAP1 DUP2 MSTORE PUSH1 0x20 ADD PUSH0 KECCAK256 PUSH0 ADD SLOAD DUP2 MSTORE PUSH1 0x20 ADD SWAP1 DUP2 MSTORE PUSH1 0x20 ADD PUSH0 KECCAK256 PUSH1 0x3 ADD DUP2 SWAP1 SSTORE POP CALLER PUSH20 0xFFFFFFFFFFFFFFFFFFFFFFFFFFFFFFFFFFFFFFFF AND PUSH32 0x578D9BB67FF50E6081576125AD4C2410D6E82DE6DBC1A5DCAC37F8E5AA9CA4F4 PUSH1 0x4 PUSH0 CALLER PUSH20 0xFFFFFFFFFFFFFFFFFFFFFFFFFFFFFFFFFFFFFFFF AND PUSH20 0xFFFFFFFFFFFFFFFFFFFFFFFFFFFFFFFFFFFFFFFF AND DUP2 MSTORE PUSH1 0x20 ADD SWAP1 DUP2 MSTORE PUSH1 0x20 ADD PUSH0 KECCAK256 PUSH0 ADD SLOAD DUP5 PUSH1 0x40 MLOAD PUSH2 0x10F2 SWAP3 SWAP2 SWAP1 PUSH2 0x36EA JUMP JUMPDEST PUSH1 0x40 MLOAD DUP1 SWAP2 SUB SWAP1 LOG2 POP POP POP JUMP JUMPDEST PUSH0 DUP1 PUSH0 DUP1 PUSH0 DUP1 PUSH0 PUSH1 0x5 PUSH0 DUP10 PUSH20 0xFFFFFFFFFFFFFFFFFFFFFFFFFFFFFFFFFFFFFFFF AND PUSH20 0xFFFFFFFFFFFFFFFFFFFFFFFFFFFFFFFFFFFFFFFF AND DUP2 MSTORE PUSH1 0x20 ADD SWAP1 DUP2 MSTORE PUSH1 0x20 ADD PUSH0 KECCAK256 PUSH1 0x1 ADD SLOAD PUSH1 0x5 PUSH0 DUP11 PUSH20 0xFFFFFFFFFFFFFFFFFFFFFFFFFFFFFFFFFFFFFFFF AND PUSH20 0xFFFFFFFFFFFFFFFFFFFFFFFFFFFFFFFFFFFFFFFF AND DUP2 MSTORE PUSH1 0x20 ADD SWAP1 DUP2 MSTORE PUSH1 0x20 ADD PUSH0 KECCAK256 PUSH1 0x2 ADD SLOAD PUSH1 0x5 PUSH0 DUP12 PUSH20 0xFFFFFFFFFFFFFFFFFFFFFFFFFFFFFFFFFFFFFFFF AND PUSH20 0xFFFFFFFFFFFFFFFFFFFFFFFFFFFFFFFFFFFFFFFF AND DUP2 MSTORE PUSH1 0x20 ADD SWAP1 DUP2 MSTORE PUSH1 0x20 ADD PUSH0 KECCAK256 PUSH1 0x3 ADD SLOAD PUSH1 0x5 PUSH0 DUP13 PUSH20 0xFFFFFFFFFFFFFFFFFFFFFFFFFFFFFFFFFFFFFFFF AND PUSH20 0xFFFFFFFFFFFFFFFFFFFFFFFFFFFFFFFFFFFFFFFF AND DUP2 MSTORE PUSH1 0x20 ADD SWAP1 DUP2 MSTORE PUSH1 0x20 ADD PUSH0 KECCAK256 PUSH1 0x4 ADD PUSH1 0x1 PUSH1 0x2 DUP2 LT PUSH2 0x121C JUMPI PUSH2 0x121B PUSH2 0x3921 JUMP JUMPDEST JUMPDEST ADD SLOAD PUSH1 0x5 PUSH0 DUP14 PUSH20 0xFFFFFFFFFFFFFFFFFFFFFFFFFFFFFFFFFFFFFFFF AND PUSH20 0xFFFFFFFFFFFFFFFFFFFFFFFFFFFFFFFFFFFFFFFF AND DUP2 MSTORE PUSH1 0x20 ADD SWAP1 DUP2 MSTORE PUSH1 0x20 ADD PUSH0 KECCAK256 PUSH1 0x4 ADD PUSH0 PUSH1 0x2 DUP2 LT PUSH2 0x1270 JUMPI PUSH2 0x126F PUSH2 0x3921 JUMP JUMPDEST JUMPDEST ADD SLOAD PUSH1 0x5 PUSH0 DUP15 PUSH20 0xFFFFFFFFFFFFFFFFFFFFFFFFFFFFFFFFFFFFFFFF AND PUSH20 0xFFFFFFFFFFFFFFFFFFFFFFFFFFFFFFFFFFFFFFFF AND DUP2 MSTORE PUSH1 0x20 ADD SWAP1 DUP2 MSTORE PUSH1 0x20 ADD PUSH0 KECCAK256 PUSH1 0x6 ADD SLOAD PUSH1 0x5 PUSH0 DUP16 PUSH20 0xFFFFFFFFFFFFFFFFFFFFFFFFFFFFFFFFFFFFFFFF AND PUSH20 0xFFFFFFFFFFFFFFFFFFFFFFFFFFFFFFFFFFFFFFFF AND DUP2 MSTORE PUSH1 0x20 ADD SWAP1 DUP2 MSTORE PUSH1 0x20 ADD PUSH0 KECCAK256 PUSH1 0x7 ADD SLOAD SWAP7 POP SWAP7 POP SWAP7 POP SWAP7 POP SWAP7 POP SWAP7 POP SWAP7 POP SWAP2 SWAP4 SWAP6 SWAP8 SWAP1 SWAP3 SWAP5 SWAP7 POP JUMP JUMPDEST PUSH1 0x6 PUSH1 0x20 MSTORE DUP2 PUSH0 MSTORE PUSH1 0x40 PUSH0 KECCAK256 PUSH1 0x20 MSTORE DUP1 PUSH0 MSTORE PUSH1 0x40 PUSH0 KECCAK256 PUSH0 SWAP2 POP SWAP2 POP POP DUP1 PUSH0 ADD PUSH0 SWAP1 SLOAD SWAP1 PUSH2 0x100 EXP SWAP1 DIV PUSH1 0xFF AND SWAP1 DUP1 PUSH0 ADD PUSH1 0x1 SWAP1 SLOAD SWAP1 PUSH2 0x100 EXP SWAP1 DIV PUSH1 0xFF AND SWAP1 DUP1 PUSH0 ADD PUSH1 0x2 SWAP1 SLOAD SWAP1 PUSH2 0x100 EXP SWAP1 DIV PUSH20 0xFFFFFFFFFFFFFFFFFFFFFFFFFFFFFFFFFFFFFFFF AND SWAP1 DUP1 PUSH1 0x1 ADD SLOAD SWAP1 DUP1 PUSH1 0x2 ADD SLOAD SWAP1 DUP1 PUSH1 0x3 ADD SLOAD SWAP1 POP DUP7 JUMP JUMPDEST PUSH0 DUP2 EQ ISZERO DUP1 PUSH2 0x1397 JUMPI POP PUSH1 0x1 DUP2 EQ ISZERO JUMPDEST ISZERO PUSH2 0x13D9 JUMPI DUP1 PUSH1 0x40 MLOAD PUSH32 0xD7ACBE8900000000000000000000000000000000000000000000000000000000 DUP2 MSTORE PUSH1 0x4 ADD PUSH2 0x13D0 SWAP2 SWAP1 PUSH2 0x386B JUMP JUMPDEST PUSH1 0x40 MLOAD DUP1 SWAP2 SUB SWAP1 REVERT JUMPDEST PUSH1 0x5 PUSH0 ADDRESS PUSH20 0xFFFFFFFFFFFFFFFFFFFFFFFFFFFFFFFFFFFFFFFF AND PUSH20 0xFFFFFFFFFFFFFFFFFFFFFFFFFFFFFFFFFFFFFFFF AND DUP2 MSTORE PUSH1 0x20 ADD SWAP1 DUP2 MSTORE PUSH1 0x20 ADD PUSH0 KECCAK256 PUSH0 ADD PUSH0 SWAP1 SLOAD SWAP1 PUSH2 0x100 EXP SWAP1 DIV PUSH1 0xFF AND ISZERO PUSH2 0x145C JUMPI PUSH1 0x40 MLOAD PUSH32 0x853FD42100000000000000000000000000000000000000000000000000000000 DUP2 MSTORE PUSH1 0x4 ADD PUSH1 0x40 MLOAD DUP1 SWAP2 SUB SWAP1 REVERT JUMPDEST PUSH0 DUP1 PUSH0 SWAP1 POP JUMPDEST PUSH1 0x2 SLOAD DUP2 LT ISZERO PUSH2 0x186D JUMPI PUSH1 0x4 PUSH0 PUSH1 0x3 PUSH0 DUP5 DUP2 MSTORE PUSH1 0x20 ADD SWAP1 DUP2 MSTORE PUSH1 0x20 ADD PUSH0 KECCAK256 PUSH0 SWAP1 SLOAD SWAP1 PUSH2 0x100 EXP SWAP1 DIV PUSH20 0xFFFFFFFFFFFFFFFFFFFFFFFFFFFFFFFFFFFFFFFF AND PUSH20 0xFFFFFFFFFFFFFFFFFFFFFFFFFFFFFFFFFFFFFFFF AND PUSH20 0xFFFFFFFFFFFFFFFFFFFFFFFFFFFFFFFFFFFFFFFF AND DUP2 MSTORE PUSH1 0x20 ADD SWAP1 DUP2 MSTORE PUSH1 0x20 ADD PUSH0 KECCAK256 PUSH1 0x5 ADD PUSH0 DUP5 DUP2 MSTORE PUSH1 0x20 ADD SWAP1 DUP2 MSTORE PUSH1 0x20 ADD PUSH0 KECCAK256 PUSH0 SWAP1 SLOAD SWAP1 PUSH2 0x100 EXP SWAP1 DIV PUSH1 0xFF AND ISZERO PUSH2 0x1860 JUMPI PUSH0 DUP4 EQ DUP1 ISZERO PUSH2 0x157C JUMPI POP PUSH0 PUSH1 0x4 PUSH0 PUSH1 0x3 PUSH0 DUP6 DUP2 MSTORE PUSH1 0x20 ADD SWAP1 DUP2 MSTORE PUSH1 0x20 ADD PUSH0 KECCAK256 PUSH0 SWAP1 SLOAD SWAP1 PUSH2 0x100 EXP SWAP1 DIV PUSH20 0xFFFFFFFFFFFFFFFFFFFFFFFFFFFFFFFFFFFFFFFF AND PUSH20 0xFFFFFFFFFFFFFFFFFFFFFFFFFFFFFFFFFFFFFFFF AND PUSH20 0xFFFFFFFFFFFFFFFFFFFFFFFFFFFFFFFFFFFFFFFF AND DUP2 MSTORE PUSH1 0x20 ADD SWAP1 DUP2 MSTORE PUSH1 0x20 ADD PUSH0 KECCAK256 PUSH1 0x1 ADD SLOAD EQ ISZERO JUMPDEST ISZERO PUSH2 0x16F2 JUMPI PUSH2 0x15FB PUSH1 0x4 PUSH0 PUSH1 0x3 PUSH0 DUP6 DUP2 MSTORE PUSH1 0x20 ADD SWAP1 DUP2 MSTORE PUSH1 0x20 ADD PUSH0 KECCAK256 PUSH0 SWAP1 SLOAD SWAP1 PUSH2 0x100 EXP SWAP1 DIV PUSH20 0xFFFFFFFFFFFFFFFFFFFFFFFFFFFFFFFFFFFFFFFF AND PUSH20 0xFFFFFFFFFFFFFFFFFFFFFFFFFFFFFFFFFFFFFFFF AND PUSH20 0xFFFFFFFFFFFFFFFFFFFFFFFFFFFFFFFFFFFFFFFF AND DUP2 MSTORE PUSH1 0x20 ADD SWAP1 DUP2 MSTORE PUSH1 0x20 ADD PUSH0 KECCAK256 PUSH1 0x1 ADD SLOAD DUP5 PUSH2 0x27B1 JUMP JUMPDEST PUSH1 0x4 PUSH0 PUSH1 0x3 PUSH0 DUP6 DUP2 MSTORE PUSH1 0x20 ADD SWAP1 DUP2 MSTORE PUSH1 0x20 ADD PUSH0 KECCAK256 PUSH0 SWAP1 SLOAD SWAP1 PUSH2 0x100 EXP SWAP1 DIV PUSH20 0xFFFFFFFFFFFFFFFFFFFFFFFFFFFFFFFFFFFFFFFF AND PUSH20 0xFFFFFFFFFFFFFFFFFFFFFFFFFFFFFFFFFFFFFFFF AND PUSH20 0xFFFFFFFFFFFFFFFFFFFFFFFFFFFFFFFFFFFFFFFF AND DUP2 MSTORE PUSH1 0x20 ADD SWAP1 DUP2 MSTORE PUSH1 0x20 ADD PUSH0 KECCAK256 PUSH1 0x4 ADD DUP2 SWAP1 SSTORE POP PUSH1 0x4 PUSH0 PUSH1 0x3 PUSH0 DUP5 DUP2 MSTORE PUSH1 0x20 ADD SWAP1 DUP2 MSTORE PUSH1 0x20 ADD PUSH0 KECCAK256 PUSH0 SWAP1 SLOAD SWAP1 PUSH2 0x100 EXP SWAP1 DIV PUSH20 0xFFFFFFFFFFFFFFFFFFFFFFFFFFFFFFFFFFFFFFFF AND PUSH20 0xFFFFFFFFFFFFFFFFFFFFFFFFFFFFFFFFFFFFFFFF AND PUSH20 0xFFFFFFFFFFFFFFFFFFFFFFFFFFFFFFFFFFFFFFFF AND DUP2 MSTORE PUSH1 0x20 ADD SWAP1 DUP2 MSTORE PUSH1 0x20 ADD PUSH0 KECCAK256 PUSH1 0x4 ADD SLOAD DUP3 PUSH2 0x16EB SWAP2 SWAP1 PUSH2 0x397B JUMP JUMPDEST SWAP2 POP PUSH2 0x185F JUMP JUMPDEST PUSH2 0x176C PUSH1 0x4 PUSH0 PUSH1 0x3 PUSH0 DUP6 DUP2 MSTORE PUSH1 0x20 ADD SWAP1 DUP2 MSTORE PUSH1 0x20 ADD PUSH0 KECCAK256 PUSH0 SWAP1 SLOAD SWAP1 PUSH2 0x100 EXP SWAP1 DIV PUSH20 0xFFFFFFFFFFFFFFFFFFFFFFFFFFFFFFFFFFFFFFFF AND PUSH20 0xFFFFFFFFFFFFFFFFFFFFFFFFFFFFFFFFFFFFFFFF AND PUSH20 0xFFFFFFFFFFFFFFFFFFFFFFFFFFFFFFFFFFFFFFFF AND DUP2 MSTORE PUSH1 0x20 ADD SWAP1 DUP2 MSTORE PUSH1 0x20 ADD PUSH0 KECCAK256 PUSH1 0x3 ADD SLOAD DUP5 PUSH2 0x27B1 JUMP JUMPDEST PUSH1 0x4 PUSH0 PUSH1 0x3 PUSH0 DUP6 DUP2 MSTORE PUSH1 0x20 ADD SWAP1 DUP2 MSTORE PUSH1 0x20 ADD PUSH0 KECCAK256 PUSH0 SWAP1 SLOAD SWAP1 PUSH2 0x100 EXP SWAP1 DIV PUSH20 0xFFFFFFFFFFFFFFFFFFFFFFFFFFFFFFFFFFFFFFFF AND PUSH20 0xFFFFFFFFFFFFFFFFFFFFFFFFFFFFFFFFFFFFFFFF AND PUSH20 0xFFFFFFFFFFFFFFFFFFFFFFFFFFFFFFFFFFFFFFFF AND DUP2 MSTORE PUSH1 0x20 ADD SWAP1 DUP2 MSTORE PUSH1 0x20 ADD PUSH0 KECCAK256 PUSH1 0x4 ADD DUP2 SWAP1 SSTORE POP PUSH1 0x4 PUSH0 PUSH1 0x3 PUSH0 DUP5 DUP2 MSTORE PUSH1 0x20 ADD SWAP1 DUP2 MSTORE PUSH1 0x20 ADD PUSH0 KECCAK256 PUSH0 SWAP1 SLOAD SWAP1 PUSH2 0x100 EXP SWAP1 DIV PUSH20 0xFFFFFFFFFFFFFFFFFFFFFFFFFFFFFFFFFFFFFFFF AND PUSH20 0xFFFFFFFFFFFFFFFFFFFFFFFFFFFFFFFFFFFFFFFF AND PUSH20 0xFFFFFFFFFFFFFFFFFFFFFFFFFFFFFFFFFFFFFFFF AND DUP2 MSTORE PUSH1 0x20 ADD SWAP1 DUP2 MSTORE PUSH1 0x20 ADD PUSH0 KECCAK256 PUSH1 0x4 ADD SLOAD DUP3 PUSH2 0x185C SWAP2 SWAP1 PUSH2 0x397B JUMP JUMPDEST SWAP2 POP JUMPDEST JUMPDEST DUP1 DUP1 PUSH1 0x1 ADD SWAP2 POP POP PUSH2 0x1462 JUMP JUMPDEST POP PUSH0 DUP2 PUSH1 0x5 PUSH0 ADDRESS PUSH20 0xFFFFFFFFFFFFFFFFFFFFFFFFFFFFFFFFFFFFFFFF AND PUSH20 0xFFFFFFFFFFFFFFFFFFFFFFFFFFFFFFFFFFFFFFFF AND DUP2 MSTORE PUSH1 0x20 ADD SWAP1 DUP2 MSTORE PUSH1 0x20 ADD PUSH0 KECCAK256 PUSH1 0x3 ADD SLOAD PUSH2 0x18BB SWAP2 SWAP1 PUSH2 0x3A1C JUMP JUMPDEST SWAP1 POP PUSH0 DUP1 PUSH0 SWAP1 POP JUMPDEST PUSH1 0x2 SLOAD DUP2 LT ISZERO PUSH2 0x1D0C JUMPI PUSH1 0x4 PUSH0 PUSH1 0x3 PUSH0 DUP5 DUP2 MSTORE PUSH1 0x20 ADD SWAP1 DUP2 MSTORE PUSH1 0x20 ADD PUSH0 KECCAK256 PUSH0 SWAP1 SLOAD SWAP1 PUSH2 0x100 EXP SWAP1 DIV PUSH20 0xFFFFFFFFFFFFFFFFFFFFFFFFFFFFFFFFFFFFFFFF AND PUSH20 0xFFFFFFFFFFFFFFFFFFFFFFFFFFFFFFFFFFFFFFFF AND PUSH20 0xFFFFFFFFFFFFFFFFFFFFFFFFFFFFFFFFFFFFFFFF AND DUP2 MSTORE PUSH1 0x20 ADD SWAP1 DUP2 MSTORE PUSH1 0x20 ADD PUSH0 KECCAK256 PUSH1 0x5 ADD PUSH0 DUP7 DUP2 MSTORE PUSH1 0x20 ADD SWAP1 DUP2 MSTORE PUSH1 0x20 ADD PUSH0 KECCAK256 PUSH0 SWAP1 SLOAD SWAP1 PUSH2 0x100 EXP SWAP1 DIV PUSH1 0xFF AND ISZERO PUSH2 0x1CFF JUMPI PUSH0 DUP6 SUB PUSH2 0x1A6E JUMPI PUSH1 0x4 PUSH0 PUSH1 0x3 PUSH0 DUP5 DUP2 MSTORE PUSH1 0x20 ADD SWAP1 DUP2 MSTORE PUSH1 0x20 ADD PUSH0 KECCAK256 PUSH0 SWAP1 SLOAD SWAP1 PUSH2 0x100 EXP SWAP1 DIV PUSH20 0xFFFFFFFFFFFFFFFFFFFFFFFFFFFFFFFFFFFFFFFF AND PUSH20 0xFFFFFFFFFFFFFFFFFFFFFFFFFFFFFFFFFFFFFFFF AND PUSH20 0xFFFFFFFFFFFFFFFFFFFFFFFFFFFFFFFFFFFFFFFF AND DUP2 MSTORE PUSH1 0x20 ADD SWAP1 DUP2 MSTORE PUSH1 0x20 ADD PUSH0 KECCAK256 PUSH1 0x1 ADD SLOAD DUP4 PUSH1 0x4 PUSH0 PUSH1 0x3 PUSH0 DUP7 DUP2 MSTORE PUSH1 0x20 ADD SWAP1 DUP2 MSTORE PUSH1 0x20 ADD PUSH0 KECCAK256 PUSH0 SWAP1 SLOAD SWAP1 PUSH2 0x100 EXP SWAP1 DIV PUSH20 0xFFFFFFFFFFFFFFFFFFFFFFFFFFFFFFFFFFFFFFFF AND PUSH20 0xFFFFFFFFFFFFFFFFFFFFFFFFFFFFFFFFFFFFFFFF AND PUSH20 0xFFFFFFFFFFFFFFFFFFFFFFFFFFFFFFFFFFFFFFFF AND DUP2 MSTORE PUSH1 0x20 ADD SWAP1 DUP2 MSTORE PUSH1 0x20 ADD PUSH0 KECCAK256 PUSH1 0x4 ADD SLOAD PUSH2 0x1A52 SWAP2 SWAP1 PUSH2 0x39AE JUMP JUMPDEST PUSH2 0x1A5C SWAP2 SWAP1 PUSH2 0x3B0B JUMP JUMPDEST DUP3 PUSH2 0x1A67 SWAP2 SWAP1 PUSH2 0x397B JUMP JUMPDEST SWAP2 POP PUSH2 0x1B73 JUMP JUMPDEST PUSH1 0x4 PUSH0 PUSH1 0x3 PUSH0 DUP5 DUP2 MSTORE PUSH1 0x20 ADD SWAP1 DUP2 MSTORE PUSH1 0x20 ADD PUSH0 KECCAK256 PUSH0 SWAP1 SLOAD SWAP1 PUSH2 0x100 EXP SWAP1 DIV PUSH20 0xFFFFFFFFFFFFFFFFFFFFFFFFFFFFFFFFFFFFFFFF AND PUSH20 0xFFFFFFFFFFFFFFFFFFFFFFFFFFFFFFFFFFFFFFFF AND PUSH20 0xFFFFFFFFFFFFFFFFFFFFFFFFFFFFFFFFFFFFFFFF AND DUP2 MSTORE PUSH1 0x20 ADD SWAP1 DUP2 MSTORE PUSH1 0x20 ADD PUSH0 KECCAK256 PUSH1 0x3 ADD SLOAD DUP4 PUSH1 0x4 PUSH0 PUSH1 0x3 PUSH0 DUP7 DUP2 MSTORE PUSH1 0x20 ADD SWAP1 DUP2 MSTORE PUSH1 0x20 ADD PUSH0 KECCAK256 PUSH0 SWAP1 SLOAD SWAP1 PUSH2 0x100 EXP SWAP1 DIV PUSH20 0xFFFFFFFFFFFFFFFFFFFFFFFFFFFFFFFFFFFFFFFF AND PUSH20 0xFFFFFFFFFFFFFFFFFFFFFFFFFFFFFFFFFFFFFFFF AND PUSH20 0xFFFFFFFFFFFFFFFFFFFFFFFFFFFFFFFFFFFFFFFF AND DUP2 MSTORE PUSH1 0x20 ADD SWAP1 DUP2 MSTORE PUSH1 0x20 ADD PUSH0 KECCAK256 PUSH1 0x4 ADD SLOAD PUSH2 0x1B5B SWAP2 SWAP1 PUSH2 0x39AE JUMP JUMPDEST PUSH2 0x1B65 SWAP2 SWAP1 PUSH2 0x3B0B JUMP JUMPDEST DUP3 PUSH2 0x1B70 SWAP2 SWAP1 PUSH2 0x397B JUMP JUMPDEST SWAP2 POP JUMPDEST PUSH0 PUSH1 0x1 PUSH0 SWAP1 SLOAD SWAP1 PUSH2 0x100 EXP SWAP1 DIV PUSH20 0xFFFFFFFFFFFFFFFFFFFFFFFFFFFFFFFFFFFFFFFF AND PUSH20 0xFFFFFFFFFFFFFFFFFFFFFFFFFFFFFFFFFFFFFFFF AND PUSH4 0xA9059CBB PUSH1 0x3 PUSH0 DUP6 DUP2 MSTORE PUSH1 0x20 ADD SWAP1 DUP2 MSTORE PUSH1 0x20 ADD PUSH0 KECCAK256 PUSH0 SWAP1 SLOAD SWAP1 PUSH2 0x100 EXP SWAP1 DIV PUSH20 0xFFFFFFFFFFFFFFFFFFFFFFFFFFFFFFFFFFFFFFFF AND DUP7 PUSH1 0x4 PUSH0 PUSH1 0x3 PUSH0 DUP10 DUP2 MSTORE PUSH1 0x20 ADD SWAP1 DUP2 MSTORE PUSH1 0x20 ADD PUSH0 KECCAK256 PUSH0 SWAP1 SLOAD SWAP1 PUSH2 0x100 EXP SWAP1 DIV PUSH20 0xFFFFFFFFFFFFFFFFFFFFFFFFFFFFFFFFFFFFFFFF AND PUSH20 0xFFFFFFFFFFFFFFFFFFFFFFFFFFFFFFFFFFFFFFFF AND PUSH20 0xFFFFFFFFFFFFFFFFFFFFFFFFFFFFFFFFFFFFFFFF AND DUP2 MSTORE PUSH1 0x20 ADD SWAP1 DUP2 MSTORE PUSH1 0x20 ADD PUSH0 KECCAK256 PUSH1 0x4 ADD SLOAD PUSH2 0x1C5E SWAP2 SWAP1 PUSH2 0x39AE JUMP JUMPDEST PUSH1 0x40 MLOAD DUP4 PUSH4 0xFFFFFFFF AND PUSH1 0xE0 SHL DUP2 MSTORE PUSH1 0x4 ADD PUSH2 0x1C7B SWAP3 SWAP2 SWAP1 PUSH2 0x3B3E JUMP JUMPDEST PUSH1 0x20 PUSH1 0x40 MLOAD DUP1 DUP4 SUB DUP2 PUSH0 DUP8 GAS CALL ISZERO DUP1 ISZERO PUSH2 0x1C97 JUMPI RETURNDATASIZE PUSH0 DUP1 RETURNDATACOPY RETURNDATASIZE PUSH0 REVERT JUMPDEST POP POP POP POP PUSH1 0x40 MLOAD RETURNDATASIZE PUSH1 0x1F NOT PUSH1 0x1F DUP3 ADD AND DUP3 ADD DUP1 PUSH1 0x40 MSTORE POP DUP2 ADD SWAP1 PUSH2 0x1CBB SWAP2 SWAP1 PUSH2 0x3B8F JUMP JUMPDEST SWAP1 POP DUP1 PUSH2 0x1CFD JUMPI PUSH1 0x40 MLOAD PUSH32 0x8C379A000000000000000000000000000000000000000000000000000000000 DUP2 MSTORE PUSH1 0x4 ADD PUSH2 0x1CF4 SWAP1 PUSH2 0x3C04 JUMP JUMPDEST PUSH1 0x40 MLOAD DUP1 SWAP2 SUB SWAP1 REVERT JUMPDEST POP JUMPDEST DUP1 DUP1 PUSH1 0x1 ADD SWAP2 POP POP PUSH2 0x18C3 JUMP JUMPDEST POP PUSH1 0x1 PUSH1 0x5 PUSH0 ADDRESS PUSH20 0xFFFFFFFFFFFFFFFFFFFFFFFFFFFFFFFFFFFFFFFF AND PUSH20 0xFFFFFFFFFFFFFFFFFFFFFFFFFFFFFFFFFFFFFFFF AND DUP2 MSTORE PUSH1 0x20 ADD SWAP1 DUP2 MSTORE PUSH1 0x20 ADD PUSH0 KECCAK256 PUSH0 ADD PUSH0 PUSH2 0x100 EXP DUP2 SLOAD DUP2 PUSH1 0xFF MUL NOT AND SWAP1 DUP4 ISZERO ISZERO MUL OR SWAP1 SSTORE POP PUSH0 PUSH1 0x1 PUSH0 SWAP1 SLOAD SWAP1 PUSH2 0x100 EXP SWAP1 DIV PUSH20 0xFFFFFFFFFFFFFFFFFFFFFFFFFFFFFFFFFFFFFFFF AND PUSH20 0xFFFFFFFFFFFFFFFFFFFFFFFFFFFFFFFFFFFFFFFF AND PUSH4 0xA9059CBB PUSH2 0x1DAA PUSH2 0x262E JUMP JUMPDEST DUP5 PUSH1 0x40 MLOAD DUP4 PUSH4 0xFFFFFFFF AND PUSH1 0xE0 SHL DUP2 MSTORE PUSH1 0x4 ADD PUSH2 0x1DC8 SWAP3 SWAP2 SWAP1 PUSH2 0x3B3E JUMP JUMPDEST PUSH1 0x20 PUSH1 0x40 MLOAD DUP1 DUP4 SUB DUP2 PUSH0 DUP8 GAS CALL ISZERO DUP1 ISZERO PUSH2 0x1DE4 JUMPI RETURNDATASIZE PUSH0 DUP1 RETURNDATACOPY RETURNDATASIZE PUSH0 REVERT JUMPDEST POP POP POP POP PUSH1 0x40 MLOAD RETURNDATASIZE PUSH1 0x1F NOT PUSH1 0x1F DUP3 ADD AND DUP3 ADD DUP1 PUSH1 0x40 MSTORE POP DUP2 ADD SWAP1 PUSH2 0x1E08 SWAP2 SWAP1 PUSH2 0x3B8F JUMP JUMPDEST SWAP1 POP DUP1 PUSH2 0x1E4A JUMPI PUSH1 0x40 MLOAD PUSH32 0x8C379A000000000000000000000000000000000000000000000000000000000 DUP2 MSTORE PUSH1 0x4 ADD PUSH2 0x1E41 SWAP1 PUSH2 0x3C04 JUMP JUMPDEST PUSH1 0x40 MLOAD DUP1 SWAP2 SUB SWAP1 REVERT JUMPDEST PUSH32 0x4D21AF759C8D2F25C6246594B4CFC2EDEB2B901BC0C6E87F5E21C212A12CA1FD PUSH2 0x1E73 PUSH2 0x262E JUMP JUMPDEST DUP4 DUP6 DUP9 PUSH1 0x40 MLOAD PUSH2 0x1E86 SWAP5 SWAP4 SWAP3 SWAP2 SWAP1 PUSH2 0x3C22 JUMP JUMPDEST PUSH1 0x40 MLOAD DUP1 SWAP2 SUB SWAP1 LOG1 POP POP POP POP POP JUMP JUMPDEST PUSH0 DUP2 EQ ISZERO DUP1 PUSH2 0x1EA5 JUMPI POP PUSH1 0x1 DUP2 EQ ISZERO JUMPDEST ISZERO PUSH2 0x1EE7 JUMPI DUP1 PUSH1 0x40 MLOAD PUSH32 0xD7ACBE8900000000000000000000000000000000000000000000000000000000 DUP2 MSTORE PUSH1 0x4 ADD PUSH2 0x1EDE SWAP2 SWAP1 PUSH2 0x386B JUMP JUMPDEST PUSH1 0x40 MLOAD DUP1 SWAP2 SUB SWAP1 REVERT JUMPDEST PUSH0 DUP3 GT PUSH2 0x1F2B JUMPI DUP2 PUSH1 0x40 MLOAD PUSH32 0x2FF4783000000000000000000000000000000000000000000000000000000000 DUP2 MSTORE PUSH1 0x4 ADD PUSH2 0x1F22 SWAP2 SWAP1 PUSH2 0x386B JUMP JUMPDEST PUSH1 0x40 MLOAD DUP1 SWAP2 SUB SWAP1 REVERT JUMPDEST PUSH1 0x5 PUSH0 ADDRESS PUSH20 0xFFFFFFFFFFFFFFFFFFFFFFFFFFFFFFFFFFFFFFFF AND PUSH20 0xFFFFFFFFFFFFFFFFFFFFFFFFFFFFFFFFFFFFFFFF AND DUP2 MSTORE PUSH1 0x20 ADD SWAP1 DUP2 MSTORE PUSH1 0x20 ADD PUSH0 KECCAK256 PUSH0 ADD PUSH0 SWAP1 SLOAD SWAP1 PUSH2 0x100 EXP SWAP1 DIV PUSH1 0xFF AND ISZERO PUSH2 0x1FAE JUMPI PUSH1 0x40 MLOAD PUSH32 0x853FD42100000000000000000000000000000000000000000000000000000000 DUP2 MSTORE PUSH1 0x4 ADD PUSH1 0x40 MLOAD DUP1 SWAP2 SUB SWAP1 REVERT JUMPDEST PUSH1 0x4 PUSH0 CALLER PUSH20 0xFFFFFFFFFFFFFFFFFFFFFFFFFFFFFFFFFFFFFFFF AND PUSH20 0xFFFFFFFFFFFFFFFFFFFFFFFFFFFFFFFFFFFFFFFF AND DUP2 MSTORE PUSH1 0x20 ADD SWAP1 DUP2 MSTORE PUSH1 0x20 ADD PUSH0 KECCAK256 PUSH1 0x5 ADD PUSH0 DUP3 DUP2 MSTORE PUSH1 0x20 ADD SWAP1 DUP2 MSTORE PUSH1 0x20 ADD PUSH0 KECCAK256 PUSH0 SWAP1 SLOAD SWAP1 PUSH2 0x100 EXP SWAP1 DIV PUSH1 0xFF AND PUSH2 0x2077 JUMPI CALLER PUSH1 0x3 PUSH0 PUSH1 0x2 SLOAD DUP2 MSTORE PUSH1 0x20 ADD SWAP1 DUP2 MSTORE PUSH1 0x20 ADD PUSH0 KECCAK256 PUSH0 PUSH2 0x100 EXP DUP2 SLOAD DUP2 PUSH20 0xFFFFFFFFFFFFFFFFFFFFFFFFFFFFFFFFFFFFFFFF MUL NOT AND SWAP1 DUP4 PUSH20 0xFFFFFFFFFFFFFFFFFFFFFFFFFFFFFFFFFFFFFFFF AND MUL OR SWAP1 SSTORE POP PUSH1 0x2 PUSH0 DUP2 SLOAD DUP1 SWAP3 SWAP2 SWAP1 PUSH2 0x2071 SWAP1 PUSH2 0x3AC4 JUMP JUMPDEST SWAP2 SWAP1 POP SSTORE POP JUMPDEST PUSH0 DUP2 SUB PUSH2 0x212E JUMPI PUSH1 0x5 PUSH0 ADDRESS PUSH20 0xFFFFFFFFFFFFFFFFFFFFFFFFFFFFFFFFFFFFFFFF AND PUSH20 0xFFFFFFFFFFFFFFFFFFFFFFFFFFFFFFFFFFFFFFFF AND DUP2 MSTORE PUSH1 0x20 ADD SWAP1 DUP2 MSTORE PUSH1 0x20 ADD PUSH0 KECCAK256 PUSH1 0x7 ADD PUSH0 DUP2 SLOAD DUP1 SWAP3 SWAP2 SWAP1 PUSH2 0x20CE SWAP1 PUSH2 0x3AC4 JUMP JUMPDEST SWAP2 SWAP1 POP SSTORE POP DUP2 PUSH1 0x4 PUSH0 CALLER PUSH20 0xFFFFFFFFFFFFFFFFFFFFFFFFFFFFFFFFFFFFFFFF AND PUSH20 0xFFFFFFFFFFFFFFFFFFFFFFFFFFFFFFFFFFFFFFFF AND DUP2 MSTORE PUSH1 0x20 ADD SWAP1 DUP2 MSTORE PUSH1 0x20 ADD PUSH0 KECCAK256 PUSH1 0x1 ADD PUSH0 DUP3 DUP3 SLOAD PUSH2 0x2122 SWAP2 SWAP1 PUSH2 0x397B JUMP JUMPDEST SWAP3 POP POP DUP2 SWAP1 SSTORE POP PUSH2 0x21DA JUMP JUMPDEST PUSH1 0x5 PUSH0 ADDRESS PUSH20 0xFFFFFFFFFFFFFFFFFFFFFFFFFFFFFFFFFFFFFFFF AND PUSH20 0xFFFFFFFFFFFFFFFFFFFFFFFFFFFFFFFFFFFFFFFF AND DUP2 MSTORE PUSH1 0x20 ADD SWAP1 DUP2 MSTORE PUSH1 0x20 ADD PUSH0 KECCAK256 PUSH1 0x6 ADD PUSH0 DUP2 SLOAD DUP1 SWAP3 SWAP2 SWAP1 PUSH2 0x217E SWAP1 PUSH2 0x3AC4 JUMP JUMPDEST SWAP2 SWAP1 POP SSTORE POP DUP2 PUSH1 0x4 PUSH0 CALLER PUSH20 0xFFFFFFFFFFFFFFFFFFFFFFFFFFFFFFFFFFFFFFFF AND PUSH20 0xFFFFFFFFFFFFFFFFFFFFFFFFFFFFFFFFFFFFFFFF AND DUP2 MSTORE PUSH1 0x20 ADD SWAP1 DUP2 MSTORE PUSH1 0x20 ADD PUSH0 KECCAK256 PUSH1 0x3 ADD PUSH0 DUP3 DUP3 SLOAD PUSH2 0x21D2 SWAP2 SWAP1 PUSH2 0x397B JUMP JUMPDEST SWAP3 POP POP DUP2 SWAP1 SSTORE POP JUMPDEST DUP2 PUSH1 0x5 PUSH0 ADDRESS PUSH20 0xFFFFFFFFFFFFFFFFFFFFFFFFFFFFFFFFFFFFFFFF AND PUSH20 0xFFFFFFFFFFFFFFFFFFFFFFFFFFFFFFFFFFFFFFFF AND DUP2 MSTORE PUSH1 0x20 ADD SWAP1 DUP2 MSTORE PUSH1 0x20 ADD PUSH0 KECCAK256 PUSH1 0x3 ADD PUSH0 DUP3 DUP3 SLOAD PUSH2 0x2229 SWAP2 SWAP1 PUSH2 0x397B JUMP JUMPDEST SWAP3 POP POP DUP2 SWAP1 SSTORE POP PUSH1 0x5 PUSH0 ADDRESS PUSH20 0xFFFFFFFFFFFFFFFFFFFFFFFFFFFFFFFFFFFFFFFF AND PUSH20 0xFFFFFFFFFFFFFFFFFFFFFFFFFFFFFFFFFFFFFFFF AND DUP2 MSTORE PUSH1 0x20 ADD SWAP1 DUP2 MSTORE PUSH1 0x20 ADD PUSH0 KECCAK256 PUSH1 0x2 ADD PUSH0 DUP2 SLOAD DUP1 SWAP3 SWAP2 SWAP1 PUSH2 0x2280 SWAP1 PUSH2 0x3AC4 JUMP JUMPDEST SWAP2 SWAP1 POP SSTORE POP PUSH1 0x1 PUSH1 0x4 PUSH0 CALLER PUSH20 0xFFFFFFFFFFFFFFFFFFFFFFFFFFFFFFFFFFFFFFFF AND PUSH20 0xFFFFFFFFFFFFFFFFFFFFFFFFFFFFFFFFFFFFFFFF AND DUP2 MSTORE PUSH1 0x20 ADD SWAP1 DUP2 MSTORE PUSH1 0x20 ADD PUSH0 KECCAK256 PUSH1 0x5 ADD PUSH0 DUP4 DUP2 MSTORE PUSH1 0x20 ADD SWAP1 DUP2 MSTORE PUSH1 0x20 ADD PUSH0 KECCAK256 PUSH0 PUSH2 0x100 EXP DUP2 SLOAD DUP2 PUSH1 0xFF MUL NOT AND SWAP1 DUP4 ISZERO ISZERO MUL OR SWAP1 SSTORE POP PUSH2 0x2376 PUSH1 0x5 PUSH0 ADDRESS PUSH20 0xFFFFFFFFFFFFFFFFFFFFFFFFFFFFFFFFFFFFFFFF AND PUSH20 0xFFFFFFFFFFFFFFFFFFFFFFFFFFFFFFFFFFFFFFFF AND DUP2 MSTORE PUSH1 0x20 ADD SWAP1 DUP2 MSTORE PUSH1 0x20 ADD PUSH0 KECCAK256 PUSH1 0x7 ADD SLOAD PUSH1 0x5 PUSH0 ADDRESS PUSH20 0xFFFFFFFFFFFFFFFFFFFFFFFFFFFFFFFFFFFFFFFF AND PUSH20 0xFFFFFFFFFFFFFFFFFFFFFFFFFFFFFFFFFFFFFFFF AND DUP2 MSTORE PUSH1 0x20 ADD SWAP1 DUP2 MSTORE PUSH1 0x20 ADD PUSH0 KECCAK256 PUSH1 0x6 ADD SLOAD PUSH2 0x615 JUMP JUMPDEST PUSH1 0x5 PUSH0 ADDRESS PUSH20 0xFFFFFFFFFFFFFFFFFFFFFFFFFFFFFFFFFFFFFFFF AND PUSH20 0xFFFFFFFFFFFFFFFFFFFFFFFFFFFFFFFFFFFFFFFF AND DUP2 MSTORE PUSH1 0x20 ADD SWAP1 DUP2 MSTORE PUSH1 0x20 ADD PUSH0 KECCAK256 PUSH1 0x4 ADD PUSH0 PUSH1 0x2 DUP2 LT PUSH2 0x23C8 JUMPI PUSH2 0x23C7 PUSH2 0x3921 JUMP JUMPDEST JUMPDEST ADD PUSH0 PUSH1 0x5 PUSH0 ADDRESS PUSH20 0xFFFFFFFFFFFFFFFFFFFFFFFFFFFFFFFFFFFFFFFF AND PUSH20 0xFFFFFFFFFFFFFFFFFFFFFFFFFFFFFFFFFFFFFFFF AND DUP2 MSTORE PUSH1 0x20 ADD SWAP1 DUP2 MSTORE PUSH1 0x20 ADD PUSH0 KECCAK256 PUSH1 0x4 ADD PUSH1 0x1 PUSH1 0x2 DUP2 LT PUSH2 0x241D JUMPI PUSH2 0x241C PUSH2 0x3921 JUMP JUMPDEST JUMPDEST ADD PUSH0 DUP5 SWAP2 SWAP1 POP SSTORE DUP4 SWAP2 SWAP1 POP SSTORE POP POP PUSH0 PUSH1 0x1 PUSH0 SWAP1 SLOAD SWAP1 PUSH2 0x100 EXP SWAP1 DIV PUSH20 0xFFFFFFFFFFFFFFFFFFFFFFFFFFFFFFFFFFFFFFFF AND PUSH20 0xFFFFFFFFFFFFFFFFFFFFFFFFFFFFFFFFFFFFFFFF AND PUSH4 0x23B872DD CALLER ADDRESS DUP7 PUSH1 0x40 MLOAD DUP5 PUSH4 0xFFFFFFFF AND PUSH1 0xE0 SHL DUP2 MSTORE PUSH1 0x4 ADD PUSH2 0x248A SWAP4 SWAP3 SWAP2 SWAP1 PUSH2 0x3C65 JUMP JUMPDEST PUSH1 0x20 PUSH1 0x40 MLOAD DUP1 DUP4 SUB DUP2 PUSH0 DUP8 GAS CALL ISZERO DUP1 ISZERO PUSH2 0x24A6 JUMPI RETURNDATASIZE PUSH0 DUP1 RETURNDATACOPY RETURNDATASIZE PUSH0 REVERT JUMPDEST POP POP POP POP PUSH1 0x40 MLOAD RETURNDATASIZE PUSH1 0x1F NOT PUSH1 0x1F DUP3 ADD AND DUP3 ADD DUP1 PUSH1 0x40 MSTORE POP DUP2 ADD SWAP1 PUSH2 0x24CA SWAP2 SWAP1 PUSH2 0x3B8F JUMP JUMPDEST SWAP1 POP DUP1 PUSH2 0x250C JUMPI PUSH1 0x40 MLOAD PUSH32 0x8C379A000000000000000000000000000000000000000000000000000000000 DUP2 MSTORE PUSH1 0x4 ADD PUSH2 0x2503 SWAP1 PUSH2 0x3C04 JUMP JUMPDEST PUSH1 0x40 MLOAD DUP1 SWAP2 SUB SWAP1 REVERT JUMPDEST DUP3 CALLER PUSH20 0xFFFFFFFFFFFFFFFFFFFFFFFFFFFFFFFFFFFFFFFF AND PUSH32 0xF41B7910E085D0992D604FD470931728FD77CC8EB504D99E50E51A0A30FCFD1A DUP5 PUSH1 0x40 MLOAD PUSH2 0x2553 SWAP2 SWAP1 PUSH2 0x386B JUMP JUMPDEST PUSH1 0x40 MLOAD DUP1 SWAP2 SUB SWAP1 LOG3 POP POP POP JUMP JUMPDEST PUSH2 0x2568 PUSH2 0x3347 JUMP JUMPDEST PUSH2 0x2571 PUSH0 PUSH2 0x33CE JUMP JUMPDEST JUMP JUMPDEST PUSH0 DUP1 DUP4 GT PUSH2 0x25B6 JUMPI PUSH1 0x40 MLOAD PUSH32 0x8C379A000000000000000000000000000000000000000000000000000000000 DUP2 MSTORE PUSH1 0x4 ADD PUSH2 0x25AD SWAP1 PUSH2 0x3CE4 JUMP JUMPDEST PUSH1 0x40 MLOAD DUP1 SWAP2 SUB SWAP1 REVERT JUMPDEST PUSH0 PUSH1 0x64 PUSH1 0x5 PUSH0 ADDRESS PUSH20 0xFFFFFFFFFFFFFFFFFFFFFFFFFFFFFFFFFFFFFFFF AND PUSH20 0xFFFFFFFFFFFFFFFFFFFFFFFFFFFFFFFFFFFFFFFF AND DUP2 MSTORE PUSH1 0x20 ADD SWAP1 DUP2 MSTORE PUSH1 0x20 ADD PUSH0 KECCAK256 PUSH1 0x4 ADD DUP5 PUSH1 0x2 DUP2 LT PUSH2 0x260B JUMPI PUSH2 0x260A PUSH2 0x3921 JUMP JUMPDEST JUMPDEST ADD SLOAD DUP6 PUSH2 0x2618 SWAP2 SWAP1 PUSH2 0x39AE JUMP JUMPDEST PUSH2 0x2622 SWAP2 SWAP1 PUSH2 0x3A1C JUMP JUMPDEST SWAP1 POP DUP1 SWAP2 POP POP SWAP3 SWAP2 POP POP JUMP JUMPDEST PUSH0 DUP1 PUSH0 SWAP1 SLOAD SWAP1 PUSH2 0x100 EXP SWAP1 DIV PUSH20 0xFFFFFFFFFFFFFFFFFFFFFFFFFFFFFFFFFFFFFFFF AND SWAP1 POP SWAP1 JUMP JUMPDEST PUSH0 DUP1 PUSH0 DUP1 PUSH0 PUSH1 0x4 PUSH0 DUP8 PUSH20 0xFFFFFFFFFFFFFFFFFFFFFFFFFFFFFFFFFFFFFFFF AND PUSH20 0xFFFFFFFFFFFFFFFFFFFFFFFFFFFFFFFFFFFFFFFF AND DUP2 MSTORE PUSH1 0x20 ADD SWAP1 DUP2 MSTORE PUSH1 0x20 ADD PUSH0 KECCAK256 PUSH0 ADD SLOAD PUSH1 0x4 PUSH0 DUP9 PUSH20 0xFFFFFFFFFFFFFFFFFFFFFFFFFFFFFFFFFFFFFFFF AND PUSH20 0xFFFFFFFFFFFFFFFFFFFFFFFFFFFFFFFFFFFFFFFF AND DUP2 MSTORE PUSH1 0x20 ADD SWAP1 DUP2 MSTORE PUSH1 0x20 ADD PUSH0 KECCAK256 PUSH1 0x1 ADD SLOAD PUSH1 0x4 PUSH0 DUP10 PUSH20 0xFFFFFFFFFFFFFFFFFFFFFFFFFFFFFFFFFFFFFFFF AND PUSH20 0xFFFFFFFFFFFFFFFFFFFFFFFFFFFFFFFFFFFFFFFF AND DUP2 MSTORE PUSH1 0x20 ADD SWAP1 DUP2 MSTORE PUSH1 0x20 ADD PUSH0 KECCAK256 PUSH1 0x2 ADD SLOAD PUSH1 0x4 PUSH0 DUP11 PUSH20 0xFFFFFFFFFFFFFFFFFFFFFFFFFFFFFFFFFFFFFFFF AND PUSH20 0xFFFFFFFFFFFFFFFFFFFFFFFFFFFFFFFFFFFFFFFF AND DUP2 MSTORE PUSH1 0x20 ADD SWAP1 DUP2 MSTORE PUSH1 0x20 ADD PUSH0 KECCAK256 PUSH1 0x3 ADD SLOAD PUSH1 0x4 PUSH0 DUP12 PUSH20 0xFFFFFFFFFFFFFFFFFFFFFFFFFFFFFFFFFFFFFFFF AND PUSH20 0xFFFFFFFFFFFFFFFFFFFFFFFFFFFFFFFFFFFFFFFF AND DUP2 MSTORE PUSH1 0x20 ADD SWAP1 DUP2 MSTORE PUSH1 0x20 ADD PUSH0 KECCAK256 PUSH1 0x4 ADD SLOAD SWAP5 POP SWAP5 POP SWAP5 POP SWAP5 POP SWAP5 POP SWAP2 SWAP4 SWAP6 SWAP1 SWAP3 SWAP5 POP JUMP JUMPDEST PUSH0 DUP1 PUSH1 0x5 PUSH0 ADDRESS PUSH20 0xFFFFFFFFFFFFFFFFFFFFFFFFFFFFFFFFFFFFFFFF AND PUSH20 0xFFFFFFFFFFFFFFFFFFFFFFFFFFFFFFFFFFFFFFFF AND DUP2 MSTORE PUSH1 0x20 ADD SWAP1 DUP2 MSTORE PUSH1 0x20 ADD PUSH0 KECCAK256 PUSH1 0x4 ADD DUP4 PUSH1 0x2 DUP2 LT PUSH2 0x2805 JUMPI PUSH2 0x2804 PUSH2 0x3921 JUMP JUMPDEST JUMPDEST ADD SLOAD SWAP1 POP PUSH0 DUP2 SUB PUSH2 0x284B JUMPI PUSH1 0x40 MLOAD PUSH32 0x8C379A000000000000000000000000000000000000000000000000000000000 DUP2 MSTORE PUSH1 0x4 ADD PUSH2 0x2842 SWAP1 PUSH2 0x3D4C JUMP JUMPDEST PUSH1 0x40 MLOAD DUP1 SWAP2 SUB SWAP1 REVERT JUMPDEST PUSH0 DUP2 PUSH1 0x64 DUP7 PUSH2 0x285A SWAP2 SWAP1 PUSH2 0x39AE JUMP JUMPDEST PUSH2 0x2864 SWAP2 SWAP1 PUSH2 0x3A1C JUMP JUMPDEST SWAP1 POP DUP1 SWAP3 POP POP POP SWAP3 SWAP2 POP POP JUMP JUMPDEST PUSH1 0x2 SLOAD DUP2 JUMP JUMPDEST PUSH1 0x5 PUSH1 0x20 MSTORE DUP1 PUSH0 MSTORE PUSH1 0x40 PUSH0 KECCAK256 PUSH0 SWAP2 POP SWAP1 POP DUP1 PUSH0 ADD PUSH0 SWAP1 SLOAD SWAP1 PUSH2 0x100 EXP SWAP1 DIV PUSH1 0xFF AND SWAP1 DUP1 PUSH1 0x1 ADD SLOAD SWAP1 DUP1 PUSH1 0x2 ADD SLOAD SWAP1 DUP1 PUSH1 0x3 ADD SLOAD SWAP1 DUP1 PUSH1 0x6 ADD SLOAD SWAP1 DUP1 PUSH1 0x7 ADD SLOAD SWAP1 POP DUP7 JUMP JUMPDEST PUSH2 0x28C3 PUSH2 0x3347 JUMP JUMPDEST PUSH0 PUSH20 0xFFFFFFFFFFFFFFFFFFFFFFFFFFFFFFFFFFFFFFFF AND DUP2 PUSH20 0xFFFFFFFFFFFFFFFFFFFFFFFFFFFFFFFFFFFFFFFF AND SUB PUSH2 0x2933 JUMPI PUSH0 PUSH1 0x40 MLOAD PUSH32 0x1E4FBDF700000000000000000000000000000000000000000000000000000000 DUP2 MSTORE PUSH1 0x4 ADD PUSH2 0x292A SWAP2 SWAP1 PUSH2 0x3537 JUMP JUMPDEST PUSH1 0x40 MLOAD DUP1 SWAP2 SUB SWAP1 REVERT JUMPDEST PUSH2 0x293C DUP2 PUSH2 0x33CE JUMP JUMPDEST POP JUMP JUMPDEST PUSH1 0x6 PUSH0 DUP3 PUSH20 0xFFFFFFFFFFFFFFFFFFFFFFFFFFFFFFFFFFFFFFFF AND PUSH20 0xFFFFFFFFFFFFFFFFFFFFFFFFFFFFFFFFFFFFFFFF AND DUP2 MSTORE PUSH1 0x20 ADD SWAP1 DUP2 MSTORE PUSH1 0x20 ADD PUSH0 KECCAK256 PUSH0 DUP4 DUP2 MSTORE PUSH1 0x20 ADD SWAP1 DUP2 MSTORE PUSH1 0x20 ADD PUSH0 KECCAK256 PUSH0 ADD PUSH0 SWAP1 SLOAD SWAP1 PUSH2 0x100 EXP SWAP1 DIV PUSH1 0xFF AND PUSH2 0x29DB JUMPI DUP2 PUSH1 0x40 MLOAD PUSH32 0x1599706800000000000000000000000000000000000000000000000000000000 DUP2 MSTORE PUSH1 0x4 ADD PUSH2 0x29D2 SWAP2 SWAP1 PUSH2 0x386B JUMP JUMPDEST PUSH1 0x40 MLOAD DUP1 SWAP2 SUB SWAP1 REVERT JUMPDEST PUSH1 0x6 PUSH0 DUP3 PUSH20 0xFFFFFFFFFFFFFFFFFFFFFFFFFFFFFFFFFFFFFFFF AND PUSH20 0xFFFFFFFFFFFFFFFFFFFFFFFFFFFFFFFFFFFFFFFF AND DUP2 MSTORE PUSH1 0x20 ADD SWAP1 DUP2 MSTORE PUSH1 0x20 ADD PUSH0 KECCAK256 PUSH0 DUP4 DUP2 MSTORE PUSH1 0x20 ADD SWAP1 DUP2 MSTORE PUSH1 0x20 ADD PUSH0 KECCAK256 PUSH0 ADD PUSH1 0x1 SWAP1 SLOAD SWAP1 PUSH2 0x100 EXP SWAP1 DIV PUSH1 0xFF AND ISZERO PUSH2 0x2AD4 JUMPI PUSH1 0x6 PUSH0 DUP3 PUSH20 0xFFFFFFFFFFFFFFFFFFFFFFFFFFFFFFFFFFFFFFFF AND PUSH20 0xFFFFFFFFFFFFFFFFFFFFFFFFFFFFFFFFFFFFFFFF AND DUP2 MSTORE PUSH1 0x20 ADD SWAP1 DUP2 MSTORE PUSH1 0x20 ADD PUSH0 KECCAK256 PUSH0 DUP4 DUP2 MSTORE PUSH1 0x20 ADD SWAP1 DUP2 MSTORE PUSH1 0x20 ADD PUSH0 KECCAK256 PUSH0 ADD PUSH1 0x1 SWAP1 SLOAD SWAP1 PUSH2 0x100 EXP SWAP1 DIV PUSH1 0xFF AND PUSH1 0x40 MLOAD PUSH32 0xCA1C6EB300000000000000000000000000000000000000000000000000000000 DUP2 MSTORE PUSH1 0x4 ADD PUSH2 0x2ACB SWAP2 SWAP1 PUSH2 0x35D2 JUMP JUMPDEST PUSH1 0x40 MLOAD DUP1 SWAP2 SUB SWAP1 REVERT JUMPDEST PUSH1 0x5 PUSH0 ADDRESS PUSH20 0xFFFFFFFFFFFFFFFFFFFFFFFFFFFFFFFFFFFFFFFF AND PUSH20 0xFFFFFFFFFFFFFFFFFFFFFFFFFFFFFFFFFFFFFFFF AND DUP2 MSTORE PUSH1 0x20 ADD SWAP1 DUP2 MSTORE PUSH1 0x20 ADD PUSH0 KECCAK256 PUSH0 ADD PUSH0 SWAP1 SLOAD SWAP1 PUSH2 0x100 EXP SWAP1 DIV PUSH1 0xFF AND ISZERO PUSH2 0x2B57 JUMPI PUSH1 0x40 MLOAD PUSH32 0x853FD42100000000000000000000000000000000000000000000000000000000 DUP2 MSTORE PUSH1 0x4 ADD PUSH1 0x40 MLOAD DUP1 SWAP2 SUB SWAP1 REVERT JUMPDEST DUP1 PUSH20 0xFFFFFFFFFFFFFFFFFFFFFFFFFFFFFFFFFFFFFFFF AND PUSH1 0x6 PUSH0 DUP4 PUSH20 0xFFFFFFFFFFFFFFFFFFFFFFFFFFFFFFFFFFFFFFFF AND PUSH20 0xFFFFFFFFFFFFFFFFFFFFFFFFFFFFFFFFFFFFFFFF AND DUP2 MSTORE PUSH1 0x20 ADD SWAP1 DUP2 MSTORE PUSH1 0x20 ADD PUSH0 KECCAK256 PUSH0 DUP5 DUP2 MSTORE PUSH1 0x20 ADD SWAP1 DUP2 MSTORE PUSH1 0x20 ADD PUSH0 KECCAK256 PUSH0 ADD PUSH1 0x2 SWAP1 SLOAD SWAP1 PUSH2 0x100 EXP SWAP1 DIV PUSH20 0xFFFFFFFFFFFFFFFFFFFFFFFFFFFFFFFFFFFFFFFF AND PUSH20 0xFFFFFFFFFFFFFFFFFFFFFFFFFFFFFFFFFFFFFFFF AND EQ PUSH2 0x2C35 JUMPI DUP1 PUSH1 0x40 MLOAD PUSH32 0xF6B79C5800000000000000000000000000000000000000000000000000000000 DUP2 MSTORE PUSH1 0x4 ADD PUSH2 0x2C2C SWAP2 SWAP1 PUSH2 0x3537 JUMP JUMPDEST PUSH1 0x40 MLOAD DUP1 SWAP2 SUB SWAP1 REVERT JUMPDEST PUSH1 0x1 PUSH1 0x6 PUSH0 DUP4 PUSH20 0xFFFFFFFFFFFFFFFFFFFFFFFFFFFFFFFFFFFFFFFF AND PUSH20 0xFFFFFFFFFFFFFFFFFFFFFFFFFFFFFFFFFFFFFFFF AND DUP2 MSTORE PUSH1 0x20 ADD SWAP1 DUP2 MSTORE PUSH1 0x20 ADD PUSH0 KECCAK256 PUSH0 DUP5 DUP2 MSTORE PUSH1 0x20 ADD SWAP1 DUP2 MSTORE PUSH1 0x20 ADD PUSH0 KECCAK256 PUSH0 ADD PUSH1 0x1 PUSH2 0x100 EXP DUP2 SLOAD DUP2 PUSH1 0xFF MUL NOT AND SWAP1 DUP4 ISZERO ISZERO MUL OR SWAP1 SSTORE POP CALLER PUSH1 0x6 PUSH0 DUP4 PUSH20 0xFFFFFFFFFFFFFFFFFFFFFFFFFFFFFFFFFFFFFFFF AND PUSH20 0xFFFFFFFFFFFFFFFFFFFFFFFFFFFFFFFFFFFFFFFF AND DUP2 MSTORE PUSH1 0x20 ADD SWAP1 DUP2 MSTORE PUSH1 0x20 ADD PUSH0 KECCAK256 PUSH0 DUP5 DUP2 MSTORE PUSH1 0x20 ADD SWAP1 DUP2 MSTORE PUSH1 0x20 ADD PUSH0 KECCAK256 PUSH0 ADD PUSH1 0x2 PUSH2 0x100 EXP DUP2 SLOAD DUP2 PUSH20 0xFFFFFFFFFFFFFFFFFFFFFFFFFFFFFFFFFFFFFFFF MUL NOT AND SWAP1 DUP4 PUSH20 0xFFFFFFFFFFFFFFFFFFFFFFFFFFFFFFFFFFFFFFFF AND MUL OR SWAP1 SSTORE POP PUSH0 PUSH1 0x6 PUSH0 DUP4 PUSH20 0xFFFFFFFFFFFFFFFFFFFFFFFFFFFFFFFFFFFFFFFF AND PUSH20 0xFFFFFFFFFFFFFFFFFFFFFFFFFFFFFFFFFFFFFFFF AND DUP2 MSTORE PUSH1 0x20 ADD SWAP1 DUP2 MSTORE PUSH1 0x20 ADD PUSH0 KECCAK256 PUSH0 DUP5 DUP2 MSTORE PUSH1 0x20 ADD SWAP1 DUP2 MSTORE PUSH1 0x20 ADD PUSH0 KECCAK256 PUSH1 0x3 ADD SLOAD SUB PUSH2 0x2ECE JUMPI PUSH1 0x6 PUSH0 DUP3 PUSH20 0xFFFFFFFFFFFFFFFFFFFFFFFFFFFFFFFFFFFFFFFF AND PUSH20 0xFFFFFFFFFFFFFFFFFFFFFFFFFFFFFFFFFFFFFFFF AND DUP2 MSTORE PUSH1 0x20 ADD SWAP1 DUP2 MSTORE PUSH1 0x20 ADD PUSH0 KECCAK256 PUSH0 DUP4 DUP2 MSTORE PUSH1 0x20 ADD SWAP1 DUP2 MSTORE PUSH1 0x20 ADD PUSH0 KECCAK256 PUSH1 0x2 ADD SLOAD PUSH1 0x4 PUSH0 CALLER PUSH20 0xFFFFFFFFFFFFFFFFFFFFFFFFFFFFFFFFFFFFFFFF AND PUSH20 0xFFFFFFFFFFFFFFFFFFFFFFFFFFFFFFFFFFFFFFFF AND DUP2 MSTORE PUSH1 0x20 ADD SWAP1 DUP2 MSTORE PUSH1 0x20 ADD PUSH0 KECCAK256 PUSH1 0x1 ADD PUSH0 DUP3 DUP3 SLOAD PUSH2 0x2E1D SWAP2 SWAP1 PUSH2 0x397B JUMP JUMPDEST SWAP3 POP POP DUP2 SWAP1 SSTORE POP PUSH1 0x6 PUSH0 DUP3 PUSH20 0xFFFFFFFFFFFFFFFFFFFFFFFFFFFFFFFFFFFFFFFF AND PUSH20 0xFFFFFFFFFFFFFFFFFFFFFFFFFFFFFFFFFFFFFFFF AND DUP2 MSTORE PUSH1 0x20 ADD SWAP1 DUP2 MSTORE PUSH1 0x20 ADD PUSH0 KECCAK256 PUSH0 DUP4 DUP2 MSTORE PUSH1 0x20 ADD SWAP1 DUP2 MSTORE PUSH1 0x20 ADD PUSH0 KECCAK256 PUSH1 0x2 ADD SLOAD PUSH1 0x4 PUSH0 DUP4 PUSH20 0xFFFFFFFFFFFFFFFFFFFFFFFFFFFFFFFFFFFFFFFF AND PUSH20 0xFFFFFFFFFFFFFFFFFFFFFFFFFFFFFFFFFFFFFFFF AND DUP2 MSTORE PUSH1 0x20 ADD SWAP1 DUP2 MSTORE PUSH1 0x20 ADD PUSH0 KECCAK256 PUSH1 0x1 ADD PUSH0 DUP3 DUP3 SLOAD PUSH2 0x2EC2 SWAP2 SWAP1 PUSH2 0x3B0B JUMP JUMPDEST SWAP3 POP POP DUP2 SWAP1 SSTORE POP PUSH2 0x3019 JUMP JUMPDEST PUSH1 0x6 PUSH0 DUP3 PUSH20 0xFFFFFFFFFFFFFFFFFFFFFFFFFFFFFFFFFFFFFFFF AND PUSH20 0xFFFFFFFFFFFFFFFFFFFFFFFFFFFFFFFFFFFFFFFF AND DUP2 MSTORE PUSH1 0x20 ADD SWAP1 DUP2 MSTORE PUSH1 0x20 ADD PUSH0 KECCAK256 PUSH0 DUP4 DUP2 MSTORE PUSH1 0x20 ADD SWAP1 DUP2 MSTORE PUSH1 0x20 ADD PUSH0 KECCAK256 PUSH1 0x2 ADD SLOAD PUSH1 0x4 PUSH0 DUP4 PUSH20 0xFFFFFFFFFFFFFFFFFFFFFFFFFFFFFFFFFFFFFFFF AND PUSH20 0xFFFFFFFFFFFFFFFFFFFFFFFFFFFFFFFFFFFFFFFF AND DUP2 MSTORE PUSH1 0x20 ADD SWAP1 DUP2 MSTORE PUSH1 0x20 ADD PUSH0 KECCAK256 PUSH1 0x3 ADD PUSH0 DUP3 DUP3 SLOAD PUSH2 0x2F6C SWAP2 SWAP1 PUSH2 0x3B0B JUMP JUMPDEST SWAP3 POP POP DUP2 SWAP1 SSTORE POP PUSH1 0x6 PUSH0 DUP3 PUSH20 0xFFFFFFFFFFFFFFFFFFFFFFFFFFFFFFFFFFFFFFFF AND PUSH20 0xFFFFFFFFFFFFFFFFFFFFFFFFFFFFFFFFFFFFFFFF AND DUP2 MSTORE PUSH1 0x20 ADD SWAP1 DUP2 MSTORE PUSH1 0x20 ADD PUSH0 KECCAK256 PUSH0 DUP4 DUP2 MSTORE PUSH1 0x20 ADD SWAP1 DUP2 MSTORE PUSH1 0x20 ADD PUSH0 KECCAK256 PUSH1 0x2 ADD SLOAD PUSH1 0x4 PUSH0 CALLER PUSH20 0xFFFFFFFFFFFFFFFFFFFFFFFFFFFFFFFFFFFFFFFF AND PUSH20 0xFFFFFFFFFFFFFFFFFFFFFFFFFFFFFFFFFFFFFFFF AND DUP2 MSTORE PUSH1 0x20 ADD SWAP1 DUP2 MSTORE PUSH1 0x20 ADD PUSH0 KECCAK256 PUSH1 0x3 ADD PUSH0 DUP3 DUP3 SLOAD PUSH2 0x3011 SWAP2 SWAP1 PUSH2 0x397B JUMP JUMPDEST SWAP3 POP POP DUP2 SWAP1 SSTORE POP JUMPDEST PUSH1 0x1 PUSH1 0x4 PUSH0 CALLER PUSH20 0xFFFFFFFFFFFFFFFFFFFFFFFFFFFFFFFFFFFFFFFF AND PUSH20 0xFFFFFFFFFFFFFFFFFFFFFFFFFFFFFFFFFFFFFFFF AND DUP2 MSTORE PUSH1 0x20 ADD SWAP1 DUP2 MSTORE PUSH1 0x20 ADD PUSH0 KECCAK256 PUSH1 0x5 ADD PUSH0 PUSH1 0x6 PUSH0 DUP6 PUSH20 0xFFFFFFFFFFFFFFFFFFFFFFFFFFFFFFFFFFFFFFFF AND PUSH20 0xFFFFFFFFFFFFFFFFFFFFFFFFFFFFFFFFFFFFFFFF AND DUP2 MSTORE PUSH1 0x20 ADD SWAP1 DUP2 MSTORE PUSH1 0x20 ADD PUSH0 KECCAK256 PUSH0 DUP7 DUP2 MSTORE PUSH1 0x20 ADD SWAP1 DUP2 MSTORE PUSH1 0x20 ADD PUSH0 KECCAK256 PUSH1 0x3 ADD SLOAD DUP2 MSTORE PUSH1 0x20 ADD SWAP1 DUP2 MSTORE PUSH1 0x20 ADD PUSH0 KECCAK256 PUSH0 PUSH2 0x100 EXP DUP2 SLOAD DUP2 PUSH1 0xFF MUL NOT AND SWAP1 DUP4 ISZERO ISZERO MUL OR SWAP1 SSTORE POP CALLER PUSH1 0x3 PUSH0 PUSH1 0x2 SLOAD DUP2 MSTORE PUSH1 0x20 ADD SWAP1 DUP2 MSTORE PUSH1 0x20 ADD PUSH0 KECCAK256 PUSH0 PUSH2 0x100 EXP DUP2 SLOAD DUP2 PUSH20 0xFFFFFFFFFFFFFFFFFFFFFFFFFFFFFFFFFFFFFFFF MUL NOT AND SWAP1 DUP4 PUSH20 0xFFFFFFFFFFFFFFFFFFFFFFFFFFFFFFFFFFFFFFFF AND MUL OR SWAP1 SSTORE POP PUSH1 0x2 PUSH0 DUP2 SLOAD DUP1 SWAP3 SWAP2 SWAP1 PUSH2 0x3132 SWAP1 PUSH2 0x3AC4 JUMP JUMPDEST SWAP2 SWAP1 POP SSTORE POP PUSH0 PUSH1 0x1 PUSH0 SWAP1 SLOAD SWAP1 PUSH2 0x100 EXP SWAP1 DIV PUSH20 0xFFFFFFFFFFFFFFFFFFFFFFFFFFFFFFFFFFFFFFFF AND PUSH20 0xFFFFFFFFFFFFFFFFFFFFFFFFFFFFFFFFFFFFFFFF AND PUSH4 0x23B872DD CALLER DUP5 PUSH1 0x6 PUSH0 DUP8 PUSH20 0xFFFFFFFFFFFFFFFFFFFFFFFFFFFFFFFFFFFFFFFF AND PUSH20 0xFFFFFFFFFFFFFFFFFFFFFFFFFFFFFFFFFFFFFFFF AND DUP2 MSTORE PUSH1 0x20 ADD SWAP1 DUP2 MSTORE PUSH1 0x20 ADD PUSH0 KECCAK256 PUSH0 DUP9 DUP2 MSTORE PUSH1 0x20 ADD SWAP1 DUP2 MSTORE PUSH1 0x20 ADD PUSH0 KECCAK256 PUSH1 0x1 ADD SLOAD PUSH1 0x40 MLOAD DUP5 PUSH4 0xFFFFFFFF AND PUSH1 0xE0 SHL DUP2 MSTORE PUSH1 0x4 ADD PUSH2 0x31E5 SWAP4 SWAP3 SWAP2 SWAP1 PUSH2 0x3C65 JUMP JUMPDEST PUSH1 0x20 PUSH1 0x40 MLOAD DUP1 DUP4 SUB DUP2 PUSH0 DUP8 GAS CALL ISZERO DUP1 ISZERO PUSH2 0x3201 JUMPI RETURNDATASIZE PUSH0 DUP1 RETURNDATACOPY RETURNDATASIZE PUSH0 REVERT JUMPDEST POP POP POP POP PUSH1 0x40 MLOAD RETURNDATASIZE PUSH1 0x1F NOT PUSH1 0x1F DUP3 ADD AND DUP3 ADD DUP1 PUSH1 0x40 MSTORE POP DUP2 ADD SWAP1 PUSH2 0x3225 SWAP2 SWAP1 PUSH2 0x3B8F JUMP JUMPDEST SWAP1 POP DUP1 PUSH2 0x3267 JUMPI PUSH1 0x40 MLOAD PUSH32 0x8C379A000000000000000000000000000000000000000000000000000000000 DUP2 MSTORE PUSH1 0x4 ADD PUSH2 0x325E SWAP1 PUSH2 0x3C04 JUMP JUMPDEST PUSH1 0x40 MLOAD DUP1 SWAP2 SUB SWAP1 REVERT JUMPDEST PUSH32 0xC891ADF8DFBF643A02668E73C35BBBB3C8AA9D86E0DC779D260026CFC0AB8B99 CALLER DUP4 PUSH1 0x6 PUSH0 DUP7 PUSH20 0xFFFFFFFFFFFFFFFFFFFFFFFFFFFFFFFFFFFFFFFF AND PUSH20 0xFFFFFFFFFFFFFFFFFFFFFFFFFFFFFFFFFFFFFFFF AND DUP2 MSTORE PUSH1 0x20 ADD SWAP1 DUP2 MSTORE PUSH1 0x20 ADD PUSH0 KECCAK256 PUSH0 DUP8 DUP2 MSTORE PUSH1 0x20 ADD SWAP1 DUP2 MSTORE PUSH1 0x20 ADD PUSH0 KECCAK256 PUSH1 0x2 ADD SLOAD PUSH1 0x6 PUSH0 DUP8 PUSH20 0xFFFFFFFFFFFFFFFFFFFFFFFFFFFFFFFFFFFFFFFF AND PUSH20 0xFFFFFFFFFFFFFFFFFFFFFFFFFFFFFFFFFFFFFFFF AND DUP2 MSTORE PUSH1 0x20 ADD SWAP1 DUP2 MSTORE PUSH1 0x20 ADD PUSH0 KECCAK256 PUSH0 DUP9 DUP2 MSTORE PUSH1 0x20 ADD SWAP1 DUP2 MSTORE PUSH1 0x20 ADD PUSH0 KECCAK256 PUSH1 0x1 ADD SLOAD PUSH1 0x40 MLOAD PUSH2 0x333A SWAP5 SWAP4 SWAP3 SWAP2 SWAP1 PUSH2 0x3D6A JUMP JUMPDEST PUSH1 0x40 MLOAD DUP1 SWAP2 SUB SWAP1 LOG1 POP POP POP JUMP JUMPDEST PUSH2 0x334F PUSH2 0x348F JUMP JUMPDEST PUSH20 0xFFFFFFFFFFFFFFFFFFFFFFFFFFFFFFFFFFFFFFFF AND PUSH2 0x336D PUSH2 0x262E JUMP JUMPDEST PUSH20 0xFFFFFFFFFFFFFFFFFFFFFFFFFFFFFFFFFFFFFFFF AND EQ PUSH2 0x33CC JUMPI PUSH2 0x3390 PUSH2 0x348F JUMP JUMPDEST PUSH1 0x40 MLOAD PUSH32 0x118CDAA700000000000000000000000000000000000000000000000000000000 DUP2 MSTORE PUSH1 0x4 ADD PUSH2 0x33C3 SWAP2 SWAP1 PUSH2 0x3537 JUMP JUMPDEST PUSH1 0x40 MLOAD DUP1 SWAP2 SUB SWAP1 REVERT JUMPDEST JUMP JUMPDEST PUSH0 DUP1 PUSH0 SWAP1 SLOAD SWAP1 PUSH2 0x100 EXP SWAP1 DIV PUSH20 0xFFFFFFFFFFFFFFFFFFFFFFFFFFFFFFFFFFFFFFFF AND SWAP1 POP DUP2 PUSH0 DUP1 PUSH2 0x100 EXP DUP2 SLOAD DUP2 PUSH20 0xFFFFFFFFFFFFFFFFFFFFFFFFFFFFFFFFFFFFFFFF MUL NOT AND SWAP1 DUP4 PUSH20 0xFFFFFFFFFFFFFFFFFFFFFFFFFFFFFFFFFFFFFFFF AND MUL OR SWAP1 SSTORE POP DUP2 PUSH20 0xFFFFFFFFFFFFFFFFFFFFFFFFFFFFFFFFFFFFFFFF AND DUP2 PUSH20 0xFFFFFFFFFFFFFFFFFFFFFFFFFFFFFFFFFFFFFFFF AND PUSH32 0x8BE0079C531659141344CD1FD0A4F28419497F9722A3DAAFE3B4186F6B6457E0 PUSH1 0x40 MLOAD PUSH1 0x40 MLOAD DUP1 SWAP2 SUB SWAP1 LOG3 POP POP JUMP JUMPDEST PUSH0 CALLER SWAP1 POP SWAP1 JUMP JUMPDEST PUSH0 DUP1 REVERT JUMPDEST PUSH0 DUP2 SWAP1 POP SWAP2 SWAP1 POP JUMP JUMPDEST PUSH2 0x34AC DUP2 PUSH2 0x349A JUMP JUMPDEST DUP2 EQ PUSH2 0x34B6 JUMPI PUSH0 DUP1 REVERT JUMPDEST POP JUMP JUMPDEST PUSH0 DUP2 CALLDATALOAD SWAP1 POP PUSH2 0x34C7 DUP2 PUSH2 0x34A3 JUMP JUMPDEST SWAP3 SWAP2 POP POP JUMP JUMPDEST PUSH0 PUSH1 0x20 DUP3 DUP5 SUB SLT ISZERO PUSH2 0x34E2 JUMPI PUSH2 0x34E1 PUSH2 0x3496 JUMP JUMPDEST JUMPDEST PUSH0 PUSH2 0x34EF DUP5 DUP3 DUP6 ADD PUSH2 0x34B9 JUMP JUMPDEST SWAP2 POP POP SWAP3 SWAP2 POP POP JUMP JUMPDEST PUSH0 PUSH20 0xFFFFFFFFFFFFFFFFFFFFFFFFFFFFFFFFFFFFFFFF DUP3 AND SWAP1 POP SWAP2 SWAP1 POP JUMP JUMPDEST PUSH0 PUSH2 0x3521 DUP3 PUSH2 0x34F8 JUMP JUMPDEST SWAP1 POP SWAP2 SWAP1 POP JUMP JUMPDEST PUSH2 0x3531 DUP2 PUSH2 0x3517 JUMP JUMPDEST DUP3 MSTORE POP POP JUMP JUMPDEST PUSH0 PUSH1 0x20 DUP3 ADD SWAP1 POP PUSH2 0x354A PUSH0 DUP4 ADD DUP5 PUSH2 0x3528 JUMP JUMPDEST SWAP3 SWAP2 POP POP JUMP JUMPDEST PUSH2 0x3559 DUP2 PUSH2 0x3517 JUMP JUMPDEST DUP2 EQ PUSH2 0x3563 JUMPI PUSH0 DUP1 REVERT JUMPDEST POP JUMP JUMPDEST PUSH0 DUP2 CALLDATALOAD SWAP1 POP PUSH2 0x3574 DUP2 PUSH2 0x3550 JUMP JUMPDEST SWAP3 SWAP2 POP POP JUMP JUMPDEST PUSH0 DUP1 PUSH1 0x40 DUP4 DUP6 SUB SLT ISZERO PUSH2 0x3590 JUMPI PUSH2 0x358F PUSH2 0x3496 JUMP JUMPDEST JUMPDEST PUSH0 PUSH2 0x359D DUP6 DUP3 DUP7 ADD PUSH2 0x3566 JUMP JUMPDEST SWAP3 POP POP PUSH1 0x20 PUSH2 0x35AE DUP6 DUP3 DUP7 ADD PUSH2 0x34B9 JUMP JUMPDEST SWAP2 POP POP SWAP3 POP SWAP3 SWAP1 POP JUMP JUMPDEST PUSH0 DUP2 ISZERO ISZERO SWAP1 POP SWAP2 SWAP1 POP JUMP JUMPDEST PUSH2 0x35CC DUP2 PUSH2 0x35B8 JUMP JUMPDEST DUP3 MSTORE POP POP JUMP JUMPDEST PUSH0 PUSH1 0x20 DUP3 ADD SWAP1 POP PUSH2 0x35E5 PUSH0 DUP4 ADD DUP5 PUSH2 0x35C3 JUMP JUMPDEST SWAP3 SWAP2 POP POP JUMP JUMPDEST PUSH0 DUP2 SWAP1 POP SWAP2 SWAP1 POP JUMP JUMPDEST PUSH0 PUSH2 0x360E PUSH2 0x3609 PUSH2 0x3604 DUP5 PUSH2 0x34F8 JUMP JUMPDEST PUSH2 0x35EB JUMP JUMPDEST PUSH2 0x34F8 JUMP JUMPDEST SWAP1 POP SWAP2 SWAP1 POP JUMP JUMPDEST PUSH0 PUSH2 0x361F DUP3 PUSH2 0x35F4 JUMP JUMPDEST SWAP1 POP SWAP2 SWAP1 POP JUMP JUMPDEST PUSH0 PUSH2 0x3630 DUP3 PUSH2 0x3615 JUMP JUMPDEST SWAP1 POP SWAP2 SWAP1 POP JUMP JUMPDEST PUSH2 0x3640 DUP2 PUSH2 0x3626 JUMP JUMPDEST DUP3 MSTORE POP POP JUMP JUMPDEST PUSH0 PUSH1 0x20 DUP3 ADD SWAP1 POP PUSH2 0x3659 PUSH0 DUP4 ADD DUP5 PUSH2 0x3637 JUMP JUMPDEST SWAP3 SWAP2 POP POP JUMP JUMPDEST PUSH0 PUSH1 0x20 DUP3 DUP5 SUB SLT ISZERO PUSH2 0x3674 JUMPI PUSH2 0x3673 PUSH2 0x3496 JUMP JUMPDEST JUMPDEST PUSH0 PUSH2 0x3681 DUP5 DUP3 DUP6 ADD PUSH2 0x3566 JUMP JUMPDEST SWAP2 POP POP SWAP3 SWAP2 POP POP JUMP JUMPDEST PUSH2 0x3693 DUP2 PUSH2 0x349A JUMP JUMPDEST DUP3 MSTORE POP POP JUMP JUMPDEST PUSH0 PUSH1 0xA0 DUP3 ADD SWAP1 POP PUSH2 0x36AC PUSH0 DUP4 ADD DUP9 PUSH2 0x368A JUMP JUMPDEST PUSH2 0x36B9 PUSH1 0x20 DUP4 ADD DUP8 PUSH2 0x368A JUMP JUMPDEST PUSH2 0x36C6 PUSH1 0x40 DUP4 ADD DUP7 PUSH2 0x368A JUMP JUMPDEST PUSH2 0x36D3 PUSH1 0x60 DUP4 ADD DUP6 PUSH2 0x368A JUMP JUMPDEST PUSH2 0x36E0 PUSH1 0x80 DUP4 ADD DUP5 PUSH2 0x368A JUMP JUMPDEST SWAP7 SWAP6 POP POP POP POP POP POP JUMP JUMPDEST PUSH0 PUSH1 0x40 DUP3 ADD SWAP1 POP PUSH2 0x36FD PUSH0 DUP4 ADD DUP6 PUSH2 0x368A JUMP JUMPDEST PUSH2 0x370A PUSH1 0x20 DUP4 ADD DUP5 PUSH2 0x368A JUMP JUMPDEST SWAP4 SWAP3 POP POP POP JUMP JUMPDEST PUSH0 DUP1 PUSH1 0x40 DUP4 DUP6 SUB SLT ISZERO PUSH2 0x3727 JUMPI PUSH2 0x3726 PUSH2 0x3496 JUMP JUMPDEST JUMPDEST PUSH0 PUSH2 0x3734 DUP6 DUP3 DUP7 ADD PUSH2 0x34B9 JUMP JUMPDEST SWAP3 POP POP PUSH1 0x20 PUSH2 0x3745 DUP6 DUP3 DUP7 ADD PUSH2 0x34B9 JUMP JUMPDEST SWAP2 POP POP SWAP3 POP SWAP3 SWAP1 POP JUMP JUMPDEST PUSH0 PUSH1 0xC0 DUP3 ADD SWAP1 POP PUSH2 0x3762 PUSH0 DUP4 ADD DUP10 PUSH2 0x35C3 JUMP JUMPDEST PUSH2 0x376F PUSH1 0x20 DUP4 ADD DUP9 PUSH2 0x35C3 JUMP JUMPDEST PUSH2 0x377C PUSH1 0x40 DUP4 ADD DUP8 PUSH2 0x3528 JUMP JUMPDEST PUSH2 0x3789 PUSH1 0x60 DUP4 ADD DUP7 PUSH2 0x368A JUMP JUMPDEST PUSH2 0x3796 PUSH1 0x80 DUP4 ADD DUP6 PUSH2 0x368A JUMP JUMPDEST PUSH2 0x37A3 PUSH1 0xA0 DUP4 ADD DUP5 PUSH2 0x368A JUMP JUMPDEST SWAP8 SWAP7 POP POP POP POP POP POP POP JUMP JUMPDEST PUSH0 DUP1 PUSH0 PUSH1 0x60 DUP5 DUP7 SUB SLT ISZERO PUSH2 0x37C5 JUMPI PUSH2 0x37C4 PUSH2 0x3496 JUMP JUMPDEST JUMPDEST PUSH0 PUSH2 0x37D2 DUP7 DUP3 DUP8 ADD PUSH2 0x34B9 JUMP JUMPDEST SWAP4 POP POP PUSH1 0x20 PUSH2 0x37E3 DUP7 DUP3 DUP8 ADD PUSH2 0x34B9 JUMP JUMPDEST SWAP3 POP POP PUSH1 0x40 PUSH2 0x37F4 DUP7 DUP3 DUP8 ADD PUSH2 0x34B9 JUMP JUMPDEST SWAP2 POP POP SWAP3 POP SWAP3 POP SWAP3 JUMP JUMPDEST PUSH0 PUSH1 0xE0 DUP3 ADD SWAP1 POP PUSH2 0x3811 PUSH0 DUP4 ADD DUP11 PUSH2 0x368A JUMP JUMPDEST PUSH2 0x381E PUSH1 0x20 DUP4 ADD DUP10 PUSH2 0x368A JUMP JUMPDEST PUSH2 0x382B PUSH1 0x40 DUP4 ADD DUP9 PUSH2 0x368A JUMP JUMPDEST PUSH2 0x3838 PUSH1 0x60 DUP4 ADD DUP8 PUSH2 0x368A JUMP JUMPDEST PUSH2 0x3845 PUSH1 0x80 DUP4 ADD DUP7 PUSH2 0x368A JUMP JUMPDEST PUSH2 0x3852 PUSH1 0xA0 DUP4 ADD DUP6 PUSH2 0x368A JUMP JUMPDEST PUSH2 0x385F PUSH1 0xC0 DUP4 ADD DUP5 PUSH2 0x368A JUMP JUMPDEST SWAP9 SWAP8 POP POP POP POP POP POP POP POP JUMP JUMPDEST PUSH0 PUSH1 0x20 DUP3 ADD SWAP1 POP PUSH2 0x387E PUSH0 DUP4 ADD DUP5 PUSH2 0x368A JUMP JUMPDEST SWAP3 SWAP2 POP POP JUMP JUMPDEST PUSH0 PUSH1 0xC0 DUP3 ADD SWAP1 POP PUSH2 0x3897 PUSH0 DUP4 ADD DUP10 PUSH2 0x35C3 JUMP JUMPDEST PUSH2 0x38A4 PUSH1 0x20 DUP4 ADD DUP9 PUSH2 0x368A JUMP JUMPDEST PUSH2 0x38B1 PUSH1 0x40 DUP4 ADD DUP8 PUSH2 0x368A JUMP JUMPDEST PUSH2 0x38BE PUSH1 0x60 DUP4 ADD DUP7 PUSH2 0x368A JUMP JUMPDEST PUSH2 0x38CB PUSH1 0x80 DUP4 ADD DUP6 PUSH2 0x368A JUMP JUMPDEST PUSH2 0x38D8 PUSH1 0xA0 DUP4 ADD DUP5 PUSH2 0x368A JUMP JUMPDEST SWAP8 SWAP7 POP POP POP POP POP POP POP JUMP JUMPDEST PUSH0 DUP1 PUSH1 0x40 DUP4 DUP6 SUB SLT ISZERO PUSH2 0x38F9 JUMPI PUSH2 0x38F8 PUSH2 0x3496 JUMP JUMPDEST JUMPDEST PUSH0 PUSH2 0x3906 DUP6 DUP3 DUP7 ADD PUSH2 0x34B9 JUMP JUMPDEST SWAP3 POP POP PUSH1 0x20 PUSH2 0x3917 DUP6 DUP3 DUP7 ADD PUSH2 0x3566 JUMP JUMPDEST SWAP2 POP POP SWAP3 POP SWAP3 SWAP1 POP JUMP JUMPDEST PUSH32 0x4E487B7100000000000000000000000000000000000000000000000000000000 PUSH0 MSTORE PUSH1 0x32 PUSH1 0x4 MSTORE PUSH1 0x24 PUSH0 REVERT JUMPDEST PUSH32 0x4E487B7100000000000000000000000000000000000000000000000000000000 PUSH0 MSTORE PUSH1 0x11 PUSH1 0x4 MSTORE PUSH1 0x24 PUSH0 REVERT JUMPDEST PUSH0 PUSH2 0x3985 DUP3 PUSH2 0x349A JUMP JUMPDEST SWAP2 POP PUSH2 0x3990 DUP4 PUSH2 0x349A JUMP JUMPDEST SWAP3 POP DUP3 DUP3 ADD SWAP1 POP DUP1 DUP3 GT ISZERO PUSH2 0x39A8 JUMPI PUSH2 0x39A7 PUSH2 0x394E JUMP JUMPDEST JUMPDEST SWAP3 SWAP2 POP POP JUMP JUMPDEST PUSH0 PUSH2 0x39B8 DUP3 PUSH2 0x349A JUMP JUMPDEST SWAP2 POP PUSH2 0x39C3 DUP4 PUSH2 0x349A JUMP JUMPDEST SWAP3 POP DUP3 DUP3 MUL PUSH2 0x39D1 DUP2 PUSH2 0x349A JUMP JUMPDEST SWAP2 POP DUP3 DUP3 DIV DUP5 EQ DUP4 ISZERO OR PUSH2 0x39E8 JUMPI PUSH2 0x39E7 PUSH2 0x394E JUMP JUMPDEST JUMPDEST POP SWAP3 SWAP2 POP POP JUMP JUMPDEST PUSH32 0x4E487B7100000000000000000000000000000000000000000000000000000000 PUSH0 MSTORE PUSH1 0x12 PUSH1 0x4 MSTORE PUSH1 0x24 PUSH0 REVERT JUMPDEST PUSH0 PUSH2 0x3A26 DUP3 PUSH2 0x349A JUMP JUMPDEST SWAP2 POP PUSH2 0x3A31 DUP4 PUSH2 0x349A JUMP JUMPDEST SWAP3 POP DUP3 PUSH2 0x3A41 JUMPI PUSH2 0x3A40 PUSH2 0x39EF JUMP JUMPDEST JUMPDEST DUP3 DUP3 DIV SWAP1 POP SWAP3 SWAP2 POP POP JUMP JUMPDEST PUSH0 DUP3 DUP3 MSTORE PUSH1 0x20 DUP3 ADD SWAP1 POP SWAP3 SWAP2 POP POP JUMP JUMPDEST PUSH32 0x6E6F7420656E6F75676820416D6F756E74000000000000000000000000000000 PUSH0 DUP3 ADD MSTORE POP JUMP JUMPDEST PUSH0 PUSH2 0x3A90 PUSH1 0x11 DUP4 PUSH2 0x3A4C JUMP JUMPDEST SWAP2 POP PUSH2 0x3A9B DUP3 PUSH2 0x3A5C JUMP JUMPDEST PUSH1 0x20 DUP3 ADD SWAP1 POP SWAP2 SWAP1 POP JUMP JUMPDEST PUSH0 PUSH1 0x20 DUP3 ADD SWAP1 POP DUP2 DUP2 SUB PUSH0 DUP4 ADD MSTORE PUSH2 0x3ABD DUP2 PUSH2 0x3A84 JUMP JUMPDEST SWAP1 POP SWAP2 SWAP1 POP JUMP JUMPDEST PUSH0 PUSH2 0x3ACE DUP3 PUSH2 0x349A JUMP JUMPDEST SWAP2 POP PUSH32 0xFFFFFFFFFFFFFFFFFFFFFFFFFFFFFFFFFFFFFFFFFFFFFFFFFFFFFFFFFFFFFFFF DUP3 SUB PUSH2 0x3B00 JUMPI PUSH2 0x3AFF PUSH2 0x394E JUMP JUMPDEST JUMPDEST PUSH1 0x1 DUP3 ADD SWAP1 POP SWAP2 SWAP1 POP JUMP JUMPDEST PUSH0 PUSH2 0x3B15 DUP3 PUSH2 0x349A JUMP JUMPDEST SWAP2 POP PUSH2 0x3B20 DUP4 PUSH2 0x349A JUMP JUMPDEST SWAP3 POP DUP3 DUP3 SUB SWAP1 POP DUP2 DUP2 GT ISZERO PUSH2 0x3B38 JUMPI PUSH2 0x3B37 PUSH2 0x394E JUMP JUMPDEST JUMPDEST SWAP3 SWAP2 POP POP JUMP JUMPDEST PUSH0 PUSH1 0x40 DUP3 ADD SWAP1 POP PUSH2 0x3B51 PUSH0 DUP4 ADD DUP6 PUSH2 0x3528 JUMP JUMPDEST PUSH2 0x3B5E PUSH1 0x20 DUP4 ADD DUP5 PUSH2 0x368A JUMP JUMPDEST SWAP4 SWAP3 POP POP POP JUMP JUMPDEST PUSH2 0x3B6E DUP2 PUSH2 0x35B8 JUMP JUMPDEST DUP2 EQ PUSH2 0x3B78 JUMPI PUSH0 DUP1 REVERT JUMPDEST POP JUMP JUMPDEST PUSH0 DUP2 MLOAD SWAP1 POP PUSH2 0x3B89 DUP2 PUSH2 0x3B65 JUMP JUMPDEST SWAP3 SWAP2 POP POP JUMP JUMPDEST PUSH0 PUSH1 0x20 DUP3 DUP5 SUB SLT ISZERO PUSH2 0x3BA4 JUMPI PUSH2 0x3BA3 PUSH2 0x3496 JUMP JUMPDEST JUMPDEST PUSH0 PUSH2 0x3BB1 DUP5 DUP3 DUP6 ADD PUSH2 0x3B7B JUMP JUMPDEST SWAP2 POP POP SWAP3 SWAP2 POP POP JUMP JUMPDEST PUSH32 0x5472616E73666572206661696C65640000000000000000000000000000000000 PUSH0 DUP3 ADD MSTORE POP JUMP JUMPDEST PUSH0 PUSH2 0x3BEE PUSH1 0xF DUP4 PUSH2 0x3A4C JUMP JUMPDEST SWAP2 POP PUSH2 0x3BF9 DUP3 PUSH2 0x3BBA JUMP JUMPDEST PUSH1 0x20 DUP3 ADD SWAP1 POP SWAP2 SWAP1 POP JUMP JUMPDEST PUSH0 PUSH1 0x20 DUP3 ADD SWAP1 POP DUP2 DUP2 SUB PUSH0 DUP4 ADD MSTORE PUSH2 0x3C1B DUP2 PUSH2 0x3BE2 JUMP JUMPDEST SWAP1 POP SWAP2 SWAP1 POP JUMP JUMPDEST PUSH0 PUSH1 0x80 DUP3 ADD SWAP1 POP PUSH2 0x3C35 PUSH0 DUP4 ADD DUP8 PUSH2 0x3528 JUMP JUMPDEST PUSH2 0x3C42 PUSH1 0x20 DUP4 ADD DUP7 PUSH2 0x368A JUMP JUMPDEST PUSH2 0x3C4F PUSH1 0x40 DUP4 ADD DUP6 PUSH2 0x368A JUMP JUMPDEST PUSH2 0x3C5C PUSH1 0x60 DUP4 ADD DUP5 PUSH2 0x368A JUMP JUMPDEST SWAP6 SWAP5 POP POP POP POP POP JUMP JUMPDEST PUSH0 PUSH1 0x60 DUP3 ADD SWAP1 POP PUSH2 0x3C78 PUSH0 DUP4 ADD DUP7 PUSH2 0x3528 JUMP JUMPDEST PUSH2 0x3C85 PUSH1 0x20 DUP4 ADD DUP6 PUSH2 0x3528 JUMP JUMPDEST PUSH2 0x3C92 PUSH1 0x40 DUP4 ADD DUP5 PUSH2 0x368A JUMP JUMPDEST SWAP5 SWAP4 POP POP POP POP JUMP JUMPDEST PUSH32 0x536861726573206D7573742062652067726561746572207468616E207A65726F PUSH0 DUP3 ADD MSTORE POP JUMP JUMPDEST PUSH0 PUSH2 0x3CCE PUSH1 0x20 DUP4 PUSH2 0x3A4C JUMP JUMPDEST SWAP2 POP PUSH2 0x3CD9 DUP3 PUSH2 0x3C9A JUMP JUMPDEST PUSH1 0x20 DUP3 ADD SWAP1 POP SWAP2 SWAP1 POP JUMP JUMPDEST PUSH0 PUSH1 0x20 DUP3 ADD SWAP1 POP DUP2 DUP2 SUB PUSH0 DUP4 ADD MSTORE PUSH2 0x3CFB DUP2 PUSH2 0x3CC2 JUMP JUMPDEST SWAP1 POP SWAP2 SWAP1 POP JUMP JUMPDEST PUSH32 0x5F70726963652063616E6E6F74206265207A65726F0000000000000000000000 PUSH0 DUP3 ADD MSTORE POP JUMP JUMPDEST PUSH0 PUSH2 0x3D36 PUSH1 0x15 DUP4 PUSH2 0x3A4C JUMP JUMPDEST SWAP2 POP PUSH2 0x3D41 DUP3 PUSH2 0x3D02 JUMP JUMPDEST PUSH1 0x20 DUP3 ADD SWAP1 POP SWAP2 SWAP1 POP JUMP JUMPDEST PUSH0 PUSH1 0x20 DUP3 ADD SWAP1 POP DUP2 DUP2 SUB PUSH0 DUP4 ADD MSTORE PUSH2 0x3D63 DUP2 PUSH2 0x3D2A JUMP JUMPDEST SWAP1 POP SWAP2 SWAP1 POP JUMP JUMPDEST PUSH0 PUSH1 0x80 DUP3 ADD SWAP1 POP PUSH2 0x3D7D PUSH0 DUP4 ADD DUP8 PUSH2 0x3528 JUMP JUMPDEST PUSH2 0x3D8A PUSH1 0x20 DUP4 ADD DUP7 PUSH2 0x3528 JUMP JUMPDEST PUSH2 0x3D97 PUSH1 0x40 DUP4 ADD DUP6 PUSH2 0x368A JUMP JUMPDEST PUSH2 0x3DA4 PUSH1 0x60 DUP4 ADD DUP5 PUSH2 0x368A JUMP JUMPDEST SWAP6 SWAP5 POP POP POP POP POP JUMP INVALID LOG2 PUSH5 0x6970667358 0x22 SLT KECCAK256 GAS MCOPY PUSH4 0x9D160D68 DUP13 SWAP14 REVERT 0xDA PUSH13 0xA3B25C12A4ED538B7EB2ACE224 LOG3 0xE5 DUP16 PUSH5 0x9CCE866473 PUSH16 0x6C634300081A00330000000000000000 "
				},
				"gasEstimates": {
					"creation": {
						"codeDepositCost": "3168600",
						"executionCost": "infinite",
						"totalCost": "infinite"
					},
					"external": {
						"PriceCalculation(uint256,uint256)": "infinite",
						"bet(uint256,uint256)": "infinite",
						"buyShare(uint256,address)": "infinite",
						"calculateInvestment(uint256,uint256)": "infinite",
						"calculateShares(uint256,uint256)": "infinite",
						"eachUser(uint256)": "2851",
						"getInitialPrices()": "infinite",
						"marketInfo(address)": "infinite",
						"owner()": "2626",
						"readMarketInfo(address)": "infinite",
						"readSellInfo(address,uint256)": "infinite",
						"readUserInfo(address)": "infinite",
						"renounceOwnership()": "infinite",
						"resolveMarket(uint256)": "infinite",
						"sellInfo(address,uint256)": "infinite",
						"sellShare(uint256,uint256,uint256)": "infinite",
						"totalUsers()": "2491",
						"transferOwnership(address)": "infinite",
						"usdcToken()": "infinite",
						"userBetOn(address,uint256)": "3169",
						"userInfo(address)": "infinite"
					},
					"internal": {
						"calculatePotentialReturn(uint256)": "infinite"
					}
				},
				"methodIdentifiers": {
					"PriceCalculation(uint256,uint256)": "21d0d9af",
					"bet(uint256,uint256)": "6ffcc719",
					"buyShare(uint256,address)": "fbea0b06",
					"calculateInvestment(uint256,uint256)": "84b5aca6",
					"calculateShares(uint256,uint256)": "b3c740e8",
					"eachUser(uint256)": "08ef962e",
					"getInitialPrices()": "208c86a4",
					"marketInfo(address)": "c4351386",
					"owner()": "8da5cb5b",
					"readMarketInfo(address)": "4b684453",
					"readSellInfo(address,uint256)": "3774ca25",
					"readUserInfo(address)": "a8dbd0cd",
					"renounceOwnership()": "715018a6",
					"resolveMarket(uint256)": "6399d03d",
					"sellInfo(address,uint256)": "61d464ef",
					"sellShare(uint256,uint256,uint256)": "456e62ba",
					"totalUsers()": "bff1f9e1",
					"transferOwnership(address)": "f2fde38b",
					"usdcToken()": "11eac855",
					"userBetOn(address,uint256)": "0efa82f6",
					"userInfo(address)": "1959a002"
				}
			},
			"storageLayout": {
				"storage": [
					{
						"astId": 8,
						"contract": "FacctoryContract/WagerContract.sol:Market",
						"label": "_owner",
						"offset": 0,
						"slot": "0",
						"type": "t_address"
					},
					{
						"astId": 942,
						"contract": "FacctoryContract/WagerContract.sol:Market",
						"label": "usdcToken",
						"offset": 0,
						"slot": "1",
						"type": "t_contract(ERC20)799"
					},
					{
						"astId": 989,
						"contract": "FacctoryContract/WagerContract.sol:Market",
						"label": "totalUsers",
						"offset": 0,
						"slot": "2",
						"type": "t_uint256"
					},
					{
						"astId": 993,
						"contract": "FacctoryContract/WagerContract.sol:Market",
						"label": "eachUser",
						"offset": 0,
						"slot": "3",
						"type": "t_mapping(t_uint256,t_address)"
					},
					{
						"astId": 998,
						"contract": "FacctoryContract/WagerContract.sol:Market",
						"label": "userInfo",
						"offset": 0,
						"slot": "4",
						"type": "t_mapping(t_address,t_struct(UserInfo)974_storage)"
					},
					{
						"astId": 1003,
						"contract": "FacctoryContract/WagerContract.sol:Market",
						"label": "marketInfo",
						"offset": 0,
						"slot": "5",
						"type": "t_mapping(t_address,t_struct(MarketInfo)959_storage)"
					},
					{
						"astId": 1010,
						"contract": "FacctoryContract/WagerContract.sol:Market",
						"label": "sellInfo",
						"offset": 0,
						"slot": "6",
						"type": "t_mapping(t_address,t_mapping(t_uint256,t_struct(SellInfo)987_storage))"
					}
				],
				"types": {
					"t_address": {
						"encoding": "inplace",
						"label": "address",
						"numberOfBytes": "20"
					},
					"t_array(t_uint256)2_storage": {
						"base": "t_uint256",
						"encoding": "inplace",
						"label": "uint256[2]",
						"numberOfBytes": "64"
					},
					"t_bool": {
						"encoding": "inplace",
						"label": "bool",
						"numberOfBytes": "1"
					},
					"t_contract(ERC20)799": {
						"encoding": "inplace",
						"label": "contract ERC20",
						"numberOfBytes": "20"
					},
					"t_mapping(t_address,t_mapping(t_uint256,t_struct(SellInfo)987_storage))": {
						"encoding": "mapping",
						"key": "t_address",
						"label": "mapping(address => mapping(uint256 => struct Market.SellInfo))",
						"numberOfBytes": "32",
						"value": "t_mapping(t_uint256,t_struct(SellInfo)987_storage)"
					},
					"t_mapping(t_address,t_struct(MarketInfo)959_storage)": {
						"encoding": "mapping",
						"key": "t_address",
						"label": "mapping(address => struct Market.MarketInfo)",
						"numberOfBytes": "32",
						"value": "t_struct(MarketInfo)959_storage"
					},
					"t_mapping(t_address,t_struct(UserInfo)974_storage)": {
						"encoding": "mapping",
						"key": "t_address",
						"label": "mapping(address => struct Market.UserInfo)",
						"numberOfBytes": "32",
						"value": "t_struct(UserInfo)974_storage"
					},
					"t_mapping(t_uint256,t_address)": {
						"encoding": "mapping",
						"key": "t_uint256",
						"label": "mapping(uint256 => address)",
						"numberOfBytes": "32",
						"value": "t_address"
					},
					"t_mapping(t_uint256,t_bool)": {
						"encoding": "mapping",
						"key": "t_uint256",
						"label": "mapping(uint256 => bool)",
						"numberOfBytes": "32",
						"value": "t_bool"
					},
					"t_mapping(t_uint256,t_struct(SellInfo)987_storage)": {
						"encoding": "mapping",
						"key": "t_uint256",
						"label": "mapping(uint256 => struct Market.SellInfo)",
						"numberOfBytes": "32",
						"value": "t_struct(SellInfo)987_storage"
					},
					"t_struct(MarketInfo)959_storage": {
						"encoding": "inplace",
						"label": "struct Market.MarketInfo",
						"members": [
							{
								"astId": 944,
								"contract": "FacctoryContract/WagerContract.sol:Market",
								"label": "resolved",
								"offset": 0,
								"slot": "0",
								"type": "t_bool"
							},
							{
								"astId": 946,
								"contract": "FacctoryContract/WagerContract.sol:Market",
								"label": "endTime",
								"offset": 0,
								"slot": "1",
								"type": "t_uint256"
							},
							{
								"astId": 948,
								"contract": "FacctoryContract/WagerContract.sol:Market",
								"label": "totalBets",
								"offset": 0,
								"slot": "2",
								"type": "t_uint256"
							},
							{
								"astId": 950,
								"contract": "FacctoryContract/WagerContract.sol:Market",
								"label": "totalAmount",
								"offset": 0,
								"slot": "3",
								"type": "t_uint256"
							},
							{
								"astId": 954,
								"contract": "FacctoryContract/WagerContract.sol:Market",
								"label": "initialPrice",
								"offset": 0,
								"slot": "4",
								"type": "t_array(t_uint256)2_storage"
							},
							{
								"astId": 956,
								"contract": "FacctoryContract/WagerContract.sol:Market",
								"label": "totalBetsOnYes",
								"offset": 0,
								"slot": "6",
								"type": "t_uint256"
							},
							{
								"astId": 958,
								"contract": "FacctoryContract/WagerContract.sol:Market",
								"label": "totalBetsOnNo",
								"offset": 0,
								"slot": "7",
								"type": "t_uint256"
							}
						],
						"numberOfBytes": "256"
					},
					"t_struct(SellInfo)987_storage": {
						"encoding": "inplace",
						"label": "struct Market.SellInfo",
						"members": [
							{
								"astId": 976,
								"contract": "FacctoryContract/WagerContract.sol:Market",
								"label": "list",
								"offset": 0,
								"slot": "0",
								"type": "t_bool"
							},
							{
								"astId": 978,
								"contract": "FacctoryContract/WagerContract.sol:Market",
								"label": "sold",
								"offset": 1,
								"slot": "0",
								"type": "t_bool"
							},
							{
								"astId": 980,
								"contract": "FacctoryContract/WagerContract.sol:Market",
								"label": "owner",
								"offset": 2,
								"slot": "0",
								"type": "t_address"
							},
							{
								"astId": 982,
								"contract": "FacctoryContract/WagerContract.sol:Market",
								"label": "price",
								"offset": 0,
								"slot": "1",
								"type": "t_uint256"
							},
							{
								"astId": 984,
								"contract": "FacctoryContract/WagerContract.sol:Market",
								"label": "amount",
								"offset": 0,
								"slot": "2",
								"type": "t_uint256"
							},
							{
								"astId": 986,
								"contract": "FacctoryContract/WagerContract.sol:Market",
								"label": "listOn",
								"offset": 0,
								"slot": "3",
								"type": "t_uint256"
							}
						],
						"numberOfBytes": "128"
					},
					"t_struct(UserInfo)974_storage": {
						"encoding": "inplace",
						"label": "struct Market.UserInfo",
						"members": [
							{
								"astId": 961,
								"contract": "FacctoryContract/WagerContract.sol:Market",
								"label": "listNo",
								"offset": 0,
								"slot": "0",
								"type": "t_uint256"
							},
							{
								"astId": 963,
								"contract": "FacctoryContract/WagerContract.sol:Market",
								"label": "noBetAmount",
								"offset": 0,
								"slot": "1",
								"type": "t_uint256"
							},
							{
								"astId": 965,
								"contract": "FacctoryContract/WagerContract.sol:Market",
								"label": "rewardAmount",
								"offset": 0,
								"slot": "2",
								"type": "t_uint256"
							},
							{
								"astId": 967,
								"contract": "FacctoryContract/WagerContract.sol:Market",
								"label": "yesBetAmount",
								"offset": 0,
								"slot": "3",
								"type": "t_uint256"
							},
							{
								"astId": 969,
								"contract": "FacctoryContract/WagerContract.sol:Market",
								"label": "shareAmount",
								"offset": 0,
								"slot": "4",
								"type": "t_uint256"
							},
							{
								"astId": 973,
								"contract": "FacctoryContract/WagerContract.sol:Market",
								"label": "betOn",
								"offset": 0,
								"slot": "5",
								"type": "t_mapping(t_uint256,t_bool)"
							}
						],
						"numberOfBytes": "192"
					},
					"t_uint256": {
						"encoding": "inplace",
						"label": "uint256",
						"numberOfBytes": "32"
					}
				}
			},
			"userdoc": {
				"kind": "user",
				"methods": {},
				"version": 1
			}
		}
	}
}