{
	"FacctoryContract/WagerContract.sol": {
		"Market": {
			"abi": [
				{
					"inputs": [
						{
							"internalType": "address",
							"name": "initialOwner",
							"type": "address"
						},
						{
							"internalType": "address",
							"name": "_usdcToken",
							"type": "address"
						},
						{
							"internalType": "uint256",
							"name": "_endTime",
							"type": "uint256"
						}
					],
					"stateMutability": "nonpayable",
					"type": "constructor"
				},
				{
					"inputs": [
						{
							"internalType": "address",
							"name": "owner",
							"type": "address"
						}
					],
					"name": "OwnableInvalidOwner",
					"type": "error"
				},
				{
					"inputs": [
						{
							"internalType": "address",
							"name": "account",
							"type": "address"
						}
					],
					"name": "OwnableUnauthorizedAccount",
					"type": "error"
				},
				{
					"inputs": [
						{
							"internalType": "bool",
							"name": "sold",
							"type": "bool"
						}
					],
					"name": "alreadySold",
					"type": "error"
				},
				{
					"inputs": [
						{
							"internalType": "uint256",
							"name": "contractBalance",
							"type": "uint256"
						}
					],
					"name": "contractLowbalance",
					"type": "error"
				},
				{
					"inputs": [
						{
							"internalType": "uint256",
							"name": "contractBalance",
							"type": "uint256"
						}
					],
					"name": "contractLowbalanceForOwner",
					"type": "error"
				},
				{
					"inputs": [],
					"name": "marketResolved",
					"type": "error"
				},
				{
					"inputs": [
						{
							"internalType": "bool",
							"name": "beted",
							"type": "bool"
						}
					],
					"name": "notBet",
					"type": "error"
				},
				{
					"inputs": [
						{
							"internalType": "uint256",
							"name": "listNo",
							"type": "uint256"
						}
					],
					"name": "notListed",
					"type": "error"
				},
				{
					"inputs": [
						{
							"internalType": "uint256",
							"name": "endTime",
							"type": "uint256"
						}
					],
					"name": "notResolvedBeforeTime",
					"type": "error"
				},
				{
					"inputs": [
						{
							"internalType": "uint256",
							"name": "amount",
							"type": "uint256"
						}
					],
					"name": "wrongAmount",
					"type": "error"
				},
				{
					"inputs": [
						{
							"internalType": "uint256",
							"name": "betIndex",
							"type": "uint256"
						}
					],
					"name": "wrongBetIndex",
					"type": "error"
				},
				{
					"inputs": [
						{
							"internalType": "address",
							"name": "owner",
							"type": "address"
						}
					],
					"name": "wrongOwner",
					"type": "error"
				},
				{
					"inputs": [
						{
							"internalType": "uint256",
							"name": "price",
							"type": "uint256"
						}
					],
					"name": "wrongPrice",
					"type": "error"
				},
				{
					"anonymous": false,
					"inputs": [
						{
							"indexed": true,
							"internalType": "address",
							"name": "user",
							"type": "address"
						},
						{
							"indexed": true,
							"internalType": "uint256",
							"name": "_amount",
							"type": "uint256"
						},
						{
							"indexed": false,
							"internalType": "uint256",
							"name": "_betOn",
							"type": "uint256"
						}
					],
					"name": "Bet",
					"type": "event"
				},
				{
					"anonymous": false,
					"inputs": [
						{
							"indexed": false,
							"internalType": "address",
							"name": "buyer",
							"type": "address"
						},
						{
							"indexed": false,
							"internalType": "address",
							"name": "seller",
							"type": "address"
						},
						{
							"indexed": false,
							"internalType": "uint256",
							"name": "_amountBBuyed",
							"type": "uint256"
						},
						{
							"indexed": false,
							"internalType": "uint256",
							"name": "onPrice",
							"type": "uint256"
						}
					],
					"name": "BuyShare",
					"type": "event"
				},
				{
					"anonymous": false,
					"inputs": [
						{
							"indexed": true,
							"internalType": "address",
							"name": "previousOwner",
							"type": "address"
						},
						{
							"indexed": true,
							"internalType": "address",
							"name": "newOwner",
							"type": "address"
						}
					],
					"name": "OwnershipTransferred",
					"type": "event"
				},
				{
					"anonymous": false,
					"inputs": [
						{
							"indexed": false,
							"internalType": "address",
							"name": "ownerAddress",
							"type": "address"
						},
						{
							"indexed": false,
							"internalType": "uint256",
							"name": "ownerAmount",
							"type": "uint256"
						},
						{
							"indexed": false,
							"internalType": "uint256",
							"name": "perShareAmount",
							"type": "uint256"
						},
						{
							"indexed": false,
							"internalType": "uint256",
							"name": "winningIndex",
							"type": "uint256"
						}
					],
					"name": "ResolveMarket",
					"type": "event"
				},
				{
					"anonymous": false,
					"inputs": [
						{
							"indexed": true,
							"internalType": "address",
							"name": "user",
							"type": "address"
						},
						{
							"indexed": false,
							"internalType": "uint256",
							"name": "listNo",
							"type": "uint256"
						},
						{
							"indexed": false,
							"internalType": "uint256",
							"name": "onPrice",
							"type": "uint256"
						}
					],
					"name": "SellShare",
					"type": "event"
				},
				{
					"inputs": [
						{
							"internalType": "uint256",
							"name": "totalBetsOnNo",
							"type": "uint256"
						},
						{
							"internalType": "uint256",
							"name": "totalBetsOnYes",
							"type": "uint256"
						}
					],
					"name": "PriceCalculation",
					"outputs": [
						{
							"internalType": "uint256",
							"name": "",
							"type": "uint256"
						},
						{
							"internalType": "uint256",
							"name": "",
							"type": "uint256"
						}
					],
					"stateMutability": "view",
					"type": "function"
				},
				{
					"inputs": [
						{
							"internalType": "uint256",
							"name": "_amount",
							"type": "uint256"
						},
						{
							"internalType": "uint256",
							"name": "_betOn",
							"type": "uint256"
						}
					],
					"name": "bet",
					"outputs": [],
					"stateMutability": "nonpayable",
					"type": "function"
				},
				{
					"inputs": [
						{
							"internalType": "uint256",
							"name": "_listNo",
							"type": "uint256"
						},
						{
							"internalType": "address",
							"name": "_owner",
							"type": "address"
						}
					],
					"name": "buyShare",
					"outputs": [],
					"stateMutability": "nonpayable",
					"type": "function"
				},
				{
					"inputs": [
						{
							"internalType": "uint256",
							"name": "shares",
							"type": "uint256"
						},
						{
							"internalType": "uint256",
							"name": "_betOn",
							"type": "uint256"
						}
					],
					"name": "calculateInvestment",
					"outputs": [
						{
							"internalType": "uint256",
							"name": "",
							"type": "uint256"
						}
					],
					"stateMutability": "view",
					"type": "function"
				},
				{
					"inputs": [
						{
							"internalType": "uint256",
							"name": "_amount",
							"type": "uint256"
						},
						{
							"internalType": "uint256",
							"name": "_betOn",
							"type": "uint256"
						}
					],
					"name": "calculateShares",
					"outputs": [
						{
							"internalType": "uint256",
							"name": "",
							"type": "uint256"
						}
					],
					"stateMutability": "view",
					"type": "function"
				},
				{
					"inputs": [
						{
							"internalType": "uint256",
							"name": "",
							"type": "uint256"
						}
					],
					"name": "eachUser",
					"outputs": [
						{
							"internalType": "address",
							"name": "",
							"type": "address"
						}
					],
					"stateMutability": "view",
					"type": "function"
				},
				{
					"inputs": [],
					"name": "getInitialPrices",
					"outputs": [
						{
							"internalType": "uint256",
							"name": "",
							"type": "uint256"
						},
						{
							"internalType": "uint256",
							"name": "",
							"type": "uint256"
						}
					],
					"stateMutability": "view",
					"type": "function"
				},
				{
					"inputs": [
						{
							"internalType": "address",
							"name": "",
							"type": "address"
						}
					],
					"name": "marketInfo",
					"outputs": [
						{
							"internalType": "bool",
							"name": "resolved",
							"type": "bool"
						},
						{
							"internalType": "uint256",
							"name": "endTime",
							"type": "uint256"
						},
						{
							"internalType": "uint256",
							"name": "totalBets",
							"type": "uint256"
						},
						{
							"internalType": "uint256",
							"name": "totalAmount",
							"type": "uint256"
						},
						{
							"internalType": "uint256",
							"name": "totalBetsOnYes",
							"type": "uint256"
						},
						{
							"internalType": "uint256",
							"name": "totalBetsOnNo",
							"type": "uint256"
						}
					],
					"stateMutability": "view",
					"type": "function"
				},
				{
					"inputs": [],
					"name": "owner",
					"outputs": [
						{
							"internalType": "address",
							"name": "",
							"type": "address"
						}
					],
					"stateMutability": "view",
					"type": "function"
				},
				{
					"inputs": [],
					"name": "profitPercentage",
					"outputs": [
						{
							"internalType": "uint256",
							"name": "",
							"type": "uint256"
						}
					],
					"stateMutability": "view",
					"type": "function"
				},
				{
					"inputs": [
						{
							"internalType": "address",
							"name": "_owner",
							"type": "address"
						},
						{
							"internalType": "uint256",
							"name": "_id",
							"type": "uint256"
						}
					],
					"name": "readSellInfo",
					"outputs": [
						{
							"internalType": "bool",
							"name": "list",
							"type": "bool"
						},
						{
							"internalType": "bool",
							"name": "sold",
							"type": "bool"
						},
						{
							"internalType": "address",
							"name": "owner",
							"type": "address"
						},
						{
							"internalType": "uint256",
							"name": "price",
							"type": "uint256"
						},
						{
							"internalType": "uint256",
							"name": "amount",
							"type": "uint256"
						},
						{
							"internalType": "uint256",
							"name": "listOn",
							"type": "uint256"
						}
					],
					"stateMutability": "view",
					"type": "function"
				},
				{
					"inputs": [],
					"name": "renounceOwnership",
					"outputs": [],
					"stateMutability": "nonpayable",
					"type": "function"
				},
				{
					"inputs": [
						{
							"internalType": "uint256",
							"name": "winningIndex",
							"type": "uint256"
						}
					],
					"name": "resolveMarket",
					"outputs": [],
					"stateMutability": "nonpayable",
					"type": "function"
				},
				{
					"inputs": [
						{
							"internalType": "address",
							"name": "",
							"type": "address"
						},
						{
							"internalType": "uint256",
							"name": "",
							"type": "uint256"
						}
					],
					"name": "sellInfo",
					"outputs": [
						{
							"internalType": "bool",
							"name": "list",
							"type": "bool"
						},
						{
							"internalType": "bool",
							"name": "sold",
							"type": "bool"
						},
						{
							"internalType": "address",
							"name": "owner",
							"type": "address"
						},
						{
							"internalType": "uint256",
							"name": "price",
							"type": "uint256"
						},
						{
							"internalType": "uint256",
							"name": "amount",
							"type": "uint256"
						},
						{
							"internalType": "uint256",
							"name": "listOn",
							"type": "uint256"
						}
					],
					"stateMutability": "view",
					"type": "function"
				},
				{
					"inputs": [
						{
							"internalType": "uint256",
							"name": "_amount",
							"type": "uint256"
						},
						{
							"internalType": "uint256",
							"name": "_price",
							"type": "uint256"
						},
						{
							"internalType": "uint256",
							"name": "_sellOf",
							"type": "uint256"
						}
					],
					"name": "sellShare",
					"outputs": [],
					"stateMutability": "nonpayable",
					"type": "function"
				},
				{
					"inputs": [],
					"name": "totalUsers",
					"outputs": [
						{
							"internalType": "uint256",
							"name": "",
							"type": "uint256"
						}
					],
					"stateMutability": "view",
					"type": "function"
				},
				{
					"inputs": [
						{
							"internalType": "address",
							"name": "newOwner",
							"type": "address"
						}
					],
					"name": "transferOwnership",
					"outputs": [],
					"stateMutability": "nonpayable",
					"type": "function"
				},
				{
					"inputs": [],
					"name": "usdcToken",
					"outputs": [
						{
							"internalType": "contract ERC20",
							"name": "",
							"type": "address"
						}
					],
					"stateMutability": "view",
					"type": "function"
				},
				{
					"inputs": [
						{
							"internalType": "address",
							"name": "_user",
							"type": "address"
						},
						{
							"internalType": "uint256",
							"name": "_betIndex",
							"type": "uint256"
						}
					],
					"name": "userBetOn",
					"outputs": [
						{
							"internalType": "bool",
							"name": "",
							"type": "bool"
						}
					],
					"stateMutability": "view",
					"type": "function"
				},
				{
					"inputs": [
						{
							"internalType": "address",
							"name": "",
							"type": "address"
						}
					],
					"name": "userInfo",
					"outputs": [
						{
							"internalType": "uint256",
							"name": "listNo",
							"type": "uint256"
						},
						{
							"internalType": "uint256",
							"name": "noBetAmount",
							"type": "uint256"
						},
						{
							"internalType": "uint256",
							"name": "rewardAmount",
							"type": "uint256"
						},
						{
							"internalType": "uint256",
							"name": "yesBetAmount",
							"type": "uint256"
						},
						{
							"internalType": "uint256",
							"name": "shareAmount",
							"type": "uint256"
						}
					],
					"stateMutability": "view",
					"type": "function"
				}
			],
			"devdoc": {
				"errors": {
					"OwnableInvalidOwner(address)": [
						{
							"details": "The owner is not a valid owner account. (eg. `address(0)`)"
						}
					],
					"OwnableUnauthorizedAccount(address)": [
						{
							"details": "The caller account is not authorized to perform an operation."
						}
					]
				},
				"kind": "dev",
				"methods": {
					"owner()": {
						"details": "Returns the address of the current owner."
					},
					"renounceOwnership()": {
						"details": "Leaves the contract without owner. It will not be possible to call `onlyOwner` functions. Can only be called by the current owner. NOTE: Renouncing ownership will leave the contract without an owner, thereby disabling any functionality that is only available to the owner."
					},
					"transferOwnership(address)": {
						"details": "Transfers ownership of the contract to a new account (`newOwner`). Can only be called by the current owner."
					}
				},
				"version": 1
			},
			"evm": {
				"assembly": "    /* \"FacctoryContract/WagerContract.sol\":218:12206  contract Market is Ownable {... */\n  mstore(0x40, 0x80)\n    /* \"FacctoryContract/WagerContract.sol\":1996:2432  constructor(... */\n  callvalue\n  dup1\n  iszero\n  tag_1\n  jumpi\n  revert(0x00, 0x00)\ntag_1:\n  pop\n  mload(0x40)\n  sub(codesize, bytecodeSize)\n  dup1\n  bytecodeSize\n  dup4\n  codecopy\n  dup2\n  dup2\n  add\n  0x40\n  mstore\n  dup2\n  add\n  swap1\n  tag_2\n  swap2\n  swap1\n  tag_3\n  jump\t// in\ntag_2:\n    /* \"FacctoryContract/WagerContract.sol\":2112:2124  initialOwner */\n  dup3\n    /* \"@openzeppelin/contracts/access/Ownable.sol\":1297:1298  0 */\n  0x00\n    /* \"@openzeppelin/contracts/access/Ownable.sol\":1273:1299  initialOwner == address(0) */\n  0xffffffffffffffffffffffffffffffffffffffff\n  and\n    /* \"@openzeppelin/contracts/access/Ownable.sol\":1273:1285  initialOwner */\n  dup2\n    /* \"@openzeppelin/contracts/access/Ownable.sol\":1273:1299  initialOwner == address(0) */\n  0xffffffffffffffffffffffffffffffffffffffff\n  and\n  sub\n    /* \"@openzeppelin/contracts/access/Ownable.sol\":1269:1364  if (initialOwner == address(0)) {... */\n  tag_7\n  jumpi\n    /* \"@openzeppelin/contracts/access/Ownable.sol\":1350:1351  0 */\n  0x00\n    /* \"@openzeppelin/contracts/access/Ownable.sol\":1322:1353  OwnableInvalidOwner(address(0)) */\n  mload(0x40)\n  0x1e4fbdf700000000000000000000000000000000000000000000000000000000\n  dup2\n  mstore\n  0x04\n  add\n  tag_8\n  swap2\n  swap1\n  tag_9\n  jump\t// in\ntag_8:\n  mload(0x40)\n  dup1\n  swap2\n  sub\n  swap1\n  revert\n    /* \"@openzeppelin/contracts/access/Ownable.sol\":1269:1364  if (initialOwner == address(0)) {... */\ntag_7:\n    /* \"@openzeppelin/contracts/access/Ownable.sol\":1373:1405  _transferOwnership(initialOwner) */\n  tag_10\n    /* \"@openzeppelin/contracts/access/Ownable.sol\":1392:1404  initialOwner */\n  dup2\n    /* \"@openzeppelin/contracts/access/Ownable.sol\":1373:1391  _transferOwnership */\n  shl(0x20, tag_11)\n    /* \"@openzeppelin/contracts/access/Ownable.sol\":1373:1405  _transferOwnership(initialOwner) */\n  0x20\n  shr\n  jump\t// in\ntag_10:\n    /* \"@openzeppelin/contracts/access/Ownable.sol\":1225:1412  constructor(address initialOwner) {... */\n  pop\n    /* \"FacctoryContract/WagerContract.sol\":2177:2185  _endTime */\n  dup1\n    /* \"FacctoryContract/WagerContract.sol\":2141:2151  marketInfo */\n  0x06\n    /* \"FacctoryContract/WagerContract.sol\":2141:2166  marketInfo[address(this)] */\n  0x00\n    /* \"FacctoryContract/WagerContract.sol\":2160:2164  this */\n  address\n    /* \"FacctoryContract/WagerContract.sol\":2141:2166  marketInfo[address(this)] */\n  0xffffffffffffffffffffffffffffffffffffffff\n  and\n  0xffffffffffffffffffffffffffffffffffffffff\n  and\n  dup2\n  mstore\n  0x20\n  add\n  swap1\n  dup2\n  mstore\n  0x20\n  add\n  0x00\n  keccak256\n    /* \"FacctoryContract/WagerContract.sol\":2141:2174  marketInfo[address(this)].endTime */\n  0x01\n  add\n    /* \"FacctoryContract/WagerContract.sol\":2141:2185  marketInfo[address(this)].endTime = _endTime */\n  dup2\n  swap1\n  sstore\n  pop\n    /* \"FacctoryContract/WagerContract.sol\":2243:2261  500000000000000000 */\n  0x06f05b59d3b20000\n    /* \"FacctoryContract/WagerContract.sol\":2199:2209  marketInfo */\n  0x06\n    /* \"FacctoryContract/WagerContract.sol\":2199:2224  marketInfo[address(this)] */\n  0x00\n    /* \"FacctoryContract/WagerContract.sol\":2218:2222  this */\n  address\n    /* \"FacctoryContract/WagerContract.sol\":2199:2224  marketInfo[address(this)] */\n  0xffffffffffffffffffffffffffffffffffffffff\n  and\n  0xffffffffffffffffffffffffffffffffffffffff\n  and\n  dup2\n  mstore\n  0x20\n  add\n  swap1\n  dup2\n  mstore\n  0x20\n  add\n  0x00\n  keccak256\n    /* \"FacctoryContract/WagerContract.sol\":2199:2237  marketInfo[address(this)].initialPrice */\n  0x04\n  add\n    /* \"FacctoryContract/WagerContract.sol\":2238:2239  0 */\n  0x00\n    /* \"FacctoryContract/WagerContract.sol\":2199:2240  marketInfo[address(this)].initialPrice[0] */\n  0x02\n  dup2\n  lt\n  tag_13\n  jumpi\n  tag_14\n  tag_15\n  jump\t// in\ntag_14:\ntag_13:\n  add\n    /* \"FacctoryContract/WagerContract.sol\":2199:2261  marketInfo[address(this)].initialPrice[0] = 500000000000000000 */\n  dup2\n  swap1\n  sstore\n  pop\n    /* \"FacctoryContract/WagerContract.sol\":2319:2337  500000000000000000 */\n  0x06f05b59d3b20000\n    /* \"FacctoryContract/WagerContract.sol\":2275:2285  marketInfo */\n  0x06\n    /* \"FacctoryContract/WagerContract.sol\":2275:2300  marketInfo[address(this)] */\n  0x00\n    /* \"FacctoryContract/WagerContract.sol\":2294:2298  this */\n  address\n    /* \"FacctoryContract/WagerContract.sol\":2275:2300  marketInfo[address(this)] */\n  0xffffffffffffffffffffffffffffffffffffffff\n  and\n  0xffffffffffffffffffffffffffffffffffffffff\n  and\n  dup2\n  mstore\n  0x20\n  add\n  swap1\n  dup2\n  mstore\n  0x20\n  add\n  0x00\n  keccak256\n    /* \"FacctoryContract/WagerContract.sol\":2275:2313  marketInfo[address(this)].initialPrice */\n  0x04\n  add\n    /* \"FacctoryContract/WagerContract.sol\":2314:2315  1 */\n  0x01\n    /* \"FacctoryContract/WagerContract.sol\":2275:2316  marketInfo[address(this)].initialPrice[1] */\n  0x02\n  dup2\n  lt\n  tag_17\n  jumpi\n  tag_18\n  tag_15\n  jump\t// in\ntag_18:\ntag_17:\n  add\n    /* \"FacctoryContract/WagerContract.sol\":2275:2337  marketInfo[address(this)].initialPrice[1] = 500000000000000000 */\n  dup2\n  swap1\n  sstore\n  pop\n    /* \"FacctoryContract/WagerContract.sol\":2369:2379  _usdcToken */\n  dup2\n    /* \"FacctoryContract/WagerContract.sol\":2351:2360  usdcToken */\n  0x01\n  0x00\n    /* \"FacctoryContract/WagerContract.sol\":2351:2380  usdcToken = ERC20(_usdcToken) */\n  0x0100\n  exp\n  dup2\n  sload\n  dup2\n  0xffffffffffffffffffffffffffffffffffffffff\n  mul\n  not\n  and\n  swap1\n  dup4\n  0xffffffffffffffffffffffffffffffffffffffff\n  and\n  mul\n  or\n  swap1\n  sstore\n  pop\n    /* \"FacctoryContract/WagerContract.sol\":2413:2417  1000 */\n  0x03e8\n    /* \"FacctoryContract/WagerContract.sol\":2394:2410  profitPercentage */\n  0x03\n    /* \"FacctoryContract/WagerContract.sol\":2394:2417  profitPercentage = 1000 */\n  dup2\n  swap1\n  sstore\n  pop\n    /* \"FacctoryContract/WagerContract.sol\":1996:2432  constructor(... */\n  pop\n  pop\n  pop\n    /* \"FacctoryContract/WagerContract.sol\":218:12206  contract Market is Ownable {... */\n  jump(tag_20)\n    /* \"@openzeppelin/contracts/access/Ownable.sol\":2912:3099  function _transferOwnership(address newOwner) internal virtual {... */\ntag_11:\n    /* \"@openzeppelin/contracts/access/Ownable.sol\":2985:3001  address oldOwner */\n  0x00\n    /* \"@openzeppelin/contracts/access/Ownable.sol\":3004:3010  _owner */\n  0x00\n  0x00\n  swap1\n  sload\n  swap1\n  0x0100\n  exp\n  swap1\n  div\n  0xffffffffffffffffffffffffffffffffffffffff\n  and\n    /* \"@openzeppelin/contracts/access/Ownable.sol\":2985:3010  address oldOwner = _owner */\n  swap1\n  pop\n    /* \"@openzeppelin/contracts/access/Ownable.sol\":3029:3037  newOwner */\n  dup2\n    /* \"@openzeppelin/contracts/access/Ownable.sol\":3020:3026  _owner */\n  0x00\n  0x00\n    /* \"@openzeppelin/contracts/access/Ownable.sol\":3020:3037  _owner = newOwner */\n  0x0100\n  exp\n  dup2\n  sload\n  dup2\n  0xffffffffffffffffffffffffffffffffffffffff\n  mul\n  not\n  and\n  swap1\n  dup4\n  0xffffffffffffffffffffffffffffffffffffffff\n  and\n  mul\n  or\n  swap1\n  sstore\n  pop\n    /* \"@openzeppelin/contracts/access/Ownable.sol\":3083:3091  newOwner */\n  dup2\n    /* \"@openzeppelin/contracts/access/Ownable.sol\":3052:3092  OwnershipTransferred(oldOwner, newOwner) */\n  0xffffffffffffffffffffffffffffffffffffffff\n  and\n    /* \"@openzeppelin/contracts/access/Ownable.sol\":3073:3081  oldOwner */\n  dup2\n    /* \"@openzeppelin/contracts/access/Ownable.sol\":3052:3092  OwnershipTransferred(oldOwner, newOwner) */\n  0xffffffffffffffffffffffffffffffffffffffff\n  and\n  0x8be0079c531659141344cd1fd0a4f28419497f9722a3daafe3b4186f6b6457e0\n  mload(0x40)\n  mload(0x40)\n  dup1\n  swap2\n  sub\n  swap1\n  log3\n    /* \"@openzeppelin/contracts/access/Ownable.sol\":2975:3099  {... */\n  pop\n    /* \"@openzeppelin/contracts/access/Ownable.sol\":2912:3099  function _transferOwnership(address newOwner) internal virtual {... */\n  pop\n  jump\t// out\n    /* \"#utility.yul\":88:205   */\ntag_23:\n    /* \"#utility.yul\":197:198   */\n  0x00\n    /* \"#utility.yul\":194:195   */\n  0x00\n    /* \"#utility.yul\":187:199   */\n  revert\n    /* \"#utility.yul\":334:460   */\ntag_25:\n    /* \"#utility.yul\":371:378   */\n  0x00\n    /* \"#utility.yul\":411:453   */\n  0xffffffffffffffffffffffffffffffffffffffff\n    /* \"#utility.yul\":404:409   */\n  dup3\n    /* \"#utility.yul\":400:454   */\n  and\n    /* \"#utility.yul\":389:454   */\n  swap1\n  pop\n    /* \"#utility.yul\":334:460   */\n  swap2\n  swap1\n  pop\n  jump\t// out\n    /* \"#utility.yul\":466:562   */\ntag_26:\n    /* \"#utility.yul\":503:510   */\n  0x00\n    /* \"#utility.yul\":532:556   */\n  tag_39\n    /* \"#utility.yul\":550:555   */\n  dup3\n    /* \"#utility.yul\":532:556   */\n  tag_25\n  jump\t// in\ntag_39:\n    /* \"#utility.yul\":521:556   */\n  swap1\n  pop\n    /* \"#utility.yul\":466:562   */\n  swap2\n  swap1\n  pop\n  jump\t// out\n    /* \"#utility.yul\":568:690   */\ntag_27:\n    /* \"#utility.yul\":641:665   */\n  tag_41\n    /* \"#utility.yul\":659:664   */\n  dup2\n    /* \"#utility.yul\":641:665   */\n  tag_26\n  jump\t// in\ntag_41:\n    /* \"#utility.yul\":634:639   */\n  dup2\n    /* \"#utility.yul\":631:666   */\n  eq\n    /* \"#utility.yul\":621:684   */\n  tag_42\n  jumpi\n    /* \"#utility.yul\":680:681   */\n  0x00\n    /* \"#utility.yul\":677:678   */\n  0x00\n    /* \"#utility.yul\":670:682   */\n  revert\n    /* \"#utility.yul\":621:684   */\ntag_42:\n    /* \"#utility.yul\":568:690   */\n  pop\n  jump\t// out\n    /* \"#utility.yul\":696:839   */\ntag_28:\n    /* \"#utility.yul\":753:758   */\n  0x00\n    /* \"#utility.yul\":784:790   */\n  dup2\n    /* \"#utility.yul\":778:791   */\n  mload\n    /* \"#utility.yul\":769:791   */\n  swap1\n  pop\n    /* \"#utility.yul\":800:833   */\n  tag_44\n    /* \"#utility.yul\":827:832   */\n  dup2\n    /* \"#utility.yul\":800:833   */\n  tag_27\n  jump\t// in\ntag_44:\n    /* \"#utility.yul\":696:839   */\n  swap3\n  swap2\n  pop\n  pop\n  jump\t// out\n    /* \"#utility.yul\":845:922   */\ntag_29:\n    /* \"#utility.yul\":882:889   */\n  0x00\n    /* \"#utility.yul\":911:916   */\n  dup2\n    /* \"#utility.yul\":900:916   */\n  swap1\n  pop\n    /* \"#utility.yul\":845:922   */\n  swap2\n  swap1\n  pop\n  jump\t// out\n    /* \"#utility.yul\":928:1050   */\ntag_30:\n    /* \"#utility.yul\":1001:1025   */\n  tag_47\n    /* \"#utility.yul\":1019:1024   */\n  dup2\n    /* \"#utility.yul\":1001:1025   */\n  tag_29\n  jump\t// in\ntag_47:\n    /* \"#utility.yul\":994:999   */\n  dup2\n    /* \"#utility.yul\":991:1026   */\n  eq\n    /* \"#utility.yul\":981:1044   */\n  tag_48\n  jumpi\n    /* \"#utility.yul\":1040:1041   */\n  0x00\n    /* \"#utility.yul\":1037:1038   */\n  0x00\n    /* \"#utility.yul\":1030:1042   */\n  revert\n    /* \"#utility.yul\":981:1044   */\ntag_48:\n    /* \"#utility.yul\":928:1050   */\n  pop\n  jump\t// out\n    /* \"#utility.yul\":1056:1199   */\ntag_31:\n    /* \"#utility.yul\":1113:1118   */\n  0x00\n    /* \"#utility.yul\":1144:1150   */\n  dup2\n    /* \"#utility.yul\":1138:1151   */\n  mload\n    /* \"#utility.yul\":1129:1151   */\n  swap1\n  pop\n    /* \"#utility.yul\":1160:1193   */\n  tag_50\n    /* \"#utility.yul\":1187:1192   */\n  dup2\n    /* \"#utility.yul\":1160:1193   */\n  tag_30\n  jump\t// in\ntag_50:\n    /* \"#utility.yul\":1056:1199   */\n  swap3\n  swap2\n  pop\n  pop\n  jump\t// out\n    /* \"#utility.yul\":1205:1868   */\ntag_3:\n    /* \"#utility.yul\":1293:1299   */\n  0x00\n    /* \"#utility.yul\":1301:1307   */\n  0x00\n    /* \"#utility.yul\":1309:1315   */\n  0x00\n    /* \"#utility.yul\":1358:1360   */\n  0x60\n    /* \"#utility.yul\":1346:1355   */\n  dup5\n    /* \"#utility.yul\":1337:1344   */\n  dup7\n    /* \"#utility.yul\":1333:1356   */\n  sub\n    /* \"#utility.yul\":1329:1361   */\n  slt\n    /* \"#utility.yul\":1326:1445   */\n  iszero\n  tag_52\n  jumpi\n    /* \"#utility.yul\":1364:1443   */\n  tag_53\n  tag_23\n  jump\t// in\ntag_53:\n    /* \"#utility.yul\":1326:1445   */\ntag_52:\n    /* \"#utility.yul\":1484:1485   */\n  0x00\n    /* \"#utility.yul\":1509:1573   */\n  tag_54\n    /* \"#utility.yul\":1565:1572   */\n  dup7\n    /* \"#utility.yul\":1556:1562   */\n  dup3\n    /* \"#utility.yul\":1545:1554   */\n  dup8\n    /* \"#utility.yul\":1541:1563   */\n  add\n    /* \"#utility.yul\":1509:1573   */\n  tag_28\n  jump\t// in\ntag_54:\n    /* \"#utility.yul\":1499:1573   */\n  swap4\n  pop\n    /* \"#utility.yul\":1455:1583   */\n  pop\n    /* \"#utility.yul\":1622:1624   */\n  0x20\n    /* \"#utility.yul\":1648:1712   */\n  tag_55\n    /* \"#utility.yul\":1704:1711   */\n  dup7\n    /* \"#utility.yul\":1695:1701   */\n  dup3\n    /* \"#utility.yul\":1684:1693   */\n  dup8\n    /* \"#utility.yul\":1680:1702   */\n  add\n    /* \"#utility.yul\":1648:1712   */\n  tag_28\n  jump\t// in\ntag_55:\n    /* \"#utility.yul\":1638:1712   */\n  swap3\n  pop\n    /* \"#utility.yul\":1593:1722   */\n  pop\n    /* \"#utility.yul\":1761:1763   */\n  0x40\n    /* \"#utility.yul\":1787:1851   */\n  tag_56\n    /* \"#utility.yul\":1843:1850   */\n  dup7\n    /* \"#utility.yul\":1834:1840   */\n  dup3\n    /* \"#utility.yul\":1823:1832   */\n  dup8\n    /* \"#utility.yul\":1819:1841   */\n  add\n    /* \"#utility.yul\":1787:1851   */\n  tag_31\n  jump\t// in\ntag_56:\n    /* \"#utility.yul\":1777:1851   */\n  swap2\n  pop\n    /* \"#utility.yul\":1732:1861   */\n  pop\n    /* \"#utility.yul\":1205:1868   */\n  swap3\n  pop\n  swap3\n  pop\n  swap3\n  jump\t// out\n    /* \"#utility.yul\":1874:1992   */\ntag_32:\n    /* \"#utility.yul\":1961:1985   */\n  tag_58\n    /* \"#utility.yul\":1979:1984   */\n  dup2\n    /* \"#utility.yul\":1961:1985   */\n  tag_26\n  jump\t// in\ntag_58:\n    /* \"#utility.yul\":1956:1959   */\n  dup3\n    /* \"#utility.yul\":1949:1986   */\n  mstore\n    /* \"#utility.yul\":1874:1992   */\n  pop\n  pop\n  jump\t// out\n    /* \"#utility.yul\":1998:2220   */\ntag_9:\n    /* \"#utility.yul\":2091:2095   */\n  0x00\n    /* \"#utility.yul\":2129:2131   */\n  0x20\n    /* \"#utility.yul\":2118:2127   */\n  dup3\n    /* \"#utility.yul\":2114:2132   */\n  add\n    /* \"#utility.yul\":2106:2132   */\n  swap1\n  pop\n    /* \"#utility.yul\":2142:2213   */\n  tag_60\n    /* \"#utility.yul\":2210:2211   */\n  0x00\n    /* \"#utility.yul\":2199:2208   */\n  dup4\n    /* \"#utility.yul\":2195:2212   */\n  add\n    /* \"#utility.yul\":2186:2192   */\n  dup5\n    /* \"#utility.yul\":2142:2213   */\n  tag_32\n  jump\t// in\ntag_60:\n    /* \"#utility.yul\":1998:2220   */\n  swap3\n  swap2\n  pop\n  pop\n  jump\t// out\n    /* \"#utility.yul\":2226:2406   */\ntag_15:\n    /* \"#utility.yul\":2274:2351   */\n  0x4e487b7100000000000000000000000000000000000000000000000000000000\n    /* \"#utility.yul\":2271:2272   */\n  0x00\n    /* \"#utility.yul\":2264:2352   */\n  mstore\n    /* \"#utility.yul\":2371:2375   */\n  0x32\n    /* \"#utility.yul\":2368:2369   */\n  0x04\n    /* \"#utility.yul\":2361:2376   */\n  mstore\n    /* \"#utility.yul\":2395:2399   */\n  0x24\n    /* \"#utility.yul\":2392:2393   */\n  0x00\n    /* \"#utility.yul\":2385:2400   */\n  revert\n    /* \"FacctoryContract/WagerContract.sol\":218:12206  contract Market is Ownable {... */\ntag_20:\n  dataSize(sub_0)\n  dup1\n  dataOffset(sub_0)\n  0x00\n  codecopy\n  0x00\n  return\nstop\n\nsub_0: assembly {\n        /* \"FacctoryContract/WagerContract.sol\":218:12206  contract Market is Ownable {... */\n      mstore(0x40, 0x80)\n      callvalue\n      dup1\n      iszero\n      tag_1\n      jumpi\n      revert(0x00, 0x00)\n    tag_1:\n      pop\n      jumpi(tag_2, lt(calldatasize, 0x04))\n      shr(0xe0, calldataload(0x00))\n      dup1\n      0x6ffcc719\n      gt\n      tag_23\n      jumpi\n      dup1\n      0xb677d9d2\n      gt\n      tag_24\n      jumpi\n      dup1\n      0xb677d9d2\n      eq\n      tag_18\n      jumpi\n      dup1\n      0xbff1f9e1\n      eq\n      tag_19\n      jumpi\n      dup1\n      0xc4351386\n      eq\n      tag_20\n      jumpi\n      dup1\n      0xf2fde38b\n      eq\n      tag_21\n      jumpi\n      dup1\n      0xfbea0b06\n      eq\n      tag_22\n      jumpi\n      jump(tag_2)\n    tag_24:\n      dup1\n      0x6ffcc719\n      eq\n      tag_13\n      jumpi\n      dup1\n      0x715018a6\n      eq\n      tag_14\n      jumpi\n      dup1\n      0x84b5aca6\n      eq\n      tag_15\n      jumpi\n      dup1\n      0x8da5cb5b\n      eq\n      tag_16\n      jumpi\n      dup1\n      0xb3c740e8\n      eq\n      tag_17\n      jumpi\n      jump(tag_2)\n    tag_23:\n      dup1\n      0x21d0d9af\n      gt\n      tag_25\n      jumpi\n      dup1\n      0x21d0d9af\n      eq\n      tag_8\n      jumpi\n      dup1\n      0x3774ca25\n      eq\n      tag_9\n      jumpi\n      dup1\n      0x456e62ba\n      eq\n      tag_10\n      jumpi\n      dup1\n      0x61d464ef\n      eq\n      tag_11\n      jumpi\n      dup1\n      0x6399d03d\n      eq\n      tag_12\n      jumpi\n      jump(tag_2)\n    tag_25:\n      dup1\n      0x08ef962e\n      eq\n      tag_3\n      jumpi\n      dup1\n      0x0efa82f6\n      eq\n      tag_4\n      jumpi\n      dup1\n      0x11eac855\n      eq\n      tag_5\n      jumpi\n      dup1\n      0x1959a002\n      eq\n      tag_6\n      jumpi\n      dup1\n      0x208c86a4\n      eq\n      tag_7\n      jumpi\n    tag_2:\n      revert(0x00, 0x00)\n        /* \"FacctoryContract/WagerContract.sol\":953:996  mapping(uint256 => address) public eachUser */\n    tag_3:\n      tag_26\n      0x04\n      dup1\n      calldatasize\n      sub\n      dup2\n      add\n      swap1\n      tag_27\n      swap2\n      swap1\n      tag_28\n      jump\t// in\n    tag_27:\n      tag_29\n      jump\t// in\n    tag_26:\n      mload(0x40)\n      tag_30\n      swap2\n      swap1\n      tag_31\n      jump\t// in\n    tag_30:\n      mload(0x40)\n      dup1\n      swap2\n      sub\n      swap1\n      return\n        /* \"FacctoryContract/WagerContract.sol\":12065:12201  function userBetOn(address _user, uint256 _betIndex) public view returns (bool) {... */\n    tag_4:\n      tag_32\n      0x04\n      dup1\n      calldatasize\n      sub\n      dup2\n      add\n      swap1\n      tag_33\n      swap2\n      swap1\n      tag_34\n      jump\t// in\n    tag_33:\n      tag_35\n      jump\t// in\n    tag_32:\n      mload(0x40)\n      tag_36\n      swap2\n      swap1\n      tag_37\n      jump\t// in\n    tag_36:\n      mload(0x40)\n      dup1\n      swap2\n      sub\n      swap1\n      return\n        /* \"FacctoryContract/WagerContract.sol\":252:274  ERC20 public usdcToken */\n    tag_5:\n      tag_38\n      tag_39\n      jump\t// in\n    tag_38:\n      mload(0x40)\n      tag_40\n      swap2\n      swap1\n      tag_41\n      jump\t// in\n    tag_40:\n      mload(0x40)\n      dup1\n      swap2\n      sub\n      swap1\n      return\n        /* \"FacctoryContract/WagerContract.sol\":1002:1046  mapping(address => UserInfo) public userInfo */\n    tag_6:\n      tag_42\n      0x04\n      dup1\n      calldatasize\n      sub\n      dup2\n      add\n      swap1\n      tag_43\n      swap2\n      swap1\n      tag_44\n      jump\t// in\n    tag_43:\n      tag_45\n      jump\t// in\n    tag_42:\n      mload(0x40)\n      tag_46\n      swap6\n      swap5\n      swap4\n      swap3\n      swap2\n      swap1\n      tag_47\n      jump\t// in\n    tag_46:\n      mload(0x40)\n      dup1\n      swap2\n      sub\n      swap1\n      return\n        /* \"FacctoryContract/WagerContract.sol\":11385:11562  function getInitialPrices() public view returns (uint256, uint256) {... */\n    tag_7:\n      tag_48\n      tag_49\n      jump\t// in\n    tag_48:\n      mload(0x40)\n      tag_50\n      swap3\n      swap2\n      swap1\n      tag_51\n      jump\t// in\n    tag_50:\n      mload(0x40)\n      dup1\n      swap2\n      sub\n      swap1\n      return\n        /* \"FacctoryContract/WagerContract.sol\":3765:4519  function PriceCalculation(uint256 totalBetsOnNo, uint256 totalBetsOnYes) public view returns(uint256, uint256){... */\n    tag_8:\n      tag_52\n      0x04\n      dup1\n      calldatasize\n      sub\n      dup2\n      add\n      swap1\n      tag_53\n      swap2\n      swap1\n      tag_54\n      jump\t// in\n    tag_53:\n      tag_55\n      jump\t// in\n    tag_52:\n      mload(0x40)\n      tag_56\n      swap3\n      swap2\n      swap1\n      tag_51\n      jump\t// in\n    tag_56:\n      mload(0x40)\n      dup1\n      swap2\n      sub\n      swap1\n      return\n        /* \"FacctoryContract/WagerContract.sol\":11569:12059  function readSellInfo(address _owner, uint256 _id) public view returns (... */\n    tag_9:\n      tag_57\n      0x04\n      dup1\n      calldatasize\n      sub\n      dup2\n      add\n      swap1\n      tag_58\n      swap2\n      swap1\n      tag_34\n      jump\t// in\n    tag_58:\n      tag_59\n      jump\t// in\n    tag_57:\n      mload(0x40)\n      tag_60\n      swap7\n      swap6\n      swap5\n      swap4\n      swap3\n      swap2\n      swap1\n      tag_61\n      jump\t// in\n    tag_60:\n      mload(0x40)\n      dup1\n      swap2\n      sub\n      swap1\n      return\n        /* \"FacctoryContract/WagerContract.sol\":4528:5860  function sellShare(uint256 _amount, uint256 _price, uint256 _sellOf) external {... */\n    tag_10:\n      tag_62\n      0x04\n      dup1\n      calldatasize\n      sub\n      dup2\n      add\n      swap1\n      tag_63\n      swap2\n      swap1\n      tag_64\n      jump\t// in\n    tag_63:\n      tag_65\n      jump\t// in\n    tag_62:\n      stop\n        /* \"FacctoryContract/WagerContract.sol\":1106:1170  mapping(address => mapping(uint256 => SellInfo)) public sellInfo */\n    tag_11:\n      tag_66\n      0x04\n      dup1\n      calldatasize\n      sub\n      dup2\n      add\n      swap1\n      tag_67\n      swap2\n      swap1\n      tag_34\n      jump\t// in\n    tag_67:\n      tag_68\n      jump\t// in\n    tag_66:\n      mload(0x40)\n      tag_69\n      swap7\n      swap6\n      swap5\n      swap4\n      swap3\n      swap2\n      swap1\n      tag_61\n      jump\t// in\n    tag_69:\n      mload(0x40)\n      dup1\n      swap2\n      sub\n      swap1\n      return\n        /* \"FacctoryContract/WagerContract.sol\":7351:10104  function resolveMarket(uint256 winningIndex) external   {... */\n    tag_12:\n      tag_70\n      0x04\n      dup1\n      calldatasize\n      sub\n      dup2\n      add\n      swap1\n      tag_71\n      swap2\n      swap1\n      tag_28\n      jump\t// in\n    tag_71:\n      tag_72\n      jump\t// in\n    tag_70:\n      stop\n        /* \"FacctoryContract/WagerContract.sol\":2438:3758  function bet(uint256 _amount, uint256 _betOn) external {... */\n    tag_13:\n      tag_73\n      0x04\n      dup1\n      calldatasize\n      sub\n      dup2\n      add\n      swap1\n      tag_74\n      swap2\n      swap1\n      tag_54\n      jump\t// in\n    tag_74:\n      tag_75\n      jump\t// in\n    tag_73:\n      stop\n        /* \"@openzeppelin/contracts/access/Ownable.sol\":2293:2394  function renounceOwnership() public virtual onlyOwner {... */\n    tag_14:\n      tag_76\n      tag_77\n      jump\t// in\n    tag_76:\n      stop\n        /* \"FacctoryContract/WagerContract.sol\":11071:11379  function calculateInvestment(uint256 shares, uint256 _betOn) public view returns (uint256) {... */\n    tag_15:\n      tag_78\n      0x04\n      dup1\n      calldatasize\n      sub\n      dup2\n      add\n      swap1\n      tag_79\n      swap2\n      swap1\n      tag_54\n      jump\t// in\n    tag_79:\n      tag_80\n      jump\t// in\n    tag_78:\n      mload(0x40)\n      tag_81\n      swap2\n      swap1\n      tag_82\n      jump\t// in\n    tag_81:\n      mload(0x40)\n      dup1\n      swap2\n      sub\n      swap1\n      return\n        /* \"@openzeppelin/contracts/access/Ownable.sol\":1638:1723  function owner() public view virtual returns (address) {... */\n    tag_16:\n      tag_83\n      tag_84\n      jump\t// in\n    tag_83:\n      mload(0x40)\n      tag_85\n      swap2\n      swap1\n      tag_31\n      jump\t// in\n    tag_85:\n      mload(0x40)\n      dup1\n      swap2\n      sub\n      swap1\n      return\n        /* \"FacctoryContract/WagerContract.sol\":10115:10430  function calculateShares(uint256 _amount, uint256 _betOn ) public view returns (uint256) {... */\n    tag_17:\n      tag_86\n      0x04\n      dup1\n      calldatasize\n      sub\n      dup2\n      add\n      swap1\n      tag_87\n      swap2\n      swap1\n      tag_54\n      jump\t// in\n    tag_87:\n      tag_88\n      jump\t// in\n    tag_86:\n      mload(0x40)\n      tag_89\n      swap2\n      swap1\n      tag_82\n      jump\t// in\n    tag_89:\n      mload(0x40)\n      dup1\n      swap2\n      sub\n      swap1\n      return\n        /* \"FacctoryContract/WagerContract.sol\":915:946  uint256 public profitPercentage */\n    tag_18:\n      tag_90\n      tag_91\n      jump\t// in\n    tag_90:\n      mload(0x40)\n      tag_92\n      swap2\n      swap1\n      tag_82\n      jump\t// in\n    tag_92:\n      mload(0x40)\n      dup1\n      swap2\n      sub\n      swap1\n      return\n        /* \"FacctoryContract/WagerContract.sol\":884:909  uint256 public totalUsers */\n    tag_19:\n      tag_93\n      tag_94\n      jump\t// in\n    tag_93:\n      mload(0x40)\n      tag_95\n      swap2\n      swap1\n      tag_82\n      jump\t// in\n    tag_95:\n      mload(0x40)\n      dup1\n      swap2\n      sub\n      swap1\n      return\n        /* \"FacctoryContract/WagerContract.sol\":1052:1100  mapping(address => MarketInfo) public marketInfo */\n    tag_20:\n      tag_96\n      0x04\n      dup1\n      calldatasize\n      sub\n      dup2\n      add\n      swap1\n      tag_97\n      swap2\n      swap1\n      tag_44\n      jump\t// in\n    tag_97:\n      tag_98\n      jump\t// in\n    tag_96:\n      mload(0x40)\n      tag_99\n      swap7\n      swap6\n      swap5\n      swap4\n      swap3\n      swap2\n      swap1\n      tag_100\n      jump\t// in\n    tag_99:\n      mload(0x40)\n      dup1\n      swap2\n      sub\n      swap1\n      return\n        /* \"@openzeppelin/contracts/access/Ownable.sol\":2543:2758  function transferOwnership(address newOwner) public virtual onlyOwner {... */\n    tag_21:\n      tag_101\n      0x04\n      dup1\n      calldatasize\n      sub\n      dup2\n      add\n      swap1\n      tag_102\n      swap2\n      swap1\n      tag_44\n      jump\t// in\n    tag_102:\n      tag_103\n      jump\t// in\n    tag_101:\n      stop\n        /* \"FacctoryContract/WagerContract.sol\":5866:7339  function buyShare(uint256 _listNo, address _owner) external {... */\n    tag_22:\n      tag_104\n      0x04\n      dup1\n      calldatasize\n      sub\n      dup2\n      add\n      swap1\n      tag_105\n      swap2\n      swap1\n      tag_106\n      jump\t// in\n    tag_105:\n      tag_107\n      jump\t// in\n    tag_104:\n      stop\n        /* \"FacctoryContract/WagerContract.sol\":953:996  mapping(uint256 => address) public eachUser */\n    tag_29:\n      mstore(0x20, 0x04)\n      dup1\n      0x00\n      mstore\n      keccak256(0x00, 0x40)\n      0x00\n      swap2\n      pop\n      sload\n      swap1\n      0x0100\n      exp\n      swap1\n      div\n      0xffffffffffffffffffffffffffffffffffffffff\n      and\n      dup2\n      jump\t// out\n        /* \"FacctoryContract/WagerContract.sol\":12065:12201  function userBetOn(address _user, uint256 _betIndex) public view returns (bool) {... */\n    tag_35:\n        /* \"FacctoryContract/WagerContract.sol\":12139:12143  bool */\n      0x00\n        /* \"FacctoryContract/WagerContract.sol\":12162:12170  userInfo */\n      0x05\n        /* \"FacctoryContract/WagerContract.sol\":12162:12177  userInfo[_user] */\n      0x00\n        /* \"FacctoryContract/WagerContract.sol\":12171:12176  _user */\n      dup5\n        /* \"FacctoryContract/WagerContract.sol\":12162:12177  userInfo[_user] */\n      0xffffffffffffffffffffffffffffffffffffffff\n      and\n      0xffffffffffffffffffffffffffffffffffffffff\n      and\n      dup2\n      mstore\n      0x20\n      add\n      swap1\n      dup2\n      mstore\n      0x20\n      add\n      0x00\n      keccak256\n        /* \"FacctoryContract/WagerContract.sol\":12162:12183  userInfo[_user].betOn */\n      0x05\n      add\n        /* \"FacctoryContract/WagerContract.sol\":12162:12194  userInfo[_user].betOn[_betIndex] */\n      0x00\n        /* \"FacctoryContract/WagerContract.sol\":12184:12193  _betIndex */\n      dup4\n        /* \"FacctoryContract/WagerContract.sol\":12162:12194  userInfo[_user].betOn[_betIndex] */\n      dup2\n      mstore\n      0x20\n      add\n      swap1\n      dup2\n      mstore\n      0x20\n      add\n      0x00\n      keccak256\n      0x00\n      swap1\n      sload\n      swap1\n      0x0100\n      exp\n      swap1\n      div\n      0xff\n      and\n        /* \"FacctoryContract/WagerContract.sol\":12155:12194  return userInfo[_user].betOn[_betIndex] */\n      swap1\n      pop\n        /* \"FacctoryContract/WagerContract.sol\":12065:12201  function userBetOn(address _user, uint256 _betIndex) public view returns (bool) {... */\n      swap3\n      swap2\n      pop\n      pop\n      jump\t// out\n        /* \"FacctoryContract/WagerContract.sol\":252:274  ERC20 public usdcToken */\n    tag_39:\n      0x01\n      0x00\n      swap1\n      sload\n      swap1\n      0x0100\n      exp\n      swap1\n      div\n      0xffffffffffffffffffffffffffffffffffffffff\n      and\n      dup2\n      jump\t// out\n        /* \"FacctoryContract/WagerContract.sol\":1002:1046  mapping(address => UserInfo) public userInfo */\n    tag_45:\n      mstore(0x20, 0x05)\n      dup1\n      0x00\n      mstore\n      keccak256(0x00, 0x40)\n      0x00\n      swap2\n      pop\n      swap1\n      pop\n      dup1\n      0x00\n      add\n      sload\n      swap1\n      dup1\n      0x01\n      add\n      sload\n      swap1\n      dup1\n      0x02\n      add\n      sload\n      swap1\n      dup1\n      0x03\n      add\n      sload\n      swap1\n      dup1\n      0x04\n      add\n      sload\n      swap1\n      pop\n      dup6\n      jump\t// out\n        /* \"FacctoryContract/WagerContract.sol\":11385:11562  function getInitialPrices() public view returns (uint256, uint256) {... */\n    tag_49:\n        /* \"FacctoryContract/WagerContract.sol\":11434:11441  uint256 */\n      0x00\n        /* \"FacctoryContract/WagerContract.sol\":11443:11450  uint256 */\n      0x00\n        /* \"FacctoryContract/WagerContract.sol\":11470:11480  marketInfo */\n      0x06\n        /* \"FacctoryContract/WagerContract.sol\":11470:11495  marketInfo[address(this)] */\n      0x00\n        /* \"FacctoryContract/WagerContract.sol\":11489:11493  this */\n      address\n        /* \"FacctoryContract/WagerContract.sol\":11470:11495  marketInfo[address(this)] */\n      0xffffffffffffffffffffffffffffffffffffffff\n      and\n      0xffffffffffffffffffffffffffffffffffffffff\n      and\n      dup2\n      mstore\n      0x20\n      add\n      swap1\n      dup2\n      mstore\n      0x20\n      add\n      0x00\n      keccak256\n        /* \"FacctoryContract/WagerContract.sol\":11470:11508  marketInfo[address(this)].initialPrice */\n      0x04\n      add\n        /* \"FacctoryContract/WagerContract.sol\":11509:11510  0 */\n      0x00\n        /* \"FacctoryContract/WagerContract.sol\":11470:11511  marketInfo[address(this)].initialPrice[0] */\n      0x02\n      dup2\n      lt\n      tag_110\n      jumpi\n      tag_111\n      tag_112\n      jump\t// in\n    tag_111:\n    tag_110:\n      add\n      sload\n        /* \"FacctoryContract/WagerContract.sol\":11513:11523  marketInfo */\n      0x06\n        /* \"FacctoryContract/WagerContract.sol\":11513:11538  marketInfo[address(this)] */\n      0x00\n        /* \"FacctoryContract/WagerContract.sol\":11532:11536  this */\n      address\n        /* \"FacctoryContract/WagerContract.sol\":11513:11538  marketInfo[address(this)] */\n      0xffffffffffffffffffffffffffffffffffffffff\n      and\n      0xffffffffffffffffffffffffffffffffffffffff\n      and\n      dup2\n      mstore\n      0x20\n      add\n      swap1\n      dup2\n      mstore\n      0x20\n      add\n      0x00\n      keccak256\n        /* \"FacctoryContract/WagerContract.sol\":11513:11551  marketInfo[address(this)].initialPrice */\n      0x04\n      add\n        /* \"FacctoryContract/WagerContract.sol\":11552:11553  1 */\n      0x01\n        /* \"FacctoryContract/WagerContract.sol\":11513:11554  marketInfo[address(this)].initialPrice[1] */\n      0x02\n      dup2\n      lt\n      tag_114\n      jumpi\n      tag_115\n      tag_112\n      jump\t// in\n    tag_115:\n    tag_114:\n      add\n      sload\n        /* \"FacctoryContract/WagerContract.sol\":11462:11555  return (marketInfo[address(this)].initialPrice[0], marketInfo[address(this)].initialPrice[1]) */\n      swap2\n      pop\n      swap2\n      pop\n        /* \"FacctoryContract/WagerContract.sol\":11385:11562  function getInitialPrices() public view returns (uint256, uint256) {... */\n      swap1\n      swap2\n      jump\t// out\n        /* \"FacctoryContract/WagerContract.sol\":3765:4519  function PriceCalculation(uint256 totalBetsOnNo, uint256 totalBetsOnYes) public view returns(uint256, uint256){... */\n    tag_55:\n        /* \"FacctoryContract/WagerContract.sol\":3858:3865  uint256 */\n      0x00\n        /* \"FacctoryContract/WagerContract.sol\":3867:3874  uint256 */\n      0x00\n        /* \"FacctoryContract/WagerContract.sol\":3895:3918  uint256 originalNoPrice */\n      0x00\n        /* \"FacctoryContract/WagerContract.sol\":3921:3931  marketInfo */\n      0x06\n        /* \"FacctoryContract/WagerContract.sol\":3921:3946  marketInfo[address(this)] */\n      0x00\n        /* \"FacctoryContract/WagerContract.sol\":3940:3944  this */\n      address\n        /* \"FacctoryContract/WagerContract.sol\":3921:3946  marketInfo[address(this)] */\n      0xffffffffffffffffffffffffffffffffffffffff\n      and\n      0xffffffffffffffffffffffffffffffffffffffff\n      and\n      dup2\n      mstore\n      0x20\n      add\n      swap1\n      dup2\n      mstore\n      0x20\n      add\n      0x00\n      keccak256\n        /* \"FacctoryContract/WagerContract.sol\":3921:3959  marketInfo[address(this)].initialPrice */\n      0x04\n      add\n        /* \"FacctoryContract/WagerContract.sol\":3960:3961  0 */\n      0x00\n        /* \"FacctoryContract/WagerContract.sol\":3921:3962  marketInfo[address(this)].initialPrice[0] */\n      0x02\n      dup2\n      lt\n      tag_118\n      jumpi\n      tag_119\n      tag_112\n      jump\t// in\n    tag_119:\n    tag_118:\n      add\n      sload\n        /* \"FacctoryContract/WagerContract.sol\":3895:3962  uint256 originalNoPrice = marketInfo[address(this)].initialPrice[0] */\n      swap1\n      pop\n        /* \"FacctoryContract/WagerContract.sol\":3973:3997  uint256 originalYesPrice */\n      0x00\n        /* \"FacctoryContract/WagerContract.sol\":4000:4010  marketInfo */\n      0x06\n        /* \"FacctoryContract/WagerContract.sol\":4000:4025  marketInfo[address(this)] */\n      0x00\n        /* \"FacctoryContract/WagerContract.sol\":4019:4023  this */\n      address\n        /* \"FacctoryContract/WagerContract.sol\":4000:4025  marketInfo[address(this)] */\n      0xffffffffffffffffffffffffffffffffffffffff\n      and\n      0xffffffffffffffffffffffffffffffffffffffff\n      and\n      dup2\n      mstore\n      0x20\n      add\n      swap1\n      dup2\n      mstore\n      0x20\n      add\n      0x00\n      keccak256\n        /* \"FacctoryContract/WagerContract.sol\":4000:4038  marketInfo[address(this)].initialPrice */\n      0x04\n      add\n        /* \"FacctoryContract/WagerContract.sol\":4039:4040  1 */\n      0x01\n        /* \"FacctoryContract/WagerContract.sol\":4000:4041  marketInfo[address(this)].initialPrice[1] */\n      0x02\n      dup2\n      lt\n      tag_121\n      jumpi\n      tag_122\n      tag_112\n      jump\t// in\n    tag_122:\n    tag_121:\n      add\n      sload\n        /* \"FacctoryContract/WagerContract.sol\":3973:4041  uint256 originalYesPrice = marketInfo[address(this)].initialPrice[1] */\n      swap1\n      pop\n        /* \"FacctoryContract/WagerContract.sol\":4062:4079  uint256 totalBets */\n      0x00\n        /* \"FacctoryContract/WagerContract.sol\":4098:4112  totalBetsOnYes */\n      dup6\n        /* \"FacctoryContract/WagerContract.sol\":4082:4095  totalBetsOnNo */\n      dup8\n        /* \"FacctoryContract/WagerContract.sol\":4082:4112  totalBetsOnNo + totalBetsOnYes */\n      tag_124\n      swap2\n      swap1\n      tag_125\n      jump\t// in\n    tag_124:\n        /* \"FacctoryContract/WagerContract.sol\":4062:4112  uint256 totalBets = totalBetsOnNo + totalBetsOnYes */\n      swap1\n      pop\n        /* \"FacctoryContract/WagerContract.sol\":4143:4144  0 */\n      0x00\n        /* \"FacctoryContract/WagerContract.sol\":4126:4139  totalBetsOnNo */\n      dup8\n        /* \"FacctoryContract/WagerContract.sol\":4126:4144  totalBetsOnNo != 0 */\n      eq\n        /* \"FacctoryContract/WagerContract.sol\":4123:4286  if(totalBetsOnNo != 0){... */\n      tag_126\n      jumpi\n        /* \"FacctoryContract/WagerContract.sol\":4214:4223  totalBets */\n      dup1\n        /* \"FacctoryContract/WagerContract.sol\":4208:4211  100 */\n      0x64\n        /* \"FacctoryContract/WagerContract.sol\":4192:4205  totalBetsOnNo */\n      dup9\n        /* \"FacctoryContract/WagerContract.sol\":4192:4211  totalBetsOnNo * 100 */\n      tag_127\n      swap2\n      swap1\n      tag_128\n      jump\t// in\n    tag_127:\n        /* \"FacctoryContract/WagerContract.sol\":4191:4224  (totalBetsOnNo * 100)/(totalBets) */\n      tag_129\n      swap2\n      swap1\n      tag_130\n      jump\t// in\n    tag_129:\n        /* \"FacctoryContract/WagerContract.sol\":4172:4225  originalNoPrice = ((totalBetsOnNo * 100)/(totalBets)) */\n      swap3\n      pop\n        /* \"FacctoryContract/WagerContract.sol\":4258:4275  10000000000000000 */\n      0x2386f26fc10000\n        /* \"FacctoryContract/WagerContract.sol\":4239:4275  originalNoPrice *= 10000000000000000 */\n      dup4\n      tag_131\n      swap2\n      swap1\n      tag_128\n      jump\t// in\n    tag_131:\n      swap3\n      pop\n        /* \"FacctoryContract/WagerContract.sol\":4123:4286  if(totalBetsOnNo != 0){... */\n    tag_126:\n        /* \"FacctoryContract/WagerContract.sol\":4316:4317  0 */\n      0x00\n        /* \"FacctoryContract/WagerContract.sol\":4298:4312  totalBetsOnYes */\n      dup7\n        /* \"FacctoryContract/WagerContract.sol\":4298:4317  totalBetsOnYes != 0 */\n      eq\n        /* \"FacctoryContract/WagerContract.sol\":4295:4461  if(totalBetsOnYes != 0){... */\n      tag_132\n      jumpi\n        /* \"FacctoryContract/WagerContract.sol\":4388:4397  totalBets */\n      dup1\n        /* \"FacctoryContract/WagerContract.sol\":4382:4385  100 */\n      0x64\n        /* \"FacctoryContract/WagerContract.sol\":4365:4379  totalBetsOnYes */\n      dup8\n        /* \"FacctoryContract/WagerContract.sol\":4365:4385  totalBetsOnYes * 100 */\n      tag_133\n      swap2\n      swap1\n      tag_128\n      jump\t// in\n    tag_133:\n        /* \"FacctoryContract/WagerContract.sol\":4364:4398  (totalBetsOnYes * 100)/(totalBets) */\n      tag_134\n      swap2\n      swap1\n      tag_130\n      jump\t// in\n    tag_134:\n        /* \"FacctoryContract/WagerContract.sol\":4344:4399  originalYesPrice = ((totalBetsOnYes * 100)/(totalBets)) */\n      swap2\n      pop\n        /* \"FacctoryContract/WagerContract.sol\":4433:4450  10000000000000000 */\n      0x2386f26fc10000\n        /* \"FacctoryContract/WagerContract.sol\":4413:4450  originalYesPrice *= 10000000000000000 */\n      dup3\n      tag_135\n      swap2\n      swap1\n      tag_128\n      jump\t// in\n    tag_135:\n      swap2\n      pop\n        /* \"FacctoryContract/WagerContract.sol\":4295:4461  if(totalBetsOnYes != 0){... */\n    tag_132:\n        /* \"FacctoryContract/WagerContract.sol\":4478:4493  originalNoPrice */\n      dup3\n        /* \"FacctoryContract/WagerContract.sol\":4495:4511  originalYesPrice */\n      dup3\n        /* \"FacctoryContract/WagerContract.sol\":4471:4512  return(originalNoPrice, originalYesPrice) */\n      swap5\n      pop\n      swap5\n      pop\n      pop\n      pop\n      pop\n        /* \"FacctoryContract/WagerContract.sol\":3765:4519  function PriceCalculation(uint256 totalBetsOnNo, uint256 totalBetsOnYes) public view returns(uint256, uint256){... */\n      swap3\n      pop\n      swap3\n      swap1\n      pop\n      jump\t// out\n        /* \"FacctoryContract/WagerContract.sol\":11569:12059  function readSellInfo(address _owner, uint256 _id) public view returns (... */\n    tag_59:\n        /* \"FacctoryContract/WagerContract.sol\":11650:11659  bool list */\n      0x00\n        /* \"FacctoryContract/WagerContract.sol\":11669:11678  bool sold */\n      0x00\n        /* \"FacctoryContract/WagerContract.sol\":11688:11701  address owner */\n      0x00\n        /* \"FacctoryContract/WagerContract.sol\":11711:11724  uint256 price */\n      0x00\n        /* \"FacctoryContract/WagerContract.sol\":11734:11748  uint256 amount */\n      0x00\n        /* \"FacctoryContract/WagerContract.sol\":11758:11772  uint256 listOn */\n      0x00\n        /* \"FacctoryContract/WagerContract.sol\":11810:11818  sellInfo */\n      0x07\n        /* \"FacctoryContract/WagerContract.sol\":11810:11826  sellInfo[_owner] */\n      0x00\n        /* \"FacctoryContract/WagerContract.sol\":11819:11825  _owner */\n      dup10\n        /* \"FacctoryContract/WagerContract.sol\":11810:11826  sellInfo[_owner] */\n      0xffffffffffffffffffffffffffffffffffffffff\n      and\n      0xffffffffffffffffffffffffffffffffffffffff\n      and\n      dup2\n      mstore\n      0x20\n      add\n      swap1\n      dup2\n      mstore\n      0x20\n      add\n      0x00\n      keccak256\n        /* \"FacctoryContract/WagerContract.sol\":11810:11831  sellInfo[_owner][_id] */\n      0x00\n        /* \"FacctoryContract/WagerContract.sol\":11827:11830  _id */\n      dup9\n        /* \"FacctoryContract/WagerContract.sol\":11810:11831  sellInfo[_owner][_id] */\n      dup2\n      mstore\n      0x20\n      add\n      swap1\n      dup2\n      mstore\n      0x20\n      add\n      0x00\n      keccak256\n        /* \"FacctoryContract/WagerContract.sol\":11810:11836  sellInfo[_owner][_id].list */\n      0x00\n      add\n      0x00\n      swap1\n      sload\n      swap1\n      0x0100\n      exp\n      swap1\n      div\n      0xff\n      and\n        /* \"FacctoryContract/WagerContract.sol\":11850:11858  sellInfo */\n      0x07\n        /* \"FacctoryContract/WagerContract.sol\":11850:11866  sellInfo[_owner] */\n      0x00\n        /* \"FacctoryContract/WagerContract.sol\":11859:11865  _owner */\n      dup11\n        /* \"FacctoryContract/WagerContract.sol\":11850:11866  sellInfo[_owner] */\n      0xffffffffffffffffffffffffffffffffffffffff\n      and\n      0xffffffffffffffffffffffffffffffffffffffff\n      and\n      dup2\n      mstore\n      0x20\n      add\n      swap1\n      dup2\n      mstore\n      0x20\n      add\n      0x00\n      keccak256\n        /* \"FacctoryContract/WagerContract.sol\":11850:11871  sellInfo[_owner][_id] */\n      0x00\n        /* \"FacctoryContract/WagerContract.sol\":11867:11870  _id */\n      dup10\n        /* \"FacctoryContract/WagerContract.sol\":11850:11871  sellInfo[_owner][_id] */\n      dup2\n      mstore\n      0x20\n      add\n      swap1\n      dup2\n      mstore\n      0x20\n      add\n      0x00\n      keccak256\n        /* \"FacctoryContract/WagerContract.sol\":11850:11876  sellInfo[_owner][_id].sold */\n      0x00\n      add\n      0x01\n      swap1\n      sload\n      swap1\n      0x0100\n      exp\n      swap1\n      div\n      0xff\n      and\n        /* \"FacctoryContract/WagerContract.sol\":11890:11898  sellInfo */\n      0x07\n        /* \"FacctoryContract/WagerContract.sol\":11890:11906  sellInfo[_owner] */\n      0x00\n        /* \"FacctoryContract/WagerContract.sol\":11899:11905  _owner */\n      dup12\n        /* \"FacctoryContract/WagerContract.sol\":11890:11906  sellInfo[_owner] */\n      0xffffffffffffffffffffffffffffffffffffffff\n      and\n      0xffffffffffffffffffffffffffffffffffffffff\n      and\n      dup2\n      mstore\n      0x20\n      add\n      swap1\n      dup2\n      mstore\n      0x20\n      add\n      0x00\n      keccak256\n        /* \"FacctoryContract/WagerContract.sol\":11890:11911  sellInfo[_owner][_id] */\n      0x00\n        /* \"FacctoryContract/WagerContract.sol\":11907:11910  _id */\n      dup11\n        /* \"FacctoryContract/WagerContract.sol\":11890:11911  sellInfo[_owner][_id] */\n      dup2\n      mstore\n      0x20\n      add\n      swap1\n      dup2\n      mstore\n      0x20\n      add\n      0x00\n      keccak256\n        /* \"FacctoryContract/WagerContract.sol\":11890:11917  sellInfo[_owner][_id].owner */\n      0x00\n      add\n      0x02\n      swap1\n      sload\n      swap1\n      0x0100\n      exp\n      swap1\n      div\n      0xffffffffffffffffffffffffffffffffffffffff\n      and\n        /* \"FacctoryContract/WagerContract.sol\":11931:11939  sellInfo */\n      0x07\n        /* \"FacctoryContract/WagerContract.sol\":11931:11947  sellInfo[_owner] */\n      0x00\n        /* \"FacctoryContract/WagerContract.sol\":11940:11946  _owner */\n      dup13\n        /* \"FacctoryContract/WagerContract.sol\":11931:11947  sellInfo[_owner] */\n      0xffffffffffffffffffffffffffffffffffffffff\n      and\n      0xffffffffffffffffffffffffffffffffffffffff\n      and\n      dup2\n      mstore\n      0x20\n      add\n      swap1\n      dup2\n      mstore\n      0x20\n      add\n      0x00\n      keccak256\n        /* \"FacctoryContract/WagerContract.sol\":11931:11952  sellInfo[_owner][_id] */\n      0x00\n        /* \"FacctoryContract/WagerContract.sol\":11948:11951  _id */\n      dup12\n        /* \"FacctoryContract/WagerContract.sol\":11931:11952  sellInfo[_owner][_id] */\n      dup2\n      mstore\n      0x20\n      add\n      swap1\n      dup2\n      mstore\n      0x20\n      add\n      0x00\n      keccak256\n        /* \"FacctoryContract/WagerContract.sol\":11931:11958  sellInfo[_owner][_id].price */\n      0x01\n      add\n      sload\n        /* \"FacctoryContract/WagerContract.sol\":11972:11980  sellInfo */\n      0x07\n        /* \"FacctoryContract/WagerContract.sol\":11972:11988  sellInfo[_owner] */\n      0x00\n        /* \"FacctoryContract/WagerContract.sol\":11981:11987  _owner */\n      dup14\n        /* \"FacctoryContract/WagerContract.sol\":11972:11988  sellInfo[_owner] */\n      0xffffffffffffffffffffffffffffffffffffffff\n      and\n      0xffffffffffffffffffffffffffffffffffffffff\n      and\n      dup2\n      mstore\n      0x20\n      add\n      swap1\n      dup2\n      mstore\n      0x20\n      add\n      0x00\n      keccak256\n        /* \"FacctoryContract/WagerContract.sol\":11972:11993  sellInfo[_owner][_id] */\n      0x00\n        /* \"FacctoryContract/WagerContract.sol\":11989:11992  _id */\n      dup13\n        /* \"FacctoryContract/WagerContract.sol\":11972:11993  sellInfo[_owner][_id] */\n      dup2\n      mstore\n      0x20\n      add\n      swap1\n      dup2\n      mstore\n      0x20\n      add\n      0x00\n      keccak256\n        /* \"FacctoryContract/WagerContract.sol\":11972:12000  sellInfo[_owner][_id].amount */\n      0x02\n      add\n      sload\n        /* \"FacctoryContract/WagerContract.sol\":12014:12022  sellInfo */\n      0x07\n        /* \"FacctoryContract/WagerContract.sol\":12014:12030  sellInfo[_owner] */\n      0x00\n        /* \"FacctoryContract/WagerContract.sol\":12023:12029  _owner */\n      dup15\n        /* \"FacctoryContract/WagerContract.sol\":12014:12030  sellInfo[_owner] */\n      0xffffffffffffffffffffffffffffffffffffffff\n      and\n      0xffffffffffffffffffffffffffffffffffffffff\n      and\n      dup2\n      mstore\n      0x20\n      add\n      swap1\n      dup2\n      mstore\n      0x20\n      add\n      0x00\n      keccak256\n        /* \"FacctoryContract/WagerContract.sol\":12014:12035  sellInfo[_owner][_id] */\n      0x00\n        /* \"FacctoryContract/WagerContract.sol\":12031:12034  _id */\n      dup14\n        /* \"FacctoryContract/WagerContract.sol\":12014:12035  sellInfo[_owner][_id] */\n      dup2\n      mstore\n      0x20\n      add\n      swap1\n      dup2\n      mstore\n      0x20\n      add\n      0x00\n      keccak256\n        /* \"FacctoryContract/WagerContract.sol\":12014:12042  sellInfo[_owner][_id].listOn */\n      0x03\n      add\n      sload\n        /* \"FacctoryContract/WagerContract.sol\":11789:12052  return (... */\n      swap6\n      pop\n      swap6\n      pop\n      swap6\n      pop\n      swap6\n      pop\n      swap6\n      pop\n      swap6\n      pop\n        /* \"FacctoryContract/WagerContract.sol\":11569:12059  function readSellInfo(address _owner, uint256 _id) public view returns (... */\n      swap3\n      swap6\n      pop\n      swap3\n      swap6\n      pop\n      swap3\n      swap6\n      jump\t// out\n        /* \"FacctoryContract/WagerContract.sol\":4528:5860  function sellShare(uint256 _amount, uint256 _price, uint256 _sellOf) external {... */\n    tag_65:\n        /* \"FacctoryContract/WagerContract.sol\":4639:4640  0 */\n      0x00\n        /* \"FacctoryContract/WagerContract.sol\":4628:4635  _sellOf */\n      dup2\n        /* \"FacctoryContract/WagerContract.sol\":4628:4640  _sellOf != 0 */\n      eq\n      iszero\n        /* \"FacctoryContract/WagerContract.sol\":4628:4656  _sellOf != 0 && _sellOf != 1 */\n      dup1\n      iszero\n      tag_138\n      jumpi\n      pop\n        /* \"FacctoryContract/WagerContract.sol\":4655:4656  1 */\n      0x01\n        /* \"FacctoryContract/WagerContract.sol\":4644:4651  _sellOf */\n      dup2\n        /* \"FacctoryContract/WagerContract.sol\":4644:4656  _sellOf != 1 */\n      eq\n      iszero\n        /* \"FacctoryContract/WagerContract.sol\":4628:4656  _sellOf != 0 && _sellOf != 1 */\n    tag_138:\n        /* \"FacctoryContract/WagerContract.sol\":4625:4711  if(_sellOf != 0 && _sellOf != 1){... */\n      iszero\n      tag_139\n      jumpi\n        /* \"FacctoryContract/WagerContract.sol\":4692:4699  _sellOf */\n      dup1\n        /* \"FacctoryContract/WagerContract.sol\":4678:4700  wrongBetIndex(_sellOf) */\n      mload(0x40)\n      0xd7acbe8900000000000000000000000000000000000000000000000000000000\n      dup2\n      mstore\n      0x04\n      add\n      tag_140\n      swap2\n      swap1\n      tag_82\n      jump\t// in\n    tag_140:\n      mload(0x40)\n      dup1\n      swap2\n      sub\n      swap1\n      revert\n        /* \"FacctoryContract/WagerContract.sol\":4625:4711  if(_sellOf != 0 && _sellOf != 1){... */\n    tag_139:\n        /* \"FacctoryContract/WagerContract.sol\":4734:4735  0 */\n      0x00\n        /* \"FacctoryContract/WagerContract.sol\":4723:4730  _amount */\n      dup4\n        /* \"FacctoryContract/WagerContract.sol\":4723:4735  _amount <= 0 */\n      gt\n        /* \"FacctoryContract/WagerContract.sol\":4720:4788  if(_amount <= 0){... */\n      tag_141\n      jumpi\n        /* \"FacctoryContract/WagerContract.sol\":4769:4776  _amount */\n      dup3\n        /* \"FacctoryContract/WagerContract.sol\":4757:4777  wrongAmount(_amount) */\n      mload(0x40)\n      0x2ff4783000000000000000000000000000000000000000000000000000000000\n      dup2\n      mstore\n      0x04\n      add\n      tag_142\n      swap2\n      swap1\n      tag_82\n      jump\t// in\n    tag_142:\n      mload(0x40)\n      dup1\n      swap2\n      sub\n      swap1\n      revert\n        /* \"FacctoryContract/WagerContract.sol\":4720:4788  if(_amount <= 0){... */\n    tag_141:\n        /* \"FacctoryContract/WagerContract.sol\":4809:4819  marketInfo */\n      0x06\n        /* \"FacctoryContract/WagerContract.sol\":4809:4834  marketInfo[address(this)] */\n      0x00\n        /* \"FacctoryContract/WagerContract.sol\":4828:4832  this */\n      address\n        /* \"FacctoryContract/WagerContract.sol\":4809:4834  marketInfo[address(this)] */\n      0xffffffffffffffffffffffffffffffffffffffff\n      and\n      0xffffffffffffffffffffffffffffffffffffffff\n      and\n      dup2\n      mstore\n      0x20\n      add\n      swap1\n      dup2\n      mstore\n      0x20\n      add\n      0x00\n      keccak256\n        /* \"FacctoryContract/WagerContract.sol\":4809:4843  marketInfo[address(this)].resolved */\n      0x00\n      add\n      0x00\n      swap1\n      sload\n      swap1\n      0x0100\n      exp\n      swap1\n      div\n      0xff\n      and\n        /* \"FacctoryContract/WagerContract.sol\":4806:4892  if(marketInfo[address(this)].resolved){... */\n      iszero\n      tag_143\n      jumpi\n        /* \"FacctoryContract/WagerContract.sol\":4865:4881  marketResolved() */\n      mload(0x40)\n      0x853fd42100000000000000000000000000000000000000000000000000000000\n      dup2\n      mstore\n      0x04\n      add\n      mload(0x40)\n      dup1\n      swap2\n      sub\n      swap1\n      revert\n        /* \"FacctoryContract/WagerContract.sol\":4806:4892  if(marketInfo[address(this)].resolved){... */\n    tag_143:\n        /* \"FacctoryContract/WagerContract.sol\":4906:4914  userInfo */\n      0x05\n        /* \"FacctoryContract/WagerContract.sol\":4906:4926  userInfo[msg.sender] */\n      0x00\n        /* \"FacctoryContract/WagerContract.sol\":4915:4925  msg.sender */\n      caller\n        /* \"FacctoryContract/WagerContract.sol\":4906:4926  userInfo[msg.sender] */\n      0xffffffffffffffffffffffffffffffffffffffff\n      and\n      0xffffffffffffffffffffffffffffffffffffffff\n      and\n      dup2\n      mstore\n      0x20\n      add\n      swap1\n      dup2\n      mstore\n      0x20\n      add\n      0x00\n      keccak256\n        /* \"FacctoryContract/WagerContract.sol\":4906:4932  userInfo[msg.sender].betOn */\n      0x05\n      add\n        /* \"FacctoryContract/WagerContract.sol\":4906:4941  userInfo[msg.sender].betOn[_sellOf] */\n      0x00\n        /* \"FacctoryContract/WagerContract.sol\":4933:4940  _sellOf */\n      dup3\n        /* \"FacctoryContract/WagerContract.sol\":4906:4941  userInfo[msg.sender].betOn[_sellOf] */\n      dup2\n      mstore\n      0x20\n      add\n      swap1\n      dup2\n      mstore\n      0x20\n      add\n      0x00\n      keccak256\n      0x00\n      swap1\n      sload\n      swap1\n      0x0100\n      exp\n      swap1\n      div\n      0xff\n      and\n        /* \"FacctoryContract/WagerContract.sol\":4902:5017  if(!userInfo[msg.sender].betOn[_sellOf]){... */\n      tag_144\n      jumpi\n        /* \"FacctoryContract/WagerContract.sol\":4970:4978  userInfo */\n      0x05\n        /* \"FacctoryContract/WagerContract.sol\":4970:4990  userInfo[msg.sender] */\n      0x00\n        /* \"FacctoryContract/WagerContract.sol\":4979:4989  msg.sender */\n      caller\n        /* \"FacctoryContract/WagerContract.sol\":4970:4990  userInfo[msg.sender] */\n      0xffffffffffffffffffffffffffffffffffffffff\n      and\n      0xffffffffffffffffffffffffffffffffffffffff\n      and\n      dup2\n      mstore\n      0x20\n      add\n      swap1\n      dup2\n      mstore\n      0x20\n      add\n      0x00\n      keccak256\n        /* \"FacctoryContract/WagerContract.sol\":4970:4996  userInfo[msg.sender].betOn */\n      0x05\n      add\n        /* \"FacctoryContract/WagerContract.sol\":4970:5005  userInfo[msg.sender].betOn[_sellOf] */\n      0x00\n        /* \"FacctoryContract/WagerContract.sol\":4997:5004  _sellOf */\n      dup3\n        /* \"FacctoryContract/WagerContract.sol\":4970:5005  userInfo[msg.sender].betOn[_sellOf] */\n      dup2\n      mstore\n      0x20\n      add\n      swap1\n      dup2\n      mstore\n      0x20\n      add\n      0x00\n      keccak256\n      0x00\n      swap1\n      sload\n      swap1\n      0x0100\n      exp\n      swap1\n      div\n      0xff\n      and\n        /* \"FacctoryContract/WagerContract.sol\":4963:5006  notBet(userInfo[msg.sender].betOn[_sellOf]) */\n      mload(0x40)\n      0x3c3a312800000000000000000000000000000000000000000000000000000000\n      dup2\n      mstore\n      0x04\n      add\n      tag_145\n      swap2\n      swap1\n      tag_37\n      jump\t// in\n    tag_145:\n      mload(0x40)\n      dup1\n      swap2\n      sub\n      swap1\n      revert\n        /* \"FacctoryContract/WagerContract.sol\":4902:5017  if(!userInfo[msg.sender].betOn[_sellOf]){... */\n    tag_144:\n        /* \"FacctoryContract/WagerContract.sol\":5039:5040  0 */\n      0x00\n        /* \"FacctoryContract/WagerContract.sol\":5029:5035  _price */\n      dup3\n        /* \"FacctoryContract/WagerContract.sol\":5029:5040  _price <= 0 */\n      gt\n        /* \"FacctoryContract/WagerContract.sol\":5026:5091  if(_price <= 0){... */\n      tag_146\n      jumpi\n        /* \"FacctoryContract/WagerContract.sol\":5073:5079  _price */\n      dup2\n        /* \"FacctoryContract/WagerContract.sol\":5062:5080  wrongPrice(_price) */\n      mload(0x40)\n      0xbfc1948200000000000000000000000000000000000000000000000000000000\n      dup2\n      mstore\n      0x04\n      add\n      tag_147\n      swap2\n      swap1\n      tag_82\n      jump\t// in\n    tag_147:\n      mload(0x40)\n      dup1\n      swap2\n      sub\n      swap1\n      revert\n        /* \"FacctoryContract/WagerContract.sol\":5026:5091  if(_price <= 0){... */\n    tag_146:\n        /* \"FacctoryContract/WagerContract.sol\":5123:5124  0 */\n      0x00\n        /* \"FacctoryContract/WagerContract.sol\":5112:5119  _sellOf */\n      dup2\n        /* \"FacctoryContract/WagerContract.sol\":5112:5124  _sellOf == 0 */\n      sub\n        /* \"FacctoryContract/WagerContract.sol\":5109:5340  if(_sellOf == 0){... */\n      tag_148\n      jumpi\n        /* \"FacctoryContract/WagerContract.sol\":5159:5167  userInfo */\n      0x05\n        /* \"FacctoryContract/WagerContract.sol\":5159:5179  userInfo[msg.sender] */\n      0x00\n        /* \"FacctoryContract/WagerContract.sol\":5168:5178  msg.sender */\n      caller\n        /* \"FacctoryContract/WagerContract.sol\":5159:5179  userInfo[msg.sender] */\n      0xffffffffffffffffffffffffffffffffffffffff\n      and\n      0xffffffffffffffffffffffffffffffffffffffff\n      and\n      dup2\n      mstore\n      0x20\n      add\n      swap1\n      dup2\n      mstore\n      0x20\n      add\n      0x00\n      keccak256\n        /* \"FacctoryContract/WagerContract.sol\":5159:5191  userInfo[msg.sender].noBetAmount */\n      0x01\n      add\n      sload\n        /* \"FacctoryContract/WagerContract.sol\":5148:5155  _amount */\n      dup4\n        /* \"FacctoryContract/WagerContract.sol\":5148:5191  _amount <= userInfo[msg.sender].noBetAmount */\n      gt\n      iszero\n        /* \"FacctoryContract/WagerContract.sol\":5140:5213  require(_amount <= userInfo[msg.sender].noBetAmount, \"not enough Amount\") */\n      tag_149\n      jumpi\n      mload(0x40)\n      0x08c379a000000000000000000000000000000000000000000000000000000000\n      dup2\n      mstore\n      0x04\n      add\n      tag_150\n      swap1\n      tag_151\n      jump\t// in\n    tag_150:\n      mload(0x40)\n      dup1\n      swap2\n      sub\n      swap1\n      revert\n    tag_149:\n        /* \"FacctoryContract/WagerContract.sol\":5109:5340  if(_sellOf == 0){... */\n      jump(tag_152)\n    tag_148:\n        /* \"FacctoryContract/WagerContract.sol\":5274:5282  userInfo */\n      0x05\n        /* \"FacctoryContract/WagerContract.sol\":5274:5294  userInfo[msg.sender] */\n      0x00\n        /* \"FacctoryContract/WagerContract.sol\":5283:5293  msg.sender */\n      caller\n        /* \"FacctoryContract/WagerContract.sol\":5274:5294  userInfo[msg.sender] */\n      0xffffffffffffffffffffffffffffffffffffffff\n      and\n      0xffffffffffffffffffffffffffffffffffffffff\n      and\n      dup2\n      mstore\n      0x20\n      add\n      swap1\n      dup2\n      mstore\n      0x20\n      add\n      0x00\n      keccak256\n        /* \"FacctoryContract/WagerContract.sol\":5274:5307  userInfo[msg.sender].yesBetAmount */\n      0x03\n      add\n      sload\n        /* \"FacctoryContract/WagerContract.sol\":5263:5270  _amount */\n      dup4\n        /* \"FacctoryContract/WagerContract.sol\":5263:5307  _amount <= userInfo[msg.sender].yesBetAmount */\n      gt\n      iszero\n        /* \"FacctoryContract/WagerContract.sol\":5255:5329  require(_amount <= userInfo[msg.sender].yesBetAmount, \"not enough Amount\") */\n      tag_153\n      jumpi\n      mload(0x40)\n      0x08c379a000000000000000000000000000000000000000000000000000000000\n      dup2\n      mstore\n      0x04\n      add\n      tag_154\n      swap1\n      tag_151\n      jump\t// in\n    tag_154:\n      mload(0x40)\n      dup1\n      swap2\n      sub\n      swap1\n      revert\n    tag_153:\n        /* \"FacctoryContract/WagerContract.sol\":5109:5340  if(_sellOf == 0){... */\n    tag_152:\n        /* \"FacctoryContract/WagerContract.sol\":5358:5366  userInfo */\n      0x05\n        /* \"FacctoryContract/WagerContract.sol\":5358:5378  userInfo[msg.sender] */\n      0x00\n        /* \"FacctoryContract/WagerContract.sol\":5367:5377  msg.sender */\n      caller\n        /* \"FacctoryContract/WagerContract.sol\":5358:5378  userInfo[msg.sender] */\n      0xffffffffffffffffffffffffffffffffffffffff\n      and\n      0xffffffffffffffffffffffffffffffffffffffff\n      and\n      dup2\n      mstore\n      0x20\n      add\n      swap1\n      dup2\n      mstore\n      0x20\n      add\n      0x00\n      keccak256\n        /* \"FacctoryContract/WagerContract.sol\":5358:5385  userInfo[msg.sender].listNo */\n      0x00\n      add\n      0x00\n        /* \"FacctoryContract/WagerContract.sol\":5358:5387  userInfo[msg.sender].listNo++ */\n      dup2\n      sload\n      dup1\n      swap3\n      swap2\n      swap1\n      tag_155\n      swap1\n      tag_156\n      jump\t// in\n    tag_155:\n      swap2\n      swap1\n      pop\n      sstore\n      pop\n        /* \"FacctoryContract/WagerContract.sol\":5455:5459  true */\n      0x01\n        /* \"FacctoryContract/WagerContract.sol\":5398:5406  sellInfo */\n      0x07\n        /* \"FacctoryContract/WagerContract.sol\":5398:5418  sellInfo[msg.sender] */\n      0x00\n        /* \"FacctoryContract/WagerContract.sol\":5407:5417  msg.sender */\n      caller\n        /* \"FacctoryContract/WagerContract.sol\":5398:5418  sellInfo[msg.sender] */\n      0xffffffffffffffffffffffffffffffffffffffff\n      and\n      0xffffffffffffffffffffffffffffffffffffffff\n      and\n      dup2\n      mstore\n      0x20\n      add\n      swap1\n      dup2\n      mstore\n      0x20\n      add\n      0x00\n      keccak256\n        /* \"FacctoryContract/WagerContract.sol\":5398:5447  sellInfo[msg.sender][userInfo[msg.sender].listNo] */\n      0x00\n        /* \"FacctoryContract/WagerContract.sol\":5419:5427  userInfo */\n      0x05\n        /* \"FacctoryContract/WagerContract.sol\":5419:5439  userInfo[msg.sender] */\n      0x00\n        /* \"FacctoryContract/WagerContract.sol\":5428:5438  msg.sender */\n      caller\n        /* \"FacctoryContract/WagerContract.sol\":5419:5439  userInfo[msg.sender] */\n      0xffffffffffffffffffffffffffffffffffffffff\n      and\n      0xffffffffffffffffffffffffffffffffffffffff\n      and\n      dup2\n      mstore\n      0x20\n      add\n      swap1\n      dup2\n      mstore\n      0x20\n      add\n      0x00\n      keccak256\n        /* \"FacctoryContract/WagerContract.sol\":5419:5446  userInfo[msg.sender].listNo */\n      0x00\n      add\n      sload\n        /* \"FacctoryContract/WagerContract.sol\":5398:5447  sellInfo[msg.sender][userInfo[msg.sender].listNo] */\n      dup2\n      mstore\n      0x20\n      add\n      swap1\n      dup2\n      mstore\n      0x20\n      add\n      0x00\n      keccak256\n        /* \"FacctoryContract/WagerContract.sol\":5398:5452  sellInfo[msg.sender][userInfo[msg.sender].listNo].list */\n      0x00\n      add\n      0x00\n        /* \"FacctoryContract/WagerContract.sol\":5398:5459  sellInfo[msg.sender][userInfo[msg.sender].listNo].list = true */\n      0x0100\n      exp\n      dup2\n      sload\n      dup2\n      0xff\n      mul\n      not\n      and\n      swap1\n      dup4\n      iszero\n      iszero\n      mul\n      or\n      swap1\n      sstore\n      pop\n        /* \"FacctoryContract/WagerContract.sol\":5527:5533  _price */\n      dup2\n        /* \"FacctoryContract/WagerContract.sol\":5469:5477  sellInfo */\n      0x07\n        /* \"FacctoryContract/WagerContract.sol\":5469:5489  sellInfo[msg.sender] */\n      0x00\n        /* \"FacctoryContract/WagerContract.sol\":5478:5488  msg.sender */\n      caller\n        /* \"FacctoryContract/WagerContract.sol\":5469:5489  sellInfo[msg.sender] */\n      0xffffffffffffffffffffffffffffffffffffffff\n      and\n      0xffffffffffffffffffffffffffffffffffffffff\n      and\n      dup2\n      mstore\n      0x20\n      add\n      swap1\n      dup2\n      mstore\n      0x20\n      add\n      0x00\n      keccak256\n        /* \"FacctoryContract/WagerContract.sol\":5469:5518  sellInfo[msg.sender][userInfo[msg.sender].listNo] */\n      0x00\n        /* \"FacctoryContract/WagerContract.sol\":5490:5498  userInfo */\n      0x05\n        /* \"FacctoryContract/WagerContract.sol\":5490:5510  userInfo[msg.sender] */\n      0x00\n        /* \"FacctoryContract/WagerContract.sol\":5499:5509  msg.sender */\n      caller\n        /* \"FacctoryContract/WagerContract.sol\":5490:5510  userInfo[msg.sender] */\n      0xffffffffffffffffffffffffffffffffffffffff\n      and\n      0xffffffffffffffffffffffffffffffffffffffff\n      and\n      dup2\n      mstore\n      0x20\n      add\n      swap1\n      dup2\n      mstore\n      0x20\n      add\n      0x00\n      keccak256\n        /* \"FacctoryContract/WagerContract.sol\":5490:5517  userInfo[msg.sender].listNo */\n      0x00\n      add\n      sload\n        /* \"FacctoryContract/WagerContract.sol\":5469:5518  sellInfo[msg.sender][userInfo[msg.sender].listNo] */\n      dup2\n      mstore\n      0x20\n      add\n      swap1\n      dup2\n      mstore\n      0x20\n      add\n      0x00\n      keccak256\n        /* \"FacctoryContract/WagerContract.sol\":5469:5524  sellInfo[msg.sender][userInfo[msg.sender].listNo].price */\n      0x01\n      add\n        /* \"FacctoryContract/WagerContract.sol\":5469:5533  sellInfo[msg.sender][userInfo[msg.sender].listNo].price = _price */\n      dup2\n      swap1\n      sstore\n      pop\n        /* \"FacctoryContract/WagerContract.sol\":5603:5610  _amount */\n      dup3\n        /* \"FacctoryContract/WagerContract.sol\":5544:5552  sellInfo */\n      0x07\n        /* \"FacctoryContract/WagerContract.sol\":5544:5564  sellInfo[msg.sender] */\n      0x00\n        /* \"FacctoryContract/WagerContract.sol\":5553:5563  msg.sender */\n      caller\n        /* \"FacctoryContract/WagerContract.sol\":5544:5564  sellInfo[msg.sender] */\n      0xffffffffffffffffffffffffffffffffffffffff\n      and\n      0xffffffffffffffffffffffffffffffffffffffff\n      and\n      dup2\n      mstore\n      0x20\n      add\n      swap1\n      dup2\n      mstore\n      0x20\n      add\n      0x00\n      keccak256\n        /* \"FacctoryContract/WagerContract.sol\":5544:5593  sellInfo[msg.sender][userInfo[msg.sender].listNo] */\n      0x00\n        /* \"FacctoryContract/WagerContract.sol\":5565:5573  userInfo */\n      0x05\n        /* \"FacctoryContract/WagerContract.sol\":5565:5585  userInfo[msg.sender] */\n      0x00\n        /* \"FacctoryContract/WagerContract.sol\":5574:5584  msg.sender */\n      caller\n        /* \"FacctoryContract/WagerContract.sol\":5565:5585  userInfo[msg.sender] */\n      0xffffffffffffffffffffffffffffffffffffffff\n      and\n      0xffffffffffffffffffffffffffffffffffffffff\n      and\n      dup2\n      mstore\n      0x20\n      add\n      swap1\n      dup2\n      mstore\n      0x20\n      add\n      0x00\n      keccak256\n        /* \"FacctoryContract/WagerContract.sol\":5565:5592  userInfo[msg.sender].listNo */\n      0x00\n      add\n      sload\n        /* \"FacctoryContract/WagerContract.sol\":5544:5593  sellInfo[msg.sender][userInfo[msg.sender].listNo] */\n      dup2\n      mstore\n      0x20\n      add\n      swap1\n      dup2\n      mstore\n      0x20\n      add\n      0x00\n      keccak256\n        /* \"FacctoryContract/WagerContract.sol\":5544:5600  sellInfo[msg.sender][userInfo[msg.sender].listNo].amount */\n      0x02\n      add\n        /* \"FacctoryContract/WagerContract.sol\":5544:5610  sellInfo[msg.sender][userInfo[msg.sender].listNo].amount = _amount */\n      dup2\n      swap1\n      sstore\n      pop\n        /* \"FacctoryContract/WagerContract.sol\":5679:5689  msg.sender */\n      caller\n        /* \"FacctoryContract/WagerContract.sol\":5621:5629  sellInfo */\n      0x07\n        /* \"FacctoryContract/WagerContract.sol\":5621:5641  sellInfo[msg.sender] */\n      0x00\n        /* \"FacctoryContract/WagerContract.sol\":5630:5640  msg.sender */\n      caller\n        /* \"FacctoryContract/WagerContract.sol\":5621:5641  sellInfo[msg.sender] */\n      0xffffffffffffffffffffffffffffffffffffffff\n      and\n      0xffffffffffffffffffffffffffffffffffffffff\n      and\n      dup2\n      mstore\n      0x20\n      add\n      swap1\n      dup2\n      mstore\n      0x20\n      add\n      0x00\n      keccak256\n        /* \"FacctoryContract/WagerContract.sol\":5621:5670  sellInfo[msg.sender][userInfo[msg.sender].listNo] */\n      0x00\n        /* \"FacctoryContract/WagerContract.sol\":5642:5650  userInfo */\n      0x05\n        /* \"FacctoryContract/WagerContract.sol\":5642:5662  userInfo[msg.sender] */\n      0x00\n        /* \"FacctoryContract/WagerContract.sol\":5651:5661  msg.sender */\n      caller\n        /* \"FacctoryContract/WagerContract.sol\":5642:5662  userInfo[msg.sender] */\n      0xffffffffffffffffffffffffffffffffffffffff\n      and\n      0xffffffffffffffffffffffffffffffffffffffff\n      and\n      dup2\n      mstore\n      0x20\n      add\n      swap1\n      dup2\n      mstore\n      0x20\n      add\n      0x00\n      keccak256\n        /* \"FacctoryContract/WagerContract.sol\":5642:5669  userInfo[msg.sender].listNo */\n      0x00\n      add\n      sload\n        /* \"FacctoryContract/WagerContract.sol\":5621:5670  sellInfo[msg.sender][userInfo[msg.sender].listNo] */\n      dup2\n      mstore\n      0x20\n      add\n      swap1\n      dup2\n      mstore\n      0x20\n      add\n      0x00\n      keccak256\n        /* \"FacctoryContract/WagerContract.sol\":5621:5676  sellInfo[msg.sender][userInfo[msg.sender].listNo].owner */\n      0x00\n      add\n      0x02\n        /* \"FacctoryContract/WagerContract.sol\":5621:5689  sellInfo[msg.sender][userInfo[msg.sender].listNo].owner = msg.sender */\n      0x0100\n      exp\n      dup2\n      sload\n      dup2\n      0xffffffffffffffffffffffffffffffffffffffff\n      mul\n      not\n      and\n      swap1\n      dup4\n      0xffffffffffffffffffffffffffffffffffffffff\n      and\n      mul\n      or\n      swap1\n      sstore\n      pop\n        /* \"FacctoryContract/WagerContract.sol\":5759:5766  _sellOf */\n      dup1\n        /* \"FacctoryContract/WagerContract.sol\":5700:5708  sellInfo */\n      0x07\n        /* \"FacctoryContract/WagerContract.sol\":5700:5720  sellInfo[msg.sender] */\n      0x00\n        /* \"FacctoryContract/WagerContract.sol\":5709:5719  msg.sender */\n      caller\n        /* \"FacctoryContract/WagerContract.sol\":5700:5720  sellInfo[msg.sender] */\n      0xffffffffffffffffffffffffffffffffffffffff\n      and\n      0xffffffffffffffffffffffffffffffffffffffff\n      and\n      dup2\n      mstore\n      0x20\n      add\n      swap1\n      dup2\n      mstore\n      0x20\n      add\n      0x00\n      keccak256\n        /* \"FacctoryContract/WagerContract.sol\":5700:5749  sellInfo[msg.sender][userInfo[msg.sender].listNo] */\n      0x00\n        /* \"FacctoryContract/WagerContract.sol\":5721:5729  userInfo */\n      0x05\n        /* \"FacctoryContract/WagerContract.sol\":5721:5741  userInfo[msg.sender] */\n      0x00\n        /* \"FacctoryContract/WagerContract.sol\":5730:5740  msg.sender */\n      caller\n        /* \"FacctoryContract/WagerContract.sol\":5721:5741  userInfo[msg.sender] */\n      0xffffffffffffffffffffffffffffffffffffffff\n      and\n      0xffffffffffffffffffffffffffffffffffffffff\n      and\n      dup2\n      mstore\n      0x20\n      add\n      swap1\n      dup2\n      mstore\n      0x20\n      add\n      0x00\n      keccak256\n        /* \"FacctoryContract/WagerContract.sol\":5721:5748  userInfo[msg.sender].listNo */\n      0x00\n      add\n      sload\n        /* \"FacctoryContract/WagerContract.sol\":5700:5749  sellInfo[msg.sender][userInfo[msg.sender].listNo] */\n      dup2\n      mstore\n      0x20\n      add\n      swap1\n      dup2\n      mstore\n      0x20\n      add\n      0x00\n      keccak256\n        /* \"FacctoryContract/WagerContract.sol\":5700:5756  sellInfo[msg.sender][userInfo[msg.sender].listNo].listOn */\n      0x03\n      add\n        /* \"FacctoryContract/WagerContract.sol\":5700:5766  sellInfo[msg.sender][userInfo[msg.sender].listNo].listOn = _sellOf */\n      dup2\n      swap1\n      sstore\n      pop\n        /* \"FacctoryContract/WagerContract.sol\":5805:5815  msg.sender */\n      caller\n        /* \"FacctoryContract/WagerContract.sol\":5795:5853  SellShare(msg.sender, userInfo[msg.sender].listNo, _price) */\n      0xffffffffffffffffffffffffffffffffffffffff\n      and\n      0x578d9bb67ff50e6081576125ad4c2410d6e82de6dbc1a5dcac37f8e5aa9ca4f4\n        /* \"FacctoryContract/WagerContract.sol\":5817:5825  userInfo */\n      0x05\n        /* \"FacctoryContract/WagerContract.sol\":5817:5837  userInfo[msg.sender] */\n      0x00\n        /* \"FacctoryContract/WagerContract.sol\":5826:5836  msg.sender */\n      caller\n        /* \"FacctoryContract/WagerContract.sol\":5817:5837  userInfo[msg.sender] */\n      0xffffffffffffffffffffffffffffffffffffffff\n      and\n      0xffffffffffffffffffffffffffffffffffffffff\n      and\n      dup2\n      mstore\n      0x20\n      add\n      swap1\n      dup2\n      mstore\n      0x20\n      add\n      0x00\n      keccak256\n        /* \"FacctoryContract/WagerContract.sol\":5817:5844  userInfo[msg.sender].listNo */\n      0x00\n      add\n      sload\n        /* \"FacctoryContract/WagerContract.sol\":5846:5852  _price */\n      dup5\n        /* \"FacctoryContract/WagerContract.sol\":5795:5853  SellShare(msg.sender, userInfo[msg.sender].listNo, _price) */\n      mload(0x40)\n      tag_157\n      swap3\n      swap2\n      swap1\n      tag_51\n      jump\t// in\n    tag_157:\n      mload(0x40)\n      dup1\n      swap2\n      sub\n      swap1\n      log2\n        /* \"FacctoryContract/WagerContract.sol\":4528:5860  function sellShare(uint256 _amount, uint256 _price, uint256 _sellOf) external {... */\n      pop\n      pop\n      pop\n      jump\t// out\n        /* \"FacctoryContract/WagerContract.sol\":1106:1170  mapping(address => mapping(uint256 => SellInfo)) public sellInfo */\n    tag_68:\n      mstore(0x20, 0x07)\n      dup2\n      0x00\n      mstore\n      mstore(0x20, keccak256(0x00, 0x40))\n      dup1\n      0x00\n      mstore\n      keccak256(0x00, 0x40)\n      0x00\n      swap2\n      pop\n      swap2\n      pop\n      pop\n      dup1\n      0x00\n      add\n      0x00\n      swap1\n      sload\n      swap1\n      0x0100\n      exp\n      swap1\n      div\n      0xff\n      and\n      swap1\n      dup1\n      0x00\n      add\n      0x01\n      swap1\n      sload\n      swap1\n      0x0100\n      exp\n      swap1\n      div\n      0xff\n      and\n      swap1\n      dup1\n      0x00\n      add\n      0x02\n      swap1\n      sload\n      swap1\n      0x0100\n      exp\n      swap1\n      div\n      0xffffffffffffffffffffffffffffffffffffffff\n      and\n      swap1\n      dup1\n      0x01\n      add\n      sload\n      swap1\n      dup1\n      0x02\n      add\n      sload\n      swap1\n      dup1\n      0x03\n      add\n      sload\n      swap1\n      pop\n      dup7\n      jump\t// out\n        /* \"FacctoryContract/WagerContract.sol\":7351:10104  function resolveMarket(uint256 winningIndex) external   {... */\n    tag_72:\n        /* \"FacctoryContract/WagerContract.sol\":7445:7446  0 */\n      0x00\n        /* \"FacctoryContract/WagerContract.sol\":7429:7441  winningIndex */\n      dup2\n        /* \"FacctoryContract/WagerContract.sol\":7429:7446  winningIndex != 0 */\n      eq\n      iszero\n        /* \"FacctoryContract/WagerContract.sol\":7429:7467  winningIndex != 0 && winningIndex != 1 */\n      dup1\n      iszero\n      tag_159\n      jumpi\n      pop\n        /* \"FacctoryContract/WagerContract.sol\":7466:7467  1 */\n      0x01\n        /* \"FacctoryContract/WagerContract.sol\":7450:7462  winningIndex */\n      dup2\n        /* \"FacctoryContract/WagerContract.sol\":7450:7467  winningIndex != 1 */\n      eq\n      iszero\n        /* \"FacctoryContract/WagerContract.sol\":7429:7467  winningIndex != 0 && winningIndex != 1 */\n    tag_159:\n        /* \"FacctoryContract/WagerContract.sol\":7426:7527  if(winningIndex != 0 && winningIndex != 1){... */\n      iszero\n      tag_160\n      jumpi\n        /* \"FacctoryContract/WagerContract.sol\":7503:7515  winningIndex */\n      dup1\n        /* \"FacctoryContract/WagerContract.sol\":7489:7516  wrongBetIndex(winningIndex) */\n      mload(0x40)\n      0xd7acbe8900000000000000000000000000000000000000000000000000000000\n      dup2\n      mstore\n      0x04\n      add\n      tag_161\n      swap2\n      swap1\n      tag_82\n      jump\t// in\n    tag_161:\n      mload(0x40)\n      dup1\n      swap2\n      sub\n      swap1\n      revert\n        /* \"FacctoryContract/WagerContract.sol\":7426:7527  if(winningIndex != 0 && winningIndex != 1){... */\n    tag_160:\n        /* \"FacctoryContract/WagerContract.sol\":7548:7558  marketInfo */\n      0x06\n        /* \"FacctoryContract/WagerContract.sol\":7548:7573  marketInfo[address(this)] */\n      0x00\n        /* \"FacctoryContract/WagerContract.sol\":7567:7571  this */\n      address\n        /* \"FacctoryContract/WagerContract.sol\":7548:7573  marketInfo[address(this)] */\n      0xffffffffffffffffffffffffffffffffffffffff\n      and\n      0xffffffffffffffffffffffffffffffffffffffff\n      and\n      dup2\n      mstore\n      0x20\n      add\n      swap1\n      dup2\n      mstore\n      0x20\n      add\n      0x00\n      keccak256\n        /* \"FacctoryContract/WagerContract.sol\":7548:7582  marketInfo[address(this)].resolved */\n      0x00\n      add\n      0x00\n      swap1\n      sload\n      swap1\n      0x0100\n      exp\n      swap1\n      div\n      0xff\n      and\n        /* \"FacctoryContract/WagerContract.sol\":7545:7631  if(marketInfo[address(this)].resolved){... */\n      iszero\n      tag_162\n      jumpi\n        /* \"FacctoryContract/WagerContract.sol\":7604:7620  marketResolved() */\n      mload(0x40)\n      0x853fd42100000000000000000000000000000000000000000000000000000000\n      dup2\n      mstore\n      0x04\n      add\n      mload(0x40)\n      dup1\n      swap2\n      sub\n      swap1\n      revert\n        /* \"FacctoryContract/WagerContract.sol\":7545:7631  if(marketInfo[address(this)].resolved){... */\n    tag_162:\n        /* \"FacctoryContract/WagerContract.sol\":7680:7695  block.timestamp */\n      timestamp\n        /* \"FacctoryContract/WagerContract.sol\":7644:7654  marketInfo */\n      0x06\n        /* \"FacctoryContract/WagerContract.sol\":7644:7669  marketInfo[address(this)] */\n      0x00\n        /* \"FacctoryContract/WagerContract.sol\":7663:7667  this */\n      address\n        /* \"FacctoryContract/WagerContract.sol\":7644:7669  marketInfo[address(this)] */\n      0xffffffffffffffffffffffffffffffffffffffff\n      and\n      0xffffffffffffffffffffffffffffffffffffffff\n      and\n      dup2\n      mstore\n      0x20\n      add\n      swap1\n      dup2\n      mstore\n      0x20\n      add\n      0x00\n      keccak256\n        /* \"FacctoryContract/WagerContract.sol\":7644:7677  marketInfo[address(this)].endTime */\n      0x01\n      add\n      sload\n        /* \"FacctoryContract/WagerContract.sol\":7644:7695  marketInfo[address(this)].endTime > block.timestamp */\n      gt\n        /* \"FacctoryContract/WagerContract.sol\":7641:7784  if(marketInfo[address(this)].endTime > block.timestamp){... */\n      iszero\n      tag_163\n      jumpi\n        /* \"FacctoryContract/WagerContract.sol\":7739:7749  marketInfo */\n      0x06\n        /* \"FacctoryContract/WagerContract.sol\":7739:7764  marketInfo[address(this)] */\n      0x00\n        /* \"FacctoryContract/WagerContract.sol\":7758:7762  this */\n      address\n        /* \"FacctoryContract/WagerContract.sol\":7739:7764  marketInfo[address(this)] */\n      0xffffffffffffffffffffffffffffffffffffffff\n      and\n      0xffffffffffffffffffffffffffffffffffffffff\n      and\n      dup2\n      mstore\n      0x20\n      add\n      swap1\n      dup2\n      mstore\n      0x20\n      add\n      0x00\n      keccak256\n        /* \"FacctoryContract/WagerContract.sol\":7739:7772  marketInfo[address(this)].endTime */\n      0x01\n      add\n      sload\n        /* \"FacctoryContract/WagerContract.sol\":7717:7773  notResolvedBeforeTime(marketInfo[address(this)].endTime) */\n      mload(0x40)\n      0x79073e7b00000000000000000000000000000000000000000000000000000000\n      dup2\n      mstore\n      0x04\n      add\n      tag_164\n      swap2\n      swap1\n      tag_82\n      jump\t// in\n    tag_164:\n      mload(0x40)\n      dup1\n      swap2\n      sub\n      swap1\n      revert\n        /* \"FacctoryContract/WagerContract.sol\":7641:7784  if(marketInfo[address(this)].endTime > block.timestamp){... */\n    tag_163:\n        /* \"FacctoryContract/WagerContract.sol\":7794:7818  uint256 totalWinnerShare */\n      0x00\n        /* \"FacctoryContract/WagerContract.sol\":7833:7842  uint256 i */\n      0x00\n        /* \"FacctoryContract/WagerContract.sol\":7845:7846  0 */\n      0x00\n        /* \"FacctoryContract/WagerContract.sol\":7833:7846  uint256 i = 0 */\n      swap1\n      pop\n        /* \"FacctoryContract/WagerContract.sol\":7829:8657  for(uint256 i = 0; i < totalUsers; i++){... */\n    tag_165:\n        /* \"FacctoryContract/WagerContract.sol\":7852:7862  totalUsers */\n      sload(0x02)\n        /* \"FacctoryContract/WagerContract.sol\":7848:7849  i */\n      dup2\n        /* \"FacctoryContract/WagerContract.sol\":7848:7862  i < totalUsers */\n      lt\n        /* \"FacctoryContract/WagerContract.sol\":7829:8657  for(uint256 i = 0; i < totalUsers; i++){... */\n      iszero\n      tag_166\n      jumpi\n        /* \"FacctoryContract/WagerContract.sol\":7887:7895  userInfo */\n      0x05\n        /* \"FacctoryContract/WagerContract.sol\":7887:7908  userInfo[eachUser[i]] */\n      0x00\n        /* \"FacctoryContract/WagerContract.sol\":7896:7904  eachUser */\n      0x04\n        /* \"FacctoryContract/WagerContract.sol\":7896:7907  eachUser[i] */\n      0x00\n        /* \"FacctoryContract/WagerContract.sol\":7905:7906  i */\n      dup5\n        /* \"FacctoryContract/WagerContract.sol\":7896:7907  eachUser[i] */\n      dup2\n      mstore\n      0x20\n      add\n      swap1\n      dup2\n      mstore\n      0x20\n      add\n      0x00\n      keccak256\n      0x00\n      swap1\n      sload\n      swap1\n      0x0100\n      exp\n      swap1\n      div\n      0xffffffffffffffffffffffffffffffffffffffff\n      and\n        /* \"FacctoryContract/WagerContract.sol\":7887:7908  userInfo[eachUser[i]] */\n      0xffffffffffffffffffffffffffffffffffffffff\n      and\n      0xffffffffffffffffffffffffffffffffffffffff\n      and\n      dup2\n      mstore\n      0x20\n      add\n      swap1\n      dup2\n      mstore\n      0x20\n      add\n      0x00\n      keccak256\n        /* \"FacctoryContract/WagerContract.sol\":7887:7914  userInfo[eachUser[i]].betOn */\n      0x05\n      add\n        /* \"FacctoryContract/WagerContract.sol\":7887:7928  userInfo[eachUser[i]].betOn[winningIndex] */\n      0x00\n        /* \"FacctoryContract/WagerContract.sol\":7915:7927  winningIndex */\n      dup5\n        /* \"FacctoryContract/WagerContract.sol\":7887:7928  userInfo[eachUser[i]].betOn[winningIndex] */\n      dup2\n      mstore\n      0x20\n      add\n      swap1\n      dup2\n      mstore\n      0x20\n      add\n      0x00\n      keccak256\n      0x00\n      swap1\n      sload\n      swap1\n      0x0100\n      exp\n      swap1\n      div\n      0xff\n      and\n        /* \"FacctoryContract/WagerContract.sol\":7884:8644  if(userInfo[eachUser[i]].betOn[winningIndex]) {... */\n      iszero\n      tag_168\n      jumpi\n        /* \"FacctoryContract/WagerContract.sol\":7968:7969  0 */\n      0x00\n        /* \"FacctoryContract/WagerContract.sol\":7952:7964  winningIndex */\n      dup4\n        /* \"FacctoryContract/WagerContract.sol\":7952:7969  winningIndex == 0 */\n      eq\n        /* \"FacctoryContract/WagerContract.sol\":7952:8011  winningIndex == 0 && userInfo[eachUser[i]].noBetAmount != 0 */\n      dup1\n      iszero\n      tag_169\n      jumpi\n      pop\n        /* \"FacctoryContract/WagerContract.sol\":8010:8011  0 */\n      0x00\n        /* \"FacctoryContract/WagerContract.sol\":7973:7981  userInfo */\n      0x05\n        /* \"FacctoryContract/WagerContract.sol\":7973:7994  userInfo[eachUser[i]] */\n      0x00\n        /* \"FacctoryContract/WagerContract.sol\":7982:7990  eachUser */\n      0x04\n        /* \"FacctoryContract/WagerContract.sol\":7982:7993  eachUser[i] */\n      0x00\n        /* \"FacctoryContract/WagerContract.sol\":7991:7992  i */\n      dup6\n        /* \"FacctoryContract/WagerContract.sol\":7982:7993  eachUser[i] */\n      dup2\n      mstore\n      0x20\n      add\n      swap1\n      dup2\n      mstore\n      0x20\n      add\n      0x00\n      keccak256\n      0x00\n      swap1\n      sload\n      swap1\n      0x0100\n      exp\n      swap1\n      div\n      0xffffffffffffffffffffffffffffffffffffffff\n      and\n        /* \"FacctoryContract/WagerContract.sol\":7973:7994  userInfo[eachUser[i]] */\n      0xffffffffffffffffffffffffffffffffffffffff\n      and\n      0xffffffffffffffffffffffffffffffffffffffff\n      and\n      dup2\n      mstore\n      0x20\n      add\n      swap1\n      dup2\n      mstore\n      0x20\n      add\n      0x00\n      keccak256\n        /* \"FacctoryContract/WagerContract.sol\":7973:8006  userInfo[eachUser[i]].noBetAmount */\n      0x01\n      add\n      sload\n        /* \"FacctoryContract/WagerContract.sol\":7973:8011  userInfo[eachUser[i]].noBetAmount != 0 */\n      eq\n      iszero\n        /* \"FacctoryContract/WagerContract.sol\":7952:8011  winningIndex == 0 && userInfo[eachUser[i]].noBetAmount != 0 */\n    tag_169:\n        /* \"FacctoryContract/WagerContract.sol\":7949:8629  if(winningIndex == 0 && userInfo[eachUser[i]].noBetAmount != 0){... */\n      iszero\n      tag_170\n      jumpi\n        /* \"FacctoryContract/WagerContract.sol\":8091:8225  calculateShares(... */\n      tag_171\n        /* \"FacctoryContract/WagerContract.sol\":8132:8140  userInfo */\n      0x05\n        /* \"FacctoryContract/WagerContract.sol\":8132:8153  userInfo[eachUser[i]] */\n      0x00\n        /* \"FacctoryContract/WagerContract.sol\":8141:8149  eachUser */\n      0x04\n        /* \"FacctoryContract/WagerContract.sol\":8141:8152  eachUser[i] */\n      0x00\n        /* \"FacctoryContract/WagerContract.sol\":8150:8151  i */\n      dup6\n        /* \"FacctoryContract/WagerContract.sol\":8141:8152  eachUser[i] */\n      dup2\n      mstore\n      0x20\n      add\n      swap1\n      dup2\n      mstore\n      0x20\n      add\n      0x00\n      keccak256\n      0x00\n      swap1\n      sload\n      swap1\n      0x0100\n      exp\n      swap1\n      div\n      0xffffffffffffffffffffffffffffffffffffffff\n      and\n        /* \"FacctoryContract/WagerContract.sol\":8132:8153  userInfo[eachUser[i]] */\n      0xffffffffffffffffffffffffffffffffffffffff\n      and\n      0xffffffffffffffffffffffffffffffffffffffff\n      and\n      dup2\n      mstore\n      0x20\n      add\n      swap1\n      dup2\n      mstore\n      0x20\n      add\n      0x00\n      keccak256\n        /* \"FacctoryContract/WagerContract.sol\":8132:8165  userInfo[eachUser[i]].noBetAmount */\n      0x01\n      add\n      sload\n        /* \"FacctoryContract/WagerContract.sol\":8191:8203  winningIndex */\n      dup5\n        /* \"FacctoryContract/WagerContract.sol\":8091:8106  calculateShares */\n      tag_88\n        /* \"FacctoryContract/WagerContract.sol\":8091:8225  calculateShares(... */\n      jump\t// in\n    tag_171:\n        /* \"FacctoryContract/WagerContract.sol\":8055:8063  userInfo */\n      0x05\n        /* \"FacctoryContract/WagerContract.sol\":8055:8076  userInfo[eachUser[i]] */\n      0x00\n        /* \"FacctoryContract/WagerContract.sol\":8064:8072  eachUser */\n      0x04\n        /* \"FacctoryContract/WagerContract.sol\":8064:8075  eachUser[i] */\n      0x00\n        /* \"FacctoryContract/WagerContract.sol\":8073:8074  i */\n      dup6\n        /* \"FacctoryContract/WagerContract.sol\":8064:8075  eachUser[i] */\n      dup2\n      mstore\n      0x20\n      add\n      swap1\n      dup2\n      mstore\n      0x20\n      add\n      0x00\n      keccak256\n      0x00\n      swap1\n      sload\n      swap1\n      0x0100\n      exp\n      swap1\n      div\n      0xffffffffffffffffffffffffffffffffffffffff\n      and\n        /* \"FacctoryContract/WagerContract.sol\":8055:8076  userInfo[eachUser[i]] */\n      0xffffffffffffffffffffffffffffffffffffffff\n      and\n      0xffffffffffffffffffffffffffffffffffffffff\n      and\n      dup2\n      mstore\n      0x20\n      add\n      swap1\n      dup2\n      mstore\n      0x20\n      add\n      0x00\n      keccak256\n        /* \"FacctoryContract/WagerContract.sol\":8055:8088  userInfo[eachUser[i]].shareAmount */\n      0x04\n      add\n        /* \"FacctoryContract/WagerContract.sol\":8055:8225  userInfo[eachUser[i]].shareAmount = calculateShares(... */\n      dup2\n      swap1\n      sstore\n      pop\n        /* \"FacctoryContract/WagerContract.sol\":8267:8275  userInfo */\n      0x05\n        /* \"FacctoryContract/WagerContract.sol\":8267:8288  userInfo[eachUser[i]] */\n      0x00\n        /* \"FacctoryContract/WagerContract.sol\":8276:8284  eachUser */\n      0x04\n        /* \"FacctoryContract/WagerContract.sol\":8276:8287  eachUser[i] */\n      0x00\n        /* \"FacctoryContract/WagerContract.sol\":8285:8286  i */\n      dup5\n        /* \"FacctoryContract/WagerContract.sol\":8276:8287  eachUser[i] */\n      dup2\n      mstore\n      0x20\n      add\n      swap1\n      dup2\n      mstore\n      0x20\n      add\n      0x00\n      keccak256\n      0x00\n      swap1\n      sload\n      swap1\n      0x0100\n      exp\n      swap1\n      div\n      0xffffffffffffffffffffffffffffffffffffffff\n      and\n        /* \"FacctoryContract/WagerContract.sol\":8267:8288  userInfo[eachUser[i]] */\n      0xffffffffffffffffffffffffffffffffffffffff\n      and\n      0xffffffffffffffffffffffffffffffffffffffff\n      and\n      dup2\n      mstore\n      0x20\n      add\n      swap1\n      dup2\n      mstore\n      0x20\n      add\n      0x00\n      keccak256\n        /* \"FacctoryContract/WagerContract.sol\":8267:8300  userInfo[eachUser[i]].shareAmount */\n      0x04\n      add\n      sload\n        /* \"FacctoryContract/WagerContract.sol\":8247:8300  totalWinnerShare += userInfo[eachUser[i]].shareAmount */\n      dup3\n      tag_172\n      swap2\n      swap1\n      tag_125\n      jump\t// in\n    tag_172:\n      swap2\n      pop\n        /* \"FacctoryContract/WagerContract.sol\":7949:8629  if(winningIndex == 0 && userInfo[eachUser[i]].noBetAmount != 0){... */\n      jump(tag_173)\n    tag_170:\n        /* \"FacctoryContract/WagerContract.sol\":8399:8534  calculateShares(... */\n      tag_174\n        /* \"FacctoryContract/WagerContract.sol\":8440:8448  userInfo */\n      0x05\n        /* \"FacctoryContract/WagerContract.sol\":8440:8461  userInfo[eachUser[i]] */\n      0x00\n        /* \"FacctoryContract/WagerContract.sol\":8449:8457  eachUser */\n      0x04\n        /* \"FacctoryContract/WagerContract.sol\":8449:8460  eachUser[i] */\n      0x00\n        /* \"FacctoryContract/WagerContract.sol\":8458:8459  i */\n      dup6\n        /* \"FacctoryContract/WagerContract.sol\":8449:8460  eachUser[i] */\n      dup2\n      mstore\n      0x20\n      add\n      swap1\n      dup2\n      mstore\n      0x20\n      add\n      0x00\n      keccak256\n      0x00\n      swap1\n      sload\n      swap1\n      0x0100\n      exp\n      swap1\n      div\n      0xffffffffffffffffffffffffffffffffffffffff\n      and\n        /* \"FacctoryContract/WagerContract.sol\":8440:8461  userInfo[eachUser[i]] */\n      0xffffffffffffffffffffffffffffffffffffffff\n      and\n      0xffffffffffffffffffffffffffffffffffffffff\n      and\n      dup2\n      mstore\n      0x20\n      add\n      swap1\n      dup2\n      mstore\n      0x20\n      add\n      0x00\n      keccak256\n        /* \"FacctoryContract/WagerContract.sol\":8440:8474  userInfo[eachUser[i]].yesBetAmount */\n      0x03\n      add\n      sload\n        /* \"FacctoryContract/WagerContract.sol\":8500:8512  winningIndex */\n      dup5\n        /* \"FacctoryContract/WagerContract.sol\":8399:8414  calculateShares */\n      tag_88\n        /* \"FacctoryContract/WagerContract.sol\":8399:8534  calculateShares(... */\n      jump\t// in\n    tag_174:\n        /* \"FacctoryContract/WagerContract.sol\":8363:8371  userInfo */\n      0x05\n        /* \"FacctoryContract/WagerContract.sol\":8363:8384  userInfo[eachUser[i]] */\n      0x00\n        /* \"FacctoryContract/WagerContract.sol\":8372:8380  eachUser */\n      0x04\n        /* \"FacctoryContract/WagerContract.sol\":8372:8383  eachUser[i] */\n      0x00\n        /* \"FacctoryContract/WagerContract.sol\":8381:8382  i */\n      dup6\n        /* \"FacctoryContract/WagerContract.sol\":8372:8383  eachUser[i] */\n      dup2\n      mstore\n      0x20\n      add\n      swap1\n      dup2\n      mstore\n      0x20\n      add\n      0x00\n      keccak256\n      0x00\n      swap1\n      sload\n      swap1\n      0x0100\n      exp\n      swap1\n      div\n      0xffffffffffffffffffffffffffffffffffffffff\n      and\n        /* \"FacctoryContract/WagerContract.sol\":8363:8384  userInfo[eachUser[i]] */\n      0xffffffffffffffffffffffffffffffffffffffff\n      and\n      0xffffffffffffffffffffffffffffffffffffffff\n      and\n      dup2\n      mstore\n      0x20\n      add\n      swap1\n      dup2\n      mstore\n      0x20\n      add\n      0x00\n      keccak256\n        /* \"FacctoryContract/WagerContract.sol\":8363:8396  userInfo[eachUser[i]].shareAmount */\n      0x04\n      add\n        /* \"FacctoryContract/WagerContract.sol\":8363:8534  userInfo[eachUser[i]].shareAmount = calculateShares(... */\n      dup2\n      swap1\n      sstore\n      pop\n        /* \"FacctoryContract/WagerContract.sol\":8577:8585  userInfo */\n      0x05\n        /* \"FacctoryContract/WagerContract.sol\":8577:8598  userInfo[eachUser[i]] */\n      0x00\n        /* \"FacctoryContract/WagerContract.sol\":8586:8594  eachUser */\n      0x04\n        /* \"FacctoryContract/WagerContract.sol\":8586:8597  eachUser[i] */\n      0x00\n        /* \"FacctoryContract/WagerContract.sol\":8595:8596  i */\n      dup5\n        /* \"FacctoryContract/WagerContract.sol\":8586:8597  eachUser[i] */\n      dup2\n      mstore\n      0x20\n      add\n      swap1\n      dup2\n      mstore\n      0x20\n      add\n      0x00\n      keccak256\n      0x00\n      swap1\n      sload\n      swap1\n      0x0100\n      exp\n      swap1\n      div\n      0xffffffffffffffffffffffffffffffffffffffff\n      and\n        /* \"FacctoryContract/WagerContract.sol\":8577:8598  userInfo[eachUser[i]] */\n      0xffffffffffffffffffffffffffffffffffffffff\n      and\n      0xffffffffffffffffffffffffffffffffffffffff\n      and\n      dup2\n      mstore\n      0x20\n      add\n      swap1\n      dup2\n      mstore\n      0x20\n      add\n      0x00\n      keccak256\n        /* \"FacctoryContract/WagerContract.sol\":8577:8610  userInfo[eachUser[i]].shareAmount */\n      0x04\n      add\n      sload\n        /* \"FacctoryContract/WagerContract.sol\":8557:8610  totalWinnerShare += userInfo[eachUser[i]].shareAmount */\n      dup3\n      tag_175\n      swap2\n      swap1\n      tag_125\n      jump\t// in\n    tag_175:\n      swap2\n      pop\n        /* \"FacctoryContract/WagerContract.sol\":7949:8629  if(winningIndex == 0 && userInfo[eachUser[i]].noBetAmount != 0){... */\n    tag_173:\n        /* \"FacctoryContract/WagerContract.sol\":7884:8644  if(userInfo[eachUser[i]].betOn[winningIndex]) {... */\n    tag_168:\n        /* \"FacctoryContract/WagerContract.sol\":7864:7867  i++ */\n      dup1\n      dup1\n      0x01\n      add\n      swap2\n      pop\n      pop\n        /* \"FacctoryContract/WagerContract.sol\":7829:8657  for(uint256 i = 0; i < totalUsers; i++){... */\n      jump(tag_165)\n    tag_166:\n      pop\n        /* \"FacctoryContract/WagerContract.sol\":8667:8684  uint256 _perShare */\n      0x00\n        /* \"FacctoryContract/WagerContract.sol\":8727:8743  totalWinnerShare */\n      dup2\n        /* \"FacctoryContract/WagerContract.sol\":8687:8697  marketInfo */\n      0x06\n        /* \"FacctoryContract/WagerContract.sol\":8687:8712  marketInfo[address(this)] */\n      0x00\n        /* \"FacctoryContract/WagerContract.sol\":8706:8710  this */\n      address\n        /* \"FacctoryContract/WagerContract.sol\":8687:8712  marketInfo[address(this)] */\n      0xffffffffffffffffffffffffffffffffffffffff\n      and\n      0xffffffffffffffffffffffffffffffffffffffff\n      and\n      dup2\n      mstore\n      0x20\n      add\n      swap1\n      dup2\n      mstore\n      0x20\n      add\n      0x00\n      keccak256\n        /* \"FacctoryContract/WagerContract.sol\":8687:8724  marketInfo[address(this)].totalAmount */\n      0x03\n      add\n      sload\n        /* \"FacctoryContract/WagerContract.sol\":8687:8743  marketInfo[address(this)].totalAmount / totalWinnerShare */\n      tag_176\n      swap2\n      swap1\n      tag_130\n      jump\t// in\n    tag_176:\n        /* \"FacctoryContract/WagerContract.sol\":8667:8743  uint256 _perShare = marketInfo[address(this)].totalAmount / totalWinnerShare */\n      swap1\n      pop\n        /* \"FacctoryContract/WagerContract.sol\":8753:8773  uint256 _ownerAmount */\n      0x00\n        /* \"FacctoryContract/WagerContract.sol\":8797:8806  uint256 i */\n      0x00\n        /* \"FacctoryContract/WagerContract.sol\":8809:8810  0 */\n      0x00\n        /* \"FacctoryContract/WagerContract.sol\":8797:8810  uint256 i = 0 */\n      swap1\n      pop\n        /* \"FacctoryContract/WagerContract.sol\":8792:9690  for (uint256 i = 0; i < totalUsers; i++) {... */\n    tag_177:\n        /* \"FacctoryContract/WagerContract.sol\":8816:8826  totalUsers */\n      sload(0x02)\n        /* \"FacctoryContract/WagerContract.sol\":8812:8813  i */\n      dup2\n        /* \"FacctoryContract/WagerContract.sol\":8812:8826  i < totalUsers */\n      lt\n        /* \"FacctoryContract/WagerContract.sol\":8792:9690  for (uint256 i = 0; i < totalUsers; i++) {... */\n      iszero\n      tag_178\n      jumpi\n        /* \"FacctoryContract/WagerContract.sol\":8863:8871  userInfo */\n      0x05\n        /* \"FacctoryContract/WagerContract.sol\":8863:8884  userInfo[eachUser[i]] */\n      0x00\n        /* \"FacctoryContract/WagerContract.sol\":8872:8880  eachUser */\n      0x04\n        /* \"FacctoryContract/WagerContract.sol\":8872:8883  eachUser[i] */\n      0x00\n        /* \"FacctoryContract/WagerContract.sol\":8881:8882  i */\n      dup5\n        /* \"FacctoryContract/WagerContract.sol\":8872:8883  eachUser[i] */\n      dup2\n      mstore\n      0x20\n      add\n      swap1\n      dup2\n      mstore\n      0x20\n      add\n      0x00\n      keccak256\n      0x00\n      swap1\n      sload\n      swap1\n      0x0100\n      exp\n      swap1\n      div\n      0xffffffffffffffffffffffffffffffffffffffff\n      and\n        /* \"FacctoryContract/WagerContract.sol\":8863:8884  userInfo[eachUser[i]] */\n      0xffffffffffffffffffffffffffffffffffffffff\n      and\n      0xffffffffffffffffffffffffffffffffffffffff\n      and\n      dup2\n      mstore\n      0x20\n      add\n      swap1\n      dup2\n      mstore\n      0x20\n      add\n      0x00\n      keccak256\n        /* \"FacctoryContract/WagerContract.sol\":8863:8890  userInfo[eachUser[i]].betOn */\n      0x05\n      add\n        /* \"FacctoryContract/WagerContract.sol\":8863:8904  userInfo[eachUser[i]].betOn[winningIndex] */\n      0x00\n        /* \"FacctoryContract/WagerContract.sol\":8891:8903  winningIndex */\n      dup7\n        /* \"FacctoryContract/WagerContract.sol\":8863:8904  userInfo[eachUser[i]].betOn[winningIndex] */\n      dup2\n      mstore\n      0x20\n      add\n      swap1\n      dup2\n      mstore\n      0x20\n      add\n      0x00\n      keccak256\n      0x00\n      swap1\n      sload\n      swap1\n      0x0100\n      exp\n      swap1\n      div\n      0xff\n      and\n        /* \"FacctoryContract/WagerContract.sol\":8860:9680  if(userInfo[eachUser[i]].betOn[winningIndex]) {... */\n      iszero\n      tag_180\n      jumpi\n        /* \"FacctoryContract/WagerContract.sol\":8925:8948  uint256 userTotalAmount */\n      0x00\n        /* \"FacctoryContract/WagerContract.sol\":8987:8996  _perShare */\n      dup4\n        /* \"FacctoryContract/WagerContract.sol\":8951:8959  userInfo */\n      0x05\n        /* \"FacctoryContract/WagerContract.sol\":8951:8972  userInfo[eachUser[i]] */\n      0x00\n        /* \"FacctoryContract/WagerContract.sol\":8960:8968  eachUser */\n      0x04\n        /* \"FacctoryContract/WagerContract.sol\":8960:8971  eachUser[i] */\n      0x00\n        /* \"FacctoryContract/WagerContract.sol\":8969:8970  i */\n      dup7\n        /* \"FacctoryContract/WagerContract.sol\":8960:8971  eachUser[i] */\n      dup2\n      mstore\n      0x20\n      add\n      swap1\n      dup2\n      mstore\n      0x20\n      add\n      0x00\n      keccak256\n      0x00\n      swap1\n      sload\n      swap1\n      0x0100\n      exp\n      swap1\n      div\n      0xffffffffffffffffffffffffffffffffffffffff\n      and\n        /* \"FacctoryContract/WagerContract.sol\":8951:8972  userInfo[eachUser[i]] */\n      0xffffffffffffffffffffffffffffffffffffffff\n      and\n      0xffffffffffffffffffffffffffffffffffffffff\n      and\n      dup2\n      mstore\n      0x20\n      add\n      swap1\n      dup2\n      mstore\n      0x20\n      add\n      0x00\n      keccak256\n        /* \"FacctoryContract/WagerContract.sol\":8951:8984  userInfo[eachUser[i]].shareAmount */\n      0x04\n      add\n      sload\n        /* \"FacctoryContract/WagerContract.sol\":8951:8996  userInfo[eachUser[i]].shareAmount * _perShare */\n      tag_181\n      swap2\n      swap1\n      tag_128\n      jump\t// in\n    tag_181:\n        /* \"FacctoryContract/WagerContract.sol\":8925:8996  uint256 userTotalAmount = userInfo[eachUser[i]].shareAmount * _perShare */\n      swap1\n      pop\n        /* \"FacctoryContract/WagerContract.sol\":9014:9044  uint256 userProfitAmountAmount */\n      0x00\n        /* \"FacctoryContract/WagerContract.sol\":9065:9073  userInfo */\n      0x05\n        /* \"FacctoryContract/WagerContract.sol\":9065:9086  userInfo[eachUser[i]] */\n      0x00\n        /* \"FacctoryContract/WagerContract.sol\":9074:9082  eachUser */\n      0x04\n        /* \"FacctoryContract/WagerContract.sol\":9074:9085  eachUser[i] */\n      0x00\n        /* \"FacctoryContract/WagerContract.sol\":9083:9084  i */\n      dup7\n        /* \"FacctoryContract/WagerContract.sol\":9074:9085  eachUser[i] */\n      dup2\n      mstore\n      0x20\n      add\n      swap1\n      dup2\n      mstore\n      0x20\n      add\n      0x00\n      keccak256\n      0x00\n      swap1\n      sload\n      swap1\n      0x0100\n      exp\n      swap1\n      div\n      0xffffffffffffffffffffffffffffffffffffffff\n      and\n        /* \"FacctoryContract/WagerContract.sol\":9065:9086  userInfo[eachUser[i]] */\n      0xffffffffffffffffffffffffffffffffffffffff\n      and\n      0xffffffffffffffffffffffffffffffffffffffff\n      and\n      dup2\n      mstore\n      0x20\n      add\n      swap1\n      dup2\n      mstore\n      0x20\n      add\n      0x00\n      keccak256\n        /* \"FacctoryContract/WagerContract.sol\":9065:9098  userInfo[eachUser[i]].shareAmount */\n      0x04\n      add\n      sload\n        /* \"FacctoryContract/WagerContract.sol\":9047:9062  userTotalAmount */\n      dup3\n        /* \"FacctoryContract/WagerContract.sol\":9047:9098  userTotalAmount - userInfo[eachUser[i]].shareAmount */\n      tag_182\n      swap2\n      swap1\n      tag_183\n      jump\t// in\n    tag_182:\n        /* \"FacctoryContract/WagerContract.sol\":9014:9098  uint256 userProfitAmountAmount = userTotalAmount - userInfo[eachUser[i]].shareAmount */\n      swap1\n      pop\n        /* \"FacctoryContract/WagerContract.sol\":9117:9141  uint256 tenPercentAmount */\n      0x00\n        /* \"FacctoryContract/WagerContract.sol\":9144:9204  calculatePercentage(userProfitAmountAmount,profitPercentage) */\n      tag_184\n        /* \"FacctoryContract/WagerContract.sol\":9164:9186  userProfitAmountAmount */\n      dup3\n        /* \"FacctoryContract/WagerContract.sol\":9187:9203  profitPercentage */\n      sload(0x03)\n        /* \"FacctoryContract/WagerContract.sol\":9144:9163  calculatePercentage */\n      tag_185\n        /* \"FacctoryContract/WagerContract.sol\":9144:9204  calculatePercentage(userProfitAmountAmount,profitPercentage) */\n      jump\t// in\n    tag_184:\n        /* \"FacctoryContract/WagerContract.sol\":9117:9204  uint256 tenPercentAmount = calculatePercentage(userProfitAmountAmount,profitPercentage) */\n      swap1\n      pop\n        /* \"FacctoryContract/WagerContract.sol\":9238:9254  tenPercentAmount */\n      dup1\n        /* \"FacctoryContract/WagerContract.sol\":9222:9254  _ownerAmount += tenPercentAmount */\n      dup6\n      tag_186\n      swap2\n      swap1\n      tag_125\n      jump\t// in\n    tag_186:\n      swap5\n      pop\n        /* \"FacctoryContract/WagerContract.sol\":9332:9348  tenPercentAmount */\n      dup1\n        /* \"FacctoryContract/WagerContract.sol\":9314:9329  userTotalAmount */\n      dup4\n        /* \"FacctoryContract/WagerContract.sol\":9314:9348  userTotalAmount - tenPercentAmount */\n      tag_187\n      swap2\n      swap1\n      tag_183\n      jump\t// in\n    tag_187:\n        /* \"FacctoryContract/WagerContract.sol\":9276:9285  usdcToken */\n      0x01\n      0x00\n      swap1\n      sload\n      swap1\n      0x0100\n      exp\n      swap1\n      div\n      0xffffffffffffffffffffffffffffffffffffffff\n      and\n        /* \"FacctoryContract/WagerContract.sol\":9276:9295  usdcToken.balanceOf */\n      0xffffffffffffffffffffffffffffffffffffffff\n      and\n      0x70a08231\n        /* \"FacctoryContract/WagerContract.sol\":9304:9308  this */\n      address\n        /* \"FacctoryContract/WagerContract.sol\":9276:9310  usdcToken.balanceOf(address(this)) */\n      mload(0x40)\n      dup3\n      0xffffffff\n      and\n      0xe0\n      shl\n      dup2\n      mstore\n      0x04\n      add\n      tag_188\n      swap2\n      swap1\n      tag_31\n      jump\t// in\n    tag_188:\n      0x20\n      mload(0x40)\n      dup1\n      dup4\n      sub\n      dup2\n      dup7\n      gas\n      staticcall\n      iszero\n      dup1\n      iszero\n      tag_190\n      jumpi\n      returndatacopy(0x00, 0x00, returndatasize)\n      revert(0x00, returndatasize)\n    tag_190:\n      pop\n      pop\n      pop\n      pop\n      mload(0x40)\n      returndatasize\n      not(0x1f)\n      0x1f\n      dup3\n      add\n      and\n      dup3\n      add\n      dup1\n      0x40\n      mstore\n      pop\n      dup2\n      add\n      swap1\n      tag_191\n      swap2\n      swap1\n      tag_192\n      jump\t// in\n    tag_191:\n        /* \"FacctoryContract/WagerContract.sol\":9276:9349  usdcToken.balanceOf(address(this)) < (userTotalAmount - tenPercentAmount) */\n      lt\n        /* \"FacctoryContract/WagerContract.sol\":9273:9452  if(usdcToken.balanceOf(address(this)) < (userTotalAmount - tenPercentAmount)){... */\n      iszero\n      tag_193\n      jumpi\n        /* \"FacctoryContract/WagerContract.sol\":9398:9407  usdcToken */\n      0x01\n      0x00\n      swap1\n      sload\n      swap1\n      0x0100\n      exp\n      swap1\n      div\n      0xffffffffffffffffffffffffffffffffffffffff\n      and\n        /* \"FacctoryContract/WagerContract.sol\":9398:9417  usdcToken.balanceOf */\n      0xffffffffffffffffffffffffffffffffffffffff\n      and\n      0x70a08231\n        /* \"FacctoryContract/WagerContract.sol\":9426:9430  this */\n      address\n        /* \"FacctoryContract/WagerContract.sol\":9398:9432  usdcToken.balanceOf(address(this)) */\n      mload(0x40)\n      dup3\n      0xffffffff\n      and\n      0xe0\n      shl\n      dup2\n      mstore\n      0x04\n      add\n      tag_194\n      swap2\n      swap1\n      tag_31\n      jump\t// in\n    tag_194:\n      0x20\n      mload(0x40)\n      dup1\n      dup4\n      sub\n      dup2\n      dup7\n      gas\n      staticcall\n      iszero\n      dup1\n      iszero\n      tag_196\n      jumpi\n      returndatacopy(0x00, 0x00, returndatasize)\n      revert(0x00, returndatasize)\n    tag_196:\n      pop\n      pop\n      pop\n      pop\n      mload(0x40)\n      returndatasize\n      not(0x1f)\n      0x1f\n      dup3\n      add\n      and\n      dup3\n      add\n      dup1\n      0x40\n      mstore\n      pop\n      dup2\n      add\n      swap1\n      tag_197\n      swap2\n      swap1\n      tag_192\n      jump\t// in\n    tag_197:\n        /* \"FacctoryContract/WagerContract.sol\":9379:9433  contractLowbalance(usdcToken.balanceOf(address(this))) */\n      mload(0x40)\n      0xf9ae0cb400000000000000000000000000000000000000000000000000000000\n      dup2\n      mstore\n      0x04\n      add\n      tag_198\n      swap2\n      swap1\n      tag_82\n      jump\t// in\n    tag_198:\n      mload(0x40)\n      dup1\n      swap2\n      sub\n      swap1\n      revert\n        /* \"FacctoryContract/WagerContract.sol\":9273:9452  if(usdcToken.balanceOf(address(this)) < (userTotalAmount - tenPercentAmount)){... */\n    tag_193:\n        /* \"FacctoryContract/WagerContract.sol\":9471:9483  bool success */\n      0x00\n        /* \"FacctoryContract/WagerContract.sol\":9486:9495  usdcToken */\n      0x01\n      0x00\n      swap1\n      sload\n      swap1\n      0x0100\n      exp\n      swap1\n      div\n      0xffffffffffffffffffffffffffffffffffffffff\n      and\n        /* \"FacctoryContract/WagerContract.sol\":9486:9504  usdcToken.transfer */\n      0xffffffffffffffffffffffffffffffffffffffff\n      and\n      0xa9059cbb\n        /* \"FacctoryContract/WagerContract.sol\":9526:9534  eachUser */\n      0x04\n        /* \"FacctoryContract/WagerContract.sol\":9526:9537  eachUser[i] */\n      0x00\n        /* \"FacctoryContract/WagerContract.sol\":9535:9536  i */\n      dup9\n        /* \"FacctoryContract/WagerContract.sol\":9526:9537  eachUser[i] */\n      dup2\n      mstore\n      0x20\n      add\n      swap1\n      dup2\n      mstore\n      0x20\n      add\n      0x00\n      keccak256\n      0x00\n      swap1\n      sload\n      swap1\n      0x0100\n      exp\n      swap1\n      div\n      0xffffffffffffffffffffffffffffffffffffffff\n      and\n        /* \"FacctoryContract/WagerContract.sol\":9577:9593  tenPercentAmount */\n      dup5\n        /* \"FacctoryContract/WagerContract.sol\":9559:9574  userTotalAmount */\n      dup8\n        /* \"FacctoryContract/WagerContract.sol\":9559:9593  userTotalAmount - tenPercentAmount */\n      tag_199\n      swap2\n      swap1\n      tag_183\n      jump\t// in\n    tag_199:\n        /* \"FacctoryContract/WagerContract.sol\":9486:9611  usdcToken.transfer(... */\n      mload(0x40)\n      dup4\n      0xffffffff\n      and\n      0xe0\n      shl\n      dup2\n      mstore\n      0x04\n      add\n      tag_200\n      swap3\n      swap2\n      swap1\n      tag_201\n      jump\t// in\n    tag_200:\n      0x20\n      mload(0x40)\n      dup1\n      dup4\n      sub\n      dup2\n      0x00\n      dup8\n      gas\n      call\n      iszero\n      dup1\n      iszero\n      tag_203\n      jumpi\n      returndatacopy(0x00, 0x00, returndatasize)\n      revert(0x00, returndatasize)\n    tag_203:\n      pop\n      pop\n      pop\n      pop\n      mload(0x40)\n      returndatasize\n      not(0x1f)\n      0x1f\n      dup3\n      add\n      and\n      dup3\n      add\n      dup1\n      0x40\n      mstore\n      pop\n      dup2\n      add\n      swap1\n      tag_204\n      swap2\n      swap1\n      tag_205\n      jump\t// in\n    tag_204:\n        /* \"FacctoryContract/WagerContract.sol\":9471:9611  bool success = usdcToken.transfer(... */\n      swap1\n      pop\n        /* \"FacctoryContract/WagerContract.sol\":9637:9644  success */\n      dup1\n        /* \"FacctoryContract/WagerContract.sol\":9629:9664  require(success, \"Transfer failed\") */\n      tag_206\n      jumpi\n      mload(0x40)\n      0x08c379a000000000000000000000000000000000000000000000000000000000\n      dup2\n      mstore\n      0x04\n      add\n      tag_207\n      swap1\n      tag_208\n      jump\t// in\n    tag_207:\n      mload(0x40)\n      dup1\n      swap2\n      sub\n      swap1\n      revert\n    tag_206:\n        /* \"FacctoryContract/WagerContract.sol\":8906:9680  {... */\n      pop\n      pop\n      pop\n      pop\n        /* \"FacctoryContract/WagerContract.sol\":8860:9680  if(userInfo[eachUser[i]].betOn[winningIndex]) {... */\n    tag_180:\n        /* \"FacctoryContract/WagerContract.sol\":8828:8831  i++ */\n      dup1\n      dup1\n      0x01\n      add\n      swap2\n      pop\n      pop\n        /* \"FacctoryContract/WagerContract.sol\":8792:9690  for (uint256 i = 0; i < totalUsers; i++) {... */\n      jump(tag_177)\n    tag_178:\n      pop\n        /* \"FacctoryContract/WagerContract.sol\":9740:9752  _ownerAmount */\n      dup1\n        /* \"FacctoryContract/WagerContract.sol\":9703:9712  usdcToken */\n      0x01\n      0x00\n      swap1\n      sload\n      swap1\n      0x0100\n      exp\n      swap1\n      div\n      0xffffffffffffffffffffffffffffffffffffffff\n      and\n        /* \"FacctoryContract/WagerContract.sol\":9703:9722  usdcToken.balanceOf */\n      0xffffffffffffffffffffffffffffffffffffffff\n      and\n      0x70a08231\n        /* \"FacctoryContract/WagerContract.sol\":9731:9735  this */\n      address\n        /* \"FacctoryContract/WagerContract.sol\":9703:9737  usdcToken.balanceOf(address(this)) */\n      mload(0x40)\n      dup3\n      0xffffffff\n      and\n      0xe0\n      shl\n      dup2\n      mstore\n      0x04\n      add\n      tag_209\n      swap2\n      swap1\n      tag_31\n      jump\t// in\n    tag_209:\n      0x20\n      mload(0x40)\n      dup1\n      dup4\n      sub\n      dup2\n      dup7\n      gas\n      staticcall\n      iszero\n      dup1\n      iszero\n      tag_211\n      jumpi\n      returndatacopy(0x00, 0x00, returndatasize)\n      revert(0x00, returndatasize)\n    tag_211:\n      pop\n      pop\n      pop\n      pop\n      mload(0x40)\n      returndatasize\n      not(0x1f)\n      0x1f\n      dup3\n      add\n      and\n      dup3\n      add\n      dup1\n      0x40\n      mstore\n      pop\n      dup2\n      add\n      swap1\n      tag_212\n      swap2\n      swap1\n      tag_192\n      jump\t// in\n    tag_212:\n        /* \"FacctoryContract/WagerContract.sol\":9703:9752  usdcToken.balanceOf(address(this)) < _ownerAmount */\n      lt\n        /* \"FacctoryContract/WagerContract.sol\":9700:9847  if(usdcToken.balanceOf(address(this)) < _ownerAmount){... */\n      iszero\n      tag_213\n      jumpi\n        /* \"FacctoryContract/WagerContract.sol\":9801:9810  usdcToken */\n      0x01\n      0x00\n      swap1\n      sload\n      swap1\n      0x0100\n      exp\n      swap1\n      div\n      0xffffffffffffffffffffffffffffffffffffffff\n      and\n        /* \"FacctoryContract/WagerContract.sol\":9801:9820  usdcToken.balanceOf */\n      0xffffffffffffffffffffffffffffffffffffffff\n      and\n      0x70a08231\n        /* \"FacctoryContract/WagerContract.sol\":9829:9833  this */\n      address\n        /* \"FacctoryContract/WagerContract.sol\":9801:9835  usdcToken.balanceOf(address(this)) */\n      mload(0x40)\n      dup3\n      0xffffffff\n      and\n      0xe0\n      shl\n      dup2\n      mstore\n      0x04\n      add\n      tag_214\n      swap2\n      swap1\n      tag_31\n      jump\t// in\n    tag_214:\n      0x20\n      mload(0x40)\n      dup1\n      dup4\n      sub\n      dup2\n      dup7\n      gas\n      staticcall\n      iszero\n      dup1\n      iszero\n      tag_216\n      jumpi\n      returndatacopy(0x00, 0x00, returndatasize)\n      revert(0x00, returndatasize)\n    tag_216:\n      pop\n      pop\n      pop\n      pop\n      mload(0x40)\n      returndatasize\n      not(0x1f)\n      0x1f\n      dup3\n      add\n      and\n      dup3\n      add\n      dup1\n      0x40\n      mstore\n      pop\n      dup2\n      add\n      swap1\n      tag_217\n      swap2\n      swap1\n      tag_192\n      jump\t// in\n    tag_217:\n        /* \"FacctoryContract/WagerContract.sol\":9774:9836  contractLowbalanceForOwner(usdcToken.balanceOf(address(this))) */\n      mload(0x40)\n      0xba9c3e4f00000000000000000000000000000000000000000000000000000000\n      dup2\n      mstore\n      0x04\n      add\n      tag_218\n      swap2\n      swap1\n      tag_82\n      jump\t// in\n    tag_218:\n      mload(0x40)\n      dup1\n      swap2\n      sub\n      swap1\n      revert\n        /* \"FacctoryContract/WagerContract.sol\":9700:9847  if(usdcToken.balanceOf(address(this)) < _ownerAmount){... */\n    tag_213:\n        /* \"FacctoryContract/WagerContract.sol\":9894:9898  true */\n      0x01\n        /* \"FacctoryContract/WagerContract.sol\":9857:9867  marketInfo */\n      0x06\n        /* \"FacctoryContract/WagerContract.sol\":9857:9882  marketInfo[address(this)] */\n      0x00\n        /* \"FacctoryContract/WagerContract.sol\":9876:9880  this */\n      address\n        /* \"FacctoryContract/WagerContract.sol\":9857:9882  marketInfo[address(this)] */\n      0xffffffffffffffffffffffffffffffffffffffff\n      and\n      0xffffffffffffffffffffffffffffffffffffffff\n      and\n      dup2\n      mstore\n      0x20\n      add\n      swap1\n      dup2\n      mstore\n      0x20\n      add\n      0x00\n      keccak256\n        /* \"FacctoryContract/WagerContract.sol\":9857:9891  marketInfo[address(this)].resolved */\n      0x00\n      add\n      0x00\n        /* \"FacctoryContract/WagerContract.sol\":9857:9898  marketInfo[address(this)].resolved = true */\n      0x0100\n      exp\n      dup2\n      sload\n      dup2\n      0xff\n      mul\n      not\n      and\n      swap1\n      dup4\n      iszero\n      iszero\n      mul\n      or\n      swap1\n      sstore\n      pop\n        /* \"FacctoryContract/WagerContract.sol\":9917:9930  bool success1 */\n      0x00\n        /* \"FacctoryContract/WagerContract.sol\":9933:9942  usdcToken */\n      0x01\n      0x00\n      swap1\n      sload\n      swap1\n      0x0100\n      exp\n      swap1\n      div\n      0xffffffffffffffffffffffffffffffffffffffff\n      and\n        /* \"FacctoryContract/WagerContract.sol\":9933:9951  usdcToken.transfer */\n      0xffffffffffffffffffffffffffffffffffffffff\n      and\n      0xa9059cbb\n        /* \"FacctoryContract/WagerContract.sol\":9952:9959  owner() */\n      tag_219\n        /* \"FacctoryContract/WagerContract.sol\":9952:9957  owner */\n      tag_84\n        /* \"FacctoryContract/WagerContract.sol\":9952:9959  owner() */\n      jump\t// in\n    tag_219:\n        /* \"FacctoryContract/WagerContract.sol\":9960:9972  _ownerAmount */\n      dup5\n        /* \"FacctoryContract/WagerContract.sol\":9933:9973  usdcToken.transfer(owner(),_ownerAmount) */\n      mload(0x40)\n      dup4\n      0xffffffff\n      and\n      0xe0\n      shl\n      dup2\n      mstore\n      0x04\n      add\n      tag_220\n      swap3\n      swap2\n      swap1\n      tag_201\n      jump\t// in\n    tag_220:\n      0x20\n      mload(0x40)\n      dup1\n      dup4\n      sub\n      dup2\n      0x00\n      dup8\n      gas\n      call\n      iszero\n      dup1\n      iszero\n      tag_222\n      jumpi\n      returndatacopy(0x00, 0x00, returndatasize)\n      revert(0x00, returndatasize)\n    tag_222:\n      pop\n      pop\n      pop\n      pop\n      mload(0x40)\n      returndatasize\n      not(0x1f)\n      0x1f\n      dup3\n      add\n      and\n      dup3\n      add\n      dup1\n      0x40\n      mstore\n      pop\n      dup2\n      add\n      swap1\n      tag_223\n      swap2\n      swap1\n      tag_205\n      jump\t// in\n    tag_223:\n        /* \"FacctoryContract/WagerContract.sol\":9917:9973  bool success1 = usdcToken.transfer(owner(),_ownerAmount) */\n      swap1\n      pop\n        /* \"FacctoryContract/WagerContract.sol\":9991:9999  success1 */\n      dup1\n        /* \"FacctoryContract/WagerContract.sol\":9983:10019  require(success1, \"Transfer failed\") */\n      tag_224\n      jumpi\n      mload(0x40)\n      0x08c379a000000000000000000000000000000000000000000000000000000000\n      dup2\n      mstore\n      0x04\n      add\n      tag_225\n      swap1\n      tag_208\n      jump\t// in\n    tag_225:\n      mload(0x40)\n      dup1\n      swap2\n      sub\n      swap1\n      revert\n    tag_224:\n        /* \"FacctoryContract/WagerContract.sol\":10035:10097  ResolveMarket( owner(), _ownerAmount, _perShare, winningIndex) */\n      0x4d21af759c8d2f25c6246594b4cfc2edeb2b901bc0c6e87f5e21c212a12ca1fd\n        /* \"FacctoryContract/WagerContract.sol\":10050:10057  owner() */\n      tag_226\n        /* \"FacctoryContract/WagerContract.sol\":10050:10055  owner */\n      tag_84\n        /* \"FacctoryContract/WagerContract.sol\":10050:10057  owner() */\n      jump\t// in\n    tag_226:\n        /* \"FacctoryContract/WagerContract.sol\":10059:10071  _ownerAmount */\n      dup4\n        /* \"FacctoryContract/WagerContract.sol\":10073:10082  _perShare */\n      dup6\n        /* \"FacctoryContract/WagerContract.sol\":10084:10096  winningIndex */\n      dup9\n        /* \"FacctoryContract/WagerContract.sol\":10035:10097  ResolveMarket( owner(), _ownerAmount, _perShare, winningIndex) */\n      mload(0x40)\n      tag_227\n      swap5\n      swap4\n      swap3\n      swap2\n      swap1\n      tag_228\n      jump\t// in\n    tag_227:\n      mload(0x40)\n      dup1\n      swap2\n      sub\n      swap1\n      log1\n        /* \"FacctoryContract/WagerContract.sol\":7407:10104  {... */\n      pop\n      pop\n      pop\n      pop\n        /* \"FacctoryContract/WagerContract.sol\":7351:10104  function resolveMarket(uint256 winningIndex) external   {... */\n      pop\n      jump\t// out\n        /* \"FacctoryContract/WagerContract.sol\":2438:3758  function bet(uint256 _amount, uint256 _betOn) external {... */\n    tag_75:\n        /* \"FacctoryContract/WagerContract.sol\":2517:2518  0 */\n      0x00\n        /* \"FacctoryContract/WagerContract.sol\":2507:2513  _betOn */\n      dup2\n        /* \"FacctoryContract/WagerContract.sol\":2507:2518  _betOn != 0 */\n      eq\n      iszero\n        /* \"FacctoryContract/WagerContract.sol\":2507:2533  _betOn != 0 && _betOn != 1 */\n      dup1\n      iszero\n      tag_230\n      jumpi\n      pop\n        /* \"FacctoryContract/WagerContract.sol\":2532:2533  1 */\n      0x01\n        /* \"FacctoryContract/WagerContract.sol\":2522:2528  _betOn */\n      dup2\n        /* \"FacctoryContract/WagerContract.sol\":2522:2533  _betOn != 1 */\n      eq\n      iszero\n        /* \"FacctoryContract/WagerContract.sol\":2507:2533  _betOn != 0 && _betOn != 1 */\n    tag_230:\n        /* \"FacctoryContract/WagerContract.sol\":2504:2587  if(_betOn != 0 && _betOn != 1){... */\n      iszero\n      tag_231\n      jumpi\n        /* \"FacctoryContract/WagerContract.sol\":2569:2575  _betOn */\n      dup1\n        /* \"FacctoryContract/WagerContract.sol\":2555:2576  wrongBetIndex(_betOn) */\n      mload(0x40)\n      0xd7acbe8900000000000000000000000000000000000000000000000000000000\n      dup2\n      mstore\n      0x04\n      add\n      tag_232\n      swap2\n      swap1\n      tag_82\n      jump\t// in\n    tag_232:\n      mload(0x40)\n      dup1\n      swap2\n      sub\n      swap1\n      revert\n        /* \"FacctoryContract/WagerContract.sol\":2504:2587  if(_betOn != 0 && _betOn != 1){... */\n    tag_231:\n        /* \"FacctoryContract/WagerContract.sol\":2610:2611  0 */\n      0x00\n        /* \"FacctoryContract/WagerContract.sol\":2599:2606  _amount */\n      dup3\n        /* \"FacctoryContract/WagerContract.sol\":2599:2611  _amount <= 0 */\n      gt\n        /* \"FacctoryContract/WagerContract.sol\":2596:2664  if(_amount <= 0){... */\n      tag_233\n      jumpi\n        /* \"FacctoryContract/WagerContract.sol\":2645:2652  _amount */\n      dup2\n        /* \"FacctoryContract/WagerContract.sol\":2633:2653  wrongAmount(_amount) */\n      mload(0x40)\n      0x2ff4783000000000000000000000000000000000000000000000000000000000\n      dup2\n      mstore\n      0x04\n      add\n      tag_234\n      swap2\n      swap1\n      tag_82\n      jump\t// in\n    tag_234:\n      mload(0x40)\n      dup1\n      swap2\n      sub\n      swap1\n      revert\n        /* \"FacctoryContract/WagerContract.sol\":2596:2664  if(_amount <= 0){... */\n    tag_233:\n        /* \"FacctoryContract/WagerContract.sol\":2685:2695  marketInfo */\n      0x06\n        /* \"FacctoryContract/WagerContract.sol\":2685:2710  marketInfo[address(this)] */\n      0x00\n        /* \"FacctoryContract/WagerContract.sol\":2704:2708  this */\n      address\n        /* \"FacctoryContract/WagerContract.sol\":2685:2710  marketInfo[address(this)] */\n      0xffffffffffffffffffffffffffffffffffffffff\n      and\n      0xffffffffffffffffffffffffffffffffffffffff\n      and\n      dup2\n      mstore\n      0x20\n      add\n      swap1\n      dup2\n      mstore\n      0x20\n      add\n      0x00\n      keccak256\n        /* \"FacctoryContract/WagerContract.sol\":2685:2719  marketInfo[address(this)].resolved */\n      0x00\n      add\n      0x00\n      swap1\n      sload\n      swap1\n      0x0100\n      exp\n      swap1\n      div\n      0xff\n      and\n        /* \"FacctoryContract/WagerContract.sol\":2682:2768  if(marketInfo[address(this)].resolved){... */\n      iszero\n      tag_235\n      jumpi\n        /* \"FacctoryContract/WagerContract.sol\":2741:2757  marketResolved() */\n      mload(0x40)\n      0x853fd42100000000000000000000000000000000000000000000000000000000\n      dup2\n      mstore\n      0x04\n      add\n      mload(0x40)\n      dup1\n      swap2\n      sub\n      swap1\n      revert\n        /* \"FacctoryContract/WagerContract.sol\":2682:2768  if(marketInfo[address(this)].resolved){... */\n    tag_235:\n        /* \"FacctoryContract/WagerContract.sol\":2791:2799  userInfo */\n      0x05\n        /* \"FacctoryContract/WagerContract.sol\":2791:2811  userInfo[msg.sender] */\n      0x00\n        /* \"FacctoryContract/WagerContract.sol\":2800:2810  msg.sender */\n      caller\n        /* \"FacctoryContract/WagerContract.sol\":2791:2811  userInfo[msg.sender] */\n      0xffffffffffffffffffffffffffffffffffffffff\n      and\n      0xffffffffffffffffffffffffffffffffffffffff\n      and\n      dup2\n      mstore\n      0x20\n      add\n      swap1\n      dup2\n      mstore\n      0x20\n      add\n      0x00\n      keccak256\n        /* \"FacctoryContract/WagerContract.sol\":2791:2817  userInfo[msg.sender].betOn */\n      0x05\n      add\n        /* \"FacctoryContract/WagerContract.sol\":2791:2825  userInfo[msg.sender].betOn[_betOn] */\n      0x00\n        /* \"FacctoryContract/WagerContract.sol\":2818:2824  _betOn */\n      dup3\n        /* \"FacctoryContract/WagerContract.sol\":2791:2825  userInfo[msg.sender].betOn[_betOn] */\n      dup2\n      mstore\n      0x20\n      add\n      swap1\n      dup2\n      mstore\n      0x20\n      add\n      0x00\n      keccak256\n      0x00\n      swap1\n      sload\n      swap1\n      0x0100\n      exp\n      swap1\n      div\n      0xff\n      and\n        /* \"FacctoryContract/WagerContract.sol\":2787:2915  if(!userInfo[msg.sender].betOn[_betOn]){     ... */\n      tag_236\n      jumpi\n        /* \"FacctoryContract/WagerContract.sol\":2868:2878  msg.sender */\n      caller\n        /* \"FacctoryContract/WagerContract.sol\":2845:2853  eachUser */\n      0x04\n        /* \"FacctoryContract/WagerContract.sol\":2845:2865  eachUser[totalUsers] */\n      0x00\n        /* \"FacctoryContract/WagerContract.sol\":2854:2864  totalUsers */\n      sload(0x02)\n        /* \"FacctoryContract/WagerContract.sol\":2845:2865  eachUser[totalUsers] */\n      dup2\n      mstore\n      0x20\n      add\n      swap1\n      dup2\n      mstore\n      0x20\n      add\n      0x00\n      keccak256\n      0x00\n        /* \"FacctoryContract/WagerContract.sol\":2845:2878  eachUser[totalUsers] = msg.sender */\n      0x0100\n      exp\n      dup2\n      sload\n      dup2\n      0xffffffffffffffffffffffffffffffffffffffff\n      mul\n      not\n      and\n      swap1\n      dup4\n      0xffffffffffffffffffffffffffffffffffffffff\n      and\n      mul\n      or\n      swap1\n      sstore\n      pop\n        /* \"FacctoryContract/WagerContract.sol\":2892:2902  totalUsers */\n      0x02\n      0x00\n        /* \"FacctoryContract/WagerContract.sol\":2892:2904  totalUsers++ */\n      dup2\n      sload\n      dup1\n      swap3\n      swap2\n      swap1\n      tag_237\n      swap1\n      tag_156\n      jump\t// in\n    tag_237:\n      swap2\n      swap1\n      pop\n      sstore\n      pop\n        /* \"FacctoryContract/WagerContract.sol\":2787:2915  if(!userInfo[msg.sender].betOn[_betOn]){     ... */\n    tag_236:\n        /* \"FacctoryContract/WagerContract.sol\":2938:2939  0 */\n      0x00\n        /* \"FacctoryContract/WagerContract.sol\":2928:2934  _betOn */\n      dup2\n        /* \"FacctoryContract/WagerContract.sol\":2928:2939  _betOn == 0 */\n      sub\n        /* \"FacctoryContract/WagerContract.sol\":2925:3199  if(_betOn == 0 ){... */\n      tag_238\n      jumpi\n        /* \"FacctoryContract/WagerContract.sol\":2956:2966  marketInfo */\n      0x06\n        /* \"FacctoryContract/WagerContract.sol\":2956:2981  marketInfo[address(this)] */\n      0x00\n        /* \"FacctoryContract/WagerContract.sol\":2975:2979  this */\n      address\n        /* \"FacctoryContract/WagerContract.sol\":2956:2981  marketInfo[address(this)] */\n      0xffffffffffffffffffffffffffffffffffffffff\n      and\n      0xffffffffffffffffffffffffffffffffffffffff\n      and\n      dup2\n      mstore\n      0x20\n      add\n      swap1\n      dup2\n      mstore\n      0x20\n      add\n      0x00\n      keccak256\n        /* \"FacctoryContract/WagerContract.sol\":2956:2995  marketInfo[address(this)].totalBetsOnNo */\n      0x07\n      add\n      0x00\n        /* \"FacctoryContract/WagerContract.sol\":2956:2997  marketInfo[address(this)].totalBetsOnNo++ */\n      dup2\n      sload\n      dup1\n      swap3\n      swap2\n      swap1\n      tag_239\n      swap1\n      tag_156\n      jump\t// in\n    tag_239:\n      swap2\n      swap1\n      pop\n      sstore\n      pop\n        /* \"FacctoryContract/WagerContract.sol\":3047:3054  _amount */\n      dup2\n        /* \"FacctoryContract/WagerContract.sol\":3011:3019  userInfo */\n      0x05\n        /* \"FacctoryContract/WagerContract.sol\":3011:3031  userInfo[msg.sender] */\n      0x00\n        /* \"FacctoryContract/WagerContract.sol\":3020:3030  msg.sender */\n      caller\n        /* \"FacctoryContract/WagerContract.sol\":3011:3031  userInfo[msg.sender] */\n      0xffffffffffffffffffffffffffffffffffffffff\n      and\n      0xffffffffffffffffffffffffffffffffffffffff\n      and\n      dup2\n      mstore\n      0x20\n      add\n      swap1\n      dup2\n      mstore\n      0x20\n      add\n      0x00\n      keccak256\n        /* \"FacctoryContract/WagerContract.sol\":3011:3043  userInfo[msg.sender].noBetAmount */\n      0x01\n      add\n      0x00\n        /* \"FacctoryContract/WagerContract.sol\":3011:3054  userInfo[msg.sender].noBetAmount += _amount */\n      dup3\n      dup3\n      sload\n      tag_240\n      swap2\n      swap1\n      tag_125\n      jump\t// in\n    tag_240:\n      swap3\n      pop\n      pop\n      dup2\n      swap1\n      sstore\n      pop\n        /* \"FacctoryContract/WagerContract.sol\":2925:3199  if(_betOn == 0 ){... */\n      jump(tag_241)\n    tag_238:\n        /* \"FacctoryContract/WagerContract.sol\":3086:3096  marketInfo */\n      0x06\n        /* \"FacctoryContract/WagerContract.sol\":3086:3111  marketInfo[address(this)] */\n      0x00\n        /* \"FacctoryContract/WagerContract.sol\":3105:3109  this */\n      address\n        /* \"FacctoryContract/WagerContract.sol\":3086:3111  marketInfo[address(this)] */\n      0xffffffffffffffffffffffffffffffffffffffff\n      and\n      0xffffffffffffffffffffffffffffffffffffffff\n      and\n      dup2\n      mstore\n      0x20\n      add\n      swap1\n      dup2\n      mstore\n      0x20\n      add\n      0x00\n      keccak256\n        /* \"FacctoryContract/WagerContract.sol\":3086:3126  marketInfo[address(this)].totalBetsOnYes */\n      0x06\n      add\n      0x00\n        /* \"FacctoryContract/WagerContract.sol\":3086:3128  marketInfo[address(this)].totalBetsOnYes++ */\n      dup2\n      sload\n      dup1\n      swap3\n      swap2\n      swap1\n      tag_242\n      swap1\n      tag_156\n      jump\t// in\n    tag_242:\n      swap2\n      swap1\n      pop\n      sstore\n      pop\n        /* \"FacctoryContract/WagerContract.sol\":3181:3188  _amount */\n      dup2\n        /* \"FacctoryContract/WagerContract.sol\":3144:3152  userInfo */\n      0x05\n        /* \"FacctoryContract/WagerContract.sol\":3144:3164  userInfo[msg.sender] */\n      0x00\n        /* \"FacctoryContract/WagerContract.sol\":3153:3163  msg.sender */\n      caller\n        /* \"FacctoryContract/WagerContract.sol\":3144:3164  userInfo[msg.sender] */\n      0xffffffffffffffffffffffffffffffffffffffff\n      and\n      0xffffffffffffffffffffffffffffffffffffffff\n      and\n      dup2\n      mstore\n      0x20\n      add\n      swap1\n      dup2\n      mstore\n      0x20\n      add\n      0x00\n      keccak256\n        /* \"FacctoryContract/WagerContract.sol\":3144:3177  userInfo[msg.sender].yesBetAmount */\n      0x03\n      add\n      0x00\n        /* \"FacctoryContract/WagerContract.sol\":3144:3188  userInfo[msg.sender].yesBetAmount += _amount */\n      dup3\n      dup3\n      sload\n      tag_243\n      swap2\n      swap1\n      tag_125\n      jump\t// in\n    tag_243:\n      swap3\n      pop\n      pop\n      dup2\n      swap1\n      sstore\n      pop\n        /* \"FacctoryContract/WagerContract.sol\":2925:3199  if(_betOn == 0 ){... */\n    tag_241:\n        /* \"FacctoryContract/WagerContract.sol\":3250:3257  _amount */\n      dup2\n        /* \"FacctoryContract/WagerContract.sol\":3209:3219  marketInfo */\n      0x06\n        /* \"FacctoryContract/WagerContract.sol\":3209:3234  marketInfo[address(this)] */\n      0x00\n        /* \"FacctoryContract/WagerContract.sol\":3228:3232  this */\n      address\n        /* \"FacctoryContract/WagerContract.sol\":3209:3234  marketInfo[address(this)] */\n      0xffffffffffffffffffffffffffffffffffffffff\n      and\n      0xffffffffffffffffffffffffffffffffffffffff\n      and\n      dup2\n      mstore\n      0x20\n      add\n      swap1\n      dup2\n      mstore\n      0x20\n      add\n      0x00\n      keccak256\n        /* \"FacctoryContract/WagerContract.sol\":3209:3246  marketInfo[address(this)].totalAmount */\n      0x03\n      add\n      0x00\n        /* \"FacctoryContract/WagerContract.sol\":3209:3257  marketInfo[address(this)].totalAmount += _amount */\n      dup3\n      dup3\n      sload\n      tag_244\n      swap2\n      swap1\n      tag_125\n      jump\t// in\n    tag_244:\n      swap3\n      pop\n      pop\n      dup2\n      swap1\n      sstore\n      pop\n        /* \"FacctoryContract/WagerContract.sol\":3267:3277  marketInfo */\n      0x06\n        /* \"FacctoryContract/WagerContract.sol\":3267:3292  marketInfo[address(this)] */\n      0x00\n        /* \"FacctoryContract/WagerContract.sol\":3286:3290  this */\n      address\n        /* \"FacctoryContract/WagerContract.sol\":3267:3292  marketInfo[address(this)] */\n      0xffffffffffffffffffffffffffffffffffffffff\n      and\n      0xffffffffffffffffffffffffffffffffffffffff\n      and\n      dup2\n      mstore\n      0x20\n      add\n      swap1\n      dup2\n      mstore\n      0x20\n      add\n      0x00\n      keccak256\n        /* \"FacctoryContract/WagerContract.sol\":3267:3302  marketInfo[address(this)].totalBets */\n      0x02\n      add\n      0x00\n        /* \"FacctoryContract/WagerContract.sol\":3267:3304  marketInfo[address(this)].totalBets++ */\n      dup2\n      sload\n      dup1\n      swap3\n      swap2\n      swap1\n      tag_245\n      swap1\n      tag_156\n      jump\t// in\n    tag_245:\n      swap2\n      swap1\n      pop\n      sstore\n      pop\n        /* \"FacctoryContract/WagerContract.sol\":3351:3355  true */\n      0x01\n        /* \"FacctoryContract/WagerContract.sol\":3314:3322  userInfo */\n      0x05\n        /* \"FacctoryContract/WagerContract.sol\":3314:3334  userInfo[msg.sender] */\n      0x00\n        /* \"FacctoryContract/WagerContract.sol\":3323:3333  msg.sender */\n      caller\n        /* \"FacctoryContract/WagerContract.sol\":3314:3334  userInfo[msg.sender] */\n      0xffffffffffffffffffffffffffffffffffffffff\n      and\n      0xffffffffffffffffffffffffffffffffffffffff\n      and\n      dup2\n      mstore\n      0x20\n      add\n      swap1\n      dup2\n      mstore\n      0x20\n      add\n      0x00\n      keccak256\n        /* \"FacctoryContract/WagerContract.sol\":3314:3340  userInfo[msg.sender].betOn */\n      0x05\n      add\n        /* \"FacctoryContract/WagerContract.sol\":3314:3348  userInfo[msg.sender].betOn[_betOn] */\n      0x00\n        /* \"FacctoryContract/WagerContract.sol\":3341:3347  _betOn */\n      dup4\n        /* \"FacctoryContract/WagerContract.sol\":3314:3348  userInfo[msg.sender].betOn[_betOn] */\n      dup2\n      mstore\n      0x20\n      add\n      swap1\n      dup2\n      mstore\n      0x20\n      add\n      0x00\n      keccak256\n      0x00\n        /* \"FacctoryContract/WagerContract.sol\":3314:3355  userInfo[msg.sender].betOn[_betOn] = true */\n      0x0100\n      exp\n      dup2\n      sload\n      dup2\n      0xff\n      mul\n      not\n      and\n      swap1\n      dup4\n      iszero\n      iszero\n      mul\n      or\n      swap1\n      sstore\n      pop\n        /* \"FacctoryContract/WagerContract.sol\":3468:3567  PriceCalculation(marketInfo[address(this)].totalBetsOnNo, marketInfo[address(this)].totalBetsOnYes) */\n      tag_246\n        /* \"FacctoryContract/WagerContract.sol\":3485:3495  marketInfo */\n      0x06\n        /* \"FacctoryContract/WagerContract.sol\":3485:3510  marketInfo[address(this)] */\n      0x00\n        /* \"FacctoryContract/WagerContract.sol\":3504:3508  this */\n      address\n        /* \"FacctoryContract/WagerContract.sol\":3485:3510  marketInfo[address(this)] */\n      0xffffffffffffffffffffffffffffffffffffffff\n      and\n      0xffffffffffffffffffffffffffffffffffffffff\n      and\n      dup2\n      mstore\n      0x20\n      add\n      swap1\n      dup2\n      mstore\n      0x20\n      add\n      0x00\n      keccak256\n        /* \"FacctoryContract/WagerContract.sol\":3485:3524  marketInfo[address(this)].totalBetsOnNo */\n      0x07\n      add\n      sload\n        /* \"FacctoryContract/WagerContract.sol\":3526:3536  marketInfo */\n      0x06\n        /* \"FacctoryContract/WagerContract.sol\":3526:3551  marketInfo[address(this)] */\n      0x00\n        /* \"FacctoryContract/WagerContract.sol\":3545:3549  this */\n      address\n        /* \"FacctoryContract/WagerContract.sol\":3526:3551  marketInfo[address(this)] */\n      0xffffffffffffffffffffffffffffffffffffffff\n      and\n      0xffffffffffffffffffffffffffffffffffffffff\n      and\n      dup2\n      mstore\n      0x20\n      add\n      swap1\n      dup2\n      mstore\n      0x20\n      add\n      0x00\n      keccak256\n        /* \"FacctoryContract/WagerContract.sol\":3526:3566  marketInfo[address(this)].totalBetsOnYes */\n      0x06\n      add\n      sload\n        /* \"FacctoryContract/WagerContract.sol\":3468:3484  PriceCalculation */\n      tag_55\n        /* \"FacctoryContract/WagerContract.sol\":3468:3567  PriceCalculation(marketInfo[address(this)].totalBetsOnNo, marketInfo[address(this)].totalBetsOnYes) */\n      jump\t// in\n    tag_246:\n        /* \"FacctoryContract/WagerContract.sol\":3368:3378  marketInfo */\n      0x06\n        /* \"FacctoryContract/WagerContract.sol\":3368:3393  marketInfo[address(this)] */\n      0x00\n        /* \"FacctoryContract/WagerContract.sol\":3387:3391  this */\n      address\n        /* \"FacctoryContract/WagerContract.sol\":3368:3393  marketInfo[address(this)] */\n      0xffffffffffffffffffffffffffffffffffffffff\n      and\n      0xffffffffffffffffffffffffffffffffffffffff\n      and\n      dup2\n      mstore\n      0x20\n      add\n      swap1\n      dup2\n      mstore\n      0x20\n      add\n      0x00\n      keccak256\n        /* \"FacctoryContract/WagerContract.sol\":3368:3406  marketInfo[address(this)].initialPrice */\n      0x04\n      add\n        /* \"FacctoryContract/WagerContract.sol\":3407:3408  0 */\n      0x00\n        /* \"FacctoryContract/WagerContract.sol\":3368:3409  marketInfo[address(this)].initialPrice[0] */\n      0x02\n      dup2\n      lt\n      tag_247\n      jumpi\n      tag_248\n      tag_112\n      jump\t// in\n    tag_248:\n    tag_247:\n      add\n      0x00\n        /* \"FacctoryContract/WagerContract.sol\":3410:3420  marketInfo */\n      0x06\n        /* \"FacctoryContract/WagerContract.sol\":3410:3435  marketInfo[address(this)] */\n      0x00\n        /* \"FacctoryContract/WagerContract.sol\":3429:3433  this */\n      address\n        /* \"FacctoryContract/WagerContract.sol\":3410:3435  marketInfo[address(this)] */\n      0xffffffffffffffffffffffffffffffffffffffff\n      and\n      0xffffffffffffffffffffffffffffffffffffffff\n      and\n      dup2\n      mstore\n      0x20\n      add\n      swap1\n      dup2\n      mstore\n      0x20\n      add\n      0x00\n      keccak256\n        /* \"FacctoryContract/WagerContract.sol\":3410:3448  marketInfo[address(this)].initialPrice */\n      0x04\n      add\n        /* \"FacctoryContract/WagerContract.sol\":3449:3450  1 */\n      0x01\n        /* \"FacctoryContract/WagerContract.sol\":3410:3451  marketInfo[address(this)].initialPrice[1] */\n      0x02\n      dup2\n      lt\n      tag_250\n      jumpi\n      tag_251\n      tag_112\n      jump\t// in\n    tag_251:\n    tag_250:\n      add\n      0x00\n        /* \"FacctoryContract/WagerContract.sol\":3367:3567  (marketInfo[address(this)].initialPrice[0],marketInfo[address(this)].initialPrice[1]) = ... */\n      dup5\n      swap2\n      swap1\n      pop\n      sstore\n      dup4\n      swap2\n      swap1\n      pop\n      sstore\n      pop\n      pop\n        /* \"FacctoryContract/WagerContract.sol\":3585:3597  bool success */\n      0x00\n        /* \"FacctoryContract/WagerContract.sol\":3600:3609  usdcToken */\n      0x01\n      0x00\n      swap1\n      sload\n      swap1\n      0x0100\n      exp\n      swap1\n      div\n      0xffffffffffffffffffffffffffffffffffffffff\n      and\n        /* \"FacctoryContract/WagerContract.sol\":3600:3622  usdcToken.transferFrom */\n      0xffffffffffffffffffffffffffffffffffffffff\n      and\n      0x23b872dd\n        /* \"FacctoryContract/WagerContract.sol\":3623:3633  msg.sender */\n      caller\n        /* \"FacctoryContract/WagerContract.sol\":3643:3647  this */\n      address\n        /* \"FacctoryContract/WagerContract.sol\":3650:3657  _amount */\n      dup7\n        /* \"FacctoryContract/WagerContract.sol\":3600:3658  usdcToken.transferFrom(msg.sender, address(this), _amount) */\n      mload(0x40)\n      dup5\n      0xffffffff\n      and\n      0xe0\n      shl\n      dup2\n      mstore\n      0x04\n      add\n      tag_253\n      swap4\n      swap3\n      swap2\n      swap1\n      tag_254\n      jump\t// in\n    tag_253:\n      0x20\n      mload(0x40)\n      dup1\n      dup4\n      sub\n      dup2\n      0x00\n      dup8\n      gas\n      call\n      iszero\n      dup1\n      iszero\n      tag_256\n      jumpi\n      returndatacopy(0x00, 0x00, returndatasize)\n      revert(0x00, returndatasize)\n    tag_256:\n      pop\n      pop\n      pop\n      pop\n      mload(0x40)\n      returndatasize\n      not(0x1f)\n      0x1f\n      dup3\n      add\n      and\n      dup3\n      add\n      dup1\n      0x40\n      mstore\n      pop\n      dup2\n      add\n      swap1\n      tag_257\n      swap2\n      swap1\n      tag_205\n      jump\t// in\n    tag_257:\n        /* \"FacctoryContract/WagerContract.sol\":3585:3658  bool success = usdcToken.transferFrom(msg.sender, address(this), _amount) */\n      swap1\n      pop\n        /* \"FacctoryContract/WagerContract.sol\":3676:3683  success */\n      dup1\n        /* \"FacctoryContract/WagerContract.sol\":3668:3703  require(success, \"Transfer failed\") */\n      tag_258\n      jumpi\n      mload(0x40)\n      0x08c379a000000000000000000000000000000000000000000000000000000000\n      dup2\n      mstore\n      0x04\n      add\n      tag_259\n      swap1\n      tag_208\n      jump\t// in\n    tag_259:\n      mload(0x40)\n      dup1\n      swap2\n      sub\n      swap1\n      revert\n    tag_258:\n        /* \"FacctoryContract/WagerContract.sol\":3735:3742  _amount */\n      dup3\n        /* \"FacctoryContract/WagerContract.sol\":3723:3733  msg.sender */\n      caller\n        /* \"FacctoryContract/WagerContract.sol\":3719:3751  Bet(msg.sender, _amount, _betOn) */\n      0xffffffffffffffffffffffffffffffffffffffff\n      and\n      0xf41b7910e085d0992d604fd470931728fd77cc8eb504d99e50e51a0a30fcfd1a\n        /* \"FacctoryContract/WagerContract.sol\":3744:3750  _betOn */\n      dup5\n        /* \"FacctoryContract/WagerContract.sol\":3719:3751  Bet(msg.sender, _amount, _betOn) */\n      mload(0x40)\n      tag_260\n      swap2\n      swap1\n      tag_82\n      jump\t// in\n    tag_260:\n      mload(0x40)\n      dup1\n      swap2\n      sub\n      swap1\n      log3\n        /* \"FacctoryContract/WagerContract.sol\":2493:3758  {... */\n      pop\n        /* \"FacctoryContract/WagerContract.sol\":2438:3758  function bet(uint256 _amount, uint256 _betOn) external {... */\n      pop\n      pop\n      jump\t// out\n        /* \"@openzeppelin/contracts/access/Ownable.sol\":2293:2394  function renounceOwnership() public virtual onlyOwner {... */\n    tag_77:\n        /* \"@openzeppelin/contracts/access/Ownable.sol\":1531:1544  _checkOwner() */\n      tag_262\n        /* \"@openzeppelin/contracts/access/Ownable.sol\":1531:1542  _checkOwner */\n      tag_263\n        /* \"@openzeppelin/contracts/access/Ownable.sol\":1531:1544  _checkOwner() */\n      jump\t// in\n    tag_262:\n        /* \"@openzeppelin/contracts/access/Ownable.sol\":2357:2387  _transferOwnership(address(0)) */\n      tag_265\n        /* \"@openzeppelin/contracts/access/Ownable.sol\":2384:2385  0 */\n      0x00\n        /* \"@openzeppelin/contracts/access/Ownable.sol\":2357:2375  _transferOwnership */\n      tag_266\n        /* \"@openzeppelin/contracts/access/Ownable.sol\":2357:2387  _transferOwnership(address(0)) */\n      jump\t// in\n    tag_265:\n        /* \"@openzeppelin/contracts/access/Ownable.sol\":2293:2394  function renounceOwnership() public virtual onlyOwner {... */\n      jump\t// out\n        /* \"FacctoryContract/WagerContract.sol\":11071:11379  function calculateInvestment(uint256 shares, uint256 _betOn) public view returns (uint256) {... */\n    tag_80:\n        /* \"FacctoryContract/WagerContract.sol\":11153:11160  uint256 */\n      0x00\n        /* \"FacctoryContract/WagerContract.sol\":11198:11199  0 */\n      0x00\n        /* \"FacctoryContract/WagerContract.sol\":11189:11195  shares */\n      dup4\n        /* \"FacctoryContract/WagerContract.sol\":11189:11199  shares > 0 */\n      gt\n        /* \"FacctoryContract/WagerContract.sol\":11181:11236  require(shares > 0, \"Shares must be greater than zero\") */\n      tag_268\n      jumpi\n      mload(0x40)\n      0x08c379a000000000000000000000000000000000000000000000000000000000\n      dup2\n      mstore\n      0x04\n      add\n      tag_269\n      swap1\n      tag_270\n      jump\t// in\n    tag_269:\n      mload(0x40)\n      dup1\n      swap2\n      sub\n      swap1\n      revert\n    tag_268:\n        /* \"FacctoryContract/WagerContract.sol\":11246:11267  uint256 amountInCents */\n      0x00\n        /* \"FacctoryContract/WagerContract.sol\":11330:11333  100 */\n      0x64\n        /* \"FacctoryContract/WagerContract.sol\":11280:11290  marketInfo */\n      0x06\n        /* \"FacctoryContract/WagerContract.sol\":11280:11305  marketInfo[address(this)] */\n      0x00\n        /* \"FacctoryContract/WagerContract.sol\":11299:11303  this */\n      address\n        /* \"FacctoryContract/WagerContract.sol\":11280:11305  marketInfo[address(this)] */\n      0xffffffffffffffffffffffffffffffffffffffff\n      and\n      0xffffffffffffffffffffffffffffffffffffffff\n      and\n      dup2\n      mstore\n      0x20\n      add\n      swap1\n      dup2\n      mstore\n      0x20\n      add\n      0x00\n      keccak256\n        /* \"FacctoryContract/WagerContract.sol\":11280:11318  marketInfo[address(this)].initialPrice */\n      0x04\n      add\n        /* \"FacctoryContract/WagerContract.sol\":11319:11325  _betOn */\n      dup5\n        /* \"FacctoryContract/WagerContract.sol\":11280:11326  marketInfo[address(this)].initialPrice[_betOn] */\n      0x02\n      dup2\n      lt\n      tag_271\n      jumpi\n      tag_272\n      tag_112\n      jump\t// in\n    tag_272:\n    tag_271:\n      add\n      sload\n        /* \"FacctoryContract/WagerContract.sol\":11271:11277  shares */\n      dup6\n        /* \"FacctoryContract/WagerContract.sol\":11271:11326  shares * marketInfo[address(this)].initialPrice[_betOn] */\n      tag_274\n      swap2\n      swap1\n      tag_128\n      jump\t// in\n    tag_274:\n        /* \"FacctoryContract/WagerContract.sol\":11270:11333  (shares * marketInfo[address(this)].initialPrice[_betOn]) / 100 */\n      tag_275\n      swap2\n      swap1\n      tag_130\n      jump\t// in\n    tag_275:\n        /* \"FacctoryContract/WagerContract.sol\":11246:11333  uint256 amountInCents = (shares * marketInfo[address(this)].initialPrice[_betOn]) / 100 */\n      swap1\n      pop\n        /* \"FacctoryContract/WagerContract.sol\":11359:11372  amountInCents */\n      dup1\n        /* \"FacctoryContract/WagerContract.sol\":11352:11372  return amountInCents */\n      swap2\n      pop\n      pop\n        /* \"FacctoryContract/WagerContract.sol\":11071:11379  function calculateInvestment(uint256 shares, uint256 _betOn) public view returns (uint256) {... */\n      swap3\n      swap2\n      pop\n      pop\n      jump\t// out\n        /* \"@openzeppelin/contracts/access/Ownable.sol\":1638:1723  function owner() public view virtual returns (address) {... */\n    tag_84:\n        /* \"@openzeppelin/contracts/access/Ownable.sol\":1684:1691  address */\n      0x00\n        /* \"@openzeppelin/contracts/access/Ownable.sol\":1710:1716  _owner */\n      0x00\n      0x00\n      swap1\n      sload\n      swap1\n      0x0100\n      exp\n      swap1\n      div\n      0xffffffffffffffffffffffffffffffffffffffff\n      and\n        /* \"@openzeppelin/contracts/access/Ownable.sol\":1703:1716  return _owner */\n      swap1\n      pop\n        /* \"@openzeppelin/contracts/access/Ownable.sol\":1638:1723  function owner() public view virtual returns (address) {... */\n      swap1\n      jump\t// out\n        /* \"FacctoryContract/WagerContract.sol\":10115:10430  function calculateShares(uint256 _amount, uint256 _betOn ) public view returns (uint256) {... */\n    tag_88:\n        /* \"FacctoryContract/WagerContract.sol\":10195:10202  uint256 */\n      0x00\n        /* \"FacctoryContract/WagerContract.sol\":10215:10228  uint256 price */\n      0x00\n        /* \"FacctoryContract/WagerContract.sol\":10232:10242  marketInfo */\n      0x06\n        /* \"FacctoryContract/WagerContract.sol\":10232:10257  marketInfo[address(this)] */\n      0x00\n        /* \"FacctoryContract/WagerContract.sol\":10251:10255  this */\n      address\n        /* \"FacctoryContract/WagerContract.sol\":10232:10257  marketInfo[address(this)] */\n      0xffffffffffffffffffffffffffffffffffffffff\n      and\n      0xffffffffffffffffffffffffffffffffffffffff\n      and\n      dup2\n      mstore\n      0x20\n      add\n      swap1\n      dup2\n      mstore\n      0x20\n      add\n      0x00\n      keccak256\n        /* \"FacctoryContract/WagerContract.sol\":10232:10270  marketInfo[address(this)].initialPrice */\n      0x04\n      add\n        /* \"FacctoryContract/WagerContract.sol\":10271:10277  _betOn */\n      dup4\n        /* \"FacctoryContract/WagerContract.sol\":10232:10278  marketInfo[address(this)].initialPrice[_betOn] */\n      0x02\n      dup2\n      lt\n      tag_278\n      jumpi\n      tag_279\n      tag_112\n      jump\t// in\n    tag_279:\n    tag_278:\n      add\n      sload\n        /* \"FacctoryContract/WagerContract.sol\":10215:10278  uint256 price =  marketInfo[address(this)].initialPrice[_betOn] */\n      swap1\n      pop\n        /* \"FacctoryContract/WagerContract.sol\":10314:10315  0 */\n      0x00\n        /* \"FacctoryContract/WagerContract.sol\":10305:10310  price */\n      dup2\n        /* \"FacctoryContract/WagerContract.sol\":10305:10315  price != 0 */\n      sub\n        /* \"FacctoryContract/WagerContract.sol\":10297:10341  require(price != 0, \"_price cannot be zero\") */\n      tag_281\n      jumpi\n      mload(0x40)\n      0x08c379a000000000000000000000000000000000000000000000000000000000\n      dup2\n      mstore\n      0x04\n      add\n      tag_282\n      swap1\n      tag_283\n      jump\t// in\n    tag_282:\n      mload(0x40)\n      dup1\n      swap2\n      sub\n      swap1\n      revert\n    tag_281:\n        /* \"FacctoryContract/WagerContract.sol\":10351:10365  uint256 result */\n      0x00\n        /* \"FacctoryContract/WagerContract.sol\":10386:10391  price */\n      dup2\n        /* \"FacctoryContract/WagerContract.sol\":10379:10382  100 */\n      0x64\n        /* \"FacctoryContract/WagerContract.sol\":10369:10376  _amount */\n      dup7\n        /* \"FacctoryContract/WagerContract.sol\":10369:10382  _amount * 100 */\n      tag_284\n      swap2\n      swap1\n      tag_128\n      jump\t// in\n    tag_284:\n        /* \"FacctoryContract/WagerContract.sol\":10368:10391  (_amount * 100) / price */\n      tag_285\n      swap2\n      swap1\n      tag_130\n      jump\t// in\n    tag_285:\n        /* \"FacctoryContract/WagerContract.sol\":10351:10391  uint256 result = (_amount * 100) / price */\n      swap1\n      pop\n        /* \"FacctoryContract/WagerContract.sol\":10417:10423  result */\n      dup1\n        /* \"FacctoryContract/WagerContract.sol\":10410:10423  return result */\n      swap3\n      pop\n      pop\n      pop\n        /* \"FacctoryContract/WagerContract.sol\":10115:10430  function calculateShares(uint256 _amount, uint256 _betOn ) public view returns (uint256) {... */\n      swap3\n      swap2\n      pop\n      pop\n      jump\t// out\n        /* \"FacctoryContract/WagerContract.sol\":915:946  uint256 public profitPercentage */\n    tag_91:\n      sload(0x03)\n      dup2\n      jump\t// out\n        /* \"FacctoryContract/WagerContract.sol\":884:909  uint256 public totalUsers */\n    tag_94:\n      sload(0x02)\n      dup2\n      jump\t// out\n        /* \"FacctoryContract/WagerContract.sol\":1052:1100  mapping(address => MarketInfo) public marketInfo */\n    tag_98:\n      mstore(0x20, 0x06)\n      dup1\n      0x00\n      mstore\n      keccak256(0x00, 0x40)\n      0x00\n      swap2\n      pop\n      swap1\n      pop\n      dup1\n      0x00\n      add\n      0x00\n      swap1\n      sload\n      swap1\n      0x0100\n      exp\n      swap1\n      div\n      0xff\n      and\n      swap1\n      dup1\n      0x01\n      add\n      sload\n      swap1\n      dup1\n      0x02\n      add\n      sload\n      swap1\n      dup1\n      0x03\n      add\n      sload\n      swap1\n      dup1\n      0x06\n      add\n      sload\n      swap1\n      dup1\n      0x07\n      add\n      sload\n      swap1\n      pop\n      dup7\n      jump\t// out\n        /* \"@openzeppelin/contracts/access/Ownable.sol\":2543:2758  function transferOwnership(address newOwner) public virtual onlyOwner {... */\n    tag_103:\n        /* \"@openzeppelin/contracts/access/Ownable.sol\":1531:1544  _checkOwner() */\n      tag_287\n        /* \"@openzeppelin/contracts/access/Ownable.sol\":1531:1542  _checkOwner */\n      tag_263\n        /* \"@openzeppelin/contracts/access/Ownable.sol\":1531:1544  _checkOwner() */\n      jump\t// in\n    tag_287:\n        /* \"@openzeppelin/contracts/access/Ownable.sol\":2647:2648  0 */\n      0x00\n        /* \"@openzeppelin/contracts/access/Ownable.sol\":2627:2649  newOwner == address(0) */\n      0xffffffffffffffffffffffffffffffffffffffff\n      and\n        /* \"@openzeppelin/contracts/access/Ownable.sol\":2627:2635  newOwner */\n      dup2\n        /* \"@openzeppelin/contracts/access/Ownable.sol\":2627:2649  newOwner == address(0) */\n      0xffffffffffffffffffffffffffffffffffffffff\n      and\n      sub\n        /* \"@openzeppelin/contracts/access/Ownable.sol\":2623:2714  if (newOwner == address(0)) {... */\n      tag_289\n      jumpi\n        /* \"@openzeppelin/contracts/access/Ownable.sol\":2700:2701  0 */\n      0x00\n        /* \"@openzeppelin/contracts/access/Ownable.sol\":2672:2703  OwnableInvalidOwner(address(0)) */\n      mload(0x40)\n      0x1e4fbdf700000000000000000000000000000000000000000000000000000000\n      dup2\n      mstore\n      0x04\n      add\n      tag_290\n      swap2\n      swap1\n      tag_31\n      jump\t// in\n    tag_290:\n      mload(0x40)\n      dup1\n      swap2\n      sub\n      swap1\n      revert\n        /* \"@openzeppelin/contracts/access/Ownable.sol\":2623:2714  if (newOwner == address(0)) {... */\n    tag_289:\n        /* \"@openzeppelin/contracts/access/Ownable.sol\":2723:2751  _transferOwnership(newOwner) */\n      tag_291\n        /* \"@openzeppelin/contracts/access/Ownable.sol\":2742:2750  newOwner */\n      dup2\n        /* \"@openzeppelin/contracts/access/Ownable.sol\":2723:2741  _transferOwnership */\n      tag_266\n        /* \"@openzeppelin/contracts/access/Ownable.sol\":2723:2751  _transferOwnership(newOwner) */\n      jump\t// in\n    tag_291:\n        /* \"@openzeppelin/contracts/access/Ownable.sol\":2543:2758  function transferOwnership(address newOwner) public virtual onlyOwner {... */\n      pop\n      jump\t// out\n        /* \"FacctoryContract/WagerContract.sol\":5866:7339  function buyShare(uint256 _listNo, address _owner) external {... */\n    tag_107:\n        /* \"FacctoryContract/WagerContract.sol\":5949:5957  sellInfo */\n      0x07\n        /* \"FacctoryContract/WagerContract.sol\":5949:5965  sellInfo[_owner] */\n      0x00\n        /* \"FacctoryContract/WagerContract.sol\":5958:5964  _owner */\n      dup3\n        /* \"FacctoryContract/WagerContract.sol\":5949:5965  sellInfo[_owner] */\n      0xffffffffffffffffffffffffffffffffffffffff\n      and\n      0xffffffffffffffffffffffffffffffffffffffff\n      and\n      dup2\n      mstore\n      0x20\n      add\n      swap1\n      dup2\n      mstore\n      0x20\n      add\n      0x00\n      keccak256\n        /* \"FacctoryContract/WagerContract.sol\":5949:5974  sellInfo[_owner][_listNo] */\n      0x00\n        /* \"FacctoryContract/WagerContract.sol\":5966:5973  _listNo */\n      dup4\n        /* \"FacctoryContract/WagerContract.sol\":5949:5974  sellInfo[_owner][_listNo] */\n      dup2\n      mstore\n      0x20\n      add\n      swap1\n      dup2\n      mstore\n      0x20\n      add\n      0x00\n      keccak256\n        /* \"FacctoryContract/WagerContract.sol\":5949:5979  sellInfo[_owner][_listNo].list */\n      0x00\n      add\n      0x00\n      swap1\n      sload\n      swap1\n      0x0100\n      exp\n      swap1\n      div\n      0xff\n      and\n        /* \"FacctoryContract/WagerContract.sol\":5945:6030  if(!sellInfo[_owner][_listNo].list){... */\n      tag_293\n      jumpi\n        /* \"FacctoryContract/WagerContract.sol\":6011:6018  _listNo */\n      dup2\n        /* \"FacctoryContract/WagerContract.sol\":6001:6019  notListed(_listNo) */\n      mload(0x40)\n      0x1599706800000000000000000000000000000000000000000000000000000000\n      dup2\n      mstore\n      0x04\n      add\n      tag_294\n      swap2\n      swap1\n      tag_82\n      jump\t// in\n    tag_294:\n      mload(0x40)\n      dup1\n      swap2\n      sub\n      swap1\n      revert\n        /* \"FacctoryContract/WagerContract.sol\":5945:6030  if(!sellInfo[_owner][_listNo].list){... */\n    tag_293:\n        /* \"FacctoryContract/WagerContract.sol\":6042:6050  sellInfo */\n      0x07\n        /* \"FacctoryContract/WagerContract.sol\":6042:6058  sellInfo[_owner] */\n      0x00\n        /* \"FacctoryContract/WagerContract.sol\":6051:6057  _owner */\n      dup3\n        /* \"FacctoryContract/WagerContract.sol\":6042:6058  sellInfo[_owner] */\n      0xffffffffffffffffffffffffffffffffffffffff\n      and\n      0xffffffffffffffffffffffffffffffffffffffff\n      and\n      dup2\n      mstore\n      0x20\n      add\n      swap1\n      dup2\n      mstore\n      0x20\n      add\n      0x00\n      keccak256\n        /* \"FacctoryContract/WagerContract.sol\":6042:6067  sellInfo[_owner][_listNo] */\n      0x00\n        /* \"FacctoryContract/WagerContract.sol\":6059:6066  _listNo */\n      dup4\n        /* \"FacctoryContract/WagerContract.sol\":6042:6067  sellInfo[_owner][_listNo] */\n      dup2\n      mstore\n      0x20\n      add\n      swap1\n      dup2\n      mstore\n      0x20\n      add\n      0x00\n      keccak256\n        /* \"FacctoryContract/WagerContract.sol\":6042:6072  sellInfo[_owner][_listNo].sold */\n      0x00\n      add\n      0x01\n      swap1\n      sload\n      swap1\n      0x0100\n      exp\n      swap1\n      div\n      0xff\n      and\n        /* \"FacctoryContract/WagerContract.sol\":6039:6148  if(sellInfo[_owner][_listNo].sold){... */\n      iszero\n      tag_295\n      jumpi\n        /* \"FacctoryContract/WagerContract.sol\":6106:6114  sellInfo */\n      0x07\n        /* \"FacctoryContract/WagerContract.sol\":6106:6122  sellInfo[_owner] */\n      0x00\n        /* \"FacctoryContract/WagerContract.sol\":6115:6121  _owner */\n      dup3\n        /* \"FacctoryContract/WagerContract.sol\":6106:6122  sellInfo[_owner] */\n      0xffffffffffffffffffffffffffffffffffffffff\n      and\n      0xffffffffffffffffffffffffffffffffffffffff\n      and\n      dup2\n      mstore\n      0x20\n      add\n      swap1\n      dup2\n      mstore\n      0x20\n      add\n      0x00\n      keccak256\n        /* \"FacctoryContract/WagerContract.sol\":6106:6131  sellInfo[_owner][_listNo] */\n      0x00\n        /* \"FacctoryContract/WagerContract.sol\":6123:6130  _listNo */\n      dup4\n        /* \"FacctoryContract/WagerContract.sol\":6106:6131  sellInfo[_owner][_listNo] */\n      dup2\n      mstore\n      0x20\n      add\n      swap1\n      dup2\n      mstore\n      0x20\n      add\n      0x00\n      keccak256\n        /* \"FacctoryContract/WagerContract.sol\":6106:6136  sellInfo[_owner][_listNo].sold */\n      0x00\n      add\n      0x01\n      swap1\n      sload\n      swap1\n      0x0100\n      exp\n      swap1\n      div\n      0xff\n      and\n        /* \"FacctoryContract/WagerContract.sol\":6094:6137  alreadySold(sellInfo[_owner][_listNo].sold) */\n      mload(0x40)\n      0xca1c6eb300000000000000000000000000000000000000000000000000000000\n      dup2\n      mstore\n      0x04\n      add\n      tag_296\n      swap2\n      swap1\n      tag_37\n      jump\t// in\n    tag_296:\n      mload(0x40)\n      dup1\n      swap2\n      sub\n      swap1\n      revert\n        /* \"FacctoryContract/WagerContract.sol\":6039:6148  if(sellInfo[_owner][_listNo].sold){... */\n    tag_295:\n        /* \"FacctoryContract/WagerContract.sol\":6169:6179  marketInfo */\n      0x06\n        /* \"FacctoryContract/WagerContract.sol\":6169:6194  marketInfo[address(this)] */\n      0x00\n        /* \"FacctoryContract/WagerContract.sol\":6188:6192  this */\n      address\n        /* \"FacctoryContract/WagerContract.sol\":6169:6194  marketInfo[address(this)] */\n      0xffffffffffffffffffffffffffffffffffffffff\n      and\n      0xffffffffffffffffffffffffffffffffffffffff\n      and\n      dup2\n      mstore\n      0x20\n      add\n      swap1\n      dup2\n      mstore\n      0x20\n      add\n      0x00\n      keccak256\n        /* \"FacctoryContract/WagerContract.sol\":6169:6203  marketInfo[address(this)].resolved */\n      0x00\n      add\n      0x00\n      swap1\n      sload\n      swap1\n      0x0100\n      exp\n      swap1\n      div\n      0xff\n      and\n        /* \"FacctoryContract/WagerContract.sol\":6166:6252  if(marketInfo[address(this)].resolved){... */\n      iszero\n      tag_297\n      jumpi\n        /* \"FacctoryContract/WagerContract.sol\":6225:6241  marketResolved() */\n      mload(0x40)\n      0x853fd42100000000000000000000000000000000000000000000000000000000\n      dup2\n      mstore\n      0x04\n      add\n      mload(0x40)\n      dup1\n      swap2\n      sub\n      swap1\n      revert\n        /* \"FacctoryContract/WagerContract.sol\":6166:6252  if(marketInfo[address(this)].resolved){... */\n    tag_297:\n        /* \"FacctoryContract/WagerContract.sol\":6300:6306  _owner */\n      dup1\n        /* \"FacctoryContract/WagerContract.sol\":6265:6306  sellInfo[_owner][_listNo].owner != _owner */\n      0xffffffffffffffffffffffffffffffffffffffff\n      and\n        /* \"FacctoryContract/WagerContract.sol\":6265:6273  sellInfo */\n      0x07\n        /* \"FacctoryContract/WagerContract.sol\":6265:6281  sellInfo[_owner] */\n      0x00\n        /* \"FacctoryContract/WagerContract.sol\":6274:6280  _owner */\n      dup4\n        /* \"FacctoryContract/WagerContract.sol\":6265:6281  sellInfo[_owner] */\n      0xffffffffffffffffffffffffffffffffffffffff\n      and\n      0xffffffffffffffffffffffffffffffffffffffff\n      and\n      dup2\n      mstore\n      0x20\n      add\n      swap1\n      dup2\n      mstore\n      0x20\n      add\n      0x00\n      keccak256\n        /* \"FacctoryContract/WagerContract.sol\":6265:6290  sellInfo[_owner][_listNo] */\n      0x00\n        /* \"FacctoryContract/WagerContract.sol\":6282:6289  _listNo */\n      dup5\n        /* \"FacctoryContract/WagerContract.sol\":6265:6290  sellInfo[_owner][_listNo] */\n      dup2\n      mstore\n      0x20\n      add\n      swap1\n      dup2\n      mstore\n      0x20\n      add\n      0x00\n      keccak256\n        /* \"FacctoryContract/WagerContract.sol\":6265:6296  sellInfo[_owner][_listNo].owner */\n      0x00\n      add\n      0x02\n      swap1\n      sload\n      swap1\n      0x0100\n      exp\n      swap1\n      div\n      0xffffffffffffffffffffffffffffffffffffffff\n      and\n        /* \"FacctoryContract/WagerContract.sol\":6265:6306  sellInfo[_owner][_listNo].owner != _owner */\n      0xffffffffffffffffffffffffffffffffffffffff\n      and\n      eq\n        /* \"FacctoryContract/WagerContract.sol\":6262:6357  if(sellInfo[_owner][_listNo].owner != _owner){... */\n      tag_298\n      jumpi\n        /* \"FacctoryContract/WagerContract.sol\":6339:6345  _owner */\n      dup1\n        /* \"FacctoryContract/WagerContract.sol\":6328:6346  wrongOwner(_owner) */\n      mload(0x40)\n      0xf6b79c5800000000000000000000000000000000000000000000000000000000\n      dup2\n      mstore\n      0x04\n      add\n      tag_299\n      swap2\n      swap1\n      tag_31\n      jump\t// in\n    tag_299:\n      mload(0x40)\n      dup1\n      swap2\n      sub\n      swap1\n      revert\n        /* \"FacctoryContract/WagerContract.sol\":6262:6357  if(sellInfo[_owner][_listNo].owner != _owner){... */\n    tag_298:\n        /* \"FacctoryContract/WagerContract.sol\":6400:6404  true */\n      0x01\n        /* \"FacctoryContract/WagerContract.sol\":6367:6375  sellInfo */\n      0x07\n        /* \"FacctoryContract/WagerContract.sol\":6367:6383  sellInfo[_owner] */\n      0x00\n        /* \"FacctoryContract/WagerContract.sol\":6376:6382  _owner */\n      dup4\n        /* \"FacctoryContract/WagerContract.sol\":6367:6383  sellInfo[_owner] */\n      0xffffffffffffffffffffffffffffffffffffffff\n      and\n      0xffffffffffffffffffffffffffffffffffffffff\n      and\n      dup2\n      mstore\n      0x20\n      add\n      swap1\n      dup2\n      mstore\n      0x20\n      add\n      0x00\n      keccak256\n        /* \"FacctoryContract/WagerContract.sol\":6367:6392  sellInfo[_owner][_listNo] */\n      0x00\n        /* \"FacctoryContract/WagerContract.sol\":6384:6391  _listNo */\n      dup5\n        /* \"FacctoryContract/WagerContract.sol\":6367:6392  sellInfo[_owner][_listNo] */\n      dup2\n      mstore\n      0x20\n      add\n      swap1\n      dup2\n      mstore\n      0x20\n      add\n      0x00\n      keccak256\n        /* \"FacctoryContract/WagerContract.sol\":6367:6397  sellInfo[_owner][_listNo].sold */\n      0x00\n      add\n      0x01\n        /* \"FacctoryContract/WagerContract.sol\":6367:6404  sellInfo[_owner][_listNo].sold = true */\n      0x0100\n      exp\n      dup2\n      sload\n      dup2\n      0xff\n      mul\n      not\n      and\n      swap1\n      dup4\n      iszero\n      iszero\n      mul\n      or\n      swap1\n      sstore\n      pop\n        /* \"FacctoryContract/WagerContract.sol\":6448:6458  msg.sender */\n      caller\n        /* \"FacctoryContract/WagerContract.sol\":6414:6422  sellInfo */\n      0x07\n        /* \"FacctoryContract/WagerContract.sol\":6414:6430  sellInfo[_owner] */\n      0x00\n        /* \"FacctoryContract/WagerContract.sol\":6423:6429  _owner */\n      dup4\n        /* \"FacctoryContract/WagerContract.sol\":6414:6430  sellInfo[_owner] */\n      0xffffffffffffffffffffffffffffffffffffffff\n      and\n      0xffffffffffffffffffffffffffffffffffffffff\n      and\n      dup2\n      mstore\n      0x20\n      add\n      swap1\n      dup2\n      mstore\n      0x20\n      add\n      0x00\n      keccak256\n        /* \"FacctoryContract/WagerContract.sol\":6414:6439  sellInfo[_owner][_listNo] */\n      0x00\n        /* \"FacctoryContract/WagerContract.sol\":6431:6438  _listNo */\n      dup5\n        /* \"FacctoryContract/WagerContract.sol\":6414:6439  sellInfo[_owner][_listNo] */\n      dup2\n      mstore\n      0x20\n      add\n      swap1\n      dup2\n      mstore\n      0x20\n      add\n      0x00\n      keccak256\n        /* \"FacctoryContract/WagerContract.sol\":6414:6445  sellInfo[_owner][_listNo].owner */\n      0x00\n      add\n      0x02\n        /* \"FacctoryContract/WagerContract.sol\":6414:6458  sellInfo[_owner][_listNo].owner = msg.sender */\n      0x0100\n      exp\n      dup2\n      sload\n      dup2\n      0xffffffffffffffffffffffffffffffffffffffff\n      mul\n      not\n      and\n      swap1\n      dup4\n      0xffffffffffffffffffffffffffffffffffffffff\n      and\n      mul\n      or\n      swap1\n      sstore\n      pop\n        /* \"FacctoryContract/WagerContract.sol\":6516:6517  0 */\n      0x00\n        /* \"FacctoryContract/WagerContract.sol\":6480:6488  sellInfo */\n      0x07\n        /* \"FacctoryContract/WagerContract.sol\":6480:6496  sellInfo[_owner] */\n      0x00\n        /* \"FacctoryContract/WagerContract.sol\":6489:6495  _owner */\n      dup4\n        /* \"FacctoryContract/WagerContract.sol\":6480:6496  sellInfo[_owner] */\n      0xffffffffffffffffffffffffffffffffffffffff\n      and\n      0xffffffffffffffffffffffffffffffffffffffff\n      and\n      dup2\n      mstore\n      0x20\n      add\n      swap1\n      dup2\n      mstore\n      0x20\n      add\n      0x00\n      keccak256\n        /* \"FacctoryContract/WagerContract.sol\":6480:6505  sellInfo[_owner][_listNo] */\n      0x00\n        /* \"FacctoryContract/WagerContract.sol\":6497:6504  _listNo */\n      dup5\n        /* \"FacctoryContract/WagerContract.sol\":6480:6505  sellInfo[_owner][_listNo] */\n      dup2\n      mstore\n      0x20\n      add\n      swap1\n      dup2\n      mstore\n      0x20\n      add\n      0x00\n      keccak256\n        /* \"FacctoryContract/WagerContract.sol\":6480:6512  sellInfo[_owner][_listNo].listOn */\n      0x03\n      add\n      sload\n        /* \"FacctoryContract/WagerContract.sol\":6480:6517  sellInfo[_owner][_listNo].listOn == 0 */\n      sub\n        /* \"FacctoryContract/WagerContract.sol\":6477:6880  if(sellInfo[_owner][_listNo].listOn == 0){... */\n      tag_300\n      jumpi\n        /* \"FacctoryContract/WagerContract.sol\":6581:6589  sellInfo */\n      0x07\n        /* \"FacctoryContract/WagerContract.sol\":6581:6597  sellInfo[_owner] */\n      0x00\n        /* \"FacctoryContract/WagerContract.sol\":6590:6596  _owner */\n      dup3\n        /* \"FacctoryContract/WagerContract.sol\":6581:6597  sellInfo[_owner] */\n      0xffffffffffffffffffffffffffffffffffffffff\n      and\n      0xffffffffffffffffffffffffffffffffffffffff\n      and\n      dup2\n      mstore\n      0x20\n      add\n      swap1\n      dup2\n      mstore\n      0x20\n      add\n      0x00\n      keccak256\n        /* \"FacctoryContract/WagerContract.sol\":6581:6606  sellInfo[_owner][_listNo] */\n      0x00\n        /* \"FacctoryContract/WagerContract.sol\":6598:6605  _listNo */\n      dup4\n        /* \"FacctoryContract/WagerContract.sol\":6581:6606  sellInfo[_owner][_listNo] */\n      dup2\n      mstore\n      0x20\n      add\n      swap1\n      dup2\n      mstore\n      0x20\n      add\n      0x00\n      keccak256\n        /* \"FacctoryContract/WagerContract.sol\":6581:6613  sellInfo[_owner][_listNo].amount */\n      0x02\n      add\n      sload\n        /* \"FacctoryContract/WagerContract.sol\":6545:6553  userInfo */\n      0x05\n        /* \"FacctoryContract/WagerContract.sol\":6545:6565  userInfo[msg.sender] */\n      0x00\n        /* \"FacctoryContract/WagerContract.sol\":6554:6564  msg.sender */\n      caller\n        /* \"FacctoryContract/WagerContract.sol\":6545:6565  userInfo[msg.sender] */\n      0xffffffffffffffffffffffffffffffffffffffff\n      and\n      0xffffffffffffffffffffffffffffffffffffffff\n      and\n      dup2\n      mstore\n      0x20\n      add\n      swap1\n      dup2\n      mstore\n      0x20\n      add\n      0x00\n      keccak256\n        /* \"FacctoryContract/WagerContract.sol\":6545:6577  userInfo[msg.sender].noBetAmount */\n      0x01\n      add\n      0x00\n        /* \"FacctoryContract/WagerContract.sol\":6545:6613  userInfo[msg.sender].noBetAmount += sellInfo[_owner][_listNo].amount */\n      dup3\n      dup3\n      sload\n      tag_301\n      swap2\n      swap1\n      tag_125\n      jump\t// in\n    tag_301:\n      swap3\n      pop\n      pop\n      dup2\n      swap1\n      sstore\n      pop\n        /* \"FacctoryContract/WagerContract.sol\":6659:6667  sellInfo */\n      0x07\n        /* \"FacctoryContract/WagerContract.sol\":6659:6675  sellInfo[_owner] */\n      0x00\n        /* \"FacctoryContract/WagerContract.sol\":6668:6674  _owner */\n      dup3\n        /* \"FacctoryContract/WagerContract.sol\":6659:6675  sellInfo[_owner] */\n      0xffffffffffffffffffffffffffffffffffffffff\n      and\n      0xffffffffffffffffffffffffffffffffffffffff\n      and\n      dup2\n      mstore\n      0x20\n      add\n      swap1\n      dup2\n      mstore\n      0x20\n      add\n      0x00\n      keccak256\n        /* \"FacctoryContract/WagerContract.sol\":6659:6684  sellInfo[_owner][_listNo] */\n      0x00\n        /* \"FacctoryContract/WagerContract.sol\":6676:6683  _listNo */\n      dup4\n        /* \"FacctoryContract/WagerContract.sol\":6659:6684  sellInfo[_owner][_listNo] */\n      dup2\n      mstore\n      0x20\n      add\n      swap1\n      dup2\n      mstore\n      0x20\n      add\n      0x00\n      keccak256\n        /* \"FacctoryContract/WagerContract.sol\":6659:6691  sellInfo[_owner][_listNo].amount */\n      0x02\n      add\n      sload\n        /* \"FacctoryContract/WagerContract.sol\":6627:6635  userInfo */\n      0x05\n        /* \"FacctoryContract/WagerContract.sol\":6627:6643  userInfo[_owner] */\n      0x00\n        /* \"FacctoryContract/WagerContract.sol\":6636:6642  _owner */\n      dup4\n        /* \"FacctoryContract/WagerContract.sol\":6627:6643  userInfo[_owner] */\n      0xffffffffffffffffffffffffffffffffffffffff\n      and\n      0xffffffffffffffffffffffffffffffffffffffff\n      and\n      dup2\n      mstore\n      0x20\n      add\n      swap1\n      dup2\n      mstore\n      0x20\n      add\n      0x00\n      keccak256\n        /* \"FacctoryContract/WagerContract.sol\":6627:6655  userInfo[_owner].noBetAmount */\n      0x01\n      add\n      0x00\n        /* \"FacctoryContract/WagerContract.sol\":6627:6691  userInfo[_owner].noBetAmount -= sellInfo[_owner][_listNo].amount */\n      dup3\n      dup3\n      sload\n      tag_302\n      swap2\n      swap1\n      tag_183\n      jump\t// in\n    tag_302:\n      swap3\n      pop\n      pop\n      dup2\n      swap1\n      sstore\n      pop\n        /* \"FacctoryContract/WagerContract.sol\":6477:6880  if(sellInfo[_owner][_listNo].listOn == 0){... */\n      jump(tag_303)\n    tag_300:\n        /* \"FacctoryContract/WagerContract.sol\":6754:6762  sellInfo */\n      0x07\n        /* \"FacctoryContract/WagerContract.sol\":6754:6770  sellInfo[_owner] */\n      0x00\n        /* \"FacctoryContract/WagerContract.sol\":6763:6769  _owner */\n      dup3\n        /* \"FacctoryContract/WagerContract.sol\":6754:6770  sellInfo[_owner] */\n      0xffffffffffffffffffffffffffffffffffffffff\n      and\n      0xffffffffffffffffffffffffffffffffffffffff\n      and\n      dup2\n      mstore\n      0x20\n      add\n      swap1\n      dup2\n      mstore\n      0x20\n      add\n      0x00\n      keccak256\n        /* \"FacctoryContract/WagerContract.sol\":6754:6779  sellInfo[_owner][_listNo] */\n      0x00\n        /* \"FacctoryContract/WagerContract.sol\":6771:6778  _listNo */\n      dup4\n        /* \"FacctoryContract/WagerContract.sol\":6754:6779  sellInfo[_owner][_listNo] */\n      dup2\n      mstore\n      0x20\n      add\n      swap1\n      dup2\n      mstore\n      0x20\n      add\n      0x00\n      keccak256\n        /* \"FacctoryContract/WagerContract.sol\":6754:6786  sellInfo[_owner][_listNo].amount */\n      0x02\n      add\n      sload\n        /* \"FacctoryContract/WagerContract.sol\":6721:6729  userInfo */\n      0x05\n        /* \"FacctoryContract/WagerContract.sol\":6721:6737  userInfo[_owner] */\n      0x00\n        /* \"FacctoryContract/WagerContract.sol\":6730:6736  _owner */\n      dup4\n        /* \"FacctoryContract/WagerContract.sol\":6721:6737  userInfo[_owner] */\n      0xffffffffffffffffffffffffffffffffffffffff\n      and\n      0xffffffffffffffffffffffffffffffffffffffff\n      and\n      dup2\n      mstore\n      0x20\n      add\n      swap1\n      dup2\n      mstore\n      0x20\n      add\n      0x00\n      keccak256\n        /* \"FacctoryContract/WagerContract.sol\":6721:6750  userInfo[_owner].yesBetAmount */\n      0x03\n      add\n      0x00\n        /* \"FacctoryContract/WagerContract.sol\":6721:6786  userInfo[_owner].yesBetAmount -= sellInfo[_owner][_listNo].amount */\n      dup3\n      dup3\n      sload\n      tag_304\n      swap2\n      swap1\n      tag_183\n      jump\t// in\n    tag_304:\n      swap3\n      pop\n      pop\n      dup2\n      swap1\n      sstore\n      pop\n        /* \"FacctoryContract/WagerContract.sol\":6837:6845  sellInfo */\n      0x07\n        /* \"FacctoryContract/WagerContract.sol\":6837:6853  sellInfo[_owner] */\n      0x00\n        /* \"FacctoryContract/WagerContract.sol\":6846:6852  _owner */\n      dup3\n        /* \"FacctoryContract/WagerContract.sol\":6837:6853  sellInfo[_owner] */\n      0xffffffffffffffffffffffffffffffffffffffff\n      and\n      0xffffffffffffffffffffffffffffffffffffffff\n      and\n      dup2\n      mstore\n      0x20\n      add\n      swap1\n      dup2\n      mstore\n      0x20\n      add\n      0x00\n      keccak256\n        /* \"FacctoryContract/WagerContract.sol\":6837:6862  sellInfo[_owner][_listNo] */\n      0x00\n        /* \"FacctoryContract/WagerContract.sol\":6854:6861  _listNo */\n      dup4\n        /* \"FacctoryContract/WagerContract.sol\":6837:6862  sellInfo[_owner][_listNo] */\n      dup2\n      mstore\n      0x20\n      add\n      swap1\n      dup2\n      mstore\n      0x20\n      add\n      0x00\n      keccak256\n        /* \"FacctoryContract/WagerContract.sol\":6837:6869  sellInfo[_owner][_listNo].amount */\n      0x02\n      add\n      sload\n        /* \"FacctoryContract/WagerContract.sol\":6800:6808  userInfo */\n      0x05\n        /* \"FacctoryContract/WagerContract.sol\":6800:6820  userInfo[msg.sender] */\n      0x00\n        /* \"FacctoryContract/WagerContract.sol\":6809:6819  msg.sender */\n      caller\n        /* \"FacctoryContract/WagerContract.sol\":6800:6820  userInfo[msg.sender] */\n      0xffffffffffffffffffffffffffffffffffffffff\n      and\n      0xffffffffffffffffffffffffffffffffffffffff\n      and\n      dup2\n      mstore\n      0x20\n      add\n      swap1\n      dup2\n      mstore\n      0x20\n      add\n      0x00\n      keccak256\n        /* \"FacctoryContract/WagerContract.sol\":6800:6833  userInfo[msg.sender].yesBetAmount */\n      0x03\n      add\n      0x00\n        /* \"FacctoryContract/WagerContract.sol\":6800:6869  userInfo[msg.sender].yesBetAmount += sellInfo[_owner][_listNo].amount */\n      dup3\n      dup3\n      sload\n      tag_305\n      swap2\n      swap1\n      tag_125\n      jump\t// in\n    tag_305:\n      swap3\n      pop\n      pop\n      dup2\n      swap1\n      sstore\n      pop\n        /* \"FacctoryContract/WagerContract.sol\":6477:6880  if(sellInfo[_owner][_listNo].listOn == 0){... */\n    tag_303:\n        /* \"FacctoryContract/WagerContract.sol\":6961:6965  true */\n      0x01\n        /* \"FacctoryContract/WagerContract.sol\":6898:6906  userInfo */\n      0x05\n        /* \"FacctoryContract/WagerContract.sol\":6898:6918  userInfo[msg.sender] */\n      0x00\n        /* \"FacctoryContract/WagerContract.sol\":6907:6917  msg.sender */\n      caller\n        /* \"FacctoryContract/WagerContract.sol\":6898:6918  userInfo[msg.sender] */\n      0xffffffffffffffffffffffffffffffffffffffff\n      and\n      0xffffffffffffffffffffffffffffffffffffffff\n      and\n      dup2\n      mstore\n      0x20\n      add\n      swap1\n      dup2\n      mstore\n      0x20\n      add\n      0x00\n      keccak256\n        /* \"FacctoryContract/WagerContract.sol\":6898:6924  userInfo[msg.sender].betOn */\n      0x05\n      add\n        /* \"FacctoryContract/WagerContract.sol\":6898:6958  userInfo[msg.sender].betOn[sellInfo[_owner][_listNo].listOn] */\n      0x00\n        /* \"FacctoryContract/WagerContract.sol\":6925:6933  sellInfo */\n      0x07\n        /* \"FacctoryContract/WagerContract.sol\":6925:6941  sellInfo[_owner] */\n      0x00\n        /* \"FacctoryContract/WagerContract.sol\":6934:6940  _owner */\n      dup6\n        /* \"FacctoryContract/WagerContract.sol\":6925:6941  sellInfo[_owner] */\n      0xffffffffffffffffffffffffffffffffffffffff\n      and\n      0xffffffffffffffffffffffffffffffffffffffff\n      and\n      dup2\n      mstore\n      0x20\n      add\n      swap1\n      dup2\n      mstore\n      0x20\n      add\n      0x00\n      keccak256\n        /* \"FacctoryContract/WagerContract.sol\":6925:6950  sellInfo[_owner][_listNo] */\n      0x00\n        /* \"FacctoryContract/WagerContract.sol\":6942:6949  _listNo */\n      dup7\n        /* \"FacctoryContract/WagerContract.sol\":6925:6950  sellInfo[_owner][_listNo] */\n      dup2\n      mstore\n      0x20\n      add\n      swap1\n      dup2\n      mstore\n      0x20\n      add\n      0x00\n      keccak256\n        /* \"FacctoryContract/WagerContract.sol\":6925:6957  sellInfo[_owner][_listNo].listOn */\n      0x03\n      add\n      sload\n        /* \"FacctoryContract/WagerContract.sol\":6898:6958  userInfo[msg.sender].betOn[sellInfo[_owner][_listNo].listOn] */\n      dup2\n      mstore\n      0x20\n      add\n      swap1\n      dup2\n      mstore\n      0x20\n      add\n      0x00\n      keccak256\n      0x00\n        /* \"FacctoryContract/WagerContract.sol\":6898:6965  userInfo[msg.sender].betOn[sellInfo[_owner][_listNo].listOn] = true */\n      0x0100\n      exp\n      dup2\n      sload\n      dup2\n      0xff\n      mul\n      not\n      and\n      swap1\n      dup4\n      iszero\n      iszero\n      mul\n      or\n      swap1\n      sstore\n      pop\n        /* \"FacctoryContract/WagerContract.sol\":6998:7008  msg.sender */\n      caller\n        /* \"FacctoryContract/WagerContract.sol\":6975:6983  eachUser */\n      0x04\n        /* \"FacctoryContract/WagerContract.sol\":6975:6995  eachUser[totalUsers] */\n      0x00\n        /* \"FacctoryContract/WagerContract.sol\":6984:6994  totalUsers */\n      sload(0x02)\n        /* \"FacctoryContract/WagerContract.sol\":6975:6995  eachUser[totalUsers] */\n      dup2\n      mstore\n      0x20\n      add\n      swap1\n      dup2\n      mstore\n      0x20\n      add\n      0x00\n      keccak256\n      0x00\n        /* \"FacctoryContract/WagerContract.sol\":6975:7008  eachUser[totalUsers] = msg.sender */\n      0x0100\n      exp\n      dup2\n      sload\n      dup2\n      0xffffffffffffffffffffffffffffffffffffffff\n      mul\n      not\n      and\n      swap1\n      dup4\n      0xffffffffffffffffffffffffffffffffffffffff\n      and\n      mul\n      or\n      swap1\n      sstore\n      pop\n        /* \"FacctoryContract/WagerContract.sol\":7018:7028  totalUsers */\n      0x02\n      0x00\n        /* \"FacctoryContract/WagerContract.sol\":7018:7030  totalUsers++ */\n      dup2\n      sload\n      dup1\n      swap3\n      swap2\n      swap1\n      tag_306\n      swap1\n      tag_156\n      jump\t// in\n    tag_306:\n      swap2\n      swap1\n      pop\n      sstore\n      pop\n        /* \"FacctoryContract/WagerContract.sol\":7041:7053  bool success */\n      0x00\n        /* \"FacctoryContract/WagerContract.sol\":7056:7065  usdcToken */\n      0x01\n      0x00\n      swap1\n      sload\n      swap1\n      0x0100\n      exp\n      swap1\n      div\n      0xffffffffffffffffffffffffffffffffffffffff\n      and\n        /* \"FacctoryContract/WagerContract.sol\":7056:7078  usdcToken.transferFrom */\n      0xffffffffffffffffffffffffffffffffffffffff\n      and\n      0x23b872dd\n        /* \"FacctoryContract/WagerContract.sol\":7092:7102  msg.sender */\n      caller\n        /* \"FacctoryContract/WagerContract.sol\":7116:7122  _owner */\n      dup5\n        /* \"FacctoryContract/WagerContract.sol\":7136:7144  sellInfo */\n      0x07\n        /* \"FacctoryContract/WagerContract.sol\":7136:7152  sellInfo[_owner] */\n      0x00\n        /* \"FacctoryContract/WagerContract.sol\":7145:7151  _owner */\n      dup8\n        /* \"FacctoryContract/WagerContract.sol\":7136:7152  sellInfo[_owner] */\n      0xffffffffffffffffffffffffffffffffffffffff\n      and\n      0xffffffffffffffffffffffffffffffffffffffff\n      and\n      dup2\n      mstore\n      0x20\n      add\n      swap1\n      dup2\n      mstore\n      0x20\n      add\n      0x00\n      keccak256\n        /* \"FacctoryContract/WagerContract.sol\":7136:7161  sellInfo[_owner][_listNo] */\n      0x00\n        /* \"FacctoryContract/WagerContract.sol\":7153:7160  _listNo */\n      dup9\n        /* \"FacctoryContract/WagerContract.sol\":7136:7161  sellInfo[_owner][_listNo] */\n      dup2\n      mstore\n      0x20\n      add\n      swap1\n      dup2\n      mstore\n      0x20\n      add\n      0x00\n      keccak256\n        /* \"FacctoryContract/WagerContract.sol\":7136:7167  sellInfo[_owner][_listNo].price */\n      0x01\n      add\n      sload\n        /* \"FacctoryContract/WagerContract.sol\":7056:7177  usdcToken.transferFrom(... */\n      mload(0x40)\n      dup5\n      0xffffffff\n      and\n      0xe0\n      shl\n      dup2\n      mstore\n      0x04\n      add\n      tag_307\n      swap4\n      swap3\n      swap2\n      swap1\n      tag_254\n      jump\t// in\n    tag_307:\n      0x20\n      mload(0x40)\n      dup1\n      dup4\n      sub\n      dup2\n      0x00\n      dup8\n      gas\n      call\n      iszero\n      dup1\n      iszero\n      tag_309\n      jumpi\n      returndatacopy(0x00, 0x00, returndatasize)\n      revert(0x00, returndatasize)\n    tag_309:\n      pop\n      pop\n      pop\n      pop\n      mload(0x40)\n      returndatasize\n      not(0x1f)\n      0x1f\n      dup3\n      add\n      and\n      dup3\n      add\n      dup1\n      0x40\n      mstore\n      pop\n      dup2\n      add\n      swap1\n      tag_310\n      swap2\n      swap1\n      tag_205\n      jump\t// in\n    tag_310:\n        /* \"FacctoryContract/WagerContract.sol\":7041:7177  bool success = usdcToken.transferFrom(... */\n      swap1\n      pop\n        /* \"FacctoryContract/WagerContract.sol\":7195:7202  success */\n      dup1\n        /* \"FacctoryContract/WagerContract.sol\":7187:7222  require(success, \"Transfer failed\") */\n      tag_311\n      jumpi\n      mload(0x40)\n      0x08c379a000000000000000000000000000000000000000000000000000000000\n      dup2\n      mstore\n      0x04\n      add\n      tag_312\n      swap1\n      tag_208\n      jump\t// in\n    tag_312:\n      mload(0x40)\n      dup1\n      swap2\n      sub\n      swap1\n      revert\n    tag_311:\n        /* \"FacctoryContract/WagerContract.sol\":7238:7332  BuyShare(msg.sender,_owner, sellInfo[_owner][_listNo].amount, sellInfo[_owner][_listNo].price) */\n      0xc891adf8dfbf643a02668e73c35bbbb3c8aa9d86e0dc779d260026cfc0ab8b99\n        /* \"FacctoryContract/WagerContract.sol\":7247:7257  msg.sender */\n      caller\n        /* \"FacctoryContract/WagerContract.sol\":7258:7264  _owner */\n      dup4\n        /* \"FacctoryContract/WagerContract.sol\":7266:7274  sellInfo */\n      0x07\n        /* \"FacctoryContract/WagerContract.sol\":7266:7282  sellInfo[_owner] */\n      0x00\n        /* \"FacctoryContract/WagerContract.sol\":7275:7281  _owner */\n      dup7\n        /* \"FacctoryContract/WagerContract.sol\":7266:7282  sellInfo[_owner] */\n      0xffffffffffffffffffffffffffffffffffffffff\n      and\n      0xffffffffffffffffffffffffffffffffffffffff\n      and\n      dup2\n      mstore\n      0x20\n      add\n      swap1\n      dup2\n      mstore\n      0x20\n      add\n      0x00\n      keccak256\n        /* \"FacctoryContract/WagerContract.sol\":7266:7291  sellInfo[_owner][_listNo] */\n      0x00\n        /* \"FacctoryContract/WagerContract.sol\":7283:7290  _listNo */\n      dup8\n        /* \"FacctoryContract/WagerContract.sol\":7266:7291  sellInfo[_owner][_listNo] */\n      dup2\n      mstore\n      0x20\n      add\n      swap1\n      dup2\n      mstore\n      0x20\n      add\n      0x00\n      keccak256\n        /* \"FacctoryContract/WagerContract.sol\":7266:7298  sellInfo[_owner][_listNo].amount */\n      0x02\n      add\n      sload\n        /* \"FacctoryContract/WagerContract.sol\":7300:7308  sellInfo */\n      0x07\n        /* \"FacctoryContract/WagerContract.sol\":7300:7316  sellInfo[_owner] */\n      0x00\n        /* \"FacctoryContract/WagerContract.sol\":7309:7315  _owner */\n      dup8\n        /* \"FacctoryContract/WagerContract.sol\":7300:7316  sellInfo[_owner] */\n      0xffffffffffffffffffffffffffffffffffffffff\n      and\n      0xffffffffffffffffffffffffffffffffffffffff\n      and\n      dup2\n      mstore\n      0x20\n      add\n      swap1\n      dup2\n      mstore\n      0x20\n      add\n      0x00\n      keccak256\n        /* \"FacctoryContract/WagerContract.sol\":7300:7325  sellInfo[_owner][_listNo] */\n      0x00\n        /* \"FacctoryContract/WagerContract.sol\":7317:7324  _listNo */\n      dup9\n        /* \"FacctoryContract/WagerContract.sol\":7300:7325  sellInfo[_owner][_listNo] */\n      dup2\n      mstore\n      0x20\n      add\n      swap1\n      dup2\n      mstore\n      0x20\n      add\n      0x00\n      keccak256\n        /* \"FacctoryContract/WagerContract.sol\":7300:7331  sellInfo[_owner][_listNo].price */\n      0x01\n      add\n      sload\n        /* \"FacctoryContract/WagerContract.sol\":7238:7332  BuyShare(msg.sender,_owner, sellInfo[_owner][_listNo].amount, sellInfo[_owner][_listNo].price) */\n      mload(0x40)\n      tag_313\n      swap5\n      swap4\n      swap3\n      swap2\n      swap1\n      tag_314\n      jump\t// in\n    tag_313:\n      mload(0x40)\n      dup1\n      swap2\n      sub\n      swap1\n      log1\n        /* \"FacctoryContract/WagerContract.sol\":5926:7339  {... */\n      pop\n        /* \"FacctoryContract/WagerContract.sol\":5866:7339  function buyShare(uint256 _listNo, address _owner) external {... */\n      pop\n      pop\n      jump\t// out\n        /* \"FacctoryContract/WagerContract.sol\":10437:10832  function calculatePercentage(uint256 _totalStakeAmount,uint256 percentageNumber) private pure returns(uint256) {... */\n    tag_185:\n        /* \"FacctoryContract/WagerContract.sol\":10539:10546  uint256 */\n      0x00\n        /* \"FacctoryContract/WagerContract.sol\":10595:10596  0 */\n      0x00\n        /* \"FacctoryContract/WagerContract.sol\":10575:10592  _totalStakeAmount */\n      dup4\n        /* \"FacctoryContract/WagerContract.sol\":10575:10596  _totalStakeAmount !=0 */\n      sub\n        /* \"FacctoryContract/WagerContract.sol\":10567:10635  require(_totalStakeAmount !=0 , \"_totalStakeAmount can not be zero\") */\n      tag_316\n      jumpi\n      mload(0x40)\n      0x08c379a000000000000000000000000000000000000000000000000000000000\n      dup2\n      mstore\n      0x04\n      add\n      tag_317\n      swap1\n      tag_318\n      jump\t// in\n    tag_317:\n      mload(0x40)\n      dup1\n      swap2\n      sub\n      swap1\n      revert\n    tag_316:\n        /* \"FacctoryContract/WagerContract.sol\":10672:10673  0 */\n      0x00\n        /* \"FacctoryContract/WagerContract.sol\":10653:10669  percentageNumber */\n      dup3\n        /* \"FacctoryContract/WagerContract.sol\":10653:10673  percentageNumber !=0 */\n      sub\n        /* \"FacctoryContract/WagerContract.sol\":10645:10712  require(percentageNumber !=0 , \"_totalStakeAmount can not be zero\") */\n      tag_319\n      jumpi\n      mload(0x40)\n      0x08c379a000000000000000000000000000000000000000000000000000000000\n      dup2\n      mstore\n      0x04\n      add\n      tag_320\n      swap1\n      tag_318\n      jump\t// in\n    tag_320:\n      mload(0x40)\n      dup1\n      swap2\n      sub\n      swap1\n      revert\n    tag_319:\n        /* \"FacctoryContract/WagerContract.sol\":10722:10740  uint256 serviceFee */\n      0x00\n        /* \"FacctoryContract/WagerContract.sol\":10783:10788  10000 */\n      0x2710\n        /* \"FacctoryContract/WagerContract.sol\":10764:10780  percentageNumber */\n      dup4\n        /* \"FacctoryContract/WagerContract.sol\":10744:10761  _totalStakeAmount */\n      dup6\n        /* \"FacctoryContract/WagerContract.sol\":10744:10780  _totalStakeAmount * percentageNumber */\n      tag_321\n      swap2\n      swap1\n      tag_128\n      jump\t// in\n    tag_321:\n        /* \"FacctoryContract/WagerContract.sol\":10743:10789  (_totalStakeAmount * percentageNumber)/(10000) */\n      tag_322\n      swap2\n      swap1\n      tag_130\n      jump\t// in\n    tag_322:\n        /* \"FacctoryContract/WagerContract.sol\":10722:10789  uint256 serviceFee = (_totalStakeAmount * percentageNumber)/(10000) */\n      swap1\n      pop\n        /* \"FacctoryContract/WagerContract.sol\":10815:10825  serviceFee */\n      dup1\n        /* \"FacctoryContract/WagerContract.sol\":10808:10825  return serviceFee */\n      swap2\n      pop\n      pop\n        /* \"FacctoryContract/WagerContract.sol\":10437:10832  function calculatePercentage(uint256 _totalStakeAmount,uint256 percentageNumber) private pure returns(uint256) {... */\n      swap3\n      swap2\n      pop\n      pop\n      jump\t// out\n        /* \"@openzeppelin/contracts/access/Ownable.sol\":1796:1958  function _checkOwner() internal view virtual {... */\n    tag_263:\n        /* \"@openzeppelin/contracts/access/Ownable.sol\":1866:1878  _msgSender() */\n      tag_324\n        /* \"@openzeppelin/contracts/access/Ownable.sol\":1866:1876  _msgSender */\n      tag_325\n        /* \"@openzeppelin/contracts/access/Ownable.sol\":1866:1878  _msgSender() */\n      jump\t// in\n    tag_324:\n        /* \"@openzeppelin/contracts/access/Ownable.sol\":1855:1878  owner() != _msgSender() */\n      0xffffffffffffffffffffffffffffffffffffffff\n      and\n        /* \"@openzeppelin/contracts/access/Ownable.sol\":1855:1862  owner() */\n      tag_326\n        /* \"@openzeppelin/contracts/access/Ownable.sol\":1855:1860  owner */\n      tag_84\n        /* \"@openzeppelin/contracts/access/Ownable.sol\":1855:1862  owner() */\n      jump\t// in\n    tag_326:\n        /* \"@openzeppelin/contracts/access/Ownable.sol\":1855:1878  owner() != _msgSender() */\n      0xffffffffffffffffffffffffffffffffffffffff\n      and\n      eq\n        /* \"@openzeppelin/contracts/access/Ownable.sol\":1851:1952  if (owner() != _msgSender()) {... */\n      tag_327\n      jumpi\n        /* \"@openzeppelin/contracts/access/Ownable.sol\":1928:1940  _msgSender() */\n      tag_328\n        /* \"@openzeppelin/contracts/access/Ownable.sol\":1928:1938  _msgSender */\n      tag_325\n        /* \"@openzeppelin/contracts/access/Ownable.sol\":1928:1940  _msgSender() */\n      jump\t// in\n    tag_328:\n        /* \"@openzeppelin/contracts/access/Ownable.sol\":1901:1941  OwnableUnauthorizedAccount(_msgSender()) */\n      mload(0x40)\n      0x118cdaa700000000000000000000000000000000000000000000000000000000\n      dup2\n      mstore\n      0x04\n      add\n      tag_329\n      swap2\n      swap1\n      tag_31\n      jump\t// in\n    tag_329:\n      mload(0x40)\n      dup1\n      swap2\n      sub\n      swap1\n      revert\n        /* \"@openzeppelin/contracts/access/Ownable.sol\":1851:1952  if (owner() != _msgSender()) {... */\n    tag_327:\n        /* \"@openzeppelin/contracts/access/Ownable.sol\":1796:1958  function _checkOwner() internal view virtual {... */\n      jump\t// out\n        /* \"@openzeppelin/contracts/access/Ownable.sol\":2912:3099  function _transferOwnership(address newOwner) internal virtual {... */\n    tag_266:\n        /* \"@openzeppelin/contracts/access/Ownable.sol\":2985:3001  address oldOwner */\n      0x00\n        /* \"@openzeppelin/contracts/access/Ownable.sol\":3004:3010  _owner */\n      0x00\n      0x00\n      swap1\n      sload\n      swap1\n      0x0100\n      exp\n      swap1\n      div\n      0xffffffffffffffffffffffffffffffffffffffff\n      and\n        /* \"@openzeppelin/contracts/access/Ownable.sol\":2985:3010  address oldOwner = _owner */\n      swap1\n      pop\n        /* \"@openzeppelin/contracts/access/Ownable.sol\":3029:3037  newOwner */\n      dup2\n        /* \"@openzeppelin/contracts/access/Ownable.sol\":3020:3026  _owner */\n      0x00\n      0x00\n        /* \"@openzeppelin/contracts/access/Ownable.sol\":3020:3037  _owner = newOwner */\n      0x0100\n      exp\n      dup2\n      sload\n      dup2\n      0xffffffffffffffffffffffffffffffffffffffff\n      mul\n      not\n      and\n      swap1\n      dup4\n      0xffffffffffffffffffffffffffffffffffffffff\n      and\n      mul\n      or\n      swap1\n      sstore\n      pop\n        /* \"@openzeppelin/contracts/access/Ownable.sol\":3083:3091  newOwner */\n      dup2\n        /* \"@openzeppelin/contracts/access/Ownable.sol\":3052:3092  OwnershipTransferred(oldOwner, newOwner) */\n      0xffffffffffffffffffffffffffffffffffffffff\n      and\n        /* \"@openzeppelin/contracts/access/Ownable.sol\":3073:3081  oldOwner */\n      dup2\n        /* \"@openzeppelin/contracts/access/Ownable.sol\":3052:3092  OwnershipTransferred(oldOwner, newOwner) */\n      0xffffffffffffffffffffffffffffffffffffffff\n      and\n      0x8be0079c531659141344cd1fd0a4f28419497f9722a3daafe3b4186f6b6457e0\n      mload(0x40)\n      mload(0x40)\n      dup1\n      swap2\n      sub\n      swap1\n      log3\n        /* \"@openzeppelin/contracts/access/Ownable.sol\":2975:3099  {... */\n      pop\n        /* \"@openzeppelin/contracts/access/Ownable.sol\":2912:3099  function _transferOwnership(address newOwner) internal virtual {... */\n      pop\n      jump\t// out\n        /* \"@openzeppelin/contracts/utils/Context.sol\":656:752  function _msgSender() internal view virtual returns (address) {... */\n    tag_325:\n        /* \"@openzeppelin/contracts/utils/Context.sol\":709:716  address */\n      0x00\n        /* \"@openzeppelin/contracts/utils/Context.sol\":735:745  msg.sender */\n      caller\n        /* \"@openzeppelin/contracts/utils/Context.sol\":728:745  return msg.sender */\n      swap1\n      pop\n        /* \"@openzeppelin/contracts/utils/Context.sol\":656:752  function _msgSender() internal view virtual returns (address) {... */\n      swap1\n      jump\t// out\n        /* \"#utility.yul\":88:205   */\n    tag_333:\n        /* \"#utility.yul\":197:198   */\n      0x00\n        /* \"#utility.yul\":194:195   */\n      0x00\n        /* \"#utility.yul\":187:199   */\n      revert\n        /* \"#utility.yul\":334:411   */\n    tag_335:\n        /* \"#utility.yul\":371:378   */\n      0x00\n        /* \"#utility.yul\":400:405   */\n      dup2\n        /* \"#utility.yul\":389:405   */\n      swap1\n      pop\n        /* \"#utility.yul\":334:411   */\n      swap2\n      swap1\n      pop\n      jump\t// out\n        /* \"#utility.yul\":417:539   */\n    tag_336:\n        /* \"#utility.yul\":490:514   */\n      tag_373\n        /* \"#utility.yul\":508:513   */\n      dup2\n        /* \"#utility.yul\":490:514   */\n      tag_335\n      jump\t// in\n    tag_373:\n        /* \"#utility.yul\":483:488   */\n      dup2\n        /* \"#utility.yul\":480:515   */\n      eq\n        /* \"#utility.yul\":470:533   */\n      tag_374\n      jumpi\n        /* \"#utility.yul\":529:530   */\n      0x00\n        /* \"#utility.yul\":526:527   */\n      0x00\n        /* \"#utility.yul\":519:531   */\n      revert\n        /* \"#utility.yul\":470:533   */\n    tag_374:\n        /* \"#utility.yul\":417:539   */\n      pop\n      jump\t// out\n        /* \"#utility.yul\":545:684   */\n    tag_337:\n        /* \"#utility.yul\":591:596   */\n      0x00\n        /* \"#utility.yul\":629:635   */\n      dup2\n        /* \"#utility.yul\":616:636   */\n      calldataload\n        /* \"#utility.yul\":607:636   */\n      swap1\n      pop\n        /* \"#utility.yul\":645:678   */\n      tag_376\n        /* \"#utility.yul\":672:677   */\n      dup2\n        /* \"#utility.yul\":645:678   */\n      tag_336\n      jump\t// in\n    tag_376:\n        /* \"#utility.yul\":545:684   */\n      swap3\n      swap2\n      pop\n      pop\n      jump\t// out\n        /* \"#utility.yul\":690:1019   */\n    tag_28:\n        /* \"#utility.yul\":749:755   */\n      0x00\n        /* \"#utility.yul\":798:800   */\n      0x20\n        /* \"#utility.yul\":786:795   */\n      dup3\n        /* \"#utility.yul\":777:784   */\n      dup5\n        /* \"#utility.yul\":773:796   */\n      sub\n        /* \"#utility.yul\":769:801   */\n      slt\n        /* \"#utility.yul\":766:885   */\n      iszero\n      tag_378\n      jumpi\n        /* \"#utility.yul\":804:883   */\n      tag_379\n      tag_333\n      jump\t// in\n    tag_379:\n        /* \"#utility.yul\":766:885   */\n    tag_378:\n        /* \"#utility.yul\":924:925   */\n      0x00\n        /* \"#utility.yul\":949:1002   */\n      tag_380\n        /* \"#utility.yul\":994:1001   */\n      dup5\n        /* \"#utility.yul\":985:991   */\n      dup3\n        /* \"#utility.yul\":974:983   */\n      dup6\n        /* \"#utility.yul\":970:992   */\n      add\n        /* \"#utility.yul\":949:1002   */\n      tag_337\n      jump\t// in\n    tag_380:\n        /* \"#utility.yul\":939:1002   */\n      swap2\n      pop\n        /* \"#utility.yul\":895:1012   */\n      pop\n        /* \"#utility.yul\":690:1019   */\n      swap3\n      swap2\n      pop\n      pop\n      jump\t// out\n        /* \"#utility.yul\":1025:1151   */\n    tag_338:\n        /* \"#utility.yul\":1062:1069   */\n      0x00\n        /* \"#utility.yul\":1102:1144   */\n      0xffffffffffffffffffffffffffffffffffffffff\n        /* \"#utility.yul\":1095:1100   */\n      dup3\n        /* \"#utility.yul\":1091:1145   */\n      and\n        /* \"#utility.yul\":1080:1145   */\n      swap1\n      pop\n        /* \"#utility.yul\":1025:1151   */\n      swap2\n      swap1\n      pop\n      jump\t// out\n        /* \"#utility.yul\":1157:1253   */\n    tag_339:\n        /* \"#utility.yul\":1194:1201   */\n      0x00\n        /* \"#utility.yul\":1223:1247   */\n      tag_383\n        /* \"#utility.yul\":1241:1246   */\n      dup3\n        /* \"#utility.yul\":1223:1247   */\n      tag_338\n      jump\t// in\n    tag_383:\n        /* \"#utility.yul\":1212:1247   */\n      swap1\n      pop\n        /* \"#utility.yul\":1157:1253   */\n      swap2\n      swap1\n      pop\n      jump\t// out\n        /* \"#utility.yul\":1259:1377   */\n    tag_340:\n        /* \"#utility.yul\":1346:1370   */\n      tag_385\n        /* \"#utility.yul\":1364:1369   */\n      dup2\n        /* \"#utility.yul\":1346:1370   */\n      tag_339\n      jump\t// in\n    tag_385:\n        /* \"#utility.yul\":1341:1344   */\n      dup3\n        /* \"#utility.yul\":1334:1371   */\n      mstore\n        /* \"#utility.yul\":1259:1377   */\n      pop\n      pop\n      jump\t// out\n        /* \"#utility.yul\":1383:1605   */\n    tag_31:\n        /* \"#utility.yul\":1476:1480   */\n      0x00\n        /* \"#utility.yul\":1514:1516   */\n      0x20\n        /* \"#utility.yul\":1503:1512   */\n      dup3\n        /* \"#utility.yul\":1499:1517   */\n      add\n        /* \"#utility.yul\":1491:1517   */\n      swap1\n      pop\n        /* \"#utility.yul\":1527:1598   */\n      tag_387\n        /* \"#utility.yul\":1595:1596   */\n      0x00\n        /* \"#utility.yul\":1584:1593   */\n      dup4\n        /* \"#utility.yul\":1580:1597   */\n      add\n        /* \"#utility.yul\":1571:1577   */\n      dup5\n        /* \"#utility.yul\":1527:1598   */\n      tag_340\n      jump\t// in\n    tag_387:\n        /* \"#utility.yul\":1383:1605   */\n      swap3\n      swap2\n      pop\n      pop\n      jump\t// out\n        /* \"#utility.yul\":1611:1733   */\n    tag_341:\n        /* \"#utility.yul\":1684:1708   */\n      tag_389\n        /* \"#utility.yul\":1702:1707   */\n      dup2\n        /* \"#utility.yul\":1684:1708   */\n      tag_339\n      jump\t// in\n    tag_389:\n        /* \"#utility.yul\":1677:1682   */\n      dup2\n        /* \"#utility.yul\":1674:1709   */\n      eq\n        /* \"#utility.yul\":1664:1727   */\n      tag_390\n      jumpi\n        /* \"#utility.yul\":1723:1724   */\n      0x00\n        /* \"#utility.yul\":1720:1721   */\n      0x00\n        /* \"#utility.yul\":1713:1725   */\n      revert\n        /* \"#utility.yul\":1664:1727   */\n    tag_390:\n        /* \"#utility.yul\":1611:1733   */\n      pop\n      jump\t// out\n        /* \"#utility.yul\":1739:1878   */\n    tag_342:\n        /* \"#utility.yul\":1785:1790   */\n      0x00\n        /* \"#utility.yul\":1823:1829   */\n      dup2\n        /* \"#utility.yul\":1810:1830   */\n      calldataload\n        /* \"#utility.yul\":1801:1830   */\n      swap1\n      pop\n        /* \"#utility.yul\":1839:1872   */\n      tag_392\n        /* \"#utility.yul\":1866:1871   */\n      dup2\n        /* \"#utility.yul\":1839:1872   */\n      tag_341\n      jump\t// in\n    tag_392:\n        /* \"#utility.yul\":1739:1878   */\n      swap3\n      swap2\n      pop\n      pop\n      jump\t// out\n        /* \"#utility.yul\":1884:2358   */\n    tag_34:\n        /* \"#utility.yul\":1952:1958   */\n      0x00\n        /* \"#utility.yul\":1960:1966   */\n      0x00\n        /* \"#utility.yul\":2009:2011   */\n      0x40\n        /* \"#utility.yul\":1997:2006   */\n      dup4\n        /* \"#utility.yul\":1988:1995   */\n      dup6\n        /* \"#utility.yul\":1984:2007   */\n      sub\n        /* \"#utility.yul\":1980:2012   */\n      slt\n        /* \"#utility.yul\":1977:2096   */\n      iszero\n      tag_394\n      jumpi\n        /* \"#utility.yul\":2015:2094   */\n      tag_395\n      tag_333\n      jump\t// in\n    tag_395:\n        /* \"#utility.yul\":1977:2096   */\n    tag_394:\n        /* \"#utility.yul\":2135:2136   */\n      0x00\n        /* \"#utility.yul\":2160:2213   */\n      tag_396\n        /* \"#utility.yul\":2205:2212   */\n      dup6\n        /* \"#utility.yul\":2196:2202   */\n      dup3\n        /* \"#utility.yul\":2185:2194   */\n      dup7\n        /* \"#utility.yul\":2181:2203   */\n      add\n        /* \"#utility.yul\":2160:2213   */\n      tag_342\n      jump\t// in\n    tag_396:\n        /* \"#utility.yul\":2150:2213   */\n      swap3\n      pop\n        /* \"#utility.yul\":2106:2223   */\n      pop\n        /* \"#utility.yul\":2262:2264   */\n      0x20\n        /* \"#utility.yul\":2288:2341   */\n      tag_397\n        /* \"#utility.yul\":2333:2340   */\n      dup6\n        /* \"#utility.yul\":2324:2330   */\n      dup3\n        /* \"#utility.yul\":2313:2322   */\n      dup7\n        /* \"#utility.yul\":2309:2331   */\n      add\n        /* \"#utility.yul\":2288:2341   */\n      tag_337\n      jump\t// in\n    tag_397:\n        /* \"#utility.yul\":2278:2341   */\n      swap2\n      pop\n        /* \"#utility.yul\":2233:2351   */\n      pop\n        /* \"#utility.yul\":1884:2358   */\n      swap3\n      pop\n      swap3\n      swap1\n      pop\n      jump\t// out\n        /* \"#utility.yul\":2364:2454   */\n    tag_343:\n        /* \"#utility.yul\":2398:2405   */\n      0x00\n        /* \"#utility.yul\":2441:2446   */\n      dup2\n        /* \"#utility.yul\":2434:2447   */\n      iszero\n        /* \"#utility.yul\":2427:2448   */\n      iszero\n        /* \"#utility.yul\":2416:2448   */\n      swap1\n      pop\n        /* \"#utility.yul\":2364:2454   */\n      swap2\n      swap1\n      pop\n      jump\t// out\n        /* \"#utility.yul\":2460:2569   */\n    tag_344:\n        /* \"#utility.yul\":2541:2562   */\n      tag_400\n        /* \"#utility.yul\":2556:2561   */\n      dup2\n        /* \"#utility.yul\":2541:2562   */\n      tag_343\n      jump\t// in\n    tag_400:\n        /* \"#utility.yul\":2536:2539   */\n      dup3\n        /* \"#utility.yul\":2529:2563   */\n      mstore\n        /* \"#utility.yul\":2460:2569   */\n      pop\n      pop\n      jump\t// out\n        /* \"#utility.yul\":2575:2785   */\n    tag_37:\n        /* \"#utility.yul\":2662:2666   */\n      0x00\n        /* \"#utility.yul\":2700:2702   */\n      0x20\n        /* \"#utility.yul\":2689:2698   */\n      dup3\n        /* \"#utility.yul\":2685:2703   */\n      add\n        /* \"#utility.yul\":2677:2703   */\n      swap1\n      pop\n        /* \"#utility.yul\":2713:2778   */\n      tag_402\n        /* \"#utility.yul\":2775:2776   */\n      0x00\n        /* \"#utility.yul\":2764:2773   */\n      dup4\n        /* \"#utility.yul\":2760:2777   */\n      add\n        /* \"#utility.yul\":2751:2757   */\n      dup5\n        /* \"#utility.yul\":2713:2778   */\n      tag_344\n      jump\t// in\n    tag_402:\n        /* \"#utility.yul\":2575:2785   */\n      swap3\n      swap2\n      pop\n      pop\n      jump\t// out\n        /* \"#utility.yul\":2791:2851   */\n    tag_345:\n        /* \"#utility.yul\":2819:2822   */\n      0x00\n        /* \"#utility.yul\":2840:2845   */\n      dup2\n        /* \"#utility.yul\":2833:2845   */\n      swap1\n      pop\n        /* \"#utility.yul\":2791:2851   */\n      swap2\n      swap1\n      pop\n      jump\t// out\n        /* \"#utility.yul\":2857:2999   */\n    tag_346:\n        /* \"#utility.yul\":2907:2916   */\n      0x00\n        /* \"#utility.yul\":2940:2993   */\n      tag_405\n        /* \"#utility.yul\":2958:2992   */\n      tag_406\n        /* \"#utility.yul\":2967:2991   */\n      tag_407\n        /* \"#utility.yul\":2985:2990   */\n      dup5\n        /* \"#utility.yul\":2967:2991   */\n      tag_338\n      jump\t// in\n    tag_407:\n        /* \"#utility.yul\":2958:2992   */\n      tag_345\n      jump\t// in\n    tag_406:\n        /* \"#utility.yul\":2940:2993   */\n      tag_338\n      jump\t// in\n    tag_405:\n        /* \"#utility.yul\":2927:2993   */\n      swap1\n      pop\n        /* \"#utility.yul\":2857:2999   */\n      swap2\n      swap1\n      pop\n      jump\t// out\n        /* \"#utility.yul\":3005:3131   */\n    tag_347:\n        /* \"#utility.yul\":3055:3064   */\n      0x00\n        /* \"#utility.yul\":3088:3125   */\n      tag_409\n        /* \"#utility.yul\":3119:3124   */\n      dup3\n        /* \"#utility.yul\":3088:3125   */\n      tag_346\n      jump\t// in\n    tag_409:\n        /* \"#utility.yul\":3075:3125   */\n      swap1\n      pop\n        /* \"#utility.yul\":3005:3131   */\n      swap2\n      swap1\n      pop\n      jump\t// out\n        /* \"#utility.yul\":3137:3276   */\n    tag_348:\n        /* \"#utility.yul\":3200:3209   */\n      0x00\n        /* \"#utility.yul\":3233:3270   */\n      tag_411\n        /* \"#utility.yul\":3264:3269   */\n      dup3\n        /* \"#utility.yul\":3233:3270   */\n      tag_347\n      jump\t// in\n    tag_411:\n        /* \"#utility.yul\":3220:3270   */\n      swap1\n      pop\n        /* \"#utility.yul\":3137:3276   */\n      swap2\n      swap1\n      pop\n      jump\t// out\n        /* \"#utility.yul\":3282:3439   */\n    tag_349:\n        /* \"#utility.yul\":3382:3432   */\n      tag_413\n        /* \"#utility.yul\":3426:3431   */\n      dup2\n        /* \"#utility.yul\":3382:3432   */\n      tag_348\n      jump\t// in\n    tag_413:\n        /* \"#utility.yul\":3377:3380   */\n      dup3\n        /* \"#utility.yul\":3370:3433   */\n      mstore\n        /* \"#utility.yul\":3282:3439   */\n      pop\n      pop\n      jump\t// out\n        /* \"#utility.yul\":3445:3693   */\n    tag_41:\n        /* \"#utility.yul\":3551:3555   */\n      0x00\n        /* \"#utility.yul\":3589:3591   */\n      0x20\n        /* \"#utility.yul\":3578:3587   */\n      dup3\n        /* \"#utility.yul\":3574:3592   */\n      add\n        /* \"#utility.yul\":3566:3592   */\n      swap1\n      pop\n        /* \"#utility.yul\":3602:3686   */\n      tag_415\n        /* \"#utility.yul\":3683:3684   */\n      0x00\n        /* \"#utility.yul\":3672:3681   */\n      dup4\n        /* \"#utility.yul\":3668:3685   */\n      add\n        /* \"#utility.yul\":3659:3665   */\n      dup5\n        /* \"#utility.yul\":3602:3686   */\n      tag_349\n      jump\t// in\n    tag_415:\n        /* \"#utility.yul\":3445:3693   */\n      swap3\n      swap2\n      pop\n      pop\n      jump\t// out\n        /* \"#utility.yul\":3699:4028   */\n    tag_44:\n        /* \"#utility.yul\":3758:3764   */\n      0x00\n        /* \"#utility.yul\":3807:3809   */\n      0x20\n        /* \"#utility.yul\":3795:3804   */\n      dup3\n        /* \"#utility.yul\":3786:3793   */\n      dup5\n        /* \"#utility.yul\":3782:3805   */\n      sub\n        /* \"#utility.yul\":3778:3810   */\n      slt\n        /* \"#utility.yul\":3775:3894   */\n      iszero\n      tag_417\n      jumpi\n        /* \"#utility.yul\":3813:3892   */\n      tag_418\n      tag_333\n      jump\t// in\n    tag_418:\n        /* \"#utility.yul\":3775:3894   */\n    tag_417:\n        /* \"#utility.yul\":3933:3934   */\n      0x00\n        /* \"#utility.yul\":3958:4011   */\n      tag_419\n        /* \"#utility.yul\":4003:4010   */\n      dup5\n        /* \"#utility.yul\":3994:4000   */\n      dup3\n        /* \"#utility.yul\":3983:3992   */\n      dup6\n        /* \"#utility.yul\":3979:4001   */\n      add\n        /* \"#utility.yul\":3958:4011   */\n      tag_342\n      jump\t// in\n    tag_419:\n        /* \"#utility.yul\":3948:4011   */\n      swap2\n      pop\n        /* \"#utility.yul\":3904:4021   */\n      pop\n        /* \"#utility.yul\":3699:4028   */\n      swap3\n      swap2\n      pop\n      pop\n      jump\t// out\n        /* \"#utility.yul\":4034:4152   */\n    tag_350:\n        /* \"#utility.yul\":4121:4145   */\n      tag_421\n        /* \"#utility.yul\":4139:4144   */\n      dup2\n        /* \"#utility.yul\":4121:4145   */\n      tag_335\n      jump\t// in\n    tag_421:\n        /* \"#utility.yul\":4116:4119   */\n      dup3\n        /* \"#utility.yul\":4109:4146   */\n      mstore\n        /* \"#utility.yul\":4034:4152   */\n      pop\n      pop\n      jump\t// out\n        /* \"#utility.yul\":4158:4822   */\n    tag_47:\n        /* \"#utility.yul\":4363:4367   */\n      0x00\n        /* \"#utility.yul\":4401:4404   */\n      0xa0\n        /* \"#utility.yul\":4390:4399   */\n      dup3\n        /* \"#utility.yul\":4386:4405   */\n      add\n        /* \"#utility.yul\":4378:4405   */\n      swap1\n      pop\n        /* \"#utility.yul\":4415:4486   */\n      tag_423\n        /* \"#utility.yul\":4483:4484   */\n      0x00\n        /* \"#utility.yul\":4472:4481   */\n      dup4\n        /* \"#utility.yul\":4468:4485   */\n      add\n        /* \"#utility.yul\":4459:4465   */\n      dup9\n        /* \"#utility.yul\":4415:4486   */\n      tag_350\n      jump\t// in\n    tag_423:\n        /* \"#utility.yul\":4496:4568   */\n      tag_424\n        /* \"#utility.yul\":4564:4566   */\n      0x20\n        /* \"#utility.yul\":4553:4562   */\n      dup4\n        /* \"#utility.yul\":4549:4567   */\n      add\n        /* \"#utility.yul\":4540:4546   */\n      dup8\n        /* \"#utility.yul\":4496:4568   */\n      tag_350\n      jump\t// in\n    tag_424:\n        /* \"#utility.yul\":4578:4650   */\n      tag_425\n        /* \"#utility.yul\":4646:4648   */\n      0x40\n        /* \"#utility.yul\":4635:4644   */\n      dup4\n        /* \"#utility.yul\":4631:4649   */\n      add\n        /* \"#utility.yul\":4622:4628   */\n      dup7\n        /* \"#utility.yul\":4578:4650   */\n      tag_350\n      jump\t// in\n    tag_425:\n        /* \"#utility.yul\":4660:4732   */\n      tag_426\n        /* \"#utility.yul\":4728:4730   */\n      0x60\n        /* \"#utility.yul\":4717:4726   */\n      dup4\n        /* \"#utility.yul\":4713:4731   */\n      add\n        /* \"#utility.yul\":4704:4710   */\n      dup6\n        /* \"#utility.yul\":4660:4732   */\n      tag_350\n      jump\t// in\n    tag_426:\n        /* \"#utility.yul\":4742:4815   */\n      tag_427\n        /* \"#utility.yul\":4810:4813   */\n      0x80\n        /* \"#utility.yul\":4799:4808   */\n      dup4\n        /* \"#utility.yul\":4795:4814   */\n      add\n        /* \"#utility.yul\":4786:4792   */\n      dup5\n        /* \"#utility.yul\":4742:4815   */\n      tag_350\n      jump\t// in\n    tag_427:\n        /* \"#utility.yul\":4158:4822   */\n      swap7\n      swap6\n      pop\n      pop\n      pop\n      pop\n      pop\n      pop\n      jump\t// out\n        /* \"#utility.yul\":4828:5160   */\n    tag_51:\n        /* \"#utility.yul\":4949:4953   */\n      0x00\n        /* \"#utility.yul\":4987:4989   */\n      0x40\n        /* \"#utility.yul\":4976:4985   */\n      dup3\n        /* \"#utility.yul\":4972:4990   */\n      add\n        /* \"#utility.yul\":4964:4990   */\n      swap1\n      pop\n        /* \"#utility.yul\":5000:5071   */\n      tag_429\n        /* \"#utility.yul\":5068:5069   */\n      0x00\n        /* \"#utility.yul\":5057:5066   */\n      dup4\n        /* \"#utility.yul\":5053:5070   */\n      add\n        /* \"#utility.yul\":5044:5050   */\n      dup6\n        /* \"#utility.yul\":5000:5071   */\n      tag_350\n      jump\t// in\n    tag_429:\n        /* \"#utility.yul\":5081:5153   */\n      tag_430\n        /* \"#utility.yul\":5149:5151   */\n      0x20\n        /* \"#utility.yul\":5138:5147   */\n      dup4\n        /* \"#utility.yul\":5134:5152   */\n      add\n        /* \"#utility.yul\":5125:5131   */\n      dup5\n        /* \"#utility.yul\":5081:5153   */\n      tag_350\n      jump\t// in\n    tag_430:\n        /* \"#utility.yul\":4828:5160   */\n      swap4\n      swap3\n      pop\n      pop\n      pop\n      jump\t// out\n        /* \"#utility.yul\":5166:5640   */\n    tag_54:\n        /* \"#utility.yul\":5234:5240   */\n      0x00\n        /* \"#utility.yul\":5242:5248   */\n      0x00\n        /* \"#utility.yul\":5291:5293   */\n      0x40\n        /* \"#utility.yul\":5279:5288   */\n      dup4\n        /* \"#utility.yul\":5270:5277   */\n      dup6\n        /* \"#utility.yul\":5266:5289   */\n      sub\n        /* \"#utility.yul\":5262:5294   */\n      slt\n        /* \"#utility.yul\":5259:5378   */\n      iszero\n      tag_432\n      jumpi\n        /* \"#utility.yul\":5297:5376   */\n      tag_433\n      tag_333\n      jump\t// in\n    tag_433:\n        /* \"#utility.yul\":5259:5378   */\n    tag_432:\n        /* \"#utility.yul\":5417:5418   */\n      0x00\n        /* \"#utility.yul\":5442:5495   */\n      tag_434\n        /* \"#utility.yul\":5487:5494   */\n      dup6\n        /* \"#utility.yul\":5478:5484   */\n      dup3\n        /* \"#utility.yul\":5467:5476   */\n      dup7\n        /* \"#utility.yul\":5463:5485   */\n      add\n        /* \"#utility.yul\":5442:5495   */\n      tag_337\n      jump\t// in\n    tag_434:\n        /* \"#utility.yul\":5432:5495   */\n      swap3\n      pop\n        /* \"#utility.yul\":5388:5505   */\n      pop\n        /* \"#utility.yul\":5544:5546   */\n      0x20\n        /* \"#utility.yul\":5570:5623   */\n      tag_435\n        /* \"#utility.yul\":5615:5622   */\n      dup6\n        /* \"#utility.yul\":5606:5612   */\n      dup3\n        /* \"#utility.yul\":5595:5604   */\n      dup7\n        /* \"#utility.yul\":5591:5613   */\n      add\n        /* \"#utility.yul\":5570:5623   */\n      tag_337\n      jump\t// in\n    tag_435:\n        /* \"#utility.yul\":5560:5623   */\n      swap2\n      pop\n        /* \"#utility.yul\":5515:5633   */\n      pop\n        /* \"#utility.yul\":5166:5640   */\n      swap3\n      pop\n      swap3\n      swap1\n      pop\n      jump\t// out\n        /* \"#utility.yul\":5646:6397   */\n    tag_61:\n        /* \"#utility.yul\":5867:5871   */\n      0x00\n        /* \"#utility.yul\":5905:5908   */\n      0xc0\n        /* \"#utility.yul\":5894:5903   */\n      dup3\n        /* \"#utility.yul\":5890:5909   */\n      add\n        /* \"#utility.yul\":5882:5909   */\n      swap1\n      pop\n        /* \"#utility.yul\":5919:5984   */\n      tag_437\n        /* \"#utility.yul\":5981:5982   */\n      0x00\n        /* \"#utility.yul\":5970:5979   */\n      dup4\n        /* \"#utility.yul\":5966:5983   */\n      add\n        /* \"#utility.yul\":5957:5963   */\n      dup10\n        /* \"#utility.yul\":5919:5984   */\n      tag_344\n      jump\t// in\n    tag_437:\n        /* \"#utility.yul\":5994:6060   */\n      tag_438\n        /* \"#utility.yul\":6056:6058   */\n      0x20\n        /* \"#utility.yul\":6045:6054   */\n      dup4\n        /* \"#utility.yul\":6041:6059   */\n      add\n        /* \"#utility.yul\":6032:6038   */\n      dup9\n        /* \"#utility.yul\":5994:6060   */\n      tag_344\n      jump\t// in\n    tag_438:\n        /* \"#utility.yul\":6070:6142   */\n      tag_439\n        /* \"#utility.yul\":6138:6140   */\n      0x40\n        /* \"#utility.yul\":6127:6136   */\n      dup4\n        /* \"#utility.yul\":6123:6141   */\n      add\n        /* \"#utility.yul\":6114:6120   */\n      dup8\n        /* \"#utility.yul\":6070:6142   */\n      tag_340\n      jump\t// in\n    tag_439:\n        /* \"#utility.yul\":6152:6224   */\n      tag_440\n        /* \"#utility.yul\":6220:6222   */\n      0x60\n        /* \"#utility.yul\":6209:6218   */\n      dup4\n        /* \"#utility.yul\":6205:6223   */\n      add\n        /* \"#utility.yul\":6196:6202   */\n      dup7\n        /* \"#utility.yul\":6152:6224   */\n      tag_350\n      jump\t// in\n    tag_440:\n        /* \"#utility.yul\":6234:6307   */\n      tag_441\n        /* \"#utility.yul\":6302:6305   */\n      0x80\n        /* \"#utility.yul\":6291:6300   */\n      dup4\n        /* \"#utility.yul\":6287:6306   */\n      add\n        /* \"#utility.yul\":6278:6284   */\n      dup6\n        /* \"#utility.yul\":6234:6307   */\n      tag_350\n      jump\t// in\n    tag_441:\n        /* \"#utility.yul\":6317:6390   */\n      tag_442\n        /* \"#utility.yul\":6385:6388   */\n      0xa0\n        /* \"#utility.yul\":6374:6383   */\n      dup4\n        /* \"#utility.yul\":6370:6389   */\n      add\n        /* \"#utility.yul\":6361:6367   */\n      dup5\n        /* \"#utility.yul\":6317:6390   */\n      tag_350\n      jump\t// in\n    tag_442:\n        /* \"#utility.yul\":5646:6397   */\n      swap8\n      swap7\n      pop\n      pop\n      pop\n      pop\n      pop\n      pop\n      pop\n      jump\t// out\n        /* \"#utility.yul\":6403:7022   */\n    tag_64:\n        /* \"#utility.yul\":6480:6486   */\n      0x00\n        /* \"#utility.yul\":6488:6494   */\n      0x00\n        /* \"#utility.yul\":6496:6502   */\n      0x00\n        /* \"#utility.yul\":6545:6547   */\n      0x60\n        /* \"#utility.yul\":6533:6542   */\n      dup5\n        /* \"#utility.yul\":6524:6531   */\n      dup7\n        /* \"#utility.yul\":6520:6543   */\n      sub\n        /* \"#utility.yul\":6516:6548   */\n      slt\n        /* \"#utility.yul\":6513:6632   */\n      iszero\n      tag_444\n      jumpi\n        /* \"#utility.yul\":6551:6630   */\n      tag_445\n      tag_333\n      jump\t// in\n    tag_445:\n        /* \"#utility.yul\":6513:6632   */\n    tag_444:\n        /* \"#utility.yul\":6671:6672   */\n      0x00\n        /* \"#utility.yul\":6696:6749   */\n      tag_446\n        /* \"#utility.yul\":6741:6748   */\n      dup7\n        /* \"#utility.yul\":6732:6738   */\n      dup3\n        /* \"#utility.yul\":6721:6730   */\n      dup8\n        /* \"#utility.yul\":6717:6739   */\n      add\n        /* \"#utility.yul\":6696:6749   */\n      tag_337\n      jump\t// in\n    tag_446:\n        /* \"#utility.yul\":6686:6749   */\n      swap4\n      pop\n        /* \"#utility.yul\":6642:6759   */\n      pop\n        /* \"#utility.yul\":6798:6800   */\n      0x20\n        /* \"#utility.yul\":6824:6877   */\n      tag_447\n        /* \"#utility.yul\":6869:6876   */\n      dup7\n        /* \"#utility.yul\":6860:6866   */\n      dup3\n        /* \"#utility.yul\":6849:6858   */\n      dup8\n        /* \"#utility.yul\":6845:6867   */\n      add\n        /* \"#utility.yul\":6824:6877   */\n      tag_337\n      jump\t// in\n    tag_447:\n        /* \"#utility.yul\":6814:6877   */\n      swap3\n      pop\n        /* \"#utility.yul\":6769:6887   */\n      pop\n        /* \"#utility.yul\":6926:6928   */\n      0x40\n        /* \"#utility.yul\":6952:7005   */\n      tag_448\n        /* \"#utility.yul\":6997:7004   */\n      dup7\n        /* \"#utility.yul\":6988:6994   */\n      dup3\n        /* \"#utility.yul\":6977:6986   */\n      dup8\n        /* \"#utility.yul\":6973:6995   */\n      add\n        /* \"#utility.yul\":6952:7005   */\n      tag_337\n      jump\t// in\n    tag_448:\n        /* \"#utility.yul\":6942:7005   */\n      swap2\n      pop\n        /* \"#utility.yul\":6897:7015   */\n      pop\n        /* \"#utility.yul\":6403:7022   */\n      swap3\n      pop\n      swap3\n      pop\n      swap3\n      jump\t// out\n        /* \"#utility.yul\":7028:7250   */\n    tag_82:\n        /* \"#utility.yul\":7121:7125   */\n      0x00\n        /* \"#utility.yul\":7159:7161   */\n      0x20\n        /* \"#utility.yul\":7148:7157   */\n      dup3\n        /* \"#utility.yul\":7144:7162   */\n      add\n        /* \"#utility.yul\":7136:7162   */\n      swap1\n      pop\n        /* \"#utility.yul\":7172:7243   */\n      tag_450\n        /* \"#utility.yul\":7240:7241   */\n      0x00\n        /* \"#utility.yul\":7229:7238   */\n      dup4\n        /* \"#utility.yul\":7225:7242   */\n      add\n        /* \"#utility.yul\":7216:7222   */\n      dup5\n        /* \"#utility.yul\":7172:7243   */\n      tag_350\n      jump\t// in\n    tag_450:\n        /* \"#utility.yul\":7028:7250   */\n      swap3\n      swap2\n      pop\n      pop\n      jump\t// out\n        /* \"#utility.yul\":7256:8019   */\n    tag_100:\n        /* \"#utility.yul\":7483:7487   */\n      0x00\n        /* \"#utility.yul\":7521:7524   */\n      0xc0\n        /* \"#utility.yul\":7510:7519   */\n      dup3\n        /* \"#utility.yul\":7506:7525   */\n      add\n        /* \"#utility.yul\":7498:7525   */\n      swap1\n      pop\n        /* \"#utility.yul\":7535:7600   */\n      tag_452\n        /* \"#utility.yul\":7597:7598   */\n      0x00\n        /* \"#utility.yul\":7586:7595   */\n      dup4\n        /* \"#utility.yul\":7582:7599   */\n      add\n        /* \"#utility.yul\":7573:7579   */\n      dup10\n        /* \"#utility.yul\":7535:7600   */\n      tag_344\n      jump\t// in\n    tag_452:\n        /* \"#utility.yul\":7610:7682   */\n      tag_453\n        /* \"#utility.yul\":7678:7680   */\n      0x20\n        /* \"#utility.yul\":7667:7676   */\n      dup4\n        /* \"#utility.yul\":7663:7681   */\n      add\n        /* \"#utility.yul\":7654:7660   */\n      dup9\n        /* \"#utility.yul\":7610:7682   */\n      tag_350\n      jump\t// in\n    tag_453:\n        /* \"#utility.yul\":7692:7764   */\n      tag_454\n        /* \"#utility.yul\":7760:7762   */\n      0x40\n        /* \"#utility.yul\":7749:7758   */\n      dup4\n        /* \"#utility.yul\":7745:7763   */\n      add\n        /* \"#utility.yul\":7736:7742   */\n      dup8\n        /* \"#utility.yul\":7692:7764   */\n      tag_350\n      jump\t// in\n    tag_454:\n        /* \"#utility.yul\":7774:7846   */\n      tag_455\n        /* \"#utility.yul\":7842:7844   */\n      0x60\n        /* \"#utility.yul\":7831:7840   */\n      dup4\n        /* \"#utility.yul\":7827:7845   */\n      add\n        /* \"#utility.yul\":7818:7824   */\n      dup7\n        /* \"#utility.yul\":7774:7846   */\n      tag_350\n      jump\t// in\n    tag_455:\n        /* \"#utility.yul\":7856:7929   */\n      tag_456\n        /* \"#utility.yul\":7924:7927   */\n      0x80\n        /* \"#utility.yul\":7913:7922   */\n      dup4\n        /* \"#utility.yul\":7909:7928   */\n      add\n        /* \"#utility.yul\":7900:7906   */\n      dup6\n        /* \"#utility.yul\":7856:7929   */\n      tag_350\n      jump\t// in\n    tag_456:\n        /* \"#utility.yul\":7939:8012   */\n      tag_457\n        /* \"#utility.yul\":8007:8010   */\n      0xa0\n        /* \"#utility.yul\":7996:8005   */\n      dup4\n        /* \"#utility.yul\":7992:8011   */\n      add\n        /* \"#utility.yul\":7983:7989   */\n      dup5\n        /* \"#utility.yul\":7939:8012   */\n      tag_350\n      jump\t// in\n    tag_457:\n        /* \"#utility.yul\":7256:8019   */\n      swap8\n      swap7\n      pop\n      pop\n      pop\n      pop\n      pop\n      pop\n      pop\n      jump\t// out\n        /* \"#utility.yul\":8025:8499   */\n    tag_106:\n        /* \"#utility.yul\":8093:8099   */\n      0x00\n        /* \"#utility.yul\":8101:8107   */\n      0x00\n        /* \"#utility.yul\":8150:8152   */\n      0x40\n        /* \"#utility.yul\":8138:8147   */\n      dup4\n        /* \"#utility.yul\":8129:8136   */\n      dup6\n        /* \"#utility.yul\":8125:8148   */\n      sub\n        /* \"#utility.yul\":8121:8153   */\n      slt\n        /* \"#utility.yul\":8118:8237   */\n      iszero\n      tag_459\n      jumpi\n        /* \"#utility.yul\":8156:8235   */\n      tag_460\n      tag_333\n      jump\t// in\n    tag_460:\n        /* \"#utility.yul\":8118:8237   */\n    tag_459:\n        /* \"#utility.yul\":8276:8277   */\n      0x00\n        /* \"#utility.yul\":8301:8354   */\n      tag_461\n        /* \"#utility.yul\":8346:8353   */\n      dup6\n        /* \"#utility.yul\":8337:8343   */\n      dup3\n        /* \"#utility.yul\":8326:8335   */\n      dup7\n        /* \"#utility.yul\":8322:8344   */\n      add\n        /* \"#utility.yul\":8301:8354   */\n      tag_337\n      jump\t// in\n    tag_461:\n        /* \"#utility.yul\":8291:8354   */\n      swap3\n      pop\n        /* \"#utility.yul\":8247:8364   */\n      pop\n        /* \"#utility.yul\":8403:8405   */\n      0x20\n        /* \"#utility.yul\":8429:8482   */\n      tag_462\n        /* \"#utility.yul\":8474:8481   */\n      dup6\n        /* \"#utility.yul\":8465:8471   */\n      dup3\n        /* \"#utility.yul\":8454:8463   */\n      dup7\n        /* \"#utility.yul\":8450:8472   */\n      add\n        /* \"#utility.yul\":8429:8482   */\n      tag_342\n      jump\t// in\n    tag_462:\n        /* \"#utility.yul\":8419:8482   */\n      swap2\n      pop\n        /* \"#utility.yul\":8374:8492   */\n      pop\n        /* \"#utility.yul\":8025:8499   */\n      swap3\n      pop\n      swap3\n      swap1\n      pop\n      jump\t// out\n        /* \"#utility.yul\":8505:8685   */\n    tag_112:\n        /* \"#utility.yul\":8553:8630   */\n      0x4e487b7100000000000000000000000000000000000000000000000000000000\n        /* \"#utility.yul\":8550:8551   */\n      0x00\n        /* \"#utility.yul\":8543:8631   */\n      mstore\n        /* \"#utility.yul\":8650:8654   */\n      0x32\n        /* \"#utility.yul\":8647:8648   */\n      0x04\n        /* \"#utility.yul\":8640:8655   */\n      mstore\n        /* \"#utility.yul\":8674:8678   */\n      0x24\n        /* \"#utility.yul\":8671:8672   */\n      0x00\n        /* \"#utility.yul\":8664:8679   */\n      revert\n        /* \"#utility.yul\":8691:8871   */\n    tag_351:\n        /* \"#utility.yul\":8739:8816   */\n      0x4e487b7100000000000000000000000000000000000000000000000000000000\n        /* \"#utility.yul\":8736:8737   */\n      0x00\n        /* \"#utility.yul\":8729:8817   */\n      mstore\n        /* \"#utility.yul\":8836:8840   */\n      0x11\n        /* \"#utility.yul\":8833:8834   */\n      0x04\n        /* \"#utility.yul\":8826:8841   */\n      mstore\n        /* \"#utility.yul\":8860:8864   */\n      0x24\n        /* \"#utility.yul\":8857:8858   */\n      0x00\n        /* \"#utility.yul\":8850:8865   */\n      revert\n        /* \"#utility.yul\":8877:9068   */\n    tag_125:\n        /* \"#utility.yul\":8917:8920   */\n      0x00\n        /* \"#utility.yul\":8936:8956   */\n      tag_466\n        /* \"#utility.yul\":8954:8955   */\n      dup3\n        /* \"#utility.yul\":8936:8956   */\n      tag_335\n      jump\t// in\n    tag_466:\n        /* \"#utility.yul\":8931:8956   */\n      swap2\n      pop\n        /* \"#utility.yul\":8970:8990   */\n      tag_467\n        /* \"#utility.yul\":8988:8989   */\n      dup4\n        /* \"#utility.yul\":8970:8990   */\n      tag_335\n      jump\t// in\n    tag_467:\n        /* \"#utility.yul\":8965:8990   */\n      swap3\n      pop\n        /* \"#utility.yul\":9013:9014   */\n      dup3\n        /* \"#utility.yul\":9010:9011   */\n      dup3\n        /* \"#utility.yul\":9006:9015   */\n      add\n        /* \"#utility.yul\":8999:9015   */\n      swap1\n      pop\n        /* \"#utility.yul\":9034:9037   */\n      dup1\n        /* \"#utility.yul\":9031:9032   */\n      dup3\n        /* \"#utility.yul\":9028:9038   */\n      gt\n        /* \"#utility.yul\":9025:9061   */\n      iszero\n      tag_468\n      jumpi\n        /* \"#utility.yul\":9041:9059   */\n      tag_469\n      tag_351\n      jump\t// in\n    tag_469:\n        /* \"#utility.yul\":9025:9061   */\n    tag_468:\n        /* \"#utility.yul\":8877:9068   */\n      swap3\n      swap2\n      pop\n      pop\n      jump\t// out\n        /* \"#utility.yul\":9074:9484   */\n    tag_128:\n        /* \"#utility.yul\":9114:9121   */\n      0x00\n        /* \"#utility.yul\":9137:9157   */\n      tag_471\n        /* \"#utility.yul\":9155:9156   */\n      dup3\n        /* \"#utility.yul\":9137:9157   */\n      tag_335\n      jump\t// in\n    tag_471:\n        /* \"#utility.yul\":9132:9157   */\n      swap2\n      pop\n        /* \"#utility.yul\":9171:9191   */\n      tag_472\n        /* \"#utility.yul\":9189:9190   */\n      dup4\n        /* \"#utility.yul\":9171:9191   */\n      tag_335\n      jump\t// in\n    tag_472:\n        /* \"#utility.yul\":9166:9191   */\n      swap3\n      pop\n        /* \"#utility.yul\":9226:9227   */\n      dup3\n        /* \"#utility.yul\":9223:9224   */\n      dup3\n        /* \"#utility.yul\":9219:9228   */\n      mul\n        /* \"#utility.yul\":9248:9278   */\n      tag_473\n        /* \"#utility.yul\":9266:9277   */\n      dup2\n        /* \"#utility.yul\":9248:9278   */\n      tag_335\n      jump\t// in\n    tag_473:\n        /* \"#utility.yul\":9237:9278   */\n      swap2\n      pop\n        /* \"#utility.yul\":9427:9428   */\n      dup3\n        /* \"#utility.yul\":9418:9425   */\n      dup3\n        /* \"#utility.yul\":9414:9429   */\n      div\n        /* \"#utility.yul\":9411:9412   */\n      dup5\n        /* \"#utility.yul\":9408:9430   */\n      eq\n        /* \"#utility.yul\":9388:9389   */\n      dup4\n        /* \"#utility.yul\":9381:9390   */\n      iszero\n        /* \"#utility.yul\":9361:9444   */\n      or\n        /* \"#utility.yul\":9338:9477   */\n      tag_474\n      jumpi\n        /* \"#utility.yul\":9457:9475   */\n      tag_475\n      tag_351\n      jump\t// in\n    tag_475:\n        /* \"#utility.yul\":9338:9477   */\n    tag_474:\n        /* \"#utility.yul\":9122:9484   */\n      pop\n        /* \"#utility.yul\":9074:9484   */\n      swap3\n      swap2\n      pop\n      pop\n      jump\t// out\n        /* \"#utility.yul\":9490:9670   */\n    tag_352:\n        /* \"#utility.yul\":9538:9615   */\n      0x4e487b7100000000000000000000000000000000000000000000000000000000\n        /* \"#utility.yul\":9535:9536   */\n      0x00\n        /* \"#utility.yul\":9528:9616   */\n      mstore\n        /* \"#utility.yul\":9635:9639   */\n      0x12\n        /* \"#utility.yul\":9632:9633   */\n      0x04\n        /* \"#utility.yul\":9625:9640   */\n      mstore\n        /* \"#utility.yul\":9659:9663   */\n      0x24\n        /* \"#utility.yul\":9656:9657   */\n      0x00\n        /* \"#utility.yul\":9649:9664   */\n      revert\n        /* \"#utility.yul\":9676:9861   */\n    tag_130:\n        /* \"#utility.yul\":9716:9717   */\n      0x00\n        /* \"#utility.yul\":9733:9753   */\n      tag_478\n        /* \"#utility.yul\":9751:9752   */\n      dup3\n        /* \"#utility.yul\":9733:9753   */\n      tag_335\n      jump\t// in\n    tag_478:\n        /* \"#utility.yul\":9728:9753   */\n      swap2\n      pop\n        /* \"#utility.yul\":9767:9787   */\n      tag_479\n        /* \"#utility.yul\":9785:9786   */\n      dup4\n        /* \"#utility.yul\":9767:9787   */\n      tag_335\n      jump\t// in\n    tag_479:\n        /* \"#utility.yul\":9762:9787   */\n      swap3\n      pop\n        /* \"#utility.yul\":9806:9807   */\n      dup3\n        /* \"#utility.yul\":9796:9831   */\n      tag_480\n      jumpi\n        /* \"#utility.yul\":9811:9829   */\n      tag_481\n      tag_352\n      jump\t// in\n    tag_481:\n        /* \"#utility.yul\":9796:9831   */\n    tag_480:\n        /* \"#utility.yul\":9853:9854   */\n      dup3\n        /* \"#utility.yul\":9850:9851   */\n      dup3\n        /* \"#utility.yul\":9846:9855   */\n      div\n        /* \"#utility.yul\":9841:9855   */\n      swap1\n      pop\n        /* \"#utility.yul\":9676:9861   */\n      swap3\n      swap2\n      pop\n      pop\n      jump\t// out\n        /* \"#utility.yul\":9867:10036   */\n    tag_353:\n        /* \"#utility.yul\":9951:9962   */\n      0x00\n        /* \"#utility.yul\":9985:9991   */\n      dup3\n        /* \"#utility.yul\":9980:9983   */\n      dup3\n        /* \"#utility.yul\":9973:9992   */\n      mstore\n        /* \"#utility.yul\":10025:10029   */\n      0x20\n        /* \"#utility.yul\":10020:10023   */\n      dup3\n        /* \"#utility.yul\":10016:10030   */\n      add\n        /* \"#utility.yul\":10001:10030   */\n      swap1\n      pop\n        /* \"#utility.yul\":9867:10036   */\n      swap3\n      swap2\n      pop\n      pop\n      jump\t// out\n        /* \"#utility.yul\":10042:10209   */\n    tag_354:\n        /* \"#utility.yul\":10182:10201   */\n      0x6e6f7420656e6f75676820416d6f756e74000000000000000000000000000000\n        /* \"#utility.yul\":10178:10179   */\n      0x00\n        /* \"#utility.yul\":10170:10176   */\n      dup3\n        /* \"#utility.yul\":10166:10180   */\n      add\n        /* \"#utility.yul\":10159:10202   */\n      mstore\n        /* \"#utility.yul\":10042:10209   */\n      pop\n      jump\t// out\n        /* \"#utility.yul\":10215:10581   */\n    tag_355:\n        /* \"#utility.yul\":10357:10360   */\n      0x00\n        /* \"#utility.yul\":10378:10445   */\n      tag_485\n        /* \"#utility.yul\":10442:10444   */\n      0x11\n        /* \"#utility.yul\":10437:10440   */\n      dup4\n        /* \"#utility.yul\":10378:10445   */\n      tag_353\n      jump\t// in\n    tag_485:\n        /* \"#utility.yul\":10371:10445   */\n      swap2\n      pop\n        /* \"#utility.yul\":10454:10547   */\n      tag_486\n        /* \"#utility.yul\":10543:10546   */\n      dup3\n        /* \"#utility.yul\":10454:10547   */\n      tag_354\n      jump\t// in\n    tag_486:\n        /* \"#utility.yul\":10572:10574   */\n      0x20\n        /* \"#utility.yul\":10567:10570   */\n      dup3\n        /* \"#utility.yul\":10563:10575   */\n      add\n        /* \"#utility.yul\":10556:10575   */\n      swap1\n      pop\n        /* \"#utility.yul\":10215:10581   */\n      swap2\n      swap1\n      pop\n      jump\t// out\n        /* \"#utility.yul\":10587:11006   */\n    tag_151:\n        /* \"#utility.yul\":10753:10757   */\n      0x00\n        /* \"#utility.yul\":10791:10793   */\n      0x20\n        /* \"#utility.yul\":10780:10789   */\n      dup3\n        /* \"#utility.yul\":10776:10794   */\n      add\n        /* \"#utility.yul\":10768:10794   */\n      swap1\n      pop\n        /* \"#utility.yul\":10840:10849   */\n      dup2\n        /* \"#utility.yul\":10834:10838   */\n      dup2\n        /* \"#utility.yul\":10830:10850   */\n      sub\n        /* \"#utility.yul\":10826:10827   */\n      0x00\n        /* \"#utility.yul\":10815:10824   */\n      dup4\n        /* \"#utility.yul\":10811:10828   */\n      add\n        /* \"#utility.yul\":10804:10851   */\n      mstore\n        /* \"#utility.yul\":10868:10999   */\n      tag_488\n        /* \"#utility.yul\":10994:10998   */\n      dup2\n        /* \"#utility.yul\":10868:10999   */\n      tag_355\n      jump\t// in\n    tag_488:\n        /* \"#utility.yul\":10860:10999   */\n      swap1\n      pop\n        /* \"#utility.yul\":10587:11006   */\n      swap2\n      swap1\n      pop\n      jump\t// out\n        /* \"#utility.yul\":11012:11245   */\n    tag_156:\n        /* \"#utility.yul\":11051:11054   */\n      0x00\n        /* \"#utility.yul\":11074:11098   */\n      tag_490\n        /* \"#utility.yul\":11092:11097   */\n      dup3\n        /* \"#utility.yul\":11074:11098   */\n      tag_335\n      jump\t// in\n    tag_490:\n        /* \"#utility.yul\":11065:11098   */\n      swap2\n      pop\n        /* \"#utility.yul\":11120:11186   */\n      0xffffffffffffffffffffffffffffffffffffffffffffffffffffffffffffffff\n        /* \"#utility.yul\":11113:11118   */\n      dup3\n        /* \"#utility.yul\":11110:11187   */\n      sub\n        /* \"#utility.yul\":11107:11210   */\n      tag_491\n      jumpi\n        /* \"#utility.yul\":11190:11208   */\n      tag_492\n      tag_351\n      jump\t// in\n    tag_492:\n        /* \"#utility.yul\":11107:11210   */\n    tag_491:\n        /* \"#utility.yul\":11237:11238   */\n      0x01\n        /* \"#utility.yul\":11230:11235   */\n      dup3\n        /* \"#utility.yul\":11226:11239   */\n      add\n        /* \"#utility.yul\":11219:11239   */\n      swap1\n      pop\n        /* \"#utility.yul\":11012:11245   */\n      swap2\n      swap1\n      pop\n      jump\t// out\n        /* \"#utility.yul\":11251:11445   */\n    tag_183:\n        /* \"#utility.yul\":11291:11295   */\n      0x00\n        /* \"#utility.yul\":11311:11331   */\n      tag_494\n        /* \"#utility.yul\":11329:11330   */\n      dup3\n        /* \"#utility.yul\":11311:11331   */\n      tag_335\n      jump\t// in\n    tag_494:\n        /* \"#utility.yul\":11306:11331   */\n      swap2\n      pop\n        /* \"#utility.yul\":11345:11365   */\n      tag_495\n        /* \"#utility.yul\":11363:11364   */\n      dup4\n        /* \"#utility.yul\":11345:11365   */\n      tag_335\n      jump\t// in\n    tag_495:\n        /* \"#utility.yul\":11340:11365   */\n      swap3\n      pop\n        /* \"#utility.yul\":11389:11390   */\n      dup3\n        /* \"#utility.yul\":11386:11387   */\n      dup3\n        /* \"#utility.yul\":11382:11391   */\n      sub\n        /* \"#utility.yul\":11374:11391   */\n      swap1\n      pop\n        /* \"#utility.yul\":11413:11414   */\n      dup2\n        /* \"#utility.yul\":11407:11411   */\n      dup2\n        /* \"#utility.yul\":11404:11415   */\n      gt\n        /* \"#utility.yul\":11401:11438   */\n      iszero\n      tag_496\n      jumpi\n        /* \"#utility.yul\":11418:11436   */\n      tag_497\n      tag_351\n      jump\t// in\n    tag_497:\n        /* \"#utility.yul\":11401:11438   */\n    tag_496:\n        /* \"#utility.yul\":11251:11445   */\n      swap3\n      swap2\n      pop\n      pop\n      jump\t// out\n        /* \"#utility.yul\":11451:11594   */\n    tag_356:\n        /* \"#utility.yul\":11508:11513   */\n      0x00\n        /* \"#utility.yul\":11539:11545   */\n      dup2\n        /* \"#utility.yul\":11533:11546   */\n      mload\n        /* \"#utility.yul\":11524:11546   */\n      swap1\n      pop\n        /* \"#utility.yul\":11555:11588   */\n      tag_499\n        /* \"#utility.yul\":11582:11587   */\n      dup2\n        /* \"#utility.yul\":11555:11588   */\n      tag_336\n      jump\t// in\n    tag_499:\n        /* \"#utility.yul\":11451:11594   */\n      swap3\n      swap2\n      pop\n      pop\n      jump\t// out\n        /* \"#utility.yul\":11600:11951   */\n    tag_192:\n        /* \"#utility.yul\":11670:11676   */\n      0x00\n        /* \"#utility.yul\":11719:11721   */\n      0x20\n        /* \"#utility.yul\":11707:11716   */\n      dup3\n        /* \"#utility.yul\":11698:11705   */\n      dup5\n        /* \"#utility.yul\":11694:11717   */\n      sub\n        /* \"#utility.yul\":11690:11722   */\n      slt\n        /* \"#utility.yul\":11687:11806   */\n      iszero\n      tag_501\n      jumpi\n        /* \"#utility.yul\":11725:11804   */\n      tag_502\n      tag_333\n      jump\t// in\n    tag_502:\n        /* \"#utility.yul\":11687:11806   */\n    tag_501:\n        /* \"#utility.yul\":11845:11846   */\n      0x00\n        /* \"#utility.yul\":11870:11934   */\n      tag_503\n        /* \"#utility.yul\":11926:11933   */\n      dup5\n        /* \"#utility.yul\":11917:11923   */\n      dup3\n        /* \"#utility.yul\":11906:11915   */\n      dup6\n        /* \"#utility.yul\":11902:11924   */\n      add\n        /* \"#utility.yul\":11870:11934   */\n      tag_356\n      jump\t// in\n    tag_503:\n        /* \"#utility.yul\":11860:11934   */\n      swap2\n      pop\n        /* \"#utility.yul\":11816:11944   */\n      pop\n        /* \"#utility.yul\":11600:11951   */\n      swap3\n      swap2\n      pop\n      pop\n      jump\t// out\n        /* \"#utility.yul\":11957:12289   */\n    tag_201:\n        /* \"#utility.yul\":12078:12082   */\n      0x00\n        /* \"#utility.yul\":12116:12118   */\n      0x40\n        /* \"#utility.yul\":12105:12114   */\n      dup3\n        /* \"#utility.yul\":12101:12119   */\n      add\n        /* \"#utility.yul\":12093:12119   */\n      swap1\n      pop\n        /* \"#utility.yul\":12129:12200   */\n      tag_505\n        /* \"#utility.yul\":12197:12198   */\n      0x00\n        /* \"#utility.yul\":12186:12195   */\n      dup4\n        /* \"#utility.yul\":12182:12199   */\n      add\n        /* \"#utility.yul\":12173:12179   */\n      dup6\n        /* \"#utility.yul\":12129:12200   */\n      tag_340\n      jump\t// in\n    tag_505:\n        /* \"#utility.yul\":12210:12282   */\n      tag_506\n        /* \"#utility.yul\":12278:12280   */\n      0x20\n        /* \"#utility.yul\":12267:12276   */\n      dup4\n        /* \"#utility.yul\":12263:12281   */\n      add\n        /* \"#utility.yul\":12254:12260   */\n      dup5\n        /* \"#utility.yul\":12210:12282   */\n      tag_350\n      jump\t// in\n    tag_506:\n        /* \"#utility.yul\":11957:12289   */\n      swap4\n      swap3\n      pop\n      pop\n      pop\n      jump\t// out\n        /* \"#utility.yul\":12295:12411   */\n    tag_357:\n        /* \"#utility.yul\":12365:12386   */\n      tag_508\n        /* \"#utility.yul\":12380:12385   */\n      dup2\n        /* \"#utility.yul\":12365:12386   */\n      tag_343\n      jump\t// in\n    tag_508:\n        /* \"#utility.yul\":12358:12363   */\n      dup2\n        /* \"#utility.yul\":12355:12387   */\n      eq\n        /* \"#utility.yul\":12345:12405   */\n      tag_509\n      jumpi\n        /* \"#utility.yul\":12401:12402   */\n      0x00\n        /* \"#utility.yul\":12398:12399   */\n      0x00\n        /* \"#utility.yul\":12391:12403   */\n      revert\n        /* \"#utility.yul\":12345:12405   */\n    tag_509:\n        /* \"#utility.yul\":12295:12411   */\n      pop\n      jump\t// out\n        /* \"#utility.yul\":12417:12554   */\n    tag_358:\n        /* \"#utility.yul\":12471:12476   */\n      0x00\n        /* \"#utility.yul\":12502:12508   */\n      dup2\n        /* \"#utility.yul\":12496:12509   */\n      mload\n        /* \"#utility.yul\":12487:12509   */\n      swap1\n      pop\n        /* \"#utility.yul\":12518:12548   */\n      tag_511\n        /* \"#utility.yul\":12542:12547   */\n      dup2\n        /* \"#utility.yul\":12518:12548   */\n      tag_357\n      jump\t// in\n    tag_511:\n        /* \"#utility.yul\":12417:12554   */\n      swap3\n      swap2\n      pop\n      pop\n      jump\t// out\n        /* \"#utility.yul\":12560:12905   */\n    tag_205:\n        /* \"#utility.yul\":12627:12633   */\n      0x00\n        /* \"#utility.yul\":12676:12678   */\n      0x20\n        /* \"#utility.yul\":12664:12673   */\n      dup3\n        /* \"#utility.yul\":12655:12662   */\n      dup5\n        /* \"#utility.yul\":12651:12674   */\n      sub\n        /* \"#utility.yul\":12647:12679   */\n      slt\n        /* \"#utility.yul\":12644:12763   */\n      iszero\n      tag_513\n      jumpi\n        /* \"#utility.yul\":12682:12761   */\n      tag_514\n      tag_333\n      jump\t// in\n    tag_514:\n        /* \"#utility.yul\":12644:12763   */\n    tag_513:\n        /* \"#utility.yul\":12802:12803   */\n      0x00\n        /* \"#utility.yul\":12827:12888   */\n      tag_515\n        /* \"#utility.yul\":12880:12887   */\n      dup5\n        /* \"#utility.yul\":12871:12877   */\n      dup3\n        /* \"#utility.yul\":12860:12869   */\n      dup6\n        /* \"#utility.yul\":12856:12878   */\n      add\n        /* \"#utility.yul\":12827:12888   */\n      tag_358\n      jump\t// in\n    tag_515:\n        /* \"#utility.yul\":12817:12888   */\n      swap2\n      pop\n        /* \"#utility.yul\":12773:12898   */\n      pop\n        /* \"#utility.yul\":12560:12905   */\n      swap3\n      swap2\n      pop\n      pop\n      jump\t// out\n        /* \"#utility.yul\":12911:13076   */\n    tag_359:\n        /* \"#utility.yul\":13051:13068   */\n      0x5472616e73666572206661696c65640000000000000000000000000000000000\n        /* \"#utility.yul\":13047:13048   */\n      0x00\n        /* \"#utility.yul\":13039:13045   */\n      dup3\n        /* \"#utility.yul\":13035:13049   */\n      add\n        /* \"#utility.yul\":13028:13069   */\n      mstore\n        /* \"#utility.yul\":12911:13076   */\n      pop\n      jump\t// out\n        /* \"#utility.yul\":13082:13448   */\n    tag_360:\n        /* \"#utility.yul\":13224:13227   */\n      0x00\n        /* \"#utility.yul\":13245:13312   */\n      tag_518\n        /* \"#utility.yul\":13309:13311   */\n      0x0f\n        /* \"#utility.yul\":13304:13307   */\n      dup4\n        /* \"#utility.yul\":13245:13312   */\n      tag_353\n      jump\t// in\n    tag_518:\n        /* \"#utility.yul\":13238:13312   */\n      swap2\n      pop\n        /* \"#utility.yul\":13321:13414   */\n      tag_519\n        /* \"#utility.yul\":13410:13413   */\n      dup3\n        /* \"#utility.yul\":13321:13414   */\n      tag_359\n      jump\t// in\n    tag_519:\n        /* \"#utility.yul\":13439:13441   */\n      0x20\n        /* \"#utility.yul\":13434:13437   */\n      dup3\n        /* \"#utility.yul\":13430:13442   */\n      add\n        /* \"#utility.yul\":13423:13442   */\n      swap1\n      pop\n        /* \"#utility.yul\":13082:13448   */\n      swap2\n      swap1\n      pop\n      jump\t// out\n        /* \"#utility.yul\":13454:13873   */\n    tag_208:\n        /* \"#utility.yul\":13620:13624   */\n      0x00\n        /* \"#utility.yul\":13658:13660   */\n      0x20\n        /* \"#utility.yul\":13647:13656   */\n      dup3\n        /* \"#utility.yul\":13643:13661   */\n      add\n        /* \"#utility.yul\":13635:13661   */\n      swap1\n      pop\n        /* \"#utility.yul\":13707:13716   */\n      dup2\n        /* \"#utility.yul\":13701:13705   */\n      dup2\n        /* \"#utility.yul\":13697:13717   */\n      sub\n        /* \"#utility.yul\":13693:13694   */\n      0x00\n        /* \"#utility.yul\":13682:13691   */\n      dup4\n        /* \"#utility.yul\":13678:13695   */\n      add\n        /* \"#utility.yul\":13671:13718   */\n      mstore\n        /* \"#utility.yul\":13735:13866   */\n      tag_521\n        /* \"#utility.yul\":13861:13865   */\n      dup2\n        /* \"#utility.yul\":13735:13866   */\n      tag_360\n      jump\t// in\n    tag_521:\n        /* \"#utility.yul\":13727:13866   */\n      swap1\n      pop\n        /* \"#utility.yul\":13454:13873   */\n      swap2\n      swap1\n      pop\n      jump\t// out\n        /* \"#utility.yul\":13879:14432   */\n    tag_228:\n        /* \"#utility.yul\":14056:14060   */\n      0x00\n        /* \"#utility.yul\":14094:14097   */\n      0x80\n        /* \"#utility.yul\":14083:14092   */\n      dup3\n        /* \"#utility.yul\":14079:14098   */\n      add\n        /* \"#utility.yul\":14071:14098   */\n      swap1\n      pop\n        /* \"#utility.yul\":14108:14179   */\n      tag_523\n        /* \"#utility.yul\":14176:14177   */\n      0x00\n        /* \"#utility.yul\":14165:14174   */\n      dup4\n        /* \"#utility.yul\":14161:14178   */\n      add\n        /* \"#utility.yul\":14152:14158   */\n      dup8\n        /* \"#utility.yul\":14108:14179   */\n      tag_340\n      jump\t// in\n    tag_523:\n        /* \"#utility.yul\":14189:14261   */\n      tag_524\n        /* \"#utility.yul\":14257:14259   */\n      0x20\n        /* \"#utility.yul\":14246:14255   */\n      dup4\n        /* \"#utility.yul\":14242:14260   */\n      add\n        /* \"#utility.yul\":14233:14239   */\n      dup7\n        /* \"#utility.yul\":14189:14261   */\n      tag_350\n      jump\t// in\n    tag_524:\n        /* \"#utility.yul\":14271:14343   */\n      tag_525\n        /* \"#utility.yul\":14339:14341   */\n      0x40\n        /* \"#utility.yul\":14328:14337   */\n      dup4\n        /* \"#utility.yul\":14324:14342   */\n      add\n        /* \"#utility.yul\":14315:14321   */\n      dup6\n        /* \"#utility.yul\":14271:14343   */\n      tag_350\n      jump\t// in\n    tag_525:\n        /* \"#utility.yul\":14353:14425   */\n      tag_526\n        /* \"#utility.yul\":14421:14423   */\n      0x60\n        /* \"#utility.yul\":14410:14419   */\n      dup4\n        /* \"#utility.yul\":14406:14424   */\n      add\n        /* \"#utility.yul\":14397:14403   */\n      dup5\n        /* \"#utility.yul\":14353:14425   */\n      tag_350\n      jump\t// in\n    tag_526:\n        /* \"#utility.yul\":13879:14432   */\n      swap6\n      swap5\n      pop\n      pop\n      pop\n      pop\n      pop\n      jump\t// out\n        /* \"#utility.yul\":14438:14880   */\n    tag_254:\n        /* \"#utility.yul\":14587:14591   */\n      0x00\n        /* \"#utility.yul\":14625:14627   */\n      0x60\n        /* \"#utility.yul\":14614:14623   */\n      dup3\n        /* \"#utility.yul\":14610:14628   */\n      add\n        /* \"#utility.yul\":14602:14628   */\n      swap1\n      pop\n        /* \"#utility.yul\":14638:14709   */\n      tag_528\n        /* \"#utility.yul\":14706:14707   */\n      0x00\n        /* \"#utility.yul\":14695:14704   */\n      dup4\n        /* \"#utility.yul\":14691:14708   */\n      add\n        /* \"#utility.yul\":14682:14688   */\n      dup7\n        /* \"#utility.yul\":14638:14709   */\n      tag_340\n      jump\t// in\n    tag_528:\n        /* \"#utility.yul\":14719:14791   */\n      tag_529\n        /* \"#utility.yul\":14787:14789   */\n      0x20\n        /* \"#utility.yul\":14776:14785   */\n      dup4\n        /* \"#utility.yul\":14772:14790   */\n      add\n        /* \"#utility.yul\":14763:14769   */\n      dup6\n        /* \"#utility.yul\":14719:14791   */\n      tag_340\n      jump\t// in\n    tag_529:\n        /* \"#utility.yul\":14801:14873   */\n      tag_530\n        /* \"#utility.yul\":14869:14871   */\n      0x40\n        /* \"#utility.yul\":14858:14867   */\n      dup4\n        /* \"#utility.yul\":14854:14872   */\n      add\n        /* \"#utility.yul\":14845:14851   */\n      dup5\n        /* \"#utility.yul\":14801:14873   */\n      tag_350\n      jump\t// in\n    tag_530:\n        /* \"#utility.yul\":14438:14880   */\n      swap5\n      swap4\n      pop\n      pop\n      pop\n      pop\n      jump\t// out\n        /* \"#utility.yul\":14886:15068   */\n    tag_361:\n        /* \"#utility.yul\":15026:15060   */\n      0x536861726573206d7573742062652067726561746572207468616e207a65726f\n        /* \"#utility.yul\":15022:15023   */\n      0x00\n        /* \"#utility.yul\":15014:15020   */\n      dup3\n        /* \"#utility.yul\":15010:15024   */\n      add\n        /* \"#utility.yul\":15003:15061   */\n      mstore\n        /* \"#utility.yul\":14886:15068   */\n      pop\n      jump\t// out\n        /* \"#utility.yul\":15074:15440   */\n    tag_362:\n        /* \"#utility.yul\":15216:15219   */\n      0x00\n        /* \"#utility.yul\":15237:15304   */\n      tag_533\n        /* \"#utility.yul\":15301:15303   */\n      0x20\n        /* \"#utility.yul\":15296:15299   */\n      dup4\n        /* \"#utility.yul\":15237:15304   */\n      tag_353\n      jump\t// in\n    tag_533:\n        /* \"#utility.yul\":15230:15304   */\n      swap2\n      pop\n        /* \"#utility.yul\":15313:15406   */\n      tag_534\n        /* \"#utility.yul\":15402:15405   */\n      dup3\n        /* \"#utility.yul\":15313:15406   */\n      tag_361\n      jump\t// in\n    tag_534:\n        /* \"#utility.yul\":15431:15433   */\n      0x20\n        /* \"#utility.yul\":15426:15429   */\n      dup3\n        /* \"#utility.yul\":15422:15434   */\n      add\n        /* \"#utility.yul\":15415:15434   */\n      swap1\n      pop\n        /* \"#utility.yul\":15074:15440   */\n      swap2\n      swap1\n      pop\n      jump\t// out\n        /* \"#utility.yul\":15446:15865   */\n    tag_270:\n        /* \"#utility.yul\":15612:15616   */\n      0x00\n        /* \"#utility.yul\":15650:15652   */\n      0x20\n        /* \"#utility.yul\":15639:15648   */\n      dup3\n        /* \"#utility.yul\":15635:15653   */\n      add\n        /* \"#utility.yul\":15627:15653   */\n      swap1\n      pop\n        /* \"#utility.yul\":15699:15708   */\n      dup2\n        /* \"#utility.yul\":15693:15697   */\n      dup2\n        /* \"#utility.yul\":15689:15709   */\n      sub\n        /* \"#utility.yul\":15685:15686   */\n      0x00\n        /* \"#utility.yul\":15674:15683   */\n      dup4\n        /* \"#utility.yul\":15670:15687   */\n      add\n        /* \"#utility.yul\":15663:15710   */\n      mstore\n        /* \"#utility.yul\":15727:15858   */\n      tag_536\n        /* \"#utility.yul\":15853:15857   */\n      dup2\n        /* \"#utility.yul\":15727:15858   */\n      tag_362\n      jump\t// in\n    tag_536:\n        /* \"#utility.yul\":15719:15858   */\n      swap1\n      pop\n        /* \"#utility.yul\":15446:15865   */\n      swap2\n      swap1\n      pop\n      jump\t// out\n        /* \"#utility.yul\":15871:16042   */\n    tag_363:\n        /* \"#utility.yul\":16011:16034   */\n      0x5f70726963652063616e6e6f74206265207a65726f0000000000000000000000\n        /* \"#utility.yul\":16007:16008   */\n      0x00\n        /* \"#utility.yul\":15999:16005   */\n      dup3\n        /* \"#utility.yul\":15995:16009   */\n      add\n        /* \"#utility.yul\":15988:16035   */\n      mstore\n        /* \"#utility.yul\":15871:16042   */\n      pop\n      jump\t// out\n        /* \"#utility.yul\":16048:16414   */\n    tag_364:\n        /* \"#utility.yul\":16190:16193   */\n      0x00\n        /* \"#utility.yul\":16211:16278   */\n      tag_539\n        /* \"#utility.yul\":16275:16277   */\n      0x15\n        /* \"#utility.yul\":16270:16273   */\n      dup4\n        /* \"#utility.yul\":16211:16278   */\n      tag_353\n      jump\t// in\n    tag_539:\n        /* \"#utility.yul\":16204:16278   */\n      swap2\n      pop\n        /* \"#utility.yul\":16287:16380   */\n      tag_540\n        /* \"#utility.yul\":16376:16379   */\n      dup3\n        /* \"#utility.yul\":16287:16380   */\n      tag_363\n      jump\t// in\n    tag_540:\n        /* \"#utility.yul\":16405:16407   */\n      0x20\n        /* \"#utility.yul\":16400:16403   */\n      dup3\n        /* \"#utility.yul\":16396:16408   */\n      add\n        /* \"#utility.yul\":16389:16408   */\n      swap1\n      pop\n        /* \"#utility.yul\":16048:16414   */\n      swap2\n      swap1\n      pop\n      jump\t// out\n        /* \"#utility.yul\":16420:16839   */\n    tag_283:\n        /* \"#utility.yul\":16586:16590   */\n      0x00\n        /* \"#utility.yul\":16624:16626   */\n      0x20\n        /* \"#utility.yul\":16613:16622   */\n      dup3\n        /* \"#utility.yul\":16609:16627   */\n      add\n        /* \"#utility.yul\":16601:16627   */\n      swap1\n      pop\n        /* \"#utility.yul\":16673:16682   */\n      dup2\n        /* \"#utility.yul\":16667:16671   */\n      dup2\n        /* \"#utility.yul\":16663:16683   */\n      sub\n        /* \"#utility.yul\":16659:16660   */\n      0x00\n        /* \"#utility.yul\":16648:16657   */\n      dup4\n        /* \"#utility.yul\":16644:16661   */\n      add\n        /* \"#utility.yul\":16637:16684   */\n      mstore\n        /* \"#utility.yul\":16701:16832   */\n      tag_542\n        /* \"#utility.yul\":16827:16831   */\n      dup2\n        /* \"#utility.yul\":16701:16832   */\n      tag_364\n      jump\t// in\n    tag_542:\n        /* \"#utility.yul\":16693:16832   */\n      swap1\n      pop\n        /* \"#utility.yul\":16420:16839   */\n      swap2\n      swap1\n      pop\n      jump\t// out\n        /* \"#utility.yul\":16845:17398   */\n    tag_314:\n        /* \"#utility.yul\":17022:17026   */\n      0x00\n        /* \"#utility.yul\":17060:17063   */\n      0x80\n        /* \"#utility.yul\":17049:17058   */\n      dup3\n        /* \"#utility.yul\":17045:17064   */\n      add\n        /* \"#utility.yul\":17037:17064   */\n      swap1\n      pop\n        /* \"#utility.yul\":17074:17145   */\n      tag_544\n        /* \"#utility.yul\":17142:17143   */\n      0x00\n        /* \"#utility.yul\":17131:17140   */\n      dup4\n        /* \"#utility.yul\":17127:17144   */\n      add\n        /* \"#utility.yul\":17118:17124   */\n      dup8\n        /* \"#utility.yul\":17074:17145   */\n      tag_340\n      jump\t// in\n    tag_544:\n        /* \"#utility.yul\":17155:17227   */\n      tag_545\n        /* \"#utility.yul\":17223:17225   */\n      0x20\n        /* \"#utility.yul\":17212:17221   */\n      dup4\n        /* \"#utility.yul\":17208:17226   */\n      add\n        /* \"#utility.yul\":17199:17205   */\n      dup7\n        /* \"#utility.yul\":17155:17227   */\n      tag_340\n      jump\t// in\n    tag_545:\n        /* \"#utility.yul\":17237:17309   */\n      tag_546\n        /* \"#utility.yul\":17305:17307   */\n      0x40\n        /* \"#utility.yul\":17294:17303   */\n      dup4\n        /* \"#utility.yul\":17290:17308   */\n      add\n        /* \"#utility.yul\":17281:17287   */\n      dup6\n        /* \"#utility.yul\":17237:17309   */\n      tag_350\n      jump\t// in\n    tag_546:\n        /* \"#utility.yul\":17319:17391   */\n      tag_547\n        /* \"#utility.yul\":17387:17389   */\n      0x60\n        /* \"#utility.yul\":17376:17385   */\n      dup4\n        /* \"#utility.yul\":17372:17390   */\n      add\n        /* \"#utility.yul\":17363:17369   */\n      dup5\n        /* \"#utility.yul\":17319:17391   */\n      tag_350\n      jump\t// in\n    tag_547:\n        /* \"#utility.yul\":16845:17398   */\n      swap6\n      swap5\n      pop\n      pop\n      pop\n      pop\n      pop\n      jump\t// out\n        /* \"#utility.yul\":17404:17624   */\n    tag_365:\n        /* \"#utility.yul\":17544:17578   */\n      0x5f746f74616c5374616b65416d6f756e742063616e206e6f74206265207a6572\n        /* \"#utility.yul\":17540:17541   */\n      0x00\n        /* \"#utility.yul\":17532:17538   */\n      dup3\n        /* \"#utility.yul\":17528:17542   */\n      add\n        /* \"#utility.yul\":17521:17579   */\n      mstore\n        /* \"#utility.yul\":17613:17616   */\n      0x6f00000000000000000000000000000000000000000000000000000000000000\n        /* \"#utility.yul\":17608:17610   */\n      0x20\n        /* \"#utility.yul\":17600:17606   */\n      dup3\n        /* \"#utility.yul\":17596:17611   */\n      add\n        /* \"#utility.yul\":17589:17617   */\n      mstore\n        /* \"#utility.yul\":17404:17624   */\n      pop\n      jump\t// out\n        /* \"#utility.yul\":17630:17996   */\n    tag_366:\n        /* \"#utility.yul\":17772:17775   */\n      0x00\n        /* \"#utility.yul\":17793:17860   */\n      tag_550\n        /* \"#utility.yul\":17857:17859   */\n      0x21\n        /* \"#utility.yul\":17852:17855   */\n      dup4\n        /* \"#utility.yul\":17793:17860   */\n      tag_353\n      jump\t// in\n    tag_550:\n        /* \"#utility.yul\":17786:17860   */\n      swap2\n      pop\n        /* \"#utility.yul\":17869:17962   */\n      tag_551\n        /* \"#utility.yul\":17958:17961   */\n      dup3\n        /* \"#utility.yul\":17869:17962   */\n      tag_365\n      jump\t// in\n    tag_551:\n        /* \"#utility.yul\":17987:17989   */\n      0x40\n        /* \"#utility.yul\":17982:17985   */\n      dup3\n        /* \"#utility.yul\":17978:17990   */\n      add\n        /* \"#utility.yul\":17971:17990   */\n      swap1\n      pop\n        /* \"#utility.yul\":17630:17996   */\n      swap2\n      swap1\n      pop\n      jump\t// out\n        /* \"#utility.yul\":18002:18421   */\n    tag_318:\n        /* \"#utility.yul\":18168:18172   */\n      0x00\n        /* \"#utility.yul\":18206:18208   */\n      0x20\n        /* \"#utility.yul\":18195:18204   */\n      dup3\n        /* \"#utility.yul\":18191:18209   */\n      add\n        /* \"#utility.yul\":18183:18209   */\n      swap1\n      pop\n        /* \"#utility.yul\":18255:18264   */\n      dup2\n        /* \"#utility.yul\":18249:18253   */\n      dup2\n        /* \"#utility.yul\":18245:18265   */\n      sub\n        /* \"#utility.yul\":18241:18242   */\n      0x00\n        /* \"#utility.yul\":18230:18239   */\n      dup4\n        /* \"#utility.yul\":18226:18243   */\n      add\n        /* \"#utility.yul\":18219:18266   */\n      mstore\n        /* \"#utility.yul\":18283:18414   */\n      tag_553\n        /* \"#utility.yul\":18409:18413   */\n      dup2\n        /* \"#utility.yul\":18283:18414   */\n      tag_366\n      jump\t// in\n    tag_553:\n        /* \"#utility.yul\":18275:18414   */\n      swap1\n      pop\n        /* \"#utility.yul\":18002:18421   */\n      swap2\n      swap1\n      pop\n      jump\t// out\n\n    auxdata: 0xa26469706673582212209aefed792663fc2d384aa59b92f6b0473d3dbf264c5f7a045d5a1043aa6e328164736f6c634300081b0033\n}\n",
				"bytecode": {
					"linkReferences": {},
					"object": "608060405234801561000f575f5ffd5b506040516141963803806141968339818101604052810190610031919061035b565b825f73ffffffffffffffffffffffffffffffffffffffff168173ffffffffffffffffffffffffffffffffffffffff16036100a2575f6040517f1e4fbdf700000000000000000000000000000000000000000000000000000000815260040161009991906103ba565b60405180910390fd5b6100b18161020960201b60201c565b508060065f3073ffffffffffffffffffffffffffffffffffffffff1673ffffffffffffffffffffffffffffffffffffffff1681526020019081526020015f20600101819055506706f05b59d3b2000060065f3073ffffffffffffffffffffffffffffffffffffffff1673ffffffffffffffffffffffffffffffffffffffff1681526020019081526020015f206004015f60028110610152576101516103d3565b5b01819055506706f05b59d3b2000060065f3073ffffffffffffffffffffffffffffffffffffffff1673ffffffffffffffffffffffffffffffffffffffff1681526020019081526020015f206004016001600281106101b3576101b26103d3565b5b01819055508160015f6101000a81548173ffffffffffffffffffffffffffffffffffffffff021916908373ffffffffffffffffffffffffffffffffffffffff1602179055506103e8600381905550505050610400565b5f5f5f9054906101000a900473ffffffffffffffffffffffffffffffffffffffff169050815f5f6101000a81548173ffffffffffffffffffffffffffffffffffffffff021916908373ffffffffffffffffffffffffffffffffffffffff1602179055508173ffffffffffffffffffffffffffffffffffffffff168173ffffffffffffffffffffffffffffffffffffffff167f8be0079c531659141344cd1fd0a4f28419497f9722a3daafe3b4186f6b6457e060405160405180910390a35050565b5f5ffd5b5f73ffffffffffffffffffffffffffffffffffffffff82169050919050565b5f6102f7826102ce565b9050919050565b610307816102ed565b8114610311575f5ffd5b50565b5f81519050610322816102fe565b92915050565b5f819050919050565b61033a81610328565b8114610344575f5ffd5b50565b5f8151905061035581610331565b92915050565b5f5f5f60608486031215610372576103716102ca565b5b5f61037f86828701610314565b935050602061039086828701610314565b92505060406103a186828701610347565b9150509250925092565b6103b4816102ed565b82525050565b5f6020820190506103cd5f8301846103ab565b92915050565b7f4e487b71000000000000000000000000000000000000000000000000000000005f52603260045260245ffd5b613d898061040d5f395ff3fe608060405234801561000f575f5ffd5b506004361061012a575f3560e01c80636ffcc719116100ab578063b677d9d21161006f578063b677d9d214610376578063bff1f9e114610394578063c4351386146103b2578063f2fde38b146103e7578063fbea0b06146104035761012a565b80636ffcc719146102d2578063715018a6146102ee57806384b5aca6146102f85780638da5cb5b14610328578063b3c740e8146103465761012a565b806321d0d9af116100f257806321d0d9af146101ff5780633774ca2514610230578063456e62ba1461026557806361d464ef146102815780636399d03d146102b65761012a565b806308ef962e1461012e5780630efa82f61461015e57806311eac8551461018e5780631959a002146101ac578063208c86a4146101e0575b5f5ffd5b61014860048036038101906101439190613413565b61041f565b604051610155919061347d565b60405180910390f35b610178600480360381019061017391906134c0565b61044f565b6040516101859190613518565b60405180910390f35b6101966104b4565b6040516101a3919061358c565b60405180910390f35b6101c660048036038101906101c191906135a5565b6104d9565b6040516101d79594939291906135df565b60405180910390f35b6101e861050b565b6040516101f6929190613630565b60405180910390f35b61021960048036038101906102149190613657565b6105be565b604051610227929190613630565b60405180910390f35b61024a600480360381019061024591906134c0565b6106fc565b60405161025c96959493929190613695565b60405180910390f35b61027f600480360381019061027a91906136f4565b61092e565b005b61029b600480360381019061029691906134c0565b6110a9565b6040516102ad96959493929190613695565b60405180910390f35b6102d060048036038101906102cb9190613413565b611123565b005b6102ec60048036038101906102e79190613657565b611e85565b005b6102f6612551565b005b610312600480360381019061030d9190613657565b612564565b60405161031f9190613744565b60405180910390f35b61033061261f565b60405161033d919061347d565b60405180910390f35b610360600480360381019061035b9190613657565b612646565b60405161036d9190613744565b60405180910390f35b61037e612706565b60405161038b9190613744565b60405180910390f35b61039c61270c565b6040516103a99190613744565b60405180910390f35b6103cc60048036038101906103c791906135a5565b612712565b6040516103de9695949392919061375d565b60405180910390f35b61040160048036038101906103fc91906135a5565b612756565b005b61041d600480360381019061041891906137bc565b6127da565b005b6004602052805f5260405f205f915054906101000a900473ffffffffffffffffffffffffffffffffffffffff1681565b5f60055f8473ffffffffffffffffffffffffffffffffffffffff1673ffffffffffffffffffffffffffffffffffffffff1681526020019081526020015f206005015f8381526020019081526020015f205f9054906101000a900460ff16905092915050565b60015f9054906101000a900473ffffffffffffffffffffffffffffffffffffffff1681565b6005602052805f5260405f205f91509050805f0154908060010154908060020154908060030154908060040154905085565b5f5f60065f3073ffffffffffffffffffffffffffffffffffffffff1673ffffffffffffffffffffffffffffffffffffffff1681526020019081526020015f206004015f6002811061055f5761055e6137fa565b5b015460065f3073ffffffffffffffffffffffffffffffffffffffff1673ffffffffffffffffffffffffffffffffffffffff1681526020019081526020015f206004016001600281106105b4576105b36137fa565b5b0154915091509091565b5f5f5f60065f3073ffffffffffffffffffffffffffffffffffffffff1673ffffffffffffffffffffffffffffffffffffffff1681526020019081526020015f206004015f60028110610613576106126137fa565b5b015490505f60065f3073ffffffffffffffffffffffffffffffffffffffff1673ffffffffffffffffffffffffffffffffffffffff1681526020019081526020015f2060040160016002811061066b5761066a6137fa565b5b015490505f858761067c9190613854565b90505f87146106b557806064886106939190613887565b61069d91906138f5565b9250662386f26fc10000836106b29190613887565b92505b5f86146106ec57806064876106ca9190613887565b6106d491906138f5565b9150662386f26fc10000826106e99190613887565b91505b8282945094505050509250929050565b5f5f5f5f5f5f60075f8973ffffffffffffffffffffffffffffffffffffffff1673ffffffffffffffffffffffffffffffffffffffff1681526020019081526020015f205f8881526020019081526020015f205f015f9054906101000a900460ff1660075f8a73ffffffffffffffffffffffffffffffffffffffff1673ffffffffffffffffffffffffffffffffffffffff1681526020019081526020015f205f8981526020019081526020015f205f0160019054906101000a900460ff1660075f8b73ffffffffffffffffffffffffffffffffffffffff1673ffffffffffffffffffffffffffffffffffffffff1681526020019081526020015f205f8a81526020019081526020015f205f0160029054906101000a900473ffffffffffffffffffffffffffffffffffffffff1660075f8c73ffffffffffffffffffffffffffffffffffffffff1673ffffffffffffffffffffffffffffffffffffffff1681526020019081526020015f205f8b81526020019081526020015f206001015460075f8d73ffffffffffffffffffffffffffffffffffffffff1673ffffffffffffffffffffffffffffffffffffffff1681526020019081526020015f205f8c81526020019081526020015f206002015460075f8e73ffffffffffffffffffffffffffffffffffffffff1673ffffffffffffffffffffffffffffffffffffffff1681526020019081526020015f205f8d81526020019081526020015f20600301549550955095509550955095509295509295509295565b5f811415801561093f575060018114155b1561098157806040517fd7acbe890000000000000000000000000000000000000000000000000000000081526004016109789190613744565b60405180910390fd5b5f83116109c557826040517f2ff478300000000000000000000000000000000000000000000000000000000081526004016109bc9190613744565b60405180910390fd5b60065f3073ffffffffffffffffffffffffffffffffffffffff1673ffffffffffffffffffffffffffffffffffffffff1681526020019081526020015f205f015f9054906101000a900460ff1615610a48576040517f853fd42100000000000000000000000000000000000000000000000000000000815260040160405180910390fd5b60055f3373ffffffffffffffffffffffffffffffffffffffff1673ffffffffffffffffffffffffffffffffffffffff1681526020019081526020015f206005015f8281526020019081526020015f205f9054906101000a900460ff16610b405760055f3373ffffffffffffffffffffffffffffffffffffffff1673ffffffffffffffffffffffffffffffffffffffff1681526020019081526020015f206005015f8281526020019081526020015f205f9054906101000a900460ff166040517f3c3a3128000000000000000000000000000000000000000000000000000000008152600401610b379190613518565b60405180910390fd5b5f8211610b8457816040517fbfc19482000000000000000000000000000000000000000000000000000000008152600401610b7b9190613744565b60405180910390fd5b5f8103610c135760055f3373ffffffffffffffffffffffffffffffffffffffff1673ffffffffffffffffffffffffffffffffffffffff1681526020019081526020015f2060010154831115610c0e576040517f08c379a0000000000000000000000000000000000000000000000000000000008152600401610c059061397f565b60405180910390fd5b610c97565b60055f3373ffffffffffffffffffffffffffffffffffffffff1673ffffffffffffffffffffffffffffffffffffffff1681526020019081526020015f2060030154831115610c96576040517f08c379a0000000000000000000000000000000000000000000000000000000008152600401610c8d9061397f565b60405180910390fd5b5b60055f3373ffffffffffffffffffffffffffffffffffffffff1673ffffffffffffffffffffffffffffffffffffffff1681526020019081526020015f205f015f815480929190610ce69061399d565b9190505550600160075f3373ffffffffffffffffffffffffffffffffffffffff1673ffffffffffffffffffffffffffffffffffffffff1681526020019081526020015f205f60055f3373ffffffffffffffffffffffffffffffffffffffff1673ffffffffffffffffffffffffffffffffffffffff1681526020019081526020015f205f015481526020019081526020015f205f015f6101000a81548160ff0219169083151502179055508160075f3373ffffffffffffffffffffffffffffffffffffffff1673ffffffffffffffffffffffffffffffffffffffff1681526020019081526020015f205f60055f3373ffffffffffffffffffffffffffffffffffffffff1673ffffffffffffffffffffffffffffffffffffffff1681526020019081526020015f205f015481526020019081526020015f20600101819055508260075f3373ffffffffffffffffffffffffffffffffffffffff1673ffffffffffffffffffffffffffffffffffffffff1681526020019081526020015f205f60055f3373ffffffffffffffffffffffffffffffffffffffff1673ffffffffffffffffffffffffffffffffffffffff1681526020019081526020015f205f015481526020019081526020015f20600201819055503360075f3373ffffffffffffffffffffffffffffffffffffffff1673ffffffffffffffffffffffffffffffffffffffff1681526020019081526020015f205f60055f3373ffffffffffffffffffffffffffffffffffffffff1673ffffffffffffffffffffffffffffffffffffffff1681526020019081526020015f205f015481526020019081526020015f205f0160026101000a81548173ffffffffffffffffffffffffffffffffffffffff021916908373ffffffffffffffffffffffffffffffffffffffff1602179055508060075f3373ffffffffffffffffffffffffffffffffffffffff1673ffffffffffffffffffffffffffffffffffffffff1681526020019081526020015f205f60055f3373ffffffffffffffffffffffffffffffffffffffff1673ffffffffffffffffffffffffffffffffffffffff1681526020019081526020015f205f015481526020019081526020015f20600301819055503373ffffffffffffffffffffffffffffffffffffffff167f578d9bb67ff50e6081576125ad4c2410d6e82de6dbc1a5dcac37f8e5aa9ca4f460055f3373ffffffffffffffffffffffffffffffffffffffff1673ffffffffffffffffffffffffffffffffffffffff1681526020019081526020015f205f01548460405161109c929190613630565b60405180910390a2505050565b6007602052815f5260405f20602052805f5260405f205f9150915050805f015f9054906101000a900460ff1690805f0160019054906101000a900460ff1690805f0160029054906101000a900473ffffffffffffffffffffffffffffffffffffffff16908060010154908060020154908060030154905086565b5f8114158015611134575060018114155b1561117657806040517fd7acbe8900000000000000000000000000000000000000000000000000000000815260040161116d9190613744565b60405180910390fd5b60065f3073ffffffffffffffffffffffffffffffffffffffff1673ffffffffffffffffffffffffffffffffffffffff1681526020019081526020015f205f015f9054906101000a900460ff16156111f9576040517f853fd42100000000000000000000000000000000000000000000000000000000815260040160405180910390fd5b4260065f3073ffffffffffffffffffffffffffffffffffffffff1673ffffffffffffffffffffffffffffffffffffffff1681526020019081526020015f206001015411156112be5760065f3073ffffffffffffffffffffffffffffffffffffffff1673ffffffffffffffffffffffffffffffffffffffff1681526020019081526020015f20600101546040517f79073e7b0000000000000000000000000000000000000000000000000000000081526004016112b59190613744565b60405180910390fd5b5f5f5f90505b6002548110156116cf5760055f60045f8481526020019081526020015f205f9054906101000a900473ffffffffffffffffffffffffffffffffffffffff1673ffffffffffffffffffffffffffffffffffffffff1673ffffffffffffffffffffffffffffffffffffffff1681526020019081526020015f206005015f8481526020019081526020015f205f9054906101000a900460ff16156116c2575f831480156113de57505f60055f60045f8581526020019081526020015f205f9054906101000a900473ffffffffffffffffffffffffffffffffffffffff1673ffffffffffffffffffffffffffffffffffffffff1673ffffffffffffffffffffffffffffffffffffffff1681526020019081526020015f206001015414155b156115545761145d60055f60045f8581526020019081526020015f205f9054906101000a900473ffffffffffffffffffffffffffffffffffffffff1673ffffffffffffffffffffffffffffffffffffffff1673ffffffffffffffffffffffffffffffffffffffff1681526020019081526020015f206001015484612646565b60055f60045f8581526020019081526020015f205f9054906101000a900473ffffffffffffffffffffffffffffffffffffffff1673ffffffffffffffffffffffffffffffffffffffff1673ffffffffffffffffffffffffffffffffffffffff1681526020019081526020015f206004018190555060055f60045f8481526020019081526020015f205f9054906101000a900473ffffffffffffffffffffffffffffffffffffffff1673ffffffffffffffffffffffffffffffffffffffff1673ffffffffffffffffffffffffffffffffffffffff1681526020019081526020015f20600401548261154d9190613854565b91506116c1565b6115ce60055f60045f8581526020019081526020015f205f9054906101000a900473ffffffffffffffffffffffffffffffffffffffff1673ffffffffffffffffffffffffffffffffffffffff1673ffffffffffffffffffffffffffffffffffffffff1681526020019081526020015f206003015484612646565b60055f60045f8581526020019081526020015f205f9054906101000a900473ffffffffffffffffffffffffffffffffffffffff1673ffffffffffffffffffffffffffffffffffffffff1673ffffffffffffffffffffffffffffffffffffffff1681526020019081526020015f206004018190555060055f60045f8481526020019081526020015f205f9054906101000a900473ffffffffffffffffffffffffffffffffffffffff1673ffffffffffffffffffffffffffffffffffffffff1673ffffffffffffffffffffffffffffffffffffffff1681526020019081526020015f2060040154826116be9190613854565b91505b5b80806001019150506112c4565b505f8160065f3073ffffffffffffffffffffffffffffffffffffffff1673ffffffffffffffffffffffffffffffffffffffff1681526020019081526020015f206003015461171d91906138f5565b90505f5f5f90505b600254811015611b875760055f60045f8481526020019081526020015f205f9054906101000a900473ffffffffffffffffffffffffffffffffffffffff1673ffffffffffffffffffffffffffffffffffffffff1673ffffffffffffffffffffffffffffffffffffffff1681526020019081526020015f206005015f8681526020019081526020015f205f9054906101000a900460ff1615611b7a575f8360055f60045f8681526020019081526020015f205f9054906101000a900473ffffffffffffffffffffffffffffffffffffffff1673ffffffffffffffffffffffffffffffffffffffff1673ffffffffffffffffffffffffffffffffffffffff1681526020019081526020015f206004015461183d9190613887565b90505f60055f60045f8681526020019081526020015f205f9054906101000a900473ffffffffffffffffffffffffffffffffffffffff1673ffffffffffffffffffffffffffffffffffffffff1673ffffffffffffffffffffffffffffffffffffffff1681526020019081526020015f2060040154826118bc91906139e4565b90505f6118cb826003546131e2565b905080856118d99190613854565b945080836118e791906139e4565b60015f9054906101000a900473ffffffffffffffffffffffffffffffffffffffff1673ffffffffffffffffffffffffffffffffffffffff166370a08231306040518263ffffffff1660e01b8152600401611941919061347d565b602060405180830381865afa15801561195c573d5f5f3e3d5ffd5b505050506040513d601f19601f820116820180604052508101906119809190613a2b565b1015611a5b5760015f9054906101000a900473ffffffffffffffffffffffffffffffffffffffff1673ffffffffffffffffffffffffffffffffffffffff166370a08231306040518263ffffffff1660e01b81526004016119e0919061347d565b602060405180830381865afa1580156119fb573d5f5f3e3d5ffd5b505050506040513d601f19601f82011682018060405250810190611a1f9190613a2b565b6040517ff9ae0cb4000000000000000000000000000000000000000000000000000000008152600401611a529190613744565b60405180910390fd5b5f60015f9054906101000a900473ffffffffffffffffffffffffffffffffffffffff1673ffffffffffffffffffffffffffffffffffffffff1663a9059cbb60045f8881526020019081526020015f205f9054906101000a900473ffffffffffffffffffffffffffffffffffffffff168487611ad691906139e4565b6040518363ffffffff1660e01b8152600401611af3929190613a56565b6020604051808303815f875af1158015611b0f573d5f5f3e3d5ffd5b505050506040513d601f19601f82011682018060405250810190611b339190613aa7565b905080611b75576040517f08c379a0000000000000000000000000000000000000000000000000000000008152600401611b6c90613b1c565b60405180910390fd5b505050505b8080600101915050611725565b508060015f9054906101000a900473ffffffffffffffffffffffffffffffffffffffff1673ffffffffffffffffffffffffffffffffffffffff166370a08231306040518263ffffffff1660e01b8152600401611be3919061347d565b602060405180830381865afa158015611bfe573d5f5f3e3d5ffd5b505050506040513d601f19601f82011682018060405250810190611c229190613a2b565b1015611cfd5760015f9054906101000a900473ffffffffffffffffffffffffffffffffffffffff1673ffffffffffffffffffffffffffffffffffffffff166370a08231306040518263ffffffff1660e01b8152600401611c82919061347d565b602060405180830381865afa158015611c9d573d5f5f3e3d5ffd5b505050506040513d601f19601f82011682018060405250810190611cc19190613a2b565b6040517fba9c3e4f000000000000000000000000000000000000000000000000000000008152600401611cf49190613744565b60405180910390fd5b600160065f3073ffffffffffffffffffffffffffffffffffffffff1673ffffffffffffffffffffffffffffffffffffffff1681526020019081526020015f205f015f6101000a81548160ff0219169083151502179055505f60015f9054906101000a900473ffffffffffffffffffffffffffffffffffffffff1673ffffffffffffffffffffffffffffffffffffffff1663a9059cbb611d9a61261f565b846040518363ffffffff1660e01b8152600401611db8929190613a56565b6020604051808303815f875af1158015611dd4573d5f5f3e3d5ffd5b505050506040513d601f19601f82011682018060405250810190611df89190613aa7565b905080611e3a576040517f08c379a0000000000000000000000000000000000000000000000000000000008152600401611e3190613b1c565b60405180910390fd5b7f4d21af759c8d2f25c6246594b4cfc2edeb2b901bc0c6e87f5e21c212a12ca1fd611e6361261f565b838588604051611e769493929190613b3a565b60405180910390a15050505050565b5f8114158015611e96575060018114155b15611ed857806040517fd7acbe89000000000000000000000000000000000000000000000000000000008152600401611ecf9190613744565b60405180910390fd5b5f8211611f1c57816040517f2ff47830000000000000000000000000000000000000000000000000000000008152600401611f139190613744565b60405180910390fd5b60065f3073ffffffffffffffffffffffffffffffffffffffff1673ffffffffffffffffffffffffffffffffffffffff1681526020019081526020015f205f015f9054906101000a900460ff1615611f9f576040517f853fd42100000000000000000000000000000000000000000000000000000000815260040160405180910390fd5b60055f3373ffffffffffffffffffffffffffffffffffffffff1673ffffffffffffffffffffffffffffffffffffffff1681526020019081526020015f206005015f8281526020019081526020015f205f9054906101000a900460ff16612068573360045f60025481526020019081526020015f205f6101000a81548173ffffffffffffffffffffffffffffffffffffffff021916908373ffffffffffffffffffffffffffffffffffffffff16021790555060025f8154809291906120629061399d565b91905055505b5f810361211f5760065f3073ffffffffffffffffffffffffffffffffffffffff1673ffffffffffffffffffffffffffffffffffffffff1681526020019081526020015f206007015f8154809291906120bf9061399d565b91905055508160055f3373ffffffffffffffffffffffffffffffffffffffff1673ffffffffffffffffffffffffffffffffffffffff1681526020019081526020015f206001015f8282546121139190613854565b925050819055506121cb565b60065f3073ffffffffffffffffffffffffffffffffffffffff1673ffffffffffffffffffffffffffffffffffffffff1681526020019081526020015f206006015f81548092919061216f9061399d565b91905055508160055f3373ffffffffffffffffffffffffffffffffffffffff1673ffffffffffffffffffffffffffffffffffffffff1681526020019081526020015f206003015f8282546121c39190613854565b925050819055505b8160065f3073ffffffffffffffffffffffffffffffffffffffff1673ffffffffffffffffffffffffffffffffffffffff1681526020019081526020015f206003015f82825461221a9190613854565b9250508190555060065f3073ffffffffffffffffffffffffffffffffffffffff1673ffffffffffffffffffffffffffffffffffffffff1681526020019081526020015f206002015f8154809291906122719061399d565b9190505550600160055f3373ffffffffffffffffffffffffffffffffffffffff1673ffffffffffffffffffffffffffffffffffffffff1681526020019081526020015f206005015f8381526020019081526020015f205f6101000a81548160ff02191690831515021790555061236760065f3073ffffffffffffffffffffffffffffffffffffffff1673ffffffffffffffffffffffffffffffffffffffff1681526020019081526020015f206007015460065f3073ffffffffffffffffffffffffffffffffffffffff1673ffffffffffffffffffffffffffffffffffffffff1681526020019081526020015f20600601546105be565b60065f3073ffffffffffffffffffffffffffffffffffffffff1673ffffffffffffffffffffffffffffffffffffffff1681526020019081526020015f206004015f600281106123b9576123b86137fa565b5b015f60065f3073ffffffffffffffffffffffffffffffffffffffff1673ffffffffffffffffffffffffffffffffffffffff1681526020019081526020015f2060040160016002811061240e5761240d6137fa565b5b015f8491905055839190505550505f60015f9054906101000a900473ffffffffffffffffffffffffffffffffffffffff1673ffffffffffffffffffffffffffffffffffffffff166323b872dd3330866040518463ffffffff1660e01b815260040161247b93929190613b7d565b6020604051808303815f875af1158015612497573d5f5f3e3d5ffd5b505050506040513d601f19601f820116820180604052508101906124bb9190613aa7565b9050806124fd576040517f08c379a00000000000000000000000000000000000000000000000000000000081526004016124f490613b1c565b60405180910390fd5b823373ffffffffffffffffffffffffffffffffffffffff167ff41b7910e085d0992d604fd470931728fd77cc8eb504d99e50e51a0a30fcfd1a846040516125449190613744565b60405180910390a3505050565b61255961328d565b6125625f613314565b565b5f5f83116125a7576040517f08c379a000000000000000000000000000000000000000000000000000000000815260040161259e90613bfc565b60405180910390fd5b5f606460065f3073ffffffffffffffffffffffffffffffffffffffff1673ffffffffffffffffffffffffffffffffffffffff1681526020019081526020015f2060040184600281106125fc576125fb6137fa565b5b0154856126099190613887565b61261391906138f5565b90508091505092915050565b5f5f5f9054906101000a900473ffffffffffffffffffffffffffffffffffffffff16905090565b5f5f60065f3073ffffffffffffffffffffffffffffffffffffffff1673ffffffffffffffffffffffffffffffffffffffff1681526020019081526020015f20600401836002811061269a576126996137fa565b5b015490505f81036126e0576040517f08c379a00000000000000000000000000000000000000000000000000000000081526004016126d790613c64565b60405180910390fd5b5f816064866126ef9190613887565b6126f991906138f5565b9050809250505092915050565b60035481565b60025481565b6006602052805f5260405f205f91509050805f015f9054906101000a900460ff16908060010154908060020154908060030154908060060154908060070154905086565b61275e61328d565b5f73ffffffffffffffffffffffffffffffffffffffff168173ffffffffffffffffffffffffffffffffffffffff16036127ce575f6040517f1e4fbdf70000000000000000000000000000000000000000000000000000000081526004016127c5919061347d565b60405180910390fd5b6127d781613314565b50565b60075f8273ffffffffffffffffffffffffffffffffffffffff1673ffffffffffffffffffffffffffffffffffffffff1681526020019081526020015f205f8381526020019081526020015f205f015f9054906101000a900460ff1661287657816040517f1599706800000000000000000000000000000000000000000000000000000000815260040161286d9190613744565b60405180910390fd5b60075f8273ffffffffffffffffffffffffffffffffffffffff1673ffffffffffffffffffffffffffffffffffffffff1681526020019081526020015f205f8381526020019081526020015f205f0160019054906101000a900460ff161561296f5760075f8273ffffffffffffffffffffffffffffffffffffffff1673ffffffffffffffffffffffffffffffffffffffff1681526020019081526020015f205f8381526020019081526020015f205f0160019054906101000a900460ff166040517fca1c6eb30000000000000000000000000000000000000000000000000000000081526004016129669190613518565b60405180910390fd5b60065f3073ffffffffffffffffffffffffffffffffffffffff1673ffffffffffffffffffffffffffffffffffffffff1681526020019081526020015f205f015f9054906101000a900460ff16156129f2576040517f853fd42100000000000000000000000000000000000000000000000000000000815260040160405180910390fd5b8073ffffffffffffffffffffffffffffffffffffffff1660075f8373ffffffffffffffffffffffffffffffffffffffff1673ffffffffffffffffffffffffffffffffffffffff1681526020019081526020015f205f8481526020019081526020015f205f0160029054906101000a900473ffffffffffffffffffffffffffffffffffffffff1673ffffffffffffffffffffffffffffffffffffffff1614612ad057806040517ff6b79c58000000000000000000000000000000000000000000000000000000008152600401612ac7919061347d565b60405180910390fd5b600160075f8373ffffffffffffffffffffffffffffffffffffffff1673ffffffffffffffffffffffffffffffffffffffff1681526020019081526020015f205f8481526020019081526020015f205f0160016101000a81548160ff0219169083151502179055503360075f8373ffffffffffffffffffffffffffffffffffffffff1673ffffffffffffffffffffffffffffffffffffffff1681526020019081526020015f205f8481526020019081526020015f205f0160026101000a81548173ffffffffffffffffffffffffffffffffffffffff021916908373ffffffffffffffffffffffffffffffffffffffff1602179055505f60075f8373ffffffffffffffffffffffffffffffffffffffff1673ffffffffffffffffffffffffffffffffffffffff1681526020019081526020015f205f8481526020019081526020015f206003015403612d695760075f8273ffffffffffffffffffffffffffffffffffffffff1673ffffffffffffffffffffffffffffffffffffffff1681526020019081526020015f205f8381526020019081526020015f206002015460055f3373ffffffffffffffffffffffffffffffffffffffff1673ffffffffffffffffffffffffffffffffffffffff1681526020019081526020015f206001015f828254612cb89190613854565b9250508190555060075f8273ffffffffffffffffffffffffffffffffffffffff1673ffffffffffffffffffffffffffffffffffffffff1681526020019081526020015f205f8381526020019081526020015f206002015460055f8373ffffffffffffffffffffffffffffffffffffffff1673ffffffffffffffffffffffffffffffffffffffff1681526020019081526020015f206001015f828254612d5d91906139e4565b92505081905550612eb4565b60075f8273ffffffffffffffffffffffffffffffffffffffff1673ffffffffffffffffffffffffffffffffffffffff1681526020019081526020015f205f8381526020019081526020015f206002015460055f8373ffffffffffffffffffffffffffffffffffffffff1673ffffffffffffffffffffffffffffffffffffffff1681526020019081526020015f206003015f828254612e0791906139e4565b9250508190555060075f8273ffffffffffffffffffffffffffffffffffffffff1673ffffffffffffffffffffffffffffffffffffffff1681526020019081526020015f205f8381526020019081526020015f206002015460055f3373ffffffffffffffffffffffffffffffffffffffff1673ffffffffffffffffffffffffffffffffffffffff1681526020019081526020015f206003015f828254612eac9190613854565b925050819055505b600160055f3373ffffffffffffffffffffffffffffffffffffffff1673ffffffffffffffffffffffffffffffffffffffff1681526020019081526020015f206005015f60075f8573ffffffffffffffffffffffffffffffffffffffff1673ffffffffffffffffffffffffffffffffffffffff1681526020019081526020015f205f8681526020019081526020015f206003015481526020019081526020015f205f6101000a81548160ff0219169083151502179055503360045f60025481526020019081526020015f205f6101000a81548173ffffffffffffffffffffffffffffffffffffffff021916908373ffffffffffffffffffffffffffffffffffffffff16021790555060025f815480929190612fcd9061399d565b91905055505f60015f9054906101000a900473ffffffffffffffffffffffffffffffffffffffff1673ffffffffffffffffffffffffffffffffffffffff166323b872dd338460075f8773ffffffffffffffffffffffffffffffffffffffff1673ffffffffffffffffffffffffffffffffffffffff1681526020019081526020015f205f8881526020019081526020015f20600101546040518463ffffffff1660e01b815260040161308093929190613b7d565b6020604051808303815f875af115801561309c573d5f5f3e3d5ffd5b505050506040513d601f19601f820116820180604052508101906130c09190613aa7565b905080613102576040517f08c379a00000000000000000000000000000000000000000000000000000000081526004016130f990613b1c565b60405180910390fd5b7fc891adf8dfbf643a02668e73c35bbbb3c8aa9d86e0dc779d260026cfc0ab8b99338360075f8673ffffffffffffffffffffffffffffffffffffffff1673ffffffffffffffffffffffffffffffffffffffff1681526020019081526020015f205f8781526020019081526020015f206002015460075f8773ffffffffffffffffffffffffffffffffffffffff1673ffffffffffffffffffffffffffffffffffffffff1681526020019081526020015f205f8881526020019081526020015f20600101546040516131d59493929190613c82565b60405180910390a1505050565b5f5f8303613225576040517f08c379a000000000000000000000000000000000000000000000000000000000815260040161321c90613d35565b60405180910390fd5b5f8203613267576040517f08c379a000000000000000000000000000000000000000000000000000000000815260040161325e90613d35565b60405180910390fd5b5f61271083856132779190613887565b61328191906138f5565b90508091505092915050565b6132956133d5565b73ffffffffffffffffffffffffffffffffffffffff166132b361261f565b73ffffffffffffffffffffffffffffffffffffffff1614613312576132d66133d5565b6040517f118cdaa7000000000000000000000000000000000000000000000000000000008152600401613309919061347d565b60405180910390fd5b565b5f5f5f9054906101000a900473ffffffffffffffffffffffffffffffffffffffff169050815f5f6101000a81548173ffffffffffffffffffffffffffffffffffffffff021916908373ffffffffffffffffffffffffffffffffffffffff1602179055508173ffffffffffffffffffffffffffffffffffffffff168173ffffffffffffffffffffffffffffffffffffffff167f8be0079c531659141344cd1fd0a4f28419497f9722a3daafe3b4186f6b6457e060405160405180910390a35050565b5f33905090565b5f5ffd5b5f819050919050565b6133f2816133e0565b81146133fc575f5ffd5b50565b5f8135905061340d816133e9565b92915050565b5f60208284031215613428576134276133dc565b5b5f613435848285016133ff565b91505092915050565b5f73ffffffffffffffffffffffffffffffffffffffff82169050919050565b5f6134678261343e565b9050919050565b6134778161345d565b82525050565b5f6020820190506134905f83018461346e565b92915050565b61349f8161345d565b81146134a9575f5ffd5b50565b5f813590506134ba81613496565b92915050565b5f5f604083850312156134d6576134d56133dc565b5b5f6134e3858286016134ac565b92505060206134f4858286016133ff565b9150509250929050565b5f8115159050919050565b613512816134fe565b82525050565b5f60208201905061352b5f830184613509565b92915050565b5f819050919050565b5f61355461354f61354a8461343e565b613531565b61343e565b9050919050565b5f6135658261353a565b9050919050565b5f6135768261355b565b9050919050565b6135868161356c565b82525050565b5f60208201905061359f5f83018461357d565b92915050565b5f602082840312156135ba576135b96133dc565b5b5f6135c7848285016134ac565b91505092915050565b6135d9816133e0565b82525050565b5f60a0820190506135f25f8301886135d0565b6135ff60208301876135d0565b61360c60408301866135d0565b61361960608301856135d0565b61362660808301846135d0565b9695505050505050565b5f6040820190506136435f8301856135d0565b61365060208301846135d0565b9392505050565b5f5f6040838503121561366d5761366c6133dc565b5b5f61367a858286016133ff565b925050602061368b858286016133ff565b9150509250929050565b5f60c0820190506136a85f830189613509565b6136b56020830188613509565b6136c2604083018761346e565b6136cf60608301866135d0565b6136dc60808301856135d0565b6136e960a08301846135d0565b979650505050505050565b5f5f5f6060848603121561370b5761370a6133dc565b5b5f613718868287016133ff565b9350506020613729868287016133ff565b925050604061373a868287016133ff565b9150509250925092565b5f6020820190506137575f8301846135d0565b92915050565b5f60c0820190506137705f830189613509565b61377d60208301886135d0565b61378a60408301876135d0565b61379760608301866135d0565b6137a460808301856135d0565b6137b160a08301846135d0565b979650505050505050565b5f5f604083850312156137d2576137d16133dc565b5b5f6137df858286016133ff565b92505060206137f0858286016134ac565b9150509250929050565b7f4e487b71000000000000000000000000000000000000000000000000000000005f52603260045260245ffd5b7f4e487b71000000000000000000000000000000000000000000000000000000005f52601160045260245ffd5b5f61385e826133e0565b9150613869836133e0565b925082820190508082111561388157613880613827565b5b92915050565b5f613891826133e0565b915061389c836133e0565b92508282026138aa816133e0565b915082820484148315176138c1576138c0613827565b5b5092915050565b7f4e487b71000000000000000000000000000000000000000000000000000000005f52601260045260245ffd5b5f6138ff826133e0565b915061390a836133e0565b92508261391a576139196138c8565b5b828204905092915050565b5f82825260208201905092915050565b7f6e6f7420656e6f75676820416d6f756e740000000000000000000000000000005f82015250565b5f613969601183613925565b915061397482613935565b602082019050919050565b5f6020820190508181035f8301526139968161395d565b9050919050565b5f6139a7826133e0565b91507fffffffffffffffffffffffffffffffffffffffffffffffffffffffffffffffff82036139d9576139d8613827565b5b600182019050919050565b5f6139ee826133e0565b91506139f9836133e0565b9250828203905081811115613a1157613a10613827565b5b92915050565b5f81519050613a25816133e9565b92915050565b5f60208284031215613a4057613a3f6133dc565b5b5f613a4d84828501613a17565b91505092915050565b5f604082019050613a695f83018561346e565b613a7660208301846135d0565b9392505050565b613a86816134fe565b8114613a90575f5ffd5b50565b5f81519050613aa181613a7d565b92915050565b5f60208284031215613abc57613abb6133dc565b5b5f613ac984828501613a93565b91505092915050565b7f5472616e73666572206661696c656400000000000000000000000000000000005f82015250565b5f613b06600f83613925565b9150613b1182613ad2565b602082019050919050565b5f6020820190508181035f830152613b3381613afa565b9050919050565b5f608082019050613b4d5f83018761346e565b613b5a60208301866135d0565b613b6760408301856135d0565b613b7460608301846135d0565b95945050505050565b5f606082019050613b905f83018661346e565b613b9d602083018561346e565b613baa60408301846135d0565b949350505050565b7f536861726573206d7573742062652067726561746572207468616e207a65726f5f82015250565b5f613be6602083613925565b9150613bf182613bb2565b602082019050919050565b5f6020820190508181035f830152613c1381613bda565b9050919050565b7f5f70726963652063616e6e6f74206265207a65726f00000000000000000000005f82015250565b5f613c4e601583613925565b9150613c5982613c1a565b602082019050919050565b5f6020820190508181035f830152613c7b81613c42565b9050919050565b5f608082019050613c955f83018761346e565b613ca2602083018661346e565b613caf60408301856135d0565b613cbc60608301846135d0565b95945050505050565b7f5f746f74616c5374616b65416d6f756e742063616e206e6f74206265207a65725f8201527f6f00000000000000000000000000000000000000000000000000000000000000602082015250565b5f613d1f602183613925565b9150613d2a82613cc5565b604082019050919050565b5f6020820190508181035f830152613d4c81613d13565b905091905056fea26469706673582212209aefed792663fc2d384aa59b92f6b0473d3dbf264c5f7a045d5a1043aa6e328164736f6c634300081b0033",
					"opcodes": "PUSH1 0x80 PUSH1 0x40 MSTORE CALLVALUE DUP1 ISZERO PUSH2 0xF JUMPI PUSH0 PUSH0 REVERT JUMPDEST POP PUSH1 0x40 MLOAD PUSH2 0x4196 CODESIZE SUB DUP1 PUSH2 0x4196 DUP4 CODECOPY DUP2 DUP2 ADD PUSH1 0x40 MSTORE DUP2 ADD SWAP1 PUSH2 0x31 SWAP2 SWAP1 PUSH2 0x35B JUMP JUMPDEST DUP3 PUSH0 PUSH20 0xFFFFFFFFFFFFFFFFFFFFFFFFFFFFFFFFFFFFFFFF AND DUP2 PUSH20 0xFFFFFFFFFFFFFFFFFFFFFFFFFFFFFFFFFFFFFFFF AND SUB PUSH2 0xA2 JUMPI PUSH0 PUSH1 0x40 MLOAD PUSH32 0x1E4FBDF700000000000000000000000000000000000000000000000000000000 DUP2 MSTORE PUSH1 0x4 ADD PUSH2 0x99 SWAP2 SWAP1 PUSH2 0x3BA JUMP JUMPDEST PUSH1 0x40 MLOAD DUP1 SWAP2 SUB SWAP1 REVERT JUMPDEST PUSH2 0xB1 DUP2 PUSH2 0x209 PUSH1 0x20 SHL PUSH1 0x20 SHR JUMP JUMPDEST POP DUP1 PUSH1 0x6 PUSH0 ADDRESS PUSH20 0xFFFFFFFFFFFFFFFFFFFFFFFFFFFFFFFFFFFFFFFF AND PUSH20 0xFFFFFFFFFFFFFFFFFFFFFFFFFFFFFFFFFFFFFFFF AND DUP2 MSTORE PUSH1 0x20 ADD SWAP1 DUP2 MSTORE PUSH1 0x20 ADD PUSH0 KECCAK256 PUSH1 0x1 ADD DUP2 SWAP1 SSTORE POP PUSH8 0x6F05B59D3B20000 PUSH1 0x6 PUSH0 ADDRESS PUSH20 0xFFFFFFFFFFFFFFFFFFFFFFFFFFFFFFFFFFFFFFFF AND PUSH20 0xFFFFFFFFFFFFFFFFFFFFFFFFFFFFFFFFFFFFFFFF AND DUP2 MSTORE PUSH1 0x20 ADD SWAP1 DUP2 MSTORE PUSH1 0x20 ADD PUSH0 KECCAK256 PUSH1 0x4 ADD PUSH0 PUSH1 0x2 DUP2 LT PUSH2 0x152 JUMPI PUSH2 0x151 PUSH2 0x3D3 JUMP JUMPDEST JUMPDEST ADD DUP2 SWAP1 SSTORE POP PUSH8 0x6F05B59D3B20000 PUSH1 0x6 PUSH0 ADDRESS PUSH20 0xFFFFFFFFFFFFFFFFFFFFFFFFFFFFFFFFFFFFFFFF AND PUSH20 0xFFFFFFFFFFFFFFFFFFFFFFFFFFFFFFFFFFFFFFFF AND DUP2 MSTORE PUSH1 0x20 ADD SWAP1 DUP2 MSTORE PUSH1 0x20 ADD PUSH0 KECCAK256 PUSH1 0x4 ADD PUSH1 0x1 PUSH1 0x2 DUP2 LT PUSH2 0x1B3 JUMPI PUSH2 0x1B2 PUSH2 0x3D3 JUMP JUMPDEST JUMPDEST ADD DUP2 SWAP1 SSTORE POP DUP2 PUSH1 0x1 PUSH0 PUSH2 0x100 EXP DUP2 SLOAD DUP2 PUSH20 0xFFFFFFFFFFFFFFFFFFFFFFFFFFFFFFFFFFFFFFFF MUL NOT AND SWAP1 DUP4 PUSH20 0xFFFFFFFFFFFFFFFFFFFFFFFFFFFFFFFFFFFFFFFF AND MUL OR SWAP1 SSTORE POP PUSH2 0x3E8 PUSH1 0x3 DUP2 SWAP1 SSTORE POP POP POP POP PUSH2 0x400 JUMP JUMPDEST PUSH0 PUSH0 PUSH0 SWAP1 SLOAD SWAP1 PUSH2 0x100 EXP SWAP1 DIV PUSH20 0xFFFFFFFFFFFFFFFFFFFFFFFFFFFFFFFFFFFFFFFF AND SWAP1 POP DUP2 PUSH0 PUSH0 PUSH2 0x100 EXP DUP2 SLOAD DUP2 PUSH20 0xFFFFFFFFFFFFFFFFFFFFFFFFFFFFFFFFFFFFFFFF MUL NOT AND SWAP1 DUP4 PUSH20 0xFFFFFFFFFFFFFFFFFFFFFFFFFFFFFFFFFFFFFFFF AND MUL OR SWAP1 SSTORE POP DUP2 PUSH20 0xFFFFFFFFFFFFFFFFFFFFFFFFFFFFFFFFFFFFFFFF AND DUP2 PUSH20 0xFFFFFFFFFFFFFFFFFFFFFFFFFFFFFFFFFFFFFFFF AND PUSH32 0x8BE0079C531659141344CD1FD0A4F28419497F9722A3DAAFE3B4186F6B6457E0 PUSH1 0x40 MLOAD PUSH1 0x40 MLOAD DUP1 SWAP2 SUB SWAP1 LOG3 POP POP JUMP JUMPDEST PUSH0 PUSH0 REVERT JUMPDEST PUSH0 PUSH20 0xFFFFFFFFFFFFFFFFFFFFFFFFFFFFFFFFFFFFFFFF DUP3 AND SWAP1 POP SWAP2 SWAP1 POP JUMP JUMPDEST PUSH0 PUSH2 0x2F7 DUP3 PUSH2 0x2CE JUMP JUMPDEST SWAP1 POP SWAP2 SWAP1 POP JUMP JUMPDEST PUSH2 0x307 DUP2 PUSH2 0x2ED JUMP JUMPDEST DUP2 EQ PUSH2 0x311 JUMPI PUSH0 PUSH0 REVERT JUMPDEST POP JUMP JUMPDEST PUSH0 DUP2 MLOAD SWAP1 POP PUSH2 0x322 DUP2 PUSH2 0x2FE JUMP JUMPDEST SWAP3 SWAP2 POP POP JUMP JUMPDEST PUSH0 DUP2 SWAP1 POP SWAP2 SWAP1 POP JUMP JUMPDEST PUSH2 0x33A DUP2 PUSH2 0x328 JUMP JUMPDEST DUP2 EQ PUSH2 0x344 JUMPI PUSH0 PUSH0 REVERT JUMPDEST POP JUMP JUMPDEST PUSH0 DUP2 MLOAD SWAP1 POP PUSH2 0x355 DUP2 PUSH2 0x331 JUMP JUMPDEST SWAP3 SWAP2 POP POP JUMP JUMPDEST PUSH0 PUSH0 PUSH0 PUSH1 0x60 DUP5 DUP7 SUB SLT ISZERO PUSH2 0x372 JUMPI PUSH2 0x371 PUSH2 0x2CA JUMP JUMPDEST JUMPDEST PUSH0 PUSH2 0x37F DUP7 DUP3 DUP8 ADD PUSH2 0x314 JUMP JUMPDEST SWAP4 POP POP PUSH1 0x20 PUSH2 0x390 DUP7 DUP3 DUP8 ADD PUSH2 0x314 JUMP JUMPDEST SWAP3 POP POP PUSH1 0x40 PUSH2 0x3A1 DUP7 DUP3 DUP8 ADD PUSH2 0x347 JUMP JUMPDEST SWAP2 POP POP SWAP3 POP SWAP3 POP SWAP3 JUMP JUMPDEST PUSH2 0x3B4 DUP2 PUSH2 0x2ED JUMP JUMPDEST DUP3 MSTORE POP POP JUMP JUMPDEST PUSH0 PUSH1 0x20 DUP3 ADD SWAP1 POP PUSH2 0x3CD PUSH0 DUP4 ADD DUP5 PUSH2 0x3AB JUMP JUMPDEST SWAP3 SWAP2 POP POP JUMP JUMPDEST PUSH32 0x4E487B7100000000000000000000000000000000000000000000000000000000 PUSH0 MSTORE PUSH1 0x32 PUSH1 0x4 MSTORE PUSH1 0x24 PUSH0 REVERT JUMPDEST PUSH2 0x3D89 DUP1 PUSH2 0x40D PUSH0 CODECOPY PUSH0 RETURN INVALID PUSH1 0x80 PUSH1 0x40 MSTORE CALLVALUE DUP1 ISZERO PUSH2 0xF JUMPI PUSH0 PUSH0 REVERT JUMPDEST POP PUSH1 0x4 CALLDATASIZE LT PUSH2 0x12A JUMPI PUSH0 CALLDATALOAD PUSH1 0xE0 SHR DUP1 PUSH4 0x6FFCC719 GT PUSH2 0xAB JUMPI DUP1 PUSH4 0xB677D9D2 GT PUSH2 0x6F JUMPI DUP1 PUSH4 0xB677D9D2 EQ PUSH2 0x376 JUMPI DUP1 PUSH4 0xBFF1F9E1 EQ PUSH2 0x394 JUMPI DUP1 PUSH4 0xC4351386 EQ PUSH2 0x3B2 JUMPI DUP1 PUSH4 0xF2FDE38B EQ PUSH2 0x3E7 JUMPI DUP1 PUSH4 0xFBEA0B06 EQ PUSH2 0x403 JUMPI PUSH2 0x12A JUMP JUMPDEST DUP1 PUSH4 0x6FFCC719 EQ PUSH2 0x2D2 JUMPI DUP1 PUSH4 0x715018A6 EQ PUSH2 0x2EE JUMPI DUP1 PUSH4 0x84B5ACA6 EQ PUSH2 0x2F8 JUMPI DUP1 PUSH4 0x8DA5CB5B EQ PUSH2 0x328 JUMPI DUP1 PUSH4 0xB3C740E8 EQ PUSH2 0x346 JUMPI PUSH2 0x12A JUMP JUMPDEST DUP1 PUSH4 0x21D0D9AF GT PUSH2 0xF2 JUMPI DUP1 PUSH4 0x21D0D9AF EQ PUSH2 0x1FF JUMPI DUP1 PUSH4 0x3774CA25 EQ PUSH2 0x230 JUMPI DUP1 PUSH4 0x456E62BA EQ PUSH2 0x265 JUMPI DUP1 PUSH4 0x61D464EF EQ PUSH2 0x281 JUMPI DUP1 PUSH4 0x6399D03D EQ PUSH2 0x2B6 JUMPI PUSH2 0x12A JUMP JUMPDEST DUP1 PUSH4 0x8EF962E EQ PUSH2 0x12E JUMPI DUP1 PUSH4 0xEFA82F6 EQ PUSH2 0x15E JUMPI DUP1 PUSH4 0x11EAC855 EQ PUSH2 0x18E JUMPI DUP1 PUSH4 0x1959A002 EQ PUSH2 0x1AC JUMPI DUP1 PUSH4 0x208C86A4 EQ PUSH2 0x1E0 JUMPI JUMPDEST PUSH0 PUSH0 REVERT JUMPDEST PUSH2 0x148 PUSH1 0x4 DUP1 CALLDATASIZE SUB DUP2 ADD SWAP1 PUSH2 0x143 SWAP2 SWAP1 PUSH2 0x3413 JUMP JUMPDEST PUSH2 0x41F JUMP JUMPDEST PUSH1 0x40 MLOAD PUSH2 0x155 SWAP2 SWAP1 PUSH2 0x347D JUMP JUMPDEST PUSH1 0x40 MLOAD DUP1 SWAP2 SUB SWAP1 RETURN JUMPDEST PUSH2 0x178 PUSH1 0x4 DUP1 CALLDATASIZE SUB DUP2 ADD SWAP1 PUSH2 0x173 SWAP2 SWAP1 PUSH2 0x34C0 JUMP JUMPDEST PUSH2 0x44F JUMP JUMPDEST PUSH1 0x40 MLOAD PUSH2 0x185 SWAP2 SWAP1 PUSH2 0x3518 JUMP JUMPDEST PUSH1 0x40 MLOAD DUP1 SWAP2 SUB SWAP1 RETURN JUMPDEST PUSH2 0x196 PUSH2 0x4B4 JUMP JUMPDEST PUSH1 0x40 MLOAD PUSH2 0x1A3 SWAP2 SWAP1 PUSH2 0x358C JUMP JUMPDEST PUSH1 0x40 MLOAD DUP1 SWAP2 SUB SWAP1 RETURN JUMPDEST PUSH2 0x1C6 PUSH1 0x4 DUP1 CALLDATASIZE SUB DUP2 ADD SWAP1 PUSH2 0x1C1 SWAP2 SWAP1 PUSH2 0x35A5 JUMP JUMPDEST PUSH2 0x4D9 JUMP JUMPDEST PUSH1 0x40 MLOAD PUSH2 0x1D7 SWAP6 SWAP5 SWAP4 SWAP3 SWAP2 SWAP1 PUSH2 0x35DF JUMP JUMPDEST PUSH1 0x40 MLOAD DUP1 SWAP2 SUB SWAP1 RETURN JUMPDEST PUSH2 0x1E8 PUSH2 0x50B JUMP JUMPDEST PUSH1 0x40 MLOAD PUSH2 0x1F6 SWAP3 SWAP2 SWAP1 PUSH2 0x3630 JUMP JUMPDEST PUSH1 0x40 MLOAD DUP1 SWAP2 SUB SWAP1 RETURN JUMPDEST PUSH2 0x219 PUSH1 0x4 DUP1 CALLDATASIZE SUB DUP2 ADD SWAP1 PUSH2 0x214 SWAP2 SWAP1 PUSH2 0x3657 JUMP JUMPDEST PUSH2 0x5BE JUMP JUMPDEST PUSH1 0x40 MLOAD PUSH2 0x227 SWAP3 SWAP2 SWAP1 PUSH2 0x3630 JUMP JUMPDEST PUSH1 0x40 MLOAD DUP1 SWAP2 SUB SWAP1 RETURN JUMPDEST PUSH2 0x24A PUSH1 0x4 DUP1 CALLDATASIZE SUB DUP2 ADD SWAP1 PUSH2 0x245 SWAP2 SWAP1 PUSH2 0x34C0 JUMP JUMPDEST PUSH2 0x6FC JUMP JUMPDEST PUSH1 0x40 MLOAD PUSH2 0x25C SWAP7 SWAP6 SWAP5 SWAP4 SWAP3 SWAP2 SWAP1 PUSH2 0x3695 JUMP JUMPDEST PUSH1 0x40 MLOAD DUP1 SWAP2 SUB SWAP1 RETURN JUMPDEST PUSH2 0x27F PUSH1 0x4 DUP1 CALLDATASIZE SUB DUP2 ADD SWAP1 PUSH2 0x27A SWAP2 SWAP1 PUSH2 0x36F4 JUMP JUMPDEST PUSH2 0x92E JUMP JUMPDEST STOP JUMPDEST PUSH2 0x29B PUSH1 0x4 DUP1 CALLDATASIZE SUB DUP2 ADD SWAP1 PUSH2 0x296 SWAP2 SWAP1 PUSH2 0x34C0 JUMP JUMPDEST PUSH2 0x10A9 JUMP JUMPDEST PUSH1 0x40 MLOAD PUSH2 0x2AD SWAP7 SWAP6 SWAP5 SWAP4 SWAP3 SWAP2 SWAP1 PUSH2 0x3695 JUMP JUMPDEST PUSH1 0x40 MLOAD DUP1 SWAP2 SUB SWAP1 RETURN JUMPDEST PUSH2 0x2D0 PUSH1 0x4 DUP1 CALLDATASIZE SUB DUP2 ADD SWAP1 PUSH2 0x2CB SWAP2 SWAP1 PUSH2 0x3413 JUMP JUMPDEST PUSH2 0x1123 JUMP JUMPDEST STOP JUMPDEST PUSH2 0x2EC PUSH1 0x4 DUP1 CALLDATASIZE SUB DUP2 ADD SWAP1 PUSH2 0x2E7 SWAP2 SWAP1 PUSH2 0x3657 JUMP JUMPDEST PUSH2 0x1E85 JUMP JUMPDEST STOP JUMPDEST PUSH2 0x2F6 PUSH2 0x2551 JUMP JUMPDEST STOP JUMPDEST PUSH2 0x312 PUSH1 0x4 DUP1 CALLDATASIZE SUB DUP2 ADD SWAP1 PUSH2 0x30D SWAP2 SWAP1 PUSH2 0x3657 JUMP JUMPDEST PUSH2 0x2564 JUMP JUMPDEST PUSH1 0x40 MLOAD PUSH2 0x31F SWAP2 SWAP1 PUSH2 0x3744 JUMP JUMPDEST PUSH1 0x40 MLOAD DUP1 SWAP2 SUB SWAP1 RETURN JUMPDEST PUSH2 0x330 PUSH2 0x261F JUMP JUMPDEST PUSH1 0x40 MLOAD PUSH2 0x33D SWAP2 SWAP1 PUSH2 0x347D JUMP JUMPDEST PUSH1 0x40 MLOAD DUP1 SWAP2 SUB SWAP1 RETURN JUMPDEST PUSH2 0x360 PUSH1 0x4 DUP1 CALLDATASIZE SUB DUP2 ADD SWAP1 PUSH2 0x35B SWAP2 SWAP1 PUSH2 0x3657 JUMP JUMPDEST PUSH2 0x2646 JUMP JUMPDEST PUSH1 0x40 MLOAD PUSH2 0x36D SWAP2 SWAP1 PUSH2 0x3744 JUMP JUMPDEST PUSH1 0x40 MLOAD DUP1 SWAP2 SUB SWAP1 RETURN JUMPDEST PUSH2 0x37E PUSH2 0x2706 JUMP JUMPDEST PUSH1 0x40 MLOAD PUSH2 0x38B SWAP2 SWAP1 PUSH2 0x3744 JUMP JUMPDEST PUSH1 0x40 MLOAD DUP1 SWAP2 SUB SWAP1 RETURN JUMPDEST PUSH2 0x39C PUSH2 0x270C JUMP JUMPDEST PUSH1 0x40 MLOAD PUSH2 0x3A9 SWAP2 SWAP1 PUSH2 0x3744 JUMP JUMPDEST PUSH1 0x40 MLOAD DUP1 SWAP2 SUB SWAP1 RETURN JUMPDEST PUSH2 0x3CC PUSH1 0x4 DUP1 CALLDATASIZE SUB DUP2 ADD SWAP1 PUSH2 0x3C7 SWAP2 SWAP1 PUSH2 0x35A5 JUMP JUMPDEST PUSH2 0x2712 JUMP JUMPDEST PUSH1 0x40 MLOAD PUSH2 0x3DE SWAP7 SWAP6 SWAP5 SWAP4 SWAP3 SWAP2 SWAP1 PUSH2 0x375D JUMP JUMPDEST PUSH1 0x40 MLOAD DUP1 SWAP2 SUB SWAP1 RETURN JUMPDEST PUSH2 0x401 PUSH1 0x4 DUP1 CALLDATASIZE SUB DUP2 ADD SWAP1 PUSH2 0x3FC SWAP2 SWAP1 PUSH2 0x35A5 JUMP JUMPDEST PUSH2 0x2756 JUMP JUMPDEST STOP JUMPDEST PUSH2 0x41D PUSH1 0x4 DUP1 CALLDATASIZE SUB DUP2 ADD SWAP1 PUSH2 0x418 SWAP2 SWAP1 PUSH2 0x37BC JUMP JUMPDEST PUSH2 0x27DA JUMP JUMPDEST STOP JUMPDEST PUSH1 0x4 PUSH1 0x20 MSTORE DUP1 PUSH0 MSTORE PUSH1 0x40 PUSH0 KECCAK256 PUSH0 SWAP2 POP SLOAD SWAP1 PUSH2 0x100 EXP SWAP1 DIV PUSH20 0xFFFFFFFFFFFFFFFFFFFFFFFFFFFFFFFFFFFFFFFF AND DUP2 JUMP JUMPDEST PUSH0 PUSH1 0x5 PUSH0 DUP5 PUSH20 0xFFFFFFFFFFFFFFFFFFFFFFFFFFFFFFFFFFFFFFFF AND PUSH20 0xFFFFFFFFFFFFFFFFFFFFFFFFFFFFFFFFFFFFFFFF AND DUP2 MSTORE PUSH1 0x20 ADD SWAP1 DUP2 MSTORE PUSH1 0x20 ADD PUSH0 KECCAK256 PUSH1 0x5 ADD PUSH0 DUP4 DUP2 MSTORE PUSH1 0x20 ADD SWAP1 DUP2 MSTORE PUSH1 0x20 ADD PUSH0 KECCAK256 PUSH0 SWAP1 SLOAD SWAP1 PUSH2 0x100 EXP SWAP1 DIV PUSH1 0xFF AND SWAP1 POP SWAP3 SWAP2 POP POP JUMP JUMPDEST PUSH1 0x1 PUSH0 SWAP1 SLOAD SWAP1 PUSH2 0x100 EXP SWAP1 DIV PUSH20 0xFFFFFFFFFFFFFFFFFFFFFFFFFFFFFFFFFFFFFFFF AND DUP2 JUMP JUMPDEST PUSH1 0x5 PUSH1 0x20 MSTORE DUP1 PUSH0 MSTORE PUSH1 0x40 PUSH0 KECCAK256 PUSH0 SWAP2 POP SWAP1 POP DUP1 PUSH0 ADD SLOAD SWAP1 DUP1 PUSH1 0x1 ADD SLOAD SWAP1 DUP1 PUSH1 0x2 ADD SLOAD SWAP1 DUP1 PUSH1 0x3 ADD SLOAD SWAP1 DUP1 PUSH1 0x4 ADD SLOAD SWAP1 POP DUP6 JUMP JUMPDEST PUSH0 PUSH0 PUSH1 0x6 PUSH0 ADDRESS PUSH20 0xFFFFFFFFFFFFFFFFFFFFFFFFFFFFFFFFFFFFFFFF AND PUSH20 0xFFFFFFFFFFFFFFFFFFFFFFFFFFFFFFFFFFFFFFFF AND DUP2 MSTORE PUSH1 0x20 ADD SWAP1 DUP2 MSTORE PUSH1 0x20 ADD PUSH0 KECCAK256 PUSH1 0x4 ADD PUSH0 PUSH1 0x2 DUP2 LT PUSH2 0x55F JUMPI PUSH2 0x55E PUSH2 0x37FA JUMP JUMPDEST JUMPDEST ADD SLOAD PUSH1 0x6 PUSH0 ADDRESS PUSH20 0xFFFFFFFFFFFFFFFFFFFFFFFFFFFFFFFFFFFFFFFF AND PUSH20 0xFFFFFFFFFFFFFFFFFFFFFFFFFFFFFFFFFFFFFFFF AND DUP2 MSTORE PUSH1 0x20 ADD SWAP1 DUP2 MSTORE PUSH1 0x20 ADD PUSH0 KECCAK256 PUSH1 0x4 ADD PUSH1 0x1 PUSH1 0x2 DUP2 LT PUSH2 0x5B4 JUMPI PUSH2 0x5B3 PUSH2 0x37FA JUMP JUMPDEST JUMPDEST ADD SLOAD SWAP2 POP SWAP2 POP SWAP1 SWAP2 JUMP JUMPDEST PUSH0 PUSH0 PUSH0 PUSH1 0x6 PUSH0 ADDRESS PUSH20 0xFFFFFFFFFFFFFFFFFFFFFFFFFFFFFFFFFFFFFFFF AND PUSH20 0xFFFFFFFFFFFFFFFFFFFFFFFFFFFFFFFFFFFFFFFF AND DUP2 MSTORE PUSH1 0x20 ADD SWAP1 DUP2 MSTORE PUSH1 0x20 ADD PUSH0 KECCAK256 PUSH1 0x4 ADD PUSH0 PUSH1 0x2 DUP2 LT PUSH2 0x613 JUMPI PUSH2 0x612 PUSH2 0x37FA JUMP JUMPDEST JUMPDEST ADD SLOAD SWAP1 POP PUSH0 PUSH1 0x6 PUSH0 ADDRESS PUSH20 0xFFFFFFFFFFFFFFFFFFFFFFFFFFFFFFFFFFFFFFFF AND PUSH20 0xFFFFFFFFFFFFFFFFFFFFFFFFFFFFFFFFFFFFFFFF AND DUP2 MSTORE PUSH1 0x20 ADD SWAP1 DUP2 MSTORE PUSH1 0x20 ADD PUSH0 KECCAK256 PUSH1 0x4 ADD PUSH1 0x1 PUSH1 0x2 DUP2 LT PUSH2 0x66B JUMPI PUSH2 0x66A PUSH2 0x37FA JUMP JUMPDEST JUMPDEST ADD SLOAD SWAP1 POP PUSH0 DUP6 DUP8 PUSH2 0x67C SWAP2 SWAP1 PUSH2 0x3854 JUMP JUMPDEST SWAP1 POP PUSH0 DUP8 EQ PUSH2 0x6B5 JUMPI DUP1 PUSH1 0x64 DUP9 PUSH2 0x693 SWAP2 SWAP1 PUSH2 0x3887 JUMP JUMPDEST PUSH2 0x69D SWAP2 SWAP1 PUSH2 0x38F5 JUMP JUMPDEST SWAP3 POP PUSH7 0x2386F26FC10000 DUP4 PUSH2 0x6B2 SWAP2 SWAP1 PUSH2 0x3887 JUMP JUMPDEST SWAP3 POP JUMPDEST PUSH0 DUP7 EQ PUSH2 0x6EC JUMPI DUP1 PUSH1 0x64 DUP8 PUSH2 0x6CA SWAP2 SWAP1 PUSH2 0x3887 JUMP JUMPDEST PUSH2 0x6D4 SWAP2 SWAP1 PUSH2 0x38F5 JUMP JUMPDEST SWAP2 POP PUSH7 0x2386F26FC10000 DUP3 PUSH2 0x6E9 SWAP2 SWAP1 PUSH2 0x3887 JUMP JUMPDEST SWAP2 POP JUMPDEST DUP3 DUP3 SWAP5 POP SWAP5 POP POP POP POP SWAP3 POP SWAP3 SWAP1 POP JUMP JUMPDEST PUSH0 PUSH0 PUSH0 PUSH0 PUSH0 PUSH0 PUSH1 0x7 PUSH0 DUP10 PUSH20 0xFFFFFFFFFFFFFFFFFFFFFFFFFFFFFFFFFFFFFFFF AND PUSH20 0xFFFFFFFFFFFFFFFFFFFFFFFFFFFFFFFFFFFFFFFF AND DUP2 MSTORE PUSH1 0x20 ADD SWAP1 DUP2 MSTORE PUSH1 0x20 ADD PUSH0 KECCAK256 PUSH0 DUP9 DUP2 MSTORE PUSH1 0x20 ADD SWAP1 DUP2 MSTORE PUSH1 0x20 ADD PUSH0 KECCAK256 PUSH0 ADD PUSH0 SWAP1 SLOAD SWAP1 PUSH2 0x100 EXP SWAP1 DIV PUSH1 0xFF AND PUSH1 0x7 PUSH0 DUP11 PUSH20 0xFFFFFFFFFFFFFFFFFFFFFFFFFFFFFFFFFFFFFFFF AND PUSH20 0xFFFFFFFFFFFFFFFFFFFFFFFFFFFFFFFFFFFFFFFF AND DUP2 MSTORE PUSH1 0x20 ADD SWAP1 DUP2 MSTORE PUSH1 0x20 ADD PUSH0 KECCAK256 PUSH0 DUP10 DUP2 MSTORE PUSH1 0x20 ADD SWAP1 DUP2 MSTORE PUSH1 0x20 ADD PUSH0 KECCAK256 PUSH0 ADD PUSH1 0x1 SWAP1 SLOAD SWAP1 PUSH2 0x100 EXP SWAP1 DIV PUSH1 0xFF AND PUSH1 0x7 PUSH0 DUP12 PUSH20 0xFFFFFFFFFFFFFFFFFFFFFFFFFFFFFFFFFFFFFFFF AND PUSH20 0xFFFFFFFFFFFFFFFFFFFFFFFFFFFFFFFFFFFFFFFF AND DUP2 MSTORE PUSH1 0x20 ADD SWAP1 DUP2 MSTORE PUSH1 0x20 ADD PUSH0 KECCAK256 PUSH0 DUP11 DUP2 MSTORE PUSH1 0x20 ADD SWAP1 DUP2 MSTORE PUSH1 0x20 ADD PUSH0 KECCAK256 PUSH0 ADD PUSH1 0x2 SWAP1 SLOAD SWAP1 PUSH2 0x100 EXP SWAP1 DIV PUSH20 0xFFFFFFFFFFFFFFFFFFFFFFFFFFFFFFFFFFFFFFFF AND PUSH1 0x7 PUSH0 DUP13 PUSH20 0xFFFFFFFFFFFFFFFFFFFFFFFFFFFFFFFFFFFFFFFF AND PUSH20 0xFFFFFFFFFFFFFFFFFFFFFFFFFFFFFFFFFFFFFFFF AND DUP2 MSTORE PUSH1 0x20 ADD SWAP1 DUP2 MSTORE PUSH1 0x20 ADD PUSH0 KECCAK256 PUSH0 DUP12 DUP2 MSTORE PUSH1 0x20 ADD SWAP1 DUP2 MSTORE PUSH1 0x20 ADD PUSH0 KECCAK256 PUSH1 0x1 ADD SLOAD PUSH1 0x7 PUSH0 DUP14 PUSH20 0xFFFFFFFFFFFFFFFFFFFFFFFFFFFFFFFFFFFFFFFF AND PUSH20 0xFFFFFFFFFFFFFFFFFFFFFFFFFFFFFFFFFFFFFFFF AND DUP2 MSTORE PUSH1 0x20 ADD SWAP1 DUP2 MSTORE PUSH1 0x20 ADD PUSH0 KECCAK256 PUSH0 DUP13 DUP2 MSTORE PUSH1 0x20 ADD SWAP1 DUP2 MSTORE PUSH1 0x20 ADD PUSH0 KECCAK256 PUSH1 0x2 ADD SLOAD PUSH1 0x7 PUSH0 DUP15 PUSH20 0xFFFFFFFFFFFFFFFFFFFFFFFFFFFFFFFFFFFFFFFF AND PUSH20 0xFFFFFFFFFFFFFFFFFFFFFFFFFFFFFFFFFFFFFFFF AND DUP2 MSTORE PUSH1 0x20 ADD SWAP1 DUP2 MSTORE PUSH1 0x20 ADD PUSH0 KECCAK256 PUSH0 DUP14 DUP2 MSTORE PUSH1 0x20 ADD SWAP1 DUP2 MSTORE PUSH1 0x20 ADD PUSH0 KECCAK256 PUSH1 0x3 ADD SLOAD SWAP6 POP SWAP6 POP SWAP6 POP SWAP6 POP SWAP6 POP SWAP6 POP SWAP3 SWAP6 POP SWAP3 SWAP6 POP SWAP3 SWAP6 JUMP JUMPDEST PUSH0 DUP2 EQ ISZERO DUP1 ISZERO PUSH2 0x93F JUMPI POP PUSH1 0x1 DUP2 EQ ISZERO JUMPDEST ISZERO PUSH2 0x981 JUMPI DUP1 PUSH1 0x40 MLOAD PUSH32 0xD7ACBE8900000000000000000000000000000000000000000000000000000000 DUP2 MSTORE PUSH1 0x4 ADD PUSH2 0x978 SWAP2 SWAP1 PUSH2 0x3744 JUMP JUMPDEST PUSH1 0x40 MLOAD DUP1 SWAP2 SUB SWAP1 REVERT JUMPDEST PUSH0 DUP4 GT PUSH2 0x9C5 JUMPI DUP3 PUSH1 0x40 MLOAD PUSH32 0x2FF4783000000000000000000000000000000000000000000000000000000000 DUP2 MSTORE PUSH1 0x4 ADD PUSH2 0x9BC SWAP2 SWAP1 PUSH2 0x3744 JUMP JUMPDEST PUSH1 0x40 MLOAD DUP1 SWAP2 SUB SWAP1 REVERT JUMPDEST PUSH1 0x6 PUSH0 ADDRESS PUSH20 0xFFFFFFFFFFFFFFFFFFFFFFFFFFFFFFFFFFFFFFFF AND PUSH20 0xFFFFFFFFFFFFFFFFFFFFFFFFFFFFFFFFFFFFFFFF AND DUP2 MSTORE PUSH1 0x20 ADD SWAP1 DUP2 MSTORE PUSH1 0x20 ADD PUSH0 KECCAK256 PUSH0 ADD PUSH0 SWAP1 SLOAD SWAP1 PUSH2 0x100 EXP SWAP1 DIV PUSH1 0xFF AND ISZERO PUSH2 0xA48 JUMPI PUSH1 0x40 MLOAD PUSH32 0x853FD42100000000000000000000000000000000000000000000000000000000 DUP2 MSTORE PUSH1 0x4 ADD PUSH1 0x40 MLOAD DUP1 SWAP2 SUB SWAP1 REVERT JUMPDEST PUSH1 0x5 PUSH0 CALLER PUSH20 0xFFFFFFFFFFFFFFFFFFFFFFFFFFFFFFFFFFFFFFFF AND PUSH20 0xFFFFFFFFFFFFFFFFFFFFFFFFFFFFFFFFFFFFFFFF AND DUP2 MSTORE PUSH1 0x20 ADD SWAP1 DUP2 MSTORE PUSH1 0x20 ADD PUSH0 KECCAK256 PUSH1 0x5 ADD PUSH0 DUP3 DUP2 MSTORE PUSH1 0x20 ADD SWAP1 DUP2 MSTORE PUSH1 0x20 ADD PUSH0 KECCAK256 PUSH0 SWAP1 SLOAD SWAP1 PUSH2 0x100 EXP SWAP1 DIV PUSH1 0xFF AND PUSH2 0xB40 JUMPI PUSH1 0x5 PUSH0 CALLER PUSH20 0xFFFFFFFFFFFFFFFFFFFFFFFFFFFFFFFFFFFFFFFF AND PUSH20 0xFFFFFFFFFFFFFFFFFFFFFFFFFFFFFFFFFFFFFFFF AND DUP2 MSTORE PUSH1 0x20 ADD SWAP1 DUP2 MSTORE PUSH1 0x20 ADD PUSH0 KECCAK256 PUSH1 0x5 ADD PUSH0 DUP3 DUP2 MSTORE PUSH1 0x20 ADD SWAP1 DUP2 MSTORE PUSH1 0x20 ADD PUSH0 KECCAK256 PUSH0 SWAP1 SLOAD SWAP1 PUSH2 0x100 EXP SWAP1 DIV PUSH1 0xFF AND PUSH1 0x40 MLOAD PUSH32 0x3C3A312800000000000000000000000000000000000000000000000000000000 DUP2 MSTORE PUSH1 0x4 ADD PUSH2 0xB37 SWAP2 SWAP1 PUSH2 0x3518 JUMP JUMPDEST PUSH1 0x40 MLOAD DUP1 SWAP2 SUB SWAP1 REVERT JUMPDEST PUSH0 DUP3 GT PUSH2 0xB84 JUMPI DUP2 PUSH1 0x40 MLOAD PUSH32 0xBFC1948200000000000000000000000000000000000000000000000000000000 DUP2 MSTORE PUSH1 0x4 ADD PUSH2 0xB7B SWAP2 SWAP1 PUSH2 0x3744 JUMP JUMPDEST PUSH1 0x40 MLOAD DUP1 SWAP2 SUB SWAP1 REVERT JUMPDEST PUSH0 DUP2 SUB PUSH2 0xC13 JUMPI PUSH1 0x5 PUSH0 CALLER PUSH20 0xFFFFFFFFFFFFFFFFFFFFFFFFFFFFFFFFFFFFFFFF AND PUSH20 0xFFFFFFFFFFFFFFFFFFFFFFFFFFFFFFFFFFFFFFFF AND DUP2 MSTORE PUSH1 0x20 ADD SWAP1 DUP2 MSTORE PUSH1 0x20 ADD PUSH0 KECCAK256 PUSH1 0x1 ADD SLOAD DUP4 GT ISZERO PUSH2 0xC0E JUMPI PUSH1 0x40 MLOAD PUSH32 0x8C379A000000000000000000000000000000000000000000000000000000000 DUP2 MSTORE PUSH1 0x4 ADD PUSH2 0xC05 SWAP1 PUSH2 0x397F JUMP JUMPDEST PUSH1 0x40 MLOAD DUP1 SWAP2 SUB SWAP1 REVERT JUMPDEST PUSH2 0xC97 JUMP JUMPDEST PUSH1 0x5 PUSH0 CALLER PUSH20 0xFFFFFFFFFFFFFFFFFFFFFFFFFFFFFFFFFFFFFFFF AND PUSH20 0xFFFFFFFFFFFFFFFFFFFFFFFFFFFFFFFFFFFFFFFF AND DUP2 MSTORE PUSH1 0x20 ADD SWAP1 DUP2 MSTORE PUSH1 0x20 ADD PUSH0 KECCAK256 PUSH1 0x3 ADD SLOAD DUP4 GT ISZERO PUSH2 0xC96 JUMPI PUSH1 0x40 MLOAD PUSH32 0x8C379A000000000000000000000000000000000000000000000000000000000 DUP2 MSTORE PUSH1 0x4 ADD PUSH2 0xC8D SWAP1 PUSH2 0x397F JUMP JUMPDEST PUSH1 0x40 MLOAD DUP1 SWAP2 SUB SWAP1 REVERT JUMPDEST JUMPDEST PUSH1 0x5 PUSH0 CALLER PUSH20 0xFFFFFFFFFFFFFFFFFFFFFFFFFFFFFFFFFFFFFFFF AND PUSH20 0xFFFFFFFFFFFFFFFFFFFFFFFFFFFFFFFFFFFFFFFF AND DUP2 MSTORE PUSH1 0x20 ADD SWAP1 DUP2 MSTORE PUSH1 0x20 ADD PUSH0 KECCAK256 PUSH0 ADD PUSH0 DUP2 SLOAD DUP1 SWAP3 SWAP2 SWAP1 PUSH2 0xCE6 SWAP1 PUSH2 0x399D JUMP JUMPDEST SWAP2 SWAP1 POP SSTORE POP PUSH1 0x1 PUSH1 0x7 PUSH0 CALLER PUSH20 0xFFFFFFFFFFFFFFFFFFFFFFFFFFFFFFFFFFFFFFFF AND PUSH20 0xFFFFFFFFFFFFFFFFFFFFFFFFFFFFFFFFFFFFFFFF AND DUP2 MSTORE PUSH1 0x20 ADD SWAP1 DUP2 MSTORE PUSH1 0x20 ADD PUSH0 KECCAK256 PUSH0 PUSH1 0x5 PUSH0 CALLER PUSH20 0xFFFFFFFFFFFFFFFFFFFFFFFFFFFFFFFFFFFFFFFF AND PUSH20 0xFFFFFFFFFFFFFFFFFFFFFFFFFFFFFFFFFFFFFFFF AND DUP2 MSTORE PUSH1 0x20 ADD SWAP1 DUP2 MSTORE PUSH1 0x20 ADD PUSH0 KECCAK256 PUSH0 ADD SLOAD DUP2 MSTORE PUSH1 0x20 ADD SWAP1 DUP2 MSTORE PUSH1 0x20 ADD PUSH0 KECCAK256 PUSH0 ADD PUSH0 PUSH2 0x100 EXP DUP2 SLOAD DUP2 PUSH1 0xFF MUL NOT AND SWAP1 DUP4 ISZERO ISZERO MUL OR SWAP1 SSTORE POP DUP2 PUSH1 0x7 PUSH0 CALLER PUSH20 0xFFFFFFFFFFFFFFFFFFFFFFFFFFFFFFFFFFFFFFFF AND PUSH20 0xFFFFFFFFFFFFFFFFFFFFFFFFFFFFFFFFFFFFFFFF AND DUP2 MSTORE PUSH1 0x20 ADD SWAP1 DUP2 MSTORE PUSH1 0x20 ADD PUSH0 KECCAK256 PUSH0 PUSH1 0x5 PUSH0 CALLER PUSH20 0xFFFFFFFFFFFFFFFFFFFFFFFFFFFFFFFFFFFFFFFF AND PUSH20 0xFFFFFFFFFFFFFFFFFFFFFFFFFFFFFFFFFFFFFFFF AND DUP2 MSTORE PUSH1 0x20 ADD SWAP1 DUP2 MSTORE PUSH1 0x20 ADD PUSH0 KECCAK256 PUSH0 ADD SLOAD DUP2 MSTORE PUSH1 0x20 ADD SWAP1 DUP2 MSTORE PUSH1 0x20 ADD PUSH0 KECCAK256 PUSH1 0x1 ADD DUP2 SWAP1 SSTORE POP DUP3 PUSH1 0x7 PUSH0 CALLER PUSH20 0xFFFFFFFFFFFFFFFFFFFFFFFFFFFFFFFFFFFFFFFF AND PUSH20 0xFFFFFFFFFFFFFFFFFFFFFFFFFFFFFFFFFFFFFFFF AND DUP2 MSTORE PUSH1 0x20 ADD SWAP1 DUP2 MSTORE PUSH1 0x20 ADD PUSH0 KECCAK256 PUSH0 PUSH1 0x5 PUSH0 CALLER PUSH20 0xFFFFFFFFFFFFFFFFFFFFFFFFFFFFFFFFFFFFFFFF AND PUSH20 0xFFFFFFFFFFFFFFFFFFFFFFFFFFFFFFFFFFFFFFFF AND DUP2 MSTORE PUSH1 0x20 ADD SWAP1 DUP2 MSTORE PUSH1 0x20 ADD PUSH0 KECCAK256 PUSH0 ADD SLOAD DUP2 MSTORE PUSH1 0x20 ADD SWAP1 DUP2 MSTORE PUSH1 0x20 ADD PUSH0 KECCAK256 PUSH1 0x2 ADD DUP2 SWAP1 SSTORE POP CALLER PUSH1 0x7 PUSH0 CALLER PUSH20 0xFFFFFFFFFFFFFFFFFFFFFFFFFFFFFFFFFFFFFFFF AND PUSH20 0xFFFFFFFFFFFFFFFFFFFFFFFFFFFFFFFFFFFFFFFF AND DUP2 MSTORE PUSH1 0x20 ADD SWAP1 DUP2 MSTORE PUSH1 0x20 ADD PUSH0 KECCAK256 PUSH0 PUSH1 0x5 PUSH0 CALLER PUSH20 0xFFFFFFFFFFFFFFFFFFFFFFFFFFFFFFFFFFFFFFFF AND PUSH20 0xFFFFFFFFFFFFFFFFFFFFFFFFFFFFFFFFFFFFFFFF AND DUP2 MSTORE PUSH1 0x20 ADD SWAP1 DUP2 MSTORE PUSH1 0x20 ADD PUSH0 KECCAK256 PUSH0 ADD SLOAD DUP2 MSTORE PUSH1 0x20 ADD SWAP1 DUP2 MSTORE PUSH1 0x20 ADD PUSH0 KECCAK256 PUSH0 ADD PUSH1 0x2 PUSH2 0x100 EXP DUP2 SLOAD DUP2 PUSH20 0xFFFFFFFFFFFFFFFFFFFFFFFFFFFFFFFFFFFFFFFF MUL NOT AND SWAP1 DUP4 PUSH20 0xFFFFFFFFFFFFFFFFFFFFFFFFFFFFFFFFFFFFFFFF AND MUL OR SWAP1 SSTORE POP DUP1 PUSH1 0x7 PUSH0 CALLER PUSH20 0xFFFFFFFFFFFFFFFFFFFFFFFFFFFFFFFFFFFFFFFF AND PUSH20 0xFFFFFFFFFFFFFFFFFFFFFFFFFFFFFFFFFFFFFFFF AND DUP2 MSTORE PUSH1 0x20 ADD SWAP1 DUP2 MSTORE PUSH1 0x20 ADD PUSH0 KECCAK256 PUSH0 PUSH1 0x5 PUSH0 CALLER PUSH20 0xFFFFFFFFFFFFFFFFFFFFFFFFFFFFFFFFFFFFFFFF AND PUSH20 0xFFFFFFFFFFFFFFFFFFFFFFFFFFFFFFFFFFFFFFFF AND DUP2 MSTORE PUSH1 0x20 ADD SWAP1 DUP2 MSTORE PUSH1 0x20 ADD PUSH0 KECCAK256 PUSH0 ADD SLOAD DUP2 MSTORE PUSH1 0x20 ADD SWAP1 DUP2 MSTORE PUSH1 0x20 ADD PUSH0 KECCAK256 PUSH1 0x3 ADD DUP2 SWAP1 SSTORE POP CALLER PUSH20 0xFFFFFFFFFFFFFFFFFFFFFFFFFFFFFFFFFFFFFFFF AND PUSH32 0x578D9BB67FF50E6081576125AD4C2410D6E82DE6DBC1A5DCAC37F8E5AA9CA4F4 PUSH1 0x5 PUSH0 CALLER PUSH20 0xFFFFFFFFFFFFFFFFFFFFFFFFFFFFFFFFFFFFFFFF AND PUSH20 0xFFFFFFFFFFFFFFFFFFFFFFFFFFFFFFFFFFFFFFFF AND DUP2 MSTORE PUSH1 0x20 ADD SWAP1 DUP2 MSTORE PUSH1 0x20 ADD PUSH0 KECCAK256 PUSH0 ADD SLOAD DUP5 PUSH1 0x40 MLOAD PUSH2 0x109C SWAP3 SWAP2 SWAP1 PUSH2 0x3630 JUMP JUMPDEST PUSH1 0x40 MLOAD DUP1 SWAP2 SUB SWAP1 LOG2 POP POP POP JUMP JUMPDEST PUSH1 0x7 PUSH1 0x20 MSTORE DUP2 PUSH0 MSTORE PUSH1 0x40 PUSH0 KECCAK256 PUSH1 0x20 MSTORE DUP1 PUSH0 MSTORE PUSH1 0x40 PUSH0 KECCAK256 PUSH0 SWAP2 POP SWAP2 POP POP DUP1 PUSH0 ADD PUSH0 SWAP1 SLOAD SWAP1 PUSH2 0x100 EXP SWAP1 DIV PUSH1 0xFF AND SWAP1 DUP1 PUSH0 ADD PUSH1 0x1 SWAP1 SLOAD SWAP1 PUSH2 0x100 EXP SWAP1 DIV PUSH1 0xFF AND SWAP1 DUP1 PUSH0 ADD PUSH1 0x2 SWAP1 SLOAD SWAP1 PUSH2 0x100 EXP SWAP1 DIV PUSH20 0xFFFFFFFFFFFFFFFFFFFFFFFFFFFFFFFFFFFFFFFF AND SWAP1 DUP1 PUSH1 0x1 ADD SLOAD SWAP1 DUP1 PUSH1 0x2 ADD SLOAD SWAP1 DUP1 PUSH1 0x3 ADD SLOAD SWAP1 POP DUP7 JUMP JUMPDEST PUSH0 DUP2 EQ ISZERO DUP1 ISZERO PUSH2 0x1134 JUMPI POP PUSH1 0x1 DUP2 EQ ISZERO JUMPDEST ISZERO PUSH2 0x1176 JUMPI DUP1 PUSH1 0x40 MLOAD PUSH32 0xD7ACBE8900000000000000000000000000000000000000000000000000000000 DUP2 MSTORE PUSH1 0x4 ADD PUSH2 0x116D SWAP2 SWAP1 PUSH2 0x3744 JUMP JUMPDEST PUSH1 0x40 MLOAD DUP1 SWAP2 SUB SWAP1 REVERT JUMPDEST PUSH1 0x6 PUSH0 ADDRESS PUSH20 0xFFFFFFFFFFFFFFFFFFFFFFFFFFFFFFFFFFFFFFFF AND PUSH20 0xFFFFFFFFFFFFFFFFFFFFFFFFFFFFFFFFFFFFFFFF AND DUP2 MSTORE PUSH1 0x20 ADD SWAP1 DUP2 MSTORE PUSH1 0x20 ADD PUSH0 KECCAK256 PUSH0 ADD PUSH0 SWAP1 SLOAD SWAP1 PUSH2 0x100 EXP SWAP1 DIV PUSH1 0xFF AND ISZERO PUSH2 0x11F9 JUMPI PUSH1 0x40 MLOAD PUSH32 0x853FD42100000000000000000000000000000000000000000000000000000000 DUP2 MSTORE PUSH1 0x4 ADD PUSH1 0x40 MLOAD DUP1 SWAP2 SUB SWAP1 REVERT JUMPDEST TIMESTAMP PUSH1 0x6 PUSH0 ADDRESS PUSH20 0xFFFFFFFFFFFFFFFFFFFFFFFFFFFFFFFFFFFFFFFF AND PUSH20 0xFFFFFFFFFFFFFFFFFFFFFFFFFFFFFFFFFFFFFFFF AND DUP2 MSTORE PUSH1 0x20 ADD SWAP1 DUP2 MSTORE PUSH1 0x20 ADD PUSH0 KECCAK256 PUSH1 0x1 ADD SLOAD GT ISZERO PUSH2 0x12BE JUMPI PUSH1 0x6 PUSH0 ADDRESS PUSH20 0xFFFFFFFFFFFFFFFFFFFFFFFFFFFFFFFFFFFFFFFF AND PUSH20 0xFFFFFFFFFFFFFFFFFFFFFFFFFFFFFFFFFFFFFFFF AND DUP2 MSTORE PUSH1 0x20 ADD SWAP1 DUP2 MSTORE PUSH1 0x20 ADD PUSH0 KECCAK256 PUSH1 0x1 ADD SLOAD PUSH1 0x40 MLOAD PUSH32 0x79073E7B00000000000000000000000000000000000000000000000000000000 DUP2 MSTORE PUSH1 0x4 ADD PUSH2 0x12B5 SWAP2 SWAP1 PUSH2 0x3744 JUMP JUMPDEST PUSH1 0x40 MLOAD DUP1 SWAP2 SUB SWAP1 REVERT JUMPDEST PUSH0 PUSH0 PUSH0 SWAP1 POP JUMPDEST PUSH1 0x2 SLOAD DUP2 LT ISZERO PUSH2 0x16CF JUMPI PUSH1 0x5 PUSH0 PUSH1 0x4 PUSH0 DUP5 DUP2 MSTORE PUSH1 0x20 ADD SWAP1 DUP2 MSTORE PUSH1 0x20 ADD PUSH0 KECCAK256 PUSH0 SWAP1 SLOAD SWAP1 PUSH2 0x100 EXP SWAP1 DIV PUSH20 0xFFFFFFFFFFFFFFFFFFFFFFFFFFFFFFFFFFFFFFFF AND PUSH20 0xFFFFFFFFFFFFFFFFFFFFFFFFFFFFFFFFFFFFFFFF AND PUSH20 0xFFFFFFFFFFFFFFFFFFFFFFFFFFFFFFFFFFFFFFFF AND DUP2 MSTORE PUSH1 0x20 ADD SWAP1 DUP2 MSTORE PUSH1 0x20 ADD PUSH0 KECCAK256 PUSH1 0x5 ADD PUSH0 DUP5 DUP2 MSTORE PUSH1 0x20 ADD SWAP1 DUP2 MSTORE PUSH1 0x20 ADD PUSH0 KECCAK256 PUSH0 SWAP1 SLOAD SWAP1 PUSH2 0x100 EXP SWAP1 DIV PUSH1 0xFF AND ISZERO PUSH2 0x16C2 JUMPI PUSH0 DUP4 EQ DUP1 ISZERO PUSH2 0x13DE JUMPI POP PUSH0 PUSH1 0x5 PUSH0 PUSH1 0x4 PUSH0 DUP6 DUP2 MSTORE PUSH1 0x20 ADD SWAP1 DUP2 MSTORE PUSH1 0x20 ADD PUSH0 KECCAK256 PUSH0 SWAP1 SLOAD SWAP1 PUSH2 0x100 EXP SWAP1 DIV PUSH20 0xFFFFFFFFFFFFFFFFFFFFFFFFFFFFFFFFFFFFFFFF AND PUSH20 0xFFFFFFFFFFFFFFFFFFFFFFFFFFFFFFFFFFFFFFFF AND PUSH20 0xFFFFFFFFFFFFFFFFFFFFFFFFFFFFFFFFFFFFFFFF AND DUP2 MSTORE PUSH1 0x20 ADD SWAP1 DUP2 MSTORE PUSH1 0x20 ADD PUSH0 KECCAK256 PUSH1 0x1 ADD SLOAD EQ ISZERO JUMPDEST ISZERO PUSH2 0x1554 JUMPI PUSH2 0x145D PUSH1 0x5 PUSH0 PUSH1 0x4 PUSH0 DUP6 DUP2 MSTORE PUSH1 0x20 ADD SWAP1 DUP2 MSTORE PUSH1 0x20 ADD PUSH0 KECCAK256 PUSH0 SWAP1 SLOAD SWAP1 PUSH2 0x100 EXP SWAP1 DIV PUSH20 0xFFFFFFFFFFFFFFFFFFFFFFFFFFFFFFFFFFFFFFFF AND PUSH20 0xFFFFFFFFFFFFFFFFFFFFFFFFFFFFFFFFFFFFFFFF AND PUSH20 0xFFFFFFFFFFFFFFFFFFFFFFFFFFFFFFFFFFFFFFFF AND DUP2 MSTORE PUSH1 0x20 ADD SWAP1 DUP2 MSTORE PUSH1 0x20 ADD PUSH0 KECCAK256 PUSH1 0x1 ADD SLOAD DUP5 PUSH2 0x2646 JUMP JUMPDEST PUSH1 0x5 PUSH0 PUSH1 0x4 PUSH0 DUP6 DUP2 MSTORE PUSH1 0x20 ADD SWAP1 DUP2 MSTORE PUSH1 0x20 ADD PUSH0 KECCAK256 PUSH0 SWAP1 SLOAD SWAP1 PUSH2 0x100 EXP SWAP1 DIV PUSH20 0xFFFFFFFFFFFFFFFFFFFFFFFFFFFFFFFFFFFFFFFF AND PUSH20 0xFFFFFFFFFFFFFFFFFFFFFFFFFFFFFFFFFFFFFFFF AND PUSH20 0xFFFFFFFFFFFFFFFFFFFFFFFFFFFFFFFFFFFFFFFF AND DUP2 MSTORE PUSH1 0x20 ADD SWAP1 DUP2 MSTORE PUSH1 0x20 ADD PUSH0 KECCAK256 PUSH1 0x4 ADD DUP2 SWAP1 SSTORE POP PUSH1 0x5 PUSH0 PUSH1 0x4 PUSH0 DUP5 DUP2 MSTORE PUSH1 0x20 ADD SWAP1 DUP2 MSTORE PUSH1 0x20 ADD PUSH0 KECCAK256 PUSH0 SWAP1 SLOAD SWAP1 PUSH2 0x100 EXP SWAP1 DIV PUSH20 0xFFFFFFFFFFFFFFFFFFFFFFFFFFFFFFFFFFFFFFFF AND PUSH20 0xFFFFFFFFFFFFFFFFFFFFFFFFFFFFFFFFFFFFFFFF AND PUSH20 0xFFFFFFFFFFFFFFFFFFFFFFFFFFFFFFFFFFFFFFFF AND DUP2 MSTORE PUSH1 0x20 ADD SWAP1 DUP2 MSTORE PUSH1 0x20 ADD PUSH0 KECCAK256 PUSH1 0x4 ADD SLOAD DUP3 PUSH2 0x154D SWAP2 SWAP1 PUSH2 0x3854 JUMP JUMPDEST SWAP2 POP PUSH2 0x16C1 JUMP JUMPDEST PUSH2 0x15CE PUSH1 0x5 PUSH0 PUSH1 0x4 PUSH0 DUP6 DUP2 MSTORE PUSH1 0x20 ADD SWAP1 DUP2 MSTORE PUSH1 0x20 ADD PUSH0 KECCAK256 PUSH0 SWAP1 SLOAD SWAP1 PUSH2 0x100 EXP SWAP1 DIV PUSH20 0xFFFFFFFFFFFFFFFFFFFFFFFFFFFFFFFFFFFFFFFF AND PUSH20 0xFFFFFFFFFFFFFFFFFFFFFFFFFFFFFFFFFFFFFFFF AND PUSH20 0xFFFFFFFFFFFFFFFFFFFFFFFFFFFFFFFFFFFFFFFF AND DUP2 MSTORE PUSH1 0x20 ADD SWAP1 DUP2 MSTORE PUSH1 0x20 ADD PUSH0 KECCAK256 PUSH1 0x3 ADD SLOAD DUP5 PUSH2 0x2646 JUMP JUMPDEST PUSH1 0x5 PUSH0 PUSH1 0x4 PUSH0 DUP6 DUP2 MSTORE PUSH1 0x20 ADD SWAP1 DUP2 MSTORE PUSH1 0x20 ADD PUSH0 KECCAK256 PUSH0 SWAP1 SLOAD SWAP1 PUSH2 0x100 EXP SWAP1 DIV PUSH20 0xFFFFFFFFFFFFFFFFFFFFFFFFFFFFFFFFFFFFFFFF AND PUSH20 0xFFFFFFFFFFFFFFFFFFFFFFFFFFFFFFFFFFFFFFFF AND PUSH20 0xFFFFFFFFFFFFFFFFFFFFFFFFFFFFFFFFFFFFFFFF AND DUP2 MSTORE PUSH1 0x20 ADD SWAP1 DUP2 MSTORE PUSH1 0x20 ADD PUSH0 KECCAK256 PUSH1 0x4 ADD DUP2 SWAP1 SSTORE POP PUSH1 0x5 PUSH0 PUSH1 0x4 PUSH0 DUP5 DUP2 MSTORE PUSH1 0x20 ADD SWAP1 DUP2 MSTORE PUSH1 0x20 ADD PUSH0 KECCAK256 PUSH0 SWAP1 SLOAD SWAP1 PUSH2 0x100 EXP SWAP1 DIV PUSH20 0xFFFFFFFFFFFFFFFFFFFFFFFFFFFFFFFFFFFFFFFF AND PUSH20 0xFFFFFFFFFFFFFFFFFFFFFFFFFFFFFFFFFFFFFFFF AND PUSH20 0xFFFFFFFFFFFFFFFFFFFFFFFFFFFFFFFFFFFFFFFF AND DUP2 MSTORE PUSH1 0x20 ADD SWAP1 DUP2 MSTORE PUSH1 0x20 ADD PUSH0 KECCAK256 PUSH1 0x4 ADD SLOAD DUP3 PUSH2 0x16BE SWAP2 SWAP1 PUSH2 0x3854 JUMP JUMPDEST SWAP2 POP JUMPDEST JUMPDEST DUP1 DUP1 PUSH1 0x1 ADD SWAP2 POP POP PUSH2 0x12C4 JUMP JUMPDEST POP PUSH0 DUP2 PUSH1 0x6 PUSH0 ADDRESS PUSH20 0xFFFFFFFFFFFFFFFFFFFFFFFFFFFFFFFFFFFFFFFF AND PUSH20 0xFFFFFFFFFFFFFFFFFFFFFFFFFFFFFFFFFFFFFFFF AND DUP2 MSTORE PUSH1 0x20 ADD SWAP1 DUP2 MSTORE PUSH1 0x20 ADD PUSH0 KECCAK256 PUSH1 0x3 ADD SLOAD PUSH2 0x171D SWAP2 SWAP1 PUSH2 0x38F5 JUMP JUMPDEST SWAP1 POP PUSH0 PUSH0 PUSH0 SWAP1 POP JUMPDEST PUSH1 0x2 SLOAD DUP2 LT ISZERO PUSH2 0x1B87 JUMPI PUSH1 0x5 PUSH0 PUSH1 0x4 PUSH0 DUP5 DUP2 MSTORE PUSH1 0x20 ADD SWAP1 DUP2 MSTORE PUSH1 0x20 ADD PUSH0 KECCAK256 PUSH0 SWAP1 SLOAD SWAP1 PUSH2 0x100 EXP SWAP1 DIV PUSH20 0xFFFFFFFFFFFFFFFFFFFFFFFFFFFFFFFFFFFFFFFF AND PUSH20 0xFFFFFFFFFFFFFFFFFFFFFFFFFFFFFFFFFFFFFFFF AND PUSH20 0xFFFFFFFFFFFFFFFFFFFFFFFFFFFFFFFFFFFFFFFF AND DUP2 MSTORE PUSH1 0x20 ADD SWAP1 DUP2 MSTORE PUSH1 0x20 ADD PUSH0 KECCAK256 PUSH1 0x5 ADD PUSH0 DUP7 DUP2 MSTORE PUSH1 0x20 ADD SWAP1 DUP2 MSTORE PUSH1 0x20 ADD PUSH0 KECCAK256 PUSH0 SWAP1 SLOAD SWAP1 PUSH2 0x100 EXP SWAP1 DIV PUSH1 0xFF AND ISZERO PUSH2 0x1B7A JUMPI PUSH0 DUP4 PUSH1 0x5 PUSH0 PUSH1 0x4 PUSH0 DUP7 DUP2 MSTORE PUSH1 0x20 ADD SWAP1 DUP2 MSTORE PUSH1 0x20 ADD PUSH0 KECCAK256 PUSH0 SWAP1 SLOAD SWAP1 PUSH2 0x100 EXP SWAP1 DIV PUSH20 0xFFFFFFFFFFFFFFFFFFFFFFFFFFFFFFFFFFFFFFFF AND PUSH20 0xFFFFFFFFFFFFFFFFFFFFFFFFFFFFFFFFFFFFFFFF AND PUSH20 0xFFFFFFFFFFFFFFFFFFFFFFFFFFFFFFFFFFFFFFFF AND DUP2 MSTORE PUSH1 0x20 ADD SWAP1 DUP2 MSTORE PUSH1 0x20 ADD PUSH0 KECCAK256 PUSH1 0x4 ADD SLOAD PUSH2 0x183D SWAP2 SWAP1 PUSH2 0x3887 JUMP JUMPDEST SWAP1 POP PUSH0 PUSH1 0x5 PUSH0 PUSH1 0x4 PUSH0 DUP7 DUP2 MSTORE PUSH1 0x20 ADD SWAP1 DUP2 MSTORE PUSH1 0x20 ADD PUSH0 KECCAK256 PUSH0 SWAP1 SLOAD SWAP1 PUSH2 0x100 EXP SWAP1 DIV PUSH20 0xFFFFFFFFFFFFFFFFFFFFFFFFFFFFFFFFFFFFFFFF AND PUSH20 0xFFFFFFFFFFFFFFFFFFFFFFFFFFFFFFFFFFFFFFFF AND PUSH20 0xFFFFFFFFFFFFFFFFFFFFFFFFFFFFFFFFFFFFFFFF AND DUP2 MSTORE PUSH1 0x20 ADD SWAP1 DUP2 MSTORE PUSH1 0x20 ADD PUSH0 KECCAK256 PUSH1 0x4 ADD SLOAD DUP3 PUSH2 0x18BC SWAP2 SWAP1 PUSH2 0x39E4 JUMP JUMPDEST SWAP1 POP PUSH0 PUSH2 0x18CB DUP3 PUSH1 0x3 SLOAD PUSH2 0x31E2 JUMP JUMPDEST SWAP1 POP DUP1 DUP6 PUSH2 0x18D9 SWAP2 SWAP1 PUSH2 0x3854 JUMP JUMPDEST SWAP5 POP DUP1 DUP4 PUSH2 0x18E7 SWAP2 SWAP1 PUSH2 0x39E4 JUMP JUMPDEST PUSH1 0x1 PUSH0 SWAP1 SLOAD SWAP1 PUSH2 0x100 EXP SWAP1 DIV PUSH20 0xFFFFFFFFFFFFFFFFFFFFFFFFFFFFFFFFFFFFFFFF AND PUSH20 0xFFFFFFFFFFFFFFFFFFFFFFFFFFFFFFFFFFFFFFFF AND PUSH4 0x70A08231 ADDRESS PUSH1 0x40 MLOAD DUP3 PUSH4 0xFFFFFFFF AND PUSH1 0xE0 SHL DUP2 MSTORE PUSH1 0x4 ADD PUSH2 0x1941 SWAP2 SWAP1 PUSH2 0x347D JUMP JUMPDEST PUSH1 0x20 PUSH1 0x40 MLOAD DUP1 DUP4 SUB DUP2 DUP7 GAS STATICCALL ISZERO DUP1 ISZERO PUSH2 0x195C JUMPI RETURNDATASIZE PUSH0 PUSH0 RETURNDATACOPY RETURNDATASIZE PUSH0 REVERT JUMPDEST POP POP POP POP PUSH1 0x40 MLOAD RETURNDATASIZE PUSH1 0x1F NOT PUSH1 0x1F DUP3 ADD AND DUP3 ADD DUP1 PUSH1 0x40 MSTORE POP DUP2 ADD SWAP1 PUSH2 0x1980 SWAP2 SWAP1 PUSH2 0x3A2B JUMP JUMPDEST LT ISZERO PUSH2 0x1A5B JUMPI PUSH1 0x1 PUSH0 SWAP1 SLOAD SWAP1 PUSH2 0x100 EXP SWAP1 DIV PUSH20 0xFFFFFFFFFFFFFFFFFFFFFFFFFFFFFFFFFFFFFFFF AND PUSH20 0xFFFFFFFFFFFFFFFFFFFFFFFFFFFFFFFFFFFFFFFF AND PUSH4 0x70A08231 ADDRESS PUSH1 0x40 MLOAD DUP3 PUSH4 0xFFFFFFFF AND PUSH1 0xE0 SHL DUP2 MSTORE PUSH1 0x4 ADD PUSH2 0x19E0 SWAP2 SWAP1 PUSH2 0x347D JUMP JUMPDEST PUSH1 0x20 PUSH1 0x40 MLOAD DUP1 DUP4 SUB DUP2 DUP7 GAS STATICCALL ISZERO DUP1 ISZERO PUSH2 0x19FB JUMPI RETURNDATASIZE PUSH0 PUSH0 RETURNDATACOPY RETURNDATASIZE PUSH0 REVERT JUMPDEST POP POP POP POP PUSH1 0x40 MLOAD RETURNDATASIZE PUSH1 0x1F NOT PUSH1 0x1F DUP3 ADD AND DUP3 ADD DUP1 PUSH1 0x40 MSTORE POP DUP2 ADD SWAP1 PUSH2 0x1A1F SWAP2 SWAP1 PUSH2 0x3A2B JUMP JUMPDEST PUSH1 0x40 MLOAD PUSH32 0xF9AE0CB400000000000000000000000000000000000000000000000000000000 DUP2 MSTORE PUSH1 0x4 ADD PUSH2 0x1A52 SWAP2 SWAP1 PUSH2 0x3744 JUMP JUMPDEST PUSH1 0x40 MLOAD DUP1 SWAP2 SUB SWAP1 REVERT JUMPDEST PUSH0 PUSH1 0x1 PUSH0 SWAP1 SLOAD SWAP1 PUSH2 0x100 EXP SWAP1 DIV PUSH20 0xFFFFFFFFFFFFFFFFFFFFFFFFFFFFFFFFFFFFFFFF AND PUSH20 0xFFFFFFFFFFFFFFFFFFFFFFFFFFFFFFFFFFFFFFFF AND PUSH4 0xA9059CBB PUSH1 0x4 PUSH0 DUP9 DUP2 MSTORE PUSH1 0x20 ADD SWAP1 DUP2 MSTORE PUSH1 0x20 ADD PUSH0 KECCAK256 PUSH0 SWAP1 SLOAD SWAP1 PUSH2 0x100 EXP SWAP1 DIV PUSH20 0xFFFFFFFFFFFFFFFFFFFFFFFFFFFFFFFFFFFFFFFF AND DUP5 DUP8 PUSH2 0x1AD6 SWAP2 SWAP1 PUSH2 0x39E4 JUMP JUMPDEST PUSH1 0x40 MLOAD DUP4 PUSH4 0xFFFFFFFF AND PUSH1 0xE0 SHL DUP2 MSTORE PUSH1 0x4 ADD PUSH2 0x1AF3 SWAP3 SWAP2 SWAP1 PUSH2 0x3A56 JUMP JUMPDEST PUSH1 0x20 PUSH1 0x40 MLOAD DUP1 DUP4 SUB DUP2 PUSH0 DUP8 GAS CALL ISZERO DUP1 ISZERO PUSH2 0x1B0F JUMPI RETURNDATASIZE PUSH0 PUSH0 RETURNDATACOPY RETURNDATASIZE PUSH0 REVERT JUMPDEST POP POP POP POP PUSH1 0x40 MLOAD RETURNDATASIZE PUSH1 0x1F NOT PUSH1 0x1F DUP3 ADD AND DUP3 ADD DUP1 PUSH1 0x40 MSTORE POP DUP2 ADD SWAP1 PUSH2 0x1B33 SWAP2 SWAP1 PUSH2 0x3AA7 JUMP JUMPDEST SWAP1 POP DUP1 PUSH2 0x1B75 JUMPI PUSH1 0x40 MLOAD PUSH32 0x8C379A000000000000000000000000000000000000000000000000000000000 DUP2 MSTORE PUSH1 0x4 ADD PUSH2 0x1B6C SWAP1 PUSH2 0x3B1C JUMP JUMPDEST PUSH1 0x40 MLOAD DUP1 SWAP2 SUB SWAP1 REVERT JUMPDEST POP POP POP POP JUMPDEST DUP1 DUP1 PUSH1 0x1 ADD SWAP2 POP POP PUSH2 0x1725 JUMP JUMPDEST POP DUP1 PUSH1 0x1 PUSH0 SWAP1 SLOAD SWAP1 PUSH2 0x100 EXP SWAP1 DIV PUSH20 0xFFFFFFFFFFFFFFFFFFFFFFFFFFFFFFFFFFFFFFFF AND PUSH20 0xFFFFFFFFFFFFFFFFFFFFFFFFFFFFFFFFFFFFFFFF AND PUSH4 0x70A08231 ADDRESS PUSH1 0x40 MLOAD DUP3 PUSH4 0xFFFFFFFF AND PUSH1 0xE0 SHL DUP2 MSTORE PUSH1 0x4 ADD PUSH2 0x1BE3 SWAP2 SWAP1 PUSH2 0x347D JUMP JUMPDEST PUSH1 0x20 PUSH1 0x40 MLOAD DUP1 DUP4 SUB DUP2 DUP7 GAS STATICCALL ISZERO DUP1 ISZERO PUSH2 0x1BFE JUMPI RETURNDATASIZE PUSH0 PUSH0 RETURNDATACOPY RETURNDATASIZE PUSH0 REVERT JUMPDEST POP POP POP POP PUSH1 0x40 MLOAD RETURNDATASIZE PUSH1 0x1F NOT PUSH1 0x1F DUP3 ADD AND DUP3 ADD DUP1 PUSH1 0x40 MSTORE POP DUP2 ADD SWAP1 PUSH2 0x1C22 SWAP2 SWAP1 PUSH2 0x3A2B JUMP JUMPDEST LT ISZERO PUSH2 0x1CFD JUMPI PUSH1 0x1 PUSH0 SWAP1 SLOAD SWAP1 PUSH2 0x100 EXP SWAP1 DIV PUSH20 0xFFFFFFFFFFFFFFFFFFFFFFFFFFFFFFFFFFFFFFFF AND PUSH20 0xFFFFFFFFFFFFFFFFFFFFFFFFFFFFFFFFFFFFFFFF AND PUSH4 0x70A08231 ADDRESS PUSH1 0x40 MLOAD DUP3 PUSH4 0xFFFFFFFF AND PUSH1 0xE0 SHL DUP2 MSTORE PUSH1 0x4 ADD PUSH2 0x1C82 SWAP2 SWAP1 PUSH2 0x347D JUMP JUMPDEST PUSH1 0x20 PUSH1 0x40 MLOAD DUP1 DUP4 SUB DUP2 DUP7 GAS STATICCALL ISZERO DUP1 ISZERO PUSH2 0x1C9D JUMPI RETURNDATASIZE PUSH0 PUSH0 RETURNDATACOPY RETURNDATASIZE PUSH0 REVERT JUMPDEST POP POP POP POP PUSH1 0x40 MLOAD RETURNDATASIZE PUSH1 0x1F NOT PUSH1 0x1F DUP3 ADD AND DUP3 ADD DUP1 PUSH1 0x40 MSTORE POP DUP2 ADD SWAP1 PUSH2 0x1CC1 SWAP2 SWAP1 PUSH2 0x3A2B JUMP JUMPDEST PUSH1 0x40 MLOAD PUSH32 0xBA9C3E4F00000000000000000000000000000000000000000000000000000000 DUP2 MSTORE PUSH1 0x4 ADD PUSH2 0x1CF4 SWAP2 SWAP1 PUSH2 0x3744 JUMP JUMPDEST PUSH1 0x40 MLOAD DUP1 SWAP2 SUB SWAP1 REVERT JUMPDEST PUSH1 0x1 PUSH1 0x6 PUSH0 ADDRESS PUSH20 0xFFFFFFFFFFFFFFFFFFFFFFFFFFFFFFFFFFFFFFFF AND PUSH20 0xFFFFFFFFFFFFFFFFFFFFFFFFFFFFFFFFFFFFFFFF AND DUP2 MSTORE PUSH1 0x20 ADD SWAP1 DUP2 MSTORE PUSH1 0x20 ADD PUSH0 KECCAK256 PUSH0 ADD PUSH0 PUSH2 0x100 EXP DUP2 SLOAD DUP2 PUSH1 0xFF MUL NOT AND SWAP1 DUP4 ISZERO ISZERO MUL OR SWAP1 SSTORE POP PUSH0 PUSH1 0x1 PUSH0 SWAP1 SLOAD SWAP1 PUSH2 0x100 EXP SWAP1 DIV PUSH20 0xFFFFFFFFFFFFFFFFFFFFFFFFFFFFFFFFFFFFFFFF AND PUSH20 0xFFFFFFFFFFFFFFFFFFFFFFFFFFFFFFFFFFFFFFFF AND PUSH4 0xA9059CBB PUSH2 0x1D9A PUSH2 0x261F JUMP JUMPDEST DUP5 PUSH1 0x40 MLOAD DUP4 PUSH4 0xFFFFFFFF AND PUSH1 0xE0 SHL DUP2 MSTORE PUSH1 0x4 ADD PUSH2 0x1DB8 SWAP3 SWAP2 SWAP1 PUSH2 0x3A56 JUMP JUMPDEST PUSH1 0x20 PUSH1 0x40 MLOAD DUP1 DUP4 SUB DUP2 PUSH0 DUP8 GAS CALL ISZERO DUP1 ISZERO PUSH2 0x1DD4 JUMPI RETURNDATASIZE PUSH0 PUSH0 RETURNDATACOPY RETURNDATASIZE PUSH0 REVERT JUMPDEST POP POP POP POP PUSH1 0x40 MLOAD RETURNDATASIZE PUSH1 0x1F NOT PUSH1 0x1F DUP3 ADD AND DUP3 ADD DUP1 PUSH1 0x40 MSTORE POP DUP2 ADD SWAP1 PUSH2 0x1DF8 SWAP2 SWAP1 PUSH2 0x3AA7 JUMP JUMPDEST SWAP1 POP DUP1 PUSH2 0x1E3A JUMPI PUSH1 0x40 MLOAD PUSH32 0x8C379A000000000000000000000000000000000000000000000000000000000 DUP2 MSTORE PUSH1 0x4 ADD PUSH2 0x1E31 SWAP1 PUSH2 0x3B1C JUMP JUMPDEST PUSH1 0x40 MLOAD DUP1 SWAP2 SUB SWAP1 REVERT JUMPDEST PUSH32 0x4D21AF759C8D2F25C6246594B4CFC2EDEB2B901BC0C6E87F5E21C212A12CA1FD PUSH2 0x1E63 PUSH2 0x261F JUMP JUMPDEST DUP4 DUP6 DUP9 PUSH1 0x40 MLOAD PUSH2 0x1E76 SWAP5 SWAP4 SWAP3 SWAP2 SWAP1 PUSH2 0x3B3A JUMP JUMPDEST PUSH1 0x40 MLOAD DUP1 SWAP2 SUB SWAP1 LOG1 POP POP POP POP POP JUMP JUMPDEST PUSH0 DUP2 EQ ISZERO DUP1 ISZERO PUSH2 0x1E96 JUMPI POP PUSH1 0x1 DUP2 EQ ISZERO JUMPDEST ISZERO PUSH2 0x1ED8 JUMPI DUP1 PUSH1 0x40 MLOAD PUSH32 0xD7ACBE8900000000000000000000000000000000000000000000000000000000 DUP2 MSTORE PUSH1 0x4 ADD PUSH2 0x1ECF SWAP2 SWAP1 PUSH2 0x3744 JUMP JUMPDEST PUSH1 0x40 MLOAD DUP1 SWAP2 SUB SWAP1 REVERT JUMPDEST PUSH0 DUP3 GT PUSH2 0x1F1C JUMPI DUP2 PUSH1 0x40 MLOAD PUSH32 0x2FF4783000000000000000000000000000000000000000000000000000000000 DUP2 MSTORE PUSH1 0x4 ADD PUSH2 0x1F13 SWAP2 SWAP1 PUSH2 0x3744 JUMP JUMPDEST PUSH1 0x40 MLOAD DUP1 SWAP2 SUB SWAP1 REVERT JUMPDEST PUSH1 0x6 PUSH0 ADDRESS PUSH20 0xFFFFFFFFFFFFFFFFFFFFFFFFFFFFFFFFFFFFFFFF AND PUSH20 0xFFFFFFFFFFFFFFFFFFFFFFFFFFFFFFFFFFFFFFFF AND DUP2 MSTORE PUSH1 0x20 ADD SWAP1 DUP2 MSTORE PUSH1 0x20 ADD PUSH0 KECCAK256 PUSH0 ADD PUSH0 SWAP1 SLOAD SWAP1 PUSH2 0x100 EXP SWAP1 DIV PUSH1 0xFF AND ISZERO PUSH2 0x1F9F JUMPI PUSH1 0x40 MLOAD PUSH32 0x853FD42100000000000000000000000000000000000000000000000000000000 DUP2 MSTORE PUSH1 0x4 ADD PUSH1 0x40 MLOAD DUP1 SWAP2 SUB SWAP1 REVERT JUMPDEST PUSH1 0x5 PUSH0 CALLER PUSH20 0xFFFFFFFFFFFFFFFFFFFFFFFFFFFFFFFFFFFFFFFF AND PUSH20 0xFFFFFFFFFFFFFFFFFFFFFFFFFFFFFFFFFFFFFFFF AND DUP2 MSTORE PUSH1 0x20 ADD SWAP1 DUP2 MSTORE PUSH1 0x20 ADD PUSH0 KECCAK256 PUSH1 0x5 ADD PUSH0 DUP3 DUP2 MSTORE PUSH1 0x20 ADD SWAP1 DUP2 MSTORE PUSH1 0x20 ADD PUSH0 KECCAK256 PUSH0 SWAP1 SLOAD SWAP1 PUSH2 0x100 EXP SWAP1 DIV PUSH1 0xFF AND PUSH2 0x2068 JUMPI CALLER PUSH1 0x4 PUSH0 PUSH1 0x2 SLOAD DUP2 MSTORE PUSH1 0x20 ADD SWAP1 DUP2 MSTORE PUSH1 0x20 ADD PUSH0 KECCAK256 PUSH0 PUSH2 0x100 EXP DUP2 SLOAD DUP2 PUSH20 0xFFFFFFFFFFFFFFFFFFFFFFFFFFFFFFFFFFFFFFFF MUL NOT AND SWAP1 DUP4 PUSH20 0xFFFFFFFFFFFFFFFFFFFFFFFFFFFFFFFFFFFFFFFF AND MUL OR SWAP1 SSTORE POP PUSH1 0x2 PUSH0 DUP2 SLOAD DUP1 SWAP3 SWAP2 SWAP1 PUSH2 0x2062 SWAP1 PUSH2 0x399D JUMP JUMPDEST SWAP2 SWAP1 POP SSTORE POP JUMPDEST PUSH0 DUP2 SUB PUSH2 0x211F JUMPI PUSH1 0x6 PUSH0 ADDRESS PUSH20 0xFFFFFFFFFFFFFFFFFFFFFFFFFFFFFFFFFFFFFFFF AND PUSH20 0xFFFFFFFFFFFFFFFFFFFFFFFFFFFFFFFFFFFFFFFF AND DUP2 MSTORE PUSH1 0x20 ADD SWAP1 DUP2 MSTORE PUSH1 0x20 ADD PUSH0 KECCAK256 PUSH1 0x7 ADD PUSH0 DUP2 SLOAD DUP1 SWAP3 SWAP2 SWAP1 PUSH2 0x20BF SWAP1 PUSH2 0x399D JUMP JUMPDEST SWAP2 SWAP1 POP SSTORE POP DUP2 PUSH1 0x5 PUSH0 CALLER PUSH20 0xFFFFFFFFFFFFFFFFFFFFFFFFFFFFFFFFFFFFFFFF AND PUSH20 0xFFFFFFFFFFFFFFFFFFFFFFFFFFFFFFFFFFFFFFFF AND DUP2 MSTORE PUSH1 0x20 ADD SWAP1 DUP2 MSTORE PUSH1 0x20 ADD PUSH0 KECCAK256 PUSH1 0x1 ADD PUSH0 DUP3 DUP3 SLOAD PUSH2 0x2113 SWAP2 SWAP1 PUSH2 0x3854 JUMP JUMPDEST SWAP3 POP POP DUP2 SWAP1 SSTORE POP PUSH2 0x21CB JUMP JUMPDEST PUSH1 0x6 PUSH0 ADDRESS PUSH20 0xFFFFFFFFFFFFFFFFFFFFFFFFFFFFFFFFFFFFFFFF AND PUSH20 0xFFFFFFFFFFFFFFFFFFFFFFFFFFFFFFFFFFFFFFFF AND DUP2 MSTORE PUSH1 0x20 ADD SWAP1 DUP2 MSTORE PUSH1 0x20 ADD PUSH0 KECCAK256 PUSH1 0x6 ADD PUSH0 DUP2 SLOAD DUP1 SWAP3 SWAP2 SWAP1 PUSH2 0x216F SWAP1 PUSH2 0x399D JUMP JUMPDEST SWAP2 SWAP1 POP SSTORE POP DUP2 PUSH1 0x5 PUSH0 CALLER PUSH20 0xFFFFFFFFFFFFFFFFFFFFFFFFFFFFFFFFFFFFFFFF AND PUSH20 0xFFFFFFFFFFFFFFFFFFFFFFFFFFFFFFFFFFFFFFFF AND DUP2 MSTORE PUSH1 0x20 ADD SWAP1 DUP2 MSTORE PUSH1 0x20 ADD PUSH0 KECCAK256 PUSH1 0x3 ADD PUSH0 DUP3 DUP3 SLOAD PUSH2 0x21C3 SWAP2 SWAP1 PUSH2 0x3854 JUMP JUMPDEST SWAP3 POP POP DUP2 SWAP1 SSTORE POP JUMPDEST DUP2 PUSH1 0x6 PUSH0 ADDRESS PUSH20 0xFFFFFFFFFFFFFFFFFFFFFFFFFFFFFFFFFFFFFFFF AND PUSH20 0xFFFFFFFFFFFFFFFFFFFFFFFFFFFFFFFFFFFFFFFF AND DUP2 MSTORE PUSH1 0x20 ADD SWAP1 DUP2 MSTORE PUSH1 0x20 ADD PUSH0 KECCAK256 PUSH1 0x3 ADD PUSH0 DUP3 DUP3 SLOAD PUSH2 0x221A SWAP2 SWAP1 PUSH2 0x3854 JUMP JUMPDEST SWAP3 POP POP DUP2 SWAP1 SSTORE POP PUSH1 0x6 PUSH0 ADDRESS PUSH20 0xFFFFFFFFFFFFFFFFFFFFFFFFFFFFFFFFFFFFFFFF AND PUSH20 0xFFFFFFFFFFFFFFFFFFFFFFFFFFFFFFFFFFFFFFFF AND DUP2 MSTORE PUSH1 0x20 ADD SWAP1 DUP2 MSTORE PUSH1 0x20 ADD PUSH0 KECCAK256 PUSH1 0x2 ADD PUSH0 DUP2 SLOAD DUP1 SWAP3 SWAP2 SWAP1 PUSH2 0x2271 SWAP1 PUSH2 0x399D JUMP JUMPDEST SWAP2 SWAP1 POP SSTORE POP PUSH1 0x1 PUSH1 0x5 PUSH0 CALLER PUSH20 0xFFFFFFFFFFFFFFFFFFFFFFFFFFFFFFFFFFFFFFFF AND PUSH20 0xFFFFFFFFFFFFFFFFFFFFFFFFFFFFFFFFFFFFFFFF AND DUP2 MSTORE PUSH1 0x20 ADD SWAP1 DUP2 MSTORE PUSH1 0x20 ADD PUSH0 KECCAK256 PUSH1 0x5 ADD PUSH0 DUP4 DUP2 MSTORE PUSH1 0x20 ADD SWAP1 DUP2 MSTORE PUSH1 0x20 ADD PUSH0 KECCAK256 PUSH0 PUSH2 0x100 EXP DUP2 SLOAD DUP2 PUSH1 0xFF MUL NOT AND SWAP1 DUP4 ISZERO ISZERO MUL OR SWAP1 SSTORE POP PUSH2 0x2367 PUSH1 0x6 PUSH0 ADDRESS PUSH20 0xFFFFFFFFFFFFFFFFFFFFFFFFFFFFFFFFFFFFFFFF AND PUSH20 0xFFFFFFFFFFFFFFFFFFFFFFFFFFFFFFFFFFFFFFFF AND DUP2 MSTORE PUSH1 0x20 ADD SWAP1 DUP2 MSTORE PUSH1 0x20 ADD PUSH0 KECCAK256 PUSH1 0x7 ADD SLOAD PUSH1 0x6 PUSH0 ADDRESS PUSH20 0xFFFFFFFFFFFFFFFFFFFFFFFFFFFFFFFFFFFFFFFF AND PUSH20 0xFFFFFFFFFFFFFFFFFFFFFFFFFFFFFFFFFFFFFFFF AND DUP2 MSTORE PUSH1 0x20 ADD SWAP1 DUP2 MSTORE PUSH1 0x20 ADD PUSH0 KECCAK256 PUSH1 0x6 ADD SLOAD PUSH2 0x5BE JUMP JUMPDEST PUSH1 0x6 PUSH0 ADDRESS PUSH20 0xFFFFFFFFFFFFFFFFFFFFFFFFFFFFFFFFFFFFFFFF AND PUSH20 0xFFFFFFFFFFFFFFFFFFFFFFFFFFFFFFFFFFFFFFFF AND DUP2 MSTORE PUSH1 0x20 ADD SWAP1 DUP2 MSTORE PUSH1 0x20 ADD PUSH0 KECCAK256 PUSH1 0x4 ADD PUSH0 PUSH1 0x2 DUP2 LT PUSH2 0x23B9 JUMPI PUSH2 0x23B8 PUSH2 0x37FA JUMP JUMPDEST JUMPDEST ADD PUSH0 PUSH1 0x6 PUSH0 ADDRESS PUSH20 0xFFFFFFFFFFFFFFFFFFFFFFFFFFFFFFFFFFFFFFFF AND PUSH20 0xFFFFFFFFFFFFFFFFFFFFFFFFFFFFFFFFFFFFFFFF AND DUP2 MSTORE PUSH1 0x20 ADD SWAP1 DUP2 MSTORE PUSH1 0x20 ADD PUSH0 KECCAK256 PUSH1 0x4 ADD PUSH1 0x1 PUSH1 0x2 DUP2 LT PUSH2 0x240E JUMPI PUSH2 0x240D PUSH2 0x37FA JUMP JUMPDEST JUMPDEST ADD PUSH0 DUP5 SWAP2 SWAP1 POP SSTORE DUP4 SWAP2 SWAP1 POP SSTORE POP POP PUSH0 PUSH1 0x1 PUSH0 SWAP1 SLOAD SWAP1 PUSH2 0x100 EXP SWAP1 DIV PUSH20 0xFFFFFFFFFFFFFFFFFFFFFFFFFFFFFFFFFFFFFFFF AND PUSH20 0xFFFFFFFFFFFFFFFFFFFFFFFFFFFFFFFFFFFFFFFF AND PUSH4 0x23B872DD CALLER ADDRESS DUP7 PUSH1 0x40 MLOAD DUP5 PUSH4 0xFFFFFFFF AND PUSH1 0xE0 SHL DUP2 MSTORE PUSH1 0x4 ADD PUSH2 0x247B SWAP4 SWAP3 SWAP2 SWAP1 PUSH2 0x3B7D JUMP JUMPDEST PUSH1 0x20 PUSH1 0x40 MLOAD DUP1 DUP4 SUB DUP2 PUSH0 DUP8 GAS CALL ISZERO DUP1 ISZERO PUSH2 0x2497 JUMPI RETURNDATASIZE PUSH0 PUSH0 RETURNDATACOPY RETURNDATASIZE PUSH0 REVERT JUMPDEST POP POP POP POP PUSH1 0x40 MLOAD RETURNDATASIZE PUSH1 0x1F NOT PUSH1 0x1F DUP3 ADD AND DUP3 ADD DUP1 PUSH1 0x40 MSTORE POP DUP2 ADD SWAP1 PUSH2 0x24BB SWAP2 SWAP1 PUSH2 0x3AA7 JUMP JUMPDEST SWAP1 POP DUP1 PUSH2 0x24FD JUMPI PUSH1 0x40 MLOAD PUSH32 0x8C379A000000000000000000000000000000000000000000000000000000000 DUP2 MSTORE PUSH1 0x4 ADD PUSH2 0x24F4 SWAP1 PUSH2 0x3B1C JUMP JUMPDEST PUSH1 0x40 MLOAD DUP1 SWAP2 SUB SWAP1 REVERT JUMPDEST DUP3 CALLER PUSH20 0xFFFFFFFFFFFFFFFFFFFFFFFFFFFFFFFFFFFFFFFF AND PUSH32 0xF41B7910E085D0992D604FD470931728FD77CC8EB504D99E50E51A0A30FCFD1A DUP5 PUSH1 0x40 MLOAD PUSH2 0x2544 SWAP2 SWAP1 PUSH2 0x3744 JUMP JUMPDEST PUSH1 0x40 MLOAD DUP1 SWAP2 SUB SWAP1 LOG3 POP POP POP JUMP JUMPDEST PUSH2 0x2559 PUSH2 0x328D JUMP JUMPDEST PUSH2 0x2562 PUSH0 PUSH2 0x3314 JUMP JUMPDEST JUMP JUMPDEST PUSH0 PUSH0 DUP4 GT PUSH2 0x25A7 JUMPI PUSH1 0x40 MLOAD PUSH32 0x8C379A000000000000000000000000000000000000000000000000000000000 DUP2 MSTORE PUSH1 0x4 ADD PUSH2 0x259E SWAP1 PUSH2 0x3BFC JUMP JUMPDEST PUSH1 0x40 MLOAD DUP1 SWAP2 SUB SWAP1 REVERT JUMPDEST PUSH0 PUSH1 0x64 PUSH1 0x6 PUSH0 ADDRESS PUSH20 0xFFFFFFFFFFFFFFFFFFFFFFFFFFFFFFFFFFFFFFFF AND PUSH20 0xFFFFFFFFFFFFFFFFFFFFFFFFFFFFFFFFFFFFFFFF AND DUP2 MSTORE PUSH1 0x20 ADD SWAP1 DUP2 MSTORE PUSH1 0x20 ADD PUSH0 KECCAK256 PUSH1 0x4 ADD DUP5 PUSH1 0x2 DUP2 LT PUSH2 0x25FC JUMPI PUSH2 0x25FB PUSH2 0x37FA JUMP JUMPDEST JUMPDEST ADD SLOAD DUP6 PUSH2 0x2609 SWAP2 SWAP1 PUSH2 0x3887 JUMP JUMPDEST PUSH2 0x2613 SWAP2 SWAP1 PUSH2 0x38F5 JUMP JUMPDEST SWAP1 POP DUP1 SWAP2 POP POP SWAP3 SWAP2 POP POP JUMP JUMPDEST PUSH0 PUSH0 PUSH0 SWAP1 SLOAD SWAP1 PUSH2 0x100 EXP SWAP1 DIV PUSH20 0xFFFFFFFFFFFFFFFFFFFFFFFFFFFFFFFFFFFFFFFF AND SWAP1 POP SWAP1 JUMP JUMPDEST PUSH0 PUSH0 PUSH1 0x6 PUSH0 ADDRESS PUSH20 0xFFFFFFFFFFFFFFFFFFFFFFFFFFFFFFFFFFFFFFFF AND PUSH20 0xFFFFFFFFFFFFFFFFFFFFFFFFFFFFFFFFFFFFFFFF AND DUP2 MSTORE PUSH1 0x20 ADD SWAP1 DUP2 MSTORE PUSH1 0x20 ADD PUSH0 KECCAK256 PUSH1 0x4 ADD DUP4 PUSH1 0x2 DUP2 LT PUSH2 0x269A JUMPI PUSH2 0x2699 PUSH2 0x37FA JUMP JUMPDEST JUMPDEST ADD SLOAD SWAP1 POP PUSH0 DUP2 SUB PUSH2 0x26E0 JUMPI PUSH1 0x40 MLOAD PUSH32 0x8C379A000000000000000000000000000000000000000000000000000000000 DUP2 MSTORE PUSH1 0x4 ADD PUSH2 0x26D7 SWAP1 PUSH2 0x3C64 JUMP JUMPDEST PUSH1 0x40 MLOAD DUP1 SWAP2 SUB SWAP1 REVERT JUMPDEST PUSH0 DUP2 PUSH1 0x64 DUP7 PUSH2 0x26EF SWAP2 SWAP1 PUSH2 0x3887 JUMP JUMPDEST PUSH2 0x26F9 SWAP2 SWAP1 PUSH2 0x38F5 JUMP JUMPDEST SWAP1 POP DUP1 SWAP3 POP POP POP SWAP3 SWAP2 POP POP JUMP JUMPDEST PUSH1 0x3 SLOAD DUP2 JUMP JUMPDEST PUSH1 0x2 SLOAD DUP2 JUMP JUMPDEST PUSH1 0x6 PUSH1 0x20 MSTORE DUP1 PUSH0 MSTORE PUSH1 0x40 PUSH0 KECCAK256 PUSH0 SWAP2 POP SWAP1 POP DUP1 PUSH0 ADD PUSH0 SWAP1 SLOAD SWAP1 PUSH2 0x100 EXP SWAP1 DIV PUSH1 0xFF AND SWAP1 DUP1 PUSH1 0x1 ADD SLOAD SWAP1 DUP1 PUSH1 0x2 ADD SLOAD SWAP1 DUP1 PUSH1 0x3 ADD SLOAD SWAP1 DUP1 PUSH1 0x6 ADD SLOAD SWAP1 DUP1 PUSH1 0x7 ADD SLOAD SWAP1 POP DUP7 JUMP JUMPDEST PUSH2 0x275E PUSH2 0x328D JUMP JUMPDEST PUSH0 PUSH20 0xFFFFFFFFFFFFFFFFFFFFFFFFFFFFFFFFFFFFFFFF AND DUP2 PUSH20 0xFFFFFFFFFFFFFFFFFFFFFFFFFFFFFFFFFFFFFFFF AND SUB PUSH2 0x27CE JUMPI PUSH0 PUSH1 0x40 MLOAD PUSH32 0x1E4FBDF700000000000000000000000000000000000000000000000000000000 DUP2 MSTORE PUSH1 0x4 ADD PUSH2 0x27C5 SWAP2 SWAP1 PUSH2 0x347D JUMP JUMPDEST PUSH1 0x40 MLOAD DUP1 SWAP2 SUB SWAP1 REVERT JUMPDEST PUSH2 0x27D7 DUP2 PUSH2 0x3314 JUMP JUMPDEST POP JUMP JUMPDEST PUSH1 0x7 PUSH0 DUP3 PUSH20 0xFFFFFFFFFFFFFFFFFFFFFFFFFFFFFFFFFFFFFFFF AND PUSH20 0xFFFFFFFFFFFFFFFFFFFFFFFFFFFFFFFFFFFFFFFF AND DUP2 MSTORE PUSH1 0x20 ADD SWAP1 DUP2 MSTORE PUSH1 0x20 ADD PUSH0 KECCAK256 PUSH0 DUP4 DUP2 MSTORE PUSH1 0x20 ADD SWAP1 DUP2 MSTORE PUSH1 0x20 ADD PUSH0 KECCAK256 PUSH0 ADD PUSH0 SWAP1 SLOAD SWAP1 PUSH2 0x100 EXP SWAP1 DIV PUSH1 0xFF AND PUSH2 0x2876 JUMPI DUP2 PUSH1 0x40 MLOAD PUSH32 0x1599706800000000000000000000000000000000000000000000000000000000 DUP2 MSTORE PUSH1 0x4 ADD PUSH2 0x286D SWAP2 SWAP1 PUSH2 0x3744 JUMP JUMPDEST PUSH1 0x40 MLOAD DUP1 SWAP2 SUB SWAP1 REVERT JUMPDEST PUSH1 0x7 PUSH0 DUP3 PUSH20 0xFFFFFFFFFFFFFFFFFFFFFFFFFFFFFFFFFFFFFFFF AND PUSH20 0xFFFFFFFFFFFFFFFFFFFFFFFFFFFFFFFFFFFFFFFF AND DUP2 MSTORE PUSH1 0x20 ADD SWAP1 DUP2 MSTORE PUSH1 0x20 ADD PUSH0 KECCAK256 PUSH0 DUP4 DUP2 MSTORE PUSH1 0x20 ADD SWAP1 DUP2 MSTORE PUSH1 0x20 ADD PUSH0 KECCAK256 PUSH0 ADD PUSH1 0x1 SWAP1 SLOAD SWAP1 PUSH2 0x100 EXP SWAP1 DIV PUSH1 0xFF AND ISZERO PUSH2 0x296F JUMPI PUSH1 0x7 PUSH0 DUP3 PUSH20 0xFFFFFFFFFFFFFFFFFFFFFFFFFFFFFFFFFFFFFFFF AND PUSH20 0xFFFFFFFFFFFFFFFFFFFFFFFFFFFFFFFFFFFFFFFF AND DUP2 MSTORE PUSH1 0x20 ADD SWAP1 DUP2 MSTORE PUSH1 0x20 ADD PUSH0 KECCAK256 PUSH0 DUP4 DUP2 MSTORE PUSH1 0x20 ADD SWAP1 DUP2 MSTORE PUSH1 0x20 ADD PUSH0 KECCAK256 PUSH0 ADD PUSH1 0x1 SWAP1 SLOAD SWAP1 PUSH2 0x100 EXP SWAP1 DIV PUSH1 0xFF AND PUSH1 0x40 MLOAD PUSH32 0xCA1C6EB300000000000000000000000000000000000000000000000000000000 DUP2 MSTORE PUSH1 0x4 ADD PUSH2 0x2966 SWAP2 SWAP1 PUSH2 0x3518 JUMP JUMPDEST PUSH1 0x40 MLOAD DUP1 SWAP2 SUB SWAP1 REVERT JUMPDEST PUSH1 0x6 PUSH0 ADDRESS PUSH20 0xFFFFFFFFFFFFFFFFFFFFFFFFFFFFFFFFFFFFFFFF AND PUSH20 0xFFFFFFFFFFFFFFFFFFFFFFFFFFFFFFFFFFFFFFFF AND DUP2 MSTORE PUSH1 0x20 ADD SWAP1 DUP2 MSTORE PUSH1 0x20 ADD PUSH0 KECCAK256 PUSH0 ADD PUSH0 SWAP1 SLOAD SWAP1 PUSH2 0x100 EXP SWAP1 DIV PUSH1 0xFF AND ISZERO PUSH2 0x29F2 JUMPI PUSH1 0x40 MLOAD PUSH32 0x853FD42100000000000000000000000000000000000000000000000000000000 DUP2 MSTORE PUSH1 0x4 ADD PUSH1 0x40 MLOAD DUP1 SWAP2 SUB SWAP1 REVERT JUMPDEST DUP1 PUSH20 0xFFFFFFFFFFFFFFFFFFFFFFFFFFFFFFFFFFFFFFFF AND PUSH1 0x7 PUSH0 DUP4 PUSH20 0xFFFFFFFFFFFFFFFFFFFFFFFFFFFFFFFFFFFFFFFF AND PUSH20 0xFFFFFFFFFFFFFFFFFFFFFFFFFFFFFFFFFFFFFFFF AND DUP2 MSTORE PUSH1 0x20 ADD SWAP1 DUP2 MSTORE PUSH1 0x20 ADD PUSH0 KECCAK256 PUSH0 DUP5 DUP2 MSTORE PUSH1 0x20 ADD SWAP1 DUP2 MSTORE PUSH1 0x20 ADD PUSH0 KECCAK256 PUSH0 ADD PUSH1 0x2 SWAP1 SLOAD SWAP1 PUSH2 0x100 EXP SWAP1 DIV PUSH20 0xFFFFFFFFFFFFFFFFFFFFFFFFFFFFFFFFFFFFFFFF AND PUSH20 0xFFFFFFFFFFFFFFFFFFFFFFFFFFFFFFFFFFFFFFFF AND EQ PUSH2 0x2AD0 JUMPI DUP1 PUSH1 0x40 MLOAD PUSH32 0xF6B79C5800000000000000000000000000000000000000000000000000000000 DUP2 MSTORE PUSH1 0x4 ADD PUSH2 0x2AC7 SWAP2 SWAP1 PUSH2 0x347D JUMP JUMPDEST PUSH1 0x40 MLOAD DUP1 SWAP2 SUB SWAP1 REVERT JUMPDEST PUSH1 0x1 PUSH1 0x7 PUSH0 DUP4 PUSH20 0xFFFFFFFFFFFFFFFFFFFFFFFFFFFFFFFFFFFFFFFF AND PUSH20 0xFFFFFFFFFFFFFFFFFFFFFFFFFFFFFFFFFFFFFFFF AND DUP2 MSTORE PUSH1 0x20 ADD SWAP1 DUP2 MSTORE PUSH1 0x20 ADD PUSH0 KECCAK256 PUSH0 DUP5 DUP2 MSTORE PUSH1 0x20 ADD SWAP1 DUP2 MSTORE PUSH1 0x20 ADD PUSH0 KECCAK256 PUSH0 ADD PUSH1 0x1 PUSH2 0x100 EXP DUP2 SLOAD DUP2 PUSH1 0xFF MUL NOT AND SWAP1 DUP4 ISZERO ISZERO MUL OR SWAP1 SSTORE POP CALLER PUSH1 0x7 PUSH0 DUP4 PUSH20 0xFFFFFFFFFFFFFFFFFFFFFFFFFFFFFFFFFFFFFFFF AND PUSH20 0xFFFFFFFFFFFFFFFFFFFFFFFFFFFFFFFFFFFFFFFF AND DUP2 MSTORE PUSH1 0x20 ADD SWAP1 DUP2 MSTORE PUSH1 0x20 ADD PUSH0 KECCAK256 PUSH0 DUP5 DUP2 MSTORE PUSH1 0x20 ADD SWAP1 DUP2 MSTORE PUSH1 0x20 ADD PUSH0 KECCAK256 PUSH0 ADD PUSH1 0x2 PUSH2 0x100 EXP DUP2 SLOAD DUP2 PUSH20 0xFFFFFFFFFFFFFFFFFFFFFFFFFFFFFFFFFFFFFFFF MUL NOT AND SWAP1 DUP4 PUSH20 0xFFFFFFFFFFFFFFFFFFFFFFFFFFFFFFFFFFFFFFFF AND MUL OR SWAP1 SSTORE POP PUSH0 PUSH1 0x7 PUSH0 DUP4 PUSH20 0xFFFFFFFFFFFFFFFFFFFFFFFFFFFFFFFFFFFFFFFF AND PUSH20 0xFFFFFFFFFFFFFFFFFFFFFFFFFFFFFFFFFFFFFFFF AND DUP2 MSTORE PUSH1 0x20 ADD SWAP1 DUP2 MSTORE PUSH1 0x20 ADD PUSH0 KECCAK256 PUSH0 DUP5 DUP2 MSTORE PUSH1 0x20 ADD SWAP1 DUP2 MSTORE PUSH1 0x20 ADD PUSH0 KECCAK256 PUSH1 0x3 ADD SLOAD SUB PUSH2 0x2D69 JUMPI PUSH1 0x7 PUSH0 DUP3 PUSH20 0xFFFFFFFFFFFFFFFFFFFFFFFFFFFFFFFFFFFFFFFF AND PUSH20 0xFFFFFFFFFFFFFFFFFFFFFFFFFFFFFFFFFFFFFFFF AND DUP2 MSTORE PUSH1 0x20 ADD SWAP1 DUP2 MSTORE PUSH1 0x20 ADD PUSH0 KECCAK256 PUSH0 DUP4 DUP2 MSTORE PUSH1 0x20 ADD SWAP1 DUP2 MSTORE PUSH1 0x20 ADD PUSH0 KECCAK256 PUSH1 0x2 ADD SLOAD PUSH1 0x5 PUSH0 CALLER PUSH20 0xFFFFFFFFFFFFFFFFFFFFFFFFFFFFFFFFFFFFFFFF AND PUSH20 0xFFFFFFFFFFFFFFFFFFFFFFFFFFFFFFFFFFFFFFFF AND DUP2 MSTORE PUSH1 0x20 ADD SWAP1 DUP2 MSTORE PUSH1 0x20 ADD PUSH0 KECCAK256 PUSH1 0x1 ADD PUSH0 DUP3 DUP3 SLOAD PUSH2 0x2CB8 SWAP2 SWAP1 PUSH2 0x3854 JUMP JUMPDEST SWAP3 POP POP DUP2 SWAP1 SSTORE POP PUSH1 0x7 PUSH0 DUP3 PUSH20 0xFFFFFFFFFFFFFFFFFFFFFFFFFFFFFFFFFFFFFFFF AND PUSH20 0xFFFFFFFFFFFFFFFFFFFFFFFFFFFFFFFFFFFFFFFF AND DUP2 MSTORE PUSH1 0x20 ADD SWAP1 DUP2 MSTORE PUSH1 0x20 ADD PUSH0 KECCAK256 PUSH0 DUP4 DUP2 MSTORE PUSH1 0x20 ADD SWAP1 DUP2 MSTORE PUSH1 0x20 ADD PUSH0 KECCAK256 PUSH1 0x2 ADD SLOAD PUSH1 0x5 PUSH0 DUP4 PUSH20 0xFFFFFFFFFFFFFFFFFFFFFFFFFFFFFFFFFFFFFFFF AND PUSH20 0xFFFFFFFFFFFFFFFFFFFFFFFFFFFFFFFFFFFFFFFF AND DUP2 MSTORE PUSH1 0x20 ADD SWAP1 DUP2 MSTORE PUSH1 0x20 ADD PUSH0 KECCAK256 PUSH1 0x1 ADD PUSH0 DUP3 DUP3 SLOAD PUSH2 0x2D5D SWAP2 SWAP1 PUSH2 0x39E4 JUMP JUMPDEST SWAP3 POP POP DUP2 SWAP1 SSTORE POP PUSH2 0x2EB4 JUMP JUMPDEST PUSH1 0x7 PUSH0 DUP3 PUSH20 0xFFFFFFFFFFFFFFFFFFFFFFFFFFFFFFFFFFFFFFFF AND PUSH20 0xFFFFFFFFFFFFFFFFFFFFFFFFFFFFFFFFFFFFFFFF AND DUP2 MSTORE PUSH1 0x20 ADD SWAP1 DUP2 MSTORE PUSH1 0x20 ADD PUSH0 KECCAK256 PUSH0 DUP4 DUP2 MSTORE PUSH1 0x20 ADD SWAP1 DUP2 MSTORE PUSH1 0x20 ADD PUSH0 KECCAK256 PUSH1 0x2 ADD SLOAD PUSH1 0x5 PUSH0 DUP4 PUSH20 0xFFFFFFFFFFFFFFFFFFFFFFFFFFFFFFFFFFFFFFFF AND PUSH20 0xFFFFFFFFFFFFFFFFFFFFFFFFFFFFFFFFFFFFFFFF AND DUP2 MSTORE PUSH1 0x20 ADD SWAP1 DUP2 MSTORE PUSH1 0x20 ADD PUSH0 KECCAK256 PUSH1 0x3 ADD PUSH0 DUP3 DUP3 SLOAD PUSH2 0x2E07 SWAP2 SWAP1 PUSH2 0x39E4 JUMP JUMPDEST SWAP3 POP POP DUP2 SWAP1 SSTORE POP PUSH1 0x7 PUSH0 DUP3 PUSH20 0xFFFFFFFFFFFFFFFFFFFFFFFFFFFFFFFFFFFFFFFF AND PUSH20 0xFFFFFFFFFFFFFFFFFFFFFFFFFFFFFFFFFFFFFFFF AND DUP2 MSTORE PUSH1 0x20 ADD SWAP1 DUP2 MSTORE PUSH1 0x20 ADD PUSH0 KECCAK256 PUSH0 DUP4 DUP2 MSTORE PUSH1 0x20 ADD SWAP1 DUP2 MSTORE PUSH1 0x20 ADD PUSH0 KECCAK256 PUSH1 0x2 ADD SLOAD PUSH1 0x5 PUSH0 CALLER PUSH20 0xFFFFFFFFFFFFFFFFFFFFFFFFFFFFFFFFFFFFFFFF AND PUSH20 0xFFFFFFFFFFFFFFFFFFFFFFFFFFFFFFFFFFFFFFFF AND DUP2 MSTORE PUSH1 0x20 ADD SWAP1 DUP2 MSTORE PUSH1 0x20 ADD PUSH0 KECCAK256 PUSH1 0x3 ADD PUSH0 DUP3 DUP3 SLOAD PUSH2 0x2EAC SWAP2 SWAP1 PUSH2 0x3854 JUMP JUMPDEST SWAP3 POP POP DUP2 SWAP1 SSTORE POP JUMPDEST PUSH1 0x1 PUSH1 0x5 PUSH0 CALLER PUSH20 0xFFFFFFFFFFFFFFFFFFFFFFFFFFFFFFFFFFFFFFFF AND PUSH20 0xFFFFFFFFFFFFFFFFFFFFFFFFFFFFFFFFFFFFFFFF AND DUP2 MSTORE PUSH1 0x20 ADD SWAP1 DUP2 MSTORE PUSH1 0x20 ADD PUSH0 KECCAK256 PUSH1 0x5 ADD PUSH0 PUSH1 0x7 PUSH0 DUP6 PUSH20 0xFFFFFFFFFFFFFFFFFFFFFFFFFFFFFFFFFFFFFFFF AND PUSH20 0xFFFFFFFFFFFFFFFFFFFFFFFFFFFFFFFFFFFFFFFF AND DUP2 MSTORE PUSH1 0x20 ADD SWAP1 DUP2 MSTORE PUSH1 0x20 ADD PUSH0 KECCAK256 PUSH0 DUP7 DUP2 MSTORE PUSH1 0x20 ADD SWAP1 DUP2 MSTORE PUSH1 0x20 ADD PUSH0 KECCAK256 PUSH1 0x3 ADD SLOAD DUP2 MSTORE PUSH1 0x20 ADD SWAP1 DUP2 MSTORE PUSH1 0x20 ADD PUSH0 KECCAK256 PUSH0 PUSH2 0x100 EXP DUP2 SLOAD DUP2 PUSH1 0xFF MUL NOT AND SWAP1 DUP4 ISZERO ISZERO MUL OR SWAP1 SSTORE POP CALLER PUSH1 0x4 PUSH0 PUSH1 0x2 SLOAD DUP2 MSTORE PUSH1 0x20 ADD SWAP1 DUP2 MSTORE PUSH1 0x20 ADD PUSH0 KECCAK256 PUSH0 PUSH2 0x100 EXP DUP2 SLOAD DUP2 PUSH20 0xFFFFFFFFFFFFFFFFFFFFFFFFFFFFFFFFFFFFFFFF MUL NOT AND SWAP1 DUP4 PUSH20 0xFFFFFFFFFFFFFFFFFFFFFFFFFFFFFFFFFFFFFFFF AND MUL OR SWAP1 SSTORE POP PUSH1 0x2 PUSH0 DUP2 SLOAD DUP1 SWAP3 SWAP2 SWAP1 PUSH2 0x2FCD SWAP1 PUSH2 0x399D JUMP JUMPDEST SWAP2 SWAP1 POP SSTORE POP PUSH0 PUSH1 0x1 PUSH0 SWAP1 SLOAD SWAP1 PUSH2 0x100 EXP SWAP1 DIV PUSH20 0xFFFFFFFFFFFFFFFFFFFFFFFFFFFFFFFFFFFFFFFF AND PUSH20 0xFFFFFFFFFFFFFFFFFFFFFFFFFFFFFFFFFFFFFFFF AND PUSH4 0x23B872DD CALLER DUP5 PUSH1 0x7 PUSH0 DUP8 PUSH20 0xFFFFFFFFFFFFFFFFFFFFFFFFFFFFFFFFFFFFFFFF AND PUSH20 0xFFFFFFFFFFFFFFFFFFFFFFFFFFFFFFFFFFFFFFFF AND DUP2 MSTORE PUSH1 0x20 ADD SWAP1 DUP2 MSTORE PUSH1 0x20 ADD PUSH0 KECCAK256 PUSH0 DUP9 DUP2 MSTORE PUSH1 0x20 ADD SWAP1 DUP2 MSTORE PUSH1 0x20 ADD PUSH0 KECCAK256 PUSH1 0x1 ADD SLOAD PUSH1 0x40 MLOAD DUP5 PUSH4 0xFFFFFFFF AND PUSH1 0xE0 SHL DUP2 MSTORE PUSH1 0x4 ADD PUSH2 0x3080 SWAP4 SWAP3 SWAP2 SWAP1 PUSH2 0x3B7D JUMP JUMPDEST PUSH1 0x20 PUSH1 0x40 MLOAD DUP1 DUP4 SUB DUP2 PUSH0 DUP8 GAS CALL ISZERO DUP1 ISZERO PUSH2 0x309C JUMPI RETURNDATASIZE PUSH0 PUSH0 RETURNDATACOPY RETURNDATASIZE PUSH0 REVERT JUMPDEST POP POP POP POP PUSH1 0x40 MLOAD RETURNDATASIZE PUSH1 0x1F NOT PUSH1 0x1F DUP3 ADD AND DUP3 ADD DUP1 PUSH1 0x40 MSTORE POP DUP2 ADD SWAP1 PUSH2 0x30C0 SWAP2 SWAP1 PUSH2 0x3AA7 JUMP JUMPDEST SWAP1 POP DUP1 PUSH2 0x3102 JUMPI PUSH1 0x40 MLOAD PUSH32 0x8C379A000000000000000000000000000000000000000000000000000000000 DUP2 MSTORE PUSH1 0x4 ADD PUSH2 0x30F9 SWAP1 PUSH2 0x3B1C JUMP JUMPDEST PUSH1 0x40 MLOAD DUP1 SWAP2 SUB SWAP1 REVERT JUMPDEST PUSH32 0xC891ADF8DFBF643A02668E73C35BBBB3C8AA9D86E0DC779D260026CFC0AB8B99 CALLER DUP4 PUSH1 0x7 PUSH0 DUP7 PUSH20 0xFFFFFFFFFFFFFFFFFFFFFFFFFFFFFFFFFFFFFFFF AND PUSH20 0xFFFFFFFFFFFFFFFFFFFFFFFFFFFFFFFFFFFFFFFF AND DUP2 MSTORE PUSH1 0x20 ADD SWAP1 DUP2 MSTORE PUSH1 0x20 ADD PUSH0 KECCAK256 PUSH0 DUP8 DUP2 MSTORE PUSH1 0x20 ADD SWAP1 DUP2 MSTORE PUSH1 0x20 ADD PUSH0 KECCAK256 PUSH1 0x2 ADD SLOAD PUSH1 0x7 PUSH0 DUP8 PUSH20 0xFFFFFFFFFFFFFFFFFFFFFFFFFFFFFFFFFFFFFFFF AND PUSH20 0xFFFFFFFFFFFFFFFFFFFFFFFFFFFFFFFFFFFFFFFF AND DUP2 MSTORE PUSH1 0x20 ADD SWAP1 DUP2 MSTORE PUSH1 0x20 ADD PUSH0 KECCAK256 PUSH0 DUP9 DUP2 MSTORE PUSH1 0x20 ADD SWAP1 DUP2 MSTORE PUSH1 0x20 ADD PUSH0 KECCAK256 PUSH1 0x1 ADD SLOAD PUSH1 0x40 MLOAD PUSH2 0x31D5 SWAP5 SWAP4 SWAP3 SWAP2 SWAP1 PUSH2 0x3C82 JUMP JUMPDEST PUSH1 0x40 MLOAD DUP1 SWAP2 SUB SWAP1 LOG1 POP POP POP JUMP JUMPDEST PUSH0 PUSH0 DUP4 SUB PUSH2 0x3225 JUMPI PUSH1 0x40 MLOAD PUSH32 0x8C379A000000000000000000000000000000000000000000000000000000000 DUP2 MSTORE PUSH1 0x4 ADD PUSH2 0x321C SWAP1 PUSH2 0x3D35 JUMP JUMPDEST PUSH1 0x40 MLOAD DUP1 SWAP2 SUB SWAP1 REVERT JUMPDEST PUSH0 DUP3 SUB PUSH2 0x3267 JUMPI PUSH1 0x40 MLOAD PUSH32 0x8C379A000000000000000000000000000000000000000000000000000000000 DUP2 MSTORE PUSH1 0x4 ADD PUSH2 0x325E SWAP1 PUSH2 0x3D35 JUMP JUMPDEST PUSH1 0x40 MLOAD DUP1 SWAP2 SUB SWAP1 REVERT JUMPDEST PUSH0 PUSH2 0x2710 DUP4 DUP6 PUSH2 0x3277 SWAP2 SWAP1 PUSH2 0x3887 JUMP JUMPDEST PUSH2 0x3281 SWAP2 SWAP1 PUSH2 0x38F5 JUMP JUMPDEST SWAP1 POP DUP1 SWAP2 POP POP SWAP3 SWAP2 POP POP JUMP JUMPDEST PUSH2 0x3295 PUSH2 0x33D5 JUMP JUMPDEST PUSH20 0xFFFFFFFFFFFFFFFFFFFFFFFFFFFFFFFFFFFFFFFF AND PUSH2 0x32B3 PUSH2 0x261F JUMP JUMPDEST PUSH20 0xFFFFFFFFFFFFFFFFFFFFFFFFFFFFFFFFFFFFFFFF AND EQ PUSH2 0x3312 JUMPI PUSH2 0x32D6 PUSH2 0x33D5 JUMP JUMPDEST PUSH1 0x40 MLOAD PUSH32 0x118CDAA700000000000000000000000000000000000000000000000000000000 DUP2 MSTORE PUSH1 0x4 ADD PUSH2 0x3309 SWAP2 SWAP1 PUSH2 0x347D JUMP JUMPDEST PUSH1 0x40 MLOAD DUP1 SWAP2 SUB SWAP1 REVERT JUMPDEST JUMP JUMPDEST PUSH0 PUSH0 PUSH0 SWAP1 SLOAD SWAP1 PUSH2 0x100 EXP SWAP1 DIV PUSH20 0xFFFFFFFFFFFFFFFFFFFFFFFFFFFFFFFFFFFFFFFF AND SWAP1 POP DUP2 PUSH0 PUSH0 PUSH2 0x100 EXP DUP2 SLOAD DUP2 PUSH20 0xFFFFFFFFFFFFFFFFFFFFFFFFFFFFFFFFFFFFFFFF MUL NOT AND SWAP1 DUP4 PUSH20 0xFFFFFFFFFFFFFFFFFFFFFFFFFFFFFFFFFFFFFFFF AND MUL OR SWAP1 SSTORE POP DUP2 PUSH20 0xFFFFFFFFFFFFFFFFFFFFFFFFFFFFFFFFFFFFFFFF AND DUP2 PUSH20 0xFFFFFFFFFFFFFFFFFFFFFFFFFFFFFFFFFFFFFFFF AND PUSH32 0x8BE0079C531659141344CD1FD0A4F28419497F9722A3DAAFE3B4186F6B6457E0 PUSH1 0x40 MLOAD PUSH1 0x40 MLOAD DUP1 SWAP2 SUB SWAP1 LOG3 POP POP JUMP JUMPDEST PUSH0 CALLER SWAP1 POP SWAP1 JUMP JUMPDEST PUSH0 PUSH0 REVERT JUMPDEST PUSH0 DUP2 SWAP1 POP SWAP2 SWAP1 POP JUMP JUMPDEST PUSH2 0x33F2 DUP2 PUSH2 0x33E0 JUMP JUMPDEST DUP2 EQ PUSH2 0x33FC JUMPI PUSH0 PUSH0 REVERT JUMPDEST POP JUMP JUMPDEST PUSH0 DUP2 CALLDATALOAD SWAP1 POP PUSH2 0x340D DUP2 PUSH2 0x33E9 JUMP JUMPDEST SWAP3 SWAP2 POP POP JUMP JUMPDEST PUSH0 PUSH1 0x20 DUP3 DUP5 SUB SLT ISZERO PUSH2 0x3428 JUMPI PUSH2 0x3427 PUSH2 0x33DC JUMP JUMPDEST JUMPDEST PUSH0 PUSH2 0x3435 DUP5 DUP3 DUP6 ADD PUSH2 0x33FF JUMP JUMPDEST SWAP2 POP POP SWAP3 SWAP2 POP POP JUMP JUMPDEST PUSH0 PUSH20 0xFFFFFFFFFFFFFFFFFFFFFFFFFFFFFFFFFFFFFFFF DUP3 AND SWAP1 POP SWAP2 SWAP1 POP JUMP JUMPDEST PUSH0 PUSH2 0x3467 DUP3 PUSH2 0x343E JUMP JUMPDEST SWAP1 POP SWAP2 SWAP1 POP JUMP JUMPDEST PUSH2 0x3477 DUP2 PUSH2 0x345D JUMP JUMPDEST DUP3 MSTORE POP POP JUMP JUMPDEST PUSH0 PUSH1 0x20 DUP3 ADD SWAP1 POP PUSH2 0x3490 PUSH0 DUP4 ADD DUP5 PUSH2 0x346E JUMP JUMPDEST SWAP3 SWAP2 POP POP JUMP JUMPDEST PUSH2 0x349F DUP2 PUSH2 0x345D JUMP JUMPDEST DUP2 EQ PUSH2 0x34A9 JUMPI PUSH0 PUSH0 REVERT JUMPDEST POP JUMP JUMPDEST PUSH0 DUP2 CALLDATALOAD SWAP1 POP PUSH2 0x34BA DUP2 PUSH2 0x3496 JUMP JUMPDEST SWAP3 SWAP2 POP POP JUMP JUMPDEST PUSH0 PUSH0 PUSH1 0x40 DUP4 DUP6 SUB SLT ISZERO PUSH2 0x34D6 JUMPI PUSH2 0x34D5 PUSH2 0x33DC JUMP JUMPDEST JUMPDEST PUSH0 PUSH2 0x34E3 DUP6 DUP3 DUP7 ADD PUSH2 0x34AC JUMP JUMPDEST SWAP3 POP POP PUSH1 0x20 PUSH2 0x34F4 DUP6 DUP3 DUP7 ADD PUSH2 0x33FF JUMP JUMPDEST SWAP2 POP POP SWAP3 POP SWAP3 SWAP1 POP JUMP JUMPDEST PUSH0 DUP2 ISZERO ISZERO SWAP1 POP SWAP2 SWAP1 POP JUMP JUMPDEST PUSH2 0x3512 DUP2 PUSH2 0x34FE JUMP JUMPDEST DUP3 MSTORE POP POP JUMP JUMPDEST PUSH0 PUSH1 0x20 DUP3 ADD SWAP1 POP PUSH2 0x352B PUSH0 DUP4 ADD DUP5 PUSH2 0x3509 JUMP JUMPDEST SWAP3 SWAP2 POP POP JUMP JUMPDEST PUSH0 DUP2 SWAP1 POP SWAP2 SWAP1 POP JUMP JUMPDEST PUSH0 PUSH2 0x3554 PUSH2 0x354F PUSH2 0x354A DUP5 PUSH2 0x343E JUMP JUMPDEST PUSH2 0x3531 JUMP JUMPDEST PUSH2 0x343E JUMP JUMPDEST SWAP1 POP SWAP2 SWAP1 POP JUMP JUMPDEST PUSH0 PUSH2 0x3565 DUP3 PUSH2 0x353A JUMP JUMPDEST SWAP1 POP SWAP2 SWAP1 POP JUMP JUMPDEST PUSH0 PUSH2 0x3576 DUP3 PUSH2 0x355B JUMP JUMPDEST SWAP1 POP SWAP2 SWAP1 POP JUMP JUMPDEST PUSH2 0x3586 DUP2 PUSH2 0x356C JUMP JUMPDEST DUP3 MSTORE POP POP JUMP JUMPDEST PUSH0 PUSH1 0x20 DUP3 ADD SWAP1 POP PUSH2 0x359F PUSH0 DUP4 ADD DUP5 PUSH2 0x357D JUMP JUMPDEST SWAP3 SWAP2 POP POP JUMP JUMPDEST PUSH0 PUSH1 0x20 DUP3 DUP5 SUB SLT ISZERO PUSH2 0x35BA JUMPI PUSH2 0x35B9 PUSH2 0x33DC JUMP JUMPDEST JUMPDEST PUSH0 PUSH2 0x35C7 DUP5 DUP3 DUP6 ADD PUSH2 0x34AC JUMP JUMPDEST SWAP2 POP POP SWAP3 SWAP2 POP POP JUMP JUMPDEST PUSH2 0x35D9 DUP2 PUSH2 0x33E0 JUMP JUMPDEST DUP3 MSTORE POP POP JUMP JUMPDEST PUSH0 PUSH1 0xA0 DUP3 ADD SWAP1 POP PUSH2 0x35F2 PUSH0 DUP4 ADD DUP9 PUSH2 0x35D0 JUMP JUMPDEST PUSH2 0x35FF PUSH1 0x20 DUP4 ADD DUP8 PUSH2 0x35D0 JUMP JUMPDEST PUSH2 0x360C PUSH1 0x40 DUP4 ADD DUP7 PUSH2 0x35D0 JUMP JUMPDEST PUSH2 0x3619 PUSH1 0x60 DUP4 ADD DUP6 PUSH2 0x35D0 JUMP JUMPDEST PUSH2 0x3626 PUSH1 0x80 DUP4 ADD DUP5 PUSH2 0x35D0 JUMP JUMPDEST SWAP7 SWAP6 POP POP POP POP POP POP JUMP JUMPDEST PUSH0 PUSH1 0x40 DUP3 ADD SWAP1 POP PUSH2 0x3643 PUSH0 DUP4 ADD DUP6 PUSH2 0x35D0 JUMP JUMPDEST PUSH2 0x3650 PUSH1 0x20 DUP4 ADD DUP5 PUSH2 0x35D0 JUMP JUMPDEST SWAP4 SWAP3 POP POP POP JUMP JUMPDEST PUSH0 PUSH0 PUSH1 0x40 DUP4 DUP6 SUB SLT ISZERO PUSH2 0x366D JUMPI PUSH2 0x366C PUSH2 0x33DC JUMP JUMPDEST JUMPDEST PUSH0 PUSH2 0x367A DUP6 DUP3 DUP7 ADD PUSH2 0x33FF JUMP JUMPDEST SWAP3 POP POP PUSH1 0x20 PUSH2 0x368B DUP6 DUP3 DUP7 ADD PUSH2 0x33FF JUMP JUMPDEST SWAP2 POP POP SWAP3 POP SWAP3 SWAP1 POP JUMP JUMPDEST PUSH0 PUSH1 0xC0 DUP3 ADD SWAP1 POP PUSH2 0x36A8 PUSH0 DUP4 ADD DUP10 PUSH2 0x3509 JUMP JUMPDEST PUSH2 0x36B5 PUSH1 0x20 DUP4 ADD DUP9 PUSH2 0x3509 JUMP JUMPDEST PUSH2 0x36C2 PUSH1 0x40 DUP4 ADD DUP8 PUSH2 0x346E JUMP JUMPDEST PUSH2 0x36CF PUSH1 0x60 DUP4 ADD DUP7 PUSH2 0x35D0 JUMP JUMPDEST PUSH2 0x36DC PUSH1 0x80 DUP4 ADD DUP6 PUSH2 0x35D0 JUMP JUMPDEST PUSH2 0x36E9 PUSH1 0xA0 DUP4 ADD DUP5 PUSH2 0x35D0 JUMP JUMPDEST SWAP8 SWAP7 POP POP POP POP POP POP POP JUMP JUMPDEST PUSH0 PUSH0 PUSH0 PUSH1 0x60 DUP5 DUP7 SUB SLT ISZERO PUSH2 0x370B JUMPI PUSH2 0x370A PUSH2 0x33DC JUMP JUMPDEST JUMPDEST PUSH0 PUSH2 0x3718 DUP7 DUP3 DUP8 ADD PUSH2 0x33FF JUMP JUMPDEST SWAP4 POP POP PUSH1 0x20 PUSH2 0x3729 DUP7 DUP3 DUP8 ADD PUSH2 0x33FF JUMP JUMPDEST SWAP3 POP POP PUSH1 0x40 PUSH2 0x373A DUP7 DUP3 DUP8 ADD PUSH2 0x33FF JUMP JUMPDEST SWAP2 POP POP SWAP3 POP SWAP3 POP SWAP3 JUMP JUMPDEST PUSH0 PUSH1 0x20 DUP3 ADD SWAP1 POP PUSH2 0x3757 PUSH0 DUP4 ADD DUP5 PUSH2 0x35D0 JUMP JUMPDEST SWAP3 SWAP2 POP POP JUMP JUMPDEST PUSH0 PUSH1 0xC0 DUP3 ADD SWAP1 POP PUSH2 0x3770 PUSH0 DUP4 ADD DUP10 PUSH2 0x3509 JUMP JUMPDEST PUSH2 0x377D PUSH1 0x20 DUP4 ADD DUP9 PUSH2 0x35D0 JUMP JUMPDEST PUSH2 0x378A PUSH1 0x40 DUP4 ADD DUP8 PUSH2 0x35D0 JUMP JUMPDEST PUSH2 0x3797 PUSH1 0x60 DUP4 ADD DUP7 PUSH2 0x35D0 JUMP JUMPDEST PUSH2 0x37A4 PUSH1 0x80 DUP4 ADD DUP6 PUSH2 0x35D0 JUMP JUMPDEST PUSH2 0x37B1 PUSH1 0xA0 DUP4 ADD DUP5 PUSH2 0x35D0 JUMP JUMPDEST SWAP8 SWAP7 POP POP POP POP POP POP POP JUMP JUMPDEST PUSH0 PUSH0 PUSH1 0x40 DUP4 DUP6 SUB SLT ISZERO PUSH2 0x37D2 JUMPI PUSH2 0x37D1 PUSH2 0x33DC JUMP JUMPDEST JUMPDEST PUSH0 PUSH2 0x37DF DUP6 DUP3 DUP7 ADD PUSH2 0x33FF JUMP JUMPDEST SWAP3 POP POP PUSH1 0x20 PUSH2 0x37F0 DUP6 DUP3 DUP7 ADD PUSH2 0x34AC JUMP JUMPDEST SWAP2 POP POP SWAP3 POP SWAP3 SWAP1 POP JUMP JUMPDEST PUSH32 0x4E487B7100000000000000000000000000000000000000000000000000000000 PUSH0 MSTORE PUSH1 0x32 PUSH1 0x4 MSTORE PUSH1 0x24 PUSH0 REVERT JUMPDEST PUSH32 0x4E487B7100000000000000000000000000000000000000000000000000000000 PUSH0 MSTORE PUSH1 0x11 PUSH1 0x4 MSTORE PUSH1 0x24 PUSH0 REVERT JUMPDEST PUSH0 PUSH2 0x385E DUP3 PUSH2 0x33E0 JUMP JUMPDEST SWAP2 POP PUSH2 0x3869 DUP4 PUSH2 0x33E0 JUMP JUMPDEST SWAP3 POP DUP3 DUP3 ADD SWAP1 POP DUP1 DUP3 GT ISZERO PUSH2 0x3881 JUMPI PUSH2 0x3880 PUSH2 0x3827 JUMP JUMPDEST JUMPDEST SWAP3 SWAP2 POP POP JUMP JUMPDEST PUSH0 PUSH2 0x3891 DUP3 PUSH2 0x33E0 JUMP JUMPDEST SWAP2 POP PUSH2 0x389C DUP4 PUSH2 0x33E0 JUMP JUMPDEST SWAP3 POP DUP3 DUP3 MUL PUSH2 0x38AA DUP2 PUSH2 0x33E0 JUMP JUMPDEST SWAP2 POP DUP3 DUP3 DIV DUP5 EQ DUP4 ISZERO OR PUSH2 0x38C1 JUMPI PUSH2 0x38C0 PUSH2 0x3827 JUMP JUMPDEST JUMPDEST POP SWAP3 SWAP2 POP POP JUMP JUMPDEST PUSH32 0x4E487B7100000000000000000000000000000000000000000000000000000000 PUSH0 MSTORE PUSH1 0x12 PUSH1 0x4 MSTORE PUSH1 0x24 PUSH0 REVERT JUMPDEST PUSH0 PUSH2 0x38FF DUP3 PUSH2 0x33E0 JUMP JUMPDEST SWAP2 POP PUSH2 0x390A DUP4 PUSH2 0x33E0 JUMP JUMPDEST SWAP3 POP DUP3 PUSH2 0x391A JUMPI PUSH2 0x3919 PUSH2 0x38C8 JUMP JUMPDEST JUMPDEST DUP3 DUP3 DIV SWAP1 POP SWAP3 SWAP2 POP POP JUMP JUMPDEST PUSH0 DUP3 DUP3 MSTORE PUSH1 0x20 DUP3 ADD SWAP1 POP SWAP3 SWAP2 POP POP JUMP JUMPDEST PUSH32 0x6E6F7420656E6F75676820416D6F756E74000000000000000000000000000000 PUSH0 DUP3 ADD MSTORE POP JUMP JUMPDEST PUSH0 PUSH2 0x3969 PUSH1 0x11 DUP4 PUSH2 0x3925 JUMP JUMPDEST SWAP2 POP PUSH2 0x3974 DUP3 PUSH2 0x3935 JUMP JUMPDEST PUSH1 0x20 DUP3 ADD SWAP1 POP SWAP2 SWAP1 POP JUMP JUMPDEST PUSH0 PUSH1 0x20 DUP3 ADD SWAP1 POP DUP2 DUP2 SUB PUSH0 DUP4 ADD MSTORE PUSH2 0x3996 DUP2 PUSH2 0x395D JUMP JUMPDEST SWAP1 POP SWAP2 SWAP1 POP JUMP JUMPDEST PUSH0 PUSH2 0x39A7 DUP3 PUSH2 0x33E0 JUMP JUMPDEST SWAP2 POP PUSH32 0xFFFFFFFFFFFFFFFFFFFFFFFFFFFFFFFFFFFFFFFFFFFFFFFFFFFFFFFFFFFFFFFF DUP3 SUB PUSH2 0x39D9 JUMPI PUSH2 0x39D8 PUSH2 0x3827 JUMP JUMPDEST JUMPDEST PUSH1 0x1 DUP3 ADD SWAP1 POP SWAP2 SWAP1 POP JUMP JUMPDEST PUSH0 PUSH2 0x39EE DUP3 PUSH2 0x33E0 JUMP JUMPDEST SWAP2 POP PUSH2 0x39F9 DUP4 PUSH2 0x33E0 JUMP JUMPDEST SWAP3 POP DUP3 DUP3 SUB SWAP1 POP DUP2 DUP2 GT ISZERO PUSH2 0x3A11 JUMPI PUSH2 0x3A10 PUSH2 0x3827 JUMP JUMPDEST JUMPDEST SWAP3 SWAP2 POP POP JUMP JUMPDEST PUSH0 DUP2 MLOAD SWAP1 POP PUSH2 0x3A25 DUP2 PUSH2 0x33E9 JUMP JUMPDEST SWAP3 SWAP2 POP POP JUMP JUMPDEST PUSH0 PUSH1 0x20 DUP3 DUP5 SUB SLT ISZERO PUSH2 0x3A40 JUMPI PUSH2 0x3A3F PUSH2 0x33DC JUMP JUMPDEST JUMPDEST PUSH0 PUSH2 0x3A4D DUP5 DUP3 DUP6 ADD PUSH2 0x3A17 JUMP JUMPDEST SWAP2 POP POP SWAP3 SWAP2 POP POP JUMP JUMPDEST PUSH0 PUSH1 0x40 DUP3 ADD SWAP1 POP PUSH2 0x3A69 PUSH0 DUP4 ADD DUP6 PUSH2 0x346E JUMP JUMPDEST PUSH2 0x3A76 PUSH1 0x20 DUP4 ADD DUP5 PUSH2 0x35D0 JUMP JUMPDEST SWAP4 SWAP3 POP POP POP JUMP JUMPDEST PUSH2 0x3A86 DUP2 PUSH2 0x34FE JUMP JUMPDEST DUP2 EQ PUSH2 0x3A90 JUMPI PUSH0 PUSH0 REVERT JUMPDEST POP JUMP JUMPDEST PUSH0 DUP2 MLOAD SWAP1 POP PUSH2 0x3AA1 DUP2 PUSH2 0x3A7D JUMP JUMPDEST SWAP3 SWAP2 POP POP JUMP JUMPDEST PUSH0 PUSH1 0x20 DUP3 DUP5 SUB SLT ISZERO PUSH2 0x3ABC JUMPI PUSH2 0x3ABB PUSH2 0x33DC JUMP JUMPDEST JUMPDEST PUSH0 PUSH2 0x3AC9 DUP5 DUP3 DUP6 ADD PUSH2 0x3A93 JUMP JUMPDEST SWAP2 POP POP SWAP3 SWAP2 POP POP JUMP JUMPDEST PUSH32 0x5472616E73666572206661696C65640000000000000000000000000000000000 PUSH0 DUP3 ADD MSTORE POP JUMP JUMPDEST PUSH0 PUSH2 0x3B06 PUSH1 0xF DUP4 PUSH2 0x3925 JUMP JUMPDEST SWAP2 POP PUSH2 0x3B11 DUP3 PUSH2 0x3AD2 JUMP JUMPDEST PUSH1 0x20 DUP3 ADD SWAP1 POP SWAP2 SWAP1 POP JUMP JUMPDEST PUSH0 PUSH1 0x20 DUP3 ADD SWAP1 POP DUP2 DUP2 SUB PUSH0 DUP4 ADD MSTORE PUSH2 0x3B33 DUP2 PUSH2 0x3AFA JUMP JUMPDEST SWAP1 POP SWAP2 SWAP1 POP JUMP JUMPDEST PUSH0 PUSH1 0x80 DUP3 ADD SWAP1 POP PUSH2 0x3B4D PUSH0 DUP4 ADD DUP8 PUSH2 0x346E JUMP JUMPDEST PUSH2 0x3B5A PUSH1 0x20 DUP4 ADD DUP7 PUSH2 0x35D0 JUMP JUMPDEST PUSH2 0x3B67 PUSH1 0x40 DUP4 ADD DUP6 PUSH2 0x35D0 JUMP JUMPDEST PUSH2 0x3B74 PUSH1 0x60 DUP4 ADD DUP5 PUSH2 0x35D0 JUMP JUMPDEST SWAP6 SWAP5 POP POP POP POP POP JUMP JUMPDEST PUSH0 PUSH1 0x60 DUP3 ADD SWAP1 POP PUSH2 0x3B90 PUSH0 DUP4 ADD DUP7 PUSH2 0x346E JUMP JUMPDEST PUSH2 0x3B9D PUSH1 0x20 DUP4 ADD DUP6 PUSH2 0x346E JUMP JUMPDEST PUSH2 0x3BAA PUSH1 0x40 DUP4 ADD DUP5 PUSH2 0x35D0 JUMP JUMPDEST SWAP5 SWAP4 POP POP POP POP JUMP JUMPDEST PUSH32 0x536861726573206D7573742062652067726561746572207468616E207A65726F PUSH0 DUP3 ADD MSTORE POP JUMP JUMPDEST PUSH0 PUSH2 0x3BE6 PUSH1 0x20 DUP4 PUSH2 0x3925 JUMP JUMPDEST SWAP2 POP PUSH2 0x3BF1 DUP3 PUSH2 0x3BB2 JUMP JUMPDEST PUSH1 0x20 DUP3 ADD SWAP1 POP SWAP2 SWAP1 POP JUMP JUMPDEST PUSH0 PUSH1 0x20 DUP3 ADD SWAP1 POP DUP2 DUP2 SUB PUSH0 DUP4 ADD MSTORE PUSH2 0x3C13 DUP2 PUSH2 0x3BDA JUMP JUMPDEST SWAP1 POP SWAP2 SWAP1 POP JUMP JUMPDEST PUSH32 0x5F70726963652063616E6E6F74206265207A65726F0000000000000000000000 PUSH0 DUP3 ADD MSTORE POP JUMP JUMPDEST PUSH0 PUSH2 0x3C4E PUSH1 0x15 DUP4 PUSH2 0x3925 JUMP JUMPDEST SWAP2 POP PUSH2 0x3C59 DUP3 PUSH2 0x3C1A JUMP JUMPDEST PUSH1 0x20 DUP3 ADD SWAP1 POP SWAP2 SWAP1 POP JUMP JUMPDEST PUSH0 PUSH1 0x20 DUP3 ADD SWAP1 POP DUP2 DUP2 SUB PUSH0 DUP4 ADD MSTORE PUSH2 0x3C7B DUP2 PUSH2 0x3C42 JUMP JUMPDEST SWAP1 POP SWAP2 SWAP1 POP JUMP JUMPDEST PUSH0 PUSH1 0x80 DUP3 ADD SWAP1 POP PUSH2 0x3C95 PUSH0 DUP4 ADD DUP8 PUSH2 0x346E JUMP JUMPDEST PUSH2 0x3CA2 PUSH1 0x20 DUP4 ADD DUP7 PUSH2 0x346E JUMP JUMPDEST PUSH2 0x3CAF PUSH1 0x40 DUP4 ADD DUP6 PUSH2 0x35D0 JUMP JUMPDEST PUSH2 0x3CBC PUSH1 0x60 DUP4 ADD DUP5 PUSH2 0x35D0 JUMP JUMPDEST SWAP6 SWAP5 POP POP POP POP POP JUMP JUMPDEST PUSH32 0x5F746F74616C5374616B65416D6F756E742063616E206E6F74206265207A6572 PUSH0 DUP3 ADD MSTORE PUSH32 0x6F00000000000000000000000000000000000000000000000000000000000000 PUSH1 0x20 DUP3 ADD MSTORE POP JUMP JUMPDEST PUSH0 PUSH2 0x3D1F PUSH1 0x21 DUP4 PUSH2 0x3925 JUMP JUMPDEST SWAP2 POP PUSH2 0x3D2A DUP3 PUSH2 0x3CC5 JUMP JUMPDEST PUSH1 0x40 DUP3 ADD SWAP1 POP SWAP2 SWAP1 POP JUMP JUMPDEST PUSH0 PUSH1 0x20 DUP3 ADD SWAP1 POP DUP2 DUP2 SUB PUSH0 DUP4 ADD MSTORE PUSH2 0x3D4C DUP2 PUSH2 0x3D13 JUMP JUMPDEST SWAP1 POP SWAP2 SWAP1 POP JUMP INVALID LOG2 PUSH5 0x6970667358 0x22 SLT KECCAK256 SWAP11 0xEF 0xED PUSH26 0x2663FC2D384AA59B92F6B0473D3DBF264C5F7A045D5A1043AA6E ORIGIN DUP2 PUSH5 0x736F6C6343 STOP ADDMOD SHL STOP CALLER "
				},
				"gasEstimates": {
					"creation": {
						"codeDepositCost": "3150600",
						"executionCost": "infinite",
						"totalCost": "infinite"
					},
					"external": {
						"PriceCalculation(uint256,uint256)": "infinite",
						"bet(uint256,uint256)": "infinite",
						"buyShare(uint256,address)": "infinite",
						"calculateInvestment(uint256,uint256)": "infinite",
						"calculateShares(uint256,uint256)": "infinite",
						"eachUser(uint256)": "2851",
						"getInitialPrices()": "infinite",
						"marketInfo(address)": "infinite",
						"owner()": "2603",
						"profitPercentage()": "2447",
						"readSellInfo(address,uint256)": "infinite",
						"renounceOwnership()": "infinite",
						"resolveMarket(uint256)": "infinite",
						"sellInfo(address,uint256)": "infinite",
						"sellShare(uint256,uint256,uint256)": "infinite",
						"totalUsers()": "2469",
						"transferOwnership(address)": "infinite",
						"usdcToken()": "infinite",
						"userBetOn(address,uint256)": "3168",
						"userInfo(address)": "infinite"
					},
					"internal": {
						"calculatePercentage(uint256,uint256)": "infinite",
						"calculatePotentialReturn(uint256)": "infinite"
					}
				},
				"methodIdentifiers": {
					"PriceCalculation(uint256,uint256)": "21d0d9af",
					"bet(uint256,uint256)": "6ffcc719",
					"buyShare(uint256,address)": "fbea0b06",
					"calculateInvestment(uint256,uint256)": "84b5aca6",
					"calculateShares(uint256,uint256)": "b3c740e8",
					"eachUser(uint256)": "08ef962e",
					"getInitialPrices()": "208c86a4",
					"marketInfo(address)": "c4351386",
					"owner()": "8da5cb5b",
					"profitPercentage()": "b677d9d2",
					"readSellInfo(address,uint256)": "3774ca25",
					"renounceOwnership()": "715018a6",
					"resolveMarket(uint256)": "6399d03d",
					"sellInfo(address,uint256)": "61d464ef",
					"sellShare(uint256,uint256,uint256)": "456e62ba",
					"totalUsers()": "bff1f9e1",
					"transferOwnership(address)": "f2fde38b",
					"usdcToken()": "11eac855",
					"userBetOn(address,uint256)": "0efa82f6",
					"userInfo(address)": "1959a002"
				}
			},
			"storageLayout": {
				"storage": [
					{
						"astId": 8,
						"contract": "FacctoryContract/WagerContract.sol:Market",
						"label": "_owner",
						"offset": 0,
						"slot": "0",
						"type": "t_address"
					},
					{
						"astId": 942,
						"contract": "FacctoryContract/WagerContract.sol:Market",
						"label": "usdcToken",
						"offset": 0,
						"slot": "1",
						"type": "t_contract(ERC20)799"
					},
					{
						"astId": 989,
						"contract": "FacctoryContract/WagerContract.sol:Market",
						"label": "totalUsers",
						"offset": 0,
						"slot": "2",
						"type": "t_uint256"
					},
					{
						"astId": 991,
						"contract": "FacctoryContract/WagerContract.sol:Market",
						"label": "profitPercentage",
						"offset": 0,
						"slot": "3",
						"type": "t_uint256"
					},
					{
						"astId": 995,
						"contract": "FacctoryContract/WagerContract.sol:Market",
						"label": "eachUser",
						"offset": 0,
						"slot": "4",
						"type": "t_mapping(t_uint256,t_address)"
					},
					{
						"astId": 1000,
						"contract": "FacctoryContract/WagerContract.sol:Market",
						"label": "userInfo",
						"offset": 0,
						"slot": "5",
						"type": "t_mapping(t_address,t_struct(UserInfo)974_storage)"
					},
					{
						"astId": 1005,
						"contract": "FacctoryContract/WagerContract.sol:Market",
						"label": "marketInfo",
						"offset": 0,
						"slot": "6",
						"type": "t_mapping(t_address,t_struct(MarketInfo)959_storage)"
					},
					{
						"astId": 1012,
						"contract": "FacctoryContract/WagerContract.sol:Market",
						"label": "sellInfo",
						"offset": 0,
						"slot": "7",
						"type": "t_mapping(t_address,t_mapping(t_uint256,t_struct(SellInfo)987_storage))"
					}
				],
				"types": {
					"t_address": {
						"encoding": "inplace",
						"label": "address",
						"numberOfBytes": "20"
					},
					"t_array(t_uint256)2_storage": {
						"base": "t_uint256",
						"encoding": "inplace",
						"label": "uint256[2]",
						"numberOfBytes": "64"
					},
					"t_bool": {
						"encoding": "inplace",
						"label": "bool",
						"numberOfBytes": "1"
					},
					"t_contract(ERC20)799": {
						"encoding": "inplace",
						"label": "contract ERC20",
						"numberOfBytes": "20"
					},
					"t_mapping(t_address,t_mapping(t_uint256,t_struct(SellInfo)987_storage))": {
						"encoding": "mapping",
						"key": "t_address",
						"label": "mapping(address => mapping(uint256 => struct Market.SellInfo))",
						"numberOfBytes": "32",
						"value": "t_mapping(t_uint256,t_struct(SellInfo)987_storage)"
					},
					"t_mapping(t_address,t_struct(MarketInfo)959_storage)": {
						"encoding": "mapping",
						"key": "t_address",
						"label": "mapping(address => struct Market.MarketInfo)",
						"numberOfBytes": "32",
						"value": "t_struct(MarketInfo)959_storage"
					},
					"t_mapping(t_address,t_struct(UserInfo)974_storage)": {
						"encoding": "mapping",
						"key": "t_address",
						"label": "mapping(address => struct Market.UserInfo)",
						"numberOfBytes": "32",
						"value": "t_struct(UserInfo)974_storage"
					},
					"t_mapping(t_uint256,t_address)": {
						"encoding": "mapping",
						"key": "t_uint256",
						"label": "mapping(uint256 => address)",
						"numberOfBytes": "32",
						"value": "t_address"
					},
					"t_mapping(t_uint256,t_bool)": {
						"encoding": "mapping",
						"key": "t_uint256",
						"label": "mapping(uint256 => bool)",
						"numberOfBytes": "32",
						"value": "t_bool"
					},
					"t_mapping(t_uint256,t_struct(SellInfo)987_storage)": {
						"encoding": "mapping",
						"key": "t_uint256",
						"label": "mapping(uint256 => struct Market.SellInfo)",
						"numberOfBytes": "32",
						"value": "t_struct(SellInfo)987_storage"
					},
					"t_struct(MarketInfo)959_storage": {
						"encoding": "inplace",
						"label": "struct Market.MarketInfo",
						"members": [
							{
								"astId": 944,
								"contract": "FacctoryContract/WagerContract.sol:Market",
								"label": "resolved",
								"offset": 0,
								"slot": "0",
								"type": "t_bool"
							},
							{
								"astId": 946,
								"contract": "FacctoryContract/WagerContract.sol:Market",
								"label": "endTime",
								"offset": 0,
								"slot": "1",
								"type": "t_uint256"
							},
							{
								"astId": 948,
								"contract": "FacctoryContract/WagerContract.sol:Market",
								"label": "totalBets",
								"offset": 0,
								"slot": "2",
								"type": "t_uint256"
							},
							{
								"astId": 950,
								"contract": "FacctoryContract/WagerContract.sol:Market",
								"label": "totalAmount",
								"offset": 0,
								"slot": "3",
								"type": "t_uint256"
							},
							{
								"astId": 954,
								"contract": "FacctoryContract/WagerContract.sol:Market",
								"label": "initialPrice",
								"offset": 0,
								"slot": "4",
								"type": "t_array(t_uint256)2_storage"
							},
							{
								"astId": 956,
								"contract": "FacctoryContract/WagerContract.sol:Market",
								"label": "totalBetsOnYes",
								"offset": 0,
								"slot": "6",
								"type": "t_uint256"
							},
							{
								"astId": 958,
								"contract": "FacctoryContract/WagerContract.sol:Market",
								"label": "totalBetsOnNo",
								"offset": 0,
								"slot": "7",
								"type": "t_uint256"
							}
						],
						"numberOfBytes": "256"
					},
					"t_struct(SellInfo)987_storage": {
						"encoding": "inplace",
						"label": "struct Market.SellInfo",
						"members": [
							{
								"astId": 976,
								"contract": "FacctoryContract/WagerContract.sol:Market",
								"label": "list",
								"offset": 0,
								"slot": "0",
								"type": "t_bool"
							},
							{
								"astId": 978,
								"contract": "FacctoryContract/WagerContract.sol:Market",
								"label": "sold",
								"offset": 1,
								"slot": "0",
								"type": "t_bool"
							},
							{
								"astId": 980,
								"contract": "FacctoryContract/WagerContract.sol:Market",
								"label": "owner",
								"offset": 2,
								"slot": "0",
								"type": "t_address"
							},
							{
								"astId": 982,
								"contract": "FacctoryContract/WagerContract.sol:Market",
								"label": "price",
								"offset": 0,
								"slot": "1",
								"type": "t_uint256"
							},
							{
								"astId": 984,
								"contract": "FacctoryContract/WagerContract.sol:Market",
								"label": "amount",
								"offset": 0,
								"slot": "2",
								"type": "t_uint256"
							},
							{
								"astId": 986,
								"contract": "FacctoryContract/WagerContract.sol:Market",
								"label": "listOn",
								"offset": 0,
								"slot": "3",
								"type": "t_uint256"
							}
						],
						"numberOfBytes": "128"
					},
					"t_struct(UserInfo)974_storage": {
						"encoding": "inplace",
						"label": "struct Market.UserInfo",
						"members": [
							{
								"astId": 961,
								"contract": "FacctoryContract/WagerContract.sol:Market",
								"label": "listNo",
								"offset": 0,
								"slot": "0",
								"type": "t_uint256"
							},
							{
								"astId": 963,
								"contract": "FacctoryContract/WagerContract.sol:Market",
								"label": "noBetAmount",
								"offset": 0,
								"slot": "1",
								"type": "t_uint256"
							},
							{
								"astId": 965,
								"contract": "FacctoryContract/WagerContract.sol:Market",
								"label": "rewardAmount",
								"offset": 0,
								"slot": "2",
								"type": "t_uint256"
							},
							{
								"astId": 967,
								"contract": "FacctoryContract/WagerContract.sol:Market",
								"label": "yesBetAmount",
								"offset": 0,
								"slot": "3",
								"type": "t_uint256"
							},
							{
								"astId": 969,
								"contract": "FacctoryContract/WagerContract.sol:Market",
								"label": "shareAmount",
								"offset": 0,
								"slot": "4",
								"type": "t_uint256"
							},
							{
								"astId": 973,
								"contract": "FacctoryContract/WagerContract.sol:Market",
								"label": "betOn",
								"offset": 0,
								"slot": "5",
								"type": "t_mapping(t_uint256,t_bool)"
							}
						],
						"numberOfBytes": "192"
					},
					"t_uint256": {
						"encoding": "inplace",
						"label": "uint256",
						"numberOfBytes": "32"
					}
				}
			},
			"userdoc": {
				"kind": "user",
				"methods": {},
				"version": 1
			}
		}
	}
}